0128066640999992010010100004+47433+008517FM-12+044399999V0209999C000019999999N9999999N1+00271+00251099331ADDMA1999999094051MD1810131+9999OA149900411REMSYN076AAXX  01004 06664 33/// /0000 10027 20025 39405 49933 58013 333 91108 91203;
0128066640999992010010101004+47433+008517FM-12+044399999V0202801N000519999999N9999999N1+00351+00311099301ADDMA1999999094031MD1710101+9999OA149900211REMSYN076AAXX  01014 06664 33/// /2801 10035 20031 39403 49930 57010 333 91104 91201;
0128066640999992010010102004+47433+008517FM-12+044399999V0209999C000019999999N9999999N1+00321+00301099281ADDMA1999999094011MD1719999+9999OA149900101REMSYN076AAXX  01024 06664 33/// /0000 10032 20030 39401 49928 57/// 333 91102 91201;
0087066640999992010010103004+47433+008517FM-12+044399999V0200601N000519999999N9999999N1+00361+00331099201ADDMA1999999093941REMSYN060AAXX  01034 06664 43/// /0601 10036 20033 39394 49920 5////;
0087066640999992010010104004+47433+008517FM-12+044399999V0203601N000519999999N9999999N1+00341+00321099171ADDMA1999999093911REMSYN060AAXX  01044 06664 33/// /3601 10034 20032 39391 49917 5////;
0128066640999992010010105004+47433+008517FM-12+044399999V0200101N000519999999N9999999N1+00311+00301099161ADDMA1999999093891MD1610121+9999OA149900101REMSYN076AAXX  01054 06664 33/// /0101 10031 20030 39389 49916 56012 333 91102 91201;
0206066640999992010010106004+47433+008517FM-12+044399999V0203301N001519999999N9999999N1+00311+00291099151ADDAA124007491AL12400791GJ100009IA2999-00109KA1999N+00141MA1999999093881MD1710061+9999OA149900261REMSYN100AAXX  01064 06664 33/// /3303 10031 20029 39388 49915 57006 333 20014 3/101 55000 70074 91105 91203;
0128066640999992010010107004+47433+008517FM-12+044399999V0200201N000519999999N9999999N1+00271+00271099131ADDMA1999999093861MD1710051+9999OA149900261REMSYN076AAXX  01074 06664 33/// /0201 10027 20027 39386 49913 57005 333 91105 91203;
0128066640999992010010108004+47433+008517FM-12+044399999V0203401N000519999999N9999999N1+00231+00231099181ADDMA1999999093901MD1310011+9999OA149900211REMSYN076AAXX  01084 06664 33/// /3401 10023 20023 39390 49918 53001 333 91104 91202;
0128066640999992010010109004+47433+008517FM-12+044399999V0203101N000519999999N9999999N1+00241+00241099231ADDMA1999999093951MD1210071+9999OA149900261REMSYN076AAXX  01094 06664 33/// /3101 10024 20024 39395 49923 52007 333 91105 91203;
0128066640999992010010110004+47433+008517FM-12+044399999V0200101N001519999999N9999999N1+00261+00251099311ADDMA1999999094031MD1310171+9999OA149900261REMSYN076AAXX  01104 06664 33/// /0103 10026 20025 39403 49931 53017 333 91105 91203;
0128066640999992010010111004+47433+008517FM-12+044399999V0203401N001019999999N9999999N1+00281+00261099311ADDMA1999999094031MD1210131+9999OA149900311REMSYN076AAXX  01114 06664 33/// /3402 10028 20026 39403 49931 52013 333 91106 91203;
0128066640999992010010112004+47433+008517FM-12+044399999V0200401N000519999999N9999999N1+00321+00271099301ADDMA1999999094031MD1210081+9999OA149900311REMSYN076AAXX  01124 06664 33/// /0401 10032 20027 39403 49930 52008 333 91106 91203;
0128066640999992010010113004+47433+008517FM-12+044399999V0202701N001019999999N9999999N1+00361+00281099331ADDMA1999999094061MD1310031+9999OA149900211REMSYN076AAXX  01134 06664 33/// /2702 10036 20028 39406 49933 53003 333 91104 91202;
0128066640999992010010114004+47433+008517FM-12+044399999V0203001N000519999999N9999999N1+00391+00311099391ADDMA1999999094131MD1219999+9999OA149900211REMSYN076AAXX  01144 06664 33/// /3001 10039 20031 39413 49939 52/// 333 91104 91202;
0145066640999992010010115004+47433+008517FM-12+044399999V0202901N000519999999N9999999N1+00411+00361099491ADDAA101000891MA1999999094221MD1310191+9999OA149900311REMSYN082AAXX  01154 06664 23/// /2901 10041 20036 39422 49949 53019 333 69975 91106 91203;
0145066640999992010010116004+47433+008517FM-12+044399999V0202901N001519999999N9999999N1+00441+00381099591ADDAA101001091MA1999999094321MD1310261+9999OA149900261REMSYN082AAXX  01164 06664 23/// /2903 10044 20038 39432 49959 53026 333 69995 91105 91203;
0145066640999992010010117004+47433+008517FM-12+044399999V0202701N003619999999N9999999N1+00351+00241099741ADDAA101001091MA1999999094451MD1310321+9999OA149900721REMSYN082AAXX  01174 06664 23/// /2707 10035 20024 39445 49974 53032 333 69995 91114 91208;
0170066640999992010010118004+47433+008517FM-12+044399999V0202801N005119999999N9999999N1+00241+00111099931ADDAA112004191KA1120M+00461MA1999999094611MD1310391+9999OA149900931REMSYN094AAXX  01184 06664 03/// /2810 10024 20011 39461 49993 53039 60042 333 10046 60015 91118 91210;
0145066640999992010010119004+47433+008517FM-12+044399999V0202701N004619999999N9999999N1+00141+00041100151ADDAA101000891MA1999999094801MD1310481+9999OA149900931REMSYN082AAXX  01194 06664 23/// /2709 10014 20004 39480 40015 53048 333 69975 91118 91210;
0145066640999992010010120004+47433+008517FM-12+044399999V0202701N003619999999N9999999N1+00101+00001100331ADDAA101001091MA1999999094961MD1210511+9999OA149900881REMSYN082AAXX  01204 06664 23/// /2707 10010 20000 39496 40033 52051 333 60015 91117 91209;
0145066640999992010010121004+47433+008517FM-12+044399999V0202601N003619999999N9999999N1+00111-00051100481ADDAA101000021MA1999999095101MD1210491+9999OA149900931REMSYN082AAXX  01214 06664 23/// /2607 10011 21005 39510 40048 52049 333 69925 91118 91210;
0128066640999992010010122004+47433+008517FM-12+044399999V0202801N003119999999N9999999N1+00081-00071100581ADDMA1999999095191MD1110391+9999OA149900881REMSYN076AAXX  01224 06664 33/// /2806 10008 21007 39519 40058 51039 333 91117 91209;
0128066640999992010010123004+47433+008517FM-12+044399999V0202901N005119999999N9999999N1+00011-00191100731ADDMA1999999095321MD1110361+9999OA149901131REMSYN076AAXX  01234 06664 33/// /2910 10001 21019 39532 40073 51036 333 91122 91210;
0151066640999992010010200004+47433+008517FM-12+044399999V0202701N006719999999N9999999N1-00021-00341100811ADDAA106002091MA1999999095391MD1210291+9999OA149901341REMSYN088AAXX  02004 06664 03/// /2713 11002 21034 39539 40081 52029 60021 333 60005 91126 91215;
0128066640999992010010201004+47433+008517FM-12+044399999V0202801N007219999999N9999999N1-00041-00371100921ADDMA1999999095491MD1210301+9999OA149901341REMSYN076AAXX  02014 06664 33/// /2814 11004 21037 39549 40092 52030 333 91126 91215;
0087066640999992010010202004+47433+008517FM-12+044399999V0202701N004119999999N9999999N1-00081-00371101081ADDMA1999999095631REMSYN060AAXX  02024 06664 33/// /2708 11008 21037 39563 40108 5////;
0128066640999992010010203004+47433+008517FM-12+044399999V0202701N004119999999N9999999N1-00081-00481101191ADDMA1999999095741MD1210351+9999OA149901341REMSYN076AAXX  02034 06664 33/// /2708 11008 21048 39574 40119 52035 333 91126 91215;
0128066640999992010010204004+47433+008517FM-12+044399999V0202601N005719999999N9999999N1-00101-00501101271ADDMA1999999095811MD1110321+9999OA149901031REMSYN076AAXX  02044 06664 33/// /2611 11010 21050 39581 40127 51032 333 91120 91211;
0128066640999992010010205004+47433+008517FM-12+044399999V0202601N003619999999N9999999N1-00111-00531101351ADDMA1999999095881MD1110251+9999OA149901241REMSYN076AAXX  02054 06664 33/// /2607 11011 21053 39588 40135 51025 333 91124 91212;
0229066640999992010010206004+47433+008517FM-12+044399999V0202801N005119999999N9999999N1-00121-00521101411ADDAA112002091AA224005891AL14800591GJ100009IA2999-00209KA1999N-00121MA1999999095941MD1310201+9999OA149901341REMSYN112AAXX  02064 06664 03/// /2810 11012 21052 39594 40141 53020 60022 333 21012 3/102 55000 60005 70058 91126 91215;
0128066640999992010010207004+47433+008517FM-12+044399999V0202601N005119999999N9999999N1-00171-00611101541ADDMA1999999096051MD1210241+9999OA149900981REMSYN076AAXX  02074 06664 33/// /2610 11017 21061 39605 40154 52024 333 91119 91211;
0087066640999992010010208004+47433+008517FM-12+044399999V0202701N004119999999N9999999N1-00171-00581101651ADDMA1999999096161REMSYN060AAXX  02084 06664 33/// /2708 11017 21058 39616 40165 5////;
0128066640999992010010209004+47433+008517FM-12+044399999V0202701N004619999999N9999999N1-00161-00581101761ADDMA1999999096261MD1210321+9999OA149901241REMSYN076AAXX  02094 06664 33/// /2709 11016 21058 39626 40176 52032 333 91124 91212;
0128066640999992010010210004+47433+008517FM-12+044399999V0202701N003619999999N9999999N1-00141-00581101861ADDMA1999999096361MD1110311+9999OA149900881REMSYN076AAXX  02104 06664 33/// /2707 11014 21058 39636 40186 51031 333 91117 91210;
0128066640999992010010211004+47433+008517FM-12+044399999V0202601N004119999999N9999999N1-00091-00591101891ADDMA1999999096401MD1110241+9999OA149900821REMSYN076AAXX  02114 06664 33/// /2608 11009 21059 39640 40189 51024 333 91116 91210;
0128066640999992010010212004+47433+008517FM-12+044399999V0202401N002619999999N9999999N1-00061-00621101971ADDMA1999999096481MD1110221+9999OA149901241REMSYN076AAXX  02124 06664 33/// /2405 11006 21062 39648 40197 51022 333 91124 91214;
0128066640999992010010213004+47433+008517FM-12+044399999V0202701N004119999999N9999999N1-00121-00731102061ADDMA1999999096551MD1310191+9999OA149900721REMSYN076AAXX  02134 06664 33/// /2708 11012 21073 39655 40206 53019 333 91114 91209;
0128066640999992010010214004+47433+008517FM-12+044399999V0202801N002619999999N9999999N1-00061-00801102121ADDMA1999999096621MD1219999+9999OA149900671REMSYN076AAXX  02144 06664 33/// /2805 11006 21080 39662 40212 52/// 333 91113 91208;
0128066640999992010010215004+47433+008517FM-12+044399999V0202901N002119999999N9999999N1-00061-00791102191ADDMA1999999096691MD1210211+9999OA149900821REMSYN076AAXX  02154 06664 33/// /2904 11006 21079 39669 40219 52021 333 91116 91210;
0128066640999992010010216004+47433+008517FM-12+044399999V0202601N001519999999N9999999N1-00171-00811102281ADDMA1999999096751MD1210201+9999OA149900511REMSYN076AAXX  02164 06664 33/// /2603 11017 21081 39675 40228 52020 333 91110 91206;
0128066640999992010010217004+47433+008517FM-12+044399999V0202901N001019999999N9999999N1-00251-00751102371ADDMA1999999096821MD1310201+9999OA149900461REMSYN076AAXX  02174 06664 33/// /2902 11025 21075 39682 40237 53020 333 91109 91206;
0147066640999992010010218004+47433+008517FM-12+044399999V0202501N001019999999N9999999N1-00261-00721102421ADDKA1120M-00031MA1999999096871MD1110181+9999OA149900981REMSYN082AAXX  02184 06664 33/// /2502 11026 21072 39687 40242 51018 333 11003 91119 91210;
0128066640999992010010219004+47433+008517FM-12+044399999V0202601N000519999999N9999999N1-00331-00721102471ADDMA1999999096901MD1110151+9999OA149900261REMSYN076AAXX  02194 06664 33/// /2601 11033 21072 39690 40247 51015 333 91105 91203;
0128066640999992010010220004+47433+008517FM-12+044399999V0201001N000519999999N9999999N1-00491-00651102521ADDMA1999999096911MD1210091+9999OA149900261REMSYN076AAXX  02204 06664 33/// /1001 11049 21065 39691 40252 52009 333 91105 91203;
0128066640999992010010221004+47433+008517FM-12+044399999V0209999C000019999999N9999999N1-00441-00701102501ADDMA1999999096901MD1010031+9999OA149900461REMSYN076AAXX  02214 06664 33/// /0000 11044 21070 39690 40250 50003 333 91109 91206;
0128066640999992010010222004+47433+008517FM-12+044399999V0209999C000019999999N9999999N1-00491-00651102521ADDMA1999999096911MD1210011+9999OA149900101REMSYN076AAXX  02224 06664 33/// /0000 11049 21065 39691 40252 52001 333 91102 91201;
0128066640999992010010223004+47433+008517FM-12+044399999V0203001N001019999999N9999999N1-00541-00701102551ADDMA1999999096931MD1310021+9999OA149900101REMSYN076AAXX  02234 06664 33/// /3002 11054 21070 39693 40255 53002 333 91102 91202;
0128066640999992010010300004+47433+008517FM-12+044399999V0209999C000019999999N9999999N1-00631-00721102551ADDMA1999999096911MD1010011+9999OA149900671REMSYN076AAXX  03004 06664 33/// /0000 11063 21072 39691 40255 50001 333 91113 91208;
0128066640999992010010301004+47433+008517FM-12+044399999V0203201N000519999999N9999999N1-00591-00731102571ADDMA1999999096941MD1210031+9999OA149900101REMSYN076AAXX  03014 06664 33/// /3201 11059 21073 39694 40257 52003 333 91102 91201;
0087066640999992010010302004+47433+008517FM-12+044399999V0203501N000519999999N9999999N1-00631-00771102571ADDMA1999999096931REMSYN060AAXX  03024 06664 33/// /3501 11063 21077 39693 40257 5////;
0087066640999992010010303004+47433+008517FM-12+044399999V0200801N000519999999N9999999N1-00741-00831102561ADDMA1999999096901REMSYN060AAXX  03034 06664 33/// /0801 11074 21083 39690 40256 5////;
0128066640999992010010304004+47433+008517FM-12+044399999V0202801N000519999999N9999999N1-00701-00811102531ADDMA1999999096881MD1710061+9999OA149900151REMSYN076AAXX  03044 06664 33/// /2801 11070 21081 39688 40253 57006 333 91103 91202;
0128066640999992010010305004+47433+008517FM-12+044399999V0201101N000519999999N9999999N1-00731-00841102551ADDMA1999999096891MD1519999+9999OA149900151REMSYN076AAXX  03054 06664 33/// /1101 11073 21084 39689 40255 55/// 333 91103 91202;
0225066640999992010010306004+47433+008517FM-12+044399999V0202001N000519999999N9999999N1-00731-00871102511ADDAA124000091AL19900091GJ102469IA2999-01209KA1999N-00781MA1999999096851MD1810051+9999OA149900261REMSYN100AAXX  03064 06664 33/// /2001 11073 21087 39685 40251 58005 333 21078 3/112 55041 70000 91105 91203;EQDQ01  00002PRCP24
0128066640999992010010307004+47433+008517FM-12+044399999V0209999C000019999999N9999999N1-00741-00871102531ADDMA1999999096871MD1710011+9999OA149900101REMSYN076AAXX  03074 06664 33/// /0000 11074 21087 39687 40253 57001 333 91102 91201;
0128066640999992010010308004+47433+008517FM-12+044399999V0200201N000519999999N9999999N1-00711-00841102521ADDMA1999999096871MD1519999+9999OA149900101REMSYN076AAXX  03084 06664 33/// /0201 11071 21084 39687 40252 55/// 333 91102 91201;
0128066640999992010010309004+47433+008517FM-12+044399999V0209999C000019999999N9999999N1-00501-00741102501ADDMA1999999096891MD1210041+9999OA149900151REMSYN076AAXX  03094 06664 33/// /0000 11050 21074 39689 40250 52004 333 91103 91202;
0128066640999992010010310004+47433+008517FM-12+044399999V0202001N001519999999N9999999N1-00291-00921102451ADDMA1999999096891MD1210021+9999OA149900311REMSYN076AAXX  03104 06664 33/// /2003 11029 21092 39689 40245 52002 333 91106 91203;
0128066640999992010010311004+47433+008517FM-12+044399999V0202501N001019999999N9999999N1-00201-00871102301ADDMA1999999096761MD1810111+9999OA149900311REMSYN076AAXX  03114 06664 33/// /2502 11020 21087 39676 40230 58011 333 91106 91204;
0128066640999992010010312004+47433+008517FM-12+044399999V0201201N000519999999N9999999N1-00131-00781102221ADDMA1999999096701MD1710191+9999OA149900311REMSYN076AAXX  03124 06664 33/// /1201 11013 21078 39670 40222 57019 333 91106 91204;
0128066640999992010010313004+47433+008517FM-12+044399999V0202501N001019999999N9999999N1-00041-00951102171ADDMA1999999096671MD1610221+9999OA149900261REMSYN076AAXX  03134 06664 33/// /2502 11004 21095 39667 40217 56022 333 91105 91202;
0128066640999992010010314004+47433+008517FM-12+044399999V0202501N001519999999N9999999N1-00031-01001102141ADDMA1999999096651MD1710111+9999OA149900261REMSYN076AAXX  03144 06664 33/// /2503 11003 21100 39665 40214 57011 333 91105 91203;
0128066640999992010010315004+47433+008517FM-12+044399999V0202201N001519999999N9999999N1-00081-00861102171ADDMA1999999096671MD1510031+9999OA149900311REMSYN076AAXX  03154 06664 33/// /2203 11008 21086 39667 40217 55003 333 91106 91204;
0128066640999992010010316004+47433+008517FM-12+044399999V0202201N000519999999N9999999N1-00181-01001102181ADDMA1999999096651MD1810021+9999OA149900311REMSYN076AAXX  03164 06664 33/// /2201 11018 21100 39665 40218 58002 333 91106 91203;
0128066640999992010010317004+47433+008517FM-12+044399999V0209999C000019999999N9999999N1-00271-00851102161ADDMA1999999096621MD1710031+9999OA149900211REMSYN076AAXX  03174 06664 33/// /0000 11027 21085 39662 40216 57003 333 91104 91202;
0147066640999992010010318004+47433+008517FM-12+044399999V0209999C000019999999N9999999N1-00481-00731102211ADDKA1120M-00011MA1999999096621MD1710051+9999OA149900311REMSYN082AAXX  03184 06664 33/// /0000 11048 21073 39662 40221 57005 333 11001 91106 91204;
0128066640999992010010319004+47433+008517FM-12+044399999V0209999C000019999999N9999999N1-00511-00781102211ADDMA1999999096621MD1710031+9999OA149900101REMSYN076AAXX  03194 06664 33/// /0000 11051 21078 39662 40221 57003 333 91102 91201;
0128066640999992010010320004+47433+008517FM-12+044399999V0201001N000519999999N9999999N1-00541-00781102181ADDMA1999999096581MD1810041+9999OA149900151REMSYN076AAXX  03204 06664 33/// /1001 11054 21078 39658 40218 58004 333 91103 91202;
0128066640999992010010321004+47433+008517FM-12+044399999V0200901N000519999999N9999999N1-00651-00811102181ADDMA1999999096561MD1710061+9999OA149900211REMSYN076AAXX  03214 06664 33/// /0901 11065 21081 39656 40218 57006 333 91104 91202;
0128066640999992010010322004+47433+008517FM-12+044399999V0209999C000019999999N9999999N1-00721-00831102191ADDMA1999999096551MD1710071+9999OA149900151REMSYN076AAXX  03224 06664 33/// /0000 11072 21083 39655 40219 57007 333 91103 91201;
0128066640999992010010323004+47433+008517FM-12+044399999V0200801N000519999999N9999999N1-00721-00831102151ADDMA1999999096521MD1610061+9999OA149900101REMSYN076AAXX  03234 06664 33/// /0801 11072 21083 39652 40215 56006 333 91102 91201;
0128066640999992010010400004+47433+008517FM-12+044399999V0209999C000019999999N9999999N1-00831-00911102131ADDMA1999999096471MD1810091+9999OA149900311REMSYN076AAXX  04004 06664 33/// /0000 11083 21091 39647 40213 58009 333 91106 91203;
0128066640999992010010401004+47433+008517FM-12+044399999V0202001N000519999999N9999999N1-00881-00961102071ADDMA1999999096411MD1810141+9999OA149900101REMSYN076AAXX  04014 06664 33/// /2001 11088 21096 39641 40207 58014 333 91102 91201;
0128066640999992010010402004+47433+008517FM-12+044399999V0200501N000519999999N9999999N1-00811-00961102011ADDMA1999999096361MD1710161+9999OA149900151REMSYN076AAXX  04024 06664 33/// /0501 11081 21096 39636 40201 57016 333 91103 91202;
0128066640999992010010403004+47433+008517FM-12+044399999V0209999C000019999999N9999999N1-00861-00991101961ADDMA1999999096311MD1619999+9999OA149900151REMSYN076AAXX  04034 06664 33/// /0000 11086 21099 39631 40196 56/// 333 91103 91202;
0128066640999992010010404004+47433+008517FM-12+044399999V0209999C000019999999N9999999N1-00931-01041101941ADDMA1999999096271MD1610141+9999OA149900151REMSYN076AAXX  04044 06664 33/// /0000 11093 21104 39627 40194 56014 333 91103 91201;
0128066640999992010010405004+47433+008517FM-12+044399999V0201401N000519999999N9999999N1-00911-01021101891ADDMA1999999096231MD1610131+9999OA149900101REMSYN076AAXX  04054 06664 33/// /1401 11091 21102 39623 40189 56013 333 91102 91201;
0225066640999992010010406004+47433+008517FM-12+044399999V0209999C000019999999N9999999N1-00871-01011101911ADDAA124000091AL19900091GJ104389IA2999-01309KA1999N-00961MA1999999096261MD1510051+9999OA149900151REMSYN100AAXX  04064 06664 33/// /0000 11087 21101 39626 40191 55005 333 21096 3/113 55073 70000 91103 91202;EQDQ01  00002PRCP24
0128066640999992010010407004+47433+008517FM-12+044399999V0209999C000019999999N9999999N1-00861-00991101881ADDMA1999999096231MD1710041+9999OA149900151REMSYN076AAXX  04074 06664 33/// /0000 11086 21099 39623 40188 57004 333 91103 91201;
0128066640999992010010408004+47433+008517FM-12+044399999V0200401N000519999999N9999999N1-00831-00991101871ADDMA1999999096231MD1010001+9999OA149900151REMSYN076AAXX  04084 06664 33/// /0401 11083 21099 39623 40187 50000 333 91103 91201;
0128066640999992010010409004+47433+008517FM-12+044399999V0203001N000519999999N9999999N1-00771-00971101881ADDMA1999999096251MD1510011+9999OA149900151REMSYN076AAXX  04094 06664 33/// /3001 11077 21097 39625 40188 55001 333 91103 91201;
0128066640999992010010410004+47433+008517FM-12+044399999V0200301N001019999999N9999999N1-00661-00851101851ADDMA1999999096241MD1010011+9999OA149900151REMSYN076AAXX  04104 06664 33/// /0302 11066 21085 39624 40185 50001 333 91103 91202;
0128066640999992010010411004+47433+008517FM-12+044399999V0209999C000019999999N9999999N1-00571-00801101731ADDMA1999999096151MD1810081+9999OA149900211REMSYN076AAXX  04114 06664 33/// /0000 11057 21080 39615 40173 58008 333 91104 91202;
0128066640999992010010412004+47433+008517FM-12+044399999V0200501N000519999999N9999999N1-00461-00741101631ADDMA1999999096081MD1710171+9999OA149900211REMSYN076AAXX  04124 06664 33/// /0501 11046 21074 39608 40163 57017 333 91104 91202;
0128066640999992010010413004+47433+008517FM-12+044399999V0200301N000519999999N9999999N1-00361-00691101541ADDMA1999999096011MD1610231+9999OA149900211REMSYN076AAXX  04134 06664 33/// /0301 11036 21069 39601 40154 56023 333 91104 91202;
0128066640999992010010414004+47433+008517FM-12+044399999V0200801N001019999999N9999999N1-00291-00681101491ADDMA1999999095981MD1619999+9999OA149900211REMSYN076AAXX  04144 06664 33/// /0802 11029 21068 39598 40149 56/// 333 91104 91202;
0128066640999992010010415004+47433+008517FM-12+044399999V0200401N000519999999N9999999N1-00301-00811101461ADDMA1999999095951MD1610131+9999OA149900211REMSYN076AAXX  04154 06664 33/// /0401 11030 21081 39595 40146 56013 333 91104 91202;
0128066640999992010010416004+47433+008517FM-12+044399999V0203501N000519999999N9999999N1-00331-00771101481ADDMA1999999095961MD1710051+9999OA149900151REMSYN076AAXX  04164 06664 33/// /3501 11033 21077 39596 40148 57005 333 91103 91201;
0128066640999992010010417004+47433+008517FM-12+044399999V0209999C000019999999N9999999N1-00531-00721101501ADDMA1999999095941MD1719999+9999OA149900101REMSYN076AAXX  04174 06664 33/// /0000 11053 21072 39594 40150 57/// 333 91102 91201;
0147066640999992010010418004+47433+008517FM-12+044399999V0209999C000019999999N9999999N1-00611-00771101531ADDKA1120M-00271MA1999999095951MD1010001+9999OA149900211REMSYN082AAXX  04184 06664 33/// /0000 11061 21077 39595 40153 50000 333 11027 91104 91202;
0128066640999992010010419004+47433+008517FM-12+044399999V0203201N000519999999N9999999N1-00621-00781101521ADDMA1999999095941MD1710021+9999OA149900151REMSYN076AAXX  04194 06664 33/// /3201 11062 21078 39594 40152 57002 333 91103 91201;
0128066640999992010010420004+47433+008517FM-12+044399999V0203001N000519999999N9999999N1-00651-00781101511ADDMA1999999095931MD1810011+9999OA149900151REMSYN076AAXX  04204 06664 33/// /3001 11065 21078 39593 40151 58001 333 91103 91202;
0128066640999992010010421004+47433+008517FM-12+044399999V0202801N000519999999N9999999N1-00671-00781101501ADDMA1999999095911MD1710041+9999OA149900151REMSYN076AAXX  04214 06664 33/// /2801 11067 21078 39591 40150 57004 333 91103 91202;
0128066640999992010010422004+47433+008517FM-12+044399999V0202901N000519999999N9999999N1-00701-00841101471ADDMA1999999095881MD1710061+9999OA149900151REMSYN076AAXX  04224 06664 33/// /2901 11070 21084 39588 40147 57006 333 91103 91202;
0128066640999992010010423004+47433+008517FM-12+044399999V0209999C000019999999N9999999N1-00771-00871101451ADDMA1999999095841MD1710091+9999OA149900151REMSYN076AAXX  04234 06664 33/// /0000 11077 21087 39584 40145 57009 333 91103 91202;
0128066640999992010010500004+47433+008517FM-12+044399999V0209999C000019999999N9999999N1-00781-00891101381ADDMA1999999095781MD1710131+9999OA149900211REMSYN076AAXX  05004 06664 33/// /0000 11078 21089 39578 40138 57013 333 91104 91202;
0128066640999992010010501004+47433+008517FM-12+044399999V0209999C000019999999N9999999N1-00791-00901101361ADDMA1999999095751MD1710131+9999OA149900151REMSYN076AAXX  05014 06664 33/// /0000 11079 21090 39575 40136 57013 333 91103 91201;
0128066640999992010010502004+47433+008517FM-12+044399999V0203201N000519999999N9999999N1-00691-00861101301ADDMA1999999095721MD1710121+9999OA149900101REMSYN076AAXX  05024 06664 33/// /3201 11069 21086 39572 40130 57012 333 91102 91201;
0128066640999992010010503004+47433+008517FM-12+044399999V0202901N000519999999N9999999N1-00681-00871101251ADDMA1999999095671MD1710111+9999OA149900151REMSYN076AAXX  05034 06664 33/// /2901 11068 21087 39567 40125 57011 333 91103 91202;
0128066640999992010010504004+47433+008517FM-12+044399999V0203301N001019999999N9999999N1-00671-00851101151ADDMA1999999095581MD1710171+9999OA149900211REMSYN076AAXX  05044 06664 33/// /3302 11067 21085 39558 40115 57017 333 91104 91202;
0128066640999992010010505004+47433+008517FM-12+044399999V0203501N001019999999N9999999N1-00641-00831101081ADDMA1999999095521MD1610201+9999OA149900211REMSYN076AAXX  05054 06664 33/// /3502 11064 21083 39552 40108 56020 333 91104 91202;
0225066640999992010010506004+47433+008517FM-12+044399999V0203401N001019999999N9999999N1-00661-00841101021ADDAA124000091AL19900091GJ103549IA2999-01109KA1999N-00831MA1999999095461MD1710211+9999OA149900261REMSYN100AAXX  05064 06664 33/// /3402 11066 21084 39546 40102 57021 333 21083 3/111 55059 70000 91105 91203;EQDQ01  00002PRCP24
0128066640999992010010507004+47433+008517FM-12+044399999V0203401N001519999999N9999999N1-00641-00821100981ADDMA1999999095431MD1710151+9999OA149900311REMSYN076AAXX  05074 06664 33/// /3403 11064 21082 39543 40098 57015 333 91106 91203;
0128066640999992010010508004+47433+008517FM-12+044399999V0203201N001519999999N9999999N1-00641-00831100971ADDMA1999999095421MD1710101+9999OA149900311REMSYN076AAXX  05084 06664 33/// /3203 11064 21083 39542 40097 57010 333 91106 91203;
0128066640999992010010509004+47433+008517FM-12+044399999V0200101N001519999999N9999999N1-00581-00791100921ADDMA1999999095381MD1710081+9999OA149900311REMSYN076AAXX  05094 06664 33/// /0103 11058 21079 39538 40092 57008 333 91106 91203;
0128066640999992010010510004+47433+008517FM-12+044399999V0200301N002119999999N9999999N1-00531-00751100881ADDMA1999999095351MD1710081+9999OA149900361REMSYN076AAXX  05104 06664 33/// /0304 11053 21075 39535 40088 57008 333 91107 91204;
0128066640999992010010511004+47433+008517FM-12+044399999V0200301N001519999999N9999999N1-00521-00761100781ADDMA1999999095261MD1710161+9999OA149900411REMSYN076AAXX  05114 06664 33/// /0303 11052 21076 39526 40078 57016 333 91108 91204;
0128066640999992010010512004+47433+008517FM-12+044399999V0200301N001019999999N9999999N1-00481-00721100701ADDMA1999999095191MD1710191+9999OA149900411REMSYN076AAXX  05124 06664 33/// /0302 11048 21072 39519 40070 57019 333 91108 91204;
0128066640999992010010513004+47433+008517FM-12+044399999V0200501N001519999999N9999999N1-00471-00661100621ADDMA1999999095121MD1610231+9999OA149900361REMSYN076AAXX  05134 06664 33/// /0503 11047 21066 39512 40062 56023 333 91107 91203;
0108066640999992010010514004+47433+008517FM-12+044399999V0200501N001519999999N9999999N1-00451-00701100551ADDAA101000021MA1999999095061REMSYN070AAXX  05144 06664 23/// /0503 11045 21070 39506 40055 5//// 333 69915;
0128066640999992010010515004+47433+008517FM-12+044399999V0200601N001519999999N9999999N1-00431-00701100531ADDMA1999999095041MD1710151+9999OA149900411REMSYN076AAXX  05154 06664 33/// /0603 11043 21070 39504 40053 57015 333 91108 91204;
0128066640999992010010516004+47433+008517FM-12+044399999V0200401N001519999999N9999999N1-00431-00691100521ADDMA1999999095031MD1710091+9999OA149900311REMSYN076AAXX  05164 06664 33/// /0403 11043 21069 39503 40052 57009 333 91106 91204;
0128066640999992010010517004+47433+008517FM-12+044399999V0200501N001519999999N9999999N1-00431-00701100471ADDMA1999999094991MD1710071+9999OA149900311REMSYN076AAXX  05174 06664 33/// /0503 11043 21070 39499 40047 57007 333 91106 91203;
0189066640999992010010518004+47433+008517FM-12+044399999V0209999C001019999999N9999999N1-00471-00711100471ADDAA112000091KA1120M-00421MA1999999094981MD1710061+9999OA149900411REMSYN094AAXX  05184 06664 03/// /0002 11047 21071 39498 40047 57006 69912 333 11042 60005 91108 91204;EQDQ01  00002PRCP12
0128066640999992010010519004+47433+008517FM-12+044399999V0203601N001019999999N9999999N1-00501-00711100451ADDMA1999999094951MD1810081+9999OA149900211REMSYN076AAXX  05194 06664 33/// /3602 11050 21071 39495 40045 58008 333 91104 91202;
0128066640999992010010520004+47433+008517FM-12+044399999V0203001N000519999999N9999999N1-00511-00701100421ADDMA1999999094921MD1710071+9999OA149900211REMSYN076AAXX  05204 06664 33/// /3001 11051 21070 39492 40042 57007 333 91104 91202;
0128066640999992010010521004+47433+008517FM-12+044399999V0203501N000519999999N9999999N1-00501-00721100381ADDMA1999999094891MD1710091+9999OA149900311REMSYN076AAXX  05214 06664 33/// /3501 11050 21072 39489 40038 57009 333 91106 91203;
0128066640999992010010522004+47433+008517FM-12+044399999V0200201N001019999999N9999999N1-00481-00671100351ADDMA1999999094861MD1710091+9999OA149900151REMSYN076AAXX  05224 06664 33/// /0202 11048 21067 39486 40035 57009 333 91103 91202;
0128066640999992010010523004+47433+008517FM-12+044399999V0203501N001019999999N9999999N1-00481-00671100341ADDMA1999999094851MD1710071+9999OA149900151REMSYN076AAXX  05234 06664 33/// /3502 11048 21067 39485 40034 57007 333 91103 91202;
0128066640999992010010600004+47433+008517FM-12+044399999V0200501N001519999999N9999999N1-00481-00691100291ADDMA1999999094811MD1710081+9999OA149900311REMSYN076AAXX  06004 06664 33/// /0503 11048 21069 39481 40029 57008 333 91106 91204;
0128066640999992010010601004+47433+008517FM-12+044399999V0200101N000519999999N9999999N1-00471-00681100261ADDMA1999999094781MD1710081+9999OA149900311REMSYN076AAXX  06014 06664 33/// /0101 11047 21068 39478 40026 57008 333 91106 91203;
0128066640999992010010602004+47433+008517FM-12+044399999V0203601N001019999999N9999999N1-00491-00671100281ADDMA1999999094801MD1510051+9999OA149900311REMSYN076AAXX  06024 06664 33/// /3602 11049 21067 39480 40028 55005 333 91106 91202;
0128066640999992010010603004+47433+008517FM-12+044399999V0203201N000519999999N9999999N1-00491-00631100261ADDMA1999999094781MD1710031+9999OA149900311REMSYN076AAXX  06034 06664 33/// /3201 11049 21063 39478 40026 57003 333 91106 91203;
0128066640999992010010604004+47433+008517FM-12+044399999V0202901N001019999999N9999999N1-00491-00671100271ADDMA1999999094791MD1010011+9999OA149900311REMSYN076AAXX  06044 06664 33/// /2902 11049 21067 39479 40027 50001 333 91106 91203;
0128066640999992010010605004+47433+008517FM-12+044399999V0202501N000519999999N9999999N1-00481-00641100291ADDMA1999999094811MD1310011+9999OA149900311REMSYN076AAXX  06054 06664 33/// /2501 11048 21064 39481 40029 53001 333 91106 91203;
0225066640999992010010606004+47433+008517FM-12+044399999V0209999C000019999999N9999999N1-00471-00611100321ADDAA124000091AL10600091GJ100009IA2999-00609KA1999N-00521MA1999999094841MD1210061+9999OA149900311REMSYN100AAXX  06064 06664 33/// /0000 11047 21061 39484 40032 52006 333 21052 3/106 55000 70001 91106 91203;EQDQ01  00002PRCP24
0128066640999992010010607004+47433+008517FM-12+044399999V0201501N000519999999N9999999N1-00421-00581100331ADDMA1999999094861MD1210071+9999OA149900101REMSYN076AAXX  06074 06664 33/// /1501 11042 21058 39486 40033 52007 333 91102 91201;
0128066640999992010010608004+47433+008517FM-12+044399999V0202401N002119999999N9999999N1-00331-00581100381ADDMA1999999094921MD1210111+9999OA149900461REMSYN076AAXX  06084 06664 33/// /2404 11033 21058 39492 40038 52011 333 91109 91204;
0128066640999992010010609004+47433+008517FM-12+044399999V0202701N003619999999N9999999N1-00301-00571100411ADDMA1999999094961MD1210121+9999OA149900571REMSYN076AAXX  06094 06664 33/// /2707 11030 21057 39496 40041 52012 333 91111 91207;
0128066640999992010010610004+47433+008517FM-12+044399999V0202401N001519999999N9999999N1-00281-00531100451ADDMA1999999095001MD1110141+9999OA149900621REMSYN076AAXX  06104 06664 33/// /2403 11028 21053 39500 40045 51014 333 91112 91207;
0128066640999992010010611004+47433+008517FM-12+044399999V0202801N001519999999N9999999N1-00261-00571100411ADDMA1999999094961MD1019999+9999OA149900621REMSYN076AAXX  06114 06664 33/// /2803 11026 21057 39496 40041 50/// 333 91112 91207;
0128066640999992010010612004+47433+008517FM-12+044399999V0202801N000519999999N9999999N1-00251-00531100391ADDMA1999999094951MD1810011+9999OA149900621REMSYN076AAXX  06124 06664 33/// /2801 11025 21053 39495 40039 58001 333 91112 91207;
0128066640999992010010613004+47433+008517FM-12+044399999V0203001N001019999999N9999999N1-00251-00481100391ADDMA1999999094951MD1710051+9999OA149900311REMSYN076AAXX  06134 06664 33/// /3002 11025 21048 39495 40039 57005 333 91106 91203;
0128066640999992010010614004+47433+008517FM-12+044399999V0203401N000519999999N9999999N1-00221-00471100401ADDMA1999999094961MD1219999+9999OA149900151REMSYN076AAXX  06144 06664 33/// /3401 11022 21047 39496 40040 52/// 333 91103 91202;
0128066640999992010010615004+47433+008517FM-12+044399999V0203001N001519999999N9999999N1-00201-00481100451ADDMA1999999095011MD1219999+9999OA149900621REMSYN076AAXX  06154 06664 33/// /3003 11020 21048 39501 40045 52/// 333 91112 91207;
0128066640999992010010616004+47433+008517FM-12+044399999V0202801N001019999999N9999999N1-00201-00471100481ADDMA1999999095041MD1310091+9999OA149900211REMSYN076AAXX  06164 06664 33/// /2802 11020 21047 39504 40048 53009 333 91104 91203;
0128066640999992010010617004+47433+008517FM-12+044399999V0202701N001019999999N9999999N1-00201-00461100521ADDMA1999999095081MD1310121+9999OA149900261REMSYN076AAXX  06174 06664 33/// /2702 11020 21046 39508 40052 53012 333 91105 91203;
0147066640999992010010618004+47433+008517FM-12+044399999V0203001N000519999999N9999999N1-00261-00481100581ADDKA1120M-00201MA1999999095131MD1319999+9999OA149900621REMSYN082AAXX  06184 06664 33/// /3001 11026 21048 39513 40058 53/// 333 11020 91112 91207;
0128066640999992010010619004+47433+008517FM-12+044399999V0202901N000519999999N9999999N1-00271-00481100611ADDMA1999999095151MD1310111+9999OA149900151REMSYN076AAXX  06194 06664 33/// /2901 11027 21048 39515 40061 53011 333 91103 91202;
0128066640999992010010620004+47433+008517FM-12+044399999V0203001N000519999999N9999999N1-00321-00481100641ADDMA1999999095171MD1110091+9999OA149900151REMSYN076AAXX  06204 06664 33/// /3001 11032 21048 39517 40064 51009 333 91103 91202;
0128066640999992010010621004+47433+008517FM-12+044399999V0203001N000519999999N9999999N1-00491-00571100701ADDMA1999999095191MD1110061+9999OA149900261REMSYN076AAXX  06214 06664 33/// /3001 11049 21057 39519 40070 51006 333 91105 91203;
0128066640999992010010622004+47433+008517FM-12+044399999V0202901N000519999999N9999999N1-00321-00461100721ADDMA1999999095251MD1310101+9999OA149900151REMSYN076AAXX  06224 06664 33/// /2901 11032 21046 39525 40072 53010 333 91103 91202;
0128066640999992010010623004+47433+008517FM-12+044399999V0203001N000519999999N9999999N1-00281-00451100751ADDMA1999999095281MD1310111+9999OA149900151REMSYN076AAXX  06234 06664 33/// /3001 11028 21045 39528 40075 53011 333 91103 91202;
0128066640999992010010700004+47433+008517FM-12+044399999V0203301N000519999999N9999999N1-00281-00441100751ADDMA1999999095281MD1210091+9999OA149900261REMSYN076AAXX  07004 06664 33/// /3301 11028 21044 39528 40075 52009 333 91105 91203;
0128066640999992010010701004+47433+008517FM-12+044399999V0201201N000519999999N9999999N1-00311-00391100791ADDMA1999999095311MD1210061+9999OA149900151REMSYN076AAXX  07014 06664 33/// /1201 11031 21039 39531 40079 52006 333 91103 91202;
0128066640999992010010702004+47433+008517FM-12+044399999V0209999C000019999999N9999999N1-00291-00391100821ADDMA1999999095351MD1219999+9999OA149900151REMSYN076AAXX  07024 06664 33/// /0000 11029 21039 39535 40082 52/// 333 91103 91202;
0128066640999992010010703004+47433+008517FM-12+044399999V0200501N000519999999N9999999N1-00291-00401100811ADDMA1999999095341MD1210061+9999OA149900151REMSYN076AAXX  07034 06664 33/// /0501 11029 21040 39534 40081 52006 333 91103 91202;
0128066640999992010010704004+47433+008517FM-12+044399999V0201201N000519999999N9999999N1-00401-00481100851ADDMA1999999095351MD1210041+9999OA149900151REMSYN076AAXX  07044 06664 33/// /1201 11040 21048 39535 40085 52004 333 91103 91201;
0128066640999992010010705004+47433+008517FM-12+044399999V0200901N000519999999N9999999N1-00361-00461100851ADDMA1999999095361MD1210011+9999OA149900151REMSYN076AAXX  07054 06664 33/// /0901 11036 21046 39536 40085 52001 333 91103 91201;
0225066640999992010010706004+47433+008517FM-12+044399999V0201101N001019999999N9999999N1-00321-00461100861ADDAA124000091AL19900091GJ100009IA2999-00809KA1999N-00491MA1999999095381MD1310041+9999OA149900261REMSYN100AAXX  07064 06664 33/// /1102 11032 21046 39538 40086 53004 333 21049 3/108 55000 70000 91105 91202;EQDQ01  00002PRCP24
0128066640999992010010707004+47433+008517FM-12+044399999V0200401N001019999999N9999999N1-00371-00471100901ADDMA1999999095411MD1210061+9999OA149900261REMSYN076AAXX  07074 06664 33/// /0402 11037 21047 39541 40090 52006 333 91105 91203;
0128066640999992010010708004+47433+008517FM-12+044399999V0209999C000019999999N9999999N1-00421-00491100991ADDMA1999999095481MD1219999+9999OA149900211REMSYN076AAXX  07084 06664 33/// /0000 11042 21049 39548 40099 52/// 333 91104 91203;
0128066640999992010010709004+47433+008517FM-12+044399999V0200501N001019999999N9999999N1-00281-00411101001ADDMA1999999095521MD1210141+9999OA149900261REMSYN076AAXX  07094 06664 33/// /0502 11028 21041 39552 40100 52014 333 91105 91203;
0128066640999992010010710004+47433+008517FM-12+044399999V0200601N001019999999N9999999N1-00191-00371101041ADDMA1999999095571MD1210161+9999OA149900211REMSYN076AAXX  07104 06664 33/// /0602 11019 21037 39557 40104 52016 333 91104 91203;
0128066640999992010010711004+47433+008517FM-12+044399999V0200201N001019999999N9999999N1-00171-00361101031ADDMA1999999095571MD1210091+9999OA149900211REMSYN076AAXX  07114 06664 33/// /0202 11017 21036 39557 40103 52009 333 91104 91203;
0128066640999992010010712004+47433+008517FM-12+044399999V0200801N000519999999N9999999N1-00111-00371100981ADDMA1999999095531MD1010011+9999OA149900261REMSYN076AAXX  07124 06664 33/// /0801 11011 21037 39553 40098 50001 333 91105 91203;
0128066640999992010010713004+47433+008517FM-12+044399999V0203101N001019999999N9999999N1-00071-00351100971ADDMA1999999095531MD1719999+9999OA149900151REMSYN076AAXX  07134 06664 33/// /3102 11007 21035 39553 40097 57/// 333 91103 91202;
0128066640999992010010716004+47433+008517FM-12+044399999V0202401N000519999999N9999999N1-00101-00321101091ADDMA1999999095641MD1319999+9999OA149900101REMSYN076AAXX  07164 06664 33/// /2401 11010 21032 39564 40109 53/// 333 91102 91201;
0128066640999992010010717004+47433+008517FM-12+044399999V0203001N000519999999N9999999N1-00081-00331101111ADDMA1999999095661MD1219999+9999OA149900101REMSYN076AAXX  07174 06664 33/// /3001 11008 21033 39566 40111 52/// 333 91102 91201;
0147066640999992010010718004+47433+008517FM-12+044399999V0209999C000019999999N9999999N1-00151-00311101171ADDKA1120M+00011MA1999999095711MD1219999+9999OA149900211REMSYN082AAXX  07184 06664 33/// /0000 11015 21031 39571 40117 52/// 333 10001 91104 91203;
0128066640999992010010719004+47433+008517FM-12+044399999V0201401N000519999999N9999999N1-00201-00351101191ADDMA1999999095711MD1210071+9999OA149900151REMSYN076AAXX  07194 06664 33/// /1401 11020 21035 39571 40119 52007 333 91103 91201;
0128066640999992010010720004+47433+008517FM-12+044399999V0202701N000519999999N9999999N1-00221-00371101191ADDMA1999999095711MD1010051+9999OA149900151REMSYN076AAXX  07204 06664 33/// /2701 11022 21037 39571 40119 50005 333 91103 91201;
0128066640999992010010721004+47433+008517FM-12+044399999V0209999C000019999999N9999999N1-00291-00381101251ADDMA1999999095751MD1210041+9999OA149900151REMSYN076AAXX  07214 06664 33/// /0000 11029 21038 39575 40125 52004 333 91103 91201;
0128066640999992010010722004+47433+008517FM-12+044399999V0209999C000019999999N9999999N1-00301-00391101221ADDMA1999999095721MD1010011+9999OA149900051REMSYN076AAXX  07224 06664 33/// /0000 11030 21039 39572 40122 50001 333 91101 91201;
0128066640999992010010723004+47433+008517FM-12+044399999V0209999C000019999999N9999999N1-00291-00381101231ADDMA1999999095731MD1010021+9999OA149900101REMSYN076AAXX  07234 06664 33/// /0000 11029 21038 39573 40123 50002 333 91102 91201;
0128066640999992010010800004+47433+008517FM-12+044399999V0203201N000519999999N9999999N1-00251-00361101191ADDMA1999999095701MD1710051+9999OA149900151REMSYN076AAXX  08004 06664 33/// /3201 11025 21036 39570 40119 57005 333 91103 91202;
0128066640999992010010801004+47433+008517FM-12+044399999V0209999C000019999999N9999999N1-00221-00371101141ADDMA1999999095661MD1710061+9999OA149900151REMSYN076AAXX  08014 06664 33/// /0000 11022 21037 39566 40114 57006 333 91103 91201;
0128066640999992010010802004+47433+008517FM-12+044399999V0203401N000519999999N9999999N1-00201-00371101121ADDMA1999999095651MD1719999+9999OA149900151REMSYN076AAXX  08024 06664 33/// /3401 11020 21037 39565 40112 57/// 333 91103 91202;
0128066640999992010010803004+47433+008517FM-12+044399999V0200101N001519999999N9999999N1-00201-00371101121ADDMA1999999095651MD1719999+9999OA149900311REMSYN076AAXX  08034 06664 33/// /0103 11020 21037 39565 40112 57/// 333 91106 91203;
0145066640999992010010804004+47433+008517FM-12+044399999V0200301N001019999999N9999999N1-00231-00341101101ADDAA101000021MA1999999095621MD1710041+9999OA149900361REMSYN082AAXX  08044 06664 23/// /0302 11023 21034 39562 40110 57004 333 69915 91107 91203;
0145066640999992010010805004+47433+008517FM-12+044399999V0200401N001019999999N9999999N1-00231-00331101031ADDAA101000391MA1999999095561MD1710091+9999OA149900361REMSYN082AAXX  08054 06664 23/// /0402 11023 21033 39556 40103 57009 333 69935 91107 91203;
0229066640999992010010806004+47433+008517FM-12+044399999V0200301N001519999999N9999999N1-00231-00351100981ADDAA112000591AA224000591AL13000091GJ101209IA2999-00509KA1999N-00331MA1999999095511MD1810141+9999OA149900361REMSYN112AAXX  08064 06664 03/// /0303 11023 21035 39551 40098 58014 69952 333 21033 3/105 55020 69915 70005 91107 91203;
0128066640999992010010807004+47433+008517FM-12+044399999V0200401N003119999999N9999999N1-00181-00381100951ADDMA1999999095491MD1610131+9999OA149900721REMSYN076AAXX  08074 06664 33/// /0406 11018 21038 39549 40095 56013 333 91114 91206;
0128066640999992010010808004+47433+008517FM-12+044399999V0200401N003119999999N9999999N1-00191-00441100911ADDMA1999999095451MD1610111+9999OA149900721REMSYN076AAXX  08084 06664 33/// /0406 11019 21044 39545 40091 56011 333 91114 91207;
0128066640999992010010809004+47433+008517FM-12+044399999V0200401N003619999999N9999999N1-00211-00491100891ADDMA1999999095431MD1610081+9999OA149900771REMSYN076AAXX  08094 06664 33/// /0407 11021 21049 39543 40089 56008 333 91115 91207;
0128066640999992010010810004+47433+008517FM-12+044399999V0200401N003619999999N9999999N1-00201-00531100831ADDMA1999999095371MD1810121+9999OA149900821REMSYN076AAXX  08104 06664 33/// /0407 11020 21053 39537 40083 58012 333 91116 91208;
0128066640999992010010811004+47433+008517FM-12+044399999V0200501N004119999999N9999999N1-00191-00511100751ADDMA1999999095301MD1810151+9999OA149900821REMSYN076AAXX  08114 06664 33/// /0508 11019 21051 39530 40075 58015 333 91116 91208;
0128066640999992010010812004+47433+008517FM-12+044399999V0200501N003619999999N9999999N1-00181-00501100641ADDMA1999999095201MD1810231+9999OA149900881REMSYN076AAXX  08124 06664 33/// /0507 11018 21050 39520 40064 58023 333 91117 91208;
0128066640999992010010813004+47433+008517FM-12+044399999V0200501N003119999999N9999999N1-00191-00471100601ADDMA1999999095161MD1610211+9999OA149900881REMSYN076AAXX  08134 06664 33/// /0506 11019 21047 39516 40060 56021 333 91117 91208;
0134066640999992010010814004+47433+008517FM-12+044399999V0200501N003619999999N9999999N1-00171-00461100581ADDMA1999999095141MD1619999+9999OA149900771REMSYN082AAXX  08144 06664 33/// /0507 11017 21046 39514 40058 56/// 91340 333 91115 91208;
0128066640999992010010815004+47433+008517FM-12+044399999V0200501N005119999999N9999999N1-00191-00491100601ADDMA1999999095161MD1510041+9999OA149901031REMSYN076AAXX  08154 06664 33/// /0510 11019 21049 39516 40060 55004 333 91120 91211;
0128066640999992010010816004+47433+008517FM-12+044399999V0200501N003619999999N9999999N1-00191-00481100641ADDMA1999999095201MD1310041+9999OA149901081REMSYN076AAXX  08164 06664 33/// /0507 11019 21048 39520 40064 53004 333 91121 91211;
0128066640999992010010817004+47433+008517FM-12+044399999V0200501N003619999999N9999999N1-00201-00471100671ADDMA1999999095221MD1210071+9999OA149901081REMSYN076AAXX  08174 06664 33/// /0507 11020 21047 39522 40067 52007 333 91121 91210;
0147066640999992010010818004+47433+008517FM-12+044399999V0200501N003119999999N9999999N1-00231-00451100711ADDKA1120M-00171MA1999999095251MD1210091+9999OA149901081REMSYN082AAXX  08184 06664 33/// /0506 11023 21045 39525 40071 52009 333 11017 91121 91211;
0128066640999992010010819004+47433+008517FM-12+044399999V0200301N002119999999N9999999N1-00231-00431100721ADDMA1999999095261MD1210061+9999OA149900821REMSYN076AAXX  08194 06664 33/// /0304 11023 21043 39526 40072 52006 333 91116 91207;
0145066640999992010010820004+47433+008517FM-12+044399999V0200301N003119999999N9999999N1-00271-00451100721ADDAA101000021MA1999999095261MD1210041+9999OA149900821REMSYN082AAXX  08204 06664 23/// /0306 11027 21045 39526 40072 52004 333 69925 91116 91207;
0145066640999992010010821004+47433+008517FM-12+044399999V0200401N003119999999N9999999N1-00281-00451100731ADDAA101000021MA1999999095261MD1010011+9999OA149901081REMSYN082AAXX  08214 06664 23/// /0406 11028 21045 39526 40073 50001 333 69915 91121 91210;
0128066640999992010010822004+47433+008517FM-12+044399999V0200301N002119999999N9999999N1-00301-00421100721ADDMA1999999095251MD1810011+9999OA149900771REMSYN076AAXX  08224 06664 33/// /0304 11030 21042 39525 40072 58001 333 91115 91207;
0128066640999992010010823004+47433+008517FM-12+044399999V0203601N002119999999N9999999N1-00331-00491100761ADDMA1999999095281MD1310021+9999OA149900721REMSYN076AAXX  08234 06664 33/// /3604 11033 21049 39528 40076 53002 333 91114 91206;
0151066640999992010010900004+47433+008517FM-12+044399999V0203501N001019999999N9999999N1-00371-00601100791ADDAA106000391MA1999999095301MD1210041+9999OA149901081REMSYN088AAXX  09004 06664 03/// /3502 11037 21060 39530 40079 52004 69931 333 60005 91121 91211;
0128066640999992010010901004+47433+008517FM-12+044399999V0200301N001519999999N9999999N1-00361-00601100781ADDMA1999999095291MD1010041+9999OA149900461REMSYN076AAXX  09014 06664 33/// /0303 11036 21060 39529 40078 50004 333 91109 91204;
0128066640999992010010902004+47433+008517FM-12+044399999V0200301N002119999999N9999999N1-00381-00621100761ADDMA1999999095271MD1719999+9999OA149900511REMSYN076AAXX  09024 06664 33/// /0304 11038 21062 39527 40076 57/// 333 91110 91205;
0128066640999992010010903004+47433+008517FM-12+044399999V0200301N002119999999N9999999N1-00371-00651100781ADDMA1999999095291MD1219999+9999OA149900721REMSYN076AAXX  09034 06664 33/// /0304 11037 21065 39529 40078 52/// 333 91114 91206;
0128066640999992010010904004+47433+008517FM-12+044399999V0200101N001519999999N9999999N1-00411-00651100741ADDMA1999999095251MD1810041+9999OA149900621REMSYN076AAXX  09044 06664 33/// /0103 11041 21065 39525 40074 58004 333 91112 91205;
0128066640999992010010905004+47433+008517FM-12+044399999V0200101N001519999999N9999999N1-00431-00681100751ADDMA1999999095251MD1710021+9999OA149900461REMSYN076AAXX  09054 06664 33/// /0103 11043 21068 39525 40075 57002 333 91109 91205;
0229066640999992010010906004+47433+008517FM-12+044399999V0209999C001519999999N9999999N1-00461-00701100691ADDAA112000391AA224000391AL11800091GJ100009IA2999-00509KA1999N-00451MA1999999095191MD1710101+9999OA149900821REMSYN112AAXX  09064 06664 03/// /0003 11046 21070 39519 40069 57010 69932 333 21045 3/105 55000 60005 70003 91116 91207;
0128066640999992010010907004+47433+008517FM-12+044399999V0200201N001519999999N9999999N1-00471-00701100691ADDMA1999999095191MD1710061+9999OA149900461REMSYN076AAXX  09074 06664 33/// /0203 11047 21070 39519 40069 57006 333 91109 91205;
0128066640999992010010908004+47433+008517FM-12+044399999V0200201N001519999999N9999999N1-00481-00691100711ADDMA1999999095201MD1510051+9999OA149900461REMSYN076AAXX  09084 06664 33/// /0203 11048 21069 39520 40071 55005 333 91109 91204;
0128066640999992010010909004+47433+008517FM-12+044399999V0200101N001519999999N9999999N1-00471-00651100721ADDMA1999999095221MD1210031+9999OA149900461REMSYN076AAXX  09094 06664 33/// /0103 11047 21065 39522 40072 52003 333 91109 91205;
0147066640999992010010910004+47433+008517FM-12+044399999V0209999C002119999999N9999999N1-00451-00661100691ADDMA1999999095191MD1410001+9999OA149900461REMSYN076AAXX  09104 06664 33/// /0004 11045 21066 39519 40069 57000 333 91109 91204;EQDQ01+000072APCTEN
0128066640999992010010911004+47433+008517FM-12+044399999V0200201N002119999999N9999999N1-00431-00661100671ADDMA1999999095181MD1810021+9999OA149900511REMSYN076AAXX  09114 06664 33/// /0204 11043 21066 39518 40067 58002 333 91110 91204;
0128066640999992010010912004+47433+008517FM-12+044399999V0200201N002619999999N9999999N1-00411-00661100611ADDMA1999999095121MD1710101+9999OA149900671REMSYN076AAXX  09124 06664 33/// /0205 11041 21066 39512 40061 57010 333 91113 91206;
0128066640999992010010913004+47433+008517FM-12+044399999V0200201N002619999999N9999999N1-00411-00651100611ADDMA1999999095121MD1710071+9999OA149900671REMSYN076AAXX  09134 06664 33/// /0205 11041 21065 39512 40061 57007 333 91113 91206;
0128066640999992010010914004+47433+008517FM-12+044399999V0200101N001519999999N9999999N1-00421-00611100631ADDMA1999999095141MD1510041+9999OA149900571REMSYN076AAXX  09144 06664 33/// /0103 11042 21061 39514 40063 55004 333 91111 91205;
0128066640999992010010915004+47433+008517FM-12+044399999V0200101N001019999999N9999999N1-00431-00581100651ADDMA1999999095161MD1310041+9999OA149900671REMSYN076AAXX  09154 06664 33/// /0102 11043 21058 39516 40065 53004 333 91113 91206;
0128066640999992010010916004+47433+008517FM-12+044399999V0203301N001519999999N9999999N1-00451-00601100671ADDMA1999999095171MD1110051+9999OA149900361REMSYN076AAXX  09164 06664 33/// /3303 11045 21060 39517 40067 51005 333 91107 91204;
0128066640999992010010917004+47433+008517FM-12+044399999V0203501N002119999999N9999999N1-00461-00571100671ADDMA1999999095171MD1210031+9999OA149900461REMSYN076AAXX  09174 06664 33/// /3504 11046 21057 39517 40067 52003 333 91109 91205;
0170066640999992010010918004+47433+008517FM-12+044399999V0203501N002119999999N9999999N1-00481-00591100711ADDAA112000591KA1120M-00411MA1999999095201MD1210041+9999OA149900671REMSYN094AAXX  09184 06664 03/// /3504 11048 21059 39520 40071 52004 69952 333 11041 69955 91113 91206;
0145066640999992010010919004+47433+008517FM-12+044399999V0203501N001519999999N9999999N1-00481-00611100751ADDAA101000591MA1999999095241MD1210071+9999OA149900461REMSYN082AAXX  09194 06664 23/// /3503 11048 21061 39524 40075 52007 333 69945 91109 91205;
0145066640999992010010920004+47433+008517FM-12+044399999V0203401N001519999999N9999999N1-00491-00631100771ADDAA101000391MA1999999095261MD1210091+9999OA149900461REMSYN082AAXX  09204 06664 23/// /3403 11049 21063 39526 40077 52009 333 69935 91109 91205;
0145066640999992010010921004+47433+008517FM-12+044399999V0203401N001519999999N9999999N1-00481-00641100791ADDAA101000021MA1999999095281MD1210081+9999OA149900461REMSYN082AAXX  09214 06664 23/// /3403 11048 21064 39528 40079 52008 333 69915 91109 91205;
0128066640999992010010922004+47433+008517FM-12+044399999V0203101N001019999999N9999999N1-00491-00661100831ADDMA1999999095321MD1210081+9999OA149900361REMSYN076AAXX  09224 06664 33/// /3102 11049 21066 39532 40083 52008 333 91107 91203;
0145066640999992010010923004+47433+008517FM-12+044399999V0203001N001019999999N9999999N1-00481-00641100861ADDAA101000021MA1999999095351MD1210091+9999OA149900261REMSYN082AAXX  09234 06664 23/// /3002 11048 21064 39535 40086 52009 333 69915 91105 91203;
0151066640999992010011000004+47433+008517FM-12+044399999V0203001N000519999999N9999999N1-00521-00651100901ADDAA106001091MA1999999095381MD1110101+9999OA149900571REMSYN088AAXX  10004 06664 03/// /3001 11052 21065 39538 40090 51010 60011 333 69915 91111 91205;
0128066640999992010011001004+47433+008517FM-12+044399999V0202901N001019999999N9999999N1-00491-00651100921ADDMA1999999095401MD1110081+9999OA149900211REMSYN076AAXX  10014 06664 33/// /2902 11049 21065 39540 40092 51008 333 91104 91202;
0087066640999992010011002004+47433+008517FM-12+044399999V0202701N000519999999N9999999N1-00521-00671100991ADDMA1999999095461REMSYN060AAXX  10024 06664 33/// /2701 11052 21067 39546 40099 5////;
0087066640999992010011003004+47433+008517FM-12+044399999V0202901N000519999999N9999999N1-00501-00651101031ADDMA1999999095501REMSYN060AAXX  10034 06664 43/// /2901 11050 21065 39550 40103 5////;
0128066640999992010011004004+47433+008517FM-12+044399999V0203001N001019999999N9999999N1-00481-00621101081ADDMA1999999095551MD1110151+9999OA149900151REMSYN076AAXX  10044 06664 33/// /3002 11048 21062 39555 40108 51015 333 91103 91202;
0128066640999992010011005004+47433+008517FM-12+044399999V0202901N000519999999N9999999N1-00491-00631101121ADDMA1999999095591MD1110131+9999OA149900151REMSYN076AAXX  10054 06664 33/// /2901 11049 21063 39559 40112 51013 333 91103 91202;
0229066640999992010011006004+47433+008517FM-12+044399999V0203101N000519999999N9999999N1-00481-00631101171ADDAA112001091AA224001591AL13000191GJ100009IA2999-00609KA1999N-00541MA1999999095641MD1110141+9999OA149900461REMSYN112AAXX  10064 06664 03/// /3101 11048 21063 39564 40117 51014 60012 333 21054 3/106 55000 60005 70015 91109 91205;
0128066640999992010011007004+47433+008517FM-12+044399999V0202701N000519999999N9999999N1-00541-00641101261ADDMA1999999095711MD1310161+9999OA149900101REMSYN076AAXX  10074 06664 33/// /2701 11054 21064 39571 40126 53016 333 91102 91201;
0128066640999992010011008004+47433+008517FM-12+044399999V0203201N000519999999N9999999N1-00491-00651101331ADDMA1999999095791MD1319999+9999OA149900101REMSYN076AAXX  10084 06664 33/// /3201 11049 21065 39579 40133 53/// 333 91102 91201;
0128066640999992010011009004+47433+008517FM-12+044399999V0202801N001519999999N9999999N1-00431-00651101401ADDMA1999999095871MD1310231+9999OA149900211REMSYN076AAXX  10094 06664 33/// /2803 11043 21065 39587 40140 53023 333 91104 91203;
0128066640999992010011010004+47433+008517FM-12+044399999V0202901N001519999999N9999999N1-00401-00661101451ADDMA1999999095921MD1110211+9999OA149900261REMSYN076AAXX  10104 06664 33/// /2903 11040 21066 39592 40145 51021 333 91105 91203;
0128066640999992010011011004+47433+008517FM-12+044399999V0202801N001519999999N9999999N1-00361-00711101511ADDMA1999999095981MD1110191+9999OA149900261REMSYN076AAXX  10114 06664 33/// /2803 11036 21071 39598 40151 51019 333 91105 91203;
0128066640999992010011012004+47433+008517FM-12+044399999V0202801N001519999999N9999999N1-00351-00831101521ADDMA1999999096001MD1110131+9999OA149900361REMSYN076AAXX  10124 06664 33/// /2803 11035 21083 39600 40152 51013 333 91107 91204;
0128066640999992010011013004+47433+008517FM-12+044399999V0202601N001519999999N9999999N1-00361-00811101541ADDMA1999999096011MD1110091+9999OA149900361REMSYN076AAXX  10134 06664 33/// /2603 11036 21081 39601 40154 51009 333 91107 91204;
0128066640999992010011014004+47433+008517FM-12+044399999V0202701N001519999999N9999999N1-00361-00771101591ADDMA1999999096061MD1319999+9999OA149900361REMSYN076AAXX  10144 06664 33/// /2703 11036 21077 39606 40159 53/// 333 91107 91204;
0128066640999992010011015004+47433+008517FM-12+044399999V0202701N001519999999N9999999N1-00371-00791101641ADDMA1999999096111MD1310111+9999OA149900461REMSYN076AAXX  10154 06664 33/// /2703 11037 21079 39611 40164 53011 333 91109 91205;
0128066640999992010011016004+47433+008517FM-12+044399999V0202901N001519999999N9999999N1-00371-00801101701ADDMA1999999096161MD1110151+9999OA149900461REMSYN076AAXX  10164 06664 33/// /2903 11037 21080 39616 40170 51015 333 91109 91205;
0128066640999992010011017004+47433+008517FM-12+044399999V0202901N001519999999N9999999N1-00381-00821101721ADDMA1999999096181MD1119999+9999OA149900411REMSYN076AAXX  10174 06664 33/// /2903 11038 21082 39618 40172 51/// 333 91108 91204;
0147066640999992010011018004+47433+008517FM-12+044399999V0202701N001519999999N9999999N1-00401-00841101781ADDKA1120M-00341MA1999999096231MD1110121+9999OA149900461REMSYN082AAXX  10184 06664 33/// /2703 11040 21084 39623 40178 51012 333 11034 91109 91205;
0128066640999992010011019004+47433+008517FM-12+044399999V0203101N001019999999N9999999N1-00411-00831101791ADDMA1999999096241MD1110081+9999OA149900411REMSYN076AAXX  10194 06664 33/// /3102 11041 21083 39624 40179 51008 333 91108 91204;
0128066640999992010011020004+47433+008517FM-12+044399999V0203501N000519999999N9999999N1-00431-00811101811ADDMA1999999096251MD1219999+9999OA149900261REMSYN076AAXX  10204 06664 33/// /3501 11043 21081 39625 40181 52/// 333 91105 91203;
0128066640999992010011021004+47433+008517FM-12+044399999V0203001N000519999999N9999999N1-00471-00761101841ADDMA1999999096271MD1210041+9999OA149900411REMSYN076AAXX  10214 06664 33/// /3001 11047 21076 39627 40184 52004 333 91108 91204;
0128066640999992010011022004+47433+008517FM-12+044399999V0201501N000519999999N9999999N1-00481-00711101831ADDMA1999999096261MD1210021+9999OA149900151REMSYN076AAXX  10224 06664 33/// /1501 11048 21071 39626 40183 52002 333 91103 91202;
0128066640999992010011023004+47433+008517FM-12+044399999V0200801N000519999999N9999999N1-00531-00731101851ADDMA1999999096271MD1210021+9999OA149900151REMSYN076AAXX  10234 06664 33/// /0801 11053 21073 39627 40185 52002 333 91103 91202;
0128066640999992010011100004+47433+008517FM-12+044399999V0202701N000519999999N9999999N1-00601-00801101841ADDMA1999999096251MD1710021+9999OA149900461REMSYN076AAXX  11004 06664 33/// /2701 11060 21080 39625 40184 57002 333 91109 91205;
0147066640999992010011101004+47433+008517FM-12+044399999V0202801N001019999999N9999999N1-00681-00821101871ADDMA1999999096261MD1710041+9999OA149900151REMSYN076AAXX  11014 06664 33/// /2802 11068 21082 39626 40187 57000 333 91103 91202;EQDQ01+000002APC3  
0128066640999992010011102004+47433+008517FM-12+044399999V0209999C000019999999N9999999N1-00671-00811101891ADDMA1999999096281MD1319999+9999OA149900151REMSYN076AAXX  11024 06664 33/// /0000 11067 21081 39628 40189 53/// 333 91103 91202;
0128066640999992010011103004+47433+008517FM-12+044399999V0202701N000519999999N9999999N1-00611-00761101881ADDMA1999999096281MD1219999+9999OA149900151REMSYN076AAXX  11034 06664 33/// /2701 11061 21076 39628 40188 52/// 333 91103 91202;
0163066640999992010011104004+47433+008517FM-12+044399999V0209999C000019999999N9999999N1-00591-00721101851ADDMA1999999096261MD1710021+9999OA149900101REMSYN076AAXX  11044 06664 33/// /0000 11059 21072 39626 40185 57000 333 91102 91201;EQDQ01+000072APCTENQ02+000002APC3  
0128066640999992010011105004+47433+008517FM-12+044399999V0200801N000519999999N9999999N1-00551-00671101831ADDMA1999999096251MD1710031+9999OA149900051REMSYN076AAXX  11054 06664 33/// /0801 11055 21067 39625 40183 57003 333 91101 91201;
0225066640999992010011106004+47433+008517FM-12+044399999V0203401N000519999999N9999999N1-00471-00701101791ADDAA124000091AL19900091GJ100009IA2999-01209KA1999N-00861MA1999999096231MD1810051+9999OA149900261REMSYN100AAXX  11064 06664 33/// /3401 11047 21070 39623 40179 58005 333 21086 3/112 55000 70000 91105 91203;EQDQ01  00002PRCP24
0128066640999992010011107004+47433+008517FM-12+044399999V0202601N001019999999N9999999N1-00471-00711101791ADDMA1999999096231MD1710031+9999OA149900151REMSYN076AAXX  11074 06664 33/// /2602 11047 21071 39623 40179 57003 333 91103 91202;
0128066640999992010011108004+47433+008517FM-12+044399999V0209999C000019999999N9999999N1-00481-00671101831ADDMA1999999096261MD1219999+9999OA149900151REMSYN076AAXX  11084 06664 33/// /0000 11048 21067 39626 40183 52/// 333 91103 91202;
0128066640999992010011109004+47433+008517FM-12+044399999V0209999C000019999999N9999999N1-00441-00701101811ADDMA1999999096251MD1210021+9999OA149900151REMSYN076AAXX  11094 06664 33/// /0000 11044 21070 39625 40181 52002 333 91103 91202;
0128066640999992010011110004+47433+008517FM-12+044399999V0209999C000019999999N9999999N1-00371-00721101801ADDMA1999999096261MD1219999+9999OA149900101REMSYN076AAXX  11104 06664 33/// /0000 11037 21072 39626 40180 52/// 333 91102 91201;
0128066640999992010011111004+47433+008517FM-12+044399999V0202601N001519999999N9999999N1-00271-00701101761ADDMA1999999096241MD1710021+9999OA149900311REMSYN076AAXX  11114 06664 33/// /2603 11027 21070 39624 40176 57002 333 91106 91203;
0128066640999992010011112004+47433+008517FM-12+044399999V0202401N002619999999N9999999N1-00301-00741101751ADDMA1999999096221MD1710031+9999OA149900511REMSYN076AAXX  11124 06664 33/// /2405 11030 21074 39622 40175 57003 333 91110 91206;
0128066640999992010011113004+47433+008517FM-12+044399999V0202601N002619999999N9999999N1-00281-00721101721ADDMA1999999096201MD1610061+9999OA149900511REMSYN076AAXX  11134 06664 33/// /2605 11028 21072 39620 40172 56006 333 91110 91206;
0087066640999992010011114004+47433+008517FM-12+044399999V0202301N003119999999N9999999N1-00291-00701101751ADDMA1999999096231REMSYN060AAXX  11144 06664 33/// /2306 11029 21070 39623 40175 5////;
0128066640999992010011115004+47433+008517FM-12+044399999V0202501N002619999999N9999999N1-00311-00641101801ADDMA1999999096271MD1310051+9999OA149900511REMSYN076AAXX  11154 06664 33/// /2505 11031 21064 39627 40180 53005 333 91110 91206;
0128066640999992010011116004+47433+008517FM-12+044399999V0202601N001519999999N9999999N1-00361-00601101851ADDMA1999999096311MD1310111+9999OA149900461REMSYN076AAXX  11164 06664 33/// /2603 11036 21060 39631 40185 53011 333 91109 91206;
0145066640999992010011117004+47433+008517FM-12+044399999V0202401N001519999999N9999999N1-00381-00551101901ADDAA101000591MA1999999096351MD1110121+9999OA149900461REMSYN082AAXX  11174 06664 23/// /2403 11038 21055 39635 40190 51012 333 69945 91109 91205;
0170066640999992010011118004+47433+008517FM-12+044399999V0202401N001019999999N9999999N1-00381-00561101931ADDAA112000591KA1120M-00271MA1999999096381MD1110111+9999OA149900511REMSYN094AAXX  11184 06664 03/// /2402 11038 21056 39638 40193 51011 69952 333 11027 69915 91110 91206;
0145066640999992010011119004+47433+008517FM-12+044399999V0209999C000019999999N9999999N1-00401-00511101961ADDAA101000021MA1999999096401MD1110091+9999OA149900211REMSYN082AAXX  11194 06664 23/// /0000 11040 21051 39640 40196 51009 333 69925 91104 91203;
0145066640999992010011120004+47433+008517FM-12+044399999V0202601N000519999999N9999999N1-00341-00511101971ADDAA101000021MA1999999096421MD1210071+9999OA149900101REMSYN082AAXX  11204 06664 23/// /2601 11034 21051 39642 40197 52007 333 69915 91102 91201;
0145066640999992010011121004+47433+008517FM-12+044399999V0209999C000019999999N9999999N1-00381-00481101971ADDAA101000021MA1999999096421MD1210041+9999OA149900461REMSYN082AAXX  11214 06664 23/// /0000 11038 21048 39642 40197 52004 333 69925 91109 91205;
0145066640999992010011122004+47433+008517FM-12+044399999V0209999C000019999999N9999999N1-00391-00451101981ADDAA101000591MA1999999096421MD1210021+9999OA149900101REMSYN082AAXX  11224 06664 23/// /0000 11039 21045 39642 40198 52002 333 69955 91102 91201;
0145066640999992010011123004+47433+008517FM-12+044399999V0209999C000019999999N9999999N1-00351-00441101991ADDAA101000591MA1999999096441MD1210021+9999OA149900051REMSYN082AAXX  11234 06664 23/// /0000 11035 21044 39644 40199 52002 333 69945 91101 91201;
0151066640999992010011200004+47433+008517FM-12+044399999V0209999C000019999999N9999999N1-00381-00441101991ADDAA106002091MA1999999096431MD1010011+9999OA149900461REMSYN088AAXX  12004 06664 03/// /0000 11038 21044 39643 40199 50001 60021 333 69965 91109 91206;
0164066640999992010011201004+47433+008517FM-12+044399999V0209999C000019999999N9999999N1-00391-00451101981ADDAA101000591MA1999999096421MD1410001+9999OA149900001REMSYN082AAXX  12014 06664 23/// /0000 11039 21045 39642 40198 58000 333 69945 91100 91200;EQDQ01+000082APCTEN
0128066640999992010011202004+47433+008517FM-12+044399999V0202501N000519999999N9999999N1-00381-00481101991ADDMA1999999096431MD1719999+9999OA149900101REMSYN076AAXX  12024 06664 33/// /2501 11038 21048 39643 40199 57/// 333 91102 91201;
0128066640999992010011203004+47433+008517FM-12+044399999V0209999C000019999999N9999999N1-00381-00471101971ADDMA1999999096421MD1710011+9999OA149900101REMSYN076AAXX  12034 06664 33/// /0000 11038 21047 39642 40197 57001 333 91102 91201;
0128066640999992010011204004+47433+008517FM-12+044399999V0209999C000019999999N9999999N1-00431-00461101961ADDMA1999999096401MD1810021+9999OA149900101REMSYN076AAXX  12044 06664 33/// /0000 11043 21046 39640 40196 58002 333 91102 91201;
0128066640999992010011205004+47433+008517FM-12+044399999V0202701N000519999999N9999999N1-00391-00471101931ADDMA1999999096381MD1710051+9999OA149900101REMSYN076AAXX  12054 06664 33/// /2701 11039 21047 39638 40193 57005 333 91102 91201;
0229066640999992010011206004+47433+008517FM-12+044399999V0203201N000519999999N9999999N1-00351-00481101901ADDAA112002091AA224002891AL14800291GJ100009IA2999-00409KA1999N-00431MA1999999096361MD1710061+9999OA149900101REMSYN112AAXX  12064 06664 03/// /3201 11035 21048 39636 40190 57006 60022 333 21043 3/104 55000 60005 70029 91102 91201;
0128066640999992010011207004+47433+008517FM-12+044399999V0202801N000519999999N9999999N1-00391-00481101861ADDMA1999999096311MD1710091+9999OA149900101REMSYN076AAXX  12074 06664 33/// /2801 11039 21048 39631 40186 57009 333 91102 91201;
0128066640999992010011208004+47433+008517FM-12+044399999V0209999C000019999999N9999999N1-00411-00501101811ADDMA1999999096261MD1819999+9999OA149900101REMSYN076AAXX  12084 06664 33/// /0000 11041 21050 39626 40181 58/// 333 91102 91201;
0128066640999992010011209004+47433+008517FM-12+044399999V0200301N000519999999N9999999N1-00311-00471101741ADDMA1999999096211MD1610151+9999OA149900101REMSYN076AAXX  12094 06664 33/// /0301 11031 21047 39621 40174 56015 333 91102 91201;
0128066640999992010011210004+47433+008517FM-12+044399999V0200101N000519999999N9999999N1-00261-00481101651ADDMA1999999096141MD1810171+9999OA149900151REMSYN076AAXX  12104 06664 33/// /0101 11026 21048 39614 40165 58017 333 91103 91202;
0128066640999992010011211004+47433+008517FM-12+044399999V0203601N001019999999N9999999N1-00251-00521101561ADDMA1999999096051MD1810211+9999OA149900211REMSYN076AAXX  12114 06664 33/// /3602 11025 21052 39605 40156 58021 333 91104 91202;
0128066640999992010011212004+47433+008517FM-12+044399999V0200301N001019999999N9999999N1-00191-00481101451ADDMA1999999095961MD1810251+9999OA149900261REMSYN076AAXX  12124 06664 33/// /0302 11019 21048 39596 40145 58025 333 91105 91203;
0128066640999992010011213004+47433+008517FM-12+044399999V0200401N001019999999N9999999N1-00181-00491101381ADDMA1999999095901MD1610241+9999OA149900261REMSYN076AAXX  12134 06664 33/// /0402 11018 21049 39590 40138 56024 333 91105 91203;
0087066640999992010011214004+47433+008517FM-12+044399999V0200601N001519999999N9999999N1-00171-00481101321ADDMA1999999095841REMSYN060AAXX  12144 06664 33/// /0603 11017 21048 39584 40132 5////;
0128066640999992010011215004+47433+008517FM-12+044399999V0200801N001519999999N9999999N1-00181-00431101231ADDMA1999999095761MD1810201+9999OA149900361REMSYN076AAXX  12154 06664 33/// /0803 11018 21043 39576 40123 58020 333 91107 91204;
0128066640999992010011216004+47433+008517FM-12+044399999V0200401N002119999999N9999999N1-00201-00421101151ADDMA1999999095681MD1710221+9999OA149900411REMSYN076AAXX  12164 06664 33/// /0404 11020 21042 39568 40115 57022 333 91108 91204;
0128066640999992010011217004+47433+008517FM-12+044399999V0200701N001519999999N9999999N1-00221-00431101081ADDMA1999999095611MD1610231+9999OA149900461REMSYN076AAXX  12174 06664 33/// /0703 11022 21043 39561 40108 56023 333 91109 91205;
0147066640999992010011218004+47433+008517FM-12+044399999V0200701N001519999999N9999999N1-00201-00461101051ADDKA1120M-00171MA1999999095581MD1710181+9999OA149900461REMSYN082AAXX  12184 06664 33/// /0703 11020 21046 39558 40105 57018 333 11017 91109 91205;
0128066640999992010011219004+47433+008517FM-12+044399999V0200901N001019999999N9999999N1-00211-00441101031ADDMA1999999095561MD1710121+9999OA149900461REMSYN076AAXX  12194 06664 33/// /0902 11021 21044 39556 40103 57012 333 91109 91205;
0128066640999992010011220004+47433+008517FM-12+044399999V0200801N001019999999N9999999N1-00191-00411100981ADDMA1999999095521MD1710091+9999OA149900411REMSYN076AAXX  12204 06664 33/// /0802 11019 21041 39552 40098 57009 333 91108 91205;
0128066640999992010011221004+47433+008517FM-12+044399999V0200601N000519999999N9999999N1-00201-00411100901ADDMA1999999095441MD1710141+9999OA149900461REMSYN076AAXX  12214 06664 33/// /0601 11020 21041 39544 40090 57014 333 91109 91205;
0128066640999992010011222004+47433+008517FM-12+044399999V0209999C001019999999N9999999N1-00231-00411100851ADDMA1999999095391MD1710171+9999OA149900311REMSYN076AAXX  12224 06664 33/// /0002 11023 21041 39539 40085 57017 333 91106 91203;
0128066640999992010011223004+47433+008517FM-12+044399999V0203601N000519999999N9999999N1-00301-00451100801ADDMA1999999095331MD1710191+9999OA149900311REMSYN076AAXX  12234 06664 33/// /3601 11030 21045 39533 40080 57019 333 91106 91203;
0128066640999992010011300004+47433+008517FM-12+044399999V0202801N001519999999N9999999N1-00291-00461100831ADDMA1999999095361MD1510081+9999OA149900461REMSYN076AAXX  13004 06664 33/// /2803 11029 21046 39536 40083 55008 333 91109 91205;
0128066640999992010011301004+47433+008517FM-12+044399999V0202601N001019999999N9999999N1-00231-00421100941ADDMA1999999095471MD1310081+9999OA149900311REMSYN076AAXX  13014 06664 33/// /2602 11023 21042 39547 40094 53008 333 91106 91204;
0128066640999992010011302004+47433+008517FM-12+044399999V0201301N000519999999N9999999N1-00231-00431100851ADDMA1999999095391MD1019999+9999OA149900361REMSYN076AAXX  13024 06664 33/// /1301 11023 21043 39539 40085 50/// 333 91107 91204;
0128066640999992010011303004+47433+008517FM-12+044399999V0200901N001019999999N9999999N1-00271-00431100791ADDMA1999999095321MD1819999+9999OA149900361REMSYN076AAXX  13034 06664 33/// /0902 11027 21043 39532 40079 58/// 333 91107 91204;
0128066640999992010011304004+47433+008517FM-12+044399999V0200201N001019999999N9999999N1-00281-00421100741ADDMA1999999095271MD1710201+9999OA149900211REMSYN076AAXX  13044 06664 33/// /0202 11028 21042 39527 40074 57020 333 91104 91202;
0128066640999992010011305004+47433+008517FM-12+044399999V0203501N000519999999N9999999N1-00271-00421100721ADDMA1999999095261MD1710131+9999OA149900211REMSYN076AAXX  13054 06664 33/// /3501 11027 21042 39526 40072 57013 333 91104 91202;
0225066640999992010011306004+47433+008517FM-12+044399999V0209999C000019999999N9999999N1-00311-00431100751ADDAA124000091AL19900091GJ100489IA2999-00609KA1999N-00321MA1999999095281MD1510041+9999OA149900411REMSYN100AAXX  13064 06664 33/// /0000 11031 21043 39528 40075 55004 333 21032 3/106 55008 70000 91108 91205;EQDQ01  00002PRCP24
0128066640999992010011307004+47433+008517FM-12+044399999V0202901N001019999999N9999999N1-00301-00431100801ADDMA1999999095331MD1310061+9999OA149900211REMSYN076AAXX  13074 06664 33/// /2902 11030 21043 39533 40080 53006 333 91104 91202;
0128066640999992010011308004+47433+008517FM-12+044399999V0202901N000519999999N9999999N1-00261-00421100891ADDMA1999999095421MD1310161+9999OA149900261REMSYN076AAXX  13084 06664 33/// /2901 11026 21042 39542 40089 53016 333 91105 91203;
0128066640999992010011309004+47433+008517FM-12+044399999V0209999C000019999999N9999999N1-00251-00401100941ADDMA1999999095471MD1110191+9999OA149900261REMSYN076AAXX  13094 06664 33/// /0000 11025 21040 39547 40094 51019 333 91105 91203;
0145066640999992010011310004+47433+008517FM-12+044399999V0201001N000519999999N9999999N1-00191-00311100971ADDAA101000021MA1999999095511MD1110181+9999OA149900151REMSYN082AAXX  13104 06664 23/// /1001 11019 21031 39551 40097 51018 333 69925 91103 91202;
0145066640999992010011311004+47433+008517FM-12+044399999V0209999C000019999999N9999999N1-00131-00221100951ADDAA101000021MA1999999095501MD1210081+9999OA149900151REMSYN082AAXX  13114 06664 23/// /0000 11013 21022 39550 40095 52008 333 69925 91103 91202;
0151066640999992010011312004+47433+008517FM-12+044399999V0200901N000519999999N9999999N1-00041-00161100911ADDAA106000891MA1999999095481MD1010011+9999OA149900361REMSYN088AAXX  13124 06664 03/// /0901 11004 21016 39548 40091 50001 69971 333 69935 91107 91204;
0145066640999992010011313004+47433+008517FM-12+044399999V0200701N000519999999N9999999N1-00021-00121100891ADDAA101000591MA1999999095471MD1610041+9999OA149900151REMSYN082AAXX  13134 06664 23/// /0701 11002 21012 39547 40089 56004 333 69945 91103 91202;
0145066640999992010011314004+47433+008517FM-12+044399999V0201001N000519999999N9999999N1+00001-00071100911ADDAA101000591MA1999999095491MD1519999+9999OA149900151REMSYN082AAXX  13144 06664 23/// /1001 10000 21007 39549 40091 55/// 333 69945 91103 91202;
0145066640999992010011315004+47433+008517FM-12+044399999V0201701N001519999999N9999999N1+00091-00021100911ADDAA101000021MA1999999095511MD1310031+9999OA149900361REMSYN082AAXX  13154 06664 23/// /1703 10009 21002 39551 40091 53003 333 69925 91107 91205;
0145066640999992010011316004+47433+008517FM-12+044399999V0201701N001519999999N9999999N1+00091+00001100961ADDAA101000021MA1999999095551MD1310081+9999OA149900361REMSYN082AAXX  13164 06664 23/// /1703 10009 20000 39555 40096 53008 333 69925 91107 91205;
0145066640999992010011317004+47433+008517FM-12+044399999V0201901N001519999999N9999999N1+00141+00021100991ADDAA101000021MA1999999095591MD1310101+9999OA149900311REMSYN082AAXX  13174 06664 23/// /1903 10014 20002 39559 40099 53010 333 69915 91106 91204;
0170066640999992010011318004+47433+008517FM-12+044399999V0202001N001519999999N9999999N1+00161+00041101031ADDAA112002091KA1120M+00161MA1999999095631MD1310121+9999OA149900461REMSYN094AAXX  13184 06664 03/// /2003 10016 20004 39563 40103 53012 60022 333 10016 69925 91109 91205;
0145066640999992010011319004+47433+008517FM-12+044399999V0201701N001019999999N9999999N1+00141+00041101071ADDAA101000391MA1999999095671MD1110121+9999OA149900461REMSYN082AAXX  13194 06664 23/// /1702 10014 20004 39567 40107 51012 333 69935 91109 91205;
0145066640999992010011320004+47433+008517FM-12+044399999V0200901N000519999999N9999999N1+00101+00051101101ADDAA101000391MA1999999095691MD1110101+9999OA149900311REMSYN082AAXX  13204 06664 23/// /0901 10010 20005 39569 40110 51010 333 69935 91106 91203;
0145066640999992010011321004+47433+008517FM-12+044399999V0200701N001519999999N9999999N1+00131+00061101081ADDAA101000021MA1999999095681MD1210051+9999OA149900461REMSYN082AAXX  13214 06664 23/// /0703 10013 20006 39568 40108 52005 333 69915 91109 91205;
0128066640999992010011322004+47433+008517FM-12+044399999V0201001N001019999999N9999999N1+00131+00061101071ADDMA1999999095671MD1010001+9999OA149900261REMSYN076AAXX  13224 06664 33/// /1002 10013 20006 39567 40107 50000 333 91105 91203;
0128066640999992010011323004+47433+008517FM-12+044399999V0201701N002119999999N9999999N1+00161+00081101041ADDMA1999999095641MD1710051+9999OA149900311REMSYN076AAXX  13234 06664 33/// /1704 10016 20008 39564 40104 57005 333 91106 91204;
0151066640999992010011400004+47433+008517FM-12+044399999V0201801N001019999999N9999999N1+00121+00071100991ADDAA106000891MA1999999095591MD1810091+9999OA149900461REMSYN088AAXX  14004 06664 03/// /1802 10012 20007 39559 40099 58009 69971 333 60005 91109 91205;
0128066640999992010011401004+47433+008517FM-12+044399999V0209999C000019999999N9999999N1+00131+00081100961ADDMA1999999095561MD1610111+9999OA149900261REMSYN076AAXX  14014 06664 33/// /0000 10013 20008 39556 40096 56011 333 91105 91203;
0128066640999992010011402004+47433+008517FM-12+044399999V0201001N001019999999N9999999N1+00001+00001100921ADDMA1999999095501MD1719999+9999OA149900211REMSYN076AAXX  14024 06664 33/// /1002 10000 20000 39550 40092 57/// 333 91104 91203;
0087066640999992010011403004+47433+008517FM-12+044399999V0200701N000519999999N9999999N1-00021-00021100931ADDMA1999999095501REMSYN060AAXX  14034 06664 33/// /0701 11002 21002 39550 40093 5////;
0128066640999992010011404004+47433+008517FM-12+044399999V0209999C000019999999N9999999N1-00011-00011100911ADDMA1999999095491MD1710071+9999OA149900151REMSYN076AAXX  14044 06664 33/// /0000 11001 21001 39549 40091 57007 333 91103 91202;
0128066640999992010011405004+47433+008517FM-12+044399999V0209999C000019999999N9999999N1+00031+00001100881ADDMA1999999095471MD1710031+9999OA149900101REMSYN076AAXX  14054 06664 33/// /0000 10003 20000 39547 40088 57003 333 91102 91201;
0229066640999992010011406004+47433+008517FM-12+044399999V0200701N001519999999N9999999N1+00091+00031100831ADDAA112000891AA224002891AL14800291GJ100009IA2999-00109KA1999N-00041MA1999999095431MD1710071+9999OA149900411REMSYN112AAXX  14064 06664 03/// /0703 10009 20003 39543 40083 57007 69972 333 21004 3/101 55000 60005 70029 91108 91205;
0128066640999992010011407004+47433+008517FM-12+044399999V0200901N001519999999N9999999N1+00041+00011100831ADDMA1999999095421MD1710071+9999OA149900411REMSYN076AAXX  14074 06664 33/// /0903 10004 20001 39542 40083 57007 333 91108 91205;
0128066640999992010011408004+47433+008517FM-12+044399999V0200701N001519999999N9999999N1+00071+00001100811ADDMA1999999095411MD1719999+9999OA149900261REMSYN076AAXX  14084 06664 33/// /0703 10007 20000 39541 40081 57/// 333 91105 91203;
0128066640999992010011409004+47433+008517FM-12+044399999V0200601N001519999999N9999999N1+00111+00021100791ADDMA1999999095401MD1710031+9999OA149900461REMSYN076AAXX  14094 06664 33/// /0603 10011 20002 39540 40079 57003 333 91109 91205;
0128066640999992010011410004+47433+008517FM-12+044399999V0200701N002119999999N9999999N1+00161+00021100781ADDMA1999999095401MD1710021+9999OA149900461REMSYN076AAXX  14104 06664 33/// /0704 10016 20002 39540 40078 57002 333 91109 91205;
0128066640999992010011411004+47433+008517FM-12+044399999V0200501N002619999999N9999999N1+00191+00011100711ADDMA1999999095341MD1710071+9999OA149900461REMSYN076AAXX  14114 06664 33/// /0505 10019 20001 39534 40071 57007 333 91109 91205;
0128066640999992010011412004+47433+008517FM-12+044399999V0200501N002119999999N9999999N1+00191+00011100661ADDMA1999999095291MD1710111+9999OA149900621REMSYN076AAXX  14124 06664 33/// /0504 10019 20001 39529 40066 57011 333 91112 91206;
0128066640999992010011413004+47433+008517FM-12+044399999V0200501N002119999999N9999999N1+00181+00001100621ADDMA1999999095251MD1610151+9999OA149900671REMSYN076AAXX  14134 06664 33/// /0504 10018 20000 39525 40062 56015 333 91113 91206;
0128066640999992010011414004+47433+008517FM-12+044399999V0200301N001519999999N9999999N1+00191+00011100671ADDMA1999999095301MD1510041+9999OA149900671REMSYN076AAXX  14144 06664 33/// /0303 10019 20001 39530 40067 55004 333 91113 91205;
0128066640999992010011415004+47433+008517FM-12+044399999V0203301N001019999999N9999999N1+00181+00031100721ADDMA1999999095341MD1310051+9999OA149900671REMSYN076AAXX  14154 06664 33/// /3302 10018 20003 39534 40072 53005 333 91113 91206;
0128066640999992010011416004+47433+008517FM-12+044399999V0200101N001519999999N9999999N1+00141+00001100741ADDMA1999999095361MD1210111+9999OA149900411REMSYN076AAXX  14164 06664 33/// /0103 10014 20000 39536 40074 52011 333 91108 91204;
0128066640999992010011417004+47433+008517FM-12+044399999V0209999C001019999999N9999999N1+00131-00011100801ADDMA1999999095411MD1210111+9999OA149900411REMSYN076AAXX  14174 06664 33/// /0002 10013 21001 39541 40080 52011 333 91108 91203;
0147066640999992010011418004+47433+008517FM-12+044399999V0200301N002119999999N9999999N1+00141-00021100861ADDKA1120M+00211MA1999999095471MD1310131+9999OA149900671REMSYN082AAXX  14184 06664 33/// /0304 10014 21002 39547 40086 53013 333 10021 91113 91206;
0128066640999992010011419004+47433+008517FM-12+044399999V0200401N002119999999N9999999N1+00121-00041100961ADDMA1999999095561MD1310201+9999OA149900461REMSYN076AAXX  14194 06664 33/// /0404 10012 21004 39556 40096 53020 333 91109 91205;
0128066640999992010011420004+47433+008517FM-12+044399999V0200301N001519999999N9999999N1+00091-00051101041ADDMA1999999095631MD1110221+9999OA149900511REMSYN076AAXX  14204 06664 33/// /0303 10009 21005 39563 40104 51022 333 91110 91205;
0128066640999992010011421004+47433+008517FM-12+044399999V0203601N002119999999N9999999N1+00041-00101101151ADDMA1999999095721MD1310251+9999OA149900511REMSYN076AAXX  14214 06664 33/// /3604 10004 21010 39572 40115 53025 333 91110 91205;
0128066640999992010011422004+47433+008517FM-12+044399999V0209999C001519999999N9999999N1+00021-00121101241ADDMA1999999095811MD1310251+9999OA149900411REMSYN076AAXX  14224 06664 33/// /0003 10002 21012 39581 40124 53025 333 91108 91204;
0128066640999992010011423004+47433+008517FM-12+044399999V0202701N001019999999N9999999N1+00011-00131101341ADDMA1999999095901MD1210271+9999OA149900411REMSYN076AAXX  14234 06664 33/// /2702 10001 21013 39590 40134 52027 333 91108 91204;
0128066640999992010011500004+47433+008517FM-12+044399999V0203401N001019999999N9999999N1+00001-00141101411ADDMA1999999095961MD1110241+9999OA149900671REMSYN076AAXX  15004 06664 33/// /3402 10000 21014 39596 40141 51024 333 91113 91205;
0128066640999992010011501004+47433+008517FM-12+044399999V0203001N001019999999N9999999N1+00001-00151101481ADDMA1999999096031MD1110221+9999OA149900261REMSYN076AAXX  15014 06664 33/// /3002 10000 21015 39603 40148 51022 333 91105 91203;
0128066640999992010011502004+47433+008517FM-12+044399999V0202501N000519999999N9999999N1-00031-00141101561ADDMA1999999096101MD1310201+9999OA149900211REMSYN076AAXX  15024 06664 33/// /2501 11003 21014 39610 40156 53020 333 91104 91202;
0087066640999992010011503004+47433+008517FM-12+044399999V0203101N000519999999N9999999N1-00011-00141101651ADDMA1999999096191REMSYN060AAXX  15034 06664 33/// /3101 11001 21014 39619 40165 5////;
0128066640999992010011504004+47433+008517FM-12+044399999V0202801N000519999999N9999999N1-00021-00151101731ADDMA1999999096261MD1210231+9999OA149900151REMSYN076AAXX  15044 06664 33/// /2801 11002 21015 39626 40173 52023 333 91103 91201;
0128066640999992010011505004+47433+008517FM-12+044399999V0202901N000519999999N9999999N1-00021-00131101831ADDMA1999999096361MD1310261+9999OA149900101REMSYN076AAXX  15054 06664 33/// /2901 11002 21013 39636 40183 53026 333 91102 91201;
0225066640999992010011506004+47433+008517FM-12+044399999V0209999C000019999999N9999999N1-00031-00091101931ADDAA124000091AL19900091GJ100009IA2999+00009KA1999N-00031MA1999999096451MD1310261+9999OA149900511REMSYN100AAXX  15064 06664 33/// /0000 11003 21009 39645 40193 53026 333 21003 3/100 55000 70000 91110 91205;EQDQ01  00002PRCP24
0128066640999992010011507004+47433+008517FM-12+044399999V0209999C000019999999N9999999N1-00011-00101102021ADDMA1999999096541MD1210281+9999OA149900101REMSYN076AAXX  15074 06664 33/// /0000 11001 21010 39654 40202 52028 333 91102 91202;
0128066640999992010011508004+47433+008517FM-12+044399999V0209999C000019999999N9999999N1+00021-00101102101ADDMA1999999096621MD1119999+9999OA149900101REMSYN076AAXX  15084 06664 33/// /0000 10002 21010 39662 40210 51/// 333 91102 91201;
0128066640999992010011509004+47433+008517FM-12+044399999V0201801N001019999999N9999999N1+00141-00121102171ADDMA1999999096711MD1210261+9999OA149900211REMSYN076AAXX  15094 06664 33/// /1802 10014 21012 39671 40217 52026 333 91104 91202;
0128066640999992010011510004+47433+008517FM-12+044399999V0201801N001019999999N9999999N1+00171-00141102221ADDMA1999999096761MD1110221+9999OA149900261REMSYN076AAXX  15104 06664 33/// /1802 10017 21014 39676 40222 51022 333 91105 91203;
0128066640999992010011511004+47433+008517FM-12+044399999V0202001N001519999999N9999999N1+00191-00151102271ADDMA1999999096811MD1110191+9999OA149900261REMSYN076AAXX  15114 06664 33/// /2003 10019 21015 39681 40227 51019 333 91105 91203;
0128066640999992010011512004+47433+008517FM-12+044399999V0202201N001519999999N9999999N1+00191-00131102291ADDMA1999999096831MD1110121+9999OA149900261REMSYN076AAXX  15124 06664 33/// /2203 10019 21013 39683 40229 51012 333 91105 91203;
0128066640999992010011513004+47433+008517FM-12+044399999V0202401N001019999999N9999999N1+00201-00131102341ADDMA1999999096881MD1310121+9999OA149900261REMSYN076AAXX  15134 06664 33/// /2402 10020 21013 39688 40234 53012 333 91105 91203;
0128066640999992010011514004+47433+008517FM-12+044399999V0202701N001519999999N9999999N1+00201-00131102401ADDMA1999999096941MD1310131+9999OA149900261REMSYN076AAXX  15144 06664 33/// /2703 10020 21013 39694 40240 53013 333 91105 91203;
0128066640999992010011515004+47433+008517FM-12+044399999V0202601N001519999999N9999999N1+00201-00141102481ADDMA1999999097011MD1310181+9999OA149900311REMSYN076AAXX  15154 06664 33/// /2603 10020 21014 39701 40248 53018 333 91106 91203;
0128066640999992010011516004+47433+008517FM-12+044399999V0209999C000019999999N9999999N1+00141-00081102531ADDMA1999999097051MD1210171+9999OA149900311REMSYN076AAXX  15164 06664 33/// /0000 10014 21008 39705 40253 52017 333 91106 91203;
0128066640999992010011517004+47433+008517FM-12+044399999V0209999C000019999999N9999999N1+00151-00081102601ADDMA1999999097121MD1210181+9999OA149900211REMSYN076AAXX  15174 06664 33/// /0000 10015 21008 39712 40260 52018 333 91104 91202;
0147066640999992010011518004+47433+008517FM-12+044399999V0200401N000519999999N9999999N1+00151-00101102621ADDKA1120M+00241MA1999999097141MD1210131+9999OA149900311REMSYN082AAXX  15184 06664 33/// /0401 10015 21010 39714 40262 52013 333 10024 91106 91203;
0128066640999992010011519004+47433+008517FM-12+044399999V0203301N001019999999N9999999N1+00161-00101102641ADDMA1999999097161MD1110111+9999OA149900211REMSYN076AAXX  15194 06664 33/// /3302 10016 21010 39716 40264 51011 333 91104 91202;
0128066640999992010011520004+47433+008517FM-12+044399999V0200401N000519999999N9999999N1+00141-00111102661ADDMA1999999097171MD1210051+9999OA149900211REMSYN076AAXX  15204 06664 33/// /0401 10014 21011 39717 40266 52005 333 91104 91203;
0128066640999992010011521004+47433+008517FM-12+044399999V0200101N001019999999N9999999N1+00121-00111102661ADDMA1999999097171MD1210031+9999OA149900211REMSYN076AAXX  15214 06664 33/// /0102 10012 21011 39717 40266 52003 333 91104 91203;
0128066640999992010011522004+47433+008517FM-12+044399999V0200601N001519999999N9999999N1+00111-00151102671ADDMA1999999097181MD1210021+9999OA149900411REMSYN076AAXX  15224 06664 33/// /0603 10011 21015 39718 40267 52002 333 91108 91204;
0128066640999992010011523004+47433+008517FM-12+044399999V0200401N000519999999N9999999N1+00091-00161102691ADDMA1999999097191MD1310021+9999OA149900411REMSYN076AAXX  15234 06664 33/// /0401 10009 21016 39719 40269 53002 333 91108 91204;
0128066640999992010011600004+47433+008517FM-12+044399999V0200501N001019999999N9999999N1+00071-00171102661ADDMA1999999097161MD1010011+9999OA149900411REMSYN076AAXX  16004 06664 33/// /0502 10007 21017 39716 40266 50001 333 91108 91204;
0128066640999992010011601004+47433+008517FM-12+044399999V0200401N000519999999N9999999N1+00071-00151102631ADDMA1999999097131MD1710051+9999OA149900261REMSYN076AAXX  16014 06664 33/// /0401 10007 21015 39713 40263 57005 333 91105 91202;
0128066640999992010011602004+47433+008517FM-12+044399999V0200501N000519999999N9999999N1+00051-00131102621ADDMA1999999097121MD1710071+9999OA149900211REMSYN076AAXX  16024 06664 33/// /0501 10005 21013 39712 40262 57007 333 91104 91202;
0128066640999992010011603004+47433+008517FM-12+044399999V0200801N001519999999N9999999N1+00051-00171102581ADDMA1999999097081MD1719999+9999OA149900411REMSYN076AAXX  16034 06664 33/// /0803 10005 21017 39708 40258 57/// 333 91108 91204;
0128066640999992010011604004+47433+008517FM-12+044399999V0200301N001019999999N9999999N1+00011-00181102571ADDMA1999999097061MD1710071+9999OA149900361REMSYN076AAXX  16044 06664 33/// /0302 10001 21018 39706 40257 57007 333 91107 91204;
0128066640999992010011605004+47433+008517FM-12+044399999V0200701N001519999999N9999999N1+00001-00241102511ADDMA1999999097001MD1710121+9999OA149900361REMSYN076AAXX  16054 06664 33/// /0703 10000 21024 39700 40251 57012 333 91107 91204;
0225066640999992010011606004+47433+008517FM-12+044399999V0201201N001019999999N9999999N1-00031-00271102481ADDAA124000091AL19900091GJ100009IA2999+00009KA1999N-00021MA1999999096971MD1710111+9999OA149900411REMSYN100AAXX  16064 06664 33/// /1202 11003 21027 39697 40248 57011 333 21002 3/100 55000 70000 91108 91204;EQDQ01  00002PRCP24
0128066640999992010011607004+47433+008517FM-12+044399999V0201201N001019999999N9999999N1-00051-00301102431ADDMA1999999096921MD1610141+9999OA149900361REMSYN076AAXX  16074 06664 33/// /1202 11005 21030 39692 40243 56014 333 91107 91203;
0128066640999992010011608004+47433+008517FM-12+044399999V0201301N001519999999N9999999N1-00061-00361102381ADDMA1999999096871MD1810131+9999OA149900311REMSYN076AAXX  16084 06664 33/// /1303 11006 21036 39687 40238 58013 333 91106 91203;
0128066640999992010011609004+47433+008517FM-12+044399999V0201201N001019999999N9999999N1-00061-00371102341ADDMA1999999096831MD1710141+9999OA149900361REMSYN076AAXX  16094 06664 33/// /1202 11006 21037 39683 40234 57014 333 91107 91204;
0128066640999992010011610004+47433+008517FM-12+044399999V0200601N001019999999N9999999N1-00051-00351102321ADDMA1999999096811MD1710111+9999OA149900311REMSYN076AAXX  16104 06664 33/// /0602 11005 21035 39681 40232 57011 333 91106 91203;
0128066640999992010011611004+47433+008517FM-12+044399999V0200601N001019999999N9999999N1-00051-00381102231ADDMA1999999096731MD1810141+9999OA149900211REMSYN076AAXX  16114 06664 33/// /0602 11005 21038 39673 40223 58014 333 91104 91202;
0128066640999992010011612004+47433+008517FM-12+044399999V0203001N001519999999N9999999N1+00011-00351102201ADDMA1999999096711MD1710121+9999OA149900361REMSYN076AAXX  16124 06664 33/// /3003 10001 21035 39671 40220 57012 333 91107 91204;
0128066640999992010011613004+47433+008517FM-12+044399999V0202201N002119999999N9999999N1-00021-00291102201ADDMA1999999096711MD1710101+9999OA149900361REMSYN076AAXX  16134 06664 33/// /2204 11002 21029 39671 40220 57010 333 91107 91204;
0128066640999992010011614004+47433+008517FM-12+044399999V0202301N002119999999N9999999N1-00011-00311102101ADDMA1999999096611MD1719999+9999OA149900361REMSYN076AAXX  16144 06664 33/// /2304 11001 21031 39661 40210 57/// 333 91107 91204;
0128066640999992010011615004+47433+008517FM-12+044399999V0201901N001519999999N9999999N1+00001-00301102041ADDMA1999999096561MD1710151+9999OA149900361REMSYN076AAXX  16154 06664 33/// /1903 10000 21030 39656 40204 57015 333 91107 91204;
0128066640999992010011616004+47433+008517FM-12+044399999V0201601N001519999999N9999999N1+00001-00301101981ADDMA1999999096501MD1710211+9999OA149900361REMSYN076AAXX  16164 06664 33/// /1603 10000 21030 39650 40198 57021 333 91107 91204;
0128066640999992010011617004+47433+008517FM-12+044399999V0202501N000519999999N9999999N1-00011-00291102001ADDMA1999999096521MD1710091+9999OA149900261REMSYN076AAXX  16174 06664 33/// /2501 11001 21029 39652 40200 57009 333 91105 91203;
0147066640999992010011618004+47433+008517FM-12+044399999V0209999C000019999999N9999999N1-00071-00301102001ADDKA1120M+00011MA1999999096511MD1710051+9999OA149900361REMSYN082AAXX  16184 06664 33/// /0000 11007 21030 39651 40200 57005 333 10001 91107 91204;
0128066640999992010011619004+47433+008517FM-12+044399999V0201401N000519999999N9999999N1-00101-00271101951ADDMA1999999096451MD1710051+9999OA149900211REMSYN076AAXX  16194 06664 33/// /1401 11010 21027 39645 40195 57005 333 91104 91203;
0128066640999992010011620004+47433+008517FM-12+044399999V0201901N002119999999N9999999N1+00041-00201101841ADDMA1999999096381MD1710141+9999OA149900511REMSYN076AAXX  16204 06664 33/// /1904 10004 21020 39638 40184 57014 333 91110 91206;
0128066640999992010011621004+47433+008517FM-12+044399999V0201901N001519999999N9999999N1+00191-00151101751ADDMA1999999096321MD1710191+9999OA149900511REMSYN076AAXX  16214 06664 33/// /1903 10019 21015 39632 40175 57019 333 91110 91206;
0145066640999992010011622004+47433+008517FM-12+044399999V0202401N003119999999N9999999N1+00231+00031101741ADDAA101002091MA1999999096321MD1710131+9999OA149900671REMSYN082AAXX  16224 06664 23/// /2406 10023 20003 39632 40174 57013 333 60025 91113 91206;
0145066640999992010011623004+47433+008517FM-12+044399999V0201901N002619999999N9999999N1+00251+00121101791ADDAA101002091MA1999999096371MD1510011+9999OA149900671REMSYN082AAXX  16234 06664 23/// /1905 10025 20012 39637 40179 55001 333 60025 91113 91206;
0151066640999992010011700004+47433+008517FM-12+044399999V0202201N004619999999N9999999N1+00351+00161101781ADDAA106004191MA1999999096381MD1210061+9999OA149900821REMSYN088AAXX  17004 06664 03/// /2209 10035 20016 39638 40178 52006 60041 333 69975 91116 91209;
0128066640999992010011701004+47433+008517FM-12+044399999V0201801N002619999999N9999999N1+00301+00121101841ADDMA1999999096431MD1210111+9999OA149900821REMSYN076AAXX  17014 06664 33/// /1805 10030 20012 39643 40184 52011 333 91116 91209;
0128066640999992010011702004+47433+008517FM-12+044399999V0201901N003619999999N9999999N1+00271+00101101751ADDMA1999999096341MD1819999+9999OA149900821REMSYN076AAXX  17024 06664 33/// /1907 10027 20010 39634 40175 58/// 333 91116 91209;
0087066640999992010011703004+47433+008517FM-12+044399999V0202301N003119999999N9999999N1+00331+00121101701ADDMA1999999096301REMSYN060AAXX  17034 06664 43/// /2306 10033 20012 39630 40170 5////;
0145066640999992010011704004+47433+008517FM-12+044399999V0202101N002619999999N9999999N1+00311+00171101731ADDAA101001091MA1999999096331MD1510101+9999OA149900771REMSYN082AAXX  17044 06664 23/// /2105 10031 20017 39633 40173 55010 333 60015 91115 91209;
0145066640999992010011705004+47433+008517FM-12+044399999V0202201N004619999999N9999999N1+00411+00211101651ADDAA101000021MA1999999096271MD1719999+9999OA149900771REMSYN082AAXX  17054 06664 23/// /2209 10041 20021 39627 40165 57/// 333 69915 91115 91209;
0229066640999992010011706004+47433+008517FM-12+044399999V0201801N002119999999N9999999N1+00451+00211101661ADDAA112006192AA224005692AL13000591GJ100009IA2999-00209KA1999N-00111MA1999999096291MD1010011+9999OA149900821REMSYN112AAXX  17064 06664 03/// /1804 10045 20021 39629 40166 50001 60062 333 21011 3/102 55000 60005 70055 91116 91209;
0163066640999992010011707004+47433+008517FM-12+044399999V0202101N003619999999N9999999N1+00451+00181101711ADDMA1999999096331MD1710021+9999OA149900621REMSYN076AAXX  17074 06664 33/// /2107 10045 20018 39633 40171 53000 333 91112 91207;EQDQ01+000032APCTENQ02+000002APC3  
0145066640999992010011708004+47433+008517FM-12+044399999V0202201N004619999999N9999999N1+00451+00261101771ADDAA101000021MA1999999096391MD1219999+9999OA149900771REMSYN082AAXX  17084 06664 23/// /2209 10045 20026 39639 40177 52/// 333 69915 91115 91209;
0128066640999992010011709004+47433+008517FM-12+044399999V0202301N005119999999N9999999N1+00481+00281101851ADDMA1999999096471MD1210181+9999OA149900931REMSYN076AAXX  17094 06664 33/// /2310 10048 20028 39647 40185 52018 333 91118 91210;
0128066640999992010011710004+47433+008517FM-12+044399999V0202501N005719999999N9999999N1+00541+00341101931ADDMA1999999096561MD1210231+9999OA149901241REMSYN076AAXX  17104 06664 33/// /2511 10054 20034 39656 40193 52023 333 91124 91212;
0128066640999992010011711004+47433+008517FM-12+044399999V0202601N005119999999N9999999N1+00691+00331101951ADDMA1999999096611MD1210221+9999OA149901241REMSYN076AAXX  17114 06664 33/// /2610 10069 20033 39661 40195 52022 333 91124 91212;
0170066640999992010011712004+47433+008517FM-12+044399999V0202501N005719999999N9999999N1+00591+00271102041ADDAA106000091MA1999999096671MD1210201+9999OA149901391REMSYN088AAXX  17124 06664 03/// /2511 10059 20027 39667 40204 52020 69911 333 60005 91127 91215;EQDQ01  00002PRCP06
0128066640999992010011713004+47433+008517FM-12+044399999V0202601N003619999999N9999999N1+00571+00251102111ADDMA1999999096741MD1210181+9999OA149901391REMSYN076AAXX  17134 06664 33/// /2607 10057 20025 39674 40211 52018 333 91127 91215;
0128066640999992010011714004+47433+008517FM-12+044399999V0202501N006719999999N9999999N1+00661+00171102171ADDMA1999999096811MD1219999+9999OA149901081REMSYN076AAXX  17144 06664 33/// /2513 10066 20017 39681 40217 52/// 333 91121 91213;
0128066640999992010011715004+47433+008517FM-12+044399999V0202601N003619999999N9999999N1+00591+00141102311ADDMA1999999096931MD1210261+9999OA149901391REMSYN076AAXX  17154 06664 33/// /2607 10059 20014 39693 40231 52026 333 91127 91215;
0128066640999992010011716004+47433+008517FM-12+044399999V0202501N004619999999N9999999N1+00481+00051102461ADDMA1999999097051MD1310311+9999OA149901291REMSYN076AAXX  17164 06664 33/// /2509 10048 20005 39705 40246 53031 333 91125 91213;
0128066640999992010011717004+47433+008517FM-12+044399999V0202301N002119999999N9999999N1+00471+00021102551ADDMA1999999097131MD1110321+9999OA149901291REMSYN076AAXX  17174 06664 33/// /2304 10047 20002 39713 40255 51032 333 91125 91213;
0189066640999992010011718004+47433+008517FM-12+044399999V0202301N001519999999N9999999N1+00471-00011102621ADDAA112000091KA1120M+00691MA1999999097201MD1110271+9999OA149901391REMSYN094AAXX  17184 06664 03/// /2303 10047 21001 39720 40262 51027 69912 333 10069 60005 91127 91215;EQDQ01  00002PRCP12
0128066640999992010011719004+47433+008517FM-12+044399999V0202801N000519999999N9999999N1+00461-00011102671ADDMA1999999097251MD1110201+9999OA149900361REMSYN076AAXX  17194 06664 33/// /2801 10046 21001 39725 40267 51020 333 91107 91205;
0128066640999992010011720004+47433+008517FM-12+044399999V0202501N001519999999N9999999N1+00481-00041102691ADDMA1999999097271MD1110141+9999OA149900411REMSYN076AAXX  17204 06664 33/// /2503 10048 21004 39727 40269 51014 333 91108 91204;
0128066640999992010011721004+47433+008517FM-12+044399999V0202801N001019999999N9999999N1+00391-00021102701ADDMA1999999097261MD1210061+9999OA149901291REMSYN076AAXX  17214 06664 33/// /2802 10039 21002 39726 40270 52006 333 91125 91213;
0128066640999992010011722004+47433+008517FM-12+044399999V0209999C000019999999N9999999N1+00221+00011102761ADDMA1999999097281MD1210031+9999OA149900361REMSYN076AAXX  17224 06664 33/// /0000 10022 20001 39728 40276 52003 333 91107 91203;
0128066640999992010011723004+47433+008517FM-12+044399999V0203001N001019999999N9999999N1+00301-00011102751ADDMA1999999097291MD1210021+9999OA149900211REMSYN076AAXX  17234 06664 33/// /3002 10030 21001 39729 40275 52002 333 91104 91202;
0128066640999992010011800004+47433+008517FM-12+044399999V0201301N000519999999N9999999N1+00181+00011102781ADDMA1999999097291MD1210031+9999OA149901291REMSYN076AAXX  18004 06664 33/// /1301 10018 20001 39729 40278 52003 333 91125 91213;
0128066640999992010011801004+47433+008517FM-12+044399999V0209999C000019999999N9999999N1+00131-00011102791ADDMA1999999097291MD1010011+9999OA149900151REMSYN076AAXX  18014 06664 33/// /0000 10013 21001 39729 40279 50001 333 91103 91202;
0087066640999992010011802004+47433+008517FM-12+044399999V0202701N000519999999N9999999N1+00101-00021102811ADDMA1999999097311REMSYN060AAXX  18024 06664 33/// /2701 10010 21002 39731 40281 5////;
0087066640999992010011803004+47433+008517FM-12+044399999V0202501N000519999999N9999999N1+00041-00021102831ADDMA1999999097311REMSYN060AAXX  18034 06664 33/// /2501 10004 21002 39731 40283 5////;
0128066640999992010011804004+47433+008517FM-12+044399999V0200601N000519999999N9999999N1+00071-00011102821ADDMA1999999097311MD1210021+9999OA149900101REMSYN076AAXX  18044 06664 33/// /0601 10007 21001 39731 40282 52002 333 91102 91201;
0128066640999992010011805004+47433+008517FM-12+044399999V0201101N000519999999N9999999N1+00091-00011102821ADDMA1999999097311MD1010001+9999OA149900151REMSYN076AAXX  18054 06664 33/// /1101 10009 21001 39731 40282 50000 333 91103 91201;
0225066640999992010011806004+47433+008517FM-12+044399999V0203401N000519999999N9999999N1+00111-00031102841ADDAA124000091AL10600091GJ100369IA2999-00209KA1999N+00031MA1999999097341MD1210031+9999OA149900411REMSYN100AAXX  18064 06664 33/// /3401 10011 21003 39734 40284 52003 333 20003 3/102 55006 70001 91108 91204;EQDQ01  00002PRCP24
0128066640999992010011807004+47433+008517FM-12+044399999V0209999C000019999999N9999999N1+00101-00011102881ADDMA1999999097371MD1210061+9999OA149900151REMSYN076AAXX  18074 06664 33/// /0000 10010 21001 39737 40288 52006 333 91103 91202;
0128066640999992010011808004+47433+008517FM-12+044399999V0202001N000519999999N9999999N1+00081-00021102921ADDMA1999999097411MD1219999+9999OA149900151REMSYN076AAXX  18084 06664 33/// /2001 10008 21002 39741 40292 52/// 333 91103 91202;
0128066640999992010011809004+47433+008517FM-12+044399999V0200901N000519999999N9999999N1+00141+00021102941ADDMA1999999097441MD1210101+9999OA149900211REMSYN076AAXX  18094 06664 33/// /0901 10014 20002 39744 40294 52010 333 91104 91202;
