0149066690999992011010100004+47483+008400FM-12+084399999V0201601N002619999999N9999999N1-00111-00141999999ADDMA1999999092201MD1810091+9999ME1314899OA149900411REMSYN088AAXX  01004 06669 43/// /1605 11011 21014 39220 48489 58009 333 55300 20007 91108 91206;
0149066690999992011010101004+47483+008400FM-12+084399999V0201801N002119999999N9999999N1-00121-00151999999ADDMA1999999092151MD1810121+9999ME1314859OA149900311REMSYN088AAXX  01014 06669 43/// /1804 11012 21015 39215 48485 58012 333 55300 20007 91106 91205;
0149066690999992011010102004+47483+008400FM-12+084399999V0201901N003119999999N9999999N1-00161-00181999999ADDMA1999999092131MD1610121+9999ME1314829OA149900361REMSYN088AAXX  01024 06669 43/// /1906 11016 21018 39213 48482 56012 333 55300 20007 91107 91205;
0149066690999992011010103004+47483+008400FM-12+084399999V0201901N003619999999N9999999N1-00161-00191999999ADDMA1999999092101MD1610101+9999ME1314809OA149900461REMSYN088AAXX  01034 06669 43/// /1907 11016 21019 39210 48480 56010 333 55300 20011 91109 91207;
0149066690999992011010104004+47483+008400FM-12+084399999V0202001N003119999999N9999999N1-00181-00211999999ADDMA1999999092081MD1710071+9999ME1314779OA149900511REMSYN088AAXX  01044 06669 43/// /2006 11018 21021 39208 48477 57007 333 55300 20007 91110 91208;
0149066690999992011010105004+47483+008400FM-12+084399999V0201901N004119999999N9999999N1-00181-00211999999ADDMA1999999092101MD1510031+9999ME1314799OA149900511REMSYN088AAXX  01054 06669 43/// /1908 11018 21021 39210 48479 55003 333 55300 20007 91110 91208;
0182066690999992011010106004+47483+008400FM-12+084399999V0202001N006219999999N9999999N1-00231-00261999999ADDGJ100009KA1999N-00221MA1999999092101MD1510001+9999ME1314789OA149900721REMSYN100AAXX  01064 06669 43/// /2012 11023 21026 39210 48478 55000 333 21022 55000 55300 20011 91114 91212;
0149066690999992011010107004+47483+008400FM-12+084399999V0202001N006219999999N9999999N1-00251-00281999999ADDMA1999999092111MD1210031+9999ME1314789OA149900821REMSYN088AAXX  01074 06669 43/// /2012 11025 21028 39211 48478 52003 333 55300 20007 91116 91213;
0149066690999992011010108004+47483+008400FM-12+084399999V0202001N005119999999N9999999N1-00231-00261999999ADDMA1999999092141MD1219999+9999ME1314819OA149900821REMSYN088AAXX  01084 06669 43/// /2010 11023 21026 39214 48481 52/// 333 55300 20022 91116 91213;
0096066690999992011010109004+47483+008400FM-12+084399999V0202001N004619999999N9999999N1-00231-00261999999ADDMA1999999092141ME1314819REMSYN060AAXX  01094 06669 43/// /2009 11023 21026 39214 48481 5////;
0096066690999992011010110004+47483+008400FM-12+084399999V0202001N006219999999N9999999N1-00241-00271999999ADDMA1999999092131ME1314809REMSYN060AAXX  01104 06669 43/// /2012 11024 21027 39213 48480 5////;
0149066690999992011010111004+47483+008400FM-12+084399999V0202001N006219999999N9999999N1-00231-00261999999ADDMA1999999092071MD1810071+9999ME1314759OA149900821REMSYN088AAXX  01114 06669 43/// /2012 11023 21026 39207 48475 58007 333 55300 20234 91116 91212;
0096066690999992011010112004+47483+008400FM-12+084399999V0202001N006719999999N9999999N1-00211-00241999999ADDMA1999999092021ME1314729REMSYN060AAXX  01124 06669 43/// /2013 11021 21024 39202 48472 5////;
0096066690999992011010113004+47483+008400FM-12+084399999V0202001N006719999999N9999999N1-00211-00241999999ADDMA1999999091971ME1314679REMSYN060AAXX  01134 06669 43/// /2013 11021 21024 39197 48467 5////;
0096066690999992011010114004+47483+008400FM-12+084399999V0202001N005719999999N9999999N1-00201-00231999999ADDMA1999999091961ME1314679REMSYN060AAXX  01144 06669 43/// /2011 11020 21023 39196 48467 5////;
0096066690999992011010115004+47483+008400FM-12+084399999V0202101N003119999999N9999999N1-00191-00221999999ADDMA1999999091971ME1314689REMSYN060AAXX  01154 06669 43/// /2106 11019 21022 39197 48468 5////;
0096066690999992011010116004+47483+008400FM-12+084399999V0202801N001519999999N9999999N1-00221-00251999999ADDMA1999999091991ME1314699REMSYN060AAXX  01164 06669 43/// /2803 11022 21025 39199 48469 5////;
0096066690999992011010117004+47483+008400FM-12+084399999V0203001N004119999999N9999999N1-00301-00331999999ADDMA1999999092011ME1314699REMSYN060AAXX  01174 06669 43/// /3008 11030 21033 39201 48469 5////;
0096066690999992011010118004+47483+008400FM-12+084399999V0203101N001019999999N9999999N1-00321-00361999999ADDMA1999999092011ME1314689REMSYN060AAXX  01184 06669 43/// /3102 11032 21036 39201 48468 5////;
0112066690999992011010119004+47483+008400FM-12+084399999V0203101N002119999999N9999999N1-00321-00361999999ADDMA1999999092021ME1314699REMSYN076AAXX  01194 06669 43/// /3104 11032 21036 39202 48469 5//// 333 553// 20007;
0149066690999992011010120004+47483+008400FM-12+084399999V0203301N002119999999N9999999N1-00331-00371999999ADDMA1999999092031MD1210021+9999ME1314709OA149900411REMSYN088AAXX  01204 06669 43/// /3304 11033 21037 39203 48470 52002 333 55300 20007 91108 91205;
0149066690999992011010121004+47483+008400FM-12+084399999V0200101N002619999999N9999999N1-00341-00381999999ADDMA1999999092011MD1010001+9999ME1314689OA149900621REMSYN088AAXX  01214 06669 43/// /0105 11034 21038 39201 48468 50000 333 55300 20007 91112 91208;
0149066690999992011010122004+47483+008400FM-12+084399999V0203401N003119999999N9999999N1-00341-00381999999ADDMA1999999091981MD1710041+9999ME1314659OA149900461REMSYN088AAXX  01224 06669 43/// /3406 11034 21038 39198 48465 57004 333 55300 20007 91109 91206;
0149066690999992011010123004+47483+008400FM-12+084399999V0203601N002619999999N9999999N1-00341-00381999999ADDMA1999999091951MD1810081+9999ME1314639OA149900461REMSYN088AAXX  01234 06669 43/// /3605 11034 21038 39195 48463 58008 333 55300 20011 91109 91206;
0149066690999992011010200004+47483+008400FM-12+084399999V0203301N002619999999N9999999N1-00341-00381999999ADDMA1999999091911MD1610101+9999ME1314599OA149900931REMSYN088AAXX  02004 06669 43/// /3305 11034 21038 39191 48459 56010 333 55300 20011 91118 91214;
0149066690999992011010201004+47483+008400FM-12+084399999V0200201N001519999999N9999999N1-00351-00391999999ADDMA1999999091871MD1810111+9999ME1314569OA149900361REMSYN088AAXX  02014 06669 43/// /0203 11035 21039 39187 48456 58011 333 55300 20011 91107 91205;
0096066690999992011010202004+47483+008400FM-12+084399999V0203301N001519999999N9999999N1-00351-00391999999ADDMA1999999091891ME1314579REMSYN060AAXX  02024 06669 43/// /3303 11035 21039 39189 48457 5////;
0096066690999992011010203004+47483+008400FM-12+084399999V0203501N001519999999N9999999N1-00361-00401999999ADDMA1999999091911ME1314599REMSYN060AAXX  02034 06669 43/// /3503 11036 21040 39191 48459 5////;
0096066690999992011010204004+47483+008400FM-12+084399999V0200201N001019999999N9999999N1-00361-00401999999ADDMA1999999091921ME1314609REMSYN060AAXX  02044 06669 43/// /0202 11036 21040 39192 48460 5////;
0096066690999992011010205004+47483+008400FM-12+084399999V0201301N000519999999N9999999N1-00351-00391999999ADDMA1999999091931ME1314619REMSYN060AAXX  02054 06669 43/// /1301 11035 21039 39193 48461 5////;
0125066690999992011010206004+47483+008400FM-12+084399999V0203301N001519999999N9999999N1-00351-00391999999ADDKA1999N-00361MA1999999091941ME1314619REMSYN076AAXX  02064 06669 43/// /3303 11035 21039 39194 48461 5//// 333 21036 55000;
0149066690999992011010207004+47483+008400FM-12+084399999V0203401N002619999999N9999999N1-00321-00361999999ADDMA1999999091961MD1310041+9999ME1314649OA149900411REMSYN088AAXX  02074 06669 43/// /3405 11032 21036 39196 48464 53004 333 55300 20011 91108 91206;
0149066690999992011010208004+47483+008400FM-12+084399999V0203501N004619999999N9999999N1-00321-00361999999ADDMA1999999092001MD1310071+9999ME1314679OA149900621REMSYN088AAXX  02084 06669 43/// /3509 11032 21036 39200 48467 53007 333 55300 20014 91112 91209;
0149066690999992011010209004+47483+008400FM-12+084399999V0209999C005719999999N9999999N1-00311-00351999999ADDMA1999999092041MD1310101+9999ME1314719OA149900771REMSYN088AAXX  02094 06669 43/// /0011 11031 21035 39204 48471 53010 333 55300 20047 91115 91211;
0149066690999992011010210004+47483+008400FM-12+084399999V0209999C006219999999N9999999N1-00311-00351999999ADDMA1999999092061MD1110101+9999ME1314739OA149900881REMSYN088AAXX  02104 06669 43/// /0012 11031 21035 39206 48473 51010 333 55300 20122 91117 91212;
0149066690999992011010211004+47483+008400FM-12+084399999V0200101N005119999999N9999999N1-00311-00351999999ADDMA1999999092071MD1110071+9999ME1314739OA149900881REMSYN088AAXX  02114 06669 43/// /0110 11031 21035 39207 48473 51007 333 55300 20252 91117 91212;
0168066690999992011010212004+47483+008400FM-12+084399999V0200101N005719999999N9999999N1-00301-00341999999ADDMA1999999092041MD1410001+9999ME1314719OA149900881REMSYN088AAXX  02124 06669 43/// /0111 11030 21034 39204 48471 58000 333 55300 20284 91117 91212;EQDQ01+000082APCTEN
0149066690999992011010213004+47483+008400FM-12+084399999V0200101N006219999999N9999999N1-00331-00371999999ADDMA1999999092041MD1710021+9999ME1314709OA149900881REMSYN088AAXX  02134 06669 43/// /0112 11033 21037 39204 48470 57002 333 55300 20490 91117 91212;
0112066690999992011010214004+47483+008400FM-12+084399999V0203601N004619999999N9999999N1-00371-00411999999ADDMA1999999092071ME1314729REMSYN076AAXX  02144 06669 43/// /3609 11037 21041 39207 48472 5//// 333 553// 20554;
0149066690999992011010215004+47483+008400FM-12+084399999V0209999C004119999999N9999999N1-00371-00411999999ADDMA1999999092111MD1210071+9999ME1314759OA149900881REMSYN088AAXX  02154 06669 43/// /0008 11037 21041 39211 48475 52007 333 55300 20256 91117 91212;
0149066690999992011010216004+47483+008400FM-12+084399999V0203601N004119999999N9999999N1-00371-00411999999ADDMA1999999092141MD1310101+9999ME1314789OA149900721REMSYN088AAXX  02164 06669 43/// /3608 11037 21041 39214 48478 53010 333 55300 20050 91114 91209;
0149066690999992011010217004+47483+008400FM-12+084399999V0200101N005119999999N9999999N1-00411-00451999999ADDMA1999999092171MD1110101+9999ME1314799OA149900771REMSYN088AAXX  02174 06669 43/// /0110 11041 21045 39217 48479 51010 333 55300 20011 91115 91210;
0168066690999992011010218004+47483+008400FM-12+084399999V0200201N006719999999N9999999N1-00431-00471999999ADDKA1120M-00301MA1999999092181MD1210071+9999ME1314809OA149900881REMSYN094AAXX  02184 06669 43/// /0213 11043 21047 39218 48480 52007 333 11030 55300 20011 91117 91213;
0149066690999992011010219004+47483+008400FM-12+084399999V0200201N007219999999N9999999N1-00461-00501999999ADDMA1999999092201MD1210061+9999ME1314819OA149900881REMSYN088AAXX  02194 06669 43/// /0214 11046 21050 39220 48481 52006 333 55300 20011 91117 91214;
0149066690999992011010220004+47483+008400FM-12+084399999V0200201N007219999999N9999999N1-00501-00551999999ADDMA1999999092211MD1210041+9999ME1314819OA149900931REMSYN088AAXX  02204 06669 43/// /0214 11050 21055 39221 48481 52004 333 55300 20011 91118 91214;
0149066690999992011010221004+47483+008400FM-12+084399999V0200201N007719999999N9999999N1-00521-00571999999ADDMA1999999092241MD1110061+9999ME1314839OA149900931REMSYN088AAXX  02214 06669 43/// /0215 11052 21057 39224 48483 51006 333 55300 20011 91118 91215;
0149066690999992011010222004+47483+008400FM-12+084399999V0200201N007719999999N9999999N1-00561-00611999999ADDMA1999999092261MD1210061+9999ME1314839OA149900931REMSYN088AAXX  02224 06669 43/// /0215 11056 21061 39226 48483 52006 333 55300 20011 91118 91215;
0149066690999992011010223004+47483+008400FM-12+084399999V0200201N007219999999N9999999N1-00581-00631999999ADDMA1999999092261MD1210051+9999ME1314839OA149900931REMSYN088AAXX  02234 06669 43/// /0214 11058 21063 39226 48483 52005 333 55300 20011 91118 91215;
0149066690999992011010300004+47483+008400FM-12+084399999V0200301N007219999999N9999999N1-00591-00641999999ADDMA1999999092251MD1010011+9999ME1314829OA149900931REMSYN088AAXX  03004 06669 43/// /0314 11059 21064 39225 48482 50001 333 55300 20011 91118 91215;
0149066690999992011010301004+47483+008400FM-12+084399999V0200601N005119999999N9999999N1-00571-00621999999ADDMA1999999092231MD1710031+9999ME1314819OA149900821REMSYN088AAXX  03014 06669 43/// /0610 11057 21062 39223 48481 57003 333 55300 20011 91116 91214;
0149066690999992011010302004+47483+008400FM-12+084399999V0200801N004619999999N9999999N1-00581-00631999999ADDMA1999999092231MD1619999+9999ME1314809OA149900821REMSYN088AAXX  03024 06669 43/// /0809 11058 21063 39223 48480 56/// 333 55300 20007 91116 91213;
0096066690999992011010303004+47483+008400FM-12+084399999V0200501N003119999999N9999999N1-00591-00641999999ADDMA1999999092231ME1314809REMSYN060AAXX  03034 06669 43/// /0506 11059 21064 39223 48480 5////;
0149066690999992011010304004+47483+008400FM-12+084399999V0200401N003119999999N9999999N1-00591-00641999999ADDMA1999999092241MD1310011+9999ME1314819OA149900671REMSYN088AAXX  03044 06669 43/// /0406 11059 21064 39224 48481 53001 333 55300 20011 91113 91210;
0149066690999992011010305004+47483+008400FM-12+084399999V0200401N004119999999N9999999N1-00581-00631999999ADDMA1999999092231MD1010001+9999ME1314809OA149900571REMSYN088AAXX  03054 06669 43/// /0408 11058 21063 39223 48480 50000 333 55300 20011 91111 91208;
0182066690999992011010306004+47483+008400FM-12+084399999V0200501N005119999999N9999999N1-00581-00631999999ADDGJ100009KA1999N-00591MA1999999092221MD1710011+9999ME1314809OA149900931REMSYN100AAXX  03064 06669 43/// /0510 11058 21063 39222 48480 57001 333 21059 55000 55300 20007 91118 91215;
0149066690999992011010307004+47483+008400FM-12+084399999V0200401N005119999999N9999999N1-00631-00701999999ADDMA1999999092211MD1710031+9999ME1314779OA149900621REMSYN088AAXX  03074 06669 43/// /0410 11063 21070 39221 48477 57003 333 55300 20014 91112 91210;
0149066690999992011010308004+47483+008400FM-12+084399999V0200401N005119999999N9999999N1-00611-00681999999ADDMA1999999092241MD1319999+9999ME1314809OA149900671REMSYN088AAXX  03084 06669 43/// /0410 11061 21068 39224 48480 53/// 333 55303 20076 91113 91211;
0112066690999992011010309004+47483+008400FM-12+084399999V0200401N006719999999N9999999N1-00641-00711999999ADDMA1999999092221ME1314789REMSYN076AAXX  03094 06669 43/// /0413 11064 21071 39222 48478 5//// 333 553// 20479;
0149066690999992011010310004+47483+008400FM-12+084399999V0200401N006719999999N9999999N1-00651-00721999999ADDMA1999999092231MD1210021+9999ME1314799OA149900821REMSYN088AAXX  03104 06669 43/// /0413 11065 21072 39223 48479 52002 333 553// 20943 91116 91213;
0149066690999992011010311004+47483+008400FM-12+084399999V0200401N007719999999N9999999N1-00651-00721999999ADDMA1999999092201MD1710041+9999ME1314769OA149901031REMSYN088AAXX  03114 06669 43/// /0415 11065 21072 39220 48476 57004 333 553// 2//// 91120 91215;
0149066690999992011010312004+47483+008400FM-12+084399999V0200201N005119999999N9999999N1-00651-00721999999ADDMA1999999092151MD1710071+9999ME1314729OA149901031REMSYN088AAXX  03124 06669 43/// /0210 11065 21072 39215 48472 57007 333 55304 2//// 91120 91215;
0149066690999992011010313004+47483+008400FM-12+084399999V0200201N005719999999N9999999N1-00621-00681999999ADDMA1999999092131MD1610101+9999ME1314719OA149900881REMSYN088AAXX  03134 06669 43/// /0211 11062 21068 39213 48471 56010 333 55302 2//// 91117 91213;
0112066690999992011010314004+47483+008400FM-12+084399999V0200401N005719999999N9999999N1-00561-00611999999ADDMA1999999092141ME1314739REMSYN076AAXX  03144 06669 43/// /0411 11056 21061 39214 48473 5//// 333 553// 20814;
0112066690999992011010315004+47483+008400FM-12+084399999V0200201N005119999999N9999999N1-00541-00591999999ADDMA1999999092121ME1314729REMSYN076AAXX  03154 06669 43/// /0210 11054 21059 39212 48472 5//// 333 553// 20490;
0149066690999992011010316004+47483+008400FM-12+084399999V0200301N004619999999N9999999N1-00551-00601999999ADDMA1999999092111MD1810021+9999ME1314719OA149900721REMSYN088AAXX  03164 06669 43/// /0309 11055 21060 39211 48471 58002 333 55303 20097 91114 91211;
0149066690999992011010317004+47483+008400FM-12+084399999V0200401N005719999999N9999999N1-00541-00591999999ADDMA1999999092091MD1810051+9999ME1314709OA149900671REMSYN088AAXX  03174 06669 43/// /0411 11054 21059 39209 48470 58005 333 55300 20007 91113 91211;
0168066690999992011010318004+47483+008400FM-12+084399999V0200501N005719999999N9999999N1-00541-00591999999ADDKA1120M-00531MA1999999092081MD1610041+9999ME1314699OA149901031REMSYN094AAXX  03184 06669 43/// /0511 11054 21059 39208 48469 56004 333 11053 55300 20011 91120 91215;
0149066690999992011010319004+47483+008400FM-12+084399999V0200501N004619999999N9999999N1-00561-00611999999ADDMA1999999092071MD1710041+9999ME1314679OA149900771REMSYN088AAXX  03194 06669 43/// /0509 11056 21061 39207 48467 57004 333 55300 20007 91115 91212;
0149066690999992011010320004+47483+008400FM-12+084399999V0200501N003119999999N9999999N1-00581-00631999999ADDMA1999999092041MD1710051+9999ME1314649OA149900771REMSYN088AAXX  03204 06669 43/// /0506 11058 21063 39204 48464 57005 333 55300 20007 91115 91210;
0149066690999992011010321004+47483+008400FM-12+084399999V0200401N003619999999N9999999N1-00621-00691999999ADDMA1999999092021MD1710061+9999ME1314629OA149900771REMSYN088AAXX  03214 06669 43/// /0407 11062 21069 39202 48462 57006 333 55300 20007 91115 91212;
0149066690999992011010322004+47483+008400FM-12+084399999V0200301N004119999999N9999999N1-00631-00701999999ADDMA1999999092001MD1710071+9999ME1314609OA149900571REMSYN088AAXX  03224 06669 43/// /0308 11063 21070 39200 48460 57007 333 55300 20007 91111 91208;
0149066690999992011010323004+47483+008400FM-12+084399999V0200401N004119999999N9999999N1-00681-00751999999ADDMA1999999091991MD1610051+9999ME1314589OA149900721REMSYN088AAXX  03234 06669 43/// /0408 11068 21075 39199 48458 56005 333 55300 20011 91114 91209;
0149066690999992011010400004+47483+008400FM-12+084399999V0200501N001019999999N9999999N1-00691-00761999999ADDMA1999999092001MD1710021+9999ME1314599OA149900771REMSYN088AAXX  04004 06669 43/// /0502 11069 21076 39200 48459 57002 333 55300 20007 91115 91212;
0149066690999992011010401004+47483+008400FM-12+084399999V0200501N002119999999N9999999N1-00711-00781999999ADDMA1999999091971MD1710031+9999ME1314569OA149900571REMSYN088AAXX  04014 06669 43/// /0504 11071 21078 39197 48456 57003 333 55300 20011 91111 91207;
0149066690999992011010402004+47483+008400FM-12+084399999V0200801N001519999999N9999999N1-00711-00781999999ADDMA1999999091941MD1719999+9999ME1314539OA149900411REMSYN088AAXX  04024 06669 43/// /0803 11071 21078 39194 48453 57/// 333 55300 20011 91108 91205;
0149066690999992011010403004+47483+008400FM-12+084399999V0201201N002119999999N9999999N1-00741-00811999999ADDMA1999999091931MD1710071+9999ME1314519OA149900721REMSYN088AAXX  04034 06669 43/// /1204 11074 21081 39193 48451 57007 333 55300 20011 91114 91209;
0149066690999992011010404004+47483+008400FM-12+084399999V0201401N002119999999N9999999N1-00731-00801999999ADDMA1999999091881MD1710091+9999ME1314489OA149900311REMSYN088AAXX  04044 06669 43/// /1404 11073 21080 39188 48448 57009 333 55300 20011 91106 91204;
0149066690999992011010405004+47483+008400FM-12+084399999V0201301N002619999999N9999999N1-00751-00831999999ADDMA1999999091841MD1810101+9999ME1314449OA149900411REMSYN088AAXX  04054 06669 43/// /1305 11075 21083 39184 48444 58010 333 55300 20011 91108 91206;
0182066690999992011010406004+47483+008400FM-12+084399999V0201301N002619999999N9999999N1-00731-00801999999ADDGJ103669KA1999N-00751MA1999999091801MD1810131+9999ME1314419OA149900771REMSYN100AAXX  04064 06669 43/// /1305 11073 21080 39180 48441 58013 333 21075 55061 55300 20011 91115 91210;
0149066690999992011010407004+47483+008400FM-12+084399999V0201301N001519999999N9999999N1-00721-00791999999ADDMA1999999091781MD1710101+9999ME1314399OA149900411REMSYN088AAXX  04074 06669 43/// /1303 11072 21079 39178 48439 57010 333 55300 20007 91108 91205;
0149066690999992011010408004+47483+008400FM-12+084399999V0209999C000019999999N9999999N1-00741-00811999999ADDMA1999999091801MD1719999+9999ME1314419OA149900411REMSYN088AAXX  04084 06669 43/// /0000 11074 21081 39180 48441 57/// 333 55300 20025 91108 91205;
0112066690999992011010409004+47483+008400FM-12+084399999V0201201N001519999999N9999999N1-00701-00771999999ADDMA1999999091791ME1314419REMSYN076AAXX  04094 06669 43/// /1203 11070 21077 39179 48441 5//// 333 553// 20094;
0149066690999992011010410004+47483+008400FM-12+084399999V0201401N001019999999N9999999N1-00641-00711999999ADDMA1999999091831MD1210051+9999ME1314459OA149900261REMSYN088AAXX  04104 06669 43/// /1402 11064 21071 39183 48445 52005 333 55300 20338 91105 91204;
0149066690999992011010411004+47483+008400FM-12+084399999V0201601N003119999999N9999999N1-00591-00641999999ADDMA1999999091771MD1710031+9999ME1314429OA149900461REMSYN088AAXX  04114 06669 43/// /1606 11059 21064 39177 48442 57003 333 55300 20554 91109 91206;
0149066690999992011010412004+47483+008400FM-12+084399999V0201801N001519999999N9999999N1-00571-00621999999ADDMA1999999091711MD1810081+9999ME1314379OA149900461REMSYN088AAXX  04124 06669 43/// /1803 11057 21062 39171 48437 58008 333 55300 20518 91109 91206;
0149066690999992011010413004+47483+008400FM-12+084399999V0201701N001519999999N9999999N1-00591-00641999999ADDMA1999999091671MD1710161+9999ME1314339OA149900461REMSYN088AAXX  04134 06669 43/// /1703 11059 21064 39167 48433 57016 333 55300 20382 91109 91205;
0112066690999992011010414004+47483+008400FM-12+084399999V0202001N001519999999N9999999N1-00551-00601999999ADDMA1999999091651ME1314329REMSYN076AAXX  04144 06669 43/// /2003 11055 21060 39165 48432 5//// 333 553// 20490;
0096066690999992011010415004+47483+008400FM-12+084399999V0201701N002619999999N9999999N1-00561-00611999999ADDMA1999999091631ME1314309REMSYN060AAXX  04154 06669 43/// /1705 11056 21061 39163 48430 5////;
0149066690999992011010416004+47483+008400FM-12+084399999V0202101N001519999999N9999999N1-00591-00641999999ADDMA1999999091611MD1710061+9999ME1314289OA149900361REMSYN088AAXX  04164 06669 43/// /2103 11059 21064 39161 48428 57006 333 55300 20040 91107 91205;
0149066690999992011010417004+47483+008400FM-12+084399999V0202001N002119999999N9999999N1-00581-00631999999ADDMA1999999091601MD1710051+9999ME1314279OA149900361REMSYN088AAXX  04174 06669 43/// /2004 11058 21063 39160 48427 57005 333 55300 20011 91107 91205;
0168066690999992011010418004+47483+008400FM-12+084399999V0202201N002619999999N9999999N1-00571-00621999999ADDKA1120M-00531MA1999999091621MD1510011+9999ME1314299OA149900461REMSYN094AAXX  04184 06669 43/// /2205 11057 21062 39162 48429 55001 333 11053 55300 20011 91109 91206;
0149066690999992011010419004+47483+008400FM-12+084399999V0202301N003119999999N9999999N1-00561-00611999999ADDMA1999999091641MD1210031+9999ME1314319OA149900461REMSYN088AAXX  04194 06669 43/// /2306 11056 21061 39164 48431 52003 333 55300 20011 91109 91206;
0149066690999992011010420004+47483+008400FM-12+084399999V0202801N002619999999N9999999N1-00591-00641999999ADDMA1999999091611MD1010011+9999ME1314289OA149900461REMSYN088AAXX  04204 06669 43/// /2805 11059 21064 39161 48428 50001 333 55300 20011 91109 91206;
0149066690999992011010421004+47483+008400FM-12+084399999V0203001N003619999999N9999999N1-00651-00721999999ADDMA1999999091591MD1710031+9999ME1314259OA149900571REMSYN088AAXX  04214 06669 43/// /3007 11065 21072 39159 48425 57003 333 55300 20011 91111 91207;
0149066690999992011010422004+47483+008400FM-12+084399999V0202801N002619999999N9999999N1-00661-00731999999ADDMA1999999091591MD1710051+9999ME1314259OA149900571REMSYN088AAXX  04224 06669 43/// /2805 11066 21073 39159 48425 57005 333 55300 20011 91111 91207;
0149066690999992011010423004+47483+008400FM-12+084399999V0201601N001519999999N9999999N1-00631-00701999999ADDMA1999999091581MD1710031+9999ME1314259OA149900511REMSYN088AAXX  04234 06669 43/// /1603 11063 21070 39158 48425 57003 333 55300 20007 91110 91207;
0149066690999992011010500004+47483+008400FM-12+084399999V0202101N002119999999N9999999N1-00601-00661999999ADDMA1999999091561MD1710031+9999ME1314249OA149900571REMSYN088AAXX  05004 06669 43/// /2104 11060 21066 39156 48424 57003 333 55300 20007 91111 91207;
0149066690999992011010501004+47483+008400FM-12+084399999V0202001N003119999999N9999999N1-00591-00641999999ADDMA1999999091551MD1710041+9999ME1314239OA149900461REMSYN088AAXX  05014 06669 43/// /2006 11059 21064 39155 48423 57004 333 55300 20011 91109 91206;
0149066690999992011010502004+47483+008400FM-12+084399999V0201901N005119999999N9999999N1-00591-00641999999ADDMA1999999091531MD1710051+9999ME1314219OA149900621REMSYN088AAXX  05024 06669 43/// /1910 11059 21064 39153 48421 57005 333 55300 20011 91112 91210;
0096066690999992011010503004+47483+008400FM-12+084399999V0202001N004119999999N9999999N1-00561-00611999999ADDMA1999999091541ME1314239REMSYN060AAXX  05034 06669 43/// /2008 11056 21061 39154 48423 5////;
0149066690999992011010504004+47483+008400FM-12+084399999V0201901N004119999999N9999999N1-00541-00591999999ADDMA1999999091511MD1710041+9999ME1314219OA149900571REMSYN088AAXX  05044 06669 43/// /1908 11054 21059 39151 48421 57004 333 55300 20007 91111 91209;
0149066690999992011010505004+47483+008400FM-12+084399999V0201801N004119999999N9999999N1-00531-00581999999ADDMA1999999091481MD1710051+9999ME1314189OA149900511REMSYN088AAXX  05054 06669 43/// /1808 11053 21058 39148 48418 57005 333 55300 20007 91110 91209;
0182066690999992011010506004+47483+008400FM-12+084399999V0201801N004119999999N9999999N1-00511-00561999999ADDGJ100069KA1999N-00661MA1999999091491MD1510051+9999ME1314209OA149900621REMSYN100AAXX  05064 06669 43/// /1808 11051 21056 39149 48420 55005 333 21066 55001 55300 20007 91112 91210;
0149066690999992011010507004+47483+008400FM-12+084399999V0201601N004619999999N9999999N1-00501-00551999999ADDMA1999999091481MD1710031+9999ME1314199OA149900511REMSYN088AAXX  05074 06669 43/// /1609 11050 21055 39148 48419 57003 333 55300 20011 91110 91209;
0149066690999992011010508004+47483+008400FM-12+084399999V0201701N005119999999N9999999N1-00531-00581999999ADDMA1999999091501MD1219999+9999ME1314209OA149900511REMSYN088AAXX  05084 06669 43/// /1710 11053 21058 39150 48420 52/// 333 55303 20072 91110 91210;
0149066690999992011010509004+47483+008400FM-12+084399999V0201701N004119999999N9999999N1-00491-00541999999ADDMA1999999091491MD1010001+9999ME1314209OA149900511REMSYN088AAXX  05094 06669 43/// /1708 11049 21054 39149 48420 50000 333 553// 20450 91110 91210;
0149066690999992011010510004+47483+008400FM-12+084399999V0201801N003619999999N9999999N1-00381-00421999999ADDMA1999999091471MD1810011+9999ME1314219OA149900511REMSYN088AAXX  05104 06669 43/// /1807 11038 21042 39147 48421 58001 333 553// 20896 91110 91209;
0149066690999992011010511004+47483+008400FM-12+084399999V0201701N004119999999N9999999N1-00341-00381999999ADDMA1999999091431MD1710071+9999ME1314189OA149900621REMSYN088AAXX  05114 06669 43/// /1708 11034 21038 39143 48418 57007 333 553// 2//// 91112 91209;
0112066690999992011010512004+47483+008400FM-12+084399999V0201701N006219999999N9999999N1-00281-00321999999ADDMA1999999091341ME1314129REMSYN076AAXX  05124 06669 43/// /1712 11028 21032 39134 48412 5//// 333 553// 2////;
0149066690999992011010513004+47483+008400FM-12+084399999V0201801N005719999999N9999999N1-00231-00271999999ADDMA1999999091321MD1610151+9999ME1314119OA149900821REMSYN088AAXX  05134 06669 43/// /1811 11023 21027 39132 48411 56015 333 553// 2//// 91116 91212;
0096066690999992011010514004+47483+008400FM-12+084399999V0201801N006219999999N9999999N1-00241-00281999999ADDMA1999999091311ME1314109REMSYN060AAXX  05144 06669 43/// /1812 11024 21028 39131 48410 5////;
0096066690999992011010515004+47483+008400FM-12+084399999V0201701N006219999999N9999999N1-00261-00301999999ADDMA1999999091271ME1314069REMSYN060AAXX  05154 06669 43/// /1712 11026 21030 39127 48406 5////;
0149066690999992011010516004+47483+008400FM-12+084399999V0201701N004619999999N9999999N1-00291-00331999999ADDMA1999999091251MD1810071+9999ME1314049OA149900931REMSYN088AAXX  05164 06669 43/// /1709 11029 21033 39125 48404 58007 333 55304 20108 91118 91213;
0149066690999992011010517004+47483+008400FM-12+084399999V0201801N007219999999N9999999N1-00281-00321999999ADDMA1999999091251MD1710061+9999ME1314049OA149900821REMSYN088AAXX  05174 06669 43/// /1814 11028 21032 39125 48404 57006 333 55300 20007 91116 91214;
0168066690999992011010518004+47483+008400FM-12+084399999V0201901N006219999999N9999999N1-00251-00301999999ADDKA1120M-00231MA1999999091251MD1819999+9999ME1314059OA149901031REMSYN094AAXX  05184 06669 43/// /1912 11025 21030 39125 48405 58/// 333 11023 55300 20007 91120 91215;
0149066690999992011010519004+47483+008400FM-12+084399999V0201901N007219999999N9999999N1-00211-00281999999ADDMA1999999091221MD1710031+9999ME1314039OA149901031REMSYN088AAXX  05194 06669 43/// /1914 11021 21028 39122 48403 57003 333 55300 20007 91120 91216;
0149066690999992011010520004+47483+008400FM-12+084399999V0201801N007719999999N9999999N1-00191-00301999999ADDMA1999999091161MD1719999+9999ME1313989OA149901031REMSYN088AAXX  05204 06669 43/// /1815 11019 21030 39116 48398 57/// 333 55300 20007 91120 91216;
0112066690999992011010521004+47483+008400FM-12+084399999V0201901N008219999999N9999999N1-00121-00291999999ADDMA1999999091141ME1313989REMSYN076AAXX  05214 06669 43/// /1916 11012 21029 39114 48398 5//// 333 553// 20007;
0149066690999992011010522004+47483+008400FM-12+084399999V0202001N007719999999N9999999N1-00081-00291999999ADDMA1999999091131MD1710091+9999ME1313989OA149901131REMSYN088AAXX  05224 06669 43/// /2015 11008 21029 39113 48398 57009 333 55300 20007 91122 91217;
0149066690999992011010523004+47483+008400FM-12+084399999V0201901N007719999999N9999999N1-00041-00331999999ADDMA1999999091091MD1719999+9999ME1313969OA149901081REMSYN088AAXX  05234 06669 43/// /1915 11004 21033 39109 48396 57/// 333 55300 20007 91121 91215;
0096066690999992011010600004+47483+008400FM-12+084399999V0201901N006719999999N9999999N1+00021-00351999999ADDMA1999999091071ME1313959REMSYN060AAXX  06004 06669 43/// /1913 10002 21035 39107 48395 5////;
0096066690999992011010601004+47483+008400FM-12+084399999V0201801N008719999999N9999999N1+00061-00351999999ADDMA1999999090981ME1313889REMSYN060AAXX  06014 06669 43/// /1817 10006 21035 39098 48388 5////;
0096066690999992011010602004+47483+008400FM-12+084399999V0201901N007719999999N9999999N1+00081-00381999999ADDMA1999999090981ME1313889REMSYN060AAXX  06024 06669 43/// /1915 10008 21038 39098 48388 5////;
0096066690999992011010603004+47483+008400FM-12+084399999V0201901N007719999999N9999999N1+00101-00381999999ADDMA1999999090971ME1313889REMSYN060AAXX  06034 06669 43/// /1915 10010 21038 39097 48388 5////;
0096066690999992011010604004+47483+008400FM-12+084399999V0201901N008719999999N9999999N1+00041-00311999999ADDMA1999999090941ME1313849REMSYN060AAXX  06044 06669 43/// /1917 10004 21031 39094 48384 5////;
0096066690999992011010605004+47483+008400FM-12+084399999V0201901N011319999999N9999999N1+00071-00051999999ADDMA1999999090891ME1313809REMSYN060AAXX  06054 06669 43/// /1922 10007 21005 39089 48380 5////;
0125066690999992011010606004+47483+008400FM-12+084399999V0201901N011819999999N9999999N1+00111+00031999999ADDKA1999N-00261MA1999999090901ME1313829REMSYN076AAXX  06064 06669 43/// /1923 10011 20003 39090 48382 5//// 333 21026 55076;
0096066690999992011010607004+47483+008400FM-12+084399999V0201901N009819999999N9999999N1+00181+00081999999ADDMA1999999090941ME1313879REMSYN060AAXX  06074 06669 43/// /1919 10018 20008 39094 48387 5////;
0112066690999992011010608004+47483+008400FM-12+084399999V0202001N008719999999N9999999N1+00231+00081999999ADDMA1999999090971ME1313919REMSYN076AAXX  06084 06669 43/// /2017 10023 20008 39097 48391 5//// 333 553// 20025;
0096066690999992011010609004+47483+008400FM-12+084399999V0202001N009819999999N9999999N1+00191+00051999999ADDMA1999999090981ME1313919REMSYN060AAXX  06094 06669 43/// /2019 10019 20005 39098 48391 5////;
0149066690999992011010610004+47483+008400FM-12+084399999V0201901N009319999999N9999999N1+00251+00101999999ADDMA1999999090981MD1210041+9999ME1313929OA149901701REMSYN088AAXX  06104 06669 43/// /1918 10025 20010 39098 48392 52004 333 55300 20475 91133 91220;
0149066690999992011010611004+47483+008400FM-12+084399999V0201901N008719999999N9999999N1+00371+00191999999ADDMA1999999090981MD1210011+9999ME1313949OA149901701REMSYN088AAXX  06114 06669 43/// /1917 10037 20019 39098 48394 52001 333 55302 20522 91133 91220;
0149066690999992011010612004+47483+008400FM-12+084399999V0202001N008219999999N9999999N1+00341+00221999999ADDMA1999999090951MD1710031+9999ME1313919OA149901901REMSYN088AAXX  06124 06669 43/// /2016 10034 20022 39095 48391 57003 333 55300 20140 91137 91225;
0149066690999992011010613004+47483+008400FM-12+084399999V0201901N008719999999N9999999N1+00381+00241999999ADDMA1999999090911MD1710071+9999ME1313889OA149901751REMSYN088AAXX  06134 06669 43/// /1917 10038 20024 39091 48388 57007 333 55300 20151 91134 91219;
0096066690999992011010614004+47483+008400FM-12+084399999V0202001N009819999999N9999999N1+00411+00251999999ADDMA1999999090921ME1313909REMSYN060AAXX  06144 06669 43/// /2019 10041 20025 39092 48390 5////;
0096066690999992011010615004+47483+008400FM-12+084399999V0202001N010319999999N9999999N1+00461+00271999999ADDMA1999999090951ME1313949REMSYN060AAXX  06154 06669 43/// /2020 10046 20027 39095 48394 5////;
0149066690999992011010616004+47483+008400FM-12+084399999V0201901N009819999999N9999999N1+00441+00301999999ADDMA1999999090951MD1210041+9999ME1313939OA149901901REMSYN088AAXX  06164 06669 43/// /1919 10044 20030 39095 48393 52004 333 55300 20014 91137 91220;
0149066690999992011010617004+47483+008400FM-12+084399999V0201901N010819999999N9999999N1+00431+00361999999ADDMA1999999091001MD1210081+9999ME1313979OA149902061REMSYN088AAXX  06174 06669 43/// /1921 10043 20036 39100 48397 52008 333 55300 20007 91140 91221;
0168066690999992011010618004+47483+008400FM-12+084399999V0201901N010819999999N9999999N1+00471+00431999999ADDKA1120M+00461MA1999999091011MD1210061+9999ME1313999OA149902061REMSYN094AAXX  06184 06669 43/// /1921 10047 20043 39101 48399 52006 333 10046 55300 20007 91140 91222;
0149066690999992011010619004+47483+008400FM-12+084399999V0201901N009819999999N9999999N1+00441+00401999999ADDMA1999999091071MD1210121+9999ME1314049OA149901961REMSYN088AAXX  06194 06669 43/// /1919 10044 20040 39107 48404 52012 333 55300 20007 91138 91222;
0149066690999992011010620004+47483+008400FM-12+084399999V0201901N010819999999N9999999N1+00461+00421999999ADDMA1999999091131MD1319999+9999ME1314099OA149901851REMSYN088AAXX  06204 06669 43/// /1921 10046 20042 39113 48409 53/// 333 55300 20007 91136 91222;
0149066690999992011010621004+47483+008400FM-12+084399999V0201901N010319999999N9999999N1+00461+00421999999ADDMA1999999091131MD1219999+9999ME1314099OA149902061REMSYN088AAXX  06214 06669 43/// /1920 10046 20042 39113 48409 52/// 333 55300 20007 91140 91222;
0149066690999992011010622004+47483+008400FM-12+084399999V0202001N010819999999N9999999N1+00471+00431999999ADDMA1999999091191MD1210121+9999ME1314159OA149901751REMSYN088AAXX  06224 06669 43/// /2021 10047 20043 39119 48415 52012 333 55300 20007 91134 91221;
0112066690999992011010623004+47483+008400FM-12+084399999V0201901N009319999999N9999999N1+00511+00471999999ADDMA1999999091231ME1314199REMSYN076AAXX  06234 06669 43/// /1918 10051 20047 39123 48419 5//// 333 553// 20007;
0096066690999992011010700004+47483+008400FM-12+084399999V0202001N010819999999N9999999N1+00501+00461999999ADDMA1999999091241ME1314209REMSYN060AAXX  07004 06669 43/// /2021 10050 20046 39124 48420 5////;
0096066690999992011010701004+47483+008400FM-12+084399999V0202001N010319999999N9999999N1+00501+00461999999ADDMA1999999091281ME1314249REMSYN060AAXX  07014 06669 43/// /2020 10050 20046 39128 48424 5////;
0096066690999992011010702004+47483+008400FM-12+084399999V0202001N008719999999N9999999N1+00511+00471999999ADDMA1999999091321ME1314279REMSYN060AAXX  07024 06669 43/// /2017 10051 20047 39132 48427 5////;
0096066690999992011010703004+47483+008400FM-12+084399999V0202101N007719999999N9999999N1+00511+00471999999ADDMA1999999091351ME1314309REMSYN060AAXX  07034 06669 43/// /2115 10051 20047 39135 48430 5////;
0149066690999992011010704004+47483+008400FM-12+084399999V0202001N009819999999N9999999N1+00501+00461999999ADDMA1999999091381MD1110101+9999ME1314329OA149901601REMSYN088AAXX  07044 06669 43/// /2019 10050 20046 39138 48432 51010 333 55300 20007 91131 91219;
0149066690999992011010705004+47483+008400FM-12+084399999V0201901N008719999999N9999999N1+00501+00461999999ADDMA1999999091411MD1210091+9999ME1314359OA149901601REMSYN088AAXX  07054 06669 43/// /1917 10050 20046 39141 48435 52009 333 55300 20007 91131 91219;
0182066690999992011010706004+47483+008400FM-12+084399999V0201801N007219999999N9999999N1+00511+00471999999ADDGJ100129KA1999N+00441MA1999999091461MD1210111+9999ME1314409OA149901961REMSYN100AAXX  07064 06669 43/// /1814 10051 20047 39146 48440 52011 333 20044 55002 55300 20007 91138 91223;
0149066690999992011010707004+47483+008400FM-12+084399999V0201801N006219999999N9999999N1+00531+00491999999ADDMA1999999091471MD1210091+9999ME1314419OA149901241REMSYN088AAXX  07074 06669 43/// /1812 10053 20049 39147 48441 52009 333 55300 20007 91124 91217;
0112066690999992011010708004+47483+008400FM-12+084399999V0201701N006219999999N9999999N1+00561+00521999999ADDMA1999999091461ME1314419REMSYN076AAXX  07084 06669 43/// /1712 10056 20052 39146 48441 5//// 333 553// 20029;
0096066690999992011010709004+47483+008400FM-12+084399999V0202001N005119999999N9999999N1+00661+00621999999ADDMA1999999091471ME1314449REMSYN060AAXX  07094 06669 43/// /2010 10066 20062 39147 48444 5////;
0149066690999992011010710004+47483+008400FM-12+084399999V0202001N005719999999N9999999N1+00581+00541999999ADDMA1999999091491MD1210021+9999ME1314449OA149900821REMSYN088AAXX  07104 06669 43/// /2011 10058 20054 39149 48444 52002 333 55302 20475 91116 91214;
0149066690999992011010711004+47483+008400FM-12+084399999V0201901N005719999999N9999999N1+00671+00571999999ADDMA1999999091461MD1010001+9999ME1314439OA149900821REMSYN088AAXX  07114 06669 43/// /1911 10067 20057 39146 48443 50000 333 55304 20731 91116 91211;
0149066690999992011010712004+47483+008400FM-12+084399999V0201801N004619999999N9999999N1+00641+00561999999ADDMA1999999091451MD1710021+9999ME1314429OA149901801REMSYN088AAXX  07124 06669 43/// /1809 10064 20056 39145 48442 57002 333 55303 20662 91135 91221;
0149066690999992011010713004+47483+008400FM-12+084399999V0202001N005719999999N9999999N1+00751+00541999999ADDMA1999999091411MD1710081+9999ME1314419OA149900881REMSYN088AAXX  07134 06669 43/// /2011 10075 20054 39141 48441 57008 333 55304 20731 91117 91211;
0096066690999992011010714004+47483+008400FM-12+084399999V0201901N006719999999N9999999N1+00821+00581999999ADDMA1999999091421ME1314439REMSYN060AAXX  07144 06669 43/// /1913 10082 20058 39142 48443 5////;
0096066690999992011010715004+47483+008400FM-12+084399999V0202001N007219999999N9999999N1+00871+00571999999ADDMA1999999091441ME1314469REMSYN060AAXX  07154 06669 43/// /2014 10087 20057 39144 48446 5////;
0149066690999992011010716004+47483+008400FM-12+084399999V0202001N006719999999N9999999N1+00831+00561999999ADDMA1999999091481MD1210071+9999ME1314499OA149901341REMSYN088AAXX  07164 06669 43/// /2013 10083 20056 39148 48449 52007 333 55300 20025 91126 91216;
0149066690999992011010717004+47483+008400FM-12+084399999V0201801N007719999999N9999999N1+00841+00551999999ADDMA1999999091491MD1210071+9999ME1314509OA149901291REMSYN088AAXX  07174 06669 43/// /1815 10084 20055 39149 48450 52007 333 55300 20007 91125 91216;
0131066690999992011010718004+47483+008400FM-12+084399999V0202001N006219999999N9999999N1+00881+00531999999ADDKA1120M+00891MA1999999091521ME1314539REMSYN082AAXX  07184 06669 43/// /2012 10088 20053 39152 48453 5//// 333 10089 553// 20007;
0149066690999992011010719004+47483+008400FM-12+084399999V0201801N006219999999N9999999N1+00921+00511999999ADDMA1999999091531MD1219999+9999ME1314559OA149901241REMSYN088AAXX  07194 06669 43/// /1812 10092 20051 39153 48455 52/// 333 55300 20007 91124 91217;
0096066690999992011010720004+47483+008400FM-12+084399999V0201701N004619999999N9999999N1+00911+00521999999ADDMA1999999091491ME1314519REMSYN060AAXX  07204 06669 43/// /1709 10091 20052 39149 48451 5////;
0096066690999992011010721004+47483+008400FM-12+084399999V0201701N005119999999N9999999N1+00971+00531999999ADDMA1999999091501ME1314539REMSYN060AAXX  07214 06669 43/// /1710 10097 20053 39150 48453 5////;
0149066690999992011010722004+47483+008400FM-12+084399999V0201901N005119999999N9999999N1+01011+00521999999ADDMA1999999091501MD1510031+9999ME1314549OA149900821REMSYN088AAXX  07224 06669 43/// /1910 10101 20052 39150 48454 55003 333 55300 20007 91116 91212;
0112066690999992011010723004+47483+008400FM-12+084399999V0202101N006719999999N9999999N1+00971+00491999999ADDMA1999999091511ME1314549REMSYN076AAXX  07234 06669 43/// /2113 10097 20049 39151 48454 5//// 333 553// 20007;
0112066690999992011010800004+47483+008400FM-12+084399999V0202101N006719999999N9999999N1+00881+00481999999ADDMA1999999091531ME1314549REMSYN076AAXX  08004 06669 43/// /2113 10088 20048 39153 48454 5//// 333 553// 20011;
0096066690999992011010801004+47483+008400FM-12+084399999V0201601N005119999999N9999999N1+00851+00481999999ADDMA1999999091481ME1314499REMSYN060AAXX  08014 06669 43/// /1610 10085 20048 39148 48449 5////;
0096066690999992011010802004+47483+008400FM-12+084399999V0201901N003619999999N9999999N1+00881+00511999999ADDMA1999999091541ME1314559REMSYN060AAXX  08024 06669 43/// /1907 10088 20051 39154 48455 5////;
0096066690999992011010803004+47483+008400FM-12+084399999V0202101N004619999999N9999999N1+00881+00461999999ADDMA1999999091531ME1314549REMSYN060AAXX  08034 06669 43/// /2109 10088 20046 39153 48454 5////;
0096066690999992011010804004+47483+008400FM-12+084399999V0202701N006219999999N9999999N1+00781+00581999999ADDMA1999999091551ME1314549REMSYN060AAXX  08044 06669 43/// /2712 10078 20058 39155 48454 5////;
0096066690999992011010805004+47483+008400FM-12+084399999V0202901N006219999999N9999999N1+00691+00631999999ADDMA1999999091591ME1314559REMSYN060AAXX  08054 06669 43/// /2912 10069 20063 39159 48455 5////;
0125066690999992011010806004+47483+008400FM-12+084399999V0202001N006219999999N9999999N1+00651+00611999999ADDKA1999N+00691MA1999999091611ME1314569REMSYN076AAXX  08064 06669 43/// /2012 10065 20061 39161 48456 5//// 333 20069 55016;
0096066690999992011010807004+47483+008400FM-12+084399999V0201901N007219999999N9999999N1+00591+00551999999ADDMA1999999091641ME1314579REMSYN060AAXX  08074 06669 43/// /1914 10059 20055 39164 48457 5////;
0112066690999992011010808004+47483+008400FM-12+084399999V0201901N007719999999N9999999N1+00601+00561999999ADDMA1999999091651ME1314589REMSYN076AAXX  08084 06669 43/// /1915 10060 20056 39165 48458 5//// 333 553// 20022;
0096066690999992011010809004+47483+008400FM-12+084399999V0201701N005719999999N9999999N1+00631+00591999999ADDMA1999999091611ME1314569REMSYN060AAXX  08094 06669 43/// /1711 10063 20059 39161 48456 5////;
0096066690999992011010810004+47483+008400FM-12+084399999V0201901N004119999999N9999999N1+00651+00591999999ADDMA1999999091661ME1314609REMSYN060AAXX  08104 06669 43/// /1908 10065 20059 39166 48460 5////;
0096066690999992011010811004+47483+008400FM-12+084399999V0201901N005719999999N9999999N1+00721+00601999999ADDMA1999999091621ME1314589REMSYN060AAXX  08114 06669 43/// /1911 10072 20060 39162 48458 5////;
0096066690999992011010812004+47483+008400FM-12+084399999V0201901N007219999999N9999999N1+00911+00581999999ADDMA1999999091591ME1314609REMSYN060AAXX  08124 06669 43/// /1914 10091 20058 39159 48460 5////;
0096066690999992011010813004+47483+008400FM-12+084399999V0201901N006719999999N9999999N1+00901+00571999999ADDMA1999999091551ME1314569REMSYN060AAXX  08134 06669 43/// /1913 10090 20057 39155 48456 5////;
0096066690999992011010814004+47483+008400FM-12+084399999V0202001N007719999999N9999999N1+00931+00481999999ADDMA1999999091531ME1314559REMSYN060AAXX  08144 06669 43/// /2015 10093 20048 39153 48455 5////;
0096066690999992011010815004+47483+008400FM-12+084399999V0201901N007719999999N9999999N1+00881+00461999999ADDMA1999999091571ME1314589REMSYN060AAXX  08154 06669 43/// /1915 10088 20046 39157 48458 5////;
0096066690999992011010816004+47483+008400FM-12+084399999V0202001N007219999999N9999999N1+00911+00431999999ADDMA1999999091591ME1314609REMSYN060AAXX  08164 06669 43/// /2014 10091 20043 39159 48460 5////;
0096066690999992011010817004+47483+008400FM-12+084399999V0201801N007219999999N9999999N1+00911+00431999999ADDMA1999999091561ME1314579REMSYN060AAXX  08174 06669 43/// /1814 10091 20043 39156 48457 5////;
0096066690999992011010818004+47483+008400FM-12+084399999V0201701N007219999999N9999999N1+00921+00401999999ADDMA1999999091561ME1314589REMSYN060AAXX  08184 06669 43/// /1714 10092 20040 39156 48458 5////;
0096066690999992011010819004+47483+008400FM-12+084399999V0201701N007719999999N9999999N1+00951+00361999999ADDMA1999999091531ME1314569REMSYN060AAXX  08194 06669 43/// /1715 10095 20036 39153 48456 5////;
0096066690999992011010820004+47483+008400FM-12+084399999V0201801N006219999999N9999999N1+00941+00311999999ADDMA1999999091531ME1314559REMSYN060AAXX  08204 06669 43/// /1812 10094 20031 39153 48455 5////;
0096066690999992011010821004+47483+008400FM-12+084399999V0201801N005719999999N9999999N1+00931+00321999999ADDMA1999999091511ME1314539REMSYN060AAXX  08214 06669 43/// /1811 10093 20032 39151 48453 5////;
0096066690999992011010822004+47483+008400FM-12+084399999V0202001N005719999999N9999999N1+00911+00331999999ADDMA1999999091521ME1314549REMSYN060AAXX  08224 06669 43/// /2011 10091 20033 39152 48454 5////;
0096066690999992011010823004+47483+008400FM-12+084399999V0201801N005119999999N9999999N1+00871+00331999999ADDMA1999999091481ME1314499REMSYN060AAXX  08234 06669 43/// /1810 10087 20033 39148 48449 5////;
0096066690999992011010900004+47483+008400FM-12+084399999V0202001N004119999999N9999999N1+00801+00361999999ADDMA1999999091461ME1314469REMSYN060AAXX  09004 06669 43/// /2008 10080 20036 39146 48446 5////;
0096066690999992011010901004+47483+008400FM-12+084399999V0202001N006219999999N9999999N1+00651+00381999999ADDMA1999999091471ME1314449REMSYN060AAXX  09014 06669 43/// /2012 10065 20038 39147 48444 5////;
0096066690999992011010902004+47483+008400FM-12+084399999V0201901N008719999999N9999999N1+00671+00411999999ADDMA1999999091451ME1314429REMSYN060AAXX  09024 06669 43/// /1917 10067 20041 39145 48442 5////;
0096066690999992011010903004+47483+008400FM-12+084399999V0201901N007719999999N9999999N1+00651+00351999999ADDMA1999999091441ME1314419REMSYN060AAXX  09034 06669 43/// /1915 10065 20035 39144 48441 5////;
0096066690999992011010904004+47483+008400FM-12+084399999V0201901N008719999999N9999999N1+00651+00311999999ADDMA1999999091411ME1314389REMSYN060AAXX  09044 06669 43/// /1917 10065 20031 39141 48438 5////;
0096066690999992011010905004+47483+008400FM-12+084399999V0201901N009819999999N9999999N1+00681+00301999999ADDMA1999999091391ME1314379REMSYN060AAXX  09054 06669 43/// /1919 10068 20030 39139 48437 5////;
0106066690999992011010906004+47483+008400FM-12+084399999V0202001N007719999999N9999999N1+00741+00211999999ADDMA1999999091421ME1314419REMSYN070AAXX  09064 06669 43/// /2015 10074 20021 39142 48441 5//// 333 55041;
0096066690999992011010907004+47483+008400FM-12+084399999V0202001N007719999999N9999999N1+00791+00151999999ADDMA1999999091441ME1314449REMSYN060AAXX  09074 06669 43/// /2015 10079 20015 39144 48444 5////;
0112066690999992011010908004+47483+008400FM-12+084399999V0202001N007719999999N9999999N1+00661+00241999999ADDMA1999999091491ME1314469REMSYN076AAXX  09084 06669 43/// /2015 10066 20024 39149 48446 5//// 333 553// 20025;
0112066690999992011010909004+47483+008400FM-12+084399999V0201901N007719999999N9999999N1+00611+00231999999ADDMA1999999091531ME1314489REMSYN076AAXX  09094 06669 43/// /1915 10061 20023 39153 48448 5//// 333 553// 20101;
0149066690999992011010910004+47483+008400FM-12+084399999V0202001N007719999999N9999999N1+00671+00161999999ADDMA1999999091571MD1210131+9999ME1314539OA149901241REMSYN088AAXX  09104 06669 43/// /2015 10067 20016 39157 48453 52013 333 55301 20288 91124 91216;
0149066690999992011010911004+47483+008400FM-12+084399999V0202201N007219999999N9999999N1+00611+00211999999ADDMA1999999091601MD1210111+9999ME1314549OA149901241REMSYN088AAXX  09114 06669 43/// /2214 10061 20021 39160 48454 52011 333 55300 20180 91124 91216;
0149066690999992011010912004+47483+008400FM-12+084399999V0202401N006219999999N9999999N1+00541+00271999999ADDMA1999999091581MD1010051+9999ME1314519OA149901441REMSYN088AAXX  09124 06669 43/// /2412 10054 20027 39158 48451 50005 333 55300 20194 91128 91219;
0149066690999992011010913004+47483+008400FM-12+084399999V0202701N005719999999N9999999N1+00601+00361999999ADDMA1999999091581MD1710011+9999ME1314529OA149901341REMSYN088AAXX  09134 06669 43/// /2711 10060 20036 39158 48452 57001 333 55300 20119 91126 91215;
0096066690999992011010914004+47483+008400FM-12+084399999V0202301N005119999999N9999999N1+00441+00381999999ADDMA1999999091621ME1314529REMSYN060AAXX  09144 06669 43/// /2310 10044 20038 39162 48452 5////;
0096066690999992011010915004+47483+008400FM-12+084399999V0202301N005719999999N9999999N1+00501+00421999999ADDMA1999999091631ME1314549REMSYN060AAXX  09154 06669 43/// /2311 10050 20042 39163 48454 5////;
0149066690999992011010916004+47483+008400FM-12+084399999V0202201N006719999999N9999999N1+00451+00391999999ADDMA1999999091661MD1210081+9999ME1314569OA149901131REMSYN088AAXX  09164 06669 43/// /2213 10045 20039 39166 48456 52008 333 55300 20029 91122 91213;
0149066690999992011010917004+47483+008400FM-12+084399999V0202101N006719999999N9999999N1+00431+00391999999ADDMA1999999091721MD1310101+9999ME1314619OA149901131REMSYN088AAXX  09174 06669 43/// /2113 10043 20039 39172 48461 53010 333 55300 20007 91122 91213;
0168066690999992011010918004+47483+008400FM-12+084399999V0202101N007219999999N9999999N1+00421+00381999999ADDKA1120M+00801MA1999999091741MD1110111+9999ME1314629OA149901341REMSYN094AAXX  09184 06669 43/// /2114 10042 20038 39174 48462 51011 333 10080 55300 20007 91126 91217;
0149066690999992011010919004+47483+008400FM-12+084399999V0202001N006719999999N9999999N1+00441+00401999999ADDMA1999999091771MD1110111+9999ME1314659OA149901181REMSYN088AAXX  09194 06669 43/// /2013 10044 20040 39177 48465 51011 333 55300 20007 91123 91214;
0149066690999992011010920004+47483+008400FM-12+084399999V0201901N007219999999N9999999N1+00421+00381999999ADDMA1999999091821MD1310101+9999ME1314699OA149901131REMSYN088AAXX  09204 06669 43/// /1914 10042 20038 39182 48469 53010 333 55300 20007 91122 91214;
0149066690999992011010921004+47483+008400FM-12+084399999V0202001N006719999999N9999999N1+00361+00321999999ADDMA1999999091841MD1310101+9999ME1314709OA149901181REMSYN088AAXX  09214 06669 43/// /2013 10036 20032 39184 48470 53010 333 55300 20007 91123 91214;
0149066690999992011010922004+47483+008400FM-12+084399999V0202101N006719999999N9999999N1+00321+00291999999ADDMA1999999091901MD1110131+9999ME1314749OA149901181REMSYN088AAXX  09224 06669 43/// /2113 10032 20029 39190 48474 51013 333 55300 20007 91123 91214;
0149066690999992011010923004+47483+008400FM-12+084399999V0202001N004619999999N9999999N1+00291+00261999999ADDMA1999999091931MD1310111+9999ME1314769OA149901181REMSYN088AAXX  09234 06669 43/// /2009 10029 20026 39193 48476 53011 333 55300 20007 91123 91214;
0149066690999992011011000004+47483+008400FM-12+084399999V0202101N005719999999N9999999N1+00251+00221999999ADDMA1999999091961MD1110121+9999ME1314779OA149901181REMSYN088AAXX  10004 06669 43/// /2111 10025 20022 39196 48477 51012 333 55300 20007 91123 91214;
0132066690999992011011001004+47483+008400FM-12+084399999V02099999999999999999N9999999N1+00231+00201999999ADDMA1999999091981MD1119999+9999ME1314799REMSYN082AAXX  10014 06669 43/// ///// 10023 20020 39198 48479 51/// 90040 333 55300 20007;
0096066690999992011011002004+47483+008400FM-12+084399999V0202301N003119999999N9999999N1+00211+00181999999ADDMA1999999092031ME1314829REMSYN060AAXX  10024 06669 43/// /2306 10021 20018 39203 48482 5////;
0096066690999992011011003004+47483+008400FM-12+084399999V0203501N001519999999N9999999N1+00201+00171999999ADDMA1999999092061ME1314859REMSYN060AAXX  10034 06669 43/// /3503 10020 20017 39206 48485 5////;
0112066690999992011011004004+47483+008400FM-12+084399999V0200201N004619999999N9999999N1+00111+00081999999ADDMA1999999092061ME1314839REMSYN076AAXX  10044 06669 43/// /0209 10011 20008 39206 48483 5//// 333 553// 20011;
0149066690999992011011005004+47483+008400FM-12+084399999V0200201N005719999999N9999999N1+00051+00041999999ADDMA1999999092071MD1219999+9999ME1314829OA149900881REMSYN088AAXX  10054 06669 43/// /0211 10005 20004 39207 48482 52/// 333 55300 20011 91117 91212;
0106066690999992011011006004+47483+008400FM-12+084399999V0200201N006219999999N9999999N1+00001-00011999999ADDMA1999999092071ME1314819REMSYN070AAXX  10064 06669 43/// /0212 10000 21001 39207 48481 5//// 333 55001;
0149066690999992011011007004+47483+008400FM-12+084399999V0200201N005119999999N9999999N1-00041-00051999999ADDMA1999999092111MD1210051+9999ME1314839OA149900881REMSYN088AAXX  10074 06669 43/// /0210 11004 21005 39211 48483 52005 333 55300 20011 91117 91213;
0096066690999992011011008004+47483+008400FM-12+084399999V0200201N005719999999N9999999N1-00071-00081999999ADDMA1999999092131ME1314849REMSYN060AAXX  10084 06669 43/// /0211 11007 21008 39213 48484 5////;
0096066690999992011011009004+47483+008400FM-12+084399999V0200201N005719999999N9999999N1-00081-00091999999ADDMA1999999092161ME1314879REMSYN060AAXX  10094 06669 43/// /0211 11008 21009 39216 48487 5////;
0149066690999992011011010004+47483+008400FM-12+084399999V0200301N004119999999N9999999N1-00071-00081999999ADDMA1999999092151MD1210041+9999ME1314869OA149900721REMSYN088AAXX  10104 06669 43/// /0308 11007 21008 39215 48486 52004 333 55300 20281 91114 91211;
0149066690999992011011011004+47483+008400FM-12+084399999V0200201N004119999999N9999999N1-00051-00061999999ADDMA1999999092121MD1819999+9999ME1314849OA149900721REMSYN088AAXX  10114 06669 43/// /0208 11005 21006 39212 48484 58/// 333 55300 20479 91114 91211;
0112066690999992011011012004+47483+008400FM-12+084399999V0200201N005119999999N9999999N1-00041-00051999999ADDMA1999999092061ME1314799REMSYN076AAXX  10124 06669 43/// /0210 11004 21005 39206 48479 5//// 333 553// 20414;
0096066690999992011011013004+47483+008400FM-12+084399999V0200101N005119999999N9999999N1-00021-00031999999ADDMA1999999092031ME1314779REMSYN060AAXX  10134 06669 43/// /0110 11002 21003 39203 48477 5////;
0096066690999992011011014004+47483+008400FM-12+084399999V0200301N004619999999N9999999N1-00021-00031999999ADDMA1999999091971ME1314729REMSYN060AAXX  10144 06669 43/// /0309 11002 21003 39197 48472 5////;
0096066690999992011011015004+47483+008400FM-12+084399999V0200301N004619999999N9999999N1-00021-00031999999ADDMA1999999091961ME1314719REMSYN060AAXX  10154 06669 43/// /0309 11002 21003 39196 48471 5////;
0096066690999992011011016004+47483+008400FM-12+084399999V0200301N004119999999N9999999N1-00041-00051999999ADDMA1999999091931ME1314689REMSYN060AAXX  10164 06669 43/// /0308 11004 21005 39193 48468 5////;
0096066690999992011011017004+47483+008400FM-12+084399999V0200201N003119999999N9999999N1-00041-00051999999ADDMA1999999091911ME1314669REMSYN060AAXX  10174 06669 43/// /0206 11004 21005 39191 48466 5////;
0119066690999992011011018004+47483+008400FM-12+084399999V0200201N003119999999N9999999N1-00051-00061999999ADDKA1999M+00001MA1999999091881ME1314639REMSYN070AAXX  10184 06669 43/// /0206 11005 21006 39188 48463 5//// 333 10000;
0096066690999992011011019004+47483+008400FM-12+084399999V0200301N002619999999N9999999N1-00051-00061999999ADDMA1999999091861ME1314629REMSYN060AAXX  10194 06669 43/// /0305 11005 21006 39186 48462 5////;
0096066690999992011011020004+47483+008400FM-12+084399999V0200201N002119999999N9999999N1-00061-00071999999ADDMA1999999091831ME1314599REMSYN060AAXX  10204 06669 43/// /0204 11006 21007 39183 48459 5////;
0096066690999992011011021004+47483+008400FM-12+084399999V0200101N000519999999N9999999N1-00051-00061999999ADDMA1999999091811ME1314579REMSYN060AAXX  10214 06669 43/// /0101 11005 21006 39181 48457 5////;
0096066690999992011011022004+47483+008400FM-12+084399999V0201701N002119999999N9999999N1-00031-00041999999ADDMA1999999091811ME1314589REMSYN060AAXX  10224 06669 43/// /1704 11003 21004 39181 48458 5////;
0096066690999992011011023004+47483+008400FM-12+084399999V0201801N002619999999N9999999N1-00031-00041999999ADDMA1999999091761ME1314549REMSYN060AAXX  10234 06669 43/// /1805 11003 21004 39176 48454 5////;
0096066690999992011011100004+47483+008400FM-12+084399999V0201701N002619999999N9999999N1-00041-00051999999ADDMA1999999091701ME1314489REMSYN060AAXX  11004 06669 43/// /1705 11004 21005 39170 48448 5////;
0096066690999992011011101004+47483+008400FM-12+084399999V0201701N003119999999N9999999N1-00031-00041999999ADDMA1999999091661ME1314459REMSYN060AAXX  11014 06669 43/// /1706 11003 21004 39166 48445 5////;
0096066690999992011011102004+47483+008400FM-12+084399999V0201601N004119999999N9999999N1+00001-00011999999ADDMA1999999091611ME1314419REMSYN060AAXX  11024 06669 43/// /1608 10000 21001 39161 48441 5////;
0096066690999992011011103004+47483+008400FM-12+084399999V0201701N005119999999N9999999N1+00001-00011999999ADDMA1999999091581ME1314399REMSYN060AAXX  11034 06669 43/// /1710 10000 21001 39158 48439 5////;
0096066690999992011011104004+47483+008400FM-12+084399999V0201701N005719999999N9999999N1+00011+00001999999ADDMA1999999091531ME1314359REMSYN060AAXX  11044 06669 43/// /1711 10001 20000 39153 48435 5////;
0096066690999992011011105004+47483+008400FM-12+084399999V0201701N006719999999N9999999N1+00031+00021999999ADDMA1999999091471ME1314309REMSYN060AAXX  11054 06669 43/// /1713 10003 20002 39147 48430 5////;
0106066690999992011011106004+47483+008400FM-12+084399999V0201701N006719999999N9999999N1+00051+00041999999ADDMA1999999091421ME1314269REMSYN070AAXX  11064 06669 43/// /1713 10005 20004 39142 48426 5//// 333 55000;
0149066690999992011011107004+47483+008400FM-12+084399999V0201701N005719999999N9999999N1+00051+00041999999ADDMA1999999091391MD1719999+9999ME1314239OA149900981REMSYN088AAXX  11074 06669 43/// /1711 10005 20004 39139 48423 57/// 333 55300 20011 91119 91214;
0112066690999992011011108004+47483+008400FM-12+084399999V0201801N005719999999N9999999N1+00051+00041999999ADDMA1999999091371ME1314229REMSYN076AAXX  11084 06669 43/// /1811 10005 20004 39137 48422 5//// 333 553// 20040;
0096066690999992011011109004+47483+008400FM-12+084399999V0201801N007719999999N9999999N1+00061+00041999999ADDMA1999999091321ME1314189REMSYN060AAXX  11094 06669 43/// /1815 10006 20004 39132 48418 5////;
0149066690999992011011110004+47483+008400FM-12+084399999V0201901N006219999999N9999999N1+00091+00061999999ADDMA1999999091291MD1610101+9999ME1314169OA149900981REMSYN088AAXX  11104 06669 43/// /1912 10009 20006 39129 48416 56010 333 55300 20378 91119 91215;
0149066690999992011011111004+47483+008400FM-12+084399999V0201901N007719999999N9999999N1+00101+00071999999ADDMA1999999091221MD1810151+9999ME1314109OA149901031REMSYN088AAXX  11114 06669 43/// /1915 10010 20007 39122 48410 58015 333 55300 20371 91120 91215;
0112066690999992011011112004+47483+008400FM-12+084399999V0202001N005119999999N9999999N1+00221+00091999999ADDMA1999999091171ME1314089REMSYN076AAXX  11124 06669 43/// /2010 10022 20009 39117 48408 5//// 333 553// 2////;
0149066690999992011011113004+47483+008400FM-12+084399999V0201901N007719999999N9999999N1+00211+00021999999ADDMA1999999091101MD1710191+9999ME1314029OA149901181REMSYN088AAXX  11134 06669 43/// /1915 10021 20002 39110 48402 57019 333 55302 20623 91123 91215;
0096066690999992011011114004+47483+008400FM-12+084399999V0202001N007719999999N9999999N1+00151+00071999999ADDMA1999999091171ME1314069REMSYN060AAXX  11144 06669 43/// /2015 10015 20007 39117 48406 5////;
0096066690999992011011115004+47483+008400FM-12+084399999V0201901N008219999999N9999999N1+00091+00061999999ADDMA1999999091211ME1314099REMSYN060AAXX  11154 06669 43/// /1916 10009 20006 39121 48409 5////;
0149066690999992011011116004+47483+008400FM-12+084399999V0202001N009319999999N9999999N1+00071+00041999999ADDMA1999999091271MD1310171+9999ME1314139OA149901491REMSYN088AAXX  11164 06669 43/// /2018 10007 20004 39127 48413 53017 333 55300 20022 91129 91218;
0149066690999992011011117004+47483+008400FM-12+084399999V0201901N008219999999N9999999N1+00041+00011999999ADDMA1999999091341MD1310171+9999ME1314199OA149901391REMSYN088AAXX  11174 06669 43/// /1916 10004 20001 39134 48419 53017 333 55300 20011 91127 91218;
0168066690999992011011118004+47483+008400FM-12+084399999V0201901N009319999999N9999999N1+00051+00021999999ADDKA1120M+00231MA1999999091411MD1210201+9999ME1314259OA149901601REMSYN094AAXX  11184 06669 43/// /1918 10005 20002 39141 48425 52020 333 10023 55300 20007 91131 91220;
0149066690999992011011119004+47483+008400FM-12+084399999V0202001N008219999999N9999999N1+00061+00031999999ADDMA1999999091511MD1310241+9999ME1314349OA149901601REMSYN088AAXX  11194 06669 43/// /2016 10006 20003 39151 48434 53024 333 55300 20007 91131 91220;
0149066690999992011011120004+47483+008400FM-12+084399999V0202101N006719999999N9999999N1+00081+00051999999ADDMA1999999091591MD1210251+9999ME1314419OA149901241REMSYN088AAXX  11204 06669 43/// /2113 10008 20005 39159 48441 52025 333 55300 20007 91124 91217;
0149066690999992011011121004+47483+008400FM-12+084399999V0202101N006719999999N9999999N1+00121+00091999999ADDMA1999999091691MD1210281+9999ME1314519OA149901601REMSYN088AAXX  11214 06669 43/// /2113 10012 20009 39169 48451 52028 333 55300 20007 91131 91220;
0149066690999992011011122004+47483+008400FM-12+084399999V0202001N007219999999N9999999N1+00131+00101999999ADDMA1999999091761MD1210251+9999ME1314579OA149901081REMSYN088AAXX  11224 06669 43/// /2014 10013 20010 39176 48457 52025 333 55300 20007 91121 91214;
0149066690999992011011123004+47483+008400FM-12+084399999V0202001N006719999999N9999999N1+00151+00121999999ADDMA1999999091801MD1210211+9999ME1314619OA149901181REMSYN088AAXX  11234 06669 43/// /2013 10015 20012 39180 48461 52021 333 55300 20007 91123 91215;
0149066690999992011011200004+47483+008400FM-12+084399999V0202001N008719999999N9999999N1+00151+00121999999ADDMA1999999091821MD1210131+9999ME1314639OA149901601REMSYN088AAXX  12004 06669 43/// /2017 10015 20012 39182 48463 52013 333 55300 20007 91131 91220;
0149066690999992011011201004+47483+008400FM-12+084399999V0202101N008219999999N9999999N1+00161+00131999999ADDMA1999999091861MD1210101+9999ME1314679OA149901441REMSYN088AAXX  12014 06669 43/// /2116 10016 20013 39186 48467 52010 333 55300 20007 91128 91217;
0112066690999992011011202004+47483+008400FM-12+084399999V0202101N008219999999N9999999N1+00171+00141999999ADDMA1999999091961ME1314759REMSYN076AAXX  12024 06669 43/// /2116 10017 20014 39196 48475 5//// 333 553// 20007;
0096066690999992011011203004+47483+008400FM-12+084399999V0202201N006719999999N9999999N1+00191+00161999999ADDMA1999999092031ME1314829REMSYN060AAXX  12034 06669 43/// /2213 10019 20016 39203 48482 5////;
0096066690999992011011204004+47483+008400FM-12+084399999V0202201N006219999999N9999999N1+00171+00141999999ADDMA1999999092071ME1314859REMSYN060AAXX  12044 06669 43/// /2212 10017 20014 39207 48485 5////;
0112066690999992011011205004+47483+008400FM-12+084399999V0202601N005719999999N9999999N1+00121+00091999999ADDMA1999999092161ME1314919REMSYN076AAXX  12054 06669 43/// /2611 10012 20009 39216 48491 5//// 333 553// 20007;
0125066690999992011011206004+47483+008400FM-12+084399999V0202501N006219999999N9999999N1+00111+00081999999ADDKA1999N+00051MA1999999092231ME1314979REMSYN076AAXX  12064 06669 43/// /2512 10011 20008 39223 48497 5//// 333 20005 55006;
0149066690999992011011207004+47483+008400FM-12+084399999V0202401N006219999999N9999999N1+00101+00071999999ADDMA1999999092261MD1210191+9999ME1315009OA149901131REMSYN088AAXX  12074 06669 43/// /2412 10010 20007 39226 48500 52019 333 55300 20007 91122 91213;
0096066690999992011011208004+47483+008400FM-12+084399999V0202501N005719999999N9999999N1+00101+00071999999ADDMA1999999092261ME1315009REMSYN060AAXX  12084 06669 43/// /2511 10010 20007 39226 48500 5////;
0096066690999992011011209004+47483+008400FM-12+084399999V0202601N005119999999N9999999N1+00091+00061999999ADDMA1999999092331ME1315059REMSYN060AAXX  12094 06669 43/// /2610 10009 20006 39233 48505 5////;
0149066690999992011011210004+47483+008400FM-12+084399999V0202301N004119999999N9999999N1+00111+00081999999ADDMA1999999092321MD1219999+9999ME1315059OA149901241REMSYN088AAXX  12104 06669 43/// /2308 10011 20008 39232 48505 52/// 333 55300 20248 91124 91212;
0126066690999992011011211004+47483+008400FM-12+084399999V0201901N004119999999N9999999N1+00141+00111999999ADDMA1999999092291MD1010031+9999ME1315039REMSYN076AAXX  12114 06669 43/// /1908 10014 20011 39229 48503 50003 333 55300 20284;
0096066690999992011011212004+47483+008400FM-12+084399999V0201901N004619999999N9999999N1+00171+00141999999ADDMA1999999092281ME1315039REMSYN060AAXX  12124 06669 43/// /1909 10017 20014 39228 48503 5////;
0096066690999992011011213004+47483+008400FM-12+084399999V0202001N006219999999N9999999N1+00181+00151999999ADDMA1999999092241ME1315009REMSYN060AAXX  12134 06669 43/// /2012 10018 20015 39224 48500 5////;
0096066690999992011011214004+47483+008400FM-12+084399999V0202201N004619999999N9999999N1+00191+00161999999ADDMA1999999092271ME1315039REMSYN060AAXX  12144 06669 43/// /2209 10019 20016 39227 48503 5////;
0096066690999992011011215004+47483+008400FM-12+084399999V0202001N008219999999N9999999N1+00161+00131999999ADDMA1999999092251ME1315009REMSYN060AAXX  12154 06669 43/// /2016 10016 20013 39225 48500 5////;
0149066690999992011011216004+47483+008400FM-12+084399999V0201901N009819999999N9999999N1+00151+00121999999ADDMA1999999092221MD1710021+9999ME1314979OA149901341REMSYN088AAXX  12164 06669 43/// /1919 10015 20012 39222 48497 57002 333 55300 20018 91126 91219;
0149066690999992011011217004+47483+008400FM-12+084399999V0201901N010319999999N9999999N1+00191+00161999999ADDMA1999999092201MD1710071+9999ME1314979OA149901651REMSYN088AAXX  12174 06669 43/// /1920 10019 20016 39220 48497 57007 333 55300 20007 91132 91222;
0168066690999992011011218004+47483+008400FM-12+084399999V0201901N011819999999N9999999N1+00171+00141999999ADDKA1120M+00191MA1999999092191MD1710061+9999ME1314959OA149901801REMSYN094AAXX  12184 06669 43/// /1923 10017 20014 39219 48495 57006 333 10019 55300 20011 91135 91223;
0149066690999992011011219004+47483+008400FM-12+084399999V0202001N011319999999N9999999N1+00191+00161999999ADDMA1999999092181MD1710041+9999ME1314959OA149901851REMSYN088AAXX  12194 06669 43/// /2022 10019 20016 39218 48495 57004 333 55300 20007 91136 91224;
0149066690999992011011220004+47483+008400FM-12+084399999V0201901N011819999999N9999999N1+00241+00201999999ADDMA1999999092161MD1710041+9999ME1314949OA149902061REMSYN088AAXX  12204 06669 43/// /1923 10024 20020 39216 48494 57004 333 55300 20007 91140 91225;
0149066690999992011011221004+47483+008400FM-12+084399999V0202001N012319999999N9999999N1+00211+00161999999ADDMA1999999092171MD1510021+9999ME1314959OA149902061REMSYN088AAXX  12214 06669 43/// /2024 10021 20016 39217 48495 55002 333 55300 20007 91140 91225;
0149066690999992011011222004+47483+008400FM-12+084399999V0202001N012919999999N9999999N1+00241+00201999999ADDMA1999999092151MD1710031+9999ME1314949OA149902061REMSYN088AAXX  12224 06669 43/// /2025 10024 20020 39215 48494 57003 333 55300 20007 91140 91226;
0149066690999992011011223004+47483+008400FM-12+084399999V0202001N011819999999N9999999N1+00251+00221999999ADDMA1999999092181MD1210021+9999ME1314969OA149902061REMSYN088AAXX  12234 06669 43/// /2023 10025 20022 39218 48496 52002 333 55300 20007 91140 91226;
0149066690999992011011300004+47483+008400FM-12+084399999V0202101N012919999999N9999999N1+00261+00231999999ADDMA1999999092161MD1710011+9999ME1314959OA149902061REMSYN088AAXX  13004 06669 43/// /2125 10026 20023 39216 48495 57001 333 55300 20007 91140 91226;
0149066690999992011011301004+47483+008400FM-12+084399999V0202001N011819999999N9999999N1+00311+00281999999ADDMA1999999092111MD1710041+9999ME1314929OA149902061REMSYN088AAXX  13014 06669 43/// /2023 10031 20028 39211 48492 57004 333 55300 20007 91140 91226;
0149066690999992011011302004+47483+008400FM-12+084399999V0202001N012319999999N9999999N1+00321+00291999999ADDMA1999999092111MD1719999+9999ME1314929OA149901961REMSYN088AAXX  13024 06669 43/// /2024 10032 20029 39211 48492 57/// 333 55300 20007 91138 91226;
0096066690999992011011303004+47483+008400FM-12+084399999V0202001N012319999999N9999999N1+00341+00311999999ADDMA1999999092101ME1314929REMSYN060AAXX  13034 06669 43/// /2024 10034 20031 39210 48492 5////;
0149066690999992011011304004+47483+008400FM-12+084399999V0202001N011819999999N9999999N1+00391+00351999999ADDMA1999999092091MD1719999+9999ME1314929OA149902111REMSYN088AAXX  13044 06669 43/// /2023 10039 20035 39209 48492 57/// 333 55300 20007 91141 91226;
0112066690999992011011305004+47483+008400FM-12+084399999V0202001N013419999999N9999999N1+00421+00381999999ADDMA1999999092101ME1314949REMSYN076AAXX  13054 06669 43/// /2026 10042 20038 39210 48494 5//// 333 553// 20007;
0182066690999992011011306004+47483+008400FM-12+084399999V0202001N011319999999N9999999N1+00461+00431999999ADDGJ100009KA1999N+00171MA1999999092121MD1210021+9999ME1314969OA149902111REMSYN100AAXX  13064 06669 43/// /2022 10046 20043 39212 48496 52002 333 20017 55000 55300 20007 91141 91226;
0096066690999992011011307004+47483+008400FM-12+084399999V0202101N012319999999N9999999N1+00481+00451999999ADDMA1999999092141ME1314999REMSYN060AAXX  13074 06669 43/// /2124 10048 20045 39214 48499 5////;
0096066690999992011011308004+47483+008400FM-12+084399999V0202101N012919999999N9999999N1+00481+00451999999ADDMA1999999092161ME1315009REMSYN060AAXX  13084 06669 43/// /2125 10048 20045 39216 48500 5////;
0096066690999992011011309004+47483+008400FM-12+084399999V0202101N011319999999N9999999N1+00491+00461999999ADDMA1999999092181ME1315029REMSYN060AAXX  13094 06669 43/// /2122 10049 20046 39218 48502 5////;
0096066690999992011011310004+47483+008400FM-12+084399999V0202001N010819999999N9999999N1+00511+00481999999ADDMA1999999092241ME1315089REMSYN060AAXX  13104 06669 43/// /2021 10051 20048 39224 48508 5////;
0096066690999992011011311004+47483+008400FM-12+084399999V0202101N010819999999N9999999N1+00531+00501999999ADDMA1999999092211ME1315069REMSYN060AAXX  13114 06669 43/// /2121 10053 20050 39221 48506 5////;
0096066690999992011011312004+47483+008400FM-12+084399999V0202101N009819999999N9999999N1+00571+00541999999ADDMA1999999092191ME1315059REMSYN060AAXX  13124 06669 43/// /2119 10057 20054 39219 48505 5////;
0096066690999992011011313004+47483+008400FM-12+084399999V0202101N010319999999N9999999N1+00621+00591999999ADDMA1999999092151ME1315039REMSYN060AAXX  13134 06669 43/// /2120 10062 20059 39215 48503 5////;
0096066690999992011011314004+47483+008400FM-12+084399999V0202101N009319999999N9999999N1+00671+00641999999ADDMA1999999092161ME1315059REMSYN060AAXX  13144 06669 43/// /2118 10067 20064 39216 48505 5////;
0096066690999992011011315004+47483+008400FM-12+084399999V0202101N010319999999N9999999N1+00711+00641999999ADDMA1999999092171ME1315079REMSYN060AAXX  13154 06669 43/// /2120 10071 20064 39217 48507 5////;
0096066690999992011011316004+47483+008400FM-12+084399999V0202101N011319999999N9999999N1+00751+00601999999ADDMA1999999092191ME1315109REMSYN060AAXX  13164 06669 43/// /2122 10075 20060 39219 48510 5////;
0149066690999992011011317004+47483+008400FM-12+084399999V0202201N011319999999N9999999N1+00701+00611999999ADDMA1999999092201MD1210041+9999ME1315099OA149901961REMSYN088AAXX  13174 06669 43/// /2222 10070 20061 39220 48509 52004 333 55300 20007 91138 91222;
0168066690999992011011318004+47483+008400FM-12+084399999V0202101N009819999999N9999999N1+00681+00631999999ADDKA1120M+00751MA1999999092201MD1210031+9999ME1315099OA149902011REMSYN094AAXX  13184 06669 43/// /2119 10068 20063 39220 48509 52003 333 10075 55300 20007 91139 91225;
0149066690999992011011319004+47483+008400FM-12+084399999V0202201N007219999999N9999999N1+00681+00641999999ADDMA1999999092251MD1210061+9999ME1315139OA149901701REMSYN088AAXX  13194 06669 43/// /2214 10068 20064 39225 48513 52006 333 55300 20007 91133 91221;
0149066690999992011011320004+47483+008400FM-12+084399999V0202301N006219999999N9999999N1+00691+00651999999ADDMA1999999092241MD1210041+9999ME1315129OA149901541REMSYN088AAXX  13204 06669 43/// /2312 10069 20065 39224 48512 52004 333 55300 20007 91130 91218;
0149066690999992011011321004+47483+008400FM-12+084399999V0202301N005119999999N9999999N1+00721+00681999999ADDMA1999999092261MD1210061+9999ME1315159OA149901961REMSYN088AAXX  13214 06669 43/// /2310 10072 20068 39226 48515 52006 333 55300 20007 91138 91222;
0149066690999992011011322004+47483+008400FM-12+084399999V0202101N004119999999N9999999N1+00661+00621999999ADDMA1999999092271MD1210021+9999ME1315149OA149901031REMSYN088AAXX  13224 06669 43/// /2108 10066 20062 39227 48514 52002 333 55300 20007 91120 91212;
0149066690999992011011323004+47483+008400FM-12+084399999V0202201N005119999999N9999999N1+00661+00621999999ADDMA1999999092271MD1210031+9999ME1315149OA149900931REMSYN088AAXX  13234 06669 43/// /2210 10066 20062 39227 48514 52003 333 55300 20007 91118 91210;
0149066690999992011011400004+47483+008400FM-12+084399999V0202201N004619999999N9999999N1+00651+00621999999ADDMA1999999092251MD1010011+9999ME1315129OA149901961REMSYN088AAXX  14004 06669 43/// /2209 10065 20062 39225 48512 50001 333 55300 20007 91138 91222;
0149066690999992011011401004+47483+008400FM-12+084399999V0202201N004119999999N9999999N1+00621+00591999999ADDMA1999999092281MD1310011+9999ME1315149OA149900821REMSYN088AAXX  14014 06669 43/// /2208 10062 20059 39228 48514 53001 333 55300 20007 91116 91210;
0112066690999992011011402004+47483+008400FM-12+084399999V0202001N004119999999N9999999N1+00601+00571999999ADDMA1999999092321ME1315179REMSYN076AAXX  14024 06669 43/// /2008 10060 20057 39232 48517 5//// 333 553// 20007;
0149066690999992011011403004+47483+008400FM-12+084399999V0202101N005119999999N9999999N1+00591+00561999999ADDMA1999999092301MD1210051+9999ME1315159OA149900931REMSYN088AAXX  14034 06669 43/// /2110 10059 20056 39230 48515 52005 333 55300 20007 91118 91212;
0149066690999992011011404004+47483+008400FM-12+084399999V0202101N006219999999N9999999N1+00581+00551999999ADDMA1999999092301MD1010021+9999ME1315159OA149900981REMSYN088AAXX  14044 06669 43/// /2112 10058 20055 39230 48515 50002 333 55300 20007 91119 91214;
0149066690999992011011405004+47483+008400FM-12+084399999V0202101N005719999999N9999999N1+00581+00551999999ADDMA1999999092291MD1710031+9999ME1315149OA149900981REMSYN088AAXX  14054 06669 43/// /2111 10058 20055 39229 48514 57003 333 55300 20007 91119 91214;
0201066690999992011011406004+47483+008400FM-12+084399999V0202101N005719999999N9999999N1+00571+00541999999ADDGJ100069KA1999N+00571MA1999999092301MD1410001+9999ME1315159OA149901541REMSYN100AAXX  14064 06669 43/// /2111 10057 20054 39230 48515 52000 333 20057 55001 55300 20007 91130 91218;EQDQ01+000022APCTEN
0149066690999992011011407004+47483+008400FM-12+084399999V0202001N005719999999N9999999N1+00561+00531999999ADDMA1999999092301MD1410001+9999ME1315149OA149901031REMSYN088AAXX  14074 06669 43/// /2011 10056 20053 39230 48514 54000 333 55300 20007 91120 91212;
0096066690999992011011408004+47483+008400FM-12+084399999V0202001N006219999999N9999999N1+00591+00541999999ADDMA1999999092331ME1315189REMSYN060AAXX  14084 06669 43/// /2012 10059 20054 39233 48518 5////;
0096066690999992011011409004+47483+008400FM-12+084399999V0202001N005119999999N9999999N1+00561+00491999999ADDMA1999999092311ME1315159REMSYN060AAXX  14094 06669 43/// /2010 10056 20049 39231 48515 5////;
0096066690999992011011410004+47483+008400FM-12+084399999V0202101N004619999999N9999999N1+00631+00451999999ADDMA1999999092311ME1315179REMSYN060AAXX  14104 06669 43/// /2109 10063 20045 39231 48517 5////;
0149066690999992011011411004+47483+008400FM-12+084399999V0202601N001519999999N9999999N1+00601+00491999999ADDMA1999999092311MD1510021+9999ME1315169OA149900821REMSYN088AAXX  14114 06669 43/// /2603 10060 20049 39231 48516 55002 333 55300 20256 91116 91210;
0149066690999992011011412004+47483+008400FM-12+084399999V0202101N003119999999N9999999N1+00601+00511999999ADDMA1999999092251MD1810061+9999ME1315119OA149901031REMSYN088AAXX  14124 06669 43/// /2106 10060 20051 39225 48511 58006 333 55300 20263 91120 91214;
0149066690999992011011413004+47483+008400FM-12+084399999V0202101N002119999999N9999999N1+00611+00521999999ADDMA1999999092231MD1710081+9999ME1315109OA149900721REMSYN088AAXX  14134 06669 43/// /2104 10061 20052 39223 48510 57008 333 55300 20299 91114 91206;
0112066690999992011011414004+47483+008400FM-12+084399999V0201901N002119999999N9999999N1+00611+00521999999ADDMA1999999092201ME1315079REMSYN076AAXX  14144 06669 43/// /1904 10061 20052 39220 48507 5//// 333 553// 20209;
0149066690999992011011415004+47483+008400FM-12+084399999V0201801N002619999999N9999999N1+00621+00501999999ADDMA1999999092191MD1710061+9999ME1315069OA149900821REMSYN088AAXX  14154 06669 43/// /1805 10062 20050 39219 48506 57006 333 55300 20151 91116 91210;
0149066690999992011011416004+47483+008400FM-12+084399999V0201901N003119999999N9999999N1+00621+00471999999ADDMA1999999092171MD1710061+9999ME1315059OA149900411REMSYN088AAXX  14164 06669 43/// /1906 10062 20047 39217 48505 57006 333 55300 20068 91108 91206;
0149066690999992011011417004+47483+008400FM-12+084399999V0202001N003619999999N9999999N1+00621+00431999999ADDMA1999999092141MD1710061+9999ME1315029OA149900461REMSYN088AAXX  14174 06669 43/// /2007 10062 20043 39214 48502 57006 333 55300 20011 91109 91207;
0168066690999992011011418004+47483+008400FM-12+084399999V0202001N004119999999N9999999N1+00601+00431999999ADDKA1120M+00631MA1999999092091MD1810101+9999ME1314979OA149900931REMSYN094AAXX  14184 06669 43/// /2008 10060 20043 39209 48497 58010 333 10063 55300 20007 91118 91213;
0149066690999992011011419004+47483+008400FM-12+084399999V0202101N004619999999N9999999N1+00581+00401999999ADDMA1999999092081MD1610091+9999ME1314969OA149900671REMSYN088AAXX  14194 06669 43/// /2109 10058 20040 39208 48496 56009 333 55300 20007 91113 91209;
0149066690999992011011420004+47483+008400FM-12+084399999V0202101N005119999999N9999999N1+00501+00371999999ADDMA1999999092081MD1710061+9999ME1314949OA149900771REMSYN088AAXX  14204 06669 43/// /2110 10050 20037 39208 48494 57006 333 55300 20011 91115 91211;
0149066690999992011011421004+47483+008400FM-12+084399999V0202301N005119999999N9999999N1+00481+00361999999ADDMA1999999092121MD1310031+9999ME1314979OA149900821REMSYN088AAXX  14214 06669 43/// /2310 10048 20036 39212 48497 53003 333 55300 20007 91116 91211;
0149066690999992011011422004+47483+008400FM-12+084399999V0202201N006219999999N9999999N1+00431+00341999999ADDMA1999999092191MD1210111+9999ME1315029OA149900931REMSYN088AAXX  14224 06669 43/// /2212 10043 20034 39219 48502 52011 333 55300 20007 91118 91212;
0149066690999992011011423004+47483+008400FM-12+084399999V0202201N007219999999N9999999N1+00421+00341999999ADDMA1999999092231MD1210151+9999ME1315059OA149901131REMSYN088AAXX  14234 06669 43/// /2214 10042 20034 39223 48505 52015 333 55300 20007 91122 91214;
0149066690999992011011500004+47483+008400FM-12+084399999V0202101N007719999999N9999999N1+00381+00341999999ADDMA1999999092291MD1210171+9999ME1315099OA149901241REMSYN088AAXX  15004 06669 43/// /2115 10038 20034 39229 48509 52017 333 55300 20007 91124 91215;
0149066690999992011011501004+47483+008400FM-12+084399999V0202301N006219999999N9999999N1+00431+00371999999ADDMA1999999092391MD1210201+9999ME1315199OA149901241REMSYN088AAXX  15014 06669 43/// /2312 10043 20037 39239 48519 52020 333 55300 20007 91124 91216;
0149066690999992011011502004+47483+008400FM-12+084399999V0202201N006219999999N9999999N1+00411+00371999999ADDMA1999999092441MD1219999+9999ME1315239OA149901241REMSYN088AAXX  15024 06669 43/// /2212 10041 20037 39244 48523 52/// 333 55300 20007 91124 91216;
0112066690999992011011503004+47483+008400FM-12+084399999V0202501N006719999999N9999999N1+00451+00411999999ADDMA1999999092511ME1315309REMSYN076AAXX  15034 06669 43/// /2513 10045 20041 39251 48530 5//// 333 553// 20007;
0149066690999992011011504004+47483+008400FM-12+084399999V0202601N006219999999N9999999N1+00431+00391999999ADDMA1999999092591MD1210201+9999ME1315369OA149901391REMSYN088AAXX  15044 06669 43/// /2612 10043 20039 39259 48536 52020 333 55300 20007 91127 91215;
0149066690999992011011505004+47483+008400FM-12+084399999V0202401N006719999999N9999999N1+00411+00321999999ADDMA1999999092671MD1110231+9999ME1315439OA149901241REMSYN088AAXX  15054 06669 43/// /2413 10041 20032 39267 48543 51023 333 55300 20007 91124 91213;
0182066690999992011011506004+47483+008400FM-12+084399999V0202001N005119999999N9999999N1+00361+00301999999ADDGJ100009KA1999N+00381MA1999999092751MD1310241+9999ME1315489OA149901391REMSYN100AAXX  15064 06669 43/// /2010 10036 20030 39275 48548 53024 333 20038 55000 55300 20007 91127 91216;
0149066690999992011011507004+47483+008400FM-12+084399999V0202101N004619999999N9999999N1+00381+00251999999ADDMA1999999092821MD1110231+9999ME1315559OA149901291REMSYN088AAXX  15074 06669 43/// /2109 10038 20025 39282 48555 51023 333 55300 20011 91125 91215;
0149066690999992011011508004+47483+008400FM-12+084399999V0202201N004619999999N9999999N1+00391+00251999999ADDMA1999999092821MD1219999+9999ME1315559OA149901031REMSYN088AAXX  15084 06669 43/// /2209 10039 20025 39282 48555 52/// 333 55304 20094 91120 91213;
0149066690999992011011509004+47483+008400FM-12+084399999V0202001N002619999999N9999999N1+00471+00291999999ADDMA1999999092891MD1210141+9999ME1315639OA149901291REMSYN088AAXX  15094 06669 43/// /2005 10047 20029 39289 48563 52014 333 553// 20490 91125 91215;
0149066690999992011011510004+47483+008400FM-12+084399999V0202001N003119999999N9999999N1+00501+00301999999ADDMA1999999092901MD1210081+9999ME1315659OA149900771REMSYN088AAXX  15104 06669 43/// /2006 10050 20030 39290 48565 52008 333 553// 20929 91115 91210;
0149066690999992011011511004+47483+008400FM-12+084399999V0201701N003119999999N9999999N1+00531+00311999999ADDMA1999999092861MD1010041+9999ME1315629OA149900571REMSYN088AAXX  15114 06669 43/// /1706 10053 20031 39286 48562 50004 333 55309 2//// 91111 91206;
0149066690999992011011512004+47483+008400FM-12+084399999V0202001N001519999999N9999999N1+00641+00361999999ADDMA1999999092841MD1710051+9999ME1315649OA149901391REMSYN088AAXX  15124 06669 43/// /2003 10064 20036 39284 48564 57005 333 55305 2//// 91127 91216;
0112066690999992011011513004+47483+008400FM-12+084399999V0202201N002119999999N9999999N1+00611+00291999999ADDMA1999999092811ME1315609REMSYN076AAXX  15134 06669 43/// /2204 10061 20029 39281 48560 5//// 333 553// 20706;
0096066690999992011011514004+47483+008400FM-12+084399999V0201801N002619999999N9999999N1+00651+00301999999ADDMA1999999092851ME1315659REMSYN060AAXX  15144 06669 43/// /1805 10065 20030 39285 48565 5////;
0096066690999992011011515004+47483+008400FM-12+084399999V0201801N002619999999N9999999N1+00651+00291999999ADDMA1999999092861ME1315669REMSYN060AAXX  15154 06669 43/// /1805 10065 20029 39286 48566 5////;
0096066690999992011011516004+47483+008400FM-12+084399999V0201801N003119999999N9999999N1+00581+00261999999ADDMA1999999092891ME1315669REMSYN060AAXX  15164 06669 43/// /1806 10058 20026 39289 48566 5////;
0112066690999992011011517004+47483+008400FM-12+084399999V0201801N004619999999N9999999N1+00591+00241999999ADDMA1999999092871ME1315659REMSYN076AAXX  15174 06669 43/// /1809 10059 20024 39287 48565 5//// 333 553// 20014;
0119066690999992011011518004+47483+008400FM-12+084399999V0201901N004619999999N9999999N1+00611+00251999999ADDKA1999M+00681MA1999999092901ME1315689REMSYN070AAXX  15184 06669 43/// /1909 10061 20025 39290 48568 5//// 333 10068;
0096066690999992011011519004+47483+008400FM-12+084399999V0201801N007219999999N9999999N1+00571+00291999999ADDMA1999999092871ME1315649REMSYN060AAXX  15194 06669 43/// /1814 10057 20029 39287 48564 5////;
0096066690999992011011520004+47483+008400FM-12+084399999V0202001N003619999999N9999999N1+00551+00281999999ADDMA1999999092921ME1315689REMSYN060AAXX  15204 06669 43/// /2007 10055 20028 39292 48568 5////;
0149066690999992011011521004+47483+008400FM-12+084399999V0201801N005719999999N9999999N1+00551+00271999999ADDMA1999999092871MD1710031+9999ME1315649OA149900771REMSYN088AAXX  15214 06669 43/// /1811 10055 20027 39287 48564 57003 333 55300 20007 91115 91214;
0149066690999992011011522004+47483+008400FM-12+084399999V0201901N005119999999N9999999N1+00531+00261999999ADDMA1999999092901MD1310031+9999ME1315669OA149900721REMSYN088AAXX  15224 06669 43/// /1910 10053 20026 39290 48566 53003 333 55300 20007 91114 91213;
0149066690999992011011523004+47483+008400FM-12+084399999V0201901N005719999999N9999999N1+00501+00251999999ADDMA1999999092871MD1710051+9999ME1315629OA149900671REMSYN088AAXX  15234 06669 43/// /1911 10050 20025 39287 48562 57005 333 55300 20011 91113 91211;
0149066690999992011011600004+47483+008400FM-12+084399999V0201801N005719999999N9999999N1+00501+00241999999ADDMA1999999092821MD1810051+9999ME1315589OA149900771REMSYN088AAXX  16004 06669 43/// /1811 10050 20024 39282 48558 58005 333 55300 20007 91115 91214;
0149066690999992011011601004+47483+008400FM-12+084399999V0201901N004619999999N9999999N1+00491+00241999999ADDMA1999999092821MD1610081+9999ME1315589OA149900671REMSYN088AAXX  16014 06669 43/// /1909 10049 20024 39282 48558 56008 333 55300 20007 91113 91212;
0149066690999992011011602004+47483+008400FM-12+084399999V0201801N003119999999N9999999N1+00491+00231999999ADDMA1999999092811MD1619999+9999ME1315579OA149900571REMSYN088AAXX  16024 06669 43/// /1806 10049 20023 39281 48557 56/// 333 55300 20007 91111 91210;
0096066690999992011011603004+47483+008400FM-12+084399999V0201901N004619999999N9999999N1+00481+00221999999ADDMA1999999092801ME1315569REMSYN060AAXX  16034 06669 43/// /1909 10048 20022 39280 48556 5////;
0149066690999992011011604004+47483+008400FM-12+084399999V0202001N004119999999N9999999N1+00471+00201999999ADDMA1999999092791MD1710031+9999ME1315559OA149900671REMSYN088AAXX  16044 06669 43/// /2008 10047 20020 39279 48555 57003 333 55300 20007 91113 91210;
0149066690999992011011605004+47483+008400FM-12+084399999V0202201N005719999999N9999999N1+00391+00181999999ADDMA1999999092791MD1710021+9999ME1315539OA149900721REMSYN088AAXX  16054 06669 43/// /2211 10039 20018 39279 48553 57002 333 55300 20011 91114 91211;
0182066690999992011011606004+47483+008400FM-12+084399999V0202901N006219999999N9999999N1+00401+00181999999ADDGJ103489KA1999N+00321MA1999999092811MD1310011+9999ME1315559OA149901081REMSYN100AAXX  16064 06669 43/// /2912 10040 20018 39281 48555 53001 333 20032 55058 55300 20007 91121 91214;
0149066690999992011011607004+47483+008400FM-12+084399999V0202901N007219999999N9999999N1+00381+00211999999ADDMA1999999092831MD1210041+9999ME1315569OA149901131REMSYN088AAXX  16074 06669 43/// /2914 10038 20021 39283 48556 52004 333 55300 20011 91122 91215;
0149066690999992011011608004+47483+008400FM-12+084399999V0202601N004119999999N9999999N1+00531+00111999999ADDMA1999999092871MD1219999+9999ME1315639OA149901131REMSYN088AAXX  16084 06669 43/// /2608 10053 20011 39287 48563 52/// 333 55304 20090 91122 91215;
0149066690999992011011609004+47483+008400FM-12+084399999V0201901N004119999999N9999999N1+00311+00161999999ADDMA1999999092891MD1110081+9999ME1315599OA149901131REMSYN088AAXX  16094 06669 43/// /1908 10031 20016 39289 48559 51008 333 553// 20526 91122 91215;
0149066690999992011011610004+47483+008400FM-12+084399999V0201901N004619999999N9999999N1+00371+00161999999ADDMA1999999092901MD1110071+9999ME1315619OA149900621REMSYN088AAXX  16104 06669 43/// /1909 10037 20016 39290 48561 51007 333 553// 2//// 91112 91210;
0149066690999992011011611004+47483+008400FM-12+084399999V0201801N004619999999N9999999N1+00471+00111999999ADDMA1999999092881MD1010011+9999ME1315629OA149900671REMSYN088AAXX  16114 06669 43/// /1809 10047 20011 39288 48562 50001 333 553// 2//// 91113 91210;
0149066690999992011011612004+47483+008400FM-12+084399999V0201801N004619999999N9999999N1+00531+00081999999ADDMA1999999092831MD1710061+9999ME1315609OA149901131REMSYN088AAXX  16124 06669 43/// /1809 10053 20008 39283 48560 57006 333 553// 2//// 91122 91215;
0149066690999992011011613004+47483+008400FM-12+084399999V0201701N003119999999N9999999N1+00581+00121999999ADDMA1999999092781MD1810121+9999ME1315579OA149900671REMSYN088AAXX  16134 06669 43/// /1706 10058 20012 39278 48557 58012 333 553// 2//// 91113 91209;
0149066690999992011011614004+47483+008400FM-12+084399999V0201701N003619999999N9999999N1+00671+00121999999ADDMA1999999092771MD1719999+9999ME1315589OA149900671REMSYN088AAXX  16144 06669 43/// /1707 10067 20012 39277 48558 57/// 333 553// 2//// 91113 91209;
0149066690999992011011615004+47483+008400FM-12+084399999V0201801N004119999999N9999999N1+00671+00111999999ADDMA1999999092751MD1710081+9999ME1315569OA149900671REMSYN088AAXX  16154 06669 43/// /1808 10067 20011 39275 48556 57008 333 553// 20655 91113 91210;
0149066690999992011011616004+47483+008400FM-12+084399999V0201901N004619999999N9999999N1+00681+00051999999ADDMA1999999092751MD1710031+9999ME1315579OA149900571REMSYN088AAXX  16164 06669 43/// /1909 10068 20005 39275 48557 57003 333 55306 20184 91111 91209;
0149066690999992011011617004+47483+008400FM-12+084399999V0202001N005119999999N9999999N1+00661+00061999999ADDMA1999999092771MD1510001+9999ME1315589OA149900621REMSYN088AAXX  16174 06669 43/// /2010 10066 20006 39277 48558 55000 333 55300 20011 91112 91210;
0168066690999992011011618004+47483+008400FM-12+084399999V0202001N005119999999N9999999N1+00691+00041999999ADDKA1120M+00711MA1999999092771MD1210021+9999ME1315599OA149901131REMSYN094AAXX  16184 06669 43/// /2010 10069 20004 39277 48559 52002 333 10071 55300 20007 91122 91215;
0149066690999992011011619004+47483+008400FM-12+084399999V0202101N005719999999N9999999N1+00671+00021999999ADDMA1999999092781MD1210031+9999ME1315599OA149900721REMSYN088AAXX  16194 06669 43/// /2111 10067 20002 39278 48559 52003 333 55300 20007 91114 91211;
0149066690999992011011620004+47483+008400FM-12+084399999V0202001N006219999999N9999999N1+00581+00101999999ADDMA1999999092781MD1210011+9999ME1315579OA149900771REMSYN088AAXX  16204 06669 43/// /2012 10058 20010 39278 48557 52001 333 55300 20007 91115 91213;
0149066690999992011011621004+47483+008400FM-12+084399999V0202001N006719999999N9999999N1+00551+00071999999ADDMA1999999092801MD1210031+9999ME1315589OA149901031REMSYN088AAXX  16214 06669 43/// /2013 10055 20007 39280 48558 52003 333 55300 20007 91120 91214;
0149066690999992011011622004+47483+008400FM-12+084399999V0202201N007719999999N9999999N1+00581+00041999999ADDMA1999999092811MD1210031+9999ME1315599OA149901031REMSYN088AAXX  16224 06669 43/// /2215 10058 20004 39281 48559 52003 333 55300 20007 91120 91215;
0149066690999992011011623004+47483+008400FM-12+084399999V0202101N006219999999N9999999N1+00481+00081999999ADDMA1999999092811MD1210031+9999ME1315579OA149900981REMSYN088AAXX  16234 06669 43/// /2112 10048 20008 39281 48557 52003 333 55300 20011 91119 91215;
0149066690999992011011700004+47483+008400FM-12+084399999V0202201N006719999999N9999999N1+00491+00071999999ADDMA1999999092811MD1010011+9999ME1315579OA149901031REMSYN088AAXX  17004 06669 43/// /2213 10049 20007 39281 48557 50001 333 55300 20007 91120 91215;
0149066690999992011011701004+47483+008400FM-12+084399999V0202201N006219999999N9999999N1+00561+00071999999ADDMA1999999092791MD1710021+9999ME1315579OA149900821REMSYN088AAXX  17014 06669 43/// /2212 10056 20007 39279 48557 57002 333 55300 20007 91116 91214;
0149066690999992011011702004+47483+008400FM-12+084399999V0202201N006719999999N9999999N1+00551+00091999999ADDMA1999999092781MD1719999+9999ME1315569OA149900881REMSYN088AAXX  17024 06669 43/// /2213 10055 20009 39278 48556 57/// 333 55300 20007 91117 91213;
0112066690999992011011703004+47483+008400FM-12+084399999V0202201N006719999999N9999999N1+00561+00121999999ADDMA1999999092781ME1315569REMSYN076AAXX  17034 06669 43/// /2213 10056 20012 39278 48556 5//// 333 553// 20007;
0149066690999992011011704004+47483+008400FM-12+084399999V0202201N005119999999N9999999N1+00571+00061999999ADDMA1999999092761MD1710031+9999ME1315559OA149900931REMSYN088AAXX  17044 06669 43/// /2210 10057 20006 39276 48555 57003 333 55300 20007 91118 91214;
0149066690999992011011705004+47483+008400FM-12+084399999V0202101N005719999999N9999999N1+00741-00071999999ADDMA1999999092711MD1710071+9999ME1315559OA149900821REMSYN088AAXX  17054 06669 43/// /2111 10074 21007 39271 48555 57007 333 55300 20007 91116 91213;
0182066690999992011011706004+47483+008400FM-12+084399999V0202301N005119999999N9999999N1+00791-00211999999ADDGJ104809KA1999N+00471MA1999999092701MD1810081+9999ME1315559OA149901031REMSYN100AAXX  17064 06669 43/// /2310 10079 21021 39270 48555 58008 333 20047 55080 55300 20007 91120 91215;
0149066690999992011011707004+47483+008400FM-12+084399999V0202201N004119999999N9999999N1+00641-00051999999ADDMA1999999092681MD1610081+9999ME1315509OA149900621REMSYN088AAXX  17074 06669 43/// /2208 10064 21005 39268 48550 56008 333 55300 20011 91112 91211;
0096066690999992011011708004+47483+008400FM-12+084399999V0202101N004119999999N9999999N1+00511+00001999999ADDMA1999999092671ME1315459REMSYN060AAXX  17084 06669 43/// /2108 10051 20000 39267 48545 5////;
0096066690999992011011709004+47483+008400FM-12+084399999V0202101N004119999999N9999999N1+00461+00011999999ADDMA1999999092661ME1315439REMSYN060AAXX  17094 06669 43/// /2108 10046 20001 39266 48543 5////;
0149066690999992011011710004+47483+008400FM-12+084399999V0202201N006719999999N9999999N1+00381+00041999999ADDMA1999999092681MD1510001+9999ME1315439OA149900931REMSYN088AAXX  17104 06669 43/// /2213 10038 20004 39268 48543 55000 333 553// 20994 91118 91213;
0149066690999992011011711004+47483+008400FM-12+084399999V0202201N007719999999N9999999N1+00271+00031999999ADDMA1999999092671MD1010001+9999ME1315399OA149901291REMSYN088AAXX  17114 06669 43/// /2215 10027 20003 39267 48539 50000 333 553// 2//// 91125 91215;
0149066690999992011011712004+47483+008400FM-12+084399999V0202101N007219999999N9999999N1+00291+00081999999ADDMA1999999092661MD1010001+9999ME1315399OA149901291REMSYN088AAXX  17124 06669 43/// /2114 10029 20008 39266 48539 50000 333 553// 2//// 91125 91216;
0149066690999992011011713004+47483+008400FM-12+084399999V0202201N005719999999N9999999N1+00351+00131999999ADDMA1999999092671MD1010011+9999ME1315419OA149901291REMSYN088AAXX  17134 06669 43/// /2211 10035 20013 39267 48541 50001 333 553// 2//// 91125 91216;
0096066690999992011011714004+47483+008400FM-12+084399999V0202201N007219999999N9999999N1+00391+00141999999ADDMA1999999092671ME1315429REMSYN060AAXX  17144 06669 43/// /2214 10039 20014 39267 48542 5////;
0096066690999992011011715004+47483+008400FM-12+084399999V0202001N005119999999N9999999N1+00401+00181999999ADDMA1999999092701ME1315459REMSYN060AAXX  17154 06669 43/// /2010 10040 20018 39270 48545 5////;
0149066690999992011011716004+47483+008400FM-12+084399999V0202301N005719999999N9999999N1+00401+00161999999ADDMA1999999092741MD1210071+9999ME1315489OA149900931REMSYN088AAXX  17164 06669 43/// /2311 10040 20016 39274 48548 52007 333 55306 20166 91118 91213;
0149066690999992011011717004+47483+008400FM-12+084399999V0202401N005119999999N9999999N1+00511+00111999999ADDMA1999999092771MD1310101+9999ME1315549OA149900771REMSYN088AAXX  17174 06669 43/// /2410 10051 20011 39277 48554 53010 333 55300 20011 91115 91211;
0168066690999992011011718004+47483+008400FM-12+084399999V0202101N003619999999N9999999N1+00461+00151999999ADDKA1120M+00801MA1999999092781MD1110081+9999ME1315549OA149901291REMSYN094AAXX  17184 06669 43/// /2107 10046 20015 39278 48554 51008 333 10080 55300 20007 91125 91216;
0149066690999992011011719004+47483+008400FM-12+084399999V0202201N006719999999N9999999N1+00411+00181999999ADDMA1999999092801MD1210061+9999ME1315549OA149900881REMSYN088AAXX  17194 06669 43/// /2213 10041 20018 39280 48554 52006 333 55300 20007 91117 91213;
0149066690999992011011720004+47483+008400FM-12+084399999V0202101N005719999999N9999999N1+00411+00211999999ADDMA1999999092811MD1210041+9999ME1315559OA149900881REMSYN088AAXX  17204 06669 43/// /2111 10041 20021 39281 48555 52004 333 55300 20011 91117 91213;
0149066690999992011011721004+47483+008400FM-12+084399999V0202001N005719999999N9999999N1+00431+00181999999ADDMA1999999092791MD1010011+9999ME1315549OA149900881REMSYN088AAXX  17214 06669 43/// /2011 10043 20018 39279 48554 50001 333 55300 20007 91117 91213;
0149066690999992011011722004+47483+008400FM-12+084399999V0202101N006219999999N9999999N1+00451+00171999999ADDMA1999999092801MD1410001+9999ME1315559OA149900771REMSYN088AAXX  17224 06669 43/// /2112 10045 20017 39280 48555 52000 333 55300 20007 91115 91212;
0149066690999992011011723004+47483+008400FM-12+084399999V0202101N006219999999N9999999N1+00441+00201999999ADDMA1999999092791MD1810021+9999ME1315549OA149900821REMSYN088AAXX  17234 06669 43/// /2112 10044 20020 39279 48554 58002 333 55300 20007 91116 91212;
0149066690999992011011800004+47483+008400FM-12+084399999V0202201N006719999999N9999999N1+00451+00121999999ADDMA1999999092791MD1010001+9999ME1315549OA149901241REMSYN088AAXX  18004 06669 43/// /2213 10045 20012 39279 48554 50000 333 55300 20011 91124 91216;
0149066690999992011011801004+47483+008400FM-12+084399999V0202401N005119999999N9999999N1+00601+00121999999ADDMA1999999092821MD1219999+9999ME1315619OA149900931REMSYN088AAXX  18014 06669 43/// /2410 10060 20012 39282 48561 52/// 333 55300 20007 91118 91214;
0096066690999992011011802004+47483+008400FM-12+084399999V0202401N003119999999N9999999N1+00531+00141999999ADDMA1999999092801ME1315579REMSYN060AAXX  18024 06669 43/// /2406 10053 20014 39280 48557 5////;
0096066690999992011011803004+47483+008400FM-12+084399999V0202301N004119999999N9999999N1+00481+00141999999ADDMA1999999092771ME1315539REMSYN060AAXX  18034 06669 43/// /2308 10048 20014 39277 48553 5////;
0112066690999992011011804004+47483+008400FM-12+084399999V0202201N005119999999N9999999N1+00501+00171999999ADDMA1999999092721ME1315499REMSYN076AAXX  18044 06669 43/// /2210 10050 20017 39272 48549 5//// 333 553// 20007;
0149066690999992011011805004+47483+008400FM-12+084399999V0202401N005119999999N9999999N1+00421+00171999999ADDMA1999999092711MD1610091+9999ME1315469OA149900671REMSYN088AAXX  18054 06669 43/// /2410 10042 20017 39271 48546 56009 333 55300 20011 91113 91210;
0182066690999992011011806004+47483+008400FM-12+084399999V0202701N003119999999N9999999N1+00521+00241999999ADDGJ104749KA1999N+00351MA1999999092721MD1510051+9999ME1315509OA149900931REMSYN100AAXX  18064 06669 43/// /2706 10052 20024 39272 48550 55005 333 20035 55079 55300 20007 91118 91214;
0149066690999992011011807004+47483+008400FM-12+084399999V0202601N004119999999N9999999N1+00541+00301999999ADDMA1999999092731MD1210011+9999ME1315519OA149900821REMSYN088AAXX  18074 06669 43/// /2608 10054 20030 39273 48551 52001 333 55300 20011 91116 91210;
0096066690999992011011808004+47483+008400FM-12+084399999V0202101N003619999999N9999999N1+00451+00261999999ADDMA1999999092741ME1315509REMSYN060AAXX  18084 06669 43/// /2107 10045 20026 39274 48550 5////;
0096066690999992011011809004+47483+008400FM-12+084399999V0201901N005119999999N9999999N1+00271+00091999999ADDMA1999999092731ME1315449REMSYN060AAXX  18094 06669 43/// /1910 10027 20009 39273 48544 5////;
0149066690999992011011810004+47483+008400FM-12+084399999V0201901N004619999999N9999999N1+00331+00051999999ADDMA1999999092711MD1810021+9999ME1315449OA149900671REMSYN088AAXX  18104 06669 43/// /1909 10033 20005 39271 48544 58002 333 55303 20490 91113 91211;
0149066690999992011011811004+47483+008400FM-12+084399999V0201901N005119999999N9999999N1+00341+00051999999ADDMA1999999092671MD1710071+9999ME1315419OA149900621REMSYN088AAXX  18114 06669 43/// /1910 10034 20005 39267 48541 57007 333 55300 20400 91112 91210;
0149066690999992011011812004+47483+008400FM-12+084399999V0202101N005119999999N9999999N1+00361+00051999999ADDMA1999999092631MD1719999+9999ME1315389OA149900881REMSYN088AAXX  18124 06669 43/// /2110 10036 20005 39263 48538 57/// 333 55300 20418 91117 91213;
