0135066621999992011010100204+47183+007417AUTO +0430LSZG V0202601N000510009019N0002001N1-00101-00101999999ADDAW1301GA1091+000901999GF109991999999000251999999MA1102201999999REMMET060METAR LSZG 010020Z AUTO 26001KT 0200 FG VV003 M01/M01 Q1022;
0135066621999992011010100504+47183+007417AUTO +0430LSZG V0202601N001010009019N0003001N1-00101-00101999999ADDAW1301GA1091+000901999GF109991999999000251999999MA1102201999999REMMET060METAR LSZG 010050Z AUTO 26002KT 0300 FG VV003 M01/M01 Q1022;
0136066621999992011010101204+47183+007417AUTO +0430LSZG V0202701N001010006019N0008001N1-00101-00101999999ADDAW1301GA1071+000601999GF107991999999999999999999MA1102101999999REMMET061METAR LSZG 010120Z AUTO 27002KT 0800 FG BKN002 M01/M01 Q1021;
0136066621999992011010101504+47183+007417AUTO +0430LSZG V0202601N001010012019N0015001N1-00101-00101999999ADDAW1101GA1081+001201999GF108991999999999999999999MA1102201999999REMMET061METAR LSZG 010150Z AUTO 26002KT 1500 BR OVC004 M01/M01 Q1022;
0136066621999992011010102204+47183+007417AUTO +0430LSZG V0202401N001510006019N0009001N1-00101-00101999999ADDAW1301GA1081+000601999GF108991999999999999999999MA1102101999999REMMET061METAR LSZG 010220Z AUTO 24003KT 0900 FG OVC002 M01/M01 Q1021;
0136066621999992011010102504+47183+007417AUTO +0430LSZG V0202401N001510006019N0008001N1-00101-00101999999ADDAW1101GA1081+000601999GF108991999999999999999999MA1102101999999REMMET061METAR LSZG 010250Z AUTO 24003KT 0800 BR OVC002 M01/M01 Q1021;
0136066621999992011010103204+47183+007417AUTO +0430LSZG V0202301N001010006019N0016001N1-00101-00101999999ADDAW1101GA1081+000601999GF108991999999999999999999MA1102101999999REMMET061METAR LSZG 010320Z AUTO 23002KT 1600 BR OVC002 M01/M01 Q1021;
0135066621999992011010103504+47183+007417AUTO +0430LSZG V0202401N002110006019N0003501N1-00101-00101999999ADDAW1301GA1091+000601999GF109991999999000251999999MA1102101999999REMMET060METAR LSZG 010350Z AUTO 24004KT 0350 FG VV002 M01/M01 Q1021;
0135066621999992011010104204+47183+007417AUTO +0430LSZG V0202301N002110009019N0002501N1-00101-00101999999ADDAW1301GA1091+000901999GF109991999999000251999999MA1102101999999REMMET060METAR LSZG 010420Z AUTO 23004KT 0250 FG VV003 M01/M01 Q1021;
0136066621999992011010104504+47183+007417AUTO +0430LSZG V0202301N002612200019N0010001N1+00001-00101999999ADDAW1301GA1041+000601999GF104991999999999999999999MA1102101999999REMMET061METAR LSZG 010450Z AUTO 23005KT 1000 FG SCT002 M00/M01 Q1021;
0136066621999992011010105204+47183+007417AUTO +0430LSZG V0202301N002610009019N0025001N1+00001-00101999999ADDAW1101GA1081+000901999GF108991999999999999999999MA1102101999999REMMET061METAR LSZG 010520Z AUTO 23005KT 2500 BR OVC003 M00/M01 Q1021;
0136066621999992011010105504+47183+007417AUTO +0430LSZG V0202201N002110009019N0021001N1+00001-00101999999ADDAW1101GA1081+000901999GF108991999999999999999999MA1102101999999REMMET061METAR LSZG 010550Z AUTO 22004KT 2100 BR OVC003 M00/M01 Q1021;
0136066621999992011010106204+47183+007417AUTO +0430LSZG V0202201N001510009019N0022001N1+00001-00101999999ADDAW1101GA1081+000901999GF108991999999999999999999MA1102101999999REMMET061METAR LSZG 010620Z AUTO 22003KT 2200 BR OVC003 M00/M01 Q1021;
0135066621999992011010106504+47183+007417AUTO +0430LSZG V0202601N001010006019N0004001N1+00001-00101999999ADDAW1301GA1091+000601999GF109991999999000251999999MA1102101999999REMMET060METAR LSZG 010650Z AUTO 26002KT 0400 FG VV002 M00/M01 Q1021;
0135066621999992011010107204+47183+007417AUTO +0430LSZG V0202501N001510006019N0002001N1+00001+00001999999ADDAW1301GA1091+000601999GF109991999999000251999999MA1102101999999REMMET060METAR LSZG 010720Z AUTO 25003KT 0200 FG VV002 M00/M00 Q1021;
0135066621999992011010107504+47183+007417AUTO +0430LSZG V0202401N001510006019N0002501N1+00001+00001999999ADDAW1301GA1091+000601999GF109991999999000251999999MA1102101999999REMMET060METAR LSZG 010750Z AUTO 24003KT 0250 FG VV002 M00/M00 Q1021;
0135066621999992011010108204+47183+007417AUTO +0430LSZG V0202401N001510006019N0002501N1+00001+00001999999ADDAW1301GA1091+000601999GF109991999999000251999999MA1102101999999REMMET060METAR LSZG 010820Z AUTO 24003KT 0250 FG VV002 M00/M00 Q1021;
0135066621999992011010108504+47183+007417AUTO +0430LSZG V0202401N001510009019N0003001N1+00001+00001999999ADDAW1301GA1091+000901999GF109991999999000251999999MA1102101999999REMMET060METAR LSZG 010850Z AUTO 24003KT 0300 FG VV003 M00/M00 Q1021;
0135066621999992011010109204+47183+007417AUTO +0430LSZG V0202401N001010006019N0002001N1+00001+00001999999ADDAW1301GA1091+000601999GF109991999999000251999999MA1102201999999REMMET060METAR LSZG 010920Z AUTO 24002KT 0200 FG VV002 M00/M00 Q1022;
0135066621999992011010109504+47183+007417AUTO +0430LSZG V0202501N001010006019N0002001N1+00001+00001999999ADDAW1301GA1091+000601999GF109991999999000251999999MA1102101999999REMMET060METAR LSZG 010950Z AUTO 25002KT 0200 FG VV002 M00/M00 Q1021;
0135066621999992011010110204+47183+007417AUTO +0430LSZG V0202501N001010009019N0002501N1+00001+00001999999ADDAW1301GA1091+000901999GF109991999999000251999999MA1102101999999REMMET060METAR LSZG 011020Z AUTO 25002KT 0250 FG VV003 M00/M00 Q1021;
0134066621999992011010110504+47183+007417AUTO +0430LSZG V0202401N001510009019N0003001N1+00001+00001999999ADDAW1301GA1091+000901999GF109991999999000251999999MA1102101999999REMMET059METAR LSZG 011050Z AUTO 24003KT 0300 FG VV003 00/M00 Q1021;
0133066621999992011010111204+47183+007417AUTO +0430LSZG V0202401N001510009019N0006001N1+00001+00001999999ADDAW1301GA1091+000901999GF109991999999000251999999MA1102101999999REMMET058METAR LSZG 011120Z AUTO 24003KT 0600 FG VV003 00/00 Q1021;
0134066621999992011010111504+47183+007417AUTO +0430LSZG V0202401N001510009019N0014001N1+00001+00001999999ADDAW1101GA1081+000901999GF108991999999999999999999MA1102001999999REMMET059METAR LSZG 011150Z AUTO 24003KT 1400 BR OVC003 00/00 Q1020;
0134066621999992011010112204+47183+007417AUTO +0430LSZG V0202301N001510033019N0017001N1+00101+00001999999ADDAW1101GA1081+003301999GF108991999999999999999999MA1102001999999REMMET059METAR LSZG 011220Z AUTO 23003KT 1700 BR OVC011 01/00 Q1020;
0135066621999992011010112504+47183+007417AUTO +0430LSZG V0202201N001510027019N0026001N1+00101+00001999999ADDAW1101GA1081+002701999GF108991999999999999999999MA1102001999999REMMET060METAR LSZG 011250Z AUTO 22003KT 2600 BR OVC009 01/M00 Q1020;
0135066621999992011010113204+47183+007417AUTO +0430LSZG V0202301N001510027019N0042001N1+00101+00001999999ADDAW1101GA1081+002701999GF108991999999999999999999MA1101901999999REMMET060METAR LSZG 011320Z AUTO 23003KT 4200 BR OVC009 01/M00 Q1019;
0126066621999992011010113504+47183+007417AUTO +0430LSZG V0202301N001510027019N0080001N1+00101+00001999999ADDGA1071+002701999GF107991999999999999999999MA1101901999999REMMET057METAR LSZG 011350Z AUTO 23003KT 8000 BKN009 01/M00 Q1019;
0126066621999992011010114204+47183+007417AUTO +0430LSZG V0202501N001010027019N0080001N1+00101-00101999999ADDGA1081+002701999GF108991999999999999999999MA1101901999999REMMET057METAR LSZG 011420Z AUTO 25002KT 8000 OVC009 01/M01 Q1019;
0126066621999992011010114504+47183+007417AUTO +0430LSZG V0202301N001510027019N0080001N1+00101-00101999999ADDGA1081+002701999GF108991999999999999999999MA1101901999999REMMET057METAR LSZG 011450Z AUTO 23003KT 8000 OVC009 01/M01 Q1019;
0126066621999992011010115204+47183+007417AUTO +0430LSZG V0202401N001010024019N0070001N1+00101+00001999999ADDGA1081+002401999GF108991999999999999999999MA1101901999999REMMET057METAR LSZG 011520Z AUTO 24002KT 7000 OVC008 01/M00 Q1019;
0126066621999992011010115504+47183+007417AUTO +0430LSZG V0202201N000510024019N0070001N1+00101-00101999999ADDGA1081+002401999GF108991999999999999999999MA1101901999999REMMET057METAR LSZG 011550Z AUTO 22001KT 7000 OVC008 01/M01 Q1019;
0126066621999992011010116204+47183+007417AUTO +0430LSZG V0202201N000510021019N0060001N1+00101-00101999999ADDGA1081+002101999GF108991999999999999999999MA1101901999999REMMET057METAR LSZG 011620Z AUTO 22001KT 6000 OVC007 01/M01 Q1019;
0126066621999992011010116504+47183+007417AUTO +0430LSZG V0209999V000510024019N0060001N1+00101-00101999999ADDGA1081+002401999GF108991999999999999999999MA1101901999999REMMET057METAR LSZG 011650Z AUTO VRB01KT 6000 OVC008 01/M01 Q1019;
0126066621999992011010117204+47183+007417AUTO +0430LSZG V0200901N001010021019N0050001N1+00101+00001999999ADDGA1081+002101999GF108991999999999999999999MA1101901999999REMMET057METAR LSZG 011720Z AUTO 09002KT 5000 OVC007 01/M00 Q1019;
0135066621999992011010117504+47183+007417AUTO +0430LSZG V0200801N001510021019N0049001N1+00101-00101999999ADDAW1101GA1081+002101999GF108991999999999999999999MA1101901999999REMMET060METAR LSZG 011750Z AUTO 08003KT 4900 BR OVC007 01/M01 Q1019;
0126066621999992011010118204+47183+007417AUTO +0430LSZG V0200801N001510024019N0060001N1+00101+00001999999ADDGA1081+002401999GF108991999999999999999999MA1101901999999REMMET057METAR LSZG 011820Z AUTO 08003KT 6000 OVC008 01/M00 Q1019;
0135066621999992011010118504+47183+007417AUTO +0430LSZG V0200601N001510024019N0049001N1+00101+00001999999ADDAW1101GA1081+002401999GF108991999999999999999999MA1101901999999REMMET060METAR LSZG 011850Z AUTO 06003KT 4900 BR OVC008 01/M00 Q1019;
0126066621999992011010119204+47183+007417AUTO +0430LSZG V0200901N001510024019N0050001N1+00101-00101999999ADDGA1081+002401999GF108991999999999999999999MA1101901999999REMMET057METAR LSZG 011920Z AUTO 09003KT 5000 OVC008 01/M01 Q1019;
0126066621999992011010119504+47183+007417AUTO +0430LSZG V0209999V001010030019N0050001N1+00101-00101999999ADDGA1081+003001999GF108991999999999999999999MA1101901999999REMMET057METAR LSZG 011950Z AUTO VRB02KT 5000 OVC010 01/M01 Q1019;
0135066621999992011010120204+47183+007417AUTO +0430LSZG V0200201N001510027019N0045001N1+00101-00101999999ADDAW1101GA1081+002701999GF108991999999999999999999MA1102001999999REMMET060METAR LSZG 012020Z AUTO 02003KT 4500 BR OVC009 01/M01 Q1020;
0135066621999992011010120504+47183+007417AUTO +0430LSZG V0200401N001010024019N0046001N1+00101-00101999999ADDAW1101GA1081+002401999GF108991999999999999999999MA1101901999999REMMET060METAR LSZG 012050Z AUTO 04002KT 4600 BR OVC008 01/M01 Q1019;
0135066621999992011010121204+47183+007417AUTO +0430LSZG V0200901N000510021019N0048001N1+00001-00101999999ADDAW1101GA1071+002101999GF107991999999999999999999MA1101901999999REMMET060METAR LSZG 012120Z AUTO 09001KT 4800 BR BKN007 00/M01 Q1019;
0126066621999992011010121504+47183+007417AUTO +0430LSZG V0200101N001010024019N0060001N1+00101-00101999999ADDGA1071+002401999GF107991999999999999999999MA1101901999999REMMET057METAR LSZG 012150Z AUTO 01002KT 6000 BKN008 01/M01 Q1019;
0126066621999992011010122204+47183+007417AUTO +0430LSZG V0209999V000510030019N0112651N1+00101-00101999999ADDGA1081+003001999GF108991999999999999999999MA1101901999999REMMET057METAR LSZG 012220Z AUTO VRB01KT 9999 OVC010 01/M01 Q1019;
0126066621999992011010122504+47183+007417AUTO +0430LSZG V0209999V000510039019N0090001N1+00001-00101999999ADDGA1081+003901999GF108991999999999999999999MA1101901999999REMMET057METAR LSZG 012250Z AUTO VRB01KT 9000 OVC013 00/M01 Q1019;
0126066621999992011010123204+47183+007417AUTO +0430LSZG V0200801N000510042019N0112651N1+00101-00201999999ADDGA1081+004201999GF108991999999999999999999MA1101801999999REMMET057METAR LSZG 012320Z AUTO 08001KT 9999 OVC014 01/M02 Q1018;
0126066621999992011010123504+47183+007417AUTO +0430LSZG V0209999C000010045019N0090001N1+00001-00101999999ADDGA1081+004501999GF108991999999999999999999MA1101801999999REMMET057METAR LSZG 012350Z AUTO 00000KT 9000 OVC015 00/M01 Q1018;
0142066621999992011010200204+47183+007417AUTO +0430LSZG V0200301N00101004801CN0112651N1+00001-00101999999ADDGA1071+004801999GA2041+006901999MA1101801999999REMMET064METAR LSZG 020020Z AUTO 03002KT 9999 BKN016 SCT023 00/M01 Q1018;EQDQ01+000042SCOTCV
0142066621999992011010200504+47183+007417AUTO +0430LSZG V0200901N00151006001CN0112651N1+00001-00201999999ADDGA1071+006001999GA2041+007501999MA1101801999999REMMET064METAR LSZG 020050Z AUTO 09003KT 9999 BKN020 SCT025 00/M02 Q1018;EQDQ01+000042SCOTCV
0149066621999992011010201204+47183+007417AUTO +0430LSZG V0209999V001010060019N0112651N1+00001-00201999999ADDGA1021+003301999GA2081+006001999GF108991999999999999999999MA1101801999999REMMET064METAR LSZG 020120Z AUTO VRB02KT 9999 FEW011 OVC020 00/M02 Q1018;
0142066621999992011010201504+47183+007417AUTO +0430LSZG V0200701N00101004201CN0112651N1+00001-00201999999ADDGA1071+004201999GA2041+005701999MA1101801999999REMMET064METAR LSZG 020150Z AUTO 07002KT 9999 BKN014 SCT019 00/M02 Q1018;EQDQ01+000042SCOTCV
0143066621999992011010202204+47183+007417AUTO +0430LSZG V0209999C00001005401CN0112651N1+00001-00201999999ADDGA1071+005401999GA2041+009001999MA1101801999999REMMET065METAR LSZG 020220Z AUTO 00000KT 9999 BKN018 SCT030 M00/M02 Q1018;EQDQ01+000042SCOTCV
0149066621999992011010202504+47183+007417AUTO +0430LSZG V0200901N001010054019N0112651N1+00001-00201999999ADDGA1071+005401999GA2071+009901999GF107991999999999999999999MA1101801999999REMMET064METAR LSZG 020250Z AUTO 09002KT 9999 BKN018 BKN033 00/M02 Q1018;
0126066621999992011010203204+47183+007417AUTO +0430LSZG V0200401N001010054019N0112651N1+00001-00201999999ADDGA1071+005401999GF107991999999999999999999MA1101901999999REMMET057METAR LSZG 020320Z AUTO 04002KT 9999 BKN018 00/M02 Q1019;
0127066621999992011010203504+47183+007417AUTO +0430LSZG V0200501N000510120019N0112651N1+00001-00201999999ADDGA1081+012001999GF108991999999999999999999MA1101901999999REMMET058METAR LSZG 020350Z AUTO 05001KT 9999 OVC040 M00/M02 Q1019;
0127066621999992011010204204+47183+007417AUTO +0430LSZG V0200401N000510120019N0112651N1+00001-00201999999ADDGA1081+012001999GF108991999999999999999999MA1101901999999REMMET058METAR LSZG 020420Z AUTO 04001KT 9999 OVC040 M00/M02 Q1019;
0127066621999992011010204504+47183+007417AUTO +0430LSZG V0200101N000510117019N0112651N1+00001-00201999999ADDGA1081+011701999GF108991999999999999999999MA1101901999999REMMET058METAR LSZG 020450Z AUTO 01001KT 9999 OVC039 M00/M02 Q1019;
0127066621999992011010205204+47183+007417AUTO +0430LSZG V0209999C000010120019N0112651N1-00101-00201999999ADDGA1081+012001999GF108991999999999999999999MA1101901999999REMMET058METAR LSZG 020520Z AUTO 00000KT 9999 OVC040 M01/M02 Q1019;
0143066621999992011010205504+47183+007417AUTO +0430LSZG V0201101N00051008101CN0112651N1+00001-00201999999ADDGA1071+008101999GA2041+012301999MA1101901999999REMMET065METAR LSZG 020550Z AUTO 11001KT 9999 BKN027 SCT041 M00/M02 Q1019;EQDQ01+000042SCOTCV
0127066621999992011010206204+47183+007417AUTO +0430LSZG V0200601N000510126019N0112651N1+00001-00201999999ADDGA1081+012601999GF108991999999999999999999MA1101901999999REMMET058METAR LSZG 020620Z AUTO 06001KT 9999 OVC042 M00/M02 Q1019;
0157066621999992011010206504+47183+007417FM-15+0430LSZG V0200801N001010081019N0112651N1+00001-00201999999ADDGA1021+005401999GA2071+008101999GF107991999999999999999999MA1101901999999REMMET072METAR LSZG 020650Z 08002KT 9999 FEW018 BKN027 M00/M02 Q1019 R25/D NOSIG;
0151066621999992011010207204+47183+007417FM-15+0430LSZG V0200501N001010075019N0112651N1+00001-00201999999ADDGA1021+005401999GA2071+007501999GF107991999999999999999999MA1101901999999REMMET066METAR LSZG 020720Z 05002KT 9999 FEW018 BKN025 M00/M02 Q1019 NOSIG;
0174066621999992011010207504+47183+007417FM-15+0430LSZG V0200501N000510075019N0112651N1+00001-00201999999ADDGA1021+005401999GA2071+007501999GA3071+013201999GF107991999999999999999999MA1101901999999REMMET073METAR LSZG 020750Z 05001KT 9999 FEW018 BKN025 BKN044 M00/M02 Q1019 NOSIG;
0174066621999992011010208204+47183+007417FM-15+0430LSZG V0200401N001010075019N0112651N1+00001-00201999999ADDGA1021+005401999GA2071+007501999GA3071+009001999GF107991999999999999999999MA1101901999999REMMET073METAR LSZG 020820Z 04002KT 9999 FEW018 BKN025 BKN030 M00/M02 Q1019 NOSIG;
0150066621999992011010208504+47183+007417FM-15+0430LSZG V0200501N001010075019N0112651N1+00001-00201999999ADDGA1021+006001999GA2081+007501999GF108991999999999999999999MA1102001999999REMMET065METAR LSZG 020850Z 05002KT 9999 FEW020 OVC025 00/M02 Q1020 NOSIG;
0150066621999992011010209204+47183+007417FM-15+0430LSZG V0200701N002110075019N0112651N1+00001-00201999999ADDGA1021+006001999GA2081+007501999GF108991999999999999999999MA1102001999999REMMET065METAR LSZG 020920Z 07004KT 9999 FEW020 OVC025 00/M02 Q1020 NOSIG;
0150066621999992011010209504+47183+007417FM-15+0430LSZG V0200801N002610072019N0112651N1+00001-00201999999ADDGA1021+006001999GA2081+007201999GF108991999999999999999999MA1102001999999REMMET065METAR LSZG 020950Z 08005KT 9999 FEW020 OVC024 00/M02 Q1020 NOSIG;
0150066621999992011010210204+47183+007417FM-15+0430LSZG V0200701N002110078019N0112651N1+00101-00201999999ADDGA1021+006001999GA2081+007801999GF108991999999999999999999MA1102001999999REMMET065METAR LSZG 021020Z 07004KT 9999 FEW020 OVC026 01/M02 Q1020 NOSIG;
0150066621999992011010210504+47183+007417FM-15+0430LSZG V0200601N002110078019N0112651N1+00101-00101999999ADDGA1021+006001999GA2071+007801999GF107991999999999999999999MA1102001999999REMMET065METAR LSZG 021050Z 06004KT 9999 FEW020 BKN026 01/M01 Q1020 NOSIG;
0150066621999992011010211204+47183+007417FM-15+0430LSZG V0200801N002610105019N0112651N1+00101-00201999999ADDGA1041+004201999GA2071+010501999GF107991999999999999999999MA1102001999999REMMET065METAR LSZG 021120Z 08005KT 9999 SCT014 BKN035 01/M02 Q1020 NOSIG;
0150066621999992011010211504+47183+007417FM-15+0430LSZG V0200901N003610105019N0112651N1+00101-00101999999ADDGA1021+004201999GA2071+010501999GF107991999999999999999999MA1102001999999REMMET065METAR LSZG 021150Z 09007KT 9999 FEW014 BKN035 01/M01 Q1020 NOSIG;
0149066621999992011010212204+47183+007417AUTO +0430LSZG V0200901N004610138019N0112651N1+00101-00201999999ADDGA1021+009301999GA2081+013801999GF108991999999999999999999MA1102001999999REMMET064METAR LSZG 021220Z AUTO 09009KT 9999 FEW031 OVC046 01/M02 Q1020;
0150066621999992011010212504+47183+007417FM-15+0430LSZG V0200801N003610075019N0112651N1+00101-00201999999ADDGA1021+004201999GA2071+007501999GF107991999999999999999999MA1101901999999REMMET065METAR LSZG 021250Z 08007KT 9999 FEW014 BKN025 01/M02 Q1019 NOSIG;
0126066621999992011010213204+47183+007417AUTO +0430LSZG V0200601N002110081019N0112651N1+00101-00301999999ADDGA1071+008101999GF107991999999999999999999MA1102001999999REMMET057METAR LSZG 021320Z AUTO 06004KT 9999 BKN027 01/M03 Q1020;
0161066621999992011010213504+47183+007417FM-15+0430LSZG V0200701N004110150019N0112651N1+00101-00401999999ADDGA1021+007501999GA2071+015001999GF107991999999999999999999MA1102001999999MW1161REMMET070METAR LSZG 021350Z 07008KT 9999 VCSH FEW025 BKN054 01/M04 Q1020 NOSIG;
0126066621999992011010214204+47183+007417AUTO +0430LSZG V0200801N003110150019N0112651N1+00101-00501999999ADDGA1081+015001999GF108991999999999999999999MA1102001999999REMMET057METAR LSZG 021420Z AUTO 08006KT 9999 OVC050 01/M05 Q1020;
0161066621999992011010214504+47183+007417FM-15+0430LSZG V0200801N003110150019N0112651N1+00101-00501999999ADDGA1021+007501999GA2071+015001999GF107991999999999999999999MA1102001999999MW1161REMMET070METAR LSZG 021450Z 08006KT 9999 VCSH FEW025 BKN053 01/M05 Q1020 NOSIG;
0150066621999992011010215204+47183+007417FM-15+0430LSZG V0200701N004610150019N0112651N1+00101-00301999999ADDGA1021+007501999GA2071+015001999GF107991999999999999999999MA1102001999999REMMET065METAR LSZG 021520Z 07009KT 9999 FEW025 BKN054 01/M03 Q1020 NOSIG;
0150066621999992011010215504+47183+007417FM-15+0430LSZG V0200501N003110150019N0112651N1+00001-00301999999ADDGA1021+007501999GA2071+015001999GF107991999999999999999999MA1102101999999REMMET065METAR LSZG 021550Z 05006KT 9999 FEW025 BKN056 00/M03 Q1021 NOSIG;
0150066621999992011010216204+47183+007417FM-15+0430LSZG V0200801N003110150019N0112651N1+00101-00401999999ADDGA1021+009001999GA2071+015001999GF107991999999999999999999MA1102101999999REMMET065METAR LSZG 021620Z 08006KT 9999 FEW030 BKN056 01/M04 Q1021 NOSIG;
0172066621999992011010216504+47183+007417AUTO +0430LSZG V0200901N00311012001CN0112651N1+00001-00301999999ADDGA1041+009001999GA2041+012001999GA3071+015001999GF107991999999999999999999MA1102101999999REMMET071METAR LSZG 021650Z AUTO 09006KT 9999 SCT030 SCT040 BKN050 00/M03 Q1021;
0149066621999992011010217204+47183+007417AUTO +0430LSZG V0200701N002610150019N0112651N1+00001-00401999999ADDGA1021+010201999GA2081+015001999GF108991999999999999999999MA1102101999999REMMET064METAR LSZG 021720Z AUTO 07005KT 9999 FEW034 OVC050 00/M04 Q1021;
0150066621999992011010217504+47183+007417AUTO +0430LSZG V0200601N002610150019N0112651N1-00101-00501999999ADDGA1021+010501999GA2071+015001999GF107991999999999999999999MA1102101999999REMMET065METAR LSZG 021750Z AUTO 06005KT 9999 FEW035 BKN050 M01/M05 Q1021;
0079066621999992011010218204+47183+007417AUTO +0430LSZG V0200601N002619999999Y0099001N1-00201-00501999999ADDMA1102101999999REMMET052METAR LSZG 021820Z AUTO 06005KT CAVOK M02/M05 Q1021;
0079066621999992011010218504+47183+007417AUTO +0430LSZG V0200901N002619999999Y0099001N1-00101-00501999999ADDMA1102101999999REMMET052METAR LSZG 021850Z AUTO 09005KT CAVOK M01/M05 Q1021;
0079066621999992011010219204+47183+007417AUTO +0430LSZG V0200801N001519999999Y0099001N1-00101-00501999999ADDMA1102201999999REMMET052METAR LSZG 021920Z AUTO 08003KT CAVOK M01/M05 Q1022;
0079066621999992011010219504+47183+007417AUTO +0430LSZG V0200701N001519999999Y0099001N1-00301-00601999999ADDMA1102201999999REMMET052METAR LSZG 021950Z AUTO 07003KT CAVOK M03/M06 Q1022;
0079066621999992011010220204+47183+007417AUTO +0430LSZG V0200801N001019999999Y0099001N1-00301-00601999999ADDMA1102201999999REMMET052METAR LSZG 022020Z AUTO 08002KT CAVOK M03/M06 Q1022;
0079066621999992011010220504+47183+007417AUTO +0430LSZG V0200901N001519999999Y0099001N1-00401-00601999999ADDMA1102201999999REMMET052METAR LSZG 022050Z AUTO 09003KT CAVOK M04/M06 Q1022;
0079066621999992011010221204+47183+007417AUTO +0430LSZG V0200501N001019999999Y0099001N1-00301-00601999999ADDMA1102201999999REMMET052METAR LSZG 022120Z AUTO 05002KT CAVOK M03/M06 Q1022;
0079066621999992011010221504+47183+007417AUTO +0430LSZG V0200601N001519999999Y0099001N1-00301-00601999999ADDMA1102201999999REMMET052METAR LSZG 022150Z AUTO 06003KT CAVOK M03/M06 Q1022;
0079066621999992011010222204+47183+007417AUTO +0430LSZG V0200501N001519999999Y0099001N1-00401-00601999999ADDMA1102201999999REMMET052METAR LSZG 022220Z AUTO 05003KT CAVOK M04/M06 Q1022;
0079066621999992011010222504+47183+007417AUTO +0430LSZG V0200601N001519999999Y0099001N1-00401-00701999999ADDMA1102201999999REMMET052METAR LSZG 022250Z AUTO 06003KT CAVOK M04/M07 Q1022;
0079066621999992011010223204+47183+007417AUTO +0430LSZG V0200501N002119999999Y0099001N1-00401-00701999999ADDMA1102201999999REMMET052METAR LSZG 022320Z AUTO 05004KT CAVOK M04/M07 Q1022;
0079066621999992011010223504+47183+007417AUTO +0430LSZG V0200601N001519999999Y0099001N1-00401-00701999999ADDMA1102201999999REMMET052METAR LSZG 022350Z AUTO 06003KT CAVOK M04/M07 Q1022;
0079066621999992011010300204+47183+007417AUTO +0430LSZG V0200601N001519999999Y0099001N1-00401-00701999999ADDMA1102201999999REMMET052METAR LSZG 030020Z AUTO 06003KT CAVOK M04/M07 Q1022;
0079066621999992011010300504+47183+007417AUTO +0430LSZG V0200501N002119999999Y0099001N1-00401-00701999999ADDMA1102201999999REMMET052METAR LSZG 030050Z AUTO 05004KT CAVOK M04/M07 Q1022;
0079066621999992011010301204+47183+007417AUTO +0430LSZG V0200401N002619999999Y0099001N1-00401-00701999999ADDMA1102201999999REMMET052METAR LSZG 030120Z AUTO 04005KT CAVOK M04/M07 Q1022;
0079066621999992011010301504+47183+007417AUTO +0430LSZG V0200401N002119999999Y0099001N1-00501-00701999999ADDMA1102201999999REMMET052METAR LSZG 030150Z AUTO 04004KT CAVOK M05/M07 Q1022;
0079066621999992011010302204+47183+007417AUTO +0430LSZG V0200101N002119999999Y0099001N1-00401-00701999999ADDMA1102201999999REMMET052METAR LSZG 030220Z AUTO 01004KT CAVOK M04/M07 Q1022;
0079066621999992011010302504+47183+007417AUTO +0430LSZG V0209999V000519999999Y0099001N1-00501-00701999999ADDMA1102201999999REMMET052METAR LSZG 030250Z AUTO VRB01KT CAVOK M05/M07 Q1022;
0079066621999992011010303204+47183+007417AUTO +0430LSZG V0200701N000519999999Y0099001N1-00601-00801999999ADDMA1102201999999REMMET052METAR LSZG 030320Z AUTO 07001KT CAVOK M06/M08 Q1022;
0079066621999992011010303504+47183+007417AUTO +0430LSZG V0200601N001019999999Y0099001N1-00601-00801999999ADDMA1102201999999REMMET052METAR LSZG 030350Z AUTO 06002KT CAVOK M06/M08 Q1022;
0079066621999992011010304204+47183+007417AUTO +0430LSZG V0209999V000519999999Y0099001N1-00801-00901999999ADDMA1102201999999REMMET052METAR LSZG 030420Z AUTO VRB01KT CAVOK M08/M09 Q1022;
0079066621999992011010304504+47183+007417AUTO +0430LSZG V0209999V000519999999Y0099001N1-00701-00901999999ADDMA1102201999999REMMET052METAR LSZG 030450Z AUTO VRB01KT CAVOK M07/M09 Q1022;
0079066621999992011010305204+47183+007417AUTO +0430LSZG V0202801N000519999999Y0099001N1-00701-00801999999ADDMA1102201999999REMMET052METAR LSZG 030520Z AUTO 28001KT CAVOK M07/M08 Q1022;
0079066621999992011010305504+47183+007417AUTO +0430LSZG V0209999V000519999999Y0099001N1-00801-00901999999ADDMA1102201999999REMMET052METAR LSZG 030550Z AUTO VRB01KT CAVOK M08/M09 Q1022;
0079066621999992011010306204+47183+007417AUTO +0430LSZG V0200401N000519999999Y0099001N1-00701-00801999999ADDMA1102201999999REMMET052METAR LSZG 030620Z AUTO 04001KT CAVOK M07/M08 Q1022;
0080066621999992011010306504+47183+007417FM-15+0430LSZG V0209999C000019999999Y0099001N1-00801-00901999999ADDMA1102201999999REMMET053METAR LSZG 030650Z 00000KT CAVOK M08/M09 Q1022 NOSIG;
0080066621999992011010307204+47183+007417FM-15+0430LSZG V0209999C000019999999Y0099001N1-00801-00901999999ADDMA1102201999999REMMET053METAR LSZG 030720Z 00000KT CAVOK M08/M09 Q1022 NOSIG;
0079066621999992011010307504+47183+007417AUTO +0430LSZG V0200501N001019999999Y0099001N1-00701-00801999999ADDMA1102201999999REMMET052METAR LSZG 030750Z AUTO 05002KT CAVOK M07/M08 Q1022;
0080066621999992011010308204+47183+007417FM-15+0430LSZG V0200401N001019999999Y0099001N1-00701-00801999999ADDMA1102201999999REMMET053METAR LSZG 030820Z 04002KT CAVOK M07/M08 Q1022 NOSIG;
0080066621999992011010308504+47183+007417FM-15+0430LSZG V0200601N002119999999Y0099001N1-00501-00701999999ADDMA1102201999999REMMET053METAR LSZG 030850Z 06004KT CAVOK M05/M07 Q1022 NOSIG;
0080066621999992011010309204+47183+007417FM-15+0430LSZG V0200401N001519999999Y0099001N1-00401-00701999999ADDMA1102201999999REMMET053METAR LSZG 030920Z 04003KT CAVOK M04/M07 Q1022 NOSIG;
0080066621999992011010309504+47183+007417FM-15+0430LSZG V0200601N002619999999Y0099001N1-00301-00501999999ADDMA1102201999999REMMET053METAR LSZG 030950Z 06005KT CAVOK M03/M05 Q1022 NOSIG;
0080066621999992011010310204+47183+007417FM-15+0430LSZG V0200601N002619999999Y0099001N1-00301-00601999999ADDMA1102201999999REMMET053METAR LSZG 031020Z 06005KT CAVOK M03/M06 Q1022 NOSIG;
0080066621999992011010310504+47183+007417FM-15+0430LSZG V0200501N002619999999Y0099001N1-00201-00601999999ADDMA1102201999999REMMET053METAR LSZG 031050Z 05005KT CAVOK M02/M06 Q1022 NOSIG;
0128066621999992011010311204+47183+007417FM-15+0430LSZG V0200601N003112200019N0112651N1-00101-00501999999ADDGA1021+008401999GF102991999999999999999999MA1102201999999REMMET059METAR LSZG 031120Z 06006KT 9999 FEW028 M01/M05 Q1022 NOSIG;
0128066621999992011010311504+47183+007417FM-15+0430LSZG V0200701N003112200019N0112651N1-00101-00501999999ADDGA1021+008401999GF102991999999999999999999MA1102101999999REMMET059METAR LSZG 031150Z 07006KT 9999 FEW028 M01/M05 Q1021 NOSIG;
0128066621999992011010312204+47183+007417FM-15+0430LSZG V0200801N003612200019N0112651N1+00001-00601999999ADDGA1021+009001999GF102991999999999999999999MA1102101999999REMMET059METAR LSZG 031220Z 08007KT 9999 FEW030 M00/M06 Q1021 NOSIG;
0127066621999992011010312504+47183+007417FM-15+0430LSZG V0200801N004112200019N0112651N1+00001-00601999999ADDGA1021+010501999GF102991999999999999999999MA1102101999999REMMET058METAR LSZG 031250Z 08008KT 9999 FEW035 00/M06 Q1021 NOSIG;
0078066621999992011010313204+47183+007417AUTO +0430LSZG V0200901N004619999999Y0099001N1+00001-00701999999ADDMA1102101999999REMMET051METAR LSZG 031320Z AUTO 09009KT CAVOK 00/M07 Q1021;
0127066621999992011010313504+47183+007417FM-15+0430LSZG V0200901N005112200019N0112651N1+00001-00701999999ADDGA1021+012001999GF102991999999999999999999MA1102101999999REMMET058METAR LSZG 031350Z 09010KT 9999 FEW040 00/M07 Q1021 NOSIG;
0127066621999992011010314204+47183+007417FM-15+0430LSZG V0200901N004612200019N0112651N1+00001-00701999999ADDGA1021+012001999GF102991999999999999999999MA1102101999999REMMET058METAR LSZG 031420Z 09009KT 9999 FEW040 00/M07 Q1021 NOSIG;
0128066621999992011010314504+47183+007417FM-15+0430LSZG V0200801N003612200019N0112651N1+00001-00701999999ADDGA1021+012001999GF102991999999999999999999MA1102101999999REMMET059METAR LSZG 031450Z 08007KT 9999 FEW040 M00/M07 Q1021 NOSIG;
0128066621999992011010315204+47183+007417FM-15+0430LSZG V0200901N003612200019N0112651N1-00101-00601999999ADDGA1021+012001999GF102991999999999999999999MA1102101999999REMMET059METAR LSZG 031520Z 09007KT 9999 FEW040 M01/M06 Q1021 NOSIG;
0080066621999992011010315504+47183+007417FM-15+0430LSZG V0201001N003619999999Y0099001N1-00201-00701999999ADDMA1102101999999REMMET053METAR LSZG 031550Z 10007KT CAVOK M02/M07 Q1021 NOSIG;
0080066621999992011010316204+47183+007417FM-15+0430LSZG V0200801N002619999999Y0099001N1-00201-00701999999ADDMA1102101999999REMMET053METAR LSZG 031620Z 08005KT CAVOK M02/M07 Q1021 NOSIG;
0079066621999992011010316504+47183+007417AUTO +0430LSZG V0200501N002119999999Y0099001N1-00201-00701999999ADDMA1102101999999REMMET052METAR LSZG 031650Z AUTO 05004KT CAVOK M02/M07 Q1021;
0079066621999992011010317204+47183+007417AUTO +0430LSZG V0200501N001019999999Y0099001N1-00401-00701999999ADDMA1102101999999REMMET052METAR LSZG 031720Z AUTO 05002KT CAVOK M04/M07 Q1021;
0079066621999992011010317504+47183+007417AUTO +0430LSZG V0200801N000519999999Y0099001N1-00301-00701999999ADDMA1102101999999REMMET052METAR LSZG 031750Z AUTO 08001KT CAVOK M03/M07 Q1021;
0079066621999992011010318204+47183+007417AUTO +0430LSZG V0201001N000519999999Y0099001N1-00501-00701999999ADDMA1102101999999REMMET052METAR LSZG 031820Z AUTO 10001KT CAVOK M05/M07 Q1021;
0079066621999992011010318504+47183+007417AUTO +0430LSZG V0200901N001019999999Y0099001N1-00801-00901999999ADDMA1102101999999REMMET052METAR LSZG 031850Z AUTO 09002KT CAVOK M08/M09 Q1021;
0079066621999992011010319204+47183+007417AUTO +0430LSZG V0200601N000519999999Y0099001N1-00501-00701999999ADDMA1102101999999REMMET052METAR LSZG 031920Z AUTO 06001KT CAVOK M05/M07 Q1021;
0079066621999992011010319504+47183+007417AUTO +0430LSZG V0209999C000019999999Y0099001N1-00701-00801999999ADDMA1102001999999REMMET052METAR LSZG 031950Z AUTO 00000KT CAVOK M07/M08 Q1020;
0108066621999992011010320204+47183+007417AUTO +0430LSZG V0201901N000512200019N0070001N1-00701-00801999999ADDGF100991999999999999999999MA1102001999999REMMET055METAR LSZG 032020Z AUTO 19001KT 7000 NSC M07/M08 Q1020;
0108066621999992011010320504+47183+007417AUTO +0430LSZG V0202201N000512200019N0070001N1-00801-00901999999ADDGF100991999999999999999999MA1102001999999REMMET055METAR LSZG 032050Z AUTO 22001KT 7000 NSC M08/M09 Q1020;
0127066621999992011010321204+47183+007417AUTO +0430LSZG V0209999C000010057019N0070001N1-00701-00801999999ADDGA1071+005701999GF107991999999999999999999MA1102001999999REMMET058METAR LSZG 032120Z AUTO 00000KT 7000 BKN019 M07/M08 Q1020;
0127066621999992011010321504+47183+007417AUTO +0430LSZG V0209999C000010057019N0090001N1-00701-00801999999ADDGA1071+005701999GF107991999999999999999999MA1102001999999REMMET058METAR LSZG 032150Z AUTO 00000KT 9000 BKN019 M07/M08 Q1020;
0150066621999992011010322204+47183+007417AUTO +0430LSZG V0209999C000010069019N0080001N1-00501-00701999999ADDGA1041+004801999GA2071+006901999GF107991999999999999999999MA1102001999999REMMET065METAR LSZG 032220Z AUTO 00000KT 8000 SCT016 BKN023 M05/M07 Q1020;
0150066621999992011010322504+47183+007417AUTO +0430LSZG V0202601N000510048019N0060001N1-00501-00601999999ADDGA1071+004801999GA2071+006901999GF107991999999999999999999MA1102101999999REMMET065METAR LSZG 032250Z AUTO 26001KT 6000 BKN016 BKN023 M05/M06 Q1021;
0127066621999992011010323204+47183+007417AUTO +0430LSZG V0202301N001010060019N0060001N1-00501-00601999999ADDGA1071+006001999GF107991999999999999999999MA1102101999999REMMET058METAR LSZG 032320Z AUTO 23002KT 6000 BKN020 M05/M06 Q1021;
0127066621999992011010323504+47183+007417AUTO +0430LSZG V0202301N001010066019N0070001N1-00501-00601999999ADDGA1071+006601999GF107991999999999999999999MA1102001999999REMMET058METAR LSZG 032350Z AUTO 23002KT 7000 BKN022 M05/M06 Q1020;
0127066621999992011010400204+47183+007417AUTO +0430LSZG V0202501N000510069019N0070001N1-00501-00601999999ADDGA1081+006901999GF108991999999999999999999MA1102001999999REMMET058METAR LSZG 040020Z AUTO 25001KT 7000 OVC023 M05/M06 Q1020;
0127066621999992011010400504+47183+007417AUTO +0430LSZG V0203001N000510075019N0060001N1-00501-00601999999ADDGA1071+007501999GF107991999999999999999999MA1102001999999REMMET058METAR LSZG 040050Z AUTO 30001KT 6000 BKN025 M05/M06 Q1020;
0150066621999992011010401204+47183+007417AUTO +0430LSZG V0203001N000510075019N0070001N1-00501-00601999999ADDGA1021+003901999GA2071+007501999GF107991999999999999999999MA1102001999999REMMET065METAR LSZG 040120Z AUTO 30001KT 7000 FEW013 BKN025 M05/M06 Q1020;
0108066621999992011010401504+47183+007417AUTO +0430LSZG V0209999V000512200019N0050001N1-00501-00601999999ADDGF100991999999999999999999MA1101901999999REMMET055METAR LSZG 040150Z AUTO VRB01KT 5000 NSC M05/M06 Q1019;
0108066621999992011010402204+47183+007417AUTO +0430LSZG V0201901N001012200019N0050001N1-00501-00601999999ADDGF100991999999999999999999MA1101901999999REMMET055METAR LSZG 040220Z AUTO 19002KT 5000 NSC M05/M06 Q1019;
0127066621999992011010402504+47183+007417AUTO +0430LSZG V0209999C000010030019N0050001N1-00501-00701999999ADDGA1081+003001999GF108991999999999999999999MA1101901999999REMMET058METAR LSZG 040250Z AUTO 00000KT 5000 OVC010 M05/M07 Q1019;
0150066621999992011010403204+47183+007417AUTO +0430LSZG V0203401N000510129019N0050001N1-00501-00701999999ADDGA1021+003001999GA2081+012901999GF108991999999999999999999MA1101901999999REMMET065METAR LSZG 040320Z AUTO 34001KT 5000 FEW010 OVC043 M05/M07 Q1019;
0136066621999992011010403504+47183+007417AUTO +0430LSZG V0200901N001010138019N0046001N1-00601-00701999999ADDAW1101GA1081+013801999GF108991999999999999999999MA1101901999999REMMET061METAR LSZG 040350Z AUTO 09002KT 4600 BR OVC046 M06/M07 Q1019;
0127066621999992011010404204+47183+007417AUTO +0430LSZG V0200801N000510132019N0050001N1-00501-00601999999ADDGA1071+013201999GF107991999999999999999999MA1101901999999REMMET058METAR LSZG 040420Z AUTO 08001KT 5000 BKN044 M05/M06 Q1019;
0150066621999992011010404504+47183+007417AUTO +0430LSZG V0201001N002110132019N0060001N1-00501-00601999999ADDGA1071+013201999GA2071+014701999GF107991999999999999999999MA1101901999999REMMET065METAR LSZG 040450Z AUTO 10004KT 6000 BKN044 BKN049 M05/M06 Q1019;
0143066621999992011010405204+47183+007417AUTO +0430LSZG V0200701N00101220001CN0060001N1-00501-00701999999ADDGA1071+011701999GA2041+015001999MA1101801999999REMMET065METAR LSZG 040520Z AUTO 07002KT 6000 BKN039 SCT050 M05/M07 Q1018;EQDQ01+000042SCOTCV
0150066621999992011010405504+47183+007417AUTO +0430LSZG V0200601N001010150019N0060001N1-00501-00701999999ADDGA1041+010801999GA2071+015001999GF107991999999999999999999MA1101801999999REMMET065METAR LSZG 040550Z AUTO 06002KT 6000 SCT036 BKN050 M05/M07 Q1018;
0128066621999992011010406504+47183+007417FM-15+0430LSZG V0200501N000510075019N0040001N1-00401-00701999999ADDGA1081+007501999GF108991999999999999999999MA1101801999999REMMET059METAR LSZG 040650Z 05001KT 4000 OVC025 M04/M07 Q1018 NOSIG;
0143066621999992011010407504+47183+007417AUTO +0430LSZG V0200601N00051220001CN0050001N1-00401-00601999999ADDGA1071+009001999GA2041+013801999MA1101801999999REMMET065METAR LSZG 040750Z AUTO 06001KT 5000 BKN030 SCT046 M04/M06 Q1018;EQDQ01+000042SCOTCV
0151066621999992011010408204+47183+007417FM-15+0430LSZG V0209999C000010180019N0070001N1-00401-00601999999ADDGA1041+009301999GA2071+018001999GF107991999999999999999999MA1101801999999REMMET066METAR LSZG 040820Z 00000KT 7000 SCT031 BKN060 M04/M06 Q1018 NOSIG;
0150066621999992011010408504+47183+007417AUTO +0430LSZG V0209999C000010135019N0060001N1-00401-00601999999ADDGA1021+009301999GA2081+013501999GF108991999999999999999999MA1101801999999REMMET065METAR LSZG 040850Z AUTO 00000KT 6000 FEW031 OVC045 M04/M06 Q1018;
0150066621999992011010409204+47183+007417AUTO +0430LSZG V0200701N001510150019N0060001N1-00401-00601999999ADDGA1041+013201999GA2081+015001999GF108991999999999999999999MA1101801999999REMMET065METAR LSZG 040920Z AUTO 07003KT 6000 SCT044 OVC050 M04/M06 Q1018;
0151066621999992011010409504+47183+007417FM-15+0430LSZG V0200501N001010138019N0070001N1-00301-00601999999ADDGA1041+007801999GA2071+013801999GF107991999999999999999999MA1101801999999REMMET066METAR LSZG 040950Z 05002KT 7000 SCT026 BKN046 M03/M06 Q1018 NOSIG;
0151066621999992011010410204+47183+007417FM-15+0430LSZG V0200801N001010141019N0060001N1-00301-00501999999ADDGA1041+007801999GA2071+014101999GF107991999999999999999999MA1101801999999REMMET066METAR LSZG 041020Z 08002KT 6000 SCT026 BKN047 M03/M05 Q1018 NOSIG;
0151066621999992011010410504+47183+007417FM-15+0430LSZG V0200701N000510144019N0060001N1-00301-00501999999ADDGA1041+008401999GA2071+014401999GF107991999999999999999999MA1101801999999REMMET066METAR LSZG 041050Z 07001KT 6000 SCT028 BKN048 M03/M05 Q1018 NOSIG;
0127066621999992011010411204+47183+007417AUTO +0430LSZG V0200601N000510150019N0070001N1-00301-00501999999ADDGA1081+015001999GF108991999999999999999999MA1101691999999REMMET058METAR LSZG 041120Z AUTO 06001KT 7000 OVC050 M03/M05 Q1017;
0151066621999992011010411504+47183+007417FM-15+0430LSZG V0209999V000510147019N0060001N1-00201-00601999999ADDGA1021+004501999GA2071+014701999GF107991999999999999999999MA1101691999999REMMET066METAR LSZG 041150Z VRB01KT 6000 FEW015 BKN049 M02/M06 Q1017 NOSIG;
0151066621999992011010412204+47183+007417FM-15+0430LSZG V0209999C000010147019N0080001N1-00301-00601999999ADDGA1021+004501999GA2071+014701999GF107991999999999999999999MA1101691999999REMMET066METAR LSZG 041220Z 00000KT 8000 FEW015 BKN049 M03/M06 Q1017 NOSIG;
0151066621999992011010412504+47183+007417FM-15+0430LSZG V0200901N000510150019N0070001N1-00201-00601999999ADDGA1021+007801999GA2071+015001999GF107991999999999999999999MA1101591999999REMMET066METAR LSZG 041250Z 09001KT 7000 FEW026 BKN051 M02/M06 Q1016 NOSIG;
0151066621999992011010413204+47183+007417FM-15+0430LSZG V0209999V000510141019N0070001N1-00201-00701999999ADDGA1021+007801999GA2071+014101999GF107991999999999999999999MA1101591999999REMMET066METAR LSZG 041320Z VRB01KT 7000 FEW026 BKN047 M02/M07 Q1016 NOSIG;
0151066621999992011010413504+47183+007417FM-15+0430LSZG V0200801N000510150019N0070001N1-00201-00501999999ADDGA1041+008101999GA2071+015001999GF107991999999999999999999MA1101591999999REMMET066METAR LSZG 041350Z 08001KT 7000 SCT027 BKN050 M02/M05 Q1016 NOSIG;
0151066621999992011010414204+47183+007417FM-15+0430LSZG V0200701N000510150019N0070001N1-00201-00501999999ADDGA1041+007801999GA2071+015001999GF107991999999999999999999MA1101591999999REMMET066METAR LSZG 041420Z 07001KT 7000 SCT026 BKN056 M02/M05 Q1016 NOSIG;
0151066621999992011010414504+47183+007417FM-15+0430LSZG V0200501N000510150019N0070001N1-00201-00501999999ADDGA1041+007501999GA2071+015001999GF107991999999999999999999MA1101591999999REMMET066METAR LSZG 041450Z 05001KT 7000 SCT025 BKN050 M02/M05 Q1016 NOSIG;
0151066621999992011010415204+47183+007417FM-15+0430LSZG V0200501N001010150019N0090001N1-00201-00501999999ADDGA1021+007201999GA2081+015001999GF108991999999999999999999MA1101591999999REMMET066METAR LSZG 041520Z 05002KT 9000 FEW024 OVC052 M02/M05 Q1016 NOSIG;
0151066621999992011010415504+47183+007417FM-15+0430LSZG V0200501N000510150019N0080001N1-00201-00501999999ADDGA1021+007201999GA2081+015001999GF108991999999999999999999MA1101591999999REMMET066METAR LSZG 041550Z 05001KT 8000 FEW024 OVC052 M02/M05 Q1016 NOSIG;
0150066621999992011010416204+47183+007417AUTO +0430LSZG V0201001N000510078019N0070001N1-00201-00501999999ADDGA1071+007801999GA2071+015001999GF107991999999999999999999MA1101591999999REMMET065METAR LSZG 041620Z AUTO 10001KT 7000 BKN026 BKN050 M02/M05 Q1016;
0150066621999992011010416504+47183+007417AUTO +0430LSZG V0200401N001010150019N0070001N1-00201-00501999999ADDGA1041+007501999GA2071+015001999GF107991999999999999999999MA1101591999999REMMET065METAR LSZG 041650Z AUTO 04002KT 7000 SCT025 BKN050 M02/M05 Q1016;
0150066621999992011010417204+47183+007417AUTO +0430LSZG V0200601N000510084019N0060001N1-00201-00501999999ADDGA1071+008401999GA2071+015001999GF107991999999999999999999MA1101591999999REMMET065METAR LSZG 041720Z AUTO 06001KT 6000 BKN028 BKN050 M02/M05 Q1016;
0127066621999992011010417504+47183+007417AUTO +0430LSZG V0200701N000510078019N0070001N1-00201-00501999999ADDGA1081+007801999GF108991999999999999999999MA1101591999999REMMET058METAR LSZG 041750Z AUTO 07001KT 7000 OVC026 M02/M05 Q1016;
0127066621999992011010418204+47183+007417AUTO +0430LSZG V0201501N000510069019N0070001N1-00201-00501999999ADDGA1081+006901999GF108991999999999999999999MA1101591999999REMMET058METAR LSZG 041820Z AUTO 15001KT 7000 OVC023 M02/M05 Q1016;
0127066621999992011010418504+47183+007417AUTO +0430LSZG V0209999C000010072019N0060001N1-00201-00501999999ADDGA1081+007201999GF108991999999999999999999MA1101591999999REMMET058METAR LSZG 041850Z AUTO 00000KT 6000 OVC024 M02/M05 Q1016;
0127066621999992011010419204+47183+007417AUTO +0430LSZG V0209999C000010069019N0060001N1-00201-00501999999ADDGA1081+006901999GF108991999999999999999999MA1101591999999REMMET058METAR LSZG 041920Z AUTO 00000KT 6000 OVC023 M02/M05 Q1016;
0127066621999992011010419504+47183+007417AUTO +0430LSZG V0209999C000010063019N0060001N1-00201-00501999999ADDGA1081+006301999GF108991999999999999999999MA1101591999999REMMET058METAR LSZG 041950Z AUTO 00000KT 6000 OVC021 M02/M05 Q1016;
0143066621999992011010420204+47183+007417AUTO +0430LSZG V0203001N00051220001CN0060001N1-00201-00501999999ADDGA1071+006301999GA2041+015001999MA1101591999999REMMET065METAR LSZG 042020Z AUTO 30001KT 6000 BKN021 SCT050 M02/M05 Q1016;EQDQ01+000042SCOTCV
0136066621999992011010420504+47183+007417AUTO +0430LSZG V0209999C000010150019N0050001N1-00301-00501999999ADDAW1101GA1071+015001999GF107991999999999999999999MA1101591999999REMMET061METAR LSZG 042050Z AUTO 00000KT 5000 BR BKN050 M03/M05 Q1016;
0136066621999992011010421204+47183+007417AUTO +0430LSZG V0209999C000012200019N0037001N1-00401-00501999999ADDAW1101GA1041+015001999GF104991999999999999999999MA1101591999999REMMET061METAR LSZG 042120Z AUTO 00000KT 3700 BR SCT050 M04/M05 Q1016;
0136066621999992011010421504+47183+007417AUTO +0430LSZG V0209999C000010150019N0041001N1-00401-00601999999ADDAW1101GA1071+015001999GF107991999999999999999999MA1101591999999REMMET061METAR LSZG 042150Z AUTO 00000KT 4100 BR BKN050 M04/M06 Q1016;
0136066621999992011010422204+47183+007417AUTO +0430LSZG V0209999C000012200019N0033001N1-00501-00601999999ADDAW1101GA1021+015001999GF102991999999999999999999MA1101591999999REMMET061METAR LSZG 042220Z AUTO 00000KT 3300 BR FEW050 M05/M06 Q1016;
0136066621999992011010422504+47183+007417AUTO +0430LSZG V0209999C000010150019N0027001N1-00501-00601999999ADDAW1101GA1071+015001999GF107991999999999999999999MA1101591999999REMMET061METAR LSZG 042250Z AUTO 00000KT 2700 BR BKN050 M05/M06 Q1016;
0136066621999992011010423204+47183+007417AUTO +0430LSZG V0209999C000010144019N0045001N1-00601-00701999999ADDAW1101GA1081+014401999GF108991999999999999999999MA1101591999999REMMET061METAR LSZG 042320Z AUTO 00000KT 4500 BR OVC048 M06/M07 Q1016;
0136066621999992011010423504+47183+007417AUTO +0430LSZG V0202601N001010150019N0045001N1-00501-00601999999ADDAW1101GA1081+015001999GF108991999999999999999999MA1101491999999REMMET061METAR LSZG 042350Z AUTO 26002KT 4500 BR OVC050 M05/M06 Q1015;
0136066621999992011010500204+47183+007417AUTO +0430LSZG V0202101N000510150019N0047001N1-00501-00701999999ADDAW1101GA1081+015001999GF108991999999999999999999MA1101491999999REMMET061METAR LSZG 050020Z AUTO 21001KT 4700 BR OVC050 M05/M07 Q1015;
0136066621999992011010500504+47183+007417AUTO +0430LSZG V0202601N000510150019N0042001N1-00501-00601999999ADDAW1101GA1081+015001999GF108991999999999999999999MA1101491999999REMMET061METAR LSZG 050050Z AUTO 26001KT 4200 BR OVC050 M05/M06 Q1015;
0136066621999992011010501204+47183+007417AUTO +0430LSZG V0209999C000010147019N0045001N1-00401-00601999999ADDAW1101GA1081+014701999GF108991999999999999999999MA1101491999999REMMET061METAR LSZG 050120Z AUTO 00000KT 4500 BR OVC049 M04/M06 Q1015;
0136066621999992011010501504+47183+007417AUTO +0430LSZG V0209999C000010144019N0050001N1-00401-00601999999ADDAW1101GA1081+014401999GF108991999999999999999999MA1101491999999REMMET061METAR LSZG 050150Z AUTO 00000KT 5000 BR OVC048 M04/M06 Q1015;
0136066621999992011010502204+47183+007417AUTO +0430LSZG V0209999V000510138019N0046001N1-00401-00501999999ADDAW1101GA1081+013801999GF108991999999999999999999MA1101491999999REMMET061METAR LSZG 050220Z AUTO VRB01KT 4600 BR OVC046 M04/M05 Q1015;
0136066621999992011010502504+47183+007417AUTO +0430LSZG V0200201N000510135019N0050001N1-00401-00501999999ADDAW1101GA1081+013501999GF108991999999999999999999MA1101491999999REMMET061METAR LSZG 050250Z AUTO 02001KT 5000 BR OVC045 M04/M05 Q1015;
0136066621999992011010503204+47183+007417AUTO +0430LSZG V0209999C000010132019N0050001N1-00401-00501999999ADDAW1101GA1081+013201999GF108991999999999999999999MA1101491999999REMMET061METAR LSZG 050320Z AUTO 00000KT 5000 BR OVC044 M04/M05 Q1015;
0136066621999992011010503504+47183+007417AUTO +0430LSZG V0209999V000510132019N0047001N1-00301-00501999999ADDAW1101GA1081+013201999GF108991999999999999999999MA1101491999999REMMET061METAR LSZG 050350Z AUTO VRB01KT 4700 BR OVC044 M03/M05 Q1015;
0136066621999992011010504204+47183+007417AUTO +0430LSZG V0209999C000010129019N0033001N1-00401-00501999999ADDAW1101GA1081+012901999GF108991999999999999999999MA1101491999999REMMET061METAR LSZG 050420Z AUTO 00000KT 3300 BR OVC043 M04/M05 Q1015;
0136066621999992011010504504+47183+007417AUTO +0430LSZG V0200501N000510126019N0048001N1-00401-00501999999ADDAW1101GA1071+012601999GF107991999999999999999999MA1101391999999REMMET061METAR LSZG 050450Z AUTO 05001KT 4800 BR BKN042 M04/M05 Q1014;
0136066621999992011010505204+47183+007417AUTO +0430LSZG V0200201N000510120019N0050001N1-00401-00501999999ADDAW1101GA1081+012001999GF108991999999999999999999MA1101391999999REMMET061METAR LSZG 050520Z AUTO 02001KT 5000 BR OVC040 M04/M05 Q1014;
0136066621999992011010505504+47183+007417AUTO +0430LSZG V0202401N000510114019N0039001N1-00401-00501999999ADDAW1101GA1081+011401999GF108991999999999999999999MA1101491999999REMMET061METAR LSZG 050550Z AUTO 24001KT 3900 BR OVC038 M04/M05 Q1015;
0159066621999992011010506204+47183+007417AUTO +0430LSZG V0202301N001010099019N0040001N1-00401-00501999999ADDAW1101GA1021+008401999GA2081+009901999GF108991999999999999999999MA1101491999999REMMET068METAR LSZG 050620Z AUTO 23002KT 4000 BR FEW028 OVC033 M04/M05 Q1015;
0137066621999992011010506504+47183+007417FM-15+0430LSZG V0202201N000510087019N0050001N1-00401-00501999999ADDGA1071+008701999GF107991999999999999999999MA1101391999999MW1101REMMET062METAR LSZG 050650Z 22001KT 5000 BR BKN029 M04/M05 Q1014 NOSIG;
0137066621999992011010507204+47183+007417FM-15+0430LSZG V0202601N001010087019N0050001N1-00301-00401999999ADDGA1071+008701999GF107991999999999999999999MA1101491999999MW1101REMMET062METAR LSZG 050720Z 26002KT 5000 BR BKN029 M03/M04 Q1015 NOSIG;
0137066621999992011010508204+47183+007417FM-15+0430LSZG V0202401N000510075019N0050001N1-00301-00501999999ADDGA1071+007501999GF107991999999999999999999MA1101491999999MW1101REMMET062METAR LSZG 050820Z 24001KT 5000 BR BKN025 M03/M05 Q1015 NOSIG;
0137066621999992011010508504+47183+007417FM-15+0430LSZG V0201901N001010075019N0050001N1-00201-00401999999ADDGA1071+007501999GF107991999999999999999999MA1101491999999MW1101REMMET062METAR LSZG 050850Z 19002KT 5000 BR BKN025 M02/M04 Q1015 NOSIG;
0128066621999992011010509204+47183+007417FM-15+0430LSZG V0202501N000510072019N0060001N1-00201-00401999999ADDGA1071+007201999GF107991999999999999999999MA1101491999999REMMET059METAR LSZG 050920Z 25001KT 6000 BKN024 M02/M04 Q1015 NOSIG;
0128066621999992011010509504+47183+007417FM-15+0430LSZG V0202701N001010072019N0060001N1-00201-00501999999ADDGA1071+007201999GF107991999999999999999999MA1101391999999REMMET059METAR LSZG 050950Z 27002KT 6000 BKN024 M02/M05 Q1014 NOSIG;
0128066621999992011010510204+47183+007417FM-15+0430LSZG V0202401N001010072019N0060001N1-00201-00501999999ADDGA1071+007201999GF107991999999999999999999MA1101391999999REMMET059METAR LSZG 051020Z 24002KT 6000 BKN024 M02/M05 Q1014 NOSIG;
0109066621999992011010510504+47183+007417FM-15+0430LSZG V0202301N001512200019N0070001N1-00101-00401999999ADDGF100991999999999999999999MA1101391999999REMMET056METAR LSZG 051050Z 23003KT 7000 NSC M01/M04 Q1014 NOSIG;
0109066621999992011010511204+47183+007417FM-15+0430LSZG V0202401N001512200019N0070001N1-00101-00401999999ADDGF100991999999999999999999MA1101291999999REMMET056METAR LSZG 051120Z 24003KT 7000 NSC M01/M04 Q1013 NOSIG;
0117066621999992011010511504+47183+007417FM-15+0430LSZG V0202001N002112200019N0070001N1+00001-00401999999ADDGF100991999999999999999999MA1101291999999REMMET064METAR LSZG 051150Z 20004KT 170V230 7000 NSC M00/M04 Q1013 NOSIG;
0127066621999992011010512504+47183+007417FM-15+0430LSZG V0202201N002612200019N0070001N1+00001-00401999999ADDGA1021+024001999GF102991999999999999999999MA1101291999999REMMET058METAR LSZG 051250Z 22005KT 7000 FEW080 00/M04 Q1013 NOSIG;
0108066621999992011010513204+47183+007417FM-15+0430LSZG V0202401N003112200019N0070001N1+00001-00401999999ADDGF100991999999999999999999MA1101291999999REMMET055METAR LSZG 051320Z 24006KT 7000 NSC 00/M04 Q1013 NOSIG;
0108066621999992011010513504+47183+007417FM-15+0430LSZG V0202401N002612200019N0070001N1+00001-00401999999ADDGF100991999999999999999999MA1101191999999REMMET055METAR LSZG 051350Z 24005KT 7000 NSC 00/M04 Q1012 NOSIG;
0107066621999992011010514204+47183+007417AUTO +0430LSZG V0202401N001512200019N0060001N1+00001-00301999999ADDGF100991999999999999999999MA1101191999999REMMET054METAR LSZG 051420Z AUTO 24003KT 6000 NSC 00/M03 Q1012;
0107066621999992011010514504+47183+007417AUTO +0430LSZG V0202401N002112200019N0060001N1+00001-00301999999ADDGF100991999999999999999999MA1101191999999REMMET054METAR LSZG 051450Z AUTO 24004KT 6000 NSC 00/M03 Q1012;
0108066621999992011010515204+47183+007417FM-15+0430LSZG V0202401N002112200019N0080001N1+00001-00401999999ADDGF100991999999999999999999MA1101191999999REMMET055METAR LSZG 051520Z 24004KT 8000 NSC 00/M04 Q1012 NOSIG;
0109066621999992011010515504+47183+007417FM-15+0430LSZG V0202101N002112200019N0080001N1+00001-00401999999ADDGF100991999999999999999999MA1101081999999REMMET056METAR LSZG 051550Z 21004KT 8000 NSC M00/M04 Q1011 NOSIG;
0109066621999992011010516204+47183+007417FM-15+0430LSZG V0202001N002112200019N0070001N1-00101-00401999999ADDGF100991999999999999999999MA1101081999999REMMET056METAR LSZG 051620Z 20004KT 7000 NSC M01/M04 Q1011 NOSIG;
0109066621999992011010516504+47183+007417FM-15+0430LSZG V0202201N002112200019N0060001N1-00101-00401999999ADDGF100991999999999999999999MA1101081999999REMMET056METAR LSZG 051650Z 22004KT 6000 NSC M01/M04 Q1011 NOSIG;
0128066621999992011010517204+47183+007417FM-15+0430LSZG V0209999V000512200019N0080001N1-00301-00501999999ADDGA1041+021001999GF104991999999999999999999MA1101081999999REMMET059METAR LSZG 051720Z VRB01KT 8000 SCT070 M03/M05 Q1011 NOSIG;
0109066621999992011010517504+47183+007417FM-15+0430LSZG V0202601N001012200019N0080001N1-00201-00401999999ADDGF100991999999999999999999MA1101081999999REMMET056METAR LSZG 051750Z 26002KT 8000 NSC M02/M04 Q1011 NOSIG;
0119066621999992011010518204+47183+007417FM-15+0430LSZG V0209999C000012200019N0070001N1-00301-00401999999ADDGF100991999999999999999999MA1101081999999REMMET066METAR LSZG 051820Z 00000KT 7000 NSC M03/M04 Q1011 BECMG 1500 MIFG;
0128066621999992011010518504+47183+007417FM-15+0430LSZG V0209999V000512200019N0050001N1-00301-00401999999ADDGF100991999999999999999999MA1101081999999MW1101REMMET069METAR LSZG 051850Z VRB01KT 5000 BR NSC M03/M04 Q1011 BECMG 1500 MIFG;
0117066621999992011010519204+47183+007417AUTO +0430LSZG V0209999V000512200019N0028001N1-00401-00501999999ADDAW1101GF100991999999999999999999MA1101081999999REMMET058METAR LSZG 051920Z AUTO VRB01KT 2800 BR NSC M04/M05 Q1011;
0117066621999992011010519504+47183+007417AUTO +0430LSZG V0209999C000012200019N0024001N1-00401-00501999999ADDAW1101GF100991999999999999999999MA1101021999999REMMET058METAR LSZG 051950Z AUTO 00000KT 2400 BR NSC M04/M05 Q1010;
0117066621999992011010520204+47183+007417AUTO +0430LSZG V0209999C000012200019N0019001N1-00501-00601999999ADDAW1101GF100991999999999999999999MA1101021999999REMMET058METAR LSZG 052020Z AUTO 00000KT 1900 BR NSC M05/M06 Q1010;
0117066621999992011010520504+47183+007417AUTO +0430LSZG V0209999C000012200019N0026001N1-00401-00501999999ADDAW1101GF100991999999999999999999MA1101021999999REMMET058METAR LSZG 052050Z AUTO 00000KT 2600 BR NSC M04/M05 Q1010;
0117066621999992011010521204+47183+007417AUTO +0430LSZG V0209999C000012200019N0013001N1-00501-00501999999ADDAW1101GF100991999999999999999999MA1101021999999REMMET058METAR LSZG 052120Z AUTO 00000KT 1300 BR NSC M05/M05 Q1010;
0117066621999992011010521504+47183+007417AUTO +0430LSZG V0209999C000012200019N0008001N1-00501-00601999999ADDAW1301GF100991999999999999999999MA1101021999999REMMET058METAR LSZG 052150Z AUTO 00000KT 0800 FG NSC M05/M06 Q1010;
0117066621999992011010522204+47183+007417AUTO +0430LSZG V0209999V001012200019N0018001N1-00401-00501999999ADDAW1101GF100991999999999999999999MA1101021999999REMMET058METAR LSZG 052220Z AUTO VRB02KT 1800 BR NSC M04/M05 Q1010;
0117066621999992011010522504+47183+007417AUTO +0430LSZG V0209999V001012200019N0018001N1-00501-00601999999ADDAW1101GF100991999999999999999999MA1101021999999REMMET058METAR LSZG 052250Z AUTO VRB02KT 1800 BR NSC M05/M06 Q1010;
0117066621999992011010523204+47183+007417AUTO +0430LSZG V0209999V000512200019N0018001N1-00501-00601999999ADDAW1101GF100991999999999999999999MA1101021999999REMMET058METAR LSZG 052320Z AUTO VRB01KT 1800 BR NSC M05/M06 Q1010;
0117066621999992011010523504+47183+007417AUTO +0430LSZG V0209999V000512200019N0015001N1-00501-00501999999ADDAW1101GF100991999999999999999999MA1100911999999REMMET058METAR LSZG 052350Z AUTO VRB01KT 1500 BR NSC M05/M05 Q1009;
0117066621999992011010600204+47183+007417AUTO +0430LSZG V0209999C000012200019N0013001N1-00501-00501999999ADDAW1101GF100991999999999999999999MA1100911999999REMMET058METAR LSZG 060020Z AUTO 00000KT 1300 BR NSC M05/M05 Q1009;
0117066621999992011010600504+47183+007417AUTO +0430LSZG V0202401N001012200019N0019001N1-00401-00401999999ADDAW1101GF100991999999999999999999MA1100911999999REMMET058METAR LSZG 060050Z AUTO 24002KT 1900 BR NSC M04/M04 Q1009;
0159066621999992011010601204+47183+007417AUTO +0430LSZG V0209999V001010240019N0020001N1-00401-00401999999ADDAW1101GA1021+018001999GA2081+024001999GF108991999999999999999999MA1100911999999REMMET068METAR LSZG 060120Z AUTO VRB02KT 2000 BR FEW060 OVC080 M04/M04 Q1009;
0117066621999992011010601504+47183+007417AUTO +0430LSZG V0209999V000512200019N0022001N1-00301-00401999999ADDAW1101GF100991999999999999999999MA1100911999999REMMET058METAR LSZG 060150Z AUTO VRB01KT 2200 BR NSC M03/M04 Q1009;
0159066621999992011010602204+47183+007417AUTO +0430LSZG V0202501N001010240019N0023001N1-00301-00401999999ADDAW1101GA1041+018001999GA2071+024001999GF107991999999999999999999MA1100911999999REMMET068METAR LSZG 060220Z AUTO 25002KT 2300 BR SCT060 BKN080 M03/M04 Q1009;
0160066621999992011010602504+47183+007417AUTO +0430LSZG V0202101N001510126019N0022001N1-00301-00401999999ADDAW1711GA1071+012601999GA2071+015001999GF107991999999999999999999MA1100911999999REMMET069METAR LSZG 060250Z AUTO 21003KT 2200 -SN BKN042 BKN050 M03/M04 Q1009;
0183066621999992011010603204+47183+007417AUTO +0430LSZG V0202801N001010147019N0032001N1-00201-00301999999ADDAW1711GA1041+013201999GA2071+014701999GA3071+018001999GF107991999999999999999999MA1100911999999REMMET076METAR LSZG 060320Z AUTO 28002KT 3200 -SN SCT044 BKN049 BKN060 M02/M03 Q1009;
0139066621999992011010603504+47183+007417AUTO +0430LSZG V0209999C000010138019N0050001N1-00201-00301999999ADDAW1641GA1071+013801999GF107991999999999999999999MA1100811999999REMMET064METAR LSZG 060350Z AUTO 00000KT 5000 -FZRA BKN046 M02/M03 Q1008;
0160066621999992011010604204+47183+007417AUTO +0430LSZG V0209999C000010150019N0047001N1-00101-00201999999ADDAW1611GA1021+011401999GA2081+015001999GF108991999999999999999999MA1100811999999REMMET069METAR LSZG 060420Z AUTO 00000KT 4700 -RA FEW038 OVC050 M01/M02 Q1008;
0160066621999992011010604504+47183+007417AUTO +0430LSZG V0209999C000010129019N0038001N1-00101-00201999999ADDAW1611GA1071+012901999GA2071+015001999GF107991999999999999999999MA1100811999999REMMET069METAR LSZG 060450Z AUTO 00000KT 3800 -RA BKN043 BKN050 M01/M02 Q1008;
0137066621999992011010605204+47183+007417AUTO +0430LSZG V0209999V001010138019N0046001N1-00101-00201999999ADDAW1611GA1071+013801999GF107991999999999999999999MA1100811999999REMMET062METAR LSZG 060520Z AUTO VRB02KT 4600 -RA BKN046 M01/M02 Q1008;
0136066621999992011010605504+47183+007417AUTO +0430LSZG V0209999V001510144019N0040001N1+00001-00101999999ADDAW1611GA1081+014401999GF108991999999999999999999MA1100811999999REMMET061METAR LSZG 060550Z AUTO VRB03KT 4000 -RA OVC048 00/M01 Q1008;
0152066621999992011010606204+47183+007417AUTO +0430LSZG V0209999V00101015001CN0039001N1+00001-00101999999ADDAW1611GA1071+015001999GA2041+018001999MA1100811999999REMMET068METAR LSZG 060620Z AUTO VRB02KT 3900 -RA BKN050 SCT060 00/M01 Q1008;EQDQ01+000042SCOTCV
0171066621999992011010606504+47183+007417FM-15+0430LSZG V0209999V000510240019N0112651N1+00101+00001999999ADDGA1041+018001999GA2071+024001999GF107991999999999999999999MA1100811999999MW1661REMMET080METAR LSZG 060650Z VRB01KT 9999 -FZRA SCT060 BKN080 01/M00 Q1008 R/SNOCLO NOSIG;
0158066621999992011010607204+47183+007417FM-15+0430LSZG V0209999V000510390019N0112651N1+00101+00001999999ADDGA1041+018001999GA2071+039001999GF107991999999999999999999MA1100811999999REMMET073METAR LSZG 060720Z VRB01KT 9999 SCT060 BKN130 01/00 Q1008 R/SNOCLO NOSIG;
0158066621999992011010607504+47183+007417AUTO +0430LSZG V0209999V001010150019N0025001N1+00001+00001999999ADDAW1101GA1071+015001999GA2071+033001999GF107991999999999999999999MA1100811999999REMMET067METAR LSZG 060750Z AUTO VRB02KT 2500 BR BKN050 BKN110 00/M00 Q1008;
0163066621999992011010608204+47183+007417FM-15+0430LSZG V0200101N000510270019N0112651N1+00101+00001999999ADDGA1041+018001999GA2071+027001999GF107991999999999999999999MA1100811999999REMMET078METAR LSZG 060820Z 01001KT 9999 SCT060 BKN090 01/00 Q1008 REDZ R/SNOCLO NOSIG;
0135066621999992011010608504+47183+007417AUTO +0430LSZG V0209999V000510150019N0112651N1+00301+00101999999ADDAW1611GA1081+015001999GF108991999999999999999999MA1100811999999REMMET060METAR LSZG 060850Z AUTO VRB01KT 9999 -RA OVC050 03/01 Q1008;
0170066621999992011010609204+47183+007417FM-15+0430LSZG V0209999C000010180019N0112651N1+00201+00101999999ADDGA1021+003001999GA2081+018001999GF108991999999999999999999MA1100811999999MW1611REMMET079METAR LSZG 060920Z 00000KT 9999 -RA FEW010 OVC060 02/01 Q1008 R25/750193 NOSIG;
0180066621999992011010609504+47183+007417FM-15+0430LSZG V0202201N003110210019N0112651N1+00401+00201999999ADDGA1021+002401999GA2071+021001999GF107991999999999999999999MA1100811999999MW1801REMMET089METAR LSZG 060950Z 22006KT 190V270 9999 -SHRA FEW008 BKN070 04/02 Q1008 R25/750193 NOSIG;
0143066621999992011010610204+47183+007417AUTO +0430LSZG V0202501N002110150019N0112651N1+00301+00201999999ADDAW1611GA1081+015001999GF108991999999999999999999MA1100811999999REMMET068METAR LSZG 061020Z AUTO 25004KT 220V280 9999 -RA OVC050 03/02 Q1008;
0149066621999992011010611204+47183+007417FM-15+0430LSZG V0202301N005710150019N0112651N1+00401+00301999999ADDGA1021+002401999GA2071+015001999GF107991999999999999999999MA1100811999999REMMET064METAR LSZG 061120Z 23011KT 9999 FEW008 BKN056 04/03 Q1008 NOSIG;
0149066621999992011010611504+47183+007417FM-15+0430LSZG V0202201N006210180019N0112651N1+00501+00301999999ADDGA1021+002401999GA2071+018001999GF107991999999999999999999MA1100811999999REMMET064METAR LSZG 061150Z 22012KT 9999 FEW008 BKN061 05/03 Q1008 NOSIG;
0125066621999992011010612204+47183+007417AUTO +0430LSZG V0202301N005710180019N0112651N1+00601+00401999999ADDGA1081+018001999GF108991999999999999999999MA1100711999999REMMET056METAR LSZG 061220Z AUTO 23011KT 9999 OVC060 06/04 Q1007;
0159066621999992011010613204+47183+007417FM-15+0430LSZG V0202201N005110180019N0112651N1+00601+00401999999ADDGA1021+003001999GA2071+018001999GF107991999999999999999999MA1100711999999MW1611REMMET068METAR LSZG 061320Z 22010KT 9999 -RA FEW010 BKN061 06/04 Q1007 NOSIG;
0159066621999992011010613504+47183+007417FM-15+0430LSZG V0202201N005110180019N0112651N1+00601+00401999999ADDGA1021+004201999GA2071+018001999GF107991999999999999999999MA1100711999999MW1611REMMET068METAR LSZG 061350Z 22010KT 9999 -RA FEW014 BKN063 06/04 Q1007 NOSIG;
0159066621999992011010614204+47183+007417FM-15+0430LSZG V0202301N005110180019N0112651N1+00501+00301999999ADDGA1021+004201999GA2071+018001999GF107991999999999999999999MA1100711999999MW1611REMMET068METAR LSZG 061420Z 23010KT 9999 -RA FEW014 BKN063 05/03 Q1007 NOSIG;
0159066621999992011010614504+47183+007417FM-15+0430LSZG V0202501N005710180019N0112651N1+00601+00401999999ADDGA1021+004201999GA2071+018001999GF107991999999999999999999MA1100711999999MW1611REMMET068METAR LSZG 061450Z 25011KT 9999 -RA FEW014 BKN063 06/04 Q1007 NOSIG;
0159066621999992011010615204+47183+007417FM-15+0430LSZG V0202401N005710180019N0112651N1+00601+00401999999ADDGA1021+004201999GA2071+018001999GF107991999999999999999999MA1100811999999MW1611REMMET068METAR LSZG 061520Z 24011KT 9999 -RA FEW014 BKN063 06/04 Q1008 NOSIG;
0133066621999992011010615504+47183+007417AUTO +0430LSZG V0202401N00411999999CN0112651N1+00501+00401999999ADDAW1621GA1091+999999999GF109991999999000251999999MA1100811999999REMMET058METAR LSZG 061550Z AUTO 24008KT 9999 RA VV055 05/04 Q1008;
0150066621999992011010616204+47183+007417AUTO +0430LSZG V0202501N00461012601CN0112651N1+00501+00401999999ADDAW1621GA1071+012601999GA2041+015001999MA1100811999999REMMET066METAR LSZG 061620Z AUTO 25009KT 9999 RA BKN042 SCT050 05/04 Q1008;EQDQ01+000042SCOTCV
0151066621999992011010616504+47183+007417AUTO +0430LSZG V0202301N00511013201CN0090001N1+00501+00401999999ADDAW1611GA1071+013201999GA2041+014701999MA1100811999999REMMET067METAR LSZG 061650Z AUTO 23010KT 9000 -RA BKN044 SCT049 05/04 Q1008;EQDQ01+000042SCOTCV
0158066621999992011010617204+47183+007417AUTO +0430LSZG V0202401N004610114019N0112651N1+00501+00401999999ADDAW1611GA1021+005701999GA2081+011401999GF108991999999999999999999MA1100811999999REMMET067METAR LSZG 061720Z AUTO 24009KT 9999 -RA FEW019 OVC038 05/04 Q1008;
0181066621999992011010617504+47183+007417AUTO +0430LSZG V0202401N00511009901CN0070001N1+00601+00501999999ADDAW1611GA1021+005101999GA2041+009901999GA3081+012301999GF108991999999999999999999MA1100811999999REMMET074METAR LSZG 061750Z AUTO 24010KT 7000 -RA FEW017 SCT033 OVC041 06/05 Q1008;
0181066621999992011010618204+47183+007417AUTO +0430LSZG V0202401N004110093019N0112651N1+00601+00501999999ADDAW1611GA1021+003301999GA2071+009301999GA3071+010801999GF107991999999999999999999MA1100911999999REMMET074METAR LSZG 061820Z AUTO 24008KT 9999 -RA FEW011 BKN031 BKN036 06/05 Q1009;
0173066621999992011010618504+47183+007417AUTO +0430LSZG V0202501N004110132019N0112651N1+00501+00501999999ADDAW1621GA1021+011101999GA2081+013201999GA3071+014701999MA1100911999999REMMET073METAR LSZG 061850Z AUTO 25008KT 9999 RA FEW037 OVC044 BKN049 05/05 Q1009;EQDQ01+000072SCOTCV
0135066621999992011010619204+47183+007417AUTO +0430LSZG V0202301N002610141019N0041001N1+00501+00401999999ADDAW1611GA1071+014101999GF107991999999999999999999MA1100911999999REMMET060METAR LSZG 061920Z AUTO 23005KT 4100 -RA BKN047 05/04 Q1009;
0157066621999992011010619504+47183+007417AUTO +0430LSZG V0202501N002610132019N0033001N1+00501+00401999999ADDAW1621GA1071+013201999GA2071+014701999GF107991999999999999999999MA1100911999999REMMET066METAR LSZG 061950Z AUTO 25005KT 3300 RA BKN044 BKN049 05/04 Q1009;
0157066621999992011010620204+47183+007417AUTO +0430LSZG V0202401N002110138019N0011001N1+00501+00401999999ADDAW1621GA1021+003301999GA2081+013801999GF108991999999999999999999MA1101021999999REMMET066METAR LSZG 062020Z AUTO 24004KT 1100 RA FEW011 OVC046 05/04 Q1010;
0181066621999992011010620504+47183+007417AUTO +0430LSZG V0202201N003110045019N0060001N1+00601+00501999999ADDAW1611GA1041+003001999GA2071+004501999GA3071+010501999GF107991999999999999999999MA1101021999999REMMET074METAR LSZG 062050Z AUTO 22006KT 6000 -RA SCT010 BKN015 BKN035 06/05 Q1010;
0160066621999992011010621204+47183+007417AUTO +0430LSZG V0202401N003610057019N0042001N1+00501+00501999999ADDAW1611GA1021+004201999GA2081+005701999GA3071+010501999MA1101021999999REMMET079METAR LSZG 062120Z AUTO 24007KT 4200 -RA FEW014 OVC019 BKN035 05/05 Q1010 REDZ;
0158066621999992011010621504+47183+007417AUTO +0430LSZG V0202401N003610120019N0031001N1+00501+00501999999ADDAW1611GA1021+002401999GA2081+012001999GF108991999999999999999999MA1101021999999REMMET067METAR LSZG 062150Z AUTO 24007KT 3100 -RA FEW008 OVC040 05/05 Q1010;
0136066621999992011010622204+47183+007417AUTO +0430LSZG V0202301N00361005101CN0033001N1+00501+00401999999ADDAW1101GA1071+005101999GA2041+015001999MA1101081999999REMMET071METAR LSZG 062220Z AUTO 23007KT 3300 BR BKN017 SCT050 05/04 Q1011 REDZ;
0180066621999992011010622504+47183+007417AUTO +0430LSZG V0202301N003110027019N0041001N1+00501+00501999999ADDAW1101GA1071+002701999GA2071+005101999GA3081+013201999GF108991999999999999999999MA1101081999999REMMET073METAR LSZG 062250Z AUTO 23006KT 4100 BR BKN009 BKN017 OVC044 05/05 Q1011;
0158066621999992011010623204+47183+007417AUTO +0430LSZG V0202201N003610135019N0090001N1+00601+00501999999ADDAW1511GA1041+004801999GA2081+013501999GF108991999999999999999999MA1101081999999REMMET067METAR LSZG 062320Z AUTO 22007KT 9000 -DZ SCT016 OVC045 06/05 Q1011;
0132066621999992011010623504+47183+007417AUTO +0430LSZG V0202201N00311012601CN0044001N1+00601+00501999999ADDAW1511GA1071+012601999GA2041+014701999MA1101081999999REMMET067METAR LSZG 062350Z AUTO 22006KT 4400 -DZ BKN042 SCT049 06/05 Q1011;
0165066621999992011010700204+47183+007417AUTO +0430LSZG V0202401N002110126019N0029001N1+00601+00501999999ADDAW1101GA1021+005401999GA2081+012601999GF108991999999999999999999MA1101081999999REMMET074METAR LSZG 070020Z AUTO 24004KT 210V280 2900 BR FEW018 OVC042 06/05 Q1011;
0142066621999992011010700504+47183+007417AUTO +0430LSZG V0202401N001510123019N0034001N1+00601+00501999999ADDAW1101GA1081+012301999GF108991999999999999999999MA1101081999999REMMET067METAR LSZG 070050Z AUTO 24003KT 180V300 3400 BR OVC041 06/05 Q1011;
0125066621999992011010701204+47183+007417AUTO +0430LSZG V0202201N003110135019N0090001N1+00501+00401999999ADDGA1081+013501999GF108991999999999999999999MA1101081999999REMMET056METAR LSZG 070120Z AUTO 22006KT 9000 OVC045 05/04 Q1011;
0158066621999992011010701504+47183+007417AUTO +0430LSZG V0202001N001510132019N0070001N1+00601+00501999999ADDAW1611GA1071+013201999GA2071+015001999GF107991999999999999999999MA1101081999999REMMET067METAR LSZG 070150Z AUTO 20003KT 7000 -RA BKN044 BKN050 06/05 Q1011;
0181066621999992011010702204+47183+007417AUTO +0430LSZG V0202001N00151004801CN0060001N1+00601+00501999999ADDAW1611GA1041+003301999GA2041+004801999GA3071+018001999GF107991999999999999999999MA1101191999999REMMET074METAR LSZG 070220Z AUTO 20003KT 6000 -RA SCT011 SCT016 BKN060 06/05 Q1012;
0186066621999992011010702504+47183+007417AUTO +0430LSZG V0202001N001010027019N0046001N1+00501+00501999999ADDAW1611GA1071+002701999GA2071+005401999GA3071+011701999GF107991999999999999999999MA1101191999999REMMET079METAR LSZG 070250Z AUTO 20002KT 4600 -RA BKN009 BKN018 BKN039 05/05 Q1012 REDZ;
0181066621999992011010703204+47183+007417AUTO +0430LSZG V0202201N00051005101CN0010001N1+00601+00501999999ADDAW1611GA1041+002401999GA2041+005101999GA3081+009601999GF108991999999999999999999MA1101191999999REMMET074METAR LSZG 070320Z AUTO 22001KT 1000 -RA SCT008 SCT017 OVC032 06/05 Q1012;
0135066621999992011010703504+47183+007417AUTO +0430LSZG V0202001N001510024019N0016001N1+00601+00501999999ADDAW1611GA1071+002401999GF107991999999999999999999MA1101191999999REMMET060METAR LSZG 070350Z AUTO 20003KT 1600 -RA BKN008 06/05 Q1012;
0180066621999992011010704204+47183+007417AUTO +0430LSZG V0202301N001010018019N0015001N1+00601+00501999999ADDAW1621GA1071+001801999GA2041+003301999GA3081+014101999GF108991999999999999999999MA1101191999999REMMET073METAR LSZG 070420Z AUTO 23002KT 1500 RA BKN006 SCT011 OVC047 06/05 Q1012;
0151066621999992011010704504+47183+007417AUTO +0430LSZG V0202501N00101002401CN0005001N1+00501+00501999999ADDAW1611GA1071+002401999GA2041+018001999MA1101191999999REMMET067METAR LSZG 070450Z AUTO 25002KT 0500 -RA BKN008 SCT060 05/05 Q1012;EQDQ01+000042SCOTCV
0134066621999992011010705204+47183+007417AUTO +0430LSZG V0202401N001010021019N0003001N1+00501+00501999999ADDAW1621GA1071+002101999GF107991999999999999999999MA1101191999999REMMET059METAR LSZG 070520Z AUTO 24002KT 0300 RA BKN007 05/05 Q1012;
0134066621999992011010705504+47183+007417AUTO +0430LSZG V0200601N001010009019N0002001N1+00401+00401999999ADDAW1621GA1071+000901999GF107991999999999999999999MA1101191999999REMMET059METAR LSZG 070550Z AUTO 06002KT 0200 RA BKN003 04/04 Q1012;
0135066621999992011010706204+47183+007417AUTO +0430LSZG V0200801N000510012019N0001501N1+00501+00501999999ADDAW1611GA1071+001201999GF107991999999999999999999MA1101191999999REMMET060METAR LSZG 070620Z AUTO 08001KT 0150 -RA BKN004 05/05 Q1012;
0145066621999992011010706504+47183+007417FM-15+0430LSZG V0200401N001510012019N0004001N1+00401+00401999999ADDGA1081+001201999GF108991999999999999999999MA1101191999999MW1441MW2611REMMET064METAR LSZG 070650Z 04003KT 0400 FG -RA OVC004 04/04 Q1012 NOSIG;
0135066621999992011010707204+47183+007417FM-15+0430LSZG V0201201N001510012019N0004001N1+00401+00401999999ADDGA1081+001201999GF108991999999999999999999MA1101191999999MW1441REMMET060METAR LSZG 070720Z 12003KT 0400 FG OVC004 04/04 Q1012 NOSIG;
0135066621999992011010707504+47183+007417FM-15+0430LSZG V0209999V000510012019N0005001N1+00401+00401999999ADDGA1071+001201999GF107991999999999999999999MA1101291999999MW1441REMMET060METAR LSZG 070750Z VRB01KT 0500 FG BKN004 04/04 Q1013 NOSIG;
0158066621999992011010708204+47183+007417FM-15+0430LSZG V0209999V000510024019N0006001N1+00401+00401999999ADDGA1041+001201999GA2071+002401999GF107991999999999999999999MA1101291999999MW1441REMMET067METAR LSZG 070820Z VRB01KT 0600 FG SCT004 BKN008 04/04 Q1013 NOSIG;
0169066621999992011010708504+47183+007417FM-15+0430LSZG V0200501N000510015019N0015001N1+00401+00401999999ADDGA1021+001201999GA2071+001501999GF107991999999999999999999MA1101291999999MW1101MW2411REMMET072METAR LSZG 070850Z 05001KT 1500 BR BCFG FEW004 BKN005 04/04 Q1013 NOSIG;
0169066621999992011010709204+47183+007417FM-15+0430LSZG V0201201N001010060019N0015001N1+00501+00401999999ADDGA1021+000901999GA2071+006001999GF107991999999999999999999MA1101291999999MW1101MW2411REMMET072METAR LSZG 070920Z 12002KT 1500 BR BCFG FEW003 BKN020 05/04 Q1013 NOSIG;
0184066621999992011010709504+47183+007417FM-15+0430LSZG V0209999V000510054019N0020001N1+00601+00601999999ADDGA1021+001201999GA2071+005401999GF107991999999999999999999MA1101291999999MW1101MW2411REMMET087METAR LSZG 070950Z VRB01KT 2000 BR BCFG FEW004 BKN018 06/06 Q1013 BECMG 5000 BR SCT020;
0184066621999992011010710204+47183+007417FM-15+0430LSZG V0203101N001010054019N0020001N1+00601+00501999999ADDGA1021+001201999GA2071+005401999GF107991999999999999999999MA1101291999999MW1101MW2411REMMET087METAR LSZG 071020Z 31002KT 2000 BR BCFG FEW004 BKN018 06/05 Q1013 BECMG 5000 BR SCT020;
0173066621999992011010710504+47183+007417FM-15+0430LSZG V0209999C000010045019N0030001N1+00601+00601999999ADDGA1021+001201999GA2071+004501999GF107991999999999999999999MA1101291999999MW1101REMMET082METAR LSZG 071050Z 00000KT 3000 BR FEW004 BKN015 06/06 Q1013 BECMG 5000 BR SCT015;
0180066621999992011010711204+47183+007417AUTO +0430LSZG V0209999C000010048019N0028001N1+00701+00601999999ADDAW1101GA1041+000601999GA2071+004801999GA3071+024001999GF107991999999999999999999MA1101191999999REMMET073METAR LSZG 071120Z AUTO 00000KT 2800 BR SCT002 BKN016 BKN080 07/06 Q1012;
0173066621999992011010711504+47183+007417FM-15+0430LSZG V0209999V000510240019N0020001N1+00701+00601999999ADDGA1041+001201999GA2071+024001999GF107991999999999999999999MA1101191999999MW1101REMMET082METAR LSZG 071150Z VRB01KT 2000 BR SCT004 BKN080 07/06 Q1012 BECMG 5000 BR SCT015;
0158066621999992011010712204+47183+007417FM-15+0430LSZG V0209999C000010270019N0050001N1+00701+00701999999ADDGA1041+004501999GA2071+027001999GF107991999999999999999999MA1101191999999MW1101REMMET067METAR LSZG 071220Z 00000KT 5000 BR SCT015 BKN090 07/07 Q1012 NOSIG;
0149066621999992011010712504+47183+007417FM-15+0430LSZG V0209999C000010270019N0070001N1+00801+00701999999ADDGA1021+003001999GA2071+027001999GF107991999999999999999999MA1101191999999REMMET064METAR LSZG 071250Z 00000KT 7000 FEW010 BKN090 08/07 Q1012 NOSIG;
0126066621999992011010713204+47183+007417FM-15+0430LSZG V0209999V001012200019N0112651N1+00801+00701999999ADDGA1021+003001999GF102991999999999999999999MA1101191999999REMMET057METAR LSZG 071320Z VRB02KT 9999 FEW010 08/07 Q1012 NOSIG;
0149066621999992011010713504+47183+007417FM-15+0430LSZG V0209999V000510270019N0112651N1+00901+00701999999ADDGA1021+003601999GA2071+027001999GF107991999999999999999999MA1101191999999REMMET064METAR LSZG 071350Z VRB01KT 9999 FEW012 BKN095 09/07 Q1012 NOSIG;
0149066621999992011010714204+47183+007417FM-15+0430LSZG V0203001N000510270019N0112651N1+00801+00701999999ADDGA1021+006001999GA2071+027001999GF107991999999999999999999MA1101191999999REMMET064METAR LSZG 071420Z 30001KT 9999 FEW020 BKN095 08/07 Q1012 NOSIG;
0149066621999992011010714504+47183+007417FM-15+0430LSZG V0209999V000510270019N0112651N1+00801+00701999999ADDGA1021+009001999GA2071+027001999GF107991999999999999999999MA1101191999999REMMET064METAR LSZG 071450Z VRB01KT 9999 FEW030 BKN090 08/07 Q1012 NOSIG;
0159066621999992011010715504+47183+007417FM-15+0430LSZG V0202901N000510210019N0112651N1+00801+00601999999ADDGA1021+009001999GA2071+021001999GF107991999999999999999999MA1101191999999MW1611REMMET068METAR LSZG 071550Z 29001KT 9999 -RA FEW030 BKN078 08/06 Q1012 NOSIG;
0159066621999992011010716204+47183+007417FM-15+0430LSZG V0200401N001010210019N0112651N1+00601+00601999999ADDGA1021+009001999GA2071+021001999GF107991999999999999999999MA1101191999999MW1611REMMET068METAR LSZG 071620Z 04002KT 9999 -RA FEW030 BKN078 06/06 Q1012 NOSIG;
0116066621999992011010716504+47183+007417AUTO +0430LSZG V0209999C000012200019N0002001N1+00501+00501999999ADDAW1611GF100991999999999999999999MA1101191999999REMMET057METAR LSZG 071650Z AUTO 00000KT 0200 -RA NSC 05/05 Q1012;
0181066621999992011010717204+47183+007417AUTO +0430LSZG V0209999V000510210019N0003501N1+00601+00601999999ADDAW1611GA1021+015001999GA2071+021001999GA3071+027001999GF107991999999999999999999MA1101291999999REMMET074METAR LSZG 071720Z AUTO VRB01KT 0350 -RA FEW050 BKN070 BKN090 06/06 Q1013;
0158066621999992011010717504+47183+007417AUTO +0430LSZG V0209999C000010240019N0001501N1+00501+00501999999ADDAW1611GA1041+018001999GA2071+024001999GF107991999999999999999999MA1101191999999REMMET067METAR LSZG 071750Z AUTO 00000KT 0150 -RA SCT060 BKN080 05/05 Q1012;
0135066621999992011010718204+47183+007417AUTO +0430LSZG V0201601N001010180019N0010001N1+00501+00501999999ADDAW1611GA1071+018001999GF107991999999999999999999MA1101191999999REMMET060METAR LSZG 071820Z AUTO 16002KT 1000 -RA BKN060 05/05 Q1012;
0133066621999992011010718504+47183+007417AUTO +0430LSZG V0209999V001510003019N0002001N1+00501+00401999999ADDAW1301GA1091+000301999GF109991999999000251999999MA1101191999999REMMET058METAR LSZG 071850Z AUTO VRB03KT 0200 FG VV001 05/04 Q1012;
0134066621999992011010719204+47183+007417AUTO +0430LSZG V0201201N002610006019N0002001N1+00401+00401999999ADDAW1611GA1091+000601999GF109991999999000251999999MA1101191999999REMMET059METAR LSZG 071920Z AUTO 12005KT 0200 -RA VV002 04/04 Q1012;
0115066621999992011010719504+47183+007417AUTO +0430LSZG V0200201N001512200019N0001501N1+00401+00401999999ADDAW1301GF100991999999999999999999MA1101191999999REMMET056METAR LSZG 071950Z AUTO 02003KT 0150 FG NSC 04/04 Q1012;
0133066621999992011010720204+47183+007417AUTO +0430LSZG V0209999V000510006019N0001501N1+00401+00401999999ADDAW1301GA1091+000601999GF109991999999000251999999MA1101191999999REMMET058METAR LSZG 072020Z AUTO VRB01KT 0150 FG VV002 04/04 Q1012;
0133066621999992011010720504+47183+007417AUTO +0430LSZG V0209999V000510003019N0002001N1+00401+00401999999ADDAW1301GA1091+000301999GF109991999999000251999999MA1101191999999REMMET058METAR LSZG 072050Z AUTO VRB01KT 0200 FG VV001 04/04 Q1012;
0133066621999992011010721204+47183+007417AUTO +0430LSZG V0209999V000510006019N0001501N1+00401+00401999999ADDAW1301GA1091+000601999GF109991999999000251999999MA1101191999999REMMET058METAR LSZG 072120Z AUTO VRB01KT 0150 FG VV002 04/04 Q1012;
0133066621999992011010721504+47183+007417AUTO +0430LSZG V0201201N001010009019N0002001N1+00301+00301999999ADDAW1301GA1091+000901999GF109991999999000251999999MA1101191999999REMMET058METAR LSZG 072150Z AUTO 12002KT 0200 FG VV003 03/03 Q1012;
0115066621999992011010722204+47183+007417AUTO +0430LSZG V0209999C000012200019N0002001N1+00401+00401999999ADDAW1301GF100991999999999999999999MA1101291999999REMMET056METAR LSZG 072220Z AUTO 00000KT 0200 FG NSC 04/04 Q1013;
0133066621999992011010722504+47183+007417AUTO +0430LSZG V0209999V000510006019N0002001N1+00301+00301999999ADDAW1301GA1091+000601999GF109991999999000251999999MA1101291999999REMMET058METAR LSZG 072250Z AUTO VRB01KT 0200 FG VV002 03/03 Q1013;
0115066621999992011010723204+47183+007417AUTO +0430LSZG V0209999V001012200019N0003501N1+00401+00401999999ADDAW1301GF100991999999999999999999MA1101291999999REMMET056METAR LSZG 072320Z AUTO VRB02KT 0350 FG NSC 04/04 Q1013;
0132066621999992011010723504+47183+007417AUTO +0430LSZG V0209999V00051018001CN0002501N1+00301+00301999999ADDAW1611GA1071+018001999GA2041+024001999MA1101291999999REMMET067METAR LSZG 072350Z AUTO VRB01KT 0250 -RA BKN060 SCT080 03/03 Q1013;
0157066621999992011010800204+47183+007417AUTO +0430LSZG V0209999V000510240019N0002501N1+00401+00301999999ADDAW1301GA1021+018001999GA2081+024001999GF108991999999999999999999MA1101291999999REMMET066METAR LSZG 080020Z AUTO VRB01KT 0250 FG FEW060 OVC080 04/03 Q1013;
0116066621999992011010800504+47183+007417AUTO +0430LSZG V0201501N000512200019N0002501N1+00401+00401999999ADDAW1611GF100991999999999999999999MA1101191999999REMMET057METAR LSZG 080050Z AUTO 15001KT 0250 -RA NSC 04/04 Q1012;
0158066621999992011010801204+47183+007417AUTO +0430LSZG V0203301N001510210019N0018001N1+00401+00301999999ADDAW1611GA1021+015001999GA2071+021001999GF107991999999999999999999MA1101291999999REMMET067METAR LSZG 080120Z AUTO 33003KT 1800 -RA FEW050 BKN070 04/03 Q1013;
0134066621999992011010801504+47183+007417AUTO +0430LSZG V0209999V00051021001CN0005501N1+00401+00301999999ADDAW1611GA1091+021001999GF109991999999000251999999MA1101291999999REMMET059METAR LSZG 080150Z AUTO VRB01KT 0550 -RA VV057 04/03 Q1013;
0135066621999992011010802204+47183+007417AUTO +0430LSZG V0203001N001010180019N0002501N1+00301+00301999999ADDAW1611GA1071+018001999GF107991999999999999999999MA1101291999999REMMET060METAR LSZG 080220Z AUTO 30002KT 0250 -RA BKN060 03/03 Q1013;
0134066621999992011010802504+47183+007417AUTO +0430LSZG V0209999V000510003019N0003001N1+00301+00301999999ADDAW1611GA1091+000301999GF109991999999000251999999MA1101291999999REMMET059METAR LSZG 080250Z AUTO VRB01KT 0300 -RA VV001 03/03 Q1013;
0133066621999992011010803204+47183+007417AUTO +0430LSZG V0209999V00101999999CN0003501N1+00301+00301999999ADDAW1621GA1091+999999999GF109991999999000251999999MA1101291999999REMMET058METAR LSZG 080320Z AUTO VRB02KT 0350 RA VV054 03/03 Q1013;
0157066621999992011010803504+47183+007417AUTO +0430LSZG V0209999V000510150019N0006501N1+00301+00301999999ADDAW1621GA1021+001501999GA2071+015001999GF107991999999999999999999MA1101391999999REMMET066METAR LSZG 080350Z AUTO VRB01KT 0650 RA FEW005 BKN050 03/03 Q1014;
0160066621999992011010804204+47183+007417AUTO +0430LSZG V0200701N000510144019N0004501N1+00301+00301999999ADDAW1671GA1021+000301999GA2081+014401999GF108991999999999999999999MA1101391999999REMMET069METAR LSZG 080420Z AUTO 07001KT 0450 -RASN FEW001 OVC048 03/03 Q1014;
0183066621999992011010804504+47183+007417AUTO +0430LSZG V0209999V000510006019N0003001N1+00401+00401999999ADDAW1671GA1071+000601999GA2041+005101999GA3071+013801999GF107991999999999999999999MA1101391999999REMMET076METAR LSZG 080450Z AUTO VRB01KT 0300 -RASN BKN002 SCT017 BKN046 04/04 Q1014;
0162066621999992011010805204+47183+007417AUTO +0430LSZG V0209999C000010048019N0003001N1+00301+00301999999ADDAW1301GA1041+000601999GA2071+004801999GF107991999999999999999999MA1101391999999REMMET071METAR LSZG 080520Z AUTO 00000KT 0300 FG SCT002 BKN016 03/03 Q1014 RERA;
0158066621999992011010805504+47183+007417AUTO +0430LSZG V0203201N000510036019N0004501N1+00401+00401999999ADDAW1531GA1021+000601999GA2081+003601999GF108991999999999999999999MA1101391999999REMMET067METAR LSZG 080550Z AUTO 32001KT 0450 +DZ FEW002 OVC012 04/04 Q1014;
0150066621999992011010806204+47183+007417AUTO +0430LSZG V0201501N00151013201CN0003501N1+00301+00301999999ADDAW1301GA1071+013201999GA2041+015001999MA1101391999999REMMET066METAR LSZG 080620Z AUTO 15003KT 0350 FG BKN044 SCT050 03/03 Q1014;EQDQ01+000042SCOTCV
0145066621999992011010806504+47183+007417FM-15+0430LSZG V0209999V001010078019N0006001N1+00401+00301999999ADDGA1071+007801999GF107991999999999999999999MA1101391999999MW1441MW2511REMMET064METAR LSZG 080650Z VRB02KT 0600 -DZ FG BKN026 04/03 Q1014 NOSIG;
0134066621999992011010807204+47183+007417FM-15+0430LSZG V0200701N001510009019N0002001N1+00301+00301999999ADDGA1091+000901999GF109991999999000251999999MA1101391999999MW1451REMMET059METAR LSZG 080720Z 07003KT 0200 FG VV003 03/03 Q1014 NOSIG;
0145066621999992011010807504+47183+007417FM-15+0430LSZG V0200401N001510009019N0003501N1+00401+00401999999ADDGA1081+000901999GF108991999999999999999999MA1101391999999MW1441MW2511REMMET064METAR LSZG 080750Z 04003KT 0350 -DZ FG OVC003 04/04 Q1014 NOSIG;
0158066621999992011010808204+47183+007417FM-15+0430LSZG V0201101N001010066019N0025001N1+00401+00401999999ADDGA1021+001501999GA2071+006601999GF107991999999999999999999MA1101391999999MW1101REMMET067METAR LSZG 080820Z 11002KT 2500 BR FEW005 BKN022 04/04 Q1014 NOSIG;
0158066621999992011010808504+47183+007417FM-15+0430LSZG V0209999C000012200019N0035001N1+00501+00501999999ADDGA1021+001501999GA2041+006601999GF104991999999999999999999MA1101391999999MW1101REMMET067METAR LSZG 080850Z 00000KT 3500 BR FEW005 SCT022 05/05 Q1014 NOSIG;
0181066621999992011010809204+47183+007417FM-15+0430LSZG V0209999V00051008401CN0035001N1+00501+00501999999ADDGA1021+001501999GA2041+008401999GA3071+027001999GF107991999999999999999999MA1101391999999MW1101REMMET074METAR LSZG 080920Z VRB01KT 3500 BR FEW005 SCT028 BKN092 05/05 Q1014 NOSIG;
0181066621999992011010809504+47183+007417FM-15+0430LSZG V0200201N00051008401CN0045001N1+00701+00601999999ADDGA1021+001501999GA2041+008401999GA3071+027001999GF107991999999999999999999MA1101391999999MW1101REMMET074METAR LSZG 080950Z 02001KT 4500 BR FEW005 SCT028 BKN090 07/06 Q1014 NOSIG;
0077066621999992011010810204+47183+007417AUTO +0430LSZG V0209999V000519999999Y0099001N1+00701+00601999999ADDMA1101391999999REMMET050METAR LSZG 081020Z AUTO VRB01KT CAVOK 07/06 Q1014;
0158066621999992011010810504+47183+007417FM-15+0430LSZG V0201301N001012200019N0045001N1+00801+00701999999ADDGA1021+001501999GA2041+007501999GF104991999999999999999999MA1101391999999MW1101REMMET067METAR LSZG 081050Z 13002KT 4500 BR FEW005 SCT025 08/07 Q1014 NOSIG;
0126066621999992011010811204+47183+007417FM-15+0430LSZG V0201101N000512200019N0070001N1+00801+00701999999ADDGA1021+004501999GF102991999999999999999999MA1101391999999REMMET057METAR LSZG 081120Z 11001KT 7000 FEW015 08/07 Q1014 NOSIG;
0149066621999992011010811504+47183+007417FM-15+0430LSZG V0209999C000012200019N0112651N1+00901+00701999999ADDGA1021+003901999GA2041+060001999GF104991999999999999999999MA1101391999999REMMET064METAR LSZG 081150Z 00000KT 9999 FEW013 SCT200 09/07 Q1014 NOSIG;
0149066621999992011010812204+47183+007417FM-15+0430LSZG V0209999V000512200019N0112651N1+00901+00701999999ADDGA1021+003901999GA2041+060001999GF104991999999999999999999MA1101291999999REMMET064METAR LSZG 081220Z VRB01KT 9999 FEW013 SCT200 09/07 Q1013 NOSIG;
0149066621999992011010812504+47183+007417FM-15+0430LSZG V0209999V000512200019N0112651N1+01001+00801999999ADDGA1021+003901999GA2041+060001999GF104991999999999999999999MA1101291999999REMMET064METAR LSZG 081250Z VRB01KT 9999 FEW013 SCT200 10/08 Q1013 NOSIG;
0149066621999992011010813204+47183+007417FM-15+0430LSZG V0200401N000512200019N0112651N1+01001+00801999999ADDGA1021+003901999GA2041+060001999GF104991999999999999999999MA1101291999999REMMET064METAR LSZG 081320Z 04001KT 9999 FEW013 SCT200 10/08 Q1013 NOSIG;
0149066621999992011010813504+47183+007417FM-15+0430LSZG V0209999V000512200019N0112651N1+01101+00801999999ADDGA1021+003901999GA2041+060001999GF104991999999999999999999MA1101291999999REMMET064METAR LSZG 081350Z VRB01KT 9999 FEW013 SCT200 11/08 Q1013 NOSIG;
0149066621999992011010814204+47183+007417FM-15+0430LSZG V0209999V000512200019N0112651N1+01101+00701999999ADDGA1021+003901999GA2041+060001999GF104991999999999999999999MA1101291999999REMMET064METAR LSZG 081420Z VRB01KT 9999 FEW013 SCT200 11/07 Q1013 NOSIG;
0149066621999992011010814504+47183+007417FM-15+0430LSZG V0200701N001010360019N0112651N1+00901+00801999999ADDGA1021+006001999GA2071+036001999GF107991999999999999999999MA1101291999999REMMET064METAR LSZG 081450Z 07002KT 9999 FEW020 BKN120 09/08 Q1013 NOSIG;
0077066621999992011010815204+47183+007417AUTO +0430LSZG V0201001N001519999999Y0099001N1+00901+00801999999ADDMA1101291999999REMMET050METAR LSZG 081520Z AUTO 10003KT CAVOK 09/08 Q1013;
0078066621999992011010815504+47183+007417FM-15+0430LSZG V0200301N001519999999Y0099001N1+00901+00701999999ADDMA1101291999999REMMET051METAR LSZG 081550Z 03003KT CAVOK 09/07 Q1013 NOSIG;
0106066621999992011010816204+47183+007417AUTO +0430LSZG V0200601N001012200019N0090001N1+00701+00601999999ADDGF100991999999999999999999MA1101291999999REMMET053METAR LSZG 081620Z AUTO 06002KT 9000 NSC 07/06 Q1013;
0115066621999992011010816504+47183+007417AUTO +0430LSZG V0209999V000512200019N0009001N1+00701+00601999999ADDAW1101GF100991999999999999999999MA1101291999999REMMET056METAR LSZG 081650Z AUTO VRB01KT 0900 BR NSC 07/06 Q1013;
0115066621999992011010817204+47183+007417AUTO +0430LSZG V0209999C000012200019N0003001N1+00601+00601999999ADDAW1301GF100991999999999999999999MA1101291999999REMMET056METAR LSZG 081720Z AUTO 00000KT 0300 FG NSC 06/06 Q1013;
0115066621999992011010817504+47183+007417AUTO +0430LSZG V0209999C000012200019N0001501N1+00401+00401999999ADDAW1301GF100991999999999999999999MA1101291999999REMMET056METAR LSZG 081750Z AUTO 00000KT 0150 FG NSC 04/04 Q1013;
0115066621999992011010818204+47183+007417AUTO +0430LSZG V0209999V000512200019N0003001N1+00301+00301999999ADDAW1301GF100991999999999999999999MA1101291999999REMMET056METAR LSZG 081820Z AUTO VRB01KT 0300 FG NSC 03/03 Q1013;
0134066621999992011010818504+47183+007417AUTO +0430LSZG V0200701N000510012019N0001501N1+00401+00401999999ADDAW1611GA1091+001201999GF109991999999000251999999MA1101291999999REMMET059METAR LSZG 081850Z AUTO 07001KT 0150 -RA VV004 04/04 Q1013;
0123066621999992011010819204+47183+007417AUTO +0430LSZG V0203601N001512200019N0013001N1+00201+00201999999ADDAW1301GF100991999999999999999999MA1101291999999REMMET064METAR LSZG 081920Z AUTO 36003KT 320V030 1300 FG NSC 02/02 Q1013;
0133066621999992011010819504+47183+007417AUTO +0430LSZG V0209999V001010003019N0001501N1+00201+00201999999ADDAW1301GA1091+000301999GF109991999999000251999999MA1101291999999REMMET058METAR LSZG 081950Z AUTO VRB02KT 0150 FG VV001 02/02 Q1013;
0133066621999992011010820204+47183+007417AUTO +0430LSZG V0209999C000010012019N0002501N1+00201+00201999999ADDAW1301GA1091+001201999GF109991999999000251999999MA1101291999999REMMET058METAR LSZG 082020Z AUTO 00000KT 0250 FG VV004 02/02 Q1013;
0133066621999992011010820504+47183+007417AUTO +0430LSZG V0209999V000510003019N0002001N1+00201+00201999999ADDAW1301GA1091+000301999GF109991999999000251999999MA1101291999999REMMET058METAR LSZG 082050Z AUTO VRB01KT 0200 FG VV001 02/02 Q1013;
0133066621999992011010821204+47183+007417AUTO +0430LSZG V0201201N000510003019N0002001N1+00201+00201999999ADDAW1301GA1091+000301999GF109991999999000251999999MA1101291999999REMMET058METAR LSZG 082120Z AUTO 12001KT 0200 FG VV001 02/02 Q1013;
0133066621999992011010821504+47183+007417AUTO +0430LSZG V0209999C000010003019N0001501N1+00301+00201999999ADDAW1301GA1091+000301999GF109991999999000251999999MA1101291999999REMMET058METAR LSZG 082150Z AUTO 00000KT 0150 FG VV001 03/02 Q1013;
0133066621999992011010822204+47183+007417AUTO +0430LSZG V0209999V000510003019N0002001N1+00201+00201999999ADDAW1301GA1091+000301999GF109991999999000251999999MA1101291999999REMMET058METAR LSZG 082220Z AUTO VRB01KT 0200 FG VV001 02/02 Q1013;
0133066621999992011010822504+47183+007417AUTO +0430LSZG V0202401N001510003019N0002001N1+00201+00201999999ADDAW1301GA1091+000301999GF109991999999000251999999MA1101291999999REMMET058METAR LSZG 082250Z AUTO 24003KT 0200 FG VV001 02/02 Q1013;
0133066621999992011010823204+47183+007417AUTO +0430LSZG V0202401N001010003019N0004501N1+00101+00101999999ADDAW1301GA1091+000301999GF109991999999000251999999MA1101291999999REMMET058METAR LSZG 082320Z AUTO 24002KT 0450 FG VV001 01/01 Q1013;
0133066621999992011010823504+47183+007417AUTO +0430LSZG V0202901N000510003019N0001501N1+00101+00101999999ADDAW1301GA1091+000301999GF109991999999000251999999MA1101291999999REMMET058METAR LSZG 082350Z AUTO 29001KT 0150 FG VV001 01/01 Q1013;
0133066621999992011010900204+47183+007417AUTO +0430LSZG V0201701N001010003019N0001501N1+00001+00001999999ADDAW1301GA1091+000301999GF109991999999000251999999MA1101291999999REMMET058METAR LSZG 090020Z AUTO 17002KT 0150 FG VV001 00/00 Q1013;
0133066621999992011010900504+47183+007417AUTO +0430LSZG V0209999C000010003019N0000501N1+00101+00101999999ADDAW1301GA1091+000301999GF109991999999000251999999MA1101291999999REMMET058METAR LSZG 090050Z AUTO 00000KT 0050 FG VV001 01/01 Q1013;
0133066621999992011010901204+47183+007417AUTO +0430LSZG V0201101N001010006019N0002001N1+00101+00101999999ADDAW1301GA1091+000601999GF109991999999000251999999MA1101291999999REMMET058METAR LSZG 090120Z AUTO 11002KT 0200 FG VV002 01/01 Q1013;
0133066621999992011010901504+47183+007417AUTO +0430LSZG V0209999V001010006019N0001001N1+00101+00101999999ADDAW1301GA1091+000601999GF109991999999000251999999MA1101291999999REMMET058METAR LSZG 090150Z AUTO VRB02KT 0100 FG VV002 01/01 Q1013;
0133066621999992011010902204+47183+007417AUTO +0430LSZG V0209999V001010009019N0002001N1+00101+00101999999ADDAW1301GA1091+000901999GF109991999999000251999999MA1101291999999REMMET058METAR LSZG 090220Z AUTO VRB02KT 0200 FG VV003 01/01 Q1013;
0133066621999992011010902504+47183+007417AUTO +0430LSZG V0209999V000510006019N0001501N1+00101+00101999999ADDAW1301GA1091+000601999GF109991999999000251999999MA1101291999999REMMET058METAR LSZG 090250Z AUTO VRB01KT 0150 FG VV002 01/01 Q1013;
0133066621999992011010903204+47183+007417AUTO +0430LSZG V0200601N000510006019N0002001N1+00001+00001999999ADDAW1301GA1091+000601999GF109991999999000251999999MA1101191999999REMMET058METAR LSZG 090320Z AUTO 06001KT 0200 FG VV002 00/00 Q1012;
0133066621999992011010903504+47183+007417AUTO +0430LSZG V0209999C000010003019N0000501N1+00101+00101999999ADDAW1301GA1091+000301999GF109991999999000251999999MA1101191999999REMMET058METAR LSZG 090350Z AUTO 00000KT 0050 FG VV001 01/01 Q1012;
0133066621999992011010904204+47183+007417AUTO +0430LSZG V0209999C000010006019N0001001N1+00101+00101999999ADDAW1301GA1091+000601999GF109991999999000251999999MA1101191999999REMMET058METAR LSZG 090420Z AUTO 00000KT 0100 FG VV002 01/01 Q1012;
0133066621999992011010904504+47183+007417AUTO +0430LSZG V0202801N000510003019N0001001N1+00001+00001999999ADDAW1301GA1091+000301999GF109991999999000251999999MA1101191999999REMMET058METAR LSZG 090450Z AUTO 28001KT 0100 FG VV001 00/00 Q1012;
0133066621999992011010905204+47183+007417AUTO +0430LSZG V0200801N000510006019N0002001N1+00001+00001999999ADDAW1301GA1091+000601999GF109991999999000251999999MA1101191999999REMMET058METAR LSZG 090520Z AUTO 08001KT 0200 FG VV002 00/00 Q1012;
0135066621999992011010905504+47183+007417AUTO +0430LSZG V0209999C000010003019N0000501N1+00001+00001999999ADDAW1301GA1091+000301999GF109991999999000251999999MA1101191999999REMMET060METAR LSZG 090550Z AUTO 00000KT 0050 FG VV001 M00/M00 Q1012;
0134066621999992011010906204+47183+007417AUTO +0430LSZG V0209999C000010006019N0005501N1+00001+00001999999ADDAW1301GA1091+000601999GF109991999999000251999999MA1101191999999REMMET059METAR LSZG 090620Z AUTO 00000KT 0550 FG VV002 00/M00 Q1012;
0160066621999992011010906504+47183+007417FM-15+0430LSZG V0209999C000010360019N0003001N1+00001-00101999999ADDGA1021+006001999GA2071+036001999GF107991999999999999999999MA1101291999999MW1441REMMET069METAR LSZG 090650Z 00000KT 0300 FG FEW020 BKN120 M00/M01 Q1013 NOSIG;
0135066621999992011010907204+47183+007417AUTO +0430LSZG V0203001N000510006019N0005001N1+00001-00101999999ADDAW1301GA1091+000601999GF109991999999000251999999MA1101291999999REMMET060METAR LSZG 090720Z AUTO 30001KT 0500 FG VV002 M00/M01 Q1013;
0159066621999992011010907504+47183+007417FM-15+0430LSZG V0202301N001510300019N0020001N1+00001+00001999999ADDGA1021+003301999GA2071+030001999GF107991999999999999999999MA1101291999999MW1441REMMET068METAR LSZG 090750Z 23003KT 2000 FG FEW011 BKN100 00/M00 Q1013 NOSIG;
0160066621999992011010908204+47183+007417FM-15+0430LSZG V0209999V001010240019N0040001N1+00001+00001999999ADDGA1021+002401999GA2071+024001999GF107991999999999999999999MA1101391999999MW1101REMMET069METAR LSZG 090820Z VRB02KT 4000 BR FEW008 BKN080 M00/M00 Q1014 NOSIG;
0158066621999992011010908504+47183+007417FM-15+0430LSZG V0209999V000510210019N0050001N1+00101+00001999999ADDGA1021+002401999GA2071+021001999GF107991999999999999999999MA1101391999999MW1101REMMET067METAR LSZG 090850Z VRB01KT 5000 BR FEW008 BKN074 01/00 Q1014 NOSIG;
0158066621999992011010909204+47183+007417AUTO +0430LSZG V0209999V001010180019N0060001N1+00201+00101999999ADDAW1511GA1071+018001999GA2071+021001999GF107991999999999999999999MA1101391999999REMMET067METAR LSZG 090920Z AUTO VRB02KT 6000 -DZ BKN060 BKN070 02/01 Q1014;
0135066621999992011010909504+47183+007417FM-15+0430LSZG V0209999V000510180019N0080001N1+00201+00201999999ADDGA1071+018001999GF107991999999999999999999MA1101391999999MW1631REMMET060METAR LSZG 090950Z VRB01KT 8000 RA BKN060 02/02 Q1014 NOSIG;
0158066621999992011010910204+47183+007417AUTO +0430LSZG V0209999V000510150019N0090001N1+00301+00201999999ADDAW1611GA1071+015001999GA2071+021001999GF107991999999999999999999MA1101391999999REMMET067METAR LSZG 091020Z AUTO VRB01KT 9000 -RA BKN050 BKN070 03/02 Q1014;
0159066621999992011010910504+47183+007417FM-15+0430LSZG V0209999V001010180019N0080001N1+00301+00201999999ADDGA1021+003001999GA2071+018001999GF107991999999999999999999MA1101391999999MW1611REMMET068METAR LSZG 091050Z VRB02KT 8000 -RA FEW010 BKN065 03/02 Q1014 NOSIG;
0159066621999992011010911204+47183+007417FM-15+0430LSZG V0209999V001510150019N0080001N1+00401+00301999999ADDGA1021+000601999GA2071+015001999GF107991999999999999999999MA1101391999999MW1611REMMET068METAR LSZG 091120Z VRB03KT 8000 -RA FEW002 BKN055 04/03 Q1014 NOSIG;
0159066621999992011010911504+47183+007417FM-15+0430LSZG V0201601N001510144019N0080001N1+00401+00401999999ADDGA1021+000601999GA2071+014401999GF107991999999999999999999MA1101391999999MW1611REMMET068METAR LSZG 091150Z 16003KT 8000 -RA FEW002 BKN048 04/04 Q1014 NOSIG;
0159066621999992011010912204+47183+007417FM-15+0430LSZG V0203401N001510123019N0060001N1+00401+00401999999ADDGA1021+000901999GA2071+012301999GF107991999999999999999999MA1101391999999MW1611REMMET068METAR LSZG 091220Z 34003KT 6000 -RA FEW003 BKN041 04/04 Q1014 NOSIG;
0158066621999992011010912504+47183+007417FM-15+0430LSZG V0201301N001010147019N0050001N1+00401+00401999999ADDGA1021+001201999GA2081+014701999GF108991999999999999999999MA1101391999999MW1631REMMET067METAR LSZG 091250Z 13002KT 5000 RA FEW004 OVC049 04/04 Q1014 NOSIG;
0133066621999992011010913204+47183+007417AUTO +0430LSZG V0209999C000010141019N0050001N1+00401+00401999999ADDAW1621GA1091+014101999GF109991999999000251999999MA1101391999999REMMET058METAR LSZG 091320Z AUTO 00000KT 5000 RA VV047 04/04 Q1014;
0167066621999992011010913504+47183+007417FM-15+0430LSZG V0203401N001010150019N0040001N1+00501+00401999999ADDGA1021+001501999GA2081+015001999GF108991999999999999999999MA1101391999999MW1101MW2631REMMET070METAR LSZG 091350Z 34002KT 4000 BR RA FEW005 OVC053 05/04 Q1014 NOSIG;
0167066621999992011010914204+47183+007417FM-15+0430LSZG V0209999C000010018019N0040001N1+00501+00501999999ADDGA1071+001801999GA2081+015001999GF108991999999999999999999MA1101391999999MW1101MW2631REMMET070METAR LSZG 091420Z 00000KT 4000 BR RA BKN006 OVC050 05/05 Q1014 NOSIG;
0167066621999992011010914504+47183+007417FM-15+0430LSZG V0209999V001010018019N0030001N1+00501+00401999999ADDGA1021+000301999GA2081+001801999GF108991999999999999999999MA1101391999999MW1101MW2631REMMET070METAR LSZG 091450Z VRB02KT 3000 BR RA FEW001 OVC006 05/04 Q1014 NOSIG;
0190066621999992011010915204+47183+007417FM-15+0430LSZG V0209999V001010018019N0041001N1+00501+00501999999ADDGA1021+000301999GA2071+001801999GA3081+011401999GF108991999999999999999999MA1101491999999MW1101MW2631REMMET077METAR LSZG 091520Z VRB02KT 4100 RA BR FEW001 BKN006 OVC038 05/05 Q1015 NOSIG;
0190066621999992011010915504+47183+007417FM-15+0430LSZG V0209999V000510084019N0021001N1+00501+00501999999ADDGA1041+001801999GA2071+008401999GA3081+011401999GF108991999999999999999999MA1101491999999MW1101MW2631REMMET077METAR LSZG 091550Z VRB01KT 2100 RA BR SCT006 BKN028 OVC038 05/05 Q1015 NOSIG;
0190066621999992011010916204+47183+007417FM-15+0430LSZG V0209999V000510045019N0025001N1+00501+00501999999ADDGA1041+001801999GA2071+004501999GA3081+008401999GF108991999999999999999999MA1101491999999MW1101MW2631REMMET077METAR LSZG 091620Z VRB01KT 2500 RA BR SCT006 BKN015 OVC028 05/05 Q1015 NOSIG;
0151066621999992011010916504+47183+007417AUTO +0430LSZG V0209999C00001003601CN0005001N1+00501+00501999999ADDAW1611GA1071+003601999GA2041+008701999MA1101491999999REMMET067METAR LSZG 091650Z AUTO 00000KT 0500 -RA BKN012 SCT029 05/05 Q1015;EQDQ01+000042SCOTCV
0135066621999992011010917204+47183+007417AUTO +0430LSZG V0209999C000010027019N0007001N1+00501+00501999999ADDAW1611GA1071+002701999GF107991999999999999999999MA1101591999999REMMET060METAR LSZG 091720Z AUTO 00000KT 0700 -RA BKN009 05/05 Q1016;
0134066621999992011010917504+47183+007417AUTO +0430LSZG V0201301N000510012019N0004001N1+00501+00501999999ADDAW1621GA1071+001201999GF107991999999999999999999MA1101591999999REMMET059METAR LSZG 091750Z AUTO 13001KT 0400 RA BKN004 05/05 Q1016;
0157066621999992011010918204+47183+007417AUTO +0430LSZG V0209999C000010036019N0002501N1+00401+00401999999ADDAW1621GA1041+002101999GA2071+003601999GF107991999999999999999999MA1101591999999REMMET066METAR LSZG 091820Z AUTO 00000KT 0250 RA SCT007 BKN012 04/04 Q1016;
0135066621999992011010918504+47183+007417AUTO +0430LSZG V0202401N000510018019N0004001N1+00501+00501999999ADDAW1611GA1071+001801999GF107991999999999999999999MA1101591999999REMMET060METAR LSZG 091850Z AUTO 24001KT 0400 -RA BKN006 05/05 Q1016;
0157066621999992011010919204+47183+007417AUTO +0430LSZG V0202301N002110075019N0035001N1+00601+00501999999ADDAW1621GA1041+002101999GA2071+007501999GF107991999999999999999999MA1101691999999REMMET066METAR LSZG 091920Z AUTO 23004KT 3500 RA SCT007 BKN025 06/05 Q1017;
