0128066660999992010010100004+47600+008183FM-12+034199999V0209999C000019999999N9999999N1+00491+00491099301ADDMA1999999095241MD1710101+9999OA149900261REMSYN076AAXX  01004 06666 33/// /0000 10049 20049 39524 49930 57010 333 91105 91204;
0128066660999992010010101004+47600+008183FM-12+034199999V0201501N001019999999N9999999N1+00471+00471099241ADDMA1999999095181MD1710131+9999OA149900261REMSYN076AAXX  01014 06666 33/// /1502 10047 20047 39518 49924 57013 333 91105 91203;
0128066660999992010010102004+47600+008183FM-12+034199999V0200901N000519999999N9999999N1+00471+00471099231ADDMA1999999095171MD1719999+9999OA149900261REMSYN076AAXX  01024 06666 33/// /0901 10047 20047 39517 49923 57/// 333 91105 91203;
0087066660999992010010103004+47600+008183FM-12+034199999V0201301N001019999999N9999999N1+00461+00461099161ADDMA1999999095101REMSYN060AAXX  01034 06666 43/// /1302 10046 20046 39510 49916 5////;
0087066660999992010010104004+47600+008183FM-12+034199999V0200301N001019999999N9999999N1+00451+00451099141ADDMA1999999095081REMSYN060AAXX  01044 06666 33/// /0302 10045 20045 39508 49914 5////;
0128066660999992010010105004+47600+008183FM-12+034199999V0200901N001519999999N9999999N1+00431+00431099131ADDMA1999999095061MD1610111+9999OA149900211REMSYN076AAXX  01054 06666 33/// /0903 10043 20043 39506 49913 56011 333 91104 91203;
0206066660999992010010106004+47600+008183FM-12+034199999V0201101N000519999999N9999999N1+00421+00421099111ADDAA124007491AL12400791GJ100009IA2999+00309KA1999N+00411MA1999999095041MD1710061+9999OA149900261REMSYN100AAXX  01064 06666 33/// /1101 10042 20042 39504 49911 57006 333 20041 3/003 55000 70074 91105 91204;
0128066660999992010010107004+47600+008183FM-12+034199999V0200901N001019999999N9999999N1+00411+00411099101ADDMA1999999095031MD1710051+9999OA149900311REMSYN076AAXX  01074 06666 33/// /0902 10041 20041 39503 49910 57005 333 91106 91203;
0128066660999992010010108004+47600+008183FM-12+034199999V0200601N001019999999N9999999N1+00401+00401099141ADDMA1999999095071MD1310011+9999OA149900311REMSYN076AAXX  01084 06666 33/// /0602 10040 20040 39507 49914 53001 333 91106 91203;
0128066660999992010010109004+47600+008183FM-12+034199999V0200801N001019999999N9999999N1+00421+00421099191ADDMA1999999095121MD1210081+9999OA149900311REMSYN076AAXX  01094 06666 33/// /0802 10042 20042 39512 49919 52008 333 91106 91203;
0128066660999992010010110004+47600+008183FM-12+034199999V0200501N001519999999N9999999N1+00411+00411099271ADDMA1999999095201MD1310171+9999OA149900261REMSYN076AAXX  01104 06666 33/// /0503 10041 20041 39520 49927 53017 333 91105 91203;
0128066660999992010010111004+47600+008183FM-12+034199999V0200701N001519999999N9999999N1+00411+00411099271ADDMA1999999095201MD1110131+9999OA149900261REMSYN076AAXX  01114 06666 33/// /0703 10041 20041 39520 49927 51013 333 91105 91203;
0128066660999992010010112004+47600+008183FM-12+034199999V0202601N000519999999N9999999N1+00441+00431099281ADDMA1999999095211MD1210091+9999OA149900311REMSYN076AAXX  01124 06666 33/// /2601 10044 20043 39521 49928 52009 333 91106 91203;
0128066660999992010010113004+47600+008183FM-12+034199999V0202801N001019999999N9999999N1+00481+00451099301ADDMA1999999095231MD1210031+9999OA149900211REMSYN076AAXX  01134 06666 33/// /2802 10048 20045 39523 49930 52003 333 91104 91203;
0128066660999992010010114004+47600+008183FM-12+034199999V0202601N002619999999N9999999N1+00521+00471099371ADDMA1999999095311MD1219999+9999OA149900361REMSYN076AAXX  01144 06666 33/// /2605 10052 20047 39531 49937 52/// 333 91107 91205;
0128066660999992010010115004+47600+008183FM-12+034199999V0202501N003119999999N9999999N1+00471+00461099481ADDMA1999999095411MD1310201+9999OA149900571REMSYN076AAXX  01154 06666 33/// /2506 10047 20046 39541 49948 53020 333 91111 91207;
0145066660999992010010116004+47600+008183FM-12+034199999V0202401N004119999999N9999999N1+00441+00371099591ADDAA101001091MA1999999095511MD1310281+9999OA149900721REMSYN082AAXX  01164 06666 23/// /2408 10044 20037 39551 49959 53028 333 69995 91114 91209;
0145066660999992010010117004+47600+008183FM-12+034199999V0202501N006719999999N9999999N1+00391+00301099741ADDAA101001091MA1999999095641MD1310331+9999OA149900931REMSYN082AAXX  01174 06666 23/// /2513 10039 20030 39564 49974 53033 333 60015 91118 91213;
0170066660999992010010118004+47600+008183FM-12+034199999V0202401N006219999999N9999999N1+00261+00181099931ADDAA112002091KA1120M+00521MA1999999095811MD1310401+9999OA149901081REMSYN094AAXX  01184 06666 03/// /2412 10026 20018 39581 49993 53040 60022 333 10052 69915 91121 91214;
0128066660999992010010119004+47600+008183FM-12+034199999V0202401N007219999999N9999999N1+00161+00091100141ADDMA1999999095991MD1310481+9999OA149901291REMSYN076AAXX  01194 06666 33/// /2414 10016 20009 39599 40014 53048 333 91125 91216;
0145066660999992010010120004+47600+008183FM-12+034199999V0202501N006719999999N9999999N1+00111+00051100311ADDAA101000021MA1999999096151MD1210511+9999OA149901291REMSYN082AAXX  01204 06666 23/// /2513 10011 20005 39615 40031 52051 333 69925 91125 91216;
0145066660999992010010121004+47600+008183FM-12+034199999V0202601N007719999999N9999999N1+00131+00021100471ADDAA101000021MA1999999096301MD1210491+9999OA149901341REMSYN082AAXX  01214 06666 23/// /2615 10013 20002 39630 40047 52049 333 69915 91126 91217;
0128066660999992010010122004+47600+008183FM-12+034199999V0202701N005119999999N9999999N1+00071-00071100611ADDMA1999999096431MD1210441+9999OA149901341REMSYN076AAXX  01224 06666 33/// /2710 10007 21007 39643 40061 52044 333 91126 91217;
0128066660999992010010123004+47600+008183FM-12+034199999V0202701N007219999999N9999999N1+00051-00151100741ADDMA1999999096551MD1110401+9999OA149901341REMSYN076AAXX  01234 06666 33/// /2714 10005 21015 39655 40074 51040 333 91126 91215;
0151066660999992010010200004+47600+008183FM-12+034199999V0202601N005719999999N9999999N1+00011-00161100821ADDAA106000391MA1999999096621MD1110321+9999OA149901491REMSYN088AAXX  02004 06666 03/// /2611 10001 21016 39662 40082 51032 69931 333 60005 91129 91217;
0128066660999992010010201004+47600+008183FM-12+034199999V0202601N005719999999N9999999N1-00021-00171100921ADDMA1999999096711MD1210281+9999OA149901491REMSYN076AAXX  02014 06666 33/// /2611 11002 21017 39671 40092 52028 333 91129 91216;
0087066660999992010010202004+47600+008183FM-12+034199999V0202601N006719999999N9999999N1-00061-00251101071ADDMA1999999096851REMSYN060AAXX  02024 06666 33/// /2613 11006 21025 39685 40107 5////;
0128066660999992010010203004+47600+008183FM-12+034199999V0202501N007219999999N9999999N1-00051-00251101171ADDMA1999999096951MD1310331+9999OA149901491REMSYN076AAXX  02034 06666 33/// /2514 11005 21025 39695 40117 53033 333 91129 91216;
0128066660999992010010204004+47600+008183FM-12+034199999V0202501N006219999999N9999999N1-00051-00291101271ADDMA1999999097041MD1210331+9999OA149901131REMSYN076AAXX  02044 06666 33/// /2512 11005 21029 39704 40127 52033 333 91122 91214;
0128066660999992010010205004+47600+008183FM-12+034199999V0202601N006719999999N9999999N1-00051-00311101341ADDMA1999999097111MD1110261+9999OA149901081REMSYN076AAXX  02054 06666 33/// /2613 11005 21031 39711 40134 51026 333 91121 91213;
0229066660999992010010206004+47600+008183FM-12+034199999V0202501N006219999999N9999999N1-00091-00341101401ADDAA112000391AA224002391AL11800291GJ100009IA2999-00209KA1999N-00091MA1999999097161MD1210211+9999OA149901491REMSYN112AAXX  02064 06666 03/// /2512 11009 21034 39716 40140 52021 69932 333 21009 3/102 55000 60005 70023 91129 91217;
0128066660999992010010207004+47600+008183FM-12+034199999V0203001N004119999999N9999999N1-00151-00341101541ADDMA1999999097291MD1310251+9999OA149901031REMSYN076AAXX  02074 06666 33/// /3008 11015 21034 39729 40154 53025 333 91120 91212;
0108066660999992010010208004+47600+008183FM-12+034199999V0202501N005719999999N9999999N1-00151-00361101631ADDAA101000021MA1999999097371REMSYN070AAXX  02084 06666 23/// /2511 11015 21036 39737 40163 5//// 333 69915;
0128066660999992010010209004+47600+008183FM-12+034199999V0202401N005719999999N9999999N1-00091-00371101731ADDMA1999999097481MD1110321+9999OA149901081REMSYN076AAXX  02094 06666 33/// /2411 11009 21037 39748 40173 51032 333 91121 91213;
0128066660999992010010210004+47600+008183FM-12+034199999V0202401N004619999999N9999999N1-00031-00371101811ADDMA1999999097561MD1210271+9999OA149900931REMSYN076AAXX  02104 06666 33/// /2409 11003 21037 39756 40181 52027 333 91118 91213;
0128066660999992010010211004+47600+008183FM-12+034199999V0202601N004119999999N9999999N1+00011-00411101871ADDMA1999999097631MD1110261+9999OA149900881REMSYN076AAXX  02114 06666 33/// /2608 10001 21041 39763 40187 51026 333 91117 91211;
0170066660999992010010212004+47600+008183FM-12+034199999V0202401N005119999999N9999999N1-00031-00471101951ADDAA106000091MA1999999097701MD1210221+9999OA149901131REMSYN088AAXX  02124 06666 03/// /2410 11003 21047 39770 40195 52022 69911 333 60005 91122 91214;EQDQ01  00002PRCP06
0128066660999992010010213004+47600+008183FM-12+034199999V0202401N005119999999N9999999N1+00031-00501102011ADDMA1999999097761MD1210201+9999OA149900931REMSYN076AAXX  02134 06666 33/// /2410 10003 21050 39776 40201 52020 333 91118 91212;
0128066660999992010010214004+47600+008183FM-12+034199999V0202501N004119999999N9999999N1+00031-00521102091ADDMA1999999097841MD1319999+9999OA149900931REMSYN076AAXX  02144 06666 33/// /2508 10003 21052 39784 40209 53/// 333 91118 91212;
0128066660999992010010215004+47600+008183FM-12+034199999V0202601N005719999999N9999999N1-00061-00601102191ADDMA1999999097921MD1310221+9999OA149900931REMSYN076AAXX  02154 06666 33/// /2611 11006 21060 39792 40219 53022 333 91118 91212;
0128066660999992010010216004+47600+008183FM-12+034199999V0202501N002119999999N9999999N1-00171-00551102271ADDMA1999999097981MD1210221+9999OA149900881REMSYN076AAXX  02164 06666 33/// /2504 11017 21055 39798 40227 52022 333 91117 91211;
0128066660999992010010217004+47600+008183FM-12+034199999V0202501N001519999999N9999999N1-00241-00571102351ADDMA1999999098051MD1110211+9999OA149900721REMSYN076AAXX  02174 06666 33/// /2503 11024 21057 39805 40235 51021 333 91114 91207;
0189066660999992010010218004+47600+008183FM-12+034199999V0202101N001519999999N9999999N1-00291-00531102411ADDAA112000091KA1120M+00031MA1999999098101MD1210181+9999OA149900981REMSYN094AAXX  02184 06666 03/// /2103 11029 21053 39810 40241 52018 69912 333 10003 60005 91119 91213;EQDQ01  00002PRCP12
0128066660999992010010219004+47600+008183FM-12+034199999V0202701N000519999999N9999999N1-00331-00551102451ADDMA1999999098131MD1110151+9999OA149900211REMSYN076AAXX  02194 06666 33/// /2701 11033 21055 39813 40245 51015 333 91104 91203;
0128066660999992010010220004+47600+008183FM-12+034199999V0209999C000019999999N9999999N1-00421-00591102471ADDMA1999999098131MD1110081+9999OA149900211REMSYN076AAXX  02204 06666 33/// /0000 11042 21059 39813 40247 51008 333 91104 91203;
0128066660999992010010221004+47600+008183FM-12+034199999V0201601N000519999999N9999999N1-00451-00611102471ADDMA1999999098131MD1210031+9999OA149900721REMSYN076AAXX  02214 06666 33/// /1601 11045 21061 39813 40247 52003 333 91114 91207;
0128066660999992010010222004+47600+008183FM-12+034199999V0201501N001019999999N9999999N1-00471-00601102481ADDMA1999999098141MD1210011+9999OA149900151REMSYN076AAXX  02224 06666 33/// /1502 11047 21060 39814 40248 52001 333 91103 91202;
0128066660999992010010223004+47600+008183FM-12+034199999V0209999C000019999999N9999999N1-00511-00631102511ADDMA1999999098161MD1210031+9999OA149900151REMSYN076AAXX  02234 06666 33/// /0000 11051 21063 39816 40251 52003 333 91103 91202;
0128066660999992010010300004+47600+008183FM-12+034199999V0209999C000019999999N9999999N1-00561-00641102511ADDMA1999999098151MD1010021+9999OA149900931REMSYN076AAXX  03004 06666 33/// /0000 11056 21064 39815 40251 50002 333 91118 91212;
0128066660999992010010301004+47600+008183FM-12+034199999V0209999C000019999999N9999999N1-00581-00661102531ADDMA1999999098171MD1210031+9999OA149900101REMSYN076AAXX  03014 06666 33/// /0000 11058 21066 39817 40253 52003 333 91102 91201;
0087066660999992010010302004+47600+008183FM-12+034199999V0201601N000519999999N9999999N1-00641-00691102561ADDMA1999999098181REMSYN060AAXX  03024 06666 33/// /1601 11064 21069 39818 40256 5////;
0087066660999992010010303004+47600+008183FM-12+034199999V0200601N000519999999N9999999N1-00631-00681102521ADDMA1999999098151REMSYN060AAXX  03034 06666 33/// /0601 11063 21068 39815 40252 5////;
0128066660999992010010304004+47600+008183FM-12+034199999V0201401N000519999999N9999999N1-00641-00691102491ADDMA1999999098121MD1710051+9999OA149900151REMSYN076AAXX  03044 06666 33/// /1401 11064 21069 39812 40249 57005 333 91103 91202;
0128066660999992010010305004+47600+008183FM-12+034199999V0201601N000519999999N9999999N1-00681-00731102511ADDMA1999999098131MD1719999+9999OA149900151REMSYN076AAXX  03054 06666 33/// /1601 11068 21073 39813 40251 57/// 333 91103 91202;
0225066660999992010010306004+47600+008183FM-12+034199999V0201301N001019999999N9999999N1-00681-00781102471ADDAA124000091AL10600091GJ103249IA2999-01009KA1999N-00691MA1999999098091MD1710061+9999OA149900261REMSYN100AAXX  03064 06666 33/// /1302 11068 21078 39809 40247 57006 333 21069 3/110 55054 70001 91105 91203;EQDQ01  00002PRCP24
0128066660999992010010307004+47600+008183FM-12+034199999V0201501N000519999999N9999999N1-00741-00831102481ADDMA1999999098091MD1710031+9999OA149900261REMSYN076AAXX  03074 06666 33/// /1501 11074 21083 39809 40248 57003 333 91105 91203;
0128066660999992010010308004+47600+008183FM-12+034199999V0201601N000519999999N9999999N1-00701-00791102521ADDMA1999999098141MD1319999+9999OA149900151REMSYN076AAXX  03084 06666 33/// /1601 11070 21079 39814 40252 53/// 333 91103 91202;
0128066660999992010010309004+47600+008183FM-12+034199999V0201201N000519999999N9999999N1-00531-00661102481ADDMA1999999098131MD1210041+9999OA149900261REMSYN076AAXX  03094 06666 33/// /1201 11053 21066 39813 40248 52004 333 91105 91203;
0128066660999992010010310004+47600+008183FM-12+034199999V0201101N000519999999N9999999N1-00401-00621102471ADDMA1999999098141MD1210051+9999OA149900151REMSYN076AAXX  03104 06666 33/// /1101 11040 21062 39814 40247 52005 333 91103 91202;
0128066660999992010010311004+47600+008183FM-12+034199999V0201301N001019999999N9999999N1-00301-00631102321ADDMA1999999098011MD1810131+9999OA149900211REMSYN076AAXX  03114 06666 33/// /1302 11030 21063 39801 40232 58013 333 91104 91202;
0128066660999992010010312004+47600+008183FM-12+034199999V0201801N001019999999N9999999N1-00171-00591102231ADDMA1999999097941MD1710191+9999OA149900261REMSYN076AAXX  03124 06666 33/// /1802 11017 21059 39794 40223 57019 333 91105 91203;
0128066660999992010010313004+47600+008183FM-12+034199999V0201401N000519999999N9999999N1-00091-00601102181ADDMA1999999097911MD1710231+9999OA149900211REMSYN076AAXX  03134 06666 33/// /1401 11009 21060 39791 40218 57023 333 91104 91202;
0128066660999992010010314004+47600+008183FM-12+034199999V0203301N000519999999N9999999N1-00011-00591102151ADDMA1999999097891MD1710121+9999OA149900261REMSYN076AAXX  03144 06666 33/// /3301 11001 21059 39789 40215 57012 333 91105 91202;
0128066660999992010010315004+47600+008183FM-12+034199999V0202101N000519999999N9999999N1-00041-00551102141ADDMA1999999097881MD1710061+9999OA149900261REMSYN076AAXX  03154 06666 33/// /2101 11004 21055 39788 40214 57006 333 91105 91202;
0128066660999992010010316004+47600+008183FM-12+034199999V0201901N001019999999N9999999N1-00241-00481102151ADDMA1999999097861MD1710051+9999OA149900211REMSYN076AAXX  03164 06666 33/// /1902 11024 21048 39786 40215 57005 333 91104 91202;
0128066660999992010010317004+47600+008183FM-12+034199999V0201801N000519999999N9999999N1-00321-00561102151ADDMA1999999097841MD1610051+9999OA149900151REMSYN076AAXX  03174 06666 33/// /1801 11032 21056 39784 40215 56005 333 91103 91202;
0147066660999992010010318004+47600+008183FM-12+034199999V0201201N000519999999N9999999N1-00391-00561102171ADDKA1120M+00001MA1999999097851MD1710031+9999OA149900261REMSYN082AAXX  03184 06666 33/// /1201 11039 21056 39785 40217 57003 333 10000 91105 91202;
0128066660999992010010319004+47600+008183FM-12+034199999V0200801N000519999999N9999999N1-00431-00581102181ADDMA1999999097851MD1410001+9999OA149900211REMSYN076AAXX  03194 06666 33/// /0801 11043 21058 39785 40218 54001 333 91104 91202;
0128066660999992010010320004+47600+008183FM-12+034199999V0201301N000519999999N9999999N1-00541-00651102161ADDMA1999999097821MD1810021+9999OA149900211REMSYN076AAXX  03204 06666 33/// /1301 11054 21065 39782 40216 58002 333 91104 91202;
0128066660999992010010321004+47600+008183FM-12+034199999V0201701N000519999999N9999999N1-00541-00691102141ADDMA1999999097801MD1710051+9999OA149900261REMSYN076AAXX  03214 06666 33/// /1701 11054 21069 39780 40214 57005 333 91105 91203;
0128066660999992010010322004+47600+008183FM-12+034199999V0201201N000519999999N9999999N1-00601-00731102151ADDMA1999999097801MD1710051+9999OA149900261REMSYN076AAXX  03224 06666 33/// /1201 11060 21073 39780 40215 57005 333 91105 91203;
0128066660999992010010323004+47600+008183FM-12+034199999V0201201N000519999999N9999999N1-00641-00761102131ADDMA1999999097771MD1710051+9999OA149900261REMSYN076AAXX  03234 06666 33/// /1201 11064 21076 39777 40213 57005 333 91105 91202;
0128066660999992010010400004+47600+008183FM-12+034199999V0209999C000019999999N9999999N1-00691-00801102081ADDMA1999999097721MD1710081+9999OA149900261REMSYN076AAXX  04004 06666 33/// /0000 11069 21080 39772 40208 57008 333 91105 91203;
0128066660999992010010401004+47600+008183FM-12+034199999V0201201N001019999999N9999999N1-00741-00861102031ADDMA1999999097661MD1710141+9999OA149900261REMSYN076AAXX  04014 06666 33/// /1202 11074 21086 39766 40203 57014 333 91105 91203;
0128066660999992010010402004+47600+008183FM-12+034199999V0201701N001019999999N9999999N1-00801-00901102001ADDMA1999999097621MD1710151+9999OA149900261REMSYN076AAXX  04024 06666 33/// /1702 11080 21090 39762 40200 57015 333 91105 91203;
0128066660999992010010403004+47600+008183FM-12+034199999V0200301N001019999999N9999999N1-00781-00901101951ADDMA1999999097581MD1719999+9999OA149900261REMSYN076AAXX  04034 06666 33/// /0302 11078 21090 39758 40195 57/// 333 91105 91203;
0128066660999992010010404004+47600+008183FM-12+034199999V0201301N000519999999N9999999N1-00831-00941101921ADDMA1999999097541MD1710121+9999OA149900261REMSYN076AAXX  04044 06666 33/// /1301 11083 21094 39754 40192 57012 333 91105 91203;
0128066660999992010010405004+47600+008183FM-12+034199999V0200901N000519999999N9999999N1-00841-00961101891ADDMA1999999097511MD1710111+9999OA149900211REMSYN076AAXX  04054 06666 33/// /0901 11084 21096 39751 40189 57011 333 91104 91202;
0225066660999992010010406004+47600+008183FM-12+034199999V0201201N001019999999N9999999N1-00871-01001101921ADDAA124000091AL19900091GJ104089IA2999-01209KA1999N-00901MA1999999097531MD1510051+9999OA149900261REMSYN100AAXX  04064 06666 33/// /1202 11087 21100 39753 40192 55005 333 21090 3/112 55068 70000 91105 91203;EQDQ01  00002PRCP24
0128066660999992010010407004+47600+008183FM-12+034199999V0209999C000019999999N9999999N1-00911-01021101891ADDMA1999999097501MD1710041+9999OA149900211REMSYN076AAXX  04074 06666 33/// /0000 11091 21102 39750 40189 57004 333 91104 91202;
0128066660999992010010408004+47600+008183FM-12+034199999V0201201N001019999999N9999999N1-00881-01011101891ADDMA1999999097501MD1810011+9999OA149900151REMSYN076AAXX  04084 06666 33/// /1202 11088 21101 39750 40189 58001 333 91103 91202;
0128066660999992010010409004+47600+008183FM-12+034199999V0201201N000519999999N9999999N1-00781-00911101881ADDMA1999999097511MD1510021+9999OA149900211REMSYN076AAXX  04094 06666 33/// /1201 11078 21091 39751 40188 55002 333 91104 91203;
0128066660999992010010410004+47600+008183FM-12+034199999V0200401N000519999999N9999999N1-00601-00841101841ADDMA1999999097501MD1010001+9999OA149900151REMSYN076AAXX  04104 06666 33/// /0401 11060 21084 39750 40184 50000 333 91103 91203;
0128066660999992010010411004+47600+008183FM-12+034199999V0200401N000519999999N9999999N1-00431-00731101711ADDMA1999999097401MD1710101+9999OA149900151REMSYN076AAXX  04114 06666 33/// /0401 11043 21073 39740 40171 57010 333 91103 91201;
0128066660999992010010412004+47600+008183FM-12+034199999V0202001N000519999999N9999999N1-00321-00681101601ADDMA1999999097321MD1810191+9999OA149900261REMSYN076AAXX  04124 06666 33/// /2001 11032 21068 39732 40160 58019 333 91105 91203;
0128066660999992010010413004+47600+008183FM-12+034199999V0202801N000519999999N9999999N1-00211-00641101501ADDMA1999999097241MD1610261+9999OA149900151REMSYN076AAXX  04134 06666 33/// /2801 11021 21064 39724 40150 56026 333 91103 91201;
0128066660999992010010414004+47600+008183FM-12+034199999V0202301N001019999999N9999999N1-00161-00621101441ADDMA1999999097191MD1619999+9999OA149900151REMSYN076AAXX  04144 06666 33/// /2302 11016 21062 39719 40144 56/// 333 91103 91201;
0128066660999992010010415004+47600+008183FM-12+034199999V0202101N001019999999N9999999N1-00181-00521101431ADDMA1999999097181MD1610141+9999OA149900151REMSYN076AAXX  04154 06666 33/// /2102 11018 21052 39718 40143 56014 333 91103 91202;
0128066660999992010010416004+47600+008183FM-12+034199999V0201701N000519999999N9999999N1-00351-00591101471ADDMA1999999097191MD1510051+9999OA149900151REMSYN076AAXX  04164 06666 33/// /1701 11035 21059 39719 40147 55005 333 91103 91202;
0128066660999992010010417004+47600+008183FM-12+034199999V0202501N001519999999N9999999N1-00421-00591101471ADDMA1999999097181MD1010011+9999OA149900261REMSYN076AAXX  04174 06666 33/// /2503 11042 21059 39718 40147 50001 333 91105 91203;
0147066660999992010010418004+47600+008183FM-12+034199999V0202601N002119999999N9999999N1-00471-00591101501ADDKA1120M-00131MA1999999097201MD1210021+9999OA149900311REMSYN082AAXX  04184 06666 33/// /2604 11047 21059 39720 40150 52002 333 11013 91106 91204;
0128066660999992010010419004+47600+008183FM-12+034199999V0202701N000519999999N9999999N1-00521-00611101521ADDMA1999999097211MD1310021+9999OA149900361REMSYN076AAXX  04194 06666 33/// /2701 11052 21061 39721 40152 53002 333 91107 91204;
0128066660999992010010420004+47600+008183FM-12+034199999V0209999C000019999999N9999999N1-00571-00621101511ADDMA1999999097191MD1010011+9999OA149900361REMSYN076AAXX  04204 06666 33/// /0000 11057 21062 39719 40151 50001 333 91107 91204;
0128066660999992010010421004+47600+008183FM-12+034199999V0201301N000519999999N9999999N1-00591-00671101501ADDMA1999999097181MD1710021+9999OA149900361REMSYN076AAXX  04214 06666 33/// /1301 11059 21067 39718 40150 57002 333 91107 91204;
0128066660999992010010422004+47600+008183FM-12+034199999V0201701N000519999999N9999999N1-00721-00801101481ADDMA1999999097141MD1710071+9999OA149900101REMSYN076AAXX  04224 06666 33/// /1701 11072 21080 39714 40148 57007 333 91102 91201;
0128066660999992010010423004+47600+008183FM-12+034199999V0209999C000019999999N9999999N1-00751-00811101461ADDMA1999999097111MD1710081+9999OA149900101REMSYN076AAXX  04234 06666 33/// /0000 11075 21081 39711 40146 57008 333 91102 91201;
0128066660999992010010500004+47600+008183FM-12+034199999V0209999C000019999999N9999999N1-00791-00841101391ADDMA1999999097041MD1710141+9999OA149900361REMSYN076AAXX  05004 06666 33/// /0000 11079 21084 39704 40139 57014 333 91107 91204;
0128066660999992010010501004+47600+008183FM-12+034199999V0201401N000519999999N9999999N1-00831-00891101341ADDMA1999999096991MD1810151+9999OA149900101REMSYN076AAXX  05014 06666 33/// /1401 11083 21089 39699 40134 58015 333 91102 91202;
0128066660999992010010502004+47600+008183FM-12+034199999V0209999C000019999999N9999999N1-00851-00911101341ADDMA1999999096981MD1710131+9999OA149900151REMSYN076AAXX  05024 06666 33/// /0000 11085 21091 39698 40134 57013 333 91103 91202;
0128066660999992010010503004+47600+008183FM-12+034199999V0201501N000519999999N9999999N1-00871-00961101281ADDMA1999999096921MD1710121+9999OA149900211REMSYN076AAXX  05034 06666 33/// /1501 11087 21096 39692 40128 57012 333 91104 91203;
0128066660999992010010504004+47600+008183FM-12+034199999V0201501N001019999999N9999999N1-00871-00971101191ADDMA1999999096841MD1710151+9999OA149900211REMSYN076AAXX  05044 06666 33/// /1502 11087 21097 39684 40119 57015 333 91104 91203;
0128066660999992010010505004+47600+008183FM-12+034199999V0201401N000519999999N9999999N1-00861-00971101141ADDMA1999999096791MD1810191+9999OA149900211REMSYN076AAXX  05054 06666 33/// /1401 11086 21097 39679 40114 58019 333 91104 91202;
0225066660999992010010506004+47600+008183FM-12+034199999V0201001N001519999999N9999999N1-00801-00911101051ADDAA124000091AL19900091GJ103909IA2999-01109KA1999N-00891MA1999999096711MD1610211+9999OA149900361REMSYN100AAXX  05064 06666 33/// /1003 11080 21091 39671 40105 56021 333 21089 3/111 55065 70000 91107 91204;EQDQ01  00002PRCP24
0128066660999992010010507004+47600+008183FM-12+034199999V0201101N000519999999N9999999N1-00751-00861101021ADDMA1999999096691MD1710151+9999OA149900361REMSYN076AAXX  05074 06666 33/// /1101 11075 21086 39669 40102 57015 333 91107 91203;
0128066660999992010010508004+47600+008183FM-12+034199999V0201201N000519999999N9999999N1-00711-00841100981ADDMA1999999096661MD1710131+9999OA149900211REMSYN076AAXX  05084 06666 33/// /1201 11071 21084 39666 40098 57013 333 91104 91202;
0128066660999992010010509004+47600+008183FM-12+034199999V0201301N002119999999N9999999N1-00621-00741100941ADDMA1999999096641MD1710071+9999OA149900361REMSYN076AAXX  05094 06666 33/// /1304 11062 21074 39664 40094 57007 333 91107 91204;
0128066660999992010010510004+47600+008183FM-12+034199999V0201301N002119999999N9999999N1-00511-00731100871ADDMA1999999096591MD1710101+9999OA149900361REMSYN076AAXX  05104 06666 33/// /1304 11051 21073 39659 40087 57010 333 91107 91204;
0128066660999992010010511004+47600+008183FM-12+034199999V0200901N002619999999N9999999N1-00401-00721100761ADDMA1999999096501MD1710161+9999OA149900511REMSYN076AAXX  05114 06666 33/// /0905 11040 21072 39650 40076 57016 333 91110 91205;
0128066660999992010010512004+47600+008183FM-12+034199999V0201201N001519999999N9999999N1-00341-00651100671ADDMA1999999096421MD1810221+9999OA149900511REMSYN076AAXX  05124 06666 33/// /1203 11034 21065 39642 40067 58022 333 91110 91205;
0128066660999992010010513004+47600+008183FM-12+034199999V0201001N002619999999N9999999N1-00321-00671100571ADDMA1999999096331MD1710261+9999OA149900511REMSYN076AAXX  05134 06666 33/// /1005 11032 21067 39633 40057 57026 333 91110 91205;
0087066660999992010010514004+47600+008183FM-12+034199999V0200901N002119999999N9999999N1-00301-00621100511ADDMA1999999096281REMSYN060AAXX  05144 06666 33/// /0904 11030 21062 39628 40051 5////;
0128066660999992010010515004+47600+008183FM-12+034199999V0201001N001519999999N9999999N1-00301-00631100491ADDMA1999999096261MD1710161+9999OA149900511REMSYN076AAXX  05154 06666 33/// /1003 11030 21063 39626 40049 57016 333 91110 91205;
0128066660999992010010516004+47600+008183FM-12+034199999V0201001N001519999999N9999999N1-00331-00631100491ADDMA1999999096251MD1710081+9999OA149900461REMSYN076AAXX  05164 06666 33/// /1003 11033 21063 39625 40049 57008 333 91109 91204;
0128066660999992010010517004+47600+008183FM-12+034199999V0200901N001519999999N9999999N1-00371-00651100461ADDMA1999999096221MD1710061+9999OA149900411REMSYN076AAXX  05174 06666 33/// /0903 11037 21065 39622 40046 57006 333 91108 91204;
0147066660999992010010518004+47600+008183FM-12+034199999V0200701N001019999999N9999999N1-00371-00631100441ADDKA1120M-00301MA1999999096201MD1810061+9999OA149900511REMSYN082AAXX  05184 06666 33/// /0702 11037 21063 39620 40044 58006 333 11030 91110 91205;
0128066660999992010010519004+47600+008183FM-12+034199999V0200901N002119999999N9999999N1-00381-00651100421ADDMA1999999096181MD1710071+9999OA149900361REMSYN076AAXX  05194 06666 33/// /0904 11038 21065 39618 40042 57007 333 91107 91204;
0128066660999992010010520004+47600+008183FM-12+034199999V0201101N001019999999N9999999N1-00391-00651100401ADDMA1999999096161MD1710061+9999OA149900361REMSYN076AAXX  05204 06666 33/// /1102 11039 21065 39616 40040 57006 333 91107 91204;
0128066660999992010010521004+47600+008183FM-12+034199999V0200901N001019999999N9999999N1-00391-00651100351ADDMA1999999096111MD1710091+9999OA149900411REMSYN076AAXX  05214 06666 33/// /0902 11039 21065 39611 40035 57009 333 91108 91204;
0128066660999992010010522004+47600+008183FM-12+034199999V0200701N002119999999N9999999N1-00401-00631100331ADDMA1999999096091MD1710091+9999OA149900361REMSYN076AAXX  05224 06666 33/// /0704 11040 21063 39609 40033 57009 333 91107 91204;
0145066660999992010010523004+47600+008183FM-12+034199999V0200901N001519999999N9999999N1-00431-00581100331ADDAA101000021MA1999999096081MD1610081+9999OA149900361REMSYN082AAXX  05234 06666 23/// /0903 11043 21058 39608 40033 56008 333 69915 91107 91204;
0170066660999992010010600004+47600+008183FM-12+034199999V0200901N002119999999N9999999N1-00431-00611100271ADDAA106000091MA1999999096031MD1810081+9999OA149900511REMSYN088AAXX  06004 06666 03/// /0904 11043 21061 39603 40027 58008 69911 333 60005 91110 91205;EQDQ01  00002PRCP06
0128066660999992010010601004+47600+008183FM-12+034199999V0200601N001019999999N9999999N1-00421-00581100251ADDMA1999999096011MD1710081+9999OA149900361REMSYN076AAXX  06014 06666 33/// /0602 11042 21058 39601 40025 57008 333 91107 91204;
0145066660999992010010602004+47600+008183FM-12+034199999V0200601N001019999999N9999999N1-00441-00531100281ADDAA101000391MA1999999096031MD1510051+9999OA149900361REMSYN082AAXX  06024 06666 23/// /0602 11044 21053 39603 40028 55005 333 69935 91107 91204;
0128066660999992010010603004+47600+008183FM-12+034199999V0201001N001019999999N9999999N1-00431-00571100261ADDMA1999999096021MD1710011+9999OA149900361REMSYN076AAXX  06034 06666 33/// /1002 11043 21057 39602 40026 57001 333 91107 91204;
0128066660999992010010604004+47600+008183FM-12+034199999V0201601N001019999999N9999999N1-00411-00581100261ADDMA1999999096021MD1210011+9999OA149900311REMSYN076AAXX  06044 06666 33/// /1602 11041 21058 39602 40026 52001 333 91106 91204;
0128066660999992010010605004+47600+008183FM-12+034199999V0201701N000519999999N9999999N1-00441-00541100281ADDMA1999999096031MD1010001+9999OA149900151REMSYN076AAXX  06054 06666 33/// /1701 11044 21054 39603 40028 50000 333 91103 91202;
0229066660999992010010606004+47600+008183FM-12+034199999V0201301N000519999999N9999999N1-00411-00531100271ADDAA112000591AA224000591AL12400091GJ100009IA2999-00509KA1999N-00451MA1999999096031MD1510011+9999OA149900361REMSYN112AAXX  06064 06666 03/// /1301 11041 21053 39603 40027 55001 69942 333 21045 3/105 55000 60005 70004 91107 91204;
0128066660999992010010607004+47600+008183FM-12+034199999V0209999C000019999999N9999999N1-00371-00491100301ADDMA1999999096061MD1210041+9999OA149900151REMSYN076AAXX  06074 06666 33/// /0000 11037 21049 39606 40030 52004 333 91103 91201;
0128066660999992010010608004+47600+008183FM-12+034199999V0209999C000019999999N9999999N1-00331-00461100351ADDMA1999999096121MD1210091+9999OA149900311REMSYN076AAXX  06084 06666 33/// /0000 11033 21046 39612 40035 52009 333 91106 91203;
0128066660999992010010609004+47600+008183FM-12+034199999V0202501N003119999999N9999999N1-00251-00421100381ADDMA1999999096161MD1210131+9999OA149900511REMSYN076AAXX  06094 06666 33/// /2506 11025 21042 39616 40038 52013 333 91110 91206;
0145066660999992010010610004+47600+008183FM-12+034199999V0202501N003119999999N9999999N1-00221-00411100411ADDAA101000021MA1999999096191MD1110131+9999OA149900511REMSYN082AAXX  06104 06666 23/// /2506 11022 21041 39619 40041 51013 333 69915 91110 91206;
0128066660999992010010611004+47600+008183FM-12+034199999V0202501N002619999999N9999999N1-00181-00421100361ADDMA1999999096151MD1019999+9999OA149900511REMSYN076AAXX  06114 06666 33/// /2505 11018 21042 39615 40036 50/// 333 91110 91206;
0170066660999992010010612004+47600+008183FM-12+034199999V0202401N002119999999N9999999N1-00141-00401100331ADDAA106000091MA1999999096131MD1710031+9999OA149900511REMSYN088AAXX  06124 06666 03/// /2404 11014 21040 39613 40033 57003 69911 333 60005 91110 91206;EQDQ01  00002PRCP06
0128066660999992010010613004+47600+008183FM-12+034199999V0202401N003619999999N9999999N1-00151-00381100341ADDMA1999999096141MD1510051+9999OA149900571REMSYN076AAXX  06134 06666 33/// /2407 11015 21038 39614 40034 55005 333 91111 91207;
0128066660999992010010614004+47600+008183FM-12+034199999V0202401N003619999999N9999999N1-00141-00391100361ADDMA1999999096161MD1219999+9999OA149900571REMSYN076AAXX  06144 06666 33/// /2407 11014 21039 39616 40036 52/// 333 91111 91207;
0128066660999992010010615004+47600+008183FM-12+034199999V0202501N003619999999N9999999N1-00151-00391100411ADDMA1999999096201MD1219999+9999OA149900621REMSYN076AAXX  06154 06666 33/// /2507 11015 21039 39620 40041 52/// 333 91112 91207;
0128066660999992010010616004+47600+008183FM-12+034199999V0202301N003119999999N9999999N1-00161-00391100441ADDMA1999999096231MD1210091+9999OA149900621REMSYN076AAXX  06164 06666 33/// /2306 11016 21039 39623 40044 52009 333 91112 91208;
0128066660999992010010617004+47600+008183FM-12+034199999V0202401N002619999999N9999999N1-00211-00411100501ADDMA1999999096281MD1310121+9999OA149900571REMSYN076AAXX  06174 06666 33/// /2405 11021 21041 39628 40050 53012 333 91111 91207;
0189066660999992010010618004+47600+008183FM-12+034199999V0202601N000519999999N9999999N1-00331-00491100581ADDAA112000091KA1120M-00131MA1999999096341MD1219999+9999OA149900621REMSYN094AAXX  06184 06666 03/// /2601 11033 21049 39634 40058 52/// 69912 333 11013 60005 91112 91208;EQDQ01  00002PRCP12
0128066660999992010010619004+47600+008183FM-12+034199999V0202401N000519999999N9999999N1-00291-00421100601ADDMA1999999096361MD1210131+9999OA149900461REMSYN076AAXX  06194 06666 33/// /2401 11029 21042 39636 40060 52013 333 91109 91206;
0128066660999992010010620004+47600+008183FM-12+034199999V0201301N001019999999N9999999N1-00311-00411100631ADDMA1999999096391MD1210111+9999OA149900151REMSYN076AAXX  06204 06666 33/// /1302 11031 21041 39639 40063 52011 333 91103 91202;
0128066660999992010010621004+47600+008183FM-12+034199999V0209999C000019999999N9999999N1-00261-00361100651ADDMA1999999096421MD1210081+9999OA149900571REMSYN076AAXX  06214 06666 33/// /0000 11026 21036 39642 40065 52008 333 91111 91207;
0128066660999992010010622004+47600+008183FM-12+034199999V0202201N000519999999N9999999N1-00271-00371100691ADDMA1999999096451MD1210091+9999OA149900151REMSYN076AAXX  06224 06666 33/// /2201 11027 21037 39645 40069 52009 333 91103 91201;
0128066660999992010010623004+47600+008183FM-12+034199999V0202401N001519999999N9999999N1-00221-00361100711ADDMA1999999096481MD1210091+9999OA149900211REMSYN076AAXX  06234 06666 33/// /2403 11022 21036 39648 40071 52009 333 91104 91203;
0128066660999992010010700004+47600+008183FM-12+034199999V0202601N000519999999N9999999N1-00231-00331100731ADDMA1999999096501MD1210081+9999OA149900621REMSYN076AAXX  07004 06666 33/// /2601 11023 21033 39650 40073 52008 333 91112 91208;
0128066660999992010010701004+47600+008183FM-12+034199999V0202801N001019999999N9999999N1-00241-00331100771ADDMA1999999096531MD1210081+9999OA149900211REMSYN076AAXX  07014 06666 33/// /2802 11024 21033 39653 40077 52008 333 91104 91202;
0128066660999992010010702004+47600+008183FM-12+034199999V0202001N000519999999N9999999N1-00321-00381100811ADDMA1999999096561MD1219999+9999OA149900211REMSYN076AAXX  07024 06666 33/// /2001 11032 21038 39656 40081 52/// 333 91104 91202;
0128066660999992010010703004+47600+008183FM-12+034199999V0201101N000519999999N9999999N1-00541-00561100841ADDMA1999999096551MD1010051+9999OA149900211REMSYN076AAXX  07034 06666 33/// /1101 11054 21056 39655 40084 50005 333 91104 91203;
0128066660999992010010704004+47600+008183FM-12+034199999V0209999C000019999999N9999999N1-00621-00651100861ADDMA1999999096561MD1210031+9999OA149900151REMSYN076AAXX  07044 06666 33/// /0000 11062 21065 39656 40086 52003 333 91103 91202;
0128066660999992010010705004+47600+008183FM-12+034199999V0201801N000519999999N9999999N1-00441-00451100851ADDMA1999999096581MD1310021+9999OA149900151REMSYN076AAXX  07054 06666 33/// /1801 11044 21045 39658 40085 53002 333 91103 91202;
0225066660999992010010706004+47600+008183FM-12+034199999V0200701N001019999999N9999999N1-00341-00401100881ADDAA124000091AL10600091GJ100009IA2999-01009KA1999N-00631MA1999999096621MD1210071+9999OA149900211REMSYN100AAXX  07064 06666 33/// /0702 11034 21040 39662 40088 52007 333 21063 3/110 55000 70001 91104 91203;EQDQ01  00002PRCP24
0128066660999992010010707004+47600+008183FM-12+034199999V0201001N000519999999N9999999N1-00361-00431100911ADDMA1999999096651MD1210091+9999OA149900211REMSYN076AAXX  07074 06666 33/// /1001 11036 21043 39665 40091 52009 333 91104 91203;
0128066660999992010010708004+47600+008183FM-12+034199999V0201001N001019999999N9999999N1-00351-00441100981ADDMA1999999096721MD1319999+9999OA149900311REMSYN076AAXX  07084 06666 33/// /1002 11035 21044 39672 40098 53/// 333 91106 91203;
0128066660999992010010709004+47600+008183FM-12+034199999V0200901N002119999999N9999999N1-00301-00431101021ADDMA1999999096761MD1310141+9999OA149900311REMSYN076AAXX  07094 06666 33/// /0904 11030 21043 39676 40102 53014 333 91106 91204;
0128066660999992010010710004+47600+008183FM-12+034199999V0200901N000519999999N9999999N1-00201-00391101051ADDMA1999999096811MD1210161+9999OA149900311REMSYN076AAXX  07104 06666 33/// /0901 11020 21039 39681 40105 52016 333 91106 91204;
0128066660999992010010711004+47600+008183FM-12+034199999V0200501N000519999999N9999999N1-00121-00361101021ADDMA1999999096791MD1210071+9999OA149900311REMSYN076AAXX  07114 06666 33/// /0501 11012 21036 39679 40102 52007 333 91106 91204;
0128066660999992010010712004+47600+008183FM-12+034199999V0201201N001019999999N9999999N1-00061-00351101001ADDMA1999999096781MD1010021+9999OA149900311REMSYN076AAXX  07124 06666 33/// /1202 11006 21035 39678 40100 50002 333 91106 91204;
0128066660999992010010713004+47600+008183FM-12+034199999V0201601N001519999999N9999999N1-00041-00351100961ADDMA1999999096751MD1710061+9999OA149900311REMSYN076AAXX  07134 06666 33/// /1603 11004 21035 39675 40096 57006 333 91106 91203;
0101066660999992010010716004+47600+008183FM-12+034199999V0201501N000519999999N9999999N1-00091-00261101081ADDMA1999999096851MD1310101+9999REMSYN060AAXX  07164 06666 43/// /1501 11009 21026 39685 40108 53010;
0128066660999992010010717004+47600+008183FM-12+034199999V0201401N000519999999N9999999N1-00151-00271101121ADDMA1999999096881MD1119999+9999OA149900101REMSYN076AAXX  07174 06666 33/// /1401 11015 21027 39688 40112 51/// 333 91102 91201;
0147066660999992010010718004+47600+008183FM-12+034199999V0201501N000519999999N9999999N1-00141-00271101171ADDKA1120M-00021MA1999999096931MD1319999+9999OA149900311REMSYN082AAXX  07184 06666 33/// /1501 11014 21027 39693 40117 53/// 333 11002 91106 91204;
0128066660999992010010719004+47600+008183FM-12+034199999V0201201N000519999999N9999999N1-00151-00301101181ADDMA1999999096941MD1210091+9999OA149900151REMSYN076AAXX  07194 06666 33/// /1201 11015 21030 39694 40118 52009 333 91103 91202;
0128066660999992010010720004+47600+008183FM-12+034199999V0200501N000519999999N9999999N1-00131-00321101191ADDMA1999999096951MD1210071+9999OA149900211REMSYN076AAXX  07204 06666 33/// /0501 11013 21032 39695 40119 52007 333 91104 91202;
0128066660999992010010721004+47600+008183FM-12+034199999V0201301N000519999999N9999999N1-00161-00331101211ADDMA1999999096971MD1210041+9999OA149900211REMSYN076AAXX  07214 06666 33/// /1301 11016 21033 39697 40121 52004 333 91104 91202;
0128066660999992010010722004+47600+008183FM-12+034199999V0201701N000519999999N9999999N1-00221-00341101201ADDMA1999999096951MD1010011+9999OA149900151REMSYN076AAXX  07224 06666 33/// /1701 11022 21034 39695 40120 50001 333 91103 91202;
0128066660999992010010723004+47600+008183FM-12+034199999V0200801N001519999999N9999999N1-00171-00341101201ADDMA1999999096961MD1010011+9999OA149900311REMSYN076AAXX  07234 06666 33/// /0803 11017 21034 39696 40120 50001 333 91106 91205;
0128066660999992010010800004+47600+008183FM-12+034199999V0200601N000519999999N9999999N1-00181-00351101181ADDMA1999999096941MD1710031+9999OA149900311REMSYN076AAXX  08004 06666 33/// /0601 11018 21035 39694 40118 57003 333 91106 91205;
0128066660999992010010801004+47600+008183FM-12+034199999V0201301N001019999999N9999999N1-00191-00351101121ADDMA1999999096881MD1710071+9999OA149900211REMSYN076AAXX  08014 06666 33/// /1302 11019 21035 39688 40112 57007 333 91104 91202;
0128066660999992010010802004+47600+008183FM-12+034199999V0201801N000519999999N9999999N1-00211-00331101151ADDMA1999999096901MD1719999+9999OA149900211REMSYN076AAXX  08024 06666 33/// /1801 11021 21033 39690 40115 57/// 333 91104 91202;
0128066660999992010010803004+47600+008183FM-12+034199999V0209999C000019999999N9999999N1-00211-00311101141ADDMA1999999096891MD1719999+9999OA149900311REMSYN076AAXX  08034 06666 33/// /0000 11021 21031 39689 40114 57/// 333 91106 91205;
0128066660999992010010804004+47600+008183FM-12+034199999V0201101N000519999999N9999999N1-00201-00271101111ADDMA1999999096871MD1710011+9999OA149900101REMSYN076AAXX  08044 06666 33/// /1101 11020 21027 39687 40111 57001 333 91102 91201;
0128066660999992010010805004+47600+008183FM-12+034199999V0201001N001519999999N9999999N1-00171-00241101031ADDMA1999999096791MD1810111+9999OA149900311REMSYN076AAXX  08054 06666 33/// /1003 11017 21024 39679 40103 58011 333 91106 91203;
0264066660999992010010806004+47600+008183FM-12+034199999V0201201N001519999999N9999999N1-00151-00201100991ADDAA112000091AA224000091AL10600091GJ100009IA2999-00309KA1999N-00221MA1999999096761MD1710131+9999OA149900411REMSYN112AAXX  08064 06666 03/// /1203 11015 21020 39676 40099 57013 69922 333 21022 3/103 55000 69925 70001 91108 91205;EQDQ01  00002PRCP24Q02  00002PRCP12
0145066660999992010010807004+47600+008183FM-12+034199999V0201001N002119999999N9999999N1-00121-00211100951ADDAA101000021MA1999999096731MD1710141+9999OA149900511REMSYN082AAXX  08074 06666 23/// /1004 11012 21021 39673 40095 57014 333 69925 91110 91205;
0145066660999992010010808004+47600+008183FM-12+034199999V0200901N002119999999N9999999N1-00121-00231100921ADDAA101000021MA1999999096701MD1710091+9999OA149900511REMSYN082AAXX  08084 06666 23/// /0904 11012 21023 39670 40092 57009 333 69925 91110 91205;
0128066660999992010010809004+47600+008183FM-12+034199999V0200901N002119999999N9999999N1-00081-00341100881ADDMA1999999096661MD1710101+9999OA149900511REMSYN076AAXX  08094 06666 33/// /0904 11008 21034 39666 40088 57010 333 91110 91205;
0128066660999992010010810004+47600+008183FM-12+034199999V0200701N003619999999N9999999N1-00041-00411100821ADDMA1999999096611MD1810121+9999OA149900821REMSYN076AAXX  08104 06666 33/// /0707 11004 21041 39661 40082 58012 333 91116 91207;
0128066660999992010010811004+47600+008183FM-12+034199999V0200701N002119999999N9999999N1+00001-00401100721ADDMA1999999096521MD1810181+9999OA149900821REMSYN076AAXX  08114 06666 33/// /0704 10000 21040 39652 40072 58018 333 91116 91209;
0151066660999992010010812004+47600+008183FM-12+034199999V0200501N005719999999N9999999N1+00011-00411100611ADDAA106000591MA1999999096421MD1810241+9999OA149900931REMSYN088AAXX  08124 06666 03/// /0511 10001 21041 39642 40061 58024 69941 333 60005 91118 91211;
0128066660999992010010813004+47600+008183FM-12+034199999V0200601N003119999999N9999999N1-00011-00401100561ADDMA1999999096371MD1610241+9999OA149900931REMSYN076AAXX  08134 06666 33/// /0606 11001 21040 39637 40056 56024 333 91118 91211;
0128066660999992010010814004+47600+008183FM-12+034199999V0200601N003619999999N9999999N1-00041-00421100561ADDMA1999999096361MD1619999+9999OA149900821REMSYN076AAXX  08144 06666 33/// /0607 11004 21042 39636 40056 56/// 333 91116 91210;
0128066660999992010010815004+47600+008183FM-12+034199999V0200601N004119999999N9999999N1-00091-00451100611ADDMA1999999096401MD1510021+9999OA149900931REMSYN076AAXX  08154 06666 33/// /0608 11009 21045 39640 40061 55002 333 91118 91211;
0128066660999992010010816004+47600+008183FM-12+034199999V0200401N004119999999N9999999N1-00181-00501100681ADDMA1999999096461MD1210091+9999OA149900931REMSYN076AAXX  08164 06666 33/// /0408 11018 21050 39646 40068 52009 333 91118 91209;
0128066660999992010010817004+47600+008183FM-12+034199999V0200401N004619999999N9999999N1-00211-00551100701ADDMA1999999096471MD1219999+9999OA149901131REMSYN076AAXX  08174 06666 33/// /0409 11021 21055 39647 40070 52/// 333 91122 91212;
0170066660999992010010818004+47600+008183FM-12+034199999V0200401N005119999999N9999999N1-00201-00621100731ADDAA112000591KA1120M+00021MA1999999096501MD1110101+9999OA149901131REMSYN094AAXX  08184 06666 03/// /0410 11020 21062 39650 40073 51010 69942 333 10002 60005 91122 91212;
0128066660999992010010819004+47600+008183FM-12+034199999V0200601N003119999999N9999999N1-00251-00581100761ADDMA1999999096521MD1310061+9999OA149900981REMSYN076AAXX  08194 06666 33/// /0606 11025 21058 39652 40076 53006 333 91119 91210;
0145066660999992010010820004+47600+008183FM-12+034199999V0200801N002119999999N9999999N1-00301-00531100761ADDAA101000021MA1999999096521MD1210051+9999OA149900881REMSYN082AAXX  08204 06666 23/// /0804 11030 21053 39652 40076 52005 333 69925 91117 91210;
0128066660999992010010821004+47600+008183FM-12+034199999V0200701N003119999999N9999999N1-00311-00571100771ADDMA1999999096521MD1010021+9999OA149901131REMSYN076AAXX  08214 06666 33/// /0706 11031 21057 39652 40077 50002 333 91122 91212;
0145066660999992010010822004+47600+008183FM-12+034199999V0200701N003119999999N9999999N1-00261-00701100751ADDAA101000021MA1999999096511MD1810011+9999OA149900621REMSYN082AAXX  08224 06666 23/// /0706 11026 21070 39651 40075 58001 333 69915 91112 91206;
0128066660999992010010823004+47600+008183FM-12+034199999V0200601N003119999999N9999999N1-00281-00721100781ADDMA1999999096541MD1310021+9999OA149900621REMSYN076AAXX  08234 06666 33/// /0606 11028 21072 39654 40078 53002 333 91112 91206;
0151066660999992010010900004+47600+008183FM-12+034199999V0200701N002619999999N9999999N1-00291-00731100781ADDAA106000391MA1999999096541MD1210021+9999OA149901131REMSYN088AAXX  09004 06666 03/// /0705 11029 21073 39654 40078 52002 69931 333 60005 91122 91212;
0128066660999992010010901004+47600+008183FM-12+034199999V0200801N004119999999N9999999N1-00311-00721100781ADDMA1999999096531MD1010021+9999OA149900621REMSYN076AAXX  09014 06666 33/// /0808 11031 21072 39653 40078 50002 333 91112 91208;
0128066660999992010010902004+47600+008183FM-12+034199999V0200601N004119999999N9999999N1-00341-00711100791ADDMA1999999096541MD1519999+9999OA149900821REMSYN076AAXX  09024 06666 33/// /0608 11034 21071 39654 40079 55/// 333 91116 91210;
0128066660999992010010903004+47600+008183FM-12+034199999V0200601N004619999999N9999999N1-00361-00711100811ADDMA1999999096551MD1219999+9999OA149900821REMSYN076AAXX  09034 06666 33/// /0609 11036 21071 39655 40081 52/// 333 91116 91210;
0147066660999992010010904004+47600+008183FM-12+034199999V0200801N002619999999N9999999N1-00381-00731100791ADDMA1999999096531MD1710011+9999OA149900821REMSYN076AAXX  09044 06666 33/// /0805 11038 21073 39653 40079 57000 333 91116 91209;EQDQ01+000002APC3  
0128066660999992010010905004+47600+008183FM-12+034199999V0200701N004619999999N9999999N1-00391-00731100761ADDMA1999999096501MD1810041+9999OA149900771REMSYN076AAXX  09054 06666 33/// /0709 11039 21073 39650 40076 58004 333 91115 91209;
0229066660999992010010906004+47600+008183FM-12+034199999V0200601N005119999999N9999999N1-00411-00741100711ADDAA112000391AA224000891AL14800091GJ100009IA2999-00409KA1999N-00411MA1999999096451MD1710101+9999OA149900881REMSYN112AAXX  09064 06666 03/// /0610 11041 21074 39645 40071 57010 69932 333 21041 3/104 55000 60005 70008 91117 91211;
0128066660999992010010907004+47600+008183FM-12+034199999V0200701N003119999999N9999999N1-00401-00731100691ADDMA1999999096431MD1710101+9999OA149900771REMSYN076AAXX  09074 06666 33/// /0706 11040 21073 39643 40069 57010 333 91115 91211;
0128066660999992010010908004+47600+008183FM-12+034199999V0200601N004619999999N9999999N1-00411-00721100731ADDMA1999999096471MD1510031+9999OA149900771REMSYN076AAXX  09084 06666 33/// /0609 11041 21072 39647 40073 55003 333 91115 91211;
0128066660999992010010909004+47600+008183FM-12+034199999V0200601N004119999999N9999999N1-00401-00741100761ADDMA1999999096501MD1210051+9999OA149900771REMSYN076AAXX  09094 06666 33/// /0608 11040 21074 39650 40076 52005 333 91115 91211;
0128066660999992010010910004+47600+008183FM-12+034199999V0200901N002619999999N9999999N1-00371-00721100721ADDMA1999999096471MD1210041+9999OA149900671REMSYN076AAXX  09104 06666 33/// /0905 11037 21072 39647 40072 52004 333 91113 91209;
0128066660999992010010911004+47600+008183FM-12+034199999V0200701N002619999999N9999999N1-00341-00701100671ADDMA1999999096421MD1810051+9999OA149900671REMSYN076AAXX  09114 06666 33/// /0705 11034 21070 39642 40067 58005 333 91113 91207;
0128066660999992010010912004+47600+008183FM-12+034199999V0200701N003619999999N9999999N1-00331-00711100631ADDMA1999999096391MD1710111+9999OA149900821REMSYN076AAXX  09124 06666 33/// /0707 11033 21071 39639 40063 57011 333 91116 91211;
0128066660999992010010913004+47600+008183FM-12+034199999V0201101N001519999999N9999999N1-00351-00641100631ADDMA1999999096381MD1710091+9999OA149900571REMSYN076AAXX  09134 06666 33/// /1103 11035 21064 39638 40063 57009 333 91111 91207;
0128066660999992010010914004+47600+008183FM-12+034199999V0200901N001519999999N9999999N1-00301-00671100611ADDMA1999999096371MD1510051+9999OA149900571REMSYN076AAXX  09144 06666 33/// /0903 11030 21067 39637 40061 55005 333 91111 91206;
0128066660999992010010915004+47600+008183FM-12+034199999V0209999C000019999999N9999999N1-00341-00541100661ADDMA1999999096411MD1310021+9999OA149900671REMSYN076AAXX  09154 06666 33/// /0000 11034 21054 39641 40066 53002 333 91113 91207;
0128066660999992010010916004+47600+008183FM-12+034199999V0203001N001019999999N9999999N1-00381-00531100681ADDMA1999999096431MD1210051+9999OA149900361REMSYN076AAXX  09164 06666 33/// /3002 11038 21053 39643 40068 52005 333 91107 91204;
0128066660999992010010917004+47600+008183FM-12+034199999V0202601N000519999999N9999999N1-00391-00551100691ADDMA1999999096431MD1210061+9999OA149900361REMSYN076AAXX  09174 06666 33/// /2601 11039 21055 39643 40069 52006 333 91107 91204;
0147066660999992010010918004+47600+008183FM-12+034199999V0200701N000519999999N9999999N1-00371-00591100711ADDKA1120M-00301MA1999999096461MD1210051+9999OA149900771REMSYN082AAXX  09184 06666 33/// /0701 11037 21059 39646 40071 52005 333 11030 91115 91211;
0128066660999992010010919004+47600+008183FM-12+034199999V0201001N001519999999N9999999N1-00381-00651100741ADDMA1999999096481MD1210051+9999OA149900311REMSYN076AAXX  09194 06666 33/// /1003 11038 21065 39648 40074 52005 333 91106 91204;
0145066660999992010010920004+47600+008183FM-12+034199999V0201001N001019999999N9999999N1-00431-00531100791ADDAA101000591MA1999999096521MD1310091+9999OA149900311REMSYN082AAXX  09204 06666 23/// /1002 11043 21053 39652 40079 53009 333 69955 91106 91204;
0145066660999992010010921004+47600+008183FM-12+034199999V0202401N000519999999N9999999N1-00441-00501100811ADDAA101000591MA1999999096541MD1110081+9999OA149900361REMSYN082AAXX  09214 06666 23/// /2401 11044 21050 39654 40081 51008 333 69945 91107 91204;
0145066660999992010010922004+47600+008183FM-12+034199999V0202401N001019999999N9999999N1-00431-00471100841ADDAA101000391MA1999999096571MD1110091+9999OA149900151REMSYN082AAXX  09224 06666 23/// /2402 11043 21047 39657 40084 51009 333 69935 91103 91202;
0145066660999992010010923004+47600+008183FM-12+034199999V0202601N001019999999N9999999N1-00421-00501100861ADDAA101000391MA1999999096591MD1310071+9999OA149900151REMSYN082AAXX  09234 06666 23/// /2602 11042 21050 39659 40086 53007 333 69935 91103 91202;
0151066660999992010011000004+47600+008183FM-12+034199999V0202601N000519999999N9999999N1-00431-00501100891ADDAA106002091MA1999999096621MD1110081+9999OA149900571REMSYN088AAXX  10004 06666 03/// /2601 11043 21050 39662 40089 51008 60021 333 69925 91111 91206;
0145066660999992010011001004+47600+008183FM-12+034199999V0202601N001519999999N9999999N1-00431-00521100911ADDAA101000021MA1999999096641MD1110071+9999OA149900261REMSYN082AAXX  10014 06666 23/// /2603 11043 21052 39664 40091 51007 333 69915 91105 91203;
0087066660999992010011002004+47600+008183FM-12+034199999V0202101N000519999999N9999999N1-00441-00561100981ADDMA1999999096701REMSYN060AAXX  10024 06666 33/// /2101 11044 21056 39670 40098 5////;
0087066660999992010011003004+47600+008183FM-12+034199999V0202701N001019999999N9999999N1-00431-00531101021ADDMA1999999096741REMSYN060AAXX  10034 06666 43/// /2702 11043 21053 39674 40102 5////;
0128066660999992010011004004+47600+008183FM-12+034199999V0202501N001519999999N9999999N1-00431-00551101071ADDMA1999999096791MD1110151+9999OA149900211REMSYN076AAXX  10044 06666 33/// /2503 11043 21055 39679 40107 51015 333 91104 91203;
0128066660999992010011005004+47600+008183FM-12+034199999V0202501N001019999999N9999999N1-00431-00551101111ADDMA1999999096831MD1110131+9999OA149900261REMSYN076AAXX  10054 06666 33/// /2502 11043 21055 39683 40111 51013 333 91105 91203;
0229066660999992010011006004+47600+008183FM-12+034199999V0202501N001019999999N9999999N1-00421-00551101161ADDAA112002092AA224001892AL14800191GJ100009IA2999-00609KA1999N-00441MA1999999096881MD1210141+9999OA149900311REMSYN112AAXX  10064 06666 03/// /2502 11042 21055 39688 40116 52014 60022 333 21044 3/106 55000 60005 70018 91106 91204;
0128066660999992010011007004+47600+008183FM-12+034199999V0202401N001019999999N9999999N1-00421-00541101221ADDMA1999999096941MD1310151+9999OA149900261REMSYN076AAXX  10074 06666 33/// /2402 11042 21054 39694 40122 53015 333 91105 91203;
0128066660999992010011008004+47600+008183FM-12+034199999V0202501N002619999999N9999999N1-00401-00541101311ADDMA1999999097031MD1219999+9999OA149900461REMSYN076AAXX  10084 06666 33/// /2505 11040 21054 39703 40131 52/// 333 91109 91205;
0128066660999992010011009004+47600+008183FM-12+034199999V0202501N003119999999N9999999N1-00381-00521101391ADDMA1999999097111MD1310231+9999OA149900511REMSYN076AAXX  10094 06666 33/// /2506 11038 21052 39711 40139 53023 333 91110 91206;
0128066660999992010011010004+47600+008183FM-12+034199999V0202401N002619999999N9999999N1-00341-00531101431ADDMA1999999097151MD1110211+9999OA149900511REMSYN076AAXX  10104 06666 33/// /2405 11034 21053 39715 40143 51021 333 91110 91207;
0128066660999992010011011004+47600+008183FM-12+034199999V0202301N002619999999N9999999N1-00311-00551101481ADDMA1999999097201MD1110171+9999OA149900511REMSYN076AAXX  10114 06666 33/// /2305 11031 21055 39720 40148 51017 333 91110 91207;
0128066660999992010011012004+47600+008183FM-12+034199999V0202501N003619999999N9999999N1-00301-00621101491ADDMA1999999097211MD1210101+9999OA149900511REMSYN076AAXX  10124 06666 33/// /2507 11030 21062 39721 40149 52010 333 91110 91208;
0128066660999992010011013004+47600+008183FM-12+034199999V0202401N002619999999N9999999N1-00291-00621101501ADDMA1999999097231MD1210081+9999OA149900571REMSYN076AAXX  10134 06666 33/// /2405 11029 21062 39723 40150 52008 333 91111 91208;
0128066660999992010011014004+47600+008183FM-12+034199999V0202501N003119999999N9999999N1-00291-00661101561ADDMA1999999097281MD1319999+9999OA149900571REMSYN076AAXX  10144 06666 33/// /2506 11029 21066 39728 40156 53/// 333 91111 91208;
0128066660999992010011015004+47600+008183FM-12+034199999V0202601N003619999999N9999999N1-00291-00681101611ADDMA1999999097331MD1310121+9999OA149900571REMSYN076AAXX  10154 06666 33/// /2607 11029 21068 39733 40161 53012 333 91111 91208;
0128066660999992010011016004+47600+008183FM-12+034199999V0202801N002119999999N9999999N1-00301-00691101661ADDMA1999999097381MD1110151+9999OA149900511REMSYN076AAXX  10164 06666 33/// /2804 11030 21069 39738 40166 51015 333 91110 91207;
0128066660999992010011017004+47600+008183FM-12+034199999V0202201N001519999999N9999999N1-00331-00641101711ADDMA1999999097421MD1110141+9999OA149900511REMSYN076AAXX  10174 06666 33/// /2203 11033 21064 39742 40171 51014 333 91110 91206;
0147066660999992010011018004+47600+008183FM-12+034199999V0202401N001519999999N9999999N1-00341-00651101741ADDKA1120M-00281MA1999999097451MD1110121+9999OA149900571REMSYN082AAXX  10184 06666 33/// /2403 11034 21065 39745 40174 51012 333 11028 91111 91208;
0128066660999992010011019004+47600+008183FM-12+034199999V0201901N001519999999N9999999N1-00391-00601101781ADDMA1999999097481MD1110101+9999OA149900311REMSYN076AAXX  10194 06666 33/// /1903 11039 21060 39748 40178 51010 333 91106 91204;
0128066660999992010011020004+47600+008183FM-12+034199999V0202101N001019999999N9999999N1-00381-00591101791ADDMA1999999097491MD1110071+9999OA149900311REMSYN076AAXX  10204 06666 33/// /2102 11038 21059 39749 40179 51007 333 91106 91204;
0128066660999992010011021004+47600+008183FM-12+034199999V0201201N000519999999N9999999N1-00381-00581101811ADDMA1999999097511MD1310061+9999OA149900511REMSYN076AAXX  10214 06666 33/// /1201 11038 21058 39751 40181 53006 333 91110 91206;
0128066660999992010011022004+47600+008183FM-12+034199999V0209999C000019999999N9999999N1-00381-00591101801ADDMA1999999097501MD1010021+9999OA149900101REMSYN076AAXX  10224 06666 33/// /0000 11038 21059 39750 40180 50002 333 91102 91202;
0128066660999992010011023004+47600+008183FM-12+034199999V0202801N000519999999N9999999N1-00421-00571101811ADDMA1999999097501MD1510011+9999OA149900151REMSYN076AAXX  10234 06666 33/// /2801 11042 21057 39750 40181 55001 333 91103 91202;
0128066660999992010011100004+47600+008183FM-12+034199999V0202501N000519999999N9999999N1-00451-00561101791ADDMA1999999097481MD1810031+9999OA149900571REMSYN076AAXX  11004 06666 33/// /2501 11045 21056 39748 40179 58003 333 91111 91208;
0128066660999992010011101004+47600+008183FM-12+034199999V0202201N000519999999N9999999N1-00441-00551101801ADDMA1999999097491MD1710011+9999OA149900101REMSYN076AAXX  11014 06666 33/// /2201 11044 21055 39749 40180 57001 333 91102 91201;
0128066660999992010011102004+47600+008183FM-12+034199999V0203401N000519999999N9999999N1-00421-00551101821ADDMA1999999097511MD1319999+9999OA149900101REMSYN076AAXX  11024 06666 33/// /3401 11042 21055 39751 40182 53/// 333 91102 91202;
0128066660999992010011103004+47600+008183FM-12+034199999V0202001N000519999999N9999999N1-00431-00541101811ADDMA1999999097501MD1019999+9999OA149900151REMSYN076AAXX  11034 06666 33/// /2001 11043 21054 39750 40181 50/// 333 91103 91202;
0147066660999992010011104004+47600+008183FM-12+034199999V0201501N000519999999N9999999N1-00431-00531101801ADDMA1999999097491MD1410001+9999OA149900101REMSYN076AAXX  11044 06666 33/// /1501 11043 21053 39749 40180 58000 333 91102 91202;EQDQ01+000082APCTEN
0128066660999992010011105004+47600+008183FM-12+034199999V0200601N000519999999N9999999N1-00421-00541101781ADDMA1999999097471MD1710041+9999OA149900101REMSYN076AAXX  11054 06666 33/// /0601 11042 21054 39747 40178 57004 333 91102 91201;
0225066660999992010011106004+47600+008183FM-12+034199999V0201201N000519999999N9999999N1-00421-00551101781ADDAA124000091AL19900091GJ100009IA2999-00609KA1999N-00471MA1999999097471MD1810031+9999OA149900311REMSYN100AAXX  11064 06666 33/// /1201 11042 21055 39747 40178 58003 333 21047 3/106 55000 70000 91106 91204;EQDQ01  00002PRCP24
0128066660999992010011107004+47600+008183FM-12+034199999V0209999C000019999999N9999999N1-00401-00531101781ADDMA1999999097481MD1510011+9999OA149900101REMSYN076AAXX  11074 06666 33/// /0000 11040 21053 39748 40178 55001 333 91102 91201;
0128066660999992010011108004+47600+008183FM-12+034199999V0201501N001019999999N9999999N1-00381-00511101791ADDMA1999999097491MD1219999+9999OA149900151REMSYN076AAXX  11084 06666 33/// /1502 11038 21051 39749 40179 52/// 333 91103 91203;
0128066660999992010011109004+47600+008183FM-12+034199999V0201601N000519999999N9999999N1-00331-00521101771ADDMA1999999097481MD1010011+9999OA149900151REMSYN076AAXX  11094 06666 33/// /1601 11033 21052 39748 40177 50001 333 91103 91203;
0128066660999992010011110004+47600+008183FM-12+034199999V0209999C000019999999N9999999N1-00251-00611101781ADDMA1999999097501MD1219999+9999OA149900151REMSYN076AAXX  11104 06666 33/// /0000 11025 21061 39750 40178 52/// 333 91103 91202;
0128066660999992010011111004+47600+008183FM-12+034199999V0209999C000019999999N9999999N1-00231-00561101761ADDMA1999999097481MD1710011+9999OA149900151REMSYN076AAXX  11114 06666 33/// /0000 11023 21056 39748 40176 57001 333 91103 91201;
0128066660999992010011112004+47600+008183FM-12+034199999V0201901N000519999999N9999999N1-00211-00581101721ADDMA1999999097451MD1710031+9999OA149900151REMSYN076AAXX  11124 06666 33/// /1901 11021 21058 39745 40172 57003 333 91103 91203;
0128066660999992010011113004+47600+008183FM-12+034199999V0202501N002119999999N9999999N1-00181-00551101681ADDMA1999999097421MD1710081+9999OA149900261REMSYN076AAXX  11134 06666 33/// /2504 11018 21055 39742 40168 57008 333 91105 91204;
0087066660999992010011114004+47600+008183FM-12+034199999V0202101N001519999999N9999999N1-00181-00521101711ADDMA1999999097441REMSYN060AAXX  11144 06666 33/// /2103 11018 21052 39744 40171 5////;
0128066660999992010011115004+47600+008183FM-12+034199999V0202201N001519999999N9999999N1-00231-00451101771ADDMA1999999097491MD1310041+9999OA149900411REMSYN076AAXX  11154 06666 33/// /2203 11023 21045 39749 40177 53004 333 91108 91206;
0145066660999992010011116004+47600+008183FM-12+034199999V0201201N000519999999N9999999N1-00261-00401101801ADDAA101000021MA1999999097521MD1310101+9999OA149900411REMSYN082AAXX  11164 06666 23/// /1201 11026 21040 39752 40180 53010 333 69925 91108 91206;
0145066660999992010011117004+47600+008183FM-12+034199999V0202101N000519999999N9999999N1-00261-00391101831ADDAA101000021MA1999999097551MD1210111+9999OA149900211REMSYN082AAXX  11174 06666 23/// /2101 11026 21039 39755 40183 52011 333 69915 91104 91202;
0170066660999992010011118004+47600+008183FM-12+034199999V0202401N001519999999N9999999N1-00261-00431101891ADDAA112000391KA1120M-00181MA1999999097601MD1210111+9999OA149900411REMSYN094AAXX  11184 06666 03/// /2403 11026 21043 39760 40189 52011 69932 333 11018 60005 91108 91206;
0128066660999992010011119004+47600+008183FM-12+034199999V0202201N000519999999N9999999N1-00281-00431101921ADDMA1999999097631MD1210111+9999OA149900311REMSYN076AAXX  11194 06666 33/// /2201 11028 21043 39763 40192 52011 333 91106 91203;
0145066660999992010011120004+47600+008183FM-12+034199999V0201001N000519999999N9999999N1-00291-00421101931ADDAA101000021MA1999999097641MD1210091+9999OA149900211REMSYN082AAXX  11204 06666 23/// /1001 11029 21042 39764 40193 52009 333 69915 91104 91203;
0145066660999992010011121004+47600+008183FM-12+034199999V0202301N001519999999N9999999N1-00301-00411101921ADDAA101000021MA1999999097631MD1210031+9999OA149900311REMSYN082AAXX  11214 06666 23/// /2303 11030 21041 39763 40192 52003 333 69915 91106 91204;
0145066660999992010011122004+47600+008183FM-12+034199999V0209999C000019999999N9999999N1-00321-00401101941ADDAA101000021MA1999999097641MD1210011+9999OA149900261REMSYN082AAXX  11224 06666 23/// /0000 11032 21040 39764 40194 52001 333 69915 91105 91204;
0128066660999992010011123004+47600+008183FM-12+034199999V0202601N001019999999N9999999N1-00301-00421101961ADDMA1999999097661MD1210021+9999OA149900211REMSYN076AAXX  11234 06666 33/// /2602 11030 21042 39766 40196 52002 333 91104 91202;
0151066660999992010011200004+47600+008183FM-12+034199999V0203101N000519999999N9999999N1-00301-00401101961ADDAA106000591MA1999999097661MD1210031+9999OA149900411REMSYN088AAXX  12004 06666 03/// /3101 11030 21040 39766 40196 52003 69941 333 69915 91108 91206;
0128066660999992010011201004+47600+008183FM-12+034199999V0200701N000519999999N9999999N1-00321-00391101961ADDMA1999999097661MD1210021+9999OA149900211REMSYN076AAXX  12014 06666 33/// /0701 11032 21039 39766 40196 52002 333 91104 91202;
0128066660999992010011202004+47600+008183FM-12+034199999V0200801N000519999999N9999999N1-00321-00391101961ADDMA1999999097661MD1519999+9999OA149900151REMSYN076AAXX  12024 06666 33/// /0801 11032 21039 39766 40196 55/// 333 91103 91202;
0128066660999992010011203004+47600+008183FM-12+034199999V0200301N000519999999N9999999N1-00301-00391101931ADDMA1999999097641MD1710021+9999OA149900211REMSYN076AAXX  12034 06666 33/// /0301 11030 21039 39764 40193 57002 333 91104 91202;
0128066660999992010011204004+47600+008183FM-12+034199999V0200601N000519999999N9999999N1-00331-00401101921ADDMA1999999097621MD1710041+9999OA149900151REMSYN076AAXX  12044 06666 33/// /0601 11033 21040 39762 40192 57004 333 91103 91201;
0128066660999992010011205004+47600+008183FM-12+034199999V0200801N000519999999N9999999N1-00331-00391101911ADDMA1999999097611MD1710051+9999OA149900101REMSYN076AAXX  12054 06666 33/// /0801 11033 21039 39761 40191 57005 333 91102 91202;
0229066660999992010011206004+47600+008183FM-12+034199999V0200801N000519999999N9999999N1-00361-00411101891ADDAA112000591AA224000891AL14200091GJ100009IA2999-00409KA1999N-00351MA1999999097591MD1710051+9999OA149900261REMSYN112AAXX  12064 06666 03/// /0801 11036 21041 39759 40189 57005 69942 333 21035 3/104 55000 60005 70007 91105 91204;
0128066660999992010011207004+47600+008183FM-12+034199999V0209999C000019999999N9999999N1-00371-00431101841ADDMA1999999097541MD1810081+9999OA149900151REMSYN076AAXX  12074 06666 33/// /0000 11037 21043 39754 40184 58008 333 91103 91202;
0128066660999992010011208004+47600+008183FM-12+034199999V0209999C000019999999N9999999N1-00381-00451101801ADDMA1999999097501MD1819999+9999OA149900151REMSYN076AAXX  12084 06666 33/// /0000 11038 21045 39750 40180 58/// 333 91103 91202;
0128066660999992010011209004+47600+008183FM-12+034199999V0200801N001019999999N9999999N1-00281-00391101731ADDMA1999999097451MD1610141+9999OA149900211REMSYN076AAXX  12094 06666 33/// /0802 11028 21039 39745 40173 56014 333 91104 91202;
0128066660999992010011210004+47600+008183FM-12+034199999V0201001N001019999999N9999999N1-00241-00391101641ADDMA1999999097371MD1810171+9999OA149900261REMSYN076AAXX  12104 06666 33/// /1002 11024 21039 39737 40164 58017 333 91105 91203;
0128066660999992010011211004+47600+008183FM-12+034199999V0200601N002119999999N9999999N1-00171-00411101541ADDMA1999999097281MD1810221+9999OA149900361REMSYN076AAXX  12114 06666 33/// /0604 11017 21041 39728 40154 58022 333 91107 91204;
0128066660999992010011212004+47600+008183FM-12+034199999V0200701N002119999999N9999999N1-00161-00431101451ADDMA1999999097201MD1810251+9999OA149900411REMSYN076AAXX  12124 06666 33/// /0704 11016 21043 39720 40145 58025 333 91108 91204;
0128066660999992010011213004+47600+008183FM-12+034199999V0200501N001519999999N9999999N1-00141-00401101371ADDMA1999999097121MD1710251+9999OA149900411REMSYN076AAXX  12134 06666 33/// /0503 11014 21040 39712 40137 57025 333 91108 91204;
0087066660999992010011214004+47600+008183FM-12+034199999V0200601N002119999999N9999999N1-00121-00401101301ADDMA1999999097061REMSYN060AAXX  12144 06666 33/// /0604 11012 21040 39706 40130 5////;
0128066660999992010011215004+47600+008183FM-12+034199999V0200701N002619999999N9999999N1-00141-00411101221ADDMA1999999096981MD1710221+9999OA149900511REMSYN076AAXX  12154 06666 33/// /0705 11014 21041 39698 40122 57022 333 91110 91206;
0128066660999992010011216004+47600+008183FM-12+034199999V0200701N002619999999N9999999N1-00161-00421101161ADDMA1999999096921MD1610201+9999OA149900511REMSYN076AAXX  12164 06666 33/// /0705 11016 21042 39692 40116 56020 333 91110 91206;
0128066660999992010011217004+47600+008183FM-12+034199999V0200601N001519999999N9999999N1-00161-00381101091ADDMA1999999096851MD1810211+9999OA149900511REMSYN076AAXX  12174 06666 33/// /0603 11016 21038 39685 40109 58021 333 91110 91205;
0147066660999992010011218004+47600+008183FM-12+034199999V0200801N001019999999N9999999N1-00151-00371101041ADDKA1120M-00121MA1999999096811MD1610171+9999OA149900511REMSYN082AAXX  12184 06666 33/// /0802 11015 21037 39681 40104 56017 333 11012 91110 91206;
0128066660999992010011219004+47600+008183FM-12+034199999V0200901N001019999999N9999999N1-00141-00381101021ADDMA1999999096791MD1610131+9999OA149900361REMSYN076AAXX  12194 06666 33/// /0902 11014 21038 39679 40102 56013 333 91107 91204;
0128066660999992010011220004+47600+008183FM-12+034199999V0200801N001519999999N9999999N1-00131-00371100961ADDMA1999999096731MD1710121+9999OA149900361REMSYN076AAXX  12204 06666 33/// /0803 11013 21037 39673 40096 57012 333 91107 91204;
0128066660999992010011221004+47600+008183FM-12+034199999V0200701N002119999999N9999999N1-00131-00351100881ADDMA1999999096661MD1710151+9999OA149900511REMSYN076AAXX  12214 06666 33/// /0704 11013 21035 39666 40088 57015 333 91110 91205;
0128066660999992010011222004+47600+008183FM-12+034199999V0200601N003119999999N9999999N1-00121-00371100831ADDMA1999999096611MD1710181+9999OA149900461REMSYN076AAXX  12224 06666 33/// /0606 11012 21037 39661 40083 57018 333 91109 91206;
0128066660999992010011223004+47600+008183FM-12+034199999V0200801N001519999999N9999999N1-00121-00361100791ADDMA1999999096571MD1610161+9999OA149900511REMSYN076AAXX  12234 06666 33/// /0803 11012 21036 39657 40079 56016 333 91110 91206;
0128066660999992010011300004+47600+008183FM-12+034199999V0201101N001019999999N9999999N1-00121-00371100821ADDMA1999999096601MD1510061+9999OA149900511REMSYN076AAXX  13004 06666 33/// /1102 11012 21037 39660 40082 55006 333 91110 91206;
0128066660999992010011301004+47600+008183FM-12+034199999V0201801N001519999999N9999999N1-00171-00321100901ADDMA1999999096671MD1310061+9999OA149900411REMSYN076AAXX  13014 06666 33/// /1803 11017 21032 39667 40090 53006 333 91108 91204;
0128066660999992010011302004+47600+008183FM-12+034199999V0200701N001519999999N9999999N1-00161-00361100821ADDMA1999999096591MD1019999+9999OA149900311REMSYN076AAXX  13024 06666 33/// /0703 11016 21036 39659 40082 50/// 333 91106 91204;
0128066660999992010011303004+47600+008183FM-12+034199999V0200601N001019999999N9999999N1-00171-00351100791ADDMA1999999096561MD1719999+9999OA149900511REMSYN076AAXX  13034 06666 33/// /0602 11017 21035 39656 40079 57/// 333 91110 91206;
0128066660999992010011304004+47600+008183FM-12+034199999V0200601N001519999999N9999999N1-00181-00341100731ADDMA1999999096511MD1710161+9999OA149900211REMSYN076AAXX  13044 06666 33/// /0603 11018 21034 39651 40073 57016 333 91104 91203;
0128066660999992010011305004+47600+008183FM-12+034199999V0201001N001519999999N9999999N1-00171-00361100691ADDMA1999999096471MD1710121+9999OA149900261REMSYN076AAXX  13054 06666 33/// /1003 11017 21036 39647 40069 57012 333 91105 91204;
0225066660999992010011306004+47600+008183FM-12+034199999V0201101N001519999999N9999999N1-00191-00351100721ADDAA124000091AL19900091GJ100369IA2999-00309KA1999N-00191MA1999999096491MD1510071+9999OA149900511REMSYN100AAXX  13064 06666 33/// /1103 11019 21035 39649 40072 55007 333 21019 3/103 55006 70000 91110 91206;EQDQ01  00002PRCP24
0128066660999992010011307004+47600+008183FM-12+034199999V0203001N000519999999N9999999N1-00191-00351100791ADDMA1999999096561MD1310051+9999OA149900411REMSYN076AAXX  13074 06666 33/// /3001 11019 21035 39656 40079 53005 333 91108 91204;
0128066660999992010011308004+47600+008183FM-12+034199999V0200501N001019999999N9999999N1-00201-00341100861ADDMA1999999096631MD1310161+9999OA149900211REMSYN076AAXX  13084 06666 33/// /0502 11020 21034 39663 40086 53016 333 91104 91202;
0128066660999992010011309004+47600+008183FM-12+034199999V0200701N001519999999N9999999N1-00161-00311100901ADDMA1999999096671MD1110181+9999OA149900411REMSYN076AAXX  13094 06666 33/// /0703 11016 21031 39667 40090 51018 333 91108 91204;
0145066660999992010011310004+47600+008183FM-12+034199999V0200501N001019999999N9999999N1-00171-00231100951ADDAA101000891MA1999999096721MD1210161+9999OA149900211REMSYN082AAXX  13104 06666 23/// /0502 11017 21023 39672 40095 52016 333 69985 91104 91203;
0145066660999992010011311004+47600+008183FM-12+034199999V0200401N001519999999N9999999N1-00161-00221100941ADDAA101001091MA1999999096711MD1210081+9999OA149900211REMSYN082AAXX  13114 06666 23/// /0403 11016 21022 39671 40094 52008 333 69995 91104 91203;
0151066660999992010011312004+47600+008183FM-12+034199999V0200401N001519999999N9999999N1-00131-00211100901ADDAA106002091MA1999999096681MD1010011+9999OA149900411REMSYN088AAXX  13124 06666 03/// /0403 11013 21021 39668 40090 50001 60021 333 69975 91108 91204;
0145066660999992010011313004+47600+008183FM-12+034199999V0200401N001019999999N9999999N1-00091-00161100891ADDAA101000591MA1999999096671MD1710051+9999OA149900211REMSYN082AAXX  13134 06666 23/// /0402 11009 21016 39667 40089 57005 333 69945 91104 91203;
0145066660999992010011314004+47600+008183FM-12+034199999V0200201N000519999999N9999999N1-00031-00111100891ADDAA101000021MA1999999096681MD1519999+9999OA149900211REMSYN082AAXX  13144 06666 23/// /0201 11003 21011 39668 40089 55/// 333 69915 91104 91203;
0145066660999992010011315004+47600+008183FM-12+034199999V0209999C000019999999N9999999N1-00031-00061100911ADDAA101000021MA1999999096701MD1310021+9999OA149900211REMSYN082AAXX  13154 06666 23/// /0000 11003 21006 39670 40091 53002 333 69925 91104 91203;
0145066660999992010011316004+47600+008183FM-12+034199999V0202101N000519999999N9999999N1-00031-00041100931ADDAA101000021MA1999999096721MD1310051+9999OA149900101REMSYN082AAXX  13164 06666 23/// /2101 11003 21004 39672 40093 53005 333 69915 91102 91201;
0145066660999992010011317004+47600+008183FM-12+034199999V0201701N000519999999N9999999N1-00021-00021100991ADDAA101000021MA1999999096781MD1310101+9999OA149900101REMSYN082AAXX  13174 06666 23/// /1701 11002 21002 39678 40099 53010 333 69925 91102 91201;
0170066660999992010011318004+47600+008183FM-12+034199999V0201601N000519999999N9999999N1-00011-00011101021ADDAA112004191KA1120M-00011MA1999999096811MD1310111+9999OA149900211REMSYN094AAXX  13184 06666 03/// /1601 11001 21001 39681 40102 53011 60042 333 11001 69935 91104 91203;
0145066660999992010011319004+47600+008183FM-12+034199999V0201601N000519999999N9999999N1+00011+00011101061ADDAA101000591MA1999999096851MD1110131+9999OA149900051REMSYN082AAXX  13194 06666 23/// /1601 10001 20001 39685 40106 51013 333 69945 91101 91201;
0145066660999992010011320004+47600+008183FM-12+034199999V0209999C000019999999N9999999N1+00021+00021101081ADDAA101000021MA1999999096871MD1110091+9999OA149900051REMSYN082AAXX  13204 06666 23/// /0000 10002 20002 39687 40108 51009 333 69925 91101 91201;
0128066660999992010011321004+47600+008183FM-12+034199999V0201901N000519999999N9999999N1+00021+00021101071ADDMA1999999096861MD1210051+9999OA149900101REMSYN076AAXX  13214 06666 33/// /1901 10002 20002 39686 40107 52005 333 91102 91201;
0128066660999992010011322004+47600+008183FM-12+034199999V0209999C000019999999N9999999N1+00031+00031101071ADDMA1999999096861MD1010011+9999OA149900101REMSYN076AAXX  13224 06666 33/// /0000 10003 20003 39686 40107 50001 333 91102 91201;
0128066660999992010011323004+47600+008183FM-12+034199999V0200801N001519999999N9999999N1+00041+00041101031ADDMA1999999096831MD1710041+9999OA149900211REMSYN076AAXX  13234 06666 33/// /0803 10004 20004 39683 40103 57004 333 91104 91203;
0151066660999992010011400004+47600+008183FM-12+034199999V0201701N000519999999N9999999N1+00031+00031100991ADDAA106000591MA1999999096791MD1710071+9999OA149900211REMSYN088AAXX  14004 06666 03/// /1701 10003 20003 39679 40099 57007 69961 333 60005 91104 91203;
0128066660999992010011401004+47600+008183FM-12+034199999V0200701N000519999999N9999999N1+00051+00051100951ADDMA1999999096751MD1810111+9999OA149900211REMSYN076AAXX  14014 06666 33/// /0701 10005 20005 39675 40095 58011 333 91104 91203;
0128066660999992010011402004+47600+008183FM-12+034199999V0200801N001519999999N9999999N1+00081+00081100921ADDMA1999999096731MD1619999+9999OA149900461REMSYN076AAXX  14024 06666 33/// /0803 10008 20008 39673 40092 56/// 333 91109 91206;
0087066660999992010011403004+47600+008183FM-12+034199999V0201201N001019999999N9999999N1+00051+00051100931ADDMA1999999096731REMSYN060AAXX  14034 06666 33/// /1202 10005 20005 39673 40093 5////;
0128066660999992010011404004+47600+008183FM-12+034199999V0200101N000519999999N9999999N1+00091+00091100881ADDMA1999999096691MD1810061+9999OA149900261REMSYN076AAXX  14044 06666 33/// /0101 10009 20009 39669 40088 58006 333 91105 91203;
0128066660999992010011405004+47600+008183FM-12+034199999V0201001N001519999999N9999999N1+00081+00051100871ADDMA1999999096681MD1610051+9999OA149900211REMSYN076AAXX  14054 06666 33/// /1003 10008 20005 39668 40087 56005 333 91104 91203;
0229066660999992010011406004+47600+008183FM-12+034199999V0200801N002119999999N9999999N1+00071+00041100831ADDAA112000591AA224004391AL11800491GJ100009IA2999+00009KA1999N-00011MA1999999096641MD1810091+9999OA149900461REMSYN112AAXX  14064 06666 03/// /0804 10007 20004 39664 40083 58009 69962 333 21001 3/100 55000 60005 70043 91109 91206;
0128066660999992010011407004+47600+008183FM-12+034199999V0200701N001519999999N9999999N1+00071+00061100831ADDMA1999999096641MD1610051+9999OA149900311REMSYN076AAXX  14074 06666 33/// /0703 10007 20006 39664 40083 56005 333 91106 91204;
0128066660999992010011408004+47600+008183FM-12+034199999V0200401N002619999999N9999999N1+00061+00031100821ADDMA1999999096631MD1619999+9999OA149900461REMSYN076AAXX  14084 06666 33/// /0405 10006 20003 39663 40082 56/// 333 91109 91205;
0128066660999992010011409004+47600+008183FM-12+034199999V0200601N002619999999N9999999N1+00071+00021100841ADDMA1999999096651MD1210011+9999OA149900461REMSYN076AAXX  14094 06666 33/// /0605 10007 20002 39665 40084 52001 333 91109 91206;
0128066660999992010011410004+47600+008183FM-12+034199999V0200601N002119999999N9999999N1+00121+00001100811ADDMA1999999096631MD1710011+9999OA149900461REMSYN076AAXX  14104 06666 33/// /0604 10012 20000 39663 40081 57001 333 91109 91206;
0128066660999992010011411004+47600+008183FM-12+034199999V0201201N002119999999N9999999N1+00151+00041100731ADDMA1999999096561MD1810071+9999OA149900461REMSYN076AAXX  14114 06666 33/// /1204 10015 20004 39656 40073 58007 333 91109 91206;
0128066660999992010011412004+47600+008183FM-12+034199999V0201101N001019999999N9999999N1+00191+00081100681ADDMA1999999096511MD1810141+9999OA149900461REMSYN076AAXX  14124 06666 33/// /1102 10019 20008 39651 40068 58014 333 91109 91206;
0128066660999992010011413004+47600+008183FM-12+034199999V0200701N002119999999N9999999N1+00231+00091100631ADDMA1999999096471MD1610161+9999OA149900361REMSYN076AAXX  14134 06666 33/// /0704 10023 20009 39647 40063 56016 333 91107 91204;
0128066660999992010011414004+47600+008183FM-12+034199999V0200801N002119999999N9999999N1+00251+00091100671ADDMA1999999096511MD1510051+9999OA149900411REMSYN076AAXX  14144 06666 33/// /0804 10025 20009 39651 40067 55005 333 91108 91204;
0128066660999992010011415004+47600+008183FM-12+034199999V0201101N001519999999N9999999N1+00231+00051100711ADDMA1999999096551MD1310041+9999OA149900461REMSYN076AAXX  14154 06666 33/// /1103 10023 20005 39655 40071 53004 333 91109 91206;
0128066660999992010011416004+47600+008183FM-12+034199999V0201101N001519999999N9999999N1+00211+00061100731ADDMA1999999096571MD1210101+9999OA149900461REMSYN076AAXX  14164 06666 33/// /1103 10021 20006 39657 40073 52010 333 91109 91205;
0128066660999992010011417004+47600+008183FM-12+034199999V0201101N001519999999N9999999N1+00201+00051100791ADDMA1999999096621MD1210111+9999OA149900361REMSYN076AAXX  14174 06666 33/// /1103 10020 20005 39662 40079 52011 333 91107 91205;
0147066660999992010011418004+47600+008183FM-12+034199999V0201001N001519999999N9999999N1+00201+00041100851ADDKA1120M+00261MA1999999096681MD1210131+9999OA149900461REMSYN082AAXX  14184 06666 33/// /1003 10020 20004 39668 40085 52013 333 10026 91109 91206;
0128066660999992010011419004+47600+008183FM-12+034199999V0200801N002619999999N9999999N1+00211-00011100941ADDMA1999999096771MD1310201+9999OA149900571REMSYN076AAXX  14194 06666 33/// /0805 10021 21001 39677 40094 53020 333 91111 91205;
0128066660999992010011420004+47600+008183FM-12+034199999V0201001N001519999999N9999999N1+00181-00021101031ADDMA1999999096851MD1310231+9999OA149900571REMSYN076AAXX  14204 06666 33/// /1003 10018 21002 39685 40103 53023 333 91111 91205;
0128066660999992010011421004+47600+008183FM-12+034199999V0201001N002119999999N9999999N1+00161-00051101131ADDMA1999999096941MD1210261+9999OA149900571REMSYN076AAXX  14214 06666 33/// /1004 10016 21005 39694 40113 52026 333 91111 91205;
0128066660999992010011422004+47600+008183FM-12+034199999V0201001N001519999999N9999999N1+00131-00041101221ADDMA1999999097021MD1310251+9999OA149900361REMSYN076AAXX  14224 06666 33/// /1003 10013 21004 39702 40122 53025 333 91107 91204;
0128066660999992010011423004+47600+008183FM-12+034199999V0201201N001519999999N9999999N1+00111-00061101311ADDMA1999999097111MD1210261+9999OA149900311REMSYN076AAXX  14234 06666 33/// /1203 10011 21006 39711 40131 52026 333 91106 91203;
0128066660999992010011500004+47600+008183FM-12+034199999V0201201N001019999999N9999999N1+00111-00071101381ADDMA1999999097171MD1110231+9999OA149900571REMSYN076AAXX  15004 06666 33/// /1202 10011 21007 39717 40138 51023 333 91111 91205;
0128066660999992010011501004+47600+008183FM-12+034199999V0200801N002119999999N9999999N1+00111-00071101441ADDMA1999999097231MD1110211+9999OA149900311REMSYN076AAXX  15014 06666 33/// /0804 10011 21007 39723 40144 51021 333 91106 91204;
0128066660999992010011502004+47600+008183FM-12+034199999V0200501N001019999999N9999999N1+00101-00071101531ADDMA1999999097321MD1310211+9999OA149900311REMSYN076AAXX  15024 06666 33/// /0502 10010 21007 39732 40153 53021 333 91106 91204;
0087066660999992010011503004+47600+008183FM-12+034199999V0201601N000519999999N9999999N1+00071-00031101611ADDMA1999999097391REMSYN060AAXX  15034 06666 33/// /1601 10007 21003 39739 40161 5////;
0128066660999992010011504004+47600+008183FM-12+034199999V0200801N001019999999N9999999N1+00061-00021101701ADDMA1999999097471MD1110241+9999OA149900211REMSYN076AAXX  15044 06666 33/// /0802 10006 21002 39747 40170 51024 333 91104 91202;
0128066660999992010011505004+47600+008183FM-12+034199999V0201101N001019999999N9999999N1+00091-00061101781ADDMA1999999097551MD1110231+9999OA149900211REMSYN076AAXX  15054 06666 33/// /1102 10009 21006 39755 40178 51023 333 91104 91203;
0225066660999992010011506004+47600+008183FM-12+034199999V0201101N001519999999N9999999N1+00091-00071101891ADDAA124000091AL19900091GJ100009IA2999+00009KA1999N+00051MA1999999097661MD1310271+9999OA149900571REMSYN100AAXX  15064 06666 33/// /1103 10009 21007 39766 40189 53027 333 20005 3/000 55000 70000 91111 91205;EQDQ01  00002PRCP24
0128066660999992010011507004+47600+008183FM-12+034199999V0200801N001519999999N9999999N1+00061-00051101991ADDMA1999999097751MD1210281+9999OA149900211REMSYN076AAXX  15074 06666 33/// /0803 10006 21005 39775 40199 52028 333 91104 91203;
0128066660999992010011508004+47600+008183FM-12+034199999V0200501N000519999999N9999999N1+00081-00071102081ADDMA1999999097841MD1119999+9999OA149900211REMSYN076AAXX  15084 06666 33/// /0501 10008 21007 39784 40208 51/// 333 91104 91203;
0128066660999992010011509004+47600+008183FM-12+034199999V0201601N001019999999N9999999N1+00091-00071102161ADDMA1999999097921MD1210261+9999OA149900211REMSYN076AAXX  15094 06666 33/// /1602 10009 21007 39792 40216 52026 333 91104 91203;
0128066660999992010011510004+47600+008183FM-12+034199999V0200301N001019999999N9999999N1+00151-00061102231ADDMA1999999097991MD1110241+9999OA149900151REMSYN076AAXX  15104 06666 33/// /0302 10015 21006 39799 40223 51024 333 91103 91202;
0128066660999992010011511004+47600+008183FM-12+034199999V0200801N000519999999N9999999N1+00161-00041102251ADDMA1999999098011MD1110171+9999OA149900151REMSYN076AAXX  15114 06666 33/// /0801 10016 21004 39801 40225 51017 333 91103 91202;
0128066660999992010011512004+47600+008183FM-12+034199999V0200801N000519999999N9999999N1+00201-00041102281ADDMA1999999098051MD1110131+9999OA149900311REMSYN076AAXX  15124 06666 33/// /0801 10020 21004 39805 40228 51013 333 91106 91204;
0128066660999992010011513004+47600+008183FM-12+034199999V0209999C000019999999N9999999N1+00201-00031102331ADDMA1999999098101MD1310111+9999OA149900211REMSYN076AAXX  15134 06666 33/// /0000 10020 21003 39810 40233 53011 333 91104 91203;
0128066660999992010011514004+47600+008183FM-12+034199999V0202501N001519999999N9999999N1+00241+00001102371ADDMA1999999098141MD1310131+9999OA149900261REMSYN076AAXX  15144 06666 33/// /2503 10024 20000 39814 40237 53013 333 91105 91203;
0128066660999992010011515004+47600+008183FM-12+034199999V0202501N002119999999N9999999N1+00221-00031102451ADDMA1999999098221MD1310171+9999OA149900411REMSYN076AAXX  15154 06666 33/// /2504 10022 21003 39822 40245 53017 333 91108 91205;
0128066660999992010011516004+47600+008183FM-12+034199999V0202101N000519999999N9999999N1+00191-00011102521ADDMA1999999098281MD1110181+9999OA149900411REMSYN076AAXX  15164 06666 33/// /2101 10019 21001 39828 40252 51018 333 91108 91205;
0128066660999992010011517004+47600+008183FM-12+034199999V0209999C000019999999N9999999N1+00161-00011102591ADDMA1999999098341MD1110201+9999OA149900311REMSYN076AAXX  15174 06666 33/// /0000 10016 21001 39834 40259 51020 333 91106 91204;
0147066660999992010011518004+47600+008183FM-12+034199999V0209999C000019999999N9999999N1+00161+00001102631ADDKA1120M+00241MA1999999098381MD1110161+9999OA149900411REMSYN082AAXX  15184 06666 33/// /0000 10016 20000 39838 40263 51016 333 10024 91108 91205;
0128066660999992010011519004+47600+008183FM-12+034199999V0201901N000519999999N9999999N1+00111-00011102651ADDMA1999999098391MD1110111+9999OA149900211REMSYN076AAXX  15194 06666 33/// /1901 10011 21001 39839 40265 51011 333 91104 91202;
0128066660999992010011520004+47600+008183FM-12+034199999V0209999C000019999999N9999999N1+00141+00011102671ADDMA1999999098411MD1110071+9999OA149900151REMSYN076AAXX  15204 06666 33/// /0000 10014 20001 39841 40267 51007 333 91103 91202;
0128066660999992010011521004+47600+008183FM-12+034199999V0201201N001019999999N9999999N1+00081+00021102671ADDMA1999999098401MD1210021+9999OA149900311REMSYN076AAXX  15214 06666 33/// /1202 10008 20002 39840 40267 52002 333 91106 91204;
0128066660999992010011522004+47600+008183FM-12+034199999V0201101N001019999999N9999999N1+00131-00051102661ADDMA1999999098401MD1210011+9999OA149900261REMSYN076AAXX  15224 06666 33/// /1102 10013 21005 39840 40266 52001 333 91105 91202;
0128066660999992010011523004+47600+008183FM-12+034199999V0200601N002119999999N9999999N1+00131-00061102681ADDMA1999999098421MD1310011+9999OA149900361REMSYN076AAXX  15234 06666 33/// /0604 10013 21006 39842 40268 53001 333 91107 91204;
0128066660999992010011600004+47600+008183FM-12+034199999V0200501N002619999999N9999999N1+00101-00091102651ADDMA1999999098391MD1010011+9999OA149900411REMSYN076AAXX  16004 06666 33/// /0505 10010 21009 39839 40265 50001 333 91108 91205;
0128066660999992010011601004+47600+008183FM-12+034199999V0200601N001519999999N9999999N1+00081-00101102631ADDMA1999999098371MD1710031+9999OA149900311REMSYN076AAXX  16014 06666 33/// /0603 10008 21010 39837 40263 57003 333 91106 91205;
0128066660999992010011602004+47600+008183FM-12+034199999V0200501N002119999999N9999999N1+00081-00091102621ADDMA1999999098361MD1710061+9999OA149900311REMSYN076AAXX  16024 06666 33/// /0504 10008 21009 39836 40262 57006 333 91106 91204;
0128066660999992010011603004+47600+008183FM-12+034199999V0200501N002619999999N9999999N1+00061-00111102571ADDMA1999999098311MD1719999+9999OA149900361REMSYN076AAXX  16034 06666 33/// /0505 10006 21011 39831 40257 57/// 333 91107 91205;
0128066660999992010011604004+47600+008183FM-12+034199999V0200401N002119999999N9999999N1+00051-00131102581ADDMA1999999098311MD1710061+9999OA149900411REMSYN076AAXX  16044 06666 33/// /0404 10005 21013 39831 40258 57006 333 91108 91205;
0128066660999992010011605004+47600+008183FM-12+034199999V0200501N003119999999N9999999N1+00031-00141102501ADDMA1999999098231MD1710131+9999OA149900411REMSYN076AAXX  16054 06666 33/// /0506 10003 21014 39823 40250 57013 333 91108 91206;
0225066660999992010011606004+47600+008183FM-12+034199999V0200501N001519999999N9999999N1+00031-00141102471ADDAA124000091AL19900091GJ100009IA2999+00009KA1999N+00031MA1999999098211MD1710101+9999OA149900411REMSYN100AAXX  16064 06666 33/// /0503 10003 21014 39821 40247 57010 333 20003 3/000 55000 70000 91108 91206;EQDQ01  00002PRCP24
0128066660999992010011607004+47600+008183FM-12+034199999V0200701N001519999999N9999999N1+00031-00151102401ADDMA1999999098141MD1610171+9999OA149900361REMSYN076AAXX  16074 06666 33/// /0703 10003 21015 39814 40240 56017 333 91107 91205;
0128066660999992010011608004+47600+008183FM-12+034199999V0200601N001519999999N9999999N1+00051-00141102371ADDMA1999999098111MD1710121+9999OA149900361REMSYN076AAXX  16084 06666 33/// /0603 10005 21014 39811 40237 57012 333 91107 91205;
0128066660999992010011609004+47600+008183FM-12+034199999V0200601N002619999999N9999999N1+00071-00141102301ADDMA1999999098051MD1710161+9999OA149900411REMSYN076AAXX  16094 06666 33/// /0605 10007 21014 39805 40230 57016 333 91108 91206;
0128066660999992010011610004+47600+008183FM-12+034199999V0201001N001519999999N9999999N1+00091-00201102291ADDMA1999999098041MD1710101+9999OA149900461REMSYN076AAXX  16104 06666 33/// /1003 10009 21020 39804 40229 57010 333 91109 91205;
0128066660999992010011611004+47600+008183FM-12+034199999V0201301N002119999999N9999999N1+00081-00251102211ADDMA1999999097961MD1710151+9999OA149900461REMSYN076AAXX  16114 06666 33/// /1304 10008 21025 39796 40221 57015 333 91109 91205;
0128066660999992010011612004+47600+008183FM-12+034199999V0201301N001519999999N9999999N1+00081-00251102171ADDMA1999999097931MD1710121+9999OA149900461REMSYN076AAXX  16124 06666 33/// /1303 10008 21025 39793 40217 57012 333 91109 91206;
0128066660999992010011613004+47600+008183FM-12+034199999V0201501N001019999999N9999999N1+00091-00241102121ADDMA1999999097881MD1710161+9999OA149900361REMSYN076AAXX  16134 06666 33/// /1502 10009 21024 39788 40212 57016 333 91107 91204;
0128066660999992010011614004+47600+008183FM-12+034199999V0201201N001519999999N9999999N1+00021-00211102051ADDMA1999999097801MD1819999+9999OA149900461REMSYN076AAXX  16144 06666 33/// /1203 10002 21021 39780 40205 58/// 333 91109 91205;
0128066660999992010011615004+47600+008183FM-12+034199999V0200501N001019999999N9999999N1+00041-00191102021ADDMA1999999097781MD1610151+9999OA149900461REMSYN076AAXX  16154 06666 33/// /0502 10004 21019 39778 40202 56015 333 91109 91205;
0128066660999992010011616004+47600+008183FM-12+034199999V0200201N000519999999N9999999N1+00051-00221101991ADDMA1999999097751MD1710131+9999OA149900361REMSYN076AAXX  16164 06666 33/// /0201 10005 21022 39775 40199 57013 333 91107 91203;
0128066660999992010011617004+47600+008183FM-12+034199999V0201201N000519999999N9999999N1-00011-00171101981ADDMA1999999097731MD1710071+9999OA149900151REMSYN076AAXX  16174 06666 33/// /1201 11001 21017 39773 40198 57007 333 91103 91202;
0147066660999992010011618004+47600+008183FM-12+034199999V0201101N000519999999N9999999N1-00021-00201101961ADDKA1120M+00101MA1999999097711MD1710071+9999OA149900461REMSYN082AAXX  16184 06666 33/// /1101 11002 21020 39771 40196 57007 333 10010 91109 91205;
0128066660999992010011619004+47600+008183FM-12+034199999V0200701N001519999999N9999999N1+00001-00171101891ADDMA1999999097641MD1710111+9999OA149900261REMSYN076AAXX  16194 06666 33/// /0703 10000 21017 39764 40189 57011 333 91105 91203;
0145066660999992010011620004+47600+008183FM-12+034199999V0200801N000519999999N9999999N1+00011-00131101851ADDAA101000591MA1999999097611MD1710121+9999OA149900261REMSYN082AAXX  16204 06666 23/// /0801 10001 21013 39761 40185 57012 333 69945 91105 91203;
0145066660999992010011621004+47600+008183FM-12+034199999V0200901N001019999999N9999999N1+00021-00031101741ADDAA101000591MA1999999097501MD1710211+9999OA149900261REMSYN082AAXX  16214 06666 23/// /0902 10002 21003 39750 40174 57021 333 69965 91105 91203;
0145066660999992010011622004+47600+008183FM-12+034199999V0201801N000519999999N9999999N1+00031+00001101741ADDAA101002091MA1999999097511MD1710131+9999OA149900211REMSYN082AAXX  16224 06666 23/// /1801 10003 20000 39751 40174 57013 333 60025 91104 91203;
0145066660999992010011623004+47600+008183FM-12+034199999V0201001N000519999999N9999999N1+00041+00041101731ADDAA101002091MA1999999097501MD1710111+9999OA149900211REMSYN082AAXX  16234 06666 23/// /1001 10004 20004 39750 40173 57011 333 60025 91104 91203;
0151066660999992010011700004+47600+008183FM-12+034199999V0201601N000519999999N9999999N1+00041+00041101741ADDAA106006191MA1999999097511MD1010011+9999OA149900461REMSYN088AAXX  17004 06666 03/// /1601 10004 20004 39751 40174 50001 60061 333 60015 91109 91205;
0128066660999992010011701004+47600+008183FM-12+034199999V0209999C000019999999N9999999N1+00041+00041101751ADDMA1999999097521MD1310011+9999OA149900151REMSYN076AAXX  17014 06666 33/// /0000 10004 20004 39752 40175 53001 333 91103 91202;
0128066660999992010011702004+47600+008183FM-12+034199999V0201801N000519999999N9999999N1+00021+00021101711ADDMA1999999097481MD1819999+9999OA149900151REMSYN076AAXX  17024 06666 33/// /1801 10002 20002 39748 40171 58/// 333 91103 91202;
0087066660999992010011703004+47600+008183FM-12+034199999V0202001N000519999999N9999999N1+00041+00041101681ADDMA1999999097451REMSYN060AAXX  17034 06666 43/// /2001 10004 20004 39745 40168 5////;
0145066660999992010011704004+47600+008183FM-12+034199999V0200501N000519999999N9999999N1+00071+00071101651ADDAA101001091MA1999999097431MD1710091+9999OA149900151REMSYN082AAXX  17044 06666 23/// /0501 10007 20007 39743 40165 57009 333 60015 91103 91202;
0145066660999992010011705004+47600+008183FM-12+034199999V0202301N000519999999N9999999N1+00081+00081101611ADDAA101000021MA1999999097391MD1719999+9999OA149900151REMSYN082AAXX  17054 06666 23/// /2301 10008 20008 39739 40161 57/// 333 69915 91103 91202;
0229066660999992010011706004+47600+008183FM-12+034199999V0202401N000519999999N9999999N1+00101+00101101611ADDAA112008992AA224008692AL13600891GJ100009IA2999-00109KA1999N-00021MA1999999097391MD1710061+9999OA149900261REMSYN112AAXX  17064 06666 03/// /2401 10010 20010 39739 40161 57006 60092 333 21002 3/101 55000 60005 70086 91105 91203;
0145066660999992010011707004+47600+008183FM-12+034199999V0209999C000019999999N9999999N1+00131+00131101681ADDAA101000591MA1999999097461MD1310031+9999OA149900151REMSYN082AAXX  17074 06666 23/// /0000 10013 20013 39746 40168 53003 333 69965 91103 91201;
0145066660999992010011708004+47600+008183FM-12+034199999V0202201N001019999999N9999999N1+00141+00141101741ADDAA101000891MA1999999097521MD1219999+9999OA149900211REMSYN082AAXX  17084 06666 23/// /2202 10014 20014 39752 40174 52/// 333 69975 91104 91202;
0145066660999992010011709004+47600+008183FM-12+034199999V0202601N005719999999N9999999N1+00481+00481101791ADDAA101000391MA1999999097621MD1310231+9999OA149900931REMSYN082AAXX  17094 06666 23/// /2611 10048 20048 39762 40179 53023 333 69935 91118 91211;
0128066660999992010011710004+47600+008183FM-12+034199999V0202601N007719999999N9999999N1+00561+00391101901ADDMA1999999097741MD1310281+9999OA149901441REMSYN076AAXX  17104 06666 33/// /2615 10056 20039 39774 40190 53028 333 91128 91215;
0128066660999992010011711004+47600+008183FM-12+034199999V0202601N008719999999N9999999N1+00571+00381101991ADDMA1999999097831MD1110311+9999OA149901441REMSYN076AAXX  17114 06666 33/// /2617 10057 20038 39783 40199 51031 333 91128 91217;
0151066660999992010011712004+47600+008183FM-12+034199999V0202601N007719999999N9999999N1+00571+00311102051ADDAA106002091MA1999999097891MD1110271+9999OA149901541REMSYN088AAXX  17124 06666 03/// /2615 10057 20031 39789 40205 51027 60021 333 69915 91130 91219;
0128066660999992010011713004+47600+008183FM-12+034199999V0202601N008219999999N9999999N1+00611+00291102071ADDMA1999999097911MD1210171+9999OA149901541REMSYN076AAXX  17134 06666 33/// /2616 10061 20029 39791 40207 52017 333 91130 91219;
0128066660999992010011714004+47600+008183FM-12+034199999V0202701N005119999999N9999999N1+00591+00271102201ADDMA1999999098031MD1219999+9999OA149901441REMSYN076AAXX  17144 06666 33/// /2710 10059 20027 39803 40220 52/// 333 91128 91217;
0128066660999992010011715004+47600+008183FM-12+034199999V0202501N006219999999N9999999N1+00541+00231102321ADDMA1999999098141MD1310251+9999OA149901541REMSYN076AAXX  17154 06666 33/// /2512 10054 20023 39814 40232 53025 333 91130 91219;
0128066660999992010011716004+47600+008183FM-12+034199999V0202401N004119999999N9999999N1+00531+00171102421ADDMA1999999098231MD1210321+9999OA149901291REMSYN076AAXX  17164 06666 33/// /2408 10053 20017 39823 40242 52032 333 91125 91215;
0128066660999992010011717004+47600+008183FM-12+034199999V0202801N001019999999N9999999N1+00491+00181102501ADDMA1999999098301MD1110271+9999OA149901131REMSYN076AAXX  17174 06666 33/// /2802 10049 20018 39830 40250 51027 333 91122 91213;
0170066660999992010011718004+47600+008183FM-12+034199999V0203501N000519999999N9999999N1+00441+00181102611ADDAA112002091KA1120M+00661MA1999999098401MD1210261+9999OA149901541REMSYN094AAXX  17184 06666 03/// /3501 10044 20018 39840 40261 52026 60022 333 10066 60005 91130 91219;
0128066660999992010011719004+47600+008183FM-12+034199999V0202901N000519999999N9999999N1+00361+00201102661ADDMA1999999098441MD1210211+9999OA149900261REMSYN076AAXX  17194 06666 33/// /2901 10036 20020 39844 40266 52021 333 91105 91204;
0128066660999992010011720004+47600+008183FM-12+034199999V0201501N001019999999N9999999N1+00251+00161102701ADDMA1999999098461MD1210161+9999OA149900261REMSYN076AAXX  17204 06666 33/// /1502 10025 20016 39846 40270 52016 333 91105 91204;
0128066660999992010011721004+47600+008183FM-12+034199999V0209999C000019999999N9999999N1+00241+00181102711ADDMA1999999098471MD1210071+9999OA149901131REMSYN076AAXX  17214 06666 33/// /0000 10024 20018 39847 40271 52007 333 91122 91213;
0128066660999992010011722004+47600+008183FM-12+034199999V0209999C000019999999N9999999N1+00221+00191102741ADDMA1999999098491MD1210051+9999OA149900211REMSYN076AAXX  17224 06666 33/// /0000 10022 20019 39849 40274 52005 333 91104 91203;
0128066660999992010011723004+47600+008183FM-12+034199999V0202001N000519999999N9999999N1+00171+00171102771ADDMA1999999098511MD1210051+9999OA149900211REMSYN076AAXX  17234 06666 33/// /2001 10017 20017 39851 40277 52005 333 91104 91202;
0128066660999992010011800004+47600+008183FM-12+034199999V0203401N000519999999N9999999N1+00201+00201102741ADDMA1999999098491MD1010021+9999OA149901441REMSYN076AAXX  18004 06666 33/// /3401 10020 20020 39849 40274 50002 333 91128 91217;
0128066660999992010011801004+47600+008183FM-12+034199999V0209999C000019999999N9999999N1+00081+00081102771ADDMA1999999098501MD1210011+9999OA149900101REMSYN076AAXX  18014 06666 33/// /0000 10008 20008 39850 40277 52001 333 91102 91201;
0087066660999992010011802004+47600+008183FM-12+034199999V0201901N000519999999N9999999N1+00091+00091102781ADDMA1999999098511REMSYN060AAXX  18024 06666 33/// /1901 10009 20009 39851 40278 5////;
0087066660999992010011803004+47600+008183FM-12+034199999V0201501N000519999999N9999999N1+00091+00091102811ADDMA1999999098541REMSYN060AAXX  18034 06666 33/// /1501 10009 20009 39854 40281 5////;
0128066660999992010011804004+47600+008183FM-12+034199999V0209999C000019999999N9999999N1+00081+00081102791ADDMA1999999098521MD1010021+9999OA149900151REMSYN076AAXX  18044 06666 33/// /0000 10008 20008 39852 40279 50002 333 91103 91202;
0128066660999992010011805004+47600+008183FM-12+034199999V0202101N001019999999N9999999N1+00091+00091102801ADDMA1999999098531MD1210021+9999OA149900151REMSYN076AAXX  18054 06666 33/// /2102 10009 20009 39853 40280 52002 333 91103 91202;
0206066660999992010011806004+47600+008183FM-12+034199999V0200401N000519999999N9999999N1+00111+00111102821ADDAA124001891AL14200191GJ100189IA2999-00209KA1999N+00031MA1999999098551MD1310011+9999OA149900261REMSYN100AAXX  18064 06666 33/// /0401 10011 20011 39855 40282 53001 333 20003 3/102 55003 70017 91105 91204;
0128066660999992010011807004+47600+008183FM-12+034199999V0209999C000019999999N9999999N1+00131+00131102841ADDMA1999999098581MD1210061+9999OA149900261REMSYN076AAXX  18074 06666 33/// /0000 10013 20013 39858 40284 52006 333 91105 91202;
0145066660999992010011808004+47600+008183FM-12+034199999V0209999C000019999999N9999999N1+00121+00121102901ADDAA101000021MA1999999098631MD1219999+9999OA149900261REMSYN082AAXX  18084 06666 23/// /0000 10012 20012 39863 40290 52/// 333 69915 91105 91202;
