0210066600999992011010100004+47383+008567FM-12+056999999V0209999C000010006019N0007001N1+00071+00001102371ADDAY141061AY221061GA1091+999999999GF109991091999999999999999MA1999999095561MD1710101+9999MW1451OA149900311REMSYN094AAXX  01004 06660 31/07 90000 10007 20000 39556 40237 57010 74542 333 55300 20000 91106 91204;
0140066600999992011010101004+47383+008567FM-12+056999999V0202301N000519999999N9999999N1+00081-00011102321ADDMA1999999095511MD1710131+9999OA149900211REMSYN088AAXX  01014 06660 33/// /2301 10008 21001 39551 40232 57013 333 55300 20000 91104 91203;
0140066600999992011010102004+47383+008567FM-12+056999999V0202001N001519999999N9999999N1+00091-00051102291ADDMA1999999095491MD1710121+9999OA149900311REMSYN088AAXX  01024 06660 33/// /2003 10009 21005 39549 40229 57012 333 55300 20000 91106 91204;
0140066600999992011010103004+47383+008567FM-12+056999999V0202401N002119999999N9999999N1+00101-00031102271ADDMA1999999095471MD1710091+9999OA149900411REMSYN088AAXX  01034 06660 33/// /2404 10010 21003 39547 40227 57009 333 55300 20000 91108 91204;
0140066600999992011010104004+47383+008567FM-12+056999999V0202201N001519999999N9999999N1+00091-00081102251ADDMA1999999095451MD1710061+9999OA149900571REMSYN088AAXX  01044 06660 33/// /2203 10009 21008 39545 40225 57006 333 55300 20000 91111 91206;
0140066600999992011010105004+47383+008567FM-12+056999999V0202001N001519999999N9999999N1+00111-00091102271ADDMA1999999095471MD1510021+9999OA149900571REMSYN088AAXX  01054 06660 33/// /2003 10011 21009 39547 40227 55002 333 55300 20000 91111 91206;
0330066600999992011010106004+47383+008567FM-12+056999999V0202101N001010006019N0020001N1+00091-00041102291ADDAJ100019199999999AL19900091AY141061AY221061GA1081+000601071GF108991081061000751999999GJ100009IA1309IA2999+00009KA1999N+00031MA1999999095491MD1310021+9999MW1101OA149900571REMSYN148AAXX  01064 06660 31120 82102 10009 21004 39549 40229 53002 71042 886// 333 20003 3/000 42001 55000 55300 20000 70001 88702 90768 93100 91111 91206;
0140066600999992011010107004+47383+008567FM-12+056999999V0202001N002619999999N9999999N1+00101-00111102301ADDMA1999999095501MD1110051+9999OA149900461REMSYN088AAXX  01074 06660 33/// /2005 10010 21011 39550 40230 51005 333 55300 20000 91109 91205;
0140066600999992011010108004+47383+008567FM-12+056999999V0202001N002119999999N9999999N1+00111-00111102321ADDMA1999999095521MD1319999+9999OA149900461REMSYN088AAXX  01084 06660 33/// /2004 10011 21011 39552 40232 53/// 333 55300 20022 91109 91205;
0151066600999992011010109004+47383+008567FM-12+056999999V0202101N00211002101CN0150001N1+00151-00111102311ADDGA1011+002401071GF108991071051002501999999MA1999999095521REMSYN082AAXX  01094 06660 42365 82104 10015 21011 39552 40231 5//// 875// 333 81708 87615;
0087066600999992011010110004+47383+008567FM-12+056999999V0202401N002619999999N9999999N1+00191-00121102301ADDMA1999999095521REMSYN060AAXX  01104 06660 43/// /2405 10019 21012 39552 40230 5////;
0140066600999992011010111004+47383+008567FM-12+056999999V0202001N002619999999N9999999N1+00171-00141102241ADDMA1999999095461MD1710061+9999OA149900511REMSYN088AAXX  01114 06660 33/// /2005 10017 21014 39546 40224 57006 333 55300 20288 91110 91206;
0151066600999992011010112004+47383+008567FM-12+056999999V0202101N00311001201CN0170001N1+00151-00141102191ADDGA1011+002101071GF107991071051001501999999MA1999999095411REMSYN082AAXX  01124 06660 42267 72106 10015 21014 39541 40219 5//// 875// 333 81707 87615;
0087066600999992011010113004+47383+008567FM-12+056999999V0202601N002119999999N9999999N1+00151-00121102141ADDMA1999999095361REMSYN060AAXX  01134 06660 43/// /2604 10015 21012 39536 40214 5////;
0087066600999992011010114004+47383+008567FM-12+056999999V0202501N002119999999N9999999N1+00131-00131102111ADDMA1999999095331REMSYN060AAXX  01144 06660 43/// /2504 10013 21013 39533 40211 5////;
0173066600999992011010115004+47383+008567FM-12+056999999V0202901N001510024019N0140001N1+00091-00161102131ADDAY121031AY221031GA1081+002401071GF108991081061002501999999MA1999999095341MW1101REMSYN082AAXX  01154 06660 41364 82903 10009 21016 39534 40213 5//// 71022 886// 333 88708;
0087066600999992011010116004+47383+008567FM-12+056999999V0202401N001519999999N9999999N1+00071-00151102161ADDMA1999999095361REMSYN060AAXX  01164 06660 43/// /2403 10007 21015 39536 40216 5////;
0087066600999992011010117004+47383+008567FM-12+056999999V0202601N001019999999N9999999N1+00061-00161102201ADDMA1999999095391REMSYN060AAXX  01174 06660 43/// /2602 10006 21016 39539 40220 5////;
0243066600999992011010118004+47383+008567FM-12+056999999V0203001N001510015019N0080001N1-00031-00141102221ADDAJ199992999999999AL10600091AY121061AY221061GA1081+001501071GF108991081061001501999999IA1259MA1999999095391MW1101REMSYN100AAXX  01184 06660 41258 83003 11003 21014 39539 40222 5//// 71022 886// 333 41998 88705 90766 93100;EQDQ01  09982SNDP  
0103066600999992011010119004+47383+008567FM-12+056999999V0203101N001519999999N9999999N1-00051-00161102221ADDMA1999999095391REMSYN076AAXX  01194 06660 33/// /3103 11005 21016 39539 40222 5//// 333 553// 20000;
0140066600999992011010120004+47383+008567FM-12+056999999V0203501N001019999999N9999999N1-00081-00171102251ADDMA1999999095411MD1310021+9999OA149900361REMSYN088AAXX  01204 06660 33/// /3502 11008 21017 39541 40225 53002 333 55300 20000 91107 91204;
0140066600999992011010121004+47383+008567FM-12+056999999V0203401N001019999999N9999999N1-00081-00201102221ADDMA1999999095381MD1810011+9999OA149900411REMSYN088AAXX  01214 06660 33/// /3402 11008 21020 39538 40222 58001 333 55300 20000 91108 91204;
0140066600999992011010122004+47383+008567FM-12+056999999V0200101N001519999999N9999999N1-00091-00181102191ADDMA1999999095351MD1710041+9999OA149900311REMSYN088AAXX  01224 06660 33/// /0103 11009 21018 39535 40219 57004 333 55300 20000 91106 91203;
0140066600999992011010123004+47383+008567FM-12+056999999V0200401N001519999999N9999999N1-00091-00171102161ADDMA1999999095321MD1810091+9999OA149900311REMSYN088AAXX  01234 06660 33/// /0403 11009 21017 39532 40216 58009 333 55300 20000 91106 91203;
0232066600999992011010200004+47383+008567FM-12+056999999V0200501N00151002401CN0060001N1-00091-00201102131ADDAY171061AY251061GA1071+002401071GF108991071061002501999999MA1999999095291MD1610091+9999MW1701OA149900461REMSYN116AAXX  02004 06660 31356 80503 11009 21020 39529 40213 56009 77075 876// 333 55300 20000 87708 91109 91206 444 27054;
0140066600999992011010201004+47383+008567FM-12+056999999V0209999C000019999999N9999999N1-00081-00211102081ADDMA1999999095251MD1810101+9999OA149900361REMSYN088AAXX  02014 06660 33/// /0000 11008 21021 39525 40208 58010 333 55300 20000 91107 91204;
0087066600999992011010202004+47383+008567FM-12+056999999V0201701N000519999999N9999999N1-00081-00201102091ADDMA1999999095261REMSYN060AAXX  02024 06660 43/// /1701 11008 21020 39526 40209 5////;
0087066600999992011010203004+47383+008567FM-12+056999999V0200301N000519999999N9999999N1-00071-00211102111ADDMA1999999095281REMSYN060AAXX  02034 06660 43/// /0301 11007 21021 39528 40211 5////;
0087066600999992011010204004+47383+008567FM-12+056999999V0201001N000519999999N9999999N1-00091-00211102131ADDMA1999999095291REMSYN060AAXX  02044 06660 43/// /1001 11009 21021 39529 40213 5////;
0087066600999992011010205004+47383+008567FM-12+056999999V0209999C000019999999N9999999N1-00081-00231102141ADDMA1999999095301REMSYN060AAXX  02054 06660 43/// /0000 11008 21023 39530 40214 5////;
0316066600999992011010206004+47383+008567FM-12+056999999V0200401N000510045019N0070001N1-00061-00211102141ADDAJ199992999999999AL10600091AY171061AY221061GA1041+000901071GA2071+004501071GF108991081061000751999999GJ100009IA1259IA2999-00109KA1999N-00101MA1999999095311MW1701REMSYN124AAXX  02064 06660 41157 80401 11006 21021 39531 40214 5//// 77072 886// 333 21010 3/101 41998 55000 84703 87715 90768 93100;EQDQ01  09982SNDP  
0140066600999992011010207004+47383+008567FM-12+056999999V0200301N000519999999N9999999N1-00081-00191102171ADDMA1999999095331MD1210041+9999OA149900211REMSYN088AAXX  02074 06660 33/// /0301 11008 21019 39533 40217 52004 333 55300 20000 91104 91202;
0140066600999992011010208004+47383+008567FM-12+056999999V0203501N001019999999N9999999N1-00091-00211102221ADDMA1999999095381MD1310081+9999OA149900211REMSYN088AAXX  02084 06660 33/// /3502 11009 21021 39538 40222 53008 333 55300 20014 91104 91202;
0228066600999992011010209004+47383+008567FM-12+056999999V0203401N001010006019N0035001N1-00071-00191102251ADDAY171031AY221031GA1081+000601071GF108991081071000751999999MA1999999095411MD1310101+9999MW1701OA149900211REMSYN112AAXX  02094 06660 21135 83402 11007 21019 39541 40225 53010 77072 887// 333 55300 20090 69915 88702 91104 91202;
0140066600999992011010210004+47383+008567FM-12+056999999V0200301N001019999999N9999999N1-00071-00191102281ADDMA1999999095441MD1110111+9999OA149900311REMSYN088AAXX  02104 06660 33/// /0302 11007 21019 39544 40228 51011 333 55300 20202 91106 91202;
0140066600999992011010211004+47383+008567FM-12+056999999V0200301N002619999999N9999999N1-00041-00171102281ADDMA1999999095441MD1210061+9999OA149900511REMSYN088AAXX  02114 06660 33/// /0305 11004 21017 39544 40228 52006 333 55300 20248 91110 91205;
0302066600999992011010212004+47383+008567FM-12+056999999V0200301N00261006601CN0050001N1-00031-00211102241ADDAA106000021AY171061AY221061GA1041+001501071GA2071+006601061GF108991081071001501999999MA1999999095411MD1710011+9999MW1711OA149900671REMSYN124AAXX  02124 06660 01250 80305 11003 21021 39541 40224 58000 69911 77172 887// 333 55300 20310 60005 84705 87622 91113 91205;EQDQ01+000082APCTENQ02+000002APC3  
0140066600999992011010213004+47383+008567FM-12+056999999V0200301N002119999999N9999999N1-00011-00281102251ADDMA1999999095421MD1710021+9999OA149900771REMSYN088AAXX  02134 06660 33/// /0304 11001 21028 39542 40225 57002 333 55300 20295 91115 91205;
0103066600999992011010214004+47383+008567FM-12+056999999V0200301N001519999999N9999999N1+00001-00281102261ADDMA1999999095441REMSYN076AAXX  02144 06660 33/// /0303 10000 21028 39544 40226 5//// 333 553// 20238;
0244066600999992011010215004+47383+008567FM-12+056999999V0200501N00151007501CN0050001N1-00021-00281102311ADDAY171031AY221031GA1031+001501071GA2071+007501061GF107991071051001501999999MA1999999095481MD1210071+9999MW1701OA149900771REMSYN112AAXX  02154 06660 31250 70503 11002 21028 39548 40231 52007 77072 875// 333 55300 20094 83705 87625 91115 91205;
0140066600999992011010216004+47383+008567FM-12+056999999V0200301N001019999999N9999999N1-00051-00311102361ADDMA1999999095521MD1210101+9999OA149900461REMSYN088AAXX  02164 06660 33/// /0302 11005 21031 39552 40236 52010 333 55300 20025 91109 91204;
0140066600999992011010217004+47383+008567FM-12+056999999V0200401N001019999999N9999999N1-00061-00301102401ADDMA1999999095551MD1110111+9999OA149900411REMSYN088AAXX  02174 06660 33/// /0402 11006 21030 39555 40240 51011 333 55300 20000 91108 91203;
0356066600999992011010218004+47383+008567FM-12+056999999V0200301N00101009601CN0070001N1-00091-00301102421ADDAA112000021AJ199992999999999AL19900091AY171061AY221061GA1021+002401061GA2061+009601061GF106991061051002501999999IA1259KA1120M+00001MA1999999095561MD1110081+9999MW1101OA149900771REMSYN148AAXX  02184 06660 01357 60302 11009 21030 39556 40242 51008 69912 71072 865// 333 10000 41998 55300 20000 60005 82608 86632 90766 93100 91115 91205;EQDQ01  09982SNDP  
0140066600999992011010219004+47383+008567FM-12+056999999V0200401N002619999999N9999999N1-00141-00391102461ADDMA1999999095591MD1310071+9999OA149900511REMSYN088AAXX  02194 06660 33/// /0405 11014 21039 39559 40246 53007 333 55300 20000 91110 91205;
0140066600999992011010220004+47383+008567FM-12+056999999V0200501N002119999999N9999999N1-00231-00451102501ADDMA1999999095601MD1110051+9999OA149900571REMSYN088AAXX  02204 06660 33/// /0504 11023 21045 39560 40250 51005 333 55300 20000 91111 91206;
0140066600999992011010221004+47383+008567FM-12+056999999V0200401N002119999999N9999999N1-00301-00471102551ADDMA1999999095631MD1310071+9999OA149900571REMSYN088AAXX  02214 06660 33/// /0404 11030 21047 39563 40255 53007 333 55300 20000 91111 91206;
0140066600999992011010222004+47383+008567FM-12+056999999V0200501N002119999999N9999999N1-00321-00491102591ADDMA1999999095661MD1310071+9999OA149900511REMSYN088AAXX  02224 06660 33/// /0504 11032 21049 39566 40259 53007 333 55300 20000 91110 91205;
0140066600999992011010223004+47383+008567FM-12+056999999V0200601N001519999999N9999999N1-00381-00531102601ADDMA1999999095661MD1110061+9999OA149900461REMSYN088AAXX  02234 06660 33/// /0603 11038 21053 39566 40260 51006 333 55300 20000 91109 91204;
0222066600999992011010300004+47383+008567FM-12+056999999V0200501N001512200019N0120001N1-00391-00531102601ADDAY111061AY211061GA1031+009601061GF103991031081008001001001MA1999999095661MD1110031+9999MW1101OA149900771REMSYN106AAXX  03004 06660 31562 30503 11039 21053 39566 40260 51003 71011 83800 333 55300 20000 83632 91115 91206;
0140066600999992011010301004+47383+008567FM-12+056999999V0200601N002119999999N9999999N1-00421-00561102581ADDMA1999999095631MD1810031+9999OA149900361REMSYN088AAXX  03014 06660 33/// /0604 11042 21056 39563 40258 58003 333 55300 20000 91107 91204;
0140066600999992011010302004+47383+008567FM-12+056999999V0200901N002119999999N9999999N1-00351-00631102561ADDMA1999999095631MD1719999+9999OA149900411REMSYN088AAXX  03024 06660 33/// /0904 11035 21063 39563 40256 57/// 333 55300 20000 91108 91204;
0087066600999992011010303004+47383+008567FM-12+056999999V0200501N002119999999N9999999N1-00371-00681102561ADDMA1999999095621REMSYN060AAXX  03034 06660 43/// /0504 11037 21068 39562 40256 5////;
0159066600999992011010304004+47383+008567FM-12+056999999V0200401N003119999999N9999999N1-00501-00651102601ADDMA1999999095631MD1210021+9999OA149900511REMSYN088AAXX  03044 06660 33/// /0406 11050 21065 39563 40260 52000 333 55300 20000 91110 91206;EQDQ01+000002APC3  
0140066600999992011010305004+47383+008567FM-12+056999999V0200501N002619999999N9999999N1-00551-00681102621ADDMA1999999095631MD1510001+9999OA149900511REMSYN088AAXX  03054 06660 33/// /0505 11055 21068 39563 40262 55000 333 55300 20000 91110 91206;
0349066600999992011010306004+47383+008567FM-12+056999999V0200501N002612200019N0110001N1-00561-00691102621ADDAJ199992999999999AL19900091AY101061AY201061GA1011+004501061GF101991011051004501001001GJ100009IA1259IA2999-00709KA1999N-00561MA1999999095631MD1210011+9999MW1101OA149900571REMSYN148AAXX  03064 06660 31461 10505 11056 21069 39563 40262 52001 71000 81500 333 21056 3/107 41998 55000 55300 20000 70001 81615 90768 93100 91111 91206;EQDQ01  09982SNDP  
0140066600999992011010307004+47383+008567FM-12+056999999V0200401N002619999999N9999999N1-00551-00691102611ADDMA1999999095621MD1710011+9999OA149900411REMSYN088AAXX  03074 06660 33/// /0405 11055 21069 39562 40261 57001 333 55300 20000 91108 91205;
0140066600999992011010308004+47383+008567FM-12+056999999V0200501N002619999999N9999999N1-00571-00711102651ADDMA1999999095661MD1219999+9999OA149900411REMSYN088AAXX  03084 06660 33/// /0505 11057 21071 39566 40265 52/// 333 55302 20061 91108 91205;
0103066600999992011010309004+47383+008567FM-12+056999999V0200501N003119999999N9999999N1-00481-00681102611ADDMA1999999095641REMSYN076AAXX  03094 06660 33/// /0506 11048 21068 39564 40261 5//// 333 553// 20475;
0140066600999992011010310004+47383+008567FM-12+056999999V0200601N002119999999N9999999N1-00401-00671102611ADDMA1999999095661MD1210041+9999OA149900461REMSYN088AAXX  03104 06660 33/// /0604 11040 21067 39566 40261 52004 333 553// 20886 91109 91206;
0140066600999992011010311004+47383+008567FM-12+056999999V0200401N002619999999N9999999N1-00291-00591102551ADDMA1999999095631MD1710031+9999OA149900671REMSYN088AAXX  03114 06660 33/// /0405 11029 21059 39563 40255 57003 333 553// 2//// 91113 91207;
0166066600999992011010312004+47383+008567FM-12+056999999V0200301N003112200019N9999999N1-00201-00551102451ADDGF104991999999999999999999MA1999999095561MD1810081+9999OA149900671REMSYN088AAXX  03124 06660 33/// 40306 11020 21055 39556 40245 58008 333 55309 2//// 91113 91207;
0140066600999992011010313004+47383+008567FM-12+056999999V0200501N002619999999N9999999N1-00151-00591102411ADDMA1999999095541MD1710121+9999OA149900621REMSYN088AAXX  03134 06660 33/// /0505 11015 21059 39554 40241 57012 333 553// 2//// 91112 91206;
0103066600999992011010314004+47383+008567FM-12+056999999V0200401N002119999999N9999999N1-00131-00581102381ADDMA1999999095521REMSYN076AAXX  03144 06660 33/// /0404 11013 21058 39552 40238 5//// 333 553// 20925;
0103066600999992011010315004+47383+008567FM-12+056999999V0200501N002119999999N9999999N1-00191-00601102401ADDMA1999999095521REMSYN076AAXX  03154 06660 33/// /0504 11019 21060 39552 40240 5//// 333 553// 20486;
0140066600999992011010316004+47383+008567FM-12+056999999V0200801N000519999999N9999999N1-00301-00591102421ADDMA1999999095511MD1710031+9999OA149900621REMSYN088AAXX  03164 06660 33/// /0801 11030 21059 39551 40242 57003 333 55304 20079 91112 91205;
0140066600999992011010317004+47383+008567FM-12+056999999V0200601N002619999999N9999999N1-00371-00621102411ADDMA1999999095481MD1710041+9999OA149900511REMSYN088AAXX  03174 06660 33/// /0605 11037 21062 39548 40241 57004 333 55300 20000 91110 91205;
0201066600999992011010318004+47383+008567FM-12+056999999V0200601N003112200019N9999999N1-00401-00661102411ADDGA1001+999999999GF100991001001999999001001KA1120M-00131MA1999999095481MD1710041+9999OA149900771REMSYN094AAXX  03184 06660 33/// 00606 11040 21066 39548 40241 57004 333 11013 55300 20000 91115 91207;
0140066600999992011010319004+47383+008567FM-12+056999999V0200601N002619999999N9999999N1-00491-00721102431ADDMA1999999095471MD1710041+9999OA149900571REMSYN088AAXX  03194 06660 33/// /0605 11049 21072 39547 40243 57004 333 55300 20000 91111 91207;
0140066600999992011010320004+47383+008567FM-12+056999999V0200501N002119999999N9999999N1-00521-00721102401ADDMA1999999095441MD1710041+9999OA149900461REMSYN088AAXX  03204 06660 33/// /0504 11052 21072 39544 40240 57004 333 55300 20000 91109 91205;
0140066600999992011010321004+47383+008567FM-12+056999999V0200501N002119999999N9999999N1-00541-00711102391ADDMA1999999095421MD1710061+9999OA149900571REMSYN088AAXX  03214 06660 33/// /0504 11054 21071 39542 40239 57006 333 55300 20000 91111 91207;
0140066600999992011010322004+47383+008567FM-12+056999999V0200401N001519999999N9999999N1-00571-00741102401ADDMA1999999095421MD1710051+9999OA149900361REMSYN088AAXX  03224 06660 33/// /0403 11057 21074 39542 40240 57005 333 55300 20000 91107 91205;
0140066600999992011010323004+47383+008567FM-12+056999999V0200401N001519999999N9999999N1-00581-00751102401ADDMA1999999095421MD1510021+9999OA149900311REMSYN088AAXX  03234 06660 33/// /0403 11058 21075 39542 40240 55002 333 55300 20000 91106 91204;
0140066600999992011010400004+47383+008567FM-12+056999999V0200301N000519999999N9999999N1-00571-00741102391ADDMA1999999095411MD1710011+9999OA149900771REMSYN088AAXX  04004 06660 33/// /0301 11057 21074 39541 40239 57001 333 55300 20000 91115 91207;
0140066600999992011010401004+47383+008567FM-12+056999999V0200301N000519999999N9999999N1-00601-00761102371ADDMA1999999095391MD1710031+9999OA149900211REMSYN088AAXX  04014 06660 33/// /0301 11060 21076 39539 40237 57003 333 55300 20000 91104 91203;
0140066600999992011010402004+47383+008567FM-12+056999999V0200101N000519999999N9999999N1-00641-00781102361ADDMA1999999095371MD1719999+9999OA149900211REMSYN088AAXX  04024 06660 33/// /0101 11064 21078 39537 40236 57/// 333 55300 20000 91104 91203;
0140066600999992011010403004+47383+008567FM-12+056999999V0200501N001519999999N9999999N1-00561-00711102321ADDMA1999999095351MD1710061+9999OA149900311REMSYN088AAXX  04034 06660 33/// /0503 11056 21071 39535 40232 57006 333 55300 20000 91106 91204;
0140066600999992011010404004+47383+008567FM-12+056999999V0200601N000519999999N9999999N1-00511-00701102261ADDMA1999999095311MD1710081+9999OA149900311REMSYN088AAXX  04044 06660 33/// /0601 11051 21070 39531 40226 57008 333 55300 20000 91106 91204;
0140066600999992011010405004+47383+008567FM-12+056999999V0200901N000519999999N9999999N1-00481-00661102201ADDMA1999999095261MD1710111+9999OA149900311REMSYN088AAXX  04054 06660 33/// /0901 11048 21066 39526 40220 57011 333 55300 20000 91106 91204;
0245066600999992011010406004+47383+008567FM-12+056999999V0200501N001019999999N9999999N1-00511-00671102181ADDAL19900091GF107991999999999999999999GJ104509IA2999-00709KA1999N-00641MA1999999095231MD1710121+9999OA149900461REMSYN124AAXX  04064 06660 33/// 70502 11051 21067 39523 40218 57012 333 21064 3/107 55075 55300 20000 70000 90768 93100 91109 91205;
0140066600999992011010407004+47383+008567FM-12+056999999V0200501N002119999999N9999999N1-00551-00721102171ADDMA1999999095211MD1710101+9999OA149900311REMSYN088AAXX  04074 06660 33/// /0504 11055 21072 39521 40217 57010 333 55300 20000 91106 91204;
0140066600999992011010408004+47383+008567FM-12+056999999V0200501N002119999999N9999999N1-00531-00691102171ADDMA1999999095221MD1519999+9999OA149900361REMSYN088AAXX  04084 06660 33/// /0504 11053 21069 39522 40217 55/// 333 55300 20007 91107 91204;
0103066600999992011010409004+47383+008567FM-12+056999999V0200501N002119999999N9999999N1-00521-00671102161ADDMA1999999095211REMSYN076AAXX  04094 06660 33/// /0504 11052 21067 39521 40216 5//// 333 553// 20058;
0140066600999992011010410004+47383+008567FM-12+056999999V0200601N002119999999N9999999N1-00451-00671102171ADDMA1999999095241MD1210031+9999OA149900361REMSYN088AAXX  04104 06660 33/// /0604 11045 21067 39524 40217 52003 333 55300 20223 91107 91205;
0140066600999992011010411004+47383+008567FM-12+056999999V0200601N001519999999N9999999N1-00421-00661102111ADDMA1999999095191MD1810031+9999OA149900361REMSYN088AAXX  04114 06660 33/// /0603 11042 21066 39519 40211 58003 333 55300 20295 91107 91205;
0166066600999992011010412004+47383+008567FM-12+056999999V0209999C000019999999N9999999N1-00351-00641102001ADDGF107991999999999999999999MA1999999095111MD1810101+9999OA149900361REMSYN088AAXX  04124 06660 33/// 70000 11035 21064 39511 40200 58010 333 55300 20720 91107 91205;
0140066600999992011010413004+47383+008567FM-12+056999999V0201001N000519999999N9999999N1-00281-00601101951ADDMA1999999095081MD1710161+9999OA149900211REMSYN088AAXX  04134 06660 33/// /1001 11028 21060 39508 40195 57016 333 55300 20385 91104 91203;
0103066600999992011010414004+47383+008567FM-12+056999999V0200501N001519999999N9999999N1-00271-00601101901ADDMA1999999095031REMSYN076AAXX  04144 06660 33/// /0503 11027 21060 39503 40190 5//// 333 553// 20317;
0087066600999992011010415004+47383+008567FM-12+056999999V0200701N001019999999N9999999N1-00271-00591101891ADDMA1999999095021REMSYN060AAXX  04154 06660 43/// /0702 11027 21059 39502 40189 5////;
0140066600999992011010416004+47383+008567FM-12+056999999V0200501N001519999999N9999999N1-00281-00561101871ADDMA1999999095001MD1710081+9999OA149900311REMSYN088AAXX  04164 06660 33/// /0503 11028 21056 39500 40187 57008 333 55300 20022 91106 91203;
0140066600999992011010417004+47383+008567FM-12+056999999V0200501N001019999999N9999999N1-00291-00521101871ADDMA1999999095001MD1710031+9999OA149900311REMSYN088AAXX  04174 06660 33/// /0502 11029 21052 39500 40187 57003 333 55300 20000 91106 91203;
0185066600999992011010418004+47383+008567FM-12+056999999V0203501N000519999999N9999999N1-00291-00531101891ADDGF108991999999999999999999KA1120M-00251MA1999999095021MD1510001+9999OA149900361REMSYN094AAXX  04184 06660 33/// 83501 11029 21053 39502 40189 55000 333 11025 55300 20000 91107 91205;
0140066600999992011010419004+47383+008567FM-12+056999999V0200501N000519999999N9999999N1-00301-00501101901ADDMA1999999095031MD1210031+9999OA149900211REMSYN088AAXX  04194 06660 33/// /0501 11030 21050 39503 40190 52003 333 55300 20000 91104 91202;
0140066600999992011010420004+47383+008567FM-12+056999999V0203301N000519999999N9999999N1-00301-00521101871ADDMA1999999095001MD1010001+9999OA149900151REMSYN088AAXX  04204 06660 33/// /3301 11030 21052 39500 40187 50000 333 55300 20000 91103 91202;
0140066600999992011010421004+47383+008567FM-12+056999999V0203301N001019999999N9999999N1-00291-00561101861ADDMA1999999094991MD1710031+9999OA149900311REMSYN088AAXX  04214 06660 33/// /3302 11029 21056 39499 40186 57003 333 55300 20000 91106 91203;
0140066600999992011010422004+47383+008567FM-12+056999999V0200501N001019999999N9999999N1-00341-00541101871ADDMA1999999094991MD1610041+9999OA149900261REMSYN088AAXX  04224 06660 33/// /0502 11034 21054 39499 40187 56004 333 55300 20000 91105 91202;
0140066600999992011010423004+47383+008567FM-12+056999999V0200701N001019999999N9999999N1-00391-00551101881ADDMA1999999094981MD1710021+9999OA149900261REMSYN088AAXX  04234 06660 33/// /0702 11039 21055 39498 40188 57002 333 55300 20000 91105 91202;
0140066600999992011010500004+47383+008567FM-12+056999999V0201901N000519999999N9999999N1-00381-00551101841ADDMA1999999094951MD1710041+9999OA149900311REMSYN088AAXX  05004 06660 33/// /1901 11038 21055 39495 40184 57004 333 55300 20000 91106 91203;
0140066600999992011010501004+47383+008567FM-12+056999999V0202801N000519999999N9999999N1-00351-00611101821ADDMA1999999094941MD1710051+9999OA149900151REMSYN088AAXX  05014 06660 33/// /2801 11035 21061 39494 40182 57005 333 55300 20000 91103 91202;
0140066600999992011010502004+47383+008567FM-12+056999999V0209999C000019999999N9999999N1-00361-00591101821ADDMA1999999094941MD1710041+9999OA149900151REMSYN088AAXX  05024 06660 33/// /0000 11036 21059 39494 40182 57004 333 55300 20000 91103 91202;
0087066600999992011010503004+47383+008567FM-12+056999999V0201901N000519999999N9999999N1-00331-00571101821ADDMA1999999094941REMSYN060AAXX  05034 06660 43/// /1901 11033 21057 39494 40182 5////;
0140066600999992011010504004+47383+008567FM-12+056999999V0202001N001019999999N9999999N1-00291-00541101761ADDMA1999999094901MD1710041+9999OA149900151REMSYN088AAXX  05044 06660 33/// /2002 11029 21054 39490 40176 57004 333 55300 20000 91103 91202;
0140066600999992011010505004+47383+008567FM-12+056999999V0201801N001019999999N9999999N1-00301-00551101741ADDMA1999999094881MD1710061+9999OA149900151REMSYN088AAXX  05054 06660 33/// /1802 11030 21055 39488 40174 57006 333 55300 20000 91103 91202;
0245066600999992011010506004+47383+008567FM-12+056999999V0201801N000519999999N9999999N1-00281-00541101761ADDAL19900091GF107991999999999999999999GJ100009IA2999-00509KA1999N-00401MA1999999094901MD1510041+9999OA149900261REMSYN124AAXX  05064 06660 33/// 71801 11028 21054 39490 40176 55004 333 21040 3/105 55000 55300 20000 70000 90768 93100 91105 91202;
0140066600999992011010507004+47383+008567FM-12+056999999V0201901N001019999999N9999999N1-00301-00541101751ADDMA1999999094891MD1710011+9999OA149900211REMSYN088AAXX  05074 06660 33/// /1902 11030 21054 39489 40175 57001 333 55300 20000 91104 91202;
0140066600999992011010508004+47383+008567FM-12+056999999V0201901N000519999999N9999999N1-00321-00571101761ADDMA1999999094891MD1219999+9999OA149900151REMSYN088AAXX  05084 06660 33/// /1901 11032 21057 39489 40176 52/// 333 55302 20072 91103 91202;
0140066600999992011010509004+47383+008567FM-12+056999999V0201901N001019999999N9999999N1-00231-00551101731ADDMA1999999094881MD1710021+9999OA149900211REMSYN088AAXX  05094 06660 33/// /1902 11023 21055 39488 40173 57002 333 553// 20457 91104 91203;
0140066600999992011010510004+47383+008567FM-12+056999999V0201701N000519999999N9999999N1-00141-00601101671ADDMA1999999094851MD1710041+9999OA149900211REMSYN088AAXX  05104 06660 33/// /1701 11014 21060 39485 40167 57004 333 553// 20871 91104 91203;
0140066600999992011010511004+47383+008567FM-12+056999999V0202401N001019999999N9999999N1-00031-00551101591ADDMA1999999094801MD1710091+9999OA149900211REMSYN088AAXX  05114 06660 33/// /2402 11003 21055 39480 40159 57009 333 553// 2//// 91104 91202;
0129066600999992011010512004+47383+008567FM-12+056999999V0202401N001012200019N9999999N1+00141-00571101451ADDGF101991999999999999999999MA1999999094711REMSYN076AAXX  05124 06660 33/// 12402 10014 21057 39471 40145 5//// 333 553// 2////;
0140066600999992011010513004+47383+008567FM-12+056999999V0202301N001519999999N9999999N1+00181-00681101401ADDMA1999999094681MD1710171+9999OA149900311REMSYN088AAXX  05134 06660 33/// /2303 10018 21068 39468 40140 57017 333 553// 2//// 91106 91203;
0087066600999992011010514004+47383+008567FM-12+056999999V0201901N002119999999N9999999N1+00211-00581101381ADDMA1999999094671REMSYN060AAXX  05144 06660 43/// /1904 10021 21058 39467 40138 5////;
0087066600999992011010515004+47383+008567FM-12+056999999V0201901N001519999999N9999999N1+00191-00581101341ADDMA1999999094621REMSYN060AAXX  05154 06660 43/// /1903 10019 21058 39462 40134 5////;
0140066600999992011010516004+47383+008567FM-12+056999999V0202101N001519999999N9999999N1+00081-00421101331ADDMA1999999094591MD1710091+9999OA149900361REMSYN088AAXX  05164 06660 33/// /2103 10008 21042 39459 40133 57009 333 55305 20094 91107 91204;
0140066600999992011010517004+47383+008567FM-12+056999999V0201501N001019999999N9999999N1-00011-00471101381ADDMA1999999094611MD1510061+9999OA149900411REMSYN088AAXX  05174 06660 33/// /1502 11001 21047 39461 40138 55006 333 55300 20000 91108 91204;
0185066600999992011010518004+47383+008567FM-12+056999999V0209999C000012200019N9999999N1-00101-00541101371ADDGF103991999999999999999999KA1120M+00221MA1999999094581MD1719999+9999OA149900411REMSYN094AAXX  05184 06660 33/// 30000 11010 21054 39458 40137 57/// 333 10022 55300 20000 91108 91204;
0140066600999992011010519004+47383+008567FM-12+056999999V0201801N002119999999N9999999N1-00051-00601101361ADDMA1999999094581MD1810011+9999OA149900361REMSYN088AAXX  05194 06660 33/// /1804 11005 21060 39458 40136 58001 333 55300 20000 91107 91204;
0140066600999992011010520004+47383+008567FM-12+056999999V0202101N001019999999N9999999N1-00041-00671101291ADDMA1999999094521MD1719999+9999OA149900411REMSYN088AAXX  05204 06660 33/// /2102 11004 21067 39452 40129 57/// 333 55300 20000 91108 91205;
0103066600999992011010521004+47383+008567FM-12+056999999V0201501N001019999999N9999999N1-00061-00561101271ADDMA1999999094501REMSYN076AAXX  05214 06660 33/// /1502 11006 21056 39450 40127 5//// 333 553// 20000;
0140066600999992011010522004+47383+008567FM-12+056999999V0202201N001019999999N9999999N1-00061-00671101251ADDMA1999999094481MD1710101+9999OA149900361REMSYN088AAXX  05224 06660 33/// /2202 11006 21067 39448 40125 57010 333 55300 20000 91107 91204;
0140066600999992011010523004+47383+008567FM-12+056999999V0202401N000519999999N9999999N1-00101-00681101221ADDMA1999999094441MD1719999+9999OA149900311REMSYN088AAXX  05234 06660 33/// /2401 11010 21068 39444 40122 57/// 333 55300 20000 91106 91203;
0087066600999992011010600004+47383+008567FM-12+056999999V0201801N001019999999N9999999N1-00081-00621101151ADDMA1999999094381REMSYN060AAXX  06004 06660 43/// /1802 11008 21062 39438 40115 5////;
0087066600999992011010601004+47383+008567FM-12+056999999V0201301N001019999999N9999999N1+00031-00761101051ADDMA1999999094311REMSYN060AAXX  06014 06660 43/// /1302 10003 21076 39431 40105 5////;
0087066600999992011010602004+47383+008567FM-12+056999999V0201001N000519999999N9999999N1+00061-00691101021ADDMA1999999094291REMSYN060AAXX  06024 06660 43/// /1001 10006 21069 39429 40102 5////;
0087066600999992011010603004+47383+008567FM-12+056999999V0200901N000519999999N9999999N1-00011-00561101051ADDMA1999999094301REMSYN060AAXX  06034 06660 43/// /0901 11001 21056 39430 40105 5////;
0087066600999992011010604004+47383+008567FM-12+056999999V0202101N004119999999N9999999N1+00221-00641100981ADDMA1999999094291REMSYN060AAXX  06044 06660 43/// /2108 10022 21064 39429 40098 5////;
0087066600999992011010605004+47383+008567FM-12+056999999V0202101N004119999999N9999999N1+00321-00301100941ADDMA1999999094281REMSYN060AAXX  06054 06660 43/// /2108 10032 21030 39428 40094 5////;
0190066600999992011010606004+47383+008567FM-12+056999999V0202201N002619999999N9999999N1+00341-00181100961ADDAL10600091GF108991999999999999999999GJ104629IA2999-00409KA1999N-00111MA1999999094301REMSYN094AAXX  06064 06660 43/// 82205 10034 21018 39430 40096 5//// 333 21011 3/104 55077 90768 93100;
0087066600999992011010607004+47383+008567FM-12+056999999V0202301N002119999999N9999999N1+00391-00211100951ADDMA1999999094311REMSYN060AAXX  06074 06660 43/// /2304 10039 21021 39431 40095 5////;
0103066600999992011010608004+47383+008567FM-12+056999999V0202401N001519999999N9999999N1+00381-00191100921ADDMA1999999094281REMSYN076AAXX  06084 06660 33/// /2403 10038 21019 39428 40092 5//// 333 553// 20018;
0087066600999992011010609004+47383+008567FM-12+056999999V0202301N001019999999N9999999N1+00531-00041100931ADDMA1999999094321REMSYN060AAXX  06094 06660 43/// /2302 10053 21004 39432 40093 5////;
0140066600999992011010610004+47383+008567FM-12+056999999V0202101N003619999999N9999999N1+00631+00031100911ADDMA1999999094331MD1310021+9999OA149900881REMSYN088AAXX  06104 06660 33/// /2107 10063 20003 39433 40091 53002 333 55302 20652 91117 91207;
0140066600999992011010611004+47383+008567FM-12+056999999V0202001N004619999999N9999999N1+00651+00031100891ADDMA1999999094311MD1010031+9999OA149901651REMSYN088AAXX  06114 06660 33/// /2009 10065 20003 39431 40089 50003 333 55300 20608 91132 91217;
0166066600999992011010612004+47383+008567FM-12+056999999V0202001N002119999999N9999999N1+00611-00081100851ADDGF108991999999999999999999MA1999999094271MD1710051+9999OA149901651REMSYN088AAXX  06124 06660 33/// 82004 10061 21008 39427 40085 57005 333 55300 20288 91132 91217;
0140066600999992011010613004+47383+008567FM-12+056999999V0201601N001519999999N9999999N1+00581-00051100821ADDMA1999999094231MD1710101+9999OA149900721REMSYN088AAXX  06134 06660 33/// /1603 10058 21005 39423 40082 57010 333 55300 20234 91114 91208;
0087066600999992011010614004+47383+008567FM-12+056999999V0202101N003119999999N9999999N1+00691+00061100801ADDMA1999999094241REMSYN060AAXX  06144 06660 43/// /2106 10069 20006 39424 40080 5////;
0087066600999992011010615004+47383+008567FM-12+056999999V0201901N004119999999N9999999N1+00751+00121100801ADDMA1999999094251REMSYN060AAXX  06154 06660 43/// /1908 10075 20012 39425 40080 5////;
0140066600999992011010616004+47383+008567FM-12+056999999V0202801N000519999999N9999999N1+00621+00131100841ADDMA1999999094261MD1210031+9999OA149901801REMSYN088AAXX  06164 06660 33/// /2801 10062 20013 39426 40084 52003 333 55300 20011 91135 91216;
0146066600999992011010617004+47383+008567FM-12+056999999V0202001N002619999999N9999999N1+00521+00271100951ADDMA1999999094341MD1210101+9999OA149900621REMSYN094AAXX  06174 06660 23/// /2005 10052 20027 39434 40095 52010 333 55300 20000 60025 91112 91206;
0208066600999992011010618004+47383+008567FM-12+056999999V0202101N004119999999N9999999N1+00601+00381100941ADDAA112003091GF108991999999999999999999KA1120M+00831MA1999999094351MD1210101+9999OA149901801REMSYN106AAXX  06184 06660 03/// 82108 10060 20038 39435 40094 52010 60032 333 10083 55300 20000 60015 91135 91217;
0146066600999992011010619004+47383+008567FM-12+056999999V0201701N001019999999N9999999N1+00541+00381101021ADDMA1999999094411MD1210151+9999OA149900931REMSYN094AAXX  06194 06660 23/// /1702 10054 20038 39441 40102 52015 333 55300 20000 69915 91118 91208;
0146066600999992011010620004+47383+008567FM-12+056999999V0201701N001519999999N9999999N1+00491+00341101071ADDMA1999999094441MD1219999+9999OA149900821REMSYN094AAXX  06204 06660 23/// /1703 10049 20034 39444 40107 52/// 333 55300 20000 60015 91116 91208;
0140066600999992011010621004+47383+008567FM-12+056999999V0201701N002119999999N9999999N1+00581+00301101071ADDMA1999999094461MD1219999+9999OA149900931REMSYN088AAXX  06214 06660 33/// /1704 10058 20030 39446 40107 52/// 333 55300 20000 91118 91208;
0140066600999992011010622004+47383+008567FM-12+056999999V0202101N000519999999N9999999N1+00611+00331101121ADDMA1999999094521MD1210111+9999OA149900671REMSYN088AAXX  06224 06660 33/// /2101 10061 20033 39452 40112 52011 333 55300 20000 91113 91205;
0109066600999992011010623004+47383+008567FM-12+056999999V0201901N001519999999N9999999N1+00621+00381101141ADDMA1999999094541REMSYN082AAXX  06234 06660 23/// /1903 10062 20038 39454 40114 5//// 333 553// 20000 69935;
0087066600999992011010700004+47383+008567FM-12+056999999V0201601N001019999999N9999999N1+00591+00421101201ADDMA1999999094591REMSYN060AAXX  07004 06660 43/// /1602 10059 20042 39459 40120 5////;
0087066600999992011010701004+47383+008567FM-12+056999999V0201601N001019999999N9999999N1+00581+00421101221ADDMA1999999094601REMSYN060AAXX  07014 06660 43/// /1602 10058 20042 39460 40122 5////;
0087066600999992011010702004+47383+008567FM-12+056999999V0201901N002119999999N9999999N1+00691+00441101231ADDMA1999999094641REMSYN060AAXX  07024 06660 43/// /1904 10069 20044 39464 40123 5////;
0087066600999992011010703004+47383+008567FM-12+056999999V0202201N001019999999N9999999N1+00721+00471101231ADDMA1999999094651REMSYN060AAXX  07034 06660 43/// /2202 10072 20047 39465 40123 5////;
0146066600999992011010704004+47383+008567FM-12+056999999V0202001N003119999999N9999999N1+00651+00491101301ADDMA1999999094701MD1210101+9999OA149900511REMSYN094AAXX  07044 06660 23/// /2006 10065 20049 39470 40130 52010 333 55300 20000 69945 91110 91206;
0146066600999992011010705004+47383+008567FM-12+056999999V0202501N001019999999N9999999N1+00641+00551101331ADDMA1999999094721MD1210081+9999OA149901241REMSYN094AAXX  07054 06660 23/// /2502 10064 20055 39472 40133 52008 333 55300 20000 69995 91124 91208;
0278066600999992011010706004+47383+008567FM-12+056999999V0201601N000519999999N9999999N1+00601+00521101381ADDAA112004191AL13600691AL29900091GF108991999999999999999999GJ100129IA2999+00409KA1999N+00441MA1999999094761MD1210111+9999OA149901241REMSYN136AAXX  07064 06660 03/// 81601 10060 20052 39476 40138 52011 60042 333 20044 3/004 55002 55300 20000 60015 70066 90768 93100 91124 91208;
0146066600999992011010707004+47383+008567FM-12+056999999V0201501N001019999999N9999999N1+00541+00451101391ADDMA1999999094751MD1210051+9999OA149900311REMSYN094AAXX  07074 06660 23/// /1502 10054 20045 39475 40139 52005 333 55300 20000 69945 91106 91203;
0109066600999992011010708004+47383+008567FM-12+056999999V0201401N000519999999N9999999N1+00511+00421101371ADDMA1999999094731REMSYN082AAXX  07084 06660 23/// /1401 10051 20042 39473 40137 5//// 333 553// 20025 69915;
0087066600999992011010709004+47383+008567FM-12+056999999V0200701N000519999999N9999999N1+00561+00471101341ADDMA1999999094711REMSYN060AAXX  07094 06660 43/// /0701 10056 20047 39471 40134 5////;
0140066600999992011010710004+47383+008567FM-12+056999999V0200601N000519999999N9999999N1+00771+00601101291ADDMA1999999094711MD1710041+9999OA149900211REMSYN088AAXX  07104 06660 33/// /0601 10077 20060 39471 40129 57004 333 55302 20526 91104 91202;
0140066600999992011010711004+47383+008567FM-12+056999999V0202301N000519999999N9999999N1+00811+00631101291ADDMA1999999094721MD1010011+9999OA149900211REMSYN088AAXX  07114 06660 33/// /2301 10081 20063 39472 40129 50001 333 55305 20767 91104 91202;
0163066600999992011010712004+47383+008567FM-12+056999999V0202001N000519999999N9999999N1+00841+00621101251ADDAA106000591MA1999999094691MD1810021+9999OA149901241REMSYN100AAXX  07124 06660 03/// /2001 10084 20062 39469 40125 58002 69951 333 55301 20634 60005 91124 91208;
0140066600999992011010713004+47383+008567FM-12+056999999V0201901N000519999999N9999999N1+01001+00501101171ADDMA1999999094661MD1710051+9999OA149900261REMSYN088AAXX  07134 06660 33/// /1901 10100 20050 39466 40117 57005 333 55309 2//// 91105 91203;
0087066600999992011010714004+47383+008567FM-12+056999999V0202201N001019999999N9999999N1+01011+00531101171ADDMA1999999094661REMSYN060AAXX  07144 06660 43/// /2202 10101 20053 39466 40117 5////;
0087066600999992011010715004+47383+008567FM-12+056999999V0202001N000519999999N9999999N1+01011+00531101181ADDMA1999999094671REMSYN060AAXX  07154 06660 43/// /2001 10101 20053 39467 40118 5////;
0140066600999992011010716004+47383+008567FM-12+056999999V0202301N000519999999N9999999N1+00891+00521101271ADDMA1999999094721MD1210061+9999OA149900151REMSYN088AAXX  07164 06660 33/// /2301 10089 20052 39472 40127 52006 333 55300 20043 91103 91201;
0140066600999992011010717004+47383+008567FM-12+056999999V0202601N000519999999N9999999N1+00811+00511101321ADDMA1999999094751MD1210091+9999OA149900151REMSYN088AAXX  07174 06660 33/// /2601 10081 20051 39475 40132 52009 333 55300 20000 91103 91201;
0171066600999992011010718004+47383+008567FM-12+056999999V0202001N001019999999N9999999N1+00831+00511101311ADDAA112000591GF107991999999999999999999KA1120M+01101MA1999999094751REMSYN094AAXX  07184 06660 03/// 72002 10083 20051 39475 40131 5//// 69952 333 10110 553// 20000 60005;
0140066600999992011010719004+47383+008567FM-12+056999999V0202301N000519999999N9999999N1+00851+00491101311ADDMA1999999094751MD1019999+9999OA149900211REMSYN088AAXX  07194 06660 33/// /2301 10085 20049 39475 40131 50/// 333 55300 20000 91104 91202;
0087066600999992011010720004+47383+008567FM-12+056999999V0201601N000519999999N9999999N1+00741+00481101291ADDMA1999999094711REMSYN060AAXX  07204 06660 43/// /1601 10074 20048 39471 40129 5////;
0087066600999992011010721004+47383+008567FM-12+056999999V0202801N001019999999N9999999N1+00761+00461101291ADDMA1999999094711REMSYN060AAXX  07214 06660 43/// /2802 10076 20046 39471 40129 5////;
0140066600999992011010722004+47383+008567FM-12+056999999V0200601N000519999999N9999999N1+00691+00451101311ADDMA1999999094711MD1710041+9999OA149900211REMSYN088AAXX  07224 06660 33/// /0601 10069 20045 39471 40131 57004 333 55300 20000 91104 91202;
0103066600999992011010723004+47383+008567FM-12+056999999V0202701N000519999999N9999999N1+00791+00431101301ADDMA1999999094731REMSYN076AAXX  07234 06660 33/// /2701 10079 20043 39473 40130 5//// 333 553// 20000;
0103066600999992011010800004+47383+008567FM-12+056999999V0202701N000519999999N9999999N1+00751+00391101351ADDMA1999999094771REMSYN076AAXX  08004 06660 33/// /2701 10075 20039 39477 40135 5//// 333 553// 20000;
0087066600999992011010801004+47383+008567FM-12+056999999V0201501N001019999999N9999999N1+00681+00411101361ADDMA1999999094761REMSYN060AAXX  08014 06660 43/// /1502 10068 20041 39476 40136 5////;
0087066600999992011010802004+47383+008567FM-12+056999999V0203001N001019999999N9999999N1+00641+00361101381ADDMA1999999094771REMSYN060AAXX  08024 06660 43/// /3002 10064 20036 39477 40138 5////;
0087066600999992011010803004+47383+008567FM-12+056999999V0201601N000519999999N9999999N1+00721+00251101351ADDMA1999999094761REMSYN060AAXX  08034 06660 43/// /1601 10072 20025 39476 40135 5////;
0087066600999992011010804004+47383+008567FM-12+056999999V0202401N000519999999N9999999N1+00701+00301101381ADDMA1999999094781REMSYN060AAXX  08044 06660 43/// /2401 10070 20030 39478 40138 5////;
0087066600999992011010805004+47383+008567FM-12+056999999V0202401N000519999999N9999999N1+00671+00451101451ADDMA1999999094841REMSYN060AAXX  08054 06660 43/// /2401 10067 20045 39484 40145 5////;
0190066600999992011010806004+47383+008567FM-12+056999999V0202501N002119999999N9999999N1+00741+00641101491ADDAL10600091GF108991999999999999999999GJ101629IA2999+00509KA1999N+00631MA1999999094891REMSYN094AAXX  08064 06660 43/// 82504 10074 20064 39489 40149 5//// 333 20063 3/005 55027 90768 93100;
0087066600999992011010807004+47383+008567FM-12+056999999V0202001N003619999999N9999999N1+00841+00661101521ADDMA1999999094951REMSYN060AAXX  08074 06660 43/// /2007 10084 20066 39495 40152 5////;
0109066600999992011010808004+47383+008567FM-12+056999999V0202201N000519999999N9999999N1+00741+00661101531ADDMA1999999094931REMSYN082AAXX  08084 06660 23/// /2201 10074 20066 39493 40153 5//// 333 553// 20014 69925;
0087066600999992011010809004+47383+008567FM-12+056999999V0201401N001519999999N9999999N1+00751+00611101461ADDMA1999999094871REMSYN060AAXX  08094 06660 43/// /1403 10075 20061 39487 40146 5////;
0087066600999992011010810004+47383+008567FM-12+056999999V0203201N000519999999N9999999N1+00751+00531101501ADDMA1999999094911REMSYN060AAXX  08104 06660 43/// /3201 10075 20053 39491 40150 5////;
0087066600999992011010811004+47383+008567FM-12+056999999V0202001N001019999999N9999999N1+01031+00691101401ADDMA1999999094881REMSYN060AAXX  08114 06660 43/// /2002 10103 20069 39488 40140 5////;
0113066600999992011010812004+47383+008567FM-12+056999999V0202301N001512200019N9999999N1+01211+00551101321ADDGF102991999999999999999999MA1999999094841REMSYN060AAXX  08124 06660 43/// 22303 10121 20055 39484 40132 5////;
0087066600999992011010813004+47383+008567FM-12+056999999V0202501N002119999999N9999999N1+01261+00541101271ADDMA1999999094811REMSYN060AAXX  08134 06660 43/// /2504 10126 20054 39481 40127 5////;
0087066600999992011010814004+47383+008567FM-12+056999999V0201901N001019999999N9999999N1+01191+00521101271ADDMA1999999094791REMSYN060AAXX  08144 06660 43/// /1902 10119 20052 39479 40127 5////;
0087066600999992011010815004+47383+008567FM-12+056999999V0202501N000519999999N9999999N1+01141+00591101321ADDMA1999999094831REMSYN060AAXX  08154 06660 43/// /2501 10114 20059 39483 40132 5////;
0087066600999992011010816004+47383+008567FM-12+056999999V0201701N000519999999N9999999N1+01041+00561101371ADDMA1999999094851REMSYN060AAXX  08164 06660 43/// /1701 10104 20056 39485 40137 5////;
0087066600999992011010817004+47383+008567FM-12+056999999V0201701N001519999999N9999999N1+00961+00501101351ADDMA1999999094811REMSYN060AAXX  08174 06660 43/// /1703 10096 20050 39481 40135 5////;
0113066600999992011010818004+47383+008567FM-12+056999999V0202501N000512200019N9999999N1+00841+00501101361ADDGF103991999999999999999999MA1999999094801REMSYN060AAXX  08184 06660 43/// 32501 10084 20050 39480 40136 5////;
0087066600999992011010819004+47383+008567FM-12+056999999V0202801N000519999999N9999999N1+00791+00461101371ADDMA1999999094791REMSYN060AAXX  08194 06660 43/// /2801 10079 20046 39479 40137 5////;
0087066600999992011010820004+47383+008567FM-12+056999999V0201301N000519999999N9999999N1+00621+00391101391ADDMA1999999094771REMSYN060AAXX  08204 06660 43/// /1301 10062 20039 39477 40139 5////;
0087066600999992011010821004+47383+008567FM-12+056999999V0200201N000519999999N9999999N1+00641+00291101361ADDMA1999999094751REMSYN060AAXX  08214 06660 43/// /0201 10064 20029 39475 40136 5////;
0087066600999992011010822004+47383+008567FM-12+056999999V0202001N000519999999N9999999N1+00731+00261101341ADDMA1999999094751REMSYN060AAXX  08224 06660 43/// /2001 10073 20026 39475 40134 5////;
0087066600999992011010823004+47383+008567FM-12+056999999V0201201N000519999999N9999999N1+00681+00161101311ADDMA1999999094711REMSYN060AAXX  08234 06660 43/// /1201 10068 20016 39471 40131 5////;
0087066600999992011010900004+47383+008567FM-12+056999999V0209999C000019999999N9999999N1+00611+00151101291ADDMA1999999094681REMSYN060AAXX  09004 06660 43/// /0000 10061 20015 39468 40129 5////;
0087066600999992011010901004+47383+008567FM-12+056999999V0202501N001519999999N9999999N1+00791+00131101301ADDMA1999999094731REMSYN060AAXX  09014 06660 43/// /2503 10079 20013 39473 40130 5////;
0087066600999992011010902004+47383+008567FM-12+056999999V0201701N002119999999N9999999N1+00761+00261101331ADDMA1999999094751REMSYN060AAXX  09024 06660 43/// /1704 10076 20026 39475 40133 5////;
0087066600999992011010903004+47383+008567FM-12+056999999V0201901N001019999999N9999999N1+00861+00251101271ADDMA1999999094721REMSYN060AAXX  09034 06660 43/// /1902 10086 20025 39472 40127 5////;
0087066600999992011010904004+47383+008567FM-12+056999999V0202501N005119999999N9999999N1+00951+00221101241ADDMA1999999094711REMSYN060AAXX  09044 06660 43/// /2510 10095 20022 39471 40124 5////;
0087066600999992011010905004+47383+008567FM-12+056999999V0201901N001519999999N9999999N1+00881+00221101241ADDMA1999999094691REMSYN060AAXX  09054 06660 43/// /1903 10088 20022 39469 40124 5////;
0153066600999992011010906004+47383+008567FM-12+056999999V0201701N001012200019N9999999N1+00751+00221101261ADDAL10600091GF103991999999999999999999GJ102649MA1999999094681REMSYN082AAXX  09064 06660 43/// 31702 10075 20022 39468 40126 5//// 333 55044 90768 93100;
0087066600999992011010907004+47383+008567FM-12+056999999V0201901N000519999999N9999999N1+00641+00191101301ADDMA1999999094691REMSYN060AAXX  09074 06660 43/// /1901 10064 20019 39469 40130 5////;
0103066600999992011010908004+47383+008567FM-12+056999999V0201901N001019999999N9999999N1+00671+00211101351ADDMA1999999094751REMSYN076AAXX  09084 06660 33/// /1902 10067 20021 39475 40135 5//// 333 553// 20018;
0103066600999992011010909004+47383+008567FM-12+056999999V0202801N001019999999N9999999N1+00771+00261101381ADDMA1999999094801REMSYN076AAXX  09094 06660 33/// /2802 10077 20026 39480 40138 5//// 333 553// 20126;
0140066600999992011010910004+47383+008567FM-12+056999999V0202701N001019999999N9999999N1+01011+00111101361ADDMA1999999094841MD1210151+9999OA149900361REMSYN088AAXX  09104 06660 33/// /2702 10101 20011 39484 40136 52015 333 55300 20403 91107 91204;
0140066600999992011010911004+47383+008567FM-12+056999999V0202601N002619999999N9999999N1+00971+00211101401ADDMA1999999094861MD1210111+9999OA149900621REMSYN088AAXX  09114 06660 33/// /2605 10097 20021 39486 40140 52011 333 55300 20367 91112 91207;
0166066600999992011010912004+47383+008567FM-12+056999999V0202901N002619999999N9999999N1+00971+00341101371ADDGF108991999999999999999999MA1999999094841MD1210041+9999OA149901131REMSYN088AAXX  09124 06660 33/// 82905 10097 20034 39484 40137 52004 333 55300 20320 91122 91210;
0140066600999992011010913004+47383+008567FM-12+056999999V0202901N001519999999N9999999N1+00891+00411101421ADDMA1999999094861MD1010021+9999OA149900571REMSYN088AAXX  09134 06660 33/// /2903 10089 20041 39486 40142 50002 333 55300 20212 91111 91205;
0087066600999992011010914004+47383+008567FM-12+056999999V0202701N002119999999N9999999N1+00821+00481101451ADDMA1999999094881REMSYN060AAXX  09144 06660 43/// /2704 10082 20048 39488 40145 5////;
0087066600999992011010915004+47383+008567FM-12+056999999V0203001N001019999999N9999999N1+00771+00491101501ADDMA1999999094911REMSYN060AAXX  09154 06660 43/// /3002 10077 20049 39491 40150 5////;
0140066600999992011010916004+47383+008567FM-12+056999999V0202601N003119999999N9999999N1+00781+00511101551ADDMA1999999094961MD1210101+9999OA149900671REMSYN088AAXX  09164 06660 33/// /2606 10078 20051 39496 40155 52010 333 55300 20025 91113 91206;
0146066600999992011010917004+47383+008567FM-12+056999999V0202501N002119999999N9999999N1+00701+00531101621ADDMA1999999095011MD1210131+9999OA149900671REMSYN094AAXX  09174 06660 23/// /2504 10070 20053 39501 40162 52013 333 55300 20000 69925 91113 91206;
0208066600999992011010918004+47383+008567FM-12+056999999V0202301N001519999999N9999999N1+00671+00551101671ADDAA112000891GF108991999999999999999999KA1120M+01011MA1999999095051MD1110141+9999OA149900721REMSYN106AAXX  09184 06660 03/// 82303 10067 20055 39505 40167 51014 69972 333 10101 55300 20000 69955 91114 91207;
0146066600999992011010919004+47383+008567FM-12+056999999V0202501N001519999999N9999999N1+00661+00541101711ADDMA1999999095081MD1110121+9999OA149900721REMSYN094AAXX  09194 06660 23/// /2503 10066 20054 39508 40171 51012 333 55300 20000 69935 91114 91206;
0146066600999992011010920004+47383+008567FM-12+056999999V0202301N003119999999N9999999N1+00611+00481101801ADDMA1999999095151MD1310141+9999OA149900671REMSYN094AAXX  09204 06660 23/// /2306 10061 20048 39515 40180 53014 333 55300 20000 69965 91113 91206;
0146066600999992011010921004+47383+008567FM-12+056999999V0202201N003119999999N9999999N1+00581+00461101831ADDMA1999999095171MD1110121+9999OA149900721REMSYN094AAXX  09214 06660 23/// /2206 10058 20046 39517 40183 51012 333 55300 20000 69985 91114 91206;
0146066600999992011010922004+47383+008567FM-12+056999999V0202201N003119999999N9999999N1+00571+00391101871ADDMA1999999095211MD1110131+9999OA149900621REMSYN094AAXX  09224 06660 23/// /2206 10057 20039 39521 40187 51013 333 55300 20000 60015 91112 91206;
0146066600999992011010923004+47383+008567FM-12+056999999V0202401N003619999999N9999999N1+00511+00381101941ADDMA1999999095261MD1310111+9999OA149900671REMSYN094AAXX  09234 06660 23/// /2407 10051 20038 39526 40194 53011 333 55300 20000 60025 91113 91207;
0163066600999992011011000004+47383+008567FM-12+056999999V0202401N003119999999N9999999N1+00441+00321101991ADDAA106007191MA1999999095291MD1110121+9999OA149900721REMSYN100AAXX  10004 06660 03/// /2406 10044 20032 39529 40199 51012 60071 333 55300 20000 60025 91114 91207;
0146066600999992011011001004+47383+008567FM-12+056999999V0202301N001519999999N9999999N1+00401+00301102041ADDMA1999999095331MD1110121+9999OA149900721REMSYN094AAXX  10014 06660 23/// /2303 10040 20030 39533 40204 51012 333 55300 20000 60025 91114 91207;
0109066600999992011011002004+47383+008567FM-12+056999999V0201801N001019999999N9999999N1+00371+00281102081ADDMA1999999095361REMSYN082AAXX  10024 06660 23/// /1802 10037 20028 39536 40208 5//// 333 553// 20000 60015;
0087066600999992011011003004+47383+008567FM-12+056999999V0201701N000519999999N9999999N1+00391+00271102101ADDMA1999999095381REMSYN060AAXX  10034 06660 43/// /1701 10039 20027 39538 40210 5////;
0109066600999992011011004004+47383+008567FM-12+056999999V0201801N000519999999N9999999N1+00371+00301102101ADDMA1999999095381REMSYN082AAXX  10044 06660 23/// /1801 10037 20030 39538 40210 5//// 333 553// 20000 69935;
0146066600999992011011005004+47383+008567FM-12+056999999V0200301N002119999999N9999999N1+00351+00281102121ADDMA1999999095391MD1219999+9999OA149900411REMSYN094AAXX  10054 06660 23/// /0304 10035 20028 39539 40212 52/// 333 55300 20000 69945 91108 91204;
0207066600999992011011006004+47383+008567FM-12+056999999V0200401N003619999999N9999999N1+00271+00181102161ADDAA124011491AL13001191GF108991999999999999999999GJ100009IA2999+00309KA1999N+00301MA1999999095411REMSYN100AAXX  10064 06660 43/// 80407 10027 20018 39541 40216 5//// 333 20030 3/003 55000 70115 90768 93100;
0140066600999992011011007004+47383+008567FM-12+056999999V0200401N002619999999N9999999N1+00241+00151102201ADDMA1999999095441MD1210061+9999OA149900621REMSYN088AAXX  10074 06660 33/// /0405 10024 20015 39544 40220 52006 333 55300 20000 91112 91207;
0087066600999992011011008004+47383+008567FM-12+056999999V0200401N002619999999N9999999N1+00231+00151102231ADDMA1999999095461REMSYN060AAXX  10084 06660 43/// /0405 10023 20015 39546 40223 5////;
0087066600999992011011009004+47383+008567FM-12+056999999V0200401N003119999999N9999999N1+00211+00141102271ADDMA1999999095501REMSYN060AAXX  10094 06660 43/// /0406 10021 20014 39550 40227 5////;
0140066600999992011011010004+47383+008567FM-12+056999999V0200501N002619999999N9999999N1+00231+00161102261ADDMA1999999095491MD1210051+9999OA149900571REMSYN088AAXX  10104 06660 33/// /0505 10023 20016 39549 40226 52005 333 55300 20169 91111 91207;
0140066600999992011011011004+47383+008567FM-12+056999999V0200401N002619999999N9999999N1+00241+00151102221ADDMA1999999095461MD1819999+9999OA149900571REMSYN088AAXX  10114 06660 33/// /0405 10024 20015 39546 40222 58/// 333 55300 20277 91111 91207;
0129066600999992011011012004+47383+008567FM-12+056999999V0200401N002119999999N9999999N1+00281+00151102141ADDGF108991999999999999999999MA1999999095391REMSYN076AAXX  10124 06660 33/// 80404 10028 20015 39539 40214 5//// 333 553// 20342;
0087066600999992011011013004+47383+008567FM-12+056999999V0200301N002619999999N9999999N1+00291+00161102101ADDMA1999999095361REMSYN060AAXX  10134 06660 43/// /0305 10029 20016 39536 40210 5////;
0087066600999992011011014004+47383+008567FM-12+056999999V0200401N002119999999N9999999N1+00281+00151102041ADDMA1999999095301REMSYN060AAXX  10144 06660 43/// /0404 10028 20015 39530 40204 5////;
0087066600999992011011015004+47383+008567FM-12+056999999V0200401N001519999999N9999999N1+00261+00121102051ADDMA1999999095301REMSYN060AAXX  10154 06660 43/// /0403 10026 20012 39530 40205 5////;
0087066600999992011011016004+47383+008567FM-12+056999999V0200301N001519999999N9999999N1+00241+00101102011ADDMA1999999095261REMSYN060AAXX  10164 06660 43/// /0303 10024 20010 39526 40201 5////;
0087066600999992011011017004+47383+008567FM-12+056999999V0200301N002119999999N9999999N1+00241+00091101991ADDMA1999999095241REMSYN060AAXX  10174 06660 43/// /0304 10024 20009 39524 40199 5////;
0136066600999992011011018004+47383+008567FM-12+056999999V0200401N002619999999N9999999N1+00221+00101101961ADDGF108991999999999999999999KA1999M+00301MA1999999095211REMSYN070AAXX  10184 06660 43/// 80405 10022 20010 39521 40196 5//// 333 10030;
0087066600999992011011019004+47383+008567FM-12+056999999V0200501N003119999999N9999999N1+00211+00091101931ADDMA1999999095181REMSYN060AAXX  10194 06660 43/// /0506 10021 20009 39518 40193 5////;
0087066600999992011011020004+47383+008567FM-12+056999999V0200501N001019999999N9999999N1+00191+00081101891ADDMA1999999095141REMSYN060AAXX  10204 06660 43/// /0502 10019 20008 39514 40189 5////;
0087066600999992011011021004+47383+008567FM-12+056999999V0200401N001519999999N9999999N1+00191+00081101891ADDMA1999999095141REMSYN060AAXX  10214 06660 43/// /0403 10019 20008 39514 40189 5////;
0087066600999992011011022004+47383+008567FM-12+056999999V0200501N001519999999N9999999N1+00181+00081101901ADDMA1999999095141REMSYN060AAXX  10224 06660 43/// /0503 10018 20008 39514 40190 5////;
0087066600999992011011023004+47383+008567FM-12+056999999V0200601N001519999999N9999999N1+00181+00081101851ADDMA1999999095101REMSYN060AAXX  10234 06660 43/// /0603 10018 20008 39510 40185 5////;
0087066600999992011011100004+47383+008567FM-12+056999999V0202201N001519999999N9999999N1+00211+00121101791ADDMA1999999095051REMSYN060AAXX  11004 06660 43/// /2203 10021 20012 39505 40179 5////;
0087066600999992011011101004+47383+008567FM-12+056999999V0201801N000519999999N9999999N1+00211+00121101741ADDMA1999999095001REMSYN060AAXX  11014 06660 43/// /1801 10021 20012 39500 40174 5////;
0087066600999992011011102004+47383+008567FM-12+056999999V0201701N000519999999N9999999N1+00231+00111101681ADDMA1999999094951REMSYN060AAXX  11024 06660 43/// /1701 10023 20011 39495 40168 5////;
0087066600999992011011103004+47383+008567FM-12+056999999V0202101N002119999999N9999999N1+00281+00111101631ADDMA1999999094921REMSYN060AAXX  11034 06660 43/// /2104 10028 20011 39492 40163 5////;
0087066600999992011011104004+47383+008567FM-12+056999999V0202001N001519999999N9999999N1+00311+00111101571ADDMA1999999094871REMSYN060AAXX  11044 06660 43/// /2003 10031 20011 39487 40157 5////;
0087066600999992011011105004+47383+008567FM-12+056999999V0201901N002119999999N9999999N1+00331+00101101501ADDMA1999999094811REMSYN060AAXX  11054 06660 43/// /1904 10033 20010 39481 40150 5////;
0153066600999992011011106004+47383+008567FM-12+056999999V0202001N003119999999N9999999N1+00321+00091101461ADDAL10600091GF108991999999999999999999GJ100009MA1999999094771REMSYN082AAXX  11064 06660 43/// 82006 10032 20009 39477 40146 5//// 333 55000 90768 93100;
0140066600999992011011107004+47383+008567FM-12+056999999V0202101N002619999999N9999999N1+00331+00051101411ADDMA1999999094721MD1819999+9999OA149900571REMSYN088AAXX  11074 06660 33/// /2105 10033 20005 39472 40141 58/// 333 55300 20000 91111 91206;
0103066600999992011011108004+47383+008567FM-12+056999999V0202101N002619999999N9999999N1+00311+00041101391ADDMA1999999094701REMSYN076AAXX  11084 06660 33/// /2105 10031 20004 39470 40139 5//// 333 553// 20050;
0087066600999992011011109004+47383+008567FM-12+056999999V0202201N001519999999N9999999N1+00331+00091101341ADDMA1999999094661REMSYN060AAXX  11094 06660 43/// /2203 10033 20009 39466 40134 5////;
0140066600999992011011110004+47383+008567FM-12+056999999V0201801N003119999999N9999999N1+00381+00081101291ADDMA1999999094621MD1710101+9999OA149900511REMSYN088AAXX  11104 06660 33/// /1806 10038 20008 39462 40129 57010 333 55300 20450 91110 91206;
0140066600999992011011111004+47383+008567FM-12+056999999V0202001N002119999999N9999999N1+00421+00071101201ADDMA1999999094551MD1710151+9999OA149900511REMSYN088AAXX  11114 06660 33/// /2004 10042 20007 39455 40120 57015 333 55300 20587 91110 91206;
0103066600999992011011112004+47383+008567FM-12+056999999V0202201N001519999999N9999999N1+00421+00061101131ADDMA1999999094481REMSYN076AAXX  11124 06660 33/// /2203 10042 20006 39448 40113 5//// 333 553// 20558;
0140066600999992011011113004+47383+008567FM-12+056999999V0201901N001519999999N9999999N1+00441+00081101081ADDMA1999999094441MD1610181+9999OA149900461REMSYN088AAXX  11134 06660 33/// /1903 10044 20008 39444 40108 56018 333 55300 20580 91109 91205;
0087066600999992011011114004+47383+008567FM-12+056999999V0202101N001519999999N9999999N1+00421+00091101121ADDMA1999999094471REMSYN060AAXX  11144 06660 43/// /2103 10042 20009 39447 40112 5////;
0087066600999992011011115004+47383+008567FM-12+056999999V0202501N003119999999N9999999N1+00381+00141101221ADDMA1999999094561REMSYN060AAXX  11154 06660 43/// /2506 10038 20014 39456 40122 5////;
0146066600999992011011116004+47383+008567FM-12+056999999V0202401N002619999999N9999999N1+00331+00191101311ADDMA1999999094631MD1210191+9999OA149900671REMSYN094AAXX  11164 06660 23/// /2405 10033 20019 39463 40131 52019 333 55300 20011 60015 91113 91207;
0146066600999992011011117004+47383+008567FM-12+056999999V0202101N002619999999N9999999N1+00271+00181101411ADDMA1999999094711MD1310221+9999OA149900671REMSYN094AAXX  11174 06660 23/// /2105 10027 20018 39471 40141 53022 333 55300 20000 69965 91113 91207;
0182066600999992011011118004+47383+008567FM-12+056999999V0202101N001519999999N9999999N1+00231+00141101511ADDAA112003091KA1120M+00441MA1999999094791MD1210231+9999OA149900671REMSYN106AAXX  11184 06660 03/// /2103 10023 20014 39479 40151 52023 60032 333 10044 55300 20000 69935 91113 91207;
0140066600999992011011119004+47383+008567FM-12+056999999V0201901N001519999999N9999999N1+00241+00121101591ADDMA1999999094871MD1310241+9999OA149900511REMSYN088AAXX  11194 06660 33/// /1903 10024 20012 39487 40159 53024 333 55300 20000 91110 91206;
0146066600999992011011120004+47383+008567FM-12+056999999V0201801N002119999999N9999999N1+00281+00181101661ADDMA1999999094941MD1310231+9999OA149900361REMSYN094AAXX  11204 06660 23/// /1804 10028 20018 39494 40166 53023 333 55300 20000 69915 91107 91204;
0140066600999992011011121004+47383+008567FM-12+056999999V0201901N002619999999N9999999N1+00341+00181101741ADDMA1999999095031MD1210241+9999OA149900671REMSYN088AAXX  11214 06660 33/// /1905 10034 20018 39503 40174 52024 333 55300 20000 91113 91207;
0140066600999992011011122004+47383+008567FM-12+056999999V0202101N002119999999N9999999N1+00351+00221101811ADDMA1999999095101MD1310231+9999OA149900461REMSYN088AAXX  11224 06660 33/// /2104 10035 20022 39510 40181 53023 333 55300 20000 91109 91205;
0146066600999992011011123004+47383+008567FM-12+056999999V0202201N002619999999N9999999N1+00381+00241101871ADDMA1999999095161MD1110221+9999OA149900511REMSYN094AAXX  11234 06660 23/// /2205 10038 20024 39516 40187 51022 333 55300 20000 69925 91110 91205;
0163066600999992011011200004+47383+008567FM-12+056999999V0202101N002619999999N9999999N1+00401+00221101881ADDAA106000391MA1999999095181MD1210151+9999OA149900671REMSYN100AAXX  12004 06660 03/// /2105 10040 20022 39518 40188 52015 69931 333 55300 20000 60005 91113 91207;
0140066600999992011011201004+47383+008567FM-12+056999999V0202301N003119999999N9999999N1+00451+00211101901ADDMA1999999095211MD1210111+9999OA149900621REMSYN088AAXX  12014 06660 33/// /2306 10045 20021 39521 40190 52011 333 55300 20000 91112 91207;
0103066600999992011011202004+47383+008567FM-12+056999999V0202501N003119999999N9999999N1+00461+00241102001ADDMA1999999095301REMSYN076AAXX  12024 06660 33/// /2506 10046 20024 39530 40200 5//// 333 553// 20000;
0087066600999992011011203004+47383+008567FM-12+056999999V0202501N005119999999N9999999N1+00431+00241102081ADDMA1999999095371REMSYN060AAXX  12034 06660 43/// /2510 10043 20024 39537 40208 5////;
0087066600999992011011204004+47383+008567FM-12+056999999V0202501N005119999999N9999999N1+00481+00241102101ADDMA1999999095401REMSYN060AAXX  12044 06660 43/// /2510 10048 20024 39540 40210 5////;
0109066600999992011011205004+47383+008567FM-12+056999999V0202701N003619999999N9999999N1+00421+00301102221ADDMA1999999095501REMSYN082AAXX  12054 06660 23/// /2707 10042 20030 39550 40222 5//// 333 553// 20000 69915;
0207066600999992011011206004+47383+008567FM-12+056999999V0202601N003119999999N9999999N1+00381+00271102301ADDAA124003391AL11800391GF107991999999999999999999GJ100069IA2999+00209KA1999N+00231MA1999999095571REMSYN100AAXX  12064 06660 43/// 72606 10038 20027 39557 40230 5//// 333 20023 3/002 55001 70033 90768 93100;
0140066600999992011011207004+47383+008567FM-12+056999999V0202501N004119999999N9999999N1+00391+00251102341ADDMA1999999095611MD1210211+9999OA149900881REMSYN088AAXX  12074 06660 33/// /2508 10039 20025 39561 40234 52021 333 55300 20000 91117 91209;
0087066600999992011011208004+47383+008567FM-12+056999999V0202501N002119999999N9999999N1+00401+00231102361ADDMA1999999095631REMSYN060AAXX  12084 06660 43/// /2504 10040 20023 39563 40236 5////;
0087066600999992011011209004+47383+008567FM-12+056999999V0202701N003119999999N9999999N1+00421+00241102391ADDMA1999999095661REMSYN060AAXX  12094 06660 43/// /2706 10042 20024 39566 40239 5////;
0140066600999992011011210004+47383+008567FM-12+056999999V0202501N003119999999N9999999N1+00451+00211102391ADDMA1999999095671MD1219999+9999OA149900571REMSYN088AAXX  12104 06660 33/// /2506 10045 20021 39567 40239 52/// 333 55300 20209 91111 91206;
0140066600999992011011211004+47383+008567FM-12+056999999V0202401N002619999999N9999999N1+00521+00241102341ADDMA1999999095641MD1010011+9999OA149900621REMSYN088AAXX  12114 06660 33/// /2405 10052 20024 39564 40234 50001 333 55300 20277 91112 91206;
0113066600999992011011212004+47383+008567FM-12+056999999V0202301N002119999999N9999999N1+00541+00251102321ADDGF108991999999999999999999MA1999999095621REMSYN060AAXX  12124 06660 43/// 82304 10054 20025 39562 40232 5////;
0087066600999992011011213004+47383+008567FM-12+056999999V0202301N002119999999N9999999N1+00571+00211102271ADDMA1999999095581REMSYN060AAXX  12134 06660 43/// /2304 10057 20021 39558 40227 5////;
0087066600999992011011214004+47383+008567FM-12+056999999V0202501N005119999999N9999999N1+00571+00161102291ADDMA1999999095601REMSYN060AAXX  12144 06660 43/// /2510 10057 20016 39560 40229 5////;
0087066600999992011011215004+47383+008567FM-12+056999999V0202301N005119999999N9999999N1+00511+00191102301ADDMA1999999095601REMSYN060AAXX  12154 06660 43/// /2310 10051 20019 39560 40230 5////;
0146066600999992011011216004+47383+008567FM-12+056999999V0202301N004119999999N9999999N1+00471+00261102321ADDMA1999999095611MD1210031+9999OA149901031REMSYN094AAXX  12164 06660 23/// /2308 10047 20026 39561 40232 52003 333 55300 20007 69955 91120 91210;
0146066600999992011011217004+47383+008567FM-12+056999999V0202101N003619999999N9999999N1+00501+00231102281ADDMA1999999095581MD1810021+9999OA149901031REMSYN094AAXX  12174 06660 23/// /2107 10050 20023 39558 40228 58002 333 55300 20000 69915 91120 91210;
0208066600999992011011218004+47383+008567FM-12+056999999V0202301N002619999999N9999999N1+00531+00261102311ADDAA112000891GF108991999999999999999999KA1120M+00591MA1999999095611MD1510011+9999OA149901031REMSYN106AAXX  12184 06660 03/// 82305 10053 20026 39561 40231 55001 69982 333 10059 55300 20000 60005 91120 91210;
0146066600999992011011219004+47383+008567FM-12+056999999V0202201N002619999999N9999999N1+00511+00291102291ADDMA1999999095591MD1710021+9999OA149900821REMSYN094AAXX  12194 06660 23/// /2205 10051 20029 39559 40229 57002 333 55300 20000 69915 91116 91207;
0140066600999992011011220004+47383+008567FM-12+056999999V0202101N003619999999N9999999N1+00571+00251102281ADDMA1999999095591MD1010011+9999OA149900721REMSYN088AAXX  12204 06660 33/// /2107 10057 20025 39559 40228 50001 333 55300 20000 91114 91207;
0146066600999992011011221004+47383+008567FM-12+056999999V0202101N003119999999N9999999N1+00531+00331102271ADDMA1999999095571MD1710041+9999OA149901031REMSYN094AAXX  12214 06660 23/// /2106 10053 20033 39557 40227 57004 333 55300 20000 69915 91120 91210;
0146066600999992011011222004+47383+008567FM-12+056999999V0202201N002619999999N9999999N1+00481+00401102281ADDMA1999999095571MD1710021+9999OA149900771REMSYN094AAXX  12224 06660 23/// /2205 10048 20040 39557 40228 57002 333 55300 20000 69985 91115 91208;
0146066600999992011011223004+47383+008567FM-12+056999999V0202201N002619999999N9999999N1+00491+00401102281ADDMA1999999095571MD1010021+9999OA149900571REMSYN094AAXX  12234 06660 23/// /2205 10049 20040 39557 40228 50002 333 55300 20000 69945 91111 91207;
0163066600999992011011300004+47383+008567FM-12+056999999V0202301N003619999999N9999999N1+00561+00461102241ADDAA106003091MA1999999095551MD1710021+9999OA149901031REMSYN100AAXX  13004 06660 03/// /2307 10056 20046 39555 40224 57002 60031 333 55300 20000 60015 91120 91210;
0146066600999992011011301004+47383+008567FM-12+056999999V0201801N002619999999N9999999N1+00611+00491102151ADDMA1999999095481MD1810091+9999OA149900931REMSYN094AAXX  13014 06660 23/// /1805 10061 20049 39548 40215 58009 333 55300 20000 69965 91118 91207;
0146066600999992011011302004+47383+008567FM-12+056999999V0202101N002119999999N9999999N1+00621+00531102161ADDMA1999999095491MD1719999+9999OA149900771REMSYN094AAXX  13024 06660 23/// /2104 10062 20053 39549 40216 57/// 333 55300 20000 69935 91115 91205;
0087066600999992011011303004+47383+008567FM-12+056999999V0202401N003119999999N9999999N1+00731+00581102101ADDMA1999999095461REMSYN060AAXX  13034 06660 43/// /2406 10073 20058 39546 40210 5////;
0146066600999992011011304004+47383+008567FM-12+056999999V0202401N004619999999N9999999N1+00781+00641102071ADDMA1999999095451MD1719999+9999OA149901241REMSYN094AAXX  13044 06660 23/// /2409 10078 20064 39545 40207 57/// 333 55300 20000 69965 91124 91209;
0109066600999992011011305004+47383+008567FM-12+056999999V0202501N001519999999N9999999N1+00701+00621102131ADDMA1999999095481REMSYN082AAXX  13054 06660 23/// /2503 10070 20062 39548 40213 5//// 333 553// 20000 69995;
0278066600999992011011306004+47383+008567FM-12+056999999V0202301N005119999999N9999999N1+00851+00661102091ADDAA112006191AL13600691AL29900091GF108991999999999999999999GJ100009IA2999+00409KA1999N+00471MA1999999095481MD1210021+9999OA149901291REMSYN136AAXX  13064 06660 03/// 82310 10085 20066 39548 40209 52002 60062 333 20047 3/004 55000 55300 20000 69945 70066 90768 93100 91125 91210;
0087066600999992011011307004+47383+008567FM-12+056999999V0202401N006219999999N9999999N1+00881+00641102061ADDMA1999999095461REMSYN060AAXX  13074 06660 43/// /2412 10088 20064 39546 40206 5////;
0087066600999992011011308004+47383+008567FM-12+056999999V0202301N005719999999N9999999N1+00931+00661102081ADDMA1999999095491REMSYN060AAXX  13084 06660 43/// /2311 10093 20066 39549 40208 5////;
0087066600999992011011309004+47383+008567FM-12+056999999V0202401N007219999999N9999999N1+00941+00681102071ADDMA1999999095481REMSYN060AAXX  13094 06660 43/// /2414 10094 20068 39548 40207 5////;
0087066600999992011011310004+47383+008567FM-12+056999999V0202601N003119999999N9999999N1+00871+00701102171ADDMA1999999095561REMSYN060AAXX  13104 06660 43/// /2606 10087 20070 39556 40217 5////;
0087066600999992011011311004+47383+008567FM-12+056999999V0202501N005119999999N9999999N1+00931+00671102131ADDMA1999999095541REMSYN060AAXX  13114 06660 43/// /2510 10093 20067 39554 40213 5////;
0113066600999992011011312004+47383+008567FM-12+056999999V0202501N005719999999N9999999N1+01041+00651102021ADDGF107991999999999999999999MA1999999095461REMSYN060AAXX  13124 06660 43/// 72511 10104 20065 39546 40202 5////;
0087066600999992011011313004+47383+008567FM-12+056999999V0202501N007219999999N9999999N1+01121+00631101961ADDMA1999999095421REMSYN060AAXX  13134 06660 43/// /2514 10112 20063 39542 40196 5////;
0087066600999992011011314004+47383+008567FM-12+056999999V0202401N007719999999N9999999N1+01091+00611101991ADDMA1999999095441REMSYN060AAXX  13144 06660 43/// /2415 10109 20061 39544 40199 5////;
0087066600999992011011315004+47383+008567FM-12+056999999V0202401N004119999999N9999999N1+01081+00601102021ADDMA1999999095471REMSYN060AAXX  13154 06660 43/// /2408 10108 20060 39547 40202 5////;
0087066600999992011011316004+47383+008567FM-12+056999999V0202401N005719999999N9999999N1+01101+00621102031ADDMA1999999095481REMSYN060AAXX  13164 06660 43/// /2411 10110 20062 39548 40203 5////;
0140066600999992011011317004+47383+008567FM-12+056999999V0202501N003619999999N9999999N1+01071+00621102041ADDMA1999999095491MD1210051+9999OA149901291REMSYN088AAXX  13174 06660 33/// /2507 10107 20062 39549 40204 52005 333 55300 20000 91125 91212;
0208066600999992011011318004+47383+008567FM-12+056999999V0202501N003619999999N9999999N1+00991+00691102091ADDAA112002091GF108991999999999999999999KA1120M+01151MA1999999095511MD1210041+9999OA149901601REMSYN106AAXX  13184 06660 03/// 82507 10099 20069 39551 40209 52004 60022 333 10115 55300 20000 60005 91131 91215;
0140066600999992011011319004+47383+008567FM-12+056999999V0202501N005719999999N9999999N1+01001+00701102081ADDMA1999999095511MD1210031+9999OA149901181REMSYN088AAXX  13194 06660 33/// /2511 10100 20070 39551 40208 52003 333 55300 20000 91123 91211;
0140066600999992011011320004+47383+008567FM-12+056999999V0202601N003619999999N9999999N1+01001+00681102111ADDMA1999999095531MD1210041+9999OA149901181REMSYN088AAXX  13204 06660 33/// /2607 10100 20068 39553 40211 52004 333 55300 20000 91123 91212;
0140066600999992011011321004+47383+008567FM-12+056999999V0202701N003119999999N9999999N1+00981+00681102111ADDMA1999999095531MD1210021+9999OA149901291REMSYN088AAXX  13214 06660 33/// /2706 10098 20068 39553 40211 52002 333 55300 20000 91125 91212;
0146066600999992011011322004+47383+008567FM-12+056999999V0202501N003119999999N9999999N1+00941+00701102131ADDMA1999999095541MD1210031+9999OA149900671REMSYN094AAXX  13224 06660 23/// /2506 10094 20070 39554 40213 52003 333 55300 20000 69915 91113 91207;
0140066600999992011011323004+47383+008567FM-12+056999999V0202301N003619999999N9999999N1+00971+00651102121ADDMA1999999095541MD1310011+9999OA149900771REMSYN088AAXX  13234 06660 33/// /2307 10097 20065 39554 40212 53001 333 55300 20000 91115 91209;
0182066600999992011011400004+47383+008567FM-12+056999999V0202301N002619999999N9999999N1+00991+00631102121ADDAA106000091MA1999999095541MD1210011+9999OA149901441REMSYN100AAXX  14004 06660 03/// /2305 10099 20063 39554 40212 52001 69911 333 55300 20000 60005 91128 91215;EQDQ01  00002PRCP06
0140066600999992011011401004+47383+008567FM-12+056999999V0202201N002619999999N9999999N1+01011+00611102131ADDMA1999999095561MD1310021+9999OA149900721REMSYN088AAXX  14014 06660 33/// /2205 10101 20061 39556 40213 53002 333 55300 20000 91114 91208;
0103066600999992011011402004+47383+008567FM-12+056999999V0202301N003119999999N9999999N1+01011+00601102171ADDMA1999999095591REMSYN076AAXX  14024 06660 33/// /2306 10101 20060 39559 40217 5//// 333 553// 20000;
0140066600999992011011403004+47383+008567FM-12+056999999V0202401N003619999999N9999999N1+01001+00601102171ADDMA1999999095591MD1110051+9999OA149900771REMSYN088AAXX  14034 06660 33/// /2407 10100 20060 39559 40217 51005 333 55300 20000 91115 91209;
0140066600999992011011404004+47383+008567FM-12+056999999V0202301N002119999999N9999999N1+00941+00591102171ADDMA1999999095581MD1010021+9999OA149900671REMSYN088AAXX  14044 06660 33/// /2304 10094 20059 39558 40217 50002 333 55300 20000 91113 91208;
0140066600999992011011405004+47383+008567FM-12+056999999V0202301N001519999999N9999999N1+00881+00561102181ADDMA1999999095571MD1710021+9999OA149900511REMSYN088AAXX  14054 06660 33/// /2303 10088 20056 39557 40218 57002 333 55300 20000 91110 91206;
0297066600999992011011406004+47383+008567FM-12+056999999V0202401N003119999999N9999999N1+00861+00571102191ADDAA112000091AL10600291AL29900091GF106991999999999999999999GJ100129IA2999+00709KA1999N+00851MA1999999095581MD1510011+9999OA149901181REMSYN136AAXX  14064 06660 03/// 62406 10086 20057 39558 40219 55001 69912 333 20085 3/007 55002 55300 20000 60005 70021 90768 93100 91123 91212;EQDQ01  00002PRCP12
0140066600999992011011407004+47383+008567FM-12+056999999V0202301N005119999999N9999999N1+01001+00411102191ADDMA1999999095611MD1210031+9999OA149900931REMSYN088AAXX  14074 06660 33/// /2310 10100 20041 39561 40219 52003 333 55300 20000 91118 91210;
0087066600999992011011408004+47383+008567FM-12+056999999V0202301N004119999999N9999999N1+01001+00411102191ADDMA1999999095611REMSYN060AAXX  14084 06660 43/// /2308 10100 20041 39561 40219 5////;
0087066600999992011011409004+47383+008567FM-12+056999999V0202401N004619999999N9999999N1+01001+00431102181ADDMA1999999095601REMSYN060AAXX  14094 06660 43/// /2409 10100 20043 39560 40218 5////;
0087066600999992011011410004+47383+008567FM-12+056999999V0202501N004619999999N9999999N1+01001+00411102161ADDMA1999999095581REMSYN060AAXX  14104 06660 43/// /2509 10100 20041 39558 40216 5////;
0140066600999992011011411004+47383+008567FM-12+056999999V0202301N003619999999N9999999N1+01061+00411102121ADDMA1999999095561MD1710051+9999OA149900981REMSYN088AAXX  14114 06660 33/// /2307 10106 20041 39556 40212 57005 333 55300 20612 91119 91210;
0166066600999992011011412004+47383+008567FM-12+056999999V0202801N002119999999N9999999N1+01011+00471102091ADDGF107991999999999999999999MA1999999095521MD1710081+9999OA149900981REMSYN088AAXX  14124 06660 33/// 72804 10101 20047 39552 40209 57008 333 55300 20450 91119 91210;
0140066600999992011011413004+47383+008567FM-12+056999999V0202901N001519999999N9999999N1+00981+00541102081ADDMA1999999095501MD1710081+9999OA149900621REMSYN088AAXX  14134 06660 33/// /2903 10098 20054 39550 40208 57008 333 55300 20353 91112 91207;
0103066600999992011011414004+47383+008567FM-12+056999999V0203001N001519999999N9999999N1+00981+00501102051ADDMA1999999095471REMSYN076AAXX  14144 06660 33/// /3003 10098 20050 39547 40205 5//// 333 553// 20338;
0140066600999992011011415004+47383+008567FM-12+056999999V0202701N001019999999N9999999N1+00961+00491102051ADDMA1999999095471MD1710051+9999OA149900981REMSYN088AAXX  14154 06660 33/// /2702 10096 20049 39547 40205 57005 333 55300 20158 91119 91210;
0140066600999992011011416004+47383+008567FM-12+056999999V0202101N001519999999N9999999N1+00931+00381102021ADDMA1999999095431MD1710071+9999OA149900361REMSYN088AAXX  14164 06660 33/// /2103 10093 20038 39543 40202 57007 333 55300 20086 91107 91203;
0140066600999992011011417004+47383+008567FM-12+056999999V0201801N001019999999N9999999N1+00731+00421102041ADDMA1999999095411MD1710061+9999OA149900361REMSYN088AAXX  14174 06660 33/// /1802 10073 20042 39541 40204 57006 333 55300 20000 91107 91203;
0185066600999992011011418004+47383+008567FM-12+056999999V0201801N000519999999N9999999N1+00601+00381102021ADDGF106991999999999999999999KA1120M+01061MA1999999095361MD1810111+9999OA149900981REMSYN094AAXX  14184 06660 33/// 61801 10060 20038 39536 40202 58011 333 10106 55300 20000 91119 91210;
0140066600999992011011419004+47383+008567FM-12+056999999V0202501N000519999999N9999999N1+00591+00381102021ADDMA1999999095351MD1710081+9999OA149900151REMSYN088AAXX  14194 06660 33/// /2501 10059 20038 39535 40202 57008 333 55300 20000 91103 91202;
0140066600999992011011420004+47383+008567FM-12+056999999V0202201N001019999999N9999999N1+00661+00421102001ADDMA1999999095351MD1710061+9999OA149900261REMSYN088AAXX  14204 06660 33/// /2202 10066 20042 39535 40200 57006 333 55300 20000 91105 91203;
0140066600999992011011421004+47383+008567FM-12+056999999V0202401N002119999999N9999999N1+00661+00391102071ADDMA1999999095421MD1210061+9999OA149900511REMSYN088AAXX  14214 06660 33/// /2404 10066 20039 39542 40207 52006 333 55300 20000 91110 91204;
0140066600999992011011422004+47383+008567FM-12+056999999V0202401N002119999999N9999999N1+00741+00411102151ADDMA1999999095511MD1210161+9999OA149900511REMSYN088AAXX  14224 06660 33/// /2404 10074 20041 39551 40215 52016 333 55300 20000 91110 91204;
0140066600999992011011423004+47383+008567FM-12+056999999V0202301N004619999999N9999999N1+00821+00421102141ADDMA1999999095521MD1210171+9999OA149901181REMSYN088AAXX  14234 06660 33/// /2309 10082 20042 39552 40214 52017 333 55300 20000 91123 91212;
0140066600999992011011500004+47383+008567FM-12+056999999V0202501N007719999999N9999999N1+00851+00371102211ADDMA1999999095591MD1210171+9999OA149901441REMSYN088AAXX  15004 06660 33/// /2515 10085 20037 39559 40221 52017 333 55300 20000 91128 91215;
0146066600999992011011501004+47383+008567FM-12+056999999V0202501N004119999999N9999999N1+00771+00451102321ADDMA1999999095681MD1210171+9999OA149901441REMSYN094AAXX  15014 06660 23/// /2508 10077 20045 39568 40232 52017 333 55300 20000 69975 91128 91215;
0146066600999992011011502004+47383+008567FM-12+056999999V0202401N005119999999N9999999N1+00691+00531102421ADDMA1999999095751MD1219999+9999OA149901341REMSYN094AAXX  15024 06660 23/// /2410 10069 20053 39575 40242 52/// 333 55300 20000 60025 91126 91213;
0109066600999992011011503004+47383+008567FM-12+056999999V0202501N005119999999N9999999N1+00711+00561102501ADDMA1999999095831REMSYN082AAXX  15034 06660 23/// /2510 10071 20056 39583 40250 5//// 333 553// 20000 69925;
0146066600999992011011504004+47383+008567FM-12+056999999V0202501N004619999999N9999999N1+00641+00491102581ADDMA1999999095891MD1210211+9999OA149901241REMSYN094AAXX  15044 06660 23/// /2509 10064 20049 39589 40258 52021 333 55300 20000 69915 91124 91211;
0146066600999992011011505004+47383+008567FM-12+056999999V0202701N002619999999N9999999N1+00611+00391102721ADDMA1999999096011MD1310261+9999OA149901081REMSYN094AAXX  15054 06660 23/// /2705 10061 20039 39601 40272 53026 333 55300 20000 69915 91121 91211;
0278066600999992011011506004+47383+008567FM-12+056999999V0202601N002112200019N9999999N1+00561+00361102821ADDAA112003091AL10600391AL29900091GF104991999999999999999999GJ100009IA2999+00209KA1999N+00531MA1999999096091MD1310261+9999OA149901441REMSYN136AAXX  15064 06660 03/// 42604 10056 20036 39609 40282 53026 60032 333 20053 3/002 55000 55300 20000 60005 70031 90768 93100 91128 91215;
0140066600999992011011507004+47383+008567FM-12+056999999V0201801N001519999999N9999999N1+00571+00361102881ADDMA1999999096151MD1210261+9999OA149900461REMSYN088AAXX  15074 06660 33/// /1803 10057 20036 39615 40288 52026 333 55300 20000 91109 91204;
0140066600999992011011508004+47383+008567FM-12+056999999V0202201N001019999999N9999999N1+00541+00371102901ADDMA1999999096161MD1219999+9999OA149900311REMSYN088AAXX  15084 06660 33/// /2202 10054 20037 39616 40290 52/// 333 55300 20040 91106 91204;
0140066600999992011011509004+47383+008567FM-12+056999999V0202401N001019999999N9999999N1+00641+00431102921ADDMA1999999096211MD1210121+9999OA149901081REMSYN088AAXX  15094 06660 33/// /2402 10064 20043 39621 40292 52012 333 55306 20436 91121 91211;
0140066600999992011011510004+47383+008567FM-12+056999999V0202201N002119999999N9999999N1+00801+00391102891ADDMA1999999096221MD1210071+9999OA149900411REMSYN088AAXX  15104 06660 33/// /2204 10080 20039 39622 40289 52007 333 553// 20904 91108 91205;
0140066600999992011011511004+47383+008567FM-12+056999999V0202401N002119999999N9999999N1+00911+00421102811ADDMA1999999096171MD1010011+9999OA149900411REMSYN088AAXX  15114 06660 33/// /2404 10091 20042 39617 40281 50001 333 55309 2//// 91108 91205;
0166066600999992011011512004+47383+008567FM-12+056999999V0202501N001012200019N9999999N1+00881+00311102791ADDGF104991999999999999999999MA1999999096141MD1710071+9999OA149901341REMSYN088AAXX  15124 06660 33/// 42502 10088 20031 39614 40279 57007 333 55305 20972 91126 91213;
0103066600999992011011513004+47383+008567FM-12+056999999V0202301N002119999999N9999999N1+00991+00331102731ADDMA1999999096111REMSYN076AAXX  15134 06660 33/// /2304 10099 20033 39611 40273 5//// 333 553// 20914;
0087066600999992011011514004+47383+008567FM-12+056999999V0202001N001019999999N9999999N1+00961+00261102781ADDMA1999999096151REMSYN060AAXX  15144 06660 43/// /2002 10096 20026 39615 40278 5////;
0087066600999992011011515004+47383+008567FM-12+056999999V0202101N001019999999N9999999N1+00921+00221102801ADDMA1999999096161REMSYN060AAXX  15154 06660 43/// /2102 10092 20022 39616 40280 5////;
0087066600999992011011516004+47383+008567FM-12+056999999V0202501N000519999999N9999999N1+00811+00321102861ADDMA1999999096191REMSYN060AAXX  15164 06660 43/// /2501 10081 20032 39619 40286 5////;
0103066600999992011011517004+47383+008567FM-12+056999999V0200601N000519999999N9999999N1+00591+00351102901ADDMA1999999096181REMSYN076AAXX  15174 06660 33/// /0601 10059 20035 39618 40290 5//// 333 553// 20004;
0136066600999992011011518004+47383+008567FM-12+056999999V0201801N000519999999N9999999N1+00611+00331102911ADDGF105991999999999999999999KA1999M+00991MA1999999096191REMSYN070AAXX  15184 06660 43/// 51801 10061 20033 39619 40291 5//// 333 10099;
0087066600999992011011519004+47383+008567FM-12+056999999V0201801N000519999999N9999999N1+00541+00301102941ADDMA1999999096201REMSYN060AAXX  15194 06660 43/// /1801 10054 20030 39620 40294 5////;
0087066600999992011011520004+47383+008567FM-12+056999999V0203101N000519999999N9999999N1+00571+00301102951ADDMA1999999096221REMSYN060AAXX  15204 06660 43/// /3101 10057 20030 39622 40295 5////;
0140066600999992011011521004+47383+008567FM-12+056999999V0201601N001019999999N9999999N1+00531+00301102941ADDMA1999999096201MD1710011+9999OA149900261REMSYN088AAXX  15214 06660 33/// /1602 10053 20030 39620 40294 57001 333 55300 20000 91105 91203;
0140066600999992011011522004+47383+008567FM-12+056999999V0201301N000519999999N9999999N1+00471+00271102971ADDMA1999999096211MD1210011+9999OA149900211REMSYN088AAXX  15224 06660 33/// /1301 10047 20027 39621 40297 52001 333 55300 20000 91104 91203;
0140066600999992011011523004+47383+008567FM-12+056999999V0201101N000519999999N9999999N1+00351+00231102991ADDMA1999999096201MD1710021+9999OA149900151REMSYN088AAXX  15234 06660 33/// /1101 10035 20023 39620 40299 57002 333 55300 20000 91103 91202;
0140066600999992011011600004+47383+008567FM-12+056999999V0201301N000519999999N9999999N1+00441+00201102901ADDMA1999999096141MD1810061+9999OA149900511REMSYN088AAXX  16004 06660 33/// /1301 10044 20020 39614 40290 58006 333 55300 20000 91110 91205;
0140066600999992011011601004+47383+008567FM-12+056999999V0202901N000519999999N9999999N1+00331+00171102931ADDMA1999999096141MD1710071+9999OA149900211REMSYN088AAXX  16014 06660 33/// /2901 10033 20017 39614 40293 57007 333 55300 20000 91104 91202;
0140066600999992011011602004+47383+008567FM-12+056999999V0200301N000519999999N9999999N1+00271+00131102941ADDMA1999999096141MD1519999+9999OA149900151REMSYN088AAXX  16024 06660 33/// /0301 10027 20013 39614 40294 55/// 333 55300 20000 91103 91201;
0087066600999992011011603004+47383+008567FM-12+056999999V0209999C000019999999N9999999N1+00311+00101102911ADDMA1999999096121REMSYN060AAXX  16034 06660 43/// /0000 10031 20010 39612 40291 5////;
0140066600999992011011604004+47383+008567FM-12+056999999V0203001N000519999999N9999999N1+00201+00051102931ADDMA1999999096111MD1710031+9999OA149900101REMSYN088AAXX  16044 06660 33/// /3001 10020 20005 39611 40293 57003 333 55300 20000 91102 91201;
0140066600999992011011605004+47383+008567FM-12+056999999V0202901N000519999999N9999999N1+00201+00051102931ADDMA1999999096111MD1710031+9999OA149900101REMSYN088AAXX  16054 06660 33/// /2901 10020 20005 39611 40293 57003 333 55300 20000 91102 91201;
0261066600999992011011606004+47383+008567FM-12+056999999V0200201N001012200019N9999999N1+00231+00091102951ADDAL19900091GA1001+999999999GF100991001001999999001001GJ102769IA2999-00109KA1999N+00171MA1999999096141MD1210021+9999OA149900211REMSYN124AAXX  16064 06660 33/// 00202 10023 20009 39614 40295 52002 333 20017 3/101 55046 55300 20000 70000 90768 93100 91104 91203;
0140066600999992011011607004+47383+008567FM-12+056999999V0200301N000519999999N9999999N1+00251+00101102971ADDMA1999999096161MD1210051+9999OA149900211REMSYN088AAXX  16074 06660 33/// /0301 10025 20010 39616 40297 52005 333 55300 20000 91104 91203;
0140066600999992011011608004+47383+008567FM-12+056999999V0202401N000519999999N9999999N1+00221+00121103041ADDMA1999999096221MD1219999+9999OA149900151REMSYN088AAXX  16084 06660 33/// /2401 10022 20012 39622 40304 52/// 333 55303 20083 91103 91202;
0140066600999992011011609004+47383+008567FM-12+056999999V0202401N001019999999N9999999N1+00261+00091103041ADDMA1999999096231MD1210091+9999OA149900211REMSYN088AAXX  16094 06660 33/// /2402 10026 20009 39623 40304 52009 333 553// 20536 91104 91203;
0140066600999992011011610004+47383+008567FM-12+056999999V0202101N000519999999N9999999N1+00441+00181103011ADDMA1999999096241MD1210081+9999OA149900211REMSYN088AAXX  16104 06660 33/// /2101 10044 20018 39624 40301 52008 333 553// 20958 91104 91202;
0140066600999992011011611004+47383+008567FM-12+056999999V0201901N001019999999N9999999N1+00501+00171102971ADDMA1999999096221MD1010001+9999OA149900211REMSYN088AAXX  16114 06660 33/// /1902 10050 20017 39622 40297 50000 333 553// 2//// 91104 91202;
0182066600999992011011612004+47383+008567FM-12+056999999V0202201N001512200019N9999999N1+00641+00181102881ADDGA1001+999999999GF100991001001999999001001MA1999999096171MD1710061+9999OA149900261REMSYN088AAXX  16124 06660 33/// 02203 10064 20018 39617 40288 57006 333 553// 2//// 91105 91203;
0140066600999992011011613004+47383+008567FM-12+056999999V0202201N001019999999N9999999N1+00781+00191102761ADDMA1999999096091MD1810151+9999OA149900261REMSYN088AAXX  16134 06660 33/// /2202 10078 20019 39609 40276 58015 333 553// 2//// 91105 91203;
0140066600999992011011614004+47383+008567FM-12+056999999V0202001N001019999999N9999999N1+00861+00141102721ADDMA1999999096071MD1619999+9999OA149900311REMSYN088AAXX  16144 06660 33/// /2002 10086 20014 39607 40272 56/// 333 553// 2//// 91106 91203;
0140066600999992011011615004+47383+008567FM-12+056999999V0202401N001019999999N9999999N1+00891+00111102691ADDMA1999999096051MD1610121+9999OA149900311REMSYN088AAXX  16154 06660 33/// /2402 10089 20011 39605 40269 56012 333 553// 20648 91106 91203;
0140066600999992011011616004+47383+008567FM-12+056999999V0203101N000519999999N9999999N1+00701+00241102731ADDMA1999999096041MD1610051+9999OA149900261REMSYN088AAXX  16164 06660 33/// /3101 10070 20024 39604 40273 56005 333 55308 20184 91105 91203;
0140066600999992011011617004+47383+008567FM-12+056999999V0209999C000019999999N9999999N1+00531+00181102801ADDMA1999999096071MD1510001+9999OA149900211REMSYN088AAXX  16174 06660 33/// /0000 10053 20018 39607 40280 55000 333 55300 20000 91104 91202;
0201066600999992011011618004+47383+008567FM-12+056999999V0201301N000512200019N9999999N1+00391+00171102851ADDGA1001+999999999GF100991001001999999001001KA1120M+00911MA1999999096081MD1210031+9999OA149900311REMSYN094AAXX  16184 06660 33/// 01301 10039 20017 39608 40285 52003 333 10091 55300 20000 91106 91203;
0140066600999992011011619004+47383+008567FM-12+056999999V0203201N000519999999N9999999N1+00351+00171102861ADDMA1999999096081MD1010041+9999OA149900101REMSYN088AAXX  16194 06660 33/// /3201 10035 20017 39608 40286 50004 333 55300 20000 91102 91201;
0140066600999992011011620004+47383+008567FM-12+056999999V0201201N000519999999N9999999N1+00331+00151102891ADDMA1999999096101MD1310031+9999OA149900101REMSYN088AAXX  16204 06660 33/// /1201 10033 20015 39610 40289 53003 333 55300 20000 91102 91201;
0140066600999992011011621004+47383+008567FM-12+056999999V0209999C000019999999N9999999N1+00411+00161102881ADDMA1999999096111MD1210031+9999OA149900211REMSYN088AAXX  16214 06660 33/// /0000 10041 20016 39611 40288 52003 333 55300 20000 91104 91202;
0140066600999992011011622004+47383+008567FM-12+056999999V0209999C000019999999N9999999N1+00281+00131102921ADDMA1999999096121MD1210041+9999OA149900151REMSYN088AAXX  16224 06660 33/// /0000 10028 20013 39612 40292 52004 333 55300 20000 91103 91201;
0140066600999992011011623004+47383+008567FM-12+056999999V0209999C000019999999N9999999N1+00231+00101102931ADDMA1999999096121MD1210021+9999OA149900151REMSYN088AAXX  16234 06660 33/// /0000 10023 20010 39612 40293 52002 333 55300 20000 91103 91201;
0140066600999992011011700004+47383+008567FM-12+056999999V0203201N000519999999N9999999N1+00221+00071102941ADDMA1999999096121MD1410001+9999OA149900311REMSYN088AAXX  17004 06660 33/// /3201 10022 20007 39612 40294 54001 333 55300 20000 91106 91203;
0140066600999992011011701004+47383+008567FM-12+056999999V0209999C000019999999N9999999N1+00221+00101102921ADDMA1999999096111MD1610011+9999OA149900101REMSYN088AAXX  17014 06660 33/// /0000 10022 20010 39611 40292 56001 333 55300 20000 91102 91202;
0140066600999992011011702004+47383+008567FM-12+056999999V0209999C000019999999N9999999N1+00241+00091102911ADDMA1999999096101MD1819999+9999OA149900151REMSYN088AAXX  17024 06660 33/// /0000 10024 20009 39610 40291 58/// 333 55300 20000 91103 91202;
0103066600999992011011703004+47383+008567FM-12+056999999V0201301N000519999999N9999999N1+00181+00041102911ADDMA1999999096091REMSYN076AAXX  17034 06660 33/// /1301 10018 20004 39609 40291 5//// 333 553// 20000;
0140066600999992011011704004+47383+008567FM-12+056999999V0209999C000019999999N9999999N1+00251+00061102871ADDMA1999999096071MD1710041+9999OA149900101REMSYN088AAXX  17044 06660 33/// /0000 10025 20006 39607 40287 57004 333 55300 20000 91102 91201;
0140066600999992011011705004+47383+008567FM-12+056999999V0209999C000019999999N9999999N1+00191+00011102841ADDMA1999999096021MD1810081+9999OA149900051REMSYN088AAXX  17054 06660 33/// /0000 10019 20001 39602 40284 58008 333 55300 20000 91101 91201;
0280066600999992011011706004+47383+008567FM-12+056999999V0201101N000512200019N9999999N1+00061-00051102861ADDAL19900091GA1001+999999999GF100991001001999999001001GJ104809IA2999-00209KA1999N+99999MA1999999096011MD1710081+9999OA149900151REMSYN124AAXX  17064 06660 33/// 01101 10006 21005 39601 40286 57008 333 20012 3/102 55080 55300 20000 70000 90768 93100 91103 91202;EQDQ01 +00122ATMN  
0140066600999992011011707004+47383+008567FM-12+056999999V0200501N000519999999N9999999N1+00131+00001102831ADDMA1999999096001MD1710071+9999OA149900101REMSYN088AAXX  17074 06660 33/// /0501 10013 20000 39600 40283 57007 333 55300 20000 91102 91201;
0087066600999992011011708004+47383+008567FM-12+056999999V0209999C000019999999N9999999N1+00021-00061102861ADDMA1999999096001REMSYN060AAXX  17084 06660 43/// /0000 10002 21006 39600 40286 5////;
0087066600999992011011709004+47383+008567FM-12+056999999V0202401N000519999999N9999999N1+00211+00021102801ADDMA1999999095991REMSYN060AAXX  17094 06660 43/// /2401 10021 20002 39599 40280 5////;
0140066600999992011011710004+47383+008567FM-12+056999999V0202401N001519999999N9999999N1+00441+00091102751ADDMA1999999096001MD1510001+9999OA149900411REMSYN088AAXX  17104 06660 33/// /2403 10044 20009 39600 40275 55000 333 553// 20965 91108 91203;
0140066600999992011011711004+47383+008567FM-12+056999999V0202801N001519999999N9999999N1+00701+00141102681ADDMA1999999096001MD1510001+9999OA149900411REMSYN088AAXX  17114 06660 33/// /2803 10070 20014 39600 40268 55000 333 553// 2//// 91108 91203;
0182066600999992011011712004+47383+008567FM-12+056999999V0202701N002112200019N9999999N1+00681+00101102681ADDGA1001+999999999GF100991001001999999001001MA1999999095991MD1010001+9999OA149900511REMSYN088AAXX  17124 06660 33/// 02704 10068 20010 39599 40268 50000 333 553// 2//// 91110 91205;
0140066600999992011011713004+47383+008567FM-12+056999999V0202401N002119999999N9999999N1+00791+00161102651ADDMA1999999095991MD1710011+9999OA149900511REMSYN088AAXX  17134 06660 33/// /2404 10079 20016 39599 40265 57001 333 553// 2//// 91110 91205;
0087066600999992011011714004+47383+008567FM-12+056999999V0202301N001519999999N9999999N1+00781+00191102661ADDMA1999999096001REMSYN060AAXX  17144 06660 43/// /2303 10078 20019 39600 40266 5////;
0087066600999992011011715004+47383+008567FM-12+056999999V0202301N001519999999N9999999N1+00781+00191102691ADDMA1999999096031REMSYN060AAXX  17154 06660 43/// /2303 10078 20019 39603 40269 5////;
0140066600999992011011716004+47383+008567FM-12+056999999V0202701N000519999999N9999999N1+00591+00161102761ADDMA1999999096051MD1210061+9999OA149900311REMSYN088AAXX  17164 06660 33/// /2701 10059 20016 39605 40276 52006 333 55305 20155 91106 91203;
0140066600999992011011717004+47383+008567FM-12+056999999V0202501N001519999999N9999999N1+00581+00151102811ADDMA1999999096091MD1210091+9999OA149900411REMSYN088AAXX  17174 06660 33/// /2503 10058 20015 39609 40281 52009 333 55300 20000 91108 91204;
0185066600999992011011718004+47383+008567FM-12+056999999V0202201N001019999999N9999999N1+00471+00151102861ADDGF105991999999999999999999KA1120M+00851MA1999999096111MD1210081+9999OA149900511REMSYN094AAXX  17184 06660 33/// 52202 10047 20015 39611 40286 52008 333 10085 55300 20000 91110 91205;
0140066600999992011011719004+47383+008567FM-12+056999999V0201801N001019999999N9999999N1+00421+00151102871ADDMA1999999096111MD1210061+9999OA149900261REMSYN088AAXX  17194 06660 33/// /1802 10042 20015 39611 40287 52006 333 55300 20000 91105 91203;
0140066600999992011011720004+47383+008567FM-12+056999999V0202201N000519999999N9999999N1+00481+00111102881ADDMA1999999096131MD1210041+9999OA149900151REMSYN088AAXX  17204 06660 33/// /2201 10048 20011 39613 40288 52004 333 55300 20000 91103 91202;
0140066600999992011011721004+47383+008567FM-12+056999999V0200901N000519999999N9999999N1+00481+00111102861ADDMA1999999096111MD1010001+9999OA149900411REMSYN088AAXX  17214 06660 33/// /0901 10048 20011 39611 40286 50000 333 55300 20000 91108 91204;
0140066600999992011011722004+47383+008567FM-12+056999999V0202801N000519999999N9999999N1+00361+00101102911ADDMA1999999096131MD1210021+9999OA149900151REMSYN088AAXX  17224 06660 33/// /2801 10036 20010 39613 40291 52002 333 55300 20000 91103 91202;
0140066600999992011011723004+47383+008567FM-12+056999999V0201401N000519999999N9999999N1+00351+00091102901ADDMA1999999096121MD1710011+9999OA149900151REMSYN088AAXX  17234 06660 33/// /1401 10035 20009 39612 40290 57001 333 55300 20000 91103 91202;
0140066600999992011011800004+47383+008567FM-12+056999999V0203401N000519999999N9999999N1+00291+00071102921ADDMA1999999096121MD1010011+9999OA149900511REMSYN088AAXX  18004 06660 33/// /3401 10029 20007 39612 40292 50001 333 55300 20000 91110 91205;
0140066600999992011011801004+47383+008567FM-12+056999999V0203301N000519999999N9999999N1+00231+00021102941ADDMA1999999096131MD1219999+9999OA149900151REMSYN088AAXX  18014 06660 33/// /3301 10023 20002 39613 40294 52/// 333 55300 20000 91103 91201;
0087066600999992011011802004+47383+008567FM-12+056999999V0209999C000019999999N9999999N1+00201+00021102941ADDMA1999999096121REMSYN060AAXX  18024 06660 43/// /0000 10020 20002 39612 40294 5////;
0087066600999992011011803004+47383+008567FM-12+056999999V0203301N000519999999N9999999N1+00231-00021102901ADDMA1999999096091REMSYN060AAXX  18034 06660 43/// /3301 10023 21002 39609 40290 5////;
0103066600999992011011804004+47383+008567FM-12+056999999V0201901N000519999999N9999999N1+00241+00011102861ADDMA1999999096051REMSYN076AAXX  18044 06660 33/// /1901 10024 20001 39605 40286 5//// 333 553// 20000;
0140066600999992011011805004+47383+008567FM-12+056999999V0202701N000519999999N9999999N1+00201+00001102831ADDMA1999999096021MD1710101+9999OA149900211REMSYN088AAXX  18054 06660 33/// /2701 10020 20000 39602 40283 57010 333 55300 20000 91104 91202;
0261066600999992011011806004+47383+008567FM-12+056999999V0200401N000512200019N9999999N1+00181-00031102861ADDAL19900091GA1001+999999999GF100991001001999999001001GJ104689IA2999-00109KA1999N+00121MA1999999096041MD1710051+9999OA149900211REMSYN124AAXX  18064 06660 33/// 00401 10018 21003 39604 40286 57005 333 20012 3/101 55078 55300 20000 70000 90768 93100 91104 91202;
0140066600999992011011807004+47383+008567FM-12+056999999V0202301N000519999999N9999999N1+00171-00031102891ADDMA1999999096071MD1310021+9999OA149900151REMSYN088AAXX  18074 06660 33/// /2301 10017 21003 39607 40289 53002 333 55300 20000 91103 91202;
0087066600999992011011808004+47383+008567FM-12+056999999V0202601N000519999999N9999999N1+00271+00021102881ADDMA1999999096081REMSYN060AAXX  18084 06660 43/// /2601 10027 20002 39608 40288 5////;
0087066600999992011011809004+47383+008567FM-12+056999999V0202801N000519999999N9999999N1+00221+00061102881ADDMA1999999096071REMSYN060AAXX  18094 06660 43/// /2801 10022 20006 39607 40288 5////;
0140066600999992011011810004+47383+008567FM-12+056999999V0202101N000519999999N9999999N1+00271+00151102841ADDMA1999999096041MD1810031+9999OA149900211REMSYN088AAXX  18104 06660 33/// /2101 10027 20015 39604 40284 58003 333 55300 20421 91104 91203;
