0137066690999992010010100004+47483+008400FM-12+084399999V0202001N003119999999N9999999N1+00391+00301999999ADDMA1999999089461MD1710111+9999ME1312579OA149901181REMSYN076AAXX  01004 06669 43/// /2006 10039 20030 38946 48257 57011 333 91123 91215;
0137066690999992010010101004+47483+008400FM-12+084399999V0202101N002119999999N9999999N1+00371+00321999999ADDMA1999999089431MD1710101+9999ME1312549OA149900511REMSYN076AAXX  01014 06669 43/// /2104 10037 20032 38943 48254 57010 333 91110 91207;
0137066690999992010010102004+47483+008400FM-12+084399999V0202001N002619999999N9999999N1+00341+00311999999ADDMA1999999089391MD1719999+9999ME1312509OA149900411REMSYN076AAXX  01024 06669 43/// /2005 10034 20031 38939 48250 57/// 333 91108 91206;
0096066690999992010010103004+47483+008400FM-12+084399999V0201601N003119999999N9999999N1+00311+00281999999ADDMA1999999089331ME1312449REMSYN060AAXX  01034 06669 43/// /1606 10031 20028 38933 48244 5////;
0096066690999992010010104004+47483+008400FM-12+084399999V0200701N000519999999N9999999N1+00291+00241999999ADDMA1999999089311ME1312429REMSYN060AAXX  01044 06669 43/// /0701 10029 20024 38931 48242 5////;
0137066690999992010010105004+47483+008400FM-12+084399999V0209999C000019999999N9999999N1+00171+00171999999ADDMA1999999089281MD1710111+9999ME1312389OA149900411REMSYN076AAXX  01054 06669 43/// /0000 10017 20017 38928 48238 57011 333 91108 91206;
0170066690999992010010106004+47483+008400FM-12+084399999V0203401N002119999999N9999999N1+00241+00241999999ADDGJ100009KA1999N+00171MA1999999089271MD1710061+9999ME1312389OA149900821REMSYN088AAXX  01064 06669 43/// /3404 10024 20024 38927 48238 57006 333 20017 55000 91116 91213;
0137066690999992010010107004+47483+008400FM-12+084399999V0200201N002619999999N9999999N1+00251+00191999999ADDMA1999999089261MD1710051+9999ME1312379OA149900361REMSYN076AAXX  01074 06669 43/// /0205 10025 20019 38926 48237 57005 333 91107 91206;
0137066690999992010010108004+47483+008400FM-12+084399999V0200801N001019999999N9999999N1+00321+00161999999ADDMA1999999089281MD1510001+9999ME1312409OA149900361REMSYN076AAXX  01084 06669 43/// /0802 10032 20016 38928 48240 55000 333 91107 91206;
0137066690999992010010109004+47483+008400FM-12+084399999V0201401N001519999999N9999999N1+00211+00131999999ADDMA1999999089321MD1210051+9999ME1312429OA149900411REMSYN076AAXX  01094 06669 43/// /1403 10021 20013 38932 48242 52005 333 91108 91206;
0137066690999992010010110004+47483+008400FM-12+084399999V0200601N001019999999N9999999N1+00311+00231999999ADDMA1999999089391MD1210131+9999ME1312509OA149900311REMSYN076AAXX  01104 06669 43/// /0602 10031 20023 38939 48250 52013 333 91106 91205;
0137066690999992010010111004+47483+008400FM-12+084399999V0209999C002619999999N9999999N1+00211+00201999999ADDMA1999999089401MD1210121+9999ME1312499OA149900361REMSYN076AAXX  01114 06669 43/// /0005 10021 20020 38940 48249 52012 333 91107 91205;
0137066690999992010010112004+47483+008400FM-12+084399999V0200101N002619999999N9999999N1+00231+00191999999ADDMA1999999089411MD1210091+9999ME1312509OA149900461REMSYN076AAXX  01124 06669 43/// /0105 10023 20019 38941 48250 52009 333 91109 91206;
0137066690999992010010113004+47483+008400FM-12+084399999V0200301N002619999999N9999999N1+00241+00111999999ADDMA1999999089451MD1210061+9999ME1312549OA149900361REMSYN076AAXX  01134 06669 43/// /0305 10024 20011 38945 48254 52006 333 91107 91205;
0137066690999992010010114004+47483+008400FM-12+084399999V0209999C002619999999N9999999N1+00181+00171999999ADDMA1999999089521MD1319999+9999ME1312599OA149900361REMSYN076AAXX  01144 06669 43/// /0005 10018 20017 38952 48259 53/// 333 91107 91206;
0137066690999992010010115004+47483+008400FM-12+084399999V0203301N001519999999N9999999N1+00171+00171999999ADDMA1999999089621MD1310211+9999ME1312689OA149900361REMSYN076AAXX  01154 06669 43/// /3303 10017 20017 38962 48268 53021 333 91107 91206;
0137066690999992010010116004+47483+008400FM-12+084399999V0202701N002119999999N9999999N1+00101+00101999999ADDMA1999999089711MD1310261+9999ME1312759OA149900571REMSYN076AAXX  01164 06669 43/// /2704 10010 20010 38971 48275 53026 333 91111 91205;
0137066690999992010010117004+47483+008400FM-12+084399999V0203001N006219999999N9999999N1+00031+00031999999ADDMA1999999089811MD1210291+9999ME1312839OA149901031REMSYN076AAXX  01174 06669 43/// /3012 10003 20003 38981 48283 52029 333 91120 91212;
0156066690999992010010118004+47483+008400FM-12+084399999V0202801N005119999999N9999999N1-00051-00051999999ADDKA1120M+00351MA1999999089961MD1310341+9999ME1312959OA149901181REMSYN082AAXX  01184 06669 43/// /2810 11005 21005 38996 48295 53034 333 10035 91123 91212;
0137066690999992010010119004+47483+008400FM-12+084399999V0202501N005119999999N9999999N1-00141-00141999999ADDMA1999999090101MD1310391+9999ME1313059OA149901181REMSYN076AAXX  01194 06669 43/// /2510 11014 21014 39010 48305 53039 333 91123 91212;
0137066690999992010010120004+47483+008400FM-12+084399999V0202501N005119999999N9999999N1-00191-00191999999ADDMA1999999090251MD1210441+9999ME1313189OA149901341REMSYN076AAXX  01204 06669 43/// /2510 11019 21019 39025 48318 52044 333 91126 91211;
0137066690999992010010121004+47483+008400FM-12+084399999V0202701N004619999999N9999999N1-00231-00241999999ADDMA1999999090381MD1110421+9999ME1313289OA149901341REMSYN076AAXX  01214 06669 43/// /2709 11023 21024 39038 48328 51042 333 91126 91212;
0137066690999992010010122004+47483+008400FM-12+084399999V0202601N004619999999N9999999N1-00281-00281999999ADDMA1999999090451MD1110351+9999ME1313339OA149901181REMSYN076AAXX  01224 06669 43/// /2609 11028 21028 39045 48333 51035 333 91123 91209;
0137066690999992010010123004+47483+008400FM-12+084399999V0202801N005719999999N9999999N1-00381-00401999999ADDMA1999999090571MD1110321+9999ME1313429OA149901131REMSYN076AAXX  01234 06669 43/// /2811 11038 21040 39057 48342 51032 333 91122 91211;
0137066690999992010010200004+47483+008400FM-12+084399999V0202901N005719999999N9999999N1-00401-00471999999ADDMA1999999090611MD1210231+9999ME1313459OA149901341REMSYN076AAXX  02004 06669 43/// /2911 11040 21047 39061 48345 52023 333 91126 91213;
0137066690999992010010201004+47483+008400FM-12+084399999V0202701N004619999999N9999999N1-00411-00501999999ADDMA1999999090731MD1210281+9999ME1313559OA149901241REMSYN076AAXX  02014 06669 43/// /2709 11041 21050 39073 48355 52028 333 91124 91213;
0096066690999992010010202004+47483+008400FM-12+084399999V0202401N002619999999N9999999N1-00461-00521999999ADDMA1999999090831ME1313629REMSYN060AAXX  02024 06669 43/// /2405 11046 21052 39083 48362 5////;
0137066690999992010010203004+47483+008400FM-12+084399999V0202701N004119999999N9999999N1-00471-00521999999ADDMA1999999090941MD1210331+9999ME1313729OA149901241REMSYN076AAXX  02034 06669 43/// /2708 11047 21052 39094 48372 52033 333 91124 91213;
0137066690999992010010204004+47483+008400FM-12+084399999V0202701N004619999999N9999999N1-00491-00591999999ADDMA1999999091011MD1210281+9999ME1313779OA149901081REMSYN076AAXX  02044 06669 43/// /2709 11049 21059 39101 48377 52028 333 91121 91209;
0137066690999992010010205004+47483+008400FM-12+084399999V0202701N004619999999N9999999N1-00481-00641999999ADDMA1999999091071MD1110241+9999ME1313839OA149901081REMSYN076AAXX  02054 06669 43/// /2709 11048 21064 39107 48383 51024 333 91121 91210;
0170066690999992010010206004+47483+008400FM-12+084399999V0202401N004119999999N9999999N1-00531-00601999999ADDGJ100009KA1999N-00521MA1999999091121MD1210181+9999ME1313869OA149901341REMSYN088AAXX  02064 06669 43/// /2408 11053 21060 39112 48386 52018 333 21052 55000 91126 91213;
0137066690999992010010207004+47483+008400FM-12+084399999V0202801N004619999999N9999999N1-00561-00651999999ADDMA1999999091221MD1210211+9999ME1313949OA149901081REMSYN076AAXX  02074 06669 43/// /2809 11056 21065 39122 48394 52021 333 91121 91209;
0096066690999992010010208004+47483+008400FM-12+084399999V0203001N005719999999N9999999N1-00591-00611999999ADDMA1999999091291ME1313999REMSYN060AAXX  02084 06669 43/// /3011 11059 21061 39129 48399 5////;
0137066690999992010010209004+47483+008400FM-12+084399999V0202701N003119999999N9999999N1-00561-00591999999ADDMA1999999091421MD1310301+9999ME1314119OA149901081REMSYN076AAXX  02094 06669 43/// /2706 11056 21059 39142 48411 53030 333 91121 91212;
0137066690999992010010210004+47483+008400FM-12+084399999V0202701N003619999999N9999999N1-00541-00621999999ADDMA1999999091511MD1110291+9999ME1314199OA149900931REMSYN076AAXX  02104 06669 43/// /2707 11054 21062 39151 48419 51029 333 91118 91208;
0137066690999992010010211004+47483+008400FM-12+084399999V0202901N002119999999N9999999N1-00561-00681999999ADDMA1999999091571MD1110281+9999ME1314239OA149900931REMSYN076AAXX  02114 06669 43/// /2904 11056 21068 39157 48423 51028 333 91118 91208;
0137066690999992010010212004+47483+008400FM-12+084399999V0203001N003119999999N9999999N1-00551-00701999999ADDMA1999999091621MD1210201+9999ME1314289OA149901241REMSYN076AAXX  02124 06669 43/// /3006 11055 21070 39162 48428 52020 333 91124 91212;
0137066690999992010010213004+47483+008400FM-12+084399999V0202701N003619999999N9999999N1-00521-00721999999ADDMA1999999091711MD1210201+9999ME1314369OA149900671REMSYN076AAXX  02134 06669 43/// /2707 11052 21072 39171 48436 52020 333 91113 91207;
0137066690999992010010214004+47483+008400FM-12+084399999V0202601N003119999999N9999999N1-00501-00731999999ADDMA1999999091761MD1219999+9999ME1314419OA149900721REMSYN076AAXX  02144 06669 43/// /2606 11050 21073 39176 48441 52/// 333 91114 91208;
0137066690999992010010215004+47483+008400FM-12+084399999V0202201N001519999999N9999999N1-00481-00751999999ADDMA1999999091831MD1210211+9999ME1314479OA149900931REMSYN076AAXX  02154 06669 43/// /2203 11048 21075 39183 48447 52021 333 91118 91208;
0137066690999992010010216004+47483+008400FM-12+084399999V0202401N003619999999N9999999N1-00581-00821999999ADDMA1999999091881MD1110171+9999ME1314499OA149900671REMSYN076AAXX  02164 06669 43/// /2407 11058 21082 39188 48449 51017 333 91113 91207;
0137066690999992010010217004+47483+008400FM-12+084399999V0203001N004119999999N9999999N1-00621-00801999999ADDMA1999999091941MD1210181+9999ME1314539OA149900771REMSYN076AAXX  02174 06669 43/// /3008 11062 21080 39194 48453 52018 333 91115 91209;
0156066690999992010010218004+47483+008400FM-12+084399999V0202701N003119999999N9999999N1-00631-00781999999ADDKA1120M-00471MA1999999091981MD1110151+9999ME1314569OA149901081REMSYN082AAXX  02184 06669 43/// /2706 11063 21078 39198 48456 51015 333 11047 91121 91212;
0137066690999992010010219004+47483+008400FM-12+084399999V0202501N004119999999N9999999N1-00641-00831999999ADDMA1999999092001MD1110121+9999ME1314589OA149900771REMSYN076AAXX  02194 06669 43/// /2508 11064 21083 39200 48458 51012 333 91115 91209;
0137066690999992010010220004+47483+008400FM-12+084399999V0202301N003619999999N9999999N1-00651-00881999999ADDMA1999999092001MD1210061+9999ME1314579OA149900721REMSYN076AAXX  02204 06669 43/// /2307 11065 21088 39200 48457 52006 333 91114 91209;
0137066690999992010010221004+47483+008400FM-12+084399999V0202201N002619999999N9999999N1-00661-00891999999ADDMA1999999091991MD1010011+9999ME1314569OA149900771REMSYN076AAXX  02214 06669 43/// /2205 11066 21089 39199 48456 50001 333 91115 91209;
0137066690999992010010222004+47483+008400FM-12+084399999V0202101N003619999999N9999999N1-00661-00921999999ADDMA1999999092001MD1410001+9999ME1314579OA149900461REMSYN076AAXX  02224 06669 43/// /2107 11066 21092 39200 48457 54000 333 91109 91207;
0137066690999992010010223004+47483+008400FM-12+084399999V0202201N004119999999N9999999N1-00721-00961999999ADDMA1999999092011MD1510011+9999ME1314579OA149900571REMSYN076AAXX  02234 06669 43/// /2208 11072 21096 39201 48457 55001 333 91111 91208;
0137066690999992010010300004+47483+008400FM-12+084399999V0202101N003119999999N9999999N1-00711-00831999999ADDMA1999999091991MD1010001+9999ME1314559OA149900771REMSYN076AAXX  03004 06669 43/// /2106 11071 21083 39199 48455 50000 333 91115 91209;
0137066690999992010010301004+47483+008400FM-12+084399999V0202101N004619999999N9999999N1-00731-00821999999ADDMA1999999092011MD1210011+9999ME1314569OA149900621REMSYN076AAXX  03014 06669 43/// /2109 11073 21082 39201 48456 52001 333 91112 91209;
0096066690999992010010302004+47483+008400FM-12+084399999V0202101N004119999999N9999999N1-00731-00871999999ADDMA1999999092001ME1314559REMSYN060AAXX  03024 06669 43/// /2108 11073 21087 39200 48455 5////;
0096066690999992010010303004+47483+008400FM-12+084399999V0201901N005119999999N9999999N1-00741-00891999999ADDMA1999999091971ME1314539REMSYN060AAXX  03034 06669 43/// /1910 11074 21089 39197 48453 5////;
0137066690999992010010304004+47483+008400FM-12+084399999V0202101N004619999999N9999999N1-00751-00941999999ADDMA1999999091971MD1710041+9999ME1314529OA149900771REMSYN076AAXX  03044 06669 43/// /2109 11075 21094 39197 48452 57004 333 91115 91210;
0137066690999992010010305004+47483+008400FM-12+084399999V0202101N004619999999N9999999N1-00781-00931999999ADDMA1999999091951MD1719999+9999ME1314509OA149900821REMSYN076AAXX  03054 06669 43/// /2109 11078 21093 39195 48450 57/// 333 91116 91210;
0170066690999992010010306004+47483+008400FM-12+084399999V0202101N004619999999N9999999N1-00771-00931999999ADDGJ102049KA1999N-00791MA1999999091921MD1710051+9999ME1314489OA149900821REMSYN088AAXX  03064 06669 43/// /2109 11077 21093 39192 48448 57005 333 21079 55034 91116 91210;
0137066690999992010010307004+47483+008400FM-12+084399999V0202001N004119999999N9999999N1-00761-00931999999ADDMA1999999091921MD1710051+9999ME1314489OA149900621REMSYN076AAXX  03074 06669 43/// /2008 11076 21093 39192 48448 57005 333 91112 91209;
0137066690999992010010308004+47483+008400FM-12+084399999V0202101N004619999999N9999999N1-00721-00931999999ADDMA1999999091941MD1519999+9999ME1314519OA149900571REMSYN076AAXX  03084 06669 43/// /2109 11072 21093 39194 48451 55/// 333 91111 91209;
0137066690999992010010309004+47483+008400FM-12+084399999V0202001N003619999999N9999999N1-00671-00891999999ADDMA1999999091951MD1210031+9999ME1314539OA149900821REMSYN076AAXX  03094 06669 43/// /2007 11067 21089 39195 48453 52003 333 91116 91210;
0137066690999992010010310004+47483+008400FM-12+084399999V0201801N003119999999N9999999N1-00601-00801999999ADDMA1999999091971MD1210051+9999ME1314569OA149900571REMSYN076AAXX  03104 06669 43/// /1806 11060 21080 39197 48456 52005 333 91111 91209;
0137066690999992010010311004+47483+008400FM-12+084399999V0201801N002119999999N9999999N1-00521-00811999999ADDMA1999999091851MD1810091+9999ME1314489OA149900511REMSYN076AAXX  03114 06669 43/// /1804 11052 21081 39185 48448 58009 333 91110 91208;
0137066690999992010010312004+47483+008400FM-12+084399999V0201901N001519999999N9999999N1-00451-00821999999ADDMA1999999091821MD1710131+9999ME1314479OA149900821REMSYN076AAXX  03124 06669 43/// /1903 11045 21082 39182 48447 57013 333 91116 91210;
0137066690999992010010313004+47483+008400FM-12+084399999V0201801N002619999999N9999999N1-00421-00851999999ADDMA1999999091791MD1710181+9999ME1314459OA149900511REMSYN076AAXX  03134 06669 43/// /1805 11042 21085 39179 48445 57018 333 91110 91207;
0137066690999992010010314004+47483+008400FM-12+084399999V0201801N001519999999N9999999N1-00411-00811999999ADDMA1999999091791MD1710061+9999ME1314459OA149900511REMSYN076AAXX  03144 06669 43/// /1803 11041 21081 39179 48445 57006 333 91110 91207;
0137066690999992010010315004+47483+008400FM-12+084399999V0201801N002619999999N9999999N1-00451-00841999999ADDMA1999999091811MD1510011+9999ME1314469OA149900511REMSYN076AAXX  03154 06669 43/// /1805 11045 21084 39181 48446 55001 333 91110 91208;
0137066690999992010010316004+47483+008400FM-12+084399999V0201901N002619999999N9999999N1-00501-00891999999ADDMA1999999091781MD1810011+9999ME1314429OA149900461REMSYN076AAXX  03164 06669 43/// /1905 11050 21089 39178 48442 58001 333 91109 91207;
0137066690999992010010317004+47483+008400FM-12+084399999V0201801N003119999999N9999999N1-00521-00921999999ADDMA1999999091751MD1710041+9999ME1314399OA149900461REMSYN076AAXX  03174 06669 43/// /1806 11052 21092 39175 48439 57004 333 91109 91208;
0156066690999992010010318004+47483+008400FM-12+084399999V0202101N003119999999N9999999N1-00491-01031999999ADDKA1120M-00391MA1999999091751MD1710061+9999ME1314409OA149900571REMSYN082AAXX  03184 06669 43/// /2106 11049 21103 39175 48440 57006 333 11039 91111 91209;
0137066690999992010010319004+47483+008400FM-12+084399999V0201801N003619999999N9999999N1-00551-00941999999ADDMA1999999091731MD1710051+9999ME1314379OA149900411REMSYN076AAXX  03194 06669 43/// /1807 11055 21094 39173 48437 57005 333 91108 91207;
0137066690999992010010320004+47483+008400FM-12+084399999V0201901N003119999999N9999999N1-00551-00981999999ADDMA1999999091701MD1810051+9999ME1314349OA149900461REMSYN076AAXX  03204 06669 43/// /1906 11055 21098 39170 48434 58005 333 91109 91208;
0137066690999992010010321004+47483+008400FM-12+084399999V0201901N002119999999N9999999N1-00561-00941999999ADDMA1999999091681MD1710071+9999ME1314339OA149900461REMSYN076AAXX  03214 06669 43/// /1904 11056 21094 39168 48433 57007 333 91109 91208;
0137066690999992010010322004+47483+008400FM-12+084399999V0200701N000519999999N9999999N1-00591-00961999999ADDMA1999999091661MD1610071+9999ME1314309OA149900361REMSYN076AAXX  03224 06669 43/// /0701 11059 21096 39166 48430 56007 333 91107 91206;
0137066690999992010010323004+47483+008400FM-12+084399999V0201201N001019999999N9999999N1-00581-00991999999ADDMA1999999091621MD1810081+9999ME1314279OA149900211REMSYN076AAXX  03234 06669 43/// /1202 11058 21099 39162 48427 58008 333 91104 91203;
0137066690999992010010400004+47483+008400FM-12+084399999V0201201N002619999999N9999999N1-00501-01321999999ADDMA1999999091561MD1810121+9999ME1314249OA149900511REMSYN076AAXX  04004 06669 43/// /1205 11050 21132 39156 48424 58012 333 91110 91208;
0137066690999992010010401004+47483+008400FM-12+084399999V0201201N004119999999N9999999N1-00651-01171999999ADDMA1999999091501MD1810161+9999ME1314159OA149900621REMSYN076AAXX  04014 06669 43/// /1208 11065 21117 39150 48415 58016 333 91112 91208;
0137066690999992010010402004+47483+008400FM-12+084399999V0200601N004619999999N9999999N1-00611-01171999999ADDMA1999999091451MD1610171+9999ME1314129OA149900671REMSYN076AAXX  04024 06669 43/// /0609 11061 21117 39145 48412 56017 333 91113 91210;
0137066690999992010010403004+47483+008400FM-12+084399999V0200301N005119999999N9999999N1-00741-01111999999ADDMA1999999091401MD1619999+9999ME1314059OA149900671REMSYN076AAXX  04034 06669 43/// /0310 11074 21111 39140 48405 56/// 333 91113 91210;
0137066690999992010010404004+47483+008400FM-12+084399999V0200501N005119999999N9999999N1-00741-01091999999ADDMA1999999091361MD1610141+9999ME1314029OA149900671REMSYN076AAXX  04044 06669 43/// /0510 11074 21109 39136 48402 56014 333 91113 91212;
0137066690999992010010405004+47483+008400FM-12+084399999V0200501N004119999999N9999999N1-00701-01051999999ADDMA1999999091331MD1710121+9999ME1314009OA149900671REMSYN076AAXX  04054 06669 43/// /0508 11070 21105 39133 48400 57012 333 91113 91212;
0170066690999992010010406004+47483+008400FM-12+084399999V0200201N004619999999N9999999N1-00741-00811999999ADDGJ104569KA1999N-00741MA1999999091341MD1510061+9999ME1314009OA149900671REMSYN088AAXX  04064 06669 43/// /0209 11074 21081 39134 48400 55006 333 21074 55076 91113 91212;
0137066690999992010010407004+47483+008400FM-12+084399999V0200301N004119999999N9999999N1-00661-00941999999ADDMA1999999091311MD1710051+9999ME1313999OA149900571REMSYN076AAXX  04074 06669 43/// /0308 11066 21094 39131 48399 57005 333 91111 91210;
0137066690999992010010408004+47483+008400FM-12+084399999V0200201N003619999999N9999999N1-00671-00931999999ADDMA1999999091311MD1810021+9999ME1313999OA149900511REMSYN076AAXX  04084 06669 43/// /0207 11067 21093 39131 48399 58002 333 91110 91209;
0137066690999992010010409004+47483+008400FM-12+084399999V0200301N004119999999N9999999N1-00701-00831999999ADDMA1999999091331MD1510011+9999ME1314009OA149900671REMSYN076AAXX  04094 06669 43/// /0308 11070 21083 39133 48400 55001 333 91113 91212;
0137066690999992010010410004+47483+008400FM-12+084399999V0200301N003619999999N9999999N1-00761-00871999999ADDMA1999999091321MD1010011+9999ME1313989OA149900461REMSYN076AAXX  04104 06669 43/// /0307 11076 21087 39132 48398 50001 333 91109 91208;
0137066690999992010010411004+47483+008400FM-12+084399999V0200401N002119999999N9999999N1-00721-00991999999ADDMA1999999091251MD1810061+9999ME1313939OA149900461REMSYN076AAXX  04114 06669 43/// /0404 11072 21099 39125 48393 58006 333 91109 91208;
0137066690999992010010412004+47483+008400FM-12+084399999V0200401N002119999999N9999999N1-00721-00971999999ADDMA1999999091191MD1710141+9999ME1313889OA149900671REMSYN076AAXX  04124 06669 43/// /0404 11072 21097 39119 48388 57014 333 91113 91212;
0137066690999992010010413004+47483+008400FM-12+084399999V0200401N001519999999N9999999N1-00641-01131999999ADDMA1999999091141MD1610181+9999ME1313859OA149900361REMSYN076AAXX  04134 06669 43/// /0403 11064 21113 39114 48385 56018 333 91107 91205;
0137066690999992010010414004+47483+008400FM-12+084399999V0200501N000519999999N9999999N1-00641-00891999999ADDMA1999999091111MD1619999+9999ME1313839OA149900261REMSYN076AAXX  04144 06669 43/// /0501 11064 21089 39111 48383 56/// 333 91105 91204;
0137066690999992010010415004+47483+008400FM-12+084399999V0200101N001019999999N9999999N1-00641-01091999999ADDMA1999999091101MD1610091+9999ME1313829OA149900461REMSYN076AAXX  04154 06669 43/// /0102 11064 21109 39110 48382 56009 333 91109 91208;
0137066690999992010010416004+47483+008400FM-12+084399999V0209999C002119999999N9999999N1-00651-01061999999ADDMA1999999091101MD1610041+9999ME1313829OA149900311REMSYN076AAXX  04164 06669 43/// /0004 11065 21106 39110 48382 56004 333 91106 91204;
0137066690999992010010417004+47483+008400FM-12+084399999V0200201N003119999999N9999999N1-00671-01201999999ADDMA1999999091081MD1710031+9999ME1313809OA149900461REMSYN076AAXX  04174 06669 43/// /0206 11067 21120 39108 48380 57003 333 91109 91208;
0156066690999992010010418004+47483+008400FM-12+084399999V0200201N004119999999N9999999N1-00681-01021999999ADDKA1120M-00601MA1999999091081MD1710021+9999ME1313799OA149900621REMSYN082AAXX  04184 06669 43/// /0208 11068 21102 39108 48379 57002 333 11060 91112 91209;
0137066690999992010010419004+47483+008400FM-12+084399999V0209999C004119999999N9999999N1-00761-01051999999ADDMA1999999091051MD1710051+9999ME1313759OA149900621REMSYN076AAXX  04194 06669 43/// /0008 11076 21105 39105 48375 57005 333 91112 91209;
0137066690999992010010420004+47483+008400FM-12+084399999V0200201N005119999999N9999999N1-00711-00721999999ADDMA1999999091031MD1710051+9999ME1313749OA149900671REMSYN076AAXX  04204 06669 43/// /0210 11071 21072 39103 48374 57005 333 91113 91211;
0137066690999992010010421004+47483+008400FM-12+084399999V0209999C004119999999N9999999N1-00781-00831999999ADDMA1999999091011MD1710071+9999ME1313719OA149900671REMSYN076AAXX  04214 06669 43/// /0008 11078 21083 39101 48371 57007 333 91113 91211;
0137066690999992010010422004+47483+008400FM-12+084399999V0200101N003119999999N9999999N1-00821-00871999999ADDMA1999999090981MD1710071+9999ME1313689OA149900511REMSYN076AAXX  04224 06669 43/// /0106 11082 21087 39098 48368 57007 333 91110 91209;
0137066690999992010010423004+47483+008400FM-12+084399999V0200201N003619999999N9999999N1-00801-00861999999ADDMA1999999090961MD1710071+9999ME1313679OA149900511REMSYN076AAXX  04234 06669 43/// /0207 11080 21086 39096 48367 57007 333 91110 91209;
0137066690999992010010500004+47483+008400FM-12+084399999V0200301N003619999999N9999999N1-00811-00821999999ADDMA1999999090881MD1710131+9999ME1313609OA149900671REMSYN076AAXX  05004 06669 43/// /0307 11081 21082 39088 48360 57013 333 91113 91211;
0137066690999992010010501004+47483+008400FM-12+084399999V0200301N003619999999N9999999N1-00831-00941999999ADDMA1999999090841MD1710141+9999ME1313569OA149900511REMSYN076AAXX  05014 06669 43/// /0307 11083 21094 39084 48356 57014 333 91110 91207;
0137066690999992010010502004+47483+008400FM-12+084399999V0200301N004619999999N9999999N1-00861-00981999999ADDMA1999999090831MD1710131+9999ME1313559OA149900571REMSYN076AAXX  05024 06669 43/// /0309 11086 21098 39083 48355 57013 333 91111 91209;
0137066690999992010010503004+47483+008400FM-12+084399999V0200401N004619999999N9999999N1-00911-00911999999ADDMA1999999090761MD1710121+9999ME1313489OA149900621REMSYN076AAXX  05034 06669 43/// /0409 11091 21091 39076 48348 57012 333 91112 91210;
0137066690999992010010504004+47483+008400FM-12+084399999V0200201N002619999999N9999999N1-00941-00971999999ADDMA1999999090691MD1710151+9999ME1313419OA149900621REMSYN076AAXX  05044 06669 43/// /0205 11094 21097 39069 48341 57015 333 91112 91210;
0137066690999992010010505004+47483+008400FM-12+084399999V0200301N003119999999N9999999N1-00931-00931999999ADDMA1999999090641MD1710191+9999ME1313379OA149900511REMSYN076AAXX  05054 06669 43/// /0306 11093 21093 39064 48337 57019 333 91110 91208;
0170066690999992010010506004+47483+008400FM-12+084399999V0200301N003619999999N9999999N1-00951-00951999999ADDGJ104029KA1999N-00951MA1999999090551MD1710211+9999ME1313299OA149900671REMSYN088AAXX  05064 06669 43/// /0307 11095 21095 39055 48329 57021 333 21095 55067 91113 91211;
0137066690999992010010507004+47483+008400FM-12+084399999V0200301N003619999999N9999999N1-00951-00951999999ADDMA1999999090541MD1710151+9999ME1313289OA149900511REMSYN076AAXX  05074 06669 43/// /0307 11095 21095 39054 48328 57015 333 91110 91209;
0137066690999992010010508004+47483+008400FM-12+084399999V0200201N003619999999N9999999N1-00951-00951999999ADDMA1999999090541MD1710101+9999ME1313289OA149900511REMSYN076AAXX  05084 06669 43/// /0207 11095 21095 39054 48328 57010 333 91110 91209;
0137066690999992010010509004+47483+008400FM-12+084399999V0200301N003119999999N9999999N1-00921-00921999999ADDMA1999999090511MD1710041+9999ME1313269OA149900511REMSYN076AAXX  05094 06669 43/// /0306 11092 21092 39051 48326 57004 333 91110 91209;
0137066690999992010010510004+47483+008400FM-12+084399999V0200301N002619999999N9999999N1-00891-00891999999ADDMA1999999090481MD1710061+9999ME1313249OA149900461REMSYN076AAXX  05104 06669 43/// /0305 11089 21089 39048 48324 57006 333 91109 91207;
0137066690999992010010511004+47483+008400FM-12+084399999V0200301N002119999999N9999999N1-00881-00881999999ADDMA1999999090401MD1710141+9999ME1313189OA149900411REMSYN076AAXX  05114 06669 43/// /0304 11088 21088 39040 48318 57014 333 91108 91206;
0137066690999992010010512004+47483+008400FM-12+084399999V0200301N001519999999N9999999N1-00851-00851999999ADDMA1999999090341MD1710171+9999ME1313139OA149900621REMSYN076AAXX  05124 06669 43/// /0303 11085 21085 39034 48313 57017 333 91112 91210;
0137066690999992010010513004+47483+008400FM-12+084399999V0200401N001519999999N9999999N1-00811-00811999999ADDMA1999999090261MD1710221+9999ME1313079OA149900261REMSYN076AAXX  05134 06669 43/// /0403 11081 21081 39026 48307 57022 333 91105 91203;
0096066690999992010010514004+47483+008400FM-12+084399999V0200301N001519999999N9999999N1-00791-00831999999ADDMA1999999090221ME1313049REMSYN060AAXX  05144 06669 43/// /0303 11079 21083 39022 48304 5////;
0137066690999992010010515004+47483+008400FM-12+084399999V0200601N001519999999N9999999N1-00791-00791999999ADDMA1999999090221MD1710121+9999ME1313049OA149900411REMSYN076AAXX  05154 06669 43/// /0603 11079 21079 39022 48304 57012 333 91108 91206;
0137066690999992010010516004+47483+008400FM-12+084399999V0200401N001519999999N9999999N1-00791-00791999999ADDMA1999999090191MD1710071+9999ME1313029OA149900261REMSYN076AAXX  05164 06669 43/// /0403 11079 21079 39019 48302 57007 333 91105 91203;
0137066690999992010010517004+47483+008400FM-12+084399999V0200201N001519999999N9999999N1-00781-00781999999ADDMA1999999090171MD1710051+9999ME1313009OA149900261REMSYN076AAXX  05174 06669 43/// /0203 11078 21078 39017 48300 57005 333 91105 91203;
0156066690999992010010518004+47483+008400FM-12+084399999V0200401N002119999999N9999999N1-00841-00841999999ADDKA1120M-00761MA1999999090141MD1710081+9999ME1312979OA149900511REMSYN082AAXX  05184 06669 43/// /0404 11084 21084 39014 48297 57008 333 11076 91110 91209;
0137066690999992010010519004+47483+008400FM-12+084399999V0200401N002119999999N9999999N1-00831-00831999999ADDMA1999999090111MD1710081+9999ME1312949OA149900311REMSYN076AAXX  05194 06669 43/// /0404 11083 21083 39011 48294 57008 333 91106 91205;
0137066690999992010010520004+47483+008400FM-12+084399999V0200601N001519999999N9999999N1-00771-00771999999ADDMA1999999090091MD1710081+9999ME1312939OA149900311REMSYN076AAXX  05204 06669 43/// /0603 11077 21077 39009 48293 57008 333 91106 91204;
0137066690999992010010521004+47483+008400FM-12+084399999V0200501N001519999999N9999999N1-00831-00831999999ADDMA1999999090061MD1710081+9999ME1312909OA149900311REMSYN076AAXX  05214 06669 43/// /0503 11083 21083 39006 48290 57008 333 91106 91205;
0137066690999992010010522004+47483+008400FM-12+084399999V0200501N001019999999N9999999N1-00801-00801999999ADDMA1999999090041MD1710071+9999ME1312899OA149900261REMSYN076AAXX  05224 06669 43/// /0502 11080 21080 39004 48289 57007 333 91105 91203;
0137066690999992010010523004+47483+008400FM-12+084399999V0200601N001019999999N9999999N1-00791-00791999999ADDMA1999999090021MD1710071+9999ME1312879OA149900211REMSYN076AAXX  05234 06669 43/// /0602 11079 21079 39002 48287 57007 333 91104 91202;
0137066690999992010010600004+47483+008400FM-12+084399999V0200801N000519999999N9999999N1-00761-00761999999ADDMA1999999089971MD1710091+9999ME1312839OA149900311REMSYN076AAXX  06004 06669 43/// /0801 11076 21076 38997 48283 57009 333 91106 91205;
0137066690999992010010601004+47483+008400FM-12+084399999V0200801N000519999999N9999999N1-00751-00751999999ADDMA1999999089951MD1710091+9999ME1312829OA149900211REMSYN076AAXX  06014 06669 43/// /0801 11075 21075 38995 48282 57009 333 91104 91202;
0137066690999992010010602004+47483+008400FM-12+084399999V0209999C000019999999N9999999N1-00611-00721999999ADDMA1999999089981MD1510041+9999ME1312879OA149900211REMSYN076AAXX  06024 06669 43/// /0000 11061 21072 38998 48287 55004 333 91104 91202;
0137066690999992010010603004+47483+008400FM-12+084399999V0202301N000519999999N9999999N1-00561-00611999999ADDMA1999999089961MD1810011+9999ME1312869OA149900211REMSYN076AAXX  06034 06669 43/// /2301 11056 21061 38996 48286 58001 333 91104 91203;
0137066690999992010010604004+47483+008400FM-12+084399999V0202201N001019999999N9999999N1-00671-00671999999ADDMA1999999089971MD1010021+9999ME1312859OA149900211REMSYN076AAXX  06044 06669 43/// /2202 11067 21067 38997 48285 50002 333 91104 91203;
0137066690999992010010605004+47483+008400FM-12+084399999V0202501N001019999999N9999999N1-00691-00691999999ADDMA1999999090011MD1210031+9999ME1312889OA149900211REMSYN076AAXX  06054 06669 43/// /2502 11069 21069 39001 48288 52003 333 91104 91203;
0170066690999992010010606004+47483+008400FM-12+084399999V0202901N003119999999N9999999N1-00711-00711999999ADDGJ100009KA1999N-00841MA1999999090031MD1210071+9999ME1312899OA149900621REMSYN088AAXX  06064 06669 43/// /2906 11071 21071 39003 48289 52007 333 21084 55000 91112 91206;
0137066690999992010010607004+47483+008400FM-12+084399999V0202901N004119999999N9999999N1-00701-00711999999ADDMA1999999090051MD1210081+9999ME1312919OA149901081REMSYN076AAXX  06074 06669 43/// /2908 11070 21071 39005 48291 52008 333 91121 91209;
0137066690999992010010608004+47483+008400FM-12+084399999V0202801N003619999999N9999999N1-00681-00681999999ADDMA1999999090101MD1210091+9999ME1312969OA149901081REMSYN076AAXX  06084 06669 43/// /2807 11068 21068 39010 48296 52009 333 91121 91210;
0137066690999992010010609004+47483+008400FM-12+084399999V0202701N004619999999N9999999N1-00621-00621999999ADDMA1999999090151MD1210121+9999ME1313019OA149901081REMSYN076AAXX  06094 06669 43/// /2709 11062 21062 39015 48301 52012 333 91121 91210;
0137066690999992010010610004+47483+008400FM-12+084399999V0202901N003619999999N9999999N1-00651-00691999999ADDMA1999999090181MD1210131+9999ME1313039OA149900881REMSYN076AAXX  06104 06669 43/// /2907 11065 21069 39018 48303 52013 333 91117 91209;
0137066690999992010010611004+47483+008400FM-12+084399999V0202901N000519999999N9999999N1-00641-00641999999ADDMA1999999090151MD1010051+9999ME1313019OA149900821REMSYN076AAXX  06114 06669 43/// /2901 11064 21064 39015 48301 50005 333 91116 91208;
0156066690999992010010612004+47483+008400FM-12+084399999V0202301N002619999999N9999999N1-00531-00591999999ADDMA1999999090151MD1410001+9999ME1313039OA149901081REMSYN076AAXX  06124 06669 43/// /2305 11053 21059 39015 48303 57000 333 91121 91210;EQDQ01+000072APCTEN
0137066690999992010010613004+47483+008400FM-12+084399999V0202201N001519999999N9999999N1-00571-00601999999ADDMA1999999090161MD1510021+9999ME1313039OA149900721REMSYN076AAXX  06134 06669 43/// /2203 11057 21060 39016 48303 55002 333 91114 91205;
0137066690999992010010614004+47483+008400FM-12+084399999V0202401N001519999999N9999999N1-00541-00541999999ADDMA1999999090171MD1219999+9999ME1313049OA149900461REMSYN076AAXX  06144 06669 43/// /2403 11054 21054 39017 48304 52/// 333 91109 91204;
0137066690999992010010615004+47483+008400FM-12+084399999V0202601N002119999999N9999999N1-00541-00561999999ADDMA1999999090231MD1210081+9999ME1313109OA149900821REMSYN076AAXX  06154 06669 43/// /2604 11054 21056 39023 48310 52008 333 91116 91208;
0137066690999992010010616004+47483+008400FM-12+084399999V0203001N002119999999N9999999N1-00591-00611999999ADDMA1999999090251MD1210091+9999ME1313109OA149900511REMSYN076AAXX  06164 06669 43/// /3004 11059 21061 39025 48310 52009 333 91110 91204;
0137066690999992010010617004+47483+008400FM-12+084399999V0202701N001019999999N9999999N1-00531-00591999999ADDMA1999999090301MD1210131+9999ME1313169OA149900461REMSYN076AAXX  06174 06669 43/// /2702 11053 21059 39030 48316 52013 333 91109 91204;
0156066690999992010010618004+47483+008400FM-12+084399999V0202801N001519999999N9999999N1-00581-00621999999ADDKA1120M-00521MA1999999090331MD1210101+9999ME1313179OA149901081REMSYN082AAXX  06184 06669 43/// /2803 11058 21062 39033 48317 52010 333 11052 91121 91210;
0137066690999992010010619004+47483+008400FM-12+084399999V0201801N001019999999N9999999N1-00511-00571999999ADDMA1999999090361MD1210111+9999ME1313219OA149900261REMSYN076AAXX  06194 06669 43/// /1802 11051 21057 39036 48321 52011 333 91105 91203;
0137066690999992010010620004+47483+008400FM-12+084399999V0201801N002619999999N9999999N1-00491-00491999999ADDMA1999999090371MD1210071+9999ME1313229OA149900311REMSYN076AAXX  06204 06669 43/// /1805 11049 21049 39037 48322 52007 333 91106 91205;
0137066690999992010010621004+47483+008400FM-12+084399999V0202201N001019999999N9999999N1-00581-00581999999ADDMA1999999090401MD1210071+9999ME1313239OA149900461REMSYN076AAXX  06214 06669 43/// /2202 11058 21058 39040 48323 52007 333 91109 91205;
0137066690999992010010622004+47483+008400FM-12+084399999V0202901N000519999999N9999999N1-00591-00591999999ADDMA1999999090451MD1210091+9999ME1313279OA149900311REMSYN076AAXX  06224 06669 43/// /2901 11059 21059 39045 48327 52009 333 91106 91205;
0137066690999992010010623004+47483+008400FM-12+084399999V0202401N001519999999N9999999N1-00531-00611999999ADDMA1999999090481MD1110111+9999ME1313319OA149900411REMSYN076AAXX  06234 06669 43/// /2403 11053 21061 39048 48331 51011 333 91108 91204;
0137066690999992010010700004+47483+008400FM-12+084399999V0202601N002619999999N9999999N1-00531-00711999999ADDMA1999999090481MD1210081+9999ME1313319OA149900511REMSYN076AAXX  07004 06669 43/// /2605 11053 21071 39048 48331 52008 333 91110 91205;
0137066690999992010010701004+47483+008400FM-12+084399999V0202501N003119999999N9999999N1-00471-00601999999ADDMA1999999090511MD1210061+9999ME1313359OA149900571REMSYN076AAXX  07014 06669 43/// /2506 11047 21060 39051 48335 52006 333 91111 91207;
0137066690999992010010702004+47483+008400FM-12+084399999V0202401N002119999999N9999999N1-00521-00671999999ADDMA1999999090541MD1219999+9999ME1313369OA149900571REMSYN076AAXX  07024 06669 43/// /2404 11052 21067 39054 48336 52/// 333 91111 91207;
0137066690999992010010703004+47483+008400FM-12+084399999V0202201N002119999999N9999999N1-00511-00681999999ADDMA1999999090551MD1210071+9999ME1313389OA149900571REMSYN076AAXX  07034 06669 43/// /2204 11051 21068 39055 48338 52007 333 91111 91207;
0137066690999992010010704004+47483+008400FM-12+084399999V0201601N002619999999N9999999N1-00551-00561999999ADDMA1999999090541MD1210031+9999ME1313369OA149900511REMSYN076AAXX  07044 06669 43/// /1605 11055 21056 39054 48336 52003 333 91110 91206;
0137066690999992010010705004+47483+008400FM-12+084399999V0201701N003619999999N9999999N1-00501-00571999999ADDMA1999999090551MD1510011+9999ME1313389OA149900411REMSYN076AAXX  07054 06669 43/// /1707 11050 21057 39055 48338 55001 333 91108 91207;
0170066690999992010010706004+47483+008400FM-12+084399999V0201501N002119999999N9999999N1-00501-00551999999ADDGJ100009KA1999N-00611MA1999999090581MD1210031+9999ME1313409OA149900571REMSYN088AAXX  07064 06669 43/// /1504 11050 21055 39058 48340 52003 333 21061 55000 91111 91207;
0137066690999992010010707004+47483+008400FM-12+084399999V0201501N002619999999N9999999N1-00491-00561999999ADDMA1999999090611MD1110071+9999ME1313439OA149900361REMSYN076AAXX  07074 06669 43/// /1505 11049 21056 39061 48343 51007 333 91107 91206;
0137066690999992010010708004+47483+008400FM-12+084399999V0201601N003119999999N9999999N1-00461-00501999999ADDMA1999999090671MD1319999+9999ME1313499OA149900361REMSYN076AAXX  07084 06669 43/// /1606 11046 21050 39067 48349 53/// 333 91107 91206;
0137066690999992010010709004+47483+008400FM-12+084399999V0201501N002619999999N9999999N1-00501-00531999999ADDMA1999999090711MD1310131+9999ME1313519OA149900411REMSYN076AAXX  07094 06669 43/// /1505 11050 21053 39071 48351 53013 333 91108 91207;
0137066690999992010010710004+47483+008400FM-12+084399999V0201801N002619999999N9999999N1-00451-00521999999ADDMA1999999090751MD1110141+9999ME1313569OA149900411REMSYN076AAXX  07104 06669 43/// /1805 11045 21052 39075 48356 51014 333 91108 91206;
0137066690999992010010711004+47483+008400FM-12+084399999V0201801N002119999999N9999999N1-00291-00511999999ADDMA1999999090761MD1210091+9999ME1313609OA149900411REMSYN076AAXX  07114 06669 43/// /1804 11029 21051 39076 48360 52009 333 91108 91205;
0137066690999992010010712004+47483+008400FM-12+084399999V0201801N002119999999N9999999N1-00271-00371999999ADDMA1999999090741MD1210031+9999ME1313599OA149900571REMSYN076AAXX  07124 06669 43/// /1804 11027 21037 39074 48359 52003 333 91111 91207;
0137066690999992010010713004+47483+008400FM-12+084399999V0201801N001519999999N9999999N1-00301-00431999999ADDMA1999999090731MD1810021+9999ME1313579OA149900411REMSYN076AAXX  07134 06669 43/// /1803 11030 21043 39073 48357 58002 333 91108 91205;
0137066690999992010010714004+47483+008400FM-12+084399999V0201801N002119999999N9999999N1-00321-00491999999ADDMA1999999090781MD1319999+9999ME1313619OA149900361REMSYN076AAXX  07144 06669 43/// /1804 11032 21049 39078 48361 53/// 333 91107 91204;
0096066690999992010010715004+47483+008400FM-12+084399999V0201701N003119999999N9999999N1-00341-00441999999ADDMA1999999090811ME1313639REMSYN060AAXX  07154 06669 43/// /1706 11034 21044 39081 48363 5////;
0137066690999992010010716004+47483+008400FM-12+084399999V0201701N003119999999N9999999N1-00341-00461999999ADDMA1999999090861MD1310131+9999ME1313679OA149900361REMSYN076AAXX  07164 06669 43/// /1706 11034 21046 39086 48367 53013 333 91107 91206;
0137066690999992010010717004+47483+008400FM-12+084399999V0201701N001519999999N9999999N1-00361-00511999999ADDMA1999999090871MD1110091+9999ME1313689OA149900361REMSYN076AAXX  07174 06669 43/// /1703 11036 21051 39087 48368 51009 333 91107 91206;
0156066690999992010010718004+47483+008400FM-12+084399999V0201601N001019999999N9999999N1-00351-00511999999ADDKA1120M-00271MA1999999090931MD1310121+9999ME1313739OA149900411REMSYN082AAXX  07184 06669 43/// /1602 11035 21051 39093 48373 53012 333 11027 91108 91206;
0137066690999992010010719004+47483+008400FM-12+084399999V0201201N001519999999N9999999N1-00341-00511999999ADDMA1999999090921MD1210061+9999ME1313739OA149900261REMSYN076AAXX  07194 06669 43/// /1203 11034 21051 39092 48373 52006 333 91105 91203;
0137066690999992010010720004+47483+008400FM-12+084399999V0200401N001519999999N9999999N1-00341-00511999999ADDMA1999999090921MD1210051+9999ME1313739OA149900261REMSYN076AAXX  07204 06669 43/// /0403 11034 21051 39092 48373 52005 333 91105 91203;
0137066690999992010010721004+47483+008400FM-12+084399999V0200501N001519999999N9999999N1-00351-00581999999ADDMA1999999090951MD1210021+9999ME1313759OA149900361REMSYN076AAXX  07214 06669 43/// /0503 11035 21058 39095 48375 52002 333 91107 91206;
0137066690999992010010722004+47483+008400FM-12+084399999V0200401N003119999999N9999999N1-00401-00511999999ADDMA1999999090921MD1410001+9999ME1313719OA149900411REMSYN076AAXX  07224 06669 43/// /0406 11040 21051 39092 48371 58000 333 91108 91206;
0137066690999992010010723004+47483+008400FM-12+084399999V0200301N005719999999N9999999N1-00441-00491999999ADDMA1999999090911MD1810011+9999ME1313709OA149900671REMSYN076AAXX  07234 06669 43/// /0311 11044 21049 39091 48370 58001 333 91113 91211;
0137066690999992010010800004+47483+008400FM-12+084399999V0200301N005719999999N9999999N1-00411-00461999999ADDMA1999999090881MD1710071+9999ME1313689OA149900771REMSYN076AAXX  08004 06669 43/// /0311 11041 21046 39088 48368 57007 333 91115 91212;
0137066690999992010010801004+47483+008400FM-12+084399999V0200201N005719999999N9999999N1-00461-00491999999ADDMA1999999090841MD1710081+9999ME1313639OA149901031REMSYN076AAXX  08014 06669 43/// /0211 11046 21049 39084 48363 57008 333 91120 91212;
0137066690999992010010802004+47483+008400FM-12+084399999V0200201N006219999999N9999999N1-00451-00541999999ADDMA1999999090831MD1719999+9999ME1313639OA149901031REMSYN076AAXX  08024 06669 43/// /0212 11045 21054 39083 48363 57/// 333 91120 91212;
0137066690999992010010803004+47483+008400FM-12+084399999V0200201N006719999999N9999999N1-00491-00511999999ADDMA1999999090831MD1719999+9999ME1313629OA149901031REMSYN076AAXX  08034 06669 43/// /0213 11049 21051 39083 48362 57/// 333 91120 91213;
0137066690999992010010804004+47483+008400FM-12+084399999V0200201N008219999999N9999999N1-00481-00481999999ADDMA1999999090781MD1710061+9999ME1313589OA149901131REMSYN076AAXX  08044 06669 43/// /0216 11048 21048 39078 48358 57006 333 91122 91216;
0137066690999992010010805004+47483+008400FM-12+084399999V0200201N006719999999N9999999N1-00491-00491999999ADDMA1999999090711MD1710121+9999ME1313529OA149901131REMSYN076AAXX  08054 06669 43/// /0213 11049 21049 39071 48352 57012 333 91122 91216;
0170066690999992010010806004+47483+008400FM-12+084399999V0200201N007719999999N9999999N1-00481-00501999999ADDGJ101449KA1999N-00491MA1999999090671MD1610161+9999ME1313489OA149901131REMSYN088AAXX  08064 06669 43/// /0215 11048 21050 39067 48348 56016 333 21049 55024 91122 91216;
0137066690999992010010807004+47483+008400FM-12+084399999V0200101N006719999999N9999999N1-00501-00541999999ADDMA1999999090641MD1710141+9999ME1313459OA149901291REMSYN076AAXX  08074 06669 43/// /0113 11050 21054 39064 48345 57014 333 91125 91215;
0137066690999992010010808004+47483+008400FM-12+084399999V0200201N006719999999N9999999N1-00541-00581999999ADDMA1999999090601MD1710111+9999ME1313419OA149901291REMSYN076AAXX  08084 06669 43/// /0213 11054 21058 39060 48341 57011 333 91125 91216;
0137066690999992010010809004+47483+008400FM-12+084399999V0200201N006219999999N9999999N1-00581-00641999999ADDMA1999999090561MD1710111+9999ME1313379OA149901291REMSYN076AAXX  08094 06669 43/// /0212 11058 21064 39056 48337 57011 333 91125 91216;
0137066690999992010010810004+47483+008400FM-12+084399999V0200201N005119999999N9999999N1-00571-00641999999ADDMA1999999090511MD1810131+9999ME1313339OA149901131REMSYN076AAXX  08104 06669 43/// /0210 11057 21064 39051 48333 58013 333 91122 91212;
0137066690999992010010811004+47483+008400FM-12+084399999V0200201N005119999999N9999999N1-00561-00631999999ADDMA1999999090461MD1710141+9999ME1313299OA149901081REMSYN076AAXX  08114 06669 43/// /0210 11056 21063 39046 48329 57014 333 91121 91212;
0137066690999992010010812004+47483+008400FM-12+084399999V0200301N004119999999N9999999N1-00531-00611999999ADDMA1999999090371MD1710191+9999ME1313229OA149901291REMSYN076AAXX  08124 06669 43/// /0308 11053 21061 39037 48322 57019 333 91125 91216;
0137066690999992010010813004+47483+008400FM-12+084399999V0200201N004619999999N9999999N1-00531-00581999999ADDMA1999999090331MD1710181+9999ME1313189OA149900981REMSYN076AAXX  08134 06669 43/// /0209 11053 21058 39033 48318 57018 333 91119 91211;
0137066690999992010010814004+47483+008400FM-12+084399999V0200301N005119999999N9999999N1-00521-00561999999ADDMA1999999090331MD1719999+9999ME1313189OA149900981REMSYN076AAXX  08144 06669 43/// /0310 11052 21056 39033 48318 57/// 333 91119 91210;
0137066690999992010010815004+47483+008400FM-12+084399999V0200201N003119999999N9999999N1-00511-00561999999ADDMA1999999090341MD1510031+9999ME1313209OA149901081REMSYN076AAXX  08154 06669 43/// /0206 11051 21056 39034 48320 55003 333 91121 91212;
0137066690999992010010816004+47483+008400FM-12+084399999V0200201N003619999999N9999999N1-00531-00581999999ADDMA1999999090381MD1310051+9999ME1313239OA149900931REMSYN076AAXX  08164 06669 43/// /0207 11053 21058 39038 48323 53005 333 91118 91209;
0137066690999992010010817004+47483+008400FM-12+084399999V0200101N003119999999N9999999N1-00551-00581999999ADDMA1999999090411MD1210081+9999ME1313259OA149900881REMSYN076AAXX  08174 06669 43/// /0106 11055 21058 39041 48325 52008 333 91117 91209;
0156066690999992010010818004+47483+008400FM-12+084399999V0200101N002619999999N9999999N1-00581-00601999999ADDKA1120M-00481MA1999999090431MD1210091+9999ME1313269OA149901291REMSYN082AAXX  08184 06669 43/// /0105 11058 21060 39043 48326 52009 333 11048 91125 91216;
0137066690999992010010819004+47483+008400FM-12+084399999V0200201N002619999999N9999999N1-00581-00601999999ADDMA1999999090441MD1210061+9999ME1313279OA149900671REMSYN076AAXX  08194 06669 43/// /0205 11058 21060 39044 48327 52006 333 91113 91206;
0137066690999992010010820004+47483+008400FM-12+084399999V0200201N002119999999N9999999N1-00601-00601999999ADDMA1999999090431MD1010021+9999ME1313269OA149900571REMSYN076AAXX  08204 06669 43/// /0204 11060 21060 39043 48326 50002 333 91111 91206;
0137066690999992010010821004+47483+008400FM-12+084399999V0200301N002619999999N9999999N1-00611-00621999999ADDMA1999999090431MD1410001+9999ME1313259OA149900881REMSYN076AAXX  08214 06669 43/// /0305 11061 21062 39043 48325 57000 333 91117 91209;
0137066690999992010010822004+47483+008400FM-12+084399999V0203501N001519999999N9999999N1-00691-00711999999ADDMA1999999090431MD1010011+9999ME1313249OA149900511REMSYN076AAXX  08224 06669 43/// /3503 11069 21071 39043 48324 50001 333 91110 91205;
0137066690999992010010823004+47483+008400FM-12+084399999V0200101N001519999999N9999999N1-00711-00711999999ADDMA1999999090471MD1310041+9999ME1313279OA149900361REMSYN076AAXX  08234 06669 43/// /0103 11071 21071 39047 48327 53004 333 91107 91204;
0137066690999992010010900004+47483+008400FM-12+084399999V0203501N002119999999N9999999N1-00731-00741999999ADDMA1999999090461MD1010031+9999ME1313269OA149900981REMSYN076AAXX  09004 06669 43/// /3504 11073 21074 39046 48326 50003 333 91119 91210;
0137066690999992010010901004+47483+008400FM-12+084399999V0203501N001519999999N9999999N1-00741-00761999999ADDMA1999999090451MD1010021+9999ME1313259OA149900411REMSYN076AAXX  09014 06669 43/// /3503 11074 21076 39045 48325 50002 333 91108 91204;
0137066690999992010010902004+47483+008400FM-12+084399999V0203401N002119999999N9999999N1-00751-00751999999ADDMA1999999090441MD1719999+9999ME1313249OA149900411REMSYN076AAXX  09024 06669 43/// /3404 11075 21075 39044 48324 57/// 333 91108 91205;
0137066690999992010010903004+47483+008400FM-12+084399999V0203601N002619999999N9999999N1-00751-00751999999ADDMA1999999090441MD1019999+9999ME1313249OA149900411REMSYN076AAXX  09034 06669 43/// /3605 11075 21075 39044 48324 50/// 333 91108 91205;
0137066690999992010010904004+47483+008400FM-12+084399999V0203501N002119999999N9999999N1-00791-00861999999ADDMA1999999090401MD1810051+9999ME1313209OA149900361REMSYN076AAXX  09044 06669 43/// /3504 11079 21086 39040 48320 58005 333 91107 91205;
0137066690999992010010905004+47483+008400FM-12+084399999V0203601N002119999999N9999999N1-00781-00781999999ADDMA1999999090401MD1710041+9999ME1313209OA149900311REMSYN076AAXX  09054 06669 43/// /3604 11078 21078 39040 48320 57004 333 91106 91204;
0170066690999992010010906004+47483+008400FM-12+084399999V0203501N002119999999N9999999N1-00801-00861999999ADDGJ100009KA1999N-00811MA1999999090331MD1710111+9999ME1313139OA149900571REMSYN088AAXX  09064 06669 43/// /3504 11080 21086 39033 48313 57011 333 21081 55000 91111 91206;
0137066690999992010010907004+47483+008400FM-12+084399999V0203501N001519999999N9999999N1-00831-00831999999ADDMA1999999090351MD1710051+9999ME1313159OA149900311REMSYN076AAXX  09074 06669 43/// /3503 11083 21083 39035 48315 57005 333 91106 91204;
0137066690999992010010908004+47483+008400FM-12+084399999V0203501N001519999999N9999999N1-00811-00811999999ADDMA1999999090341MD1510061+9999ME1313149OA149900311REMSYN076AAXX  09084 06669 43/// /3503 11081 21081 39034 48314 55006 333 91106 91203;
0137066690999992010010909004+47483+008400FM-12+084399999V0203401N001519999999N9999999N1-00811-00811999999ADDMA1999999090371MD1210041+9999ME1313179OA149900311REMSYN076AAXX  09094 06669 43/// /3403 11081 21081 39037 48317 52004 333 91106 91204;
0156066690999992010010910004+47483+008400FM-12+084399999V0203601N001519999999N9999999N1-00811-00811999999ADDMA1999999090351MD1410001+9999ME1313159OA149900261REMSYN076AAXX  09104 06669 43/// /3603 11081 21081 39035 48315 58000 333 91105 91203;EQDQ01+000082APCTEN
0156066690999992010010911004+47483+008400FM-12+084399999V0203601N001019999999N9999999N1-00791-00871999999ADDMA1999999090341MD1410001+9999ME1313149OA149900261REMSYN076AAXX  09114 06669 43/// /3602 11079 21087 39034 48314 57000 333 91105 91203;EQDQ01+000072APCTEN
0137066690999992010010912004+47483+008400FM-12+084399999V0203601N001519999999N9999999N1-00811-00811999999ADDMA1999999090281MD1710091+9999ME1313099OA149900411REMSYN076AAXX  09124 06669 43/// /3603 11081 21081 39028 48309 57009 333 91108 91205;
0137066690999992010010913004+47483+008400FM-12+084399999V0203501N001019999999N9999999N1-00801-00851999999ADDMA1999999090291MD1710061+9999ME1313109OA149900211REMSYN076AAXX  09134 06669 43/// /3502 11080 21085 39029 48310 57006 333 91104 91203;
0137066690999992010010914004+47483+008400FM-12+084399999V0203401N001019999999N9999999N1-00811-00811999999ADDMA1999999090301MD1510041+9999ME1313119OA149900211REMSYN076AAXX  09144 06669 43/// /3402 11081 21081 39030 48311 55004 333 91104 91202;
0137066690999992010010915004+47483+008400FM-12+084399999V0203501N000519999999N9999999N1-00811-00851999999ADDMA1999999090331MD1210051+9999ME1313139OA149900261REMSYN076AAXX  09154 06669 43/// /3501 11081 21085 39033 48313 52005 333 91105 91203;
0137066690999992010010916004+47483+008400FM-12+084399999V0203501N001019999999N9999999N1-00821-00821999999ADDMA1999999090331MD1210041+9999ME1313139OA149900151REMSYN076AAXX  09164 06669 43/// /3502 11082 21082 39033 48313 52004 333 91103 91202;
0137066690999992010010917004+47483+008400FM-12+084399999V0203501N001019999999N9999999N1-00801-00801999999ADDMA1999999090341MD1210041+9999ME1313149OA149900151REMSYN076AAXX  09174 06669 43/// /3502 11080 21080 39034 48314 52004 333 91103 91202;
0156066690999992010010918004+47483+008400FM-12+084399999V0200101N001019999999N9999999N1-00801-00831999999ADDKA1120M-00791MA1999999090361MD1210031+9999ME1313169OA149900311REMSYN082AAXX  09184 06669 43/// /0102 11080 21083 39036 48316 52003 333 11079 91106 91203;
0137066690999992010010919004+47483+008400FM-12+084399999V0203401N001519999999N9999999N1-00791-00791999999ADDMA1999999090381MD1310051+9999ME1313189OA149900211REMSYN076AAXX  09194 06669 43/// /3403 11079 21079 39038 48318 53005 333 91104 91203;
0137066690999992010010920004+47483+008400FM-12+084399999V0209999C001019999999N9999999N1-00761-00761999999ADDMA1999999090411MD1210071+9999ME1313219OA149900211REMSYN076AAXX  09204 06669 43/// /0002 11076 21076 39041 48321 52007 333 91104 91203;
0137066690999992010010921004+47483+008400FM-12+084399999V0203601N001019999999N9999999N1-00781-00841999999ADDMA1999999090431MD1210071+9999ME1313229OA149900211REMSYN076AAXX  09214 06669 43/// /3602 11078 21084 39043 48322 52007 333 91104 91203;
0137066690999992010010922004+47483+008400FM-12+084399999V0203501N001019999999N9999999N1-00791-00791999999ADDMA1999999090471MD1210091+9999ME1313259OA149900211REMSYN076AAXX  09224 06669 43/// /3502 11079 21079 39047 48325 52009 333 91104 91203;
0137066690999992010010923004+47483+008400FM-12+084399999V0203501N001519999999N9999999N1-00771-00821999999ADDMA1999999090501MD1210091+9999ME1313289OA149900211REMSYN076AAXX  09234 06669 43/// /3503 11077 21082 39050 48328 52009 333 91104 91203;
0137066690999992010011000004+47483+008400FM-12+084399999V0203501N001019999999N9999999N1-00781-00821999999ADDMA1999999090531MD1110101+9999ME1313319OA149900211REMSYN076AAXX  10004 06669 43/// /3502 11078 21082 39053 48331 51010 333 91104 91203;
0137066690999992010011001004+47483+008400FM-12+084399999V0203501N001019999999N9999999N1-00771-00771999999ADDMA1999999090551MD1210081+9999ME1313339OA149900211REMSYN076AAXX  10014 06669 43/// /3502 11077 21077 39055 48333 52008 333 91104 91202;
0096066690999992010011002004+47483+008400FM-12+084399999V0203401N000519999999N9999999N1-00781-00811999999ADDMA1999999090621ME1313389REMSYN060AAXX  10024 06669 43/// /3401 11078 21081 39062 48338 5////;
0096066690999992010011003004+47483+008400FM-12+084399999V0203501N000519999999N9999999N1-00801-00801999999ADDMA1999999090651ME1313419REMSYN060AAXX  10034 06669 43/// /3501 11080 21080 39065 48341 5////;
0137066690999992010011004004+47483+008400FM-12+084399999V0202901N000519999999N9999999N1-00821-00821999999ADDMA1999999090701MD1210151+9999ME1313449OA149900101REMSYN076AAXX  10044 06669 43/// /2901 11082 21082 39070 48344 52015 333 91102 91201;
0137066690999992010011005004+47483+008400FM-12+084399999V0209999C000019999999N9999999N1-00781-00821999999ADDMA1999999090741MD1310121+9999ME1313499OA149900051REMSYN076AAXX  10054 06669 43/// /0000 11078 21082 39074 48349 53012 333 91101 91201;
0170066690999992010011006004+47483+008400FM-12+084399999V0203001N000519999999N9999999N1-00801-00831999999ADDGJ100009KA1999N-00821MA1999999090791MD1110141+9999ME1313529OA149900211REMSYN088AAXX  10064 06669 43/// /3001 11080 21083 39079 48352 51014 333 21082 55000 91104 91203;
0137066690999992010011007004+47483+008400FM-12+084399999V0202701N000519999999N9999999N1-00761-00891999999ADDMA1999999090851MD1310151+9999ME1313589OA149900101REMSYN076AAXX  10074 06669 43/// /2701 11076 21089 39085 48358 53015 333 91102 91201;
0137066690999992010011008004+47483+008400FM-12+084399999V0202501N000519999999N9999999N1-00781-00831999999ADDMA1999999090941MD1319999+9999ME1313659OA149900101REMSYN076AAXX  10084 06669 43/// /2501 11078 21083 39094 48365 53/// 333 91102 91201;
0137066690999992010011009004+47483+008400FM-12+084399999V0202501N000519999999N9999999N1-00811-00811999999ADDMA1999999091011MD1310221+9999ME1313719OA149900101REMSYN076AAXX  10094 06669 43/// /2501 11081 21081 39101 48371 53022 333 91102 91201;
0137066690999992010011010004+47483+008400FM-12+084399999V0209999C000019999999N9999999N1-00791-00841999999ADDMA1999999091051MD1110201+9999ME1313759OA149900101REMSYN076AAXX  10104 06669 43/// /0000 11079 21084 39105 48375 51020 333 91102 91201;
0137066690999992010011011004+47483+008400FM-12+084399999V0209999C000019999999N9999999N1-00801-00801999999ADDMA1999999091111MD1110171+9999ME1313799OA149900101REMSYN076AAXX  10114 06669 43/// /0000 11080 21080 39111 48379 51017 333 91102 91200;
0137066690999992010011012004+47483+008400FM-12+084399999V0202301N000519999999N9999999N1-00811-00851999999ADDMA1999999091121MD1210111+9999ME1313809OA149900151REMSYN076AAXX  10124 06669 43/// /2301 11081 21085 39112 48380 52011 333 91103 91202;
0137066690999992010011013004+47483+008400FM-12+084399999V0209999C000019999999N9999999N1-00801-00801999999ADDMA1999999091141MD1210091+9999ME1313829OA149900151REMSYN076AAXX  10134 06669 43/// /0000 11080 21080 39114 48382 52009 333 91103 91201;
0137066690999992010011014004+47483+008400FM-12+084399999V0202301N000519999999N9999999N1-00771-00781999999ADDMA1999999091191MD1219999+9999ME1313879OA149900151REMSYN076AAXX  10144 06669 43/// /2301 11077 21078 39119 48387 52/// 333 91103 91201;
0137066690999992010011015004+47483+008400FM-12+084399999V0209999C000019999999N9999999N1-00771-00791999999ADDMA1999999091241MD1310121+9999ME1313919OA149900151REMSYN076AAXX  10154 06669 43/// /0000 11077 21079 39124 48391 53012 333 91103 91201;
0137066690999992010011016004+47483+008400FM-12+084399999V0209999C000019999999N9999999N1-00761-00761999999ADDMA1999999091291MD1110151+9999ME1313959OA149900101REMSYN076AAXX  10164 06669 43/// /0000 11076 21076 39129 48395 51015 333 91102 91201;
0137066690999992010011017004+47483+008400FM-12+084399999V0202301N000519999999N9999999N1-00791-00791999999ADDMA1999999091321MD1110131+9999ME1313979OA149900101REMSYN076AAXX  10174 06669 43/// /2301 11079 21079 39132 48397 51013 333 91102 91201;
0156066690999992010011018004+47483+008400FM-12+084399999V0202401N000519999999N9999999N1-00781-00791999999ADDKA1120M-00731MA1999999091351MD1110111+9999ME1314009OA149900151REMSYN082AAXX  10184 06669 43/// /2401 11078 21079 39135 48400 51011 333 11073 91103 91201;
0137066690999992010011019004+47483+008400FM-12+084399999V0209999C000019999999N9999999N1-00771-00821999999ADDMA1999999091371MD1110081+9999ME1314029OA149900101REMSYN076AAXX  10194 06669 43/// /0000 11077 21082 39137 48402 51008 333 91102 91201;
0137066690999992010011020004+47483+008400FM-12+084399999V0202701N000519999999N9999999N1-00781-00821999999ADDMA1999999091371MD1210051+9999ME1314029OA149900101REMSYN076AAXX  10204 06669 43/// /2701 11078 21082 39137 48402 52005 333 91102 91201;
0137066690999992010011021004+47483+008400FM-12+084399999V0209999C000019999999N9999999N1-00791-00821999999ADDMA1999999091381MD1210031+9999ME1314029OA149900101REMSYN076AAXX  10214 06669 43/// /0000 11079 21082 39138 48402 52003 333 91102 91201;
0137066690999992010011022004+47483+008400FM-12+084399999V0209999C000019999999N9999999N1-00781-00831999999ADDMA1999999091381MD1010011+9999ME1314029OA149900101REMSYN076AAXX  10224 06669 43/// /0000 11078 21083 39138 48402 50001 333 91102 91201;
0137066690999992010011023004+47483+008400FM-12+084399999V0209999C000019999999N9999999N1-00761-00851999999ADDMA1999999091381MD1010011+9999ME1314039OA149900001REMSYN076AAXX  10234 06669 43/// /0000 11076 21085 39138 48403 50001 333 91100 91200;
0137066690999992010011100004+47483+008400FM-12+084399999V0209999C000019999999N9999999N1-00751-00851999999ADDMA1999999091351MD1710031+9999ME1314019OA149900151REMSYN076AAXX  11004 06669 43/// /0000 11075 21085 39135 48401 57003 333 91103 91201;
0137066690999992010011101004+47483+008400FM-12+084399999V0209999C000019999999N9999999N1-00791-00941999999ADDMA1999999091371MD1710011+9999ME1314019OA149900001REMSYN076AAXX  11014 06669 43/// /0000 11079 21094 39137 48401 57001 333 91100 91200;
0137066690999992010011102004+47483+008400FM-12+084399999V0209999C000019999999N9999999N1-00761-00781999999ADDMA1999999091381MD1519999+9999ME1314039OA149900001REMSYN076AAXX  11024 06669 43/// /0000 11076 21078 39138 48403 55/// 333 91100 91200;
0137066690999992010011103004+47483+008400FM-12+084399999V0209999C000019999999N9999999N1-00771-00851999999ADDMA1999999091381MD1219999+9999ME1314039OA149900001REMSYN076AAXX  11034 06669 43/// /0000 11077 21085 39138 48403 52/// 333 91100 91200;
0156066690999992010011104004+47483+008400FM-12+084399999V0209999C000019999999N9999999N1-00741-00791999999ADDMA1999999091371MD1410001+9999ME1314029OA149900101REMSYN076AAXX  11044 06669 43/// /0000 11074 21079 39137 48402 58000 333 91102 91200;EQDQ01+000082APCTEN
0137066690999992010011105004+47483+008400FM-12+084399999V0202001N001019999999N9999999N1-00711-00871999999ADDMA1999999091361MD1710021+9999ME1314029OA149900101REMSYN076AAXX  11054 06669 43/// /2002 11071 21087 39136 48402 57002 333 91102 91202;
0170066690999992010011106004+47483+008400FM-12+084399999V0202001N000519999999N9999999N1-00721-00851999999ADDGJ100009KA1999N-00811MA1999999091351MD1710031+9999ME1314019OA149900101REMSYN088AAXX  11064 06669 43/// /2001 11072 21085 39135 48401 57003 333 21081 55000 91102 91202;
0137066690999992010011107004+47483+008400FM-12+084399999V0201901N000519999999N9999999N1-00711-00841999999ADDMA1999999091351MD1510021+9999ME1314019OA149900101REMSYN076AAXX  11074 06669 43/// /1901 11071 21084 39135 48401 55002 333 91102 91202;
0137066690999992010011108004+47483+008400FM-12+084399999V0209999C000019999999N9999999N1-00771-00821999999ADDMA1999999091371MD1219999+9999ME1314029OA149900101REMSYN076AAXX  11084 06669 43/// /0000 11077 21082 39137 48402 52/// 333 91102 91201;
0137066690999992010011109004+47483+008400FM-12+084399999V0201801N000519999999N9999999N1-00701-00781999999ADDMA1999999091371MD1210021+9999ME1314039OA149900101REMSYN076AAXX  11094 06669 43/// /1801 11070 21078 39137 48403 52002 333 91102 91202;
0137066690999992010011110004+47483+008400FM-12+084399999V0202001N000519999999N9999999N1-00711-00731999999ADDMA1999999091381MD1219999+9999ME1314049OA149900101REMSYN076AAXX  11104 06669 43/// /2001 11071 21073 39138 48404 52/// 333 91102 91201;
0137066690999992010011111004+47483+008400FM-12+084399999V0209999C000019999999N9999999N1-00691-00691999999ADDMA1999999091371MD1010001+9999ME1314049OA149900101REMSYN076AAXX  11114 06669 43/// /0000 11069 21069 39137 48404 50000 333 91102 91201;
0137066690999992010011112004+47483+008400FM-12+084399999V0201801N000519999999N9999999N1-00661-00721999999ADDMA1999999091351MD1710021+9999ME1314039OA149900101REMSYN076AAXX  11124 06669 43/// /1801 11066 21072 39135 48403 57002 333 91102 91202;
0137066690999992010011113004+47483+008400FM-12+084399999V0202001N000519999999N9999999N1-00641-00691999999ADDMA1999999091331MD1710051+9999ME1314019OA149900101REMSYN076AAXX  11134 06669 43/// /2001 11064 21069 39133 48401 57005 333 91102 91201;
0096066690999992010011114004+47483+008400FM-12+084399999V0202001N001019999999N9999999N1-00651-00701999999ADDMA1999999091361ME1314049REMSYN060AAXX  11144 06669 43/// /2002 11065 21070 39136 48404 5////;
0137066690999992010011115004+47483+008400FM-12+084399999V0202101N001019999999N9999999N1-00681-00681999999ADDMA1999999091401MD1310051+9999ME1314069OA149900151REMSYN076AAXX  11154 06669 43/// /2102 11068 21068 39140 48406 53005 333 91103 91202;
0137066690999992010011116004+47483+008400FM-12+084399999V0202201N001019999999N9999999N1-00701-00701999999ADDMA1999999091431MD1210101+9999ME1314089OA149900151REMSYN076AAXX  11164 06669 43/// /2202 11070 21070 39143 48408 52010 333 91103 91202;
0137066690999992010011117004+47483+008400FM-12+084399999V0202201N001019999999N9999999N1-00691-00691999999ADDMA1999999091461MD1110101+9999ME1314119OA149900151REMSYN076AAXX  11174 06669 43/// /2202 11069 21069 39146 48411 51010 333 91103 91202;
0156066690999992010011118004+47483+008400FM-12+084399999V0202201N001019999999N9999999N1-00681-00681999999ADDKA1120M-00641MA1999999091501MD1310101+9999ME1314159OA149900151REMSYN082AAXX  11184 06669 43/// /2202 11068 21068 39150 48415 53010 333 11064 91103 91202;
0137066690999992010011119004+47483+008400FM-12+084399999V0202101N001019999999N9999999N1-00661-00661999999ADDMA1999999091521MD1210091+9999ME1314179OA149900151REMSYN076AAXX  11194 06669 43/// /2102 11066 21066 39152 48417 52009 333 91103 91202;
0137066690999992010011120004+47483+008400FM-12+084399999V0202401N000519999999N9999999N1-00651-00651999999ADDMA1999999091541MD1210081+9999ME1314199OA149900101REMSYN076AAXX  11204 06669 43/// /2401 11065 21065 39154 48419 52008 333 91102 91202;
0137066690999992010011121004+47483+008400FM-12+084399999V0202301N000519999999N9999999N1-00661-00661999999ADDMA1999999091541MD1210041+9999ME1314199OA149900151REMSYN076AAXX  11214 06669 43/// /2301 11066 21066 39154 48419 52004 333 91103 91202;
0137066690999992010011122004+47483+008400FM-12+084399999V0202501N000519999999N9999999N1-00641-00701999999ADDMA1999999091541MD1210021+9999ME1314199OA149900151REMSYN076AAXX  11224 06669 43/// /2501 11064 21070 39154 48419 52002 333 91103 91202;
0137066690999992010011123004+47483+008400FM-12+084399999V0202501N000519999999N9999999N1-00611-00691999999ADDMA1999999091561MD1210021+9999ME1314219OA149900151REMSYN076AAXX  11234 06669 43/// /2501 11061 21069 39156 48421 52002 333 91103 91202;
0137066690999992010011200004+47483+008400FM-12+084399999V0202501N000519999999N9999999N1-00631-00701999999ADDMA1999999091561MD1210021+9999ME1314219OA149900151REMSYN076AAXX  12004 06669 43/// /2501 11063 21070 39156 48421 52002 333 91103 91202;
0137066690999992010011201004+47483+008400FM-12+084399999V0202301N001019999999N9999999N1-00641-00681999999ADDMA1999999091551MD1010011+9999ME1314209OA149900151REMSYN076AAXX  12014 06669 43/// /2302 11064 21068 39155 48420 50001 333 91103 91202;
0137066690999992010011202004+47483+008400FM-12+084399999V0202601N000519999999N9999999N1-00631-00691999999ADDMA1999999091551MD1410001+9999ME1314209OA149900151REMSYN076AAXX  12024 06669 43/// /2601 11063 21069 39155 48420 54/// 333 91103 91202;
0137066690999992010011203004+47483+008400FM-12+084399999V0202801N000519999999N9999999N1-00631-00631999999ADDMA1999999091541MD1710021+9999ME1314199OA149900151REMSYN076AAXX  12034 06669 43/// /2801 11063 21063 39154 48419 57002 333 91103 91202;
0137066690999992010011204004+47483+008400FM-12+084399999V0202701N000519999999N9999999N1-00641-00691999999ADDMA1999999091531MD1710021+9999ME1314189OA149900151REMSYN076AAXX  12044 06669 43/// /2701 11064 21069 39153 48418 57002 333 91103 91202;
0137066690999992010011205004+47483+008400FM-12+084399999V0202801N000519999999N9999999N1-00641-00641999999ADDMA1999999091511MD1710041+9999ME1314169OA149900151REMSYN076AAXX  12054 06669 43/// /2801 11064 21064 39151 48416 57004 333 91103 91202;
0170066690999992010011206004+47483+008400FM-12+084399999V0202701N000519999999N9999999N1-00621-00711999999ADDGJ100009KA1999N-00681MA1999999091491MD1710051+9999ME1314159OA149900151REMSYN088AAXX  12064 06669 43/// /2701 11062 21071 39149 48415 57005 333 21068 55000 91103 91202;
0137066690999992010011207004+47483+008400FM-12+084399999V0202601N000519999999N9999999N1-00631-00701999999ADDMA1999999091441MD1710091+9999ME1314119OA149900101REMSYN076AAXX  12074 06669 43/// /2601 11063 21070 39144 48411 57009 333 91102 91202;
0137066690999992010011208004+47483+008400FM-12+084399999V0209999C000019999999N9999999N1-00611-00721999999ADDMA1999999091391MD1819999+9999ME1314079OA149900101REMSYN076AAXX  12084 06669 43/// /0000 11061 21072 39139 48407 58/// 333 91102 91202;
0137066690999992010011209004+47483+008400FM-12+084399999V0209999C000019999999N9999999N1-00571-00651999999ADDMA1999999091341MD1610151+9999ME1314049OA149900151REMSYN076AAXX  12094 06669 43/// /0000 11057 21065 39134 48404 56015 333 91103 91202;
0137066690999992010011210004+47483+008400FM-12+084399999V0209999C000019999999N9999999N1-00571-00641999999ADDMA1999999091271MD1810171+9999ME1313989OA149900001REMSYN076AAXX  12104 06669 43/// /0000 11057 21064 39127 48398 58017 333 91100 91200;
0137066690999992010011211004+47483+008400FM-12+084399999V0200501N000519999999N9999999N1-00571-00691999999ADDMA1999999091211MD1819999+9999ME1313939OA149900101REMSYN076AAXX  12114 06669 43/// /0501 11057 21069 39121 48393 58/// 333 91102 91201;
0137066690999992010011212004+47483+008400FM-12+084399999V0200201N000519999999N9999999N1-00601-00621999999ADDMA1999999091121MD1710221+9999ME1313849OA149900151REMSYN076AAXX  12124 06669 43/// /0201 11060 21062 39112 48384 57022 333 91103 91202;
0137066690999992010011213004+47483+008400FM-12+084399999V0209999C000019999999N9999999N1-00511-00581999999ADDMA1999999091071MD1610201+9999ME1313829OA149900101REMSYN076AAXX  12134 06669 43/// /0000 11051 21058 39107 48382 56020 333 91102 91201;
0096066690999992010011214004+47483+008400FM-12+084399999V0209999C000019999999N9999999N1-00561-00581999999ADDMA1999999091001ME1313759REMSYN060AAXX  12144 06669 43/// /0000 11056 21058 39100 48375 5////;
0137066690999992010011215004+47483+008400FM-12+084399999V0200401N000519999999N9999999N1-00561-00571999999ADDMA1999999090921MD1810201+9999ME1313689OA149900151REMSYN076AAXX  12154 06669 43/// /0401 11056 21057 39092 48368 58020 333 91103 91201;
0137066690999992010011216004+47483+008400FM-12+084399999V0200201N000519999999N9999999N1-00581-00581999999ADDMA1999999090851MD1610221+9999ME1313629OA149900151REMSYN076AAXX  12164 06669 43/// /0201 11058 21058 39085 48362 56022 333 91103 91202;
0137066690999992010011217004+47483+008400FM-12+084399999V0200401N001019999999N9999999N1-00581-00581999999ADDMA1999999090801MD1710201+9999ME1313589OA149900151REMSYN076AAXX  12174 06669 43/// /0402 11058 21058 39080 48358 57020 333 91103 91202;
0156066690999992010011218004+47483+008400FM-12+084399999V0200201N001019999999N9999999N1-00541-00581999999ADDKA1120M-00451MA1999999090751MD1710171+9999ME1313549OA149900151REMSYN082AAXX  12184 06669 43/// /0202 11054 21058 39075 48354 57017 333 11045 91103 91202;
0137066690999992010011219004+47483+008400FM-12+084399999V0209999C000019999999N9999999N1-00551-00561999999ADDMA1999999090751MD1710101+9999ME1313549OA149900151REMSYN076AAXX  12194 06669 43/// /0000 11055 21056 39075 48354 57010 333 91103 91202;
0137066690999992010011220004+47483+008400FM-12+084399999V0200301N000519999999N9999999N1-00571-00571999999ADDMA1999999090691MD1710111+9999ME1313489OA149900211REMSYN076AAXX  12204 06669 43/// /0301 11057 21057 39069 48348 57011 333 91104 91203;
0137066690999992010011221004+47483+008400FM-12+084399999V0200201N001019999999N9999999N1-00531-00551999999ADDMA1999999090621MD1710131+9999ME1313439OA149900211REMSYN076AAXX  12214 06669 43/// /0202 11053 21055 39062 48343 57013 333 91104 91203;
0137066690999992010011222004+47483+008400FM-12+084399999V0200201N001019999999N9999999N1-00531-00541999999ADDMA1999999090571MD1710181+9999ME1313399OA149900151REMSYN076AAXX  12224 06669 43/// /0202 11053 21054 39057 48339 57018 333 91103 91203;
0137066690999992010011223004+47483+008400FM-12+084399999V0200301N001019999999N9999999N1-00541-00551999999ADDMA1999999090531MD1710161+9999ME1313359OA149900151REMSYN076AAXX  12234 06669 43/// /0302 11054 21055 39053 48335 57016 333 91103 91202;
0137066690999992010011300004+47483+008400FM-12+084399999V0209999C000019999999N9999999N1-00561-00561999999ADDMA1999999090581MD1510041+9999ME1313399OA149900211REMSYN076AAXX  13004 06669 43/// /0000 11056 21056 39058 48339 55004 333 91104 91203;
0137066690999992010011301004+47483+008400FM-12+084399999V0202101N000519999999N9999999N1-00561-00561999999ADDMA1999999090651MD1310081+9999ME1313459OA149900151REMSYN076AAXX  13014 06669 43/// /2101 11056 21056 39065 48345 53008 333 91103 91202;
0137066690999992010011302004+47483+008400FM-12+084399999V0201701N000519999999N9999999N1-00521-00551999999ADDMA1999999090571MD1019999+9999ME1313399OA149900101REMSYN076AAXX  13024 06669 43/// /1701 11052 21055 39057 48339 50/// 333 91102 91201;
0137066690999992010011303004+47483+008400FM-12+084399999V0201501N000519999999N9999999N1-00521-00561999999ADDMA1999999090531MD1819999+9999ME1313369OA149900151REMSYN076AAXX  13034 06669 43/// /1501 11052 21056 39053 48336 58/// 333 91103 91202;
0137066690999992010011304004+47483+008400FM-12+084399999V0209999C000019999999N9999999N1-00531-00571999999ADDMA1999999090471MD1710181+9999ME1313309OA149900101REMSYN076AAXX  13044 06669 43/// /0000 11053 21057 39047 48330 57018 333 91102 91202;
0137066690999992010011305004+47483+008400FM-12+084399999V0201001N000519999999N9999999N1-00221-00701999999ADDMA1999999090461MD1710111+9999ME1313359OA149900101REMSYN076AAXX  13054 06669 43/// /1001 11022 21070 39046 48335 57011 333 91102 91201;
0170066690999992010011306004+47483+008400FM-12+084399999V0209999C000019999999N9999999N1-00501-00551999999ADDGJ100429KA1999N-00591MA1999999090481MD1510051+9999ME1313329OA149900211REMSYN088AAXX  13064 06669 43/// /0000 11050 21055 39048 48332 55005 333 21059 55007 91104 91203;
0137066690999992010011307004+47483+008400FM-12+084399999V0209999C000019999999N9999999N1-00541-00551999999ADDMA1999999090541MD1210071+9999ME1313369OA149900101REMSYN076AAXX  13074 06669 43/// /0000 11054 21055 39054 48336 52007 333 91102 91200;
0137066690999992010011308004+47483+008400FM-12+084399999V0202101N001019999999N9999999N1-00461-00511999999ADDMA1999999090611MD1210151+9999ME1313449OA149900101REMSYN076AAXX  13084 06669 43/// /2102 11046 21051 39061 48344 52015 333 91102 91202;
0137066690999992010011309004+47483+008400FM-12+084399999V0202001N001019999999N9999999N1-00381-00471999999ADDMA1999999090661MD1210181+9999ME1313499OA149900151REMSYN076AAXX  13094 06669 43/// /2002 11038 21047 39066 48349 52018 333 91103 91202;
0137066690999992010011310004+47483+008400FM-12+084399999V0201801N001019999999N9999999N1-00371-00421999999ADDMA1999999090711MD1210171+9999ME1313549OA149900151REMSYN076AAXX  13104 06669 43/// /1802 11037 21042 39071 48354 52017 333 91103 91202;
0137066690999992010011311004+47483+008400FM-12+084399999V0201901N001019999999N9999999N1-00321-00391999999ADDMA1999999090701MD1210091+9999ME1313549OA149900151REMSYN076AAXX  13114 06669 43/// /1902 11032 21039 39070 48354 52009 333 91103 91202;
0137066690999992010011312004+47483+008400FM-12+084399999V0201901N001019999999N9999999N1-00271-00301999999ADDMA1999999090681MD1010021+9999ME1313539OA149900151REMSYN076AAXX  13124 06669 43/// /1902 11027 21030 39068 48353 50002 333 91103 91202;
0137066690999992010011313004+47483+008400FM-12+084399999V0201801N001019999999N9999999N1-00211-00251999999ADDMA1999999090681MD1710031+9999ME1313549OA149900211REMSYN076AAXX  13134 06669 43/// /1802 11021 21025 39068 48354 57003 333 91104 91202;
0137066690999992010011314004+47483+008400FM-12+084399999V0201901N001519999999N9999999N1-00181-00221999999ADDMA1999999090701MD1519999+9999ME1313579OA149900261REMSYN076AAXX  13144 06669 43/// /1903 11018 21022 39070 48357 55/// 333 91105 91203;
0137066690999992010011315004+47483+008400FM-12+084399999V0201901N001519999999N9999999N1-00141-00161999999ADDMA1999999090731MD1210051+9999ME1313609OA149900261REMSYN076AAXX  13154 06669 43/// /1903 11014 21016 39073 48360 52005 333 91105 91203;
0137066690999992010011316004+47483+008400FM-12+084399999V0201901N001019999999N9999999N1-00111-00141999999ADDMA1999999090751MD1210071+9999ME1313639OA149900261REMSYN076AAXX  13164 06669 43/// /1902 11011 21014 39075 48363 52007 333 91105 91203;
0137066690999992010011317004+47483+008400FM-12+084399999V0202001N001519999999N9999999N1-00091-00131999999ADDMA1999999090811MD1210111+9999ME1313689OA149900261REMSYN076AAXX  13174 06669 43/// /2003 11009 21013 39081 48368 52011 333 91105 91203;
0156066690999992010011318004+47483+008400FM-12+084399999V0201901N001519999999N9999999N1-00061-00081999999ADDKA1120M-00061MA1999999090861MD1210131+9999ME1313739OA149900261REMSYN082AAXX  13184 06669 43/// /1903 11006 21008 39086 48373 52013 333 11006 91105 91203;
0137066690999992010011319004+47483+008400FM-12+084399999V0201901N001519999999N9999999N1-00071-00081999999ADDMA1999999090901MD1210151+9999ME1313769OA149900261REMSYN076AAXX  13194 06669 43/// /1903 11007 21008 39090 48376 52015 333 91105 91203;
0137066690999992010011320004+47483+008400FM-12+084399999V0202101N001019999999N9999999N1-00071-00081999999ADDMA1999999090931MD1110121+9999ME1313799OA149900261REMSYN076AAXX  13204 06669 43/// /2102 11007 21008 39093 48379 51012 333 91105 91203;
0137066690999992010011321004+47483+008400FM-12+084399999V0202201N001019999999N9999999N1-00051-00061999999ADDMA1999999090941MD1210081+9999ME1313809OA149900261REMSYN076AAXX  13214 06669 43/// /2202 11005 21006 39094 48380 52008 333 91105 91203;
0137066690999992010011322004+47483+008400FM-12+084399999V0202201N001019999999N9999999N1-00061-00061999999ADDMA1999999090921MD1010021+9999ME1313789OA149900151REMSYN076AAXX  13224 06669 43/// /2202 11006 21006 39092 48378 50002 333 91103 91202;
0137066690999992010011323004+47483+008400FM-12+084399999V0202001N000519999999N9999999N1-00041-00061999999ADDMA1999999090891MD1710041+9999ME1313769OA149900151REMSYN076AAXX  13234 06669 43/// /2001 11004 21006 39089 48376 57004 333 91103 91202;
0137066690999992010011400004+47483+008400FM-12+084399999V0202001N000519999999N9999999N1-00071-00081999999ADDMA1999999090841MD1810101+9999ME1313719OA149900261REMSYN076AAXX  14004 06669 43/// /2001 11007 21008 39084 48371 58010 333 91105 91203;
0137066690999992010011401004+47483+008400FM-12+084399999V0209999C000019999999N9999999N1-00101-00101999999ADDMA1999999090811MD1710111+9999ME1313689OA149900101REMSYN076AAXX  14014 06669 43/// /0000 11010 21010 39081 48368 57011 333 91102 91201;
0137066690999992010011402004+47483+008400FM-12+084399999V0201201N000519999999N9999999N1-00021-00051999999ADDMA1999999090761MD1719999+9999ME1313659OA149900151REMSYN076AAXX  14024 06669 43/// /1201 11002 21005 39076 48365 57/// 333 91103 91201;
0096066690999992010011403004+47483+008400FM-12+084399999V0209999C000019999999N9999999N1-00131-00131999999ADDMA1999999090761ME1313639REMSYN060AAXX  14034 06669 43/// /0000 11013 21013 39076 48363 5////;
0137066690999992010011404004+47483+008400FM-12+084399999V0209999C000019999999N9999999N1-00121-00121999999ADDMA1999999090731MD1710081+9999ME1313619OA149900101REMSYN076AAXX  14044 06669 43/// /0000 11012 21012 39073 48361 57008 333 91102 91201;
0137066690999992010011405004+47483+008400FM-12+084399999V0209999C000019999999N9999999N1-00161-00171999999ADDMA1999999090701MD1710061+9999ME1313579OA149900051REMSYN076AAXX  14054 06669 43/// /0000 11016 21017 39070 48357 57006 333 91101 91200;
0170066690999992010011406004+47483+008400FM-12+084399999V0209999C000019999999N9999999N1-00171-00171999999ADDGJ100009KA1999N-00171MA1999999090681MD1710081+9999ME1313559OA149900261REMSYN088AAXX  14064 06669 43/// /0000 11017 21017 39068 48355 57008 333 21017 55000 91105 91203;
0137066690999992010011407004+47483+008400FM-12+084399999V0209999C000019999999N9999999N1-00151-00151999999ADDMA1999999090661MD1710071+9999ME1313549OA149900051REMSYN076AAXX  14074 06669 43/// /0000 11015 21015 39066 48354 57007 333 91101 91200;
0137066690999992010011408004+47483+008400FM-12+084399999V0209999C000019999999N9999999N1-00171-00191999999ADDMA1999999090631MD1719999+9999ME1313519OA149900051REMSYN076AAXX  14084 06669 43/// /0000 11017 21019 39063 48351 57/// 333 91101 91200;
0137066690999992010011409004+47483+008400FM-12+084399999V0209999C000019999999N9999999N1-00161-00161999999ADDMA1999999090641MD1710041+9999ME1313529OA149900051REMSYN076AAXX  14094 06669 43/// /0000 11016 21016 39064 48352 57004 333 91101 91200;
0137066690999992010011410004+47483+008400FM-12+084399999V0209999C000019999999N9999999N1-00161-00161999999ADDMA1999999090641MD1710021+9999ME1313529OA149900051REMSYN076AAXX  14104 06669 43/// /0000 11016 21016 39064 48352 57002 333 91101 91200;
0137066690999992010011411004+47483+008400FM-12+084399999V0209999C000019999999N9999999N1-00131-00161999999ADDMA1999999090571MD1810061+9999ME1313469OA149900051REMSYN076AAXX  14114 06669 43/// /0000 11013 21016 39057 48346 58006 333 91101 91200;
0137066690999992010011412004+47483+008400FM-12+084399999V0209999C000019999999N9999999N1-00131-00141999999ADDMA1999999090541MD1710101+9999ME1313449OA149900151REMSYN076AAXX  14124 06669 43/// /0000 11013 21014 39054 48344 57010 333 91103 91201;
0137066690999992010011413004+47483+008400FM-12+084399999V0209999C000019999999N9999999N1-00101-00121999999ADDMA1999999090501MD1710141+9999ME1313419OA149900051REMSYN076AAXX  14134 06669 43/// /0000 11010 21012 39050 48341 57014 333 91101 91200;
0137066690999992010011414004+47483+008400FM-12+084399999V0209999C000019999999N9999999N1-00101-00111999999ADDMA1999999090551MD1510021+9999ME1313459OA149900051REMSYN076AAXX  14144 06669 43/// /0000 11010 21011 39055 48345 55002 333 91101 91200;
0137066690999992010011415004+47483+008400FM-12+084399999V0209999C000019999999N9999999N1-00131-00131999999ADDMA1999999090591MD1310051+9999ME1313489OA149900051REMSYN076AAXX  14154 06669 43/// /0000 11013 21013 39059 48348 53005 333 91101 91200;
0137066690999992010011416004+47483+008400FM-12+084399999V0209999C000019999999N9999999N1-00131-00151999999ADDMA1999999090621MD1210121+9999ME1313519OA149900001REMSYN076AAXX  14164 06669 43/// /0000 11013 21015 39062 48351 52012 333 91100 91200;
0137066690999992010011417004+47483+008400FM-12+084399999V0209999C000019999999N9999999N1-00141-00151999999ADDMA1999999090651MD1210101+9999ME1313539OA149900001REMSYN076AAXX  14174 06669 43/// /0000 11014 21015 39065 48353 52010 333 91100 91200;
0156066690999992010011418004+47483+008400FM-12+084399999V0209999C000019999999N9999999N1-00161-00181999999ADDKA1120M-00091MA1999999090721MD1210131+9999ME1313599OA149900051REMSYN082AAXX  14184 06669 43/// /0000 11016 21018 39072 48359 52013 333 11009 91101 91200;
0137066690999992010011419004+47483+008400FM-12+084399999V0209999C000019999999N9999999N1-00191-00201999999ADDMA1999999090801MD1310181+9999ME1313659OA149900001REMSYN076AAXX  14194 06669 43/// /0000 11019 21020 39080 48365 53018 333 91100 91200;
0137066690999992010011420004+47483+008400FM-12+084399999V0209999C000019999999N9999999N1-00231-00231999999ADDMA1999999090861MD1110211+9999ME1313709OA149900051REMSYN076AAXX  14204 06669 43/// /0000 11023 21023 39086 48370 51021 333 91101 91200;
0137066690999992010011421004+47483+008400FM-12+084399999V0209999C000019999999N9999999N1-00271-00271999999ADDMA1999999090951MD1310231+9999ME1313779OA149900051REMSYN076AAXX  14214 06669 43/// /0000 11027 21027 39095 48377 53023 333 91101 91200;
0137066690999992010011422004+47483+008400FM-12+084399999V0209999C000019999999N9999999N1-00271-00271999999ADDMA1999999091041MD1310241+9999ME1313849OA149900001REMSYN076AAXX  14224 06669 43/// /0000 11027 21027 39104 48384 53024 333 91100 91200;
0137066690999992010011423004+47483+008400FM-12+084399999V0209999C000019999999N9999999N1-00301-00301999999ADDMA1999999091141MD1210281+9999ME1313929OA149900001REMSYN076AAXX  14234 06669 43/// /0000 11030 21030 39114 48392 52028 333 91100 91200;
0137066690999992010011500004+47483+008400FM-12+084399999V0209999C000019999999N9999999N1-00291-00291999999ADDMA1999999091171MD1110221+9999ME1313959OA149900051REMSYN076AAXX  15004 06669 43/// /0000 11029 21029 39117 48395 51022 333 91101 91200;
0137066690999992010011501004+47483+008400FM-12+084399999V0209999C000019999999N9999999N1-00301-00301999999ADDMA1999999091241MD1110201+9999ME1314019OA149900051REMSYN076AAXX  15014 06669 43/// /0000 11030 21030 39124 48401 51020 333 91101 91200;
0137066690999992010011502004+47483+008400FM-12+084399999V0209999C000019999999N9999999N1-00271-00271999999ADDMA1999999091311MD1310171+9999ME1314089OA149900051REMSYN076AAXX  15024 06669 43/// /0000 11027 21027 39131 48408 53017 333 91101 91200;
0096066690999992010011503004+47483+008400FM-12+084399999V0209999C000019999999N9999999N1-00221-00251999999ADDMA1999999091381ME1314159REMSYN060AAXX  15034 06669 43/// /0000 11022 21025 39138 48415 5////;
0137066690999992010011504004+47483+008400FM-12+084399999V0209999C000019999999N9999999N1-00221-00251999999ADDMA1999999091461MD1110221+9999ME1314219OA149900001REMSYN076AAXX  15044 06669 43/// /0000 11022 21025 39146 48421 51022 333 91100 91200;
0137066690999992010011505004+47483+008400FM-12+084399999V0209999C000019999999N9999999N1-00231-00251999999ADDMA1999999091551MD1210241+9999ME1314299OA149900001REMSYN076AAXX  15054 06669 43/// /0000 11023 21025 39155 48429 52024 333 91100 91200;
0170066690999992010011506004+47483+008400FM-12+084399999V0209999C000019999999N9999999N1-00251-00261999999ADDGJ100009KA1999N-00321MA1999999091651MD1310271+9999ME1314379OA149900051REMSYN088AAXX  15064 06669 43/// /0000 11025 21026 39165 48437 53027 333 21032 55000 91101 91200;
0137066690999992010011507004+47483+008400FM-12+084399999V0209999C000019999999N9999999N1-00231-00251999999ADDMA1999999091741MD1310281+9999ME1314459OA149900001REMSYN076AAXX  15074 06669 43/// /0000 11023 21025 39174 48445 53028 333 91100 91200;
0137066690999992010011508004+47483+008400FM-12+084399999V0209999C000019999999N9999999N1-00221-00241999999ADDMA1999999091811MD1119999+9999ME1314519OA149900001REMSYN076AAXX  15084 06669 43/// /0000 11022 21024 39181 48451 51/// 333 91100 91200;
0137066690999992010011509004+47483+008400FM-12+084399999V0209999C000019999999N9999999N1-00231-00251999999ADDMA1999999091901MD1310251+9999ME1314599OA149900001REMSYN076AAXX  15094 06669 43/// /0000 11023 21025 39190 48459 53025 333 91100 91200;
0137066690999992010011510004+47483+008400FM-12+084399999V0209999C000019999999N9999999N1-00201-00241999999ADDMA1999999091951MD1110211+9999ME1314649OA149900001REMSYN076AAXX  15104 06669 43/// /0000 11020 21024 39195 48464 51021 333 91100 91200;
0137066690999992010011511004+47483+008400FM-12+084399999V0209999C000019999999N9999999N1-00191-00221999999ADDMA1999999091991MD1110181+9999ME1314679OA149900001REMSYN076AAXX  15114 06669 43/// /0000 11019 21022 39199 48467 51018 333 91100 91200;
0137066690999992010011512004+47483+008400FM-12+084399999V0209999C000019999999N9999999N1-00181-00181999999ADDMA1999999092011MD1210111+9999ME1314699OA149900051REMSYN076AAXX  15124 06669 43/// /0000 11018 21018 39201 48469 52011 333 91101 91200;
0137066690999992010011513004+47483+008400FM-12+084399999V0209999C000019999999N9999999N1-00151-00191999999ADDMA1999999092071MD1210121+9999ME1314759OA149900001REMSYN076AAXX  15134 06669 43/// /0000 11015 21019 39207 48475 52012 333 91100 91200;
0137066690999992010011514004+47483+008400FM-12+084399999V0209999C000019999999N9999999N1-00141-00181999999ADDMA1999999092131MD1210141+9999ME1314809OA149900001REMSYN076AAXX  15144 06669 43/// /0000 11014 21018 39213 48480 52014 333 91100 91200;
0137066690999992010011515004+47483+008400FM-12+084399999V0209999C000019999999N9999999N1-00171-00171999999ADDMA1999999092201MD1310191+9999ME1314869OA149900001REMSYN076AAXX  15154 06669 43/// /0000 11017 21017 39220 48486 53019 333 91100 91200;
0137066690999992010011516004+47483+008400FM-12+084399999V0209999C000019999999N9999999N1-00181-00181999999ADDMA1999999092251MD1310181+9999ME1314909OA149900001REMSYN076AAXX  15164 06669 43/// /0000 11018 21018 39225 48490 53018 333 91100 91200;
0137066690999992010011517004+47483+008400FM-12+084399999V0209999C000019999999N9999999N1-00211-00211999999ADDMA1999999092291MD1110161+9999ME1314929OA149900001REMSYN076AAXX  15174 06669 43/// /0000 11021 21021 39229 48492 51016 333 91100 91200;
0156066690999992010011518004+47483+008400FM-12+084399999V0209999C000019999999N9999999N1-00241-00241999999ADDKA1120M-00141MA1999999092311MD1210111+9999ME1314939OA149900001REMSYN082AAXX  15184 06669 43/// /0000 11024 21024 39231 48493 52011 333 11014 91100 91200;
0137066690999992010011519004+47483+008400FM-12+084399999V0209999C000019999999N9999999N1-00221-00221999999ADDMA1999999092331MD1210081+9999ME1314969OA149900001REMSYN076AAXX  15194 06669 43/// /0000 11022 21022 39233 48496 52008 333 91100 91200;
0137066690999992010011520004+47483+008400FM-12+084399999V0209999C000019999999N9999999N1-00261-00261999999ADDMA1999999092351MD1210061+9999ME1314969OA149900001REMSYN076AAXX  15204 06669 43/// /0000 11026 21026 39235 48496 52006 333 91100 91200;
0137066690999992010011521004+47483+008400FM-12+084399999V0209999C000019999999N9999999N1-00261-00261999999ADDMA1999999092331MD1010021+9999ME1314959OA149900001REMSYN076AAXX  15214 06669 43/// /0000 11026 21026 39233 48495 50002 333 91100 91200;
0137066690999992010011522004+47483+008400FM-12+084399999V0209999C000019999999N9999999N1-00251-00251999999ADDMA1999999092341MD1210011+9999ME1314969OA149900051REMSYN076AAXX  15224 06669 43/// /0000 11025 21025 39234 48496 52001 333 91101 91200;
0137066690999992010011523004+47483+008400FM-12+084399999V0209999C000019999999N9999999N1-00271-00271999999ADDMA1999999092351MD1410001+9999ME1314969OA149900051REMSYN076AAXX  15234 06669 43/// /0000 11027 21027 39235 48496 53000 333 91101 91200;
0137066690999992010011600004+47483+008400FM-12+084399999V0209999C000019999999N9999999N1-00271-00291999999ADDMA1999999092311MD1810021+9999ME1314939OA149900051REMSYN076AAXX  16004 06669 43/// /0000 11027 21029 39231 48493 58002 333 91101 91200;
0137066690999992010011601004+47483+008400FM-12+084399999V0209999C000019999999N9999999N1-00281-00281999999ADDMA1999999092301MD1710041+9999ME1314919OA149900051REMSYN076AAXX  16014 06669 43/// /0000 11028 21028 39230 48491 57004 333 91101 91200;
0137066690999992010011602004+47483+008400FM-12+084399999V0209999C000019999999N9999999N1-00291-00301999999ADDMA1999999092261MD1710091+9999ME1314889OA149900051REMSYN076AAXX  16024 06669 43/// /0000 11029 21030 39226 48488 57009 333 91101 91200;
0137066690999992010011603004+47483+008400FM-12+084399999V0209999C000019999999N9999999N1-00321-00321999999ADDMA1999999092241MD1719999+9999ME1314859OA149900051REMSYN076AAXX  16034 06669 43/// /0000 11032 21032 39224 48485 57/// 333 91101 91200;
0137066690999992010011604004+47483+008400FM-12+084399999V0209999C000019999999N9999999N1-00341-00341999999ADDMA1999999092221MD1710081+9999ME1314839OA149900001REMSYN076AAXX  16044 06669 43/// /0000 11034 21034 39222 48483 57008 333 91100 91200;
0137066690999992010011605004+47483+008400FM-12+084399999V0209999C000019999999N9999999N1-00351-00351999999ADDMA1999999092141MD1710121+9999ME1314769OA149900051REMSYN076AAXX  16054 06669 43/// /0000 11035 21035 39214 48476 57012 333 91101 91200;
0170066690999992010011606004+47483+008400FM-12+084399999V0209999C000019999999N9999999N1-00381-00381999999ADDGJ100009KA1999N-00371MA1999999092121MD1710121+9999ME1314749OA149900051REMSYN088AAXX  16064 06669 43/// /0000 11038 21038 39212 48474 57012 333 21037 55000 91101 91200;
0137066690999992010011607004+47483+008400FM-12+084399999V0209999C000019999999N9999999N1-00401-00401999999ADDMA1999999092061MD1710161+9999ME1314689OA149900051REMSYN076AAXX  16074 06669 43/// /0000 11040 21040 39206 48468 57016 333 91101 91200;
0137066690999992010011608004+47483+008400FM-12+084399999V0209999C000019999999N9999999N1-00401-00401999999ADDMA1999999092011MD1710131+9999ME1314649OA149900051REMSYN076AAXX  16084 06669 43/// /0000 11040 21040 39201 48464 57013 333 91101 91200;
0137066690999992010011609004+47483+008400FM-12+084399999V0209999C000019999999N9999999N1-00401-00401999999ADDMA1999999091971MD1710151+9999ME1314619OA149900051REMSYN076AAXX  16094 06669 43/// /0000 11040 21040 39197 48461 57015 333 91101 91200;
0137066690999992010011610004+47483+008400FM-12+084399999V0209999C000019999999N9999999N1-00431-00431999999ADDMA1999999091951MD1710111+9999ME1314589OA149900051REMSYN076AAXX  16104 06669 43/// /0000 11043 21043 39195 48458 57011 333 91101 91200;
0137066690999992010011611004+47483+008400FM-12+084399999V0209999C000019999999N9999999N1-00411-00431999999ADDMA1999999091891MD1710121+9999ME1314549OA149900001REMSYN076AAXX  16114 06669 43/// /0000 11041 21043 39189 48454 57012 333 91100 91200;
0137066690999992010011612004+47483+008400FM-12+084399999V0209999C000019999999N9999999N1-00381-00431999999ADDMA1999999091861MD1710111+9999ME1314529OA149900051REMSYN076AAXX  16124 06669 43/// /0000 11038 21043 39186 48452 57011 333 91101 91200;
0137066690999992010011613004+47483+008400FM-12+084399999V0209999C000019999999N9999999N1-00361-00411999999ADDMA1999999091821MD1710131+9999ME1314499OA149900001REMSYN076AAXX  16134 06669 43/// /0000 11036 21041 39182 48449 57013 333 91100 91200;
0137066690999992010011614004+47483+008400FM-12+084399999V0209999C000019999999N9999999N1-00371-00411999999ADDMA1999999091741MD1719999+9999ME1314429OA149900001REMSYN076AAXX  16144 06669 43/// /0000 11037 21041 39174 48442 57/// 333 91100 91200;
0137066690999992010011615004+47483+008400FM-12+084399999V0209999C000019999999N9999999N1-00351-00411999999ADDMA1999999091721MD1710141+9999ME1314419OA149900001REMSYN076AAXX  16154 06669 43/// /0000 11035 21041 39172 48441 57014 333 91100 91200;
0137066690999992010011616004+47483+008400FM-12+084399999V0209999C000019999999N9999999N1-00331-00421999999ADDMA1999999091701MD1710121+9999ME1314399OA149900001REMSYN076AAXX  16164 06669 43/// /0000 11033 21042 39170 48439 57012 333 91100 91200;
0137066690999992010011617004+47483+008400FM-12+084399999V0209999C000019999999N9999999N1-00311-00401999999ADDMA1999999091681MD1710061+9999ME1314389OA149900001REMSYN076AAXX  16174 06669 43/// /0000 11031 21040 39168 48438 57006 333 91100 91200;
0156066690999992010011618004+47483+008400FM-12+084399999V0209999C000019999999N9999999N1-00281-00391999999ADDKA1120M-00221MA1999999091681MD1710041+9999ME1314399OA149900051REMSYN082AAXX  16184 06669 43/// /0000 11028 21039 39168 48439 57004 333 11022 91101 91200;
0137066690999992010011619004+47483+008400FM-12+084399999V0209999C000019999999N9999999N1-00181-00331999999ADDMA1999999091601MD1710101+9999ME1314349OA149900051REMSYN076AAXX  16194 06669 43/// /0000 11018 21033 39160 48434 57010 333 91101 91200;
0137066690999992010011620004+47483+008400FM-12+084399999V0209999C000019999999N9999999N1-00121-00251999999ADDMA1999999091601MD1710081+9999ME1314369OA149900051REMSYN076AAXX  16204 06669 43/// /0000 11012 21025 39160 48436 57008 333 91101 91200;
0137066690999992010011621004+47483+008400FM-12+084399999V0209999C000019999999N9999999N1-00131-00191999999ADDMA1999999091501MD1710181+9999ME1314279OA149900051REMSYN076AAXX  16214 06669 43/// /0000 11013 21019 39150 48427 57018 333 91101 91200;
0137066690999992010011622004+47483+008400FM-12+084399999V0209999C000019999999N9999999N1-00041-00071999999ADDMA1999999091521MD1710081+9999ME1314319OA149900051REMSYN076AAXX  16224 06669 43/// /0000 11004 21007 39152 48431 57008 333 91101 91200;
0137066690999992010011623004+47483+008400FM-12+084399999V0209999C000019999999N9999999N1+00061+00031999999ADDMA1999999091511MD1510091+9999ME1314329OA149900051REMSYN076AAXX  16234 06669 43/// /0000 10006 20003 39151 48432 55009 333 91101 91200;
0137066690999992010011700004+47483+008400FM-12+084399999V0201901N010819999999N9999999N1+00111+00091999999ADDMA1999999091551MD1210051+9999ME1314369OA149901901REMSYN076AAXX  17004 06669 43/// /1921 10011 20009 39155 48436 52005 333 91137 91221;
0137066690999992010011701004+47483+008400FM-12+084399999V0201901N009819999999N9999999N1+00101+00081999999ADDMA1999999091591MD1210071+9999ME1314409OA149901961REMSYN076AAXX  17014 06669 43/// /1919 10010 20008 39159 48440 52007 333 91138 91223;
0137066690999992010011702004+47483+008400FM-12+084399999V0201901N010819999999N9999999N1+00121+00081999999ADDMA1999999091531MD1019999+9999ME1314359OA149902011REMSYN076AAXX  17024 06669 43/// /1921 10012 20008 39153 48435 50/// 333 91139 91224;
0096066690999992010011703004+47483+008400FM-12+084399999V0202001N010319999999N9999999N1+00121+00101999999ADDMA1999999091501ME1314329REMSYN060AAXX  17034 06669 43/// /2020 10012 20010 39150 48432 5////;
0137066690999992010011704004+47483+008400FM-12+084399999V0202001N010819999999N9999999N1+00161+00121999999ADDMA1999999091521MD1510071+9999ME1314359OA149902011REMSYN076AAXX  17044 06669 43/// /2021 10016 20012 39152 48435 55007 333 91139 91223;
0137066690999992010011705004+47483+008400FM-12+084399999V0202001N011819999999N9999999N1+00211+00161999999ADDMA1999999091481MD1719999+9999ME1314339OA149902061REMSYN076AAXX  17054 06669 43/// /2023 10021 20016 39148 48433 57/// 333 91140 91224;
0170066690999992010011706004+47483+008400FM-12+084399999V0202001N011819999999N9999999N1+00181+00141999999ADDGJ100009KA1999N-00301MA1999999091491MD1010011+9999ME1314339OA149902261REMSYN088AAXX  17064 06669 43/// /2023 10018 20014 39149 48433 50001 333 21030 55000 91144 91225;
0137066690999992010011707004+47483+008400FM-12+084399999V0202001N010819999999N9999999N1+00191+00181999999ADDMA1999999091561MD1310041+9999ME1314399OA149902261REMSYN076AAXX  17074 06669 43/// /2021 10019 20018 39156 48439 53004 333 91144 91225;
0137066690999992010011708004+47483+008400FM-12+084399999V0202101N011819999999N9999999N1+00241+00211999999ADDMA1999999091591MD1219999+9999ME1314439OA149902111REMSYN076AAXX  17084 06669 43/// /2123 10024 20021 39159 48443 52/// 333 91141 91224;
0137066690999992010011709004+47483+008400FM-12+084399999V0202101N009819999999N9999999N1+00241+00231999999ADDMA1999999091701MD1210211+9999ME1314529OA149902261REMSYN076AAXX  17094 06669 43/// /2119 10024 20023 39170 48452 52021 333 91144 91225;
0137066690999992010011710004+47483+008400FM-12+084399999V0202101N007219999999N9999999N1+00241+00241999999ADDMA1999999091831MD1210271+9999ME1314649OA149902061REMSYN076AAXX  17104 06669 43/// /2114 10024 20024 39183 48464 52027 333 91140 91223;
0137066690999992010011711004+47483+008400FM-12+084399999V0202201N007219999999N9999999N1+00251+00251999999ADDMA1999999091891MD1210301+9999ME1314699OA149901851REMSYN076AAXX  17114 06669 43/// /2214 10025 20025 39189 48469 52030 333 91136 91219;
0137066690999992010011712004+47483+008400FM-12+084399999V0202301N006719999999N9999999N1+00241+00161999999ADDMA1999999091951MD1210251+9999ME1314749OA149902261REMSYN076AAXX  17124 06669 43/// /2313 10024 20016 39195 48474 52025 333 91144 91225;
0137066690999992010011713004+47483+008400FM-12+084399999V0202301N004119999999N9999999N1+00271+00041999999ADDMA1999999092031MD1210201+9999ME1314829OA149901851REMSYN076AAXX  17134 06669 43/// /2308 10027 20004 39203 48482 52020 333 91136 91214;
0137066690999992010011714004+47483+008400FM-12+084399999V0202301N003619999999N9999999N1+00261-00011999999ADDMA1999999092111MD1219999+9999ME1314889OA149901851REMSYN076AAXX  17144 06669 43/// /2307 10026 21001 39211 48488 52/// 333 91136 91214;
0137066690999992010011715004+47483+008400FM-12+084399999V0202601N006219999999N9999999N1+00181+00051999999ADDMA1999999092201MD1210251+9999ME1314949OA149901851REMSYN076AAXX  17154 06669 43/// /2612 10018 20005 39220 48494 52025 333 91136 91219;
0137066690999992010011716004+47483+008400FM-12+084399999V0202301N004619999999N9999999N1+00131-00131999999ADDMA1999999092291MD1210261+9999ME1315019OA149901441REMSYN076AAXX  17164 06669 43/// /2309 10013 21013 39229 48501 52026 333 91128 91214;
0137066690999992010011717004+47483+008400FM-12+084399999V0202201N005119999999N9999999N1+00171-00131999999ADDMA1999999092361MD1210251+9999ME1315089OA149901441REMSYN076AAXX  17174 06669 43/// /2210 10017 21013 39236 48508 52025 333 91128 91214;
0156066690999992010011718004+47483+008400FM-12+084399999V0202201N004619999999N9999999N1+00191-00131999999ADDKA1120M+00271MA1999999092431MD1210231+9999ME1315149OA149902111REMSYN082AAXX  17184 06669 43/// /2209 10019 21013 39243 48514 52023 333 10027 91141 91224;
0137066690999992010011719004+47483+008400FM-12+084399999V0202101N004619999999N9999999N1+00181-00121999999ADDMA1999999092481MD1110191+9999ME1315189OA149900771REMSYN076AAXX  17194 06669 43/// /2109 10018 21012 39248 48518 51019 333 91115 91210;
0137066690999992010011720004+47483+008400FM-12+084399999V0202101N005119999999N9999999N1+00161-00131999999ADDMA1999999092491MD1210131+9999ME1315199OA149900771REMSYN076AAXX  17204 06669 43/// /2110 10016 21013 39249 48519 52013 333 91115 91210;
0137066690999992010011721004+47483+008400FM-12+084399999V0202201N004119999999N9999999N1+00151-00131999999ADDMA1999999092501MD1210071+9999ME1315199OA149901441REMSYN076AAXX  17214 06669 43/// /2208 10015 21013 39250 48519 52007 333 91128 91214;
0137066690999992010011722004+47483+008400FM-12+084399999V0202301N005119999999N9999999N1+00121-00131999999ADDMA1999999092501MD1010021+9999ME1315199OA149900881REMSYN076AAXX  17224 06669 43/// /2310 10012 21013 39250 48519 50002 333 91117 91210;
0137066690999992010011723004+47483+008400FM-12+084399999V0202401N005119999999N9999999N1+00121-00141999999ADDMA1999999092511MD1210021+9999ME1315199OA149900931REMSYN076AAXX  17234 06669 43/// /2410 10012 21014 39251 48519 52002 333 91118 91211;
0137066690999992010011800004+47483+008400FM-12+084399999V0202501N003619999999N9999999N1+00171-00241999999ADDMA1999999092501MD1010001+9999ME1315209OA149901851REMSYN076AAXX  18004 06669 43/// /2507 10017 21024 39250 48520 50000 333 91136 91214;
0137066690999992010011801004+47483+008400FM-12+084399999V0202501N003119999999N9999999N1+00151-00201999999ADDMA1999999092511MD1010011+9999ME1315209OA149900771REMSYN076AAXX  18014 06669 43/// /2506 10015 21020 39251 48520 50001 333 91115 91209;
