0210066600999992010010100004+47383+008567FM-12+056999999V0209999C000010180019N0070001N1+00401+00321099271ADDAY121061AY221061GA1071+018001031GF107991071001017501031999MA1999999092741MD1810131+9999MW1041OA149900571REMSYN094AAXX  01004 06660 31757 70000 10040 20032 39274 49927 58013 70422 8703/ 333 87356 91111 91205;
0128066600999992010010101004+47383+008567FM-12+056999999V0200901N000519999999N9999999N1+00411+00321099241ADDMA1999999092711MD1810111+9999OA149900151REMSYN076AAXX  01014 06660 33/// /0901 10041 20032 39271 49924 58011 333 91103 91201;
0128066600999992010010102004+47383+008567FM-12+056999999V0200501N002119999999N9999999N1+00361+00301099231ADDMA1999999092691MD1719999+9999OA149900311REMSYN076AAXX  01024 06660 33/// /0504 10036 20030 39269 49923 57/// 333 91106 91204;
0087066600999992010010103004+47383+008567FM-12+056999999V0200601N001019999999N9999999N1+00391+00311099141ADDMA1999999092621REMSYN060AAXX  01034 06660 43/// /0602 10039 20031 39262 49914 5////;
0087066600999992010010104004+47383+008567FM-12+056999999V0202201N000519999999N9999999N1+00391+00281099111ADDMA1999999092591REMSYN060AAXX  01044 06660 33/// /2201 10039 20028 39259 49911 5////;
0128066600999992010010105004+47383+008567FM-12+056999999V0209999C000019999999N9999999N1+00351+00291099091ADDMA1999999092561MD1610131+9999OA149900211REMSYN076AAXX  01054 06660 33/// /0000 10035 20029 39256 49909 56013 333 91104 91202;
0304066600999992010010106004+47383+008567FM-12+056999999V0203501N000510001519N0001001N1+00351+00271099081ADDAA124004391AL11800491AL29900091AY141061AY221061GA1091+999999999GF109991091999999999999999GJ100009IA1119IA2999+00109KA1999N+00311MA1999999092551MD1610071+9999MW1471OA149900411REMSYN118AAXX  01064 06660 31/01 93501 10035 20027 39255 49908 56007 74742 333 20031 32001 55000 70043 90768 93100 91108 91206;
0128066600999992010010107004+47383+008567FM-12+056999999V0200601N001019999999N9999999N1+00241+00221099101ADDMA1999999092541MD1610051+9999OA149900311REMSYN076AAXX  01074 06660 33/// /0602 10024 20022 39254 49910 56005 333 91106 91204;
0128066600999992010010108004+47383+008567FM-12+056999999V0200801N001019999999N9999999N1+00211+00161099151ADDMA1999999092581MD1310021+9999OA149900311REMSYN076AAXX  01084 06660 33/// /0802 10021 20016 39258 49915 53002 333 91106 91204;
0198066600999992010010109004+47383+008567FM-12+056999999V0201801N000510003019N0005001N1+00281+00211099171ADDAY141031AY241031GA1091+999999999GF109991091999999999999999MA1999999092621MD1210071+9999MW1451OA149900311REMSYN082AAXX  01094 06660 31/05 91801 10028 20021 39262 49917 52007 74544 333 91106 91204;
0128066600999992010010110004+47383+008567FM-12+056999999V0200501N002119999999N9999999N1+00261+00241099251ADDMA1999999092691MD1310151+9999OA149900361REMSYN076AAXX  01104 06660 33/// /0504 10026 20024 39269 49925 53015 333 91107 91204;
0128066600999992010010111004+47383+008567FM-12+056999999V0200401N001519999999N9999999N1+00221+00171099281ADDMA1999999092711MD1110131+9999OA149900411REMSYN076AAXX  01114 06660 33/// /0403 10022 20017 39271 49928 51013 333 91108 91204;
0198066600999992010010112004+47383+008567FM-12+056999999V0202601N000510003019N0003001N1+00291+00221099271ADDAY141061AY241061GA1091+999999999GF109991091999999999999999MA1999999092711MD1210091+9999MW1451OA149900411REMSYN082AAXX  01124 06660 31/03 92601 10029 20022 39271 49927 52009 74544 333 91108 91206;
0128066600999992010010113004+47383+008567FM-12+056999999V0202501N001019999999N9999999N1+00321+00251099291ADDMA1999999092741MD1210051+9999OA149900211REMSYN076AAXX  01134 06660 33/// /2502 10032 20025 39274 49929 52005 333 91104 91202;
0128066600999992010010114004+47383+008567FM-12+056999999V0203401N000519999999N9999999N1+00361+00251099341ADDMA1999999092801MD1219999+9999OA149900211REMSYN076AAXX  01144 06660 33/// /3401 10036 20025 39280 49934 52/// 333 91104 91202;
0227066600999992010010115004+47383+008567FM-12+056999999V0203601N000510006019N0025001N1+00371+00261099451ADDAA101000021AY161031AY241031GA1081+000601071GF108991081071000251999999MA1999999092901MD1310191+9999MW1601OA149900411REMSYN100AAXX  01154 06660 21025 83601 10037 20026 39290 49945 53019 76064 887// 333 69915 88702 91108 91204;
0145066600999992010010116004+47383+008567FM-12+056999999V0203201N001519999999N9999999N1+00371+00271099561ADDAA101000021MA1999999093001MD1310261+9999OA149900311REMSYN082AAXX  01164 06660 23/// /3203 10037 20027 39300 49956 53026 333 69915 91106 91203;
0145066600999992010010117004+47383+008567FM-12+056999999V0202901N003119999999N9999999N1+00271+00151099731ADDAA101001091MA1999999093141MD1310341+9999OA149901031REMSYN082AAXX  01174 06660 23/// /2906 10027 20015 39314 49973 53034 333 60015 91120 91208;
0308066600999992010010118004+47383+008567FM-12+056999999V0202801N004110036019N0045001N1+00201+00101099911ADDAA112003091AL19900091AY161061AY241061GA1031+001501071GA2081+003601051GF108991031071001501021999IA1119KA1120M+00381MA1999999093291MD1310391+9999MW1631OA149901031REMSYN136AAXX  01184 06660 01245 82808 10020 20010 39329 49991 53039 60032 76364 8372/ 333 10038 32/// 60015 83705 88512 90766 93100 91120 91208;
0145066600999992010010119004+47383+008567FM-12+056999999V0202501N004619999999N9999999N1+00111+00031100131ADDAA101001091MA1999999093471MD1310471+9999OA149900981REMSYN082AAXX  01194 06660 23/// /2509 10011 20003 39347 40013 53047 333 60015 91119 91209;
0145066600999992010010120004+47383+008567FM-12+056999999V0202701N004119999999N9999999N1+00051-00041100311ADDAA101001091MA1999999093631MD1210491+9999OA149900931REMSYN082AAXX  01204 06660 23/// /2708 10005 21004 39363 40031 52049 333 60015 91118 91210;
0145066600999992010010121004+47383+008567FM-12+056999999V0202601N003619999999N9999999N1+00031-00051100461ADDAA101000591MA1999999093761MD1110471+9999OA149901031REMSYN082AAXX  01214 06660 23/// /2607 10003 21005 39376 40046 51047 333 69955 91120 91210;
0128066600999992010010122004+47383+008567FM-12+056999999V0202701N004119999999N9999999N1+00031-00141100551ADDMA1999999093851MD1110381+9999OA149900981REMSYN076AAXX  01224 06660 33/// /2708 10003 21014 39385 40055 51038 333 91119 91210;
0128066600999992010010123004+47383+008567FM-12+056999999V0202901N003619999999N9999999N1-00011-00171100691ADDMA1999999093971MD1110341+9999OA149900881REMSYN076AAXX  01234 06660 33/// /2907 11001 21017 39397 40069 51034 333 91117 91208;
0277066600999992010010200004+47383+008567FM-12+056999999V0202701N005110036019N0080001N1-00091-00341100801ADDAA106003091AY171061AY221061GA1021+001501071GA2041+003601061GA3071+006601061GF108991081051001501999999MA1999999094051MD1310291+9999MW1711OA149901241REMSYN118AAXX  02004 06660 01258 82710 11009 21034 39405 40080 53029 60031 77172 885// 333 60005 82705 84612 87622 91124 91210;
0128066600999992010010201004+47383+008567FM-12+056999999V0202701N005119999999N9999999N1-00141-00401100931ADDMA1999999094161MD1210311+9999OA149901241REMSYN076AAXX  02014 06660 33/// /2710 11014 21040 39416 40093 52031 333 91124 91212;
0108066600999992010010202004+47383+008567FM-12+056999999V0202801N004619999999N9999999N1-00181-00361101071ADDAA101000021MA1999999094281REMSYN070AAXX  02024 06660 23/// /2809 11018 21036 39428 40107 5//// 333 69925;
0128066600999992010010203004+47383+008567FM-12+056999999V0202501N004119999999N9999999N1-00171-00511101161ADDMA1999999094371MD1110321+9999OA149901241REMSYN076AAXX  02034 06660 33/// /2508 11017 21051 39437 40116 51032 333 91124 91212;
0128066600999992010010204004+47383+008567FM-12+056999999V0202701N004619999999N9999999N1-00181-00561101251ADDMA1999999094451MD1110291+9999OA149901081REMSYN076AAXX  02044 06660 33/// /2709 11018 21056 39445 40125 51029 333 91121 91210;
0128066600999992010010205004+47383+008567FM-12+056999999V0202701N005119999999N9999999N1-00181-00561101341ADDMA1999999094531MD1110251+9999OA149900981REMSYN076AAXX  02054 06660 33/// /2710 11018 21056 39453 40134 51025 333 91119 91210;
0406066600999992010010206004+47383+008567FM-12+056999999V0202501N003110030019N0100001N1-00191-00531101401ADDAA112003091AA224005691AJ100019199999999AL14200591AL29900191AY171061AY221061GA1021+001501071GA2031+003001061GA3071+007501061GF107991071051001501999999GJ100009IA1279IA2999-00309KA1999N-00201MA1999999094591MD1210221+9999MW1101OA149901241REMSYN160AAXX  02064 06660 01260 72506 11019 21053 39459 40140 52022 60032 71072 875// 333 21020 3/103 43001 55000 60005 70057 82705 83610 87625 90768 93101 91124 91212;
0128066600999992010010207004+47383+008567FM-12+056999999V0202601N003119999999N9999999N1-00241-00651101521ADDMA1999999094691MD1210241+9999OA149900881REMSYN076AAXX  02074 06660 33/// /2606 11024 21065 39469 40152 52024 333 91117 91209;
0087066600999992010010208004+47383+008567FM-12+056999999V0202801N004619999999N9999999N1-00261-00691101631ADDMA1999999094781REMSYN060AAXX  02084 06660 33/// /2809 11026 21069 39478 40163 5////;
0232066600999992010010209004+47383+008567FM-12+056999999V0202801N004110084019N0150001N1-00251-00721101731ADDAY171031AY221031GA1021+005401071GA2051+008401061GF105991051051004501001001MA1999999094881MD1210291+9999MW1051OA149900981REMSYN100AAXX  02094 06660 31465 52808 11025 21072 39488 40173 52029 70572 85500 333 82718 85628 91119 91210;
0128066600999992010010210004+47383+008567FM-12+056999999V0202801N005119999999N9999999N1-00201-00671101831ADDMA1999999094981MD1210291+9999OA149900931REMSYN076AAXX  02104 06660 33/// /2810 11020 21067 39498 40183 52029 333 91118 91210;
0128066600999992010010211004+47383+008567FM-12+056999999V0202501N003119999999N9999999N1-00201-00651101891ADDMA1999999095041MD1110261+9999OA149900931REMSYN076AAXX  02114 06660 33/// /2506 11020 21065 39504 40189 51026 333 91118 91210;
0210066600999992010010212004+47383+008567FM-12+056999999V0202601N002610096019N0140001N1-00201-00781101961ADDAY121061AY221061GA1051+009601061GF105991051051008001001001MA1999999095111MD1110231+9999MW1051OA149901241REMSYN094AAXX  02124 06660 31564 52605 11020 21078 39511 40196 51023 70522 85500 333 85632 91124 91212;
0128066600999992010010213004+47383+008567FM-12+056999999V0202601N004119999999N9999999N1-00101-00731102011ADDMA1999999095181MD1310201+9999OA149900671REMSYN076AAXX  02134 06660 33/// /2608 11010 21073 39518 40201 53020 333 91113 91208;
0128066600999992010010214004+47383+008567FM-12+056999999V0202601N002619999999N9999999N1-00151-00821102101ADDMA1999999095251MD1219999+9999OA149900671REMSYN076AAXX  02144 06660 33/// /2605 11015 21082 39525 40210 52/// 333 91113 91208;
0182066600999992010010215004+47383+008567FM-12+056999999V0202701N002112200019N0200001N1-00161-00861102171ADDGA1021+009601061GF103991021051008001001011MA1999999095311MD1210201+9999OA149900931REMSYN088AAXX  02154 06660 32570 32704 11016 21086 39531 40217 52020 82501 333 82632 91118 91210;
0128066600999992010010216004+47383+008567FM-12+056999999V0202501N001519999999N9999999N1-00231-00891102251ADDMA1999999095371MD1210191+9999OA149900571REMSYN076AAXX  02164 06660 33/// /2503 11023 21089 39537 40225 52019 333 91111 91207;
0128066600999992010010217004+47383+008567FM-12+056999999V0202901N002119999999N9999999N1-00271-00871102341ADDMA1999999095441MD1310191+9999OA149900571REMSYN076AAXX  02174 06660 33/// /2904 11027 21087 39544 40234 53019 333 91111 91207;
0271066600999992010010218004+47383+008567FM-12+056999999V0202701N002612200019N0200001N1-00301-00821102391ADDAJ199992999999999AL19900091GA1031+014401061GF103991031051012501001001IA1309KA1120M-00091MA1999999095481MD1110171+9999OA149900981REMSYN112AAXX  02184 06660 32670 32705 11030 21082 39548 40239 51017 83500 333 11009 42998 83648 90766 93100 91119 91210;EQDQ01  09982SNDP  
0128066600999992010010219004+47383+008567FM-12+056999999V0202801N002119999999N9999999N1-00341-00871102431ADDMA1999999095511MD1110141+9999OA149900461REMSYN076AAXX  02194 06660 33/// /2804 11034 21087 39551 40243 51014 333 91109 91205;
0128066600999992010010220004+47383+008567FM-12+056999999V0209999C000019999999N9999999N1-00431-00771102471ADDMA1999999095521MD1210081+9999OA149900461REMSYN076AAXX  02204 06660 33/// /0000 11043 21077 39552 40247 52008 333 91109 91205;
0128066600999992010010221004+47383+008567FM-12+056999999V0201901N001019999999N9999999N1-00451-00751102461ADDMA1999999095511MD1210031+9999OA149900571REMSYN076AAXX  02214 06660 33/// /1902 11045 21075 39551 40246 52003 333 91111 91207;
0128066600999992010010222004+47383+008567FM-12+056999999V0201801N001019999999N9999999N1-00481-00711102481ADDMA1999999095521MD1510011+9999OA149900261REMSYN076AAXX  02224 06660 33/// /1802 11048 21071 39552 40248 55001 333 91105 91203;
0128066600999992010010223004+47383+008567FM-12+056999999V0201801N001519999999N9999999N1-00471-00701102491ADDMA1999999095531MD1210011+9999OA149900261REMSYN076AAXX  02234 06660 33/// /1803 11047 21070 39553 40249 52001 333 91105 91203;
0170066600999992010010300004+47383+008567FM-12+056999999V0202201N001012200019N0400001N1-00491-00741102481ADDGA1001+999999999GF100991001001999999001001MA1999999095521MD1010011+9999OA149900671REMSYN076AAXX  03004 06660 32982 02202 11049 21074 39552 40248 50001 333 91113 91208;
0128066600999992010010301004+47383+008567FM-12+056999999V0202201N002119999999N9999999N1-00481-00771102501ADDMA1999999095541MD1210021+9999OA149900361REMSYN076AAXX  03014 06660 33/// /2204 11048 21077 39554 40250 52002 333 91107 91204;
0087066600999992010010302004+47383+008567FM-12+056999999V0202001N001019999999N9999999N1-00511-00751102511ADDMA1999999095541REMSYN060AAXX  03024 06660 33/// /2002 11051 21075 39554 40251 5////;
0087066600999992010010303004+47383+008567FM-12+056999999V0201901N002619999999N9999999N1-00541-00791102491ADDMA1999999095511REMSYN060AAXX  03034 06660 33/// /1905 11054 21079 39551 40249 5////;
0128066600999992010010304004+47383+008567FM-12+056999999V0202101N002119999999N9999999N1-00531-00861102441ADDMA1999999095471MD1710071+9999OA149900511REMSYN076AAXX  03044 06660 33/// /2104 11053 21086 39547 40244 57007 333 91110 91206;
0128066600999992010010305004+47383+008567FM-12+056999999V0201901N001019999999N9999999N1-00651-00881102491ADDMA1999999095491MD1519999+9999OA149900511REMSYN076AAXX  03054 06660 33/// /1902 11065 21088 39549 40249 55/// 333 91110 91206;
0320066600999992010010306004+47383+008567FM-12+056999999V0201901N001012200019N0200001N1-00611-00911102441ADDAA124000091AJ100019199999999AL19900091GA1031+060001001GF103991001001999999001061GJ101749IA1309IA2999-00909KA1999N-00651MA1999999095451MD1810061+9999OA149900511REMSYN130AAXX  03064 06660 32970 31902 11061 21091 39545 40244 58006 80006 333 21065 3/109 42001 55029 70000 83070 90768 93100 91110 91206;EQDQ01  00002PRCP24
0147066600999992010010307004+47383+008567FM-12+056999999V0201701N001519999999N9999999N1-00611-00931102461ADDMA1999999095471MD1710021+9999OA149900261REMSYN076AAXX  03074 06660 33/// /1703 11061 21093 39547 40246 57000 333 91105 91203;EQDQ01+000002APC3  
0128066600999992010010308004+47383+008567FM-12+056999999V0201901N001519999999N9999999N1-00611-00981102461ADDMA1999999095471MD1519999+9999OA149900411REMSYN076AAXX  03084 06660 33/// /1903 11061 21098 39547 40246 55/// 333 91108 91205;
0182066600999992010010309004+47383+008567FM-12+056999999V0202001N002112200019N0300001N1-00481-00921102461ADDGA1011+063001001GF101991001001999999001011MA1999999095501MD1210051+9999OA149900511REMSYN088AAXX  03094 06660 32980 12004 11048 21092 39550 40246 52005 80001 333 81071 91110 91206;
0128066600999992010010310004+47383+008567FM-12+056999999V0201901N001519999999N9999999N1-00391-00901102431ADDMA1999999095501MD1210031+9999OA149900461REMSYN076AAXX  03104 06660 33/// /1903 11039 21090 39550 40243 52003 333 91109 91204;
0128066600999992010010311004+47383+008567FM-12+056999999V0201901N001519999999N9999999N1-00261-00971102261ADDMA1999999095371MD1810101+9999OA149900461REMSYN076AAXX  03114 06660 33/// /1903 11026 21097 39537 40226 58010 333 91109 91204;
0182066600999992010010312004+47383+008567FM-12+056999999V0202401N001012200019N0200001N1-00241-00981102201ADDGA1011+063001021GF101991001001999999001051MA1999999095321MD1710181+9999OA149900511REMSYN088AAXX  03124 06660 32970 12402 11024 21098 39532 40220 57018 80005 333 81271 91110 91206;
0128066600999992010010313004+47383+008567FM-12+056999999V0202301N001019999999N9999999N1-00161-01121102151ADDMA1999999095291MD1610211+9999OA149900411REMSYN076AAXX  03134 06660 33/// /2302 11016 21112 39529 40215 56021 333 91108 91203;
0128066600999992010010314004+47383+008567FM-12+056999999V0202001N002119999999N9999999N1-00161-01041102141ADDMA1999999095281MD1710091+9999OA149900411REMSYN076AAXX  03144 06660 33/// /2004 11016 21104 39528 40214 57009 333 91108 91204;
0182066600999992010010315004+47383+008567FM-12+056999999V0202001N001512200019N0170001N1-00151-01091102141ADDGA1021+063001001GF102991001001999999001051MA1999999095291MD1510031+9999OA149900461REMSYN088AAXX  03154 06660 32967 22003 11015 21109 39529 40214 55003 80005 333 82071 91109 91204;
0128066600999992010010316004+47383+008567FM-12+056999999V0201801N001019999999N9999999N1-00251-00931102151ADDMA1999999095271MD1810021+9999OA149900361REMSYN076AAXX  03164 06660 33/// /1802 11025 21093 39527 40215 58002 333 91107 91204;
0128066600999992010010317004+47383+008567FM-12+056999999V0201901N001519999999N9999999N1-00301-00891102131ADDMA1999999095241MD1710041+9999OA149900311REMSYN076AAXX  03174 06660 33/// /1903 11030 21089 39524 40213 57004 333 91106 91204;
0252066600999992010010318004+47383+008567FM-12+056999999V0202101N001012200019N0190001N1-00391-00981102141ADDAJ100019199999999AL19900091GA1021+063001001GF102991001001999999001051IA1309KA1120M-00101MA1999999095231MD1710061+9999OA149900461REMSYN112AAXX  03184 06660 32969 22102 11039 21098 39523 40214 57006 80005 333 11010 42001 82071 90766 93100 91109 91205;
0128066600999992010010319004+47383+008567FM-12+056999999V0201901N000519999999N9999999N1-00411-00901102161ADDMA1999999095241MD1710031+9999OA149900211REMSYN076AAXX  03194 06660 33/// /1901 11041 21090 39524 40216 57003 333 91104 91202;
0128066600999992010010320004+47383+008567FM-12+056999999V0201601N001519999999N9999999N1-00471-00911102131ADDMA1999999095201MD1810041+9999OA149900311REMSYN076AAXX  03204 06660 33/// /1603 11047 21091 39520 40213 58004 333 91106 91203;
0128066600999992010010321004+47383+008567FM-12+056999999V0200901N000519999999N9999999N1-00551-00871102121ADDMA1999999095171MD1710061+9999OA149900311REMSYN076AAXX  03214 06660 33/// /0901 11055 21087 39517 40212 57006 333 91106 91204;
0128066600999992010010322004+47383+008567FM-12+056999999V0201101N000519999999N9999999N1-00581-00861102121ADDMA1999999095161MD1710081+9999OA149900311REMSYN076AAXX  03224 06660 33/// /1101 11058 21086 39516 40212 57008 333 91106 91203;
0128066600999992010010323004+47383+008567FM-12+056999999V0209999C000019999999N9999999N1-00631-00841102091ADDMA1999999095121MD1710081+9999OA149900151REMSYN076AAXX  03234 06660 33/// /0000 11063 21084 39512 40209 57008 333 91103 91201;
0182066600999992010010400004+47383+008567FM-12+056999999V0201101N001012200019N0350001N1-00661-01001102051ADDGA1011+024001031GF101991011001022501031001MA1999999095071MD1710101+9999OA149900411REMSYN088AAXX  04004 06660 32881 11102 11066 21100 39507 40205 57010 81030 333 81358 91108 91204;
0128066600999992010010401004+47383+008567FM-12+056999999V0200601N000519999999N9999999N1-00641-00861101971ADDMA1999999095001MD1810161+9999OA149900211REMSYN076AAXX  04014 06660 33/// /0601 11064 21086 39500 40197 58016 333 91104 91203;
0128066600999992010010402004+47383+008567FM-12+056999999V0200601N000519999999N9999999N1-00751-00961101941ADDMA1999999094951MD1710171+9999OA149900311REMSYN076AAXX  04024 06660 33/// /0601 11075 21096 39495 40194 57017 333 91106 91204;
0128066600999992010010403004+47383+008567FM-12+056999999V0200501N002119999999N9999999N1-00781-01041101901ADDMA1999999094901MD1719999+9999OA149900311REMSYN076AAXX  04034 06660 33/// /0504 11078 21104 39490 40190 57/// 333 91106 91204;
0128066600999992010010404004+47383+008567FM-12+056999999V0200401N001019999999N9999999N1-00801-01081101861ADDMA1999999094861MD1710141+9999OA149900361REMSYN076AAXX  04044 06660 33/// /0402 11080 21108 39486 40186 57014 333 91107 91205;
0128066600999992010010405004+47383+008567FM-12+056999999V0209999C000019999999N9999999N1-00751-01111101801ADDMA1999999094821MD1710131+9999OA149900361REMSYN076AAXX  04054 06660 33/// /0000 11075 21111 39482 40180 57013 333 91107 91205;
0320066600999992010010406004+47383+008567FM-12+056999999V0200301N000510180019N0120001N1-00751-01011101821ADDAA124000091AJ100019199999999AL19900091GA1051+018001031GF105991051001017501051001GJ104449IA1309IA2999-01009KA1999N-00821MA1999999094841MD1510061+9999OA149900361REMSYN130AAXX  04064 06660 32762 50301 11075 21101 39484 40182 55006 85050 333 21082 3/110 42001 55074 70000 85356 90768 93100 91107 91205;EQDQ01  00002PRCP24
0128066600999992010010407004+47383+008567FM-12+056999999V0200301N000519999999N9999999N1-00761-01041101811ADDMA1999999094821MD1710041+9999OA149900261REMSYN076AAXX  04074 06660 33/// /0301 11076 21104 39482 40181 57004 333 91105 91203;
0128066600999992010010408004+47383+008567FM-12+056999999V0200501N001519999999N9999999N1-00761-01041101791ADDMA1999999094811MD1810011+9999OA149900311REMSYN076AAXX  04084 06660 33/// /0503 11076 21104 39481 40179 58001 333 91106 91203;
0232066600999992010010409004+47383+008567FM-12+056999999V0200501N001012200019N0140001N1-00681-01011101791ADDAY111031AY211031GA1021+021001031GA2031+060001001GF104991021001022501071021MA1999999094831MD1510011+9999MW1101OA149900361REMSYN100AAXX  04094 06660 31864 40502 11068 21101 39483 40179 55001 71011 82072 333 82357 83070 91107 91205;
0128066600999992010010410004+47383+008567FM-12+056999999V0200401N001519999999N9999999N1-00611-01021101761ADDMA1999999094821MD1010001+9999OA149900411REMSYN076AAXX  04104 06660 33/// /0403 11061 21102 39482 40176 50000 333 91108 91204;
0128066600999992010010411004+47383+008567FM-12+056999999V0202101N000519999999N9999999N1-00461-00841101651ADDMA1999999094751MD1810061+9999OA149900411REMSYN076AAXX  04114 06660 33/// /2101 11046 21084 39475 40165 58006 333 91108 91204;
0210066600999992010010412004+47383+008567FM-12+056999999V0202701N001512200019N0045001N1-00381-00851101551ADDAY111061AY211061GA1011+021001031GF101991011001022501071001MA1999999094681MD1710151+9999MW1101OA149900411REMSYN094AAXX  04124 06660 31845 12703 11038 21085 39468 40155 57015 71011 81070 333 81357 91108 91205;
0128066600999992010010413004+47383+008567FM-12+056999999V0200601N001519999999N9999999N1-00321-00821101461ADDMA1999999094611MD1610211+9999OA149900361REMSYN076AAXX  04134 06660 33/// /0603 11032 21082 39461 40146 56021 333 91107 91203;
0128066600999992010010414004+47383+008567FM-12+056999999V0200501N001019999999N9999999N1-00301-00811101421ADDMA1999999094581MD1619999+9999OA149900361REMSYN076AAXX  04144 06660 33/// /0502 11030 21081 39458 40142 56/// 333 91107 91203;
0210066600999992010010415004+47383+008567FM-12+056999999V0201201N000512200019N0040001N1-00311-00841101411ADDAY101031AY201031GA1011+021001031GF101991011001022501071001MA1999999094571MD1610111+9999MW1051OA149900411REMSYN094AAXX  04154 06660 31840 11201 11031 21084 39457 40141 56011 70500 81070 333 81357 91108 91204;
0128066600999992010010416004+47383+008567FM-12+056999999V0201901N000519999999N9999999N1-00411-00701101451ADDMA1999999094581MD1710031+9999OA149900261REMSYN076AAXX  04164 06660 33/// /1901 11041 21070 39458 40145 57003 333 91105 91202;
0128066600999992010010417004+47383+008567FM-12+056999999V0209999C000019999999N9999999N1-00511-00791101461ADDMA1999999094561MD1710021+9999OA149900211REMSYN076AAXX  04174 06660 33/// /0000 11051 21079 39456 40146 57002 333 91104 91202;
0280066600999992010010418004+47383+008567FM-12+056999999V0200501N001512200019N0080001N1-00571-00811101471ADDAJ100019199999999AL19900091AY101061AY201061GA1031+003601061GF103991031051004501999999IA1229KA1120M-00291MA1999999094561MD1810011+9999MW1101OA149900411REMSYN118AAXX  04184 06660 31458 30503 11057 21081 39456 40147 58001 71000 835// 333 11029 46001 83612 90766 93100 91108 91204;
0128066600999992010010419004+47383+008567FM-12+056999999V0200501N002119999999N9999999N1-00631-00811101471ADDMA1999999094541MD1710041+9999OA149900261REMSYN076AAXX  04194 06660 33/// /0504 11063 21081 39454 40147 57004 333 91105 91204;
0128066600999992010010420004+47383+008567FM-12+056999999V0200601N001519999999N9999999N1-00641-00831101461ADDMA1999999094531MD1810031+9999OA149900311REMSYN076AAXX  04204 06660 33/// /0603 11064 21083 39453 40146 58003 333 91106 91204;
0128066600999992010010421004+47383+008567FM-12+056999999V0200501N000519999999N9999999N1-00621-00831101431ADDMA1999999094511MD1710051+9999OA149900311REMSYN076AAXX  04214 06660 33/// /0501 11062 21083 39451 40143 57005 333 91106 91204;
0128066600999992010010422004+47383+008567FM-12+056999999V0200401N001019999999N9999999N1-00701-00871101421ADDMA1999999094481MD1710061+9999OA149900361REMSYN076AAXX  04224 06660 33/// /0402 11070 21087 39448 40142 57006 333 91107 91204;
0128066600999992010010423004+47383+008567FM-12+056999999V0200201N000519999999N9999999N1-00671-00851101371ADDMA1999999094441MD1710091+9999OA149900411REMSYN076AAXX  04234 06660 33/// /0201 11067 21085 39444 40137 57009 333 91108 91203;
0210066600999992010010500004+47383+008567FM-12+056999999V0200101N000512200019N0040001N1-00721-00901101321ADDAY101061AY201061GA1031+039001031GF103991031001999999031001MA1999999094381MD1710131+9999MW1101OA149900411REMSYN094AAXX  05004 06660 31940 30101 11072 21090 39438 40132 57013 71000 83030 333 83363 91108 91204;
0128066600999992010010501004+47383+008567FM-12+056999999V0203501N000519999999N9999999N1-00681-00871101281ADDMA1999999094351MD1710131+9999OA149900361REMSYN076AAXX  05014 06660 33/// /3501 11068 21087 39435 40128 57013 333 91107 91203;
0128066600999992010010502004+47383+008567FM-12+056999999V0202801N000519999999N9999999N1-00671-00891101241ADDMA1999999094321MD1710121+9999OA149900361REMSYN076AAXX  05024 06660 33/// /2801 11067 21089 39432 40124 57012 333 91107 91203;
0128066600999992010010503004+47383+008567FM-12+056999999V0201301N000519999999N9999999N1-00671-00851101191ADDMA1999999094271MD1710111+9999OA149900411REMSYN076AAXX  05034 06660 33/// /1301 11067 21085 39427 40119 57011 333 91108 91203;
0128066600999992010010504004+47383+008567FM-12+056999999V0200601N001519999999N9999999N1-00661-00851101091ADDMA1999999094181MD1710171+9999OA149900411REMSYN076AAXX  05044 06660 33/// /0603 11066 21085 39418 40109 57017 333 91108 91205;
0128066600999992010010505004+47383+008567FM-12+056999999V0200501N002619999999N9999999N1-00671-00861101031ADDMA1999999094121MD1710201+9999OA149900461REMSYN076AAXX  05054 06660 33/// /0505 11067 21086 39412 40103 57020 333 91109 91205;
0348066600999992010010506004+47383+008567FM-12+056999999V0200401N003110024019N0030001N1-00671-00851100951ADDAA124000091AJ100019199999999AL19900091AY111061AY211061GA1071+002401071GF107991071061002501999999GJ103249IA1309IA2999-00909KA1999N-00751MA1999999094051MD1710221+9999MW1101OA149900511REMSYN136AAXX  05064 06660 31330 70406 11067 21085 39405 40095 57022 71011 876// 333 21075 3/109 42001 55054 70000 87708 90768 93100 91110 91206;EQDQ01  00002PRCP24
0128066600999992010010507004+47383+008567FM-12+056999999V0200301N002119999999N9999999N1-00661-00841100921ADDMA1999999094021MD1710161+9999OA149900571REMSYN076AAXX  05074 06660 33/// /0304 11066 21084 39402 40092 57016 333 91111 91206;
0128066600999992010010508004+47383+008567FM-12+056999999V0203601N001019999999N9999999N1-00671-00871100921ADDMA1999999094021MD1710101+9999OA149900571REMSYN076AAXX  05084 06660 33/// /3602 11067 21087 39402 40092 57010 333 91111 91206;
0232066600999992010010509004+47383+008567FM-12+056999999V0200501N002610084019N0020001N1-00631-00821100871ADDAY171031AY221031GA1041+000901071GA2071+008401061GF107991071051000751999999MA1999999093981MD1710071+9999MW1781OA149900571REMSYN100AAXX  05094 06660 31120 70505 11063 21082 39398 40087 57007 77872 875// 333 84703 87628 91111 91206;
0128066600999992010010510004+47383+008567FM-12+056999999V0200401N003119999999N9999999N1-00581-00791100821ADDMA1999999093951MD1710071+9999OA149900511REMSYN076AAXX  05104 06660 33/// /0406 11058 21079 39395 40082 57007 333 91110 91206;
0145066600999992010010511004+47383+008567FM-12+056999999V0200501N002119999999N9999999N1-00551-00761100721ADDAA101000021MA1999999093861MD1810161+9999OA149900511REMSYN082AAXX  05114 06660 23/// /0504 11055 21076 39386 40072 58016 333 69915 91110 91206;
0233066600999992010010512004+47383+008567FM-12+056999999V0200501N001510024019N0025001N1-00501-00741100641ADDAA106000021AY171061AY221061GA1081+002401071GF108991081071002501999999MA1999999093801MD1710181+9999MW1101OA149900571REMSYN106AAXX  05124 06660 01325 80503 11050 21074 39380 40064 57018 69911 71072 887// 333 60005 88708 91111 91206;
0145066600999992010010513004+47383+008567FM-12+056999999V0200501N002119999999N9999999N1-00521-00711100581ADDAA101000591MA1999999093741MD1710211+9999OA149900461REMSYN082AAXX  05134 06660 23/// /0504 11052 21071 39374 40058 57021 333 69945 91109 91204;
0108066600999992010010514004+47383+008567FM-12+056999999V0200501N002619999999N9999999N1-00521-00731100511ADDAA101000021MA1999999093671REMSYN070AAXX  05144 06660 23/// /0505 11052 21073 39367 40051 5//// 333 69915;
0210066600999992010010515004+47383+008567FM-12+056999999V0200501N002610015019N0023001N1-00521-00741100491ADDAY171031AY221031GA1081+001501071GF108991081061001501999999MA1999999093661MD1710141+9999MW1781OA149900511REMSYN094AAXX  05154 06660 31223 80505 11052 21074 39366 40049 57014 77872 886// 333 88705 91110 91206;
0128066600999992010010516004+47383+008567FM-12+056999999V0200501N002119999999N9999999N1-00511-00721100481ADDMA1999999093651MD1710091+9999OA149900411REMSYN076AAXX  05164 06660 33/// /0504 11051 21072 39365 40048 57009 333 91108 91205;
0128066600999992010010517004+47383+008567FM-12+056999999V0200501N002119999999N9999999N1-00521-00711100431ADDMA1999999093601MD1710071+9999OA149900461REMSYN076AAXX  05174 06660 33/// /0504 11052 21071 39360 40043 57007 333 91109 91205;
0347066600999992010010518004+47383+008567FM-12+056999999V0200501N002610105019N0030001N1-00531-00751100421ADDAA112000591AJ100039199999999AL11200291AY171061AY221061GA1011+001501071GA2031+005401071GA3071+010501061GF108991081051001501999999IA1239KA1120M-00501MA1999999093591MD1710071+9999MW1781OA149900571REMSYN142AAXX  05184 06660 01230 80505 11053 21075 39359 40042 57007 69962 77872 885// 333 11050 47003 60005 81705 83718 87635 90766 93102 91111 91206;
0145066600999992010010519004+47383+008567FM-12+056999999V0200601N002119999999N9999999N1-00531-00711100391ADDAA101000021MA1999999093561MD1710091+9999OA149900511REMSYN082AAXX  05194 06660 23/// /0604 11053 21071 39356 40039 57009 333 69925 91110 91205;
0128066600999992010010520004+47383+008567FM-12+056999999V0200401N002119999999N9999999N1-00541-00711100371ADDMA1999999093541MD1810061+9999OA149900511REMSYN076AAXX  05204 06660 33/// /0404 11054 21071 39354 40037 58006 333 91110 91205;
0128066600999992010010521004+47383+008567FM-12+056999999V0200501N002119999999N9999999N1-00561-00741100341ADDMA1999999093511MD1710081+9999OA149900511REMSYN076AAXX  05214 06660 33/// /0504 11056 21074 39351 40034 57008 333 91110 91205;
0145066600999992010010522004+47383+008567FM-12+056999999V0200501N002119999999N9999999N1-00551-00731100311ADDAA101000021MA1999999093481MD1710081+9999OA149900461REMSYN082AAXX  05224 06660 23/// /0504 11055 21073 39348 40031 57008 333 69915 91109 91205;
0128066600999992010010523004+47383+008567FM-12+056999999V0200501N002119999999N9999999N1-00531-00701100291ADDMA1999999093471MD1710071+9999OA149900411REMSYN076AAXX  05234 06660 33/// /0504 11053 21070 39347 40029 57007 333 91108 91205;
0255066600999992010010600004+47383+008567FM-12+056999999V0200501N002110045019N0015001N1-00541-00721100241ADDAA106000391AY171061AY221061GA1031+001501071GA2081+004501071GF108991081071001501999999MA1999999093421MD1710091+9999MW1701OA149900511REMSYN112AAXX  06004 06660 01215 80504 11054 21072 39342 40024 57009 69931 77072 887// 333 60005 83705 88715 91110 91205;
0128066600999992010010601004+47383+008567FM-12+056999999V0200501N001519999999N9999999N1-00541-00711100231ADDMA1999999093411MD1710071+9999OA149900361REMSYN076AAXX  06014 06660 33/// /0503 11054 21071 39341 40023 57007 333 91107 91204;
0128066600999992010010602004+47383+008567FM-12+056999999V0200601N001519999999N9999999N1-00541-00711100251ADDMA1999999093431MD1510041+9999OA149900411REMSYN076AAXX  06024 06660 33/// /0603 11054 21071 39343 40025 55004 333 91108 91204;
0128066600999992010010603004+47383+008567FM-12+056999999V0200601N001519999999N9999999N1-00531-00711100221ADDMA1999999093401MD1710021+9999OA149900411REMSYN076AAXX  06034 06660 33/// /0603 11053 21071 39340 40022 57002 333 91108 91205;
0145066600999992010010604004+47383+008567FM-12+056999999V0200201N000519999999N9999999N1-00511-00671100231ADDAA101000021MA1999999093421MD1210011+9999OA149900311REMSYN082AAXX  06044 06660 23/// /0201 11051 21067 39342 40023 52001 333 69915 91106 91203;
0128066600999992010010605004+47383+008567FM-12+056999999V0201901N000519999999N9999999N1-00521-00681100261ADDMA1999999093441MD1310011+9999OA149900311REMSYN076AAXX  06054 06660 33/// /1901 11052 21068 39344 40026 53001 333 91106 91203;
0362066600999992010010606004+47383+008567FM-12+056999999V0202701N000510009019N0015001N1-00501-00651100291ADDAA112000591AA224001091AJ100049199999999AL19900191AL29900391AY171061AY221061GA1081+000901071GF108991081071000751999999GJ100009IA1239IA2999-00609KA1999N-00571MA1999999093471MD1210071+9999MW1711OA149900511REMSYN148AAXX  06064 06660 01115 82701 11050 21065 39347 40029 52007 69942 77172 887// 333 21057 3/106 47004 55000 60005 70010 88703 90768 93103 91110 91205;
0128066600999992010010607004+47383+008567FM-12+056999999V0202501N001019999999N9999999N1-00411-00641100291ADDMA1999999093501MD1210081+9999OA149900361REMSYN076AAXX  06074 06660 33/// /2502 11041 21064 39350 40029 52008 333 91107 91204;
0128066600999992010010608004+47383+008567FM-12+056999999V0202701N002119999999N9999999N1-00401-00641100341ADDMA1999999093551MD1310111+9999OA149900411REMSYN076AAXX  06084 06660 33/// /2704 11040 21064 39355 40034 53011 333 91108 91204;
0232066600999992010010609004+47383+008567FM-12+056999999V0202701N001010075019N0040001N1-00381-00631100391ADDAY121031AY221031GA1041+002401071GA2071+007501061GF108991081051002501999999MA1999999093601MD1310131+9999MW1101OA149900411REMSYN100AAXX  06094 06660 31340 82702 11038 21063 39360 40039 53013 71022 885// 333 84708 87625 91108 91204;
0128066600999992010010610004+47383+008567FM-12+056999999V0202301N000519999999N9999999N1-00361-00621100431ADDMA1999999093641MD1110141+9999OA149900411REMSYN076AAXX  06104 06660 33/// /2301 11036 21062 39364 40043 51014 333 91108 91204;
0128066600999992010010611004+47383+008567FM-12+056999999V0202401N000519999999N9999999N1-00331-00591100381ADDMA1999999093601MD1019999+9999OA149900151REMSYN076AAXX  06114 06660 33/// /2401 11033 21059 39360 40038 50/// 333 91103 91202;
0232066600999992010010612004+47383+008567FM-12+056999999V0203201N000510075019N0030001N1-00301-00611100351ADDAY171061AY221061GA1041+002401071GA2081+007501061GF108991081051002501999999MA1999999093581MD1810021+9999MW1781OA149900411REMSYN100AAXX  06124 06660 31330 83201 11030 21061 39358 40035 58002 77872 885// 333 84708 88625 91108 91204;
0128066600999992010010613004+47383+008567FM-12+056999999V0203001N000519999999N9999999N1-00261-00571100351ADDMA1999999093591MD1510051+9999OA149900211REMSYN076AAXX  06134 06660 33/// /3001 11026 21057 39359 40035 55005 333 91104 91201;
0128066600999992010010614004+47383+008567FM-12+056999999V0202101N001019999999N9999999N1-00271-00571100361ADDMA1999999093601MD1219999+9999OA149900151REMSYN076AAXX  06144 06660 33/// /2102 11027 21057 39360 40036 52/// 333 91103 91202;
0232066600999992010010615004+47383+008567FM-12+056999999V0203101N000510024019N0050001N1-00231-00541100401ADDAY171031AY221031GA1051+002401071GA2071+008401061GF108991081051002501999999MA1999999093641MD1319999+9999MW1101OA149900211REMSYN100AAXX  06154 06660 31350 83101 11023 21054 39364 40040 53/// 71072 885// 333 85708 87628 91104 91202;
0128066600999992010010616004+47383+008567FM-12+056999999V0209999C000019999999N9999999N1-00281-00521100441ADDMA1999999093671MD1310081+9999OA149900151REMSYN076AAXX  06164 06660 33/// /0000 11028 21052 39367 40044 53008 333 91103 91202;
0128066600999992010010617004+47383+008567FM-12+056999999V0203301N001019999999N9999999N1-00281-00521100501ADDMA1999999093721MD1110121+9999OA149900211REMSYN076AAXX  06174 06660 33/// /3302 11028 21052 39372 40050 51012 333 91104 91202;
0302066600999992010010618004+47383+008567FM-12+056999999V0201101N000510075019N0030001N1-00331-00531100561ADDAJ100039199999999AL19900091AY121061AY221061GA1021+001501071GA2071+007501061GF107991071051001501999999IA1239KA1120M-00231MA1999999093771MD1319999+9999MW1101OA149900411REMSYN124AAXX  06184 06660 31230 71101 11033 21053 39377 40056 53/// 71022 875// 333 11023 47003 82705 87625 90766 93100 91108 91204;
0128066600999992010010619004+47383+008567FM-12+056999999V0200401N000519999999N9999999N1-00341-00551100591ADDMA1999999093791MD1110121+9999OA149900211REMSYN076AAXX  06194 06660 33/// /0401 11034 21055 39379 40059 51012 333 91104 91202;
0128066600999992010010620004+47383+008567FM-12+056999999V0209999C000019999999N9999999N1-00381-00561100621ADDMA1999999093811MD1210091+9999OA149900211REMSYN076AAXX  06204 06660 33/// /0000 11038 21056 39381 40062 52009 333 91104 91202;
0128066600999992010010621004+47383+008567FM-12+056999999V0209999C000019999999N9999999N1-00431-00571100641ADDMA1999999093821MD1210051+9999OA149900211REMSYN076AAXX  06214 06660 33/// /0000 11043 21057 39382 40064 52005 333 91104 91202;
0128066600999992010010622004+47383+008567FM-12+056999999V0200501N001019999999N9999999N1-00371-00541100691ADDMA1999999093881MD1210091+9999OA149900151REMSYN076AAXX  06224 06660 33/// /0502 11037 21054 39388 40069 52009 333 91103 91202;
0128066600999992010010623004+47383+008567FM-12+056999999V0203501N001019999999N9999999N1-00341-00531100711ADDMA1999999093911MD1210101+9999OA149900261REMSYN076AAXX  06234 06660 33/// /3502 11034 21053 39391 40071 52010 333 91105 91203;
0232066600999992010010700004+47383+008567FM-12+056999999V0209999C000010054019N0040001N1-00341-00511100731ADDAY121061AY221061GA1021+002401071GA2081+005401071GF108991081071002501999999MA1999999093921MD1110101+9999MW1101OA149900261REMSYN100AAXX  07004 06660 31340 80000 11034 21051 39392 40073 51010 71022 887// 333 82708 88718 91105 91203;
0145066600999992010010701004+47383+008567FM-12+056999999V0203201N000519999999N9999999N1-00321-00441100751ADDAA101000021MA1999999093951MD1310071+9999OA149900151REMSYN082AAXX  07014 06660 23/// /3201 11032 21044 39395 40075 53007 333 69915 91103 91202;
0128066600999992010010702004+47383+008567FM-12+056999999V0203601N000519999999N9999999N1-00301-00451100791ADDMA1999999093991MD1319999+9999OA149900151REMSYN076AAXX  07024 06660 33/// /3601 11030 21045 39399 40079 53/// 333 91103 91201;
0128066600999992010010703004+47383+008567FM-12+056999999V0200701N000519999999N9999999N1-00351-00491100791ADDMA1999999093981MD1210061+9999OA149900261REMSYN076AAXX  07034 06660 33/// /0701 11035 21049 39398 40079 52006 333 91105 91203;
0128066600999992010010704004+47383+008567FM-12+056999999V0209999C000019999999N9999999N1-00361-00501100801ADDMA1999999093981MD1010031+9999OA149900151REMSYN076AAXX  07044 06660 33/// /0000 11036 21050 39398 40080 50003 333 91103 91202;
0128066600999992010010705004+47383+008567FM-12+056999999V0201401N001019999999N9999999N1-00431-00581100821ADDMA1999999093991MD1010001+9999OA149900211REMSYN076AAXX  07054 06660 33/// /1402 11043 21058 39399 40082 50000 333 91104 91203;
0403066600999992010010706004+47383+008567FM-12+056999999V0201601N000510066019N0035001N1-00361-00511100851ADDAA112000091AA224000021AJ100039199999999AL10600091AL29900191AY171061AY221061GA1021+000901071GA2061+006601061GF106991061051000751999999GJ100009IA1239IA2999-00709KA1999N-00461MA1999999094031MD1310051+9999MW1101OA149900261REMSYN154AAXX  07064 06660 01135 61601 11036 21051 39403 40085 53005 69912 71072 865// 333 21046 3/107 47003 55000 60005 70001 82703 86622 90768 93101 91105 91203;EQDQ01  00002PRCP12
0128066600999992010010707004+47383+008567FM-12+056999999V0201401N001019999999N9999999N1-00371-00481100871ADDMA1999999094051MD1210071+9999OA149900211REMSYN076AAXX  07074 06660 33/// /1402 11037 21048 39405 40087 52007 333 91104 91202;
0128066600999992010010708004+47383+008567FM-12+056999999V0201901N001519999999N9999999N1-00411-00531100951ADDMA1999999094111MD1319999+9999OA149900411REMSYN076AAXX  07084 06660 33/// /1903 11041 21053 39411 40095 53/// 333 91108 91203;
0254066600999992010010709004+47383+008567FM-12+056999999V0201901N001010480019N0025001N1-00331-00531100961ADDAY121031AY221031GA1021+004501061GA2041+048001021GA3061+063001001GF106991021051004501001051MA1999999094141MD1210111+9999MW1101OA149900411REMSYN106AAXX  07094 06660 31425 61902 11033 21053 39414 40096 52011 71022 82505 333 82615 84266 86071 91108 91203;
0128066600999992010010710004+47383+008567FM-12+056999999V0202001N001019999999N9999999N1-00161-00441100981ADDMA1999999094201MD1210151+9999OA149900311REMSYN076AAXX  07104 06660 33/// /2002 11016 21044 39420 40098 52015 333 91106 91203;
0128066600999992010010711004+47383+008567FM-12+056999999V0202101N001019999999N9999999N1-00151-00471100971ADDMA1999999094191MD1210081+9999OA149900261REMSYN076AAXX  07114 06660 33/// /2102 11015 21047 39419 40097 52008 333 91105 91203;
0232066600999992010010712004+47383+008567FM-12+056999999V0200401N001012200019N0025001N1-00101-00451100921ADDAY111061AY211061GA1021+005401061GA2041+063001001GF104991021051004501001021MA1999999094161MD1010021+9999MW1051OA149900411REMSYN100AAXX  07124 06660 31425 40402 11010 21045 39416 40092 50002 70511 82502 333 82618 84071 91108 91203;
0128066600999992010010713004+47383+008567FM-12+056999999V0209999C000019999999N9999999N1-00041-00461100901ADDMA1999999094161MD1719999+9999OA149900261REMSYN076AAXX  07134 06660 33/// /0000 11004 21046 39416 40090 57/// 333 91105 91203;
0158066600999992010010715004+47383+008567FM-12+056999999V0209999999999036001CN0040001N1+99999+99999999999ADDAY111031AY211031GA1011+007501061GF108991011051008001021999MW1101REMSYN082AAXX  07154 06660 41540 8//// 1//// 2//// 3//// 5//// 71011 8152/ 333 81625 88458;
0128066600999992010010716004+47383+008567FM-12+056999999V0200401N001019999999N9999999N1-00121-00431101061ADDMA1999999094291MD1319999+9999OA149900151REMSYN076AAXX  07164 06660 33/// /0402 11012 21043 39429 40106 53/// 333 91103 91202;
0128066600999992010010717004+47383+008567FM-12+056999999V0200801N000519999999N9999999N1-00151-00431101071ADDMA1999999094291MD1219999+9999OA149900151REMSYN076AAXX  07174 06660 33/// /0801 11015 21043 39429 40107 52/// 333 91103 91202;
0280066600999992010010718004+47383+008567FM-12+056999999V0200401N000510390019N0060001N1-00181-00441101141ADDAJ100039199999999AL19900091AY111061AY211061GA1081+039001041GF108991081001999999011999IA1239KA1120M-00041MA1999999094351MD1219999+9999MW1101OA149900411REMSYN118AAXX  07184 06660 31956 80401 11018 21044 39435 40114 52/// 71011 8801/ 333 11004 47003 88463 90766 93100 91108 91203;
0128066600999992010010719004+47383+008567FM-12+056999999V0200601N000519999999N9999999N1-00251-00461101161ADDMA1999999094351MD1210061+9999OA149900101REMSYN076AAXX  07194 06660 33/// /0601 11025 21046 39435 40116 52006 333 91102 91202;
0128066600999992010010720004+47383+008567FM-12+056999999V0200401N001019999999N9999999N1-00251-00491101161ADDMA1999999094351MD1210061+9999OA149900151REMSYN076AAXX  07204 06660 33/// /0402 11025 21049 39435 40116 52006 333 91103 91202;
0128066600999992010010721004+47383+008567FM-12+056999999V0200301N000519999999N9999999N1-00251-00501101201ADDMA1999999094381MD1210031+9999OA149900151REMSYN076AAXX  07214 06660 33/// /0301 11025 21050 39438 40120 52003 333 91103 91202;
0128066600999992010010722004+47383+008567FM-12+056999999V0200501N002119999999N9999999N1-00261-00481101171ADDMA1999999094351MD1810011+9999OA149900311REMSYN076AAXX  07224 06660 33/// /0504 11026 21048 39435 40117 58000 333 91106 91205;
0128066600999992010010723004+47383+008567FM-12+056999999V0200401N001519999999N9999999N1-00241-00481101161ADDMA1999999094351MD1010001+9999OA149900311REMSYN076AAXX  07234 06660 33/// /0403 11024 21048 39435 40116 50000 333 91106 91205;
0210066600999992010010800004+47383+008567FM-12+056999999V0200501N001510240019N0050001N1-00261-00491101131ADDAY121061AY221061GA1081+024001041GF108991081001022501011999MA1999999094321MD1710061+9999MW1101OA149900511REMSYN094AAXX  08004 06660 31850 80503 11026 21049 39432 40113 57006 71022 8801/ 333 88458 91110 91205;
0128066600999992010010801004+47383+008567FM-12+056999999V0200501N002619999999N9999999N1-00251-00461101091ADDMA1999999094281MD1710071+9999OA149900621REMSYN076AAXX  08014 06660 33/// /0505 11025 21046 39428 40109 57007 333 91112 91206;
0128066600999992010010802004+47383+008567FM-12+056999999V0200401N001519999999N9999999N1-00241-00441101071ADDMA1999999094271MD1719999+9999OA149900621REMSYN076AAXX  08024 06660 33/// /0403 11024 21044 39427 40107 57/// 333 91112 91206;
0128066600999992010010803004+47383+008567FM-12+056999999V0200301N002619999999N9999999N1-00261-00421101081ADDMA1999999094271MD1719999+9999OA149900621REMSYN076AAXX  08034 06660 33/// /0305 11026 21042 39427 40108 57/// 333 91112 91206;
0128066600999992010010804004+47383+008567FM-12+056999999V0200401N003119999999N9999999N1-00271-00431101041ADDMA1999999094231MD1710051+9999OA149900621REMSYN076AAXX  08044 06660 33/// /0406 11027 21043 39423 40104 57005 333 91112 91206;
0128066600999992010010805004+47383+008567FM-12+056999999V0200401N002619999999N9999999N1-00281-00431100981ADDMA1999999094171MD1810101+9999OA149900771REMSYN076AAXX  08054 06660 33/// /0405 11028 21043 39417 40098 58010 333 91115 91207;
0326066600999992010010806004+47383+008567FM-12+056999999V0200401N003110009019N0035001N1-00271-00441100911ADDAA124000091AJ100039199999999AL19900091GA1081+000901071GF108991081071000751999999GJ101929IA1239IA2999-00409KA1999N-00301MA1999999094111MD1610161+9999OA149900771REMSYN136AAXX  08064 06660 31135 80406 11027 21044 39411 40091 56016 7//72 887// 333 21030 3/104 47003 55032 70000 88703 90768 93100 91115 91207;EQDQ01  00002PRCP24
0128066600999992010010807004+47383+008567FM-12+056999999V0200401N003119999999N9999999N1-00271-00431100891ADDMA1999999094091MD1610141+9999OA149900721REMSYN076AAXX  08074 06660 33/// /0406 11027 21043 39409 40089 56014 333 91114 91206;
0128066600999992010010808004+47383+008567FM-12+056999999V0200401N003619999999N9999999N1-00281-00511100861ADDMA1999999094061MD1710111+9999OA149901031REMSYN076AAXX  08084 06660 33/// /0407 11028 21051 39406 40086 57011 333 91120 91208;
0210066600999992010010809004+47383+008567FM-12+056999999V0200501N003610036019N0050001N1-00301-00581100831ADDAY121031AY221031GA1081+003601071GF108991081071004501999999MA1999999094031MD1710081+9999MW1101OA149901081REMSYN094AAXX  08094 06660 31450 80507 11030 21058 39403 40083 57008 71022 887// 333 88712 91121 91208;
0128066600999992010010810004+47383+008567FM-12+056999999V0200501N002619999999N9999999N1-00301-00591100781ADDMA1999999093981MD1610111+9999OA149901081REMSYN076AAXX  08104 06660 33/// /0505 11030 21059 39398 40078 56011 333 91121 91208;
0128066600999992010010811004+47383+008567FM-12+056999999V0200501N003619999999N9999999N1-00291-00601100701ADDMA1999999093911MD1810151+9999OA149901031REMSYN076AAXX  08114 06660 33/// /0507 11029 21060 39391 40070 58015 333 91120 91208;
0210066600999992010010812004+47383+008567FM-12+056999999V0200601N003610036019N0070001N1-00291-00561100621ADDAY121061AY221061GA1081+003601071GF108991081071004501999999MA1999999093831MD1810201+9999MW1101OA149901081REMSYN094AAXX  08124 06660 31457 80607 11029 21056 39383 40062 58020 71022 887// 333 88712 91121 91209;
0128066600999992010010813004+47383+008567FM-12+056999999V0200501N002619999999N9999999N1-00291-00561100551ADDMA1999999093771MD1610211+9999OA149901031REMSYN076AAXX  08134 06660 33/// /0505 11029 21056 39377 40055 56021 333 91120 91209;
0134066600999992010010814004+47383+008567FM-12+056999999V0200601N004619999999N9999999N1-00291-00541100541ADDMA1999999093761MD1619999+9999OA149901131REMSYN082AAXX  08144 06660 33/// /0609 11029 21054 39376 40054 56/// 91340 333 91122 91209;
0210066600999992010010815004+47383+008567FM-12+056999999V0200601N002610024019N0060001N1-00301-00531100561ADDAY121031AY221031GA1081+002401071GF108991081071002501999999MA1999999093781MD1510051+9999MW1101OA149901131REMSYN094AAXX  08154 06660 31356 80605 11030 21053 39378 40056 55005 71022 887// 333 88708 91122 91209;
0128066600999992010010816004+47383+008567FM-12+056999999V0200501N003619999999N9999999N1-00291-00531100591ADDMA1999999093811MD1310041+9999OA149900821REMSYN076AAXX  08164 06660 33/// /0507 11029 21053 39381 40059 53004 333 91116 91207;
0128066600999992010010817004+47383+008567FM-12+056999999V0200501N003619999999N9999999N1-00301-00531100631ADDMA1999999093841MD1210081+9999OA149900931REMSYN076AAXX  08174 06660 33/// /0507 11030 21053 39384 40063 52008 333 91118 91208;
0280066600999992010010818004+47383+008567FM-12+056999999V0200401N003110024019N0015001N1-00311-00521100661ADDAJ100029199999999AL19900091AY121061AY221061GA1081+002401071GF108991081071002501999999IA1239KA1120M-00261MA1999999093871MD1210091+9999MW1781OA149901131REMSYN118AAXX  08184 06660 31315 80406 11031 21052 39387 40066 52009 77822 887// 333 11026 47002 88708 90766 93100 91122 91209;
0128066600999992010010819004+47383+008567FM-12+056999999V0200501N003119999999N9999999N1-00341-00491100681ADDMA1999999093881MD1210071+9999OA149901031REMSYN076AAXX  08194 06660 33/// /0506 11034 21049 39388 40068 52007 333 91120 91208;
0145066600999992010010820004+47383+008567FM-12+056999999V0200501N003119999999N9999999N1-00351-00491100671ADDAA101000891MA1999999093871MD1210031+9999OA149900821REMSYN082AAXX  08204 06660 23/// /0506 11035 21049 39387 40067 52003 333 69975 91116 91206;
0128066600999992010010821004+47383+008567FM-12+056999999V0200401N003619999999N9999999N1-00371-00501100681ADDMA1999999093871MD1410001+9999OA149901031REMSYN076AAXX  08214 06660 33/// /0407 11037 21050 39387 40068 54000 333 91120 91208;
0128066600999992010010822004+47383+008567FM-12+056999999V0200501N002119999999N9999999N1-00381-00521100691ADDMA1999999093881MD1410001+9999OA149900771REMSYN076AAXX  08224 06660 33/// /0504 11038 21052 39388 40069 54000 333 91115 91207;
0128066600999992010010823004+47383+008567FM-12+056999999V0200501N002619999999N9999999N1-00391-00551100721ADDMA1999999093901MD1310031+9999OA149900771REMSYN076AAXX  08234 06660 33/// /0505 11039 21055 39390 40072 53003 333 91115 91207;
0233066600999992010010900004+47383+008567FM-12+056999999V0200301N002610012019N0040001N1-00421-00591100741ADDAA106000891AY171061AY251061GA1081+001201071GF108991081071001501999999MA1999999093911MD1210041+9999MW1561OA149901131REMSYN106AAXX  09004 06660 01240 80305 11042 21059 39391 40074 52004 69971 75675 887// 333 60005 88704 91122 91209;
0128066600999992010010901004+47383+008567FM-12+056999999V0200401N004119999999N9999999N1-00451-00631100731ADDMA1999999093901MD1010021+9999OA149900771REMSYN076AAXX  09014 06660 33/// /0408 11045 21063 39390 40073 50002 333 91115 91208;
0128066600999992010010902004+47383+008567FM-12+056999999V0200501N004119999999N9999999N1-00471-00651100731ADDMA1999999093891MD1719999+9999OA149900881REMSYN076AAXX  09024 06660 33/// /0508 11047 21065 39389 40073 57/// 333 91117 91209;
0128066600999992010010903004+47383+008567FM-12+056999999V0200501N003619999999N9999999N1-00471-00651100741ADDMA1999999093901MD1019999+9999OA149900881REMSYN076AAXX  09034 06660 33/// /0507 11047 21065 39390 40074 50/// 333 91117 91209;
0128066600999992010010904004+47383+008567FM-12+056999999V0200301N003119999999N9999999N1-00481-00641100701ADDMA1999999093861MD1810041+9999OA149900821REMSYN076AAXX  09044 06660 33/// /0306 11048 21064 39386 40070 58004 333 91116 91209;
0128066600999992010010905004+47383+008567FM-12+056999999V0200401N003619999999N9999999N1-00491-00671100691ADDMA1999999093851MD1710041+9999OA149900721REMSYN076AAXX  09054 06660 33/// /0407 11049 21067 39385 40069 57004 333 91114 91207;
0362066600999992010010906004+47383+008567FM-12+056999999V0200301N003610009019N0030001N1-00531-00711100641ADDAA112000891AA224000891AJ100039199999999AL14200091AL29900191AY121061AY221061GA1081+000901071GF108991081061000751999999GJ100009IA1239IA2999-00509KA1999N-00521MA1999999093791MD1710111+9999MW1101OA149900881REMSYN148AAXX  09064 06660 01130 80307 11053 21071 39379 40064 57011 69972 71022 886// 333 21052 3/105 47003 55000 60005 70007 88703 90768 93101 91117 91209;
0128066600999992010010907004+47383+008567FM-12+056999999V0200301N003119999999N9999999N1-00541-00721100651ADDMA1999999093801MD1710061+9999OA149900671REMSYN076AAXX  09074 06660 33/// /0306 11054 21072 39380 40065 57006 333 91113 91208;
0128066600999992010010908004+47383+008567FM-12+056999999V0200401N003619999999N9999999N1-00551-00721100651ADDMA1999999093801MD1510051+9999OA149900671REMSYN076AAXX  09084 06660 33/// /0407 11055 21072 39380 40065 55005 333 91113 91209;
0210066600999992010010909004+47383+008567FM-12+056999999V0200301N002610009019N0015001N1-00531-00721100671ADDAY151031AY221031GA1081+000901071GF108991081061000751999999MA1999999093821MD1210031+9999MW1101OA149900721REMSYN094AAXX  09094 06660 31115 80305 11053 21072 39382 40067 52003 71052 886// 333 88703 91114 91209;
0128066600999992010010910004+47383+008567FM-12+056999999V0200401N001519999999N9999999N1-00521-00711100661ADDMA1999999093811MD1010011+9999OA149900671REMSYN076AAXX  09104 06660 33/// /0403 11052 21071 39381 40066 50001 333 91113 91207;
0128066600999992010010911004+47383+008567FM-12+056999999V0200301N001519999999N9999999N1-00501-00701100631ADDMA1999999093791MD1810011+9999OA149900571REMSYN076AAXX  09114 06660 33/// /0303 11050 21070 39379 40063 58001 333 91111 91206;
0210066600999992010010912004+47383+008567FM-12+056999999V0200301N002110006019N0020001N1-00511-00701100581ADDAY121061AY221061GA1081+000601071GF108991081061000251999999MA1999999093741MD1710081+9999MW1101OA149900881REMSYN094AAXX  09124 06660 31020 80304 11051 21070 39374 40058 57008 71022 886// 333 88702 91117 91209;
0128066600999992010010913004+47383+008567FM-12+056999999V0200301N002119999999N9999999N1-00491-00701100561ADDMA1999999093731MD1710081+9999OA149900571REMSYN076AAXX  09134 06660 33/// /0304 11049 21070 39373 40056 57008 333 91111 91205;
0128066600999992010010914004+47383+008567FM-12+056999999V0200201N001019999999N9999999N1-00511-00681100591ADDMA1999999093751MD1510041+9999OA149900461REMSYN076AAXX  09144 06660 33/// /0202 11051 21068 39375 40059 55004 333 91109 91204;
0210066600999992010010915004+47383+008567FM-12+056999999V0200301N002110009019N0015001N1-00501-00651100621ADDAY171031AY221031GA1081+000901071GF108991081071000751999999MA1999999093781MD1310041+9999MW1791OA149900571REMSYN094AAXX  09154 06660 31115 80304 11050 21065 39378 40062 53004 77972 887// 333 88703 91111 91206;
0128066600999992010010916004+47383+008567FM-12+056999999V0200101N001519999999N9999999N1-00501-00651100631ADDMA1999999093791MD1110061+9999OA149900461REMSYN076AAXX  09164 06660 33/// /0103 11050 21065 39379 40063 51006 333 91109 91204;
0145066600999992010010917004+47383+008567FM-12+056999999V0200201N001019999999N9999999N1-00511-00651100621ADDAA101000591MA1999999093781MD1210031+9999OA149900411REMSYN082AAXX  09174 06660 23/// /0202 11051 21065 39378 40062 52003 333 69955 91108 91203;
0303066600999992010010918004+47383+008567FM-12+056999999V0200301N003110006019N0012001N1-00521-00681100651ADDAA112002091AJ100059199999999AL11200291AY171061AY221061GA1081+000601071GF108991081071000251999999IA1239KA1120M-00481MA1999999093801MD1210021+9999MW1701OA149900671REMSYN130AAXX  09184 06660 01012 80306 11052 21068 39380 40065 52002 60022 77072 887// 333 11048 47005 60015 88702 90766 93102 91113 91209;
0145066600999992010010919004+47383+008567FM-12+056999999V0200301N002619999999N9999999N1-00521-00681100701ADDAA101000591MA1999999093851MD1210061+9999OA149900621REMSYN082AAXX  09194 06660 23/// /0305 11052 21068 39385 40070 52006 333 69955 91112 91207;
0145066600999992010010920004+47383+008567FM-12+056999999V0200201N001519999999N9999999N1-00551-00721100731ADDAA101000021MA1999999093871MD1210091+9999OA149900571REMSYN082AAXX  09204 06660 23/// /0203 11055 21072 39387 40073 52009 333 69915 91111 91205;
0128066600999992010010921004+47383+008567FM-12+056999999V0200201N001519999999N9999999N1-00551-00721100761ADDMA1999999093901MD1110101+9999OA149900621REMSYN076AAXX  09214 06660 33/// /0203 11055 21072 39390 40076 51010 333 91112 91207;
0128066600999992010010922004+47383+008567FM-12+056999999V0200201N001519999999N9999999N1-00551-00731100791ADDMA1999999093931MD1210081+9999OA149900511REMSYN076AAXX  09224 06660 33/// /0203 11055 21073 39393 40079 52008 333 91110 91204;
0145066600999992010010923004+47383+008567FM-12+056999999V0209999C000019999999N9999999N1-00571-00741100841ADDAA101000021MA1999999093971MD1210101+9999OA149900361REMSYN082AAXX  09234 06660 23/// /0000 11057 21074 39397 40084 52010 333 69925 91107 91203;
0233066600999992010011000004+47383+008567FM-12+056999999V0200201N000510015019N0035001N1-00561-00731100871ADDAA106000891AY171061AY221061GA1071+001501071GF108991071071001501999999MA1999999094001MD1210101+9999MW1101OA149900621REMSYN106AAXX  10004 06660 01235 80201 11056 21073 39400 40087 52010 69981 71072 877// 333 60005 87705 91112 91207;
0128066600999992010011001004+47383+008567FM-12+056999999V0203501N000519999999N9999999N1-00561-00731100881ADDMA1999999094011MD1110081+9999OA149900151REMSYN076AAXX  10014 06660 33/// /3501 11056 21073 39401 40088 51008 333 91103 91201;
0087066600999992010011002004+47383+008567FM-12+056999999V0202601N000519999999N9999999N1-00571-00741100951ADDMA1999999094071REMSYN060AAXX  10024 06660 33/// /2601 11057 21074 39407 40095 5////;
0087066600999992010011003004+47383+008567FM-12+056999999V0203201N001019999999N9999999N1-00551-00711100991ADDMA1999999094111REMSYN060AAXX  10034 06660 43/// /3202 11055 21071 39411 40099 5////;
0128066600999992010011004004+47383+008567FM-12+056999999V0203301N001019999999N9999999N1-00531-00741101041ADDMA1999999094171MD1110161+9999OA149900151REMSYN076AAXX  10044 06660 33/// /3302 11053 21074 39417 40104 51016 333 91103 91202;
0128066600999992010011005004+47383+008567FM-12+056999999V0202901N000519999999N9999999N1-00521-00701101091ADDMA1999999094211MD1110141+9999OA149900261REMSYN076AAXX  10054 06660 33/// /2901 11052 21070 39421 40109 51014 333 91105 91202;
0362066600999992010011006004+47383+008567FM-12+056999999V0203101N001010015019N0030001N1-00511-00711101141ADDAA112000891AA224002391AJ100069199999999AL11800291AL29900391AY121061AY221061GA1081+001501071GF108991081061001501999999GJ100009IA1239IA2999-00709KA1999N-00591MA1999999094261MD1210151+9999MW1101OA149900571REMSYN148AAXX  10064 06660 01230 83102 11051 21071 39426 40114 52015 69982 71022 886// 333 21059 3/107 47006 55000 60005 70023 88705 90768 93103 91111 91205;
0128066600999992010011007004+47383+008567FM-12+056999999V0203101N001019999999N9999999N1-00521-00721101211ADDMA1999999094331MD1310161+9999OA149900211REMSYN076AAXX  10074 06660 33/// /3102 11052 21072 39433 40121 53016 333 91104 91203;
0128066600999992010011008004+47383+008567FM-12+056999999V0203101N000519999999N9999999N1-00511-00751101291ADDMA1999999094401MD1319999+9999OA149900151REMSYN076AAXX  10084 06660 33/// /3101 11051 21075 39440 40129 53/// 333 91103 91202;
0232066600999992010011009004+47383+008567FM-12+056999999V0202701N001510015019N0045001N1-00451-00741101361ADDAY121031AY221031GA1021+001201071GA2071+001501071GF107991071061001501999999MA1999999094481MD1310221+9999MW1101OA149900311REMSYN100AAXX  10094 06660 31245 72703 11045 21074 39448 40136 53022 71022 876// 333 82704 87705 91106 91203;
0128066600999992010011010004+47383+008567FM-12+056999999V0202801N001519999999N9999999N1-00441-00871101411ADDMA1999999094531MD1110201+9999OA149900411REMSYN076AAXX  10104 06660 33/// /2803 11044 21087 39453 40141 51020 333 91108 91204;
0128066600999992010011011004+47383+008567FM-12+056999999V0202701N002619999999N9999999N1-00441-00851101471ADDMA1999999094591MD1110191+9999OA149900511REMSYN076AAXX  10114 06660 33/// /2705 11044 21085 39459 40147 51019 333 91110 91205;
0210066600999992010011012004+47383+008567FM-12+056999999V0202801N002110024019N0050001N1-00421-00891101491ADDAY121061AY221061GA1081+002401071GF108991081061002501999999MA1999999094611MD1110131+9999MW1101OA149900511REMSYN094AAXX  10124 06660 31350 82804 11042 21089 39461 40149 51013 71022 886// 333 88708 91110 91205;
0128066600999992010011013004+47383+008567FM-12+056999999V0202501N002119999999N9999999N1-00431-00881101511ADDMA1999999094631MD1110101+9999OA149900511REMSYN076AAXX  10134 06660 33/// /2504 11043 21088 39463 40151 51010 333 91110 91206;
0128066600999992010011014004+47383+008567FM-12+056999999V0202701N002119999999N9999999N1-00431-00841101571ADDMA1999999094681MD1319999+9999OA149900511REMSYN076AAXX  10144 06660 33/// /2704 11043 21084 39468 40157 53/// 333 91110 91206;
0232066600999992010011015004+47383+008567FM-12+056999999V0202701N001510030019N0050001N1-00431-00851101611ADDAY121031AY221031GA1011+002101071GA2071+003001071GF107991071061001501999999MA1999999094721MD1310111+9999MW1051OA149900511REMSYN100AAXX  10154 06660 31250 72703 11043 21085 39472 40161 53011 70522 876// 333 81707 87710 91110 91206;
0128066600999992010011016004+47383+008567FM-12+056999999V0202801N001519999999N9999999N1-00451-00841101681ADDMA1999999094781MD1210151+9999OA149900511REMSYN076AAXX  10164 06660 33/// /2803 11045 21084 39478 40168 52015 333 91110 91205;
0128066600999992010011017004+47383+008567FM-12+056999999V0202801N001519999999N9999999N1-00451-00851101701ADDMA1999999094801MD1210121+9999OA149900361REMSYN076AAXX  10174 06660 33/// /2803 11045 21085 39480 40170 52012 333 91107 91204;
0302066600999992010011018004+47383+008567FM-12+056999999V0202701N002110084019N0025001N1-00461-00891101761ADDAJ100059199999999AL19900091AY121061AY221061GA1031+005401071GA2081+008401071GF108991081061004501999999IA1239KA1120M-00401MA1999999094851MD1210131+9999MW1051OA149900511REMSYN124AAXX  10184 06660 31425 82704 11046 21089 39485 40176 52013 70522 886// 333 11040 47005 83718 88728 90766 93100 91110 91206;
0128066600999992010011019004+47383+008567FM-12+056999999V0200601N001019999999N9999999N1-00491-00841101761ADDMA1999999094851MD1210071+9999OA149900411REMSYN076AAXX  10194 06660 33/// /0602 11049 21084 39485 40176 52007 333 91108 91204;
0128066600999992010011020004+47383+008567FM-12+056999999V0200501N001019999999N9999999N1-00501-00821101781ADDMA1999999094861MD1210061+9999OA149900311REMSYN076AAXX  10204 06660 33/// /0502 11050 21082 39486 40178 52006 333 91106 91203;
0128066600999992010011021004+47383+008567FM-12+056999999V0200201N001019999999N9999999N1-00501-00791101801ADDMA1999999094881MD1210031+9999OA149900411REMSYN076AAXX  10214 06660 33/// /0202 11050 21079 39488 40180 52003 333 91108 91204;
0128066600999992010011022004+47383+008567FM-12+056999999V0200501N001019999999N9999999N1-00511-00791101791ADDMA1999999094871MD1210021+9999OA149900151REMSYN076AAXX  10224 06660 33/// /0502 11051 21079 39487 40179 52002 333 91103 91202;
0128066600999992010011023004+47383+008567FM-12+056999999V0200701N001519999999N9999999N1-00551-00761101811ADDMA1999999094881MD1210021+9999OA149900211REMSYN076AAXX  10234 06660 33/// /0703 11055 21076 39488 40181 52002 333 91104 91203;
0232066600999992010011100004+47383+008567FM-12+056999999V0200501N001510084019N0060001N1-00571-00781101801ADDAY121061AY221061GA1021+005401061GA2071+008401061GF107991071051004501999999MA1999999094861MD1710021+9999MW1101OA149900511REMSYN100AAXX  11004 06660 31456 70503 11057 21078 39486 40180 57002 71022 875// 333 82618 87628 91110 91206;
0128066600999992010011101004+47383+008567FM-12+056999999V0200501N001019999999N9999999N1-00571-00791101801ADDMA1999999094861MD1710011+9999OA149900211REMSYN076AAXX  11014 06660 33/// /0502 11057 21079 39486 40180 57001 333 91104 91203;
0128066600999992010011102004+47383+008567FM-12+056999999V0200501N001019999999N9999999N1-00541-00791101821ADDMA1999999094891MD1319999+9999OA149900211REMSYN076AAXX  11024 06660 33/// /0502 11054 21079 39489 40182 53/// 333 91104 91203;
0128066600999992010011103004+47383+008567FM-12+056999999V0209999C000019999999N9999999N1-00511-00821101801ADDMA1999999094881MD1219999+9999OA149900211REMSYN076AAXX  11034 06660 33/// /0000 11051 21082 39488 40180 52/// 333 91104 91203;
0128066600999992010011104004+47383+008567FM-12+056999999V0200701N001019999999N9999999N1-00571-00781101811ADDMA1999999094871MD1010011+9999OA149900361REMSYN076AAXX  11044 06660 33/// /0702 11057 21078 39487 40181 50001 333 91107 91204;
0128066600999992010011105004+47383+008567FM-12+056999999V0200601N001019999999N9999999N1-00531-00771101771ADDMA1999999094851MD1710041+9999OA149900361REMSYN076AAXX  11054 06660 33/// /0602 11053 21077 39485 40177 57004 333 91107 91204;
0348066600999992010011106004+47383+008567FM-12+056999999V0202001N000510045019N0060001N1-00491-00781101751ADDAA124000091AJ100059199999999AL19900091AY121061AY221061GA1081+004501071GF108991081061004501999999GJ100009IA1239IA2999-00709KA1999N-00591MA1999999094841MD1710041+9999MW1101OA149900361REMSYN136AAXX  11064 06660 31456 82001 11049 21078 39484 40175 57004 71022 886// 333 21059 3/107 47005 55000 70000 88715 90768 93100 91107 91204;EQDQ01  00002PRCP24
0128066600999992010011107004+47383+008567FM-12+056999999V0203001N000519999999N9999999N1-00461-00751101741ADDMA1999999094841MD1710031+9999OA149900151REMSYN076AAXX  11074 06660 33/// /3001 11046 21075 39484 40174 57003 333 91103 91202;
0128066600999992010011108004+47383+008567FM-12+056999999V0200501N001519999999N9999999N1-00501-00771101781ADDMA1999999094861MD1319999+9999OA149900261REMSYN076AAXX  11084 06660 33/// /0503 11050 21077 39486 40178 53/// 333 91105 91203;
0210066600999992010011109004+47383+008567FM-12+056999999V0200601N001510036019N0040001N1-00481-00791101771ADDAY121031AY221031GA1071+003601071GF107991071061004501999999MA1999999094861MD1210021+9999MW1101OA149900361REMSYN094AAXX  11094 06660 31440 70603 11048 21079 39486 40177 52002 71022 876// 333 87712 91107 91204;
0128066600999992010011110004+47383+008567FM-12+056999999V0202501N000519999999N9999999N1-00421-00781101771ADDMA1999999094871MD1219999+9999OA149900311REMSYN076AAXX  11104 06660 33/// /2501 11042 21078 39487 40177 52/// 333 91106 91203;
0163066600999992010011111004+47383+008567FM-12+056999999V0203101N001019999999N9999999N1-00401-00761101751ADDMA1999999094861MD1710031+9999OA149900261REMSYN076AAXX  11114 06660 33/// /3102 11040 21076 39486 40175 57000 333 91105 91203;EQDQ01+000072APCTENQ02+000002APC3  
0210066600999992010011112004+47383+008567FM-12+056999999V0202601N002610045019N0060001N1-00381-00751101721ADDAY121061AY221061GA1081+004501071GF108991081061004501999999MA1999999094841MD1710021+9999MW1101OA149900511REMSYN094AAXX  11124 06660 31456 82605 11038 21075 39484 40172 57002 71022 886// 333 88715 91110 91205;
0128066600999992010011113004+47383+008567FM-12+056999999V0202201N001519999999N9999999N1-00351-00731101691ADDMA1999999094821MD1710051+9999OA149900511REMSYN076AAXX  11134 06660 33/// /2203 11035 21073 39482 40169 57005 333 91110 91205;
0087066600999992010011114004+47383+008567FM-12+056999999V0202301N002119999999N9999999N1-00371-00741101721ADDMA1999999094841REMSYN060AAXX  11144 06660 33/// /2304 11037 21074 39484 40172 5////;
0210066600999992010011115004+47383+008567FM-12+056999999V0202501N002110036019N0040001N1-00381-00741101781ADDAY171031AY221031GA1071+003601061GF108991071051004501999999MA1999999094891MD1310051+9999MW1711OA149900511REMSYN094AAXX  11154 06660 31440 82504 11038 21074 39489 40178 53005 77172 875// 333 87612 91110 91205;
0128066600999992010011116004+47383+008567FM-12+056999999V0202101N001519999999N9999999N1-00431-00681101821ADDMA1999999094921MD1210101+9999OA149900461REMSYN076AAXX  11164 06660 33/// /2103 11043 21068 39492 40182 52010 333 91109 91205;
0145066600999992010011117004+47383+008567FM-12+056999999V0202001N001019999999N9999999N1-00441-00591101881ADDAA101000591MA1999999094971MD1210131+9999OA149900361REMSYN082AAXX  11174 06660 23/// /2002 11044 21059 39497 40188 52013 333 69955 91107 91204;
0325066600999992010011118004+47383+008567FM-12+056999999V0202001N001010015019N0007001N1-00471-00621101921ADDAA112001091AJ100079199999999AL11200291AY171061AY221061GA1051+001501071GA2081+004501051GF108991051071001501021999IA1239KA1120M-00331MA1999999095001MD1210111+9999MW1711OA149900511REMSYN136AAXX  11184 06660 01207 82002 11047 21062 39500 40192 52011 69992 77172 8572/ 333 11033 47007 69945 85705 88515 90766 93102 91110 91205;
0145066600999992010011119004+47383+008567FM-12+056999999V0201901N001019999999N9999999N1-00451-00571101921ADDAA101000391MA1999999095011MD1110091+9999OA149900261REMSYN082AAXX  11194 06660 23/// /1902 11045 21057 39501 40192 51009 333 69935 91105 91203;
0145066600999992010011120004+47383+008567FM-12+056999999V0202101N001019999999N9999999N1-00421-00541101941ADDAA101000021MA1999999095031MD1210061+9999OA149900151REMSYN082AAXX  11204 06660 23/// /2102 11042 21054 39503 40194 52006 333 69925 91103 91202;
0128066600999992010011121004+47383+008567FM-12+056999999V0202301N001019999999N9999999N1-00401-00561101931ADDMA1999999095031MD1210031+9999OA149900361REMSYN076AAXX  11214 06660 33/// /2302 11040 21056 39503 40193 52003 333 91107 91204;
0145066600999992010011122004+47383+008567FM-12+056999999V0202301N000519999999N9999999N1-00411-00531101941ADDAA101000591MA1999999095031MD1210021+9999OA149900211REMSYN082AAXX  11224 06660 23/// /2301 11041 21053 39503 40194 52002 333 69945 91104 91202;
0145066600999992010011123004+47383+008567FM-12+056999999V0202701N000519999999N9999999N1-00391-00511101951ADDAA101000391MA1999999095051MD1210021+9999OA149900211REMSYN082AAXX  11234 06660 23/// /2701 11039 21051 39505 40195 52002 333 69935 91104 91202;
0221066600999992010011200004+47383+008567FM-12+056999999V0202101N000510006019N0006001N1-00391-00491101951ADDAA106002091AY171061AY241061GA1091+999999999GF109991091999999999999999MA1999999095051MD1210021+9999MW1731OA149900461REMSYN094AAXX  12004 06660 01/06 92101 11039 21049 39505 40195 52002 60021 77374 333 69965 91109 91205;
0145066600999992010011201004+47383+008567FM-12+056999999V0202101N000519999999N9999999N1-00401-00521101941ADDAA101000391MA1999999095041MD1010011+9999OA149900101REMSYN082AAXX  12014 06660 23/// /2101 11040 21052 39504 40194 50001 333 69935 91102 91202;
0128066600999992010011202004+47383+008567FM-12+056999999V0209999C000019999999N9999999N1-00391-00501101941ADDMA1999999095041MD1619999+9999OA149900101REMSYN076AAXX  12024 06660 33/// /0000 11039 21050 39504 40194 56/// 333 91102 91202;
0128066600999992010011203004+47383+008567FM-12+056999999V0202901N000519999999N9999999N1-00361-00531101921ADDMA1999999095031MD1710021+9999OA149900211REMSYN076AAXX  12034 06660 33/// /2901 11036 21053 39503 40192 57002 333 91104 91202;
0128066600999992010011204004+47383+008567FM-12+056999999V0209999C000019999999N9999999N1-00391-00541101921ADDMA1999999095021MD1710021+9999OA149900151REMSYN076AAXX  12044 06660 33/// /0000 11039 21054 39502 40192 57002 333 91103 91201;
0128066600999992010011205004+47383+008567FM-12+056999999V0200301N000519999999N9999999N1-00401-00541101891ADDMA1999999094991MD1710051+9999OA149900151REMSYN076AAXX  12054 06660 33/// /0301 11040 21054 39499 40189 57005 333 91103 91201;
0362066600999992010011206004+47383+008567FM-12+056999999V0203101N000510024019N0020001N1-00361-00571101871ADDAA112002091AA224003391AJ100119199999999AL11200391AL29900791AY171061AY221061GA1081+002401071GF108991081071002501999999GJ100009IA1239IA2999-00509KA1999N-00471MA1999999094981MD1710051+9999MW1701OA149900211REMSYN148AAXX  12064 06660 01320 83101 11036 21057 39498 40187 57005 60022 77072 887// 333 21047 3/105 47011 55000 69915 70032 88708 90768 93107 91104 91202;
0128066600999992010011207004+47383+008567FM-12+056999999V0200601N000519999999N9999999N1-00401-00561101831ADDMA1999999094931MD1710091+9999OA149900151REMSYN076AAXX  12074 06660 33/// /0601 11040 21056 39493 40183 57009 333 91103 91202;
0128066600999992010011208004+47383+008567FM-12+056999999V0200601N001019999999N9999999N1-00371-00551101751ADDMA1999999094871MD1819999+9999OA149900151REMSYN076AAXX  12084 06660 33/// /0602 11037 21055 39487 40175 58/// 333 91103 91202;
0232066600999992010011209004+47383+008567FM-12+056999999V0200601N001510210019N0030001N1-00311-00491101671ADDAY171031AY221031GA1021+002401071GA2061+021001031GF107991021071002501031999MA1999999094811MD1710171+9999MW1101OA149900311REMSYN100AAXX  12094 06660 31330 70603 11031 21049 39481 40167 57017 71072 8273/ 333 82708 86357 91106 91203;
0128066600999992010011210004+47383+008567FM-12+056999999V0200501N001519999999N9999999N1-00321-00551101611ADDMA1999999094751MD1810181+9999OA149900311REMSYN076AAXX  12104 06660 33/// /0503 11032 21055 39475 40161 58018 333 91106 91203;
0128066600999992010011211004+47383+008567FM-12+056999999V0200601N001019999999N9999999N1-00241-00521101491ADDMA1999999094661MD1810211+9999OA149900261REMSYN076AAXX  12114 06660 33/// /0602 11024 21052 39466 40149 58021 333 91105 91203;
0210066600999992010011212004+47383+008567FM-12+056999999V0200301N001010024019N0050001N1-00251-00521101411ADDAY171061AY221061GA1081+002401071GF108991081061002501999999MA1999999094581MD1810231+9999MW1101OA149900361REMSYN094AAXX  12124 06660 31350 80302 11025 21052 39458 40141 58023 71072 886// 333 88708 91107 91204;
0128066600999992010011213004+47383+008567FM-12+056999999V0200301N000519999999N9999999N1-00251-00521101351ADDMA1999999094521MD1610231+9999OA149900361REMSYN076AAXX  12134 06660 33/// /0301 11025 21052 39452 40135 56023 333 91107 91204;
0087066600999992010011214004+47383+008567FM-12+056999999V0201101N000519999999N9999999N1-00261-00511101291ADDMA1999999094471REMSYN060AAXX  12144 06660 33/// /1101 11026 21051 39447 40129 5////;
0210066600999992010011215004+47383+008567FM-12+056999999V0201001N001010024019N0040001N1-00271-00501101211ADDAY121031AY221031GA1071+002401071GF107991071061002501999999MA1999999094391MD1810191+9999MW1101OA149900361REMSYN094AAXX  12154 06660 31340 71002 11027 21050 39439 40121 58019 71022 876// 333 87708 91107 91204;
0128066600999992010011216004+47383+008567FM-12+056999999V0200501N001519999999N9999999N1-00291-00481101131ADDMA1999999094311MD1710211+9999OA149900311REMSYN076AAXX  12164 06660 33/// /0503 11029 21048 39431 40113 57021 333 91106 91203;
0128066600999992010011217004+47383+008567FM-12+056999999V0200601N001019999999N9999999N1-00311-00491101061ADDMA1999999094241MD1610231+9999OA149900311REMSYN076AAXX  12174 06660 33/// /0602 11031 21049 39424 40106 56023 333 91106 91204;
0280066600999992010011218004+47383+008567FM-12+056999999V0200701N000510024019N0025001N1-00331-00501101031ADDAJ100119199999999AL19900091AY101061AY201061GA1081+002401071GF108991081061002501999999IA1239KA1120M-00241MA1999999094211MD1710181+9999MW1101OA149900361REMSYN118AAXX  12184 06660 31325 80701 11033 21050 39421 40103 57018 71000 886// 333 11024 47011 88708 90766 93100 91107 91204;
0128066600999992010011219004+47383+008567FM-12+056999999V0201001N001019999999N9999999N1-00321-00491101011ADDMA1999999094191MD1710121+9999OA149900261REMSYN076AAXX  12194 06660 33/// /1002 11032 21049 39419 40101 57012 333 91105 91203;
0128066600999992010011220004+47383+008567FM-12+056999999V0201201N000519999999N9999999N1-00351-00531100981ADDMA1999999094151MD1710091+9999OA149900261REMSYN076AAXX  12204 06660 33/// /1201 11035 21053 39415 40098 57009 333 91105 91202;
0128066600999992010011221004+47383+008567FM-12+056999999V0200401N000519999999N9999999N1-00351-00501100891ADDMA1999999094071MD1710141+9999OA149900311REMSYN076AAXX  12214 06660 33/// /0401 11035 21050 39407 40089 57014 333 91106 91204;
0128066600999992010011222004+47383+008567FM-12+056999999V0200401N001519999999N9999999N1-00361-00501100831ADDMA1999999094011MD1710181+9999OA149900411REMSYN076AAXX  12224 06660 33/// /0403 11036 21050 39401 40083 57018 333 91108 91203;
0128066600999992010011223004+47383+008567FM-12+056999999V0200501N002119999999N9999999N1-00411-00531100771ADDMA1999999093941MD1710211+9999OA149900511REMSYN076AAXX  12234 06660 33/// /0504 11041 21053 39394 40077 57021 333 91110 91204;
0210066600999992010011300004+47383+008567FM-12+056999999V0203501N000510006019N0020001N1-00341-00491100791ADDAY121061AY221061GA1071+000601071GF108991071061000251999999MA1999999093981MD1510091+9999MW1101OA149900511REMSYN094AAXX  13004 06660 31020 83501 11034 21049 39398 40079 55009 71022 876// 333 87702 91110 91204;
0128066600999992010011301004+47383+008567FM-12+056999999V0202501N002619999999N9999999N1-00301-00461100911ADDMA1999999094101MD1310091+9999OA149900571REMSYN076AAXX  13014 06660 33/// /2505 11030 21046 39410 40091 53009 333 91111 91206;
0128066600999992010011302004+47383+008567FM-12+056999999V0201101N001519999999N9999999N1-00321-00491100841ADDMA1999999094031MD1019999+9999OA149900571REMSYN076AAXX  13024 06660 33/// /1103 11032 21049 39403 40084 50/// 333 91111 91207;
0128066600999992010011303004+47383+008567FM-12+056999999V0200601N000519999999N9999999N1-00341-00501100761ADDMA1999999093951MD1819999+9999OA149900571REMSYN076AAXX  13034 06660 33/// /0601 11034 21050 39395 40076 58/// 333 91111 91207;
0128066600999992010011304004+47383+008567FM-12+056999999V0200701N000519999999N9999999N1-00301-00471100691ADDMA1999999093901MD1710201+9999OA149900261REMSYN076AAXX  13044 06660 33/// /0701 11030 21047 39390 40069 57020 333 91105 91202;
0128066600999992010011305004+47383+008567FM-12+056999999V0200401N002119999999N9999999N1-00331-00471100681ADDMA1999999093881MD1710151+9999OA149900311REMSYN076AAXX  13054 06660 33/// /0404 11033 21047 39388 40068 57015 333 91106 91204;
0329066600999992010011306004+47383+008567FM-12+056999999V0200501N002110006019N0028001N1-00331-00471100701ADDAA124000021AJ100119199999999AL19900091AY121061AY221061GA1081+000601071GF108991081061000251999999GJ100729IA1239IA2999-00609KA1999N-00411MA1999999093901MD1510051+9999MW1101OA149900571REMSYN136AAXX  13064 06660 31028 80504 11033 21047 39390 40070 55005 71022 886// 333 21041 3/106 47011 55012 70000 88702 90768 93100 91111 91207;
0128066600999992010011307004+47383+008567FM-12+056999999V0200501N000519999999N9999999N1-00321-00481100761ADDMA1999999093961MD1210061+9999OA149900311REMSYN076AAXX  13074 06660 33/// /0501 11032 21048 39396 40076 52006 333 91106 91204;
0128066600999992010011308004+47383+008567FM-12+056999999V0202901N001019999999N9999999N1-00311-00461100861ADDMA1999999094051MD1210171+9999OA149900261REMSYN076AAXX  13084 06660 33/// /2902 11031 21046 39405 40086 52017 333 91105 91203;
0232066600999992010011309004+47383+008567FM-12+056999999V0202201N000510045019N0012001N1-00251-00431100911ADDAY171031AY221031GA1041+001501071GA2081+004501071GF108991081071001501999999MA1999999094111MD1110211+9999MW1701OA149900311REMSYN100AAXX  13094 06660 31212 82201 11025 21043 39411 40091 51021 77072 887// 333 84705 88715 91106 91204;
0145066600999992010011310004+47383+008567FM-12+056999999V0201901N001519999999N9999999N1-00221-00361100951ADDAA101000021MA1999999094161MD1310201+9999OA149900261REMSYN082AAXX  13104 06660 23/// /1903 11022 21036 39416 40095 53020 333 69915 91105 91203;
0145066600999992010011311004+47383+008567FM-12+056999999V0202001N001019999999N9999999N1-00151-00291100911ADDAA101000391MA1999999094141MD1210091+9999OA149900261REMSYN082AAXX  13114 06660 23/// /2002 11015 21029 39414 40091 52009 333 69935 91105 91203;
0233066600999992010011312004+47383+008567FM-12+056999999V0201901N001010015019N0009001N1-00071-00211100871ADDAA106000591AY171061AY271061GA1081+001501071GF108991081071001501999999MA1999999094121MD1010011+9999MW1711OA149900571REMSYN106AAXX  13124 06660 01209 81902 11007 21021 39412 40087 50001 69951 77177 887// 333 69915 88705 91111 91207;
0145066600999992010011313004+47383+008567FM-12+056999999V0202101N000519999999N9999999N1-00031-00141100861ADDAA101000021MA1999999094121MD1610041+9999OA149900151REMSYN082AAXX  13134 06660 23/// /2101 11003 21014 39412 40086 56004 333 69925 91103 91202;
0145066600999992010011314004+47383+008567FM-12+056999999V0202101N001019999999N9999999N1-00031-00111100891ADDAA101000591MA1999999094151MD1319999+9999OA149900151REMSYN082AAXX  13144 06660 23/// /2102 11003 21011 39415 40089 53/// 333 69955 91103 91202;
0215066600999992010011315004+47383+008567FM-12+056999999V0202201N001010003019N0003001N1-00031-00081100911ADDAA101000591AY171031AY221031GA1091+999999999GF109991091999999999999999MA1999999094171MD1310051+9999MW1711OA149900261REMSYN088AAXX  13154 06660 21/03 92202 11003 21008 39417 40091 53005 77172 333 69945 91105 91203;
0145066600999992010011316004+47383+008567FM-12+056999999V0202001N001519999999N9999999N1+00021-00041100941ADDAA101000591MA1999999094211MD1310091+9999OA149900211REMSYN082AAXX  13164 06660 23/// /2003 10002 21004 39421 40094 53009 333 69945 91104 91203;
0145066600999992010011317004+47383+008567FM-12+056999999V0202001N002119999999N9999999N1+00061-00041100991ADDAA101000021MA1999999094261MD1310111+9999OA149900411REMSYN082AAXX  13174 06660 23/// /2004 10006 21004 39426 40099 53011 333 69915 91108 91204;
0303066600999992010011318004+47383+008567FM-12+056999999V0202201N002110015019N0015001N1+00041-00021101031ADDAA112002091AJ100129199999999AL11200291AY171061AY221061GA1081+001501071GF108991081071001501999999IA1279KA1120M+00081MA1999999094301MD1310131+9999MW1711OA149900411REMSYN130AAXX  13184 06660 01215 82204 10004 21002 39430 40103 53013 60022 77172 887// 333 10008 43012 69925 88705 90766 93102 91108 91205;
0145066600999992010011319004+47383+008567FM-12+056999999V0202001N002119999999N9999999N1+00091-00011101041ADDAA101000021MA1999999094321MD1110111+9999OA149900411REMSYN082AAXX  13194 06660 23/// /2004 10009 21001 39432 40104 51011 333 69915 91108 91205;
0145066600999992010011320004+47383+008567FM-12+056999999V0202301N001019999999N9999999N1+00061-00011101081ADDAA101000021MA1999999094351MD1110091+9999OA149900411REMSYN082AAXX  13204 06660 23/// /2302 10006 21001 39435 40108 51009 333 69925 91108 91205;
0145066600999992010011321004+47383+008567FM-12+056999999V0202101N000519999999N9999999N1+00061-00011101081ADDAA101000021MA1999999094351MD1210051+9999OA149900411REMSYN082AAXX  13214 06660 23/// /2101 10006 21001 39435 40108 52005 333 69915 91108 91205;
0128066600999992010011322004+47383+008567FM-12+056999999V0202001N001019999999N9999999N1+00051+00001101071ADDMA1999999094341MD1010021+9999OA149900211REMSYN076AAXX  13224 06660 33/// /2002 10005 20000 39434 40107 50002 333 91104 91202;
0128066600999992010011323004+47383+008567FM-12+056999999V0202201N000519999999N9999999N1+00041+00001101041ADDMA1999999094311MD1710041+9999OA149900211REMSYN076AAXX  13234 06660 33/// /2201 10004 20000 39431 40104 57004 333 91104 91202;
0277066600999992010011400004+47383+008567FM-12+056999999V0203301N000510066019N0015001N1+00001-00061100981ADDAA106000591AY161061AY211061GA1011+000601071GA2031+001501061GA3071+006601071GF107991071071000251999999MA1999999094241MD1710111+9999MW1101OA149900411REMSYN118AAXX  14004 06660 01015 73301 10000 21006 39424 40098 57011 69941 71061 877// 333 60005 81702 83605 87722 91108 91205;
0128066600999992010011401004+47383+008567FM-12+056999999V0200201N001019999999N9999999N1-00011-00071100951ADDMA1999999094211MD1610131+9999OA149900211REMSYN076AAXX  14014 06660 33/// /0202 11001 21007 39421 40095 56013 333 91104 91203;
0128066600999992010011402004+47383+008567FM-12+056999999V0201001N000519999999N9999999N1-00121-00121100911ADDMA1999999094151MD1819999+9999OA149900211REMSYN076AAXX  14024 06660 33/// /1001 11012 21012 39415 40091 58/// 333 91104 91203;
0087066600999992010011403004+47383+008567FM-12+056999999V0200501N001519999999N9999999N1-00131-00151100911ADDMA1999999094141REMSYN060AAXX  14034 06660 33/// /0503 11013 21015 39414 40091 5////;
0128066600999992010011404004+47383+008567FM-12+056999999V0200301N001519999999N9999999N1-00031-00071100871ADDMA1999999094131MD1710081+9999OA149900361REMSYN076AAXX  14044 06660 33/// /0303 11003 21007 39413 40087 57008 333 91107 91205;
0128066600999992010011405004+47383+008567FM-12+056999999V0200301N000519999999N9999999N1+00001-00031100851ADDMA1999999094121MD1710031+9999OA149900361REMSYN076AAXX  14054 06660 33/// /0301 10000 21003 39412 40085 57003 333 91107 91205;
0340066600999992010011406004+47383+008567FM-12+056999999V0200901N001010001519N0000001N1-00011-00061100811ADDAA112000591AA224002891AJ100129199999999AL19900291AY121061AY221061GA1091+999999999GF109991091999999999999999GJ100009IA1279IA2999-00309KA1999N-00131MA1999999094081MD1810061+9999MW1451OA149900411REMSYN136AAXX  14064 06660 01/00 90902 11001 21006 39408 40081 58006 69942 74522 333 21013 3/103 43012 55000 60005 70027 90768 93102 91108 91205;
0128066600999992010011407004+47383+008567FM-12+056999999V0200801N002119999999N9999999N1-00061-00111100811ADDMA1999999094071MD1810061+9999OA149900361REMSYN076AAXX  14074 06660 33/// /0804 11006 21011 39407 40081 58006 333 91107 91204;
0128066600999992010011408004+47383+008567FM-12+056999999V0200901N001019999999N9999999N1-00061-00101100801ADDMA1999999094061MD1719999+9999OA149900361REMSYN076AAXX  14084 06660 33/// /0902 11006 21010 39406 40080 57/// 333 91107 91204;
0210066600999992010011409004+47383+008567FM-12+056999999V0200601N004110009019N0030001N1+00031-00081100741ADDAY141031AY221031GA1081+000901071GF108991081061000751999999MA1999999094021MD1710061+9999MW1101OA149900671REMSYN094AAXX  14094 06660 31130 80608 10003 21008 39402 40074 57006 71042 886// 333 88703 91113 91208;
0128066600999992010011410004+47383+008567FM-12+056999999V0200601N002119999999N9999999N1+00051-00061100751ADDMA1999999094041MD1710031+9999OA149900721REMSYN076AAXX  14104 06660 33/// /0604 10005 21006 39404 40075 57003 333 91114 91208;
0128066600999992010011411004+47383+008567FM-12+056999999V0200501N003119999999N9999999N1+00101-00011100651ADDMA1999999093961MD1710101+9999OA149900721REMSYN076AAXX  14114 06660 33/// /0506 10010 21001 39396 40065 57010 333 91114 91207;
0232066600999992010011412004+47383+008567FM-12+056999999V0200501N003110036019N0040001N1+00111-00041100611ADDAY141061AY221061GA1041+000901071GA2071+003601071GF107991071061000751999999MA1999999093921MD1710101+9999MW1101OA149900721REMSYN100AAXX  14124 06660 31140 70506 10011 21004 39392 40061 57010 71042 876// 333 84703 87712 91114 91208;
0128066600999992010011413004+47383+008567FM-12+056999999V0200501N003119999999N9999999N1+00121-00051100561ADDMA1999999093881MD1710161+9999OA149900771REMSYN076AAXX  14134 06660 33/// /0506 10012 21005 39388 40056 57016 333 91115 91207;
0128066600999992010011414004+47383+008567FM-12+056999999V0200501N003119999999N9999999N1+00111-00021100621ADDMA1999999093931MD1510031+9999OA149900821REMSYN076AAXX  14144 06660 33/// /0506 10011 21002 39393 40062 55003 333 91116 91207;
0232066600999992010011415004+47383+008567FM-12+056999999V0209999C000010045019N0050001N1+00131-00021100671ADDAY121031AY221031GA1021+002401071GA2061+004501061GF107991061051002501051999MA1999999093981MD1310061+9999MW1101OA149900821REMSYN100AAXX  14154 06660 31350 70000 10013 21002 39398 40067 53006 71022 8655/ 333 82708 86615 91116 91207;
0128066600999992010011416004+47383+008567FM-12+056999999V0200101N001019999999N9999999N1+00091-00021100701ADDMA1999999094001MD1210121+9999OA149900621REMSYN076AAXX  14164 06660 33/// /0102 10009 21002 39400 40070 52012 333 91112 91205;
0128066600999992010011417004+47383+008567FM-12+056999999V0200201N001019999999N9999999N1+00071-00051100771ADDMA1999999094061MD1210131+9999OA149900461REMSYN076AAXX  14174 06660 33/// /0202 10007 21005 39406 40077 52013 333 91109 91205;
0280066600999992010011418004+47383+008567FM-12+056999999V0200501N002110015019N0030001N1+00031-00051100831ADDAJ100069199999999AL19900091AY121061AY221061GA1071+001501071GF107991071061001501999999IA1279KA1120M+00141MA1999999094111MD1210131+9999MW1101OA149900821REMSYN118AAXX  14184 06660 31230 70504 10003 21005 39411 40083 52013 71022 876// 333 10014 43006 87705 90766 93100 91116 91208;
0128066600999992010011419004+47383+008567FM-12+056999999V0200401N002619999999N9999999N1+00041-00071100921ADDMA1999999094191MD1210191+9999OA149900511REMSYN076AAXX  14194 06660 33/// /0405 10004 21007 39419 40092 52019 333 91110 91205;
0128066600999992010011420004+47383+008567FM-12+056999999V0200301N002619999999N9999999N1+00001-00101101001ADDMA1999999094261MD1110201+9999OA149900671REMSYN076AAXX  14204 06660 33/// /0305 10000 21010 39426 40100 51020 333 91113 91207;
0128066600999992010011421004+47383+008567FM-12+056999999V0203501N000519999999N9999999N1-00011-00131101101ADDMA1999999094351MD1310241+9999OA149900671REMSYN076AAXX  14214 06660 33/// /3501 11001 21013 39435 40110 53024 333 91113 91207;
0128066600999992010011422004+47383+008567FM-12+056999999V0203501N001019999999N9999999N1-00021-00141101201ADDMA1999999094441MD1310251+9999OA149900571REMSYN076AAXX  14224 06660 33/// /3502 11002 21014 39444 40120 53025 333 91111 91204;
0128066600999992010011423004+47383+008567FM-12+056999999V0200301N002119999999N9999999N1-00021-00141101301ADDMA1999999094531MD1210271+9999OA149900411REMSYN076AAXX  14234 06660 33/// /0304 11002 21014 39453 40130 52027 333 91108 91204;
0210066600999992010011500004+47383+008567FM-12+056999999V0209999C000010006019N0030001N1-00031-00151101361ADDAY121061AY221061GA1081+000601071GF108991081061000251999999MA1999999094591MD1110241+9999MW1101OA149900821REMSYN094AAXX  15004 06660 31030 80000 11003 21015 39459 40136 51024 71022 886// 333 88702 91116 91207;
0128066600999992010011501004+47383+008567FM-12+056999999V0200501N001519999999N9999999N1-00041-00141101431ADDMA1999999094651MD1110211+9999OA149900361REMSYN076AAXX  15014 06660 33/// /0503 11004 21014 39465 40143 51021 333 91107 91204;
0128066600999992010011502004+47383+008567FM-12+056999999V0200501N002119999999N9999999N1-00061-00161101521ADDMA1999999094731MD1310201+9999OA149900361REMSYN076AAXX  15024 06660 33/// /0504 11006 21016 39473 40152 53020 333 91107 91205;
0087066600999992010011503004+47383+008567FM-12+056999999V0200601N001019999999N9999999N1-00041-00171101611ADDMA1999999094821REMSYN060AAXX  15034 06660 33/// /0602 11004 21017 39482 40161 5////;
0128066600999992010011504004+47383+008567FM-12+056999999V0200501N001019999999N9999999N1-00051-00171101691ADDMA1999999094891MD1110241+9999OA149900311REMSYN076AAXX  15044 06660 33/// /0502 11005 21017 39489 40169 51024 333 91106 91203;
0128066600999992010011505004+47383+008567FM-12+056999999V0200901N000519999999N9999999N1-00051-00161101801ADDMA1999999094991MD1310261+9999OA149900211REMSYN076AAXX  15054 06660 33/// /0901 11005 21016 39499 40180 53026 333 91104 91203;
0348066600999992010011506004+47383+008567FM-12+056999999V0202201N001010015019N0020001N1-00011-00141101881ADDAA124000091AJ100069199999999AL19900091AY121061AY221061GA1081+001501071GF108991081061001501999999GJ100009IA1279IA2999-00109KA1999N-00061MA1999999095081MD1310261+9999MW1101OA149900671REMSYN136AAXX  15064 06660 31220 82202 11001 21014 39508 40188 53026 71022 886// 333 21006 3/101 43006 55000 70000 88705 90768 93100 91113 91207;EQDQ01  00002PRCP24
0128066600999992010011507004+47383+008567FM-12+056999999V0201801N001019999999N9999999N1+00021-00201101971ADDMA1999999095171MD1310281+9999OA149900261REMSYN076AAXX  15074 06660 33/// /1802 10002 21020 39517 40197 53028 333 91105 91203;
0128066600999992010011508004+47383+008567FM-12+056999999V0202101N001519999999N9999999N1+00041-00221102051ADDMA1999999095251MD1119999+9999OA149900361REMSYN076AAXX  15084 06660 33/// /2103 10004 21022 39525 40205 51/// 333 91107 91204;
0210066600999992010011509004+47383+008567FM-12+056999999V0202101N002110030019N0040001N1+00041-00231102161ADDAY121031AY221031GA1071+003001071GF107991071061002501999999MA1999999095351MD1310271+9999MW1101OA149900461REMSYN094AAXX  15094 06660 31340 72104 10004 21023 39535 40216 53027 71022 876// 333 87710 91109 91205;
0128066600999992010011510004+47383+008567FM-12+056999999V0202001N002619999999N9999999N1+00051-00221102211ADDMA1999999095401MD1110231+9999OA149900461REMSYN076AAXX  15104 06660 33/// /2005 10005 21022 39540 40221 51023 333 91109 91205;
0128066600999992010011511004+47383+008567FM-12+056999999V0202001N002119999999N9999999N1+00071-00211102261ADDMA1999999095451MD1110201+9999OA149900461REMSYN076AAXX  15114 06660 33/// /2004 10007 21021 39545 40226 51020 333 91109 91205;
0210066600999992010011512004+47383+008567FM-12+056999999V0202101N002110024019N0040001N1+00121-00191102261ADDAY121061AY221061GA1071+002401071GF107991071061002501999999MA1999999095461MD1110111+9999MW1101OA149900461REMSYN094AAXX  15124 06660 31340 72104 10012 21019 39546 40226 51011 71022 876// 333 87708 91109 91205;
0128066600999992010011513004+47383+008567FM-12+056999999V0202001N001519999999N9999999N1+00131-00181102311ADDMA1999999095511MD1310111+9999OA149900411REMSYN076AAXX  15134 06660 33/// /2003 10013 21018 39551 40231 53011 333 91108 91205;
0128066600999992010011514004+47383+008567FM-12+056999999V0202901N001519999999N9999999N1+00111-00181102391ADDMA1999999095581MD1210131+9999OA149900361REMSYN076AAXX  15144 06660 33/// /2903 10011 21018 39558 40239 52013 333 91107 91204;
0210066600999992010011515004+47383+008567FM-12+056999999V0202501N001010030019N0050001N1+00131-00171102451ADDAY121031AY221031GA1081+003001071GF108991081061002501999999MA1999999095641MD1210181+9999MW1101OA149900461REMSYN094AAXX  15154 06660 31350 82502 10013 21017 39564 40245 52018 71022 886// 333 88710 91109 91205;
0128066600999992010011516004+47383+008567FM-12+056999999V0201901N001019999999N9999999N1+00101-00141102511ADDMA1999999095691MD1210181+9999OA149900361REMSYN076AAXX  15164 06660 33/// /1902 10010 21014 39569 40251 52018 333 91107 91203;
0128066600999992010011517004+47383+008567FM-12+056999999V0200801N000519999999N9999999N1+00091-00121102561ADDMA1999999095741MD1110161+9999OA149900311REMSYN076AAXX  15174 06660 33/// /0801 10009 21012 39574 40256 51016 333 91106 91203;
0280066600999992010011518004+47383+008567FM-12+056999999V0200201N001010024019N0040001N1+00071-00131102601ADDAJ100069199999999AL19900091AY121061AY221061GA1081+002401071GF108991081061002501999999IA1239KA1120M+00141MA1999999095771MD1110131+9999MW1101OA149900461REMSYN118AAXX  15184 06660 31340 80202 10007 21013 39577 40260 51013 71022 886// 333 10014 47006 88708 90766 93100 91109 91205;
0128066600999992010011519004+47383+008567FM-12+056999999V0200301N001019999999N9999999N1+00071-00161102621ADDMA1999999095791MD1110101+9999OA149900211REMSYN076AAXX  15194 06660 33/// /0302 10007 21016 39579 40262 51010 333 91104 91202;
0128066600999992010011520004+47383+008567FM-12+056999999V0201401N001019999999N9999999N1+00051-00191102631ADDMA1999999095791MD1210051+9999OA149900211REMSYN076AAXX  15204 06660 33/// /1402 10005 21019 39579 40263 52005 333 91104 91202;
0128066600999992010011521004+47383+008567FM-12+056999999V0200901N001519999999N9999999N1+00041-00181102651ADDMA1999999095811MD1210041+9999OA149900311REMSYN076AAXX  15214 06660 33/// /0903 10004 21018 39581 40265 52004 333 91106 91203;
0128066600999992010011522004+47383+008567FM-12+056999999V0201001N001019999999N9999999N1+00001-00181102651ADDMA1999999095801MD1010011+9999OA149900361REMSYN076AAXX  15224 06660 33/// /1002 10000 21018 39580 40265 50001 333 91107 91204;
0128066600999992010011523004+47383+008567FM-12+056999999V0200801N000519999999N9999999N1-00011-00191102661ADDMA1999999095811MD1310021+9999OA149900361REMSYN076AAXX  15234 06660 33/// /0801 11001 21019 39581 40266 53002 333 91107 91204;
0210066600999992010011600004+47383+008567FM-12+056999999V0200501N001010015019N0060001N1-00021-00211102631ADDAY121061AY221061GA1081+001501071GF108991081061001501999999MA1999999095781MD1810031+9999MW1101OA149900361REMSYN094AAXX  16004 06660 31256 80502 11002 21021 39578 40263 58003 71022 886// 333 88705 91107 91204;
0128066600999992010011601004+47383+008567FM-12+056999999V0200401N000519999999N9999999N1+00001-00241102601ADDMA1999999095751MD1810051+9999OA149900311REMSYN076AAXX  16014 06660 33/// /0401 10000 21024 39575 40260 58005 333 91106 91203;
0128066600999992010011602004+47383+008567FM-12+056999999V0201301N000519999999N9999999N1-00011-00221102591ADDMA1999999095741MD1710071+9999OA149900211REMSYN076AAXX  16024 06660 33/// /1301 11001 21022 39574 40259 57007 333 91104 91202;
0128066600999992010011603004+47383+008567FM-12+056999999V0201101N000519999999N9999999N1-00041-00281102571ADDMA1999999095711MD1719999+9999OA149900361REMSYN076AAXX  16034 06660 33/// /1101 11004 21028 39571 40257 57/// 333 91107 91204;
0128066600999992010011604004+47383+008567FM-12+056999999V0201401N001019999999N9999999N1-00101-00301102551ADDMA1999999095681MD1710071+9999OA149900361REMSYN076AAXX  16044 06660 33/// /1402 11010 21030 39568 40255 57007 333 91107 91203;
0128066600999992010011605004+47383+008567FM-12+056999999V0201001N001019999999N9999999N1-00111-00331102501ADDMA1999999095631MD1710111+9999OA149900361REMSYN076AAXX  16054 06660 33/// /1002 11011 21033 39563 40250 57011 333 91107 91203;
0329066600999992010011606004+47383+008567FM-12+056999999V0201101N001510015019N0040001N1-00151-00361102481ADDAA124000021AJ100069199999999AL19900091AY171061AY221061GA1081+001501071GF108991081061001501999999GJ100009IA1279IA2999-00209KA1999N-00151MA1999999095601MD1710111+9999MW1771OA149900361REMSYN136AAXX  16064 06660 31240 81103 11015 21036 39560 40248 57011 77772 886// 333 21015 3/102 43006 55000 70000 88705 90768 93100 91107 91204;
0128066600999992010011607004+47383+008567FM-12+056999999V0201101N001519999999N9999999N1-00181-00391102421ADDMA1999999095541MD1710141+9999OA149900311REMSYN076AAXX  16074 06660 33/// /1103 11018 21039 39554 40242 57014 333 91106 91203;
0128066600999992010011608004+47383+008567FM-12+056999999V0201001N001519999999N9999999N1-00211-00421102391ADDMA1999999095501MD1710131+9999OA149900411REMSYN076AAXX  16084 06660 33/// /1003 11021 21042 39550 40239 57013 333 91108 91203;
0188066600999992010011609004+47383+008567FM-12+056999999V0200601N001510021019N0050001N1-00201-00451102341ADDGA1081+002101071GF108991081061001501999999MA1999999095461MD1710141+9999OA149900411REMSYN094AAXX  16094 06660 31250 80603 11020 21045 39546 40234 57014 7//72 886// 333 88707 91108 91203;
0128066600999992010011610004+47383+008567FM-12+056999999V0209999C000019999999N9999999N1-00151-00441102291ADDMA1999999095431MD1710111+9999OA149900311REMSYN076AAXX  16104 06660 33/// /0000 11015 21044 39543 40229 57011 333 91106 91203;
0128066600999992010011611004+47383+008567FM-12+056999999V0201501N001519999999N9999999N1-00131-00431102211ADDMA1999999095361MD1710141+9999OA149900311REMSYN076AAXX  16114 06660 33/// /1503 11013 21043 39536 40221 57014 333 91106 91203;
0210066600999992010011612004+47383+008567FM-12+056999999V0202201N001510024019N0050001N1-00031-00381102161ADDAY171061AY221061GA1061+002401071GF106991061061002501001001MA1999999095331MD1710131+9999MW1101OA149900511REMSYN094AAXX  16124 06660 31350 62203 11003 21038 39533 40216 57013 71072 86600 333 86708 91110 91203;
0128066600999992010011613004+47383+008567FM-12+056999999V0202301N001519999999N9999999N1-00061-00351102161ADDMA1999999095331MD1710101+9999OA149900511REMSYN076AAXX  16134 06660 33/// /2303 11006 21035 39533 40216 57010 333 91110 91205;
0128066600999992010011614004+47383+008567FM-12+056999999V0202001N002119999999N9999999N1-00101-00371102091ADDMA1999999095251MD1719999+9999OA149900411REMSYN076AAXX  16144 06660 33/// /2004 11010 21037 39525 40209 57/// 333 91108 91205;
0232066600999992010011615004+47383+008567FM-12+056999999V0201901N001510300019N0030001N1-00101-00371102011ADDAY121031AY221031GA1021+005401061GA2081+030001041GF108991021051004501021999MA1999999095181MD1710151+9999MW1101OA149900511REMSYN100AAXX  16154 06660 31430 81903 11010 21037 39518 40201 57015 71022 8252/ 333 82618 88460 91110 91205;
0128066600999992010011616004+47383+008567FM-12+056999999V0201401N001019999999N9999999N1-00121-00361101961ADDMA1999999095131MD1710201+9999OA149900361REMSYN076AAXX  16164 06660 33/// /1402 11012 21036 39513 40196 57020 333 91107 91204;
0128066600999992010011617004+47383+008567FM-12+056999999V0202001N001519999999N9999999N1-00111-00341101981ADDMA1999999095151MD1710101+9999OA149900361REMSYN076AAXX  16174 06660 33/// /2003 11011 21034 39515 40198 57010 333 91107 91204;
