0140066790999992011010100004+47483+008900FM-12+053699999V0200601N000519999999N9999999N1+00051+00021102391ADDMA1999999095781MD1710111+9999OA149900261REMSYN088AAXX  01004 06679 33/// /0601 10005 20002 39578 40239 57011 333 55300 20000 91105 91203;
0140066790999992011010101004+47483+008900FM-12+053699999V0209999C000019999999N9999999N1+00031+00021102341ADDMA1999999095731MD1710151+9999OA149900101REMSYN088AAXX  01014 06679 33/// /0000 10003 20002 39573 40234 57015 333 55300 20000 91102 91201;
0140066790999992011010102004+47483+008900FM-12+053699999V0202301N001019999999N9999999N1+00121-00041102301ADDMA1999999095711MD1610131+9999OA149900411REMSYN088AAXX  01024 06679 33/// /2302 10012 21004 39571 40230 56013 333 55300 20000 91108 91205;
0140066790999992011010103004+47483+008900FM-12+053699999V0202301N001019999999N9999999N1+00111-00051102271ADDMA1999999095681MD1610101+9999OA149900411REMSYN088AAXX  01034 06679 33/// /2302 10011 21005 39568 40227 56010 333 55300 20000 91108 91205;
0140066790999992011010104004+47483+008900FM-12+053699999V0202501N000519999999N9999999N1+00131-00061102261ADDMA1999999095681MD1710051+9999OA149900461REMSYN088AAXX  01044 06679 33/// /2501 10013 21006 39568 40226 57005 333 55300 20000 91109 91204;
0140066790999992011010105004+47483+008900FM-12+053699999V0202101N002119999999N9999999N1+00091-00081102291ADDMA1999999095701MD1510011+9999OA149900461REMSYN088AAXX  01054 06679 33/// /2104 10009 21008 39570 40229 55001 333 55300 20000 91109 91204;
0207066790999992011010106004+47483+008900FM-12+053699999V0202301N001519999999N9999999N1+00101-00071102301ADDAL19900091GJ100009IA2999+00009KA1999N+00001MA1999999095711MD1210031+9999OA149900461REMSYN112AAXX  01064 06679 33/// /2303 10010 21007 39571 40230 52003 333 20000 3/100 55000 55300 20000 70000 91109 91205;
0140066790999992011010107004+47483+008900FM-12+053699999V0202201N000519999999N9999999N1+00111-00101102291ADDMA1999999095701MD1210021+9999OA149900361REMSYN088AAXX  01074 06679 33/// /2201 10011 21010 39570 40229 52002 333 55300 20000 91107 91204;
0140066790999992011010108004+47483+008900FM-12+053699999V0202101N001019999999N9999999N1+00141-00081102301ADDMA1999999095721MD1219999+9999OA149900311REMSYN088AAXX  01084 06679 33/// /2102 10014 21008 39572 40230 52/// 333 55300 20040 91106 91203;
0087066790999992011010109004+47483+008900FM-12+053699999V0202301N001519999999N9999999N1+00181-00071102291ADDMA1999999095721REMSYN060AAXX  01094 06679 43/// /2303 10018 21007 39572 40229 5////;
0087066790999992011010110004+47483+008900FM-12+053699999V0202501N001019999999N9999999N1+00201-00091102291ADDMA1999999095721REMSYN060AAXX  01104 06679 43/// /2502 10020 21009 39572 40229 5////;
0140066790999992011010111004+47483+008900FM-12+053699999V0202201N001019999999N9999999N1+00201-00101102221ADDMA1999999095661MD1710061+9999OA149900461REMSYN088AAXX  01114 06679 33/// /2202 10020 21010 39566 40222 57006 333 55300 20446 91109 91203;
0087066790999992011010112004+47483+008900FM-12+053699999V0202201N002119999999N9999999N1+00181-00111102171ADDMA1999999095611REMSYN060AAXX  01124 06679 43/// /2204 10018 21011 39561 40217 5////;
0087066790999992011010113004+47483+008900FM-12+053699999V0202401N001519999999N9999999N1+00171-00101102121ADDMA1999999095561REMSYN060AAXX  01134 06679 43/// /2403 10017 21010 39556 40212 5////;
0087066790999992011010114004+47483+008900FM-12+053699999V0202201N001519999999N9999999N1+00151-00121102111ADDMA1999999095541REMSYN060AAXX  01144 06679 43/// /2203 10015 21012 39554 40211 5////;
0087066790999992011010115004+47483+008900FM-12+053699999V0202201N000519999999N9999999N1+00151-00121102121ADDMA1999999095551REMSYN060AAXX  01154 06679 43/// /2201 10015 21012 39555 40212 5////;
0087066790999992011010116004+47483+008900FM-12+053699999V0203201N001519999999N9999999N1+00101-00101102161ADDMA1999999095581REMSYN060AAXX  01164 06679 43/// /3203 10010 21010 39558 40216 5////;
0087066790999992011010117004+47483+008900FM-12+053699999V0202901N001019999999N9999999N1+00081-00131102201ADDMA1999999095611REMSYN060AAXX  01174 06679 43/// /2902 10008 21013 39561 40220 5////;
0087066790999992011010118004+47483+008900FM-12+053699999V0203201N002119999999N9999999N1+00031-00101102201ADDMA1999999095601REMSYN060AAXX  01184 06679 43/// /3204 10003 21010 39560 40220 5////;
0103066790999992011010119004+47483+008900FM-12+053699999V0203201N001519999999N9999999N1+00001-00101102211ADDMA1999999095601REMSYN076AAXX  01194 06679 33/// /3203 10000 21010 39560 40221 5//// 333 553// 20000;
0140066790999992011010120004+47483+008900FM-12+053699999V0203301N001519999999N9999999N1-00041-00131102241ADDMA1999999095621MD1210011+9999OA149900311REMSYN088AAXX  01204 06679 33/// /3303 11004 21013 39562 40224 52001 333 55300 20000 91106 91204;
0140066790999992011010121004+47483+008900FM-12+053699999V0203301N001019999999N9999999N1-00061-00151102221ADDMA1999999095601MD1010001+9999OA149900311REMSYN088AAXX  01214 06679 33/// /3302 11006 21015 39560 40222 50000 333 55300 20000 91106 91204;
0140066790999992011010122004+47483+008900FM-12+053699999V0203201N001019999999N9999999N1-00061-00151102191ADDMA1999999095571MD1710031+9999OA149900211REMSYN088AAXX  01224 06679 33/// /3202 11006 21015 39557 40219 57003 333 55300 20000 91104 91203;
0140066790999992011010123004+47483+008900FM-12+053699999V0209999C000019999999N9999999N1-00081-00151102181ADDMA1999999095551MD1710071+9999OA149900211REMSYN088AAXX  01234 06679 33/// /0000 11008 21015 39555 40218 57007 333 55300 20000 91104 91203;
0140066790999992011010200004+47483+008900FM-12+053699999V0209999C000019999999N9999999N1-00051-00161102121ADDMA1999999095501MD1810101+9999OA149900411REMSYN088AAXX  02004 06679 33/// /0000 11005 21016 39550 40212 58010 333 55300 20000 91108 91204;
0140066790999992011010201004+47483+008900FM-12+053699999V0202201N001019999999N9999999N1-00031-00211102071ADDMA1999999095461MD1810111+9999OA149900261REMSYN088AAXX  02014 06679 33/// /2202 11003 21021 39546 40207 58011 333 55300 20000 91105 91202;
0087066790999992011010202004+47483+008900FM-12+053699999V0203401N001019999999N9999999N1-00071-00191102101ADDMA1999999095481REMSYN060AAXX  02024 06679 43/// /3402 11007 21019 39548 40210 5////;
0087066790999992011010203004+47483+008900FM-12+053699999V0203101N000519999999N9999999N1-00071-00191102131ADDMA1999999095511REMSYN060AAXX  02034 06679 43/// /3101 11007 21019 39551 40213 5////;
0087066790999992011010204004+47483+008900FM-12+053699999V0209999C000019999999N9999999N1-00061-00181102131ADDMA1999999095511REMSYN060AAXX  02044 06679 43/// /0000 11006 21018 39551 40213 5////;
0087066790999992011010205004+47483+008900FM-12+053699999V0203501N001019999999N9999999N1-00051-00161102131ADDMA1999999095511REMSYN060AAXX  02054 06679 43/// /3502 11005 21016 39551 40213 5////;
0134066790999992011010206004+47483+008900FM-12+053699999V0203301N001019999999N9999999N1-00071-00171102151ADDIA2999-00209KA1999N-00081MA1999999095531REMSYN082AAXX  02064 06679 43/// /3302 11007 21017 39553 40215 5//// 333 21008 3/102 55000;
0140066790999992011010207004+47483+008900FM-12+053699999V0203601N000519999999N9999999N1-00061-00131102171ADDMA1999999095551MD1210041+9999OA149900151REMSYN088AAXX  02074 06679 33/// /3601 11006 21013 39555 40217 52004 333 55300 20000 91103 91203;
0146066790999992011010208004+47483+008900FM-12+053699999V0203501N001019999999N9999999N1-00061-00151102221ADDMA1999999095601MD1210091+9999OA149900151REMSYN094AAXX  02084 06679 23/// /3502 11006 21015 39560 40222 52009 333 55300 20011 69915 91103 91202;
0146066790999992011010209004+47483+008900FM-12+053699999V0203201N000519999999N9999999N1-00051-00141102271ADDMA1999999095641MD1310111+9999OA149900151REMSYN094AAXX  02094 06679 23/// /3201 11005 21014 39564 40227 53011 333 55300 20072 69935 91103 91203;
0146066790999992011010210004+47483+008900FM-12+053699999V0203501N001019999999N9999999N1-00031-00131102291ADDMA1999999095671MD1110121+9999OA149900151REMSYN094AAXX  02104 06679 23/// /3502 11003 21013 39567 40229 51012 333 55300 20209 69915 91103 91202;
0146066790999992011010211004+47483+008900FM-12+053699999V0200201N001019999999N9999999N1-00021-00111102301ADDMA1999999095681MD1110081+9999OA149900211REMSYN094AAXX  02114 06679 23/// /0202 11002 21011 39568 40230 51008 333 55300 20234 69915 91104 91203;
0163066790999992011010212004+47483+008900FM-12+053699999V0200501N001019999999N9999999N1-00011-00151102281ADDAA106000591MA1999999095661MD1010021+9999OA149900261REMSYN100AAXX  02124 06679 03/// /0502 11001 21015 39566 40228 50002 69961 333 55300 20306 60005 91105 91203;
0140066790999992011010213004+47483+008900FM-12+053699999V0200701N001019999999N9999999N1+00001-00221102271ADDMA1999999095661MD1710011+9999OA149900311REMSYN088AAXX  02134 06679 33/// /0702 10000 21022 39566 40227 57001 333 55300 20407 91106 91203;
0103066790999992011010214004+47483+008900FM-12+053699999V0200701N002119999999N9999999N1+00011-00211102291ADDMA1999999095681REMSYN076AAXX  02144 06679 33/// /0704 10001 21021 39568 40229 5//// 333 553// 20360;
0140066790999992011010215004+47483+008900FM-12+053699999V0201001N001019999999N9999999N1+00001-00271102331ADDMA1999999095711MD1310051+9999OA149900311REMSYN088AAXX  02154 06679 33/// /1002 10000 21027 39571 40233 53005 333 55300 20169 91106 91204;
0140066790999992011010216004+47483+008900FM-12+053699999V0200701N001019999999N9999999N1-00041-00301102381ADDMA1999999095751MD1310091+9999OA149900261REMSYN088AAXX  02164 06679 33/// /0702 11004 21030 39575 40238 53009 333 55300 20036 91105 91203;
0140066790999992011010217004+47483+008900FM-12+053699999V0209999C000019999999N9999999N1-00151-00271102441ADDMA1999999095781MD1110101+9999OA149900151REMSYN088AAXX  02174 06679 33/// /0000 11015 21027 39578 40244 51010 333 55300 20000 91103 91202;
0182066790999992011010218004+47483+008900FM-12+053699999V0200701N000519999999N9999999N1-00131-00271102471ADDAA112000591KA1120M+00011MA1999999095811MD1110101+9999OA149900311REMSYN106AAXX  02184 06679 03/// /0701 11013 21027 39581 40247 51010 69962 333 10001 55300 20000 60005 91106 91204;
0140066790999992011010219004+47483+008900FM-12+053699999V0200401N001019999999N9999999N1-00261-00411102541ADDMA1999999095851MD1310101+9999OA149900151REMSYN088AAXX  02194 06679 33/// /0402 11026 21041 39585 40254 53010 333 55300 20000 91103 91202;
0140066790999992011010220004+47483+008900FM-12+053699999V0202401N000519999999N9999999N1-00421-00521102601ADDMA1999999095861MD1210081+9999OA149900151REMSYN088AAXX  02204 06679 33/// /2401 11042 21052 39586 40260 52008 333 55300 20000 91103 91202;
0140066790999992011010221004+47483+008900FM-12+053699999V0202301N000519999999N9999999N1-00531-00641102661ADDMA1999999095891MD1210081+9999OA149900151REMSYN088AAXX  02214 06679 33/// /2301 11053 21064 39589 40266 52008 333 55300 20000 91103 91202;
0140066790999992011010222004+47483+008900FM-12+053699999V0202101N000519999999N9999999N1-00591-00731102711ADDMA1999999095921MD1210071+9999OA149900101REMSYN088AAXX  02224 06679 33/// /2101 11059 21073 39592 40271 52007 333 55300 20000 91102 91201;
0140066790999992011010223004+47483+008900FM-12+053699999V0209999C000019999999N9999999N1-00701-00791102741ADDMA1999999095921MD1210061+9999OA149900101REMSYN088AAXX  02234 06679 33/// /0000 11070 21079 39592 40274 52006 333 55300 20000 91102 91201;
0140066790999992011010300004+47483+008900FM-12+053699999V0201801N000519999999N9999999N1-00721-00831102731ADDMA1999999095911MD1210021+9999OA149900311REMSYN088AAXX  03004 06679 33/// /1801 11072 21083 39591 40273 52002 333 55300 20000 91106 91204;
0140066790999992011010301004+47483+008900FM-12+053699999V0201901N000519999999N9999999N1-00651-00751102681ADDMA1999999095881MD1710041+9999OA149900151REMSYN088AAXX  03014 06679 33/// /1901 11065 21075 39588 40268 57004 333 55300 20000 91103 91202;
0140066790999992011010302004+47483+008900FM-12+053699999V0200301N001019999999N9999999N1-00611-00701102661ADDMA1999999095871MD1619999+9999OA149900211REMSYN088AAXX  03024 06679 33/// /0302 11061 21070 39587 40266 56/// 333 55300 20000 91104 91202;
0087066790999992011010303004+47483+008900FM-12+053699999V0209999C000019999999N9999999N1-00631-00761102661ADDMA1999999095871REMSYN060AAXX  03034 06679 43/// /0000 11063 21076 39587 40266 5////;
0140066790999992011010304004+47483+008900FM-12+053699999V0202001N001019999999N9999999N1-00701-00861102701ADDMA1999999095891MD1310011+9999OA149900211REMSYN088AAXX  03044 06679 33/// /2002 11070 21086 39589 40270 53001 333 55300 20000 91104 91203;
0140066790999992011010305004+47483+008900FM-12+053699999V0209999C000019999999N9999999N1-00781-00901102711ADDMA1999999095881MD1210011+9999OA149900151REMSYN088AAXX  03054 06679 33/// /0000 11078 21090 39588 40271 52001 333 55300 20000 91103 91203;
0207066790999992011010306004+47483+008900FM-12+053699999V0201901N000519999999N9999999N1-00861-01021102751ADDAL13600091GJ100009IA2999-01209KA1999N-00931MA1999999095891MD1210021+9999OA149900211REMSYN112AAXX  03064 06679 33/// /1901 11086 21102 39589 40275 52002 333 21093 3/112 55000 55300 20000 70006 91104 91203;
0140066790999992011010307004+47483+008900FM-12+053699999V0209999C000019999999N9999999N1-00971-01081102781ADDMA1999999095891MD1010001+9999OA149900101REMSYN088AAXX  03074 06679 33/// /0000 11097 21108 39589 40278 50000 333 55300 20000 91102 91201;
0140066790999992011010308004+47483+008900FM-12+053699999V0202001N001019999999N9999999N1-00831-00981102771ADDMA1999999095921MD1219999+9999OA149900151REMSYN088AAXX  03084 06679 33/// /2002 11083 21098 39592 40277 52/// 333 55300 20047 91103 91202;
0103066790999992011010309004+47483+008900FM-12+053699999V0201401N000519999999N9999999N1-00501-00701102681ADDMA1999999095921REMSYN076AAXX  03094 06679 33/// /1401 11050 21070 39592 40268 5//// 333 553// 20245;
0140066790999992011010310004+47483+008900FM-12+053699999V0201401N001019999999N9999999N1-00391-00581102641ADDMA1999999095911MD1210021+9999OA149900261REMSYN088AAXX  03104 06679 33/// /1402 11039 21058 39591 40264 52002 333 55300 20371 91105 91202;
0140066790999992011010311004+47483+008900FM-12+053699999V0200901N000519999999N9999999N1-00311-00541102591ADDMA1999999095881MD1810041+9999OA149900261REMSYN088AAXX  03114 06679 33/// /0901 11031 21054 39588 40259 58004 333 55300 20464 91105 91202;
0140066790999992011010312004+47483+008900FM-12+053699999V0201101N001019999999N9999999N1-00301-00531102521ADDMA1999999095821MD1710101+9999OA149900361REMSYN088AAXX  03124 06679 33/// /1102 11030 21053 39582 40252 57010 333 55300 20544 91107 91203;
0140066790999992011010313004+47483+008900FM-12+053699999V0201401N001519999999N9999999N1-00291-00531102491ADDMA1999999095791MD1810121+9999OA149900361REMSYN088AAXX  03134 06679 33/// /1403 11029 21053 39579 40249 58012 333 55300 20814 91107 91203;
0103066790999992011010314004+47483+008900FM-12+053699999V0201401N001019999999N9999999N1-00261-00551102471ADDMA1999999095781REMSYN076AAXX  03144 06679 33/// /1402 11026 21055 39578 40247 5//// 333 553// 20821;
0103066790999992011010315004+47483+008900FM-12+053699999V0201501N001019999999N9999999N1-00321-00581102471ADDMA1999999095771REMSYN076AAXX  03154 06679 33/// /1502 11032 21058 39577 40247 5//// 333 553// 20418;
0140066790999992011010316004+47483+008900FM-12+053699999V0202001N000519999999N9999999N1-00581-00771102531ADDMA1999999095761MD1710031+9999OA149900211REMSYN088AAXX  03164 06679 33/// /2001 11058 21077 39576 40253 57003 333 55300 20043 91104 91202;
0140066790999992011010317004+47483+008900FM-12+053699999V0202001N001019999999N9999999N1-00691-00851102551ADDMA1999999095751MD1710031+9999OA149900101REMSYN088AAXX  03174 06679 33/// /2002 11069 21085 39575 40255 57003 333 55300 20000 91102 91202;
0159066790999992011010318004+47483+008900FM-12+053699999V0209999C000019999999N9999999N1-00791-00931102581ADDKA1120M-00251MA1999999095751MD1710021+9999OA149900361REMSYN094AAXX  03184 06679 33/// /0000 11079 21093 39575 40258 57002 333 11025 55300 20000 91107 91203;
0140066790999992011010319004+47483+008900FM-12+053699999V0201601N000519999999N9999999N1-00881-00991102571ADDMA1999999095721MD1710041+9999OA149900151REMSYN088AAXX  03194 06679 33/// /1601 11088 21099 39572 40257 57004 333 55300 20000 91103 91201;
0140066790999992011010320004+47483+008900FM-12+053699999V0209999C000019999999N9999999N1-00651-00791102461ADDMA1999999095681MD1710071+9999OA149900151REMSYN088AAXX  03204 06679 33/// /0000 11065 21079 39568 40246 57007 333 55300 20000 91103 91201;
0140066790999992011010321004+47483+008900FM-12+053699999V0209999C000019999999N9999999N1-00581-00731102421ADDMA1999999095661MD1810091+9999OA149900151REMSYN088AAXX  03214 06679 33/// /0000 11058 21073 39566 40242 58009 333 55300 20000 91103 91202;
0140066790999992011010322004+47483+008900FM-12+053699999V0209999C000019999999N9999999N1-00531-00691102401ADDMA1999999095651MD1710071+9999OA149900151REMSYN088AAXX  03224 06679 33/// /0000 11053 21069 39565 40240 57007 333 55300 20000 91103 91201;
0140066790999992011010323004+47483+008900FM-12+053699999V0202001N000519999999N9999999N1-00541-00681102401ADDMA1999999095651MD1510031+9999OA149900101REMSYN088AAXX  03234 06679 33/// /2001 11054 21068 39565 40240 55003 333 55300 20000 91102 91201;
0140066790999992011010400004+47483+008900FM-12+053699999V0209999C000019999999N9999999N1-00411-00611102341ADDMA1999999095621MD1810041+9999OA149900311REMSYN088AAXX  04004 06679 33/// /0000 11041 21061 39562 40234 58004 333 55300 20000 91106 91203;
0140066790999992011010401004+47483+008900FM-12+053699999V0209999C000019999999N9999999N1-00421-00611102321ADDMA1999999095601MD1710051+9999OA149900101REMSYN088AAXX  04014 06679 33/// /0000 11042 21061 39560 40232 57005 333 55300 20000 91102 91201;
0140066790999992011010402004+47483+008900FM-12+053699999V0202401N000519999999N9999999N1-00481-00681102331ADDMA1999999095601MD1619999+9999OA149900101REMSYN088AAXX  04024 06679 33/// /2401 11048 21068 39560 40233 56/// 333 55300 20000 91102 91201;
0140066790999992011010403004+47483+008900FM-12+053699999V0202501N001019999999N9999999N1-00521-00711102321ADDMA1999999095581MD1610041+9999OA149900151REMSYN088AAXX  04034 06679 33/// /2502 11052 21071 39558 40232 56004 333 55300 20000 91103 91202;
0140066790999992011010404004+47483+008900FM-12+053699999V0209999C000019999999N9999999N1-00511-00711102291ADDMA1999999095551MD1810051+9999OA149900151REMSYN088AAXX  04044 06679 33/// /0000 11051 21071 39555 40229 58005 333 55300 20000 91103 91202;
0140066790999992011010405004+47483+008900FM-12+053699999V0201301N001019999999N9999999N1-00541-00741102261ADDMA1999999095521MD1810081+9999OA149900211REMSYN088AAXX  04054 06679 33/// /1302 11054 21074 39552 40226 58008 333 55300 20000 91104 91202;
0207066790999992011010406004+47483+008900FM-12+053699999V0200701N000519999999N9999999N1-00521-00691102221ADDAL19900091GJ101029IA2999-01109KA1999N-00881MA1999999095481MD1810101+9999OA149900211REMSYN112AAXX  04064 06679 33/// /0701 11052 21069 39548 40222 58010 333 21088 3/111 55017 55300 20000 70000 91104 91202;
0140066790999992011010407004+47483+008900FM-12+053699999V0201501N001519999999N9999999N1-00581-00781102211ADDMA1999999095461MD1610091+9999OA149900261REMSYN088AAXX  04074 06679 33/// /1503 11058 21078 39546 40221 56009 333 55300 20000 91105 91203;
0140066790999992011010408004+47483+008900FM-12+053699999V0201501N000519999999N9999999N1-00571-00771102221ADDMA1999999095471MD1519999+9999OA149900261REMSYN088AAXX  04084 06679 33/// /1501 11057 21077 39547 40222 55/// 333 55300 20018 91105 91203;
0103066790999992011010409004+47483+008900FM-12+053699999V0201101N000519999999N9999999N1-00511-00691102191ADDMA1999999095461REMSYN076AAXX  04094 06679 33/// /1101 11051 21069 39546 40219 5//// 333 553// 20068;
0140066790999992011010410004+47483+008900FM-12+053699999V0201401N001019999999N9999999N1-00451-00671102191ADDMA1999999095471MD1210011+9999OA149900211REMSYN088AAXX  04104 06679 33/// /1402 11045 21067 39547 40219 52001 333 55300 20270 91104 91202;
0140066790999992011010411004+47483+008900FM-12+053699999V0200401N001019999999N9999999N1-00421-00631102141ADDMA1999999095431MD1810041+9999OA149900211REMSYN088AAXX  04114 06679 33/// /0402 11042 21063 39543 40214 58004 333 55300 20349 91104 91202;
0140066790999992011010412004+47483+008900FM-12+053699999V0201201N001019999999N9999999N1-00341-00621102021ADDMA1999999095341MD1710121+9999OA149900261REMSYN088AAXX  04124 06679 33/// /1202 11034 21062 39534 40202 57012 333 55300 20626 91105 91203;
0140066790999992011010413004+47483+008900FM-12+053699999V0200401N001019999999N9999999N1-00321-00541101981ADDMA1999999095311MD1710161+9999OA149900261REMSYN088AAXX  04134 06679 33/// /0402 11032 21054 39531 40198 57016 333 55300 20454 91105 91203;
0103066790999992011010414004+47483+008900FM-12+053699999V0200501N001519999999N9999999N1-00321-00531101931ADDMA1999999095261REMSYN076AAXX  04144 06679 33/// /0503 11032 21053 39526 40193 5//// 333 553// 20238;
0087066790999992011010415004+47483+008900FM-12+053699999V0200501N001019999999N9999999N1-00331-00541101931ADDMA1999999095261REMSYN060AAXX  04154 06679 43/// /0502 11033 21054 39526 40193 5////;
0140066790999992011010416004+47483+008900FM-12+053699999V0200401N001019999999N9999999N1-00331-00521101901ADDMA1999999095231MD1710081+9999OA149900261REMSYN088AAXX  04164 06679 33/// /0402 11033 21052 39523 40190 57008 333 55300 20025 91105 91203;
0140066790999992011010417004+47483+008900FM-12+053699999V0200301N001019999999N9999999N1-00361-00551101921ADDMA1999999095241MD1710021+9999OA149900211REMSYN088AAXX  04174 06679 33/// /0302 11036 21055 39524 40192 57002 333 55300 20000 91104 91203;
0159066790999992011010418004+47483+008900FM-12+053699999V0200101N000519999999N9999999N1-00371-00551101931ADDKA1120M-00311MA1999999095251MD1510011+9999OA149900311REMSYN094AAXX  04184 06679 33/// /0101 11037 21055 39525 40193 55001 333 11031 55300 20000 91106 91203;
0140066790999992011010419004+47483+008900FM-12+053699999V0200401N000519999999N9999999N1-00351-00531101931ADDMA1999999095251MD1310021+9999OA149900151REMSYN088AAXX  04194 06679 33/// /0401 11035 21053 39525 40193 53002 333 55300 20000 91103 91202;
0140066790999992011010420004+47483+008900FM-12+053699999V0203401N000519999999N9999999N1-00351-00521101891ADDMA1999999095221MD1810021+9999OA149900101REMSYN088AAXX  04204 06679 33/// /3401 11035 21052 39522 40189 58002 333 55300 20000 91102 91201;
0140066790999992011010421004+47483+008900FM-12+053699999V0209999C000019999999N9999999N1-00361-00521101891ADDMA1999999095211MD1810041+9999OA149900211REMSYN088AAXX  04214 06679 33/// /0000 11036 21052 39521 40189 58004 333 55300 20000 91104 91203;
0140066790999992011010422004+47483+008900FM-12+053699999V0200501N000519999999N9999999N1-00351-00521101891ADDMA1999999095221MD1710031+9999OA149900151REMSYN088AAXX  04224 06679 33/// /0501 11035 21052 39522 40189 57003 333 55300 20000 91103 91202;
0140066790999992011010423004+47483+008900FM-12+053699999V0201601N001019999999N9999999N1-00321-00501101871ADDMA1999999095211MD1710011+9999OA149900151REMSYN088AAXX  04234 06679 33/// /1602 11032 21050 39521 40187 57001 333 55300 20000 91103 91202;
0140066790999992011010500004+47483+008900FM-12+053699999V0201601N000519999999N9999999N1-00331-00491101831ADDMA1999999095171MD1710041+9999OA149900311REMSYN088AAXX  05004 06679 33/// /1601 11033 21049 39517 40183 57004 333 55300 20000 91106 91203;
0140066790999992011010501004+47483+008900FM-12+053699999V0209999C000019999999N9999999N1-00331-00501101821ADDMA1999999095161MD1610061+9999OA149900151REMSYN088AAXX  05014 06679 33/// /0000 11033 21050 39516 40182 56006 333 55300 20000 91103 91202;
0140066790999992011010502004+47483+008900FM-12+053699999V0209999C000019999999N9999999N1-00331-00471101821ADDMA1999999095161MD1710051+9999OA149900101REMSYN088AAXX  05024 06679 33/// /0000 11033 21047 39516 40182 57005 333 55300 20000 91102 91201;
0087066790999992011010503004+47483+008900FM-12+053699999V0200501N000519999999N9999999N1-00331-00461101811ADDMA1999999095151REMSYN060AAXX  05034 06679 43/// /0501 11033 21046 39515 40181 5////;
0140066790999992011010504004+47483+008900FM-12+053699999V0209999C000019999999N9999999N1-00351-00481101791ADDMA1999999095121MD1710041+9999OA149900101REMSYN088AAXX  05044 06679 33/// /0000 11035 21048 39512 40179 57004 333 55300 20000 91102 91201;
0140066790999992011010505004+47483+008900FM-12+053699999V0209999C000019999999N9999999N1-00361-00481101781ADDMA1999999095111MD1710051+9999OA149900101REMSYN088AAXX  05054 06679 33/// /0000 11036 21048 39511 40178 57005 333 55300 20000 91102 91201;
0207066790999992011010506004+47483+008900FM-12+053699999V0203001N000519999999N9999999N1-00351-00481101811ADDAL19900091GJ100009IA2999-00409KA1999N-00371MA1999999095141MD1510011+9999OA149900151REMSYN112AAXX  05064 06679 33/// /3001 11035 21048 39514 40181 55001 333 21037 3/104 55000 55300 20000 70000 91103 91202;
0140066790999992011010507004+47483+008900FM-12+053699999V0201101N001019999999N9999999N1-00321-00481101781ADDMA1999999095121MD1510001+9999OA149900211REMSYN088AAXX  05074 06679 33/// /1102 11032 21048 39512 40178 55000 333 55300 20000 91104 91202;
0140066790999992011010508004+47483+008900FM-12+053699999V0200601N000519999999N9999999N1-00351-00501101781ADDMA1999999095111MD1019999+9999OA149900211REMSYN088AAXX  05084 06679 33/// /0601 11035 21050 39511 40178 50/// 333 55300 20050 91104 91202;
0140066790999992011010509004+47483+008900FM-12+053699999V0201801N000519999999N9999999N1-00301-00511101741ADDMA1999999095091MD1710051+9999OA149900211REMSYN088AAXX  05094 06679 33/// /1801 11030 21051 39509 40174 57005 333 55307 20425 91104 91202;
0140066790999992011010510004+47483+008900FM-12+053699999V0203301N000519999999N9999999N1-00281-00511101731ADDMA1999999095081MD1710041+9999OA149900151REMSYN088AAXX  05104 06679 33/// /3301 11028 21051 39508 40173 57004 333 553// 20817 91103 91202;
0140066790999992011010511004+47483+008900FM-12+053699999V0202101N000519999999N9999999N1-00131-00471101621ADDMA1999999095021MD1710091+9999OA149900151REMSYN088AAXX  05114 06679 33/// /2101 11013 21047 39502 40162 57009 333 553// 2//// 91103 91202;
0103066790999992011010512004+47483+008900FM-12+053699999V0209999C000019999999N9999999N1-00121-00431101531ADDMA1999999094941REMSYN076AAXX  05124 06679 33/// /0000 11012 21043 39494 40153 5//// 333 553// 2////;
0140066790999992011010513004+47483+008900FM-12+053699999V0201901N000519999999N9999999N1+00041-00361101451ADDMA1999999094901MD1710181+9999OA149900151REMSYN088AAXX  05134 06679 33/// /1901 10004 21036 39490 40145 57018 333 553// 2//// 91103 91202;
0087066790999992011010514004+47483+008900FM-12+053699999V0201901N000519999999N9999999N1+00041-00381101441ADDMA1999999094891REMSYN060AAXX  05144 06679 43/// /1901 10004 21038 39489 40144 5////;
0087066790999992011010515004+47483+008900FM-12+053699999V0209999C000019999999N9999999N1-00121-00411101461ADDMA1999999094871REMSYN060AAXX  05154 06679 43/// /0000 11012 21041 39487 40146 5////;
0140066790999992011010516004+47483+008900FM-12+053699999V0209999C000019999999N9999999N1-00251-00461101421ADDMA1999999094801MD1710101+9999OA149900151REMSYN088AAXX  05164 06679 33/// /0000 11025 21046 39480 40142 57010 333 55300 20047 91103 91202;
0140066790999992011010517004+47483+008900FM-12+053699999V0202401N001019999999N9999999N1-00311-00511101451ADDMA1999999094821MD1710071+9999OA149900211REMSYN088AAXX  05174 06679 33/// /2402 11031 21051 39482 40145 57007 333 55300 20000 91104 91202;
0159066790999992011010518004+47483+008900FM-12+053699999V0201801N000519999999N9999999N1-00311-00481101451ADDKA1120M+00041MA1999999094821MD1519999+9999OA149900211REMSYN094AAXX  05184 06679 33/// /1801 11031 21048 39482 40145 55/// 333 10004 55300 20000 91104 91202;
0140066790999992011010519004+47483+008900FM-12+053699999V0201901N000519999999N9999999N1-00221-00451101411ADDMA1999999094801MD1010001+9999OA149900151REMSYN088AAXX  05194 06679 33/// /1901 11022 21045 39480 40141 50000 333 55300 20000 91103 91201;
0140066790999992011010520004+47483+008900FM-12+053699999V0201401N000519999999N9999999N1-00361-00541101391ADDMA1999999094751MD1719999+9999OA149900261REMSYN088AAXX  05204 06679 33/// /1401 11036 21054 39475 40139 57/// 333 55300 20000 91105 91203;
0103066790999992011010521004+47483+008900FM-12+053699999V0201801N000519999999N9999999N1-00371-00561101321ADDMA1999999094681REMSYN076AAXX  05214 06679 33/// /1801 11037 21056 39468 40132 5//// 333 553// 20000;
0140066790999992011010522004+47483+008900FM-12+053699999V0201401N000519999999N9999999N1-00351-00531101301ADDMA1999999094671MD1710131+9999OA149900151REMSYN088AAXX  05224 06679 33/// /1401 11035 21053 39467 40130 57013 333 55300 20000 91103 91202;
0140066790999992011010523004+47483+008900FM-12+053699999V0200801N000519999999N9999999N1-00251-00501101231ADDMA1999999094621MD1719999+9999OA149900211REMSYN088AAXX  05234 06679 33/// /0801 11025 21050 39462 40123 57/// 333 55300 20000 91104 91202;
0087066790999992011010600004+47483+008900FM-12+053699999V0201701N001019999999N9999999N1-00281-00501101181ADDMA1999999094571REMSYN060AAXX  06004 06679 43/// /1702 11028 21050 39457 40118 5////;
0087066790999992011010601004+47483+008900FM-12+053699999V0200901N000519999999N9999999N1-00391-00541101141ADDMA1999999094511REMSYN060AAXX  06014 06679 43/// /0901 11039 21054 39451 40114 5////;
0087066790999992011010602004+47483+008900FM-12+053699999V0203401N000519999999N9999999N1-00241-00491101091ADDMA1999999094501REMSYN060AAXX  06024 06679 43/// /3401 11024 21049 39450 40109 5////;
0087066790999992011010603004+47483+008900FM-12+053699999V0201501N001019999999N9999999N1-00151-00421101061ADDMA1999999094491REMSYN060AAXX  06034 06679 43/// /1502 11015 21042 39449 40106 5////;
0087066790999992011010604004+47483+008900FM-12+053699999V0201201N000519999999N9999999N1-00081-00311101031ADDMA1999999094481REMSYN060AAXX  06044 06679 43/// /1201 11008 21031 39448 40103 5////;
0087066790999992011010605004+47483+008900FM-12+053699999V0203301N001019999999N9999999N1+00011-00271100981ADDMA1999999094451REMSYN060AAXX  06054 06679 43/// /3302 10001 21027 39445 40098 5////;
0134066790999992011010606004+47483+008900FM-12+053699999V0200501N000519999999N9999999N1+00041-00161100991ADDIA2999-00709KA1999N-00421MA1999999094471REMSYN082AAXX  06064 06679 43/// /0501 10004 21016 39447 40099 5//// 333 21042 3/107 55066;
0087066790999992011010607004+47483+008900FM-12+053699999V0203401N000519999999N9999999N1+00071-00101101021ADDMA1999999094501REMSYN060AAXX  06074 06679 43/// /3401 10007 21010 39450 40102 5////;
0103066790999992011010608004+47483+008900FM-12+053699999V0201301N001019999999N9999999N1+00131-00171100971ADDMA1999999094471REMSYN076AAXX  06084 06679 33/// /1302 10013 21017 39447 40097 5//// 333 553// 20054;
0087066790999992011010609004+47483+008900FM-12+053699999V0201801N000519999999N9999999N1+00161-00111100991ADDMA1999999094501REMSYN060AAXX  06094 06679 43/// /1801 10016 21011 39450 40099 5////;
0140066790999992011010610004+47483+008900FM-12+053699999V0202201N002619999999N9999999N1+00601+00021100921ADDMA1999999094531MD1310031+9999OA149900571REMSYN088AAXX  06104 06679 33/// /2205 10060 20002 39453 40092 53003 333 55305 20731 91111 91205;
0140066790999992011010611004+47483+008900FM-12+053699999V0202201N003119999999N9999999N1+00671+00031100851ADDMA1999999094481MD1010011+9999OA149900881REMSYN088AAXX  06114 06679 33/// /2206 10067 20003 39448 40085 50001 333 55303 20875 91117 91209;
0163066790999992011010612004+47483+008900FM-12+053699999V0202101N003619999999N9999999N1+00621+00071100841ADDAA106001091MA1999999094461MD1710041+9999OA149900881REMSYN100AAXX  06124 06679 03/// /2107 10062 20007 39446 40084 57004 60011 333 55300 20544 69915 91117 91209;
0146066790999992011010613004+47483+008900FM-12+053699999V0202201N002619999999N9999999N1+00601+00021100791ADDMA1999999094411MD1710121+9999OA149900721REMSYN094AAXX  06134 06679 23/// /2205 10060 20002 39441 40079 57012 333 55300 20360 69945 91114 91207;
0087066790999992011010614004+47483+008900FM-12+053699999V0202201N001519999999N9999999N1+00611-00111100821ADDMA1999999094441REMSYN060AAXX  06144 06679 43/// /2203 10061 21011 39444 40082 5////;
0087066790999992011010615004+47483+008900FM-12+053699999V0202001N001519999999N9999999N1+00551+00011100831ADDMA1999999094441REMSYN060AAXX  06154 06679 43/// /2003 10055 20001 39444 40083 5////;
0146066790999992011010616004+47483+008900FM-12+053699999V0202401N001519999999N9999999N1+00421+00101100861ADDMA1999999094441MD1010031+9999OA149900461REMSYN094AAXX  06164 06679 23/// /2403 10042 20010 39444 40086 50003 333 55300 20014 69935 91109 91205;
0146066790999992011010617004+47483+008900FM-12+053699999V0209999C000019999999N9999999N1+00381+00131100971ADDMA1999999094531MD1210091+9999OA149900461REMSYN094AAXX  06174 06679 23/// /0000 10038 20013 39453 40097 52009 333 55300 20000 69915 91109 91205;
0182066790999992011010618004+47483+008900FM-12+053699999V0201901N004119999999N9999999N1+00521+00191100931ADDAA112005191KA1120M+00691MA1999999094521MD1210081+9999OA149900881REMSYN106AAXX  06184 06679 03/// /1908 10052 20019 39452 40093 52008 60052 333 10069 55300 20000 60035 91117 91209;
0146066790999992011010619004+47483+008900FM-12+053699999V0201901N004119999999N9999999N1+00521+00261100951ADDMA1999999094541MD1010101+9999OA149900881REMSYN094AAXX  06194 06679 23/// /1908 10052 20026 39454 40095 50010 333 55300 20000 69955 91117 91209;
0146066790999992011010620004+47483+008900FM-12+053699999V0202101N000519999999N9999999N1+00341+00271101091ADDMA1999999094631MD1219999+9999OA149900621REMSYN094AAXX  06204 06679 23/// /2101 10034 20027 39463 40109 52/// 333 55300 20000 60025 91112 91208;
0146066790999992011010621004+47483+008900FM-12+053699999V0202101N002119999999N9999999N1+00561+00341101021ADDMA1999999094621MD1219999+9999OA149900881REMSYN094AAXX  06214 06679 23/// /2104 10056 20034 39462 40102 52/// 333 55300 20000 69925 91117 91209;
0140066790999992011010622004+47483+008900FM-12+053699999V0209999C000019999999N9999999N1+00331+00261101131ADDMA1999999094671MD1210131+9999OA149900571REMSYN088AAXX  06224 06679 33/// /0000 10033 20026 39467 40113 52013 333 55300 20000 91111 91206;
0109066790999992011010623004+47483+008900FM-12+053699999V0202101N001519999999N9999999N1+00561+00351101151ADDMA1999999094741REMSYN082AAXX  06234 06679 23/// /2103 10056 20035 39474 40115 5//// 333 553// 20000 69925;
0087066790999992011010700004+47483+008900FM-12+053699999V0202501N001019999999N9999999N1+00481+00291101191ADDMA1999999094761REMSYN060AAXX  07004 06679 43/// /2502 10048 20029 39476 40119 5////;
0087066790999992011010701004+47483+008900FM-12+053699999V0202901N001019999999N9999999N1+00471+00271101201ADDMA1999999094771REMSYN060AAXX  07014 06679 43/// /2902 10047 20027 39477 40120 5////;
0087066790999992011010702004+47483+008900FM-12+053699999V0202501N001519999999N9999999N1+00631+00361101231ADDMA1999999094831REMSYN060AAXX  07024 06679 43/// /2503 10063 20036 39483 40123 5////;
0087066790999992011010703004+47483+008900FM-12+053699999V0202101N002119999999N9999999N1+00721+00351101231ADDMA1999999094851REMSYN060AAXX  07034 06679 43/// /2104 10072 20035 39485 40123 5////;
0146066790999992011010704004+47483+008900FM-12+053699999V0202301N002119999999N9999999N1+00721+00441101271ADDMA1999999094891MD1210121+9999OA149900511REMSYN094AAXX  07044 06679 23/// /2304 10072 20044 39489 40127 52012 333 55300 20000 69925 91110 91204;
0146066790999992011010705004+47483+008900FM-12+053699999V0201901N004119999999N9999999N1+00751+00561101281ADDMA1999999094901MD1210071+9999OA149900931REMSYN094AAXX  07054 06679 23/// /1908 10075 20056 39490 40128 52007 333 55300 20000 60015 91118 91209;
0230066790999992011010706004+47483+008900FM-12+053699999V0202201N001019999999N9999999N1+00701+00501101331ADDAA112005191AL11801091GJ100489IA2999+00209KA1999N+00301MA1999999094941MD1210091+9999OA149900931REMSYN124AAXX  07064 06679 03/// /2202 10070 20050 39494 40133 52009 60052 333 20030 3/002 55008 55300 20000 60015 70103 91118 91210;
0146066790999992011010707004+47483+008900FM-12+053699999V0202101N000519999999N9999999N1+00511+00441101411ADDMA1999999094971MD1210081+9999OA149900821REMSYN094AAXX  07074 06679 23/// /2101 10051 20044 39497 40141 52008 333 55300 20000 69965 91116 91210;
0103066790999992011010708004+47483+008900FM-12+053699999V0202201N000519999999N9999999N1+00451+00381101421ADDMA1999999094971REMSYN076AAXX  07084 06679 33/// /2201 10045 20038 39497 40142 5//// 333 553// 20036;
0087066790999992011010709004+47483+008900FM-12+053699999V0209999C000019999999N9999999N1+00491+00431101361ADDMA1999999094921REMSYN060AAXX  07094 06679 43/// /0000 10049 20043 39492 40136 5////;
0140066790999992011010710004+47483+008900FM-12+053699999V0201801N000519999999N9999999N1+00611+00521101361ADDMA1999999094951MD1510021+9999OA149900151REMSYN088AAXX  07104 06679 33/// /1801 10061 20052 39495 40136 55002 333 55300 20320 91103 91201;
0140066790999992011010711004+47483+008900FM-12+053699999V0201401N000519999999N9999999N1+00771+00611101311ADDMA1999999094941MD1510031+9999OA149900311REMSYN088AAXX  07114 06679 33/// /1401 10077 20061 39494 40131 55003 333 55303 20734 91106 91204;
0163066790999992011010712004+47483+008900FM-12+053699999V0201501N000519999999N9999999N1+00851+00621101231ADDAA106000591MA1999999094881MD1810041+9999OA149900931REMSYN100AAXX  07124 06679 03/// /1501 10085 20062 39488 40123 58004 69961 333 55303 20792 60005 91118 91210;
0140066790999992011010713004+47483+008900FM-12+053699999V0201701N001019999999N9999999N1+00931+00711101201ADDMA1999999094871MD1710081+9999OA149900151REMSYN088AAXX  07134 06679 33/// /1702 10093 20071 39487 40120 57008 333 55302 20799 91103 91202;
0087066790999992011010714004+47483+008900FM-12+053699999V0202101N000519999999N9999999N1+00891+00701101191ADDMA1999999094851REMSYN060AAXX  07144 06679 43/// /2101 10089 20070 39485 40119 5////;
0087066790999992011010715004+47483+008900FM-12+053699999V0202301N000519999999N9999999N1+00801+00641101231ADDMA1999999094871REMSYN060AAXX  07154 06679 43/// /2301 10080 20064 39487 40123 5////;
0140066790999992011010716004+47483+008900FM-12+053699999V0201701N001019999999N9999999N1+00571+00471101351ADDMA1999999094931MD1210061+9999OA149900261REMSYN088AAXX  07164 06679 33/// /1702 10057 20047 39493 40135 52006 333 55300 20043 91105 91203;
0140066790999992011010717004+47483+008900FM-12+053699999V0201901N000519999999N9999999N1+00591+00471101381ADDMA1999999094961MD1210111+9999OA149900311REMSYN088AAXX  07174 06679 33/// /1901 10059 20047 39496 40138 52011 333 55300 20000 91106 91203;
0145066790999992011010718004+47483+008900FM-12+053699999V0201401N001019999999N9999999N1+00571+00441101391ADDAA112000591KA1120M+00981MA1999999094971REMSYN094AAXX  07184 06679 03/// /1402 10057 20044 39497 40139 5//// 69962 333 10098 553// 20000 60005;
0140066790999992011010719004+47483+008900FM-12+053699999V0201501N000519999999N9999999N1+00551+00411101401ADDMA1999999094971MD1219999+9999OA149900211REMSYN088AAXX  07194 06679 33/// /1501 10055 20041 39497 40140 52/// 333 55300 20000 91104 91203;
0087066790999992011010720004+47483+008900FM-12+053699999V0209999C000019999999N9999999N1+00471+00371101401ADDMA1999999094951REMSYN060AAXX  07204 06679 43/// /0000 10047 20037 39495 40140 5////;
0087066790999992011010721004+47483+008900FM-12+053699999V0209999C000019999999N9999999N1+00351+00271101391ADDMA1999999094921REMSYN060AAXX  07214 06679 43/// /0000 10035 20027 39492 40139 5////;
0140066790999992011010722004+47483+008900FM-12+053699999V0202801N000519999999N9999999N1+00391+00321101401ADDMA1999999094931MD1710041+9999OA149900101REMSYN088AAXX  07224 06679 33/// /2801 10039 20032 39493 40140 57004 333 55300 20000 91102 91201;
0103066790999992011010723004+47483+008900FM-12+053699999V0202301N000519999999N9999999N1+00421+00321101401ADDMA1999999094941REMSYN076AAXX  07234 06679 33/// /2301 10042 20032 39494 40140 5//// 333 553// 20000;
0103066790999992011010800004+47483+008900FM-12+053699999V0201901N000519999999N9999999N1+00351+00271101441ADDMA1999999094961REMSYN076AAXX  08004 06679 33/// /1901 10035 20027 39496 40144 5//// 333 553// 20000;
0087066790999992011010801004+47483+008900FM-12+053699999V0200401N000519999999N9999999N1+00371+00271101461ADDMA1999999094991REMSYN060AAXX  08014 06679 43/// /0401 10037 20027 39499 40146 5////;
0087066790999992011010802004+47483+008900FM-12+053699999V0200601N000519999999N9999999N1+00431+00291101431ADDMA1999999094971REMSYN060AAXX  08024 06679 43/// /0601 10043 20029 39497 40143 5////;
0087066790999992011010803004+47483+008900FM-12+053699999V0201501N000519999999N9999999N1+00431+00311101441ADDMA1999999094981REMSYN060AAXX  08034 06679 43/// /1501 10043 20031 39498 40144 5////;
0087066790999992011010804004+47483+008900FM-12+053699999V0201201N001019999999N9999999N1+00471+00301101411ADDMA1999999094961REMSYN060AAXX  08044 06679 43/// /1202 10047 20030 39496 40141 5////;
0087066790999992011010805004+47483+008900FM-12+053699999V0200101N000519999999N9999999N1+00421+00311101511ADDMA1999999095041REMSYN060AAXX  08054 06679 43/// /0101 10042 20031 39504 40151 5////;
0134066790999992011010806004+47483+008900FM-12+053699999V0201501N000519999999N9999999N1+00491+00381101551ADDIA2999+00209KA1999N+00301MA1999999095101REMSYN082AAXX  08064 06679 43/// /1501 10049 20038 39510 40155 5//// 333 20030 3/002 55016;
0087066790999992011010807004+47483+008900FM-12+053699999V0202001N003119999999N9999999N1+00861+00691101491ADDMA1999999095131REMSYN060AAXX  08074 06679 43/// /2006 10086 20069 39513 40149 5////;
0109066790999992011010808004+47483+008900FM-12+053699999V0201801N004619999999N9999999N1+00881+00671101481ADDMA1999999095121REMSYN082AAXX  08084 06679 23/// /1809 10088 20067 39512 40148 5//// 333 553// 20018 60015;
0087066790999992011010809004+47483+008900FM-12+053699999V0200501N001019999999N9999999N1+00701+00601101501ADDMA1999999095101REMSYN060AAXX  08094 06679 43/// /0502 10070 20060 39510 40150 5////;
0087066790999992011010810004+47483+008900FM-12+053699999V0200201N000519999999N9999999N1+00821+00691101461ADDMA1999999095091REMSYN060AAXX  08104 06679 43/// /0201 10082 20069 39509 40146 5////;
0087066790999992011010811004+47483+008900FM-12+053699999V0209999C000019999999N9999999N1+00841+00671101441ADDMA1999999095071REMSYN060AAXX  08114 06679 43/// /0000 10084 20067 39507 40144 5////;
0087066790999992011010812004+47483+008900FM-12+053699999V0203201N001019999999N9999999N1+00981+00751101371ADDMA1999999095041REMSYN060AAXX  08124 06679 43/// /3202 10098 20075 39504 40137 5////;
0087066790999992011010813004+47483+008900FM-12+053699999V0202301N001519999999N9999999N1+01271+00601101251ADDMA1999999094991REMSYN060AAXX  08134 06679 43/// /2303 10127 20060 39499 40125 5////;
0087066790999992011010814004+47483+008900FM-12+053699999V0202201N002619999999N9999999N1+01271+00601101241ADDMA1999999094981REMSYN060AAXX  08144 06679 43/// /2205 10127 20060 39498 40124 5////;
0087066790999992011010815004+47483+008900FM-12+053699999V0201901N004119999999N9999999N1+01181+00511101271ADDMA1999999094991REMSYN060AAXX  08154 06679 43/// /1908 10118 20051 39499 40127 5////;
0087066790999992011010816004+47483+008900FM-12+053699999V0202501N001519999999N9999999N1+00831+00501101411ADDMA1999999095041REMSYN060AAXX  08164 06679 43/// /2503 10083 20050 39504 40141 5////;
0087066790999992011010817004+47483+008900FM-12+053699999V0202701N001519999999N9999999N1+00841+00501101381ADDMA1999999095021REMSYN060AAXX  08174 06679 43/// /2703 10084 20050 39502 40138 5////;
0087066790999992011010818004+47483+008900FM-12+053699999V0202201N000519999999N9999999N1+00661+00401101401ADDMA1999999095001REMSYN060AAXX  08184 06679 43/// /2201 10066 20040 39500 40140 5////;
0087066790999992011010819004+47483+008900FM-12+053699999V0200701N000519999999N9999999N1+00631+00311101401ADDMA1999999094991REMSYN060AAXX  08194 06679 43/// /0701 10063 20031 39499 40140 5////;
0087066790999992011010820004+47483+008900FM-12+053699999V0202601N001519999999N9999999N1+00991-00031101301ADDMA1999999094981REMSYN060AAXX  08204 06679 43/// /2603 10099 21003 39498 40130 5////;
0087066790999992011010821004+47483+008900FM-12+053699999V0200401N001519999999N9999999N1+00511+00171101391ADDMA1999999094951REMSYN060AAXX  08214 06679 43/// /0403 10051 20017 39495 40139 5////;
0087066790999992011010822004+47483+008900FM-12+053699999V0201901N000519999999N9999999N1+00451+00181101381ADDMA1999999094931REMSYN060AAXX  08224 06679 43/// /1901 10045 20018 39493 40138 5////;
0087066790999992011010823004+47483+008900FM-12+053699999V0201801N000519999999N9999999N1+00291+00121101421ADDMA1999999094931REMSYN060AAXX  08234 06679 43/// /1801 10029 20012 39493 40142 5////;
0087066790999992011010900004+47483+008900FM-12+053699999V0209999C000019999999N9999999N1+00281+00151101381ADDMA1999999094891REMSYN060AAXX  09004 06679 43/// /0000 10028 20015 39489 40138 5////;
0087066790999992011010901004+47483+008900FM-12+053699999V0201901N000519999999N9999999N1+00181+00051101451ADDMA1999999094931REMSYN060AAXX  09014 06679 43/// /1901 10018 20005 39493 40145 5////;
0087066790999992011010902004+47483+008900FM-12+053699999V0201501N001019999999N9999999N1+00121-00041101481ADDMA1999999094951REMSYN060AAXX  09024 06679 43/// /1502 10012 21004 39495 40148 5////;
0087066790999992011010903004+47483+008900FM-12+053699999V0209999C000019999999N9999999N1+00161-00011101451ADDMA1999999094931REMSYN060AAXX  09034 06679 43/// /0000 10016 21001 39493 40145 5////;
0087066790999992011010904004+47483+008900FM-12+053699999V0202201N000519999999N9999999N1+00101-00051101451ADDMA1999999094911REMSYN060AAXX  09044 06679 43/// /2201 10010 21005 39491 40145 5////;
0087066790999992011010905004+47483+008900FM-12+053699999V0202401N001519999999N9999999N1+00891+00181101221ADDMA1999999094881REMSYN060AAXX  09054 06679 43/// /2403 10089 20018 39488 40122 5////;
0097066790999992011010906004+47483+008900FM-12+053699999V0202401N000519999999N9999999N1+00401+00091101341ADDMA1999999094881REMSYN070AAXX  09064 06679 43/// /2401 10040 20009 39488 40134 5//// 333 55031;
0087066790999992011010907004+47483+008900FM-12+053699999V0202401N002119999999N9999999N1+00671+00161101261ADDMA1999999094871REMSYN060AAXX  09074 06679 43/// /2404 10067 20016 39487 40126 5////;
0103066790999992011010908004+47483+008900FM-12+053699999V0202101N000519999999N9999999N1+00451+00171101401ADDMA1999999094951REMSYN076AAXX  09084 06679 33/// /2101 10045 20017 39495 40140 5//// 333 553// 20029;
0103066790999992011010909004+47483+008900FM-12+053699999V0202301N001019999999N9999999N1+00971+00181101311ADDMA1999999094981REMSYN076AAXX  09094 06679 33/// /2302 10097 20018 39498 40131 5//// 333 553// 20133;
0140066790999992011010910004+47483+008900FM-12+053699999V0202301N002119999999N9999999N1+01091+00141101341ADDMA1999999095041MD1310171+9999OA149900571REMSYN088AAXX  09104 06679 33/// /2304 10109 20014 39504 40134 53017 333 55300 20306 91111 91205;
0140066790999992011010911004+47483+008900FM-12+053699999V0202301N004119999999N9999999N1+01121+00211101331ADDMA1999999095031MD1210081+9999OA149900931REMSYN088AAXX  09114 06679 33/// /2308 10112 20021 39503 40133 52008 333 55300 20702 91118 91208;
0140066790999992011010912004+47483+008900FM-12+053699999V0202401N004119999999N9999999N1+01031+00341101341ADDMA1999999095021MD1010041+9999OA149900931REMSYN088AAXX  09124 06679 33/// /2408 10103 20034 39502 40134 50004 333 55300 20486 91118 91209;
0140066790999992011010913004+47483+008900FM-12+053699999V0202501N004119999999N9999999N1+00981+00411101351ADDMA1999999095021MD1810021+9999OA149900981REMSYN088AAXX  09134 06679 33/// /2508 10098 20041 39502 40135 58002 333 55300 20425 91119 91209;
0087066790999992011010914004+47483+008900FM-12+053699999V0202601N003119999999N9999999N1+00881+00481101441ADDMA1999999095081REMSYN060AAXX  09144 06679 43/// /2606 10088 20048 39508 40144 5////;
0087066790999992011010915004+47483+008900FM-12+053699999V0202701N002119999999N9999999N1+00831+00491101491ADDMA1999999095121REMSYN060AAXX  09154 06679 43/// /2704 10083 20049 39512 40149 5////;
0140066790999992011010916004+47483+008900FM-12+053699999V0202301N003119999999N9999999N1+00831+00481101501ADDMA1999999095131MD1210111+9999OA149900771REMSYN088AAXX  09164 06679 33/// /2306 10083 20048 39513 40150 52011 333 55300 20025 91115 91207;
0140066790999992011010917004+47483+008900FM-12+053699999V0202301N003619999999N9999999N1+00831+00481101591ADDMA1999999095211MD1210131+9999OA149900821REMSYN088AAXX  09174 06679 33/// /2307 10083 20048 39521 40159 52013 333 55300 20000 91116 91207;
0159066790999992011010918004+47483+008900FM-12+053699999V0202301N003119999999N9999999N1+00771+00501101621ADDKA1120M+01181MA1999999095231MD1210111+9999OA149900981REMSYN094AAXX  09184 06679 33/// /2306 10077 20050 39523 40162 52011 333 10118 55300 20000 91119 91209;
0146066790999992011010919004+47483+008900FM-12+053699999V0202501N001519999999N9999999N1+00721+00521101671ADDMA1999999095261MD1110131+9999OA149900931REMSYN094AAXX  09194 06679 23/// /2503 10072 20052 39526 40167 51013 333 55300 20000 69915 91118 91207;
0146066790999992011010920004+47483+008900FM-12+053699999V0202301N001519999999N9999999N1+00711+00511101731ADDMA1999999095321MD1310111+9999OA149900671REMSYN094AAXX  09204 06679 23/// /2303 10071 20051 39532 40173 53011 333 55300 20000 69955 91113 91204;
0146066790999992011010921004+47483+008900FM-12+053699999V0202201N002619999999N9999999N1+00661+00501101801ADDMA1999999095371MD1310141+9999OA149900931REMSYN094AAXX  09214 06679 23/// /2205 10066 20050 39537 40180 53014 333 55300 20000 60025 91118 91207;
0146066790999992011010922004+47483+008900FM-12+053699999V0202301N002119999999N9999999N1+00621+00471101841ADDMA1999999095401MD1110141+9999OA149900621REMSYN094AAXX  09224 06679 23/// /2304 10062 20047 39540 40184 51014 333 55300 20000 60025 91112 91206;
0146066790999992011010923004+47483+008900FM-12+053699999V0202301N002119999999N9999999N1+00601+00401101901ADDMA1999999095451MD1310131+9999OA149900671REMSYN094AAXX  09234 06679 23/// /2304 10060 20040 39545 40190 53013 333 55300 20000 69985 91113 91205;
0163066790999992011011000004+47483+008900FM-12+053699999V0202401N002119999999N9999999N1+00531+00341101961ADDAA106006191MA1999999095491MD1310121+9999OA149900981REMSYN100AAXX  10004 06679 03/// /2404 10053 20034 39549 40196 53012 60061 333 55300 20000 69995 91119 91208;
0146066790999992011011001004+47483+008900FM-12+053699999V0202201N001519999999N9999999N1+00461+00291102021ADDMA1999999095531MD1110131+9999OA149900511REMSYN094AAXX  10014 06679 23/// /2203 10046 20029 39553 40202 51013 333 55300 20000 60015 91110 91204;
0109066790999992011011002004+47483+008900FM-12+053699999V0202101N001519999999N9999999N1+00401+00251102081ADDMA1999999095571REMSYN082AAXX  10024 06679 23/// /2103 10040 20025 39557 40208 5//// 333 553// 20000 60015;
0087066790999992011011003004+47483+008900FM-12+053699999V0202201N001019999999N9999999N1+00391+00241102101ADDMA1999999095591REMSYN060AAXX  10034 06679 43/// /2202 10039 20024 39559 40210 5////;
0109066790999992011011004004+47483+008900FM-12+053699999V0202501N000519999999N9999999N1+00391+00271102121ADDMA1999999095611REMSYN082AAXX  10044 06679 23/// /2501 10039 20027 39561 40212 5//// 333 553// 20000 69945;
0146066790999992011011005004+47483+008900FM-12+053699999V0200501N000519999999N9999999N1+00281+00181102181ADDMA1999999095641MD1319999+9999OA149900411REMSYN094AAXX  10054 06679 23/// /0501 10028 20018 39564 40218 53/// 333 55300 20000 69945 91108 91204;
0159066790999992011011006004+47483+008900FM-12+053699999V0200501N000519999999N9999999N1+00261+00171102211ADDAA124009791GJ100009IA2999+00209KA1999N+00261MA1999999095661REMSYN088AAXX  10064 06679 43/// /0501 10026 20017 39566 40221 5//// 333 20026 3/002 55000 70096;
0140066790999992011011007004+47483+008900FM-12+053699999V0200601N001519999999N9999999N1+00251+00151102251ADDMA1999999095701MD1310091+9999OA149900311REMSYN088AAXX  10074 06679 33/// /0603 10025 20015 39570 40225 53009 333 55300 20000 91106 91203;
0087066790999992011011008004+47483+008900FM-12+053699999V0200601N001019999999N9999999N1+00241+00171102281ADDMA1999999095721REMSYN060AAXX  10084 06679 43/// /0602 10024 20017 39572 40228 5////;
0087066790999992011011009004+47483+008900FM-12+053699999V0200401N001519999999N9999999N1+00231+00131102311ADDMA1999999095751REMSYN060AAXX  10094 06679 43/// /0403 10023 20013 39575 40231 5////;
0140066790999992011011010004+47483+008900FM-12+053699999V0200601N001519999999N9999999N1+00251+00101102311ADDMA1999999095751MD1210051+9999OA149900361REMSYN088AAXX  10104 06679 33/// /0603 10025 20010 39575 40231 52005 333 55300 20158 91107 91203;
0140066790999992011011011004+47483+008900FM-12+053699999V0201001N000519999999N9999999N1+00281+00131102261ADDMA1999999095711MD1019999+9999OA149900361REMSYN088AAXX  10114 06679 33/// /1001 10028 20013 39571 40226 50/// 333 55300 20234 91107 91203;
0145066790999992011011012004+47483+008900FM-12+053699999V0200801N001019999999N9999999N1+00301+00131102191ADDAA106000091MA1999999095651REMSYN088AAXX  10124 06679 03/// /0802 10030 20013 39565 40219 5//// 69911 333 553// 20292 60005;EQDQ01  00002PRCP06
0087066790999992011011013004+47483+008900FM-12+053699999V0200401N002119999999N9999999N1+00291+00141102131ADDMA1999999095591REMSYN060AAXX  10134 06679 43/// /0404 10029 20014 39559 40213 5////;
0087066790999992011011014004+47483+008900FM-12+053699999V0200801N001019999999N9999999N1+00271+00091102101ADDMA1999999095561REMSYN060AAXX  10144 06679 43/// /0802 10027 20009 39556 40210 5////;
0087066790999992011011015004+47483+008900FM-12+053699999V0200601N002119999999N9999999N1+00271+00121102071ADDMA1999999095531REMSYN060AAXX  10154 06679 43/// /0604 10027 20012 39553 40207 5////;
0087066790999992011011016004+47483+008900FM-12+053699999V0200701N001019999999N9999999N1+00261+00131102041ADDMA1999999095501REMSYN060AAXX  10164 06679 43/// /0702 10026 20013 39550 40204 5////;
0087066790999992011011017004+47483+008900FM-12+053699999V0201201N000519999999N9999999N1+00241+00091102021ADDMA1999999095481REMSYN060AAXX  10174 06679 43/// /1201 10024 20009 39548 40202 5////;
0110066790999992011011018004+47483+008900FM-12+053699999V0200801N001519999999N9999999N1+00231+00081101991ADDKA1999M+00301MA1999999095451REMSYN070AAXX  10184 06679 43/// /0803 10023 20008 39545 40199 5//// 333 10030;
0087066790999992011011019004+47483+008900FM-12+053699999V0201101N001019999999N9999999N1+00221+00091101971ADDMA1999999095431REMSYN060AAXX  10194 06679 43/// /1102 10022 20009 39543 40197 5////;
0087066790999992011011020004+47483+008900FM-12+053699999V0201701N000519999999N9999999N1+00221+00121101931ADDMA1999999095391REMSYN060AAXX  10204 06679 43/// /1701 10022 20012 39539 40193 5////;
0087066790999992011011021004+47483+008900FM-12+053699999V0200401N000519999999N9999999N1+00211+00111101911ADDMA1999999095371REMSYN060AAXX  10214 06679 43/// /0401 10021 20011 39537 40191 5////;
0087066790999992011011022004+47483+008900FM-12+053699999V0200401N000519999999N9999999N1+00201+00131101891ADDMA1999999095351REMSYN060AAXX  10224 06679 43/// /0401 10020 20013 39535 40189 5////;
0087066790999992011011023004+47483+008900FM-12+053699999V0209999C000019999999N9999999N1+00201+00141101861ADDMA1999999095321REMSYN060AAXX  10234 06679 43/// /0000 10020 20014 39532 40186 5////;
0087066790999992011011100004+47483+008900FM-12+053699999V0200101N000519999999N9999999N1+00211+00141101791ADDMA1999999095261REMSYN060AAXX  11004 06679 43/// /0101 10021 20014 39526 40179 5////;
0087066790999992011011101004+47483+008900FM-12+053699999V0209999C000019999999N9999999N1+00211+00141101751ADDMA1999999095221REMSYN060AAXX  11014 06679 43/// /0000 10021 20014 39522 40175 5////;
0087066790999992011011102004+47483+008900FM-12+053699999V0209999C000019999999N9999999N1+00241+00141101711ADDMA1999999095191REMSYN060AAXX  11024 06679 43/// /0000 10024 20014 39519 40171 5////;
0087066790999992011011103004+47483+008900FM-12+053699999V0201301N000519999999N9999999N1+00251+00141101641ADDMA1999999095131REMSYN060AAXX  11034 06679 43/// /1301 10025 20014 39513 40164 5////;
0087066790999992011011104004+47483+008900FM-12+053699999V0202201N000519999999N9999999N1+00281+00121101591ADDMA1999999095091REMSYN060AAXX  11044 06679 43/// /2201 10028 20012 39509 40159 5////;
0087066790999992011011105004+47483+008900FM-12+053699999V0202001N001019999999N9999999N1+00311+00121101531ADDMA1999999095041REMSYN060AAXX  11054 06679 43/// /2002 10031 20012 39504 40153 5////;
0097066790999992011011106004+47483+008900FM-12+053699999V0201801N001519999999N9999999N1+00331+00101101471ADDMA1999999094991REMSYN070AAXX  11064 06679 43/// /1803 10033 20010 39499 40147 5//// 333 55000;
0140066790999992011011107004+47483+008900FM-12+053699999V0201601N000519999999N9999999N1+00291+00111101441ADDMA1999999094951MD1619999+9999OA149900261REMSYN088AAXX  11074 06679 33/// /1601 10029 20011 39495 40144 56/// 333 55300 20000 91105 91203;
0103066790999992011011108004+47483+008900FM-12+053699999V0201501N001019999999N9999999N1+00301+00091101421ADDMA1999999094931REMSYN076AAXX  11084 06679 33/// /1502 10030 20009 39493 40142 5//// 333 553// 20054;
0087066790999992011011109004+47483+008900FM-12+053699999V0201401N001019999999N9999999N1+00341+00101101341ADDMA1999999094871REMSYN060AAXX  11094 06679 43/// /1402 10034 20010 39487 40134 5////;
0140066790999992011011110004+47483+008900FM-12+053699999V0202301N000519999999N9999999N1+00421+00081101291ADDMA1999999094841MD1710111+9999OA149900361REMSYN088AAXX  11104 06679 33/// /2301 10042 20008 39484 40129 57011 333 55303 20587 91107 91203;
0140066790999992011011111004+47483+008900FM-12+053699999V0202301N001519999999N9999999N1+00491+00141101171ADDMA1999999094741MD1810191+9999OA149900411REMSYN088AAXX  11114 06679 33/// /2303 10049 20014 39474 40117 58019 333 55308 2//// 91108 91204;
0103066790999992011011112004+47483+008900FM-12+053699999V0202301N001519999999N9999999N1+00411+00111101131ADDMA1999999094691REMSYN076AAXX  11124 06679 33/// /2303 10041 20011 39469 40113 5//// 333 553// 20590;
0140066790999992011011113004+47483+008900FM-12+053699999V0202101N002119999999N9999999N1+00381+00091101101ADDMA1999999094651MD1610191+9999OA149900411REMSYN088AAXX  11134 06679 33/// /2104 10038 20009 39465 40110 56019 333 55300 20511 91108 91205;
0087066790999992011011114004+47483+008900FM-12+053699999V0202201N002119999999N9999999N1+00451+00061101091ADDMA1999999094661REMSYN060AAXX  11144 06679 43/// /2204 10045 20006 39466 40109 5////;
0087066790999992011011115004+47483+008900FM-12+053699999V0202501N001519999999N9999999N1+00451+00091101171ADDMA1999999094731REMSYN060AAXX  11154 06679 43/// /2503 10045 20009 39473 40117 5////;
0146066790999992011011116004+47483+008900FM-12+053699999V0202301N002119999999N9999999N1+00351+00161101271ADDMA1999999094801MD1310151+9999OA149900671REMSYN094AAXX  11164 06679 23/// /2304 10035 20016 39480 40127 53015 333 55300 20007 69955 91113 91205;
0146066790999992011011117004+47483+008900FM-12+053699999V0202301N002119999999N9999999N1+00311+00161101361ADDMA1999999094881MD1319999+9999OA149900671REMSYN094AAXX  11174 06679 23/// /2304 10031 20016 39488 40136 53/// 333 55300 20000 60015 91113 91205;
0182066790999992011011118004+47483+008900FM-12+053699999V0202201N003619999999N9999999N1+00301+00141101441ADDAA112003091KA1120M+00511MA1999999094951MD1110221+9999OA149900821REMSYN106AAXX  11184 06679 03/// /2207 10030 20014 39495 40144 51022 60032 333 10051 55300 20000 60015 91116 91208;
0146066790999992011011119004+47483+008900FM-12+053699999V0202201N003619999999N9999999N1+00331+00171101521ADDMA1999999095031MD1310231+9999OA149900881REMSYN094AAXX  11194 06679 23/// /2207 10033 20017 39503 40152 53023 333 55300 20000 69925 91117 91210;
0140066790999992011011120004+47483+008900FM-12+053699999V0202201N004119999999N9999999N1+00361+00181101601ADDMA1999999095111MD1310231+9999OA149900881REMSYN088AAXX  11204 06679 33/// /2208 10036 20018 39511 40160 53023 333 55300 20000 91117 91210;
0146066790999992011011121004+47483+008900FM-12+053699999V0202101N005119999999N9999999N1+00391+00201101651ADDMA1999999095171MD1110221+9999OA149900981REMSYN094AAXX  11214 06679 23/// /2110 10039 20020 39517 40165 51022 333 55300 20000 69915 91119 91210;
0140066790999992011011122004+47483+008900FM-12+053699999V0202301N003119999999N9999999N1+00411+00231101781ADDMA1999999095291MD1310261+9999OA149900981REMSYN088AAXX  11224 06679 33/// /2306 10041 20023 39529 40178 53026 333 55300 20000 91119 91210;
0146066790999992011011123004+47483+008900FM-12+053699999V0202201N003619999999N9999999N1+00421+00251101821ADDMA1999999095331MD1210221+9999OA149900881REMSYN094AAXX  11234 06679 23/// /2207 10042 20025 39533 40182 52022 333 55300 20000 69935 91117 91208;
0163066790999992011011200004+47483+008900FM-12+053699999V0202301N002619999999N9999999N1+00441+00241101831ADDAA106000591MA1999999095351MD1210181+9999OA149900981REMSYN100AAXX  12004 06679 03/// /2305 10044 20024 39535 40183 52018 69961 333 55300 20000 60005 91119 91210;
0140066790999992011011201004+47483+008900FM-12+053699999V0202201N002119999999N9999999N1+00471+00241101861ADDMA1999999095381MD1210091+9999OA149900931REMSYN088AAXX  12014 06679 33/// /2204 10047 20024 39538 40186 52009 333 55300 20000 91118 91209;
0109066790999992011011202004+47483+008900FM-12+053699999V0202201N004119999999N9999999N1+00451+00281101971ADDMA1999999095481REMSYN082AAXX  12024 06679 23/// /2208 10045 20028 39548 40197 5//// 333 553// 20000 69925;
0087066790999992011011203004+47483+008900FM-12+053699999V0202301N003619999999N9999999N1+00471+00271102041ADDMA1999999095551REMSYN060AAXX  12034 06679 43/// /2307 10047 20027 39555 40204 5////;
0087066790999992011011204004+47483+008900FM-12+053699999V0202301N002119999999N9999999N1+00481+00301102071ADDMA1999999095581REMSYN060AAXX  12044 06679 43/// /2304 10048 20030 39558 40207 5////;
0103066790999992011011205004+47483+008900FM-12+053699999V0202601N003619999999N9999999N1+00491+00321102151ADDMA1999999095661REMSYN076AAXX  12054 06679 33/// /2607 10049 20032 39566 40215 5//// 333 553// 20000;
0159066790999992011011206004+47483+008900FM-12+053699999V0202601N003119999999N9999999N1+00431+00221102271ADDAA124004691GJ100789IA2999+00209KA1999N+00291MA1999999095761REMSYN088AAXX  12064 06679 43/// /2606 10043 20022 39576 40227 5//// 333 20029 3/002 55013 70045;
0140066790999992011011207004+47483+008900FM-12+053699999V0202501N003119999999N9999999N1+00441+00191102311ADDMA1999999095801MD1110221+9999OA149900931REMSYN088AAXX  12074 06679 33/// /2506 10044 20019 39580 40231 51022 333 55300 20000 91118 91207;
0087066790999992011011208004+47483+008900FM-12+053699999V0202601N002619999999N9999999N1+00441+00191102321ADDMA1999999095811REMSYN060AAXX  12084 06679 43/// /2605 10044 20019 39581 40232 5////;
0087066790999992011011209004+47483+008900FM-12+053699999V0202601N002619999999N9999999N1+00441+00181102381ADDMA1999999095861REMSYN060AAXX  12094 06679 43/// /2605 10044 20018 39586 40238 5////;
0140066790999992011011210004+47483+008900FM-12+053699999V0202401N002619999999N9999999N1+00471+00181102391ADDMA1999999095881MD1219999+9999OA149900671REMSYN088AAXX  12104 06679 33/// /2405 10047 20018 39588 40239 52/// 333 55300 20238 91113 91206;
0140066790999992011011211004+47483+008900FM-12+053699999V0202301N001019999999N9999999N1+00501+00221102341ADDMA1999999095841MD1010031+9999OA149900671REMSYN088AAXX  12114 06679 33/// /2302 10050 20022 39584 40234 50003 333 55300 20346 91113 91206;
0087066790999992011011212004+47483+008900FM-12+053699999V0202501N002119999999N9999999N1+00571+00271102301ADDMA1999999095821REMSYN060AAXX  12124 06679 43/// /2504 10057 20027 39582 40230 5////;
0087066790999992011011213004+47483+008900FM-12+053699999V0202101N003119999999N9999999N1+00581+00271102211ADDMA1999999095741REMSYN060AAXX  12134 06679 43/// /2106 10058 20027 39574 40221 5////;
0087066790999992011011214004+47483+008900FM-12+053699999V0202201N002119999999N9999999N1+00571+00271102251ADDMA1999999095771REMSYN060AAXX  12144 06679 43/// /2204 10057 20027 39577 40225 5////;
0087066790999992011011215004+47483+008900FM-12+053699999V0202501N002119999999N9999999N1+00511+00271102301ADDMA1999999095801REMSYN060AAXX  12154 06679 43/// /2504 10051 20027 39580 40230 5////;
0146066790999992011011216004+47483+008900FM-12+053699999V0202301N002619999999N9999999N1+00491+00271102281ADDMA1999999095781MD1010041+9999OA149900671REMSYN094AAXX  12164 06679 23/// /2305 10049 20027 39578 40228 50004 333 55300 20007 60015 91113 91205;
0146066790999992011011217004+47483+008900FM-12+053699999V0202301N002619999999N9999999N1+00501+00291102211ADDMA1999999095721MD1810051+9999OA149900721REMSYN094AAXX  12174 06679 23/// /2305 10050 20029 39572 40221 58005 333 55300 20000 69915 91114 91205;
0182066790999992011011218004+47483+008900FM-12+053699999V0202301N003119999999N9999999N1+00531+00281102221ADDAA112002091KA1120M+00591MA1999999095731MD1710071+9999OA149901031REMSYN106AAXX  12184 06679 03/// /2306 10053 20028 39573 40222 57007 60022 333 10059 55300 20000 69935 91120 91209;
0140066790999992011011219004+47483+008900FM-12+053699999V0202201N003619999999N9999999N1+00531+00281102181ADDMA1999999095701MD1710081+9999OA149901031REMSYN088AAXX  12194 06679 33/// /2207 10053 20028 39570 40218 57008 333 55300 20000 91120 91209;
0140066790999992011011220004+47483+008900FM-12+053699999V0202301N003619999999N9999999N1+00571+00291102151ADDMA1999999095681MD1710041+9999OA149901081REMSYN088AAXX  12204 06679 33/// /2307 10057 20029 39568 40215 57004 333 55300 20000 91121 91209;
0140066790999992011011221004+47483+008900FM-12+053699999V0202201N005719999999N9999999N1+00571+00341102141ADDMA1999999095671MD1710061+9999OA149901291REMSYN088AAXX  12214 06679 33/// /2211 10057 20034 39567 40214 57006 333 55300 20000 91125 91212;
0146066790999992011011222004+47483+008900FM-12+053699999V0202201N005719999999N9999999N1+00581+00391102131ADDMA1999999095661MD1510041+9999OA149901291REMSYN094AAXX  12224 06679 23/// /2211 10058 20039 39566 40213 55004 333 55300 20000 69935 91125 91212;
0146066790999992011011223004+47483+008900FM-12+053699999V0202201N005719999999N9999999N1+00601+00451102131ADDMA1999999095671MD1010011+9999OA149901391REMSYN094AAXX  12234 06679 23/// /2211 10060 20045 39567 40213 50001 333 55300 20000 69945 91127 91213;
0163066790999992011011300004+47483+008900FM-12+053699999V0202201N006219999999N9999999N1+00651+00491102101ADDAA106002091MA1999999095651MD1710021+9999OA149901391REMSYN100AAXX  13004 06679 03/// /2212 10065 20049 39565 40210 57002 60021 333 55300 20000 60025 91127 91213;
0146066790999992011011301004+47483+008900FM-12+053699999V0202201N008219999999N9999999N1+00721+00531101981ADDMA1999999095551MD1810111+9999OA149901491REMSYN094AAXX  13014 06679 23/// /2216 10072 20053 39555 40198 58011 333 55300 20000 69985 91129 91216;
0146066790999992011011302004+47483+008900FM-12+053699999V0202201N005719999999N9999999N1+00751+00571102011ADDMA1999999095591MD1719999+9999OA149901491REMSYN094AAXX  13024 06679 23/// /2211 10075 20057 39559 40201 57/// 333 55300 20000 69925 91129 91216;
0087066790999992011011303004+47483+008900FM-12+053699999V0202201N004119999999N9999999N1+00771+00611102011ADDMA1999999095591REMSYN060AAXX  13034 06679 43/// /2208 10077 20061 39559 40201 5////;
0146066790999992011011304004+47483+008900FM-12+053699999V0202201N005119999999N9999999N1+00831+00641101971ADDMA1999999095571MD1019999+9999OA149901241REMSYN094AAXX  13044 06679 23/// /2210 10083 20064 39557 40197 50/// 333 55300 20000 69925 91124 91214;
0109066790999992011011305004+47483+008900FM-12+053699999V0202201N005119999999N9999999N1+00811+00671102001ADDMA1999999095591REMSYN082AAXX  13054 06679 23/// /2210 10081 20067 39559 40200 5//// 333 553// 20000 69965;
0230066790999992011011306004+47483+008900FM-12+053699999V0202201N005119999999N9999999N1+00841+00671102001ADDAA112005191AL13600791GJ100009IA2999+00409KA1999N+00521MA1999999095601MD1310011+9999OA149901491REMSYN124AAXX  13064 06679 03/// /2210 10084 20067 39560 40200 53001 60052 333 20052 3/004 55000 55300 20000 69955 70076 91129 91216;
0087066790999992011011307004+47483+008900FM-12+053699999V0202201N005119999999N9999999N1+00861+00661101971ADDMA1999999095581REMSYN060AAXX  13074 06679 43/// /2210 10086 20066 39558 40197 5////;
0087066790999992011011308004+47483+008900FM-12+053699999V0202201N006219999999N9999999N1+00891+00681102001ADDMA1999999095611REMSYN060AAXX  13084 06679 43/// /2212 10089 20068 39561 40200 5////;
0087066790999992011011309004+47483+008900FM-12+053699999V0202201N005119999999N9999999N1+00921+00731102011ADDMA1999999095631REMSYN060AAXX  13094 06679 43/// /2210 10092 20073 39563 40201 5////;
0087066790999992011011310004+47483+008900FM-12+053699999V0202201N004619999999N9999999N1+00941+00741102051ADDMA1999999095671REMSYN060AAXX  13104 06679 43/// /2209 10094 20074 39567 40205 5////;
0087066790999992011011311004+47483+008900FM-12+053699999V0202401N003619999999N9999999N1+00951+00741102061ADDMA1999999095681REMSYN060AAXX  13114 06679 43/// /2407 10095 20074 39568 40206 5////;
0087066790999992011011312004+47483+008900FM-12+053699999V0202301N003119999999N9999999N1+00991+00741101991ADDMA1999999095621REMSYN060AAXX  13124 06679 43/// /2306 10099 20074 39562 40199 5////;
0087066790999992011011313004+47483+008900FM-12+053699999V0202301N004119999999N9999999N1+01031+00711101951ADDMA1999999095601REMSYN060AAXX  13134 06679 43/// /2308 10103 20071 39560 40195 5////;
0087066790999992011011314004+47483+008900FM-12+053699999V0202401N004119999999N9999999N1+01101+00701101931ADDMA1999999095591REMSYN060AAXX  13144 06679 43/// /2408 10110 20070 39559 40193 5////;
0087066790999992011011315004+47483+008900FM-12+053699999V0202301N005719999999N9999999N1+01091+00651101951ADDMA1999999095611REMSYN060AAXX  13154 06679 43/// /2311 10109 20065 39561 40195 5////;
0087066790999992011011316004+47483+008900FM-12+053699999V0202301N004619999999N9999999N1+01081+00661101951ADDMA1999999095611REMSYN060AAXX  13164 06679 43/// /2309 10108 20066 39561 40195 5////;
0140066790999992011011317004+47483+008900FM-12+053699999V0202301N002619999999N9999999N1+01101+00651101991ADDMA1999999095651MD1210061+9999OA149901081REMSYN088AAXX  13174 06679 33/// /2305 10110 20065 39565 40199 52006 333 55300 20000 91121 91209;
0182066790999992011011318004+47483+008900FM-12+053699999V0202401N003119999999N9999999N1+01091+00681102031ADDAA112002091KA1120M+01111MA1999999095681MD1210071+9999OA149901391REMSYN106AAXX  13184 06679 03/// /2406 10109 20068 39568 40203 52007 60022 333 10111 55300 20000 60005 91127 91212;
0146066790999992011011319004+47483+008900FM-12+053699999V0202401N003619999999N9999999N1+01041+00741102041ADDMA1999999095681MD1210071+9999OA149900981REMSYN094AAXX  13194 06679 23/// /2407 10104 20074 39568 40204 52007 333 55300 20000 69915 91119 91208;
0140066790999992011011320004+47483+008900FM-12+053699999V0202301N002119999999N9999999N1+01041+00731102061ADDMA1999999095701MD1210051+9999OA149900981REMSYN088AAXX  13204 06679 33/// /2304 10104 20073 39570 40206 52005 333 55300 20000 91119 91208;
0140066790999992011011321004+47483+008900FM-12+053699999V0202401N004119999999N9999999N1+01041+00721102061ADDMA1999999095701MD1210021+9999OA149901081REMSYN088AAXX  13214 06679 33/// /2408 10104 20072 39570 40206 52002 333 55300 20000 91121 91209;
0146066790999992011011322004+47483+008900FM-12+053699999V0202301N001519999999N9999999N1+01001+00751102081ADDMA1999999095711MD1210031+9999OA149900881REMSYN094AAXX  13224 06679 23/// /2303 10100 20075 39571 40208 52003 333 55300 20000 69915 91117 91208;
0146066790999992011011323004+47483+008900FM-12+053699999V0202301N001519999999N9999999N1+00961+00741102101ADDMA1999999095721MD1310021+9999OA149900771REMSYN094AAXX  13234 06679 23/// /2303 10096 20074 39572 40210 53002 333 55300 20000 69935 91115 91207;
0163066790999992011011400004+47483+008900FM-12+053699999V0202301N002619999999N9999999N1+00981+00711102071ADDAA106000591MA1999999095701MD1010001+9999OA149901181REMSYN100AAXX  14004 06679 03/// /2305 10098 20071 39570 40207 50000 69961 333 55300 20000 69915 91123 91211;
0146066790999992011011401004+47483+008900FM-12+053699999V0202201N002619999999N9999999N1+00981+00701102091ADDMA1999999095721MD1210011+9999OA149900721REMSYN094AAXX  14014 06679 23/// /2205 10098 20070 39572 40209 52001 333 55300 20000 69915 91114 91206;
0103066790999992011011402004+47483+008900FM-12+053699999V0202201N002619999999N9999999N1+01001+00671102131ADDMA1999999095761REMSYN076AAXX  14024 06679 33/// /2205 10100 20067 39576 40213 5//// 333 553// 20000;
0140066790999992011011403004+47483+008900FM-12+053699999V0202401N002619999999N9999999N1+00981+00661102151ADDMA1999999095771MD1110071+9999OA149900771REMSYN088AAXX  14034 06679 33/// /2405 10098 20066 39577 40215 51007 333 55300 20000 91115 91207;
0140066790999992011011404004+47483+008900FM-12+053699999V0202601N003619999999N9999999N1+01011+00641102111ADDMA1999999095741MD1010021+9999OA149900721REMSYN088AAXX  14044 06679 33/// /2607 10101 20064 39574 40211 50002 333 55300 20000 91114 91208;
0140066790999992011011405004+47483+008900FM-12+053699999V0202401N003119999999N9999999N1+01001+00611102111ADDMA1999999095741MD1710021+9999OA149900721REMSYN088AAXX  14054 06679 33/// /2406 10100 20061 39574 40211 57002 333 55300 20000 91114 91208;
0230066790999992011011406004+47483+008900FM-12+053699999V0202201N002619999999N9999999N1+00961+00581102141ADDAA112000891AL11200391GJ100009IA2999+00809KA1999N+00961MA1999999095761MD1510011+9999OA149900981REMSYN124AAXX  14064 06679 03/// /2205 10096 20058 39576 40214 55001 69972 333 20096 3/008 55000 55300 20000 60005 70032 91119 91208;
0140066790999992011011407004+47483+008900FM-12+053699999V0202201N002619999999N9999999N1+00981+00541102191ADDMA1999999095811MD1210071+9999OA149900671REMSYN088AAXX  14074 06679 33/// /2205 10098 20054 39581 40219 52007 333 55300 20000 91113 91207;
0087066790999992011011408004+47483+008900FM-12+053699999V0202201N001519999999N9999999N1+00991+00491102171ADDMA1999999095791REMSYN060AAXX  14084 06679 43/// /2203 10099 20049 39579 40217 5////;
0087066790999992011011409004+47483+008900FM-12+053699999V0202401N001019999999N9999999N1+01011+00511102161ADDMA1999999095791REMSYN060AAXX  14094 06679 43/// /2402 10101 20051 39579 40216 5////;
0087066790999992011011410004+47483+008900FM-12+053699999V0202701N003119999999N9999999N1+01041+00471102141ADDMA1999999095781REMSYN060AAXX  14104 06679 43/// /2706 10104 20047 39578 40214 5////;
0140066790999992011011411004+47483+008900FM-12+053699999V0202401N002119999999N9999999N1+01051+00441102131ADDMA1999999095771MD1710021+9999OA149900721REMSYN088AAXX  14114 06679 33/// /2404 10105 20044 39577 40213 57002 333 55300 20457 91114 91208;
0140066790999992011011412004+47483+008900FM-12+053699999V0202601N003619999999N9999999N1+01051+00441102071ADDMA1999999095711MD1710081+9999OA149900721REMSYN088AAXX  14124 06679 33/// /2607 10105 20044 39571 40207 57008 333 55300 20558 91114 91208;
0140066790999992011011413004+47483+008900FM-12+053699999V0203201N002619999999N9999999N1+00991+00611102051ADDMA1999999095681MD1810101+9999OA149900671REMSYN088AAXX  14134 06679 33/// /3205 10099 20061 39568 40205 58010 333 55300 20320 91113 91207;
0103066790999992011011414004+47483+008900FM-12+053699999V0202801N002119999999N9999999N1+00981+00571102051ADDMA1999999095681REMSYN076AAXX  14144 06679 33/// /2804 10098 20057 39568 40205 5//// 333 553// 20407;
0140066790999992011011415004+47483+008900FM-12+053699999V0202601N001519999999N9999999N1+00961+00511102061ADDMA1999999095681MD1710031+9999OA149900721REMSYN088AAXX  14154 06679 33/// /2603 10096 20051 39568 40206 57003 333 55300 20162 91114 91208;
0140066790999992011011416004+47483+008900FM-12+053699999V0202001N000519999999N9999999N1+00841+00541102051ADDMA1999999095651MD1810031+9999OA149900311REMSYN088AAXX  14164 06679 33/// /2001 10084 20054 39565 40205 58003 333 55300 20076 91106 91203;
0140066790999992011011417004+47483+008900FM-12+053699999V0201801N000519999999N9999999N1+00631+00461102071ADDMA1999999095621MD1710061+9999OA149900211REMSYN088AAXX  14174 06679 33/// /1801 10063 20046 39562 40207 57006 333 55300 20000 91104 91202;
0159066790999992011011418004+47483+008900FM-12+053699999V0202301N001019999999N9999999N1+00371+00281102091ADDKA1120M+01091MA1999999095581MD1710101+9999OA149900721REMSYN094AAXX  14184 06679 33/// /2302 10037 20028 39558 40209 57010 333 10109 55300 20000 91114 91208;
0140066790999992011011419004+47483+008900FM-12+053699999V0201901N001019999999N9999999N1+00381+00291102061ADDMA1999999095551MD1710101+9999OA149900211REMSYN088AAXX  14194 06679 33/// /1902 10038 20029 39555 40206 57010 333 55300 20000 91104 91202;
0140066790999992011011420004+47483+008900FM-12+053699999V0201501N000519999999N9999999N1+00351+00261102061ADDMA1999999095541MD1710081+9999OA149900211REMSYN088AAXX  14204 06679 33/// /1501 10035 20026 39554 40206 57008 333 55300 20000 91104 91202;
0140066790999992011011421004+47483+008900FM-12+053699999V0209999C000019999999N9999999N1+00381+00261102101ADDMA1999999095591MD1310011+9999OA149900211REMSYN088AAXX  14214 06679 33/// /0000 10038 20026 39559 40210 53001 333 55300 20000 91104 91202;
0140066790999992011011422004+47483+008900FM-12+053699999V0202301N002619999999N9999999N1+00801+00431102101ADDMA1999999095681MD1210131+9999OA149900671REMSYN088AAXX  14224 06679 33/// /2305 10080 20043 39568 40210 52013 333 55300 20000 91113 91205;
0140066790999992011011423004+47483+008900FM-12+053699999V0202201N004119999999N9999999N1+00841+00461102131ADDMA1999999095721MD1310181+9999OA149900721REMSYN088AAXX  14234 06679 33/// /2208 10084 20046 39572 40213 53018 333 55300 20000 91114 91208;
0140066790999992011011500004+47483+008900FM-12+053699999V0202201N003619999999N9999999N1+00851+00441102171ADDMA1999999095761MD1110171+9999OA149900931REMSYN088AAXX  15004 06679 33/// /2207 10085 20044 39576 40217 51017 333 55300 20000 91118 91210;
0140066790999992011011501004+47483+008900FM-12+053699999V0202401N002619999999N9999999N1+00821+00451102261ADDMA1999999095841MD1310161+9999OA149900931REMSYN088AAXX  15014 06679 33/// /2405 10082 20045 39584 40226 53016 333 55300 20000 91118 91210;
0146066790999992011011502004+47483+008900FM-12+053699999V0202301N003119999999N9999999N1+00721+00521102401ADDMA1999999095951MD1319999+9999OA149900821REMSYN094AAXX  15024 06679 23/// /2306 10072 20052 39595 40240 53/// 333 55300 20000 60025 91116 91208;
0109066790999992011011503004+47483+008900FM-12+053699999V0202401N002119999999N9999999N1+00721+00541102481ADDMA1999999096021REMSYN082AAXX  15034 06679 23/// /2404 10072 20054 39602 40248 5//// 333 553// 20000 69955;
0146066790999992011011504004+47483+008900FM-12+053699999V0202601N002619999999N9999999N1+00721+00521102541ADDMA1999999096081MD1110241+9999OA149901031REMSYN094AAXX  15044 06679 23/// /2605 10072 20052 39608 40254 51024 333 55300 20000 69985 91120 91208;
0140066790999992011011505004+47483+008900FM-12+053699999V0202601N003619999999N9999999N1+00701+00431102651ADDMA1999999096181MD1310231+9999OA149901031REMSYN088AAXX  15054 06679 33/// /2607 10070 20043 39618 40265 53023 333 55300 20000 91120 91209;
0230066790999992011011506004+47483+008900FM-12+053699999V0202401N001019999999N9999999N1+00601+00391102821ADDAA112004191AL13000391GJ100009IA2999+00009KA1999N+00301MA1999999096311MD1310291+9999OA149901031REMSYN124AAXX  15064 06679 03/// /2402 10060 20039 39631 40282 53029 60042 333 20030 3/000 55000 55300 20000 60005 70035 91120 91210;
0140066790999992011011507004+47483+008900FM-12+053699999V0202401N001019999999N9999999N1+00601+00361102871ADDMA1999999096361MD1210281+9999OA149900771REMSYN088AAXX  15074 06679 33/// /2402 10060 20036 39636 40287 52028 333 55300 20000 91115 91207;
0140066790999992011011508004+47483+008900FM-12+053699999V0209999C000019999999N9999999N1+00461+00311102931ADDMA1999999096381MD1219999+9999OA149900411REMSYN088AAXX  15084 06679 33/// /0000 10046 20031 39638 40293 52/// 333 55300 20040 91108 91204;
0140066790999992011011509004+47483+008900FM-12+053699999V0202501N000519999999N9999999N1+00721+00451102891ADDMA1999999096411MD1210101+9999OA149901031REMSYN088AAXX  15094 06679 33/// /2501 10072 20045 39641 40289 52010 333 55308 20461 91120 91209;
0140066790999992011011510004+47483+008900FM-12+053699999V0202101N001019999999N9999999N1+00861+00451102891ADDMA1999999096441MD1210081+9999OA149900311REMSYN088AAXX  15104 06679 33/// /2102 10086 20045 39644 40289 52008 333 55307 20778 91106 91203;
0140066790999992011011511004+47483+008900FM-12+053699999V0202201N002119999999N9999999N1+00881+00371102821ADDMA1999999096381MD1010001+9999OA149900461REMSYN088AAXX  15114 06679 33/// /2204 10088 20037 39638 40282 50000 333 55305 20893 91109 91205;
0140066790999992011011512004+47483+008900FM-12+053699999V0202801N002119999999N9999999N1+00921+00341102781ADDMA1999999096351MD1710061+9999OA149901031REMSYN088AAXX  15124 06679 33/// /2804 10092 20034 39635 40278 57006 333 55306 2//// 91120 91209;
0103066790999992011011513004+47483+008900FM-12+053699999V0202501N001519999999N9999999N1+00961+00381102751ADDMA1999999096331REMSYN076AAXX  15134 06679 33/// /2503 10096 20038 39633 40275 5//// 333 553// 20673;
0087066790999992011011514004+47483+008900FM-12+053699999V0202901N001019999999N9999999N1+00921+00381102811ADDMA1999999096381REMSYN060AAXX  15144 06679 43/// /2902 10092 20038 39638 40281 5////;
0087066790999992011011515004+47483+008900FM-12+053699999V0202901N000519999999N9999999N1+00891+00391102821ADDMA1999999096381REMSYN060AAXX  15154 06679 43/// /2901 10089 20039 39638 40282 5////;
0087066790999992011011516004+47483+008900FM-12+053699999V0202501N001019999999N9999999N1+00571+00361102921ADDMA1999999096401REMSYN060AAXX  15164 06679 43/// /2502 10057 20036 39640 40292 5////;
0103066790999992011011517004+47483+008900FM-12+053699999V0202201N000519999999N9999999N1+00341+00221102981ADDMA1999999096401REMSYN076AAXX  15174 06679 33/// /2201 10034 20022 39640 40298 5//// 333 553// 20004;
0110066790999992011011518004+47483+008900FM-12+053699999V0201901N000519999999N9999999N1+00311+00201103011ADDKA1999M+00981MA1999999096421REMSYN070AAXX  15184 06679 43/// /1901 10031 20020 39642 40301 5//// 333 10098;
0087066790999992011011519004+47483+008900FM-12+053699999V0201601N001019999999N9999999N1+00381+00241102981ADDMA1999999096411REMSYN060AAXX  15194 06679 43/// /1602 10038 20024 39641 40298 5////;
0087066790999992011011520004+47483+008900FM-12+053699999V0202501N000519999999N9999999N1+00321+00201103001ADDMA1999999096421REMSYN060AAXX  15204 06679 43/// /2501 10032 20020 39642 40300 5////;
0140066790999992011011521004+47483+008900FM-12+053699999V0201501N002119999999N9999999N1+00301+00171103011ADDMA1999999096421MD1510001+9999OA149900411REMSYN088AAXX  15214 06679 33/// /1504 10030 20017 39642 40301 55000 333 55300 20000 91108 91204;
0140066790999992011011522004+47483+008900FM-12+053699999V0201401N000519999999N9999999N1+00221+00111103061ADDMA1999999096451MD1210041+9999OA149900411REMSYN088AAXX  15224 06679 33/// /1401 10022 20011 39645 40306 52004 333 55300 20000 91108 91204;
0140066790999992011011523004+47483+008900FM-12+053699999V0202001N001019999999N9999999N1+00181+00081103041ADDMA1999999096421MD1810041+9999OA149900411REMSYN088AAXX  15234 06679 33/// /2002 10018 20008 39642 40304 58000 333 55300 20000 91108 91204;
0140066790999992011011600004+47483+008900FM-12+053699999V0201401N001019999999N9999999N1+00181+00071102991ADDMA1999999096371MD1810051+9999OA149900411REMSYN088AAXX  16004 06679 33/// /1402 10018 20007 39637 40299 58005 333 55300 20000 91108 91204;
0140066790999992011011601004+47483+008900FM-12+053699999V0201601N000519999999N9999999N1+00051-00021103001ADDMA1999999096351MD1710101+9999OA149900261REMSYN088AAXX  16014 06679 33/// /1601 10005 21002 39635 40300 57010 333 55300 20000 91105 91202;
0140066790999992011011602004+47483+008900FM-12+053699999V0201801N000519999999N9999999N1+00051-00051103011ADDMA1999999096361MD1519999+9999OA149900261REMSYN088AAXX  16024 06679 33/// /1801 10005 21005 39636 40301 55/// 333 55300 20000 91105 91202;
0087066790999992011011603004+47483+008900FM-12+053699999V0201701N000519999999N9999999N1+00031-00061102991ADDMA1999999096341REMSYN060AAXX  16034 06679 43/// /1701 10003 21006 39634 40299 5////;
0140066790999992011011604004+47483+008900FM-12+053699999V0201701N000519999999N9999999N1+00031-00081102971ADDMA1999999096321MD1810031+9999OA149900151REMSYN088AAXX  16044 06679 33/// /1701 10003 21008 39632 40297 58003 333 55300 20000 91103 91201;
0140066790999992011011605004+47483+008900FM-12+053699999V0201401N000519999999N9999999N1+00001-00111102991ADDMA1999999096331MD1710031+9999OA149900151REMSYN088AAXX  16054 06679 33/// /1401 10000 21011 39633 40299 57003 333 55300 20000 91103 91202;
0207066790999992011011606004+47483+008900FM-12+053699999V0209999C000019999999N9999999N1-00101-00191103071ADDAL19900091GJ102229IA2999-00409KA1999N-00111MA1999999096381MD1210041+9999OA149900411REMSYN112AAXX  16064 06679 33/// /0000 11010 21019 39638 40307 52004 333 21011 3/104 55037 55300 20000 70000 91108 91204;
0140066790999992011011607004+47483+008900FM-12+053699999V0201501N000519999999N9999999N1-00021-00121103071ADDMA1999999096401MD1210081+9999OA149900101REMSYN088AAXX  16074 06679 33/// /1501 11002 21012 39640 40307 52008 333 55300 20000 91102 91201;
0140066790999992011011608004+47483+008900FM-12+053699999V0201601N000519999999N9999999N1-00051-00131103131ADDMA1999999096451MD1219999+9999OA149900151REMSYN088AAXX  16084 06679 33/// /1601 11005 21013 39645 40313 52/// 333 55300 20047 91103 91202;
0140066790999992011011609004+47483+008900FM-12+053699999V0209999C000019999999N9999999N1+00201+00041103061ADDMA1999999096441MD1210061+9999OA149900151REMSYN088AAXX  16094 06679 33/// /0000 10020 20004 39644 40306 52006 333 55309 20500 91103 91202;
0140066790999992011011610004+47483+008900FM-12+053699999V0209999C000019999999N9999999N1+00431+00141103021ADDMA1999999096461MD1210061+9999OA149900101REMSYN088AAXX  16104 06679 33/// /0000 10043 20014 39646 40302 52006 333 553// 20958 91102 91201;
0140066790999992011011611004+47483+008900FM-12+053699999V0203301N000519999999N9999999N1+00641+00211102941ADDMA1999999096431MD1810021+9999OA149900151REMSYN088AAXX  16114 06679 33/// /3301 10064 20021 39643 40294 58002 333 553// 2//// 91103 91201;
0140066790999992011011612004+47483+008900FM-12+053699999V0200701N001519999999N9999999N1+00661+00261102881ADDMA1999999096381MD1710061+9999OA149900261REMSYN088AAXX  16124 06679 33/// /0703 10066 20026 39638 40288 57006 333 553// 2//// 91105 91203;
0140066790999992011011613004+47483+008900FM-12+053699999V0200801N001019999999N9999999N1+00771+00331102781ADDMA1999999096311MD1810151+9999OA149900211REMSYN088AAXX  16134 06679 33/// /0802 10077 20033 39631 40278 58015 333 553// 2//// 91104 91203;
0140066790999992011011614004+47483+008900FM-12+053699999V0200701N001019999999N9999999N1+00831+00351102741ADDMA1999999096291MD1619999+9999OA149900151REMSYN088AAXX  16144 06679 33/// /0702 10083 20035 39629 40274 56/// 333 553// 20983 91103 91202;
0140066790999992011011615004+47483+008900FM-12+053699999V0201201N000519999999N9999999N1+00731+00351102741ADDMA1999999096271MD1610111+9999OA149900211REMSYN088AAXX  16154 06679 33/// /1201 10073 20035 39627 40274 56011 333 553// 20598 91104 91203;
0140066790999992011011616004+47483+008900FM-12+053699999V0202401N001519999999N9999999N1+00501+00281102801ADDMA1999999096271MD1710041+9999OA149900211REMSYN088AAXX  16164 06679 33/// /2403 10050 20028 39627 40280 57004 333 55303 20086 91104 91203;
0140066790999992011011617004+47483+008900FM-12+053699999V0202301N000519999999N9999999N1+00121+00021102921ADDMA1999999096291MD1510001+9999OA149900211REMSYN088AAXX  16174 06679 33/// /2301 10012 20002 39629 40292 55000 333 55300 20000 91104 91203;
0159066790999992011011618004+47483+008900FM-12+053699999V0202001N000519999999N9999999N1+00121+00021102931ADDKA1120M+00831MA1999999096301MD1210031+9999OA149900211REMSYN094AAXX  16184 06679 33/// /2001 10012 20002 39630 40293 52003 333 10083 55300 20000 91104 91203;
0140066790999992011011619004+47483+008900FM-12+053699999V0202101N000519999999N9999999N1+00091-00011102931ADDMA1999999096301MD1010031+9999OA149900151REMSYN088AAXX  16194 06679 33/// /2101 10009 21001 39630 40293 50003 333 55300 20000 91103 91202;
0140066790999992011011620004+47483+008900FM-12+053699999V0202501N000519999999N9999999N1-00011-00081102991ADDMA1999999096331MD1210041+9999OA149900151REMSYN088AAXX  16204 06679 33/// /2501 11001 21008 39633 40299 52004 333 55300 20000 91103 91202;
0140066790999992011011621004+47483+008900FM-12+053699999V0201401N000519999999N9999999N1+00001-00101102991ADDMA1999999096331MD1210031+9999OA149900211REMSYN088AAXX  16214 06679 33/// /1401 10000 21010 39633 40299 52003 333 55300 20000 91104 91203;
0140066790999992011011622004+47483+008900FM-12+053699999V0201801N000519999999N9999999N1-00071-00121103031ADDMA1999999096351MD1110051+9999OA149900151REMSYN088AAXX  16224 06679 33/// /1801 11007 21012 39635 40303 51005 333 55300 20000 91103 91201;
0140066790999992011011623004+47483+008900FM-12+053699999V0201501N000519999999N9999999N1-00091-00171103021ADDMA1999999096341MD1010011+9999OA149900151REMSYN088AAXX  16234 06679 33/// /1501 11009 21017 39634 40302 50001 333 55300 20000 91103 91201;
0140066790999992011011700004+47483+008900FM-12+053699999V0201801N000519999999N9999999N1-00081-00151103001ADDMA1999999096321MD1810011+9999OA149900211REMSYN088AAXX  17004 06679 33/// /1801 11008 21015 39632 40300 58001 333 55300 20000 91104 91203;
0140066790999992011011701004+47483+008900FM-12+053699999V0209999C000019999999N9999999N1-00181-00271103031ADDMA1999999096321MD1710031+9999OA149900151REMSYN088AAXX  17014 06679 33/// /0000 11018 21027 39632 40303 57003 333 55300 20000 91103 91202;
0140066790999992011011702004+47483+008900FM-12+053699999V0201901N000519999999N9999999N1-00151-00251103021ADDMA1999999096321MD1719999+9999OA149900101REMSYN088AAXX  17024 06679 33/// /1901 11015 21025 39632 40302 57/// 333 55300 20000 91102 91201;
0103066790999992011011703004+47483+008900FM-12+053699999V0209999C000019999999N9999999N1-00221-00311103031ADDMA1999999096311REMSYN076AAXX  17034 06679 33/// /0000 11022 21031 39631 40303 5//// 333 553// 20000;
0140066790999992011011704004+47483+008900FM-12+053699999V0209999C000019999999N9999999N1-00301-00371103031ADDMA1999999096291MD1710031+9999OA149900151REMSYN088AAXX  17044 06679 33/// /0000 11030 21037 39629 40303 57003 333 55300 20000 91103 91201;
0140066790999992011011705004+47483+008900FM-12+053699999V0201801N000519999999N9999999N1-00271-00361102991ADDMA1999999096261MD1710061+9999OA149900101REMSYN088AAXX  17054 06679 33/// /1801 11027 21036 39626 40299 57006 333 55300 20000 91102 91201;
0207066790999992011011706004+47483+008900FM-12+053699999V0201801N000519999999N9999999N1-00241-00311102961ADDAL19900091GJ104329IA2999-00609KA1999N-00311MA1999999096241MD1710071+9999OA149900151REMSYN112AAXX  17064 06679 33/// /1801 11024 21031 39624 40296 57007 333 21031 3/106 55072 55300 20000 70000 91103 91202;
0140066790999992011011707004+47483+008900FM-12+053699999V0209999C000019999999N9999999N1-00331-00411102981ADDMA1999999096241MD1610051+9999OA149900151REMSYN088AAXX  17074 06679 33/// /0000 11033 21041 39624 40298 56005 333 55300 20000 91103 91201;
0087066790999992011011708004+47483+008900FM-12+053699999V0209999C000019999999N9999999N1-00241-00331102931ADDMA1999999096221REMSYN060AAXX  17084 06679 43/// /0000 11024 21033 39622 40293 5////;
0087066790999992011011709004+47483+008900FM-12+053699999V0209999C000019999999N9999999N1-00051-00141102891ADDMA1999999096221REMSYN060AAXX  17094 06679 43/// /0000 11005 21014 39622 40289 5////;
0140066790999992011011710004+47483+008900FM-12+053699999V0209999C000019999999N9999999N1+00201+00051102821ADDMA1999999096221MD1510021+9999OA149900151REMSYN088AAXX  17104 06679 33/// /0000 10020 20005 39622 40282 55002 333 553// 20950 91103 91202;
0140066790999992011011711004+47483+008900FM-12+053699999V0200201N000519999999N9999999N1+00371+00131102761ADDMA1999999096201MD1710021+9999OA149900151REMSYN088AAXX  17114 06679 33/// /0201 10037 20013 39620 40276 57002 333 553// 2//// 91103 91202;
0140066790999992011011712004+47483+008900FM-12+053699999V0200701N001519999999N9999999N1+00551+00251102681ADDMA1999999096171MD1710051+9999OA149900261REMSYN088AAXX  17124 06679 33/// /0703 10055 20025 39617 40268 57005 333 553// 2//// 91105 91203;
0140066790999992011011713004+47483+008900FM-12+053699999V0202601N003119999999N9999999N1+00941+00121102581ADDMA1999999096171MD1710051+9999OA149900771REMSYN088AAXX  17134 06679 33/// /2606 10094 20012 39617 40258 57005 333 553// 2//// 91115 91206;
0087066790999992011011714004+47483+008900FM-12+053699999V0202601N001019999999N9999999N1+00891+00221102601ADDMA1999999096171REMSYN060AAXX  17144 06679 43/// /2602 10089 20022 39617 40260 5////;
0087066790999992011011715004+47483+008900FM-12+053699999V0202001N001519999999N9999999N1+00851+00141102651ADDMA1999999096211REMSYN060AAXX  17154 06679 43/// /2003 10085 20014 39621 40265 5////;
0140066790999992011011716004+47483+008900FM-12+053699999V0203001N001019999999N9999999N1+00551+00071102751ADDMA1999999096241MD1210071+9999OA149900361REMSYN088AAXX  17164 06679 33/// /3002 10055 20007 39624 40275 52007 333 55303 20086 91107 91203;
0140066790999992011011717004+47483+008900FM-12+053699999V0202001N000519999999N9999999N1+00291+00011102871ADDMA1999999096291MD1310121+9999OA149900261REMSYN088AAXX  17174 06679 33/// /2001 10029 20001 39629 40287 53012 333 55300 20000 91105 91202;
0159066790999992011011718004+47483+008900FM-12+053699999V0202501N000519999999N9999999N1+00121-00041102951ADDKA1120M+00951MA1999999096321MD1210111+9999OA149900771REMSYN094AAXX  17184 06679 33/// /2501 10012 21004 39632 40295 52011 333 10095 55300 20000 91115 91207;
0140066790999992011011719004+47483+008900FM-12+053699999V0202501N001519999999N9999999N1+00361+00121102891ADDMA1999999096321MD1210081+9999OA149900211REMSYN088AAXX  17194 06679 33/// /2503 10036 20012 39632 40289 52008 333 55300 20000 91104 91203;
0140066790999992011011720004+47483+008900FM-12+053699999V0202701N000519999999N9999999N1+00171+00011102941ADDMA1999999096321MD1010031+9999OA149900211REMSYN088AAXX  17204 06679 33/// /2701 10017 20001 39632 40294 50003 333 55300 20000 91104 91203;
0140066790999992011011721004+47483+008900FM-12+053699999V0201801N001019999999N9999999N1+00171-00011102951ADDMA1999999096331MD1510011+9999OA149900261REMSYN088AAXX  17214 06679 33/// /1802 10017 21001 39633 40295 55001 333 55300 20000 91105 91203;
0140066790999992011011722004+47483+008900FM-12+053699999V0203501N000519999999N9999999N1+00061-00081102951ADDMA1999999096311MD1710011+9999OA149900261REMSYN088AAXX  17224 06679 33/// /3501 10006 21008 39631 40295 57001 333 55300 20000 91105 91202;
0140066790999992011011723004+47483+008900FM-12+053699999V0201901N000519999999N9999999N1+00021-00101102981ADDMA1999999096331MD1510011+9999OA149900151REMSYN088AAXX  17234 06679 33/// /1901 10002 21010 39633 40298 55001 333 55300 20000 91103 91202;
0140066790999992011011800004+47483+008900FM-12+053699999V0209999C000019999999N9999999N1+00071-00061102961ADDMA1999999096321MD1010011+9999OA149900771REMSYN088AAXX  18004 06679 33/// /0000 10007 21006 39632 40296 50001 333 55300 20000 91115 91207;
0140066790999992011011801004+47483+008900FM-12+053699999V0201801N000519999999N9999999N1+00121+00001102971ADDMA1999999096341MD1219999+9999OA149900211REMSYN088AAXX  18014 06679 33/// /1801 10012 20000 39634 40297 52/// 333 55300 20000 91104 91202;
0087066790999992011011802004+47483+008900FM-12+053699999V0209999C000019999999N9999999N1+00141+00001102951ADDMA1999999096331REMSYN060AAXX  18024 06679 43/// /0000 10014 20000 39633 40295 5////;
0087066790999992011011803004+47483+008900FM-12+053699999V0200501N000519999999N9999999N1+00171+00021102911ADDMA1999999096301REMSYN060AAXX  18034 06679 43/// /0501 10017 20002 39630 40291 5////;
0103066790999992011011804004+47483+008900FM-12+053699999V0203401N000519999999N9999999N1+00011-00081102911ADDMA1999999096261REMSYN076AAXX  18044 06679 33/// /3401 10001 21008 39626 40291 5//// 333 553// 20000;
0140066790999992011011805004+47483+008900FM-12+053699999V0209999C000019999999N9999999N1-00031-00131102881ADDMA1999999096221MD1810111+9999OA149900101REMSYN088AAXX  18054 06679 33/// /0000 11003 21013 39622 40288 58011 333 55300 20000 91102 91201;
0207066790999992011011806004+47483+008900FM-12+053699999V0209999C000019999999N9999999N1-00071-00151102931ADDAL19900091GJ104329IA2999-00409KA1999N-00111MA1999999096261MD1510041+9999OA149900261REMSYN112AAXX  18064 06679 33/// /0000 11007 21015 39626 40293 55004 333 21011 3/104 55072 55300 20000 70000 91105 91203;
0140066790999992011011807004+47483+008900FM-12+053699999V0201801N001019999999N9999999N1+00051-00081102921ADDMA1999999096281MD1310021+9999OA149900211REMSYN088AAXX  18074 06679 33/// /1802 10005 21008 39628 40292 53002 333 55300 20000 91104 91202;
0087066790999992011011808004+47483+008900FM-12+053699999V0200201N000519999999N9999999N1+00111-00041102911ADDMA1999999096281REMSYN060AAXX  18084 06679 43/// /0201 10011 21004 39628 40291 5////;
0087066790999992011011809004+47483+008900FM-12+053699999V0202901N001019999999N9999999N1+00431+00171102811ADDMA1999999096261REMSYN060AAXX  18094 06679 43/// /2902 10043 20017 39626 40281 5////;
0140066790999992011011810004+47483+008900FM-12+053699999V0200101N000519999999N9999999N1+00411+00111102781ADDMA1999999096231MD1710051+9999OA149900311REMSYN088AAXX  18104 06679 33/// /0101 10041 20011 39623 40278 57005 333 55305 20709 91106 91204;
0140066790999992011011811004+47483+008900FM-12+053699999V0209999C001019999999N9999999N1+00491+00201102751ADDMA1999999096221MD1710061+9999OA149900311REMSYN088AAXX  18114 06679 33/// /0002 10049 20020 39622 40275 57006 333 55300 20565 91106 91204;
0140066790999992011011812004+47483+008900FM-12+053699999V0200301N000519999999N9999999N1+00531+00211102661ADDMA1999999096151MD1719999+9999OA149900311REMSYN088AAXX  18124 06679 33/// /0301 10053 20021 39615 40266 57/// 333 55301 20846 91106 91204;
0103066790999992011011813004+47483+008900FM-12+053699999V0200101N000519999999N9999999N1+00581+00201102621ADDMA1999999096121REMSYN076AAXX  18134 06679 33/// /0101 10058 20020 39612 40262 5//// 333 553// 20493;
0087066790999992011011814004+47483+008900FM-12+053699999V0209999C000019999999N9999999N1+00631+00271102561ADDMA1999999096081REMSYN060AAXX  18144 06679 43/// /0000 10063 20027 39608 40256 5////;
0087066790999992011011815004+47483+008900FM-12+053699999V0201701N000519999999N9999999N1+00681+00311102561ADDMA1999999096091REMSYN060AAXX  18154 06679 43/// /1701 10068 20031 39609 40256 5////;
0140066790999992011011816004+47483+008900FM-12+053699999V0202401N000519999999N9999999N1+00741+00211102591ADDMA1999999096131MD1310011+9999OA149900151REMSYN088AAXX  18164 06679 33/// /2401 10074 20021 39613 40259 53001 333 55300 20058 91103 91201;
0140066790999992011011817004+47483+008900FM-12+053699999V0203101N000519999999N9999999N1+00651+00241102661ADDMA1999999096171MD1310091+9999OA149900211REMSYN088AAXX  18174 06679 33/// /3101 10065 20024 39617 40266 53009 333 55300 20004 91104 91202;
0159066790999992011011818004+47483+008900FM-12+053699999V0202201N001519999999N9999999N1+00671+00231102671ADDKA1120M+00761MA1999999096191MD1210101+9999OA149900311REMSYN094AAXX  18184 06679 33/// /2203 10067 20023 39619 40267 52010 333 10076 55300 20000 91106 91204;
0140066790999992011011819004+47483+008900FM-12+053699999V0202501N001019999999N9999999N1+00651+00281102671ADDMA1999999096181MD1210051+9999OA149900411REMSYN088AAXX  18194 06679 33/// /2502 10065 20028 39618 40267 52005 333 55300 20000 91108 91203;
0140066790999992011011820004+47483+008900FM-12+053699999V0202601N001019999999N9999999N1+00621+00281102671ADDMA1999999096181MD1010011+9999OA149900411REMSYN088AAXX  18204 06679 33/// /2602 10062 20028 39618 40267 50001 333 55300 20000 91108 91204;
0140066790999992011011821004+47483+008900FM-12+053699999V0202501N001519999999N9999999N1+00621+00291102671ADDMA1999999096181MD1710011+9999OA149900411REMSYN088AAXX  18214 06679 33/// /2503 10062 20029 39618 40267 57001 333 55300 20000 91108 91204;
0140066790999992011011822004+47483+008900FM-12+053699999V0202601N001519999999N9999999N1+00611+00291102701ADDMA1999999096201MD1210021+9999OA149900411REMSYN088AAXX  18224 06679 33/// /2603 10061 20029 39620 40270 52002 333 55300 20000 91108 91204;
0140066790999992011011823004+47483+008900FM-12+053699999V0202401N001019999999N9999999N1+00561+00241102721ADDMA1999999096211MD1210031+9999OA149900361REMSYN088AAXX  18234 06679 33/// /2402 10056 20024 39621 40272 52003 333 55300 20000 91107 91203;
