0140066730999992011010100004+47217+008683FM-12+046399999V0201301N001019999999N9999999N1+00141-00061102421ADDMA1999999096451MD1710091+9999OA149900361REMSYN088AAXX  01004 06673 33/// /1302 10014 21006 39645 40242 57009 333 55300 20000 91107 91204;
0140066730999992011010101004+47217+008683FM-12+046399999V0201401N000519999999N9999999N1+00121-00111102371ADDMA1999999096401MD1810111+9999OA149900261REMSYN088AAXX  01014 06673 33/// /1401 10012 21011 39640 40237 58011 333 55300 20000 91105 91203;
0140066730999992011010102004+47217+008683FM-12+046399999V0200801N001019999999N9999999N1+00141-00111102361ADDMA1999999096391MD1610111+9999OA149900261REMSYN088AAXX  01024 06673 33/// /0802 10014 21011 39639 40236 56011 333 55300 20000 91105 91202;
0140066730999992011010103004+47217+008683FM-12+046399999V0201401N000519999999N9999999N1+00131-00091102341ADDMA1999999096371MD1610081+9999OA149900361REMSYN088AAXX  01034 06673 33/// /1401 10013 21009 39637 40234 56008 333 55300 20000 91107 91204;
0140066730999992011010104004+47217+008683FM-12+046399999V0203201N001519999999N9999999N1+00141-00081102291ADDMA1999999096331MD1810071+9999OA149900361REMSYN088AAXX  01044 06673 33/// /3203 10014 21008 39633 40229 58007 333 55300 20000 91107 91203;
0140066730999992011010105004+47217+008683FM-12+046399999V0201001N001519999999N9999999N1+00091-00171102351ADDMA1999999096371MD1510021+9999OA149900361REMSYN088AAXX  01054 06673 33/// /1003 10009 21017 39637 40235 55002 333 55300 20000 91107 91203;
0207066730999992011010106004+47217+008683FM-12+046399999V0201101N000519999999N9999999N1+00061-00211102371ADDAL19900091GJ100009IA2999+00109KA1999N+00061MA1999999096391MD1310021+9999OA149900361REMSYN112AAXX  01064 06673 33/// /1101 10006 21021 39639 40237 53002 333 20006 3/001 55000 55300 20000 70000 91107 91204;
0140066730999992011010107004+47217+008683FM-12+046399999V0201101N001019999999N9999999N1+00081-00151102371ADDMA1999999096391MD1210061+9999OA149900311REMSYN088AAXX  01074 06673 33/// /1102 10008 21015 39639 40237 52006 333 55300 20000 91106 91203;
0140066730999992011010108004+47217+008683FM-12+046399999V0200701N001019999999N9999999N1+00111-00171102381ADDMA1999999096411MD1219999+9999OA149900311REMSYN088AAXX  01084 06673 33/// /0702 10011 21017 39641 40238 52/// 333 55300 20022 91106 91202;
0087066730999992011010109004+47217+008683FM-12+046399999V0201101N000519999999N9999999N1+00111-00211102381ADDMA1999999096411REMSYN060AAXX  01094 06673 43/// /1101 10011 21021 39641 40238 5////;
0087066730999992011010110004+47217+008683FM-12+046399999V0200901N001019999999N9999999N1+00141-00181102381ADDMA1999999096411REMSYN060AAXX  01104 06673 43/// /0902 10014 21018 39641 40238 5////;
0140066730999992011010111004+47217+008683FM-12+046399999V0202201N002119999999N9999999N1+00191-00151102311ADDMA1999999096361MD1810051+9999OA149900411REMSYN088AAXX  01114 06673 33/// /2204 10019 21015 39636 40231 58005 333 55300 20342 91108 91204;
0087066730999992011010112004+47217+008683FM-12+046399999V0203301N000519999999N9999999N1+00201-00141102251ADDMA1999999096301REMSYN060AAXX  01124 06673 43/// /3301 10020 21014 39630 40225 5////;
0087066730999992011010113004+47217+008683FM-12+046399999V0202601N001519999999N9999999N1+00191-00161102201ADDMA1999999096251REMSYN060AAXX  01134 06673 43/// /2603 10019 21016 39625 40220 5////;
0087066730999992011010114004+47217+008683FM-12+046399999V0202501N001519999999N9999999N1+00161-00151102171ADDMA1999999096221REMSYN060AAXX  01144 06673 43/// /2503 10016 21015 39622 40217 5////;
0087066730999992011010115004+47217+008683FM-12+046399999V0202301N002119999999N9999999N1+00131-00151102181ADDMA1999999096221REMSYN060AAXX  01154 06673 43/// /2304 10013 21015 39622 40218 5////;
0087066730999992011010116004+47217+008683FM-12+046399999V0202601N001019999999N9999999N1+00131-00151102201ADDMA1999999096241REMSYN060AAXX  01164 06673 43/// /2602 10013 21015 39624 40220 5////;
0087066730999992011010117004+47217+008683FM-12+046399999V0202201N002119999999N9999999N1+00121-00171102221ADDMA1999999096261REMSYN060AAXX  01174 06673 43/// /2204 10012 21017 39626 40222 5////;
0087066730999992011010118004+47217+008683FM-12+046399999V0202101N002119999999N9999999N1+00111-00171102231ADDMA1999999096261REMSYN060AAXX  01184 06673 43/// /2104 10011 21017 39626 40223 5////;
0103066730999992011010119004+47217+008683FM-12+046399999V0202301N001019999999N9999999N1+00111-00181102201ADDMA1999999096241REMSYN076AAXX  01194 06673 33/// /2302 10011 21018 39624 40220 5//// 333 553// 20000;
0140066730999992011010120004+47217+008683FM-12+046399999V0202901N002119999999N9999999N1+00111-00121102251ADDMA1999999096281MD1310021+9999OA149900411REMSYN088AAXX  01204 06673 33/// /2904 10011 21012 39628 40225 53002 333 55300 20000 91108 91204;
0140066730999992011010121004+47217+008683FM-12+046399999V0203201N000519999999N9999999N1+00051-00111102241ADDMA1999999096261MD1010001+9999OA149900571REMSYN088AAXX  01214 06673 33/// /3201 10005 21011 39626 40224 50000 333 55300 20000 91111 91208;
0140066730999992011010122004+47217+008683FM-12+046399999V0202901N000519999999N9999999N1+00031-00121102191ADDMA1999999096211MD1810031+9999OA149900571REMSYN088AAXX  01224 06673 33/// /2901 10003 21012 39621 40219 58003 333 55300 20000 91111 91208;
0140066730999992011010123004+47217+008683FM-12+046399999V0203501N001019999999N9999999N1+00011-00111102171ADDMA1999999096191MD1710091+9999OA149900411REMSYN088AAXX  01234 06673 33/// /3502 10001 21011 39619 40217 57009 333 55300 20000 91108 91204;
0140066730999992011010200004+47217+008683FM-12+046399999V0200201N002119999999N9999999N1+00001-00101102151ADDMA1999999096171MD1610091+9999OA149900571REMSYN088AAXX  02004 06673 33/// /0204 10000 21010 39617 40215 56009 333 55300 20000 91111 91208;
0140066730999992011010201004+47217+008683FM-12+046399999V0209999C000019999999N9999999N1-00011-00121102111ADDMA1999999096131MD1710081+9999OA149900411REMSYN088AAXX  02014 06673 33/// /0000 11001 21012 39613 40211 57008 333 55300 20000 91108 91205;
0087066730999992011010202004+47217+008683FM-12+046399999V0202601N001019999999N9999999N1+00001-00131102121ADDMA1999999096141REMSYN060AAXX  02024 06673 43/// /2602 10000 21013 39614 40212 5////;
0087066730999992011010203004+47217+008683FM-12+046399999V0202301N000519999999N9999999N1+00021-00151102131ADDMA1999999096151REMSYN060AAXX  02034 06673 43/// /2301 10002 21015 39615 40213 5////;
0087066730999992011010204004+47217+008683FM-12+046399999V0209999C000019999999N9999999N1+00011-00131102151ADDMA1999999096171REMSYN060AAXX  02044 06673 43/// /0000 10001 21013 39617 40215 5////;
0087066730999992011010205004+47217+008683FM-12+046399999V0203101N001019999999N9999999N1+00011-00131102161ADDMA1999999096181REMSYN060AAXX  02054 06673 43/// /3102 10001 21013 39618 40216 5////;
0134066730999992011010206004+47217+008683FM-12+046399999V0202101N000519999999N9999999N1+00021-00151102161ADDIA2999+00009KA1999N-00011MA1999999096181REMSYN082AAXX  02064 06673 43/// /2101 10002 21015 39618 40216 5//// 333 21001 3/100 55000;
0140066730999992011010207004+47217+008683FM-12+046399999V0209999C000019999999N9999999N1+00001-00141102191ADDMA1999999096201MD1210031+9999OA149900261REMSYN088AAXX  02074 06673 33/// /0000 10000 21014 39620 40219 52003 333 55300 20000 91105 91203;
0140066730999992011010208004+47217+008683FM-12+046399999V0200401N001519999999N9999999N1+00021-00111102241ADDMA1999999096251MD1210071+9999OA149900261REMSYN088AAXX  02084 06673 33/// /0403 10002 21011 39625 40224 52007 333 55300 20004 91105 91203;
0146066730999992011010209004+47217+008683FM-12+046399999V0202901N001019999999N9999999N1-00011-00111102281ADDMA1999999096291MD1110111+9999OA149900261REMSYN094AAXX  02094 06673 23/// /2902 11001 21011 39629 40228 51011 333 55300 20040 69915 91105 91203;
0140066730999992011010210004+47217+008683FM-12+046399999V0209999C000019999999N9999999N1+00011-00121102301ADDMA1999999096311MD1110111+9999OA149900261REMSYN088AAXX  02104 06673 33/// /0000 10001 21012 39631 40230 51011 333 55300 20122 91105 91203;
0140066730999992011010211004+47217+008683FM-12+046399999V0200201N001519999999N9999999N1+00081-00071102271ADDMA1999999096301MD1210051+9999OA149900211REMSYN088AAXX  02114 06673 33/// /0203 10008 21007 39630 40227 52005 333 55300 20148 91104 91203;
0182066730999992011010212004+47217+008683FM-12+046399999V0200101N002119999999N9999999N1+00061-00161102251ADDAA106000091MA1999999096271MD1710021+9999OA149900461REMSYN100AAXX  02124 06673 03/// /0104 10006 21016 39627 40225 57002 69911 333 55300 20090 60005 91109 91204;EQDQ01  00002PRCP06
0140066730999992011010213004+47217+008683FM-12+046399999V0200301N005119999999N9999999N1+00071-00201102241ADDMA1999999096271MD1710041+9999OA149900721REMSYN088AAXX  02134 06673 33/// /0310 10007 21020 39627 40224 57004 333 55300 20083 91114 91210;
0103066730999992011010214004+47217+008683FM-12+046399999V0209999C002619999999N9999999N1+00031-00311102301ADDMA1999999096311REMSYN076AAXX  02144 06673 33/// /0005 10003 21031 39631 40230 5//// 333 553// 20058;
0140066730999992011010215004+47217+008683FM-12+046399999V0200401N003119999999N9999999N1+00031-00441102351ADDMA1999999096361MD1210091+9999OA149900721REMSYN088AAXX  02154 06673 33/// /0406 10003 21044 39636 40235 52009 333 55300 20032 91114 91210;
0140066730999992011010216004+47217+008683FM-12+046399999V0201201N001519999999N9999999N1+00001-00441102391ADDMA1999999096391MD1110121+9999OA149900621REMSYN088AAXX  02164 06673 33/// /1203 10000 21044 39639 40239 51012 333 55300 20007 91112 91207;
0140066730999992011010217004+47217+008683FM-12+046399999V0201601N000519999999N9999999N1-00041-00331102431ADDMA1999999096421MD1110111+9999OA149900571REMSYN088AAXX  02174 06673 33/// /1601 11004 21033 39642 40243 51011 333 55300 20000 91111 91207;
0201066730999992011010218004+47217+008683FM-12+046399999V0200501N002119999999N9999999N1-00041-00411102441ADDAA112000091KA1120M+00081MA1999999096431MD1110071+9999OA149900721REMSYN106AAXX  02184 06673 03/// /0504 11004 21041 39643 40244 51007 69912 333 10008 55300 20000 60005 91114 91210;EQDQ01  00002PRCP12
0140066730999992011010219004+47217+008683FM-12+046399999V0201001N001019999999N9999999N1-00051-00421102491ADDMA1999999096471MD1310081+9999OA149900411REMSYN088AAXX  02194 06673 33/// /1002 11005 21042 39647 40249 53008 333 55300 20000 91108 91205;
0140066730999992011010220004+47217+008683FM-12+046399999V0200301N002119999999N9999999N1-00081-00401102501ADDMA1999999096481MD1110061+9999OA149900511REMSYN088AAXX  02204 06673 33/// /0304 11008 21040 39648 40250 51006 333 55300 20000 91110 91207;
0140066730999992011010221004+47217+008683FM-12+046399999V0200301N003619999999N9999999N1-00151-00401102551ADDMA1999999096511MD1310081+9999OA149900571REMSYN088AAXX  02214 06673 33/// /0307 11015 21040 39651 40255 53008 333 55300 20000 91111 91207;
0140066730999992011010222004+47217+008683FM-12+046399999V0200401N002619999999N9999999N1-00141-00421102581ADDMA1999999096541MD1310071+9999OA149900571REMSYN088AAXX  02224 06673 33/// /0405 11014 21042 39654 40258 53007 333 55300 20000 91111 91208;
0140066730999992011010223004+47217+008683FM-12+046399999V0200401N000519999999N9999999N1-00191-00471102591ADDMA1999999096541MD1110061+9999OA149900571REMSYN088AAXX  02234 06673 33/// /0401 11019 21047 39654 40259 51006 333 55300 20000 91111 91208;
0140066730999992011010300004+47217+008683FM-12+046399999V0200401N000519999999N9999999N1-00261-00491102611ADDMA1999999096541MD1110031+9999OA149900721REMSYN088AAXX  03004 06673 33/// /0401 11026 21049 39654 40261 51003 333 55300 20000 91114 91210;
0140066730999992011010301004+47217+008683FM-12+046399999V0201501N001019999999N9999999N1-00251-00501102581ADDMA1999999096521MD1810021+9999OA149900311REMSYN088AAXX  03014 06673 33/// /1502 11025 21050 39652 40258 58002 333 55300 20000 91106 91202;
0140066730999992011010302004+47217+008683FM-12+046399999V0201501N001019999999N9999999N1-00291-00531102591ADDMA1999999096521MD1619999+9999OA149900261REMSYN088AAXX  03024 06673 33/// /1502 11029 21053 39652 40259 56/// 333 55300 20000 91105 91204;
0087066730999992011010303004+47217+008683FM-12+046399999V0201701N002119999999N9999999N1-00311-00551102591ADDMA1999999096511REMSYN060AAXX  03034 06673 43/// /1704 11031 21055 39651 40259 5////;
0140066730999992011010304004+47217+008683FM-12+046399999V0209999C000519999999N9999999N1-00381-00671102601ADDMA1999999096511MD1710011+9999OA149900461REMSYN088AAXX  03044 06673 33/// /0001 11038 21067 39651 40260 57001 333 55300 20000 91109 91207;
0140066730999992011010305004+47217+008683FM-12+046399999V0201501N001019999999N9999999N1-00371-00701102611ADDMA1999999096521MD1510001+9999OA149900461REMSYN088AAXX  03054 06673 33/// /1502 11037 21070 39652 40261 55000 333 55300 20000 91109 91207;
0207066730999992011010306004+47217+008683FM-12+046399999V0201701N001519999999N9999999N1-00411-00791102631ADDAL10600091GJ100009IA2999-00809KA1999N-00441MA1999999096531MD1210021+9999OA149900571REMSYN112AAXX  03064 06673 33/// /1703 11041 21079 39653 40263 52002 333 21044 3/108 55000 55300 20000 70001 91111 91208;
0140066730999992011010307004+47217+008683FM-12+046399999V0201601N003119999999N9999999N1-00491-00871102651ADDMA1999999096531MD1210021+9999OA149900511REMSYN088AAXX  03074 06673 33/// /1606 11049 21087 39653 40265 52002 333 55300 20000 91110 91207;
0140066730999992011010308004+47217+008683FM-12+046399999V0201601N002619999999N9999999N1-00491-00881102661ADDMA1999999096541MD1219999+9999OA149900511REMSYN088AAXX  03084 06673 33/// /1605 11049 21088 39654 40266 52/// 333 55302 20061 91110 91207;
0103066730999992011010309004+47217+008683FM-12+046399999V0201601N002619999999N9999999N1-00401-00801102641ADDMA1999999096541REMSYN076AAXX  03094 06673 33/// /1605 11040 21080 39654 40264 5//// 333 553// 20320;
0140066730999992011010310004+47217+008683FM-12+046399999V0201401N000519999999N9999999N1-00351-00661102631ADDMA1999999096541MD1210011+9999OA149900361REMSYN088AAXX  03104 06673 33/// /1401 11035 21066 39654 40263 52001 333 553// 20868 91107 91205;
0140066730999992011010311004+47217+008683FM-12+046399999V0209999C000019999999N9999999N1-00261-00631102581ADDMA1999999096511MD1810031+9999OA149900361REMSYN088AAXX  03114 06673 33/// /0000 11026 21063 39651 40258 58003 333 553// 2//// 91107 91205;
0140066730999992011010312004+47217+008683FM-12+046399999V0200901N001019999999N9999999N1-00201-00591102491ADDMA1999999096441MD1710101+9999OA149900511REMSYN088AAXX  03124 06673 33/// /0902 11020 21059 39644 40249 57010 333 553// 2//// 91110 91207;
0140066730999992011010313004+47217+008683FM-12+046399999V0200301N000519999999N9999999N1-00151-00661102441ADDMA1999999096411MD1710131+9999OA149900151REMSYN088AAXX  03134 06673 33/// /0301 11015 21066 39641 40244 57013 333 553// 2//// 91103 91202;
0103066730999992011010314004+47217+008683FM-12+046399999V0200401N000519999999N9999999N1-00101-00641102421ADDMA1999999096401REMSYN076AAXX  03144 06673 33/// /0401 11010 21064 39640 40242 5//// 333 553// 20878;
0103066730999992011010315004+47217+008683FM-12+046399999V0200201N001519999999N9999999N1-00171-00591102441ADDMA1999999096401REMSYN076AAXX  03154 06673 33/// /0203 11017 21059 39640 40244 5//// 333 553// 20407;
0140066730999992011010316004+47217+008683FM-12+046399999V0209999C000019999999N9999999N1-00231-00651102441ADDMA1999999096391MD1810021+9999OA149900361REMSYN088AAXX  03164 06673 33/// /0000 11023 21065 39639 40244 58002 333 55300 20047 91107 91204;
0140066730999992011010317004+47217+008683FM-12+046399999V0202401N001519999999N9999999N1-00301-00661102451ADDMA1999999096381MD1710021+9999OA149900311REMSYN088AAXX  03174 06673 33/// /2403 11030 21066 39638 40245 57002 333 55300 20000 91106 91204;
0159066730999992011010318004+47217+008683FM-12+046399999V0201701N002619999999N9999999N1-00321-00691102441ADDKA1120M-00091MA1999999096371MD1710031+9999OA149900511REMSYN094AAXX  03184 06673 33/// /1705 11032 21069 39637 40244 57003 333 11009 55300 20000 91110 91207;
0140066730999992011010319004+47217+008683FM-12+046399999V0201801N001019999999N9999999N1-00391-00701102451ADDMA1999999096361MD1710031+9999OA149900311REMSYN088AAXX  03194 06673 33/// /1802 11039 21070 39636 40245 57003 333 55300 20000 91106 91205;
0140066730999992011010320004+47217+008683FM-12+046399999V0201801N001519999999N9999999N1-00471-00751102421ADDMA1999999096321MD1710061+9999OA149900261REMSYN088AAXX  03204 06673 33/// /1803 11047 21075 39632 40242 57006 333 55300 20000 91105 91204;
0140066730999992011010321004+47217+008683FM-12+046399999V0201901N002119999999N9999999N1-00511-00791102421ADDMA1999999096311MD1710061+9999OA149900311REMSYN088AAXX  03214 06673 33/// /1904 11051 21079 39631 40242 57006 333 55300 20000 91106 91205;
0140066730999992011010322004+47217+008683FM-12+046399999V0202101N001519999999N9999999N1-00531-00801102431ADDMA1999999096311MD1710051+9999OA149900261REMSYN088AAXX  03224 06673 33/// /2103 11053 21080 39631 40243 57005 333 55300 20000 91105 91204;
0140066730999992011010323004+47217+008683FM-12+046399999V0202301N001019999999N9999999N1-00531-00811102431ADDMA1999999096311MD1510011+9999OA149900211REMSYN088AAXX  03234 06673 33/// /2302 11053 21081 39631 40243 55001 333 55300 20000 91104 91203;
0140066730999992011010400004+47217+008683FM-12+046399999V0202701N001019999999N9999999N1-00471-00741102401ADDMA1999999096301MD1710011+9999OA149900361REMSYN088AAXX  04004 06673 33/// /2702 11047 21074 39630 40240 57001 333 55300 20000 91107 91205;
0140066730999992011010401004+47217+008683FM-12+046399999V0202701N001019999999N9999999N1-00461-00711102381ADDMA1999999096281MD1610031+9999OA149900151REMSYN088AAXX  04014 06673 33/// /2702 11046 21071 39628 40238 56003 333 55300 20000 91103 91202;
0140066730999992011010402004+47217+008683FM-12+046399999V0201201N000519999999N9999999N1-00441-00651102361ADDMA1999999096271MD1619999+9999OA149900151REMSYN088AAXX  04024 06673 33/// /1201 11044 21065 39627 40236 56/// 333 55300 20000 91103 91202;
0140066730999992011010403004+47217+008683FM-12+046399999V0201101N001519999999N9999999N1-00421-00791102321ADDMA1999999096231MD1810071+9999OA149900261REMSYN088AAXX  04034 06673 33/// /1103 11042 21079 39623 40232 58007 333 55300 20000 91105 91203;
0140066730999992011010404004+47217+008683FM-12+046399999V0201501N001519999999N9999999N1-00471-00891102311ADDMA1999999096211MD1810071+9999OA149900311REMSYN088AAXX  04044 06673 33/// /1503 11047 21089 39621 40231 58007 333 55300 20000 91106 91204;
0140066730999992011010405004+47217+008683FM-12+046399999V0201701N001519999999N9999999N1-00441-00841102241ADDMA1999999096151MD1710121+9999OA149900311REMSYN088AAXX  04054 06673 33/// /1703 11044 21084 39615 40224 57012 333 55300 20000 91106 91204;
0207066730999992011010406004+47217+008683FM-12+046399999V0201401N001019999999N9999999N1-00401-00861102191ADDAL19900091GJ103849IA2999-00909KA1999N-00561MA1999999096121MD1710111+9999OA149900311REMSYN112AAXX  04064 06673 33/// /1402 11040 21086 39612 40219 57011 333 21056 3/109 55064 55300 20000 70000 91106 91204;
0140066730999992011010407004+47217+008683FM-12+046399999V0200701N001019999999N9999999N1-00401-00721102161ADDMA1999999096091MD1710121+9999OA149900361REMSYN088AAXX  04074 06673 33/// /0702 11040 21072 39609 40216 57012 333 55300 20000 91107 91203;
0140066730999992011010408004+47217+008683FM-12+046399999V0200701N001519999999N9999999N1-00381-00781102171ADDMA1999999096101MD1719999+9999OA149900361REMSYN088AAXX  04084 06673 33/// /0703 11038 21078 39610 40217 57/// 333 55300 20007 91107 91203;
0103066730999992011010409004+47217+008683FM-12+046399999V0200901N000519999999N9999999N1-00381-00761102181ADDMA1999999096111REMSYN076AAXX  04094 06673 33/// /0901 11038 21076 39611 40218 5//// 333 553// 20094;
0140066730999992011010410004+47217+008683FM-12+046399999V0200601N000519999999N9999999N1-00331-00721102181ADDMA1999999096121MD1210031+9999OA149900311REMSYN088AAXX  04104 06673 33/// /0601 11033 21072 39612 40218 52003 333 55300 20403 91106 91203;
0140066730999992011010411004+47217+008683FM-12+046399999V0209999C000019999999N9999999N1-00321-00731102131ADDMA1999999096081MD1710021+9999OA149900151REMSYN088AAXX  04114 06673 33/// /0000 11032 21073 39608 40213 57002 333 55302 20594 91103 91202;
0140066730999992011010412004+47217+008683FM-12+046399999V0201801N000519999999N9999999N1-00291-00731102051ADDMA1999999096011MD1710101+9999OA149900361REMSYN088AAXX  04124 06673 33/// /1801 11029 21073 39601 40205 57010 333 55308 20598 91107 91204;
0140066730999992011010413004+47217+008683FM-12+046399999V0200701N001019999999N9999999N1-00221-00711101991ADDMA1999999095971MD1610151+9999OA149900211REMSYN088AAXX  04134 06673 33/// /0702 11022 21071 39597 40199 56015 333 553// 2//// 91104 91202;
0103066730999992011010414004+47217+008683FM-12+046399999V0201001N001019999999N9999999N1-00191-00651101911ADDMA1999999095901REMSYN076AAXX  04144 06673 33/// /1002 11019 21065 39590 40191 5//// 333 553// 20720;
0087066730999992011010415004+47217+008683FM-12+046399999V0201601N000519999999N9999999N1-00191-00681101911ADDMA1999999095901REMSYN060AAXX  04154 06673 43/// /1601 11019 21068 39590 40191 5////;
0140066730999992011010416004+47217+008683FM-12+046399999V0201901N001019999999N9999999N1-00191-00641101881ADDMA1999999095871MD1710101+9999OA149900211REMSYN088AAXX  04164 06673 33/// /1902 11019 21064 39587 40188 57010 333 55300 20040 91104 91203;
0140066730999992011010417004+47217+008683FM-12+046399999V0209999C000019999999N9999999N1-00201-00641101891ADDMA1999999095881MD1710021+9999OA149900211REMSYN088AAXX  04174 06673 33/// /0000 11020 21064 39588 40189 57002 333 55300 20000 91104 91203;
0159066730999992011010418004+47217+008683FM-12+046399999V0202301N001519999999N9999999N1-00201-00601101921ADDKA1120M-00171MA1999999095911MD1510011+9999OA149900361REMSYN094AAXX  04184 06673 33/// /2303 11020 21060 39591 40192 55001 333 11017 55300 20000 91107 91203;
0140066730999992011010419004+47217+008683FM-12+046399999V0202101N001519999999N9999999N1-00171-00561101921ADDMA1999999095911MD1210041+9999OA149900211REMSYN088AAXX  04194 06673 33/// /2103 11017 21056 39591 40192 52004 333 55300 20000 91104 91203;
0140066730999992011010420004+47217+008683FM-12+046399999V0201301N000519999999N9999999N1-00201-00571101891ADDMA1999999095881MD1010001+9999OA149900211REMSYN088AAXX  04204 06673 33/// /1301 11020 21057 39588 40189 50000 333 55300 20000 91104 91203;
0140066730999992011010421004+47217+008683FM-12+046399999V0201101N001019999999N9999999N1-00201-00581101871ADDMA1999999095861MD1710051+9999OA149900211REMSYN088AAXX  04214 06673 33/// /1102 11020 21058 39586 40187 57005 333 55300 20000 91104 91203;
0140066730999992011010422004+47217+008683FM-12+046399999V0201201N001019999999N9999999N1-00221-00541101901ADDMA1999999095881MD1510031+9999OA149900211REMSYN088AAXX  04224 06673 33/// /1202 11022 21054 39588 40190 55003 333 55300 20000 91104 91202;
0159066730999992011010423004+47217+008683FM-12+046399999V0201701N001519999999N9999999N1-00301-00651101921ADDMA1999999095881MD1210031+9999OA149900261REMSYN088AAXX  04234 06673 33/// /1703 11030 21065 39588 40192 52000 333 55300 20000 91105 91203;EQDQ01+000002APC3  
0140066730999992011010500004+47217+008683FM-12+046399999V0201701N001519999999N9999999N1-00331-00671101891ADDMA1999999095851MD1810011+9999OA149900311REMSYN088AAXX  05004 06673 33/// /1703 11033 21067 39585 40189 58001 333 55300 20000 91106 91204;
0140066730999992011010501004+47217+008683FM-12+046399999V0201501N001519999999N9999999N1-00371-00681101891ADDMA1999999095841MD1710041+9999OA149900311REMSYN088AAXX  05014 06673 33/// /1503 11037 21068 39584 40189 57004 333 55300 20000 91106 91204;
0140066730999992011010502004+47217+008683FM-12+046399999V0201201N000519999999N9999999N1-00351-00631101891ADDMA1999999095841MD1710041+9999OA149900261REMSYN088AAXX  05024 06673 33/// /1201 11035 21063 39584 40189 57004 333 55300 20000 91105 91204;
0087066730999992011010503004+47217+008683FM-12+046399999V0201301N000519999999N9999999N1-00331-00621101871ADDMA1999999095831REMSYN060AAXX  05034 06673 43/// /1301 11033 21062 39583 40187 5////;
0140066730999992011010504004+47217+008683FM-12+046399999V0201201N001019999999N9999999N1-00291-00701101811ADDMA1999999095781MD1810061+9999OA149900261REMSYN088AAXX  05044 06673 33/// /1202 11029 21070 39578 40181 58006 333 55300 20000 91105 91203;
0140066730999992011010505004+47217+008683FM-12+046399999V0201301N000519999999N9999999N1-00311-00631101801ADDMA1999999095771MD1710071+9999OA149900261REMSYN088AAXX  05054 06673 33/// /1301 11031 21063 39577 40180 57007 333 55300 20000 91105 91203;
0207066730999992011010506004+47217+008683FM-12+046399999V0201501N000519999999N9999999N1-00301-00611101811ADDAL19900091GJ101989IA2999-00709KA1999N-00371MA1999999095781MD1510051+9999OA149900311REMSYN112AAXX  05064 06673 33/// /1501 11030 21061 39578 40181 55005 333 21037 3/107 55033 55300 20000 70000 91106 91204;
0140066730999992011010507004+47217+008683FM-12+046399999V0201501N000519999999N9999999N1-00301-00621101821ADDMA1999999095791MD1510011+9999OA149900151REMSYN088AAXX  05074 06673 33/// /1501 11030 21062 39579 40182 55001 333 55300 20000 91103 91202;
0140066730999992011010508004+47217+008683FM-12+046399999V0201501N001019999999N9999999N1-00331-00621101821ADDMA1999999095781MD1219999+9999OA149900151REMSYN088AAXX  05084 06673 33/// /1502 11033 21062 39578 40182 52/// 333 55302 20068 91103 91202;
0140066730999992011010509004+47217+008683FM-12+046399999V0209999C000019999999N9999999N1-00231-00661101771ADDMA1999999095761MD1710021+9999OA149900261REMSYN088AAXX  05094 06673 33/// /0000 11023 21066 39576 40177 57002 333 553// 20461 91105 91203;
0140066730999992011010510004+47217+008683FM-12+046399999V0200601N000519999999N9999999N1-00181-00691101731ADDMA1999999095731MD1810061+9999OA149900211REMSYN088AAXX  05104 06673 33/// /0601 11018 21069 39573 40173 58006 333 553// 20886 91104 91203;
0140066730999992011010511004+47217+008683FM-12+046399999V0200601N000519999999N9999999N1-00101-00641101661ADDMA1999999095681MD1810101+9999OA149900151REMSYN088AAXX  05114 06673 33/// /0601 11010 21064 39568 40166 58010 333 553// 2//// 91103 91202;
0103066730999992011010512004+47217+008683FM-12+046399999V0200801N000519999999N9999999N1+00021-00551101531ADDMA1999999095591REMSYN076AAXX  05124 06673 33/// /0801 10002 21055 39559 40153 5//// 333 553// 2////;
0140066730999992011010513004+47217+008683FM-12+046399999V0201101N001019999999N9999999N1+00091-00531101481ADDMA1999999095551MD1710181+9999OA149900261REMSYN088AAXX  05134 06673 33/// /1102 10009 21053 39555 40148 57018 333 553// 2//// 91105 91203;
0087066730999992011010514004+47217+008683FM-12+046399999V0202401N000519999999N9999999N1+00161-00491101471ADDMA1999999095561REMSYN060AAXX  05144 06673 43/// /2401 10016 21049 39556 40147 5////;
0087066730999992011010515004+47217+008683FM-12+046399999V0201201N001019999999N9999999N1+00071-00421101441ADDMA1999999095511REMSYN060AAXX  05154 06673 43/// /1202 10007 21042 39551 40144 5////;
0140066730999992011010516004+47217+008683FM-12+046399999V0201201N001519999999N9999999N1+00001-00751101391ADDMA1999999095451MD1810101+9999OA149900461REMSYN088AAXX  05164 06673 33/// /1203 10000 21075 39545 40139 58010 333 55300 20050 91109 91204;
0140066730999992011010517004+47217+008683FM-12+046399999V0202601N001019999999N9999999N1-00131-00601101441ADDMA1999999095471MD1710091+9999OA149900461REMSYN088AAXX  05174 06673 33/// /2602 11013 21060 39547 40144 57009 333 55300 20000 91109 91204;
0159066730999992011010518004+47217+008683FM-12+046399999V0201301N001019999999N9999999N1-00031-00591101421ADDKA1120M+00161MA1999999095471MD1719999+9999OA149900461REMSYN094AAXX  05184 06673 33/// /1302 11003 21059 39547 40142 57/// 333 10016 55300 20000 91109 91204;
0140066730999992011010519004+47217+008683FM-12+046399999V0201801N001519999999N9999999N1-00121-00581101431ADDMA1999999095461MD1810011+9999OA149900261REMSYN088AAXX  05194 06673 33/// /1803 11012 21058 39546 40143 58001 333 55300 20000 91105 91203;
0140066730999992011010520004+47217+008683FM-12+046399999V0201101N001019999999N9999999N1-00161-00581101381ADDMA1999999095411MD1719999+9999OA149900261REMSYN088AAXX  05204 06673 33/// /1102 11016 21058 39541 40138 57/// 333 55300 20000 91105 91203;
0103066730999992011010521004+47217+008683FM-12+046399999V0201201N001519999999N9999999N1-00111-00601101341ADDMA1999999095381REMSYN076AAXX  05214 06673 33/// /1203 11011 21060 39538 40134 5//// 333 553// 20000;
0140066730999992011010522004+47217+008683FM-12+046399999V0201701N001519999999N9999999N1-00151-00701101321ADDMA1999999095351MD1710111+9999OA149900411REMSYN088AAXX  05224 06673 33/// /1703 11015 21070 39535 40132 57011 333 55300 20000 91108 91205;
0140066730999992011010523004+47217+008683FM-12+046399999V0201501N001519999999N9999999N1-00081-00761101271ADDMA1999999095321MD1719999+9999OA149900411REMSYN088AAXX  05234 06673 33/// /1503 11008 21076 39532 40127 57/// 333 55300 20000 91108 91205;
0087066730999992011010600004+47217+008683FM-12+046399999V0201501N003619999999N9999999N1-00101-00751101191ADDMA1999999095241REMSYN060AAXX  06004 06673 43/// /1507 11010 21075 39524 40119 5////;
0087066730999992011010601004+47217+008683FM-12+046399999V0201701N001019999999N9999999N1-00071-00631101111ADDMA1999999095171REMSYN060AAXX  06014 06673 43/// /1702 11007 21063 39517 40111 5////;
0087066730999992011010602004+47217+008683FM-12+046399999V0201401N001019999999N9999999N1-00011-00551101091ADDMA1999999095171REMSYN060AAXX  06024 06673 43/// /1402 11001 21055 39517 40109 5////;
0087066730999992011010603004+47217+008683FM-12+046399999V0201201N000519999999N9999999N1+00021-00501101081ADDMA1999999095161REMSYN060AAXX  06034 06673 43/// /1201 10002 21050 39516 40108 5////;
0087066730999992011010604004+47217+008683FM-12+046399999V0202401N001019999999N9999999N1+00061-00451101081ADDMA1999999095171REMSYN060AAXX  06044 06673 43/// /2402 10006 21045 39517 40108 5////;
0087066730999992011010605004+47217+008683FM-12+046399999V0201201N001019999999N9999999N1+00141-00411101041ADDMA1999999095151REMSYN060AAXX  06054 06673 43/// /1202 10014 21041 39515 40104 5////;
0134066730999992011010606004+47217+008683FM-12+046399999V0202601N000519999999N9999999N1+00121-00301101051ADDIA2999-00609KA1999N-00221MA1999999095161REMSYN082AAXX  06064 06673 43/// /2601 10012 21030 39516 40105 5//// 333 21022 3/106 55071;
0087066730999992011010607004+47217+008683FM-12+046399999V0203101N001519999999N9999999N1+00181-00261101061ADDMA1999999095181REMSYN060AAXX  06074 06673 43/// /3103 10018 21026 39518 40106 5////;
0103066730999992011010608004+47217+008683FM-12+046399999V0202201N001519999999N9999999N1+00261-00371101001ADDMA1999999095141REMSYN076AAXX  06084 06673 33/// /2203 10026 21037 39514 40100 5//// 333 553// 20047;
0087066730999992011010609004+47217+008683FM-12+046399999V0202801N001519999999N9999999N1+00371-00211101001ADDMA1999999095161REMSYN060AAXX  06094 06673 43/// /2803 10037 21021 39516 40100 5////;
0140066730999992011010610004+47217+008683FM-12+046399999V0201801N001019999999N9999999N1+00561-00171101021ADDMA1999999095221MD1310041+9999OA149900311REMSYN088AAXX  06104 06673 33/// /1802 10056 21017 39522 40102 53004 333 55308 20724 91106 91205;
0140066730999992011010611004+47217+008683FM-12+046399999V0202001N001019999999N9999999N1+00691-00091100971ADDMA1999999095201MD1210061+9999OA149900211REMSYN088AAXX  06114 06673 33/// /2002 10069 21009 39520 40097 52006 333 55307 20940 91104 91203;
0140066730999992011010612004+47217+008683FM-12+046399999V0202201N000519999999N9999999N1+00681-00131100911ADDMA1999999095141MD1810021+9999OA149900461REMSYN088AAXX  06124 06673 33/// /2201 10068 21013 39514 40091 58002 333 55300 20605 91109 91205;
0140066730999992011010613004+47217+008683FM-12+046399999V0201801N000519999999N9999999N1+00761+00011100841ADDMA1999999095091MD1710131+9999OA149900311REMSYN088AAXX  06134 06673 33/// /1801 10076 20001 39509 40084 57013 333 55301 20590 91106 91204;
0087066730999992011010614004+47217+008683FM-12+046399999V0203001N001019999999N9999999N1+00671+00011100871ADDMA1999999095101REMSYN060AAXX  06144 06673 43/// /3002 10067 20001 39510 40087 5////;
0087066730999992011010615004+47217+008683FM-12+046399999V0201501N000519999999N9999999N1+00651+00001100891ADDMA1999999095121REMSYN060AAXX  06154 06673 43/// /1501 10065 20000 39512 40089 5////;
0140066730999992011010616004+47217+008683FM-12+046399999V0201501N001019999999N9999999N1+00591-00041100911ADDMA1999999095121MD1010031+9999OA149900361REMSYN088AAXX  06164 06673 33/// /1502 10059 21004 39512 40091 50003 333 55300 20018 91107 91204;
0140066730999992011010617004+47217+008683FM-12+046399999V0202901N003119999999N9999999N1+00611+00131100981ADDMA1999999095191MD1210091+9999OA149900511REMSYN088AAXX  06174 06673 33/// /2906 10061 20013 39519 40098 52009 333 55300 20000 91110 91206;
0182066730999992011010618004+47217+008683FM-12+046399999V0201501N001519999999N9999999N1+00461+00261101071ADDAA112002091KA1120M+00761MA1999999095251MD1310131+9999OA149900671REMSYN106AAXX  06184 06673 03/// /1503 10046 20026 39525 40107 53013 60022 333 10076 55300 20000 60025 91113 91206;
0146066730999992011010619004+47217+008683FM-12+046399999V0201601N001019999999N9999999N1+00411+00241101101ADDMA1999999095261MD1010141+9999OA149900671REMSYN094AAXX  06194 06673 23/// /1602 10041 20024 39526 40110 50014 333 55300 20000 69955 91113 91205;
0146066730999992011010620004+47217+008683FM-12+046399999V0202601N004119999999N9999999N1+00491+00241101181ADDMA1999999095361MD1219999+9999OA149900821REMSYN094AAXX  06204 06673 23/// /2608 10049 20024 39536 40118 52/// 333 55300 20000 69965 91116 91208;
0146066730999992011010621004+47217+008683FM-12+046399999V0202601N002619999999N9999999N1+00441+00301101161ADDMA1999999095331MD1219999+9999OA149900821REMSYN094AAXX  06214 06673 23/// /2605 10044 20030 39533 40116 52/// 333 55300 20000 69955 91116 91209;
0140066730999992011010622004+47217+008683FM-12+046399999V0202701N001519999999N9999999N1+00531+00331101181ADDMA1999999095361MD1210101+9999OA149900821REMSYN088AAXX  06224 06673 33/// /2703 10053 20033 39536 40118 52010 333 55300 20000 91116 91209;
0103066730999992011010623004+47217+008683FM-12+046399999V0200101N000519999999N9999999N1+00491+00321101251ADDMA1999999095421REMSYN076AAXX  06234 06673 33/// /0101 10049 20032 39542 40125 5//// 333 553// 20000;
0087066730999992011010700004+47217+008683FM-12+046399999V0202801N001019999999N9999999N1+00481+00301101281ADDMA1999999095451REMSYN060AAXX  07004 06673 43/// /2802 10048 20030 39545 40128 5////;
0087066730999992011010701004+47217+008683FM-12+046399999V0202501N003119999999N9999999N1+00581+00331101281ADDMA1999999095471REMSYN060AAXX  07014 06673 43/// /2506 10058 20033 39547 40128 5////;
0087066730999992011010702004+47217+008683FM-12+046399999V0202201N001519999999N9999999N1+00571+00351101311ADDMA1999999095501REMSYN060AAXX  07024 06673 43/// /2203 10057 20035 39550 40131 5////;
0087066730999992011010703004+47217+008683FM-12+046399999V0202001N000519999999N9999999N1+00561+00391101351ADDMA1999999095531REMSYN060AAXX  07034 06673 43/// /2001 10056 20039 39553 40135 5////;
0140066730999992011010704004+47217+008683FM-12+046399999V0201901N000519999999N9999999N1+00601+00401101381ADDMA1999999095571MD1110101+9999OA149900311REMSYN088AAXX  07044 06673 33/// /1901 10060 20040 39557 40138 51010 333 55300 20000 91106 91204;
0146066730999992011010705004+47217+008683FM-12+046399999V0201601N003119999999N9999999N1+00631+00411101391ADDMA1999999095581MD1210081+9999OA149900361REMSYN094AAXX  07054 06673 23/// /1606 10063 20041 39558 40139 52008 333 55300 20000 69955 91107 91206;
0230066730999992011010706004+47217+008683FM-12+046399999V0201301N001519999999N9999999N1+00481+00361101461ADDAA112003091AL11800491GJ101029IA2999+00309KA1999N+00381MA1999999095621MD1210091+9999OA149900821REMSYN124AAXX  07064 06673 03/// /1303 10048 20036 39562 40146 52009 60032 333 20038 3/003 55017 55300 20000 69965 70043 91116 91209;
0140066730999992011010707004+47217+008683FM-12+046399999V0202101N001019999999N9999999N1+00621+00391101421ADDMA1999999095611MD1210041+9999OA149900461REMSYN088AAXX  07074 06673 33/// /2102 10062 20039 39561 40142 52004 333 55300 20000 91109 91203;
0103066730999992011010708004+47217+008683FM-12+046399999V0202001N002119999999N9999999N1+00611+00391101381ADDMA1999999095571REMSYN076AAXX  07084 06673 33/// /2004 10061 20039 39557 40138 5//// 333 553// 20022;
0087066730999992011010709004+47217+008683FM-12+046399999V0202701N000519999999N9999999N1+00671+00441101341ADDMA1999999095541REMSYN060AAXX  07094 06673 43/// /2701 10067 20044 39554 40134 5////;
0146066730999992011010710004+47217+008683FM-12+046399999V0209999C000019999999N9999999N1+00751+00531101351ADDMA1999999095571MD1510041+9999OA149900771REMSYN094AAXX  07104 06673 23/// /0000 10075 20053 39557 40135 55004 333 55306 20706 69915 91115 91209;
0140066730999992011010711004+47217+008683FM-12+046399999V0200801N000519999999N9999999N1+00881+00501101331ADDMA1999999095581MD1210011+9999OA149900771REMSYN088AAXX  07114 06673 33/// /0801 10088 20050 39558 40133 52001 333 553// 2//// 91115 91209;
0182066730999992011010712004+47217+008683FM-12+046399999V0209999C000019999999N9999999N1+00961+00581101231ADDAA106000091MA1999999095501MD1810041+9999OA149900771REMSYN100AAXX  07124 06673 03/// /0000 10096 20058 39550 40123 58004 69911 333 553// 2//// 60005 91115 91209;EQDQ01  00002PRCP06
0140066730999992011010713004+47217+008683FM-12+046399999V0203301N000519999999N9999999N1+00991+00501101221ADDMA1999999095501MD1810071+9999OA149900211REMSYN088AAXX  07134 06673 33/// /3301 10099 20050 39550 40122 58007 333 553// 2//// 91104 91202;
0087066730999992011010714004+47217+008683FM-12+046399999V0203001N000519999999N9999999N1+00921+00461101231ADDMA1999999095491REMSYN060AAXX  07144 06673 43/// /3001 10092 20046 39549 40123 5////;
0087066730999992011010715004+47217+008683FM-12+046399999V0202801N000519999999N9999999N1+00801+00481101271ADDMA1999999095511REMSYN060AAXX  07154 06673 43/// /2801 10080 20048 39551 40127 5////;
0140066730999992011010716004+47217+008683FM-12+046399999V0202201N005119999999N9999999N1+00901+00501101321ADDMA1999999095571MD1210071+9999OA149900721REMSYN088AAXX  07164 06673 33/// /2210 10090 20050 39557 40132 52007 333 55300 20061 91114 91210;
0140066730999992011010717004+47217+008683FM-12+046399999V0203601N001019999999N9999999N1+00811+00461101361ADDMA1999999095591MD1210101+9999OA149900721REMSYN088AAXX  07174 06673 33/// /3602 10081 20046 39559 40136 52010 333 55300 20000 91114 91210;
0164066730999992011010718004+47217+008683FM-12+046399999V0201801N002119999999N9999999N1+00811+00351101391ADDAA112000091KA1120M+01101MA1999999095621REMSYN094AAXX  07184 06673 03/// /1804 10081 20035 39562 40139 5//// 69912 333 10110 553// 20000 60005;EQDQ01  00002PRCP12
0140066730999992011010719004+47217+008683FM-12+046399999V0201401N001519999999N9999999N1+00821+00361101381ADDMA1999999095611MD1019999+9999OA149900411REMSYN088AAXX  07194 06673 33/// /1403 10082 20036 39561 40138 50/// 333 55300 20000 91108 91205;
0087066730999992011010720004+47217+008683FM-12+046399999V0201601N001019999999N9999999N1+00651+00301101391ADDMA1999999095591REMSYN060AAXX  07204 06673 43/// /1602 10065 20030 39559 40139 5////;
0087066730999992011010721004+47217+008683FM-12+046399999V0201501N001019999999N9999999N1+00591+00251101371ADDMA1999999095561REMSYN060AAXX  07214 06673 43/// /1502 10059 20025 39556 40137 5////;
0140066730999992011010722004+47217+008683FM-12+046399999V0201901N000519999999N9999999N1+00701+00211101351ADDMA1999999095561MD1710051+9999OA149900261REMSYN088AAXX  07224 06673 33/// /1901 10070 20021 39556 40135 57005 333 55300 20000 91105 91203;
0103066730999992011010723004+47217+008683FM-12+046399999V0201301N000519999999N9999999N1+00681+00211101351ADDMA1999999095561REMSYN076AAXX  07234 06673 33/// /1301 10068 20021 39556 40135 5//// 333 553// 20000;
0103066730999992011010800004+47217+008683FM-12+046399999V0203301N000519999999N9999999N1+00611+00221101421ADDMA1999999095611REMSYN076AAXX  08004 06673 33/// /3301 10061 20022 39561 40142 5//// 333 553// 20000;
0087066730999992011010801004+47217+008683FM-12+046399999V0201101N000519999999N9999999N1+00711+00231101421ADDMA1999999095631REMSYN060AAXX  08014 06673 43/// /1101 10071 20023 39563 40142 5////;
0087066730999992011010802004+47217+008683FM-12+046399999V0201201N001019999999N9999999N1+00631+00271101421ADDMA1999999095611REMSYN060AAXX  08024 06673 43/// /1202 10063 20027 39561 40142 5////;
0087066730999992011010803004+47217+008683FM-12+046399999V0202601N000519999999N9999999N1+00611+00231101401ADDMA1999999095591REMSYN060AAXX  08034 06673 43/// /2601 10061 20023 39559 40140 5////;
0087066730999992011010804004+47217+008683FM-12+046399999V0200801N001019999999N9999999N1+00771+00251101371ADDMA1999999095591REMSYN060AAXX  08044 06673 43/// /0802 10077 20025 39559 40137 5////;
0087066730999992011010805004+47217+008683FM-12+046399999V0202001N000519999999N9999999N1+00861+00331101461ADDMA1999999095701REMSYN060AAXX  08054 06673 43/// /2001 10086 20033 39570 40146 5////;
0134066730999992011010806004+47217+008683FM-12+046399999V0201301N000519999999N9999999N1+00641+00331101591ADDIA2999+00309KA1999N+00511MA1999999095771REMSYN082AAXX  08064 06673 43/// /1301 10064 20033 39577 40159 5//// 333 20051 3/003 55045;
0087066730999992011010807004+47217+008683FM-12+046399999V0201701N002119999999N9999999N1+00601+00461101641ADDMA1999999095811REMSYN060AAXX  08074 06673 43/// /1704 10060 20046 39581 40164 5////;
0109066730999992011010808004+47217+008683FM-12+046399999V0201601N002619999999N9999999N1+00721+00521101591ADDMA1999999095791REMSYN082AAXX  08084 06673 23/// /1605 10072 20052 39579 40159 5//// 333 553// 20007 69935;
0087066730999992011010809004+47217+008683FM-12+046399999V0201501N001519999999N9999999N1+00601+00421101591ADDMA1999999095771REMSYN060AAXX  08094 06673 43/// /1503 10060 20042 39577 40159 5////;
0087066730999992011010810004+47217+008683FM-12+046399999V0203101N000519999999N9999999N1+00791+00551101551ADDMA1999999095771REMSYN060AAXX  08104 06673 43/// /3101 10079 20055 39577 40155 5////;
0087066730999992011010811004+47217+008683FM-12+046399999V0209999C000019999999N9999999N1+01011+00561101451ADDMA1999999095721REMSYN060AAXX  08114 06673 43/// /0000 10101 20056 39572 40145 5////;
0087066730999992011010812004+47217+008683FM-12+046399999V0201201N000519999999N9999999N1+01081+00531101391ADDMA1999999095681REMSYN060AAXX  08124 06673 43/// /1201 10108 20053 39568 40139 5////;
0087066730999992011010813004+47217+008683FM-12+046399999V0202001N000519999999N9999999N1+01121+00501101341ADDMA1999999095641REMSYN060AAXX  08134 06673 43/// /2001 10112 20050 39564 40134 5////;
0087066730999992011010814004+47217+008683FM-12+046399999V0209999C000019999999N9999999N1+01111+00541101351ADDMA1999999095641REMSYN060AAXX  08144 06673 43/// /0000 10111 20054 39564 40135 5////;
0087066730999992011010815004+47217+008683FM-12+046399999V0202201N002119999999N9999999N1+01081+00551101371ADDMA1999999095661REMSYN060AAXX  08154 06673 43/// /2204 10108 20055 39566 40137 5////;
0087066730999992011010816004+47217+008683FM-12+046399999V0209999C000019999999N9999999N1+00951+00511101431ADDMA1999999095691REMSYN060AAXX  08164 06673 43/// /0000 10095 20051 39569 40143 5////;
0087066730999992011010817004+47217+008683FM-12+046399999V0202001N002119999999N9999999N1+00831+00471101451ADDMA1999999095681REMSYN060AAXX  08174 06673 43/// /2004 10083 20047 39568 40145 5////;
0087066730999992011010818004+47217+008683FM-12+046399999V0201501N001019999999N9999999N1+00781+00321101431ADDMA1999999095651REMSYN060AAXX  08184 06673 43/// /1502 10078 20032 39565 40143 5////;
0087066730999992011010819004+47217+008683FM-12+046399999V0201601N002119999999N9999999N1+00811+00021101421ADDMA1999999095651REMSYN060AAXX  08194 06673 43/// /1604 10081 20002 39565 40142 5////;
0087066730999992011010820004+47217+008683FM-12+046399999V0201501N002619999999N9999999N1+00621-00021101441ADDMA1999999095631REMSYN060AAXX  08204 06673 43/// /1505 10062 21002 39563 40144 5////;
0087066730999992011010821004+47217+008683FM-12+046399999V0201701N003119999999N9999999N1+00761-00071101381ADDMA1999999095601REMSYN060AAXX  08214 06673 43/// /1706 10076 21007 39560 40138 5////;
0087066730999992011010822004+47217+008683FM-12+046399999V0202001N000519999999N9999999N1+00601+00021101411ADDMA1999999095601REMSYN060AAXX  08224 06673 43/// /2001 10060 20002 39560 40141 5////;
0087066730999992011010823004+47217+008683FM-12+046399999V0202101N000519999999N9999999N1+00641-00021101351ADDMA1999999095551REMSYN060AAXX  08234 06673 43/// /2101 10064 21002 39555 40135 5////;
0087066730999992011010900004+47217+008683FM-12+046399999V0203101N000519999999N9999999N1+00541-00061101341ADDMA1999999095521REMSYN060AAXX  09004 06673 43/// /3101 10054 21006 39552 40134 5////;
0087066730999992011010901004+47217+008683FM-12+046399999V0202701N001019999999N9999999N1+00801+00051101341ADDMA1999999095571REMSYN060AAXX  09014 06673 43/// /2702 10080 20005 39557 40134 5////;
0087066730999992011010902004+47217+008683FM-12+046399999V0200401N000519999999N9999999N1+00601+00141101401ADDMA1999999095591REMSYN060AAXX  09024 06673 43/// /0401 10060 20014 39559 40140 5////;
0087066730999992011010903004+47217+008683FM-12+046399999V0201801N001519999999N9999999N1+00541+00171101401ADDMA1999999095571REMSYN060AAXX  09034 06673 43/// /1803 10054 20017 39557 40140 5////;
0087066730999992011010904004+47217+008683FM-12+046399999V0202201N003119999999N9999999N1+00721+00181101371ADDMA1999999095581REMSYN060AAXX  09044 06673 43/// /2206 10072 20018 39558 40137 5////;
0087066730999992011010905004+47217+008683FM-12+046399999V0202101N000519999999N9999999N1+00551+00151101391ADDMA1999999095571REMSYN060AAXX  09054 06673 43/// /2101 10055 20015 39557 40139 5////;
0097066730999992011010906004+47217+008683FM-12+046399999V0200801N000519999999N9999999N1+00531+00161101381ADDMA1999999095551REMSYN070AAXX  09064 06673 43/// /0801 10053 20016 39555 40138 5//// 333 55053;
0087066730999992011010907004+47217+008683FM-12+046399999V0202901N000519999999N9999999N1+00481+00161101371ADDMA1999999095531REMSYN060AAXX  09074 06673 43/// /2901 10048 20016 39553 40137 5////;
0103066730999992011010908004+47217+008683FM-12+046399999V0209999C000019999999N9999999N1+00591+00161101441ADDMA1999999095621REMSYN076AAXX  09084 06673 33/// /0000 10059 20016 39562 40144 5//// 333 553// 20032;
0103066730999992011010909004+47217+008683FM-12+046399999V0201501N000519999999N9999999N1+00601+00221101481ADDMA1999999095661REMSYN076AAXX  09094 06673 33/// /1501 10060 20022 39566 40148 5//// 333 553// 20119;
0140066730999992011010910004+47217+008683FM-12+046399999V0201601N001519999999N9999999N1+00851+00301101471ADDMA1999999095701MD1210171+9999OA149900261REMSYN088AAXX  09104 06673 33/// /1603 10085 20030 39570 40147 52017 333 55305 20601 91105 91203;
0140066730999992011010911004+47217+008683FM-12+046399999V0202501N001519999999N9999999N1+01141+00131101411ADDMA1999999095711MD1210091+9999OA149900311REMSYN088AAXX  09114 06673 33/// /2503 10114 20013 39571 40141 52009 333 55302 20745 91106 91203;
0140066730999992011010912004+47217+008683FM-12+046399999V0202601N002119999999N9999999N1+01091+00191101391ADDMA1999999095681MD1010021+9999OA149900411REMSYN088AAXX  09124 06673 33/// /2604 10109 20019 39568 40139 50002 333 55300 20475 91108 91206;
0140066730999992011010913004+47217+008683FM-12+046399999V0202601N001519999999N9999999N1+01011+00261101441ADDMA1999999095711MD1010011+9999OA149900411REMSYN088AAXX  09134 06673 33/// /2603 10101 20026 39571 40144 50001 333 55300 20338 91108 91205;
0087066730999992011010914004+47217+008683FM-12+046399999V0202801N001519999999N9999999N1+01031+00311101441ADDMA1999999095711REMSYN060AAXX  09144 06673 43/// /2803 10103 20031 39571 40144 5////;
0087066730999992011010915004+47217+008683FM-12+046399999V0202501N002119999999N9999999N1+00941+00531101531ADDMA1999999095781REMSYN060AAXX  09154 06673 43/// /2504 10094 20053 39578 40153 5////;
0140066730999992011010916004+47217+008683FM-12+046399999V0202401N001019999999N9999999N1+00851+00521101581ADDMA1999999095811MD1210101+9999OA149900411REMSYN088AAXX  09164 06673 33/// /2402 10085 20052 39581 40158 52010 333 55300 20025 91108 91206;
0140066730999992011010917004+47217+008683FM-12+046399999V0202601N002619999999N9999999N1+00861+00471101631ADDMA1999999095861MD1210151+9999OA149900721REMSYN088AAXX  09174 06673 33/// /2605 10086 20047 39586 40163 52015 333 55300 20000 91114 91207;
0159066730999992011010918004+47217+008683FM-12+046399999V0202601N000519999999N9999999N1+00771+00511101701ADDKA1120M+01141MA1999999095901MD1110121+9999OA149900721REMSYN094AAXX  09184 06673 33/// /2601 10077 20051 39590 40170 51012 333 10114 55300 20000 91114 91207;
0140066730999992011010919004+47217+008683FM-12+046399999V0202801N001019999999N9999999N1+00721+00531101731ADDMA1999999095921MD1110111+9999OA149900511REMSYN088AAXX  09194 06673 33/// /2802 10072 20053 39592 40173 51011 333 55300 20000 91110 91205;
0146066730999992011010920004+47217+008683FM-12+046399999V0202501N001519999999N9999999N1+00711+00471101841ADDMA1999999096021MD1310161+9999OA149900261REMSYN094AAXX  09204 06673 23/// /2503 10071 20047 39602 40184 53016 333 55300 20000 69925 91105 91204;
0146066730999992011010921004+47217+008683FM-12+046399999V0202801N001019999999N9999999N1+00641+00461101871ADDMA1999999096041MD1110141+9999OA149900721REMSYN094AAXX  09214 06673 23/// /2802 10064 20046 39604 40187 51014 333 55300 20000 60015 91114 91207;
0146066730999992011010922004+47217+008683FM-12+046399999V0202601N002119999999N9999999N1+00621+00471101931ADDMA1999999096091MD1110171+9999OA149900461REMSYN094AAXX  09224 06673 23/// /2604 10062 20047 39609 40193 51017 333 55300 20000 69955 91109 91205;
0146066730999992011010923004+47217+008683FM-12+046399999V0202501N001519999999N9999999N1+00591+00471101981ADDMA1999999096131MD1310111+9999OA149900411REMSYN094AAXX  09234 06673 23/// /2503 10059 20047 39613 40198 53011 333 55300 20000 60025 91108 91204;
0163066730999992011011000004+47217+008683FM-12+046399999V0202801N002119999999N9999999N1+00551+00341102021ADDAA106005191MA1999999096161MD1110121+9999OA149900721REMSYN100AAXX  10004 06673 03/// /2804 10055 20034 39616 40202 51012 60051 333 55300 20000 60025 91114 91207;
0146066730999992011011001004+47217+008683FM-12+046399999V0202701N002619999999N9999999N1+00481+00271102091ADDMA1999999096211MD1110121+9999OA149900511REMSYN094AAXX  10014 06673 23/// /2705 10048 20027 39621 40209 51012 333 55300 20000 60025 91110 91205;
0109066730999992011011002004+47217+008683FM-12+046399999V0202201N000519999999N9999999N1+00451+00291102131ADDMA1999999096241REMSYN082AAXX  10024 06673 23/// /2201 10045 20029 39624 40213 5//// 333 553// 20000 69955;
0087066730999992011011003004+47217+008683FM-12+046399999V0202201N000519999999N9999999N1+00421+00311102141ADDMA1999999096251REMSYN060AAXX  10034 06673 43/// /2201 10042 20031 39625 40214 5////;
0109066730999992011011004004+47217+008683FM-12+046399999V0201401N001019999999N9999999N1+00421+00321102141ADDMA1999999096251REMSYN082AAXX  10044 06673 23/// /1402 10042 20032 39625 40214 5//// 333 553// 20000 69965;
0146066730999992011011005004+47217+008683FM-12+046399999V0200801N000519999999N9999999N1+00411+00331102161ADDMA1999999096261MD1219999+9999OA149900261REMSYN094AAXX  10054 06673 23/// /0801 10041 20033 39626 40216 52/// 333 55300 20000 69925 91105 91203;
0159066730999992011011006004+47217+008683FM-12+046399999V0201001N000519999999N9999999N1+00381+00301102171ADDAA124008491GJ100489IA2999+00309KA1999N+00401MA1999999096271REMSYN088AAXX  10064 06673 43/// /1001 10038 20030 39627 40217 5//// 333 20040 3/003 55008 70085;
0140066730999992011011007004+47217+008683FM-12+046399999V0209999C000019999999N9999999N1+00381+00311102211ADDMA1999999096301MD1210051+9999OA149900361REMSYN088AAXX  10074 06673 33/// /0000 10038 20031 39630 40221 52005 333 55300 20000 91107 91203;
0087066730999992011011008004+47217+008683FM-12+046399999V0200101N000519999999N9999999N1+00401+00331102221ADDMA1999999096321REMSYN060AAXX  10084 06673 43/// /0101 10040 20033 39632 40222 5////;
0087066730999992011011009004+47217+008683FM-12+046399999V0203101N002619999999N9999999N1+00351+00271102281ADDMA1999999096361REMSYN060AAXX  10094 06673 43/// /3105 10035 20027 39636 40228 5////;
0140066730999992011011010004+47217+008683FM-12+046399999V0203101N002119999999N9999999N1+00341+00241102281ADDMA1999999096361MD1210061+9999OA149900461REMSYN088AAXX  10104 06673 33/// /3104 10034 20024 39636 40228 52006 333 55300 20104 91109 91205;
0140066730999992011011011004+47217+008683FM-12+046399999V0203001N001019999999N9999999N1+00351+00241102241ADDMA1999999096331MD1019999+9999OA149900461REMSYN088AAXX  10114 06673 33/// /3002 10035 20024 39633 40224 50/// 333 55300 20238 91109 91205;
0145066730999992011011012004+47217+008683FM-12+046399999V0203401N001019999999N9999999N1+00401+00301102161ADDAA106000091MA1999999096261REMSYN088AAXX  10124 06673 03/// /3402 10040 20030 39626 40216 5//// 69911 333 553// 20335 60005;EQDQ01  00002PRCP06
0087066730999992011011013004+47217+008683FM-12+046399999V0203101N002619999999N9999999N1+00391+00241102121ADDMA1999999096221REMSYN060AAXX  10134 06673 43/// /3105 10039 20024 39622 40212 5////;
0087066730999992011011014004+47217+008683FM-12+046399999V0200101N000519999999N9999999N1+00381+00211102071ADDMA1999999096171REMSYN060AAXX  10144 06673 43/// /0101 10038 20021 39617 40207 5////;
0087066730999992011011015004+47217+008683FM-12+046399999V0203401N000519999999N9999999N1+00401+00251102031ADDMA1999999096141REMSYN060AAXX  10154 06673 43/// /3401 10040 20025 39614 40203 5////;
0087066730999992011011016004+47217+008683FM-12+046399999V0203101N002119999999N9999999N1+00401+00211102001ADDMA1999999096111REMSYN060AAXX  10164 06673 43/// /3104 10040 20021 39611 40200 5////;
0087066730999992011011017004+47217+008683FM-12+046399999V0202801N000519999999N9999999N1+00381+00211101971ADDMA1999999096081REMSYN060AAXX  10174 06673 43/// /2801 10038 20021 39608 40197 5////;
0110066730999992011011018004+47217+008683FM-12+046399999V0202901N001519999999N9999999N1+00351+00201101971ADDKA1999M+00411MA1999999096071REMSYN070AAXX  10184 06673 43/// /2903 10035 20020 39607 40197 5//// 333 10041;
0087066730999992011011019004+47217+008683FM-12+046399999V0203101N001019999999N9999999N1+00331+00191101931ADDMA1999999096031REMSYN060AAXX  10194 06673 43/// /3102 10033 20019 39603 40193 5////;
0087066730999992011011020004+47217+008683FM-12+046399999V0202901N001519999999N9999999N1+00321+00181101911ADDMA1999999096011REMSYN060AAXX  10204 06673 43/// /2903 10032 20018 39601 40191 5////;
0087066730999992011011021004+47217+008683FM-12+046399999V0203001N001519999999N9999999N1+00311+00181101901ADDMA1999999096001REMSYN060AAXX  10214 06673 43/// /3003 10031 20018 39600 40190 5////;
0087066730999992011011022004+47217+008683FM-12+046399999V0200301N000519999999N9999999N1+00301+00201101921ADDMA1999999096011REMSYN060AAXX  10224 06673 43/// /0301 10030 20020 39601 40192 5////;
0087066730999992011011023004+47217+008683FM-12+046399999V0201001N000519999999N9999999N1+00301+00191101881ADDMA1999999095981REMSYN060AAXX  10234 06673 43/// /1001 10030 20019 39598 40188 5////;
0087066730999992011011100004+47217+008683FM-12+046399999V0209999C000019999999N9999999N1+00311+00191101811ADDMA1999999095911REMSYN060AAXX  11004 06673 43/// /0000 10031 20019 39591 40181 5////;
0087066730999992011011101004+47217+008683FM-12+046399999V0200301N000519999999N9999999N1+00301+00181101781ADDMA1999999095881REMSYN060AAXX  11014 06673 43/// /0301 10030 20018 39588 40178 5////;
0087066730999992011011102004+47217+008683FM-12+046399999V0201601N001519999999N9999999N1+00321+00201101741ADDMA1999999095851REMSYN060AAXX  11024 06673 43/// /1603 10032 20020 39585 40174 5////;
0087066730999992011011103004+47217+008683FM-12+046399999V0201601N002119999999N9999999N1+00321+00161101681ADDMA1999999095791REMSYN060AAXX  11034 06673 43/// /1604 10032 20016 39579 40168 5////;
0087066730999992011011104004+47217+008683FM-12+046399999V0202001N001019999999N9999999N1+00331+00131101641ADDMA1999999095761REMSYN060AAXX  11044 06673 43/// /2002 10033 20013 39576 40164 5////;
0087066730999992011011105004+47217+008683FM-12+046399999V0202001N001019999999N9999999N1+00341+00061101591ADDMA1999999095711REMSYN060AAXX  11054 06673 43/// /2002 10034 20006 39571 40159 5////;
0097066730999992011011106004+47217+008683FM-12+046399999V0201701N004119999999N9999999N1+00271+00021101561ADDMA1999999095671REMSYN070AAXX  11064 06673 43/// /1708 10027 20002 39567 40156 5//// 333 55000;
0140066730999992011011107004+47217+008683FM-12+046399999V0201701N004119999999N9999999N1+00271+00021101501ADDMA1999999095611MD1719999+9999OA149900571REMSYN088AAXX  11074 06673 33/// /1708 10027 20002 39561 40150 57/// 333 55300 20000 91111 91208;
0103066730999992011011108004+47217+008683FM-12+046399999V0201101N001019999999N9999999N1+00301+00021101471ADDMA1999999095591REMSYN076AAXX  11084 06673 33/// /1102 10030 20002 39559 40147 5//// 333 553// 20032;
0087066730999992011011109004+47217+008683FM-12+046399999V0201201N001019999999N9999999N1+00331+00011101411ADDMA1999999095541REMSYN060AAXX  11094 06673 43/// /1202 10033 20001 39554 40141 5////;
0140066730999992011011110004+47217+008683FM-12+046399999V0200801N002119999999N9999999N1+00351+00041101371ADDMA1999999095511MD1710101+9999OA149900311REMSYN088AAXX  11104 06673 33/// /0804 10035 20004 39551 40137 57010 333 55300 20349 91106 91204;
0140066730999992011011111004+47217+008683FM-12+046399999V0200901N002119999999N9999999N1+00371+00071101261ADDMA1999999095411MD1710181+9999OA149900411REMSYN088AAXX  11114 06673 33/// /0904 10037 20007 39541 40126 57018 333 55301 20648 91108 91205;
0103066730999992011011112004+47217+008683FM-12+046399999V0200201N000519999999N9999999N1+00371+00061101201ADDMA1999999095351REMSYN076AAXX  11124 06673 33/// /0201 10037 20006 39535 40120 5//// 333 553// 20414;
0140066730999992011011113004+47217+008683FM-12+046399999V0202301N001019999999N9999999N1+00401+00021101171ADDMA1999999095331MD1610181+9999OA149900571REMSYN088AAXX  11134 06673 33/// /2302 10040 20002 39533 40117 56018 333 55300 20396 91111 91206;
0087066730999992011011114004+47217+008683FM-12+046399999V0201401N001519999999N9999999N1+00441+00101101201ADDMA1999999095361REMSYN060AAXX  11144 06673 43/// /1403 10044 20010 39536 40120 5////;
0087066730999992011011115004+47217+008683FM-12+046399999V0201001N001019999999N9999999N1+00401+00141101271ADDMA1999999095421REMSYN060AAXX  11154 06673 43/// /1002 10040 20014 39542 40127 5////;
0140066730999992011011116004+47217+008683FM-12+046399999V0209999C000019999999N9999999N1+00451+00141101331ADDMA1999999095491MD1310161+9999OA149900411REMSYN088AAXX  11164 06673 33/// /0000 10045 20014 39549 40133 53016 333 55300 20018 91108 91203;
0146066730999992011011117004+47217+008683FM-12+046399999V0202601N004119999999N9999999N1+00351+00161101441ADDMA1999999095571MD1319999+9999OA149900621REMSYN094AAXX  11174 06673 23/// /2608 10035 20016 39557 40144 53/// 333 55300 20000 69995 91112 91208;
0182066730999992011011118004+47217+008683FM-12+046399999V0202101N001019999999N9999999N1+00261+00161101551ADDAA112003091KA1120M+00451MA1999999095661MD1310241+9999OA149900671REMSYN106AAXX  11184 06673 03/// /2102 10026 20016 39566 40155 53024 60032 333 10045 55300 20000 60025 91113 91208;
0146066730999992011011119004+47217+008683FM-12+046399999V0202101N003119999999N9999999N1+00311+00121101651ADDMA1999999095761MD1310271+9999OA149900671REMSYN094AAXX  11194 06673 23/// /2106 10031 20012 39576 40165 53027 333 55300 20000 69915 91113 91208;
0146066730999992011011120004+47217+008683FM-12+046399999V0201701N001019999999N9999999N1+00331+00171101731ADDMA1999999095841MD1210271+9999OA149900511REMSYN094AAXX  11204 06673 23/// /1702 10033 20017 39584 40173 52027 333 55300 20000 69945 91110 91206;
0146066730999992011011121004+47217+008683FM-12+046399999V0202401N001519999999N9999999N1+00361+00201101821ADDMA1999999095931MD1110271+9999OA149900671REMSYN094AAXX  11214 06673 23/// /2403 10036 20020 39593 40182 51027 333 55300 20000 69915 91113 91208;
0140066730999992011011122004+47217+008683FM-12+046399999V0201201N001019999999N9999999N1+00331+00221101891ADDMA1999999095991MD1110231+9999OA149900571REMSYN088AAXX  11224 06673 33/// /1202 10033 20022 39599 40189 51023 333 55300 20000 91111 91208;
0140066730999992011011123004+47217+008683FM-12+046399999V0201101N001019999999N9999999N1+00311+00231101951ADDMA1999999096041MD1110201+9999OA149900571REMSYN088AAXX  11234 06673 33/// /1102 10031 20023 39604 40195 51020 333 55300 20000 91111 91208;
0163066730999992011011200004+47217+008683FM-12+046399999V0201701N002119999999N9999999N1+00331+00221101951ADDAA106000591MA1999999096051MD1110121+9999OA149900671REMSYN100AAXX  12004 06673 03/// /1704 10033 20022 39605 40195 51012 69961 333 55300 20000 60005 91113 91208;
0140066730999992011011201004+47217+008683FM-12+046399999V0201701N001519999999N9999999N1+00381+00211101961ADDMA1999999096071MD1210081+9999OA149900411REMSYN088AAXX  12014 06673 33/// /1703 10038 20021 39607 40196 52008 333 55300 20000 91108 91204;
0103066730999992011011202004+47217+008683FM-12+046399999V0201401N001019999999N9999999N1+00371+00241102061ADDMA1999999096161REMSYN076AAXX  12024 06673 33/// /1402 10037 20024 39616 40206 5//// 333 553// 20000;
0087066730999992011011203004+47217+008683FM-12+046399999V0202501N004119999999N9999999N1+00481+00231102151ADDMA1999999096271REMSYN060AAXX  12034 06673 43/// /2508 10048 20023 39627 40215 5////;
0087066730999992011011204004+47217+008683FM-12+046399999V0202601N002119999999N9999999N1+00461+00211102161ADDMA1999999096271REMSYN060AAXX  12044 06673 43/// /2604 10046 20021 39627 40216 5////;
0103066730999992011011205004+47217+008683FM-12+046399999V0202501N003119999999N9999999N1+00491+00221102231ADDMA1999999096351REMSYN076AAXX  12054 06673 33/// /2506 10049 20022 39635 40223 5//// 333 553// 20000;
0159066730999992011011206004+47217+008683FM-12+046399999V0202601N003119999999N9999999N1+00491+00271102341ADDAA124003091GJ100069IA2999+00209KA1999N+00261MA1999999096451REMSYN088AAXX  12064 06673 43/// /2606 10049 20027 39645 40234 5//// 333 20026 3/002 55001 70031;
0146066730999992011011207004+47217+008683FM-12+046399999V0202501N001519999999N9999999N1+00491+00291102381ADDMA1999999096491MD1110221+9999OA149900621REMSYN094AAXX  12074 06673 23/// /2503 10049 20029 39649 40238 51022 333 55300 20000 69915 91112 91209;
0087066730999992011011208004+47217+008683FM-12+046399999V0202301N002119999999N9999999N1+00491+00281102401ADDMA1999999096511REMSYN060AAXX  12084 06673 43/// /2304 10049 20028 39651 40240 5////;
0087066730999992011011209004+47217+008683FM-12+046399999V0202701N001519999999N9999999N1+00551+00271102421ADDMA1999999096541REMSYN060AAXX  12094 06673 43/// /2703 10055 20027 39654 40242 5////;
0140066730999992011011210004+47217+008683FM-12+046399999V0202401N001519999999N9999999N1+00571+00301102441ADDMA1999999096561MD1219999+9999OA149900361REMSYN088AAXX  12104 06673 33/// /2403 10057 20030 39656 40244 52/// 333 55300 20230 91107 91204;
0140066730999992011011211004+47217+008683FM-12+046399999V0202501N001019999999N9999999N1+00631+00271102381ADDMA1999999096521MD1010011+9999OA149900361REMSYN088AAXX  12114 06673 33/// /2502 10063 20027 39652 40238 50001 333 55300 20403 91107 91204;
0087066730999992011011212004+47217+008683FM-12+046399999V0202601N001019999999N9999999N1+00661+00241102361ADDMA1999999096501REMSYN060AAXX  12124 06673 43/// /2602 10066 20024 39650 40236 5////;
0087066730999992011011213004+47217+008683FM-12+046399999V0200901N001519999999N9999999N1+00591+00351102311ADDMA1999999096441REMSYN060AAXX  12134 06673 43/// /0903 10059 20035 39644 40231 5////;
0087066730999992011011214004+47217+008683FM-12+046399999V0202901N001519999999N9999999N1+00651+00221102351ADDMA1999999096491REMSYN060AAXX  12144 06673 43/// /2903 10065 20022 39649 40235 5////;
0087066730999992011011215004+47217+008683FM-12+046399999V0202601N001019999999N9999999N1+00561+00341102381ADDMA1999999096501REMSYN060AAXX  12154 06673 43/// /2602 10056 20034 39650 40238 5////;
0146066730999992011011216004+47217+008683FM-12+046399999V0202301N001519999999N9999999N1+00561+00291102381ADDMA1999999096501MD1210061+9999OA149900411REMSYN094AAXX  12164 06673 23/// /2303 10056 20029 39650 40238 52006 333 55300 20014 69945 91108 91203;
0146066730999992011011217004+47217+008683FM-12+046399999V0201501N002119999999N9999999N1+00531+00331102351ADDMA1999999096471MD1810021+9999OA149900571REMSYN094AAXX  12174 06673 23/// /1504 10053 20033 39647 40235 58002 333 55300 20000 69925 91111 91204;
0182066730999992011011218004+47217+008683FM-12+046399999V0200901N000519999999N9999999N1+00481+00391102361ADDAA112001091KA1120M+00661MA1999999096471MD1710031+9999OA149900571REMSYN106AAXX  12184 06673 03/// /0901 10048 20039 39647 40236 57003 60012 333 10066 55300 20000 69915 91111 91205;
0146066730999992011011219004+47217+008683FM-12+046399999V0201701N000519999999N9999999N1+00491+00381102381ADDMA1999999096491MD1510011+9999OA149900261REMSYN094AAXX  12194 06673 23/// /1701 10049 20038 39649 40238 55001 333 55300 20000 69925 91105 91202;
0140066730999992011011220004+47217+008683FM-12+046399999V0200801N000519999999N9999999N1+00471+00371102391ADDMA1999999096491MD1210021+9999OA149900211REMSYN088AAXX  12204 06673 33/// /0801 10047 20037 39649 40239 52002 333 55300 20000 91104 91202;
0146066730999992011011221004+47217+008683FM-12+046399999V0201001N000519999999N9999999N1+00451+00381102371ADDMA1999999096471MD1810011+9999OA149900571REMSYN094AAXX  12214 06673 23/// /1001 10045 20038 39647 40237 58000 333 55300 20000 69975 91111 91204;
0146066730999992011011222004+47217+008683FM-12+046399999V0201501N001519999999N9999999N1+00481+00391102361ADDMA1999999096471MD1510021+9999OA149900261REMSYN094AAXX  12224 06673 23/// /1503 10048 20039 39647 40236 55002 333 55300 20000 60025 91105 91203;
0146066730999992011011223004+47217+008683FM-12+046399999V0201401N001019999999N9999999N1+00471+00411102351ADDMA1999999096451MD1710041+9999OA149900311REMSYN094AAXX  12234 06673 23/// /1402 10047 20041 39645 40235 57004 333 55300 20000 60025 91106 91204;
0163066730999992011011300004+47217+008683FM-12+046399999V0201601N002119999999N9999999N1+00491+00401102361ADDAA106006191MA1999999096471MD1510001+9999OA149900571REMSYN100AAXX  13004 06673 03/// /1604 10049 20040 39647 40236 55000 60061 333 55300 20000 60025 91111 91204;
0146066730999992011011301004+47217+008683FM-12+046399999V0201101N002119999999N9999999N1+00471+00411102281ADDMA1999999096391MD1710081+9999OA149900361REMSYN094AAXX  13014 06673 23/// /1104 10047 20041 39639 40228 57008 333 55300 20000 60025 91107 91204;
0146066730999992011011302004+47217+008683FM-12+046399999V0201501N002619999999N9999999N1+00481+00391102271ADDMA1999999096381MD1719999+9999OA149900461REMSYN094AAXX  13024 06673 23/// /1505 10048 20039 39638 40227 57/// 333 55300 20000 69975 91109 91205;
0087066730999992011011303004+47217+008683FM-12+046399999V0201301N000519999999N9999999N1+00491+00401102211ADDMA1999999096331REMSYN060AAXX  13034 06673 43/// /1301 10049 20040 39633 40221 5////;
0146066730999992011011304004+47217+008683FM-12+046399999V0201701N003619999999N9999999N1+00581+00461102191ADDMA1999999096331MD1719999+9999OA149900461REMSYN094AAXX  13044 06673 23/// /1707 10058 20046 39633 40219 57/// 333 55300 20000 69985 91109 91207;
0109066730999992011011305004+47217+008683FM-12+046399999V0201401N000519999999N9999999N1+00511+00441102251ADDMA1999999096371REMSYN082AAXX  13054 06673 23/// /1401 10051 20044 39637 40225 5//// 333 553// 20000 60015;
0230066730999992011011306004+47217+008683FM-12+046399999V0201301N000519999999N9999999N1+00541+00481102241ADDAA112013091AL14801391GJ100009IA2999+00409KA1999N+00451MA1999999096371MD1210041+9999OA149900461REMSYN124AAXX  13064 06673 03/// /1301 10054 20048 39637 40224 52004 60132 333 20045 3/004 55000 55300 20000 60015 70139 91109 91207;
0087066730999992011011307004+47217+008683FM-12+046399999V0200401N000519999999N9999999N1+00541+00481102231ADDMA1999999096361REMSYN060AAXX  13074 06673 43/// /0401 10054 20048 39636 40223 5////;
0087066730999992011011308004+47217+008683FM-12+046399999V0201301N000519999999N9999999N1+00531+00471102251ADDMA1999999096371REMSYN060AAXX  13084 06673 43/// /1301 10053 20047 39637 40225 5////;
0087066730999992011011309004+47217+008683FM-12+046399999V0201501N003119999999N9999999N1+00641+00531102211ADDMA1999999096361REMSYN060AAXX  13094 06673 43/// /1506 10064 20053 39636 40221 5////;
0087066730999992011011310004+47217+008683FM-12+046399999V0201601N002619999999N9999999N1+00741+00621102251ADDMA1999999096421REMSYN060AAXX  13104 06673 43/// /1605 10074 20062 39642 40225 5////;
0087066730999992011011311004+47217+008683FM-12+046399999V0202101N000519999999N9999999N1+00851+00731102241ADDMA1999999096431REMSYN060AAXX  13114 06673 43/// /2101 10085 20073 39643 40224 5////;
0087066730999992011011312004+47217+008683FM-12+046399999V0200901N000519999999N9999999N1+00731+00671102201ADDMA1999999096371REMSYN060AAXX  13124 06673 43/// /0901 10073 20067 39637 40220 5////;
0087066730999992011011313004+47217+008683FM-12+046399999V0201501N000519999999N9999999N1+00911+00791102111ADDMA1999999096321REMSYN060AAXX  13134 06673 43/// /1501 10091 20079 39632 40211 5////;
0087066730999992011011314004+47217+008683FM-12+046399999V0202601N002619999999N9999999N1+01171+00721102061ADDMA1999999096331REMSYN060AAXX  13144 06673 43/// /2605 10117 20072 39633 40206 5////;
0087066730999992011011315004+47217+008683FM-12+046399999V0202601N001519999999N9999999N1+01141+00711102091ADDMA1999999096351REMSYN060AAXX  13154 06673 43/// /2603 10114 20071 39635 40209 5////;
0087066730999992011011316004+47217+008683FM-12+046399999V0202901N000519999999N9999999N1+00941+00761102141ADDMA1999999096351REMSYN060AAXX  13164 06673 43/// /2901 10094 20076 39635 40214 5////;
0140066730999992011011317004+47217+008683FM-12+046399999V0202501N002119999999N9999999N1+01121+00601102061ADDMA1999999096321MD1810011+9999OA149900511REMSYN088AAXX  13174 06673 33/// /2504 10112 20060 39632 40206 58001 333 55300 20000 91110 91204;
0182066730999992011011318004+47217+008683FM-12+046399999V0202201N001519999999N9999999N1+00991+00681102151ADDAA112003091KA1120M+01191MA1999999096371MD1310021+9999OA149900511REMSYN106AAXX  13184 06673 03/// /2203 10099 20068 39637 40215 53002 60032 333 10119 55300 20000 60005 91110 91206;
0146066730999992011011319004+47217+008683FM-12+046399999V0202401N003119999999N9999999N1+01041+00741102161ADDMA1999999096391MD1210041+9999OA149900771REMSYN094AAXX  13194 06673 23/// /2406 10104 20074 39639 40216 52004 333 55300 20000 69925 91115 91208;
0140066730999992011011320004+47217+008683FM-12+046399999V0202301N003619999999N9999999N1+01051+00711102151ADDMA1999999096391MD1210071+9999OA149900771REMSYN088AAXX  13204 06673 33/// /2307 10105 20071 39639 40215 52007 333 55300 20000 91115 91208;
0140066730999992011011321004+47217+008683FM-12+046399999V0202301N001519999999N9999999N1+00971+00711102171ADDMA1999999096391MD1010021+9999OA149900771REMSYN088AAXX  13214 06673 33/// /2303 10097 20071 39639 40217 50002 333 55300 20000 91115 91208;
0140066730999992011011322004+47217+008683FM-12+046399999V0201601N001019999999N9999999N1+00861+00731102221ADDMA1999999096411MD1210021+9999OA149900461REMSYN088AAXX  13224 06673 33/// /1602 10086 20073 39641 40222 52002 333 55300 20000 91109 91204;
0140066730999992011011323004+47217+008683FM-12+046399999V0202401N001519999999N9999999N1+00941+00731102201ADDMA1999999096411MD1210021+9999OA149900411REMSYN088AAXX  13234 06673 33/// /2403 10094 20073 39641 40220 52002 333 55300 20000 91108 91204;
0182066730999992011011400004+47217+008683FM-12+046399999V0202701N001519999999N9999999N1+00861+00711102221ADDAA106000091MA1999999096411MD1010021+9999OA149900771REMSYN100AAXX  14004 06673 03/// /2703 10086 20071 39641 40222 50002 69921 333 55300 20000 60005 91115 91208;EQDQ01  00002PRCP06
0140066730999992011011401004+47217+008683FM-12+046399999V0202601N001019999999N9999999N1+01001+00661102211ADDMA1999999096431MD1210021+9999OA149900411REMSYN088AAXX  14014 06673 33/// /2602 10100 20066 39643 40221 52002 333 55300 20000 91108 91205;
0103066730999992011011402004+47217+008683FM-12+046399999V0201201N001019999999N9999999N1+00831+00711102271ADDMA1999999096451REMSYN076AAXX  14024 06673 33/// /1202 10083 20071 39645 40227 5//// 333 553// 20000;
0140066730999992011011403004+47217+008683FM-12+046399999V0201301N001019999999N9999999N1+00831+00691102291ADDMA1999999096471MD1210061+9999OA149900411REMSYN088AAXX  14034 06673 33/// /1302 10083 20069 39647 40229 52006 333 55300 20000 91108 91205;
0140066730999992011011404004+47217+008683FM-12+046399999V0201901N000519999999N9999999N1+00811+00681102281ADDMA1999999096461MD1210031+9999OA149900361REMSYN088AAXX  14044 06673 33/// /1901 10081 20068 39646 40228 52003 333 55300 20000 91107 91203;
0140066730999992011011405004+47217+008683FM-12+046399999V0201101N000519999999N9999999N1+00781+00681102271ADDMA1999999096441MD1810011+9999OA149900211REMSYN088AAXX  14054 06673 33/// /1101 10078 20068 39644 40227 58001 333 55300 20000 91104 91202;
0249066730999992011011406004+47217+008683FM-12+046399999V0202601N001519999999N9999999N1+00981+00591102241ADDAA112000091AL14800391GJ100429IA2999+00709KA1999N+00781MA1999999096461MD1510011+9999OA149900771REMSYN124AAXX  14064 06673 03/// /2603 10098 20059 39646 40224 55001 69922 333 20078 3/007 55007 55300 20000 60005 70038 91115 91208;EQDQ01  00002PRCP12
0140066730999992011011407004+47217+008683FM-12+046399999V0202501N001519999999N9999999N1+00981+00571102271ADDMA1999999096491MD1210031+9999OA149900461REMSYN088AAXX  14074 06673 33/// /2503 10098 20057 39649 40227 52003 333 55300 20000 91109 91205;
0087066730999992011011408004+47217+008683FM-12+046399999V0202501N001519999999N9999999N1+00931+00581102281ADDMA1999999096481REMSYN060AAXX  14084 06673 43/// /2503 10093 20058 39648 40228 5////;
0087066730999992011011409004+47217+008683FM-12+046399999V0202501N001019999999N9999999N1+00961+00621102261ADDMA1999999096471REMSYN060AAXX  14094 06673 43/// /2502 10096 20062 39647 40226 5////;
0087066730999992011011410004+47217+008683FM-12+046399999V0200101N000519999999N9999999N1+00841+00701102261ADDMA1999999096451REMSYN060AAXX  14104 06673 43/// /0101 10084 20070 39645 40226 5////;
0140066730999992011011411004+47217+008683FM-12+046399999V0203201N000519999999N9999999N1+00951+00731102221ADDMA1999999096431MD1710051+9999OA149900151REMSYN088AAXX  14114 06673 33/// /3201 10095 20073 39643 40222 57005 333 55300 20468 91103 91201;
0182066730999992011011412004+47217+008683FM-12+046399999V0203101N001019999999N9999999N1+01071+00591102141ADDAA106000091MA1999999096381MD1710091+9999OA149900461REMSYN100AAXX  14124 06673 03/// /3102 10107 20059 39638 40214 57009 69911 333 55300 20569 60005 91109 91205;EQDQ01  00002PRCP06
0140066730999992011011413004+47217+008683FM-12+046399999V0203401N000519999999N9999999N1+01021+00541102101ADDMA1999999096331MD1810121+9999OA149900361REMSYN088AAXX  14134 06673 33/// /3401 10102 20054 39633 40210 58012 333 55300 20497 91107 91203;
0103066730999992011011414004+47217+008683FM-12+046399999V0200201N000519999999N9999999N1+01021+00531102101ADDMA1999999096331REMSYN076AAXX  14144 06673 33/// /0201 10102 20053 39633 40210 5//// 333 553// 20374;
0140066730999992011011415004+47217+008683FM-12+046399999V0209999C000019999999N9999999N1+01011+00541102101ADDMA1999999096331MD1710051+9999OA149900361REMSYN088AAXX  14154 06673 33/// /0000 10101 20054 39633 40210 57005 333 55300 20180 91107 91203;
0140066730999992011011416004+47217+008683FM-12+046399999V0202101N000519999999N9999999N1+00961+00511102071ADDMA1999999096291MD1710041+9999OA149900261REMSYN088AAXX  14164 06673 33/// /2101 10096 20051 39629 40207 57004 333 55300 20061 91105 91202;
0140066730999992011011417004+47217+008683FM-12+046399999V0201801N001019999999N9999999N1+00831+00481102061ADDMA1999999096261MD1710071+9999OA149900261REMSYN088AAXX  14174 06673 33/// /1802 10083 20048 39626 40206 57007 333 55300 20000 91105 91203;
0201066730999992011011418004+47217+008683FM-12+046399999V0202501N001519999999N9999999N1+00691+00421102041ADDAA112000091KA1120M+01081MA1999999096211MD1810121+9999OA149900461REMSYN106AAXX  14184 06673 03/// /2503 10069 20042 39621 40204 58012 69912 333 10108 55300 20000 60005 91109 91205;EQDQ01  00002PRCP12
0140066730999992011011419004+47217+008683FM-12+046399999V0202201N003119999999N9999999N1+00671+00381102041ADDMA1999999096201MD1710091+9999OA149900361REMSYN088AAXX  14194 06673 33/// /2206 10067 20038 39620 40204 57009 333 55300 20000 91107 91206;
0140066730999992011011420004+47217+008683FM-12+046399999V0202301N003119999999N9999999N1+00641+00371102061ADDMA1999999096221MD1710041+9999OA149900411REMSYN088AAXX  14204 06673 33/// /2306 10064 20037 39622 40206 57004 333 55300 20000 91108 91206;
0140066730999992011011421004+47217+008683FM-12+046399999V0202301N001519999999N9999999N1+00571+00341102151ADDMA1999999096291MD1210081+9999OA149900411REMSYN088AAXX  14214 06673 33/// /2303 10057 20034 39629 40215 52008 333 55300 20000 91108 91206;
0140066730999992011011422004+47217+008683FM-12+046399999V0209999C000019999999N9999999N1+00631+00381102251ADDMA1999999096391MD1210191+9999OA149900361REMSYN088AAXX  14224 06673 33/// /0000 10063 20038 39639 40225 52019 333 55300 20000 91107 91206;
0140066730999992011011423004+47217+008683FM-12+046399999V0202401N001519999999N9999999N1+00741+00391102291ADDMA1999999096451MD1210231+9999OA149900361REMSYN088AAXX  14234 06673 33/// /2403 10074 20039 39645 40229 52023 333 55300 20000 91107 91203;
0140066730999992011011500004+47217+008683FM-12+046399999V0202801N001519999999N9999999N1+00881+00381102291ADDMA1999999096481MD1210191+9999OA149900461REMSYN088AAXX  15004 06673 33/// /2803 10088 20038 39648 40229 52019 333 55300 20000 91109 91206;
0140066730999992011011501004+47217+008683FM-12+046399999V0202601N003119999999N9999999N1+00931+00341102301ADDMA1999999096501MD1210111+9999OA149900721REMSYN088AAXX  15014 06673 33/// /2606 10093 20034 39650 40230 52011 333 55300 20000 91114 91206;
0146066730999992011011502004+47217+008683FM-12+046399999V0202501N006219999999N9999999N1+00751+00501102481ADDMA1999999096641MD1219999+9999OA149901241REMSYN094AAXX  15024 06673 23/// /2512 10075 20050 39664 40248 52/// 333 55300 20000 60035 91124 91214;
0109066730999992011011503004+47217+008683FM-12+046399999V0202501N003619999999N9999999N1+00761+00561102561ADDMA1999999096711REMSYN082AAXX  15034 06673 23/// /2507 10076 20056 39671 40256 5//// 333 553// 20000 69995;
0146066730999992011011504004+47217+008683FM-12+046399999V0202701N003619999999N9999999N1+00801+00521102611ADDMA1999999096771MD1210271+9999OA149900931REMSYN094AAXX  15044 06673 23/// /2707 10080 20052 39677 40261 52027 333 55300 20000 69945 91118 91210;
0140066730999992011011505004+47217+008683FM-12+046399999V0202701N002119999999N9999999N1+00751+00501102751ADDMA1999999096891MD1310251+9999OA149900721REMSYN088AAXX  15054 06673 33/// /2704 10075 20050 39689 40275 53025 333 55300 20000 91114 91208;
0230066730999992011011506004+47217+008683FM-12+046399999V0202301N001519999999N9999999N1+00741+00481102851ADDAA112004191AL14800391GJ100009IA2999+00209KA1999N+00521MA1999999096981MD1310271+9999OA149901241REMSYN124AAXX  15064 06673 03/// /2303 10074 20048 39698 40285 53027 60042 333 20052 3/002 55000 55300 20000 60005 70039 91124 91214;
0140066730999992011011507004+47217+008683FM-12+046399999V0202301N002619999999N9999999N1+00671+00341102921ADDMA1999999097031MD1110261+9999OA149900571REMSYN088AAXX  15074 06673 33/// /2305 10067 20034 39703 40292 51026 333 55300 20000 91111 91207;
0140066730999992011011508004+47217+008683FM-12+046399999V0201701N001519999999N9999999N1+00641+00421102931ADDMA1999999097041MD1219999+9999OA149900511REMSYN088AAXX  15084 06673 33/// /1703 10064 20042 39704 40293 52/// 333 55300 20043 91110 91206;
0140066730999992011011509004+47217+008683FM-12+046399999V0200601N001019999999N9999999N1+00751+00541102951ADDMA1999999097081MD1210101+9999OA149900721REMSYN088AAXX  15094 06673 33/// /0602 10075 20054 39708 40295 52010 333 55306 20536 91114 91208;
0140066730999992011011510004+47217+008683FM-12+046399999V0200201N000519999999N9999999N1+00801+00571102961ADDMA1999999097101MD1210071+9999OA149900261REMSYN088AAXX  15104 06673 33/// /0201 10080 20057 39710 40296 52007 333 55309 20842 91105 91203;
0140066730999992011011511004+47217+008683FM-12+046399999V0203601N000519999999N9999999N1+00811+00511102881ADDMA1999999097031MD1810011+9999OA149900261REMSYN088AAXX  15114 06673 33/// /3601 10081 20051 39703 40288 58001 333 55301 20558 91105 91203;
0140066730999992011011512004+47217+008683FM-12+046399999V0201301N001019999999N9999999N1+00821+00411102871ADDMA1999999097021MD1710061+9999OA149901241REMSYN088AAXX  15124 06673 33/// /1302 10082 20041 39702 40287 57006 333 55303 20670 91124 91214;
0103066730999992011011513004+47217+008683FM-12+046399999V0200901N001519999999N9999999N1+00911+00431102821ADDMA1999999096991REMSYN076AAXX  15134 06673 33/// /0903 10091 20043 39699 40282 5//// 333 553// 20914;
0087066730999992011011514004+47217+008683FM-12+046399999V0201401N001019999999N9999999N1+00881+00421102871ADDMA1999999097031REMSYN060AAXX  15144 06673 43/// /1402 10088 20042 39703 40287 5////;
0087066730999992011011515004+47217+008683FM-12+046399999V0201001N001019999999N9999999N1+00881+00431102871ADDMA1999999097031REMSYN060AAXX  15154 06673 43/// /1002 10088 20043 39703 40287 5////;
0087066730999992011011516004+47217+008683FM-12+046399999V0201501N001019999999N9999999N1+00761+00441102941ADDMA1999999097071REMSYN060AAXX  15164 06673 43/// /1502 10076 20044 39707 40294 5////;
0103066730999992011011517004+47217+008683FM-12+046399999V0201701N002119999999N9999999N1+00681+00361102931ADDMA1999999097051REMSYN076AAXX  15174 06673 33/// /1704 10068 20036 39705 40293 5//// 333 553// 20004;
0110066730999992011011518004+47217+008683FM-12+046399999V0202001N000519999999N9999999N1+00521+00311102971ADDKA1999M+00961MA1999999097051REMSYN070AAXX  15184 06673 43/// /2001 10052 20031 39705 40297 5//// 333 10096;
0087066730999992011011519004+47217+008683FM-12+046399999V0202301N000519999999N9999999N1+00511+00261103001ADDMA1999999097081REMSYN060AAXX  15194 06673 43/// /2301 10051 20026 39708 40300 5////;
0087066730999992011011520004+47217+008683FM-12+046399999V0202401N001019999999N9999999N1+00461+00241103011ADDMA1999999097071REMSYN060AAXX  15204 06673 43/// /2402 10046 20024 39707 40301 5////;
0140066730999992011011521004+47217+008683FM-12+046399999V0202001N002119999999N9999999N1+00471+00251103021ADDMA1999999097091MD1210041+9999OA149900311REMSYN088AAXX  15214 06673 33/// /2004 10047 20025 39709 40302 52004 333 55300 20000 91106 91205;
0140066730999992011011522004+47217+008683FM-12+046399999V0201301N001019999999N9999999N1+00421+00131103051ADDMA1999999097101MD1210021+9999OA149900361REMSYN088AAXX  15224 06673 33/// /1302 10042 20013 39710 40305 52002 333 55300 20000 91107 91205;
0140066730999992011011523004+47217+008683FM-12+046399999V0201501N002119999999N9999999N1+00451-00041103031ADDMA1999999097091MD1210021+9999OA149900411REMSYN088AAXX  15234 06673 33/// /1504 10045 21004 39709 40303 52002 333 55300 20000 91108 91206;
0140066730999992011011600004+47217+008683FM-12+046399999V0201101N000519999999N9999999N1+00281+00001102991ADDMA1999999097021MD1810071+9999OA149900411REMSYN088AAXX  16004 06673 33/// /1101 10028 20000 39702 40299 58007 333 55300 20000 91108 91206;
0140066730999992011011601004+47217+008683FM-12+046399999V0201501N000519999999N9999999N1+00371-00151102951ADDMA1999999097001MD1710101+9999OA149900411REMSYN088AAXX  16014 06673 33/// /1501 10037 21015 39700 40295 57010 333 55300 20000 91108 91206;
0140066730999992011011602004+47217+008683FM-12+046399999V0202901N001019999999N9999999N1+00321-00071102961ADDMA1999999097001MD1619999+9999OA149900411REMSYN088AAXX  16024 06673 33/// /2902 10032 21007 39700 40296 56/// 333 55300 20000 91108 91206;
0087066730999992011011603004+47217+008683FM-12+046399999V0202001N001019999999N9999999N1+00081-00091103011ADDMA1999999096991REMSYN060AAXX  16034 06673 43/// /2002 10008 21009 39699 40301 5////;
0140066730999992011011604004+47217+008683FM-12+046399999V0202301N000519999999N9999999N1+00221-00181102961ADDMA1999999096981MD1710021+9999OA149900211REMSYN088AAXX  16044 06673 33/// /2301 10022 21018 39698 40296 57002 333 55300 20000 91104 91202;
0140066730999992011011605004+47217+008683FM-12+046399999V0201101N000519999999N9999999N1+00191-00111102971ADDMA1999999096981MD1710021+9999OA149900101REMSYN088AAXX  16054 06673 33/// /1101 10019 21011 39698 40297 57002 333 55300 20000 91102 91202;
0207066730999992011011606004+47217+008683FM-12+046399999V0202801N000519999999N9999999N1+00191-00101103011ADDAL19900091GJ102349IA2999-00209KA1999N+00081MA1999999097021MD1310031+9999OA149900411REMSYN112AAXX  16064 06673 33/// /2801 10019 21010 39702 40301 53003 333 20008 3/102 55039 55300 20000 70000 91108 91206;
0140066730999992011011607004+47217+008683FM-12+046399999V0202401N000519999999N9999999N1+00201-00011103051ADDMA1999999097061MD1210081+9999OA149900211REMSYN088AAXX  16074 06673 33/// /2401 10020 21001 39706 40305 52008 333 55300 20000 91104 91202;
0140066730999992011011608004+47217+008683FM-12+046399999V0200801N000519999999N9999999N1+00191-00051103131ADDMA1999999097131MD1319999+9999OA149900211REMSYN088AAXX  16084 06673 33/// /0801 10019 21005 39713 40313 53/// 333 55301 20065 91104 91202;
0140066730999992011011609004+47217+008683FM-12+046399999V0201001N001019999999N9999999N1+00271+00141103101ADDMA1999999097121MD1210101+9999OA149900261REMSYN088AAXX  16094 06673 33/// /1002 10027 20014 39712 40310 52010 333 553// 20522 91105 91203;
0140066730999992011011610004+47217+008683FM-12+046399999V0201301N001019999999N9999999N1+00501+00061103051ADDMA1999999097121MD1210061+9999OA149900261REMSYN088AAXX  16104 06673 33/// /1302 10050 20006 39712 40305 52006 333 553// 20972 91105 91203;
0140066730999992011011611004+47217+008683FM-12+046399999V0200201N000519999999N9999999N1+00601+00051102981ADDMA1999999097081MD1710051+9999OA149900261REMSYN088AAXX  16114 06673 33/// /0201 10060 20005 39708 40298 57005 333 553// 2//// 91105 91202;
0140066730999992011011612004+47217+008683FM-12+046399999V0200801N000519999999N9999999N1+00781+00161102891ADDMA1999999097031MD1710091+9999OA149900411REMSYN088AAXX  16124 06673 33/// /0801 10078 20016 39703 40289 57009 333 553// 2//// 91108 91206;
0140066730999992011011613004+47217+008683FM-12+046399999V0200901N001019999999N9999999N1+00811+00191102821ADDMA1999999096971MD1810151+9999OA149900151REMSYN088AAXX  16134 06673 33/// /0902 10081 20019 39697 40282 58015 333 553// 2//// 91103 91202;
0140066730999992011011614004+47217+008683FM-12+046399999V0200401N000519999999N9999999N1+00871+00251102771ADDMA1999999096931MD1619999+9999OA149900151REMSYN088AAXX  16144 06673 33/// /0401 10087 20025 39693 40277 56/// 333 553// 2//// 91103 91202;
0140066730999992011011615004+47217+008683FM-12+046399999V0209999C000019999999N9999999N1+00881+00171102741ADDMA1999999096911MD1610121+9999OA149900261REMSYN088AAXX  16154 06673 33/// /0000 10088 20017 39691 40274 56012 333 553// 20655 91105 91202;
0140066730999992011011616004+47217+008683FM-12+046399999V0209999C000019999999N9999999N1+00651+00121102781ADDMA1999999096901MD1810071+9999OA149900101REMSYN088AAXX  16164 06673 33/// /0000 10065 20012 39690 40278 58007 333 55302 20112 91102 91201;
0140066730999992011011617004+47217+008683FM-12+046399999V0202801N000519999999N9999999N1+00591+00101102841ADDMA1999999096941MD1310011+9999OA149900151REMSYN088AAXX  16174 06673 33/// /2801 10059 20010 39694 40284 53001 333 55300 20000 91103 91202;
0159066730999992011011618004+47217+008683FM-12+046399999V0201501N001019999999N9999999N1+00491+00111102881ADDKA1120M+00911MA1999999096961MD1210051+9999OA149900261REMSYN094AAXX  16184 06673 33/// /1502 10049 20011 39696 40288 52005 333 10091 55300 20000 91105 91203;
0140066730999992011011619004+47217+008683FM-12+046399999V0201601N001519999999N9999999N1+00401+00061102891ADDMA1999999096951MD1210051+9999OA149900261REMSYN088AAXX  16194 06673 33/// /1603 10040 20006 39695 40289 52005 333 55300 20000 91105 91204;
0140066730999992011011620004+47217+008683FM-12+046399999V0209999C000019999999N9999999N1+00381+00031102931ADDMA1999999096981MD1210041+9999OA149900261REMSYN088AAXX  16204 06673 33/// /0000 10038 20003 39698 40293 52004 333 55300 20000 91105 91204;
0140066730999992011011621004+47217+008683FM-12+046399999V0203001N000519999999N9999999N1+00361-00031102941ADDMA1999999096991MD1210031+9999OA149900261REMSYN088AAXX  16214 06673 33/// /3001 10036 21003 39699 40294 52003 333 55300 20000 91105 91204;
0140066730999992011011622004+47217+008683FM-12+046399999V0209999C000019999999N9999999N1+00261-00011102971ADDMA1999999096991MD1210041+9999OA149900261REMSYN088AAXX  16224 06673 33/// /0000 10026 21001 39699 40297 52004 333 55300 20000 91105 91203;
0140066730999992011011623004+47217+008683FM-12+046399999V0202401N000519999999N9999999N1+00151-00051103011ADDMA1999999097011MD1210031+9999OA149900151REMSYN088AAXX  16234 06673 33/// /2401 10015 21005 39701 40301 52003 333 55300 20000 91103 91202;
0140066730999992011011700004+47217+008683FM-12+046399999V0201001N001019999999N9999999N1+00161-00131103001ADDMA1999999097001MD1010011+9999OA149900261REMSYN088AAXX  17004 06673 33/// /1002 10016 21013 39700 40300 50001 333 55300 20000 91105 91204;
0140066730999992011011701004+47217+008683FM-12+046399999V0209999C000019999999N9999999N1+00031-00071103031ADDMA1999999097001MD1010011+9999OA149900211REMSYN088AAXX  17014 06673 33/// /0000 10003 21007 39700 40303 50001 333 55300 20000 91104 91202;
0140066730999992011011702004+47217+008683FM-12+046399999V0201501N000519999999N9999999N1+00141-00081102971ADDMA1999999096971MD1819999+9999OA149900151REMSYN088AAXX  17024 06673 33/// /1501 10014 21008 39697 40297 58/// 333 55300 20000 91103 91202;
0103066730999992011011703004+47217+008683FM-12+046399999V0209999C000019999999N9999999N1+00161-00041102961ADDMA1999999096961REMSYN076AAXX  17034 06673 33/// /0000 10016 21004 39696 40296 5//// 333 553// 20000;
0140066730999992011011704004+47217+008683FM-12+046399999V0200301N000519999999N9999999N1+00121-00021102961ADDMA1999999096951MD1710051+9999OA149900101REMSYN088AAXX  17044 06673 33/// /0301 10012 21002 39695 40296 57005 333 55300 20000 91102 91201;
0140066730999992011011705004+47217+008683FM-12+046399999V0202901N000519999999N9999999N1+00141+00081102911ADDMA1999999096911MD1710061+9999OA149900101REMSYN088AAXX  17054 06673 33/// /2901 10014 20008 39691 40291 57006 333 55300 20000 91102 91201;
0207066730999992011011706004+47217+008683FM-12+046399999V0209999C000019999999N9999999N1+00091-00081102901ADDAL19900091GJ104449IA2999-00409KA1999N+00031MA1999999096891MD1710071+9999OA149900261REMSYN112AAXX  17064 06673 33/// /0000 10009 21008 39689 40290 57007 333 20003 3/104 55074 55300 20000 70000 91105 91204;
0140066730999992011011707004+47217+008683FM-12+046399999V0203301N000519999999N9999999N1+00001-00061102931ADDMA1999999096901MD1710051+9999OA149900151REMSYN088AAXX  17074 06673 33/// /3301 10000 21006 39690 40293 57005 333 55300 20000 91103 91202;
0087066730999992011011708004+47217+008683FM-12+046399999V0202801N001519999999N9999999N1+00011-00021102911ADDMA1999999096881REMSYN060AAXX  17084 06673 43/// /2803 10001 21002 39688 40291 5////;
0087066730999992011011709004+47217+008683FM-12+046399999V0203301N000519999999N9999999N1+00041+00041102881ADDMA1999999096861REMSYN060AAXX  17094 06673 43/// /3301 10004 20004 39686 40288 5////;
0140066730999992011011710004+47217+008683FM-12+046399999V0209999C000019999999N9999999N1+00231+00091102861ADDMA1999999096881MD1510021+9999OA149900211REMSYN088AAXX  17104 06673 33/// /0000 10023 20009 39688 40286 55002 333 55304 20702 91104 91203;
0140066730999992011011711004+47217+008683FM-12+046399999V0200601N000519999999N9999999N1+00361+00171102841ADDMA1999999096891MD1210011+9999OA149900151REMSYN088AAXX  17114 06673 33/// /0601 10036 20017 39689 40284 52001 333 553// 2//// 91103 91202;
0140066730999992011011712004+47217+008683FM-12+046399999V0200801N001019999999N9999999N1+00541+00191102781ADDMA1999999096871MD1010011+9999OA149900211REMSYN088AAXX  17124 06673 33/// /0802 10054 20019 39687 40278 50001 333 553// 2//// 91104 91203;
0140066730999992011011713004+47217+008683FM-12+046399999V0200901N001019999999N9999999N1+00521+00191102791ADDMA1999999096881MD1010001+9999OA149900211REMSYN088AAXX  17134 06673 33/// /0902 10052 20019 39688 40279 50000 333 553// 2//// 91104 91203;
0087066730999992011011714004+47217+008683FM-12+046399999V0200701N000519999999N9999999N1+00541+00271102761ADDMA1999999096861REMSYN060AAXX  17144 06673 43/// /0701 10054 20027 39686 40276 5////;
0087066730999992011011715004+47217+008683FM-12+046399999V0201601N001019999999N9999999N1+00651+00121102781ADDMA1999999096901REMSYN060AAXX  17154 06673 43/// /1602 10065 20012 39690 40278 5////;
0140066730999992011011716004+47217+008683FM-12+046399999V0202101N001519999999N9999999N1+00571+00151102831ADDMA1999999096931MD1210051+9999OA149900211REMSYN088AAXX  17164 06673 33/// /2103 10057 20015 39693 40283 52005 333 55302 20115 91104 91203;
0140066730999992011011717004+47217+008683FM-12+046399999V0203101N000519999999N9999999N1+00471+00141102891ADDMA1999999096961MD1310101+9999OA149900361REMSYN088AAXX  17174 06673 33/// /3101 10047 20014 39696 40289 53010 333 55300 20000 91107 91206;
0159066730999992011011718004+47217+008683FM-12+046399999V0202101N001019999999N9999999N1+00421+00121102931ADDKA1120M+00671MA1999999096991MD1310091+9999OA149900361REMSYN094AAXX  17184 06673 33/// /2102 10042 20012 39699 40293 53009 333 10067 55300 20000 91107 91206;
0140066730999992011011719004+47217+008683FM-12+046399999V0201401N000519999999N9999999N1+00361+00071102941ADDMA1999999096991MD1210061+9999OA149900311REMSYN088AAXX  17194 06673 33/// /1401 10036 20007 39699 40294 52006 333 55300 20000 91106 91205;
0140066730999992011011720004+47217+008683FM-12+046399999V0202801N001019999999N9999999N1+00351+00031102971ADDMA1999999097011MD1210051+9999OA149900311REMSYN088AAXX  17204 06673 33/// /2802 10035 20003 39701 40297 52005 333 55300 20000 91106 91204;
0140066730999992011011721004+47217+008683FM-12+046399999V0203201N001019999999N9999999N1+00381+00021102951ADDMA1999999097001MD1510011+9999OA149900361REMSYN088AAXX  17214 06673 33/// /3202 10038 20002 39700 40295 55001 333 55300 20000 91107 91206;
0140066730999992011011722004+47217+008683FM-12+046399999V0209999C000019999999N9999999N1+00311+00001102951ADDMA1999999096991MD1010001+9999OA149900361REMSYN088AAXX  17224 06673 33/// /0000 10031 20000 39699 40295 50000 333 55300 20000 91107 91205;
0140066730999992011011723004+47217+008683FM-12+046399999V0201701N001019999999N9999999N1+00311-00031102951ADDMA1999999096991MD1710021+9999OA149900211REMSYN088AAXX  17234 06673 33/// /1702 10031 21003 39699 40295 57002 333 55300 20000 91104 91202;
0140066730999992011011800004+47217+008683FM-12+046399999V0201401N000519999999N9999999N1+00341-00021102941ADDMA1999999096981MD1810021+9999OA149900361REMSYN088AAXX  18004 06673 33/// /1401 10034 21002 39698 40294 58002 333 55300 20000 91107 91206;
0140066730999992011011801004+47217+008683FM-12+046399999V0202601N001519999999N9999999N1+00281+00061102971ADDMA1999999097001MD1219999+9999OA149900261REMSYN088AAXX  18014 06673 33/// /2603 10028 20006 39700 40297 52/// 333 55300 20000 91105 91204;
0087066730999992011011802004+47217+008683FM-12+046399999V0201301N000519999999N9999999N1+00221+00001103011ADDMA1999999097021REMSYN060AAXX  18024 06673 43/// /1301 10022 20000 39702 40301 5////;
0087066730999992011011803004+47217+008683FM-12+046399999V0201201N001019999999N9999999N1+00211-00051102971ADDMA1999999096981REMSYN060AAXX  18034 06673 43/// /1202 10021 21005 39698 40297 5////;
0103066730999992011011804004+47217+008683FM-12+046399999V0201301N001019999999N9999999N1+00161-00111102931ADDMA1999999096931REMSYN076AAXX  18044 06673 33/// /1302 10016 21011 39693 40293 5//// 333 553// 20000;
0140066730999992011011805004+47217+008683FM-12+046399999V0203001N001019999999N9999999N1+00091-00131102891ADDMA1999999096881MD1810141+9999OA149900311REMSYN088AAXX  18054 06673 33/// /3002 10009 21013 39688 40289 58014 333 55300 20000 91106 91204;
0207066730999992011011806004+47217+008683FM-12+046399999V0203001N001519999999N9999999N1+00201-00071102921ADDAL19900091GJ103549IA2999-00309KA1999N+00011MA1999999096931MD1510051+9999OA149900361REMSYN112AAXX  18064 06673 33/// /3003 10020 21007 39693 40292 55005 333 20001 3/103 55059 55300 20000 70000 91107 91205;
0140066730999992011011807004+47217+008683FM-12+046399999V0209999C000019999999N9999999N1+00111-00111102971ADDMA1999999096961MD1310031+9999OA149900261REMSYN088AAXX  18074 06673 33/// /0000 10011 21011 39696 40297 53003 333 55300 20000 91105 91203;
0087066730999992011011808004+47217+008683FM-12+046399999V0201001N000519999999N9999999N1+00231+00051102971ADDMA1999999096991REMSYN060AAXX  18084 06673 43/// /1001 10023 20005 39699 40297 5////;
0087066730999992011011809004+47217+008683FM-12+046399999V0201201N001519999999N9999999N1+00231+00071102941ADDMA1999999096961REMSYN060AAXX  18094 06673 43/// /1203 10023 20007 39696 40294 5////;
0140066730999992011011810004+47217+008683FM-12+046399999V0209999C000019999999N9999999N1+00351+00121102871ADDMA1999999096921MD1810041+9999OA149900361REMSYN088AAXX  18104 06673 33/// /0000 10035 20012 39692 40287 58004 333 55300 20508 91107 91203;
0140066730999992011011811004+47217+008683FM-12+046399999V0200101N000519999999N9999999N1+00441+00141102791ADDMA1999999096861MD1710131+9999OA149900261REMSYN088AAXX  18114 06673 33/// /0101 10044 20014 39686 40279 57013 333 55303 20911 91105 91203;
0140066730999992011011812004+47217+008683FM-12+046399999V0203201N000519999999N9999999N1+00601+00061102701ADDMA1999999096811MD1819999+9999OA149900361REMSYN088AAXX  18124 06673 33/// /3201 10060 20006 39681 40270 58/// 333 55303 20990 91107 91204;
0103066730999992011011813004+47217+008683FM-12+046399999V0203301N000519999999N9999999N1+00561+00171102661ADDMA1999999096771REMSYN076AAXX  18134 06673 33/// /3301 10056 20017 39677 40266 5//// 333 553// 20778;
0087066730999992011011814004+47217+008683FM-12+046399999V0209999C000019999999N9999999N1+00571+00141102631ADDMA1999999096741REMSYN060AAXX  18144 06673 43/// /0000 10057 20014 39674 40263 5////;
0087066730999992011011815004+47217+008683FM-12+046399999V0209999C000019999999N9999999N1+00681+00121102631ADDMA1999999096761REMSYN060AAXX  18154 06673 43/// /0000 10068 20012 39676 40263 5////;
0140066730999992011011816004+47217+008683FM-12+046399999V0202101N001519999999N9999999N1+00701+00091102651ADDMA1999999096791MD1310021+9999OA149900261REMSYN088AAXX  18164 06673 33/// /2103 10070 20009 39679 40265 53002 333 55300 20050 91105 91203;
0140066730999992011011817004+47217+008683FM-12+046399999V0203101N001019999999N9999999N1+00591+00191102721ADDMA1999999096831MD1210091+9999OA149900211REMSYN088AAXX  18174 06673 33/// /3102 10059 20019 39683 40272 52009 333 55300 20000 91104 91203;
0159066730999992011011818004+47217+008683FM-12+046399999V0202501N001519999999N9999999N1+00631+00161102761ADDKA1120M+00701MA1999999096871MD1210111+9999OA149900361REMSYN094AAXX  18184 06673 33/// /2503 10063 20016 39687 40276 52011 333 10070 55300 20000 91107 91203;
0140066730999992011011819004+47217+008683FM-12+046399999V0201901N001019999999N9999999N1+00601+00151102751ADDMA1999999096861MD1210071+9999OA149900261REMSYN088AAXX  18194 06673 33/// /1902 10060 20015 39686 40275 52007 333 55300 20000 91105 91203;
0140066730999992011011820004+47217+008683FM-12+046399999V0202001N001519999999N9999999N1+00621+00181102741ADDMA1999999096851MD1010021+9999OA149900261REMSYN088AAXX  18204 06673 33/// /2003 10062 20018 39685 40274 50002 333 55300 20000 91105 91203;
0140066730999992011011821004+47217+008683FM-12+046399999V0201801N001019999999N9999999N1+00581+00241102751ADDMA1999999096851MD1710021+9999OA149900261REMSYN088AAXX  18214 06673 33/// /1802 10058 20024 39685 40275 57002 333 55300 20000 91105 91203;
0140066730999992011011822004+47217+008683FM-12+046399999V0202301N001519999999N9999999N1+00611+00261102751ADDMA1999999096861MD1010001+9999OA149900261REMSYN088AAXX  18224 06673 33/// /2303 10061 20026 39686 40275 50000 333 55300 20000 91105 91203;
0140066730999992011011823004+47217+008683FM-12+046399999V0202601N000519999999N9999999N1+00581+00241102771ADDMA1999999096871MD1210021+9999OA149900261REMSYN088AAXX  18234 06673 33/// /2601 10058 20024 39687 40277 52002 333 55300 20000 91105 91203;
