0176066720999992010010100004+46867+008633FM-12+045199999V0203101N000512200019N0180001N1+00141+00031099361ADDGA1011+021001061GF101991999999022501999999MA1999999094111MD1710151+9999OA149900511REMSYN082AAXX  01004 06672 32868 13101 10014 20003 39411 49936 57015 333 81657 91110 91206;
0128066720999992010010101004+46867+008633FM-12+045199999V0201401N001019999999N9999999N1+00051-00041099371ADDMA1999999094101MD1710111+9999OA149900151REMSYN076AAXX  01014 06672 33/// /1402 10005 21004 39410 49937 57011 333 91103 91203;
0128066720999992010010102004+46867+008633FM-12+045199999V0201401N001019999999N9999999N1-00011-00081099381ADDMA1999999094101MD1719999+9999OA149900211REMSYN076AAXX  01024 06672 33/// /1402 11001 21008 39410 49938 57/// 333 91104 91203;
0139066720999992010010103004+46867+008633FM-12+045199999V0201701N001512200019N0180001N1+00091-00071099301ADDGA1031+021001061GF103991999999022501999999MA1999999094041REMSYN070AAXX  01034 06672 42868 31703 10009 21007 39404 49930 5//// 333 83657;
0087066720999992010010104004+46867+008633FM-12+045199999V0201501N001019999999N9999999N1+00061-00101099241ADDMA1999999093981REMSYN060AAXX  01044 06672 33/// /1502 10006 21010 39398 49924 5////;
0128066720999992010010105004+46867+008633FM-12+045199999V0209999C000019999999N9999999N1+00011-00121099221ADDMA1999999093951MD1610151+9999OA149900211REMSYN076AAXX  01054 06672 33/// /0000 10001 21012 39395 49922 56015 333 91104 91203;
0282066720999992010010106004+46867+008633FM-12+045199999V0201901N001010270019N0180001N1+00071-00101099171ADDAA124002391AL11200291AL29900091GA1081+027001061GF108991999999999999999999GJ100189IA1019IA2999-00409KA1999N-00091MA1999999093911MD1610131+9999OA149900361REMSYN118AAXX  01064 06672 32968 81902 10007 21010 39391 49917 56013 333 21009 30104 55003 70022 88659 90768 93100 91107 91204;
0128066720999992010010107004+46867+008633FM-12+045199999V0201801N000519999999N9999999N1+00111-00091099151ADDMA1999999093901MD1710081+9999OA149900151REMSYN076AAXX  01074 06672 33/// /1801 10011 21009 39390 49915 57008 333 91103 91203;
0128066720999992010010108004+46867+008633FM-12+045199999V0201501N000519999999N9999999N1+00031-00081099221ADDMA1999999093951MD1510001+9999OA149900151REMSYN076AAXX  01084 06672 33/// /1501 10003 21008 39395 49922 55000 333 91103 91202;
0176066720999992010010109004+46867+008633FM-12+045199999V0201701N000510270019N0180001N1+00171-00041099221ADDGA1071+027001041GF107991999999999999999999MA1999999093981MD1210071+9999OA149900211REMSYN082AAXX  01094 06672 32968 71701 10017 21004 39398 49922 52007 333 87459 91104 91203;
0128066720999992010010110004+46867+008633FM-12+045199999V0202601N000519999999N9999999N1+00431+00131099211ADDMA1999999094021MD1110121+9999OA149900151REMSYN076AAXX  01104 06672 33/// /2601 10043 20013 39402 49921 51012 333 91103 91202;
0128066720999992010010111004+46867+008633FM-12+045199999V0203301N002619999999N9999999N1+00521+00261099191ADDMA1999999094021MD1210071+9999OA149900411REMSYN076AAXX  01114 06672 33/// /3305 10052 20026 39402 49919 52007 333 91108 91205;
0176066720999992010010112004+46867+008633FM-12+045199999V0203301N003110270019N0180001N1+00511+00231099251ADDGA1081+027001041GF108991999999999999999999MA1999999094071MD1210091+9999OA149900621REMSYN082AAXX  01124 06672 32968 83306 10051 20023 39407 49925 52009 333 88459 91112 91208;
0128066720999992010010113004+46867+008633FM-12+045199999V0203301N002619999999N9999999N1+00521+00241099281ADDMA1999999094101MD1210081+9999OA149900621REMSYN076AAXX  01134 06672 33/// /3305 10052 20024 39410 49928 52008 333 91112 91208;
0128066720999992010010114004+46867+008633FM-12+045199999V0203301N002119999999N9999999N1+00511+00271099361ADDMA1999999094181MD1319999+9999OA149900411REMSYN076AAXX  01144 06672 33/// /3304 10051 20027 39418 49936 53/// 333 91108 91206;
0221066720999992010010115004+46867+008633FM-12+045199999V0203201N000510036019N0150001N1+00491+00321099471ADDAA101000391AY161031AY221031GA1081+003601071GF108991999999004501999999MA1999999094281MD1310211+9999MW1621OA149900621REMSYN094AAXX  01154 06672 21465 83201 10049 20032 39428 49947 53021 76262 333 69935 88712 91112 91208;
0145066720999992010010116004+46867+008633FM-12+045199999V0203101N000519999999N9999999N1+00481+00361099551ADDAA101000021MA1999999094351MD1210251+9999OA149900261REMSYN082AAXX  01164 06672 23/// /3101 10048 20036 39435 49955 52025 333 69915 91105 91203;
0145066720999992010010117004+46867+008633FM-12+045199999V0203101N002119999999N9999999N1+00501+00351099661ADDAA101000591MA1999999094461MD1210281+9999OA149900411REMSYN082AAXX  01174 06672 23/// /3104 10050 20035 39446 49966 52028 333 69945 91108 91204;
0280066720999992010010118004+46867+008633FM-12+045199999V0200101N009810027019N0140001N1+00461+00131099821ADDAA112001091AL19900091AY161061AY221061GA1081+002701071GF108991999999002501999999IA1099KA1120M+00561MA1999999094601MD1310321+9999MW1601OA149901491REMSYN124AAXX  01184 06672 01364 80119 10046 20013 39460 49982 53032 60012 76062 333 10056 31/// 69935 88709 90766 93100 91129 91219;
0145066720999992010010119004+46867+008633FM-12+045199999V0203301N005719999999N9999999N1+00471+00171100021ADDAA101000891MA1999999094791MD1310441+9999OA149901601REMSYN082AAXX  01194 06672 23/// /3311 10047 20017 39479 40002 53044 333 69975 91131 91219;
0145066720999992010010120004+46867+008633FM-12+045199999V0203101N004119999999N9999999N1+00321+00151100211ADDAA101000391MA1999999094951MD1210491+9999OA149901601REMSYN082AAXX  01204 06672 23/// /3108 10032 20015 39495 40021 52049 333 69935 91131 91219;
0221066720999992010010121004+46867+008633FM-12+045199999V0203501N001510027019N0120001N1+00331+00131100331ADDAA101000391AY161031AY221031GA1081+002701071GF108991999999002501999999MA1999999095061MD1110461+9999MW1631OA149901601REMSYN094AAXX  01214 06672 21362 83503 10033 20013 39506 40033 51046 76362 333 69935 88709 91131 91219;
0145066720999992010010122004+46867+008633FM-12+045199999V0203301N005119999999N9999999N1+00381+00031100411ADDAA101000591MA1999999095151MD1110361+9999OA149901131REMSYN082AAXX  01224 06672 23/// /3310 10038 20003 39515 40041 51036 333 69945 91122 91215;
0128066720999992010010123004+46867+008633FM-12+045199999V0203401N006719999999N9999999N1+00311-00011100511ADDMA1999999095231MD1110281+9999OA149901181REMSYN076AAXX  01234 06672 33/// /3413 10031 21001 39523 40051 51028 333 91123 91215;
0227066720999992010010200004+46867+008633FM-12+045199999V0200101N008210027019N0120001N1+00301-00151100571ADDAA106002091AY161061AY221061GA1081+002701071GF108991999999002501999999MA1999999095281MD1210221+9999MW1601OA149901601REMSYN100AAXX  02004 06672 01362 80116 10030 21015 39528 40057 52022 60021 76062 333 60005 88709 91131 91219;
0128066720999992010010201004+46867+008633FM-12+045199999V0209999C009319999999N9999999N1+00201-00201100731ADDMA1999999095421MD1310271+9999OA149901801REMSYN076AAXX  02014 06672 33/// /0018 10020 21020 39542 40073 53027 333 91135 91222;
0087066720999992010010202004+46867+008633FM-12+045199999V0203501N010819999999N9999999N1+00091-00211100931ADDMA1999999095581REMSYN060AAXX  02024 06672 33/// /3521 10009 21021 39558 40093 5////;
0204066720999992010010203004+46867+008633FM-12+045199999V0203501N007710015019N0100001N1+00061-00321101071ADDAY161031AY221031GA1081+001501071GF108991999999001501999999MA1999999095711MD1210431+9999MW1771OA149901801REMSYN088AAXX  02034 06672 31260 83515 10006 21032 39571 40107 52043 77762 333 88705 91135 91222;
0128066720999992010010204004+46867+008633FM-12+045199999V0203601N008719999999N9999999N1+00041-00431101161ADDMA1999999095791MD1110371+9999OA149901601REMSYN076AAXX  02044 06672 33/// /3617 10004 21043 39579 40116 51037 333 91131 91219;
0145066720999992010010205004+46867+008633FM-12+045199999V0203501N008719999999N9999999N1+00031-00591101231ADDAA101000021MA1999999095861MD1110281+9999OA149901601REMSYN082AAXX  02054 06672 23/// /3517 10003 21059 39586 40123 51028 333 69915 91131 91218;
0391066720999992010010206004+46867+008633FM-12+045199999V0203601N009310027019N0100001N1-00101-00461101381ADDAA112002091AA224002891AJ199992999999999AL14800291AL29900091AY171061AY221061GA1081+002701071GF108991999999002501999999GJ100069IA1259IA2999-00109KA1999N+99999MA1999999095971MD1310261+9999MW1701OA149901801REMSYN142AAXX  02064 06672 01360 83618 11010 21046 39597 40138 53026 60022 77072 333 21001 3/101 41998 55001 60005 70029 88709 90768 93100 91135 91222;EQDQ01 -00012ATMN  Q02  09982SNDP  
0128066720999992010010207004+46867+008633FM-12+045199999V0203501N007719999999N9999999N1-00021-00551101431ADDMA1999999096041MD1310251+9999OA149901601REMSYN076AAXX  02074 06672 33/// /3515 11002 21055 39604 40143 53025 333 91131 91219;
0108066720999992010010208004+46867+008633FM-12+045199999V0200101N009319999999N9999999N1-00011-00691101501ADDAA101000021MA1999999096101REMSYN070AAXX  02084 06672 23/// /0118 11001 21069 39610 40150 5//// 333 69915;
0221066720999992010010209004+46867+008633FM-12+045199999V0209999C011810015019N0100001N1-00201-00361101691ADDAA101000021AY171031AY221031GA1081+001501071GF108991999999001501999999MA1999999096251MD1310281+9999MW1701OA149901701REMSYN094AAXX  02094 06672 21260 80023 11020 21036 39625 40169 53028 77072 333 69915 88705 91133 91223;
0128066720999992010010210004+46867+008633FM-12+045199999V0200101N007719999999N9999999N1-00141-00601101811ADDMA1999999096371MD1310331+9999OA149901701REMSYN076AAXX  02104 06672 33/// /0115 11014 21060 39637 40181 53033 333 91133 91223;
0128066720999992010010211004+46867+008633FM-12+045199999V0203501N007219999999N9999999N1-00111-00621101851ADDMA1999999096421MD1210321+9999OA149901601REMSYN076AAXX  02114 06672 33/// /3514 11011 21062 39642 40185 52032 333 91131 91220;
0227066720999992010010212004+46867+008633FM-12+045199999V0200101N006710015019N0100001N1-00051-00681101921ADDAA106000021AY171061AY221061GA1081+001501071GF108991999999001501999999MA1999999096491MD1210241+9999MW1731OA149901801REMSYN100AAXX  02124 06672 01260 80113 11005 21068 39649 40192 52024 69921 77372 333 60005 88705 91135 91223;
0128066720999992010010213004+46867+008633FM-12+045199999V0203601N006719999999N9999999N1-00041-00811101991ADDMA1999999096561MD1210191+9999OA149901131REMSYN076AAXX  02134 06672 33/// /3613 11004 21081 39656 40199 52019 333 91122 91215;
0128066720999992010010214004+46867+008633FM-12+045199999V0200101N005719999999N9999999N1-00061-00811102091ADDMA1999999096651MD1319999+9999OA149901131REMSYN076AAXX  02144 06672 33/// /0111 11006 21081 39665 40209 53/// 333 91122 91215;
0128066720999992010010215004+46867+008633FM-12+045199999V0200201N005719999999N9999999N1-00081-00911102171ADDMA1999999096721MD1210231+9999OA149901601REMSYN076AAXX  02154 06672 33/// /0211 11008 21091 39672 40217 52023 333 91131 91220;
0128066720999992010010216004+46867+008633FM-12+045199999V0209999C005119999999N9999999N1-00091-00851102251ADDMA1999999096801MD1310241+9999OA149900981REMSYN076AAXX  02164 06672 33/// /0010 11009 21085 39680 40225 53024 333 91119 91213;
0128066720999992010010217004+46867+008633FM-12+045199999V0203401N002119999999N9999999N1-00131-00941102321ADDMA1999999096861MD1110211+9999OA149900881REMSYN076AAXX  02174 06672 33/// /3404 11013 21094 39686 40232 51021 333 91117 91212;
0280066720999992010010218004+46867+008633FM-12+045199999V0209999C000010015019N0100001N1-00311-00871102441ADDAA112000021AL19900091AY171061AY221061GA1081+001501071GF108991999999001501999999IA1099KA1120M-00011MA1999999096931MD1110211+9999MW1021OA149901701REMSYN124AAXX  02184 06672 01260 80000 11031 21087 39693 40244 51021 69922 70272 333 11001 31/// 60005 88705 90766 93100 91133 91223;
0128066720999992010010219004+46867+008633FM-12+045199999V0201701N001519999999N9999999N1-00491-00911102521ADDMA1999999096971MD1110171+9999OA149900361REMSYN076AAXX  02194 06672 33/// /1703 11049 21091 39697 40252 51017 333 91107 91204;
0128066720999992010010220004+46867+008633FM-12+045199999V0200101N000519999999N9999999N1-00251-00941102481ADDMA1999999096981MD1210121+9999OA149900261REMSYN076AAXX  02204 06672 33/// /0101 11025 21094 39698 40248 52012 333 91105 91203;
0170066720999992010010221004+46867+008633FM-12+045199999V0201701N001512200019N0160001N1-00551-01001102551ADDGA1001+999999999GF100991001001999999001001MA1999999096991MD1210061+9999OA149900881REMSYN076AAXX  02214 06672 32/66 01703 11055 21100 39699 40255 52006 333 91117 91212;
0128066720999992010010222004+46867+008633FM-12+045199999V0201901N002119999999N9999999N1-00441-00931102561ADDMA1999999097021MD1210051+9999OA149900261REMSYN076AAXX  02224 06672 33/// /1904 11044 21093 39702 40256 52005 333 91105 91204;
0128066720999992010010223004+46867+008633FM-12+045199999V0201801N001019999999N9999999N1-00591-00931102621ADDMA1999999097051MD1210071+9999OA149900361REMSYN076AAXX  02234 06672 33/// /1802 11059 21093 39705 40262 52007 333 91107 91204;
0170066720999992010010300004+46867+008633FM-12+045199999V0201801N001512200019N0160001N1-00651-00961102611ADDGA1001+999999999GF100991001001999999001001MA1999999097031MD1210041+9999OA149901131REMSYN076AAXX  03004 06672 32/66 01803 11065 21096 39703 40261 52004 333 91122 91215;
0128066720999992010010301004+46867+008633FM-12+045199999V0201601N001019999999N9999999N1-00611-00991102631ADDMA1999999097051MD1210031+9999OA149900261REMSYN076AAXX  03014 06672 33/// /1602 11061 21099 39705 40263 52003 333 91105 91203;
0087066720999992010010302004+46867+008633FM-12+045199999V0201401N000519999999N9999999N1-00781-01081102671ADDMA1999999097061REMSYN060AAXX  03024 06672 33/// /1401 11078 21108 39706 40267 5////;
0129066720999992010010303004+46867+008633FM-12+045199999V0201101N001012200019N0160001N1-00731-00941102651ADDGA1001+999999999GF100991001001999999001001MA1999999097051REMSYN060AAXX  03034 06672 32/66 01102 11073 21094 39705 40265 5////;
0128066720999992010010304004+46867+008633FM-12+045199999V0200901N001019999999N9999999N1-00841-01111102591ADDMA1999999096971MD1810081+9999OA149900151REMSYN076AAXX  03044 06672 33/// /0902 11084 21111 39697 40259 58008 333 91103 91202;
0128066720999992010010305004+46867+008633FM-12+045199999V0201501N001519999999N9999999N1-00831-01051102621ADDMA1999999097001MD1719999+9999OA149900211REMSYN076AAXX  03054 06672 33/// /1503 11083 21105 39700 40262 57/// 333 91104 91203;
0266066720999992010010306004+46867+008633FM-12+045199999V0202801N001012200019N0160001N1-00711-01081102501ADDAA124000391AL19900091GA1001+999999999GF100991001001999999001001GJ100009IA1099IA2999-01509KA1999N-00841MA1999999096911MD1710141+9999OA149900361REMSYN112AAXX  03064 06672 32/66 02802 11071 21108 39691 40250 57014 333 21084 31115 55000 70002 90768 93100 91107 91204;
0128066720999992010010307004+46867+008633FM-12+045199999V0202301N000519999999N9999999N1-00691-00911102521ADDMA1999999096931MD1710041+9999OA149900261REMSYN076AAXX  03074 06672 33/// /2301 11069 21091 39693 40252 57004 333 91105 91203;
0128066720999992010010308004+46867+008633FM-12+045199999V0201801N001519999999N9999999N1-00721-01041102571ADDMA1999999096971MD1519999+9999OA149900261REMSYN076AAXX  03084 06672 33/// /1803 11072 21104 39697 40257 55/// 333 91105 91204;
0170066720999992010010309004+46867+008633FM-12+045199999V0201301N001512200019N0250001N1-00651-01081102571ADDGA1001+999999999GF100991001001999999001001MA1999999096991MD1210081+9999OA149900311REMSYN076AAXX  03094 06672 32/75 01303 11065 21108 39699 40257 52008 333 91106 91205;
0128066720999992010010310004+46867+008633FM-12+045199999V0201301N001519999999N9999999N1-00351-01001102491ADDMA1999999096971MD1010041+9999OA149900311REMSYN076AAXX  03104 06672 33/// /1303 11035 21100 39697 40249 50004 333 91106 91205;
0128066720999992010010311004+46867+008633FM-12+045199999V0201501N001019999999N9999999N1-00201-01041102291ADDMA1999999096811MD1810161+9999OA149900311REMSYN076AAXX  03114 06672 33/// /1502 11020 21104 39681 40229 58016 333 91106 91203;
0128066720999992010010312004+46867+008633FM-12+045199999V0202601N001019999999N9999999N1-00201-00991102241ADDMA1999999096771MD1710221+9999OA149900311REMSYN076AAXX  03124 06672 33/// /2602 11020 21099 39677 40224 57022 333 91106 91205;
0128066720999992010010313004+46867+008633FM-12+045199999V0203001N000519999999N9999999N1-00121-00981102191ADDMA1999999096741MD1710231+9999OA149900151REMSYN076AAXX  03134 06672 33/// /3001 11012 21098 39674 40219 57023 333 91103 91202;
0128066720999992010010314004+46867+008633FM-12+045199999V0202401N001019999999N9999999N1-00261-00941102221ADDMA1999999096741MD1710071+9999OA149900151REMSYN076AAXX  03144 06672 33/// /2402 11026 21094 39674 40222 57007 333 91103 91202;
0147066720999992010010315004+46867+008633FM-12+045199999V0201401N001019999999N9999999N1-00391-00851102281ADDMA1999999096771MD1310041+9999OA149900311REMSYN076AAXX  03154 06672 33/// /1402 11039 21085 39677 40228 53000 333 91106 91203;EQDQ01+000002APC3  
0128066720999992010010316004+46867+008633FM-12+045199999V0201501N001019999999N9999999N1-00491-00921102281ADDMA1999999096751MD1010011+9999OA149900151REMSYN076AAXX  03164 06672 33/// /1502 11049 21092 39675 40228 50001 333 91103 91203;
0128066720999992010010317004+46867+008633FM-12+045199999V0201801N001519999999N9999999N1-00751-01001102291ADDMA1999999096701MD1810041+9999OA149900211REMSYN076AAXX  03174 06672 33/// /1803 11075 21100 39670 40229 58004 333 91104 91203;
0223066720999992010010318004+46867+008633FM-12+045199999V0201301N001512200019N0200001N1-00661-01011102291ADDAL19900091GA1001+999999999GF100991001001999999001001IA1019KA1120M-00121MA1999999096721MD1710051+9999OA149900311REMSYN100AAXX  03184 06672 32/70 01303 11066 21101 39672 40229 57005 333 11012 30/// 90766 93100 91106 91205;
0128066720999992010010319004+46867+008633FM-12+045199999V0201701N001019999999N9999999N1-00541-00861102271ADDMA1999999096731MD1510021+9999OA149900211REMSYN076AAXX  03194 06672 33/// /1702 11054 21086 39673 40227 55002 333 91104 91204;
0128066720999992010010320004+46867+008633FM-12+045199999V0201601N001519999999N9999999N1-00561-00871102211ADDMA1999999096671MD1810031+9999OA149900211REMSYN076AAXX  03204 06672 33/// /1603 11056 21087 39667 40221 58003 333 91104 91204;
0170066720999992010010321004+46867+008633FM-12+045199999V0201801N001512200019N0200001N1-00791-01051102201ADDGA1001+999999999GF100991001001999999001001MA1999999096611MD1710111+9999OA149900261REMSYN076AAXX  03214 06672 32/70 01803 11079 21105 39661 40220 57011 333 91105 91204;
0128066720999992010010322004+46867+008633FM-12+045199999V0201101N000519999999N9999999N1-00681-00991102171ADDMA1999999096601MD1610131+9999OA149900261REMSYN076AAXX  03224 06672 33/// /1101 11068 21099 39660 40217 56013 333 91105 91203;
0128066720999992010010323004+46867+008633FM-12+045199999V0201901N001019999999N9999999N1-00781-00951102151ADDMA1999999096561MD1610111+9999OA149900151REMSYN076AAXX  03234 06672 33/// /1902 11078 21095 39656 40215 56011 333 91103 91203;
0170066720999992010010400004+46867+008633FM-12+045199999V0201601N002112200019N0160001N1-00721-00981102081ADDGA1001+999999999GF100991001001999999001001MA1999999096511MD1810101+9999OA149900261REMSYN076AAXX  04004 06672 32/66 01604 11072 21098 39651 40208 58010 333 91105 91204;
0128066720999992010010401004+46867+008633FM-12+045199999V0201601N001019999999N9999999N1-00681-00901101991ADDMA1999999096431MD1810171+9999OA149900261REMSYN076AAXX  04014 06672 33/// /1602 11068 21090 39643 40199 58017 333 91105 91204;
0128066720999992010010402004+46867+008633FM-12+045199999V0201601N001019999999N9999999N1-00561-00811101881ADDMA1999999096351MD1810211+9999OA149900261REMSYN076AAXX  04024 06672 33/// /1602 11056 21081 39635 40188 58021 333 91105 91203;
0176066720999992010010403004+46867+008633FM-12+045199999V0201201N001012200019N0160001N1-00481-00801101821ADDGA1031+027001031GF103991999999999999999999MA1999999096311MD1619999+9999OA149900261REMSYN082AAXX  04034 06672 32966 31202 11048 21080 39631 40182 56/// 333 83359 91105 91204;
0128066720999992010010404004+46867+008633FM-12+045199999V0201501N001519999999N9999999N1-00411-00721101781ADDMA1999999096291MD1610141+9999OA149900151REMSYN076AAXX  04044 06672 33/// /1503 11041 21072 39629 40178 56014 333 91103 91203;
0128066720999992010010405004+46867+008633FM-12+045199999V0201401N001019999999N9999999N1-00361-00741101741ADDMA1999999096261MD1610091+9999OA149900151REMSYN076AAXX  04054 06672 33/// /1402 11036 21074 39626 40174 56009 333 91103 91203;
0291066720999992010010406004+46867+008633FM-12+045199999V0201601N001510105019N0170001N1-00331-00721101751ADDAA124000091AL19900091GA1081+010501041GF108991999999012501999999GJ102409IA1149IA2999-01309KA1999N-01001MA1999999096281MD1510031+9999OA149900261REMSYN118AAXX  04064 06672 32667 81603 11033 21072 39628 40175 55003 333 21100 34113 55040 70000 88435 90768 93100 91105 91204;EQDQ01  00002PRCP24
0128066720999992010010407004+46867+008633FM-12+045199999V0201301N001019999999N9999999N1-00311-00701101711ADDMA1999999096241MD1710051+9999OA149900211REMSYN076AAXX  04074 06672 33/// /1302 11031 21070 39624 40171 57005 333 91104 91203;
0128066720999992010010408004+46867+008633FM-12+045199999V0202201N000519999999N9999999N1-00291-00641101671ADDMA1999999096211MD1710051+9999OA149900211REMSYN076AAXX  04084 06672 33/// /2201 11029 21064 39621 40167 57005 333 91104 91203;
0176066720999992010010409004+46867+008633FM-12+045199999V0201901N000510036019N0100001N1-00211-00591101661ADDGA1081+003601071GF108991999999004501999999MA1999999096221MD1510061+9999OA149900211REMSYN082AAXX  04094 06672 32460 81901 11021 21059 39622 40166 55006 333 88712 91104 91203;
0163066720999992010010410004+46867+008633FM-12+045199999V0203301N003119999999N9999999N1-00191-00511101681ADDMA1999999096241MD1710031+9999OA149900511REMSYN076AAXX  04104 06672 33/// /3306 11019 21051 39624 40168 53000 333 91110 91206;EQDQ01+000032APCTENQ02+000002APC3  
0128066720999992010010411004+46867+008633FM-12+045199999V0203301N002119999999N9999999N1-00151-00451101601ADDMA1999999096171MD1810041+9999OA149900511REMSYN076AAXX  04114 06672 33/// /3304 11015 21045 39617 40160 58004 333 91110 91206;
0204066720999992010010412004+46867+008633FM-12+045199999V0209999C000010036019N0050001N1-00151-00441101511ADDAY121061AY221061GA1081+003601071GF108991999999004501999999MA1999999096091MD1710131+9999MW1051OA149900511REMSYN088AAXX  04124 06672 31450 80000 11015 21044 39609 40151 57013 70522 333 88712 91110 91206;
0128066720999992010010413004+46867+008633FM-12+045199999V0203301N001019999999N9999999N1-00131-00391101451ADDMA1999999096031MD1610211+9999OA149900311REMSYN076AAXX  04134 06672 33/// /3302 11013 21039 39603 40145 56021 333 91106 91204;
0128066720999992010010414004+46867+008633FM-12+045199999V0203301N001519999999N9999999N1-00141-00391101421ADDMA1999999096001MD1619999+9999OA149900261REMSYN076AAXX  04144 06672 33/// /3303 11014 21039 39600 40142 56/// 333 91105 91203;
0204066720999992010010415004+46867+008633FM-12+045199999V0209999C000010045019N0050001N1-00161-00341101411ADDAY171031AY271031GA1081+004501051GF108991999999004501999999MA1999999095991MD1610101+9999MW1701OA149900511REMSYN088AAXX  04154 06672 31450 80000 11016 21034 39599 40141 56010 77077 333 88515 91110 91206;
0145066720999992010010416004+46867+008633FM-12+045199999V0201901N000519999999N9999999N1-00071-00291101371ADDAA101000021MA1999999095971MD1610061+9999OA149900211REMSYN082AAXX  04164 06672 23/// /1901 11007 21029 39597 40137 56006 333 69925 91104 91202;
0145066720999992010010417004+46867+008633FM-12+045199999V0201401N000519999999N9999999N1-00181-00281101391ADDAA101000391MA1999999095971MD1610031+9999OA149900101REMSYN082AAXX  04174 06672 23/// /1401 11018 21028 39597 40139 56003 333 69935 91102 91201;
0297066720999992010010418004+46867+008633FM-12+045199999V0201401N000510045019N0020001N1-00161-00271101361ADDAA112000891AJ100039199999999AL11200391AY171061AY221061GA1081+004501051GF108991999999004501999999IA1279KA1120M-00071MA1999999095941MD1810051+9999MW1751OA149900511REMSYN124AAXX  04184 06672 01420 81401 11016 21027 39594 40136 58005 69972 77572 333 11007 43003 69925 88515 90766 93103 91110 91206;
0128066720999992010010419004+46867+008633FM-12+045199999V0209999C000019999999N9999999N1-00161-00271101341ADDMA1999999095921MD1810051+9999OA149900101REMSYN076AAXX  04194 06672 33/// /0000 11016 21027 39592 40134 58005 333 91102 91201;
0145066720999992010010420004+46867+008633FM-12+045199999V0201301N000519999999N9999999N1-00161-00271101331ADDAA101000021MA1999999095911MD1710061+9999OA149900101REMSYN082AAXX  04204 06672 23/// /1301 11016 21027 39591 40133 57006 333 69915 91102 91201;
0204066720999992010010421004+46867+008633FM-12+045199999V0201401N000510036019N0050001N1-00181-00281101321ADDAY171031AY221031GA1081+003601051GF108991999999004501999999MA1999999095901MD1710041+9999MW1711OA149900101REMSYN088AAXX  04214 06672 31450 81401 11018 21028 39590 40132 57004 77172 333 88512 91102 91201;
0145066720999992010010422004+46867+008633FM-12+045199999V0201401N001019999999N9999999N1-00171-00281101261ADDAA101000021MA1999999095851MD1710071+9999OA149900151REMSYN082AAXX  04224 06672 23/// /1402 11017 21028 39585 40126 57007 333 69925 91103 91202;
0128066720999992010010423004+46867+008633FM-12+045199999V0209999C000019999999N9999999N1-00171-00281101221ADDMA1999999095811MD1810101+9999OA149900151REMSYN076AAXX  04234 06672 33/// /0000 11017 21028 39581 40122 58010 333 91103 91202;
0227066720999992010010500004+46867+008633FM-12+045199999V0201601N001010045019N0070001N1-00181-00291101161ADDAA106000391AY171061AY221061GA1081+004501051GF108991999999004501999999MA1999999095751MD1810151+9999MW1711OA149900261REMSYN100AAXX  05004 06672 01457 81602 11018 21029 39575 40116 58015 69931 77172 333 60005 88515 91105 91203;
0128066720999992010010501004+46867+008633FM-12+045199999V0201301N000519999999N9999999N1-00181-00291101121ADDMA1999999095711MD1810141+9999OA149900101REMSYN076AAXX  05014 06672 33/// /1301 11018 21029 39571 40112 58014 333 91102 91202;
0145066720999992010010502004+46867+008633FM-12+045199999V0209999C000019999999N9999999N1-00161-00341101071ADDAA101000021MA1999999095671MD1710141+9999OA149900151REMSYN082AAXX  05024 06672 23/// /0000 11016 21034 39567 40107 57014 333 69915 91103 91201;
0204066720999992010010503004+46867+008633FM-12+045199999V0203301N001010036019N0040001N1-00161-00391101031ADDAY171031AY221031GA1081+003601051GF108991999999004501999999MA1999999095631MD1710121+9999MW1711OA149900311REMSYN088AAXX  05034 06672 31440 83302 11016 21039 39563 40103 57012 77172 333 88512 91106 91203;
0128066720999992010010504004+46867+008633FM-12+045199999V0203301N002119999999N9999999N1-00181-00431100981ADDMA1999999095581MD1710131+9999OA149900361REMSYN076AAXX  05044 06672 33/// /3304 11018 21043 39558 40098 57013 333 91107 91204;
0128066720999992010010505004+46867+008633FM-12+045199999V0201801N000519999999N9999999N1-00191-00391100901ADDMA1999999095501MD1810171+9999OA149900361REMSYN076AAXX  05054 06672 33/// /1801 11019 21039 39550 40090 58017 333 91107 91204;
0334066720999992010010506004+46867+008633FM-12+045199999V0209999C000010045019N0030001N1-00171-00401100821ADDAA112000591AA224001091AJ100059199999999AL10600191AL29900291GA1081+004501071GF108991999999004501999999GJ100009IA1239IA2999-00309KA1999N-00221MA1999999095431MD1710201+9999OA149900361REMSYN142AAXX  05064 06672 01430 80000 11017 21040 39543 40082 57020 69942 7//77 333 21022 3/103 47005 55000 60005 70011 88715 90768 93102 91107 91204;
0128066720999992010010507004+46867+008633FM-12+045199999V0202201N000519999999N9999999N1-00171-00471100781ADDMA1999999095391MD1610191+9999OA149900211REMSYN076AAXX  05074 06672 33/// /2201 11017 21047 39539 40078 56019 333 91104 91202;
0128066720999992010010508004+46867+008633FM-12+045199999V0209999C000019999999N9999999N1-00191-00441100751ADDMA1999999095361MD1710141+9999OA149900211REMSYN076AAXX  05084 06672 33/// /0000 11019 21044 39536 40075 57014 333 91104 91202;
0204066720999992010010509004+46867+008633FM-12+045199999V0201101N000510045019N0070001N1-00171-00431100741ADDAY171031AY221031GA1081+004501071GF108991999999004501999999MA1999999095351MD1710081+9999MW1101OA149900361REMSYN088AAXX  05094 06672 31457 81101 11017 21043 39535 40074 57008 71072 333 88715 91107 91204;
0128066720999992010010510004+46867+008633FM-12+045199999V0201801N001019999999N9999999N1-00141-00421100721ADDMA1999999095341MD1710051+9999OA149900211REMSYN076AAXX  05104 06672 33/// /1802 11014 21042 39534 40072 57005 333 91104 91203;
0128066720999992010010511004+46867+008633FM-12+045199999V0209999C000019999999N9999999N1-00141-00421100611ADDMA1999999095241MD1710121+9999OA149900261REMSYN076AAXX  05114 06672 33/// /0000 11014 21042 39524 40061 57012 333 91105 91203;
0204066720999992010010512004+46867+008633FM-12+045199999V0209999C000010045019N0050001N1-00121-00431100511ADDAY171061AY221061GA1081+004501071GF108991999999004501999999MA1999999095151MD1710201+9999MW1101OA149900361REMSYN088AAXX  05124 06672 31450 80000 11012 21043 39515 40051 57020 71072 333 88715 91107 91204;
0128066720999992010010513004+46867+008633FM-12+045199999V0201501N001019999999N9999999N1-00111-00411100481ADDMA1999999095121MD1710221+9999OA149900151REMSYN076AAXX  05134 06672 33/// /1502 11011 21041 39512 40048 57022 333 91103 91202;
0087066720999992010010514004+46867+008633FM-12+045199999V0201301N001019999999N9999999N1-00111-00381100421ADDMA1999999095061REMSYN060AAXX  05144 06672 33/// /1302 11011 21038 39506 40042 5////;
0176066720999992010010515004+46867+008633FM-12+045199999V0202501N001010045019N0100001N1-00131-00451100411ADDGA1081+004501071GF108991999999004501999999MA1999999095051MD1710101+9999OA149900261REMSYN082AAXX  05154 06672 32460 82502 11013 21045 39505 40041 57010 333 88715 91105 91203;
0128066720999992010010516004+46867+008633FM-12+045199999V0201601N001019999999N9999999N1-00141-00451100371ADDMA1999999095011MD1710111+9999OA149900261REMSYN076AAXX  05164 06672 33/// /1602 11014 21045 39501 40037 57011 333 91105 91203;
0128066720999992010010517004+46867+008633FM-12+045199999V0201801N001519999999N9999999N1-00151-00421100361ADDMA1999999095001MD1610061+9999OA149900211REMSYN076AAXX  05174 06672 33/// /1803 11015 21042 39500 40036 56006 333 91104 91203;
0246066720999992010010518004+46867+008633FM-12+045199999V0201301N001010045019N0100001N1-00201-00431100341ADDAJ100059199999999AL19900091GA1081+004501071GF108991999999004501999999IA1239KA1120M-00111MA1999999094971MD1810081+9999OA149900261REMSYN106AAXX  05184 06672 32460 81302 11020 21043 39497 40034 58008 333 11011 47005 88715 90766 93100 91105 91203;
0128066720999992010010519004+46867+008633FM-12+045199999V0201401N001519999999N9999999N1-00201-00451100311ADDMA1999999094941MD1810071+9999OA149900211REMSYN076AAXX  05194 06672 33/// /1403 11020 21045 39494 40031 58007 333 91104 91203;
0128066720999992010010520004+46867+008633FM-12+045199999V0201401N001519999999N9999999N1-00201-00451100271ADDMA1999999094901MD1810101+9999OA149900311REMSYN076AAXX  05204 06672 33/// /1403 11020 21045 39490 40027 58010 333 91106 91204;
0204066720999992010010521004+46867+008633FM-12+045199999V0201501N001510036019N0050001N1-00201-00451100261ADDAY121031AY221031GA1081+003601071GF108991999999004501999999MA1999999094891MD1610081+9999MW1101OA149900311REMSYN088AAXX  05214 06672 31450 81503 11020 21045 39489 40026 56008 71022 333 88712 91106 91204;
0128066720999992010010522004+46867+008633FM-12+045199999V0201601N002119999999N9999999N1-00191-00421100241ADDMA1999999094881MD1610061+9999OA149900311REMSYN076AAXX  05224 06672 33/// /1604 11019 21042 39488 40024 56006 333 91106 91205;
0128066720999992010010523004+46867+008633FM-12+045199999V0201501N001519999999N9999999N1-00191-00411100211ADDMA1999999094851MD1810051+9999OA149900311REMSYN076AAXX  05234 06672 33/// /1503 11019 21041 39485 40021 58005 333 91106 91205;
0204066720999992010010600004+46867+008633FM-12+045199999V0201501N002610027019N0050001N1-00191-00431100171ADDAY121061AY221061GA1081+002701071GF108991999999002501999999MA1999999094811MD1810081+9999MW1101OA149900361REMSYN088AAXX  06004 06672 31350 81505 11019 21043 39481 40017 58008 71022 333 88709 91107 91205;
0128066720999992010010601004+46867+008633FM-12+045199999V0201501N002119999999N9999999N1-00201-00451100151ADDMA1999999094791MD1710091+9999OA149900411REMSYN076AAXX  06014 06672 33/// /1504 11020 21045 39479 40015 57009 333 91108 91205;
0128066720999992010010602004+46867+008633FM-12+045199999V0201301N001519999999N9999999N1-00261-00501100171ADDMA1999999094801MD1510051+9999OA149900411REMSYN076AAXX  06024 06672 33/// /1303 11026 21050 39480 40017 55005 333 91108 91205;
0225066720999992010010603004+46867+008633FM-12+045199999V0201501N000510027019N0050001N1-00261-00491100181ADDAY121031AY221031GA1081+002701071GF108991999999002501999999MA1999999094811MW1101OA149900411REMSYN088AAXX  06034 06672 31350 81501 11026 21049 39481 40018 53000 71022 333 88709 91108 91205;EQDQ01+000032APCTENQ02+000002APC3  
0128066720999992010010604004+46867+008633FM-12+045199999V0201901N001519999999N9999999N1-00231-00461100171ADDMA1999999094801MD1210011+9999OA149900261REMSYN076AAXX  06044 06672 33/// /1903 11023 21046 39480 40017 52001 333 91105 91203;
0128066720999992010010605004+46867+008633FM-12+045199999V0201201N001019999999N9999999N1-00211-00471100211ADDMA1999999094841MD1210041+9999OA149900261REMSYN076AAXX  06054 06672 33/// /1202 11021 21047 39484 40021 52004 333 91105 91204;
0291066720999992010010606004+46867+008633FM-12+045199999V0201401N001010027019N0100001N1-00211-00401100231ADDAA124000091AL19900091GA1081+002701071GF108991999999002501999999GJ100009IA1099IA2999-00409KA1999N-00271MA1999999094861MD1310051+9999OA149900411REMSYN118AAXX  06064 06672 32360 81402 11021 21040 39486 40023 53005 333 21027 31104 55000 70000 88709 90768 93100 91108 91205;EQDQ01  00002PRCP24
0128066720999992010010607004+46867+008633FM-12+045199999V0209999C000019999999N9999999N1-00181-00381100261ADDMA1999999094901MD1110101+9999OA149900151REMSYN076AAXX  06074 06672 33/// /0000 11018 21038 39490 40026 51010 333 91103 91202;
0128066720999992010010608004+46867+008633FM-12+045199999V0201601N002119999999N9999999N1-00131-00381100281ADDMA1999999094931MD1310091+9999OA149900261REMSYN076AAXX  06084 06672 33/// /1604 11013 21038 39493 40028 53009 333 91105 91204;
0176066720999992010010609004+46867+008633FM-12+045199999V0202601N000510036019N0130001N1-00121-00371100321ADDGA1081+003601071GF108991999999004501999999MA1999999094971MD1210111+9999OA149900261REMSYN082AAXX  06094 06672 32463 82601 11012 21037 39497 40032 52011 333 88712 91105 91204;
0128066720999992010010610004+46867+008633FM-12+045199999V0202901N000519999999N9999999N1-00081-00281100351ADDMA1999999095001MD1210101+9999OA149900211REMSYN076AAXX  06104 06672 33/// /2901 11008 21028 39500 40035 52010 333 91104 91203;
0128066720999992010010611004+46867+008633FM-12+045199999V0201201N001019999999N9999999N1-00031-00261100311ADDMA1999999094971MD1019999+9999OA149900311REMSYN076AAXX  06114 06672 33/// /1202 11003 21026 39497 40031 50/// 333 91106 91204;
0176066720999992010010612004+46867+008633FM-12+045199999V0203301N003610027019N0100001N1-00021-00301100291ADDGA1081+002701071GF108991999999002501999999MA1999999094961MD1810011+9999OA149900511REMSYN082AAXX  06124 06672 32360 83307 11002 21030 39496 40029 58001 333 88709 91110 91207;
0128066720999992010010613004+46867+008633FM-12+045199999V0203401N002119999999N9999999N1-00021-00281100311ADDMA1999999094981MD1510021+9999OA149900571REMSYN076AAXX  06134 06672 33/// /3404 11002 21028 39498 40031 55002 333 91111 91208;
0128066720999992010010614004+46867+008633FM-12+045199999V0200201N000519999999N9999999N1+00001-00291100331ADDMA1999999095001MD1219999+9999OA149900571REMSYN076AAXX  06144 06672 33/// /0201 10000 21029 39500 40033 52/// 333 91111 91208;
0176066720999992010010615004+46867+008633FM-12+045199999V0201401N000510027019N0100001N1+00001-00291100351ADDGA1081+002701071GF108991999999002501999999MA1999999095021MD1319999+9999OA149900571REMSYN082AAXX  06154 06672 32360 81401 10000 21029 39502 40035 53/// 333 88709 91111 91208;
0128066720999992010010616004+46867+008633FM-12+045199999V0203401N001519999999N9999999N1+00011-00231100381ADDMA1999999095051MD1310071+9999OA149900261REMSYN076AAXX  06164 06672 33/// /3403 10001 21023 39505 40038 53007 333 91105 91203;
0128066720999992010010617004+46867+008633FM-12+045199999V0203401N002619999999N9999999N1+00021-00251100431ADDMA1999999095101MD1110101+9999OA149900411REMSYN076AAXX  06174 06672 33/// /3405 10002 21025 39510 40043 51010 333 91108 91206;
0229066720999992010010618004+46867+008633FM-12+045199999V0200301N000510027019N0100001N1+00021-00271100501ADDAL19900091GA1081+002701071GF108991999999002501999999IA1099KA1120M+00021MA1999999095161MD1319999+9999OA149900571REMSYN106AAXX  06184 06672 32360 80301 10002 21027 39516 40050 53/// 333 10002 31/// 88709 90766 93100 91111 91208;
0128066720999992010010619004+46867+008633FM-12+045199999V0209999C000019999999N9999999N1+00001-00221100541ADDMA1999999095201MD1110151+9999OA149900511REMSYN076AAXX  06194 06672 33/// /0000 10000 21022 39520 40054 51015 333 91110 91205;
0128066720999992010010620004+46867+008633FM-12+045199999V0200201N001019999999N9999999N1-00011-00241100581ADDMA1999999095231MD1110131+9999OA149900211REMSYN076AAXX  06204 06672 33/// /0202 11001 21024 39523 40058 51013 333 91104 91203;
0128066720999992010010621004+46867+008633FM-12+045199999V0201501N000519999999N9999999N1-00051-00251100581ADDMA1999999095231MD1210071+9999OA149900511REMSYN076AAXX  06214 06672 33/// /1501 11005 21025 39523 40058 52007 333 91110 91206;
0128066720999992010010622004+46867+008633FM-12+045199999V0201701N000519999999N9999999N1-00111-00271100641ADDMA1999999095271MD1210071+9999OA149900151REMSYN076AAXX  06224 06672 33/// /1701 11011 21027 39527 40064 52007 333 91103 91202;
0128066720999992010010623004+46867+008633FM-12+045199999V0201801N001019999999N9999999N1-00151-00381100681ADDMA1999999095301MD1210071+9999OA149900151REMSYN076AAXX  06234 06672 33/// /1802 11015 21038 39530 40068 52007 333 91103 91203;
0176066720999992010010700004+46867+008633FM-12+045199999V0201901N001010027019N0060001N1-00141-00361100721ADDGA1081+002701071GF108991999999002501999999MA1999999095341MD1310111+9999OA149900571REMSYN082AAXX  07004 06672 32356 81902 11014 21036 39534 40072 53011 333 88709 91111 91208;
0128066720999992010010701004+46867+008633FM-12+045199999V0201201N001019999999N9999999N1-00121-00431100751ADDMA1999999095371MD1210101+9999OA149900151REMSYN076AAXX  07014 06672 33/// /1202 11012 21043 39537 40075 52010 333 91103 91203;
0128066720999992010010702004+46867+008633FM-12+045199999V0201901N001519999999N9999999N1-00101-00361100771ADDMA1999999095401MD1219999+9999OA149900211REMSYN076AAXX  07024 06672 33/// /1903 11010 21036 39540 40077 52/// 333 91104 91204;
0176066720999992010010703004+46867+008633FM-12+045199999V0201401N001010027019N0060001N1-00161-00441100801ADDGA1071+002701071GF107991999999002501999999MA1999999095411MD1210071+9999OA149900211REMSYN082AAXX  07034 06672 32356 71402 11016 21044 39541 40080 52007 333 87709 91104 91204;
0128066720999992010010704004+46867+008633FM-12+045199999V0201401N002119999999N9999999N1-00281-00571100831ADDMA1999999095421MD1110051+9999OA149900311REMSYN076AAXX  07044 06672 33/// /1404 11028 21057 39542 40083 51005 333 91106 91205;
0128066720999992010010705004+46867+008633FM-12+045199999V0201901N002619999999N9999999N1-00331-00651100841ADDMA1999999095421MD1210021+9999OA149900411REMSYN076AAXX  07054 06672 33/// /1905 11033 21065 39542 40084 52002 333 91108 91205;
0330066720999992010010706004+46867+008633FM-12+045199999V0209999C000010057019N0070001N1-00461-00741100911ADDAA124000091AJ199992999999999AL19900091GA1081+005701071GF108991999999004501999999GJ100009IA1279IA2999-01109KA1999N-00511MA1999999095461MD1210051+9999OA149900461REMSYN124AAXX  07064 06672 32457 80000 11046 21074 39546 40091 52005 333 21051 3/111 43998 55000 70000 88719 90768 93100 91109 91206;EQDQ01  00002PRCP24Q02  09982SNDP  
0128066720999992010010707004+46867+008633FM-12+045199999V0201601N001519999999N9999999N1-00701-00971101001ADDMA1999999095491MD1210071+9999OA149900461REMSYN076AAXX  07074 06672 33/// /1603 11070 21097 39549 40100 52007 333 91109 91206;
0128066720999992010010708004+46867+008633FM-12+045199999V0201601N001019999999N9999999N1-00631-00771101071ADDMA1999999095571MD1319999+9999OA149900261REMSYN076AAXX  07084 06672 33/// /1602 11063 21077 39557 40107 53/// 333 91105 91204;
0176066720999992010010709004+46867+008633FM-12+045199999V0201501N001012200019N0180001N1-00571-00791101071ADDGA1011+027001031GF101991999999999999999999MA1999999095591MD1210131+9999OA149900461REMSYN082AAXX  07094 06672 32968 11502 11057 21079 39559 40107 52013 333 81359 91109 91206;
0128066720999992010010710004+46867+008633FM-12+045199999V0201501N001519999999N9999999N1-00301-00681101041ADDMA1999999095611MD1210121+9999OA149900261REMSYN076AAXX  07104 06672 33/// /1503 11030 21068 39561 40104 52012 333 91105 91203;
0128066720999992010010711004+46867+008633FM-12+045199999V0201601N000519999999N9999999N1-00191-00711101031ADDMA1999999095621MD1210051+9999OA149900211REMSYN076AAXX  07114 06672 33/// /1601 11019 21071 39562 40103 52005 333 91104 91203;
0198066720999992010010712004+46867+008633FM-12+045199999V0201501N001010300019N0180001N1-00071-00531100981ADDGA1011+018001071GA2061+030001041GF106991999999017501999999MA1999999095601MD1010011+9999OA149900461REMSYN088AAXX  07124 06672 32768 61502 11007 21053 39560 40098 50001 333 81756 86460 91109 91206;
0128066720999992010010713004+46867+008633FM-12+045199999V0202001N000519999999N9999999N1+00021-00491100961ADDMA1999999095601MD1819999+9999OA149900151REMSYN076AAXX  07134 06672 33/// /2001 10002 21049 39560 40096 58/// 333 91103 91202;
0118066720999992010010715004+46867+008633FM-12+045199999V02099999999990210019N0160001N1+99999+99999999999ADDGA1081+021001041GF108991999999022501999999REMSYN064AAXX  07154 06672 42866 8//// 1//// 2//// 3//// 5//// 333 88457;
0128066720999992010010716004+46867+008633FM-12+045199999V0201801N000519999999N9999999N1-00121-00521101121ADDMA1999999095721MD1319999+9999OA149900151REMSYN076AAXX  07164 06672 33/// /1801 11012 21052 39572 40112 53/// 333 91103 91201;
0128066720999992010010717004+46867+008633FM-12+045199999V0201901N001019999999N9999999N1-00131-00481101131ADDMA1999999095731MD1119999+9999OA149900211REMSYN076AAXX  07174 06672 33/// /1902 11013 21048 39573 40113 51/// 333 91104 91202;
0246066720999992010010718004+46867+008633FM-12+045199999V0201701N001510210019N0160001N1-00211-00511101181ADDAJ100029199999999AL19900091GA1081+021001041GF108991999999022501999999IA1279KA1120M+00021MA1999999095761MD1119999+9999OA149900261REMSYN106AAXX  07184 06672 32866 81703 11021 21051 39576 40118 51/// 333 10002 43002 88457 90766 93100 91105 91204;
0128066720999992010010719004+46867+008633FM-12+045199999V0201801N001019999999N9999999N1-00271-00551101211ADDMA1999999095781MD1310061+9999OA149900211REMSYN076AAXX  07194 06672 33/// /1802 11027 21055 39578 40121 53006 333 91104 91203;
0128066720999992010010720004+46867+008633FM-12+045199999V0201601N001019999999N9999999N1-00281-00561101211ADDMA1999999095781MD1210051+9999OA149900211REMSYN076AAXX  07204 06672 33/// /1602 11028 21056 39578 40121 52005 333 91104 91202;
0176066720999992010010721004+46867+008633FM-12+045199999V0202101N001010210019N0160001N1-00201-00501101211ADDGA1081+021001041GF108991999999022501999999MA1999999095791MD1210031+9999OA149900211REMSYN082AAXX  07214 06672 32866 82102 11020 21050 39579 40121 52003 333 88457 91104 91203;
0128066720999992010010722004+46867+008633FM-12+045199999V0201301N001019999999N9999999N1-00261-00501101201ADDMA1999999095771MD1010011+9999OA149900211REMSYN076AAXX  07224 06672 33/// /1302 11026 21050 39577 40120 50001 333 91104 91203;
0128066720999992010010723004+46867+008633FM-12+045199999V0201901N000519999999N9999999N1-00181-00481101151ADDMA1999999095741MD1710041+9999OA149900211REMSYN076AAXX  07234 06672 33/// /1901 11018 21048 39574 40115 57004 333 91104 91202;
0176066720999992010010800004+46867+008633FM-12+045199999V0201901N000510210019N0160001N1-00281-00451101141ADDGA1081+021001041GF108991999999022501999999MA1999999095711MD1810081+9999OA149900211REMSYN082AAXX  08004 06672 32866 81901 11028 21045 39571 40114 58008 333 88457 91104 91203;
0128066720999992010010801004+46867+008633FM-12+045199999V0201601N001019999999N9999999N1-00231-00471101091ADDMA1999999095671MD1710101+9999OA149900151REMSYN076AAXX  08014 06672 33/// /1602 11023 21047 39567 40109 57010 333 91103 91202;
0128066720999992010010802004+46867+008633FM-12+045199999V0201601N001519999999N9999999N1-00181-00461101091ADDMA1999999095681MD1719999+9999OA149900261REMSYN076AAXX  08024 06672 33/// /1603 11018 21046 39568 40109 57/// 333 91105 91203;
0176066720999992010010803004+46867+008633FM-12+045199999V0201401N001510210019N0160001N1-00151-00451101061ADDGA1081+021001041GF108991999999022501999999MA1999999095661MD1719999+9999OA149900261REMSYN082AAXX  08034 06672 32866 81403 11015 21045 39566 40106 57/// 333 88457 91105 91203;
0128066720999992010010804004+46867+008633FM-12+045199999V0201601N000519999999N9999999N1-00191-00361101001ADDMA1999999095601MD1710071+9999OA149900211REMSYN076AAXX  08044 06672 33/// /1601 11019 21036 39560 40100 57007 333 91104 91203;
0145066720999992010010805004+46867+008633FM-12+045199999V0209999C000019999999N9999999N1-00221-00311100951ADDAA101000391MA1999999095541MD1810141+9999OA149900151REMSYN082AAXX  08054 06672 23/// /0000 11022 21031 39554 40095 58014 333 69935 91103 91202;
0356066720999992010010806004+46867+008633FM-12+045199999V0201701N001010006019N0050001N1-00171-00301100871ADDAA112000591AA224000591AJ100019199999999AL13000091AL29900191AY171061AY271061GA1081+000601051GF108991999999000751999999GJ101929IA1279IA2999-00709KA1999N-00331MA1999999095481MD1610181+9999MW1711OA149900261REMSYN142AAXX  08064 06672 01150 81702 11017 21030 39548 40087 56018 69952 77177 333 21033 3/107 43001 55032 69925 70005 88502 90768 93101 91105 91203;
0128066720999992010010807004+46867+008633FM-12+045199999V0201601N000519999999N9999999N1-00171-00291100831ADDMA1999999095441MD1610161+9999OA149900151REMSYN076AAXX  08074 06672 33/// /1601 11017 21029 39544 40083 56016 333 91103 91203;
0145066720999992010010808004+46867+008633FM-12+045199999V0201601N000519999999N9999999N1-00151-00281100801ADDAA101000021MA1999999095411MD1610131+9999OA149900151REMSYN082AAXX  08084 06672 23/// /1601 11015 21028 39541 40080 56013 333 69915 91103 91203;
0204066720999992010010809004+46867+008633FM-12+045199999V0201501N001010006019N0040001N1-00131-00271100731ADDAY171031AY221031GA1081+000601071GF108991999999000751999999MA1999999095351MD1810131+9999MW1711OA149900151REMSYN088AAXX  08094 06672 31140 81502 11013 21027 39535 40073 58013 77172 333 88702 91103 91203;
0128066720999992010010810004+46867+008633FM-12+045199999V0202301N000519999999N9999999N1-00081-00301100651ADDMA1999999095291MD1810151+9999OA149900151REMSYN076AAXX  08104 06672 33/// /2301 11008 21030 39529 40065 58015 333 91103 91203;
0128066720999992010010811004+46867+008633FM-12+045199999V0201501N001019999999N9999999N1-00021-00311100571ADDMA1999999095221MD1810191+9999OA149900151REMSYN076AAXX  08114 06672 33/// /1502 11002 21031 39522 40057 58019 333 91103 91203;
0227066720999992010010812004+46867+008633FM-12+045199999V0203401N000510045019N0100001N1+00011-00391100471ADDAA106000021AY171061AY221061GA1081+004501071GF108991999999004501999999MA1999999095131MD1810221+9999MW1021OA149900311REMSYN100AAXX  08124 06672 01460 83401 10001 21039 39513 40047 58022 69911 70272 333 60005 88715 91106 91203;
0128066720999992010010813004+46867+008633FM-12+045199999V0203501N001519999999N9999999N1+00001-00371100411ADDMA1999999095071MD1610221+9999OA149900311REMSYN076AAXX  08134 06672 33/// /3503 10000 21037 39507 40041 56022 333 91106 91204;
0128066720999992010010814004+46867+008633FM-12+045199999V0200401N000519999999N9999999N1-00031-00321100391ADDMA1999999095051MD1619999+9999OA149900511REMSYN076AAXX  08144 06672 33/// /0401 11003 21032 39505 40039 56/// 333 91110 91204;
0204066720999992010010815004+46867+008633FM-12+045199999V0200101N002610006019N0080001N1-00031-00351100421ADDAY151031AY251031GA1081+000601051GF108991999999000751999999MA1999999095081MD1510051+9999MW1501OA149900621REMSYN088AAXX  08154 06672 31158 80105 11003 21035 39508 40042 55005 75055 333 88502 91112 91208;
0128066720999992010010816004+46867+008633FM-12+045199999V0203401N003619999999N9999999N1-00051-00321100471ADDMA1999999095121MD1310051+9999OA149900671REMSYN076AAXX  08164 06672 33/// /3407 11005 21032 39512 40047 53005 333 91113 91209;
0128066720999992010010817004+46867+008633FM-12+045199999V0209999C002619999999N9999999N1-00071-00341100501ADDMA1999999095151MD1119999+9999OA149900771REMSYN076AAXX  08174 06672 33/// /0005 11007 21034 39515 40050 51/// 333 91115 91209;
0297066720999992010010818004+46867+008633FM-12+045199999V0203501N001510006019N0050001N1-00071-00301100551ADDAA112000021AJ100039199999999AL11200191AY171061AY221061GA1081+000601051GF108991999999000751999999IA1279KA1120M+00041MA1999999095191MD1110111+9999MW1711OA149900771REMSYN124AAXX  08184 06672 01150 83503 11007 21030 39519 40055 51011 69912 77172 333 10004 43003 60005 88502 90766 93101 91115 91209;
0145066720999992010010819004+46867+008633FM-12+045199999V0203101N001019999999N9999999N1-00101-00351100581ADDAA101000021MA1999999095221MD1110101+9999OA149900721REMSYN082AAXX  08194 06672 23/// /3102 11010 21035 39522 40058 51010 333 69925 91114 91206;
0128066720999992010010820004+46867+008633FM-12+045199999V0201501N001519999999N9999999N1-00201-00321100591ADDMA1999999095211MD1210061+9999OA149900461REMSYN076AAXX  08204 06672 33/// /1503 11020 21032 39521 40059 52006 333 91109 91205;
0204066720999992010010821004+46867+008633FM-12+045199999V0201201N000510006019N0070001N1-00201-00311100571ADDAY171031AY221031GA1081+000601051GF108991999999000751999999MA1999999095191MD1810021+9999MW1711OA149900771REMSYN088AAXX  08214 06672 31157 81201 11020 21031 39519 40057 58000 77172 333 88502 91115 91209;
0128066720999992010010822004+46867+008633FM-12+045199999V0201401N000519999999N9999999N1-00141-00281100581ADDMA1999999095211MD1010011+9999OA149900151REMSYN076AAXX  08224 06672 33/// /1401 11014 21028 39521 40058 50001 333 91103 91202;
0128066720999992010010823004+46867+008633FM-12+045199999V0201601N001019999999N9999999N1-00151-00301100621ADDMA1999999095241MD1310031+9999OA149900151REMSYN076AAXX  08234 06672 33/// /1602 11015 21030 39524 40062 53003 333 91103 91203;
0227066720999992010010900004+46867+008633FM-12+045199999V0201501N000510057019N0100001N1-00131-00301100611ADDAA106000021AY171061AY221061GA1081+005701071GF108991999999004501999999MA1999999095241MD1210051+9999MW1021OA149900771REMSYN100AAXX  09004 06672 01460 81501 11013 21030 39524 40061 52005 69921 70272 333 60005 88719 91115 91209;
0128066720999992010010901004+46867+008633FM-12+045199999V0201401N001019999999N9999999N1-00151-00321100591ADDMA1999999095221MD1010011+9999OA149900101REMSYN076AAXX  09014 06672 33/// /1402 11015 21032 39522 40059 50001 333 91102 91202;
0128066720999992010010902004+46867+008633FM-12+045199999V0201301N001519999999N9999999N1-00141-00331100601ADDMA1999999095231MD1519999+9999OA149900151REMSYN076AAXX  09024 06672 33/// /1303 11014 21033 39523 40060 55/// 333 91103 91203;
0176066720999992010010903004+46867+008633FM-12+045199999V0201701N000510057019N0100001N1-00181-00341100581ADDGA1081+005701071GF108991999999004501999999MA1999999095201MD1719999+9999OA149900151REMSYN082AAXX  09034 06672 32460 81701 11018 21034 39520 40058 57/// 333 88719 91103 91203;
0128066720999992010010904004+46867+008633FM-12+045199999V0201601N000519999999N9999999N1-00181-00311100561ADDMA1999999095181MD1810041+9999OA149900151REMSYN076AAXX  09044 06672 33/// /1601 11018 21031 39518 40056 58004 333 91103 91202;
0128066720999992010010905004+46867+008633FM-12+045199999V0209999C000019999999N9999999N1-00151-00351100511ADDMA1999999095141MD1710091+9999OA149900151REMSYN076AAXX  09054 06672 33/// /0000 11015 21035 39514 40051 57009 333 91103 91203;
0318066720999992010010906004+46867+008633FM-12+045199999V0203401N004610045019N0100001N1-00121-00431100441ADDAA112000021AA224000391AJ100039199999999AL19900091GA1081+004501071GF108991999999004501999999GJ100009IA1279IA2999-00409KA1999N-00211MA1999999095081MD1710121+9999OA149900671REMSYN136AAXX  09064 06672 02460 83409 11012 21043 39508 40044 57012 69922 333 21021 3/104 43003 55000 60005 70003 88715 90768 93100 91113 91209;
0128066720999992010010907004+46867+008633FM-12+045199999V0203401N003119999999N9999999N1-00131-00451100471ADDMA1999999095111MD1710071+9999OA149900671REMSYN076AAXX  09074 06672 33/// /3406 11013 21045 39511 40047 57007 333 91113 91209;
0128066720999992010010908004+46867+008633FM-12+045199999V0203401N004119999999N9999999N1-00141-00481100471ADDMA1999999095101MD1510041+9999OA149900621REMSYN076AAXX  09084 06672 33/// /3408 11014 21048 39510 40047 55004 333 91112 91208;
0176066720999992010010909004+46867+008633FM-12+045199999V0203401N004610045019N0100001N1-00151-00451100491ADDGA1081+004501071GF108991999999004501999999MA1999999095121MD1210041+9999OA149900721REMSYN082AAXX  09094 06672 32460 83409 11015 21045 39512 40049 52004 333 88715 91114 91209;
0128066720999992010010910004+46867+008633FM-12+045199999V0203401N005119999999N9999999N1-00171-00511100481ADDMA1999999095111MD1010001+9999OA149900771REMSYN076AAXX  09104 06672 33/// /3410 11017 21051 39511 40048 50000 333 91115 91210;
0128066720999992010010911004+46867+008633FM-12+045199999V0203301N004619999999N9999999N1-00171-00491100471ADDMA1999999095101MD1010001+9999OA149900771REMSYN076AAXX  09114 06672 33/// /3309 11017 21049 39510 40047 50000 333 91115 91211;
0176066720999992010010912004+46867+008633FM-12+045199999V0203401N004610027019N0100001N1-00191-00491100431ADDGA1081+002701071GF108991999999002501999999MA1999999095061MD1710061+9999OA149900771REMSYN082AAXX  09124 06672 32360 83409 11019 21049 39506 40043 57006 333 88709 91115 91211;
0128066720999992010010913004+46867+008633FM-12+045199999V0203401N005719999999N9999999N1-00221-00521100411ADDMA1999999095031MD1710081+9999OA149900821REMSYN076AAXX  09134 06672 33/// /3411 11022 21052 39503 40041 57008 333 91116 91211;
0128066720999992010010914004+46867+008633FM-12+045199999V0203401N005119999999N9999999N1-00221-00551100461ADDMA1999999095081MD1510021+9999OA149900931REMSYN076AAXX  09144 06672 33/// /3410 11022 21055 39508 40046 55002 333 91118 91211;
0221066720999992010010915004+46867+008633FM-12+045199999V0203301N002610006019N0050001N1-00251-00481100511ADDAA101000021AY171031AY221031GA1081+000601051GF108991999999000751999999MA1999999095121MD1210061+9999MW1721OA149900931REMSYN094AAXX  09154 06672 21150 83305 11025 21048 39512 40051 52006 77272 333 69925 88502 91118 91211;
0145066720999992010010916004+46867+008633FM-12+045199999V0203201N003619999999N9999999N1-00251-00481100501ADDAA101000021MA1999999095111MD1210081+9999OA149900771REMSYN082AAXX  09164 06672 23/// /3207 11025 21048 39511 40050 52008 333 69925 91115 91209;
0128066720999992010010917004+46867+008633FM-12+045199999V0200601N000519999999N9999999N1-00261-00451100511ADDMA1999999095121MD1210041+9999OA149900571REMSYN076AAXX  09174 06672 33/// /0601 11026 21045 39512 40051 52004 333 91111 91207;
0297066720999992010010918004+46867+008633FM-12+045199999V0200101N002110036019N0050001N1-00231-00541100551ADDAA112000591AJ100049199999999AL11200191AY171061AY221061GA1081+003601071GF108991999999004501999999IA1279KA1120M-00111MA1999999095161MD1210041+9999MW1701OA149900931REMSYN124AAXX  09184 06672 01450 80104 11023 21054 39516 40055 52004 69942 77072 333 11011 43004 60005 88712 90766 93101 91118 91211;
0128066720999992010010919004+46867+008633FM-12+045199999V0200801N000519999999N9999999N1-00251-00501100591ADDMA1999999095201MD1210091+9999OA149900621REMSYN076AAXX  09194 06672 33/// /0801 11025 21050 39520 40059 52009 333 91112 91204;
0128066720999992010010920004+46867+008633FM-12+045199999V0201101N000519999999N9999999N1-00261-00471100621ADDMA1999999095221MD1210101+9999OA149900411REMSYN076AAXX  09204 06672 33/// /1101 11026 21047 39522 40062 52010 333 91108 91203;
0204066720999992010010921004+46867+008633FM-12+045199999V0203501N004110036019N0050001N1-00241-00581100671ADDAY171031AY221031GA1081+003601071GF108991999999004501999999MA1999999095271MD1210111+9999MW1701OA149900721REMSYN088AAXX  09214 06672 31450 83508 11024 21058 39527 40067 52011 77072 333 88712 91114 91208;
0128066720999992010010922004+46867+008633FM-12+045199999V0203501N002119999999N9999999N1-00251-00601100711ADDMA1999999095311MD1210111+9999OA149900721REMSYN076AAXX  09224 06672 33/// /3504 11025 21060 39531 40071 52011 333 91114 91208;
0128066720999992010010923004+46867+008633FM-12+045199999V0203401N001519999999N9999999N1-00251-00521100751ADDMA1999999095351MD1210131+9999OA149900621REMSYN076AAXX  09234 06672 33/// /3403 11025 21052 39535 40075 52013 333 91112 91208;
0204066720999992010011000004+46867+008633FM-12+045199999V0200401N000510036019N0040001N1-00271-00531100781ADDAY171061AY221061GA1081+003601071GF108991999999004501999999MA1999999095371MD1210101+9999MW1731OA149900931REMSYN088AAXX  10004 06672 31440 80401 11027 21053 39537 40078 52010 77372 333 88712 91118 91211;
0128066720999992010011001004+46867+008633FM-12+045199999V0203401N003619999999N9999999N1-00261-00571100821ADDMA1999999095411MD1210101+9999OA149900671REMSYN076AAXX  10014 06672 33/// /3407 11026 21057 39541 40082 52010 333 91113 91209;
0087066720999992010011002004+46867+008633FM-12+045199999V0201201N000519999999N9999999N1-00281-00501100881ADDMA1999999095461REMSYN060AAXX  10024 06672 33/// /1201 11028 21050 39546 40088 5////;
0167066720999992010011003004+46867+008633FM-12+045199999V0200301N001010036019N0050001N1-00271-00521100931ADDAY171031AY221031GA1081+003601071GF108991999999004501999999MA1999999095511MW1701REMSYN076AAXX  10034 06672 41450 80302 11027 21052 39551 40093 5//// 77072 333 88712;
0128066720999992010011004004+46867+008633FM-12+045199999V0200301N000519999999N9999999N1-00261-00551101001ADDMA1999999095581MD1310171+9999OA149900361REMSYN076AAXX  10044 06672 33/// /0301 11026 21055 39558 40100 53017 333 91107 91202;
0128066720999992010011005004+46867+008633FM-12+045199999V0209999C000019999999N9999999N1-00281-00521101021ADDMA1999999095601MD1110141+9999OA149900211REMSYN076AAXX  10054 06672 33/// /0000 11028 21052 39560 40102 51014 333 91104 91202;
0333066720999992010011006004+46867+008633FM-12+045199999V0201601N000510015019N0040001N1-00271-00531101071ADDAA124000591AJ100059199999999AL12400091AL29900191AY171061AY221061GA1081+001501071GF108991999999001501999999GJ100009IA1279IA2999-00409KA1999N-00311MA1999999095651MD1110141+9999MW1771OA149900721REMSYN130AAXX  10064 06672 31240 81601 11027 21053 39565 40107 51014 77772 333 21031 3/104 43005 55000 70004 88705 90768 93101 91114 91209;
0128066720999992010011007004+46867+008633FM-12+045199999V0209999C000019999999N9999999N1-00221-00591101151ADDMA1999999095731MD1310151+9999OA149900151REMSYN076AAXX  10074 06672 33/// /0000 11022 21059 39573 40115 53015 333 91103 91202;
0128066720999992010011008004+46867+008633FM-12+045199999V0209999C000019999999N9999999N1-00271-00501101241ADDMA1999999095811MD1319999+9999OA149900151REMSYN076AAXX  10084 06672 33/// /0000 11027 21050 39581 40124 53/// 333 91103 91202;
0204066720999992010011009004+46867+008633FM-12+045199999V0203301N000510027019N0050001N1-00211-00581101321ADDAY171031AY221031GA1081+002701071GF108991999999002501999999MA1999999095891MD1310241+9999MW1021OA149900211REMSYN088AAXX  10094 06672 31350 83301 11021 21058 39589 40132 53024 70272 333 88709 91104 91202;
0128066720999992010011010004+46867+008633FM-12+045199999V0209999C000019999999N9999999N1-00201-00601101371ADDMA1999999095941MD1110211+9999OA149900411REMSYN076AAXX  10104 06672 33/// /0000 11020 21060 39594 40137 51021 333 91108 91205;
0128066720999992010011011004+46867+008633FM-12+045199999V0203601N001019999999N9999999N1-00171-00621101401ADDMA1999999095981MD1110171+9999OA149900411REMSYN076AAXX  10114 06672 33/// /3602 11017 21062 39598 40140 51017 333 91108 91205;
0204066720999992010011012004+46867+008633FM-12+045199999V0203301N002610027019N0070001N1-00161-00631101411ADDAY171061AY221061GA1081+002701071GF108991999999002501999999MA1999999095991MD1110101+9999MW1101OA149900671REMSYN088AAXX  10124 06672 31357 83305 11016 21063 39599 40141 51010 71072 333 88709 91113 91209;
0128066720999992010011013004+46867+008633FM-12+045199999V0203301N002619999999N9999999N1-00181-00631101451ADDMA1999999096021MD1310081+9999OA149900511REMSYN076AAXX  10134 06672 33/// /3305 11018 21063 39602 40145 53008 333 91110 91207;
0128066720999992010011014004+46867+008633FM-12+045199999V0203301N003619999999N9999999N1-00181-00611101501ADDMA1999999096071MD1319999+9999OA149900571REMSYN076AAXX  10144 06672 33/// /3307 11018 21061 39607 40150 53/// 333 91111 91207;
0204066720999992010011015004+46867+008633FM-12+045199999V0203301N004110027019N0070001N1-00181-00651101551ADDAY121031AY221031GA1081+002701071GF108991999999002501999999MA1999999096121MD1310131+9999MW1101OA149900571REMSYN088AAXX  10154 06672 31357 83308 11018 21065 39612 40155 53013 71022 333 88709 91111 91208;
0128066720999992010011016004+46867+008633FM-12+045199999V0203301N002619999999N9999999N1-00181-00641101621ADDMA1999999096181MD1110161+9999OA149900571REMSYN076AAXX  10164 06672 33/// /3305 11018 21064 39618 40162 51016 333 91111 91208;
0128066720999992010011017004+46867+008633FM-12+045199999V0200101N001019999999N9999999N1-00171-00651101661ADDMA1999999096221MD1210151+9999OA149900511REMSYN076AAXX  10174 06672 33/// /0102 11017 21065 39622 40166 52015 333 91110 91207;
0274066720999992010011018004+46867+008633FM-12+045199999V0201301N001510027019N0080001N1-00221-00551101701ADDAJ100059199999999AL19900091AY121061AY221061GA1081+002701071GF108991999999002501999999IA1279KA1120M-00151MA1999999096251MD1110131+9999MW1101OA149900571REMSYN112AAXX  10184 06672 31358 81303 11022 21055 39625 40170 51013 71022 333 11015 43005 88709 90766 93100 91111 91208;
0128066720999992010011019004+46867+008633FM-12+045199999V0201101N000519999999N9999999N1-00221-00541101711ADDMA1999999096261MD1210081+9999OA149900211REMSYN076AAXX  10194 06672 33/// /1101 11022 21054 39626 40171 52008 333 91104 91203;
0128066720999992010011020004+46867+008633FM-12+045199999V0201801N000519999999N9999999N1-00221-00501101721ADDMA1999999096271MD1210051+9999OA149900151REMSYN076AAXX  10204 06672 33/// /1801 11022 21050 39627 40172 52005 333 91103 91203;
0176066720999992010011021004+46867+008633FM-12+045199999V0201301N001010057019N0100001N1-00231-00501101731ADDGA1081+005701071GF108991999999004501999999MA1999999096281MD1210031+9999OA149900511REMSYN082AAXX  10214 06672 32460 81302 11023 21050 39628 40173 52003 333 88719 91110 91207;
0128066720999992010011022004+46867+008633FM-12+045199999V0201301N001019999999N9999999N1-00241-00511101721ADDMA1999999096271MD1010011+9999OA149900151REMSYN076AAXX  10224 06672 33/// /1302 11024 21051 39627 40172 50001 333 91103 91203;
0128066720999992010011023004+46867+008633FM-12+045199999V0202001N001019999999N9999999N1-00201-00521101711ADDMA1999999096271MD1010001+9999OA149900151REMSYN076AAXX  10234 06672 33/// /2002 11020 21052 39627 40171 50000 333 91103 91203;
0176066720999992010011100004+46867+008633FM-12+045199999V0201501N002110057019N0100001N1-00241-00701101721ADDGA1081+005701071GF108991999999004501999999MA1999999096271MD1710011+9999OA149900571REMSYN082AAXX  11004 06672 32460 81504 11024 21070 39627 40172 57001 333 88719 91111 91208;
0128066720999992010011101004+46867+008633FM-12+045199999V0201701N003619999999N9999999N1-00261-00791101741ADDMA1999999096281MD1210011+9999OA149900461REMSYN076AAXX  11014 06672 33/// /1707 11026 21079 39628 40174 52001 333 91109 91207;
0128066720999992010011102004+46867+008633FM-12+045199999V0201601N002119999999N9999999N1-00291-00761101781ADDMA1999999096311MD1319999+9999OA149900461REMSYN076AAXX  11024 06672 33/// /1604 11029 21076 39631 40178 53/// 333 91109 91207;
0176066720999992010011103004+46867+008633FM-12+045199999V0201601N003610036019N0110001N1-00331-00811101801ADDGA1081+003601071GF108991999999004501999999MA1999999096321MD1219999+9999OA149900461REMSYN082AAXX  11034 06672 32461 81607 11033 21081 39632 40180 52/// 333 88712 91109 91207;
0128066720999992010011104004+46867+008633FM-12+045199999V0201601N002619999999N9999999N1-00341-00741101781ADDMA1999999096301MD1010021+9999OA149900461REMSYN076AAXX  11044 06672 33/// /1605 11034 21074 39630 40178 50002 333 91109 91207;
0128066720999992010011105004+46867+008633FM-12+045199999V0201501N002619999999N9999999N1-00321-00791101761ADDMA1999999096291MD1710021+9999OA149900461REMSYN076AAXX  11054 06672 33/// /1505 11032 21079 39629 40176 57002 333 91109 91207;
0323066720999992010011106004+46867+008633FM-12+045199999V0201601N003610045019N0100001N1-00431-00891101771ADDAA124000021AJ100039199999999AL19900091AY121061AY221061GA1081+004501071GF108991999999004501999999GJ100009IA1279IA2999-00509KA1999N-00411MA1999999096281MD1710041+9999MW1051OA149900461REMSYN130AAXX  11064 06672 31460 81607 11043 21089 39628 40177 57004 70522 333 21041 3/105 43003 55000 70000 88715 90768 93100 91109 91207;
0128066720999992010011107004+46867+008633FM-12+045199999V0201701N002619999999N9999999N1-00501-00851101801ADDMA1999999096291MD1510011+9999OA149900461REMSYN076AAXX  11074 06672 33/// /1705 11050 21085 39629 40180 55001 333 91109 91207;
0128066720999992010011108004+46867+008633FM-12+045199999V0201501N002119999999N9999999N1-00491-00901101821ADDMA1999999096311MD1219999+9999OA149900461REMSYN076AAXX  11084 06672 33/// /1504 11049 21090 39631 40182 52/// 333 91109 91207;
0176066720999992010011109004+46867+008633FM-12+045199999V0201501N002112200019N0150001N1-00581-00921101831ADDGA1041+005701071GF104991999999004501999999MA1999999096301MD1010021+9999OA149900461REMSYN082AAXX  11094 06672 32465 41504 11058 21092 39630 40183 50002 333 84719 91109 91207;
0128066720999992010011110004+46867+008633FM-12+045199999V0201701N001519999999N9999999N1-00331-00781101801ADDMA1999999096321MD1219999+9999OA149900361REMSYN076AAXX  11104 06672 33/// /1703 11033 21078 39632 40180 52/// 333 91107 91205;
0128066720999992010011111004+46867+008633FM-12+045199999V0201701N001019999999N9999999N1-00251-00751101771ADDMA1999999096311MD1010001+9999OA149900261REMSYN076AAXX  11114 06672 33/// /1702 11025 21075 39631 40177 50000 333 91105 91203;
0176066720999992010011112004+46867+008633FM-12+045199999V0201801N000510036019N0120001N1-00211-00741101721ADDGA1081+003601071GF108991999999004501999999MA1999999096271MD1710031+9999OA149900461REMSYN082AAXX  11124 06672 32462 81801 11021 21074 39627 40172 57003 333 88712 91109 91207;
0128066720999992010011113004+46867+008633FM-12+045199999V0209999C000019999999N9999999N1-00141-00601101691ADDMA1999999096261MD1710061+9999OA149900151REMSYN076AAXX  11134 06672 33/// /0000 11014 21060 39626 40169 57006 333 91103 91202;
0087066720999992010011114004+46867+008633FM-12+045199999V0203401N001019999999N9999999N1-00141-00561101721ADDMA1999999096291REMSYN060AAXX  11144 06672 33/// /3402 11014 21056 39629 40172 5////;
0204066720999992010011115004+46867+008633FM-12+045199999V0209999C000010036019N0070001N1-00141-00561101771ADDAY111031AY211031GA1081+003601071GF108991999999004501999999MA1999999096331MD1210061+9999MW1051OA149900261REMSYN088AAXX  11154 06672 31457 80000 11014 21056 39633 40177 52006 70511 333 88712 91105 91203;
0128066720999992010011116004+46867+008633FM-12+045199999V0201401N000519999999N9999999N1-00141-00571101791ADDMA1999999096351MD1110091+9999OA149900151REMSYN076AAXX  11164 06672 33/// /1401 11014 21057 39635 40179 51009 333 91103 91202;
0128066720999992010011117004+46867+008633FM-12+045199999V0201301N001519999999N9999999N1-00141-00581101851ADDMA1999999096411MD1310121+9999OA149900151REMSYN076AAXX  11174 06672 33/// /1303 11014 21058 39641 40185 53012 333 91103 91203;
0246066720999992010011118004+46867+008633FM-12+045199999V0201201N002110045019N0040001N1-00141-00581101871ADDAJ100039199999999AL19900091GA1081+004501071GF108991999999004501999999IA1279KA1120M-00131MA1999999096431MD1210101+9999OA149900461REMSYN106AAXX  11184 06672 32440 81204 11014 21058 39643 40187 52010 333 11013 43003 88715 90766 93100 91109 91207;
0128066720999992010011119004+46867+008633FM-12+045199999V0201401N001519999999N9999999N1-00191-00551101901ADDMA1999999096451MD1210101+9999OA149900361REMSYN076AAXX  11194 06672 33/// /1403 11019 21055 39645 40190 52010 333 91107 91204;
0128066720999992010011120004+46867+008633FM-12+045199999V0209999C000019999999N9999999N1-00181-00501101921ADDMA1999999096471MD1210061+9999OA149900361REMSYN076AAXX  11204 06672 33/// /0000 11018 21050 39647 40192 52006 333 91107 91204;
0128066720999992010011121004+46867+008633FM-12+045199999V0201201N000519999999N9999999N1-00231-00441101921ADDMA1999999096461MD1210031+9999OA149900361REMSYN076AAXX  11214 06672 33/// /1201 11023 21044 39646 40192 52003 333 91107 91204;
0128066720999992010011122004+46867+008633FM-12+045199999V0209999C000019999999N9999999N1-00231-00411101921ADDMA1999999096461MD1010011+9999OA149900101REMSYN076AAXX  11224 06672 33/// /0000 11023 21041 39646 40192 50001 333 91102 91201;
0128066720999992010011123004+46867+008633FM-12+045199999V0201701N001519999999N9999999N1-00171-00391101931ADDMA1999999096481MD1310011+9999OA149900151REMSYN076AAXX  11234 06672 33/// /1703 11017 21039 39648 40193 53001 333 91103 91203;
0128066720999992010011200004+46867+008633FM-12+045199999V0201401N001019999999N9999999N1-00191-00411101951ADDMA1999999096491MD1210031+9999OA149900361REMSYN076AAXX  12004 06672 33/// /1402 11019 21041 39649 40195 52003 333 91107 91204;
0128066720999992010011201004+46867+008633FM-12+045199999V0201401N002119999999N9999999N1-00211-00401101941ADDMA1999999096481MD1010021+9999OA149900311REMSYN076AAXX  12014 06672 33/// /1404 11021 21040 39648 40194 50002 333 91106 91204;
0128066720999992010011202004+46867+008633FM-12+045199999V0201901N000519999999N9999999N1-00221-00401101921ADDMA1999999096461MD1819999+9999OA149900311REMSYN076AAXX  12024 06672 33/// /1901 11022 21040 39646 40192 58/// 333 91106 91204;
0221066720999992010011203004+46867+008633FM-12+045199999V0209999C000010015019N0040001N1-00231-00371101921ADDAA101000021AY171031AY221031GA1081+001501071GF108991999999001501999999MA1999999096461MD1710031+9999MW1021OA149900311REMSYN094AAXX  12034 06672 21240 80000 11023 21037 39646 40192 57003 70272 333 69915 88705 91106 91204;
0128066720999992010011204004+46867+008633FM-12+045199999V0201501N001519999999N9999999N1-00231-00371101901ADDMA1999999096441MD1710041+9999OA149900151REMSYN076AAXX  12044 06672 33/// /1503 11023 21037 39644 40190 57004 333 91103 91203;
0128066720999992010011205004+46867+008633FM-12+045199999V0201501N001019999999N9999999N1-00201-00371101881ADDMA1999999096431MD1710031+9999OA149900211REMSYN076AAXX  12054 06672 33/// /1502 11020 21037 39643 40188 57003 333 91104 91203;
0264066720999992010011206004+46867+008633FM-12+045199999V0201401N000519999999N9999999N1-00201-00391101841ADDAA112000091AA224000091AL10600091GJ100369IA2999-00409KA1999N-00251MA1999999096391MD1710071+9999OA149900361REMSYN112AAXX  12064 06672 03/// /1401 11020 21039 39639 40184 57007 69912 333 21025 3/104 55006 60005 70001 91107 91204;EQDQ01  00002PRCP24Q02  00002PRCP12
0128066720999992010011207004+46867+008633FM-12+045199999V0202101N000519999999N9999999N1-00221-00361101801ADDMA1999999096351MD1810091+9999OA149900151REMSYN076AAXX  12074 06672 33/// /2101 11022 21036 39635 40180 58009 333 91103 91203;
0128066720999992010011208004+46867+008633FM-12+045199999V0201201N000519999999N9999999N1-00291-00431101751ADDMA1999999096291MD1819999+9999OA149900151REMSYN076AAXX  12084 06672 33/// /1201 11029 21043 39629 40175 58/// 333 91103 91203;
0204066720999992010011209004+46867+008633FM-12+045199999V0200101N000512200019N0100001N1-00381-00491101701ADDAY111031AY211031GA1031+005701071GF103991999999004501999999MA1999999096221MD1810171+9999MW1051OA149900211REMSYN088AAXX  12094 06672 31460 30101 11038 21049 39622 40170 58017 70511 333 83719 91104 91203;
0128066720999992010011210004+46867+008633FM-12+045199999V0201701N001019999999N9999999N1-00191-00481101581ADDMA1999999096141MD1810211+9999OA149900151REMSYN076AAXX  12104 06672 33/// /1702 11019 21048 39614 40158 58021 333 91103 91203;
0128066720999992010011211004+46867+008633FM-12+045199999V0201501N001019999999N9999999N1-00111-00481101471ADDMA1999999096061MD1810231+9999OA149900151REMSYN076AAXX  12114 06672 33/// /1502 11011 21048 39606 40147 58023 333 91103 91203;
0204066720999992010011212004+46867+008633FM-12+045199999V0201501N000510027019N0120001N1-00041-00381101371ADDAY171061AY271061GA1081+002701071GF108991999999002501999999MA1999999095981MD1710241+9999MW1031OA149900311REMSYN088AAXX  12124 06672 31362 81501 11004 21038 39598 40137 57024 70377 333 88709 91106 91204;
0128066720999992010011213004+46867+008633FM-12+045199999V0209999C000019999999N9999999N1-00021-00361101321ADDMA1999999095931MD1610211+9999OA149900151REMSYN076AAXX  12134 06672 33/// /0000 11002 21036 39593 40132 56021 333 91103 91201;
0087066720999992010011214004+46867+008633FM-12+045199999V0201701N001019999999N9999999N1+00001-00391101251ADDMA1999999095871REMSYN060AAXX  12144 06672 33/// /1702 10000 21039 39587 40125 5////;
0204066720999992010011215004+46867+008633FM-12+045199999V0209999C000012200019N0100001N1-00151-00401101151ADDAY111031AY211031GA1031+003601071GF103991999999004501999999MA1999999095751MD1810231+9999MW1051OA149900151REMSYN088AAXX  12154 06672 31460 30000 11015 21040 39575 40115 58023 70511 333 83712 91103 91203;
0128066720999992010011216004+46867+008633FM-12+045199999V0201601N000519999999N9999999N1-00301-00461101121ADDMA1999999095691MD1710241+9999OA149900151REMSYN076AAXX  12164 06672 33/// /1601 11030 21046 39569 40112 57024 333 91103 91202;
0128066720999992010011217004+46867+008633FM-12+045199999V0201901N000519999999N9999999N1-00341-00501101071ADDMA1999999095631MD1610241+9999OA149900151REMSYN076AAXX  12174 06672 33/// /1901 11034 21050 39563 40107 56024 333 91103 91202;
0246066720999992010011218004+46867+008633FM-12+045199999V0201701N000510045019N0070001N1-00561-00651101091ADDAJ100029199999999AL19900091GA1081+004501071GF108991999999004501999999IA1279KA1120M+00011MA1999999095611MD1710141+9999OA149900151REMSYN106AAXX  12184 06672 32457 81701 11056 21065 39561 40109 57014 333 10001 43002 88715 90766 93100 91103 91203;
0128066720999992010011219004+46867+008633FM-12+045199999V0201501N001019999999N9999999N1-00551-00651101071ADDMA1999999095591MD1710101+9999OA149900311REMSYN076AAXX  12194 06672 33/// /1502 11055 21065 39559 40107 57010 333 91106 91202;
0128066720999992010011220004+46867+008633FM-12+045199999V0201501N001019999999N9999999N1-00561-00671101021ADDMA1999999095541MD1710091+9999OA149900311REMSYN076AAXX  12204 06672 33/// /1502 11056 21067 39554 40102 57009 333 91106 91202;
0176066720999992010011221004+46867+008633FM-12+045199999V0201501N008210057019N0070001N1+00501-00791100641ADDGA1061+005701071GF106991999999004501999999MA1999999095391MD1710221+9999OA149901541REMSYN082AAXX  12214 06672 32457 61516 10050 21079 39539 40064 57022 333 86719 91130 91216;
0128066720999992010011222004+46867+008633FM-12+045199999V0201501N011819999999N9999999N1+00581-00881100571ADDMA1999999095341MD1710251+9999OA149902061REMSYN076AAXX  12224 06672 33/// /1523 10058 21088 39534 40057 57025 333 91140 91223;
0128066720999992010011223004+46867+008633FM-12+045199999V0201501N012319999999N9999999N1+00591-00801100481ADDMA1999999095251MD1710291+9999OA149902261REMSYN076AAXX  12234 06672 33/// /1524 10059 21080 39525 40048 57029 333 91144 91224;
0176066720999992010011300004+46867+008633FM-12+045199999V0201601N009810057019N0070001N1+00591-00761100511ADDGA1061+005701071GF106991999999004501999999MA1999999095281MD1710111+9999OA149902261REMSYN082AAXX  13004 06672 32457 61619 10059 21076 39528 40051 57011 333 86719 91144 91224;
0147066720999992010011301004+46867+008633FM-12+045199999V0201501N008219999999N9999999N1+00611-00771100571ADDMA1999999095341MD1410001+9999OA149902211REMSYN076AAXX  13014 06672 33/// /1516 10061 21077 39534 40057 53000 333 91143 91227;EQDQ01+000032APCTEN
0128066720999992010011302004+46867+008633FM-12+045199999V0203401N006219999999N9999999N1+00021-00331100771ADDMA1999999095421MD1219999+9999OA149902211REMSYN076AAXX  13024 06672 33/// /3412 10002 21033 39542 40077 52/// 333 91143 91227;
0204066720999992010011303004+46867+008633FM-12+045199999V0203301N001510045019N0060001N1+00011-00351100641ADDAY121031AY221031GA1081+004501071GF108991999999004501999999MA1999999095291MD1019999+9999MW1051OA149902261REMSYN088AAXX  13034 06672 31456 83303 10001 21035 39529 40064 50/// 70522 333 88715 91144 91227;
0128066720999992010011304004+46867+008633FM-12+045199999V0203201N003119999999N9999999N1+00081-00281100571ADDMA1999999095241MD1710101+9999OA149900881REMSYN076AAXX  13044 06672 33/// /3206 10008 21028 39524 40057 57010 333 91117 91212;
0128066720999992010011305004+46867+008633FM-12+045199999V0203401N003619999999N9999999N1+00061-00251100561ADDMA1999999095231MD1710191+9999OA149900721REMSYN076AAXX  13054 06672 33/// /3407 10006 21025 39523 40056 57019 333 91114 91210;
0342066720999992010011306004+46867+008633FM-12+045199999V0203301N004110105019N0100001N1+00071-00281100601ADDAA124000091AJ100029199999999AL19900091AY121061AY221061GA1061+010501071GF106991999999012501999999GJ100909IA1309IA2999-01309KA1999N-00581MA1999999095271MD1510021+9999MW1051OA149902261REMSYN130AAXX  13064 06672 31660 63308 10007 21028 39527 40060 55002 70522 333 21058 3/113 42002 55015 70000 86735 90768 93100 91144 91227;EQDQ01  00002PRCP24
0128066720999992010011307004+46867+008633FM-12+045199999V0203301N002619999999N9999999N1+00081-00261100651ADDMA1999999095321MD1210081+9999OA149900671REMSYN076AAXX  13074 06672 33/// /3305 10008 21026 39532 40065 52008 333 91113 91210;
0128066720999992010011308004+46867+008633FM-12+045199999V0203401N005119999999N9999999N1+00091-00211100761ADDMA1999999095421MD1310191+9999OA149900771REMSYN076AAXX  13084 06672 33/// /3410 10009 21021 39542 40076 53019 333 91115 91211;
0128066720999992010011309004+46867+008633FM-12+045199999V0203401N003119999999N9999999N1+00091-00241100821ADDMA1999999095481MD1310211+9999OA149900771REMSYN076AAXX  13094 06672 33/// /3406 10009 21024 39548 40082 53021 333 91115 91211;
0128066720999992010011310004+46867+008633FM-12+045199999V0203301N003119999999N9999999N1+00111-00211100881ADDMA1999999095541MD1110221+9999OA149900771REMSYN076AAXX  13104 06672 33/// /3306 10011 21021 39554 40088 51022 333 91115 91210;
0128066720999992010011311004+46867+008633FM-12+045199999V0203301N002619999999N9999999N1+00141-00201100881ADDMA1999999095551MD1210131+9999OA149900571REMSYN076AAXX  13114 06672 33/// /3305 10014 21020 39555 40088 52013 333 91111 91209;
0204066720999992010011312004+46867+008633FM-12+045199999V0203401N002110150019N0100001N1+00151-00201100841ADDAY121061AY221061GA1081+015001041GF108991999999017501999999MA1999999095511MD1010031+9999MW1101OA149902211REMSYN088AAXX  13124 06672 31760 83404 10015 21020 39551 40084 50003 71022 333 88450 91143 91227;
0128066720999992010011313004+46867+008633FM-12+045199999V0203401N001519999999N9999999N1+00171-00191100841ADDMA1999999095511MD1710031+9999OA149900361REMSYN076AAXX  13134 06672 33/// /3403 10017 21019 39551 40084 57003 333 91107 91205;
0128066720999992010011314004+46867+008633FM-12+045199999V0203401N003119999999N9999999N1+00171-00161100891ADDMA1999999095561MD1319999+9999OA149900461REMSYN076AAXX  13144 06672 33/// /3406 10017 21016 39556 40089 53/// 333 91109 91206;
0204066720999992010011315004+46867+008633FM-12+045199999V0203201N001010027019N0050001N1+00201-00161100961ADDAY121031AY221031GA1081+002701071GF108991999999002501999999MA1999999095631MD1210121+9999MW1101OA149900571REMSYN088AAXX  13154 06672 31350 83202 10020 21016 39563 40096 52012 71022 333 88709 91111 91209;
0128066720999992010011316004+46867+008633FM-12+045199999V0201701N001019999999N9999999N1+00161-00111101001ADDMA1999999095661MD1110151+9999OA149900411REMSYN076AAXX  13164 06672 33/// /1702 10016 21011 39566 40100 51015 333 91108 91206;
0128066720999992010011317004+46867+008633FM-12+045199999V0202601N000519999999N9999999N1+00151-00081101041ADDMA1999999095701MD1110141+9999OA149900151REMSYN076AAXX  13174 06672 33/// /2601 10015 21008 39570 40104 51014 333 91103 91202;
0274066720999992010011318004+46867+008633FM-12+045199999V0202601N000510045019N0040001N1+00141-00071101091ADDAJ100019199999999AL19900091AY121061AY221061GA1081+004501071GF108991999999004501999999IA1309KA1120M+00201MA1999999095751MD1310121+9999MW1101OA149900771REMSYN112AAXX  13184 06672 31440 82601 10014 21007 39575 40109 53012 71022 333 10020 42001 88715 90766 93100 91115 91211;
0128066720999992010011319004+46867+008633FM-12+045199999V0201301N000519999999N9999999N1+00121-00051101131ADDMA1999999095781MD1310121+9999OA149900101REMSYN076AAXX  13194 06672 33/// /1301 10012 21005 39578 40113 53012 333 91102 91202;
0146066720999992010011321004+46867+008633FM-12+045199999V02099999999990015019N0060001N1+99999+99999999999ADDAY171031AY221031GA1081+001501071GF108991999999001501999999MW1681REMSYN070AAXX  13214 06672 41256 8//// 1//// 2//// 3//// 5//// 76872 333 88705;
0146066720999992010011400004+46867+008633FM-12+045199999V02099999999992200019N0100001N1+99999+99999999999ADDAY171061AY211061GA1031+004501071GF103991999999004501999999MW1011REMSYN070AAXX  14004 06672 41460 3//// 1//// 2//// 3//// 5//// 70171 333 83715;
0128066720999992010011401004+46867+008633FM-12+045199999V0201501N001019999999N9999999N1-00171-00241101031ADDMA1999999095631MD1719999+9999OA149900151REMSYN076AAXX  14014 06672 33/// /1502 11017 21024 39563 40103 57/// 333 91103 91202;
0128066720999992010011402004+46867+008633FM-12+045199999V0201501N002619999999N9999999N1+00041-00081100951ADDMA1999999095591MD1719999+9999OA149900311REMSYN076AAXX  14024 06672 33/// /1505 10004 21008 39559 40095 57/// 333 91106 91205;
0139066720999992010011403004+46867+008633FM-12+045199999V0209999C000012200019N0100001N1-00041-00151100901ADDGA1031+002701071GF103991999999002501999999MA1999999095531REMSYN070AAXX  14034 06672 32360 30000 11004 21015 39553 40090 5//// 333 83709;
0128066720999992010011404004+46867+008633FM-12+045199999V0201601N000519999999N9999999N1-00071-00161100911ADDMA1999999095531MD1710101+9999OA149900311REMSYN076AAXX  14044 06672 33/// /1601 11007 21016 39553 40091 57010 333 91106 91204;
0128066720999992010011405004+46867+008633FM-12+045199999V0201701N002119999999N9999999N1+00031-00091100901ADDMA1999999095541MD1510051+9999OA149900261REMSYN076AAXX  14054 06672 33/// /1704 10003 21009 39554 40090 55005 333 91105 91204;
0346066720999992010011406004+46867+008633FM-12+045199999V0201501N002110036019N0100001N1+00021-00101100851ADDAA112000021AA224000021AJ100019199999999AL19900091AY121061AY221061GA1081+003601071GF108991999999004501999999GJ100009IA1309IA2999-00509KA1999N-00251MA1999999095491MD1810041+9999MW1101OA149900361REMSYN142AAXX  14064 06672 01460 81504 10002 21010 39549 40085 58004 69912 71022 333 21025 3/105 42001 55000 60005 70001 88712 90768 93100 91107 91205;
0128066720999992010011407004+46867+008633FM-12+045199999V0201501N002119999999N9999999N1-00061-00151100821ADDMA1999999095451MD1710081+9999OA149900361REMSYN076AAXX  14074 06672 33/// /1504 11006 21015 39545 40082 57008 333 91107 91205;
0128066720999992010011408004+46867+008633FM-12+045199999V0201501N001519999999N9999999N1-00041-00171100821ADDMA1999999095451MD1719999+9999OA149900311REMSYN076AAXX  14084 06672 33/// /1503 11004 21017 39545 40082 57/// 333 91106 91204;
0176066720999992010011409004+46867+008633FM-12+045199999V0201501N000510015019N0080001N1-00071-00181100781ADDGA1081+001501071GF108991999999001501999999MA1999999095411MD1710081+9999OA149900361REMSYN082AAXX  14094 06672 32258 81501 11007 21018 39541 40078 57008 333 88705 91107 91205;
0128066720999992010011410004+46867+008633FM-12+045199999V0201901N000519999999N9999999N1+00121-00061100721ADDMA1999999095391MD1710061+9999OA149900261REMSYN076AAXX  14104 06672 33/// /1901 10012 21006 39539 40072 57006 333 91105 91204;
0128066720999992010011411004+46867+008633FM-12+045199999V0203401N004119999999N9999999N1+00201-00091100641ADDMA1999999095331MD1810121+9999OA149900511REMSYN076AAXX  14114 06672 33/// /3408 10020 21009 39533 40064 58012 333 91110 91208;
0176066720999992010011412004+46867+008633FM-12+045199999V0203401N005110570019N0180001N1+00271-00051100551ADDGA1051+057001001GF105991999999999999999999MA1999999095261MD1810151+9999OA149900721REMSYN082AAXX  14124 06672 32968 53410 10027 21005 39526 40055 58015 333 85069 91114 91210;
0128066720999992010011413004+46867+008633FM-12+045199999V0203301N004619999999N9999999N1+00291-00051100491ADDMA1999999095211MD1610181+9999OA149900721REMSYN076AAXX  14134 06672 33/// /3309 10029 21005 39521 40049 56018 333 91114 91210;
0128066720999992010011414004+46867+008633FM-12+045199999V0203401N006219999999N9999999N1+00291-00061100541ADDMA1999999095251MD1510081+9999OA149900881REMSYN076AAXX  14144 06672 33/// /3412 10029 21006 39525 40054 55008 333 91117 91212;
0176066720999992010011415004+46867+008633FM-12+045199999V0203401N005710360019N0160001N1+00251-00051100631ADDGA1061+036001031GF106991999999999999999999MA1999999095331MD1210071+9999OA149900981REMSYN082AAXX  14154 06672 32966 63411 10025 21005 39533 40063 52007 333 86362 91119 91213;
0128066720999992010011416004+46867+008633FM-12+045199999V0203301N003619999999N9999999N1+00231-00081100661ADDMA1999999095361MD1110151+9999OA149900981REMSYN076AAXX  14164 06672 33/// /3307 10023 21008 39536 40066 51015 333 91119 91213;
0128066720999992010011417004+46867+008633FM-12+045199999V0203301N002619999999N9999999N1+00171-00081100701ADDMA1999999095381MD1110131+9999OA149900931REMSYN076AAXX  14174 06672 33/// /3305 10017 21008 39538 40070 51013 333 91118 91212;
0246066720999992010011418004+46867+008633FM-12+045199999V0200901N001510150019N0170001N1+00161-00111100781ADDAJ100019199999999AL19900091GA1081+015001061GF108991999999017501999999IA1309KA1120M+00311MA1999999095461MD1310131+9999OA149900981REMSYN106AAXX  14184 06672 32767 80903 10016 21011 39546 40078 53013 333 10031 42001 88650 90766 93100 91119 91213;
0128066720999992010011419004+46867+008633FM-12+045199999V0200101N001519999999N9999999N1+00111-00121100891ADDMA1999999095551MD1310191+9999OA149900621REMSYN076AAXX  14194 06672 33/// /0103 10011 21012 39555 40089 53019 333 91112 91207;
0128066720999992010011420004+46867+008633FM-12+045199999V0201201N001019999999N9999999N1-00021-00191101021ADDMA1999999095651MD1310271+9999OA149900511REMSYN076AAXX  14204 06672 33/// /1202 11002 21019 39565 40102 53027 333 91110 91207;
0128066720999992010011421004+46867+008633FM-12+045199999V0209999C000019999999N9999999N1+00061-00151101111ADDMA1999999095751MD1310291+9999OA149900931REMSYN076AAXX  14214 06672 33/// /0000 10006 21015 39575 40111 53029 333 91118 91212;
0128066720999992010011422004+46867+008633FM-12+045199999V0201701N001519999999N9999999N1+00061-00151101211ADDMA1999999095841MD1210291+9999OA149900261REMSYN076AAXX  14224 06672 33/// /1703 10006 21015 39584 40121 52029 333 91105 91204;
0128066720999992010011423004+46867+008633FM-12+045199999V0201601N001019999999N9999999N1+00021-00161101311ADDMA1999999095931MD1210281+9999OA149900261REMSYN076AAXX  14234 06672 33/// /1602 10002 21016 39593 40131 52028 333 91105 91204;
0176066720999992010011500004+46867+008633FM-12+045199999V0201701N000510027019N0100001N1+00071-00131101371ADDGA1081+002701071GF108991999999002501999999MA1999999096001MD1110251+9999OA149900981REMSYN082AAXX  15004 06672 32360 81701 10007 21013 39600 40137 51025 333 88709 91119 91213;
0128066720999992010011501004+46867+008633FM-12+045199999V0201701N001519999999N9999999N1+00091-00101101431ADDMA1999999096061MD1110221+9999OA149900151REMSYN076AAXX  15014 06672 33/// /1703 10009 21010 39606 40143 51022 333 91103 91203;
0128066720999992010011502004+46867+008633FM-12+045199999V0201801N002119999999N9999999N1+00131-00181101521ADDMA1999999096151MD1210221+9999OA149900261REMSYN076AAXX  15024 06672 33/// /1804 10013 21018 39615 40152 52022 333 91105 91204;
0139066720999992010011503004+46867+008633FM-12+045199999V0201701N001510027019N0100001N1+00091-00181101631ADDGA1081+002701071GF108991999999002501999999MA1999999096251REMSYN070AAXX  15034 06672 32360 81703 10009 21018 39625 40163 5//// 333 88709;
0128066720999992010011504004+46867+008633FM-12+045199999V0201801N001519999999N9999999N1+00081-00251101711ADDMA1999999096321MD1110261+9999OA149900261REMSYN076AAXX  15044 06672 33/// /1803 10008 21025 39632 40171 51026 333 91105 91205;
0128066720999992010011505004+46867+008633FM-12+045199999V0201901N001019999999N9999999N1+00081-00231101831ADDMA1999999096431MD1210281+9999OA149900211REMSYN076AAXX  15054 06672 33/// /1902 10008 21023 39643 40183 52028 333 91104 91203;
0342066720999992010011506004+46867+008633FM-12+045199999V0201701N002110036019N0100001N1+00061-00241101941ADDAA124000091AJ100019199999999AL19900091AY121061AY221061GA1081+003601071GF108991999999004501999999GJ101989IA1309IA2999-00309KA1999N-00041MA1999999096531MD1210281+9999MW1051OA149900511REMSYN130AAXX  15064 06672 31460 81704 10006 21024 39653 40194 52028 70522 333 21004 3/103 42001 55033 70000 88712 90768 93100 91110 91207;EQDQ01  00002PRCP24
0128066720999992010011507004+46867+008633FM-12+045199999V0201901N001519999999N9999999N1+00041-00311102041ADDMA1999999096631MD1210311+9999OA149900261REMSYN076AAXX  15074 06672 33/// /1903 10004 21031 39663 40204 52031 333 91105 91204;
0128066720999992010011508004+46867+008633FM-12+045199999V0201701N001019999999N9999999N1-00171-00461102151ADDMA1999999096691MD1119999+9999OA149900261REMSYN076AAXX  15084 06672 33/// /1702 11017 21046 39669 40215 51/// 333 91105 91204;
0176066720999992010011509004+46867+008633FM-12+045199999V0201701N001512200019N0190001N1-00091-00461102241ADDGA1031+018001001GF103991999999017501999999MA1999999096791MD1210261+9999OA149900261REMSYN082AAXX  15094 06672 32769 31703 11009 21046 39679 40224 52026 333 83056 91105 91204;
0128066720999992010011510004+46867+008633FM-12+045199999V0201501N001019999999N9999999N1+00071-00311102271ADDMA1999999096851MD1110221+9999OA149900211REMSYN076AAXX  15104 06672 33/// /1502 10007 21031 39685 40227 51022 333 91104 91203;
0128066720999992010011511004+46867+008633FM-12+045199999V0201501N000519999999N9999999N1+00221-00241102251ADDMA1999999096861MD1110171+9999OA149900211REMSYN076AAXX  15114 06672 33/// /1501 10022 21024 39686 40225 51017 333 91104 91203;
0176066720999992010011512004+46867+008633FM-12+045199999V0203401N002112200019N0220001N1+00231-00201102271ADDGA1041+021001001GF104991999999022501999999MA1999999096881MD1210091+9999OA149900311REMSYN082AAXX  15124 06672 32872 43404 10023 21020 39688 40227 52009 333 84057 91106 91205;
0128066720999992010011513004+46867+008633FM-12+045199999V0203501N002119999999N9999999N1+00311-00111102301ADDMA1999999096921MD1210071+9999OA149900311REMSYN076AAXX  15134 06672 33/// /3504 10031 21011 39692 40230 52007 333 91106 91204;
0128066720999992010011514004+46867+008633FM-12+045199999V0203401N002119999999N9999999N1+00251-00141102391ADDMA1999999097001MD1310141+9999OA149900461REMSYN076AAXX  15144 06672 33/// /3404 10025 21014 39700 40239 53014 333 91109 91207;
0204066720999992010011515004+46867+008633FM-12+045199999V0202301N000510420019N0120001N1+00281-00111102461ADDAY111031AY211031GA1081+042001041GF108991999999999999999999MA1999999097071MD1310191+9999MW1051OA149900461REMSYN088AAXX  15154 06672 31962 82301 10028 21011 39707 40246 53019 70511 333 88464 91109 91207;
0128066720999992010011516004+46867+008633FM-12+045199999V0202701N001019999999N9999999N1+00191-00141102551ADDMA1999999097141MD1210221+9999OA149900211REMSYN076AAXX  15164 06672 33/// /2702 10019 21014 39714 40255 52022 333 91104 91203;
0128066720999992010011517004+46867+008633FM-12+045199999V0201801N001519999999N9999999N1+00091-00181102571ADDMA1999999097141MD1210141+9999OA149900211REMSYN076AAXX  15174 06672 33/// /1803 10009 21018 39714 40257 52014 333 91104 91203;
0265066720999992010011518004+46867+008633FM-12+045199999V0202701N001019999999N0080001N1+00001-00221102641ADDAJ199992999999999AL19900091GA1041+015001031GF108991999999017501999999IA1259KA1120M+00331MA1999999097191MD1210121+9999OA149900461REMSYN106AAXX  15184 06672 32758 82702 10000 21022 39719 40264 52012 333 10033 41998 84350 90766 93100 91109 91207;EQDQ01  09982SNDP  
0128066720999992010011519004+46867+008633FM-12+045199999V0201701N001519999999N9999999N1-00131-00291102701ADDMA1999999097221MD1210081+9999OA149900261REMSYN076AAXX  15194 06672 33/// /1703 11013 21029 39722 40270 52008 333 91105 91203;
0128066720999992010011520004+46867+008633FM-12+045199999V0201601N000519999999N9999999N1-00061-00261102691ADDMA1999999097221MD1110081+9999OA149900261REMSYN076AAXX  15204 06672 33/// /1601 11006 21026 39722 40269 51008 333 91105 91203;
0204066720999992010011521004+46867+008633FM-12+045199999V0201801N000510036019N0080001N1-00041-00211102711ADDAY121031AY221031GA1071+003601071GF107991999999004501999999MA1999999097241MD1110051+9999MW1101OA149900261REMSYN088AAXX  15214 06672 31458 71801 11004 21021 39724 40271 51005 71022 333 87712 91105 91203;
0128066720999992010011522004+46867+008633FM-12+045199999V0201701N002119999999N9999999N1+00011-00201102681ADDMA1999999097231MD1210011+9999OA149900311REMSYN076AAXX  15224 06672 33/// /1704 10001 21020 39723 40268 52001 333 91106 91205;
0128066720999992010011523004+46867+008633FM-12+045199999V0202001N001019999999N9999999N1-00061-00281102671ADDMA1999999097201MD1810021+9999OA149900311REMSYN076AAXX  15234 06672 33/// /2002 11006 21028 39720 40267 58002 333 91106 91205;
0170066720999992010011600004+46867+008633FM-12+045199999V0201401N001012200019N0150001N1-00281-00441102741ADDGA1001+999999999GF100991001001999999001001MA1999999097221MD1710021+9999OA149900461REMSYN076AAXX  16004 06672 32/65 01402 11028 21044 39722 40274 57002 333 91109 91207;
0128066720999992010011601004+46867+008633FM-12+045199999V0201801N002619999999N9999999N1-00101-00351102691ADDMA1999999097211MD1510021+9999OA149900311REMSYN076AAXX  16014 06672 33/// /1805 11010 21035 39721 40269 55002 333 91106 91205;
0128066720999992010011602004+46867+008633FM-12+045199999V0201601N001519999999N9999999N1-00051-00281102671ADDMA1999999097201MD1010001+9999OA149900311REMSYN076AAXX  16024 06672 33/// /1603 11005 21028 39720 40267 50000 333 91106 91205;
0204066720999992010011603004+46867+008633FM-12+045199999V0201701N001010036019N0050001N1-00051-00271102621ADDAY111031AY211031GA1081+003601071GF108991999999004501999999MA1999999097161MD1719999+9999MW1101OA149900311REMSYN088AAXX  16034 06672 31450 81702 11005 21027 39716 40262 57/// 71011 333 88712 91106 91205;
0128066720999992010011604004+46867+008633FM-12+045199999V0201501N001519999999N9999999N1-00091-00351102581ADDMA1999999097111MD1710101+9999OA149900261REMSYN076AAXX  16044 06672 33/// /1503 11009 21035 39711 40258 57010 333 91105 91203;
0128066720999992010011605004+46867+008633FM-12+045199999V0201801N000519999999N9999999N1-00201-00381102591ADDMA1999999097101MD1710101+9999OA149900261REMSYN076AAXX  16054 06672 33/// /1801 11020 21038 39710 40259 57010 333 91105 91203;
0314066720999992010011606004+46867+008633FM-12+045199999V0201401N002610105019N0150001N1-00191-00441102491ADDAA124000091AJ100019199999999AL19900091GA1081+010501071GF108991999999012501999999GJ102289IA1259IA2999-00709KA1999N-00281MA1999999097011MD1710151+9999OA149900361REMSYN124AAXX  16064 06672 32665 81405 11019 21044 39701 40249 57015 333 21028 3/107 41001 55038 70000 88735 90768 93100 91107 91205;EQDQ01  00002PRCP24
0128066720999992010011607004+46867+008633FM-12+045199999V0201101N001519999999N9999999N1-00251-00441102521ADDMA1999999097021MD1710091+9999OA149900361REMSYN076AAXX  16074 06672 33/// /1103 11025 21044 39702 40252 57009 333 91107 91205;
0128066720999992010011608004+46867+008633FM-12+045199999V0201001N001519999999N9999999N1-00271-00491102431ADDMA1999999096931MD1710171+9999OA149900311REMSYN076AAXX  16084 06672 33/// /1003 11027 21049 39693 40243 57017 333 91106 91205;
0170066720999992010011609004+46867+008633FM-12+045199999V0202301N000512200019N0250001N1-00271-00461102371ADDGA1001+999999999GF100991001001999999001001MA1999999096881MD1710131+9999OA149900361REMSYN076AAXX  16094 06672 32/75 02301 11027 21046 39688 40237 57013 333 91107 91205;
0128066720999992010011610004+46867+008633FM-12+045199999V0201701N000519999999N9999999N1-00071-00401102301ADDMA1999999096851MD1710171+9999OA149900211REMSYN076AAXX  16104 06672 33/// /1701 11007 21040 39685 40230 57017 333 91104 91203;
0128066720999992010011611004+46867+008633FM-12+045199999V0202901N001019999999N9999999N1+00051-00321102251ADDMA1999999096831MD1710101+9999OA149900211REMSYN076AAXX  16114 06672 33/// /2902 10005 21032 39683 40225 57010 333 91104 91203;
0176066720999992010011612004+46867+008633FM-12+045199999V0203101N002112200019N0250001N1+00121-00251102181ADDGA1011+003601071GF101991999999004501999999MA1999999096771MD1710111+9999OA149900461REMSYN082AAXX  16124 06672 32475 13104 10012 21025 39677 40218 57011 333 81712 91109 91205;
0128066720999992010011613004+46867+008633FM-12+045199999V0203401N002119999999N9999999N1+00101-00271102161ADDMA1999999096751MD1710101+9999OA149900461REMSYN076AAXX  16134 06672 33/// /3404 10010 21027 39675 40216 57010 333 91109 91205;
0128066720999992010011614004+46867+008633FM-12+045199999V0203201N000519999999N9999999N1+00081-00271102141ADDMA1999999096731MD1719999+9999OA149900571REMSYN076AAXX  16144 06672 33/// /3201 10008 21027 39673 40214 57/// 333 91111 91207;
0176066720999992010011615004+46867+008633FM-12+045199999V0201801N001010420019N0200001N1+00071-00261102021ADDGA1081+042001041GF108991999999999999999999MA1999999096611MD1810161+9999OA149900571REMSYN082AAXX  16154 06672 32970 81802 10007 21026 39661 40202 58016 333 88464 91111 91207;
0128066720999992010011616004+46867+008633FM-12+045199999V0202601N000519999999N9999999N1+00071-00261102011ADDMA1999999096601MD1710151+9999OA149900211REMSYN076AAXX  16164 06672 33/// /2601 10007 21026 39660 40201 57015 333 91104 91203;
0128066720999992010011617004+46867+008633FM-12+045199999V0209999C000019999999N9999999N1+00021-00241101981ADDMA1999999096561MD1710171+9999OA149900211REMSYN076AAXX  16174 06672 33/// /0000 10002 21024 39656 40198 57017 333 91104 91204;
0246066720999992010011618004+46867+008633FM-12+045199999V0203101N001510057019N0120001N1+00091-00191102021ADDAJ100019199999999AL19900091GA1081+005701071GF108991999999004501999999IA1259KA1120M+00121MA1999999096621MD1310011+9999OA149900571REMSYN106AAXX  16184 06672 32462 83103 10009 21019 39662 40202 53001 333 10012 41001 88719 90766 93100 91111 91207;
0128066720999992010011619004+46867+008633FM-12+045199999V0201601N001519999999N9999999N1+00041-00201102021ADDMA1999999096611MD1310011+9999OA149900361REMSYN076AAXX  16194 06672 33/// /1603 10004 21020 39661 40202 53001 333 91107 91204;
0128066720999992010011620004+46867+008633FM-12+045199999V0200801N001019999999N9999999N1+00041-00201101891ADDMA1999999096481MD1810081+9999OA149900361REMSYN076AAXX  16204 06672 33/// /0802 10004 21020 39648 40189 58008 333 91107 91204;
0176066720999992010011621004+46867+008633FM-12+045199999V0201001N001010045019N0120001N1+00031-00181101801ADDGA1081+004501071GF108991999999004501999999MA1999999096401MD1710221+9999OA149900361REMSYN082AAXX  16214 06672 32462 81002 10003 21018 39640 40180 57022 333 88715 91107 91204;
0128066720999992010011622004+46867+008633FM-12+045199999V0209999C000019999999N9999999N1+00021-00151101751ADDMA1999999096351MD1710261+9999OA149900211REMSYN076AAXX  16224 06672 33/// /0000 10002 21015 39635 40175 57026 333 91104 91203;
0128066720999992010011623004+46867+008633FM-12+045199999V0201001N002619999999N9999999N1+00181-00141101881ADDMA1999999096501MD1310021+9999OA149900721REMSYN076AAXX  16234 06672 33/// /1005 10018 21014 39650 40188 53002 333 91114 91208;
0176066720999992010011700004+46867+008633FM-12+045199999V0201601N003110045019N0120001N1+00191-00161102051ADDGA1081+004501071GF108991999999004501999999MA1999999096661MD1310261+9999OA149900721REMSYN082AAXX  17004 06672 32462 81606 10019 21016 39666 40205 53026 333 88715 91114 91208;
0145066720999992010011701004+46867+008633FM-12+045199999V0201401N003119999999N9999999N1+00141-00031102101ADDAA101000021MA1999999096701MD1210351+9999OA149900511REMSYN082AAXX  17014 06672 23/// /1406 10014 21003 39670 40210 52035 333 69915 91110 91206;
