0128066790999992010010100004+47483+008900FM-12+053699999V0209999C000019999999N9999999N1+00261+00261099331ADDMA1999999092951MD1710131+9999OA149900771REMSYN076AAXX  01004 06679 33/// /0000 10026 20026 39295 49933 57013 333 91115 91208;
0128066790999992010010101004+47483+008900FM-12+053699999V0201701N000519999999N9999999N1+00251+00241099281ADDMA1999999092911MD1710121+9999OA149900151REMSYN076AAXX  01014 06679 33/// /1701 10025 20024 39291 49928 57012 333 91103 91202;
0128066790999992010010102004+47483+008900FM-12+053699999V0209999C000019999999N9999999N1+00271+00261099301ADDMA1999999092931MD1719999+9999OA149900151REMSYN076AAXX  01024 06679 33/// /0000 10027 20026 39293 49930 57/// 333 91103 91202;
0087066790999992010010103004+47483+008900FM-12+053699999V0201001N001019999999N9999999N1+00311+00251099201ADDMA1999999092841REMSYN060AAXX  01034 06679 43/// /1002 10031 20025 39284 49920 5////;
0087066790999992010010104004+47483+008900FM-12+053699999V0200501N000519999999N9999999N1+00281+00231099161ADDMA1999999092801REMSYN060AAXX  01044 06679 33/// /0501 10028 20023 39280 49916 5////;
0128066790999992010010105004+47483+008900FM-12+053699999V0209999C000019999999N9999999N1+00281+00231099131ADDMA1999999092771MD1610161+9999OA149900211REMSYN076AAXX  01054 06679 33/// /0000 10028 20023 39277 49913 56016 333 91104 91202;
0206066790999992010010106004+47483+008900FM-12+053699999V0203301N000519999999N9999999N1+00251+00211099141ADDAA124006991AL14800691GJ100009IA2999+00009KA1999N+00231MA1999999092771MD1710071+9999OA149900211REMSYN100AAXX  01064 06679 33/// /3301 10025 20021 39277 49914 57007 333 20023 3/000 55000 70068 91104 91202;
0128066790999992010010107004+47483+008900FM-12+053699999V0203601N001019999999N9999999N1+00211+00181099141ADDMA1999999092771MD1710031+9999OA149900151REMSYN076AAXX  01074 06679 33/// /3602 10021 20018 39277 49914 57003 333 91103 91202;
0128066790999992010010108004+47483+008900FM-12+053699999V0200801N000519999999N9999999N1+00231+00201099171ADDMA1999999092801MD1210031+9999OA149900151REMSYN076AAXX  01084 06679 33/// /0801 10023 20020 39280 49917 52003 333 91103 91202;
0128066790999992010010109004+47483+008900FM-12+053699999V0200401N001019999999N9999999N1+00251+00231099191ADDMA1999999092821MD1210051+9999OA149900211REMSYN076AAXX  01094 06679 33/// /0402 10025 20023 39282 49919 52005 333 91104 91202;
0128066790999992010010110004+47483+008900FM-12+053699999V0203301N001019999999N9999999N1+00211+00161099291ADDMA1999999092911MD1210141+9999OA149900211REMSYN076AAXX  01104 06679 33/// /3302 10021 20016 39291 49929 52014 333 91104 91202;
0128066790999992010010111004+47483+008900FM-12+053699999V0200101N000519999999N9999999N1+00241+00191099291ADDMA1999999092911MD1210111+9999OA149900211REMSYN076AAXX  01114 06679 33/// /0101 10024 20019 39291 49929 52011 333 91104 91202;
0128066790999992010010112004+47483+008900FM-12+053699999V0200101N000519999999N9999999N1+00341+00241099261ADDMA1999999092911MD1210091+9999OA149900211REMSYN076AAXX  01124 06679 33/// /0101 10034 20024 39291 49926 52009 333 91104 91202;
0128066790999992010010113004+47483+008900FM-12+053699999V0203401N000519999999N9999999N1+00371+00241099281ADDMA1999999092931MD1210021+9999OA149900151REMSYN076AAXX  01134 06679 33/// /3401 10037 20024 39293 49928 52002 333 91103 91201;
0128066790999992010010114004+47483+008900FM-12+053699999V0203501N001019999999N9999999N1+00411+00301099361ADDMA1999999093021MD1219999+9999OA149900151REMSYN076AAXX  01144 06679 33/// /3502 10041 20030 39302 49936 52/// 333 91103 91202;
0128066790999992010010115004+47483+008900FM-12+053699999V0209999C000519999999N9999999N1+00411+00311099441ADDMA1999999093091MD1310181+9999OA149900211REMSYN076AAXX  01154 06679 33/// /0001 10041 20031 39309 49944 53018 333 91104 91202;
0128066790999992010010116004+47483+008900FM-12+053699999V0203301N001019999999N9999999N1+00401+00301099531ADDMA1999999093171MD1210241+9999OA149900151REMSYN076AAXX  01164 06679 33/// /3302 10040 20030 39317 49953 52024 333 91103 91202;
0145066790999992010010117004+47483+008900FM-12+053699999V0202701N002119999999N9999999N1+00401+00281099651ADDAA101000591MA1999999093291MD1310271+9999OA149900311REMSYN082AAXX  01174 06679 23/// /2704 10040 20028 39329 49965 53027 333 69955 91106 91204;
0170066790999992010010118004+47483+008900FM-12+053699999V0202801N002119999999N9999999N1+00321+00171099821ADDAA112002091KA1120M+00421MA1999999093431MD1310341+9999OA149900411REMSYN094AAXX  01184 06679 03/// /2804 10032 20017 39343 49982 53034 60022 333 10042 60025 91108 91205;
0145066790999992010010119004+47483+008900FM-12+053699999V0202701N003119999999N9999999N1+00141+00021100051ADDAA101002091MA1999999093601MD1310431+9999OA149900571REMSYN082AAXX  01194 06679 23/// /2706 10014 20002 39360 40005 53043 333 60025 91111 91206;
0145066790999992010010120004+47483+008900FM-12+053699999V0202701N004619999999N9999999N1+00121-00031100241ADDAA101002091MA1999999093771MD1210481+9999OA149900771REMSYN082AAXX  01204 06679 23/// /2709 10012 21003 39377 40024 52048 333 60025 91115 91209;
0145066790999992010010121004+47483+008900FM-12+053699999V0202601N003619999999N9999999N1+00091-00061100401ADDAA101001091MA1999999093921MD1210491+9999OA149900881REMSYN082AAXX  01214 06679 23/// /2607 10009 21006 39392 40040 52049 333 60015 91117 91209;
0145066790999992010010122004+47483+008900FM-12+053699999V0202701N004119999999N9999999N1+00091-00141100511ADDAA101000591MA1999999094021MD1110421+9999OA149900981REMSYN082AAXX  01224 06679 23/// /2708 10009 21014 39402 40051 51042 333 69955 91119 91209;
0128066790999992010010123004+47483+008900FM-12+053699999V0202801N004119999999N9999999N1+00031-00151100641ADDMA1999999094131MD1110361+9999OA149900981REMSYN076AAXX  01234 06679 33/// /2808 10003 21015 39413 40064 51036 333 91119 91209;
0151066790999992010010200004+47483+008900FM-12+053699999V0202601N005119999999N9999999N1-00031-00291100771ADDAA106006191MA1999999094231MD1210311+9999OA149901031REMSYN088AAXX  02004 06679 03/// /2610 11003 21029 39423 40077 52031 60061 333 60005 91120 91211;
0145066790999992010010201004+47483+008900FM-12+053699999V0202601N003619999999N9999999N1-00101-00371100881ADDAA101000021MA1999999094321MD1110301+9999OA149901031REMSYN082AAXX  02014 06679 23/// /2607 11010 21037 39432 40088 51030 333 69925 91120 91211;
0108066790999992010010202004+47483+008900FM-12+053699999V0202701N004119999999N9999999N1-00111-00371101011ADDAA101000021MA1999999094441REMSYN070AAXX  02024 06679 23/// /2708 11011 21037 39444 40101 5//// 333 69915;
0128066790999992010010203004+47483+008900FM-12+053699999V0202601N003119999999N9999999N1-00151-00451101141ADDMA1999999094551MD1210321+9999OA149901031REMSYN076AAXX  02034 06679 33/// /2606 11015 21045 39455 40114 52032 333 91120 91211;
0128066790999992010010204004+47483+008900FM-12+053699999V0202401N002619999999N9999999N1-00151-00491101221ADDMA1999999094631MD1110311+9999OA149900881REMSYN076AAXX  02044 06679 33/// /2405 11015 21049 39463 40122 51031 333 91117 91207;
0128066790999992010010205004+47483+008900FM-12+053699999V0202501N003619999999N9999999N1-00171-00491101301ADDMA1999999094701MD1110261+9999OA149900881REMSYN076AAXX  02054 06679 33/// /2507 11017 21049 39470 40130 51026 333 91117 91207;
0229066790999992010010206004+47483+008900FM-12+053699999V0202501N003119999999N9999999N1-00211-00531101381ADDAA112006191AA224007991AL19900891GJ100009IA2999-00309KA1999N-00181MA1999999094761MD1210211+9999OA149901031REMSYN112AAXX  02064 06679 03/// /2506 11021 21053 39476 40138 52021 60062 333 21018 3/103 55000 60005 70080 91120 91211;
0128066790999992010010207004+47483+008900FM-12+053699999V0202501N002619999999N9999999N1-00201-00561101501ADDMA1999999094881MD1210251+9999OA149900771REMSYN076AAXX  02074 06679 33/// /2505 11020 21056 39488 40150 52025 333 91115 91208;
0087066790999992010010208004+47483+008900FM-12+053699999V0202701N003619999999N9999999N1-00221-00541101601ADDMA1999999094961REMSYN060AAXX  02084 06679 33/// /2707 11022 21054 39496 40160 5////;
0128066790999992010010209004+47483+008900FM-12+053699999V0202601N001519999999N9999999N1-00211-00511101721ADDMA1999999095081MD1210321+9999OA149900881REMSYN076AAXX  02094 06679 33/// /2603 11021 21051 39508 40172 52032 333 91117 91208;
0128066790999992010010210004+47483+008900FM-12+053699999V0202601N003119999999N9999999N1-00181-00531101811ADDMA1999999095171MD1210291+9999OA149900571REMSYN076AAXX  02104 06679 33/// /2606 11018 21053 39517 40181 52029 333 91111 91207;
0128066790999992010010211004+47483+008900FM-12+053699999V0202801N000519999999N9999999N1-00221-00491101881ADDMA1999999095231MD1110271+9999OA149900571REMSYN076AAXX  02114 06679 33/// /2801 11022 21049 39523 40188 51027 333 91111 91207;
0128066790999992010010212004+47483+008900FM-12+053699999V0202701N002119999999N9999999N1-00181-00571101941ADDMA1999999095291MD1210211+9999OA149900881REMSYN076AAXX  02124 06679 33/// /2704 11018 21057 39529 40194 52021 333 91117 91208;
0128066790999992010010213004+47483+008900FM-12+053699999V0202401N001519999999N9999999N1-00171-00551102001ADDMA1999999095351MD1210181+9999OA149900361REMSYN076AAXX  02134 06679 33/// /2403 11017 21055 39535 40200 52018 333 91107 91204;
0128066790999992010010214004+47483+008900FM-12+053699999V0202501N002619999999N9999999N1-00151-00611102061ADDMA1999999095411MD1219999+9999OA149900511REMSYN076AAXX  02144 06679 33/// /2505 11015 21061 39541 40206 52/// 333 91110 91206;
0128066790999992010010215004+47483+008900FM-12+053699999V0202401N001019999999N9999999N1-00241-00701102191ADDMA1999999095511MD1310221+9999OA149900571REMSYN076AAXX  02154 06679 33/// /2402 11024 21070 39551 40219 53022 333 91111 91207;
0128066790999992010010216004+47483+008900FM-12+053699999V0202601N000519999999N9999999N1-00361-00701102281ADDMA1999999095571MD1210221+9999OA149900571REMSYN076AAXX  02164 06679 33/// /2601 11036 21070 39557 40228 52022 333 91111 91205;
0128066790999992010010217004+47483+008900FM-12+053699999V0202601N001019999999N9999999N1-00441-00711102391ADDMA1999999095651MD1110241+9999OA149900211REMSYN076AAXX  02174 06679 33/// /2602 11044 21071 39565 40239 51024 333 91104 91202;
0147066790999992010010218004+47483+008900FM-12+053699999V0202701N000519999999N9999999N1-00441-00781102431ADDKA1120M-00141MA1999999095691MD1210181+9999OA149900771REMSYN082AAXX  02184 06679 33/// /2701 11044 21078 39569 40243 52018 333 11014 91115 91208;
0128066790999992010010219004+47483+008900FM-12+053699999V0202201N000519999999N9999999N1-00451-00761102461ADDMA1999999095711MD1210141+9999OA149900211REMSYN076AAXX  02194 06679 33/// /2201 11045 21076 39571 40246 52014 333 91104 91203;
0128066790999992010010220004+47483+008900FM-12+053699999V0202401N000519999999N9999999N1-00711-00881102561ADDMA1999999095741MD1210091+9999OA149900211REMSYN076AAXX  02204 06679 33/// /2401 11071 21088 39574 40256 52009 333 91104 91203;
0128066790999992010010221004+47483+008900FM-12+053699999V0202301N000519999999N9999999N1-00681-00861102521ADDMA1999999095711MD1010021+9999OA149900211REMSYN076AAXX  02214 06679 33/// /2301 11068 21086 39571 40252 50002 333 91104 91203;
0128066790999992010010222004+47483+008900FM-12+053699999V0201901N000519999999N9999999N1-00821-00961102581ADDMA1999999095731MD1210021+9999OA149900151REMSYN076AAXX  02224 06679 33/// /1901 11082 21096 39573 40258 52002 333 91103 91202;
0128066790999992010010223004+47483+008900FM-12+053699999V0201901N000519999999N9999999N1-00901-01041102611ADDMA1999999095741MD1310051+9999OA149900151REMSYN076AAXX  02234 06679 33/// /1901 11090 21104 39574 40261 53000 333 91103 91202;
0128066790999992010010300004+47483+008900FM-12+053699999V0201501N000519999999N9999999N1-00801-00991102571ADDMA1999999095731MD1210021+9999OA149900571REMSYN076AAXX  03004 06679 33/// /1501 11080 21099 39573 40257 52002 333 91111 91206;
0128066790999992010010301004+47483+008900FM-12+053699999V0201801N000519999999N9999999N1-00941-00961102601ADDMA1999999095721MD1010011+9999OA149900101REMSYN076AAXX  03014 06679 33/// /1801 11094 21096 39572 40260 50001 333 91102 91201;
0087066790999992010010302004+47483+008900FM-12+053699999V0200501N000519999999N9999999N1-00791-00981102591ADDMA1999999095751REMSYN060AAXX  03024 06679 33/// /0501 11079 21098 39575 40259 5////;
0087066790999992010010303004+47483+008900FM-12+053699999V0200801N000519999999N9999999N1-00811-01011102551ADDMA1999999095711REMSYN060AAXX  03034 06679 33/// /0801 11081 21101 39571 40255 5////;
0128066790999992010010304004+47483+008900FM-12+053699999V0200401N001519999999N9999999N1-00731-00991102491ADDMA1999999095671MD1710051+9999OA149900261REMSYN076AAXX  03044 06679 33/// /0403 11073 21099 39567 40249 57005 333 91105 91203;
0128066790999992010010305004+47483+008900FM-12+053699999V0201501N001019999999N9999999N1-00911-01081102561ADDMA1999999095691MD1519999+9999OA149900261REMSYN076AAXX  03054 06679 33/// /1502 11091 21108 39569 40256 55/// 333 91105 91203;
0225066790999992010010306004+47483+008900FM-12+053699999V0201701N000519999999N9999999N1-00931-01001102521ADDAA124000091AL19900091GJ101749IA2999-01509KA1999N-01001MA1999999095651MD1810061+9999OA149900261REMSYN100AAXX  03064 06679 33/// /1701 11093 21100 39565 40252 58006 333 21100 3/115 55029 70000 91105 91203;EQDQ01  00002PRCP24
0128066790999992010010307004+47483+008900FM-12+053699999V0201601N000519999999N9999999N1-00981-01161102561ADDMA1999999095671MD1510001+9999OA149900151REMSYN076AAXX  03074 06679 33/// /1601 11098 21116 39567 40256 55000 333 91103 91202;
0128066790999992010010308004+47483+008900FM-12+053699999V0202301N001019999999N9999999N1-00851-01101102531ADDMA1999999095681MD1519999+9999OA149900151REMSYN076AAXX  03084 06679 33/// /2302 11085 21110 39568 40253 55/// 333 91103 91202;
0128066790999992010010309004+47483+008900FM-12+053699999V0201401N001019999999N9999999N1-00561-00971102471ADDMA1999999095691MD1210041+9999OA149900261REMSYN076AAXX  03094 06679 33/// /1402 11056 21097 39569 40247 52004 333 91105 91203;
0128066790999992010010310004+47483+008900FM-12+053699999V0200701N001019999999N9999999N1-00531-00891102471ADDMA1999999095701MD1210031+9999OA149900211REMSYN076AAXX  03104 06679 33/// /0702 11053 21089 39570 40247 52003 333 91104 91202;
0128066790999992010010311004+47483+008900FM-12+053699999V0200601N000519999999N9999999N1-00321-00841102281ADDMA1999999095581MD1810101+9999OA149900211REMSYN076AAXX  03114 06679 33/// /0601 11032 21084 39558 40228 58010 333 91104 91202;
0128066790999992010010312004+47483+008900FM-12+053699999V0209999C000019999999N9999999N1-00271-00811102211ADDMA1999999095521MD1710171+9999OA149900261REMSYN076AAXX  03124 06679 33/// /0000 11027 21081 39552 40221 57017 333 91105 91203;
0128066790999992010010313004+47483+008900FM-12+053699999V0202701N001519999999N9999999N1-00141-01081102151ADDMA1999999095501MD1610201+9999OA149900311REMSYN076AAXX  03134 06679 33/// /2703 11014 21108 39550 40215 56020 333 91106 91203;
0128066790999992010010314004+47483+008900FM-12+053699999V0202601N001019999999N9999999N1-00211-00901102161ADDMA1999999095491MD1710091+9999OA149900311REMSYN076AAXX  03144 06679 33/// /2602 11021 21090 39549 40216 57009 333 91106 91203;
0128066790999992010010315004+47483+008900FM-12+053699999V0202001N001019999999N9999999N1-00311-00891102201ADDMA1999999095501MD1510021+9999OA149900311REMSYN076AAXX  03154 06679 33/// /2002 11031 21089 39550 40220 55002 333 91106 91203;
0128066790999992010010316004+47483+008900FM-12+053699999V0202601N000519999999N9999999N1-00491-00901102221ADDMA1999999095481MD1810021+9999OA149900261REMSYN076AAXX  03164 06679 33/// /2601 11049 21090 39548 40222 58002 333 91105 91204;
0128066790999992010010317004+47483+008900FM-12+053699999V0209999C000019999999N9999999N1-00461-00981102171ADDMA1999999095441MD1810051+9999OA149900261REMSYN076AAXX  03174 06679 33/// /0000 11046 21098 39544 40217 58005 333 91105 91204;
0147066790999992010010318004+47483+008900FM-12+053699999V0201901N001019999999N9999999N1-00771-01031102251ADDKA1120M-00111MA1999999095441MD1710061+9999OA149900311REMSYN082AAXX  03184 06679 33/// /1902 11077 21103 39544 40225 57006 333 11011 91106 91204;
0128066790999992010010319004+47483+008900FM-12+053699999V0201801N001019999999N9999999N1-00821-01051102301ADDMA1999999095471MD1510011+9999OA149900211REMSYN076AAXX  03194 06679 33/// /1802 11082 21105 39547 40230 55001 333 91104 91202;
0128066790999992010010320004+47483+008900FM-12+053699999V0201501N000519999999N9999999N1-00921-01101102281ADDMA1999999095431MD1010011+9999OA149900211REMSYN076AAXX  03204 06679 33/// /1501 11092 21110 39543 40228 50001 333 91104 91202;
0128066790999992010010321004+47483+008900FM-12+053699999V0201501N000519999999N9999999N1-00941-01191102271ADDMA1999999095411MD1710031+9999OA149900261REMSYN076AAXX  03214 06679 33/// /1501 11094 21119 39541 40227 57003 333 91105 91204;
0128066790999992010010322004+47483+008900FM-12+053699999V0202001N000519999999N9999999N1-01121-01301102301ADDMA1999999095391MD1710081+9999OA149900261REMSYN076AAXX  03224 06679 33/// /2001 11112 21130 39539 40230 57008 333 91105 91202;
0128066790999992010010323004+47483+008900FM-12+053699999V0201601N000519999999N9999999N1-01041-01291102231ADDMA1999999095351MD1810081+9999OA149900261REMSYN076AAXX  03234 06679 33/// /1601 11104 21129 39535 40223 58008 333 91105 91202;
0128066790999992010010400004+47483+008900FM-12+053699999V0201601N000519999999N9999999N1-01081-01271102191ADDMA1999999095301MD1810111+9999OA149900311REMSYN076AAXX  04004 06679 33/// /1601 11108 21127 39530 40219 58011 333 91106 91204;
0128066790999992010010401004+47483+008900FM-12+053699999V0209999C000019999999N9999999N1-01201-01371102161ADDMA1999999095241MD1810151+9999OA149900101REMSYN076AAXX  04014 06679 33/// /0000 11120 21137 39524 40216 58015 333 91102 91201;
0128066790999992010010402004+47483+008900FM-12+053699999V0209999C000019999999N9999999N1-01201-01371102101ADDMA1999999095191MD1710161+9999OA149900101REMSYN076AAXX  04024 06679 33/// /0000 11120 21137 39519 40210 57016 333 91102 91201;
0128066790999992010010403004+47483+008900FM-12+053699999V0209999C000019999999N9999999N1-01181-01371102051ADDMA1999999095151MD1819999+9999OA149900261REMSYN076AAXX  04034 06679 33/// /0000 11118 21137 39515 40205 58/// 333 91105 91202;
0128066790999992010010404004+47483+008900FM-12+053699999V0201601N000519999999N9999999N1-01151-01351101981ADDMA1999999095091MD1610151+9999OA149900151REMSYN076AAXX  04044 06679 33/// /1601 11115 21135 39509 40198 56015 333 91103 91202;
0128066790999992010010405004+47483+008900FM-12+053699999V0202101N000519999999N9999999N1-01241-01451101991ADDMA1999999095071MD1710121+9999OA149900151REMSYN076AAXX  04054 06679 33/// /2101 11124 21145 39507 40199 57012 333 91103 91202;
0225066790999992010010406004+47483+008900FM-12+053699999V0201701N001019999999N9999999N1-01091-01311101951ADDAA124000091AL19900091GJ104089IA2999-01809KA1999N-01311MA1999999095081MD1710071+9999OA149900261REMSYN100AAXX  04064 06679 33/// /1702 11109 21131 39508 40195 57007 333 21131 3/118 55068 70000 91105 91202;EQDQ01  00002PRCP24
0128066790999992010010407004+47483+008900FM-12+053699999V0209999C000019999999N9999999N1-00851-00861101871ADDMA1999999095061MD1710031+9999OA149900261REMSYN076AAXX  04074 06679 33/// /0000 11085 21086 39506 40187 57003 333 91105 91203;
0128066790999992010010408004+47483+008900FM-12+053699999V0201201N001019999999N9999999N1-00841-00921101881ADDMA1999999095071MD1010001+9999OA149900261REMSYN076AAXX  04084 06679 33/// /1202 11084 21092 39507 40188 50000 333 91105 91203;
0128066790999992010010409004+47483+008900FM-12+053699999V0201301N000519999999N9999999N1-00871-01001101881ADDMA1999999095071MD1510011+9999OA149900261REMSYN076AAXX  04094 06679 33/// /1301 11087 21100 39507 40188 55001 333 91105 91203;
0128066790999992010010410004+47483+008900FM-12+053699999V0200401N000519999999N9999999N1-00841-00941101871ADDMA1999999095061MD1010001+9999OA149900211REMSYN076AAXX  04104 06679 33/// /0401 11084 21094 39506 40187 50000 333 91104 91202;
0128066790999992010010411004+47483+008900FM-12+053699999V0201001N000519999999N9999999N1-00701-00851101751ADDMA1999999094991MD1710081+9999OA149900211REMSYN076AAXX  04114 06679 33/// /1001 11070 21085 39499 40175 57008 333 91104 91202;
0128066790999992010010412004+47483+008900FM-12+053699999V0200701N001019999999N9999999N1-00591-00831101641ADDMA1999999094911MD1810161+9999OA149900261REMSYN076AAXX  04124 06679 33/// /0702 11059 21083 39491 40164 58016 333 91105 91203;
0128066790999992010010413004+47483+008900FM-12+053699999V0201801N000519999999N9999999N1-00481-00791101541ADDMA1999999094851MD1610211+9999OA149900151REMSYN076AAXX  04134 06679 33/// /1801 11048 21079 39485 40154 56021 333 91103 91202;
0128066790999992010010414004+47483+008900FM-12+053699999V0201801N000519999999N9999999N1-00431-00771101491ADDMA1999999094811MD1619999+9999OA149900151REMSYN076AAXX  04144 06679 33/// /1801 11043 21077 39481 40149 56/// 333 91103 91202;
0128066790999992010010415004+47483+008900FM-12+053699999V0201801N000519999999N9999999N1-00581-00851101521ADDMA1999999094801MD1710111+9999OA149900211REMSYN076AAXX  04154 06679 33/// /1801 11058 21085 39480 40152 57011 333 91104 91202;
0128066790999992010010416004+47483+008900FM-12+053699999V0202301N000519999999N9999999N1-00921-01101101631ADDMA1999999094821MD1510031+9999OA149900151REMSYN076AAXX  04164 06679 33/// /2301 11092 21110 39482 40163 55003 333 91103 91201;
0128066790999992010010417004+47483+008900FM-12+053699999V0202001N001019999999N9999999N1-00811-00991101571ADDMA1999999094791MD1710021+9999OA149900151REMSYN076AAXX  04174 06679 33/// /2002 11081 21099 39479 40157 57002 333 91103 91202;
0147066790999992010010418004+47483+008900FM-12+053699999V0202101N000519999999N9999999N1-01001-01181101611ADDKA1120M-00431MA1999999094781MD1810021+9999OA149900261REMSYN082AAXX  04184 06679 33/// /2101 11100 21118 39478 40161 58002 333 11043 91105 91203;
0128066790999992010010419004+47483+008900FM-12+053699999V0201401N001019999999N9999999N1-00931-01101101591ADDMA1999999094781MD1710041+9999OA149900151REMSYN076AAXX  04194 06679 33/// /1402 11093 21110 39478 40159 57004 333 91103 91202;
0128066790999992010010420004+47483+008900FM-12+053699999V0201701N000519999999N9999999N1-01051-01251101611ADDMA1999999094771MD1710021+9999OA149900151REMSYN076AAXX  04204 06679 33/// /1701 11105 21125 39477 40161 57002 333 91103 91202;
0128066790999992010010421004+47483+008900FM-12+053699999V0209999C000019999999N9999999N1-01101-01251101591ADDMA1999999094741MD1710041+9999OA149900151REMSYN076AAXX  04214 06679 33/// /0000 11110 21125 39474 40159 57004 333 91103 91202;
0128066790999992010010422004+47483+008900FM-12+053699999V0202201N000519999999N9999999N1-00991-01161101541ADDMA1999999094721MD1710061+9999OA149900101REMSYN076AAXX  04224 06679 33/// /2201 11099 21116 39472 40154 57006 333 91102 91201;
0128066790999992010010423004+47483+008900FM-12+053699999V0202001N000519999999N9999999N1-00981-01161101471ADDMA1999999094661MD1710111+9999OA149900211REMSYN076AAXX  04234 06679 33/// /2001 11098 21116 39466 40147 57011 333 91104 91202;
0128066790999992010010500004+47483+008900FM-12+053699999V0201601N000519999999N9999999N1-00981-01111101421ADDMA1999999094611MD1710131+9999OA149900211REMSYN076AAXX  05004 06679 33/// /1601 11098 21111 39461 40142 57013 333 91104 91202;
0128066790999992010010501004+47483+008900FM-12+053699999V0209999C000019999999N9999999N1-00981-01151101381ADDMA1999999094571MD1810151+9999OA149900101REMSYN076AAXX  05014 06679 33/// /0000 11098 21115 39457 40138 58015 333 91102 91201;
0128066790999992010010502004+47483+008900FM-12+053699999V0209999C000019999999N9999999N1-00811-00971101321ADDMA1999999094561MD1710101+9999OA149900101REMSYN076AAXX  05024 06679 33/// /0000 11081 21097 39456 40132 57010 333 91102 91201;
0128066790999992010010503004+47483+008900FM-12+053699999V0209999C000019999999N9999999N1-00741-00901101231ADDMA1999999094491MD1710121+9999OA149900211REMSYN076AAXX  05034 06679 33/// /0000 11074 21090 39449 40123 57012 333 91104 91202;
0128066790999992010010504004+47483+008900FM-12+053699999V0200301N001019999999N9999999N1-00671-00811101131ADDMA1999999094421MD1710151+9999OA149900151REMSYN076AAXX  05044 06679 33/// /0302 11067 21081 39442 40113 57015 333 91103 91202;
0128066790999992010010505004+47483+008900FM-12+053699999V0200401N001019999999N9999999N1-00641-00791101081ADDMA1999999094381MD1710181+9999OA149900151REMSYN076AAXX  05054 06679 33/// /0402 11064 21079 39438 40108 57018 333 91103 91202;
0225066790999992010010506004+47483+008900FM-12+053699999V0200301N001019999999N9999999N1-00661-00801101011ADDAA124000091AL19900091GJ103369IA2999-01609KA1999N-01151MA1999999094311MD1710181+9999OA149900211REMSYN100AAXX  05064 06679 33/// /0302 11066 21080 39431 40101 57018 333 21115 3/116 55056 70000 91104 91202;EQDQ01  00002PRCP24
0128066790999992010010507004+47483+008900FM-12+053699999V0200201N001019999999N9999999N1-00641-00791100971ADDMA1999999094271MD1710151+9999OA149900261REMSYN076AAXX  05074 06679 33/// /0202 11064 21079 39427 40097 57015 333 91105 91203;
0128066790999992010010508004+47483+008900FM-12+053699999V0200601N001519999999N9999999N1-00601-00781100931ADDMA1999999094251MD1710131+9999OA149900311REMSYN076AAXX  05084 06679 33/// /0603 11060 21078 39425 40093 57013 333 91106 91204;
0128066790999992010010509004+47483+008900FM-12+053699999V0201001N001019999999N9999999N1-00581-00771100901ADDMA1999999094221MD1710091+9999OA149900361REMSYN076AAXX  05094 06679 33/// /1002 11058 21077 39422 40090 57009 333 91107 91204;
0128066790999992010010510004+47483+008900FM-12+053699999V0200501N002119999999N9999999N1-00571-00781100871ADDMA1999999094201MD1710071+9999OA149900361REMSYN076AAXX  05104 06679 33/// /0504 11057 21078 39420 40087 57007 333 91107 91204;
0128066790999992010010511004+47483+008900FM-12+053699999V0200501N001519999999N9999999N1-00551-00751100771ADDMA1999999094111MD1710141+9999OA149900361REMSYN076AAXX  05114 06679 33/// /0503 11055 21075 39411 40077 57014 333 91107 91204;
0128066790999992010010512004+47483+008900FM-12+053699999V0200601N002119999999N9999999N1-00541-00761100661ADDMA1999999094011MD1810211+9999OA149900411REMSYN076AAXX  05124 06679 33/// /0604 11054 21076 39401 40066 58021 333 91108 91204;
0128066790999992010010513004+47483+008900FM-12+053699999V0200501N001519999999N9999999N1-00511-00721100611ADDMA1999999093971MD1710231+9999OA149900411REMSYN076AAXX  05134 06679 33/// /0503 11051 21072 39397 40061 57023 333 91108 91204;
0108066790999992010010514004+47483+008900FM-12+053699999V0200501N001519999999N9999999N1-00491-00681100561ADDAA101000021MA1999999093931REMSYN070AAXX  05144 06679 23/// /0503 11049 21068 39393 40056 5//// 333 69915;
0128066790999992010010515004+47483+008900FM-12+053699999V0200501N001519999999N9999999N1-00481-00701100521ADDMA1999999093891MD1610121+9999OA149900411REMSYN076AAXX  05154 06679 33/// /0503 11048 21070 39389 40052 56012 333 91108 91204;
0128066790999992010010516004+47483+008900FM-12+053699999V0200501N001519999999N9999999N1-00481-00691100511ADDMA1999999093881MD1710091+9999OA149900261REMSYN076AAXX  05164 06679 33/// /0503 11048 21069 39388 40051 57009 333 91105 91203;
0128066790999992010010517004+47483+008900FM-12+053699999V0200601N001519999999N9999999N1-00491-00691100471ADDMA1999999093841MD1710091+9999OA149900261REMSYN076AAXX  05174 06679 33/// /0603 11049 21069 39384 40047 57009 333 91105 91203;
0189066790999992010010518004+47483+008900FM-12+053699999V0200501N001019999999N9999999N1-00491-00671100461ADDAA112000091KA1120M-00471MA1999999093831MD1710061+9999OA149900411REMSYN094AAXX  05184 06679 03/// /0502 11049 21067 39383 40046 57006 69912 333 11047 60005 91108 91204;EQDQ01  00002PRCP12
0128066790999992010010519004+47483+008900FM-12+053699999V0200801N001019999999N9999999N1-00491-00701100421ADDMA1999999093801MD1710081+9999OA149900261REMSYN076AAXX  05194 06679 33/// /0802 11049 21070 39380 40042 57008 333 91105 91203;
0145066790999992010010520004+47483+008900FM-12+053699999V0200701N001019999999N9999999N1-00491-00671100371ADDAA101000021MA1999999093751MD1710091+9999OA149900261REMSYN082AAXX  05204 06679 23/// /0702 11049 21067 39375 40037 57009 333 69915 91105 91203;
0128066790999992010010521004+47483+008900FM-12+053699999V0200501N001519999999N9999999N1-00501-00671100361ADDMA1999999093741MD1710091+9999OA149900311REMSYN076AAXX  05214 06679 33/// /0503 11050 21067 39374 40036 57009 333 91106 91203;
0128066790999992010010522004+47483+008900FM-12+053699999V0200601N001519999999N9999999N1-00521-00701100351ADDMA1999999093721MD1710081+9999OA149900311REMSYN076AAXX  05224 06679 33/// /0603 11052 21070 39372 40035 57008 333 91106 91203;
0128066790999992010010523004+47483+008900FM-12+053699999V0200401N001519999999N9999999N1-00531-00701100331ADDMA1999999093701MD1710051+9999OA149900261REMSYN076AAXX  05234 06679 33/// /0403 11053 21070 39370 40033 57005 333 91105 91203;
0170066790999992010010600004+47483+008900FM-12+053699999V0201001N001519999999N9999999N1-00521-00711100281ADDAA106000091MA1999999093661MD1710081+9999OA149900311REMSYN088AAXX  06004 06679 03/// /1003 11052 21071 39366 40028 57008 69911 333 60005 91106 91203;EQDQ01  00002PRCP06
0128066790999992010010601004+47483+008900FM-12+053699999V0200801N001519999999N9999999N1-00521-00691100241ADDMA1999999093621MD1710101+9999OA149900311REMSYN076AAXX  06014 06679 33/// /0803 11052 21069 39362 40024 57010 333 91106 91203;
0128066790999992010010602004+47483+008900FM-12+053699999V0200501N001019999999N9999999N1-00541-00701100281ADDMA1999999093651MD1510051+9999OA149900311REMSYN076AAXX  06024 06679 33/// /0502 11054 21070 39365 40028 55005 333 91106 91203;
0128066790999992010010603004+47483+008900FM-12+053699999V0200501N000519999999N9999999N1-00511-00681100261ADDMA1999999093641MD1510021+9999OA149900311REMSYN076AAXX  06034 06679 33/// /0501 11051 21068 39364 40026 55002 333 91106 91203;
0128066790999992010010604004+47483+008900FM-12+053699999V0200401N000519999999N9999999N1-00521-00661100231ADDMA1999999093611MD1810011+9999OA149900211REMSYN076AAXX  06044 06679 33/// /0401 11052 21066 39361 40023 58001 333 91104 91202;
0128066790999992010010605004+47483+008900FM-12+053699999V0200401N000519999999N9999999N1-00511-00661100261ADDMA1999999093641MD1510011+9999OA149900151REMSYN076AAXX  06054 06679 33/// /0401 11051 21066 39364 40026 55001 333 91103 91202;
0248066790999992010010606004+47483+008900FM-12+053699999V0203401N001019999999N9999999N1-00491-00651100291ADDAA112000091AA224000391AL11200091GJ100009IA2999-00609KA1999N-00541MA1999999093681MD1210041+9999OA149900311REMSYN112AAXX  06064 06679 03/// /3402 11049 21065 39368 40029 52004 69912 333 21054 3/106 55000 60005 70002 91106 91203;EQDQ01  00002PRCP12
0128066790999992010010607004+47483+008900FM-12+053699999V0209999C000019999999N9999999N1-00491-00641100321ADDMA1999999093701MD1210091+9999OA149900151REMSYN076AAXX  06074 06679 33/// /0000 11049 21064 39370 40032 52009 333 91103 91202;
0128066790999992010010608004+47483+008900FM-12+053699999V0202701N001519999999N9999999N1-00321-00621100301ADDMA1999999093731MD1110091+9999OA149900311REMSYN076AAXX  06084 06679 33/// /2703 11032 21062 39373 40030 51009 333 91106 91203;
0128066790999992010010609004+47483+008900FM-12+053699999V0202601N002119999999N9999999N1-00311-00581100371ADDMA1999999093791MD1310111+9999OA149900511REMSYN076AAXX  06094 06679 33/// /2604 11031 21058 39379 40037 53011 333 91110 91204;
0128066790999992010010610004+47483+008900FM-12+053699999V0202701N002619999999N9999999N1-00291-00561100401ADDMA1999999093831MD1110131+9999OA149900571REMSYN076AAXX  06104 06679 33/// /2705 11029 21056 39383 40040 51013 333 91111 91206;
0128066790999992010010611004+47483+008900FM-12+053699999V0202701N002119999999N9999999N1-00241-00521100351ADDMA1999999093791MD1019999+9999OA149900571REMSYN076AAXX  06114 06679 33/// /2704 11024 21052 39379 40035 50/// 333 91111 91206;
0128066790999992010010612004+47483+008900FM-12+053699999V0202601N001519999999N9999999N1-00221-00541100331ADDMA1999999093781MD1810011+9999OA149900571REMSYN076AAXX  06124 06679 33/// /2603 11022 21054 39378 40033 58001 333 91111 91206;
0128066790999992010010613004+47483+008900FM-12+053699999V0202701N001019999999N9999999N1-00201-00511100341ADDMA1999999093791MD1710041+9999OA149900411REMSYN076AAXX  06134 06679 33/// /2702 11020 21051 39379 40034 57004 333 91108 91204;
0128066790999992010010614004+47483+008900FM-12+053699999V0202501N000519999999N9999999N1-00191-00511100351ADDMA1999999093801MD1219999+9999OA149900261REMSYN076AAXX  06144 06679 33/// /2501 11019 21051 39380 40035 52/// 333 91105 91203;
0128066790999992010010615004+47483+008900FM-12+053699999V0202701N001519999999N9999999N1-00201-00501100391ADDMA1999999093841MD1219999+9999OA149900571REMSYN076AAXX  06154 06679 33/// /2703 11020 21050 39384 40039 52/// 333 91111 91206;
0128066790999992010010616004+47483+008900FM-12+053699999V0202401N001019999999N9999999N1-00201-00511100431ADDMA1999999093881MD1210091+9999OA149900261REMSYN076AAXX  06164 06679 33/// /2402 11020 21051 39388 40043 52009 333 91105 91203;
0128066790999992010010617004+47483+008900FM-12+053699999V0202801N001019999999N9999999N1-00221-00501100481ADDMA1999999093921MD1210121+9999OA149900261REMSYN076AAXX  06174 06679 33/// /2802 11022 21050 39392 40048 52012 333 91105 91203;
0147066790999992010010618004+47483+008900FM-12+053699999V0202301N000519999999N9999999N1-00231-00531100551ADDKA1120M-00191MA1999999093981MD1219999+9999OA149900571REMSYN082AAXX  06184 06679 33/// /2301 11023 21053 39398 40055 52/// 333 11019 91111 91206;
0128066790999992010010619004+47483+008900FM-12+053699999V0209999C000019999999N9999999N1-00351-00561100591ADDMA1999999093991MD1210111+9999OA149900211REMSYN076AAXX  06194 06679 33/// /0000 11035 21056 39399 40059 52011 333 91104 91203;
0128066790999992010010620004+47483+008900FM-12+053699999V0202301N001019999999N9999999N1-00601-00751100701ADDMA1999999094031MD1110111+9999OA149900211REMSYN076AAXX  06204 06679 33/// /2302 11060 21075 39403 40070 51011 333 91104 91202;
0128066790999992010010621004+47483+008900FM-12+053699999V0209999C000019999999N9999999N1-00751-00891100751ADDMA1999999094041MD1110061+9999OA149900261REMSYN076AAXX  06214 06679 33/// /0000 11075 21089 39404 40075 51006 333 91105 91203;
0128066790999992010010622004+47483+008900FM-12+053699999V0201701N000519999999N9999999N1-00551-00711100761ADDMA1999999094101MD1310111+9999OA149900151REMSYN076AAXX  06224 06679 33/// /1701 11055 21071 39410 40076 53011 333 91103 91202;
0128066790999992010010623004+47483+008900FM-12+053699999V0201401N002619999999N9999999N1-00511-00691100761ADDMA1999999094111MD1110081+9999OA149900361REMSYN076AAXX  06234 06679 33/// /1405 11051 21069 39411 40076 51008 333 91107 91205;
0128066790999992010010700004+47483+008900FM-12+053699999V0201601N000519999999N9999999N1-00471-00631100781ADDMA1999999094141MD1110101+9999OA149900361REMSYN076AAXX  07004 06679 33/// /1601 11047 21063 39414 40078 51010 333 91107 91205;
0128066790999992010010701004+47483+008900FM-12+053699999V0202401N000519999999N9999999N1-00361-00531100791ADDMA1999999094171MD1210071+9999OA149900311REMSYN076AAXX  07014 06679 33/// /2401 11036 21053 39417 40079 52007 333 91106 91202;
0145066790999992010010702004+47483+008900FM-12+053699999V0202801N000519999999N9999999N1-00311-00471100811ADDAA101000021MA1999999094201MD1219999+9999OA149900151REMSYN082AAXX  07024 06679 23/// /2801 11031 21047 39420 40081 52/// 333 69915 91103 91202;
0128066790999992010010703004+47483+008900FM-12+053699999V0201401N001519999999N9999999N1-00301-00501100811ADDMA1999999094211MD1210071+9999OA149900361REMSYN076AAXX  07034 06679 33/// /1403 11030 21050 39421 40081 52007 333 91107 91205;
0128066790999992010010704004+47483+008900FM-12+053699999V0202301N000519999999N9999999N1-00481-00641100861ADDMA1999999094211MD1210041+9999OA149900261REMSYN076AAXX  07044 06679 33/// /2301 11048 21064 39421 40086 52004 333 91105 91203;
0128066790999992010010705004+47483+008900FM-12+053699999V0202201N000519999999N9999999N1-00661-00801100931ADDMA1999999094231MD1210031+9999OA149900151REMSYN076AAXX  07054 06679 33/// /2201 11066 21080 39423 40093 52003 333 91103 91202;
0264066790999992010010706004+47483+008900FM-12+053699999V0202201N000519999999N9999999N1-00621-00771100951ADDAA112000091AA224000091AL10600091GJ100009IA2999-01309KA1999N-00821MA1999999094261MD1310051+9999OA149900361REMSYN112AAXX  07064 06679 03/// /2201 11062 21077 39426 40095 53005 69912 333 21082 3/113 55000 60005 70001 91107 91205;EQDQ01  00002PRCP24Q02  00002PRCP12
0128066790999992010010707004+47483+008900FM-12+053699999V0201201N000519999999N9999999N1-00511-00661100961ADDMA1999999094301MD1210091+9999OA149900151REMSYN076AAXX  07074 06679 33/// /1201 11051 21066 39430 40096 52009 333 91103 91202;
0128066790999992010010708004+47483+008900FM-12+053699999V0201401N001519999999N9999999N1-00381-00601100961ADDMA1999999094331MD1319999+9999OA149900461REMSYN076AAXX  07084 06679 33/// /1403 11038 21060 39433 40096 53/// 333 91109 91205;
0128066790999992010010709004+47483+008900FM-12+053699999V0200101N001019999999N9999999N1-00411-00631101001ADDMA1999999094361MD1110101+9999OA149900461REMSYN076AAXX  07094 06679 33/// /0102 11041 21063 39436 40100 51010 333 91109 91205;
0128066790999992010010710004+47483+008900FM-12+053699999V0200501N001019999999N9999999N1-00281-00561101021ADDMA1999999094411MD1310111+9999OA149900311REMSYN076AAXX  07104 06679 33/// /0502 11028 21056 39441 40102 53011 333 91106 91203;
0128066790999992010010711004+47483+008900FM-12+053699999V0200401N001019999999N9999999N1-00231-00561101011ADDMA1999999094411MD1210081+9999OA149900261REMSYN076AAXX  07114 06679 33/// /0402 11023 21056 39441 40101 52008 333 91105 91202;
0128066790999992010010712004+47483+008900FM-12+053699999V0200601N001019999999N9999999N1-00141-00521100951ADDMA1999999094381MD1010021+9999OA149900461REMSYN076AAXX  07124 06679 33/// /0602 11014 21052 39438 40095 50002 333 91109 91205;
0128066790999992010010713004+47483+008900FM-12+053699999V0200601N000519999999N9999999N1-00121-00511100941ADDMA1999999094371MD1819999+9999OA149900211REMSYN076AAXX  07134 06679 33/// /0601 11012 21051 39437 40094 58/// 333 91104 91202;
0087066790999992010010715004+47483+008900FM-12+053699999V0201701N000519999999N9999999N1-00141-00501101031ADDMA1999999094451REMSYN060AAXX  07154 06679 43/// /1701 11014 21050 39445 40103 5////;
0128066790999992010010716004+47483+008900FM-12+053699999V0201601N000519999999N9999999N1-00221-00501101091ADDMA1999999094491MD1319999+9999OA149900151REMSYN076AAXX  07164 06679 33/// /1601 11022 21050 39449 40109 53/// 333 91103 91201;
0128066790999992010010717004+47483+008900FM-12+053699999V0201701N000519999999N9999999N1-00281-00521101131ADDMA1999999094511MD1219999+9999OA149900151REMSYN076AAXX  07174 06679 33/// /1701 11028 21052 39451 40113 52/// 333 91103 91202;
0147066790999992010010718004+47483+008900FM-12+053699999V0209999C000019999999N9999999N1-00371-00551101211ADDKA1120M-00101MA1999999094561MD1219999+9999OA149900461REMSYN082AAXX  07184 06679 33/// /0000 11037 21055 39456 40121 52/// 333 11010 91109 91205;
0128066790999992010010719004+47483+008900FM-12+053699999V0201801N000519999999N9999999N1-00391-00591101231ADDMA1999999094581MD1210091+9999OA149900151REMSYN076AAXX  07194 06679 33/// /1801 11039 21059 39458 40123 52009 333 91103 91202;
0128066790999992010010720004+47483+008900FM-12+053699999V0209999C000019999999N9999999N1-00531-00701101261ADDMA1999999094571MD1210061+9999OA149900151REMSYN076AAXX  07204 06679 33/// /0000 11053 21070 39457 40126 52006 333 91103 91202;
0128066790999992010010721004+47483+008900FM-12+053699999V0209999C000019999999N9999999N1-00421-00591101271ADDMA1999999094611MD1210051+9999OA149900151REMSYN076AAXX  07214 06679 33/// /0000 11042 21059 39461 40127 52005 333 91103 91202;
0128066790999992010010722004+47483+008900FM-12+053699999V0201501N000519999999N9999999N1-00441-00591101261ADDMA1999999094591MD1010011+9999OA149900101REMSYN076AAXX  07224 06679 33/// /1501 11044 21059 39459 40126 50001 333 91102 91201;
0128066790999992010010723004+47483+008900FM-12+053699999V0200301N000519999999N9999999N1-00421-00571101251ADDMA1999999094591MD1010021+9999OA149900101REMSYN076AAXX  07234 06679 33/// /0301 11042 21057 39459 40125 50002 333 91102 91201;
0128066790999992010010800004+47483+008900FM-12+053699999V0201801N000519999999N9999999N1-00361-00531101191ADDMA1999999094551MD1710061+9999OA149900151REMSYN076AAXX  08004 06679 33/// /1801 11036 21053 39455 40119 57006 333 91103 91202;
0128066790999992010010801004+47483+008900FM-12+053699999V0209999C000019999999N9999999N1-00341-00511101161ADDMA1999999094521MD1710071+9999OA149900101REMSYN076AAXX  08014 06679 33/// /0000 11034 21051 39452 40116 57007 333 91102 91201;
0128066790999992010010802004+47483+008900FM-12+053699999V0200501N000519999999N9999999N1-00281-00461101141ADDMA1999999094521MD1719999+9999OA149900101REMSYN076AAXX  08024 06679 33/// /0501 11028 21046 39452 40114 57/// 333 91102 91201;
0128066790999992010010803004+47483+008900FM-12+053699999V0200401N001519999999N9999999N1-00291-00441101141ADDMA1999999094521MD1719999+9999OA149900211REMSYN076AAXX  08034 06679 33/// /0403 11029 21044 39452 40114 57/// 333 91104 91203;
0128066790999992010010804004+47483+008900FM-12+053699999V0200501N001019999999N9999999N1-00291-00391101111ADDMA1999999094491MD1810031+9999OA149900261REMSYN076AAXX  08044 06679 33/// /0502 11029 21039 39449 40111 58003 333 91105 91203;
0145066790999992010010805004+47483+008900FM-12+053699999V0200501N001019999999N9999999N1-00261-00371101041ADDAA101000021MA1999999094431MD1710091+9999OA149900261REMSYN082AAXX  08054 06679 23/// /0502 11026 21037 39443 40104 57009 333 69915 91105 91203;
0264066790999992010010806004+47483+008900FM-12+053699999V0200601N003119999999N9999999N1-00231-00371100971ADDAA112000091AA224000091AL10600091GJ101989IA2999-00909KA1999N-00541MA1999999094371MD1710151+9999OA149900671REMSYN112AAXX  08064 06679 03/// /0606 11023 21037 39437 40097 57015 69912 333 21054 3/109 55033 60005 70001 91113 91206;EQDQ01  00002PRCP24Q02  00002PRCP12
0128066790999992010010807004+47483+008900FM-12+053699999V0200601N004119999999N9999999N1-00251-00491100961ADDMA1999999094361MD1610131+9999OA149900821REMSYN076AAXX  08074 06679 33/// /0608 11025 21049 39436 40096 56013 333 91116 91209;
0128066790999992010010808004+47483+008900FM-12+053699999V0200601N004119999999N9999999N1-00261-00521100921ADDMA1999999094321MD1610111+9999OA149900881REMSYN076AAXX  08084 06679 33/// /0608 11026 21052 39432 40092 56011 333 91117 91209;
0128066790999992010010809004+47483+008900FM-12+053699999V0200701N004119999999N9999999N1-00281-00551100881ADDMA1999999094281MD1810091+9999OA149900881REMSYN076AAXX  08094 06679 33/// /0708 11028 21055 39428 40088 58009 333 91117 91209;
0128066790999992010010810004+47483+008900FM-12+053699999V0200601N004619999999N9999999N1-00281-00561100841ADDMA1999999094241MD1710121+9999OA149900821REMSYN076AAXX  08104 06679 33/// /0609 11028 21056 39424 40084 57012 333 91116 91209;
0128066790999992010010811004+47483+008900FM-12+053699999V0200601N005119999999N9999999N1-00261-00531100761ADDMA1999999094171MD1710151+9999OA149901081REMSYN076AAXX  08114 06679 33/// /0610 11026 21053 39417 40076 57015 333 91121 91210;
0128066790999992010010812004+47483+008900FM-12+053699999V0200701N005119999999N9999999N1-00261-00511100651ADDMA1999999094071MD1710211+9999OA149901081REMSYN076AAXX  08124 06679 33/// /0710 11026 21051 39407 40065 57021 333 91121 91210;
0128066790999992010010813004+47483+008900FM-12+053699999V0200601N003619999999N9999999N1-00251-00481100611ADDMA1999999094031MD1610211+9999OA149901081REMSYN076AAXX  08134 06679 33/// /0607 11025 21048 39403 40061 56021 333 91121 91210;
0134066790999992010010814004+47483+008900FM-12+053699999V0200601N004619999999N9999999N1-00261-00481100591ADDMA1999999094011MD1619999+9999OA149900931REMSYN082AAXX  08144 06679 33/// /0609 11026 21048 39401 40059 56/// 91340 333 91118 91209;
0128066790999992010010815004+47483+008900FM-12+053699999V0200501N003619999999N9999999N1-00251-00491100591ADDMA1999999094011MD1710061+9999OA149901081REMSYN076AAXX  08154 06679 33/// /0507 11025 21049 39401 40059 57006 333 91121 91211;
0128066790999992010010816004+47483+008900FM-12+053699999V0200601N005119999999N9999999N1-00251-00501100621ADDMA1999999094041MD1310011+9999OA149901081REMSYN076AAXX  08164 06679 33/// /0610 11025 21050 39404 40062 53001 333 91121 91211;
0128066790999992010010817004+47483+008900FM-12+053699999V0200501N003119999999N9999999N1-00281-00461100651ADDMA1999999094061MD1110051+9999OA149901081REMSYN076AAXX  08174 06679 33/// /0506 11028 21046 39406 40065 51005 333 91121 91210;
0147066790999992010010818004+47483+008900FM-12+053699999V0200401N002119999999N9999999N1-00291-00471100681ADDKA1120M-00211MA1999999094091MD1310081+9999OA149901081REMSYN082AAXX  08184 06679 33/// /0404 11029 21047 39409 40068 53008 333 11021 91121 91211;
0128066790999992010010819004+47483+008900FM-12+053699999V0200401N002619999999N9999999N1-00291-00461100711ADDMA1999999094121MD1310081+9999OA149900621REMSYN076AAXX  08194 06679 33/// /0405 11029 21046 39412 40071 53008 333 91112 91206;
0128066790999992010010820004+47483+008900FM-12+053699999V0200501N002119999999N9999999N1-00301-00431100711ADDMA1999999094111MD1210051+9999OA149900571REMSYN076AAXX  08204 06679 33/// /0504 11030 21043 39411 40071 52005 333 91111 91206;
0128066790999992010010821004+47483+008900FM-12+053699999V0200501N002119999999N9999999N1-00321-00431100711ADDMA1999999094111MD1010021+9999OA149901081REMSYN076AAXX  08214 06679 33/// /0504 11032 21043 39411 40071 50002 333 91121 91210;
0128066790999992010010822004+47483+008900FM-12+053699999V0200501N002119999999N9999999N1-00341-00461100701ADDMA1999999094091MD1710031+9999OA149900621REMSYN076AAXX  08224 06679 33/// /0504 11034 21046 39409 40070 57003 333 91112 91206;
0128066790999992010010823004+47483+008900FM-12+053699999V0200501N001019999999N9999999N1-00351-00471100741ADDMA1999999094131MD1310021+9999OA149900511REMSYN076AAXX  08234 06679 33/// /0502 11035 21047 39413 40074 53002 333 91110 91205;
0128066790999992010010900004+47483+008900FM-12+053699999V0200401N001019999999N9999999N1-00351-00461100751ADDMA1999999094141MD1210031+9999OA149901081REMSYN076AAXX  09004 06679 33/// /0402 11035 21046 39414 40075 52003 333 91121 91211;
0128066790999992010010901004+47483+008900FM-12+053699999V0209999C002119999999N9999999N1-00411-00531100761ADDMA1999999094131MD1010041+9999OA149900361REMSYN076AAXX  09014 06679 33/// /0004 11041 21053 39413 40076 50004 333 91107 91204;
0128066790999992010010902004+47483+008900FM-12+053699999V0200201N001519999999N9999999N1-00431-00561100761ADDMA1999999094131MD1519999+9999OA149900361REMSYN076AAXX  09024 06679 33/// /0203 11043 21056 39413 40076 55/// 333 91107 91204;
0128066790999992010010903004+47483+008900FM-12+053699999V0200501N001519999999N9999999N1-00421-00571100781ADDMA1999999094151MD1219999+9999OA149900511REMSYN076AAXX  09034 06679 33/// /0503 11042 21057 39415 40078 52/// 333 91110 91205;
0128066790999992010010904004+47483+008900FM-12+053699999V0200301N002119999999N9999999N1-00441-00601100741ADDMA1999999094111MD1810021+9999OA149900461REMSYN076AAXX  09044 06679 33/// /0304 11044 21060 39411 40074 58002 333 91109 91205;
0128066790999992010010905004+47483+008900FM-12+053699999V0200501N001519999999N9999999N1-00451-00581100731ADDMA1999999094101MD1810031+9999OA149900361REMSYN076AAXX  09054 06679 33/// /0503 11045 21058 39410 40073 58003 333 91107 91205;
0225066790999992010010906004+47483+008900FM-12+053699999V0200401N001519999999N9999999N1-00471-00611100691ADDAA124000091AL19900091GJ100009IA2999-00409KA1999N-00461MA1999999094051MD1710101+9999OA149900621REMSYN100AAXX  09064 06679 33/// /0403 11047 21061 39405 40069 57010 333 21046 3/104 55000 70000 91112 91206;EQDQ01  00002PRCP24
0128066790999992010010907004+47483+008900FM-12+053699999V0200501N001519999999N9999999N1-00491-00651100691ADDMA1999999094051MD1710061+9999OA149900361REMSYN076AAXX  09074 06679 33/// /0503 11049 21065 39405 40069 57006 333 91107 91204;
0128066790999992010010908004+47483+008900FM-12+053699999V0200501N002119999999N9999999N1-00491-00631100691ADDMA1999999094051MD1510051+9999OA149900361REMSYN076AAXX  09084 06679 33/// /0504 11049 21063 39405 40069 55005 333 91107 91204;
0128066790999992010010909004+47483+008900FM-12+053699999V0200501N002119999999N9999999N1-00491-00661100701ADDMA1999999094061MD1210011+9999OA149900361REMSYN076AAXX  09094 06679 33/// /0504 11049 21066 39406 40070 52001 333 91107 91205;
0147066790999992010010910004+47483+008900FM-12+053699999V0200501N001519999999N9999999N1-00481-00661100691ADDMA1999999094051MD1410001+9999OA149900361REMSYN076AAXX  09104 06679 33/// /0503 11048 21066 39405 40069 58000 333 91107 91204;EQDQ01+000082APCTEN
0128066790999992010010911004+47483+008900FM-12+053699999V0200501N001519999999N9999999N1-00481-00651100671ADDMA1999999094031MD1810021+9999OA149900311REMSYN076AAXX  09114 06679 33/// /0503 11048 21065 39403 40067 58002 333 91106 91204;
0128066790999992010010912004+47483+008900FM-12+053699999V0200301N001519999999N9999999N1-00471-00661100591ADDMA1999999093961MD1710101+9999OA149900461REMSYN076AAXX  09124 06679 33/// /0303 11047 21066 39396 40059 57010 333 91109 91205;
0128066790999992010010913004+47483+008900FM-12+053699999V0200401N001519999999N9999999N1-00471-00641100581ADDMA1999999093951MD1710101+9999OA149900311REMSYN076AAXX  09134 06679 33/// /0403 11047 21064 39395 40058 57010 333 91106 91204;
0128066790999992010010914004+47483+008900FM-12+053699999V0200401N002119999999N9999999N1-00451-00611100591ADDMA1999999093971MD1510061+9999OA149900361REMSYN076AAXX  09144 06679 33/// /0404 11045 21061 39397 40059 55006 333 91107 91204;
0128066790999992010010915004+47483+008900FM-12+053699999V0200401N001519999999N9999999N1-00461-00581100621ADDMA1999999093991MD1310031+9999OA149900361REMSYN076AAXX  09154 06679 33/// /0403 11046 21058 39399 40062 53003 333 91107 91204;
0128066790999992010010916004+47483+008900FM-12+053699999V0200401N001519999999N9999999N1-00471-00601100651ADDMA1999999094021MD1110071+9999OA149900361REMSYN076AAXX  09164 06679 33/// /0403 11047 21060 39402 40065 51007 333 91107 91204;
0145066790999992010010917004+47483+008900FM-12+053699999V0200301N001519999999N9999999N1-00441-00591100641ADDAA101000021MA1999999094011MD1210041+9999OA149900361REMSYN082AAXX  09174 06679 23/// /0303 11044 21059 39401 40064 52004 333 69915 91107 91204;
0170066790999992010010918004+47483+008900FM-12+053699999V0200301N001019999999N9999999N1-00481-00551100671ADDAA112000591KA1120M-00441MA1999999094031MD1210041+9999OA149900361REMSYN094AAXX  09184 06679 03/// /0302 11048 21055 39403 40067 52004 69952 333 11044 69945 91107 91204;
0145066790999992010010919004+47483+008900FM-12+053699999V0200501N001019999999N9999999N1-00471-00591100711ADDAA101000591MA1999999094071MD1210051+9999OA149900311REMSYN082AAXX  09194 06679 23/// /0502 11047 21059 39407 40071 52005 333 69955 91106 91204;
0145066790999992010010920004+47483+008900FM-12+053699999V0200601N001019999999N9999999N1-00471-00601100731ADDAA101000021MA1999999094091MD1110081+9999OA149900211REMSYN082AAXX  09204 06679 23/// /0602 11047 21060 39409 40073 51008 333 69925 91104 91203;
0128066790999992010010921004+47483+008900FM-12+053699999V0203501N001019999999N9999999N1-00481-00611100761ADDMA1999999094121MD1310091+9999OA149900361REMSYN076AAXX  09214 06679 33/// /3502 11048 21061 39412 40076 53009 333 91107 91204;
0128066790999992010010922004+47483+008900FM-12+053699999V0209999C001019999999N9999999N1-00491-00631100801ADDMA1999999094151MD1110081+9999OA149900211REMSYN076AAXX  09224 06679 33/// /0002 11049 21063 39415 40080 51008 333 91104 91203;
0128066790999992010010923004+47483+008900FM-12+053699999V0203401N000519999999N9999999N1-00491-00631100841ADDMA1999999094191MD1310101+9999OA149900211REMSYN076AAXX  09234 06679 33/// /3401 11049 21063 39419 40084 53010 333 91104 91203;
0151066790999992010011000004+47483+008900FM-12+053699999V0209999C000019999999N9999999N1-00511-00631100871ADDAA106001091MA1999999094211MD1110091+9999OA149900361REMSYN088AAXX  10004 06679 03/// /0000 11051 21063 39421 40087 51009 60011 333 69935 91107 91204;
0128066790999992010011001004+47483+008900FM-12+053699999V0209999C000019999999N9999999N1-00531-00671100891ADDMA1999999094231MD1210081+9999OA149900101REMSYN076AAXX  10014 06679 33/// /0000 11053 21067 39423 40089 52008 333 91102 91201;
0087066790999992010011002004+47483+008900FM-12+053699999V0202701N000519999999N9999999N1-00521-00661100951ADDMA1999999094281REMSYN060AAXX  10024 06679 33/// /2701 11052 21066 39428 40095 5////;
0087066790999992010011003004+47483+008900FM-12+053699999V0202701N000519999999N9999999N1-00521-00671100981ADDMA1999999094311REMSYN060AAXX  10034 06679 43/// /2701 11052 21067 39431 40098 5////;
0128066790999992010011004004+47483+008900FM-12+053699999V0209999C000019999999N9999999N1-00521-00661101031ADDMA1999999094361MD1110131+9999OA149900101REMSYN076AAXX  10044 06679 33/// /0000 11052 21066 39436 40103 51013 333 91102 91201;
0128066790999992010011005004+47483+008900FM-12+053699999V0203501N001019999999N9999999N1-00511-00651101081ADDMA1999999094411MD1310131+9999OA149900151REMSYN076AAXX  10054 06679 33/// /3502 11051 21065 39441 40108 53013 333 91103 91202;
0229066790999992010011006004+47483+008900FM-12+053699999V0202601N001019999999N9999999N1-00491-00681101141ADDAA112001091AA224001591AL13000191GJ100009IA2999-00609KA1999N-00541MA1999999094471MD1110161+9999OA149900211REMSYN112AAXX  10064 06679 03/// /2602 11049 21068 39447 40114 51016 60012 333 21054 3/106 55000 60005 70015 91104 91203;
0128066790999992010011007004+47483+008900FM-12+053699999V0202701N001019999999N9999999N1-00481-00671101211ADDMA1999999094541MD1310181+9999OA149900151REMSYN076AAXX  10074 06679 33/// /2702 11048 21067 39454 40121 53018 333 91103 91202;
0128066790999992010011008004+47483+008900FM-12+053699999V0209999C000019999999N9999999N1-00481-00691101291ADDMA1999999094611MD1319999+9999OA149900151REMSYN076AAXX  10084 06679 33/// /0000 11048 21069 39461 40129 53/// 333 91103 91202;
0128066790999992010011009004+47483+008900FM-12+053699999V0202701N001019999999N9999999N1-00451-00761101371ADDMA1999999094691MD1310221+9999OA149900151REMSYN076AAXX  10094 06679 33/// /2702 11045 21076 39469 40137 53022 333 91103 91202;
0128066790999992010011010004+47483+008900FM-12+053699999V0202801N000519999999N9999999N1-00411-00721101411ADDMA1999999094741MD1110201+9999OA149900151REMSYN076AAXX  10104 06679 33/// /2801 11041 21072 39474 40141 51020 333 91103 91202;
0128066790999992010011011004+47483+008900FM-12+053699999V0202801N002119999999N9999999N1-00391-00731101461ADDMA1999999094791MD1110181+9999OA149900361REMSYN076AAXX  10114 06679 33/// /2804 11039 21073 39479 40146 51018 333 91107 91204;
0128066790999992010011012004+47483+008900FM-12+053699999V0202701N002119999999N9999999N1-00371-00741101471ADDMA1999999094811MD1110121+9999OA149900361REMSYN076AAXX  10124 06679 33/// /2704 11037 21074 39481 40147 51012 333 91107 91204;
0128066790999992010011013004+47483+008900FM-12+053699999V0202901N001519999999N9999999N1-00391-00731101491ADDMA1999999094821MD1110081+9999OA149900361REMSYN076AAXX  10134 06679 33/// /2903 11039 21073 39482 40149 51008 333 91107 91204;
0128066790999992010011014004+47483+008900FM-12+053699999V0202901N001519999999N9999999N1-00411-00741101551ADDMA1999999094871MD1319999+9999OA149900361REMSYN076AAXX  10144 06679 33/// /2903 11041 21074 39487 40155 53/// 333 91107 91204;
0128066790999992010011015004+47483+008900FM-12+053699999V0202801N001519999999N9999999N1-00421-00721101601ADDMA1999999094921MD1310111+9999OA149900361REMSYN076AAXX  10154 06679 33/// /2803 11042 21072 39492 40160 53011 333 91107 91204;
0128066790999992010011016004+47483+008900FM-12+053699999V0203001N001519999999N9999999N1-00441-00751101671ADDMA1999999094981MD1110161+9999OA149900311REMSYN076AAXX  10164 06679 33/// /3003 11044 21075 39498 40167 51016 333 91106 91203;
0128066790999992010011017004+47483+008900FM-12+053699999V0202401N000519999999N9999999N1-00501-00751101731ADDMA1999999095021MD1210151+9999OA149900311REMSYN076AAXX  10174 06679 33/// /2401 11050 21075 39502 40173 52015 333 91106 91203;
0147066790999992010011018004+47483+008900FM-12+053699999V0202401N000519999999N9999999N1-00511-00771101781ADDKA1120M-00371MA1999999095061MD1110141+9999OA149900361REMSYN082AAXX  10184 06679 33/// /2401 11051 21077 39506 40178 51014 333 11037 91107 91204;
0128066790999992010011019004+47483+008900FM-12+053699999V0202401N000519999999N9999999N1-00581-00771101821ADDMA1999999095081MD1310101+9999OA149900101REMSYN076AAXX  10194 06679 33/// /2401 11058 21077 39508 40182 53010 333 91102 91201;
0128066790999992010011020004+47483+008900FM-12+053699999V0202701N000519999999N9999999N1-00571-00791101831ADDMA1999999095091MD1210071+9999OA149900151REMSYN076AAXX  10204 06679 33/// /2701 11057 21079 39509 40183 52007 333 91103 91202;
0128066790999992010011021004+47483+008900FM-12+053699999V0202001N000519999999N9999999N1-00571-00761101841ADDMA1999999095101MD1210041+9999OA149900311REMSYN076AAXX  10214 06679 33/// /2001 11057 21076 39510 40184 52004 333 91106 91203;
0128066790999992010011022004+47483+008900FM-12+053699999V0202701N000519999999N9999999N1-00541-00751101831ADDMA1999999095101MD1210021+9999OA149900101REMSYN076AAXX  10224 06679 33/// /2701 11054 21075 39510 40183 52002 333 91102 91201;
0128066790999992010011023004+47483+008900FM-12+053699999V0202301N000519999999N9999999N1-00541-00751101821ADDMA1999999095091MD1010001+9999OA149900101REMSYN076AAXX  10234 06679 33/// /2301 11054 21075 39509 40182 50000 333 91102 91201;
0128066790999992010011100004+47483+008900FM-12+053699999V0202301N000519999999N9999999N1-00571-00721101811ADDMA1999999095081MD1810021+9999OA149900361REMSYN076AAXX  11004 06679 33/// /2301 11057 21072 39508 40181 58002 333 91107 91204;
0128066790999992010011101004+47483+008900FM-12+053699999V0209999C000019999999N9999999N1-00551-00711101801ADDMA1999999095071MD1710031+9999OA149900151REMSYN076AAXX  11014 06679 33/// /0000 11055 21071 39507 40180 57003 333 91103 91201;
0128066790999992010011102004+47483+008900FM-12+053699999V0202601N000519999999N9999999N1-00521-00741101821ADDMA1999999095101MD1319999+9999OA149900101REMSYN076AAXX  11024 06679 33/// /2601 11052 21074 39510 40182 53/// 333 91102 91201;
0128066790999992010011103004+47483+008900FM-12+053699999V0203201N000519999999N9999999N1-00541-00741101831ADDMA1999999095101MD1219999+9999OA149900151REMSYN076AAXX  11034 06679 33/// /3201 11054 21074 39510 40183 52/// 333 91103 91201;
0163066790999992010011104004+47483+008900FM-12+053699999V0201201N000519999999N9999999N1-00521-00751101791ADDMA1999999095071MD1710011+9999OA149900101REMSYN076AAXX  11044 06679 33/// /1201 11052 21075 39507 40179 58000 333 91102 91201;EQDQ01+000082APCTENQ02+000002APC3  
0128066790999992010011105004+47483+008900FM-12+053699999V0209999C000019999999N9999999N1-00561-00751101811ADDMA1999999095081MD1710021+9999OA149900101REMSYN076AAXX  11054 06679 33/// /0000 11056 21075 39508 40181 57002 333 91102 91201;
0225066790999992010011106004+47483+008900FM-12+053699999V0200401N000519999999N9999999N1-00641-00821101801ADDAA124000091AL19900091GJ100009IA2999-00809KA1999N-00631MA1999999095051MD1710051+9999OA149900151REMSYN100AAXX  11064 06679 33/// /0401 11064 21082 39505 40180 57005 333 21063 3/108 55000 70000 91103 91202;EQDQ01  00002PRCP24
0128066790999992010011107004+47483+008900FM-12+053699999V0209999C000019999999N9999999N1-00681-00831101841ADDMA1999999095081MD1310011+9999OA149900101REMSYN076AAXX  11074 06679 33/// /0000 11068 21083 39508 40184 53001 333 91102 91202;
0128066790999992010011108004+47483+008900FM-12+053699999V0202501N001019999999N9999999N1-00631-00821101831ADDMA1999999095081MD1219999+9999OA149900151REMSYN076AAXX  11084 06679 33/// /2502 11063 21082 39508 40183 52/// 333 91103 91202;
0128066790999992010011109004+47483+008900FM-12+053699999V0209999C000019999999N9999999N1-00571-00761101811ADDMA1999999095081MD1010031+9999OA149900151REMSYN076AAXX  11094 06679 33/// /0000 11057 21076 39508 40181 50003 333 91103 91202;
0128066790999992010011110004+47483+008900FM-12+053699999V0209999C000019999999N9999999N1-00461-00691101781ADDMA1999999095071MD1719999+9999OA149900151REMSYN076AAXX  11104 06679 33/// /0000 11046 21069 39507 40178 57/// 333 91103 91202;
0128066790999992010011111004+47483+008900FM-12+053699999V0209999C000019999999N9999999N1-00391-00701101751ADDMA1999999095061MD1710021+9999OA149900101REMSYN076AAXX  11114 06679 33/// /0000 11039 21070 39506 40175 57002 333 91102 91201;
0128066790999992010011112004+47483+008900FM-12+053699999V0203301N001519999999N9999999N1-00331-00661101711ADDMA1999999095041MD1710041+9999OA149900211REMSYN076AAXX  11124 06679 33/// /3303 11033 21066 39504 40171 57004 333 91104 91203;
0128066790999992010011113004+47483+008900FM-12+053699999V0202801N001519999999N9999999N1-00301-00611101671ADDMA1999999095011MD1710061+9999OA149900311REMSYN076AAXX  11134 06679 33/// /2803 11030 21061 39501 40167 57006 333 91106 91203;
0087066790999992010011114004+47483+008900FM-12+053699999V0202601N001519999999N9999999N1-00301-00631101691ADDMA1999999095031REMSYN060AAXX  11144 06679 33/// /2603 11030 21063 39503 40169 5////;
0128066790999992010011115004+47483+008900FM-12+053699999V0202801N001519999999N9999999N1-00331-00621101761ADDMA1999999095091MD1310051+9999OA149900411REMSYN076AAXX  11154 06679 33/// /2803 11033 21062 39509 40176 53005 333 91108 91204;
0145066790999992010011116004+47483+008900FM-12+053699999V0202901N000519999999N9999999N1-00401-00541101811ADDAA101000591MA1999999095121MD1310111+9999OA149900411REMSYN082AAXX  11164 06679 23/// /2901 11040 21054 39512 40181 53011 333 69955 91108 91204;
0145066790999992010011117004+47483+008900FM-12+053699999V0202801N001019999999N9999999N1-00391-00581101851ADDAA101000891MA1999999095161MD1110131+9999OA149900261REMSYN082AAXX  11174 06679 23/// /2802 11039 21058 39516 40185 51013 333 69975 91105 91203;
0170066790999992010011118004+47483+008900FM-12+053699999V0209999C000019999999N9999999N1-00411-00571101901ADDAA112002091KA1120M-00291MA1999999095201MD1310111+9999OA149900411REMSYN094AAXX  11184 06679 03/// /0000 11041 21057 39520 40190 53011 60022 333 11029 69935 91108 91204;
0145066790999992010011119004+47483+008900FM-12+053699999V0209999C000019999999N9999999N1-00421-00581101911ADDAA101000021MA1999999095211MD1110091+9999OA149900261REMSYN082AAXX  11194 06679 23/// /0000 11042 21058 39521 40191 51009 333 69915 91105 91201;
0128066790999992010011120004+47483+008900FM-12+053699999V0203201N000519999999N9999999N1-00381-00621101911ADDMA1999999095221MD1110061+9999OA149900261REMSYN076AAXX  11204 06679 33/// /3201 11038 21062 39522 40191 51006 333 91105 91201;
0145066790999992010011121004+47483+008900FM-12+053699999V0202301N000519999999N9999999N1-00371-00591101921ADDAA101000021MA1999999095231MD1210031+9999OA149900261REMSYN082AAXX  11214 06679 23/// /2301 11037 21059 39523 40192 52003 333 69915 91105 91203;
0145066790999992010011122004+47483+008900FM-12+053699999V0202601N000519999999N9999999N1-00371-00531101931ADDAA101000591MA1999999095241MD1210031+9999OA149900211REMSYN082AAXX  11224 06679 23/// /2601 11037 21053 39524 40193 52003 333 69945 91104 91202;
0145066790999992010011123004+47483+008900FM-12+053699999V0209999C000019999999N9999999N1-00401-00511101961ADDAA101000591MA1999999095261MD1210041+9999OA149900211REMSYN082AAXX  11234 06679 23/// /0000 11040 21051 39526 40196 52004 333 69945 91104 91202;
0151066790999992010011200004+47483+008900FM-12+053699999V0209999C000019999999N9999999N1-00391-00501101951ADDAA106002091MA1999999095251MD1010021+9999OA149900411REMSYN088AAXX  12004 06679 03/// /0000 11039 21050 39525 40195 50002 60021 333 69955 91108 91204;
0145066790999992010011201004+47483+008900FM-12+053699999V0200401N000519999999N9999999N1-00401-00521101951ADDAA101000021MA1999999095251MD1010011+9999OA149900101REMSYN082AAXX  12014 06679 23/// /0401 11040 21052 39525 40195 50001 333 69925 91102 91201;
0128066790999992010011202004+47483+008900FM-12+053699999V0209999C000019999999N9999999N1-00411-00531101941ADDMA1999999095241MD1719999+9999OA149900101REMSYN076AAXX  12024 06679 33/// /0000 11041 21053 39524 40194 57/// 333 91102 91201;
0128066790999992010011203004+47483+008900FM-12+053699999V0209999C000019999999N9999999N1-00431-00521101941ADDMA1999999095231MD1810021+9999OA149900211REMSYN076AAXX  12034 06679 33/// /0000 11043 21052 39523 40194 58002 333 91104 91202;
0128066790999992010011204004+47483+008900FM-12+053699999V0209999C000019999999N9999999N1-00421-00521101931ADDMA1999999095221MD1710031+9999OA149900101REMSYN076AAXX  12044 06679 33/// /0000 11042 21052 39522 40193 57003 333 91102 91201;
0128066790999992010011205004+47483+008900FM-12+053699999V0209999C000019999999N9999999N1-00411-00511101901ADDMA1999999095201MD1710041+9999OA149900101REMSYN076AAXX  12054 06679 33/// /0000 11041 21051 39520 40190 57004 333 91102 91201;
0229066790999992010011206004+47483+008900FM-12+053699999V0200401N000519999999N9999999N1-00401-00511101901ADDAA112002091AA224003391AL11200391GJ100009IA2999-00309KA1999N-00451MA1999999095201MD1710031+9999OA149900261REMSYN112AAXX  12064 06679 03/// /0401 11040 21051 39520 40190 57003 60022 333 21045 3/103 55000 60005 70032 91105 91202;
0128066790999992010011207004+47483+008900FM-12+053699999V0209999C000019999999N9999999N1-00421-00531101841ADDMA1999999095141MD1710081+9999OA149900051REMSYN076AAXX  12074 06679 33/// /0000 11042 21053 39514 40184 57008 333 91101 91201;
0128066790999992010011208004+47483+008900FM-12+053699999V0200601N000519999999N9999999N1-00381-00501101791ADDMA1999999095101MD1719999+9999OA149900101REMSYN076AAXX  12084 06679 33/// /0601 11038 21050 39510 40179 57/// 333 91102 91201;
0128066790999992010011209004+47483+008900FM-12+053699999V0200501N000519999999N9999999N1-00411-00521101751ADDMA1999999095061MD1710141+9999OA149900151REMSYN076AAXX  12094 06679 33/// /0501 11041 21052 39506 40175 57014 333 91103 91201;
0128066790999992010011210004+47483+008900FM-12+053699999V0200401N001019999999N9999999N1-00351-00511101661ADDMA1999999094991MD1810151+9999OA149900151REMSYN076AAXX  12104 06679 33/// /0402 11035 21051 39499 40166 58015 333 91103 91202;
0128066790999992010011211004+47483+008900FM-12+053699999V0200401N001519999999N9999999N1-00381-00541101561ADDMA1999999094891MD1810211+9999OA149900151REMSYN076AAXX  12114 06679 33/// /0403 11038 21054 39489 40156 58021 333 91103 91203;
0128066790999992010011212004+47483+008900FM-12+053699999V0200301N000519999999N9999999N1-00281-00481101451ADDMA1999999094811MD1710251+9999OA149900151REMSYN076AAXX  12124 06679 33/// /0301 11028 21048 39481 40145 57025 333 91103 91203;
0128066790999992010011213004+47483+008900FM-12+053699999V0200901N001019999999N9999999N1-00241-00411101361ADDMA1999999094741MD1610251+9999OA149900211REMSYN076AAXX  12134 06679 33/// /0902 11024 21041 39474 40136 56025 333 91104 91202;
0087066790999992010011214004+47483+008900FM-12+053699999V0200701N000519999999N9999999N1-00241-00421101321ADDMA1999999094701REMSYN060AAXX  12144 06679 33/// /0701 11024 21042 39470 40132 5////;
0128066790999992010011215004+47483+008900FM-12+053699999V0201201N001019999999N9999999N1-00241-00431101231ADDMA1999999094611MD1810201+9999OA149900261REMSYN076AAXX  12154 06679 33/// /1202 11024 21043 39461 40123 58020 333 91105 91203;
0128066790999992010011216004+47483+008900FM-12+053699999V0201001N000519999999N9999999N1-00221-00441101141ADDMA1999999094531MD1810211+9999OA149900261REMSYN076AAXX  12164 06679 33/// /1001 11022 21044 39453 40114 58021 333 91105 91202;
0128066790999992010011217004+47483+008900FM-12+053699999V0200901N001019999999N9999999N1-00231-00461101071ADDMA1999999094471MD1610231+9999OA149900311REMSYN076AAXX  12174 06679 33/// /0902 11023 21046 39447 40107 56023 333 91106 91202;
0147066790999992010011218004+47483+008900FM-12+053699999V0209999C000019999999N9999999N1-00241-00461101031ADDKA1120M-00211MA1999999094431MD1610181+9999OA149900311REMSYN082AAXX  12184 06679 33/// /0000 11024 21046 39443 40103 56018 333 11021 91106 91203;
0128066790999992010011219004+47483+008900FM-12+053699999V0201801N000519999999N9999999N1-00231-00431101021ADDMA1999999094421MD1710111+9999OA149900311REMSYN076AAXX  12194 06679 33/// /1801 11023 21043 39442 40102 57011 333 91106 91203;
0128066790999992010011220004+47483+008900FM-12+053699999V0200601N000519999999N9999999N1-00231-00401100981ADDMA1999999094381MD1710091+9999OA149900151REMSYN076AAXX  12204 06679 33/// /0601 11023 21040 39438 40098 57009 333 91103 91201;
0128066790999992010011221004+47483+008900FM-12+053699999V0201001N001019999999N9999999N1-00231-00421100871ADDMA1999999094281MD1710151+9999OA149900311REMSYN076AAXX  12214 06679 33/// /1002 11023 21042 39428 40087 57015 333 91106 91203;
0128066790999992010011222004+47483+008900FM-12+053699999V0200701N001019999999N9999999N1-00251-00401100841ADDMA1999999094251MD1710171+9999OA149900261REMSYN076AAXX  12224 06679 33/// /0702 11025 21040 39425 40084 57017 333 91105 91203;
0128066790999992010011223004+47483+008900FM-12+053699999V0200901N001019999999N9999999N1-00241-00441100801ADDMA1999999094211MD1710171+9999OA149900261REMSYN076AAXX  12234 06679 33/// /0902 11024 21044 39421 40080 57017 333 91105 91202;
0128066790999992010011300004+47483+008900FM-12+053699999V0200801N000519999999N9999999N1-00281-00451100791ADDMA1999999094191MD1710091+9999OA149900311REMSYN076AAXX  13004 06679 33/// /0801 11028 21045 39419 40079 57009 333 91106 91203;
0128066790999992010011301004+47483+008900FM-12+053699999V0202901N000519999999N9999999N1-00291-00461100861ADDMA1999999094261MD1310011+9999OA149900261REMSYN076AAXX  13014 06679 33/// /2901 11029 21046 39426 40086 53001 333 91105 91203;
0128066790999992010011302004+47483+008900FM-12+053699999V0202801N001519999999N9999999N1-00281-00451100901ADDMA1999999094301MD1219999+9999OA149900261REMSYN076AAXX  13024 06679 33/// /2803 11028 21045 39430 40090 52/// 333 91105 91203;
0128066790999992010011303004+47483+008900FM-12+053699999V0201201N001019999999N9999999N1-00291-00461100781ADDMA1999999094181MD1819999+9999OA149900261REMSYN076AAXX  13034 06679 33/// /1202 11029 21046 39418 40078 58/// 333 91105 91203;
0128066790999992010011304004+47483+008900FM-12+053699999V0201101N000519999999N9999999N1-00331-00491100761ADDMA1999999094151MD1710111+9999OA149900261REMSYN076AAXX  13044 06679 33/// /1101 11033 21049 39415 40076 57011 333 91105 91202;
0128066790999992010011305004+47483+008900FM-12+053699999V0200501N000519999999N9999999N1-00341-00481100731ADDMA1999999094121MD1710181+9999OA149900261REMSYN076AAXX  13054 06679 33/// /0501 11034 21048 39412 40073 57018 333 91105 91202;
0225066790999992010011306004+47483+008900FM-12+053699999V0200501N000519999999N9999999N1-00351-00471100751ADDAA124000091AL19900091GJ100009IA2999-00209KA1999N-00371MA1999999094141MD1510041+9999OA149900261REMSYN100AAXX  13064 06679 33/// /0501 11035 21047 39414 40075 55004 333 21037 3/102 55000 70000 91105 91203;EQDQ01  00002PRCP24
0128066790999992010011307004+47483+008900FM-12+053699999V0201001N000519999999N9999999N1-00281-00461100751ADDMA1999999094161MD1210011+9999OA149900151REMSYN076AAXX  13074 06679 33/// /1001 11028 21046 39416 40075 52001 333 91103 91202;
0128066790999992010011308004+47483+008900FM-12+053699999V0202701N000519999999N9999999N1-00271-00451100861ADDMA1999999094261MD1310141+9999OA149900151REMSYN076AAXX  13084 06679 33/// /2701 11027 21045 39426 40086 53014 333 91103 91202;
0128066790999992010011309004+47483+008900FM-12+053699999V0203501N001019999999N9999999N1-00241-00411100891ADDMA1999999094301MD1310161+9999OA149900261REMSYN076AAXX  13094 06679 33/// /3502 11024 21041 39430 40089 53016 333 91105 91202;
0145066790999992010011310004+47483+008900FM-12+053699999V0209999C000019999999N9999999N1-00231-00391100951ADDAA101000021MA1999999094351MD1110191+9999OA149900151REMSYN082AAXX  13104 06679 23/// /0000 11023 21039 39435 40095 51019 333 69915 91103 91202;
0145066790999992010011311004+47483+008900FM-12+053699999V0200601N000519999999N9999999N1-00181-00321100941ADDAA101000021MA1999999094361MD1110101+9999OA149900101REMSYN082AAXX  13114 06679 23/// /0601 11018 21032 39436 40094 51010 333 69915 91102 91202;
0170066790999992010011312004+47483+008900FM-12+053699999V0201301N000519999999N9999999N1-00121-00301100911ADDAA106000091MA1999999094341MD1010041+9999OA149900261REMSYN088AAXX  13124 06679 03/// /1301 11012 21030 39434 40091 50004 69921 333 60005 91105 91203;EQDQ01  00002PRCP06
0128066790999992010011313004+47483+008900FM-12+053699999V0200701N000519999999N9999999N1-00101-00261100891ADDMA1999999094331MD1710021+9999OA149900151REMSYN076AAXX  13134 06679 33/// /0701 11010 21026 39433 40089 57002 333 91103 91202;
0145066790999992010011314004+47483+008900FM-12+053699999V0200501N000519999999N9999999N1-00071-00201100901ADDAA101000021MA1999999094351MD1519999+9999OA149900151REMSYN082AAXX  13144 06679 23/// /0501 11007 21020 39435 40090 55/// 333 69915 91103 91202;
0145066790999992010011315004+47483+008900FM-12+053699999V0200601N000519999999N9999999N1-00051-00141100911ADDAA101000591MA1999999094361MD1210021+9999OA149900151REMSYN082AAXX  13154 06679 23/// /0601 11005 21014 39436 40091 52002 333 69955 91103 91202;
0145066790999992010011316004+47483+008900FM-12+053699999V0200601N001019999999N9999999N1-00011-00101100931ADDAA101000391MA1999999094391MD1210061+9999OA149900151REMSYN082AAXX  13164 06679 23/// /0602 11001 21010 39439 40093 52006 333 69935 91103 91202;
0145066790999992010011317004+47483+008900FM-12+053699999V0202301N002119999999N9999999N1+00211+00021100911ADDAA101000021MA1999999094421MD1210071+9999OA149900621REMSYN082AAXX  13174 06679 23/// /2304 10021 20002 39442 40091 52007 333 69915 91112 91204;
0170066790999992010011318004+47483+008900FM-12+053699999V0202301N002619999999N9999999N1+00211+00031100951ADDAA112001091KA1120M+00221MA1999999094461MD1310101+9999OA149900771REMSYN094AAXX  13184 06679 03/// /2305 10021 20003 39446 40095 53010 60012 333 10022 69925 91115 91206;
0145066790999992010011319004+47483+008900FM-12+053699999V0202301N002119999999N9999999N1+00201+00031100991ADDAA101000591MA1999999094491MD1119999+9999OA149900771REMSYN082AAXX  13194 06679 23/// /2304 10020 20003 39449 40099 51/// 333 69965 91115 91206;
0093066790999992010011400004+47483+008900FM-12+053699999V0209999C000019999999N9999999N1+00141+00041100951ADDMA1999999094441REMSYN066AAXX  14004 06679 43/// /0000 10014 20004 39444 40095 5//// 90020;
0128066790999992010011401004+47483+008900FM-12+053699999V0209999C000519999999N9999999N1+00081+00011100951ADDMA1999999094431MD1619999+9999OA149900151REMSYN076AAXX  14014 06679 33/// /0001 10008 20001 39443 40095 56/// 333 91103 91201;
0128066790999992010011402004+47483+008900FM-12+053699999V0209999C000019999999N9999999N1+00031+00021100941ADDMA1999999094411MD1619999+9999OA149900151REMSYN076AAXX  14024 06679 33/// /0000 10003 20002 39441 40094 56/// 333 91103 91201;
0087066790999992010011403004+47483+008900FM-12+053699999V0200401N001019999999N9999999N1+00001-00021100911ADDMA1999999094371REMSYN060AAXX  14034 06679 33/// /0402 10000 21002 39437 40091 5////;
0128066790999992010011404004+47483+008900FM-12+053699999V0200401N001019999999N9999999N1+00021+00011100861ADDMA1999999094331MD1610101+9999OA149900211REMSYN076AAXX  14044 06679 33/// /0402 10002 20001 39433 40086 56010 333 91104 91203;
0128066790999992010011405004+47483+008900FM-12+053699999V0200401N001019999999N9999999N1+00021-00011100871ADDMA1999999094341MD1710071+9999OA149900211REMSYN076AAXX  14054 06679 33/// /0402 10002 21001 39434 40087 57007 333 91104 91203;
0229066790999992010011406004+47483+008900FM-12+053699999V0201101N000519999999N9999999N1+00031-00041100841ADDAA112002091AA224003691AL13000391GJ100009IA2999+00009KA1999N-00031MA1999999094311MD1710061+9999OA149900671REMSYN112AAXX  14064 06679 03/// /1101 10003 21004 39431 40084 57006 60022 333 21003 3/100 55000 60005 70035 91113 91205;
0128066790999992010011407004+47483+008900FM-12+053699999V0200901N001019999999N9999999N1+00101+00001100811ADDMA1999999094301MD1710031+9999OA149900261REMSYN076AAXX  14074 06679 33/// /0902 10010 20000 39430 40081 57003 333 91105 91202;
0128066790999992010011408004+47483+008900FM-12+053699999V0200701N001519999999N9999999N1+00091+00021100791ADDMA1999999094281MD1619999+9999OA149900411REMSYN076AAXX  14084 06679 33/// /0703 10009 20002 39428 40079 56/// 333 91108 91203;
0128066790999992010011409004+47483+008900FM-12+053699999V0200501N001019999999N9999999N1+00091+00011100801ADDMA1999999094291MD1710021+9999OA149900411REMSYN076AAXX  14094 06679 33/// /0502 10009 20001 39429 40080 57002 333 91108 91203;
0128066790999992010011410004+47483+008900FM-12+053699999V0200901N001519999999N9999999N1+00121+00001100771ADDMA1999999094271MD1710031+9999OA149900361REMSYN076AAXX  14104 06679 33/// /0903 10012 20000 39427 40077 57003 333 91107 91203;
0128066790999992010011411004+47483+008900FM-12+053699999V0200801N002119999999N9999999N1+00141-00031100731ADDMA1999999094241MD1810041+9999OA149900411REMSYN076AAXX  14114 06679 33/// /0804 10014 21003 39424 40073 58004 333 91108 91204;
0128066790999992010011412004+47483+008900FM-12+053699999V0200801N001519999999N9999999N1+00151+00001100671ADDMA1999999094181MD1810111+9999OA149900411REMSYN076AAXX  14124 06679 33/// /0803 10015 20000 39418 40067 58011 333 91108 91204;
0128066790999992010011413004+47483+008900FM-12+053699999V0201201N000519999999N9999999N1+00151-00011100631ADDMA1999999094151MD1610121+9999OA149900361REMSYN076AAXX  14134 06679 33/// /1201 10015 21001 39415 40063 56012 333 91107 91204;
0128066790999992010011414004+47483+008900FM-12+053699999V0200901N000519999999N9999999N1+00171+00001100641ADDMA1999999094161MD1710081+9999OA149900211REMSYN076AAXX  14144 06679 33/// /0901 10017 20000 39416 40064 57008 333 91104 91202;
0163066790999992010011415004+47483+008900FM-12+053699999V0200201N000519999999N9999999N1+00171+00001100661ADDMA1999999094181MD1710011+9999OA149900411REMSYN076AAXX  14154 06679 33/// /0201 10017 20000 39418 40066 53000 333 91108 91204;EQDQ01+000032APCTENQ02+000002APC3  
0128066790999992010011416004+47483+008900FM-12+053699999V0203301N000519999999N9999999N1+00141+00021100731ADDMA1999999094241MD1310091+9999OA149900151REMSYN076AAXX  14164 06679 33/// /3301 10014 20002 39424 40073 53009 333 91103 91201;
0128066790999992010011417004+47483+008900FM-12+053699999V0200501N001019999999N9999999N1+00141+00031100791ADDMA1999999094291MD1310131+9999OA149900211REMSYN076AAXX  14174 06679 33/// /0502 10014 20003 39429 40079 53013 333 91104 91203;
0147066790999992010011418004+47483+008900FM-12+053699999V0200901N001519999999N9999999N1+00141+00001100861ADDKA1120M+00191MA1999999094361MD1310181+9999OA149900411REMSYN082AAXX  14184 06679 33/// /0903 10014 20000 39436 40086 53018 333 10019 91108 91204;
0128066790999992010011419004+47483+008900FM-12+053699999V0200601N002619999999N9999999N1+00091-00051100951ADDMA1999999094431MD1310191+9999OA149900461REMSYN076AAXX  14194 06679 33/// /0605 10009 21005 39443 40095 53019 333 91109 91205;
0128066790999992010011420004+47483+008900FM-12+053699999V0200601N002119999999N9999999N1+00071-00081101031ADDMA1999999094501MD1110211+9999OA149900461REMSYN076AAXX  14204 06679 33/// /0604 10007 21008 39450 40103 51021 333 91109 91205;
0128066790999992010011421004+47483+008900FM-12+053699999V0200601N001519999999N9999999N1+00061-00091101111ADDMA1999999094571MD1210211+9999OA149900461REMSYN076AAXX  14214 06679 33/// /0603 10006 21009 39457 40111 52021 333 91109 91205;
0128066790999992010011422004+47483+008900FM-12+053699999V0200401N001019999999N9999999N1+00041-00111101211ADDMA1999999094661MD1310231+9999OA149900361REMSYN076AAXX  14224 06679 33/// /0402 10004 21011 39466 40121 53023 333 91107 91204;
0128066790999992010011423004+47483+008900FM-12+053699999V0200601N000519999999N9999999N1+00041-00121101301ADDMA1999999094751MD1310251+9999OA149900261REMSYN076AAXX  14234 06679 33/// /0601 10004 21012 39475 40130 53025 333 91105 91203;
0128066790999992010011500004+47483+008900FM-12+053699999V0200201N001019999999N9999999N1+00001-00141101381ADDMA1999999094811MD1110241+9999OA149900461REMSYN076AAXX  15004 06679 33/// /0202 10000 21014 39481 40138 51024 333 91109 91205;
0128066790999992010011501004+47483+008900FM-12+053699999V0200401N001019999999N9999999N1-00011-00161101451ADDMA1999999094871MD1110211+9999OA149900261REMSYN076AAXX  15014 06679 33/// /0402 11001 21016 39487 40145 51021 333 91105 91203;
0128066790999992010011502004+47483+008900FM-12+053699999V0200501N000519999999N9999999N1-00021-00161101531ADDMA1999999094951MD1310201+9999OA149900261REMSYN076AAXX  15024 06679 33/// /0501 11002 21016 39495 40153 53020 333 91105 91203;
0087066790999992010011503004+47483+008900FM-12+053699999V0200401N001019999999N9999999N1-00021-00151101631ADDMA1999999095041REMSYN060AAXX  15034 06679 33/// /0402 11002 21015 39504 40163 5////;
0128066790999992010011504004+47483+008900FM-12+053699999V0200401N000519999999N9999999N1-00031-00161101711ADDMA1999999095111MD1110241+9999OA149900151REMSYN076AAXX  15044 06679 33/// /0401 11003 21016 39511 40171 51024 333 91103 91202;
0128066790999992010011505004+47483+008900FM-12+053699999V0200401N000519999999N9999999N1-00041-00151101821ADDMA1999999095211MD1310261+9999OA149900151REMSYN076AAXX  15054 06679 33/// /0401 11004 21015 39521 40182 53026 333 91103 91202;
0225066790999992010011506004+47483+008900FM-12+053699999V0200501N000519999999N9999999N1-00031-00151101911ADDAA124000091AL19900091GJ100009IA2999-00109KA1999N-00041MA1999999095301MD1310261+9999OA149900461REMSYN100AAXX  15064 06679 33/// /0501 11003 21015 39530 40191 53026 333 21004 3/101 55000 70000 91109 91205;EQDQ01  00002PRCP24
0128066790999992010011507004+47483+008900FM-12+053699999V0200701N000519999999N9999999N1-00031-00141102021ADDMA1999999095401MD1310291+9999OA149900151REMSYN076AAXX  15074 06679 33/// /0701 11003 21014 39540 40202 53029 333 91103 91201;
0128066790999992010011508004+47483+008900FM-12+053699999V0203001N000519999999N9999999N1+00011-00141102081ADDMA1999999095471MD1119999+9999OA149900151REMSYN076AAXX  15084 06679 33/// /3001 10001 21014 39547 40208 51/// 333 91103 91201;
0128066790999992010011509004+47483+008900FM-12+053699999V0202501N001019999999N9999999N1+00091-00211102161ADDMA1999999095561MD1210261+9999OA149900211REMSYN076AAXX  15094 06679 33/// /2502 10009 21021 39556 40216 52026 333 91104 91202;
0128066790999992010011510004+47483+008900FM-12+053699999V0202601N001019999999N9999999N1+00101-00191102211ADDMA1999999095611MD1210211+9999OA149900361REMSYN076AAXX  15104 06679 33/// /2602 10010 21019 39561 40221 52021 333 91107 91204;
0128066790999992010011511004+47483+008900FM-12+053699999V0202401N001019999999N9999999N1+00101-00201102261ADDMA1999999095661MD1110191+9999OA149900361REMSYN076AAXX  15114 06679 33/// /2402 10010 21020 39566 40226 51019 333 91107 91204;
0128066790999992010011512004+47483+008900FM-12+053699999V0202001N002119999999N9999999N1+00111-00181102271ADDMA1999999095671MD1110111+9999OA149900361REMSYN076AAXX  15124 06679 33/// /2004 10011 21018 39567 40227 51011 333 91107 91204;
0128066790999992010011513004+47483+008900FM-12+053699999V0202201N001519999999N9999999N1+00121-00181102331ADDMA1999999095731MD1310121+9999OA149900361REMSYN076AAXX  15134 06679 33/// /2203 10012 21018 39573 40233 53012 333 91107 91204;
0128066790999992010011514004+47483+008900FM-12+053699999V0202201N001019999999N9999999N1+00141-00161102381ADDMA1999999095781MD1310121+9999OA149900411REMSYN076AAXX  15144 06679 33/// /2202 10014 21016 39578 40238 53012 333 91108 91204;
0128066790999992010011515004+47483+008900FM-12+053699999V0202501N000519999999N9999999N1+00141-00161102451ADDMA1999999095851MD1210181+9999OA149900411REMSYN076AAXX  15154 06679 33/// /2501 10014 21016 39585 40245 52018 333 91108 91204;
0128066790999992010011516004+47483+008900FM-12+053699999V0201901N001019999999N9999999N1+00141-00151102511ADDMA1999999095901MD1110171+9999OA149900261REMSYN076AAXX  15164 06679 33/// /1902 10014 21015 39590 40251 51017 333 91105 91203;
0128066790999992010011517004+47483+008900FM-12+053699999V0202401N000519999999N9999999N1+00121-00121102591ADDMA1999999095971MD1110191+9999OA149900261REMSYN076AAXX  15174 06679 33/// /2401 10012 21012 39597 40259 51019 333 91105 91203;
0147066790999992010011518004+47483+008900FM-12+053699999V0202601N000519999999N9999999N1+00111-00131102621ADDKA1120M+00151MA1999999096001MD1210151+9999OA149900411REMSYN082AAXX  15184 06679 33/// /2601 10011 21013 39600 40262 52015 333 10015 91108 91204;
0128066790999992010011519004+47483+008900FM-12+053699999V0202901N000519999999N9999999N1+00091-00161102641ADDMA1999999096011MD1210111+9999OA149900261REMSYN076AAXX  15194 06679 33/// /2901 10009 21016 39601 40264 52011 333 91105 91202;
0128066790999992010011520004+47483+008900FM-12+053699999V0203001N000519999999N9999999N1+00071-00131102641ADDMA1999999096011MD1210041+9999OA149900261REMSYN076AAXX  15204 06679 33/// /3001 10007 21013 39601 40264 52004 333 91105 91202;
0128066790999992010011521004+47483+008900FM-12+053699999V0209999C000019999999N9999999N1+00051-00141102661ADDMA1999999096021MD1210021+9999OA149900261REMSYN076AAXX  15214 06679 33/// /0000 10005 21014 39602 40266 52002 333 91105 91203;
0128066790999992010011522004+47483+008900FM-12+053699999V0200501N000519999999N9999999N1+00061-00121102651ADDMA1999999096011MD1010001+9999OA149900101REMSYN076AAXX  15224 06679 33/// /0501 10006 21012 39601 40265 50000 333 91102 91201;
0128066790999992010011523004+47483+008900FM-12+053699999V0201301N001019999999N9999999N1+00071-00151102641ADDMA1999999096011MD1010001+9999OA149900261REMSYN076AAXX  15234 06679 33/// /1302 10007 21015 39601 40264 50000 333 91105 91202;
0128066790999992010011600004+47483+008900FM-12+053699999V0200801N001519999999N9999999N1+00031-00161102651ADDMA1999999096011MD1710011+9999OA149900411REMSYN076AAXX  16004 06679 33/// /0803 10003 21016 39601 40265 57001 333 91108 91204;
0128066790999992010011601004+47483+008900FM-12+053699999V0200801N001019999999N9999999N1-00031-00201102651ADDMA1999999095991MD1810021+9999OA149900361REMSYN076AAXX  16014 06679 33/// /0802 11003 21020 39599 40265 58002 333 91107 91203;
0128066790999992010011602004+47483+008900FM-12+053699999V0201501N001519999999N9999999N1-00021-00191102621ADDMA1999999095971MD1710041+9999OA149900361REMSYN076AAXX  16024 06679 33/// /1503 11002 21019 39597 40262 57004 333 91107 91203;
0128066790999992010011603004+47483+008900FM-12+053699999V0201401N001019999999N9999999N1-00031-00201102571ADDMA1999999095921MD1719999+9999OA149900361REMSYN076AAXX  16034 06679 33/// /1402 11003 21020 39592 40257 57/// 333 91107 91203;
0128066790999992010011604004+47483+008900FM-12+053699999V0201301N001519999999N9999999N1-00051-00211102561ADDMA1999999095901MD1710091+9999OA149900311REMSYN076AAXX  16044 06679 33/// /1303 11005 21021 39590 40256 57009 333 91106 91203;
0128066790999992010011605004+47483+008900FM-12+053699999V0201001N001019999999N9999999N1-00091-00241102541ADDMA1999999095871MD1710101+9999OA149900311REMSYN076AAXX  16054 06679 33/// /1002 11009 21024 39587 40254 57010 333 91106 91203;
0225066790999992010011606004+47483+008900FM-12+053699999V0200801N001519999999N9999999N1-00141-00301102491ADDAA124000091AL19900091GJ100009IA2999-00109KA1999N-00121MA1999999095821MD1710101+9999OA149900411REMSYN100AAXX  16064 06679 33/// /0803 11014 21030 39582 40249 57010 333 21012 3/101 55000 70000 91108 91203;EQDQ01  00002PRCP24
0128066790999992010011607004+47483+008900FM-12+053699999V0200801N001019999999N9999999N1-00151-00311102471ADDMA1999999095791MD1710111+9999OA149900411REMSYN076AAXX  16074 06679 33/// /0802 11015 21031 39579 40247 57011 333 91108 91203;
0128066790999992010011608004+47483+008900FM-12+053699999V0201501N002119999999N9999999N1-00181-00351102401ADDMA1999999095721MD1710151+9999OA149900361REMSYN076AAXX  16084 06679 33/// /1504 11018 21035 39572 40240 57015 333 91107 91204;
0128066790999992010011609004+47483+008900FM-12+053699999V0201101N001019999999N9999999N1-00191-00351102381ADDMA1999999095701MD1710121+9999OA149900411REMSYN076AAXX  16094 06679 33/// /1102 11019 21035 39570 40238 57012 333 91108 91204;
0128066790999992010011610004+47483+008900FM-12+053699999V0201501N001519999999N9999999N1-00191-00361102311ADDMA1999999095641MD1710151+9999OA149900361REMSYN076AAXX  16104 06679 33/// /1503 11019 21036 39564 40231 57015 333 91107 91203;
0128066790999992010011611004+47483+008900FM-12+053699999V0201401N000519999999N9999999N1-00191-00371102261ADDMA1999999095591MD1710131+9999OA149900311REMSYN076AAXX  16114 06679 33/// /1401 11019 21037 39559 40226 57013 333 91106 91203;
0128066790999992010011612004+47483+008900FM-12+053699999V0203401N000519999999N9999999N1-00131-00361102181ADDMA1999999095531MD1710171+9999OA149900411REMSYN076AAXX  16124 06679 33/// /3401 11013 21036 39553 40218 57017 333 91108 91204;
0128066790999992010011613004+47483+008900FM-12+053699999V0209999C000019999999N9999999N1-00111-00331102141ADDMA1999999095501MD1710141+9999OA149900211REMSYN076AAXX  16134 06679 33/// /0000 11011 21033 39550 40214 57014 333 91104 91202;
0128066790999992010011614004+47483+008900FM-12+053699999V0200301N000519999999N9999999N1-00041-00331102031ADDMA1999999095411MD1719999+9999OA149900261REMSYN076AAXX  16144 06679 33/// /0301 11004 21033 39541 40203 57/// 333 91105 91203;
0128066790999992010011615004+47483+008900FM-12+053699999V0200501N000519999999N9999999N1-00121-00331102031ADDMA1999999095391MD1710141+9999OA149900311REMSYN076AAXX  16154 06679 33/// /0501 11012 21033 39539 40203 57014 333 91106 91203;
0128066790999992010011616004+47483+008900FM-12+053699999V0201701N000519999999N9999999N1-00161-00351102041ADDMA1999999095391MD1710111+9999OA149900211REMSYN076AAXX  16164 06679 33/// /1701 11016 21035 39539 40204 57011 333 91104 91203;
0128066790999992010011617004+47483+008900FM-12+053699999V0200301N000519999999N9999999N1-00221-00371102001ADDMA1999999095341MD1710071+9999OA149900151REMSYN076AAXX  16174 06679 33/// /0301 11022 21037 39534 40200 57007 333 91103 91202;
0147066790999992010011618004+47483+008900FM-12+053699999V0203501N000519999999N9999999N1-00191-00341102001ADDKA1120M+00001MA1999999095351MD1710041+9999OA149900361REMSYN082AAXX  16184 06679 33/// /3501 11019 21034 39535 40200 57004 333 10000 91107 91204;
0128066790999992010011619004+47483+008900FM-12+053699999V0200501N001019999999N9999999N1-00181-00331101911ADDMA1999999095261MD1710131+9999OA149900261REMSYN076AAXX  16194 06679 33/// /0502 11018 21033 39526 40191 57013 333 91105 91202;
0128066790999992010011620004+47483+008900FM-12+053699999V0201501N000519999999N9999999N1-00181-00331101831ADDMA1999999095191MD1710151+9999OA149900261REMSYN076AAXX  16204 06679 33/// /1501 11018 21033 39519 40183 57015 333 91105 91202;
0128066790999992010011621004+47483+008900FM-12+053699999V0202701N003619999999N9999999N1+00281-00121101641ADDMA1999999095121MD1810231+9999OA149901181REMSYN076AAXX  16214 06679 33/// /2707 10028 21012 39512 40164 58023 333 91123 91210;
0128066790999992010011622004+47483+008900FM-12+053699999V0202401N002119999999N9999999N1+00251-00101101641ADDMA1999999095111MD1710151+9999OA149901181REMSYN076AAXX  16224 06679 33/// /2404 10025 21010 39511 40164 57015 333 91123 91210;
0145066790999992010011623004+47483+008900FM-12+053699999V0202201N003119999999N9999999N1+00201+00041101781ADDAA101005191MA1999999095231MD1310041+9999OA149900771REMSYN082AAXX  16234 06679 23/// /2206 10020 20004 39523 40178 53004 333 60055 91115 91207;
0151066790999992010011700004+47483+008900FM-12+053699999V0202101N007219999999N9999999N1+00291+00071101721ADDAA106009991MA1999999095201MD1010081+9999OA149901441REMSYN088AAXX  17004 06679 03/// /2114 10029 20007 39520 40172 50008 60101 333 60055 91128 91214;
0145066790999992010011701004+47483+008900FM-12+053699999V0202201N006219999999N9999999N1+00311+00091101731ADDAA101001091MA1999999095211MD1210101+9999OA149901441REMSYN082AAXX  17014 06679 23/// /2212 10031 20009 39521 40173 52010 333 60015 91128 91216;
0128066790999992010011702004+47483+008900FM-12+053699999V0202101N006219999999N9999999N1+00321+00071101651ADDMA1999999095141MD1719999+9999OA149901341REMSYN076AAXX  17024 06679 33/// /2112 10032 20007 39514 40165 57/// 333 91126 91216;
0087066790999992010011703004+47483+008900FM-12+053699999V0209999C001019999999N9999999N1+00311+00061101581ADDMA1999999095071REMSYN060AAXX  17034 06679 43/// /0002 10031 20006 39507 40158 5////;
0145066790999992010011704004+47483+008900FM-12+053699999V0202401N003119999999N9999999N1+00351+00101101661ADDAA101000591MA1999999095161MD1510051+9999OA149901181REMSYN082AAXX  17044 06679 23/// /2406 10035 20010 39516 40166 55005 333 69965 91123 91214;
0145066790999992010011705004+47483+008900FM-12+053699999V0202001N005719999999N9999999N1+00351+00141101621ADDAA101002091MA1999999095121MD1219999+9999OA149901181REMSYN082AAXX  17054 06679 23/// /2011 10035 20014 39512 40162 52/// 333 60025 91123 91212;
0229066790999992010011706004+47483+008900FM-12+053699999V0202001N006719999999N9999999N1+00401+00151101581ADDAA112013091AA224013291AL11201391GJ100069IA2999-00309KA1999N-00211MA1999999095091MD1010021+9999OA149901441REMSYN112AAXX  17064 06679 03/// /2013 10040 20015 39509 40158 50002 60132 333 21021 3/103 55001 69915 70132 91128 91216;
0128066790999992010011707004+47483+008900FM-12+053699999V0202201N005119999999N9999999N1+00461+00161101591ADDMA1999999095121MD1510041+9999OA149901291REMSYN076AAXX  17074 06679 33/// /2210 10046 20016 39512 40159 55004 333 91125 91214;
0145066790999992010011708004+47483+008900FM-12+053699999V0202201N004619999999N9999999N1+00481+00201101681ADDAA101000391MA1999999095201MD1319999+9999OA149901131REMSYN082AAXX  17084 06679 23/// /2209 10048 20020 39520 40168 53/// 333 69935 91122 91214;
0145066790999992010011709004+47483+008900FM-12+053699999V0202301N003119999999N9999999N1+00501+00241101791ADDAA101000021MA1999999095311MD1210221+9999OA149901291REMSYN082AAXX  17094 06679 23/// /2306 10050 20024 39531 40179 52022 333 69915 91125 91214;
0145066790999992010011710004+47483+008900FM-12+053699999V0202501N003619999999N9999999N1+00541+00261101861ADDAA101000021MA1999999095391MD1210271+9999OA149901081REMSYN082AAXX  17104 06679 23/// /2507 10054 20026 39539 40186 52027 333 69915 91121 91210;
0128066790999992010011711004+47483+008900FM-12+053699999V0202301N002619999999N9999999N1+00521+00271101911ADDMA1999999095431MD1110231+9999OA149900981REMSYN076AAXX  17114 06679 33/// /2305 10052 20027 39543 40191 51023 333 91119 91209;
0151066790999992010011712004+47483+008900FM-12+053699999V0202501N005119999999N9999999N1+00571+00201101981ADDAA106000591MA1999999095511MD1110201+9999OA149901341REMSYN088AAXX  17124 06679 03/// /2510 10057 20020 39551 40198 51020 69951 333 60005 91126 91216;
0128066790999992010011713004+47483+008900FM-12+053699999V0202601N004619999999N9999999N1+00591+00161102001ADDMA1999999095531MD1210141+9999OA149901391REMSYN076AAXX  17134 06679 33/// /2609 10059 20016 39553 40200 52014 333 91127 91212;
0128066790999992010011714004+47483+008900FM-12+053699999V0202401N004119999999N9999999N1+00521+00191102151ADDMA1999999095651MD1219999+9999OA149901391REMSYN076AAXX  17144 06679 33/// /2408 10052 20019 39565 40215 52/// 333 91127 91212;
0128066790999992010011715004+47483+008900FM-12+053699999V0202501N003119999999N9999999N1+00521+00111102241ADDMA1999999095741MD1210231+9999OA149901391REMSYN076AAXX  17154 06679 33/// /2506 10052 20011 39574 40224 52023 333 91127 91212;
0128066790999992010011716004+47483+008900FM-12+053699999V0202701N005119999999N9999999N1+00431+00031102411ADDMA1999999095881MD1310351+9999OA149901031REMSYN076AAXX  17164 06679 33/// /2710 10043 20003 39588 40241 53035 333 91120 91210;
0128066790999992010011717004+47483+008900FM-12+053699999V0202601N002119999999N9999999N1+00391-00051102521ADDMA1999999095971MD1210321+9999OA149901031REMSYN076AAXX  17174 06679 33/// /2604 10039 21005 39597 40252 52032 333 91120 91210;
0170066790999992010011718004+47483+008900FM-12+053699999V0202501N001519999999N9999999N1+00361+00001102591ADDAA112000591KA1120M+00591MA1999999096031MD1110291+9999OA149901391REMSYN094AAXX  17184 06679 03/// /2503 10036 20000 39603 40259 51029 69952 333 10059 60005 91127 91214;
0128066790999992010011719004+47483+008900FM-12+053699999V0202401N001519999999N9999999N1+00381-00011102641ADDMA1999999096081MD1110201+9999OA149900671REMSYN076AAXX  17194 06679 33/// /2403 10038 21001 39608 40264 51020 333 91113 91205;
0128066790999992010011720004+47483+008900FM-12+053699999V0202501N001519999999N9999999N1+00371-00031102671ADDMA1999999096111MD1110141+9999OA149900461REMSYN076AAXX  17204 06679 33/// /2503 10037 21003 39611 40267 51014 333 91109 91204;
0128066790999992010011721004+47483+008900FM-12+053699999V0202101N000519999999N9999999N1+00281-00061102711ADDMA1999999096121MD1210091+9999OA149901031REMSYN076AAXX  17214 06679 33/// /2101 10028 21006 39612 40271 52009 333 91120 91210;
0128066790999992010011722004+47483+008900FM-12+053699999V0202701N001019999999N9999999N1+00341-00071102691ADDMA1999999096121MD1210041+9999OA149900311REMSYN076AAXX  17224 06679 33/// /2702 10034 21007 39612 40269 52004 333 91106 91202;
0128066790999992010011723004+47483+008900FM-12+053699999V0202701N001019999999N9999999N1+00331-00061102701ADDMA1999999096121MD1310011+9999OA149900311REMSYN076AAXX  17234 06679 33/// /2702 10033 21006 39612 40270 53001 333 91106 91203;
0128066790999992010011800004+47483+008900FM-12+053699999V0202401N001519999999N9999999N1+00361-00071102701ADDMA1999999096131MD1210011+9999OA149901391REMSYN076AAXX  18004 06679 33/// /2403 10036 21007 39613 40270 52001 333 91127 91212;
0128066790999992010011801004+47483+008900FM-12+053699999V0202501N001519999999N9999999N1+00331-00091102711ADDMA1999999096131MD1210011+9999OA149900361REMSYN076AAXX  18014 06679 33/// /2503 10033 21009 39613 40271 52001 333 91107 91204;
0087066790999992010011802004+47483+008900FM-12+053699999V0202401N000519999999N9999999N1+00311-00081102711ADDMA1999999096131REMSYN060AAXX  18024 06679 33/// /2401 10031 21008 39613 40271 5////;
0087066790999992010011803004+47483+008900FM-12+053699999V0202801N001519999999N9999999N1+00301-00071102711ADDMA1999999096131REMSYN060AAXX  18034 06679 33/// /2803 10030 21007 39613 40271 5////;
0128066790999992010011804004+47483+008900FM-12+053699999V0202301N001519999999N9999999N1+00371-00071102711ADDMA1999999096141MD1210011+9999OA149900261REMSYN076AAXX  18044 06679 33/// /2303 10037 21007 39614 40271 52001 333 91105 91204;
0128066790999992010011805004+47483+008900FM-12+053699999V0202701N000519999999N9999999N1+00331-00051102741ADDMA1999999096161MD1210031+9999OA149900411REMSYN076AAXX  18054 06679 33/// /2701 10033 21005 39616 40274 52003 333 91108 91204;
0206066790999992010011806004+47483+008900FM-12+053699999V0202301N001019999999N9999999N1+00291-00061102761ADDAA124000591AL13000091GJ100009IA2999-00109KA1999N+00231MA1999999096171MD1210041+9999OA149900461REMSYN100AAXX  18064 06679 33/// /2302 10029 21006 39617 40276 52004 333 20023 3/101 55000 70005 91109 91204;
0128066790999992010011807004+47483+008900FM-12+053699999V0209999C000519999999N9999999N1+00151-00051102841ADDMA1999999096211MD1310071+9999OA149900211REMSYN076AAXX  18074 06679 33/// /0001 10015 21005 39621 40284 53007 333 91104 91202;
0128066790999992010011808004+47483+008900FM-12+053699999V0202401N001519999999N9999999N1+00151-00061102881ADDMA1999999096251MD1319999+9999OA149900261REMSYN076AAXX  18084 06679 33/// /2403 10015 21006 39625 40288 53/// 333 91105 91203;
0128066790999992010011809004+47483+008900FM-12+053699999V0201201N001019999999N9999999N1+00131-00061102931ADDMA1999999096291MD1110121+9999OA149900411REMSYN076AAXX  18094 06679 33/// /1202 10013 21006 39629 40293 51012 333 91108 91204;
0128066790999992010011810004+47483+008900FM-12+053699999V0201501N000519999999N9999999N1+00321+00021102871ADDMA1999999096281MD1210071+9999OA149900261REMSYN076AAXX  18104 06679 33/// /1501 10032 20002 39628 40287 52007 333 91105 91203;
0128066790999992010011811004+47483+008900FM-12+053699999V0202501N002619999999N9999999N1+00471+00081102781ADDMA1999999096231MD1810021+9999OA149900411REMSYN076AAXX  18114 06679 33/// /2505 10047 20008 39623 40278 58002 333 91108 91205;
0128066790999992010011812004+47483+008900FM-12+053699999V0202801N001519999999N9999999N1+00501+00051102731ADDMA1999999096191MD1710101+9999OA149900411REMSYN076AAXX  18124 06679 33/// /2803 10050 20005 39619 40273 57010 333 91108 91205;
