0128066730999992010010100004+47217+008683FM-12+046399999V0202401N000519999999N9999999N1+00341+00231099321ADDMA1999999093571MD1710131+9999OA149900461REMSYN076AAXX  01004 06673 33/// /2401 10034 20023 39357 49932 57013 333 91109 91206;
0128066730999992010010101004+47217+008683FM-12+046399999V0209999C000019999999N9999999N1+00391+00241099291ADDMA1999999093551MD1710111+9999OA149900151REMSYN076AAXX  01014 06673 33/// /0000 10039 20024 39355 49929 57011 333 91103 91202;
0128066730999992010010102004+47217+008683FM-12+046399999V0201101N001019999999N9999999N1+00381+00251099271ADDMA1999999093531MD1719999+9999OA149900151REMSYN076AAXX  01024 06673 33/// /1102 10038 20025 39353 49927 57/// 333 91103 91202;
0087066730999992010010103004+47217+008683FM-12+046399999V0201801N001019999999N9999999N1+00381+00271099191ADDMA1999999093461REMSYN060AAXX  01034 06673 43/// /1802 10038 20027 39346 49919 5////;
0087066730999992010010104004+47217+008683FM-12+046399999V0201601N001519999999N9999999N1+00341+00301099171ADDMA1999999093431REMSYN060AAXX  01044 06673 33/// /1603 10034 20030 39343 49917 5////;
0128066730999992010010105004+47217+008683FM-12+046399999V0209999C000019999999N9999999N1+00251+00181099141ADDMA1999999093381MD1710151+9999OA149900261REMSYN076AAXX  01054 06673 33/// /0000 10025 20018 39338 49914 57015 333 91105 91203;
0206066730999992010010106004+47217+008683FM-12+046399999V0202401N001019999999N9999999N1+00281+00201099131ADDAA124005191AL10600591GJ100009IA2999+00009KA1999N+00251MA1999999093381MD1710081+9999OA149900411REMSYN100AAXX  01064 06673 33/// /2402 10028 20020 39338 49913 57008 333 20025 3/000 55000 70051 91108 91206;
0128066730999992010010107004+47217+008683FM-12+046399999V0209999C000019999999N9999999N1+00241+00131099141ADDMA1999999093381MD1710051+9999OA149900151REMSYN076AAXX  01074 06673 33/// /0000 10024 20013 39338 49914 57005 333 91103 91202;
0128066730999992010010108004+47217+008683FM-12+046399999V0209999C000019999999N9999999N1+00281+00191099161ADDMA1999999093411MD1310031+9999OA149900151REMSYN076AAXX  01084 06673 33/// /0000 10028 20019 39341 49916 53003 333 91103 91201;
0128066730999992010010109004+47217+008683FM-12+046399999V0202201N001519999999N9999999N1+00281+00191099211ADDMA1999999093461MD1210081+9999OA149900261REMSYN076AAXX  01094 06673 33/// /2203 10028 20019 39346 49921 52008 333 91105 91203;
0128066730999992010010110004+47217+008683FM-12+046399999V0209999C000019999999N9999999N1+00311+00161099261ADDMA1999999093511MD1210131+9999OA149900211REMSYN076AAXX  01104 06673 33/// /0000 10031 20016 39351 49926 52013 333 91104 91203;
0128066730999992010010111004+47217+008683FM-12+046399999V0200801N001019999999N9999999N1+00391+00251099281ADDMA1999999093541MD1110131+9999OA149900151REMSYN076AAXX  01114 06673 33/// /0802 10039 20025 39354 49928 51013 333 91103 91202;
0128066730999992010010112004+47217+008683FM-12+046399999V0200401N000519999999N9999999N1+00401+00291099271ADDMA1999999093541MD1110081+9999OA149900261REMSYN076AAXX  01124 06673 33/// /0401 10040 20029 39354 49927 51008 333 91105 91203;
0128066730999992010010113004+47217+008683FM-12+046399999V0203601N000519999999N9999999N1+00411+00331099301ADDMA1999999093571MD1110061+9999OA149900211REMSYN076AAXX  01134 06673 33/// /3601 10041 20033 39357 49930 51006 333 91104 91202;
0145066730999992010010114004+47217+008683FM-12+046399999V0203501N000519999999N9999999N1+00421+00321099371ADDAA101000021MA1999999093641MD1319999+9999OA149900151REMSYN082AAXX  01144 06673 23/// /3501 10042 20032 39364 49937 53/// 333 69915 91103 91202;
0145066730999992010010115004+47217+008683FM-12+046399999V0203201N001519999999N9999999N1+00421+00341099471ADDAA101000021MA1999999093731MD1310191+9999OA149900211REMSYN082AAXX  01154 06673 23/// /3203 10042 20034 39373 49947 53019 333 69925 91104 91203;
0145066730999992010010116004+47217+008683FM-12+046399999V0202801N001019999999N9999999N1+00431+00331099561ADDAA101000891MA1999999093821MD1310251+9999OA149900361REMSYN082AAXX  01164 06673 23/// /2802 10043 20033 39382 49956 53025 333 69975 91107 91204;
0145066730999992010010117004+47217+008683FM-12+046399999V0202901N003119999999N9999999N1+00421+00281099701ADDAA101002091MA1999999093951MD1310311+9999OA149900511REMSYN082AAXX  01174 06673 23/// /2906 10042 20028 39395 49970 53031 333 60025 91110 91206;
0170066730999992010010118004+47217+008683FM-12+046399999V0202501N005119999999N9999999N1+00191+00061099961ADDAA112006191KA1120M+00441MA1999999094141MD1310411+9999OA149900821REMSYN094AAXX  01184 06673 03/// /2510 10019 20006 39414 49996 53041 60062 333 10044 60035 91116 91210;
0145066730999992010010119004+47217+008683FM-12+046399999V0202501N003619999999N9999999N1+00171+00031100151ADDAA101003091MA1999999094321MD1210501+9999OA149900881REMSYN082AAXX  01194 06673 23/// /2507 10017 20003 39432 40015 52050 333 60035 91117 91211;
0145066730999992010010120004+47217+008683FM-12+046399999V0202901N002119999999N9999999N1+00151+00021100321ADDAA101002091MA1999999094471MD1210521+9999OA149900881REMSYN082AAXX  01204 06673 23/// /2904 10015 20002 39447 40032 52052 333 60025 91117 91211;
0145066730999992010010121004+47217+008683FM-12+046399999V0203001N000519999999N9999999N1+00061-00011100501ADDAA101001091MA1999999094621MD1210481+9999OA149900881REMSYN082AAXX  01214 06673 23/// /3001 10006 21001 39462 40050 52048 333 60015 91117 91211;
0145066730999992010010122004+47217+008683FM-12+046399999V0202701N002619999999N9999999N1+00141-00051100561ADDAA101001091MA1999999094701MD1110381+9999OA149900571REMSYN082AAXX  01224 06673 23/// /2705 10014 21005 39470 40056 51038 333 60015 91111 91205;
0128066730999992010010123004+47217+008683FM-12+046399999V0202901N002119999999N9999999N1+00141-00081100651ADDMA1999999094781MD1110311+9999OA149900571REMSYN076AAXX  01234 06673 33/// /2904 10014 21008 39478 40065 51031 333 91111 91205;
0151066730999992010010200004+47217+008683FM-12+046399999V0203101N004619999999N9999999N1+00001-00221100821ADDAA106007191MA1999999094911MD1310291+9999OA149900981REMSYN088AAXX  02004 06673 03/// /3109 10000 21022 39491 40082 53029 60071 333 69915 91119 91211;
0145066730999992010010201004+47217+008683FM-12+046399999V0203001N005719999999N9999999N1-00061-00301100941ADDAA101000391MA1999999095011MD1210311+9999OA149901031REMSYN082AAXX  02014 06673 23/// /3011 11006 21030 39501 40094 52031 333 69935 91120 91211;
0108066730999992010010202004+47217+008683FM-12+046399999V0202601N002119999999N9999999N1-00121-00281101121ADDAA101000391MA1999999095171REMSYN070AAXX  02024 06673 23/// /2604 11012 21028 39517 40112 5//// 333 69935;
0145066730999992010010203004+47217+008683FM-12+046399999V0203001N001519999999N9999999N1-00151-00271101231ADDAA101000591MA1999999095271MD1210361+9999OA149901081REMSYN082AAXX  02034 06673 23/// /3003 11015 21027 39527 40123 52036 333 69965 91121 91213;
0145066730999992010010204004+47217+008683FM-12+046399999V0202601N003619999999N9999999N1-00141-00431101311ADDAA101001091MA1999999095341MD1110331+9999OA149900771REMSYN082AAXX  02044 06673 23/// /2607 11014 21043 39534 40131 51033 333 60015 91115 91208;
0128066730999992010010205004+47217+008683FM-12+046399999V0202701N003119999999N9999999N1-00141-00521101381ADDMA1999999095411MD1210241+9999OA149900771REMSYN076AAXX  02054 06673 33/// /2706 11014 21052 39541 40138 52024 333 91115 91208;
0229066730999992010010206004+47217+008683FM-12+046399999V0202301N002119999999N9999999N1-00151-00551101461ADDAA112008991AA224015091AL19901591GJ100009IA2999-00309KA1999N-00161MA1999999095481MD1210211+9999OA149901081REMSYN112AAXX  02064 06673 03/// /2304 11015 21055 39548 40146 52021 60092 333 21016 3/103 55000 60005 70150 91121 91213;
0128066730999992010010207004+47217+008683FM-12+046399999V0202901N002619999999N9999999N1-00161-00561101551ADDMA1999999095571MD1110231+9999OA149900671REMSYN076AAXX  02074 06673 33/// /2905 11016 21056 39557 40155 51023 333 91113 91206;
0087066730999992010010208004+47217+008683FM-12+046399999V0202801N004119999999N9999999N1-00201-00651101661ADDMA1999999095661REMSYN060AAXX  02084 06673 33/// /2808 11020 21065 39566 40166 5////;
0128066730999992010010209004+47217+008683FM-12+046399999V0202701N002619999999N9999999N1-00201-00661101781ADDMA1999999095771MD1210291+9999OA149900881REMSYN076AAXX  02094 06673 33/// /2705 11020 21066 39577 40178 52029 333 91117 91208;
0128066730999992010010210004+47217+008683FM-12+046399999V0202601N003119999999N9999999N1-00181-00691101881ADDMA1999999095871MD1310301+9999OA149900721REMSYN076AAXX  02104 06673 33/// /2606 11018 21069 39587 40188 53030 333 91114 91207;
0128066730999992010010211004+47217+008683FM-12+046399999V0202501N003119999999N9999999N1-00151-00681101921ADDMA1999999095921MD1110261+9999OA149900721REMSYN076AAXX  02114 06673 33/// /2506 11015 21068 39592 40192 51026 333 91114 91206;
0128066730999992010010212004+47217+008683FM-12+046399999V0202401N003619999999N9999999N1-00151-00661101991ADDMA1999999095981MD1110211+9999OA149901081REMSYN076AAXX  02124 06673 33/// /2407 11015 21066 39598 40199 51021 333 91121 91213;
0128066730999992010010213004+47217+008683FM-12+046399999V0202801N003119999999N9999999N1-00111-00781102061ADDMA1999999096061MD1310191+9999OA149900571REMSYN076AAXX  02134 06673 33/// /2806 11011 21078 39606 40206 53019 333 91111 91207;
0128066730999992010010214004+47217+008683FM-12+046399999V0202501N004119999999N9999999N1-00161-00781102141ADDMA1999999096121MD1219999+9999OA149900571REMSYN076AAXX  02144 06673 33/// /2508 11016 21078 39612 40214 52/// 333 91111 91208;
0128066730999992010010215004+47217+008683FM-12+046399999V0202401N003119999999N9999999N1-00281-00731102241ADDMA1999999096191MD1210211+9999OA149900721REMSYN076AAXX  02154 06673 33/// /2406 11028 21073 39619 40224 52021 333 91114 91208;
0128066730999992010010216004+47217+008683FM-12+046399999V0202201N003619999999N9999999N1-00351-00781102331ADDMA1999999096261MD1310201+9999OA149900571REMSYN076AAXX  02164 06673 33/// /2207 11035 21078 39626 40233 53020 333 91111 91208;
0128066730999992010010217004+47217+008683FM-12+046399999V0202201N003619999999N9999999N1-00411-00811102411ADDMA1999999096321MD1110201+9999OA149900461REMSYN076AAXX  02174 06673 33/// /2207 11041 21081 39632 40241 51020 333 91109 91208;
0147066730999992010010218004+47217+008683FM-12+046399999V0202301N004119999999N9999999N1-00411-00921102461ADDKA1120M-00091MA1999999096371MD1110181+9999OA149900881REMSYN082AAXX  02184 06673 33/// /2308 11041 21092 39637 40246 51018 333 11009 91117 91208;
0128066730999992010010219004+47217+008683FM-12+046399999V0202201N003619999999N9999999N1-00421-00781102491ADDMA1999999096391MD1210131+9999OA149900511REMSYN076AAXX  02194 06673 33/// /2207 11042 21078 39639 40249 52013 333 91110 91208;
0128066730999992010010220004+47217+008683FM-12+046399999V0202301N003119999999N9999999N1-00491-00871102511ADDMA1999999096401MD1210081+9999OA149900511REMSYN076AAXX  02204 06673 33/// /2306 11049 21087 39640 40251 52008 333 91110 91208;
0128066730999992010010221004+47217+008683FM-12+046399999V0202201N004119999999N9999999N1-00521-00901102521ADDMA1999999096401MD1010031+9999OA149900511REMSYN076AAXX  02214 06673 33/// /2208 11052 21090 39640 40252 50003 333 91110 91208;
0128066730999992010010222004+47217+008683FM-12+046399999V0202201N003119999999N9999999N1-00601-00961102551ADDMA1999999096411MD1210021+9999OA149900511REMSYN076AAXX  02224 06673 33/// /2206 11060 21096 39641 40255 52002 333 91110 91208;
0128066730999992010010223004+47217+008683FM-12+046399999V0202201N001019999999N9999999N1-00521-01001102561ADDMA1999999096441MD1210041+9999OA149900461REMSYN076AAXX  02234 06673 33/// /2202 11052 21100 39644 40256 52004 333 91109 91208;
0128066730999992010010300004+47217+008683FM-12+046399999V0201501N001019999999N9999999N1-00581-00961102561ADDMA1999999096421MD1210021+9999OA149900571REMSYN076AAXX  03004 06673 33/// /1502 11058 21096 39642 40256 52002 333 91111 91208;
0128066730999992010010301004+47217+008683FM-12+046399999V0202001N002119999999N9999999N1-00601-00951102571ADDMA1999999096431MD1210021+9999OA149900411REMSYN076AAXX  03014 06673 33/// /2004 11060 21095 39643 40257 52002 333 91108 91206;
0087066730999992010010302004+47217+008683FM-12+046399999V0201901N001019999999N9999999N1-00611-00991102601ADDMA1999999096451REMSYN060AAXX  03024 06673 33/// /1902 11061 21099 39645 40260 5////;
0087066730999992010010303004+47217+008683FM-12+046399999V0201601N001019999999N9999999N1-00731-01131102591ADDMA1999999096421REMSYN060AAXX  03034 06673 33/// /1602 11073 21113 39642 40259 5////;
0128066730999992010010304004+47217+008683FM-12+046399999V0201601N002619999999N9999999N1-00801-01171102541ADDMA1999999096351MD1810081+9999OA149900461REMSYN076AAXX  03044 06673 33/// /1605 11080 21117 39635 40254 58008 333 91109 91207;
0128066730999992010010305004+47217+008683FM-12+046399999V0202701N001019999999N9999999N1-00691-01161102561ADDMA1999999096401MD1519999+9999OA149900461REMSYN076AAXX  03054 06673 33/// /2702 11069 21116 39640 40256 55/// 333 91109 91207;
0225066730999992010010306004+47217+008683FM-12+046399999V0202001N001519999999N9999999N1-00771-01081102511ADDAA124000091AL19900091GJ101989IA2999-01209KA1999N-00801MA1999999096331MD1710091+9999OA149900511REMSYN100AAXX  03064 06673 33/// /2003 11077 21108 39633 40251 57009 333 21080 3/112 55033 70000 91110 91208;EQDQ01  00002PRCP24
0128066730999992010010307004+47217+008683FM-12+046399999V0201701N003619999999N9999999N1-00701-01151102541ADDMA1999999096381MD1210031+9999OA149900461REMSYN076AAXX  03074 06673 33/// /1707 11070 21115 39638 40254 52003 333 91109 91207;
0128066730999992010010308004+47217+008683FM-12+046399999V0201701N003119999999N9999999N1-00711-01211102541ADDMA1999999096371MD1519999+9999OA149900511REMSYN076AAXX  03084 06673 33/// /1706 11071 21121 39637 40254 55/// 333 91110 91207;
0128066730999992010010309004+47217+008683FM-12+046399999V0201701N001019999999N9999999N1-00531-01141102511ADDMA1999999096391MD1210061+9999OA149900511REMSYN076AAXX  03094 06673 33/// /1702 11053 21114 39639 40251 52006 333 91110 91207;
0128066730999992010010310004+47217+008683FM-12+046399999V0201501N000519999999N9999999N1-00441-01051102501ADDMA1999999096401MD1210021+9999OA149900461REMSYN076AAXX  03104 06673 33/// /1501 11044 21105 39640 40250 52002 333 91109 91206;
0128066730999992010010311004+47217+008683FM-12+046399999V0201601N000519999999N9999999N1-00381-01101102341ADDMA1999999096261MD1810111+9999OA149900361REMSYN076AAXX  03114 06673 33/// /1601 11038 21110 39626 40234 58011 333 91107 91203;
0128066730999992010010312004+47217+008683FM-12+046399999V0200701N001019999999N9999999N1-00391-00911102281ADDMA1999999096201MD1710191+9999OA149900511REMSYN076AAXX  03124 06673 33/// /0702 11039 21091 39620 40228 57019 333 91110 91207;
0128066730999992010010313004+47217+008683FM-12+046399999V0202101N000519999999N9999999N1-00241-01161102231ADDMA1999999096191MD1710211+9999OA149900211REMSYN076AAXX  03134 06673 33/// /2101 11024 21116 39619 40223 57021 333 91104 91202;
0128066730999992010010314004+47217+008683FM-12+046399999V0202401N001019999999N9999999N1-00191-01281102201ADDMA1999999096171MD1710091+9999OA149900151REMSYN076AAXX  03144 06673 33/// /2402 11019 21128 39617 40220 57009 333 91103 91202;
0128066730999992010010315004+47217+008683FM-12+046399999V0202201N002119999999N9999999N1-00331-01061102251ADDMA1999999096191MD1510011+9999OA149900361REMSYN076AAXX  03154 06673 33/// /2204 11033 21106 39619 40225 55001 333 91107 91204;
0128066730999992010010316004+47217+008683FM-12+046399999V0202201N002119999999N9999999N1-00541-01071102271ADDMA1999999096161MD1710031+9999OA149900361REMSYN076AAXX  03164 06673 33/// /2204 11054 21107 39616 40227 57003 333 91107 91206;
0128066730999992010010317004+47217+008683FM-12+046399999V0201701N001519999999N9999999N1-00541-01041102241ADDMA1999999096131MD1810041+9999OA149900361REMSYN076AAXX  03174 06673 33/// /1703 11054 21104 39613 40224 58004 333 91107 91206;
0147066730999992010010318004+47217+008683FM-12+046399999V0201201N001019999999N9999999N1-00491-01041102221ADDKA1120M-00191MA1999999096121MD1710071+9999OA149900511REMSYN082AAXX  03184 06673 33/// /1202 11049 21104 39612 40222 57007 333 11019 91110 91207;
0128066730999992010010319004+47217+008683FM-12+046399999V0201601N002119999999N9999999N1-00591-01081102251ADDMA1999999096131MD1710031+9999OA149900411REMSYN076AAXX  03194 06673 33/// /1604 11059 21108 39613 40225 57003 333 91108 91205;
0128066730999992010010320004+47217+008683FM-12+046399999V0201601N001019999999N9999999N1-00611-01091102201ADDMA1999999096081MD1810051+9999OA149900411REMSYN076AAXX  03204 06673 33/// /1602 11061 21109 39608 40220 58005 333 91108 91206;
0128066730999992010010321004+47217+008683FM-12+046399999V0201501N001519999999N9999999N1-00711-01181102181ADDMA1999999096041MD1710081+9999OA149900461REMSYN076AAXX  03214 06673 33/// /1503 11071 21118 39604 40218 57008 333 91109 91206;
0128066730999992010010322004+47217+008683FM-12+046399999V0201101N001019999999N9999999N1-00701-01111102171ADDMA1999999096031MD1710101+9999OA149900461REMSYN076AAXX  03224 06673 33/// /1102 11070 21111 39603 40217 57010 333 91109 91205;
0128066730999992010010323004+47217+008683FM-12+046399999V0201801N003119999999N9999999N1-00731-01151102151ADDMA1999999096001MD1710081+9999OA149900411REMSYN076AAXX  03234 06673 33/// /1806 11073 21115 39600 40215 57008 333 91108 91206;
0128066730999992010010400004+47217+008683FM-12+046399999V0201301N001019999999N9999999N1-00661-01101102081ADDMA1999999095951MD1710091+9999OA149900461REMSYN076AAXX  04004 06673 33/// /1302 11066 21110 39595 40208 57009 333 91109 91206;
0128066730999992010010401004+47217+008683FM-12+046399999V0202101N000519999999N9999999N1-00801-01141102011ADDMA1999999095861MD1810171+9999OA149900461REMSYN076AAXX  04014 06673 33/// /2101 11080 21114 39586 40201 58017 333 91109 91206;
0128066730999992010010402004+47217+008683FM-12+046399999V0201701N002619999999N9999999N1-00711-01101101971ADDMA1999999095841MD1710161+9999OA149900461REMSYN076AAXX  04024 06673 33/// /1705 11071 21110 39584 40197 57016 333 91109 91207;
0128066730999992010010403004+47217+008683FM-12+046399999V0201701N002119999999N9999999N1-00711-01071101911ADDMA1999999095781MD1719999+9999OA149900461REMSYN076AAXX  04034 06673 33/// /1704 11071 21107 39578 40191 57/// 333 91109 91207;
0128066730999992010010404004+47217+008683FM-12+046399999V0202301N001519999999N9999999N1-00631-00931101861ADDMA1999999095751MD1710111+9999OA149900361REMSYN076AAXX  04044 06673 33/// /2303 11063 21093 39575 40186 57011 333 91107 91206;
0128066730999992010010405004+47217+008683FM-12+046399999V0202501N001019999999N9999999N1-00561-00831101791ADDMA1999999095701MD1710141+9999OA149900311REMSYN076AAXX  04054 06673 33/// /2502 11056 21083 39570 40179 57014 333 91106 91204;
0225066730999992010010406004+47217+008683FM-12+046399999V0202901N001019999999N9999999N1-00541-00741101801ADDAA124000091AL19900091GJ104089IA2999-01209KA1999N-00821MA1999999095721MD1710061+9999OA149900461REMSYN100AAXX  04064 06673 33/// /2902 11054 21074 39572 40180 57006 333 21082 3/112 55068 70000 91109 91207;EQDQ01  00002PRCP24
0128066730999992010010407004+47217+008683FM-12+046399999V0202401N001019999999N9999999N1-00551-00831101801ADDMA1999999095711MD1510041+9999OA149900211REMSYN076AAXX  04074 06673 33/// /2402 11055 21083 39571 40180 55004 333 91104 91203;
0128066730999992010010408004+47217+008683FM-12+046399999V0209999C000019999999N9999999N1-00521-00791101781ADDMA1999999095701MD1010001+9999OA149900151REMSYN076AAXX  04084 06673 33/// /0000 11052 21079 39570 40178 50000 333 91103 91202;
0128066730999992010010409004+47217+008683FM-12+046399999V0201301N001019999999N9999999N1-00461-00661101771ADDMA1999999095711MD1510011+9999OA149900311REMSYN076AAXX  04094 06673 33/// /1302 11046 21066 39571 40177 55001 333 91106 91204;
0128066730999992010010410004+47217+008683FM-12+046399999V0201301N000519999999N9999999N1-00441-00681101751ADDMA1999999095691MD1810021+9999OA149900261REMSYN076AAXX  04104 06673 33/// /1301 11044 21068 39569 40175 58002 333 91105 91202;
0128066730999992010010411004+47217+008683FM-12+046399999V0203001N001519999999N9999999N1-00461-00761101691ADDMA1999999095631MD1819999+9999OA149900261REMSYN076AAXX  04114 06673 33/// /3003 11046 21076 39563 40169 58/// 333 91105 91203;
0128066730999992010010412004+47217+008683FM-12+046399999V0202401N001019999999N9999999N1-00511-00801101641ADDMA1999999095571MD1710141+9999OA149900461REMSYN076AAXX  04124 06673 33/// /2402 11051 21080 39557 40164 57014 333 91109 91207;
0128066730999992010010413004+47217+008683FM-12+046399999V0201701N001019999999N9999999N1-00471-00711101551ADDMA1999999095501MD1610191+9999OA149900261REMSYN076AAXX  04134 06673 33/// /1702 11047 21071 39550 40155 56019 333 91105 91203;
0128066730999992010010414004+47217+008683FM-12+046399999V0201801N001519999999N9999999N1-00511-00751101531ADDMA1999999095471MD1619999+9999OA149900211REMSYN076AAXX  04144 06673 33/// /1803 11051 21075 39547 40153 56/// 333 91104 91203;
0128066730999992010010415004+47217+008683FM-12+046399999V0202101N001519999999N9999999N1-00581-00791101541ADDMA1999999095461MD1610111+9999OA149900261REMSYN076AAXX  04154 06673 33/// /2103 11058 21079 39546 40154 56011 333 91105 91204;
0128066730999992010010416004+47217+008683FM-12+046399999V0201801N001519999999N9999999N1-00551-00791101521ADDMA1999999095451MD1610051+9999OA149900261REMSYN076AAXX  04164 06673 33/// /1803 11055 21079 39545 40152 56005 333 91105 91204;
0128066730999992010010417004+47217+008683FM-12+046399999V0201801N001519999999N9999999N1-00511-00741101501ADDMA1999999095441MD1710031+9999OA149900261REMSYN076AAXX  04174 06673 33/// /1803 11051 21074 39544 40150 57003 333 91105 91204;
0147066730999992010010418004+47217+008683FM-12+046399999V0202001N001019999999N9999999N1-00531-00761101491ADDKA1120M-00441MA1999999095431MD1810031+9999OA149900261REMSYN082AAXX  04184 06673 33/// /2002 11053 21076 39543 40149 58003 333 11044 91105 91204;
0128066730999992010010419004+47217+008683FM-12+046399999V0201401N001019999999N9999999N1-00431-00651101461ADDMA1999999095421MD1510031+9999OA149900261REMSYN076AAXX  04194 06673 33/// /1402 11043 21065 39542 40146 55003 333 91105 91204;
0128066730999992010010420004+47217+008683FM-12+046399999V0201601N001019999999N9999999N1-00431-00621101451ADDMA1999999095411MD1710031+9999OA149900211REMSYN076AAXX  04204 06673 33/// /1602 11043 21062 39541 40145 57003 333 91104 91202;
0128066730999992010010421004+47217+008683FM-12+046399999V0201701N001519999999N9999999N1-00421-00591101401ADDMA1999999095371MD1710061+9999OA149900261REMSYN076AAXX  04214 06673 33/// /1703 11042 21059 39537 40140 57006 333 91105 91204;
0128066730999992010010422004+47217+008683FM-12+046399999V0201701N001019999999N9999999N1-00421-00581101371ADDMA1999999095341MD1710081+9999OA149900261REMSYN076AAXX  04224 06673 33/// /1702 11042 21058 39534 40137 57008 333 91105 91203;
0128066730999992010010423004+47217+008683FM-12+046399999V0201801N001019999999N9999999N1-00451-00601101341ADDMA1999999095301MD1710111+9999OA149900261REMSYN076AAXX  04234 06673 33/// /1802 11045 21060 39530 40134 57011 333 91105 91203;
0128066730999992010010500004+47217+008683FM-12+046399999V0202901N001519999999N9999999N1-00461-00691101301ADDMA1999999095261MD1710111+9999OA149900261REMSYN076AAXX  05004 06673 33/// /2903 11046 21069 39526 40130 57011 333 91105 91204;
0128066730999992010010501004+47217+008683FM-12+046399999V0202801N001519999999N9999999N1-00471-00701101261ADDMA1999999095221MD1710121+9999OA149900311REMSYN076AAXX  05014 06673 33/// /2803 11047 21070 39522 40126 57012 333 91106 91203;
0128066730999992010010502004+47217+008683FM-12+046399999V0202701N001019999999N9999999N1-00481-00731101221ADDMA1999999095181MD1710121+9999OA149900311REMSYN076AAXX  05024 06673 33/// /2702 11048 21073 39518 40122 57012 333 91106 91203;
0128066730999992010010503004+47217+008683FM-12+046399999V0202801N001019999999N9999999N1-00511-00711101191ADDMA1999999095151MD1710111+9999OA149900311REMSYN076AAXX  05034 06673 33/// /2802 11051 21071 39515 40119 57011 333 91106 91203;
0128066730999992010010504004+47217+008683FM-12+046399999V0203201N000519999999N9999999N1-00501-00671101071ADDMA1999999095041MD1710181+9999OA149900311REMSYN076AAXX  05044 06673 33/// /3201 11050 21067 39504 40107 57018 333 91106 91203;
0145066730999992010010505004+47217+008683FM-12+046399999V0203001N000519999999N9999999N1-00501-00681101021ADDAA101000021MA1999999094991MD1610191+9999OA149900211REMSYN082AAXX  05054 06673 23/// /3001 11050 21068 39499 40102 56019 333 69915 91104 91202;
0264066730999992010010506004+47217+008683FM-12+046399999V0203001N001019999999N9999999N1-00531-00721100951ADDAA112000091AA224000091AL10600091GJ100009IA2999-00809KA1999N-00531MA1999999094921MD1610231+9999OA149900361REMSYN112AAXX  05064 06673 03/// /3002 11053 21072 39492 40095 56023 69912 333 21053 3/108 55000 60005 70001 91107 91204;EQDQ01  00002PRCP24Q02  00002PRCP12
0128066730999992010010507004+47217+008683FM-12+046399999V0202901N002119999999N9999999N1-00521-00731100921ADDMA1999999094891MD1810151+9999OA149900361REMSYN076AAXX  05074 06673 33/// /2904 11052 21073 39489 40092 58015 333 91107 91204;
0128066730999992010010508004+47217+008683FM-12+046399999V0202801N001519999999N9999999N1-00501-00711100891ADDMA1999999094871MD1710121+9999OA149900261REMSYN076AAXX  05084 06673 33/// /2803 11050 21071 39487 40089 57012 333 91105 91204;
0128066730999992010010509004+47217+008683FM-12+046399999V0202901N002119999999N9999999N1-00491-00711100881ADDMA1999999094861MD1710061+9999OA149900361REMSYN076AAXX  05094 06673 33/// /2904 11049 21071 39486 40088 57006 333 91107 91204;
0145066730999992010010510004+47217+008683FM-12+046399999V0203001N001019999999N9999999N1-00461-00721100821ADDAA101000021MA1999999094811MD1710081+9999OA149900311REMSYN082AAXX  05104 06673 23/// /3002 11046 21072 39481 40082 57008 333 69915 91106 91204;
0128066730999992010010511004+47217+008683FM-12+046399999V0203001N001019999999N9999999N1-00431-00681100721ADDMA1999999094731MD1810141+9999OA149900261REMSYN076AAXX  05114 06673 33/// /3002 11043 21068 39473 40072 58014 333 91105 91203;
0170066730999992010010512004+47217+008683FM-12+046399999V0203001N001519999999N9999999N1-00371-00651100641ADDAA106000091MA1999999094661MD1810201+9999OA149900361REMSYN088AAXX  05124 06673 03/// /3003 11037 21065 39466 40064 58020 69911 333 60005 91107 91204;EQDQ01  00002PRCP06
0128066730999992010010513004+47217+008683FM-12+046399999V0203401N001019999999N9999999N1-00371-00651100581ADDMA1999999094611MD1610201+9999OA149900261REMSYN076AAXX  05134 06673 33/// /3402 11037 21065 39461 40058 56020 333 91105 91203;
0087066730999992010010514004+47217+008683FM-12+046399999V0203201N000519999999N9999999N1-00361-00561100511ADDMA1999999094541REMSYN060AAXX  05144 06673 33/// /3201 11036 21056 39454 40051 5////;
0128066730999992010010515004+47217+008683FM-12+046399999V0203001N000519999999N9999999N1-00381-00581100491ADDMA1999999094521MD1710141+9999OA149900261REMSYN076AAXX  05154 06673 33/// /3001 11038 21058 39452 40049 57014 333 91105 91203;
0145066730999992010010516004+47217+008683FM-12+046399999V0202901N001519999999N9999999N1-00361-00561100461ADDAA101001091MA1999999094501MD1710111+9999OA149900211REMSYN082AAXX  05164 06673 23/// /2903 11036 21056 39450 40046 57011 333 69995 91104 91203;
0145066730999992010010517004+47217+008683FM-12+046399999V0202801N000519999999N9999999N1-00391-00611100431ADDAA101000591MA1999999094461MD1810081+9999OA149900211REMSYN082AAXX  05174 06673 23/// /2801 11039 21061 39446 40043 58008 333 69955 91104 91203;
0170066730999992010010518004+47217+008683FM-12+046399999V0202701N002119999999N9999999N1-00381-00621100421ADDAA112002091KA1120M-00341MA1999999094451MD1710071+9999OA149900361REMSYN094AAXX  05184 06673 03/// /2704 11038 21062 39445 40042 57007 60022 333 11034 60005 91107 91204;
0128066730999992010010519004+47217+008683FM-12+046399999V0202801N000519999999N9999999N1-00381-00581100381ADDMA1999999094421MD1710081+9999OA149900361REMSYN076AAXX  05194 06673 33/// /2801 11038 21058 39442 40038 57008 333 91107 91204;
0128066730999992010010520004+47217+008683FM-12+046399999V0202901N001519999999N9999999N1-00381-00601100351ADDMA1999999094391MD1710071+9999OA149900311REMSYN076AAXX  05204 06673 33/// /2903 11038 21060 39439 40035 57007 333 91106 91204;
0128066730999992010010521004+47217+008683FM-12+046399999V0202901N001519999999N9999999N1-00401-00601100331ADDMA1999999094371MD1710081+9999OA149900361REMSYN076AAXX  05214 06673 33/// /2903 11040 21060 39437 40033 57008 333 91107 91205;
0128066730999992010010522004+47217+008683FM-12+046399999V0202601N001019999999N9999999N1-00391-00621100301ADDMA1999999094341MD1710081+9999OA149900361REMSYN076AAXX  05224 06673 33/// /2602 11039 21062 39434 40030 57008 333 91107 91205;
0128066730999992010010523004+47217+008683FM-12+046399999V0203001N001019999999N9999999N1-00411-00611100281ADDMA1999999094321MD1710071+9999OA149900261REMSYN076AAXX  05234 06673 33/// /3002 11041 21061 39432 40028 57007 333 91105 91203;
0128066730999992010010600004+47217+008683FM-12+046399999V0202801N000519999999N9999999N1-00411-00601100241ADDMA1999999094281MD1710091+9999OA149900361REMSYN076AAXX  06004 06673 33/// /2801 11041 21060 39428 40024 57009 333 91107 91205;
0128066730999992010010601004+47217+008683FM-12+046399999V0202601N001519999999N9999999N1-00391-00601100221ADDMA1999999094261MD1710081+9999OA149900211REMSYN076AAXX  06014 06673 33/// /2603 11039 21060 39426 40022 57008 333 91104 91203;
0128066730999992010010602004+47217+008683FM-12+046399999V0202901N001519999999N9999999N1-00371-00581100241ADDMA1999999094291MD1510031+9999OA149900261REMSYN076AAXX  06024 06673 33/// /2903 11037 21058 39429 40024 55003 333 91105 91203;
0145066730999992010010603004+47217+008683FM-12+046399999V0202801N001519999999N9999999N1-00401-00571100241ADDAA101002091MA1999999094281MD1510001+9999OA149900261REMSYN082AAXX  06034 06673 23/// /2803 11040 21057 39428 40024 55000 333 60025 91105 91203;
0145066730999992010010604004+47217+008683FM-12+046399999V0202401N000519999999N9999999N1-00411-00521100231ADDAA101007191MA1999999094271MD1010011+9999OA149900211REMSYN082AAXX  06044 06673 23/// /2401 11041 21052 39427 40023 50001 333 60075 91104 91203;
0145066730999992010010605004+47217+008683FM-12+046399999V0201801N000519999999N9999999N1-00401-00501100261ADDAA101000891MA1999999094301MD1310011+9999OA149900211REMSYN082AAXX  06054 06673 23/// /1801 11040 21050 39430 40026 53001 333 69975 91104 91202;
0229066730999992010010606004+47217+008683FM-12+046399999V0209999C000019999999N9999999N1-00391-00491100301ADDAA112010991AA224011991AL19901291GJ100009IA2999-00409KA1999N-00431MA1999999094341MD1210061+9999OA149900361REMSYN112AAXX  06064 06673 03/// /0000 11039 21049 39434 40030 52006 60112 333 21043 3/104 55000 69945 70120 91107 91205;
0128066730999992010010607004+47217+008683FM-12+046399999V0201201N000519999999N9999999N1-00341-00481100331ADDMA1999999094381MD1310111+9999OA149900151REMSYN076AAXX  06074 06673 33/// /1201 11034 21048 39438 40033 53011 333 91103 91202;
0128066730999992010010608004+47217+008683FM-12+046399999V0201401N000519999999N9999999N1-00291-00411100351ADDMA1999999094411MD1210111+9999OA149900151REMSYN076AAXX  06084 06673 33/// /1401 11029 21041 39441 40035 52011 333 91103 91202;
0128066730999992010010609004+47217+008683FM-12+046399999V0201701N000519999999N9999999N1-00301-00431100411ADDMA1999999094461MD1210121+9999OA149900211REMSYN076AAXX  06094 06673 33/// /1701 11030 21043 39446 40041 52012 333 91104 91203;
0128066730999992010010610004+47217+008683FM-12+046399999V0201301N001019999999N9999999N1-00251-00451100451ADDMA1999999094511MD1210131+9999OA149900211REMSYN076AAXX  06104 06673 33/// /1302 11025 21045 39451 40045 52013 333 91104 91203;
0128066730999992010010611004+47217+008683FM-12+046399999V0200601N000519999999N9999999N1-00231-00491100391ADDMA1999999094461MD1019999+9999OA149900151REMSYN076AAXX  06114 06673 33/// /0601 11023 21049 39446 40039 50/// 333 91103 91202;
0128066730999992010010612004+47217+008683FM-12+046399999V0201601N000519999999N9999999N1-00251-00501100361ADDMA1999999094431MD1710031+9999OA149900261REMSYN076AAXX  06124 06673 33/// /1601 11025 21050 39443 40036 57003 333 91105 91203;
0128066730999992010010613004+47217+008683FM-12+046399999V0209999C000019999999N9999999N1-00211-00491100381ADDMA1999999094451MD1510061+9999OA149900151REMSYN076AAXX  06134 06673 33/// /0000 11021 21049 39445 40038 55006 333 91103 91202;
0128066730999992010010614004+47217+008683FM-12+046399999V0201701N001019999999N9999999N1-00201-00451100381ADDMA1999999094461MD1519999+9999OA149900211REMSYN076AAXX  06144 06673 33/// /1702 11020 21045 39446 40038 55/// 333 91104 91202;
0128066730999992010010615004+47217+008683FM-12+046399999V0209999C000019999999N9999999N1-00191-00431100411ADDMA1999999094491MD1219999+9999OA149900211REMSYN076AAXX  06154 06673 33/// /0000 11019 21043 39449 40041 52/// 333 91104 91202;
0128066730999992010010616004+47217+008683FM-12+046399999V0201801N000519999999N9999999N1-00191-00421100471ADDMA1999999094541MD1210091+9999OA149900151REMSYN076AAXX  06164 06673 33/// /1801 11019 21042 39454 40047 52009 333 91103 91201;
0128066730999992010010617004+47217+008683FM-12+046399999V0201701N000519999999N9999999N1-00191-00401100511ADDMA1999999094581MD1110121+9999OA149900101REMSYN076AAXX  06174 06673 33/// /1701 11019 21040 39458 40051 51012 333 91102 91202;
0147066730999992010010618004+47217+008683FM-12+046399999V0202001N000519999999N9999999N1-00201-00391100551ADDKA1120M-00171MA1999999094621MD1319999+9999OA149900211REMSYN082AAXX  06184 06673 33/// /2001 11020 21039 39462 40055 53/// 333 11017 91104 91203;
0128066730999992010010619004+47217+008683FM-12+046399999V0201701N001519999999N9999999N1-00191-00411100581ADDMA1999999094651MD1110111+9999OA149900211REMSYN076AAXX  06194 06673 33/// /1703 11019 21041 39465 40058 51011 333 91104 91203;
0128066730999992010010620004+47217+008683FM-12+046399999V0202101N001019999999N9999999N1-00311-00481100651ADDMA1999999094691MD1110111+9999OA149900211REMSYN076AAXX  06204 06673 33/// /2102 11031 21048 39469 40065 51011 333 91104 91203;
0128066730999992010010621004+47217+008683FM-12+046399999V0202001N001019999999N9999999N1-00361-00521100671ADDMA1999999094691MD1110071+9999OA149900211REMSYN076AAXX  06214 06673 33/// /2002 11036 21052 39469 40067 51007 333 91104 91203;
0128066730999992010010622004+47217+008683FM-12+046399999V0202301N001019999999N9999999N1-00411-00571100721ADDMA1999999094731MD1110081+9999OA149900261REMSYN076AAXX  06224 06673 33/// /2302 11041 21057 39473 40072 51008 333 91105 91204;
0128066730999992010010623004+47217+008683FM-12+046399999V0202301N002119999999N9999999N1-00271-00461100731ADDMA1999999094771MD1310081+9999OA149900311REMSYN076AAXX  06234 06673 33/// /2304 11027 21046 39477 40073 53008 333 91106 91204;
0128066730999992010010700004+47217+008683FM-12+046399999V0202501N000519999999N9999999N1-00271-00451100761ADDMA1999999094801MD1210111+9999OA149900361REMSYN076AAXX  07004 06673 33/// /2501 11027 21045 39480 40076 52011 333 91107 91205;
0128066730999992010010701004+47217+008683FM-12+046399999V0209999C000019999999N9999999N1-00301-00441100781ADDMA1999999094811MD1210081+9999OA149900361REMSYN076AAXX  07014 06673 33/// /0000 11030 21044 39481 40078 52008 333 91107 91205;
0128066730999992010010702004+47217+008683FM-12+046399999V0202001N001019999999N9999999N1-00251-00441100831ADDMA1999999094871MD1219999+9999OA149900261REMSYN076AAXX  07024 06673 33/// /2002 11025 21044 39487 40083 52/// 333 91105 91204;
0128066730999992010010703004+47217+008683FM-12+046399999V0201501N000519999999N9999999N1-00261-00421100821ADDMA1999999094861MD1210061+9999OA149900361REMSYN076AAXX  07034 06673 33/// /1501 11026 21042 39486 40082 52006 333 91107 91205;
0128066730999992010010704004+47217+008683FM-12+046399999V0201601N002119999999N9999999N1-00311-00471100841ADDMA1999999094861MD1010051+9999OA149900311REMSYN076AAXX  07044 06673 33/// /1604 11031 21047 39486 40084 50005 333 91106 91204;
0128066730999992010010705004+47217+008683FM-12+046399999V0201701N003119999999N9999999N1-00431-00731100861ADDMA1999999094861MD1510011+9999OA149900411REMSYN076AAXX  07054 06673 33/// /1706 11043 21073 39486 40086 55001 333 91108 91206;
0225066730999992010010706004+47217+008683FM-12+046399999V0201701N003619999999N9999999N1-00441-00761100911ADDAA124000091AL19900091GJ100009IA2999-00809KA1999N-00461MA1999999094901MD1310041+9999OA149900511REMSYN100AAXX  07064 06673 33/// /1707 11044 21076 39490 40091 53004 333 21046 3/108 55000 70000 91110 91208;EQDQ01  00002PRCP24
0128066730999992010010707004+47217+008683FM-12+046399999V0201701N002119999999N9999999N1-00491-00781100951ADDMA1999999094931MD1310071+9999OA149900511REMSYN076AAXX  07074 06673 33/// /1704 11049 21078 39493 40095 53007 333 91110 91208;
0128066730999992010010708004+47217+008683FM-12+046399999V0201701N004119999999N9999999N1-00401-00781100981ADDMA1999999094981MD1319999+9999OA149900511REMSYN076AAXX  07084 06673 33/// /1708 11040 21078 39498 40098 53/// 333 91110 91208;
0128066730999992010010709004+47217+008683FM-12+046399999V0201501N002119999999N9999999N1-00381-00861101011ADDMA1999999095011MD1110111+9999OA149900511REMSYN076AAXX  07094 06673 33/// /1504 11038 21086 39501 40101 51011 333 91110 91208;
0128066730999992010010710004+47217+008683FM-12+046399999V0209999C000019999999N9999999N1-00301-00671101051ADDMA1999999095061MD1310131+9999OA149900461REMSYN076AAXX  07104 06673 33/// /0000 11030 21067 39506 40105 53013 333 91109 91206;
0128066730999992010010711004+47217+008683FM-12+046399999V0202401N001019999999N9999999N1-00161-00591101011ADDMA1999999095061MD1110081+9999OA149900311REMSYN076AAXX  07114 06673 33/// /2402 11016 21059 39506 40101 51008 333 91106 91204;
0128066730999992010010712004+47217+008683FM-12+046399999V0202501N001019999999N9999999N1-00151-00581100981ADDMA1999999095031MD1010021+9999OA149900511REMSYN076AAXX  07124 06673 33/// /2502 11015 21058 39503 40098 50002 333 91110 91208;
0128066730999992010010713004+47217+008683FM-12+046399999V0202401N000519999999N9999999N1-00111-00561100961ADDMA1999999095021MD1719999+9999OA149900311REMSYN076AAXX  07134 06673 33/// /2401 11011 21056 39502 40096 57/// 333 91106 91203;
0087066730999992010010715004+47217+008683FM-12+046399999V02099999999999999999N9999999N1-00131-00511101061ADDMA1999999095111REMSYN060AAXX  07154 06673 43/// ///// 11013 21051 39511 40106 5////;
0128066730999992010010716004+47217+008683FM-12+046399999V0202201N001519999999N9999999N1-00191-00511101121ADDMA1999999095151MD1319999+9999OA149900261REMSYN076AAXX  07164 06673 33/// /2203 11019 21051 39515 40112 53/// 333 91105 91204;
0128066730999992010010717004+47217+008683FM-12+046399999V0201701N001519999999N9999999N1-00201-00551101131ADDMA1999999095161MD1119999+9999OA149900311REMSYN076AAXX  07174 06673 33/// /1703 11020 21055 39516 40113 51/// 333 91106 91204;
0147066730999992010010718004+47217+008683FM-12+046399999V0201901N001519999999N9999999N1-00231-00561101191ADDKA1120M-00071MA1999999095211MD1319999+9999OA149900511REMSYN082AAXX  07184 06673 33/// /1903 11023 21056 39521 40119 53/// 333 11007 91110 91208;
0128066730999992010010719004+47217+008683FM-12+046399999V0201601N001519999999N9999999N1-00251-00591101211ADDMA1999999095231MD1210081+9999OA149900261REMSYN076AAXX  07194 06673 33/// /1603 11025 21059 39523 40121 52008 333 91105 91204;
0128066730999992010010720004+47217+008683FM-12+046399999V0201901N002119999999N9999999N1-00251-00581101191ADDMA1999999095211MD1210051+9999OA149900361REMSYN076AAXX  07204 06673 33/// /1904 11025 21058 39521 40119 52005 333 91107 91205;
0128066730999992010010721004+47217+008683FM-12+046399999V0201601N002619999999N9999999N1-00261-00591101241ADDMA1999999095251MD1210041+9999OA149900411REMSYN076AAXX  07214 06673 33/// /1605 11026 21059 39525 40124 52004 333 91108 91205;
0128066730999992010010722004+47217+008683FM-12+046399999V0201701N003119999999N9999999N1-00231-00591101201ADDMA1999999095221MD1710011+9999OA149900411REMSYN076AAXX  07224 06673 33/// /1706 11023 21059 39522 40120 57001 333 91108 91206;
0128066730999992010010723004+47217+008683FM-12+046399999V0201601N001519999999N9999999N1-00211-00551101181ADDMA1999999095211MD1710011+9999OA149900411REMSYN076AAXX  07234 06673 33/// /1603 11021 21055 39521 40118 58000 333 91108 91206;
0128066730999992010010800004+47217+008683FM-12+046399999V0201701N001019999999N9999999N1-00241-00551101161ADDMA1999999095181MD1710071+9999OA149900411REMSYN076AAXX  08004 06673 33/// /1702 11024 21055 39518 40116 57007 333 91108 91206;
0128066730999992010010801004+47217+008683FM-12+046399999V0201901N002119999999N9999999N1-00211-00541101121ADDMA1999999095151MD1710071+9999OA149900311REMSYN076AAXX  08014 06673 33/// /1904 11021 21054 39515 40112 57007 333 91106 91204;
0128066730999992010010802004+47217+008683FM-12+046399999V0202501N000519999999N9999999N1-00221-00491101111ADDMA1999999095141MD1719999+9999OA149900311REMSYN076AAXX  08024 06673 33/// /2501 11022 21049 39514 40111 57/// 333 91106 91204;
0128066730999992010010803004+47217+008683FM-12+046399999V0201601N000519999999N9999999N1-00231-00441101091ADDMA1999999095121MD1719999+9999OA149900411REMSYN076AAXX  08034 06673 33/// /1601 11023 21044 39512 40109 57/// 333 91108 91206;
0128066730999992010010804004+47217+008683FM-12+046399999V0200701N002119999999N9999999N1-00191-00431101041ADDMA1999999095081MD1710071+9999OA149900311REMSYN076AAXX  08044 06673 33/// /0704 11019 21043 39508 40104 57007 333 91106 91204;
0128066730999992010010805004+47217+008683FM-12+046399999V0200401N002119999999N9999999N1-00191-00461100981ADDMA1999999095021MD1810121+9999OA149900571REMSYN076AAXX  08054 06673 33/// /0404 11019 21046 39502 40098 58012 333 91111 91205;
0225066730999992010010806004+47217+008683FM-12+046399999V0200401N002619999999N9999999N1-00201-00411100921ADDAA124000091AL19900091GJ102409IA2999-00609KA1999N-00301MA1999999094961MD1610161+9999OA149900571REMSYN100AAXX  08064 06673 33/// /0405 11020 21041 39496 40092 56016 333 21030 3/106 55040 70000 91111 91206;EQDQ01  00002PRCP24
0128066730999992010010807004+47217+008683FM-12+046399999V0200401N004619999999N9999999N1-00171-00421100891ADDMA1999999094941MD1610141+9999OA149900771REMSYN076AAXX  08074 06673 33/// /0409 11017 21042 39494 40089 56014 333 91115 91210;
0128066730999992010010808004+47217+008683FM-12+046399999V0200501N003619999999N9999999N1-00161-00411100841ADDMA1999999094901MD1610121+9999OA149900771REMSYN076AAXX  08084 06673 33/// /0507 11016 21041 39490 40084 56012 333 91115 91210;
0128066730999992010010809004+47217+008683FM-12+046399999V0200401N005119999999N9999999N1-00171-00421100791ADDMA1999999094851MD1810111+9999OA149900881REMSYN076AAXX  08094 06673 33/// /0410 11017 21042 39485 40079 58011 333 91117 91210;
0128066730999992010010810004+47217+008683FM-12+046399999V0200401N006219999999N9999999N1-00181-00471100751ADDMA1999999094811MD1610131+9999OA149901031REMSYN076AAXX  08104 06673 33/// /0412 11018 21047 39481 40075 56013 333 91120 91213;
0128066730999992010010811004+47217+008683FM-12+046399999V0200301N005719999999N9999999N1-00151-00481100671ADDMA1999999094741MD1810161+9999OA149901031REMSYN076AAXX  08114 06673 33/// /0311 11015 21048 39474 40067 58016 333 91120 91213;
0128066730999992010010812004+47217+008683FM-12+046399999V0200401N005119999999N9999999N1-00161-00481100581ADDMA1999999094651MD1710201+9999OA149901081REMSYN076AAXX  08124 06673 33/// /0410 11016 21048 39465 40058 57020 333 91121 91214;
0128066730999992010010813004+47217+008683FM-12+046399999V0200301N005719999999N9999999N1-00181-00471100521ADDMA1999999094591MD1610221+9999OA149901081REMSYN076AAXX  08134 06673 33/// /0311 11018 21047 39459 40052 56022 333 91121 91214;
0134066730999992010010814004+47217+008683FM-12+046399999V0200401N006219999999N9999999N1-00161-00441100511ADDMA1999999094591MD1719999+9999OA149900931REMSYN082AAXX  08144 06673 33/// /0412 11016 21044 39459 40051 57/// 91340 333 91118 91212;
0128066730999992010010815004+47217+008683FM-12+046399999V0200301N006219999999N9999999N1-00201-00451100541ADDMA1999999094611MD1510041+9999OA149901081REMSYN076AAXX  08154 06673 33/// /0312 11020 21045 39461 40054 55004 333 91121 91214;
0128066730999992010010816004+47217+008683FM-12+046399999V0200401N004619999999N9999999N1-00201-00461100591ADDMA1999999094651MD1210061+9999OA149900981REMSYN076AAXX  08164 06673 33/// /0409 11020 21046 39465 40059 52006 333 91119 91212;
0128066730999992010010817004+47217+008683FM-12+046399999V0200401N005119999999N9999999N1-00201-00471100621ADDMA1999999094681MD1310091+9999OA149900931REMSYN076AAXX  08174 06673 33/// /0410 11020 21047 39468 40062 53009 333 91118 91212;
0147066730999992010010818004+47217+008683FM-12+046399999V0200301N004619999999N9999999N1-00221-00471100651ADDKA1120M-00141MA1999999094711MD1110101+9999OA149901081REMSYN082AAXX  08184 06673 33/// /0309 11022 21047 39471 40065 51010 333 11014 91121 91214;
0145066730999992010010819004+47217+008683FM-12+046399999V0200301N004119999999N9999999N1-00251-00371100671ADDAA101000391MA1999999094721MD1210071+9999OA149900771REMSYN082AAXX  08194 06673 23/// /0308 11025 21037 39472 40067 52007 333 69935 91115 91211;
0145066730999992010010820004+47217+008683FM-12+046399999V0200601N002619999999N9999999N1-00271-00421100681ADDAA101000391MA1999999094721MD1210041+9999OA149900771REMSYN082AAXX  08204 06673 23/// /0605 11027 21042 39472 40068 52004 333 69935 91115 91211;
0128066730999992010010821004+47217+008683FM-12+046399999V0200301N004119999999N9999999N1-00241-00441100661ADDMA1999999094711MD1010001+9999OA149900931REMSYN076AAXX  08214 06673 33/// /0308 11024 21044 39471 40066 50000 333 91118 91212;
0128066730999992010010822004+47217+008683FM-12+046399999V0200301N005119999999N9999999N1-00251-00471100661ADDMA1999999094711MD1710011+9999OA149900721REMSYN076AAXX  08224 06673 33/// /0310 11025 21047 39471 40066 57001 333 91114 91210;
0128066730999992010010823004+47217+008683FM-12+046399999V0200301N005119999999N9999999N1-00261-00471100691ADDMA1999999094731MD1310011+9999OA149900821REMSYN076AAXX  08234 06673 33/// /0310 11026 21047 39473 40069 53001 333 91116 91210;
0151066730999992010010900004+47217+008683FM-12+046399999V0200301N004619999999N9999999N1-00261-00441100701ADDAA106000591MA1999999094741MD1210031+9999OA149900981REMSYN088AAXX  09004 06673 03/// /0309 11026 21044 39474 40070 52003 69961 333 60005 91119 91212;
0128066730999992010010901004+47217+008683FM-12+046399999V0200301N004619999999N9999999N1-00271-00451100681ADDMA1999999094721MD1010011+9999OA149900771REMSYN076AAXX  09014 06673 33/// /0309 11027 21045 39472 40068 50001 333 91115 91210;
0128066730999992010010902004+47217+008683FM-12+046399999V0200201N003619999999N9999999N1-00291-00461100691ADDMA1999999094731MD1519999+9999OA149900721REMSYN076AAXX  09024 06673 33/// /0207 11029 21046 39473 40069 55/// 333 91114 91209;
0128066730999992010010903004+47217+008683FM-12+046399999V0200201N005719999999N9999999N1-00361-00511100711ADDMA1999999094731MD1019999+9999OA149900931REMSYN076AAXX  09034 06673 33/// /0211 11036 21051 39473 40071 50/// 333 91118 91211;
0128066730999992010010904004+47217+008683FM-12+046399999V0200301N005119999999N9999999N1-00331-00541100641ADDMA1999999094671MD1810051+9999OA149900931REMSYN076AAXX  09044 06673 33/// /0310 11033 21054 39467 40064 58005 333 91118 91211;
0128066730999992010010905004+47217+008683FM-12+046399999V0200301N005119999999N9999999N1-00311-00541100611ADDMA1999999094651MD1710081+9999OA149900931REMSYN076AAXX  09054 06673 33/// /0310 11031 21054 39465 40061 57008 333 91118 91211;
0229066730999992010010906004+47217+008683FM-12+046399999V0200201N004119999999N9999999N1-00341-00531100581ADDAA112000591AA224000591AL13600091GJ100009IA2999-00409KA1999N-00361MA1999999094611MD1710121+9999OA149900931REMSYN112AAXX  09064 06673 03/// /0208 11034 21053 39461 40058 57012 69962 333 21036 3/104 55000 60005 70006 91118 91211;
0128066730999992010010907004+47217+008683FM-12+046399999V0200301N004119999999N9999999N1-00351-00551100601ADDMA1999999094631MD1710041+9999OA149900821REMSYN076AAXX  09074 06673 33/// /0308 11035 21055 39463 40060 57004 333 91116 91211;
0128066730999992010010908004+47217+008683FM-12+046399999V0200201N004619999999N9999999N1-00371-00581100601ADDMA1999999094631MD1510021+9999OA149900881REMSYN076AAXX  09084 06673 33/// /0209 11037 21058 39463 40060 55002 333 91117 91210;
0128066730999992010010909004+47217+008683FM-12+046399999V0200201N005119999999N9999999N1-00381-00571100621ADDMA1999999094641MD1210031+9999OA149900931REMSYN076AAXX  09094 06673 33/// /0210 11038 21057 39464 40062 52003 333 91118 91211;
0128066730999992010010910004+47217+008683FM-12+046399999V0200201N005119999999N9999999N1-00371-00581100621ADDMA1999999094641MD1210011+9999OA149900881REMSYN076AAXX  09104 06673 33/// /0210 11037 21058 39464 40062 52001 333 91117 91211;
0128066730999992010010911004+47217+008683FM-12+046399999V0200301N004619999999N9999999N1-00381-00591100601ADDMA1999999094621MD1810011+9999OA149900881REMSYN076AAXX  09114 06673 33/// /0309 11038 21059 39462 40060 58001 333 91117 91211;
0128066730999992010010912004+47217+008683FM-12+046399999V0200301N005119999999N9999999N1-00391-00601100561ADDMA1999999094581MD1710061+9999OA149900931REMSYN076AAXX  09124 06673 33/// /0310 11039 21060 39458 40056 57006 333 91118 91211;
0093066730999992010010913004+47217+008683FM-12+046399999V0200201N004119999999N9999999N1+99999+99999999999ADDOA149900771REMSYN070AAXX  09134 06673 43/// /0208 1//// 2//// 3//// 5//// 333 91115 91211;
0093066730999992010010914004+47217+008683FM-12+046399999V0200201N003619999999N9999999N1+99999+99999999999ADDOA149900771REMSYN070AAXX  09144 06673 43/// /0207 1//// 2//// 3//// 5//// 333 91115 91210;
0093066730999992010010915004+47217+008683FM-12+046399999V0200201N004119999999N9999999N1+99999+99999999999ADDOA149900881REMSYN070AAXX  09154 06673 43/// /0208 1//// 2//// 3//// 5//// 333 91117 91211;
0093066730999992010010916004+47217+008683FM-12+046399999V0200201N003119999999N9999999N1+99999+99999999999ADDOA149900721REMSYN070AAXX  09164 06673 43/// /0206 1//// 2//// 3//// 5//// 333 91114 91209;
0093066730999992010010917004+47217+008683FM-12+046399999V0200301N002619999999N9999999N1+99999+99999999999ADDOA149900721REMSYN070AAXX  09174 06673 43/// /0305 1//// 2//// 3//// 5//// 333 91114 91208;
0093066730999992010010918004+47217+008683FM-12+046399999V0203301N001019999999N9999999N1+99999+99999999999ADDOA149900881REMSYN070AAXX  09184 06673 43/// /3302 1//// 2//// 3//// 5//// 333 91117 91211;
0093066730999992010010919004+47217+008683FM-12+046399999V0200301N002119999999N9999999N1+99999+99999999999ADDOA149900571REMSYN070AAXX  09194 06673 43/// /0304 1//// 2//// 3//// 5//// 333 91111 91205;
0093066730999992010010920004+47217+008683FM-12+046399999V0203201N001019999999N9999999N1+99999+99999999999ADDOA149900571REMSYN070AAXX  09204 06673 43/// /3202 1//// 2//// 3//// 5//// 333 91111 91205;
0093066730999992010010921004+47217+008683FM-12+046399999V0203501N000519999999N9999999N1+99999+99999999999ADDOA149900721REMSYN070AAXX  09214 06673 43/// /3501 1//// 2//// 3//// 5//// 333 91114 91208;
0093066730999992010010922004+47217+008683FM-12+046399999V0202901N002119999999N9999999N1+99999+99999999999ADDOA149900411REMSYN070AAXX  09224 06673 43/// /2904 1//// 2//// 3//// 5//// 333 91108 91205;
0093066730999992010010923004+47217+008683FM-12+046399999V0202801N002119999999N9999999N1+99999+99999999999ADDOA149900361REMSYN070AAXX  09234 06673 43/// /2804 1//// 2//// 3//// 5//// 333 91107 91205;
0093066730999992010011000004+47217+008683FM-12+046399999V0202701N001519999999N9999999N1+99999+99999999999ADDOA149900771REMSYN070AAXX  10004 06673 43/// /2703 1//// 2//// 3//// 5//// 333 91115 91210;
0093066730999992010011001004+47217+008683FM-12+046399999V0202601N001519999999N9999999N1+99999+99999999999ADDOA149900361REMSYN070AAXX  10014 06673 43/// /2603 1//// 2//// 3//// 5//// 333 91107 91204;
0063066730999992010011002004+47217+008683FM-12+046399999V0202601N002619999999N9999999N1+99999+99999999999REMSYN054AAXX  10024 06673 43/// /2605 1//// 2//// 3//// 5////;
0063066730999992010011003004+47217+008683FM-12+046399999V0202401N001519999999N9999999N1+99999+99999999999REMSYN054AAXX  10034 06673 43/// /2403 1//// 2//// 3//// 5////;
0093066730999992010011004004+47217+008683FM-12+046399999V0202601N002119999999N9999999N1+99999+99999999999ADDOA149900411REMSYN070AAXX  10044 06673 43/// /2604 1//// 2//// 3//// 5//// 333 91108 91206;
0093066730999992010011005004+47217+008683FM-12+046399999V0202801N002119999999N9999999N1+99999+99999999999ADDOA149900411REMSYN070AAXX  10054 06673 43/// /2804 1//// 2//// 3//// 5//// 333 91108 91206;
0107066730999992010011006004+47217+008683FM-12+046399999V0202501N002119999999N9999999N1+99999+99999999999ADDGJ100009OA149900571REMSYN076AAXX  10064 06673 43/// /2504 1//// 2//// 3//// 5//// 333 55000 91111 91206;
0093066730999992010011007004+47217+008683FM-12+046399999V0202301N002619999999N9999999N1+99999+99999999999ADDOA149900461REMSYN070AAXX  10074 06673 43/// /2305 1//// 2//// 3//// 5//// 333 91109 91206;
0093066730999992010011008004+47217+008683FM-12+046399999V0202401N002619999999N9999999N1+99999+99999999999ADDOA149900411REMSYN070AAXX  10084 06673 43/// /2405 1//// 2//// 3//// 5//// 333 91108 91206;
0093066730999992010011009004+47217+008683FM-12+046399999V0202401N002119999999N9999999N1+99999+99999999999ADDOA149900461REMSYN070AAXX  10094 06673 43/// /2404 1//// 2//// 3//// 5//// 333 91109 91206;
0093066730999992010011010004+47217+008683FM-12+046399999V0202801N001519999999N9999999N1+99999+99999999999ADDOA149900411REMSYN070AAXX  10104 06673 43/// /2803 1//// 2//// 3//// 5//// 333 91108 91205;
0093066730999992010011011004+47217+008683FM-12+046399999V0202901N002119999999N9999999N1+99999+99999999999ADDOA149900411REMSYN070AAXX  10114 06673 43/// /2904 1//// 2//// 3//// 5//// 333 91108 91204;
0093066730999992010011012004+47217+008683FM-12+046399999V0202601N002119999999N9999999N1+99999+99999999999ADDOA149900461REMSYN070AAXX  10124 06673 43/// /2604 1//// 2//// 3//// 5//// 333 91109 91206;
0093066730999992010011013004+47217+008683FM-12+046399999V0202601N002119999999N9999999N1+99999+99999999999ADDOA149900361REMSYN070AAXX  10134 06673 43/// /2604 1//// 2//// 3//// 5//// 333 91107 91204;
0093066730999992010011014004+47217+008683FM-12+046399999V0202901N002119999999N9999999N1+99999+99999999999ADDOA149900361REMSYN070AAXX  10144 06673 43/// /2904 1//// 2//// 3//// 5//// 333 91107 91204;
0093066730999992010011015004+47217+008683FM-12+046399999V0202501N001019999999N9999999N1+99999+99999999999ADDOA149900411REMSYN070AAXX  10154 06673 43/// /2502 1//// 2//// 3//// 5//// 333 91108 91205;
0093066730999992010011016004+47217+008683FM-12+046399999V0203001N001019999999N9999999N1+99999+99999999999ADDOA149900411REMSYN070AAXX  10164 06673 43/// /3002 1//// 2//// 3//// 5//// 333 91108 91205;
0093066730999992010011017004+47217+008683FM-12+046399999V0202401N001519999999N9999999N1+99999+99999999999ADDOA149900211REMSYN070AAXX  10174 06673 43/// /2403 1//// 2//// 3//// 5//// 333 91104 91203;
0093066730999992010011018004+47217+008683FM-12+046399999V0202601N001519999999N9999999N1+99999+99999999999ADDOA149900411REMSYN070AAXX  10184 06673 43/// /2603 1//// 2//// 3//// 5//// 333 91108 91206;
0093066730999992010011019004+47217+008683FM-12+046399999V0202601N001019999999N9999999N1+99999+99999999999ADDOA149900211REMSYN070AAXX  10194 06673 43/// /2602 1//// 2//// 3//// 5//// 333 91104 91203;
0093066730999992010011020004+47217+008683FM-12+046399999V0202001N001019999999N9999999N1+99999+99999999999ADDOA149900211REMSYN070AAXX  10204 06673 43/// /2002 1//// 2//// 3//// 5//// 333 91104 91203;
0093066730999992010011021004+47217+008683FM-12+046399999V0202001N000519999999N9999999N1+99999+99999999999ADDOA149900211REMSYN070AAXX  10214 06673 43/// /2001 1//// 2//// 3//// 5//// 333 91104 91203;
0093066730999992010011022004+47217+008683FM-12+046399999V0201901N001019999999N9999999N1+99999+99999999999ADDOA149900151REMSYN070AAXX  10224 06673 43/// /1902 1//// 2//// 3//// 5//// 333 91103 91202;
0093066730999992010011023004+47217+008683FM-12+046399999V0200401N002119999999N9999999N1+99999+99999999999ADDOA149900311REMSYN070AAXX  10234 06673 43/// /0404 1//// 2//// 3//// 5//// 333 91106 91204;
0093066730999992010011100004+47217+008683FM-12+046399999V0202401N001019999999N9999999N1+99999+99999999999ADDOA149900411REMSYN070AAXX  11004 06673 43/// /2402 1//// 2//// 3//// 5//// 333 91108 91205;
0093066730999992010011101004+47217+008683FM-12+046399999V0202301N001519999999N9999999N1+99999+99999999999ADDOA149900311REMSYN070AAXX  11014 06673 43/// /2303 1//// 2//// 3//// 5//// 333 91106 91204;
0093066730999992010011102004+47217+008683FM-12+046399999V0202401N001519999999N9999999N1+99999+99999999999ADDOA149900261REMSYN070AAXX  11024 06673 43/// /2403 1//// 2//// 3//// 5//// 333 91105 91203;
0093066730999992010011103004+47217+008683FM-12+046399999V0201401N001519999999N9999999N1+99999+99999999999ADDOA149900311REMSYN070AAXX  11034 06673 43/// /1403 1//// 2//// 3//// 5//// 333 91106 91204;
0093066730999992010011104004+47217+008683FM-12+046399999V0201901N001519999999N9999999N1+99999+99999999999ADDOA149900211REMSYN070AAXX  11044 06673 43/// /1903 1//// 2//// 3//// 5//// 333 91104 91203;
0093066730999992010011105004+47217+008683FM-12+046399999V0201601N001519999999N9999999N1+99999+99999999999ADDOA149900261REMSYN070AAXX  11054 06673 43/// /1603 1//// 2//// 3//// 5//// 333 91105 91203;
0107066730999992010011106004+47217+008683FM-12+046399999V0201801N001019999999N9999999N1+99999+99999999999ADDGJ100009OA149900311REMSYN076AAXX  11064 06673 43/// /1802 1//// 2//// 3//// 5//// 333 55000 91106 91205;
0093066730999992010011107004+47217+008683FM-12+046399999V0201701N002119999999N9999999N1+99999+99999999999ADDOA149900311REMSYN070AAXX  11074 06673 43/// /1704 1//// 2//// 3//// 5//// 333 91106 91205;
0093066730999992010011108004+47217+008683FM-12+046399999V0201901N002119999999N9999999N1+99999+99999999999ADDOA149900361REMSYN070AAXX  11084 06673 43/// /1904 1//// 2//// 3//// 5//// 333 91107 91205;
0128066730999992010011109004+47217+008683FM-12+046399999V0201701N002119999999N9999999N1-00391-00821101781ADDMA1999999095731MD1119999+9999OA149900361REMSYN076AAXX  11094 06673 33/// /1704 11039 21082 39573 40178 51/// 333 91107 91205;
0128066730999992010011110004+47217+008683FM-12+046399999V0202001N000519999999N9999999N1-00321-00801101771ADDMA1999999095741MD1219999+9999OA149900311REMSYN076AAXX  11104 06673 33/// /2001 11032 21080 39574 40177 52/// 333 91106 91204;
0128066730999992010011111004+47217+008683FM-12+046399999V0202801N001019999999N9999999N1-00281-00781101751ADDMA1999999095731MD1010001+9999OA149900261REMSYN076AAXX  11114 06673 33/// /2802 11028 21078 39573 40175 50000 333 91105 91203;
0128066730999992010011112004+47217+008683FM-12+046399999V0202901N003119999999N9999999N1-00301-00711101741ADDMA1999999095711MD1710021+9999OA149900511REMSYN076AAXX  11124 06673 33/// /2906 11030 21071 39571 40174 57002 333 91110 91207;
0128066730999992010011113004+47217+008683FM-12+046399999V0202601N002619999999N9999999N1-00291-00691101721ADDMA1999999095701MD1710041+9999OA149900571REMSYN076AAXX  11134 06673 33/// /2605 11029 21069 39570 40172 57004 333 91111 91207;
0087066730999992010011114004+47217+008683FM-12+046399999V0202501N004119999999N9999999N1-00311-00701101751ADDMA1999999095721REMSYN060AAXX  11144 06673 33/// /2508 11031 21070 39572 40175 5////;
0128066730999992010011115004+47217+008683FM-12+046399999V0202601N004119999999N9999999N1-00321-00701101791ADDMA1999999095761MD1210051+9999OA149900771REMSYN076AAXX  11154 06673 33/// /2608 11032 21070 39576 40179 52005 333 91115 91209;
0128066730999992010011116004+47217+008683FM-12+046399999V0202501N002119999999N9999999N1-00341-00691101841ADDMA1999999095801MD1310101+9999OA149900771REMSYN076AAXX  11164 06673 33/// /2504 11034 21069 39580 40184 53010 333 91115 91209;
0128066730999992010011117004+47217+008683FM-12+046399999V0202601N001019999999N9999999N1-00351-00611101891ADDMA1999999095841MD1310121+9999OA149900671REMSYN076AAXX  11174 06673 33/// /2602 11035 21061 39584 40189 53012 333 91113 91207;
0147066730999992010011118004+47217+008683FM-12+046399999V0203501N000519999999N9999999N1-00381-00521101941ADDKA1120M-00261MA1999999095881MD1310121+9999OA149900771REMSYN082AAXX  11184 06673 33/// /3501 11038 21052 39588 40194 53012 333 11026 91115 91209;
0145066730999992010011119004+47217+008683FM-12+046399999V0209999C000019999999N9999999N1-00391-00501101961ADDAA101000591MA1999999095901MD1210101+9999OA149900211REMSYN082AAXX  11194 06673 23/// /0000 11039 21050 39590 40196 52010 333 69955 91104 91202;
0145066730999992010011120004+47217+008683FM-12+046399999V0201801N000519999999N9999999N1-00351-00501101961ADDAA101000021MA1999999095911MD1210071+9999OA149900151REMSYN082AAXX  11204 06673 23/// /1801 11035 21050 39591 40196 52007 333 69925 91103 91201;
0128066730999992010011121004+47217+008683FM-12+046399999V0202201N000519999999N9999999N1-00361-00531101951ADDMA1999999095901MD1210021+9999OA149900671REMSYN076AAXX  11214 06673 33/// /2201 11036 21053 39590 40195 52002 333 91113 91207;
0128066730999992010011122004+47217+008683FM-12+046399999V0201401N000519999999N9999999N1-00331-00451101961ADDMA1999999095911MD1210011+9999OA149900151REMSYN076AAXX  11224 06673 33/// /1401 11033 21045 39591 40196 52001 333 91103 91202;
0128066730999992010011123004+47217+008683FM-12+046399999V0202301N001019999999N9999999N1-00351-00481101991ADDMA1999999095941MD1210031+9999OA149900151REMSYN076AAXX  11234 06673 33/// /2302 11035 21048 39594 40199 52003 333 91103 91202;
0151066730999992010011200004+47217+008683FM-12+046399999V0209999C000019999999N9999999N1-00341-00441101981ADDAA106000891MA1999999095931MD1210031+9999OA149900771REMSYN088AAXX  12004 06673 03/// /0000 11034 21044 39593 40198 52003 69971 333 60005 91115 91209;
0147066730999992010011201004+47217+008683FM-12+046399999V0202201N000519999999N9999999N1-00331-00461101961ADDMA1999999095911MD1410001+9999OA149900101REMSYN076AAXX  12014 06673 33/// /2201 11033 21046 39591 40196 58000 333 91102 91202;EQDQ01+000082APCTEN
0128066730999992010011202004+47217+008683FM-12+046399999V0202001N000519999999N9999999N1-00331-00451101961ADDMA1999999095911MD1719999+9999OA149900101REMSYN076AAXX  12024 06673 33/// /2001 11033 21045 39591 40196 57/// 333 91102 91201;
0128066730999992010011203004+47217+008683FM-12+046399999V0202201N000519999999N9999999N1-00301-00461101951ADDMA1999999095911MD1710021+9999OA149900151REMSYN076AAXX  12034 06673 33/// /2201 11030 21046 39591 40195 57002 333 91103 91202;
0128066730999992010011204004+47217+008683FM-12+046399999V0201901N001019999999N9999999N1-00301-00471101931ADDMA1999999095891MD1710021+9999OA149900151REMSYN076AAXX  12044 06673 33/// /1902 11030 21047 39589 40193 57002 333 91103 91202;
0128066730999992010011205004+47217+008683FM-12+046399999V0201701N001019999999N9999999N1-00321-00481101901ADDMA1999999095861MD1710051+9999OA149900151REMSYN076AAXX  12054 06673 33/// /1702 11032 21048 39586 40190 57005 333 91103 91202;
0229066730999992010011206004+47217+008683FM-12+046399999V0201801N001019999999N9999999N1-00271-00441101871ADDAA112000891AA224000891AL14200091GJ100309IA2999-00409KA1999N-00401MA1999999095841MD1710071+9999OA149900151REMSYN112AAXX  12064 06673 03/// /1802 11027 21044 39584 40187 57007 69972 333 21040 3/104 55005 60005 70007 91103 91202;
0128066730999992010011207004+47217+008683FM-12+046399999V0200701N001519999999N9999999N1-00271-00471101821ADDMA1999999095801MD1710091+9999OA149900261REMSYN076AAXX  12074 06673 33/// /0703 11027 21047 39580 40182 57009 333 91105 91203;
0128066730999992010011208004+47217+008683FM-12+046399999V0201201N000519999999N9999999N1-00271-00451101761ADDMA1999999095741MD1719999+9999OA149900261REMSYN076AAXX  12084 06673 33/// /1201 11027 21045 39574 40176 57/// 333 91105 91203;
0128066730999992010011209004+47217+008683FM-12+046399999V0200801N001019999999N9999999N1-00261-00521101711ADDMA1999999095691MD1610151+9999OA149900261REMSYN076AAXX  12094 06673 33/// /0802 11026 21052 39569 40171 56015 333 91105 91203;
0128066730999992010011210004+47217+008683FM-12+046399999V0209999C000019999999N9999999N1-00231-00541101621ADDMA1999999095621MD1810181+9999OA149900261REMSYN076AAXX  12104 06673 33/// /0000 11023 21054 39562 40162 58018 333 91105 91203;
0128066730999992010011211004+47217+008683FM-12+046399999V0200901N000519999999N9999999N1-00211-00511101511ADDMA1999999095521MD1810221+9999OA149900261REMSYN076AAXX  12114 06673 33/// /0901 11021 21051 39552 40151 58022 333 91105 91203;
0128066730999992010011212004+47217+008683FM-12+046399999V0200401N000519999999N9999999N1-00221-00501101441ADDMA1999999095451MD1710241+9999OA149900261REMSYN076AAXX  12124 06673 33/// /0401 11022 21050 39545 40144 57024 333 91105 91203;
0128066730999992010011213004+47217+008683FM-12+046399999V0202901N000519999999N9999999N1-00181-00531101371ADDMA1999999095391MD1610231+9999OA149900261REMSYN076AAXX  12134 06673 33/// /2901 11018 21053 39539 40137 56023 333 91105 91203;
0087066730999992010011214004+47217+008683FM-12+046399999V0209999C000019999999N9999999N1-00181-00551101301ADDMA1999999095331REMSYN060AAXX  12144 06673 33/// /0000 11018 21055 39533 40130 5////;
0128066730999992010011215004+47217+008683FM-12+046399999V0201101N001019999999N9999999N1-00181-00511101211ADDMA1999999095241MD1810211+9999OA149900261REMSYN076AAXX  12154 06673 33/// /1102 11018 21051 39524 40121 58021 333 91105 91203;
0128066730999992010011216004+47217+008683FM-12+046399999V0201101N000519999999N9999999N1-00191-00491101131ADDMA1999999095161MD1710231+9999OA149900261REMSYN076AAXX  12164 06673 33/// /1101 11019 21049 39516 40113 57023 333 91105 91203;
0128066730999992010011217004+47217+008683FM-12+046399999V0201601N001519999999N9999999N1-00201-00481101051ADDMA1999999095091MD1610241+9999OA149900261REMSYN076AAXX  12174 06673 33/// /1603 11020 21048 39509 40105 56024 333 91105 91203;
0147066730999992010011218004+47217+008683FM-12+046399999V0201801N001019999999N9999999N1-00211-00471101041ADDKA1120M-00151MA1999999095071MD1710171+9999OA149900311REMSYN082AAXX  12184 06673 33/// /1802 11021 21047 39507 40104 57017 333 11015 91106 91204;
0128066730999992010011219004+47217+008683FM-12+046399999V0201501N001019999999N9999999N1-00241-00501101011ADDMA1999999095041MD1710121+9999OA149900311REMSYN076AAXX  12194 06673 33/// /1502 11024 21050 39504 40101 57012 333 91106 91205;
0128066730999992010011220004+47217+008683FM-12+046399999V0201701N000519999999N9999999N1-00271-00531100991ADDMA1999999095011MD1710081+9999OA149900361REMSYN076AAXX  12204 06673 33/// /1701 11027 21053 39501 40099 57008 333 91107 91205;
0128066730999992010011221004+47217+008683FM-12+046399999V0203101N000519999999N9999999N1-00281-00481100881ADDMA1999999094911MD1710161+9999OA149900361REMSYN076AAXX  12214 06673 33/// /3101 11028 21048 39491 40088 57016 333 91107 91205;
0128066730999992010011222004+47217+008683FM-12+046399999V0203201N001019999999N9999999N1-00261-00451100831ADDMA1999999094871MD1710171+9999OA149900261REMSYN076AAXX  12224 06673 33/// /3202 11026 21045 39487 40083 57017 333 91105 91202;
0128066730999992010011223004+47217+008683FM-12+046399999V0202601N001519999999N9999999N1-00331-00501100781ADDMA1999999094801MD1710211+9999OA149900261REMSYN076AAXX  12234 06673 33/// /2603 11033 21050 39480 40078 57021 333 91105 91203;
0128066730999992010011300004+47217+008683FM-12+046399999V0202601N003619999999N9999999N1-00281-00511100811ADDMA1999999094841MD1510071+9999OA149900571REMSYN076AAXX  13004 06673 33/// /2607 11028 21051 39484 40081 55007 333 91111 91207;
0128066730999992010011301004+47217+008683FM-12+046399999V0202701N004119999999N9999999N1-00241-00491100941ADDMA1999999094971MD1310101+9999OA149900771REMSYN076AAXX  13014 06673 33/// /2708 11024 21049 39497 40094 53010 333 91115 91209;
0128066730999992010011302004+47217+008683FM-12+046399999V0209999C000019999999N9999999N1-00281-00491100901ADDMA1999999094931MD1219999+9999OA149900881REMSYN076AAXX  13024 06673 33/// /0000 11028 21049 39493 40090 52/// 333 91117 91210;
0128066730999992010011303004+47217+008683FM-12+046399999V0201101N002119999999N9999999N1-00261-00451100751ADDMA1999999094791MD1819999+9999OA149900881REMSYN076AAXX  13034 06673 33/// /1104 11026 21045 39479 40075 58/// 333 91117 91210;
0128066730999992010011304004+47217+008683FM-12+046399999V0202301N000519999999N9999999N1-00241-00431100701ADDMA1999999094751MD1710221+9999OA149900511REMSYN076AAXX  13044 06673 33/// /2301 11024 21043 39475 40070 57022 333 91110 91204;
0128066730999992010011305004+47217+008683FM-12+046399999V0202501N002619999999N9999999N1-00251-00431100681ADDMA1999999094731MD1710201+9999OA149900411REMSYN076AAXX  13054 06673 33/// /2505 11025 21043 39473 40068 57020 333 91108 91205;
0225066730999992010011306004+47217+008683FM-12+046399999V0202301N001519999999N9999999N1-00241-00461100711ADDAA124000091AL19900091GJ100009IA2999-00609KA1999N-00341MA1999999094761MD1510031+9999OA149900881REMSYN100AAXX  13064 06673 33/// /2303 11024 21046 39476 40071 55003 333 21034 3/106 55000 70000 91117 91210;EQDQ01  00002PRCP24
0128066730999992010011307004+47217+008683FM-12+046399999V0202401N001519999999N9999999N1-00201-00441100761ADDMA1999999094811MD1210061+9999OA149900311REMSYN076AAXX  13074 06673 33/// /2403 11020 21044 39481 40076 52006 333 91106 91203;
0128066730999992010011308004+47217+008683FM-12+046399999V0202701N001019999999N9999999N1-00191-00471100871ADDMA1999999094921MD1310191+9999OA149900621REMSYN076AAXX  13084 06673 33/// /2702 11019 21047 39492 40087 53019 333 91112 91208;
0128066730999992010011309004+47217+008683FM-12+046399999V0202101N001019999999N9999999N1-00151-00451100931ADDMA1999999094981MD1210221+9999OA149900621REMSYN076AAXX  13094 06673 33/// /2102 11015 21045 39498 40093 52022 333 91112 91208;
0128066730999992010011310004+47217+008683FM-12+046399999V0203101N001519999999N9999999N1-00121-00421100961ADDMA1999999095021MD1110211+9999OA149900211REMSYN076AAXX  13104 06673 33/// /3103 11012 21042 39502 40096 51021 333 91104 91203;
0128066730999992010011311004+47217+008683FM-12+046399999V0200901N001019999999N9999999N1-00091-00271100941ADDMA1999999095011MD1210091+9999OA149900211REMSYN076AAXX  13114 06673 33/// /0902 11009 21027 39501 40094 52009 333 91104 91203;
0128066730999992010011312004+47217+008683FM-12+046399999V0201001N001019999999N9999999N1-00081-00291100921ADDMA1999999094991MD1010011+9999OA149900881REMSYN076AAXX  13124 06673 33/// /1002 11008 21029 39499 40092 50001 333 91117 91210;
0128066730999992010011313004+47217+008683FM-12+046399999V0200901N001019999999N9999999N1-00031-00251100911ADDMA1999999094991MD1710031+9999OA149900261REMSYN076AAXX  13134 06673 33/// /0902 11003 21025 39499 40091 57003 333 91105 91203;
0145066730999992010011314004+47217+008683FM-12+046399999V0200801N001019999999N9999999N1-00031-00141100941ADDAA101000021MA1999999095021MD1519999+9999OA149900211REMSYN082AAXX  13144 06673 23/// /0802 11003 21014 39502 40094 55/// 333 69925 91104 91203;
0145066730999992010011315004+47217+008683FM-12+046399999V0201001N000519999999N9999999N1-00031-00091100971ADDAA101000391MA1999999095051MD1210061+9999OA149900261REMSYN082AAXX  13154 06673 23/// /1001 11003 21009 39505 40097 52006 333 69935 91105 91203;
0145066730999992010011316004+47217+008683FM-12+046399999V0209999C000019999999N9999999N1-00031-00091101021ADDAA101000891MA1999999095091MD1110101+9999OA149900151REMSYN082AAXX  13164 06673 23/// /0000 11003 21009 39509 40102 51010 333 69985 91103 91202;
0145066730999992010011317004+47217+008683FM-12+046399999V0209999C000019999999N9999999N1+00001-00081101051ADDAA101000591MA1999999095131MD1310111+9999OA149900101REMSYN082AAXX  13174 06673 23/// /0000 10000 21008 39513 40105 53011 333 69965 91102 91201;
0170066730999992010011318004+47217+008683FM-12+046399999V0201601N000519999999N9999999N1+00021-00051101101ADDAA112002091KA1120M+00001MA1999999095181MD1210131+9999OA149900621REMSYN094AAXX  13184 06673 03/// /1601 10002 21005 39518 40110 52013 60022 333 10000 69935 91112 91208;
0145066730999992010011319004+47217+008683FM-12+046399999V0200901N000519999999N9999999N1+00021-00021101121ADDAA101000591MA1999999095201MD1110111+9999OA149900101REMSYN082AAXX  13194 06673 23/// /0901 10002 21002 39520 40112 51011 333 69955 91102 91201;
0145066730999992010011320004+47217+008683FM-12+046399999V0201501N000519999999N9999999N1+00021-00021101141ADDAA101000391MA1999999095221MD1110091+9999OA149900101REMSYN082AAXX  13204 06673 23/// /1501 10002 21002 39522 40114 51009 333 69935 91102 91201;
0145066730999992010011321004+47217+008683FM-12+046399999V0201401N000519999999N9999999N1+00031-00011101141ADDAA101000391MA1999999095221MD1110041+9999OA149900101REMSYN082AAXX  13214 06673 23/// /1401 10003 21001 39522 40114 51004 333 69935 91102 91201;
0128066730999992010011322004+47217+008683FM-12+046399999V0201701N000519999999N9999999N1+00071-00021101121ADDMA1999999095211MD1010011+9999OA149900101REMSYN076AAXX  13224 06673 33/// /1701 10007 21002 39521 40112 50001 333 91102 91201;
0128066730999992010011323004+47217+008683FM-12+046399999V0209999C000019999999N9999999N1+00071-00011101071ADDMA1999999095161MD1810061+9999OA149900151REMSYN076AAXX  13234 06673 33/// /0000 10007 21001 39516 40107 58006 333 91103 91202;
0151066730999992010011400004+47217+008683FM-12+046399999V0209999C000019999999N9999999N1+00061+00001100991ADDAA106001091MA1999999095091MD1810131+9999OA149900211REMSYN088AAXX  14004 06673 03/// /0000 10006 20000 39509 40099 58013 60011 333 60005 91104 91203;
0128066730999992010011401004+47217+008683FM-12+046399999V0201901N000519999999N9999999N1+00051-00011100961ADDMA1999999095061MD1610151+9999OA149900101REMSYN076AAXX  14014 06673 33/// /1901 10005 21001 39506 40096 56015 333 91102 91201;
0128066730999992010011402004+47217+008683FM-12+046399999V0201701N001019999999N9999999N1+00011-00011100921ADDMA1999999095011MD1619999+9999OA149900151REMSYN076AAXX  14024 06673 33/// /1702 10001 21001 39501 40092 56/// 333 91103 91202;
0087066730999992010011403004+47217+008683FM-12+046399999V0203001N000519999999N9999999N1+00031+00011100901ADDMA1999999094991REMSYN060AAXX  14034 06673 33/// /3001 10003 20001 39499 40090 5////;
0128066730999992010011404004+47217+008683FM-12+046399999V0202501N002619999999N9999999N1+00031-00021100881ADDMA1999999094981MD1710081+9999OA149900361REMSYN076AAXX  14044 06673 33/// /2505 10003 21002 39498 40088 57008 333 91107 91205;
0128066730999992010011405004+47217+008683FM-12+046399999V0202301N003119999999N9999999N1-00021-00101100901ADDMA1999999094981MD1510031+9999OA149900411REMSYN076AAXX  14054 06673 33/// /2306 11002 21010 39498 40090 55003 333 91108 91207;
0229066730999992010011406004+47217+008683FM-12+046399999V0201801N001519999999N9999999N1+00011-00111100851ADDAA112001091AA224003391AL11800391GJ100009IA2999-00109KA1999N-00021MA1999999094941MD1710051+9999OA149900411REMSYN112AAXX  14064 06673 03/// /1803 10001 21011 39494 40085 57005 60012 333 21002 3/101 55000 60005 70033 91108 91207;
0128066730999992010011407004+47217+008683FM-12+046399999V0200901N001019999999N9999999N1+00021-00051100811ADDMA1999999094911MD1710071+9999OA149900361REMSYN076AAXX  14074 06673 33/// /0902 10002 21005 39491 40081 57007 333 91107 91205;
0128066730999992010011408004+47217+008683FM-12+046399999V0202601N000519999999N9999999N1-00031-00181100811ADDMA1999999094901MD1719999+9999OA149900261REMSYN076AAXX  14084 06673 33/// /2601 11003 21018 39490 40081 57/// 333 91105 91203;
0128066730999992010011409004+47217+008683FM-12+046399999V0201601N001519999999N9999999N1+00001-00191100811ADDMA1999999094901MD1710041+9999OA149900411REMSYN076AAXX  14094 06673 33/// /1603 10000 21019 39490 40081 57004 333 91108 91207;
0128066730999992010011410004+47217+008683FM-12+046399999V0201501N000519999999N9999999N1+00061-00161100781ADDMA1999999094891MD1710021+9999OA149900261REMSYN076AAXX  14104 06673 33/// /1501 10006 21016 39489 40078 57002 333 91105 91203;
0128066730999992010011411004+47217+008683FM-12+046399999V0201401N000519999999N9999999N1+00061-00141100721ADDMA1999999094831MD1710071+9999OA149900261REMSYN076AAXX  14114 06673 33/// /1401 10006 21014 39483 40072 57007 333 91105 91203;
0128066730999992010011412004+47217+008683FM-12+046399999V0201601N001019999999N9999999N1+00131-00101100651ADDMA1999999094781MD1810121+9999OA149900411REMSYN076AAXX  14124 06673 33/// /1602 10013 21010 39478 40065 58012 333 91108 91207;
0128066730999992010011413004+47217+008683FM-12+046399999V0202201N000519999999N9999999N1+00131-00081100621ADDMA1999999094751MD1610141+9999OA149900261REMSYN076AAXX  14134 06673 33/// /2201 10013 21008 39475 40062 56014 333 91105 91203;
0128066730999992010011414004+47217+008683FM-12+046399999V0203301N001019999999N9999999N1+00171-00071100641ADDMA1999999094781MD1510051+9999OA149900261REMSYN076AAXX  14144 06673 33/// /3302 10017 21007 39478 40064 55005 333 91105 91202;
0128066730999992010011415004+47217+008683FM-12+046399999V0202701N002119999999N9999999N1+00191-00041100681ADDMA1999999094821MD1310041+9999OA149900311REMSYN076AAXX  14154 06673 33/// /2704 10019 21004 39482 40068 53004 333 91106 91204;
0128066730999992010011416004+47217+008683FM-12+046399999V0201901N001019999999N9999999N1+00151-00041100721ADDMA1999999094851MD1310101+9999OA149900311REMSYN076AAXX  14164 06673 33/// /1902 10015 21004 39485 40072 53010 333 91106 91204;
0128066730999992010011417004+47217+008683FM-12+046399999V0200201N002119999999N9999999N1+00131-00051100781ADDMA1999999094901MD1310121+9999OA149900361REMSYN076AAXX  14174 06673 33/// /0204 10013 21005 39490 40078 53012 333 91107 91204;
0147066730999992010011418004+47217+008683FM-12+046399999V0200601N002119999999N9999999N1+00131-00031100841ADDKA1120M+00191MA1999999094961MD1310141+9999OA149900361REMSYN082AAXX  14184 06673 33/// /0604 10013 21003 39496 40084 53014 333 10019 91107 91204;
0128066730999992010011419004+47217+008683FM-12+046399999V0200601N001019999999N9999999N1+00131-00061100931ADDMA1999999095041MD1310191+9999OA149900361REMSYN076AAXX  14194 06673 33/// /0602 10013 21006 39504 40093 53019 333 91107 91204;
0128066730999992010011420004+47217+008683FM-12+046399999V0201801N002119999999N9999999N1+00111-00101101001ADDMA1999999095111MD1310211+9999OA149900361REMSYN076AAXX  14204 06673 33/// /1804 10011 21010 39511 40100 53021 333 91107 91204;
0128066730999992010011421004+47217+008683FM-12+046399999V0202201N002119999999N9999999N1+00111-00121101091ADDMA1999999095191MD1210231+9999OA149900361REMSYN076AAXX  14214 06673 33/// /2204 10011 21012 39519 40109 52023 333 91107 91204;
0128066730999992010011422004+47217+008683FM-12+046399999V0202801N001519999999N9999999N1+00121-00111101191ADDMA1999999095291MD1310251+9999OA149900361REMSYN076AAXX  14224 06673 33/// /2803 10012 21011 39529 40119 53025 333 91107 91205;
0128066730999992010011423004+47217+008683FM-12+046399999V0202501N001519999999N9999999N1+00101-00131101291ADDMA1999999095381MD1210271+9999OA149900361REMSYN076AAXX  14234 06673 33/// /2503 10010 21013 39538 40129 52027 333 91107 91205;
0128066730999992010011500004+47217+008683FM-12+046399999V0203401N000519999999N9999999N1+00071-00071101371ADDMA1999999095451MD1110261+9999OA149900361REMSYN076AAXX  15004 06673 33/// /3401 10007 21007 39545 40137 51026 333 91107 91205;
0128066730999992010011501004+47217+008683FM-12+046399999V0209999C000019999999N9999999N1+00061-00071101441ADDMA1999999095511MD1110221+9999OA149900151REMSYN076AAXX  15014 06673 33/// /0000 10006 21007 39551 40144 51022 333 91103 91202;
0128066730999992010011502004+47217+008683FM-12+046399999V0201801N001519999999N9999999N1+00031-00201101541ADDMA1999999095601MD1310221+9999OA149900261REMSYN076AAXX  15024 06673 33/// /1803 10003 21020 39560 40154 53022 333 91105 91203;
0087066730999992010011503004+47217+008683FM-12+046399999V0201801N002619999999N9999999N1+00041-00201101631ADDMA1999999095681REMSYN060AAXX  15034 06673 33/// /1805 10004 21020 39568 40163 5////;
0128066730999992010011504004+47217+008683FM-12+046399999V0202101N001519999999N9999999N1+00081-00201101701ADDMA1999999095761MD1210251+9999OA149900361REMSYN076AAXX  15044 06673 33/// /2103 10008 21020 39576 40170 52025 333 91107 91205;
0128066730999992010011505004+47217+008683FM-12+046399999V0202301N001519999999N9999999N1+00071-00211101801ADDMA1999999095851MD1310251+9999OA149900311REMSYN076AAXX  15054 06673 33/// /2303 10007 21021 39585 40180 53025 333 91106 91204;
0225066730999992010011506004+47217+008683FM-12+046399999V0203001N000519999999N9999999N1+00031-00191101931ADDAA124000091AL19900091GJ100249IA2999+00009KA1999N+00031MA1999999095961MD1210281+9999OA149900361REMSYN100AAXX  15064 06673 33/// /3001 10003 21019 39596 40193 52028 333 20003 3/100 55004 70000 91107 91205;EQDQ01  00002PRCP24
0128066730999992010011507004+47217+008683FM-12+046399999V0202101N001019999999N9999999N1+00041-00251102031ADDMA1999999096061MD1310301+9999OA149900261REMSYN076AAXX  15074 06673 33/// /2102 10004 21025 39606 40203 53030 333 91105 91203;
0128066730999992010011508004+47217+008683FM-12+046399999V0202401N001019999999N9999999N1+00051-00221102111ADDMA1999999096141MD1219999+9999OA149900261REMSYN076AAXX  15084 06673 33/// /2402 10005 21022 39614 40211 52/// 333 91105 91203;
0128066730999992010011509004+47217+008683FM-12+046399999V0202201N001519999999N9999999N1+00081-00251102201ADDMA1999999096231MD1210271+9999OA149900311REMSYN076AAXX  15094 06673 33/// /2203 10008 21025 39623 40220 52027 333 91106 91204;
0128066730999992010011510004+47217+008683FM-12+046399999V0202101N001019999999N9999999N1+00071-00221102271ADDMA1999999096291MD1110231+9999OA149900311REMSYN076AAXX  15104 06673 33/// /2102 10007 21022 39629 40227 51023 333 91106 91204;
0128066730999992010011511004+47217+008683FM-12+046399999V0201801N001019999999N9999999N1+00091-00231102291ADDMA1999999096321MD1110181+9999OA149900311REMSYN076AAXX  15114 06673 33/// /1802 10009 21023 39632 40229 51018 333 91106 91204;
0128066730999992010011512004+47217+008683FM-12+046399999V0201601N001519999999N9999999N1+00101-00211102311ADDMA1999999096341MD1110111+9999OA149900361REMSYN076AAXX  15124 06673 33/// /1603 10010 21021 39634 40231 51011 333 91107 91205;
0128066730999992010011513004+47217+008683FM-12+046399999V0201501N001019999999N9999999N1+00111-00181102371ADDMA1999999096401MD1310111+9999OA149900261REMSYN076AAXX  15134 06673 33/// /1502 10011 21018 39640 40237 53011 333 91105 91203;
0128066730999992010011514004+47217+008683FM-12+046399999V0202101N001019999999N9999999N1+00141-00141102421ADDMA1999999096451MD1310131+9999OA149900261REMSYN076AAXX  15144 06673 33/// /2102 10014 21014 39645 40242 53013 333 91105 91203;
0128066730999992010011515004+47217+008683FM-12+046399999V0201801N001519999999N9999999N1+00131-00131102491ADDMA1999999096511MD1310171+9999OA149900361REMSYN076AAXX  15154 06673 33/// /1803 10013 21013 39651 40249 53017 333 91107 91205;
0128066730999992010011516004+47217+008683FM-12+046399999V0202101N002119999999N9999999N1+00121-00141102551ADDMA1999999096571MD1310171+9999OA149900361REMSYN076AAXX  15164 06673 33/// /2104 10012 21014 39657 40255 53017 333 91107 91205;
0128066730999992010011517004+47217+008683FM-12+046399999V0202201N001519999999N9999999N1+00091-00141102621ADDMA1999999096631MD1110181+9999OA149900311REMSYN076AAXX  15174 06673 33/// /2203 10009 21014 39663 40262 51018 333 91106 91204;
0147066730999992010011518004+47217+008683FM-12+046399999V0201701N001519999999N9999999N1+00071-00151102661ADDKA1120M+00151MA1999999096661MD1310151+9999OA149900361REMSYN082AAXX  15184 06673 33/// /1703 10007 21015 39666 40266 53015 333 10015 91107 91205;
0128066730999992010011519004+47217+008683FM-12+046399999V0201701N002119999999N9999999N1+00041-00211102681ADDMA1999999096671MD1110101+9999OA149900361REMSYN076AAXX  15194 06673 33/// /1704 10004 21021 39667 40268 51010 333 91107 91204;
0128066730999992010011520004+47217+008683FM-12+046399999V0201601N001519999999N9999999N1+00011-00241102681ADDMA1999999096671MD1210041+9999OA149900361REMSYN076AAXX  15204 06673 33/// /1603 10001 21024 39667 40268 52004 333 91107 91204;
0128066730999992010011521004+47217+008683FM-12+046399999V0201701N000519999999N9999999N1+00001-00231102701ADDMA1999999096681MD1210021+9999OA149900361REMSYN076AAXX  15214 06673 33/// /1701 10000 21023 39668 40270 52002 333 91107 91204;
0128066730999992010011522004+47217+008683FM-12+046399999V0201701N001519999999N9999999N1-00041-00281102701ADDMA1999999096671MD1010001+9999OA149900261REMSYN076AAXX  15224 06673 33/// /1703 11004 21028 39667 40270 50000 333 91105 91204;
0128066730999992010011523004+47217+008683FM-12+046399999V0202201N001019999999N9999999N1-00051-00321102701ADDMA1999999096671MD1510001+9999OA149900311REMSYN076AAXX  15234 06673 33/// /2202 11005 21032 39667 40270 55000 333 91106 91204;
0128066730999992010011600004+47217+008683FM-12+046399999V0202301N001019999999N9999999N1+00001-00251102691ADDMA1999999096671MD1710011+9999OA149900361REMSYN076AAXX  16004 06673 33/// /2302 10000 21025 39667 40269 57001 333 91107 91205;
0128066730999992010011601004+47217+008683FM-12+046399999V0201901N000519999999N9999999N1-00041-00261102651ADDMA1999999096631MD1810041+9999OA149900211REMSYN076AAXX  16014 06673 33/// /1901 11004 21026 39663 40265 58004 333 91104 91202;
0128066730999992010011602004+47217+008683FM-12+046399999V0202101N003119999999N9999999N1-00081-00291102661ADDMA1999999096631MD1710041+9999OA149900461REMSYN076AAXX  16024 06673 33/// /2106 11008 21029 39663 40266 57004 333 91109 91206;
0128066730999992010011603004+47217+008683FM-12+046399999V0202301N002619999999N9999999N1-00091-00291102621ADDMA1999999096591MD1719999+9999OA149900511REMSYN076AAXX  16034 06673 33/// /2305 11009 21029 39659 40262 57/// 333 91110 91207;
0128066730999992010011604004+47217+008683FM-12+046399999V0201501N001519999999N9999999N1-00111-00311102571ADDMA1999999096541MD1710091+9999OA149900511REMSYN076AAXX  16044 06673 33/// /1503 11011 21031 39654 40257 57009 333 91110 91207;
0128066730999992010011605004+47217+008683FM-12+046399999V0201801N001519999999N9999999N1-00131-00311102561ADDMA1999999096521MD1710111+9999OA149900411REMSYN076AAXX  16054 06673 33/// /1803 11013 21031 39652 40256 57011 333 91108 91205;
0225066730999992010011606004+47217+008683FM-12+046399999V0202101N001019999999N9999999N1-00141-00351102511ADDAA124000091AL19900091GJ100009IA2999-00209KA1999N-00161MA1999999096471MD1710121+9999OA149900511REMSYN100AAXX  16064 06673 33/// /2102 11014 21035 39647 40251 57012 333 21016 3/102 55000 70000 91110 91207;EQDQ01  00002PRCP24
0128066730999992010011607004+47217+008683FM-12+046399999V0202301N002119999999N9999999N1-00181-00371102471ADDMA1999999096431MD1710111+9999OA149900411REMSYN076AAXX  16074 06673 33/// /2304 11018 21037 39643 40247 57011 333 91108 91205;
0128066730999992010011608004+47217+008683FM-12+046399999V0202101N001519999999N9999999N1-00181-00421102421ADDMA1999999096381MD1710141+9999OA149900311REMSYN076AAXX  16084 06673 33/// /2103 11018 21042 39638 40242 57014 333 91106 91204;
0128066730999992010011609004+47217+008683FM-12+046399999V0202201N002619999999N9999999N1-00201-00431102391ADDMA1999999096351MD1710121+9999OA149900411REMSYN076AAXX  16094 06673 33/// /2205 11020 21043 39635 40239 57012 333 91108 91205;
0128066730999992010011610004+47217+008683FM-12+046399999V0202301N001519999999N9999999N1-00181-00431102351ADDMA1999999096311MD1710121+9999OA149900361REMSYN076AAXX  16104 06673 33/// /2303 11018 21043 39631 40235 57012 333 91107 91205;
0128066730999992010011611004+47217+008683FM-12+046399999V0203001N001519999999N9999999N1-00111-00381102281ADDMA1999999096261MD1710121+9999OA149900361REMSYN076AAXX  16114 06673 33/// /3003 11011 21038 39626 40228 57012 333 91107 91204;
0128066730999992010011612004+47217+008683FM-12+046399999V0202901N003119999999N9999999N1-00121-00371102241ADDMA1999999096221MD1710131+9999OA149900511REMSYN076AAXX  16124 06673 33/// /2906 11012 21037 39622 40224 57013 333 91110 91207;
0128066730999992010011613004+47217+008683FM-12+046399999V0202901N002619999999N9999999N1-00101-00371102231ADDMA1999999096221MD1710091+9999OA149900571REMSYN076AAXX  16134 06673 33/// /2905 11010 21037 39622 40223 57009 333 91111 91207;
0128066730999992010011614004+47217+008683FM-12+046399999V0201001N000519999999N9999999N1-00091-00351102121ADDMA1999999096121MD1719999+9999OA149900571REMSYN076AAXX  16144 06673 33/// /1001 11009 21035 39612 40212 57/// 333 91111 91207;
0128066730999992010011615004+47217+008683FM-12+046399999V0201101N001019999999N9999999N1-00101-00341102061ADDMA1999999096061MD1710161+9999OA149900571REMSYN076AAXX  16154 06673 33/// /1102 11010 21034 39606 40206 57016 333 91111 91207;
0107066730999992010011616004+47217+008683FM-12+046399999V0201501N001019999999N9999999N1+99999+99999999999ADDMD1719999+9999OA149900261REMSYN070AAXX  16164 06673 43/// /1502 1//// 2//// 3//// 57/// 333 91105 91203;
0093066730999992010011617004+47217+008683FM-12+046399999V0202601N000519999999N9999999N1+99999+99999999999ADDOA149900261REMSYN070AAXX  16174 06673 43/// /2601 1//// 2//// 3//// 5//// 333 91105 91202;
0093066730999992010011618004+47217+008683FM-12+046399999V0200501N000519999999N9999999N1+99999+99999999999ADDOA149900571REMSYN070AAXX  16184 06673 43/// /0501 1//// 2//// 3//// 5//// 333 91111 91207;
0093066730999992010011619004+47217+008683FM-12+046399999V0201401N001519999999N9999999N1+99999+99999999999ADDOA149900311REMSYN070AAXX  16194 06673 43/// /1403 1//// 2//// 3//// 5//// 333 91106 91203;
0093066730999992010011620004+47217+008683FM-12+046399999V0202501N000519999999N9999999N1+99999+99999999999ADDOA149900311REMSYN070AAXX  16204 06673 43/// /2501 1//// 2//// 3//// 5//// 333 91106 91203;
0093066730999992010011621004+47217+008683FM-12+046399999V0202701N001019999999N9999999N1+99999+99999999999ADDOA149900311REMSYN070AAXX  16214 06673 43/// /2702 1//// 2//// 3//// 5//// 333 91106 91203;
0093066730999992010011622004+47217+008683FM-12+046399999V0201901N000519999999N9999999N1+99999+99999999999ADDOA149900261REMSYN070AAXX  16224 06673 43/// /1901 1//// 2//// 3//// 5//// 333 91105 91203;
0093066730999992010011623004+47217+008683FM-12+046399999V0201201N000519999999N9999999N1+99999+99999999999ADDOA149900511REMSYN070AAXX  16234 06673 43/// /1201 1//// 2//// 3//// 5//// 333 91110 91206;
0093066730999992010011700004+47217+008683FM-12+046399999V0201401N001519999999N9999999N1+99999+99999999999ADDOA149900571REMSYN070AAXX  17004 06673 43/// /1403 1//// 2//// 3//// 5//// 333 91111 91207;
0093066730999992010011701004+47217+008683FM-12+046399999V0201101N001519999999N9999999N1+99999+99999999999ADDOA149900511REMSYN070AAXX  17014 06673 43/// /1103 1//// 2//// 3//// 5//// 333 91110 91205;
0093066730999992010011702004+47217+008683FM-12+046399999V0201301N000519999999N9999999N1+99999+99999999999ADDOA149900511REMSYN070AAXX  17024 06673 43/// /1301 1//// 2//// 3//// 5//// 333 91110 91205;
0063066730999992010011703004+47217+008683FM-12+046399999V0201601N000519999999N9999999N1+99999+99999999999REMSYN054AAXX  17034 06673 43/// /1601 1//// 2//// 3//// 5////;
0093066730999992010011704004+47217+008683FM-12+046399999V0201901N002119999999N9999999N1+99999+99999999999ADDOA149900621REMSYN070AAXX  17044 06673 43/// /1904 1//// 2//// 3//// 5//// 333 91112 91207;
0093066730999992010011705004+47217+008683FM-12+046399999V0201601N003119999999N9999999N1+99999+99999999999ADDOA149900621REMSYN070AAXX  17054 06673 43/// /1606 1//// 2//// 3//// 5//// 333 91112 91207;
0107066730999992010011706004+47217+008683FM-12+046399999V0201101N002119999999N9999999N1+99999+99999999999ADDGJ100009OA149900621REMSYN076AAXX  17064 06673 43/// /1104 1//// 2//// 3//// 5//// 333 55000 91112 91207;
0093066730999992010011707004+47217+008683FM-12+046399999V0202301N000519999999N9999999N1+99999+99999999999ADDOA149900461REMSYN070AAXX  17074 06673 43/// /2301 1//// 2//// 3//// 5//// 333 91109 91205;
0093066730999992010011708004+47217+008683FM-12+046399999V0201101N001519999999N9999999N1+99999+99999999999ADDOA149900411REMSYN070AAXX  17084 06673 43/// /1103 1//// 2//// 3//// 5//// 333 91108 91205;
0093066730999992010011709004+47217+008683FM-12+046399999V0202701N002619999999N9999999N1+99999+99999999999ADDOA149900821REMSYN070AAXX  17094 06673 43/// /2705 1//// 2//// 3//// 5//// 333 91116 91211;
0093066730999992010011710004+47217+008683FM-12+046399999V0203101N001519999999N9999999N1+99999+99999999999ADDOA149900821REMSYN070AAXX  17104 06673 43/// /3103 1//// 2//// 3//// 5//// 333 91116 91211;
0093066730999992010011711004+47217+008683FM-12+046399999V0202501N004619999999N9999999N1+99999+99999999999ADDOA149900931REMSYN070AAXX  17114 06673 43/// /2509 1//// 2//// 3//// 5//// 333 91118 91209;
0093066730999992010011712004+47217+008683FM-12+046399999V0202501N005119999999N9999999N1+99999+99999999999ADDOA149900931REMSYN070AAXX  17124 06673 43/// /2510 1//// 2//// 3//// 5//// 333 91118 91211;
0093066730999992010011713004+47217+008683FM-12+046399999V0202801N003119999999N9999999N1+99999+99999999999ADDOA149900981REMSYN070AAXX  17134 06673 43/// /2806 1//// 2//// 3//// 5//// 333 91119 91210;
0093066730999992010011714004+47217+008683FM-12+046399999V0202601N003119999999N9999999N1+99999+99999999999ADDOA149901131REMSYN070AAXX  17144 06673 43/// /2606 1//// 2//// 3//// 5//// 333 91122 91210;
0093066730999992010011715004+47217+008683FM-12+046399999V0202801N001519999999N9999999N1+99999+99999999999ADDOA149901131REMSYN070AAXX  17154 06673 43/// /2803 1//// 2//// 3//// 5//// 333 91122 91210;
0093066730999992010011716004+47217+008683FM-12+046399999V0202601N003619999999N9999999N1+99999+99999999999ADDOA149900821REMSYN070AAXX  17164 06673 43/// /2607 1//// 2//// 3//// 5//// 333 91116 91207;
0093066730999992010011717004+47217+008683FM-12+046399999V0202501N002619999999N9999999N1+99999+99999999999ADDOA149900821REMSYN070AAXX  17174 06673 43/// /2505 1//// 2//// 3//// 5//// 333 91116 91208;
0093066730999992010011718004+47217+008683FM-12+046399999V0202401N003619999999N9999999N1+99999+99999999999ADDOA149901131REMSYN070AAXX  17184 06673 43/// /2407 1//// 2//// 3//// 5//// 333 91122 91211;
0093066730999992010011719004+47217+008683FM-12+046399999V0202501N003619999999N9999999N1+99999+99999999999ADDOA149900721REMSYN070AAXX  17194 06673 43/// /2507 1//// 2//// 3//// 5//// 333 91114 91209;
0093066730999992010011720004+47217+008683FM-12+046399999V0202501N004119999999N9999999N1+99999+99999999999ADDOA149900721REMSYN070AAXX  17204 06673 43/// /2508 1//// 2//// 3//// 5//// 333 91114 91209;
0093066730999992010011721004+47217+008683FM-12+046399999V0202501N002119999999N9999999N1+99999+99999999999ADDOA149900821REMSYN070AAXX  17214 06673 43/// /2504 1//// 2//// 3//// 5//// 333 91116 91209;
0093066730999992010011722004+47217+008683FM-12+046399999V0202701N001519999999N9999999N1+99999+99999999999ADDOA149900461REMSYN070AAXX  17224 06673 43/// /2703 1//// 2//// 3//// 5//// 333 91109 91205;
0093066730999992010011723004+47217+008683FM-12+046399999V0201501N001019999999N9999999N1+99999+99999999999ADDOA149900311REMSYN070AAXX  17234 06673 43/// /1502 1//// 2//// 3//// 5//// 333 91106 91205;
0093066730999992010011800004+47217+008683FM-12+046399999V0201901N001519999999N9999999N1+99999+99999999999ADDOA149901131REMSYN070AAXX  18004 06673 43/// /1903 1//// 2//// 3//// 5//// 333 91122 91210;
0093066730999992010011801004+47217+008683FM-12+046399999V0202101N001019999999N9999999N1+99999+99999999999ADDOA149900311REMSYN070AAXX  18014 06673 43/// /2102 1//// 2//// 3//// 5//// 333 91106 91204;
0063066730999992010011802004+47217+008683FM-12+046399999V0209999C000019999999N9999999N1+99999+99999999999REMSYN054AAXX  18024 06673 43/// /0000 1//// 2//// 3//// 5////;
0063066730999992010011803004+47217+008683FM-12+046399999V0202601N002619999999N9999999N1+99999+99999999999REMSYN054AAXX  18034 06673 43/// /2605 1//// 2//// 3//// 5////;
0093066730999992010011804004+47217+008683FM-12+046399999V0202201N002619999999N9999999N1+99999+99999999999ADDOA149900411REMSYN070AAXX  18044 06673 43/// /2205 1//// 2//// 3//// 5//// 333 91108 91205;
0093066730999992010011805004+47217+008683FM-12+046399999V0201701N001019999999N9999999N1+99999+99999999999ADDOA149900411REMSYN070AAXX  18054 06673 43/// /1702 1//// 2//// 3//// 5//// 333 91108 91205;
0107066730999992010011806004+47217+008683FM-12+046399999V0201701N002119999999N9999999N1+99999+99999999999ADDGJ100729OA149900721REMSYN076AAXX  18064 06673 43/// /1704 1//// 2//// 3//// 5//// 333 55012 91114 91209;
0093066730999992010011807004+47217+008683FM-12+046399999V0209999C001019999999N9999999N1+99999+99999999999ADDOA149900461REMSYN070AAXX  18074 06673 43/// /0002 1//// 2//// 3//// 5//// 333 91109 91207;
0093066730999992010011808004+47217+008683FM-12+046399999V0209999C000019999999N9999999N1+99999+99999999999ADDOA149900461REMSYN070AAXX  18084 06673 43/// /0000 1//// 2//// 3//// 5//// 333 91109 91207;
0093066730999992010011809004+47217+008683FM-12+046399999V0201901N001019999999N9999999N1+99999+99999999999ADDOA149900461REMSYN070AAXX  18094 06673 43/// /1902 1//// 2//// 3//// 5//// 333 91109 91207;
0128066730999992010011810004+47217+008683FM-12+046399999V0200801N001019999999N9999999N1+00351+00101102891ADDMA1999999096941MD1219999+9999OA149900261REMSYN076AAXX  18104 06673 33/// /0802 10035 20010 39694 40289 52/// 333 91105 91204;
0128066730999992010011811004+47217+008683FM-12+046399999V0202501N000519999999N9999999N1+00461+00011102841ADDMA1999999096911MD1010001+9999OA149900261REMSYN076AAXX  18114 06673 33/// /2501 10046 20001 39691 40284 50000 333 91105 91204;
0128066730999992010011812004+47217+008683FM-12+046399999V0200801N001019999999N9999999N1+00441+00061102781ADDMA1999999096851MD1810091+9999OA149900461REMSYN076AAXX  18124 06673 33/// /0802 10044 20006 39685 40278 58009 333 91109 91207;
0128066730999992010011813004+47217+008683FM-12+046399999V0200801N000519999999N9999999N1+00481-00071102681ADDMA1999999096771MD1710171+9999OA149900211REMSYN076AAXX  18134 06673 33/// /0801 10048 21007 39677 40268 57017 333 91104 91202;
0128066730999992010011814004+47217+008683FM-12+046399999V0200901N000519999999N9999999N1+00521-00101102651ADDMA1999999096751MD1619999+9999OA149900261REMSYN076AAXX  18144 06673 33/// /0901 10052 21010 39675 40265 56/// 333 91105 91202;
0128066730999992010011815004+47217+008683FM-12+046399999V0201001N000519999999N9999999N1+00491-00081102671ADDMA1999999096761MD1710091+9999OA149900261REMSYN076AAXX  18154 06673 33/// /1001 10049 21008 39676 40267 57009 333 91105 91204;
0128066730999992010011816004+47217+008683FM-12+046399999V0202401N001019999999N9999999N1+00301-00071102731ADDMA1999999096781MD1310011+9999OA149900151REMSYN076AAXX  18164 06673 33/// /2402 10030 21007 39678 40273 53001 333 91103 91202;
0128066730999992010011817004+47217+008683FM-12+046399999V0200601N001019999999N9999999N1+00251-00071102791ADDMA1999999096821MD1310071+9999OA149900261REMSYN076AAXX  18174 06673 33/// /0602 10025 21007 39682 40279 53007 333 91105 91203;
0147066730999992010011818004+47217+008683FM-12+046399999V0200701N000519999999N9999999N1+00341-00011102801ADDKA1120M+00521MA1999999096851MD1310091+9999OA149900461REMSYN082AAXX  18184 06673 33/// /0701 10034 21001 39685 40280 53009 333 10052 91109 91207;
0128066730999992010011819004+47217+008683FM-12+046399999V0209999C000019999999N9999999N1+00311+00011102801ADDMA1999999096841MD1210061+9999OA149900311REMSYN076AAXX  18194 06673 33/// /0000 10031 20001 39684 40280 52006 333 91106 91202;
0128066730999992010011820004+47217+008683FM-12+046399999V0201601N002119999999N9999999N1+00281-00111102791ADDMA1999999096831MD1010011+9999OA149900311REMSYN076AAXX  18204 06673 33/// /1604 10028 21011 39683 40279 50001 333 91106 91204;
0128066730999992010011821004+47217+008683FM-12+046399999V0201701N001019999999N9999999N1+00131-00201102791ADDMA1999999096801MD1710051+9999OA149900311REMSYN076AAXX  18214 06673 33/// /1702 10013 21020 39680 40279 57005 333 91106 91204;
0128066730999992010011822004+47217+008683FM-12+046399999V0201601N001519999999N9999999N1+00071-00231102781ADDMA1999999096771MD1710071+9999OA149900311REMSYN076AAXX  18224 06673 33/// /1603 10007 21023 39677 40278 57007 333 91106 91204;
0128066730999992010011823004+47217+008683FM-12+046399999V0201801N001019999999N9999999N1+00001-00321102771ADDMA1999999096751MD1710081+9999OA149900411REMSYN076AAXX  18234 06673 33/// /1802 10000 21032 39675 40277 57008 333 91108 91206;
0128066730999992010011900004+47217+008683FM-12+046399999V0202101N000519999999N9999999N1-00021-00331102731ADDMA1999999096711MD1710091+9999OA149900411REMSYN076AAXX  19004 06673 33/// /2101 11002 21033 39671 40273 57009 333 91108 91206;
