0149066820999992011101113004+46917+009183FM-12+096599999V0201201N000519999999N9999999N1+01761+00771999999ADDMA1999999091391MD1819999+9999ME1315759OA149900261REMSYN088AAXX  11134 06682 33/// /1201 10176 20077 39139 48575 58/// 333 55310 22030 91105 91203;
0112066820999992011101114004+46917+009183FM-12+096599999V0201701N001519999999N9999999N1+01791+00571999999ADDMA1999999091351ME1315729REMSYN076AAXX  11144 06682 33/// /1703 10179 20057 39135 48572 5//// 333 553// 21714;
0149066820999992011101115004+46917+009183FM-12+096599999V0202601N000519999999N9999999N1+01201+00661999999ADDMA1999999091341MD1619999+9999ME1315589OA149900511REMSYN088AAXX  11154 06682 33/// /2601 10120 20066 39134 48558 56/// 333 55309 21094 91110 91205;
0149066820999992011101116004+46917+009183FM-12+096599999V0201801N000519999999N9999999N1+01101+00561999999ADDMA1999999091351MD1719999+9999ME1315579OA149900211REMSYN088AAXX  11164 06682 33/// /1801 10110 20056 39135 48557 57/// 333 55300 20104 91104 91202;
0149066820999992011101117004+46917+009183FM-12+096599999V0201801N001519999999N9999999N1+01021+00371999999ADDMA1999999091361MD1319999+9999ME1315569OA149900411REMSYN088AAXX  11174 06682 33/// /1803 10102 20037 39136 48556 53/// 333 55300 20032 91108 91204;
0181066820999992011101118004+46917+009183FM-12+096599999V0201401N001512200019N0700001N1+00821+00321999999ADDGF101991999999999999999999IA1099KA1120M+01831MA1999999091401ME1315559REMSYN100AAXX  11184 06682 32/88 11403 10082 20032 39140 48555 5//// 333 10183 31/// 553// 20000 90766 93100;
0126066820999992011101119004+46917+009183FM-12+096599999V0201601N001019999999N9999999N1+00771+00361999999ADDMA1999999091411MD1219999+9999ME1315559REMSYN076AAXX  11194 06682 33/// /1602 10077 20036 39141 48555 52/// 333 553// 20000;
0112066820999992011101120004+46917+009183FM-12+096599999V0201601N002119999999N9999999N1+00831+00361999999ADDMA1999999091451ME1315609REMSYN076AAXX  11204 06682 33/// /1604 10083 20036 39145 48560 5//// 333 553// 20000;
0112066820999992011101121004+46917+009183FM-12+096599999V0201901N001519999999N9999999N1+00831+00371999999ADDMA1999999091411ME1315569REMSYN076AAXX  11214 06682 33/// /1903 10083 20037 39141 48556 5//// 333 553// 20000;
0149066820999992011101122004+46917+009183FM-12+096599999V0201501N000519999999N9999999N1+00671+00381999999ADDMA1999999091441MD1219999+9999ME1315559OA149900311REMSYN088AAXX  11224 06682 33/// /1501 10067 20038 39144 48555 52/// 333 55300 20000 91106 91203;
0149066820999992011101123004+46917+009183FM-12+096599999V0201501N001019999999N9999999N1+00651+00391999999ADDMA1999999091511MD1319999+9999ME1315619OA149900361REMSYN088AAXX  11234 06682 33/// /1502 10065 20039 39151 48561 53/// 333 55300 20000 91107 91202;
0149066820999992011101200004+46917+009183FM-12+096599999V0201301N000519999999N9999999N1+00651+00401999999ADDMA1999999091471MD1019999+9999ME1315589OA149900411REMSYN088AAXX  12004 06682 33/// /1301 10065 20040 39147 48558 50/// 333 55300 20000 91108 91204;
0176066820999992011101206004+46917+009183FM-12+096599999V0201501N001012200019N0700001N1+00341+00211999999ADDGF101991999999999999999999GJ103969IA1099MA1999999091351ME1315409REMSYN100AAXX  12064 06682 42/88 11502 10034 20021 39135 48540 5//// 333 31/// 55066 553// 20007 90768 93100;
0149066820999992011101207004+46917+009183FM-12+096599999V0201801N001519999999N9999999N1+00521+00251999999ADDMA1999999091361MD1519999+9999ME1315459OA149900261REMSYN088AAXX  12074 06682 33/// /1803 10052 20025 39136 48545 55/// 333 55300 20058 91105 91203;
0112066820999992011101208004+46917+009183FM-12+096599999V0201701N000519999999N9999999N1+00461+00291999999ADDMA1999999091321ME1315409REMSYN076AAXX  12084 06682 33/// /1701 10046 20029 39132 48540 5//// 333 553// 20108;
0149066820999992011101209004+46917+009183FM-12+096599999V0200601N000519999999N9999999N1+00931+00601999999ADDMA1999999091431MD1319999+9999ME1315609OA149900361REMSYN088AAXX  12094 06682 33/// /0601 10093 20060 39143 48560 53/// 333 55309 21408 91107 91204;
0149066820999992011101210004+46917+009183FM-12+096599999V0201601N001519999999N9999999N1+01041+00631999999ADDMA1999999091461MD1219999+9999ME1315659OA149900311REMSYN088AAXX  12104 06682 33/// /1603 10104 20063 39146 48565 52/// 333 55309 21966 91106 91203;
0149066820999992011101211004+46917+009183FM-12+096599999V0201601N001519999999N9999999N1+01271+00551999999ADDMA1999999091281MD1819999+9999ME1315549OA149900361REMSYN088AAXX  12114 06682 33/// /1603 10127 20055 39128 48554 58/// 333 55310 22146 91107 91204;
0112066820999992011101213004+46917+009183FM-12+096599999V0203301N003119999999N9999999N1+01301+00941999999ADDMA1999999091221ME1315509REMSYN076AAXX  12134 06682 33/// /3306 10130 20094 39122 48550 5//// 333 553// 22002;
0112066820999992011101214004+46917+009183FM-12+096599999V0203401N001519999999N9999999N1+01231+00881999999ADDMA1999999091211ME1315479REMSYN076AAXX  12144 06682 33/// /3403 10123 20088 39121 48547 5//// 333 553// 21652;
0149066820999992011101215004+46917+009183FM-12+096599999V0203301N001519999999N9999999N1+01051+00861999999ADDMA1999999091191MD1810011+9999ME1315419OA149900721REMSYN088AAXX  12154 06682 33/// /3303 10105 20086 39119 48541 58001 333 55309 21080 91114 91208;
0149066820999992011101216004+46917+009183FM-12+096599999V0203001N001019999999N9999999N1+01031+00881999999ADDMA1999999091251MD1319999+9999ME1315469OA149900411REMSYN088AAXX  12164 06682 33/// /3002 10103 20088 39125 48546 53/// 333 55300 20227 91108 91204;
0149066820999992011101217004+46917+009183FM-12+096599999V0209999C000019999999N9999999N1+01021+00861999999ADDMA1999999091311MD1210101+9999ME1315529OA149900151REMSYN088AAXX  12174 06682 33/// /0000 10102 20086 39131 48552 52010 333 55300 20011 91103 91202;
0228066820999992011101218004+46917+009183FM-12+096599999V0203001N000519999999N0500001N1+00971+00871999999ADDAL19900091GF108991999999999999999999IA1099KA1120M+01471MA1999999091261MD1219999+9999ME1315469OA149900721REMSYN112AAXX  12184 06682 32/84 83001 10097 20087 39126 48546 52/// 333 10147 31/// 55300 20000 90766 93100 91114 91208;
0112066820999992011101219004+46917+009183FM-12+096599999V0203201N002119999999N9999999N1+00901+00841999999ADDMA1999999091261ME1315449REMSYN076AAXX  12194 06682 33/// /3204 10090 20084 39126 48544 5//// 333 553// 20000;
0112066820999992011101220004+46917+009183FM-12+096599999V0200901N000519999999N9999999N1+00931+00821999999ADDMA1999999091351ME1315539REMSYN076AAXX  12204 06682 33/// /0901 10093 20082 39135 48553 5//// 333 553// 20000;
0112066820999992011101221004+46917+009183FM-12+096599999V0209999C000019999999N9999999N1+00901+00791999999ADDMA1999999091381ME1315559REMSYN076AAXX  12214 06682 33/// /0000 10090 20079 39138 48555 5//// 333 553// 20000;
0149066820999992011101222004+46917+009183FM-12+096599999V0203401N001519999999N9999999N1+00891+00801999999ADDMA1999999091371MD1210111+9999ME1315549OA149900261REMSYN088AAXX  12224 06682 33/// /3403 10089 20080 39137 48554 52011 333 55300 20000 91105 91203;
0149066820999992011101223004+46917+009183FM-12+096599999V0203101N001019999999N9999999N1+00841+00791999999ADDMA1999999091381MD1219999+9999ME1315549OA149900361REMSYN088AAXX  12234 06682 33/// /3102 10084 20079 39138 48554 52/// 333 55300 20000 91107 91203;
0149066820999992011101300004+46917+009183FM-12+096599999V0203501N001019999999N9999999N1+00821+00801999999ADDMA1999999091361MD1710021+9999ME1315529OA149900461REMSYN088AAXX  13004 06682 33/// /3502 10082 20080 39136 48552 57002 333 55300 20000 91109 91204;
0155066820999992011101301004+46917+009183FM-12+096599999V0203201N000519999999N9999999N1+00811+00791999999ADDMA1999999091351MD1719999+9999ME1315519OA149900151REMSYN094AAXX  13014 06682 23/// /3201 10081 20079 39135 48551 57/// 333 55300 20000 69925 91103 91201;
0112066820999992011101302004+46917+009183FM-12+096599999V0203201N000519999999N9999999N1+00791+00771999999ADDMA1999999091341ME1315499REMSYN076AAXX  13024 06682 33/// /3201 10079 20077 39134 48549 5//// 333 553// 20000;
0155066820999992011101303004+46917+009183FM-12+096599999V0203501N001519999999N9999999N1+00781+00761999999ADDMA1999999091351MD1710011+9999ME1315509OA149900311REMSYN094AAXX  13034 06682 23/// /3503 10078 20076 39135 48550 57001 333 55300 20000 69915 91106 91203;
0155066820999992011101304004+46917+009183FM-12+096599999V0203601N001019999999N9999999N1+00781+00761999999ADDMA1999999091381MD1210031+9999ME1315539OA149900261REMSYN094AAXX  13044 06682 23/// /3602 10078 20076 39138 48553 52003 333 55300 20000 69915 91105 91203;
0149066820999992011101305004+46917+009183FM-12+096599999V0203301N000519999999N9999999N1+00781+00771999999ADDMA1999999091391MD1110051+9999ME1315539OA149900151REMSYN088AAXX  13054 06682 33/// /3301 10078 20077 39139 48553 51005 333 55300 20000 91103 91201;
0311066820999992011101306004+46917+009183FM-12+096599999V0209999C000019999999N0005001N1+00781+00761999999ADDAA112000591AL19900091AY161061AY241061GF108991999999999999999999GJ104089IA1099IA2999+00809KA1999N+00771MA1999999091401MD1110051+9999ME1315549MW1511OA149900311REMSYN142AAXX  13064 06682 01/05 80000 10078 20076 39140 48554 51005 69942 75164 333 20077 31008 55068 55300 20000 60005 70004 90768 93100 91106 91203;
0149066820999992011101307004+46917+009183FM-12+096599999V0209999C000019999999N9999999N1+00781+00761999999ADDMA1999999091471MD1319999+9999ME1315619OA149900051REMSYN088AAXX  13074 06682 33/// /0000 10078 20076 39147 48561 53/// 333 55300 20018 91101 91200;
0112066820999992011101308004+46917+009183FM-12+096599999V0209999C000019999999N9999999N1+00831+00741999999ADDMA1999999091521ME1315669REMSYN076AAXX  13084 06682 33/// /0000 10083 20074 39152 48566 5//// 333 553// 20104;
0149066820999992011101309004+46917+009183FM-12+096599999V0203401N000519999999N9999999N1+00861+00771999999ADDMA1999999091561MD1219999+9999ME1315709OA149900051REMSYN088AAXX  13094 06682 33/// /3401 10086 20077 39156 48570 52/// 333 55300 20302 91101 91201;
0155066820999992011101310004+46917+009183FM-12+096599999V0201501N001019999999N9999999N1+00931+00711999999ADDMA1999999091571MD1219999+9999ME1315739OA149900151REMSYN094AAXX  13104 06682 23/// /1502 10093 20071 39157 48573 52/// 333 55300 20439 69915 91103 91202;
0149066820999992011101311004+46917+009183FM-12+096599999V0201101N000519999999N9999999N1+01051+00661999999ADDMA1999999091581MD1110061+9999ME1315769OA149900211REMSYN088AAXX  13114 06682 33/// /1101 10105 20066 39158 48576 51006 333 55300 20616 91104 91203;
0189066820999992011101312004+46917+009183FM-12+096599999V0203401N001019999999N0400001N1+01041+00841999999ADDAA106000021AY151061AY241061GF108991999999999999999999MA1999999091581ME1315769MW1021REMSYN094AAXX  13124 06682 01/82 83402 10104 20084 39158 48576 5//// 69921 70254 333 553// 20601 69915;
0118066820999992011101313004+46917+009183FM-12+096599999V0201401N001019999999N9999999N1+01141+00701999999ADDMA1999999091551ME1315769REMSYN082AAXX  13134 06682 23/// /1402 10114 20070 39155 48576 5//// 333 553// 21307 69915;
0112066820999992011101314004+46917+009183FM-12+096599999V0202101N001019999999N9999999N1+01251+00601999999ADDMA1999999091521ME1315769REMSYN076AAXX  13144 06682 33/// /2102 10125 20060 39152 48576 5//// 333 553// 21220;
0149066820999992011101315004+46917+009183FM-12+096599999V0203401N001519999999N9999999N1+01091+00781999999ADDMA1999999091521MD1619999+9999ME1315729OA149900411REMSYN088AAXX  13154 06682 33/// /3403 10109 20078 39152 48572 56/// 333 55302 20594 91108 91204;
0149066820999992011101316004+46917+009183FM-12+096599999V0203301N000519999999N9999999N1+01041+00861999999ADDMA1999999091531MD1519999+9999ME1315729OA149900261REMSYN088AAXX  13164 06682 33/// /3301 10104 20086 39153 48572 55/// 333 55300 20194 91105 91203;
0149066820999992011101317004+46917+009183FM-12+096599999V0209999C000019999999N9999999N1+00981+00891999999ADDMA1999999091581MD1319999+9999ME1315759OA149900151REMSYN088AAXX  13174 06682 33/// /0000 10098 20089 39158 48575 53/// 333 55300 20011 91103 91202;
0232066820999992011101318004+46917+009183FM-12+096599999V0201701N001019999999N0200001N1+00941+00781999999ADDAA112000591AY161061AY221061GF108991999999999999999999IA1099KA1120M+01251MA1999999091621ME1315789MW1211REMSYN118AAXX  13184 06682 01/70 81702 10094 20078 39162 48578 5//// 69952 72162 333 10125 31/// 553// 20000 69925 90766 93100;
0112066820999992011101319004+46917+009183FM-12+096599999V0201801N001519999999N9999999N1+00911+00751999999ADDMA1999999091631ME1315789REMSYN076AAXX  13194 06682 33/// /1803 10091 20075 39163 48578 5//// 333 553// 20000;
0112066820999992011101320004+46917+009183FM-12+096599999V0200301N000519999999N9999999N1+00841+00751999999ADDMA1999999091631ME1315769REMSYN076AAXX  13204 06682 33/// /0301 10084 20075 39163 48576 5//// 333 553// 20000;
0149066820999992011101321004+46917+009183FM-12+096599999V0201701N001019999999N9999999N1+00781+00591999999ADDMA1999999091661MD1310041+9999ME1315779OA149900361REMSYN088AAXX  13214 06682 33/// /1702 10078 20059 39166 48577 53004 333 55300 20000 91107 91204;
0149066820999992011101322004+46917+009183FM-12+096599999V0201701N001019999999N9999999N1+00821+00611999999ADDMA1999999091671MD1219999+9999ME1315799OA149900211REMSYN088AAXX  13224 06682 33/// /1702 10082 20061 39167 48579 52/// 333 55300 20000 91104 91202;
0149066820999992011101323004+46917+009183FM-12+096599999V0201301N001019999999N9999999N1+00811+00641999999ADDMA1999999091631MD1019999+9999ME1315759OA149900211REMSYN088AAXX  13234 06682 33/// /1302 10081 20064 39163 48575 50/// 333 55300 20000 91104 91202;
0149066820999992011101400004+46917+009183FM-12+096599999V0201501N001519999999N9999999N1+00651+00471999999ADDMA1999999091581MD1710081+9999ME1315679OA149900361REMSYN088AAXX  14004 06682 33/// /1503 10065 20047 39158 48567 57008 333 55300 20000 91107 91204;
0112066820999992011101401004+46917+009183FM-12+096599999V0201601N001019999999N9999999N1+00661+00491999999ADDMA1999999091551ME1315659REMSYN076AAXX  14014 06682 33/// /1602 10066 20049 39155 48565 5//// 333 553// 20000;
0112066820999992011101402004+46917+009183FM-12+096599999V0201601N000519999999N9999999N1+00681+00501999999ADDMA1999999091511ME1315629REMSYN076AAXX  14024 06682 33/// /1601 10068 20050 39151 48562 5//// 333 553// 20000;
0149066820999992011101403004+46917+009183FM-12+096599999V0209999C000019999999N9999999N1+00691+00521999999ADDMA1999999091481MD1710101+9999ME1315599OA149900311REMSYN088AAXX  14034 06682 33/// /0000 10069 20052 39148 48559 57010 333 55300 20000 91106 91204;
0149066820999992011101404004+46917+009183FM-12+096599999V0201501N000519999999N9999999N1+00691+00571999999ADDMA1999999091471MD1719999+9999ME1315599OA149900151REMSYN088AAXX  14044 06682 33/// /1501 10069 20057 39147 48559 57/// 333 55300 20000 91103 91202;
0149066820999992011101405004+46917+009183FM-12+096599999V0203101N000519999999N9999999N1+00661+00581999999ADDMA1999999091511MD1510001+9999ME1315619OA149900211REMSYN088AAXX  14054 06682 33/// /3101 10066 20058 39151 48561 55000 333 55300 20000 91104 91202;
0260066820999992011101406004+46917+009183FM-12+096599999V0201901N000519999999N0600001N1+00641+00561999999ADDAL19900091GF108991999999999999999999GJ100549IA1099IA2999+00409KA1999N+00601MA1999999091551MD1210071+9999ME1315659OA149900311REMSYN124AAXX  14064 06682 32/86 81901 10064 20056 39155 48565 52007 333 20060 31004 55009 55300 20000 70005 90768 93100 91106 91204;
0149066820999992011101407004+46917+009183FM-12+096599999V0209999C000019999999N9999999N1+00731+00521999999ADDMA1999999091571MD1219999+9999ME1315689OA149900211REMSYN088AAXX  14074 06682 33/// /0000 10073 20052 39157 48568 52/// 333 55300 20108 91104 91203;
0112066820999992011101408004+46917+009183FM-12+096599999V0209999C000019999999N9999999N1+00691+00571999999ADDMA1999999091611ME1315719REMSYN076AAXX  14084 06682 33/// /0000 10069 20057 39161 48571 5//// 333 553// 20356;
0149066820999992011101409004+46917+009183FM-12+096599999V0201801N002119999999N9999999N1+00861+00381999999ADDMA1999999091571MD1019999+9999ME1315719OA149900461REMSYN088AAXX  14094 06682 33/// /1804 10086 20038 39157 48571 50/// 333 55309 21339 91109 91205;
0149066820999992011101410004+46917+009183FM-12+096599999V0201401N000519999999N9999999N1+00941+00311999999ADDMA1999999091591MD1019999+9999ME1315759OA149900311REMSYN088AAXX  14104 06682 33/// /1401 10094 20031 39159 48575 50/// 333 55310 21904 91106 91203;
0149066820999992011101411004+46917+009183FM-12+096599999V0203301N002619999999N9999999N1+01051+00631999999ADDMA1999999091621MD1519999+9999ME1315809OA149900511REMSYN088AAXX  14114 06682 33/// /3305 10105 20063 39162 48580 55/// 333 55310 22149 91110 91205;
0175066820999992011101412004+46917+009183FM-12+096599999V0203201N002612200019N0700001N1+01071+00451999999ADDGF101991999999999999999999MA1999999091601MD1019999+9999ME1315799OA149900571REMSYN088AAXX  14124 06682 32/88 13205 10107 20045 39160 48579 50/// 333 55310 22192 91111 91205;
0112066820999992011101413004+46917+009183FM-12+096599999V0203401N001519999999N9999999N1+01091+00471999999ADDMA1999999091541ME1315749REMSYN076AAXX  14134 06682 33/// /3403 10109 20047 39154 48574 5//// 333 553// 21991;
0112066820999992011101414004+46917+009183FM-12+096599999V0203301N002119999999N9999999N1+01041+00501999999ADDMA1999999091481ME1315679REMSYN076AAXX  14144 06682 33/// /3304 10104 20050 39148 48567 5//// 333 553// 21631;
0149066820999992011101415004+46917+009183FM-12+096599999V0203101N001019999999N9999999N1+00841+00541999999ADDMA1999999091551MD1510051+9999ME1315699OA149900511REMSYN088AAXX  14154 06682 33/// /3102 10084 20054 39155 48569 55005 333 55309 21001 91110 91205;
0096066820999992011101416004+46917+009183FM-12+096599999V0209999C000019999999N9999999N1+00781+00541999999ADDMA1999999091591ME1315719REMSYN060AAXX  14164 06682 43/// /0000 10078 20054 39159 48571 5////;
0149066820999992011101417004+46917+009183FM-12+096599999V0201701N001019999999N9999999N1+00661+00391999999ADDMA1999999091621MD1119999+9999ME1315719OA149900211REMSYN088AAXX  14174 06682 33/// /1702 10066 20039 39162 48571 51/// 333 55300 20018 91104 91203;
0228066820999992011101418004+46917+009183FM-12+096599999V0201801N002112200019N0600001N1+00631+00351999999ADDAL19900091GF101991999999999999999999IA1099KA1120M+01111MA1999999091641MD1119999+9999ME1315729OA149900511REMSYN112AAXX  14184 06682 32/86 11804 10063 20035 39164 48572 51/// 333 10111 31/// 55300 20000 90766 93100 91110 91205;
0112066820999992011101419004+46917+009183FM-12+096599999V0201401N001519999999N9999999N1+00401+00261999999ADDMA1999999091611ME1315649REMSYN076AAXX  14194 06682 33/// /1403 10040 20026 39161 48564 5//// 333 553// 20000;
0149066820999992011101420004+46917+009183FM-12+096599999V0202001N001519999999N9999999N1+00481+00251999999ADDMA1999999091601MD1819999+9999ME1315659OA149900311REMSYN088AAXX  14204 06682 33/// /2003 10048 20025 39160 48565 58/// 333 55300 20000 91106 91204;
0149066820999992011101421004+46917+009183FM-12+096599999V0201301N001019999999N9999999N1+00391+00221999999ADDMA1999999091611MD1519999+9999ME1315649OA149900311REMSYN088AAXX  14214 06682 33/// /1302 10039 20022 39161 48564 55/// 333 55300 20000 91106 91204;
0112066820999992011101422004+46917+009183FM-12+096599999V0201601N001519999999N9999999N1+00401+00181999999ADDMA1999999091621ME1315659REMSYN076AAXX  14224 06682 33/// /1603 10040 20018 39162 48565 5//// 333 553// 20000;
0149066820999992011101423004+46917+009183FM-12+096599999V0201501N001019999999N9999999N1+00331+00151999999ADDMA1999999091551MD1719999+9999ME1315589OA149900361REMSYN088AAXX  14234 06682 33/// /1502 10033 20015 39155 48558 57/// 333 55300 20000 91107 91204;
0112066820999992011101500004+46917+009183FM-12+096599999V0201501N001019999999N9999999N1+00231+00071999999ADDMA1999999091531ME1315549REMSYN076AAXX  15004 06682 33/// /1502 10023 20007 39153 48554 5//// 333 553// 20000;
0112066820999992011101501004+46917+009183FM-12+096599999V0201401N001019999999N9999999N1+00061-00031999999ADDMA1999999091511ME1315489REMSYN076AAXX  15014 06682 33/// /1402 10006 21003 39151 48548 5//// 333 553// 20000;
0112066820999992011101502004+46917+009183FM-12+096599999V0201701N001519999999N9999999N1+00181-00051999999ADDMA1999999091491ME1315499REMSYN076AAXX  15024 06682 33/// /1703 10018 21005 39149 48549 5//// 333 553// 20000;
0112066820999992011101503004+46917+009183FM-12+096599999V0201501N001019999999N9999999N1+00041-00081999999ADDMA1999999091451ME1315429REMSYN076AAXX  15034 06682 33/// /1502 10004 21008 39145 48542 5//// 333 553// 20000;
0149066820999992011101504004+46917+009183FM-12+096599999V0201601N001019999999N9999999N1+00101-00121999999ADDMA1999999091461MD1719999+9999ME1315459OA149900151REMSYN088AAXX  15044 06682 33/// /1602 10010 21012 39146 48545 57/// 333 55300 20000 91103 91202;
0149066820999992011101505004+46917+009183FM-12+096599999V0201901N001019999999N9999999N1+00011-00161999999ADDMA1999999091491MD1319999+9999ME1315459OA149900261REMSYN088AAXX  15054 06682 33/// /1902 10001 21016 39149 48545 53/// 333 55300 20000 91105 91203;
0262066820999992011101506004+46917+009183FM-12+096599999V0201401N001012200019N0700001N1-00091-00221999999ADDAL19900091GA1001+999999999GF100991001001999999001001IA1099IA2999-00309KA1999N-00061MA1999999091501MD1219999+9999ME1315449OA149900261REMSYN118AAXX  15064 06682 32/88 01402 11009 21022 39150 48544 52/// 333 21006 31103 55300 20004 70000 90768 93100 91105 91203;
0112066820999992011101507004+46917+009183FM-12+096599999V0201601N001519999999N9999999N1+00091-00151999999ADDMA1999999091551ME1315529REMSYN076AAXX  15074 06682 33/// /1603 10009 21015 39155 48552 5//// 333 553// 20050;
0112066820999992011101508004+46917+009183FM-12+096599999V0201601N001019999999N9999999N1+00021-00101999999ADDMA1999999091571ME1315529REMSYN076AAXX  15084 06682 33/// /1602 10002 21010 39157 48552 5//// 333 553// 20097;
0112066820999992011101509004+46917+009183FM-12+096599999V0201501N001519999999N9999999N1+00451-00041999999ADDMA1999999091551ME1315609REMSYN076AAXX  15094 06682 33/// /1503 10045 21004 39155 48560 5//// 333 553// 21267;
0112066820999992011101510004+46917+009183FM-12+096599999V0201801N001519999999N9999999N1+00691+00011999999ADDMA1999999091561ME1315679REMSYN076AAXX  15104 06682 33/// /1803 10069 20001 39156 48567 5//// 333 553// 21915;
0149066820999992011101511004+46917+009183FM-12+096599999V0201601N000519999999N9999999N1+00881+00161999999ADDMA1999999091551MD1719999+9999ME1315709OA149900151REMSYN088AAXX  15114 06682 33/// /1601 10088 20016 39155 48570 57/// 333 55310 22146 91103 91202;
0154066820999992011101512004+46917+009183FM-12+096599999V0203201N001512200019N0700001N1+01031+00211999999ADDGA1001+999999999GF100991001001999999001001MA1999999091491ME1315689REMSYN076AAXX  15124 06682 32/88 03203 10103 20021 39149 48568 5//// 333 553// 22156;
0112066820999992011101513004+46917+009183FM-12+096599999V0203301N002119999999N9999999N1+01001+00291999999ADDMA1999999091471ME1315659REMSYN076AAXX  15134 06682 33/// /3304 10100 20029 39147 48565 5//// 333 553// 21994;
0112066820999992011101514004+46917+009183FM-12+096599999V0203301N001519999999N9999999N1+00971+00351999999ADDMA1999999091471ME1315659REMSYN076AAXX  15144 06682 33/// /3303 10097 20035 39147 48565 5//// 333 553// 21649;
0112066820999992011101515004+46917+009183FM-12+096599999V0203301N001019999999N9999999N1+00611+00421999999ADDMA1999999091461ME1315569REMSYN076AAXX  15154 06682 33/// /3302 10061 20042 39146 48556 5//// 333 553// 20976;
0149066820999992011101516004+46917+009183FM-12+096599999V0209999C000019999999N9999999N1+00541+00401999999ADDMA1999999091481MD1319999+9999ME1315569OA149900151REMSYN088AAXX  15164 06682 33/// /0000 10054 20040 39148 48556 53/// 333 55300 20086 91103 91201;
0168066820999992011101517004+46917+009183FM-12+096599999V0201901N000519999999N9999999N1+00421+00231999999ADDMA1999999091471MD1410001+9999ME1315539OA149900101REMSYN088AAXX  15174 06682 33/// /1901 10042 20023 39147 48553 52000 333 55300 20014 91102 91202;EQDQ01+000022APCTEN
0244066820999992011101518004+46917+009183FM-12+096599999V0201601N001012200019N0700001N1+00141+00081999999ADDAL19900091GA1001+999999999GF100991001001999999001001IA1099KA1120M+01091MA1999999091521MD1210061+9999ME1315519OA149900361REMSYN112AAXX  15184 06682 32/88 01602 10014 20008 39152 48551 52006 333 10109 31/// 55300 20000 90766 93100 91107 91204;
0149066820999992011101519004+46917+009183FM-12+096599999V0202101N001019999999N9999999N1+00281+00111999999ADDMA1999999091511MD1210031+9999ME1315539OA149900261REMSYN088AAXX  15194 06682 33/// /2102 10028 20011 39151 48553 52003 333 55300 20000 91105 91203;
0112066820999992011101520004+46917+009183FM-12+096599999V0201601N001019999999N9999999N1+00191+00051999999ADDMA1999999091511ME1315519REMSYN076AAXX  15204 06682 33/// /1602 10019 20005 39151 48551 5//// 333 553// 20000;
0149066820999992011101521004+46917+009183FM-12+096599999V0201901N001519999999N9999999N1+00311-00061999999ADDMA1999999091511MD1019999+9999ME1315549OA149900261REMSYN088AAXX  15214 06682 33/// /1903 10031 21006 39151 48554 50/// 333 55300 20000 91105 91203;
0149066820999992011101522004+46917+009183FM-12+096599999V0201401N001519999999N9999999N1+00251-00031999999ADDMA1999999091471MD1810041+9999ME1315499OA149900311REMSYN088AAXX  15224 06682 33/// /1403 10025 21003 39147 48549 58004 333 55300 20000 91106 91204;
0149066820999992011101523004+46917+009183FM-12+096599999V0201701N001019999999N9999999N1+00251-00101999999ADDMA1999999091461MD1719999+9999ME1315489OA149900261REMSYN088AAXX  15234 06682 33/// /1702 10025 21010 39146 48548 57/// 333 55300 20000 91105 91203;
0112066820999992011101600004+46917+009183FM-12+096599999V0201501N001019999999N9999999N1+00241-00121999999ADDMA1999999091441ME1315469REMSYN076AAXX  16004 06682 33/// /1502 10024 21012 39144 48546 5//// 333 553// 20000;
0149066820999992011101601004+46917+009183FM-12+096599999V0201501N002119999999N9999999N1+00291-00181999999ADDMA1999999091471MD1519999+9999ME1315509OA149900261REMSYN088AAXX  16014 06682 33/// /1504 10029 21018 39147 48550 55/// 333 55300 20000 91105 91204;
0112066820999992011101602004+46917+009183FM-12+096599999V0201301N001519999999N9999999N1+00111-00151999999ADDMA1999999091451ME1315449REMSYN076AAXX  16024 06682 33/// /1303 10011 21015 39145 48544 5//// 333 553// 20000;
0112066820999992011101603004+46917+009183FM-12+096599999V0201301N001019999999N9999999N1+00111-00161999999ADDMA1999999091421ME1315419REMSYN076AAXX  16034 06682 33/// /1302 10011 21016 39142 48541 5//// 333 553// 20000;
0112066820999992011101604004+46917+009183FM-12+096599999V0201401N001519999999N9999999N1+00091-00191999999ADDMA1999999091391ME1315389REMSYN076AAXX  16044 06682 33/// /1403 10009 21019 39139 48538 5//// 333 553// 20000;
0149066820999992011101605004+46917+009183FM-12+096599999V0201401N001519999999N9999999N1+00251-00201999999ADDMA1999999091401MD1710051+9999ME1315439OA149900261REMSYN088AAXX  16054 06682 33/// /1403 10025 21020 39140 48543 57005 333 55300 20000 91105 91204;
0276066820999992011101606004+46917+009183FM-12+096599999V0201501N001012200019N0700001N1+00081-00191999999ADDAL19900091GA1001+999999999GF100991001001999999001001GJ104029IA1099IA2999-00409KA1999N+00061MA1999999091461MD1310041+9999ME1315449OA149900411REMSYN124AAXX  16064 06682 32/88 01502 10008 21019 39146 48544 53004 333 20006 31104 55067 55300 20004 70000 90768 93100 91108 91204;
0149066820999992011101607004+46917+009183FM-12+096599999V0201501N001019999999N9999999N1+00161-00151999999ADDMA1999999091501MD1210111+9999ME1315499OA149900261REMSYN088AAXX  16074 06682 33/// /1502 10016 21015 39150 48549 52011 333 55300 20050 91105 91203;
0149066820999992011101608004+46917+009183FM-12+096599999V0201601N002119999999N9999999N1+00271-00161999999ADDMA1999999091511MD1119999+9999ME1315539OA149900361REMSYN088AAXX  16084 06682 33/// /1604 10027 21016 39151 48553 51/// 333 55300 20097 91107 91204;
0149066820999992011101609004+46917+009183FM-12+096599999V0201901N001519999999N9999999N1+00671-00021999999ADDMA1999999091521MD1219999+9999ME1315639OA149900361REMSYN088AAXX  16094 06682 33/// /1903 10067 21002 39152 48563 52/// 333 55308 21220 91107 91204;
0149066820999992011101610004+46917+009183FM-12+096599999V0201801N001019999999N9999999N1+00871-00071999999ADDMA1999999091521MD1210021+9999ME1315679OA149900261REMSYN088AAXX  16104 06682 33/// /1802 10087 21007 39152 48567 52002 333 55310 21886 91105 91203;
0149066820999992011101611004+46917+009183FM-12+096599999V0201701N001019999999N9999999N1+01111+00161999999ADDMA1999999091501MD1710011+9999ME1315719OA149900211REMSYN088AAXX  16114 06682 33/// /1702 10111 20016 39150 48571 57001 333 55310 22124 91104 91203;
0149066820999992011101612004+46917+009183FM-12+096599999V0203301N001519999999N9999999N1+01201+00121999999ADDMA1999999091471MD1719999+9999ME1315709OA149900361REMSYN088AAXX  16124 06682 33/// /3303 10120 20012 39147 48570 57/// 333 55310 22117 91107 91204;
0149066820999992011101613004+46917+009183FM-12+096599999V0203201N001019999999N9999999N1+01151+00291999999ADDMA1999999091431MD1810091+9999ME1315659OA149900361REMSYN088AAXX  16134 06682 33/// /3202 10115 20029 39143 48565 58009 333 55310 21944 91107 91204;
0149066820999992011101614004+46917+009183FM-12+096599999V0203301N001019999999N9999999N1+01081+00341999999ADDMA1999999091421MD1819999+9999ME1315639OA149900311REMSYN088AAXX  16144 06682 33/// /3302 10108 20034 39142 48563 58/// 333 55310 21606 91106 91204;
0149066820999992011101615004+46917+009183FM-12+096599999V0203301N000519999999N9999999N1+00771+00431999999ADDMA1999999091441MD1510031+9999ME1315589OA149900361REMSYN088AAXX  16154 06682 33/// /3301 10077 20043 39144 48558 55003 333 55308 20936 91107 91204;
0149066820999992011101616004+46917+009183FM-12+096599999V0209999C000019999999N9999999N1+00711+00411999999ADDMA1999999091461MD1210031+9999ME1315589OA149900101REMSYN088AAXX  16164 06682 33/// /0000 10071 20041 39146 48558 52003 333 55300 20083 91102 91201;
0149066820999992011101617004+46917+009183FM-12+096599999V0201801N001519999999N9999999N1+00481+00221999999ADDMA1999999091471MD1210051+9999ME1315549OA149900361REMSYN088AAXX  16174 06682 33/// /1803 10048 20022 39147 48554 52005 333 55300 20014 91107 91204;
0244066820999992011101618004+46917+009183FM-12+096599999V0201901N001512200019N0700001N1+00481+00091999999ADDAL19900091GA1001+999999999GF100991001001999999001001IA1099KA1120M+01201MA1999999091471MD1219999+9999ME1315549OA149900361REMSYN112AAXX  16184 06682 32/88 01903 10048 20009 39147 48554 52/// 333 10120 31/// 55300 20000 90766 93100 91107 91204;
0149066820999992011101619004+46917+009183FM-12+096599999V0201601N001519999999N9999999N1+00431+00061999999ADDMA1999999091461MD1010001+9999ME1315529OA149900261REMSYN088AAXX  16194 06682 33/// /1603 10043 20006 39146 48552 50000 333 55300 20000 91105 91204;
0149066820999992011101620004+46917+009183FM-12+096599999V0201601N001519999999N9999999N1+00221+00051999999ADDMA1999999091471MD1219999+9999ME1315489OA149900211REMSYN088AAXX  16204 06682 33/// /1603 10022 20005 39147 48548 52/// 333 55300 20000 91104 91203;
0149066820999992011101621004+46917+009183FM-12+096599999V0201701N001519999999N9999999N1+00291+00041999999ADDMA1999999091481MD1219999+9999ME1315519OA149900261REMSYN088AAXX  16214 06682 33/// /1703 10029 20004 39148 48551 52/// 333 55300 20000 91105 91204;
0149066820999992011101622004+46917+009183FM-12+096599999V0201601N001519999999N9999999N1+00321-00011999999ADDMA1999999091481MD1210021+9999ME1315519OA149900211REMSYN088AAXX  16224 06682 33/// /1603 10032 21001 39148 48551 52002 333 55300 20000 91104 91203;
0149066820999992011101623004+46917+009183FM-12+096599999V0201601N001019999999N9999999N1+00361-00011999999ADDMA1999999091461MD1810011+9999ME1315509OA149900361REMSYN088AAXX  16234 06682 33/// /1602 10036 21001 39146 48550 58001 333 55300 20000 91107 91204;
0149066820999992011101700004+46917+009183FM-12+096599999V0201601N001519999999N9999999N1+00351-00031999999ADDMA1999999091461MD1710021+9999ME1315509OA149900361REMSYN088AAXX  17004 06682 33/// /1603 10035 21003 39146 48550 57002 333 55300 20000 91107 91204;
0149066820999992011101701004+46917+009183FM-12+096599999V0201701N001519999999N9999999N1+00211-00071999999ADDMA1999999091421MD1719999+9999ME1315449OA149900211REMSYN088AAXX  17014 06682 33/// /1703 10021 21007 39142 48544 57/// 333 55300 20000 91104 91203;
0149066820999992011101702004+46917+009183FM-12+096599999V0201501N001519999999N9999999N1+00181-00091999999ADDMA1999999091401MD1719999+9999ME1315419OA149900261REMSYN088AAXX  17024 06682 33/// /1503 10018 21009 39140 48541 57/// 333 55300 20000 91105 91203;
0149066820999992011101703004+46917+009183FM-12+096599999V0201601N001519999999N9999999N1+00231-00061999999ADDMA1999999091381MD1719999+9999ME1315419OA149900261REMSYN088AAXX  17034 06682 33/// /1603 10023 21006 39138 48541 57/// 333 55300 20000 91105 91203;
0149066820999992011101704004+46917+009183FM-12+096599999V0201501N001019999999N9999999N1+00261-00081999999ADDMA1999999091381MD1719999+9999ME1315419OA149900211REMSYN088AAXX  17044 06682 33/// /1502 10026 21008 39138 48541 57/// 333 55300 20000 91104 91203;
0168066820999992011101705004+46917+009183FM-12+096599999V0201801N001519999999N9999999N1+00331-00081999999ADDMA1999999091401MD1410001+9999ME1315449OA149900211REMSYN088AAXX  17054 06682 33/// /1803 10033 21008 39140 48544 53000 333 55300 20000 91104 91203;EQDQ01+000032APCTEN
0216066820999992011101706004+46917+009183FM-12+096599999V0201801N002119999999N9999999N1+00331-00081999999ADDAL19900091GJ104029IA2999-00209KA1999N+00091MA1999999091401MD1210021+9999ME1315449OA149900361REMSYN112AAXX  17064 06682 33/// /1804 10033 21008 39140 48544 52002 333 20009 3/102 55067 55300 20004 70000 91107 91205;
0149066820999992011101707004+46917+009183FM-12+096599999V0201601N001019999999N9999999N1+00161-00081999999ADDMA1999999091441MD1210061+9999ME1315449OA149900261REMSYN088AAXX  17074 06682 33/// /1602 10016 21008 39144 48544 52006 333 55300 20047 91105 91203;
0112066820999992011101708004+46917+009183FM-12+096599999V0201601N001019999999N9999999N1+00271-00011999999ADDMA1999999091451ME1315489REMSYN076AAXX  17084 06682 33/// /1602 10027 21001 39145 48548 5//// 333 553// 20094;
0149066820999992011101709004+46917+009183FM-12+096599999V0201701N001019999999N9999999N1+00701+00131999999ADDMA1999999091441MD1019999+9999ME1315569OA149900261REMSYN088AAXX  17094 06682 33/// /1702 10070 20013 39144 48556 50/// 333 55308 21166 91105 91203;
0149066820999992011101710004+46917+009183FM-12+096599999V0202001N001019999999N9999999N1+00851+00061999999ADDMA1999999091421MD1710021+9999ME1315589OA149900261REMSYN088AAXX  17104 06682 33/// /2002 10085 20006 39142 48558 57002 333 55310 21840 91105 91203;
0112066820999992011101711004+46917+009183FM-12+096599999V0201601N001019999999N9999999N1+01061+00231999999ADDMA1999999091391ME1315609REMSYN076AAXX  17114 06682 33/// /1602 10106 20023 39139 48560 5//// 333 553// 22066;
0138066820999992011101712004+46917+009183FM-12+096599999V0203401N002112200019N0700001N1+01161+00431999999ADDGA1001+999999999GF100991001001999999001001MA1999999091321ME1315569REMSYN060AAXX  17124 06682 42/88 03404 10116 20043 39132 48556 5////;
0112066820999992011101713004+46917+009183FM-12+096599999V0203301N001519999999N9999999N1+01201+00511999999ADDMA1999999091281ME1315539REMSYN076AAXX  17134 06682 33/// /3303 10120 20051 39128 48553 5//// 333 553// 21915;
0112066820999992011101714004+46917+009183FM-12+096599999V0203201N001019999999N9999999N1+01131+00531999999ADDMA1999999091261ME1315499REMSYN076AAXX  17144 06682 33/// /3202 10113 20053 39126 48549 5//// 333 553// 21570;
0112066820999992011101715004+46917+009183FM-12+096599999V0203101N000519999999N9999999N1+00831+00451999999ADDMA1999999091241ME1315419REMSYN076AAXX  17154 06682 33/// /3101 10083 20045 39124 48541 5//// 333 553// 20900;
0149066820999992011101716004+46917+009183FM-12+096599999V0201501N000519999999N9999999N1+00641+00421999999ADDMA1999999091271MD1519999+9999ME1315409OA149900101REMSYN088AAXX  17164 06682 33/// /1501 10064 20042 39127 48540 55/// 333 55300 20083 91102 91201;
0149066820999992011101717004+46917+009183FM-12+096599999V0201501N001519999999N9999999N1+00581+00361999999ADDMA1999999091321MD1210061+9999ME1315439OA149900211REMSYN088AAXX  17174 06682 33/// /1503 10058 20036 39132 48543 52006 333 55300 20011 91104 91203;
0244066820999992011101718004+46917+009183FM-12+096599999V0201501N001512200019N0700001N1+00471+00241999999ADDAL19900091GA1001+999999999GF100991001001999999001001IA1099KA1120M+01211MA1999999091321MD1219999+9999ME1315419OA149900411REMSYN112AAXX  17184 06682 32/88 01503 10047 20024 39132 48541 52/// 333 10121 31/// 55300 20000 90766 93100 91108 91204;
0112066820999992011101719004+46917+009183FM-12+096599999V0201601N002119999999N9999999N1+00521+00261999999ADDMA1999999091311ME1315419REMSYN076AAXX  17194 06682 33/// /1604 10052 20026 39131 48541 5//// 333 553// 20000;
0112066820999992011101720004+46917+009183FM-12+096599999V0201301N001019999999N9999999N1+00401+00161999999ADDMA1999999091301ME1315379REMSYN076AAXX  17204 06682 33/// /1302 10040 20016 39130 48537 5//// 333 553// 20000;
0149066820999992011101721004+46917+009183FM-12+096599999V0201301N001019999999N9999999N1+00241+00121999999ADDMA1999999091291MD1719999+9999ME1315339OA149900411REMSYN088AAXX  17214 06682 33/// /1302 10024 20012 39129 48533 57/// 333 55300 20000 91108 91205;
0149066820999992011101722004+46917+009183FM-12+096599999V0201701N001519999999N9999999N1+00301+00091999999ADDMA1999999091291MD1710021+9999ME1315349OA149900311REMSYN088AAXX  17224 06682 33/// /1703 10030 20009 39129 48534 57002 333 55300 20000 91106 91205;
0149066820999992011101723004+46917+009183FM-12+096599999V0201901N001519999999N9999999N1+00351+00061999999ADDMA1999999091251MD1719999+9999ME1315329OA149900461REMSYN088AAXX  17234 06682 33/// /1903 10035 20006 39125 48532 57/// 333 55300 20000 91109 91206;
0149066820999992011101800004+46917+009183FM-12+096599999V0201701N001519999999N9999999N1+00461+00081999999ADDMA1999999091241MD1710051+9999ME1315339OA149900461REMSYN088AAXX  18004 06682 33/// /1703 10046 20008 39124 48533 57005 333 55300 20000 91109 91206;
0149066820999992011101801004+46917+009183FM-12+096599999V0201501N001019999999N9999999N1+00341+00041999999ADDMA1999999091211MD1719999+9999ME1315289OA149900311REMSYN088AAXX  18014 06682 33/// /1502 10034 20004 39121 48528 57/// 333 55300 20000 91106 91203;
0112066820999992011101802004+46917+009183FM-12+096599999V0201601N001519999999N9999999N1+00391+00001999999ADDMA1999999091171ME1315269REMSYN076AAXX  18024 06682 33/// /1603 10039 20000 39117 48526 5//// 333 553// 20000;
0112066820999992011101803004+46917+009183FM-12+096599999V0201501N001019999999N9999999N1+00281-00081999999ADDMA1999999091101ME1315179REMSYN076AAXX  18034 06682 33/// /1502 10028 21008 39110 48517 5//// 333 553// 20000;
0149066820999992011101804004+46917+009183FM-12+096599999V0201901N002119999999N9999999N1+00331-00131999999ADDMA1999999091101MD1719999+9999ME1315189OA149900411REMSYN088AAXX  18044 06682 33/// /1904 10033 21013 39110 48518 57/// 333 55300 20000 91108 91204;
0149066820999992011101805004+46917+009183FM-12+096599999V0201301N002119999999N9999999N1+00281-00181999999ADDMA1999999091081MD1710091+9999ME1315159OA149900311REMSYN088AAXX  18054 06682 33/// /1304 10028 21018 39108 48515 57009 333 55300 20000 91106 91204;
0276066820999992011101806004+46917+009183FM-12+096599999V0201501N001012200019N0700001N1+00341-00211999999ADDAL19900091GA1001+999999999GF100991001001999999001001GJ103969IA1099IA2999-00209KA1999N+00191MA1999999091071MD1710031+9999ME1315169OA149900461REMSYN124AAXX  18064 06682 32/88 01502 10034 21021 39107 48516 57003 333 20019 31102 55066 55300 20004 70000 90768 93100 91109 91206;
0112066820999992011101807004+46917+009183FM-12+096599999V0201801N001019999999N9999999N1+00391-00251999999ADDMA1999999091091ME1315199REMSYN076AAXX  18074 06682 33/// /1802 10039 21025 39109 48519 5//// 333 553// 20043;
0112066820999992011101808004+46917+009183FM-12+096599999V0201401N001519999999N9999999N1+00381-00191999999ADDMA1999999091061ME1315169REMSYN076AAXX  18084 06682 33/// /1403 10038 21019 39106 48516 5//// 333 553// 20097;
0112066820999992011101809004+46917+009183FM-12+096599999V0201501N001519999999N9999999N1+00881-00021999999ADDMA1999999091001ME1315219REMSYN076AAXX  18094 06682 33/// /1503 10088 21002 39100 48521 5//// 333 553// 21098;
0149066820999992011101810004+46917+009183FM-12+096599999V0201501N001519999999N9999999N1+01041-00071999999ADDMA1999999090931MD1819999+9999ME1315189OA149900461REMSYN088AAXX  18104 06682 33/// /1503 10104 21007 39093 48518 58/// 333 55310 21807 91109 91206;
0149066820999992011101811004+46917+009183FM-12+096599999V0201701N001019999999N9999999N1+01341-00041999999ADDMA1999999090891MD1619999+9999ME1315209OA149900151REMSYN088AAXX  18114 06682 33/// /1702 10134 21004 39089 48520 56/// 333 55310 22023 91103 91202;
0154066820999992011101812004+46917+009183FM-12+096599999V0203301N000512200019N0700001N1+01431-00181999999ADDGA1001+999999999GF100991001001999999001001MA1999999090841ME1315189REMSYN076AAXX  18124 06682 32/88 03301 10143 21018 39084 48518 5//// 333 553// 22020;
0112066820999992011101813004+46917+009183FM-12+096599999V0202101N000519999999N9999999N1+01481+00021999999ADDMA1999999090791ME1315149REMSYN076AAXX  18134 06682 33/// /2101 10148 20002 39079 48514 5//// 333 553// 21768;
0112066820999992011101814004+46917+009183FM-12+096599999V0203201N001019999999N9999999N1+01391-00181999999ADDMA1999999090771ME1315109REMSYN076AAXX  18144 06682 33/// /3202 10139 21018 39077 48510 5//// 333 553// 21494;
0149066820999992011101815004+46917+009183FM-12+096599999V0201801N000519999999N9999999N1+01241+00051999999ADDMA1999999090771MD1519999+9999ME1315079OA149900361REMSYN088AAXX  18154 06682 33/// /1801 10124 20005 39077 48507 55/// 333 55308 21001 91107 91204;
0149066820999992011101816004+46917+009183FM-12+096599999V0201701N001519999999N9999999N1+00841+00201999999ADDMA1999999090771MD1710021+9999ME1314999OA149900261REMSYN088AAXX  18164 06682 33/// /1703 10084 20020 39077 48499 57002 333 55300 20097 91105 91203;
0149066820999992011101817004+46917+009183FM-12+096599999V0201601N001019999999N9999999N1+00721+00171999999ADDMA1999999090791MD1319999+9999ME1314999OA149900461REMSYN088AAXX  18174 06682 33/// /1602 10072 20017 39079 48499 53/// 333 55300 20011 91109 91205;
0197066820999992011101818004+46917+009183FM-12+096599999V0201501N001512200019N0700001N1+00781+00071999999ADDGA1001+999999999GF100991001001999999001001IA1099KA1120M+01511MA1999999090791ME1315009REMSYN100AAXX  18184 06682 32/88 01503 10078 20007 39079 48500 5//// 333 10151 31/// 553// 20000 90766 93100;
0112066820999992011101819004+46917+009183FM-12+096599999V0201501N001519999999N9999999N1+00541+00121999999ADDMA1999999090781ME1314949REMSYN076AAXX  18194 06682 33/// /1503 10054 20012 39078 48494 5//// 333 553// 20000;
0112066820999992011101820004+46917+009183FM-12+096599999V0201501N001019999999N9999999N1+00751+00101999999ADDMA1999999090741ME1314959REMSYN076AAXX  18204 06682 33/// /1502 10075 20010 39074 48495 5//// 333 553// 20000;
0149066820999992011101821004+46917+009183FM-12+096599999V0202001N001019999999N9999999N1+00621+00041999999ADDMA1999999090731MD1719999+9999ME1314919OA149900511REMSYN088AAXX  18214 06682 33/// /2002 10062 20004 39073 48491 57/// 333 55300 20000 91110 91205;
0149066820999992011101822004+46917+009183FM-12+096599999V0201601N001519999999N9999999N1+00731+00001999999ADDMA1999999090691MD1719999+9999ME1314909OA149900461REMSYN088AAXX  18224 06682 33/// /1603 10073 20000 39069 48490 57/// 333 55300 20000 91109 91204;
0112066820999992011101823004+46917+009183FM-12+096599999V0201701N002119999999N9999999N1+00851-00031999999ADDMA1999999090651ME1314899REMSYN076AAXX  18234 06682 33/// /1704 10085 21003 39065 48489 5//// 333 553// 20000;
0149066820999992011101900004+46917+009183FM-12+096599999V0201701N001019999999N9999999N1+00841+00021999999ADDMA1999999090631MD1619999+9999ME1314879OA149900511REMSYN088AAXX  19004 06682 33/// /1702 10084 20002 39063 48487 56/// 333 55300 20000 91110 91205;
0149066820999992011101901004+46917+009183FM-12+096599999V0201501N001019999999N9999999N1+00881+00111999999ADDMA1999999090581MD1810111+9999ME1314839OA149900361REMSYN088AAXX  19014 06682 33/// /1502 10088 20011 39058 48483 58011 333 55300 20000 91107 91204;
0112066820999992011101902004+46917+009183FM-12+096599999V0201601N000519999999N9999999N1+00591+00121999999ADDMA1999999090581ME1314779REMSYN076AAXX  19024 06682 33/// /1601 10059 20012 39058 48477 5//// 333 553// 20000;
0112066820999992011101903004+46917+009183FM-12+096599999V0201701N000519999999N9999999N1+00451+00171999999ADDMA1999999090581ME1314759REMSYN076AAXX  19034 06682 33/// /1701 10045 20017 39058 48475 5//// 333 553// 20000;
0149066820999992011101904004+46917+009183FM-12+096599999V0201901N001019999999N9999999N1+00681+00201999999ADDMA1999999090551MD1719999+9999ME1314769OA149900261REMSYN088AAXX  19044 06682 33/// /1902 10068 20020 39055 48476 57/// 333 55300 20000 91105 91203;
0149066820999992011101905004+46917+009183FM-12+096599999V0201301N010819999999N9999999N1+01281-00171999999ADDMA1999999090491MD1710091+9999ME1314829OA149901901REMSYN088AAXX  19054 06682 33/// /1321 10128 21017 39049 48482 57009 333 55300 20004 91137 91222;
0260066820999992011101906004+46917+009183FM-12+096599999V0201401N011319999999N0600001N1+01311-00191999999ADDAL19900091GF108991999999999999999999GJ103909IA1099IA2999+00209KA1999N+00451MA1999999090461MD1719999+9999ME1314809OA149902261REMSYN124AAXX  19064 06682 32/86 81422 10131 21019 39046 48480 57/// 333 20045 31002 55065 55300 20000 70000 90768 93100 91144 91225;
0149066820999992011101907004+46917+009183FM-12+096599999V0201401N006219999999N9999999N1+01351-00031999999ADDMA1999999090461MD1719999+9999ME1314819OA149901851REMSYN088AAXX  19074 06682 33/// /1412 10135 21003 39046 48481 57/// 333 55300 20094 91136 91218;
0112066820999992011101908004+46917+009183FM-12+096599999V0201101N006219999999N9999999N1+01361+00091999999ADDMA1999999090481ME1314839REMSYN076AAXX  19084 06682 33/// /1112 10136 20009 39048 48483 5//// 333 553// 20277;
0149066820999992011101909004+46917+009183FM-12+096599999V0201801N002119999999N9999999N1+01391+00111999999ADDMA1999999090461MD1719999+9999ME1314829OA149901851REMSYN088AAXX  19094 06682 33/// /1804 10139 20011 39046 48482 57/// 333 55300 20504 91136 91218;
0149066820999992011101910004+46917+009183FM-12+096599999V0201501N003119999999N9999999N1+01401+00151999999ADDMA1999999090441MD1819999+9999ME1314809OA149900931REMSYN088AAXX  19104 06682 33/// /1506 10140 20015 39044 48480 58/// 333 55300 20623 91118 91207;
0149066820999992011101911004+46917+009183FM-12+096599999V0203301N005119999999N9999999N1+00901+00571999999ADDMA1999999090491MD1310011+9999ME1314759OA149900931REMSYN088AAXX  19114 06682 33/// /3310 10090 20057 39049 48475 53001 333 55300 20497 91118 91210;
0138066820999992011101912004+46917+009183FM-12+096599999V0203301N004119999999N0600001N1+00791+00531999999ADDGF108991999999999999999999MA1999999090501ME1314749REMSYN076AAXX  19124 06682 32/86 83308 10079 20053 39050 48474 5//// 333 553// 20590;
0112066820999992011101913004+46917+009183FM-12+096599999V0203301N003619999999N9999999N1+00671+00471999999ADDMA1999999090531ME1314749REMSYN076AAXX  19134 06682 33/// /3307 10067 20047 39053 48474 5//// 333 553// 20482;
0112066820999992011101914004+46917+009183FM-12+096599999V0203201N003119999999N9999999N1+00561+00411999999ADDMA1999999090601ME1314799REMSYN076AAXX  19144 06682 33/// /3206 10056 20041 39060 48479 5//// 333 553// 20133;
0149066820999992011101915004+46917+009183FM-12+096599999V0203301N005119999999N9999999N1+00491+00211999999ADDMA1999999090701MD1310201+9999ME1314869OA149901031REMSYN088AAXX  19154 06682 33/// /3310 10049 20021 39070 48486 53020 333 55300 20072 91120 91210;
0155066820999992011101916004+46917+009183FM-12+096599999V0203301N002619999999N9999999N1+00291+00181999999ADDMA1999999090831MD1210301+9999ME1314949OA149900931REMSYN094AAXX  19164 06682 23/// /3305 10029 20018 39083 48494 52030 333 55300 20022 69965 91118 91210;
0155066820999992011101917004+46917+009183FM-12+096599999V0200101N001519999999N9999999N1+00141+00071999999ADDMA1999999090981MD1210381+9999ME1315049OA149900571REMSYN094AAXX  19174 06682 23/// /0103 10014 20007 39098 48504 52038 333 55300 20000 69985 91111 91206;
0241066820999992011101918004+46917+009183FM-12+096599999V0209999C000519999999N0008001N1+00011+00011999999ADDAA112003091AL19900091AY171061AY261061KA1120M+01401MA1999999091061MD1210361+9999ME1315089MW1691OA149901031REMSYN124AAXX  19184 06682 01/08 /0001 10001 20001 39106 48508 52036 60032 76976 333 10140 55300 20000 60025 90766 93100 91120 91210;
0155066820999992011101919004+46917+009183FM-12+096599999V0200201N000519999999N9999999N1+00001+00001999999ADDMA1999999091081MD1219999+9999ME1315109OA149900151REMSYN094AAXX  19194 06682 23/// /0201 10000 20000 39108 48510 52/// 333 55300 20000 69955 91103 91202;
0118066820999992011101920004+46917+009183FM-12+096599999V0203501N000519999999N9999999N1+00011-00011999999ADDMA1999999091091ME1315119REMSYN082AAXX  19204 06682 23/// /3501 10001 21001 39109 48511 5//// 333 553// 20000 69975;
0155066820999992011101921004+46917+009183FM-12+096599999V0209999C000019999999N9999999N1-00011-00011999999ADDMA1999999091141MD1319999+9999ME1315159OA149900151REMSYN094AAXX  19214 06682 23/// /0000 11001 21001 39114 48515 53/// 333 55300 20000 69995 91103 91202;
0155066820999992011101922004+46917+009183FM-12+096599999V0203301N000519999999N9999999N1-00011-00011999999ADDMA1999999091141MD1210061+9999ME1315159OA149900051REMSYN094AAXX  19224 06682 23/// /3301 11001 21001 39114 48515 52006 333 55300 20000 60015 91101 91201;
0155066820999992011101923004+46917+009183FM-12+096599999V0209999C000019999999N9999999N1-00021-00021999999ADDMA1999999091131MD1019999+9999ME1315139OA149900051REMSYN094AAXX  19234 06682 23/// /0000 11002 21002 39113 48513 50/// 333 55300 20000 69935 91101 91200;
0172066820999992011102000004+46917+009183FM-12+096599999V0209999C000019999999N9999999N1+00011+00001999999ADDAA106004191MA1999999091161MD1210021+9999ME1315179OA149900151REMSYN100AAXX  20004 06682 03/// /0000 10001 20000 39116 48517 52002 60041 333 55300 20000 69975 91103 91202;
0155066820999992011102001004+46917+009183FM-12+096599999V0209999C000019999999N9999999N1+00021-00011999999ADDMA1999999091161MD1219999+9999ME1315179OA149900051REMSYN094AAXX  20014 06682 23/// /0000 10002 21001 39116 48517 52/// 333 55300 20000 69945 91101 91200;
0112066820999992011102002004+46917+009183FM-12+096599999V0209999C000019999999N9999999N1+00021+00001999999ADDMA1999999091171ME1315189REMSYN076AAXX  20024 06682 33/// /0000 10002 20000 39117 48518 5//// 333 553// 20000;
0112066820999992011102003004+46917+009183FM-12+096599999V0209999C000019999999N9999999N1+00051+00001999999ADDMA1999999091151ME1315179REMSYN076AAXX  20034 06682 33/// /0000 10005 20000 39115 48517 5//// 333 553// 20000;
0149066820999992011102004004+46917+009183FM-12+096599999V0209999C000019999999N9999999N1+00041+00011999999ADDMA1999999091201MD1219999+9999ME1315219OA149900101REMSYN088AAXX  20044 06682 33/// /0000 10004 20001 39120 48521 52/// 333 55300 20000 91102 91201;
0149066820999992011102005004+46917+009183FM-12+096599999V0201901N000519999999N9999999N1+00091+00031999999ADDMA1999999091251MD1210081+9999ME1315269OA149900101REMSYN088AAXX  20054 06682 33/// /1901 10009 20003 39125 48526 52008 333 55300 20000 91102 91201;
0297066820999992011102006004+46917+009183FM-12+096599999V0201001N000519999999N0500001N1+00111-00011999999ADDAA112005191AJ100059199999999AL12400791AY171061AY221061GF108991999999999999999999GJ100009IA1279IA2999+00009KA1999N-00021MA1999999091271ME1315289MW1021REMSYN136AAXX  20064 06682 01/84 81001 10011 21001 39127 48528 5//// 60052 70272 333 21002 3/100 43005 55000 553// 20000 60005 70074 90768 93105;
0149066820999992011102007004+46917+009183FM-12+096599999V0201301N000519999999N9999999N1+00061+00021999999ADDMA1999999091341MD1319999+9999ME1315339OA149900051REMSYN088AAXX  20074 06682 33/// /1301 10006 20002 39134 48533 53/// 333 55300 20058 91101 91201;
0112066820999992011102008004+46917+009183FM-12+096599999V0201501N001019999999N9999999N1+00161-00011999999ADDMA1999999091351ME1315369REMSYN076AAXX  20084 06682 33/// /1502 10016 21001 39135 48536 5//// 333 553// 20256;
0149066820999992011102009004+46917+009183FM-12+096599999V0203301N000519999999N9999999N1+00191+00051999999ADDMA1999999091361MD1119999+9999ME1315389OA149900151REMSYN088AAXX  20094 06682 33/// /3301 10019 20005 39136 48538 51/// 333 55300 20608 91103 91202;
0149066820999992011102010004+46917+009183FM-12+096599999V0203001N000519999999N9999999N1+00251-00011999999ADDMA1999999091381MD1219999+9999ME1315419OA149900211REMSYN088AAXX  20104 06682 33/// /3001 10025 21001 39138 48541 52/// 333 55300 20767 91104 91202;
0149066820999992011102011004+46917+009183FM-12+096599999V0200201N000519999999N9999999N1+00311-00051999999ADDMA1999999091361MD1019999+9999ME1315419OA149900211REMSYN088AAXX  20114 06682 33/// /0201 10031 21005 39136 48541 50/// 333 55300 20986 91104 91202;
0138066820999992011102012004+46917+009183FM-12+096599999V0203401N001019999999N0600001N1+00361-00081999999ADDGF107991999999999999999999MA1999999091341ME1315409REMSYN076AAXX  20124 06682 32/86 73402 10036 21008 39134 48540 5//// 333 553// 21066;
0112066820999992011102013004+46917+009183FM-12+096599999V0203201N001519999999N9999999N1+00521+00091999999ADDMA1999999091321ME1315429REMSYN076AAXX  20134 06682 33/// /3203 10052 20009 39132 48542 5//// 333 553// 21930;
0112066820999992011102014004+46917+009183FM-12+096599999V0203301N001519999999N9999999N1+00401+00081999999ADDMA1999999091331ME1315409REMSYN076AAXX  20144 06682 33/// /3303 10040 20008 39133 48540 5//// 333 553// 20994;
0112066820999992011102015004+46917+009183FM-12+096599999V0203101N001019999999N9999999N1+00411+00101999999ADDMA1999999091341ME1315419REMSYN076AAXX  20154 06682 33/// /3102 10041 20010 39134 48541 5//// 333 553// 20407;
0149066820999992011102016004+46917+009183FM-12+096599999V0209999C000019999999N9999999N1+00321+00091999999ADDMA1999999091361MD1219999+9999ME1315419OA149900261REMSYN088AAXX  20164 06682 33/// /0000 10032 20009 39136 48541 52/// 333 55300 20227 91105 91203;
0149066820999992011102017004+46917+009183FM-12+096599999V0209999C000019999999N9999999N1+00261+00111999999ADDMA1999999091401MD1210071+9999ME1315439OA149900051REMSYN088AAXX  20174 06682 33/// /0000 10026 20011 39140 48543 52007 333 55300 20011 91101 91201;
0181066820999992011102018004+46917+009183FM-12+096599999V0209999C000019999999N0400001N1+00211+00101999999ADDGF108991999999999999999999IA1099KA1120M+00521MA1999999091461ME1315479REMSYN100AAXX  20184 06682 32/82 80000 10021 20010 39146 48547 5//// 333 10052 31/// 553// 20000 90766 93100;
0112066820999992011102019004+46917+009183FM-12+096599999V0201501N000519999999N9999999N1+00231+00101999999ADDMA1999999091451ME1315479REMSYN076AAXX  20194 06682 33/// /1501 10023 20010 39145 48547 5//// 333 553// 20000;
0112066820999992011102020004+46917+009183FM-12+096599999V0202001N000519999999N9999999N1+00211+00101999999ADDMA1999999091471ME1315489REMSYN076AAXX  20204 06682 33/// /2001 10021 20010 39147 48548 5//// 333 553// 20000;
0112066820999992011102021004+46917+009183FM-12+096599999V0201701N000519999999N9999999N1+00221+00111999999ADDMA1999999091461ME1315479REMSYN076AAXX  20214 06682 33/// /1701 10022 20011 39146 48547 5//// 333 553// 20000;
0149066820999992011102022004+46917+009183FM-12+096599999V0202201N000519999999N9999999N1+00151+00061999999ADDMA1999999091461MD1019999+9999ME1315469OA149900101REMSYN088AAXX  20224 06682 33/// /2201 10015 20006 39146 48546 50/// 333 55300 20000 91102 91201;
0112066820999992011102023004+46917+009183FM-12+096599999V0202101N000519999999N9999999N1+00101+00061999999ADDMA1999999091441ME1315439REMSYN076AAXX  20234 06682 33/// /2101 10010 20006 39144 48543 5//// 333 553// 20000;
0112066820999992011102100004+46917+009183FM-12+096599999V0203201N000519999999N9999999N1+00001-00021999999ADDMA1999999091441ME1315419REMSYN076AAXX  21004 06682 33/// /3201 10000 21002 39144 48541 5//// 333 553// 20000;
0112066820999992011102101004+46917+009183FM-12+096599999V0201701N000519999999N9999999N1-00041-00071999999ADDMA1999999091441ME1315409REMSYN076AAXX  21014 06682 33/// /1701 11004 21007 39144 48540 5//// 333 553// 20000;
0112066820999992011102102004+46917+009183FM-12+096599999V0201901N000519999999N9999999N1-00121-00161999999ADDMA1999999091411ME1315369REMSYN076AAXX  21024 06682 33/// /1901 11012 21016 39141 48536 5//// 333 553// 20000;
0112066820999992011102103004+46917+009183FM-12+096599999V0201701N001019999999N9999999N1-00061-00161999999ADDMA1999999091371ME1315339REMSYN076AAXX  21034 06682 33/// /1702 11006 21016 39137 48533 5//// 333 553// 20000;
0112066820999992011102104004+46917+009183FM-12+096599999V0201801N001019999999N9999999N1-00231-00321999999ADDMA1999999091351ME1315289REMSYN076AAXX  21044 06682 33/// /1802 11023 21032 39135 48528 5//// 333 553// 20000;
0149066820999992011102105004+46917+009183FM-12+096599999V0201501N000519999999N9999999N1-00251-00361999999ADDMA1999999091361MD1510051+9999ME1315289OA149900211REMSYN088AAXX  21054 06682 33/// /1501 11025 21036 39136 48528 55005 333 55300 20000 91104 91203;
0276066820999992011102106004+46917+009183FM-12+096599999V0201701N001512200019N0700001N1-00181-00401999999ADDAL19900091GA1001+999999999GF100991001001999999001001GJ100549IA1149IA2999-00609KA1999N-00331MA1999999091381MD1319999+9999ME1315329OA149900211REMSYN124AAXX  21064 06682 32/88 01703 11018 21040 39138 48532 53/// 333 21033 34106 55009 55300 20000 70000 90768 93100 91104 91203;
0112066820999992011102107004+46917+009183FM-12+096599999V0201301N001019999999N9999999N1-00231-00401999999ADDMA1999999091421ME1315349REMSYN076AAXX  21074 06682 33/// /1302 11023 21040 39142 48534 5//// 333 553// 20043;
0112066820999992011102108004+46917+009183FM-12+096599999V0201601N002119999999N9999999N1-00171-00421999999ADDMA1999999091421ME1315359REMSYN076AAXX  21084 06682 33/// /1604 11017 21042 39142 48535 5//// 333 553// 20094;
0112066820999992011102109004+46917+009183FM-12+096599999V0201501N001519999999N9999999N1+00011-00371999999ADDMA1999999091411ME1315389REMSYN076AAXX  21094 06682 33/// /1503 10001 21037 39141 48538 5//// 333 553// 20932;
0149066820999992011102110004+46917+009183FM-12+096599999V0201701N001519999999N9999999N1+00131-00381999999ADDMA1999999091391MD1719999+9999ME1315399OA149900311REMSYN088AAXX  21104 06682 33/// /1703 10013 21038 39139 48539 57/// 333 55310 21793 91106 91204;
0149066820999992011102111004+46917+009183FM-12+096599999V0201901N002119999999N9999999N1+00351-00211999999ADDMA1999999091371MD1719999+9999ME1315429OA149900311REMSYN088AAXX  21114 06682 33/// /1904 10035 21021 39137 48542 57/// 333 55310 22030 91106 91204;
0138066820999992011102112004+46917+009183FM-12+096599999V0201501N001512200019N0700001N1+00481-00351999999ADDGF101991999999999999999999MA1999999091291ME1315389REMSYN076AAXX  21124 06682 32/88 11503 10048 21035 39129 48538 5//// 333 553// 22052;
0112066820999992011102113004+46917+009183FM-12+096599999V0203301N002119999999N9999999N1+00611-00231999999ADDMA1999999091261ME1315389REMSYN076AAXX  21134 06682 33/// /3304 10061 21023 39126 48538 5//// 333 553// 21879;
0112066820999992011102114004+46917+009183FM-12+096599999V0203101N000519999999N9999999N1+00521-00311999999ADDMA1999999091271ME1315379REMSYN076AAXX  21144 06682 33/// /3101 10052 21031 39127 48537 5//// 333 553// 21519;
0112066820999992011102115004+46917+009183FM-12+096599999V0203201N000519999999N9999999N1+00331-00171999999ADDMA1999999091271ME1315339REMSYN076AAXX  21154 06682 33/// /3201 10033 21017 39127 48533 5//// 333 553// 20828;
0112066820999992011102116004+46917+009183FM-12+096599999V0201601N001019999999N9999999N1+00091-00201999999ADDMA1999999091271ME1315289REMSYN076AAXX  21164 06682 33/// /1602 10009 21020 39127 48528 5//// 333 553// 20076;
0149066820999992011102117004+46917+009183FM-12+096599999V0201501N001019999999N9999999N1+00001-00211999999ADDMA1999999091311MD1219999+9999ME1315299OA149900261REMSYN088AAXX  21174 06682 33/// /1502 10000 21021 39131 48529 52/// 333 55300 20007 91105 91203;
0197066820999992011102118004+46917+009183FM-12+096599999V0201801N001512200019N0700001N1+00051-00271999999ADDGA1001+999999999GF100991001001999999001001IA1099KA1120M+00611MA1999999091351ME1315349REMSYN100AAXX  21184 06682 32/88 01803 10005 21027 39135 48534 5//// 333 10061 31/// 553// 20000 90766 93100;
0149066820999992011102119004+46917+009183FM-12+096599999V0201401N002119999999N9999999N1-00061-00371999999ADDMA1999999091311MD1019999+9999ME1315289OA149900311REMSYN088AAXX  21194 06682 33/// /1404 11006 21037 39131 48528 50/// 333 55300 20000 91106 91204;
0112066820999992011102120004+46917+009183FM-12+096599999V0201801N001519999999N9999999N1-00061-00401999999ADDMA1999999091291ME1315269REMSYN076AAXX  21204 06682 33/// /1803 11006 21040 39129 48526 5//// 333 553// 20000;
0112066820999992011102121004+46917+009183FM-12+096599999V0201501N001519999999N9999999N1-00091-00471999999ADDMA1999999091281ME1315259REMSYN076AAXX  21214 06682 33/// /1503 11009 21047 39128 48525 5//// 333 553// 20000;
0112066820999992011102122004+46917+009183FM-12+096599999V0201401N001019999999N9999999N1-00211-00481999999ADDMA1999999091251ME1315209REMSYN076AAXX  21224 06682 33/// /1402 11021 21048 39125 48520 5//// 333 553// 20000;
0112066820999992011102123004+46917+009183FM-12+096599999V0201801N002119999999N9999999N1-00181-00541999999ADDMA1999999091221ME1315189REMSYN076AAXX  21234 06682 33/// /1804 11018 21054 39122 48518 5//// 333 553// 20000;
0112066820999992011102200004+46917+009183FM-12+096599999V0201801N001519999999N9999999N1-00191-00571999999ADDMA1999999091161ME1315129REMSYN076AAXX  22004 06682 33/// /1803 11019 21057 39116 48512 5//// 333 553// 20000;
0112066820999992011102201004+46917+009183FM-12+096599999V0201801N000519999999N9999999N1-00351-00621999999ADDMA1999999091141ME1315079REMSYN076AAXX  22014 06682 33/// /1801 11035 21062 39114 48507 5//// 333 553// 20000;
0112066820999992011102202004+46917+009183FM-12+096599999V0201601N001519999999N9999999N1-00221-00661999999ADDMA1999999091121ME1315089REMSYN076AAXX  22024 06682 33/// /1603 11022 21066 39112 48508 5//// 333 553// 20000;
0112066820999992011102203004+46917+009183FM-12+096599999V0201701N001519999999N9999999N1-00361-00681999999ADDMA1999999091121ME1315069REMSYN076AAXX  22034 06682 33/// /1703 11036 21068 39112 48506 5//// 333 553// 20000;
0112066820999992011102204004+46917+009183FM-12+096599999V0201601N001519999999N9999999N1-00261-00711999999ADDMA1999999091111ME1315079REMSYN076AAXX  22044 06682 33/// /1603 11026 21071 39111 48507 5//// 333 553// 20000;
0149066820999992011102205004+46917+009183FM-12+096599999V0201601N001519999999N9999999N1-00301-00751999999ADDMA1999999091151MD1319999+9999ME1315099OA149900261REMSYN088AAXX  22054 06682 33/// /1603 11030 21075 39115 48509 53/// 333 55300 20000 91105 91203;
0239066820999992011102206004+46917+009183FM-12+096599999V0201701N001512200019N0700001N1-00311-00731999999ADDAL19900091GA1001+999999999GF100991001001999999001001GJ103849IA1149IA2999-00709KA1999N-00451MA1999999091171ME1315119REMSYN112AAXX  22064 06682 32/88 01703 11031 21073 39117 48511 5//// 333 21045 34107 55064 553// 20000 70000 90768 93100;
0112066820999992011102207004+46917+009183FM-12+096599999V0201601N002119999999N9999999N1-00321-00721999999ADDMA1999999091161ME1315109REMSYN076AAXX  22074 06682 33/// /1604 11032 21072 39116 48510 5//// 333 553// 20040;
0112066820999992011102208004+46917+009183FM-12+096599999V0201701N001519999999N9999999N1-00231-00731999999ADDMA1999999091161ME1315129REMSYN076AAXX  22084 06682 33/// /1703 11023 21073 39116 48512 5//// 333 553// 20094;
0096066820999992011102209004+46917+009183FM-12+096599999V0201601N002619999999N9999999N1+00131-00661999999ADDMA1999999091151ME1315189REMSYN060AAXX  22094 06682 43/// /1605 10013 21066 39115 48518 5////;
0112066820999992011102210004+46917+009183FM-12+096599999V0201701N001519999999N9999999N1+00311-00681999999ADDMA1999999091141ME1315219REMSYN076AAXX  22104 06682 33/// /1703 10031 21068 39114 48521 5//// 333 553// 21789;
0112066820999992011102211004+46917+009183FM-12+096599999V0201901N001519999999N9999999N1+00521-00441999999ADDMA1999999091121ME1315249REMSYN076AAXX  22114 06682 33/// /1903 10052 21044 39112 48524 5//// 333 553// 22023;
0112066820999992011102212004+46917+009183FM-12+096599999V0201701N001019999999N9999999N1+00741-00431999999ADDMA1999999091071ME1315249REMSYN076AAXX  22124 06682 33/// /1702 10074 21043 39107 48524 5//// 333 553// 22034;
0112066820999992011102213004+46917+009183FM-12+096599999V0203201N002119999999N9999999N1+00781-00341999999ADDMA1999999091031ME1315219REMSYN076AAXX  22134 06682 33/// /3204 10078 21034 39103 48521 5//// 333 553// 21854;
0112066820999992011102214004+46917+009183FM-12+096599999V0203201N000519999999N9999999N1+00721-00221999999ADDMA1999999091011ME1315189REMSYN076AAXX  22144 06682 33/// /3201 10072 21022 39101 48518 5//// 333 553// 21490;
0112066820999992011102215004+46917+009183FM-12+096599999V0203201N001019999999N9999999N1+00381-00161999999ADDMA1999999091011ME1315119REMSYN076AAXX  22154 06682 33/// /3202 10038 21016 39101 48511 5//// 333 553// 20803;
0112066820999992011102216004+46917+009183FM-12+096599999V0201501N001519999999N9999999N1+00151-00251999999ADDMA1999999091011ME1315079REMSYN076AAXX  22164 06682 33/// /1503 10015 21025 39101 48507 5//// 333 553// 20072;
0149066820999992011102217004+46917+009183FM-12+096599999V0201601N001519999999N9999999N1+00161-00371999999ADDMA1999999091011MD1719999+9999ME1315079OA149900361REMSYN088AAXX  22174 06682 33/// /1603 10016 21037 39101 48507 57/// 333 55300 20007 91107 91204;
0197066820999992011102218004+46917+009183FM-12+096599999V0201501N001512200019N0700001N1+00041-00421999999ADDGA1001+999999999GF100991001001999999001001IA1099KA1120M+00781MA1999999091031ME1315069REMSYN100AAXX  22184 06682 32/88 01503 10004 21042 39103 48506 5//// 333 10078 31/// 553// 20000 90766 93100;
0112066820999992011102219004+46917+009183FM-12+096599999V0201601N001519999999N9999999N1-00011-00411999999ADDMA1999999091001ME1315029REMSYN076AAXX  22194 06682 33/// /1603 11001 21041 39100 48502 5//// 333 553// 20000;
0112066820999992011102220004+46917+009183FM-12+096599999V0201801N001519999999N9999999N1-00101-00451999999ADDMA1999999090991ME1315009REMSYN076AAXX  22204 06682 33/// /1803 11010 21045 39099 48500 5//// 333 553// 20000;
0149066820999992011102221004+46917+009183FM-12+096599999V0201801N001519999999N9999999N1-00121-00511999999ADDMA1999999091011MD1519999+9999ME1315019OA149900361REMSYN088AAXX  22214 06682 33/// /1803 11012 21051 39101 48501 55/// 333 55300 20000 91107 91205;
0112066820999992011102222004+46917+009183FM-12+096599999V0201501N002119999999N9999999N1-00071-00581999999ADDMA1999999091011ME1315029REMSYN076AAXX  22224 06682 33/// /1504 11007 21058 39101 48502 5//// 333 553// 20000;
0112066820999992011102223004+46917+009183FM-12+096599999V0201801N001519999999N9999999N1-00041-00641999999ADDMA1999999091001ME1315029REMSYN076AAXX  22234 06682 33/// /1803 11004 21064 39100 48502 5//// 333 553// 20000;
0112066820999992011102300004+46917+009183FM-12+096599999V0201401N001519999999N9999999N1-00081-00581999999ADDMA1999999090991ME1315009REMSYN076AAXX  23004 06682 33/// /1403 11008 21058 39099 48500 5//// 333 553// 20000;
0112066820999992011102301004+46917+009183FM-12+096599999V0201601N001519999999N9999999N1-00131-00621999999ADDMA1999999090991ME1314999REMSYN076AAXX  23014 06682 33/// /1603 11013 21062 39099 48499 5//// 333 553// 20000;
0096066820999992011102302004+46917+009183FM-12+096599999V0201501N001519999999N9999999N1-00111-00671999999ADDMA1999999090991ME1314999REMSYN060AAXX  23024 06682 43/// /1503 11011 21067 39099 48499 5////;
0096066820999992011102303004+46917+009183FM-12+096599999V0201501N001019999999N9999999N1-00261-00591999999ADDMA1999999090971ME1314959REMSYN060AAXX  23034 06682 43/// /1502 11026 21059 39097 48495 5////;
0112066820999992011102304004+46917+009183FM-12+096599999V0201701N001519999999N9999999N1-00261-00601999999ADDMA1999999090981ME1314969REMSYN076AAXX  23044 06682 33/// /1703 11026 21060 39098 48496 5//// 333 553// 20000;
0149066820999992011102305004+46917+009183FM-12+096599999V0201501N001519999999N9999999N1-00191-00601999999ADDMA1999999090961MD1710031+9999ME1314959OA149900261REMSYN088AAXX  23054 06682 33/// /1503 11019 21060 39096 48495 57003 333 55300 20000 91105 91204;
0276066820999992011102306004+46917+009183FM-12+096599999V0201801N001512200019N0700001N1-00061-00621999999ADDAL19900091GA1001+999999999GF100991001001999999001001GJ103849IA1149IA2999-00609KA1999N-00271MA1999999090931MD1719999+9999ME1314959OA149900311REMSYN124AAXX  23064 06682 32/88 01803 11006 21062 39093 48495 57/// 333 21027 34106 55064 55300 20000 70000 90768 93100 91106 91204;
0149066820999992011102307004+46917+009183FM-12+096599999V0201601N001519999999N9999999N1-00041-00581999999ADDMA1999999090931MD1610051+9999ME1314969OA149900261REMSYN088AAXX  23074 06682 33/// /1603 11004 21058 39093 48496 56005 333 55300 20040 91105 91204;
0112066820999992011102308004+46917+009183FM-12+096599999V0201801N001519999999N9999999N1-00111-00501999999ADDMA1999999090891ME1314919REMSYN076AAXX  23084 06682 33/// /1803 11011 21050 39089 48491 5//// 333 553// 20094;
0149066820999992011102309004+46917+009183FM-12+096599999V0201601N002119999999N9999999N1+00331-00481999999ADDMA1999999090831MD1819999+9999ME1314949OA149900411REMSYN088AAXX  23094 06682 33/// /1604 10033 21048 39083 48494 58/// 333 55305 20781 91108 91205;
0112066820999992011102310004+46917+009183FM-12+096599999V0201601N001519999999N9999999N1+00491-00321999999ADDMA1999999090791ME1314949REMSYN076AAXX  23104 06682 33/// /1603 10049 21032 39079 48494 5//// 333 553// 21746;
0112066820999992011102311004+46917+009183FM-12+096599999V0201801N002119999999N9999999N1+00671-00441999999ADDMA1999999090741ME1314939REMSYN076AAXX  23114 06682 33/// /1804 10067 21044 39074 48493 5//// 333 553// 21984;
0154066820999992011102312004+46917+009183FM-12+096599999V0201601N001012200019N0700001N1+00891-00451999999ADDGA1001+999999999GF100991001001999999001001MA1999999090631ME1314889REMSYN076AAXX  23124 06682 32/88 01602 10089 21045 39063 48488 5//// 333 553// 22016;
0149066820999992011102313004+46917+009183FM-12+096599999V0203301N002119999999N9999999N1+00901-00431999999ADDMA1999999090551MD1819999+9999ME1314819OA149900361REMSYN088AAXX  23134 06682 33/// /3304 10090 21043 39055 48481 58/// 333 55310 21843 91107 91205;
0112066820999992011102314004+46917+009183FM-12+096599999V0203201N001019999999N9999999N1+00871-00271999999ADDMA1999999090511ME1314769REMSYN076AAXX  23144 06682 33/// /3202 10087 21027 39051 48476 5//// 333 553// 21480;
0149066820999992011102315004+46917+009183FM-12+096599999V0203201N000519999999N9999999N1+00471-00181999999ADDMA1999999090461MD1619999+9999ME1314649OA149900361REMSYN088AAXX  23154 06682 33/// /3201 10047 21018 39046 48464 56/// 333 55307 20781 91107 91205;
0149066820999992011102316004+46917+009183FM-12+096599999V0201601N001019999999N9999999N1+00171-00241999999ADDMA1999999090461MD1710091+9999ME1314599OA149900151REMSYN088AAXX  23164 06682 33/// /1602 10017 21024 39046 48459 57009 333 55300 20065 91103 91202;
0149066820999992011102317004+46917+009183FM-12+096599999V0201801N001019999999N9999999N1+00111-00311999999ADDMA1999999090461MD1710051+9999ME1314589OA149900261REMSYN088AAXX  23174 06682 33/// /1802 10011 21031 39046 48458 57005 333 55300 20004 91105 91203;
0244066820999992011102318004+46917+009183FM-12+096599999V0201801N001012200019N0700001N1+00031-00321999999ADDAL19900091GA1001+999999999GF100991001001999999001001IA1099KA1120M+00981MA1999999090481MD1219999+9999ME1314589OA149900361REMSYN112AAXX  23184 06682 32/88 01802 10003 21032 39048 48458 52/// 333 10098 31/// 55300 20000 90766 93100 91107 91205;
0149066820999992011102319004+46917+009183FM-12+096599999V0201601N001519999999N9999999N1+00091-00401999999ADDMA1999999090471MD1219999+9999ME1314589OA149900261REMSYN088AAXX  23194 06682 33/// /1603 10009 21040 39047 48458 52/// 333 55300 20000 91105 91203;
0112066820999992011102320004+46917+009183FM-12+096599999V0201601N001519999999N9999999N1+00101-00401999999ADDMA1999999090441ME1314569REMSYN076AAXX  23204 06682 33/// /1603 10010 21040 39044 48456 5//// 333 553// 20000;
0112066820999992011102321004+46917+009183FM-12+096599999V0201701N001019999999N9999999N1-00111-00401999999ADDMA1999999090431ME1314519REMSYN076AAXX  23214 06682 33/// /1702 11011 21040 39043 48451 5//// 333 553// 20000;
0112066820999992011102322004+46917+009183FM-12+096599999V0201401N001519999999N9999999N1-00111-00401999999ADDMA1999999090431ME1314519REMSYN076AAXX  23224 06682 33/// /1403 11011 21040 39043 48451 5//// 333 553// 20000;
0112066820999992011102323004+46917+009183FM-12+096599999V0201901N001019999999N9999999N1-00051-00371999999ADDMA1999999090421ME1314519REMSYN076AAXX  23234 06682 33/// /1902 11005 21037 39042 48451 5//// 333 553// 20000;
0112066820999992011102400004+46917+009183FM-12+096599999V0201701N001019999999N9999999N1-00051-00441999999ADDMA1999999090401ME1314499REMSYN076AAXX  24004 06682 33/// /1702 11005 21044 39040 48449 5//// 333 553// 20000;
0112066820999992011102401004+46917+009183FM-12+096599999V0201701N001519999999N9999999N1-00101-00491999999ADDMA1999999090351ME1314449REMSYN076AAXX  24014 06682 33/// /1703 11010 21049 39035 48444 5//// 333 553// 20000;
0112066820999992011102402004+46917+009183FM-12+096599999V0201701N000519999999N9999999N1-00101-00501999999ADDMA1999999090291ME1314399REMSYN076AAXX  24024 06682 33/// /1701 11010 21050 39029 48439 5//// 333 553// 20000;
0112066820999992011102403004+46917+009183FM-12+096599999V0201801N001019999999N9999999N1-00071-00611999999ADDMA1999999090241ME1314359REMSYN076AAXX  24034 06682 33/// /1802 11007 21061 39024 48435 5//// 333 553// 20000;
0112066820999992011102404004+46917+009183FM-12+096599999V0201601N000519999999N9999999N1-00091-00601999999ADDMA1999999090231ME1314349REMSYN076AAXX  24044 06682 33/// /1601 11009 21060 39023 48434 5//// 333 553// 20000;
0149066820999992011102405004+46917+009183FM-12+096599999V0201601N001519999999N9999999N1+00011-00681999999ADDMA1999999090211MD1719999+9999ME1314349OA149900311REMSYN088AAXX  24054 06682 33/// /1603 10001 21068 39021 48434 57/// 333 55300 20000 91106 91203;
0276066820999992011102406004+46917+009183FM-12+096599999V0201801N001012200019N0700001N1-00141-00591999999ADDAL19900091GA1001+999999999GF100991001001999999001001GJ103729IA1149IA2999-00609KA1999N-00311MA1999999090201MD1719999+9999ME1314309OA149900311REMSYN124AAXX  24064 06682 32/88 01802 11014 21059 39020 48430 57/// 333 21031 34106 55062 55300 20000 70000 90768 93100 91106 91203;
0112066820999992011102407004+46917+009183FM-12+096599999V0201901N001019999999N9999999N1-00151-00581999999ADDMA1999999090211ME1314319REMSYN076AAXX  24074 06682 33/// /1902 11015 21058 39021 48431 5//// 333 553// 20036;
0112066820999992011102408004+46917+009183FM-12+096599999V0201701N001519999999N9999999N1+00071-00611999999ADDMA1999999090201ME1314349REMSYN076AAXX  24084 06682 33/// /1703 10007 21061 39020 48434 5//// 333 553// 20094;
0112066820999992011102409004+46917+009183FM-12+096599999V0202001N000519999999N9999999N1+00521-00451999999ADDMA1999999090141ME1314379REMSYN076AAXX  24094 06682 33/// /2001 10052 21045 39014 48437 5//// 333 553// 20644;
0112066820999992011102410004+46917+009183FM-12+096599999V0201201N006219999999N9999999N1+01071-00791999999ADDMA1999999090151ME1314479REMSYN076AAXX  24104 06682 33/// /1212 10107 21079 39015 48447 5//// 333 553// 21696;
0112066820999992011102411004+46917+009183FM-12+096599999V0201301N006219999999N9999999N1+01081-00911999999ADDMA1999999090141ME1314479REMSYN076AAXX  24114 06682 33/// /1312 10108 21091 39014 48447 5//// 333 553// 21930;
0154066820999992011102412004+46917+009183FM-12+096599999V0201201N006212200019N0700001N1+01161-00751999999ADDGA1001+999999999GF100991001001999999001001MA1999999090061ME1314419REMSYN076AAXX  24124 06682 32/88 01212 10116 21075 39006 48441 5//// 333 553// 21955;
0112066820999992011102413004+46917+009183FM-12+096599999V0201401N009319999999N9999999N1+01171-00561999999ADDMA1999999089981ME1314349REMSYN076AAXX  24134 06682 33/// /1418 10117 21056 38998 48434 5//// 333 553// 21782;
0112066820999992011102414004+46917+009183FM-12+096599999V0201501N009319999999N9999999N1+01191-00461999999ADDMA1999999089911ME1314279REMSYN076AAXX  24144 06682 33/// /1518 10119 21046 38991 48427 5//// 333 553// 21422;
0149066820999992011102415004+46917+009183FM-12+096599999V0201301N007219999999N9999999N1+01101-00421999999ADDMA1999999089891MD1719999+9999ME1314249OA149901851REMSYN088AAXX  24154 06682 33/// /1314 10110 21042 38989 48424 57/// 333 55307 20745 91136 91220;
0149066820999992011102416004+46917+009183FM-12+096599999V0201301N005719999999N9999999N1+01061-00381999999ADDMA1999999089871MD1719999+9999ME1314229OA149901541REMSYN088AAXX  24164 06682 33/// /1311 10106 21038 38987 48422 57/// 333 55300 20065 91130 91216;
0149066820999992011102417004+46917+009183FM-12+096599999V0201501N006219999999N9999999N1+01101-00331999999ADDMA1999999089911MD1519999+9999ME1314269OA149901241REMSYN088AAXX  24174 06682 33/// /1512 10110 21033 38991 48426 55/// 333 55300 20004 91124 91214;
0181066820999992011102418004+46917+009183FM-12+096599999V0201401N009819999999N0700001N1+01181-00281999999ADDGF106991999999999999999999IA1099KA1120M+01211MA1999999089911ME1314279REMSYN100AAXX  24184 06682 32/88 61419 10118 21028 38991 48427 5//// 333 10121 31/// 553// 20000 90766 93100;
0112066820999992011102419004+46917+009183FM-12+096599999V0201401N009319999999N9999999N1+01211-00281999999ADDMA1999999089901ME1314279REMSYN076AAXX  24194 06682 33/// /1418 10121 21028 38990 48427 5//// 333 553// 20000;
0112066820999992011102420004+46917+009183FM-12+096599999V0201401N007719999999N9999999N1+01201-00251999999ADDMA1999999089911ME1314289REMSYN076AAXX  24204 06682 33/// /1415 10120 21025 38991 48428 5//// 333 553// 20000;
0112066820999992011102421004+46917+009183FM-12+096599999V0201501N006219999999N9999999N1+01291-00241999999ADDMA1999999089921ME1314309REMSYN076AAXX  24214 06682 33/// /1512 10129 21024 38992 48430 5//// 333 553// 20000;
0149066820999992011102422004+46917+009183FM-12+096599999V0201301N006219999999N9999999N1+01251-00151999999ADDMA1999999089911MD1019999+9999ME1314299OA149901751REMSYN088AAXX  24224 06682 33/// /1312 10125 21015 38991 48429 50/// 333 55300 20000 91134 91217;
0149066820999992011102423004+46917+009183FM-12+096599999V0201401N001519999999N9999999N1+01281-00191999999ADDMA1999999089901MD1819999+9999ME1314289OA149902211REMSYN088AAXX  24234 06682 33/// /1403 10128 21019 38990 48428 58/// 333 55300 20000 91143 91221;
0149066820999992011102500004+46917+009183FM-12+096599999V0201001N005719999999N9999999N1+01301-00171999999ADDMA1999999089861MD1819999+9999ME1314259OA149902321REMSYN088AAXX  25004 06682 33/// /1011 10130 21017 38986 48425 58/// 333 55300 20000 91145 91221;
0149066820999992011102501004+46917+009183FM-12+096599999V0201501N002619999999N9999999N1+01291-00151999999ADDMA1999999089791MD1719999+9999ME1314189OA149901651REMSYN088AAXX  25014 06682 33/// /1505 10129 21015 38979 48418 57/// 333 55300 20000 91132 91217;
0112066820999992011102502004+46917+009183FM-12+096599999V0202401N001519999999N9999999N1+01341-00151999999ADDMA1999999089751ME1314159REMSYN076AAXX  25024 06682 33/// /2403 10134 21015 38975 48415 5//// 333 553// 20000;
0112066820999992011102503004+46917+009183FM-12+096599999V0202701N001519999999N9999999N1+01261-00051999999ADDMA1999999089741ME1314139REMSYN076AAXX  25034 06682 33/// /2703 10126 21005 38974 48413 5//// 333 553// 20000;
0112066820999992011102504004+46917+009183FM-12+096599999V0201301N000519999999N9999999N1+01031+00091999999ADDMA1999999089681ME1314049REMSYN076AAXX  25044 06682 33/// /1301 10103 20009 38968 48404 5//// 333 553// 20000;
0149066820999992011102505004+46917+009183FM-12+096599999V0201601N001519999999N9999999N1+01101+00131999999ADDMA1999999089591MD1719999+9999ME1313969OA149901031REMSYN088AAXX  25054 06682 33/// /1603 10110 20013 38959 48396 57/// 333 55300 20000 91120 91204;
0254066820999992011102506004+46917+009183FM-12+096599999V0201301N001019999999N0700001N1+01271+00131999999ADDAL19900091GF107991999999999999999999GJ103729IA1099IA2999+00709KA1999N+00901MA1999999089531MD1719999+9999ME1313949OA149901651REMSYN118AAXX  25064 06682 32/88 71302 10127 20013 38953 48394 57/// 333 20090 31007 55062 55300 20000 90768 93100 91132 91217;
0112066820999992011102507004+46917+009183FM-12+096599999V0201301N005119999999N9999999N1+01411+00101999999ADDMA1999999089511ME1313949REMSYN076AAXX  25074 06682 33/// /1310 10141 20010 38951 48394 5//// 333 553// 20068;
0112066820999992011102508004+46917+009183FM-12+096599999V0201701N003619999999N9999999N1+01431+00181999999ADDMA1999999089561ME1313999REMSYN076AAXX  25084 06682 33/// /1707 10143 20018 38956 48399 5//// 333 553// 20356;
0112066820999992011102509004+46917+009183FM-12+096599999V0201501N004119999999N9999999N1+01431+00231999999ADDMA1999999089531ME1313969REMSYN076AAXX  25094 06682 33/// /1508 10143 20023 38953 48396 5//// 333 553// 20508;
0112066820999992011102510004+46917+009183FM-12+096599999V0202001N002119999999N9999999N1+01441+00221999999ADDMA1999999089581ME1314019REMSYN076AAXX  25104 06682 33/// /2004 10144 20022 38958 48401 5//// 333 553// 20878;
0112066820999992011102511004+46917+009183FM-12+096599999V0202001N002119999999N9999999N1+01471+00271999999ADDMA1999999089591ME1314029REMSYN076AAXX  25114 06682 33/// /2004 10147 20027 38959 48402 5//// 333 553// 20821;
0138066820999992011102512004+46917+009183FM-12+096599999V0202001N001019999999N0700001N1+01521+00341999999ADDGF108991999999999999999999MA1999999089591ME1314039REMSYN076AAXX  25124 06682 32/88 82002 10152 20034 38959 48403 5//// 333 553// 20814;
0112066820999992011102513004+46917+009183FM-12+096599999V0201501N004119999999N9999999N1+01421+00321999999ADDMA1999999089561ME1313999REMSYN076AAXX  25134 06682 33/// /1508 10142 20032 38956 48399 5//// 333 553// 20738;
0112066820999992011102514004+46917+009183FM-12+096599999V0201301N005119999999N9999999N1+01251+00531999999ADDMA1999999089621ME1314029REMSYN076AAXX  25144 06682 33/// /1310 10125 20053 38962 48402 5//// 333 553// 20464;
0112066820999992011102515004+46917+009183FM-12+096599999V0201401N003119999999N9999999N1+01311+00311999999ADDMA1999999089701ME1314109REMSYN076AAXX  25154 06682 33/// /1406 10131 20031 38970 48410 5//// 333 553// 20274;
0149066820999992011102516004+46917+009183FM-12+096599999V0201301N004119999999N9999999N1+01221+00331999999ADDMA1999999089731MD1219999+9999ME1314119OA149901081REMSYN088AAXX  25164 06682 33/// /1308 10122 20033 38973 48411 52/// 333 55300 20065 91121 91211;
0149066820999992011102517004+46917+009183FM-12+096599999V0201301N003119999999N9999999N1+01291+00221999999ADDMA1999999089781MD1219999+9999ME1314179OA149901081REMSYN088AAXX  25174 06682 33/// /1306 10129 20022 38978 48417 52/// 333 55300 20000 91121 91212;
0181066820999992011102518004+46917+009183FM-12+096599999V0201801N001019999999N0500001N1+01021+00411999999ADDGF108991999999999999999999IA1019KA1120M+01521MA1999999089801ME1314149REMSYN100AAXX  25184 06682 32/84 81802 10102 20041 38980 48414 5//// 333 10152 30/// 553// 20000 90766 93100;
0096066820999992011102519004+46917+009183FM-12+096599999V0200401N000519999999N9999999N1+01161+00261999999ADDMA1999999089811ME1314189REMSYN060AAXX  25194 06682 43/// /0401 10116 20026 38981 48418 5////;
0112066820999992011102520004+46917+009183FM-12+096599999V0201401N001019999999N9999999N1+01181+00351999999ADDMA1999999089881ME1314259REMSYN076AAXX  25204 06682 33/// /1402 10118 20035 38988 48425 5//// 333 553// 20000;
0112066820999992011102521004+46917+009183FM-12+096599999V0201501N002119999999N9999999N1+00941+00371999999ADDMA1999999089881ME1314209REMSYN076AAXX  25214 06682 33/// /1504 10094 20037 38988 48420 5//// 333 553// 20000;
0112066820999992011102522004+46917+009183FM-12+096599999V0200601N000519999999N9999999N1+00881+00461999999ADDMA1999999089951ME1314269REMSYN076AAXX  25224 06682 33/// /0601 10088 20046 38995 48426 5//// 333 553// 20000;
0112066820999992011102523004+46917+009183FM-12+096599999V0201901N000519999999N9999999N1+00691+00431999999ADDMA1999999090051ME1314329REMSYN076AAXX  25234 06682 33/// /1901 10069 20043 39005 48432 5//// 333 553// 20000;
0112066820999992011102600004+46917+009183FM-12+096599999V0201501N001519999999N9999999N1+00581+00431999999ADDMA1999999090161ME1314409REMSYN076AAXX  26004 06682 33/// /1503 10058 20043 39016 48440 5//// 333 553// 20000;
0112066820999992011102601004+46917+009183FM-12+096599999V0202201N000519999999N9999999N1+00681+00481999999ADDMA1999999090211ME1314469REMSYN076AAXX  26014 06682 33/// /2201 10068 20048 39021 48446 5//// 333 553// 20000;
0112066820999992011102602004+46917+009183FM-12+096599999V0200501N000519999999N9999999N1+00731+00491999999ADDMA1999999090251ME1314509REMSYN076AAXX  26024 06682 33/// /0501 10073 20049 39025 48450 5//// 333 553// 20000;
0112066820999992011102603004+46917+009183FM-12+096599999V0203101N000519999999N9999999N1+00691+00541999999ADDMA1999999090271ME1314519REMSYN076AAXX  26034 06682 33/// /3101 10069 20054 39027 48451 5//// 333 553// 20000;
0112066820999992011102604004+46917+009183FM-12+096599999V0203201N001019999999N9999999N1+00681+00601999999ADDMA1999999090301ME1314549REMSYN076AAXX  26044 06682 33/// /3202 10068 20060 39030 48454 5//// 333 553// 20000;
0112066820999992011102605004+46917+009183FM-12+096599999V0209999C000519999999N9999999N1+00671+00611999999ADDMA1999999090351ME1314589REMSYN076AAXX  26054 06682 33/// /0001 10067 20061 39035 48458 5//// 333 553// 20000;
0288066820999992011102606004+46917+009183FM-12+096599999V0203301N001019999999N0007001N1+00631+00561999999ADDAL19900091AY151061AY241061GF108991999999999999999999GJ100009IA1099IA2999+00309KA1999N+00541MA1999999090421MD1319999+9999ME1314649MW1501OA149900311REMSYN130AAXX  26064 06682 31/07 83302 10063 20056 39042 48464 53/// 75054 333 20054 31003 55000 55300 20000 70000 90768 93100 91106 91203;
0112066820999992011102607004+46917+009183FM-12+096599999V0209999C000019999999N9999999N1+00631+00551999999ADDMA1999999090491ME1314709REMSYN076AAXX  26074 06682 33/// /0000 10063 20055 39049 48470 5//// 333 553// 20014;
0112066820999992011102608004+46917+009183FM-12+096599999V0201401N000519999999N9999999N1+00711+00531999999ADDMA1999999090561ME1314789REMSYN076AAXX  26084 06682 33/// /1401 10071 20053 39056 48478 5//// 333 553// 20076;
0112066820999992011102609004+46917+009183FM-12+096599999V0203101N000519999999N9999999N1+00751+00561999999ADDMA1999999090581ME1314809REMSYN076AAXX  26094 06682 33/// /3101 10075 20056 39058 48480 5//// 333 553// 20263;
0149066820999992011102610004+46917+009183FM-12+096599999V0209999C000019999999N9999999N1+00801+00411999999ADDMA1999999090601MD1219999+9999ME1314839OA149900101REMSYN088AAXX  26104 06682 33/// /0000 10080 20041 39060 48483 52/// 333 55300 20533 91102 91201;
0149066820999992011102611004+46917+009183FM-12+096599999V0201601N001519999999N9999999N1+00941+00451999999ADDMA1999999090551MD1819999+9999ME1314819OA149900261REMSYN088AAXX  26114 06682 33/// /1603 10094 20045 39055 48481 58/// 333 55300 20886 91105 91203;
0166066820999992011102612004+46917+009183FM-12+096599999V0203301N003619999999N0700001N1+01081+00511999999ADDAY151061AY241061GF107991999999999999999999MA1999999090521ME1314819MW1021REMSYN082AAXX  26124 06682 31/88 73307 10108 20051 39052 48481 5//// 70254 333 553// 21174;
0112066820999992011102613004+46917+009183FM-12+096599999V0203201N003619999999N9999999N1+01011+00421999999ADDMA1999999090541ME1314829REMSYN076AAXX  26134 06682 33/// /3207 10101 20042 39054 48482 5//// 333 553// 20983;
0112066820999992011102614004+46917+009183FM-12+096599999V0203401N001519999999N9999999N1+00971+00481999999ADDMA1999999090561ME1314839REMSYN076AAXX  26144 06682 33/// /3403 10097 20048 39056 48483 5//// 333 553// 20580;
0149066820999992011102615004+46917+009183FM-12+096599999V0203401N001019999999N9999999N1+00941+00521999999ADDMA1999999090581MD1219999+9999ME1314849OA149900621REMSYN088AAXX  26154 06682 33/// /3402 10094 20052 39058 48484 52/// 333 55300 20374 91112 91208;
0149066820999992011102616004+46917+009183FM-12+096599999V0209999C000019999999N9999999N1+00731+00491999999ADDMA1999999090551MD1019999+9999ME1314779OA149900151REMSYN088AAXX  26164 06682 33/// /0000 10073 20049 39055 48477 50/// 333 55300 20112 91103 91202;
0112066820999992011102617004+46917+009183FM-12+096599999V0201901N001019999999N9999999N1+00501+00371999999ADDMA1999999090601ME1314779REMSYN076AAXX  26174 06682 33/// /1902 10050 20037 39060 48477 5//// 333 553// 20004;
0181066820999992011102618004+46917+009183FM-12+096599999V0202401N000519999999N0500001N1+00621+00471999999ADDGF107991999999999999999999IA1019KA1120M+01091MA1999999090641ME1314839REMSYN100AAXX  26184 06682 32/84 72401 10062 20047 39064 48483 5//// 333 10109 30/// 553// 20000 90766 93100;
0112066820999992011102619004+46917+009183FM-12+096599999V0201901N001019999999N9999999N1+00431+00291999999ADDMA1999999090641ME1314809REMSYN076AAXX  26194 06682 33/// /1902 10043 20029 39064 48480 5//// 333 553// 20000;
0112066820999992011102620004+46917+009183FM-12+096599999V0201701N001019999999N9999999N1+00331+00231999999ADDMA1999999090651ME1314799REMSYN076AAXX  26204 06682 33/// /1702 10033 20023 39065 48479 5//// 333 553// 20000;
0112066820999992011102621004+46917+009183FM-12+096599999V0201601N001519999999N9999999N1+00321+00221999999ADDMA1999999090671ME1314809REMSYN076AAXX  26214 06682 33/// /1603 10032 20022 39067 48480 5//// 333 553// 20000;
0112066820999992011102622004+46917+009183FM-12+096599999V0201901N001519999999N9999999N1+00321+00191999999ADDMA1999999090651ME1314789REMSYN076AAXX  26224 06682 33/// /1903 10032 20019 39065 48478 5//// 333 553// 20000;
0112066820999992011102623004+46917+009183FM-12+096599999V0201401N001019999999N9999999N1+00261+00051999999ADDMA1999999090631ME1314759REMSYN076AAXX  26234 06682 33/// /1402 10026 20005 39063 48475 5//// 333 553// 20000;
0149066820999992011102700004+46917+009183FM-12+096599999V0201801N001519999999N9999999N1+00291-00051999999ADDMA1999999090611MD1719999+9999ME1314749OA149900311REMSYN088AAXX  27004 06682 33/// /1803 10029 21005 39061 48474 57/// 333 55300 20000 91106 91204;
0112066820999992011102701004+46917+009183FM-12+096599999V0201401N001519999999N9999999N1+00181-00151999999ADDMA1999999090601ME1314719REMSYN076AAXX  27014 06682 33/// /1403 10018 21015 39060 48471 5//// 333 553// 20000;
0112066820999992011102702004+46917+009183FM-12+096599999V0201401N001519999999N9999999N1+00041-00231999999ADDMA1999999090561ME1314659REMSYN076AAXX  27024 06682 33/// /1403 10004 21023 39056 48465 5//// 333 553// 20000;
0112066820999992011102703004+46917+009183FM-12+096599999V0201501N001519999999N9999999N1+00331-00321999999ADDMA1999999090501ME1314659REMSYN076AAXX  27034 06682 33/// /1503 10033 21032 39050 48465 5//// 333 553// 20000;
0112066820999992011102704004+46917+009183FM-12+096599999V0201701N001519999999N9999999N1+00001-00321999999ADDMA1999999090501ME1314599REMSYN076AAXX  27044 06682 33/// /1703 10000 21032 39050 48459 5//// 333 553// 20000;
0112066820999992011102705004+46917+009183FM-12+096599999V0201601N001019999999N9999999N1+00161-00391999999ADDMA1999999090511ME1314639REMSYN076AAXX  27054 06682 33/// /1602 10016 21039 39051 48463 5//// 333 553// 20000;
0223066820999992011102706004+46917+009183FM-12+096599999V0201601N001519999999N0600001N1+00251-00411999999ADDAL19900091GF106991999999999999999999GJ100249IA1019IA2999-00309KA1999N-00021MA1999999090511ME1314659REMSYN112AAXX  27064 06682 32/86 61603 10025 21041 39051 48465 5//// 333 21002 30103 55004 553// 20004 70000 90768 93100;
0112066820999992011102707004+46917+009183FM-12+096599999V0201401N001519999999N9999999N1+00231-00311999999ADDMA1999999090541ME1314679REMSYN076AAXX  27074 06682 33/// /1403 10023 21031 39054 48467 5//// 333 553// 20068;
0112066820999992011102708004+46917+009183FM-12+096599999V0201801N001019999999N9999999N1+00241-00171999999ADDMA1999999090511ME1314649REMSYN076AAXX  27084 06682 33/// /1802 10024 21017 39051 48464 5//// 333 553// 20173;
0149066820999992011102709004+46917+009183FM-12+096599999V0201401N001019999999N9999999N1+00561-00011999999ADDMA1999999090521MD1019999+9999ME1314719OA149900461REMSYN088AAXX  27094 06682 33/// /1402 10056 21001 39052 48471 50/// 333 55302 20511 91109 91205;
0149066820999992011102710004+46917+009183FM-12+096599999V0202201N000519999999N9999999N1+00921-00191999999ADDMA1999999090491MD1719999+9999ME1314769OA149900361REMSYN088AAXX  27104 06682 33/// /2201 10092 21019 39049 48476 57/// 333 55306 21264 91107 91204;
0149066820999992011102711004+46917+009183FM-12+096599999V0201501N004119999999N9999999N1+01591-00992999999ADDMA1999999090511MD1519999+9999ME1314909OA149900931REMSYN088AAXX  27114 06682 33/// /1508 10159 21099 39051 48490 55/// 333 55304 21242 91118 91208;
0138066820999992011102712004+46917+009183FM-12+096599999V0201401N003619999999N0700001N1+01551-00681999999ADDGF108991999999999999999999MA1999999090551ME1314939REMSYN076AAXX  27124 06682 32/88 81407 10155 21068 39055 48493 5//// 333 553// 20749;
0112066820999992011102713004+46917+009183FM-12+096599999V0201301N008219999999N9999999N1+01571-00511999999ADDMA1999999090551ME1314949REMSYN076AAXX  27134 06682 33/// /1316 10157 21051 39055 48494 5//// 333 553// 21642;
0112066820999992011102714004+46917+009183FM-12+096599999V0201201N005119999999N9999999N1+01521-00531999999ADDMA1999999090571ME1314949REMSYN076AAXX  27144 06682 33/// /1210 10152 21053 39057 48494 5//// 333 553// 20763;
0112066820999992011102715004+46917+009183FM-12+096599999V0201601N006719999999N9999999N1+01491-00531999999ADDMA1999999090531ME1314909REMSYN076AAXX  27154 06682 33/// /1613 10149 21053 39053 48490 5//// 333 553// 20324;
0149066820999992011102716004+46917+009183FM-12+096599999V0200101N001019999999N9999999N1+00611+00372999999ADDMA1999999090641MD1219999+9999ME1314839OA149900981REMSYN088AAXX  27164 06682 33/// /0102 10061 20037 39064 48483 52/// 333 55300 20079 91119 91212;
0149066820999992011102717004+46917+009183FM-12+096599999V0201701N001019999999N9999999N1+00381+00201999999ADDMA1999999090681MD1210111+9999ME1314829OA149900211REMSYN088AAXX  27174 06682 33/// /1702 10038 20020 39068 48482 52011 333 55300 20004 91104 91202;
0228066820999992011102718004+46917+009183FM-12+096599999V0202001N000512200019N0700001N1+00441+00191999999ADDAL19900091GF101991999999999999999999IA1019KA1120M+01691MA1999999090711MD1119999+9999ME1314869OA149902111REMSYN112AAXX  27184 06682 32/88 12001 10044 20019 39071 48486 51/// 333 10169 30/// 55300 20000 90766 93100 91141 91222;
0112066820999992011102719004+46917+009183FM-12+096599999V0201501N001019999999N9999999N1+00291+00061999999ADDMA1999999090771ME1314889REMSYN076AAXX  27194 06682 33/// /1502 10029 20006 39077 48488 5//// 333 553// 20000;
0112066820999992011102720004+46917+009183FM-12+096599999V0201601N001019999999N9999999N1+00381+00061999999ADDMA1999999090821ME1314959REMSYN076AAXX  27204 06682 33/// /1602 10038 20006 39082 48495 5//// 333 553// 20000;
0112066820999992011102721004+46917+009183FM-12+096599999V0201701N001019999999N9999999N1+00291-00011999999ADDMA1999999090891ME1314999REMSYN076AAXX  27214 06682 33/// /1702 10029 21001 39089 48499 5//// 333 553// 20000;
0149066820999992011102722004+46917+009183FM-12+096599999V0201701N001019999999N9999999N1+00361-00031999999ADDMA1999999090921MD1119999+9999ME1315039OA149900261REMSYN088AAXX  27224 06682 33/// /1702 10036 21003 39092 48503 51/// 333 55300 20000 91105 91203;
0112066820999992011102723004+46917+009183FM-12+096599999V0201501N001019999999N9999999N1+00431-00041999999ADDMA1999999091001ME1315119REMSYN076AAXX  27234 06682 33/// /1502 10043 21004 39100 48511 5//// 333 553// 20000;
0149066820999992011102800004+46917+009183FM-12+096599999V0201901N002119999999N9999999N1+00431-00081999999ADDMA1999999091031MD1219999+9999ME1315149OA149900461REMSYN088AAXX  28004 06682 33/// /1904 10043 21008 39103 48514 52/// 333 55300 20000 91109 91205;
0112066820999992011102801004+46917+009183FM-12+096599999V0201501N002119999999N9999999N1+00401-00121999999ADDMA1999999091091ME1315199REMSYN076AAXX  28014 06682 33/// /1504 10040 21012 39109 48519 5//// 333 553// 20000;
0112066820999992011102802004+46917+009183FM-12+096599999V0201801N001019999999N9999999N1+00441-00131999999ADDMA1999999091081ME1315199REMSYN076AAXX  28024 06682 33/// /1802 10044 21013 39108 48519 5//// 333 553// 20000;
0112066820999992011102803004+46917+009183FM-12+096599999V0201301N001519999999N9999999N1+00581-00211999999ADDMA1999999091111ME1315249REMSYN076AAXX  28034 06682 33/// /1303 10058 21021 39111 48524 5//// 333 553// 20000;
0112066820999992011102804004+46917+009183FM-12+096599999V0201701N002119999999N9999999N1+00471-00201999999ADDMA1999999091191ME1315299REMSYN076AAXX  28044 06682 33/// /1704 10047 21020 39119 48529 5//// 333 553// 20000;
0149066820999992011102805004+46917+009183FM-12+096599999V0201501N001519999999N9999999N1+00571-00091999999ADDMA1999999091181MD1219999+9999ME1315309OA149900411REMSYN088AAXX  28054 06682 33/// /1503 10057 21009 39118 48530 52/// 333 55300 20000 91108 91205;
0260066820999992011102806004+46917+009183FM-12+096599999V0201501N001519999999N0600001N1+00431-00041999999ADDAL19900091GF108991999999999999999999GJ101209IA1019IA2999-00109KA1999N+00151MA1999999091241MD1219999+9999ME1315339OA149900411REMSYN124AAXX  28064 06682 32/86 81503 10043 21004 39124 48533 52/// 333 20015 30101 55020 55300 20000 70000 90768 93100 91108 91205;
0149066820999992011102807004+46917+009183FM-12+096599999V0201701N001019999999N9999999N1+00391-00101999999ADDMA1999999091311MD1219999+9999ME1315389OA149900361REMSYN088AAXX  28074 06682 33/// /1702 10039 21010 39131 48538 52/// 333 55300 20061 91107 91204;
0112066820999992011102808004+46917+009183FM-12+096599999V0201801N000519999999N9999999N1+00491-00131999999ADDMA1999999091381ME1315469REMSYN076AAXX  28084 06682 33/// /1801 10049 21013 39138 48546 5//// 333 553// 20108;
0149066820999992011102809004+46917+009183FM-12+096599999V0201401N001019999999N9999999N1+00711-00061999999ADDMA1999999091381MD1219999+9999ME1315519OA149900361REMSYN088AAXX  28094 06682 33/// /1402 10071 21006 39138 48551 52/// 333 55302 20346 91107 91204;
0149066820999992011102810004+46917+009183FM-12+096599999V0201901N001519999999N9999999N1+01011-00011999999ADDMA1999999091411MD1219999+9999ME1315609OA149900461REMSYN088AAXX  28104 06682 33/// /1903 10101 21001 39141 48560 52/// 333 55310 21552 91109 91206;
0149066820999992011102811004+46917+009183FM-12+096599999V0201701N002119999999N9999999N1+01051-00191999999ADDMA1999999091381MD1719999+9999ME1315599OA149900311REMSYN088AAXX  28114 06682 33/// /1704 10105 21019 39138 48559 57/// 333 55310 21800 91106 91204;
0138066820999992011102812004+46917+009183FM-12+096599999V0201601N001012200019N0700001N1+01321-00291999999ADDGF101991999999999999999999MA1999999091361ME1315639REMSYN076AAXX  28124 06682 32/88 11602 10132 21029 39136 48563 5//// 333 553// 21814;
0112066820999992011102813004+46917+009183FM-12+096599999V0203201N001019999999N9999999N1+01291-00101999999ADDMA1999999091411ME1315679REMSYN076AAXX  28134 06682 33/// /3202 10129 21010 39141 48567 5//// 333 553// 21584;
0112066820999992011102814004+46917+009183FM-12+096599999V0203101N001019999999N9999999N1+01211-00011999999ADDMA1999999091441ME1315679REMSYN076AAXX  28144 06682 33/// /3102 10121 21001 39144 48567 5//// 333 553// 21123;
0149066820999992011102815004+46917+009183FM-12+096599999V0203401N001019999999N9999999N1+00911+00171999999ADDMA1999999091501MD1319999+9999ME1315669OA149900361REMSYN088AAXX  28154 06682 33/// /3402 10091 20017 39150 48566 53/// 333 55307 20583 91107 91204;
0149066820999992011102816004+46917+009183FM-12+096599999V0201701N001519999999N9999999N1+00851+00161999999ADDMA1999999091561MD1319999+9999ME1315709OA149900151REMSYN088AAXX  28164 06682 33/// /1703 10085 20016 39156 48570 53/// 333 55300 20166 91103 91203;
0149066820999992011102817004+46917+009183FM-12+096599999V0201401N001519999999N9999999N1+00601+00101999999ADDMA1999999091581MD1119999+9999ME1315669OA149900361REMSYN088AAXX  28174 06682 33/// /1403 10060 20010 39158 48566 51/// 333 55300 20011 91107 91205;
