0149066800999992011010100004+47250+009350FM-12+250099999V0200901N000519999999N9999999N1-00281-02431999999ADDMA1999999075011MD1810051+9999ME1430399OA149900571REMSYN088AAXX  01004 06680 33/// /0901 11028 21243 37501 47039 58005 333 55300 20000 91111 91210;
0149066800999992011010101004+47250+009350FM-12+250099999V0209999C000019999999N9999999N1-00241-02551999999ADDMA1999999074971MD1810081+9999ME1430369OA149900151REMSYN088AAXX  01014 06680 33/// /0000 11024 21255 37497 47036 58008 333 55300 20000 91103 91202;
0149066800999992011010102004+47250+009350FM-12+250099999V0203201N001519999999N9999999N1-00271-02651999999ADDMA1999999074971MD1710071+9999ME1430359OA149900211REMSYN088AAXX  01024 06680 33/// /3203 11027 21265 37497 47035 57007 333 55300 20000 91104 91203;
0219066800999992011010103004+47250+009350FM-12+250099999V0203401N001012200019N0200001N1-00251-02691999999ADDGA1001+999999999GF100991001001999999001001GG1079002009019999MA1999999074951MD1710061+9999ME1430349OA149900211REMSYN098AAXX  01034 06680 32970 03402 11025 21269 37495 47034 57006 333 55300 20000 91104 91204 444 67102;
0149066800999992011010104004+47250+009350FM-12+250099999V0203201N002119999999N9999999N1-00291-02831999999ADDMA1999999074911MD1710061+9999ME1430299OA149900211REMSYN088AAXX  01044 06680 33/// /3204 11029 21283 37491 47029 57006 333 55300 20000 91104 91204;
0149066800999992011010105004+47250+009350FM-12+250099999V0203101N002619999999N9999999N1-00391-02421999999ADDMA1999999074901MD1610071+9999ME1430269OA149900361REMSYN088AAXX  01054 06680 33/// /3105 11039 21242 37490 47026 56007 333 55300 20000 91107 91206;
0309066800999992011010106004+47250+009350FM-12+250099999V0202901N004112200019N0250001N1-00401-02551999999ADDAJ102959199999999AL19900091GA1001+999999999GF100991001001999999001001GG1079011009019999GJ105049IA1239KA1999N-00441MA1999999074901MD1710051+9999ME1430259OA149900461REMSYN134AAXX  01064 06680 32975 02908 11040 21255 37490 47025 57005 333 21044 47295 55084 55300 20000 70000 90768 93100 91109 91208 444 67111;
0149066800999992011010107004+47250+009350FM-12+250099999V0202701N004619999999N9999999N1-00431-02531999999ADDMA1999999074901MD1410001+9999ME1430259OA149900571REMSYN088AAXX  01074 06680 33/// /2709 11043 21253 37490 47025 54001 333 55300 20000 91111 91209;
0149066800999992011010108004+47250+009350FM-12+250099999V0202701N005119999999N9999999N1-00451-02051999999ADDMA1999999074901MD1219999+9999ME1430249OA149900671REMSYN088AAXX  01084 06680 33/// /2710 11045 21205 37490 47024 52/// 333 55308 20090 91113 91210;
0166066800999992011010109004+47250+009350FM-12+250099999V0202701N004612200019N0650001N1-00491-01871999999ADDGA1001+999999999GF100991001001999999001001GG1079012009019999MA1999999074901ME1430249REMSYN070AAXX  01094 06680 42987 02709 11049 21187 37490 47024 5//// 444 77112;
0096066800999992011010110004+47250+009350FM-12+250099999V0202701N005119999999N9999999N1-00461-01381999999ADDMA1999999074891ME1430239REMSYN060AAXX  01104 06680 43/// /2710 11046 21138 37489 47023 5////;
0149066800999992011010111004+47250+009350FM-12+250099999V0202701N004619999999N9999999N1-00471-01321999999ADDMA1999999074851MD1810051+9999ME1430199OA149900671REMSYN088AAXX  01114 06680 33/// /2709 11047 21132 37485 47019 58005 333 553// 2//// 91113 91210;
0166066800999992011010112004+47250+009350FM-12+250099999V0202701N004612200019N0650001N1-00471-01591999999ADDGA1001+999999999GF100991001001999999001001GG1069015009019999MA1999999074821ME1430169REMSYN070AAXX  01124 06680 42987 02709 11047 21159 37482 47016 5//// 444 66115;
0096066800999992011010113004+47250+009350FM-12+250099999V0202701N005119999999N9999999N1-00541-01511999999ADDMA1999999074781ME1430109REMSYN060AAXX  01134 06680 43/// /2710 11054 21151 37478 47010 5////;
0096066800999992011010114004+47250+009350FM-12+250099999V0202701N005119999999N9999999N1-00581-01521999999ADDMA1999999074761ME1430079REMSYN060AAXX  01144 06680 43/// /2710 11058 21152 37476 47007 5////;
0096066800999992011010115004+47250+009350FM-12+250099999V0202601N006219999999N9999999N1-00591-01741999999ADDMA1999999074751ME1430069REMSYN060AAXX  01154 06680 43/// /2612 11059 21174 37475 47006 5////;
0096066800999992011010116004+47250+009350FM-12+250099999V0202701N006719999999N9999999N1-00661-02021999999ADDMA1999999074731ME1430039REMSYN060AAXX  01164 06680 43/// /2713 11066 21202 37473 47003 5////;
0096066800999992011010117004+47250+009350FM-12+250099999V0202601N007719999999N9999999N1-00681-01681999999ADDMA1999999074701ME1429999REMSYN060AAXX  01174 06680 43/// /2615 11068 21168 37470 47999 5////;
0203066800999992011010118004+47250+009350FM-12+250099999V0202601N008212200019N0250001N1-00731-01481999999ADDAJ102959199999999AL19900091GA1001+999999999GF100991001001999999001001IA1239MA1999999074661ME1429949REMSYN092AAXX  01184 06680 42975 02616 11073 21148 37466 47994 5//// 333 47295 90766 93100 444 66134;
0112066800999992011010119004+47250+009350FM-12+250099999V0202701N007719999999N9999999N1-00761-01461999999ADDMA1999999074651ME1429929REMSYN076AAXX  01194 06680 33/// /2715 11076 21146 37465 47992 5//// 333 553// 20000;
0149066800999992011010120004+47250+009350FM-12+250099999V0202701N007719999999N9999999N1-00811-01391999999ADDMA1999999074631MD1710071+9999ME1429899OA149900981REMSYN088AAXX  01204 06680 33/// /2715 11081 21139 37463 47989 57007 333 55300 20000 91119 91216;
0149066800999992011010121004+47250+009350FM-12+250099999V0202701N007719999999N9999999N1-00781-01021999999ADDMA1999999074631MD1710031+9999ME1429909OA149900981REMSYN088AAXX  01214 06680 33/// /2715 11078 21102 37463 47990 57003 333 55300 20000 91119 91217;
0149066800999992011010122004+47250+009350FM-12+250099999V0202701N007219999999N9999999N1-00721-01171999999ADDMA1999999074601MD1710051+9999ME1429889OA149900981REMSYN088AAXX  01224 06680 33/// /2714 11072 21117 37460 47988 57005 333 55300 20000 91119 91217;
0149066800999992011010123004+47250+009350FM-12+250099999V0202601N007719999999N9999999N1-00751-00951999999ADDMA1999999074551MD1710081+9999ME1429829OA149900981REMSYN088AAXX  01234 06680 33/// /2615 11075 21095 37455 47982 57008 333 55300 20000 91119 91217;
0149066800999992011010200004+47250+009350FM-12+250099999V0202601N008719999999N9999999N1-00771-00831999999ADDMA1999999074501MD1710131+9999ME1429779OA149900981REMSYN088AAXX  02004 06680 33/// /2617 11077 21083 37450 47977 57013 333 55300 20000 91119 91217;
0149066800999992011010201004+47250+009350FM-12+250099999V0202601N008719999999N9999999N1-00811-00911999999ADDMA1999999074461MD1710141+9999ME1429729OA149901081REMSYN088AAXX  02014 06680 33/// /2617 11081 21091 37446 47972 57014 333 55300 20000 91121 91218;
0096066800999992011010202004+47250+009350FM-12+250099999V0202701N008719999999N9999999N1-00851-01381999999ADDMA1999999074461ME1429719REMSYN060AAXX  02024 06680 43/// /2717 11085 21138 37446 47971 5////;
0166066800999992011010203004+47250+009350FM-12+250099999V0202701N008710006019N0008001N1-00901-00971999999ADDAY141031AY211031GA1091+999999999GF109991091999999999999999MA1999999074431ME1429679MW1471REMSYN066AAXX  02034 06680 41/08 92717 11090 21097 37443 47967 5//// 74741;
0096066800999992011010204004+47250+009350FM-12+250099999V0202601N008219999999N9999999N1-00851-01091999999ADDMA1999999074431ME1429689REMSYN060AAXX  02044 06680 43/// /2616 11085 21109 37443 47968 5////;
0096066800999992011010205004+47250+009350FM-12+250099999V0202701N005119999999N9999999N1-01011-01081999999ADDMA1999999074411ME1429639REMSYN060AAXX  02054 06680 43/// /2710 11101 21108 37441 47963 5////;
0282066800999992011010206004+47250+009350FM-12+250099999V0202701N005712200019N0040001N1-01041-01161999999ADDAJ102959199999999AL19900091AY141061AY211061GA1001+999999999GF100991001001999999001001GG1069054009029999GJ105049IA1239KA1999N-01101MA1999999074391ME1429609MW1101REMSYN110AAXX  02064 06680 41940 02711 11104 21116 37439 47960 5//// 71041 333 21110 47295 55084 90768 93100 444 86254;
0149066800999992011010207004+47250+009350FM-12+250099999V0202701N004619999999N9999999N1-01081-01261999999ADDMA1999999074401MD1710031+9999ME1429619OA149900981REMSYN088AAXX  02074 06680 33/// /2709 11108 21126 37440 47961 57003 333 55300 20000 91119 91212;
0149066800999992011010208004+47250+009350FM-12+250099999V0202601N001019999999N9999999N1-01261-01551999999ADDMA1999999074431MD1310021+9999ME1429609OA149900981REMSYN088AAXX  02084 06680 33/// /2602 11126 21155 37443 47960 53002 333 55300 20058 91119 91210;
0219066800999992011010209004+47250+009350FM-12+250099999V0209999C000010003019N0002001N1-01291-01301999999ADDAY141031AY211031GA1091+999999999GF109991091999999999999999MA1999999074451MD1110061+9999ME1429629MW1451OA149901181REMSYN094AAXX  02094 06680 31/02 90000 11129 21130 37445 47962 51006 74541 333 55300 20270 91123 91217;
0149066800999992011010210004+47250+009350FM-12+250099999V0209999C000019999999N9999999N1-01281-01281999999ADDMA1999999074461MD1310061+9999ME1429639OA149900361REMSYN088AAXX  02104 06680 33/// /0000 11128 21128 37446 47963 53006 333 55300 20526 91107 91202;
0155066800999992011010211004+47250+009350FM-12+250099999V0209999C000019999999N9999999N1-01311-01311999999ADDMA1999999074451MD1010021+9999ME1429629OA149900151REMSYN094AAXX  02114 06680 23/// /0000 11131 21131 37445 47962 50002 333 55300 20806 69945 91103 91201;
0242066800999992011010212004+47250+009350FM-12+250099999V0201201N000510001519N0001001N1-01291-01291999999ADDAA106000591AY141061AY241061GA1091+999999999GF109991091999999999999999MA1999999074421MD1710031+9999ME1429599MW1471OA149901241REMSYN106AAXX  02124 06680 01/01 91201 11129 21129 37442 47959 57003 69941 74744 333 55300 20860 60005 91124 91218;
0149066800999992011010213004+47250+009350FM-12+250099999V0201901N001019999999N9999999N1-01291-01291999999ADDMA1999999074411MD1710051+9999ME1429589OA149900361REMSYN088AAXX  02134 06680 33/// /1902 11129 21129 37441 47958 57005 333 55300 20608 91107 91202;
0112066800999992011010214004+47250+009350FM-12+250099999V0209999C000019999999N9999999N1-01391-01391999999ADDMA1999999074421ME1429579REMSYN076AAXX  02144 06680 33/// /0000 11139 21139 37442 47957 5//// 333 553// 20482;
0149066800999992011010215004+47250+009350FM-12+250099999V0201301N000519999999N9999999N1-01461-01461999999ADDMA1999999074441MD1310021+9999ME1429589OA149900361REMSYN088AAXX  02154 06680 33/// /1301 11146 21146 37444 47958 53002 333 55300 20202 91107 91202;
0149066800999992011010216004+47250+009350FM-12+250099999V0202201N000519999999N9999999N1-01401-01411999999ADDMA1999999074461MD1210051+9999ME1429619OA149900261REMSYN088AAXX  02164 06680 33/// /2201 11140 21141 37446 47961 52005 333 55300 20043 91105 91201;
0149066800999992011010217004+47250+009350FM-12+250099999V0201801N000519999999N9999999N1-01461-01831999999ADDMA1999999074481MD1210061+9999ME1429629OA149900261REMSYN088AAXX  02174 06680 33/// /1801 11146 21183 37448 47962 52006 333 55300 20000 91105 91201;
0312066800999992011010218004+47250+009350FM-12+250099999V0209999C000010001519N0001001N1-01531-02041999999ADDAA112000591AJ102969199999999AL11200191AY171061AY241061GA1091+999999999GF109991091999999999999999IA1239KA1120M-01041MA1999999074491MD1210051+9999ME1429629MW1701OA149900981REMSYN130AAXX  02184 06680 01/01 90000 11153 21204 37449 47962 52005 69952 77074 333 11104 47296 55300 20000 69915 90766 93101 91119 91210;
0149066800999992011010219004+47250+009350FM-12+250099999V0200301N000519999999N9999999N1-01581-02061999999ADDMA1999999074501MD1210041+9999ME1429629OA149900311REMSYN088AAXX  02194 06680 33/// /0301 11158 21206 37450 47962 52004 333 55300 20000 91106 91201;
0149066800999992011010220004+47250+009350FM-12+250099999V0200301N003619999999N9999999N1-01521-02511999999ADDMA1999999074501MD1210021+9999ME1429639OA149900571REMSYN088AAXX  02204 06680 33/// /0307 11152 21251 37450 47963 52002 333 55300 20000 91111 91207;
0149066800999992011010221004+47250+009350FM-12+250099999V0200101N000519999999N9999999N1-01531-02551999999ADDMA1999999074521MD1310031+9999ME1429659OA149900571REMSYN088AAXX  02214 06680 33/// /0101 11153 21255 37452 47965 53003 333 55300 20000 91111 91208;
0149066800999992011010222004+47250+009350FM-12+250099999V0209999C000519999999N9999999N1-01501-02901999999ADDMA1999999074531MD1210031+9999ME1429669OA149900571REMSYN088AAXX  02224 06680 33/// /0001 11150 21290 37453 47966 52003 333 55300 20000 91111 91208;
0149066800999992011010223004+47250+009350FM-12+250099999V0203401N000519999999N9999999N1-01531-02881999999ADDMA1999999074501MD1410001+9999ME1429639OA149900151REMSYN088AAXX  02234 06680 33/// /3401 11153 21288 37450 47963 58000 333 55300 20000 91103 91202;
0149066800999992011010300004+47250+009350FM-12+250099999V0203501N001519999999N9999999N1-01441-03001999999ADDMA1999999074501MD1710021+9999ME1429649OA149900571REMSYN088AAXX  03004 06680 33/// /3503 11144 21300 37450 47964 57002 333 55300 20000 91111 91208;
0149066800999992011010301004+47250+009350FM-12+250099999V0203301N005719999999N9999999N1-01301-03691999999ADDMA1999999074491MD1710041+9999ME1429669OA149900671REMSYN088AAXX  03014 06680 33/// /3311 11130 21369 37449 47966 57004 333 55300 20000 91113 91211;
0168066800999992011010302004+47250+009350FM-12+250099999V0203201N006719999999N9999999N1-01291-04031999999ADDMA1999999074491MD1719999+9999ME1429669OA149900821REMSYN088AAXX  03024 06680 33/// /3213 11129 21403 37449 47966 57/// 333 55300 20000 91116 91213;EQDQ01-004033ATOD  
0166066800999992011010303004+47250+009350FM-12+250099999V0203501N005112200019N0250001N1-01461-03011999999ADDGA1001+999999999GF100991001001999999001001GG1069090009009999MA1999999074491ME1429639REMSYN070AAXX  03034 06680 42975 03510 11146 21301 37449 47963 5//// 444 16090;
0149066800999992011010304004+47250+009350FM-12+250099999V0203501N005119999999N9999999N1-01491-02841999999ADDMA1999999074471MD1810021+9999ME1429609OA149900931REMSYN088AAXX  03044 06680 33/// /3510 11149 21284 37447 47960 58002 333 55300 20000 91118 91213;
0149066800999992011010305004+47250+009350FM-12+250099999V0203501N004119999999N9999999N1-01431-03171999999ADDMA1999999074461MD1710031+9999ME1429609OA149900721REMSYN088AAXX  03054 06680 33/// /3508 11143 21317 37446 47960 57003 333 55300 20000 91114 91212;
0319066800999992011010306004+47250+009350FM-12+250099999V0203601N002112200019N0250001N1-01491-02891999999ADDAJ102969199999999AL13000091AL29900191GA1001+999999999GF100991001001999999001001GG1079093009009999GJ100009IA1239KA1999N-01591MA1999999074481MD1510011+9999ME1429619OA149900931REMSYN134AAXX  03064 06680 32975 03604 11149 21289 37448 47961 55001 333 21159 47296 55000 55300 20000 70005 90768 93101 91118 91213 444 57093;
0149066800999992011010307004+47250+009350FM-12+250099999V0203201N004119999999N9999999N1-01341-03631999999ADDMA1999999074481MD1210011+9999ME1429649OA149900671REMSYN088AAXX  03074 06680 33/// /3208 11134 21363 37448 47964 52001 333 55300 20000 91113 91210;
0149066800999992011010308004+47250+009350FM-12+250099999V0203001N005119999999N9999999N1-01261-04211999999ADDMA1999999074491MD1219999+9999ME1429679OA149900571REMSYN088AAXX  03084 06680 33/// /3010 11126 21421 37449 47967 52/// 333 55308 20097 91111 91210;
0182066800999992011010309004+47250+009350FM-12+250099999V0203101N004612200019N0450001N1-01261-03961999999ADDGA1001+999999999GF100991001001999999001001GG1069090009019999MA1999999074511ME1429699REMSYN086AAXX  03094 06680 32983 03109 11126 21396 37451 47969 5//// 333 553// 20522 444 26190;
0149066800999992011010310004+47250+009350FM-12+250099999V0202501N005119999999N9999999N1-01271-03351999999ADDMA1999999074521MD1110041+9999ME1429699OA149900621REMSYN088AAXX  03104 06680 33/// /2510 11127 21335 37452 47969 51004 333 553// 20943 91112 91212;
0155066800999992011010311004+47250+009350FM-12+250099999V0202601N005719999999N9999999N1-01181-03351999999ADDMA1999999074521MD1110031+9999ME1429719OA149900721REMSYN094AAXX  03114 06680 23/// /2611 11118 21335 37452 47971 51003 333 553// 2//// 69915 91114 91212;
0261066800999992011010312004+47250+009350FM-12+250099999V0202701N006212200019N0450001N1-01151-03481999999ADDAA106000091GA1001+999999999GF100991001001999999001001GG1069080009019999MA1999999074501MD1810011+9999ME1429709OA149900931REMSYN110AAXX  03124 06680 02983 02712 11115 21348 37450 47970 58001 69911 333 553// 2//// 60005 91118 91213 444 26180;EQDQ01  00002PRCP06
0149066800999992011010313004+47250+009350FM-12+250099999V0202601N006719999999N9999999N1-01091-03461999999ADDMA1999999074481MD1810041+9999ME1429699OA149900881REMSYN088AAXX  03134 06680 33/// /2613 11109 21346 37448 47969 58004 333 553// 2//// 91117 91213;
0131066800999992011010314004+47250+009350FM-12+250099999V0202701N006719999999N9999999N1-01081-04952999999ADDMA1999999074491ME1429709REMSYN076AAXX  03144 06680 33/// /2713 11108 21495 37449 47970 5//// 333 553// 20904;EQDQ01-004953ATOD  
0112066800999992011010315004+47250+009350FM-12+250099999V0202701N006719999999N9999999N1-01081-04311999999ADDMA1999999074491ME1429709REMSYN076AAXX  03154 06680 33/// /2713 11108 21431 37449 47970 5//// 333 553// 20472;
0149066800999992011010316004+47250+009350FM-12+250099999V0202701N005719999999N9999999N1-01091-04661999999ADDMA1999999074491MD1010011+9999ME1429709OA149900931REMSYN088AAXX  03164 06680 33/// /2711 11109 21466 37449 47970 50001 333 55307 20061 91118 91214;
0149066800999992011010317004+47250+009350FM-12+250099999V0202701N007219999999N9999999N1-01081-04641999999ADDMA1999999074481MD1710011+9999ME1429699OA149900881REMSYN088AAXX  03174 06680 33/// /2714 11108 21464 37448 47969 57001 333 55300 20000 91117 91214;
0343066800999992011010318004+47250+009350FM-12+250099999V0202701N008212200019N0200001N1-01021+99999999999ADDAA112000091AJ102969199999999AL19900091GA1011+066001001GF101991001001999999001011GG1069070009009999IA1239KA1120M-01041MA1999999074491MD1010001+9999ME1429719OA149900981REMSYN146AAXX  03184 06680 02970 12716 11102 2//// 37449 47971 50000 69912 80001 333 11104 47296 55300 20000 60005 81072 90766 93100 91119 91216 444 26070;EQDQ01  00002PRCP12
0149066800999992011010319004+47250+009350FM-12+250099999V0202801N007219999999N9999999N1-01011+99999999999ADDMA1999999074481MD1710011+9999ME1429709OA149901031REMSYN088AAXX  03194 06680 33/// /2814 11101 2//// 37448 47970 57001 333 55300 20000 91120 91216;
0149066800999992011010320004+47250+009350FM-12+250099999V0202801N005119999999N9999999N1-01061-04191999999ADDMA1999999074461MD1710021+9999ME1429679OA149901031REMSYN088AAXX  03204 06680 33/// /2810 11106 21419 37446 47967 57002 333 55300 20000 91120 91214;
0149066800999992011010321004+47250+009350FM-12+250099999V0202701N006719999999N9999999N1-00951+99999999999ADDMA1999999074461MD1810031+9999ME1429699OA149901031REMSYN088AAXX  03214 06680 33/// /2713 11095 2//// 37446 47969 58003 333 55300 20000 91120 91216;
0149066800999992011010322004+47250+009350FM-12+250099999V0202701N007719999999N9999999N1-00931+99999999999ADDMA1999999074451MD1610031+9999ME1429699OA149901031REMSYN088AAXX  03224 06680 33/// /2715 11093 2//// 37445 47969 56003 333 55300 20000 91120 91216;
0149066800999992011010323004+47250+009350FM-12+250099999V0202401N007719999999N9999999N1-00991-04011999999ADDMA1999999074441MD1610021+9999ME1429669OA149901031REMSYN088AAXX  03234 06680 33/// /2415 11099 21401 37444 47966 56002 333 55300 20000 91120 91217;
0149066800999992011010400004+47250+009350FM-12+250099999V0202601N010319999999N9999999N1-00971-04141999999ADDMA1999999074411MD1810051+9999ME1429649OA149901241REMSYN088AAXX  04004 06680 33/// /2620 11097 21414 37441 47964 58005 333 55300 20000 91124 91221;
0149066800999992011010401004+47250+009350FM-12+250099999V0202601N010819999999N9999999N1-01021-03921999999ADDMA1999999074381MD1810071+9999ME1429609OA149901441REMSYN088AAXX  04014 06680 33/// /2621 11102 21392 37438 47960 58007 333 55300 20000 91128 91222;
0149066800999992011010402004+47250+009350FM-12+250099999V0202601N011319999999N9999999N1-01081-04111999999ADDMA1999999074341MD1819999+9999ME1429559OA149901541REMSYN088AAXX  04024 06680 33/// /2622 11108 21411 37434 47955 58/// 333 55300 20000 91130 91222;
0235066800999992011010403004+47250+009350FM-12+250099999V0202601N01291066001CN0200001N1-01151-03311999999ADDGA1011+018001031GA2051+066001001GF105991011001017501041011MA1999999074301MD1810111+9999ME1429499OA149901701REMSYN116AAXX  04034 06680 32770 52625 11115 21331 37430 47949 58011 81041 333 55300 20000 81356 85072 91133 91225 444 67103;
0149066800999992011010404004+47250+009350FM-12+250099999V0202501N014419999999N9999999N1-01311-02621999999ADDMA1999999074251MD1710131+9999ME1429419OA149901851REMSYN088AAXX  04044 06680 33/// /2528 11131 21262 37425 47941 57013 333 55300 20000 91136 91230;
0149066800999992011010405004+47250+009350FM-12+250099999V0202601N016419999999N9999999N1-01441-02291999999ADDMA1999999074211MD1710131+9999ME1429359OA149902211REMSYN088AAXX  04054 06680 33/// /2632 11144 21229 37421 47935 57013 333 55300 20000 91143 91233;
0198066800999992011010406004+47250+009350FM-12+250099999V0202601N015419999999N9999999N1-01291-01811999999ADDAL10600091GJ105109KA1999N-01441MA1999999074181MD1710121+9999ME1429359OA149902211REMSYN106AAXX  04064 06680 33/// /2630 11129 21181 37418 47935 57012 333 21144 55085 55300 20000 70001 91143 91233;
0149066800999992011010407004+47250+009350FM-12+250099999V0202601N014919999999N9999999N1-01281-01621999999ADDMA1999999074201MD1510051+9999ME1429379OA149902211REMSYN088AAXX  04074 06680 33/// /2629 11128 21162 37420 47937 55005 333 55300 20000 91143 91233;
0149066800999992011010408004+47250+009350FM-12+250099999V0202601N014919999999N9999999N1-01221-01391999999ADDMA1999999074231MD1319999+9999ME1429419OA149902211REMSYN088AAXX  04084 06680 33/// /2629 11122 21139 37423 47941 53/// 333 55300 20018 91143 91232;
0182066800999992011010409004+47250+009350FM-12+250099999V0202601N014910003019N0005001N1-01221-01351999999ADDAY171031AY241031GA1091+999999999GF109991091999999999999999MA1999999074241ME1429429MW1451REMSYN082AAXX  04094 06680 31/05 92629 11122 21135 37424 47942 5//// 74574 333 553// 20130;
0149066800999992011010410004+47250+009350FM-12+250099999V0202601N015419999999N9999999N1-01131-01271999999ADDMA1999999074251MD1210051+9999ME1429449OA149902161REMSYN088AAXX  04104 06680 33/// /2630 11113 21127 37425 47944 52005 333 55300 20418 91142 91230;
0149066800999992011010411004+47250+009350FM-12+250099999V0202601N013919999999N9999999N1-01061-01221999999ADDMA1999999074231MD1010001+9999ME1429449OA149902161REMSYN088AAXX  04114 06680 33/// /2627 11106 21122 37423 47944 50000 333 55300 20655 91142 91230;
0241066800999992011010412004+47250+009350FM-12+250099999V0202601N01391024001CN0230001N1-01081-01821999999ADDAY171061AY241061GA1061+024001031GF106991061001022501071011MA1999999074191MD1710051+9999ME1429399MW1011OA149902211REMSYN116AAXX  04124 06680 31873 62627 11108 21182 37419 47939 57005 70174 86071 333 55309 2//// 86358 91143 91233 444 16//0;
0149066800999992011010413004+47250+009350FM-12+250099999V0202501N010819999999N9999999N1-01171-01761999999ADDMA1999999074201MD1710051+9999ME1429399OA149902061REMSYN088AAXX  04134 06680 33/// /2521 11117 21176 37420 47939 57005 333 55307 2//// 91140 91231;
0112066800999992011010414004+47250+009350FM-12+250099999V0202601N010819999999N9999999N1-01161-01691999999ADDMA1999999074191ME1429389REMSYN076AAXX  04144 06680 33/// /2621 11116 21169 37419 47938 5//// 333 553// 20533;
0096066800999992011010415004+47250+009350FM-12+250099999V0202701N008719999999N9999999N1-01071-01601999999ADDMA1999999074201ME1429409REMSYN060AAXX  04154 06680 43/// /2717 11107 21160 37420 47940 5////;
0149066800999992011010416004+47250+009350FM-12+250099999V0202501N009819999999N9999999N1-01131-01861999999ADDMA1999999074201MD1510001+9999ME1429399OA149901601REMSYN088AAXX  04164 06680 33/// /2519 11113 21186 37420 47939 55000 333 55303 20108 91131 91222;
0149066800999992011010417004+47250+009350FM-12+250099999V0202501N011819999999N9999999N1-01081-01731999999ADDMA1999999074201MD1010011+9999ME1429409OA149901391REMSYN088AAXX  04174 06680 33/// /2523 11108 21173 37420 47940 50001 333 55300 20000 91127 91223;
0273066800999992011010418004+47250+009350FM-12+250099999V0202601N008712200019N0200001N1-01061-01461999999ADDAJ102969199999999AL19900091GA1011+021001031GF102991011001017501071011IA1239KA1120M-01051MA1999999074201MD1410001+9999ME1429419OA149902211REMSYN124AAXX  04184 06680 32770 22617 11106 21146 37420 47941 54000 81071 333 11105 47296 55300 20000 81357 90766 93100 91143 91232;
0149066800999992011010419004+47250+009350FM-12+250099999V0202601N007719999999N9999999N1-01171-01901999999ADDMA1999999074211MD1210011+9999ME1429409OA149901341REMSYN088AAXX  04194 06680 33/// /2615 11117 21190 37421 47940 52001 333 55300 20000 91126 91224;
0149066800999992011010420004+47250+009350FM-12+250099999V0202401N007219999999N9999999N1-01181-01661999999ADDMA1999999074191MD1010011+9999ME1429379OA149901181REMSYN088AAXX  04204 06680 33/// /2414 11118 21166 37419 47937 50001 333 55300 20000 91123 91217;
0149066800999992011010421004+47250+009350FM-12+250099999V0202401N006719999999N9999999N1-01191-01441999999ADDMA1999999074171MD1810031+9999ME1429359OA149901391REMSYN088AAXX  04214 06680 33/// /2413 11119 21144 37417 47935 58003 333 55300 20000 91127 91224;
0149066800999992011010422004+47250+009350FM-12+250099999V0202301N006719999999N9999999N1-01151-01471999999ADDMA1999999074161MD1710051+9999ME1429359OA149901241REMSYN088AAXX  04224 06680 33/// /2313 11115 21147 37416 47935 57005 333 55300 20000 91124 91218;
0149066800999992011010423004+47250+009350FM-12+250099999V0202301N005719999999N9999999N1-01131-01911999999ADDMA1999999074161MD1710031+9999ME1429359OA149901131REMSYN088AAXX  04234 06680 33/// /2311 11113 21191 37416 47935 57003 333 55300 20000 91122 91215;
0149066800999992011010500004+47250+009350FM-12+250099999V0202301N005119999999N9999999N1-01121-02301999999ADDMA1999999074141MD1710031+9999ME1429339OA149901961REMSYN088AAXX  05004 06680 33/// /2310 11112 21230 37414 47933 57003 333 55300 20000 91138 91226;
0149066800999992011010501004+47250+009350FM-12+250099999V0202401N008719999999N9999999N1-01011-02531999999ADDMA1999999074121MD1810041+9999ME1429339OA149901181REMSYN088AAXX  05014 06680 33/// /2417 11101 21253 37412 47933 58004 333 55300 20000 91123 91217;
0149066800999992011010502004+47250+009350FM-12+250099999V0202401N010319999999N9999999N1-01071-02311999999ADDMA1999999074121MD1710041+9999ME1429329OA149901341REMSYN088AAXX  05024 06680 33/// /2420 11107 21231 37412 47932 57004 333 55300 20000 91126 91222;
0182066800999992011010503004+47250+009350FM-12+250099999V0202501N014412200019N0200001N1-01081-02191999999ADDGA1011+066001001GF101991001001999999001011GG1069040009029999MA1999999074091ME1429299REMSYN086AAXX  05034 06680 42970 12528 11108 21219 37409 47929 5//// 80001 333 81072 444 16240;
0149066800999992011010504004+47250+009350FM-12+250099999V0202401N014919999999N9999999N1-01171-01841999999ADDMA1999999074071MD1810051+9999ME1429259OA149901851REMSYN088AAXX  05044 06680 33/// /2429 11117 21184 37407 47925 58005 333 55300 20000 91136 91229;
0149066800999992011010505004+47250+009350FM-12+250099999V0202501N018019999999N9999999N1-01051-02131999999ADDMA1999999074061MD1710061+9999ME1429269OA149902061REMSYN088AAXX  05054 06680 33/// /2535 11105 21213 37406 47926 57006 333 55300 20000 91140 91235;
0328066800999992011010506004+47250+009350FM-12+250099999V0202501N016412200019N0200001N1-01041-02071999999ADDAJ102969199999999AL19900091GA1001+999999999GF100991001001999999001001GG1069040009019999GJ101209IA1239KA1999N-01241MA1999999074091MD1410001+9999ME1429309OA149902371REMSYN134AAXX  05064 06680 32970 02532 11104 21207 37409 47930 53000 333 21124 47296 55020 55300 20000 70000 90768 93100 91146 91236 444 16140;EQDQ01+000032APCTEN
0149066800999992011010507004+47250+009350FM-12+250099999V0202501N018019999999N9999999N1-01101-02131999999ADDMA1999999074101MD1210031+9999ME1429309OA149902471REMSYN088AAXX  05074 06680 33/// /2535 11110 21213 37410 47930 52003 333 55300 20000 91148 91238;
0149066800999992011010508004+47250+009350FM-12+250099999V0202501N016419999999N9999999N1-01031-01921999999ADDMA1999999074131MD1219999+9999ME1429349OA149902471REMSYN088AAXX  05084 06680 33/// /2532 11103 21192 37413 47934 52/// 333 55307 20094 91148 91238;
0203066800999992011010509004+47250+009350FM-12+250099999V0202501N015412200019N0450001N1-00921-01711999999ADDGA1011+066001001GF101991001001999999001011MA1999999074161MD1210071+9999ME1429399OA149902471REMSYN100AAXX  05094 06680 32983 12530 11092 21171 37416 47939 52007 80001 333 553// 20518 81072 91148 91238;
0149066800999992011010510004+47250+009350FM-12+250099999V0202501N017019999999N9999999N1-00881-01551999999ADDMA1999999074171MD1210071+9999ME1429419OA149902371REMSYN088AAXX  05104 06680 33/// /2533 11088 21155 37417 47941 52007 333 553// 20922 91146 91234;
0149066800999992011010511004+47250+009350FM-12+250099999V0202501N014919999999N9999999N1-00851-01451999999ADDMA1999999074181MD1210051+9999ME1429429OA149902371REMSYN088AAXX  05114 06680 33/// /2529 11085 21145 37418 47942 52005 333 553// 2//// 91146 91234;
0150066800999992011010512004+47250+009350FM-12+250099999V0202501N014912200019N0550001N1-00801-01421999999ADDGF101991001001999999001011MA1999999074171ME1429429REMSYN088AAXX  05124 06680 32985 12529 11080 21142 37417 47942 5//// 80001 333 553// 2//// 81072;
0149066800999992011010513004+47250+009350FM-12+250099999V0202501N011819999999N9999999N1-00771-01501999999ADDMA1999999074191MD1310021+9999ME1429459OA149902211REMSYN088AAXX  05134 06680 33/// /2523 11077 21150 37419 47945 53002 333 553// 2//// 91143 91231;
0096066800999992011010514004+47250+009350FM-12+250099999V0202501N012919999999N9999999N1-00761-01581999999ADDMA1999999074231ME1429499REMSYN060AAXX  05144 06680 43/// /2525 11076 21158 37423 47949 5////;
0096066800999992011010515004+47250+009350FM-12+250099999V0202501N011319999999N9999999N1-00711-01451999999ADDMA1999999074241ME1429519REMSYN060AAXX  05154 06680 43/// /2522 11071 21145 37424 47951 5////;
0149066800999992011010516004+47250+009350FM-12+250099999V0202401N007719999999N9999999N1-00751-01451999999ADDMA1999999074251MD1210061+9999ME1429519OA149901701REMSYN088AAXX  05164 06680 33/// /2415 11075 21145 37425 47951 52006 333 55307 20061 91133 91226;
0149066800999992011010517004+47250+009350FM-12+250099999V0202401N008719999999N9999999N1-00701-01341999999ADDMA1999999074251MD1010021+9999ME1429529OA149901701REMSYN088AAXX  05174 06680 33/// /2417 11070 21134 37425 47952 50002 333 55300 20000 91133 91223;
0261066800999992011010518004+47250+009350FM-12+250099999V0202401N009812200019N0300001N1-00631-01301999999ADDAJ102969199999999AL19900091GA1001+999999999GF100991001001999999001001IA1239KA1120M-00641MA1999999074261MD1319999+9999ME1429549OA149902471REMSYN112AAXX  05184 06680 32980 02419 11063 21130 37426 47954 53/// 333 11064 47296 55300 20000 90766 93100 91148 91238;
0149066800999992011010519004+47250+009350FM-12+250099999V0202501N011819999999N9999999N1-00621-01301999999ADDMA1999999074261MD1210011+9999ME1429559OA149901701REMSYN088AAXX  05194 06680 33/// /2523 11062 21130 37426 47955 52001 333 55300 20000 91133 91223;
0149066800999992011010520004+47250+009350FM-12+250099999V0202401N007719999999N9999999N1-00651-01101999999ADDMA1999999074251MD1410001+9999ME1429539OA149901701REMSYN088AAXX  05204 06680 33/// /2415 11065 21110 37425 47953 54/// 333 55300 20000 91133 91225;
0112066800999992011010521004+47250+009350FM-12+250099999V0202301N003619999999N9999999N1-00601-01311999999ADDMA1999999074231ME1429529REMSYN076AAXX  05214 06680 33/// /2307 11060 21131 37423 47952 5//// 333 553// 20000;
0149066800999992011010522004+47250+009350FM-12+250099999V0202301N007719999999N9999999N1-00441-01761999999ADDMA1999999074221MD1710041+9999ME1429549OA149901441REMSYN088AAXX  05224 06680 33/// /2315 11044 21176 37422 47954 57004 333 55300 20000 91128 91220;
0149066800999992011010523004+47250+009350FM-12+250099999V0202301N008219999999N9999999N1-00421-01881999999ADDMA1999999074221MD1719999+9999ME1429549OA149901291REMSYN088AAXX  05234 06680 33/// /2316 11042 21188 37422 47954 57/// 333 55300 20000 91125 91219;
0096066800999992011010600004+47250+009350FM-12+250099999V0202401N010319999999N9999999N1-00371-01741999999ADDMA1999999074201ME1429539REMSYN060AAXX  06004 06680 43/// /2420 11037 21174 37420 47953 5////;
0096066800999992011010601004+47250+009350FM-12+250099999V0202301N008719999999N9999999N1-00381-01811999999ADDMA1999999074181ME1429509REMSYN060AAXX  06014 06680 43/// /2317 11038 21181 37418 47950 5////;
0096066800999992011010602004+47250+009350FM-12+250099999V0202401N011319999999N9999999N1-00301-01811999999ADDMA1999999074161ME1429509REMSYN060AAXX  06024 06680 43/// /2422 11030 21181 37416 47950 5////;
0154066800999992011010603004+47250+009350FM-12+250099999V0202501N011310180019N0300001N1-00301-01551999999ADDGA1081+018001041GF108991081001017501021999MA1999999074171ME1429519REMSYN076AAXX  06034 06680 42780 82522 11030 21155 37417 47951 5//// 8802/ 333 88456;
0096066800999992011010604004+47250+009350FM-12+250099999V0202401N007719999999N9999999N1-00391-01301999999ADDMA1999999074171ME1429499REMSYN060AAXX  06044 06680 43/// /2415 11039 21130 37417 47949 5////;
0096066800999992011010605004+47250+009350FM-12+250099999V0202401N007219999999N9999999N1-00391-00871999999ADDMA1999999074171ME1429499REMSYN060AAXX  06054 06680 43/// /2414 11039 21087 37417 47949 5////;
0266066800999992011010606004+47250+009350FM-12+250099999V0202301N006710129019N0080001N1-00461-00771999999ADDAJ102969199999999AL10600091AY111061AY211061GA1081+012901041GF108991081001012501021999GJ105049IA1239KA1999N-00661MA1999999074181ME1429499MW1051REMSYN112AAXX  06064 06680 41658 82313 11046 21077 37418 47949 5//// 70511 8802/ 333 21066 47296 55084 88443 90768 93100;
0096066800999992011010607004+47250+009350FM-12+250099999V0202401N013919999999N9999999N1-00411-00411999999ADDMA1999999074181ME1429509REMSYN060AAXX  06074 06680 43/// /2427 11041 21041 37418 47950 5////;
0112066800999992011010608004+47250+009350FM-12+250099999V0202501N010819999999N9999999N1-00341-00381999999ADDMA1999999074211ME1429549REMSYN076AAXX  06084 06680 33/// /2521 11034 21038 37421 47954 5//// 333 553// 20022;
0182066800999992011010609004+47250+009350FM-12+250099999V0202401N010310150019N0550001N1-00231-00451999999ADDAY141031AY221031GA1071+015001031GF107991071001012501071011MA1999999074241ME1429599MW1021REMSYN082AAXX  06094 06680 41685 72420 11023 21045 37424 47959 5//// 70242 87071 333 87350;
0149066800999992011010610004+47250+009350FM-12+250099999V0202401N006719999999N9999999N1-00211-00551999999ADDMA1999999074301MD1210121+9999ME1429669OA149902111REMSYN088AAXX  06104 06680 33/// /2413 11021 21055 37430 47966 52012 333 55300 20529 91141 91220;
0149066800999992011010611004+47250+009350FM-12+250099999V0202301N004119999999N9999999N1-00241-00671999999ADDMA1999999074271MD1210061+9999ME1429629OA149901961REMSYN088AAXX  06114 06680 33/// /2308 11024 21067 37427 47962 52006 333 55305 20994 91138 91219;
0231066800999992011010612004+47250+009350FM-12+250099999V0202501N00311014101CN0450001N1-00181-00851999999ADDAY141061AY221061GA1071+014101041GF107991071001012501021999MA1999999074261MD1010021+9999ME1429629MW1021OA149902321REMSYN106AAXX  06124 06680 31683 72506 11018 21085 37426 47962 50002 70242 8702/ 333 55302 20896 87447 91145 91228;
0149066800999992011010613004+47250+009350FM-12+250099999V0202401N006219999999N9999999N1-00321-00681999999ADDMA1999999074281MD1510021+9999ME1429629OA149901601REMSYN088AAXX  06134 06680 33/// /2412 11032 21068 37428 47962 55002 333 55300 20450 91131 91219;
0096066800999992011010614004+47250+009350FM-12+250099999V0202301N004619999999N9999999N1-00311-00791999999ADDMA1999999074291ME1429639REMSYN060AAXX  06144 06680 43/// /2309 11031 21079 37429 47963 5////;
0096066800999992011010615004+47250+009350FM-12+250099999V0202401N004119999999N9999999N1-00271-00751999999ADDMA1999999074321ME1429679REMSYN060AAXX  06154 06680 43/// /2408 11027 21075 37432 47967 5////;
0149066800999992011010616004+47250+009350FM-12+250099999V0202401N005719999999N9999999N1-00251-00701999999ADDMA1999999074331MD1210051+9999ME1429689OA149901341REMSYN088AAXX  06164 06680 33/// /2411 11025 21070 37433 47968 52005 333 55300 20032 91126 91211;
0149066800999992011010617004+47250+009350FM-12+250099999V0202401N012319999999N9999999N1-00171-00611999999ADDMA1999999074301MD1010011+9999ME1429679OA149902211REMSYN088AAXX  06174 06680 33/// /2424 11017 21061 37430 47967 50001 333 55300 20000 91143 91224;
0312066800999992011010618004+47250+009350FM-12+250099999V0202401N010810001519N0001001N1-00261-00261999999ADDAA112001091AJ102969199999999AL19900091AY171061AY241061GA1091+999999999GF109991091999999999999999IA1239KA1120M-00151MA1999999074361MD1310041+9999ME1429719MW1701OA149902321REMSYN130AAXX  06184 06680 01/01 92421 11026 21026 37436 47971 53004 60012 77074 333 11015 47296 55300 20000 60015 90766 93100 91145 91228;
0155066800999992011010619004+47250+009350FM-12+250099999V0202401N011819999999N9999999N1-00191-00191999999ADDMA1999999074391MD1210061+9999ME1429769OA149902421REMSYN094AAXX  06194 06680 23/// /2423 11019 21019 37439 47976 52006 333 55300 20000 60025 91147 91227;
0155066800999992011010620004+47250+009350FM-12+250099999V0202501N016419999999N9999999N1-00171-00171999999ADDMA1999999074411MD1219999+9999ME1429789OA149902631REMSYN094AAXX  06204 06680 23/// /2532 11017 21017 37441 47978 52/// 333 55300 20000 69975 91151 91232;
0155066800999992011010621004+47250+009350FM-12+250099999V0202501N012319999999N9999999N1-00181-00181999999ADDMA1999999074451MD1219999+9999ME1429829OA149902931REMSYN094AAXX  06214 06680 23/// /2524 11018 21018 37445 47982 52/// 333 55300 20000 60025 91157 91232;
0155066800999992011010622004+47250+009350FM-12+250099999V0202301N011319999999N9999999N1-00141-00151999999ADDMA1999999074491MD1210101+9999ME1429879OA149902931REMSYN094AAXX  06224 06680 23/// /2322 11014 21015 37449 47987 52010 333 55300 20000 60015 91157 91228;
0112066800999992011010623004+47250+009350FM-12+250099999V0202501N008719999999N9999999N1-00201-00201999999ADDMA1999999074531ME1429919REMSYN076AAXX  06234 06680 33/// /2517 11020 21020 37453 47991 5//// 333 553// 20000;
0096066800999992011010700004+47250+009350FM-12+250099999V0202401N013919999999N9999999N1-00131-00141999999ADDMA1999999074591ME1429989REMSYN060AAXX  07004 06680 43/// /2427 11013 21014 37459 47998 5////;
0096066800999992011010701004+47250+009350FM-12+250099999V0202501N012919999999N9999999N1-00121-00141999999ADDMA1999999074581ME1429979REMSYN060AAXX  07014 06680 43/// /2525 11012 21014 37458 47997 5////;
0096066800999992011010702004+47250+009350FM-12+250099999V0202501N011819999999N9999999N1-00121-00131999999ADDMA1999999074641ME1430049REMSYN060AAXX  07024 06680 43/// /2523 11012 21013 37464 47004 5////;
0182066800999992011010703004+47250+009350FM-12+250099999V0202501N007210099019N0120001N1-00131-00161999999ADDAY171031AY241031GA1081+009901041GF108991081001008001021999MA1999999074701ME1430109MW1101REMSYN082AAXX  07034 06680 41562 82514 11013 21016 37470 47010 5//// 71074 8802/ 333 88433;
0149066800999992011010704004+47250+009350FM-12+250099999V0202501N011819999999N9999999N1-00111-00111999999ADDMA1999999074711MD1210131+9999ME1430119OA149902211REMSYN088AAXX  07044 06680 33/// /2523 11011 21011 37471 47011 52013 333 55300 20000 91143 91228;
0155066800999992011010705004+47250+009350FM-12+250099999V0202301N003619999999N9999999N1-00191-00191999999ADDMA1999999074741MD1210101+9999ME1430139OA149901801REMSYN094AAXX  07054 06680 23/// /2307 11019 21019 37474 47013 52010 333 55300 20000 69945 91135 91223;
0342066800999992011010706004+47250+009350FM-12+250099999V0202401N010810001519N0001001N1-00121-00141999999ADDAA112007191AJ102989199999999AL11800891AL29900291AY171061AY241061GA1091+999999999GF109991091999999999999999GJ100489IA1239KA1999N-00371MA1999999074751MD1210051+9999ME1430159MW1451OA149902931REMSYN142AAXX  07064 06680 01/01 92421 11012 21014 37475 47015 52005 60072 74574 333 21037 47298 55008 55300 20000 69925 70083 90768 93102 91157 91232;
0155066800999992011010707004+47250+009350FM-12+250099999V0202401N010319999999N9999999N1-00141-00151999999ADDMA1999999074801MD1210091+9999ME1430209OA149901801REMSYN094AAXX  07074 06680 23/// /2420 11014 21015 37480 47020 52009 333 55300 20000 69925 91135 91221;
0112066800999992011010708004+47250+009350FM-12+250099999V0202301N006219999999N9999999N1-00091-00161999999ADDMA1999999074831ME1430249REMSYN076AAXX  07084 06680 33/// /2312 11009 21016 37483 47024 5//// 333 553// 20025;
0232066800999992011010709004+47250+009350FM-12+250099999V0202301N006210180019N0550001N1-00011-00331999999ADDAY141031AY221031GA1011+000901061GA2071+018001031GF107991011051000751071999GG1069050009009999MA1999999074831ME1430269MW1021REMSYN098AAXX  07094 06680 41185 72312 11001 21033 37483 47026 5//// 70242 8157/ 333 81603 87356 444 16050;
0149066800999992011010710004+47250+009350FM-12+250099999V0202301N004619999999N9999999N1+00011-00351999999ADDMA1999999074831MD1210031+9999ME1430269OA149901541REMSYN088AAXX  07104 06680 33/// /2309 10001 21035 37483 47026 52003 333 55302 20547 91130 91214;
0168066800999992011010711004+47250+009350FM-12+250099999V0202101N005119999999N9999999N1-00011-00411999999ADDMA1999999074831MD1410001+9999ME1430269OA149901391REMSYN088AAXX  07114 06680 33/// /2110 11001 21041 37483 47026 57000 333 553// 2//// 91127 91213;EQDQ01+000072APCTEN
0295066800999992011010712004+47250+009350FM-12+250099999V0202101N00571066001CN0550001N1-00021-00451999999ADDAA106000091AY141061AY221061GA1021+021001031GA2051+066001001GF106991011051017501041031MA1999999074831MD1010001+9999ME1430269MW1011OA149902521REMSYN124AAXX  07124 06680 01785 62111 11002 21045 37483 47026 50000 69921 70142 81543 333 553// 20943 60005 82357 85072 91149 91228;EQDQ01  00002PRCP06
0149066800999992011010713004+47250+009350FM-12+250099999V0202101N007219999999N9999999N1-00031-00421999999ADDMA1999999074821MD1810011+9999ME1430249OA149901341REMSYN088AAXX  07134 06680 33/// /2114 11003 21042 37482 47024 58001 333 55308 20817 91126 91215;
0096066800999992011010714004+47250+009350FM-12+250099999V0202001N007219999999N9999999N1+00011-00391999999ADDMA1999999074851ME1430289REMSYN060AAXX  07144 06680 43/// /2014 10001 21039 37485 47028 5////;
0096066800999992011010715004+47250+009350FM-12+250099999V0202201N005119999999N9999999N1-00011-00401999999ADDMA1999999074861ME1430299REMSYN060AAXX  07154 06680 43/// /2210 11001 21040 37486 47029 5////;
0149066800999992011010716004+47250+009350FM-12+250099999V0202401N004119999999N9999999N1-00011-00451999999ADDMA1999999074881MD1210061+9999ME1430319OA149901181REMSYN088AAXX  07164 06680 33/// /2408 11001 21045 37488 47031 52006 333 55300 20054 91123 91215;
0149066800999992011010717004+47250+009350FM-12+250099999V0202401N003119999999N9999999N1+00011-00511999999ADDMA1999999074891MD1310041+9999ME1430339OA149901031REMSYN088AAXX  07174 06680 33/// /2406 10001 21051 37489 47033 53004 333 55300 20000 91120 91209;
0268066800999992011010718004+47250+009350FM-12+250099999V0202401N00311021001CN0250001N1-00081-00471999999ADDAA112000091AJ102989199999999GA1061+021001031GF106991061001017501041999IA1239KA1120M+00041MA1999999074901ME1430329REMSYN124AAXX  07184 06680 02775 62406 11008 21047 37490 47032 5//// 69922 8604/ 333 10004 47298 553// 20000 60005 86357 90766 93100;EQDQ01  00002PRCP12
0149066800999992011010719004+47250+009350FM-12+250099999V0202301N004619999999N9999999N1-00061-00471999999ADDMA1999999074901MD1119999+9999ME1430329OA149901241REMSYN088AAXX  07194 06680 33/// /2309 11006 21047 37490 47032 51/// 333 55300 20000 91124 91209;
0096066800999992011010720004+47250+009350FM-12+250099999V0202201N005119999999N9999999N1-00091-00461999999ADDMA1999999074891ME1430319REMSYN060AAXX  07204 06680 43/// /2210 11009 21046 37489 47031 5////;
0096066800999992011010721004+47250+009350FM-12+250099999V0202101N007719999999N9999999N1-00081-00491999999ADDMA1999999074871ME1430299REMSYN060AAXX  07214 06680 43/// /2115 11008 21049 37487 47029 5////;
0149066800999992011010722004+47250+009350FM-12+250099999V0202101N008219999999N9999999N1-00081-00481999999ADDMA1999999074851MD1710051+9999ME1430279OA149901601REMSYN088AAXX  07224 06680 33/// /2116 11008 21048 37485 47027 57005 333 55300 20000 91131 91217;
0112066800999992011010723004+47250+009350FM-12+250099999V0202201N004619999999N9999999N1-00081-00471999999ADDMA1999999074841ME1430269REMSYN076AAXX  07234 06680 33/// /2209 11008 21047 37484 47026 5//// 333 553// 20000;
0112066800999992011010800004+47250+009350FM-12+250099999V0202201N005119999999N9999999N1-00121-00441999999ADDMA1999999074851ME1430269REMSYN076AAXX  08004 06680 33/// /2210 11012 21044 37485 47026 5//// 333 553// 20000;
0096066800999992011010801004+47250+009350FM-12+250099999V0202201N003619999999N9999999N1-00141-00421999999ADDMA1999999074861ME1430269REMSYN060AAXX  08014 06680 43/// /2207 11014 21042 37486 47026 5////;
0096066800999992011010802004+47250+009350FM-12+250099999V0202001N005719999999N9999999N1-00181-00431999999ADDMA1999999074841ME1430249REMSYN060AAXX  08024 06680 43/// /2011 11018 21043 37484 47024 5////;
0138066800999992011010803004+47250+009350FM-12+250099999V0202101N005719999999N0140001N1-00161-00491999999ADDGA1091+999999999GF109991091999999999999999MA1999999074821ME1430229REMSYN060AAXX  08034 06680 42/64 92111 11016 21049 37482 47022 5////;
0096066800999992011010804004+47250+009350FM-12+250099999V0202401N002619999999N9999999N1-00221-00491999999ADDMA1999999074801ME1430199REMSYN060AAXX  08044 06680 43/// /2405 11022 21049 37480 47019 5////;
0096066800999992011010805004+47250+009350FM-12+250099999V0202101N004619999999N9999999N1-00241-00511999999ADDMA1999999074781ME1430169REMSYN060AAXX  08054 06680 43/// /2109 11024 21051 37478 47016 5////;
0236066800999992011010806004+47250+009350FM-12+250099999V0201801N003119999999N0140001N1-00261-00481999999ADDAJ102989199999999AL19900091GA1091+999999999GF109991091999999999999999GJ102649IA1239KA1999N-00281MA1999999074791ME1430179REMSYN104AAXX  08064 06680 42/64 91806 11026 21048 37479 47017 5//// 333 21028 47298 55044 90768 93100 444 23190;
0096066800999992011010807004+47250+009350FM-12+250099999V0202101N007719999999N9999999N1-00321-00411999999ADDMA1999999074841ME1430219REMSYN060AAXX  08074 06680 43/// /2115 11032 21041 37484 47021 5////;
0112066800999992011010808004+47250+009350FM-12+250099999V0202201N006219999999N9999999N1-00301-00431999999ADDMA1999999074881ME1430259REMSYN076AAXX  08084 06680 33/// /2212 11030 21043 37488 47025 5//// 333 553// 20029;
0182066800999992011010809004+47250+009350FM-12+250099999V0202301N003110180019N0350001N1-00281-00491999999ADDGA1051+018001031GF106991021051017501041011GG1069999999999999MA1999999074911ME1430299REMSYN086AAXX  08094 06680 42781 62306 11028 21049 37491 47029 5//// 82541 333 85356 444 26//0;
0096066800999992011010810004+47250+009350FM-12+250099999V0202201N004119999999N9999999N1-00201-00571999999ADDMA1999999074901ME1430299REMSYN060AAXX  08104 06680 43/// /2208 11020 21057 37490 47029 5////;
0096066800999992011010811004+47250+009350FM-12+250099999V0202401N003119999999N9999999N1-00191-00581999999ADDMA1999999074891ME1430299REMSYN060AAXX  08114 06680 43/// /2406 11019 21058 37489 47029 5////;
0182066800999992011010812004+47250+009350FM-12+250099999V0202301N002612200019N0500001N1-00201-00581999999ADDGA1021+000901061GF102991021051000751041011GG1069999999999999MA1999999074871ME1430269REMSYN086AAXX  08124 06680 42184 22305 11020 21058 37487 47026 5//// 82541 333 82603 444 16//0;
0096066800999992011010813004+47250+009350FM-12+250099999V0202201N003119999999N9999999N1-00151-00571999999ADDMA1999999074851ME1430259REMSYN060AAXX  08134 06680 43/// /2206 11015 21057 37485 47025 5////;
0096066800999992011010814004+47250+009350FM-12+250099999V0202201N003119999999N9999999N1-00171-00581999999ADDMA1999999074841ME1430249REMSYN060AAXX  08144 06680 43/// /2206 11017 21058 37484 47024 5////;
0096066800999992011010815004+47250+009350FM-12+250099999V0202201N002619999999N9999999N1-00221-00591999999ADDMA1999999074891ME1430289REMSYN060AAXX  08154 06680 43/// /2205 11022 21059 37489 47028 5////;
0096066800999992011010816004+47250+009350FM-12+250099999V0202101N003619999999N9999999N1-00261-00671999999ADDMA1999999074911ME1430299REMSYN060AAXX  08164 06680 43/// /2107 11026 21067 37491 47029 5////;
0096066800999992011010817004+47250+009350FM-12+250099999V0202301N004119999999N9999999N1-00211-00811999999ADDMA1999999074901ME1430299REMSYN060AAXX  08174 06680 43/// /2308 11021 21081 37490 47029 5////;
0205066800999992011010818004+47250+009350FM-12+250099999V0202101N004112200019N0200001N1-00271-00771999999ADDAJ102959199999999AL10600091GA1011+060001001GF101991001001999999001011IA1279MA1999999074881ME1430269REMSYN094AAXX  08184 06680 42970 12108 11027 21077 37488 47026 5//// 80001 333 43295 81070 90766 93100;
0096066800999992011010819004+47250+009350FM-12+250099999V0201801N005719999999N9999999N1-00251-00811999999ADDMA1999999074871ME1430259REMSYN060AAXX  08194 06680 43/// /1811 11025 21081 37487 47025 5////;
0096066800999992011010820004+47250+009350FM-12+250099999V0202301N004119999999N9999999N1-00221-00871999999ADDMA1999999074871ME1430269REMSYN060AAXX  08204 06680 43/// /2308 11022 21087 37487 47026 5////;
0096066800999992011010821004+47250+009350FM-12+250099999V0202101N006219999999N9999999N1-00281-00791999999ADDMA1999999074841ME1430229REMSYN060AAXX  08214 06680 43/// /2112 11028 21079 37484 47022 5////;
0096066800999992011010822004+47250+009350FM-12+250099999V0201901N006719999999N9999999N1-00261-00781999999ADDMA1999999074831ME1430219REMSYN060AAXX  08224 06680 43/// /1913 11026 21078 37483 47021 5////;
0096066800999992011010823004+47250+009350FM-12+250099999V0202401N002119999999N9999999N1-00281-00761999999ADDMA1999999074831ME1430209REMSYN060AAXX  08234 06680 43/// /2404 11028 21076 37483 47020 5////;
0096066800999992011010900004+47250+009350FM-12+250099999V0202301N003619999999N9999999N1-00261-00751999999ADDMA1999999074821ME1430209REMSYN060AAXX  09004 06680 43/// /2307 11026 21075 37482 47020 5////;
0096066800999992011010901004+47250+009350FM-12+250099999V0202301N003619999999N9999999N1-00241-00821999999ADDMA1999999074811ME1430199REMSYN060AAXX  09014 06680 43/// /2307 11024 21082 37481 47019 5////;
0096066800999992011010902004+47250+009350FM-12+250099999V0202301N004119999999N9999999N1-00281-00781999999ADDMA1999999074821ME1430199REMSYN060AAXX  09024 06680 43/// /2308 11028 21078 37482 47019 5////;
0160066800999992011010903004+47250+009350FM-12+250099999V0202301N00311220001CN0250001N1-00291-00771999999ADDGA1011+015001031GF105991011001012501041011MA1999999074801ME1430179REMSYN082AAXX  09034 06680 42675 52306 11029 21077 37480 47017 5//// 81041 333 81350 85072;
0096066800999992011010904004+47250+009350FM-12+250099999V0202201N005719999999N9999999N1-00261-00831999999ADDMA1999999074761ME1430149REMSYN060AAXX  09044 06680 43/// /2211 11026 21083 37476 47014 5////;
0096066800999992011010905004+47250+009350FM-12+250099999V0201901N006219999999N9999999N1-00291-00871999999ADDMA1999999074751ME1430129REMSYN060AAXX  09054 06680 43/// /1912 11029 21087 37475 47012 5////;
0241066800999992011010906004+47250+009350FM-12+250099999V0202001N007212200019N0250001N1-00301-00871999999ADDAJ102909199999999AL10600091GA1011+015001031GA2041+066001001GF104991011001012501041011GJ103189IA1279MA1999999074751ME1430129REMSYN106AAXX  09064 06680 42675 42014 11030 21087 37475 47012 5//// 81041 333 43290 55053 81350 84072 90768 93100;
0096066800999992011010907004+47250+009350FM-12+250099999V0202001N006719999999N9999999N1-00311-00851999999ADDMA1999999074731ME1430099REMSYN060AAXX  09074 06680 43/// /2013 11031 21085 37473 47009 5////;
0112066800999992011010908004+47250+009350FM-12+250099999V0201901N005719999999N9999999N1-00291-00841999999ADDMA1999999074761ME1430139REMSYN076AAXX  09084 06680 33/// /1911 11029 21084 37476 47013 5//// 333 553// 20065;
0198066800999992011010909004+47250+009350FM-12+250099999V0202201N00621066001CN0550001N1-00271-00801999999ADDGA1041+015001031GA2041+066001001GF107991011051012501071011MA1999999074761ME1430139REMSYN104AAXX  09094 06680 32685 72212 11027 21080 37476 47013 5//// 81571 333 553// 20302 84350 84072 444 16//0;
0149066800999992011010910004+47250+009350FM-12+250099999V0202101N005719999999N9999999N1-00271-00741999999ADDMA1999999074791MD1210061+9999ME1430169OA149901291REMSYN088AAXX  09104 06680 33/// /2111 11027 21074 37479 47016 52006 333 55300 20454 91125 91215;
0149066800999992011010911004+47250+009350FM-12+250099999V0202201N004619999999N9999999N1-00271-00721999999ADDMA1999999074791MD1210031+9999ME1430169OA149901291REMSYN088AAXX  09114 06680 33/// /2209 11027 21072 37479 47016 52003 333 55303 20666 91125 91215;
0235066800999992011010912004+47250+009350FM-12+250099999V0202301N00361066001CN0550001N1-00251-00671999999ADDGA1021+015001031GA2061+066001001GF106991011051012501041011MA1999999074751MD1810011+9999ME1430139OA149901341REMSYN116AAXX  09124 06680 32685 62307 11025 21067 37475 47013 58001 81541 333 55305 20839 82350 86072 91126 91215 444 16//0;
0149066800999992011010913004+47250+009350FM-12+250099999V0202201N006219999999N9999999N1-00271-00671999999ADDMA1999999074731MD1710061+9999ME1430109OA149901341REMSYN088AAXX  09134 06680 33/// /2212 11027 21067 37473 47010 57006 333 55308 2//// 91126 91213;
0096066800999992011010914004+47250+009350FM-12+250099999V0202301N004119999999N9999999N1-00271-00641999999ADDMA1999999074741ME1430119REMSYN060AAXX  09144 06680 43/// /2308 11027 21064 37474 47011 5////;
0096066800999992011010915004+47250+009350FM-12+250099999V0202101N007219999999N9999999N1-00281-00671999999ADDMA1999999074731ME1430109REMSYN060AAXX  09154 06680 43/// /2114 11028 21067 37473 47010 5////;
0149066800999992011010916004+47250+009350FM-12+250099999V0202101N007719999999N9999999N1-00301-00611999999ADDMA1999999074721MD1710011+9999ME1430099OA149901651REMSYN088AAXX  09164 06680 33/// /2115 11030 21061 37472 47009 57001 333 55300 20058 91132 91215;
0149066800999992011010917004+47250+009350FM-12+250099999V0202001N006719999999N9999999N1-00381-00541999999ADDMA1999999074751MD1210011+9999ME1430109OA149901651REMSYN088AAXX  09174 06680 33/// /2013 11038 21054 37475 47010 52001 333 55300 20000 91132 91215;
0305066800999992011010918004+47250+009350FM-12+250099999V0202101N00671066001CN0200001N1-00411-00521999999ADDAJ102859199999999AL19900091GA1011+009901031GA2081+066001021GF108991021051008001041071IA1279KA1120M-00211MA1999999074771MD1210041+9999ME1430129OA149901651REMSYN140AAXX  09184 06680 32570 82113 11041 21052 37477 47012 52004 82547 333 11021 43285 55300 20000 81333 88272 90766 93100 91132 91215 444 66247;
0149066800999992011010919004+47250+009350FM-12+250099999V0202101N005719999999N9999999N1-00431-00501999999ADDMA1999999074781MD1110061+9999ME1430129OA149901341REMSYN088AAXX  09194 06680 33/// /2111 11043 21050 37478 47012 51006 333 55300 20000 91126 91216;
0149066800999992011010920004+47250+009350FM-12+250099999V0202101N005119999999N9999999N1-00441-00441999999ADDMA1999999074801MD1310051+9999ME1430149OA149901341REMSYN088AAXX  09204 06680 33/// /2110 11044 21044 37480 47014 53005 333 55300 20000 91126 91216;
0149066800999992011010921004+47250+009350FM-12+250099999V0202301N004119999999N9999999N1-00451-00451999999ADDMA1999999074821MD1310051+9999ME1430169OA149901651REMSYN088AAXX  09214 06680 33/// /2308 11045 21045 37482 47016 53005 333 55300 20000 91132 91216;
0149066800999992011010922004+47250+009350FM-12+250099999V0202401N003119999999N9999999N1-00471-00471999999ADDMA1999999074841MD1210061+9999ME1430189OA149900931REMSYN088AAXX  09224 06680 33/// /2406 11047 21047 37484 47018 52006 333 55300 20000 91118 91210;
0155066800999992011010923004+47250+009350FM-12+250099999V0202601N005119999999N9999999N1-00461-00511999999ADDMA1999999074851MD1210051+9999ME1430199OA149900981REMSYN094AAXX  09234 06680 23/// /2610 11046 21051 37485 47019 52005 333 55300 20000 69955 91119 91212;
0172066800999992011011000004+47250+009350FM-12+250099999V0202701N002119999999N9999999N1-00471-00511999999ADDAA106000591MA1999999074851MD1210031+9999ME1430199OA149901651REMSYN100AAXX  10004 06680 03/// /2704 11047 21051 37485 47019 52003 69951 333 55300 20000 60005 91132 91216;
0155066800999992011011001004+47250+009350FM-12+250099999V0202501N000519999999N9999999N1-00531-00541999999ADDMA1999999074861MD1210021+9999ME1430199OA149900821REMSYN094AAXX  10014 06680 23/// /2501 11053 21054 37486 47019 52002 333 55300 20000 69925 91116 91209;
0118066800999992011011002004+47250+009350FM-12+250099999V0202501N003119999999N9999999N1-00501-00541999999ADDMA1999999074881ME1430219REMSYN082AAXX  10024 06680 23/// /2506 11050 21054 37488 47021 5//// 333 553// 20000 69995;
0166066800999992011011003004+47250+009350FM-12+250099999V0202601N004110001519N0001001N1-00531-00561999999ADDAY171031AY241031GA1091+999999999GF109991091999999999999999MA1999999074861ME1430199MW1711REMSYN066AAXX  10034 06680 41/01 92608 11053 21056 37486 47019 5//// 77174;
0118066800999992011011004004+47250+009350FM-12+250099999V0202801N003119999999N9999999N1-00561-00581999999ADDMA1999999074851ME1430179REMSYN082AAXX  10044 06680 23/// /2806 11056 21058 37485 47017 5//// 333 553// 20000 69975;
0149066800999992011011005004+47250+009350FM-12+250099999V0202701N003119999999N9999999N1-00571-00591999999ADDMA1999999074851MD1619999+9999ME1430179OA149900881REMSYN088AAXX  10054 06680 33/// /2706 11057 21059 37485 47017 56/// 333 55300 20000 91117 91211;
0271066800999992011011006004+47250+009350FM-12+250099999V0202601N004610001519N0001001N1-00571-00631999999ADDAA124002891AJ102909199999999AL14800291AY171061AY241061GA1091+999999999GF109991091999999999999999GJ101089IA1239KA1999N-00581MA1999999074861ME1430189MW1711REMSYN106AAXX  10064 06680 41/01 92609 11057 21063 37486 47018 5//// 77174 333 21058 47290 55018 70028 90768 93105;
0149066800999992011011007004+47250+009350FM-12+250099999V0202701N002619999999N9999999N1-00561-00621999999ADDMA1999999074881MD1210031+9999ME1430209OA149900671REMSYN088AAXX  10074 06680 33/// /2705 11056 21062 37488 47020 52003 333 55300 20000 91113 91209;
0096066800999992011011008004+47250+009350FM-12+250099999V0202601N002619999999N9999999N1-00581-00611999999ADDMA1999999074911ME1430239REMSYN060AAXX  10084 06680 43/// /2605 11058 21061 37491 47023 5////;
0192066800999992011011009004+47250+009350FM-12+250099999V0202301N000510030019N0450001N1-00481-00671999999ADDAY171031AY241031GA1081+003001041GF108991081001002501021999MA1999999074921ME1430269MW1021REMSYN092AAXX  10094 06680 41383 82301 11048 21067 37492 47026 5//// 70274 8802/ 333 88410 444 57153;
0149066800999992011011010004+47250+009350FM-12+250099999V0201501N001019999999N9999999N1-00521-00651999999ADDMA1999999074921MD1210041+9999ME1430259OA149900411REMSYN088AAXX  10104 06680 33/// /1502 11052 21065 37492 47025 52004 333 55300 20443 91108 91206;
0149066800999992011011011004+47250+009350FM-12+250099999V0201801N001019999999N9999999N1-00501-00641999999ADDMA1999999074891MD1819999+9999ME1430229OA149900411REMSYN088AAXX  10114 06680 33/// /1802 11050 21064 37489 47022 58/// 333 55300 20734 91108 91203;
0204066800999992011011012004+47250+009350FM-12+250099999V0201801N00151003001CN0400001N1-00481-00581999999ADDAY171061AY241061GA1081+003001041GF108991081001002501021999MA1999999074861ME1430209MW1021REMSYN104AAXX  10124 06680 31382 81803 11048 21058 37486 47020 5//// 70274 8802/ 333 553// 20691 88410 444 76159;
0096066800999992011011013004+47250+009350FM-12+250099999V0201801N002619999999N9999999N1-00471-00561999999ADDMA1999999074831ME1430179REMSYN060AAXX  10134 06680 43/// /1805 11047 21056 37483 47017 5////;
0096066800999992011011014004+47250+009350FM-12+250099999V0201701N001519999999N9999999N1-00511-00551999999ADDMA1999999074811ME1430149REMSYN060AAXX  10144 06680 43/// /1703 11051 21055 37481 47014 5////;
0096066800999992011011015004+47250+009350FM-12+250099999V0201701N001519999999N9999999N1-00431-00781999999ADDMA1999999074801ME1430149REMSYN060AAXX  10154 06680 43/// /1703 11043 21078 37480 47014 5////;
0096066800999992011011016004+47250+009350FM-12+250099999V0202001N002619999999N9999999N1-00501-00741999999ADDMA1999999074781ME1430119REMSYN060AAXX  10164 06680 43/// /2005 11050 21074 37478 47011 5////;
0096066800999992011011017004+47250+009350FM-12+250099999V0201901N003119999999N9999999N1-00461-00761999999ADDMA1999999074761ME1430109REMSYN060AAXX  10174 06680 43/// /1906 11046 21076 37476 47010 5////;
0252066800999992011011018004+47250+009350FM-12+250099999V0202201N004612200019N0200001N1-00521-00751999999ADDAJ102909199999999AL19900091GA1011+066001001GF101991001001999999001011GG1079051009019999IA1239KA1120M-00421MA1999999074751ME1430079REMSYN110AAXX  10184 06680 42970 12209 11052 21075 37475 47007 5//// 80001 333 11042 47290 81072 90766 93100 444 77151;
0096066800999992011011019004+47250+009350FM-12+250099999V0202201N003119999999N9999999N1-00511-00831999999ADDMA1999999074731ME1430059REMSYN060AAXX  10194 06680 43/// /2206 11051 21083 37473 47005 5////;
0096066800999992011011020004+47250+009350FM-12+250099999V0202201N003619999999N9999999N1-00491-00861999999ADDMA1999999074701ME1430039REMSYN060AAXX  10204 06680 43/// /2207 11049 21086 37470 47003 5////;
0096066800999992011011021004+47250+009350FM-12+250099999V0202401N002119999999N9999999N1-00511-00841999999ADDMA1999999074691ME1430019REMSYN060AAXX  10214 06680 43/// /2404 11051 21084 37469 47001 5////;
0096066800999992011011022004+47250+009350FM-12+250099999V0202401N004619999999N9999999N1-00511-00951999999ADDMA1999999074681ME1430009REMSYN060AAXX  10224 06680 43/// /2409 11051 21095 37468 47000 5////;
0096066800999992011011023004+47250+009350FM-12+250099999V0202501N007219999999N9999999N1-00461-01051999999ADDMA1999999074671ME1430009REMSYN060AAXX  10234 06680 43/// /2514 11046 21105 37467 47000 5////;
0096066800999992011011100004+47250+009350FM-12+250099999V0202401N006719999999N9999999N1-00491-01011999999ADDMA1999999074631ME1429959REMSYN060AAXX  11004 06680 43/// /2413 11049 21101 37463 47995 5////;
0096066800999992011011101004+47250+009350FM-12+250099999V0202401N003119999999N9999999N1-00491-01021999999ADDMA1999999074601ME1429929REMSYN060AAXX  11014 06680 43/// /2406 11049 21102 37460 47992 5////;
0096066800999992011011102004+47250+009350FM-12+250099999V0202401N004619999999N9999999N1-00501-00981999999ADDMA1999999074591ME1429919REMSYN060AAXX  11024 06680 43/// /2409 11050 21098 37459 47991 5////;
0166066800999992011011103004+47250+009350FM-12+250099999V0202401N004612200019N0200001N1-00551-00981999999ADDGA1001+999999999GF100991001001999999001001GG1079051009019999MA1999999074551ME1429869REMSYN070AAXX  11034 06680 42970 02409 11055 21098 37455 47986 5//// 444 77151;
0096066800999992011011104004+47250+009350FM-12+250099999V0202501N004619999999N9999999N1-00541-01061999999ADDMA1999999074531ME1429849REMSYN060AAXX  11044 06680 43/// /2509 11054 21106 37453 47984 5////;
0096066800999992011011105004+47250+009350FM-12+250099999V0202401N004119999999N9999999N1-00551-01021999999ADDMA1999999074481ME1429799REMSYN060AAXX  11054 06680 43/// /2408 11055 21102 37448 47979 5////;
0235066800999992011011106004+47250+009350FM-12+250099999V0202201N002612200019N0200001N1-00591-01001999999ADDAJ102909199999999AL19900091GA1001+999999999GF100991001001999999001001GG1079011009019999GJ100729IA1239MA1999999074461ME1429769REMSYN098AAXX  11064 06680 42970 02205 11059 21100 37446 47976 5//// 333 47290 55012 90768 93100 444 77111;
0149066800999992011011107004+47250+009350FM-12+250099999V0202001N005119999999N9999999N1-00561-00961999999ADDMA1999999074421MD1619999+9999ME1429729OA149900671REMSYN088AAXX  11074 06680 33/// /2010 11056 21096 37442 47972 56/// 333 55300 20000 91113 91210;
0112066800999992011011108004+47250+009350FM-12+250099999V0202201N004119999999N9999999N1-00521-00901999999ADDMA1999999074421ME1429739REMSYN076AAXX  11084 06680 33/// /2208 11052 21090 37442 47973 5//// 333 553// 20104;
0182066800999992011011109004+47250+009350FM-12+250099999V0202001N005712200019N0550001N1-00501-00811999999ADDGA1011+000601061GF101991011051000251001011GG1079022009019999MA1999999074391ME1429709REMSYN086AAXX  11094 06680 42085 12011 11050 21081 37439 47970 5//// 81501 333 81602 444 77122;
0149066800999992011011110004+47250+009350FM-12+250099999V0202101N006219999999N9999999N1-00441-00911999999ADDMA1999999074371MD1810051+9999ME1429699OA149901031REMSYN088AAXX  11104 06680 33/// /2112 11044 21091 37437 47969 58005 333 553// 20986 91120 91213;
0149066800999992011011111004+47250+009350FM-12+250099999V0202301N004619999999N9999999N1-00411-01581999999ADDMA1999999074331MD1810091+9999ME1429669OA149900931REMSYN088AAXX  11114 06680 33/// /2309 11041 21158 37433 47966 58009 333 553// 2//// 91118 91213;
0194066800999992011011112004+47250+009350FM-12+250099999V0202301N006212200019N0500001N1-00371-01751999999ADDGA1011+000601061GF101991011051000251041001GG1079023009019999MA1999999074261ME1429599REMSYN098AAXX  11124 06680 32084 12312 11037 21175 37426 47959 5//// 81540 333 553// 2//// 81602 444 67123;
0149066800999992011011113004+47250+009350FM-12+250099999V0202301N005719999999N9999999N1-00361-01491999999ADDMA1999999074211MD1610161+9999ME1429549OA149900931REMSYN088AAXX  11134 06680 33/// /2311 11036 21149 37421 47954 56016 333 553// 2//// 91118 91214;
0096066800999992011011114004+47250+009350FM-12+250099999V0202301N002619999999N9999999N1-00411-01761999999ADDMA1999999074211ME1429539REMSYN060AAXX  11144 06680 43/// /2305 11041 21176 37421 47953 5////;
0096066800999992011011115004+47250+009350FM-12+250099999V0201801N004619999999N9999999N1-00501-01211999999ADDMA1999999074211ME1429519REMSYN060AAXX  11154 06680 43/// /1809 11050 21121 37421 47951 5////;
0149066800999992011011116004+47250+009350FM-12+250099999V0202501N005119999999N9999999N1-00531-01321999999ADDMA1999999074281MD1210071+9999ME1429589OA149901131REMSYN088AAXX  11164 06680 33/// /2510 11053 21132 37428 47958 52007 333 55300 20040 91122 91210;
0149066800999992011011117004+47250+009350FM-12+250099999V0202301N005719999999N9999999N1-00691-00721999999ADDMA1999999074291MD1210081+9999ME1429569OA149901131REMSYN088AAXX  11174 06680 33/// /2311 11069 21072 37429 47956 52008 333 55300 20000 91122 91211;
0312066800999992011011118004+47250+009350FM-12+250099999V0202601N013910001519N0001001N1-00631-00631999999ADDAA112000021AJ102909199999999AL19900091AY101061AY201061GA1091+999999999GF109991091999999999999999IA1239KA1120M-00341MA1999999074281MD1010071+9999ME1429569MW1731OA149902061REMSYN130AAXX  11184 06680 01/01 92627 11063 21063 37428 47956 50007 69922 77300 333 11034 47290 55300 20000 69925 90766 93100 91140 91227;
0155066800999992011011119004+47250+009350FM-12+250099999V0202601N012919999999N9999999N1-00621-00621999999ADDMA1999999074321MD1210041+9999ME1429619OA149902261REMSYN094AAXX  11194 06680 23/// /2625 11062 21062 37432 47961 52004 333 55300 20000 60025 91144 91229;
0155066800999992011011120004+47250+009350FM-12+250099999V0202501N010819999999N9999999N1-00681-00681999999ADDMA1999999074401MD1210111+9999ME1429689OA149902261REMSYN094AAXX  11204 06680 23/// /2521 11068 21068 37440 47968 52011 333 55300 20000 60015 91144 91229;
0155066800999992011011121004+47250+009350FM-12+250099999V0202501N009319999999N9999999N1-00701-00701999999ADDMA1999999074471MD1210191+9999ME1429759OA149902261REMSYN094AAXX  11214 06680 23/// /2518 11070 21070 37447 47975 52019 333 55300 20000 60025 91144 91229;
0155066800999992011011122004+47250+009350FM-12+250099999V0202501N010819999999N9999999N1-00721-00721999999ADDMA1999999074521MD1310201+9999ME1429809OA149901961REMSYN094AAXX  11224 06680 23/// /2521 11072 21072 37452 47980 53020 333 55300 20000 60025 91138 91223;
0155066800999992011011123004+47250+009350FM-12+250099999V0202601N007219999999N9999999N1-00761-00761999999ADDMA1999999074591MD1210191+9999ME1429869OA149901961REMSYN094AAXX  11234 06680 23/// /2614 11076 21076 37459 47986 52019 333 55300 20000 60015 91138 91223;
0172066800999992011011200004+47250+009350FM-12+250099999V0202601N008719999999N9999999N1-00741-00741999999ADDAA106007991MA1999999074611MD1210141+9999ME1429899OA149902261REMSYN100AAXX  12004 06680 03/// /2617 11074 21074 37461 47989 52014 60081 333 55300 20000 69955 91144 91229;
0155066800999992011011201004+47250+009350FM-12+250099999V0202601N007219999999N9999999N1-00761-00761999999ADDMA1999999074651MD1210131+9999ME1429929OA149901541REMSYN094AAXX  12014 06680 23/// /2614 11076 21076 37465 47992 52013 333 55300 20000 69945 91130 91217;
0118066800999992011011202004+47250+009350FM-12+250099999V0202501N012319999999N9999999N1-00741-00741999999ADDMA1999999074711ME1429999REMSYN082AAXX  12024 06680 23/// /2524 11074 21074 37471 47999 5//// 333 553// 20000 69915;
0166066800999992011011203004+47250+009350FM-12+250099999V0202501N008210001519N0001001N1-00731-00731999999ADDAY171031AY241031GA1091+999999999GF109991091999999999999999MA1999999074741ME1430029MW1711REMSYN066AAXX  12034 06680 41/01 92516 11073 21073 37474 47002 5//// 77174;
0096066800999992011011204004+47250+009350FM-12+250099999V0202601N012919999999N9999999N1-00711-00711999999ADDMA1999999074751ME1430049REMSYN060AAXX  12044 06680 43/// /2625 11071 21071 37475 47004 5////;
0118066800999992011011205004+47250+009350FM-12+250099999V0202501N012919999999N9999999N1-00691-00691999999ADDMA1999999074791ME1430089REMSYN082AAXX  12054 06680 23/// /2525 11069 21069 37479 47008 5//// 333 553// 20000 60015;
0271066800999992011011206004+47250+009350FM-12+250099999V0202601N014410001519N0001001N1-00711-00711999999ADDAA124013291AJ102939199999999AL10601391AY171061AY241061GA1091+999999999GF109991091999999999999999GJ103669IA1239KA1999N-00771MA1999999074841ME1430139MW1711REMSYN106AAXX  12064 06680 41/01 92628 11071 21071 37484 47013 5//// 77174 333 21077 47293 55061 70131 90768 93103;
0155066800999992011011207004+47250+009350FM-12+250099999V0202601N014919999999N9999999N1-00461-00461999999ADDMA1999999074871MD1210121+9999ME1430219OA149902321REMSYN094AAXX  12074 06680 23/// /2629 11046 21046 37487 47021 52012 333 55300 20000 69985 91145 91230;
0096066800999992011011208004+47250+009350FM-12+250099999V0202501N015919999999N9999999N1-00671-00671999999ADDMA1999999074921ME1430229REMSYN060AAXX  12084 06680 43/// /2531 11067 21067 37492 47022 5////;
0166066800999992011011209004+47250+009350FM-12+250099999V0202501N015410001519N0001001N1-00731-00731999999ADDAY171031AY241031GA1091+999999999GF109991091999999999999999MA1999999074981ME1430279MW1491REMSYN066AAXX  12094 06680 41/01 92530 11073 21073 37498 47027 5//// 74974;
0149066800999992011011210004+47250+009350FM-12+250099999V0202501N015919999999N9999999N1-00721-00731999999ADDMA1999999075001MD1219999+9999ME1430299OA149902011REMSYN088AAXX  12104 06680 33/// /2531 11072 21073 37500 47029 52/// 333 55300 20396 91139 91231;
0149066800999992011011211004+47250+009350FM-12+250099999V0202601N013919999999N9999999N1-00711-01582999999ADDMA1999999075001MD1210081+9999ME1430299OA149902111REMSYN088AAXX  12114 06680 33/// /2627 11071 21158 37500 47029 52008 333 55300 20709 91141 91231;
0192066800999992011011212004+47250+009350FM-12+250099999V0202601N015410141019N0350001N1-00731-01351999999ADDAY171061AY221061GA1081+014101041GF108991081001012501021999MA1999999074981ME1430279MW1021REMSYN092AAXX  12124 06680 41681 82630 11073 21135 37498 47027 5//// 70272 8802/ 333 88447 444 66196;
0096066800999992011011213004+47250+009350FM-12+250099999V0202601N015919999999N9999999N1-00741-00921999999ADDMA1999999074961ME1430259REMSYN060AAXX  12134 06680 43/// /2631 11074 21092 37496 47025 5////;
0096066800999992011011214004+47250+009350FM-12+250099999V0202301N015919999999N9999999N1-00831-00871999999ADDMA1999999074941ME1430219REMSYN060AAXX  12144 06680 43/// /2331 11083 21087 37494 47021 5////;
0096066800999992011011215004+47250+009350FM-12+250099999V0202501N016419999999N9999999N1-00521-00521999999ADDMA1999999074951ME1430289REMSYN060AAXX  12154 06680 43/// /2532 11052 21052 37495 47028 5////;
0149066800999992011011216004+47250+009350FM-12+250099999V0202401N009319999999N9999999N1-00321-00331999999ADDMA1999999075021MD1310061+9999ME1430409OA149902521REMSYN088AAXX  12164 06680 33/// /2418 11032 21033 37502 47040 53006 333 55300 20022 91149 91237;
0149066800999992011011217004+47250+009350FM-12+250099999V0202401N011319999999N9999999N1-00291-00311999999ADDMA1999999075051MD1210111+9999ME1430439OA149901961REMSYN088AAXX  12174 06680 33/// /2422 11029 21031 37505 47043 52011 333 55300 20000 91138 91224;
0312066800999992011011218004+47250+009350FM-12+250099999V0202401N011810001519N0001001N1-00331-00331999999ADDAA112000891AJ102949199999999AL11200191AY171061AY221061GA1091+999999999GF109991091999999999999999IA1239KA1120M-00231MA1999999075061MD1210111+9999ME1430439MW1491OA149902521REMSYN130AAXX  12184 06680 01/01 92423 11033 21033 37506 47043 52011 69982 74972 333 11023 47294 55300 20000 60005 90766 93101 91149 91237;
0149066800999992011011219004+47250+009350FM-12+250099999V0202501N013419999999N9999999N1-00251-00251999999ADDMA1999999075081MD1210061+9999ME1430479OA149902321REMSYN088AAXX  12194 06680 33/// /2526 11025 21025 37508 47047 52006 333 55300 20000 91145 91228;
0149066800999992011011220004+47250+009350FM-12+250099999V0202501N015419999999N9999999N1-00241-00361999999ADDMA1999999075071MD1210021+9999ME1430469OA149902571REMSYN088AAXX  12204 06680 33/// /2530 11024 21036 37507 47046 52002 333 55300 20000 91150 91230;
0149066800999992011011221004+47250+009350FM-12+250099999V0202501N015919999999N9999999N1-00201-00201999999ADDMA1999999075091MD1210031+9999ME1430499OA149902571REMSYN088AAXX  12214 06680 33/// /2531 11020 21020 37509 47049 52003 333 55300 20000 91150 91231;
0149066800999992011011222004+47250+009350FM-12+250099999V0202401N015419999999N9999999N1-00201-00251999999ADDMA1999999075071MD1710011+9999ME1430479OA149902471REMSYN088AAXX  12224 06680 33/// /2430 11020 21025 37507 47047 57001 333 55300 20000 91148 91231;
0149066800999992011011223004+47250+009350FM-12+250099999V0202501N017019999999N9999999N1-00201-00211999999ADDMA1999999075071MD1410001+9999ME1430479OA149902731REMSYN088AAXX  12234 06680 33/// /2533 11020 21021 37507 47047 57000 333 55300 20000 91153 91234;
0149066800999992011011300004+47250+009350FM-12+250099999V0202501N017519999999N9999999N1-00201-00201999999ADDMA1999999075041MD1710051+9999ME1430449OA149902931REMSYN088AAXX  13004 06680 33/// /2534 11020 21020 37504 47044 57005 333 55300 20000 91157 91237;
0149066800999992011011301004+47250+009350FM-12+250099999V0202401N012319999999N9999999N1-00211-00221999999ADDMA1999999075071MD1510001+9999ME1430479OA149902931REMSYN088AAXX  13014 06680 33/// /2424 11021 21022 37507 47047 55000 333 55300 20000 91157 91235;
0149066800999992011011302004+47250+009350FM-12+250099999V0202401N008719999999N9999999N1-00121-00121999999ADDMA1999999075111MD1219999+9999ME1430539OA149902731REMSYN088AAXX  13024 06680 33/// /2417 11012 21012 37511 47053 52/// 333 55300 20000 91153 91233;
0166066800999992011011303004+47250+009350FM-12+250099999V0202501N014910001519N0001001N1-00151-00151999999ADDAY171031AY241031GA1091+999999999GF109991091999999999999999MA1999999075071ME1430489MW1711REMSYN066AAXX  13034 06680 41/01 92529 11015 21015 37507 47048 5//// 77174;
0149066800999992011011304004+47250+009350FM-12+250099999V0202401N012919999999N9999999N1-00101-00101999999ADDMA1999999075071MD1819999+9999ME1430499OA149902571REMSYN088AAXX  13044 06680 33/// /2425 11010 21010 37507 47049 58/// 333 55300 20000 91150 91229;
0112066800999992011011305004+47250+009350FM-12+250099999V0202301N006219999999N9999999N1-00121-00121999999ADDMA1999999075121ME1430549REMSYN076AAXX  13054 06680 33/// /2312 11012 21012 37512 47054 5//// 333 553// 20000;
0319066800999992011011306004+47250+009350FM-12+250099999V0202301N010310001519N0001001N1-00111-00111999999ADDAJ103019199999999AL12400191AL29900891AY171061AY241061GA1091+999999999GF109991091999999999999999GJ100009IA1239KA1999N-00331MA1999999075111MD1210041+9999ME1430539MW1731OA149902931REMSYN130AAXX  13064 06680 31/01 92320 11011 21011 37511 47053 52004 77374 333 21033 47301 55000 55300 20000 70014 90768 93108 91157 91235;
0096066800999992011011307004+47250+009350FM-12+250099999V0202601N016419999999N9999999N1-00121-00121999999ADDMA1999999075101ME1430529REMSYN060AAXX  13074 06680 43/// /2632 11012 21012 37510 47052 5////;
0096066800999992011011308004+47250+009350FM-12+250099999V0202601N018519999999N9999999N1-00151-00151999999ADDMA1999999075111ME1430529REMSYN060AAXX  13084 06680 43/// /2636 11015 21015 37511 47052 5////;
0166066800999992011011309004+47250+009350FM-12+250099999V0202601N018510001519N0001001N1-00201-00201999999ADDAY171031AY241031GA1091+999999999GF109991091999999999999999MA1999999075111ME1430519MW1711REMSYN066AAXX  13094 06680 41/01 92636 11020 21020 37511 47051 5//// 77174;
0096066800999992011011310004+47250+009350FM-12+250099999V0202501N015919999999N9999999N1-00211-00211999999ADDMA1999999075151ME1430559REMSYN060AAXX  13104 06680 43/// /2531 11021 21021 37515 47055 5////;
0096066800999992011011311004+47250+009350FM-12+250099999V0202501N018519999999N9999999N1-00191-00191999999ADDMA1999999075141ME1430559REMSYN060AAXX  13114 06680 43/// /2536 11019 21019 37514 47055 5////;
0166066800999992011011312004+47250+009350FM-12+250099999V0202501N019510001519N0001001N1-00201-00201999999ADDAY171061AY241061GA1091+999999999GF109991091999999999999999MA1999999075121ME1430529MW1711REMSYN066AAXX  13124 06680 41/01 92538 11020 21020 37512 47052 5//// 77174;
0096066800999992011011313004+47250+009350FM-12+250099999V0202601N018519999999N9999999N1-00201-00211999999ADDMA1999999075101ME1430509REMSYN060AAXX  13134 06680 43/// /2636 11020 21021 37510 47050 5////;
0096066800999992011011314004+47250+009350FM-12+250099999V0202601N017519999999N9999999N1-00231-00231999999ADDMA1999999075131ME1430539REMSYN060AAXX  13144 06680 43/// /2634 11023 21023 37513 47053 5////;
0096066800999992011011315004+47250+009350FM-12+250099999V0202601N018019999999N9999999N1-00191-00241999999ADDMA1999999075151ME1430569REMSYN060AAXX  13154 06680 43/// /2635 11019 21024 37515 47056 5////;
0096066800999992011011316004+47250+009350FM-12+250099999V0202501N018519999999N9999999N1-00211-00211999999ADDMA1999999075181ME1430599REMSYN060AAXX  13164 06680 43/// /2536 11021 21021 37518 47059 5////;
0155066800999992011011317004+47250+009350FM-12+250099999V0202501N014919999999N9999999N1-00131-00131999999ADDMA1999999075201MD1210071+9999ME1430629OA149903091REMSYN094AAXX  13174 06680 23/// /2529 11013 21013 37520 47062 52007 333 55300 20000 69915 91160 91236;
0312066800999992011011318004+47250+009350FM-12+250099999V0202601N014410001519N0001001N1-00131-00131999999ADDAA112003091AJ103029199999999AL11200191AY171061AY241061GA1091+999999999GF109991091999999999999999IA1279KA1120M-00111MA1999999075221MD1210081+9999ME1430649MW1451OA149903091REMSYN130AAXX  13184 06680 01/01 92628 11013 21013 37522 47064 52008 60032 74574 333 11011 43302 55300 20000 60005 90766 93101 91160 91240;
0155066800999992011011319004+47250+009350FM-12+250099999V0202601N014919999999N9999999N1-00151-00151999999ADDMA1999999075211MD1010031+9999ME1430639OA149902521REMSYN094AAXX  13194 06680 23/// /2629 11015 21015 37521 47063 50003 333 55300 20000 60025 91149 91229;
0155066800999992011011320004+47250+009350FM-12+250099999V0202601N008719999999N9999999N1-00121-00121999999ADDMA1999999075241MD1210041+9999ME1430679OA149902421REMSYN094AAXX  13204 06680 23/// /2617 11012 21012 37524 47067 52004 333 55300 20000 60025 91147 91229;
0155066800999992011011321004+47250+009350FM-12+250099999V0202601N010319999999N9999999N1-00121-00121999999ADDMA1999999075251MD1210031+9999ME1430689OA149903091REMSYN094AAXX  13214 06680 23/// /2620 11012 21012 37525 47068 52003 333 55300 20000 60015 91160 91236;
0155066800999992011011322004+47250+009350FM-12+250099999V0202601N012919999999N9999999N1-00111-00111999999ADDMA1999999075261MD1210051+9999ME1430699OA149902161REMSYN094AAXX  13224 06680 23/// /2625 11011 21011 37526 47069 52005 333 55300 20000 60015 91142 91225;
0155066800999992011011323004+47250+009350FM-12+250099999V0202601N012319999999N9999999N1-00141-00141999999ADDMA1999999075271MD1210031+9999ME1430699OA149901961REMSYN094AAXX  13234 06680 23/// /2624 11014 21014 37527 47069 52003 333 55300 20000 60025 91138 91225;
0172066800999992011011400004+47250+009350FM-12+250099999V0202601N012319999999N9999999N1-00151-00151999999ADDAA106008991MA1999999075271MD1010021+9999ME1430699OA149903091REMSYN100AAXX  14004 06680 03/// /2624 11015 21015 37527 47069 50002 60091 333 55300 20000 69985 91160 91240;
0155066800999992011011401004+47250+009350FM-12+250099999V0202501N011819999999N9999999N1-00161-00161999999ADDMA1999999075291MD1210031+9999ME1430719OA149901851REMSYN094AAXX  14014 06680 23/// /2523 11016 21016 37529 47071 52003 333 55300 20000 69925 91136 91224;
0112066800999992011011402004+47250+009350FM-12+250099999V0202501N009819999999N9999999N1-00161-00161999999ADDMA1999999075341ME1430769REMSYN076AAXX  14024 06680 33/// /2519 11016 21016 37534 47076 5//// 333 553// 20000;
0219066800999992011011403004+47250+009350FM-12+250099999V0202501N009810001519N0001001N1-00191-00191999999ADDAY141031AY241031GA1091+999999999GF109991091999999999999999MA1999999075351MD1210081+9999ME1430779MW1451OA149901961REMSYN094AAXX  14034 06680 31/01 92519 11019 21019 37535 47077 52008 74544 333 55300 20000 91138 91225;
0149066800999992011011404004+47250+009350FM-12+250099999V0202301N007719999999N9999999N1-00201-00211999999ADDMA1999999075341MD1210051+9999ME1430759OA149901651REMSYN088AAXX  14044 06680 33/// /2315 11020 21021 37534 47075 52005 333 55300 20000 91132 91221;
0149066800999992011011405004+47250+009350FM-12+250099999V0202501N007719999999N9999999N1-00211-00251999999ADDMA1999999075331MD1810011+9999ME1430749OA149901491REMSYN088AAXX  14054 06680 33/// /2515 11021 21025 37533 47074 58001 333 55300 20000 91129 91219;
0423066800999992011011406004+47250+009350FM-12+250099999V0202701N00821018001CN0150001N1-00151-00301999999ADDAA112008991AJ103029199999999AL14201191AL29900191AY141061AY221061GA1011+002101061GA2081+018001041GF108991011051001501021999GG1079003009019999GJ100009IA1279KA1999N-00231MA1999999075351MD1410001+9999ME1430789MW1011OA149902421REMSYN170AAXX  14064 06680 01265 82716 11015 21030 37535 47078 52000 60092 70142 8152/ 333 21023 43302 55000 55300 20000 60005 70117 81607 88456 90768 93101 91147 91229 444 57103;EQDQ01+000022APCTEN
0149066800999992011011407004+47250+009350FM-12+250099999V0202601N004619999999N9999999N1-00171-00391999999ADDMA1999999075381MD1210041+9999ME1430809OA149901291REMSYN088AAXX  14074 06680 33/// /2609 11017 21039 37538 47080 52004 333 55300 20000 91125 91218;
0096066800999992011011408004+47250+009350FM-12+250099999V0202301N004619999999N9999999N1-00141-00321999999ADDMA1999999075381ME1430819REMSYN060AAXX  14084 06680 43/// /2309 11014 21032 37538 47081 5////;
0182066800999992011011409004+47250+009350FM-12+250099999V0202401N007712200019N0550001N1-00091-00311999999ADDGA1011+018001031GF101991011001017501041011GG1069066009019999MA1999999075381ME1430829REMSYN086AAXX  14094 06680 42785 12415 11009 21031 37538 47082 5//// 81041 333 81356 444 66166;
0096066800999992011011410004+47250+009350FM-12+250099999V0202401N008219999999N9999999N1+00001-00281999999ADDMA1999999075371ME1430839REMSYN060AAXX  14104 06680 43/// /2416 10000 21028 37537 47083 5////;
0149066800999992011011411004+47250+009350FM-12+250099999V0202501N007219999999N9999999N1+00021-00331999999ADDMA1999999075361MD1710021+9999ME1430829OA149901701REMSYN088AAXX  14114 06680 33/// /2514 10002 21033 37536 47082 57002 333 553// 2//// 91133 91219;
0231066800999992011011412004+47250+009350FM-12+250099999V0202401N00771072001CN0550001N1+00031-00451999999ADDGA1051+072001001GF105991001001999999001011GG1079062009019999MA1999999075321MD1810061+9999ME1430789OA149901801REMSYN110AAXX  14124 06680 32985 52415 10003 21045 37532 47078 58006 80001 333 553// 2//// 85074 91135 91224 444 67162;
0149066800999992011011413004+47250+009350FM-12+250099999V0202501N014419999999N9999999N1+00061-00851999999ADDMA1999999075291MD1710081+9999ME1430769OA149901851REMSYN088AAXX  14134 06680 33/// /2528 10006 21085 37529 47076 57008 333 553// 2//// 91136 91229;
0112066800999992011011414004+47250+009350FM-12+250099999V0202501N012319999999N9999999N1-00021-00651999999ADDMA1999999075271ME1430729REMSYN076AAXX  14144 06680 33/// /2524 11002 21065 37527 47072 5//// 333 553// 20292;
0149066800999992011011415004+47250+009350FM-12+250099999V0202601N014919999999N9999999N1-00011-00951999999ADDMA1999999075271MD1710051+9999ME1430729OA149901851REMSYN088AAXX  14154 06680 33/// /2629 11001 21095 37527 47072 57005 333 553// 20140 91136 91229;
0149066800999992011011416004+47250+009350FM-12+250099999V0202501N014419999999N9999999N1-00131-00821999999ADDMA1999999075261MD1710031+9999ME1430699OA149901801REMSYN088AAXX  14164 06680 33/// /2528 11013 21082 37526 47069 57003 333 55303 20043 91135 91229;
0149066800999992011011417004+47250+009350FM-12+250099999V0202601N016419999999N9999999N1-00151-00931999999ADDMA1999999075231MD1710041+9999ME1430659OA149902321REMSYN088AAXX  14174 06680 33/// /2632 11015 21093 37523 47065 57004 333 55300 20000 91145 91233;
0301066800999992011011418004+47250+009350FM-12+250099999V0202501N01901069001CN0150001N1-00071-01061999999ADDAJ103039199999999AL19900091GA1051+069001001GF105991001001999999001021GG1069000009019999IA1279KA1120M+00061MA1999999075211MD1710061+9999ME1430659OA149902831REMSYN134AAXX  14184 06680 32965 52537 11007 21106 37521 47065 57006 80002 333 10006 43303 55300 20000 85073 90766 93100 91155 91240 444 16100;
0149066800999992011011419004+47250+009350FM-12+250099999V0202501N017519999999N9999999N1-00061-01091999999ADDMA1999999075201MD1710061+9999ME1430649OA149902831REMSYN088AAXX  14194 06680 33/// /2534 11006 21109 37520 47064 57006 333 55300 20000 91155 91240;
0149066800999992011011420004+47250+009350FM-12+250099999V0202501N015919999999N9999999N1-00111-01041999999ADDMA1999999075201MD1510031+9999ME1430639OA149902631REMSYN088AAXX  14204 06680 33/// /2531 11011 21104 37520 47063 55003 333 55300 20000 91151 91237;
0149066800999992011011421004+47250+009350FM-12+250099999V0202601N018519999999N9999999N1-00311-00851999999ADDMA1999999075101MD1710111+9999ME1430489OA149902831REMSYN088AAXX  14214 06680 33/// /2636 11031 21085 37510 47048 57011 333 55300 20000 91155 91240;
0149066800999992011011422004+47250+009350FM-12+250099999V0202501N022619999999N9999999N1-00381-00951999999ADDMA1999999075031MD1710171+9999ME1430399OA149903241REMSYN088AAXX  14224 06680 33/// /2544 11038 21095 37503 47039 57017 333 55300 20000 91163 91246;
0149066800999992011011423004+47250+009350FM-12+250099999V0202601N020019999999N9999999N1-00491-00501999999ADDMA1999999074991MD1710211+9999ME1430339OA149903401REMSYN088AAXX  14234 06680 33/// /2639 11049 21050 37499 47033 57021 333 55300 20000 91166 91246;
0149066800999992011011500004+47250+009350FM-12+250099999V0202601N019519999999N9999999N1-00431-00441999999ADDMA1999999075051MD1510051+9999ME1430409OA149903401REMSYN088AAXX  15004 06680 33/// /2638 11043 21044 37505 47040 55005 333 55300 20000 91166 91246;
0149066800999992011011501004+47250+009350FM-12+250099999V0202501N015419999999N9999999N1-00451-00451999999ADDMA1999999075081MD1310051+9999ME1430439OA149903351REMSYN088AAXX  15014 06680 33/// /2530 11045 21045 37508 47043 53005 333 55300 20000 91165 91240;
0149066800999992011011502004+47250+009350FM-12+250099999V0202601N007719999999N9999999N1-00501-00501999999ADDMA1999999075191MD1219999+9999ME1430539OA149903351REMSYN088AAXX  15024 06680 33/// /2615 11050 21050 37519 47053 52/// 333 55300 20000 91165 91239;
0182066800999992011011503004+47250+009350FM-12+250099999V0202601N007210001519N0001001N1-00481-00481999999ADDAY141031AY221031GA1091+999999999GF109991091999999999999999MA1999999075211ME1430569MW1451REMSYN082AAXX  15034 06680 31/01 92614 11048 21048 37521 47056 5//// 74542 333 553// 20000;
0149066800999992011011504004+47250+009350FM-12+250099999V0203001N002119999999N9999999N1-00471-00471999999ADDMA1999999075321MD1210241+9999ME1430679OA149902111REMSYN088AAXX  15044 06680 33/// /3004 11047 21047 37532 47067 52024 333 55300 20000 91141 91217;
0149066800999992011011505004+47250+009350FM-12+250099999V0202501N009319999999N9999999N1-00531-00531999999ADDMA1999999075331MD1210141+9999ME1430679OA149902111REMSYN088AAXX  15054 06680 33/// /2518 11053 21053 37533 47067 52014 333 55300 20000 91141 91219;
0319066800999992011011506004+47250+009350FM-12+250099999V0202601N011810001519N0001001N1-00581-00581999999ADDAJ103059199999999AL19900091AL29900291AY171061AY241061GA1091+999999999GF109991091999999999999999GJ104749IA1239KA1999N-00601MA1999999075401MD1210191+9999ME1430739MW1711OA149903401REMSYN130AAXX  15064 06680 31/01 92623 11058 21058 37540 47073 52019 77174 333 21060 47305 55079 55300 20000 70000 90768 93102 91166 91246;
0149066800999992011011507004+47250+009350FM-12+250099999V0202601N012319999999N9999999N1-00581-00581999999ADDMA1999999075481MD1210161+9999ME1430819OA149902211REMSYN088AAXX  15074 06680 33/// /2624 11058 21058 37548 47081 52016 333 55300 20000 91143 91224;
0149066800999992011011508004+47250+009350FM-12+250099999V0202601N013419999999N9999999N1-00581-00581999999ADDMA1999999075531MD1219999+9999ME1430869OA149902211REMSYN088AAXX  15084 06680 33/// /2626 11058 21058 37553 47086 52/// 333 55300 20036 91143 91226;
0219066800999992011011509004+47250+009350FM-12+250099999V0202501N014910003019N0005001N1-00651-00861999999ADDAY171031AY241031GA1091+999999999GF109991091999999999999999MA1999999075561MD1210161+9999ME1430889MW1431OA149902211REMSYN094AAXX  15094 06680 31/05 92529 11065 21086 37556 47088 52016 74374 333 55303 20403 91143 91229;
0149066800999992011011510004+47250+009350FM-12+250099999V0202501N012919999999N9999999N1-00501-00781999999ADDMA1999999075621MD1110141+9999ME1430989OA149902011REMSYN088AAXX  15104 06680 33/// /2525 11050 21078 37562 47098 51014 333 553// 2//// 91139 91229;
0149066800999992011011511004+47250+009350FM-12+250099999V0202501N011819999999N9999999N1-00501-00981999999ADDMA1999999075591MD1210061+9999ME1430949OA149902011REMSYN088AAXX  15114 06680 33/// /2523 11050 21098 37559 47094 52006 333 553// 2//// 91139 91229;
0241066800999992011011512004+47250+009350FM-12+250099999V0202601N010812200019N0350001N1-00451-01031999999ADDAY171061AY211061GA1031+021001031GF105991031001017501041011MA1999999075581MD1010021+9999ME1430959MW1021OA149903351REMSYN116AAXX  15124 06680 31781 52621 11045 21103 37558 47095 50002 70271 83041 333 553// 2//// 83357 91165 91239 444 66196;
0112066800999992011011513004+47250+009350FM-12+250099999V0202601N010319999999N9999999N1-00431-01481999999ADDMA1999999075591ME1430969REMSYN076AAXX  15134 06680 33/// /2620 11043 21148 37559 47096 5//// 333 553// 2////;
0096066800999992011011514004+47250+009350FM-12+250099999V0202601N008219999999N9999999N1-00441-01501999999ADDMA1999999075641ME1431019REMSYN060AAXX  15144 06680 43/// /2616 11044 21150 37564 47101 5////;
0096066800999992011011515004+47250+009350FM-12+250099999V0202501N007219999999N9999999N1-00401-01551999999ADDMA1999999075651ME1431039REMSYN060AAXX  15154 06680 43/// /2514 11040 21155 37565 47103 5////;
0096066800999992011011516004+47250+009350FM-12+250099999V0202501N006219999999N9999999N1-00421-01521999999ADDMA1999999075721ME1431109REMSYN060AAXX  15164 06680 43/// /2512 11042 21152 37572 47110 5////;
0112066800999992011011517004+47250+009350FM-12+250099999V0202501N004119999999N9999999N1-00351-02401999999ADDMA1999999075781ME1431179REMSYN076AAXX  15174 06680 33/// /2508 11035 21240 37578 47117 5//// 333 553// 20000;
0246066800999992011011518004+47250+009350FM-12+250099999V0202601N005710690019N0150001N1-00261-02651999999ADDAJ103059199999999AL10600091GA1011+021001031GA2081+069001021GF108991011001017501041071IA1239KA1120M-00311MA1999999075811ME1431239REMSYN106AAXX  15184 06680 42765 82611 11026 21265 37581 47123 5//// 81047 333 11031 47305 81357 88273 90766 93100;
0096066800999992011011519004+47250+009350FM-12+250099999V0202801N010819999999N9999999N1-00201-02971999999ADDMA1999999075861ME1431299REMSYN060AAXX  15194 06680 43/// /2821 11020 21297 37586 47129 5////;
0096066800999992011011520004+47250+009350FM-12+250099999V0202701N007219999999N9999999N1-00061-02741999999ADDMA1999999075901ME1431379REMSYN060AAXX  15204 06680 43/// /2714 11006 21274 37590 47137 5////;
0149066800999992011011521004+47250+009350FM-12+250099999V0202701N006719999999N9999999N1-00061-02571999999ADDMA1999999075911MD1210101+9999ME1431389OA149901491REMSYN088AAXX  15214 06680 33/// /2713 11006 21257 37591 47138 52010 333 55300 20000 91129 91221;
0149066800999992011011522004+47250+009350FM-12+250099999V0202701N006719999999N9999999N1-00011-02711999999ADDMA1999999075951MD1210091+9999ME1431439OA149900981REMSYN088AAXX  15224 06680 33/// /2713 11001 21271 37595 47143 52009 333 55300 20000 91119 91215;
0168066800999992011011523004+47250+009350FM-12+250099999V0202701N006719999999N9999999N1+00021-01192999999ADDMA1999999075941MD1210041+9999ME1431439OA149900881REMSYN088AAXX  15234 06680 33/// /2713 10002 21119 37594 47143 52004 333 55300 20000 91117 91214;EQDQ01-001193ATOD  
0149066800999992011011600004+47250+009350FM-12+250099999V0202601N008719999999N9999999N1+00061-00751999999ADDMA1999999075941MD1210031+9999ME1431449OA149901701REMSYN088AAXX  16004 06680 33/// /2617 10006 21075 37594 47144 52003 333 55300 20000 91133 91221;
0149066800999992011011601004+47250+009350FM-12+250099999V0202601N008219999999N9999999N1+00111-00591999999ADDMA1999999075941MD1010011+9999ME1431459OA149901081REMSYN088AAXX  16014 06680 33/// /2616 10011 21059 37594 47145 50001 333 55300 20000 91121 91217;
0149066800999992011011602004+47250+009350FM-12+250099999V0202601N008719999999N9999999N1+00161-00531999999ADDMA1999999075971MD1219999+9999ME1431509OA149901081REMSYN088AAXX  16024 06680 33/// /2617 10016 21053 37597 47150 52/// 333 55300 20000 91121 91217;
0160066800999992011011603004+47250+009350FM-12+250099999V0202601N00871090001CN0150001N1+00271-00491999999ADDGA1021+021001031GF108991021001017501041071MA1999999075971ME1431529REMSYN082AAXX  16034 06680 42765 82617 10027 21049 37597 47152 5//// 82047 333 82357 88273;
0149066800999992011011604004+47250+009350FM-12+250099999V0202601N008219999999N9999999N1+00271-00521999999ADDMA1999999075971MD1110031+9999ME1431529OA149901081REMSYN088AAXX  16044 06680 33/// /2616 10027 21052 37597 47152 51003 333 55300 20000 91121 91218;
0149066800999992011011605004+47250+009350FM-12+250099999V0202601N009319999999N9999999N1+00231-00561999999ADDMA1999999075971MD1010001+9999ME1431519OA149901081REMSYN088AAXX  16054 06680 33/// /2618 10023 21056 37597 47151 50000 333 55300 20000 91121 91218;
0293066800999992011011606004+47250+009350FM-12+250099999V0202601N010812200019N0150001N1+00311-00631999999ADDAJ103059199999999AL19900091GA1011+021001031GF101991011001017501041001GJ103669IA1239KA1999N-00291MA1999999075981MD1210011+9999ME1431549OA149901491REMSYN136AAXX  16064 06680 32765 12621 10031 21063 37598 47154 52001 81040 333 21029 47305 55061 55300 20000 70000 81357 90768 93100 91129 91221;
0149066800999992011011607004+47250+009350FM-12+250099999V0202501N010819999999N9999999N1+00351-00771999999ADDMA1999999076001MD1210031+9999ME1431579OA149901341REMSYN088AAXX  16074 06680 33/// /2521 10035 21077 37600 47157 52003 333 55300 20000 91126 91222;
0149066800999992011011608004+47250+009350FM-12+250099999V0202501N010819999999N9999999N1+00361-00891999999ADDMA1999999076021MD1319999+9999ME1431609OA149901341REMSYN088AAXX  16084 06680 33/// /2521 10036 21089 37602 47160 53/// 333 55304 20101 91126 91222;
0231066800999992011011609004+47250+009350FM-12+250099999V0202601N009312200019N0550001N1+00431-01011999999ADDGA1011+066001001GF101991001001999999001011GG1079061009009999MA1999999076031MD1110051+9999ME1431639OA149901341REMSYN110AAXX  16094 06680 32985 12618 10043 21101 37603 47163 51005 80001 333 553// 20587 81072 91126 91222 444 37061;
0149066800999992011011610004+47250+009350FM-12+250099999V0202501N009319999999N9999999N1+00401-00891999999ADDMA1999999076051MD1110051+9999ME1431649OA149901241REMSYN088AAXX  16104 06680 33/// /2518 10040 21089 37605 47164 51005 333 553// 2//// 91124 91221;
0149066800999992011011611004+47250+009350FM-12+250099999V0202501N008719999999N9999999N1+00411-00911999999ADDMA1999999076051MD1210031+9999ME1431649OA149901131REMSYN088AAXX  16114 06680 33/// /2517 10041 21091 37605 47164 52003 333 553// 2//// 91122 91218;
0238066800999992011011612004+47250+009350FM-12+250099999V0202501N008212200019N0650001N1+00441-00971999999ADDGA1001+999999999GF100991001001999999001001GG1079061009009999MA1999999076031MD1410001+9999ME1431639OA149901341REMSYN098AAXX  16124 06680 32987 02516 10044 21097 37603 47163 57000 333 55308 2//// 91126 91222 444 37061;EQDQ01+000072APCTEN
0149066800999992011011613004+47250+009350FM-12+250099999V0202501N005719999999N9999999N1+00431-00951999999ADDMA1999999076011MD1710041+9999ME1431619OA149900981REMSYN088AAXX  16134 06680 33/// /2511 10043 21095 37601 47161 57004 333 553// 2//// 91119 91217;
0149066800999992011011614004+47250+009350FM-12+250099999V0202501N004619999999N9999999N1+00431-01021999999ADDMA1999999076021MD1719999+9999ME1431629OA149900881REMSYN088AAXX  16144 06680 33/// /2509 10043 21102 37602 47162 57/// 333 553// 2//// 91117 91216;
0149066800999992011011615004+47250+009350FM-12+250099999V0202501N005119999999N9999999N1+00421-00931999999ADDMA1999999076021MD1510011+9999ME1431619OA149901131REMSYN088AAXX  16154 06680 33/// /2510 10042 21093 37602 47161 55001 333 553// 20623 91122 91218;
0149066800999992011011616004+47250+009350FM-12+250099999V0202301N003119999999N9999999N1+00391-01001999999ADDMA1999999076011MD1010001+9999ME1431609OA149900721REMSYN088AAXX  16164 06680 33/// /2306 10039 21100 37601 47160 50000 333 553// 20144 91114 91210;
0149066800999992011011617004+47250+009350FM-12+250099999V0202101N002119999999N9999999N1+00401-00971999999ADDMA1999999076021MD1010001+9999ME1431619OA149900721REMSYN088AAXX  16174 06680 33/// /2104 10040 21097 37602 47161 50000 333 55300 20000 91114 91210;
0261066800999992011011618004+47250+009350FM-12+250099999V0202101N001512200019N0250001N1+00411-01121999999ADDAJ103009199999999AL19900091GA1001+999999999GF100991001001999999001001IA1279KA1120M+00481MA1999999076021MD1010001+9999ME1431619OA149901341REMSYN112AAXX  16184 06680 32975 02103 10041 21112 37602 47161 50000 333 10048 43300 55300 20000 90766 93100 91126 91222;
0149066800999992011011619004+47250+009350FM-12+250099999V0202601N003119999999N9999999N1+00371-01051999999ADDMA1999999076021MD1010011+9999ME1431609OA149900461REMSYN088AAXX  16194 06680 33/// /2606 10037 21105 37602 47160 50001 333 55300 20000 91109 91206;
0149066800999992011011620004+47250+009350FM-12+250099999V0202601N007219999999N9999999N1+00361-01421999999ADDMA1999999076021MD1410001+9999ME1431609OA149900931REMSYN088AAXX  16204 06680 33/// /2614 10036 21142 37602 47160 54000 333 55300 20000 91118 91214;
0149066800999992011011621004+47250+009350FM-12+250099999V0202601N008219999999N9999999N1+00281-01411999999ADDMA1999999076011MD1710011+9999ME1431579OA149901181REMSYN088AAXX  16214 06680 33/// /2616 10028 21141 37601 47157 57001 333 55300 20000 91123 91216;
0149066800999992011011622004+47250+009350FM-12+250099999V0202601N008219999999N9999999N1+00271-01531999999ADDMA1999999076001MD1710021+9999ME1431559OA149901181REMSYN088AAXX  16224 06680 33/// /2616 10027 21153 37600 47155 57002 333 55300 20000 91123 91217;
0149066800999992011011623004+47250+009350FM-12+250099999V0202301N006719999999N9999999N1+00251-01381999999ADDMA1999999075991MD1710031+9999ME1431549OA149901131REMSYN088AAXX  16234 06680 33/// /2313 10025 21138 37599 47154 57003 333 55300 20000 91122 91218;
0149066800999992011011700004+47250+009350FM-12+250099999V0202301N005119999999N9999999N1+00251-01431999999ADDMA1999999075971MD1710041+9999ME1431529OA149901181REMSYN088AAXX  17004 06680 33/// /2310 10025 21143 37597 47152 57004 333 55300 20000 91123 91218;
0149066800999992011011701004+47250+009350FM-12+250099999V0202201N004619999999N9999999N1+00251-01461999999ADDMA1999999075951MD1810051+9999ME1431509OA149900981REMSYN088AAXX  17014 06680 33/// /2209 10025 21146 37595 47150 58005 333 55300 20000 91119 91214;
0149066800999992011011702004+47250+009350FM-12+250099999V0202401N004119999999N9999999N1+00231-01351999999ADDMA1999999075951MD1719999+9999ME1431499OA149900931REMSYN088AAXX  17024 06680 33/// /2408 10023 21135 37595 47149 57/// 333 55300 20000 91118 91210;
