0134066811999992010010206204+47483+009550FM-15+0398LSZR V0202601N005110180019N0112651N1+00001-00501999999ADDGA1071+018001999GF107991999999999999999999MA1101081999999REMMET065METAR LSZR 020620Z 26010KT 9999 BKN063 M00/M05 Q1011 NOSIG RMK A;
0157066811999992010010206504+47483+009550FM-15+0398LSZR V0202601N004610180019N0112651N1+00001-00601999999ADDGA1041+009301999GA2071+018001999GF107991999999999999999999MA1101081999999REMMET072METAR LSZR 020650Z 26009KT 9999 SCT031 BKN060 M00/M06 Q1011 NOSIG RMK A;
0157066811999992010010207204+47483+009550FM-15+0398LSZR V0202601N004610093019N0112651N1+00001-00601999999ADDGA1071+009301999GA2071+018001999GF107991999999999999999999MA1101191999999REMMET072METAR LSZR 020720Z 26009KT 9999 BKN031 BKN060 M00/M06 Q1012 NOSIG RMK B;
0157066811999992010010207504+47483+009550FM-15+0398LSZR V0202601N005110210019N0112651N1+00001-00501999999ADDGA1041+015001999GA2071+021001999GF107991999999999999999999MA1101191999999REMMET072METAR LSZR 020750Z 26010KT 9999 SCT057 BKN078 M00/M05 Q1012 NOSIG RMK B;
0168066811999992010010208204+47483+009550FM-15+0398LSZR V0202601N005110210019N0112651N1+00001-00601999999ADDGA1041+015001999GA2071+021001999GF107991999999999999999999MA1101291999999MW1161REMMET077METAR LSZR 020820Z 26010KT 9999 VCSH SCT058 BKN070 M00/M06 Q1013 NOSIG RMK C;
0171066811999992010010208504+47483+009550FM-15+0398LSZR V0202801N006710060019N0035001N1-00101-00301999999ADDGA1071+006001999GA2081+009001999GF108991999999999999999999MA1101291999999REMMET086METAR LSZR 020850Z 28013KT 250V320 3500 -SHSN BKN020 OVC030 M01/M03 Q1013 NOSIG RMK D;
0168066811999992010010209204+47483+009550FM-15+0398LSZR V0202701N005110060019N0045001N1-00101-00401999999ADDGA1071+006001999GA2081+009001999GF108991999999999999999999MA1101391999999REMMET083METAR LSZR 020920Z 27010KT 4500 -SHSN BKN020 OVC030 M01/M04 Q1014 TEMPO 9999 RMK E;
0182066811999992010010209504+47483+009550FM-15+0398LSZR V0202501N004110210019N0112651N1-00101-00401999999ADDGA1041+006001999GA2071+021001999GF107991999999999999999999MA1101391999999REMMET097METAR LSZR 020950Z 25008KT 220V290 9999 SCT020 BKN070 M01/M04 Q1014 TEMPO 3000 SHSN BKN020 RMK F;
0165066811999992010010210204+47483+009550FM-15+0398LSZR V0202701N004110150019N0112651N1-00101-00401999999ADDGA1041+008401999GA2071+015001999GF107991999999999999999999MA1101491999999REMMET080METAR LSZR 021020Z 27008KT 240V300 9999 SCT028 BKN050 M01/M04 Q1015 NOSIG RMK G;
0165066811999992010010210504+47483+009550FM-15+0398LSZR V0202501N004610105019N0112651N1-00101-00501999999ADDGA1041+008401999GA2071+010501999GF107991999999999999999999MA1101491999999REMMET080METAR LSZR 021050Z 25009KT 220V280 9999 SCT028 BKN035 M01/M05 Q1015 NOSIG RMK G;
0157066811999992010010211204+47483+009550FM-15+0398LSZR V0202701N005110105019N0112651N1-00101-00401999999ADDGA1041+006301999GA2071+010501999GF107991999999999999999999MA1101491999999REMMET072METAR LSZR 021120Z 27010KT 9999 SCT021 BKN035 M01/M04 Q1015 NOSIG RMK H;
0157066811999992010010211504+47483+009550FM-15+0398LSZR V0202801N005112200019N0112651N1+00001-00501999999ADDGA1021+009001999GA2041+024001999GF104991999999999999999999MA1101591999999REMMET072METAR LSZR 021150Z 28010KT 9999 FEW030 SCT080 M00/M05 Q1016 NOSIG RMK I;
0133066811999992010010212204+47483+009550FM-15+0398LSZR V0202701N004612200019N0112651N1+00001-00601999999ADDGA1041+009301999GF104991999999999999999999MA1101591999999REMMET064METAR LSZR 021220Z 27009KT 9999 SCT031 00/M06 Q1016 NOSIG RMK I;
0164066811999992010010212504+47483+009550FM-15+0398LSZR V0202801N003612200019N0112651N1+00001-00701999999ADDGA1041+010201999GA2041+015001999GF104991999999999999999999MA1101691999999REMMET079METAR LSZR 021250Z 28007KT 230V300 9999 SCT034 SCT050 00/M07 Q1017 NOSIG RMK J;
0133066811999992010010213204+47483+009550FM-15+0398LSZR V0202701N004612200019N0112651N1+00001-00801999999ADDGA1041+012001999GF104991999999999999999999MA1101691999999REMMET064METAR LSZR 021320Z 27009KT 9999 SCT040 00/M08 Q1017 NOSIG RMK J;
0141066811999992010010213504+47483+009550FM-15+0398LSZR V0202701N003610114019N0112651N1+00001-00601999999ADDGA1071+011401999GF107991999999999999999999MA1101801999999REMMET072METAR LSZR 021350Z 27007KT 230V290 9999 BKN038 00/M06 Q1018 NOSIG RMK K;
0134066811999992010010214204+47483+009550FM-15+0398LSZR V0202601N002110114019N0112651N1+00001-00601999999ADDGA1071+011401999GF107991999999999999999999MA1101801999999REMMET065METAR LSZR 021420Z 26004KT 9999 BKN038 M00/M06 Q1018 NOSIG RMK L;
0134066811999992010010214504+47483+009550FM-15+0398LSZR V0202401N002610114019N0112651N1-00101-00601999999ADDGA1071+011401999GF107991999999999999999999MA1101801999999REMMET065METAR LSZR 021450Z 24005KT 9999 BKN038 M01/M06 Q1018 NOSIG RMK L;
0134066811999992010010215204+47483+009550FM-15+0398LSZR V0202601N002110114019N0112651N1-00101-00601999999ADDGA1071+011401999GF107991999999999999999999MA1101901999999REMMET065METAR LSZR 021520Z 26004KT 9999 BKN038 M01/M06 Q1019 NOSIG RMK M;
0157066811999992010010215504+47483+009550FM-15+0398LSZR V0209999V001512200019N0112651N1-00101-00601999999ADDGA1041+011401999GA2041+027001999GF104991999999999999999999MA1101901999999REMMET072METAR LSZR 021550Z VRB03KT 9999 SCT038 SCT090 M01/M06 Q1019 NOSIG RMK M;
0157066811999992010010216204+47483+009550FM-15+0398LSZR V0209999V001012200019N0112651N1-00101-00701999999ADDGA1041+012001999GA2041+027001999GF104991999999999999999999MA1102001999999REMMET072METAR LSZR 021620Z VRB02KT 9999 SCT040 SCT090 M01/M07 Q1020 NOSIG RMK N;
0157066811999992010010216504+47483+009550FM-15+0398LSZR V0209999V001012200019N0112651N1-00201-00701999999ADDGA1041+012001999GA2041+027001999GF104991999999999999999999MA1102001999999REMMET072METAR LSZR 021650Z VRB02KT 9999 SCT040 SCT090 M02/M07 Q1020 NOSIG RMK N;
0157066811999992010010217204+47483+009550FM-15+0398LSZR V0209999V001010240019N0112651N1-00201-00701999999ADDGA1041+010501999GA2071+024001999GF107991999999999999999999MA1102001999999REMMET072METAR LSZR 021720Z VRB02KT 9999 SCT035 BKN085 M02/M07 Q1020 NOSIG RMK O;
0157066811999992010010217504+47483+009550FM-15+0398LSZR V0202301N001010240019N0112651N1-00201-00701999999ADDGA1041+010501999GA2071+024001999GF107991999999999999999999MA1102001999999REMMET072METAR LSZR 021750Z 23002KT 9999 SCT035 BKN085 M02/M07 Q1020 NOSIG RMK O;
0157066811999992010010218204+47483+009550FM-15+0398LSZR V0209999V001510270019N0112651N1-00201-00801999999ADDGA1041+012001999GA2071+027001999GF107991999999999999999999MA1102101999999REMMET072METAR LSZR 021820Z VRB03KT 9999 SCT040 BKN090 M02/M08 Q1021 NOSIG RMK P;
0157066811999992010010218504+47483+009550FM-15+0398LSZR V0209999V001010270019N0112651N1-00201-00801999999ADDGA1041+012001999GA2071+027001999GF107991999999999999999999MA1102101999999REMMET072METAR LSZR 021850Z VRB02KT 9999 SCT040 BKN090 M02/M08 Q1021 NOSIG RMK P;
0086066811999992010010308504+47483+009550FM-15+0398LSZR V0209999C000019999999Y0099001N1-00501-00801999999ADDMA1102101999999REMMET059METAR LSZR 030850Z 00000KT CAVOK M05/M08 Q1021 NOSIG RMK A;
0086066811999992010010309204+47483+009550FM-15+0398LSZR V0209999C000019999999Y0099001N1-00301-00801999999ADDMA1102101999999REMMET059METAR LSZR 030920Z 00000KT CAVOK M03/M08 Q1021 NOSIG RMK A;
0086066811999992010010309504+47483+009550FM-15+0398LSZR V0209999C000019999999Y0099001N1-00301-00701999999ADDMA1102101999999REMMET059METAR LSZR 030950Z 00000KT CAVOK M03/M07 Q1021 NOSIG RMK B;
0086066811999992010010310204+47483+009550FM-15+0398LSZR V0209999V001019999999Y0099001N1-00201-00601999999ADDMA1102101999999REMMET059METAR LSZR 031020Z VRB02KT CAVOK M02/M06 Q1021 NOSIG RMK B;
0086066811999992010010310504+47483+009550FM-15+0398LSZR V0209999V000519999999Y0099001N1-00201-00601999999ADDMA1102001999999REMMET059METAR LSZR 031050Z VRB01KT CAVOK M02/M06 Q1020 NOSIG RMK C;
0086066811999992010010311204+47483+009550FM-15+0398LSZR V0209999V000519999999Y0099001N1-00101-00601999999ADDMA1102001999999REMMET059METAR LSZR 031120Z VRB01KT CAVOK M01/M06 Q1020 NOSIG RMK C;
0086066811999992010010311504+47483+009550FM-15+0398LSZR V0209999C000019999999Y0099001N1-00101-00601999999ADDMA1101901999999REMMET059METAR LSZR 031150Z 00000KT CAVOK M01/M06 Q1019 NOSIG RMK D;
0086066811999992010010312204+47483+009550FM-15+0398LSZR V0209999C000019999999Y0099001N1-00101-00801999999ADDMA1101901999999REMMET059METAR LSZR 031220Z 00000KT CAVOK M01/M08 Q1019 NOSIG RMK D;
0086066811999992010010312504+47483+009550FM-15+0398LSZR V0209999C000019999999Y0099001N1+00001-01001999999ADDMA1101801999999REMMET059METAR LSZR 031250Z 00000KT CAVOK M00/M10 Q1018 NOSIG RMK E;
0086066811999992010010313204+47483+009550FM-15+0398LSZR V0203101N001519999999Y0099001N1+00001-00901999999ADDMA1101801999999REMMET059METAR LSZR 031320Z 31003KT CAVOK M00/M09 Q1018 NOSIG RMK E;
0086066811999992010010313504+47483+009550FM-15+0398LSZR V0202901N001019999999Y0099001N1+00001-00801999999ADDMA1101801999999REMMET059METAR LSZR 031350Z 29002KT CAVOK M00/M08 Q1018 NOSIG RMK F;
0086066811999992010010314204+47483+009550FM-15+0398LSZR V0209999V000519999999Y0099001N1-00101-00801999999ADDMA1101801999999REMMET059METAR LSZR 031420Z VRB01KT CAVOK M01/M08 Q1018 NOSIG RMK G;
0086066811999992010010314504+47483+009550FM-15+0398LSZR V0209999V000519999999Y0099001N1-00101-00701999999ADDMA1101901999999REMMET059METAR LSZR 031450Z VRB01KT CAVOK M01/M07 Q1019 NOSIG RMK H;
0086066811999992010010315504+47483+009550FM-15+0398LSZR V0201801N000519999999Y0099001N1-00301-00701999999ADDMA1101901999999REMMET059METAR LSZR 031550Z 18001KT CAVOK M03/M07 Q1019 NOSIG RMK I;
0086066811999992010010316204+47483+009550FM-15+0398LSZR V0201901N001019999999Y0099001N1-00301-00801999999ADDMA1101801999999REMMET059METAR LSZR 031620Z 19002KT CAVOK M03/M08 Q1018 NOSIG RMK J;
0086066811999992010010316504+47483+009550FM-15+0398LSZR V0201801N001519999999Y0099001N1-00301-00801999999ADDMA1101801999999REMMET059METAR LSZR 031650Z 18003KT CAVOK M03/M08 Q1018 NOSIG RMK J;
0086066811999992010010317204+47483+009550FM-15+0398LSZR V0209999V001019999999Y0099001N1-00301-00701999999ADDMA1101801999999REMMET059METAR LSZR 031720Z VRB02KT CAVOK M03/M07 Q1018 NOSIG RMK K;
0086066811999992010010317504+47483+009550FM-15+0398LSZR V0209999V001019999999Y0099001N1-00401-00801999999ADDMA1101801999999REMMET059METAR LSZR 031750Z VRB02KT CAVOK M04/M08 Q1018 NOSIG RMK K;
0086066811999992010010318204+47483+009550FM-15+0398LSZR V0209999V001019999999Y0099001N1-00501-00801999999ADDMA1101801999999REMMET059METAR LSZR 031820Z VRB02KT CAVOK M05/M08 Q1018 NOSIG RMK L;
0086066811999992010010318504+47483+009550FM-15+0398LSZR V0209999V000519999999Y0099001N1-00501-00801999999ADDMA1101801999999REMMET059METAR LSZR 031850Z VRB01KT CAVOK M05/M08 Q1018 NOSIG RMK L;
0086066811999992010010405204+47483+009550FM-15+0398LSZR V0201001N001019999999Y0099001N1-00801-01001999999ADDMA1101391999999REMMET059METAR LSZR 040520Z 10002KT CAVOK M08/M10 Q1014 NOSIG RMK A;
0086066811999992010010405504+47483+009550FM-15+0398LSZR V0201201N001019999999Y0099001N1-00801-01001999999ADDMA1101391999999REMMET059METAR LSZR 040550Z 12002KT CAVOK M08/M10 Q1014 NOSIG RMK A;
0086066811999992010010406204+47483+009550FM-15+0398LSZR V0209999V001019999999Y0099001N1-00901-01001999999ADDMA1101391999999REMMET059METAR LSZR 040620Z VRB02KT CAVOK M09/M10 Q1014 NOSIG RMK B;
0134066811999992010010406504+47483+009550FM-15+0398LSZR V0201101N001012200019N0112651N1-00801-01001999999ADDGA1041+003601999GF104991999999999999999999MA1101391999999REMMET065METAR LSZR 040650Z 11002KT 9999 SCT012 M08/M10 Q1014 NOSIG RMK C;
0134066811999992010010407204+47483+009550FM-15+0398LSZR V0209999V001010030019N0112651N1-00801-01001999999ADDGA1071+003001999GF107991999999999999999999MA1101391999999REMMET065METAR LSZR 040720Z VRB02KT 9999 BKN010 M08/M10 Q1014 NOSIG RMK C;
0134066811999992010010407504+47483+009550FM-15+0398LSZR V0209999V001010030019N0112651N1-00601-00801999999ADDGA1071+003001999GF107991999999999999999999MA1101391999999REMMET065METAR LSZR 040750Z VRB02KT 9999 BKN010 M06/M08 Q1014 NOSIG RMK D;
0134066811999992010010408204+47483+009550FM-15+0398LSZR V0201001N001510039019N0112651N1-00601-00801999999ADDGA1071+003901999GF107991999999999999999999MA1101391999999REMMET065METAR LSZR 040820Z 10003KT 9999 BKN013 M06/M08 Q1014 NOSIG RMK D;
0134066811999992010010408504+47483+009550FM-15+0398LSZR V0201001N002110036019N0112651N1-00601-00801999999ADDGA1071+003601999GF107991999999999999999999MA1101391999999REMMET065METAR LSZR 040850Z 10004KT 9999 BKN012 M06/M08 Q1014 NOSIG RMK E;
0157066811999992010010409504+47483+009550FM-15+0398LSZR V0201001N001512200019N0112651N1-00601-00901999999ADDGA1021+003901999GA2041+060001999GF104991999999999999999999MA1101391999999REMMET072METAR LSZR 040950Z 10003KT 9999 FEW013 SCT200 M06/M09 Q1014 NOSIG RMK F;
0157066811999992010010410204+47483+009550FM-15+0398LSZR V0201201N001012200019N0112651N1-00601-00801999999ADDGA1041+003001999GA2041+060001999GF104991999999999999999999MA1101391999999REMMET072METAR LSZR 041020Z 12002KT 9999 SCT010 SCT200 M06/M08 Q1014 NOSIG RMK G;
0134066811999992010010410504+47483+009550FM-15+0398LSZR V0201001N001012200019N0112651N1-00501-00801999999ADDGA1041+003601999GF104991999999999999999999MA1101291999999REMMET065METAR LSZR 041050Z 10002KT 9999 SCT012 M05/M08 Q1013 NOSIG RMK H;
0134066811999992010010411204+47483+009550FM-15+0398LSZR V0209999C000012200019N0112651N1-00401-00701999999ADDGA1041+003901999GF104991999999999999999999MA1101291999999REMMET065METAR LSZR 041120Z 00000KT 9999 SCT013 M04/M07 Q1013 NOSIG RMK H;
0134066811999992010010411504+47483+009550FM-15+0398LSZR V0209999V001012200019N0112651N1-00401-00701999999ADDGA1041+003901999GF104991999999999999999999MA1101291999999REMMET065METAR LSZR 041150Z VRB02KT 9999 SCT013 M04/M07 Q1013 NOSIG RMK I;
0134066811999992010010412204+47483+009550FM-15+0398LSZR V0209999V001012200019N0112651N1-00401-00601999999ADDGA1041+004501999GF104991999999999999999999MA1101191999999REMMET065METAR LSZR 041220Z VRB02KT 9999 SCT015 M04/M06 Q1012 NOSIG RMK J;
0134066811999992010010412504+47483+009550FM-15+0398LSZR V0209999V001512200019N0112651N1-00301-00601999999ADDGA1041+005101999GF104991999999999999999999MA1101191999999REMMET065METAR LSZR 041250Z VRB03KT 9999 SCT017 M03/M06 Q1012 NOSIG RMK J;
0134066811999992010010413204+47483+009550FM-15+0398LSZR V0202501N001012200019N0112651N1-00301-00701999999ADDGA1041+005101999GF104991999999999999999999MA1101191999999REMMET065METAR LSZR 041320Z 25002KT 9999 SCT017 M03/M07 Q1012 NOSIG RMK K;
0134066811999992010010413504+47483+009550FM-15+0398LSZR V0209999V000512200019N0112651N1-00301-00601999999ADDGA1041+005101999GF104991999999999999999999MA1101191999999REMMET065METAR LSZR 041350Z VRB01KT 9999 SCT017 M03/M06 Q1012 NOSIG RMK K;
0134066811999992010010414204+47483+009550FM-15+0398LSZR V0209999V000512200019N0112651N1-00301-00601999999ADDGA1041+004801999GF104991999999999999999999MA1101191999999REMMET065METAR LSZR 041420Z VRB01KT 9999 SCT016 M03/M06 Q1012 NOSIG RMK L;
0134066811999992010010414504+47483+009550FM-15+0398LSZR V0209999V000512200019N0112651N1-00301-00601999999ADDGA1041+005401999GF104991999999999999999999MA1101191999999REMMET065METAR LSZR 041450Z VRB01KT 9999 SCT018 M03/M06 Q1012 NOSIG RMK L;
0134066811999992010010415204+47483+009550FM-15+0398LSZR V0202101N000512200019N0112651N1-00301-00601999999ADDGA1021+006001999GF102991999999999999999999MA1101081999999REMMET065METAR LSZR 041520Z 21001KT 9999 FEW020 M03/M06 Q1011 NOSIG RMK M;
0134066811999992010010415504+47483+009550FM-15+0398LSZR V0201901N000512200019N0112651N1-00401-00701999999ADDGA1021+007501999GF102991999999999999999999MA1101191999999REMMET065METAR LSZR 041550Z 19001KT 9999 FEW025 M04/M07 Q1012 NOSIG RMK N;
0134066811999992010010416204+47483+009550FM-15+0398LSZR V0202001N001012200019N0112651N1-00501-00701999999ADDGA1021+007501999GF102991999999999999999999MA1101191999999REMMET065METAR LSZR 041620Z 20002KT 9999 FEW025 M05/M07 Q1012 NOSIG RMK N;
0086066811999992010010416504+47483+009550FM-15+0398LSZR V0201801N000519999999Y0099001N1-00501-00701999999ADDMA1101191999999REMMET059METAR LSZR 041650Z 18001KT CAVOK M05/M07 Q1012 NOSIG RMK O;
0086066811999992010010417204+47483+009550FM-15+0398LSZR V0201501N000519999999Y0099001N1-00501-00701999999ADDMA1101081999999REMMET059METAR LSZR 041720Z 15001KT CAVOK M05/M07 Q1011 NOSIG RMK O;
0086066811999992010010417504+47483+009550FM-15+0398LSZR V0209999C000019999999Y0099001N1-00601-00801999999ADDMA1101081999999REMMET059METAR LSZR 041750Z 00000KT CAVOK M06/M08 Q1011 NOSIG RMK P;
0086066811999992010010418504+47483+009550FM-15+0398LSZR V0209999V000519999999Y0099001N1-00701-00901999999ADDMA1101081999999REMMET059METAR LSZR 041850Z VRB01KT CAVOK M07/M09 Q1011 NOSIG RMK Q;
0134066811999992010010505204+47483+009550FM-15+0398LSZR V0201001N002110030019N0112651N1-00601-00801999999ADDGA1081+003001999GF108991999999999999999999MA1100711999999REMMET065METAR LSZR 050520Z 10004KT 9999 OVC010 M06/M08 Q1007 NOSIG RMK A;
0134066811999992010010505504+47483+009550FM-15+0398LSZR V0201001N001510027019N0112651N1-00601-00801999999ADDGA1081+002701999GF108991999999999999999999MA1100711999999REMMET065METAR LSZR 050550Z 10003KT 9999 OVC009 M06/M08 Q1007 NOSIG RMK A;
0134066811999992010010506204+47483+009550FM-15+0398LSZR V0201001N002110027019N0112651N1-00501-00801999999ADDGA1081+002701999GF108991999999999999999999MA1100611999999REMMET065METAR LSZR 050620Z 10004KT 9999 OVC009 M05/M08 Q1006 NOSIG RMK B;
0134066811999992010010506504+47483+009550FM-15+0398LSZR V0200901N001510027019N0112651N1-00601-00801999999ADDGA1081+002701999GF108991999999999999999999MA1100611999999REMMET065METAR LSZR 050650Z 09003KT 9999 OVC009 M06/M08 Q1006 NOSIG RMK B;
0134066811999992010010507204+47483+009550FM-15+0398LSZR V0200901N001510027019N0112651N1-00501-00701999999ADDGA1081+002701999GF108991999999999999999999MA1100611999999REMMET065METAR LSZR 050720Z 09003KT 9999 OVC009 M05/M07 Q1006 NOSIG RMK C;
0134066811999992010010507504+47483+009550FM-15+0398LSZR V0201101N002110027019N0112651N1-00501-00801999999ADDGA1081+002701999GF108991999999999999999999MA1100611999999REMMET065METAR LSZR 050750Z 11004KT 9999 OVC009 M05/M08 Q1006 NOSIG RMK C;
0134066811999992010010508204+47483+009550FM-15+0398LSZR V0209999V001010027019N0112651N1-00501-00801999999ADDGA1081+002701999GF108991999999999999999999MA1100611999999REMMET065METAR LSZR 050820Z VRB02KT 9999 OVC009 M05/M08 Q1006 NOSIG RMK D;
0134066811999992010010508504+47483+009550FM-15+0398LSZR V0200901N002110027019N0112651N1-00501-00701999999ADDGA1081+002701999GF108991999999999999999999MA1100511999999REMMET065METAR LSZR 050850Z 09004KT 9999 OVC009 M05/M07 Q1005 NOSIG RMK E;
0134066811999992010010509204+47483+009550FM-15+0398LSZR V0200901N001510027019N0112651N1-00501-00701999999ADDGA1071+002701999GF107991999999999999999999MA1100511999999REMMET065METAR LSZR 050920Z 09003KT 9999 BKN009 M05/M07 Q1005 NOSIG RMK E;
0134066811999992010010509504+47483+009550FM-15+0398LSZR V0200901N001510027019N0112651N1-00501-00701999999ADDGA1071+002701999GF107991999999999999999999MA1100511999999REMMET065METAR LSZR 050950Z 09003KT 9999 BKN009 M05/M07 Q1005 NOSIG RMK F;
0134066811999992010010510204+47483+009550FM-15+0398LSZR V0209999V001010027019N0112651N1-00501-00701999999ADDGA1071+002701999GF107991999999999999999999MA1100511999999REMMET065METAR LSZR 051020Z VRB02KT 9999 BKN009 M05/M07 Q1005 NOSIG RMK F;
0134066811999992010010510504+47483+009550FM-15+0398LSZR V0209999V001010027019N0112651N1-00401-00601999999ADDGA1071+002701999GF107991999999999999999999MA1100411999999REMMET065METAR LSZR 051050Z VRB02KT 9999 BKN009 M04/M06 Q1004 NOSIG RMK G;
0134066811999992010010511204+47483+009550FM-15+0398LSZR V0209999V000510033019N0090001N1-00401-00601999999ADDGA1071+003301999GF107991999999999999999999MA1100411999999REMMET065METAR LSZR 051120Z VRB01KT 9000 BKN011 M04/M06 Q1004 NOSIG RMK G;
0134066811999992010010511504+47483+009550FM-15+0398LSZR V0209999V000510036019N0112651N1-00401-00601999999ADDGA1071+003601999GF107991999999999999999999MA1100411999999REMMET065METAR LSZR 051150Z VRB01KT 9999 BKN012 M04/M06 Q1004 NOSIG RMK H;
0134066811999992010010512204+47483+009550FM-15+0398LSZR V0209999V001510039019N0112651N1-00401-00701999999ADDGA1071+003901999GF107991999999999999999999MA1100311999999REMMET065METAR LSZR 051220Z VRB03KT 9999 BKN013 M04/M07 Q1003 NOSIG RMK I;
0134066811999992010010512504+47483+009550FM-15+0398LSZR V0209999V000510039019N0112651N1-00401-00701999999ADDGA1071+003901999GF107991999999999999999999MA1100311999999REMMET065METAR LSZR 051250Z VRB01KT 9999 BKN013 M04/M07 Q1003 NOSIG RMK I;
0134066811999992010010513204+47483+009550FM-15+0398LSZR V0209999V001510039019N0112651N1-00401-00701999999ADDGA1071+003901999GF107991999999999999999999MA1100311999999REMMET065METAR LSZR 051320Z VRB03KT 9999 BKN013 M04/M07 Q1003 NOSIG RMK J;
0142066811999992010010513504+47483+009550FM-15+0398LSZR V0203101N002110039019N0112651N1-00301-00601999999ADDGA1071+003901999GF107991999999999999999999MA1100201999999REMMET073METAR LSZR 051350Z 31004KT 290V360 9999 BKN013 M03/M06 Q1002 NOSIG RMK J;
0134066811999992010010514204+47483+009550FM-15+0398LSZR V0209999V001010039019N0090001N1-00301-00601999999ADDGA1071+003901999GF107991999999999999999999MA1100201999999REMMET065METAR LSZR 051420Z VRB02KT 9000 BKN013 M03/M06 Q1002 NOSIG RMK K;
0134066811999992010010514504+47483+009550FM-15+0398LSZR V0209999V001010045019N0112651N1-00301-00601999999ADDGA1071+004501999GF107991999999999999999999MA1100201999999REMMET065METAR LSZR 051450Z VRB02KT 9999 BKN015 M03/M06 Q1002 NOSIG RMK L;
0134066811999992010010515204+47483+009550FM-15+0398LSZR V0209999C000010045019N0112651N1-00401-00601999999ADDGA1071+004501999GF107991999999999999999999MA1100201999999REMMET065METAR LSZR 051520Z 00000KT 9999 BKN015 M04/M06 Q1002 NOSIG RMK L;
0157066811999992010010515504+47483+009550FM-15+0398LSZR V0209999C000010054019N0080001N1-00301-00601999999ADDGA1071+005401999GA2071+027001999GF107991999999999999999999MA1100201999999REMMET072METAR LSZR 051550Z 00000KT 8000 BKN018 BKN090 M03/M06 Q1002 NOSIG RMK M;
0157066811999992010010516204+47483+009550FM-15+0398LSZR V0209999C000010054019N0080001N1-00301-00601999999ADDGA1071+005401999GA2071+024001999GF107991999999999999999999MA1100201999999REMMET072METAR LSZR 051620Z 00000KT 8000 BKN018 BKN082 M03/M06 Q1002 NOSIG RMK M;
0134066811999992010010516504+47483+009550FM-15+0398LSZR V0209999V001010048019N0080001N1-00301-00601999999ADDGA1071+004801999GF107991999999999999999999MA1100101999999REMMET065METAR LSZR 051650Z VRB02KT 8000 BKN016 M03/M06 Q1001 NOSIG RMK N;
0157066811999992010010517204+47483+009550FM-15+0398LSZR V0209999V000510270019N0080001N1-00301-00601999999ADDGA1041+004801999GA2071+027001999GF107991999999999999999999MA1100101999999REMMET072METAR LSZR 051720Z VRB01KT 8000 SCT016 BKN093 M03/M06 Q1001 NOSIG RMK N;
0157066811999992010010517504+47483+009550FM-15+0398LSZR V0209999C000010270019N0080001N1-00301-00601999999ADDGA1021+004801999GA2071+027001999GF107991999999999999999999MA1100101999999REMMET072METAR LSZR 051750Z 00000KT 8000 FEW016 BKN090 M03/M06 Q1001 NOSIG RMK O;
0157066811999992010010518204+47483+009550FM-15+0398LSZR V0202501N001010042019N0080001N1-00301-00601999999ADDGA1071+004201999GA2071+027001999GF107991999999999999999999MA1100101999999REMMET072METAR LSZR 051820Z 25002KT 8000 BKN014 BKN090 M03/M06 Q1001 NOSIG RMK O;
0157066811999992010010518504+47483+009550FM-15+0398LSZR V0209999V001010045019N0090001N1-00301-00601999999ADDGA1071+004501999GA2071+030001999GF107991999999999999999999MA1100101999999REMMET072METAR LSZR 051850Z VRB02KT 9000 BKN015 BKN100 M03/M06 Q1001 NOSIG RMK P;
0134066811999992010010604504+47483+009550FM-15+0398LSZR V0203001N001510033019N0060001N1-00301-00501999999ADDGA1081+003301999GF108991999999999999999999MA1099901999999REMMET065METAR LSZR 060450Z 30003KT 6000 OVC011 M03/M05 Q0999 NOSIG RMK B;
0173066811999992010010605204+47483+009550FM-15+0398LSZR V0202901N002110033019N0045001N1-00301-00501999999ADDGA1081+003301999GF108991999999999999999999MA1099901999999MW1711REMMET079METAR LSZR 060520Z 29004KT 250V310 4500 -DZSN OVC011 M03/M05 Q0999 NOSIG RMK C;EQDQ01+000512PRSWM1
0143066811999992010010605504+47483+009550FM-15+0398LSZR V0209999V001010033019N0025001N1-00301-00501999999ADDGA1081+003301999GF108991999999999999999999MA1099901999999MW1731REMMET068METAR LSZR 060550Z VRB02KT 2500 SN OVC011 M03/M05 Q0999 NOSIG RMK D;
0165066811999992010010606204+47483+009550FM-15+0398LSZR V0209999C000010033019N0011001N1-00401-00501999999ADDED199U20009GA1081+003301999GF108991999999999999999999MA1100001999999MW1731REMMET079METAR LSZR 060620Z 00000KT 1100 R10/P2000N SN OVC011 M04/M05 Q1000 NOSIG RMK D;
0154066811999992010010606504+47483+009550FM-15+0398LSZR V0209999V001010030019N0025001N1-00301-00501999999ADDGA1081+003001999GF108991999999999999999999MA1100001999999MW1731REMMET079METAR LSZR 060650Z VRB02KT 2500 SN OVC010 M03/M05 Q1000 R10/421095 NOSIG RMK E;
0154066811999992010010607204+47483+009550FM-15+0398LSZR V0209999C000010030019N0025001N1-00301-00501999999ADDGA1081+003001999GF108991999999999999999999MA1100001999999MW1731REMMET079METAR LSZR 060720Z 00000KT 2500 SN OVC010 M03/M05 Q1000 R10/421095 NOSIG RMK E;
0176066811999992010010607504+47483+009550FM-15+0398LSZR V0201001N001010036019N0025001N1-00401-00501999999ADDGA1041+001501999GA2081+003601999GF108991999999999999999999MA1100001999999MW1711REMMET085METAR LSZR 060750Z 10002KT 2500 -SN SCT005 OVC012 M04/M05 Q1000 10CLRD// NOSIG RMK F;
0176066811999992010010608204+47483+009550FM-15+0398LSZR V0200901N000510036019N0025001N1-00401-00501999999ADDGA1041+001501999GA2081+003601999GF108991999999999999999999MA1100001999999MW1711REMMET085METAR LSZR 060820Z 09001KT 2500 -SN SCT005 OVC012 M04/M05 Q1000 10CLRD// NOSIG RMK F;
0158066811999992010010608504+47483+009550FM-15+0398LSZR V0200901N000510018019N0012001N1-00301-00501999999ADDGA1081+001801999GF108991999999999999999999MA1100101999999MW1731REMMET083METAR LSZR 060850Z 09001KT 1200 R10/1100V1400N SN OVC006 M03/M05 Q1001 NOSIG RMK G;
0159066811999992010010609204+47483+009550FM-15+0398LSZR V0209999C000010024019N0013001N1-00301-00501999999ADDGA1081+002401999GF108991999999999999999999MA1100101999999MW1711REMMET084METAR LSZR 060920Z 00000KT 1300 R10/1100V1800D -SN OVC008 M03/M05 Q1001 NOSIG RMK G;
0144066811999992010010609504+47483+009550FM-15+0398LSZR V0200901N001010021019N0024001N1-00301-00401999999ADDGA1081+002101999GF108991999999999999999999MA1100101999999MW1711REMMET069METAR LSZR 060950Z 09002KT 2400 -SN OVC007 M03/M04 Q1001 NOSIG RMK H;
0144066811999992010010610204+47483+009550FM-15+0398LSZR V0201101N000510018019N0022001N1-00301-00401999999ADDGA1081+001801999GF108991999999999999999999MA1100101999999MW1711REMMET069METAR LSZR 061020Z 11001KT 2200 -SN OVC006 M03/M04 Q1001 NOSIG RMK H;
0144066811999992010010610504+47483+009550FM-15+0398LSZR V0200801N000510024019N0030001N1-00301-00401999999ADDGA1081+002401999GF108991999999999999999999MA1100101999999MW1711REMMET069METAR LSZR 061050Z 08001KT 3000 -SN OVC008 M03/M04 Q1001 NOSIG RMK I;
0167066811999992010010611204+47483+009550FM-15+0398LSZR V0201101N001010027019N0033001N1-00301-00401999999ADDGA1071+002701999GA2081+006601999GF108991999999999999999999MA1100101999999MW1711REMMET076METAR LSZR 061120Z 11002KT 3300 -SN BKN009 OVC022 M03/M04 Q1001 NOSIG RMK I;
0167066811999992010010611504+47483+009550FM-15+0398LSZR V0201001N001010027019N0036001N1-00201-00401999999ADDGA1071+002701999GA2081+006601999GF108991999999999999999999MA1100101999999MW1711REMMET076METAR LSZR 061150Z 10002KT 3600 -SN BKN009 OVC022 M02/M04 Q1001 NOSIG RMK J;
0167066811999992010010612204+47483+009550FM-15+0398LSZR V0201101N000510036019N0041001N1-00201-00401999999ADDGA1071+003601999GA2081+008701999GF108991999999999999999999MA1100101999999MW1711REMMET076METAR LSZR 061220Z 11001KT 4100 -SN BKN012 OVC029 M02/M04 Q1001 NOSIG RMK J;
0166066811999992010010612504+47483+009550FM-15+0398LSZR V0209999V001010090019N0046001N1-00201-00401999999ADDGA1041+003601999GA2071+009001999GF107991999999999999999999MA1100101999999MW1051REMMET075METAR LSZR 061250Z VRB02KT 4600 HZ SCT012 BKN030 M02/M04 Q1001 NOSIG RMK K;
0189066811999992010010613204+47483+009550FM-15+0398LSZR V0200801N001010090019N0050001N1-00201-00401999999ADDGA1041+003601999GA2071+009001999GA3071+015001999GF107991999999999999999999MA1100101999999MW1051REMMET082METAR LSZR 061320Z 08002KT 5000 HZ SCT012 BKN030 BKN050 M02/M04 Q1001 NOSIG RMK K;
0157066811999992010010613504+47483+009550FM-15+0398LSZR V0201001N000510045019N0050001N1-00101-00401999999ADDGA1071+004501999GA2081+010501999GF108991999999999999999999MA1100101999999REMMET072METAR LSZR 061350Z 10001KT 5000 BKN015 OVC035 M01/M04 Q1001 NOSIG RMK L;
0157066811999992010010614204+47483+009550FM-15+0398LSZR V0201201N000510108019N0050001N1-00101-00401999999ADDGA1041+004201999GA2081+010801999GF108991999999999999999999MA1100101999999REMMET072METAR LSZR 061420Z 12001KT 5000 SCT014 OVC036 M01/M04 Q1001 NOSIG RMK L;
0166066811999992010010614504+47483+009550FM-15+0398LSZR V0200901N001010108019N0045001N1-00101-00401999999ADDGA1041+005101999GA2081+010801999GF108991999999999999999999MA1100101999999MW1101REMMET075METAR LSZR 061450Z 09002KT 4500 BR SCT017 OVC036 M01/M04 Q1001 NOSIG RMK M;
0166066811999992010010615204+47483+009550FM-15+0398LSZR V0201201N000510087019N0050001N1-00101-00401999999ADDGA1041+005401999GA2081+008701999GF108991999999999999999999MA1100101999999MW1101REMMET075METAR LSZR 061520Z 12001KT 5000 BR SCT018 OVC029 M01/M04 Q1001 NOSIG RMK M;
0166066811999992010010615504+47483+009550FM-15+0398LSZR V0209999C000010081019N0050001N1-00101-00401999999ADDGA1021+005401999GA2081+008101999GF108991999999999999999999MA1100201999999MW1051REMMET075METAR LSZR 061550Z 00000KT 5000 HZ FEW018 OVC027 M01/M04 Q1002 NOSIG RMK N;
0166066811999992010010616204+47483+009550FM-15+0398LSZR V0201201N001010081019N0050001N1-00101-00301999999ADDGA1021+005401999GA2081+008101999GF108991999999999999999999MA1100201999999MW1051REMMET075METAR LSZR 061620Z 12002KT 5000 HZ FEW018 OVC027 M01/M03 Q1002 NOSIG RMK N;
0166066811999992010010616504+47483+009550FM-15+0398LSZR V0201101N001010075019N0050001N1-00101-00401999999ADDGA1021+005401999GA2081+007501999GF108991999999999999999999MA1100201999999MW1101REMMET075METAR LSZR 061650Z 11002KT 5000 BR FEW018 OVC025 M01/M04 Q1002 NOSIG RMK O;
0166066811999992010010617204+47483+009550FM-15+0398LSZR V0201301N001010072019N0043001N1-00101-00301999999ADDGA1021+005401999GA2071+007201999GF107991999999999999999999MA1100201999999MW1051REMMET075METAR LSZR 061720Z 13002KT 4300 HZ FEW018 BKN024 M01/M03 Q1002 NOSIG RMK O;
0166066811999992010010617504+47483+009550FM-15+0398LSZR V0201201N001010072019N0048001N1-00101-00301999999ADDGA1021+005401999GA2071+007201999GF107991999999999999999999MA1100201999999MW1101REMMET075METAR LSZR 061750Z 12002KT 4800 BR FEW018 BKN024 M01/M03 Q1002 NOSIG RMK P;
0189066811999992010010618204+47483+009550FM-15+0398LSZR V0209999V00101007201CN0050001N1-00101-00301999999ADDGA1021+005401999GA2041+007201999GA3071+010501999GF107991999999999999999999MA1100311999999MW1101REMMET082METAR LSZR 061820Z VRB02KT 5000 BR FEW018 SCT024 BKN035 M01/M03 Q1003 NOSIG RMK Q;
0180066811999992010010618504+47483+009550FM-15+0398LSZR V0209999C000010072019N0060001N1-00101-00301999999ADDGA1021+005401999GA2071+007201999GA3071+011101999GF107991999999999999999999MA1100311999999REMMET079METAR LSZR 061850Z 00000KT 6000 FEW018 BKN024 BKN037 M01/M03 Q1003 NOSIG RMK Q;
0134066811999992010010705204+47483+009550FM-15+0398LSZR V0201301N001510087019N0070001N1-00201-00401999999ADDGA1071+008701999GF107991999999999999999999MA1100611999999REMMET065METAR LSZR 070520Z 13003KT 7000 BKN029 M02/M04 Q1006 NOSIG RMK A;
0134066811999992010010705504+47483+009550FM-15+0398LSZR V0201301N000510087019N0060001N1-00201-00401999999ADDGA1071+008701999GF107991999999999999999999MA1100611999999REMMET065METAR LSZR 070550Z 13001KT 6000 BKN029 M02/M04 Q1006 NOSIG RMK A;
0134066811999992010010706204+47483+009550FM-15+0398LSZR V0209999C000012200019N0080001N1-00301-00401999999ADDGA1041+007501999GF104991999999999999999999MA1100611999999REMMET065METAR LSZR 070620Z 00000KT 8000 SCT025 M03/M04 Q1006 NOSIG RMK B;
0134066811999992010010706504+47483+009550FM-15+0398LSZR V0201101N001012200019N0080001N1-00301-00401999999ADDGA1041+007501999GF104991999999999999999999MA1100611999999REMMET065METAR LSZR 070650Z 11002KT 8000 SCT025 M03/M04 Q1006 NOSIG RMK B;
0134066811999992010010707204+47483+009550FM-15+0398LSZR V0201001N001012200019N0070001N1-00401-00501999999ADDGA1041+007501999GF104991999999999999999999MA1100611999999REMMET065METAR LSZR 070720Z 10002KT 7000 SCT025 M04/M05 Q1006 NOSIG RMK C;
0134066811999992010010707504+47483+009550FM-15+0398LSZR V0209999C000012200019N0070001N1-00501-00601999999ADDGA1041+007501999GF104991999999999999999999MA1100711999999REMMET065METAR LSZR 070750Z 00000KT 7000 SCT025 M05/M06 Q1007 NOSIG RMK C;
0134066811999992010010708204+47483+009550FM-15+0398LSZR V0200901N001012200019N0060001N1-00501-00601999999ADDGA1021+007501999GF102991999999999999999999MA1100711999999REMMET065METAR LSZR 070820Z 09002KT 6000 FEW025 M05/M06 Q1007 NOSIG RMK D;
0134066811999992010010708504+47483+009550FM-15+0398LSZR V0201101N001512200019N0080001N1-00601-00701999999ADDGA1041+007501999GF104991999999999999999999MA1100711999999REMMET065METAR LSZR 070850Z 11003KT 8000 SCT025 M06/M07 Q1007 NOSIG RMK E;
0134066811999992010010709204+47483+009550FM-15+0398LSZR V0209999V001012200019N0080001N1-00301-00501999999ADDGA1041+007501999GF104991999999999999999999MA1100711999999REMMET065METAR LSZR 070920Z VRB02KT 8000 SCT025 M03/M05 Q1007 NOSIG RMK E;
0134066811999992010010709504+47483+009550FM-15+0398LSZR V0201301N002612200019N0070001N1-00201-00501999999ADDGA1041+007501999GF104991999999999999999999MA1100711999999REMMET065METAR LSZR 070950Z 13005KT 7000 SCT025 M02/M05 Q1007 NOSIG RMK F;
0134066811999992010010710204+47483+009550FM-15+0398LSZR V0200901N002612200019N0070001N1-00301-00501999999ADDGA1041+007501999GF104991999999999999999999MA1100711999999REMMET065METAR LSZR 071020Z 09005KT 7000 SCT025 M03/M05 Q1007 NOSIG RMK F;
0134066811999992010010710504+47483+009550FM-15+0398LSZR V0201001N002612200019N0080001N1-00101-00401999999ADDGA1021+007501999GF102991999999999999999999MA1100711999999REMMET065METAR LSZR 071050Z 10005KT 8000 FEW025 M01/M04 Q1007 NOSIG RMK G;
0157066811999992010010711204+47483+009550FM-15+0398LSZR V0201001N002112200019N0070001N1-00101-00401999999ADDGA1021+007501999GA2041+054001999GF104991999999999999999999MA1100711999999REMMET072METAR LSZR 071120Z 10004KT 7000 FEW025 SCT180 M01/M04 Q1007 NOSIG RMK G;
0115066811999992010010711504+47483+009550FM-15+0398LSZR V0201301N001512200019N0080001N1+00001-00401999999ADDGF100991999999999999999999MA1100711999999REMMET062METAR LSZR 071150Z 13003KT 8000 NSC M00/M04 Q1007 NOSIG RMK H;
0115066811999992010010712204+47483+009550FM-15+0398LSZR V0201301N001512200019N0080001N1+00001-00401999999ADDGF100991999999999999999999MA1100711999999REMMET062METAR LSZR 071220Z 13003KT 8000 NSC M00/M04 Q1007 NOSIG RMK H;
0086066811999992010010712504+47483+009550FM-15+0398LSZR V0209999V001019999999Y0099001N1+00001-00401999999ADDMA1100711999999REMMET059METAR LSZR 071250Z VRB02KT CAVOK M00/M04 Q1007 NOSIG RMK I;
0086066811999992010010713204+47483+009550FM-15+0398LSZR V0209999V001019999999Y0099001N1+00001-00401999999ADDMA1100711999999REMMET059METAR LSZR 071320Z VRB02KT CAVOK M00/M04 Q1007 NOSIG RMK I;
0085066811999992010010713504+47483+009550FM-15+0398LSZR V0202501N001019999999Y0099001N1+00001-00501999999ADDMA1100711999999REMMET058METAR LSZR 071350Z 25002KT CAVOK 00/M05 Q1007 NOSIG RMK J;
0115066811999992010010714204+47483+009550FM-15+0398LSZR V0202901N001012200019N0080001N1-00101-00401999999ADDGF100991999999999999999999MA1100711999999REMMET062METAR LSZR 071420Z 29002KT 8000 NSC M01/M04 Q1007 NOSIG RMK J;
0115066811999992010010714504+47483+009550FM-15+0398LSZR V0209999V001012200019N0070001N1+00001-00401999999ADDGF100991999999999999999999MA1100711999999REMMET062METAR LSZR 071450Z VRB02KT 7000 NSC M00/M04 Q1007 NOSIG RMK K;
0115066811999992010010715204+47483+009550FM-15+0398LSZR V0209999C000012200019N0070001N1-00101-00401999999ADDGF100991999999999999999999MA1100811999999REMMET062METAR LSZR 071520Z 00000KT 7000 NSC M01/M04 Q1008 NOSIG RMK L;
0115066811999992010010715504+47483+009550FM-15+0398LSZR V0202201N001012200019N0070001N1-00101-00401999999ADDGF100991999999999999999999MA1100811999999REMMET062METAR LSZR 071550Z 22002KT 7000 NSC M01/M04 Q1008 NOSIG RMK L;
0115066811999992010010716204+47483+009550FM-15+0398LSZR V0202101N001012200019N0080001N1-00201-00401999999ADDGF100991999999999999999999MA1100811999999REMMET062METAR LSZR 071620Z 21002KT 8000 NSC M02/M04 Q1008 NOSIG RMK M;
0115066811999992010010716504+47483+009550FM-15+0398LSZR V0209999C000012200019N0070001N1-00201-00501999999ADDGF100991999999999999999999MA1100811999999REMMET062METAR LSZR 071650Z 00000KT 7000 NSC M02/M05 Q1008 NOSIG RMK M;
0115066811999992010010717204+47483+009550FM-15+0398LSZR V0201401N001012200019N0080001N1-00201-00401999999ADDGF100991999999999999999999MA1100811999999REMMET062METAR LSZR 071720Z 14002KT 8000 NSC M02/M04 Q1008 NOSIG RMK N;
0115066811999992010010717504+47483+009550FM-15+0398LSZR V0201101N001012200019N0070001N1-00301-00501999999ADDGF100991999999999999999999MA1100911999999REMMET062METAR LSZR 071750Z 11002KT 7000 NSC M03/M05 Q1009 NOSIG RMK O;
0115066811999992010010718204+47483+009550FM-15+0398LSZR V0201201N001012200019N0070001N1-00201-00501999999ADDGF100991999999999999999999MA1100911999999REMMET062METAR LSZR 071820Z 12002KT 7000 NSC M02/M05 Q1009 NOSIG RMK O;
0134066811999992010010805204+47483+009550FM-15+0398LSZR V0209999V000510048019N0050001N1-00101-00401999999ADDGA1081+004801999GF108991999999999999999999MA1100711999999REMMET065METAR LSZR 080520Z VRB01KT 5000 OVC016 M01/M04 Q1007 NOSIG RMK A;
0134066811999992010010805504+47483+009550FM-15+0398LSZR V0209999V000510048019N0050001N1-00101-00401999999ADDGA1081+004801999GF108991999999999999999999MA1100711999999REMMET065METAR LSZR 080550Z VRB01KT 5000 OVC016 M01/M04 Q1007 NOSIG RMK A;
0134066811999992010010806204+47483+009550FM-15+0398LSZR V0209999V000510048019N0060001N1-00101-00401999999ADDGA1081+004801999GF108991999999999999999999MA1100711999999REMMET065METAR LSZR 080620Z VRB01KT 6000 OVC016 M01/M04 Q1007 NOSIG RMK B;
0157066811999992010010806504+47483+009550FM-15+0398LSZR V0201101N000510048019N0060001N1-00201-00401999999ADDGA1071+004801999GA2081+006901999GF108991999999999999999999MA1100711999999REMMET072METAR LSZR 080650Z 11001KT 6000 BKN016 OVC023 M02/M04 Q1007 NOSIG RMK B;
0134066811999992010010807204+47483+009550FM-15+0398LSZR V0201701N000510051019N0060001N1-00201-00401999999ADDGA1081+005101999GF108991999999999999999999MA1100711999999REMMET065METAR LSZR 080720Z 17001KT 6000 OVC017 M02/M04 Q1007 NOSIG RMK C;
0134066811999992010010807504+47483+009550FM-15+0398LSZR V0209999V001010051019N0060001N1-00101-00401999999ADDGA1081+005101999GF108991999999999999999999MA1100611999999REMMET065METAR LSZR 080750Z VRB02KT 6000 OVC017 M01/M04 Q1006 NOSIG RMK D;
0142066811999992010010808204+47483+009550FM-15+0398LSZR V0200501N002610051019N0060001N1-00101-00401999999ADDGA1081+005101999GF108991999999999999999999MA1100611999999REMMET073METAR LSZR 080820Z 05005KT 010V110 6000 OVC017 M01/M04 Q1006 NOSIG RMK D;
0151066811999992010010808504+47483+009550FM-15+0398LSZR V0200401N003110060019N0050001N1-00101-00401999999ADDGA1081+006001999GF108991999999999999999999MA1100611999999MW1101REMMET076METAR LSZR 080850Z 04006KT 010V080 5000 BR OVC020 M01/M04 Q1006 NOSIG RMK E;
0134066811999992010010809204+47483+009550FM-15+0398LSZR V0200401N004110060019N0060001N1-00101-00401999999ADDGA1081+006001999GF108991999999999999999999MA1100611999999REMMET065METAR LSZR 080920Z 04008KT 6000 OVC020 M01/M04 Q1006 NOSIG RMK E;
0142066811999992010010809504+47483+009550FM-15+0398LSZR V0200401N003610060019N0060001N1-00101-00401999999ADDGA1081+006001999GF108991999999999999999999MA1100511999999REMMET073METAR LSZR 080950Z 04007KT 010V070 6000 OVC020 M01/M04 Q1005 NOSIG RMK F;
0142066811999992010010810204+47483+009550FM-15+0398LSZR V0200401N004110060019N0060001N1-00101-00401999999ADDGA1081+006001999GF108991999999999999999999MA1100511999999REMMET073METAR LSZR 081020Z 04008KT 360V070 6000 OVC020 M01/M04 Q1005 NOSIG RMK F;
0142066811999992010010810504+47483+009550FM-15+0398LSZR V0200401N004110060019N0060001N1+00001-00401999999ADDGA1081+006001999GF108991999999999999999999MA1100511999999REMMET073METAR LSZR 081050Z 04008KT 020V080 6000 OVC020 M00/M04 Q1005 NOSIG RMK G;
0165066811999992010010811204+47483+009550FM-15+0398LSZR V0200301N003610060019N0060001N1+00001-00401999999ADDGA1021+005401999GA2071+006001999GF107991999999999999999999MA1100411999999REMMET080METAR LSZR 081120Z 03007KT 350V070 6000 FEW018 BKN020 M00/M04 Q1004 NOSIG RMK H;
0142066811999992010010812204+47483+009550FM-15+0398LSZR V0200301N004610060019N0060001N1-00101-00401999999ADDGA1081+006001999GF108991999999999999999999MA1100311999999REMMET073METAR LSZR 081220Z 03009KT 360V070 6000 OVC020 M01/M04 Q1003 NOSIG RMK I;
0134066811999992010010812504+47483+009550FM-15+0398LSZR V0200301N005110060019N0060001N1-00101-00401999999ADDGA1081+006001999GF108991999999999999999999MA1100311999999REMMET065METAR LSZR 081250Z 03010KT 6000 OVC020 M01/M04 Q1003 NOSIG RMK I;
0134066811999992010010813204+47483+009550FM-15+0398LSZR V0200301N004610069019N0060001N1-00101-00401999999ADDGA1081+006901999GF108991999999999999999999MA1100311999999REMMET065METAR LSZR 081320Z 03009KT 6000 OVC023 M01/M04 Q1003 NOSIG RMK J;
0142066811999992010010813504+47483+009550FM-15+0398LSZR V0200201N004610069019N0060001N1-00101-00401999999ADDGA1081+006901999GF108991999999999999999999MA1100201999999REMMET073METAR LSZR 081350Z 02009KT 350V050 6000 OVC023 M01/M04 Q1002 NOSIG RMK K;
0142066811999992010010814204+47483+009550FM-15+0398LSZR V0200401N005710069019N0060001N1-00101-00401999999ADDGA1081+006901999GF108991999999999999999999MA1100311999999REMMET073METAR LSZR 081420Z 04011KT 010V080 6000 OVC023 M01/M04 Q1003 NOSIG RMK L;
0165066811999992010010814504+47483+009550FM-15+0398LSZR V0200501N005710069019N0060001N1-00101-00401999999ADDGA1021+005401999GA2081+006901999GF108991999999999999999999MA1100201999999REMMET080METAR LSZR 081450Z 05011KT 020V080 6000 FEW018 OVC023 M01/M04 Q1002 NOSIG RMK M;
0157066811999992010010815204+47483+009550FM-15+0398LSZR V0200501N006210066019N0070001N1-00101-00501999999ADDGA1021+005401999GA2081+006601999GF108991999999999999999999MA1100201999999REMMET072METAR LSZR 081520Z 05012KT 7000 FEW018 OVC022 M01/M05 Q1002 NOSIG RMK M;
0142066811999992010010815504+47483+009550FM-15+0398LSZR V0200401N005710060019N0080001N1-00101-00501999999ADDGA1081+006001999GF108991999999999999999999MA1100311999999REMMET073METAR LSZR 081550Z 04011KT 010V090 8000 OVC020 M01/M05 Q1003 NOSIG RMK N;
0142066811999992010010816204+47483+009550FM-15+0398LSZR V0200501N005110060019N0080001N1-00101-00501999999ADDGA1081+006001999GF108991999999999999999999MA1100311999999REMMET073METAR LSZR 081620Z 05010KT 010V080 8000 OVC020 M01/M05 Q1003 NOSIG RMK N;
0142066811999992010010817204+47483+009550FM-15+0398LSZR V0200401N004610054019N0080001N1-00101-00401999999ADDGA1081+005401999GF108991999999999999999999MA1100311999999REMMET073METAR LSZR 081720Z 04009KT 360V080 8000 OVC018 M01/M04 Q1003 NOSIG RMK O;
0142066811999992010010818204+47483+009550FM-15+0398LSZR V0200501N004110054019N0080001N1-00101-00501999999ADDGA1081+005401999GF108991999999999999999999MA1100311999999REMMET073METAR LSZR 081820Z 05008KT 020V080 8000 OVC018 M01/M05 Q1003 NOSIG RMK P;
0134066811999992010010906204+47483+009550FM-15+0398LSZR V0200201N003610033019N0090001N1-00201-00501999999ADDGA1081+003301999GF108991999999999999999999MA1100311999999REMMET065METAR LSZR 090620Z 02007KT 9000 OVC011 M02/M05 Q1003 NOSIG RMK A;
0142066811999992010010906504+47483+009550FM-15+0398LSZR V0200301N002610036019N0090001N1-00301-00501999999ADDGA1081+003601999GF108991999999999999999999MA1100311999999REMMET073METAR LSZR 090650Z 03005KT 350V070 9000 OVC012 M03/M05 Q1003 NOSIG RMK A;
0134066811999992010010907204+47483+009550FM-15+0398LSZR V0200301N002610039019N0090001N1-00301-00501999999ADDGA1081+003901999GF108991999999999999999999MA1100311999999REMMET065METAR LSZR 090720Z 03005KT 9000 OVC013 M03/M05 Q1003 NOSIG RMK B;
0134066811999992010010907504+47483+009550FM-15+0398LSZR V0200101N003110036019N0090001N1-00301-00501999999ADDGA1081+003601999GF108991999999999999999999MA1100311999999REMMET065METAR LSZR 090750Z 01006KT 9000 OVC012 M03/M05 Q1003 NOSIG RMK B;
0134066811999992010010908204+47483+009550FM-15+0398LSZR V0200201N002610039019N0080001N1-00301-00501999999ADDGA1081+003901999GF108991999999999999999999MA1100311999999REMMET065METAR LSZR 090820Z 02005KT 8000 OVC013 M03/M05 Q1003 NOSIG RMK C;
0134066811999992010010908504+47483+009550FM-15+0398LSZR V0200201N003610039019N0080001N1-00301-00501999999ADDGA1081+003901999GF108991999999999999999999MA1100311999999REMMET065METAR LSZR 090850Z 02007KT 8000 OVC013 M03/M05 Q1003 NOSIG RMK C;
0142066811999992010010909204+47483+009550FM-15+0398LSZR V0200101N003110042019N0090001N1-00301-00501999999ADDGA1081+004201999GF108991999999999999999999MA1100311999999REMMET073METAR LSZR 090920Z 01006KT 340V040 9000 OVC014 M03/M05 Q1003 NOSIG RMK D;
0142066811999992010010909504+47483+009550FM-15+0398LSZR V0200101N002610033019N0090001N1-00301-00501999999ADDGA1081+003301999GF108991999999999999999999MA1100311999999REMMET073METAR LSZR 090950Z 01005KT 330V040 9000 OVC011 M03/M05 Q1003 NOSIG RMK D;
0142066811999992010010910204+47483+009550FM-15+0398LSZR V0200101N003110033019N0090001N1-00301-00501999999ADDGA1081+003301999GF108991999999999999999999MA1100311999999REMMET073METAR LSZR 091020Z 01006KT 340V040 9000 OVC011 M03/M05 Q1003 NOSIG RMK E;
0142066811999992010010910504+47483+009550FM-15+0398LSZR V0200201N003110045019N0090001N1-00301-00501999999ADDGA1081+004501999GF108991999999999999999999MA1100311999999REMMET073METAR LSZR 091050Z 02006KT 340V070 9000 OVC015 M03/M05 Q1003 NOSIG RMK E;
0142066811999992010010911204+47483+009550FM-15+0398LSZR V0200101N003610033019N0050001N1-00301-00501999999ADDGA1081+003301999GF108991999999999999999999MA1100311999999REMMET073METAR LSZR 091120Z 01007KT 320V040 5000 OVC011 M03/M05 Q1003 NOSIG RMK F;
0142066811999992010010911504+47483+009550FM-15+0398LSZR V0200201N003110033019N0060001N1-00301-00501999999ADDGA1081+003301999GF108991999999999999999999MA1100311999999REMMET073METAR LSZR 091150Z 02006KT 340V050 6000 OVC011 M03/M05 Q1003 NOSIG RMK F;
0142066811999992010010912204+47483+009550FM-15+0398LSZR V0200201N003110030019N0060001N1-00301-00501999999ADDGA1081+003001999GF108991999999999999999999MA1100201999999REMMET073METAR LSZR 091220Z 02006KT 350V060 6000 OVC010 M03/M05 Q1002 NOSIG RMK G;
0142066811999992010010912504+47483+009550FM-15+0398LSZR V0203601N003610030019N0080001N1-00301-00501999999ADDGA1081+003001999GF108991999999999999999999MA1100201999999REMMET073METAR LSZR 091250Z 36007KT 330V040 8000 OVC010 M03/M05 Q1002 NOSIG RMK G;
0142066811999992010010913204+47483+009550FM-15+0398LSZR V0200201N003610030019N0080001N1-00301-00501999999ADDGA1081+003001999GF108991999999999999999999MA1100201999999REMMET073METAR LSZR 091320Z 02007KT 330V060 8000 OVC010 M03/M05 Q1002 NOSIG RMK H;
0142066811999992010010913504+47483+009550FM-15+0398LSZR V0200201N003110030019N0080001N1-00301-00501999999ADDGA1081+003001999GF108991999999999999999999MA1100201999999REMMET073METAR LSZR 091350Z 02006KT 330V060 8000 OVC010 M03/M05 Q1002 NOSIG RMK H;
0142066811999992010010914204+47483+009550FM-15+0398LSZR V0200301N002110033019N0080001N1-00301-00501999999ADDGA1081+003301999GF108991999999999999999999MA1100201999999REMMET073METAR LSZR 091420Z 03004KT 350V070 8000 OVC011 M03/M05 Q1002 NOSIG RMK I;
0142066811999992010010914504+47483+009550FM-15+0398LSZR V0200201N002610033019N0080001N1-00301-00501999999ADDGA1081+003301999GF108991999999999999999999MA1100311999999REMMET073METAR LSZR 091450Z 02005KT 350V050 8000 OVC011 M03/M05 Q1003 NOSIG RMK J;
0142066811999992010010915204+47483+009550FM-15+0398LSZR V0200201N002610033019N0080001N1-00301-00501999999ADDGA1081+003301999GF108991999999999999999999MA1100311999999REMMET073METAR LSZR 091520Z 02005KT 340V050 8000 OVC011 M03/M05 Q1003 NOSIG RMK J;
0142066811999992010010915504+47483+009550FM-15+0398LSZR V0200201N002610033019N0080001N1-00301-00501999999ADDGA1081+003301999GF108991999999999999999999MA1100311999999REMMET073METAR LSZR 091550Z 02005KT 340V060 8000 OVC011 M03/M05 Q1003 NOSIG RMK K;
0142066811999992010010916204+47483+009550FM-15+0398LSZR V0200201N002610033019N0070001N1-00301-00501999999ADDGA1081+003301999GF108991999999999999999999MA1100311999999REMMET073METAR LSZR 091620Z 02005KT 330V060 7000 OVC011 M03/M05 Q1003 NOSIG RMK K;
0142066811999992010010916504+47483+009550FM-15+0398LSZR V0200101N002610030019N0070001N1-00301-00501999999ADDGA1081+003001999GF108991999999999999999999MA1100311999999REMMET073METAR LSZR 091650Z 01005KT 310V050 7000 OVC010 M03/M05 Q1003 NOSIG RMK L;
0142066811999992010010917204+47483+009550FM-15+0398LSZR V0200201N002110030019N0070001N1-00301-00501999999ADDGA1081+003001999GF108991999999999999999999MA1100311999999REMMET073METAR LSZR 091720Z 02004KT 340V060 7000 OVC010 M03/M05 Q1003 NOSIG RMK L;
0157066811999992010010917504+47483+009550FM-15+0398LSZR V0200201N002610027019N0070001N1-00301-00501999999ADDGA1071+002701999GA2081+003901999GF108991999999999999999999MA1100311999999REMMET072METAR LSZR 091750Z 02005KT 7000 BKN009 OVC013 M03/M05 Q1003 NOSIG RMK M;
0175066811999992010010918204+47483+009550FM-15+0398LSZR V0200301N002110027019N0040001N1-00301-00501999999ADDGA1071+002701999GA2081+003901999GF108991999999999999999999MA1100311999999MW1711REMMET084METAR LSZR 091820Z 03004KT 350V070 4000 -SN BKN009 OVC013 M03/M05 Q1003 NOSIG RMK N;
0167066811999992010010918504+47483+009550FM-15+0398LSZR V0200301N002610027019N0060001N1-00301-00501999999ADDGA1071+002701999GA2081+003901999GF108991999999999999999999MA1100311999999MW1711REMMET076METAR LSZR 091850Z 03005KT 6000 -SN BKN009 OVC013 M03/M05 Q1003 NOSIG RMK N;
0157066811999992010011007504+47483+009550FM-15+0398LSZR V0202301N001510033019N0080001N1-00301-00501999999ADDGA1071+003301999GA2081+006001999GF108991999999999999999999MA1100911999999REMMET072METAR LSZR 100750Z 23003KT 8000 BKN011 OVC020 M03/M05 Q1009 NOSIG RMK A;
0157066811999992010011008204+47483+009550FM-15+0398LSZR V0209999V001010099019N0070001N1-00301-00501999999ADDGA1041+003301999GA2081+009901999GF108991999999999999999999MA1100911999999REMMET072METAR LSZR 100820Z VRB02KT 7000 SCT011 OVC033 M03/M05 Q1009 NOSIG RMK A;
0157066811999992010011008504+47483+009550FM-15+0398LSZR V0202601N001510105019N0070001N1-00201-00501999999ADDGA1021+003301999GA2081+010501999GF108991999999999999999999MA1101021999999REMMET072METAR LSZR 100850Z 26003KT 7000 FEW011 OVC035 M02/M05 Q1010 NOSIG RMK B;
0157066811999992010011009204+47483+009550FM-15+0398LSZR V0202701N002110105019N0090001N1-00201-00501999999ADDGA1021+003301999GA2081+010501999GF108991999999999999999999MA1101021999999REMMET072METAR LSZR 100920Z 27004KT 9000 FEW011 OVC035 M02/M05 Q1010 NOSIG RMK B;
0157066811999992010011009504+47483+009550FM-15+0398LSZR V0202901N004610105019N0090001N1-00201-00501999999ADDGA1021+003301999GA2071+010501999GF107991999999999999999999MA1101021999999REMMET072METAR LSZR 100950Z 29009KT 9000 FEW011 BKN035 M02/M05 Q1010 NOSIG RMK C;
0157066811999992010011010204+47483+009550FM-15+0398LSZR V0203001N005110081019N0090001N1-00201-00601999999ADDGA1021+003301999GA2071+008101999GF107991999999999999999999MA1101081999999REMMET072METAR LSZR 101020Z 30010KT 9000 FEW011 BKN027 M02/M06 Q1011 NOSIG RMK D;
0157066811999992010011010504+47483+009550FM-15+0398LSZR V0202901N005110090019N0090001N1-00201-00601999999ADDGA1021+003301999GA2071+009001999GF107991999999999999999999MA1101081999999REMMET072METAR LSZR 101050Z 29010KT 9000 FEW011 BKN030 M02/M06 Q1011 NOSIG RMK D;
0157066811999992010011011204+47483+009550FM-15+0398LSZR V0202901N004110102019N0080001N1-00201-00601999999ADDGA1021+003301999GA2071+010201999GF107991999999999999999999MA1101081999999REMMET072METAR LSZR 101120Z 29008KT 8000 FEW011 BKN034 M02/M06 Q1011 NOSIG RMK E;
0157066811999992010011011504+47483+009550FM-15+0398LSZR V0202801N003610105019N0080001N1-00201-00601999999ADDGA1021+006001999GA2071+010501999GF107991999999999999999999MA1101081999999REMMET072METAR LSZR 101150Z 28007KT 8000 FEW020 BKN035 M02/M06 Q1011 NOSIG RMK E;
0157066811999992010011012204+47483+009550FM-15+0398LSZR V0203001N003110096019N0090001N1-00201-00601999999ADDGA1021+006001999GA2071+009601999GF107991999999999999999999MA1101081999999REMMET072METAR LSZR 101220Z 30006KT 9000 FEW020 BKN032 M02/M06 Q1011 NOSIG RMK F;
0157066811999992010011012504+47483+009550FM-15+0398LSZR V0202801N003110096019N0090001N1-00201-00601999999ADDGA1021+006001999GA2071+009601999GF107991999999999999999999MA1101081999999REMMET072METAR LSZR 101250Z 28006KT 9000 FEW020 BKN032 M02/M06 Q1011 NOSIG RMK F;
0157066811999992010011013204+47483+009550FM-15+0398LSZR V0202601N002610102019N0090001N1-00201-00601999999ADDGA1021+006001999GA2071+010201999GF107991999999999999999999MA1101081999999REMMET072METAR LSZR 101320Z 26005KT 9000 FEW020 BKN034 M02/M06 Q1011 NOSIG RMK G;
0157066811999992010011013504+47483+009550FM-15+0398LSZR V0202601N002110105019N0090001N1-00201-00601999999ADDGA1021+006001999GA2071+010501999GF107991999999999999999999MA1101191999999REMMET072METAR LSZR 101350Z 26004KT 9000 FEW020 BKN035 M02/M06 Q1012 NOSIG RMK H;
0157066811999992010011014204+47483+009550FM-15+0398LSZR V0202801N003610105019N0090001N1-00201-00501999999ADDGA1021+006001999GA2071+010501999GF107991999999999999999999MA1101191999999REMMET072METAR LSZR 101420Z 28007KT 9000 FEW020 BKN035 M02/M05 Q1012 NOSIG RMK H;
0180066811999992010011014504+47483+009550FM-15+0398LSZR V0202901N00361010501CN0090001N1-00201-00501999999ADDGA1021+006001999GA2041+010501999GA3071+048001999GF107991999999999999999999MA1101191999999REMMET079METAR LSZR 101450Z 29007KT 9000 FEW020 SCT035 BKN160 M02/M05 Q1012 NOSIG RMK I;
0180066811999992010011015204+47483+009550FM-15+0398LSZR V0202901N002610105019N0090001N1-00301-00501999999ADDGA1021+006001999GA2071+010501999GA3071+048001999GF107991999999999999999999MA1101291999999REMMET079METAR LSZR 101520Z 29005KT 9000 FEW020 BKN035 BKN160 M03/M05 Q1013 NOSIG RMK J;
0180066811999992010011015504+47483+009550FM-15+0398LSZR V0202901N003610105019N0090001N1-00201-00601999999ADDGA1021+006001999GA2071+010501999GA3071+048001999GF107991999999999999999999MA1101291999999REMMET079METAR LSZR 101550Z 29007KT 9000 FEW020 BKN035 BKN160 M02/M06 Q1013 NOSIG RMK J;
0157066811999992010011016204+47483+009550FM-15+0398LSZR V0202801N004610105019N0112651N1-00301-00601999999ADDGA1021+006001999GA2071+010501999GF107991999999999999999999MA1101291999999REMMET072METAR LSZR 101620Z 28009KT 9999 FEW020 BKN035 M03/M06 Q1013 NOSIG RMK K;
0157066811999992010011016504+47483+009550FM-15+0398LSZR V0202701N004110105019N0112651N1-00301-00601999999ADDGA1021+006001999GA2071+010501999GF107991999999999999999999MA1101291999999REMMET072METAR LSZR 101650Z 27008KT 9999 FEW020 BKN035 M03/M06 Q1013 NOSIG RMK K;
0157066811999992010011017204+47483+009550FM-15+0398LSZR V0202701N003110117019N0112651N1-00301-00701999999ADDGA1021+006001999GA2071+011701999GF107991999999999999999999MA1101391999999REMMET072METAR LSZR 101720Z 27006KT 9999 FEW020 BKN039 M03/M07 Q1014 NOSIG RMK L;
0157066811999992010011017504+47483+009550FM-15+0398LSZR V0202701N003110117019N0112651N1-00301-00701999999ADDGA1021+006001999GA2071+011701999GF107991999999999999999999MA1101391999999REMMET072METAR LSZR 101750Z 27006KT 9999 FEW020 BKN039 M03/M07 Q1014 NOSIG RMK L;
0157066811999992010011018204+47483+009550FM-15+0398LSZR V0202701N002610078019N0112651N1-00301-00701999999ADDGA1021+006001999GA2071+007801999GF107991999999999999999999MA1101391999999REMMET072METAR LSZR 101820Z 27005KT 9999 FEW020 BKN026 M03/M07 Q1014 NOSIG RMK M;
0157066811999992010011018504+47483+009550FM-15+0398LSZR V0202701N002110078019N0112651N1-00301-00601999999ADDGA1021+006001999GA2071+007801999GF107991999999999999999999MA1101391999999REMMET072METAR LSZR 101850Z 27004KT 9999 FEW020 BKN026 M03/M06 Q1014 NOSIG RMK M;
0134066811999992010011105204+47483+009550FM-15+0398LSZR V0209999C000010075019N0090001N1-00301-00601999999ADDGA1081+007501999GF108991999999999999999999MA1101391999999REMMET065METAR LSZR 110520Z 00000KT 9000 OVC025 M03/M06 Q1014 NOSIG RMK A;
0134066811999992010011105504+47483+009550FM-15+0398LSZR V0209999V000510078019N0090001N1-00301-00601999999ADDGA1081+007801999GF108991999999999999999999MA1101391999999REMMET065METAR LSZR 110550Z VRB01KT 9000 OVC026 M03/M06 Q1014 NOSIG RMK A;
0134066811999992010011106204+47483+009550FM-15+0398LSZR V0209999C000010078019N0090001N1-00301-00701999999ADDGA1081+007801999GF108991999999999999999999MA1101391999999REMMET065METAR LSZR 110620Z 00000KT 9000 OVC026 M03/M07 Q1014 NOSIG RMK B;
0134066811999992010011106504+47483+009550FM-15+0398LSZR V0209999C000010075019N0090001N1-00301-00601999999ADDGA1081+007501999GF108991999999999999999999MA1101391999999REMMET065METAR LSZR 110650Z 00000KT 9000 OVC025 M03/M06 Q1014 NOSIG RMK B;
0134066811999992010011107204+47483+009550FM-15+0398LSZR V0209999C000010072019N0090001N1-00301-00701999999ADDGA1081+007201999GF108991999999999999999999MA1101391999999REMMET065METAR LSZR 110720Z 00000KT 9000 OVC024 M03/M07 Q1014 NOSIG RMK C;
0134066811999992010011107504+47483+009550FM-15+0398LSZR V0209999C000010066019N0090001N1-00301-00601999999ADDGA1081+006601999GF108991999999999999999999MA1101391999999REMMET065METAR LSZR 110750Z 00000KT 9000 OVC022 M03/M06 Q1014 NOSIG RMK C;
0134066811999992010011108504+47483+009550FM-15+0398LSZR V0209999V001010075019N0090001N1-00301-00601999999ADDGA1081+007501999GF108991999999999999999999MA1101391999999REMMET065METAR LSZR 110850Z VRB02KT 9000 OVC025 M03/M06 Q1014 NOSIG RMK D;
0134066811999992010011109204+47483+009550FM-15+0398LSZR V0209999V000510072019N0090001N1-00201-00601999999ADDGA1081+007201999GF108991999999999999999999MA1101391999999REMMET065METAR LSZR 110920Z VRB01KT 9000 OVC024 M02/M06 Q1014 NOSIG RMK D;
0134066811999992010011109504+47483+009550FM-15+0398LSZR V0209999C000010072019N0090001N1-00201-00601999999ADDGA1081+007201999GF108991999999999999999999MA1101391999999REMMET065METAR LSZR 110950Z 00000KT 9000 OVC024 M02/M06 Q1014 NOSIG RMK E;
0134066811999992010011110204+47483+009550FM-15+0398LSZR V0209999C000010072019N0090001N1-00201-00601999999ADDGA1081+007201999GF108991999999999999999999MA1101391999999REMMET065METAR LSZR 111020Z 00000KT 9000 OVC024 M02/M06 Q1014 NOSIG RMK E;
0157066811999992010011110504+47483+009550FM-15+0398LSZR V0209999C000010240019N0090001N1-00201-00601999999ADDGA1041+007201999GA2081+024001999GF108991999999999999999999MA1101391999999REMMET072METAR LSZR 111050Z 00000KT 9000 SCT024 OVC085 M02/M06 Q1014 NOSIG RMK F;
0157066811999992010011111204+47483+009550FM-15+0398LSZR V0209999V001010240019N0090001N1-00201-00601999999ADDGA1041+007201999GA2081+024001999GF108991999999999999999999MA1101391999999REMMET072METAR LSZR 111120Z VRB02KT 9000 SCT024 OVC085 M02/M06 Q1014 NOSIG RMK F;
0157066811999992010011111504+47483+009550FM-15+0398LSZR V0203101N001510066019N0090001N1-00201-00601999999ADDGA1071+006601999GA2081+021001999GF108991999999999999999999MA1101391999999REMMET072METAR LSZR 111150Z 31003KT 9000 BKN022 OVC070 M02/M06 Q1014 NOSIG RMK G;
0134066811999992010011112204+47483+009550FM-15+0398LSZR V0202801N002110066019N0090001N1-00201-00601999999ADDGA1081+006601999GF108991999999999999999999MA1101391999999REMMET065METAR LSZR 111220Z 28004KT 9000 OVC022 M02/M06 Q1014 NOSIG RMK G;
0160066811999992010011112504+47483+009550FM-15+0398LSZR V0202801N002110072019N0060001N1-00201-00601999999ADDGA1081+007201999GF108991999999999999999999MA1101391999999MW1511MW2711REMMET079METAR LSZR 111250Z 28004KT 240V300 6000 -DZSN OVC024 M02/M06 Q1014 NOSIG RMK H;
0152066811999992010011113204+47483+009550FM-15+0398LSZR V0202801N002110072019N0060001N1-00201-00501999999ADDGA1081+007201999GF108991999999999999999999MA1101391999999MW1511MW2711REMMET071METAR LSZR 111320Z 28004KT 6000 -DZSN OVC024 M02/M05 Q1014 NOSIG RMK H;
0166066811999992010011113504+47483+009550FM-15+0398LSZR V0202901N001510036019N0025001N1-00301-00401999999ADDGA1041+002401999GA2081+003601999GF108991999999999999999999MA1101391999999MW1731REMMET075METAR LSZR 111350Z 29003KT 2500 SN SCT008 OVC012 M03/M04 Q1014 NOSIG RMK I;
0166066811999992010011114204+47483+009550FM-15+0398LSZR V0203101N001010036019N0025001N1-00301-00401999999ADDGA1041+002401999GA2081+003601999GF108991999999999999999999MA1101391999999MW1731REMMET075METAR LSZR 111420Z 31002KT 2500 SN SCT008 OVC012 M03/M04 Q1014 NOSIG RMK I;
0166066811999992010011114504+47483+009550FM-15+0398LSZR V0209999V001010030019N0021001N1-00301-00301999999ADDGA1041+001801999GA2081+003001999GF108991999999999999999999MA1101391999999MW1731REMMET075METAR LSZR 111450Z VRB02KT 2100 SN SCT006 OVC010 M03/M03 Q1014 NOSIG RMK J;
0166066811999992010011115204+47483+009550FM-15+0398LSZR V0209999C000010030019N0021001N1-00301-00401999999ADDGA1041+001801999GA2081+003001999GF108991999999999999999999MA1101391999999MW1731REMMET075METAR LSZR 111520Z 00000KT 2100 SN SCT006 OVC010 M03/M04 Q1014 NOSIG RMK J;
0166066811999992010011115504+47483+009550FM-15+0398LSZR V0209999V000510030019N0021001N1-00301-00401999999ADDGA1041+001801999GA2081+003001999GF108991999999999999999999MA1101491999999MW1731REMMET075METAR LSZR 111550Z VRB01KT 2100 SN SCT006 OVC010 M03/M04 Q1015 NOSIG RMK K;
0166066811999992010011116204+47483+009550FM-15+0398LSZR V0209999V000510030019N0021001N1-00301-00401999999ADDGA1041+001801999GA2081+003001999GF108991999999999999999999MA1101491999999MW1731REMMET075METAR LSZR 111620Z VRB01KT 2100 SN SCT006 OVC010 M03/M04 Q1015 NOSIG RMK L;
0166066811999992010011116504+47483+009550FM-15+0398LSZR V0202401N000510030019N0021001N1-00301-00401999999ADDGA1041+001201999GA2081+003001999GF108991999999999999999999MA1101491999999MW1731REMMET075METAR LSZR 111650Z 24001KT 2100 SN SCT004 OVC010 M03/M04 Q1015 NOSIG RMK M;
0166066811999992010011117204+47483+009550FM-15+0398LSZR V0209999V000510030019N0021001N1-00301-00401999999ADDGA1041+001201999GA2081+003001999GF108991999999999999999999MA1101491999999MW1731REMMET075METAR LSZR 111720Z VRB01KT 2100 SN SCT004 OVC010 M03/M04 Q1015 NOSIG RMK M;
0166066811999992010011117504+47483+009550FM-15+0398LSZR V0209999V000510045019N0021001N1-00301-00401999999ADDGA1041+002401999GA2081+004501999GF108991999999999999999999MA1101591999999MW1731REMMET075METAR LSZR 111750Z VRB01KT 2100 SN SCT008 OVC015 M03/M04 Q1016 NOSIG RMK O;
0166066811999992010011118204+47483+009550FM-15+0398LSZR V0209999V000510045019N0021001N1-00301-00401999999ADDGA1041+002401999GA2081+004501999GF108991999999999999999999MA1101591999999MW1731REMMET075METAR LSZR 111820Z VRB01KT 2100 SN SCT008 OVC015 M03/M04 Q1016 NOSIG RMK O;
0166066811999992010011118504+47483+009550FM-15+0398LSZR V0209999C000010045019N0021001N1-00301-00401999999ADDGA1041+002401999GA2081+004501999GF108991999999999999999999MA1101591999999MW1731REMMET075METAR LSZR 111850Z 00000KT 2100 SN SCT008 OVC015 M03/M04 Q1016 NOSIG RMK Q;
0188066811999992010011119204+47483+009550FM-15+0398LSZR V0209999C000010045019N0014001N1-00301-00401999999ADDED199U20009GA1041+002401999GA2081+004501999GF108991999999999999999999MA1101591999999MW1731REMMET086METAR LSZR 111920Z 00000KT 1400 R10/P2000N SN SCT008 OVC015 M03/M04 Q1016 NOSIG RMK Q;
0167066811999992010011205204+47483+009550FM-15+0398LSZR V0209999V000510030019N0018001N1-00201-00401999999ADDGA1071+003001999GA2081+012901999GF108991999999999999999999MA1101591999999MW1711REMMET076METAR LSZR 120520Z VRB01KT 1800 -SN BKN010 OVC043 M02/M04 Q1016 NOSIG RMK A;
0167066811999992010011205504+47483+009550FM-15+0398LSZR V0209999C000010033019N0031001N1-00201-00401999999ADDGA1071+003301999GA2081+014101999GF108991999999999999999999MA1101591999999MW1711REMMET076METAR LSZR 120550Z 00000KT 3100 -SN BKN011 OVC047 M02/M04 Q1016 NOSIG RMK B;
0167066811999992010011206204+47483+009550FM-15+0398LSZR V0209999C000010033019N0031001N1-00301-00401999999ADDGA1071+003301999GA2081+013801999GF108991999999999999999999MA1101591999999MW1711REMMET076METAR LSZR 120620Z 00000KT 3100 -SN BKN011 OVC046 M03/M04 Q1016 NOSIG RMK C;
0167066811999992010011206504+47483+009550FM-15+0398LSZR V0209999C000010039019N0037001N1-00301-00401999999ADDGA1071+003901999GA2081+015001999GF108991999999999999999999MA1101491999999MW1711REMMET076METAR LSZR 120650Z 00000KT 3700 -SN BKN013 OVC050 M03/M04 Q1015 NOSIG RMK D;
0167066811999992010011207204+47483+009550FM-15+0398LSZR V0201001N000510150019N0030001N1-00301-00401999999ADDGA1041+003901999GA2081+015001999GF108991999999999999999999MA1101491999999MW1711REMMET076METAR LSZR 120720Z 10001KT 3000 -SN SCT013 OVC052 M03/M04 Q1015 NOSIG RMK E;
0190066811999992010011207504+47483+009550FM-15+0398LSZR V0201001N001010150019N0038001N1-00301-00401999999ADDGA1041+010801999GA2071+015001999GA3071+030001999GF107991999999999999999999MA1101491999999MW1711REMMET083METAR LSZR 120750Z 10002KT 3800 -SN SCT036 BKN056 BKN100 M03/M04 Q1015 NOSIG RMK F;
0180066811999992010011208204+47483+009550FM-15+0398LSZR V0209999V000510150019N0038001N1-00301-00401999999ADDGA1041+010801999GA2071+015001999GA3071+030001999GF107991999999999999999999MA1101491999999REMMET079METAR LSZR 120820Z VRB01KT 3800 SCT036 BKN056 BKN100 M03/M04 Q1015 NOSIG RMK F;
0180066811999992010011208504+47483+009550FM-15+0398LSZR V0201101N001010150019N0040001N1-00301-00401999999ADDGA1041+010801999GA2071+015001999GA3071+030001999GF107991999999999999999999MA1101391999999REMMET079METAR LSZR 120850Z 11002KT 4000 SCT036 BKN056 BKN100 M03/M04 Q1014 NOSIG RMK G;
0180066811999992010011209204+47483+009550FM-15+0398LSZR V0200901N001510150019N0040001N1-00201-00401999999ADDGA1041+010801999GA2071+015001999GA3071+030001999GF107991999999999999999999MA1101391999999REMMET079METAR LSZR 120920Z 09003KT 4000 SCT036 BKN056 BKN100 M02/M04 Q1014 NOSIG RMK G;
0157066811999992010011209504+47483+009550FM-15+0398LSZR V0201001N002610270019N0040001N1-00201-00401999999ADDGA1041+004501999GA2071+027001999GF107991999999999999999999MA1101391999999REMMET072METAR LSZR 120950Z 10005KT 4000 SCT015 BKN095 M02/M04 Q1014 NOSIG RMK H;
0157066811999992010011210204+47483+009550FM-15+0398LSZR V0201001N001510300019N0040001N1-00201-00401999999ADDGA1041+005701999GA2071+030001999GF107991999999999999999999MA1101291999999REMMET072METAR LSZR 121020Z 10003KT 4000 SCT019 BKN100 M02/M04 Q1013 NOSIG RMK I;
0157066811999992010011210504+47483+009550FM-15+0398LSZR V0200801N001510270019N0050001N1-00101-00401999999ADDGA1041+005701999GA2071+027001999GF107991999999999999999999MA1101291999999REMMET072METAR LSZR 121050Z 08003KT 5000 SCT019 BKN090 M01/M04 Q1013 NOSIG RMK I;
0157066811999992010011211204+47483+009550FM-15+0398LSZR V0200801N001510270019N0045001N1-00201-00401999999ADDGA1041+005701999GA2071+027001999GF107991999999999999999999MA1101191999999REMMET072METAR LSZR 121120Z 08003KT 4500 SCT019 BKN090 M02/M04 Q1012 NOSIG RMK I;
0143066811999992010011211504+47483+009550FM-15+0398LSZR V0200901N001512200019N0045001N1-00101-00401999999ADDGA1041+006001999GF104991999999999999999999MA1101081999999MW1101REMMET068METAR LSZR 121150Z 09003KT 4500 BR SCT020 M01/M04 Q1011 NOSIG RMK J;
0134066811999992010011212204+47483+009550FM-15+0398LSZR V0200801N000512200019N0060001N1-00101-00401999999ADDGA1041+006001999GF104991999999999999999999MA1101081999999REMMET065METAR LSZR 121220Z 08001KT 6000 SCT020 M01/M04 Q1011 NOSIG RMK K;
0134066811999992010011212504+47483+009550FM-15+0398LSZR V0202601N000512200019N0060001N1-00101-00401999999ADDGA1041+006001999GF104991999999999999999999MA1101081999999REMMET065METAR LSZR 121250Z 26001KT 6000 SCT020 M01/M04 Q1011 NOSIG RMK K;
0134066811999992010011213204+47483+009550FM-15+0398LSZR V0209999V001012200019N0060001N1+00001-00401999999ADDGA1041+006001999GF104991999999999999999999MA1101021999999REMMET065METAR LSZR 121320Z VRB02KT 6000 SCT020 M00/M04 Q1010 NOSIG RMK K;
0134066811999992010011213504+47483+009550FM-15+0398LSZR V0202301N001012200019N0060001N1+00001-00401999999ADDGA1041+006001999GF104991999999999999999999MA1101021999999REMMET065METAR LSZR 121350Z 23002KT 6000 SCT020 M00/M04 Q1010 NOSIG RMK L;
0134066811999992010011214204+47483+009550FM-15+0398LSZR V0202401N001012200019N0060001N1-00101-00401999999ADDGA1041+006001999GF104991999999999999999999MA1101021999999REMMET065METAR LSZR 121420Z 24002KT 6000 SCT020 M01/M04 Q1010 NOSIG RMK L;
0134066811999992010011214504+47483+009550FM-15+0398LSZR V0202301N001012200019N0060001N1-00101-00401999999ADDGA1041+006001999GF104991999999999999999999MA1101021999999REMMET065METAR LSZR 121450Z 23002KT 6000 SCT020 M01/M04 Q1010 NOSIG RMK M;
0134066811999992010011215204+47483+009550FM-15+0398LSZR V0201801N000512200019N0060001N1-00101-00401999999ADDGA1041+006001999GF104991999999999999999999MA1100911999999REMMET065METAR LSZR 121520Z 18001KT 6000 SCT020 M01/M04 Q1009 NOSIG RMK M;
0134066811999992010011215504+47483+009550FM-15+0398LSZR V0202101N001010048019N0060001N1-00101-00401999999ADDGA1071+004801999GF107991999999999999999999MA1100911999999REMMET065METAR LSZR 121550Z 21002KT 6000 BKN016 M01/M04 Q1009 NOSIG RMK N;
0134066811999992010011216204+47483+009550FM-15+0398LSZR V0209999V001010048019N0060001N1-00101-00401999999ADDGA1071+004801999GF107991999999999999999999MA1100811999999REMMET065METAR LSZR 121620Z VRB02KT 6000 BKN016 M01/M04 Q1008 NOSIG RMK O;
0143066811999992010011216504+47483+009550FM-15+0398LSZR V0209999V001010045019N0050001N1-00101-00401999999ADDGA1081+004501999GF108991999999999999999999MA1100811999999MW1101REMMET068METAR LSZR 121650Z VRB02KT 5000 BR OVC015 M01/M04 Q1008 NOSIG RMK O;
0143066811999992010011217204+47483+009550FM-15+0398LSZR V0201201N001010042019N0050001N1-00201-00401999999ADDGA1081+004201999GF108991999999999999999999MA1100711999999MW1101REMMET068METAR LSZR 121720Z 12002KT 5000 BR OVC014 M02/M04 Q1007 NOSIG RMK P;
0143066811999992010011217504+47483+009550FM-15+0398LSZR V0209999C000010042019N0045001N1-00301-00401999999ADDGA1081+004201999GF108991999999999999999999MA1100711999999MW1101REMMET068METAR LSZR 121750Z 00000KT 4500 BR OVC014 M03/M04 Q1007 NOSIG RMK P;
0143066811999992010011218204+47483+009550FM-15+0398LSZR V0202201N000510039019N0040001N1-00501-00601999999ADDGA1081+003901999GF108991999999999999999999MA1100711999999MW1101REMMET068METAR LSZR 121820Z 22001KT 4000 BR OVC013 M05/M06 Q1007 NOSIG RMK Q;
0143066811999992010011218504+47483+009550FM-15+0398LSZR V0202201N001010039019N0035001N1-00501-00601999999ADDGA1081+003901999GF108991999999999999999999MA1100711999999MW1101REMMET068METAR LSZR 121850Z 22002KT 3500 BR OVC013 M05/M06 Q1007 NOSIG RMK Q;
0143066811999992010011219204+47483+009550FM-15+0398LSZR V0201901N000510039019N0040001N1-00501-00601999999ADDGA1081+003901999GF108991999999999999999999MA1100711999999MW1101REMMET068METAR LSZR 121920Z 19001KT 4000 BR OVC013 M05/M06 Q1007 NOSIG RMK R;
0143066811999992010011305204+47483+009550FM-15+0398LSZR V0209999C000010030019N0045001N1-00301-00501999999ADDGA1081+003001999GF108991999999999999999999MA1100411999999MW1101REMMET068METAR LSZR 130520Z 00000KT 4500 BR OVC010 M03/M05 Q1004 NOSIG RMK A;
0143066811999992010011305504+47483+009550FM-15+0398LSZR V0209999C000010030019N0040001N1-00301-00401999999ADDGA1081+003001999GF108991999999999999999999MA1100411999999MW1101REMMET068METAR LSZR 130550Z 00000KT 4000 BR OVC010 M03/M04 Q1004 NOSIG RMK B;
0143066811999992010011306204+47483+009550FM-15+0398LSZR V0209999C000010030019N0045001N1-00301-00401999999ADDGA1081+003001999GF108991999999999999999999MA1100411999999MW1101REMMET068METAR LSZR 130620Z 00000KT 4500 BR OVC010 M03/M04 Q1004 NOSIG RMK C;
0143066811999992010011306504+47483+009550FM-15+0398LSZR V0202301N000510030019N0047001N1-00201-00401999999ADDGA1081+003001999GF108991999999999999999999MA1100511999999MW1101REMMET068METAR LSZR 130650Z 23001KT 4700 BR OVC010 M02/M04 Q1005 NOSIG RMK D;
0143066811999992010011307204+47483+009550FM-15+0398LSZR V0209999V001010030019N0043001N1-00201-00401999999ADDGA1081+003001999GF108991999999999999999999MA1100511999999MW1101REMMET068METAR LSZR 130720Z VRB02KT 4300 BR OVC010 M02/M04 Q1005 NOSIG RMK D;
0143066811999992010011307504+47483+009550FM-15+0398LSZR V0201101N001510030019N0047001N1-00201-00401999999ADDGA1081+003001999GF108991999999999999999999MA1100511999999MW1101REMMET068METAR LSZR 130750Z 11003KT 4700 BR OVC010 M02/M04 Q1005 NOSIG RMK E;
0134066811999992010011308204+47483+009550FM-15+0398LSZR V0201201N001010036019N0050001N1-00201-00401999999ADDGA1081+003601999GF108991999999999999999999MA1100511999999REMMET065METAR LSZR 130820Z 12002KT 5000 OVC012 M02/M04 Q1005 NOSIG RMK E;
0134066811999992010011308504+47483+009550FM-15+0398LSZR V0202601N000510036019N0050001N1-00201-00401999999ADDGA1081+003601999GF108991999999999999999999MA1100611999999REMMET065METAR LSZR 130850Z 26001KT 5000 OVC012 M02/M04 Q1006 NOSIG RMK F;
0134066811999992010011309204+47483+009550FM-15+0398LSZR V0209999V001010030019N0050001N1-00101-00401999999ADDGA1081+003001999GF108991999999999999999999MA1100611999999REMMET065METAR LSZR 130920Z VRB02KT 5000 OVC010 M01/M04 Q1006 NOSIG RMK F;
0134066811999992010011309504+47483+009550FM-15+0398LSZR V0203401N001510033019N0050001N1-00101-00401999999ADDGA1081+003301999GF108991999999999999999999MA1100711999999REMMET065METAR LSZR 130950Z 34003KT 5000 OVC011 M01/M04 Q1007 NOSIG RMK G;
0134066811999992010011310204+47483+009550FM-15+0398LSZR V0209999V000510030019N0050001N1-00101-00301999999ADDGA1081+003001999GF108991999999999999999999MA1100711999999REMMET065METAR LSZR 131020Z VRB01KT 5000 OVC010 M01/M03 Q1007 NOSIG RMK G;
0134066811999992010011310504+47483+009550FM-15+0398LSZR V0209999C000010030019N0050001N1-00101-00301999999ADDGA1081+003001999GF108991999999999999999999MA1100711999999REMMET065METAR LSZR 131050Z 00000KT 5000 OVC010 M01/M03 Q1007 NOSIG RMK H;
0145066811999992010011311204+47483+009550FM-15+0398LSZR V0209999C000010030019N0045001N1-00101-00301999999ADDGA1081+003001999GF108991999999999999999999MA1100711999999MW1161REMMET070METAR LSZR 131120Z 00000KT 4500 VCSH OVC010 M01/M03 Q1007 NOSIG RMK H;
0144066811999992010011311504+47483+009550FM-15+0398LSZR V0202701N000510033019N0031001N1-00101-00301999999ADDGA1081+003301999GF108991999999999999999999MA1100711999999MW1711REMMET069METAR LSZR 131150Z 27001KT 3100 -SN OVC011 M01/M03 Q1007 NOSIG RMK I;
0144066811999992010011312204+47483+009550FM-15+0398LSZR V0201001N000510036019N0033001N1-00101-00301999999ADDGA1081+003601999GF108991999999999999999999MA1100711999999MW1711REMMET069METAR LSZR 131220Z 10001KT 3300 -SN OVC012 M01/M03 Q1007 NOSIG RMK I;
0167066811999992010011312504+47483+009550FM-15+0398LSZR V0201001N001010105019N0040001N1-00101-00301999999ADDGA1041+003001999GA2081+010501999GF108991999999999999999999MA1100711999999MW1711REMMET076METAR LSZR 131250Z 10002KT 4000 -SN SCT010 OVC035 M01/M03 Q1007 NOSIG RMK J;
0167066811999992010011313204+47483+009550FM-15+0398LSZR V0201101N000510120019N0045001N1-00101-00301999999ADDGA1041+003001999GA2081+012001999GF108991999999999999999999MA1100711999999MW1711REMMET076METAR LSZR 131320Z 11001KT 4500 -SN SCT010 OVC040 M01/M03 Q1007 NOSIG RMK J;
0166066811999992010011313504+47483+009550FM-15+0398LSZR V0201001N001010096019N0030001N1-00101-00301999999ADDGA1041+003001999GA2081+009601999GF108991999999999999999999MA1100711999999MW1101REMMET075METAR LSZR 131350Z 10002KT 3000 BR SCT010 OVC032 M01/M03 Q1007 NOSIG RMK K;
0166066811999992010011314204+47483+009550FM-15+0398LSZR V0201001N001010036019N0027001N1-00101-00301999999ADDGA1071+003601999GA2081+011401999GF108991999999999999999999MA1100711999999MW1101REMMET075METAR LSZR 131420Z 10002KT 2700 BR BKN012 OVC038 M01/M03 Q1007 NOSIG RMK K;
0166066811999992010011314504+47483+009550FM-15+0398LSZR V0209999C000010036019N0027001N1-00101-00201999999ADDGA1071+003601999GA2081+011401999GF108991999999999999999999MA1100711999999MW1101REMMET075METAR LSZR 131450Z 00000KT 2700 BR BKN012 OVC038 M01/M02 Q1007 NOSIG RMK L;
0167066811999992010011315204+47483+009550FM-15+0398LSZR V0209999V000510120019N0025001N1-00101-00201999999ADDGA1041+003001999GA2081+012001999GF108991999999999999999999MA1100711999999MW1511REMMET076METAR LSZR 131520Z VRB01KT 2500 -DZ SCT010 OVC040 M01/M02 Q1007 NOSIG RMK L;
0190066811999992010011315504+47483+009550FM-15+0398LSZR V0201201N001010090019N0027001N1+00001-00201999999ADDGA1041+003001999GA2071+009001999GA3081+012901999GF108991999999999999999999MA1100711999999MW1771REMMET083METAR LSZR 131550Z 12002KT 2700 -SG SCT010 BKN030 OVC043 M00/M02 Q1007 NOSIG RMK M;
0190066811999992010011316204+47483+009550FM-15+0398LSZR V0201001N001510075019N0024001N1+00001-00201999999ADDGA1041+003001999GA2071+007501999GA3081+012901999GF108991999999999999999999MA1100711999999MW1771REMMET083METAR LSZR 131620Z 10003KT 2400 -SG SCT010 BKN025 OVC043 M00/M02 Q1007 NOSIG RMK M;
0168066811999992010011316504+47483+009550FM-15+0398LSZR V0201101N001510075019N0020001N1+00001-00201999999ADDGA1041+003001999GA2071+007501999GF107991999999999999999999MA1100811999999MW1571REMMET077METAR LSZR 131650Z 11003KT 2000 FZDZ SCT010 BKN025 M00/M02 Q1008 NOSIG RMK N;
0168066811999992010011317204+47483+009550FM-15+0398LSZR V0200901N001510060019N0018001N1+00001-00101999999ADDGA1041+003001999GA2071+006001999GF107991999999999999999999MA1100811999999MW1571REMMET077METAR LSZR 131720Z 09003KT 1800 FZDZ SCT010 BKN020 M00/M01 Q1008 NOSIG RMK O;
0167066811999992010011317504+47483+009550FM-15+0398LSZR V0201001N001010075019N0020001N1+00001-00101999999ADDGA1041+003001999GA2071+007501999GF107991999999999999999999MA1100811999999MW1571REMMET076METAR LSZR 131750Z 10002KT 2000 FZDZ SCT010 BKN025 00/M01 Q1008 NOSIG RMK O;
0168066811999992010011318204+47483+009550FM-15+0398LSZR V0209999C000010090019N0020001N1+00001-00101999999ADDGA1041+003001999GA2071+009001999GF107991999999999999999999MA1100811999999MW1571REMMET077METAR LSZR 131820Z 00000KT 2000 FZDZ SCT010 BKN030 M00/M01 Q1008 NOSIG RMK P;
0165066811999992010011318504+47483+009550FM-15+0398LSZR V0209999C000010090019N0020001N1+00001-00101999999ADDGA1041+003001999GA2071+009001999GF107991999999999999999999MA1100811999999MW1531REMMET074METAR LSZR 131850Z 00000KT 2000 DZ SCT010 BKN030 00/M01 Q1008 NOSIG RMK P;
0165066811999992010011319204+47483+009550FM-15+0398LSZR V0201001N001010075019N0025001N1+00001+00001999999ADDGA1041+003001999GA2071+007501999GF107991999999999999999999MA1100811999999MW1531REMMET074METAR LSZR 131920Z 10002KT 2500 DZ SCT010 BKN025 00/M00 Q1008 NOSIG RMK Q;
0155066811999992010011405204+47483+009550FM-15+0398LSZR V0209999C00001000151CN0004001N1+00101+00001999999ADDGA1091+000151999GF109991999999000251999999MA1100611999999MW1451REMMET080METAR LSZR 140520Z 00000KT 0400 R10/0900V1700U FG VV/// 01/00 Q1006 NOSIG RMK A;
0152066811999992010011405504+47483+009550FM-15+0398LSZR V0202701N000510015019N0040001N1+00101+00001999999ADDGA1081+001501999GF108991999999999999999999MA1100611999999MW1101MW2411REMMET071METAR LSZR 140550Z 27001KT 4000 BR BCFG OVC005 01/00 Q1006 NOSIG RMK B;
0153066811999992010011406204+47483+009550FM-15+0398LSZR V0209999V000510018019N0044001N1+00101+00001999999ADDGA1081+001801999GF108991999999999999999999MA1100611999999MW1101MW2411REMMET072METAR LSZR 140620Z VRB01KT 4400 BR BCFG OVC006 01/M00 Q1006 NOSIG RMK C;
0142066811999992010011406504+47483+009550FM-15+0398LSZR V0201001N001010018019N0037001N1+00001+00001999999ADDGA1081+001801999GF108991999999999999999999MA1100611999999MW1101REMMET067METAR LSZR 140650Z 10002KT 3700 BR OVC006 00/M00 Q1006 NOSIG RMK D;
0157066811999992010011407204+47483+009550FM-15+0398LSZR V0200901N00211000151CN0010001N1+00001-00101999999ADDGA1091+000151999GF109991999999000251999999MA1100611999999MW1451REMMET082METAR LSZR 140720Z 09004KT 1000 R10/1100V1400D FG VV/// M00/M01 Q1006 NOSIG RMK E;
0157066811999992010011407504+47483+009550FM-15+0398LSZR V0200901N00151000151CN0002501N1+00001-00101999999ADDGA1091+000151999GF109991999999000251999999MA1100611999999MW1451REMMET082METAR LSZR 140750Z 09003KT 0250 R10/0275V0500D FG VV/// M00/M01 Q1006 NOSIG RMK F;
0165066811999992010011408204+47483+009550FM-15+0398LSZR V0200901N00211000151CN0001501N1-00101-00201999999ADDED199U03009GA1091+000151999GF109991999999000251999999MA1100611999999MW1491REMMET079METAR LSZR 140820Z 09004KT 0150 R10/0300N FZFG VV/// M01/M02 Q1006 NOSIG RMK G;
0165066811999992010011408504+47483+009550FM-15+0398LSZR V0200901N00211000151CN0001001N1-00201-00201999999ADDED199U02259GA1091+000151999GF109991999999000251999999MA1100611999999MW1491REMMET079METAR LSZR 140850Z 09004KT 0100 R10/0225N FZFG VV/// M02/M02 Q1006 NOSIG RMK G;
0159066811999992010011409204+47483+009550FM-15+0398LSZR V0200801N00101000151CN0001501N1-00201-00201999999ADDGA1091+000151999GF109991999999000251999999MA1100611999999MW1491REMMET084METAR LSZR 140920Z 08002KT 0150 R10/0225V0325D FZFG VV/// M02/M02 Q1006 NOSIG RMK H;
0165066811999992010011409504+47483+009550FM-15+0398LSZR V0200901N00051000151CN0001501N1-00101-00201999999ADDED199U03009GA1091+000151999GF109991999999000251999999MA1100611999999MW1491REMMET079METAR LSZR 140950Z 09001KT 0150 R10/0300N FZFG VV/// M01/M02 Q1006 NOSIG RMK H;
0165066811999992010011410204+47483+009550FM-15+0398LSZR V0209999C00001000151CN0003001N1+00001-00101999999ADDED199U04509GA1091+000151999GF109991999999000251999999MA1100611999999MW1491REMMET079METAR LSZR 141020Z 00000KT 0300 R10/0450N FZFG VV/// M00/M01 Q1006 NOSIG RMK I;
0142066811999992010011410504+47483+009550FM-15+0398LSZR V0209999V001010009019N0022001N1+00101+00001999999ADDGA1071+000901999GF107991999999999999999999MA1100511999999MW1101REMMET067METAR LSZR 141050Z VRB02KT 2200 BR BKN003 01/M00 Q1005 NOSIG RMK J;
0142066811999992010011411204+47483+009550FM-15+0398LSZR V0202801N002110009019N0025001N1+00101+00001999999ADDGA1071+000901999GF107991999999999999999999MA1100511999999MW1101REMMET067METAR LSZR 141120Z 28004KT 2500 BR BKN003 01/M00 Q1005 NOSIG RMK J;
0142066811999992010011411504+47483+009550FM-15+0398LSZR V0202701N001510015019N0037001N1+00101+00001999999ADDGA1071+001501999GF107991999999999999999999MA1100511999999MW1101REMMET067METAR LSZR 141150Z 27003KT 3700 BR BKN005 01/M00 Q1005 NOSIG RMK K;
0133066811999992010011412204+47483+009550FM-15+0398LSZR V0202801N001512200019N0060001N1+00101+00001999999ADDGA1041+002101999GF104991999999999999999999MA1100411999999REMMET064METAR LSZR 141220Z 28003KT 6000 SCT007 01/M00 Q1004 NOSIG RMK L;
0113066811999992010011412504+47483+009550FM-15+0398LSZR V0202901N002612200019N0090001N1+00201+00001999999ADDGF100991999999999999999999MA1100411999999REMMET060METAR LSZR 141250Z 29005KT 9000 NSC 02/00 Q1004 NOSIG RMK M;
0113066811999992010011413204+47483+009550FM-15+0398LSZR V0202901N002112200019N0090001N1+00201+00001999999ADDGF100991999999999999999999MA1100411999999REMMET060METAR LSZR 141320Z 29004KT 9000 NSC 02/00 Q1004 NOSIG RMK M;
0132066811999992010011413504+47483+009550FM-15+0398LSZR V0202801N002112200019N0112651N1+00201+00001999999ADDGA1021+004501999GF102991999999999999999999MA1100411999999REMMET063METAR LSZR 141350Z 28004KT 9999 FEW015 02/00 Q1004 NOSIG RMK N;
0133066811999992010011414204+47483+009550FM-15+0398LSZR V0202801N002612200019N0112651N1+00201+00001999999ADDGA1021+004501999GF102991999999999999999999MA1100411999999REMMET064METAR LSZR 141420Z 28005KT 9999 FEW015 02/M00 Q1004 NOSIG RMK N;
0133066811999992010011414504+47483+009550FM-15+0398LSZR V0202801N003112200019N0112651N1+00201+00001999999ADDGA1021+004501999GF102991999999999999999999MA1100411999999REMMET064METAR LSZR 141450Z 28006KT 9999 FEW015 02/M00 Q1004 NOSIG RMK O;
0140066811999992010011415204+47483+009550FM-15+0398LSZR V0202601N001012200019N0080001N1+00201+00001999999ADDGA1041+004201999GF104991999999999999999999MA1100411999999REMMET071METAR LSZR 141520Z 26002KT 8000 SCT014 02/M00 Q1004 BECMG BKN014 RMK P;
0132066811999992010011415504+47483+009550FM-15+0398LSZR V0202601N002110039019N0080001N1+00301+00001999999ADDGA1071+003901999GF107991999999999999999999MA1100511999999REMMET063METAR LSZR 141550Z 26004KT 8000 BKN013 03/00 Q1005 NOSIG RMK Q;
0132066811999992010011416204+47483+009550FM-15+0398LSZR V0202601N002610042019N0080001N1+00301+00001999999ADDGA1071+004201999GF107991999999999999999999MA1100511999999REMMET063METAR LSZR 141620Z 26005KT 8000 BKN014 03/00 Q1005 NOSIG RMK Q;
0155066811999992010011416504+47483+009550FM-15+0398LSZR V0202501N002110042019N0070001N1+00301+00001999999ADDGA1021+002701999GA2071+004201999GF107991999999999999999999MA1100511999999REMMET070METAR LSZR 141650Z 25004KT 7000 FEW009 BKN014 03/00 Q1005 NOSIG RMK R;
0155066811999992010011417204+47483+009550FM-15+0398LSZR V0202701N001510033019N0080001N1+00301+00101999999ADDGA1021+002701999GA2071+003301999GF107991999999999999999999MA1100611999999REMMET070METAR LSZR 141720Z 27003KT 8000 FEW009 BKN011 03/01 Q1006 NOSIG RMK S;
0155066811999992010011417504+47483+009550FM-15+0398LSZR V0209999V001010039019N0080001N1+00301+00101999999ADDGA1041+002701999GA2071+003901999GF107991999999999999999999MA1100611999999REMMET070METAR LSZR 141750Z VRB02KT 8000 SCT009 BKN013 03/01 Q1006 NOSIG RMK T;
0155066811999992010011418204+47483+009550FM-15+0398LSZR V0209999V001010039019N0080001N1+00301+00001999999ADDGA1041+002701999GA2071+003901999GF107991999999999999999999MA1100711999999REMMET070METAR LSZR 141820Z VRB02KT 8000 SCT009 BKN013 03/00 Q1007 NOSIG RMK U;
0155066811999992010011418504+47483+009550FM-15+0398LSZR V0209999V001010033019N0080001N1+00201+00001999999ADDGA1041+002701999GA2071+003301999GF107991999999999999999999MA1100711999999REMMET070METAR LSZR 141850Z VRB02KT 8000 SCT009 BKN011 02/00 Q1007 NOSIG RMK V;
0155066811999992010011419204+47483+009550FM-15+0398LSZR V0209999V001010033019N0080001N1+00201+00001999999ADDGA1041+002701999GA2071+003301999GF107991999999999999999999MA1100711999999REMMET070METAR LSZR 141920Z VRB02KT 8000 SCT009 BKN011 02/00 Q1007 NOSIG RMK V;
0133066811999992010011505204+47483+009550FM-15+0398LSZR V0202801N001010045019N0090001N1+00101-00201999999ADDGA1081+004501999GF108991999999999999999999MA1101591999999REMMET064METAR LSZR 150520Z 28002KT 9000 OVC015 01/M02 Q1016 NOSIG RMK A;
0133066811999992010011505504+47483+009550FM-15+0398LSZR V0202601N000510048019N0090001N1+00101-00201999999ADDGA1081+004801999GF108991999999999999999999MA1101591999999REMMET064METAR LSZR 150550Z 26001KT 9000 OVC016 01/M02 Q1016 NOSIG RMK A;
0133066811999992010011506204+47483+009550FM-15+0398LSZR V0209999C000010048019N0090001N1+00101-00201999999ADDGA1081+004801999GF108991999999999999999999MA1101691999999REMMET064METAR LSZR 150620Z 00000KT 9000 OVC016 01/M02 Q1017 NOSIG RMK B;
0133066811999992010011506504+47483+009550FM-15+0398LSZR V0209999C000010051019N0090001N1+00101-00201999999ADDGA1081+005101999GF108991999999999999999999MA1101801999999REMMET064METAR LSZR 150650Z 00000KT 9000 OVC017 01/M02 Q1018 NOSIG RMK C;
0133066811999992010011507204+47483+009550FM-15+0398LSZR V0200901N001010051019N0090001N1+00101-00101999999ADDGA1081+005101999GF108991999999999999999999MA1101801999999REMMET064METAR LSZR 150720Z 09002KT 9000 OVC017 01/M01 Q1018 NOSIG RMK C;
0133066811999992010011507504+47483+009550FM-15+0398LSZR V0209999V001010048019N0090001N1+00101-00101999999ADDGA1081+004801999GF108991999999999999999999MA1101801999999REMMET064METAR LSZR 150750Z VRB02KT 9000 OVC016 01/M01 Q1018 NOSIG RMK D;
0133066811999992010011508204+47483+009550FM-15+0398LSZR V0209999V001010054019N0070001N1+00101-00201999999ADDGA1071+005401999GF107991999999999999999999MA1101901999999REMMET064METAR LSZR 150820Z VRB02KT 7000 BKN018 01/M02 Q1019 NOSIG RMK E;
0133066811999992010011508504+47483+009550FM-15+0398LSZR V0201801N001510054019N0070001N1+00101-00301999999ADDGA1071+005401999GF107991999999999999999999MA1101901999999REMMET064METAR LSZR 150850Z 18003KT 7000 BKN018 01/M03 Q1019 NOSIG RMK E;
0133066811999992010011509204+47483+009550FM-15+0398LSZR V0201201N001510060019N0090001N1+00101-00201999999ADDGA1071+006001999GF107991999999999999999999MA1101901999999REMMET064METAR LSZR 150920Z 12003KT 9000 BKN020 01/M02 Q1019 NOSIG RMK F;
0133066811999992010011510204+47483+009550FM-15+0398LSZR V0200901N001010060019N0090001N1+00101-00201999999ADDGA1071+006001999GF107991999999999999999999MA1102001999999REMMET064METAR LSZR 151020Z 09002KT 9000 BKN020 01/M02 Q1020 NOSIG RMK G;
0133066811999992010011510504+47483+009550FM-15+0398LSZR V0209999V001010057019N0090001N1+00201-00201999999ADDGA1071+005701999GF107991999999999999999999MA1102001999999REMMET064METAR LSZR 151050Z VRB02KT 9000 BKN019 02/M02 Q1020 NOSIG RMK H;
0141066811999992010011511204+47483+009550FM-15+0398LSZR V0203301N001510057019N0090001N1+00201-00201999999ADDGA1071+005701999GF107991999999999999999999MA1102001999999REMMET072METAR LSZR 151120Z 33003KT 280V040 9000 BKN019 02/M02 Q1020 NOSIG RMK H;
0133066811999992010011511504+47483+009550FM-15+0398LSZR V0202801N002110057019N0090001N1+00201-00201999999ADDGA1071+005701999GF107991999999999999999999MA1102101999999REMMET064METAR LSZR 151150Z 28004KT 9000 BKN019 02/M02 Q1021 NOSIG RMK I;
0133066811999992010011512204+47483+009550FM-15+0398LSZR V0202801N001010054019N0090001N1+00201-00201999999ADDGA1071+005401999GF107991999999999999999999MA1102101999999REMMET064METAR LSZR 151220Z 28002KT 9000 BKN018 02/M02 Q1021 NOSIG RMK I;
0133066811999992010011512504+47483+009550FM-15+0398LSZR V0209999C000010054019N0080001N1+00201-00201999999ADDGA1071+005401999GF107991999999999999999999MA1102101999999REMMET064METAR LSZR 151250Z 00000KT 8000 BKN018 02/M02 Q1021 NOSIG RMK J;
0133066811999992010011513204+47483+009550FM-15+0398LSZR V0209999V000510054019N0080001N1+00201-00201999999ADDGA1071+005401999GF107991999999999999999999MA1102101999999REMMET064METAR LSZR 151320Z VRB01KT 8000 BKN018 02/M02 Q1021 NOSIG RMK J;
0133066811999992010011514504+47483+009550FM-15+0398LSZR V0209999C000010054019N0080001N1+00201-00201999999ADDGA1071+005401999GF107991999999999999999999MA1102201999999REMMET064METAR LSZR 151450Z 00000KT 8000 BKN018 02/M02 Q1022 NOSIG RMK L;
0133066811999992010011515204+47483+009550FM-15+0398LSZR V0209999C000010054019N0080001N1+00201-00201999999ADDGA1071+005401999GF107991999999999999999999MA1102301999999REMMET064METAR LSZR 151520Z 00000KT 8000 BKN018 02/M02 Q1023 NOSIG RMK M;
0133066811999992010011515504+47483+009550FM-15+0398LSZR V0201201N000510054019N0070001N1+00201-00201999999ADDGA1071+005401999GF107991999999999999999999MA1102301999999REMMET064METAR LSZR 151550Z 12001KT 7000 BKN018 02/M02 Q1023 NOSIG RMK M;
0133066811999992010011516204+47483+009550FM-15+0398LSZR V0201401N001010054019N0070001N1+00201-00101999999ADDGA1071+005401999GF107991999999999999999999MA1102301999999REMMET064METAR LSZR 151620Z 14002KT 7000 BKN018 02/M01 Q1023 NOSIG RMK N;
0133066811999992010011516504+47483+009550FM-15+0398LSZR V0201501N001010054019N0070001N1+00201-00201999999ADDGA1071+005401999GF107991999999999999999999MA1102301999999REMMET064METAR LSZR 151650Z 15002KT 7000 BKN018 02/M02 Q1023 NOSIG RMK N;
0133066811999992010011517204+47483+009550FM-15+0398LSZR V0201401N001510054019N0070001N1+00201-00201999999ADDGA1071+005401999GF107991999999999999999999MA1102301999999REMMET064METAR LSZR 151720Z 14003KT 7000 BKN018 02/M02 Q1023 NOSIG RMK O;
0133066811999992010011517504+47483+009550FM-15+0398LSZR V0201401N001510054019N0070001N1+00201-00101999999ADDGA1071+005401999GF107991999999999999999999MA1102401999999REMMET064METAR LSZR 151750Z 14003KT 7000 BKN018 02/M01 Q1024 NOSIG RMK P;
0133066811999992010011518204+47483+009550FM-15+0398LSZR V0201401N001010054019N0070001N1+00201-00201999999ADDGA1071+005401999GF107991999999999999999999MA1102401999999REMMET064METAR LSZR 151820Z 14002KT 7000 BKN018 02/M02 Q1024 NOSIG RMK P;
0133066811999992010011519204+47483+009550FM-15+0398LSZR V0209999V001010054019N0060001N1+00101-00201999999ADDGA1071+005401999GF107991999999999999999999MA1102401999999REMMET064METAR LSZR 151920Z VRB02KT 6000 BKN018 01/M02 Q1024 NOSIG RMK Q;
0166066811999992010011606204+47483+009550FM-15+0398LSZR V0200901N001010030019N0016001N1-00401-00501999999ADDGA1041+000601999GA2071+003001999GF107991999999999999999999MA1102201999999MW1101REMMET075METAR LSZR 160620Z 09002KT 1600 BR SCT002 BKN010 M04/M05 Q1022 NOSIG RMK A;
0183066811999992010011606504+47483+009550FM-15+0398LSZR V0201201N002110009019N0005001N1-00401-00401999999ADDGA1041+000601999GA2081+000901999GF108991999999999999999999MA1102201999999MW1481REMMET092METAR LSZR 160650Z 12004KT 0500 R10/1000V1400U FZFG SCT002 OVC003 M04/M04 Q1022 NOSIG RMK B;
0166066811999992010011607204+47483+009550FM-15+0398LSZR V0201201N001510036019N0050001N1-00401-00501999999ADDGA1041+001201999GA2081+003601999GF108991999999999999999999MA1102201999999MW1101REMMET075METAR LSZR 160720Z 12003KT 5000 BR SCT004 OVC012 M04/M05 Q1022 NOSIG RMK C;
0166066811999992010011607504+47483+009550FM-15+0398LSZR V0201601N001510036019N0045001N1-00401-00501999999ADDGA1041+001201999GA2081+003601999GF108991999999999999999999MA1102201999999MW1101REMMET075METAR LSZR 160750Z 16003KT 4500 BR SCT004 OVC012 M04/M05 Q1022 NOSIG RMK C;
0166066811999992010011608204+47483+009550FM-15+0398LSZR V0201301N001510030019N0035001N1-00301-00401999999ADDGA1041+001801999GA2081+003001999GF108991999999999999999999MA1102201999999MW1101REMMET075METAR LSZR 160820Z 13003KT 3500 BR SCT006 OVC010 M03/M04 Q1022 NOSIG RMK D;
0166066811999992010011608504+47483+009550FM-15+0398LSZR V0201001N002610018019N0035001N1-00301-00401999999ADDGA1041+000901999GA2081+001801999GF108991999999999999999999MA1102101999999MW1101REMMET075METAR LSZR 160850Z 10005KT 3500 BR SCT003 OVC006 M03/M04 Q1021 NOSIG RMK E;
0174066811999992010011609204+47483+009550FM-15+0398LSZR V0201001N001510018019N0039001N1-00301-00401999999ADDGA1041+000901999GA2081+001801999GF108991999999999999999999MA1102101999999MW1101REMMET083METAR LSZR 160920Z 10003KT 070V140 3900 BR SCT003 OVC006 M03/M04 Q1021 NOSIG RMK E;
0178066811999992010011609504+47483+009550FM-15+0398LSZR V0201001N001510018019N0040001N1-00301-00501999999ADDGA1041+001201999GA2071+001801999GF107991999999999999999999MA1102001999999MW1101REMMET087METAR LSZR 160950Z 10003KT 4000 BR SCT004 BKN006 M03/M05 Q1020 BECMG 6000 SCT006 RMK F;
0178066811999992010011610204+47483+009550FM-15+0398LSZR V0201001N001010018019N0040001N1-00301-00501999999ADDGA1041+001201999GA2071+001801999GF107991999999999999999999MA1102001999999MW1101REMMET087METAR LSZR 161020Z 10002KT 4000 BR SCT004 BKN006 M03/M05 Q1020 BECMG 6000 SCT006 RMK F;
0134066811999992010011610504+47483+009550FM-15+0398LSZR V0202901N001010030019N0060001N1-00301-00401999999ADDGA1071+003001999GF107991999999999999999999MA1102001999999REMMET065METAR LSZR 161050Z 29002KT 6000 BKN010 M03/M04 Q1020 NOSIG RMK G;
0134066811999992010011611204+47483+009550FM-15+0398LSZR V0209999C000010027019N0060001N1-00201-00401999999ADDGA1071+002701999GF107991999999999999999999MA1101901999999REMMET065METAR LSZR 161120Z 00000KT 6000 BKN009 M02/M04 Q1019 NOSIG RMK G;
0134066811999992010011611504+47483+009550FM-15+0398LSZR V0209999V001010027019N0060001N1-00201-00401999999ADDGA1081+002701999GF108991999999999999999999MA1101901999999REMMET065METAR LSZR 161150Z VRB02KT 6000 OVC009 M02/M04 Q1019 NOSIG RMK H;
0134066811999992010011612204+47483+009550FM-15+0398LSZR V0202901N003110027019N0060001N1-00101-00301999999ADDGA1081+002701999GF108991999999999999999999MA1101901999999REMMET065METAR LSZR 161220Z 29006KT 6000 OVC009 M01/M03 Q1019 NOSIG RMK H;
0134066811999992010011612504+47483+009550FM-15+0398LSZR V0203001N004610030019N0060001N1-00101-00301999999ADDGA1081+003001999GF108991999999999999999999MA1101901999999REMMET065METAR LSZR 161250Z 30009KT 6000 OVC010 M01/M03 Q1019 NOSIG RMK I;
0142066811999992010011613204+47483+009550FM-15+0398LSZR V0203101N002610030019N0060001N1-00101-00301999999ADDGA1081+003001999GF108991999999999999999999MA1101801999999REMMET073METAR LSZR 161320Z 31005KT 290V350 6000 OVC010 M01/M03 Q1018 NOSIG RMK J;
0142066811999992010011613504+47483+009550FM-15+0398LSZR V0202801N002610030019N0060001N1-00101-00301999999ADDGA1081+003001999GF108991999999999999999999MA1101801999999REMMET073METAR LSZR 161350Z 28005KT 250V320 6000 OVC010 M01/M03 Q1018 NOSIG RMK J;
0134066811999992010011614204+47483+009550FM-15+0398LSZR V0203001N003610030019N0060001N1+00001-00301999999ADDGA1081+003001999GF108991999999999999999999MA1101901999999REMMET065METAR LSZR 161420Z 30007KT 6000 OVC010 M00/M03 Q1019 NOSIG RMK K;
0134066811999992010011614504+47483+009550FM-15+0398LSZR V0200101N000510030019N0060001N1-00101-00301999999ADDGA1081+003001999GF108991999999999999999999MA1101901999999REMMET065METAR LSZR 161450Z 01001KT 6000 OVC010 M01/M03 Q1019 NOSIG RMK K;
0134066811999992010011615204+47483+009550FM-15+0398LSZR V0209999V000510030019N0060001N1-00101-00301999999ADDGA1081+003001999GF108991999999999999999999MA1101801999999REMMET065METAR LSZR 161520Z VRB01KT 6000 OVC010 M01/M03 Q1018 NOSIG RMK L;
0134066811999992010011615504+47483+009550FM-15+0398LSZR V0200701N001510030019N0060001N1-00101-00301999999ADDGA1081+003001999GF108991999999999999999999MA1101801999999REMMET065METAR LSZR 161550Z 07003KT 6000 OVC010 M01/M03 Q1018 NOSIG RMK L;
0134066811999992010011616204+47483+009550FM-15+0398LSZR V0200801N001510030019N0060001N1-00101-00301999999ADDGA1081+003001999GF108991999999999999999999MA1101801999999REMMET065METAR LSZR 161620Z 08003KT 6000 OVC010 M01/M03 Q1018 NOSIG RMK M;
0134066811999992010011616504+47483+009550FM-15+0398LSZR V0209999V001010030019N0050001N1-00201-00301999999ADDGA1071+003001999GF107991999999999999999999MA1101691999999REMMET065METAR LSZR 161650Z VRB02KT 5000 BKN010 M02/M03 Q1017 NOSIG RMK N;
0143066811999992010011617504+47483+009550FM-15+0398LSZR V0202701N001010030019N0047001N1-00101-00301999999ADDGA1071+003001999GF107991999999999999999999MA1101691999999MW1101REMMET068METAR LSZR 161750Z 27002KT 4700 BR BKN010 M01/M03 Q1017 NOSIG RMK O;
0188066811999992010011709204+47483+009550FM-15+0398LSZR V0209999V00101012001CN0112651N1+00401+00301999999ADDGA1021+007501999GA2041+012001999GA3071+021001999GF107991999999999999999999MA1101591999999MW1511REMMET081METAR LSZR 170920Z VRB02KT 9999 -DZ FEW025 SCT040 BKN070 04/03 Q1016 NOSIG RMK B;
0178066811999992010011709504+47483+009550FM-15+0398LSZR V0209999V00101012001CN0112651N1+00501+00301999999ADDGA1021+006001999GA2041+012001999GA3071+021001999GF107991999999999999999999MA1101691999999REMMET077METAR LSZR 170950Z VRB02KT 9999 FEW020 SCT040 BKN070 05/03 Q1017 NOSIG RMK C;
0178066811999992010011710204+47483+009550FM-15+0398LSZR V0200901N00101010501CN0112651N1+00501+00201999999ADDGA1021+006001999GA2041+010501999GA3071+013501999GF107991999999999999999999MA1101691999999REMMET077METAR LSZR 171020Z 09002KT 9999 FEW020 SCT035 BKN045 05/02 Q1017 NOSIG RMK C;
0178066811999992010011710504+47483+009550FM-15+0398LSZR V0209999V00151012001CN0112651N1+00701+00201999999ADDGA1021+009001999GA2041+012001999GA3071+018001999GF107991999999999999999999MA1101801999999REMMET077METAR LSZR 171050Z VRB03KT 9999 FEW030 SCT040 BKN060 07/02 Q1018 NOSIG RMK D;
0155066811999992010011711204+47483+009550FM-15+0398LSZR V0202701N005110150019N0112651N1+00701+00201999999ADDGA1021+009001999GA2071+015001999GF107991999999999999999999MA1101691999999REMMET070METAR LSZR 171120Z 27010KT 9999 FEW030 BKN050 07/02 Q1017 NOSIG RMK E;
0174066811999992010011711504+47483+009550FM-15+0398LSZR V0202501N005110150019N0112651N1+00901+00101999999ADDGA1021+009001999GA2071+015001999GF107991999999999999999999MA1101801999999OC101081REMMET081METAR LSZR 171150Z 25010G21KT 200V290 9999 FEW030 BKN050 09/01 Q1018 NOSIG RMK F;
0163066811999992010011712204+47483+009550FM-15+0398LSZR V0202601N005110150019N0112651N1+00901+00101999999ADDGA1021+009001999GA2071+015001999GF107991999999999999999999MA1101801999999REMMET078METAR LSZR 171220Z 26010KT 220V290 9999 FEW030 BKN050 09/01 Q1018 NOSIG RMK F;
0174066811999992010011712504+47483+009550FM-15+0398LSZR V0202601N005710135019N0112651N1+00801+00101999999ADDGA1021+009001999GA2071+013501999GF107991999999999999999999MA1101801999999MW1161REMMET083METAR LSZR 171250Z 26011KT 220V290 9999 VCSH FEW030 BKN045 08/01 Q1018 NOSIG RMK G;
0174066811999992010011713204+47483+009550FM-15+0398LSZR V0202601N004110150019N0112651N1+00701+00201999999ADDGA1021+009001999GA2071+015001999GF107991999999999999999999MA1101901999999MW1161REMMET083METAR LSZR 171320Z 26008KT 220V290 9999 VCSH FEW030 BKN050 07/02 Q1019 NOSIG RMK H;
