0137066890999992010010100004+47367+008950FM-12+114499999V0202901N002619999999N9999999N1+00201+00061999999ADDMA1999999086401MD1810121+9999ME1312669OA149900931REMSYN076AAXX  01004 06689 33/// /2905 10020 20006 38640 48266 58012 333 91118 91213;
0137066890999992010010101004+47367+008950FM-12+114499999V0209999C000019999999N9999999N1+00231+00041999999ADDMA1999999086361MD1810131+9999ME1312629OA149900361REMSYN076AAXX  01014 06689 33/// /0000 10023 20004 38636 48262 58013 333 91107 91206;
0137066890999992010010102004+47367+008950FM-12+114499999V0202801N002119999999N9999999N1+00231+00101999999ADDMA1999999086361MD1719999+9999ME1312629OA149900261REMSYN076AAXX  01024 06689 33/// /2804 10023 20010 38636 48262 57/// 333 91105 91205;
0096066890999992010010103004+47367+008950FM-12+114499999V0200801N001519999999N9999999N1+00211+00101999999ADDMA1999999086291ME1312569REMSYN060AAXX  01034 06689 43/// /0803 10021 20010 38629 48256 5////;
0096066890999992010010104004+47367+008950FM-12+114499999V0201001N002619999999N9999999N1+00201+00081999999ADDMA1999999086251ME1312529REMSYN060AAXX  01044 06689 33/// /1005 10020 20008 38625 48252 5////;
0137066890999992010010105004+47367+008950FM-12+114499999V0201001N003619999999N9999999N1+00191+00051999999ADDMA1999999086211MD1610151+9999ME1312489OA149900411REMSYN076AAXX  01054 06689 33/// /1007 10019 20005 38621 48248 56015 333 91108 91207;
0197066890999992010010106004+47367+008950FM-12+114499999V0201001N003119999999N9999999N1+00211+00031999999ADDAA124004191AL19900491GJ100009KA1999N+00171MA1999999086191MD1610101+9999ME1312469OA149900881REMSYN094AAXX  01064 06689 33/// /1006 10021 20003 38619 48246 56010 333 20017 55000 70040 91117 91213;
0137066890999992010010107004+47367+008950FM-12+114499999V0200801N001519999999N9999999N1+00171+00031999999ADDMA1999999086181MD1710071+9999ME1312459OA149900461REMSYN076AAXX  01074 06689 33/// /0803 10017 20003 38618 48245 57007 333 91109 91207;
0137066890999992010010108004+47367+008950FM-12+114499999V0200901N002619999999N9999999N1+00141+00031999999ADDMA1999999086201MD1510011+9999ME1312479OA149900361REMSYN076AAXX  01084 06689 33/// /0905 10014 20003 38620 48247 55001 333 91107 91206;
0137066890999992010010109004+47367+008950FM-12+114499999V0200801N002119999999N9999999N1+00181+00031999999ADDMA1999999086231MD1310041+9999ME1312509OA149900461REMSYN076AAXX  01094 06689 33/// /0804 10018 20003 38623 48250 53004 333 91109 91207;
0137066890999992010010110004+47367+008950FM-12+114499999V0200701N001019999999N9999999N1+00151+00071999999ADDMA1999999086291MD1310111+9999ME1312559OA149900361REMSYN076AAXX  01104 06689 33/// /0702 10015 20007 38629 48255 53011 333 91107 91205;
0137066890999992010010111004+47367+008950FM-12+114499999V0200501N002119999999N9999999N1+00151+00131999999ADDMA1999999086301MD1110101+9999ME1312569OA149900411REMSYN076AAXX  01114 06689 33/// /0504 10015 20013 38630 48256 51010 333 91108 91205;
0137066890999992010010112004+47367+008950FM-12+114499999V0200401N002619999999N9999999N1+00111+00111999999ADDMA1999999086301MD1110071+9999ME1312569OA149900511REMSYN076AAXX  01124 06689 33/// /0405 10011 20011 38630 48256 51007 333 91110 91207;
0137066890999992010010113004+47367+008950FM-12+114499999V0200701N001519999999N9999999N1+00121+00101999999ADDMA1999999086331MD1310041+9999ME1312599OA149900511REMSYN076AAXX  01134 06689 33/// /0703 10012 20010 38633 48259 53004 333 91110 91206;
0154066890999992010010114004+47367+008950FM-12+114499999V0200501N000519999999N9999999N1+00091+00071999999ADDAA101000021MA1999999086401MD1319999+9999ME1312659OA149900511REMSYN082AAXX  01144 06689 23/// /0501 10009 20007 38640 48265 53/// 333 69915 91110 91206;
0154066890999992010010115004+47367+008950FM-12+114499999V0200601N001519999999N9999999N1-00011-00011999999ADDAA101000591MA1999999086481MD1310181+9999ME1312729OA149900511REMSYN082AAXX  01154 06689 23/// /0603 11001 21001 38648 48272 53018 333 69955 91110 91206;
0154066890999992010010116004+47367+008950FM-12+114499999V0200701N002119999999N9999999N1-00041-00041999999ADDAA101000021MA1999999086541MD1110211+9999ME1312789OA149900461REMSYN082AAXX  01164 06689 23/// /0704 11004 21004 38654 48278 51021 333 69925 91109 91206;
0154066890999992010010117004+47367+008950FM-12+114499999V0203201N001019999999N9999999N1-00061-00061999999ADDAA101001091MA1999999086651MD1310251+9999ME1312889OA149900461REMSYN082AAXX  01174 06689 23/// /3202 11006 21006 38665 48288 53025 333 69995 91109 91206;
0179066890999992010010118004+47367+008950FM-12+114499999V0202901N004119999999N9999999N1-00111-00111999999ADDAA112004191KA1120M+00211MA1999999086761MD1310281+9999ME1312979OA149900671REMSYN094AAXX  01184 06689 03/// /2908 11011 21011 38676 48297 53028 60042 333 10021 60025 91113 91208;
0154066890999992010010119004+47367+008950FM-12+114499999V0202901N007219999999N9999999N1-00221-00221999999ADDAA101003091MA1999999086901MD1310361+9999ME1313099OA149901081REMSYN082AAXX  01194 06689 23/// /2914 11022 21022 38690 48309 53036 333 60035 91121 91214;
0154066890999992010010120004+47367+008950FM-12+114499999V0202901N006719999999N9999999N1-00241-00251999999ADDAA101003091MA1999999087031MD1310381+9999ME1313219OA149901291REMSYN082AAXX  01204 06689 23/// /2913 11024 21025 38703 48321 53038 333 60035 91125 91214;
0154066890999992010010121004+47367+008950FM-12+114499999V0202901N007219999999N9999999N1-00311-00321999999ADDAA101002091MA1999999087151MD1210391+9999ME1313329OA149901341REMSYN082AAXX  01214 06689 23/// /2914 11031 21032 38715 48332 52039 333 60025 91126 91215;
0154066890999992010010122004+47367+008950FM-12+114499999V0202901N005119999999N9999999N1-00371-00391999999ADDAA101000891MA1999999087241MD1110341+9999ME1313399OA149901341REMSYN082AAXX  01224 06689 23/// /2910 11037 21039 38724 48339 51034 333 69975 91126 91215;
0154066890999992010010123004+47367+008950FM-12+114499999V0202901N004619999999N9999999N1-00391-00401999999ADDAA101000021MA1999999087311MD1110281+9999ME1313459OA149901131REMSYN082AAXX  01234 06689 23/// /2909 11039 21040 38731 48345 51028 333 69915 91122 91213;
0160066890999992010010200004+47367+008950FM-12+114499999V0203001N005719999999N9999999N1-00501-00541999999ADDAA106007991MA1999999087361MD1110211+9999ME1313499OA149901341REMSYN088AAXX  02004 06689 03/// /3011 11050 21054 38736 48349 51021 60081 333 69945 91126 91215;
0154066890999992010010201004+47367+008950FM-12+114499999V0203001N005719999999N9999999N1-00591-00631999999ADDAA101000021MA1999999087451MD1110211+9999ME1313569OA149901181REMSYN082AAXX  02014 06689 23/// /3011 11059 21063 38745 48356 51021 333 69915 91123 91213;
0117066890999992010010202004+47367+008950FM-12+114499999V0203001N004619999999N9999999N1-00621-00661999999ADDAA101000391MA1999999087571ME1313679REMSYN070AAXX  02024 06689 23/// /3009 11062 21066 38757 48367 5//// 333 69935;
0137066890999992010010203004+47367+008950FM-12+114499999V0202901N005119999999N9999999N1-00661-00711999999ADDMA1999999087671MD1110311+9999ME1313759OA149901181REMSYN076AAXX  02034 06689 33/// /2910 11066 21071 38767 48375 51031 333 91123 91213;
0154066890999992010010204004+47367+008950FM-12+114499999V0203001N004119999999N9999999N1-00661-00711999999ADDAA101000021MA1999999087741MD1110291+9999ME1313819OA149901031REMSYN082AAXX  02044 06689 23/// /3008 11066 21071 38774 48381 51029 333 69915 91120 91210;
0137066890999992010010205004+47367+008950FM-12+114499999V0202901N004119999999N9999999N1-00661-00781999999ADDMA1999999087831MD1210261+9999ME1313899OA149900931REMSYN076AAXX  02054 06689 33/// /2908 11066 21078 38783 48389 52026 333 91118 91209;
0220066890999992010010206004+47367+008950FM-12+114499999V0202901N004119999999N9999999N1-00701-00771999999ADDAA112008991AA224012291AL10601291GJ100009KA1999N-00691MA1999999087861MD1110191+9999ME1313929OA149901341REMSYN106AAXX  02064 06689 03/// /2908 11070 21077 38786 48392 51019 60092 333 21069 55000 60005 70121 91126 91215;
0137066890999992010010207004+47367+008950FM-12+114499999V0203001N003119999999N9999999N1-00711-00751999999ADDMA1999999087951MD1210211+9999ME1313999OA149900721REMSYN076AAXX  02074 06689 33/// /3006 11071 21075 38795 48399 52021 333 91114 91208;
0096066890999992010010208004+47367+008950FM-12+114499999V0203001N003119999999N9999999N1-00731-00781999999ADDMA1999999088041ME1314079REMSYN060AAXX  02084 06689 33/// /3006 11073 21078 38804 48407 5////;
0137066890999992010010209004+47367+008950FM-12+114499999V0203001N002119999999N9999999N1-00741-00781999999ADDMA1999999088131MD1310271+9999ME1314159OA149900931REMSYN076AAXX  02094 06689 33/// /3004 11074 21078 38813 48415 53027 333 91118 91209;
0137066890999992010010210004+47367+008950FM-12+114499999V0203001N001519999999N9999999N1-00731-00781999999ADDMA1999999088231MD1210281+9999ME1314249OA149900511REMSYN076AAXX  02104 06689 33/// /3003 11073 21078 38823 48424 52028 333 91110 91206;
0154066890999992010010211004+47367+008950FM-12+114499999V0203001N001519999999N9999999N1-00751-00791999999ADDAA101000021MA1999999088281MD1110241+9999ME1314289OA149900511REMSYN082AAXX  02114 06689 23/// /3003 11075 21079 38828 48428 51024 333 69915 91110 91205;
0160066890999992010010212004+47367+008950FM-12+114499999V0203001N002619999999N9999999N1-00711-00751999999ADDAA106001091MA1999999088341MD1110211+9999ME1314349OA149901181REMSYN088AAXX  02124 06689 03/// /3005 11071 21075 38834 48434 51021 60011 333 69995 91123 91213;
0137066890999992010010213004+47367+008950FM-12+114499999V0202901N002119999999N9999999N1-00661-00741999999ADDMA1999999088401MD1310171+9999ME1314409OA149900571REMSYN076AAXX  02134 06689 33/// /2904 11066 21074 38840 48440 53017 333 91111 91205;
0137066890999992010010214004+47367+008950FM-12+114499999V0202901N002619999999N9999999N1-00711-00861999999ADDMA1999999088471MD1319999+9999ME1314459OA149900461REMSYN076AAXX  02144 06689 33/// /2905 11071 21086 38847 48445 53/// 333 91109 91205;
0137066890999992010010215004+47367+008950FM-12+114499999V0202801N002619999999N9999999N1-00731-00881999999ADDMA1999999088541MD1310201+9999ME1314519OA149900571REMSYN076AAXX  02154 06689 33/// /2805 11073 21088 38854 48451 53020 333 91111 91205;
0137066890999992010010216004+47367+008950FM-12+114499999V0202801N003119999999N9999999N1-00781-00931999999ADDMA1999999088591MD1110191+9999ME1314559OA149900411REMSYN076AAXX  02164 06689 33/// /2806 11078 21093 38859 48455 51019 333 91108 91206;
0137066890999992010010217004+47367+008950FM-12+114499999V0202501N003119999999N9999999N1-00791-00991999999ADDMA1999999088661MD1110191+9999ME1314619OA149900511REMSYN076AAXX  02174 06689 33/// /2506 11079 21099 38866 48461 51019 333 91110 91206;
0179066890999992010010218004+47367+008950FM-12+114499999V0202601N002619999999N9999999N1-00791-00981999999ADDAA112001091KA1120M-00601MA1999999088691MD1210151+9999ME1314639OA149900671REMSYN094AAXX  02184 06689 03/// /2605 11079 21098 38869 48463 52015 60012 333 11060 60005 91113 91207;
0137066890999992010010219004+47367+008950FM-12+114499999V0202701N002619999999N9999999N1-00831-00981999999ADDMA1999999088721MD1210131+9999ME1314659OA149900411REMSYN076AAXX  02194 06689 33/// /2705 11083 21098 38872 48465 52013 333 91108 91206;
0137066890999992010010220004+47367+008950FM-12+114499999V0202601N003119999999N9999999N1-00851-01031999999ADDMA1999999088711MD1210051+9999ME1314649OA149900411REMSYN076AAXX  02204 06689 33/// /2606 11085 21103 38871 48464 52005 333 91108 91206;
0137066890999992010010221004+47367+008950FM-12+114499999V0202401N003119999999N9999999N1-00891-01011999999ADDMA1999999088701MD1010011+9999ME1314639OA149900511REMSYN076AAXX  02214 06689 33/// /2406 11089 21101 38870 48463 50001 333 91110 91206;
0137066890999992010010222004+47367+008950FM-12+114499999V0202401N003619999999N9999999N1-00851-00971999999ADDMA1999999088711MD1010011+9999ME1314649OA149900511REMSYN076AAXX  02224 06689 33/// /2407 11085 21097 38871 48464 50001 333 91110 91208;
0137066890999992010010223004+47367+008950FM-12+114499999V0202401N004119999999N9999999N1-00861-01031999999ADDMA1999999088711MD1510001+9999ME1314649OA149900511REMSYN076AAXX  02234 06689 33/// /2408 11086 21103 38871 48464 55000 333 91110 91208;
0137066890999992010010300004+47367+008950FM-12+114499999V0202401N004119999999N9999999N1-00851-01091999999ADDMA1999999088701MD1010001+9999ME1314639OA149900511REMSYN076AAXX  03004 06689 33/// /2408 11085 21109 38870 48463 50000 333 91110 91208;
0137066890999992010010301004+47367+008950FM-12+114499999V0202401N004619999999N9999999N1-00861-01141999999ADDMA1999999088701MD1710011+9999ME1314639OA149900571REMSYN076AAXX  03014 06689 33/// /2409 11086 21114 38870 48463 57001 333 91111 91209;
0096066890999992010010302004+47367+008950FM-12+114499999V0202501N004619999999N9999999N1-00871-01171999999ADDMA1999999088731ME1314669REMSYN060AAXX  03024 06689 33/// /2509 11087 21117 38873 48466 5////;
0096066890999992010010303004+47367+008950FM-12+114499999V0202201N004119999999N9999999N1-00921-01211999999ADDMA1999999088701ME1314629REMSYN060AAXX  03034 06689 33/// /2208 11092 21121 38870 48462 5////;
0137066890999992010010304004+47367+008950FM-12+114499999V0202101N004619999999N9999999N1-00911-01251999999ADDMA1999999088641MD1810061+9999ME1314579OA149900571REMSYN076AAXX  03044 06689 33/// /2109 11091 21125 38864 48457 58006 333 91111 91209;
0137066890999992010010305004+47367+008950FM-12+114499999V0202301N004619999999N9999999N1-00951-01341999999ADDMA1999999088661MD1719999+9999ME1314599OA149900511REMSYN076AAXX  03054 06689 33/// /2309 11095 21134 38866 48459 57/// 333 91110 91209;
0197066890999992010010306004+47367+008950FM-12+114499999V0202101N004119999999N9999999N1-00941-01431999999ADDAA124001091AL19900191GJ100309KA1999N-00981MA1999999088621MD1710081+9999ME1314559OA149900571REMSYN094AAXX  03064 06689 33/// /2108 11094 21143 38862 48455 57008 333 21098 55005 70010 91111 91209;
0137066890999992010010307004+47367+008950FM-12+114499999V0202301N004119999999N9999999N1-00921-01541999999ADDMA1999999088651MD1210011+9999ME1314589OA149900511REMSYN076AAXX  03074 06689 33/// /2308 11092 21154 38865 48458 52001 333 91110 91209;
0137066890999992010010308004+47367+008950FM-12+114499999V0202101N004619999999N9999999N1-01001-01451999999ADDMA1999999088661MD1519999+9999ME1314589OA149900571REMSYN076AAXX  03084 06689 33/// /2109 11100 21145 38866 48458 55/// 333 91111 91209;
0137066890999992010010309004+47367+008950FM-12+114499999V0202101N004619999999N9999999N1-00921-01431999999ADDMA1999999088671MD1210051+9999ME1314609OA149900571REMSYN076AAXX  03094 06689 33/// /2109 11092 21143 38867 48460 52005 333 91111 91210;
0137066890999992010010310004+47367+008950FM-12+114499999V0202101N004619999999N9999999N1-00791-01451999999ADDMA1999999088691MD1210041+9999ME1314639OA149900621REMSYN076AAXX  03104 06689 33/// /2109 11079 21145 38869 48463 52004 333 91112 91210;
0137066890999992010010311004+47367+008950FM-12+114499999V0202001N004119999999N9999999N1-00681-01451999999ADDMA1999999088591MD1810071+9999ME1314569OA149900621REMSYN076AAXX  03114 06689 33/// /2008 11068 21145 38859 48456 58007 333 91112 91210;
0137066890999992010010312004+47367+008950FM-12+114499999V0201801N002119999999N9999999N1-00531-01561999999ADDMA1999999088561MD1810111+9999ME1314559OA149900621REMSYN076AAXX  03124 06689 33/// /1804 11053 21156 38856 48455 58011 333 91112 91210;
0137066890999992010010313004+47367+008950FM-12+114499999V0202201N002619999999N9999999N1-00611-01291999999ADDMA1999999088551MD1610141+9999ME1314539OA149900461REMSYN076AAXX  03134 06689 33/// /2205 11061 21129 38855 48453 56014 333 91109 91208;
0137066890999992010010314004+47367+008950FM-12+114499999V0202201N003619999999N9999999N1-00591-01391999999ADDMA1999999088531MD1710061+9999ME1314529OA149900511REMSYN076AAXX  03144 06689 33/// /2207 11059 21139 38853 48452 57006 333 91110 91207;
0137066890999992010010315004+47367+008950FM-12+114499999V0202301N003619999999N9999999N1-00621-01591999999ADDMA1999999088551MD1510011+9999ME1314539OA149900621REMSYN076AAXX  03154 06689 33/// /2307 11062 21159 38855 48453 55001 333 91112 91210;
0137066890999992010010316004+47367+008950FM-12+114499999V0202601N004119999999N9999999N1-00641-02301999999ADDMA1999999088541MD1010011+9999ME1314529OA149900511REMSYN076AAXX  03164 06689 33/// /2608 11064 21230 38854 48452 50001 333 91110 91209;
0137066890999992010010317004+47367+008950FM-12+114499999V0202501N004119999999N9999999N1-00681-02141999999ADDMA1999999088501MD1810031+9999ME1314489OA149900571REMSYN076AAXX  03174 06689 33/// /2508 11068 21214 38850 48448 58003 333 91111 91209;
0156066890999992010010318004+47367+008950FM-12+114499999V0202401N004119999999N9999999N1-00711-02021999999ADDKA1120M-00511MA1999999088491MD1610061+9999ME1314479OA149900621REMSYN082AAXX  03184 06689 33/// /2408 11071 21202 38849 48447 56006 333 11051 91112 91210;
0137066890999992010010319004+47367+008950FM-12+114499999V0202401N003619999999N9999999N1-00711-01951999999ADDMA1999999088501MD1510041+9999ME1314489OA149900511REMSYN076AAXX  03194 06689 33/// /2407 11071 21195 38850 48448 55004 333 91110 91208;
0137066890999992010010320004+47367+008950FM-12+114499999V0202301N002619999999N9999999N1-00671-01931999999ADDMA1999999088451MD1810051+9999ME1314449OA149900461REMSYN076AAXX  03204 06689 33/// /2305 11067 21193 38845 48444 58005 333 91109 91208;
0137066890999992010010321004+47367+008950FM-12+114499999V0202201N001019999999N9999999N1-00601-01921999999ADDMA1999999088431MD1710061+9999ME1314439OA149900571REMSYN076AAXX  03214 06689 33/// /2202 11060 21192 38843 48443 57006 333 91111 91209;
0137066890999992010010322004+47367+008950FM-12+114499999V0200701N001519999999N9999999N1-00631-01711999999ADDMA1999999088421MD1710081+9999ME1314429OA149900361REMSYN076AAXX  03224 06689 33/// /0703 11063 21171 38842 48442 57008 333 91107 91206;
0137066890999992010010323004+47367+008950FM-12+114499999V0209999C000019999999N9999999N1-00561-01991999999ADDMA1999999088381MD1710071+9999ME1314399OA149900211REMSYN076AAXX  03234 06689 33/// /0000 11056 21199 38838 48439 57007 333 91104 91203;
0137066890999992010010400004+47367+008950FM-12+114499999V0200801N002619999999N9999999N1-00641-01891999999ADDMA1999999088331MD1810101+9999ME1314349OA149900571REMSYN076AAXX  04004 06689 33/// /0805 11064 21189 38833 48434 58010 333 91111 91209;
0137066890999992010010401004+47367+008950FM-12+114499999V0200901N002619999999N9999999N1-00691-02021999999ADDMA1999999088261MD1810161+9999ME1314279OA149900361REMSYN076AAXX  04014 06689 33/// /0905 11069 21202 38826 48427 58016 333 91107 91205;
0137066890999992010010402004+47367+008950FM-12+114499999V0200901N004619999999N9999999N1-00781-01841999999ADDMA1999999088211MD1610171+9999ME1314229OA149900571REMSYN076AAXX  04024 06689 33/// /0909 11078 21184 38821 48422 56017 333 91111 91210;
0137066890999992010010403004+47367+008950FM-12+114499999V0200801N005719999999N9999999N1-00811-01741999999ADDMA1999999088141MD1819999+9999ME1314159OA149900671REMSYN076AAXX  04034 06689 33/// /0811 11081 21174 38814 48415 58/// 333 91113 91211;
0137066890999992010010404004+47367+008950FM-12+114499999V0200901N005119999999N9999999N1-00751-01961999999ADDMA1999999088101MD1610161+9999ME1314129OA149900671REMSYN076AAXX  04044 06689 33/// /0910 11075 21196 38810 48412 56016 333 91113 91212;
0137066890999992010010405004+47367+008950FM-12+114499999V0200901N002619999999N9999999N1-00641-01941999999ADDMA1999999088071MD1610141+9999ME1314119OA149900671REMSYN076AAXX  04054 06689 33/// /0905 11064 21194 38807 48411 56014 333 91113 91212;
0216066890999992010010406004+47367+008950FM-12+114499999V0201001N001019999999N9999999N1-00591-01841999999ADDAA124000091AL19900091GJ104449KA1999N-00841MA1999999088071MD1710071+9999ME1314119OA149900671REMSYN094AAXX  04064 06689 33/// /1002 11059 21184 38807 48411 57007 333 21084 55074 70000 91113 91212;EQDQ01  00002PRCP24
0137066890999992010010407004+47367+008950FM-12+114499999V0202401N001519999999N9999999N1-00631-02021999999ADDMA1999999088071MD1710031+9999ME1314119OA149900311REMSYN076AAXX  04074 06689 33/// /2403 11063 21202 38807 48411 57003 333 91106 91205;
0137066890999992010010408004+47367+008950FM-12+114499999V0201901N001519999999N9999999N1-00581-01921999999ADDMA1999999088061MD1810011+9999ME1314109OA149900261REMSYN076AAXX  04084 06689 33/// /1903 11058 21192 38806 48410 58001 333 91105 91203;
0137066890999992010010409004+47367+008950FM-12+114499999V0202201N003119999999N9999999N1-00561-01501999999ADDMA1999999088061MD1710011+9999ME1314119OA149900671REMSYN076AAXX  04094 06689 33/// /2206 11056 21150 38806 48411 57001 333 91113 91212;
0137066890999992010010410004+47367+008950FM-12+114499999V0202301N004119999999N9999999N1-00591-01531999999ADDMA1999999088051MD1810021+9999ME1314099OA149900511REMSYN076AAXX  04104 06689 33/// /2308 11059 21153 38805 48409 58002 333 91110 91209;
0137066890999992010010411004+47367+008950FM-12+114499999V0202201N003119999999N9999999N1-00591-01401999999ADDMA1999999087991MD1810071+9999ME1314049OA149900511REMSYN076AAXX  04114 06689 33/// /2206 11059 21140 38799 48404 58007 333 91110 91209;
0137066890999992010010412004+47367+008950FM-12+114499999V0202301N002119999999N9999999N1-00521-01141999999ADDMA1999999087941MD1810121+9999ME1314009OA149900671REMSYN076AAXX  04124 06689 33/// /2304 11052 21114 38794 48400 58012 333 91113 91212;
0137066890999992010010413004+47367+008950FM-12+114499999V0202501N001019999999N9999999N1-00581-00881999999ADDMA1999999087901MD1610151+9999ME1313969OA149900411REMSYN076AAXX  04134 06689 33/// /2502 11058 21088 38790 48396 56015 333 91108 91205;
0137066890999992010010414004+47367+008950FM-12+114499999V0202401N003119999999N9999999N1-00491-00991999999ADDMA1999999087881MD1719999+9999ME1313959OA149900461REMSYN076AAXX  04144 06689 33/// /2406 11049 21099 38788 48395 57/// 333 91109 91207;
0137066890999992010010415004+47367+008950FM-12+114499999V0202501N002619999999N9999999N1-00541-01081999999ADDMA1999999087861MD1710081+9999ME1313939OA149900511REMSYN076AAXX  04154 06689 33/// /2505 11054 21108 38786 48393 57008 333 91110 91209;
0137066890999992010010416004+47367+008950FM-12+114499999V0203001N003119999999N9999999N1-00651-01551999999ADDMA1999999087871MD1710031+9999ME1313939OA149900411REMSYN076AAXX  04164 06689 33/// /3006 11065 21155 38787 48393 57003 333 91108 91207;
0137066890999992010010417004+47367+008950FM-12+114499999V0203001N001519999999N9999999N1-00581-01131999999ADDMA1999999087841MD1710041+9999ME1313919OA149900411REMSYN076AAXX  04174 06689 33/// /3003 11058 21113 38784 48391 57004 333 91108 91207;
0156066890999992010010418004+47367+008950FM-12+114499999V0203301N001019999999N9999999N1-00611-01311999999ADDKA1120M-00471MA1999999087831MD1710031+9999ME1313909OA149900511REMSYN082AAXX  04184 06689 33/// /3302 11061 21131 38783 48390 57003 333 11047 91110 91209;
0137066890999992010010419004+47367+008950FM-12+114499999V0200701N001019999999N9999999N1-00691-01081999999ADDMA1999999087831MD1610041+9999ME1313899OA149900211REMSYN076AAXX  04194 06689 33/// /0702 11069 21108 38783 48389 56004 333 91104 91204;
0137066890999992010010420004+47367+008950FM-12+114499999V0201001N002619999999N9999999N1-00721-01091999999ADDMA1999999087801MD1810041+9999ME1313869OA149900361REMSYN076AAXX  04204 06689 33/// /1005 11072 21109 38780 48386 58004 333 91107 91205;
0137066890999992010010421004+47367+008950FM-12+114499999V0201001N002119999999N9999999N1-00661-01031999999ADDMA1999999087771MD1810061+9999ME1313849OA149900411REMSYN076AAXX  04214 06689 33/// /1004 11066 21103 38777 48384 58006 333 91108 91207;
0137066890999992010010422004+47367+008950FM-12+114499999V0200901N002119999999N9999999N1-00741-01051999999ADDMA1999999087741MD1810091+9999ME1313819OA149900311REMSYN076AAXX  04224 06689 33/// /0904 11074 21105 38774 48381 58009 333 91106 91205;
0137066890999992010010423004+47367+008950FM-12+114499999V0201201N001519999999N9999999N1-00621-00991999999ADDMA1999999087701MD1810101+9999ME1313789OA149900261REMSYN076AAXX  04234 06689 33/// /1203 11062 21099 38770 48378 58010 333 91105 91204;
0137066890999992010010500004+47367+008950FM-12+114499999V0201001N001519999999N9999999N1-00681-01031999999ADDMA1999999087651MD1810121+9999ME1313739OA149900461REMSYN076AAXX  05004 06689 33/// /1003 11068 21103 38765 48373 58012 333 91109 91207;
0137066890999992010010501004+47367+008950FM-12+114499999V0200901N002119999999N9999999N1-00641-01091999999ADDMA1999999087611MD1710131+9999ME1313709OA149900261REMSYN076AAXX  05014 06689 33/// /0904 11064 21109 38761 48370 57013 333 91105 91204;
0137066890999992010010502004+47367+008950FM-12+114499999V0201001N002119999999N9999999N1-00661-01071999999ADDMA1999999087591MD1710111+9999ME1313689OA149900311REMSYN076AAXX  05024 06689 33/// /1004 11066 21107 38759 48368 57011 333 91106 91204;
0137066890999992010010503004+47367+008950FM-12+114499999V0201001N003619999999N9999999N1-00681-01051999999ADDMA1999999087531MD1710121+9999ME1313639OA149900411REMSYN076AAXX  05034 06689 33/// /1007 11068 21105 38753 48363 57012 333 91108 91207;
0137066890999992010010504004+47367+008950FM-12+114499999V0201101N002119999999N9999999N1-00641-01001999999ADDMA1999999087471MD1710141+9999ME1313589OA149900411REMSYN076AAXX  05044 06689 33/// /1104 11064 21100 38747 48358 57014 333 91108 91207;
0137066890999992010010505004+47367+008950FM-12+114499999V0200901N002619999999N9999999N1-00641-00961999999ADDMA1999999087411MD1710181+9999ME1313529OA149900461REMSYN076AAXX  05054 06689 33/// /0905 11064 21096 38741 48352 57018 333 91109 91207;
0216066890999992010010506004+47367+008950FM-12+114499999V0201101N001519999999N9999999N1-00631-00941999999ADDAA124000091AL19900091GJ103009KA1999N-00901MA1999999087361MD1710171+9999ME1313489OA149900461REMSYN094AAXX  05064 06689 33/// /1103 11063 21094 38736 48348 57017 333 21090 55050 70000 91109 91208;EQDQ01  00002PRCP24
0137066890999992010010507004+47367+008950FM-12+114499999V0201001N003619999999N9999999N1-00671-00981999999ADDMA1999999087311MD1710161+9999ME1313439OA149900511REMSYN076AAXX  05074 06689 33/// /1007 11067 21098 38731 48343 57016 333 91110 91208;
0137066890999992010010508004+47367+008950FM-12+114499999V0200801N002619999999N9999999N1-00631-00971999999ADDMA1999999087291MD1710121+9999ME1313429OA149900511REMSYN076AAXX  05084 06689 33/// /0805 11063 21097 38729 48342 57012 333 91110 91208;
0137066890999992010010509004+47367+008950FM-12+114499999V0201001N003119999999N9999999N1-00551-00941999999ADDMA1999999087271MD1710091+9999ME1313409OA149900511REMSYN076AAXX  05094 06689 33/// /1006 11055 21094 38727 48340 57009 333 91110 91208;
0137066890999992010010510004+47367+008950FM-12+114499999V0200801N001519999999N9999999N1-00481-00911999999ADDMA1999999087251MD1710061+9999ME1313399OA149900361REMSYN076AAXX  05104 06689 33/// /0803 11048 21091 38725 48339 57006 333 91107 91206;
0137066890999992010010511004+47367+008950FM-12+114499999V0201001N002119999999N9999999N1-00381-00841999999ADDMA1999999087181MD1710111+9999ME1313349OA149900311REMSYN076AAXX  05114 06689 33/// /1004 11038 21084 38718 48334 57011 333 91106 91205;
0137066890999992010010512004+47367+008950FM-12+114499999V0201001N002119999999N9999999N1-00391-00841999999ADDMA1999999087111MD1710161+9999ME1313279OA149900511REMSYN076AAXX  05124 06689 33/// /1004 11039 21084 38711 48327 57016 333 91110 91208;
0137066890999992010010513004+47367+008950FM-12+114499999V0201801N001019999999N9999999N1-00681-00711999999ADDMA1999999087061MD1610191+9999ME1313219OA149900361REMSYN076AAXX  05134 06689 33/// /1802 11068 21071 38706 48321 56019 333 91107 91205;
0096066890999992010010514004+47367+008950FM-12+114499999V0201101N002119999999N9999999N1-00421-00801999999ADDMA1999999087031ME1313209REMSYN060AAXX  05144 06689 33/// /1104 11042 21080 38703 48320 5////;
0137066890999992010010515004+47367+008950FM-12+114499999V0201201N003119999999N9999999N1-00301-00611999999ADDMA1999999087011MD1610101+9999ME1313199OA149900411REMSYN076AAXX  05154 06689 33/// /1206 11030 21061 38701 48319 56010 333 91108 91207;
0137066890999992010010516004+47367+008950FM-12+114499999V0201101N002619999999N9999999N1-00281-00611999999ADDMA1999999087001MD1710061+9999ME1313189OA149900411REMSYN076AAXX  05164 06689 33/// /1105 11028 21061 38700 48318 57006 333 91108 91207;
0137066890999992010010517004+47367+008950FM-12+114499999V0201101N002119999999N9999999N1-00301-00501999999ADDMA1999999086971MD1710061+9999ME1313159OA149900411REMSYN076AAXX  05174 06689 33/// /1104 11030 21050 38697 48315 57006 333 91108 91207;
0156066890999992010010518004+47367+008950FM-12+114499999V0201101N002619999999N9999999N1-00381-00621999999ADDKA1120M-00281MA1999999086931MD1710081+9999ME1313119OA149900511REMSYN082AAXX  05184 06689 33/// /1105 11038 21062 38693 48311 57008 333 11028 91110 91208;
0137066890999992010010519004+47367+008950FM-12+114499999V0201301N002119999999N9999999N1-00301-00601999999ADDMA1999999086921MD1610081+9999ME1313119OA149900411REMSYN076AAXX  05194 06689 33/// /1304 11030 21060 38692 48311 56008 333 91108 91207;
0137066890999992010010520004+47367+008950FM-12+114499999V0201501N001019999999N9999999N1-00181-00671999999ADDMA1999999086881MD1810091+9999ME1313089OA149900411REMSYN076AAXX  05204 06689 33/// /1502 11018 21067 38688 48308 58009 333 91108 91206;
0137066890999992010010521004+47367+008950FM-12+114499999V0201801N001019999999N9999999N1-00281-00601999999ADDMA1999999086851MD1810081+9999ME1313059OA149900411REMSYN076AAXX  05214 06689 33/// /1802 11028 21060 38685 48305 58008 333 91108 91207;
0137066890999992010010522004+47367+008950FM-12+114499999V0201901N002119999999N9999999N1-00291-00701999999ADDMA1999999086831MD1610091+9999ME1313039OA149900361REMSYN076AAXX  05224 06689 33/// /1904 11029 21070 38683 48303 56009 333 91107 91205;
0137066890999992010010523004+47367+008950FM-12+114499999V0201901N001519999999N9999999N1-00371-00741999999ADDMA1999999086821MD1810061+9999ME1313019OA149900311REMSYN076AAXX  05234 06689 33/// /1903 11037 21074 38682 48301 58006 333 91106 91205;
0137066890999992010010600004+47367+008950FM-12+114499999V0202101N003619999999N9999999N1-00401-00591999999ADDMA1999999086791MD1810061+9999ME1312989OA149900511REMSYN076AAXX  06004 06689 33/// /2107 11040 21059 38679 48298 58006 333 91110 91209;
0137066890999992010010601004+47367+008950FM-12+114499999V0202101N002619999999N9999999N1-00321-00671999999ADDMA1999999086761MD1810071+9999ME1312969OA149900511REMSYN076AAXX  06014 06689 33/// /2105 11032 21067 38676 48296 58007 333 91110 91209;
0137066890999992010010602004+47367+008950FM-12+114499999V0202001N003119999999N9999999N1-00441-00621999999ADDMA1999999086791MD1510031+9999ME1312989OA149900461REMSYN076AAXX  06024 06689 33/// /2006 11044 21062 38679 48298 55003 333 91109 91206;
0137066890999992010010603004+47367+008950FM-12+114499999V0202201N003619999999N9999999N1-00481-00611999999ADDMA1999999086771MD1710021+9999ME1312969OA149900511REMSYN076AAXX  06034 06689 33/// /2207 11048 21061 38677 48296 57002 333 91110 91209;
0154066890999992010010604004+47367+008950FM-12+114499999V0202401N005119999999N9999999N1-00571-00641999999ADDAA101000021MA1999999086761MD1010001+9999ME1312959OA149900571REMSYN082AAXX  06044 06689 23/// /2410 11057 21064 38676 48295 50000 333 69915 91111 91210;
0137066890999992010010605004+47367+008950FM-12+114499999V0202401N005119999999N9999999N1-00601-00661999999ADDMA1999999086791MD1510001+9999ME1312979OA149900671REMSYN076AAXX  06054 06689 33/// /2410 11060 21066 38679 48297 55000 333 91113 91211;
0255066890999992010010606004+47367+008950FM-12+114499999V0202501N006219999999N9999999N1-00621-00701999999ADDAA112000091AA224000091AL10600091GJ100429KA1999N-00651MA1999999086811MD1210041+9999ME1312999OA149900821REMSYN106AAXX  06064 06689 03/// /2512 11062 21070 38681 48299 52004 69932 333 21065 55007 69925 70001 91116 91212;EQDQ01  00002PRCP24Q02  00002PRCP12
0154066890999992010010607004+47367+008950FM-12+114499999V0202501N005719999999N9999999N1-00711-00761999999ADDAA101000021MA1999999086841MD1110081+9999ME1313019OA149900821REMSYN082AAXX  06074 06689 23/// /2511 11071 21076 38684 48301 51008 333 69915 91116 91213;
0137066890999992010010608004+47367+008950FM-12+114499999V0202801N005719999999N9999999N1-00761-00811999999ADDMA1999999086891MD1310101+9999ME1313059OA149900821REMSYN076AAXX  06084 06689 33/// /2811 11076 21081 38689 48305 53010 333 91116 91213;
0137066890999992010010609004+47367+008950FM-12+114499999V0202901N005119999999N9999999N1-00751-00791999999ADDMA1999999086931MD1310121+9999ME1313099OA149900821REMSYN076AAXX  06094 06689 33/// /2910 11075 21079 38693 48309 53012 333 91116 91213;
0137066890999992010010610004+47367+008950FM-12+114499999V0202801N004619999999N9999999N1-00721-00791999999ADDMA1999999086981MD1210141+9999ME1313139OA149900821REMSYN076AAXX  06104 06689 33/// /2809 11072 21079 38698 48313 52014 333 91116 91211;
0137066890999992010010611004+47367+008950FM-12+114499999V0202901N004119999999N9999999N1-00681-00731999999ADDMA1999999086951MD1019999+9999ME1313119OA149900771REMSYN076AAXX  06114 06689 33/// /2908 11068 21073 38695 48311 50/// 333 91115 91210;
0179066890999992010010612004+47367+008950FM-12+114499999V0202501N002119999999N9999999N1-00701-00721999999ADDAA106000091MA1999999086941MD1810011+9999ME1313109OA149900821REMSYN088AAXX  06124 06689 03/// /2504 11070 21072 38694 48310 58001 69911 333 60005 91116 91213;EQDQ01  00002PRCP06
0137066890999992010010613004+47367+008950FM-12+114499999V0202301N002119999999N9999999N1-00591-00601999999ADDMA1999999086951MD1510031+9999ME1313129OA149900461REMSYN076AAXX  06134 06689 33/// /2304 11059 21060 38695 48312 55003 333 91109 91207;
0137066890999992010010614004+47367+008950FM-12+114499999V0202301N002119999999N9999999N1-00581-00591999999ADDMA1999999086971MD1219999+9999ME1313139OA149900311REMSYN076AAXX  06144 06689 33/// /2304 11058 21059 38697 48313 52/// 333 91106 91204;
0143066890999992010010615004+47367+008950FM-12+114499999V0202601N001519999999N9999999N1-00561-00611999999ADDMA1999999087001MD1219999+9999ME1313169OA149900771REMSYN082AAXX  06154 06689 33/// /2603 11056 21061 38700 48316 52/// 91440 333 91115 91210;
0137066890999992010010616004+47367+008950FM-12+114499999V0202701N001019999999N9999999N1-00641-00641999999ADDMA1999999087061MD1210111+9999ME1313219OA149900261REMSYN076AAXX  06164 06689 33/// /2702 11064 21064 38706 48321 52011 333 91105 91204;
0137066890999992010010617004+47367+008950FM-12+114499999V0202601N002119999999N9999999N1-00581-00611999999ADDMA1999999087081MD1110111+9999ME1313239OA149900261REMSYN076AAXX  06174 06689 33/// /2604 11058 21061 38708 48323 51011 333 91105 91204;
0198066890999992010010618004+47367+008950FM-12+114499999V0202601N002619999999N9999999N1-00581-00631999999ADDAA112000091KA1120M-00551MA1999999087131MD1310121+9999ME1313289OA149900821REMSYN094AAXX  06184 06689 03/// /2605 11058 21063 38713 48328 53012 69912 333 11055 60005 91116 91213;EQDQ01  00002PRCP12
0137066890999992010010619004+47367+008950FM-12+114499999V0202601N002619999999N9999999N1-00581-00681999999ADDMA1999999087151MD1110091+9999ME1313309OA149900361REMSYN076AAXX  06194 06689 33/// /2605 11058 21068 38715 48330 51009 333 91107 91205;
0137066890999992010010620004+47367+008950FM-12+114499999V0202601N003119999999N9999999N1-00571-00671999999ADDMA1999999087181MD1110101+9999ME1313329OA149900461REMSYN076AAXX  06204 06689 33/// /2606 11057 21067 38718 48332 51010 333 91109 91206;
0137066890999992010010621004+47367+008950FM-12+114499999V0202501N003119999999N9999999N1-00561-00651999999ADDMA1999999087181MD1210051+9999ME1313329OA149900461REMSYN076AAXX  06214 06689 33/// /2506 11056 21065 38718 48332 52005 333 91109 91206;
0137066890999992010010622004+47367+008950FM-12+114499999V0202701N003119999999N9999999N1-00551-00651999999ADDMA1999999087221MD1210071+9999ME1313369OA149900461REMSYN076AAXX  06224 06689 33/// /2706 11055 21065 38722 48336 52007 333 91109 91206;
0137066890999992010010623004+47367+008950FM-12+114499999V0202701N001519999999N9999999N1-00581-00641999999ADDMA1999999087261MD1210081+9999ME1313399OA149900411REMSYN076AAXX  06234 06689 33/// /2703 11058 21064 38726 48339 52008 333 91108 91206;
0137066890999992010010700004+47367+008950FM-12+114499999V0202601N002119999999N9999999N1-00601-00701999999ADDMA1999999087281MD1210101+9999ME1313419OA149900461REMSYN076AAXX  07004 06689 33/// /2604 11060 21070 38728 48341 52010 333 91109 91206;
0137066890999992010010701004+47367+008950FM-12+114499999V0202601N002119999999N9999999N1-00641-00721999999ADDMA1999999087291MD1210071+9999ME1313429OA149900461REMSYN076AAXX  07014 06689 33/// /2604 11064 21072 38729 48342 52007 333 91109 91206;
0137066890999992010010702004+47367+008950FM-12+114499999V0202801N002119999999N9999999N1-00661-00701999999ADDMA1999999087331MD1219999+9999ME1313459OA149900461REMSYN076AAXX  07024 06689 33/// /2804 11066 21070 38733 48345 52/// 333 91109 91206;
0137066890999992010010703004+47367+008950FM-12+114499999V0202701N002119999999N9999999N1-00641-00691999999ADDMA1999999087351MD1210071+9999ME1313479OA149900461REMSYN076AAXX  07034 06689 33/// /2704 11064 21069 38735 48347 52007 333 91109 91206;
0137066890999992010010704004+47367+008950FM-12+114499999V0202701N001519999999N9999999N1-00651-00741999999ADDMA1999999087351MD1210061+9999ME1313479OA149900361REMSYN076AAXX  07044 06689 33/// /2703 11065 21074 38735 48347 52006 333 91107 91205;
0137066890999992010010705004+47367+008950FM-12+114499999V0202501N001019999999N9999999N1-00691-00761999999ADDMA1999999087361MD1210031+9999ME1313479OA149900361REMSYN076AAXX  07054 06689 33/// /2502 11069 21076 38736 48347 52003 333 91107 91204;
0197066890999992010010706004+47367+008950FM-12+114499999V0202701N000519999999N9999999N1-00731-00801999999ADDAA124000391AL11800091GJ100009KA1999N-00751MA1999999087381MD1210031+9999ME1313499OA149900461REMSYN094AAXX  07064 06689 33/// /2701 11073 21080 38738 48349 52003 333 21075 55000 70003 91109 91206;
0137066890999992010010707004+47367+008950FM-12+114499999V0209999C000019999999N9999999N1-00661-00801999999ADDMA1999999087431MD1310081+9999ME1313549OA149900211REMSYN076AAXX  07074 06689 33/// /0000 11066 21080 38743 48354 53008 333 91104 91202;
0137066890999992010010708004+47367+008950FM-12+114499999V0200901N002119999999N9999999N1-00711-00761999999ADDMA1999999087471MD1319999+9999ME1313579OA149900261REMSYN076AAXX  07084 06689 33/// /0904 11071 21076 38747 48357 53/// 333 91105 91204;
0137066890999992010010709004+47367+008950FM-12+114499999V0200901N002119999999N9999999N1-00671-00741999999ADDMA1999999087491MD1110111+9999ME1313599OA149900361REMSYN076AAXX  07094 06689 33/// /0904 11067 21074 38749 48359 51011 333 91107 91204;
0137066890999992010010710004+47367+008950FM-12+114499999V0200901N001519999999N9999999N1-00571-00701999999ADDMA1999999087541MD1310111+9999ME1313649OA149900261REMSYN076AAXX  07104 06689 33/// /0903 11057 21070 38754 48364 53011 333 91105 91204;
0137066890999992010010711004+47367+008950FM-12+114499999V0200701N001519999999N9999999N1-00501-00691999999ADDMA1999999087551MD1210081+9999ME1313669OA149900261REMSYN076AAXX  07114 06689 33/// /0703 11050 21069 38755 48366 52008 333 91105 91203;
0137066890999992010010712004+47367+008950FM-12+114499999V0200801N001519999999N9999999N1-00491-00701999999ADDMA1999999087521MD1010031+9999ME1313639OA149900461REMSYN076AAXX  07124 06689 33/// /0803 11049 21070 38752 48363 50003 333 91109 91206;
0137066890999992010010713004+47367+008950FM-12+114499999V0200901N001519999999N9999999N1-00511-00721999999ADDMA1999999087521MD1819999+9999ME1313639OA149900211REMSYN076AAXX  07134 06689 33/// /0903 11051 21072 38752 48363 58/// 333 91104 91203;
0096066890999992010010715004+47367+008950FM-12+114499999V0201001N001519999999N9999999N1-00551-00751999999ADDMA1999999087611ME1313719REMSYN060AAXX  07154 06689 43/// /1003 11055 21075 38761 48371 5////;
0137066890999992010010716004+47367+008950FM-12+114499999V0201301N001519999999N9999999N1-00431-01031999999ADDMA1999999087661MD1219999+9999ME1313769OA149900311REMSYN076AAXX  07164 06689 33/// /1303 11043 21103 38766 48376 52/// 333 91106 91204;
0137066890999992010010717004+47367+008950FM-12+114499999V0201301N001519999999N9999999N1-00411-01121999999ADDMA1999999087671MD1119999+9999ME1313779OA149900311REMSYN076AAXX  07174 06689 33/// /1303 11041 21112 38767 48377 51/// 333 91106 91204;
0156066890999992010010718004+47367+008950FM-12+114499999V0202301N002119999999N9999999N1-00401-01081999999ADDKA1120M-00381MA1999999087721MD1119999+9999ME1313829OA149900311REMSYN082AAXX  07184 06689 33/// /2304 11040 21108 38772 48382 51/// 333 11038 91106 91204;
0137066890999992010010719004+47367+008950FM-12+114499999V0202901N001019999999N9999999N1-00431-01071999999ADDMA1999999087731MD1310071+9999ME1313839OA149900261REMSYN076AAXX  07194 06689 33/// /2902 11043 21107 38773 48383 53007 333 91105 91205;
0137066890999992010010720004+47367+008950FM-12+114499999V0209999C000019999999N9999999N1-00371-01241999999ADDMA1999999087711MD1010041+9999ME1313819OA149900261REMSYN076AAXX  07204 06689 33/// /0000 11037 21124 38771 48381 50004 333 91105 91205;
0137066890999992010010721004+47367+008950FM-12+114499999V0209999C000019999999N9999999N1-00381-01181999999ADDMA1999999087751MD1210031+9999ME1313859OA149900311REMSYN076AAXX  07214 06689 33/// /0000 11038 21118 38775 48385 52003 333 91106 91205;
0137066890999992010010722004+47367+008950FM-12+114499999V0200901N003119999999N9999999N1-00561-00821999999ADDMA1999999087721MD1810011+9999ME1313819OA149900361REMSYN076AAXX  07224 06689 33/// /0906 11056 21082 38772 48381 58001 333 91107 91206;
0137066890999992010010723004+47367+008950FM-12+114499999V0200801N004119999999N9999999N1-00591-00761999999ADDMA1999999087701MD1810011+9999ME1313789OA149900571REMSYN076AAXX  07234 06689 33/// /0808 11059 21076 38770 48378 58001 333 91111 91209;
0137066890999992010010800004+47367+008950FM-12+114499999V0200801N003619999999N9999999N1-00601-00641999999ADDMA1999999087651MD1810101+9999ME1313749OA149900621REMSYN076AAXX  08004 06689 33/// /0807 11060 21064 38765 48374 58010 333 91112 91209;
0137066890999992010010801004+47367+008950FM-12+114499999V0200801N003619999999N9999999N1-00611-00661999999ADDMA1999999087611MD1810111+9999ME1313709OA149900621REMSYN076AAXX  08014 06689 33/// /0807 11061 21066 38761 48370 58011 333 91112 91208;
0137066890999992010010802004+47367+008950FM-12+114499999V0200801N004119999999N9999999N1-00631-00681999999ADDMA1999999087601MD1719999+9999ME1313699OA149900721REMSYN076AAXX  08024 06689 33/// /0808 11063 21068 38760 48369 57/// 333 91114 91208;
0137066890999992010010803004+47367+008950FM-12+114499999V0200801N003619999999N9999999N1-00671-00711999999ADDMA1999999087591MD1719999+9999ME1313689OA149900721REMSYN076AAXX  08034 06689 33/// /0807 11067 21071 38759 48368 57/// 333 91114 91209;
0137066890999992010010804004+47367+008950FM-12+114499999V0200801N003619999999N9999999N1-00701-00731999999ADDMA1999999087541MD1710071+9999ME1313639OA149900671REMSYN076AAXX  08044 06689 33/// /0807 11070 21073 38754 48363 57007 333 91113 91208;
0137066890999992010010805004+47367+008950FM-12+114499999V0200901N003619999999N9999999N1-00711-00751999999ADDMA1999999087471MD1710131+9999ME1313579OA149900771REMSYN076AAXX  08054 06689 33/// /0907 11071 21075 38747 48357 57013 333 91115 91208;
0216066890999992010010806004+47367+008950FM-12+114499999V0200901N003619999999N9999999N1-00681-00711999999ADDAA124000091AL19900091GJ101749KA1999N-00711MA1999999087421MD1610171+9999ME1313539OA149900771REMSYN094AAXX  08064 06689 33/// /0907 11068 21071 38742 48353 56017 333 21071 55029 70000 91115 91209;EQDQ01  00002PRCP24
0137066890999992010010807004+47367+008950FM-12+114499999V0200801N003119999999N9999999N1-00691-00711999999ADDMA1999999087401MD1610141+9999ME1313519OA149900771REMSYN076AAXX  08074 06689 33/// /0806 11069 21071 38740 48351 56014 333 91115 91208;
0137066890999992010010808004+47367+008950FM-12+114499999V0200801N003119999999N9999999N1-00721-00771999999ADDMA1999999087361MD1610111+9999ME1313479OA149900671REMSYN076AAXX  08084 06689 33/// /0806 11072 21077 38736 48347 56011 333 91113 91207;
0137066890999992010010809004+47367+008950FM-12+114499999V0200801N002619999999N9999999N1-00751-00771999999ADDMA1999999087321MD1810101+9999ME1313439OA149900771REMSYN076AAXX  08094 06689 33/// /0805 11075 21077 38732 48343 58010 333 91115 91208;
0154066890999992010010810004+47367+008950FM-12+114499999V0200801N002119999999N9999999N1-00751-00791999999ADDAA101000021MA1999999087291MD1710111+9999ME1313419OA149900621REMSYN082AAXX  08104 06689 23/// /0804 11075 21079 38729 48341 57011 333 69915 91112 91206;
0137066890999992010010811004+47367+008950FM-12+114499999V0200801N001519999999N9999999N1-00741-00791999999ADDMA1999999087211MD1710151+9999ME1313349OA149900571REMSYN076AAXX  08114 06689 33/// /0803 11074 21079 38721 48334 57015 333 91111 91205;
0179066890999992010010812004+47367+008950FM-12+114499999V0200701N001519999999N9999999N1-00741-00781999999ADDAA106000091MA1999999087141MD1710181+9999ME1313279OA149900771REMSYN088AAXX  08124 06689 03/// /0703 11074 21078 38714 48327 57018 69911 333 60005 91115 91208;EQDQ01  00002PRCP06
0137066890999992010010813004+47367+008950FM-12+114499999V0200701N002119999999N9999999N1-00761-00801999999ADDMA1999999087091MD1710201+9999ME1313239OA149900461REMSYN076AAXX  08134 06689 33/// /0704 11076 21080 38709 48323 57020 333 91109 91204;
0154066890999992010010814004+47367+008950FM-12+114499999V0200801N002119999999N9999999N1-00751-00771999999ADDAA101000021MA1999999087081MD1719999+9999ME1313229OA149900571REMSYN082AAXX  08144 06689 23/// /0804 11075 21077 38708 48322 57/// 333 69915 91111 91204;
0137066890999992010010815004+47367+008950FM-12+114499999V0200801N001519999999N9999999N1-00771-00791999999ADDMA1999999087091MD1510051+9999ME1313239OA149900571REMSYN076AAXX  08154 06689 33/// /0803 11077 21079 38709 48323 55005 333 91111 91205;
0137066890999992010010816004+47367+008950FM-12+114499999V0200801N001519999999N9999999N1-00751-00791999999ADDMA1999999087121MD1310031+9999ME1313269OA149900511REMSYN076AAXX  08164 06689 33/// /0803 11075 21079 38712 48326 53003 333 91110 91204;
0137066890999992010010817004+47367+008950FM-12+114499999V0200801N001519999999N9999999N1-00741-00761999999ADDMA1999999087151MD1119999+9999ME1313289OA149900461REMSYN076AAXX  08174 06689 33/// /0803 11074 21076 38715 48328 51/// 333 91109 91204;
0198066890999992010010818004+47367+008950FM-12+114499999V0200501N000519999999N9999999N1-00741-00771999999ADDAA112000091KA1120M-00681MA1999999087191MD1210101+9999ME1313329OA149900671REMSYN094AAXX  08184 06689 03/// /0501 11074 21077 38719 48332 52010 69922 333 11068 60005 91113 91207;EQDQ01  00002PRCP12
0137066890999992010010819004+47367+008950FM-12+114499999V0200701N001519999999N9999999N1-00751-00761999999ADDMA1999999087201MD1210081+9999ME1313339OA149900361REMSYN076AAXX  08194 06689 33/// /0703 11075 21076 38720 48333 52008 333 91107 91203;
0137066890999992010010820004+47367+008950FM-12+114499999V0200601N001519999999N9999999N1-00741-00791999999ADDMA1999999087211MD1210061+9999ME1313349OA149900361REMSYN076AAXX  08204 06689 33/// /0603 11074 21079 38721 48334 52006 333 91107 91203;
0137066890999992010010821004+47367+008950FM-12+114499999V0200801N001019999999N9999999N1-00761-00801999999ADDMA1999999087191MD1410001+9999ME1313329OA149900461REMSYN076AAXX  08214 06689 33/// /0802 11076 21080 38719 48332 58000 333 91109 91204;
0137066890999992010010822004+47367+008950FM-12+114499999V0200701N001019999999N9999999N1-00791-00811999999ADDMA1999999087181MD1710021+9999ME1313319OA149900361REMSYN076AAXX  08224 06689 33/// /0702 11079 21081 38718 48331 57002 333 91107 91203;
0137066890999992010010823004+47367+008950FM-12+114499999V0200601N001519999999N9999999N1-00781-00801999999ADDMA1999999087211MD1510001+9999ME1313339OA149900361REMSYN076AAXX  08234 06689 33/// /0603 11078 21080 38721 48333 55000 333 91107 91203;
0137066890999992010010900004+47367+008950FM-12+114499999V0200601N001019999999N9999999N1-00791-00811999999ADDMA1999999087231MD1210041+9999ME1313359OA149900571REMSYN076AAXX  09004 06689 33/// /0602 11079 21081 38723 48335 52004 333 91111 91204;
0137066890999992010010901004+47367+008950FM-12+114499999V0200601N001519999999N9999999N1-00791-00831999999ADDMA1999999087211MD1010031+9999ME1313339OA149900311REMSYN076AAXX  09014 06689 33/// /0603 11079 21083 38721 48333 50003 333 91106 91203;
0137066890999992010010902004+47367+008950FM-12+114499999V0200501N001019999999N9999999N1-00771-00791999999ADDMA1999999087191MD1719999+9999ME1313329OA149900311REMSYN076AAXX  09024 06689 33/// /0502 11077 21079 38719 48332 57/// 333 91106 91203;
0137066890999992010010903004+47367+008950FM-12+114499999V0209999C000519999999N9999999N1-00821-00841999999ADDMA1999999087211MD1519999+9999ME1313339OA149900361REMSYN076AAXX  09034 06689 33/// /0001 11082 21084 38721 48333 55/// 333 91107 91203;
0137066890999992010010904004+47367+008950FM-12+114499999V0200401N001019999999N9999999N1-00851-00861999999ADDMA1999999087171MD1810041+9999ME1313299OA149900211REMSYN076AAXX  09044 06689 33/// /0402 11085 21086 38717 48329 58004 333 91104 91202;
0154066890999992010010905004+47367+008950FM-12+114499999V0200201N000519999999N9999999N1-00861-00881999999ADDAA101000021MA1999999087151MD1710041+9999ME1313279OA149900211REMSYN082AAXX  09054 06689 23/// /0201 11086 21088 38715 48327 57004 333 69915 91104 91202;
0239066890999992010010906004+47367+008950FM-12+114499999V0200201N000519999999N9999999N1-00881-00911999999ADDAA112000091AA224000391AL11800091GJ100009KA1999N-00891MA1999999087101MD1710111+9999ME1313239OA149900361REMSYN106AAXX  09064 06689 03/// /0201 11088 21091 38710 48323 57011 69912 333 21089 55000 60005 70003 91107 91203;EQDQ01  00002PRCP12
0137066890999992010010907004+47367+008950FM-12+114499999V0200101N000519999999N9999999N1-00911-00931999999ADDMA1999999087111MD1710061+9999ME1313249OA149900211REMSYN076AAXX  09074 06689 33/// /0101 11091 21093 38711 48324 57006 333 91104 91202;
0137066890999992010010908004+47367+008950FM-12+114499999V0200201N000519999999N9999999N1-00911-00951999999ADDMA1999999087101MD1510051+9999ME1313239OA149900211REMSYN076AAXX  09084 06689 33/// /0201 11091 21095 38710 48323 55005 333 91104 91201;
0137066890999992010010909004+47367+008950FM-12+114499999V0200101N000519999999N9999999N1-00921-00951999999ADDMA1999999087111MD1210011+9999ME1313239OA149900211REMSYN076AAXX  09094 06689 33/// /0101 11092 21095 38711 48323 52001 333 91104 91202;
0137066890999992010010910004+47367+008950FM-12+114499999V0209999C000519999999N9999999N1-00921-00941999999ADDMA1999999087111MD1010001+9999ME1313239OA149900151REMSYN076AAXX  09104 06689 33/// /0001 11092 21094 38711 48323 50000 333 91103 91201;
0137066890999992010010911004+47367+008950FM-12+114499999V0200301N000519999999N9999999N1-00931-00971999999ADDMA1999999087081MD1710021+9999ME1313219OA149900151REMSYN076AAXX  09114 06689 33/// /0301 11093 21097 38708 48321 57002 333 91103 91201;
0137066890999992010010912004+47367+008950FM-12+114499999V0200101N000519999999N9999999N1-00921-00951999999ADDMA1999999087031MD1710081+9999ME1313169OA149900311REMSYN076AAXX  09124 06689 33/// /0101 11092 21095 38703 48316 57008 333 91106 91203;
0137066890999992010010913004+47367+008950FM-12+114499999V0200301N000519999999N9999999N1-00901-00931999999ADDMA1999999087011MD1710101+9999ME1313159OA149900151REMSYN076AAXX  09134 06689 33/// /0301 11090 21093 38701 48315 57010 333 91103 91201;
0137066890999992010010914004+47367+008950FM-12+114499999V0200401N001019999999N9999999N1-00901-00951999999ADDMA1999999087031MD1510051+9999ME1313179OA149900211REMSYN076AAXX  09144 06689 33/// /0402 11090 21095 38703 48317 55005 333 91104 91202;
0137066890999992010010915004+47367+008950FM-12+114499999V0200101N000519999999N9999999N1-00911-00941999999ADDMA1999999087061MD1310031+9999ME1313199OA149900211REMSYN076AAXX  09154 06689 33/// /0101 11091 21094 38706 48319 53003 333 91104 91202;
0154066890999992010010916004+47367+008950FM-12+114499999V0200101N000519999999N9999999N1-00901-00951999999ADDAA101000021MA1999999087081MD1110071+9999ME1313219OA149900151REMSYN082AAXX  09164 06689 23/// /0101 11090 21095 38708 48321 51007 333 69915 91103 91202;
0154066890999992010010917004+47367+008950FM-12+114499999V0200401N001019999999N9999999N1-00931-01001999999ADDAA101000891MA1999999087071MD1210041+9999ME1313209OA149900211REMSYN082AAXX  09174 06689 23/// /0402 11093 21100 38707 48320 52004 333 69975 91104 91202;
0179066890999992010010918004+47367+008950FM-12+114499999V0200201N000519999999N9999999N1-00931-01021999999ADDAA112002091KA1120M-00871MA1999999087081MD1210021+9999ME1313219OA149900211REMSYN094AAXX  09184 06689 03/// /0201 11093 21102 38708 48321 52002 60022 333 11087 69985 91104 91202;
0154066890999992010010919004+47367+008950FM-12+114499999V0203501N000519999999N9999999N1-00951-01001999999ADDAA101000021MA1999999087141MD1210061+9999ME1313269OA149900211REMSYN082AAXX  09194 06689 23/// /3501 11095 21100 38714 48326 52006 333 69925 91104 91202;
0137066890999992010010920004+47367+008950FM-12+114499999V0200101N000519999999N9999999N1-00951-00981999999ADDMA1999999087151MD1210081+9999ME1313279OA149900151REMSYN076AAXX  09204 06689 33/// /0101 11095 21098 38715 48327 52008 333 91103 91201;
0137066890999992010010921004+47367+008950FM-12+114499999V0200101N000519999999N9999999N1-00941-00981999999ADDMA1999999087181MD1210101+9999ME1313299OA149900211REMSYN076AAXX  09214 06689 33/// /0101 11094 21098 38718 48329 52010 333 91104 91202;
0137066890999992010010922004+47367+008950FM-12+114499999V0209999C000019999999N9999999N1-00931-00951999999ADDMA1999999087211MD1210071+9999ME1313329OA149900101REMSYN076AAXX  09224 06689 33/// /0000 11093 21095 38721 48332 52007 333 91102 91201;
0154066890999992010010923004+47367+008950FM-12+114499999V0200401N000519999999N9999999N1-00931-00981999999ADDAA101000391MA1999999087251MD1310101+9999ME1313369OA149900151REMSYN082AAXX  09234 06689 23/// /0401 11093 21098 38725 48336 53010 333 69935 91103 91201;
0160066890999992010011000004+47367+008950FM-12+114499999V0200401N000519999999N9999999N1-00911-00921999999ADDAA106000591MA1999999087271MD1110091+9999ME1313389OA149900211REMSYN088AAXX  10004 06689 03/// /0401 11091 21092 38727 48338 51009 69951 333 60005 91104 91202;
0137066890999992010011001004+47367+008950FM-12+114499999V0209999C000019999999N9999999N1-00901-00921999999ADDMA1999999087291MD1110081+9999ME1313399OA149900151REMSYN076AAXX  10014 06689 33/// /0000 11090 21092 38729 48339 51008 333 91103 91201;
0096066890999992010011002004+47367+008950FM-12+114499999V0203101N000519999999N9999999N1-00881-00911999999ADDMA1999999087351ME1313459REMSYN060AAXX  10024 06689 33/// /3101 11088 21091 38735 48345 5////;
0096066890999992010011003004+47367+008950FM-12+114499999V0202801N000519999999N9999999N1-00871-00901999999ADDMA1999999087381ME1313489REMSYN060AAXX  10034 06689 43/// /2801 11087 21090 38738 48348 5////;
0137066890999992010011004004+47367+008950FM-12+114499999V0203101N000519999999N9999999N1-00871-00921999999ADDMA1999999087431MD1110141+9999ME1313529OA149900101REMSYN076AAXX  10044 06689 33/// /3101 11087 21092 38743 48352 51014 333 91102 91201;
0137066890999992010011005004+47367+008950FM-12+114499999V0202801N001019999999N9999999N1-00891-00931999999ADDMA1999999087481MD1310131+9999ME1313569OA149900151REMSYN076AAXX  10054 06689 33/// /2802 11089 21093 38748 48356 53013 333 91103 91202;
0220066890999992010011006004+47367+008950FM-12+114499999V0203101N000519999999N9999999N1-00901-00941999999ADDAA112000591AA224002091AL10600291GJ100009KA1999N-00971MA1999999087521MD1110141+9999ME1313609OA149900151REMSYN106AAXX  10064 06689 03/// /3101 11090 21094 38752 48360 51014 69952 333 21097 55000 60005 70021 91103 91202;
0137066890999992010011007004+47367+008950FM-12+114499999V0202901N000519999999N9999999N1-00891-00941999999ADDMA1999999087581MD1310151+9999ME1313659OA149900151REMSYN076AAXX  10074 06689 33/// /2901 11089 21094 38758 48365 53015 333 91103 91202;
0137066890999992010011008004+47367+008950FM-12+114499999V0203001N000519999999N9999999N1-00911-00961999999ADDMA1999999087651MD1319999+9999ME1313719OA149900151REMSYN076AAXX  10084 06689 33/// /3001 11091 21096 38765 48371 53/// 333 91103 91202;
0137066890999992010011009004+47367+008950FM-12+114499999V0203001N000519999999N9999999N1-00901-00971999999ADDMA1999999087731MD1310211+9999ME1313789OA149900151REMSYN076AAXX  10094 06689 33/// /3001 11090 21097 38773 48378 53021 333 91103 91202;
0137066890999992010011010004+47367+008950FM-12+114499999V0202901N000519999999N9999999N1-00891-00961999999ADDMA1999999087771MD1110191+9999ME1313829OA149900151REMSYN076AAXX  10104 06689 33/// /2901 11089 21096 38777 48382 51019 333 91103 91202;
0137066890999992010011011004+47367+008950FM-12+114499999V0203001N000519999999N9999999N1-00861-00931999999ADDMA1999999087821MD1110171+9999ME1313869OA149900151REMSYN076AAXX  10114 06689 33/// /3001 11086 21093 38782 48386 51017 333 91103 91202;
0137066890999992010011012004+47367+008950FM-12+114499999V0202801N000519999999N9999999N1-00881-00931999999ADDMA1999999087841MD1110111+9999ME1313889OA149900151REMSYN076AAXX  10124 06689 33/// /2801 11088 21093 38784 48388 51011 333 91103 91202;
0137066890999992010011013004+47367+008950FM-12+114499999V0203001N000519999999N9999999N1-00861-00931999999ADDMA1999999087851MD1210081+9999ME1313899OA149900151REMSYN076AAXX  10134 06689 33/// /3001 11086 21093 38785 48389 52008 333 91103 91202;
0137066890999992010011014004+47367+008950FM-12+114499999V0203001N001019999999N9999999N1-00881-00971999999ADDMA1999999087901MD1219999+9999ME1313939OA149900151REMSYN076AAXX  10144 06689 33/// /3002 11088 21097 38790 48393 52/// 333 91103 91202;
0137066890999992010011015004+47367+008950FM-12+114499999V0202501N001019999999N9999999N1-00881-00971999999ADDMA1999999087951MD1210111+9999ME1313989OA149900151REMSYN076AAXX  10154 06689 33/// /2502 11088 21097 38795 48398 52011 333 91103 91202;
0137066890999992010011016004+47367+008950FM-12+114499999V0202801N001019999999N9999999N1-00911-01001999999ADDMA1999999087991MD1110141+9999ME1314019OA149900151REMSYN076AAXX  10164 06689 33/// /2802 11091 21100 38799 48401 51014 333 91103 91202;
0137066890999992010011017004+47367+008950FM-12+114499999V0203001N000519999999N9999999N1-00941-01001999999ADDMA1999999088021MD1210121+9999ME1314039OA149900151REMSYN076AAXX  10174 06689 33/// /3001 11094 21100 38802 48403 52012 333 91103 91202;
0156066890999992010011018004+47367+008950FM-12+114499999V0203001N000519999999N9999999N1-00951-01021999999ADDKA1120M-00851MA1999999088061MD1210111+9999ME1314079OA149900151REMSYN082AAXX  10184 06689 33/// /3001 11095 21102 38806 48407 52011 333 11085 91103 91202;
0137066890999992010011019004+47367+008950FM-12+114499999V0203001N000519999999N9999999N1-00961-01001999999ADDMA1999999088091MD1210101+9999ME1314099OA149900101REMSYN076AAXX  10194 06689 33/// /3001 11096 21100 38809 48409 52010 333 91102 91202;
0137066890999992010011020004+47367+008950FM-12+114499999V0202601N001019999999N9999999N1-00941-01011999999ADDMA1999999088081MD1210061+9999ME1314089OA149900151REMSYN076AAXX  10204 06689 33/// /2602 11094 21101 38808 48408 52006 333 91103 91202;
0137066890999992010011021004+47367+008950FM-12+114499999V0202901N000519999999N9999999N1-00931-01031999999ADDMA1999999088101MD1210041+9999ME1314109OA149900151REMSYN076AAXX  10214 06689 33/// /2901 11093 21103 38810 48410 52004 333 91103 91202;
0137066890999992010011022004+47367+008950FM-12+114499999V0203001N001019999999N9999999N1-00931-01061999999ADDMA1999999088101MD1210011+9999ME1314109OA149900151REMSYN076AAXX  10224 06689 33/// /3002 11093 21106 38810 48410 52001 333 91103 91202;
0137066890999992010011023004+47367+008950FM-12+114499999V0202901N000519999999N9999999N1-00911-01021999999ADDMA1999999088111MD1210031+9999ME1314119OA149900101REMSYN076AAXX  10234 06689 33/// /2901 11091 21102 38811 48411 52003 333 91102 91202;
0137066890999992010011100004+47367+008950FM-12+114499999V0202701N000519999999N9999999N1-00911-01001999999ADDMA1999999088081MD1710021+9999ME1314099OA149900151REMSYN076AAXX  11004 06689 33/// /2701 11091 21100 38808 48409 57002 333 91103 91202;
0137066890999992010011101004+47367+008950FM-12+114499999V0209999C000019999999N9999999N1-00931-00991999999ADDMA1999999088081MD1710021+9999ME1314099OA149900101REMSYN076AAXX  11014 06689 33/// /0000 11093 21099 38808 48409 57002 333 91102 91201;
0137066890999992010011102004+47367+008950FM-12+114499999V0202601N001019999999N9999999N1-00931-01021999999ADDMA1999999088101MD1519999+9999ME1314109OA149900101REMSYN076AAXX  11024 06689 33/// /2602 11093 21102 38810 48410 55/// 333 91102 91202;
0137066890999992010011103004+47367+008950FM-12+114499999V0202601N001019999999N9999999N1-00941-01001999999ADDMA1999999088101MD1219999+9999ME1314109OA149900101REMSYN076AAXX  11034 06689 33/// /2602 11094 21100 38810 48410 52/// 333 91102 91202;
0137066890999992010011104004+47367+008950FM-12+114499999V0203001N000519999999N9999999N1-00941-01001999999ADDMA1999999088091MD1210011+9999ME1314099OA149900101REMSYN076AAXX  11044 06689 33/// /3001 11094 21100 38809 48409 52001 333 91102 91202;
0137066890999992010011105004+47367+008950FM-12+114499999V0202901N000519999999N9999999N1-00991-01001999999ADDMA1999999088091MD1710011+9999ME1314099OA149900101REMSYN076AAXX  11054 06689 33/// /2901 11099 21100 38809 48409 57001 333 91102 91201;
0216066890999992010011106004+47367+008950FM-12+114499999V0209999C000019999999N9999999N1-00951-01031999999ADDAA124000091AL19900091GJ100009KA1999N-00991MA1999999088061MD1710041+9999ME1314079OA149900151REMSYN094AAXX  11064 06689 33/// /0000 11095 21103 38806 48407 57004 333 21099 55000 70000 91103 91202;EQDQ01  00002PRCP24
0137066890999992010011107004+47367+008950FM-12+114499999V0209999C000019999999N9999999N1-00971-01021999999ADDMA1999999088091MD1510001+9999ME1314099OA149900051REMSYN076AAXX  11074 06689 33/// /0000 11097 21102 38809 48409 55000 333 91101 91200;
0137066890999992010011108004+47367+008950FM-12+114499999V0209999C000019999999N9999999N1-00971-01051999999ADDMA1999999088091MD1319999+9999ME1314099OA149900051REMSYN076AAXX  11084 06689 33/// /0000 11097 21105 38809 48409 53/// 333 91101 91200;
0137066890999992010011109004+47367+008950FM-12+114499999V0209999C000019999999N9999999N1-00881-00961999999ADDMA1999999088091MD1210031+9999ME1314109OA149900101REMSYN076AAXX  11094 06689 33/// /0000 11088 21096 38809 48410 52003 333 91102 91201;
0137066890999992010011110004+47367+008950FM-12+114499999V0209999C000019999999N9999999N1-00861-00871999999ADDMA1999999088091MD1019999+9999ME1314109OA149900051REMSYN076AAXX  11104 06689 33/// /0000 11086 21087 38809 48410 50/// 333 91101 91200;
0137066890999992010011111004+47367+008950FM-12+114499999V0209999C000019999999N9999999N1-00821-00851999999ADDMA1999999088091MD1010001+9999ME1314119OA149900051REMSYN076AAXX  11114 06689 33/// /0000 11082 21085 38809 48411 50000 333 91101 91200;
0137066890999992010011112004+47367+008950FM-12+114499999V0209999C000019999999N9999999N1-00811-00851999999ADDMA1999999088071MD1810021+9999ME1314099OA149900101REMSYN076AAXX  11124 06689 33/// /0000 11081 21085 38807 48409 58002 333 91102 91202;
0137066890999992010011113004+47367+008950FM-12+114499999V0202601N001019999999N9999999N1-00811-00871999999ADDMA1999999088061MD1710031+9999ME1314089OA149900101REMSYN076AAXX  11134 06689 33/// /2602 11081 21087 38806 48408 57003 333 91102 91202;
0096066890999992010011114004+47367+008950FM-12+114499999V0202601N001019999999N9999999N1-00791-00841999999ADDMA1999999088071ME1314099REMSYN060AAXX  11144 06689 33/// /2602 11079 21084 38807 48409 5////;
0137066890999992010011115004+47367+008950FM-12+114499999V0202601N001019999999N9999999N1-00791-00841999999ADDMA1999999088111MD1310041+9999ME1314139OA149900101REMSYN076AAXX  11154 06689 33/// /2602 11079 21084 38811 48413 53004 333 91102 91202;
0137066890999992010011116004+47367+008950FM-12+114499999V0202501N001519999999N9999999N1-00821-00891999999ADDMA1999999088141MD1310081+9999ME1314159OA149900151REMSYN076AAXX  11164 06689 33/// /2503 11082 21089 38814 48415 53008 333 91103 91203;
0137066890999992010011117004+47367+008950FM-12+114499999V0202601N001519999999N9999999N1-00841-00931999999ADDMA1999999088191MD1110121+9999ME1314199OA149900151REMSYN076AAXX  11174 06689 33/// /2603 11084 21093 38819 48419 51012 333 91103 91203;
0198066890999992010011118004+47367+008950FM-12+114499999V0202601N001519999999N9999999N1-00821-00891999999ADDAA112000091KA1120M-00781MA1999999088231MD1310121+9999ME1314239OA149900211REMSYN094AAXX  11184 06689 03/// /2603 11082 21089 38823 48423 53012 69922 333 11078 69925 91104 91203;EQDQ01  00002PRCP12
0154066890999992010011119004+47367+008950FM-12+114499999V0202701N001519999999N9999999N1-00801-00891999999ADDAA101000021MA1999999088251MD1110111+9999ME1314259OA149900211REMSYN082AAXX  11194 06689 23/// /2703 11080 21089 38825 48425 51011 333 69915 91104 91203;
0137066890999992010011120004+47367+008950FM-12+114499999V0202601N001519999999N9999999N1-00781-00841999999ADDMA1999999088261MD1110071+9999ME1314269OA149900151REMSYN076AAXX  11204 06689 33/// /2603 11078 21084 38826 48426 51007 333 91103 91203;
0154066890999992010011121004+47367+008950FM-12+114499999V0202701N001519999999N9999999N1-00771-00821999999ADDAA101000021MA1999999088271MD1110041+9999ME1314279OA149900211REMSYN082AAXX  11214 06689 23/// /2703 11077 21082 38827 48427 51004 333 69915 91104 91203;
0154066890999992010011122004+47367+008950FM-12+114499999V0202801N001019999999N9999999N1-00761-00851999999ADDAA101000021MA1999999088281MD1210031+9999ME1314289OA149900211REMSYN082AAXX  11224 06689 23/// /2802 11076 21085 38828 48428 52003 333 69925 91104 91203;
0154066890999992010011123004+47367+008950FM-12+114499999V0202801N001019999999N9999999N1-00781-00871999999ADDAA101000591MA1999999088291MD1210031+9999ME1314299OA149900151REMSYN082AAXX  11234 06689 23/// /2802 11078 21087 38829 48429 52003 333 69945 91103 91203;
0160066890999992010011200004+47367+008950FM-12+114499999V0202701N001019999999N9999999N1-00771-00861999999ADDAA106001091MA1999999088291MD1210021+9999ME1314299OA149900211REMSYN088AAXX  12004 06689 03/// /2702 11077 21086 38829 48429 52002 60011 333 69925 91104 91203;
0154066890999992010011201004+47367+008950FM-12+114499999V0202801N001019999999N9999999N1-00761-00851999999ADDAA101000021MA1999999088281MD1010001+9999ME1314289OA149900151REMSYN082AAXX  12014 06689 23/// /2802 11076 21085 38828 48428 50000 333 69925 91103 91203;
0154066890999992010011202004+47367+008950FM-12+114499999V0202901N001019999999N9999999N1-00781-00841999999ADDAA101000021MA1999999088281MD1719999+9999ME1314289OA149900151REMSYN082AAXX  12024 06689 23/// /2902 11078 21084 38828 48428 57/// 333 69915 91103 91203;
0137066890999992010011203004+47367+008950FM-12+114499999V0202901N001019999999N9999999N1-00781-00841999999ADDMA1999999088271MD1710021+9999ME1314279OA149900151REMSYN076AAXX  12034 06689 33/// /2902 11078 21084 38827 48427 57002 333 91103 91203;
0137066890999992010011204004+47367+008950FM-12+114499999V0202801N001019999999N9999999N1-00771-00841999999ADDMA1999999088261MD1710021+9999ME1314269OA149900151REMSYN076AAXX  12044 06689 33/// /2802 11077 21084 38826 48426 57002 333 91103 91202;
0137066890999992010011205004+47367+008950FM-12+114499999V0203101N000519999999N9999999N1-00781-00821999999ADDMA1999999088251MD1710031+9999ME1314259OA149900151REMSYN076AAXX  12054 06689 33/// /3101 11078 21082 38825 48425 57003 333 91103 91202;
0220066890999992010011206004+47367+008950FM-12+114499999V0202901N000519999999N9999999N1-00731-00851999999ADDAA112001091AA224001591AL13000191GJ100009KA1999N-00831MA1999999088241MD1710031+9999ME1314259OA149900211REMSYN106AAXX  12064 06689 03/// /2901 11073 21085 38824 48425 57003 60012 333 21083 55000 60005 70015 91104 91203;
0137066890999992010011207004+47367+008950FM-12+114499999V0209999C000019999999N9999999N1-00671-00831999999ADDMA1999999088191MD1710071+9999ME1314219OA149900101REMSYN076AAXX  12074 06689 33/// /0000 11067 21083 38819 48421 57007 333 91102 91202;
0137066890999992010011208004+47367+008950FM-12+114499999V0200701N001019999999N9999999N1-00711-00821999999ADDMA1999999088141MD1819999+9999ME1314169OA149900101REMSYN076AAXX  12084 06689 33/// /0702 11071 21082 38814 48416 58/// 333 91102 91202;
0137066890999992010011209004+47367+008950FM-12+114499999V0200801N001519999999N9999999N1-00741-00811999999ADDMA1999999088091MD1810151+9999ME1314119OA149900211REMSYN076AAXX  12094 06689 33/// /0803 11074 21081 38809 48411 58015 333 91104 91203;
0137066890999992010011210004+47367+008950FM-12+114499999V0200901N001519999999N9999999N1-00621-00731999999ADDMA1999999088041MD1810151+9999ME1314089OA149900211REMSYN076AAXX  12104 06689 33/// /0903 11062 21073 38804 48408 58015 333 91104 91203;
0137066890999992010011211004+47367+008950FM-12+114499999V0200801N001519999999N9999999N1-00601-00741999999ADDMA1999999087941MD1810201+9999ME1314009OA149900211REMSYN076AAXX  12114 06689 33/// /0803 11060 21074 38794 48400 58020 333 91104 91203;
0137066890999992010011212004+47367+008950FM-12+114499999V0200701N001019999999N9999999N1-00651-00681999999ADDMA1999999087871MD1710221+9999ME1313939OA149900211REMSYN076AAXX  12124 06689 33/// /0702 11065 21068 38787 48393 57022 333 91104 91203;
0137066890999992010011213004+47367+008950FM-12+114499999V0200801N000519999999N9999999N1-00671-00681999999ADDMA1999999087831MD1710211+9999ME1313899OA149900211REMSYN076AAXX  12134 06689 33/// /0801 11067 21068 38783 48389 57021 333 91104 91203;
0096066890999992010011214004+47367+008950FM-12+114499999V0209999C000019999999N9999999N1-00671-00671999999ADDMA1999999087791ME1313869REMSYN060AAXX  12144 06689 33/// /0000 11067 21067 38779 48386 5////;
0137066890999992010011215004+47367+008950FM-12+114499999V0200801N001019999999N9999999N1-00691-00721999999ADDMA1999999087701MD1710171+9999ME1313789OA149900211REMSYN076AAXX  12154 06689 33/// /0802 11069 21072 38770 48378 57017 333 91104 91203;
0137066890999992010011216004+47367+008950FM-12+114499999V0200901N001019999999N9999999N1-00721-00731999999ADDMA1999999087621MD1710211+9999ME1313709OA149900211REMSYN076AAXX  12164 06689 33/// /0902 11072 21073 38762 48370 57021 333 91104 91203;
0137066890999992010011217004+47367+008950FM-12+114499999V0200901N001019999999N9999999N1-00751-00771999999ADDMA1999999087561MD1610231+9999ME1313659OA149900211REMSYN076AAXX  12174 06689 33/// /0902 11075 21077 38756 48365 56023 333 91104 91203;
0156066890999992010011218004+47367+008950FM-12+114499999V0200801N000519999999N9999999N1-00751-00771999999ADDKA1120M-00591MA1999999087541MD1710161+9999ME1313639OA149900211REMSYN082AAXX  12184 06689 33/// /0801 11075 21077 38754 48363 57016 333 11059 91104 91203;
0137066890999992010011219004+47367+008950FM-12+114499999V0209999C000019999999N9999999N1-00741-00741999999ADDMA1999999087521MD1710101+9999ME1313619OA149900101REMSYN076AAXX  12194 06689 33/// /0000 11074 21074 38752 48361 57010 333 91102 91202;
0137066890999992010011220004+47367+008950FM-12+114499999V0201601N000519999999N9999999N1-00301-00691999999ADDMA1999999087501MD1710061+9999ME1313639OA149900101REMSYN076AAXX  12204 06689 33/// /1601 11030 21069 38750 48363 57006 333 91102 91201;
0137066890999992010011221004+47367+008950FM-12+114499999V0201101N001519999999N9999999N1-00331-00631999999ADDMA1999999087411MD1710131+9999ME1313559OA149900211REMSYN076AAXX  12214 06689 33/// /1103 11033 21063 38741 48355 57013 333 91104 91203;
0137066890999992010011222004+47367+008950FM-12+114499999V0201601N001019999999N9999999N1-00091-00881999999ADDMA1999999087381MD1810141+9999ME1313549OA149900151REMSYN076AAXX  12224 06689 33/// /1602 11009 21088 38738 48354 58014 333 91103 91203;
0137066890999992010011223004+47367+008950FM-12+114499999V0201601N002119999999N9999999N1-00221-00761999999ADDMA1999999087331MD1610171+9999ME1313499OA149900211REMSYN076AAXX  12234 06689 33/// /1604 11022 21076 38733 48349 56017 333 91104 91204;
0137066890999992010011300004+47367+008950FM-12+114499999V0202001N001519999999N9999999N1-00461-00751999999ADDMA1999999087311MD1810101+9999ME1313459OA149900261REMSYN076AAXX  13004 06689 33/// /2003 11046 21075 38731 48345 58010 333 91105 91204;
0156066890999992010011301004+47367+008950FM-12+114499999V0202301N004119999999N9999999N1-00571-00741999999ADDMA1999999087381MD1410001+9999ME1313509OA149900511REMSYN076AAXX  13014 06689 33/// /2308 11057 21074 38738 48350 53000 333 91110 91208;EQDQ01+000032APCTEN
0137066890999992010011302004+47367+008950FM-12+114499999V0202501N003119999999N9999999N1-00701-00731999999ADDMA1999999087411MD1219999+9999ME1313529OA149900511REMSYN076AAXX  13024 06689 33/// /2506 11070 21073 38741 48352 52/// 333 91110 91208;
0137066890999992010011303004+47367+008950FM-12+114499999V0201801N003119999999N9999999N1-00411-00801999999ADDMA1999999087341MD1019999+9999ME1313489OA149900511REMSYN076AAXX  13034 06689 33/// /1806 11041 21080 38734 48348 50/// 333 91110 91208;
0137066890999992010011304004+47367+008950FM-12+114499999V0202201N001019999999N9999999N1-00311-00841999999ADDMA1999999087311MD1710071+9999ME1313469OA149900461REMSYN076AAXX  13044 06689 33/// /2202 11031 21084 38731 48346 57007 333 91109 91208;
0137066890999992010011305004+47367+008950FM-12+114499999V0201301N001519999999N9999999N1+00061-01021999999ADDMA1999999087281MD1610131+9999ME1313469OA149900461REMSYN076AAXX  13054 06689 33/// /1303 10006 21102 38728 48346 56013 333 91109 91208;
0216066890999992010011306004+47367+008950FM-12+114499999V0201701N002119999999N9999999N1-00271-00731999999ADDAA124000091AL19900091GJ100909KA1999N-00761MA1999999087301MD1510041+9999ME1313459OA149900511REMSYN094AAXX  13064 06689 33/// /1704 11027 21073 38730 48345 55004 333 21076 55015 70000 91110 91208;EQDQ01  00002PRCP24
0137066890999992010011307004+47367+008950FM-12+114499999V0201701N004619999999N9999999N1-00031-00951999999ADDMA1999999087351MD1310041+9999ME1313529OA149900571REMSYN076AAXX  13074 06689 33/// /1709 11003 21095 38735 48352 53004 333 91111 91209;
0137066890999992010011308004+47367+008950FM-12+114499999V0202201N005119999999N9999999N1-00331-00681999999ADDMA1999999087421MD1210141+9999ME1313569OA149900671REMSYN076AAXX  13084 06689 33/// /2210 11033 21068 38742 48356 52014 333 91113 91211;
0137066890999992010011309004+47367+008950FM-12+114499999V0201801N006719999999N9999999N1-00181-00371999999ADDMA1999999087481MD1310181+9999ME1313629OA149900881REMSYN076AAXX  13094 06689 33/// /1813 11018 21037 38748 48362 53018 333 91117 91213;
0137066890999992010011310004+47367+008950FM-12+114499999V0202101N004619999999N9999999N1-00261-00511999999ADDMA1999999087521MD1110171+9999ME1313659OA149900881REMSYN076AAXX  13104 06689 33/// /2109 11026 21051 38752 48365 51017 333 91117 91213;
0137066890999992010011311004+47367+008950FM-12+114499999V0202001N005119999999N9999999N1-00311-00411999999ADDMA1999999087531MD1210111+9999ME1313669OA149900771REMSYN076AAXX  13114 06689 33/// /2010 11031 21041 38753 48366 52011 333 91115 91212;
0137066890999992010011312004+47367+008950FM-12+114499999V0202101N004619999999N9999999N1-00231-00261999999ADDMA1999999087531MD1010051+9999ME1313679OA149900881REMSYN076AAXX  13124 06689 33/// /2109 11023 21026 38753 48367 50005 333 91117 91213;
0137066890999992010011313004+47367+008950FM-12+114499999V0202201N004619999999N9999999N1-00231-00281999999ADDMA1999999087541MD1210021+9999ME1313679OA149900771REMSYN076AAXX  13134 06689 33/// /2209 11023 21028 38754 48367 52002 333 91115 91210;
0137066890999992010011314004+47367+008950FM-12+114499999V0202201N005719999999N9999999N1-00191-00231999999ADDMA1999999087571MD1219999+9999ME1313709OA149900821REMSYN076AAXX  13144 06689 33/// /2211 11019 21023 38757 48370 52/// 333 91116 91211;
0154066890999992010011315004+47367+008950FM-12+114499999V0202401N006219999999N9999999N1-00131-00161999999ADDAA101000021MA1999999087591MD1310061+9999ME1313739OA149900931REMSYN082AAXX  13154 06689 23/// /2412 11013 21016 38759 48373 53006 333 69915 91118 91214;
0154066890999992010011316004+47367+008950FM-12+114499999V0202501N006719999999N9999999N1-00111-00141999999ADDAA101000021MA1999999087631MD1310091+9999ME1313779OA149900981REMSYN082AAXX  13164 06689 23/// /2513 11011 21014 38763 48377 53009 333 69925 91119 91214;
0154066890999992010011317004+47367+008950FM-12+114499999V0202501N006219999999N9999999N1-00111-00141999999ADDAA101000021MA1999999087671MD1310101+9999ME1313809OA149900981REMSYN082AAXX  13174 06689 23/// /2512 11011 21014 38767 48380 53010 333 69915 91119 91214;
0179066890999992010011318004+47367+008950FM-12+114499999V0202601N005119999999N9999999N1-00151-00171999999ADDAA112000891KA1120M-00021MA1999999087721MD1310131+9999ME1313849OA149900981REMSYN094AAXX  13184 06689 03/// /2610 11015 21017 38772 48384 53013 69982 333 11002 69945 91119 91214;
0154066890999992010011319004+47367+008950FM-12+114499999V0202401N005119999999N9999999N1-00151-00171999999ADDAA101000591MA1999999087751MD1110121+9999ME1313879OA149900881REMSYN082AAXX  13194 06689 23/// /2410 11015 21017 38775 48387 51012 333 69945 91117 91212;
0154066890999992010011320004+47367+008950FM-12+114499999V0202501N006719999999N9999999N1-00101-00121999999ADDAA101000021MA1999999087761MD1110091+9999ME1313899OA149900881REMSYN082AAXX  13204 06689 23/// /2513 11010 21012 38776 48389 51009 333 69925 91117 91213;
0154066890999992010011321004+47367+008950FM-12+114499999V0202501N005119999999N9999999N1-00101-00121999999ADDAA101000021MA1999999087781MD1110061+9999ME1313909OA149900981REMSYN082AAXX  13214 06689 23/// /2510 11010 21012 38778 48390 51006 333 69925 91119 91214;
0137066890999992010011322004+47367+008950FM-12+114499999V0202401N003619999999N9999999N1-00131-00131999999ADDMA1999999087781MD1210031+9999ME1313909OA149900821REMSYN076AAXX  13224 06689 33/// /2407 11013 21013 38778 48390 52003 333 91116 91212;
0137066890999992010011323004+47367+008950FM-12+114499999V0202601N003619999999N9999999N1-00071-00111999999ADDMA1999999087751MD1810011+9999ME1313889OA149900671REMSYN076AAXX  13234 06689 33/// /2607 11007 21011 38775 48388 58001 333 91113 91209;
0160066890999992010011400004+47367+008950FM-12+114499999V0202701N002119999999N9999999N1-00071-00131999999ADDAA106000891MA1999999087701MD1710081+9999ME1313839OA149900981REMSYN088AAXX  14004 06689 03/// /2704 11007 21013 38770 48383 57008 69981 333 60005 91119 91214;
0137066890999992010011401004+47367+008950FM-12+114499999V0202601N001519999999N9999999N1-00091-00211999999ADDMA1999999087691MD1610091+9999ME1313829OA149900571REMSYN076AAXX  14014 06689 33/// /2603 11009 21021 38769 48382 56009 333 91111 91208;
0137066890999992010011402004+47367+008950FM-12+114499999V0200901N000519999999N9999999N1-00151-00211999999ADDMA1999999087651MD1619999+9999ME1313789OA149900311REMSYN076AAXX  14024 06689 33/// /0901 11015 21021 38765 48378 56/// 333 91106 91204;
0096066890999992010011403004+47367+008950FM-12+114499999V0200901N003619999999N9999999N1-00131-00181999999ADDMA1999999087591ME1313739REMSYN060AAXX  14034 06689 33/// /0907 11013 21018 38759 48373 5////;
0137066890999992010011404004+47367+008950FM-12+114499999V0200901N003119999999N9999999N1-00161-00201999999ADDMA1999999087541MD1710151+9999ME1313689OA149900571REMSYN076AAXX  14044 06689 33/// /0906 11016 21020 38754 48368 57015 333 91111 91207;
0137066890999992010011405004+47367+008950FM-12+114499999V0200801N001519999999N9999999N1-00181-00191999999ADDMA1999999087551MD1710101+9999ME1313699OA149900571REMSYN076AAXX  14054 06689 33/// /0803 11018 21019 38755 48369 57010 333 91111 91207;
0220066890999992010011406004+47367+008950FM-12+114499999V0200901N002119999999N9999999N1-00191-00201999999ADDAA112000891AA224001591AL13600191GJ100009KA1999N-00191MA1999999087521MD1710071+9999ME1313669OA149900881REMSYN106AAXX  14064 06689 03/// /0904 11019 21020 38752 48366 57007 69982 333 21019 55000 60005 70016 91117 91213;
0137066890999992010011407004+47367+008950FM-12+114499999V0200801N002619999999N9999999N1-00261-00261999999ADDMA1999999087491MD1810051+9999ME1313639OA149900411REMSYN076AAXX  14074 06689 33/// /0805 11026 21026 38749 48363 58005 333 91108 91205;
0137066890999992010011408004+47367+008950FM-12+114499999V0200801N003119999999N9999999N1-00301-00301999999ADDMA1999999087471MD1619999+9999ME1313619OA149900511REMSYN076AAXX  14084 06689 33/// /0806 11030 21030 38747 48361 56/// 333 91110 91206;
0137066890999992010011409004+47367+008950FM-12+114499999V0201001N002619999999N9999999N1-00291-00321999999ADDMA1999999087491MD1510031+9999ME1313629OA149900571REMSYN076AAXX  14094 06689 33/// /1005 11029 21032 38749 48362 55003 333 91111 91207;
0137066890999992010011410004+47367+008950FM-12+114499999V0200801N003119999999N9999999N1-00311-00321999999ADDMA1999999087481MD1510011+9999ME1313619OA149900511REMSYN076AAXX  14104 06689 33/// /0806 11031 21032 38748 48361 55001 333 91110 91207;
0137066890999992010011411004+47367+008950FM-12+114499999V0200801N003619999999N9999999N1-00281-00351999999ADDMA1999999087441MD1810031+9999ME1313589OA149900461REMSYN076AAXX  14114 06689 33/// /0807 11028 21035 38744 48358 58003 333 91109 91207;
0137066890999992010011412004+47367+008950FM-12+114499999V0200801N003619999999N9999999N1-00291-00331999999ADDMA1999999087381MD1710111+9999ME1313529OA149900571REMSYN076AAXX  14124 06689 33/// /0807 11029 21033 38738 48352 57011 333 91111 91207;
0137066890999992010011413004+47367+008950FM-12+114499999V0200701N004119999999N9999999N1-00281-00321999999ADDMA1999999087361MD1610121+9999ME1313519OA149900511REMSYN076AAXX  14134 06689 33/// /0708 11028 21032 38736 48351 56012 333 91110 91208;
0137066890999992010011414004+47367+008950FM-12+114499999V0200801N003619999999N9999999N1-00281-00301999999ADDMA1999999087371MD1510071+9999ME1313529OA149900511REMSYN076AAXX  14144 06689 33/// /0807 11028 21030 38737 48352 55007 333 91110 91209;
0137066890999992010011415004+47367+008950FM-12+114499999V0200801N002619999999N9999999N1-00301-00301999999ADDMA1999999087411MD1310031+9999ME1313559OA149900511REMSYN076AAXX  14154 06689 33/// /0805 11030 21030 38741 48355 53003 333 91110 91209;
0137066890999992010011416004+47367+008950FM-12+114499999V0200801N002619999999N9999999N1-00311-00311999999ADDMA1999999087461MD1210101+9999ME1313609OA149900511REMSYN076AAXX  14164 06689 33/// /0805 11031 21031 38746 48360 52010 333 91110 91207;
0137066890999992010011417004+47367+008950FM-12+114499999V0200701N003619999999N9999999N1-00281-00281999999ADDMA1999999087491MD1110121+9999ME1313629OA149900461REMSYN076AAXX  14174 06689 33/// /0707 11028 21028 38749 48362 51012 333 91109 91207;
0156066890999992010011418004+47367+008950FM-12+114499999V0200801N003119999999N9999999N1-00281-00291999999ADDKA1120M-00181MA1999999087541MD1210131+9999ME1313679OA149900511REMSYN082AAXX  14184 06689 33/// /0806 11028 21029 38754 48367 52013 333 11018 91110 91209;
0137066890999992010011419004+47367+008950FM-12+114499999V0200801N003619999999N9999999N1-00311-00311999999ADDMA1999999087601MD1210141+9999ME1313729OA149900511REMSYN076AAXX  14194 06689 33/// /0807 11031 21031 38760 48372 52014 333 91110 91208;
0137066890999992010011420004+47367+008950FM-12+114499999V0200901N003119999999N9999999N1-00321-00321999999ADDMA1999999087671MD1210181+9999ME1313789OA149900511REMSYN076AAXX  14204 06689 33/// /0906 11032 21032 38767 48378 52018 333 91110 91208;
0137066890999992010011421004+47367+008950FM-12+114499999V0200801N002119999999N9999999N1-00331-00331999999ADDMA1999999087741MD1310201+9999ME1313859OA149900511REMSYN076AAXX  14214 06689 33/// /0804 11033 21033 38774 48385 53020 333 91110 91208;
0137066890999992010011422004+47367+008950FM-12+114499999V0200701N001519999999N9999999N1-00351-00351999999ADDMA1999999087831MD1310231+9999ME1313929OA149900411REMSYN076AAXX  14224 06689 33/// /0703 11035 21035 38783 48392 53023 333 91108 91206;
0137066890999992010011423004+47367+008950FM-12+114499999V0200101N000519999999N9999999N1-00371-00371999999ADDMA1999999087911MD1310241+9999ME1313999OA149900261REMSYN076AAXX  14234 06689 33/// /0101 11037 21037 38791 48399 53024 333 91105 91204;
0137066890999992010011500004+47367+008950FM-12+114499999V0203001N000519999999N9999999N1-00451-00451999999ADDMA1999999087961MD1110221+9999ME1314039OA149900511REMSYN076AAXX  15004 06689 33/// /3001 11045 21045 38796 48403 51022 333 91110 91209;
0137066890999992010011501004+47367+008950FM-12+114499999V0202601N000519999999N9999999N1-00441-00441999999ADDMA1999999088021MD1110191+9999ME1314089OA149900151REMSYN076AAXX  15014 06689 33/// /2601 11044 21044 38802 48408 51019 333 91103 91202;
0137066890999992010011502004+47367+008950FM-12+114499999V0202501N001019999999N9999999N1-00491-00491999999ADDMA1999999088101MD1310191+9999ME1314159OA149900151REMSYN076AAXX  15024 06689 33/// /2502 11049 21049 38810 48415 53019 333 91103 91202;
0096066890999992010011503004+47367+008950FM-12+114499999V0202601N001019999999N9999999N1-00441-00441999999ADDMA1999999088171ME1314229REMSYN060AAXX  15034 06689 33/// /2602 11044 21044 38817 48422 5////;
0137066890999992010011504004+47367+008950FM-12+114499999V0202801N001019999999N9999999N1-00421-00431999999ADDMA1999999088241MD1210221+9999ME1314289OA149900151REMSYN076AAXX  15044 06689 33/// /2802 11042 21043 38824 48428 52022 333 91103 91203;
0137066890999992010011505004+47367+008950FM-12+114499999V0202801N001019999999N9999999N1-00431-00431999999ADDMA1999999088321MD1110221+9999ME1314359OA149900211REMSYN076AAXX  15054 06689 33/// /2802 11043 21043 38832 48435 51022 333 91104 91203;
0216066890999992010011506004+47367+008950FM-12+114499999V0202601N002119999999N9999999N1-00411-00431999999ADDAA124000091AL19900091GJ101689KA1999N-00491MA1999999088411MD1310241+9999ME1314439OA149900511REMSYN094AAXX  15064 06689 33/// /2604 11041 21043 38841 48443 53024 333 21049 55028 70000 91110 91208;EQDQ01  00002PRCP24
0137066890999992010011507004+47367+008950FM-12+114499999V0202501N002119999999N9999999N1-00401-00441999999ADDMA1999999088511MD1310271+9999ME1314529OA149900311REMSYN076AAXX  15074 06689 33/// /2504 11040 21044 38851 48452 53027 333 91106 91204;
0137066890999992010011508004+47367+008950FM-12+114499999V0202501N001519999999N9999999N1-00411-00441999999ADDMA1999999088561MD1119999+9999ME1314579OA149900311REMSYN076AAXX  15084 06689 33/// /2503 11041 21044 38856 48457 51/// 333 91106 91204;
0137066890999992010011509004+47367+008950FM-12+114499999V0202801N001519999999N9999999N1-00391-00411999999ADDMA1999999088661MD1310251+9999ME1314669OA149900311REMSYN076AAXX  15094 06689 33/// /2803 11039 21041 38866 48466 53025 333 91106 91204;
0137066890999992010011510004+47367+008950FM-12+114499999V0202501N001519999999N9999999N1-00391-00421999999ADDMA1999999088711MD1110201+9999ME1314709OA149900211REMSYN076AAXX  15104 06689 33/// /2503 11039 21042 38871 48470 51020 333 91104 91203;
0137066890999992010011511004+47367+008950FM-12+114499999V0202401N001519999999N9999999N1-00261-00361999999ADDMA1999999088751MD1110191+9999ME1314759OA149900261REMSYN076AAXX  15114 06689 33/// /2403 11026 21036 38875 48475 51019 333 91105 91204;
0137066890999992010011512004+47367+008950FM-12+114499999V0202401N001519999999N9999999N1-00171-00301999999ADDMA1999999088791MD1110131+9999ME1314809OA149900311REMSYN076AAXX  15124 06689 33/// /2403 11017 21030 38879 48480 51013 333 91106 91204;
0137066890999992010011513004+47367+008950FM-12+114499999V0202601N001519999999N9999999N1-00161-00251999999ADDMA1999999088841MD1310131+9999ME1314859OA149900261REMSYN076AAXX  15134 06689 33/// /2603 11016 21025 38884 48485 53013 333 91105 91204;
0137066890999992010011514004+47367+008950FM-12+114499999V0202701N000519999999N9999999N1-00251-00251999999ADDMA1999999088901MD1310151+9999ME1314899OA149900261REMSYN076AAXX  15144 06689 33/// /2701 11025 21025 38890 48489 53015 333 91105 91204;
0137066890999992010011515004+47367+008950FM-12+114499999V0202301N001519999999N9999999N1-00181-00331999999ADDMA1999999088951MD1110161+9999ME1314949OA149900261REMSYN076AAXX  15154 06689 33/// /2303 11018 21033 38895 48494 51016 333 91105 91204;
0137066890999992010011516004+47367+008950FM-12+114499999V0202301N001519999999N9999999N1-00241-00271999999ADDMA1999999089011MD1110171+9999ME1314999OA149900261REMSYN076AAXX  15164 06689 33/// /2303 11024 21027 38901 48499 51017 333 91105 91204;
0137066890999992010011517004+47367+008950FM-12+114499999V0202301N001019999999N9999999N1-00251-00281999999ADDMA1999999089061MD1110161+9999ME1315039OA149900261REMSYN076AAXX  15174 06689 33/// /2302 11025 21028 38906 48503 51016 333 91105 91204;
0156066890999992010011518004+47367+008950FM-12+114499999V0202601N001019999999N9999999N1-00261-00301999999ADDKA1120M-00071MA1999999089091MD1110141+9999ME1315059OA149900311REMSYN082AAXX  15184 06689 33/// /2602 11026 21030 38909 48505 51014 333 11007 91106 91204;
0137066890999992010011519004+47367+008950FM-12+114499999V0202301N001519999999N9999999N1-00181-00321999999ADDMA1999999089091MD1210081+9999ME1315079OA149900151REMSYN076AAXX  15194 06689 33/// /2303 11018 21032 38909 48507 52008 333 91103 91203;
0137066890999992010011520004+47367+008950FM-12+114499999V0202301N001019999999N9999999N1-00211-00321999999ADDMA1999999089091MD1210031+9999ME1315069OA149900151REMSYN076AAXX  15204 06689 33/// /2302 11021 21032 38909 48506 52003 333 91103 91203;
0137066890999992010011521004+47367+008950FM-12+114499999V0201901N001519999999N9999999N1-00101-00541999999ADDMA1999999089091MD1010001+9999ME1315089OA149900261REMSYN076AAXX  15214 06689 33/// /1903 11010 21054 38909 48508 50000 333 91105 91204;
0137066890999992010011522004+47367+008950FM-12+114499999V0201801N002119999999N9999999N1+00011-00691999999ADDMA1999999089091MD1010001+9999ME1315099OA149900261REMSYN076AAXX  15224 06689 33/// /1804 10001 21069 38909 48509 50000 333 91105 91204;
0137066890999992010011523004+47367+008950FM-12+114499999V0201901N002119999999N9999999N1-00121-00611999999ADDMA1999999089091MD1010001+9999ME1315079OA149900261REMSYN076AAXX  15234 06689 33/// /1904 11012 21061 38909 48507 50000 333 91105 91204;
0137066890999992010011600004+47367+008950FM-12+114499999V0201001N001519999999N9999999N1-00101-00561999999ADDMA1999999089081MD1810011+9999ME1315079OA149900261REMSYN076AAXX  16004 06689 33/// /1003 11010 21056 38908 48507 58001 333 91105 91204;
0137066890999992010011601004+47367+008950FM-12+114499999V0201301N002119999999N9999999N1-00081-00661999999ADDMA1999999089041MD1810051+9999ME1315049OA149900361REMSYN076AAXX  16014 06689 33/// /1304 11008 21066 38904 48504 58005 333 91107 91206;
0137066890999992010011602004+47367+008950FM-12+114499999V0201501N001519999999N9999999N1-00061-00691999999ADDMA1999999089031MD1710061+9999ME1315039OA149900361REMSYN076AAXX  16024 06689 33/// /1503 11006 21069 38903 48503 57006 333 91107 91206;
0137066890999992010011603004+47367+008950FM-12+114499999V0201201N001519999999N9999999N1-00121-00711999999ADDMA1999999088981MD1719999+9999ME1314989OA149900361REMSYN076AAXX  16034 06689 33/// /1203 11012 21071 38898 48498 57/// 333 91107 91206;
0137066890999992010011604004+47367+008950FM-12+114499999V0201201N000519999999N9999999N1+00031-00841999999ADDMA1999999088961MD1710081+9999ME1314989OA149900211REMSYN076AAXX  16044 06689 33/// /1201 10003 21084 38896 48498 57008 333 91104 91203;
0137066890999992010011605004+47367+008950FM-12+114499999V0201001N000519999999N9999999N1-00131-00721999999ADDMA1999999088921MD1710111+9999ME1314929OA149900211REMSYN076AAXX  16054 06689 33/// /1001 11013 21072 38892 48492 57011 333 91104 91204;
0216066890999992010011606004+47367+008950FM-12+114499999V0209999C000019999999N9999999N1+00021-00881999999ADDAA124000091AL19900091GJ101629KA1999N-00511MA1999999088871MD1710111+9999ME1314909OA149900361REMSYN094AAXX  16064 06689 33/// /0000 10002 21088 38887 48490 57011 333 21051 55027 70000 91107 91206;EQDQ01  00002PRCP24
0137066890999992010011607004+47367+008950FM-12+114499999V0209999C000019999999N9999999N1+00101-01041999999ADDMA1999999088841MD1710121+9999ME1314889OA149900261REMSYN076AAXX  16074 06689 33/// /0000 10010 21104 38884 48488 57012 333 91105 91203;
0137066890999992010011608004+47367+008950FM-12+114499999V0201101N001019999999N9999999N1+00101-00951999999ADDMA1999999088781MD1710141+9999ME1314839OA149900261REMSYN076AAXX  16084 06689 33/// /1102 10010 21095 38878 48483 57014 333 91105 91203;
0137066890999992010011609004+47367+008950FM-12+114499999V0209999C000019999999N9999999N1+00131-01011999999ADDMA1999999088751MD1710121+9999ME1314809OA149900261REMSYN076AAXX  16094 06689 33/// /0000 10013 21101 38875 48480 57012 333 91105 91204;
0137066890999992010011610004+47367+008950FM-12+114499999V0203201N000519999999N9999999N1+00161-01021999999ADDMA1999999088721MD1610121+9999ME1314789OA149900211REMSYN076AAXX  16104 06689 33/// /3201 10016 21102 38872 48478 56012 333 91104 91203;
0137066890999992010011611004+47367+008950FM-12+114499999V0202001N001519999999N9999999N1-00071-00931999999ADDMA1999999088671MD1810111+9999ME1314719OA149900261REMSYN076AAXX  16114 06689 33/// /2003 11007 21093 38867 48471 58011 333 91105 91203;
0137066890999992010011612004+47367+008950FM-12+114499999V0202201N003619999999N9999999N1-00161-00791999999ADDMA1999999088611MD1810141+9999ME1314649OA149900621REMSYN076AAXX  16124 06689 33/// /2207 11016 21079 38861 48464 58014 333 91112 91211;
0137066890999992010011613004+47367+008950FM-12+114499999V0202101N004619999999N9999999N1-00211-00731999999ADDMA1999999088591MD1710131+9999ME1314629OA149900771REMSYN076AAXX  16134 06689 33/// /2109 11021 21073 38859 48462 57013 333 91115 91213;
0137066890999992010011614004+47367+008950FM-12+114499999V0202001N006719999999N9999999N1+00101-01121999999ADDMA1999999088581MD1719999+9999ME1314659OA149900981REMSYN076AAXX  16144 06689 33/// /2013 10010 21112 38858 48465 57/// 333 91119 91214;
0137066890999992010011615004+47367+008950FM-12+114499999V0202401N004119999999N9999999N1+00261-01251999999ADDMA1999999088571MD1710041+9999ME1314669OA149900981REMSYN076AAXX  16154 06689 33/// /2408 10026 21125 38857 48466 57004 333 91119 91214;
0137066890999992010011616004+47367+008950FM-12+114499999V0202701N007219999999N9999999N1+00111-00981999999ADDMA1999999088551MD1710041+9999ME1314629OA149900931REMSYN076AAXX  16164 06689 33/// /2714 10011 21098 38855 48462 57004 333 91118 91214;
0137066890999992010011617004+47367+008950FM-12+114499999V0202701N007219999999N9999999N1+00071-00801999999ADDMA1999999088501MD1710081+9999ME1314579OA149900981REMSYN076AAXX  16174 06689 33/// /2714 10007 21080 38850 48457 57008 333 91119 91215;
0156066890999992010011618004+47367+008950FM-12+114499999V0202601N009819999999N9999999N1-00081-00761999999ADDKA1120M+00341MA1999999088511MD1710061+9999ME1314569OA149901291REMSYN082AAXX  16184 06689 33/// /2619 11008 21076 38851 48456 57006 333 10034 91125 91220;
0137066890999992010011619004+47367+008950FM-12+114499999V0202501N010319999999N9999999N1-00011-00621999999ADDMA1999999088461MD1710091+9999ME1314539OA149901391REMSYN076AAXX  16194 06689 33/// /2520 11001 21062 38846 48453 57009 333 91127 91221;
0137066890999992010011620004+47367+008950FM-12+114499999V0202701N010819999999N9999999N1-00011-00441999999ADDMA1999999088411MD1710091+9999ME1314489OA149901701REMSYN076AAXX  16204 06689 33/// /2721 11001 21044 38841 48448 57009 333 91133 91224;
0137066890999992010011621004+47367+008950FM-12+114499999V0202701N009819999999N9999999N1-00131-00361999999ADDMA1999999088341MD1710171+9999ME1314409OA149901701REMSYN076AAXX  16214 06689 33/// /2719 11013 21036 38834 48440 57017 333 91133 91224;
0137066890999992010011622004+47367+008950FM-12+114499999V0202601N007219999999N9999999N1-00081-00231999999ADDMA1999999088351MD1710111+9999ME1314429OA149901441REMSYN076AAXX  16224 06689 33/// /2614 11008 21023 38835 48442 57011 333 91128 91221;
0154066890999992010011623004+47367+008950FM-12+114499999V0202501N006719999999N9999999N1-00151-00161999999ADDAA101000591MA1999999088441MD1310031+9999ME1314499OA149901441REMSYN082AAXX  16234 06689 23/// /2513 11015 21016 38844 48449 53003 333 69945 91128 91219;
0160066890999992010011700004+47367+008950FM-12+114499999V0202501N011819999999N9999999N1-00121-00121999999ADDAA106001091MA1999999088431MD1210091+9999ME1314499OA149901851REMSYN088AAXX  17004 06689 03/// /2523 11012 21012 38843 48449 52009 60011 333 60015 91136 91224;
0154066890999992010011701004+47367+008950FM-12+114499999V0202401N009319999999N9999999N1-00061-00101999999ADDAA101000591MA1999999088421MD1210071+9999ME1314489OA149901851REMSYN082AAXX  17014 06689 23/// /2418 11006 21010 38842 48448 52007 333 69945 91136 91223;
0137066890999992010011702004+47367+008950FM-12+114499999V0202301N009319999999N9999999N1+00031-00081999999ADDMA1999999088381MD1719999+9999ME1314469OA149901801REMSYN076AAXX  17024 06689 33/// /2318 10003 21008 38838 48446 57/// 333 91135 91223;
0096066890999992010011703004+47367+008950FM-12+114499999V0202301N010319999999N9999999N1+00091-00061999999ADDMA1999999088311ME1314409REMSYN060AAXX  17034 06689 43/// /2320 10009 21006 38831 48440 5////;
0154066890999992010011704004+47367+008950FM-12+114499999V0202301N008719999999N9999999N1+00031-00061999999ADDAA101000021MA1999999088361MD1510061+9999ME1314449OA149901701REMSYN082AAXX  17044 06689 23/// /2317 10003 21006 38836 48444 55006 333 69915 91133 91221;
0154066890999992010011705004+47367+008950FM-12+114499999V0202301N009319999999N9999999N1-00051-00071999999ADDAA101000891MA1999999088371MD1519999+9999ME1314449OA149901651REMSYN082AAXX  17054 06689 23/// /2318 11005 21007 38837 48444 55/// 333 69975 91132 91221;
0220066890999992010011706004+47367+008950FM-12+114499999V0202401N010819999999N9999999N1+00041-00031999999ADDAA112003092AA224002592AL13600291GJ103429KA1999N-00161MA1999999088341MD1010031+9999ME1314429OA149901851REMSYN106AAXX  17064 06689 03/// /2421 10004 21003 38834 48442 50003 60032 333 21016 55057 60005 70026 91136 91224;
0137066890999992010011707004+47367+008950FM-12+114499999V0202401N011819999999N9999999N1+00151-00021999999ADDMA1999999088391MD1510031+9999ME1314489OA149901901REMSYN076AAXX  17074 06689 33/// /2423 10015 21002 38839 48448 55003 333 91137 91226;
0137066890999992010011708004+47367+008950FM-12+114499999V0202701N010319999999N9999999N1+00111-00011999999ADDMA1999999088441MD1319999+9999ME1314529OA149902211REMSYN076AAXX  17084 06689 33/// /2720 10011 21001 38844 48452 53/// 333 91143 91226;
0154066890999992010011709004+47367+008950FM-12+114499999V0202701N009319999999N9999999N1+00051+00011999999ADDAA101000021MA1999999088561MD1210221+9999ME1314629OA149902211REMSYN082AAXX  17094 06689 23/// /2718 10005 20001 38856 48462 52022 333 69925 91143 91226;
0137066890999992010011710004+47367+008950FM-12+114499999V0202701N012319999999N9999999N1+00081+00061999999ADDMA1999999088581MD1210191+9999ME1314649OA149902211REMSYN076AAXX  17104 06689 33/// /2724 10008 20006 38858 48464 52019 333 91143 91225;
0137066890999992010011711004+47367+008950FM-12+114499999V0202801N009819999999N9999999N1+00071+00041999999ADDMA1999999088651MD1210211+9999ME1314719OA149902211REMSYN076AAXX  17114 06689 33/// /2819 10007 20004 38865 48471 52021 333 91143 91225;
0179066890999992010011712004+47367+008950FM-12+114499999V0202701N010319999999N9999999N1+00071+00011999999ADDAA106000091MA1999999088711MD1210151+9999ME1314769OA149902211REMSYN088AAXX  17124 06689 03/// /2720 10007 20001 38871 48476 52015 69921 333 60005 91143 91226;EQDQ01  00002PRCP06
0154066890999992010011713004+47367+008950FM-12+114499999V0202701N010819999999N9999999N1+00051-00051999999ADDAA101000021MA1999999088761MD1210181+9999ME1314809OA149901901REMSYN082AAXX  17134 06689 23/// /2721 10005 21005 38876 48480 52018 333 69915 91137 91221;
0137066890999992010011714004+47367+008950FM-12+114499999V0202801N007719999999N9999999N1+00021-00031999999ADDMA1999999088861MD1219999+9999ME1314899OA149902161REMSYN076AAXX  17144 06689 33/// /2815 10002 21003 38886 48489 52/// 333 91142 91223;
0137066890999992010011715004+47367+008950FM-12+114499999V0202701N008219999999N9999999N1+00021-00121999999ADDMA1999999088951MD1210241+9999ME1314979OA149902211REMSYN076AAXX  17154 06689 33/// /2716 10002 21012 38895 48497 52024 333 91143 91225;
0137066890999992010011716004+47367+008950FM-12+114499999V0202801N008719999999N9999999N1-00011-00151999999ADDMA1999999089051MD1210291+9999ME1315059OA149901901REMSYN076AAXX  17164 06689 33/// /2817 11001 21015 38905 48505 52029 333 91137 91221;
0137066890999992010011717004+47367+008950FM-12+114499999V0202701N007719999999N9999999N1-00061-00181999999ADDMA1999999089151MD1210291+9999ME1315149OA149901491REMSYN076AAXX  17174 06689 33/// /2715 11006 21018 38915 48514 52029 333 91129 91219;
0179066890999992010011718004+47367+008950FM-12+114499999V0202701N005719999999N9999999N1-00051-00221999999ADDAA112000391KA1120M+00161MA1999999089221MD1110271+9999ME1315209OA149902211REMSYN094AAXX  17184 06689 03/// /2711 11005 21022 38922 48520 51027 69932 333 10016 60005 91143 91226;
