0137066810999992010010100004+47433+009400FM-12+079199999V0201601N001519999999N9999999N1+00401+00101999999ADDMA1999999090291MD1710131+9999ME1312659OA149900771REMSYN076AAXX  01004 06681 33/// /1603 10040 20010 39029 48265 57013 333 91115 91208;
0137066810999992010010101004+47433+009400FM-12+079199999V0201601N000519999999N9999999N1+00371+00101999999ADDMA1999999090241MD1810151+9999ME1312609OA149900211REMSYN076AAXX  01014 06681 33/// /1601 10037 20010 39024 48260 58015 333 91104 91203;
0137066810999992010010102004+47433+009400FM-12+079199999V0201401N000519999999N9999999N1+00411+00151999999ADDMA1999999090241MD1719999+9999ME1312619OA149900151REMSYN076AAXX  01024 06681 33/// /1401 10041 20015 39024 48261 57/// 333 91103 91202;
0096066810999992010010103004+47433+009400FM-12+079199999V0209999C000019999999N9999999N1+00381+00151999999ADDMA1999999090171ME1312549REMSYN060AAXX  01034 06681 43/// /0000 10038 20015 39017 48254 5////;
0096066810999992010010104004+47433+009400FM-12+079199999V0201801N000519999999N9999999N1+00191+00091999999ADDMA1999999090141ME1312489REMSYN060AAXX  01044 06681 33/// /1801 10019 20009 39014 48248 5////;
0137066810999992010010105004+47433+009400FM-12+079199999V0201701N000519999999N9999999N1+00341+00111999999ADDMA1999999090101MD1610141+9999ME1312479OA149900261REMSYN076AAXX  01054 06681 33/// /1701 10034 20011 39010 48247 56014 333 91105 91203;
0291066810999992010010106004+47433+009400FM-12+079199999V0200901N000510180019N0150001N1+00301+00121999999ADDAA124006991AL14800691AL29900091GA1071+018001061GF107991999999017501999999GJ100009IA1099IA2999-00209KA1999N+00171MA1999999090071MD1710101+9999ME1312449OA149900571REMSYN118AAXX  01064 06681 32765 70901 10030 20012 39007 48244 57010 333 20017 31102 55000 70069 87656 90768 93100 91111 91206;
0137066810999992010010107004+47433+009400FM-12+079199999V0203101N001019999999N9999999N1+00171+00111999999ADDMA1999999090071MD1710071+9999ME1312429OA149900261REMSYN076AAXX  01074 06681 33/// /3102 10017 20011 39007 48242 57007 333 91105 91202;
0137066810999992010010108004+47433+009400FM-12+079199999V0201801N000519999999N9999999N1+00261+00111999999ADDMA1999999090111MD1310011+9999ME1312479OA149900261REMSYN076AAXX  01084 06681 33/// /1801 10026 20011 39011 48247 53001 333 91105 91202;
0213066810999992010010109004+47433+009400FM-12+079199999V0209999C000010210019N0100001N1+00221+00151999999ADDAY121031AY221031GA1071+021001061GF107991999999022501999999MA1999999090131MD1210061+9999ME1312489MW1101OA149900261REMSYN088AAXX  01094 06681 31860 70000 10022 20015 39013 48248 52006 71022 333 87657 91105 91203;
0137066810999992010010110004+47433+009400FM-12+079199999V0200301N000519999999N9999999N1+00181+00181999999ADDMA1999999090181MD1310111+9999ME1312529OA149900151REMSYN076AAXX  01104 06681 33/// /0301 10018 20018 39018 48252 53011 333 91103 91201;
0137066810999992010010111004+47433+009400FM-12+079199999V0200301N001019999999N9999999N1+00191+00191999999ADDMA1999999090201MD1110091+9999ME1312549OA149900261REMSYN076AAXX  01114 06681 33/// /0302 10019 20019 39020 48254 51009 333 91105 91203;
0207066810999992010010112004+47433+009400FM-12+079199999V0202501N000510001519N0000001N1+00211+00181999999ADDAY141061AY221061GA1091+999999999GF109991091999999999999999MA1999999090211MD1110081+9999ME1312559MW1451OA149900261REMSYN082AAXX  01124 06681 31/00 92501 10021 20018 39021 48255 51008 74542 333 91105 91203;
0137066810999992010010113004+47433+009400FM-12+079199999V0203101N001019999999N9999999N1+00281+00221999999ADDMA1999999090241MD1210061+9999ME1312599OA149900151REMSYN076AAXX  01134 06681 33/// /3102 10028 20022 39024 48259 52006 333 91103 91202;
0154066810999992010010114004+47433+009400FM-12+079199999V0200301N000519999999N9999999N1+00301+00221999999ADDAA101000021MA1999999090301MD1219999+9999ME1312659OA149900151REMSYN082AAXX  01144 06681 23/// /0301 10030 20022 39030 48265 52/// 333 69925 91103 91202;
0224066810999992010010115004+47433+009400FM-12+079199999V0209999C000010001519N0000001N1+00261+00201999999ADDAA101000021AY141031AY241031GA1091+999999999GF109991091999999999999999MA1999999090391MD1210181+9999ME1312729MW1451OA149900261REMSYN088AAXX  01154 06681 21/00 90000 10026 20020 39039 48272 52018 74544 333 69915 91105 91203;
0154066810999992010010116004+47433+009400FM-12+079199999V0202701N000519999999N9999999N1+00281+00221999999ADDAA101000391MA1999999090461MD1210221+9999ME1312789OA149900151REMSYN082AAXX  01164 06681 23/// /2701 10028 20022 39046 48278 52022 333 69935 91103 91202;
0154066810999992010010117004+47433+009400FM-12+079199999V0202901N002119999999N9999999N1+00251+00181999999ADDAA101000021MA1999999090551MD1210251+9999ME1312869OA149900311REMSYN082AAXX  01174 06681 23/// /2904 10025 20018 39055 48286 52025 333 69915 91106 91204;
0289066810999992010010118004+47433+009400FM-12+079199999V0202601N002110081019N0060001N1+00181+00081999999ADDAA112002091AL19900091AY161061AY241061GA1081+008101041GF108991999999008001999999IA1119KA1120M+00381MA1999999090671MD1310281+9999ME1312959MW1631OA149900361REMSYN124AAXX  01184 06681 01556 82604 10018 20008 39067 48295 53028 60022 76364 333 10038 32/// 60015 88427 90766 93100 91107 91204;
0154066810999992010010119004+47433+009400FM-12+079199999V0202501N003119999999N9999999N1+00111+00021999999ADDAA101002091MA1999999090811MD1310351+9999ME1313069OA149900571REMSYN082AAXX  01194 06681 23/// /2506 10011 20002 39081 48306 53035 333 60025 91111 91206;
0154066810999992010010120004+47433+009400FM-12+079199999V0202501N004119999999N9999999N1+00041-00051999999ADDAA101002091MA1999999090991MD1310441+9999ME1313209OA149900931REMSYN082AAXX  01204 06681 23/// /2508 10004 21005 39099 48320 53044 333 60025 91118 91208;
0154066810999992010010121004+47433+009400FM-12+079199999V0202701N005719999999N9999999N1+00001-00091999999ADDAA101001091MA1999999091121MD1210451+9999ME1313319OA149900931REMSYN082AAXX  01214 06681 23/// /2711 10000 21009 39112 48331 52045 333 60015 91118 91211;
0154066810999992010010122004+47433+009400FM-12+079199999V0202701N004119999999N9999999N1-00041-00131999999ADDAA101000591MA1999999091231MD1110421+9999ME1313399OA149900981REMSYN082AAXX  01224 06681 23/// /2708 11004 21013 39123 48339 51042 333 69955 91119 91211;
0154066810999992010010123004+47433+009400FM-12+079199999V0202701N003119999999N9999999N1-00081-00221999999ADDAA101000021MA1999999091321MD1110331+9999ME1313469OA149900981REMSYN082AAXX  01234 06681 23/// /2706 11008 21022 39132 48346 51033 333 69915 91119 91210;
0160066810999992010010200004+47433+009400FM-12+079199999V0202901N005119999999N9999999N1-00111-00231999999ADDAA106006191MA1999999091411MD1210291+9999ME1313539OA149901031REMSYN088AAXX  02004 06681 03/// /2910 11011 21023 39141 48353 52029 60061 333 60005 91120 91212;
0154066810999992010010201004+47433+009400FM-12+079199999V0202801N005119999999N9999999N1-00221-00431999999ADDAA101000021MA1999999091521MD1310291+9999ME1313609OA149901181REMSYN082AAXX  02014 06681 23/// /2810 11022 21043 39152 48360 53029 333 69925 91123 91212;
0117066810999992010010202004+47433+009400FM-12+079199999V0202501N004119999999N9999999N1-00291-00471999999ADDAA101000021MA1999999091651ME1313709REMSYN070AAXX  02024 06681 23/// /2508 11029 21047 39165 48370 5//// 333 69915;
0154066810999992010010203004+47433+009400FM-12+079199999V0202601N003619999999N9999999N1-00311-00541999999ADDAA101000021MA1999999091771MD1210361+9999ME1313809OA149901181REMSYN082AAXX  02034 06681 23/// /2607 11031 21054 39177 48380 52036 333 69915 91123 91212;
0137066810999992010010204004+47433+009400FM-12+079199999V0202501N003619999999N9999999N1-00351-00651999999ADDMA1999999091831MD1110311+9999ME1313849OA149900931REMSYN076AAXX  02044 06681 33/// /2507 11035 21065 39183 48384 51031 333 91118 91208;
0137066810999992010010205004+47433+009400FM-12+079199999V0202401N002619999999N9999999N1-00361-00651999999ADDMA1999999091921MD1110271+9999ME1313919OA149900931REMSYN076AAXX  02054 06681 33/// /2405 11036 21065 39192 48391 51027 333 91118 91209;
0365066810999992010010206004+47433+009400FM-12+079199999V0202401N003110141019N0060001N1-00371-00721999999ADDAA112006191AA224007991AJ100069199999999AL19900891AL29900691AY171061AY231061GA1071+014101061GF107991999999012501999999GJ100009IA1279IA2999-00509KA1999N-00371MA1999999091981MD1310211+9999ME1313969MW1051OA149901181REMSYN142AAXX  02064 06681 01656 72406 11037 21072 39198 48396 53021 60062 70573 333 21037 3/105 43006 55000 60005 70080 87647 90768 93106 91123 91212;
0137066810999992010010207004+47433+009400FM-12+079199999V0202701N004119999999N9999999N1-00381-00811999999ADDMA1999999092051MD1110221+9999ME1314029OA149900821REMSYN076AAXX  02074 06681 33/// /2708 11038 21081 39205 48402 51022 333 91116 91208;
0096066810999992010010208004+47433+009400FM-12+079199999V0202901N004119999999N9999999N1-00401-00711999999ADDMA1999999092141ME1314099REMSYN060AAXX  02084 06681 33/// /2908 11040 21071 39214 48409 5////;
0213066810999992010010209004+47433+009400FM-12+079199999V0202801N004110099019N0008001N1-00431-00661999999ADDAY171031AY271031GA1081+009901041GF108991999999008001999999MA1999999092241MD1310261+9999ME1314179MW1701OA149900981REMSYN088AAXX  02094 06681 31508 82808 11043 21066 39224 48417 53026 77077 333 88433 91119 91210;
0154066810999992010010210004+47433+009400FM-12+079199999V0202901N003119999999N9999999N1-00421-00631999999ADDAA101000391MA1999999092331MD1310281+9999ME1314249OA149900821REMSYN082AAXX  02104 06681 23/// /2906 11042 21063 39233 48424 53028 333 69935 91116 91210;
0137066810999992010010211004+47433+009400FM-12+079199999V0202901N004119999999N9999999N1-00411-00661999999ADDMA1999999092371MD1110231+9999ME1314289OA149900721REMSYN076AAXX  02114 06681 33/// /2908 11041 21066 39237 48428 51023 333 91114 91208;
0236066810999992010010212004+47433+009400FM-12+079199999V0202801N003110180019N0150001N1-00501-00861999999ADDAA106000391AY171061AY221061GA1061+018001061GF106991999999017501999999MA1999999092441MD1110201+9999ME1314329MW1011OA149901181REMSYN100AAXX  02124 06681 01765 62806 11050 21086 39244 48432 51020 69931 70172 333 60005 86656 91123 91212;
0137066810999992010010213004+47433+009400FM-12+079199999V0202701N002119999999N9999999N1-00401-00751999999ADDMA1999999092521MD1310191+9999ME1314419OA149900931REMSYN076AAXX  02134 06681 33/// /2704 11040 21075 39252 48441 53019 333 91118 91210;
0137066810999992010010214004+47433+009400FM-12+079199999V0202501N001519999999N9999999N1-00471-00811999999ADDMA1999999092591MD1219999+9999ME1314459OA149900571REMSYN076AAXX  02144 06681 33/// /2503 11047 21081 39259 48445 52/// 333 91111 91207;
0185066810999992010010215004+47433+009400FM-12+079199999V0202401N001510141019N0150001N1-00431-00851999999ADDGA1061+014101061GF106991999999012501999999MA1999999092681MD1310241+9999ME1314539OA149900931REMSYN082AAXX  02154 06681 32665 62403 11043 21085 39268 48453 53024 333 86647 91118 91210;
0137066810999992010010216004+47433+009400FM-12+079199999V0202001N002119999999N9999999N1-00511-00881999999ADDMA1999999092741MD1110221+9999ME1314569OA149900571REMSYN076AAXX  02164 06681 33/// /2004 11051 21088 39274 48456 51022 333 91111 91205;
0137066810999992010010217004+47433+009400FM-12+079199999V0201901N002619999999N9999999N1-00531-00941999999ADDMA1999999092801MD1210211+9999ME1314619OA149900571REMSYN076AAXX  02174 06681 33/// /1905 11053 21094 39280 48461 52021 333 91111 91206;
0278066810999992010010218004+47433+009400FM-12+079199999V0202001N002110120019N0150001N1-00561-00991999999ADDAA112000391AJ100069199999999AL19900091GA1071+012001061GF107991999999012501999999IA1279KA1120M-00361MA1999999092841MD1210161+9999ME1314639OA149900981REMSYN118AAXX  02184 06681 02665 72004 11056 21099 39284 48463 52016 69932 333 11036 43006 60005 87640 90766 93100 91119 91210;
0137066810999992010010219004+47433+009400FM-12+079199999V0202001N002619999999N9999999N1-00551-00941999999ADDMA1999999092881MD1110141+9999ME1314679OA149900511REMSYN076AAXX  02194 06681 33/// /2005 11055 21094 39288 48467 51014 333 91110 91206;
0137066810999992010010220004+47433+009400FM-12+079199999V0202001N002119999999N9999999N1-00611-00991999999ADDMA1999999092871MD1210071+9999ME1314659OA149900511REMSYN076AAXX  02204 06681 33/// /2004 11061 21099 39287 48465 52007 333 91110 91205;
0137066810999992010010221004+47433+009400FM-12+079199999V0201901N002119999999N9999999N1-00601-01021999999ADDMA1999999092851MD1010011+9999ME1314639OA149900571REMSYN076AAXX  02214 06681 33/// /1904 11060 21102 39285 48463 50001 333 91111 91206;
0137066810999992010010222004+47433+009400FM-12+079199999V0201901N002619999999N9999999N1-00641-01211999999ADDMA1999999092881MD1410001+9999ME1314659OA149900571REMSYN076AAXX  02224 06681 33/// /1905 11064 21121 39288 48465 53000 333 91111 91205;
0137066810999992010010223004+47433+009400FM-12+079199999V0201801N002119999999N9999999N1-00711-01211999999ADDMA1999999092881MD1310011+9999ME1314639OA149900571REMSYN076AAXX  02234 06681 33/// /1804 11071 21121 39288 48463 53001 333 91111 91205;
0137066810999992010010300004+47433+009400FM-12+079199999V0201701N002619999999N9999999N1-00711-01261999999ADDMA1999999092881MD1210031+9999ME1314639OA149900571REMSYN076AAXX  03004 06681 33/// /1705 11071 21126 39288 48463 52003 333 91111 91207;
0137066810999992010010301004+47433+009400FM-12+079199999V0201601N002119999999N9999999N1-00781-01281999999ADDMA1999999092871MD1710011+9999ME1314609OA149900461REMSYN076AAXX  03014 06681 33/// /1604 11078 21128 39287 48460 57001 333 91109 91205;
0096066810999992010010302004+47433+009400FM-12+079199999V0201801N002119999999N9999999N1-00791-01361999999ADDMA1999999092911ME1314639REMSYN060AAXX  03024 06681 33/// /1804 11079 21136 39291 48463 5////;
0096066810999992010010303004+47433+009400FM-12+079199999V0201601N002619999999N9999999N1-00791-01341999999ADDMA1999999092881ME1314619REMSYN060AAXX  03034 06681 33/// /1605 11079 21134 39288 48461 5////;
0137066810999992010010304004+47433+009400FM-12+079199999V0201601N003119999999N9999999N1-00791-01361999999ADDMA1999999092801MD1810071+9999ME1314549OA149900671REMSYN076AAXX  03044 06681 33/// /1606 11079 21136 39280 48454 58007 333 91113 91209;
0137066810999992010010305004+47433+009400FM-12+079199999V0201001N001019999999N9999999N1-00831-01541999999ADDMA1999999092821MD1719999+9999ME1314559OA149900671REMSYN076AAXX  03054 06681 33/// /1002 11083 21154 39282 48455 57/// 333 91113 91209;
0314066810999992010010306004+47433+009400FM-12+079199999V0201801N001012200019N0150001N1-00741-01681999999ADDAA124000391AJ100049199999999AL11800091AL29900491GA1011+021001041GF101991999999022501999999GJ100489IA1279IA2999-01509KA1999N-00891MA1999999092791MD1710091+9999ME1314549OA149900671REMSYN124AAXX  03064 06681 32865 11802 11074 21168 39279 48454 57009 333 21089 3/115 43004 55008 70003 81457 90768 93104 91113 91209;
0137066810999992010010307004+47433+009400FM-12+079199999V0201701N001019999999N9999999N1-00711-01651999999ADDMA1999999092801MD1010001+9999ME1314569OA149900151REMSYN076AAXX  03074 06681 33/// /1702 11071 21165 39280 48456 50000 333 91103 91202;
0137066810999992010010308004+47433+009400FM-12+079199999V0201901N001019999999N9999999N1-00781-01681999999ADDMA1999999092821MD1519999+9999ME1314569OA149900151REMSYN076AAXX  03084 06681 33/// /1902 11078 21168 39282 48456 55/// 333 91103 91202;
0185066810999992010010309004+47433+009400FM-12+079199999V0201601N000512200019N0200001N1-00691-01541999999ADDGA1011+042001031GF101991999999999999999999MA1999999092831MD1210041+9999ME1314599OA149900671REMSYN082AAXX  03094 06681 32970 11601 11069 21154 39283 48459 52004 333 81364 91113 91209;
0137066810999992010010310004+47433+009400FM-12+079199999V0201701N000519999999N9999999N1-00581-01551999999ADDMA1999999092851MD1210051+9999ME1314649OA149900151REMSYN076AAXX  03104 06681 33/// /1701 11058 21155 39285 48464 52005 333 91103 91202;
0137066810999992010010311004+47433+009400FM-12+079199999V0201701N000519999999N9999999N1-00491-01511999999ADDMA1999999092761MD1810061+9999ME1314599OA149900151REMSYN076AAXX  03114 06681 33/// /1701 11049 21151 39276 48459 58006 333 91103 91202;
0185066810999992010010312004+47433+009400FM-12+079199999V0201601N000512200019N0350001N1-00431-01331999999ADDGA1011+024001031GF101991999999022501999999MA1999999092701MD1810131+9999ME1314559OA149900671REMSYN082AAXX  03124 06681 32881 11601 11043 21133 39270 48455 58013 333 81358 91113 91209;
0137066810999992010010313004+47433+009400FM-12+079199999V0201701N000519999999N9999999N1-00401-01331999999ADDMA1999999092651MD1710201+9999ME1314529OA149900101REMSYN076AAXX  03134 06681 33/// /1701 11040 21133 39265 48452 57020 333 91102 91201;
0137066810999992010010314004+47433+009400FM-12+079199999V0201801N000519999999N9999999N1-00411-01101999999ADDMA1999999092641MD1710121+9999ME1314519OA149900101REMSYN076AAXX  03144 06681 33/// /1801 11041 21110 39264 48451 57012 333 91102 91201;
0185066810999992010010315004+47433+009400FM-12+079199999V0202001N000512200019N0300001N1-00481-01011999999ADDGA1011+024001031GF101991999999022501999999MA1999999092671MD1510031+9999ME1314519OA149900151REMSYN082AAXX  03154 06681 32880 12001 11048 21101 39267 48451 55003 333 81358 91103 91202;
0137066810999992010010316004+47433+009400FM-12+079199999V0202001N002119999999N9999999N1-00641-01021999999ADDMA1999999092661MD1010011+9999ME1314469OA149900311REMSYN076AAXX  03164 06681 33/// /2004 11064 21102 39266 48446 50001 333 91106 91204;
0137066810999992010010317004+47433+009400FM-12+079199999V0201801N003119999999N9999999N1-00551-01331999999ADDMA1999999092621MD1810021+9999ME1314459OA149900411REMSYN076AAXX  03174 06681 33/// /1806 11055 21133 39262 48445 58002 333 91108 91206;
0255066810999992010010318004+47433+009400FM-12+079199999V0201801N002612200019N0300001N1-00551-01401999999ADDAJ100039199999999AL19900091GA1011+012001041GF101991999999012501999999IA1279KA1120M-00371MA1999999092611MD1710061+9999ME1314449OA149900461REMSYN106AAXX  03184 06681 32680 11805 11055 21140 39261 48444 57006 333 11037 43003 81440 90766 93100 91109 91206;
0137066810999992010010319004+47433+009400FM-12+079199999V0201601N001019999999N9999999N1-00641-01441999999ADDMA1999999092631MD1510031+9999ME1314449OA149900461REMSYN076AAXX  03194 06681 33/// /1602 11064 21144 39263 48444 55003 333 91109 91206;
0137066810999992010010320004+47433+009400FM-12+079199999V0201601N001019999999N9999999N1-00611-01631999999ADDMA1999999092581MD1810041+9999ME1314409OA149900311REMSYN076AAXX  03204 06681 33/// /1602 11061 21163 39258 48440 58004 333 91106 91205;
0137066810999992010010321004+47433+009400FM-12+079199999V0201601N000519999999N9999999N1-00601-01751999999ADDMA1999999092561MD1710051+9999ME1314399OA149900461REMSYN076AAXX  03214 06681 33/// /1601 11060 21175 39256 48439 57005 333 91109 91206;
0137066810999992010010322004+47433+009400FM-12+079199999V0201401N001019999999N9999999N1-00681-01221999999ADDMA1999999092561MD1710071+9999ME1314379OA149900211REMSYN076AAXX  03224 06681 33/// /1402 11068 21122 39256 48437 57007 333 91104 91202;
0137066810999992010010323004+47433+009400FM-12+079199999V0201601N001019999999N9999999N1-00691-01451999999ADDMA1999999092501MD1710081+9999ME1314329OA149900151REMSYN076AAXX  03234 06681 33/// /1602 11069 21145 39250 48432 57008 333 91103 91202;
0137066810999992010010400004+47433+009400FM-12+079199999V0201301N000519999999N9999999N1-00711-01231999999ADDMA1999999092461MD1710101+9999ME1314289OA149900461REMSYN076AAXX  04004 06681 33/// /1301 11071 21123 39246 48428 57010 333 91109 91206;
0137066810999992010010401004+47433+009400FM-12+079199999V0201201N000519999999N9999999N1-00721-01161999999ADDMA1999999092391MD1810171+9999ME1314229OA149900151REMSYN076AAXX  04014 06681 33/// /1201 11072 21116 39239 48422 58017 333 91103 91202;
0137066810999992010010402004+47433+009400FM-12+079199999V0201201N000519999999N9999999N1-00701-01201999999ADDMA1999999092351MD1610151+9999ME1314199OA149900151REMSYN076AAXX  04024 06681 33/// /1201 11070 21120 39235 48419 56015 333 91103 91202;
0137066810999992010010403004+47433+009400FM-12+079199999V0209999C000019999999N9999999N1-00791-01201999999ADDMA1999999092281MD1819999+9999ME1314119OA149900211REMSYN076AAXX  04034 06681 33/// /0000 11079 21120 39228 48411 58/// 333 91104 91203;
0137066810999992010010404004+47433+009400FM-12+079199999V0201701N000519999999N9999999N1-00811-01131999999ADDMA1999999092231MD1710161+9999ME1314069OA149900211REMSYN076AAXX  04044 06681 33/// /1701 11081 21113 39223 48406 57016 333 91104 91203;
0137066810999992010010405004+47433+009400FM-12+079199999V0201701N000519999999N9999999N1-00831-01321999999ADDMA1999999092181MD1710171+9999ME1314029OA149900151REMSYN076AAXX  04054 06681 33/// /1701 11083 21132 39218 48402 57017 333 91103 91201;
0323066810999992010010406004+47433+009400FM-12+079199999V0201701N000510210019N0150001N1-00841-01331999999ADDAA124000091AJ100039199999999AL19900091GA1061+021001061GF106991999999022501999999GJ103729IA1279IA2999-01609KA1999N-00881MA1999999092181MD1710101+9999ME1314029OA149900311REMSYN124AAXX  04064 06681 32865 61701 11084 21133 39218 48402 57010 333 21088 3/116 43003 55062 70000 86657 90768 93100 91106 91205;EQDQ01  00002PRCP24
0137066810999992010010407004+47433+009400FM-12+079199999V0202101N000519999999N9999999N1-00841-01201999999ADDMA1999999092191MD1710041+9999ME1314029OA149900151REMSYN076AAXX  04074 06681 33/// /2101 11084 21120 39219 48402 57004 333 91103 91202;
0137066810999992010010408004+47433+009400FM-12+079199999V0200601N001019999999N9999999N1-00931-01161999999ADDMA1999999092221MD1210041+9999ME1314039OA149900151REMSYN076AAXX  04084 06681 33/// /0602 11093 21116 39222 48403 52004 333 91103 91202;
0235066810999992010010409004+47433+009400FM-12+079199999V0200901N000510420019N0100001N1-00901-01141999999ADDAY141031AY221031GA1041+012001041GA2021+042001001GF107991999999012501999999MA1999999092201MD1210021+9999ME1314029MW1401OA149900151REMSYN094AAXX  04094 06681 31660 70901 11090 21114 39220 48402 52002 74042 333 84440 82064 91103 91202;
0137066810999992010010410004+47433+009400FM-12+079199999V0209999C000019999999N9999999N1-00851-01021999999ADDMA1999999092181MD1810011+9999ME1314019OA149900101REMSYN076AAXX  04104 06681 33/// /0000 11085 21102 39218 48401 58001 333 91102 91201;
0137066810999992010010411004+47433+009400FM-12+079199999V0200901N000519999999N9999999N1-00861-00971999999ADDMA1999999092131MD1710091+9999ME1313979OA149900151REMSYN076AAXX  04114 06681 33/// /0901 11086 21097 39213 48397 57009 333 91103 91202;
0213066810999992010010412004+47433+009400FM-12+079199999V0209999C000012200019N0100001N1-00761-00961999999ADDAY141061AY211061GA1021+012001041GF102991999999012501999999MA1999999092051MD1710151+9999ME1313939MW1401OA149900211REMSYN088AAXX  04124 06681 31660 20000 11076 21096 39205 48393 57015 74041 333 82440 91104 91203;
0137066810999992010010413004+47433+009400FM-12+079199999V0201601N000519999999N9999999N1-00551-00931999999ADDMA1999999092011MD1710171+9999ME1313949OA149900211REMSYN076AAXX  04134 06681 33/// /1601 11055 21093 39201 48394 57017 333 91104 91203;
0137066810999992010010414004+47433+009400FM-12+079199999V0200301N000519999999N9999999N1-00631-00951999999ADDMA1999999091981MD1719999+9999ME1313909OA149900151REMSYN076AAXX  04144 06681 33/// /0301 11063 21095 39198 48390 57/// 333 91103 91201;
0213066810999992010010415004+47433+009400FM-12+079199999V0201201N000512200019N0100001N1-00671-00941999999ADDAY101031AY201031GA1011+012001041GF101991999999012501999999MA1999999091971MD1710081+9999ME1313889MW1051OA149900211REMSYN088AAXX  04154 06681 31660 11201 11067 21094 39197 48388 57008 70500 333 81440 91104 91203;
0137066810999992010010416004+47433+009400FM-12+079199999V0209999C000019999999N9999999N1-00691-00901999999ADDMA1999999091981MD1510031+9999ME1313889OA149900101REMSYN076AAXX  04164 06681 33/// /0000 11069 21090 39198 48388 55003 333 91102 91202;
0137066810999992010010417004+47433+009400FM-12+079199999V0209999C000019999999N9999999N1-00731-01031999999ADDMA1999999091961MD1710021+9999ME1313869OA149900101REMSYN076AAXX  04174 06681 33/// /0000 11073 21103 39196 48386 57002 333 91102 91202;
0277066810999992010010418004+47433+009400FM-12+079199999V0201601N000512200019N0100001N1-00661-00911999999ADDAJ100039199999999AL19900091AY101061AY201061GA1001+999999999GF100991001001999999001001IA1279KA1120M-00541MA1999999091941MD1810031+9999ME1313869MW1051OA149900211REMSYN106AAXX  04184 06681 31/60 01601 11066 21091 39194 48386 58003 70500 333 11054 43003 90766 93100 91104 91203;
0137066810999992010010419004+47433+009400FM-12+079199999V0201701N000519999999N9999999N1-00731-00901999999ADDMA1999999091941MD1710041+9999ME1313849OA149900151REMSYN076AAXX  04194 06681 33/// /1701 11073 21090 39194 48384 57004 333 91103 91202;
0137066810999992010010420004+47433+009400FM-12+079199999V0201201N001019999999N9999999N1-00741-00951999999ADDMA1999999091931MD1710031+9999ME1313839OA149900151REMSYN076AAXX  04204 06681 33/// /1202 11074 21095 39193 48383 57003 333 91103 91202;
0137066810999992010010421004+47433+009400FM-12+079199999V0201001N000519999999N9999999N1-00731-00861999999ADDMA1999999091901MD1710041+9999ME1313819OA149900151REMSYN076AAXX  04214 06681 33/// /1001 11073 21086 39190 48381 57004 333 91103 91202;
0137066810999992010010422004+47433+009400FM-12+079199999V0200901N001019999999N9999999N1-00711-00861999999ADDMA1999999091871MD1810071+9999ME1313799OA149900211REMSYN076AAXX  04224 06681 33/// /0902 11071 21086 39187 48379 58007 333 91104 91203;
0137066810999992010010423004+47433+009400FM-12+079199999V0201201N000519999999N9999999N1-00731-00811999999ADDMA1999999091811MD1810121+9999ME1313739OA149900211REMSYN076AAXX  04234 06681 33/// /1201 11073 21081 39181 48373 58012 333 91104 91203;
0137066810999992010010500004+47433+009400FM-12+079199999V0201301N001019999999N9999999N1-00721-00831999999ADDMA1999999091761MD1810141+9999ME1313699OA149900211REMSYN076AAXX  05004 06681 33/// /1302 11072 21083 39176 48369 58014 333 91104 91203;
0137066810999992010010501004+47433+009400FM-12+079199999V0200701N001019999999N9999999N1-00761-00851999999ADDMA1999999091741MD1810131+9999ME1313679OA149900151REMSYN076AAXX  05014 06681 33/// /0702 11076 21085 39174 48367 58013 333 91103 91202;
0137066810999992010010502004+47433+009400FM-12+079199999V0200301N001519999999N9999999N1-00761-00811999999ADDMA1999999091711MD1710101+9999ME1313649OA149900261REMSYN076AAXX  05024 06681 33/// /0303 11076 21081 39171 48364 57010 333 91105 91203;
0137066810999992010010503004+47433+009400FM-12+079199999V0200201N001019999999N9999999N1-00751-00791999999ADDMA1999999091651MD1710111+9999ME1313609OA149900261REMSYN076AAXX  05034 06681 33/// /0202 11075 21079 39165 48360 57011 333 91105 91203;
0137066810999992010010504004+47433+009400FM-12+079199999V0200201N001019999999N9999999N1-00751-00781999999ADDMA1999999091581MD1710161+9999ME1313549OA149900311REMSYN076AAXX  05044 06681 33/// /0202 11075 21078 39158 48354 57016 333 91106 91203;
0137066810999992010010505004+47433+009400FM-12+079199999V0200501N001019999999N9999999N1-00801-00821999999ADDMA1999999091531MD1610181+9999ME1313489OA149900311REMSYN076AAXX  05054 06681 33/// /0502 11080 21082 39153 48348 56018 333 91106 91203;
0345066810999992010010506004+47433+009400FM-12+079199999V0200701N001010003019N0005001N1-00781-00831999999ADDAA124000091AJ100039199999999AL19900091AY141061AY221061GA1091+999999999GF109991091999999999999999GJ102109IA1279IA2999-01509KA1999N-00811MA1999999091471MD1610181+9999ME1313449MW1451OA149900311REMSYN124AAXX  05064 06681 31/05 90702 11078 21083 39147 48344 56018 74542 333 21081 3/115 43003 55035 70000 90768 93100 91106 91203;EQDQ01  00002PRCP24
0137066810999992010010507004+47433+009400FM-12+079199999V0201001N001519999999N9999999N1-00801-00831999999ADDMA1999999091431MD1710151+9999ME1313409OA149900261REMSYN076AAXX  05074 06681 33/// /1003 11080 21083 39143 48340 57015 333 91105 91203;
0137066810999992010010508004+47433+009400FM-12+079199999V0203501N001019999999N9999999N1-00831-00831999999ADDMA1999999091431MD1710101+9999ME1313399OA149900311REMSYN076AAXX  05084 06681 33/// /3502 11083 21083 39143 48339 57010 333 91106 91203;
0207066810999992010010509004+47433+009400FM-12+079199999V0200601N000510003019N0005001N1-00821-00821999999ADDAY141031AY241031GA1091+999999999GF109991091999999999999999MA1999999091401MD1710071+9999ME1313379MW1451OA149900311REMSYN082AAXX  05094 06681 31/05 90601 11082 21082 39140 48337 57007 74544 333 91106 91203;
0137066810999992010010510004+47433+009400FM-12+079199999V0200101N001019999999N9999999N1-00791-00811999999ADDMA1999999091381MD1810051+9999ME1313369OA149900211REMSYN076AAXX  05104 06681 33/// /0102 11079 21081 39138 48336 58005 333 91104 91203;
0137066810999992010010511004+47433+009400FM-12+079199999V0200301N001019999999N9999999N1-00751-00781999999ADDMA1999999091291MD1710141+9999ME1313299OA149900211REMSYN076AAXX  05114 06681 33/// /0302 11075 21078 39129 48329 57014 333 91104 91203;
0207066810999992010010512004+47433+009400FM-12+079199999V0200201N001510003019N0003001N1-00731-00751999999ADDAY141061AY241061GA1091+999999999GF109991091999999999999999MA1999999091201MD1710201+9999ME1313229MW1451OA149900311REMSYN082AAXX  05124 06681 31/03 90203 11073 21075 39120 48322 57020 74544 333 91106 91203;
0137066810999992010010513004+47433+009400FM-12+079199999V0200801N000519999999N9999999N1-00701-00761999999ADDMA1999999091141MD1610241+9999ME1313189OA149900211REMSYN076AAXX  05134 06681 33/// /0801 11070 21076 39114 48318 56024 333 91104 91203;
0096066810999992010010514004+47433+009400FM-12+079199999V0200601N000519999999N9999999N1-00701-00751999999ADDMA1999999091131ME1313179REMSYN060AAXX  05144 06681 33/// /0601 11070 21075 39113 48317 5////;
0207066810999992010010515004+47433+009400FM-12+079199999V0200701N000510006019N0006001N1-00701-00751999999ADDAY141031AY241031GA1091+999999999GF109991091999999999999999MA1999999091101MD1710101+9999ME1313149MW1451OA149900211REMSYN082AAXX  05154 06681 31/06 90701 11070 21075 39110 48314 57010 74544 333 91104 91203;
0137066810999992010010516004+47433+009400FM-12+079199999V0200501N001519999999N9999999N1-00681-00771999999ADDMA1999999091071MD1710071+9999ME1313129OA149900261REMSYN076AAXX  05164 06681 33/// /0503 11068 21077 39107 48312 57007 333 91105 91203;
0137066810999992010010517004+47433+009400FM-12+079199999V0200701N001019999999N9999999N1-00651-00751999999ADDMA1999999091051MD1710081+9999ME1313119OA149900261REMSYN076AAXX  05174 06681 33/// /0702 11065 21075 39105 48311 57008 333 91105 91203;
0283066810999992010010518004+47433+009400FM-12+079199999V0200401N001010021019N0060001N1-00651-00751999999ADDAJ100039199999999AL19900091AY141061AY221061GA1081+002101041GF108991999999002501999999IA1279KA1120M-00631MA1999999091011MD1810091+9999ME1313089MW1011OA149900311REMSYN112AAXX  05184 06681 31356 80402 11065 21075 39101 48308 58009 70142 333 11063 43003 88407 90766 93100 91106 91203;
0137066810999992010010519004+47433+009400FM-12+079199999V0200101N001019999999N9999999N1-00651-00691999999ADDMA1999999091001MD1710071+9999ME1313079OA149900211REMSYN076AAXX  05194 06681 33/// /0102 11065 21069 39100 48307 57007 333 91104 91202;
0137066810999992010010520004+47433+009400FM-12+079199999V0200401N000519999999N9999999N1-00701-00721999999ADDMA1999999090971MD1710081+9999ME1313039OA149900261REMSYN076AAXX  05204 06681 33/// /0401 11070 21072 39097 48303 57008 333 91105 91202;
0137066810999992010010521004+47433+009400FM-12+079199999V0200701N001019999999N9999999N1-00671-00741999999ADDMA1999999090931MD1710081+9999ME1313019OA149900261REMSYN076AAXX  05214 06681 33/// /0702 11067 21074 39093 48301 57008 333 91105 91203;
0137066810999992010010522004+47433+009400FM-12+079199999V0200201N001019999999N9999999N1-00731-00761999999ADDMA1999999090921MD1610081+9999ME1312999OA149900211REMSYN076AAXX  05224 06681 33/// /0202 11073 21076 39092 48299 56008 333 91104 91203;
0137066810999992010010523004+47433+009400FM-12+079199999V0200801N000519999999N9999999N1-00711-00751999999ADDMA1999999090911MD1719999+9999ME1312989OA149900211REMSYN076AAXX  05234 06681 33/// /0801 11071 21075 39091 48298 57/// 333 91104 91203;
0137066810999992010010600004+47433+009400FM-12+079199999V0209999C000019999999N9999999N1-00721-00751999999ADDMA1999999090871MD1710061+9999ME1312949OA149900261REMSYN076AAXX  06004 06681 33/// /0000 11072 21075 39087 48294 57006 333 91105 91203;
0137066810999992010010601004+47433+009400FM-12+079199999V0200201N000519999999N9999999N1-00711-00771999999ADDMA1999999090831MD1710091+9999ME1312919OA149900151REMSYN076AAXX  06014 06681 33/// /0201 11071 21077 39083 48291 57009 333 91103 91202;
0137066810999992010010602004+47433+009400FM-12+079199999V0200501N001019999999N9999999N1-00701-00771999999ADDMA1999999090841MD1719999+9999ME1312929OA149900211REMSYN076AAXX  06024 06681 33/// /0502 11070 21077 39084 48292 57/// 333 91104 91202;
0137066810999992010010603004+47433+009400FM-12+079199999V0209999C000019999999N9999999N1-00711-00761999999ADDMA1999999090821MD1710051+9999ME1312909OA149900211REMSYN076AAXX  06034 06681 33/// /0000 11071 21076 39082 48290 57005 333 91104 91203;
0137066810999992010010604004+47433+009400FM-12+079199999V0209999C000019999999N9999999N1-00671-00721999999ADDMA1999999090811MD1710021+9999ME1312909OA149900261REMSYN076AAXX  06044 06681 33/// /0000 11067 21072 39081 48290 57002 333 91105 91202;
0137066810999992010010605004+47433+009400FM-12+079199999V0203401N000519999999N9999999N1-00641-00721999999ADDMA1999999090851MD1210011+9999ME1312949OA149900261REMSYN076AAXX  06054 06681 33/// /3401 11064 21072 39085 48294 52001 333 91105 91202;
0365066810999992010010606004+47433+009400FM-12+079199999V0202101N001010009019N0006001N1-00531-00671999999ADDAA112001092AA224000892AJ100069199999999AL14200091AL29900391AY171061AY221061GA1081+000901071GF108991999999000751999999GJ100009IA1279IA2999-00609KA1999N-00741MA1999999090851MD1310031+9999ME1312979MW1701OA149900261REMSYN142AAXX  06064 06681 01106 82102 11053 21067 39085 48297 53003 60012 77072 333 21074 3/106 43006 55000 60015 70007 88703 90768 93103 91105 91203;
0154066810999992010010607004+47433+009400FM-12+079199999V0203201N000519999999N9999999N1-00581-00671999999ADDAA101000591MA1999999090901MD1210091+9999ME1313009OA149900151REMSYN082AAXX  06074 06681 23/// /3201 11058 21067 39090 48300 52009 333 69945 91103 91202;
0154066810999992010010608004+47433+009400FM-12+079199999V0203101N001019999999N9999999N1-00561-00631999999ADDAA101001091MA1999999090941MD1210091+9999ME1313049OA149900151REMSYN082AAXX  06084 06681 23/// /3102 11056 21063 39094 48304 52009 333 69995 91103 91202;
0230066810999992010010609004+47433+009400FM-12+079199999V0202801N001510009019N0008001N1-00461-00601999999ADDAA101000021AY171031AY271031GA1081+000901071GF108991999999000751999999MA1999999091001MD1210151+9999ME1313119MW1711OA149900461REMSYN094AAXX  06094 06681 21108 82803 11046 21060 39100 48311 52015 77177 333 69925 88703 91109 91203;
0137066810999992010010610004+47433+009400FM-12+079199999V0202701N002119999999N9999999N1-00431-00641999999ADDMA1999999091051MD1210151+9999ME1313169OA149900461REMSYN076AAXX  06104 06681 33/// /2704 11043 21064 39105 48316 52015 333 91109 91204;
0137066810999992010010611004+47433+009400FM-12+079199999V0202701N001519999999N9999999N1-00411-00621999999ADDMA1999999091021MD1019999+9999ME1313149OA149900361REMSYN076AAXX  06114 06681 33/// /2703 11041 21062 39102 48314 50/// 333 91107 91204;
0233066810999992010010612004+47433+009400FM-12+079199999V0203001N000510060019N0030001N1-00391-00561999999ADDAA106002091GA1081+006001071GF108991999999008001999999MA1999999091001MD1410001+9999ME1313129OA149900461REMSYN100AAXX  06124 06681 01530 83001 11039 21056 39100 48312 58000 60021 7//72 333 60005 88720 91109 91204;EQDQ01+000082APCTEN
0137066810999992010010613004+47433+009400FM-12+079199999V0202601N001519999999N9999999N1-00361-00651999999ADDMA1999999091011MD1510041+9999ME1313149OA149900311REMSYN076AAXX  06134 06681 33/// /2603 11036 21065 39101 48314 55004 333 91106 91203;
0137066810999992010010614004+47433+009400FM-12+079199999V0202901N001019999999N9999999N1-00391-00631999999ADDMA1999999091041MD1319999+9999ME1313169OA149900361REMSYN076AAXX  06144 06681 33/// /2902 11039 21063 39104 48316 53/// 333 91107 91204;
0207066810999992010010615004+47433+009400FM-12+079199999V0202701N001010006019N0009001N1-00381-00581999999ADDAY171031AY241031GA1091+999999999GF109991091999999999999999MA1999999091061MD1219999+9999ME1313189MW1401OA149900361REMSYN082AAXX  06154 06681 31/09 92702 11038 21058 39106 48318 52/// 74074 333 91107 91204;
0137066810999992010010616004+47433+009400FM-12+079199999V0202001N001019999999N9999999N1-00381-00601999999ADDMA1999999091111MD1210101+9999ME1313229OA149900151REMSYN076AAXX  06164 06681 33/// /2002 11038 21060 39111 48322 52010 333 91103 91202;
0137066810999992010010617004+47433+009400FM-12+079199999V0201901N001519999999N9999999N1-00371-00611999999ADDMA1999999091141MD1110101+9999ME1313259OA149900211REMSYN076AAXX  06174 06681 33/// /1903 11037 21061 39114 48325 51010 333 91104 91203;
0306066810999992010010618004+47433+009400FM-12+079199999V0202201N001010039019N0030001N1-00401-00621999999ADDAA112002091AJ100099199999999AL11200391AY121061AY221061GA1081+003901041GF108991999999004501999999IA1279KA1120M-00341MA1999999091201MD1219999+9999ME1313299MW1051OA149900461REMSYN124AAXX  06184 06681 01430 82202 11040 21062 39120 48329 52/// 60022 70522 333 11034 43009 60005 88413 90766 93103 91109 91204;
0137066810999992010010619004+47433+009400FM-12+079199999V0202001N001019999999N9999999N1-00381-00581999999ADDMA1999999091211MD1210101+9999ME1313309OA149900211REMSYN076AAXX  06194 06681 33/// /2002 11038 21058 39121 48330 52010 333 91104 91203;
0137066810999992010010620004+47433+009400FM-12+079199999V0201901N001519999999N9999999N1-00291-00501999999ADDMA1999999091251MD1210111+9999ME1313369OA149900261REMSYN076AAXX  06204 06681 33/// /1903 11029 21050 39125 48336 52011 333 91105 91203;
0137066810999992010010621004+47433+009400FM-12+079199999V0202101N001519999999N9999999N1-00341-00511999999ADDMA1999999091251MD1210051+9999ME1313359OA149900361REMSYN076AAXX  06214 06681 33/// /2103 11034 21051 39125 48335 52005 333 91107 91204;
0137066810999992010010622004+47433+009400FM-12+079199999V0201801N001019999999N9999999N1-00441-00651999999ADDMA1999999091291MD1210081+9999ME1313369OA149900361REMSYN076AAXX  06224 06681 33/// /1802 11044 21065 39129 48336 52008 333 91107 91204;
0137066810999992010010623004+47433+009400FM-12+079199999V0209999C000019999999N9999999N1-00481-00671999999ADDMA1999999091311MD1210061+9999ME1313379OA149900261REMSYN076AAXX  06234 06681 33/// /0000 11048 21067 39131 48337 52006 333 91105 91204;
0137066810999992010010700004+47433+009400FM-12+079199999V0201901N000519999999N9999999N1-00461-00601999999ADDMA1999999091341MD1210091+9999ME1313409OA149900361REMSYN076AAXX  07004 06681 33/// /1901 11046 21060 39134 48340 52009 333 91107 91204;
0137066810999992010010701004+47433+009400FM-12+079199999V0201601N001019999999N9999999N1-00481-00641999999ADDMA1999999091361MD1210071+9999ME1313419OA149900311REMSYN076AAXX  07014 06681 33/// /1602 11048 21064 39136 48341 52007 333 91106 91204;
0137066810999992010010702004+47433+009400FM-12+079199999V0201501N000519999999N9999999N1-00431-00571999999ADDMA1999999091411MD1219999+9999ME1313469OA149900211REMSYN076AAXX  07024 06681 33/// /1501 11043 21057 39141 48346 52/// 333 91104 91202;
0154066810999992010010703004+47433+009400FM-12+079199999V0203001N000519999999N9999999N1-00431-00551999999ADDAA101000021MA1999999091441MD1110101+9999ME1313499OA149900311REMSYN082AAXX  07034 06681 23/// /3001 11043 21055 39144 48349 51010 333 69915 91106 91204;
0137066810999992010010704004+47433+009400FM-12+079199999V0209999C000019999999N9999999N1-00511-00711999999ADDMA1999999091431MD1210071+9999ME1313469OA149900101REMSYN076AAXX  07044 06681 33/// /0000 11051 21071 39143 48346 52007 333 91102 91202;
0137066810999992010010705004+47433+009400FM-12+079199999V0201101N000519999999N9999999N1-00481-00661999999ADDMA1999999091441MD1210031+9999ME1313489OA149900151REMSYN076AAXX  07054 06681 33/// /1101 11048 21066 39144 48348 52003 333 91103 91202;
0384066810999992010010706004+47433+009400FM-12+079199999V0201701N000510120019N0060001N1-00601-00801999999ADDAA112000091AA224001891AJ100099199999999AL14800191AL29900391AY121061AY221061GA1071+012001061GF107991999999012501999999GJ100009IA1279IA2999-00709KA1999N-00631MA1999999091471MD1210031+9999ME1313489MW1051OA149900361REMSYN142AAXX  07064 06681 01656 71701 11060 21080 39147 48348 52003 69912 70522 333 21063 3/107 43009 55000 60005 70019 87640 90768 93103 91107 91204;EQDQ01  00002PRCP12
0137066810999992010010707004+47433+009400FM-12+079199999V0202301N000519999999N9999999N1-00611-00811999999ADDMA1999999091511MD1210081+9999ME1313519OA149900151REMSYN076AAXX  07074 06681 33/// /2301 11061 21081 39151 48351 52008 333 91103 91202;
0137066810999992010010708004+47433+009400FM-12+079199999V0201901N001019999999N9999999N1-00621-00821999999ADDMA1999999091581MD1319999+9999ME1313579OA149900151REMSYN076AAXX  07084 06681 33/// /1902 11062 21082 39158 48357 53/// 333 91103 91202;
0213066810999992010010709004+47433+009400FM-12+079199999V0201701N000512200019N0040001N1-00541-00751999999ADDAY121031AY221031GA1011+051001011GF101991999999999999999999MA1999999091591MD1110121+9999ME1313599MW1051OA149900151REMSYN088AAXX  07094 06681 31940 11701 11054 21075 39159 48359 51012 70522 333 81167 91103 91202;
0137066810999992010010710004+47433+009400FM-12+079199999V0201601N000519999999N9999999N1-00491-00751999999ADDMA1999999091631MD1110121+9999ME1313649OA149900151REMSYN076AAXX  07104 06681 33/// /1601 11049 21075 39163 48364 51012 333 91103 91202;
0137066810999992010010711004+47433+009400FM-12+079199999V0202801N000519999999N9999999N1-00441-00671999999ADDMA1999999091621MD1210041+9999ME1313649OA149900211REMSYN076AAXX  07114 06681 33/// /2801 11044 21067 39162 48364 52004 333 91104 91203;
0213066810999992010010712004+47433+009400FM-12+079199999V0209999C000012200019N0060001N1-00341-00711999999ADDAY101061AY201061GA1011+036001031GF101991999999999999999999MA1999999091601MD1010011+9999ME1313649MW1051OA149900211REMSYN088AAXX  07124 06681 31956 10000 11034 21071 39160 48364 50001 70500 333 81362 91104 91203;
0137066810999992010010713004+47433+009400FM-12+079199999V0202301N000519999999N9999999N1-00311-00671999999ADDMA1999999091581MD1719999+9999ME1313639OA149900151REMSYN076AAXX  07134 06681 33/// /2301 11031 21067 39158 48363 57/// 333 91103 91202;
0096066810999992010010715004+47433+009400FM-12+079199999V02099999999999999999N9999999N1-00401-00761999999ADDMA1999999091661ME1313689REMSYN060AAXX  07154 06681 43/// ///// 11040 21076 39166 48368 5////;
0137066810999992010010716004+47433+009400FM-12+079199999V0201701N001519999999N9999999N1-00421-00741999999ADDMA1999999091721MD1219999+9999ME1313739OA149900261REMSYN076AAXX  07164 06681 33/// /1703 11042 21074 39172 48373 52/// 333 91105 91203;
0137066810999992010010717004+47433+009400FM-12+079199999V0201701N000519999999N9999999N1-00411-00741999999ADDMA1999999091741MD1219999+9999ME1313759OA149900211REMSYN076AAXX  07174 06681 33/// /1701 11041 21074 39174 48375 52/// 333 91104 91204;
0283066810999992010010718004+47433+009400FM-12+079199999V0201601N001012200019N0100001N1-00411-00751999999ADDAJ100099199999999AL11200191AY101061AY201061GA1031+063001021GF103991999999999999999999IA1239KA1120M-00241MA1999999091761MD1119999+9999ME1313769MW1051OA149900261REMSYN112AAXX  07184 06681 31960 31602 11041 21075 39176 48376 51/// 70500 333 11024 47009 83271 90766 93101 91105 91204;
0137066810999992010010719004+47433+009400FM-12+079199999V0202301N000519999999N9999999N1-00431-00731999999ADDMA1999999091791MD1310071+9999ME1313799OA149900151REMSYN076AAXX  07194 06681 33/// /2301 11043 21073 39179 48379 53007 333 91103 91202;
0137066810999992010010720004+47433+009400FM-12+079199999V0201601N000519999999N9999999N1-00431-00751999999ADDMA1999999091781MD1210041+9999ME1313789OA149900151REMSYN076AAXX  07204 06681 33/// /1601 11043 21075 39178 48378 52004 333 91103 91202;
0137066810999992010010721004+47433+009400FM-12+079199999V0201701N000519999999N9999999N1-00401-00681999999ADDMA1999999091811MD1210051+9999ME1313819OA149900211REMSYN076AAXX  07214 06681 33/// /1701 11040 21068 39181 48381 52005 333 91104 91204;
0137066810999992010010722004+47433+009400FM-12+079199999V0201401N000519999999N9999999N1-00361-00581999999ADDMA1999999091811MD1210021+9999ME1313829OA149900151REMSYN076AAXX  07224 06681 33/// /1401 11036 21058 39181 48382 52002 333 91103 91202;
0137066810999992010010723004+47433+009400FM-12+079199999V0201201N000519999999N9999999N1-00411-00601999999ADDMA1999999091791MD1010011+9999ME1313799OA149900151REMSYN076AAXX  07234 06681 33/// /1201 11041 21060 39179 48379 50001 333 91103 91202;
0137066810999992010010800004+47433+009400FM-12+079199999V0200801N001019999999N9999999N1-00431-00571999999ADDMA1999999091751MD1810061+9999ME1313759OA149900261REMSYN076AAXX  08004 06681 33/// /0802 11043 21057 39175 48375 58006 333 91105 91204;
0137066810999992010010801004+47433+009400FM-12+079199999V0200501N001019999999N9999999N1-00411-00491999999ADDMA1999999091721MD1810091+9999ME1313739OA149900211REMSYN076AAXX  08014 06681 33/// /0502 11041 21049 39172 48373 58009 333 91104 91203;
0137066810999992010010802004+47433+009400FM-12+079199999V0200301N001019999999N9999999N1-00421-00461999999ADDMA1999999091731MD1719999+9999ME1313749OA149900211REMSYN076AAXX  08024 06681 33/// /0302 11042 21046 39173 48374 57/// 333 91104 91202;
0137066810999992010010803004+47433+009400FM-12+079199999V0200301N002119999999N9999999N1-00471-00491999999ADDMA1999999091721MD1719999+9999ME1313729OA149900361REMSYN076AAXX  08034 06681 33/// /0304 11047 21049 39172 48372 57/// 333 91107 91205;
0137066810999992010010804004+47433+009400FM-12+079199999V0200301N002119999999N9999999N1-00481-00511999999ADDMA1999999091691MD1810031+9999ME1313699OA149900361REMSYN076AAXX  08044 06681 33/// /0304 11048 21051 39169 48369 58003 333 91107 91205;
0137066810999992010010805004+47433+009400FM-12+079199999V0200401N001519999999N9999999N1-00461-00511999999ADDMA1999999091631MD1810101+9999ME1313649OA149900361REMSYN076AAXX  08054 06681 33/// /0403 11046 21051 39163 48364 58010 333 91107 91204;
0345066810999992010010806004+47433+009400FM-12+079199999V0200501N002110006019N0008001N1-00451-00521999999ADDAA124000091AJ100089199999999AL19900091AY141061AY221061GA1091+999999999GF109991091999999999999999GJ102649IA1279IA2999-00909KA1999N-00481MA1999999091581MD1810141+9999ME1313609MW1401OA149900361REMSYN124AAXX  08064 06681 31/08 90504 11045 21052 39158 48360 58014 74042 333 21048 3/109 43008 55044 70000 90768 93100 91107 91205;EQDQ01  00002PRCP24
0137066810999992010010807004+47433+009400FM-12+079199999V0200501N002619999999N9999999N1-00431-00521999999ADDMA1999999091551MD1610141+9999ME1313589OA149900461REMSYN076AAXX  08074 06681 33/// /0505 11043 21052 39155 48358 56014 333 91109 91205;
0137066810999992010010808004+47433+009400FM-12+079199999V0200501N002619999999N9999999N1-00431-00531999999ADDMA1999999091511MD1610121+9999ME1313559OA149900571REMSYN076AAXX  08084 06681 33/// /0505 11043 21053 39151 48355 56012 333 91111 91205;
0207066810999992010010809004+47433+009400FM-12+079199999V0200301N003110006019N0009001N1-00461-00561999999ADDAY141031AY221031GA1091+999999999GF109991091999999999999999MA1999999091471MD1810111+9999ME1313519MW1401OA149900671REMSYN082AAXX  08094 06681 31/09 90306 11046 21056 39147 48351 58011 74042 333 91113 91208;
0137066810999992010010810004+47433+009400FM-12+079199999V0200501N002619999999N9999999N1-00431-00531999999ADDMA1999999091431MD1810121+9999ME1313489OA149900771REMSYN076AAXX  08104 06681 33/// /0505 11043 21053 39143 48348 58012 333 91115 91208;
0137066810999992010010811004+47433+009400FM-12+079199999V0200301N004119999999N9999999N1-00441-00551999999ADDMA1999999091361MD1810151+9999ME1313429OA149900771REMSYN076AAXX  08114 06681 33/// /0308 11044 21055 39136 48342 58015 333 91115 91208;
0207066810999992010010812004+47433+009400FM-12+079199999V0200301N005110006019N0006001N1-00431-00531999999ADDAY141061AY221061GA1091+999999999GF109991091999999999999999MA1999999091261MD1810211+9999ME1313349MW1401OA149900821REMSYN082AAXX  08124 06681 31/06 90310 11043 21053 39126 48334 58021 74042 333 91116 91210;
0137066810999992010010813004+47433+009400FM-12+079199999V0200301N004119999999N9999999N1-00441-00521999999ADDMA1999999091221MD1610211+9999ME1313309OA149900821REMSYN076AAXX  08134 06681 33/// /0308 11044 21052 39122 48330 56021 333 91116 91210;
0143066810999992010010814004+47433+009400FM-12+079199999V0200301N004119999999N9999999N1-00461-00551999999ADDMA1999999091201MD1619999+9999ME1313289OA149900821REMSYN082AAXX  08144 06681 33/// /0308 11046 21055 39120 48328 56/// 91340 333 91116 91209;
0207066810999992010010815004+47433+009400FM-12+079199999V0200501N003110003019N0004001N1-00441-00561999999ADDAY141031AY241031GA1091+999999999GF109991091999999999999999MA1999999091181MD1710081+9999ME1313279MW1451OA149900821REMSYN082AAXX  08154 06681 31/04 90506 11044 21056 39118 48327 57008 74544 333 91116 91210;
0137066810999992010010816004+47433+009400FM-12+079199999V0200301N004119999999N9999999N1-00461-00631999999ADDMA1999999091221MD1510001+9999ME1313309OA149900821REMSYN076AAXX  08164 06681 33/// /0308 11046 21063 39122 48330 55000 333 91116 91209;
0137066810999992010010817004+47433+009400FM-12+079199999V0200201N003619999999N9999999N1-00461-00581999999ADDMA1999999091221MD1210031+9999ME1313309OA149900821REMSYN076AAXX  08174 06681 33/// /0207 11046 21058 39122 48330 52003 333 91116 91210;
0277066810999992010010818004+47433+009400FM-12+079199999V0200301N003110006019N0009001N1-00471-00611999999ADDAJ100079199999999AL19900091AY141061AY221061GA1091+999999999GF109991091999999999999999IA1279KA1120M-00411MA1999999091241MD1210061+9999ME1313319MW1401OA149900821REMSYN106AAXX  08184 06681 31/09 90306 11047 21061 39124 48331 52006 74042 333 11041 43007 90766 93100 91116 91210;
0137066810999992010010819004+47433+009400FM-12+079199999V0200201N001519999999N9999999N1-00471-00611999999ADDMA1999999091291MD1210071+9999ME1313359OA149900621REMSYN076AAXX  08194 06681 33/// /0203 11047 21061 39129 48335 52007 333 91112 91207;
0137066810999992010010820004+47433+009400FM-12+079199999V0203501N001519999999N9999999N1-00471-00531999999ADDMA1999999091301MD1210081+9999ME1313369OA149900511REMSYN076AAXX  08204 06681 33/// /3503 11047 21053 39130 48336 52008 333 91110 91206;
0137066810999992010010821004+47433+009400FM-12+079199999V0200101N002619999999N9999999N1-00481-00511999999ADDMA1999999091291MD1210051+9999ME1313359OA149900821REMSYN076AAXX  08214 06681 33/// /0105 11048 21051 39129 48335 52005 333 91116 91210;
0137066810999992010010822004+47433+009400FM-12+079199999V0200301N003119999999N9999999N1-00481-00541999999ADDMA1999999091281MD1710011+9999ME1313349OA149900571REMSYN076AAXX  08224 06681 33/// /0306 11048 21054 39128 48334 57001 333 91111 91206;
0137066810999992010010823004+47433+009400FM-12+079199999V0200201N002619999999N9999999N1-00481-00531999999ADDMA1999999091301MD1510001+9999ME1313369OA149900571REMSYN076AAXX  08234 06681 33/// /0205 11048 21053 39130 48336 55000 333 91111 91206;
0137066810999992010010900004+47433+009400FM-12+079199999V0200101N001519999999N9999999N1-00491-00551999999ADDMA1999999091301MD1210011+9999ME1313369OA149900821REMSYN076AAXX  09004 06681 33/// /0103 11049 21055 39130 48336 52001 333 91116 91210;
0137066810999992010010901004+47433+009400FM-12+079199999V0200201N002119999999N9999999N1-00511-00561999999ADDMA1999999091311MD1210031+9999ME1313369OA149900571REMSYN076AAXX  09014 06681 33/// /0204 11051 21056 39131 48336 52003 333 91111 91206;
0137066810999992010010902004+47433+009400FM-12+079199999V0200201N002119999999N9999999N1-00511-00551999999ADDMA1999999091311MD1219999+9999ME1313369OA149900411REMSYN076AAXX  09024 06681 33/// /0204 11051 21055 39131 48336 52/// 333 91108 91204;
0137066810999992010010903004+47433+009400FM-12+079199999V0200201N002119999999N9999999N1-00551-00571999999ADDMA1999999091321MD1319999+9999ME1313369OA149900571REMSYN076AAXX  09034 06681 33/// /0204 11055 21057 39132 48336 53/// 333 91111 91206;
0137066810999992010010904004+47433+009400FM-12+079199999V0200301N002119999999N9999999N1-00561-00601999999ADDMA1999999091281MD1810031+9999ME1313339OA149900411REMSYN076AAXX  09044 06681 33/// /0304 11056 21060 39128 48333 58003 333 91108 91205;
0137066810999992010010905004+47433+009400FM-12+079199999V0200101N001519999999N9999999N1-00591-00631999999ADDMA1999999091261MD1710051+9999ME1313309OA149900411REMSYN076AAXX  09054 06681 33/// /0103 11059 21063 39126 48330 57005 333 91108 91205;
0355066810999992010010906004+47433+009400FM-12+079199999V0200201N001510003019N0003001N1-00601-00651999999ADDAA124000091AJ100099199999999AL19900091AL29900291AY171061AY241061GA1091+999999999GF109991091999999999999999GJ100009IA1279IA2999-00609KA1999N-00611MA1999999091221MD1710101+9999ME1313279MW1451OA149900571REMSYN124AAXX  09064 06681 31/03 90203 11060 21065 39122 48327 57010 74574 333 21061 3/106 43009 55000 70000 90768 93102 91111 91206;EQDQ01  00002PRCP24
0137066810999992010010907004+47433+009400FM-12+079199999V0200101N001519999999N9999999N1-00671-00671999999ADDMA1999999091221MD1710061+9999ME1313259OA149900361REMSYN076AAXX  09074 06681 33/// /0103 11067 21067 39122 48325 57006 333 91107 91204;
0137066810999992010010908004+47433+009400FM-12+079199999V0203501N001019999999N9999999N1-00681-00681999999ADDMA1999999091241MD1510021+9999ME1313279OA149900361REMSYN076AAXX  09084 06681 33/// /3502 11068 21068 39124 48327 55002 333 91107 91204;
0207066810999992010010909004+47433+009400FM-12+079199999V0200101N001010001519N0000001N1-00681-00681999999ADDAY171031AY241031GA1091+999999999GF109991091999999999999999MA1999999091241MD1210021+9999ME1313279MW1451OA149900411REMSYN082AAXX  09094 06681 31/00 90102 11068 21068 39124 48327 52002 74574 333 91108 91205;
0156066810999992010010910004+47433+009400FM-12+079199999V0203601N001019999999N9999999N1-00671-00681999999ADDMA1999999091221MD1410001+9999ME1313259OA149900261REMSYN076AAXX  09104 06681 33/// /3602 11067 21068 39122 48325 58000 333 91105 91203;EQDQ01+000082APCTEN
0137066810999992010010911004+47433+009400FM-12+079199999V0203601N000519999999N9999999N1-00631-00671999999ADDMA1999999091211MD1710031+9999ME1313259OA149900211REMSYN076AAXX  09114 06681 33/// /3601 11063 21067 39121 48325 57003 333 91104 91202;
0207066810999992010010912004+47433+009400FM-12+079199999V0200201N001510001519N0000001N1-00631-00701999999ADDAY141061AY241061GA1091+999999999GF109991091999999999999999MA1999999091141MD1710101+9999ME1313199MW1451OA149900411REMSYN082AAXX  09124 06681 31/00 90203 11063 21070 39114 48319 57010 74544 333 91108 91205;
0137066810999992010010913004+47433+009400FM-12+079199999V0200101N001519999999N9999999N1-00601-00651999999ADDMA1999999091111MD1610111+9999ME1313179OA149900261REMSYN076AAXX  09134 06681 33/// /0103 11060 21065 39111 48317 56011 333 91105 91203;
0137066810999992010010914004+47433+009400FM-12+079199999V0200101N001519999999N9999999N1-00631-00651999999ADDMA1999999091141MD1510071+9999ME1313199OA149900261REMSYN076AAXX  09144 06681 33/// /0103 11063 21065 39114 48319 55007 333 91105 91203;
0207066810999992010010915004+47433+009400FM-12+079199999V0200301N001510001519N0000001N1-00621-00671999999ADDAY141031AY241031GA1091+999999999GF109991091999999999999999MA1999999091151MD1310011+9999ME1313209MW1451OA149900311REMSYN082AAXX  09154 06681 31/00 90303 11062 21067 39115 48320 53001 74544 333 91106 91203;
0137066810999992010010916004+47433+009400FM-12+079199999V0200201N001519999999N9999999N1-00621-00671999999ADDMA1999999091171MD1210061+9999ME1313229OA149900311REMSYN076AAXX  09164 06681 33/// /0203 11062 21067 39117 48322 52006 333 91106 91203;
0154066810999992010010917004+47433+009400FM-12+079199999V0200101N001019999999N9999999N1-00641-00641999999ADDAA101000021MA1999999091181MD1210041+9999ME1313229OA149900261REMSYN082AAXX  09174 06681 23/// /0102 11064 21064 39118 48322 52004 333 69915 91105 91203;
0335066810999992010010918004+47433+009400FM-12+079199999V0200301N001010001519N0000001N1-00651-00651999999ADDAA112000091AJ100099199999999AL19900091AY151061AY241061GA1081+000151071GF108991999999000251999999IA1279KA1120M-00601MA1999999091191MD1210041+9999ME1313239OA149900361REMSYN124AAXX  09184 06681 01000 80302 11065 21065 39119 48323 52004 69912 75054 333 11060 43009 60005 88700 90766 93100 91107 91204;EQDQ01+000502PRSWM1Q02  00002PRCP12
0154066810999992010010919004+47433+009400FM-12+079199999V0203601N000519999999N9999999N1-00651-00681999999ADDAA101000391MA1999999091231MD1210061+9999ME1313269OA149900211REMSYN082AAXX  09194 06681 23/// /3601 11065 21068 39123 48326 52006 333 69935 91104 91203;
0137066810999992010010920004+47433+009400FM-12+079199999V0203501N000519999999N9999999N1-00651-00671999999ADDMA1999999091251MD1210071+9999ME1313289OA149900211REMSYN076AAXX  09204 06681 33/// /3501 11065 21067 39125 48328 52007 333 91104 91202;
0137066810999992010010921004+47433+009400FM-12+079199999V0203501N000519999999N9999999N1-00651-00651999999ADDMA1999999091271MD1110081+9999ME1313309OA149900261REMSYN076AAXX  09214 06681 33/// /3501 11065 21065 39127 48330 51008 333 91105 91203;
0137066810999992010010922004+47433+009400FM-12+079199999V0203101N000519999999N9999999N1-00641-00751999999ADDMA1999999091311MD1110081+9999ME1313339OA149900151REMSYN076AAXX  09224 06681 33/// /3101 11064 21075 39131 48333 51008 333 91103 91201;
0137066810999992010010923004+47433+009400FM-12+079199999V0203201N000519999999N9999999N1-00651-00681999999ADDMA1999999091371MD1310121+9999ME1313389OA149900151REMSYN076AAXX  09234 06681 33/// /3201 11065 21068 39137 48338 53012 333 91103 91202;
0160066810999992010011000004+47433+009400FM-12+079199999V0209999C000019999999N9999999N1-00651-00711999999ADDAA106000391MA1999999091371MD1210101+9999ME1313389OA149900311REMSYN088AAXX  10004 06681 03/// /0000 11065 21071 39137 48338 52010 69931 333 60005 91106 91203;
0137066810999992010011001004+47433+009400FM-12+079199999V0209999C000019999999N9999999N1-00631-00681999999ADDMA1999999091401MD1210091+9999ME1313419OA149900101REMSYN076AAXX  10014 06681 33/// /0000 11063 21068 39140 48341 52009 333 91102 91201;
0096066810999992010011002004+47433+009400FM-12+079199999V0209999C000019999999N9999999N1-00631-00721999999ADDMA1999999091451ME1313459REMSYN060AAXX  10024 06681 33/// /0000 11063 21072 39145 48345 5////;
0096066810999992010011003004+47433+009400FM-12+079199999V0209999C000019999999N9999999N1-00631-00671999999ADDMA1999999091491ME1313499REMSYN060AAXX  10034 06681 43/// /0000 11063 21067 39149 48349 5////;
0137066810999992010011004004+47433+009400FM-12+079199999V0209999C000019999999N9999999N1-00611-00721999999ADDMA1999999091531MD1110131+9999ME1313539OA149900101REMSYN076AAXX  10044 06681 33/// /0000 11061 21072 39153 48353 51013 333 91102 91201;
0137066810999992010011005004+47433+009400FM-12+079199999V0202401N000519999999N9999999N1-00591-00771999999ADDMA1999999091571MD1310121+9999ME1313569OA149900101REMSYN076AAXX  10054 06681 33/// /2401 11059 21077 39157 48356 53012 333 91102 91201;
0349066810999992010011006004+47433+009400FM-12+079199999V0202501N000510006019N0010001N1-00601-00771999999ADDAA112000391AA224000591AJ100099199999999AL19900091AY171061AY241061GA1091+999999999GF109991091999999999999999GJ100009IA1279IA2999-00709KA1999N-00661MA1999999091631MD1110141+9999ME1313619MW1401OA149900211REMSYN136AAXX  10064 06681 01/10 92501 11060 21077 39163 48361 51014 69932 74074 333 21066 3/107 43009 55000 60005 70004 90768 93100 91104 91202;
0137066810999992010011007004+47433+009400FM-12+079199999V0202301N000519999999N9999999N1-00581-00731999999ADDMA1999999091691MD1310161+9999ME1313679OA149900101REMSYN076AAXX  10074 06681 33/// /2301 11058 21073 39169 48367 53016 333 91102 91201;
0137066810999992010011008004+47433+009400FM-12+079199999V0202601N000519999999N9999999N1-00591-00731999999ADDMA1999999091761MD1319999+9999ME1313729OA149900151REMSYN076AAXX  10084 06681 33/// /2601 11059 21073 39176 48372 53/// 333 91103 91202;
0207066810999992010011009004+47433+009400FM-12+079199999V0202601N001010006019N0009001N1-00581-00761999999ADDAY141031AY241031GA1091+999999999GF109991091999999999999999MA1999999091841MD1310211+9999ME1313799MW1401OA149900151REMSYN082AAXX  10094 06681 31/09 92602 11058 21076 39184 48379 53021 74044 333 91103 91202;
0137066810999992010011010004+47433+009400FM-12+079199999V0202501N000519999999N9999999N1-00581-00771999999ADDMA1999999091901MD1110211+9999ME1313849OA149900151REMSYN076AAXX  10104 06681 33/// /2501 11058 21077 39190 48384 51021 333 91103 91202;
0137066810999992010011011004+47433+009400FM-12+079199999V0202501N001019999999N9999999N1-00561-00791999999ADDMA1999999091941MD1110181+9999ME1313889OA149900151REMSYN076AAXX  10114 06681 33/// /2502 11056 21079 39194 48388 51018 333 91103 91202;
0213066810999992010011012004+47433+009400FM-12+079199999V0202701N001010006019N0015001N1-00551-00751999999ADDAY141061AY221061GA1081+000601071GF108991999999000751999999MA1999999091971MD1110131+9999ME1313919MW1051OA149900151REMSYN088AAXX  10124 06681 31115 82702 11055 21075 39197 48391 51013 70542 333 88702 91103 91202;
0137066810999992010011013004+47433+009400FM-12+079199999V0202801N000519999999N9999999N1-00561-00791999999ADDMA1999999091981MD1110081+9999ME1313929OA149900151REMSYN076AAXX  10134 06681 33/// /2801 11056 21079 39198 48392 51008 333 91103 91202;
0137066810999992010011014004+47433+009400FM-12+079199999V0202401N000519999999N9999999N1-00531-00751999999ADDMA1999999092031MD1319999+9999ME1313969OA149900151REMSYN076AAXX  10144 06681 33/// /2401 11053 21075 39203 48396 53/// 333 91103 91202;
0213066810999992010011015004+47433+009400FM-12+079199999V0202601N001010009019N0015001N1-00591-00751999999ADDAY121031AY221031GA1081+000901041GF108991999999000751999999MA1999999092071MD1310101+9999ME1313989MW1051OA149900151REMSYN088AAXX  10154 06681 31115 82602 11059 21075 39207 48398 53010 70522 333 88403 91103 91202;
0137066810999992010011016004+47433+009400FM-12+079199999V0202401N000519999999N9999999N1-00581-00771999999ADDMA1999999092131MD1210151+9999ME1314049OA149900151REMSYN076AAXX  10164 06681 33/// /2401 11058 21077 39213 48404 52015 333 91103 91202;
0137066810999992010011017004+47433+009400FM-12+079199999V0202501N000519999999N9999999N1-00611-00821999999ADDMA1999999092161MD1210131+9999ME1314059OA149900151REMSYN076AAXX  10174 06681 33/// /2501 11061 21082 39216 48405 52013 333 91103 91201;
0283066810999992010011018004+47433+009400FM-12+079199999V0202601N000510009019N0015001N1-00641-00841999999ADDAJ100089199999999AL19900091AY121061AY221061GA1081+000901071GF108991999999000751999999IA1279KA1120M-00531MA1999999092211MD1210141+9999ME1314099MW1051OA149900151REMSYN112AAXX  10184 06681 31115 82601 11064 21084 39221 48409 52014 70522 333 11053 43008 88703 90766 93100 91103 91202;
0137066810999992010011019004+47433+009400FM-12+079199999V0202601N001019999999N9999999N1-00651-00851999999ADDMA1999999092231MD1210101+9999ME1314109OA149900211REMSYN076AAXX  10194 06681 33/// /2602 11065 21085 39223 48410 52010 333 91104 91202;
0137066810999992010011020004+47433+009400FM-12+079199999V0202501N000519999999N9999999N1-00681-00861999999ADDMA1999999092251MD1210091+9999ME1314119OA149900211REMSYN076AAXX  10204 06681 33/// /2501 11068 21086 39225 48411 52009 333 91104 91202;
0137066810999992010011021004+47433+009400FM-12+079199999V0201701N000519999999N9999999N1-00641-00921999999ADDMA1999999092261MD1210051+9999ME1314139OA149900211REMSYN076AAXX  10214 06681 33/// /1701 11064 21092 39226 48413 52005 333 91104 91202;
0137066810999992010011022004+47433+009400FM-12+079199999V0202001N000519999999N9999999N1-00671-00931999999ADDMA1999999092261MD1210031+9999ME1314129OA149900151REMSYN076AAXX  10224 06681 33/// /2001 11067 21093 39226 48412 52003 333 91103 91201;
0137066810999992010011023004+47433+009400FM-12+079199999V0201801N000519999999N9999999N1-00651-00911999999ADDMA1999999092251MD1010001+9999ME1314129OA149900151REMSYN076AAXX  10234 06681 33/// /1801 11065 21091 39225 48412 50000 333 91103 91201;
0137066810999992010011100004+47433+009400FM-12+079199999V0201801N000519999999N9999999N1-00641-00951999999ADDMA1999999092221MD1810041+9999ME1314109OA149900211REMSYN076AAXX  11004 06681 33/// /1801 11064 21095 39222 48410 58004 333 91104 91202;
0137066810999992010011101004+47433+009400FM-12+079199999V0202301N000519999999N9999999N1-00641-00911999999ADDMA1999999092221MD1710041+9999ME1314109OA149900101REMSYN076AAXX  11014 06681 33/// /2301 11064 21091 39222 48410 57004 333 91102 91202;
0137066810999992010011102004+47433+009400FM-12+079199999V0202301N001019999999N9999999N1-00631-00921999999ADDMA1999999092241MD1519999+9999ME1314129OA149900101REMSYN076AAXX  11024 06681 33/// /2302 11063 21092 39224 48412 55/// 333 91102 91202;
0137066810999992010011103004+47433+009400FM-12+079199999V0202301N000519999999N9999999N1-00651-00871999999ADDMA1999999092251MD1219999+9999ME1314129OA149900151REMSYN076AAXX  11034 06681 33/// /2301 11065 21087 39225 48412 52/// 333 91103 91202;
0137066810999992010011104004+47433+009400FM-12+079199999V0201601N000519999999N9999999N1-00631-00951999999ADDMA1999999092251MD1210031+9999ME1314129OA149900151REMSYN076AAXX  11044 06681 33/// /1601 11063 21095 39225 48412 52003 333 91103 91202;
0137066810999992010011105004+47433+009400FM-12+079199999V0201601N000519999999N9999999N1-00631-00921999999ADDMA1999999092231MD1710011+9999ME1314119OA149900151REMSYN076AAXX  11054 06681 33/// /1601 11063 21092 39223 48411 57001 333 91103 91202;
0351066810999992010011106004+47433+009400FM-12+079199999V0201701N000510009019N0015001N1-00631-00931999999ADDAA124000091AJ100089199999999AL19900091AY121061AY221061GA1081+000901071GF108991999999000751999999GJ100009IA1279IA2999-00809KA1999N-00681MA1999999092221MD1710031+9999ME1314109MW1051OA149900211REMSYN130AAXX  11064 06681 31115 81701 11063 21093 39222 48410 57003 70522 333 21068 3/108 43008 55000 70000 88703 90768 93100 91104 91202;EQDQ01  00002PRCP24
0137066810999992010011107004+47433+009400FM-12+079199999V0202201N001019999999N9999999N1-00641-00951999999ADDMA1999999092231MD1510021+9999ME1314119OA149900151REMSYN076AAXX  11074 06681 33/// /2202 11064 21095 39223 48411 55002 333 91103 91202;
0137066810999992010011108004+47433+009400FM-12+079199999V0202301N000519999999N9999999N1-00631-00921999999ADDMA1999999092241MD1319999+9999ME1314129OA149900151REMSYN076AAXX  11084 06681 33/// /2301 11063 21092 39224 48412 53/// 333 91103 91202;
0213066810999992010011109004+47433+009400FM-12+079199999V0202401N001010015019N0030001N1-00631-00951999999ADDAY121031AY221031GA1081+001501071GF108991999999001501999999MA1999999092241MD1210021+9999ME1314129MW1051OA149900151REMSYN088AAXX  11094 06681 31230 82402 11063 21095 39224 48412 52002 70522 333 88705 91103 91202;
0137066810999992010011110004+47433+009400FM-12+079199999V0202601N000519999999N9999999N1-00611-00921999999ADDMA1999999092231MD1019999+9999ME1314119OA149900151REMSYN076AAXX  11104 06681 33/// /2601 11061 21092 39223 48411 50/// 333 91103 91202;
0137066810999992010011111004+47433+009400FM-12+079199999V0209999C000019999999N9999999N1-00521-00871999999ADDMA1999999092201MD1710041+9999ME1314119OA149900151REMSYN076AAXX  11114 06681 33/// /0000 11052 21087 39220 48411 57004 333 91103 91202;
0213066810999992010011112004+47433+009400FM-12+079199999V0203201N000510009019N0015001N1-00541-00871999999ADDAY121061AY221061GA1081+000901071GF108991999999000751999999MA1999999092191MD1610051+9999ME1314109MW1051OA149900151REMSYN088AAXX  11124 06681 31115 83201 11054 21087 39219 48410 56005 70522 333 88703 91103 91202;
0137066810999992010011113004+47433+009400FM-12+079199999V0202501N001019999999N9999999N1-00511-00851999999ADDMA1999999092181MD1610051+9999ME1314109OA149900151REMSYN076AAXX  11134 06681 33/// /2502 11051 21085 39218 48410 56005 333 91103 91202;
0096066810999992010011114004+47433+009400FM-12+079199999V0202801N001019999999N9999999N1-00521-00761999999ADDMA1999999092191ME1314109REMSYN060AAXX  11144 06681 33/// /2802 11052 21076 39219 48410 5////;
0154066810999992010011115004+47433+009400FM-12+079199999V0200401N000519999999N9999999N1-00541-00671999999ADDAA101000591MA1999999092241MD1310051+9999ME1314149OA149900211REMSYN082AAXX  11154 06681 23/// /0401 11054 21067 39224 48414 53005 333 69945 91104 91202;
0154066810999992010011116004+47433+009400FM-12+079199999V0200401N000519999999N9999999N1-00531-00651999999ADDAA101000891MA1999999092271MD1110091+9999ME1314179OA149900101REMSYN082AAXX  11164 06681 23/// /0401 11053 21065 39227 48417 51009 333 69975 91102 91201;
0154066810999992010011117004+47433+009400FM-12+079199999V0203001N000519999999N9999999N1-00541-00651999999ADDAA101001091MA1999999092311MD1110121+9999ME1314209OA149900101REMSYN082AAXX  11174 06681 23/// /3001 11054 21065 39231 48420 51012 333 60015 91102 91201;
0300066810999992010011118004+47433+009400FM-12+079199999V0202701N000510003019N0005001N1-00531-00661999999ADDAA112003091AJ100149199999999AL11200691AY171061AY241061GA1091+999999999GF109991091999999999999999IA1239KA1120M-00501MA1999999092361MD1310121+9999ME1314249MW1711OA149900211REMSYN118AAXX  11184 06681 01/05 92701 11053 21066 39236 48424 53012 60032 77174 333 11050 47014 60015 90766 93106 91104 91202;
0154066810999992010011119004+47433+009400FM-12+079199999V0202801N000519999999N9999999N1-00551-00691999999ADDAA101000391MA1999999092381MD1110111+9999ME1314259OA149900101REMSYN082AAXX  11194 06681 23/// /2801 11055 21069 39238 48425 51011 333 69935 91102 91202;
0154066810999992010011120004+47433+009400FM-12+079199999V0202701N000519999999N9999999N1-00511-00671999999ADDAA101000391MA1999999092381MD1210071+9999ME1314269OA149900101REMSYN082AAXX  11204 06681 23/// /2701 11051 21067 39238 48426 52007 333 69935 91102 91202;
0154066810999992010011121004+47433+009400FM-12+079199999V0202201N000519999999N9999999N1-00481-00751999999ADDAA101000021MA1999999092391MD1210031+9999ME1314289OA149900151REMSYN082AAXX  11214 06681 23/// /2201 11048 21075 39239 48428 52003 333 69925 91103 91202;
0154066810999992010011122004+47433+009400FM-12+079199999V0202201N000519999999N9999999N1-00491-00721999999ADDAA101000021MA1999999092411MD1210031+9999ME1314299OA149900211REMSYN082AAXX  11224 06681 23/// /2201 11049 21072 39241 48429 52003 333 69925 91104 91202;
0154066810999992010011123004+47433+009400FM-12+079199999V0202701N000519999999N9999999N1-00521-00691999999ADDAA101000591MA1999999092421MD1210041+9999ME1314299OA149900211REMSYN082AAXX  11234 06681 23/// /2701 11052 21069 39242 48429 52004 333 69945 91104 91202;
0160066810999992010011200004+47433+009400FM-12+079199999V0209999C000019999999N9999999N1-00511-00671999999ADDAA106002091MA1999999092431MD1210041+9999ME1314309OA149900211REMSYN088AAXX  12004 06681 03/// /0000 11051 21067 39243 48430 52004 60021 333 69965 91104 91202;
0154066810999992010011201004+47433+009400FM-12+079199999V0209999C000019999999N9999999N1-00521-00621999999ADDAA101000591MA1999999092421MD1010011+9999ME1314299OA149900151REMSYN082AAXX  12014 06681 23/// /0000 11052 21062 39242 48429 50001 333 69965 91103 91201;
0154066810999992010011202004+47433+009400FM-12+079199999V0209999C000019999999N9999999N1-00521-00661999999ADDAA101000591MA1999999092411MD1719999+9999ME1314299OA149900151REMSYN082AAXX  12024 06681 23/// /0000 11052 21066 39241 48429 57/// 333 69955 91103 91201;
0137066810999992010011203004+47433+009400FM-12+079199999V0209999C000019999999N9999999N1-00511-00691999999ADDMA1999999092411MD1810021+9999ME1314299OA149900211REMSYN076AAXX  12034 06681 33/// /0000 11051 21069 39241 48429 58002 333 91104 91202;
0137066810999992010011204004+47433+009400FM-12+079199999V0201901N000519999999N9999999N1-00481-00711999999ADDMA1999999092411MD1510011+9999ME1314309OA149900151REMSYN076AAXX  12044 06681 33/// /1901 11048 21071 39241 48430 55001 333 91103 91201;
0137066810999992010011205004+47433+009400FM-12+079199999V0209999C000019999999N9999999N1-00481-00681999999ADDMA1999999092391MD1710021+9999ME1314289OA149900151REMSYN076AAXX  12054 06681 33/// /0000 11048 21068 39239 48428 57002 333 91103 91201;
0365066810999992010011206004+47433+009400FM-12+079199999V0209999C000010015019N0030001N1-00511-00681999999ADDAA112003091AA224006491AJ100189199999999AL11800691AL29901091AY171061AY221061GA1081+001501041GF108991999999001501999999GJ100009IA1279IA2999-00609KA1999N-00551MA1999999092361MD1810051+9999ME1314259MW1021OA149900211REMSYN142AAXX  12064 06681 01230 80000 11051 21068 39236 48425 58005 60032 70272 333 21055 3/106 43018 55000 69915 70063 88405 90768 93110 91104 91202;
0137066810999992010011207004+47433+009400FM-12+079199999V0209999C000019999999N9999999N1-00511-00691999999ADDMA1999999092341MD1710071+9999ME1314239OA149900101REMSYN076AAXX  12074 06681 33/// /0000 11051 21069 39234 48423 57007 333 91102 91202;
0137066810999992010011208004+47433+009400FM-12+079199999V0200601N000519999999N9999999N1-00521-00661999999ADDMA1999999092301MD1719999+9999ME1314199OA149900101REMSYN076AAXX  12084 06681 33/// /0601 11052 21066 39230 48419 57/// 333 91102 91201;
0213066810999992010011209004+47433+009400FM-12+079199999V0200501N000510015019N0020001N1-00481-00611999999ADDAY171031AY221031GA1081+001501071GF108991999999001501999999MA1999999092241MD1710121+9999ME1314159MW1051OA149900261REMSYN088AAXX  12094 06681 31220 80501 11048 21061 39224 48415 57012 70572 333 88705 91105 91203;
0137066810999992010011210004+47433+009400FM-12+079199999V0200301N001019999999N9999999N1-00441-00541999999ADDMA1999999092161MD1710181+9999ME1314109OA149900261REMSYN076AAXX  12104 06681 33/// /0302 11044 21054 39216 48410 57018 333 91105 91203;
0137066810999992010011211004+47433+009400FM-12+079199999V0200201N001019999999N9999999N1-00441-00561999999ADDMA1999999092071MD1710231+9999ME1314029OA149900211REMSYN076AAXX  12114 06681 33/// /0202 11044 21056 39207 48402 57023 333 91104 91202;
0185066810999992010011212004+47433+009400FM-12+079199999V0200901N000510039019N0030001N1-00411-00551999999ADDGA1081+003901041GF108991999999004501999999MA1999999091971MD1810271+9999ME1313949OA149900261REMSYN082AAXX  12124 06681 32430 80901 11041 21055 39197 48394 58027 333 88413 91105 91203;
0137066810999992010011213004+47433+009400FM-12+079199999V0201901N000519999999N9999999N1-00391-00541999999ADDMA1999999091931MD1610231+9999ME1313919OA149900211REMSYN076AAXX  12134 06681 33/// /1901 11039 21054 39193 48391 56023 333 91104 91202;
0096066810999992010011214004+47433+009400FM-12+079199999V0200201N000519999999N9999999N1-00431-00531999999ADDMA1999999091891ME1313879REMSYN060AAXX  12144 06681 33/// /0201 11043 21053 39189 48387 5////;
0207066810999992010011215004+47433+009400FM-12+079199999V0200601N001010006019N0009001N1-00401-00521999999ADDAY141031AY221031GA1091+999999999GF109991091999999999999999MA1999999091831MD1710141+9999ME1313839MW1401OA149900211REMSYN082AAXX  12154 06681 31/09 90602 11040 21052 39183 48383 57014 74042 333 91104 91202;
0137066810999992010011216004+47433+009400FM-12+079199999V0200201N001019999999N9999999N1-00441-00541999999ADDMA1999999091731MD1710201+9999ME1313739OA149900151REMSYN076AAXX  12164 06681 33/// /0202 11044 21054 39173 48373 57020 333 91103 91202;
0137066810999992010011217004+47433+009400FM-12+079199999V0201201N001019999999N9999999N1-00431-00551999999ADDMA1999999091661MD1710231+9999ME1313689OA149900211REMSYN076AAXX  12174 06681 33/// /1202 11043 21055 39166 48368 57023 333 91104 91202;
0277066810999992010011218004+47433+009400FM-12+079199999V0201401N000510006019N0009001N1-00461-00561999999ADDAJ100169199999999AL19900091AY141061AY221061GA1091+999999999GF109991091999999999999999IA1279KA1120M-00391MA1999999091621MD1710211+9999ME1313639MW1401OA149900261REMSYN106AAXX  12184 06681 31/09 91401 11046 21056 39162 48363 57021 74042 333 11039 43016 90766 93100 91105 91203;
0137066810999992010011219004+47433+009400FM-12+079199999V0201501N001019999999N9999999N1-00421-00561999999ADDMA1999999091611MD1710121+9999ME1313649OA149900151REMSYN076AAXX  12194 06681 33/// /1502 11042 21056 39161 48364 57012 333 91103 91202;
0137066810999992010011220004+47433+009400FM-12+079199999V0201901N000519999999N9999999N1-00411-00571999999ADDMA1999999091601MD1710061+9999ME1313639OA149900151REMSYN076AAXX  12204 06681 33/// /1901 11041 21057 39160 48363 57006 333 91103 91202;
0137066810999992010011221004+47433+009400FM-12+079199999V0200401N000519999999N9999999N1-00461-00521999999ADDMA1999999091521MD1710101+9999ME1313559OA149900211REMSYN076AAXX  12214 06681 33/// /0401 11046 21052 39152 48355 57010 333 91104 91202;
0137066810999992010011222004+47433+009400FM-12+079199999V0209999C000019999999N9999999N1-00511-00571999999ADDMA1999999091461MD1710151+9999ME1313499OA149900151REMSYN076AAXX  12224 06681 33/// /0000 11051 21057 39146 48349 57015 333 91103 91202;
0137066810999992010011223004+47433+009400FM-12+079199999V0209999C000019999999N9999999N1-00461-00551999999ADDMA1999999091411MD1610191+9999ME1313469OA149900151REMSYN076AAXX  12234 06681 33/// /0000 11046 21055 39141 48346 56019 333 91103 91202;
0137066810999992010011300004+47433+009400FM-12+079199999V0201401N000519999999N9999999N1-00481-00551999999ADDMA1999999091361MD1710161+9999ME1313419OA149900211REMSYN076AAXX  13004 06681 33/// /1401 11048 21055 39136 48341 57016 333 91104 91202;
0137066810999992010011301004+47433+009400FM-12+079199999V0202901N000519999999N9999999N1-00511-00571999999ADDMA1999999091421MD1510041+9999ME1313459OA149900211REMSYN076AAXX  13014 06681 33/// /2901 11051 21057 39142 48345 55004 333 91104 91202;
0137066810999992010011302004+47433+009400FM-12+079199999V0202401N000519999999N9999999N1-00491-00591999999ADDMA1999999091521MD1319999+9999ME1313549OA149900211REMSYN076AAXX  13024 06681 33/// /2401 11049 21059 39152 48354 53/// 333 91104 91202;
0137066810999992010011303004+47433+009400FM-12+079199999V0200901N001019999999N9999999N1-00511-00681999999ADDMA1999999091431MD1019999+9999ME1313469OA149900211REMSYN076AAXX  13034 06681 33/// /0902 11051 21068 39143 48346 50/// 333 91104 91202;
0137066810999992010011304004+47433+009400FM-12+079199999V0200901N001019999999N9999999N1-00521-00621999999ADDMA1999999091341MD1810081+9999ME1313389OA149900261REMSYN076AAXX  13044 06681 33/// /0902 11052 21062 39134 48338 58008 333 91105 91203;
0137066810999992010011305004+47433+009400FM-12+079199999V0200201N000519999999N9999999N1-00541-00611999999ADDMA1999999091321MD1710201+9999ME1313369OA149900261REMSYN076AAXX  13054 06681 33/// /0201 11054 21061 39132 48336 57020 333 91105 91203;
0345066810999992010011306004+47433+009400FM-12+079199999V0209999C000010001519N0001001N1-00501-00621999999ADDAA124000091AJ100169199999999AL19900091AY141061AY241061GA1091+999999999GF109991091999999999999999GJ100009IA1279IA2999-00709KA1999N-00581MA1999999091331MD1510101+9999ME1313389MW1451OA149900261REMSYN124AAXX  13064 06681 31/01 90000 11050 21062 39133 48338 55010 74544 333 21058 3/107 43016 55000 70001 90768 93100 91105 91203;EQDQ01  00002PRCP24
0137066810999992010011307004+47433+009400FM-12+079199999V0209999C000019999999N9999999N1-00471-00611999999ADDMA1999999091381MD1210041+9999ME1313439OA149900101REMSYN076AAXX  13074 06681 33/// /0000 11047 21061 39138 48343 52004 333 91102 91201;
0137066810999992010011308004+47433+009400FM-12+079199999V0209999C000019999999N9999999N1-00451-00571999999ADDMA1999999091431MD1210111+9999ME1313489OA149900101REMSYN076AAXX  13084 06681 33/// /0000 11045 21057 39143 48348 52011 333 91102 91201;
0207066810999992010011309004+47433+009400FM-12+079199999V0202401N000510003019N0003001N1-00411-00531999999ADDAY141031AY241031GA1091+999999999GF109991091999999999999999MA1999999091521MD1210191+9999ME1313569MW1431OA149900261REMSYN082AAXX  13094 06681 31/03 92401 11041 21053 39152 48356 52019 74344 333 91105 91203;
0137066810999992010011310004+47433+009400FM-12+079199999V0209999C000019999999N9999999N1-00331-00481999999ADDMA1999999091541MD1210161+9999ME1313609OA149900151REMSYN076AAXX  13104 06681 33/// /0000 11033 21048 39154 48360 52016 333 91103 91202;
0137066810999992010011311004+47433+009400FM-12+079199999V0209999C000019999999N9999999N1-00271-00421999999ADDMA1999999091571MD1210141+9999ME1313639OA149900101REMSYN076AAXX  13114 06681 33/// /0000 11027 21042 39157 48363 52014 333 91102 91201;
0207066810999992010011312004+47433+009400FM-12+079199999V0200101N000510003019N0002001N1-00251-00331999999ADDAY141061AY241061GA1091+999999999GF109991091999999999999999MA1999999091561MD1010041+9999ME1313639MW1451OA149900261REMSYN082AAXX  13124 06681 31/02 90101 11025 21033 39156 48363 50004 74544 333 91105 91203;
0154066810999992010011313004+47433+009400FM-12+079199999V0209999C000019999999N9999999N1-00231-00311999999ADDAA101000021MA1999999091561MD1010021+9999ME1313649OA149900101REMSYN082AAXX  13134 06681 23/// /0000 11023 21031 39156 48364 50002 333 69915 91102 91201;
0154066810999992010011314004+47433+009400FM-12+079199999V0203201N000519999999N9999999N1-00221-00281999999ADDAA101000021MA1999999091591MD1319999+9999ME1313669OA149900051REMSYN082AAXX  13144 06681 23/// /3201 11022 21028 39159 48366 53/// 333 69915 91101 91201;
0207066810999992010011315004+47433+009400FM-12+079199999V0209999C000010003019N0002001N1-00171-00241999999ADDAY141031AY241031GA1091+999999999GF109991091999999999999999MA1999999091621MD1210061+9999ME1313709MW1451OA149900101REMSYN082AAXX  13154 06681 31/02 90000 11017 21024 39162 48370 52006 74544 333 91102 91201;
0154066810999992010011316004+47433+009400FM-12+079199999V0209999C000019999999N9999999N1+00021-00061999999ADDAA101000021MA1999999091651MD1310091+9999ME1313779OA149900101REMSYN082AAXX  13164 06681 23/// /0000 10002 21006 39165 48377 53009 333 69925 91102 91201;
0154066810999992010011317004+47433+009400FM-12+079199999V0201701N000519999999N9999999N1+00081+00001999999ADDAA101000591MA1999999091691MD1110101+9999ME1313829OA149900151REMSYN082AAXX  13174 06681 23/// /1701 10008 20000 39169 48382 51010 333 69965 91103 91201;
0306066810999992010011318004+47433+009400FM-12+079199999V0202001N001510051019N0040001N1+00171+00021999999ADDAA112002091AJ100159199999999AL19900091AY161061AY241061GA1081+005101041GF108991999999004501999999IA1279KA1120M+00181MA1999999091741MD1310121+9999ME1313889MW1611OA149900411REMSYN124AAXX  13184 06681 01440 82003 10017 20002 39174 48388 53012 60022 76164 333 10018 43015 69975 88417 90766 93100 91108 91203;
0154066810999992010011319004+47433+009400FM-12+079199999V0202101N001019999999N9999999N1+00191+00031999999ADDAA101000391MA1999999091761MD1119999+9999ME1313909OA149900411REMSYN082AAXX  13194 06681 23/// /2102 10019 20003 39176 48390 51/// 333 69935 91108 91203;
0096066810999992010011400004+47433+009400FM-12+079199999V0201801N001519999999N9999999N1+00181+00001999999ADDMA1999999091711ME1313869REMSYN060AAXX  14004 06681 43/// /1803 10018 20000 39171 48386 5////;
0137066810999992010011401004+47433+009400FM-12+079199999V0201701N001019999999N9999999N1+00151-00031999999ADDMA1999999091691MD1819999+9999ME1313839OA149900411REMSYN076AAXX  14014 06681 33/// /1702 10015 21003 39169 48383 58/// 333 91108 91205;
0137066810999992010011402004+47433+009400FM-12+079199999V0201801N000519999999N9999999N1+00121-00031999999ADDMA1999999091661MD1719999+9999ME1313809OA149900211REMSYN076AAXX  14024 06681 33/// /1801 10012 21003 39166 48380 57/// 333 91104 91203;
0096066810999992010011403004+47433+009400FM-12+079199999V0200801N001519999999N9999999N1+00061-00051999999ADDMA1999999091601ME1313739REMSYN060AAXX  14034 06681 33/// /0803 10006 21005 39160 48373 5////;
0137066810999992010011404004+47433+009400FM-12+079199999V0209999C000019999999N9999999N1-00131-00131999999ADDMA1999999091561MD1710131+9999ME1313669OA149900261REMSYN076AAXX  14044 06681 33/// /0000 11013 21013 39156 48366 57013 333 91105 91204;
0137066810999992010011405004+47433+009400FM-12+079199999V0209999C000019999999N9999999N1-00121-00121999999ADDMA1999999091561MD1610101+9999ME1313669OA149900211REMSYN076AAXX  14054 06681 33/// /0000 11012 21012 39156 48366 56010 333 91104 91203;
0359066810999992010011406004+47433+009400FM-12+079199999V0209999C000010001519N0000001N1-00141-00141999999ADDAA112002091AA224003891AJ100159199999999AL14200391AL29900091AY161061AY241061GA1091+999999999GF109991091999999999999999GJ100009IA1279IA2999-00309KA1999N-00191MA1999999091571MD1510031+9999ME1313669MW1451OA149900571REMSYN136AAXX  14064 06681 01/00 90000 11014 21014 39157 48366 55003 60022 74564 333 21019 3/103 43015 55000 60005 70037 90768 93100 91111 91206;
0137066810999992010011407004+47433+009400FM-12+079199999V0202301N000519999999N9999999N1-00181-00191999999ADDMA1999999091541MD1810021+9999ME1313639OA149900151REMSYN076AAXX  14074 06681 33/// /2301 11018 21019 39154 48363 58002 333 91103 91201;
0137066810999992010011408004+47433+009400FM-12+079199999V0201401N001019999999N9999999N1-00151-00221999999ADDMA1999999091531MD1719999+9999ME1313639OA149900151REMSYN076AAXX  14084 06681 33/// /1402 11015 21022 39153 48363 57/// 333 91103 91202;
0207066810999992010011409004+47433+009400FM-12+079199999V0201601N001010001519N0000001N1-00151-00261999999ADDAY141031AY241031GA1091+999999999GF109991091999999999999999MA1999999091521MD1710051+9999ME1313629MW1451OA149900211REMSYN082AAXX  14094 06681 31/00 91602 11015 21026 39152 48362 57005 74544 333 91104 91203;
0137066810999992010011410004+47433+009400FM-12+079199999V0202601N001519999999N9999999N1-00091-00201999999ADDMA1999999091521MD1710021+9999ME1313639OA149900361REMSYN076AAXX  14104 06681 33/// /2603 11009 21020 39152 48363 57002 333 91107 91203;
0137066810999992010011411004+47433+009400FM-12+079199999V0202201N001019999999N9999999N1-00071-00191999999ADDMA1999999091461MD1710071+9999ME1313589OA149900361REMSYN076AAXX  14114 06681 33/// /2202 11007 21019 39146 48358 57007 333 91107 91203;
0207066810999992010011412004+47433+009400FM-12+079199999V0203101N001510006019N0009001N1-00091-00181999999ADDAY141061AY241061GA1091+999999999GF109991091999999999999999MA1999999091411MD1810111+9999ME1313549MW1451OA149900361REMSYN082AAXX  14124 06681 31/09 93103 11009 21018 39141 48354 58011 74544 333 91107 91204;
0137066810999992010011413004+47433+009400FM-12+079199999V0201501N000519999999N9999999N1-00041-00201999999ADDMA1999999091381MD1610141+9999ME1313529OA149900261REMSYN076AAXX  14134 06681 33/// /1501 11004 21020 39138 48352 56014 333 91105 91203;
0137066810999992010011414004+47433+009400FM-12+079199999V0209999C000019999999N9999999N1+00001-00091999999ADDMA1999999091401MD1710061+9999ME1313559OA149900261REMSYN076AAXX  14144 06681 33/// /0000 10000 21009 39140 48355 57006 333 91105 91203;
0207066810999992010011415004+47433+009400FM-12+079199999V0202801N001010001519N0000001N1+00001-00091999999ADDAY141031AY241031GA1091+999999999GF109991091999999999999999MA1999999091421MD1310011+9999ME1313579MW1451OA149900361REMSYN082AAXX  14154 06681 31/00 92802 10000 21009 39142 48357 53001 74544 333 91107 91203;
0137066810999992010011416004+47433+009400FM-12+079199999V0202401N000519999999N9999999N1-00021-00091999999ADDMA1999999091471MD1310091+9999ME1313609OA149900261REMSYN076AAXX  14164 06681 33/// /2401 11002 21009 39147 48360 53009 333 91105 91203;
0137066810999992010011417004+47433+009400FM-12+079199999V0203001N001519999999N9999999N1-00031-00061999999ADDMA1999999091551MD1310151+9999ME1313679OA149900261REMSYN076AAXX  14174 06681 33/// /3003 11003 21006 39155 48367 53015 333 91105 91203;
0277066810999992010011418004+47433+009400FM-12+079199999V0200101N001510001519N0001001N1-00051-00071999999ADDAJ100119199999999AL19900091AY141061AY241061GA1091+999999999GF109991091999999999999999IA1279KA1120M+00051MA1999999091611MD1210191+9999ME1313729MW1451OA149900361REMSYN106AAXX  14184 06681 31/01 90103 11005 21007 39161 48372 52019 74544 333 10005 43011 90766 93100 91107 91203;
0137066810999992010011419004+47433+009400FM-12+079199999V0200201N001519999999N9999999N1-00071-00091999999ADDMA1999999091681MD1210211+9999ME1313779OA149900311REMSYN076AAXX  14194 06681 33/// /0203 11007 21009 39168 48377 52021 333 91106 91203;
0137066810999992010011420004+47433+009400FM-12+079199999V0200201N001519999999N9999999N1-00071-00101999999ADDMA1999999091721MD1110171+9999ME1313819OA149900361REMSYN076AAXX  14204 06681 33/// /0203 11007 21010 39172 48381 51017 333 91107 91204;
0137066810999992010011421004+47433+009400FM-12+079199999V0203601N001519999999N9999999N1-00121-00131999999ADDMA1999999091791MD1310181+9999ME1313869OA149900361REMSYN076AAXX  14214 06681 33/// /3603 11012 21013 39179 48386 53018 333 91107 91204;
0137066810999992010011422004+47433+009400FM-12+079199999V0200201N001519999999N9999999N1-00141-00141999999ADDMA1999999091881MD1310201+9999ME1313939OA149900361REMSYN076AAXX  14224 06681 33/// /0203 11014 21014 39188 48393 53020 333 91107 91204;
0137066810999992010011423004+47433+009400FM-12+079199999V0200201N002119999999N9999999N1-00171-00181999999ADDMA1999999091971MD1310251+9999ME1314009OA149900361REMSYN076AAXX  14234 06681 33/// /0204 11017 21018 39197 48400 53025 333 91107 91204;
0137066810999992010011500004+47433+009400FM-12+079199999V0200301N001019999999N9999999N1-00191-00191999999ADDMA1999999092031MD1110241+9999ME1314059OA149900361REMSYN076AAXX  15004 06681 33/// /0302 11019 21019 39203 48405 51024 333 91107 91204;
0137066810999992010011501004+47433+009400FM-12+079199999V0201801N001019999999N9999999N1-00191-00251999999ADDMA1999999092091MD1110211+9999ME1314109OA149900261REMSYN076AAXX  15014 06681 33/// /1802 11019 21025 39209 48410 51021 333 91105 91203;
0137066810999992010011502004+47433+009400FM-12+079199999V0200501N001019999999N9999999N1-00241-00301999999ADDMA1999999092181MD1210211+9999ME1314169OA149900211REMSYN076AAXX  15024 06681 33/// /0502 11024 21030 39218 48416 52021 333 91104 91202;
0096066810999992010011503004+47433+009400FM-12+079199999V0200601N000519999999N9999999N1-00221-00291999999ADDMA1999999092241ME1314229REMSYN060AAXX  15034 06681 33/// /0601 11022 21029 39224 48422 5////;
0137066810999992010011504004+47433+009400FM-12+079199999V0201601N001019999999N9999999N1-00191-00321999999ADDMA1999999092321MD1210231+9999ME1314299OA149900211REMSYN076AAXX  15044 06681 33/// /1602 11019 21032 39232 48429 52023 333 91104 91202;
0137066810999992010011505004+47433+009400FM-12+079199999V0202301N001019999999N9999999N1-00211-00351999999ADDMA1999999092421MD1310241+9999ME1314379OA149900311REMSYN076AAXX  15054 06681 33/// /2302 11021 21035 39242 48437 53024 333 91106 91203;
0351066810999992010011506004+47433+009400FM-12+079199999V0201501N001510060019N0030001N1-00231-00391999999ADDAA124000091AJ100129199999999AL19900091AY121061AY221061GA1081+006001041GF108991999999008001999999GJ100009IA1279IA2999-00309KA1999N-00251MA1999999092521MD1310281+9999ME1314459MW1051OA149900361REMSYN130AAXX  15064 06681 31530 81503 11023 21039 39252 48445 53028 70522 333 21025 3/103 43012 55000 70000 88420 90768 93100 91107 91204;EQDQ01  00002PRCP24
0137066810999992010011507004+47433+009400FM-12+079199999V0201901N001019999999N9999999N1-00231-00371999999ADDMA1999999092621MD1210301+9999ME1314549OA149900361REMSYN076AAXX  15074 06681 33/// /1902 11023 21037 39262 48454 52030 333 91107 91203;
0137066810999992010011508004+47433+009400FM-12+079199999V0201601N002119999999N9999999N1-00251-00411999999ADDMA1999999092681MD1119999+9999ME1314589OA149900311REMSYN076AAXX  15084 06681 33/// /1604 11025 21041 39268 48458 51/// 333 91106 91204;
0213066810999992010011509004+47433+009400FM-12+079199999V0201601N002110060019N0030001N1-00211-00371999999ADDAY121031AY221031GA1081+006001041GF108991999999008001999999MA1999999092751MD1110231+9999ME1314659MW1051OA149900411REMSYN088AAXX  15094 06681 31530 81604 11021 21037 39275 48465 51023 70522 333 88420 91108 91204;
0137066810999992010011510004+47433+009400FM-12+079199999V0202401N001019999999N9999999N1-00161-00321999999ADDMA1999999092831MD1310211+9999ME1314739OA149900411REMSYN076AAXX  15104 06681 33/// /2402 11016 21032 39283 48473 53021 333 91108 91204;
0137066810999992010011511004+47433+009400FM-12+079199999V0202001N000519999999N9999999N1-00161-00321999999ADDMA1999999092861MD1110181+9999ME1314769OA149900361REMSYN076AAXX  15114 06681 33/// /2001 11016 21032 39286 48476 51018 333 91107 91203;
0213066810999992010011512004+47433+009400FM-12+079199999V0202901N000510060019N0030001N1-00141-00301999999ADDAY121061AY221061GA1081+006001041GF108991999999008001999999MA1999999092871MD1210121+9999ME1314779MW1051OA149900411REMSYN088AAXX  15124 06681 31530 82901 11014 21030 39287 48477 52012 70522 333 88420 91108 91204;
0137066810999992010011513004+47433+009400FM-12+079199999V0201601N000519999999N9999999N1-00121-00291999999ADDMA1999999092921MD1210091+9999ME1314829OA149900151REMSYN076AAXX  15134 06681 33/// /1601 11012 21029 39292 48482 52009 333 91103 91202;
0137066810999992010011514004+47433+009400FM-12+079199999V0203001N001019999999N9999999N1-00101-00291999999ADDMA1999999092991MD1210131+9999ME1314889OA149900261REMSYN076AAXX  15144 06681 33/// /3002 11010 21029 39299 48488 52013 333 91105 91202;
0213066810999992010011515004+47433+009400FM-12+079199999V0202801N000510069019N0030001N1-00101-00271999999ADDAY121031AY221031GA1071+006901041GF107991999999008001999999MA1999999093061MD1310191+9999ME1314949MW1051OA149900361REMSYN088AAXX  15154 06681 31530 72801 11010 21027 39306 48494 53019 70522 333 87423 91107 91203;
0137066810999992010011516004+47433+009400FM-12+079199999V0200201N000519999999N9999999N1-00091-00221999999ADDMA1999999093121MD1310201+9999ME1314999OA149900101REMSYN076AAXX  15164 06681 33/// /0201 11009 21022 39312 48499 53020 333 91102 91201;
0137066810999992010011517004+47433+009400FM-12+079199999V0201201N001019999999N9999999N1-00111-00231999999ADDMA1999999093151MD1210161+9999ME1315019OA149900211REMSYN076AAXX  15174 06681 33/// /1202 11011 21023 39315 48501 52016 333 91104 91202;
0283066810999992010011518004+47433+009400FM-12+079199999V0200401N000510021019N0030001N1-00101-00211999999ADDAJ100129199999999AL19900091AY121061AY221061GA1081+002101041GF108991999999002501999999IA1279KA1120M-00071MA1999999093191MD1210131+9999ME1315059MW1051OA149900411REMSYN112AAXX  15184 06681 31330 80401 11010 21021 39319 48505 52013 70522 333 11007 43012 88407 90766 93100 91108 91204;
0137066810999992010011519004+47433+009400FM-12+079199999V0202401N000519999999N9999999N1-00081-00221999999ADDMA1999999093211MD1210091+9999ME1315079OA149900151REMSYN076AAXX  15194 06681 33/// /2401 11008 21022 39321 48507 52009 333 91103 91202;
0137066810999992010011520004+47433+009400FM-12+079199999V0203401N001019999999N9999999N1-00121-00221999999ADDMA1999999093211MD1210061+9999ME1315069OA149900151REMSYN076AAXX  15204 06681 33/// /3402 11012 21022 39321 48506 52006 333 91103 91202;
0137066810999992010011521004+47433+009400FM-12+079199999V0201301N001519999999N9999999N1-00221-00301999999ADDMA1999999093221MD1210031+9999ME1315049OA149900311REMSYN076AAXX  15214 06681 33/// /1303 11022 21030 39322 48504 52003 333 91106 91204;
0137066810999992010011522004+47433+009400FM-12+079199999V0201301N001019999999N9999999N1-00191-00281999999ADDMA1999999093231MD1210021+9999ME1315069OA149900311REMSYN076AAXX  15224 06681 33/// /1302 11019 21028 39323 48506 52002 333 91106 91204;
0137066810999992010011523004+47433+009400FM-12+079199999V0201001N001519999999N9999999N1-00231-00301999999ADDMA1999999093211MD1010001+9999ME1315039OA149900361REMSYN076AAXX  15234 06681 33/// /1003 11023 21030 39321 48503 50000 333 91107 91204;
0137066810999992010011600004+47433+009400FM-12+079199999V0201001N000519999999N9999999N1-00231-00321999999ADDMA1999999093201MD1710021+9999ME1315029OA149900361REMSYN076AAXX  16004 06681 33/// /1001 11023 21032 39320 48502 57002 333 91107 91204;
0137066810999992010011601004+47433+009400FM-12+079199999V0200801N001519999999N9999999N1-00231-00301999999ADDMA1999999093151MD1710081+9999ME1314989OA149900311REMSYN076AAXX  16014 06681 33/// /0803 11023 21030 39315 48498 57008 333 91106 91203;
0137066810999992010011602004+47433+009400FM-12+079199999V0200401N001019999999N9999999N1-00251-00361999999ADDMA1999999093161MD1710051+9999ME1314989OA149900311REMSYN076AAXX  16024 06681 33/// /0402 11025 21036 39316 48498 57005 333 91106 91203;
0137066810999992010011603004+47433+009400FM-12+079199999V0201001N001019999999N9999999N1-00271-00371999999ADDMA1999999093101MD1719999+9999ME1314939OA149900361REMSYN076AAXX  16034 06681 33/// /1002 11027 21037 39310 48493 57/// 333 91107 91204;
0137066810999992010011604004+47433+009400FM-12+079199999V0202601N001019999999N9999999N1-00321-00411999999ADDMA1999999093091MD1710061+9999ME1314919OA149900311REMSYN076AAXX  16044 06681 33/// /2602 11032 21041 39309 48491 57006 333 91106 91203;
0137066810999992010011605004+47433+009400FM-12+079199999V0201001N001519999999N9999999N1-00371-00431999999ADDMA1999999093041MD1710121+9999ME1314859OA149900311REMSYN076AAXX  16054 06681 33/// /1003 11037 21043 39304 48485 57012 333 91106 91203;
0345066810999992010011606004+47433+009400FM-12+079199999V0201501N000510006019N0009001N1-00401-00491999999ADDAA124000091AJ100129199999999AL19900091AY141061AY221061GA1091+999999999GF109991091999999999999999GJ100009IA1279IA2999-00409KA1999N-00401MA1999999093011MD1710091+9999ME1314829MW1401OA149900361REMSYN124AAXX  16064 06681 31/09 91501 11040 21049 39301 48482 57009 74042 333 21040 3/104 43012 55000 70000 90768 93100 91107 91204;EQDQ01  00002PRCP24
0137066810999992010011607004+47433+009400FM-12+079199999V0201501N000519999999N9999999N1-00431-00511999999ADDMA1999999092931MD1810161+9999ME1314749OA149900311REMSYN076AAXX  16074 06681 33/// /1501 11043 21051 39293 48474 58016 333 91106 91204;
0137066810999992010011608004+47433+009400FM-12+079199999V0201601N001519999999N9999999N1-00401-00571999999ADDMA1999999092931MD1710111+9999ME1314759OA149900311REMSYN076AAXX  16084 06681 33/// /1603 11040 21057 39293 48475 57011 333 91106 91204;
0207066810999992010011609004+47433+009400FM-12+079199999V0200901N000510001519N0001001N1-00431-00511999999ADDAY141031AY241031GA1091+999999999GF109991091999999999999999MA1999999092861MD1710151+9999ME1314689MW1431OA149900311REMSYN082AAXX  16094 06681 31/01 90901 11043 21051 39286 48468 57015 74344 333 91106 91204;
0137066810999992010011610004+47433+009400FM-12+079199999V0203101N001019999999N9999999N1-00401-00491999999ADDMA1999999092801MD1810131+9999ME1314649OA149900261REMSYN076AAXX  16104 06681 33/// /3102 11040 21049 39280 48464 58013 333 91105 91203;
0137066810999992010011611004+47433+009400FM-12+079199999V0202801N001019999999N9999999N1-00391-00541999999ADDMA1999999092741MD1610191+9999ME1314599OA149900311REMSYN076AAXX  16114 06681 33/// /2802 11039 21054 39274 48459 56019 333 91106 91203;
0207066810999992010011612004+47433+009400FM-12+079199999V0202901N001510006019N0009001N1-00371-00551999999ADDAY141061AY241061GA1091+999999999GF109991091999999999999999MA1999999092681MD1810181+9999ME1314559MW1401OA149900311REMSYN082AAXX  16124 06681 31/09 92903 11037 21055 39268 48455 58018 74044 333 91106 91204;
0137066810999992010011613004+47433+009400FM-12+079199999V0201801N000519999999N9999999N1-00371-00521999999ADDMA1999999092681MD1710121+9999ME1314559OA149900311REMSYN076AAXX  16134 06681 33/// /1801 11037 21052 39268 48455 57012 333 91106 91203;
0137066810999992010011614004+47433+009400FM-12+079199999V0202601N001519999999N9999999N1-00371-00461999999ADDMA1999999092691MD1519999+9999ME1314569OA149900461REMSYN076AAXX  16144 06681 33/// /2603 11037 21046 39269 48456 55/// 333 91109 91205;
0207066810999992010011615004+47433+009400FM-12+079199999V0201501N001010006019N0008001N1-00341-00471999999ADDAY141031AY241031GA1091+999999999GF109991091999999999999999MA1999999092621MD1710061+9999ME1314519MW1451OA149900461REMSYN082AAXX  16154 06681 31/08 91502 11034 21047 39262 48451 57006 74544 333 91109 91205;
0137066810999992010011616004+47433+009400FM-12+079199999V0202001N000519999999N9999999N1-00331-00481999999ADDMA1999999092601MD1710081+9999ME1314499OA149900361REMSYN076AAXX  16164 06681 33/// /2001 11033 21048 39260 48449 57008 333 91107 91202;
0137066810999992010011617004+47433+009400FM-12+079199999V0203001N000519999999N9999999N1-00371-00451999999ADDMA1999999092541MD1710151+9999ME1314439OA149900361REMSYN076AAXX  16174 06681 33/// /3001 11037 21045 39254 48443 57015 333 91107 91202;
0283066810999992010011618004+47433+009400FM-12+079199999V0201801N001510120019N0100001N1+00011-00431999999ADDAJ100129199999999AL19900091AY141061AY221061GA1071+012001061GF107991999999012501999999IA1279KA1120M+00011MA1999999092511MD1710111+9999ME1314509MW1051OA149900461REMSYN112AAXX  16184 06681 31660 71803 10001 21043 39251 48450 57011 70542 333 10001 43012 87640 90766 93100 91109 91205;
