0087066830999992011103108004+47217+008933FM-12+040899999V0209999C000019999999N9999999N1+99999+99999999999ADDMA1999999097291REMSYN060AAXX  31084 06683 43/// /0000 1//// 2//// 39729 5//// 90820;
0081066830999992011103109004+47217+008933FM-12+040899999V0209999C000019999999N9999999N1+99999+99999999999ADDMA1999999097271REMSYN054AAXX  31094 06683 43/// /0000 1//// 2//// 39727 5////;
0081066830999992011103110004+47217+008933FM-12+040899999V0201201N001019999999N9999999N1+99999+99999999999ADDMA1999999097281REMSYN054AAXX  31104 06683 43/// /1202 1//// 2//// 39728 5////;
0081066830999992011103111004+47217+008933FM-12+040899999V0202501N001019999999N9999999N1+99999+99999999999ADDMA1999999097241REMSYN054AAXX  31114 06683 43/// /2502 1//// 2//// 39724 5////;
0081066830999992011103112004+47217+008933FM-12+040899999V0202101N001019999999N9999999N1+99999+99999999999ADDMA1999999097201REMSYN054AAXX  31124 06683 43/// /2102 1//// 2//// 39720 5////;
0095066830999992011103113004+47217+008933FM-12+040899999V0202101N000519999999N9999999N1+99999+99999999999ADDMA1999999097161MD1819999+9999REMSYN054AAXX  31134 06683 43/// /2101 1//// 2//// 39716 58///;
0081066830999992011103114004+47217+008933FM-12+040899999V0202201N001519999999N9999999N1+99999+99999999999ADDMA1999999097111REMSYN054AAXX  31144 06683 43/// /2203 1//// 2//// 39711 5////;
0122066830999992011103115004+47217+008933FM-12+040899999V0201901N000519999999N9999999N1+99999+99999999999ADDMA1999999097101MD1619999+9999OA149900261REMSYN070AAXX  31154 06683 43/// /1901 1//// 2//// 39710 56/// 333 91105 91203;
0122066830999992011103116004+47217+008933FM-12+040899999V0201901N001019999999N9999999N1+99999+99999999999ADDMA1999999097091MD1619999+9999OA149900261REMSYN070AAXX  31164 06683 43/// /1902 1//// 2//// 39709 56/// 333 91105 91203;
0122066830999992011103117004+47217+008933FM-12+040899999V0201301N001519999999N9999999N1+99999+99999999999ADDMA1999999097091MD1719999+9999OA149900261REMSYN070AAXX  31174 06683 43/// /1303 1//// 2//// 39709 57/// 333 91105 91203;
0081066830999992011103118004+47217+008933FM-12+040899999V0200901N000519999999N9999999N1+99999+99999999999ADDMA1999999097111REMSYN054AAXX  31184 06683 43/// /0901 1//// 2//// 39711 5////;
0081066830999992011103119004+47217+008933FM-12+040899999V0201701N001519999999N9999999N1+99999+99999999999ADDMA1999999097101REMSYN054AAXX  31194 06683 43/// /1703 1//// 2//// 39710 5////;
0081066830999992011103120004+47217+008933FM-12+040899999V0201601N001019999999N9999999N1+99999+99999999999ADDMA1999999097131REMSYN054AAXX  31204 06683 43/// /1602 1//// 2//// 39713 5////;
0081066830999992011103121004+47217+008933FM-12+040899999V0201101N000519999999N9999999N1+99999+99999999999ADDMA1999999097161REMSYN054AAXX  31214 06683 43/// /1101 1//// 2//// 39716 5////;
0081066830999992011103122004+47217+008933FM-12+040899999V0201101N001519999999N9999999N1+99999+99999999999ADDMA1999999097161REMSYN054AAXX  31224 06683 43/// /1103 1//// 2//// 39716 5////;
0081066830999992011103123004+47217+008933FM-12+040899999V0200901N001519999999N9999999N1+99999+99999999999ADDMA1999999097141REMSYN054AAXX  31234 06683 43/// /0903 1//// 2//// 39714 5////;
0122066830999992011110100004+47217+008933FM-12+040899999V0201501N001519999999N9999999N1+99999+99999999999ADDMA1999999097141MD1819999+9999OA149900361REMSYN070AAXX  01004 06683 43/// /1503 1//// 2//// 39714 58/// 333 91107 91204;
0081066830999992011110101004+47217+008933FM-12+040899999V0201501N001519999999N9999999N1+99999+99999999999ADDMA1999999097141REMSYN054AAXX  01014 06683 43/// /1503 1//// 2//// 39714 5////;
0081066830999992011110102004+47217+008933FM-12+040899999V0201501N001019999999N9999999N1+99999+99999999999ADDMA1999999097101REMSYN054AAXX  01024 06683 43/// /1502 1//// 2//// 39710 5////;
0122066830999992011110103004+47217+008933FM-12+040899999V0200901N000519999999N9999999N1+99999+99999999999ADDMA1999999097061MD1719999+9999OA149900261REMSYN070AAXX  01034 06683 43/// /0901 1//// 2//// 39706 57/// 333 91105 91204;
0081066830999992011110104004+47217+008933FM-12+040899999V0200401N001019999999N9999999N1+99999+99999999999ADDMA1999999097051REMSYN054AAXX  01044 06683 43/// /0402 1//// 2//// 39705 5////;
0122066830999992011110105004+47217+008933FM-12+040899999V0209999C000019999999N9999999N1+99999+99999999999ADDMA1999999097031MD1619999+9999OA149900261REMSYN070AAXX  01054 06683 43/// /0000 1//// 2//// 39703 56/// 333 91105 91201;
0122066830999992011110106004+47217+008933FM-12+040899999V0200801N001019999999N9999999N1+99999+99999999999ADDMA1999999097031MD1719999+9999OA149900261REMSYN070AAXX  01064 06683 43/// /0802 1//// 2//// 39703 57/// 333 91105 91204;
0122066830999992011110107004+47217+008933FM-12+040899999V0200701N001019999999N9999999N1+99999+99999999999ADDMA1999999097061MD1519999+9999OA149900461REMSYN070AAXX  01074 06683 43/// /0702 1//// 2//// 39706 55/// 333 91109 91203;
0081066830999992011110108004+47217+008933FM-12+040899999V0200901N001019999999N9999999N1+99999+99999999999ADDMA1999999097091REMSYN054AAXX  01084 06683 43/// /0902 1//// 2//// 39709 5////;
0081066830999992011110109004+47217+008933FM-12+040899999V0202501N001019999999N9999999N1+99999+99999999999ADDMA1999999097091REMSYN054AAXX  01094 06683 43/// /2502 1//// 2//// 39709 5////;
0081066830999992011110110004+47217+008933FM-12+040899999V0202401N001019999999N9999999N1+99999+99999999999ADDMA1999999097091REMSYN054AAXX  01104 06683 43/// /2402 1//// 2//// 39709 5////;
0081066830999992011110111004+47217+008933FM-12+040899999V0202601N000519999999N9999999N1+99999+99999999999ADDMA1999999097021REMSYN054AAXX  01114 06683 43/// /2601 1//// 2//// 39702 5////;
0081066830999992011110112004+47217+008933FM-12+040899999V0202501N001019999999N9999999N1+99999+99999999999ADDMA1999999096991REMSYN054AAXX  01124 06683 43/// /2502 1//// 2//// 39699 5////;
0081066830999992011110113004+47217+008933FM-12+040899999V0202501N001519999999N9999999N1+99999+99999999999ADDMA1999999097001REMSYN054AAXX  01134 06683 43/// /2503 1//// 2//// 39700 5////;
0081066830999992011110114004+47217+008933FM-12+040899999V0202601N001019999999N9999999N1+99999+99999999999ADDMA1999999097021REMSYN054AAXX  01144 06683 43/// /2602 1//// 2//// 39702 5////;
0081066830999992011110115004+47217+008933FM-12+040899999V0202501N000519999999N9999999N1+99999+99999999999ADDMA1999999097021REMSYN054AAXX  01154 06683 43/// /2501 1//// 2//// 39702 5////;
0081066830999992011110116004+47217+008933FM-12+040899999V0201501N000519999999N9999999N1+99999+99999999999ADDMA1999999096991REMSYN054AAXX  01164 06683 43/// /1501 1//// 2//// 39699 5////;
0081066830999992011110117004+47217+008933FM-12+040899999V0200801N001019999999N9999999N1+99999+99999999999ADDMA1999999097011REMSYN054AAXX  01174 06683 43/// /0802 1//// 2//// 39701 5////;
0122066830999992011110118004+47217+008933FM-12+040899999V0200701N000519999999N9999999N1+99999+99999999999ADDMA1999999097041MD1319999+9999OA149900311REMSYN070AAXX  01184 06683 43/// /0701 1//// 2//// 39704 53/// 333 91106 91204;
0081066830999992011110119004+47217+008933FM-12+040899999V0200701N001019999999N9999999N1+99999+99999999999ADDMA1999999097051REMSYN054AAXX  01194 06683 43/// /0702 1//// 2//// 39705 5////;
0081066830999992011110120004+47217+008933FM-12+040899999V0203401N000519999999N9999999N1+99999+99999999999ADDMA1999999097061REMSYN054AAXX  01204 06683 43/// /3401 1//// 2//// 39706 5////;
0081066830999992011110121004+47217+008933FM-12+040899999V0203501N001019999999N9999999N1+99999+99999999999ADDMA1999999097101REMSYN054AAXX  01214 06683 43/// /3502 1//// 2//// 39710 5////;
0081066830999992011110122004+47217+008933FM-12+040899999V0209999C000019999999N9999999N1+99999+99999999999ADDMA1999999097121REMSYN054AAXX  01224 06683 43/// /0000 1//// 2//// 39712 5////;
0081066830999992011110123004+47217+008933FM-12+040899999V0202601N003119999999N9999999N1+99999+99999999999ADDMA1999999097171REMSYN054AAXX  01234 06683 43/// /2606 1//// 2//// 39717 5////;
0122066830999992011110200004+47217+008933FM-12+040899999V0200701N001519999999N9999999N1+99999+99999999999ADDMA1999999097201MD1219999+9999OA149900511REMSYN070AAXX  02004 06683 43/// /0703 1//// 2//// 39720 52/// 333 91110 91206;
0081066830999992011110201004+47217+008933FM-12+040899999V0200701N001019999999N9999999N1+99999+99999999999ADDMA1999999097161REMSYN054AAXX  02014 06683 43/// /0702 1//// 2//// 39716 5////;
0081066830999992011110202004+47217+008933FM-12+040899999V0200701N001519999999N9999999N1+99999+99999999999ADDMA1999999097091REMSYN054AAXX  02024 06683 43/// /0703 1//// 2//// 39709 5////;
0122066830999992011110203004+47217+008933FM-12+040899999V0200501N000519999999N9999999N1+99999+99999999999ADDMA1999999097041MD1819999+9999OA149900261REMSYN070AAXX  02034 06683 43/// /0501 1//// 2//// 39704 58/// 333 91105 91203;
0081066830999992011110204004+47217+008933FM-12+040899999V0200601N001019999999N9999999N1+99999+99999999999ADDMA1999999097011REMSYN054AAXX  02044 06683 43/// /0602 1//// 2//// 39701 5////;
0081066830999992011110205004+47217+008933FM-12+040899999V0202101N001019999999N9999999N1+99999+99999999999ADDMA1999999097021REMSYN054AAXX  02054 06683 43/// /2102 1//// 2//// 39702 5////;
0122066830999992011110206004+47217+008933FM-12+040899999V0200501N000519999999N9999999N1+99999+99999999999ADDMA1999999097031MD1519999+9999OA149900311REMSYN070AAXX  02064 06683 43/// /0501 1//// 2//// 39703 55/// 333 91106 91203;
0122066830999992011110207004+47217+008933FM-12+040899999V0200601N001519999999N9999999N1+99999+99999999999ADDMA1999999097001MD1519999+9999OA149900211REMSYN070AAXX  02074 06683 43/// /0603 1//// 2//// 39700 55/// 333 91104 91203;
0081066830999992011110208004+47217+008933FM-12+040899999V0200701N001019999999N9999999N1+99999+99999999999ADDMA1999999096931REMSYN054AAXX  02084 06683 43/// /0702 1//// 2//// 39693 5////;
0122066830999992011110209004+47217+008933FM-12+040899999V0202501N003119999999N9999999N1+99999+99999999999ADDMA1999999096891MD1819999+9999OA149900771REMSYN070AAXX  02094 06683 43/// /2506 1//// 2//// 39689 58/// 333 91115 91206;
0122066830999992011110210004+47217+008933FM-12+040899999V0202601N003119999999N9999999N1+99999+99999999999ADDMA1999999096861MD1619999+9999OA149900461REMSYN070AAXX  02104 06683 43/// /2606 1//// 2//// 39686 56/// 333 91109 91206;
0122066830999992011110211004+47217+008933FM-12+040899999V0202501N002619999999N9999999N1+99999+99999999999ADDMA1999999096791MD1819999+9999OA149900361REMSYN070AAXX  02114 06683 43/// /2505 1//// 2//// 39679 58/// 333 91107 91205;
0081066830999992011110212004+47217+008933FM-12+040899999V0202601N002619999999N9999999N1+99999+99999999999ADDMA1999999096701REMSYN054AAXX  02124 06683 43/// /2605 1//// 2//// 39670 5////;
0081066830999992011110213004+47217+008933FM-12+040899999V0202701N002619999999N9999999N1+99999+99999999999ADDMA1999999096631REMSYN054AAXX  02134 06683 43/// /2705 1//// 2//// 39663 5////;
0081066830999992011110214004+47217+008933FM-12+040899999V0202501N002619999999N9999999N1+99999+99999999999ADDMA1999999096591REMSYN054AAXX  02144 06683 43/// /2505 1//// 2//// 39659 5////;
0081066830999992011110215004+47217+008933FM-12+040899999V0202601N001519999999N9999999N1+99999+99999999999ADDMA1999999096571REMSYN054AAXX  02154 06683 43/// /2603 1//// 2//// 39657 5////;
0122066830999992011110216004+47217+008933FM-12+040899999V0202801N001519999999N9999999N1+99999+99999999999ADDMA1999999096571MD1619999+9999OA149900261REMSYN070AAXX  02164 06683 43/// /2803 1//// 2//// 39657 56/// 333 91105 91204;
0122066830999992011110217004+47217+008933FM-12+040899999V0200801N000519999999N9999999N1+99999+99999999999ADDMA1999999096601MD1519999+9999OA149900151REMSYN070AAXX  02174 06683 43/// /0801 1//// 2//// 39660 55/// 333 91103 91202;
0122066830999992011110218004+47217+008933FM-12+040899999V0202401N000519999999N9999999N1+99999+99999999999ADDMA1999999096591MD1519999+9999OA149900411REMSYN070AAXX  02184 06683 43/// /2401 1//// 2//// 39659 55/// 333 91108 91206;
0122066830999992011110219004+47217+008933FM-12+040899999V0200801N000519999999N9999999N1+99999+99999999999ADDMA1999999096561MD1019999+9999OA149900101REMSYN070AAXX  02194 06683 43/// /0801 1//// 2//// 39656 50/// 333 91102 91201;
0081066830999992011110220004+47217+008933FM-12+040899999V0209999C000019999999N9999999N1+99999+99999999999ADDMA1999999096491REMSYN054AAXX  02204 06683 43/// /0000 1//// 2//// 39649 5////;
0081066830999992011110221004+47217+008933FM-12+040899999V0202901N001519999999N9999999N1+99999+99999999999ADDMA1999999096481REMSYN054AAXX  02214 06683 43/// /2903 1//// 2//// 39648 5////;
0122066830999992011110222004+47217+008933FM-12+040899999V0203201N001019999999N9999999N1+99999+99999999999ADDMA1999999096431MD1619999+9999OA149900261REMSYN070AAXX  02224 06683 43/// /3202 1//// 2//// 39643 56/// 333 91105 91203;
0081066830999992011110223004+47217+008933FM-12+040899999V0201101N000519999999N9999999N1+99999+99999999999ADDMA1999999096401REMSYN054AAXX  02234 06683 43/// /1101 1//// 2//// 39640 5////;
0122066830999992011110300004+47217+008933FM-12+040899999V0200701N001019999999N9999999N1+99999+99999999999ADDMA1999999096361MD1719999+9999OA149900311REMSYN070AAXX  03004 06683 43/// /0702 1//// 2//// 39636 57/// 333 91106 91205;
0081066830999992011110301004+47217+008933FM-12+040899999V0203001N001519999999N9999999N1+99999+99999999999ADDMA1999999096351REMSYN054AAXX  03014 06683 43/// /3003 1//// 2//// 39635 5////;
0081066830999992011110302004+47217+008933FM-12+040899999V0202901N001519999999N9999999N1+99999+99999999999ADDMA1999999096331REMSYN054AAXX  03024 06683 43/// /2903 1//// 2//// 39633 5////;
0122066830999992011110303004+47217+008933FM-12+040899999V0203301N001019999999N9999999N1+99999+99999999999ADDMA1999999096301MD1719999+9999OA149900261REMSYN070AAXX  03034 06683 43/// /3302 1//// 2//// 39630 57/// 333 91105 91203;
0081066830999992011110304004+47217+008933FM-12+040899999V0202901N002119999999N9999999N1+99999+99999999999ADDMA1999999096241REMSYN054AAXX  03044 06683 43/// /2904 1//// 2//// 39624 5////;
0122066830999992011110305004+47217+008933FM-12+040899999V0202801N001519999999N9999999N1+99999+99999999999ADDMA1999999096251MD1719999+9999OA149900461REMSYN070AAXX  03054 06683 43/// /2803 1//// 2//// 39625 57/// 333 91109 91206;
0081066830999992011110306004+47217+008933FM-12+040899999V0202601N001519999999N9999999N1+99999+99999999999ADDMA1999999096221REMSYN054AAXX  03064 06683 43/// /2603 1//// 2//// 39622 5////;
0081066830999992011110307004+47217+008933FM-12+040899999V0202801N002119999999N9999999N1+99999+99999999999ADDMA1999999096211REMSYN054AAXX  03074 06683 43/// /2804 1//// 2//// 39621 5////;
0081066830999992011110308004+47217+008933FM-12+040899999V0202801N001519999999N9999999N1+99999+99999999999ADDMA1999999096191REMSYN054AAXX  03084 06683 43/// /2803 1//// 2//// 39619 5////;
0122066830999992011110309004+47217+008933FM-12+040899999V0202701N003619999999N9999999N1+99999+99999999999ADDMA1999999096171MD1719999+9999OA149900511REMSYN070AAXX  03094 06683 43/// /2707 1//// 2//// 39617 57/// 333 91110 91207;
0122066830999992011110310004+47217+008933FM-12+040899999V0202501N003619999999N9999999N1+99999+99999999999ADDMA1999999096231MD1319999+9999OA149900821REMSYN070AAXX  03104 06683 43/// /2507 1//// 2//// 39623 53/// 333 91116 91211;
0122066830999992011110311004+47217+008933FM-12+040899999V0202501N003619999999N9999999N1+99999+99999999999ADDMA1999999096171MD1719999+9999OA149900461REMSYN070AAXX  03114 06683 43/// /2507 1//// 2//// 39617 57/// 333 91109 91207;
0081066830999992011110312004+47217+008933FM-12+040899999V0202301N001519999999N9999999N1+99999+99999999999ADDMA1999999096161REMSYN054AAXX  03124 06683 43/// /2303 1//// 2//// 39616 5////;
0081066830999992011110313004+47217+008933FM-12+040899999V0201601N001019999999N9999999N1+99999+99999999999ADDMA1999999096071REMSYN054AAXX  03134 06683 43/// /1602 1//// 2//// 39607 5////;
0081066830999992011110314004+47217+008933FM-12+040899999V0201801N000519999999N9999999N1+99999+99999999999ADDMA1999999095941REMSYN054AAXX  03144 06683 43/// /1801 1//// 2//// 39594 5////;
0081066830999992011110315004+47217+008933FM-12+040899999V0202501N004119999999N9999999N1+99999+99999999999ADDMA1999999095921REMSYN054AAXX  03154 06683 43/// /2508 1//// 2//// 39592 5////;
0081066830999992011110316004+47217+008933FM-12+040899999V0202701N002619999999N9999999N1+99999+99999999999ADDMA1999999095841REMSYN054AAXX  03164 06683 43/// /2705 1//// 2//// 39584 5////;
0122066830999992011110317004+47217+008933FM-12+040899999V0202701N001019999999N9999999N1+99999+99999999999ADDMA1999999095801MD1719999+9999OA149900361REMSYN070AAXX  03174 06683 43/// /2702 1//// 2//// 39580 57/// 333 91107 91204;
0122066830999992011110318004+47217+008933FM-12+040899999V0202701N001019999999N9999999N1+99999+99999999999ADDMA1999999095751MD1719999+9999OA149900721REMSYN070AAXX  03184 06683 43/// /2702 1//// 2//// 39575 57/// 333 91114 91209;
0081066830999992011110319004+47217+008933FM-12+040899999V0201601N002119999999N9999999N1+99999+99999999999ADDMA1999999095651REMSYN054AAXX  03194 06683 43/// /1604 1//// 2//// 39565 5////;
0081066830999992011110320004+47217+008933FM-12+040899999V0202001N003619999999N9999999N1+99999+99999999999ADDMA1999999095631REMSYN054AAXX  03204 06683 43/// /2007 1//// 2//// 39563 5////;
0081066830999992011110321004+47217+008933FM-12+040899999V0202901N002619999999N9999999N1+99999+99999999999ADDMA1999999095621REMSYN054AAXX  03214 06683 43/// /2905 1//// 2//// 39562 5////;
0081066830999992011110322004+47217+008933FM-12+040899999V0202601N003619999999N9999999N1+99999+99999999999ADDMA1999999095571REMSYN054AAXX  03224 06683 43/// /2607 1//// 2//// 39557 5////;
0081066830999992011110323004+47217+008933FM-12+040899999V0201501N003119999999N9999999N1+99999+99999999999ADDMA1999999095521REMSYN054AAXX  03234 06683 43/// /1506 1//// 2//// 39552 5////;
0081066830999992011110400004+47217+008933FM-12+040899999V0201401N005119999999N9999999N1+99999+99999999999ADDMA1999999095571REMSYN054AAXX  04004 06683 43/// /1410 1//// 2//// 39557 5////;
0081066830999992011110401004+47217+008933FM-12+040899999V0202801N004119999999N9999999N1+99999+99999999999ADDMA1999999095681REMSYN054AAXX  04014 06683 43/// /2808 1//// 2//// 39568 5////;
0081066830999992011110402004+47217+008933FM-12+040899999V0201001N003119999999N9999999N1+99999+99999999999ADDMA1999999095571REMSYN054AAXX  04024 06683 43/// /1006 1//// 2//// 39557 5////;
0081066830999992011110403004+47217+008933FM-12+040899999V0201401N005719999999N9999999N1+99999+99999999999ADDMA1999999095591REMSYN054AAXX  04034 06683 43/// /1411 1//// 2//// 39559 5////;
0081066830999992011110404004+47217+008933FM-12+040899999V0201401N007719999999N9999999N1+99999+99999999999ADDMA1999999095591REMSYN054AAXX  04044 06683 43/// /1415 1//// 2//// 39559 5////;
0081066830999992011110405004+47217+008933FM-12+040899999V0201401N008219999999N9999999N1+99999+99999999999ADDMA1999999095581REMSYN054AAXX  04054 06683 43/// /1416 1//// 2//// 39558 5////;
0081066830999992011110406004+47217+008933FM-12+040899999V0201401N007219999999N9999999N1+99999+99999999999ADDMA1999999095621REMSYN054AAXX  04064 06683 43/// /1414 1//// 2//// 39562 5////;
0081066830999992011110407004+47217+008933FM-12+040899999V0202501N008219999999N9999999N1+99999+99999999999ADDMA1999999095751REMSYN054AAXX  04074 06683 43/// /2516 1//// 2//// 39575 5////;
0081066830999992011110408004+47217+008933FM-12+040899999V0202801N004619999999N9999999N1+99999+99999999999ADDMA1999999095911REMSYN054AAXX  04084 06683 43/// /2809 1//// 2//// 39591 5////;
0081066830999992011110409004+47217+008933FM-12+040899999V0202501N003119999999N9999999N1+99999+99999999999ADDMA1999999095951REMSYN054AAXX  04094 06683 43/// /2506 1//// 2//// 39595 5////;
0122066830999992011110410004+47217+008933FM-12+040899999V0209999C000019999999N9999999N1+99999+99999999999ADDMA1999999095921MD1219999+9999OA149900311REMSYN070AAXX  04104 06683 43/// /0000 1//// 2//// 39592 52/// 333 91106 91205;
0081066830999992011110411004+47217+008933FM-12+040899999V0200901N001019999999N9999999N1+99999+99999999999ADDMA1999999095851REMSYN054AAXX  04114 06683 43/// /0902 1//// 2//// 39585 5////;
0081066830999992011110412004+47217+008933FM-12+040899999V0201801N001519999999N9999999N1+99999+99999999999ADDMA1999999095761REMSYN054AAXX  04124 06683 43/// /1803 1//// 2//// 39576 5////;
0081066830999992011110413004+47217+008933FM-12+040899999V0202501N001519999999N9999999N1+99999+99999999999ADDMA1999999095691REMSYN054AAXX  04134 06683 43/// /2503 1//// 2//// 39569 5////;
0081066830999992011110414004+47217+008933FM-12+040899999V0202901N002119999999N9999999N1+99999+99999999999ADDMA1999999095661REMSYN054AAXX  04144 06683 43/// /2904 1//// 2//// 39566 5////;
0122066830999992011110415004+47217+008933FM-12+040899999V0203001N001519999999N9999999N1+99999+99999999999ADDMA1999999095691MD1719999+9999OA149900311REMSYN070AAXX  04154 06683 43/// /3003 1//// 2//// 39569 57/// 333 91106 91204;
0122066830999992011110416004+47217+008933FM-12+040899999V0200701N000519999999N9999999N1+99999+99999999999ADDMA1999999095751MD1319999+9999OA149900261REMSYN070AAXX  04164 06683 43/// /0701 1//// 2//// 39575 53/// 333 91105 91202;
0122066830999992011110417004+47217+008933FM-12+040899999V0201001N001019999999N9999999N1+99999+99999999999ADDMA1999999095761MD1119999+9999OA149900151REMSYN070AAXX  04174 06683 43/// /1002 1//// 2//// 39576 51/// 333 91103 91202;
0081066830999992011110418004+47217+008933FM-12+040899999V0203601N000519999999N9999999N1+99999+99999999999ADDMA1999999095731REMSYN054AAXX  04184 06683 43/// /3601 1//// 2//// 39573 5////;
0081066830999992011110419004+47217+008933FM-12+040899999V0200701N000519999999N9999999N1+99999+99999999999ADDMA1999999095721REMSYN054AAXX  04194 06683 43/// /0701 1//// 2//// 39572 5////;
0081066830999992011110420004+47217+008933FM-12+040899999V0200901N000519999999N9999999N1+99999+99999999999ADDMA1999999095671REMSYN054AAXX  04204 06683 43/// /0901 1//// 2//// 39567 5////;
0081066830999992011110421004+47217+008933FM-12+040899999V0201201N005119999999N9999999N1+99999+99999999999ADDMA1999999095681REMSYN054AAXX  04214 06683 43/// /1210 1//// 2//// 39568 5////;
0081066830999992011110422004+47217+008933FM-12+040899999V0201401N006219999999N9999999N1+99999+99999999999ADDMA1999999095631REMSYN054AAXX  04224 06683 43/// /1412 1//// 2//// 39563 5////;
0081066830999992011110423004+47217+008933FM-12+040899999V0201301N007719999999N9999999N1+99999+99999999999ADDMA1999999095651REMSYN054AAXX  04234 06683 43/// /1315 1//// 2//// 39565 5////;
0081066830999992011110500004+47217+008933FM-12+040899999V0201401N006719999999N9999999N1+99999+99999999999ADDMA1999999095661REMSYN054AAXX  05004 06683 43/// /1413 1//// 2//// 39566 5////;
0081066830999992011110501004+47217+008933FM-12+040899999V0200901N005719999999N9999999N1+99999+99999999999ADDMA1999999095661REMSYN054AAXX  05014 06683 43/// /0911 1//// 2//// 39566 5////;
0081066830999992011110502004+47217+008933FM-12+040899999V0201401N010819999999N9999999N1+99999+99999999999ADDMA1999999095571REMSYN054AAXX  05024 06683 43/// /1421 1//// 2//// 39557 5////;
0081066830999992011110503004+47217+008933FM-12+040899999V0201301N008719999999N9999999N1+99999+99999999999ADDMA1999999095621REMSYN054AAXX  05034 06683 43/// /1317 1//// 2//// 39562 5////;
0081066830999992011110504004+47217+008933FM-12+040899999V0201301N008719999999N9999999N1+99999+99999999999ADDMA1999999095651REMSYN054AAXX  05044 06683 43/// /1317 1//// 2//// 39565 5////;
0081066830999992011110505004+47217+008933FM-12+040899999V0201301N008219999999N9999999N1+99999+99999999999ADDMA1999999095701REMSYN054AAXX  05054 06683 43/// /1316 1//// 2//// 39570 5////;
0081066830999992011110506004+47217+008933FM-12+040899999V0201301N009319999999N9999999N1+99999+99999999999ADDMA1999999095711REMSYN054AAXX  05064 06683 43/// /1318 1//// 2//// 39571 5////;
0081066830999992011110507004+47217+008933FM-12+040899999V0201201N011319999999N9999999N1+99999+99999999999ADDMA1999999095681REMSYN054AAXX  05074 06683 43/// /1222 1//// 2//// 39568 5////;
0081066830999992011110508004+47217+008933FM-12+040899999V0201201N007719999999N9999999N1+99999+99999999999ADDMA1999999095721REMSYN054AAXX  05084 06683 43/// /1215 1//// 2//// 39572 5////;
0081066830999992011110509004+47217+008933FM-12+040899999V0201201N004619999999N9999999N1+99999+99999999999ADDMA1999999095721REMSYN054AAXX  05094 06683 43/// /1209 1//// 2//// 39572 5////;
0081066830999992011110510004+47217+008933FM-12+040899999V0201201N007219999999N9999999N1+99999+99999999999ADDMA1999999095701REMSYN054AAXX  05104 06683 43/// /1214 1//// 2//// 39570 5////;
0081066830999992011110511004+47217+008933FM-12+040899999V0202701N005119999999N9999999N1+99999+99999999999ADDMA1999999095751REMSYN054AAXX  05114 06683 43/// /2710 1//// 2//// 39575 5////;
0081066830999992011110512004+47217+008933FM-12+040899999V0202801N004119999999N9999999N1+99999+99999999999ADDMA1999999095761REMSYN054AAXX  05124 06683 43/// /2808 1//// 2//// 39576 5////;
0081066830999992011110513004+47217+008933FM-12+040899999V0202701N002619999999N9999999N1+99999+99999999999ADDMA1999999095811REMSYN054AAXX  05134 06683 43/// /2705 1//// 2//// 39581 5////;
0081066830999992011110514004+47217+008933FM-12+040899999V0202401N001019999999N9999999N1+99999+99999999999ADDMA1999999095791REMSYN054AAXX  05144 06683 43/// /2402 1//// 2//// 39579 5////;
0081066830999992011110515004+47217+008933FM-12+040899999V0202701N001019999999N9999999N1+99999+99999999999ADDMA1999999095801REMSYN054AAXX  05154 06683 43/// /2702 1//// 2//// 39580 5////;
0081066830999992011110516004+47217+008933FM-12+040899999V0202501N004119999999N9999999N1+99999+99999999999ADDMA1999999095811REMSYN054AAXX  05164 06683 43/// /2508 1//// 2//// 39581 5////;
0081066830999992011110517004+47217+008933FM-12+040899999V0203201N000519999999N9999999N1+99999+99999999999ADDMA1999999095861REMSYN054AAXX  05174 06683 43/// /3201 1//// 2//// 39586 5////;
0081066830999992011110518004+47217+008933FM-12+040899999V0202701N001519999999N9999999N1+99999+99999999999ADDMA1999999095881REMSYN054AAXX  05184 06683 43/// /2703 1//// 2//// 39588 5////;
0081066830999992011110519004+47217+008933FM-12+040899999V0202801N002619999999N9999999N1+99999+99999999999ADDMA1999999095921REMSYN054AAXX  05194 06683 43/// /2805 1//// 2//// 39592 5////;
0081066830999992011110520004+47217+008933FM-12+040899999V0203101N001519999999N9999999N1+99999+99999999999ADDMA1999999095931REMSYN054AAXX  05204 06683 43/// /3103 1//// 2//// 39593 5////;
0081066830999992011110521004+47217+008933FM-12+040899999V0202601N001519999999N9999999N1+99999+99999999999ADDMA1999999095961REMSYN054AAXX  05214 06683 43/// /2603 1//// 2//// 39596 5////;
0081066830999992011110522004+47217+008933FM-12+040899999V0203101N000519999999N9999999N1+99999+99999999999ADDMA1999999095951REMSYN054AAXX  05224 06683 43/// /3101 1//// 2//// 39595 5////;
0081066830999992011110523004+47217+008933FM-12+040899999V0202701N000519999999N9999999N1+99999+99999999999ADDMA1999999095941REMSYN054AAXX  05234 06683 43/// /2701 1//// 2//// 39594 5////;
0081066830999992011110600004+47217+008933FM-12+040899999V0200501N001019999999N9999999N1+99999+99999999999ADDMA1999999095911REMSYN054AAXX  06004 06683 43/// /0502 1//// 2//// 39591 5////;
0081066830999992011110601004+47217+008933FM-12+040899999V0203001N001519999999N9999999N1+99999+99999999999ADDMA1999999095901REMSYN054AAXX  06014 06683 43/// /3003 1//// 2//// 39590 5////;
0081066830999992011110602004+47217+008933FM-12+040899999V0202601N001019999999N9999999N1+99999+99999999999ADDMA1999999095901REMSYN054AAXX  06024 06683 43/// /2602 1//// 2//// 39590 5////;
0081066830999992011110603004+47217+008933FM-12+040899999V0202801N002119999999N9999999N1+99999+99999999999ADDMA1999999095871REMSYN054AAXX  06034 06683 43/// /2804 1//// 2//// 39587 5////;
0081066830999992011110604004+47217+008933FM-12+040899999V0203401N000519999999N9999999N1+99999+99999999999ADDMA1999999095871REMSYN054AAXX  06044 06683 43/// /3401 1//// 2//// 39587 5////;
0122066830999992011110605004+47217+008933FM-12+040899999V0201001N000519999999N9999999N1+99999+99999999999ADDMA1999999095881MD1519999+9999OA149900211REMSYN070AAXX  06054 06683 43/// /1001 1//// 2//// 39588 55/// 333 91104 91202;
0081066830999992011110606004+47217+008933FM-12+040899999V0202901N001519999999N9999999N1+99999+99999999999ADDMA1999999095931REMSYN054AAXX  06064 06683 43/// /2903 1//// 2//// 39593 5////;
0122066830999992011110607004+47217+008933FM-12+040899999V0203001N001019999999N9999999N1+99999+99999999999ADDMA1999999096001MD1219999+9999OA149900211REMSYN070AAXX  06074 06683 43/// /3002 1//// 2//// 39600 52/// 333 91104 91203;
0081066830999992011110608004+47217+008933FM-12+040899999V0202801N001519999999N9999999N1+99999+99999999999ADDMA1999999096061REMSYN054AAXX  06084 06683 43/// /2803 1//// 2//// 39606 5////;
0122066830999992011110609004+47217+008933FM-12+040899999V0202901N001019999999N9999999N1+99999+99999999999ADDMA1999999096101MD1219999+9999OA149900311REMSYN070AAXX  06094 06683 43/// /2902 1//// 2//// 39610 52/// 333 91106 91204;
0122066830999992011110610004+47217+008933FM-12+040899999V0202601N002119999999N9999999N1+99999+99999999999ADDMA1999999096101MD1219999+9999OA149900211REMSYN070AAXX  06104 06683 43/// /2604 1//// 2//// 39610 52/// 333 91104 91204;
0122066830999992011110611004+47217+008933FM-12+040899999V0202601N002119999999N9999999N1+99999+99999999999ADDMA1999999096111MD1219999+9999OA149900311REMSYN070AAXX  06114 06683 43/// /2604 1//// 2//// 39611 52/// 333 91106 91204;
0081066830999992011110612004+47217+008933FM-12+040899999V0202501N002619999999N9999999N1+99999+99999999999ADDMA1999999096091REMSYN054AAXX  06124 06683 43/// /2505 1//// 2//// 39609 5////;
0122066830999992011110613004+47217+008933FM-12+040899999V0202401N005119999999N9999999N1+99999+99999999999ADDMA1999999096081MD1019999+9999OA149900571REMSYN070AAXX  06134 06683 43/// /2410 1//// 2//// 39608 50/// 333 91111 91210;
0081066830999992011110614004+47217+008933FM-12+040899999V0203101N001019999999N9999999N1+99999+99999999999ADDMA1999999096131REMSYN054AAXX  06144 06683 43/// /3102 1//// 2//// 39613 5////;
0122066830999992011110615004+47217+008933FM-12+040899999V0202801N000519999999N9999999N1+99999+99999999999ADDMA1999999096131MD1219999+9999OA149900571REMSYN070AAXX  06154 06683 43/// /2801 1//// 2//// 39613 52/// 333 91111 91210;
0122066830999992011110616004+47217+008933FM-12+040899999V0201801N000519999999N9999999N1+99999+99999999999ADDMA1999999096151MD1219999+9999OA149900101REMSYN070AAXX  06164 06683 43/// /1801 1//// 2//// 39615 52/// 333 91102 91202;
0122066830999992011110617004+47217+008933FM-12+040899999V0209999C000019999999N9999999N1+99999+99999999999ADDMA1999999096221MD1219999+9999OA149900101REMSYN070AAXX  06174 06683 43/// /0000 1//// 2//// 39622 52/// 333 91102 91201;
0122066830999992011110618004+47217+008933FM-12+040899999V0209999C000019999999N9999999N1+99999+99999999999ADDMA1999999096241MD1219999+9999OA149900571REMSYN070AAXX  06184 06683 43/// /0000 1//// 2//// 39624 52/// 333 91111 91210;
0122066830999992011110619004+47217+008933FM-12+040899999V0200201N000519999999N9999999N1+99999+99999999999ADDMA1999999096311MD1219999+9999OA149900211REMSYN070AAXX  06194 06683 43/// /0201 1//// 2//// 39631 52/// 333 91104 91201;
0081066830999992011110620004+47217+008933FM-12+040899999V0202901N001019999999N9999999N1+99999+99999999999ADDMA1999999096371REMSYN054AAXX  06204 06683 43/// /2902 1//// 2//// 39637 5////;
0081066830999992011110621004+47217+008933FM-12+040899999V0203001N000519999999N9999999N1+99999+99999999999ADDMA1999999096411REMSYN054AAXX  06214 06683 43/// /3001 1//// 2//// 39641 5////;
0122066830999992011110622004+47217+008933FM-12+040899999V0209999C000019999999N9999999N1+99999+99999999999ADDMA1999999096411MD1219999+9999OA149900211REMSYN070AAXX  06224 06683 43/// /0000 1//// 2//// 39641 52/// 333 91104 91202;
0081066830999992011110623004+47217+008933FM-12+040899999V0200901N000519999999N9999999N1+99999+99999999999ADDMA1999999096461REMSYN054AAXX  06234 06683 43/// /0901 1//// 2//// 39646 5////;
0081066830999992011110700004+47217+008933FM-12+040899999V0203101N000519999999N9999999N1+99999+99999999999ADDMA1999999096491REMSYN054AAXX  07004 06683 43/// /3101 1//// 2//// 39649 5////;
0122066830999992011110701004+47217+008933FM-12+040899999V0202601N001519999999N9999999N1+99999+99999999999ADDMA1999999096531MD1219999+9999OA149900261REMSYN070AAXX  07014 06683 43/// /2603 1//// 2//// 39653 52/// 333 91105 91203;
0081066830999992011110702004+47217+008933FM-12+040899999V0202701N000519999999N9999999N1+99999+99999999999ADDMA1999999096571REMSYN054AAXX  07024 06683 43/// /2701 1//// 2//// 39657 5////;
0122066830999992011110703004+47217+008933FM-12+040899999V0209999C000019999999N9999999N1+99999+99999999999ADDMA1999999096591MD1219999+9999OA149900261REMSYN070AAXX  07034 06683 43/// /0000 1//// 2//// 39659 52/// 333 91105 91203;
0122066830999992011110704004+47217+008933FM-12+040899999V0200701N000519999999N9999999N1+99999+99999999999ADDMA1999999096571MD1219999+9999OA149900101REMSYN070AAXX  07044 06683 43/// /0701 1//// 2//// 39657 52/// 333 91102 91201;
0122066830999992011110705004+47217+008933FM-12+040899999V0201201N000519999999N9999999N1+99999+99999999999ADDMA1999999096601MD1219999+9999OA149900151REMSYN070AAXX  07054 06683 43/// /1201 1//// 2//// 39660 52/// 333 91103 91202;
0122066830999992011110706004+47217+008933FM-12+040899999V0203101N000519999999N9999999N1+99999+99999999999ADDMA1999999096611MD1219999+9999OA149900261REMSYN070AAXX  07064 06683 43/// /3101 1//// 2//// 39661 52/// 333 91105 91203;
0122066830999992011110707004+47217+008933FM-12+040899999V0200601N000519999999N9999999N1+99999+99999999999ADDMA1999999096621MD1019999+9999OA149900151REMSYN070AAXX  07074 06683 43/// /0601 1//// 2//// 39662 50/// 333 91103 91201;
0081066830999992011110708004+47217+008933FM-12+040899999V0202001N000519999999N9999999N1+99999+99999999999ADDMA1999999096661REMSYN054AAXX  07084 06683 43/// /2001 1//// 2//// 39666 5////;
0122066830999992011110709004+47217+008933FM-12+040899999V0202701N001519999999N9999999N1+99999+99999999999ADDMA1999999096641MD1219999+9999OA149900211REMSYN070AAXX  07094 06683 43/// /2703 1//// 2//// 39664 52/// 333 91104 91203;
0122066830999992011110710004+47217+008933FM-12+040899999V0201201N000519999999N9999999N1+99999+99999999999ADDMA1999999096671MD1219999+9999OA149900211REMSYN070AAXX  07104 06683 43/// /1201 1//// 2//// 39667 52/// 333 91104 91203;
0122066830999992011110711004+47217+008933FM-12+040899999V0202401N001019999999N9999999N1+99999+99999999999ADDMA1999999096641MD1019999+9999OA149900151REMSYN070AAXX  07114 06683 43/// /2402 1//// 2//// 39664 50/// 333 91103 91202;
0081066830999992011110712004+47217+008933FM-12+040899999V0202801N001519999999N9999999N1+99999+99999999999ADDMA1999999096621REMSYN054AAXX  07124 06683 43/// /2803 1//// 2//// 39662 5////;
0081066830999992011110713004+47217+008933FM-12+040899999V0202701N001519999999N9999999N1+99999+99999999999ADDMA1999999096641REMSYN054AAXX  07134 06683 43/// /2703 1//// 2//// 39664 5////;
0081066830999992011110714004+47217+008933FM-12+040899999V0202801N002619999999N9999999N1+99999+99999999999ADDMA1999999096631REMSYN054AAXX  07144 06683 43/// /2805 1//// 2//// 39663 5////;
0122066830999992011110715004+47217+008933FM-12+040899999V0202701N001019999999N9999999N1+99999+99999999999ADDMA1999999096651MD1219999+9999OA149900311REMSYN070AAXX  07154 06683 43/// /2702 1//// 2//// 39665 52/// 333 91106 91205;
0122066830999992011110716004+47217+008933FM-12+040899999V0202801N000519999999N9999999N1+99999+99999999999ADDMA1999999096681MD1319999+9999OA149900211REMSYN070AAXX  07164 06683 43/// /2801 1//// 2//// 39668 53/// 333 91104 91203;
0081066830999992011110717004+47217+008933FM-12+040899999V0203401N000519999999N9999999N1+99999+99999999999ADDMA1999999096741REMSYN054AAXX  07174 06683 43/// /3401 1//// 2//// 39674 5////;
0095066830999992011110718004+47217+008933FM-12+040899999V0209999C000019999999N9999999N1+99999+99999999999ADDMA1999999096771MD1319999+9999REMSYN054AAXX  07184 06683 43/// /0000 1//// 2//// 39677 53///;
0122066830999992011110719004+47217+008933FM-12+040899999V0203001N000519999999N9999999N1+99999+99999999999ADDMA1999999096791MD1119999+9999OA149900051REMSYN070AAXX  07194 06683 43/// /3001 1//// 2//// 39679 51/// 333 91101 91201;
0081066830999992011110720004+47217+008933FM-12+040899999V0200701N000519999999N9999999N1+99999+99999999999ADDMA1999999096821REMSYN054AAXX  07204 06683 43/// /0701 1//// 2//// 39682 5////;
0081066830999992011110721004+47217+008933FM-12+040899999V0200801N000519999999N9999999N1+99999+99999999999ADDMA1999999096811REMSYN054AAXX  07214 06683 43/// /0801 1//// 2//// 39681 5////;
0122066830999992011110722004+47217+008933FM-12+040899999V0200101N000519999999N9999999N1+99999+99999999999ADDMA1999999096821MD1019999+9999OA149900211REMSYN070AAXX  07224 06683 43/// /0101 1//// 2//// 39682 50/// 333 91104 91202;
0081066830999992011110723004+47217+008933FM-12+040899999V0202701N000519999999N9999999N1+99999+99999999999ADDMA1999999096801REMSYN054AAXX  07234 06683 43/// /2701 1//// 2//// 39680 5////;
0081066830999992011110800004+47217+008933FM-12+040899999V0209999C000519999999N9999999N1+99999+99999999999ADDMA1999999096801REMSYN054AAXX  08004 06683 43/// /0001 1//// 2//// 39680 5////;
0122066830999992011110801004+47217+008933FM-12+040899999V0202901N000519999999N9999999N1+99999+99999999999ADDMA1999999096811MD1719999+9999OA149900261REMSYN070AAXX  08014 06683 43/// /2901 1//// 2//// 39681 57/// 333 91105 91203;
0081066830999992011110802004+47217+008933FM-12+040899999V0201601N001019999999N9999999N1+99999+99999999999ADDMA1999999096851REMSYN054AAXX  08024 06683 43/// /1602 1//// 2//// 39685 5////;
0081066830999992011110803004+47217+008933FM-12+040899999V0203601N000519999999N9999999N1+99999+99999999999ADDMA1999999096831REMSYN054AAXX  08034 06683 43/// /3601 1//// 2//// 39683 5////;
0122066830999992011110804004+47217+008933FM-12+040899999V0201301N000519999999N9999999N1+99999+99999999999ADDMA1999999096811MD1019999+9999OA149900151REMSYN070AAXX  08044 06683 43/// /1301 1//// 2//// 39681 50/// 333 91103 91202;
0122066830999992011110805004+47217+008933FM-12+040899999V0200301N000519999999N9999999N1+99999+99999999999ADDMA1999999096771MD1719999+9999OA149900101REMSYN070AAXX  08054 06683 43/// /0301 1//// 2//// 39677 57/// 333 91102 91201;
0122066830999992011110806004+47217+008933FM-12+040899999V0200901N000519999999N9999999N1+99999+99999999999ADDMA1999999096761MD1719999+9999OA149900261REMSYN070AAXX  08064 06683 43/// /0901 1//// 2//// 39676 57/// 333 91105 91203;
0122066830999992011110807004+47217+008933FM-12+040899999V0209999C000019999999N9999999N1+99999+99999999999ADDMA1999999096781MD1519999+9999OA149900151REMSYN070AAXX  08074 06683 43/// /0000 1//// 2//// 39678 55/// 333 91103 91201;
0081066830999992011110808004+47217+008933FM-12+040899999V0209999C000019999999N9999999N1+99999+99999999999ADDMA1999999096811REMSYN054AAXX  08084 06683 43/// /0000 1//// 2//// 39681 5////;
0081066830999992011110809004+47217+008933FM-12+040899999V0203201N000519999999N9999999N1+99999+99999999999ADDMA1999999096811REMSYN054AAXX  08094 06683 43/// /3201 1//// 2//// 39681 5////;
0081066830999992011110810004+47217+008933FM-12+040899999V0202401N001519999999N9999999N1+99999+99999999999ADDMA1999999096851REMSYN054AAXX  08104 06683 43/// /2403 1//// 2//// 39685 5////;
0081066830999992011110811004+47217+008933FM-12+040899999V0202501N001519999999N9999999N1+99999+99999999999ADDMA1999999096891REMSYN054AAXX  08114 06683 43/// /2503 1//// 2//// 39689 5////;
0081066830999992011110812004+47217+008933FM-12+040899999V0202201N001519999999N9999999N1+99999+99999999999ADDMA1999999096871REMSYN054AAXX  08124 06683 43/// /2203 1//// 2//// 39687 5////;
0081066830999992011110813004+47217+008933FM-12+040899999V0202301N001519999999N9999999N1+99999+99999999999ADDMA1999999096871REMSYN054AAXX  08134 06683 43/// /2303 1//// 2//// 39687 5////;
0081066830999992011110814004+47217+008933FM-12+040899999V0202401N001019999999N9999999N1+99999+99999999999ADDMA1999999096871REMSYN054AAXX  08144 06683 43/// /2402 1//// 2//// 39687 5////;
0081066830999992011110815004+47217+008933FM-12+040899999V0202401N001019999999N9999999N1+99999+99999999999ADDMA1999999096921REMSYN054AAXX  08154 06683 43/// /2402 1//// 2//// 39692 5////;
0081066830999992011110816004+47217+008933FM-12+040899999V0202401N001019999999N9999999N1+99999+99999999999ADDMA1999999096931REMSYN054AAXX  08164 06683 43/// /2402 1//// 2//// 39693 5////;
0081066830999992011110817004+47217+008933FM-12+040899999V0203301N000519999999N9999999N1+99999+99999999999ADDMA1999999096971REMSYN054AAXX  08174 06683 43/// /3301 1//// 2//// 39697 5////;
0081066830999992011110818004+47217+008933FM-12+040899999V0203201N000519999999N9999999N1+99999+99999999999ADDMA1999999097001REMSYN054AAXX  08184 06683 43/// /3201 1//// 2//// 39700 5////;
0081066830999992011110819004+47217+008933FM-12+040899999V0203301N001019999999N9999999N1+99999+99999999999ADDMA1999999097021REMSYN054AAXX  08194 06683 43/// /3302 1//// 2//// 39702 5////;
0081066830999992011110820004+47217+008933FM-12+040899999V0200101N000519999999N9999999N1+99999+99999999999ADDMA1999999097041REMSYN054AAXX  08204 06683 43/// /0101 1//// 2//// 39704 5////;
0081066830999992011110821004+47217+008933FM-12+040899999V0203301N000519999999N9999999N1+99999+99999999999ADDMA1999999097031REMSYN054AAXX  08214 06683 43/// /3301 1//// 2//// 39703 5////;
0122066830999992011110822004+47217+008933FM-12+040899999V0200301N000519999999N9999999N1+99999+99999999999ADDMA1999999097061MD1219999+9999OA149900151REMSYN070AAXX  08224 06683 43/// /0301 1//// 2//// 39706 52/// 333 91103 91202;
0081066830999992011110823004+47217+008933FM-12+040899999V0209999C000019999999N9999999N1+99999+99999999999ADDMA1999999097071REMSYN054AAXX  08234 06683 43/// /0000 1//// 2//// 39707 5////;
0081066830999992011110900004+47217+008933FM-12+040899999V0203601N000519999999N9999999N1+99999+99999999999ADDMA1999999097101REMSYN054AAXX  09004 06683 43/// /3601 1//// 2//// 39710 5////;
0122066830999992011110901004+47217+008933FM-12+040899999V0201201N000519999999N9999999N1+99999+99999999999ADDMA1999999097131MD1219999+9999OA149900211REMSYN070AAXX  09014 06683 43/// /1201 1//// 2//// 39713 52/// 333 91104 91201;
0081066830999992011110902004+47217+008933FM-12+040899999V0200101N000519999999N9999999N1+99999+99999999999ADDMA1999999097141REMSYN054AAXX  09024 06683 43/// /0101 1//// 2//// 39714 5////;
0081066830999992011110903004+47217+008933FM-12+040899999V0203301N002119999999N9999999N1+99999+99999999999ADDMA1999999097151REMSYN054AAXX  09034 06683 43/// /3304 1//// 2//// 39715 5////;
0122066830999992011110904004+47217+008933FM-12+040899999V0200701N000519999999N9999999N1+99999+99999999999ADDMA1999999097211MD1219999+9999OA149900411REMSYN070AAXX  09044 06683 43/// /0701 1//// 2//// 39721 52/// 333 91108 91203;
0122066830999992011110905004+47217+008933FM-12+040899999V0209999C000019999999N9999999N1+99999+99999999999ADDMA1999999097201MD1219999+9999OA149900151REMSYN070AAXX  09054 06683 43/// /0000 1//// 2//// 39720 52/// 333 91103 91201;
0081066830999992011110906004+47217+008933FM-12+040899999V0200901N000519999999N9999999N1+99999+99999999999ADDMA1999999097231REMSYN054AAXX  09064 06683 43/// /0901 1//// 2//// 39723 5////;
0122066830999992011110907004+47217+008933FM-12+040899999V0209999C000019999999N9999999N1+99999+99999999999ADDMA1999999097291MD1219999+9999OA149900151REMSYN070AAXX  09074 06683 43/// /0000 1//// 2//// 39729 52/// 333 91103 91202;
0081066830999992011110908004+47217+008933FM-12+040899999V0209999C000019999999N9999999N1+99999+99999999999ADDMA1999999097311REMSYN054AAXX  09084 06683 43/// /0000 1//// 2//// 39731 5////;
0081066830999992011110909004+47217+008933FM-12+040899999V0202601N001019999999N9999999N1+99999+99999999999ADDMA1999999097301REMSYN054AAXX  09094 06683 43/// /2602 1//// 2//// 39730 5////;
0081066830999992011110910004+47217+008933FM-12+040899999V0202501N001519999999N9999999N1+99999+99999999999ADDMA1999999097321REMSYN054AAXX  09104 06683 43/// /2503 1//// 2//// 39732 5////;
0081066830999992011110911004+47217+008933FM-12+040899999V0202201N001519999999N9999999N1+99999+99999999999ADDMA1999999097321REMSYN054AAXX  09114 06683 43/// /2203 1//// 2//// 39732 5////;
0081066830999992011110912004+47217+008933FM-12+040899999V0202401N001019999999N9999999N1+99999+99999999999ADDMA1999999097261REMSYN054AAXX  09124 06683 43/// /2402 1//// 2//// 39726 5////;
0081066830999992011110913004+47217+008933FM-12+040899999V0202501N001019999999N9999999N1+99999+99999999999ADDMA1999999097221REMSYN054AAXX  09134 06683 43/// /2502 1//// 2//// 39722 5////;
0081066830999992011110914004+47217+008933FM-12+040899999V0202801N001019999999N9999999N1+99999+99999999999ADDMA1999999097221REMSYN054AAXX  09144 06683 43/// /2802 1//// 2//// 39722 5////;
0122066830999992011110915004+47217+008933FM-12+040899999V0202301N000519999999N9999999N1+99999+99999999999ADDMA1999999097241MD1519999+9999OA149900211REMSYN070AAXX  09154 06683 43/// /2301 1//// 2//// 39724 55/// 333 91104 91203;
0122066830999992011110916004+47217+008933FM-12+040899999V0209999C000019999999N9999999N1+99999+99999999999ADDMA1999999097251MD1219999+9999OA149900101REMSYN070AAXX  09164 06683 43/// /0000 1//// 2//// 39725 52/// 333 91102 91201;
0081066830999992011110917004+47217+008933FM-12+040899999V0200901N000519999999N9999999N1+99999+99999999999ADDMA1999999097311REMSYN054AAXX  09174 06683 43/// /0901 1//// 2//// 39731 5////;
0128066830999992011110918004+47217+008933FM-12+040899999V0209999C000019999999N9999999N1+99999+99999999999ADDMA1999999097331MD1319999+9999OA149900211REMSYN076AAXX  09184 06683 43/// /0000 1//// 2//// 39733 53/// 91740 333 91104 91203;
0081066830999992011110919004+47217+008933FM-12+040899999V0200901N000519999999N9999999N1+99999+99999999999ADDMA1999999097351REMSYN054AAXX  09194 06683 43/// /0901 1//// 2//// 39735 5////;
0095066830999992011110920004+47217+008933FM-12+040899999V0200901N000519999999N9999999N1+99999+99999999999ADDMA1999999097371MD1119999+9999REMSYN054AAXX  09204 06683 43/// /0901 1//// 2//// 39737 51///;
0081066830999992011110921004+47217+008933FM-12+040899999V0209999C000019999999N9999999N1+99999+99999999999ADDMA1999999097391REMSYN054AAXX  09214 06683 43/// /0000 1//// 2//// 39739 5////;
0122066830999992011110922004+47217+008933FM-12+040899999V0203001N000519999999N9999999N1+99999+99999999999ADDMA1999999097411MD1219999+9999OA149900151REMSYN070AAXX  09224 06683 43/// /3001 1//// 2//// 39741 52/// 333 91103 91201;
0081066830999992011110923004+47217+008933FM-12+040899999V0209999C000019999999N9999999N1+99999+99999999999ADDMA1999999097381REMSYN054AAXX  09234 06683 43/// /0000 1//// 2//// 39738 5////;
0122066830999992011111000004+47217+008933FM-12+040899999V0200801N000519999999N9999999N1+99999+99999999999ADDMA1999999097371MD1819999+9999OA149900151REMSYN070AAXX  10004 06683 43/// /0801 1//// 2//// 39737 58/// 333 91103 91202;
0122066830999992011111001004+47217+008933FM-12+040899999V0200101N000519999999N9999999N1+99999+99999999999ADDMA1999999097351MD1719999+9999OA149900101REMSYN070AAXX  10014 06683 43/// /0101 1//// 2//// 39735 57/// 333 91102 91201;
0081066830999992011111002004+47217+008933FM-12+040899999V0200301N000519999999N9999999N1+99999+99999999999ADDMA1999999097321REMSYN054AAXX  10024 06683 43/// /0301 1//// 2//// 39732 5////;
0081066830999992011111003004+47217+008933FM-12+040899999V0201101N001019999999N9999999N1+99999+99999999999ADDMA1999999097321REMSYN054AAXX  10034 06683 43/// /1102 1//// 2//// 39732 5////;
0122066830999992011111004004+47217+008933FM-12+040899999V0201101N001019999999N9999999N1+99999+99999999999ADDMA1999999097341MD1519999+9999OA149900151REMSYN070AAXX  10044 06683 43/// /1102 1//// 2//// 39734 55/// 333 91103 91202;
0122066830999992011111005004+47217+008933FM-12+040899999V0200401N000519999999N9999999N1+99999+99999999999ADDMA1999999097321MD1719999+9999OA149900211REMSYN070AAXX  10054 06683 43/// /0401 1//// 2//// 39732 57/// 333 91104 91203;
0081066830999992011111010004+47217+008933FM-12+040899999V0200801N001019999999N9999999N1+99999+99999999999ADDMA1999999097391REMSYN054AAXX  10104 06683 43/// /0802 1//// 2//// 39739 5////;
0081066830999992011111011004+47217+008933FM-12+040899999V0201701N000519999999N9999999N1+99999+99999999999ADDMA1999999097361REMSYN054AAXX  10114 06683 43/// /1701 1//// 2//// 39736 5////;
0081066830999992011111012004+47217+008933FM-12+040899999V0202201N001019999999N9999999N1+99999+99999999999ADDMA1999999097311REMSYN054AAXX  10124 06683 43/// /2202 1//// 2//// 39731 5////;
0081066830999992011111013004+47217+008933FM-12+040899999V0202601N001519999999N9999999N1+99999+99999999999ADDMA1999999097281REMSYN054AAXX  10134 06683 43/// /2603 1//// 2//// 39728 5////;
0081066830999992011111014004+47217+008933FM-12+040899999V0202501N001019999999N9999999N1+99999+99999999999ADDMA1999999097261REMSYN054AAXX  10144 06683 43/// /2502 1//// 2//// 39726 5////;
0081066830999992011111015004+47217+008933FM-12+040899999V0202101N000519999999N9999999N1+99999+99999999999ADDMA1999999097251REMSYN054AAXX  10154 06683 43/// /2101 1//// 2//// 39725 5////;
0081066830999992011111016004+47217+008933FM-12+040899999V0201101N001019999999N9999999N1+99999+99999999999ADDMA1999999097251REMSYN054AAXX  10164 06683 43/// /1102 1//// 2//// 39725 5////;
0081066830999992011111017004+47217+008933FM-12+040899999V0201301N001519999999N9999999N1+99999+99999999999ADDMA1999999097271REMSYN054AAXX  10174 06683 43/// /1303 1//// 2//// 39727 5////;
0081066830999992011111018004+47217+008933FM-12+040899999V0201201N001519999999N9999999N1+99999+99999999999ADDMA1999999097281REMSYN054AAXX  10184 06683 43/// /1203 1//// 2//// 39728 5////;
0081066830999992011111019004+47217+008933FM-12+040899999V0200601N001019999999N9999999N1+99999+99999999999ADDMA1999999097271REMSYN054AAXX  10194 06683 43/// /0602 1//// 2//// 39727 5////;
0081066830999992011111020004+47217+008933FM-12+040899999V0200201N001019999999N9999999N1+99999+99999999999ADDMA1999999097281REMSYN054AAXX  10204 06683 43/// /0202 1//// 2//// 39728 5////;
0081066830999992011111021004+47217+008933FM-12+040899999V0200401N001019999999N9999999N1+99999+99999999999ADDMA1999999097291REMSYN054AAXX  10214 06683 43/// /0402 1//// 2//// 39729 5////;
0081066830999992011111022004+47217+008933FM-12+040899999V0201301N001519999999N9999999N1+99999+99999999999ADDMA1999999097271REMSYN054AAXX  10224 06683 43/// /1303 1//// 2//// 39727 5////;
0081066830999992011111023004+47217+008933FM-12+040899999V0200801N001519999999N9999999N1+99999+99999999999ADDMA1999999097271REMSYN054AAXX  10234 06683 43/// /0803 1//// 2//// 39727 5////;
0122066830999992011111100004+47217+008933FM-12+040899999V0200301N000519999999N9999999N1+99999+99999999999ADDMA1999999097291MD1519999+9999OA149900311REMSYN070AAXX  11004 06683 43/// /0301 1//// 2//// 39729 55/// 333 91106 91204;
0081066830999992011111101004+47217+008933FM-12+040899999V0200601N001019999999N9999999N1+99999+99999999999ADDMA1999999097291REMSYN054AAXX  11014 06683 43/// /0602 1//// 2//// 39729 5////;
0081066830999992011111102004+47217+008933FM-12+040899999V0200601N001019999999N9999999N1+99999+99999999999ADDMA1999999097291REMSYN054AAXX  11024 06683 43/// /0602 1//// 2//// 39729 5////;
0081066830999992011111103004+47217+008933FM-12+040899999V0200401N001019999999N9999999N1+99999+99999999999ADDMA1999999097271REMSYN054AAXX  11034 06683 43/// /0402 1//// 2//// 39727 5////;
0122066830999992011111104004+47217+008933FM-12+040899999V0200901N001519999999N9999999N1+99999+99999999999ADDMA1999999097271MD1719999+9999OA149900311REMSYN070AAXX  11044 06683 43/// /0903 1//// 2//// 39727 57/// 333 91106 91203;
0122066830999992011111105004+47217+008933FM-12+040899999V0200801N001519999999N9999999N1+99999+99999999999ADDMA1999999097281MD1519999+9999OA149900411REMSYN070AAXX  11054 06683 43/// /0803 1//// 2//// 39728 55/// 333 91108 91203;
0122066830999992011111106004+47217+008933FM-12+040899999V0200601N001519999999N9999999N1+99999+99999999999ADDMA1999999097321MD1319999+9999OA149900411REMSYN070AAXX  11064 06683 43/// /0603 1//// 2//// 39732 53/// 333 91108 91204;
0081066830999992011111107004+47217+008933FM-12+040899999V0201101N001519999999N9999999N1+99999+99999999999ADDMA1999999097351REMSYN054AAXX  11074 06683 43/// /1103 1//// 2//// 39735 5////;
0081066830999992011111108004+47217+008933FM-12+040899999V0201301N001519999999N9999999N1+99999+99999999999ADDMA1999999097391REMSYN054AAXX  11084 06683 43/// /1303 1//// 2//// 39739 5////;
0081066830999992011111109004+47217+008933FM-12+040899999V0201501N001019999999N9999999N1+99999+99999999999ADDMA1999999097391REMSYN054AAXX  11094 06683 43/// /1502 1//// 2//// 39739 5////;
0081066830999992011111110004+47217+008933FM-12+040899999V0201201N001019999999N9999999N1+99999+99999999999ADDMA1999999097421REMSYN054AAXX  11104 06683 43/// /1202 1//// 2//// 39742 5////;
0122066830999992011111111004+47217+008933FM-12+040899999V0202401N000519999999N9999999N1+99999+99999999999ADDMA1999999097421MD1219999+9999OA149900211REMSYN070AAXX  11114 06683 43/// /2401 1//// 2//// 39742 52/// 333 91104 91202;
0081066830999992011111112004+47217+008933FM-12+040899999V0202401N001019999999N9999999N1+99999+99999999999ADDMA1999999097401REMSYN054AAXX  11124 06683 43/// /2402 1//// 2//// 39740 5////;
0081066830999992011111113004+47217+008933FM-12+040899999V0202501N001519999999N9999999N1+99999+99999999999ADDMA1999999097421REMSYN054AAXX  11134 06683 43/// /2503 1//// 2//// 39742 5////;
0081066830999992011111114004+47217+008933FM-12+040899999V0202401N001519999999N9999999N1+99999+99999999999ADDMA1999999097421REMSYN054AAXX  11144 06683 43/// /2403 1//// 2//// 39742 5////;
0122066830999992011111115004+47217+008933FM-12+040899999V0202101N000519999999N9999999N1+99999+99999999999ADDMA1999999097441MD1219999+9999OA149900361REMSYN070AAXX  11154 06683 43/// /2101 1//// 2//// 39744 52/// 333 91107 91205;
0122066830999992011111116004+47217+008933FM-12+040899999V0203301N000519999999N9999999N1+99999+99999999999ADDMA1999999097481MD1219999+9999OA149900151REMSYN070AAXX  11164 06683 43/// /3301 1//// 2//// 39748 52/// 333 91103 91202;
0081066830999992011111117004+47217+008933FM-12+040899999V0203001N001019999999N9999999N1+99999+99999999999ADDMA1999999097541REMSYN054AAXX  11174 06683 43/// /3002 1//// 2//// 39754 5////;
0122066830999992011111118004+47217+008933FM-12+040899999V0203101N000519999999N9999999N1+99999+99999999999ADDMA1999999097601MD1319999+9999OA149900361REMSYN070AAXX  11184 06683 43/// /3101 1//// 2//// 39760 53/// 333 91107 91205;
0122066830999992011111119004+47217+008933FM-12+040899999V0200901N001019999999N9999999N1+99999+99999999999ADDMA1999999097661MD1219999+9999OA149900211REMSYN070AAXX  11194 06683 43/// /0902 1//// 2//// 39766 52/// 333 91104 91203;
0081066830999992011111120004+47217+008933FM-12+040899999V0200801N001019999999N9999999N1+99999+99999999999ADDMA1999999097681REMSYN054AAXX  11204 06683 43/// /0802 1//// 2//// 39768 5////;
0081066830999992011111121004+47217+008933FM-12+040899999V0200401N000519999999N9999999N1+99999+99999999999ADDMA1999999097751REMSYN054AAXX  11214 06683 43/// /0401 1//// 2//// 39775 5////;
0122066830999992011111122004+47217+008933FM-12+040899999V0201001N001019999999N9999999N1+99999+99999999999ADDMA1999999097811MD1319999+9999OA149900151REMSYN070AAXX  11224 06683 43/// /1002 1//// 2//// 39781 53/// 333 91103 91202;
0081066830999992011111123004+47217+008933FM-12+040899999V0200801N000519999999N9999999N1+99999+99999999999ADDMA1999999097881REMSYN054AAXX  11234 06683 43/// /0801 1//// 2//// 39788 5////;
0081066830999992011111200004+47217+008933FM-12+040899999V0200201N000519999999N9999999N1+99999+99999999999ADDMA1999999097941REMSYN054AAXX  12004 06683 43/// /0201 1//// 2//// 39794 5////;
0081066830999992011111201004+47217+008933FM-12+040899999V0200901N000519999999N9999999N1+99999+99999999999ADDMA1999999097981REMSYN054AAXX  12014 06683 43/// /0901 1//// 2//// 39798 5////;
0081066830999992011111202004+47217+008933FM-12+040899999V0200801N000519999999N9999999N1+99999+99999999999ADDMA1999999098021REMSYN054AAXX  12024 06683 43/// /0801 1//// 2//// 39802 5////;
0081066830999992011111203004+47217+008933FM-12+040899999V0200601N000519999999N9999999N1+99999+99999999999ADDMA1999999098061REMSYN054AAXX  12034 06683 43/// /0601 1//// 2//// 39806 5////;
0081066830999992011111204004+47217+008933FM-12+040899999V0200101N000519999999N9999999N1+99999+99999999999ADDMA1999999098081REMSYN054AAXX  12044 06683 43/// /0101 1//// 2//// 39808 5////;
0081066830999992011111205004+47217+008933FM-12+040899999V0209999C000019999999N9999999N1+99999+99999999999ADDMA1999999098111REMSYN054AAXX  12054 06683 43/// /0000 1//// 2//// 39811 5////;
0081066830999992011111206004+47217+008933FM-12+040899999V0200601N001019999999N9999999N1+99999+99999999999ADDMA1999999098171REMSYN054AAXX  12064 06683 43/// /0602 1//// 2//// 39817 5////;
0081066830999992011111207004+47217+008933FM-12+040899999V0200801N001019999999N9999999N1+99999+99999999999ADDMA1999999098241REMSYN054AAXX  12074 06683 43/// /0802 1//// 2//// 39824 5////;
0081066830999992011111208004+47217+008933FM-12+040899999V0200801N000519999999N9999999N1+99999+99999999999ADDMA1999999098271REMSYN054AAXX  12084 06683 43/// /0801 1//// 2//// 39827 5////;
0081066830999992011111209004+47217+008933FM-12+040899999V0201601N000519999999N9999999N1+99999+99999999999ADDMA1999999098291REMSYN054AAXX  12094 06683 43/// /1601 1//// 2//// 39829 5////;
0081066830999992011111210004+47217+008933FM-12+040899999V0202401N001019999999N9999999N1+99999+99999999999ADDMA1999999098281REMSYN054AAXX  12104 06683 43/// /2402 1//// 2//// 39828 5////;
0081066830999992011111211004+47217+008933FM-12+040899999V0202401N001519999999N9999999N1+99999+99999999999ADDMA1999999098241REMSYN054AAXX  12114 06683 43/// /2403 1//// 2//// 39824 5////;
0081066830999992011111212004+47217+008933FM-12+040899999V0202301N001019999999N9999999N1+99999+99999999999ADDMA1999999098191REMSYN054AAXX  12124 06683 43/// /2302 1//// 2//// 39819 5////;
0081066830999992011111213004+47217+008933FM-12+040899999V0202501N001019999999N9999999N1+99999+99999999999ADDMA1999999098151REMSYN054AAXX  12134 06683 43/// /2502 1//// 2//// 39815 5////;
0081066830999992011111214004+47217+008933FM-12+040899999V0202501N000519999999N9999999N1+99999+99999999999ADDMA1999999098151REMSYN054AAXX  12144 06683 43/// /2501 1//// 2//// 39815 5////;
0081066830999992011111215004+47217+008933FM-12+040899999V0201101N000519999999N9999999N1+99999+99999999999ADDMA1999999098181REMSYN054AAXX  12154 06683 43/// /1101 1//// 2//// 39818 5////;
0081066830999992011111216004+47217+008933FM-12+040899999V0209999C000019999999N9999999N1+99999+99999999999ADDMA1999999098181REMSYN054AAXX  12164 06683 43/// /0000 1//// 2//// 39818 5////;
0081066830999992011111217004+47217+008933FM-12+040899999V0209999C000019999999N9999999N1+99999+99999999999ADDMA1999999098221REMSYN054AAXX  12174 06683 43/// /0000 1//// 2//// 39822 5////;
0081066830999992011111218004+47217+008933FM-12+040899999V0200701N000519999999N9999999N1+99999+99999999999ADDMA1999999098261REMSYN054AAXX  12184 06683 43/// /0701 1//// 2//// 39826 5////;
0081066830999992011111219004+47217+008933FM-12+040899999V0200801N000519999999N9999999N1+99999+99999999999ADDMA1999999098261REMSYN054AAXX  12194 06683 43/// /0801 1//// 2//// 39826 5////;
0081066830999992011111220004+47217+008933FM-12+040899999V0209999C000019999999N9999999N1+99999+99999999999ADDMA1999999098251REMSYN054AAXX  12204 06683 43/// /0000 1//// 2//// 39825 5////;
0081066830999992011111221004+47217+008933FM-12+040899999V0202301N000519999999N9999999N1+99999+99999999999ADDMA1999999098241REMSYN054AAXX  12214 06683 43/// /2301 1//// 2//// 39824 5////;
0081066830999992011111222004+47217+008933FM-12+040899999V0201801N000519999999N9999999N1+99999+99999999999ADDMA1999999098241REMSYN054AAXX  12224 06683 43/// /1801 1//// 2//// 39824 5////;
0081066830999992011111223004+47217+008933FM-12+040899999V0200101N000519999999N9999999N1+99999+99999999999ADDMA1999999098261REMSYN054AAXX  12234 06683 43/// /0101 1//// 2//// 39826 5////;
0081066830999992011111300004+47217+008933FM-12+040899999V0200701N000519999999N9999999N1+99999+99999999999ADDMA1999999098271REMSYN054AAXX  13004 06683 43/// /0701 1//// 2//// 39827 5////;
0081066830999992011111301004+47217+008933FM-12+040899999V0200901N000519999999N9999999N1+99999+99999999999ADDMA1999999098231REMSYN054AAXX  13014 06683 43/// /0901 1//// 2//// 39823 5////;
0081066830999992011111302004+47217+008933FM-12+040899999V0201001N000519999999N9999999N1+99999+99999999999ADDMA1999999098221REMSYN054AAXX  13024 06683 43/// /1001 1//// 2//// 39822 5////;
0081066830999992011111303004+47217+008933FM-12+040899999V0201201N001019999999N9999999N1+99999+99999999999ADDMA1999999098211REMSYN054AAXX  13034 06683 43/// /1202 1//// 2//// 39821 5////;
0081066830999992011111304004+47217+008933FM-12+040899999V0200901N001019999999N9999999N1+99999+99999999999ADDMA1999999098251REMSYN054AAXX  13044 06683 43/// /0902 1//// 2//// 39825 5////;
0081066830999992011111305004+47217+008933FM-12+040899999V0200801N000519999999N9999999N1+99999+99999999999ADDMA1999999098271REMSYN054AAXX  13054 06683 43/// /0801 1//// 2//// 39827 5////;
0081066830999992011111306004+47217+008933FM-12+040899999V0200901N001019999999N9999999N1+99999+99999999999ADDMA1999999098291REMSYN054AAXX  13064 06683 43/// /0902 1//// 2//// 39829 5////;
0122066830999992011111307004+47217+008933FM-12+040899999V0200401N000519999999N9999999N1+99999+99999999999ADDMA1999999098351MD1319999+9999OA149900211REMSYN070AAXX  13074 06683 43/// /0401 1//// 2//// 39835 53/// 333 91104 91202;
0122066830999992011111308004+47217+008933FM-12+040899999V0200701N001019999999N9999999N1+99999+99999999999ADDMA1999999098391MD1319999+9999OA149900151REMSYN070AAXX  13084 06683 43/// /0702 1//// 2//// 39839 53/// 333 91103 91202;
0122066830999992011111309004+47217+008933FM-12+040899999V0201001N001019999999N9999999N1+99999+99999999999ADDMA1999999098361MD1219999+9999OA149900261REMSYN070AAXX  13094 06683 43/// /1002 1//// 2//// 39836 52/// 333 91105 91203;
0081066830999992011111310004+47217+008933FM-12+040899999V0209999C000019999999N9999999N1+99999+99999999999ADDMA1999999098321REMSYN054AAXX  13104 06683 43/// /0000 1//// 2//// 39832 5////;
0122066830999992011111311004+47217+008933FM-12+040899999V0202401N001519999999N9999999N1+99999+99999999999ADDMA1999999098291MD1819999+9999OA149900311REMSYN070AAXX  13114 06683 43/// /2403 1//// 2//// 39829 58/// 333 91106 91204;
0081066830999992011111312004+47217+008933FM-12+040899999V0202501N001519999999N9999999N1+99999+99999999999ADDMA1999999098251REMSYN054AAXX  13124 06683 43/// /2503 1//// 2//// 39825 5////;
0081066830999992011111313004+47217+008933FM-12+040899999V0202601N001019999999N9999999N1+99999+99999999999ADDMA1999999098241REMSYN054AAXX  13134 06683 43/// /2602 1//// 2//// 39824 5////;
0081066830999992011111314004+47217+008933FM-12+040899999V0202201N001519999999N9999999N1+99999+99999999999ADDMA1999999098231REMSYN054AAXX  13144 06683 43/// /2203 1//// 2//// 39823 5////;
0081066830999992011111315004+47217+008933FM-12+040899999V0201601N001519999999N9999999N1+99999+99999999999ADDMA1999999098261REMSYN054AAXX  13154 06683 43/// /1603 1//// 2//// 39826 5////;
0122066830999992011111316004+47217+008933FM-12+040899999V0202201N000519999999N9999999N1+99999+99999999999ADDMA1999999098261MD1319999+9999OA149900211REMSYN070AAXX  13164 06683 43/// /2201 1//// 2//// 39826 53/// 333 91104 91203;
0122066830999992011111317004+47217+008933FM-12+040899999V0201201N000519999999N9999999N1+99999+99999999999ADDMA1999999098241MD1019999+9999OA149900151REMSYN070AAXX  13174 06683 43/// /1201 1//// 2//// 39824 50/// 333 91103 91201;
0122066830999992011111318004+47217+008933FM-12+040899999V0201601N001519999999N9999999N1+99999+99999999999ADDMA1999999098221MD1719999+9999OA149900311REMSYN070AAXX  13184 06683 43/// /1603 1//// 2//// 39822 57/// 333 91106 91204;
0122066830999992011111319004+47217+008933FM-12+040899999V0200901N001019999999N9999999N1+99999+99999999999ADDMA1999999098201MD1719999+9999OA149900211REMSYN070AAXX  13194 06683 43/// /0902 1//// 2//// 39820 57/// 333 91104 91202;
0122066830999992011111320004+47217+008933FM-12+040899999V0201901N000519999999N9999999N1+99999+99999999999ADDMA1999999098171MD1819999+9999OA149900211REMSYN070AAXX  13204 06683 43/// /1901 1//// 2//// 39817 58/// 333 91104 91203;
0081066830999992011111321004+47217+008933FM-12+040899999V0200401N000519999999N9999999N1+99999+99999999999ADDMA1999999098141REMSYN054AAXX  13214 06683 43/// /0401 1//// 2//// 39814 5////;
0081066830999992011111322004+47217+008933FM-12+040899999V0209999C000019999999N9999999N1+99999+99999999999ADDMA1999999098141REMSYN054AAXX  13224 06683 43/// /0000 1//// 2//// 39814 5////;
0122066830999992011111323004+47217+008933FM-12+040899999V0201001N002119999999N9999999N1+99999+99999999999ADDMA1999999098131MD1519999+9999OA149900311REMSYN070AAXX  13234 06683 43/// /1004 1//// 2//// 39813 55/// 333 91106 91204;
0081066830999992011111400004+47217+008933FM-12+040899999V0201001N001019999999N9999999N1+99999+99999999999ADDMA1999999098111REMSYN054AAXX  14004 06683 43/// /1002 1//// 2//// 39811 5////;
0081066830999992011111401004+47217+008933FM-12+040899999V0200101N000519999999N9999999N1+99999+99999999999ADDMA1999999098131REMSYN054AAXX  14014 06683 43/// /0101 1//// 2//// 39813 5////;
0081066830999992011111402004+47217+008933FM-12+040899999V0200601N001019999999N9999999N1+99999+99999999999ADDMA1999999098091REMSYN054AAXX  14024 06683 43/// /0602 1//// 2//// 39809 5////;
0081066830999992011111403004+47217+008933FM-12+040899999V0200101N001019999999N9999999N1+99999+99999999999ADDMA1999999098031REMSYN054AAXX  14034 06683 43/// /0102 1//// 2//// 39803 5////;
0081066830999992011111404004+47217+008933FM-12+040899999V0201101N001019999999N9999999N1+99999+99999999999ADDMA1999999097981REMSYN054AAXX  14044 06683 43/// /1102 1//// 2//// 39798 5////;
0122066830999992011111405004+47217+008933FM-12+040899999V0201001N002619999999N9999999N1+99999+99999999999ADDMA1999999097961MD1619999+9999OA149900461REMSYN070AAXX  14054 06683 43/// /1005 1//// 2//// 39796 56/// 333 91109 91205;
0081066830999992011111406004+47217+008933FM-12+040899999V0201201N001519999999N9999999N1+99999+99999999999ADDMA1999999097941REMSYN054AAXX  14064 06683 43/// /1203 1//// 2//// 39794 5////;
0081066830999992011111407004+47217+008933FM-12+040899999V0201501N000519999999N9999999N1+99999+99999999999ADDMA1999999097911REMSYN054AAXX  14074 06683 43/// /1501 1//// 2//// 39791 5////;
0081066830999992011111408004+47217+008933FM-12+040899999V0201701N001019999999N9999999N1+99999+99999999999ADDMA1999999097881REMSYN054AAXX  14084 06683 43/// /1702 1//// 2//// 39788 5////;
0081066830999992011111409004+47217+008933FM-12+040899999V0201101N001519999999N9999999N1+99999+99999999999ADDMA1999999097891REMSYN054AAXX  14094 06683 43/// /1103 1//// 2//// 39789 5////;
0081066830999992011111410004+47217+008933FM-12+040899999V0201601N001019999999N9999999N1+99999+99999999999ADDMA1999999097871REMSYN054AAXX  14104 06683 43/// /1602 1//// 2//// 39787 5////;
0081066830999992011111411004+47217+008933FM-12+040899999V0202001N001019999999N9999999N1+99999+99999999999ADDMA1999999097781REMSYN054AAXX  14114 06683 43/// /2002 1//// 2//// 39778 5////;
0081066830999992011111412004+47217+008933FM-12+040899999V0202301N001519999999N9999999N1+99999+99999999999ADDMA1999999097701REMSYN054AAXX  14124 06683 43/// /2303 1//// 2//// 39770 5////;
0081066830999992011111413004+47217+008933FM-12+040899999V0202501N001019999999N9999999N1+99999+99999999999ADDMA1999999097621REMSYN054AAXX  14134 06683 43/// /2502 1//// 2//// 39762 5////;
0081066830999992011111414004+47217+008933FM-12+040899999V0202501N001519999999N9999999N1+99999+99999999999ADDMA1999999097541REMSYN054AAXX  14144 06683 43/// /2503 1//// 2//// 39754 5////;
0081066830999992011111415004+47217+008933FM-12+040899999V0202101N001019999999N9999999N1+99999+99999999999ADDMA1999999097521REMSYN054AAXX  14154 06683 43/// /2102 1//// 2//// 39752 5////;
0081066830999992011111416004+47217+008933FM-12+040899999V0201001N001019999999N9999999N1+99999+99999999999ADDMA1999999097531REMSYN054AAXX  14164 06683 43/// /1002 1//// 2//// 39753 5////;
0122066830999992011111417004+47217+008933FM-12+040899999V0200901N000519999999N9999999N1+99999+99999999999ADDMA1999999097561MD1519999+9999OA149900151REMSYN070AAXX  14174 06683 43/// /0901 1//// 2//// 39756 55/// 333 91103 91202;
0081066830999992011111418004+47217+008933FM-12+040899999V0200701N001019999999N9999999N1+99999+99999999999ADDMA1999999097561REMSYN054AAXX  14184 06683 43/// /0702 1//// 2//// 39756 5////;
0081066830999992011111419004+47217+008933FM-12+040899999V0200901N001019999999N9999999N1+99999+99999999999ADDMA1999999097531REMSYN054AAXX  14194 06683 43/// /0902 1//// 2//// 39753 5////;
0081066830999992011111420004+47217+008933FM-12+040899999V0201001N001519999999N9999999N1+99999+99999999999ADDMA1999999097491REMSYN054AAXX  14204 06683 43/// /1003 1//// 2//// 39749 5////;
0081066830999992011111421004+47217+008933FM-12+040899999V0201101N001019999999N9999999N1+99999+99999999999ADDMA1999999097471REMSYN054AAXX  14214 06683 43/// /1102 1//// 2//// 39747 5////;
0081066830999992011111422004+47217+008933FM-12+040899999V0200501N000519999999N9999999N1+99999+99999999999ADDMA1999999097431REMSYN054AAXX  14224 06683 43/// /0501 1//// 2//// 39743 5////;
0081066830999992011111423004+47217+008933FM-12+040899999V0200901N001019999999N9999999N1+99999+99999999999ADDMA1999999097431REMSYN054AAXX  14234 06683 43/// /0902 1//// 2//// 39743 5////;
0081066830999992011111500004+47217+008933FM-12+040899999V0200601N001019999999N9999999N1+99999+99999999999ADDMA1999999097411REMSYN054AAXX  15004 06683 43/// /0602 1//// 2//// 39741 5////;
0081066830999992011111501004+47217+008933FM-12+040899999V0200401N001019999999N9999999N1+99999+99999999999ADDMA1999999097391REMSYN054AAXX  15014 06683 43/// /0402 1//// 2//// 39739 5////;
0081066830999992011111502004+47217+008933FM-12+040899999V0201001N001519999999N9999999N1+99999+99999999999ADDMA1999999097361REMSYN054AAXX  15024 06683 43/// /1003 1//// 2//// 39736 5////;
0081066830999992011111503004+47217+008933FM-12+040899999V0200401N000519999999N9999999N1+99999+99999999999ADDMA1999999097321REMSYN054AAXX  15034 06683 43/// /0401 1//// 2//// 39732 5////;
0081066830999992011111504004+47217+008933FM-12+040899999V0200301N000519999999N9999999N1+99999+99999999999ADDMA1999999097331REMSYN054AAXX  15044 06683 43/// /0301 1//// 2//// 39733 5////;
0122066830999992011111505004+47217+008933FM-12+040899999V0200801N001519999999N9999999N1+99999+99999999999ADDMA1999999097271MD1719999+9999OA149900261REMSYN070AAXX  15054 06683 43/// /0803 1//// 2//// 39727 57/// 333 91105 91203;
0081066830999992011111506004+47217+008933FM-12+040899999V0200101N001519999999N9999999N1+99999+99999999999ADDMA1999999097241REMSYN054AAXX  15064 06683 43/// /0103 1//// 2//// 39724 5////;
0081066830999992011111507004+47217+008933FM-12+040899999V0200601N001019999999N9999999N1+99999+99999999999ADDMA1999999097241REMSYN054AAXX  15074 06683 43/// /0602 1//// 2//// 39724 5////;
0081066830999992011111508004+47217+008933FM-12+040899999V0201601N001019999999N9999999N1+99999+99999999999ADDMA1999999097271REMSYN054AAXX  15084 06683 43/// /1602 1//// 2//// 39727 5////;
0081066830999992011111509004+47217+008933FM-12+040899999V0201001N001019999999N9999999N1+99999+99999999999ADDMA1999999097291REMSYN054AAXX  15094 06683 43/// /1002 1//// 2//// 39729 5////;
0081066830999992011111510004+47217+008933FM-12+040899999V0201401N001019999999N9999999N1+99999+99999999999ADDMA1999999097281REMSYN054AAXX  15104 06683 43/// /1402 1//// 2//// 39728 5////;
0081066830999992011111511004+47217+008933FM-12+040899999V0201801N001019999999N9999999N1+99999+99999999999ADDMA1999999097221REMSYN054AAXX  15114 06683 43/// /1802 1//// 2//// 39722 5////;
0081066830999992011111512004+47217+008933FM-12+040899999V0202401N001019999999N9999999N1+99999+99999999999ADDMA1999999097181REMSYN054AAXX  15124 06683 43/// /2402 1//// 2//// 39718 5////;
0081066830999992011111513004+47217+008933FM-12+040899999V0201801N001019999999N9999999N1+99999+99999999999ADDMA1999999097141REMSYN054AAXX  15134 06683 43/// /1802 1//// 2//// 39714 5////;
0081066830999992011111514004+47217+008933FM-12+040899999V0201801N001519999999N9999999N1+99999+99999999999ADDMA1999999097131REMSYN054AAXX  15144 06683 43/// /1803 1//// 2//// 39713 5////;
0081066830999992011111515004+47217+008933FM-12+040899999V0201601N001519999999N9999999N1+99999+99999999999ADDMA1999999097141REMSYN054AAXX  15154 06683 43/// /1603 1//// 2//// 39714 5////;
0122066830999992011111516004+47217+008933FM-12+040899999V0201201N001519999999N9999999N1+99999+99999999999ADDMA1999999097121MD1519999+9999OA149900411REMSYN070AAXX  15164 06683 43/// /1203 1//// 2//// 39712 55/// 333 91108 91203;
0081066830999992011111517004+47217+008933FM-12+040899999V0201501N000519999999N9999999N1+99999+99999999999ADDMA1999999097141REMSYN054AAXX  15174 06683 43/// /1501 1//// 2//// 39714 5////;
0081066830999992011111518004+47217+008933FM-12+040899999V0201401N001519999999N9999999N1+99999+99999999999ADDMA1999999097171REMSYN054AAXX  15184 06683 43/// /1403 1//// 2//// 39717 5////;
0081066830999992011111519004+47217+008933FM-12+040899999V0201201N002119999999N9999999N1+99999+99999999999ADDMA1999999097161REMSYN054AAXX  15194 06683 43/// /1204 1//// 2//// 39716 5////;
0081066830999992011111520004+47217+008933FM-12+040899999V0201601N001019999999N9999999N1+99999+99999999999ADDMA1999999097141REMSYN054AAXX  15204 06683 43/// /1602 1//// 2//// 39714 5////;
0081066830999992011111521004+47217+008933FM-12+040899999V0201601N001519999999N9999999N1+99999+99999999999ADDMA1999999097141REMSYN054AAXX  15214 06683 43/// /1603 1//// 2//// 39714 5////;
0081066830999992011111522004+47217+008933FM-12+040899999V0201601N001519999999N9999999N1+99999+99999999999ADDMA1999999097161REMSYN054AAXX  15224 06683 43/// /1603 1//// 2//// 39716 5////;
0081066830999992011111523004+47217+008933FM-12+040899999V0200601N001019999999N9999999N1+99999+99999999999ADDMA1999999097161REMSYN054AAXX  15234 06683 43/// /0602 1//// 2//// 39716 5////;
0122066830999992011111600004+47217+008933FM-12+040899999V0200601N001019999999N9999999N1+99999+99999999999ADDMA1999999097171MD1119999+9999OA149900311REMSYN070AAXX  16004 06683 43/// /0602 1//// 2//// 39717 51/// 333 91106 91204;
0081066830999992011111601004+47217+008933FM-12+040899999V0201001N001019999999N9999999N1+99999+99999999999ADDMA1999999097181REMSYN054AAXX  16014 06683 43/// /1002 1//// 2//// 39718 5////;
0081066830999992011111602004+47217+008933FM-12+040899999V0200101N000519999999N9999999N1+99999+99999999999ADDMA1999999097221REMSYN054AAXX  16024 06683 43/// /0101 1//// 2//// 39722 5////;
0081066830999992011111603004+47217+008933FM-12+040899999V0200701N001019999999N9999999N1+99999+99999999999ADDMA1999999097211REMSYN054AAXX  16034 06683 43/// /0702 1//// 2//// 39721 5////;
0122066830999992011111604004+47217+008933FM-12+040899999V0201001N002119999999N9999999N1+99999+99999999999ADDMA1999999097241MD1219999+9999OA149900311REMSYN070AAXX  16044 06683 43/// /1004 1//// 2//// 39724 52/// 333 91106 91204;
0122066830999992011111605004+47217+008933FM-12+040899999V0200901N002119999999N9999999N1+99999+99999999999ADDMA1999999097221MD1219999+9999OA149900311REMSYN070AAXX  16054 06683 43/// /0904 1//// 2//// 39722 52/// 333 91106 91204;
0081066830999992011111606004+47217+008933FM-12+040899999V0201401N001519999999N9999999N1+99999+99999999999ADDMA1999999097261REMSYN054AAXX  16064 06683 43/// /1403 1//// 2//// 39726 5////;
0081066830999992011111607004+47217+008933FM-12+040899999V0200901N001519999999N9999999N1+99999+99999999999ADDMA1999999097281REMSYN054AAXX  16074 06683 43/// /0903 1//// 2//// 39728 5////;
0081066830999992011111608004+47217+008933FM-12+040899999V0200501N000519999999N9999999N1+99999+99999999999ADDMA1999999097291REMSYN054AAXX  16084 06683 43/// /0501 1//// 2//// 39729 5////;
0081066830999992011111609004+47217+008933FM-12+040899999V0201101N001019999999N9999999N1+99999+99999999999ADDMA1999999097321REMSYN054AAXX  16094 06683 43/// /1102 1//// 2//// 39732 5////;
0081066830999992011111610004+47217+008933FM-12+040899999V0203201N000519999999N9999999N1+99999+99999999999ADDMA1999999097311REMSYN054AAXX  16104 06683 43/// /3201 1//// 2//// 39731 5////;
0122066830999992011111611004+47217+008933FM-12+040899999V0202201N001519999999N9999999N1+99999+99999999999ADDMA1999999097321MD1019999+9999OA149900261REMSYN070AAXX  16114 06683 43/// /2203 1//// 2//// 39732 50/// 333 91105 91203;
0081066830999992011111612004+47217+008933FM-12+040899999V0202201N001019999999N9999999N1+99999+99999999999ADDMA1999999097291REMSYN054AAXX  16124 06683 43/// /2202 1//// 2//// 39729 5////;
0081066830999992011111613004+47217+008933FM-12+040899999V0202201N000519999999N9999999N1+99999+99999999999ADDMA1999999097261REMSYN054AAXX  16134 06683 43/// /2201 1//// 2//// 39726 5////;
0081066830999992011111614004+47217+008933FM-12+040899999V0202201N000519999999N9999999N1+99999+99999999999ADDMA1999999097241REMSYN054AAXX  16144 06683 43/// /2201 1//// 2//// 39724 5////;
0081066830999992011111615004+47217+008933FM-12+040899999V0201301N000519999999N9999999N1+99999+99999999999ADDMA1999999097271REMSYN054AAXX  16154 06683 43/// /1301 1//// 2//// 39727 5////;
0122066830999992011111616004+47217+008933FM-12+040899999V0200801N001519999999N9999999N1+99999+99999999999ADDMA1999999097281MD1319999+9999OA149900261REMSYN070AAXX  16164 06683 43/// /0803 1//// 2//// 39728 53/// 333 91105 91203;
0122066830999992011111617004+47217+008933FM-12+040899999V0200701N001019999999N9999999N1+99999+99999999999ADDMA1999999097311MD1319999+9999OA149900211REMSYN070AAXX  16174 06683 43/// /0702 1//// 2//// 39731 53/// 333 91104 91203;
0122066830999992011111618004+47217+008933FM-12+040899999V0201001N002119999999N9999999N1+99999+99999999999ADDMA1999999097341MD1319999+9999OA149900261REMSYN070AAXX  16184 06683 43/// /1004 1//// 2//// 39734 53/// 333 91105 91203;
0122066830999992011111619004+47217+008933FM-12+040899999V0200601N001019999999N9999999N1+99999+99999999999ADDMA1999999097361MD1119999+9999OA149900411REMSYN070AAXX  16194 06683 43/// /0602 1//// 2//// 39736 51/// 333 91108 91204;
0081066830999992011111620004+47217+008933FM-12+040899999V0200301N000519999999N9999999N1+99999+99999999999ADDMA1999999097411REMSYN054AAXX  16204 06683 43/// /0301 1//// 2//// 39741 5////;
0081066830999992011111621004+47217+008933FM-12+040899999V0200901N001019999999N9999999N1+99999+99999999999ADDMA1999999097471REMSYN054AAXX  16214 06683 43/// /0902 1//// 2//// 39747 5////;
0081066830999992011111622004+47217+008933FM-12+040899999V0200801N001019999999N9999999N1+99999+99999999999ADDMA1999999097471REMSYN054AAXX  16224 06683 43/// /0802 1//// 2//// 39747 5////;
0081066830999992011111623004+47217+008933FM-12+040899999V0200401N001019999999N9999999N1+99999+99999999999ADDMA1999999097491REMSYN054AAXX  16234 06683 43/// /0402 1//// 2//// 39749 5////;
0081066830999992011111700004+47217+008933FM-12+040899999V0200801N001019999999N9999999N1+99999+99999999999ADDMA1999999097521REMSYN054AAXX  17004 06683 43/// /0802 1//// 2//// 39752 5////;
0081066830999992011111701004+47217+008933FM-12+040899999V0200701N000519999999N9999999N1+99999+99999999999ADDMA1999999097551REMSYN054AAXX  17014 06683 43/// /0701 1//// 2//// 39755 5////;
0081066830999992011111702004+47217+008933FM-12+040899999V0200701N001019999999N9999999N1+99999+99999999999ADDMA1999999097561REMSYN054AAXX  17024 06683 43/// /0702 1//// 2//// 39756 5////;
0081066830999992011111703004+47217+008933FM-12+040899999V0200701N001519999999N9999999N1+99999+99999999999ADDMA1999999097571REMSYN054AAXX  17034 06683 43/// /0703 1//// 2//// 39757 5////;
0081066830999992011111704004+47217+008933FM-12+040899999V0209999C000019999999N9999999N1+99999+99999999999ADDMA1999999097611REMSYN054AAXX  17044 06683 43/// /0000 1//// 2//// 39761 5////;
0122066830999992011111705004+47217+008933FM-12+040899999V0201001N001019999999N9999999N1+99999+99999999999ADDMA1999999097641MD1319999+9999OA149900151REMSYN070AAXX  17054 06683 43/// /1002 1//// 2//// 39764 53/// 333 91103 91202;
0122066830999992011111706004+47217+008933FM-12+040899999V0200501N000519999999N9999999N1+99999+99999999999ADDMA1999999097651MD1119999+9999OA149900261REMSYN070AAXX  17064 06683 43/// /0501 1//// 2//// 39765 51/// 333 91105 91203;
0081066830999992011111707004+47217+008933FM-12+040899999V0200801N001019999999N9999999N1+99999+99999999999ADDMA1999999097691REMSYN054AAXX  17074 06683 43/// /0802 1//// 2//// 39769 5////;
0081066830999992011111708004+47217+008933FM-12+040899999V0200801N002119999999N9999999N1+99999+99999999999ADDMA1999999097711REMSYN054AAXX  17084 06683 43/// /0804 1//// 2//// 39771 5////;
0081066830999992011111709004+47217+008933FM-12+040899999V0200901N002119999999N9999999N1+99999+99999999999ADDMA1999999097711REMSYN054AAXX  17094 06683 43/// /0904 1//// 2//// 39771 5////;
0081066830999992011111710004+47217+008933FM-12+040899999V0201001N001019999999N9999999N1+99999+99999999999ADDMA1999999097701REMSYN054AAXX  17104 06683 43/// /1002 1//// 2//// 39770 5////;
0081066830999992011111711004+47217+008933FM-12+040899999V0202401N001519999999N9999999N1+99999+99999999999ADDMA1999999097671REMSYN054AAXX  17114 06683 43/// /2403 1//// 2//// 39767 5////;
0081066830999992011111712004+47217+008933FM-12+040899999V0202501N001019999999N9999999N1+99999+99999999999ADDMA1999999097661REMSYN054AAXX  17124 06683 43/// /2502 1//// 2//// 39766 5////;
0081066830999992011111713004+47217+008933FM-12+040899999V0202601N001019999999N9999999N1+99999+99999999999ADDMA1999999097621REMSYN054AAXX  17134 06683 43/// /2602 1//// 2//// 39762 5////;
0081066830999992011111714004+47217+008933FM-12+040899999V0202701N001519999999N9999999N1+99999+99999999999ADDMA1999999097591REMSYN054AAXX  17144 06683 43/// /2703 1//// 2//// 39759 5////;
0081066830999992011111715004+47217+008933FM-12+040899999V0202201N000519999999N9999999N1+99999+99999999999ADDMA1999999097611REMSYN054AAXX  17154 06683 43/// /2201 1//// 2//// 39761 5////;
0081066830999992011111716004+47217+008933FM-12+040899999V0200801N000519999999N9999999N1+99999+99999999999ADDMA1999999097611REMSYN054AAXX  17164 06683 43/// /0801 1//// 2//// 39761 5////;
0081066830999992011111717004+47217+008933FM-12+040899999V0200701N001019999999N9999999N1+99999+99999999999ADDMA1999999097661REMSYN054AAXX  17174 06683 43/// /0702 1//// 2//// 39766 5////;
0081066830999992011111718004+47217+008933FM-12+040899999V0200901N001019999999N9999999N1+99999+99999999999ADDMA1999999097681REMSYN054AAXX  17184 06683 43/// /0902 1//// 2//// 39768 5////;
0081066830999992011111719004+47217+008933FM-12+040899999V0200801N001519999999N9999999N1+99999+99999999999ADDMA1999999097701REMSYN054AAXX  17194 06683 43/// /0803 1//// 2//// 39770 5////;
0081066830999992011111720004+47217+008933FM-12+040899999V0200601N000519999999N9999999N1+99999+99999999999ADDMA1999999097731REMSYN054AAXX  17204 06683 43/// /0601 1//// 2//// 39773 5////;
0081066830999992011111721004+47217+008933FM-12+040899999V0200801N000519999999N9999999N1+99999+99999999999ADDMA1999999097741REMSYN054AAXX  17214 06683 43/// /0801 1//// 2//// 39774 5////;
0081066830999992011111722004+47217+008933FM-12+040899999V0200701N001519999999N9999999N1+99999+99999999999ADDMA1999999097711REMSYN054AAXX  17224 06683 43/// /0703 1//// 2//// 39771 5////;
0081066830999992011111723004+47217+008933FM-12+040899999V0200801N001019999999N9999999N1+99999+99999999999ADDMA1999999097711REMSYN054AAXX  17234 06683 43/// /0802 1//// 2//// 39771 5////;
0081066830999992011111800004+47217+008933FM-12+040899999V0200501N001519999999N9999999N1+99999+99999999999ADDMA1999999097711REMSYN054AAXX  18004 06683 43/// /0503 1//// 2//// 39771 5////;
0081066830999992011111801004+47217+008933FM-12+040899999V0200701N000519999999N9999999N1+99999+99999999999ADDMA1999999097721REMSYN054AAXX  18014 06683 43/// /0701 1//// 2//// 39772 5////;
0081066830999992011111802004+47217+008933FM-12+040899999V0200601N001519999999N9999999N1+99999+99999999999ADDMA1999999097701REMSYN054AAXX  18024 06683 43/// /0603 1//// 2//// 39770 5////;
0081066830999992011111803004+47217+008933FM-12+040899999V0200801N001019999999N9999999N1+99999+99999999999ADDMA1999999097681REMSYN054AAXX  18034 06683 43/// /0802 1//// 2//// 39768 5////;
0122066830999992011111804004+47217+008933FM-12+040899999V0200601N001019999999N9999999N1+99999+99999999999ADDMA1999999097681MD1719999+9999OA149900261REMSYN070AAXX  18044 06683 43/// /0602 1//// 2//// 39768 57/// 333 91105 91203;
0122066830999992011111805004+47217+008933FM-12+040899999V0200601N001519999999N9999999N1+99999+99999999999ADDMA1999999097701MD1519999+9999OA149900311REMSYN070AAXX  18054 06683 43/// /0603 1//// 2//// 39770 55/// 333 91106 91203;
0081066830999992011111806004+47217+008933FM-12+040899999V0200601N000519999999N9999999N1+99999+99999999999ADDMA1999999097691REMSYN054AAXX  18064 06683 43/// /0601 1//// 2//// 39769 5////;
0122066830999992011111807004+47217+008933FM-12+040899999V0200801N001019999999N9999999N1+99999+99999999999ADDMA1999999097721MD1219999+9999OA149900411REMSYN070AAXX  18074 06683 43/// /0802 1//// 2//// 39772 52/// 333 91108 91203;
0081066830999992011111808004+47217+008933FM-12+040899999V0200901N001019999999N9999999N1+99999+99999999999ADDMA1999999097721REMSYN054AAXX  18084 06683 43/// /0902 1//// 2//// 39772 5////;
0122066830999992011111809004+47217+008933FM-12+040899999V0201001N000519999999N9999999N1+99999+99999999999ADDMA1999999097681MD1019999+9999OA149900411REMSYN070AAXX  18094 06683 43/// /1001 1//// 2//// 39768 50/// 333 91108 91203;
0122066830999992011111810004+47217+008933FM-12+040899999V0202501N001519999999N9999999N1+99999+99999999999ADDMA1999999097701MD1719999+9999OA149900261REMSYN070AAXX  18104 06683 43/// /2503 1//// 2//// 39770 57/// 333 91105 91203;
0122066830999992011111811004+47217+008933FM-12+040899999V0202301N001019999999N9999999N1+99999+99999999999ADDMA1999999097621MD1719999+9999OA149900151REMSYN070AAXX  18114 06683 43/// /2302 1//// 2//// 39762 57/// 333 91103 91202;
0081066830999992011111812004+47217+008933FM-12+040899999V0202401N001019999999N9999999N1+99999+99999999999ADDMA1999999097551REMSYN054AAXX  18124 06683 43/// /2402 1//// 2//// 39755 5////;
0081066830999992011111813004+47217+008933FM-12+040899999V0202401N001019999999N9999999N1+99999+99999999999ADDMA1999999097491REMSYN054AAXX  18134 06683 43/// /2402 1//// 2//// 39749 5////;
0081066830999992011111814004+47217+008933FM-12+040899999V0202601N001019999999N9999999N1+99999+99999999999ADDMA1999999097471REMSYN054AAXX  18144 06683 43/// /2602 1//// 2//// 39747 5////;
0128066830999992011111815004+47217+008933FM-12+040899999V0209999C000019999999N9999999N1+99999+99999999999ADDMA1999999097481MD1719999+9999OA149900151REMSYN076AAXX  18154 06683 43/// /0000 1//// 2//// 39748 57/// 91440 333 91103 91202;
0122066830999992011111816004+47217+008933FM-12+040899999V0201001N000519999999N9999999N1+99999+99999999999ADDMA1999999097461MD1719999+9999OA149900101REMSYN070AAXX  18164 06683 43/// /1001 1//// 2//// 39746 57/// 333 91102 91201;
0122066830999992011111817004+47217+008933FM-12+040899999V0200901N000519999999N9999999N1+99999+99999999999ADDMA1999999097471MD1519999+9999OA149900101REMSYN070AAXX  18174 06683 43/// /0901 1//// 2//// 39747 55/// 333 91102 91201;
0081066830999992011111818004+47217+008933FM-12+040899999V0200701N001019999999N9999999N1+99999+99999999999ADDMA1999999097461REMSYN054AAXX  18184 06683 43/// /0702 1//// 2//// 39746 5////;
0122066830999992011111819004+47217+008933FM-12+040899999V0200601N002119999999N9999999N1+99999+99999999999ADDMA1999999097431MD1819999+9999OA149900511REMSYN070AAXX  18194 06683 43/// /0604 1//// 2//// 39743 58/// 333 91110 91205;
0081066830999992011111820004+47217+008933FM-12+040899999V0201401N001019999999N9999999N1+99999+99999999999ADDMA1999999097421REMSYN054AAXX  18204 06683 43/// /1402 1//// 2//// 39742 5////;
0081066830999992011111821004+47217+008933FM-12+040899999V0201001N001519999999N9999999N1+99999+99999999999ADDMA1999999097441REMSYN054AAXX  18214 06683 43/// /1003 1//// 2//// 39744 5////;
0081066830999992011111822004+47217+008933FM-12+040899999V0200801N001019999999N9999999N1+99999+99999999999ADDMA1999999097421REMSYN054AAXX  18224 06683 43/// /0802 1//// 2//// 39742 5////;
0081066830999992011111823004+47217+008933FM-12+040899999V0200901N000519999999N9999999N1+99999+99999999999ADDMA1999999097441REMSYN054AAXX  18234 06683 43/// /0901 1//// 2//// 39744 5////;
0081066830999992011111900004+47217+008933FM-12+040899999V0201001N001019999999N9999999N1+99999+99999999999ADDMA1999999097451REMSYN054AAXX  19004 06683 43/// /1002 1//// 2//// 39745 5////;
0081066830999992011111901004+47217+008933FM-12+040899999V0200801N001519999999N9999999N1+99999+99999999999ADDMA1999999097451REMSYN054AAXX  19014 06683 43/// /0803 1//// 2//// 39745 5////;
0081066830999992011111902004+47217+008933FM-12+040899999V0200901N000519999999N9999999N1+99999+99999999999ADDMA1999999097451REMSYN054AAXX  19024 06683 43/// /0901 1//// 2//// 39745 5////;
0081066830999992011111903004+47217+008933FM-12+040899999V0201001N001019999999N9999999N1+99999+99999999999ADDMA1999999097451REMSYN054AAXX  19034 06683 43/// /1002 1//// 2//// 39745 5////;
0081066830999992011111904004+47217+008933FM-12+040899999V0200701N001019999999N9999999N1+99999+99999999999ADDMA1999999097491REMSYN054AAXX  19044 06683 43/// /0702 1//// 2//// 39749 5////;
0081066830999992011111905004+47217+008933FM-12+040899999V0200701N001519999999N9999999N1+99999+99999999999ADDMA1999999097461REMSYN054AAXX  19054 06683 43/// /0703 1//// 2//// 39746 5////;
0081066830999992011111906004+47217+008933FM-12+040899999V0200501N001019999999N9999999N1+99999+99999999999ADDMA1999999097431REMSYN054AAXX  19064 06683 43/// /0502 1//// 2//// 39743 5////;
0081066830999992011111907004+47217+008933FM-12+040899999V0200501N001019999999N9999999N1+99999+99999999999ADDMA1999999097431REMSYN054AAXX  19074 06683 43/// /0502 1//// 2//// 39743 5////;
0081066830999992011111908004+47217+008933FM-12+040899999V0200801N000519999999N9999999N1+99999+99999999999ADDMA1999999097441REMSYN054AAXX  19084 06683 43/// /0801 1//// 2//// 39744 5////;
0081066830999992011111909004+47217+008933FM-12+040899999V0202601N001019999999N9999999N1+99999+99999999999ADDMA1999999097461REMSYN054AAXX  19094 06683 43/// /2602 1//// 2//// 39746 5////;
0081066830999992011111910004+47217+008933FM-12+040899999V0202401N001019999999N9999999N1+99999+99999999999ADDMA1999999097451REMSYN054AAXX  19104 06683 43/// /2402 1//// 2//// 39745 5////;
0081066830999992011111911004+47217+008933FM-12+040899999V0202501N001019999999N9999999N1+99999+99999999999ADDMA1999999097381REMSYN054AAXX  19114 06683 43/// /2502 1//// 2//// 39738 5////;
0081066830999992011111912004+47217+008933FM-12+040899999V0202501N001519999999N9999999N1+99999+99999999999ADDMA1999999097301REMSYN054AAXX  19124 06683 43/// /2503 1//// 2//// 39730 5////;
0081066830999992011111913004+47217+008933FM-12+040899999V0202501N002619999999N9999999N1+99999+99999999999ADDMA1999999097261REMSYN054AAXX  19134 06683 43/// /2505 1//// 2//// 39726 5////;
0081066830999992011111914004+47217+008933FM-12+040899999V0202401N002119999999N9999999N1+99999+99999999999ADDMA1999999097251REMSYN054AAXX  19144 06683 43/// /2404 1//// 2//// 39725 5////;
0081066830999992011111915004+47217+008933FM-12+040899999V0202201N001019999999N9999999N1+99999+99999999999ADDMA1999999097261REMSYN054AAXX  19154 06683 43/// /2202 1//// 2//// 39726 5////;
0081066830999992011111916004+47217+008933FM-12+040899999V0201101N000519999999N9999999N1+99999+99999999999ADDMA1999999097281REMSYN054AAXX  19164 06683 43/// /1101 1//// 2//// 39728 5////;
0081066830999992011111917004+47217+008933FM-12+040899999V0209999C000019999999N9999999N1+99999+99999999999ADDMA1999999097311REMSYN054AAXX  19174 06683 43/// /0000 1//// 2//// 39731 5////;
0081066830999992011111918004+47217+008933FM-12+040899999V0200801N000519999999N9999999N1+99999+99999999999ADDMA1999999097311REMSYN054AAXX  19184 06683 43/// /0801 1//// 2//// 39731 5////;
0081066830999992011111919004+47217+008933FM-12+040899999V0200701N000519999999N9999999N1+99999+99999999999ADDMA1999999097291REMSYN054AAXX  19194 06683 43/// /0701 1//// 2//// 39729 5////;
0081066830999992011111920004+47217+008933FM-12+040899999V0200901N000519999999N9999999N1+99999+99999999999ADDMA1999999097311REMSYN054AAXX  19204 06683 43/// /0901 1//// 2//// 39731 5////;
0081066830999992011111921004+47217+008933FM-12+040899999V0202901N001019999999N9999999N1+99999+99999999999ADDMA1999999097321REMSYN054AAXX  19214 06683 43/// /2902 1//// 2//// 39732 5////;
0081066830999992011111922004+47217+008933FM-12+040899999V0203001N001519999999N9999999N1+99999+99999999999ADDMA1999999097331REMSYN054AAXX  19224 06683 43/// /3003 1//// 2//// 39733 5////;
0081066830999992011111923004+47217+008933FM-12+040899999V0202901N001519999999N9999999N1+99999+99999999999ADDMA1999999097341REMSYN054AAXX  19234 06683 43/// /2903 1//// 2//// 39734 5////;
0081066830999992011112000004+47217+008933FM-12+040899999V0202901N001019999999N9999999N1+99999+99999999999ADDMA1999999097371REMSYN054AAXX  20004 06683 43/// /2902 1//// 2//// 39737 5////;
0081066830999992011112001004+47217+008933FM-12+040899999V0200801N000519999999N9999999N1+99999+99999999999ADDMA1999999097361REMSYN054AAXX  20014 06683 43/// /0801 1//// 2//// 39736 5////;
0081066830999992011112002004+47217+008933FM-12+040899999V0203401N000519999999N9999999N1+99999+99999999999ADDMA1999999097381REMSYN054AAXX  20024 06683 43/// /3401 1//// 2//// 39738 5////;
0081066830999992011112003004+47217+008933FM-12+040899999V0200901N002119999999N9999999N1+99999+99999999999ADDMA1999999097381REMSYN054AAXX  20034 06683 43/// /0904 1//// 2//// 39738 5////;
0081066830999992011112004004+47217+008933FM-12+040899999V0200601N000519999999N9999999N1+99999+99999999999ADDMA1999999097381REMSYN054AAXX  20044 06683 43/// /0601 1//// 2//// 39738 5////;
0081066830999992011112005004+47217+008933FM-12+040899999V0200101N000519999999N9999999N1+99999+99999999999ADDMA1999999097401REMSYN054AAXX  20054 06683 43/// /0101 1//// 2//// 39740 5////;
0081066830999992011112006004+47217+008933FM-12+040899999V0209999C000519999999N9999999N1+99999+99999999999ADDMA1999999097431REMSYN054AAXX  20064 06683 43/// /0001 1//// 2//// 39743 5////;
0081066830999992011112007004+47217+008933FM-12+040899999V0200901N001519999999N9999999N1+99999+99999999999ADDMA1999999097461REMSYN054AAXX  20074 06683 43/// /0903 1//// 2//// 39746 5////;
0081066830999992011112008004+47217+008933FM-12+040899999V0200901N001019999999N9999999N1+99999+99999999999ADDMA1999999097471REMSYN054AAXX  20084 06683 43/// /0902 1//// 2//// 39747 5////;
0122066830999992011112009004+47217+008933FM-12+040899999V0200101N000519999999N9999999N1+99999+99999999999ADDMA1999999097481MD1219999+9999OA149900211REMSYN070AAXX  20094 06683 43/// /0101 1//// 2//// 39748 52/// 333 91104 91203;
0081066830999992011112010004+47217+008933FM-12+040899999V0201001N001019999999N9999999N1+99999+99999999999ADDMA1999999097471REMSYN054AAXX  20104 06683 43/// /1002 1//// 2//// 39747 5////;
0122066830999992011112011004+47217+008933FM-12+040899999V0202401N001019999999N9999999N1+99999+99999999999ADDMA1999999097431MD1819999+9999OA149900261REMSYN070AAXX  20114 06683 43/// /2402 1//// 2//// 39743 58/// 333 91105 91202;
0081066830999992011112012004+47217+008933FM-12+040899999V0201001N001019999999N9999999N1+99999+99999999999ADDMA1999999097371REMSYN054AAXX  20124 06683 43/// /1002 1//// 2//// 39737 5////;
0081066830999992011112013004+47217+008933FM-12+040899999V0202201N000519999999N9999999N1+99999+99999999999ADDMA1999999097341REMSYN054AAXX  20134 06683 43/// /2201 1//// 2//// 39734 5////;
0081066830999992011112014004+47217+008933FM-12+040899999V0202501N000519999999N9999999N1+99999+99999999999ADDMA1999999097331REMSYN054AAXX  20144 06683 43/// /2501 1//// 2//// 39733 5////;
0122066830999992011112015004+47217+008933FM-12+040899999V0201501N000519999999N9999999N1+99999+99999999999ADDMA1999999097311MD1619999+9999OA149900151REMSYN070AAXX  20154 06683 43/// /1501 1//// 2//// 39731 56/// 333 91103 91202;
0081066830999992011112016004+47217+008933FM-12+040899999V0200801N001019999999N9999999N1+99999+99999999999ADDMA1999999097291REMSYN054AAXX  20164 06683 43/// /0802 1//// 2//// 39729 5////;
0122066830999992011112017004+47217+008933FM-12+040899999V0200801N000519999999N9999999N1+99999+99999999999ADDMA1999999097281MD1619999+9999OA149900151REMSYN070AAXX  20174 06683 43/// /0801 1//// 2//// 39728 56/// 333 91103 91202;
0122066830999992011112018004+47217+008933FM-12+040899999V0200701N001019999999N9999999N1+99999+99999999999ADDMA1999999097281MD1619999+9999OA149900211REMSYN070AAXX  20184 06683 43/// /0702 1//// 2//// 39728 56/// 333 91104 91203;
0122066830999992011112019004+47217+008933FM-12+040899999V0200601N001019999999N9999999N1+99999+99999999999ADDMA1999999097291MD1519999+9999OA149900311REMSYN070AAXX  20194 06683 43/// /0602 1//// 2//// 39729 55/// 333 91106 91203;
0081066830999992011112020004+47217+008933FM-12+040899999V0201001N000519999999N9999999N1+99999+99999999999ADDMA1999999097291REMSYN054AAXX  20204 06683 43/// /1001 1//// 2//// 39729 5////;
0081066830999992011112021004+47217+008933FM-12+040899999V0200501N000519999999N9999999N1+99999+99999999999ADDMA1999999097271REMSYN054AAXX  20214 06683 43/// /0501 1//// 2//// 39727 5////;
0081066830999992011112022004+47217+008933FM-12+040899999V0200601N000519999999N9999999N1+99999+99999999999ADDMA1999999097271REMSYN054AAXX  20224 06683 43/// /0601 1//// 2//// 39727 5////;
0081066830999992011112023004+47217+008933FM-12+040899999V0201101N001019999999N9999999N1+99999+99999999999ADDMA1999999097251REMSYN054AAXX  20234 06683 43/// /1102 1//// 2//// 39725 5////;
0081066830999992011112100004+47217+008933FM-12+040899999V0201001N001019999999N9999999N1+99999+99999999999ADDMA1999999097241REMSYN054AAXX  21004 06683 43/// /1002 1//// 2//// 39724 5////;
0081066830999992011112101004+47217+008933FM-12+040899999V0201401N000519999999N9999999N1+99999+99999999999ADDMA1999999097211REMSYN054AAXX  21014 06683 43/// /1401 1//// 2//// 39721 5////;
0081066830999992011112102004+47217+008933FM-12+040899999V0200601N000519999999N9999999N1+99999+99999999999ADDMA1999999097201REMSYN054AAXX  21024 06683 43/// /0601 1//// 2//// 39720 5////;
0081066830999992011112103004+47217+008933FM-12+040899999V0209999C000019999999N9999999N1+99999+99999999999ADDMA1999999097191REMSYN054AAXX  21034 06683 43/// /0000 1//// 2//// 39719 5////;
0081066830999992011112104004+47217+008933FM-12+040899999V0200801N001519999999N9999999N1+99999+99999999999ADDMA1999999097211REMSYN054AAXX  21044 06683 43/// /0803 1//// 2//// 39721 5////;
0081066830999992011112105004+47217+008933FM-12+040899999V0200801N001519999999N9999999N1+99999+99999999999ADDMA1999999097181REMSYN054AAXX  21054 06683 43/// /0803 1//// 2//// 39718 5////;
0122066830999992011112106004+47217+008933FM-12+040899999V0209999C000519999999N9999999N1+99999+99999999999ADDMA1999999097181MD1819999+9999OA149900261REMSYN070AAXX  21064 06683 43/// /0001 1//// 2//// 39718 58/// 333 91105 91203;
0081066830999992011112107004+47217+008933FM-12+040899999V0200801N001019999999N9999999N1+99999+99999999999ADDMA1999999097181REMSYN054AAXX  21074 06683 43/// /0802 1//// 2//// 39718 5////;
0081066830999992011112108004+47217+008933FM-12+040899999V0201001N001019999999N9999999N1+99999+99999999999ADDMA1999999097191REMSYN054AAXX  21084 06683 43/// /1002 1//// 2//// 39719 5////;
0081066830999992011112109004+47217+008933FM-12+040899999V0200801N001019999999N9999999N1+99999+99999999999ADDMA1999999097151REMSYN054AAXX  21094 06683 43/// /0802 1//// 2//// 39715 5////;
0081066830999992011112110004+47217+008933FM-12+040899999V0202101N000519999999N9999999N1+99999+99999999999ADDMA1999999097121REMSYN054AAXX  21104 06683 43/// /2101 1//// 2//// 39712 5////;
0081066830999992011112111004+47217+008933FM-12+040899999V0202401N001019999999N9999999N1+99999+99999999999ADDMA1999999097051REMSYN054AAXX  21114 06683 43/// /2402 1//// 2//// 39705 5////;
0081066830999992011112112004+47217+008933FM-12+040899999V0202401N001019999999N9999999N1+99999+99999999999ADDMA1999999096981REMSYN054AAXX  21124 06683 43/// /2402 1//// 2//// 39698 5////;
0081066830999992011112113004+47217+008933FM-12+040899999V0202601N001019999999N9999999N1+99999+99999999999ADDMA1999999096931REMSYN054AAXX  21134 06683 43/// /2602 1//// 2//// 39693 5////;
