0140066850999992011010100004+47033+009067FM-12+051599999V0209999C000019999999N9999999N1-00241-00441102571ADDMA1999999096131MD1710091+9999OA149900261REMSYN088AAXX  01004 06685 33/// /0000 11024 21044 39613 40257 57009 333 55300 20000 91105 91203;
0140066850999992011010101004+47033+009067FM-12+051599999V0201201N003119999999N9999999N1-00161-00371102461ADDMA1999999096051MD1710121+9999OA149900511REMSYN088AAXX  01014 06685 33/// /1206 11016 21037 39605 40246 57012 333 55300 20000 91110 91206;
0140066850999992011010102004+47033+009067FM-12+051599999V0209999C000019999999N9999999N1-00231-00441102481ADDMA1999999096051MD1710111+9999OA149900511REMSYN088AAXX  01024 06685 33/// /0000 11023 21044 39605 40248 57011 333 55300 20000 91110 91206;
0140066850999992011010103004+47033+009067FM-12+051599999V0209999C000019999999N9999999N1-00371-00501102491ADDMA1999999096031MD1710101+9999OA149900511REMSYN088AAXX  01034 06685 33/// /0000 11037 21050 39603 40249 57010 333 55300 20000 91110 91206;
0140066850999992011010104004+47033+009067FM-12+051599999V0203001N000519999999N9999999N1-00471-00611102481ADDMA1999999096001MD1710051+9999OA149900101REMSYN088AAXX  01044 06685 33/// /3001 11047 21061 39600 40248 57005 333 55300 20000 91102 91202;
0140066850999992011010105004+47033+009067FM-12+051599999V0202801N000519999999N9999999N1-00511-00601102511ADDMA1999999096011MD1710041+9999OA149900151REMSYN088AAXX  01054 06685 33/// /2801 11051 21060 39601 40251 57004 333 55300 20000 91103 91202;
0207066850999992011010106004+47033+009067FM-12+051599999V0209999C000019999999N9999999N1-00531-00631102571ADDAL19900091GJ101989IA2999-00809KA1999N-00541MA1999999096071MD1310041+9999OA149900511REMSYN112AAXX  01064 06685 33/// /0000 11053 21063 39607 40257 53004 333 21054 3/108 55033 55300 20000 70000 91110 91206;
0140066850999992011010107004+47033+009067FM-12+051599999V0202801N000519999999N9999999N1-00481-00651102591ADDMA1999999096101MD1210101+9999OA149900151REMSYN088AAXX  01074 06685 33/// /2801 11048 21065 39610 40259 52010 333 55300 20000 91103 91202;
0140066850999992011010108004+47033+009067FM-12+051599999V0203301N000519999999N9999999N1-00431-00581102571ADDMA1999999096091MD1219999+9999OA149900151REMSYN088AAXX  01084 06685 33/// /3301 11043 21058 39609 40257 52/// 333 55300 20029 91103 91202;
0087066850999992011010109004+47033+009067FM-12+051599999V0201401N001019999999N9999999N1-00391-00571102571ADDMA1999999096101REMSYN060AAXX  01094 06685 43/// /1402 11039 21057 39610 40257 5////;
0087066850999992011010110004+47033+009067FM-12+051599999V0209999C000019999999N9999999N1-00341-00561102541ADDMA1999999096081REMSYN060AAXX  01104 06685 43/// /0000 11034 21056 39608 40254 5////;
0140066850999992011010111004+47033+009067FM-12+051599999V0202701N000519999999N9999999N1-00201-00461102441ADDMA1999999096021MD1810071+9999OA149900151REMSYN088AAXX  01114 06685 33/// /2701 11020 21046 39602 40244 58007 333 553// 2//// 91103 91202;
0087066850999992011010112004+47033+009067FM-12+051599999V0202201N000519999999N9999999N1-00111-00441102321ADDMA1999999095931REMSYN060AAXX  01124 06685 43/// /2201 11011 21044 39593 40232 5////;
0087066850999992011010113004+47033+009067FM-12+051599999V0202701N000519999999N9999999N1-00111-00461102251ADDMA1999999095861REMSYN060AAXX  01134 06685 43/// /2701 11011 21046 39586 40225 5////;
0087066850999992011010114004+47033+009067FM-12+051599999V0203101N001019999999N9999999N1-00171-00501102251ADDMA1999999095851REMSYN060AAXX  01144 06685 43/// /3102 11017 21050 39585 40225 5////;
0087066850999992011010115004+47033+009067FM-12+051599999V0209999C000019999999N9999999N1-00181-00521102241ADDMA1999999095841REMSYN060AAXX  01154 06685 43/// /0000 11018 21052 39584 40224 5////;
0087066850999992011010116004+47033+009067FM-12+051599999V0202801N001019999999N9999999N1-00231-00501102261ADDMA1999999095851REMSYN060AAXX  01164 06685 43/// /2802 11023 21050 39585 40226 5////;
0087066850999992011010117004+47033+009067FM-12+051599999V0209999C000019999999N9999999N1-00271-00491102331ADDMA1999999095901REMSYN060AAXX  01174 06685 43/// /0000 11027 21049 39590 40233 5////;
0087066850999992011010118004+47033+009067FM-12+051599999V0209999C000019999999N9999999N1-00211-00471102331ADDMA1999999095921REMSYN060AAXX  01184 06685 43/// /0000 11021 21047 39592 40233 5////;
0103066850999992011010119004+47033+009067FM-12+051599999V0201401N000519999999N9999999N1-00161-00411102301ADDMA1999999095901REMSYN076AAXX  01194 06685 33/// /1401 11016 21041 39590 40230 5//// 333 553// 20000;
0175066850999992011010120004+47033+009067FM-12+051599999V0202801N001019999999N9999999N1-00131-00421102291ADDMA1999999095901MD1710041+9999OA149900101REMSYN088AAXX  01204 06685 33/// /2802 11013 21042 39590 40229 57000 333 55300 20000 91102 91202;EQDQ01+000072APCTENQ02+000002APC3  
0140066850999992011010121004+47033+009067FM-12+051599999V0202201N001019999999N9999999N1-00081-00401102291ADDMA1999999095911MD1510011+9999OA149900211REMSYN088AAXX  01214 06685 33/// /2202 11008 21040 39591 40229 55001 333 55300 20000 91104 91202;
0140066850999992011010122004+47033+009067FM-12+051599999V0201201N001519999999N9999999N1-00181-00451102281ADDMA1999999095881MD1710021+9999OA149900211REMSYN088AAXX  01224 06685 33/// /1203 11018 21045 39588 40228 57002 333 55300 20000 91104 91203;
0140066850999992011010123004+47033+009067FM-12+051599999V0202901N001519999999N9999999N1-00201-00441102211ADDMA1999999095811MD1710091+9999OA149900211REMSYN088AAXX  01234 06685 33/// /2903 11020 21044 39581 40221 57009 333 55300 20000 91104 91203;
0140066850999992011010200004+47033+009067FM-12+051599999V0201301N000519999999N9999999N1-00151-00431102181ADDMA1999999095791MD1710121+9999OA149900261REMSYN088AAXX  02004 06685 33/// /1301 11015 21043 39579 40218 57012 333 55300 20000 91105 91203;
0140066850999992011010201004+47033+009067FM-12+051599999V0201201N003119999999N9999999N1-00161-00451102181ADDMA1999999095791MD1710091+9999OA149900411REMSYN088AAXX  02014 06685 33/// /1206 11016 21045 39579 40218 57009 333 55300 20000 91108 91206;
0087066850999992011010202004+47033+009067FM-12+051599999V0201901N000519999999N9999999N1-00151-00461102141ADDMA1999999095751REMSYN060AAXX  02024 06685 43/// /1901 11015 21046 39575 40214 5////;
0087066850999992011010203004+47033+009067FM-12+051599999V0200701N000519999999N9999999N1-00151-00431102151ADDMA1999999095761REMSYN060AAXX  02034 06685 43/// /0701 11015 21043 39576 40215 5////;
0087066850999992011010204004+47033+009067FM-12+051599999V0201001N002119999999N9999999N1-00141-00431102211ADDMA1999999095821REMSYN060AAXX  02044 06685 43/// /1004 11014 21043 39582 40221 5////;
0087066850999992011010205004+47033+009067FM-12+051599999V0201701N001519999999N9999999N1-00121-00461102191ADDMA1999999095811REMSYN060AAXX  02054 06685 43/// /1703 11012 21046 39581 40219 5////;
0134066850999992011010206004+47033+009067FM-12+051599999V0202701N000519999999N9999999N1-00131-00431102191ADDIA2999-00209KA1999N-00211MA1999999095801REMSYN082AAXX  02064 06685 43/// /2701 11013 21043 39580 40219 5//// 333 21021 3/102 55039;
0140066850999992011010207004+47033+009067FM-12+051599999V0201701N001019999999N9999999N1-00111-00511102221ADDMA1999999095841MD1310021+9999OA149900311REMSYN088AAXX  02074 06685 33/// /1702 11011 21051 39584 40222 53002 333 55300 20000 91106 91203;
0140066850999992011010208004+47033+009067FM-12+051599999V0202201N000519999999N9999999N1-00101-00531102261ADDMA1999999095881MD1210071+9999OA149900361REMSYN088AAXX  02084 06685 33/// /2201 11010 21053 39588 40226 52007 333 55300 20022 91107 91205;
0140066850999992011010209004+47033+009067FM-12+051599999V0209999C000019999999N9999999N1-00101-00421102311ADDMA1999999095921MD1210121+9999OA149900461REMSYN088AAXX  02094 06685 33/// /0000 11010 21042 39592 40231 52012 333 55300 20126 91109 91206;
0140066850999992011010210004+47033+009067FM-12+051599999V0202701N001019999999N9999999N1-00081-00331102311ADDMA1999999095931MD1210091+9999OA149900151REMSYN088AAXX  02104 06685 33/// /2702 11008 21033 39593 40231 52009 333 55300 20216 91103 91202;
0140066850999992011010211004+47033+009067FM-12+051599999V0202801N001019999999N9999999N1-00071-00311102291ADDMA1999999095911MD1010031+9999OA149900151REMSYN088AAXX  02114 06685 33/// /2802 11007 21031 39591 40229 50003 333 55300 20245 91103 91202;
0140066850999992011010212004+47033+009067FM-12+051599999V0202801N001519999999N9999999N1-00071-00261102261ADDMA1999999095881MD1710041+9999OA149900461REMSYN088AAXX  02124 06685 33/// /2803 11007 21026 39588 40226 57004 333 55300 20263 91109 91206;
0140066850999992011010213004+47033+009067FM-12+051599999V0201901N000519999999N9999999N1-00071-00221102241ADDMA1999999095861MD1710071+9999OA149900211REMSYN088AAXX  02134 06685 33/// /1901 11007 21022 39586 40224 57007 333 55300 20202 91104 91203;
0109066850999992011010214004+47033+009067FM-12+051599999V0209999C000019999999N9999999N1-00091-00191102261ADDMA1999999095881REMSYN082AAXX  02144 06685 23/// /0000 11009 21019 39588 40226 5//// 333 553// 20151 69915;
0140066850999992011010215004+47033+009067FM-12+051599999V0202701N005719999999N9999999N1+00021-00341102261ADDMA1999999095901MD1210021+9999OA149900821REMSYN088AAXX  02154 06685 33/// /2711 10002 21034 39590 40226 52002 333 55300 20104 91116 91211;
0140066850999992011010216004+47033+009067FM-12+051599999V0202701N006219999999N9999999N1-00031-00411102321ADDMA1999999095951MD1310091+9999OA149901031REMSYN088AAXX  02164 06685 33/// /2712 11003 21041 39595 40232 53009 333 55300 20022 91120 91214;
0140066850999992011010217004+47033+009067FM-12+051599999V0202801N005119999999N9999999N1-00021-00501102371ADDMA1999999096001MD1310121+9999OA149901031REMSYN088AAXX  02174 06685 33/// /2810 11002 21050 39600 40237 53012 333 55300 20000 91120 91214;
0201066850999992011010218004+47033+009067FM-12+051599999V0202601N004619999999N9999999N1-00031-00531102401ADDAA112000091KA1120M+00031MA1999999096021MD1110121+9999OA149901031REMSYN106AAXX  02184 06685 03/// /2609 11003 21053 39602 40240 51012 69912 333 10003 55300 20000 60005 91120 91214;EQDQ01  00002PRCP12
0140066850999992011010219004+47033+009067FM-12+051599999V0203001N002619999999N9999999N1-00081-00581102461ADDMA1999999096071MD1110121+9999OA149900721REMSYN088AAXX  02194 06685 33/// /3005 11008 21058 39607 40246 51012 333 55300 20000 91114 91210;
0140066850999992011010220004+47033+009067FM-12+051599999V0201401N001019999999N9999999N1-00111-00501102481ADDMA1999999096081MD1110081+9999OA149900721REMSYN088AAXX  02204 06685 33/// /1402 11011 21050 39608 40248 51008 333 55300 20000 91114 91209;
0140066850999992011010221004+47033+009067FM-12+051599999V0209999C000019999999N9999999N1-00121-00481102511ADDMA1999999096111MD1110091+9999OA149901031REMSYN088AAXX  02214 06685 33/// /0000 11012 21048 39611 40251 51009 333 55300 20000 91120 91214;
0140066850999992011010222004+47033+009067FM-12+051599999V0202301N000519999999N9999999N1-00151-00471102541ADDMA1999999096131MD1310061+9999OA149900151REMSYN088AAXX  02224 06685 33/// /2301 11015 21047 39613 40254 53006 333 55300 20000 91103 91202;
0140066850999992011010223004+47033+009067FM-12+051599999V0202301N000519999999N9999999N1-00151-00481102531ADDMA1999999096121MD1210041+9999OA149900101REMSYN088AAXX  02234 06685 33/// /2301 11015 21048 39612 40253 52004 333 55300 20000 91102 91201;
0140066850999992011010300004+47033+009067FM-12+051599999V0209999C000019999999N9999999N1-00131-00461102551ADDMA1999999096141MD1210031+9999OA149901031REMSYN088AAXX  03004 06685 33/// /0000 11013 21046 39614 40255 52003 333 55300 20000 91120 91214;
0159066850999992011010301004+47033+009067FM-12+051599999V0202701N000519999999N9999999N1-00151-00491102541ADDMA1999999096131MD1410001+9999OA149900361REMSYN088AAXX  03014 06685 33/// /2701 11015 21049 39613 40254 57000 333 55300 20000 91107 91204;EQDQ01+000072APCTEN
0140066850999992011010302004+47033+009067FM-12+051599999V0209999C000019999999N9999999N1-00181-00471102551ADDMA1999999096131MD1219999+9999OA149900361REMSYN088AAXX  03024 06685 33/// /0000 11018 21047 39613 40255 52/// 333 55300 20000 91107 91204;
0087066850999992011010303004+47033+009067FM-12+051599999V0203001N000519999999N9999999N1-00211-00521102561ADDMA1999999096131REMSYN060AAXX  03034 06685 43/// /3001 11021 21052 39613 40256 5////;
0159066850999992011010304004+47033+009067FM-12+051599999V0209999C000019999999N9999999N1-00221-00491102561ADDMA1999999096131MD1110021+9999OA149900151REMSYN088AAXX  03044 06685 33/// /0000 11022 21049 39613 40256 51000 333 55300 20000 91103 91203;EQDQ01+000002APC3  
0140066850999992011010305004+47033+009067FM-12+051599999V0201701N000519999999N9999999N1-00271-00511102581ADDMA1999999096141MD1310011+9999OA149900151REMSYN088AAXX  03054 06685 33/// /1701 11027 21051 39614 40258 53001 333 55300 20000 91103 91202;
0207066850999992011010306004+47033+009067FM-12+051599999V0202801N000519999999N9999999N1-00301-00511102611ADDAL10600091GJ100009IA2999-00509KA1999N-00311MA1999999096161MD1310031+9999OA149900721REMSYN112AAXX  03064 06685 33/// /2801 11030 21051 39616 40261 53003 333 21031 3/105 55000 55300 20000 70001 91114 91209;
0140066850999992011010307004+47033+009067FM-12+051599999V0209999C000019999999N9999999N1-00381-00581102631ADDMA1999999096161MD1310031+9999OA149900101REMSYN088AAXX  03074 06685 33/// /0000 11038 21058 39616 40263 53003 333 55300 20000 91102 91201;
0140066850999992011010308004+47033+009067FM-12+051599999V0201101N001019999999N9999999N1-00501-00831102671ADDMA1999999096171MD1219999+9999OA149900151REMSYN088AAXX  03084 06685 33/// /1102 11050 21083 39617 40267 52/// 333 55300 20032 91103 91202;
0103066850999992011010309004+47033+009067FM-12+051599999V0201301N000519999999N9999999N1-00491-01011102691ADDMA1999999096191REMSYN076AAXX  03094 06685 33/// /1301 11049 21101 39619 40269 5//// 333 553// 20324;
0140066850999992011010310004+47033+009067FM-12+051599999V0201001N000519999999N9999999N1-00491-00951102691ADDMA1999999096191MD1210031+9999OA149900151REMSYN088AAXX  03104 06685 33/// /1001 11049 21095 39619 40269 52003 333 553// 20940 91103 91202;
0140066850999992011010311004+47033+009067FM-12+051599999V0202801N000519999999N9999999N1-00391-00831102601ADDMA1999999096131MD1810041+9999OA149900151REMSYN088AAXX  03114 06685 33/// /2801 11039 21083 39613 40260 58004 333 553// 2//// 91103 91202;
0140066850999992011010312004+47033+009067FM-12+051599999V0202701N000519999999N9999999N1-00351-00861102531ADDMA1999999096071MD1810121+9999OA149900361REMSYN088AAXX  03124 06685 33/// /2701 11035 21086 39607 40253 58012 333 553// 2//// 91107 91204;
0140066850999992011010313004+47033+009067FM-12+051599999V0202801N000519999999N9999999N1-00371-00861102471ADDMA1999999096011MD1810181+9999OA149900151REMSYN088AAXX  03134 06685 33/// /2801 11037 21086 39601 40247 58018 333 553// 2//// 91103 91202;
0103066850999992011010314004+47033+009067FM-12+051599999V0202901N001519999999N9999999N1-00381-00991102461ADDMA1999999096001REMSYN076AAXX  03144 06685 33/// /2903 11038 21099 39600 40246 5//// 333 553// 20169;
0103066850999992011010315004+47033+009067FM-12+051599999V0202701N000519999999N9999999N1-00411-00981102491ADDMA1999999096021REMSYN076AAXX  03154 06685 33/// /2701 11041 21098 39602 40249 5//// 333 553// 20086;
0140066850999992011010316004+47033+009067FM-12+051599999V0201501N000519999999N9999999N1-00481-00961102521ADDMA1999999096031MD1210021+9999OA149900151REMSYN088AAXX  03164 06685 33/// /1501 11048 21096 39603 40252 52002 333 55300 20022 91103 91202;
0140066850999992011010317004+47033+009067FM-12+051599999V0202501N000519999999N9999999N1-00561-00991102541ADDMA1999999096031MD1210031+9999OA149900101REMSYN088AAXX  03174 06685 33/// /2501 11056 21099 39603 40254 52003 333 55300 20000 91102 91201;
0159066850999992011010318004+47033+009067FM-12+051599999V0200801N000519999999N9999999N1-00681-01021102571ADDKA1120M-00261MA1999999096031MD1510011+9999OA149900211REMSYN094AAXX  03184 06685 33/// /0801 11068 21102 39603 40257 55001 333 11026 55300 20000 91104 91203;
0140066850999992011010319004+47033+009067FM-12+051599999V0209999C000019999999N9999999N1-00701-01031102551ADDMA1999999096011MD1710021+9999OA149900101REMSYN088AAXX  03194 06685 33/// /0000 11070 21103 39601 40255 57002 333 55300 20000 91102 91201;
0140066850999992011010320004+47033+009067FM-12+051599999V0200801N000519999999N9999999N1-00751-01101102551ADDMA1999999095991MD1710041+9999OA149900101REMSYN088AAXX  03204 06685 33/// /0801 11075 21110 39599 40255 57004 333 55300 20000 91102 91201;
0140066850999992011010321004+47033+009067FM-12+051599999V0201201N001019999999N9999999N1-00771-01081102511ADDMA1999999095951MD1710081+9999OA149900151REMSYN088AAXX  03214 06685 33/// /1202 11077 21108 39595 40251 57008 333 55300 20000 91103 91202;
0140066850999992011010322004+47033+009067FM-12+051599999V0209999C000019999999N9999999N1-00831-01151102511ADDMA1999999095941MD1710071+9999OA149900151REMSYN088AAXX  03224 06685 33/// /0000 11083 21115 39594 40251 57007 333 55300 20000 91103 91202;
0140066850999992011010323004+47033+009067FM-12+051599999V0209999C000019999999N9999999N1-00841-01131102521ADDMA1999999095941MD1510051+9999OA149900151REMSYN088AAXX  03234 06685 33/// /0000 11084 21113 39594 40252 55005 333 55300 20000 91103 91201;
0140066850999992011010400004+47033+009067FM-12+051599999V0209999C000019999999N9999999N1-00871-01161102511ADDMA1999999095931MD1810021+9999OA149900211REMSYN088AAXX  04004 06685 33/// /0000 11087 21116 39593 40251 58002 333 55300 20000 91104 91203;
0140066850999992011010401004+47033+009067FM-12+051599999V0209999C000019999999N9999999N1-00781-01741102471ADDMA1999999095911MD1710031+9999OA149900101REMSYN088AAXX  04014 06685 33/// /0000 11078 21174 39591 40247 57003 333 55300 20000 91102 91201;
0140066850999992011010402004+47033+009067FM-12+051599999V0209999C000019999999N9999999N1-00861-01191102491ADDMA1999999095911MD1719999+9999OA149900101REMSYN088AAXX  04024 06685 33/// /0000 11086 21119 39591 40249 57/// 333 55300 20000 91102 91201;
0140066850999992011010403004+47033+009067FM-12+051599999V0209999C000019999999N9999999N1-00901-01221102491ADDMA1999999095901MD1710031+9999OA149900151REMSYN088AAXX  04034 06685 33/// /0000 11090 21122 39590 40249 57003 333 55300 20000 91103 91202;
0140066850999992011010404004+47033+009067FM-12+051599999V0201301N001519999999N9999999N1-00881-01201102461ADDMA1999999095881MD1710031+9999OA149900151REMSYN088AAXX  04044 06685 33/// /1303 11088 21120 39588 40246 57003 333 55300 20000 91103 91203;
0140066850999992011010405004+47033+009067FM-12+051599999V0203101N000519999999N9999999N1-00871-01191102421ADDMA1999999095841MD1710071+9999OA149900151REMSYN088AAXX  04054 06685 33/// /3101 11087 21119 39584 40242 57007 333 55300 20000 91103 91203;
0207066850999992011010406004+47033+009067FM-12+051599999V0201601N001019999999N9999999N1-00811-01191102341ADDAL19900091GJ102649IA2999-01109KA1999N-00911MA1999999095781MD1710121+9999OA149900361REMSYN112AAXX  04064 06685 33/// /1602 11081 21119 39578 40234 57012 333 21091 3/111 55044 55300 20000 70000 91107 91204;
0140066850999992011010407004+47033+009067FM-12+051599999V0209999C000019999999N9999999N1-00731-01221102301ADDMA1999999095761MD1710121+9999OA149900361REMSYN088AAXX  04074 06685 33/// /0000 11073 21122 39576 40230 57012 333 55300 20000 91107 91204;
0140066850999992011010408004+47033+009067FM-12+051599999V0202701N000519999999N9999999N1-00731-01181102281ADDMA1999999095751MD1719999+9999OA149900211REMSYN088AAXX  04084 06685 33/// /2701 11073 21118 39575 40228 57/// 333 55300 20022 91104 91202;
0103066850999992011010409004+47033+009067FM-12+051599999V0202301N000519999999N9999999N1-00691-01191102271ADDMA1999999095751REMSYN076AAXX  04094 06685 33/// /2301 11069 21119 39575 40227 5//// 333 553// 20115;
0175066850999992011010410004+47033+009067FM-12+051599999V0201701N000519999999N9999999N1-00651-01151102271ADDMA1999999095761MD1710031+9999OA149900151REMSYN088AAXX  04104 06685 33/// /1701 11065 21115 39576 40227 52000 333 55300 20403 91103 91202;EQDQ01+000022APCTENQ02+000002APC3  
0140066850999992011010411004+47033+009067FM-12+051599999V0201101N000519999999N9999999N1-00511-01131102151ADDMA1999999095681MD1810071+9999OA149900151REMSYN088AAXX  04114 06685 33/// /1101 11051 21113 39568 40215 58007 333 55303 20785 91103 91202;
0140066850999992011010412004+47033+009067FM-12+051599999V0202901N003619999999N9999999N1-00351-01031102041ADDMA1999999095611MD1710141+9999OA149900461REMSYN088AAXX  04124 06685 33/// /2907 11035 21103 39561 40204 57014 333 55308 2//// 91109 91207;
0140066850999992011010413004+47033+009067FM-12+051599999V0202801N001519999999N9999999N1-00331-00971102001ADDMA1999999095581MD1610181+9999OA149900511REMSYN088AAXX  04134 06685 33/// /2803 11033 21097 39558 40200 56018 333 553// 2//// 91110 91207;
0103066850999992011010414004+47033+009067FM-12+051599999V0203001N001019999999N9999999N1-00421-00991102011ADDMA1999999095571REMSYN076AAXX  04144 06685 33/// /3002 11042 21099 39557 40201 5//// 333 553// 20184;
0087066850999992011010415004+47033+009067FM-12+051599999V0202101N001519999999N9999999N1-00421-00981101981ADDMA1999999095541REMSYN060AAXX  04154 06685 43/// /2103 11042 21098 39554 40198 5////;
0140066850999992011010416004+47033+009067FM-12+051599999V0209999C000019999999N9999999N1-00491-01071101971ADDMA1999999095511MD1710071+9999OA149900261REMSYN088AAXX  04164 06685 33/// /0000 11049 21107 39551 40197 57007 333 55300 20022 91105 91203;
0140066850999992011010417004+47033+009067FM-12+051599999V0203001N000519999999N9999999N1-00571-01091101991ADDMA1999999095511MD1710061+9999OA149900151REMSYN088AAXX  04174 06685 33/// /3001 11057 21109 39551 40199 57006 333 55300 20000 91103 91201;
0159066850999992011010418004+47033+009067FM-12+051599999V0201801N000519999999N9999999N1-00581-01071102011ADDKA1120M-00331MA1999999095531MD1510011+9999OA149900511REMSYN094AAXX  04184 06685 33/// /1801 11058 21107 39553 40201 55001 333 11033 55300 20000 91110 91207;
0140066850999992011010419004+47033+009067FM-12+051599999V0209999C000019999999N9999999N1-00671-01101102091ADDMA1999999095581MD1210071+9999OA149900151REMSYN088AAXX  04194 06685 33/// /0000 11067 21110 39558 40209 52007 333 55300 20000 91103 91202;
0140066850999992011010420004+47033+009067FM-12+051599999V0209999C000019999999N9999999N1-00641-01071102021ADDMA1999999095521MD1010011+9999OA149900151REMSYN088AAXX  04204 06685 33/// /0000 11064 21107 39552 40202 50001 333 55300 20000 91103 91202;
0140066850999992011010421004+47033+009067FM-12+051599999V0200801N000519999999N9999999N1-00701-01091102001ADDMA1999999095491MD1810041+9999OA149900151REMSYN088AAXX  04214 06685 33/// /0801 11070 21109 39549 40200 58004 333 55300 20000 91103 91202;
0140066850999992011010422004+47033+009067FM-12+051599999V0202901N001019999999N9999999N1-00691-01121102021ADDMA1999999095511MD1510071+9999OA149900151REMSYN088AAXX  04224 06685 33/// /2902 11069 21112 39551 40202 55007 333 55300 20000 91103 91202;
0140066850999992011010423004+47033+009067FM-12+051599999V0201101N000519999999N9999999N1-00811-01111102071ADDMA1999999095531MD1310011+9999OA149900151REMSYN088AAXX  04234 06685 33/// /1101 11081 21111 39553 40207 53001 333 55300 20000 91103 91202;
0140066850999992011010500004+47033+009067FM-12+051599999V0202501N001019999999N9999999N1-00631-01071101991ADDMA1999999095501MD1010011+9999OA149900511REMSYN088AAXX  05004 06685 33/// /2502 11063 21107 39550 40199 50001 333 55300 20000 91110 91207;
0140066850999992011010501004+47033+009067FM-12+051599999V0209999C000019999999N9999999N1-00711-01081101991ADDMA1999999095481MD1810031+9999OA149900211REMSYN088AAXX  05014 06685 33/// /0000 11071 21108 39548 40199 58003 333 55300 20000 91104 91202;
0140066850999992011010502004+47033+009067FM-12+051599999V0203101N000519999999N9999999N1-00781-01091102041ADDMA1999999095511MD1510021+9999OA149900151REMSYN088AAXX  05024 06685 33/// /3101 11078 21109 39551 40204 55002 333 55300 20000 91103 91202;
0087066850999992011010503004+47033+009067FM-12+051599999V0201601N000519999999N9999999N1-00761-01171102011ADDMA1999999095491REMSYN060AAXX  05034 06685 43/// /1601 11076 21117 39549 40201 5////;
0159066850999992011010504004+47033+009067FM-12+051599999V0202801N000519999999N9999999N1-00791-01171102011ADDMA1999999095481MD1710021+9999OA149900151REMSYN088AAXX  05044 06685 33/// /2801 11079 21117 39548 40201 57000 333 55300 20000 91103 91202;EQDQ01+000002APC3  
0140066850999992011010505004+47033+009067FM-12+051599999V0201401N001019999999N9999999N1-00811-01141102001ADDMA1999999095461MD1810051+9999OA149900151REMSYN088AAXX  05054 06685 33/// /1402 11081 21114 39546 40200 58005 333 55300 20000 91103 91202;
0207066850999992011010506004+47033+009067FM-12+051599999V0209999C000019999999N9999999N1-00731-01161102001ADDAL19900091GJ101329IA2999-01109KA1999N-00861MA1999999095481MD1510011+9999OA149900211REMSYN112AAXX  05064 06685 33/// /0000 11073 21116 39548 40200 55001 333 21086 3/111 55022 55300 20000 70000 91104 91202;
0140066850999992011010507004+47033+009067FM-12+051599999V0202601N000519999999N9999999N1-00841-01191102061ADDMA1999999095511MD1310031+9999OA149900151REMSYN088AAXX  05074 06685 33/// /2601 11084 21119 39551 40206 53003 333 55300 20000 91103 91202;
0140066850999992011010508004+47033+009067FM-12+051599999V0209999C000019999999N9999999N1-00811-01411102041ADDMA1999999095501MD1219999+9999OA149900101REMSYN088AAXX  05084 06685 33/// /0000 11081 21141 39550 40204 52/// 333 55300 20032 91102 91202;
0140066850999992011010509004+47033+009067FM-12+051599999V0209999C000019999999N9999999N1-00771-01271102031ADDMA1999999095501MD1010021+9999OA149900151REMSYN088AAXX  05094 06685 33/// /0000 11077 21127 39550 40203 50002 333 55304 20302 91103 91202;
0140066850999992011010510004+47033+009067FM-12+051599999V0201501N000519999999N9999999N1-00591-01081101921ADDMA1999999095441MD1710071+9999OA149900211REMSYN088AAXX  05104 06685 33/// /1501 11059 21108 39544 40192 57007 333 553// 20947 91104 91202;
0140066850999992011010511004+47033+009067FM-12+051599999V0202601N000519999999N9999999N1-00421-01091101781ADDMA1999999095351MD1710151+9999OA149900211REMSYN088AAXX  05114 06685 33/// /2601 11042 21109 39535 40178 57015 333 553// 2//// 91104 91202;
0103066850999992011010512004+47033+009067FM-12+051599999V0202901N000519999999N9999999N1-00301-00981101671ADDMA1999999095281REMSYN076AAXX  05124 06685 33/// /2901 11030 21098 39528 40167 5//// 333 553// 2////;
0140066850999992011010513004+47033+009067FM-12+051599999V0202801N000519999999N9999999N1-00181-01061101571ADDMA1999999095211MD1710231+9999OA149900151REMSYN088AAXX  05134 06685 33/// /2801 11018 21106 39521 40157 57023 333 553// 2//// 91103 91202;
0087066850999992011010514004+47033+009067FM-12+051599999V0203001N000519999999N9999999N1-00191-01031101561ADDMA1999999095201REMSYN060AAXX  05144 06685 43/// /3001 11019 21103 39520 40156 5////;
0087066850999992011010515004+47033+009067FM-12+051599999V0202901N000519999999N9999999N1-00181-01051101571ADDMA1999999095211REMSYN060AAXX  05154 06685 43/// /2901 11018 21105 39521 40157 5////;
0140066850999992011010516004+47033+009067FM-12+051599999V0201201N000519999999N9999999N1-00311-00961101561ADDMA1999999095171MD1710041+9999OA149900151REMSYN088AAXX  05164 06685 33/// /1201 11031 21096 39517 40156 57004 333 55300 20025 91103 91203;
0140066850999992011010517004+47033+009067FM-12+051599999V0209999C000019999999N9999999N1-00321-00951101521ADDMA1999999095131MD1810071+9999OA149900211REMSYN088AAXX  05174 06685 33/// /0000 11032 21095 39513 40152 58007 333 55300 20000 91104 91203;
0159066850999992011010518004+47033+009067FM-12+051599999V0201701N000519999999N9999999N1-00451-00991101571ADDKA1120M-00151MA1999999095151MD1519999+9999OA149900211REMSYN094AAXX  05184 06685 33/// /1701 11045 21099 39515 40157 55/// 333 11015 55300 20000 91104 91203;
0140066850999992011010519004+47033+009067FM-12+051599999V0201301N000519999999N9999999N1-00481-00931101591ADDMA1999999095161MD1510011+9999OA149900151REMSYN088AAXX  05194 06685 33/// /1301 11048 21093 39516 40159 55001 333 55300 20000 91103 91202;
0140066850999992011010520004+47033+009067FM-12+051599999V0202801N001019999999N9999999N1-00431-00961101511ADDMA1999999095101MD1719999+9999OA149900311REMSYN088AAXX  05204 06685 33/// /2802 11043 21096 39510 40151 57/// 333 55300 20000 91106 91203;
0103066850999992011010521004+47033+009067FM-12+051599999V0201301N000519999999N9999999N1-00411-00971101501ADDMA1999999095091REMSYN076AAXX  05214 06685 33/// /1301 11041 21097 39509 40150 5//// 333 553// 20000;
0140066850999992011010522004+47033+009067FM-12+051599999V0202801N000519999999N9999999N1-00421-00971101471ADDMA1999999095061MD1710101+9999OA149900361REMSYN088AAXX  05224 06685 33/// /2801 11042 21097 39506 40147 57010 333 55300 20000 91107 91203;
0140066850999992011010523004+47033+009067FM-12+051599999V0200401N000519999999N9999999N1-00461-00881101481ADDMA1999999095061MD1719999+9999OA149900211REMSYN088AAXX  05234 06685 33/// /0401 11046 21088 39506 40148 57/// 333 55300 20000 91104 91202;
0087066850999992011010600004+47033+009067FM-12+051599999V0202801N000519999999N9999999N1-00381-00901101391ADDMA1999999095001REMSYN060AAXX  06004 06685 43/// /2801 11038 21090 39500 40139 5////;
0087066850999992011010601004+47033+009067FM-12+051599999V0201601N000519999999N9999999N1-00491-00891101361ADDMA1999999094941REMSYN060AAXX  06014 06685 43/// /1601 11049 21089 39494 40136 5////;
0087066850999992011010602004+47033+009067FM-12+051599999V0209999C000019999999N9999999N1-00361-00841101271ADDMA1999999094891REMSYN060AAXX  06024 06685 43/// /0000 11036 21084 39489 40127 5////;
0087066850999992011010603004+47033+009067FM-12+051599999V0201401N001019999999N9999999N1-00271-00691101251ADDMA1999999094891REMSYN060AAXX  06034 06685 43/// /1402 11027 21069 39489 40125 5////;
0087066850999992011010604004+47033+009067FM-12+051599999V0201301N001019999999N9999999N1-00241-00671101231ADDMA1999999094881REMSYN060AAXX  06044 06685 43/// /1302 11024 21067 39488 40123 5////;
0087066850999992011010605004+47033+009067FM-12+051599999V0201401N001519999999N9999999N1-00171-00601101211ADDMA1999999094881REMSYN060AAXX  06054 06685 43/// /1403 11017 21060 39488 40121 5////;
0134066850999992011010606004+47033+009067FM-12+051599999V0201301N000519999999N9999999N1-00131-00531101231ADDIA2999-00709KA1999N-00571MA1999999094901REMSYN082AAXX  06064 06685 43/// /1301 11013 21053 39490 40123 5//// 333 21057 3/107 55045;
0087066850999992011010607004+47033+009067FM-12+051599999V0201201N001019999999N9999999N1-00041-00491101241ADDMA1999999094931REMSYN060AAXX  06074 06685 43/// /1202 11004 21049 39493 40124 5////;
0103066850999992011010608004+47033+009067FM-12+051599999V0202501N000519999999N9999999N1+00051-00511101211ADDMA1999999094931REMSYN076AAXX  06084 06685 33/// /2501 10005 21051 39493 40121 5//// 333 553// 20036;
0087066850999992011010609004+47033+009067FM-12+051599999V0202601N001519999999N9999999N1+00261-00611101101ADDMA1999999094871REMSYN060AAXX  06094 06685 43/// /2603 10026 21061 39487 40110 5////;
0140066850999992011010610004+47033+009067FM-12+051599999V0201501N001019999999N9999999N1+00191-00441101141ADDMA1999999094891MD1510041+9999OA149900261REMSYN088AAXX  06104 06685 33/// /1502 10019 21044 39489 40114 55004 333 55307 20799 91105 91203;
0140066850999992011010611004+47033+009067FM-12+051599999V0201901N000519999999N9999999N1+00371-00471101021ADDMA1999999094821MD1710111+9999OA149900211REMSYN088AAXX  06114 06685 33/// /1901 10037 21047 39482 40102 57011 333 55309 2//// 91104 91202;
0140066850999992011010612004+47033+009067FM-12+051599999V0209999C000019999999N9999999N1+00421-00461101021ADDMA1999999094831MD1710041+9999OA149900311REMSYN088AAXX  06124 06685 33/// /0000 10042 21046 39483 40102 57004 333 55303 20745 91106 91203;
0140066850999992011010613004+47033+009067FM-12+051599999V0209999C000019999999N9999999N1+00431-00411100981ADDMA1999999094801MD1710091+9999OA149900151REMSYN088AAXX  06134 06685 33/// /0000 10043 21041 39480 40098 57009 333 55300 20472 91103 91201;
0087066850999992011010614004+47033+009067FM-12+051599999V0201501N000519999999N9999999N1+00451-00331100981ADDMA1999999094801REMSYN060AAXX  06144 06685 43/// /1501 10045 21033 39480 40098 5////;
0087066850999992011010615004+47033+009067FM-12+051599999V0201701N000519999999N9999999N1+00501-00381100961ADDMA1999999094791REMSYN060AAXX  06154 06685 43/// /1701 10050 21038 39479 40096 5////;
0140066850999992011010616004+47033+009067FM-12+051599999V0202201N000519999999N9999999N1+00481-00361100991ADDMA1999999094821MD1310021+9999OA149900311REMSYN088AAXX  06164 06685 33/// /2201 10048 21036 39482 40099 53002 333 55300 20043 91106 91203;
0140066850999992011010617004+47033+009067FM-12+051599999V0209999C000019999999N9999999N1+00381-00251100991ADDMA1999999094791MD1010011+9999OA149900311REMSYN088AAXX  06174 06685 33/// /0000 10038 21025 39479 40099 50001 333 55300 20000 91106 91203;
0159066850999992011010618004+47033+009067FM-12+051599999V0201701N000519999999N9999999N1+00411-00231101191ADDKA1120M+00541MA1999999094991MD1210201+9999OA149900361REMSYN094AAXX  06184 06685 33/// /1701 10041 21023 39499 40119 52020 333 10054 55300 20000 91107 91203;
0140066850999992011010619004+47033+009067FM-12+051599999V0201301N001519999999N9999999N1+00291-00101101301ADDMA1999999095061MD1210241+9999OA149900361REMSYN088AAXX  06194 06685 33/// /1303 10029 21010 39506 40130 52024 333 55300 20000 91107 91203;
0146066850999992011010620004+47033+009067FM-12+051599999V0209999C000019999999N9999999N1+00331+00031101321ADDMA1999999095091MD1219999+9999OA149900311REMSYN094AAXX  06204 06685 23/// /0000 10033 20003 39509 40132 52/// 333 55300 20000 69965 91106 91203;
0146066850999992011010621004+47033+009067FM-12+051599999V0201401N001019999999N9999999N1+00361+00221101331ADDMA1999999095111MD1219999+9999OA149900361REMSYN094AAXX  06214 06685 23/// /1402 10036 20022 39511 40133 52/// 333 55300 20000 69995 91107 91203;
0146066850999992011010622004+47033+009067FM-12+051599999V0203501N000519999999N9999999N1+00301+00201101381ADDMA1999999095141MD1210081+9999OA149900361REMSYN094AAXX  06224 06685 23/// /3501 10030 20020 39514 40138 52008 333 55300 20000 69915 91107 91205;
0103066850999992011010623004+47033+009067FM-12+051599999V0202201N000519999999N9999999N1+00321+00171101411ADDMA1999999095171REMSYN076AAXX  06234 06685 33/// /2201 10032 20017 39517 40141 5//// 333 553// 20000;
0087066850999992011010700004+47033+009067FM-12+051599999V0209999C000019999999N9999999N1+00261+00181101461ADDMA1999999095211REMSYN060AAXX  07004 06685 43/// /0000 10026 20018 39521 40146 5////;
0087066850999992011010701004+47033+009067FM-12+051599999V0201601N000519999999N9999999N1+00291+00191101461ADDMA1999999095211REMSYN060AAXX  07014 06685 43/// /1601 10029 20019 39521 40146 5////;
0087066850999992011010702004+47033+009067FM-12+051599999V0201201N000519999999N9999999N1+00281+00201101471ADDMA1999999095221REMSYN060AAXX  07024 06685 43/// /1201 10028 20020 39522 40147 5////;
0087066850999992011010703004+47033+009067FM-12+051599999V0202601N000519999999N9999999N1+00301+00201101481ADDMA1999999095241REMSYN060AAXX  07034 06685 43/// /2601 10030 20020 39524 40148 5////;
0140066850999992011010704004+47033+009067FM-12+051599999V0202901N001019999999N9999999N1+00291+00121101491ADDMA1999999095241MD1210031+9999OA149900211REMSYN088AAXX  07044 06685 33/// /2902 10029 20012 39524 40149 52003 333 55300 20000 91104 91203;
0140066850999992011010705004+47033+009067FM-12+051599999V0203001N000519999999N9999999N1+00361+00211101551ADDMA1999999095311MD1210091+9999OA149900261REMSYN088AAXX  07054 06685 33/// /3001 10036 20021 39531 40155 52009 333 55300 20000 91105 91203;
0230066850999992011010706004+47033+009067FM-12+051599999V0202701N000519999999N9999999N1+00301+00181101631ADDAA112002091AL10600291GJ101149IA2999+00109KA1999N+00221MA1999999095381MD1210141+9999OA149900361REMSYN124AAXX  07064 06685 03/// /2701 10030 20018 39538 40163 52014 60022 333 20022 3/001 55019 55300 20000 69935 70021 91107 91205;
0140066850999992011010707004+47033+009067FM-12+051599999V0201201N000519999999N9999999N1+00381+00261101601ADDMA1999999095371MD1210131+9999OA149900211REMSYN088AAXX  07074 06685 33/// /1201 10038 20026 39537 40160 52013 333 55300 20000 91104 91202;
0103066850999992011010708004+47033+009067FM-12+051599999V0202701N001019999999N9999999N1+00351+00211101601ADDMA1999999095361REMSYN076AAXX  07084 06685 33/// /2702 10035 20021 39536 40160 5//// 333 553// 20043;
0087066850999992011010709004+47033+009067FM-12+051599999V0202401N000519999999N9999999N1+00521+00241101491ADDMA1999999095291REMSYN060AAXX  07094 06685 43/// /2401 10052 20024 39529 40149 5////;
0140066850999992011010710004+47033+009067FM-12+051599999V0209999C000019999999N9999999N1+00481+00211101471ADDMA1999999095271MD1710101+9999OA149900261REMSYN088AAXX  07104 06685 33/// /0000 10048 20021 39527 40147 57010 333 55308 20644 91105 91202;
0140066850999992011010711004+47033+009067FM-12+051599999V0202701N000519999999N9999999N1+00501+00211101451ADDMA1999999095251MD1610111+9999OA149900311REMSYN088AAXX  07114 06685 33/// /2701 10050 20021 39525 40145 56011 333 55309 20817 91106 91202;
0140066850999992011010712004+47033+009067FM-12+051599999V0209999C000019999999N9999999N1+00571+00211101371ADDMA1999999095191MD1810101+9999OA149900361REMSYN088AAXX  07124 06685 33/// /0000 10057 20021 39519 40137 58010 333 55304 20720 91107 91203;
0140066850999992011010713004+47033+009067FM-12+051599999V0202001N000519999999N9999999N1+00671+00211101301ADDMA1999999095151MD1810121+9999OA149900361REMSYN088AAXX  07134 06685 33/// /2001 10067 20021 39515 40130 58012 333 55303 20680 91107 91203;
0087066850999992011010714004+47033+009067FM-12+051599999V0203501N000519999999N9999999N1+00581+00181101321ADDMA1999999095151REMSYN060AAXX  07144 06685 43/// /3501 10058 20018 39515 40132 5////;
0087066850999992011010715004+47033+009067FM-12+051599999V0201201N001019999999N9999999N1+00581+00201101331ADDMA1999999095161REMSYN060AAXX  07154 06685 43/// /1202 10058 20020 39516 40133 5////;
0140066850999992011010716004+47033+009067FM-12+051599999V0209999C000019999999N9999999N1+00561+00161101381ADDMA1999999095201MD1210051+9999OA149900411REMSYN088AAXX  07164 06685 33/// /0000 10056 20016 39520 40138 52005 333 55300 20058 91108 91203;
0140066850999992011010717004+47033+009067FM-12+051599999V0202101N001019999999N9999999N1+00761+00171101401ADDMA1999999095261MD1310111+9999OA149900361REMSYN088AAXX  07174 06685 33/// /2102 10076 20017 39526 40140 53011 333 55300 20000 91107 91203;
0122066850999992011010718004+47033+009067FM-12+051599999V0201401N001019999999N9999999N1+00401+00121101471ADDKA1120M+00761MA1999999095251REMSYN082AAXX  07184 06685 33/// /1402 10040 20012 39525 40147 5//// 333 10076 553// 20000;
0140066850999992011010719004+47033+009067FM-12+051599999V0202801N000519999999N9999999N1+00341+00111101531ADDMA1999999095291MD1219999+9999OA149900361REMSYN088AAXX  07194 06685 33/// /2801 10034 20011 39529 40153 52/// 333 55300 20000 91107 91203;
0087066850999992011010720004+47033+009067FM-12+051599999V0203501N000519999999N9999999N1+00291+00081101531ADDMA1999999095281REMSYN060AAXX  07204 06685 43/// /3501 10029 20008 39528 40153 5////;
0087066850999992011010721004+47033+009067FM-12+051599999V0201301N000519999999N9999999N1+00461+00071101461ADDMA1999999095251REMSYN060AAXX  07214 06685 43/// /1301 10046 20007 39525 40146 5////;
0140066850999992011010722004+47033+009067FM-12+051599999V0202101N001019999999N9999999N1+00371+00051101451ADDMA1999999095221MD1710071+9999OA149900361REMSYN088AAXX  07224 06685 33/// /2102 10037 20005 39522 40145 57007 333 55300 20000 91107 91202;
0103066850999992011010723004+47033+009067FM-12+051599999V0201801N000519999999N9999999N1+00311+00071101471ADDMA1999999095231REMSYN076AAXX  07234 06685 33/// /1801 10031 20007 39523 40147 5//// 333 553// 20000;
0103066850999992011010800004+47033+009067FM-12+051599999V0201601N000519999999N9999999N1+00351+00061101451ADDMA1999999095221REMSYN076AAXX  08004 06685 33/// /1601 10035 20006 39522 40145 5//// 333 553// 20000;
0087066850999992011010801004+47033+009067FM-12+051599999V0202901N000519999999N9999999N1+00391+00061101511ADDMA1999999095281REMSYN060AAXX  08014 06685 43/// /2901 10039 20006 39528 40151 5////;
0087066850999992011010802004+47033+009067FM-12+051599999V0201101N001019999999N9999999N1+00311+00081101541ADDMA1999999095291REMSYN060AAXX  08024 06685 43/// /1102 10031 20008 39529 40154 5////;
0087066850999992011010803004+47033+009067FM-12+051599999V0203601N000519999999N9999999N1+00361+00061101481ADDMA1999999095251REMSYN060AAXX  08034 06685 43/// /3601 10036 20006 39525 40148 5////;
0087066850999992011010804004+47033+009067FM-12+051599999V0203101N001019999999N9999999N1+00371+00081101461ADDMA1999999095231REMSYN060AAXX  08044 06685 43/// /3102 10037 20008 39523 40146 5////;
0087066850999992011010805004+47033+009067FM-12+051599999V0202001N001019999999N9999999N1+00491+00091101411ADDMA1999999095211REMSYN060AAXX  08054 06685 43/// /2002 10049 20009 39521 40141 5////;
0134066850999992011010806004+47033+009067FM-12+051599999V0203101N005719999999N9999999N1+00731+00161101521ADDIA2999+00209KA1999N+00261MA1999999095371REMSYN082AAXX  08064 06685 43/// /3111 10073 20016 39537 40152 5//// 333 20026 3/002 55024;
0087066850999992011010807004+47033+009067FM-12+051599999V0201601N002619999999N9999999N1+00681+00141101621ADDMA1999999095451REMSYN060AAXX  08074 06685 43/// /1605 10068 20014 39545 40162 5////;
0103066850999992011010808004+47033+009067FM-12+051599999V0202001N000519999999N9999999N1+00641+00141101671ADDMA1999999095491REMSYN076AAXX  08084 06685 33/// /2001 10064 20014 39549 40167 5//// 333 553// 20047;
0087066850999992011010809004+47033+009067FM-12+051599999V0201301N001519999999N9999999N1+00401+00111101731ADDMA1999999095491REMSYN060AAXX  08094 06685 43/// /1303 10040 20011 39549 40173 5////;
0087066850999992011010810004+47033+009067FM-12+051599999V0202801N001019999999N9999999N1+00531+00141101661ADDMA1999999095461REMSYN060AAXX  08104 06685 43/// /2802 10053 20014 39546 40166 5////;
0087066850999992011010811004+47033+009067FM-12+051599999V0202901N000519999999N9999999N1+00721+00201101561ADDMA1999999095401REMSYN060AAXX  08114 06685 43/// /2901 10072 20020 39540 40156 5////;
0087066850999992011010812004+47033+009067FM-12+051599999V0201701N000519999999N9999999N1+00801+00151101461ADDMA1999999095331REMSYN060AAXX  08124 06685 43/// /1701 10080 20015 39533 40146 5////;
0087066850999992011010813004+47033+009067FM-12+051599999V0202501N000519999999N9999999N1+00891+00141101401ADDMA1999999095291REMSYN060AAXX  08134 06685 43/// /2501 10089 20014 39529 40140 5////;
0087066850999992011010814004+47033+009067FM-12+051599999V0201901N000519999999N9999999N1+00841+00161101401ADDMA1999999095281REMSYN060AAXX  08144 06685 43/// /1901 10084 20016 39528 40140 5////;
0087066850999992011010815004+47033+009067FM-12+051599999V0201401N000519999999N9999999N1+00691+00161101521ADDMA1999999095361REMSYN060AAXX  08154 06685 43/// /1401 10069 20016 39536 40152 5////;
0087066850999992011010816004+47033+009067FM-12+051599999V0201001N000519999999N9999999N1+00601+00091101561ADDMA1999999095381REMSYN060AAXX  08164 06685 43/// /1001 10060 20009 39538 40156 5////;
0087066850999992011010817004+47033+009067FM-12+051599999V0202201N000519999999N9999999N1+00561+00071101581ADDMA1999999095391REMSYN060AAXX  08174 06685 43/// /2201 10056 20007 39539 40158 5////;
0087066850999992011010818004+47033+009067FM-12+051599999V0202201N000519999999N9999999N1+00451-00011101561ADDMA1999999095341REMSYN060AAXX  08184 06685 43/// /2201 10045 21001 39534 40156 5////;
0087066850999992011010819004+47033+009067FM-12+051599999V0201501N001019999999N9999999N1+00431+00001101561ADDMA1999999095341REMSYN060AAXX  08194 06685 43/// /1502 10043 20000 39534 40156 5////;
0087066850999992011010820004+47033+009067FM-12+051599999V0202901N001519999999N9999999N1+00511-00051101561ADDMA1999999095361REMSYN060AAXX  08204 06685 43/// /2903 10051 21005 39536 40156 5////;
0087066850999992011010821004+47033+009067FM-12+051599999V0202401N000519999999N9999999N1+00411-00071101551ADDMA1999999095331REMSYN060AAXX  08214 06685 43/// /2401 10041 21007 39533 40155 5////;
0087066850999992011010822004+47033+009067FM-12+051599999V0203301N000519999999N9999999N1+00351-00091101521ADDMA1999999095281REMSYN060AAXX  08224 06685 43/// /3301 10035 21009 39528 40152 5////;
0087066850999992011010823004+47033+009067FM-12+051599999V0209999C000019999999N9999999N1+00481-00111101471ADDMA1999999095271REMSYN060AAXX  08234 06685 43/// /0000 10048 21011 39527 40147 5////;
0087066850999992011010900004+47033+009067FM-12+051599999V0201301N006219999999N9999999N1+01161-00221101241ADDMA1999999095201REMSYN060AAXX  09004 06685 43/// /1312 10116 21022 39520 40124 5////;
0087066850999992011010901004+47033+009067FM-12+051599999V0201301N004119999999N9999999N1+01131-00241101261ADDMA1999999095211REMSYN060AAXX  09014 06685 43/// /1308 10113 21024 39521 40126 5////;
0087066850999992011010902004+47033+009067FM-12+051599999V0201501N006719999999N9999999N1+01381-00341101221ADDMA1999999095231REMSYN060AAXX  09024 06685 43/// /1513 10138 21034 39523 40122 5////;
0087066850999992011010903004+47033+009067FM-12+051599999V0201301N003619999999N9999999N1+01151-00271101241ADDMA1999999095201REMSYN060AAXX  09034 06685 43/// /1307 10115 21027 39520 40124 5////;
0087066850999992011010904004+47033+009067FM-12+051599999V0201501N005119999999N9999999N1+01231-00301101161ADDMA1999999095141REMSYN060AAXX  09044 06685 43/// /1510 10123 21030 39514 40116 5////;
0087066850999992011010905004+47033+009067FM-12+051599999V0209999C000019999999N9999999N1+00641-00161101361ADDMA1999999095201REMSYN060AAXX  09054 06685 43/// /0000 10064 21016 39520 40136 5////;
0097066850999992011010906004+47033+009067FM-12+051599999V0202901N001519999999N9999999N1+00441-00171101401ADDMA1999999095191REMSYN070AAXX  09064 06685 43/// /2903 10044 21017 39519 40140 5//// 333 55041;
0087066850999992011010907004+47033+009067FM-12+051599999V0209999C000019999999N9999999N1+00281-00101101401ADDMA1999999095161REMSYN060AAXX  09074 06685 43/// /0000 10028 21010 39516 40140 5////;
0103066850999992011010908004+47033+009067FM-12+051599999V0201001N000519999999N9999999N1+00491-00161101431ADDMA1999999095231REMSYN076AAXX  09084 06685 33/// /1001 10049 21016 39523 40143 5//// 333 553// 20054;
0103066850999992011010909004+47033+009067FM-12+051599999V0209999C000019999999N9999999N1+00581-00101101451ADDMA1999999095271REMSYN076AAXX  09094 06685 33/// /0000 10058 21010 39527 40145 5//// 333 553// 20234;
0140066850999992011010910004+47033+009067FM-12+051599999V0201801N000519999999N9999999N1+00621-00061101481ADDMA1999999095311MD1210151+9999OA149900361REMSYN088AAXX  09104 06685 33/// /1801 10062 21006 39531 40148 52015 333 55301 20346 91107 91202;
0140066850999992011010911004+47033+009067FM-12+051599999V0209999C000019999999N9999999N1+00851-00041101431ADDMA1999999095311MD1210081+9999OA149900311REMSYN088AAXX  09114 06685 33/// /0000 10085 21004 39531 40143 52008 333 55302 20493 91106 91202;
0140066850999992011010912004+47033+009067FM-12+051599999V0201401N000519999999N9999999N1+00991-00011101371ADDMA1999999095281MD1010011+9999OA149901391REMSYN088AAXX  09124 06685 33/// /1401 10099 21001 39528 40137 50001 333 55307 20968 91127 91218;
0140066850999992011010913004+47033+009067FM-12+051599999V0202801N006219999999N9999999N1+00981+00021101371ADDMA1999999095281MD1810031+9999OA149900981REMSYN088AAXX  09134 06685 33/// /2812 10098 20002 39528 40137 58003 333 55301 20436 91119 91212;
0087066850999992011010914004+47033+009067FM-12+051599999V0202801N004619999999N9999999N1+00961+00031101401ADDMA1999999095311REMSYN060AAXX  09144 06685 43/// /2809 10096 20003 39531 40140 5////;
0087066850999992011010915004+47033+009067FM-12+051599999V0202801N005119999999N9999999N1+00941+00081101441ADDMA1999999095341REMSYN060AAXX  09154 06685 43/// /2810 10094 20008 39534 40144 5////;
0140066850999992011010916004+47033+009067FM-12+051599999V0202901N004119999999N9999999N1+00881+00151101521ADDMA1999999095401MD1310121+9999OA149900771REMSYN088AAXX  09164 06685 33/// /2908 10088 20015 39540 40152 53012 333 55300 20061 91115 91211;
0140066850999992011010917004+47033+009067FM-12+051599999V0202801N004119999999N9999999N1+00621+00221101651ADDMA1999999095471MD1210161+9999OA149900771REMSYN088AAXX  09174 06685 33/// /2808 10062 20022 39547 40165 52016 333 55300 20000 91115 91211;
0159066850999992011010918004+47033+009067FM-12+051599999V0201501N000519999999N9999999N1+00671+00251101711ADDKA1120M+01061MA1999999095531MD1210191+9999OA149900981REMSYN094AAXX  09184 06685 33/// /1501 10067 20025 39553 40171 52019 333 10106 55300 20000 91119 91212;
0140066850999992011010919004+47033+009067FM-12+051599999V0202901N001019999999N9999999N1+00621+00231101731ADDMA1999999095541MD1210141+9999OA149900411REMSYN088AAXX  09194 06685 33/// /2902 10062 20023 39554 40173 52014 333 55300 20000 91108 91206;
0140066850999992011010920004+47033+009067FM-12+051599999V0200201N000519999999N9999999N1+00501+00231101821ADDMA1999999095601MD1210131+9999OA149900211REMSYN088AAXX  09204 06685 33/// /0201 10050 20023 39560 40182 52013 333 55300 20000 91104 91203;
0140066850999992011010921004+47033+009067FM-12+051599999V0202801N005719999999N9999999N1+00661+00381101831ADDMA1999999095641MD1210111+9999OA149900931REMSYN088AAXX  09214 06685 33/// /2811 10066 20038 39564 40183 52011 333 55300 20000 91118 91211;
0146066850999992011010922004+47033+009067FM-12+051599999V0202801N005119999999N9999999N1+00601+00421101881ADDMA1999999095681MD1210141+9999OA149901081REMSYN094AAXX  09224 06685 23/// /2810 10060 20042 39568 40188 52014 333 55300 20000 69915 91121 91213;
0146066850999992011010923004+47033+009067FM-12+051599999V0202901N003619999999N9999999N1+00571+00331101941ADDMA1999999095731MD1210131+9999OA149901081REMSYN094AAXX  09234 06685 23/// /2907 10057 20033 39573 40194 52013 333 55300 20000 69925 91121 91213;
0163066850999992011011000004+47033+009067FM-12+051599999V0202701N003619999999N9999999N1+00551+00361101961ADDAA106000591MA1999999095741MD1110101+9999OA149901081REMSYN100AAXX  10004 06685 03/// /2707 10055 20036 39574 40196 51010 69941 333 55300 20000 69915 91121 91213;
0146066850999992011011001004+47033+009067FM-12+051599999V0202801N004119999999N9999999N1+00541+00331102001ADDMA1999999095781MD1310101+9999OA149900771REMSYN094AAXX  10014 06685 23/// /2808 10054 20033 39578 40200 53010 333 55300 20000 69925 91115 91210;
0109066850999992011011002004+47033+009067FM-12+051599999V0202801N007719999999N9999999N1+00471+00291102051ADDMA1999999095811REMSYN082AAXX  10024 06685 23/// /2815 10047 20029 39581 40205 5//// 333 553// 20000 69925;
0087066850999992011011003004+47033+009067FM-12+051599999V0202901N005119999999N9999999N1+00401+00191102121ADDMA1999999095861REMSYN060AAXX  10034 06685 43/// /2910 10040 20019 39586 40212 5////;
0109066850999992011011004004+47033+009067FM-12+051599999V0202901N002619999999N9999999N1+00361+00191102161ADDMA1999999095891REMSYN082AAXX  10044 06685 23/// /2905 10036 20019 39589 40216 5//// 333 553// 20000 69965;
0146066850999992011011005004+47033+009067FM-12+051599999V0209999C000019999999N9999999N1+00331+00221102181ADDMA1999999095901MD1219999+9999OA149900621REMSYN094AAXX  10054 06685 23/// /0000 10033 20022 39590 40218 52/// 333 55300 20000 69965 91112 91209;
0159066850999992011011006004+47033+009067FM-12+051599999V0201101N000519999999N9999999N1+00291+00221102201ADDAA124002891GJ100609IA2999+00209KA1999N+00301MA1999999095911REMSYN088AAXX  10064 06685 43/// /1101 10029 20022 39591 40220 5//// 333 20030 3/002 55010 70027;
0140066850999992011011007004+47033+009067FM-12+051599999V0201401N001519999999N9999999N1+00271+00201102231ADDMA1999999095931MD1210041+9999OA149900261REMSYN088AAXX  10074 06685 33/// /1403 10027 20020 39593 40223 52004 333 55300 20000 91105 91203;
0087066850999992011011008004+47033+009067FM-12+051599999V0202001N000519999999N9999999N1+00301+00191102241ADDMA1999999095951REMSYN060AAXX  10084 06685 43/// /2001 10030 20019 39595 40224 5////;
0087066850999992011011009004+47033+009067FM-12+051599999V0202501N000519999999N9999999N1+00291+00171102241ADDMA1999999095951REMSYN060AAXX  10094 06685 43/// /2501 10029 20017 39595 40224 5////;
0140066850999992011011010004+47033+009067FM-12+051599999V0202901N001019999999N9999999N1+00341+00181102231ADDMA1999999095951MD1010021+9999OA149900261REMSYN088AAXX  10104 06685 33/// /2902 10034 20018 39595 40223 50002 333 55300 20313 91105 91203;
0140066850999992011011011004+47033+009067FM-12+051599999V0202901N003619999999N9999999N1+00381+00241102201ADDMA1999999095931MD1719999+9999OA149900571REMSYN088AAXX  10114 06685 33/// /2907 10038 20024 39593 40220 57/// 333 55300 20364 91111 91207;
0103066850999992011011012004+47033+009067FM-12+051599999V0202801N001019999999N9999999N1+00371+00241102151ADDMA1999999095881REMSYN076AAXX  10124 06685 33/// /2802 10037 20024 39588 40215 5//// 333 553// 20338;
0087066850999992011011013004+47033+009067FM-12+051599999V0201101N000519999999N9999999N1+00401+00241102081ADDMA1999999095821REMSYN060AAXX  10134 06685 43/// /1101 10040 20024 39582 40208 5////;
0087066850999992011011014004+47033+009067FM-12+051599999V0202901N001519999999N9999999N1+00401+00221102051ADDMA1999999095791REMSYN060AAXX  10144 06685 43/// /2903 10040 20022 39579 40205 5////;
0087066850999992011011015004+47033+009067FM-12+051599999V0202301N000519999999N9999999N1+00441+00241102011ADDMA1999999095761REMSYN060AAXX  10154 06685 43/// /2301 10044 20024 39576 40201 5////;
0087066850999992011011016004+47033+009067FM-12+051599999V0202801N001019999999N9999999N1+00391+00211101991ADDMA1999999095731REMSYN060AAXX  10164 06685 43/// /2802 10039 20021 39573 40199 5////;
0087066850999992011011017004+47033+009067FM-12+051599999V0209999C000019999999N9999999N1+00351+00221101971ADDMA1999999095711REMSYN060AAXX  10174 06685 43/// /0000 10035 20022 39571 40197 5////;
0110066850999992011011018004+47033+009067FM-12+051599999V0201301N000519999999N9999999N1+00371+00231101951ADDKA1999M+00441MA1999999095691REMSYN070AAXX  10184 06685 43/// /1301 10037 20023 39569 40195 5//// 333 10044;
0087066850999992011011019004+47033+009067FM-12+051599999V0200901N000519999999N9999999N1+00331+00241101941ADDMA1999999095671REMSYN060AAXX  10194 06685 43/// /0901 10033 20024 39567 40194 5////;
0087066850999992011011020004+47033+009067FM-12+051599999V0209999C000019999999N9999999N1+00341+00231101881ADDMA1999999095621REMSYN060AAXX  10204 06685 43/// /0000 10034 20023 39562 40188 5////;
0087066850999992011011021004+47033+009067FM-12+051599999V0202001N000519999999N9999999N1+00341+00191101861ADDMA1999999095601REMSYN060AAXX  10214 06685 43/// /2001 10034 20019 39560 40186 5////;
0087066850999992011011022004+47033+009067FM-12+051599999V0202001N000519999999N9999999N1+00291+00161101881ADDMA1999999095611REMSYN060AAXX  10224 06685 43/// /2001 10029 20016 39561 40188 5////;
0087066850999992011011023004+47033+009067FM-12+051599999V0202801N000519999999N9999999N1+00281+00131101891ADDMA1999999095621REMSYN060AAXX  10234 06685 43/// /2801 10028 20013 39562 40189 5////;
0087066850999992011011100004+47033+009067FM-12+051599999V0209999C000019999999N9999999N1+00271+00131101811ADDMA1999999095541REMSYN060AAXX  11004 06685 43/// /0000 10027 20013 39554 40181 5////;
0087066850999992011011101004+47033+009067FM-12+051599999V0202201N000519999999N9999999N1+00261+00111101771ADDMA1999999095501REMSYN060AAXX  11014 06685 43/// /2201 10026 20011 39550 40177 5////;
0087066850999992011011102004+47033+009067FM-12+051599999V0209999C000019999999N9999999N1+00271+00111101761ADDMA1999999095491REMSYN060AAXX  11024 06685 43/// /0000 10027 20011 39549 40176 5////;
0087066850999992011011103004+47033+009067FM-12+051599999V0201601N001019999999N9999999N1+00241+00111101711ADDMA1999999095441REMSYN060AAXX  11034 06685 43/// /1602 10024 20011 39544 40171 5////;
0087066850999992011011104004+47033+009067FM-12+051599999V0201501N000519999999N9999999N1+00241+00021101691ADDMA1999999095421REMSYN060AAXX  11044 06685 43/// /1501 10024 20002 39542 40169 5////;
0087066850999992011011105004+47033+009067FM-12+051599999V0201301N000519999999N9999999N1+00201-00011101641ADDMA1999999095361REMSYN060AAXX  11054 06685 43/// /1301 10020 21001 39536 40164 5////;
0097066850999992011011106004+47033+009067FM-12+051599999V0201501N001519999999N9999999N1+00201-00031101601ADDMA1999999095331REMSYN070AAXX  11064 06685 43/// /1503 10020 21003 39533 40160 5//// 333 55000;
0140066850999992011011107004+47033+009067FM-12+051599999V0201201N000519999999N9999999N1+00151-00031101561ADDMA1999999095281MD1719999+9999OA149900411REMSYN088AAXX  11074 06685 33/// /1201 10015 21003 39528 40156 57/// 333 55300 20000 91108 91204;
0103066850999992011011108004+47033+009067FM-12+051599999V0201501N001519999999N9999999N1+00091-00051101551ADDMA1999999095251REMSYN076AAXX  11084 06685 33/// /1503 10009 21005 39525 40155 5//// 333 553// 20022;
0087066850999992011011109004+47033+009067FM-12+051599999V0201501N000519999999N9999999N1+00101-00041101501ADDMA1999999095211REMSYN060AAXX  11094 06685 43/// /1501 10010 21004 39521 40150 5////;
0140066850999992011011110004+47033+009067FM-12+051599999V0201201N002119999999N9999999N1+00151+00011101461ADDMA1999999095181MD1810101+9999OA149900311REMSYN088AAXX  11104 06685 33/// /1204 10015 20001 39518 40146 58010 333 55301 20486 91106 91204;
0140066850999992011011111004+47033+009067FM-12+051599999V0200501N000519999999N9999999N1+00111+00021101351ADDMA1999999095071MD1810181+9999OA149900311REMSYN088AAXX  11114 06685 33/// /0501 10011 20002 39507 40135 58018 333 55306 2//// 91106 91205;
0103066850999992011011112004+47033+009067FM-12+051599999V0202001N000519999999N9999999N1+00261+00091101151ADDMA1999999094921REMSYN076AAXX  11124 06685 33/// /2001 10026 20009 39492 40115 5//// 333 553// 2////;
0140066850999992011011113004+47033+009067FM-12+051599999V0202801N004619999999N9999999N1+00351+00051101111ADDMA1999999094901MD1710281+9999OA149900821REMSYN088AAXX  11134 06685 33/// /2809 10035 20005 39490 40111 57028 333 55308 20763 91116 91209;
0087066850999992011011114004+47033+009067FM-12+051599999V0202701N005719999999N9999999N1+00371+00081101171ADDMA1999999094961REMSYN060AAXX  11144 06685 43/// /2711 10037 20008 39496 40117 5////;
0087066850999992011011115004+47033+009067FM-12+051599999V0201501N001519999999N9999999N1+00381+00061101281ADDMA1999999095071REMSYN060AAXX  11154 06685 43/// /1503 10038 20006 39507 40128 5////;
0140066850999992011011116004+47033+009067FM-12+051599999V0202501N000519999999N9999999N1+00351+00071101341ADDMA1999999095121MD1110221+9999OA149900571REMSYN088AAXX  11164 06685 33/// /2501 10035 20007 39512 40134 51022 333 55300 20022 91111 91208;
0140066850999992011011117004+47033+009067FM-12+051599999V0201901N000519999999N9999999N1+00331+00081101461ADDMA1999999095221MD1310251+9999OA149900311REMSYN088AAXX  11174 06685 33/// /1901 10033 20008 39522 40146 53025 333 55300 20000 91106 91204;
0182066850999992011011118004+47033+009067FM-12+051599999V0201501N001019999999N9999999N1+00301+00171101521ADDAA112000591KA1120M+00391MA1999999095271MD1110201+9999OA149901241REMSYN106AAXX  11184 06685 03/// /1502 10030 20017 39527 40152 51020 69942 333 10039 55300 20000 69945 91124 91215;
0146066850999992011011119004+47033+009067FM-12+051599999V0202801N001519999999N9999999N1+00301+00111101641ADDMA1999999095391MD1310271+9999OA149900211REMSYN094AAXX  11194 06685 23/// /2803 10030 20011 39539 40164 53027 333 55300 20000 60025 91104 91203;
0146066850999992011011120004+47033+009067FM-12+051599999V0202901N001019999999N9999999N1+00231+00121101751ADDMA1999999095471MD1210251+9999OA149900211REMSYN094AAXX  11204 06685 23/// /2902 10023 20012 39547 40175 52025 333 55300 20000 69985 91104 91203;
0146066850999992011011121004+47033+009067FM-12+051599999V0202801N000519999999N9999999N1+00191+00121101851ADDMA1999999095561MD1210291+9999OA149900311REMSYN094AAXX  11214 06685 23/// /2801 10019 20012 39556 40185 52029 333 55300 20000 60015 91106 91204;
0146066850999992011011122004+47033+009067FM-12+051599999V0201801N000519999999N9999999N1+00181+00111101951ADDMA1999999095651MD1310261+9999OA149900151REMSYN094AAXX  11224 06685 23/// /1801 10018 20011 39565 40195 53026 333 55300 20000 69935 91103 91202;
0146066850999992011011123004+47033+009067FM-12+051599999V0201601N001019999999N9999999N1+00161+00061102001ADDMA1999999095691MD1210221+9999OA149900361REMSYN094AAXX  11234 06685 23/// /1602 10016 20006 39569 40200 52022 333 55300 20000 69915 91107 91205;
0163066850999992011011200004+47033+009067FM-12+051599999V0201301N000519999999N9999999N1+00221+00111102001ADDAA106004191MA1999999095711MD1210151+9999OA149901241REMSYN100AAXX  12004 06685 03/// /1301 10022 20011 39571 40200 52015 60041 333 55300 20000 60005 91124 91215;
0140066850999992011011201004+47033+009067FM-12+051599999V0203101N001019999999N9999999N1+00231+00131102031ADDMA1999999095741MD1210091+9999OA149900311REMSYN088AAXX  12014 06685 33/// /3102 10023 20013 39574 40203 52009 333 55300 20000 91106 91204;
0103066850999992011011202004+47033+009067FM-12+051599999V0202601N000519999999N9999999N1+00271+00141102121ADDMA1999999095831REMSYN076AAXX  12024 06685 33/// /2601 10027 20014 39583 40212 5//// 333 553// 20000;
0087066850999992011011203004+47033+009067FM-12+051599999V0202201N000519999999N9999999N1+00301+00141102161ADDMA1999999095871REMSYN060AAXX  12034 06685 43/// /2201 10030 20014 39587 40216 5////;
0087066850999992011011204004+47033+009067FM-12+051599999V0202401N001019999999N9999999N1+00321+00191102231ADDMA1999999095941REMSYN060AAXX  12044 06685 43/// /2402 10032 20019 39594 40223 5////;
0103066850999992011011205004+47033+009067FM-12+051599999V0201101N000519999999N9999999N1+00251+00181102301ADDMA1999999095991REMSYN076AAXX  12054 06685 33/// /1101 10025 20018 39599 40230 5//// 333 553// 20000;
0159066850999992011011206004+47033+009067FM-12+051599999V0201101N000519999999N9999999N1+00281+00201102371ADDAA124004391GJ101329IA2999+00109KA1999N+00161MA1999999096071REMSYN088AAXX  12064 06685 43/// /1101 10028 20020 39607 40237 5//// 333 20016 3/001 55022 70044;
0146066850999992011011207004+47033+009067FM-12+051599999V0201901N000519999999N9999999N1+00331+00211102421ADDMA1999999096121MD1210181+9999OA149900151REMSYN094AAXX  12074 06685 23/// /1901 10033 20021 39612 40242 52018 333 55300 20000 69915 91103 91202;
0087066850999992011011208004+47033+009067FM-12+051599999V0201401N001019999999N9999999N1+00321+00241102451ADDMA1999999096151REMSYN060AAXX  12084 06685 43/// /1402 10032 20024 39615 40245 5////;
0087066850999992011011209004+47033+009067FM-12+051599999V0202701N001019999999N9999999N1+00351+00231102471ADDMA1999999096181REMSYN060AAXX  12094 06685 43/// /2702 10035 20023 39618 40247 5////;
0140066850999992011011210004+47033+009067FM-12+051599999V0201401N001019999999N9999999N1+00381+00291102491ADDMA1999999096201MD1219999+9999OA149900211REMSYN088AAXX  12104 06685 33/// /1402 10038 20029 39620 40249 52/// 333 55300 20140 91104 91202;
0117066850999992011011211004+47033+009067FM-12+051599999V0201501N000519999999N9999999N1+00451+00331102431ADDMA1999999096161MD1010011+9999REMSYN076AAXX  12114 06685 33/// /1501 10045 20033 39616 40243 50001 333 55300 20346;
0087066850999992011011212004+47033+009067FM-12+051599999V0209999C000019999999N9999999N1+00541+00311102391ADDMA1999999096141REMSYN060AAXX  12124 06685 43/// /0000 10054 20031 39614 40239 5////;
0087066850999992011011213004+47033+009067FM-12+051599999V0209999C000019999999N9999999N1+00601+00371102331ADDMA1999999096101REMSYN060AAXX  12134 06685 43/// /0000 10060 20037 39610 40233 5////;
0087066850999992011011214004+47033+009067FM-12+051599999V0201201N002619999999N9999999N1+00611+00291102321ADDMA1999999096091REMSYN060AAXX  12144 06685 43/// /1205 10061 20029 39609 40232 5////;
0087066850999992011011215004+47033+009067FM-12+051599999V0202901N001519999999N9999999N1+00511+00281102371ADDMA1999999096121REMSYN060AAXX  12154 06685 43/// /2903 10051 20028 39612 40237 5////;
0146066850999992011011216004+47033+009067FM-12+051599999V0201601N001019999999N9999999N1+00531+00361102411ADDMA1999999096161MD1210061+9999OA149900361REMSYN094AAXX  12164 06685 23/// /1602 10053 20036 39616 40241 52006 333 55300 20014 69935 91107 91204;
0146066850999992011011217004+47033+009067FM-12+051599999V0201501N000519999999N9999999N1+00461+00331102441ADDMA1999999096171MD1210081+9999OA149900311REMSYN094AAXX  12174 06685 23/// /1501 10046 20033 39617 40244 52008 333 55300 20000 60015 91106 91204;
0182066850999992011011218004+47033+009067FM-12+051599999V0202101N000519999999N9999999N1+00441+00281102421ADDAA112002091KA1120M+00621MA1999999096151MD1010031+9999OA149900411REMSYN106AAXX  12184 06685 03/// /2101 10044 20028 39615 40242 50003 60022 333 10062 55300 20000 69975 91108 91205;
0146066850999992011011219004+47033+009067FM-12+051599999V0201401N001019999999N9999999N1+00371+00291102461ADDMA1999999096171MD1210011+9999OA149900211REMSYN094AAXX  12194 06685 23/// /1402 10037 20029 39617 40246 52001 333 55300 20000 60025 91104 91202;
0146066850999992011011220004+47033+009067FM-12+051599999V0201201N001019999999N9999999N1+00371+00301102461ADDMA1999999096171MD1510001+9999OA149900211REMSYN094AAXX  12204 06685 23/// /1202 10037 20030 39617 40246 55000 333 55300 20000 60025 91104 91202;
0146066850999992011011221004+47033+009067FM-12+051599999V0202901N000519999999N9999999N1+00361+00271102441ADDMA1999999096151MD1010001+9999OA149900311REMSYN094AAXX  12214 06685 23/// /2901 10036 20027 39615 40244 50000 333 55300 20000 69985 91106 91204;
0146066850999992011011222004+47033+009067FM-12+051599999V0202901N000519999999N9999999N1+00361+00271102411ADDMA1999999096121MD1710051+9999OA149900261REMSYN094AAXX  12224 06685 23/// /2901 10036 20027 39612 40241 57005 333 55300 20000 69965 91105 91203;
0146066850999992011011223004+47033+009067FM-12+051599999V0201801N000519999999N9999999N1+00371+00291102411ADDMA1999999096121MD1710051+9999OA149900261REMSYN094AAXX  12234 06685 23/// /1801 10037 20029 39612 40241 57005 333 55300 20000 60015 91105 91203;
0163066850999992011011300004+47033+009067FM-12+051599999V0202901N001019999999N9999999N1+00351+00261102411ADDAA106007991MA1999999096121MD1710031+9999OA149900411REMSYN100AAXX  13004 06685 03/// /2902 10035 20026 39612 40241 57003 60081 333 55300 20000 60015 91108 91205;
0146066850999992011011301004+47033+009067FM-12+051599999V0201301N001519999999N9999999N1+00381+00321102411ADDMA1999999096131MD1310011+9999OA149900211REMSYN094AAXX  13014 06685 23/// /1303 10038 20032 39613 40241 53001 333 55300 20000 60025 91104 91203;
0146066850999992011011302004+47033+009067FM-12+051599999V0201501N002619999999N9999999N1+00441+00351102311ADDMA1999999096051MD1819999+9999OA149900571REMSYN094AAXX  13024 06685 23/// /1505 10044 20035 39605 40231 58/// 333 55300 20000 60025 91111 91205;
0087066850999992011011303004+47033+009067FM-12+051599999V0202701N001019999999N9999999N1+00591+00441102251ADDMA1999999096021REMSYN060AAXX  13034 06685 43/// /2702 10059 20044 39602 40225 5////;
0146066850999992011011304004+47033+009067FM-12+051599999V0203301N000519999999N9999999N1+00471+00411102261ADDMA1999999096011MD1719999+9999OA149900721REMSYN094AAXX  13044 06685 23/// /3301 10047 20041 39601 40226 57/// 333 55300 20000 60015 91114 91209;
0109066850999992011011305004+47033+009067FM-12+051599999V0203001N001519999999N9999999N1+00511+00431102231ADDMA1999999095991REMSYN082AAXX  13054 06685 23/// /3003 10051 20043 39599 40223 5//// 333 553// 20000 69995;
0230066850999992011011306004+47033+009067FM-12+051599999V0203001N001019999999N9999999N1+00491+00411102311ADDAA112015091AL11201791GJ100009IA2999+00309KA1999N+00331MA1999999096061MD1310041+9999OA149900721REMSYN124AAXX  13064 06685 03/// /3002 10049 20041 39606 40231 53004 60152 333 20033 3/003 55000 55300 20000 60015 70172 91114 91209;
0087066850999992011011307004+47033+009067FM-12+051599999V0201901N000519999999N9999999N1+00531+00451102271ADDMA1999999096031REMSYN060AAXX  13074 06685 43/// /1901 10053 20045 39603 40227 5////;
0087066850999992011011308004+47033+009067FM-12+051599999V0209999C000019999999N9999999N1+00581+00501102261ADDMA1999999096031REMSYN060AAXX  13084 06685 43/// /0000 10058 20050 39603 40226 5////;
0087066850999992011011309004+47033+009067FM-12+051599999V0201801N001519999999N9999999N1+00731+00601102251ADDMA1999999096051REMSYN060AAXX  13094 06685 43/// /1803 10073 20060 39605 40225 5////;
0087066850999992011011310004+47033+009067FM-12+051599999V0202901N000519999999N9999999N1+00721+00611102271ADDMA1999999096071REMSYN060AAXX  13104 06685 43/// /2901 10072 20061 39607 40227 5////;
0087066850999992011011311004+47033+009067FM-12+051599999V0200601N001519999999N9999999N1+00641+00551102311ADDMA1999999096091REMSYN060AAXX  13114 06685 43/// /0603 10064 20055 39609 40231 5////;
0087066850999992011011312004+47033+009067FM-12+051599999V0201401N001519999999N9999999N1+00791+00691102191ADDMA1999999096011REMSYN060AAXX  13124 06685 43/// /1403 10079 20069 39601 40219 5////;
0087066850999992011011313004+47033+009067FM-12+051599999V0209999C000019999999N9999999N1+00831+00721102131ADDMA1999999095961REMSYN060AAXX  13134 06685 43/// /0000 10083 20072 39596 40213 5////;
0087066850999992011011314004+47033+009067FM-12+051599999V0200801N000519999999N9999999N1+00901+00761102121ADDMA1999999095971REMSYN060AAXX  13144 06685 43/// /0801 10090 20076 39597 40212 5////;
0087066850999992011011315004+47033+009067FM-12+051599999V0203001N000519999999N9999999N1+00891+00751102141ADDMA1999999095991REMSYN060AAXX  13154 06685 43/// /3001 10089 20075 39599 40214 5////;
0087066850999992011011316004+47033+009067FM-12+051599999V0202801N000519999999N9999999N1+00841+00701102181ADDMA1999999096011REMSYN060AAXX  13164 06685 43/// /2801 10084 20070 39601 40218 5////;
0140066850999992011011317004+47033+009067FM-12+051599999V0200901N000519999999N9999999N1+00741+00641102191ADDMA1999999096001MD1010031+9999OA149900311REMSYN088AAXX  13174 06685 33/// /0901 10074 20064 39600 40219 50003 333 55300 20000 91106 91202;
0201066850999992011011318004+47033+009067FM-12+051599999V0201701N001019999999N9999999N1+00861+00661102161ADDAA112003091KA1120M+00911MA1999999096001MD1810021+9999OA149901131REMSYN106AAXX  13184 06685 03/// /1702 10086 20066 39600 40216 58000 60032 333 10091 55300 20000 60005 91122 91213;EQDQ01+000002APC3  
0146066850999992011011319004+47033+009067FM-12+051599999V0202801N001019999999N9999999N1+00791+00621102221ADDMA1999999096041MD1310031+9999OA149900361REMSYN094AAXX  13194 06685 23/// /2802 10079 20062 39604 40222 53003 333 55300 20000 69915 91107 91203;
0146066850999992011011320004+47033+009067FM-12+051599999V0202601N000519999999N9999999N1+00711+00631102291ADDMA1999999096091MD1210091+9999OA149900211REMSYN094AAXX  13204 06685 23/// /2601 10071 20063 39609 40229 52009 333 55300 20000 69935 91104 91202;
0146066850999992011011321004+47033+009067FM-12+051599999V0209999C000019999999N9999999N1+00701+00621102271ADDMA1999999096071MD1210071+9999OA149900361REMSYN094AAXX  13214 06685 23/// /0000 10070 20062 39607 40227 52007 333 55300 20000 69925 91107 91203;
0146066850999992011011322004+47033+009067FM-12+051599999V0209999C000019999999N9999999N1+00791+00661102251ADDMA1999999096071MD1010031+9999OA149900211REMSYN094AAXX  13224 06685 23/// /0000 10079 20066 39607 40225 50003 333 55300 20000 69915 91104 91202;
0146066850999992011011323004+47033+009067FM-12+051599999V0202301N000519999999N9999999N1+00791+00671102271ADDMA1999999096091MD1510001+9999OA149900211REMSYN094AAXX  13234 06685 23/// /2301 10079 20067 39609 40227 55000 333 55300 20000 69915 91104 91202;
0163066850999992011011400004+47033+009067FM-12+051599999V0201101N000519999999N9999999N1+00691+00611102281ADDAA106001091MA1999999096071MD1510001+9999OA149900361REMSYN100AAXX  14004 06685 03/// /1101 10069 20061 39607 40228 55000 69991 333 55300 20000 69915 91107 91204;
0140066850999992011011401004+47033+009067FM-12+051599999V0203001N000519999999N9999999N1+00681+00591102321ADDMA1999999096111MD1210041+9999OA149900261REMSYN088AAXX  14014 06685 33/// /3001 10068 20059 39611 40232 52004 333 55300 20000 91105 91203;
0103066850999992011011402004+47033+009067FM-12+051599999V0201901N001019999999N9999999N1+00761+00651102331ADDMA1999999096141REMSYN076AAXX  14024 06685 33/// /1902 10076 20065 39614 40233 5//// 333 553// 20000;
0146066850999992011011403004+47033+009067FM-12+051599999V0202801N001519999999N9999999N1+00671+00561102341ADDMA1999999096131MD1210061+9999OA149900261REMSYN094AAXX  14034 06685 23/// /2803 10067 20056 39613 40234 52006 333 55300 20000 69915 91105 91203;
0146066850999992011011404004+47033+009067FM-12+051599999V0203001N001519999999N9999999N1+00651+00561102351ADDMA1999999096131MD1010021+9999OA149900361REMSYN094AAXX  14044 06685 23/// /3003 10065 20056 39613 40235 50002 333 55300 20000 69915 91107 91203;
0140066850999992011011405004+47033+009067FM-12+051599999V0202401N001019999999N9999999N1+00731+00621102311ADDMA1999999096111MD1710031+9999OA149900361REMSYN088AAXX  14054 06685 33/// /2402 10073 20062 39611 40231 57003 333 55300 20000 91107 91203;
0230066850999992011011406004+47033+009067FM-12+051599999V0203201N001019999999N9999999N1+00661+00591102331ADDAA112001091AL13000491GJ100009IA2999+00509KA1999N+00651MA1999999096111MD1510021+9999OA149900361REMSYN124AAXX  14064 06685 03/// /3202 10066 20059 39611 40233 55002 60012 333 20065 3/005 55000 55300 20000 60005 70045 91107 91203;
0140066850999992011011407004+47033+009067FM-12+051599999V0202401N000519999999N9999999N1+00691+00581102351ADDMA1999999096141MD1310011+9999OA149900211REMSYN088AAXX  14074 06685 33/// /2401 10069 20058 39614 40235 53001 333 55300 20000 91104 91203;
0087066850999992011011408004+47033+009067FM-12+051599999V0209999C000019999999N9999999N1+00661+00581102361ADDMA1999999096141REMSYN060AAXX  14084 06685 43/// /0000 10066 20058 39614 40236 5////;
0087066850999992011011409004+47033+009067FM-12+051599999V0202301N001019999999N9999999N1+00761+00631102301ADDMA1999999096111REMSYN060AAXX  14094 06685 43/// /2302 10076 20063 39611 40230 5////;
0087066850999992011011410004+47033+009067FM-12+051599999V0209999C000019999999N9999999N1+00791+00661102261ADDMA1999999096081REMSYN060AAXX  14104 06685 43/// /0000 10079 20066 39608 40226 5////;
0140066850999992011011411004+47033+009067FM-12+051599999V0203001N001019999999N9999999N1+00821+00651102251ADDMA1999999096071MD1710071+9999OA149900211REMSYN088AAXX  14114 06685 33/// /3002 10082 20065 39607 40225 57007 333 55300 20349 91104 91202;
0140066850999992011011412004+47033+009067FM-12+051599999V0201201N001019999999N9999999N1+00891+00731102191ADDMA1999999096031MD1710081+9999OA149900361REMSYN088AAXX  14124 06685 33/// /1202 10089 20073 39603 40219 57008 333 55300 20378 91107 91203;
0140066850999992011011413004+47033+009067FM-12+051599999V0209999C000019999999N9999999N1+00911+00731102111ADDMA1999999095961MD1710121+9999OA149900151REMSYN088AAXX  14134 06685 33/// /0000 10091 20073 39596 40211 57012 333 55300 20263 91103 91203;
0103066850999992011011414004+47033+009067FM-12+051599999V0202901N000519999999N9999999N1+00891+00681102111ADDMA1999999095961REMSYN076AAXX  14144 06685 33/// /2901 10089 20068 39596 40211 5//// 333 553// 20184;
0140066850999992011011415004+47033+009067FM-12+051599999V0202701N000519999999N9999999N1+00861+00661102151ADDMA1999999095991MD1510041+9999OA149900261REMSYN088AAXX  14154 06685 33/// /2701 10086 20066 39599 40215 55004 333 55300 20068 91105 91204;
0140066850999992011011416004+47033+009067FM-12+051599999V0201901N000519999999N9999999N1+00861+00621102151ADDMA1999999095991MD1210031+9999OA149900211REMSYN088AAXX  14164 06685 33/// /1901 10086 20062 39599 40215 52003 333 55300 20014 91104 91202;
0140066850999992011011417004+47033+009067FM-12+051599999V0201601N002619999999N9999999N1+00901+00471102091ADDMA1999999095941MD1810021+9999OA149900621REMSYN088AAXX  14174 06685 33/// /1605 10090 20047 39594 40209 58002 333 55300 20000 91112 91208;
0159066850999992011011418004+47033+009067FM-12+051599999V0202501N000519999999N9999999N1+00711+00421102081ADDKA1120M+00921MA1999999095891MD1710101+9999OA149900621REMSYN094AAXX  14184 06685 33/// /2501 10071 20042 39589 40208 57010 333 10092 55300 20000 91112 91208;
0140066850999992011011419004+47033+009067FM-12+051599999V0203501N000519999999N9999999N1+00631+00411102091ADDMA1999999095881MD1610111+9999OA149900411REMSYN088AAXX  14194 06685 33/// /3501 10063 20041 39588 40209 56011 333 55300 20000 91108 91205;
0140066850999992011011420004+47033+009067FM-12+051599999V0209999C000019999999N9999999N1+00521+00361102091ADDMA1999999095861MD1610081+9999OA149900151REMSYN088AAXX  14204 06685 33/// /0000 10052 20036 39586 40209 56008 333 55300 20000 91103 91202;
0140066850999992011011421004+47033+009067FM-12+051599999V0203201N001019999999N9999999N1+00401+00271102191ADDMA1999999095921MD1310031+9999OA149900621REMSYN088AAXX  14214 06685 33/// /3202 10040 20027 39592 40219 53003 333 55300 20000 91112 91208;
0140066850999992011011422004+47033+009067FM-12+051599999V0202601N000519999999N9999999N1+00461+00311102271ADDMA1999999096011MD1210131+9999OA149900261REMSYN088AAXX  14224 06685 33/// /2601 10046 20031 39601 40227 52013 333 55300 20000 91105 91203;
0140066850999992011011423004+47033+009067FM-12+051599999V0201601N001019999999N9999999N1+00471+00331102351ADDMA1999999096091MD1310231+9999OA149900311REMSYN088AAXX  14234 06685 33/// /1602 10047 20033 39609 40235 53023 333 55300 20000 91106 91203;
0140066850999992011011500004+47033+009067FM-12+051599999V0202101N000519999999N9999999N1+00431+00301102421ADDMA1999999096151MD1210231+9999OA149900621REMSYN088AAXX  15004 06685 33/// /2101 10043 20030 39615 40242 52023 333 55300 20000 91112 91208;
0140066850999992011011501004+47033+009067FM-12+051599999V0202901N002119999999N9999999N1+00471+00291102451ADDMA1999999096181MD1210171+9999OA149900721REMSYN088AAXX  15014 06685 33/// /2904 10047 20029 39618 40245 52017 333 55300 20000 91114 91205;
0146066850999992011011502004+47033+009067FM-12+051599999V0203301N002619999999N9999999N1+00601+00361102511ADDMA1999999096271MD1219999+9999OA149900721REMSYN094AAXX  15024 06685 23/// /3305 10060 20036 39627 40251 52/// 333 55300 20000 69945 91114 91205;
0109066850999992011011503004+47033+009067FM-12+051599999V0201301N002619999999N9999999N1+00591+00481102611ADDMA1999999096361REMSYN082AAXX  15034 06685 23/// /1305 10059 20048 39636 40261 5//// 333 553// 20000 60035;
0146066850999992011011504004+47033+009067FM-12+051599999V0200801N000519999999N9999999N1+00571+00481102661ADDMA1999999096401MD1210221+9999OA149900981REMSYN094AAXX  15044 06685 23/// /0801 10057 20048 39640 40266 52022 333 55300 20000 60015 91119 91214;
0146066850999992011011505004+47033+009067FM-12+051599999V0209999C000519999999N9999999N1+00571+00471102761ADDMA1999999096501MD1210231+9999OA149900361REMSYN094AAXX  15054 06685 23/// /0001 10057 20047 39650 40276 52023 333 55300 20000 69975 91107 91203;
0230066850999992011011506004+47033+009067FM-12+051599999V0200901N001519999999N9999999N1+00561+00461102901ADDAA112005191AL19900591GJ100009IA2999+00209KA1999N+00401MA1999999096631MD1310271+9999OA149900981REMSYN124AAXX  15064 06685 03/// /0903 10056 20046 39663 40290 53027 60052 333 20040 3/002 55000 55300 20000 69945 70050 91119 91214;
0146066850999992011011507004+47033+009067FM-12+051599999V0201601N000519999999N9999999N1+00571+00471102981ADDMA1999999096701MD1210301+9999OA149900411REMSYN094AAXX  15074 06685 23/// /1601 10057 20047 39670 40298 52030 333 55300 20000 69975 91108 91203;
0146066850999992011011508004+47033+009067FM-12+051599999V0202001N000519999999N9999999N1+00541+00451103001ADDMA1999999096721MD1219999+9999OA149900261REMSYN094AAXX  15084 06685 23/// /2001 10054 20045 39672 40300 52/// 333 55300 20061 69915 91105 91203;
0140066850999992011011509004+47033+009067FM-12+051599999V0201901N001019999999N9999999N1+00561+00421103021ADDMA1999999096741MD1210111+9999OA149900411REMSYN088AAXX  15094 06685 33/// /1902 10056 20042 39674 40302 52011 333 55300 20144 91108 91203;
0140066850999992011011510004+47033+009067FM-12+051599999V0201201N000519999999N9999999N1+00661+00471103011ADDMA1999999096751MD1210051+9999OA149900311REMSYN088AAXX  15104 06685 33/// /1201 10066 20047 39675 40301 52005 333 55307 20835 91106 91202;
0140066850999992011011511004+47033+009067FM-12+051599999V0201301N000519999999N9999999N1+00791+00531102901ADDMA1999999096681MD1810041+9999OA149900151REMSYN088AAXX  15114 06685 33/// /1301 10079 20053 39668 40290 58004 333 553// 2//// 91103 91202;
0163066850999992011011512004+47033+009067FM-12+051599999V0202901N001019999999N9999999N1+00791+00511102881ADDAA106000891MA1999999096661MD1710081+9999OA149900981REMSYN100AAXX  15124 06685 03/// /2902 10079 20051 39666 40288 57008 69981 333 55307 2//// 60005 91119 91214;
0103066850999992011011513004+47033+009067FM-12+051599999V0201901N000519999999N9999999N1+00891+00411102831ADDMA1999999096631REMSYN076AAXX  15134 06685 33/// /1901 10089 20041 39663 40283 5//// 333 553// 20583;
0087066850999992011011514004+47033+009067FM-12+051599999V0202901N001519999999N9999999N1+00801+00461102901ADDMA1999999096681REMSYN060AAXX  15144 06685 43/// /2903 10080 20046 39668 40290 5////;
0087066850999992011011515004+47033+009067FM-12+051599999V0203201N000519999999N9999999N1+00751+00461102891ADDMA1999999096661REMSYN060AAXX  15154 06685 43/// /3201 10075 20046 39666 40289 5////;
0087066850999992011011516004+47033+009067FM-12+051599999V0201401N001019999999N9999999N1+00671+00391102981ADDMA1999999096731REMSYN060AAXX  15164 06685 43/// /1402 10067 20039 39673 40298 5////;
0103066850999992011011517004+47033+009067FM-12+051599999V0202201N000519999999N9999999N1+00561+00311103051ADDMA1999999096771REMSYN076AAXX  15174 06685 33/// /2201 10056 20031 39677 40305 5//// 333 553// 20004;
0110066850999992011011518004+47033+009067FM-12+051599999V0202601N000519999999N9999999N1+00551+00251103071ADDKA1999M+00891MA1999999096781REMSYN070AAXX  15184 06685 43/// /2601 10055 20025 39678 40307 5//// 333 10089;
0087066850999992011011519004+47033+009067FM-12+051599999V0203301N000519999999N9999999N1+00491+00231103111ADDMA1999999096811REMSYN060AAXX  15194 06685 43/// /3301 10049 20023 39681 40311 5////;
0087066850999992011011520004+47033+009067FM-12+051599999V0202801N001519999999N9999999N1+00371+00151103161ADDMA1999999096831REMSYN060AAXX  15204 06685 43/// /2803 10037 20015 39683 40316 5////;
0140066850999992011011521004+47033+009067FM-12+051599999V0202601N000519999999N9999999N1+00461+00141103101ADDMA1999999096791MD1810011+9999OA149900211REMSYN088AAXX  15214 06685 33/// /2601 10046 20014 39679 40310 58001 333 55300 20000 91104 91203;
0140066850999992011011522004+47033+009067FM-12+051599999V0209999C000019999999N9999999N1+00321+00101103151ADDMA1999999096811MD1510001+9999OA149900211REMSYN088AAXX  15224 06685 33/// /0000 10032 20010 39681 40315 55000 333 55300 20000 91104 91202;
0140066850999992011011523004+47033+009067FM-12+051599999V0201001N001019999999N9999999N1+00191+00031103171ADDMA1999999096801MD1510031+9999OA149900151REMSYN088AAXX  15234 06685 33/// /1002 10019 20003 39680 40317 55003 333 55300 20000 91103 91202;
0140066850999992011011600004+47033+009067FM-12+051599999V0209999C000019999999N9999999N1+00221+00011103151ADDMA1999999096781MD1710011+9999OA149900261REMSYN088AAXX  16004 06685 33/// /0000 10022 20001 39678 40315 57001 333 55300 20000 91105 91203;
0140066850999992011011601004+47033+009067FM-12+051599999V0202801N000519999999N9999999N1+00271-00031103081ADDMA1999999096731MD1710081+9999OA149900211REMSYN088AAXX  16014 06685 33/// /2801 10027 21003 39673 40308 57008 333 55300 20000 91104 91202;
0140066850999992011011602004+47033+009067FM-12+051599999V0209999C000019999999N9999999N1+00221-00071103091ADDMA1999999096731MD1719999+9999OA149900211REMSYN088AAXX  16024 06685 33/// /0000 10022 21007 39673 40309 57/// 333 55300 20000 91104 91202;
0087066850999992011011603004+47033+009067FM-12+051599999V0203201N000519999999N9999999N1+00201-00111103071ADDMA1999999096701REMSYN060AAXX  16034 06685 43/// /3201 10020 21011 39670 40307 5////;
0140066850999992011011604004+47033+009067FM-12+051599999V0201601N000519999999N9999999N1+00211-00111103041ADDMA1999999096681MD1710051+9999OA149900101REMSYN088AAXX  16044 06685 33/// /1601 10021 21011 39668 40304 57005 333 55300 20000 91102 91201;
0140066850999992011011605004+47033+009067FM-12+051599999V0200801N000519999999N9999999N1+00121-00181103041ADDMA1999999096661MD1710071+9999OA149900151REMSYN088AAXX  16054 06685 33/// /0801 10012 21018 39666 40304 57007 333 55300 20000 91103 91201;
0207066850999992011011606004+47033+009067FM-12+051599999V0200801N000519999999N9999999N1+00111-00161103061ADDAL19900191GJ101569IA2999-00209KA1999N+00121MA1999999096671MD1510031+9999OA149900211REMSYN112AAXX  16064 06685 33/// /0801 10011 21016 39667 40306 55003 333 20012 3/102 55026 55300 20000 70010 91104 91203;
0140066850999992011011607004+47033+009067FM-12+051599999V0203101N001019999999N9999999N1+00161-00201103041ADDMA1999999096671MD1010011+9999OA149900151REMSYN088AAXX  16074 06685 33/// /3102 10016 21020 39667 40304 50001 333 55300 20000 91103 91202;
0140066850999992011011608004+47033+009067FM-12+051599999V0201601N000519999999N9999999N1+00211-00161103111ADDMA1999999096741MD1319999+9999OA149900151REMSYN088AAXX  16084 06685 33/// /1601 10021 21016 39674 40311 53/// 333 55300 20036 91103 91202;
0140066850999992011011609004+47033+009067FM-12+051599999V0209999C000019999999N9999999N1+00121-00111103171ADDMA1999999096781MD1210111+9999OA149900151REMSYN088AAXX  16094 06685 33/// /0000 10012 21011 39678 40317 52011 333 55304 20310 91103 91202;
0140066850999992011011610004+47033+009067FM-12+051599999V0209999C000019999999N9999999N1+00371+00041103101ADDMA1999999096771MD1010101+9999OA149900101REMSYN088AAXX  16104 06685 33/// /0000 10037 20004 39677 40310 50010 333 553// 20997 91102 91201;
0140066850999992011011611004+47033+009067FM-12+051599999V0202901N000519999999N9999999N1+00591+00091102991ADDMA1999999096721MD1810021+9999OA149900101REMSYN088AAXX  16114 06685 33/// /2901 10059 20009 39672 40299 58002 333 553// 2//// 91102 91202;
0140066850999992011011612004+47033+009067FM-12+051599999V0201501N001019999999N9999999N1+00761-00061102891ADDMA1999999096661MD1810121+9999OA149900211REMSYN088AAXX  16124 06685 33/// /1502 10076 21006 39666 40289 58012 333 553// 2//// 91104 91202;
0140066850999992011011613004+47033+009067FM-12+051599999V0201801N000519999999N9999999N1+00801+00121102841ADDMA1999999096621MD1710151+9999OA149900151REMSYN088AAXX  16134 06685 33/// /1801 10080 20012 39662 40284 57015 333 553// 2//// 91103 91202;
0140066850999992011011614004+47033+009067FM-12+051599999V0209999C000019999999N9999999N1+00741+00031102821ADDMA1999999096591MD1619999+9999OA149900101REMSYN088AAXX  16144 06685 33/// /0000 10074 20003 39659 40282 56/// 333 55302 20299 91102 91201;
0140066850999992011011615004+47033+009067FM-12+051599999V0202901N001019999999N9999999N1+00731+00011102781ADDMA1999999096551MD1610111+9999OA149900151REMSYN088AAXX  16154 06685 33/// /2902 10073 20001 39655 40278 56011 333 55300 20094 91103 91202;
0140066850999992011011616004+47033+009067FM-12+051599999V0209999C000019999999N9999999N1+00651-00011102801ADDMA1999999096551MD1710071+9999OA149900151REMSYN088AAXX  16164 06685 33/// /0000 10065 21001 39655 40280 57007 333 55300 20040 91103 91202;
0140066850999992011011617004+47033+009067FM-12+051599999V0203101N000519999999N9999999N1+00531-00031102851ADDMA1999999096571MD1510021+9999OA149900151REMSYN088AAXX  16174 06685 33/// /3101 10053 21003 39657 40285 55002 333 55300 20000 91103 91202;
0159066850999992011011618004+47033+009067FM-12+051599999V0202801N001019999999N9999999N1+00471+00011102931ADDKA1120M+00831MA1999999096631MD1210081+9999OA149900151REMSYN094AAXX  16184 06685 33/// /2802 10047 20001 39663 40293 52008 333 10083 55300 20000 91103 91202;
0140066850999992011011619004+47033+009067FM-12+051599999V0202701N000519999999N9999999N1+00331+00031102951ADDMA1999999096621MD1210071+9999OA149900211REMSYN088AAXX  16194 06685 33/// /2701 10033 20003 39662 40295 52007 333 55300 20000 91104 91202;
0140066850999992011011620004+47033+009067FM-12+051599999V0200301N000519999999N9999999N1+00411+00061102921ADDMA1999999096611MD1010041+9999OA149900211REMSYN088AAXX  16204 06685 33/// /0301 10041 20006 39661 40292 50004 333 55300 20000 91104 91202;
0140066850999992011011621004+47033+009067FM-12+051599999V0202901N000519999999N9999999N1+00381+00041102961ADDMA1999999096641MD1510011+9999OA149900211REMSYN088AAXX  16214 06685 33/// /2901 10038 20004 39664 40296 55001 333 55300 20000 91104 91202;
0140066850999992011011622004+47033+009067FM-12+051599999V0203501N000519999999N9999999N1+00271+00041102981ADDMA1999999096641MD1210021+9999OA149900211REMSYN088AAXX  16224 06685 33/// /3501 10027 20004 39664 40298 52002 333 55300 20000 91104 91202;
0140066850999992011011623004+47033+009067FM-12+051599999V0209999C000019999999N9999999N1+00391+00041102951ADDMA1999999096641MD1210031+9999OA149900211REMSYN088AAXX  16234 06685 33/// /0000 10039 20004 39664 40295 52003 333 55300 20000 91104 91202;
0140066850999992011011700004+47033+009067FM-12+051599999V0209999C000019999999N9999999N1+00271+00031102991ADDMA1999999096651MD1310011+9999OA149900211REMSYN088AAXX  17004 06685 33/// /0000 10027 20003 39665 40299 53001 333 55300 20000 91104 91202;
0140066850999992011011701004+47033+009067FM-12+051599999V0201001N000519999999N9999999N1+00211-00011103011ADDMA1999999096651MD1210011+9999OA149900151REMSYN088AAXX  17014 06685 33/// /1001 10021 21001 39665 40301 52001 333 55300 20000 91103 91202;
0140066850999992011011702004+47033+009067FM-12+051599999V0203001N000519999999N9999999N1+00301-00031102971ADDMA1999999096631MD1819999+9999OA149900151REMSYN088AAXX  17024 06685 33/// /3001 10030 21003 39663 40297 58/// 333 55300 20000 91103 91202;
0103066850999992011011703004+47033+009067FM-12+051599999V0200101N000519999999N9999999N1+00341-00061102941ADDMA1999999096611REMSYN076AAXX  17034 06685 33/// /0101 10034 21006 39661 40294 5//// 333 553// 20000;
0140066850999992011011704004+47033+009067FM-12+051599999V0202901N000519999999N9999999N1+00371-00091102911ADDMA1999999096591MD1710061+9999OA149900151REMSYN088AAXX  17044 06685 33/// /2901 10037 21009 39659 40291 57006 333 55300 20000 91103 91201;
0140066850999992011011705004+47033+009067FM-12+051599999V0203101N000519999999N9999999N1+00231-00081102901ADDMA1999999096551MD1710081+9999OA149900151REMSYN088AAXX  17054 06685 33/// /3101 10023 21008 39655 40290 57008 333 55300 20000 91103 91201;
0207066850999992011011706004+47033+009067FM-12+051599999V0202401N000519999999N9999999N1+00261-00091102881ADDAL19900091GJ102769IA2999-00109KA1999N+00171MA1999999096541MD1710071+9999OA149900211REMSYN112AAXX  17064 06685 33/// /2401 10026 21009 39654 40288 57007 333 20017 3/101 55046 55300 20000 70000 91104 91202;
0140066850999992011011707004+47033+009067FM-12+051599999V0201401N001019999999N9999999N1+00201-00121102891ADDMA1999999096541MD1710051+9999OA149900151REMSYN088AAXX  17074 06685 33/// /1402 10020 21012 39654 40289 57005 333 55300 20000 91103 91202;
0087066850999992011011708004+47033+009067FM-12+051599999V0201001N000519999999N9999999N1+00141-00131102891ADDMA1999999096521REMSYN060AAXX  17084 06685 43/// /1001 10014 21013 39652 40289 5////;
0087066850999992011011709004+47033+009067FM-12+051599999V0209999C000019999999N9999999N1+00151-00111102851ADDMA1999999096491REMSYN060AAXX  17094 06685 43/// /0000 10015 21011 39649 40285 5////;
0140066850999992011011710004+47033+009067FM-12+051599999V0201901N000519999999N9999999N1+00461+00091102751ADDMA1999999096461MD1810081+9999OA149900151REMSYN088AAXX  17104 06685 33/// /1901 10046 20009 39646 40275 58008 333 553// 2//// 91103 91202;
0140066850999992011011711004+47033+009067FM-12+051599999V0203401N002119999999N9999999N1+00491+00061102731ADDMA1999999096451MD1710071+9999OA149900361REMSYN088AAXX  17114 06685 33/// /3404 10049 20006 39645 40273 57007 333 553// 2//// 91107 91204;
0175066850999992011011712004+47033+009067FM-12+051599999V0203301N002119999999N9999999N1+00661+00041102731ADDMA1999999096491MD1710121+9999OA149900671REMSYN088AAXX  17124 06685 33/// /3304 10066 20004 39649 40273 53000 333 553// 2//// 91113 91207;EQDQ01+000032APCTENQ02+000002APC3  
0140066850999992011011713004+47033+009067FM-12+051599999V0201701N001019999999N9999999N1+00751+00041102731ADDMA1999999096511MD1210051+9999OA149900671REMSYN088AAXX  17134 06685 33/// /1702 10075 20004 39651 40273 52005 333 553// 2//// 91113 91207;
0087066850999992011011714004+47033+009067FM-12+051599999V0202801N001519999999N9999999N1+00641-00011102751ADDMA1999999096501REMSYN060AAXX  17144 06685 43/// /2803 10064 21001 39650 40275 5////;
0087066850999992011011715004+47033+009067FM-12+051599999V0202901N001019999999N9999999N1+00581-00061102771ADDMA1999999096511REMSYN060AAXX  17154 06685 43/// /2902 10058 21006 39651 40277 5////;
0140066850999992011011716004+47033+009067FM-12+051599999V0209999C000019999999N9999999N1+00561-00061102811ADDMA1999999096541MD1310031+9999OA149900211REMSYN088AAXX  17164 06685 33/// /0000 10056 21006 39654 40281 53003 333 55300 20043 91104 91203;
0140066850999992011011717004+47033+009067FM-12+051599999V0201701N000519999999N9999999N1+00471-00051102871ADDMA1999999096581MD1210081+9999OA149900151REMSYN088AAXX  17174 06685 33/// /1701 10047 21005 39658 40287 52008 333 55300 20000 91103 91203;
0159066850999992011011718004+47033+009067FM-12+051599999V0203001N000519999999N9999999N1+00291-00071102991ADDKA1120M+00771MA1999999096651MD1310141+9999OA149900671REMSYN094AAXX  17184 06685 33/// /3001 10029 21007 39665 40299 53014 333 10077 55300 20000 91113 91207;
0140066850999992011011719004+47033+009067FM-12+051599999V0202801N000519999999N9999999N1+00331-00111102991ADDMA1999999096661MD1210121+9999OA149900151REMSYN088AAXX  17194 06685 33/// /2801 10033 21011 39666 40299 52012 333 55300 20000 91103 91202;
0140066850999992011011720004+47033+009067FM-12+051599999V0202901N001019999999N9999999N1+00371-00071102991ADDMA1999999096671MD1210091+9999OA149900211REMSYN088AAXX  17204 06685 33/// /2902 10037 21007 39667 40299 52009 333 55300 20000 91104 91203;
0140066850999992011011721004+47033+009067FM-12+051599999V0209999C000019999999N9999999N1+00271-00091102991ADDMA1999999096651MD1010001+9999OA149900211REMSYN088AAXX  17214 06685 33/// /0000 10027 21009 39665 40299 50000 333 55300 20000 91104 91203;
0140066850999992011011722004+47033+009067FM-12+051599999V0203101N000519999999N9999999N1+00241-00151103011ADDMA1999999096661MD1010001+9999OA149900211REMSYN088AAXX  17224 06685 33/// /3101 10024 21015 39666 40301 50000 333 55300 20000 91104 91202;
0140066850999992011011723004+47033+009067FM-12+051599999V0202601N000519999999N9999999N1+00161-00141103041ADDMA1999999096671MD1210051+9999OA149900211REMSYN088AAXX  17234 06685 33/// /2601 10016 21014 39667 40304 52000 333 55300 20000 91104 91203;
0140066850999992011011800004+47033+009067FM-12+051599999V0203301N000519999999N9999999N1+00101-00171103051ADDMA1999999096661MD1010011+9999OA149900361REMSYN088AAXX  18004 06685 33/// /3301 10010 21017 39666 40305 50001 333 55300 20000 91107 91205;
0140066850999992011011801004+47033+009067FM-12+051599999V0202901N000519999999N9999999N1-00031-00221103071ADDMA1999999096651MD1719999+9999OA149900211REMSYN088AAXX  18014 06685 33/// /2901 11003 21022 39665 40307 57/// 333 55300 20000 91104 91203;
0087066850999992011011802004+47033+009067FM-12+051599999V0201601N001019999999N9999999N1+00141-00171103051ADDMA1999999096671REMSYN060AAXX  18024 06685 43/// /1602 10014 21017 39667 40305 5////;
0087066850999992011011803004+47033+009067FM-12+051599999V0201901N000519999999N9999999N1+00191-00211103041ADDMA1999999096671REMSYN060AAXX  18034 06685 43/// /1901 10019 21021 39667 40304 5////;
0103066850999992011011804004+47033+009067FM-12+051599999V0209999C000019999999N9999999N1+00171-00211102981ADDMA1999999096611REMSYN076AAXX  18044 06685 33/// /0000 10017 21021 39661 40298 5//// 333 553// 20000;
0140066850999992011011805004+47033+009067FM-12+051599999V0202401N000519999999N9999999N1+00191-00211102921ADDMA1999999096561MD1810111+9999OA149900151REMSYN088AAXX  18054 06685 33/// /2401 10019 21021 39656 40292 58011 333 55300 20000 91103 91202;
0207066850999992011011806004+47033+009067FM-12+051599999V0202801N001019999999N9999999N1+00161-00231102901ADDAL19900091GJ102769IA2999-00209KA1999N-00041MA1999999096541MD1710131+9999OA149900211REMSYN112AAXX  18064 06685 33/// /2802 10016 21023 39654 40290 57013 333 21004 3/102 55046 55300 20000 70000 91104 91203;
0140066850999992011011807004+47033+009067FM-12+051599999V0201501N001019999999N9999999N1-00021-00251102991ADDMA1999999096581MD1510031+9999OA149900151REMSYN088AAXX  18074 06685 33/// /1502 11002 21025 39658 40299 55003 333 55300 20000 91103 91202;
0087066850999992011011808004+47033+009067FM-12+051599999V0201101N000519999999N9999999N1-00021-00221103071ADDMA1999999096651REMSYN060AAXX  18084 06685 43/// /1101 11002 21022 39665 40307 5////;
0087066850999992011011809004+47033+009067FM-12+051599999V0209999C000019999999N9999999N1+00181-00141103031ADDMA1999999096661REMSYN060AAXX  18094 06685 43/// /0000 10018 21014 39666 40303 5////;
0140066850999992011011810004+47033+009067FM-12+051599999V0209999C000019999999N9999999N1+00421-00011102861ADDMA1999999096561MD1810021+9999OA149900151REMSYN088AAXX  18104 06685 33/// /0000 10042 21001 39656 40286 58002 333 553// 20914 91103 91202;
0140066850999992011011811004+47033+009067FM-12+051599999V0203201N001019999999N9999999N1+00651-00021102741ADDMA1999999096501MD1710151+9999OA149900211REMSYN088AAXX  18114 06685 33/// /3202 10065 21002 39650 40274 57015 333 553// 2//// 91104 91202;
0140066850999992011011812004+47033+009067FM-12+051599999V0202801N001519999999N9999999N1+00681+00021102631ADDMA1999999096401MD1719999+9999OA149900261REMSYN088AAXX  18124 06685 33/// /2803 10068 20002 39640 40263 57/// 333 55309 2//// 91105 91203;
0103066850999992011011813004+47033+009067FM-12+051599999V0202901N000519999999N9999999N1+00681+00001102601ADDMA1999999096371REMSYN076AAXX  18134 06685 33/// /2901 10068 20000 39637 40260 5//// 333 553// 20940;
0087066850999992011011814004+47033+009067FM-12+051599999V0201701N002119999999N9999999N1+00761+00081102581ADDMA1999999096371REMSYN060AAXX  18144 06685 43/// /1704 10076 20008 39637 40258 5////;
0087066850999992011011815004+47033+009067FM-12+051599999V0200801N000519999999N9999999N1+00811+00081102551ADDMA1999999096351REMSYN060AAXX  18154 06685 43/// /0801 10081 20008 39635 40255 5////;
0140066850999992011011816004+47033+009067FM-12+051599999V0201501N000519999999N9999999N1+00641+00161102631ADDMA1999999096391MD1310021+9999OA149900311REMSYN088AAXX  18164 06685 33/// /1501 10064 20016 39639 40263 53002 333 55300 20104 91106 91204;
0140066850999992011011817004+47033+009067FM-12+051599999V0203101N001019999999N9999999N1+00601+00121102691ADDMA1999999096441MD1210071+9999OA149900571REMSYN088AAXX  18174 06685 33/// /3102 10060 20012 39644 40269 52007 333 55300 20000 91111 91207;
0159066850999992011011818004+47033+009067FM-12+051599999V0202001N000519999999N9999999N1+00591+00171102721ADDKA1120M+00831MA1999999096461MD1210111+9999OA149900571REMSYN094AAXX  18184 06685 33/// /2001 10059 20017 39646 40272 52011 333 10083 55300 20000 91111 91207;
0140066850999992011011819004+47033+009067FM-12+051599999V0203301N000519999999N9999999N1+00471+00191102741ADDMA1999999096461MD1210071+9999OA149900211REMSYN088AAXX  18194 06685 33/// /3301 10047 20019 39646 40274 52007 333 55300 20000 91104 91203;
0140066850999992011011820004+47033+009067FM-12+051599999V0202601N000519999999N9999999N1+00491+00171102771ADDMA1999999096491MD1210051+9999OA149900151REMSYN088AAXX  18204 06685 33/// /2601 10049 20017 39649 40277 52005 333 55300 20000 91103 91202;
0140066850999992011011821004+47033+009067FM-12+051599999V0201401N000519999999N9999999N1+00411+00141102781ADDMA1999999096481MD1210021+9999OA149900571REMSYN088AAXX  18214 06685 33/// /1401 10041 20014 39648 40278 52002 333 55300 20000 91111 91207;
0140066850999992011011822004+47033+009067FM-12+051599999V0201001N000519999999N9999999N1+00411+00161102801ADDMA1999999096501MD1210041+9999OA149900151REMSYN088AAXX  18224 06685 33/// /1001 10041 20016 39650 40280 52004 333 55300 20000 91103 91203;
0140066850999992011011823004+47033+009067FM-12+051599999V0202801N001019999999N9999999N1+00451+00141102771ADDMA1999999096481MD1710011+9999OA149900211REMSYN088AAXX  18234 06685 33/// /2802 10045 20014 39648 40277 57001 333 55300 20000 91104 91202;
