0149066890999992011010100004+47367+008950FM-12+114499999V0202501N001519999999N9999999N1-00311-00311999999ADDMA1999999088901MD1810091+9999ME1314889OA149900411REMSYN088AAXX  01004 06689 33/// /2503 11031 21031 38890 48488 58009 333 55300 20000 91108 91206;
0149066890999992011010101004+47367+008950FM-12+114499999V0202601N002119999999N9999999N1-00301-00321999999ADDMA1999999088841MD1710151+9999ME1314839OA149900261REMSYN088AAXX  01014 06689 33/// /2604 11030 21032 38884 48483 57015 333 55300 20000 91105 91204;
0149066890999992011010102004+47367+008950FM-12+114499999V0202301N002619999999N9999999N1-00371-00371999999ADDMA1999999088821MD1710141+9999ME1314809OA149900311REMSYN088AAXX  01024 06689 33/// /2305 11037 21037 38882 48480 57014 333 55300 20000 91106 91205;
0149066890999992011010103004+47367+008950FM-12+114499999V0202301N002619999999N9999999N1-00391-00391999999ADDMA1999999088791MD1710111+9999ME1314779OA149900311REMSYN088AAXX  01034 06689 33/// /2305 11039 21039 38879 48477 57011 333 55300 20000 91106 91205;
0149066890999992011010104004+47367+008950FM-12+114499999V0202501N002119999999N9999999N1-00381-00391999999ADDMA1999999088771MD1610071+9999ME1314769OA149900311REMSYN088AAXX  01044 06689 33/// /2504 11038 21039 38877 48476 56007 333 55300 20000 91106 91205;
0149066890999992011010105004+47367+008950FM-12+114499999V0202601N001519999999N9999999N1-00381-00381999999ADDMA1999999088801MD1510021+9999ME1314789OA149900311REMSYN088AAXX  01054 06689 33/// /2603 11038 21038 38880 48478 55002 333 55300 20000 91106 91205;
0198066890999992011010106004+47367+008950FM-12+114499999V0202501N002619999999N9999999N1-00371-00391999999ADDAL19900091GJ100009KA1999N-00421MA1999999088811MD1210021+9999ME1314799OA149900361REMSYN106AAXX  01064 06689 33/// /2505 11037 21039 38881 48479 52002 333 21042 55000 55300 20000 70000 91107 91205;
0149066890999992011010107004+47367+008950FM-12+114499999V0202401N003119999999N9999999N1-00351-00371999999ADDMA1999999088811MD1210041+9999ME1314799OA149900411REMSYN088AAXX  01074 06689 33/// /2406 11035 21037 38881 48479 52004 333 55300 20000 91108 91207;
0149066890999992011010108004+47367+008950FM-12+114499999V0202501N003619999999N9999999N1-00341-00341999999ADDMA1999999088831MD1219999+9999ME1314819OA149900411REMSYN088AAXX  01084 06689 33/// /2507 11034 21034 38883 48481 52/// 333 55300 20029 91108 91207;
0096066890999992011010109004+47367+008950FM-12+114499999V0202501N003119999999N9999999N1-00311-00321999999ADDMA1999999088831ME1314829REMSYN060AAXX  01094 06689 43/// /2506 11031 21032 38883 48482 5////;
0096066890999992011010110004+47367+008950FM-12+114499999V0202701N002619999999N9999999N1-00291-00341999999ADDMA1999999088831ME1314829REMSYN060AAXX  01104 06689 43/// /2705 11029 21034 38883 48482 5////;
0149066890999992011010111004+47367+008950FM-12+114499999V0202501N002619999999N9999999N1-00321-00351999999ADDMA1999999088791MD1810041+9999ME1314789OA149900411REMSYN088AAXX  01114 06689 33/// /2505 11032 21035 38879 48478 58004 333 55300 20500 91108 91206;
0096066890999992011010112004+47367+008950FM-12+114499999V0202401N002119999999N9999999N1-00281-00331999999ADDMA1999999088731ME1314739REMSYN060AAXX  01124 06689 43/// /2404 11028 21033 38873 48473 5////;
0096066890999992011010113004+47367+008950FM-12+114499999V0202701N001519999999N9999999N1-00301-00311999999ADDMA1999999088691ME1314699REMSYN060AAXX  01134 06689 43/// /2703 11030 21031 38869 48469 5////;
0096066890999992011010114004+47367+008950FM-12+114499999V0202501N002119999999N9999999N1-00301-00341999999ADDMA1999999088661ME1314679REMSYN060AAXX  01144 06689 43/// /2504 11030 21034 38866 48467 5////;
0096066890999992011010115004+47367+008950FM-12+114499999V0202601N001519999999N9999999N1-00361-00381999999ADDMA1999999088681ME1314689REMSYN060AAXX  01154 06689 43/// /2603 11036 21038 38868 48468 5////;
0096066890999992011010116004+47367+008950FM-12+114499999V0203001N001019999999N9999999N1-00391-00391999999ADDMA1999999088701ME1314699REMSYN060AAXX  01164 06689 43/// /3002 11039 21039 38870 48469 5////;
0096066890999992011010117004+47367+008950FM-12+114499999V0203201N000519999999N9999999N1-00401-00401999999ADDMA1999999088731ME1314729REMSYN060AAXX  01174 06689 43/// /3201 11040 21040 38873 48472 5////;
0096066890999992011010118004+47367+008950FM-12+114499999V0202801N001019999999N9999999N1-00371-00381999999ADDMA1999999088701ME1314699REMSYN060AAXX  01184 06689 43/// /2802 11037 21038 38870 48469 5////;
0112066890999992011010119004+47367+008950FM-12+114499999V0203001N000519999999N9999999N1-00391-00391999999ADDMA1999999088701ME1314699REMSYN076AAXX  01194 06689 33/// /3001 11039 21039 38870 48469 5//// 333 553// 20000;
0149066890999992011010120004+47367+008950FM-12+114499999V0203001N000519999999N9999999N1-00391-00391999999ADDMA1999999088711MD1510021+9999ME1314709OA149900151REMSYN088AAXX  01204 06689 33/// /3001 11039 21039 38871 48470 55002 333 55300 20000 91103 91202;
0149066890999992011010121004+47367+008950FM-12+114499999V0202801N000519999999N9999999N1-00411-00411999999ADDMA1999999088701MD1010001+9999ME1314699OA149900261REMSYN088AAXX  01214 06689 33/// /2801 11041 21041 38870 48469 50000 333 55300 20000 91105 91203;
0149066890999992011010122004+47367+008950FM-12+114499999V0203101N000519999999N9999999N1-00421-00421999999ADDMA1999999088651MD1710051+9999ME1314649OA149900151REMSYN088AAXX  01224 06689 33/// /3101 11042 21042 38865 48464 57005 333 55300 20000 91103 91202;
0149066890999992011010123004+47367+008950FM-12+114499999V0209999C000019999999N9999999N1-00421-00421999999ADDMA1999999088631MD1710081+9999ME1314639OA149900151REMSYN088AAXX  01234 06689 33/// /0000 11042 21042 38863 48463 57008 333 55300 20000 91103 91202;
0149066890999992011010200004+47367+008950FM-12+114499999V0209999C000019999999N9999999N1-00461-00461999999ADDMA1999999088601MD1810101+9999ME1314609OA149900261REMSYN088AAXX  02004 06689 33/// /0000 11046 21046 38860 48460 58010 333 55300 20000 91105 91204;
0149066890999992011010201004+47367+008950FM-12+114499999V0209999C000019999999N9999999N1-00481-00481999999ADDMA1999999088561MD1710091+9999ME1314569OA149900101REMSYN088AAXX  02014 06689 33/// /0000 11048 21048 38856 48456 57009 333 55300 20000 91102 91201;
0096066890999992011010202004+47367+008950FM-12+114499999V0203201N000519999999N9999999N1-00471-00471999999ADDMA1999999088581ME1314589REMSYN060AAXX  02024 06689 43/// /3201 11047 21047 38858 48458 5////;
0096066890999992011010203004+47367+008950FM-12+114499999V0203201N000519999999N9999999N1-00441-00441999999ADDMA1999999088601ME1314609REMSYN060AAXX  02034 06689 43/// /3201 11044 21044 38860 48460 5////;
0096066890999992011010204004+47367+008950FM-12+114499999V0209999C000019999999N9999999N1-00451-00451999999ADDMA1999999088601ME1314609REMSYN060AAXX  02044 06689 43/// /0000 11045 21045 38860 48460 5////;
0096066890999992011010205004+47367+008950FM-12+114499999V0203201N001019999999N9999999N1-00481-00491999999ADDMA1999999088621ME1314619REMSYN060AAXX  02054 06689 43/// /3202 11048 21049 38862 48461 5////;
0125066890999992011010206004+47367+008950FM-12+114499999V0209999C000019999999N9999999N1-00451-00481999999ADDKA1999N-00491MA1999999088611ME1314619REMSYN076AAXX  02064 06689 43/// /0000 11045 21048 38861 48461 5//// 333 21049 55003;
0149066890999992011010207004+47367+008950FM-12+114499999V0209999C000019999999N9999999N1-00491-00491999999ADDMA1999999088631MD1210031+9999ME1314629OA149900101REMSYN088AAXX  02074 06689 33/// /0000 11049 21049 38863 48462 52003 333 55300 20000 91102 91201;
0149066890999992011010208004+47367+008950FM-12+114499999V0209999C000019999999N9999999N1-00461-00461999999ADDMA1999999088681MD1210061+9999ME1314679OA149900051REMSYN088AAXX  02084 06689 33/// /0000 11046 21046 38868 48467 52006 333 55300 20011 91101 91200;
0149066890999992011010209004+47367+008950FM-12+114499999V0203501N000519999999N9999999N1-00431-00441999999ADDMA1999999088711MD1310101+9999ME1314709OA149900151REMSYN088AAXX  02094 06689 33/// /3501 11043 21044 38871 48470 53010 333 55300 20137 91103 91202;
0155066890999992011010210004+47367+008950FM-12+114499999V0200101N000519999999N9999999N1-00441-00471999999ADDMA1999999088731MD1110101+9999ME1314719OA149900151REMSYN094AAXX  02104 06689 23/// /0101 11044 21047 38873 48471 51010 333 55300 20230 69915 91103 91201;
0155066890999992011010211004+47367+008950FM-12+114499999V0200201N001019999999N9999999N1-00471-00491999999ADDMA1999999088731MD1210051+9999ME1314719OA149900211REMSYN094AAXX  02114 06689 23/// /0202 11047 21049 38873 48471 52005 333 55300 20162 69935 91104 91202;
0191066890999992011010212004+47367+008950FM-12+114499999V0200401N001519999999N9999999N1-00501-00561999999ADDAA106000591MA1999999088711MD1410001+9999ME1314699OA149900311REMSYN100AAXX  02124 06689 03/// /0403 11050 21056 38871 48469 58000 69951 333 55300 20094 69915 91106 91203;EQDQ01+000082APCTEN
0155066890999992011010213004+47367+008950FM-12+114499999V0200401N001519999999N9999999N1-00501-00561999999ADDMA1999999088711MD1710021+9999ME1314699OA149900311REMSYN094AAXX  02134 06689 23/// /0403 11050 21056 38871 48469 57002 333 55300 20144 69915 91106 91203;
0112066890999992011010214004+47367+008950FM-12+114499999V0200301N001019999999N9999999N1-00581-00631999999ADDMA1999999088731ME1314699REMSYN076AAXX  02144 06689 33/// /0302 11058 21063 38873 48469 5//// 333 553// 20227;
0149066890999992011010215004+47367+008950FM-12+114499999V0200501N001019999999N9999999N1-00551-00611999999ADDMA1999999088771MD1310061+9999ME1314739OA149900311REMSYN088AAXX  02154 06689 33/// /0502 11055 21061 38877 48473 53006 333 55300 20176 91106 91203;
0149066890999992011010216004+47367+008950FM-12+114499999V0200701N001519999999N9999999N1-00601-00661999999ADDMA1999999088791MD1110081+9999ME1314749OA149900211REMSYN088AAXX  02164 06689 33/// /0703 11060 21066 38879 48474 51008 333 55300 20025 91104 91203;
0149066890999992011010217004+47367+008950FM-12+114499999V0200601N001019999999N9999999N1-00611-00681999999ADDMA1999999088831MD1310101+9999ME1314789OA149900211REMSYN088AAXX  02174 06689 33/// /0602 11061 21068 38883 48478 53010 333 55300 20000 91104 91203;
0191066890999992011010218004+47367+008950FM-12+114499999V0200701N001519999999N9999999N1-00631-00691999999ADDAA112000591KA1120M-00411MA1999999088831MD1110061+9999ME1314789OA149900311REMSYN106AAXX  02184 06689 03/// /0703 11063 21069 38883 48478 51006 69962 333 11041 55300 20000 60005 91106 91203;
0149066890999992011010219004+47367+008950FM-12+114499999V0200701N001519999999N9999999N1-00611-00651999999ADDMA1999999088861MD1110071+9999ME1314809OA149900211REMSYN088AAXX  02194 06689 33/// /0703 11061 21065 38886 48480 51007 333 55300 20000 91104 91203;
0149066890999992011010220004+47367+008950FM-12+114499999V0200501N001019999999N9999999N1-00621-00681999999ADDMA1999999088861MD1210031+9999ME1314809OA149900211REMSYN088AAXX  02204 06689 33/// /0502 11062 21068 38886 48480 52003 333 55300 20000 91104 91203;
0149066890999992011010221004+47367+008950FM-12+114499999V0200401N001019999999N9999999N1-00691-00751999999ADDMA1999999088891MD1210061+9999ME1314829OA149900211REMSYN088AAXX  02214 06689 33/// /0402 11069 21075 38889 48482 52006 333 55300 20000 91104 91203;
0149066890999992011010222004+47367+008950FM-12+114499999V0200201N000519999999N9999999N1-00721-00781999999ADDMA1999999088901MD1210041+9999ME1314829OA149900151REMSYN088AAXX  02224 06689 33/// /0201 11072 21078 38890 48482 52004 333 55300 20000 91103 91202;
0149066890999992011010223004+47367+008950FM-12+114499999V0200601N001519999999N9999999N1-00731-00791999999ADDMA1999999088911MD1210051+9999ME1314839OA149900211REMSYN088AAXX  02234 06689 33/// /0603 11073 21079 38891 48483 52005 333 55300 20000 91104 91203;
0149066890999992011010300004+47367+008950FM-12+114499999V0200501N001019999999N9999999N1-00751-00841999999ADDMA1999999088901MD1010011+9999ME1314829OA149900311REMSYN088AAXX  03004 06689 33/// /0502 11075 21084 38890 48482 50001 333 55300 20000 91106 91203;
0149066890999992011010301004+47367+008950FM-12+114499999V0200601N001019999999N9999999N1-00791-00861999999ADDMA1999999088881MD1710021+9999ME1314809OA149900211REMSYN088AAXX  03014 06689 33/// /0602 11079 21086 38888 48480 57002 333 55300 20000 91104 91202;
0149066890999992011010302004+47367+008950FM-12+114499999V0200701N001519999999N9999999N1-00831-00931999999ADDMA1999999088881MD1619999+9999ME1314799OA149900211REMSYN088AAXX  03024 06689 33/// /0703 11083 21093 38888 48479 56/// 333 55300 20000 91104 91203;
0096066890999992011010303004+47367+008950FM-12+114499999V0200801N001519999999N9999999N1-00871-00981999999ADDMA1999999088861ME1314779REMSYN060AAXX  03034 06689 43/// /0803 11087 21098 38886 48477 5////;
0149066890999992011010304004+47367+008950FM-12+114499999V0200601N001019999999N9999999N1-00821-00951999999ADDMA1999999088861MD1710021+9999ME1314789OA149900211REMSYN088AAXX  03044 06689 33/// /0602 11082 21095 38886 48478 57002 333 55300 20000 91104 91203;
0149066890999992011010305004+47367+008950FM-12+114499999V0203601N000519999999N9999999N1-00771-01001999999ADDMA1999999088861MD1710021+9999ME1314789OA149900211REMSYN088AAXX  03054 06689 33/// /3601 11077 21100 38886 48478 57002 333 55300 20000 91104 91203;
0198066890999992011010306004+47367+008950FM-12+114499999V0200301N000519999999N9999999N1-00841-01001999999ADDAL13600091GJ100009KA1999N-00881MA1999999088871MD1210011+9999ME1314789OA149900211REMSYN106AAXX  03064 06689 33/// /0301 11084 21100 38887 48478 52001 333 21088 55000 55300 20000 70006 91104 91203;
0149066890999992011010307004+47367+008950FM-12+114499999V0200701N001019999999N9999999N1-00861-01001999999ADDMA1999999088861MD1010001+9999ME1314779OA149900151REMSYN088AAXX  03074 06689 33/// /0702 11086 21100 38886 48477 50000 333 55300 20000 91103 91202;
0149066890999992011010308004+47367+008950FM-12+114499999V0200801N001519999999N9999999N1-00831-00961999999ADDMA1999999088871MD1019999+9999ME1314789OA149900211REMSYN088AAXX  03084 06689 33/// /0803 11083 21096 38887 48478 50/// 333 55302 20126 91104 91203;
0112066890999992011010309004+47367+008950FM-12+114499999V0200801N001519999999N9999999N1-00791-00921999999ADDMA1999999088861ME1314789REMSYN076AAXX  03094 06689 33/// /0803 11079 21092 38886 48478 5//// 333 553// 20608;
0149066890999992011010310004+47367+008950FM-12+114499999V0200801N001519999999N9999999N1-00751-00871999999ADDMA1999999088861MD1010001+9999ME1314799OA149900211REMSYN088AAXX  03104 06689 33/// /0803 11075 21087 38886 48479 50000 333 553// 2//// 91104 91203;
0149066890999992011010311004+47367+008950FM-12+114499999V0200801N001519999999N9999999N1-00721-00831999999ADDMA1999999088851MD1810021+9999ME1314789OA149900211REMSYN088AAXX  03114 06689 33/// /0803 11072 21083 38885 48478 58002 333 553// 2//// 91104 91203;
0149066890999992011010312004+47367+008950FM-12+114499999V0200801N001519999999N9999999N1-00691-00841999999ADDMA1999999088801MD1710061+9999ME1314749OA149900261REMSYN088AAXX  03124 06689 33/// /0803 11069 21084 38880 48474 57006 333 553// 2//// 91105 91203;
0149066890999992011010313004+47367+008950FM-12+114499999V0200501N001019999999N9999999N1-00801-00881999999ADDMA1999999088761MD1710101+9999ME1314699OA149900261REMSYN088AAXX  03134 06689 33/// /0502 11080 21088 38876 48469 57010 333 55307 2//// 91105 91203;
0112066890999992011010314004+47367+008950FM-12+114499999V0200501N001019999999N9999999N1-00811-00881999999ADDMA1999999088771ME1314709REMSYN076AAXX  03144 06689 33/// /0502 11081 21088 38877 48470 5//// 333 553// 20598;
0112066890999992011010315004+47367+008950FM-12+114499999V0200801N001519999999N9999999N1-00831-00931999999ADDMA1999999088771ME1314709REMSYN076AAXX  03154 06689 33/// /0803 11083 21093 38877 48470 5//// 333 553// 20403;
0149066890999992011010316004+47367+008950FM-12+114499999V0200701N001519999999N9999999N1-00861-00951999999ADDMA1999999088741MD1810021+9999ME1314679OA149900211REMSYN088AAXX  03164 06689 33/// /0703 11086 21095 38874 48467 58002 333 55301 20083 91104 91203;
0149066890999992011010317004+47367+008950FM-12+114499999V0200801N001519999999N9999999N1-00861-00961999999ADDMA1999999088741MD1810031+9999ME1314679OA149900261REMSYN088AAXX  03174 06689 33/// /0803 11086 21096 38874 48467 58003 333 55300 20000 91105 91203;
0168066890999992011010318004+47367+008950FM-12+114499999V0200701N001519999999N9999999N1-00841-00931999999ADDKA1120M-00661MA1999999088721MD1710051+9999ME1314659OA149900261REMSYN094AAXX  03184 06689 33/// /0703 11084 21093 38872 48465 57005 333 11066 55300 20000 91105 91204;
0149066890999992011010319004+47367+008950FM-12+114499999V0200701N001519999999N9999999N1-00821-00911999999ADDMA1999999088691MD1710051+9999ME1314639OA149900261REMSYN088AAXX  03194 06689 33/// /0703 11082 21091 38869 48463 57005 333 55300 20000 91105 91204;
0149066890999992011010320004+47367+008950FM-12+114499999V0200801N001519999999N9999999N1-00841-00931999999ADDMA1999999088661MD1710081+9999ME1314609OA149900261REMSYN088AAXX  03204 06689 33/// /0803 11084 21093 38866 48460 57008 333 55300 20000 91105 91203;
0149066890999992011010321004+47367+008950FM-12+114499999V0200601N001019999999N9999999N1-00891-00981999999ADDMA1999999088631MD1710091+9999ME1314579OA149900261REMSYN088AAXX  03214 06689 33/// /0602 11089 21098 38863 48457 57009 333 55300 20000 91105 91204;
0149066890999992011010322004+47367+008950FM-12+114499999V0200601N001019999999N9999999N1-00911-01001999999ADDMA1999999088631MD1710061+9999ME1314579OA149900211REMSYN088AAXX  03224 06689 33/// /0602 11091 21100 38863 48457 57006 333 55300 20000 91104 91203;
0149066890999992011010323004+47367+008950FM-12+114499999V0200201N000519999999N9999999N1-00941-01021999999ADDMA1999999088631MD1510031+9999ME1314569OA149900151REMSYN088AAXX  03234 06689 33/// /0201 11094 21102 38863 48456 55003 333 55300 20000 91103 91202;
0149066890999992011010400004+47367+008950FM-12+114499999V0203001N000519999999N9999999N1-00931-00931999999ADDMA1999999088611MD1810021+9999ME1314559OA149900261REMSYN088AAXX  04004 06689 33/// /3001 11093 21093 38861 48455 58002 333 55300 20000 91105 91204;
0149066890999992011010401004+47367+008950FM-12+114499999V0202601N001519999999N9999999N1-00891-00961999999ADDMA1999999088581MD1710051+9999ME1314529OA149900151REMSYN088AAXX  04014 06689 33/// /2603 11089 21096 38858 48452 57005 333 55300 20000 91103 91203;
0149066890999992011010402004+47367+008950FM-12+114499999V0202501N001519999999N9999999N1-00891-01031999999ADDMA1999999088571MD1719999+9999ME1314529OA149900211REMSYN088AAXX  04024 06689 33/// /2503 11089 21103 38857 48452 57/// 333 55300 20000 91104 91203;
0149066890999992011010403004+47367+008950FM-12+114499999V0202601N001519999999N9999999N1-00891-00961999999ADDMA1999999088561MD1710051+9999ME1314519OA149900211REMSYN088AAXX  04034 06689 33/// /2603 11089 21096 38856 48451 57005 333 55300 20000 91104 91203;
0149066890999992011010404004+47367+008950FM-12+114499999V0202601N001519999999N9999999N1-00851-00951999999ADDMA1999999088521MD1710061+9999ME1314489OA149900211REMSYN088AAXX  04044 06689 33/// /2603 11085 21095 38852 48448 57006 333 55300 20000 91104 91203;
0149066890999992011010405004+47367+008950FM-12+114499999V0202601N001519999999N9999999N1-00811-00891999999ADDMA1999999088491MD1710081+9999ME1314469OA149900261REMSYN088AAXX  04054 06689 33/// /2603 11081 21089 38849 48446 57008 333 55300 20000 91105 91204;
0198066890999992011010406004+47367+008950FM-12+114499999V0202801N001519999999N9999999N1-00811-00901999999ADDAL19900091GJ103369KA1999N-00971MA1999999088461MD1710101+9999ME1314439OA149900261REMSYN106AAXX  04064 06689 33/// /2803 11081 21090 38846 48443 57010 333 21097 55056 55300 20000 70000 91105 91204;
0149066890999992011010407004+47367+008950FM-12+114499999V0202501N001519999999N9999999N1-00761-00861999999ADDMA1999999088441MD1710081+9999ME1314429OA149900211REMSYN088AAXX  04074 06689 33/// /2503 11076 21086 38844 48442 57008 333 55300 20000 91104 91203;
0149066890999992011010408004+47367+008950FM-12+114499999V0202401N001519999999N9999999N1-00651-00821999999ADDMA1999999088441MD1719999+9999ME1314439OA149900211REMSYN088AAXX  04084 06689 33/// /2403 11065 21082 38844 48443 57/// 333 55300 20004 91104 91203;
0112066890999992011010409004+47367+008950FM-12+114499999V0202701N001019999999N9999999N1-00651-00811999999ADDMA1999999088441ME1314439REMSYN076AAXX  04094 06689 33/// /2702 11065 21081 38844 48443 5//// 333 553// 20047;
0149066890999992011010410004+47367+008950FM-12+114499999V0202301N001519999999N9999999N1-00531-00791999999ADDMA1999999088471MD1210031+9999ME1314479OA149900211REMSYN088AAXX  04104 06689 33/// /2303 11053 21079 38847 48447 52003 333 55300 20158 91104 91203;
0149066890999992011010411004+47367+008950FM-12+114499999V0203001N000519999999N9999999N1-00601-00851999999ADDMA1999999088431MD1810011+9999ME1314439OA149900151REMSYN088AAXX  04114 06689 33/// /3001 11060 21085 38843 48443 58001 333 55300 20310 91103 91203;
0149066890999992011010412004+47367+008950FM-12+114499999V0202601N001019999999N9999999N1-00441-00661999999ADDMA1999999088371MD1810071+9999ME1314399OA149900261REMSYN088AAXX  04124 06689 33/// /2602 11044 21066 38837 48439 58007 333 55305 2//// 91105 91204;
0149066890999992011010413004+47367+008950FM-12+114499999V0203001N000519999999N9999999N1-00511-00621999999ADDMA1999999088361MD1710111+9999ME1314389OA149900151REMSYN088AAXX  04134 06689 33/// /3001 11051 21062 38836 48438 57011 333 55304 2//// 91103 91203;
0112066890999992011010414004+47367+008950FM-12+114499999V0202201N000519999999N9999999N1-00471-00791999999ADDMA1999999088321ME1314359REMSYN076AAXX  04144 06689 33/// /2201 11047 21079 38832 48435 5//// 333 553// 20428;
0096066890999992011010415004+47367+008950FM-12+114499999V0202701N000519999999N9999999N1-00511-00681999999ADDMA1999999088321ME1314349REMSYN060AAXX  04154 06689 43/// /2701 11051 21068 38832 48434 5////;
0149066890999992011010416004+47367+008950FM-12+114499999V0202301N001019999999N9999999N1-00471-00661999999ADDMA1999999088291MD1710071+9999ME1314329OA149900151REMSYN088AAXX  04164 06689 33/// /2302 11047 21066 38829 48432 57007 333 55300 20011 91103 91202;
0149066890999992011010417004+47367+008950FM-12+114499999V0202501N001019999999N9999999N1-00511-00701999999ADDMA1999999088291MD1710031+9999ME1314329OA149900151REMSYN088AAXX  04174 06689 33/// /2502 11051 21070 38829 48432 57003 333 55300 20000 91103 91202;
0168066890999992011010418004+47367+008950FM-12+114499999V0202501N001019999999N9999999N1-00611-00751999999ADDKA1120M-00431MA1999999088291MD1710031+9999ME1314309OA149900211REMSYN094AAXX  04184 06689 33/// /2502 11061 21075 38829 48430 57003 333 11043 55300 20000 91104 91203;
0149066890999992011010419004+47367+008950FM-12+114499999V0202301N001519999999N9999999N1-00631-00921999999ADDMA1999999088311MD1210021+9999ME1314329OA149900151REMSYN088AAXX  04194 06689 33/// /2303 11063 21092 38831 48432 52002 333 55300 20000 91103 91203;
0149066890999992011010420004+47367+008950FM-12+114499999V0202401N001519999999N9999999N1-00591-00961999999ADDMA1999999088281MD1810011+9999ME1314309OA149900211REMSYN088AAXX  04204 06689 33/// /2403 11059 21096 38828 48430 58001 333 55300 20000 91104 91204;
0149066890999992011010421004+47367+008950FM-12+114499999V0202701N001519999999N9999999N1-00561-00871999999ADDMA1999999088271MD1710021+9999ME1314299OA149900211REMSYN088AAXX  04214 06689 33/// /2703 11056 21087 38827 48429 57002 333 55300 20000 91104 91204;
0149066890999992011010422004+47367+008950FM-12+114499999V0202501N001019999999N9999999N1-00671-00821999999ADDMA1999999088271MD1710041+9999ME1314289OA149900211REMSYN088AAXX  04224 06689 33/// /2502 11067 21082 38827 48428 57004 333 55300 20000 91104 91203;
0149066890999992011010423004+47367+008950FM-12+114499999V0202401N001519999999N9999999N1-00671-00881999999ADDMA1999999088271MD1510011+9999ME1314289OA149900211REMSYN088AAXX  04234 06689 33/// /2403 11067 21088 38827 48428 55001 333 55300 20000 91104 91203;
0149066890999992011010500004+47367+008950FM-12+114499999V0202301N002119999999N9999999N1-00731-00841999999ADDMA1999999088231MD1810041+9999ME1314249OA149900261REMSYN088AAXX  05004 06689 33/// /2304 11073 21084 38823 48424 58004 333 55300 20000 91105 91204;
0149066890999992011010501004+47367+008950FM-12+114499999V0202501N003119999999N9999999N1-00581-00831999999ADDMA1999999088211MD1610061+9999ME1314249OA149900361REMSYN088AAXX  05014 06689 33/// /2506 11058 21083 38821 48424 56006 333 55300 20000 91107 91206;
0149066890999992011010502004+47367+008950FM-12+114499999V0202501N003119999999N9999999N1-00541-00781999999ADDMA1999999088221MD1510051+9999ME1314259OA149900361REMSYN088AAXX  05024 06689 33/// /2506 11054 21078 38822 48425 55005 333 55300 20000 91107 91206;
0096066890999992011010503004+47367+008950FM-12+114499999V0202501N002619999999N9999999N1-00531-00791999999ADDMA1999999088221ME1314259REMSYN060AAXX  05034 06689 43/// /2505 11053 21079 38822 48425 5////;
0149066890999992011010504004+47367+008950FM-12+114499999V0202501N002619999999N9999999N1-00531-00851999999ADDMA1999999088191MD1710021+9999ME1314229OA149900411REMSYN088AAXX  05044 06689 33/// /2505 11053 21085 38819 48422 57002 333 55300 20000 91108 91205;
0149066890999992011010505004+47367+008950FM-12+114499999V0202501N002619999999N9999999N1-00501-00881999999ADDMA1999999088181MD1710041+9999ME1314229OA149900411REMSYN088AAXX  05054 06689 33/// /2505 11050 21088 38818 48422 57004 333 55300 20000 91108 91205;
0198066890999992011010506004+47367+008950FM-12+114499999V0202501N003119999999N9999999N1-00471-00911999999ADDAL19900091GJ100549KA1999N-00741MA1999999088221MD1510001+9999ME1314269OA149900411REMSYN106AAXX  05064 06689 33/// /2506 11047 21091 38822 48426 55000 333 21074 55009 55300 20000 70000 91108 91206;
0149066890999992011010507004+47367+008950FM-12+114499999V0202301N003619999999N9999999N1-00451-00911999999ADDMA1999999088221MD1310031+9999ME1314269OA149900461REMSYN088AAXX  05074 06689 33/// /2307 11045 21091 38822 48426 53003 333 55300 20000 91109 91207;
0149066890999992011010508004+47367+008950FM-12+114499999V0202401N004619999999N9999999N1-00401-00851999999ADDMA1999999088231MD1219999+9999ME1314279OA149900621REMSYN088AAXX  05084 06689 33/// /2409 11040 21085 38823 48427 52/// 333 55301 20108 91112 91209;
0168066890999992011010509004+47367+008950FM-12+114499999V0202201N004119999999N9999999N1-00381-00881999999ADDMA1999999088221MD1410001+9999ME1314279OA149900621REMSYN088AAXX  05094 06689 33/// /2208 11038 21088 38822 48427 57000 333 553// 20554 91112 91209;EQDQ01+000072APCTEN
0149066890999992011010510004+47367+008950FM-12+114499999V0202201N003119999999N9999999N1-00301-00771999999ADDMA1999999088201MD1710021+9999ME1314269OA149900571REMSYN088AAXX  05104 06689 33/// /2206 11030 21077 38820 48426 57002 333 553// 20990 91111 91208;
0149066890999992011010511004+47367+008950FM-12+114499999V0202301N001519999999N9999999N1-00231-00741999999ADDMA1999999088171MD1710061+9999ME1314249OA149900511REMSYN088AAXX  05114 06689 33/// /2303 11023 21074 38817 48424 57006 333 553// 2//// 91110 91208;
0112066890999992011010512004+47367+008950FM-12+114499999V0202101N002119999999N9999999N1-00211-00891999999ADDMA1999999088111ME1314199REMSYN076AAXX  05124 06689 33/// /2104 11021 21089 38811 48419 5//// 333 553// 2////;
0149066890999992011010513004+47367+008950FM-12+114499999V0202301N003619999999N9999999N1-00111-00951999999ADDMA1999999088071MD1610131+9999ME1314169OA149900511REMSYN088AAXX  05134 06689 33/// /2307 11011 21095 38807 48416 56013 333 553// 2//// 91110 91207;
0096066890999992011010514004+47367+008950FM-12+114499999V0202401N005719999999N9999999N1+00041-01261999999ADDMA1999999088081ME1314199REMSYN060AAXX  05144 06689 43/// /2411 10004 21126 38808 48419 5////;
0096066890999992011010515004+47367+008950FM-12+114499999V0202301N005719999999N9999999N1-00051-01161999999ADDMA1999999088091ME1314199REMSYN060AAXX  05154 06689 43/// /2311 11005 21116 38809 48419 5////;
0149066890999992011010516004+47367+008950FM-12+114499999V0202301N005119999999N9999999N1-00031-01001999999ADDMA1999999088041MD1810031+9999ME1314149OA149900981REMSYN088AAXX  05164 06689 33/// /2310 11003 21100 38804 48414 58003 333 55302 20079 91119 91212;
0149066890999992011010517004+47367+008950FM-12+114499999V0202601N007219999999N9999999N1-00021-00931999999ADDMA1999999088041MD1710041+9999ME1314159OA149900981REMSYN088AAXX  05174 06689 33/// /2614 11002 21093 38804 48415 57004 333 55300 20000 91119 91214;
0168066890999992011010518004+47367+008950FM-12+114499999V0202501N005119999999N9999999N1-00041-00831999999ADDKA1120M+00041MA1999999088051MD1519999+9999ME1314159OA149901031REMSYN094AAXX  05184 06689 33/// /2510 11004 21083 38805 48415 55/// 333 10004 55300 20000 91120 91215;
0149066890999992011010519004+47367+008950FM-12+114499999V0202501N006719999999N9999999N1-00021-00831999999ADDMA1999999088041MD1010001+9999ME1314159OA149901031REMSYN088AAXX  05194 06689 33/// /2513 11002 21083 38804 48415 50000 333 55300 20000 91120 91215;
0149066890999992011010520004+47367+008950FM-12+114499999V0202601N006719999999N9999999N1-00011-00821999999ADDMA1999999088001MD1719999+9999ME1314119OA149900881REMSYN088AAXX  05204 06689 33/// /2613 11001 21082 38800 48411 57/// 333 55300 20000 91117 91213;
0112066890999992011010521004+47367+008950FM-12+114499999V0202101N005119999999N9999999N1-00031-01241999999ADDMA1999999087971ME1314089REMSYN076AAXX  05214 06689 33/// /2110 11003 21124 38797 48408 5//// 333 553// 20000;
0149066890999992011010522004+47367+008950FM-12+114499999V0202501N006219999999N9999999N1+00131-01051999999ADDMA1999999087971MD1710071+9999ME1314109OA149901131REMSYN088AAXX  05224 06689 33/// /2512 10013 21105 38797 48410 57007 333 55300 20000 91122 91215;
0149066890999992011010523004+47367+008950FM-12+114499999V0202301N006219999999N9999999N1+00061-01001999999ADDMA1999999087941MD1619999+9999ME1314069OA149900821REMSYN088AAXX  05234 06689 33/// /2312 10006 21100 38794 48406 56/// 333 55300 20000 91116 91213;
0096066890999992011010600004+47367+008950FM-12+114499999V0202401N005719999999N9999999N1+00191-01271999999ADDMA1999999087861ME1314009REMSYN060AAXX  06004 06689 43/// /2411 10019 21127 38786 48400 5////;
0096066890999992011010601004+47367+008950FM-12+114499999V0201201N004619999999N9999999N1+00221-01381999999ADDMA1999999087811ME1313969REMSYN060AAXX  06014 06689 43/// /1209 10022 21138 38781 48396 5////;
0096066890999992011010602004+47367+008950FM-12+114499999V0202401N004619999999N9999999N1+00171-01401999999ADDMA1999999087801ME1313959REMSYN060AAXX  06024 06689 43/// /2409 10017 21140 38780 48395 5////;
0096066890999992011010603004+47367+008950FM-12+114499999V0202001N007219999999N9999999N1+00121-01291999999ADDMA1999999087801ME1313949REMSYN060AAXX  06034 06689 43/// /2014 10012 21129 38780 48394 5////;
0096066890999992011010604004+47367+008950FM-12+114499999V0202301N007219999999N9999999N1+00151-01331999999ADDMA1999999087791ME1313949REMSYN060AAXX  06044 06689 43/// /2314 10015 21133 38779 48394 5////;
0096066890999992011010605004+47367+008950FM-12+114499999V0202001N005719999999N9999999N1+00141-01171999999ADDMA1999999087771ME1313929REMSYN060AAXX  06054 06689 43/// /2011 10014 21117 38777 48392 5////;
0125066890999992011010606004+47367+008950FM-12+114499999V0202101N007719999999N9999999N1+00111-01111999999ADDKA1999N-00051MA1999999087791ME1313939REMSYN076AAXX  06064 06689 43/// /2115 10011 21111 38779 48393 5//// 333 21005 55073;
0096066890999992011010607004+47367+008950FM-12+114499999V0202001N008719999999N9999999N1+00171-00911999999ADDMA1999999087771ME1313929REMSYN060AAXX  06074 06689 43/// /2017 10017 21091 38777 48392 5////;
0112066890999992011010608004+47367+008950FM-12+114499999V0202101N006719999999N9999999N1+00261-00641999999ADDMA1999999087781ME1313949REMSYN076AAXX  06084 06689 33/// /2113 10026 21064 38778 48394 5//// 333 553// 20050;
0096066890999992011010609004+47367+008950FM-12+114499999V0202201N006219999999N9999999N1+00221-00791999999ADDMA1999999087821ME1313979REMSYN060AAXX  06094 06689 43/// /2212 10022 21079 38782 48397 5////;
0149066890999992011010610004+47367+008950FM-12+114499999V0202301N005719999999N9999999N1+00281-00801999999ADDMA1999999087881MD1210111+9999ME1314039OA149901181REMSYN088AAXX  06104 06689 33/// /2311 10028 21080 38788 48403 52011 333 55302 20716 91123 91214;
0149066890999992011010611004+47367+008950FM-12+114499999V0202301N004619999999N9999999N1+00381-00681999999ADDMA1999999087861MD1010081+9999ME1314029OA149900881REMSYN088AAXX  06114 06689 33/// /2309 10038 21068 38786 48402 50008 333 55308 2//// 91117 91212;
0149066890999992011010612004+47367+008950FM-12+114499999V0202201N006219999999N9999999N1+00351-00681999999ADDMA1999999087841MD1010021+9999ME1314009OA149901241REMSYN088AAXX  06124 06689 33/// /2212 10035 21068 38784 48400 50002 333 55300 20788 91124 91217;
0149066890999992011010613004+47367+008950FM-12+114499999V0202101N004619999999N9999999N1+00341-00651999999ADDMA1999999087811MD1710071+9999ME1313979OA149901081REMSYN088AAXX  06134 06689 33/// /2109 10034 21065 38781 48397 57007 333 55300 20418 91121 91213;
0096066890999992011010614004+47367+008950FM-12+114499999V0202101N005119999999N9999999N1+00351-00601999999ADDMA1999999087801ME1313979REMSYN060AAXX  06144 06689 43/// /2110 10035 21060 38780 48397 5////;
0096066890999992011010615004+47367+008950FM-12+114499999V0202001N006719999999N9999999N1+00351-00541999999ADDMA1999999087831ME1313999REMSYN060AAXX  06154 06689 43/// /2013 10035 21054 38783 48399 5////;
0149066890999992011010616004+47367+008950FM-12+114499999V0202001N006719999999N9999999N1+00381-00461999999ADDMA1999999087851MD1210041+9999ME1314019OA149901081REMSYN088AAXX  06164 06689 33/// /2013 10038 21046 38785 48401 52004 333 55300 20014 91121 91215;
0149066890999992011010617004+47367+008950FM-12+114499999V0202501N004619999999N9999999N1+00361-00421999999ADDMA1999999087871MD1210071+9999ME1314039OA149901081REMSYN088AAXX  06174 06689 33/// /2509 10036 21042 38787 48403 52007 333 55300 20000 91121 91215;
0191066890999992011010618004+47367+008950FM-12+114499999V0202101N008719999999N9999999N1+00331-00041999999ADDAA112002091KA1120M+00421MA1999999087921MD1210091+9999ME1314079OA149901341REMSYN106AAXX  06184 06689 03/// /2117 10033 21004 38792 48407 52009 60022 333 10042 55300 20000 60025 91126 91217;
0155066890999992011010619004+47367+008950FM-12+114499999V0202001N009319999999N9999999N1+00331+00061999999ADDMA1999999087921MD1010071+9999ME1314079OA149901441REMSYN094AAXX  06194 06689 23/// /2018 10033 20006 38792 48407 50007 333 55300 20000 69945 91128 91218;
0155066890999992011010620004+47367+008950FM-12+114499999V0202101N008219999999N9999999N1+00341+00101999999ADDMA1999999087981MD1319999+9999ME1314139OA149901441REMSYN094AAXX  06204 06689 23/// /2116 10034 20010 38798 48413 53/// 333 55300 20000 69965 91128 91219;
0155066890999992011010621004+47367+008950FM-12+114499999V0202101N009819999999N9999999N1+00421+00191999999ADDMA1999999088011MD1219999+9999ME1314179OA149901601REMSYN094AAXX  06214 06689 23/// /2119 10042 20019 38801 48417 52/// 333 55300 20000 69945 91131 91219;
0155066890999992011010622004+47367+008950FM-12+114499999V0202101N007719999999N9999999N1+00321+00131999999ADDMA1999999088041MD1210121+9999ME1314189OA149901601REMSYN094AAXX  06224 06689 23/// /2115 10032 20013 38804 48418 52012 333 55300 20000 69915 91131 91219;
0112066890999992011010623004+47367+008950FM-12+114499999V0202201N009319999999N9999999N1+00451+00081999999ADDMA1999999088111ME1314269REMSYN076AAXX  06234 06689 33/// /2218 10045 20008 38811 48426 5//// 333 553// 20000;
0096066890999992011010700004+47367+008950FM-12+114499999V0202101N008219999999N9999999N1+00401+00081999999ADDMA1999999088131ME1314279REMSYN060AAXX  07004 06689 43/// /2116 10040 20008 38813 48427 5////;
0096066890999992011010701004+47367+008950FM-12+114499999V0202201N007719999999N9999999N1+00451+00031999999ADDMA1999999088141ME1314299REMSYN060AAXX  07014 06689 43/// /2215 10045 20003 38814 48429 5////;
0096066890999992011010702004+47367+008950FM-12+114499999V0202301N005119999999N9999999N1+00401+00011999999ADDMA1999999088201ME1314349REMSYN060AAXX  07024 06689 43/// /2310 10040 20001 38820 48434 5////;
0096066890999992011010703004+47367+008950FM-12+114499999V0202301N006219999999N9999999N1+00371+00041999999ADDMA1999999088241ME1314379REMSYN060AAXX  07034 06689 43/// /2312 10037 20004 38824 48437 5////;
0149066890999992011010704004+47367+008950FM-12+114499999V0202401N004619999999N9999999N1+00381+00061999999ADDMA1999999088281MD1210141+9999ME1314419OA149901081REMSYN088AAXX  07044 06689 33/// /2409 10038 20006 38828 48441 52014 333 55300 20000 91121 91212;
0155066890999992011010705004+47367+008950FM-12+114499999V0202001N006219999999N9999999N1+00331+00161999999ADDMA1999999088321MD1210121+9999ME1314449OA149900931REMSYN094AAXX  07054 06689 23/// /2012 10033 20016 38832 48444 52012 333 55300 20000 69965 91118 91212;
0221066890999992011010706004+47367+008950FM-12+114499999V0202001N007719999999N9999999N1+00531+00261999999ADDAA112003091AL13000491GJ100669KA1999N+00261MA1999999088341MD1210101+9999ME1314489OA149901601REMSYN118AAXX  07064 06689 03/// /2015 10053 20026 38834 48448 52010 60032 333 20026 55011 55300 20000 60015 70045 91131 91219;
0155066890999992011010707004+47367+008950FM-12+114499999V0202101N007219999999N9999999N1+00691+00311999999ADDMA1999999088351MD1210071+9999ME1314519OA149901341REMSYN094AAXX  07074 06689 23/// /2114 10069 20031 38835 48451 52007 333 55300 20000 69975 91126 91217;
0112066890999992011010708004+47367+008950FM-12+114499999V0202201N005119999999N9999999N1+00791+00241999999ADDMA1999999088361ME1314539REMSYN076AAXX  07084 06689 33/// /2210 10079 20024 38836 48453 5//// 333 553// 20032;
0096066890999992011010709004+47367+008950FM-12+114499999V0202301N000519999999N9999999N1+00901+00301999999ADDMA1999999088341ME1314529REMSYN060AAXX  07094 06689 43/// /2301 10090 20030 38834 48452 5////;
0149066890999992011010710004+47367+008950FM-12+114499999V0203101N001019999999N9999999N1+00891+00341999999ADDMA1999999088351MD1010001+9999ME1314539OA149900621REMSYN088AAXX  07104 06689 33/// /3102 10089 20034 38835 48453 50000 333 55300 20371 91112 91209;
0149066890999992011010711004+47367+008950FM-12+114499999V0202101N004619999999N9999999N1+00711+00051999999ADDMA1999999088351MD1510011+9999ME1314519OA149900571REMSYN088AAXX  07114 06689 33/// /2109 10071 20005 38835 48451 55001 333 55308 2//// 91111 91209;
0172066890999992011010712004+47367+008950FM-12+114499999V0201701N003619999999N9999999N1+00801+00041999999ADDAA106000891MA1999999088311MD1710031+9999ME1314489OA149901441REMSYN100AAXX  07124 06689 03/// /1707 10080 20004 38831 48448 57003 69971 333 55309 2//// 60005 91128 91219;
0149066890999992011010713004+47367+008950FM-12+114499999V0202101N003119999999N9999999N1+00841+00031999999ADDMA1999999088331MD1710021+9999ME1314519OA149900721REMSYN088AAXX  07134 06689 33/// /2106 10084 20003 38833 48451 57002 333 55306 20806 91114 91209;
0096066890999992011010714004+47367+008950FM-12+114499999V0201901N005119999999N9999999N1+00861+00001999999ADDMA1999999088311ME1314499REMSYN060AAXX  07144 06689 43/// /1910 10086 20000 38831 48449 5////;
0096066890999992011010715004+47367+008950FM-12+114499999V0201901N004119999999N9999999N1+01001-00031999999ADDMA1999999088321ME1314529REMSYN060AAXX  07154 06689 43/// /1908 10100 21003 38832 48452 5////;
0149066890999992011010716004+47367+008950FM-12+114499999V0202501N003119999999N9999999N1+00791+00031999999ADDMA1999999088371MD1210041+9999ME1314549OA149900671REMSYN088AAXX  07164 06689 33/// /2506 10079 20003 38837 48454 52004 333 55300 20054 91113 91211;
0149066890999992011010717004+47367+008950FM-12+114499999V0202001N006219999999N9999999N1+00831+00011999999ADDMA1999999088381MD1210071+9999ME1314559OA149900931REMSYN088AAXX  07174 06689 33/// /2012 10083 20001 38838 48455 52007 333 55300 20000 91118 91213;
0154066890999992011010718004+47367+008950FM-12+114499999V0202701N004619999999N9999999N1+00751+00141999999ADDAA112000891KA1120M+01071MA1999999088411ME1314579REMSYN094AAXX  07184 06689 03/// /2709 10075 20014 38841 48457 5//// 69972 333 10107 553// 20000 60005;
0149066890999992011010719004+47367+008950FM-12+114499999V0202701N005119999999N9999999N1+00881+00011999999ADDMA1999999088431MD1219999+9999ME1314619OA149900721REMSYN088AAXX  07194 06689 33/// /2710 10088 20001 38843 48461 52/// 333 55300 20000 91114 91211;
0096066890999992011010720004+47367+008950FM-12+114499999V0202501N004619999999N9999999N1+00901+00001999999ADDMA1999999088421ME1314609REMSYN060AAXX  07204 06689 43/// /2509 10090 20000 38842 48460 5////;
0096066890999992011010721004+47367+008950FM-12+114499999V0202401N003619999999N9999999N1+00761-00021999999ADDMA1999999088371ME1314549REMSYN060AAXX  07214 06689 43/// /2407 10076 21002 38837 48454 5////;
0149066890999992011010722004+47367+008950FM-12+114499999V0202601N004619999999N9999999N1+00901-00101999999ADDMA1999999088381MD1710051+9999ME1314569OA149900621REMSYN088AAXX  07224 06689 33/// /2609 10090 21010 38838 48456 57005 333 55300 20000 91112 91209;
0112066890999992011010723004+47367+008950FM-12+114499999V0202601N003119999999N9999999N1+00941-00131999999ADDMA1999999088401ME1314589REMSYN076AAXX  07234 06689 33/// /2606 10094 21013 38840 48458 5//// 333 553// 20000;
0112066890999992011010800004+47367+008950FM-12+114499999V0202601N003619999999N9999999N1+00821-00051999999ADDMA1999999088401ME1314579REMSYN076AAXX  08004 06689 33/// /2607 10082 21005 38840 48457 5//// 333 553// 20000;
0096066890999992011010801004+47367+008950FM-12+114499999V0202201N005719999999N9999999N1+00761+00021999999ADDMA1999999088441ME1314609REMSYN060AAXX  08014 06689 43/// /2211 10076 20002 38844 48460 5////;
0096066890999992011010802004+47367+008950FM-12+114499999V0202401N002619999999N9999999N1+00851+00161999999ADDMA1999999088421ME1314599REMSYN060AAXX  08024 06689 43/// /2405 10085 20016 38842 48459 5////;
0096066890999992011010803004+47367+008950FM-12+114499999V0202901N004119999999N9999999N1+00791+00291999999ADDMA1999999088401ME1314579REMSYN060AAXX  08034 06689 43/// /2908 10079 20029 38840 48457 5////;
0096066890999992011010804004+47367+008950FM-12+114499999V0202901N005119999999N9999999N1+00721+00291999999ADDMA1999999088381ME1314549REMSYN060AAXX  08044 06689 43/// /2910 10072 20029 38838 48454 5////;
0096066890999992011010805004+47367+008950FM-12+114499999V0202901N007219999999N9999999N1+00641+00221999999ADDMA1999999088421ME1314579REMSYN060AAXX  08054 06689 43/// /2914 10064 20022 38842 48457 5////;
0125066890999992011010806004+47367+008950FM-12+114499999V0202601N006719999999N9999999N1+00531+00481999999ADDKA1999N+00501MA1999999088481ME1314619REMSYN076AAXX  08064 06689 43/// /2613 10053 20048 38848 48461 5//// 333 20050 55036;
0096066890999992011010807004+47367+008950FM-12+114499999V0202401N005719999999N9999999N1+00491+00471999999ADDMA1999999088521ME1314649REMSYN060AAXX  08074 06689 43/// /2411 10049 20047 38852 48464 5////;
0118066890999992011010808004+47367+008950FM-12+114499999V0202001N004619999999N9999999N1+00471+00421999999ADDMA1999999088531ME1314659REMSYN082AAXX  08084 06689 23/// /2009 10047 20042 38853 48465 5//// 333 553// 20011 69925;
0096066890999992011010809004+47367+008950FM-12+114499999V0202401N008719999999N9999999N1+00691+00221999999ADDMA1999999088501ME1314659REMSYN060AAXX  08094 06689 43/// /2417 10069 20022 38850 48465 5////;
0096066890999992011010810004+47367+008950FM-12+114499999V0202101N004619999999N9999999N1+00761+00201999999ADDMA1999999088511ME1314669REMSYN060AAXX  08104 06689 43/// /2109 10076 20020 38851 48466 5////;
0096066890999992011010811004+47367+008950FM-12+114499999V0202201N005719999999N9999999N1+00691+00241999999ADDMA1999999088501ME1314659REMSYN060AAXX  08114 06689 43/// /2211 10069 20024 38850 48465 5////;
0096066890999992011010812004+47367+008950FM-12+114499999V0202101N004119999999N9999999N1+00841+00101999999ADDMA1999999088471ME1314649REMSYN060AAXX  08124 06689 43/// /2108 10084 20010 38847 48464 5////;
0096066890999992011010813004+47367+008950FM-12+114499999V0202301N002119999999N9999999N1+00921+00111999999ADDMA1999999088451ME1314639REMSYN060AAXX  08134 06689 43/// /2304 10092 20011 38845 48463 5////;
0096066890999992011010814004+47367+008950FM-12+114499999V0202201N002119999999N9999999N1+00951+00191999999ADDMA1999999088441ME1314629REMSYN060AAXX  08144 06689 43/// /2204 10095 20019 38844 48462 5////;
0096066890999992011010815004+47367+008950FM-12+114499999V0202001N003119999999N9999999N1+00811+00161999999ADDMA1999999088471ME1314639REMSYN060AAXX  08154 06689 43/// /2006 10081 20016 38847 48463 5////;
0096066890999992011010816004+47367+008950FM-12+114499999V0202301N003619999999N9999999N1+00771+00031999999ADDMA1999999088481ME1314649REMSYN060AAXX  08164 06689 43/// /2307 10077 20003 38848 48464 5////;
0096066890999992011010817004+47367+008950FM-12+114499999V0202601N004119999999N9999999N1+00741+00101999999ADDMA1999999088481ME1314639REMSYN060AAXX  08174 06689 43/// /2608 10074 20010 38848 48463 5////;
0096066890999992011010818004+47367+008950FM-12+114499999V0202201N004119999999N9999999N1+00691-00051999999ADDMA1999999088451ME1314609REMSYN060AAXX  08184 06689 43/// /2208 10069 21005 38845 48460 5////;
0096066890999992011010819004+47367+008950FM-12+114499999V0201801N004619999999N9999999N1+00791-00301999999ADDMA1999999088451ME1314619REMSYN060AAXX  08194 06689 43/// /1809 10079 21030 38845 48461 5////;
0096066890999992011010820004+47367+008950FM-12+114499999V0201901N005119999999N9999999N1+00661-00231999999ADDMA1999999088441ME1314599REMSYN060AAXX  08204 06689 43/// /1910 10066 21023 38844 48459 5////;
0096066890999992011010821004+47367+008950FM-12+114499999V0201801N005719999999N9999999N1+00851-00431999999ADDMA1999999088411ME1314589REMSYN060AAXX  08214 06689 43/// /1811 10085 21043 38841 48458 5////;
0096066890999992011010822004+47367+008950FM-12+114499999V0201701N005119999999N9999999N1+00881-00431999999ADDMA1999999088401ME1314589REMSYN060AAXX  08224 06689 43/// /1710 10088 21043 38840 48458 5////;
0096066890999992011010823004+47367+008950FM-12+114499999V0201801N005719999999N9999999N1+00851-00421999999ADDMA1999999088351ME1314539REMSYN060AAXX  08234 06689 43/// /1811 10085 21042 38835 48453 5////;
0096066890999992011010900004+47367+008950FM-12+114499999V0201701N005719999999N9999999N1+00861-00421999999ADDMA1999999088311ME1314499REMSYN060AAXX  09004 06689 43/// /1711 10086 21042 38831 48449 5////;
0096066890999992011010901004+47367+008950FM-12+114499999V0202001N005119999999N9999999N1+00771-00351999999ADDMA1999999088331ME1314509REMSYN060AAXX  09014 06689 43/// /2010 10077 21035 38833 48450 5////;
0096066890999992011010902004+47367+008950FM-12+114499999V0202201N004619999999N9999999N1+00671-00311999999ADDMA1999999088371ME1314529REMSYN060AAXX  09024 06689 43/// /2209 10067 21031 38837 48452 5////;
0096066890999992011010903004+47367+008950FM-12+114499999V0202201N005119999999N9999999N1+00631-00171999999ADDMA1999999088341ME1314499REMSYN060AAXX  09034 06689 43/// /2210 10063 21017 38834 48449 5////;
0096066890999992011010904004+47367+008950FM-12+114499999V0202601N005119999999N9999999N1+00591-00071999999ADDMA1999999088331ME1314489REMSYN060AAXX  09044 06689 43/// /2610 10059 21007 38833 48448 5////;
0096066890999992011010905004+47367+008950FM-12+114499999V0202601N005719999999N9999999N1+00631-00071999999ADDMA1999999088331ME1314489REMSYN060AAXX  09054 06689 43/// /2611 10063 21007 38833 48448 5////;
0106066890999992011010906004+47367+008950FM-12+114499999V0202301N005119999999N9999999N1+00651-00211999999ADDMA1999999088311ME1314479REMSYN070AAXX  09064 06689 43/// /2310 10065 21021 38831 48447 5//// 333 55044;
0096066890999992011010907004+47367+008950FM-12+114499999V0202301N004619999999N9999999N1+00551-00181999999ADDMA1999999088291ME1314449REMSYN060AAXX  09074 06689 43/// /2309 10055 21018 38829 48444 5////;
0112066890999992011010908004+47367+008950FM-12+114499999V0202501N005119999999N9999999N1+00671-00241999999ADDMA1999999088391ME1314549REMSYN076AAXX  09084 06689 33/// /2510 10067 21024 38839 48454 5//// 333 553// 20040;
0112066890999992011010909004+47367+008950FM-12+114499999V0202101N004119999999N9999999N1+00691-00231999999ADDMA1999999088421ME1314579REMSYN076AAXX  09094 06689 33/// /2108 10069 21023 38842 48457 5//// 333 553// 20144;
0149066890999992011010910004+47367+008950FM-12+114499999V0202601N004619999999N9999999N1+00711-00121999999ADDMA1999999088461MD1110171+9999ME1314619OA149900981REMSYN088AAXX  09104 06689 33/// /2609 10071 21012 38846 48461 51017 333 55302 20418 91119 91210;
0149066890999992011010911004+47367+008950FM-12+114499999V0203001N004119999999N9999999N1+00641+00001999999ADDMA1999999088461MD1210071+9999ME1314609OA149900981REMSYN088AAXX  09114 06689 33/// /3008 10064 20000 38846 48460 52007 333 55301 20760 91119 91211;
0149066890999992011010912004+47367+008950FM-12+114499999V0202901N004619999999N9999999N1+00551+00041999999ADDMA1999999088421MD1010001+9999ME1314569OA149900981REMSYN088AAXX  09124 06689 33/// /2909 10055 20004 38842 48456 50000 333 55300 20529 91119 91212;
0149066890999992011010913004+47367+008950FM-12+114499999V0202701N004619999999N9999999N1+00491+00141999999ADDMA1999999088411MD1710051+9999ME1314549OA149900931REMSYN088AAXX  09134 06689 33/// /2709 10049 20014 38841 48454 57005 333 55300 20500 91118 91212;
0096066890999992011010914004+47367+008950FM-12+114499999V0202901N004119999999N9999999N1+00441+00231999999ADDMA1999999088431ME1314559REMSYN060AAXX  09144 06689 43/// /2908 10044 20023 38843 48455 5////;
0096066890999992011010915004+47367+008950FM-12+114499999V0202801N007219999999N9999999N1+00381+00301999999ADDMA1999999088461ME1314579REMSYN060AAXX  09154 06689 43/// /2814 10038 20030 38846 48457 5////;
0149066890999992011010916004+47367+008950FM-12+114499999V0202801N006719999999N9999999N1+00381+00271999999ADDMA1999999088491MD1310081+9999ME1314609OA149901341REMSYN088AAXX  09164 06689 33/// /2813 10038 20027 38849 48460 53008 333 55300 20007 91126 91216;
0149066890999992011010917004+47367+008950FM-12+114499999V0202701N005719999999N9999999N1+00351+00271999999ADDMA1999999088531MD1310101+9999ME1314639OA149901341REMSYN088AAXX  09174 06689 33/// /2711 10035 20027 38853 48463 53010 333 55300 20000 91126 91216;
0168066890999992011010918004+47367+008950FM-12+114499999V0202901N004619999999N9999999N1+00281+00271999999ADDKA1120M+00731MA1999999088571MD1110111+9999ME1314669OA149901341REMSYN094AAXX  09184 06689 33/// /2909 10028 20027 38857 48466 51011 333 10073 55300 20000 91126 91216;
0149066890999992011010919004+47367+008950FM-12+114499999V0202601N005119999999N9999999N1+00291+00251999999ADDMA1999999088571MD1210081+9999ME1314669OA149901081REMSYN088AAXX  09194 06689 33/// /2610 10029 20025 38857 48466 52008 333 55300 20000 91121 91211;
0155066890999992011010920004+47367+008950FM-12+114499999V0202601N006219999999N9999999N1+00251+00221999999ADDMA1999999088621MD1210091+9999ME1314709OA149901131REMSYN094AAXX  09204 06689 23/// /2612 10025 20022 38862 48470 52009 333 55300 20000 69915 91122 91213;
0155066890999992011010921004+47367+008950FM-12+114499999V0202801N007719999999N9999999N1+00201+00191999999ADDMA1999999088651MD1310081+9999ME1314729OA149901441REMSYN094AAXX  09214 06689 23/// /2815 10020 20019 38865 48472 53008 333 55300 20000 60015 91128 91216;
0155066890999992011010922004+47367+008950FM-12+114499999V0202701N006219999999N9999999N1+00161+00141999999ADDMA1999999088681MD1110111+9999ME1314749OA149901441REMSYN094AAXX  09224 06689 23/// /2712 10016 20014 38868 48474 51011 333 55300 20000 60015 91128 91216;
0155066890999992011010923004+47367+008950FM-12+114499999V0202701N006719999999N9999999N1+00091+00051999999ADDMA1999999088711MD1110091+9999ME1314769OA149901181REMSYN094AAXX  09234 06689 23/// /2713 10009 20005 38871 48476 51009 333 55300 20000 69975 91123 91214;
0172066890999992011011000004+47367+008950FM-12+114499999V0202701N006219999999N9999999N1+00031+00001999999ADDAA106004191MA1999999088721MD1110071+9999ME1314769OA149901441REMSYN100AAXX  10004 06689 03/// /2712 10003 20000 38872 48476 51007 60041 333 55300 20000 69985 91128 91216;
0155066890999992011011001004+47367+008950FM-12+114499999V0202601N005719999999N9999999N1-00031-00051999999ADDMA1999999088751MD1110071+9999ME1314789OA149901031REMSYN094AAXX  10014 06689 23/// /2611 11003 21005 38875 48478 51007 333 55300 20000 60015 91120 91214;
0118066890999992011011002004+47367+008950FM-12+114499999V0202501N004619999999N9999999N1-00061-00081999999ADDMA1999999088791ME1314819REMSYN082AAXX  10024 06689 23/// /2509 11006 21008 38879 48481 5//// 333 553// 20000 69985;
0096066890999992011011003004+47367+008950FM-12+114499999V0202701N004119999999N9999999N1-00041-00061999999ADDMA1999999088801ME1314839REMSYN060AAXX  10034 06689 43/// /2708 11004 21006 38880 48483 5////;
0118066890999992011011004004+47367+008950FM-12+114499999V0202601N003619999999N9999999N1-00051-00071999999ADDMA1999999088811ME1314839REMSYN082AAXX  10044 06689 23/// /2607 11005 21007 38881 48483 5//// 333 553// 20000 69935;
0155066890999992011011005004+47367+008950FM-12+114499999V0202601N001519999999N9999999N1-00071-00071999999ADDMA1999999088821MD1119999+9999ME1314849OA149900461REMSYN094AAXX  10054 06689 23/// /2603 11007 21007 38882 48484 51/// 333 55300 20000 69915 91109 91208;
0150066890999992011011006004+47367+008950FM-12+114499999V0200701N001019999999N9999999N1-00081-00081999999ADDAA124006991GJ100189KA1999N-00081MA1999999088821ME1314849REMSYN082AAXX  10064 06689 43/// /0702 11008 21008 38882 48484 5//// 333 21008 55003 70069;
0149066890999992011011007004+47367+008950FM-12+114499999V0200601N001519999999N9999999N1-00101-00101999999ADDMA1999999088851MD1210041+9999ME1314869OA149900211REMSYN088AAXX  10074 06689 33/// /0603 11010 21010 38885 48486 52004 333 55300 20000 91104 91203;
0096066890999992011011008004+47367+008950FM-12+114499999V0200801N002619999999N9999999N1-00121-00121999999ADDMA1999999088861ME1314879REMSYN060AAXX  10084 06689 43/// /0805 11012 21012 38886 48487 5////;
0096066890999992011011009004+47367+008950FM-12+114499999V0200801N001019999999N9999999N1-00121-00121999999ADDMA1999999088881ME1314899REMSYN060AAXX  10094 06689 43/// /0802 11012 21012 38888 48489 5////;
0149066890999992011011010004+47367+008950FM-12+114499999V0201001N001019999999N9999999N1-00081-00081999999ADDMA1999999088891MD1110041+9999ME1314909OA149900361REMSYN088AAXX  10104 06689 33/// /1002 11008 21008 38889 48490 51004 333 55300 20374 91107 91205;
0149066890999992011011011004+47367+008950FM-12+114499999V0200801N001019999999N9999999N1-00101-00101999999ADDMA1999999088861MD1019999+9999ME1314879OA149900211REMSYN088AAXX  10114 06689 33/// /0802 11010 21010 38886 48487 50/// 333 55300 20526 91104 91203;
0112066890999992011011012004+47367+008950FM-12+114499999V0200901N000519999999N9999999N1-00071-00071999999ADDMA1999999088801ME1314829REMSYN076AAXX  10124 06689 33/// /0901 11007 21007 38880 48482 5//// 333 553// 20652;
0096066890999992011011013004+47367+008950FM-12+114499999V0200701N001019999999N9999999N1-00071-00071999999ADDMA1999999088751ME1314789REMSYN060AAXX  10134 06689 43/// /0702 11007 21007 38875 48478 5////;
0096066890999992011011014004+47367+008950FM-12+114499999V0200701N001519999999N9999999N1-00081-00081999999ADDMA1999999088721ME1314759REMSYN060AAXX  10144 06689 43/// /0703 11008 21008 38872 48475 5////;
0096066890999992011011015004+47367+008950FM-12+114499999V0200801N001519999999N9999999N1-00131-00131999999ADDMA1999999088691ME1314729REMSYN060AAXX  10154 06689 43/// /0803 11013 21013 38869 48472 5////;
0096066890999992011011016004+47367+008950FM-12+114499999V0200901N002119999999N9999999N1-00151-00151999999ADDMA1999999088661ME1314699REMSYN060AAXX  10164 06689 43/// /0904 11015 21015 38866 48469 5////;
0096066890999992011011017004+47367+008950FM-12+114499999V0200801N001019999999N9999999N1-00161-00161999999ADDMA1999999088641ME1314679REMSYN060AAXX  10174 06689 43/// /0802 11016 21016 38864 48467 5////;
0119066890999992011011018004+47367+008950FM-12+114499999V0200801N001019999999N9999999N1-00191-00191999999ADDKA1999M-00041MA1999999088621ME1314659REMSYN070AAXX  10184 06689 43/// /0802 11019 21019 38862 48465 5//// 333 11004;
0096066890999992011011019004+47367+008950FM-12+114499999V0200901N001519999999N9999999N1-00181-00181999999ADDMA1999999088591ME1314629REMSYN060AAXX  10194 06689 43/// /0903 11018 21018 38859 48462 5////;
0096066890999992011011020004+47367+008950FM-12+114499999V0201701N001519999999N9999999N1-00111-00111999999ADDMA1999999088551ME1314599REMSYN060AAXX  10204 06689 43/// /1703 11011 21011 38855 48459 5////;
0096066890999992011011021004+47367+008950FM-12+114499999V0202201N002119999999N9999999N1-00111-00111999999ADDMA1999999088541ME1314599REMSYN060AAXX  10214 06689 43/// /2204 11011 21011 38854 48459 5////;
0096066890999992011011022004+47367+008950FM-12+114499999V0202301N002119999999N9999999N1-00111-00111999999ADDMA1999999088531ME1314589REMSYN060AAXX  10224 06689 43/// /2304 11011 21011 38853 48458 5////;
0096066890999992011011023004+47367+008950FM-12+114499999V0202401N002619999999N9999999N1-00131-00131999999ADDMA1999999088501ME1314559REMSYN060AAXX  10234 06689 43/// /2405 11013 21013 38850 48455 5////;
0096066890999992011011100004+47367+008950FM-12+114499999V0202301N003619999999N9999999N1-00151-00151999999ADDMA1999999088431ME1314489REMSYN060AAXX  11004 06689 43/// /2307 11015 21015 38843 48448 5////;
0096066890999992011011101004+47367+008950FM-12+114499999V0202501N003119999999N9999999N1-00151-00161999999ADDMA1999999088401ME1314469REMSYN060AAXX  11014 06689 43/// /2506 11015 21016 38840 48446 5////;
0096066890999992011011102004+47367+008950FM-12+114499999V0202501N003619999999N9999999N1-00151-00151999999ADDMA1999999088381ME1314449REMSYN060AAXX  11024 06689 43/// /2507 11015 21015 38838 48444 5////;
0096066890999992011011103004+47367+008950FM-12+114499999V0202501N003119999999N9999999N1-00171-00171999999ADDMA1999999088331ME1314399REMSYN060AAXX  11034 06689 43/// /2506 11017 21017 38833 48439 5////;
0096066890999992011011104004+47367+008950FM-12+114499999V0202401N004119999999N9999999N1-00141-00161999999ADDMA1999999088301ME1314379REMSYN060AAXX  11044 06689 43/// /2408 11014 21016 38830 48437 5////;
0096066890999992011011105004+47367+008950FM-12+114499999V0202501N003619999999N9999999N1-00131-00151999999ADDMA1999999088261ME1314339REMSYN060AAXX  11054 06689 43/// /2507 11013 21015 38826 48433 5////;
0106066890999992011011106004+47367+008950FM-12+114499999V0202601N003119999999N9999999N1-00161-00171999999ADDMA1999999088221ME1314299REMSYN070AAXX  11064 06689 43/// /2606 11016 21017 38822 48429 5//// 333 55000;
0149066890999992011011107004+47367+008950FM-12+114499999V0202301N002119999999N9999999N1-00221-00221999999ADDMA1999999088171MD1619999+9999ME1314249OA149900511REMSYN088AAXX  11074 06689 33/// /2304 11022 21022 38817 48424 56/// 333 55300 20000 91110 91207;
0112066890999992011011108004+47367+008950FM-12+114499999V0202501N002619999999N9999999N1-00201-00211999999ADDMA1999999088161ME1314239REMSYN076AAXX  11084 06689 33/// /2505 11020 21021 38816 48423 5//// 333 553// 20108;
0096066890999992011011109004+47367+008950FM-12+114499999V0202301N002619999999N9999999N1-00181-00181999999ADDMA1999999088111ME1314199REMSYN060AAXX  11094 06689 43/// /2305 11018 21018 38811 48419 5////;
0149066890999992011011110004+47367+008950FM-12+114499999V0202101N003119999999N9999999N1-00151-00161999999ADDMA1999999088081MD1710091+9999ME1314179OA149900411REMSYN088AAXX  11104 06689 33/// /2106 11015 21016 38808 48417 57009 333 55300 20583 91108 91206;
0149066890999992011011111004+47367+008950FM-12+114499999V0202101N005119999999N9999999N1+00211-00211999999ADDMA1999999087991MD1810171+9999ME1314129OA149900671REMSYN088AAXX  11114 06689 33/// /2110 10021 21021 38799 48412 58017 333 55308 2//// 91113 91210;
0112066890999992011011112004+47367+008950FM-12+114499999V0202701N002119999999N9999999N1+00051+00021999999ADDMA1999999087931ME1314059REMSYN076AAXX  11124 06689 33/// /2704 10005 20002 38793 48405 5//// 333 553// 2////;
0149066890999992011011113004+47367+008950FM-12+114499999V0202701N006219999999N9999999N1-00021-00201999999ADDMA1999999087921MD1610161+9999ME1314049OA149901031REMSYN088AAXX  11134 06689 33/// /2712 11002 21020 38792 48404 56016 333 55300 20626 91120 91213;
0096066890999992011011114004+47367+008950FM-12+114499999V0202601N008719999999N9999999N1+00011-00221999999ADDMA1999999087931ME1314059REMSYN060AAXX  11144 06689 43/// /2617 10001 21022 38793 48405 5////;
0096066890999992011011115004+47367+008950FM-12+114499999V0202501N007719999999N9999999N1-00031-00141999999ADDMA1999999088001ME1314119REMSYN060AAXX  11154 06689 43/// /2515 11003 21014 38800 48411 5////;
0149066890999992011011116004+47367+008950FM-12+114499999V0202501N005719999999N9999999N1-00061-00091999999ADDMA1999999088071MD1310151+9999ME1314179OA149901291REMSYN088AAXX  11164 06689 33/// /2511 11006 21009 38807 48417 53015 333 55300 20004 91125 91218;
0155066890999992011011117004+47367+008950FM-12+114499999V0202501N005719999999N9999999N1-00081-00091999999ADDMA1999999088111MD1110171+9999ME1314209OA149901031REMSYN094AAXX  11174 06689 23/// /2511 11008 21009 38811 48420 51017 333 55300 20000 69925 91120 91214;
0191066890999992011011118004+47367+008950FM-12+114499999V0202501N005719999999N9999999N1-00111-00131999999ADDAA112000591KA1120M+00211MA1999999088191MD1310191+9999ME1314279OA149901391REMSYN106AAXX  11184 06689 03/// /2511 11011 21013 38819 48427 53019 69952 333 10021 55300 20000 69935 91127 91219;
0155066890999992011011119004+47367+008950FM-12+114499999V0202501N008219999999N9999999N1-00011-00041999999ADDMA1999999088281MD1310211+9999ME1314369OA149901131REMSYN094AAXX  11194 06689 23/// /2516 11001 21004 38828 48436 53021 333 55300 20000 69925 91122 91216;
0155066890999992011011120004+47367+008950FM-12+114499999V0202601N006719999999N9999999N1-00061-00081999999ADDMA1999999088371MD1310261+9999ME1314449OA149901241REMSYN094AAXX  11204 06689 23/// /2613 11006 21008 38837 48444 53026 333 55300 20000 69945 91124 91216;
0155066890999992011011121004+47367+008950FM-12+114499999V0202601N008219999999N9999999N1-00021-00041999999ADDMA1999999088441MD1110251+9999ME1314519OA149901491REMSYN094AAXX  11214 06689 23/// /2616 11002 21004 38844 48451 51025 333 55300 20000 69925 91129 91219;
0155066890999992011011122004+47367+008950FM-12+114499999V0202701N007219999999N9999999N1-00011-00031999999ADDMA1999999088511MD1310231+9999ME1314579OA149901491REMSYN094AAXX  11224 06689 23/// /2714 11001 21003 38851 48457 53023 333 55300 20000 69915 91129 91219;
0155066890999992011011123004+47367+008950FM-12+114499999V0202701N006719999999N9999999N1-00011-00031999999ADDMA1999999088581MD1310211+9999ME1314639OA149901291REMSYN094AAXX  11234 06689 23/// /2713 11001 21003 38858 48463 53021 333 55300 20000 69915 91125 91216;
0172066890999992011011200004+47367+008950FM-12+114499999V0202501N007219999999N9999999N1+00021+00001999999ADDAA106002091MA1999999088591MD1210151+9999ME1314659OA149901491REMSYN100AAXX  12004 06689 03/// /2514 10002 20000 38859 48465 52015 60021 333 55300 20000 69955 91129 91219;
0149066890999992011011201004+47367+008950FM-12+114499999V0202601N005119999999N9999999N1+00011+00001999999ADDMA1999999088651MD1210141+9999ME1314709OA149901181REMSYN088AAXX  12014 06689 33/// /2610 10001 20000 38865 48470 52014 333 55300 20000 91123 91214;
0118066890999992011011202004+47367+008950FM-12+114499999V0202701N006719999999N9999999N1+00001+00001999999ADDMA1999999088711ME1314759REMSYN082AAXX  12024 06689 23/// /2713 10000 20000 38871 48475 5//// 333 553// 20000 69925;
0096066890999992011011203004+47367+008950FM-12+114499999V0202701N008719999999N9999999N1+00021-00011999999ADDMA1999999088771ME1314819REMSYN060AAXX  12034 06689 43/// /2717 10002 21001 38877 48481 5////;
0096066890999992011011204004+47367+008950FM-12+114499999V0202701N008719999999N9999999N1+00041+00021999999ADDMA1999999088781ME1314829REMSYN060AAXX  12044 06689 43/// /2717 10004 20002 38878 48482 5////;
0112066890999992011011205004+47367+008950FM-12+114499999V0202801N008219999999N9999999N1+00041+00021999999ADDMA1999999088841ME1314879REMSYN076AAXX  12054 06689 33/// /2816 10004 20002 38884 48487 5//// 333 553// 20000;
0150066890999992011011206004+47367+008950FM-12+114499999V0202801N007219999999N9999999N1+00011+00001999999ADDAA124002591GJ101029KA1999N-00111MA1999999088941ME1314969REMSYN082AAXX  12064 06689 43/// /2814 10001 20000 38894 48496 5//// 333 21011 55017 70025;
0155066890999992011011207004+47367+008950FM-12+114499999V0202801N006719999999N9999999N1-00021-00021999999ADDMA1999999088981MD1110201+9999ME1314999OA149901491REMSYN094AAXX  12074 06689 23/// /2813 11002 21002 38898 48499 51020 333 55300 20000 69915 91129 91217;
0096066890999992011011208004+47367+008950FM-12+114499999V0202801N007219999999N9999999N1-00021-00021999999ADDMA1999999089001ME1315019REMSYN060AAXX  12084 06689 43/// /2814 11002 21002 38900 48501 5////;
0096066890999992011011209004+47367+008950FM-12+114499999V0202801N006219999999N9999999N1+00001+00001999999ADDMA1999999089041ME1315059REMSYN060AAXX  12094 06689 43/// /2812 10000 20000 38904 48505 5////;
0149066890999992011011210004+47367+008950FM-12+114499999V0202701N006219999999N9999999N1+00031+00001999999ADDMA1999999089061MD1219999+9999ME1315079OA149900981REMSYN088AAXX  12104 06689 33/// /2712 10003 20000 38906 48507 52/// 333 55300 20119 91119 91212;
0126066890999992011011211004+47367+008950FM-12+114499999V0202601N006219999999N9999999N1+00061+00021999999ADDMA1999999089031MD1010031+9999ME1315059REMSYN076AAXX  12114 06689 33/// /2612 10006 20002 38903 48505 50003 333 55300 20364;
0096066890999992011011212004+47367+008950FM-12+114499999V0202501N007219999999N9999999N1+00071+00021999999ADDMA1999999089031ME1315059REMSYN060AAXX  12124 06689 43/// /2514 10007 20002 38903 48505 5////;
0096066890999992011011213004+47367+008950FM-12+114499999V0202501N006719999999N9999999N1+00081-00011999999ADDMA1999999088991ME1315019REMSYN060AAXX  12134 06689 43/// /2513 10008 21001 38899 48501 5////;
0096066890999992011011214004+47367+008950FM-12+114499999V0202701N006719999999N9999999N1+00071+00031999999ADDMA1999999089001ME1315029REMSYN060AAXX  12144 06689 43/// /2713 10007 20003 38900 48502 5////;
0096066890999992011011215004+47367+008950FM-12+114499999V0202501N008719999999N9999999N1+00051+00021999999ADDMA1999999088981ME1315009REMSYN060AAXX  12154 06689 43/// /2517 10005 20002 38898 48500 5////;
0155066890999992011011216004+47367+008950FM-12+114499999V0202501N010319999999N9999999N1+00041+00011999999ADDMA1999999088981MD1010011+9999ME1315009OA149901601REMSYN094AAXX  12164 06689 23/// /2520 10004 20001 38898 48500 50001 333 55300 20004 69925 91131 91222;
0155066890999992011011217004+47367+008950FM-12+114499999V0202401N010819999999N9999999N1+00061+00011999999ADDMA1999999088951MD1710051+9999ME1314979OA149901651REMSYN094AAXX  12174 06689 23/// /2421 10006 20001 38895 48497 57005 333 55300 20000 69915 91132 91222;
0191066890999992011011218004+47367+008950FM-12+114499999V0202501N011819999999N9999999N1+00091+00001999999ADDAA112000591KA1120M+00101MA1999999088941MD1710041+9999ME1314979OA149901651REMSYN106AAXX  12184 06689 03/// /2523 10009 20000 38894 48497 57004 69952 333 10010 55300 20000 60005 91132 91223;
0149066890999992011011219004+47367+008950FM-12+114499999V0202501N010319999999N9999999N1+00091+00011999999ADDMA1999999088961MD1710021+9999ME1314999OA149901651REMSYN088AAXX  12194 06689 33/// /2520 10009 20001 38896 48499 57002 333 55300 20000 91132 91223;
0155066890999992011011220004+47367+008950FM-12+114499999V0202501N009819999999N9999999N1+00101+00051999999ADDMA1999999088941MD1710011+9999ME1314979OA149901651REMSYN094AAXX  12204 06689 23/// /2519 10010 20005 38894 48497 57001 333 55300 20000 69915 91132 91223;
0149066890999992011011221004+47367+008950FM-12+114499999V0202501N010819999999N9999999N1+00241+00201999999ADDMA1999999088951MD1010011+9999ME1315009OA149901651REMSYN088AAXX  12214 06689 33/// /2521 10024 20020 38895 48500 50001 333 55300 20000 91132 91223;
0155066890999992011011222004+47367+008950FM-12+114499999V0202501N009319999999N9999999N1+00201+00181999999ADDMA1999999088951MD1510011+9999ME1314999OA149901651REMSYN094AAXX  12224 06689 23/// /2518 10020 20018 38895 48499 55001 333 55300 20000 69985 91132 91222;
0155066890999992011011223004+47367+008950FM-12+114499999V0202501N009319999999N9999999N1+00211+00191999999ADDMA1999999088961MD1210021+9999ME1315009OA149901651REMSYN094AAXX  12234 06689 23/// /2518 10021 20019 38896 48500 52002 333 55300 20000 60015 91132 91221;
0172066890999992011011300004+47367+008950FM-12+114499999V0202501N009819999999N9999999N1+00241+00221999999ADDAA106004191MA1999999088971MD1210021+9999ME1315029OA149901651REMSYN100AAXX  13004 06689 03/// /2519 10024 20022 38897 48502 52002 60041 333 55300 20000 60025 91132 91223;
0155066890999992011011301004+47367+008950FM-12+114499999V0202401N010819999999N9999999N1+00381+00361999999ADDMA1999999088921MD1810031+9999ME1314999OA149901701REMSYN094AAXX  13014 06689 23/// /2421 10038 20036 38892 48499 58003 333 55300 20000 60015 91133 91222;
0155066890999992011011302004+47367+008950FM-12+114499999V0202501N012319999999N9999999N1+00451+00411999999ADDMA1999999088901MD1719999+9999ME1314989OA149902061REMSYN094AAXX  13024 06689 23/// /2524 10045 20041 38890 48498 57/// 333 55300 20000 69945 91140 91226;
0096066890999992011011303004+47367+008950FM-12+114499999V0202501N010819999999N9999999N1+00421+00391999999ADDMA1999999088881ME1314969REMSYN060AAXX  13034 06689 43/// /2521 10042 20039 38888 48496 5////;
0155066890999992011011304004+47367+008950FM-12+114499999V0202501N011319999999N9999999N1+00431+00411999999ADDMA1999999088901MD1019999+9999ME1314989OA149901961REMSYN094AAXX  13044 06689 23/// /2522 10043 20041 38890 48498 50/// 333 55300 20000 69945 91138 91223;
0118066890999992011011305004+47367+008950FM-12+114499999V0202701N009319999999N9999999N1+00441+00421999999ADDMA1999999088931ME1315019REMSYN082AAXX  13054 06689 23/// /2718 10044 20042 38893 48501 5//// 333 553// 20000 60025;
0221066890999992011011306004+47367+008950FM-12+114499999V0202601N008219999999N9999999N1+00421+00401999999ADDAA112008991AL13000991GJ100009KA1999N+00081MA1999999088941MD1210061+9999ME1315019OA149902061REMSYN118AAXX  13064 06689 03/// /2616 10042 20040 38894 48501 52006 60092 333 20008 55000 55300 20000 60015 70095 91140 91226;
0096066890999992011011307004+47367+008950FM-12+114499999V0202501N012919999999N9999999N1+00481+00441999999ADDMA1999999088911ME1315009REMSYN060AAXX  13074 06689 43/// /2525 10048 20044 38891 48500 5////;
0096066890999992011011308004+47367+008950FM-12+114499999V0202501N012919999999N9999999N1+00501+00471999999ADDMA1999999088941ME1315039REMSYN060AAXX  13084 06689 43/// /2525 10050 20047 38894 48503 5////;
0096066890999992011011309004+47367+008950FM-12+114499999V0202501N010819999999N9999999N1+00501+00471999999ADDMA1999999088961ME1315049REMSYN060AAXX  13094 06689 43/// /2521 10050 20047 38896 48504 5////;
0096066890999992011011310004+47367+008950FM-12+114499999V0202701N009819999999N9999999N1+00511+00481999999ADDMA1999999089041ME1315129REMSYN060AAXX  13104 06689 43/// /2719 10051 20048 38904 48512 5////;
0096066890999992011011311004+47367+008950FM-12+114499999V0202601N008719999999N9999999N1+00501+00481999999ADDMA1999999089021ME1315109REMSYN060AAXX  13114 06689 43/// /2617 10050 20048 38902 48510 5////;
0096066890999992011011312004+47367+008950FM-12+114499999V0202601N010319999999N9999999N1+00531+00481999999ADDMA1999999088931ME1315029REMSYN060AAXX  13124 06689 43/// /2620 10053 20048 38893 48502 5////;
0096066890999992011011313004+47367+008950FM-12+114499999V0202701N010319999999N9999999N1+00531+00491999999ADDMA1999999088901ME1314999REMSYN060AAXX  13134 06689 43/// /2720 10053 20049 38890 48499 5////;
0096066890999992011011314004+47367+008950FM-12+114499999V0202701N009819999999N9999999N1+00591+00491999999ADDMA1999999088971ME1315069REMSYN060AAXX  13144 06689 43/// /2719 10059 20049 38897 48506 5////;
0096066890999992011011315004+47367+008950FM-12+114499999V0202601N010819999999N9999999N1+00611+00441999999ADDMA1999999088991ME1315099REMSYN060AAXX  13154 06689 43/// /2621 10061 20044 38899 48509 5////;
0096066890999992011011316004+47367+008950FM-12+114499999V0202501N012319999999N9999999N1+00631+00431999999ADDMA1999999088991ME1315099REMSYN060AAXX  13164 06689 43/// /2524 10063 20043 38899 48509 5////;
0149066890999992011011317004+47367+008950FM-12+114499999V0202701N008719999999N9999999N1+00641+00441999999ADDMA1999999089011MD1210041+9999ME1315119OA149901851REMSYN088AAXX  13174 06689 33/// /2717 10064 20044 38901 48511 52004 333 55300 20000 91136 91224;
0191066890999992011011318004+47367+008950FM-12+114499999V0202801N008719999999N9999999N1+00631+00461999999ADDAA112007991KA1120M+00661MA1999999089041MD1210051+9999ME1315139OA149902211REMSYN106AAXX  13184 06689 03/// /2817 10063 20046 38904 48513 52005 60082 333 10066 55300 20000 60005 91143 91225;
0155066890999992011011319004+47367+008950FM-12+114499999V0202701N008719999999N9999999N1+00591+00521999999ADDMA1999999089051MD1210061+9999ME1315149OA149901651REMSYN094AAXX  13194 06689 23/// /2717 10059 20052 38905 48514 52006 333 55300 20000 69935 91132 91219;
0155066890999992011011320004+47367+008950FM-12+114499999V0202701N007719999999N9999999N1+00571+00551999999ADDMA1999999089051MD1010041+9999ME1315149OA149901601REMSYN094AAXX  13204 06689 23/// /2715 10057 20055 38905 48514 50004 333 55300 20000 69925 91131 91219;
0149066890999992011011321004+47367+008950FM-12+114499999V0202701N008219999999N9999999N1+00571+00531999999ADDMA1999999089061MD1010021+9999ME1315149OA149901851REMSYN088AAXX  13214 06689 33/// /2716 10057 20053 38906 48514 50002 333 55300 20000 91136 91224;
0155066890999992011011322004+47367+008950FM-12+114499999V0202701N008219999999N9999999N1+00561+00531999999ADDMA1999999089041MD1710011+9999ME1315129OA149901241REMSYN094AAXX  13224 06689 23/// /2716 10056 20053 38904 48512 57001 333 55300 20000 69925 91124 91216;
0155066890999992011011323004+47367+008950FM-12+114499999V0202701N009319999999N9999999N1+00551+00531999999ADDMA1999999089041MD1710011+9999ME1315129OA149901601REMSYN094AAXX  13234 06689 23/// /2718 10055 20053 38904 48512 57001 333 55300 20000 69935 91131 91218;
0172066890999992011011400004+47367+008950FM-12+114499999V0202701N008719999999N9999999N1+00531+00501999999ADDAA106001091MA1999999089041MD1710021+9999ME1315129OA149901851REMSYN100AAXX  14004 06689 03/// /2717 10053 20050 38904 48512 57002 60011 333 55300 20000 69915 91136 91224;
0155066890999992011011401004+47367+008950FM-12+114499999V0202601N007719999999N9999999N1+00531+00481999999ADDMA1999999089061MD1310021+9999ME1315149OA149901441REMSYN094AAXX  14014 06689 23/// /2615 10053 20048 38906 48514 53002 333 55300 20000 69915 91128 91219;
0112066890999992011011402004+47367+008950FM-12+114499999V0202501N008719999999N9999999N1+00541+00451999999ADDMA1999999089101ME1315189REMSYN076AAXX  14024 06689 33/// /2517 10054 20045 38910 48518 5//// 333 553// 20000;
0149066890999992011011403004+47367+008950FM-12+114499999V0202501N007219999999N9999999N1+00541+00471999999ADDMA1999999089121MD1210081+9999ME1315199OA149901601REMSYN088AAXX  14034 06689 33/// /2514 10054 20047 38912 48519 52008 333 55300 20000 91131 91219;
0149066890999992011011404004+47367+008950FM-12+114499999V0202501N008219999999N9999999N1+00551+00441999999ADDMA1999999089091MD1010031+9999ME1315179OA149901241REMSYN088AAXX  14044 06689 33/// /2516 10055 20044 38909 48517 50003 333 55300 20000 91124 91219;
0149066890999992011011405004+47367+008950FM-12+114499999V0202501N007219999999N9999999N1+00511+00421999999ADDMA1999999089091MD1710011+9999ME1315169OA149901181REMSYN088AAXX  14054 06689 33/// /2514 10051 20042 38909 48516 57001 333 55300 20000 91123 91217;
0221066890999992011011406004+47367+008950FM-12+114499999V0202601N007219999999N9999999N1+00491+00381999999ADDAA112001091AL10600991GJ100069KA1999N+00511MA1999999089101MD1510021+9999ME1315179OA149901601REMSYN118AAXX  14064 06689 03/// /2614 10049 20038 38910 48517 55002 60012 333 20051 55001 55300 20000 60005 70091 91131 91219;
0149066890999992011011407004+47367+008950FM-12+114499999V0202601N006219999999N9999999N1+00481+00361999999ADDMA1999999089131MD1210041+9999ME1315209OA149901441REMSYN088AAXX  14074 06689 33/// /2612 10048 20036 38913 48520 52004 333 55300 20000 91128 91217;
0096066890999992011011408004+47367+008950FM-12+114499999V0202501N006719999999N9999999N1+00471+00371999999ADDMA1999999089111ME1315189REMSYN060AAXX  14084 06689 43/// /2513 10047 20037 38911 48518 5////;
0096066890999992011011409004+47367+008950FM-12+114499999V0202701N005719999999N9999999N1+00461+00351999999ADDMA1999999089121ME1315189REMSYN060AAXX  14094 06689 43/// /2711 10046 20035 38912 48518 5////;
0096066890999992011011410004+47367+008950FM-12+114499999V0202501N004619999999N9999999N1+00471+00361999999ADDMA1999999089101ME1315179REMSYN060AAXX  14104 06689 43/// /2509 10047 20036 38910 48517 5////;
0149066890999992011011411004+47367+008950FM-12+114499999V0202701N004119999999N9999999N1+00471+00351999999ADDMA1999999089091MD1710021+9999ME1315169OA149901031REMSYN088AAXX  14114 06689 33/// /2708 10047 20035 38909 48516 57002 333 55300 20284 91120 91213;
0149066890999992011011412004+47367+008950FM-12+114499999V0202701N004619999999N9999999N1+00481+00341999999ADDMA1999999089051MD1710071+9999ME1315129OA149901441REMSYN088AAXX  14124 06689 33/// /2709 10048 20034 38905 48512 57007 333 55300 20277 91128 91219;
0149066890999992011011413004+47367+008950FM-12+114499999V0202801N004119999999N9999999N1+00481+00291999999ADDMA1999999089001MD1810101+9999ME1315089OA149900881REMSYN088AAXX  14134 06689 33/// /2808 10048 20029 38900 48508 58010 333 55300 20392 91117 91210;
0112066890999992011011414004+47367+008950FM-12+114499999V0202801N004619999999N9999999N1+00481+00231999999ADDMA1999999089011ME1315099REMSYN076AAXX  14144 06689 33/// /2809 10048 20023 38901 48509 5//// 333 553// 20277;
0149066890999992011011415004+47367+008950FM-12+114499999V0202501N004119999999N9999999N1+00471+00201999999ADDMA1999999089011MD1710041+9999ME1315089OA149901031REMSYN088AAXX  14154 06689 33/// /2508 10047 20020 38901 48508 57004 333 55300 20176 91120 91213;
0149066890999992011011416004+47367+008950FM-12+114499999V0202401N003119999999N9999999N1+00421+00201999999ADDMA1999999088981MD1810021+9999ME1315059OA149900721REMSYN088AAXX  14164 06689 33/// /2406 10042 20020 38898 48505 58002 333 55300 20061 91114 91209;
0149066890999992011011417004+47367+008950FM-12+114499999V0202201N004119999999N9999999N1+00381+00271999999ADDMA1999999088941MD1710071+9999ME1315019OA149900621REMSYN088AAXX  14174 06689 33/// /2208 10038 20027 38894 48501 57007 333 55300 20000 91112 91208;
0168066890999992011011418004+47367+008950FM-12+114499999V0202101N004119999999N9999999N1+00341+00321999999ADDKA1120M+00501MA1999999088881MD1810131+9999ME1314959OA149901291REMSYN094AAXX  14184 06689 33/// /2108 10034 20032 38888 48495 58013 333 10050 55300 20000 91125 91217;
0149066890999992011011419004+47367+008950FM-12+114499999V0202201N006719999999N9999999N1+00341+00321999999ADDMA1999999088851MD1710131+9999ME1314929OA149900881REMSYN088AAXX  14194 06689 33/// /2213 10034 20032 38885 48492 57013 333 55300 20000 91117 91213;
0149066890999992011011420004+47367+008950FM-12+114499999V0202401N007219999999N9999999N1+00361+00281999999ADDMA1999999088851MD1710091+9999ME1314929OA149900981REMSYN088AAXX  14204 06689 33/// /2414 10036 20028 38885 48492 57009 333 55300 20000 91119 91214;
0149066890999992011011421004+47367+008950FM-12+114499999V0202501N009819999999N9999999N1+00401+00261999999ADDMA1999999088871MD1510011+9999ME1314959OA149901341REMSYN088AAXX  14214 06689 33/// /2519 10040 20026 38887 48495 55001 333 55300 20000 91126 91219;
0149066890999992011011422004+47367+008950FM-12+114499999V0202801N008719999999N9999999N1+00371+00291999999ADDMA1999999088971MD1210121+9999ME1315039OA149901491REMSYN088AAXX  14224 06689 33/// /2817 10037 20029 38897 48503 52012 333 55300 20000 91129 91219;
0149066890999992011011423004+47367+008950FM-12+114499999V0202601N008719999999N9999999N1+00361+00271999999ADDMA1999999089001MD1310151+9999ME1315069OA149901651REMSYN088AAXX  14234 06689 33/// /2617 10036 20027 38900 48506 53015 333 55300 20000 91132 91218;
0149066890999992011011500004+47367+008950FM-12+114499999V0202601N010819999999N9999999N1+00371+00231999999ADDMA1999999089041MD1110171+9999ME1315109OA149901701REMSYN088AAXX  15004 06689 33/// /2621 10037 20023 38904 48510 51017 333 55300 20000 91133 91222;
0149066890999992011011501004+47367+008950FM-12+114499999V0202601N009319999999N9999999N1+00371+00201999999ADDMA1999999089101MD1310131+9999ME1315159OA149902011REMSYN088AAXX  15014 06689 33/// /2618 10037 20020 38910 48515 53013 333 55300 20000 91139 91222;
0155066890999992011011502004+47367+008950FM-12+114499999V0202801N010319999999N9999999N1+00271+00271999999ADDMA1999999089211MD1319999+9999ME1315249OA149902011REMSYN094AAXX  15024 06689 23/// /2820 10027 20027 38921 48524 53/// 333 55300 20000 60035 91139 91222;
0118066890999992011011503004+47367+008950FM-12+114499999V0202701N010319999999N9999999N1+00311+00301999999ADDMA1999999089241ME1315279REMSYN082AAXX  15034 06689 23/// /2720 10031 20030 38924 48527 5//// 333 553// 20000 69985;
0149066890999992011011504004+47367+008950FM-12+114499999V0202901N009319999999N9999999N1+00281+00281999999ADDMA1999999089331MD1110231+9999ME1315359OA149901901REMSYN088AAXX  15044 06689 33/// /2918 10028 20028 38933 48535 51023 333 55300 20000 91137 91220;
0149066890999992011011505004+47367+008950FM-12+114499999V0202801N008219999999N9999999N1+00251+00251999999ADDMA1999999089421MD1310211+9999ME1315429OA149901901REMSYN088AAXX  15054 06689 33/// /2816 10025 20025 38942 48542 53021 333 55300 20000 91137 91220;
0221066890999992011011506004+47367+008950FM-12+114499999V0202701N006719999999N9999999N1+00211+00191999999ADDAA112004191AL14800391GJ100009KA1999N+00221MA1999999089531MD1310291+9999ME1315519OA149902011REMSYN118AAXX  15064 06689 03/// /2713 10021 20019 38953 48551 53029 60042 333 20022 55000 55300 20000 60005 70038 91139 91222;
0149066890999992011011507004+47367+008950FM-12+114499999V0202601N006219999999N9999999N1+00221+00181999999ADDMA1999999089581MD1110251+9999ME1315569OA149901391REMSYN088AAXX  15074 06689 33/// /2612 10022 20018 38958 48556 51025 333 55300 20000 91127 91216;
0149066890999992011011508004+47367+008950FM-12+114499999V0202401N005719999999N9999999N1+00241+00181999999ADDMA1999999089611MD1219999+9999ME1315599OA149901181REMSYN088AAXX  15084 06689 33/// /2411 10024 20018 38961 48559 52/// 333 55300 20047 91123 91213;
0149066890999992011011509004+47367+008950FM-12+114499999V0202401N005119999999N9999999N1+00231+00161999999ADDMA1999999089641MD1210111+9999ME1315629OA149901901REMSYN088AAXX  15094 06689 33/// /2410 10023 20016 38964 48562 52011 333 55301 20263 91137 91220;
0149066890999992011011510004+47367+008950FM-12+114499999V0202501N004619999999N9999999N1+00361+00241999999ADDMA1999999089661MD1210081+9999ME1315659OA149900881REMSYN088AAXX  15104 06689 33/// /2509 10036 20024 38966 48565 52008 333 55303 20774 91117 91211;
0149066890999992011011511004+47367+008950FM-12+114499999V0202601N003619999999N9999999N1+00351+00171999999ADDMA1999999089611MD1010001+9999ME1315619OA149900821REMSYN088AAXX  15114 06689 33/// /2607 10035 20017 38961 48561 50000 333 55300 20515 91116 91210;
0149066890999992011011512004+47367+008950FM-12+114499999V0202401N005119999999N9999999N1+00451+00211999999ADDMA1999999089601MD1710041+9999ME1315629OA149902011REMSYN088AAXX  15124 06689 33/// /2410 10045 20021 38960 48562 57004 333 55302 20850 91139 91222;
0112066890999992011011513004+47367+008950FM-12+114499999V0202701N002119999999N9999999N1+00451+00211999999ADDMA1999999089581ME1315609REMSYN076AAXX  15134 06689 33/// /2704 10045 20021 38958 48560 5//// 333 553// 2////;
0096066890999992011011514004+47367+008950FM-12+114499999V0202501N003119999999N9999999N1+00431+00181999999ADDMA1999999089631ME1315649REMSYN060AAXX  15144 06689 43/// /2506 10043 20018 38963 48564 5////;
0096066890999992011011515004+47367+008950FM-12+114499999V0202501N002619999999N9999999N1+00461+00191999999ADDMA1999999089651ME1315669REMSYN060AAXX  15154 06689 43/// /2505 10046 20019 38965 48566 5////;
0096066890999992011011516004+47367+008950FM-12+114499999V0202201N003119999999N9999999N1+00381+00191999999ADDMA1999999089671ME1315679REMSYN060AAXX  15164 06689 43/// /2206 10038 20019 38967 48567 5////;
0112066890999992011011517004+47367+008950FM-12+114499999V0202101N005119999999N9999999N1+00331+00191999999ADDMA1999999089661ME1315659REMSYN076AAXX  15174 06689 33/// /2110 10033 20019 38966 48565 5//// 333 553// 20000;
0119066890999992011011518004+47367+008950FM-12+114499999V0202001N006219999999N9999999N1+00391+00051999999ADDKA1999M+00501MA1999999089651ME1315659REMSYN070AAXX  15184 06689 43/// /2012 10039 20005 38965 48565 5//// 333 10050;
0096066890999992011011519004+47367+008950FM-12+114499999V0202101N006719999999N9999999N1+00571-00381999999ADDMA1999999089681ME1315719REMSYN060AAXX  15194 06689 43/// /2113 10057 21038 38968 48571 5////;
0096066890999992011011520004+47367+008950FM-12+114499999V0202101N007719999999N9999999N1+00471-00191999999ADDMA1999999089641ME1315659REMSYN060AAXX  15204 06689 43/// /2115 10047 21019 38964 48565 5////;
0149066890999992011011521004+47367+008950FM-12+114499999V0202201N006719999999N9999999N1+00381-00081999999ADDMA1999999089681MD1310031+9999ME1315689OA149900981REMSYN088AAXX  15214 06689 33/// /2213 10038 21008 38968 48568 53003 333 55300 20000 91119 91216;
0149066890999992011011522004+47367+008950FM-12+114499999V0202101N006219999999N9999999N1+00531-00471999999ADDMA1999999089681MD1410001+9999ME1315709OA149900881REMSYN088AAXX  15224 06689 33/// /2112 10053 21047 38968 48570 52000 333 55300 20000 91117 91214;
0149066890999992011011523004+47367+008950FM-12+114499999V0202201N005719999999N9999999N1+00511-00421999999ADDMA1999999089681MD1210041+9999ME1315709OA149900821REMSYN088AAXX  15234 06689 33/// /2211 10051 21042 38968 48570 52004 333 55300 20000 91116 91213;
0149066890999992011011600004+47367+008950FM-12+114499999V0201901N006219999999N9999999N1+00571-00641999999ADDMA1999999089631MD1810051+9999ME1315669OA149900981REMSYN088AAXX  16004 06689 33/// /1912 10057 21064 38963 48566 58005 333 55300 20000 91119 91216;
0149066890999992011011601004+47367+008950FM-12+114499999V0202101N003619999999N9999999N1+00891-01361999999ADDMA1999999089621MD1710061+9999ME1315709OA149900821REMSYN088AAXX  16014 06689 33/// /2107 10089 21136 38962 48570 57006 333 55300 20000 91116 91213;
0149066890999992011011602004+47367+008950FM-12+114499999V0200801N002619999999N9999999N1+00771-01211999999ADDMA1999999089621MD1519999+9999ME1315689OA149900821REMSYN088AAXX  16024 06689 33/// /0805 10077 21121 38962 48568 55/// 333 55300 20000 91116 91212;
0096066890999992011011603004+47367+008950FM-12+114499999V0201201N003619999999N9999999N1+00701-01111999999ADDMA1999999089601ME1315669REMSYN060AAXX  16034 06689 43/// /1207 10070 21111 38960 48566 5////;
0149066890999992011011604004+47367+008950FM-12+114499999V0201401N001519999999N9999999N1+00921-01661999999ADDMA1999999089581MD1710041+9999ME1315679OA149900461REMSYN088AAXX  16044 06689 33/// /1403 10092 21166 38958 48567 57004 333 55300 20000 91109 91208;
0149066890999992011011605004+47367+008950FM-12+114499999V0201401N001019999999N9999999N1+00611-00951999999ADDMA1999999089581MD1710041+9999ME1315629OA149900461REMSYN088AAXX  16054 06689 33/// /1402 10061 21095 38958 48562 57004 333 55300 20000 91109 91208;
0217066890999992011011606004+47367+008950FM-12+114499999V0202101N002619999999N9999999N1+00451-00721999999ADDAL19900091GJ101149KA1999N+00321MA1999999089601MD1410001+9999ME1315629OA149900981REMSYN106AAXX  16064 06689 33/// /2105 10045 21072 38960 48562 53000 333 20032 55019 55300 20000 70000 91119 91216;EQDQ01+000032APCTEN
0149066890999992011011607004+47367+008950FM-12+114499999V0202101N003119999999N9999999N1+00481-00781999999ADDMA1999999089611MD1210031+9999ME1315639OA149900461REMSYN088AAXX  16074 06689 33/// /2106 10048 21078 38961 48563 52003 333 55300 20000 91109 91206;
0149066890999992011011608004+47367+008950FM-12+114499999V0202601N003619999999N9999999N1+00261-00131999999ADDMA1999999089651MD1219999+9999ME1315639OA149900511REMSYN088AAXX  16084 06689 33/// /2607 10026 21013 38965 48563 52/// 333 55303 20119 91110 91207;
0149066890999992011011609004+47367+008950FM-12+114499999V0202601N004119999999N9999999N1+00461-00151999999ADDMA1999999089661MD1110061+9999ME1315679OA149900511REMSYN088AAXX  16094 06689 33/// /2608 10046 21015 38966 48567 51006 333 553// 20626 91110 91208;
0149066890999992011011610004+47367+008950FM-12+114499999V0202501N002619999999N9999999N1+00551-00281999999ADDMA1999999089691MD1110081+9999ME1315719OA149900511REMSYN088AAXX  16104 06689 33/// /2505 10055 21028 38969 48571 51008 333 553// 2//// 91110 91208;
0149066890999992011011611004+47367+008950FM-12+114499999V0202401N000519999999N9999999N1+00701-00201999999ADDMA1999999089671MD1010021+9999ME1315729OA149900461REMSYN088AAXX  16114 06689 33/// /2401 10070 21020 38967 48572 50002 333 553// 2//// 91109 91207;
0149066890999992011011612004+47367+008950FM-12+114499999V0202201N001019999999N9999999N1+00821+00031999999ADDMA1999999089651MD1810011+9999ME1315729OA149900821REMSYN088AAXX  16124 06689 33/// /2202 10082 20003 38965 48572 58001 333 553// 2//// 91116 91212;
0149066890999992011011613004+47367+008950FM-12+114499999V0202101N002619999999N9999999N1+00841-00191999999ADDMA1999999089611MD1810081+9999ME1315699OA149900361REMSYN088AAXX  16134 06689 33/// /2105 10084 21019 38961 48569 58008 333 553// 2//// 91107 91205;
0149066890999992011011614004+47367+008950FM-12+114499999V0202301N004619999999N9999999N1+00911-00351999999ADDMA1999999089591MD1619999+9999ME1315689OA149900511REMSYN088AAXX  16144 06689 33/// /2309 10091 21035 38959 48568 56/// 333 553// 2//// 91110 91209;
0149066890999992011011615004+47367+008950FM-12+114499999V0202501N004619999999N9999999N1+00941-00731999999ADDMA1999999089591MD1610061+9999ME1315689OA149900571REMSYN088AAXX  16154 06689 33/// /2509 10094 21073 38959 48568 56006 333 553// 20641 91111 91209;
0149066890999992011011616004+47367+008950FM-12+114499999V0202601N006219999999N9999999N1+00941-01021999999ADDMA1999999089561MD1810051+9999ME1315669OA149900821REMSYN088AAXX  16164 06689 33/// /2612 10094 21102 38956 48566 58005 333 55304 20173 91116 91212;
0149066890999992011011617004+47367+008950FM-12+114499999V0202601N006719999999N9999999N1+00861-00771999999ADDMA1999999089571MD1710021+9999ME1315659OA149900821REMSYN088AAXX  16174 06689 33/// /2613 10086 21077 38957 48565 57002 333 55300 20000 91116 91213;
0187066890999992011011618004+47367+008950FM-12+114499999V0202401N006719999999N9999999N1+00761-00631999999ADDKA1120M+00981MA1999999089591MD1410001+9999ME1315669OA149900821REMSYN094AAXX  16184 06689 33/// /2413 10076 21063 38959 48566 53000 333 10098 55300 20000 91116 91213;EQDQ01+000032APCTEN
0149066890999992011011619004+47367+008950FM-12+114499999V0202501N006719999999N9999999N1+00901-00921999999ADDMA1999999089601MD1110041+9999ME1315699OA149900881REMSYN088AAXX  16194 06689 33/// /2513 10090 21092 38960 48569 51004 333 55300 20000 91117 91214;
0149066890999992011011620004+47367+008950FM-12+114499999V0202501N006719999999N9999999N1+00921-00981999999ADDMA1999999089611MD1210041+9999ME1315709OA149900881REMSYN088AAXX  16204 06689 33/// /2513 10092 21098 38961 48570 52004 333 55300 20000 91117 91214;
0149066890999992011011621004+47367+008950FM-12+114499999V0202501N007219999999N9999999N1+00941-00901999999ADDMA1999999089621MD1210031+9999ME1315719OA149900981REMSYN088AAXX  16214 06689 33/// /2514 10094 21090 38962 48571 52003 333 55300 20000 91119 91214;
0149066890999992011011622004+47367+008950FM-12+114499999V0202401N006219999999N9999999N1+00901-00781999999ADDMA1999999089631MD1110031+9999ME1315719OA149901031REMSYN088AAXX  16224 06689 33/// /2412 10090 21078 38963 48571 51003 333 55300 20000 91120 91215;
0149066890999992011011623004+47367+008950FM-12+114499999V0202501N006719999999N9999999N1+00871-00751999999ADDMA1999999089631MD1110021+9999ME1315719OA149901031REMSYN088AAXX  16234 06689 33/// /2513 10087 21075 38963 48571 51002 333 55300 20000 91120 91215;
0149066890999992011011700004+47367+008950FM-12+114499999V0202501N007219999999N9999999N1+00801-00701999999ADDMA1999999089611MD1810011+9999ME1315689OA149901031REMSYN088AAXX  17004 06689 33/// /2514 10080 21070 38961 48568 58001 333 55300 20000 91120 91215;
0149066890999992011011701004+47367+008950FM-12+114499999V0202501N007219999999N9999999N1+00801-00681999999ADDMA1999999089601MD1710031+9999ME1315679OA149900981REMSYN088AAXX  17014 06689 33/// /2514 10080 21068 38960 48567 57003 333 55300 20000 91119 91215;
0149066890999992011011702004+47367+008950FM-12+114499999V0202501N006719999999N9999999N1+00821-00781999999ADDMA1999999089601MD1719999+9999ME1315679OA149900981REMSYN088AAXX  17024 06689 33/// /2513 10082 21078 38960 48567 57/// 333 55300 20000 91119 91215;
0112066890999992011011703004+47367+008950FM-12+114499999V0202401N005119999999N9999999N1+00821-00731999999ADDMA1999999089591ME1315679REMSYN076AAXX  17034 06689 33/// /2410 10082 21073 38959 48567 5//// 333 553// 20000;
0149066890999992011011704004+47367+008950FM-12+114499999V0202301N005119999999N9999999N1+00781-00671999999ADDMA1999999089561MD1710041+9999ME1315639OA149900821REMSYN088AAXX  17044 06689 33/// /2310 10078 21067 38956 48563 57004 333 55300 20000 91116 91212;
0149066890999992011011705004+47367+008950FM-12+114499999V0202401N004619999999N9999999N1+00841-00671999999ADDMA1999999089531MD1810071+9999ME1315619OA149900671REMSYN088AAXX  17054 06689 33/// /2409 10084 21067 38953 48561 58007 333 55300 20000 91113 91211;
0198066890999992011011706004+47367+008950FM-12+114499999V0202501N002619999999N9999999N1+00791-00661999999ADDAL19900091GJ104629KA1999N+00721MA1999999089521MD1710071+9999ME1315609OA149901031REMSYN106AAXX  17064 06689 33/// /2505 10079 21066 38952 48560 57007 333 20072 55077 55300 20000 70000 91120 91215;
0149066890999992011011707004+47367+008950FM-12+114499999V0202501N002119999999N9999999N1+00781-00641999999ADDMA1999999089511MD1710051+9999ME1315599OA149900461REMSYN088AAXX  17074 06689 33/// /2504 10078 21064 38951 48559 57005 333 55300 20000 91109 91207;
0096066890999992011011708004+47367+008950FM-12+114499999V0202001N002119999999N9999999N1+00771-00581999999ADDMA1999999089491ME1315579REMSYN060AAXX  17084 06689 43/// /2004 10077 21058 38949 48557 5////;
0096066890999992011011709004+47367+008950FM-12+114499999V0201801N002119999999N9999999N1+00861-00531999999ADDMA1999999089471ME1315569REMSYN060AAXX  17094 06689 43/// /1804 10086 21053 38947 48556 5////;
0149066890999992011011710004+47367+008950FM-12+114499999V0202401N001019999999N9999999N1+00841-00321999999ADDMA1999999089471MD1710041+9999ME1315569OA149900361REMSYN088AAXX  17104 06689 33/// /2402 10084 21032 38947 48556 57004 333 553// 2//// 91107 91206;
0149066890999992011011711004+47367+008950FM-12+114499999V0202401N001019999999N9999999N1+00791-00241999999ADDMA1999999089451MD1710041+9999ME1315539OA149900361REMSYN088AAXX  17114 06689 33/// /2402 10079 21024 38945 48553 57004 333 553// 2//// 91107 91204;
0149066890999992011011712004+47367+008950FM-12+114499999V0202501N004119999999N9999999N1+00661-00211999999ADDMA1999999089451MD1710021+9999ME1315519OA149900981REMSYN088AAXX  17124 06689 33/// /2508 10066 21021 38945 48551 57002 333 553// 2//// 91119 91215;
0149066890999992011011713004+47367+008950FM-12+114499999V0202501N005119999999N9999999N1+00721-00291999999ADDMA1999999089461MD1710011+9999ME1315539OA149900721REMSYN088AAXX  17134 06689 33/// /2510 10072 21029 38946 48553 57001 333 553// 2//// 91114 91210;
0096066890999992011011714004+47367+008950FM-12+114499999V0202401N005119999999N9999999N1+00671-00251999999ADDMA1999999089471ME1315539REMSYN060AAXX  17144 06689 43/// /2410 10067 21025 38947 48553 5////;
0096066890999992011011715004+47367+008950FM-12+114499999V0202501N005119999999N9999999N1+00591-00221999999ADDMA1999999089501ME1315559REMSYN060AAXX  17154 06689 43/// /2510 10059 21022 38950 48555 5////;
0149066890999992011011716004+47367+008950FM-12+114499999V0202601N006219999999N9999999N1+00471-00241999999ADDMA1999999089511MD1310051+9999ME1315549OA149900981REMSYN088AAXX  17164 06689 33/// /2612 10047 21024 38951 48554 53005 333 55304 20166 91119 91212;
0149066890999992011011717004+47367+008950FM-12+114499999V0202601N006719999999N9999999N1+00381-00181999999ADDMA1999999089541MD1110071+9999ME1315559OA149901181REMSYN088AAXX  17174 06689 33/// /2613 10038 21018 38954 48555 51007 333 55300 20000 91123 91215;
0168066890999992011011718004+47367+008950FM-12+114499999V0202601N006219999999N9999999N1+00351-00121999999ADDKA1120M+00871MA1999999089571MD1310071+9999ME1315579OA149901181REMSYN094AAXX  17184 06689 33/// /2612 10035 21012 38957 48557 53007 333 10087 55300 20000 91123 91215;
0149066890999992011011719004+47367+008950FM-12+114499999V0202501N006219999999N9999999N1+00431-00171999999ADDMA1999999089591MD1110081+9999ME1315609OA149901031REMSYN088AAXX  17194 06689 33/// /2512 10043 21017 38959 48560 51008 333 55300 20000 91120 91214;
0149066890999992011011720004+47367+008950FM-12+114499999V0202501N005119999999N9999999N1+00461-00201999999ADDMA1999999089601MD1210061+9999ME1315629OA149900981REMSYN088AAXX  17204 06689 33/// /2510 10046 21020 38960 48562 52006 333 55300 20000 91119 91214;
0149066890999992011011721004+47367+008950FM-12+114499999V0202501N005119999999N9999999N1+00461-00211999999ADDMA1999999089601MD1210031+9999ME1315629OA149901181REMSYN088AAXX  17214 06689 33/// /2510 10046 21021 38960 48562 52003 333 55300 20000 91123 91215;
0149066890999992011011722004+47367+008950FM-12+114499999V0202501N006719999999N9999999N1+00511-00181999999ADDMA1999999089571MD1710021+9999ME1315609OA149900881REMSYN088AAXX  17224 06689 33/// /2513 10051 21018 38957 48560 57002 333 55300 20000 91117 91213;
0149066890999992011011723004+47367+008950FM-12+114499999V0202501N006719999999N9999999N1+00481-00181999999ADDMA1999999089571MD1710031+9999ME1315599OA149900931REMSYN088AAXX  17234 06689 33/// /2513 10048 21018 38957 48559 57003 333 55300 20000 91118 91214;
0149066890999992011011800004+47367+008950FM-12+114499999V0202601N005719999999N9999999N1+00461-00191999999ADDMA1999999089561MD1710041+9999ME1315589OA149901181REMSYN088AAXX  18004 06689 33/// /2611 10046 21019 38956 48558 57004 333 55300 20000 91123 91215;
0149066890999992011011801004+47367+008950FM-12+114499999V0202701N005119999999N9999999N1+00471-00211999999ADDMA1999999089571MD1019999+9999ME1315599OA149900881REMSYN088AAXX  18014 06689 33/// /2710 10047 21021 38957 48559 50/// 333 55300 20000 91117 91212;
0096066890999992011011802004+47367+008950FM-12+114499999V0202601N005119999999N9999999N1+00411-00201999999ADDMA1999999089581ME1315599REMSYN060AAXX  18024 06689 43/// /2610 10041 21020 38958 48559 5////;
0096066890999992011011803004+47367+008950FM-12+114499999V0202501N004619999999N9999999N1+00381-00241999999ADDMA1999999089551ME1315569REMSYN060AAXX  18034 06689 43/// /2509 10038 21024 38955 48556 5////;
0112066890999992011011804004+47367+008950FM-12+114499999V0202301N004119999999N9999999N1+00371-00201999999ADDMA1999999089511ME1315529REMSYN076AAXX  18044 06689 33/// /2308 10037 21020 38951 48552 5//// 333 553// 20000;
0149066890999992011011805004+47367+008950FM-12+114499999V0202301N003619999999N9999999N1+00401-00181999999ADDMA1999999089461MD1710121+9999ME1315489OA149900621REMSYN088AAXX  18054 06689 33/// /2307 10040 21018 38946 48548 57012 333 55300 20000 91112 91209;
0198066890999992011011806004+47367+008950FM-12+114499999V0202501N004119999999N9999999N1+00391-00211999999ADDAL19900091GJ104629KA1999N+00351MA1999999089471MD1710081+9999ME1315499OA149900981REMSYN106AAXX  18064 06689 33/// /2508 10039 21021 38947 48549 57008 333 20035 55077 55300 20000 70000 91119 91214;
0149066890999992011011807004+47367+008950FM-12+114499999V0202601N005119999999N9999999N1+00261-00261999999ADDMA1999999089491MD1510021+9999ME1315499OA149900671REMSYN088AAXX  18074 06689 33/// /2610 10026 21026 38949 48549 55002 333 55300 20000 91113 91210;
0096066890999992011011808004+47367+008950FM-12+114499999V0202701N005119999999N9999999N1+00251+00081999999ADDMA1999999089521ME1315519REMSYN060AAXX  18084 06689 43/// /2710 10025 20008 38952 48551 5////;
0096066890999992011011809004+47367+008950FM-12+114499999V0202401N004119999999N9999999N1+00311+00071999999ADDMA1999999089531ME1315539REMSYN060AAXX  18094 06689 43/// /2408 10031 20007 38953 48553 5////;
