0112066880999992011101114004+46850+009183FM-12+248099999V0202801N006719999999N9999999N1+00641-00501999999ADDMA1999999076101ME1431629REMSYN076AAXX  11144 06688 43/// /2813 10064 21050 37610 47162 5//// 333 553// 21912;
0149066880999992011101115004+46850+009183FM-12+248099999V0203001N009319999999N9999999N1+00681-00491999999ADDMA1999999076071MD1719999+9999ME1431609OA149901491REMSYN088AAXX  11154 06688 43/// /3018 10068 21049 37607 47160 57/// 333 55310 21278 91129 91219;
0149066880999992011101116004+46850+009183FM-12+248099999V0202901N011819999999N9999999N1+00681-00461999999ADDMA1999999076051MD1719999+9999ME1431589OA149901651REMSYN088AAXX  11164 06688 43/// /2923 10068 21046 37605 47158 57/// 333 55310 20616 91132 91223;
0149066880999992011101117004+46850+009183FM-12+248099999V0202901N012319999999N9999999N1+00681-00541999999ADDMA1999999076041MD1719999+9999ME1431579OA149901851REMSYN088AAXX  11174 06688 43/// /2924 10068 21054 37604 47157 57/// 333 55304 20122 91136 91230;
0131066880999992011101118004+46850+009183FM-12+248099999V0203001N007719999999N9999999N1+00711-00611999999ADDKA1120M+00731MA1999999076101ME1431649REMSYN082AAXX  11184 06688 43/// /3015 10071 21061 37610 47164 5//// 333 10073 553// 20004;
0126066880999992011101119004+46850+009183FM-12+248099999V0202701N005119999999N9999999N1+00621-00531999999ADDMA1999999076101MD1219999+9999ME1431629REMSYN076AAXX  11194 06688 43/// /2710 10062 21053 37610 47162 52/// 333 553// 20004;
0112066880999992011101120004+46850+009183FM-12+248099999V0202901N009819999999N9999999N1+00581-00341999999ADDMA1999999076081ME1431599REMSYN076AAXX  11204 06688 43/// /2919 10058 21034 37608 47159 5//// 333 553// 20004;
0112066880999992011101121004+46850+009183FM-12+248099999V0202701N010319999999N9999999N1+00601-00361999999ADDMA1999999076051ME1431569REMSYN076AAXX  11214 06688 43/// /2720 10060 21036 37605 47156 5//// 333 553// 20004;
0149066880999992011101122004+46850+009183FM-12+248099999V0202701N007219999999N9999999N1+00591-00451999999ADDMA1999999076071MD1719999+9999ME1431589OA149901391REMSYN088AAXX  11224 06688 43/// /2714 10059 21045 37607 47158 57/// 333 55300 20004 91127 91218;
0149066880999992011101123004+46850+009183FM-12+248099999V0202801N006219999999N9999999N1+00541-00571999999ADDMA1999999076061MD1719999+9999ME1431569OA149901241REMSYN088AAXX  11234 06688 43/// /2812 10054 21057 37606 47156 57/// 333 55300 20004 91124 91214;
0149066880999992011101200004+46850+009183FM-12+248099999V0202601N008719999999N9999999N1+00551-00751999999ADDMA1999999076021MD1819999+9999ME1431529OA149901651REMSYN088AAXX  12004 06688 43/// /2617 10055 21075 37602 47152 58/// 333 55300 20004 91132 91223;
0106066880999992011101206004+46850+009183FM-12+248099999V0202801N008219999999N9999999N1+00531-00591999999ADDMA1999999075901ME1431389REMSYN070AAXX  12064 06688 43/// /2816 10053 21059 37590 47138 5//// 333 55082;
0149066880999992011101207004+46850+009183FM-12+248099999V0202701N007219999999N9999999N1+00591-00571999999ADDMA1999999075931MD1319999+9999ME1431439OA149901341REMSYN088AAXX  12074 06688 43/// /2714 10059 21057 37593 47143 53/// 333 55309 20389 91126 91217;
0112066880999992011101208004+46850+009183FM-12+248099999V0202101N004619999999N9999999N1+00621-00491999999ADDMA1999999075951ME1431469REMSYN076AAXX  12084 06688 43/// /2109 10062 21049 37595 47146 5//// 333 553// 21102;
0149066880999992011101209004+46850+009183FM-12+248099999V0201901N002119999999N9999999N1+00651-00321999999ADDMA1999999075971MD1119999+9999ME1431499OA149901341REMSYN088AAXX  12094 06688 43/// /1904 10065 21032 37597 47149 51/// 333 55310 21753 91126 91217;
0149066880999992011101210004+46850+009183FM-12+248099999V0202801N008219999999N9999999N1+00731-00551999999ADDMA1999999075971MD1219999+9999ME1431519OA149901291REMSYN088AAXX  12104 06688 43/// /2816 10073 21055 37597 47151 52/// 333 55310 22142 91125 91216;
0149066880999992011101211004+46850+009183FM-12+248099999V0202601N004619999999N9999999N1+00671-00261999999ADDMA1999999075941MD1819999+9999ME1431469OA149901541REMSYN088AAXX  12114 06688 43/// /2609 10067 21026 37594 47146 58/// 333 55310 22398 91130 91220;
0112066880999992011101212004+46850+009183FM-12+248099999V0202801N011319999999N9999999N1+00741-00451999999ADDMA1999999075881ME1431419REMSYN076AAXX  12124 06688 43/// /2822 10074 21045 37588 47141 5//// 333 553// 22488;
0112066880999992011101214004+46850+009183FM-12+248099999V0202801N011319999999N9999999N1+00731-00541999999ADDMA1999999075831ME1431369REMSYN076AAXX  12144 06688 43/// /2822 10073 21054 37583 47136 5//// 333 553// 21858;
0149066880999992011101215004+46850+009183FM-12+248099999V0202801N013919999999N9999999N1+00711-00591999999ADDMA1999999075781MD1710101+9999ME1431309OA149902111REMSYN088AAXX  12154 06688 43/// /2827 10071 21059 37578 47130 57010 333 55310 21325 91141 91227;
0149066880999992011101216004+46850+009183FM-12+248099999V0202801N013419999999N9999999N1+00681-00511999999ADDMA1999999075751MD1719999+9999ME1431269OA149902061REMSYN088AAXX  12164 06688 43/// /2826 10068 21051 37575 47126 57/// 333 55310 20666 91140 91227;
0149066880999992011101217004+46850+009183FM-12+248099999V0202901N017519999999N9999999N1+00541-00291999999ADDMA1999999075731MD1710101+9999ME1431219OA149902321REMSYN088AAXX  12174 06688 43/// /2934 10054 21029 37573 47121 57010 333 55303 20108 91145 91233;
0168066880999992011101218004+46850+009183FM-12+248099999V0202901N015419999999N9999999N1+00491-00291999999ADDKA1120M+00751MA1999999075721MD1719999+9999ME1431189OA149902681REMSYN094AAXX  12184 06688 43/// /2930 10049 21029 37572 47118 57/// 333 10075 55300 20004 91152 91235;
0112066880999992011101219004+46850+009183FM-12+248099999V0202901N013919999999N9999999N1+00481-00321999999ADDMA1999999075721ME1431189REMSYN076AAXX  12194 06688 43/// /2927 10048 21032 37572 47118 5//// 333 553// 20004;
0112066880999992011101220004+46850+009183FM-12+248099999V0202901N008219999999N9999999N1+00401-00281999999ADDMA1999999075761ME1431209REMSYN076AAXX  12204 06688 43/// /2916 10040 21028 37576 47120 5//// 333 553// 20004;
0112066880999992011101221004+46850+009183FM-12+248099999V0202301N003119999999N9999999N1+00361-00201999999ADDMA1999999075751ME1431189REMSYN076AAXX  12214 06688 43/// /2306 10036 21020 37575 47118 5//// 333 553// 20004;
0149066880999992011101222004+46850+009183FM-12+248099999V0202801N005719999999N9999999N1+00231-00151999999ADDMA1999999075731MD1010011+9999ME1431139OA149900981REMSYN088AAXX  12224 06688 43/// /2811 10023 21015 37573 47113 50001 333 55300 20004 91119 91210;
0149066880999992011101223004+46850+009183FM-12+248099999V0202801N004619999999N9999999N1+00111+00031999999ADDMA1999999075741MD1719999+9999ME1431119OA149901601REMSYN088AAXX  12234 06688 43/// /2809 10011 20003 37574 47111 57/// 333 55300 20004 91131 91219;
0149066880999992011101300004+46850+009183FM-12+248099999V0202801N005119999999N9999999N1+00061+00041999999ADDMA1999999075721MD1710031+9999ME1431089OA149902731REMSYN088AAXX  13004 06688 43/// /2810 10006 20004 37572 47108 57003 333 55300 20004 91153 91234;
0149066880999992011101301004+46850+009183FM-12+248099999V0202901N006219999999N9999999N1+00061+00021999999ADDMA1999999075711MD1719999+9999ME1431079OA149901291REMSYN088AAXX  13014 06688 43/// /2912 10006 20002 37571 47107 57/// 333 55300 20004 91125 91213;
0112066880999992011101302004+46850+009183FM-12+248099999V0203001N007219999999N9999999N1+00061-00051999999ADDMA1999999075681ME1431049REMSYN076AAXX  13024 06688 43/// /3014 10006 21005 37568 47104 5//// 333 553// 20004;
0149066880999992011101303004+46850+009183FM-12+248099999V0203201N011819999999N9999999N1+00071-00151999999ADDMA1999999075641MD1810081+9999ME1431009OA149901801REMSYN088AAXX  13034 06688 43/// /3223 10007 21015 37564 47100 58008 333 55300 20004 91135 91223;
0149066880999992011101304004+46850+009183FM-12+248099999V0203301N010819999999N9999999N1+00041-00251999999ADDMA1999999075671MD1510041+9999ME1431029OA149901701REMSYN088AAXX  13044 06688 43/// /3321 10004 21025 37567 47102 55004 333 55300 20004 91133 91221;
0149066880999992011101305004+46850+009183FM-12+248099999V0203001N004119999999N9999999N1-00021-00161999999ADDMA1999999075701MD1310021+9999ME1431049OA149901491REMSYN088AAXX  13054 06688 43/// /3008 11002 21016 37570 47104 53002 333 55300 20004 91129 91219;
0182066880999992011101306004+46850+009183FM-12+248099999V0202901N002619999999N9999999N1-00041-00101999999ADDGJ106129KA1999N-00071MA1999999075711MD1210071+9999ME1431059OA149901801REMSYN100AAXX  13064 06688 43/// /2905 11004 21010 37571 47105 52007 333 21007 55102 55300 20007 91135 91223;
0149066880999992011101307004+46850+009183FM-12+248099999V0200101N003619999999N9999999N1-00051-00051999999ADDMA1999999075761MD1219999+9999ME1431109OA149900821REMSYN088AAXX  13074 06688 43/// /0107 11005 21005 37576 47110 52/// 333 55300 20032 91116 91208;
0112066880999992011101308004+46850+009183FM-12+248099999V0200501N003619999999N9999999N1-00061-00061999999ADDMA1999999075811ME1431159REMSYN076AAXX  13084 06688 43/// /0507 11006 21006 37581 47115 5//// 333 553// 20112;
0149066880999992011101309004+46850+009183FM-12+248099999V0200301N005119999999N9999999N1-00071-00071999999ADDMA1999999075851MD1119999+9999ME1431199OA149900821REMSYN088AAXX  13094 06688 43/// /0310 11007 21007 37585 47119 51/// 333 55300 20436 91116 91210;
0149066880999992011101310004+46850+009183FM-12+248099999V0200101N005119999999N9999999N1-00011-00031999999ADDMA1999999075881MD1119999+9999ME1431239OA149900881REMSYN088AAXX  13104 06688 43/// /0110 11001 21003 37588 47123 51/// 333 55300 21116 91117 91211;
0149066880999992011101311004+46850+009183FM-12+248099999V0200101N003619999999N9999999N1+00071-00021999999ADDMA1999999075911MD1110101+9999ME1431289OA149900671REMSYN088AAXX  13114 06688 43/// /0107 10007 21002 37591 47128 51010 333 55300 21181 91113 91208;
0112066880999992011101312004+46850+009183FM-12+248099999V0200101N004119999999N9999999N1+00091-00031999999ADDMA1999999075921ME1431309REMSYN076AAXX  13124 06688 43/// /0108 10009 21003 37592 47130 5//// 333 553// 21609;
0112066880999992011101313004+46850+009183FM-12+248099999V0200101N006219999999N9999999N1+00061-00231999999ADDMA1999999075911ME1431289REMSYN076AAXX  13134 06688 43/// /0112 10006 21023 37591 47128 5//// 333 553// 22196;
0112066880999992011101314004+46850+009183FM-12+248099999V0203601N003619999999N9999999N1+00071-00091999999ADDMA1999999075921ME1431299REMSYN076AAXX  13144 06688 43/// /3607 10007 21009 37592 47129 5//// 333 553// 21390;
0149066880999992011101315004+46850+009183FM-12+248099999V0200101N006719999999N9999999N1+00031-00091999999ADDMA1999999075891MD1819999+9999ME1431259OA149901081REMSYN088AAXX  13154 06688 43/// /0113 10003 21009 37589 47125 58/// 333 55308 21084 91121 91213;
0149066880999992011101316004+46850+009183FM-12+248099999V0200201N004119999999N9999999N1+00051-00121999999ADDMA1999999075911MD1019999+9999ME1431289OA149901031REMSYN088AAXX  13164 06688 43/// /0208 10005 21012 37591 47128 50/// 333 55303 20439 91120 91214;
0149066880999992011101317004+46850+009183FM-12+248099999V0203201N002119999999N9999999N1+00011-00081999999ADDMA1999999075931MD1319999+9999ME1431299OA149900771REMSYN088AAXX  13174 06688 43/// /3204 10001 21008 37593 47129 53/// 333 55300 20036 91115 91209;
0131066880999992011101318004+46850+009183FM-12+248099999V0200201N006219999999N9999999N1-00041-00051999999ADDKA1120M+00101MA1999999075951ME1431309REMSYN082AAXX  13184 06688 43/// /0212 11004 21005 37595 47130 5//// 333 10010 553// 20004;
0112066880999992011101319004+46850+009183FM-12+248099999V0200401N003119999999N9999999N1-00041-00141999999ADDMA1999999075971ME1431329REMSYN076AAXX  13194 06688 43/// /0406 11004 21014 37597 47132 5//// 333 553// 20004;
0112066880999992011101320004+46850+009183FM-12+248099999V0200301N003119999999N9999999N1-00051-00181999999ADDMA1999999075971ME1431319REMSYN076AAXX  13204 06688 43/// /0306 11005 21018 37597 47131 5//// 333 553// 20004;
0149066880999992011101321004+46850+009183FM-12+248099999V0200101N004119999999N9999999N1-00091-00361999999ADDMA1999999075981MD1210031+9999ME1431329OA149900931REMSYN088AAXX  13214 06688 43/// /0108 11009 21036 37598 47132 52003 333 55300 20004 91118 91213;
0149066880999992011101322004+46850+009183FM-12+248099999V0200101N004119999999N9999999N1-00091-00411999999ADDMA1999999075971MD1019999+9999ME1431309OA149900621REMSYN088AAXX  13224 06688 43/// /0108 11009 21041 37597 47130 50/// 333 55300 20004 91112 91208;
0149066880999992011101323004+46850+009183FM-12+248099999V0201101N001019999999N9999999N1-00171-00401999999ADDMA1999999075951MD1819999+9999ME1431269OA149900621REMSYN088AAXX  13234 06688 43/// /1102 11017 21040 37595 47126 58/// 333 55300 20000 91112 91208;
0149066880999992011101400004+46850+009183FM-12+248099999V0202301N002619999999N9999999N1-00231-00271999999ADDMA1999999075921MD1710061+9999ME1431229OA149900931REMSYN088AAXX  14004 06688 43/// /2305 11023 21027 37592 47122 57006 333 55300 20004 91118 91213;
0112066880999992011101401004+46850+009183FM-12+248099999V0202601N003119999999N9999999N1-00251-00321999999ADDMA1999999075871ME1431169REMSYN076AAXX  14014 06688 43/// /2606 11025 21032 37587 47116 5//// 333 553// 20004;
0112066880999992011101402004+46850+009183FM-12+248099999V0202501N002619999999N9999999N1-00251-00351999999ADDMA1999999075791ME1431089REMSYN076AAXX  14024 06688 43/// /2505 11025 21035 37579 47108 5//// 333 553// 20000;
0149066880999992011101403004+46850+009183FM-12+248099999V0200101N003119999999N9999999N1+00001-01241999999ADDMA1999999075751MD1710171+9999ME1431109OA149900571REMSYN088AAXX  14034 06688 43/// /0106 10000 21124 37575 47110 57017 333 55300 20000 91111 91207;
0149066880999992011101404004+46850+009183FM-12+248099999V0200501N002119999999N9999999N1-00041-01381999999ADDMA1999999075731MD1619999+9999ME1431079OA149900461REMSYN088AAXX  14044 06688 43/// /0504 11004 21138 37573 47107 56/// 333 55300 20004 91109 91205;
0149066880999992011101405004+46850+009183FM-12+248099999V0200401N003119999999N9999999N1-00091-01301999999ADDMA1999999075731MD1710061+9999ME1431069OA149900721REMSYN088AAXX  14054 06688 43/// /0406 11009 21130 37573 47106 57006 333 55300 20004 91114 91208;
0182066880999992011101406004+46850+009183FM-12+248099999V0203601N001519999999N9999999N1-00271-00791999999ADDGJ101509KA1999N-00381MA1999999075751MD1510001+9999ME1431039OA149900721REMSYN100AAXX  14064 06688 43/// /3603 11027 21079 37575 47103 55000 333 21038 55025 55300 20014 91114 91208;
0149066880999992011101407004+46850+009183FM-12+248099999V0201401N002119999999N9999999N1-00371-00381999999ADDMA1999999075781MD1219999+9999ME1431049OA149900411REMSYN088AAXX  14074 06688 43/// /1404 11037 21038 37578 47104 52/// 333 55309 20378 91108 91206;
0112066880999992011101408004+46850+009183FM-12+248099999V0202701N001519999999N9999999N1-00351-00471999999ADDMA1999999075831ME1431109REMSYN076AAXX  14084 06688 43/// /2703 11035 21047 37583 47110 5//// 333 553// 21066;
0149066880999992011101409004+46850+009183FM-12+248099999V0202701N001019999999N9999999N1-00341-00411999999ADDMA1999999075841MD1119999+9999ME1431119OA149900411REMSYN088AAXX  14094 06688 43/// /2702 11034 21041 37584 47111 51/// 333 55309 21663 91108 91206;
0149066880999992011101410004+46850+009183FM-12+248099999V0201701N001519999999N9999999N1-00091-00351999999ADDMA1999999075851MD1219999+9999ME1431189OA149900511REMSYN088AAXX  14104 06688 43/// /1703 11009 21035 37585 47118 52/// 333 55309 22056 91110 91206;
0149066880999992011101412004+46850+009183FM-12+248099999V0202701N002119999999N9999999N1-00061-00121999999ADDMA1999999075911MD1219999+9999ME1431259OA149900511REMSYN088AAXX  14124 06688 43/// /2704 11006 21012 37591 47125 52/// 333 55301 21184 91110 91206;
0112066880999992011101413004+46850+009183FM-12+248099999V0202601N004119999999N9999999N1-00021-00121999999ADDMA1999999075901ME1431259REMSYN076AAXX  14134 06688 43/// /2608 11002 21012 37590 47125 5//// 333 553// 21152;
0112066880999992011101414004+46850+009183FM-12+248099999V0202701N002619999999N9999999N1+00041-00031999999ADDMA1999999075871ME1431239REMSYN076AAXX  14144 06688 43/// /2705 10004 21003 37587 47123 5//// 333 553// 21184;
0149066880999992011101415004+46850+009183FM-12+248099999V0202701N002119999999N9999999N1+00031-00061999999ADDMA1999999075891MD1710021+9999ME1431259OA149900671REMSYN088AAXX  14154 06688 43/// /2704 10003 21006 37589 47125 57002 333 55309 21163 91113 91208;
0096066880999992011101416004+46850+009183FM-12+248099999V0201801N001019999999N9999999N1-00061-00061999999ADDMA1999999075911ME1431259REMSYN060AAXX  14164 06688 43/// /1802 11006 21006 37591 47125 5////;
0149066880999992011101417004+46850+009183FM-12+248099999V0201801N003119999999N9999999N1-00061-00281999999ADDMA1999999075931MD1219999+9999ME1431279OA149900411REMSYN088AAXX  14174 06688 43/// /1806 11006 21028 37593 47127 52/// 333 55300 20061 91108 91206;
0168066880999992011101418004+46850+009183FM-12+248099999V0202601N003119999999N9999999N1-00101-00171999999ADDKA1120M+00091MA1999999075951MD1119999+9999ME1431289OA149900671REMSYN094AAXX  14184 06688 43/// /2606 11010 21017 37595 47128 51/// 333 10009 55300 20004 91113 91208;
0112066880999992011101419004+46850+009183FM-12+248099999V0202601N002119999999N9999999N1-00101-00361999999ADDMA1999999075941ME1431279REMSYN076AAXX  14194 06688 43/// /2604 11010 21036 37594 47127 5//// 333 553// 20004;
0149066880999992011101420004+46850+009183FM-12+248099999V0202701N003619999999N9999999N1-00081-00661999999ADDMA1999999075941MD1019999+9999ME1431289OA149900511REMSYN088AAXX  14204 06688 43/// /2707 11008 21066 37594 47128 50/// 333 55300 20004 91110 91207;
0149066880999992011101421004+46850+009183FM-12+248099999V0201401N001519999999N9999999N1+00101-01341999999ADDMA1999999075961MD1319999+9999ME1431349OA149900511REMSYN088AAXX  14214 06688 43/// /1403 10010 21134 37596 47134 53/// 333 55300 20004 91110 91207;
0112066880999992011101422004+46850+009183FM-12+248099999V0201101N002619999999N9999999N1+00111-01541999999ADDMA1999999075961ME1431349REMSYN076AAXX  14224 06688 43/// /1105 10011 21154 37596 47134 5//// 333 553// 20004;
0149066880999992011101423004+46850+009183FM-12+248099999V0200901N001519999999N9999999N1+00201-01811999999ADDMA1999999075941MD1819999+9999ME1431359OA149900261REMSYN088AAXX  14234 06688 43/// /0903 10020 21181 37594 47135 58/// 333 55300 20004 91105 91203;
0112066880999992011101500004+46850+009183FM-12+248099999V0201501N001019999999N9999999N1+00311-01991999999ADDMA1999999075911ME1431349REMSYN076AAXX  15004 06688 43/// /1502 10031 21199 37591 47134 5//// 333 553// 20004;
0112066880999992011101501004+46850+009183FM-12+248099999V0200401N001519999999N9999999N1+00361-02401999999ADDMA1999999075901ME1431349REMSYN076AAXX  15014 06688 43/// /0403 10036 21240 37590 47134 5//// 333 553// 20004;
0112066880999992011101502004+46850+009183FM-12+248099999V0202701N002619999999N9999999N1+00121-01781999999ADDMA1999999075881ME1431269REMSYN076AAXX  15024 06688 43/// /2705 10012 21178 37588 47126 5//// 333 553// 20004;
0112066880999992011101503004+46850+009183FM-12+248099999V0202901N001019999999N9999999N1+00241-01971999999ADDMA1999999075851ME1431269REMSYN076AAXX  15034 06688 43/// /2902 10024 21197 37585 47126 5//// 333 553// 20004;
0149066880999992011101504004+46850+009183FM-12+248099999V0200101N003619999999N9999999N1+00461-02541999999ADDMA1999999075841MD1619999+9999ME1431309OA149900571REMSYN088AAXX  15044 06688 43/// /0107 10046 21254 37584 47130 56/// 333 55300 20004 91111 91207;
0149066880999992011101505004+46850+009183FM-12+248099999V0200101N003119999999N9999999N1+00451-02901999999ADDMA1999999075841MD1619999+9999ME1431309OA149900461REMSYN088AAXX  15054 06688 43/// /0106 10045 21290 37584 47130 56/// 333 55300 20004 91109 91206;
0168066880999992011101506004+46850+009183FM-12+248099999V0200101N004119999999N9999999N1+00491-03081999999ADDKA1999N-00191MA1999999075861MD1319999+9999ME1431339OA149900621REMSYN094AAXX  15064 06688 43/// /0108 10049 21308 37586 47133 53/// 333 21019 55300 20018 91112 91208;
0112066880999992011101507004+46850+009183FM-12+248099999V0200201N005119999999N9999999N1+00491-02651999999ADDMA1999999075891ME1431369REMSYN076AAXX  15074 06688 43/// /0210 10049 21265 37589 47136 5//// 333 553// 20378;
0112066880999992011101508004+46850+009183FM-12+248099999V0200101N004619999999N9999999N1+00501-02271999999ADDMA1999999075921ME1431409REMSYN076AAXX  15084 06688 43/// /0109 10050 21227 37592 47140 5//// 333 553// 21116;
0112066880999992011101509004+46850+009183FM-12+248099999V0200301N004619999999N9999999N1+00501-02041999999ADDMA1999999075931ME1431419REMSYN076AAXX  15094 06688 43/// /0309 10050 21204 37593 47141 5//// 333 553// 21771;
0112066880999992011101510004+46850+009183FM-12+248099999V0200201N003119999999N9999999N1+00531-01801999999ADDMA1999999075971ME1431469REMSYN076AAXX  15104 06688 43/// /0206 10053 21180 37597 47146 5//// 333 553// 22156;
0149066880999992011101511004+46850+009183FM-12+248099999V0203101N000519999999N9999999N1+00381-00641999999ADDMA1999999075991MD1219999+9999ME1431449OA149900411REMSYN088AAXX  15114 06688 43/// /3101 10038 21064 37599 47144 52/// 333 55310 22426 91108 91204;
0112066880999992011101512004+46850+009183FM-12+248099999V0202201N001519999999N9999999N1+00421-00231999999ADDMA1999999075981ME1431449REMSYN076AAXX  15124 06688 43/// /2203 10042 21023 37598 47144 5//// 333 553// 22459;
0112066880999992011101514004+46850+009183FM-12+248099999V0202401N001519999999N9999999N1+00471-00131999999ADDMA1999999075971ME1431449REMSYN076AAXX  15144 06688 43/// /2403 10047 21013 37597 47144 5//// 333 553// 21847;
0112066880999992011101515004+46850+009183FM-12+248099999V0202301N001519999999N9999999N1+00451-00151999999ADDMA1999999075961ME1431439REMSYN076AAXX  15154 06688 43/// /2303 10045 21015 37596 47143 5//// 333 553// 21264;
0149066880999992011101516004+46850+009183FM-12+248099999V0202601N002619999999N9999999N1+00381-00181999999ADDMA1999999075961MD1819999+9999ME1431419OA149900511REMSYN088AAXX  15164 06688 43/// /2605 10038 21018 37596 47141 58/// 333 55310 20576 91110 91206;
0149066880999992011101517004+46850+009183FM-12+248099999V0202601N003119999999N9999999N1+00381-01112999999ADDMA1999999075971MD1510001+9999ME1431429OA149900411REMSYN088AAXX  15174 06688 43/// /2606 10038 21111 37597 47142 55000 333 55303 20072 91108 91206;
0168066880999992011101518004+46850+009183FM-12+248099999V0202401N001019999999N9999999N1+00351-00591999999ADDKA1120M+00591MA1999999075991MD1310031+9999ME1431439OA149900511REMSYN094AAXX  15184 06688 43/// /2402 10035 21059 37599 47143 53003 333 10059 55300 20004 91110 91206;
0149066880999992011101519004+46850+009183FM-12+248099999V0202601N002619999999N9999999N1+00331-00931999999ADDMA1999999075971MD1010011+9999ME1431419OA149900361REMSYN088AAXX  15194 06688 43/// /2605 10033 21093 37597 47141 50001 333 55300 20004 91107 91206;
0112066880999992011101520004+46850+009183FM-12+248099999V0202601N001519999999N9999999N1+00391-00871999999ADDMA1999999075981ME1431439REMSYN076AAXX  15204 06688 43/// /2603 10039 21087 37598 47143 5//// 333 553// 20004;
0149066880999992011101521004+46850+009183FM-12+248099999V0202401N001519999999N9999999N1+00431-00741999999ADDMA1999999075991MD1319999+9999ME1431459OA149900361REMSYN088AAXX  15214 06688 43/// /2403 10043 21074 37599 47145 53/// 333 55300 20004 91107 91206;
0149066880999992011101522004+46850+009183FM-12+248099999V0201901N001019999999N9999999N1+00471-01431999999ADDMA1999999075991MD1110021+9999ME1431469OA149900211REMSYN088AAXX  15224 06688 43/// /1902 10047 21143 37599 47146 51002 333 55300 20004 91104 91203;
0149066880999992011101523004+46850+009183FM-12+248099999V0201401N000519999999N9999999N1+00621-02371999999ADDMA1999999075971MD1819999+9999ME1431489OA149900101REMSYN088AAXX  15234 06688 43/// /1401 10062 21237 37597 47148 58/// 333 55300 20004 91102 91202;
0112066880999992011101600004+46850+009183FM-12+248099999V0202901N000519999999N9999999N1+00601-02411999999ADDMA1999999075951ME1431459REMSYN076AAXX  16004 06688 43/// /2901 10060 21241 37595 47145 5//// 333 553// 20004;
0149066880999992011101601004+46850+009183FM-12+248099999V0201101N000519999999N9999999N1+00691-02751999999ADDMA1999999075951MD1719999+9999ME1431489OA149900101REMSYN088AAXX  16014 06688 43/// /1101 10069 21275 37595 47148 57/// 333 55300 20004 91102 91202;
0112066880999992011101602004+46850+009183FM-12+248099999V0200701N001019999999N9999999N1+00581-02451999999ADDMA1999999075931ME1431439REMSYN076AAXX  16024 06688 43/// /0702 10058 21245 37593 47143 5//// 333 553// 20004;
0112066880999992011101603004+46850+009183FM-12+248099999V0201401N000519999999N9999999N1+00581-02361999999ADDMA1999999075921ME1431429REMSYN076AAXX  16034 06688 43/// /1401 10058 21236 37592 47142 5//// 333 553// 20004;
0112066880999992011101604004+46850+009183FM-12+248099999V0202101N001519999999N9999999N1+00381-01911999999ADDMA1999999075911ME1431369REMSYN076AAXX  16044 06688 43/// /2103 10038 21191 37591 47136 5//// 333 553// 20004;
0149066880999992011101605004+46850+009183FM-12+248099999V0200601N002119999999N9999999N1+00551-02211999999ADDMA1999999075901MD1710031+9999ME1431399OA149900261REMSYN088AAXX  16054 06688 43/// /0604 10055 21221 37590 47139 57003 333 55300 20004 91105 91205;
0182066880999992011101606004+46850+009183FM-12+248099999V0200101N003619999999N9999999N1+00521-02351999999ADDGJ106249KA1999N+00311MA1999999075911MD1510011+9999ME1431399OA149900461REMSYN100AAXX  16064 06688 43/// /0107 10052 21235 37591 47139 55001 333 20031 55104 55300 20018 91109 91207;
0149066880999992011101607004+46850+009183FM-12+248099999V0200401N004119999999N9999999N1+00441-01831999999ADDMA1999999075941MD1310031+9999ME1431409OA149900721REMSYN088AAXX  16074 06688 43/// /0408 10044 21183 37594 47140 53003 333 55310 20356 91114 91210;
0149066880999992011101608004+46850+009183FM-12+248099999V0200401N003619999999N9999999N1+00481-01891999999ADDMA1999999075971MD1219999+9999ME1431459OA149900771REMSYN088AAXX  16084 06688 43/// /0407 10048 21189 37597 47145 52/// 333 55310 21076 91115 91210;
0149066880999992011101609004+46850+009183FM-12+248099999V0200601N001519999999N9999999N1+00521-01851999999ADDMA1999999075991MD1219999+9999ME1431489OA149900771REMSYN088AAXX  16094 06688 43/// /0603 10052 21185 37599 47148 52/// 333 55310 21728 91115 91210;
0149066880999992011101610004+46850+009183FM-12+248099999V0200501N000519999999N9999999N1+00531-01511999999ADDMA1999999076021MD1210081+9999ME1431519OA149900311REMSYN088AAXX  16104 06688 43/// /0501 10053 21151 37602 47151 52008 333 55310 22117 91106 91203;
0149066880999992011101611004+46850+009183FM-12+248099999V0203401N000519999999N9999999N1+00541-00681999999ADDMA1999999076021MD1110051+9999ME1431519OA149900311REMSYN088AAXX  16114 06688 43/// /3401 10054 21068 37602 47151 51005 333 55310 22376 91106 91203;
0149066880999992011101612004+46850+009183FM-12+248099999V0201901N001019999999N9999999N1+00561-00391999999ADDMA1999999076001MD1019999+9999ME1431509OA149900771REMSYN088AAXX  16124 06688 43/// /1902 10056 21039 37600 47150 50/// 333 55310 22416 91115 91211;
0149066880999992011101613004+46850+009183FM-12+248099999V0202401N001519999999N9999999N1+00561-00521999999ADDMA1999999075971MD1810051+9999ME1431479OA149900361REMSYN088AAXX  16134 06688 43/// /2403 10056 21052 37597 47147 58005 333 55310 22182 91107 91203;
0149066880999992011101614004+46850+009183FM-12+248099999V0202201N001019999999N9999999N1+00591-00721999999ADDMA1999999075961MD1619999+9999ME1431469OA149900411REMSYN088AAXX  16144 06688 43/// /2202 10059 21072 37596 47146 56/// 333 55310 21804 91108 91204;
0149066880999992011101615004+46850+009183FM-12+248099999V0202401N001519999999N9999999N1+00561-00471999999ADDMA1999999075961MD1710041+9999ME1431469OA149900411REMSYN088AAXX  16154 06688 43/// /2403 10056 21047 37596 47146 57004 333 55310 21217 91108 91204;
0149066880999992011101616004+46850+009183FM-12+248099999V0202501N001519999999N9999999N1+00511-00551999999ADDMA1999999075951MD1710021+9999ME1431439OA149900311REMSYN088AAXX  16164 06688 43/// /2503 10051 21055 37595 47143 57002 333 55310 20540 91106 91203;
0149066880999992011101617004+46850+009183FM-12+248099999V0201101N001019999999N9999999N1+00431-00651999999ADDMA1999999075961MD1510001+9999ME1431429OA149900151REMSYN088AAXX  16174 06688 43/// /1102 10043 21065 37596 47142 55000 333 55303 20065 91103 91202;
0168066880999992011101618004+46850+009183FM-12+248099999V0200901N001019999999N9999999N1+00431-00921999999ADDKA1120M+00591MA1999999075971MD1119999+9999ME1431439OA149900411REMSYN094AAXX  16184 06688 43/// /0902 10043 21092 37597 47143 51/// 333 10059 55300 20004 91108 91204;
0149066880999992011101619004+46850+009183FM-12+248099999V0200901N001519999999N9999999N1+00381-00871999999ADDMA1999999075961MD1010011+9999ME1431419OA149900261REMSYN088AAXX  16194 06688 43/// /0903 10038 21087 37596 47141 50001 333 55300 20004 91105 91203;
0149066880999992011101620004+46850+009183FM-12+248099999V0200901N001519999999N9999999N1+00381-00831999999ADDMA1999999075961MD1019999+9999ME1431419OA149900311REMSYN088AAXX  16204 06688 43/// /0903 10038 21083 37596 47141 50/// 333 55300 20004 91106 91203;
0149066880999992011101621004+46850+009183FM-12+248099999V0200701N001519999999N9999999N1+00401-01011999999ADDMA1999999075961MD1719999+9999ME1431429OA149900361REMSYN088AAXX  16214 06688 43/// /0703 10040 21101 37596 47142 57/// 333 55300 20004 91107 91204;
0149066880999992011101622004+46850+009183FM-12+248099999V0201201N001519999999N9999999N1+00351-00861999999ADDMA1999999075951MD1810011+9999ME1431399OA149900261REMSYN088AAXX  16224 06688 43/// /1203 10035 21086 37595 47139 58001 333 55300 20004 91105 91203;
0149066880999992011101623004+46850+009183FM-12+248099999V0201301N002119999999N9999999N1+00281-00751999999ADDMA1999999075941MD1810021+9999ME1431369OA149900261REMSYN088AAXX  16234 06688 43/// /1304 10028 21075 37594 47136 58002 333 55300 20004 91105 91204;
0149066880999992011101700004+46850+009183FM-12+248099999V0201001N002619999999N9999999N1+00341-00721999999ADDMA1999999075941MD1710021+9999ME1431389OA149900361REMSYN088AAXX  17004 06688 43/// /1005 10034 21072 37594 47138 57002 333 55300 20004 91107 91205;
0149066880999992011101701004+46850+009183FM-12+248099999V0201101N001519999999N9999999N1+00321-00781999999ADDMA1999999075901MD1719999+9999ME1431339OA149900311REMSYN088AAXX  17014 06688 43/// /1103 10032 21078 37590 47133 57/// 333 55300 20004 91106 91204;
0149066880999992011101702004+46850+009183FM-12+248099999V0201101N001519999999N9999999N1+00341-00891999999ADDMA1999999075861MD1719999+9999ME1431309OA149900211REMSYN088AAXX  17024 06688 43/// /1103 10034 21089 37586 47130 57/// 333 55300 20004 91104 91203;
0149066880999992011101703004+46850+009183FM-12+248099999V0201501N001019999999N9999999N1+00271-00971999999ADDMA1999999075841MD1619999+9999ME1431269OA149900311REMSYN088AAXX  17034 06688 43/// /1502 10027 21097 37584 47126 56/// 333 55300 20004 91106 91204;
0149066880999992011101704004+46850+009183FM-12+248099999V0201801N001019999999N9999999N1+00331-01291999999ADDMA1999999075841MD1619999+9999ME1431279OA149900211REMSYN088AAXX  17044 06688 43/// /1802 10033 21129 37584 47127 56/// 333 55300 20004 91104 91203;
0149066880999992011101705004+46850+009183FM-12+248099999V0201801N001019999999N9999999N1+00241-01161999999ADDMA1999999075831MD1610031+9999ME1431249OA149900211REMSYN088AAXX  17054 06688 43/// /1802 10024 21116 37583 47124 56003 333 55300 20004 91104 91202;
0182066880999992011101706004+46850+009183FM-12+248099999V0201101N001519999999N9999999N1+00231-00761999999ADDGJ106189KA1999N+00181MA1999999075821MD1710021+9999ME1431239OA149900361REMSYN100AAXX  17064 06688 43/// /1103 10023 21076 37582 47123 57002 333 20018 55103 55300 20018 91107 91205;
0149066880999992011101707004+46850+009183FM-12+248099999V0200901N001519999999N9999999N1+00281-00651999999ADDMA1999999075851MD1310011+9999ME1431279OA149900361REMSYN088AAXX  17074 06688 43/// /0903 10028 21065 37585 47127 53001 333 55310 20342 91107 91204;
0112066880999992011101708004+46850+009183FM-12+248099999V0201301N001019999999N9999999N1+00281-00571999999ADDMA1999999075861ME1431289REMSYN076AAXX  17084 06688 43/// /1302 10028 21057 37586 47128 5//// 333 553// 21062;
0149066880999992011101709004+46850+009183FM-12+248099999V0202501N000519999999N9999999N1+00311-00501999999ADDMA1999999075871MD1119999+9999ME1431309OA149900361REMSYN088AAXX  17094 06688 43/// /2501 10031 21050 37587 47130 51/// 333 55310 21703 91107 91204;
0149066880999992011101710004+46850+009183FM-12+248099999V0202601N001019999999N9999999N1+00341-00371999999ADDMA1999999075871MD1210021+9999ME1431319OA149900311REMSYN088AAXX  17104 06688 43/// /2602 10034 21037 37587 47131 52002 333 55310 22070 91106 91202;
0112066880999992011101711004+46850+009183FM-12+248099999V0201601N001019999999N9999999N1+00411-00261999999ADDMA1999999075861ME1431319REMSYN076AAXX  17114 06688 43/// /1602 10041 21026 37586 47131 5//// 333 553// 22344;
0096066880999992011101712004+46850+009183FM-12+248099999V0202001N001519999999N9999999N1+00431-00111999999ADDMA1999999075831ME1431299REMSYN060AAXX  17124 06688 43/// /2003 10043 21011 37583 47129 5////;
0112066880999992011101713004+46850+009183FM-12+248099999V0201101N001519999999N9999999N1+00371-00181999999ADDMA1999999075801ME1431249REMSYN076AAXX  17134 06688 43/// /1103 10037 21018 37580 47124 5//// 333 553// 22164;
0112066880999992011101714004+46850+009183FM-12+248099999V0202201N001019999999N9999999N1+00421-00551999999ADDMA1999999075781ME1431239REMSYN076AAXX  17144 06688 43/// /2202 10042 21055 37578 47123 5//// 333 553// 21760;
0112066880999992011101715004+46850+009183FM-12+248099999V0202601N001019999999N9999999N1+00401-00441999999ADDMA1999999075771ME1431219REMSYN076AAXX  17154 06688 43/// /2602 10040 21044 37577 47121 5//// 333 553// 21181;
0149066880999992011101716004+46850+009183FM-12+248099999V0202601N001519999999N9999999N1+00371-00411999999ADDMA1999999075761MD1719999+9999ME1431209OA149900311REMSYN088AAXX  17164 06688 43/// /2603 10037 21041 37576 47120 57/// 333 55310 20511 91106 91203;
0149066880999992011101717004+46850+009183FM-12+248099999V0202101N000519999999N9999999N1+00341-00201999999ADDMA1999999075781MD1510001+9999ME1431219OA149900211REMSYN088AAXX  17174 06688 43/// /2101 10034 21020 37578 47121 55000 333 55302 20054 91104 91202;
0168066880999992011101718004+46850+009183FM-12+248099999V0202001N001019999999N9999999N1+00281-00541999999ADDKA1120M+00461MA1999999075781MD1319999+9999ME1431209OA149900411REMSYN094AAXX  17184 06688 43/// /2002 10028 21054 37578 47120 53/// 333 10046 55300 20004 91108 91203;
0112066880999992011101719004+46850+009183FM-12+248099999V0201401N000519999999N9999999N1+00271-00601999999ADDMA1999999075771ME1431189REMSYN076AAXX  17194 06688 43/// /1401 10027 21060 37577 47118 5//// 333 553// 20004;
0112066880999992011101720004+46850+009183FM-12+248099999V0202401N001019999999N9999999N1+00251-00651999999ADDMA1999999075751ME1431169REMSYN076AAXX  17204 06688 43/// /2402 10025 21065 37575 47116 5//// 333 553// 20004;
0149066880999992011101721004+46850+009183FM-12+248099999V0202601N001519999999N9999999N1+00201-00621999999ADDMA1999999075751MD1619999+9999ME1431159OA149900311REMSYN088AAXX  17214 06688 43/// /2603 10020 21062 37575 47115 56/// 333 55300 20004 91106 91203;
0149066880999992011101722004+46850+009183FM-12+248099999V0203301N000519999999N9999999N1+00231-00741999999ADDMA1999999075741MD1610031+9999ME1431149OA149900261REMSYN088AAXX  17224 06688 43/// /3301 10023 21074 37574 47114 56003 333 55300 20004 91105 91203;
0149066880999992011101723004+46850+009183FM-12+248099999V0202701N001519999999N9999999N1+00171-00711999999ADDMA1999999075731MD1619999+9999ME1431129OA149900411REMSYN088AAXX  17234 06688 43/// /2703 10017 21071 37573 47112 56/// 333 55300 20004 91108 91203;
0149066880999992011101800004+46850+009183FM-12+248099999V0201601N001519999999N9999999N1+00121-00661999999ADDMA1999999075721MD1810031+9999ME1431109OA149900411REMSYN088AAXX  18004 06688 43/// /1603 10012 21066 37572 47110 58003 333 55300 20004 91108 91204;
0149066880999992011101801004+46850+009183FM-12+248099999V0202301N001019999999N9999999N1+00221-01111999999ADDMA1999999075701MD1819999+9999ME1431109OA149900311REMSYN088AAXX  18014 06688 43/// /2302 10022 21111 37570 47110 58/// 333 55300 20004 91106 91203;
0112066880999992011101802004+46850+009183FM-12+248099999V0201301N001019999999N9999999N1+00111-00841999999ADDMA1999999075661ME1431039REMSYN076AAXX  18024 06688 43/// /1302 10011 21084 37566 47103 5//// 333 553// 20004;
0112066880999992011101803004+46850+009183FM-12+248099999V0201301N001519999999N9999999N1+00071-01141999999ADDMA1999999075621ME1430989REMSYN076AAXX  18034 06688 43/// /1303 10007 21114 37562 47098 5//// 333 553// 20004;
0149066880999992011101804004+46850+009183FM-12+248099999V0202501N001519999999N9999999N1+00231-01541999999ADDMA1999999075611MD1619999+9999ME1431019OA149900261REMSYN088AAXX  18044 06688 43/// /2503 10023 21154 37561 47101 56/// 333 55300 20004 91105 91203;
0149066880999992011101805004+46850+009183FM-12+248099999V0201701N001019999999N9999999N1+00141-01541999999ADDMA1999999075601MD1610061+9999ME1430979OA149900311REMSYN088AAXX  18054 06688 43/// /1702 10014 21154 37560 47097 56006 333 55300 20004 91106 91203;
0182066880999992011101806004+46850+009183FM-12+248099999V0201001N001519999999N9999999N1+00141-01521999999ADDGJ106129KA1999N+00071MA1999999075601MD1610021+9999ME1430979OA149900311REMSYN100AAXX  18064 06688 43/// /1003 10014 21152 37560 47097 56002 333 20007 55102 55300 20014 91106 91204;
0112066880999992011101807004+46850+009183FM-12+248099999V0202701N000519999999N9999999N1+00291-01651999999ADDMA1999999075621ME1431039REMSYN076AAXX  18074 06688 43/// /2701 10029 21165 37562 47103 5//// 333 553// 20281;
0112066880999992011101808004+46850+009183FM-12+248099999V0200201N003119999999N9999999N1+00341-01381999999ADDMA1999999075631ME1431059REMSYN076AAXX  18084 06688 43/// /0206 10034 21138 37563 47105 5//// 333 553// 20979;
0112066880999992011101809004+46850+009183FM-12+248099999V0200301N002119999999N9999999N1+00371-00891999999ADDMA1999999075631ME1431069REMSYN076AAXX  18094 06688 43/// /0304 10037 21089 37563 47106 5//// 333 553// 21660;
0149066880999992011101810004+46850+009183FM-12+248099999V0202701N001019999999N9999999N1+00361-00581999999ADDMA1999999075621MD1819999+9999ME1431059OA149900311REMSYN088AAXX  18104 06688 43/// /2702 10036 21058 37562 47105 58/// 333 55310 22016 91106 91202;
0112066880999992011101812004+46850+009183FM-12+248099999V0202801N003619999999N9999999N1+00481-01001999999ADDMA1999999075561ME1431019REMSYN076AAXX  18124 06688 43/// /2807 10048 21100 37556 47101 5//// 333 553// 22336;
0112066880999992011101813004+46850+009183FM-12+248099999V0203001N004619999999N9999999N1+00451-00671999999ADDMA1999999075531ME1430979REMSYN076AAXX  18134 06688 43/// /3009 10045 21067 37553 47097 5//// 333 553// 22027;
0112066880999992011101814004+46850+009183FM-12+248099999V0203101N007219999999N9999999N1+00521-00631999999ADDMA1999999075511ME1430979REMSYN076AAXX  18144 06688 43/// /3114 10052 21063 37551 47097 5//// 333 553// 21678;
0149066880999992011101815004+46850+009183FM-12+248099999V0203001N008219999999N9999999N1+00491-00681999999ADDMA1999999075501MD1619999+9999ME1430959OA149901241REMSYN088AAXX  18154 06688 43/// /3016 10049 21068 37550 47095 56/// 333 55308 21174 91124 91218;
0149066880999992011101816004+46850+009183FM-12+248099999V0203101N007219999999N9999999N1+00421-00671999999ADDMA1999999075491MD1610041+9999ME1430929OA149901131REMSYN088AAXX  18164 06688 43/// /3114 10042 21067 37549 47092 56004 333 55310 20468 91122 91216;
0149066880999992011101817004+46850+009183FM-12+248099999V0203001N008719999999N9999999N1+00311-00701999999ADDMA1999999075501MD1519999+9999ME1430919OA149901081REMSYN088AAXX  18174 06688 43/// /3017 10031 21070 37550 47091 55/// 333 55302 20047 91121 91216;
0131066880999992011101818004+46850+009183FM-12+248099999V0202901N006719999999N9999999N1+00301-00731999999ADDKA1120M+00541MA1999999075511ME1430929REMSYN082AAXX  18184 06688 43/// /2913 10030 21073 37551 47092 5//// 333 10054 553// 20004;
0112066880999992011101819004+46850+009183FM-12+248099999V0202501N004119999999N9999999N1+00251-00741999999ADDMA1999999075511ME1430909REMSYN076AAXX  18194 06688 43/// /2508 10025 21074 37551 47090 5//// 333 553// 20004;
0112066880999992011101820004+46850+009183FM-12+248099999V0202501N004119999999N9999999N1+00241-00691999999ADDMA1999999075481ME1430879REMSYN076AAXX  18204 06688 43/// /2508 10024 21069 37548 47087 5//// 333 553// 20004;
0149066880999992011101821004+46850+009183FM-12+248099999V0202401N004119999999N9999999N1+00211-00711999999ADDMA1999999075471MD1819999+9999ME1430859OA149900771REMSYN088AAXX  18214 06688 43/// /2408 10021 21071 37547 47085 58/// 333 55300 20004 91115 91210;
0149066880999992011101822004+46850+009183FM-12+248099999V0202401N004619999999N9999999N1+00161-00671999999ADDMA1999999075441MD1619999+9999ME1430819OA149900571REMSYN088AAXX  18224 06688 43/// /2409 10016 21067 37544 47081 56/// 333 55300 20004 91111 91209;
0112066880999992011101823004+46850+009183FM-12+248099999V0202601N003119999999N9999999N1+00111-00571999999ADDMA1999999075431ME1430799REMSYN076AAXX  18234 06688 43/// /2606 10011 21057 37543 47079 5//// 333 553// 20004;
0149066880999992011101900004+46850+009183FM-12+248099999V0202601N003119999999N9999999N1+00091-00541999999ADDMA1999999075401MD1819999+9999ME1430759OA149901131REMSYN088AAXX  19004 06688 43/// /2606 10009 21054 37540 47075 58/// 333 55300 20004 91122 91214;
0149066880999992011101901004+46850+009183FM-12+248099999V0202401N004119999999N9999999N1-00021-00461999999ADDMA1999999075351MD1810091+9999ME1430689OA149900671REMSYN088AAXX  19014 06688 43/// /2408 11002 21046 37535 47068 58009 333 55300 20004 91113 91209;
0112066880999992011101902004+46850+009183FM-12+248099999V0202401N006219999999N9999999N1-00081-00451999999ADDMA1999999075301ME1430619REMSYN076AAXX  19024 06688 43/// /2412 11008 21045 37530 47061 5//// 333 553// 20004;
0112066880999992011101903004+46850+009183FM-12+248099999V0202301N007719999999N9999999N1-00151-00401999999ADDMA1999999075261ME1430559REMSYN076AAXX  19034 06688 43/// /2315 11015 21040 37526 47055 5//// 333 553// 20004;
0149066880999992011101904004+46850+009183FM-12+248099999V0202501N004119999999N9999999N1-00191-00371999999ADDMA1999999075271MD1719999+9999ME1430559OA149900981REMSYN088AAXX  19044 06688 43/// /2508 11019 21037 37527 47055 57/// 333 55300 20004 91119 91214;
0149066880999992011101905004+46850+009183FM-12+248099999V0202401N006719999999N9999999N1-00181-00431999999ADDMA1999999075231MD1710071+9999ME1430519OA149900981REMSYN088AAXX  19054 06688 43/// /2413 11018 21043 37523 47051 57007 333 55300 20000 91119 91214;
0182066880999992011101906004+46850+009183FM-12+248099999V0202501N006219999999N9999999N1-00171-00441999999ADDGJ106069KA1999N-00201MA1999999075191MD1719999+9999ME1430489OA149900981REMSYN100AAXX  19064 06688 43/// /2512 11017 21044 37519 47048 57/// 333 21020 55101 55300 20007 91119 91215;
0149066880999992011101907004+46850+009183FM-12+248099999V0202501N004619999999N9999999N1-00141-00331999999ADDMA1999999075201MD1719999+9999ME1430499OA149900981REMSYN088AAXX  19074 06688 43/// /2509 11014 21033 37520 47049 57/// 333 55300 20040 91119 91213;
0112066880999992011101908004+46850+009183FM-12+248099999V0202401N006719999999N9999999N1-00121-00241999999ADDMA1999999075191ME1430499REMSYN076AAXX  19084 06688 43/// /2413 11012 21024 37519 47049 5//// 333 553// 20065;
0149066880999992011101909004+46850+009183FM-12+248099999V0202301N005719999999N9999999N1-00051-00181999999ADDMA1999999075151MD1819999+9999ME1430469OA149901031REMSYN088AAXX  19094 06688 43/// /2311 11005 21018 37515 47046 58/// 333 55300 20151 91120 91214;
0149066880999992011101910004+46850+009183FM-12+248099999V0202201N006719999999N9999999N1-00021-00131999999ADDMA1999999075121MD1719999+9999ME1430439OA149901031REMSYN088AAXX  19104 06688 43/// /2213 11002 21013 37512 47043 57/// 333 55300 20367 91120 91215;
0149066880999992011101911004+46850+009183FM-12+248099999V0202401N008719999999N9999999N1-00031-00091999999ADDMA1999999075101MD1710091+9999ME1430419OA149901241REMSYN088AAXX  19114 06688 43/// /2417 11003 21009 37510 47041 57009 333 55300 20504 91124 91217;
0112066880999992011101912004+46850+009183FM-12+248099999V0202201N008219999999N9999999N1-00021-00121999999ADDMA1999999075061ME1430379REMSYN076AAXX  19124 06688 43/// /2216 11002 21012 37506 47037 5//// 333 553// 20500;
0112066880999992011101913004+46850+009183FM-12+248099999V0202401N006719999999N9999999N1-00061-00161999999ADDMA1999999075041ME1430349REMSYN076AAXX  19134 06688 43/// /2413 11006 21016 37504 47034 5//// 333 553// 20320;
0112066880999992011101914004+46850+009183FM-12+248099999V0202601N003119999999N9999999N1-00091-00131999999ADDMA1999999075031ME1430329REMSYN076AAXX  19144 06688 43/// /2606 11009 21013 37503 47032 5//// 333 553// 20122;
0149066880999992011101915004+46850+009183FM-12+248099999V0202601N004619999999N9999999N1-00131-00131999999ADDMA1999999075021MD1710041+9999ME1430319OA149901181REMSYN088AAXX  19154 06688 43/// /2609 11013 21013 37502 47031 57004 333 55300 20061 91123 91218;
0168066880999992011101916004+46850+009183FM-12+248099999V0202401N005719999999N9999999N1-00121-00121999999ADDMA1999999075041MD1410001+9999ME1430339OA149900771REMSYN088AAXX  19164 06688 43/// /2411 11012 21012 37504 47033 52000 333 55300 20054 91115 91211;EQDQ01+000022APCTEN
0149066880999992011101917004+46850+009183FM-12+248099999V0203001N002619999999N9999999N1-00141-00141999999ADDMA1999999075051MD1310021+9999ME1430339OA149900721REMSYN088AAXX  19174 06688 43/// /3005 11014 21014 37505 47033 53002 333 55300 20014 91114 91211;
0168066880999992011101918004+46850+009183FM-12+248099999V0203001N004619999999N9999999N1-00261-00341999999ADDKA1120M+00001MA1999999075081MD1310061+9999ME1430349OA149901181REMSYN094AAXX  19184 06688 43/// /3009 11026 21034 37508 47034 53006 333 10000 55300 20004 91123 91218;
0149066880999992011101919004+46850+009183FM-12+248099999V0202901N002119999999N9999999N1-00311-00351999999ADDMA1999999075061MD1219999+9999ME1430319OA149900771REMSYN088AAXX  19194 06688 43/// /2904 11031 21035 37506 47031 52/// 333 55300 20000 91115 91210;
0112066880999992011101920004+46850+009183FM-12+248099999V0203501N004119999999N9999999N1-00411-00591999999ADDMA1999999075081ME1430319REMSYN076AAXX  19204 06688 43/// /3508 11041 21059 37508 47031 5//// 333 553// 20004;
0149066880999992011101921004+46850+009183FM-12+248099999V0203201N010819999999N9999999N1-00431-00781999999ADDMA1999999075081MD1519999+9999ME1430319OA149901701REMSYN088AAXX  19214 06688 43/// /3221 11043 21078 37508 47031 55/// 333 55300 20000 91133 91220;
0149066880999992011101922004+46850+009183FM-12+248099999V0200501N005719999999N9999999N1-00621-00711999999ADDMA1999999075121MD1210061+9999ME1430319OA149901651REMSYN088AAXX  19224 06688 43/// /0511 11062 21071 37512 47031 52006 333 55300 20000 91132 91217;
0149066880999992011101923004+46850+009183FM-12+248099999V0203501N002119999999N9999999N1-00651-00741999999ADDMA1999999075111MD1019999+9999ME1430299OA149901031REMSYN088AAXX  19234 06688 43/// /3504 11065 21074 37511 47029 50/// 333 55300 20000 91120 91212;
0149066880999992011102000004+46850+009183FM-12+248099999V0203501N006219999999N9999999N1-00661-00841999999ADDMA1999999075111MD1210031+9999ME1430299OA149901701REMSYN088AAXX  20004 06688 43/// /3512 11066 21084 37511 47029 52003 333 55300 20000 91133 91221;
0149066880999992011102001004+46850+009183FM-12+248099999V0203301N005119999999N9999999N1-00661-00861999999ADDMA1999999075141MD1319999+9999ME1430329OA149901081REMSYN088AAXX  20014 06688 43/// /3310 11066 21086 37514 47032 53/// 333 55300 20000 91121 91214;
0112066880999992011102002004+46850+009183FM-12+248099999V0202801N003119999999N9999999N1-00711-01051999999ADDMA1999999075121ME1430299REMSYN076AAXX  20024 06688 43/// /2806 11071 21105 37512 47029 5//// 333 553// 20000;
0112066880999992011102003004+46850+009183FM-12+248099999V0200201N004119999999N9999999N1-00821-00901999999ADDMA1999999075111ME1430259REMSYN076AAXX  20034 06688 43/// /0208 11082 21090 37511 47025 5//// 333 553// 20000;
0149066880999992011102004004+46850+009183FM-12+248099999V0200201N004619999999N9999999N1-00841-00991999999ADDMA1999999075131MD1519999+9999ME1430279OA149900981REMSYN088AAXX  20044 06688 43/// /0209 11084 21099 37513 47027 55/// 333 55300 20000 91119 91212;
0149066880999992011102005004+46850+009183FM-12+248099999V0200301N005719999999N9999999N1-00851-00991999999ADDMA1999999075161MD1310041+9999ME1430309OA149901031REMSYN088AAXX  20054 06688 43/// /0311 11085 21099 37516 47030 53004 333 55300 20000 91120 91212;
0145066880999992011102006004+46850+009183FM-12+248099999V0200301N007219999999N9999999N1-00841-00901999999ADDGJ100009KA1999N-00861MA1999999075171ME1430319REMSYN088AAXX  20064 06688 43/// /0314 11084 21090 37517 47031 5//// 333 21086 55000 553// 20000;
0149066880999992011102007004+46850+009183FM-12+248099999V0200301N007719999999N9999999N1-00861-00941999999ADDMA1999999075221MD1219999+9999ME1430369OA149901601REMSYN088AAXX  20074 06688 43/// /0315 11086 21094 37522 47036 52/// 333 55300 20104 91131 91218;
0112066880999992011102008004+46850+009183FM-12+248099999V0200201N009819999999N9999999N1-00861-01171999999ADDMA1999999075241ME1430389REMSYN076AAXX  20084 06688 43/// /0219 11086 21117 37524 47038 5//// 333 553// 20374;
0149066880999992011102009004+46850+009183FM-12+248099999V0200201N009319999999N9999999N1-00821-01021999999ADDMA1999999075261MD1219999+9999ME1430419OA149901601REMSYN088AAXX  20094 06688 43/// /0218 11082 21102 37526 47041 52/// 333 55300 21256 91131 91219;
0149066880999992011102010004+46850+009183FM-12+248099999V0200301N007219999999N9999999N1-00801-00991999999ADDMA1999999075301MD1219999+9999ME1430459OA149901291REMSYN088AAXX  20104 06688 43/// /0314 11080 21099 37530 47045 52/// 333 55300 21724 91125 91217;
0149066880999992011102011004+46850+009183FM-12+248099999V0200301N005719999999N9999999N1-00801-01241999999ADDMA1999999075301MD1219999+9999ME1430459OA149901131REMSYN088AAXX  20114 06688 43/// /0311 11080 21124 37530 47045 52/// 333 55300 21814 91122 91214;
0112066880999992011102012004+46850+009183FM-12+248099999V0200301N008219999999N9999999N1-00791-01411999999ADDMA1999999075281ME1430439REMSYN076AAXX  20124 06688 43/// /0316 11079 21141 37528 47043 5//// 333 553// 21372;
0112066880999992011102013004+46850+009183FM-12+248099999V0200401N005719999999N9999999N1-00771-00961999999ADDMA1999999075291ME1430459REMSYN076AAXX  20134 06688 43/// /0411 11077 21096 37529 47045 5//// 333 553// 22369;
0112066880999992011102014004+46850+009183FM-12+248099999V0200501N004119999999N9999999N1-00781-00941999999ADDMA1999999075311ME1430479REMSYN076AAXX  20144 06688 43/// /0508 11078 21094 37531 47047 5//// 333 553// 21271;
0112066880999992011102015004+46850+009183FM-12+248099999V0200201N007219999999N9999999N1-00851-01121999999ADDMA1999999075321ME1430469REMSYN076AAXX  20154 06688 43/// /0214 11085 21112 37532 47046 5//// 333 553// 20526;
0149066880999992011102016004+46850+009183FM-12+248099999V0200201N007219999999N9999999N1-00861-01161999999ADDMA1999999075331MD1219999+9999ME1430479OA149901031REMSYN088AAXX  20164 06688 43/// /0214 11086 21116 37533 47047 52/// 333 55307 20490 91120 91214;
0149066880999992011102017004+46850+009183FM-12+248099999V0200301N006219999999N9999999N1-00861-01081999999ADDMA1999999075351MD1210041+9999ME1430499OA149901031REMSYN088AAXX  20174 06688 43/// /0312 11086 21108 37535 47049 52004 333 55300 20022 91120 91215;
0131066880999992011102018004+46850+009183FM-12+248099999V0200401N006719999999N9999999N1-00861-01091999999ADDKA1120M-00731MA1999999075391ME1430539REMSYN082AAXX  20184 06688 43/// /0413 11086 21109 37539 47053 5//// 333 11073 553// 20000;
0112066880999992011102019004+46850+009183FM-12+248099999V0200301N004119999999N9999999N1-00851-01041999999ADDMA1999999075401ME1430549REMSYN076AAXX  20194 06688 43/// /0308 11085 21104 37540 47054 5//// 333 553// 20000;
0112066880999992011102020004+46850+009183FM-12+248099999V0200801N001019999999N9999999N1-00881-01001999999ADDMA1999999075411ME1430559REMSYN076AAXX  20204 06688 43/// /0802 11088 21100 37541 47055 5//// 333 553// 20000;
0112066880999992011102021004+46850+009183FM-12+248099999V0200201N002119999999N9999999N1-00831-01131999999ADDMA1999999075411ME1430569REMSYN076AAXX  20214 06688 43/// /0204 11083 21113 37541 47056 5//// 333 553// 20000;
0149066880999992011102022004+46850+009183FM-12+248099999V0203501N001019999999N9999999N1-00911-01051999999ADDMA1999999075401MD1019999+9999ME1430539OA149900511REMSYN088AAXX  20224 06688 43/// /3502 11091 21105 37540 47053 50/// 333 55300 20000 91110 91205;
0112066880999992011102023004+46850+009183FM-12+248099999V0203501N001519999999N9999999N1-00941-01131999999ADDMA1999999075391ME1430519REMSYN076AAXX  20234 06688 43/// /3503 11094 21113 37539 47051 5//// 333 553// 20000;
0112066880999992011102100004+46850+009183FM-12+248099999V0200501N001019999999N9999999N1-00951-01131999999ADDMA1999999075371ME1430499REMSYN076AAXX  21004 06688 43/// /0502 11095 21113 37537 47049 5//// 333 553// 20000;
0112066880999992011102101004+46850+009183FM-12+248099999V0201301N001019999999N9999999N1-01001-01121999999ADDMA1999999075371ME1430489REMSYN076AAXX  21014 06688 43/// /1302 11100 21112 37537 47048 5//// 333 553// 20000;
0112066880999992011102102004+46850+009183FM-12+248099999V0201501N001519999999N9999999N1-01021-01201999999ADDMA1999999075351ME1430459REMSYN076AAXX  21024 06688 43/// /1503 11102 21120 37535 47045 5//// 333 553// 20000;
0112066880999992011102103004+46850+009183FM-12+248099999V0201401N002619999999N9999999N1-01051-01171999999ADDMA1999999075341ME1430449REMSYN076AAXX  21034 06688 43/// /1405 11105 21117 37534 47044 5//// 333 553// 20000;
0112066880999992011102104004+46850+009183FM-12+248099999V0202301N002119999999N9999999N1-01051-01171999999ADDMA1999999075301ME1430409REMSYN076AAXX  21044 06688 43/// /2304 11105 21117 37530 47040 5//// 333 553// 20000;
0149066880999992011102105004+46850+009183FM-12+248099999V0202301N002619999999N9999999N1-00731-01921999999ADDMA1999999075281MD1810071+9999ME1430459OA149900411REMSYN088AAXX  21054 06688 43/// /2305 11073 21192 37528 47045 58007 333 55300 20000 91108 91206;
0182066880999992011102106004+46850+009183FM-12+248099999V0200201N002619999999N9999999N1-00531-03021999999ADDGJ101569KA1999N-01091MA1999999075301MD1519999+9999ME1430519OA149900411REMSYN100AAXX  21064 06688 43/// /0205 11053 21302 37530 47051 55/// 333 21109 55026 55300 20004 91108 91206;
0112066880999992011102107004+46850+009183FM-12+248099999V0200601N001519999999N9999999N1-00421-03061999999ADDMA1999999075351ME1430599REMSYN076AAXX  21074 06688 43/// /0603 11042 21306 37535 47059 5//// 333 553// 20295;
0112066880999992011102108004+46850+009183FM-12+248099999V0201501N001019999999N9999999N1-00431-03111999999ADDMA1999999075381ME1430629REMSYN076AAXX  21084 06688 43/// /1502 11043 21311 37538 47062 5//// 333 553// 20943;
0112066880999992011102109004+46850+009183FM-12+248099999V0202301N000519999999N9999999N1-00331-02181999999ADDMA1999999075401ME1430669REMSYN076AAXX  21094 06688 43/// /2301 11033 21218 37540 47066 5//// 333 553// 21674;
0149066880999992011102110004+46850+009183FM-12+248099999V0202001N001019999999N9999999N1-00401-01601999999ADDMA1999999075421MD1219999+9999ME1430669OA149900151REMSYN088AAXX  21104 06688 43/// /2002 11040 21160 37542 47066 52/// 333 55310 22052 91103 91202;
0184066880999992011102111004+46850+009183FM-12+248099999V0202401N002619999999N9999999N1-00261+99999999999ADDMA1999999075431MD1219999+9999ME1430719OA149900311REMSYN088AAXX  21114 06688 43/// /2405 11026 21307 37543 47071 52/// 333 55310 22340 91106 91205;EQDQ01-003073ATOD  Q02 -03073ATOD  
0112066880999992011102112004+46850+009183FM-12+248099999V0202701N003119999999N9999999N1-00221-01301999999ADDMA1999999075411ME1430699REMSYN076AAXX  21124 06688 43/// /2706 11022 21130 37541 47069 5//// 333 553// 22398;
0112066880999992011102113004+46850+009183FM-12+248099999V0200201N002119999999N9999999N1-00141-02122999999ADDMA1999999075401ME1430709REMSYN076AAXX  21134 06688 43/// /0204 11014 21212 37540 47070 5//// 333 553// 22178;
0112066880999992011102114004+46850+009183FM-12+248099999V0203501N001519999999N9999999N1-00201-01401999999ADDMA1999999075401ME1430699REMSYN076AAXX  21144 06688 43/// /3503 11020 21140 37540 47069 5//// 333 553// 21616;
0112066880999992011102115004+46850+009183FM-12+248099999V0202501N001019999999N9999999N1-00351-00991999999ADDMA1999999075411ME1430669REMSYN076AAXX  21154 06688 43/// /2502 11035 21099 37541 47066 5//// 333 553// 20932;
0112066880999992011102116004+46850+009183FM-12+248099999V0202701N001519999999N9999999N1-00431-00511999999ADDMA1999999075411ME1430659REMSYN076AAXX  21164 06688 43/// /2703 11043 21051 37541 47065 5//// 333 553// 20392;
0149066880999992011102117004+46850+009183FM-12+248099999V0202301N001519999999N9999999N1-00391-01051999999ADDMA1999999075431MD1319999+9999ME1430689OA149900261REMSYN088AAXX  21174 06688 43/// /2303 11039 21105 37543 47068 53/// 333 55302 20029 91105 91204;
0131066880999992011102118004+46850+009183FM-12+248099999V0202601N001519999999N9999999N1-00381-01061999999ADDKA1120M-00141MA1999999075451ME1430709REMSYN082AAXX  21184 06688 43/// /2603 11038 21106 37545 47070 5//// 333 11014 553// 20000;
0149066880999992011102119004+46850+009183FM-12+248099999V0201601N001019999999N9999999N1-00371-01371999999ADDMA1999999075451MD1119999+9999ME1430709OA149900211REMSYN088AAXX  21194 06688 43/// /1602 11037 21137 37545 47070 51/// 333 55300 20000 91104 91203;
0112066880999992011102120004+46850+009183FM-12+248099999V0202101N001019999999N9999999N1-00321-01931999999ADDMA1999999075451ME1430719REMSYN076AAXX  21204 06688 43/// /2102 11032 21193 37545 47071 5//// 333 553// 20000;
0112066880999992011102121004+46850+009183FM-12+248099999V0200301N002619999999N9999999N1-00091-03151999999ADDMA1999999075441ME1430759REMSYN076AAXX  21214 06688 43/// /0305 11009 21315 37544 47075 5//// 333 553// 20000;
0112066880999992011102122004+46850+009183FM-12+248099999V0200201N004119999999N9999999N1-00131-03641999999ADDMA1999999075431ME1430739REMSYN076AAXX  21224 06688 43/// /0208 11013 21364 37543 47073 5//// 333 553// 20004;
0112066880999992011102123004+46850+009183FM-12+248099999V0200201N002619999999N9999999N1-00061-03631999999ADDMA1999999075431ME1430759REMSYN076AAXX  21234 06688 43/// /0205 11006 21363 37543 47075 5//// 333 553// 20000;
0112066880999992011102200004+46850+009183FM-12+248099999V0203501N001019999999N9999999N1-00031-03751999999ADDMA1999999075401ME1430739REMSYN076AAXX  22004 06688 43/// /3502 11003 21375 37540 47073 5//// 333 553// 20004;
0112066880999992011102201004+46850+009183FM-12+248099999V0203201N001019999999N9999999N1+00061-03671999999ADDMA1999999075381ME1430729REMSYN076AAXX  22014 06688 43/// /3202 10006 21367 37538 47072 5//// 333 553// 20004;
0112066880999992011102202004+46850+009183FM-12+248099999V0200201N001019999999N9999999N1+00121-03621999999ADDMA1999999075341ME1430709REMSYN076AAXX  22024 06688 43/// /0202 10012 21362 37534 47070 5//// 333 553// 20004;
0112066880999992011102203004+46850+009183FM-12+248099999V0200301N002619999999N9999999N1+00081-03421999999ADDMA1999999075341ME1430699REMSYN076AAXX  22034 06688 43/// /0305 10008 21342 37534 47069 5//// 333 553// 20004;
0112066880999992011102204004+46850+009183FM-12+248099999V0200501N004119999999N9999999N1+00101-03421999999ADDMA1999999075321ME1430679REMSYN076AAXX  22044 06688 43/// /0508 10010 21342 37532 47067 5//// 333 553// 20004;
0149066880999992011102205004+46850+009183FM-12+248099999V0200201N004619999999N9999999N1+00041-03611999999ADDMA1999999075321MD1719999+9999ME1430669OA149900771REMSYN088AAXX  22054 06688 43/// /0209 10004 21361 37532 47066 57/// 333 55300 20004 91115 91209;
0145066880999992011102206004+46850+009183FM-12+248099999V0200201N006219999999N9999999N1+00021-03671999999ADDGJ105529KA1999N-00421MA1999999075321ME1430659REMSYN088AAXX  22064 06688 43/// /0212 10002 21367 37532 47065 5//// 333 21042 55092 553// 20007;
0112066880999992011102207004+46850+009183FM-12+248099999V0200201N003619999999N9999999N1+00041-03551999999ADDMA1999999075351ME1430699REMSYN076AAXX  22074 06688 43/// /0207 10004 21355 37535 47069 5//// 333 553// 20284;
0112066880999992011102208004+46850+009183FM-12+248099999V0203601N003619999999N9999999N1+00051-03381999999ADDMA1999999075361ME1430709REMSYN076AAXX  22084 06688 43/// /3607 10005 21338 37536 47070 5//// 333 553// 20983;
0096066880999992011102209004+46850+009183FM-12+248099999V0200101N005119999999N9999999N1+00051-03241999999ADDMA1999999075371ME1430719REMSYN060AAXX  22094 06688 43/// /0110 10005 21324 37537 47071 5////;
0131066880999992011102210004+46850+009183FM-12+248099999V0200101N002119999999N9999999N1+00031-01882999999ADDMA1999999075391ME1430739REMSYN076AAXX  22104 06688 43/// /0104 10003 21188 37539 47073 5//// 333 553// 22023;EQDQ01-001883ATOD  
0112066880999992011102212004+46850+009183FM-12+248099999V0202601N001519999999N9999999N1-00031-00641999999ADDMA1999999075351ME1430679REMSYN076AAXX  22124 06688 43/// /2603 11003 21064 37535 47067 5//// 333 553// 22336;
0112066880999992011102213004+46850+009183FM-12+248099999V0202401N001519999999N9999999N1+00011-00571999999ADDMA1999999075331ME1430669REMSYN076AAXX  22134 06688 43/// /2403 10001 21057 37533 47066 5//// 333 553// 22110;
0112066880999992011102214004+46850+009183FM-12+248099999V0202601N001519999999N9999999N1+00021-00711999999ADDMA1999999075311ME1430649REMSYN076AAXX  22144 06688 43/// /2603 10002 21071 37531 47064 5//// 333 553// 21696;
0112066880999992011102215004+46850+009183FM-12+248099999V0202501N001519999999N9999999N1-00071-00661999999ADDMA1999999075301ME1430619REMSYN076AAXX  22154 06688 43/// /2503 11007 21066 37530 47061 5//// 333 553// 21098;
0112066880999992011102216004+46850+009183FM-12+248099999V0202101N000519999999N9999999N1-00091-00761999999ADDMA1999999075291ME1430609REMSYN076AAXX  22164 06688 43/// /2101 11009 21076 37529 47060 5//// 333 553// 20425;
0149066880999992011102217004+46850+009183FM-12+248099999V0202301N001019999999N9999999N1-00171-00731999999ADDMA1999999075291MD1619999+9999ME1430589OA149900101REMSYN088AAXX  22174 06688 43/// /2302 11017 21073 37529 47058 56/// 333 55301 20029 91102 91202;
0131066880999992011102218004+46850+009183FM-12+248099999V0202901N001019999999N9999999N1-00191-00711999999ADDKA1120M+00091MA1999999075301ME1430599REMSYN082AAXX  22184 06688 43/// /2902 11019 21071 37530 47059 5//// 333 10009 553// 20000;
0112066880999992011102219004+46850+009183FM-12+248099999V0202301N001519999999N9999999N1-00231-00761999999ADDMA1999999075291ME1430579REMSYN076AAXX  22194 06688 43/// /2303 11023 21076 37529 47057 5//// 333 553// 20000;
0112066880999992011102220004+46850+009183FM-12+248099999V0203501N002119999999N9999999N1-00101-01611999999ADDMA1999999075281ME1430589REMSYN076AAXX  22204 06688 43/// /3504 11010 21161 37528 47058 5//// 333 553// 20000;
0149066880999992011102221004+46850+009183FM-12+248099999V0200201N003619999999N9999999N1+00041-02481999999ADDMA1999999075271MD1619999+9999ME1430609OA149900721REMSYN088AAXX  22214 06688 43/// /0207 10004 21248 37527 47060 56/// 333 55300 20004 91114 91210;
0112066880999992011102222004+46850+009183FM-12+248099999V0200101N004119999999N9999999N1+00071-03151999999ADDMA1999999075251ME1430599REMSYN076AAXX  22224 06688 43/// /0108 10007 21315 37525 47059 5//// 333 553// 20004;
0112066880999992011102223004+46850+009183FM-12+248099999V0203301N002119999999N9999999N1-00101-02471999999ADDMA1999999075231ME1430539REMSYN076AAXX  22234 06688 43/// /3304 11010 21247 37523 47053 5//// 333 553// 20004;
0112066880999992011102300004+46850+009183FM-12+248099999V0203001N003119999999N9999999N1-00101-02251999999ADDMA1999999075221ME1430529REMSYN076AAXX  23004 06688 43/// /3006 11010 21225 37522 47052 5//// 333 553// 20004;
0112066880999992011102301004+46850+009183FM-12+248099999V0202901N003619999999N9999999N1-00171-02181999999ADDMA1999999075221ME1430519REMSYN076AAXX  23014 06688 43/// /2907 11017 21218 37522 47051 5//// 333 553// 20004;
0096066880999992011102302004+46850+009183FM-12+248099999V0202801N003119999999N9999999N1-00171-02251999999ADDMA1999999075201ME1430499REMSYN060AAXX  23024 06688 43/// /2806 11017 21225 37520 47049 5////;
0096066880999992011102303004+46850+009183FM-12+248099999V0202601N003619999999N9999999N1-00241-02081999999ADDMA1999999075181ME1430459REMSYN060AAXX  23034 06688 43/// /2607 11024 21208 37518 47045 5////;
0112066880999992011102304004+46850+009183FM-12+248099999V0202701N002619999999N9999999N1-00261-02011999999ADDMA1999999075191ME1430469REMSYN076AAXX  23044 06688 43/// /2705 11026 21201 37519 47046 5//// 333 553// 20000;
0149066880999992011102305004+46850+009183FM-12+248099999V0202901N003119999999N9999999N1-00261-02031999999ADDMA1999999075171MD1710031+9999ME1430439OA149900511REMSYN088AAXX  23054 06688 43/// /2906 11026 21203 37517 47043 57003 333 55300 20000 91110 91207;
0182066880999992011102306004+46850+009183FM-12+248099999V0202901N002119999999N9999999N1-00241-02181999999ADDGJ106009KA1999N-00321MA1999999075161MD1719999+9999ME1430439OA149900721REMSYN100AAXX  23064 06688 43/// /2904 11024 21218 37516 47043 57/// 333 21032 55100 55300 20004 91114 91209;
0149066880999992011102307004+46850+009183FM-12+248099999V0202901N002119999999N9999999N1-00251-02011999999ADDMA1999999075171MD1510021+9999ME1430449OA149900361REMSYN088AAXX  23074 06688 43/// /2904 11025 21201 37517 47044 55002 333 55309 20270 91107 91204;
0112066880999992011102308004+46850+009183FM-12+248099999V0200201N001519999999N9999999N1-00141-02341999999ADDMA1999999075171ME1430469REMSYN076AAXX  23084 06688 43/// /0203 11014 21234 37517 47046 5//// 333 553// 20968;
0149066880999992011102309004+46850+009183FM-12+248099999V0202401N001019999999N9999999N1-00231-01171999999ADDMA1999999075171MD1119999+9999ME1430449OA149900461REMSYN088AAXX  23094 06688 43/// /2402 11023 21117 37517 47044 51/// 333 55310 21634 91109 91204;
0112066880999992011102310004+46850+009183FM-12+248099999V0202401N002119999999N9999999N1-00201-01161999999ADDMA1999999075161ME1430449REMSYN076AAXX  23104 06688 43/// /2404 11020 21116 37516 47044 5//// 333 553// 22005;
0112066880999992011102312004+46850+009183FM-12+248099999V0202301N002619999999N9999999N1-00071-00941999999ADDMA1999999075111ME1430419REMSYN076AAXX  23124 06688 43/// /2305 11007 21094 37511 47041 5//// 333 553// 22315;
0149066880999992011102313004+46850+009183FM-12+248099999V0202401N002619999999N9999999N1-00011-00981999999ADDMA1999999075071MD1819999+9999ME1430389OA149900571REMSYN088AAXX  23134 06688 43/// /2405 11001 21098 37507 47038 58/// 333 55310 22095 91111 91205;
0112066880999992011102314004+46850+009183FM-12+248099999V0202401N003119999999N9999999N1+00001-01041999999ADDMA1999999075031ME1430349REMSYN076AAXX  23144 06688 43/// /2406 10000 21104 37503 47034 5//// 333 553// 21681;
0149066880999992011102315004+46850+009183FM-12+248099999V0202501N001519999999N9999999N1-00081-00921999999ADDMA1999999075001MD1619999+9999ME1430309OA149900671REMSYN088AAXX  23154 06688 43/// /2503 11008 21092 37500 47030 56/// 333 55310 21069 91113 91207;
0149066880999992011102316004+46850+009183FM-12+248099999V0202201N003619999999N9999999N1-00141-00861999999ADDMA1999999074981MD1610091+9999ME1430269OA149900511REMSYN088AAXX  23164 06688 43/// /2207 11014 21086 37498 47026 56009 333 55310 20396 91110 91207;
0149066880999992011102317004+46850+009183FM-12+248099999V0202501N005119999999N9999999N1-00271-01001999999ADDMA1999999074961MD1610071+9999ME1430219OA149900671REMSYN088AAXX  23174 06688 43/// /2510 11027 21100 37496 47021 56007 333 55301 20025 91113 91210;
0168066880999992011102318004+46850+009183FM-12+248099999V0202401N005719999999N9999999N1-00281-01081999999ADDKA1120M+00021MA1999999074961MD1719999+9999ME1430219OA149900771REMSYN094AAXX  23184 06688 43/// /2411 11028 21108 37496 47021 57/// 333 10002 55300 20000 91115 91212;
0149066880999992011102319004+46850+009183FM-12+248099999V0202401N004619999999N9999999N1-00381-01131999999ADDMA1999999074961MD1719999+9999ME1430199OA149900721REMSYN088AAXX  23194 06688 43/// /2409 11038 21113 37496 47019 57/// 333 55300 20000 91114 91210;
0112066880999992011102320004+46850+009183FM-12+248099999V0202601N005719999999N9999999N1-00441-01361999999ADDMA1999999074961ME1430189REMSYN076AAXX  23204 06688 43/// /2611 11044 21136 37496 47018 5//// 333 553// 20000;
0112066880999992011102321004+46850+009183FM-12+248099999V0202601N005719999999N9999999N1-00551-01291999999ADDMA1999999074951ME1430159REMSYN076AAXX  23214 06688 43/// /2611 11055 21129 37495 47015 5//// 333 553// 20000;
0112066880999992011102322004+46850+009183FM-12+248099999V0202701N006719999999N9999999N1-00571-01351999999ADDMA1999999074921ME1430119REMSYN076AAXX  23224 06688 43/// /2713 11057 21135 37492 47011 5//// 333 553// 20000;
0112066880999992011102323004+46850+009183FM-12+248099999V0202501N005119999999N9999999N1-00591-01361999999ADDMA1999999074911ME1430109REMSYN076AAXX  23234 06688 43/// /2510 11059 21136 37491 47010 5//// 333 553// 20000;
0112066880999992011102400004+46850+009183FM-12+248099999V0202601N005119999999N9999999N1-00621-01341999999ADDMA1999999074871ME1430059REMSYN076AAXX  24004 06688 43/// /2610 11062 21134 37487 47005 5//// 333 553// 20000;
0112066880999992011102401004+46850+009183FM-12+248099999V0202601N005719999999N9999999N1-00671-01281999999ADDMA1999999074841ME1430019REMSYN076AAXX  24014 06688 43/// /2611 11067 21128 37484 47001 5//// 333 553// 20000;
0112066880999992011102402004+46850+009183FM-12+248099999V0202701N005119999999N9999999N1-00661-01301999999ADDMA1999999074791ME1429969REMSYN076AAXX  24024 06688 43/// /2710 11066 21130 37479 47996 5//// 333 553// 20000;
0112066880999992011102403004+46850+009183FM-12+248099999V0202601N006219999999N9999999N1-00711-01231999999ADDMA1999999074751ME1429919REMSYN076AAXX  24034 06688 43/// /2612 11071 21123 37475 47991 5//// 333 553// 20000;
0112066880999992011102404004+46850+009183FM-12+248099999V0202701N007719999999N9999999N1-00721-01191999999ADDMA1999999074731ME1429889REMSYN076AAXX  24044 06688 43/// /2715 11072 21119 37473 47988 5//// 333 553// 20000;
0149066880999992011102405004+46850+009183FM-12+248099999V0202501N005119999999N9999999N1-00701-01211999999ADDMA1999999074731MD1519999+9999ME1429899OA149900881REMSYN088AAXX  24054 06688 43/// /2510 11070 21121 37473 47989 55/// 333 55300 20000 91117 91214;
0182066880999992011102406004+46850+009183FM-12+248099999V0202501N004619999999N9999999N1-00701-01201999999ADDGJ105949KA1999N-00741MA1999999074721MD1719999+9999ME1429889OA149901081REMSYN100AAXX  24064 06688 43/// /2509 11070 21120 37472 47988 57/// 333 21074 55099 55300 20004 91121 91217;
0112066880999992011102407004+46850+009183FM-12+248099999V0202301N005719999999N9999999N1-00631-01111999999ADDMA1999999074741ME1429919REMSYN076AAXX  24074 06688 43/// /2311 11063 21111 37474 47991 5//// 333 553// 20238;
0112066880999992011102408004+46850+009183FM-12+248099999V0202501N005119999999N9999999N1-00611-01141999999ADDMA1999999074751ME1429939REMSYN076AAXX  24084 06688 43/// /2510 11061 21114 37475 47993 5//// 333 553// 20889;
0112066880999992011102409004+46850+009183FM-12+248099999V0202401N005119999999N9999999N1-00561-01051999999ADDMA1999999074751ME1429949REMSYN076AAXX  24094 06688 43/// /2410 11056 21105 37475 47994 5//// 333 553// 21526;
0112066880999992011102410004+46850+009183FM-12+248099999V0202301N007719999999N9999999N1-00461-01011999999ADDMA1999999074751ME1429969REMSYN076AAXX  24104 06688 43/// /2315 11046 21101 37475 47996 5//// 333 553// 21901;
0112066880999992011102411004+46850+009183FM-12+248099999V0202301N007719999999N9999999N1-00421-01071999999ADDMA1999999074751ME1429969REMSYN076AAXX  24114 06688 43/// /2315 11042 21107 37475 47996 5//// 333 553// 22178;
0112066880999992011102413004+46850+009183FM-12+248099999V0202201N005719999999N9999999N1-00351-00891999999ADDMA1999999074701ME1429939REMSYN076AAXX  24134 06688 43/// /2211 11035 21089 37470 47993 5//// 333 553// 21994;
0112066880999992011102414004+46850+009183FM-12+248099999V0202301N005719999999N9999999N1-00331-00791999999ADDMA1999999074671ME1429909REMSYN076AAXX  24144 06688 43/// /2311 11033 21079 37467 47990 5//// 333 553// 21476;
0149066880999992011102415004+46850+009183FM-12+248099999V0202201N006219999999N9999999N1-00411-00711999999ADDMA1999999074671MD1719999+9999ME1429889OA149901241REMSYN088AAXX  24154 06688 43/// /2212 11041 21071 37467 47988 57/// 333 55310 21062 91124 91213;
0149066880999992011102416004+46850+009183FM-12+248099999V0202401N005719999999N9999999N1-00461-00761999999ADDMA1999999074661MD1719999+9999ME1429869OA149900771REMSYN088AAXX  24164 06688 43/// /2411 11046 21076 37466 47986 57/// 333 55303 20184 91115 91212;
0149066880999992011102417004+46850+009183FM-12+248099999V0202401N005119999999N9999999N1-00481-00671999999ADDMA1999999074701MD1319999+9999ME1429909OA149900881REMSYN088AAXX  24174 06688 43/// /2410 11048 21067 37470 47990 53/// 333 55300 20007 91117 91213;
0131066880999992011102418004+46850+009183FM-12+248099999V0202401N004619999999N9999999N1-00441-00641999999ADDKA1120M-00331MA1999999074731ME1429949REMSYN082AAXX  24184 06688 43/// /2409 11044 21064 37473 47994 5//// 333 11033 553// 20000;
0112066880999992011102419004+46850+009183FM-12+248099999V0202601N007219999999N9999999N1-00361-00571999999ADDMA1999999074721ME1429949REMSYN076AAXX  24194 06688 43/// /2614 11036 21057 37472 47994 5//// 333 553// 20000;
0112066880999992011102420004+46850+009183FM-12+248099999V0202401N007219999999N9999999N1-00371-00621999999ADDMA1999999074731ME1429959REMSYN076AAXX  24204 06688 43/// /2414 11037 21062 37473 47995 5//// 333 553// 20000;
0112066880999992011102421004+46850+009183FM-12+248099999V0202301N006219999999N9999999N1-00321-00541999999ADDMA1999999074731ME1429969REMSYN076AAXX  24214 06688 43/// /2312 11032 21054 37473 47996 5//// 333 553// 20000;
0149066880999992011102422004+46850+009183FM-12+248099999V0202501N005719999999N9999999N1-00291-00441999999ADDMA1999999074731MD1019999+9999ME1429979OA149900931REMSYN088AAXX  24224 06688 43/// /2511 11029 21044 37473 47997 50/// 333 55300 20000 91118 91212;
0149066880999992011102423004+46850+009183FM-12+248099999V0202301N004619999999N9999999N1-00321-00361999999ADDMA1999999074721MD1819999+9999ME1429959OA149900771REMSYN088AAXX  24234 06688 43/// /2309 11032 21036 37472 47995 58/// 333 55300 20000 91115 91211;
0149066880999992011102500004+46850+009183FM-12+248099999V0202401N006219999999N9999999N1-00261-00471999999ADDMA1999999074701MD1719999+9999ME1429949OA149901131REMSYN088AAXX  25004 06688 43/// /2412 11026 21047 37470 47994 57/// 333 55300 20000 91122 91215;
0149066880999992011102501004+46850+009183FM-12+248099999V0202601N003619999999N9999999N1-00241-00441999999ADDMA1999999074701MD1719999+9999ME1429959OA149900881REMSYN088AAXX  25014 06688 43/// /2607 11024 21044 37470 47995 57/// 333 55300 20000 91117 91212;
0112066880999992011102502004+46850+009183FM-12+248099999V0202401N005119999999N9999999N1-00211-00461999999ADDMA1999999074651ME1429909REMSYN076AAXX  25024 06688 43/// /2410 11021 21046 37465 47990 5//// 333 553// 20004;
0112066880999992011102503004+46850+009183FM-12+248099999V0201801N005119999999N9999999N1-00201-00381999999ADDMA1999999074601ME1429859REMSYN076AAXX  25034 06688 43/// /1810 11020 21038 37460 47985 5//// 333 553// 20004;
0112066880999992011102504004+46850+009183FM-12+248099999V0201901N011319999999N9999999N1-00191-00241999999ADDMA1999999074531ME1429789REMSYN076AAXX  25044 06688 43/// /1922 11019 21024 37453 47978 5//// 333 553// 20004;
0149066880999992011102505004+46850+009183FM-12+248099999V0202001N010819999999N9999999N1-00161-00231999999ADDMA1999999074471MD1719999+9999ME1429729OA149901751REMSYN088AAXX  25054 06688 43/// /2021 11016 21023 37447 47972 57/// 333 55300 20004 91134 91226;
0182066880999992011102506004+46850+009183FM-12+248099999V0201901N006219999999N9999999N1-00201-00251999999ADDGJ105409KA1999N-00441MA1999999074491MD1719999+9999ME1429739OA149901751REMSYN100AAXX  25064 06688 43/// /1912 11020 21025 37449 47973 57/// 333 21044 55090 55300 20004 91134 91226;
0112066880999992011102507004+46850+009183FM-12+248099999V0201901N015919999999N9999999N1-00051-00111999999ADDMA1999999074461ME1429739REMSYN076AAXX  25074 06688 43/// /1931 11005 21011 37446 47973 5//// 333 553// 20083;
0112066880999992011102508004+46850+009183FM-12+248099999V0201901N012319999999N9999999N1-00061-00121999999ADDMA1999999074441ME1429719REMSYN076AAXX  25084 06688 43/// /1924 11006 21012 37444 47971 5//// 333 553// 20511;
0112066880999992011102509004+46850+009183FM-12+248099999V0201801N011819999999N9999999N1+00031-00091999999ADDMA1999999074481ME1429779REMSYN076AAXX  25094 06688 43/// /1823 10003 21009 37448 47977 5//// 333 553// 20688;
0112066880999992011102510004+46850+009183FM-12+248099999V0202101N006219999999N9999999N1-00031-00031999999ADDMA1999999074481ME1429769REMSYN076AAXX  25104 06688 43/// /2112 11003 21003 37448 47976 5//// 333 553// 21044;
0112066880999992011102511004+46850+009183FM-12+248099999V0202001N005719999999N9999999N1+00031+00031999999ADDMA1999999074501ME1429799REMSYN076AAXX  25114 06688 43/// /2011 10003 20003 37450 47979 5//// 333 553// 21141;
0112066880999992011102512004+46850+009183FM-12+248099999V0202101N005719999999N9999999N1+00061+00011999999ADDMA1999999074501ME1429799REMSYN076AAXX  25124 06688 43/// /2111 10006 20001 37450 47979 5//// 333 553// 20983;
0112066880999992011102513004+46850+009183FM-12+248099999V0201901N009319999999N9999999N1-00031-00031999999ADDMA1999999074511ME1429799REMSYN076AAXX  25134 06688 43/// /1918 11003 21003 37451 47979 5//// 333 553// 20608;
0112066880999992011102514004+46850+009183FM-12+248099999V0201901N007219999999N9999999N1-00081-00081999999ADDMA1999999074511ME1429789REMSYN076AAXX  25144 06688 43/// /1914 11008 21008 37451 47978 5//// 333 553// 20349;
0112066880999992011102515004+46850+009183FM-12+248099999V0202101N006219999999N9999999N1-00061-00101999999ADDMA1999999074541ME1429819REMSYN076AAXX  25154 06688 43/// /2112 11006 21010 37454 47981 5//// 333 553// 20223;
0149066880999992011102516004+46850+009183FM-12+248099999V0202201N005719999999N9999999N1-00071-00081999999ADDMA1999999074551MD1219999+9999ME1429829OA149900821REMSYN088AAXX  25164 06688 43/// /2211 11007 21008 37455 47982 52/// 333 55300 20076 91116 91213;
0149066880999992011102517004+46850+009183FM-12+248099999V0202001N005119999999N9999999N1-00131-00131999999ADDMA1999999074591MD1219999+9999ME1429859OA149900771REMSYN088AAXX  25174 06688 43/// /2010 11013 21013 37459 47985 52/// 333 55300 20004 91115 91212;
0131066880999992011102518004+46850+009183FM-12+248099999V0201901N006219999999N9999999N1-00111-00111999999ADDKA1120M+00061MA1999999074611ME1429889REMSYN082AAXX  25184 06688 43/// /1912 11011 21011 37461 47988 5//// 333 10006 553// 20004;
0096066880999992011102519004+46850+009183FM-12+248099999V0201801N009319999999N9999999N1-00111-00111999999ADDMA1999999074621ME1429899REMSYN060AAXX  25194 06688 43/// /1818 11011 21011 37462 47989 5////;
0112066880999992011102520004+46850+009183FM-12+248099999V0202301N004119999999N9999999N1-00141-00141999999ADDMA1999999074671ME1429949REMSYN076AAXX  25204 06688 43/// /2308 11014 21014 37467 47994 5//// 333 553// 20004;
0112066880999992011102521004+46850+009183FM-12+248099999V0201801N004619999999N9999999N1-00081-00081999999ADDMA1999999074681ME1429969REMSYN076AAXX  25214 06688 43/// /1809 11008 21008 37468 47996 5//// 333 553// 20000;
0112066880999992011102522004+46850+009183FM-12+248099999V0202101N003619999999N9999999N1-00071-00071999999ADDMA1999999074691ME1429979REMSYN076AAXX  25224 06688 43/// /2107 11007 21007 37469 47997 5//// 333 553// 20004;
0112066880999992011102523004+46850+009183FM-12+248099999V0201801N002619999999N9999999N1-00051-00121999999ADDMA1999999074701ME1429989REMSYN076AAXX  25234 06688 43/// /1805 11005 21012 37470 47998 5//// 333 553// 20004;
0112066880999992011102600004+46850+009183FM-12+248099999V0202001N004119999999N9999999N1-00021-00021999999ADDMA1999999074731ME1430029REMSYN076AAXX  26004 06688 43/// /2008 11002 21002 37473 47002 5//// 333 553// 20004;
0112066880999992011102601004+46850+009183FM-12+248099999V0201701N005119999999N9999999N1-00021-00131999999ADDMA1999999074761ME1430059REMSYN076AAXX  26014 06688 43/// /1710 11002 21013 37476 47005 5//// 333 553// 20004;
0112066880999992011102602004+46850+009183FM-12+248099999V0202001N005119999999N9999999N1-00061-00161999999ADDMA1999999074761ME1430059REMSYN076AAXX  26024 06688 43/// /2010 11006 21016 37476 47005 5//// 333 553// 20004;
0112066880999992011102603004+46850+009183FM-12+248099999V0201801N006719999999N9999999N1-00071-00131999999ADDMA1999999074771ME1430059REMSYN076AAXX  26034 06688 43/// /1813 11007 21013 37477 47005 5//// 333 553// 20004;
0112066880999992011102604004+46850+009183FM-12+248099999V0201901N005119999999N9999999N1-00151-00211999999ADDMA1999999074771ME1430049REMSYN076AAXX  26044 06688 43/// /1910 11015 21021 37477 47004 5//// 333 553// 20004;
0112066880999992011102605004+46850+009183FM-12+248099999V0201701N004119999999N9999999N1-00101-00201999999ADDMA1999999074801ME1430089REMSYN076AAXX  26054 06688 43/// /1708 11010 21020 37480 47008 5//// 333 553// 20004;
0182066880999992011102606004+46850+009183FM-12+248099999V0201201N003119999999N9999999N1-00161-00161999999ADDGJ100009KA1999N-00201MA1999999074851MD1319999+9999ME1430129OA149901081REMSYN100AAXX  26064 06688 43/// /1206 11016 21016 37485 47012 53/// 333 21020 55000 55300 20004 91121 91214;
0112066880999992011102607004+46850+009183FM-12+248099999V0201201N003119999999N9999999N1-00161-00161999999ADDMA1999999074911ME1430189REMSYN076AAXX  26074 06688 43/// /1206 11016 21016 37491 47018 5//// 333 553// 20090;
0112066880999992011102608004+46850+009183FM-12+248099999V0201001N002619999999N9999999N1-00071-00071999999ADDMA1999999074981ME1430289REMSYN076AAXX  26084 06688 43/// /1005 11007 21007 37498 47028 5//// 333 553// 20270;
0112066880999992011102609004+46850+009183FM-12+248099999V0200801N003119999999N9999999N1-00111-00111999999ADDMA1999999075011ME1430309REMSYN076AAXX  26094 06688 43/// /0806 11011 21011 37501 47030 5//// 333 553// 20648;
0149066880999992011102610004+46850+009183FM-12+248099999V0201301N001519999999N9999999N1-00061-00061999999ADDMA1999999075041MD1219999+9999ME1430349OA149900511REMSYN088AAXX  26104 06688 43/// /1303 11006 21006 37504 47034 52/// 333 55304 21501 91110 91206;
0149066880999992011102611004+46850+009183FM-12+248099999V0202501N001019999999N9999999N1-00041-00081999999ADDMA1999999075031MD1219999+9999ME1430339OA149900311REMSYN088AAXX  26114 06688 43/// /2502 11004 21008 37503 47033 52/// 333 55300 21170 91106 91203;
0112066880999992011102612004+46850+009183FM-12+248099999V0202101N001019999999N9999999N1-00111-00111999999ADDMA1999999075031ME1430329REMSYN076AAXX  26124 06688 43/// /2102 11011 21011 37503 47032 5//// 333 553// 21073;
0112066880999992011102613004+46850+009183FM-12+248099999V0201601N001519999999N9999999N1-00041-00041999999ADDMA1999999075051ME1430369REMSYN076AAXX  26134 06688 43/// /1603 11004 21004 37505 47036 5//// 333 553// 20947;
0112066880999992011102614004+46850+009183FM-12+248099999V0202201N002619999999N9999999N1-00041-00041999999ADDMA1999999075071ME1430389REMSYN076AAXX  26144 06688 43/// /2205 11004 21004 37507 47038 5//// 333 553// 20738;
0149066880999992011102615004+46850+009183FM-12+248099999V0202301N004619999999N9999999N1-00051-00051999999ADDMA1999999075091MD1319999+9999ME1430409OA149900621REMSYN088AAXX  26154 06688 43/// /2309 11005 21005 37509 47040 53/// 333 55300 20464 91112 91208;
0149066880999992011102616004+46850+009183FM-12+248099999V0202301N004119999999N9999999N1-00091-00091999999ADDMA1999999075101MD1119999+9999ME1430409OA149900721REMSYN088AAXX  26164 06688 43/// /2308 11009 21009 37510 47040 51/// 333 55300 20331 91114 91209;
0112066880999992011102617004+46850+009183FM-12+248099999V0202401N005119999999N9999999N1-00121-00191999999ADDMA1999999075131ME1430429REMSYN076AAXX  26174 06688 43/// /2410 11012 21019 37513 47042 5//// 333 553// 20007;
0131066880999992011102618004+46850+009183FM-12+248099999V0202701N004119999999N9999999N1-00171-00321999999ADDKA1120M-00021MA1999999075171ME1430459REMSYN082AAXX  26184 06688 43/// /2708 11017 21032 37517 47045 5//// 333 11002 553// 20000;
0112066880999992011102619004+46850+009183FM-12+248099999V0202701N003119999999N9999999N1-00181-00351999999ADDMA1999999075191ME1430479REMSYN076AAXX  26194 06688 43/// /2706 11018 21035 37519 47047 5//// 333 553// 20004;
0112066880999992011102620004+46850+009183FM-12+248099999V0202701N004119999999N9999999N1-00231-00461999999ADDMA1999999075211ME1430489REMSYN076AAXX  26204 06688 43/// /2708 11023 21046 37521 47048 5//// 333 553// 20000;
0112066880999992011102621004+46850+009183FM-12+248099999V0202701N004619999999N9999999N1-00231-00561999999ADDMA1999999075221ME1430499REMSYN076AAXX  26214 06688 43/// /2709 11023 21056 37522 47049 5//// 333 553// 20000;
0112066880999992011102622004+46850+009183FM-12+248099999V0202701N004619999999N9999999N1-00231-00621999999ADDMA1999999075231ME1430509REMSYN076AAXX  26224 06688 43/// /2709 11023 21062 37523 47050 5//// 333 553// 20000;
0112066880999992011102623004+46850+009183FM-12+248099999V0202801N003119999999N9999999N1-00221-00681999999ADDMA1999999075231ME1430519REMSYN076AAXX  26234 06688 43/// /2806 11022 21068 37523 47051 5//// 333 553// 20000;
0149066880999992011102700004+46850+009183FM-12+248099999V0202601N003619999999N9999999N1-00271-00851999999ADDMA1999999075231MD1019999+9999ME1430509OA149900721REMSYN088AAXX  27004 06688 43/// /2607 11027 21085 37523 47050 50/// 333 55300 20004 91114 91210;
0112066880999992011102701004+46850+009183FM-12+248099999V0202701N005119999999N9999999N1-00251-01161999999ADDMA1999999075221ME1430499REMSYN076AAXX  27014 06688 43/// /2710 11025 21116 37522 47049 5//// 333 553// 20000;
0112066880999992011102702004+46850+009183FM-12+248099999V0202601N006219999999N9999999N1-00191-01481999999ADDMA1999999075191ME1430479REMSYN076AAXX  27024 06688 43/// /2612 11019 21148 37519 47047 5//// 333 553// 20004;
0112066880999992011102703004+46850+009183FM-12+248099999V0202601N004119999999N9999999N1-00161-01581999999ADDMA1999999075171ME1430469REMSYN076AAXX  27034 06688 43/// /2608 11016 21158 37517 47046 5//// 333 553// 20000;
0112066880999992011102704004+46850+009183FM-12+248099999V0202701N004119999999N9999999N1-00141-01671999999ADDMA1999999075171ME1430469REMSYN076AAXX  27044 06688 43/// /2708 11014 21167 37517 47046 5//// 333 553// 20004;
0112066880999992011102705004+46850+009183FM-12+248099999V0202601N004119999999N9999999N1-00131-01691999999ADDMA1999999075171ME1430469REMSYN076AAXX  27054 06688 43/// /2608 11013 21169 37517 47046 5//// 333 553// 20004;
0145066880999992011102706004+46850+009183FM-12+248099999V0202601N005719999999N9999999N1-00161-01641999999ADDGJ100249KA1999N-00331MA1999999075171ME1430469REMSYN088AAXX  27064 06688 43/// /2611 11016 21164 37517 47046 5//// 333 21033 55004 553// 20007;
0112066880999992011102707004+46850+009183FM-12+248099999V0202601N005119999999N9999999N1-00101-01611999999ADDMA1999999075221ME1430529REMSYN076AAXX  27074 06688 43/// /2610 11010 21161 37522 47052 5//// 333 553// 20148;
0112066880999992011102708004+46850+009183FM-12+248099999V0202401N005719999999N9999999N1-00061-01471999999ADDMA1999999075251ME1430569REMSYN076AAXX  27084 06688 43/// /2411 11006 21147 37525 47056 5//// 333 553// 20598;
0149066880999992011102709004+46850+009183FM-12+248099999V0202401N007719999999N9999999N1+00041-01401999999ADDMA1999999075281MD1119999+9999ME1430629OA149901081REMSYN088AAXX  27094 06688 43/// /2415 10004 21140 37528 47062 51/// 333 55309 21246 91121 91215;
0149066880999992011102710004+46850+009183FM-12+248099999V0202401N008219999999N9999999N1-00011-01151999999ADDMA1999999075301MD1319999+9999ME1430639OA149901181REMSYN088AAXX  27104 06688 43/// /2416 11001 21115 37530 47063 53/// 333 55304 21368 91123 91218;
0149066880999992011102711004+46850+009183FM-12+248099999V0202301N006719999999N9999999N1+00021-00881999999ADDMA1999999075311MD1219999+9999ME1430649OA149901031REMSYN088AAXX  27114 06688 43/// /2313 10002 21088 37531 47064 52/// 333 55305 21519 91120 91215;
0112066880999992011102712004+46850+009183FM-12+248099999V0202301N004619999999N9999999N1+00041-00801999999ADDMA1999999075311ME1430659REMSYN076AAXX  27124 06688 43/// /2309 10004 21080 37531 47065 5//// 333 553// 21285;
0112066880999992011102713004+46850+009183FM-12+248099999V0202401N006219999999N9999999N1+00071-00641999999ADDMA1999999075321ME1430669REMSYN076AAXX  27134 06688 43/// /2412 10007 21064 37532 47066 5//// 333 553// 21620;
0112066880999992011102714004+46850+009183FM-12+248099999V0202301N006719999999N9999999N1+00011-00691999999ADDMA1999999075321ME1430659REMSYN076AAXX  27144 06688 43/// /2313 10001 21069 37532 47065 5//// 333 553// 20857;
0112066880999992011102715004+46850+009183FM-12+248099999V0202301N004119999999N9999999N1+00001-00701999999ADDMA1999999075351ME1430689REMSYN076AAXX  27154 06688 43/// /2308 10000 21070 37535 47068 5//// 333 553// 20716;
0149066880999992011102716004+46850+009183FM-12+248099999V0202501N006219999999N9999999N1-00061-00711999999ADDMA1999999075381MD1219999+9999ME1430709OA149900881REMSYN088AAXX  27164 06688 43/// /2512 11006 21071 37538 47070 52/// 333 55304 20205 91117 91213;
0149066880999992011102717004+46850+009183FM-12+248099999V0202701N003619999999N9999999N1-00091-00731999999ADDMA1999999075411MD1210091+9999ME1430729OA149900771REMSYN088AAXX  27174 06688 43/// /2707 11009 21073 37541 47072 52009 333 55300 20011 91115 91212;
0168066880999992011102718004+46850+009183FM-12+248099999V0202701N003619999999N9999999N1-00091-00771999999ADDKA1120M+00111MA1999999075441MD1219999+9999ME1430759OA149901031REMSYN094AAXX  27184 06688 43/// /2707 11009 21077 37544 47075 52/// 333 10011 55300 20004 91120 91215;
0112066880999992011102719004+46850+009183FM-12+248099999V0202701N005119999999N9999999N1-00071-00971999999ADDMA1999999075461ME1430789REMSYN076AAXX  27194 06688 43/// /2710 11007 21097 37546 47078 5//// 333 553// 20004;
0112066880999992011102720004+46850+009183FM-12+248099999V0202801N004119999999N9999999N1-00061-01101999999ADDMA1999999075501ME1430829REMSYN076AAXX  27204 06688 43/// /2808 11006 21110 37550 47082 5//// 333 553// 20004;
0112066880999992011102721004+46850+009183FM-12+248099999V0202201N007219999999N9999999N1-00011-01331999999ADDMA1999999075531ME1430879REMSYN076AAXX  27214 06688 43/// /2214 11001 21133 37553 47087 5//// 333 553// 20004;
0149066880999992011102722004+46850+009183FM-12+248099999V0202401N007719999999N9999999N1+00011-01351999999ADDMA1999999075541MD1219999+9999ME1430889OA149901341REMSYN088AAXX  27224 06688 43/// /2415 10001 21135 37554 47088 52/// 333 55300 20004 91126 91216;
0112066880999992011102723004+46850+009183FM-12+248099999V0202301N006219999999N9999999N1+00001-01391999999ADDMA1999999075591ME1430939REMSYN076AAXX  27234 06688 43/// /2312 10000 21139 37559 47093 5//// 333 553// 20004;
0149066880999992011102800004+46850+009183FM-12+248099999V0202501N004619999999N9999999N1+00021-01431999999ADDMA1999999075601MD1219999+9999ME1430959OA149901341REMSYN088AAXX  28004 06688 43/// /2509 10002 21143 37560 47095 52/// 333 55300 20004 91126 91217;
0112066880999992011102801004+46850+009183FM-12+248099999V0202401N005119999999N9999999N1-00021-01441999999ADDMA1999999075651ME1430999REMSYN076AAXX  28014 06688 43/// /2410 11002 21144 37565 47099 5//// 333 553// 20004;
0112066880999992011102802004+46850+009183FM-12+248099999V0202601N004619999999N9999999N1+00081-01631999999ADDMA1999999075651ME1431019REMSYN076AAXX  28024 06688 43/// /2609 10008 21163 37565 47101 5//// 333 553// 20004;
0112066880999992011102803004+46850+009183FM-12+248099999V0202701N005119999999N9999999N1+00041-01601999999ADDMA1999999075651ME1431009REMSYN076AAXX  28034 06688 43/// /2710 10004 21160 37565 47100 5//// 333 553// 20004;
0112066880999992011102804004+46850+009183FM-12+248099999V0202501N003119999999N9999999N1+00151-01721999999ADDMA1999999075701ME1431089REMSYN076AAXX  28044 06688 43/// /2506 10015 21172 37570 47108 5//// 333 553// 20004;
0149066880999992011102805004+46850+009183FM-12+248099999V0202401N004119999999N9999999N1+00081-01491999999ADDMA1999999075731MD1319999+9999ME1431109OA149900671REMSYN088AAXX  28054 06688 43/// /2408 10008 21149 37573 47110 53/// 333 55300 20004 91113 91210;
0182066880999992011102806004+46850+009183FM-12+248099999V0202601N003119999999N9999999N1+00301-01671999999ADDGJ102889KA1999N-00101MA1999999075761MD1119999+9999ME1431189OA149900771REMSYN100AAXX  28064 06688 43/// /2606 10030 21167 37576 47118 51/// 333 21010 55048 55300 20007 91115 91211;
0149066880999992011102807004+46850+009183FM-12+248099999V0202601N003119999999N9999999N1+00261-01451999999ADDMA1999999075821MD1319999+9999ME1431239OA149900461REMSYN088AAXX  28074 06688 43/// /2606 10026 21145 37582 47123 53/// 333 55304 20158 91109 91206;
0112066880999992011102808004+46850+009183FM-12+248099999V0202801N002119999999N9999999N1+00351-01521999999ADDMA1999999075881ME1431329REMSYN076AAXX  28084 06688 43/// /2804 10035 21152 37588 47132 5//// 333 553// 20752;
0149066880999992011102809004+46850+009183FM-12+248099999V0201101N001019999999N9999999N1+00421-01191999999ADDMA1999999075931MD1119999+9999ME1431399OA149900461REMSYN088AAXX  28094 06688 43/// /1102 10042 21119 37593 47139 51/// 333 55310 21350 91109 91206;
0149066880999992011102810004+46850+009183FM-12+248099999V0203001N000519999999N9999999N1+00441-00991999999ADDMA1999999075971MD1119999+9999ME1431449OA149900211REMSYN088AAXX  28104 06688 43/// /3001 10044 21099 37597 47144 51/// 333 55310 21732 91104 91202;
0149066880999992011102811004+46850+009183FM-12+248099999V0202001N001019999999N9999999N1+00511-00771999999ADDMA1999999075981MD1119999+9999ME1431469OA149900311REMSYN088AAXX  28114 06688 43/// /2002 10051 21077 37598 47146 51/// 333 55310 21984 91106 91202;
0112066880999992011102812004+46850+009183FM-12+248099999V0201901N001519999999N9999999N1+00541-00721999999ADDMA1999999075971ME1431469REMSYN076AAXX  28124 06688 43/// /1903 10054 21072 37597 47146 5//// 333 553// 22052;
0112066880999992011102813004+46850+009183FM-12+248099999V0201201N001019999999N9999999N1+00561-00721999999ADDMA1999999075981ME1431489REMSYN076AAXX  28134 06688 43/// /1202 10056 21072 37598 47148 5//// 333 553// 21721;
0112066880999992011102814004+46850+009183FM-12+248099999V0202501N001019999999N9999999N1+00551-00671999999ADDMA1999999075991ME1431489REMSYN076AAXX  28144 06688 43/// /2502 10055 21067 37599 47148 5//// 333 553// 21127;
0149066880999992011102815004+46850+009183FM-12+248099999V0202401N001519999999N9999999N1+00551-00631999999ADDMA1999999076011MD1219999+9999ME1431519OA149900411REMSYN088AAXX  28154 06688 43/// /2403 10055 21063 37601 47151 52/// 333 55310 20846 91108 91204;
0149066880999992011102816004+46850+009183FM-12+248099999V0202801N000519999999N9999999N1+00511-00771999999ADDMA1999999076041MD1219999+9999ME1431539OA149900261REMSYN088AAXX  28164 06688 43/// /2801 10051 21077 37604 47153 52/// 333 55302 20374 91105 91203;
0149066880999992011102817004+46850+009183FM-12+248099999V0201401N000519999999N9999999N1+00471-00701999999ADDMA1999999076081MD1319999+9999ME1431569OA149900101REMSYN088AAXX  28174 06688 43/// /1401 10047 21070 37608 47156 53/// 333 55300 20029 91102 91201;
0168066880999992011102818004+46850+009183FM-12+248099999V0200301N001019999999N9999999N1+00401-00601999999ADDKA1120M+00591MA1999999076121MD1319999+9999ME1431589OA149900411REMSYN094AAXX  28184 06688 43/// /0302 10040 21060 37612 47158 53/// 333 10059 55300 20004 91108 91204;
0112066880999992011102819004+46850+009183FM-12+248099999V0201501N001019999999N9999999N1+00331-00931999999ADDMA1999999076131ME1431589REMSYN076AAXX  28194 06688 43/// /1502 10033 21093 37613 47158 5//// 333 553// 20004;
0112066880999992011102820004+46850+009183FM-12+248099999V0203001N000519999999N9999999N1+00351-00701999999ADDMA1999999076131ME1431589REMSYN076AAXX  28204 06688 43/// /3001 10035 21070 37613 47158 5//// 333 553// 20004;
0112066880999992011102821004+46850+009183FM-12+248099999V0202801N001519999999N9999999N1+00411-00841999999ADDMA1999999076141ME1431619REMSYN076AAXX  28214 06688 43/// /2803 10041 21084 37614 47161 5//// 333 553// 20004;
0112066880999992011102822004+46850+009183FM-12+248099999V0202501N001519999999N9999999N1+00401-00871999999ADDMA1999999076151ME1431629REMSYN076AAXX  28224 06688 43/// /2503 10040 21087 37615 47162 5//// 333 553// 20004;
0112066880999992011102823004+46850+009183FM-12+248099999V0202801N001019999999N9999999N1+00531-00901999999ADDMA1999999076141ME1431649REMSYN076AAXX  28234 06688 43/// /2802 10053 21090 37614 47164 5//// 333 553// 20004;
0112066880999992011102900004+46850+009183FM-12+248099999V0200201N004619999999N9999999N1+00541-00961999999ADDMA1999999076131ME1431639REMSYN076AAXX  29004 06688 43/// /0209 10054 21096 37613 47163 5//// 333 553// 20004;
0112066880999992011102901004+46850+009183FM-12+248099999V0200401N002119999999N9999999N1+00501-01051999999ADDMA1999999076131ME1431629REMSYN076AAXX  29014 06688 43/// /0404 10050 21105 37613 47162 5//// 333 553// 20004;
0112066880999992011102902004+46850+009183FM-12+248099999V0203501N001019999999N9999999N1+00611-01061999999ADDMA1999999076111ME1431639REMSYN076AAXX  29024 06688 43/// /3502 10061 21106 37611 47163 5//// 333 553// 20004;
0112066880999992011102903004+46850+009183FM-12+248099999V0200301N000519999999N9999999N1+00531-01061999999ADDMA1999999076071ME1431569REMSYN076AAXX  29034 06688 43/// /0301 10053 21106 37607 47156 5//// 333 553// 20004;
0112066880999992011102904004+46850+009183FM-12+248099999V0200301N001019999999N9999999N1+00521-00891999999ADDMA1999999076071ME1431569REMSYN076AAXX  29044 06688 43/// /0302 10052 21089 37607 47156 5//// 333 553// 20004;
0112066880999992011102905004+46850+009183FM-12+248099999V0201701N000519999999N9999999N1+00501-01031999999ADDMA1999999076051ME1431549REMSYN076AAXX  29054 06688 43/// /1701 10050 21103 37605 47154 5//// 333 553// 20004;
0145066880999992011102906004+46850+009183FM-12+248099999V0202701N001019999999N9999999N1+00521-01091999999ADDGJ105229KA1999N+00321MA1999999076041ME1431539REMSYN088AAXX  29064 06688 43/// /2702 10052 21109 37604 47153 5//// 333 20032 55087 553// 20007;
0112066880999992011102907004+46850+009183FM-12+248099999V0200201N001519999999N9999999N1+00651-01291999999ADDMA1999999076061ME1431589REMSYN076AAXX  29074 06688 43/// /0203 10065 21129 37606 47158 5//// 333 553// 20166;
0096066880999992011102908004+46850+009183FM-12+248099999V0200201N001519999999N9999999N1+00651-01131999999ADDMA1999999076071ME1431599REMSYN060AAXX  29084 06688 43/// /0203 10065 21113 37607 47159 5////;
0112066880999992011102909004+46850+009183FM-12+248099999V0201001N001019999999N9999999N1+00621-00611999999ADDMA1999999076091ME1431619REMSYN076AAXX  29094 06688 43/// /1002 10062 21061 37609 47161 5//// 333 553// 21346;
0112066880999992011102910004+46850+009183FM-12+248099999V0201601N001019999999N9999999N1+00641-00441999999ADDMA1999999076081ME1431609REMSYN076AAXX  29104 06688 43/// /1602 10064 21044 37608 47160 5//// 333 553// 21732;
0112066880999992011102911004+46850+009183FM-12+248099999V0201701N001519999999N9999999N1+00661-00271999999ADDMA1999999076081ME1431619REMSYN076AAXX  29114 06688 43/// /1703 10066 21027 37608 47161 5//// 333 553// 22002;
0112066880999992011102912004+46850+009183FM-12+248099999V0200601N001019999999N9999999N1+00671-00341999999ADDMA1999999076051ME1431589REMSYN076AAXX  29124 06688 43/// /0602 10067 21034 37605 47158 5//// 333 553// 21926;
0112066880999992011102913004+46850+009183FM-12+248099999V0202201N001019999999N9999999N1+00661-00671999999ADDMA1999999076021ME1431549REMSYN076AAXX  29134 06688 43/// /2202 10066 21067 37602 47154 5//// 333 553// 21789;
0096066880999992011102914004+46850+009183FM-12+248099999V0202301N001519999999N9999999N1+00661-00501999999ADDMA1999999076021ME1431549REMSYN060AAXX  29144 06688 43/// /2303 10066 21050 37602 47154 5////;
0112066880999992011102915004+46850+009183FM-12+248099999V0202501N000519999999N9999999N1+00631-00411999999ADDMA1999999076021ME1431549REMSYN076AAXX  29154 06688 43/// /2501 10063 21041 37602 47154 5//// 333 553// 20576;
