0081066870999992011102409004+47000+009217FM-12+042399999V0201001N009319999999N9999999N1+99999+99999999999ADDMA1999999096181REMSYN054AAXX  24094 06687 43/// /1018 1//// 2//// 39618 5////;
0081066870999992011102410004+47000+009217FM-12+042399999V0201001N009319999999N9999999N1+99999+99999999999ADDMA1999999096141REMSYN054AAXX  24104 06687 43/// /1018 1//// 2//// 39614 5////;
0081066870999992011102411004+47000+009217FM-12+042399999V0201001N008219999999N9999999N1+99999+99999999999ADDMA1999999096031REMSYN054AAXX  24114 06687 43/// /1016 1//// 2//// 39603 5////;
0081066870999992011102412004+47000+009217FM-12+042399999V0201001N008719999999N9999999N1+99999+99999999999ADDMA1999999095921REMSYN054AAXX  24124 06687 43/// /1017 1//// 2//// 39592 5////;
0081066870999992011102413004+47000+009217FM-12+042399999V0201001N009319999999N9999999N1+99999+99999999999ADDMA1999999095831REMSYN054AAXX  24134 06687 43/// /1018 1//// 2//// 39583 5////;
0081066870999992011102414004+47000+009217FM-12+042399999V0200901N008719999999N9999999N1+99999+99999999999ADDMA1999999095771REMSYN054AAXX  24144 06687 43/// /0917 1//// 2//// 39577 5////;
0105066870999992011102415004+47000+009217FM-12+042399999V0200901N009819999999N9999999N1+99999+99999999999ADDMA1999999095741MD1619999+9999REMSYN064AAXX  24154 06687 43/// /0919 1//// 2//// 39574 56/// 333 91220;
0122066870999992011102416004+47000+009217FM-12+042399999V0200901N007719999999N9999999N1+99999+99999999999ADDMA1999999095741MD1719999+9999OA149901801REMSYN070AAXX  24164 06687 43/// /0915 1//// 2//// 39574 57/// 333 91135 91220;
0122066870999992011102417004+47000+009217FM-12+042399999V0201001N010319999999N9999999N1+99999+99999999999ADDMA1999999095781MD1519999+9999OA149901751REMSYN070AAXX  24174 06687 43/// /1020 1//// 2//// 39578 55/// 333 91134 91219;
0081066870999992011102418004+47000+009217FM-12+042399999V0201001N010819999999N9999999N1+99999+99999999999ADDMA1999999095821REMSYN054AAXX  24184 06687 43/// /1021 1//// 2//// 39582 5////;
0081066870999992011102419004+47000+009217FM-12+042399999V0201001N009319999999N9999999N1+99999+99999999999ADDMA1999999095801REMSYN054AAXX  24194 06687 43/// /1018 1//// 2//// 39580 5////;
0081066870999992011102420004+47000+009217FM-12+042399999V0200901N010819999999N9999999N1+99999+99999999999ADDMA1999999095801REMSYN054AAXX  24204 06687 43/// /0921 1//// 2//// 39580 5////;
0081066870999992011102421004+47000+009217FM-12+042399999V0200901N011319999999N9999999N1+99999+99999999999ADDMA1999999095811REMSYN054AAXX  24214 06687 43/// /0922 1//// 2//// 39581 5////;
0122066870999992011102422004+47000+009217FM-12+042399999V0200901N010319999999N9999999N1+99999+99999999999ADDMA1999999095781MD1219999+9999OA149901751REMSYN070AAXX  24224 06687 43/// /0920 1//// 2//// 39578 52/// 333 91134 91220;
0122066870999992011102423004+47000+009217FM-12+042399999V0201001N011319999999N9999999N1+99999+99999999999ADDMA1999999095761MD1019999+9999OA149901751REMSYN070AAXX  24234 06687 43/// /1022 1//// 2//// 39576 50/// 333 91134 91222;
0122066870999992011102500004+47000+009217FM-12+042399999V0200901N011319999999N9999999N1+99999+99999999999ADDMA1999999095731MD1719999+9999OA149902061REMSYN070AAXX  25004 06687 43/// /0922 1//// 2//// 39573 57/// 333 91140 91223;
0122066870999992011102501004+47000+009217FM-12+042399999V0200901N011319999999N9999999N1+99999+99999999999ADDMA1999999095681MD1719999+9999OA149901851REMSYN070AAXX  25014 06687 43/// /0922 1//// 2//// 39568 57/// 333 91136 91224;
0081066870999992011102502004+47000+009217FM-12+042399999V0201001N011319999999N9999999N1+99999+99999999999ADDMA1999999095611REMSYN054AAXX  25024 06687 43/// /1022 1//// 2//// 39561 5////;
0081066870999992011102503004+47000+009217FM-12+042399999V0200901N010819999999N9999999N1+99999+99999999999ADDMA1999999095591REMSYN054AAXX  25034 06687 43/// /0921 1//// 2//// 39559 5////;
0081066870999992011102504004+47000+009217FM-12+042399999V0200901N009819999999N9999999N1+99999+99999999999ADDMA1999999095531REMSYN054AAXX  25044 06687 43/// /0919 1//// 2//// 39553 5////;
0122066870999992011102505004+47000+009217FM-12+042399999V0201001N006719999999N9999999N1+99999+99999999999ADDMA1999999095481MD1719999+9999OA149901701REMSYN070AAXX  25054 06687 43/// /1013 1//// 2//// 39548 57/// 333 91133 91220;
0122066870999992011102506004+47000+009217FM-12+042399999V0200901N008219999999N9999999N1+99999+99999999999ADDMA1999999095391MD1719999+9999OA149901961REMSYN070AAXX  25064 06687 43/// /0916 1//// 2//// 39539 57/// 333 91138 91225;
0081066870999992011102507004+47000+009217FM-12+042399999V0201001N010819999999N9999999N1+99999+99999999999ADDMA1999999095351REMSYN054AAXX  25074 06687 43/// /1021 1//// 2//// 39535 5////;
0081066870999992011102508004+47000+009217FM-12+042399999V0201001N007719999999N9999999N1+99999+99999999999ADDMA1999999095391REMSYN054AAXX  25084 06687 43/// /1015 1//// 2//// 39539 5////;
0081066870999992011102509004+47000+009217FM-12+042399999V0201101N005119999999N9999999N1+99999+99999999999ADDMA1999999095391REMSYN054AAXX  25094 06687 43/// /1110 1//// 2//// 39539 5////;
0081066870999992011102510004+47000+009217FM-12+042399999V0201501N004119999999N9999999N1+99999+99999999999ADDMA1999999095361REMSYN054AAXX  25104 06687 43/// /1508 1//// 2//// 39536 5////;
0081066870999992011102511004+47000+009217FM-12+042399999V0202701N004119999999N9999999N1+99999+99999999999ADDMA1999999095381REMSYN054AAXX  25114 06687 43/// /2708 1//// 2//// 39538 5////;
0081066870999992011102512004+47000+009217FM-12+042399999V0203001N002619999999N9999999N1+99999+99999999999ADDMA1999999095371REMSYN054AAXX  25124 06687 43/// /3005 1//// 2//// 39537 5////;
0081066870999992011102513004+47000+009217FM-12+042399999V0200501N001519999999N9999999N1+99999+99999999999ADDMA1999999095311REMSYN054AAXX  25134 06687 43/// /0503 1//// 2//// 39531 5////;
0081066870999992011102514004+47000+009217FM-12+042399999V0200901N004619999999N9999999N1+99999+99999999999ADDMA1999999095311REMSYN054AAXX  25144 06687 43/// /0909 1//// 2//// 39531 5////;
0081066870999992011102515004+47000+009217FM-12+042399999V0200901N010319999999N9999999N1+99999+99999999999ADDMA1999999095391REMSYN054AAXX  25154 06687 43/// /0920 1//// 2//// 39539 5////;
0122066870999992011102516004+47000+009217FM-12+042399999V0200901N008719999999N9999999N1+99999+99999999999ADDMA1999999095511MD1219999+9999OA149901651REMSYN070AAXX  25164 06687 43/// /0917 1//// 2//// 39551 52/// 333 91132 91219;
0122066870999992011102517004+47000+009217FM-12+042399999V0200901N009319999999N9999999N1+99999+99999999999ADDMA1999999095611MD1219999+9999OA149901541REMSYN070AAXX  25174 06687 43/// /0918 1//// 2//// 39561 52/// 333 91130 91218;
0081066870999992011102518004+47000+009217FM-12+042399999V0200901N009819999999N9999999N1+99999+99999999999ADDMA1999999095631REMSYN054AAXX  25184 06687 43/// /0919 1//// 2//// 39563 5////;
0081066870999992011102519004+47000+009217FM-12+042399999V0200901N009819999999N9999999N1+99999+99999999999ADDMA1999999095631REMSYN054AAXX  25194 06687 43/// /0919 1//// 2//// 39563 5////;
0081066870999992011102520004+47000+009217FM-12+042399999V0200901N009319999999N9999999N1+99999+99999999999ADDMA1999999095681REMSYN054AAXX  25204 06687 43/// /0918 1//// 2//// 39568 5////;
0081066870999992011102521004+47000+009217FM-12+042399999V0201001N006219999999N9999999N1+99999+99999999999ADDMA1999999095781REMSYN054AAXX  25214 06687 43/// /1012 1//// 2//// 39578 5////;
0081066870999992011102522004+47000+009217FM-12+042399999V0203001N001519999999N9999999N1+99999+99999999999ADDMA1999999095941REMSYN054AAXX  25224 06687 43/// /3003 1//// 2//// 39594 5////;
0081066870999992011102523004+47000+009217FM-12+042399999V0202701N002619999999N9999999N1+99999+99999999999ADDMA1999999096021REMSYN054AAXX  25234 06687 43/// /2705 1//// 2//// 39602 5////;
0081066870999992011102600004+47000+009217FM-12+042399999V0200701N001019999999N9999999N1+99999+99999999999ADDMA1999999096091REMSYN054AAXX  26004 06687 43/// /0702 1//// 2//// 39609 5////;
0081066870999992011102601004+47000+009217FM-12+042399999V0202901N003619999999N9999999N1+99999+99999999999ADDMA1999999096171REMSYN054AAXX  26014 06687 43/// /2907 1//// 2//// 39617 5////;
0081066870999992011102602004+47000+009217FM-12+042399999V0203001N001519999999N9999999N1+99999+99999999999ADDMA1999999096241REMSYN054AAXX  26024 06687 43/// /3003 1//// 2//// 39624 5////;
0081066870999992011102603004+47000+009217FM-12+042399999V0203301N001519999999N9999999N1+99999+99999999999ADDMA1999999096271REMSYN054AAXX  26034 06687 43/// /3303 1//// 2//// 39627 5////;
0081066870999992011102604004+47000+009217FM-12+042399999V0203101N001519999999N9999999N1+99999+99999999999ADDMA1999999096321REMSYN054AAXX  26044 06687 43/// /3103 1//// 2//// 39632 5////;
0081066870999992011102605004+47000+009217FM-12+042399999V0202801N003119999999N9999999N1+99999+99999999999ADDMA1999999096391REMSYN054AAXX  26054 06687 43/// /2806 1//// 2//// 39639 5////;
0122066870999992011102606004+47000+009217FM-12+042399999V0202701N001519999999N9999999N1+99999+99999999999ADDMA1999999096431MD1219999+9999OA149900771REMSYN070AAXX  26064 06687 43/// /2703 1//// 2//// 39643 52/// 333 91115 91207;
0081066870999992011102607004+47000+009217FM-12+042399999V0203201N000519999999N9999999N1+99999+99999999999ADDMA1999999096521REMSYN054AAXX  26074 06687 43/// /3201 1//// 2//// 39652 5////;
0081066870999992011102608004+47000+009217FM-12+042399999V0202601N000519999999N9999999N1+99999+99999999999ADDMA1999999096601REMSYN054AAXX  26084 06687 43/// /2601 1//// 2//// 39660 5////;
0081066870999992011102609004+47000+009217FM-12+042399999V0209999C000019999999N9999999N1+99999+99999999999ADDMA1999999096631REMSYN054AAXX  26094 06687 43/// /0000 1//// 2//// 39663 5////;
0122066870999992011102610004+47000+009217FM-12+042399999V0202501N000519999999N9999999N1+99999+99999999999ADDMA1999999096631MD1219999+9999OA149900151REMSYN070AAXX  26104 06687 43/// /2501 1//// 2//// 39663 52/// 333 91103 91202;
0122066870999992011102611004+47000+009217FM-12+042399999V0209999C000019999999N9999999N1+99999+99999999999ADDMA1999999096591MD1219999+9999OA149900151REMSYN070AAXX  26114 06687 43/// /0000 1//// 2//// 39659 52/// 333 91103 91202;
0081066870999992011102612004+47000+009217FM-12+042399999V0202601N001019999999N9999999N1+99999+99999999999ADDMA1999999096571REMSYN054AAXX  26124 06687 43/// /2602 1//// 2//// 39657 5////;
0081066870999992011102613004+47000+009217FM-12+042399999V0202701N002119999999N9999999N1+99999+99999999999ADDMA1999999096571REMSYN054AAXX  26134 06687 43/// /2704 1//// 2//// 39657 5////;
0081066870999992011102614004+47000+009217FM-12+042399999V0202401N000519999999N9999999N1+99999+99999999999ADDMA1999999096571REMSYN054AAXX  26144 06687 43/// /2401 1//// 2//// 39657 5////;
0122066870999992011102615004+47000+009217FM-12+042399999V0201101N000519999999N9999999N1+99999+99999999999ADDMA1999999096581MD1219999+9999OA149900261REMSYN070AAXX  26154 06687 43/// /1101 1//// 2//// 39658 52/// 333 91105 91204;
0122066870999992011102616004+47000+009217FM-12+042399999V0200301N000519999999N9999999N1+99999+99999999999ADDMA1999999096561MD1019999+9999OA149900101REMSYN070AAXX  26164 06687 43/// /0301 1//// 2//// 39656 50/// 333 91102 91201;
0081066870999992011102617004+47000+009217FM-12+042399999V0203401N001519999999N9999999N1+99999+99999999999ADDMA1999999096611REMSYN054AAXX  26174 06687 43/// /3403 1//// 2//// 39661 5////;
0081066870999992011102618004+47000+009217FM-12+042399999V0203401N001019999999N9999999N1+99999+99999999999ADDMA1999999096651REMSYN054AAXX  26184 06687 43/// /3402 1//// 2//// 39665 5////;
0081066870999992011102619004+47000+009217FM-12+042399999V0203301N001519999999N9999999N1+99999+99999999999ADDMA1999999096671REMSYN054AAXX  26194 06687 43/// /3303 1//// 2//// 39667 5////;
0081066870999992011102620004+47000+009217FM-12+042399999V0209999C000519999999N9999999N1+99999+99999999999ADDMA1999999096681REMSYN054AAXX  26204 06687 43/// /0001 1//// 2//// 39668 5////;
0081066870999992011102621004+47000+009217FM-12+042399999V0209999C000019999999N9999999N1+99999+99999999999ADDMA1999999096701REMSYN054AAXX  26214 06687 43/// /0000 1//// 2//// 39670 5////;
0081066870999992011102622004+47000+009217FM-12+042399999V0200501N001519999999N9999999N1+99999+99999999999ADDMA1999999096691REMSYN054AAXX  26224 06687 43/// /0503 1//// 2//// 39669 5////;
0081066870999992011102623004+47000+009217FM-12+042399999V0202901N000519999999N9999999N1+99999+99999999999ADDMA1999999096681REMSYN054AAXX  26234 06687 43/// /2901 1//// 2//// 39668 5////;
0122066870999992011102700004+47000+009217FM-12+042399999V0200601N001519999999N9999999N1+99999+99999999999ADDMA1999999096651MD1719999+9999OA149900411REMSYN070AAXX  27004 06687 43/// /0603 1//// 2//// 39665 57/// 333 91108 91204;
0081066870999992011102701004+47000+009217FM-12+042399999V0200101N001019999999N9999999N1+99999+99999999999ADDMA1999999096651REMSYN054AAXX  27014 06687 43/// /0102 1//// 2//// 39665 5////;
0081066870999992011102702004+47000+009217FM-12+042399999V0203601N001019999999N9999999N1+99999+99999999999ADDMA1999999096601REMSYN054AAXX  27024 06687 43/// /3602 1//// 2//// 39660 5////;
0081066870999992011102703004+47000+009217FM-12+042399999V0200101N002119999999N9999999N1+99999+99999999999ADDMA1999999096541REMSYN054AAXX  27034 06687 43/// /0104 1//// 2//// 39654 5////;
0081066870999992011102704004+47000+009217FM-12+042399999V0200101N001519999999N9999999N1+99999+99999999999ADDMA1999999096531REMSYN054AAXX  27044 06687 43/// /0103 1//// 2//// 39653 5////;
0081066870999992011102705004+47000+009217FM-12+042399999V0203401N001019999999N9999999N1+99999+99999999999ADDMA1999999096561REMSYN054AAXX  27054 06687 43/// /3402 1//// 2//// 39656 5////;
0081066870999992011102706004+47000+009217FM-12+042399999V0202701N001019999999N9999999N1+99999+99999999999ADDMA1999999096571REMSYN054AAXX  27064 06687 43/// /2702 1//// 2//// 39657 5////;
0081066870999992011102707004+47000+009217FM-12+042399999V0200301N000519999999N9999999N1+99999+99999999999ADDMA1999999096601REMSYN054AAXX  27074 06687 43/// /0301 1//// 2//// 39660 5////;
0081066870999992011102708004+47000+009217FM-12+042399999V0201201N000519999999N9999999N1+99999+99999999999ADDMA1999999096591REMSYN054AAXX  27084 06687 43/// /1201 1//// 2//// 39659 5////;
0122066870999992011102709004+47000+009217FM-12+042399999V0202401N000519999999N9999999N1+99999+99999999999ADDMA1999999096531MD1819999+9999OA149900151REMSYN070AAXX  27094 06687 43/// /2401 1//// 2//// 39653 58/// 333 91103 91202;
0122066870999992011102710004+47000+009217FM-12+042399999V0202501N001519999999N9999999N1+99999+99999999999ADDMA1999999096491MD1719999+9999OA149900261REMSYN070AAXX  27104 06687 43/// /2503 1//// 2//// 39649 57/// 333 91105 91203;
0122066870999992011102711004+47000+009217FM-12+042399999V0202701N002619999999N9999999N1+99999+99999999999ADDMA1999999096451MD1619999+9999OA149900621REMSYN070AAXX  27114 06687 43/// /2705 1//// 2//// 39645 56/// 333 91112 91205;
0081066870999992011102712004+47000+009217FM-12+042399999V0202701N005119999999N9999999N1+99999+99999999999ADDMA1999999096471REMSYN054AAXX  27124 06687 43/// /2710 1//// 2//// 39647 5////;
0081066870999992011102713004+47000+009217FM-12+042399999V0202701N003119999999N9999999N1+99999+99999999999ADDMA1999999096471REMSYN054AAXX  27134 06687 43/// /2706 1//// 2//// 39647 5////;
0081066870999992011102714004+47000+009217FM-12+042399999V0202801N003619999999N9999999N1+99999+99999999999ADDMA1999999096501REMSYN054AAXX  27144 06687 43/// /2807 1//// 2//// 39650 5////;
0081066870999992011102715004+47000+009217FM-12+042399999V0202701N004619999999N9999999N1+99999+99999999999ADDMA1999999096561REMSYN054AAXX  27154 06687 43/// /2709 1//// 2//// 39656 5////;
0122066870999992011102716004+47000+009217FM-12+042399999V0203501N001519999999N9999999N1+99999+99999999999ADDMA1999999096641MD1219999+9999OA149900671REMSYN070AAXX  27164 06687 43/// /3503 1//// 2//// 39664 52/// 333 91113 91208;
0122066870999992011102717004+47000+009217FM-12+042399999V0200501N000519999999N9999999N1+99999+99999999999ADDMA1999999096711MD1319999+9999OA149900211REMSYN070AAXX  27174 06687 43/// /0501 1//// 2//// 39671 53/// 333 91104 91202;
0122066870999992011102718004+47000+009217FM-12+042399999V0200201N000519999999N9999999N1+99999+99999999999ADDMA1999999096761MD1219999+9999OA149900881REMSYN070AAXX  27184 06687 43/// /0201 1//// 2//// 39676 52/// 333 91117 91210;
0081066870999992011102719004+47000+009217FM-12+042399999V0200501N000519999999N9999999N1+99999+99999999999ADDMA1999999096811REMSYN054AAXX  27194 06687 43/// /0501 1//// 2//// 39681 5////;
0081066870999992011102720004+47000+009217FM-12+042399999V0203501N000519999999N9999999N1+99999+99999999999ADDMA1999999096871REMSYN054AAXX  27204 06687 43/// /3501 1//// 2//// 39687 5////;
0081066870999992011102721004+47000+009217FM-12+042399999V0200101N000519999999N9999999N1+99999+99999999999ADDMA1999999096931REMSYN054AAXX  27214 06687 43/// /0101 1//// 2//// 39693 5////;
0122066870999992011102722004+47000+009217FM-12+042399999V0200401N000519999999N9999999N1+99999+99999999999ADDMA1999999096971MD1119999+9999OA149900211REMSYN070AAXX  27224 06687 43/// /0401 1//// 2//// 39697 51/// 333 91104 91201;
0081066870999992011102723004+47000+009217FM-12+042399999V0200301N000519999999N9999999N1+99999+99999999999ADDMA1999999097031REMSYN054AAXX  27234 06687 43/// /0301 1//// 2//// 39703 5////;
0122066870999992011102800004+47000+009217FM-12+042399999V0201001N001019999999N9999999N1+99999+99999999999ADDMA1999999097051MD1319999+9999OA149900211REMSYN070AAXX  28004 06687 43/// /1002 1//// 2//// 39705 53/// 333 91104 91202;
0081066870999992011102801004+47000+009217FM-12+042399999V0200701N000519999999N9999999N1+99999+99999999999ADDMA1999999097141REMSYN054AAXX  28014 06687 43/// /0701 1//// 2//// 39714 5////;
0081066870999992011102802004+47000+009217FM-12+042399999V0201301N000519999999N9999999N1+99999+99999999999ADDMA1999999097161REMSYN054AAXX  28024 06687 43/// /1301 1//// 2//// 39716 5////;
0081066870999992011102803004+47000+009217FM-12+042399999V0203301N000519999999N9999999N1+99999+99999999999ADDMA1999999097191REMSYN054AAXX  28034 06687 43/// /3301 1//// 2//// 39719 5////;
0081066870999992011102804004+47000+009217FM-12+042399999V0201001N000519999999N9999999N1+99999+99999999999ADDMA1999999097251REMSYN054AAXX  28044 06687 43/// /1001 1//// 2//// 39725 5////;
0122066870999992011102805004+47000+009217FM-12+042399999V0200701N000519999999N9999999N1+99999+99999999999ADDMA1999999097281MD1219999+9999OA149900261REMSYN070AAXX  28054 06687 43/// /0701 1//// 2//// 39728 52/// 333 91105 91203;
0122066870999992011102806004+47000+009217FM-12+042399999V0200401N000519999999N9999999N1+99999+99999999999ADDMA1999999097321MD1219999+9999OA149900361REMSYN070AAXX  28064 06687 43/// /0401 1//// 2//// 39732 52/// 333 91107 91204;
0122066870999992011102807004+47000+009217FM-12+042399999V0202801N000519999999N9999999N1+99999+99999999999ADDMA1999999097421MD1219999+9999OA149900211REMSYN070AAXX  28074 06687 43/// /2801 1//// 2//// 39742 52/// 333 91104 91202;
0081066870999992011102808004+47000+009217FM-12+042399999V0201101N001519999999N9999999N1+99999+99999999999ADDMA1999999097471REMSYN054AAXX  28084 06687 43/// /1103 1//// 2//// 39747 5////;
0122066870999992011102809004+47000+009217FM-12+042399999V0201201N001519999999N9999999N1+99999+99999999999ADDMA1999999097491MD1119999+9999OA149900361REMSYN070AAXX  28094 06687 43/// /1203 1//// 2//// 39749 51/// 333 91107 91204;
0122066870999992011102810004+47000+009217FM-12+042399999V0201101N000519999999N9999999N1+99999+99999999999ADDMA1999999097471MD1019999+9999OA149900211REMSYN070AAXX  28104 06687 43/// /1101 1//// 2//// 39747 50/// 333 91104 91202;
0122066870999992011102811004+47000+009217FM-12+042399999V0202601N001019999999N9999999N1+99999+99999999999ADDMA1999999097431MD1819999+9999OA149900151REMSYN070AAXX  28114 06687 43/// /2602 1//// 2//// 39743 58/// 333 91103 91202;
0081066870999992011102812004+47000+009217FM-12+042399999V0202701N004619999999N9999999N1+99999+99999999999ADDMA1999999097411REMSYN054AAXX  28124 06687 43/// /2709 1//// 2//// 39741 5////;
0081066870999992011102813004+47000+009217FM-12+042399999V0202701N005719999999N9999999N1+99999+99999999999ADDMA1999999097421REMSYN054AAXX  28134 06687 43/// /2711 1//// 2//// 39742 5////;
0081066870999992011102814004+47000+009217FM-12+042399999V0202701N005719999999N9999999N1+99999+99999999999ADDMA1999999097451REMSYN054AAXX  28144 06687 43/// /2711 1//// 2//// 39745 5////;
0122066870999992011102815004+47000+009217FM-12+042399999V0202701N005119999999N9999999N1+99999+99999999999ADDMA1999999097511MD1219999+9999OA149900881REMSYN070AAXX  28154 06687 43/// /2710 1//// 2//// 39751 52/// 333 91117 91212;
0122066870999992011102816004+47000+009217FM-12+042399999V0202601N001019999999N9999999N1+99999+99999999999ADDMA1999999097571MD1319999+9999OA149900671REMSYN070AAXX  28164 06687 43/// /2602 1//// 2//// 39757 53/// 333 91113 91209;
0122066870999992011102817004+47000+009217FM-12+042399999V0203301N001019999999N9999999N1+99999+99999999999ADDMA1999999097641MD1319999+9999OA149900311REMSYN070AAXX  28174 06687 43/// /3302 1//// 2//// 39764 53/// 333 91106 91203;
0122066870999992011102818004+47000+009217FM-12+042399999V0200901N000519999999N9999999N1+99999+99999999999ADDMA1999999097691MD1119999+9999OA149900881REMSYN070AAXX  28184 06687 43/// /0901 1//// 2//// 39769 51/// 333 91117 91212;
0081066870999992011102819004+47000+009217FM-12+042399999V0200901N001019999999N9999999N1+99999+99999999999ADDMA1999999097681REMSYN054AAXX  28194 06687 43/// /0902 1//// 2//// 39768 5////;
0081066870999992011102820004+47000+009217FM-12+042399999V0200501N000519999999N9999999N1+99999+99999999999ADDMA1999999097681REMSYN054AAXX  28204 06687 43/// /0501 1//// 2//// 39768 5////;
0081066870999992011102821004+47000+009217FM-12+042399999V0200301N001019999999N9999999N1+99999+99999999999ADDMA1999999097691REMSYN054AAXX  28214 06687 43/// /0302 1//// 2//// 39769 5////;
0081066870999992011102822004+47000+009217FM-12+042399999V0200401N000519999999N9999999N1+99999+99999999999ADDMA1999999097701REMSYN054AAXX  28224 06687 43/// /0401 1//// 2//// 39770 5////;
0081066870999992011102823004+47000+009217FM-12+042399999V0200601N000519999999N9999999N1+99999+99999999999ADDMA1999999097711REMSYN054AAXX  28234 06687 43/// /0601 1//// 2//// 39771 5////;
0081066870999992011102900004+47000+009217FM-12+042399999V0200501N000519999999N9999999N1+99999+99999999999ADDMA1999999097701REMSYN054AAXX  29004 06687 43/// /0501 1//// 2//// 39770 5////;
0081066870999992011102901004+47000+009217FM-12+042399999V0209999C000019999999N9999999N1+99999+99999999999ADDMA1999999097691REMSYN054AAXX  29014 06687 43/// /0000 1//// 2//// 39769 5////;
0081066870999992011102902004+47000+009217FM-12+042399999V0209999C000019999999N9999999N1+99999+99999999999ADDMA1999999097671REMSYN054AAXX  29024 06687 43/// /0000 1//// 2//// 39767 5////;
0081066870999992011102903004+47000+009217FM-12+042399999V0200601N000519999999N9999999N1+99999+99999999999ADDMA1999999097641REMSYN054AAXX  29034 06687 43/// /0601 1//// 2//// 39764 5////;
0081066870999992011102904004+47000+009217FM-12+042399999V0200601N000519999999N9999999N1+99999+99999999999ADDMA1999999097631REMSYN054AAXX  29044 06687 43/// /0601 1//// 2//// 39763 5////;
0081066870999992011102905004+47000+009217FM-12+042399999V0200501N000519999999N9999999N1+99999+99999999999ADDMA1999999097601REMSYN054AAXX  29054 06687 43/// /0501 1//// 2//// 39760 5////;
0081066870999992011102906004+47000+009217FM-12+042399999V0200301N000519999999N9999999N1+99999+99999999999ADDMA1999999097611REMSYN054AAXX  29064 06687 43/// /0301 1//// 2//// 39761 5////;
0081066870999992011102907004+47000+009217FM-12+042399999V0209999C000019999999N9999999N1+99999+99999999999ADDMA1999999097661REMSYN054AAXX  29074 06687 43/// /0000 1//// 2//// 39766 5////;
0081066870999992011102908004+47000+009217FM-12+042399999V0202601N002619999999N9999999N1+99999+99999999999ADDMA1999999097671REMSYN054AAXX  29084 06687 43/// /2605 1//// 2//// 39767 5////;
0081066870999992011102909004+47000+009217FM-12+042399999V0202601N001519999999N9999999N1+99999+99999999999ADDMA1999999097671REMSYN054AAXX  29094 06687 43/// /2603 1//// 2//// 39767 5////;
0081066870999992011102910004+47000+009217FM-12+042399999V0202501N001519999999N9999999N1+99999+99999999999ADDMA1999999097601REMSYN054AAXX  29104 06687 43/// /2503 1//// 2//// 39760 5////;
0081066870999992011102911004+47000+009217FM-12+042399999V0202501N002119999999N9999999N1+99999+99999999999ADDMA1999999097561REMSYN054AAXX  29114 06687 43/// /2504 1//// 2//// 39756 5////;
0081066870999992011102912004+47000+009217FM-12+042399999V0201201N000519999999N9999999N1+99999+99999999999ADDMA1999999097481REMSYN054AAXX  29124 06687 43/// /1201 1//// 2//// 39748 5////;
0081066870999992011102913004+47000+009217FM-12+042399999V0201101N000519999999N9999999N1+99999+99999999999ADDMA1999999097421REMSYN054AAXX  29134 06687 43/// /1101 1//// 2//// 39742 5////;
0081066870999992011102914004+47000+009217FM-12+042399999V0201101N000519999999N9999999N1+99999+99999999999ADDMA1999999097401REMSYN054AAXX  29144 06687 43/// /1101 1//// 2//// 39740 5////;
0081066870999992011102915004+47000+009217FM-12+042399999V0200801N000519999999N9999999N1+99999+99999999999ADDMA1999999097431REMSYN054AAXX  29154 06687 43/// /0801 1//// 2//// 39743 5////;
0081066870999992011102916004+47000+009217FM-12+042399999V0209999C000019999999N9999999N1+99999+99999999999ADDMA1999999097451REMSYN054AAXX  29164 06687 43/// /0000 1//// 2//// 39745 5////;
0081066870999992011102917004+47000+009217FM-12+042399999V0200901N000519999999N9999999N1+99999+99999999999ADDMA1999999097501REMSYN054AAXX  29174 06687 43/// /0901 1//// 2//// 39750 5////;
0081066870999992011102918004+47000+009217FM-12+042399999V0201001N000519999999N9999999N1+99999+99999999999ADDMA1999999097521REMSYN054AAXX  29184 06687 43/// /1001 1//// 2//// 39752 5////;
0081066870999992011102919004+47000+009217FM-12+042399999V0200901N002119999999N9999999N1+99999+99999999999ADDMA1999999097531REMSYN054AAXX  29194 06687 43/// /0904 1//// 2//// 39753 5////;
0081066870999992011102920004+47000+009217FM-12+042399999V0200901N000519999999N9999999N1+99999+99999999999ADDMA1999999097531REMSYN054AAXX  29204 06687 43/// /0901 1//// 2//// 39753 5////;
0081066870999992011102921004+47000+009217FM-12+042399999V0200901N001019999999N9999999N1+99999+99999999999ADDMA1999999097531REMSYN054AAXX  29214 06687 43/// /0902 1//// 2//// 39753 5////;
0081066870999992011102922004+47000+009217FM-12+042399999V0200601N001019999999N9999999N1+99999+99999999999ADDMA1999999097501REMSYN054AAXX  29224 06687 43/// /0602 1//// 2//// 39750 5////;
0081066870999992011102923004+47000+009217FM-12+042399999V0200801N000519999999N9999999N1+99999+99999999999ADDMA1999999097471REMSYN054AAXX  29234 06687 43/// /0801 1//// 2//// 39747 5////;
0122066870999992011103000004+47000+009217FM-12+042399999V0200301N000519999999N9999999N1+99999+99999999999ADDMA1999999097451MD1719999+9999OA149900361REMSYN070AAXX  30004 06687 43/// /0301 1//// 2//// 39745 57/// 333 91107 91205;
0081066870999992011103001004+47000+009217FM-12+042399999V0200801N000519999999N9999999N1+99999+99999999999ADDMA1999999097451REMSYN054AAXX  30014 06687 43/// /0801 1//// 2//// 39745 5////;
0081066870999992011103002004+47000+009217FM-12+042399999V0203601N000519999999N9999999N1+99999+99999999999ADDMA1999999097451REMSYN054AAXX  30024 06687 43/// /3601 1//// 2//// 39745 5////;
0081066870999992011103003004+47000+009217FM-12+042399999V0209999C000019999999N9999999N1+99999+99999999999ADDMA1999999097451REMSYN054AAXX  30034 06687 43/// /0000 1//// 2//// 39745 5////;
0081066870999992011103004004+47000+009217FM-12+042399999V0209999C000019999999N9999999N1+99999+99999999999ADDMA1999999097461REMSYN054AAXX  30044 06687 43/// /0000 1//// 2//// 39746 5////;
0081066870999992011103005004+47000+009217FM-12+042399999V0201001N000519999999N9999999N1+99999+99999999999ADDMA1999999097481REMSYN054AAXX  30054 06687 43/// /1001 1//// 2//// 39748 5////;
0081066870999992011103006004+47000+009217FM-12+042399999V0201001N002119999999N9999999N1+99999+99999999999ADDMA1999999097471REMSYN054AAXX  30064 06687 43/// /1004 1//// 2//// 39747 5////;
0081066870999992011103007004+47000+009217FM-12+042399999V0201101N001519999999N9999999N1+99999+99999999999ADDMA1999999097491REMSYN054AAXX  30074 06687 43/// /1103 1//// 2//// 39749 5////;
0081066870999992011103008004+47000+009217FM-12+042399999V0201201N002119999999N9999999N1+99999+99999999999ADDMA1999999097501REMSYN054AAXX  30084 06687 43/// /1204 1//// 2//// 39750 5////;
0122066870999992011103009004+47000+009217FM-12+042399999V0201101N002119999999N9999999N1+99999+99999999999ADDMA1999999097501MD1219999+9999OA149900411REMSYN070AAXX  30094 06687 43/// /1104 1//// 2//// 39750 52/// 333 91108 91206;
0122066870999992011103010004+47000+009217FM-12+042399999V0209999C000019999999N9999999N1+99999+99999999999ADDMA1999999097441MD1819999+9999OA149900211REMSYN070AAXX  30104 06687 43/// /0000 1//// 2//// 39744 58/// 333 91104 91203;
0122066870999992011103011004+47000+009217FM-12+042399999V0202601N001519999999N9999999N1+99999+99999999999ADDMA1999999097411MD1719999+9999OA149900151REMSYN070AAXX  30114 06687 43/// /2603 1//// 2//// 39741 57/// 333 91103 91203;
0081066870999992011103012004+47000+009217FM-12+042399999V0201301N000519999999N9999999N1+99999+99999999999ADDMA1999999097331REMSYN054AAXX  30124 06687 43/// /1301 1//// 2//// 39733 5////;
0081066870999992011103013004+47000+009217FM-12+042399999V0201101N002119999999N9999999N1+99999+99999999999ADDMA1999999097301REMSYN054AAXX  30134 06687 43/// /1104 1//// 2//// 39730 5////;
0081066870999992011103014004+47000+009217FM-12+042399999V0201101N000519999999N9999999N1+99999+99999999999ADDMA1999999097261REMSYN054AAXX  30144 06687 43/// /1101 1//// 2//// 39726 5////;
0122066870999992011103015004+47000+009217FM-12+042399999V0200901N000519999999N9999999N1+99999+99999999999ADDMA1999999097241MD1819999+9999OA149900261REMSYN070AAXX  30154 06687 43/// /0901 1//// 2//// 39724 58/// 333 91105 91204;
0122066870999992011103016004+47000+009217FM-12+042399999V0209999C000019999999N9999999N1+99999+99999999999ADDMA1999999097241MD1619999+9999OA149900101REMSYN070AAXX  30164 06687 43/// /0000 1//// 2//// 39724 56/// 333 91102 91201;
0122066870999992011103017004+47000+009217FM-12+042399999V0200901N000519999999N9999999N1+99999+99999999999ADDMA1999999097271MD1519999+9999OA149900051REMSYN070AAXX  30174 06687 43/// /0901 1//// 2//// 39727 55/// 333 91101 91201;
0122066870999992011103018004+47000+009217FM-12+042399999V0209999C000019999999N9999999N1+99999+99999999999ADDMA1999999097291MD1219999+9999OA149900261REMSYN070AAXX  30184 06687 43/// /0000 1//// 2//// 39729 52/// 333 91105 91204;
0122066870999992011103019004+47000+009217FM-12+042399999V0209999C000019999999N9999999N1+99999+99999999999ADDMA1999999097291MD1119999+9999OA149900051REMSYN070AAXX  30194 06687 43/// /0000 1//// 2//// 39729 51/// 333 91101 91200;
0081066870999992011103020004+47000+009217FM-12+042399999V0200601N000519999999N9999999N1+99999+99999999999ADDMA1999999097301REMSYN054AAXX  30204 06687 43/// /0601 1//// 2//// 39730 5////;
0081066870999992011103021004+47000+009217FM-12+042399999V0200201N000519999999N9999999N1+99999+99999999999ADDMA1999999097281REMSYN054AAXX  30214 06687 43/// /0201 1//// 2//// 39728 5////;
0081066870999992011103022004+47000+009217FM-12+042399999V0200701N000519999999N9999999N1+99999+99999999999ADDMA1999999097261REMSYN054AAXX  30224 06687 43/// /0701 1//// 2//// 39726 5////;
0081066870999992011103023004+47000+009217FM-12+042399999V0209999C000019999999N9999999N1+99999+99999999999ADDMA1999999097231REMSYN054AAXX  30234 06687 43/// /0000 1//// 2//// 39723 5////;
0122066870999992011103100004+47000+009217FM-12+042399999V0200101N000519999999N9999999N1+99999+99999999999ADDMA1999999097221MD1719999+9999OA149900261REMSYN070AAXX  31004 06687 43/// /0101 1//// 2//// 39722 57/// 333 91105 91202;
0081066870999992011103101004+47000+009217FM-12+042399999V0200201N000519999999N9999999N1+99999+99999999999ADDMA1999999097201REMSYN054AAXX  31014 06687 43/// /0201 1//// 2//// 39720 5////;
0081066870999992011103102004+47000+009217FM-12+042399999V0200301N000519999999N9999999N1+99999+99999999999ADDMA1999999097171REMSYN054AAXX  31024 06687 43/// /0301 1//// 2//// 39717 5////;
0081066870999992011103103004+47000+009217FM-12+042399999V0209999C000519999999N9999999N1+99999+99999999999ADDMA1999999097121REMSYN054AAXX  31034 06687 43/// /0001 1//// 2//// 39712 5////;
0081066870999992011103104004+47000+009217FM-12+042399999V0200601N000519999999N9999999N1+99999+99999999999ADDMA1999999097131REMSYN054AAXX  31044 06687 43/// /0601 1//// 2//// 39713 5////;
0081066870999992011103105004+47000+009217FM-12+042399999V0200301N000519999999N9999999N1+99999+99999999999ADDMA1999999097111REMSYN054AAXX  31054 06687 43/// /0301 1//// 2//// 39711 5////;
0122066870999992011103106004+47000+009217FM-12+042399999V0209999C000019999999N9999999N1+99999+99999999999ADDMA1999999097111MD1719999+9999OA149900211REMSYN070AAXX  31064 06687 43/// /0000 1//// 2//// 39711 57/// 333 91104 91202;
0081066870999992011103107004+47000+009217FM-12+042399999V0201101N000519999999N9999999N1+99999+99999999999ADDMA1999999097121REMSYN054AAXX  31074 06687 43/// /1101 1//// 2//// 39712 5////;
0081066870999992011103108004+47000+009217FM-12+042399999V0201301N000519999999N9999999N1+99999+99999999999ADDMA1999999097111REMSYN054AAXX  31084 06687 43/// /1301 1//// 2//// 39711 5////;
0081066870999992011103109004+47000+009217FM-12+042399999V0202501N001019999999N9999999N1+99999+99999999999ADDMA1999999097071REMSYN054AAXX  31094 06687 43/// /2502 1//// 2//// 39707 5////;
0081066870999992011103110004+47000+009217FM-12+042399999V0202701N004119999999N9999999N1+99999+99999999999ADDMA1999999097041REMSYN054AAXX  31104 06687 43/// /2708 1//// 2//// 39704 5////;
0081066870999992011103111004+47000+009217FM-12+042399999V0202701N005719999999N9999999N1+99999+99999999999ADDMA1999999097001REMSYN054AAXX  31114 06687 43/// /2711 1//// 2//// 39700 5////;
0081066870999992011103112004+47000+009217FM-12+042399999V0202701N006719999999N9999999N1+99999+99999999999ADDMA1999999096961REMSYN054AAXX  31124 06687 43/// /2713 1//// 2//// 39696 5////;
0095066870999992011103113004+47000+009217FM-12+042399999V0202701N005719999999N9999999N1+99999+99999999999ADDMA1999999096951MD1619999+9999REMSYN054AAXX  31134 06687 43/// /2711 1//// 2//// 39695 56///;
0081066870999992011103114004+47000+009217FM-12+042399999V0202701N004119999999N9999999N1+99999+99999999999ADDMA1999999096921REMSYN054AAXX  31144 06687 43/// /2708 1//// 2//// 39692 5////;
0122066870999992011103115004+47000+009217FM-12+042399999V0202601N002619999999N9999999N1+99999+99999999999ADDMA1999999096931MD1819999+9999OA149900931REMSYN070AAXX  31154 06687 43/// /2605 1//// 2//// 39693 58/// 333 91118 91212;
0122066870999992011103116004+47000+009217FM-12+042399999V0201001N003619999999N9999999N1+99999+99999999999ADDMA1999999096931MD1519999+9999OA149900411REMSYN070AAXX  31164 06687 43/// /1007 1//// 2//// 39693 55/// 333 91108 91207;
0122066870999992011103117004+47000+009217FM-12+042399999V0200901N003119999999N9999999N1+99999+99999999999ADDMA1999999096951MD1219999+9999OA149900461REMSYN070AAXX  31174 06687 43/// /0906 1//// 2//// 39695 52/// 333 91109 91206;
0081066870999992011103118004+47000+009217FM-12+042399999V0200801N002619999999N9999999N1+99999+99999999999ADDMA1999999096971REMSYN054AAXX  31184 06687 43/// /0805 1//// 2//// 39697 5////;
0081066870999992011103119004+47000+009217FM-12+042399999V0200901N002619999999N9999999N1+99999+99999999999ADDMA1999999096951REMSYN054AAXX  31194 06687 43/// /0905 1//// 2//// 39695 5////;
0081066870999992011103120004+47000+009217FM-12+042399999V0201001N001519999999N9999999N1+99999+99999999999ADDMA1999999096971REMSYN054AAXX  31204 06687 43/// /1003 1//// 2//// 39697 5////;
0081066870999992011103121004+47000+009217FM-12+042399999V0201701N001019999999N9999999N1+99999+99999999999ADDMA1999999096991REMSYN054AAXX  31214 06687 43/// /1702 1//// 2//// 39699 5////;
0081066870999992011103122004+47000+009217FM-12+042399999V0201801N000519999999N9999999N1+99999+99999999999ADDMA1999999097011REMSYN054AAXX  31224 06687 43/// /1801 1//// 2//// 39701 5////;
0081066870999992011103123004+47000+009217FM-12+042399999V0201801N000519999999N9999999N1+99999+99999999999ADDMA1999999097001REMSYN054AAXX  31234 06687 43/// /1801 1//// 2//// 39700 5////;
0122066870999992011110100004+47000+009217FM-12+042399999V0201301N001519999999N9999999N1+99999+99999999999ADDMA1999999097001MD1219999+9999OA149900511REMSYN070AAXX  01004 06687 43/// /1303 1//// 2//// 39700 52/// 333 91110 91206;
0081066870999992011110101004+47000+009217FM-12+042399999V0201001N002619999999N9999999N1+99999+99999999999ADDMA1999999097001REMSYN054AAXX  01014 06687 43/// /1005 1//// 2//// 39700 5////;
0081066870999992011110102004+47000+009217FM-12+042399999V0201001N002119999999N9999999N1+99999+99999999999ADDMA1999999096991REMSYN054AAXX  01024 06687 43/// /1004 1//// 2//// 39699 5////;
0122066870999992011110103004+47000+009217FM-12+042399999V0201201N001519999999N9999999N1+99999+99999999999ADDMA1999999096961MD1819999+9999OA149900361REMSYN070AAXX  01034 06687 43/// /1203 1//// 2//// 39696 58/// 333 91107 91205;
0081066870999992011110104004+47000+009217FM-12+042399999V0201001N001519999999N9999999N1+99999+99999999999ADDMA1999999096951REMSYN054AAXX  01044 06687 43/// /1003 1//// 2//// 39695 5////;
0122066870999992011110105004+47000+009217FM-12+042399999V0200801N001019999999N9999999N1+99999+99999999999ADDMA1999999096921MD1619999+9999OA149900311REMSYN070AAXX  01054 06687 43/// /0802 1//// 2//// 39692 56/// 333 91106 91203;
0122066870999992011110106004+47000+009217FM-12+042399999V0200301N000519999999N9999999N1+99999+99999999999ADDMA1999999096911MD1819999+9999OA149900361REMSYN070AAXX  01064 06687 43/// /0301 1//// 2//// 39691 58/// 333 91107 91205;
0122066870999992011110107004+47000+009217FM-12+042399999V0200601N000519999999N9999999N1+99999+99999999999ADDMA1999999096941MD1519999+9999OA149900101REMSYN070AAXX  01074 06687 43/// /0601 1//// 2//// 39694 55/// 333 91102 91201;
0081066870999992011110108004+47000+009217FM-12+042399999V0201101N001019999999N9999999N1+99999+99999999999ADDMA1999999096931REMSYN054AAXX  01084 06687 43/// /1102 1//// 2//// 39693 5////;
0081066870999992011110109004+47000+009217FM-12+042399999V0201201N000519999999N9999999N1+99999+99999999999ADDMA1999999096911REMSYN054AAXX  01094 06687 43/// /1201 1//// 2//// 39691 5////;
0081066870999992011110110004+47000+009217FM-12+042399999V0201501N001019999999N9999999N1+99999+99999999999ADDMA1999999096871REMSYN054AAXX  01104 06687 43/// /1502 1//// 2//// 39687 5////;
0081066870999992011110111004+47000+009217FM-12+042399999V0202501N001519999999N9999999N1+99999+99999999999ADDMA1999999096821REMSYN054AAXX  01114 06687 43/// /2503 1//// 2//// 39682 5////;
0081066870999992011110112004+47000+009217FM-12+042399999V0202701N003119999999N9999999N1+99999+99999999999ADDMA1999999096791REMSYN054AAXX  01124 06687 43/// /2706 1//// 2//// 39679 5////;
0081066870999992011110113004+47000+009217FM-12+042399999V0202701N003619999999N9999999N1+99999+99999999999ADDMA1999999096761REMSYN054AAXX  01134 06687 43/// /2707 1//// 2//// 39676 5////;
0081066870999992011110114004+47000+009217FM-12+042399999V0202601N003619999999N9999999N1+99999+99999999999ADDMA1999999096771REMSYN054AAXX  01144 06687 43/// /2607 1//// 2//// 39677 5////;
0081066870999992011110115004+47000+009217FM-12+042399999V0202701N004119999999N9999999N1+99999+99999999999ADDMA1999999096811REMSYN054AAXX  01154 06687 43/// /2708 1//// 2//// 39681 5////;
0081066870999992011110116004+47000+009217FM-12+042399999V0202801N001019999999N9999999N1+99999+99999999999ADDMA1999999096831REMSYN054AAXX  01164 06687 43/// /2802 1//// 2//// 39683 5////;
0081066870999992011110117004+47000+009217FM-12+042399999V0203201N000519999999N9999999N1+99999+99999999999ADDMA1999999096881REMSYN054AAXX  01174 06687 43/// /3201 1//// 2//// 39688 5////;
0122066870999992011110118004+47000+009217FM-12+042399999V0200301N000519999999N9999999N1+99999+99999999999ADDMA1999999096921MD1319999+9999OA149900771REMSYN070AAXX  01184 06687 43/// /0301 1//// 2//// 39692 53/// 333 91115 91210;
0081066870999992011110119004+47000+009217FM-12+042399999V0200901N002119999999N9999999N1+99999+99999999999ADDMA1999999096951REMSYN054AAXX  01194 06687 43/// /0904 1//// 2//// 39695 5////;
0081066870999992011110120004+47000+009217FM-12+042399999V0201001N003119999999N9999999N1+99999+99999999999ADDMA1999999096971REMSYN054AAXX  01204 06687 43/// /1006 1//// 2//// 39697 5////;
0081066870999992011110121004+47000+009217FM-12+042399999V0200801N001019999999N9999999N1+99999+99999999999ADDMA1999999096981REMSYN054AAXX  01214 06687 43/// /0802 1//// 2//// 39698 5////;
0081066870999992011110122004+47000+009217FM-12+042399999V0209999C000019999999N9999999N1+99999+99999999999ADDMA1999999096991REMSYN054AAXX  01224 06687 43/// /0000 1//// 2//// 39699 5////;
0081066870999992011110123004+47000+009217FM-12+042399999V0200901N002619999999N9999999N1+99999+99999999999ADDMA1999999096991REMSYN054AAXX  01234 06687 43/// /0905 1//// 2//// 39699 5////;
0122066870999992011110200004+47000+009217FM-12+042399999V0203401N000519999999N9999999N1+99999+99999999999ADDMA1999999097011MD1219999+9999OA149900511REMSYN070AAXX  02004 06687 43/// /3401 1//// 2//// 39701 52/// 333 91110 91207;
0081066870999992011110201004+47000+009217FM-12+042399999V0203601N000519999999N9999999N1+99999+99999999999ADDMA1999999097001REMSYN054AAXX  02014 06687 43/// /3601 1//// 2//// 39700 5////;
0081066870999992011110202004+47000+009217FM-12+042399999V0200201N000519999999N9999999N1+99999+99999999999ADDMA1999999096971REMSYN054AAXX  02024 06687 43/// /0201 1//// 2//// 39697 5////;
0122066870999992011110203004+47000+009217FM-12+042399999V0200601N000519999999N9999999N1+99999+99999999999ADDMA1999999096941MD1719999+9999OA149900261REMSYN070AAXX  02034 06687 43/// /0601 1//// 2//// 39694 57/// 333 91105 91202;
0081066870999992011110204004+47000+009217FM-12+042399999V0200101N000519999999N9999999N1+99999+99999999999ADDMA1999999096921REMSYN054AAXX  02044 06687 43/// /0101 1//// 2//// 39692 5////;
0081066870999992011110205004+47000+009217FM-12+042399999V0200801N001019999999N9999999N1+99999+99999999999ADDMA1999999096911REMSYN054AAXX  02054 06687 43/// /0802 1//// 2//// 39691 5////;
0122066870999992011110206004+47000+009217FM-12+042399999V0203401N000519999999N9999999N1+99999+99999999999ADDMA1999999096891MD1719999+9999OA149900311REMSYN070AAXX  02064 06687 43/// /3401 1//// 2//// 39689 57/// 333 91106 91204;
0122066870999992011110207004+47000+009217FM-12+042399999V0200901N002119999999N9999999N1+99999+99999999999ADDMA1999999096921MD1519999+9999OA149900311REMSYN070AAXX  02074 06687 43/// /0904 1//// 2//// 39692 55/// 333 91106 91204;
0081066870999992011110208004+47000+009217FM-12+042399999V0201001N004119999999N9999999N1+99999+99999999999ADDMA1999999096891REMSYN054AAXX  02084 06687 43/// /1008 1//// 2//// 39689 5////;
0122066870999992011110209004+47000+009217FM-12+042399999V0201101N003119999999N9999999N1+99999+99999999999ADDMA1999999096821MD1819999+9999OA149900511REMSYN070AAXX  02094 06687 43/// /1106 1//// 2//// 39682 58/// 333 91110 91208;
0122066870999992011110210004+47000+009217FM-12+042399999V0201101N002619999999N9999999N1+99999+99999999999ADDMA1999999096741MD1719999+9999OA149900461REMSYN070AAXX  02104 06687 43/// /1105 1//// 2//// 39674 57/// 333 91109 91206;
0122066870999992011110211004+47000+009217FM-12+042399999V0209999C000019999999N9999999N1+99999+99999999999ADDMA1999999096641MD1819999+9999OA149900261REMSYN070AAXX  02114 06687 43/// /0000 1//// 2//// 39664 58/// 333 91105 91202;
0081066870999992011110212004+47000+009217FM-12+042399999V0202301N000519999999N9999999N1+99999+99999999999ADDMA1999999096541REMSYN054AAXX  02124 06687 43/// /2301 1//// 2//// 39654 5////;
0081066870999992011110213004+47000+009217FM-12+042399999V0202801N000519999999N9999999N1+99999+99999999999ADDMA1999999096461REMSYN054AAXX  02134 06687 43/// /2801 1//// 2//// 39646 5////;
0081066870999992011110214004+47000+009217FM-12+042399999V0209999C000019999999N9999999N1+99999+99999999999ADDMA1999999096401REMSYN054AAXX  02144 06687 43/// /0000 1//// 2//// 39640 5////;
0081066870999992011110215004+47000+009217FM-12+042399999V0202701N002119999999N9999999N1+99999+99999999999ADDMA1999999096381REMSYN054AAXX  02154 06687 43/// /2704 1//// 2//// 39638 5////;
0122066870999992011110216004+47000+009217FM-12+042399999V0209999C000019999999N9999999N1+99999+99999999999ADDMA1999999096371MD1719999+9999OA149900151REMSYN070AAXX  02164 06687 43/// /0000 1//// 2//// 39637 57/// 333 91103 91202;
0122066870999992011110217004+47000+009217FM-12+042399999V0209999C000019999999N9999999N1+99999+99999999999ADDMA1999999096421MD1519999+9999OA149900261REMSYN070AAXX  02174 06687 43/// /0000 1//// 2//// 39642 55/// 333 91105 91202;
0122066870999992011110218004+47000+009217FM-12+042399999V0209999C000019999999N9999999N1+99999+99999999999ADDMA1999999096441MD1319999+9999OA149900311REMSYN070AAXX  02184 06687 43/// /0000 1//// 2//// 39644 53/// 333 91106 91204;
0122066870999992011110219004+47000+009217FM-12+042399999V0200701N000519999999N9999999N1+99999+99999999999ADDMA1999999096421MD1219999+9999OA149900151REMSYN070AAXX  02194 06687 43/// /0701 1//// 2//// 39642 52/// 333 91103 91201;
0081066870999992011110220004+47000+009217FM-12+042399999V0201001N002119999999N9999999N1+99999+99999999999ADDMA1999999096391REMSYN054AAXX  02204 06687 43/// /1004 1//// 2//// 39639 5////;
0081066870999992011110221004+47000+009217FM-12+042399999V0202201N001519999999N9999999N1+99999+99999999999ADDMA1999999096311REMSYN054AAXX  02214 06687 43/// /2203 1//// 2//// 39631 5////;
0122066870999992011110222004+47000+009217FM-12+042399999V0200901N006219999999N9999999N1+99999+99999999999ADDMA1999999096231MD1819999+9999OA149901291REMSYN070AAXX  02224 06687 43/// /0912 1//// 2//// 39623 58/// 333 91125 91212;
0081066870999992011110223004+47000+009217FM-12+042399999V0201201N005119999999N9999999N1+99999+99999999999ADDMA1999999096231REMSYN054AAXX  02234 06687 43/// /1210 1//// 2//// 39623 5////;
0122066870999992011110300004+47000+009217FM-12+042399999V0201001N006219999999N9999999N1+99999+99999999999ADDMA1999999096181MD1719999+9999OA149901291REMSYN070AAXX  03004 06687 43/// /1012 1//// 2//// 39618 57/// 333 91125 91212;
0081066870999992011110301004+47000+009217FM-12+042399999V0201001N007719999999N9999999N1+99999+99999999999ADDMA1999999096151REMSYN054AAXX  03014 06687 43/// /1015 1//// 2//// 39615 5////;
0081066870999992011110302004+47000+009217FM-12+042399999V0201001N006219999999N9999999N1+99999+99999999999ADDMA1999999096131REMSYN054AAXX  03024 06687 43/// /1012 1//// 2//// 39613 5////;
0122066870999992011110303004+47000+009217FM-12+042399999V0201001N006219999999N9999999N1+99999+99999999999ADDMA1999999096121MD1719999+9999OA149901291REMSYN070AAXX  03034 06687 43/// /1012 1//// 2//// 39612 57/// 333 91125 91215;
0081066870999992011110304004+47000+009217FM-12+042399999V0201001N008719999999N9999999N1+99999+99999999999ADDMA1999999096081REMSYN054AAXX  03044 06687 43/// /1017 1//// 2//// 39608 5////;
0122066870999992011110305004+47000+009217FM-12+042399999V0201001N007219999999N9999999N1+99999+99999999999ADDMA1999999096061MD1719999+9999OA149901391REMSYN070AAXX  03054 06687 43/// /1014 1//// 2//// 39606 57/// 333 91127 91215;
0081066870999992011110306004+47000+009217FM-12+042399999V0201001N007219999999N9999999N1+99999+99999999999ADDMA1999999096031REMSYN054AAXX  03064 06687 43/// /1014 1//// 2//// 39603 5////;
0081066870999992011110307004+47000+009217FM-12+042399999V0200901N008219999999N9999999N1+99999+99999999999ADDMA1999999096071REMSYN054AAXX  03074 06687 43/// /0916 1//// 2//// 39607 5////;
0081066870999992011110308004+47000+009217FM-12+042399999V0200901N008719999999N9999999N1+99999+99999999999ADDMA1999999096071REMSYN054AAXX  03084 06687 43/// /0917 1//// 2//// 39607 5////;
0122066870999992011110309004+47000+009217FM-12+042399999V0200901N008719999999N9999999N1+99999+99999999999ADDMA1999999096011MD1819999+9999OA149901651REMSYN070AAXX  03094 06687 43/// /0917 1//// 2//// 39601 58/// 333 91132 91219;
0122066870999992011110310004+47000+009217FM-12+042399999V0200901N007219999999N9999999N1+99999+99999999999ADDMA1999999095991MD1719999+9999OA149901341REMSYN070AAXX  03104 06687 43/// /0914 1//// 2//// 39599 57/// 333 91126 91217;
0122066870999992011110311004+47000+009217FM-12+042399999V0200901N008719999999N9999999N1+99999+99999999999ADDMA1999999095921MD1619999+9999OA149901341REMSYN070AAXX  03114 06687 43/// /0917 1//// 2//// 39592 56/// 333 91126 91216;
0081066870999992011110312004+47000+009217FM-12+042399999V0200901N006219999999N9999999N1+99999+99999999999ADDMA1999999095901REMSYN054AAXX  03124 06687 43/// /0912 1//// 2//// 39590 5////;
0081066870999992011110313004+47000+009217FM-12+042399999V0200901N006219999999N9999999N1+99999+99999999999ADDMA1999999095871REMSYN054AAXX  03134 06687 43/// /0912 1//// 2//// 39587 5////;
0081066870999992011110314004+47000+009217FM-12+042399999V0200901N005719999999N9999999N1+99999+99999999999ADDMA1999999095831REMSYN054AAXX  03144 06687 43/// /0911 1//// 2//// 39583 5////;
0081066870999992011110315004+47000+009217FM-12+042399999V0200901N007719999999N9999999N1+99999+99999999999ADDMA1999999095771REMSYN054AAXX  03154 06687 43/// /0915 1//// 2//// 39577 5////;
0081066870999992011110316004+47000+009217FM-12+042399999V0201001N008219999999N9999999N1+99999+99999999999ADDMA1999999095751REMSYN054AAXX  03164 06687 43/// /1016 1//// 2//// 39575 5////;
0122066870999992011110317004+47000+009217FM-12+042399999V0201001N009319999999N9999999N1+99999+99999999999ADDMA1999999095741MD1719999+9999OA149901491REMSYN070AAXX  03174 06687 43/// /1018 1//// 2//// 39574 57/// 333 91129 91217;
0122066870999992011110318004+47000+009217FM-12+042399999V0201001N008719999999N9999999N1+99999+99999999999ADDMA1999999095741MD1719999+9999OA149901851REMSYN070AAXX  03184 06687 43/// /1017 1//// 2//// 39574 57/// 333 91136 91218;
0081066870999992011110319004+47000+009217FM-12+042399999V0200901N006719999999N9999999N1+99999+99999999999ADDMA1999999095671REMSYN054AAXX  03194 06687 43/// /0913 1//// 2//// 39567 5////;
0081066870999992011110320004+47000+009217FM-12+042399999V0200801N005719999999N9999999N1+99999+99999999999ADDMA1999999095641REMSYN054AAXX  03204 06687 43/// /0811 1//// 2//// 39564 5////;
0081066870999992011110321004+47000+009217FM-12+042399999V0201001N007219999999N9999999N1+99999+99999999999ADDMA1999999095621REMSYN054AAXX  03214 06687 43/// /1014 1//// 2//// 39562 5////;
0081066870999992011110322004+47000+009217FM-12+042399999V0201001N008719999999N9999999N1+99999+99999999999ADDMA1999999095581REMSYN054AAXX  03224 06687 43/// /1017 1//// 2//// 39558 5////;
0081066870999992011110323004+47000+009217FM-12+042399999V0201001N007719999999N9999999N1+99999+99999999999ADDMA1999999095561REMSYN054AAXX  03234 06687 43/// /1015 1//// 2//// 39556 5////;
0081066870999992011110400004+47000+009217FM-12+042399999V0201001N009319999999N9999999N1+99999+99999999999ADDMA1999999095591REMSYN054AAXX  04004 06687 43/// /1018 1//// 2//// 39559 5////;
0081066870999992011110401004+47000+009217FM-12+042399999V0201001N008219999999N9999999N1+99999+99999999999ADDMA1999999095601REMSYN054AAXX  04014 06687 43/// /1016 1//// 2//// 39560 5////;
0081066870999992011110402004+47000+009217FM-12+042399999V0201001N009319999999N9999999N1+99999+99999999999ADDMA1999999095631REMSYN054AAXX  04024 06687 43/// /1018 1//// 2//// 39563 5////;
0081066870999992011110403004+47000+009217FM-12+042399999V0200901N008219999999N9999999N1+99999+99999999999ADDMA1999999095631REMSYN054AAXX  04034 06687 43/// /0916 1//// 2//// 39563 5////;
0081066870999992011110404004+47000+009217FM-12+042399999V0200901N007719999999N9999999N1+99999+99999999999ADDMA1999999095641REMSYN054AAXX  04044 06687 43/// /0915 1//// 2//// 39564 5////;
0081066870999992011110405004+47000+009217FM-12+042399999V0201001N008719999999N9999999N1+99999+99999999999ADDMA1999999095641REMSYN054AAXX  04054 06687 43/// /1017 1//// 2//// 39564 5////;
0081066870999992011110406004+47000+009217FM-12+042399999V0201001N011319999999N9999999N1+99999+99999999999ADDMA1999999095621REMSYN054AAXX  04064 06687 43/// /1022 1//// 2//// 39562 5////;
0081066870999992011110407004+47000+009217FM-12+042399999V0200901N009819999999N9999999N1+99999+99999999999ADDMA1999999095671REMSYN054AAXX  04074 06687 43/// /0919 1//// 2//// 39567 5////;
0081066870999992011110408004+47000+009217FM-12+042399999V0201001N008719999999N9999999N1+99999+99999999999ADDMA1999999095731REMSYN054AAXX  04084 06687 43/// /1017 1//// 2//// 39573 5////;
0081066870999992011110409004+47000+009217FM-12+042399999V0200901N007219999999N9999999N1+99999+99999999999ADDMA1999999095691REMSYN054AAXX  04094 06687 43/// /0914 1//// 2//// 39569 5////;
0122066870999992011110410004+47000+009217FM-12+042399999V0201001N006719999999N9999999N1+99999+99999999999ADDMA1999999095651MD1019999+9999OA149901491REMSYN070AAXX  04104 06687 43/// /1013 1//// 2//// 39565 50/// 333 91129 91216;
0081066870999992011110411004+47000+009217FM-12+042399999V0201001N007719999999N9999999N1+99999+99999999999ADDMA1999999095601REMSYN054AAXX  04114 06687 43/// /1015 1//// 2//// 39560 5////;
0081066870999992011110412004+47000+009217FM-12+042399999V0202501N002619999999N9999999N1+99999+99999999999ADDMA1999999095541REMSYN054AAXX  04124 06687 43/// /2505 1//// 2//// 39554 5////;
0081066870999992011110413004+47000+009217FM-12+042399999V0202901N002619999999N9999999N1+99999+99999999999ADDMA1999999095481REMSYN054AAXX  04134 06687 43/// /2905 1//// 2//// 39548 5////;
0081066870999992011110414004+47000+009217FM-12+042399999V0202801N002619999999N9999999N1+99999+99999999999ADDMA1999999095431REMSYN054AAXX  04144 06687 43/// /2805 1//// 2//// 39543 5////;
0122066870999992011110415004+47000+009217FM-12+042399999V0203201N001519999999N9999999N1+99999+99999999999ADDMA1999999095451MD1719999+9999OA149900771REMSYN070AAXX  04154 06687 43/// /3203 1//// 2//// 39545 57/// 333 91115 91207;
0122066870999992011110416004+47000+009217FM-12+042399999V0203601N001519999999N9999999N1+99999+99999999999ADDMA1999999095511MD1519999+9999OA149900621REMSYN070AAXX  04164 06687 43/// /3603 1//// 2//// 39551 55/// 333 91112 91205;
0122066870999992011110417004+47000+009217FM-12+042399999V0203301N001019999999N9999999N1+99999+99999999999ADDMA1999999095561MD1219999+9999OA149900461REMSYN070AAXX  04174 06687 43/// /3302 1//// 2//// 39556 52/// 333 91109 91203;
0081066870999992011110418004+47000+009217FM-12+042399999V0201301N000519999999N9999999N1+99999+99999999999ADDMA1999999095571REMSYN054AAXX  04184 06687 43/// /1301 1//// 2//// 39557 5////;
0081066870999992011110419004+47000+009217FM-12+042399999V0201001N006219999999N9999999N1+99999+99999999999ADDMA1999999095541REMSYN054AAXX  04194 06687 43/// /1012 1//// 2//// 39554 5////;
0081066870999992011110420004+47000+009217FM-12+042399999V0200901N006719999999N9999999N1+99999+99999999999ADDMA1999999095571REMSYN054AAXX  04204 06687 43/// /0913 1//// 2//// 39557 5////;
0081066870999992011110421004+47000+009217FM-12+042399999V0200901N006219999999N9999999N1+99999+99999999999ADDMA1999999095631REMSYN054AAXX  04214 06687 43/// /0912 1//// 2//// 39563 5////;
0081066870999992011110422004+47000+009217FM-12+042399999V0200901N006219999999N9999999N1+99999+99999999999ADDMA1999999095621REMSYN054AAXX  04224 06687 43/// /0912 1//// 2//// 39562 5////;
0081066870999992011110423004+47000+009217FM-12+042399999V0200901N005719999999N9999999N1+99999+99999999999ADDMA1999999095611REMSYN054AAXX  04234 06687 43/// /0911 1//// 2//// 39561 5////;
0081066870999992011110500004+47000+009217FM-12+042399999V0200901N006219999999N9999999N1+99999+99999999999ADDMA1999999095591REMSYN054AAXX  05004 06687 43/// /0912 1//// 2//// 39559 5////;
0081066870999992011110501004+47000+009217FM-12+042399999V0200901N006719999999N9999999N1+99999+99999999999ADDMA1999999095591REMSYN054AAXX  05014 06687 43/// /0913 1//// 2//// 39559 5////;
0081066870999992011110502004+47000+009217FM-12+042399999V0200901N005119999999N9999999N1+99999+99999999999ADDMA1999999095601REMSYN054AAXX  05024 06687 43/// /0910 1//// 2//// 39560 5////;
0081066870999992011110503004+47000+009217FM-12+042399999V0200901N007719999999N9999999N1+99999+99999999999ADDMA1999999095641REMSYN054AAXX  05034 06687 43/// /0915 1//// 2//// 39564 5////;
0081066870999992011110504004+47000+009217FM-12+042399999V0200901N006719999999N9999999N1+99999+99999999999ADDMA1999999095701REMSYN054AAXX  05044 06687 43/// /0913 1//// 2//// 39570 5////;
0081066870999992011110505004+47000+009217FM-12+042399999V0201001N009319999999N9999999N1+99999+99999999999ADDMA1999999095691REMSYN054AAXX  05054 06687 43/// /1018 1//// 2//// 39569 5////;
0081066870999992011110506004+47000+009217FM-12+042399999V0201001N006719999999N9999999N1+99999+99999999999ADDMA1999999095671REMSYN054AAXX  05064 06687 43/// /1013 1//// 2//// 39567 5////;
0081066870999992011110507004+47000+009217FM-12+042399999V0201001N007719999999N9999999N1+99999+99999999999ADDMA1999999095701REMSYN054AAXX  05074 06687 43/// /1015 1//// 2//// 39570 5////;
0081066870999992011110508004+47000+009217FM-12+042399999V0200901N006719999999N9999999N1+99999+99999999999ADDMA1999999095651REMSYN054AAXX  05084 06687 43/// /0913 1//// 2//// 39565 5////;
0081066870999992011110509004+47000+009217FM-12+042399999V0200901N008219999999N9999999N1+99999+99999999999ADDMA1999999095631REMSYN054AAXX  05094 06687 43/// /0916 1//// 2//// 39563 5////;
0081066870999992011110510004+47000+009217FM-12+042399999V0200901N008219999999N9999999N1+99999+99999999999ADDMA1999999095621REMSYN054AAXX  05104 06687 43/// /0916 1//// 2//// 39562 5////;
0081066870999992011110511004+47000+009217FM-12+042399999V0200901N009319999999N9999999N1+99999+99999999999ADDMA1999999095601REMSYN054AAXX  05114 06687 43/// /0918 1//// 2//// 39560 5////;
0081066870999992011110512004+47000+009217FM-12+042399999V0201001N010319999999N9999999N1+99999+99999999999ADDMA1999999095571REMSYN054AAXX  05124 06687 43/// /1020 1//// 2//// 39557 5////;
0081066870999992011110513004+47000+009217FM-12+042399999V0201001N007219999999N9999999N1+99999+99999999999ADDMA1999999095571REMSYN054AAXX  05134 06687 43/// /1014 1//// 2//// 39557 5////;
0081066870999992011110514004+47000+009217FM-12+042399999V0200901N006219999999N9999999N1+99999+99999999999ADDMA1999999095581REMSYN054AAXX  05144 06687 43/// /0912 1//// 2//// 39558 5////;
0081066870999992011110515004+47000+009217FM-12+042399999V0200901N006219999999N9999999N1+99999+99999999999ADDMA1999999095621REMSYN054AAXX  05154 06687 43/// /0912 1//// 2//// 39562 5////;
0081066870999992011110516004+47000+009217FM-12+042399999V0201001N005119999999N9999999N1+99999+99999999999ADDMA1999999095661REMSYN054AAXX  05164 06687 43/// /1010 1//// 2//// 39566 5////;
0081066870999992011110517004+47000+009217FM-12+042399999V0201001N007219999999N9999999N1+99999+99999999999ADDMA1999999095721REMSYN054AAXX  05174 06687 43/// /1014 1//// 2//// 39572 5////;
0081066870999992011110518004+47000+009217FM-12+042399999V0200901N006219999999N9999999N1+99999+99999999999ADDMA1999999095751REMSYN054AAXX  05184 06687 43/// /0912 1//// 2//// 39575 5////;
0081066870999992011110519004+47000+009217FM-12+042399999V0200901N006219999999N9999999N1+99999+99999999999ADDMA1999999095781REMSYN054AAXX  05194 06687 43/// /0912 1//// 2//// 39578 5////;
0081066870999992011110520004+47000+009217FM-12+042399999V0200901N007719999999N9999999N1+99999+99999999999ADDMA1999999095771REMSYN054AAXX  05204 06687 43/// /0915 1//// 2//// 39577 5////;
0081066870999992011110521004+47000+009217FM-12+042399999V0201001N006219999999N9999999N1+99999+99999999999ADDMA1999999095801REMSYN054AAXX  05214 06687 43/// /1012 1//// 2//// 39580 5////;
0081066870999992011110522004+47000+009217FM-12+042399999V0201001N006219999999N9999999N1+99999+99999999999ADDMA1999999095791REMSYN054AAXX  05224 06687 43/// /1012 1//// 2//// 39579 5////;
0081066870999992011110523004+47000+009217FM-12+042399999V0200901N005719999999N9999999N1+99999+99999999999ADDMA1999999095811REMSYN054AAXX  05234 06687 43/// /0911 1//// 2//// 39581 5////;
0081066870999992011110600004+47000+009217FM-12+042399999V0200901N007719999999N9999999N1+99999+99999999999ADDMA1999999095821REMSYN054AAXX  06004 06687 43/// /0915 1//// 2//// 39582 5////;
0081066870999992011110601004+47000+009217FM-12+042399999V0201001N004119999999N9999999N1+99999+99999999999ADDMA1999999095811REMSYN054AAXX  06014 06687 43/// /1008 1//// 2//// 39581 5////;
0081066870999992011110602004+47000+009217FM-12+042399999V0203401N001019999999N9999999N1+99999+99999999999ADDMA1999999095831REMSYN054AAXX  06024 06687 43/// /3402 1//// 2//// 39583 5////;
0081066870999992011110603004+47000+009217FM-12+042399999V0200901N007219999999N9999999N1+99999+99999999999ADDMA1999999095761REMSYN054AAXX  06034 06687 43/// /0914 1//// 2//// 39576 5////;
0081066870999992011110604004+47000+009217FM-12+042399999V0200701N002619999999N9999999N1+99999+99999999999ADDMA1999999095761REMSYN054AAXX  06044 06687 43/// /0705 1//// 2//// 39576 5////;
0122066870999992011110605004+47000+009217FM-12+042399999V0200801N004619999999N9999999N1+99999+99999999999ADDMA1999999095771MD1719999+9999OA149901131REMSYN070AAXX  06054 06687 43/// /0809 1//// 2//// 39577 57/// 333 91122 91212;
0081066870999992011110606004+47000+009217FM-12+042399999V0202901N003119999999N9999999N1+99999+99999999999ADDMA1999999095811REMSYN054AAXX  06064 06687 43/// /2906 1//// 2//// 39581 5////;
0122066870999992011110607004+47000+009217FM-12+042399999V0200601N002119999999N9999999N1+99999+99999999999ADDMA1999999095881MD1219999+9999OA149900571REMSYN070AAXX  06074 06687 43/// /0604 1//// 2//// 39588 52/// 333 91111 91205;
0081066870999992011110608004+47000+009217FM-12+042399999V0200801N005119999999N9999999N1+99999+99999999999ADDMA1999999095911REMSYN054AAXX  06084 06687 43/// /0810 1//// 2//// 39591 5////;
0122066870999992011110609004+47000+009217FM-12+042399999V0200901N004619999999N9999999N1+99999+99999999999ADDMA1999999095931MD1219999+9999OA149901031REMSYN070AAXX  06094 06687 43/// /0909 1//// 2//// 39593 52/// 333 91120 91212;
0122066870999992011110610004+47000+009217FM-12+042399999V0201001N004119999999N9999999N1+99999+99999999999ADDMA1999999095951MD1219999+9999OA149900981REMSYN070AAXX  06104 06687 43/// /1008 1//// 2//// 39595 52/// 333 91119 91210;
0122066870999992011110611004+47000+009217FM-12+042399999V0200301N001019999999N9999999N1+99999+99999999999ADDMA1999999095971MD1219999+9999OA149900881REMSYN070AAXX  06114 06687 43/// /0302 1//// 2//// 39597 52/// 333 91117 91209;
0081066870999992011110612004+47000+009217FM-12+042399999V0201101N004119999999N9999999N1+99999+99999999999ADDMA1999999095921REMSYN054AAXX  06124 06687 43/// /1108 1//// 2//// 39592 5////;
0122066870999992011110613004+47000+009217FM-12+042399999V0201301N001019999999N9999999N1+99999+99999999999ADDMA1999999095891MD1819999+9999OA149900461REMSYN070AAXX  06134 06687 43/// /1302 1//// 2//// 39589 58/// 333 91109 91207;
0081066870999992011110614004+47000+009217FM-12+042399999V0202601N001019999999N9999999N1+99999+99999999999ADDMA1999999095921REMSYN054AAXX  06144 06687 43/// /2602 1//// 2//// 39592 5////;
0122066870999992011110615004+47000+009217FM-12+042399999V0202801N000519999999N9999999N1+99999+99999999999ADDMA1999999095951MD1519999+9999OA149900461REMSYN070AAXX  06154 06687 43/// /2801 1//// 2//// 39595 55/// 333 91109 91207;
0122066870999992011110616004+47000+009217FM-12+042399999V0203001N001019999999N9999999N1+99999+99999999999ADDMA1999999095981MD1119999+9999OA149900311REMSYN070AAXX  06164 06687 43/// /3002 1//// 2//// 39598 51/// 333 91106 91203;
0122066870999992011110617004+47000+009217FM-12+042399999V0209999C000019999999N9999999N1+99999+99999999999ADDMA1999999096001MD1219999+9999OA149900211REMSYN070AAXX  06174 06687 43/// /0000 1//// 2//// 39600 52/// 333 91104 91202;
0122066870999992011110618004+47000+009217FM-12+042399999V0201301N000519999999N9999999N1+99999+99999999999ADDMA1999999096061MD1219999+9999OA149900571REMSYN070AAXX  06184 06687 43/// /1301 1//// 2//// 39606 52/// 333 91111 91208;
0122066870999992011110619004+47000+009217FM-12+042399999V0203401N000519999999N9999999N1+99999+99999999999ADDMA1999999096121MD1219999+9999OA149900151REMSYN070AAXX  06194 06687 43/// /3401 1//// 2//// 39612 52/// 333 91103 91202;
0095066870999992011110620004+47000+009217FM-12+042399999V0202701N001019999999N9999999N1+99999+99999999999ADDMA1999999096161MD1219999+9999REMSYN054AAXX  06204 06687 43/// /2702 1//// 2//// 39616 52///;
0095066870999992011110621004+47000+009217FM-12+042399999V0209999C000019999999N9999999N1+99999+99999999999ADDMA1999999096221MD1219999+9999REMSYN054AAXX  06214 06687 43/// /0000 1//// 2//// 39622 52///;
0122066870999992011110622004+47000+009217FM-12+042399999V0202801N000519999999N9999999N1+99999+99999999999ADDMA1999999096211MD1219999+9999OA149900151REMSYN070AAXX  06224 06687 43/// /2801 1//// 2//// 39621 52/// 333 91103 91201;
0081066870999992011110623004+47000+009217FM-12+042399999V0202901N001019999999N9999999N1+99999+99999999999ADDMA1999999096211REMSYN054AAXX  06234 06687 43/// /2902 1//// 2//// 39621 5////;
0081066870999992011110700004+47000+009217FM-12+042399999V0200801N001019999999N9999999N1+99999+99999999999ADDMA1999999096261REMSYN054AAXX  07004 06687 43/// /0802 1//// 2//// 39626 5////;
0122066870999992011110701004+47000+009217FM-12+042399999V0209999C000019999999N9999999N1+99999+99999999999ADDMA1999999096291MD1219999+9999OA149900151REMSYN070AAXX  07014 06687 43/// /0000 1//// 2//// 39629 52/// 333 91103 91201;
0081066870999992011110702004+47000+009217FM-12+042399999V0202901N001519999999N9999999N1+99999+99999999999ADDMA1999999096331REMSYN054AAXX  07024 06687 43/// /2903 1//// 2//// 39633 5////;
0122066870999992011110703004+47000+009217FM-12+042399999V0202701N003619999999N9999999N1+99999+99999999999ADDMA1999999096361MD1219999+9999OA149900721REMSYN070AAXX  07034 06687 43/// /2707 1//// 2//// 39636 52/// 333 91114 91207;
0122066870999992011110704004+47000+009217FM-12+042399999V0203101N001019999999N9999999N1+99999+99999999999ADDMA1999999096371MD1219999+9999OA149900671REMSYN070AAXX  07044 06687 43/// /3102 1//// 2//// 39637 52/// 333 91113 91207;
0122066870999992011110705004+47000+009217FM-12+042399999V0201101N001519999999N9999999N1+99999+99999999999ADDMA1999999096421MD1219999+9999OA149900361REMSYN070AAXX  07054 06687 43/// /1103 1//// 2//// 39642 52/// 333 91107 91203;
0122066870999992011110706004+47000+009217FM-12+042399999V0203001N000519999999N9999999N1+99999+99999999999ADDMA1999999096431MD1219999+9999OA149900721REMSYN070AAXX  07064 06687 43/// /3001 1//// 2//// 39643 52/// 333 91114 91208;
0122066870999992011110707004+47000+009217FM-12+042399999V0202801N000519999999N9999999N1+99999+99999999999ADDMA1999999096451MD1019999+9999OA149900151REMSYN070AAXX  07074 06687 43/// /2801 1//// 2//// 39645 50/// 333 91103 91202;
0081066870999992011110708004+47000+009217FM-12+042399999V0200301N000519999999N9999999N1+99999+99999999999ADDMA1999999096501REMSYN054AAXX  07084 06687 43/// /0301 1//// 2//// 39650 5////;
0122066870999992011110709004+47000+009217FM-12+042399999V0201101N001019999999N9999999N1+99999+99999999999ADDMA1999999096501MD1219999+9999OA149900211REMSYN070AAXX  07094 06687 43/// /1102 1//// 2//// 39650 52/// 333 91104 91203;
0122066870999992011110710004+47000+009217FM-12+042399999V0200901N001019999999N9999999N1+99999+99999999999ADDMA1999999096511MD1219999+9999OA149900211REMSYN070AAXX  07104 06687 43/// /0902 1//// 2//// 39651 52/// 333 91104 91203;
0122066870999992011110711004+47000+009217FM-12+042399999V0201201N000519999999N9999999N1+99999+99999999999ADDMA1999999096451MD1819999+9999OA149900211REMSYN070AAXX  07114 06687 43/// /1201 1//// 2//// 39645 58/// 333 91104 91204;
0081066870999992011110712004+47000+009217FM-12+042399999V0202701N002119999999N9999999N1+99999+99999999999ADDMA1999999096411REMSYN054AAXX  07124 06687 43/// /2704 1//// 2//// 39641 5////;
0081066870999992011110713004+47000+009217FM-12+042399999V0202801N002619999999N9999999N1+99999+99999999999ADDMA1999999096381REMSYN054AAXX  07134 06687 43/// /2805 1//// 2//// 39638 5////;
0081066870999992011110714004+47000+009217FM-12+042399999V0202701N003619999999N9999999N1+99999+99999999999ADDMA1999999096381REMSYN054AAXX  07144 06687 43/// /2707 1//// 2//// 39638 5////;
0122066870999992011110715004+47000+009217FM-12+042399999V0202601N002119999999N9999999N1+99999+99999999999ADDMA1999999096441MD1319999+9999OA149900821REMSYN070AAXX  07154 06687 43/// /2604 1//// 2//// 39644 53/// 333 91116 91208;
0122066870999992011110716004+47000+009217FM-12+042399999V0201001N002119999999N9999999N1+99999+99999999999ADDMA1999999096521MD1319999+9999OA149900511REMSYN070AAXX  07164 06687 43/// /1004 1//// 2//// 39652 53/// 333 91110 91204;
0081066870999992011110717004+47000+009217FM-12+042399999V0209999C000019999999N9999999N1+99999+99999999999ADDMA1999999096571REMSYN054AAXX  07174 06687 43/// /0000 1//// 2//// 39657 5////;
0095066870999992011110718004+47000+009217FM-12+042399999V0209999C000019999999N9999999N1+99999+99999999999ADDMA1999999096611MD1119999+9999REMSYN054AAXX  07184 06687 43/// /0000 1//// 2//// 39661 51///;
0122066870999992011110719004+47000+009217FM-12+042399999V0209999C000019999999N9999999N1+99999+99999999999ADDMA1999999096621MD1119999+9999OA149900101REMSYN070AAXX  07194 06687 43/// /0000 1//// 2//// 39662 51/// 333 91102 91201;
0081066870999992011110720004+47000+009217FM-12+042399999V0203201N000519999999N9999999N1+99999+99999999999ADDMA1999999096651REMSYN054AAXX  07204 06687 43/// /3201 1//// 2//// 39665 5////;
0122066870999992011110721004+47000+009217FM-12+042399999V0209999C000019999999N9999999N1+99999+99999999999ADDMA1999999096671MD1219999+9999OA149900151REMSYN070AAXX  07214 06687 43/// /0000 1//// 2//// 39667 52/// 333 91103 91202;
0122066870999992011110722004+47000+009217FM-12+042399999V0200901N001519999999N9999999N1+99999+99999999999ADDMA1999999096651MD1219999+9999OA149900311REMSYN070AAXX  07224 06687 43/// /0903 1//// 2//// 39665 52/// 333 91106 91203;
0081066870999992011110723004+47000+009217FM-12+042399999V0209999C000019999999N9999999N1+99999+99999999999ADDMA1999999096641REMSYN054AAXX  07234 06687 43/// /0000 1//// 2//// 39664 5////;
0081066870999992011110800004+47000+009217FM-12+042399999V0200201N001519999999N9999999N1+99999+99999999999ADDMA1999999096611REMSYN054AAXX  08004 06687 43/// /0203 1//// 2//// 39661 5////;
0122066870999992011110801004+47000+009217FM-12+042399999V0200901N004119999999N9999999N1+99999+99999999999ADDMA1999999096571MD1719999+9999OA149900821REMSYN070AAXX  08014 06687 43/// /0908 1//// 2//// 39657 57/// 333 91116 91208;
0081066870999992011110802004+47000+009217FM-12+042399999V0203001N001519999999N9999999N1+99999+99999999999ADDMA1999999096621REMSYN054AAXX  08024 06687 43/// /3003 1//// 2//// 39662 5////;
0081066870999992011110803004+47000+009217FM-12+042399999V0203001N001019999999N9999999N1+99999+99999999999ADDMA1999999096631REMSYN054AAXX  08034 06687 43/// /3002 1//// 2//// 39663 5////;
0122066870999992011110804004+47000+009217FM-12+042399999V0202701N001519999999N9999999N1+99999+99999999999ADDMA1999999096631MD1219999+9999OA149900461REMSYN070AAXX  08044 06687 43/// /2703 1//// 2//// 39663 52/// 333 91109 91204;
0122066870999992011110805004+47000+009217FM-12+042399999V0200701N000519999999N9999999N1+99999+99999999999ADDMA1999999096601MD1819999+9999OA149900151REMSYN070AAXX  08054 06687 43/// /0701 1//// 2//// 39660 58/// 333 91103 91201;
0122066870999992011110806004+47000+009217FM-12+042399999V0203201N001019999999N9999999N1+99999+99999999999ADDMA1999999096611MD1719999+9999OA149900821REMSYN070AAXX  08064 06687 43/// /3202 1//// 2//// 39661 57/// 333 91116 91208;
0122066870999992011110807004+47000+009217FM-12+042399999V0200701N003619999999N9999999N1+99999+99999999999ADDMA1999999096591MD1719999+9999OA149900621REMSYN070AAXX  08074 06687 43/// /0707 1//// 2//// 39659 57/// 333 91112 91206;
0081066870999992011110808004+47000+009217FM-12+042399999V0203401N001519999999N9999999N1+99999+99999999999ADDMA1999999096581REMSYN054AAXX  08084 06687 43/// /3403 1//// 2//// 39658 5////;
0081066870999992011110809004+47000+009217FM-12+042399999V0202601N001519999999N9999999N1+99999+99999999999ADDMA1999999096591REMSYN054AAXX  08094 06687 43/// /2603 1//// 2//// 39659 5////;
0081066870999992011110810004+47000+009217FM-12+042399999V0202701N004119999999N9999999N1+99999+99999999999ADDMA1999999096621REMSYN054AAXX  08104 06687 43/// /2708 1//// 2//// 39662 5////;
0081066870999992011110811004+47000+009217FM-12+042399999V0202701N004619999999N9999999N1+99999+99999999999ADDMA1999999096621REMSYN054AAXX  08114 06687 43/// /2709 1//// 2//// 39662 5////;
0081066870999992011110812004+47000+009217FM-12+042399999V0202701N005719999999N9999999N1+99999+99999999999ADDMA1999999096591REMSYN054AAXX  08124 06687 43/// /2711 1//// 2//// 39659 5////;
0081066870999992011110813004+47000+009217FM-12+042399999V0202701N005119999999N9999999N1+99999+99999999999ADDMA1999999096601REMSYN054AAXX  08134 06687 43/// /2710 1//// 2//// 39660 5////;
0081066870999992011110814004+47000+009217FM-12+042399999V0202701N002619999999N9999999N1+99999+99999999999ADDMA1999999096651REMSYN054AAXX  08144 06687 43/// /2705 1//// 2//// 39665 5////;
0081066870999992011110815004+47000+009217FM-12+042399999V0202701N002119999999N9999999N1+99999+99999999999ADDMA1999999096711REMSYN054AAXX  08154 06687 43/// /2704 1//// 2//// 39671 5////;
0087066870999992011110816004+47000+009217FM-12+042399999V0209999C000019999999N9999999N1+99999+99999999999ADDMA1999999096731REMSYN060AAXX  08164 06687 43/// /0000 1//// 2//// 39673 5//// 91540;
0080066870999992011110817004+47000+009217FM-12+042399999V02099999999999999999N9999999N1+99999+99999999999ADDMD1119999+9999REMSYN054AAXX  08174 06687 43/// ///// 1//// 2//// 3//// 51///;
0081066870999992011110818004+47000+009217FM-12+042399999V0203501N000519999999N9999999N1+99999+99999999999ADDMA1999999096811REMSYN054AAXX  08184 06687 43/// /3501 1//// 2//// 39681 5////;
0081066870999992011110819004+47000+009217FM-12+042399999V0202701N001019999999N9999999N1+99999+99999999999ADDMA1999999096831REMSYN054AAXX  08194 06687 43/// /2702 1//// 2//// 39683 5////;
0081066870999992011110820004+47000+009217FM-12+042399999V0202901N000519999999N9999999N1+99999+99999999999ADDMA1999999096871REMSYN054AAXX  08204 06687 43/// /2901 1//// 2//// 39687 5////;
0095066870999992011110821004+47000+009217FM-12+042399999V0200401N000519999999N9999999N1+99999+99999999999ADDMA1999999096871MD1219999+9999REMSYN054AAXX  08214 06687 43/// /0401 1//// 2//// 39687 52///;
0122066870999992011110822004+47000+009217FM-12+042399999V0209999C000519999999N9999999N1+99999+99999999999ADDMA1999999096851MD1019999+9999OA149900151REMSYN070AAXX  08224 06687 43/// /0001 1//// 2//// 39685 50/// 333 91103 91202;
0095066870999992011110823004+47000+009217FM-12+042399999V0203401N001019999999N9999999N1+99999+99999999999ADDMA1999999096911MD1219999+9999REMSYN054AAXX  08234 06687 43/// /3402 1//// 2//// 39691 52///;
0081066870999992011110900004+47000+009217FM-12+042399999V0203101N000519999999N9999999N1+99999+99999999999ADDMA1999999096941REMSYN054AAXX  09004 06687 43/// /3101 1//// 2//// 39694 5////;
0122066870999992011110901004+47000+009217FM-12+042399999V0203601N001019999999N9999999N1+99999+99999999999ADDMA1999999096961MD1219999+9999OA149900261REMSYN070AAXX  09014 06687 43/// /3602 1//// 2//// 39696 52/// 333 91105 91202;
0081066870999992011110902004+47000+009217FM-12+042399999V0200801N000519999999N9999999N1+99999+99999999999ADDMA1999999096971REMSYN054AAXX  09024 06687 43/// /0801 1//// 2//// 39697 5////;
0081066870999992011110903004+47000+009217FM-12+042399999V0203601N001019999999N9999999N1+99999+99999999999ADDMA1999999096961REMSYN054AAXX  09034 06687 43/// /3602 1//// 2//// 39696 5////;
0122066870999992011110904004+47000+009217FM-12+042399999V0203001N002119999999N9999999N1+99999+99999999999ADDMA1999999096981MD1019999+9999OA149900771REMSYN070AAXX  09044 06687 43/// /3004 1//// 2//// 39698 50/// 333 91115 91203;
0122066870999992011110905004+47000+009217FM-12+042399999V0203001N001019999999N9999999N1+99999+99999999999ADDMA1999999097031MD1219999+9999OA149900571REMSYN070AAXX  09054 06687 43/// /3002 1//// 2//// 39703 52/// 333 91111 91203;
0126066870999992011110906004+47000+009217FM-12+042399999V02099999999999999999N9999999N1+99999+99999999999ADDMD1219999+9999OA149999999REMSYN070AAXX  09064 06687 43/// ///// 1//// 2//// 3//// 52/// 333 91115 91204;EQDQ01  00772WGOSPD
0122066870999992011110907004+47000+009217FM-12+042399999V0202801N001019999999N9999999N1+99999+99999999999ADDMA1999999097081MD1219999+9999OA149900261REMSYN070AAXX  09074 06687 43/// /2802 1//// 2//// 39708 52/// 333 91105 91202;
0095066870999992011110908004+47000+009217FM-12+042399999V0202701N001019999999N9999999N1+99999+99999999999ADDMA1999999097131MD1219999+9999REMSYN054AAXX  09084 06687 43/// /2702 1//// 2//// 39713 52///;
0095066870999992011110909004+47000+009217FM-12+042399999V0202801N000519999999N9999999N1+99999+99999999999ADDMA1999999097121MD1219999+9999REMSYN054AAXX  09094 06687 43/// /2801 1//// 2//// 39712 52///;
0081066870999992011110910004+47000+009217FM-12+042399999V0201901N000519999999N9999999N1+99999+99999999999ADDMA1999999097111REMSYN054AAXX  09104 06687 43/// /1901 1//// 2//// 39711 5////;
0081066870999992011110911004+47000+009217FM-12+042399999V0202601N002619999999N9999999N1+99999+99999999999ADDMA1999999097091REMSYN054AAXX  09114 06687 43/// /2605 1//// 2//// 39709 5////;
0081066870999992011110912004+47000+009217FM-12+042399999V0202701N005119999999N9999999N1+99999+99999999999ADDMA1999999097031REMSYN054AAXX  09124 06687 43/// /2710 1//// 2//// 39703 5////;
0081066870999992011110913004+47000+009217FM-12+042399999V0202701N004619999999N9999999N1+99999+99999999999ADDMA1999999096991REMSYN054AAXX  09134 06687 43/// /2709 1//// 2//// 39699 5////;
0081066870999992011110914004+47000+009217FM-12+042399999V0202701N005719999999N9999999N1+99999+99999999999ADDMA1999999096981REMSYN054AAXX  09144 06687 43/// /2711 1//// 2//// 39698 5////;
0122066870999992011110915004+47000+009217FM-12+042399999V0202701N001019999999N9999999N1+99999+99999999999ADDMA1999999097041MD1519999+9999OA149900721REMSYN070AAXX  09154 06687 43/// /2702 1//// 2//// 39704 55/// 333 91114 91211;
0122066870999992011110916004+47000+009217FM-12+042399999V0203201N000519999999N9999999N1+99999+99999999999ADDMA1999999097081MD1319999+9999OA149900261REMSYN070AAXX  09164 06687 43/// /3201 1//// 2//// 39708 53/// 333 91105 91203;
0081066870999992011110917004+47000+009217FM-12+042399999V0209999C000019999999N9999999N1+99999+99999999999ADDMA1999999097141REMSYN054AAXX  09174 06687 43/// /0000 1//// 2//// 39714 5////;
0128066870999992011110918004+47000+009217FM-12+042399999V0209999C000019999999N9999999N1+99999+99999999999ADDMA1999999097181MD1319999+9999OA149900721REMSYN076AAXX  09184 06687 43/// /0000 1//// 2//// 39718 53/// 91740 333 91114 91211;
0081066870999992011110919004+47000+009217FM-12+042399999V0200701N000519999999N9999999N1+99999+99999999999ADDMA1999999097191REMSYN054AAXX  09194 06687 43/// /0701 1//// 2//// 39719 5////;
0095066870999992011110920004+47000+009217FM-12+042399999V0202201N000519999999N9999999N1+99999+99999999999ADDMA1999999097221MD1119999+9999REMSYN054AAXX  09204 06687 43/// /2201 1//// 2//// 39722 51///;
0081066870999992011110921004+47000+009217FM-12+042399999V0209999C000019999999N9999999N1+99999+99999999999ADDMA1999999097221REMSYN054AAXX  09214 06687 43/// /0000 1//// 2//// 39722 5////;
0122066870999992011110922004+47000+009217FM-12+042399999V0200701N000519999999N9999999N1+99999+99999999999ADDMA1999999097241MD1219999+9999OA149900361REMSYN070AAXX  09224 06687 43/// /0701 1//// 2//// 39724 52/// 333 91107 91203;
0081066870999992011110923004+47000+009217FM-12+042399999V0200801N000519999999N9999999N1+99999+99999999999ADDMA1999999097211REMSYN054AAXX  09234 06687 43/// /0801 1//// 2//// 39721 5////;
0122066870999992011111000004+47000+009217FM-12+042399999V0203601N000519999999N9999999N1+99999+99999999999ADDMA1999999097211MD1819999+9999OA149900361REMSYN070AAXX  10004 06687 43/// /3601 1//// 2//// 39721 58/// 333 91107 91204;
0122066870999992011111001004+47000+009217FM-12+042399999V0200501N000519999999N9999999N1+99999+99999999999ADDMA1999999097181MD1619999+9999OA149900151REMSYN070AAXX  10014 06687 43/// /0501 1//// 2//// 39718 56/// 333 91103 91201;
0081066870999992011111002004+47000+009217FM-12+042399999V0200601N000519999999N9999999N1+99999+99999999999ADDMA1999999097141REMSYN054AAXX  10024 06687 43/// /0601 1//// 2//// 39714 5////;
0081066870999992011111003004+47000+009217FM-12+042399999V0209999C000019999999N9999999N1+99999+99999999999ADDMA1999999097141REMSYN054AAXX  10034 06687 43/// /0000 1//// 2//// 39714 5////;
0122066870999992011111004004+47000+009217FM-12+042399999V0203401N000519999999N9999999N1+99999+99999999999ADDMA1999999097151MD1519999+9999OA149900151REMSYN070AAXX  10044 06687 43/// /3401 1//// 2//// 39715 55/// 333 91103 91201;
0122066870999992011111005004+47000+009217FM-12+042399999V0203001N000519999999N9999999N1+99999+99999999999ADDMA1999999097151MD1719999+9999OA149900361REMSYN070AAXX  10054 06687 43/// /3001 1//// 2//// 39715 57/// 333 91107 91203;
0081066870999992011111010004+47000+009217FM-12+042399999V0202601N003619999999N9999999N1+99999+99999999999ADDMA1999999097151REMSYN054AAXX  10104 06687 43/// /2607 1//// 2//// 39715 5////;
0081066870999992011111011004+47000+009217FM-12+042399999V0202701N006719999999N9999999N1+99999+99999999999ADDMA1999999097111REMSYN054AAXX  10114 06687 43/// /2713 1//// 2//// 39711 5////;
0081066870999992011111012004+47000+009217FM-12+042399999V0202601N004119999999N9999999N1+99999+99999999999ADDMA1999999097091REMSYN054AAXX  10124 06687 43/// /2608 1//// 2//// 39709 5////;
0081066870999992011111013004+47000+009217FM-12+042399999V0202701N005119999999N9999999N1+99999+99999999999ADDMA1999999097051REMSYN054AAXX  10134 06687 43/// /2710 1//// 2//// 39705 5////;
0081066870999992011111014004+47000+009217FM-12+042399999V0202601N004119999999N9999999N1+99999+99999999999ADDMA1999999097061REMSYN054AAXX  10144 06687 43/// /2608 1//// 2//// 39706 5////;
0081066870999992011111015004+47000+009217FM-12+042399999V0202701N003119999999N9999999N1+99999+99999999999ADDMA1999999097071REMSYN054AAXX  10154 06687 43/// /2706 1//// 2//// 39707 5////;
0081066870999992011111016004+47000+009217FM-12+042399999V0202601N002119999999N9999999N1+99999+99999999999ADDMA1999999097091REMSYN054AAXX  10164 06687 43/// /2604 1//// 2//// 39709 5////;
0081066870999992011111017004+47000+009217FM-12+042399999V0209999C000019999999N9999999N1+99999+99999999999ADDMA1999999097111REMSYN054AAXX  10174 06687 43/// /0000 1//// 2//// 39711 5////;
0081066870999992011111018004+47000+009217FM-12+042399999V0200901N002619999999N9999999N1+99999+99999999999ADDMA1999999097131REMSYN054AAXX  10184 06687 43/// /0905 1//// 2//// 39713 5////;
0081066870999992011111019004+47000+009217FM-12+042399999V0200901N002119999999N9999999N1+99999+99999999999ADDMA1999999097121REMSYN054AAXX  10194 06687 43/// /0904 1//// 2//// 39712 5////;
0081066870999992011111020004+47000+009217FM-12+042399999V0201101N003619999999N9999999N1+99999+99999999999ADDMA1999999097151REMSYN054AAXX  10204 06687 43/// /1107 1//// 2//// 39715 5////;
0081066870999992011111021004+47000+009217FM-12+042399999V0201001N003119999999N9999999N1+99999+99999999999ADDMA1999999097151REMSYN054AAXX  10214 06687 43/// /1006 1//// 2//// 39715 5////;
0081066870999992011111022004+47000+009217FM-12+042399999V0201801N001019999999N9999999N1+99999+99999999999ADDMA1999999097131REMSYN054AAXX  10224 06687 43/// /1802 1//// 2//// 39713 5////;
0081066870999992011111023004+47000+009217FM-12+042399999V0201801N001519999999N9999999N1+99999+99999999999ADDMA1999999097111REMSYN054AAXX  10234 06687 43/// /1803 1//// 2//// 39711 5////;
0122066870999992011111100004+47000+009217FM-12+042399999V0200901N001519999999N9999999N1+99999+99999999999ADDMA1999999097131MD1719999+9999OA149900571REMSYN070AAXX  11004 06687 43/// /0903 1//// 2//// 39713 57/// 333 91111 91208;
0081066870999992011111101004+47000+009217FM-12+042399999V0201301N000519999999N9999999N1+99999+99999999999ADDMA1999999097131REMSYN054AAXX  11014 06687 43/// /1301 1//// 2//// 39713 5////;
0081066870999992011111102004+47000+009217FM-12+042399999V0201101N002119999999N9999999N1+99999+99999999999ADDMA1999999097131REMSYN054AAXX  11024 06687 43/// /1104 1//// 2//// 39713 5////;
0081066870999992011111103004+47000+009217FM-12+042399999V0200901N002619999999N9999999N1+99999+99999999999ADDMA1999999097121REMSYN054AAXX  11034 06687 43/// /0905 1//// 2//// 39712 5////;
0122066870999992011111104004+47000+009217FM-12+042399999V0201101N001519999999N9999999N1+99999+99999999999ADDMA1999999097111MD1819999+9999OA149900361REMSYN070AAXX  11044 06687 43/// /1103 1//// 2//// 39711 58/// 333 91107 91204;
0122066870999992011111105004+47000+009217FM-12+042399999V0201801N001019999999N9999999N1+99999+99999999999ADDMA1999999097121MD1519999+9999OA149900261REMSYN070AAXX  11054 06687 43/// /1802 1//// 2//// 39712 55/// 333 91105 91202;
0122066870999992011111106004+47000+009217FM-12+042399999V0201101N002119999999N9999999N1+99999+99999999999ADDMA1999999097171MD1319999+9999OA149900461REMSYN070AAXX  11064 06687 43/// /1104 1//// 2//// 39717 53/// 333 91109 91206;
0081066870999992011111107004+47000+009217FM-12+042399999V0201001N001519999999N9999999N1+99999+99999999999ADDMA1999999097211REMSYN054AAXX  11074 06687 43/// /1003 1//// 2//// 39721 5////;
0081066870999992011111108004+47000+009217FM-12+042399999V0201001N001519999999N9999999N1+99999+99999999999ADDMA1999999097241REMSYN054AAXX  11084 06687 43/// /1003 1//// 2//// 39724 5////;
0081066870999992011111109004+47000+009217FM-12+042399999V0201301N001519999999N9999999N1+99999+99999999999ADDMA1999999097231REMSYN054AAXX  11094 06687 43/// /1303 1//// 2//// 39723 5////;
0081066870999992011111110004+47000+009217FM-12+042399999V0202401N001019999999N9999999N1+99999+99999999999ADDMA1999999097241REMSYN054AAXX  11104 06687 43/// /2402 1//// 2//// 39724 5////;
0122066870999992011111111004+47000+009217FM-12+042399999V0202601N001519999999N9999999N1+99999+99999999999ADDMA1999999097231MD1719999+9999OA149900311REMSYN070AAXX  11114 06687 43/// /2603 1//// 2//// 39723 57/// 333 91106 91204;
0081066870999992011111112004+47000+009217FM-12+042399999V0202701N004119999999N9999999N1+99999+99999999999ADDMA1999999097181REMSYN054AAXX  11124 06687 43/// /2708 1//// 2//// 39718 5////;
0081066870999992011111113004+47000+009217FM-12+042399999V0202701N005719999999N9999999N1+99999+99999999999ADDMA1999999097201REMSYN054AAXX  11134 06687 43/// /2711 1//// 2//// 39720 5////;
0081066870999992011111114004+47000+009217FM-12+042399999V0202801N004619999999N9999999N1+99999+99999999999ADDMA1999999097241REMSYN054AAXX  11144 06687 43/// /2809 1//// 2//// 39724 5////;
0122066870999992011111115004+47000+009217FM-12+042399999V0202801N001519999999N9999999N1+99999+99999999999ADDMA1999999097291MD1219999+9999OA149900821REMSYN070AAXX  11154 06687 43/// /2803 1//// 2//// 39729 52/// 333 91116 91211;
0122066870999992011111116004+47000+009217FM-12+042399999V0200901N000519999999N9999999N1+99999+99999999999ADDMA1999999097321MD1319999+9999OA149900151REMSYN070AAXX  11164 06687 43/// /0901 1//// 2//// 39732 53/// 333 91103 91202;
0081066870999992011111117004+47000+009217FM-12+042399999V0200501N001019999999N9999999N1+99999+99999999999ADDMA1999999097371REMSYN054AAXX  11174 06687 43/// /0502 1//// 2//// 39737 5////;
0122066870999992011111118004+47000+009217FM-12+042399999V0203501N001019999999N9999999N1+99999+99999999999ADDMA1999999097441MD1319999+9999OA149900821REMSYN070AAXX  11184 06687 43/// /3502 1//// 2//// 39744 53/// 333 91116 91211;
0122066870999992011111119004+47000+009217FM-12+042399999V0203601N000519999999N9999999N1+99999+99999999999ADDMA1999999097501MD1319999+9999OA149900211REMSYN070AAXX  11194 06687 43/// /3601 1//// 2//// 39750 53/// 333 91104 91203;
0081066870999992011111120004+47000+009217FM-12+042399999V0200601N000519999999N9999999N1+99999+99999999999ADDMA1999999097551REMSYN054AAXX  11204 06687 43/// /0601 1//// 2//// 39755 5////;
0081066870999992011111121004+47000+009217FM-12+042399999V0200401N000519999999N9999999N1+99999+99999999999ADDMA1999999097591REMSYN054AAXX  11214 06687 43/// /0401 1//// 2//// 39759 5////;
0122066870999992011111122004+47000+009217FM-12+042399999V0200401N000519999999N9999999N1+99999+99999999999ADDMA1999999097641MD1119999+9999OA149900151REMSYN070AAXX  11224 06687 43/// /0401 1//// 2//// 39764 51/// 333 91103 91201;
0081066870999992011111123004+47000+009217FM-12+042399999V0203401N000519999999N9999999N1+99999+99999999999ADDMA1999999097701REMSYN054AAXX  11234 06687 43/// /3401 1//// 2//// 39770 5////;
0081066870999992011111200004+47000+009217FM-12+042399999V0209999C000019999999N9999999N1+99999+99999999999ADDMA1999999097751REMSYN054AAXX  12004 06687 43/// /0000 1//// 2//// 39775 5////;
0081066870999992011111201004+47000+009217FM-12+042399999V0200601N000519999999N9999999N1+99999+99999999999ADDMA1999999097831REMSYN054AAXX  12014 06687 43/// /0601 1//// 2//// 39783 5////;
0081066870999992011111202004+47000+009217FM-12+042399999V0200501N001019999999N9999999N1+99999+99999999999ADDMA1999999097861REMSYN054AAXX  12024 06687 43/// /0502 1//// 2//// 39786 5////;
0081066870999992011111203004+47000+009217FM-12+042399999V0203501N000519999999N9999999N1+99999+99999999999ADDMA1999999097891REMSYN054AAXX  12034 06687 43/// /3501 1//// 2//// 39789 5////;
0081066870999992011111204004+47000+009217FM-12+042399999V0200701N000519999999N9999999N1+99999+99999999999ADDMA1999999097941REMSYN054AAXX  12044 06687 43/// /0701 1//// 2//// 39794 5////;
0081066870999992011111205004+47000+009217FM-12+042399999V0200801N000519999999N9999999N1+99999+99999999999ADDMA1999999097981REMSYN054AAXX  12054 06687 43/// /0801 1//// 2//// 39798 5////;
0081066870999992011111206004+47000+009217FM-12+042399999V0201301N000519999999N9999999N1+99999+99999999999ADDMA1999999098001REMSYN054AAXX  12064 06687 43/// /1301 1//// 2//// 39800 5////;
0081066870999992011111207004+47000+009217FM-12+042399999V0200901N001519999999N9999999N1+99999+99999999999ADDMA1999999098071REMSYN054AAXX  12074 06687 43/// /0903 1//// 2//// 39807 5////;
0081066870999992011111208004+47000+009217FM-12+042399999V0201001N001519999999N9999999N1+99999+99999999999ADDMA1999999098111REMSYN054AAXX  12084 06687 43/// /1003 1//// 2//// 39811 5////;
0081066870999992011111209004+47000+009217FM-12+042399999V0201101N001519999999N9999999N1+99999+99999999999ADDMA1999999098101REMSYN054AAXX  12094 06687 43/// /1103 1//// 2//// 39810 5////;
0081066870999992011111210004+47000+009217FM-12+042399999V0201101N002119999999N9999999N1+99999+99999999999ADDMA1999999098081REMSYN054AAXX  12104 06687 43/// /1104 1//// 2//// 39808 5////;
0081066870999992011111211004+47000+009217FM-12+042399999V0202601N002619999999N9999999N1+99999+99999999999ADDMA1999999098031REMSYN054AAXX  12114 06687 43/// /2605 1//// 2//// 39803 5////;
0081066870999992011111212004+47000+009217FM-12+042399999V0202601N003119999999N9999999N1+99999+99999999999ADDMA1999999097961REMSYN054AAXX  12124 06687 43/// /2606 1//// 2//// 39796 5////;
0081066870999992011111213004+47000+009217FM-12+042399999V0202701N004619999999N9999999N1+99999+99999999999ADDMA1999999097911REMSYN054AAXX  12134 06687 43/// /2709 1//// 2//// 39791 5////;
0081066870999992011111214004+47000+009217FM-12+042399999V0202701N004619999999N9999999N1+99999+99999999999ADDMA1999999097931REMSYN054AAXX  12144 06687 43/// /2709 1//// 2//// 39793 5////;
0081066870999992011111215004+47000+009217FM-12+042399999V0202701N002619999999N9999999N1+99999+99999999999ADDMA1999999097991REMSYN054AAXX  12154 06687 43/// /2705 1//// 2//// 39799 5////;
0081066870999992011111216004+47000+009217FM-12+042399999V0203501N000519999999N9999999N1+99999+99999999999ADDMA1999999098011REMSYN054AAXX  12164 06687 43/// /3501 1//// 2//// 39801 5////;
0081066870999992011111217004+47000+009217FM-12+042399999V0200801N000519999999N9999999N1+99999+99999999999ADDMA1999999098051REMSYN054AAXX  12174 06687 43/// /0801 1//// 2//// 39805 5////;
0081066870999992011111218004+47000+009217FM-12+042399999V0209999C000019999999N9999999N1+99999+99999999999ADDMA1999999098091REMSYN054AAXX  12184 06687 43/// /0000 1//// 2//// 39809 5////;
0081066870999992011111219004+47000+009217FM-12+042399999V0200901N001019999999N9999999N1+99999+99999999999ADDMA1999999098121REMSYN054AAXX  12194 06687 43/// /0902 1//// 2//// 39812 5////;
0081066870999992011111220004+47000+009217FM-12+042399999V0202701N000519999999N9999999N1+99999+99999999999ADDMA1999999098121REMSYN054AAXX  12204 06687 43/// /2701 1//// 2//// 39812 5////;
0081066870999992011111221004+47000+009217FM-12+042399999V0200401N000519999999N9999999N1+99999+99999999999ADDMA1999999098111REMSYN054AAXX  12214 06687 43/// /0401 1//// 2//// 39811 5////;
0081066870999992011111222004+47000+009217FM-12+042399999V0200501N000519999999N9999999N1+99999+99999999999ADDMA1999999098101REMSYN054AAXX  12224 06687 43/// /0501 1//// 2//// 39810 5////;
0081066870999992011111223004+47000+009217FM-12+042399999V0203401N001019999999N9999999N1+99999+99999999999ADDMA1999999098091REMSYN054AAXX  12234 06687 43/// /3402 1//// 2//// 39809 5////;
0081066870999992011111300004+47000+009217FM-12+042399999V0203401N001019999999N9999999N1+99999+99999999999ADDMA1999999098081REMSYN054AAXX  13004 06687 43/// /3402 1//// 2//// 39808 5////;
0081066870999992011111301004+47000+009217FM-12+042399999V0200501N000519999999N9999999N1+99999+99999999999ADDMA1999999098061REMSYN054AAXX  13014 06687 43/// /0501 1//// 2//// 39806 5////;
0081066870999992011111302004+47000+009217FM-12+042399999V0200501N000519999999N9999999N1+99999+99999999999ADDMA1999999098041REMSYN054AAXX  13024 06687 43/// /0501 1//// 2//// 39804 5////;
0081066870999992011111303004+47000+009217FM-12+042399999V0203501N000519999999N9999999N1+99999+99999999999ADDMA1999999098011REMSYN054AAXX  13034 06687 43/// /3501 1//// 2//// 39801 5////;
0081066870999992011111304004+47000+009217FM-12+042399999V0202901N001019999999N9999999N1+99999+99999999999ADDMA1999999098041REMSYN054AAXX  13044 06687 43/// /2902 1//// 2//// 39804 5////;
0081066870999992011111305004+47000+009217FM-12+042399999V0203301N001019999999N9999999N1+99999+99999999999ADDMA1999999098081REMSYN054AAXX  13054 06687 43/// /3302 1//// 2//// 39808 5////;
0081066870999992011111306004+47000+009217FM-12+042399999V0200201N000519999999N9999999N1+99999+99999999999ADDMA1999999098121REMSYN054AAXX  13064 06687 43/// /0201 1//// 2//// 39812 5////;
0122066870999992011111307004+47000+009217FM-12+042399999V0200801N001519999999N9999999N1+99999+99999999999ADDMA1999999098181MD1219999+9999OA149900261REMSYN070AAXX  13074 06687 43/// /0803 1//// 2//// 39818 52/// 333 91105 91202;
0122066870999992011111308004+47000+009217FM-12+042399999V0201001N001519999999N9999999N1+99999+99999999999ADDMA1999999098221MD1219999+9999OA149900311REMSYN070AAXX  13084 06687 43/// /1003 1//// 2//// 39822 52/// 333 91106 91204;
0122066870999992011111309004+47000+009217FM-12+042399999V0200901N001519999999N9999999N1+99999+99999999999ADDMA1999999098201MD1219999+9999OA149900311REMSYN070AAXX  13094 06687 43/// /0903 1//// 2//// 39820 52/// 333 91106 91204;
0081066870999992011111310004+47000+009217FM-12+042399999V0201201N001519999999N9999999N1+99999+99999999999ADDMA1999999098151REMSYN054AAXX  13104 06687 43/// /1203 1//// 2//// 39815 5////;
0122066870999992011111311004+47000+009217FM-12+042399999V0201201N001019999999N9999999N1+99999+99999999999ADDMA1999999098101MD1719999+9999OA149900261REMSYN070AAXX  13114 06687 43/// /1202 1//// 2//// 39810 57/// 333 91105 91203;
0081066870999992011111312004+47000+009217FM-12+042399999V0201301N000519999999N9999999N1+99999+99999999999ADDMA1999999098031REMSYN054AAXX  13124 06687 43/// /1301 1//// 2//// 39803 5////;
0081066870999992011111313004+47000+009217FM-12+042399999V0201301N001019999999N9999999N1+99999+99999999999ADDMA1999999098031REMSYN054AAXX  13134 06687 43/// /1302 1//// 2//// 39803 5////;
0081066870999992011111314004+47000+009217FM-12+042399999V0202601N002619999999N9999999N1+99999+99999999999ADDMA1999999098051REMSYN054AAXX  13144 06687 43/// /2605 1//// 2//// 39805 5////;
0081066870999992011111315004+47000+009217FM-12+042399999V0201001N003619999999N9999999N1+99999+99999999999ADDMA1999999098081REMSYN054AAXX  13154 06687 43/// /1007 1//// 2//// 39808 5////;
0122066870999992011111316004+47000+009217FM-12+042399999V0200901N003619999999N9999999N1+99999+99999999999ADDMA1999999098111MD1319999+9999OA149900571REMSYN070AAXX  13164 06687 43/// /0907 1//// 2//// 39811 53/// 333 91111 91207;
0122066870999992011111317004+47000+009217FM-12+042399999V0200901N003619999999N9999999N1+99999+99999999999ADDMA1999999098111MD1119999+9999OA149900511REMSYN070AAXX  13174 06687 43/// /0907 1//// 2//// 39811 51/// 333 91110 91207;
0122066870999992011111318004+47000+009217FM-12+042399999V0200901N003119999999N9999999N1+99999+99999999999ADDMA1999999098081MD1019999+9999OA149900571REMSYN070AAXX  13184 06687 43/// /0906 1//// 2//// 39808 50/// 333 91111 91207;
0122066870999992011111319004+47000+009217FM-12+042399999V0200901N003619999999N9999999N1+99999+99999999999ADDMA1999999098061MD1819999+9999OA149900671REMSYN070AAXX  13194 06687 43/// /0907 1//// 2//// 39806 58/// 333 91113 91207;
0122066870999992011111320004+47000+009217FM-12+042399999V0200801N001519999999N9999999N1+99999+99999999999ADDMA1999999098021MD1819999+9999OA149900461REMSYN070AAXX  13204 06687 43/// /0803 1//// 2//// 39802 58/// 333 91109 91207;
0081066870999992011111321004+47000+009217FM-12+042399999V0200201N000519999999N9999999N1+99999+99999999999ADDMA1999999097991REMSYN054AAXX  13214 06687 43/// /0201 1//// 2//// 39799 5////;
0081066870999992011111322004+47000+009217FM-12+042399999V0203501N001019999999N9999999N1+99999+99999999999ADDMA1999999097951REMSYN054AAXX  13224 06687 43/// /3502 1//// 2//// 39795 5////;
0122066870999992011111323004+47000+009217FM-12+042399999V0203301N001019999999N9999999N1+99999+99999999999ADDMA1999999097951MD1719999+9999OA149900261REMSYN070AAXX  13234 06687 43/// /3302 1//// 2//// 39795 57/// 333 91105 91203;
0081066870999992011111400004+47000+009217FM-12+042399999V0203601N000519999999N9999999N1+99999+99999999999ADDMA1999999097931REMSYN054AAXX  14004 06687 43/// /3601 1//// 2//// 39793 5////;
0081066870999992011111401004+47000+009217FM-12+042399999V0203101N001019999999N9999999N1+99999+99999999999ADDMA1999999097961REMSYN054AAXX  14014 06687 43/// /3102 1//// 2//// 39796 5////;
0081066870999992011111402004+47000+009217FM-12+042399999V0201001N002619999999N9999999N1+99999+99999999999ADDMA1999999097951REMSYN054AAXX  14024 06687 43/// /1005 1//// 2//// 39795 5////;
0081066870999992011111403004+47000+009217FM-12+042399999V0200901N002619999999N9999999N1+99999+99999999999ADDMA1999999097891REMSYN054AAXX  14034 06687 43/// /0905 1//// 2//// 39789 5////;
0081066870999992011111404004+47000+009217FM-12+042399999V0201001N003119999999N9999999N1+99999+99999999999ADDMA1999999097851REMSYN054AAXX  14044 06687 43/// /1006 1//// 2//// 39785 5////;
0122066870999992011111405004+47000+009217FM-12+042399999V0201101N001519999999N9999999N1+99999+99999999999ADDMA1999999097801MD1619999+9999OA149900411REMSYN070AAXX  14054 06687 43/// /1103 1//// 2//// 39780 56/// 333 91108 91206;
0081066870999992011111406004+47000+009217FM-12+042399999V0203601N001019999999N9999999N1+99999+99999999999ADDMA1999999097781REMSYN054AAXX  14064 06687 43/// /3602 1//// 2//// 39778 5////;
0081066870999992011111407004+47000+009217FM-12+042399999V0203501N000519999999N9999999N1+99999+99999999999ADDMA1999999097761REMSYN054AAXX  14074 06687 43/// /3501 1//// 2//// 39776 5////;
0081066870999992011111408004+47000+009217FM-12+042399999V0201501N000519999999N9999999N1+99999+99999999999ADDMA1999999097701REMSYN054AAXX  14084 06687 43/// /1501 1//// 2//// 39770 5////;
0081066870999992011111409004+47000+009217FM-12+042399999V0202301N000519999999N9999999N1+99999+99999999999ADDMA1999999097671REMSYN054AAXX  14094 06687 43/// /2301 1//// 2//// 39767 5////;
0081066870999992011111410004+47000+009217FM-12+042399999V0202701N005119999999N9999999N1+99999+99999999999ADDMA1999999097651REMSYN054AAXX  14104 06687 43/// /2710 1//// 2//// 39765 5////;
