0149066810999992011010100004+47433+009400FM-12+079199999V0202601N000519999999N9999999N1-00101-00191999999ADDMA1999999092981MD1810111+9999ME1314879OA149900361REMSYN088AAXX  01004 06681 33/// /2601 11010 21019 39298 48487 58011 333 55300 20000 91107 91205;
0149066810999992011010101004+47433+009400FM-12+079199999V0202001N001519999999N9999999N1-00111-00211999999ADDMA1999999092921MD1810161+9999ME1314829OA149900311REMSYN088AAXX  01014 06681 33/// /2003 11011 21021 39292 48482 58016 333 55300 20000 91106 91203;
0149066810999992011010102004+47433+009400FM-12+079199999V0202001N001519999999N9999999N1-00111-00201999999ADDMA1999999092911MD1610121+9999ME1314819OA149900311REMSYN088AAXX  01024 06681 33/// /2003 11011 21020 39291 48481 56012 333 55300 20000 91106 91203;
0149066810999992011010103004+47433+009400FM-12+079199999V0202501N001019999999N9999999N1-00131-00191999999ADDMA1999999092891MD1610091+9999ME1314799OA149900311REMSYN088AAXX  01034 06681 33/// /2502 11013 21019 39289 48479 56009 333 55300 20000 91106 91203;
0149066810999992011010104004+47433+009400FM-12+079199999V0203401N001519999999N9999999N1-00161-00231999999ADDMA1999999092901MD1510021+9999ME1314799OA149900261REMSYN088AAXX  01044 06681 33/// /3403 11016 21023 39290 48479 55002 333 55300 20000 91105 91203;
0149066810999992011010105004+47433+009400FM-12+079199999V0201501N001019999999N9999999N1-00101-00211999999ADDMA1999999092901MD1510011+9999ME1314819OA149900261REMSYN088AAXX  01054 06681 33/// /1502 11010 21021 39290 48481 55001 333 55300 20000 91105 91203;
0327066810999992011010106004+47433+009400FM-12+079199999V0202301N001010006019N0009001N1-00151-00251999999ADDAJ100079199999999AL19900091AY141061AY241061GA1091+999999999GF109991091999999999999999GJ100009IA1279IA2999-00209KA1999N-00161MA1999999092911MD1210021+9999ME1314809MW1401OA149900311REMSYN136AAXX  01064 06681 31/09 92302 11015 21025 39291 48480 52002 74044 333 21016 3/102 43007 55000 55300 20000 70000 90768 93100 91106 91203;
0149066810999992011010107004+47433+009400FM-12+079199999V0201701N002119999999N9999999N1-00201-00331999999ADDMA1999999092921MD1210021+9999ME1314809OA149900411REMSYN088AAXX  01074 06681 33/// /1704 11020 21033 39292 48480 52002 333 55300 20000 91108 91204;
0149066810999992011010108004+47433+009400FM-12+079199999V0201901N001019999999N9999999N1-00211-00341999999ADDMA1999999092961MD1219999+9999ME1314839OA149900411REMSYN088AAXX  01084 06681 33/// /1902 11021 21034 39296 48483 52/// 333 55300 20025 91108 91204;
0166066810999992011010109004+47433+009400FM-12+079199999V0201501N002110006019N0009001N1-00181-00331999999ADDAY141031AY241031GA1091+999999999GF109991091999999999999999MA1999999092961ME1314839MW1401REMSYN066AAXX  01094 06681 41/09 91504 11018 21033 39296 48483 5//// 74044;
0096066810999992011010110004+47433+009400FM-12+079199999V0201701N000519999999N9999999N1-00191-00361999999ADDMA1999999092941ME1314829REMSYN060AAXX  01104 06681 43/// /1701 11019 21036 39294 48482 5////;
0149066810999992011010111004+47433+009400FM-12+079199999V0201701N002119999999N9999999N1-00091-00271999999ADDMA1999999092891MD1710071+9999ME1314809OA149900461REMSYN088AAXX  01114 06681 33/// /1704 11009 21027 39289 48480 57007 333 55300 20418 91109 91205;
0176066810999992011010112004+47433+009400FM-12+079199999V0202901N001010141019N0010001N1-00111-00291999999ADDAY141061AY221061GA1071+014101061GF107991999999012501999999MA1999999092821ME1314749MW1011REMSYN076AAXX  01124 06681 41610 72902 11011 21029 39282 48474 5//// 70142 333 87647;
0096066810999992011010113004+47433+009400FM-12+079199999V0202701N001519999999N9999999N1-00111-00271999999ADDMA1999999092781ME1314709REMSYN060AAXX  01134 06681 43/// /2703 11011 21027 39278 48470 5////;
0096066810999992011010114004+47433+009400FM-12+079199999V0201901N000519999999N9999999N1-00071-00231999999ADDMA1999999092751ME1314699REMSYN060AAXX  01144 06681 43/// /1901 11007 21023 39275 48469 5////;
0176066810999992011010115004+47433+009400FM-12+079199999V0202301N000510099019N0030001N1-00041-00231999999ADDAY141031AY221031GA1081+009901061GF108991999999008001999999MA1999999092771ME1314719MW1101REMSYN076AAXX  01154 06681 41530 82301 11004 21023 39277 48471 5//// 71042 333 88633;
0096066810999992011010116004+47433+009400FM-12+079199999V0203401N001019999999N9999999N1-00081-00221999999ADDMA1999999092801ME1314739REMSYN060AAXX  01164 06681 43/// /3402 11008 21022 39280 48473 5////;
0096066810999992011010117004+47433+009400FM-12+079199999V0200301N001519999999N9999999N1-00091-00211999999ADDMA1999999092811ME1314739REMSYN060AAXX  01174 06681 43/// /0303 11009 21021 39281 48473 5////;
0227066810999992011010118004+47433+009400FM-12+079199999V0209999C000010099019N0020001N1-00091-00241999999ADDAJ100079199999999AL10600091AY121061AY221061GA1081+009901071GF108991999999008001999999IA1279MA1999999092791ME1314729MW1101REMSYN094AAXX  01184 06681 41520 80000 11009 21024 39279 48472 5//// 71022 333 43007 88733 90766 93100;
0112066810999992011010119004+47433+009400FM-12+079199999V0202701N000519999999N9999999N1-00091-00261999999ADDMA1999999092791ME1314729REMSYN076AAXX  01194 06681 33/// /2701 11009 21026 39279 48472 5//// 333 553// 20000;
0149066810999992011010120004+47433+009400FM-12+079199999V0203101N001019999999N9999999N1-00101-00241999999ADDMA1999999092811MD1510001+9999ME1314739OA149900261REMSYN088AAXX  01204 06681 33/// /3102 11010 21024 39281 48473 55000 333 55300 20000 91105 91203;
0149066810999992011010121004+47433+009400FM-12+079199999V0201001N000519999999N9999999N1-00141-00171999999ADDMA1999999092781MD1810011+9999ME1314699OA149900311REMSYN088AAXX  01214 06681 33/// /1001 11014 21017 39278 48469 58001 333 55300 20000 91106 91203;
0149066810999992011010122004+47433+009400FM-12+079199999V0200201N001519999999N9999999N1-00161-00171999999ADDMA1999999092751MD1710041+9999ME1314669OA149900261REMSYN088AAXX  01224 06681 33/// /0203 11016 21017 39275 48466 57004 333 55300 20000 91105 91203;
0149066810999992011010123004+47433+009400FM-12+079199999V0200301N001519999999N9999999N1-00181-00191999999ADDMA1999999092731MD1710081+9999ME1314649OA149900261REMSYN088AAXX  01234 06681 33/// /0303 11018 21019 39273 48464 57008 333 55300 20000 91105 91203;
0149066810999992011010200004+47433+009400FM-12+079199999V0209999C000519999999N9999999N1-00191-00221999999ADDMA1999999092681MD1810101+9999ME1314609OA149900311REMSYN088AAXX  02004 06681 33/// /0001 11019 21022 39268 48460 58010 333 55300 20000 91106 91203;
0149066810999992011010201004+47433+009400FM-12+079199999V0200201N000519999999N9999999N1-00181-00231999999ADDMA1999999092641MD1810111+9999ME1314569OA149900211REMSYN088AAXX  02014 06681 33/// /0201 11018 21023 39264 48456 58011 333 55300 20000 91104 91203;
0096066810999992011010202004+47433+009400FM-12+079199999V0203201N001019999999N9999999N1-00201-00251999999ADDMA1999999092681ME1314599REMSYN060AAXX  02024 06681 43/// /3202 11020 21025 39268 48459 5////;
0096066810999992011010203004+47433+009400FM-12+079199999V0202601N000519999999N9999999N1-00191-00261999999ADDMA1999999092681ME1314609REMSYN060AAXX  02034 06681 43/// /2601 11019 21026 39268 48460 5////;
0096066810999992011010204004+47433+009400FM-12+079199999V0202501N001019999999N9999999N1-00161-00251999999ADDMA1999999092691ME1314619REMSYN060AAXX  02044 06681 43/// /2502 11016 21025 39269 48461 5////;
0096066810999992011010205004+47433+009400FM-12+079199999V0202701N001019999999N9999999N1-00181-00361999999ADDMA1999999092711ME1314629REMSYN060AAXX  02054 06681 43/// /2702 11018 21036 39271 48462 5////;
0278066810999992011010206004+47433+009400FM-12+079199999V0201801N000510006019N0001001N1-00201-00281999999ADDAJ100079199999999AL10600091AY151061AY221061GA1081+000601071GF108991999999000751999999GJ100069IA1279IA2999-00309KA1999N-00211MA1999999092711ME1314629MW1581REMSYN112AAXX  02064 06681 41101 81801 11020 21028 39271 48462 5//// 75852 333 21021 3/103 43007 55001 88702 90768 93100;
0149066810999992011010207004+47433+009400FM-12+079199999V0203001N001019999999N9999999N1-00211-00321999999ADDMA1999999092731MD1310041+9999ME1314639OA149900211REMSYN088AAXX  02074 06681 33/// /3002 11021 21032 39273 48463 53004 333 55300 20000 91104 91203;
0155066810999992011010208004+47433+009400FM-12+079199999V0203101N001019999999N9999999N1-00211-00291999999ADDMA1999999092781MD1310071+9999ME1314689OA149900211REMSYN094AAXX  02084 06681 23/// /3102 11021 21029 39278 48468 53007 333 55300 20014 69925 91104 91203;
0231066810999992011010209004+47433+009400FM-12+079199999V0202801N00101000301CN0001001N1-00201-00281999999ADDAY171031AY271031GA1081+000301071GF108991999999000251999999MA1999999092821MD1310111+9999ME1314719MW1711OA149900361REMSYN106AAXX  02094 06681 21001 82802 11020 21028 39282 48471 53011 77177 333 55300 20076 69925 88701 91107 91204;
0155066810999992011010210004+47433+009400FM-12+079199999V0203401N002119999999N9999999N1-00201-00281999999ADDMA1999999092851MD1310121+9999ME1314749OA149900411REMSYN094AAXX  02104 06681 23/// /3404 11020 21028 39285 48474 53012 333 55300 20166 69935 91108 91204;
0149066810999992011010211004+47433+009400FM-12+079199999V0200101N001519999999N9999999N1-00191-00271999999ADDMA1999999092851MD1210071+9999ME1314749OA149900511REMSYN088AAXX  02114 06681 33/// /0103 11019 21027 39285 48474 52007 333 55300 20151 91110 91205;
0172066810999992011010212004+47433+009400FM-12+079199999V0200301N003619999999N9999999N1-00201-00301999999ADDAA106000891MA1999999092831MD1010011+9999ME1314729OA149900621REMSYN100AAXX  02124 06681 03/// /0307 11020 21030 39283 48472 50001 69971 333 55300 20241 60005 91112 91207;
0155066810999992011010213004+47433+009400FM-12+079199999V0200201N003119999999N9999999N1-00241-00411999999ADDMA1999999092841MD1710011+9999ME1314729OA149900671REMSYN094AAXX  02134 06681 23/// /0206 11024 21041 39284 48472 57001 333 55300 20155 69915 91113 91207;
0112066810999992011010214004+47433+009400FM-12+079199999V0200701N002619999999N9999999N1-00261-00641999999ADDMA1999999092871ME1314749REMSYN076AAXX  02144 06681 33/// /0705 11026 21064 39287 48474 5//// 333 553// 20234;
0149066810999992011010215004+47433+009400FM-12+079199999V0201201N001019999999N9999999N1-00271-00601999999ADDMA1999999092911MD1310081+9999ME1314779OA149900671REMSYN088AAXX  02154 06681 33/// /1202 11027 21060 39291 48477 53008 333 55300 20180 91113 91207;
0149066810999992011010216004+47433+009400FM-12+079199999V0201601N000519999999N9999999N1-00281-00531999999ADDMA1999999092941MD1110101+9999ME1314799OA149900411REMSYN088AAXX  02164 06681 33/// /1601 11028 21053 39294 48479 51010 333 55300 20032 91108 91204;
0149066810999992011010217004+47433+009400FM-12+079199999V0201501N000519999999N9999999N1-00261-00491999999ADDMA1999999092981MD1110111+9999ME1314839OA149900151REMSYN088AAXX  02174 06681 33/// /1501 11026 21049 39298 48483 51011 333 55300 20000 91103 91202;
0318066810999992011010218004+47433+009400FM-12+079199999V0200701N00151012001CN0040001N1-00281-00491999999ADDAA112000891AJ100089199999999AL11200291AY121061AY221061GA1071+012001061GF107991999999012501999999IA1279KA1120M-00181MA1999999092991MD1110081+9999ME1314839MW1101OA149900671REMSYN136AAXX  02184 06681 01640 70703 11028 21049 39299 48483 51008 69982 71022 333 11018 43008 55300 20000 60005 87640 90766 93102 91113 91207;
0149066810999992011010219004+47433+009400FM-12+079199999V0200501N001019999999N9999999N1-00321-00461999999ADDMA1999999093021MD1310081+9999ME1314859OA149900261REMSYN088AAXX  02194 06681 33/// /0502 11032 21046 39302 48485 53008 333 55300 20000 91105 91203;
0149066810999992011010220004+47433+009400FM-12+079199999V0201001N001519999999N9999999N1-00391-00591999999ADDMA1999999093031MD1210051+9999ME1314849OA149900311REMSYN088AAXX  02204 06681 33/// /1003 11039 21059 39303 48484 52005 333 55300 20000 91106 91203;
0149066810999992011010221004+47433+009400FM-12+079199999V0201001N001519999999N9999999N1-00431-00701999999ADDMA1999999093061MD1210071+9999ME1314859OA149900311REMSYN088AAXX  02214 06681 33/// /1003 11043 21070 39306 48485 52007 333 55300 20000 91106 91203;
0149066810999992011010222004+47433+009400FM-12+079199999V0200901N001519999999N9999999N1-00441-00631999999ADDMA1999999093081MD1210061+9999ME1314869OA149900261REMSYN088AAXX  02224 06681 33/// /0903 11044 21063 39308 48486 52006 333 55300 20000 91105 91203;
0149066810999992011010223004+47433+009400FM-12+079199999V0201101N001019999999N9999999N1-00511-00681999999ADDMA1999999093071MD1010041+9999ME1314849OA149900261REMSYN088AAXX  02234 06681 33/// /1102 11051 21068 39307 48484 50004 333 55300 20000 91105 91203;
0149066810999992011010300004+47433+009400FM-12+079199999V0201001N000519999999N9999999N1-00511-00671999999ADDMA1999999093081MD1210021+9999ME1314859OA149900671REMSYN088AAXX  03004 06681 33/// /1001 11051 21067 39308 48485 52002 333 55300 20000 91113 91207;
0149066810999992011010301004+47433+009400FM-12+079199999V0201201N001519999999N9999999N1-00521-00761999999ADDMA1999999093051MD1710031+9999ME1314829OA149900211REMSYN088AAXX  03014 06681 33/// /1203 11052 21076 39305 48482 57003 333 55300 20000 91104 91203;
0149066810999992011010302004+47433+009400FM-12+079199999V0201301N003619999999N9999999N1-00511-00901999999ADDMA1999999093041MD1719999+9999ME1314819OA149900461REMSYN088AAXX  03024 06681 33/// /1307 11051 21090 39304 48481 57/// 333 55300 20000 91109 91207;
0096066810999992011010303004+47433+009400FM-12+079199999V0201301N001019999999N9999999N1-00541-00951999999ADDMA1999999093031ME1314809REMSYN060AAXX  03034 06681 43/// /1302 11054 21095 39303 48480 5////;
0149066810999992011010304004+47433+009400FM-12+079199999V0200801N001519999999N9999999N1-00671-00861999999ADDMA1999999093031MD1710021+9999ME1314769OA149900461REMSYN088AAXX  03044 06681 33/// /0803 11067 21086 39303 48476 57002 333 55300 20000 91109 91207;
0149066810999992011010305004+47433+009400FM-12+079199999V0201101N000519999999N9999999N1-00691-00901999999ADDMA1999999093031MD1410001+9999ME1314769OA149900261REMSYN088AAXX  03054 06681 33/// /1101 11069 21090 39303 48476 54001 333 55300 20000 91105 91203;
0315066810999992011010306004+47433+009400FM-12+079199999V0201901N000512200019N0150001N1-00721-00931999999ADDAJ100089199999999AL14800091AL29900291GA1011+012001061GF101991999999012501999999GJ100009IA1279IA2999-01309KA1999N-00701MA1999999093041MD1210011+9999ME1314769OA149900461REMSYN136AAXX  03064 06681 32665 11901 11072 21093 39304 48476 52001 333 21070 3/113 43008 55000 55300 20000 70008 81640 90768 93102 91109 91207;
0149066810999992011010307004+47433+009400FM-12+079199999V0200501N000519999999N9999999N1-00691-00781999999ADDMA1999999093041MD1210011+9999ME1314769OA149900151REMSYN088AAXX  03074 06681 33/// /0501 11069 21078 39304 48476 52001 333 55300 20000 91103 91202;
0149066810999992011010308004+47433+009400FM-12+079199999V0201201N000519999999N9999999N1-00621-00741999999ADDMA1999999093051MD1219999+9999ME1314799OA149900261REMSYN088AAXX  03084 06681 33/// /1201 11062 21074 39305 48479 52/// 333 55300 20050 91105 91203;
0144066810999992011010309004+47433+009400FM-12+079199999V0201801N000512200019N0100001N1-00651-00811999999ADDGF101991999999012501999999MA1999999093051ME1314789REMSYN082AAXX  03094 06681 32660 11801 11065 21081 39305 48478 5//// 333 553// 20374 81640;
0149066810999992011010310004+47433+009400FM-12+079199999V0203001N000519999999N9999999N1-00571-00771999999ADDMA1999999093051MD1410001+9999ME1314809OA149900101REMSYN088AAXX  03104 06681 33/// /3001 11057 21077 39305 48480 54001 333 553// 20882 91102 91202;
0149066810999992011010311004+47433+009400FM-12+079199999V0200301N002119999999N9999999N1-00501-00651999999ADDMA1999999093011MD1810041+9999ME1314799OA149900311REMSYN088AAXX  03114 06681 33/// /0304 11050 21065 39301 48479 58004 333 553// 2//// 91106 91204;
0219066810999992011010312004+47433+009400FM-12+079199999V0200501N001010006019N0009001N1-00511-00651999999ADDAY141061AY211061GA1091+999999999GF109991091999999999999999MA1999999092971MD1710081+9999ME1314759MW1401OA149900461REMSYN094AAXX  03124 06681 31/09 90502 11051 21065 39297 48475 57008 74041 333 55302 20616 91109 91207;
0149066810999992011010313004+47433+009400FM-12+079199999V0209999C000019999999N9999999N1-00461-00711999999ADDMA1999999092951MD1710101+9999ME1314759OA149900311REMSYN088AAXX  03134 06681 33/// /0000 11046 21071 39295 48475 57010 333 55307 20947 91106 91204;
0112066810999992011010314004+47433+009400FM-12+079199999V0200701N001019999999N9999999N1-00431-00731999999ADDMA1999999092931ME1314749REMSYN076AAXX  03144 06681 33/// /0702 11043 21073 39293 48474 5//// 333 553// 20806;
0154066810999992011010315004+47433+009400FM-12+079199999V0201001N001512200019N0150001N1-00521-00891999999ADDGA1001+999999999GF100991001001999999001001MA1999999092931ME1314729REMSYN076AAXX  03154 06681 32/65 01003 11052 21089 39293 48472 5//// 333 553// 20328;
0149066810999992011010316004+47433+009400FM-12+079199999V0201201N002119999999N9999999N1-00561-00901999999ADDMA1999999092921MD1710031+9999ME1314709OA149900311REMSYN088AAXX  03164 06681 33/// /1204 11056 21090 39292 48470 57003 333 55300 20029 91106 91204;
0149066810999992011010317004+47433+009400FM-12+079199999V0201001N001519999999N9999999N1-00551-00861999999ADDMA1999999092911MD1719999+9999ME1314699OA149900311REMSYN088AAXX  03174 06681 33/// /1003 11055 21086 39291 48469 57/// 333 55300 20000 91106 91204;
0267066810999992011010318004+47433+009400FM-12+079199999V0200901N00151014101CN0150001N1-00541-00771999999ADDAJ100089199999999AL19900091GA1061+014101061GF106991999999012501999999IA1239KA1120M-00411MA1999999092901MD1710031+9999ME1314699OA149900311REMSYN118AAXX  03184 06681 32665 60903 11054 21077 39290 48469 57003 333 11041 47008 55300 20000 86647 90766 93100 91106 91204;
0149066810999992011010319004+47433+009400FM-12+079199999V0201501N000519999999N9999999N1-00571-00781999999ADDMA1999999092871MD1710051+9999ME1314669OA149900311REMSYN088AAXX  03194 06681 33/// /1501 11057 21078 39287 48466 57005 333 55300 20000 91106 91203;
0149066810999992011010320004+47433+009400FM-12+079199999V0201601N001019999999N9999999N1-00551-00691999999ADDMA1999999092831MD1719999+9999ME1314639OA149900311REMSYN088AAXX  03204 06681 33/// /1602 11055 21069 39283 48463 57/// 333 55300 20000 91106 91203;
0149066810999992011010321004+47433+009400FM-12+079199999V0201901N001019999999N9999999N1-00721-00871999999ADDMA1999999092801MD1810101+9999ME1314569OA149900311REMSYN088AAXX  03214 06681 33/// /1902 11072 21087 39280 48456 58010 333 55300 20000 91106 91204;
0149066810999992011010322004+47433+009400FM-12+079199999V0202101N000519999999N9999999N1-00691-00841999999ADDMA1999999092781MD1710091+9999ME1314559OA149900211REMSYN088AAXX  03224 06681 33/// /2101 11069 21084 39278 48455 57009 333 55300 20000 91104 91202;
0149066810999992011010323004+47433+009400FM-12+079199999V0202301N001019999999N9999999N1-00661-00821999999ADDMA1999999092781MD1510051+9999ME1314569OA149900211REMSYN088AAXX  03234 06681 33/// /2302 11066 21082 39278 48456 55005 333 55300 20000 91104 91203;
0149066810999992011010400004+47433+009400FM-12+079199999V0202001N001019999999N9999999N1-00631-00791999999ADDMA1999999092761MD1710041+9999ME1314559OA149900311REMSYN088AAXX  04004 06681 33/// /2002 11063 21079 39276 48455 57004 333 55300 20000 91106 91204;
0149066810999992011010401004+47433+009400FM-12+079199999V0202301N001019999999N9999999N1-00601-00811999999ADDMA1999999092741MD1810041+9999ME1314549OA149900261REMSYN088AAXX  04014 06681 33/// /2302 11060 21081 39274 48454 58004 333 55300 20000 91105 91203;
0149066810999992011010402004+47433+009400FM-12+079199999V0202001N001019999999N9999999N1-00621-00841999999ADDMA1999999092751MD1519999+9999ME1314549OA149900261REMSYN088AAXX  04024 06681 33/// /2002 11062 21084 39275 48454 55/// 333 55300 20000 91105 91203;
0149066810999992011010403004+47433+009400FM-12+079199999V0201701N001519999999N9999999N1-00651-00881999999ADDMA1999999092731MD1710031+9999ME1314529OA149900361REMSYN088AAXX  04034 06681 33/// /1703 11065 21088 39273 48452 57003 333 55300 20000 91107 91204;
0149066810999992011010404004+47433+009400FM-12+079199999V0202201N001019999999N9999999N1-00681-00881999999ADDMA1999999092721MD1710021+9999ME1314509OA149900361REMSYN088AAXX  04044 06681 33/// /2202 11068 21088 39272 48450 57002 333 55300 20000 91107 91204;
0149066810999992011010405004+47433+009400FM-12+079199999V0200501N000519999999N9999999N1-00701-00761999999ADDMA1999999092661MD1710091+9999ME1314459OA149900261REMSYN088AAXX  04054 06681 33/// /0501 11070 21076 39266 48445 57009 333 55300 20000 91105 91203;
0327066810999992011010406004+47433+009400FM-12+079199999V0201001N000510001519N0000001N1-00781-00841999999ADDAJ100089199999999AL19900091AY141061AY241061GA1091+999999999GF109991091999999999999999GJ103009IA1279IA2999-01309KA1999N-00731MA1999999092621MD1710111+9999ME1314399MW1471OA149900361REMSYN136AAXX  04064 06681 31/00 91001 11078 21084 39262 48439 57011 74744 333 21073 3/113 43008 55050 55300 20000 70000 90768 93100 91107 91204;
0149066810999992011010407004+47433+009400FM-12+079199999V0209999C000019999999N9999999N1-00711-00861999999ADDMA1999999092611MD1610111+9999ME1314409OA149900211REMSYN088AAXX  04074 06681 33/// /0000 11071 21086 39261 48440 56011 333 55300 20000 91104 91202;
0149066810999992011010408004+47433+009400FM-12+079199999V0202401N000519999999N9999999N1-00631-00831999999ADDMA1999999092611MD1719999+9999ME1314429OA149900101REMSYN088AAXX  04084 06681 33/// /2401 11063 21083 39261 48442 57/// 333 55300 20025 91102 91201;
0182066810999992011010409004+47433+009400FM-12+079199999V0203601N000510003019N0003001N1-00621-00791999999ADDAY141031AY221031GA1091+999999999GF109991091999999999999999MA1999999092601ME1314429MW1401REMSYN082AAXX  04094 06681 31/03 93601 11062 21079 39260 48442 5//// 74042 333 553// 20072;
0149066810999992011010410004+47433+009400FM-12+079199999V0200101N000519999999N9999999N1-00611-00781999999ADDMA1999999092641MD1310031+9999ME1314459OA149900211REMSYN088AAXX  04104 06681 33/// /0101 11061 21078 39264 48445 53003 333 55300 20367 91104 91202;
0149066810999992011010411004+47433+009400FM-12+079199999V0202801N000519999999N9999999N1-00551-00731999999ADDMA1999999092571MD1810041+9999ME1314419OA149900361REMSYN088AAXX  04114 06681 33/// /2801 11055 21073 39257 48441 58004 333 55301 20547 91107 91203;
0219066810999992011010412004+47433+009400FM-12+079199999V0200501N000510001519N0000001N1-00601-00691999999ADDAY141061AY241061GA1091+999999999GF109991091999999999999999MA1999999092511MD1710091+9999ME1314359MW1451OA149900361REMSYN094AAXX  04124 06681 31/00 90501 11060 21069 39251 48435 57009 74544 333 55300 20461 91107 91204;
0149066810999992011010413004+47433+009400FM-12+079199999V0200401N001019999999N9999999N1-00551-00681999999ADDMA1999999092491MD1710151+9999ME1314349OA149900261REMSYN088AAXX  04134 06681 33/// /0402 11055 21068 39249 48434 57015 333 55301 20612 91105 91203;
0112066810999992011010414004+47433+009400FM-12+079199999V0200901N001019999999N9999999N1-00541-00701999999ADDMA1999999092461ME1314329REMSYN076AAXX  04144 06681 33/// /0902 11054 21070 39246 48432 5//// 333 553// 20378;
0176066810999992011010415004+47433+009400FM-12+079199999V0203601N000510141019N0030001N1-00511-00681999999ADDAY141031AY221031GA1071+014101061GF107991999999012501999999MA1999999092431ME1314309MW1101REMSYN076AAXX  04154 06681 41630 73601 11051 21068 39243 48430 5//// 71042 333 87647;
0149066810999992011010416004+47433+009400FM-12+079199999V0209999C000019999999N9999999N1-00531-00671999999ADDMA1999999092401MD1710091+9999ME1314279OA149900261REMSYN088AAXX  04164 06681 33/// /0000 11053 21067 39240 48427 57009 333 55300 20040 91105 91203;
0149066810999992011010417004+47433+009400FM-12+079199999V0200301N001019999999N9999999N1-00571-00701999999ADDMA1999999092391MD1710071+9999ME1314269OA149900261REMSYN088AAXX  04174 06681 33/// /0302 11057 21070 39239 48426 57007 333 55300 20000 91105 91203;
0295066810999992011010418004+47433+009400FM-12+079199999V0201101N00051012001CN0020001N1-00571-00711999999ADDAJ100079199999999AL19900091AY121061AY221061GA1071+012001061GF107991999999012501999999IA1279KA1120M-00491MA1999999092401MD1710031+9999ME1314269MW1101OA149900361REMSYN124AAXX  04184 06681 31620 71101 11057 21071 39240 48426 57003 71022 333 11049 43007 55300 20000 87640 90766 93100 91107 91203;
0149066810999992011010419004+47433+009400FM-12+079199999V0201501N000519999999N9999999N1-00541-00701999999ADDMA1999999092431MD1210031+9999ME1314309OA149900211REMSYN088AAXX  04194 06681 33/// /1501 11054 21070 39243 48430 52003 333 55300 20000 91104 91202;
0168066810999992011010420004+47433+009400FM-12+079199999V0202401N000519999999N9999999N1-00511-00641999999ADDMA1999999092391MD1410001+9999ME1314279OA149900211REMSYN088AAXX  04204 06681 33/// /2401 11051 21064 39239 48427 57000 333 55300 20000 91104 91202;EQDQ01+000072APCTEN
0149066810999992011010421004+47433+009400FM-12+079199999V0200201N000519999999N9999999N1-00531-00651999999ADDMA1999999092371MD1710031+9999ME1314259OA149900261REMSYN088AAXX  04214 06681 33/// /0201 11053 21065 39237 48425 57003 333 55300 20000 91105 91203;
0149066810999992011010422004+47433+009400FM-12+079199999V0209999C000019999999N9999999N1-00601-00711999999ADDMA1999999092391MD1710041+9999ME1314259OA149900151REMSYN088AAXX  04224 06681 33/// /0000 11060 21071 39239 48425 57004 333 55300 20000 91103 91202;
0149066810999992011010423004+47433+009400FM-12+079199999V0201601N001019999999N9999999N1-00641-00821999999ADDMA1999999092381MD1710011+9999ME1314239OA149900151REMSYN088AAXX  04234 06681 33/// /1602 11064 21082 39238 48423 57001 333 55300 20000 91103 91202;
0149066810999992011010500004+47433+009400FM-12+079199999V0201601N001519999999N9999999N1-00611-00831999999ADDMA1999999092341MD1810031+9999ME1314209OA149900311REMSYN088AAXX  05004 06681 33/// /1603 11061 21083 39234 48420 58003 333 55300 20000 91106 91203;
0149066810999992011010501004+47433+009400FM-12+079199999V0201501N000519999999N9999999N1-00561-00751999999ADDMA1999999092331MD1710061+9999ME1314219OA149900211REMSYN088AAXX  05014 06681 33/// /1501 11056 21075 39233 48421 57006 333 55300 20000 91104 91203;
0149066810999992011010502004+47433+009400FM-12+079199999V0201601N000519999999N9999999N1-00571-00781999999ADDMA1999999092331MD1710051+9999ME1314219OA149900151REMSYN088AAXX  05024 06681 33/// /1601 11057 21078 39233 48421 57005 333 55300 20000 91103 91201;
0096066810999992011010503004+47433+009400FM-12+079199999V0201401N000519999999N9999999N1-00591-00751999999ADDMA1999999092331ME1314209REMSYN060AAXX  05034 06681 43/// /1401 11059 21075 39233 48420 5////;
0149066810999992011010504004+47433+009400FM-12+079199999V0201901N002619999999N9999999N1-00231-00781999999ADDMA1999999092301MD1710031+9999ME1314269OA149900511REMSYN088AAXX  05044 06681 33/// /1905 11023 21078 39230 48426 57003 333 55300 20000 91110 91205;
0149066810999992011010505004+47433+009400FM-12+079199999V0201801N002619999999N9999999N1-00191-00801999999ADDMA1999999092281MD1710051+9999ME1314269OA149900571REMSYN088AAXX  05054 06681 33/// /1805 11019 21080 39228 48426 57005 333 55300 20000 91111 91205;
0333066810999992011010506004+47433+009400FM-12+079199999V0202501N00051009901CN0030001N1-00381-00611999999ADDAJ100079199999999AL19900091AY141061AY221061GA1081+009901071GF108991999999008001999999GJ100309IA1279IA2999-01209KA1999N-00681MA1999999092321MD1510011+9999ME1314249MW1101OA149900571REMSYN142AAXX  05064 06681 31530 82501 11038 21061 39232 48424 55001 71042 333 21068 3/112 43007 55005 55300 20000 70000 88733 90768 93100 91111 91205;
0149066810999992011010507004+47433+009400FM-12+079199999V0201001N001519999999N9999999N1-00431-00631999999ADDMA1999999092331MD1310031+9999ME1314249OA149900361REMSYN088AAXX  05074 06681 33/// /1003 11043 21063 39233 48424 53003 333 55300 20000 91107 91204;
0149066810999992011010508004+47433+009400FM-12+079199999V0201801N002119999999N9999999N1-00231-00691999999ADDMA1999999092321MD1219999+9999ME1314289OA149900511REMSYN088AAXX  05084 06681 33/// /1804 11023 21069 39232 48428 52/// 333 55300 20050 91110 91205;
0197066810999992011010509004+47433+009400FM-12+079199999V0201701N002612200019N0250001N1-00201-00651999999ADDGA1011+014101061GF101991999999012501999999MA1999999092311MD1710011+9999ME1314289OA149900571REMSYN094AAXX  05094 06681 32675 11705 11020 21065 39231 48428 57001 333 55306 20371 81647 91111 91205;
0149066810999992011010510004+47433+009400FM-12+079199999V0201301N000519999999N9999999N1-00091-00651999999ADDMA1999999092271MD1710061+9999ME1314279OA149900511REMSYN088AAXX  05104 06681 33/// /1301 11009 21065 39227 48427 57006 333 553// 20882 91110 91205;
0149066810999992011010511004+47433+009400FM-12+079199999V0201601N000519999999N9999999N1-00151-00691999999ADDMA1999999092231MD1710091+9999ME1314239OA149900311REMSYN088AAXX  05114 06681 33/// /1601 11015 21069 39223 48423 57009 333 553// 2//// 91106 91205;
0144066810999992011010512004+47433+009400FM-12+079199999V0201801N000512200019N0250001N1-00011-00601999999ADDGF101991999999999999999999MA1999999092141ME1314189REMSYN082AAXX  05124 06681 32975 11801 11001 21060 39214 48418 5//// 333 553// 2//// 81069;
0149066810999992011010513004+47433+009400FM-12+079199999V0209999C000019999999N9999999N1-00041-00521999999ADDMA1999999092091MD1610181+9999ME1314139OA149900101REMSYN088AAXX  05134 06681 33/// /0000 11004 21052 39209 48413 56018 333 553// 2//// 91102 91202;
0096066810999992011010514004+47433+009400FM-12+079199999V0201401N000519999999N9999999N1-00061-00571999999ADDMA1999999092121ME1314159REMSYN060AAXX  05144 06681 43/// /1401 11006 21057 39212 48415 5////;
0176066810999992011010515004+47433+009400FM-12+079199999V0201601N000512200019N0100001N1-00121-00591999999ADDAY121031AY221031GA1021+048001001GF102991999999999999999999MA1999999092131ME1314159MW1101REMSYN076AAXX  05154 06681 41960 21601 11012 21059 39213 48415 5//// 71022 333 82066;
0149066810999992011010516004+47433+009400FM-12+079199999V0201701N001019999999N9999999N1-00091-00631999999ADDMA1999999092061MD1810031+9999ME1314099OA149900151REMSYN088AAXX  05164 06681 33/// /1702 11009 21063 39206 48409 58003 333 55300 20032 91103 91202;
0149066810999992011010517004+47433+009400FM-12+079199999V0202501N001519999999N9999999N1-00181-00521999999ADDMA1999999092061MD1710061+9999ME1314079OA149900261REMSYN088AAXX  05174 06681 33/// /2503 11018 21052 39206 48407 57006 333 55300 20000 91105 91203;
0295066810999992011010518004+47433+009400FM-12+079199999V0201801N001512200019N0100001N1+00011-00841999999ADDAJ100079199999999AL19900091AY101061AY201061GA1041+012001001GF104991999999012501999999IA1279KA1120M+00061MA1999999092061MD1519999+9999ME1314129MW1101OA149900511REMSYN124AAXX  05184 06681 31660 41803 10001 21084 39206 48412 55/// 71000 333 10006 43007 55300 20000 84040 90766 93100 91110 91205;
0149066810999992011010519004+47433+009400FM-12+079199999V0201801N001019999999N9999999N1+00021-00741999999ADDMA1999999092051MD1010011+9999ME1314119OA149900311REMSYN088AAXX  05194 06681 33/// /1802 10002 21074 39205 48411 50001 333 55300 20000 91106 91204;
0149066810999992011010520004+47433+009400FM-12+079199999V0201801N001019999999N9999999N1+00071-00821999999ADDMA1999999092021MD1719999+9999ME1314109OA149900311REMSYN088AAXX  05204 06681 33/// /1802 10007 21082 39202 48410 57/// 333 55300 20000 91106 91204;
0112066810999992011010521004+47433+009400FM-12+079199999V0201601N001019999999N9999999N1+00081-00911999999ADDMA1999999091971ME1314069REMSYN076AAXX  05214 06681 33/// /1602 10008 21091 39197 48406 5//// 333 553// 20000;
0149066810999992011010522004+47433+009400FM-12+079199999V0201701N001519999999N9999999N1+00201-00871999999ADDMA1999999091941MD1610111+9999ME1314069OA149900211REMSYN088AAXX  05224 06681 33/// /1703 10020 21087 39194 48406 56011 333 55300 20000 91104 91203;
0149066810999992011010523004+47433+009400FM-12+079199999V0201801N002119999999N9999999N1+00161-00901999999ADDMA1999999091931MD1719999+9999ME1314049OA149900261REMSYN088AAXX  05234 06681 33/// /1804 10016 21090 39193 48404 57/// 333 55300 20000 91105 91204;
0096066810999992011010600004+47433+009400FM-12+079199999V0201201N000519999999N9999999N1+00191-01041999999ADDMA1999999091831ME1313969REMSYN060AAXX  06004 06681 43/// /1201 10019 21104 39183 48396 5////;
0096066810999992011010601004+47433+009400FM-12+079199999V0209999C000019999999N9999999N1+00061-00851999999ADDMA1999999091781ME1313899REMSYN060AAXX  06014 06681 43/// /0000 10006 21085 39178 48389 5////;
0096066810999992011010602004+47433+009400FM-12+079199999V0202101N000519999999N9999999N1+00161-00811999999ADDMA1999999091751ME1313899REMSYN060AAXX  06024 06681 43/// /2101 10016 21081 39175 48389 5////;
0096066810999992011010603004+47433+009400FM-12+079199999V0201801N001519999999N9999999N1+00031-00531999999ADDMA1999999091771ME1313879REMSYN060AAXX  06034 06681 43/// /1803 10003 21053 39177 48387 5////;
0096066810999992011010604004+47433+009400FM-12+079199999V0201701N003119999999N9999999N1+00201-00671999999ADDMA1999999091761ME1313909REMSYN060AAXX  06044 06681 43/// /1706 10020 21067 39176 48390 5////;
0096066810999992011010605004+47433+009400FM-12+079199999V0201601N002119999999N9999999N1+00341-00841999999ADDMA1999999091741ME1313929REMSYN060AAXX  06054 06681 43/// /1604 10034 21084 39174 48392 5////;
0278066810999992011010606004+47433+009400FM-12+079199999V0201801N002610120019N0100001N1+00401-00701999999ADDAJ100079199999999AL10600091AY121061AY221061GA1081+012001041GF108991999999012501999999GJ103729IA1279IA2999-00609KA1999N-00211MA1999999091751ME1313949MW1101REMSYN112AAXX  06064 06681 41660 81805 10040 21070 39175 48394 5//// 71022 333 21021 3/106 43007 55062 88440 90768 93100;
0096066810999992011010607004+47433+009400FM-12+079199999V0201701N002119999999N9999999N1+00481-00631999999ADDMA1999999091771ME1313989REMSYN060AAXX  06074 06681 43/// /1704 10048 21063 39177 48398 5////;
0112066810999992011010608004+47433+009400FM-12+079199999V0201601N002119999999N9999999N1+00481-00321999999ADDMA1999999091741ME1313959REMSYN076AAXX  06084 06681 33/// /1604 10048 21032 39174 48395 5//// 333 553// 20032;
0148066810999992011010609004+47433+009400FM-12+079199999V0202801N000510180019N0250001N1+00121-00351999999ADDGA1071+018001061GF107991999999017501999999MA1999999091751ME1313889REMSYN070AAXX  06094 06681 42775 72801 10012 21035 39175 48388 5//// 333 87656;
0149066810999992011010610004+47433+009400FM-12+079199999V0201401N000519999999N9999999N1+00341-00331999999ADDMA1999999091821MD1310051+9999ME1313999OA149900361REMSYN088AAXX  06104 06681 33/// /1401 10034 21033 39182 48399 53005 333 55300 20461 91107 91203;
0149066810999992011010611004+47433+009400FM-12+079199999V0202101N000519999999N9999999N1+00491-00491999999ADDMA1999999091791MD1010051+9999ME1314009OA149900461REMSYN088AAXX  06114 06681 33/// /2101 10049 21049 39179 48400 50005 333 55305 20954 91109 91204;
0216066810999992011010612004+47433+009400FM-12+079199999V0201701N00211014101CN0250001N1+00561-00461999999ADDGA1071+014101041GF107991999999012501999999MA1999999091751MD1410001+9999ME1313989OA149900621REMSYN094AAXX  06124 06681 32675 71704 10056 21046 39175 48398 58000 333 55302 20842 87447 91112 91208;EQDQ01+000082APCTEN
0149066810999992011010613004+47433+009400FM-12+079199999V0201601N004619999999N9999999N1+00641-00441999999ADDMA1999999091731MD1710091+9999ME1313989OA149900821REMSYN088AAXX  06134 06681 33/// /1609 10064 21044 39173 48398 57009 333 55300 20446 91116 91209;
0096066810999992011010614004+47433+009400FM-12+079199999V0200801N000519999999N9999999N1+00361-00181999999ADDMA1999999091721ME1313919REMSYN060AAXX  06144 06681 43/// /0801 10036 21018 39172 48391 5////;
0148066810999992011010615004+47433+009400FM-12+079199999V0202701N000510021019N0160001N1+00351-00221999999ADDGA1071+002101071GF107991999999002501999999MA1999999091791ME1313979REMSYN070AAXX  06154 06681 42366 72701 10035 21022 39179 48397 5//// 333 87707;
0149066810999992011010616004+47433+009400FM-12+079199999V0201901N001519999999N9999999N1+00501-00241999999ADDMA1999999091781MD1210051+9999ME1313999OA149900571REMSYN088AAXX  06164 06681 33/// /1903 10050 21024 39178 48399 52005 333 55300 20029 91111 91203;
0149066810999992011010617004+47433+009400FM-12+079199999V0201401N005119999999N9999999N1+00911-00311999999ADDMA1999999091701MD1010021+9999ME1314029OA149900931REMSYN088AAXX  06174 06681 33/// /1410 10091 21031 39170 48402 50002 333 55300 20000 91118 91210;
0290066810999992011010618004+47433+009400FM-12+079199999V0201901N00461014101CN0150001N1+00471-00031999999ADDAA112001091AJ100049199999999AL19900091GA1071+014101061GF107991999999012501999999IA1279KA1120M+00911MA1999999091971MD1310181+9999ME1314159OA149900931REMSYN130AAXX  06184 06681 02665 71909 10047 21003 39197 48415 53018 60012 333 10091 43004 55300 20000 60015 87647 90766 93100 91118 91210;
0155066810999992011010619004+47433+009400FM-12+079199999V0201501N007219999999N9999999N1+00631+00231999999ADDMA1999999091891MD1210111+9999ME1314129OA149901241REMSYN094AAXX  06194 06681 23/// /1514 10063 20023 39189 48412 52011 333 55300 20000 69975 91124 91214;
0149066810999992011010620004+47433+009400FM-12+079199999V0201601N003119999999N9999999N1+00751+00241999999ADDMA1999999091911MD1219999+9999ME1314169OA149901241REMSYN088AAXX  06204 06681 33/// /1606 10075 20024 39191 48416 52/// 333 55300 20000 91124 91214;
0155066810999992011010621004+47433+009400FM-12+079199999V0201701N001519999999N9999999N1+00821+00341999999ADDMA1999999091981MD1319999+9999ME1314249OA149901241REMSYN094AAXX  06214 06681 23/// /1703 10082 20034 39198 48424 53/// 333 55300 20000 69915 91124 91214;
0149066810999992011010622004+47433+009400FM-12+079199999V0201601N004619999999N9999999N1+00841+00261999999ADDMA1999999091991MD1210101+9999ME1314269OA149901081REMSYN088AAXX  06224 06681 33/// /1609 10084 20026 39199 48426 52010 333 55300 20000 91121 91212;
0112066810999992011010623004+47433+009400FM-12+079199999V0201001N001519999999N9999999N1+00581+00231999999ADDMA1999999092041ME1314249REMSYN076AAXX  06234 06681 33/// /1003 10058 20023 39204 48424 5//// 333 553// 20000;
0096066810999992011010700004+47433+009400FM-12+079199999V0201601N003119999999N9999999N1+00761+00181999999ADDMA1999999092071ME1314319REMSYN060AAXX  07004 06681 43/// /1606 10076 20018 39207 48431 5////;
0096066810999992011010701004+47433+009400FM-12+079199999V0202101N001519999999N9999999N1+00751+00221999999ADDMA1999999092071ME1314319REMSYN060AAXX  07014 06681 43/// /2103 10075 20022 39207 48431 5////;
0096066810999992011010702004+47433+009400FM-12+079199999V0201101N001019999999N9999999N1+00451+00231999999ADDMA1999999092141ME1314299REMSYN060AAXX  07024 06681 43/// /1102 10045 20023 39214 48429 5////;
0096066810999992011010703004+47433+009400FM-12+079199999V0200801N001019999999N9999999N1+00411+00201999999ADDMA1999999092161ME1314309REMSYN060AAXX  07034 06681 43/// /0802 10041 20020 39216 48430 5////;
0155066810999992011010704004+47433+009400FM-12+079199999V0200601N001019999999N9999999N1+00591+00231999999ADDMA1999999092181MD1210111+9999ME1314369OA149900361REMSYN094AAXX  07044 06681 23/// /0602 10059 20023 39218 48436 52011 333 55300 20000 69915 91107 91203;
0155066810999992011010705004+47433+009400FM-12+079199999V0201901N001019999999N9999999N1+00521+00301999999ADDMA1999999092251MD1210111+9999ME1314419OA149900361REMSYN094AAXX  07054 06681 23/// /1902 10052 20030 39225 48441 52011 333 55300 20000 69925 91107 91203;
0366066810999992011010706004+47433+009400FM-12+079199999V0201701N00411008101CN0030001N1+00521+00301999999ADDAA112002091AJ100039199999999AL14200291AL29900091AY161061AY221061GA1081+008101071GF108991999999008001999999GJ100429IA1279IA2999+00209KA1999N+00361MA1999999092301MD1210141+9999ME1314459MW1611OA149901241REMSYN154AAXX  07064 06681 01530 81708 10052 20030 39230 48445 52014 60022 76162 333 20036 3/002 43003 55007 55300 20000 69945 70027 88727 90768 93100 91124 91214;
0155066810999992011010707004+47433+009400FM-12+079199999V0201601N004619999999N9999999N1+00761+00411999999ADDMA1999999092311MD1210131+9999ME1314529OA149900771REMSYN094AAXX  07074 06681 23/// /1609 10076 20041 39231 48452 52013 333 55300 20000 60015 91115 91211;
0112066810999992011010708004+47433+009400FM-12+079199999V0201601N003619999999N9999999N1+00961+00301999999ADDMA1999999092271ME1314539REMSYN076AAXX  07084 06681 33/// /1607 10096 20030 39227 48453 5//// 333 553// 20029;
0148066810999992011010709004+47433+009400FM-12+079199999V0201501N004110141019N0200001N1+00871+00071999999ADDGA1071+014101061GF107991999999012501999999MA1999999092241ME1314499REMSYN070AAXX  07094 06681 42670 71508 10087 20007 39224 48449 5//// 333 87647;
0149066810999992011010710004+47433+009400FM-12+079199999V0200401N001019999999N9999999N1+00811+00191999999ADDMA1999999092181MD1710131+9999ME1314429OA149900621REMSYN088AAXX  07104 06681 33/// /0402 10081 20019 39218 48442 57013 333 55300 20382 91112 91208;
0149066810999992011010711004+47433+009400FM-12+079199999V0201601N001019999999N9999999N1+00991+00211999999ADDMA1999999092221MD1710051+9999ME1314509OA149900511REMSYN088AAXX  07114 06681 33/// /1602 10099 20021 39222 48450 57005 333 55308 20918 91110 91208;
0242066810999992011010712004+47433+009400FM-12+079199999V0201501N00051051001CN0250001N1+00911+00291999999ADDAA106001091GA1021+012001061GA2071+051001011GF107991999999012501999999MA1999999092221MD1510021+9999ME1314489OA149900821REMSYN112AAXX  07124 06681 02675 71501 10091 20029 39222 48448 55002 60011 333 55307 20907 60005 82640 87167 91116 91211;
0168066810999992011010713004+47433+009400FM-12+079199999V0201101N000519999999N9999999N1+00971+00341999999ADDMA1999999092181MD1410001+9999ME1314469OA149900211REMSYN088AAXX  07134 06681 33/// /1101 10097 20034 39218 48446 58000 333 55306 20817 91104 91202;EQDQ01+000082APCTEN
0096066810999992011010714004+47433+009400FM-12+079199999V0209999C000019999999N9999999N1+00961+00381999999ADDMA1999999092201ME1314479REMSYN060AAXX  07144 06681 43/// /0000 10096 20038 39220 48447 5////;
0154066810999992011010715004+47433+009400FM-12+079199999V0201701N002119999999N0250001N1+00881+00191999999ADDGA1041+018001061GF107991999999017501999999MA1999999092191ME1314449REMSYN076AAXX  07154 06681 42775 71704 10088 20019 39219 48444 5//// 333 84656 87164;
0149066810999992011010716004+47433+009400FM-12+079199999V0203201N000519999999N9999999N1+00801+00371999999ADDMA1999999092241MD1210061+9999ME1314479OA149900621REMSYN088AAXX  07164 06681 33/// /3201 10080 20037 39224 48447 52006 333 55300 20043 91112 91206;
0149066810999992011010717004+47433+009400FM-12+079199999V0201901N000519999999N9999999N1+00821+00231999999ADDMA1999999092251MD1310051+9999ME1314489OA149900621REMSYN088AAXX  07174 06681 33/// /1901 10082 20023 39225 48448 53005 333 55300 20000 91112 91206;
0243066810999992011010718004+47433+009400FM-12+079199999V0201501N00101014101CN0200001N1+00731+00231999999ADDAA112001091AJ100039199999999GA1071+014101031GF107991999999012501999999IA1309KA1120M+01141MA1999999092311ME1314519REMSYN118AAXX  07184 06681 02670 71502 10073 20023 39231 48451 5//// 60012 333 10114 42003 553// 20000 60005 87347 90766 93100;
0149066810999992011010719004+47433+009400FM-12+079199999V0201901N002619999999N9999999N1+00741+00241999999ADDMA1999999092321MD1219999+9999ME1314529OA149900461REMSYN088AAXX  07194 06681 33/// /1905 10074 20024 39232 48452 52/// 333 55300 20000 91109 91205;
0096066810999992011010720004+47433+009400FM-12+079199999V0201801N001519999999N9999999N1+00911+00151999999ADDMA1999999092321ME1314579REMSYN060AAXX  07204 06681 43/// /1803 10091 20015 39232 48457 5////;
0096066810999992011010721004+47433+009400FM-12+079199999V0201401N001019999999N9999999N1+00951+00041999999ADDMA1999999092281ME1314549REMSYN060AAXX  07214 06681 43/// /1402 10095 20004 39228 48454 5////;
0149066810999992011010722004+47433+009400FM-12+079199999V0201301N001019999999N9999999N1+00911+00071999999ADDMA1999999092251MD1710071+9999ME1314509OA149900261REMSYN088AAXX  07224 06681 33/// /1302 10091 20007 39225 48450 57007 333 55300 20000 91105 91203;
0112066810999992011010723004+47433+009400FM-12+079199999V0201601N001019999999N9999999N1+00901+00091999999ADDMA1999999092271ME1314529REMSYN076AAXX  07234 06681 33/// /1602 10090 20009 39227 48452 5//// 333 553// 20000;
0112066810999992011010800004+47433+009400FM-12+079199999V0201601N001019999999N9999999N1+00951+00111999999ADDMA1999999092281ME1314549REMSYN076AAXX  08004 06681 33/// /1602 10095 20011 39228 48454 5//// 333 553// 20000;
0096066810999992011010801004+47433+009400FM-12+079199999V0202501N001519999999N9999999N1+00961+00171999999ADDMA1999999092321ME1314589REMSYN060AAXX  08014 06681 43/// /2503 10096 20017 39232 48458 5////;
0096066810999992011010802004+47433+009400FM-12+079199999V0201801N001519999999N9999999N1+00881+00151999999ADDMA1999999092321ME1314569REMSYN060AAXX  08024 06681 43/// /1803 10088 20015 39232 48456 5////;
0096066810999992011010803004+47433+009400FM-12+079199999V0201801N001019999999N9999999N1+00881+00101999999ADDMA1999999092281ME1314529REMSYN060AAXX  08034 06681 43/// /1802 10088 20010 39228 48452 5////;
0096066810999992011010804004+47433+009400FM-12+079199999V0201901N001019999999N9999999N1+00721+00101999999ADDMA1999999092301ME1314509REMSYN060AAXX  08044 06681 43/// /1902 10072 20010 39230 48450 5////;
0096066810999992011010805004+47433+009400FM-12+079199999V0202201N000519999999N9999999N1+00971+00251999999ADDMA1999999092311ME1314579REMSYN060AAXX  08054 06681 43/// /2201 10097 20025 39231 48457 5////;
0250066810999992011010806004+47433+009400FM-12+079199999V0202701N002610141019N0250001N1+00821+00311999999ADDAJ100029199999999AL10600091GA1061+014101061GF106991999999012501999999GJ101869IA1309IA2999+00309KA1999N+00551MA1999999092401ME1314619REMSYN106AAXX  08064 06681 42675 62705 10082 20031 39240 48461 5//// 333 20055 3/003 42002 55031 86647 90768 93100;
0096066810999992011010807004+47433+009400FM-12+079199999V0201801N001519999999N9999999N1+00701+00381999999ADDMA1999999092451ME1314639REMSYN060AAXX  08074 06681 43/// /1803 10070 20038 39245 48463 5////;
0118066810999992011010808004+47433+009400FM-12+079199999V0202001N002619999999N9999999N1+00761+00461999999ADDMA1999999092511ME1314699REMSYN082AAXX  08084 06681 23/// /2005 10076 20046 39251 48469 5//// 333 553// 20014 69915;
0176066810999992011010809004+47433+009400FM-12+079199999V0201601N004110141019N0200001N1+00741+00441999999ADDAY161031AY221031GA1071+014101061GF107991999999012501999999MA1999999092471ME1314659MW1211REMSYN076AAXX  08094 06681 41670 71608 10074 20044 39247 48465 5//// 72162 333 87647;
0096066810999992011010810004+47433+009400FM-12+079199999V0201601N002619999999N9999999N1+00921+00201999999ADDMA1999999092411ME1314659REMSYN060AAXX  08104 06681 43/// /1605 10092 20020 39241 48465 5////;
0096066810999992011010811004+47433+009400FM-12+079199999V0201301N001019999999N9999999N1+01111+00251999999ADDMA1999999092371ME1314669REMSYN060AAXX  08114 06681 43/// /1302 10111 20025 39237 48466 5////;
0176066810999992011010812004+47433+009400FM-12+079199999V0203301N000512200019N0250001N1+01081+00241999999ADDAY161061AY211061GA1021+027001061GF102991999999999999999999MA1999999092351ME1314649MW1011REMSYN076AAXX  08124 06681 41975 23301 10108 20024 39235 48464 5//// 70161 333 82659;
0096066810999992011010813004+47433+009400FM-12+079199999V0201501N000519999999N9999999N1+01131+00351999999ADDMA1999999092331ME1314639REMSYN060AAXX  08134 06681 43/// /1501 10113 20035 39233 48463 5////;
0096066810999992011010814004+47433+009400FM-12+079199999V0201501N000519999999N9999999N1+01111+00411999999ADDMA1999999092321ME1314629REMSYN060AAXX  08144 06681 43/// /1501 10111 20041 39232 48462 5////;
0154066810999992011010815004+47433+009400FM-12+079199999V0202001N001519999999N0250001N1+00821+00231999999ADDGA1021+014101061GF106991999999012501999999MA1999999092371ME1314599REMSYN076AAXX  08154 06681 42675 62003 10082 20023 39237 48459 5//// 333 82647 86066;
0096066810999992011010816004+47433+009400FM-12+079199999V0201601N004119999999N9999999N1+00951-00021999999ADDMA1999999092361ME1314619REMSYN060AAXX  08164 06681 43/// /1608 10095 21002 39236 48461 5////;
0096066810999992011010817004+47433+009400FM-12+079199999V0202001N000519999999N9999999N1+00801+00141999999ADDMA1999999092391ME1314609REMSYN060AAXX  08174 06681 43/// /2001 10080 20014 39239 48460 5////;
0221066810999992011010818004+47433+009400FM-12+079199999V0201701N001012200019N0250001N1+00711+00271999999ADDAJ100029199999999AL10600091GA1011+012001061GA2031+048001001GF103991999999012501999999IA1259MA1999999092361ME1314559REMSYN094AAXX  08184 06681 42675 31702 10071 20027 39236 48455 5//// 333 41002 81640 83066 90766 93100;
0096066810999992011010819004+47433+009400FM-12+079199999V0202601N002119999999N9999999N1+00781+00121999999ADDMA1999999092351ME1314569REMSYN060AAXX  08194 06681 43/// /2604 10078 20012 39235 48456 5////;
0096066810999992011010820004+47433+009400FM-12+079199999V0201801N001519999999N9999999N1+00811-00181999999ADDMA1999999092331ME1314559REMSYN060AAXX  08204 06681 43/// /1803 10081 21018 39233 48455 5////;
0096066810999992011010821004+47433+009400FM-12+079199999V0201501N005719999999N9999999N1+01101-00281999999ADDMA1999999092291ME1314599REMSYN060AAXX  08214 06681 43/// /1511 10110 21028 39229 48459 5////;
0096066810999992011010822004+47433+009400FM-12+079199999V0201501N005719999999N9999999N1+01141-00281999999ADDMA1999999092271ME1314589REMSYN060AAXX  08224 06681 43/// /1511 10114 21028 39227 48458 5////;
0096066810999992011010823004+47433+009400FM-12+079199999V0201501N004619999999N9999999N1+01181-00311999999ADDMA1999999092241ME1314569REMSYN060AAXX  08234 06681 43/// /1509 10118 21031 39224 48456 5////;
0096066810999992011010900004+47433+009400FM-12+079199999V0201501N005119999999N9999999N1+01171-00271999999ADDMA1999999092201ME1314529REMSYN060AAXX  09004 06681 43/// /1510 10117 21027 39220 48452 5////;
0096066810999992011010901004+47433+009400FM-12+079199999V0201501N006719999999N9999999N1+01181-00291999999ADDMA1999999092161ME1314499REMSYN060AAXX  09014 06681 43/// /1513 10118 21029 39216 48449 5////;
0096066810999992011010902004+47433+009400FM-12+079199999V0202501N002619999999N9999999N1+01061-00291999999ADDMA1999999092241ME1314539REMSYN060AAXX  09024 06681 43/// /2505 10106 21029 39224 48453 5////;
0096066810999992011010903004+47433+009400FM-12+079199999V0202301N001519999999N9999999N1+00791-00231999999ADDMA1999999092231ME1314469REMSYN060AAXX  09034 06681 43/// /2303 10079 21023 39223 48446 5////;
0096066810999992011010904004+47433+009400FM-12+079199999V0202301N000519999999N9999999N1+00861-00281999999ADDMA1999999092221ME1314479REMSYN060AAXX  09044 06681 43/// /2301 10086 21028 39222 48447 5////;
0096066810999992011010905004+47433+009400FM-12+079199999V0202201N001519999999N9999999N1+00601-00111999999ADDMA1999999092231ME1314419REMSYN060AAXX  09054 06681 43/// /2203 10060 21011 39223 48441 5////;
0213066810999992011010906004+47433+009400FM-12+079199999V0201801N001010180019N0150001N1+00791-00141999999ADDAJ100029199999999AL10600091GA1061+018001061GF106991999999017501999999GJ102829IA1259MA1999999092231ME1314469REMSYN094AAXX  09064 06681 42765 61802 10079 21014 39223 48446 5//// 333 41002 55047 86656 90768 93100;
0096066810999992011010907004+47433+009400FM-12+079199999V0202401N000519999999N9999999N1+00721-00191999999ADDMA1999999092201ME1314419REMSYN060AAXX  09074 06681 43/// /2401 10072 21019 39220 48441 5////;
0112066810999992011010908004+47433+009400FM-12+079199999V0202601N001519999999N9999999N1+00751-00171999999ADDMA1999999092271ME1314489REMSYN076AAXX  09084 06681 33/// /2603 10075 21017 39227 48448 5//// 333 553// 20061;
0166066810999992011010909004+47433+009400FM-12+079199999V0201801N002619999999N0250001N1+00701-00031999999ADDGA1041+014101061GF107991999999012501999999MA1999999092321ME1314519REMSYN088AAXX  09094 06681 32675 71805 10070 21003 39232 48451 5//// 333 553// 20292 84647 87167;
0149066810999992011010910004+47433+009400FM-12+079199999V0202201N001519999999N9999999N1+00951-00151999999ADDMA1999999092351MD1210151+9999ME1314609OA149900461REMSYN088AAXX  09104 06681 33/// /2203 10095 21015 39235 48460 52015 333 55301 20313 91109 91205;
0149066810999992011010911004+47433+009400FM-12+079199999V0202301N001519999999N9999999N1+00961-00031999999ADDMA1999999092361MD1210091+9999ME1314619OA149900571REMSYN088AAXX  09114 06681 33/// /2303 10096 21003 39236 48461 52009 333 55306 20824 91111 91205;
0219066810999992011010912004+47433+009400FM-12+079199999V0202701N002119999999N0180001N1+00981+00021999999ADDGA1011+009901061GA2031+018001031GF106991999999008001999999MA1999999092341MD1010021+9999ME1314609OA149901241REMSYN100AAXX  09124 06681 32568 62704 10098 20002 39234 48460 50002 333 55307 20871 81633 83356 91124 91215;
0149066810999992011010913004+47433+009400FM-12+079199999V0202601N002119999999N9999999N1+00891+00161999999ADDMA1999999092321MD1710031+9999ME1314569OA149900511REMSYN088AAXX  09134 06681 33/// /2604 10089 20016 39232 48456 57003 333 55307 20889 91110 91206;
0096066810999992011010914004+47433+009400FM-12+079199999V0202801N001519999999N9999999N1+00771+00241999999ADDMA1999999092381ME1314589REMSYN060AAXX  09144 06681 43/// /2803 10077 20024 39238 48458 5////;
0154066810999992011010915004+47433+009400FM-12+079199999V0202901N001519999999N0150001N1+00741+00301999999ADDGA1021+012001061GF108991999999012501999999MA1999999092401ME1314599REMSYN076AAXX  09154 06681 42665 82903 10074 20030 39240 48459 5//// 333 82640 88456;
0149066810999992011010916004+47433+009400FM-12+079199999V0202501N001519999999N9999999N1+00651+00341999999ADDMA1999999092451MD1210131+9999ME1314619OA149900511REMSYN088AAXX  09164 06681 33/// /2503 10065 20034 39245 48461 52013 333 55300 20054 91110 91204;
0149066810999992011010917004+47433+009400FM-12+079199999V0202201N002119999999N9999999N1+00621+00331999999ADDMA1999999092491MD1210111+9999ME1314649OA149900511REMSYN088AAXX  09174 06681 33/// /2204 10062 20033 39249 48464 52011 333 55300 20000 91110 91205;
0267066810999992011010918004+47433+009400FM-12+079199999V0202301N00211018001CN0150001N1+00641+00321999999ADDAJ100019199999999AL19900091GA1061+018001081GF106991999999017501999999IA1259KA1120M+01031MA1999999092521MD1210121+9999ME1314679OA149900571REMSYN118AAXX  09184 06681 32765 62304 10064 20032 39252 48467 52012 333 10103 41001 55300 20000 86856 90766 93100 91111 91206;
0149066810999992011010919004+47433+009400FM-12+079199999V0202301N002619999999N9999999N1+00651+00331999999ADDMA1999999092541MD1210091+9999ME1314699OA149900671REMSYN088AAXX  09194 06681 33/// /2305 10065 20033 39254 48469 52009 333 55300 20000 91113 91206;
0149066810999992011010920004+47433+009400FM-12+079199999V0202601N002119999999N9999999N1+00621+00351999999ADDMA1999999092601MD1210111+9999ME1314749OA149900671REMSYN088AAXX  09204 06681 33/// /2604 10062 20035 39260 48474 52011 333 55300 20000 91113 91206;
0155066810999992011010921004+47433+009400FM-12+079199999V0202501N002119999999N9999999N1+00551+00391999999ADDMA1999999092641MD1210121+9999ME1314759OA149900671REMSYN094AAXX  09214 06681 23/// /2504 10055 20039 39264 48475 52012 333 55300 20000 69965 91113 91206;
0155066810999992011010922004+47433+009400FM-12+079199999V0202201N001519999999N9999999N1+00501+00371999999ADDMA1999999092681MD1110141+9999ME1314789OA149900511REMSYN094AAXX  09224 06681 23/// /2203 10050 20037 39268 48478 51014 333 55300 20000 69955 91110 91205;
0155066810999992011010923004+47433+009400FM-12+079199999V0202401N002119999999N9999999N1+00471+00281999999ADDMA1999999092711MD1110111+9999ME1314799OA149900511REMSYN094AAXX  09234 06681 23/// /2404 10047 20028 39271 48479 51011 333 55300 20000 69975 91110 91205;
0172066810999992011011000004+47433+009400FM-12+079199999V0202301N002119999999N9999999N1+00401+00251999999ADDAA106004191MA1999999092741MD1210101+9999ME1314809OA149900671REMSYN100AAXX  10004 06681 03/// /2304 10040 20025 39274 48480 52010 60041 333 55300 20000 60025 91113 91206;
0155066810999992011011001004+47433+009400FM-12+079199999V0202701N002119999999N9999999N1+00371+00261999999ADDMA1999999092781MD1210101+9999ME1314839OA149900571REMSYN094AAXX  10014 06681 23/// /2704 10037 20026 39278 48483 52010 333 55300 20000 69925 91111 91206;
0118066810999992011011002004+47433+009400FM-12+079199999V0202601N002619999999N9999999N1+00301+00201999999ADDMA1999999092831ME1314859REMSYN082AAXX  10024 06681 23/// /2605 10030 20020 39283 48485 5//// 333 553// 20000 60025;
0096066810999992011011003004+47433+009400FM-12+079199999V0202501N001519999999N9999999N1+00231+00131999999ADDMA1999999092851ME1314859REMSYN060AAXX  10034 06681 43/// /2503 10023 20013 39285 48485 5////;
0118066810999992011011004004+47433+009400FM-12+079199999V0202901N001019999999N9999999N1+00191+00091999999ADDMA1999999092871ME1314869REMSYN082AAXX  10044 06681 23/// /2902 10019 20009 39287 48486 5//// 333 553// 20000 60015;
0155066810999992011011005004+47433+009400FM-12+079199999V0200401N001519999999N9999999N1+00101+00061999999ADDMA1999999092881MD1219999+9999ME1314849OA149900411REMSYN094AAXX  10054 06681 23/// /0403 10010 20006 39288 48484 52/// 333 55300 20000 69935 91108 91204;
0289066810999992011011006004+47433+009400FM-12+079199999V0200301N001510001519N0000001N1+00041+00021999999ADDAA124008491AJ100019199999999AL13000891AY171061AY271061GA1091+999999999GF109991091999999999999999GJ101209IA1259IA2999+00009KA1999N+00061MA1999999092881ME1314839MW1631REMSYN112AAXX  10064 06681 41/00 90303 10004 20002 39288 48483 5//// 76377 333 20006 3/000 41001 55020 70085 90768 93100;
0155066810999992011011007004+47433+009400FM-12+079199999V0200701N001019999999N9999999N1+00021+00011999999ADDMA1999999092921MD1210051+9999ME1314859OA149900311REMSYN094AAXX  10074 06681 23/// /0702 10002 20001 39292 48485 52005 333 55300 20000 69915 91106 91204;
0096066810999992011011008004+47433+009400FM-12+079199999V0200301N000519999999N9999999N1+00021+00021999999ADDMA1999999092941ME1314879REMSYN060AAXX  10084 06681 43/// /0301 10002 20002 39294 48487 5////;
0166066810999992011011009004+47433+009400FM-12+079199999V0209999C000010001519N0000001N1+00041+00021999999ADDAY171031AY241031GA1091+999999999GF109991091999999999999999MA1999999092941ME1314889MW1451REMSYN066AAXX  10094 06681 41/00 90000 10004 20002 39294 48488 5//// 74574;
0149066810999992011011010004+47433+009400FM-12+079199999V0200501N001019999999N9999999N1+00021+00011999999ADDMA1999999092971MD1210051+9999ME1314909OA149900211REMSYN088AAXX  10104 06681 33/// /0502 10002 20001 39297 48490 52005 333 55300 20151 91104 91202;
0149066810999992011011011004+47433+009400FM-12+079199999V0201301N000519999999N9999999N1+00081+00001999999ADDMA1999999092921MD1819999+9999ME1314879OA149900211REMSYN088AAXX  10114 06681 33/// /1301 10008 20000 39292 48487 58/// 333 55300 20241 91104 91202;
0205066810999992011011012004+47433+009400FM-12+079199999V0203301N000510003019N0005001N1+00121+00031999999ADDAA106000021AY141061AY241061GA1091+999999999GF109991091999999999999999MA1999999092871ME1314849MW1451REMSYN094AAXX  10124 06681 01/05 93301 10012 20003 39287 48484 5//// 69911 74544 333 553// 20378 60005;
0096066810999992011011013004+47433+009400FM-12+079199999V0200301N000519999999N9999999N1+00111+00051999999ADDMA1999999092821ME1314799REMSYN060AAXX  10134 06681 43/// /0301 10011 20005 39282 48479 5////;
0096066810999992011011014004+47433+009400FM-12+079199999V0200301N000519999999N9999999N1+00091+00061999999ADDMA1999999092791ME1314769REMSYN060AAXX  10144 06681 43/// /0301 10009 20006 39279 48476 5////;
0166066810999992011011015004+47433+009400FM-12+079199999V0203601N000510001519N0000001N1+00091+00041999999ADDAY141031AY241031GA1091+999999999GF109991091999999999999999MA1999999092761ME1314749MW1451REMSYN066AAXX  10154 06681 41/00 93601 10009 20004 39276 48474 5//// 74544;
0096066810999992011011016004+47433+009400FM-12+079199999V0200301N001019999999N9999999N1+00081+00051999999ADDMA1999999092721ME1314709REMSYN060AAXX  10164 06681 43/// /0302 10008 20005 39272 48470 5////;
0096066810999992011011017004+47433+009400FM-12+079199999V0200301N001519999999N9999999N1+00101+00041999999ADDMA1999999092701ME1314699REMSYN060AAXX  10174 06681 43/// /0303 10010 20004 39270 48469 5////;
0223066810999992011011018004+47433+009400FM-12+079199999V0200201N001010001519N0000001N1+00071+00031999999ADDAL10600091AY141061AY221061GA1091+999999999GF109991091999999999999999IA1099KA1120M+00131MA1999999092681ME1314669MW1451REMSYN094AAXX  10184 06681 41/00 90202 10007 20003 39268 48466 5//// 74542 333 10013 31/// 90766 93100;
0096066810999992011011019004+47433+009400FM-12+079199999V0200401N001019999999N9999999N1+00101+00051999999ADDMA1999999092641ME1314649REMSYN060AAXX  10194 06681 43/// /0402 10010 20005 39264 48464 5////;
0096066810999992011011020004+47433+009400FM-12+079199999V0209999C000019999999N9999999N1+00071+00061999999ADDMA1999999092591ME1314599REMSYN060AAXX  10204 06681 43/// /0000 10007 20006 39259 48459 5////;
0096066810999992011011021004+47433+009400FM-12+079199999V0202101N001019999999N9999999N1+00101+00001999999ADDMA1999999092581ME1314599REMSYN060AAXX  10214 06681 43/// /2102 10010 20000 39258 48459 5////;
0096066810999992011011022004+47433+009400FM-12+079199999V0202501N000519999999N9999999N1+00091-00031999999ADDMA1999999092581ME1314589REMSYN060AAXX  10224 06681 43/// /2501 10009 21003 39258 48458 5////;
0096066810999992011011023004+47433+009400FM-12+079199999V0202501N001019999999N9999999N1+00051+00011999999ADDMA1999999092561ME1314569REMSYN060AAXX  10234 06681 43/// /2502 10005 20001 39256 48456 5////;
0096066810999992011011100004+47433+009400FM-12+079199999V0202701N000519999999N9999999N1+00061-00061999999ADDMA1999999092491ME1314509REMSYN060AAXX  11004 06681 43/// /2701 10006 21006 39249 48450 5////;
0096066810999992011011101004+47433+009400FM-12+079199999V0201501N002119999999N9999999N1+00071-00071999999ADDMA1999999092451ME1314479REMSYN060AAXX  11014 06681 43/// /1504 10007 21007 39245 48447 5////;
0096066810999992011011102004+47433+009400FM-12+079199999V0201601N001519999999N9999999N1+00081-00051999999ADDMA1999999092441ME1314469REMSYN060AAXX  11024 06681 43/// /1603 10008 21005 39244 48446 5////;
0096066810999992011011103004+47433+009400FM-12+079199999V0202401N001019999999N9999999N1+00081-00031999999ADDMA1999999092381ME1314419REMSYN060AAXX  11034 06681 43/// /2402 10008 21003 39238 48441 5////;
0096066810999992011011104004+47433+009400FM-12+079199999V0201801N000519999999N9999999N1+00041-00071999999ADDMA1999999092351ME1314379REMSYN060AAXX  11044 06681 43/// /1801 10004 21007 39235 48437 5////;
0096066810999992011011105004+47433+009400FM-12+079199999V0202001N000519999999N9999999N1+00081-00031999999ADDMA1999999092301ME1314349REMSYN060AAXX  11054 06681 43/// /2001 10008 21003 39230 48434 5////;
0218066810999992011011106004+47433+009400FM-12+079199999V0201701N001510001519N0000001N1+00051-00061999999ADDAL10600091AY141061AY241061GA1091+999999999GF109991091999999999999999GJ100009IA1119MA1999999092281ME1314329MW1451REMSYN094AAXX  11064 06681 41/00 91703 10005 21006 39228 48432 5//// 74544 333 32/// 55000 90768 93100;
0149066810999992011011107004+47433+009400FM-12+079199999V0201101N001019999999N9999999N1-00041-00131999999ADDMA1999999092221MD1719999+9999ME1314249OA149900311REMSYN088AAXX  11074 06681 33/// /1102 11004 21013 39222 48424 57/// 333 55300 20000 91106 91204;
0112066810999992011011108004+47433+009400FM-12+079199999V0200701N000519999999N9999999N1-00021-00091999999ADDMA1999999092191ME1314229REMSYN076AAXX  11084 06681 33/// /0701 11002 21009 39219 48422 5//// 333 553// 20036;
0166066810999992011011109004+47433+009400FM-12+079199999V0200901N000510001519N0001001N1-00031-00071999999ADDAY141031AY241031GA1091+999999999GF109991091999999999999999MA1999999092141ME1314189MW1451REMSYN066AAXX  11094 06681 41/01 90901 11003 21007 39214 48418 5//// 74544;
0149066810999992011011110004+47433+009400FM-12+079199999V0200301N001019999999N9999999N1+00031-00041999999ADDMA1999999092121MD1710101+9999ME1314179OA149900361REMSYN088AAXX  11104 06681 33/// /0302 10003 21004 39212 48417 57010 333 55300 20310 91107 91204;
0149066810999992011011111004+47433+009400FM-12+079199999V0200401N001019999999N9999999N1+00061-00041999999ADDMA1999999092031MD1710161+9999ME1314109OA149900361REMSYN088AAXX  11114 06681 33/// /0402 10006 21004 39203 48410 57016 333 55300 20317 91107 91204;
0182066810999992011011112004+47433+009400FM-12+079199999V0201001N001510003019N0005001N1+00111-00011999999ADDAY141061AY241061GA1091+999999999GF109991091999999999999999MA1999999091931ME1314039MW1451REMSYN082AAXX  11124 06681 31/05 91003 10011 21001 39193 48403 5//// 74544 333 553// 20446;
0149066810999992011011113004+47433+009400FM-12+079199999V0209999C000019999999N9999999N1+00131+00011999999ADDMA1999999091911MD1710211+9999ME1314029OA149900311REMSYN088AAXX  11134 06681 33/// /0000 10013 20001 39191 48402 57021 333 55300 20367 91106 91203;
0096066810999992011011114004+47433+009400FM-12+079199999V0202101N002619999999N9999999N1+00141+00011999999ADDMA1999999091961ME1314069REMSYN060AAXX  11144 06681 43/// /2105 10014 20001 39196 48406 5////;
0176066810999992011011115004+47433+009400FM-12+079199999V0202101N002610150019N0100001N1+00251-00041999999ADDAY141031AY221031GA1071+015001061GF107991999999017501999999MA1999999091991ME1314129MW1101REMSYN076AAXX  11154 06681 41760 72105 10025 21004 39199 48412 5//// 71042 333 87650;
0149066810999992011011116004+47433+009400FM-12+079199999V0202101N002619999999N9999999N1+00271-00041999999ADDMA1999999092031MD1110121+9999ME1314169OA149900821REMSYN088AAXX  11164 06681 33/// /2105 10027 21004 39203 48416 51012 333 55300 20029 91116 91209;
0149066810999992011011117004+47433+009400FM-12+079199999V0202201N002619999999N9999999N1+00281+00021999999ADDMA1999999092131MD1319999+9999ME1314249OA149900721REMSYN088AAXX  11174 06681 33/// /2205 10028 20002 39213 48424 53/// 333 55300 20000 91114 91206;
0301066810999992011011118004+47433+009400FM-12+079199999V0202501N00211014101CN0100001N1+00251+00071999999ADDAA112000591AL19900091AY121061AY221061GA1081+014101071GF108991999999012501999999IA1099KA1120M+00291MA1999999092201MD1210211+9999ME1314309MW1101OA149900821REMSYN136AAXX  11184 06681 01660 82504 10025 20007 39220 48430 52021 69962 71022 333 10029 31/// 55300 20000 69965 88747 90766 93100 91116 91209;
0155066810999992011011119004+47433+009400FM-12+079199999V0202301N002619999999N9999999N1+00311+00121999999ADDMA1999999092291MD1310261+9999ME1314399OA149900511REMSYN094AAXX  11194 06681 23/// /2305 10031 20012 39229 48439 53026 333 55300 20000 69965 91110 91205;
0155066810999992011011120004+47433+009400FM-12+079199999V0202301N003619999999N9999999N1+00341+00121999999ADDMA1999999092371MD1310241+9999ME1314479OA149900931REMSYN094AAXX  11204 06681 23/// /2307 10034 20012 39237 48447 53024 333 55300 20000 69915 91118 91208;
0149066810999992011011121004+47433+009400FM-12+079199999V0202301N003119999999N9999999N1+00321+00131999999ADDMA1999999092461MD1210261+9999ME1314549OA149900931REMSYN088AAXX  11214 06681 33/// /2306 10032 20013 39246 48454 52026 333 55300 20000 91118 91208;
0149066810999992011011122004+47433+009400FM-12+079199999V0202301N002619999999N9999999N1+00321+00111999999ADDMA1999999092541MD1310251+9999ME1314619OA149900881REMSYN088AAXX  11224 06681 33/// /2305 10032 20011 39254 48461 53025 333 55300 20000 91117 91208;
0149066810999992011011123004+47433+009400FM-12+079199999V0202201N002619999999N9999999N1+00331+00121999999ADDMA1999999092601MD1110231+9999ME1314669OA149900881REMSYN088AAXX  11234 06681 33/// /2205 10033 20012 39260 48466 51023 333 55300 20000 91117 91208;
0172066810999992011011200004+47433+009400FM-12+079199999V0202201N003619999999N9999999N1+00351+00131999999ADDAA106001091MA1999999092611MD1210151+9999ME1314689OA149900931REMSYN100AAXX  12004 06681 03/// /2207 10035 20013 39261 48468 52015 60011 333 55300 20000 69935 91118 91209;
0149066810999992011011201004+47433+009400FM-12+079199999V0202101N002619999999N9999999N1+00361+00101999999ADDMA1999999092621MD1210081+9999ME1314699OA149900821REMSYN088AAXX  12014 06681 33/// /2105 10036 20010 39262 48469 52008 333 55300 20000 91116 91207;
0112066810999992011011202004+47433+009400FM-12+079199999V0202101N003619999999N9999999N1+00381+00091999999ADDMA1999999092701ME1314769REMSYN076AAXX  12024 06681 33/// /2107 10038 20009 39270 48476 5//// 333 553// 20000;
0096066810999992011011203004+47433+009400FM-12+079199999V0202201N003119999999N9999999N1+00351+00131999999ADDMA1999999092801ME1314849REMSYN060AAXX  12034 06681 43/// /2206 10035 20013 39280 48484 5////;
0096066810999992011011204004+47433+009400FM-12+079199999V0202101N002119999999N9999999N1+00341+00121999999ADDMA1999999092811ME1314859REMSYN060AAXX  12044 06681 43/// /2104 10034 20012 39281 48485 5////;
0118066810999992011011205004+47433+009400FM-12+079199999V0202301N003619999999N9999999N1+00351+00161999999ADDMA1999999092881ME1314919REMSYN082AAXX  12054 06681 23/// /2307 10035 20016 39288 48491 5//// 333 553// 20000 69915;
0272066810999992011011206004+47433+009400FM-12+079199999V0202601N002610081019N0100001N1+00351+00151999999ADDAA124002091AL19900291AY161061AY221061GA1081+008101041GF108991999999008001999999GJ100009IA1099IA2999+00109KA1999N+00231MA1999999092981ME1314999MW1021REMSYN112AAXX  12064 06681 41560 82605 10035 20015 39298 48499 5//// 70262 333 20023 31001 55000 70020 88427 90768 93100;
0155066810999992011011207004+47433+009400FM-12+079199999V0202801N003619999999N9999999N1+00291+00171999999ADDMA1999999093031MD1110221+9999ME1315029OA149900931REMSYN094AAXX  12074 06681 23/// /2807 10029 20017 39303 48502 51022 333 55300 20000 69925 91118 91211;
0096066810999992011011208004+47433+009400FM-12+079199999V0202601N002119999999N9999999N1+00271+00151999999ADDMA1999999093061ME1315049REMSYN060AAXX  12084 06681 43/// /2604 10027 20015 39306 48504 5////;
0176066810999992011011209004+47433+009400FM-12+079199999V0202301N001510141019N0100001N1+00291+00171999999ADDAY161031AY221031GA1081+014101071GF108991999999012501999999MA1999999093091ME1315079MW1211REMSYN076AAXX  12094 06681 41660 82303 10029 20017 39309 48507 5//// 72162 333 88747;
0149066810999992011011210004+47433+009400FM-12+079199999V0202201N001519999999N9999999N1+00301+00171999999ADDMA1999999093131MD1219999+9999ME1315119OA149900461REMSYN088AAXX  12104 06681 33/// /2203 10030 20017 39313 48511 52/// 333 55300 20065 91109 91204;
0149066810999992011011211004+47433+009400FM-12+079199999V0202401N001519999999N9999999N1+00391+00151999999ADDMA1999999093081MD1010021+9999ME1315099OA149900621REMSYN088AAXX  12114 06681 33/// /2403 10039 20015 39308 48509 50002 333 55300 20335 91112 91204;
0176066810999992011011212004+47433+009400FM-12+079199999V0202701N001510141019N0100001N1+00401+00161999999ADDAY121061AY221061GA1081+014101071GF108991999999012501999999MA1999999093081ME1315099MW1101REMSYN076AAXX  12124 06681 41660 82703 10040 20016 39308 48509 5//// 71022 333 88747;
0096066810999992011011213004+47433+009400FM-12+079199999V0202501N002619999999N9999999N1+00431+00141999999ADDMA1999999093031ME1315069REMSYN060AAXX  12134 06681 43/// /2505 10043 20014 39303 48506 5////;
0096066810999992011011214004+47433+009400FM-12+079199999V0201901N002119999999N9999999N1+00481+00011999999ADDMA1999999093011ME1315069REMSYN060AAXX  12144 06681 43/// /1904 10048 20001 39301 48506 5////;
0176066810999992011011215004+47433+009400FM-12+079199999V0202401N003110099019N0100001N1+00451+00081999999ADDAY121031AY221031GA1081+009901071GF108991999999008001999999MA1999999093031ME1315069MW1101REMSYN076AAXX  12154 06681 41560 82406 10045 20008 39303 48506 5//// 71022 333 88733;
0155066810999992011011216004+47433+009400FM-12+079199999V0202401N003119999999N9999999N1+00341+00131999999ADDMA1999999093041MD1210011+9999ME1315049OA149900771REMSYN094AAXX  12164 06681 23/// /2406 10034 20013 39304 48504 52001 333 55300 20004 60015 91115 91206;
0155066810999992011011217004+47433+009400FM-12+079199999V0202501N002119999999N9999999N1+00301+00131999999ADDMA1999999092981MD1810031+9999ME1314989OA149900771REMSYN094AAXX  12174 06681 23/// /2504 10030 20013 39298 48498 58003 333 55300 20000 69965 91115 91207;
0301066810999992011011218004+47433+009400FM-12+079199999V0201501N00051008101CN0100001N1+00301+00161999999ADDAA112002091AL19900091AY161061AY221061GA1081+008101071GF108991999999008001999999IA1099KA1120M+00501MA1999999092981MD1710051+9999ME1314989MW1021OA149900931REMSYN136AAXX  12184 06681 01560 81501 10030 20016 39298 48498 57005 60022 70262 333 10050 31/// 55300 20000 69915 88727 90766 93100 91118 91211;
0155066810999992011011219004+47433+009400FM-12+079199999V0202101N002619999999N9999999N1+00411+00211999999ADDMA1999999092961MD1510081+9999ME1314999OA149900771REMSYN094AAXX  12194 06681 23/// /2105 10041 20021 39296 48499 55008 333 55300 20000 69985 91115 91207;
0155066810999992011011220004+47433+009400FM-12+079199999V0202201N002119999999N9999999N1+00481+00281999999ADDMA1999999092951MD1810031+9999ME1315009OA149900931REMSYN094AAXX  12204 06681 23/// /2204 10048 20028 39295 48500 58003 333 55300 20000 69975 91118 91208;
0155066810999992011011221004+47433+009400FM-12+079199999V0202301N003619999999N9999999N1+00581+00361999999ADDMA1999999092951MD1710031+9999ME1315039OA149900931REMSYN094AAXX  12214 06681 23/// /2307 10058 20036 39295 48503 57003 333 55300 20000 60015 91118 91209;
0155066810999992011011222004+47433+009400FM-12+079199999V0202501N002119999999N9999999N1+00611+00441999999ADDMA1999999092931MD1710031+9999ME1315029OA149900881REMSYN094AAXX  12224 06681 23/// /2504 10061 20044 39293 48502 57003 333 55300 20000 60015 91117 91209;
0155066810999992011011223004+47433+009400FM-12+079199999V0202301N003619999999N9999999N1+00631+00451999999ADDMA1999999092931MD1710021+9999ME1315039OA149900771REMSYN094AAXX  12234 06681 23/// /2307 10063 20045 39293 48503 57002 333 55300 20000 60015 91115 91207;
0172066810999992011011300004+47433+009400FM-12+079199999V0202201N005119999999N9999999N1+00661+00481999999ADDAA106007191MA1999999092921MD1710031+9999ME1315039OA149901291REMSYN100AAXX  13004 06681 03/// /2210 10066 20048 39292 48503 57003 60071 333 55300 20000 60025 91125 91211;
0155066810999992011011301004+47433+009400FM-12+079199999V0202301N005719999999N9999999N1+00681+00491999999ADDMA1999999092871MD1710061+9999ME1314999OA149901291REMSYN094AAXX  13014 06681 23/// /2311 10068 20049 39287 48499 57006 333 55300 20000 60035 91125 91211;
0155066810999992011011302004+47433+009400FM-12+079199999V0202401N005119999999N9999999N1+00731+00541999999ADDMA1999999092851MD1719999+9999ME1314989OA149901241REMSYN094AAXX  13024 06681 23/// /2410 10073 20054 39285 48498 57/// 333 55300 20000 60015 91124 91212;
0096066810999992011011303004+47433+009400FM-12+079199999V0202301N004619999999N9999999N1+00751+00571999999ADDMA1999999092841ME1314989REMSYN060AAXX  13034 06681 43/// /2309 10075 20057 39284 48498 5////;
0155066810999992011011304004+47433+009400FM-12+079199999V0202301N004619999999N9999999N1+00781+00551999999ADDMA1999999092851MD1410001+9999ME1315009OA149901181REMSYN094AAXX  13044 06681 23/// /2309 10078 20055 39285 48500 54/// 333 55300 20000 69935 91123 91209;
0118066810999992011011305004+47433+009400FM-12+079199999V0202301N005119999999N9999999N1+00781+00561999999ADDMA1999999092861ME1315019REMSYN082AAXX  13054 06681 23/// /2310 10078 20056 39286 48501 5//// 333 553// 20000 69925;
0343066810999992011011306004+47433+009400FM-12+079199999V0202301N00511003901CN0003001N1+00781+00581999999ADDAA112015091AL14201691AL29900091AY161061AY261061GA1081+003901071GF108991999999004501999999GJ100009IA1099IA2999+00209KA1999N+00301MA1999999092881MD1210041+9999ME1315029MW1611OA149901291REMSYN148AAXX  13064 06681 01403 82310 10078 20058 39288 48502 52004 60152 76166 333 20030 31002 55000 55300 20000 60025 70167 88713 90768 93100 91125 91212;
0096066810999992011011307004+47433+009400FM-12+079199999V0202301N005719999999N9999999N1+00791+00561999999ADDMA1999999092871ME1315029REMSYN060AAXX  13074 06681 43/// /2311 10079 20056 39287 48502 5////;
0096066810999992011011308004+47433+009400FM-12+079199999V0202401N006219999999N9999999N1+00841+00581999999ADDMA1999999092891ME1315059REMSYN060AAXX  13084 06681 43/// /2412 10084 20058 39289 48505 5////;
0176066810999992011011309004+47433+009400FM-12+079199999V0202401N005110120019N0008001N1+00861+00631999999ADDAY161031AY261031GA1081+012001071GF108991999999012501999999MA1999999092911ME1315079MW1631REMSYN076AAXX  13094 06681 41608 82410 10086 20063 39291 48507 5//// 76366 333 88740;
0096066810999992011011310004+47433+009400FM-12+079199999V0202301N005119999999N9999999N1+00821+00621999999ADDMA1999999092951ME1315109REMSYN060AAXX  13104 06681 43/// /2310 10082 20062 39295 48510 5////;
0096066810999992011011311004+47433+009400FM-12+079199999V0202201N005119999999N9999999N1+00831+00631999999ADDMA1999999092951ME1315109REMSYN060AAXX  13114 06681 43/// /2210 10083 20063 39295 48510 5////;
0176066810999992011011312004+47433+009400FM-12+079199999V0202201N005110141019N0150001N1+00841+00621999999ADDAY161061AY261061GA1081+014101041GF108991999999012501999999MA1999999092901ME1315069MW1011REMSYN076AAXX  13124 06681 41665 82210 10084 20062 39290 48506 5//// 70166 333 88447;
0096066810999992011011313004+47433+009400FM-12+079199999V0202301N004619999999N9999999N1+00901+00601999999ADDMA1999999092881ME1315069REMSYN060AAXX  13134 06681 43/// /2309 10090 20060 39288 48506 5////;
0096066810999992011011314004+47433+009400FM-12+079199999V0202301N003619999999N9999999N1+00921+00581999999ADDMA1999999092931ME1315119REMSYN060AAXX  13144 06681 43/// /2307 10092 20058 39293 48511 5////;
0176066810999992011011315004+47433+009400FM-12+079199999V0202201N004610141019N0200001N1+00911+00541999999ADDAY161031AY221031GA1071+014101041GF107991999999012501999999MA1999999092941ME1315119MW1021REMSYN076AAXX  13154 06681 41670 72209 10091 20054 39294 48511 5//// 70262 333 87447;
0096066810999992011011316004+47433+009400FM-12+079199999V0202201N003619999999N9999999N1+00931+00511999999ADDMA1999999092931ME1315119REMSYN060AAXX  13164 06681 43/// /2207 10093 20051 39293 48511 5////;
0155066810999992011011317004+47433+009400FM-12+079199999V0202201N004119999999N9999999N1+00961+00511999999ADDMA1999999092961MD1210031+9999ME1315149OA149901181REMSYN094AAXX  13174 06681 23/// /2208 10096 20051 39296 48514 52003 333 55300 20000 69915 91123 91211;
0273066810999992011011318004+47433+009400FM-12+079199999V0202201N00311014101CN0150001N1+00961+00541999999ADDAA112007191AL19900091GA1071+014101061GF107991999999012501999999IA1119KA1120M+00971MA1999999092981MD1210051+9999ME1315169OA149901601REMSYN130AAXX  13184 06681 02665 72206 10096 20054 39298 48516 52005 60072 333 10097 32/// 55300 20000 60005 87647 90766 93100 91131 91214;
0155066810999992011011319004+47433+009400FM-12+079199999V0202201N003619999999N9999999N1+00931+00601999999ADDMA1999999092981MD1110051+9999ME1315159OA149900881REMSYN094AAXX  13194 06681 23/// /2207 10093 20060 39298 48515 51005 333 55300 20000 69935 91117 91208;
0155066810999992011011320004+47433+009400FM-12+079199999V0202201N003619999999N9999999N1+00861+00681999999ADDMA1999999093011MD1310051+9999ME1315169OA149900881REMSYN094AAXX  13204 06681 23/// /2207 10086 20068 39301 48516 53005 333 55300 20000 69965 91117 91208;
0155066810999992011011321004+47433+009400FM-12+079199999V0202101N004119999999N9999999N1+00881+00671999999ADDMA1999999093001MD1210021+9999ME1315169OA149901181REMSYN094AAXX  13214 06681 23/// /2108 10088 20067 39300 48516 52002 333 55300 20000 69925 91123 91211;
0155066810999992011011322004+47433+009400FM-12+079199999V0202101N003119999999N9999999N1+00861+00681999999ADDMA1999999093011MD1210031+9999ME1315169OA149900931REMSYN094AAXX  13224 06681 23/// /2106 10086 20068 39301 48516 52003 333 55300 20000 69935 91118 91209;
0155066810999992011011323004+47433+009400FM-12+079199999V0202101N002619999999N9999999N1+00861+00661999999ADDMA1999999093011MD1510001+9999ME1315169OA149900771REMSYN094AAXX  13234 06681 23/// /2105 10086 20066 39301 48516 55000 333 55300 20000 60015 91115 91208;
0172066810999992011011400004+47433+009400FM-12+079199999V0202101N003119999999N9999999N1+00841+00661999999ADDAA106003091MA1999999093021MD1210021+9999ME1315169OA149901241REMSYN100AAXX  14004 06681 03/// /2106 10084 20066 39302 48516 52002 60031 333 55300 20000 69955 91124 91211;
0155066810999992011011401004+47433+009400FM-12+079199999V0202101N002619999999N9999999N1+00851+00631999999ADDMA1999999093031MD1210021+9999ME1315179OA149900671REMSYN094AAXX  14014 06681 23/// /2105 10085 20063 39303 48517 52002 333 55300 20000 69935 91113 91207;
0118066810999992011011402004+47433+009400FM-12+079199999V0202101N002619999999N9999999N1+00841+00611999999ADDMA1999999093061ME1315209REMSYN082AAXX  14024 06681 23/// /2105 10084 20061 39306 48520 5//// 333 553// 20000 69915;
0149066810999992011011403004+47433+009400FM-12+079199999V0202201N004119999999N9999999N1+00871+00551999999ADDMA1999999093061MD1210041+9999ME1315219OA149900981REMSYN088AAXX  14034 06681 33/// /2208 10087 20055 39306 48521 52004 333 55300 20000 91119 91208;
0149066810999992011011404004+47433+009400FM-12+079199999V0202301N004119999999N9999999N1+00881+00551999999ADDMA1999999093041MD1010011+9999ME1315199OA149900981REMSYN088AAXX  14044 06681 33/// /2308 10088 20055 39304 48519 50001 333 55300 20000 91119 91208;
0149066810999992011011405004+47433+009400FM-12+079199999V0202301N002119999999N9999999N1+00861+00531999999ADDMA1999999093041MD1710021+9999ME1315199OA149900881REMSYN088AAXX  14054 06681 33/// /2304 10086 20053 39304 48519 57002 333 55300 20000 91117 91208;
0343066810999992011011406004+47433+009400FM-12+079199999V0202301N00261014101CN0150001N1+00821+00511999999ADDAA112003091AL14201091AL29900091AY161061AY221061GA1061+014101061GF106991999999012501999999GJ100069IA1119IA2999+00709KA1999N+00831MA1999999093051MD1510011+9999ME1315189MW1021OA149900981REMSYN148AAXX  14064 06681 01665 62305 10082 20051 39305 48518 55001 60032 70262 333 20083 32007 55001 55300 20000 60005 70107 86647 90768 93100 91119 91209;
0149066810999992011011407004+47433+009400FM-12+079199999V0202301N003119999999N9999999N1+00831+00501999999ADDMA1999999093081MD1210041+9999ME1315219OA149900621REMSYN088AAXX  14074 06681 33/// /2306 10083 20050 39308 48521 52004 333 55300 20000 91112 91206;
0096066810999992011011408004+47433+009400FM-12+079199999V0202201N003119999999N9999999N1+00791+00461999999ADDMA1999999093071ME1315199REMSYN060AAXX  14084 06681 43/// /2206 10079 20046 39307 48519 5////;
0148066810999992011011409004+47433+009400FM-12+079199999V0202301N001512200019N0150001N1+00791+00481999999ADDGA1021+015001061GF102991999999017501999999MA1999999093081ME1315209REMSYN070AAXX  14094 06681 42765 22303 10079 20048 39308 48520 5//// 333 82650;
0096066810999992011011410004+47433+009400FM-12+079199999V0202401N001019999999N9999999N1+00861+00491999999ADDMA1999999093061ME1315209REMSYN060AAXX  14104 06681 43/// /2402 10086 20049 39306 48520 5////;
0149066810999992011011411004+47433+009400FM-12+079199999V0202801N002119999999N9999999N1+00861+00511999999ADDMA1999999093051MD1810021+9999ME1315199OA149900511REMSYN088AAXX  14114 06681 33/// /2804 10086 20051 39305 48519 58002 333 55302 20608 91110 91204;
0197066810999992011011412004+47433+009400FM-12+079199999V0202801N00151021001CN0150001N1+00851+00471999999ADDGA1081+021001041GF108991999999022501999999MA1999999093021MD1710061+9999ME1315179OA149900981REMSYN094AAXX  14124 06681 32865 82803 10085 20047 39302 48517 57006 333 55300 20266 88457 91119 91208;
0149066810999992011011413004+47433+009400FM-12+079199999V0202901N002119999999N9999999N1+00821+00441999999ADDMA1999999092961MD1710101+9999ME1315109OA149900461REMSYN088AAXX  14134 06681 33/// /2904 10082 20044 39296 48510 57010 333 55300 20284 91109 91204;
0112066810999992011011414004+47433+009400FM-12+079199999V0202701N001519999999N9999999N1+00831+00411999999ADDMA1999999092981ME1315129REMSYN076AAXX  14144 06681 33/// /2703 10083 20041 39298 48512 5//// 333 553// 20173;
0197066810999992011011415004+47433+009400FM-12+079199999V0202501N00151014101CN0150001N1+00801+00391999999ADDGA1081+014101061GF108991999999012501999999MA1999999092981MD1510041+9999ME1315129OA149900511REMSYN094AAXX  14154 06681 32665 82503 10080 20039 39298 48512 55004 333 55300 20104 88647 91110 91204;
0168066810999992011011416004+47433+009400FM-12+079199999V0201801N001019999999N9999999N1+00761+00421999999ADDMA1999999092961MD1410001+9999ME1315099OA149900361REMSYN088AAXX  14164 06681 33/// /1802 10076 20042 39296 48509 58000 333 55300 20032 91107 91204;EQDQ01+000082APCTEN
0149066810999992011011417004+47433+009400FM-12+079199999V0202301N001019999999N9999999N1+00671+00381999999ADDMA1999999092921MD1810061+9999ME1315039OA149900311REMSYN088AAXX  14174 06681 33/// /2302 10067 20038 39292 48503 58006 333 55300 20000 91106 91202;
0250066810999992011011418004+47433+009400FM-12+079199999V0202101N00101014101CN0150001N1+00561+00331999999ADDAL19900091GA1071+014101061GF107991999999012501999999IA1099KA1120M+00891MA1999999092871MD1810111+9999ME1314969OA149900721REMSYN118AAXX  14184 06681 32665 72102 10056 20033 39287 48496 58011 333 10089 31/// 55300 20000 87647 90766 93100 91114 91207;
0149066810999992011011419004+47433+009400FM-12+079199999V0201901N001519999999N9999999N1+00481+00301999999ADDMA1999999092841MD1610121+9999ME1314919OA149900261REMSYN088AAXX  14194 06681 33/// /1903 10048 20030 39284 48491 56012 333 55300 20000 91105 91204;
0149066810999992011011420004+47433+009400FM-12+079199999V0201901N001519999999N9999999N1+00511+00321999999ADDMA1999999092831MD1710091+9999ME1314919OA149900261REMSYN088AAXX  14204 06681 33/// /1903 10051 20032 39283 48491 57009 333 55300 20000 91105 91204;
0149066810999992011011421004+47433+009400FM-12+079199999V0202101N002619999999N9999999N1+00531+00271999999ADDMA1999999092871MD1410001+9999ME1314959OA149900461REMSYN088AAXX  14214 06681 33/// /2105 10053 20027 39287 48495 53000 333 55300 20000 91109 91205;
0149066810999992011011422004+47433+009400FM-12+079199999V0202401N002619999999N9999999N1+00611+00301999999ADDMA1999999092931MD1310091+9999ME1315029OA149900671REMSYN088AAXX  14224 06681 33/// /2405 10061 20030 39293 48502 53009 333 55300 20000 91113 91206;
0149066810999992011011423004+47433+009400FM-12+079199999V0202501N005719999999N9999999N1+00711+00291999999ADDMA1999999093011MD1210181+9999ME1315129OA149901131REMSYN088AAXX  14234 06681 33/// /2511 10071 20029 39301 48512 52018 333 55300 20000 91122 91211;
0149066810999992011011500004+47433+009400FM-12+079199999V0202401N003619999999N9999999N1+00731+00301999999ADDMA1999999093061MD1210191+9999ME1315179OA149901131REMSYN088AAXX  15004 06681 33/// /2407 10073 20030 39306 48517 52019 333 55300 20000 91122 91211;
0149066810999992011011501004+47433+009400FM-12+079199999V0202401N006219999999N9999999N1+00781+00211999999ADDMA1999999093071MD1210141+9999ME1315199OA149901751REMSYN088AAXX  15014 06681 33/// /2412 10078 20021 39307 48519 52014 333 55300 20000 91134 91215;
0155066810999992011011502004+47433+009400FM-12+079199999V0202501N005119999999N9999999N1+00601+00391999999ADDMA1999999093231MD1219999+9999ME1315289OA149901751REMSYN094AAXX  15024 06681 23/// /2510 10060 20039 39323 48528 52/// 333 55300 20000 60015 91134 91215;
0118066810999992011011503004+47433+009400FM-12+079199999V0202301N003619999999N9999999N1+00561+00351999999ADDMA1999999093271ME1315309REMSYN082AAXX  15034 06681 23/// /2307 10056 20035 39327 48530 5//// 333 553// 20000 69955;
0155066810999992011011504004+47433+009400FM-12+079199999V0202601N004119999999N9999999N1+00601+00371999999ADDMA1999999093361MD1210291+9999ME1315399OA149901241REMSYN094AAXX  15044 06681 23/// /2608 10060 20037 39336 48539 52029 333 55300 20000 69935 91124 91210;
0149066810999992011011505004+47433+009400FM-12+079199999V0202601N005119999999N9999999N1+00571+00311999999ADDMA1999999093441MD1210211+9999ME1315459OA149901391REMSYN088AAXX  15054 06681 33/// /2610 10057 20031 39344 48545 52021 333 55300 20000 91127 91210;
0343066810999992011011506004+47433+009400FM-12+079199999V0202501N00361012001CN0150001N1+00531+00231999999ADDAA112002091AL14800191AL29900091AY161061AY221061GA1071+012001061GF107991999999012501999999GJ100729IA1099IA2999+00109KA1999N+00471MA1999999093561MD1310291+9999ME1315549MW1011OA149901751REMSYN148AAXX  15064 06681 01665 72507 10053 20023 39356 48554 53029 60022 70162 333 20047 31001 55012 55300 20000 60005 70019 87640 90768 93100 91134 91215;
0149066810999992011011507004+47433+009400FM-12+079199999V0202201N002619999999N9999999N1+00441+00151999999ADDMA1999999093601MD1210241+9999ME1315559OA149901031REMSYN088AAXX  15074 06681 33/// /2205 10044 20015 39360 48555 52024 333 55300 20000 91120 91208;
0149066810999992011011508004+47433+009400FM-12+079199999V0201801N002619999999N9999999N1+00501+00191999999ADDMA1999999093651MD1219999+9999ME1315619OA149900721REMSYN088AAXX  15084 06681 33/// /1805 10050 20019 39365 48561 52/// 333 55300 20047 91114 91207;
0197066810999992011011509004+47433+009400FM-12+079199999V0202201N003112200019N0200001N1+00581+00181999999ADDGA1031+014101061GF103991999999012501999999MA1999999093681MD1210121+9999ME1315669OA149901391REMSYN094AAXX  15094 06681 32670 32206 10058 20018 39368 48566 52012 333 55304 20292 83647 91127 91210;
0149066810999992011011510004+47433+009400FM-12+079199999V0202301N002119999999N9999999N1+00701+00181999999ADDMA1999999093681MD1210081+9999ME1315699OA149900621REMSYN088AAXX  15104 06681 33/// /2304 10070 20018 39368 48569 52008 333 55305 20616 91112 91206;
0149066810999992011011511004+47433+009400FM-12+079199999V0202401N002119999999N9999999N1+00751+00201999999ADDMA1999999093641MD1810011+9999ME1315689OA149900461REMSYN088AAXX  15114 06681 33/// /2404 10075 20020 39364 48568 58001 333 55304 20752 91109 91204;
0197066810999992011011512004+47433+009400FM-12+079199999V0202501N00101014101CN0200001N1+00751+00191999999ADDGA1071+014101061GF107991999999012501999999MA1999999093611MD1710071+9999ME1315659OA149901751REMSYN094AAXX  15124 06681 32670 72502 10075 20019 39361 48565 57007 333 55301 20655 87647 91134 91215;
0112066810999992011011513004+47433+009400FM-12+079199999V0203101N001019999999N9999999N1+00721+00211999999ADDMA1999999093611ME1315649REMSYN076AAXX  15134 06681 33/// /3102 10072 20021 39361 48564 5//// 333 553// 20443;
0096066810999992011011514004+47433+009400FM-12+079199999V0202701N000519999999N9999999N1+00751+00261999999ADDMA1999999093641ME1315689REMSYN060AAXX  15144 06681 43/// /2701 10075 20026 39364 48568 5////;
0154066810999992011011515004+47433+009400FM-12+079199999V0201101N000519999999N0150001N1+00651+00251999999ADDGA1011+012001061GF106991999999012501999999MA1999999093651ME1315659REMSYN076AAXX  15154 06681 42665 61101 10065 20025 39365 48565 5//// 333 81640 86457;
0096066810999992011011516004+47433+009400FM-12+079199999V0201701N001519999999N9999999N1+00561+00241999999ADDMA1999999093671ME1315659REMSYN060AAXX  15164 06681 43/// /1703 10056 20024 39367 48565 5////;
0112066810999992011011517004+47433+009400FM-12+079199999V0201701N001019999999N9999999N1+00471+00181999999ADDMA1999999093671ME1315629REMSYN076AAXX  15174 06681 33/// /1702 10047 20018 39367 48562 5//// 333 553// 20004;
0201066810999992011011518004+47433+009400FM-12+079199999V0201801N000512200019N0150001N1+00441+00151999999ADDAL10600091GA1021+018001061GF102991999999017501999999IA1099KA1120M+00761MA1999999093671ME1315619REMSYN094AAXX  15184 06681 42765 21801 10044 20015 39367 48561 5//// 333 10076 31/// 82656 90766 93100;
0096066810999992011011519004+47433+009400FM-12+079199999V0201701N001519999999N9999999N1+00491+00131999999ADDMA1999999093661ME1315629REMSYN060AAXX  15194 06681 43/// /1703 10049 20013 39366 48562 5////;
0096066810999992011011520004+47433+009400FM-12+079199999V0200701N000519999999N9999999N1+00501+00061999999ADDMA1999999093651ME1315619REMSYN060AAXX  15204 06681 43/// /0701 10050 20006 39365 48561 5////;
0149066810999992011011521004+47433+009400FM-12+079199999V0200901N002119999999N9999999N1+00561+00151999999ADDMA1999999093701MD1310031+9999ME1315679OA149900311REMSYN088AAXX  15214 06681 33/// /0904 10056 20015 39370 48567 53003 333 55300 20000 91106 91204;
0149066810999992011011522004+47433+009400FM-12+079199999V0201801N000519999999N9999999N1+00511+00051999999ADDMA1999999093701MD1210041+9999ME1315669OA149900311REMSYN088AAXX  15224 06681 33/// /1801 10051 20005 39370 48566 52004 333 55300 20000 91106 91204;
0149066810999992011011523004+47433+009400FM-12+079199999V0201901N000519999999N9999999N1+00481+00011999999ADDMA1999999093661MD1010011+9999ME1315619OA149900211REMSYN088AAXX  15234 06681 33/// /1901 10048 20001 39366 48561 50001 333 55300 20000 91104 91203;
0149066810999992011011600004+47433+009400FM-12+079199999V0201701N000519999999N9999999N1+00511-00361999999ADDMA1999999093631MD1710071+9999ME1315609OA149900571REMSYN088AAXX  16004 06681 33/// /1701 10051 21036 39363 48560 57007 333 55300 20000 91111 91205;
0149066810999992011011601004+47433+009400FM-12+079199999V0200701N000519999999N9999999N1+00631-00461999999ADDMA1999999093601MD1710101+9999ME1315619OA149900151REMSYN088AAXX  16014 06681 33/// /0701 10063 21046 39360 48561 57010 333 55300 20000 91103 91202;
0149066810999992011011602004+47433+009400FM-12+079199999V0202101N000519999999N9999999N1+00531-00341999999ADDMA1999999093611MD1519999+9999ME1315599OA149900151REMSYN088AAXX  16024 06681 33/// /2101 10053 21034 39361 48559 55/// 333 55300 20000 91103 91202;
0096066810999992011011603004+47433+009400FM-12+079199999V0209999C000019999999N9999999N1+00591-00461999999ADDMA1999999093571ME1315579REMSYN060AAXX  16034 06681 43/// /0000 10059 21046 39357 48557 5////;
0149066810999992011011604004+47433+009400FM-12+079199999V0201801N000519999999N9999999N1+00551-00471999999ADDMA1999999093561MD1710041+9999ME1315559OA149900151REMSYN088AAXX  16044 06681 33/// /1801 10055 21047 39356 48555 57004 333 55300 20000 91103 91202;
0149066810999992011011605004+47433+009400FM-12+079199999V0209999C000019999999N9999999N1+00531-00241999999ADDMA1999999093551MD1710061+9999ME1315539OA149900101REMSYN088AAXX  16054 06681 33/// /0000 10053 21024 39355 48553 57006 333 55300 20000 91102 91202;
0310066810999992011011606004+47433+009400FM-12+079199999V0209999C000012200019N0100001N1+00401-00181999999ADDAL19900091AY121061AY221061GA1021+014101061GF102991999999012501999999GJ101089IA1099IA2999-00109KA1999N+00441MA1999999093581MD1310011+9999ME1315529MW1101OA149900311REMSYN136AAXX  16064 06681 31660 20000 10040 21018 39358 48552 53001 71022 333 20044 31101 55018 55300 20000 70000 82647 90768 93100 91106 91204;
0149066810999992011011607004+47433+009400FM-12+079199999V0202201N000519999999N9999999N1+00381-00011999999ADDMA1999999093611MD1210051+9999ME1315549OA149900151REMSYN088AAXX  16074 06681 33/// /2201 10038 21001 39361 48554 52005 333 55300 20000 91103 91201;
0149066810999992011011608004+47433+009400FM-12+079199999V0202701N000519999999N9999999N1+00391+00071999999ADDMA1999999093661MD1319999+9999ME1315599OA149900151REMSYN088AAXX  16084 06681 33/// /2701 10039 20007 39366 48559 53/// 333 55300 20036 91103 91201;
0197066810999992011011609004+47433+009400FM-12+079199999V0201701N000512200019N0250001N1+00491+00091999999ADDGA1011+018001061GF101991999999017501999999MA1999999093691MD1110111+9999ME1315649OA149900151REMSYN094AAXX  16094 06681 32775 11701 10049 20009 39369 48564 51011 333 55305 20385 81656 91103 91202;
0149066810999992011011610004+47433+009400FM-12+079199999V0209999C000019999999N9999999N1+00601+00251999999ADDMA1999999093691MD1210081+9999ME1315679OA149900101REMSYN088AAXX  16104 06681 33/// /0000 10060 20025 39369 48567 52008 333 553// 20943 91102 91201;
0168066810999992011011611004+47433+009400FM-12+079199999V0201301N000519999999N9999999N1+00751+00161999999ADDMA1999999093661MD1410001+9999ME1315699OA149900101REMSYN088AAXX  16114 06681 33/// /1301 10075 20016 39366 48569 58000 333 553// 2//// 91102 91201;EQDQ01+000082APCTEN
0191066810999992011011612004+47433+009400FM-12+079199999V0200101N000512200019N0300001N1+00681+00251999999ADDGA1001+999999999GF100991001001999999001001MA1999999093621MD1710071+9999ME1315649OA149900151REMSYN088AAXX  16124 06681 32/80 00101 10068 20025 39362 48564 57007 333 553// 2//// 91103 91202;
0149066810999992011011613004+47433+009400FM-12+079199999V0200201N000519999999N9999999N1+00631+00171999999ADDMA1999999093591MD1810101+9999ME1315609OA149900211REMSYN088AAXX  16134 06681 33/// /0201 10063 20017 39359 48560 58010 333 553// 2//// 91104 91203;
0149066810999992011011614004+47433+009400FM-12+079199999V0200501N000519999999N9999999N1+00701+00151999999ADDMA1999999093561MD1619999+9999ME1315599OA149900211REMSYN088AAXX  16144 06681 33/// /0501 10070 20015 39356 48559 56/// 333 553// 20983 91104 91203;
0191066810999992011011615004+47433+009400FM-12+079199999V0209999C000012200019N0300001N1+00681+00171999999ADDGA1001+999999999GF100991001001999999001001MA1999999093541MD1610081+9999ME1315579OA149900211REMSYN088AAXX  16154 06681 32/80 00000 10068 20017 39354 48557 56008 333 553// 20587 91104 91203;
0149066810999992011011616004+47433+009400FM-12+079199999V0201601N000519999999N9999999N1+00661+00091999999ADDMA1999999093521MD1610071+9999ME1315559OA149900151REMSYN088AAXX  16164 06681 33/// /1601 10066 20009 39352 48555 56007 333 55302 20094 91103 91201;
0149066810999992011011617004+47433+009400FM-12+079199999V0201801N000519999999N9999999N1+00661+00051999999ADDMA1999999093521MD1710041+9999ME1315559OA149900151REMSYN088AAXX  16174 06681 33/// /1801 10066 20005 39352 48555 57004 333 55300 20000 91103 91202;
0244066810999992011011618004+47433+009400FM-12+079199999V0201901N000512200019N0300001N1+00611-00301999999ADDAL19900091GA1001+999999999GF100991001001999999001001IA1099KA1120M+00781MA1999999093551MD1310011+9999ME1315569OA149900211REMSYN112AAXX  16184 06681 32/80 01901 10061 21030 39355 48556 53001 333 10078 31/// 55300 20000 90766 93100 91104 91203;
0149066810999992011011619004+47433+009400FM-12+079199999V0200901N001019999999N9999999N1+00641-00261999999ADDMA1999999093561MD1210041+9999ME1315579OA149900151REMSYN088AAXX  16194 06681 33/// /0902 10064 21026 39356 48557 52004 333 55300 20000 91103 91202;
0149066810999992011011620004+47433+009400FM-12+079199999V0201701N000519999999N9999999N1+00751-00591999999ADDMA1999999093561MD1210041+9999ME1315619OA149900151REMSYN088AAXX  16204 06681 33/// /1701 10075 21059 39356 48561 52004 333 55300 20000 91103 91202;
0149066810999992011011621004+47433+009400FM-12+079199999V0202001N000519999999N9999999N1+00791-00721999999ADDMA1999999093571MD1210021+9999ME1315639OA149900151REMSYN088AAXX  16214 06681 33/// /2001 10079 21072 39357 48563 52002 333 55300 20000 91103 91202;
0149066810999992011011622004+47433+009400FM-12+079199999V0201901N000519999999N9999999N1+00641-00631999999ADDMA1999999093581MD1210021+9999ME1315599OA149900151REMSYN088AAXX  16224 06681 33/// /1901 10064 21063 39358 48559 52002 333 55300 20000 91103 91202;
0149066810999992011011623004+47433+009400FM-12+079199999V0201701N000519999999N9999999N1+00771-00701999999ADDMA1999999093581MD1210021+9999ME1315639OA149900151REMSYN088AAXX  16234 06681 33/// /1701 10077 21070 39358 48563 52002 333 55300 20000 91103 91202;
0149066810999992011011700004+47433+009400FM-12+079199999V0209999C000019999999N9999999N1+00721-00641999999ADDMA1999999093581MD1210011+9999ME1315619OA149900211REMSYN088AAXX  17004 06681 33/// /0000 10072 21064 39358 48561 52001 333 55300 20000 91104 91203;
0149066810999992011011701004+47433+009400FM-12+079199999V0201701N001019999999N9999999N1+00811-00611999999ADDMA1999999093561MD1710021+9999ME1315629OA149900261REMSYN088AAXX  17014 06681 33/// /1702 10081 21061 39356 48562 57002 333 55300 20000 91105 91202;
0149066810999992011011702004+47433+009400FM-12+079199999V0201801N000519999999N9999999N1+00801-00641999999ADDMA1999999093571MD1519999+9999ME1315639OA149900261REMSYN088AAXX  17024 06681 33/// /1801 10080 21064 39357 48563 55/// 333 55300 20000 91105 91203;
0112066810999992011011703004+47433+009400FM-12+079199999V0201701N001019999999N9999999N1+00841-00651999999ADDMA1999999093551ME1315629REMSYN076AAXX  17034 06681 33/// /1702 10084 21065 39355 48562 5//// 333 553// 20000;
0149066810999992011011704004+47433+009400FM-12+079199999V0209999C000019999999N9999999N1+00791-00621999999ADDMA1999999093531MD1710031+9999ME1315599OA149900211REMSYN088AAXX  17044 06681 33/// /0000 10079 21062 39353 48559 57003 333 55300 20000 91104 91203;
0149066810999992011011705004+47433+009400FM-12+079199999V0209999C000019999999N9999999N1+00661-00591999999ADDMA1999999093491MD1810081+9999ME1315529OA149900211REMSYN088AAXX  17054 06681 33/// /0000 10066 21059 39349 48552 58008 333 55300 20000 91104 91203;
