0149066930999992011012414004+47267+009100FM-12+062399999V0202701N000519999999N9999999N1-00121-00641999999ADDMA1999999094841MD1710151+9999ME1315009OA149900211REMSYN088AAXX  24144 06693 33/// /2701 11012 21064 39484 48500 57015 333 55300 20598 91104 91203;
0149066930999992011012415004+47267+009100FM-12+062399999V0209999C000019999999N9999999N1-00171-00581999999ADDMA1999999094831MD1710091+9999ME1314979OA149900211REMSYN088AAXX  24154 06693 33/// /0000 11017 21058 39483 48497 57009 333 55300 20410 91104 91203;
0149066930999992011012416004+47267+009100FM-12+062399999V0200601N000519999999N9999999N1-00221-00441999999ADDMA1999999094821MD1710051+9999ME1314959OA149900151REMSYN088AAXX  24164 06693 33/// /0601 11022 21044 39482 48495 57005 333 55300 20162 91103 91202;
0149066930999992011012417004+47267+009100FM-12+062399999V0202201N000519999999N9999999N1-00261-00391999999ADDMA1999999094821MD1610021+9999ME1314939OA149900151REMSYN088AAXX  24174 06693 33/// /2201 11026 21039 39482 48493 56002 333 55300 20022 91103 91202;
0168066930999992011012418004+47267+009100FM-12+062399999V0203301N001519999999N9999999N1-00241-00371999999ADDKA1120M-00121MA1999999094831MD1410001+9999ME1314959OA149900211REMSYN094AAXX  24184 06693 33/// /3303 11024 21037 39483 48495 54000 333 11012 55300 20011 91104 91203;
0149066930999992011012419004+47267+009100FM-12+062399999V0200501N000519999999N9999999N1-00291-00351999999ADDMA1999999094841MD1210021+9999ME1314949OA149900211REMSYN088AAXX  24194 06693 33/// /0501 11029 21035 39484 48494 52002 333 55300 20011 91104 91203;
0149066930999992011012420004+47267+009100FM-12+062399999V0201901N001019999999N9999999N1-00251-00331999999ADDMA1999999094831MD1010011+9999ME1314949OA149900211REMSYN088AAXX  24204 06693 33/// /1902 11025 21033 39483 48494 50001 333 55300 20011 91104 91202;
0149066930999992011012421004+47267+009100FM-12+062399999V0209999C000019999999N9999999N1-00251-00341999999ADDMA1999999094791MD1810041+9999ME1314919OA149900211REMSYN088AAXX  24214 06693 33/// /0000 11025 21034 39479 48491 58004 333 55300 20011 91104 91203;
0149066930999992011012422004+47267+009100FM-12+062399999V0202601N000519999999N9999999N1-00291-00311999999ADDMA1999999094731MD1810111+9999ME1314859OA149900151REMSYN088AAXX  24224 06693 33/// /2601 11029 21031 39473 48485 58011 333 55300 20011 91103 91202;
0149066930999992011012423004+47267+009100FM-12+062399999V0209999C000019999999N9999999N1-00291-00301999999ADDMA1999999094721MD1610111+9999ME1314849OA149900101REMSYN088AAXX  24234 06693 33/// /0000 11029 21030 39472 48484 56011 333 55300 20011 91102 91201;
0149066930999992011012500004+47267+009100FM-12+062399999V0209999C000019999999N9999999N1-00281-00291999999ADDMA1999999094651MD1810141+9999ME1314799OA149900211REMSYN088AAXX  25004 06693 33/// /0000 11028 21029 39465 48479 58014 333 55300 20011 91104 91203;
0149066930999992011012501004+47267+009100FM-12+062399999V0209999C000019999999N9999999N1-00321-00321999999ADDMA1999999094621MD1810111+9999ME1314759OA149900101REMSYN088AAXX  25014 06693 33/// /0000 11032 21032 39462 48475 58011 333 55300 20011 91102 91201;
0149066930999992011012502004+47267+009100FM-12+062399999V0200601N000519999999N9999999N1-00321-00321999999ADDMA1999999094591MD1610131+9999ME1314739OA149900051REMSYN088AAXX  25024 06693 33/// /0601 11032 21032 39459 48473 56013 333 55300 20011 91101 91201;
0149066930999992011012503004+47267+009100FM-12+062399999V0209999C000019999999N9999999N1-00321-00321999999ADDMA1999999094571MD1810081+9999ME1314719OA149900101REMSYN088AAXX  25034 06693 33/// /0000 11032 21032 39457 48471 58008 333 55300 20011 91102 91201;
0149066930999992011012504004+47267+009100FM-12+062399999V0209999C000019999999N9999999N1-00331-00331999999ADDMA1999999094541MD1810081+9999ME1314689OA149900101REMSYN088AAXX  25044 06693 33/// /0000 11033 21033 39454 48468 58008 333 55300 20011 91102 91201;
0149066930999992011012505004+47267+009100FM-12+062399999V0200401N000519999999N9999999N1-00331-00331999999ADDMA1999999094521MD1810071+9999ME1314679OA149900101REMSYN088AAXX  25054 06693 33/// /0401 11033 21033 39452 48467 58007 333 55300 20011 91102 91201;
0198066930999992011012506004+47267+009100FM-12+062399999V0209999C000019999999N9999999N1-00341-00341999999ADDAL19900091GJ100309KA1999N-00361MA1999999094481MD1810091+9999ME1314639OA149900211REMSYN106AAXX  25064 06693 33/// /0000 11034 21034 39448 48463 58009 333 21036 55005 55300 20011 70000 91104 91202;
0149066930999992011012507004+47267+009100FM-12+062399999V0209999C000019999999N9999999N1-00331-00331999999ADDMA1999999094491MD1710051+9999ME1314649OA149900151REMSYN088AAXX  25074 06693 33/// /0000 11033 21033 39449 48464 57005 333 55300 20011 91103 91202;
0149066930999992011012508004+47267+009100FM-12+062399999V0200201N001519999999N9999999N1-00141-00311999999ADDMA1999999094501MD1510021+9999ME1314719OA149900361REMSYN088AAXX  25084 06693 33/// /0203 11014 21031 39450 48471 55002 333 55300 20079 91107 91204;
0149066930999992011012509004+47267+009100FM-12+062399999V0203501N000519999999N9999999N1-00151-00241999999ADDMA1999999094501MD1210021+9999ME1314719OA149900361REMSYN088AAXX  25094 06693 33/// /3501 11015 21024 39450 48471 52002 333 55300 20184 91107 91204;
0149066930999992011012510004+47267+009100FM-12+062399999V0200401N001019999999N9999999N1-00031-00241999999ADDMA1999999094471MD1810021+9999ME1314729OA149900361REMSYN088AAXX  25104 06693 33/// /0402 11003 21024 39447 48472 58002 333 55300 20349 91107 91204;
0149066930999992011012511004+47267+009100FM-12+062399999V0202301N002619999999N9999999N1+00041-00251999999ADDMA1999999094391MD1810111+9999ME1314679OA149900771REMSYN088AAXX  25114 06693 33/// /2305 10004 21025 39439 48467 58011 333 55300 20644 91115 91205;
0112066930999992011012512004+47267+009100FM-12+062399999V0202701N002619999999N9999999N1+00061-00231999999ADDMA1999999094331ME1314639REMSYN076AAXX  25124 06693 33/// /2705 10006 21023 39433 48463 5//// 333 553// 20911;
0149066930999992011012513004+47267+009100FM-12+062399999V0203001N002619999999N9999999N1+00041-00241999999ADDMA1999999094241MD1719999+9999ME1314559OA149900771REMSYN088AAXX  25134 06693 33/// /3005 10004 21024 39424 48455 57/// 333 55300 20709 91115 91206;
0096066930999992011012514004+47267+009100FM-12+062399999V0203501N002119999999N9999999N1+00061-00241999999ADDMA1999999094171ME1314509REMSYN060AAXX  25144 06693 43/// /3504 10006 21024 39417 48450 5////;
0149066930999992011012515004+47267+009100FM-12+062399999V0200101N002119999999N9999999N1+00071-00231999999ADDMA1999999094131MD1619999+9999ME1314479OA149900771REMSYN088AAXX  25154 06693 33/// /0104 10007 21023 39413 48447 56/// 333 55300 20356 91115 91207;
0149066930999992011012516004+47267+009100FM-12+062399999V0203401N003619999999N9999999N1+00081-00261999999ADDMA1999999094091MD1810151+9999ME1314449OA149900671REMSYN088AAXX  25164 06693 33/// /3407 10008 21026 39409 48444 58015 333 55300 20133 91113 91207;
0149066930999992011012517004+47267+009100FM-12+062399999V0203601N002619999999N9999999N1+00061-00261999999ADDMA1999999094071MD1710101+9999ME1314419OA149900671REMSYN088AAXX  25174 06693 33/// /3605 10006 21026 39407 48441 57010 333 55300 20014 91113 91207;
0168066930999992011012518004+47267+009100FM-12+062399999V0200201N001519999999N9999999N1+00071-00261999999ADDKA1120M+00081MA1999999094021MD1710111+9999ME1314379OA149900771REMSYN094AAXX  25184 06693 33/// /0203 10007 21026 39402 48437 57011 333 10008 55300 20011 91115 91207;
0149066930999992011012519004+47267+009100FM-12+062399999V0201201N003119999999N9999999N1+00061-00261999999ADDMA1999999094001MD1710091+9999ME1314369OA149900721REMSYN088AAXX  25194 06693 33/// /1206 10006 21026 39400 48436 57009 333 55300 20011 91114 91208;
0155066930999992011012520004+47267+009100FM-12+062399999V0200701N002119999999N9999999N1-00041-00161999999ADDMA1999999094001MD1519999+9999ME1314329OA149900821REMSYN094AAXX  25204 06693 23/// /0704 11004 21016 39400 48432 55/// 333 55300 20011 69925 91116 91208;
0155066930999992011012521004+47267+009100FM-12+062399999V0202501N000519999999N9999999N1+00011-00181999999ADDMA1999999094011MD1719999+9999ME1314359OA149900821REMSYN094AAXX  25214 06693 23/// /2501 10001 21018 39401 48435 57/// 333 55300 20011 69935 91116 91208;
0155066930999992011012522004+47267+009100FM-12+062399999V0200601N001019999999N9999999N1-00011-00181999999ADDMA1999999093961MD1710041+9999ME1314309OA149900821REMSYN094AAXX  25224 06693 23/// /0602 11001 21018 39396 48430 57004 333 55300 20011 69935 91116 91204;
0149066930999992011012523004+47267+009100FM-12+062399999V0209999C000019999999N9999999N1-00021-00151999999ADDMA1999999093961MD1710041+9999ME1314309OA149900571REMSYN088AAXX  25234 06693 33/// /0000 11002 21015 39396 48430 57004 333 55300 20011 91111 91204;
0172066930999992011012600004+47267+009100FM-12+062399999V0202401N002119999999N9999999N1+00001-00181999999ADDAA106001091MA1999999093891MD1710121+9999ME1314249OA149900821REMSYN100AAXX  26004 06693 03/// /2404 10000 21018 39389 48424 57012 69991 333 55300 20011 69915 91116 91208;
0155066930999992011012601004+47267+009100FM-12+062399999V0202201N002119999999N9999999N1+00031-00201999999ADDMA1999999093831MD1710131+9999ME1314209OA149900821REMSYN094AAXX  26014 06693 23/// /2204 10003 21020 39383 48420 57013 333 55300 20011 69925 91116 91205;
0149066930999992011012602004+47267+009100FM-12+062399999V0203301N002119999999N9999999N1+00011-00171999999ADDMA1999999093791MD1710171+9999ME1314169OA149900821REMSYN088AAXX  26024 06693 33/// /3304 10001 21017 39379 48416 57017 333 55300 20011 91116 91205;
0149066930999992011012603004+47267+009100FM-12+062399999V0203201N001519999999N9999999N1+00051-00171999999ADDMA1999999093751MD1710141+9999ME1314149OA149900821REMSYN088AAXX  26034 06693 33/// /3203 10005 21017 39375 48414 57014 333 55300 20011 91116 91205;
0149066930999992011012604004+47267+009100FM-12+062399999V0202901N001019999999N9999999N1+00051-00201999999ADDMA1999999093731MD1710101+9999ME1314139OA149900571REMSYN088AAXX  26044 06693 33/// /2902 10005 21020 39373 48413 57010 333 55300 20011 91111 91205;
0149066930999992011012605004+47267+009100FM-12+062399999V0203001N002619999999N9999999N1+00061-00201999999ADDMA1999999093701MD1610091+9999ME1314109OA149900721REMSYN088AAXX  26054 06693 33/// /3005 10006 21020 39370 48410 56009 333 55300 20011 91114 91205;
0221066930999992011012606004+47267+009100FM-12+062399999V0202901N000519999999N9999999N1+00081-00201999999ADDAA112001091AL10600191GJ100009KA1999N-00051MA1999999093661MD1810091+9999ME1314089OA149900821REMSYN118AAXX  26064 06693 03/// /2901 10008 21020 39366 48408 58009 60012 333 21005 55000 55300 20011 69915 70011 91116 91208;
0149066930999992011012607004+47267+009100FM-12+062399999V0201101N000519999999N9999999N1+00051-00171999999ADDMA1999999093661MD1710071+9999ME1314079OA149900621REMSYN088AAXX  26074 06693 33/// /1101 10005 21017 39366 48407 57007 333 55300 20011 91112 91206;
0149066930999992011012608004+47267+009100FM-12+062399999V0202501N000519999999N9999999N1-00021-00081999999ADDMA1999999093641MD1710061+9999ME1314039OA149900571REMSYN088AAXX  26084 06693 33/// /2501 11002 21008 39364 48403 57006 333 55300 20054 91111 91204;
0149066930999992011012609004+47267+009100FM-12+062399999V0209999C000019999999N9999999N1-00011-00061999999ADDMA1999999093601MD1710061+9999ME1314009OA149900721REMSYN088AAXX  26094 06693 33/// /0000 11001 21006 39360 48400 57006 333 55300 20176 91114 91206;
0149066930999992011012610004+47267+009100FM-12+062399999V0201001N000519999999N9999999N1+00051-00051999999ADDMA1999999093611MD1710051+9999ME1314029OA149900151REMSYN088AAXX  26104 06693 33/// /1001 10005 21005 39361 48402 57005 333 55300 20320 91103 91202;
0149066930999992011012611004+47267+009100FM-12+062399999V0203401N001019999999N9999999N1+00161-00061999999ADDMA1999999093541MD1710101+9999ME1314009OA149900151REMSYN088AAXX  26114 06693 33/// /3402 10016 21006 39354 48400 57010 333 55300 20634 91103 91202;
0149066930999992011012612004+47267+009100FM-12+062399999V0201501N001519999999N9999999N1+00191-00081999999ADDMA1999999093481MD1710121+9999ME1313969OA149900821REMSYN088AAXX  26124 06693 33/// /1503 10019 21008 39348 48396 57012 333 55300 20767 91116 91206;
0149066930999992011012613004+47267+009100FM-12+062399999V0202601N000519999999N9999999N1+00281-00061999999ADDMA1999999093441MD1819999+9999ME1313959OA149900211REMSYN088AAXX  26134 06693 33/// /2601 10028 21006 39344 48395 58/// 333 55300 20860 91104 91203;
0112066930999992011012614004+47267+009100FM-12+062399999V0203001N001519999999N9999999N1+00311-00181999999ADDMA1999999093431ME1313959REMSYN076AAXX  26144 06693 33/// /3003 10031 21018 39343 48395 5//// 333 553// 20688;
0149066930999992011012615004+47267+009100FM-12+062399999V0202201N000519999999N9999999N1+00221-00021999999ADDMA1999999093431MD1510051+9999ME1313929OA149900461REMSYN088AAXX  26154 06693 33/// /2201 10022 21002 39343 48392 55005 333 55300 20346 91109 91204;
0149066930999992011012616004+47267+009100FM-12+062399999V0201501N002119999999N9999999N1+00101-00031999999ADDMA1999999093431MD1319999+9999ME1313899OA149900311REMSYN088AAXX  26164 06693 33/// /1504 10010 21003 39343 48389 53/// 333 55300 20166 91106 91204;
0149066930999992011012617004+47267+009100FM-12+062399999V0209999C000019999999N9999999N1-00031-00121999999ADDMA1999999093451MD1210021+9999ME1313879OA149900361REMSYN088AAXX  26174 06693 33/// /0000 11003 21012 39345 48387 52002 333 55300 20022 91107 91205;
0168066930999992011012618004+47267+009100FM-12+062399999V0201701N000519999999N9999999N1-00141-00171999999ADDKA1120M+00321MA1999999093491MD1210061+9999ME1313879OA149900571REMSYN094AAXX  26184 06693 33/// /1701 11014 21017 39349 48387 52006 333 10032 55300 20011 91111 91205;
0149066930999992011012619004+47267+009100FM-12+062399999V0209999C000019999999N9999999N1-00181-00181999999ADDMA1999999093531MD1210101+9999ME1313899OA149900151REMSYN088AAXX  26194 06693 33/// /0000 11018 21018 39353 48389 52010 333 55300 20011 91103 91202;
0149066930999992011012620004+47267+009100FM-12+062399999V0209999C000019999999N9999999N1-00481-00481999999ADDMA1999999093561MD1210111+9999ME1313839OA149900101REMSYN088AAXX  26204 06693 33/// /0000 11048 21048 39356 48383 52011 333 55300 20011 91102 91202;
0149066930999992011012621004+47267+009100FM-12+062399999V0201801N000519999999N9999999N1-00611-00611999999ADDMA1999999093571MD1110081+9999ME1313809OA149900361REMSYN088AAXX  26214 06693 33/// /1801 11061 21061 39357 48380 51008 333 55300 20011 91107 91205;
0149066930999992011012622004+47267+009100FM-12+062399999V0201101N000519999999N9999999N1-00731-00731999999ADDMA1999999093591MD1110061+9999ME1313789OA149900101REMSYN088AAXX  26224 06693 33/// /1101 11073 21073 39359 48378 51006 333 55300 20011 91102 91201;
0149066930999992011012623004+47267+009100FM-12+062399999V0209999C000019999999N9999999N1-00801-00801999999ADDMA1999999093641MD1310081+9999ME1313809OA149900101REMSYN088AAXX  26234 06693 33/// /0000 11080 21080 39364 48380 53008 333 55300 20011 91102 91201;
0149066930999992011012700004+47267+009100FM-12+062399999V0209999C000019999999N9999999N1-00541-00541999999ADDMA1999999093631MD1210061+9999ME1313879OA149900461REMSYN088AAXX  27004 06693 33/// /0000 11054 21054 39363 48387 52006 333 55300 20011 91109 91205;
0149066930999992011012701004+47267+009100FM-12+062399999V0201301N001519999999N9999999N1-00441-00441999999ADDMA1999999093641MD1210051+9999ME1313919OA149900261REMSYN088AAXX  27014 06693 33/// /1303 11044 21044 39364 48391 52005 333 55300 20011 91105 91203;
0149066930999992011012702004+47267+009100FM-12+062399999V0201501N002119999999N9999999N1-00411-00511999999ADDMA1999999093661MD1210021+9999ME1313939OA149900261REMSYN088AAXX  27024 06693 33/// /1504 11041 21051 39366 48393 52002 333 55300 20011 91105 91204;
0149066930999992011012703004+47267+009100FM-12+062399999V0201401N002119999999N9999999N1-00401-00551999999ADDMA1999999093651MD1010021+9999ME1313939OA149900311REMSYN088AAXX  27034 06693 33/// /1404 11040 21055 39365 48393 50002 333 55300 20011 91106 91205;
0149066930999992011012704004+47267+009100FM-12+062399999V0201001N000519999999N9999999N1-00461-00591999999ADDMA1999999093681MD1210041+9999ME1313949OA149900311REMSYN088AAXX  27044 06693 33/// /1001 11046 21059 39368 48394 52004 333 55300 20011 91106 91205;
0149066930999992011012705004+47267+009100FM-12+062399999V0201501N001519999999N9999999N1-00591-00681999999ADDMA1999999093731MD1210071+9999ME1313949OA149900311REMSYN088AAXX  27054 06693 33/// /1503 11059 21068 39373 48394 52007 333 55300 20011 91106 91203;
0198066930999992011012706004+47267+009100FM-12+062399999V0201401N001519999999N9999999N1-00511-00641999999ADDAL10600091GJ100009KA1999N-00801MA1999999093771MD1110121+9999ME1313999OA149900361REMSYN106AAXX  27064 06693 33/// /1403 11051 21064 39377 48399 51012 333 21080 55000 55300 20011 70001 91107 91205;
0149066930999992011012707004+47267+009100FM-12+062399999V0201001N001019999999N9999999N1-00681-00751999999ADDMA1999999093811MD1110131+9999ME1313989OA149900361REMSYN088AAXX  27074 06693 33/// /1002 11068 21075 39381 48398 51013 333 55300 20014 91107 91205;
0149066930999992011012708004+47267+009100FM-12+062399999V0201101N000519999999N9999999N1-00561-00721999999ADDMA1999999093851MD1310121+9999ME1314059OA149900311REMSYN088AAXX  27084 06693 33/// /1101 11056 21072 39385 48405 53012 333 55304 20176 91106 91205;
0149066930999992011012709004+47267+009100FM-12+062399999V0201301N000519999999N9999999N1-00401-00671999999ADDMA1999999093881MD1110111+9999ME1314129OA149900361REMSYN088AAXX  27094 06693 33/// /1301 11040 21067 39388 48412 51011 333 553// 20691 91107 91205;
0149066930999992011012710004+47267+009100FM-12+062399999V0201901N001019999999N9999999N1-00231-00581999999ADDMA1999999093931MD1310121+9999ME1314219OA149900311REMSYN088AAXX  27104 06693 33/// /1902 11023 21058 39393 48421 53012 333 55304 2//// 91106 91203;
0149066930999992011012711004+47267+009100FM-12+062399999V0202601N000519999999N9999999N1-00021-00521999999ADDMA1999999093911MD1210061+9999ME1314269OA149900211REMSYN088AAXX  27114 06693 33/// /2601 11002 21052 39391 48426 52006 333 55302 2//// 91104 91203;
0149066930999992011012712004+47267+009100FM-12+062399999V0203101N002119999999N9999999N1+00041-00311999999ADDMA1999999093871MD1810011+9999ME1314249OA149900361REMSYN088AAXX  27124 06693 33/// /3104 10004 21031 39387 48424 58001 333 55301 2//// 91107 91205;
0149066930999992011012713004+47267+009100FM-12+062399999V0203101N002619999999N9999999N1+00161-00131999999ADDMA1999999093841MD1710091+9999ME1314259OA149900511REMSYN088AAXX  27134 06693 33/// /3105 10016 21013 39384 48425 57009 333 55309 2//// 91110 91205;
0149066930999992011012714004+47267+009100FM-12+062399999V0203301N003619999999N9999999N1+00101-00131999999ADDMA1999999093831MD1710081+9999ME1314229OA149900621REMSYN088AAXX  27144 06693 33/// /3307 10010 21013 39383 48422 57008 333 55303 20817 91112 91207;
0149066930999992011012715004+47267+009100FM-12+062399999V0200201N002619999999N9999999N1+00121-00191999999ADDMA1999999093841MD1510031+9999ME1314249OA149900621REMSYN088AAXX  27154 06693 33/// /0205 10012 21019 39384 48424 55003 333 55300 20306 91112 91207;
0149066930999992011012716004+47267+009100FM-12+062399999V0200201N002619999999N9999999N1+00091-00171999999ADDMA1999999093851MD1310011+9999ME1314249OA149900511REMSYN088AAXX  27164 06693 33/// /0205 10009 21017 39385 48424 53001 333 55300 20097 91110 91206;
0149066930999992011012717004+47267+009100FM-12+062399999V0203601N003119999999N9999999N1+00051-00091999999ADDMA1999999093861MD1210031+9999ME1314239OA149900511REMSYN088AAXX  27174 06693 33/// /3606 10005 21009 39386 48423 52003 333 55300 20014 91110 91206;
0168066930999992011012718004+47267+009100FM-12+062399999V0203401N002119999999N9999999N1+00021-00061999999ADDKA1120M+00161MA1999999093891MD1210051+9999ME1314259OA149900621REMSYN094AAXX  27184 06693 33/// /3404 10002 21006 39389 48425 52005 333 10016 55300 20011 91112 91207;
0149066930999992011012719004+47267+009100FM-12+062399999V0203301N002619999999N9999999N1-00021-00021999999ADDMA1999999093911MD1210061+9999ME1314269OA149900511REMSYN088AAXX  27194 06693 33/// /3305 11002 21002 39391 48426 52006 333 55300 20011 91110 91207;
0149066930999992011012720004+47267+009100FM-12+062399999V0200301N002119999999N9999999N1+00001-00101999999ADDMA1999999093921MD1110061+9999ME1314279OA149900511REMSYN088AAXX  27204 06693 33/// /0304 10000 21010 39392 48427 51006 333 55300 20011 91110 91207;
0149066930999992011012721004+47267+009100FM-12+062399999V0200301N003119999999N9999999N1-00021-00091999999ADDMA1999999093931MD1110041+9999ME1314279OA149900511REMSYN088AAXX  27214 06693 33/// /0306 11002 21009 39393 48427 51004 333 55300 20011 91110 91207;
0149066930999992011012722004+47267+009100FM-12+062399999V0203601N003119999999N9999999N1-00041-00061999999ADDMA1999999093931MD1110021+9999ME1314279OA149900671REMSYN088AAXX  27224 06693 33/// /3606 11004 21006 39393 48427 51002 333 55300 20011 91113 91209;
0149066930999992011012723004+47267+009100FM-12+062399999V0200101N001019999999N9999999N1-00061-00061999999ADDMA1999999093931MD1410001+9999ME1314269OA149900671REMSYN088AAXX  27234 06693 33/// /0102 11006 21006 39393 48426 54001 333 55300 20011 91113 91209;
0149066930999992011012800004+47267+009100FM-12+062399999V0203501N002119999999N9999999N1-00061-00061999999ADDMA1999999093921MD1710011+9999ME1314259OA149900671REMSYN088AAXX  28004 06693 33/// /3504 11006 21006 39392 48425 57001 333 55300 20011 91113 91209;
0149066930999992011012801004+47267+009100FM-12+062399999V0202601N001019999999N9999999N1-00071-00071999999ADDMA1999999093911MD1710021+9999ME1314249OA149900511REMSYN088AAXX  28014 06693 33/// /2602 11007 21007 39391 48424 57002 333 55300 20011 91110 91207;
0149066930999992011012802004+47267+009100FM-12+062399999V0203301N002619999999N9999999N1-00081-00081999999ADDMA1999999093911MD1710021+9999ME1314249OA149900411REMSYN088AAXX  28024 06693 33/// /3305 11008 21008 39391 48424 57002 333 55300 20011 91108 91206;
0149066930999992011012803004+47267+009100FM-12+062399999V0203601N001019999999N9999999N1-00041-00121999999ADDMA1999999093911MD1710011+9999ME1314259OA149900671REMSYN088AAXX  28034 06693 33/// /3602 11004 21012 39391 48425 57001 333 55300 20011 91113 91209;
0149066930999992011012804004+47267+009100FM-12+062399999V0209999C002619999999N9999999N1-00061-00191999999ADDMA1999999093931MD1310021+9999ME1314269OA149900461REMSYN088AAXX  28044 06693 33/// /0005 11006 21019 39393 48426 53002 333 55300 20011 91109 91206;
0149066930999992011012805004+47267+009100FM-12+062399999V0203601N002619999999N9999999N1-00081-00211999999ADDMA1999999093941MD1210031+9999ME1314269OA149900511REMSYN088AAXX  28054 06693 33/// /3605 11008 21021 39394 48426 52003 333 55300 20011 91110 91206;
0198066930999992011012806004+47267+009100FM-12+062399999V0203401N003119999999N9999999N1-00121-00211999999ADDAL19900091GJ101929KA1999N-00101MA1999999093971MD1110061+9999ME1314289OA149900671REMSYN106AAXX  28064 06693 33/// /3406 11012 21021 39397 48428 51006 333 21010 55032 55300 20011 70000 91113 91209;
0149066930999992011012807004+47267+009100FM-12+062399999V0203501N002619999999N9999999N1-00141-00221999999ADDMA1999999094031MD1310101+9999ME1314329OA149900511REMSYN088AAXX  28074 06693 33/// /3505 11014 21022 39403 48432 53010 333 55300 20011 91110 91206;
0149066930999992011012808004+47267+009100FM-12+062399999V0203301N002119999999N9999999N1-00151-00231999999ADDMA1999999094061MD1310121+9999ME1314349OA149900511REMSYN088AAXX  28084 06693 33/// /3304 11015 21023 39406 48434 53012 333 55300 20058 91110 91206;
0149066930999992011012809004+47267+009100FM-12+062399999V0203201N000519999999N9999999N1-00101-00311999999ADDMA1999999094111MD1110141+9999ME1314409OA149900511REMSYN088AAXX  28094 06693 33/// /3201 11010 21031 39411 48440 51014 333 55300 20169 91110 91206;
0149066930999992011012810004+47267+009100FM-12+062399999V0203401N003119999999N9999999N1-00111-00271999999ADDMA1999999094131MD1310101+9999ME1314419OA149900461REMSYN088AAXX  28104 06693 33/// /3406 11011 21027 39413 48441 53010 333 55300 20346 91109 91206;
0149066930999992011012811004+47267+009100FM-12+062399999V0203501N002619999999N9999999N1-00061-00341999999ADDMA1999999094121MD1210061+9999ME1314429OA149900511REMSYN088AAXX  28114 06693 33/// /3505 11006 21034 39412 48442 52006 333 55300 20598 91110 91206;
0149066930999992011012812004+47267+009100FM-12+062399999V0203301N002619999999N9999999N1-00061-00301999999ADDMA1999999094121MD1010011+9999ME1314429OA149900511REMSYN088AAXX  28124 06693 33/// /3305 11006 21030 39412 48442 50001 333 55300 20688 91110 91206;
0149066930999992011012813004+47267+009100FM-12+062399999V0203401N002119999999N9999999N1-00041-00351999999ADDMA1999999094101MD1710031+9999ME1314419OA149900511REMSYN088AAXX  28134 06693 33/// /3404 11004 21035 39410 48441 57003 333 55300 20652 91110 91206;
0149066930999992011012814004+47267+009100FM-12+062399999V0203401N003119999999N9999999N1-00061-00351999999ADDMA1999999094121MD1510001+9999ME1314429OA149900511REMSYN088AAXX  28144 06693 33/// /3406 11006 21035 39412 48442 55000 333 55300 20421 91110 91206;
0149066930999992011012815004+47267+009100FM-12+062399999V0203401N002619999999N9999999N1-00081-00311999999ADDMA1999999094141MD1310021+9999ME1314439OA149900511REMSYN088AAXX  28154 06693 33/// /3405 11008 21031 39414 48443 53002 333 55300 20274 91110 91206;
0149066930999992011012816004+47267+009100FM-12+062399999V0203301N002619999999N9999999N1-00111-00321999999ADDMA1999999094171MD1210071+9999ME1314459OA149900571REMSYN088AAXX  28164 06693 33/// /3305 11011 21032 39417 48445 52007 333 55300 20079 91111 91207;
0149066930999992011012817004+47267+009100FM-12+062399999V0200201N003119999999N9999999N1-00131-00371999999ADDMA1999999094181MD1110061+9999ME1314459OA149900571REMSYN088AAXX  28174 06693 33/// /0206 11013 21037 39418 48445 51006 333 55300 20014 91111 91207;
0168066930999992011012818004+47267+009100FM-12+062399999V0200201N004119999999N9999999N1-00151-00361999999ADDKA1120M-00041MA1999999094201MD1110061+9999ME1314469OA149900621REMSYN094AAXX  28184 06693 33/// /0208 11015 21036 39420 48446 51006 333 11004 55300 20011 91112 91209;
0149066930999992011012819004+47267+009100FM-12+062399999V0203501N002119999999N9999999N1-00171-00361999999ADDMA1999999094211MD1110041+9999ME1314469OA149900621REMSYN088AAXX  28194 06693 33/// /3504 11017 21036 39421 48446 51004 333 55300 20011 91112 91209;
0149066930999992011012820004+47267+009100FM-12+062399999V0203201N002619999999N9999999N1-00231-00321999999ADDMA1999999094221MD1110041+9999ME1314459OA149900571REMSYN088AAXX  28204 06693 33/// /3205 11023 21032 39422 48445 51004 333 55300 20011 91111 91208;
0149066930999992011012821004+47267+009100FM-12+062399999V0203101N002119999999N9999999N1-00241-00321999999ADDMA1999999094251MD1310051+9999ME1314479OA149900621REMSYN088AAXX  28214 06693 33/// /3104 11024 21032 39425 48447 53005 333 55300 20011 91112 91209;
0149066930999992011012822004+47267+009100FM-12+062399999V0200201N001019999999N9999999N1-00241-00371999999ADDMA1999999094241MD1210031+9999ME1314469OA149900511REMSYN088AAXX  28224 06693 33/// /0202 11024 21037 39424 48446 52003 333 55300 20011 91110 91205;
0149066930999992011012823004+47267+009100FM-12+062399999V0200201N003119999999N9999999N1-00241-00421999999ADDMA1999999094231MD1010011+9999ME1314459OA149900461REMSYN088AAXX  28234 06693 33/// /0206 11024 21042 39423 48445 50001 333 55300 20011 91109 91206;
0149066930999992011012900004+47267+009100FM-12+062399999V0200101N001519999999N9999999N1-00241-00461999999ADDMA1999999094211MD1610041+9999ME1314449OA149900621REMSYN088AAXX  29004 06693 33/// /0103 11024 21046 39421 48444 56004 333 55300 20011 91112 91209;
0149066930999992011012901004+47267+009100FM-12+062399999V0200301N000519999999N9999999N1-00261-00491999999ADDMA1999999094211MD1710031+9999ME1314439OA149900411REMSYN088AAXX  29014 06693 33/// /0301 11026 21049 39421 48443 57003 333 55300 20011 91108 91205;
0149066930999992011012902004+47267+009100FM-12+062399999V0200901N000519999999N9999999N1-00281-00501999999ADDMA1999999094211MD1510021+9999ME1314439OA149900261REMSYN088AAXX  29024 06693 33/// /0901 11028 21050 39421 48443 55002 333 55300 20011 91105 91202;
0149066930999992011012903004+47267+009100FM-12+062399999V0200701N001019999999N9999999N1-00331-00551999999ADDMA1999999094171MD1710041+9999ME1314389OA149900461REMSYN088AAXX  29034 06693 33/// /0702 11033 21055 39417 48438 57004 333 55300 20011 91109 91206;
0149066930999992011012904004+47267+009100FM-12+062399999V0201001N001019999999N9999999N1-00381-00581999999ADDMA1999999094171MD1719999+9999ME1314369OA149900261REMSYN088AAXX  29044 06693 33/// /1002 11038 21058 39417 48436 57/// 333 55300 20011 91105 91203;
0149066930999992011012905004+47267+009100FM-12+062399999V0201401N002119999999N9999999N1-00401-00571999999ADDMA1999999094171MD1510041+9999ME1314369OA149900311REMSYN088AAXX  29054 06693 33/// /1404 11040 21057 39417 48436 55004 333 55300 20011 91106 91204;
0198066930999992011012906004+47267+009100FM-12+062399999V0201401N001019999999N9999999N1-00451-00591999999ADDAL19900091GJ100009KA1999N-00431MA1999999094151MD1810021+9999ME1314329OA149900571REMSYN106AAXX  29064 06693 33/// /1402 11045 21059 39415 48432 58002 333 21043 55000 55300 20011 70000 91111 91208;
0149066930999992011012907004+47267+009100FM-12+062399999V0201201N001519999999N9999999N1-00501-00621999999ADDMA1999999094181MD1319999+9999ME1314339OA149900411REMSYN088AAXX  29074 06693 33/// /1203 11050 21062 39418 48433 53/// 333 55300 20014 91108 91206;
0149066930999992011012908004+47267+009100FM-12+062399999V0201401N002119999999N9999999N1-00551-00661999999ADDMA1999999094171MD1510001+9999ME1314319OA149900361REMSYN088AAXX  29084 06693 33/// /1404 11055 21066 39417 48431 55000 333 55300 20158 91107 91204;
0149066930999992011012909004+47267+009100FM-12+062399999V0201701N001519999999N9999999N1-00551-00681999999ADDMA1999999094151MD1010001+9999ME1314299OA149900411REMSYN088AAXX  29094 06693 33/// /1703 11055 21068 39415 48429 50000 333 55300 20418 91108 91206;
0149066930999992011012910004+47267+009100FM-12+062399999V0201801N001019999999N9999999N1-00461-00661999999ADDMA1999999094141MD1710041+9999ME1314319OA149900261REMSYN088AAXX  29104 06693 33/// /1802 11046 21066 39414 48431 57004 333 55300 20684 91105 91204;
0149066930999992011012911004+47267+009100FM-12+062399999V0202001N000519999999N9999999N1-00311-00551999999ADDMA1999999094091MD1710081+9999ME1314329OA149900211REMSYN088AAXX  29114 06693 33/// /2001 11031 21055 39409 48432 57008 333 55303 2//// 91104 91204;
0149066930999992011012912004+47267+009100FM-12+062399999V0209999C000019999999N9999999N1-00201-00491999999ADDMA1999999094021MD1710131+9999ME1314299OA149900411REMSYN088AAXX  29124 06693 33/// /0000 11020 21049 39402 48429 57013 333 55301 20925 91108 91206;
0149066930999992011012913004+47267+009100FM-12+062399999V0203201N002119999999N9999999N1-00101-00391999999ADDMA1999999093971MD1810171+9999ME1314289OA149900411REMSYN088AAXX  29134 06693 33/// /3204 11010 21039 39397 48428 58017 333 55307 2//// 91108 91205;
0149066930999992011012914004+47267+009100FM-12+062399999V0203001N001519999999N9999999N1-00111-00361999999ADDMA1999999093951MD1610141+9999ME1314269OA149900411REMSYN088AAXX  29144 06693 33/// /3003 11011 21036 39395 48426 56014 333 55307 20745 91108 91205;
0149066930999992011012915004+47267+009100FM-12+062399999V0202701N001019999999N9999999N1-00211-00371999999ADDMA1999999093941MD1710081+9999ME1314229OA149900411REMSYN088AAXX  29154 06693 33/// /2702 11021 21037 39394 48422 57008 333 55304 20454 91108 91205;
0149066930999992011012916004+47267+009100FM-12+062399999V0202901N001019999999N9999999N1-00291-00401999999ADDMA1999999093961MD1510011+9999ME1314229OA149900411REMSYN088AAXX  29164 06693 33/// /2902 11029 21040 39396 48422 55001 333 55300 20119 91108 91204;
0149066930999992011012917004+47267+009100FM-12+062399999V0209999C000019999999N9999999N1-00451-00481999999ADDMA1999999093981MD1219999+9999ME1314189OA149900261REMSYN088AAXX  29174 06693 33/// /0000 11045 21048 39398 48418 52/// 333 55300 20022 91105 91203;
0168066930999992011012918004+47267+009100FM-12+062399999V0209999C000019999999N9999999N1-00371-00421999999ADDKA1120M-00081MA1999999094001MD1210061+9999ME1314239OA149900411REMSYN094AAXX  29184 06693 33/// /0000 11037 21042 39400 48423 52006 333 11008 55300 20011 91108 91205;
0149066930999992011012919004+47267+009100FM-12+062399999V0201601N000519999999N9999999N1-00291-00371999999ADDMA1999999093991MD1210031+9999ME1314249OA149900151REMSYN088AAXX  29194 06693 33/// /1601 11029 21037 39399 48424 52003 333 55300 20011 91103 91202;
0149066930999992011012920004+47267+009100FM-12+062399999V0200501N001019999999N9999999N1-00281-00381999999ADDMA1999999093991MD1219999+9999ME1314249OA149900311REMSYN088AAXX  29204 06693 33/// /0502 11028 21038 39399 48424 52/// 333 55300 20011 91106 91203;
0149066930999992011012921004+47267+009100FM-12+062399999V0200701N001019999999N9999999N1-00311-00451999999ADDMA1999999093981MD1710021+9999ME1314239OA149900311REMSYN088AAXX  29214 06693 33/// /0702 11031 21045 39398 48423 57002 333 55300 20011 91106 91203;
0149066930999992011012922004+47267+009100FM-12+062399999V0201001N001519999999N9999999N1-00341-00461999999ADDMA1999999093971MD1710021+9999ME1314219OA149900261REMSYN088AAXX  29224 06693 33/// /1003 11034 21046 39397 48421 57002 333 55300 20011 91105 91203;
0149066930999992011012923004+47267+009100FM-12+062399999V0201201N000519999999N9999999N1-00361-00471999999ADDMA1999999093991MD1510001+9999ME1314229OA149900261REMSYN088AAXX  29234 06693 33/// /1201 11036 21047 39399 48422 55000 333 55300 20011 91105 91203;
0149066930999992011013000004+47267+009100FM-12+062399999V0201501N001519999999N9999999N1-00411-00511999999ADDMA1999999093981MD1010001+9999ME1314209OA149900411REMSYN088AAXX  30004 06693 33/// /1503 11041 21051 39398 48420 50000 333 55300 20011 91108 91205;
0149066930999992011013001004+47267+009100FM-12+062399999V0201001N000519999999N9999999N1-00431-00541999999ADDMA1999999093971MD1010001+9999ME1314189OA149900261REMSYN088AAXX  30014 06693 33/// /1001 11043 21054 39397 48418 50000 333 55300 20011 91105 91203;
0149066930999992011013002004+47267+009100FM-12+062399999V0201401N002119999999N9999999N1-00471-00581999999ADDMA1999999093941MD1710051+9999ME1314159OA149900311REMSYN088AAXX  30024 06693 33/// /1404 11047 21058 39394 48415 57005 333 55300 20011 91106 91204;
0149066930999992011013003004+47267+009100FM-12+062399999V0200201N002119999999N9999999N1-00531-00621999999ADDMA1999999093921MD1710061+9999ME1314119OA149900361REMSYN088AAXX  30034 06693 33/// /0204 11053 21062 39392 48411 57006 333 55300 20011 91107 91205;
0149066930999992011013004004+47267+009100FM-12+062399999V0202001N000519999999N9999999N1-00531-00611999999ADDMA1999999093901MD1710071+9999ME1314109OA149900361REMSYN088AAXX  30044 06693 33/// /2001 11053 21061 39390 48410 57007 333 55300 20011 91107 91205;
0149066930999992011013005004+47267+009100FM-12+062399999V0203501N001519999999N9999999N1-00551-00651999999ADDMA1999999093931MD1510011+9999ME1314119OA149900411REMSYN088AAXX  30054 06693 33/// /3503 11055 21065 39393 48411 55001 333 55300 20011 91108 91205;
0198066930999992011013006004+47267+009100FM-12+062399999V0201501N002119999999N9999999N1-00541-00631999999ADDAL19900091GJ101329KA1999N-00571MA1999999093981MD1210061+9999ME1314169OA149900411REMSYN106AAXX  30064 06693 33/// /1504 11054 21063 39398 48416 52006 333 21057 55022 55300 20011 70000 91108 91205;
0149066930999992011013007004+47267+009100FM-12+062399999V0201501N001519999999N9999999N1-00551-00641999999ADDMA1999999094021MD1110121+9999ME1314199OA149900411REMSYN088AAXX  30074 06693 33/// /1503 11055 21064 39402 48419 51012 333 55300 20011 91108 91205;
0149066930999992011013008004+47267+009100FM-12+062399999V0201301N002119999999N9999999N1-00551-00671999999ADDMA1999999094021MD1210091+9999ME1314199OA149900461REMSYN088AAXX  30084 06693 33/// /1304 11055 21067 39402 48419 52009 333 55300 20090 91109 91205;
0149066930999992011013009004+47267+009100FM-12+062399999V0201701N001019999999N9999999N1-00531-00671999999ADDMA1999999094031MD1210051+9999ME1314209OA149900461REMSYN088AAXX  30094 06693 33/// /1702 11053 21067 39403 48420 52005 333 55300 20346 91109 91205;
0149066930999992011013010004+47267+009100FM-12+062399999V0202001N001019999999N9999999N1-00461-00601999999ADDMA1999999094041MD1310021+9999ME1314239OA149900411REMSYN088AAXX  30104 06693 33/// /2002 11046 21060 39404 48423 53002 333 55300 20490 91108 91204;
0149066930999992011013011004+47267+009100FM-12+062399999V0202101N000519999999N9999999N1-00401-00581999999ADDMA1999999094031MD1010011+9999ME1314249OA149900151REMSYN088AAXX  30114 06693 33/// /2101 11040 21058 39403 48424 50001 333 55300 20673 91103 91202;
0149066930999992011013012004+47267+009100FM-12+062399999V0203201N002119999999N9999999N1-00371-00501999999ADDMA1999999094021MD1710011+9999ME1314249OA149900461REMSYN088AAXX  30124 06693 33/// /3204 11037 21050 39402 48424 57001 333 55300 20709 91109 91205;
0149066930999992011013013004+47267+009100FM-12+062399999V0203301N002619999999N9999999N1-00381-00501999999ADDMA1999999093991MD1710051+9999ME1314219OA149900411REMSYN088AAXX  30134 06693 33/// /3305 11038 21050 39399 48421 57005 333 55300 20695 91108 91205;
0149066930999992011013014004+47267+009100FM-12+062399999V0203201N002119999999N9999999N1-00391-00501999999ADDMA1999999094011MD1510021+9999ME1314239OA149900511REMSYN088AAXX  30144 06693 33/// /3204 11039 21050 39401 48423 55002 333 55300 20518 91110 91206;
0149066930999992011013015004+47267+009100FM-12+062399999V0203201N002619999999N9999999N1-00431-00521999999ADDMA1999999094031MD1310011+9999ME1314239OA149900511REMSYN088AAXX  30154 06693 33/// /3205 11043 21052 39403 48423 53001 333 55300 20313 91110 91206;
0149066930999992011013016004+47267+009100FM-12+062399999V0203201N002119999999N9999999N1-00451-00531999999ADDMA1999999094051MD1310061+9999ME1314249OA149900461REMSYN088AAXX  30164 06693 33/// /3204 11045 21053 39405 48424 53006 333 55300 20126 91109 91205;
0149066930999992011013017004+47267+009100FM-12+062399999V0203201N002619999999N9999999N1-00491-00551999999ADDMA1999999094101MD1310091+9999ME1314279OA149900411REMSYN088AAXX  30174 06693 33/// /3205 11049 21055 39410 48427 53009 333 55300 20018 91108 91205;
0168066930999992011013018004+47267+009100FM-12+062399999V0203101N002119999999N9999999N1-00511-00561999999ADDKA1120M-00351MA1999999094171MD1310141+9999ME1314329OA149900511REMSYN094AAXX  30184 06693 33/// /3104 11051 21056 39417 48432 53014 333 11035 55300 20011 91110 91206;
0149066930999992011013019004+47267+009100FM-12+062399999V0203101N002119999999N9999999N1-00541-00581999999ADDMA1999999094231MD1310181+9999ME1314369OA149900461REMSYN088AAXX  30194 06693 33/// /3104 11054 21058 39423 48436 53018 333 55300 20011 91109 91205;
0149066930999992011013020004+47267+009100FM-12+062399999V0203101N002119999999N9999999N1-00541-00581999999ADDMA1999999094291MD1110191+9999ME1314419OA149900461REMSYN088AAXX  30204 06693 33/// /3104 11054 21058 39429 48441 51019 333 55300 20011 91109 91206;
0149066930999992011013021004+47267+009100FM-12+062399999V0203301N002119999999N9999999N1-00551-00591999999ADDMA1999999094331MD1110161+9999ME1314449OA149900461REMSYN088AAXX  30214 06693 33/// /3304 11055 21059 39433 48444 51016 333 55300 20011 91109 91206;
0149066930999992011013022004+47267+009100FM-12+062399999V0203201N001519999999N9999999N1-00551-00581999999ADDMA1999999094341MD1110111+9999ME1314459OA149900361REMSYN088AAXX  30224 06693 33/// /3203 11055 21058 39434 48445 51011 333 55300 20011 91107 91204;
0149066930999992011013023004+47267+009100FM-12+062399999V0203401N001019999999N9999999N1-00551-00581999999ADDMA1999999094361MD1110071+9999ME1314479OA149900311REMSYN088AAXX  30234 06693 33/// /3402 11055 21058 39436 48447 51007 333 55300 20011 91106 91203;
0149066930999992011013100004+47267+009100FM-12+062399999V0203301N002119999999N9999999N1-00561-00581999999ADDMA1999999094381MD1110051+9999ME1314489OA149900511REMSYN088AAXX  31004 06693 33/// /3304 11056 21058 39438 48448 51005 333 55300 20011 91110 91206;
0149066930999992011013101004+47267+009100FM-12+062399999V0203201N001519999999N9999999N1-00571-00571999999ADDMA1999999094391MD1210051+9999ME1314489OA149900361REMSYN088AAXX  31014 06693 33/// /3203 11057 21057 39439 48448 52005 333 55300 20011 91107 91204;
0149066930999992011013102004+47267+009100FM-12+062399999V0203301N001019999999N9999999N1-00561-00561999999ADDMA1999999094411MD1210051+9999ME1314509OA149900311REMSYN088AAXX  31024 06693 33/// /3302 11056 21056 39441 48450 52005 333 55300 20011 91106 91204;
0149066930999992011013103004+47267+009100FM-12+062399999V0202701N000519999999N9999999N1-00551-00571999999ADDMA1999999094411MD1210031+9999ME1314519OA149900361REMSYN088AAXX  31034 06693 33/// /2701 11055 21057 39441 48451 52003 333 55300 20011 91107 91204;
0149066930999992011013104004+47267+009100FM-12+062399999V0201501N001519999999N9999999N1-00541-00651999999ADDMA1999999094421MD1210031+9999ME1314529OA149900311REMSYN088AAXX  31044 06693 33/// /1503 11054 21065 39442 48452 52003 333 55300 20011 91106 91205;
0149066930999992011013105004+47267+009100FM-12+062399999V0201501N002119999999N9999999N1-00551-00671999999ADDMA1999999094451MD1210041+9999ME1314549OA149900311REMSYN088AAXX  31054 06693 33/// /1504 11055 21067 39445 48454 52004 333 55300 20011 91106 91205;
0198066930999992011013106004+47267+009100FM-12+062399999V0201501N002619999999N9999999N1-00581-00681999999ADDAL19900091GJ100009KA1999N-00571MA1999999094491MD1210081+9999ME1314569OA149900461REMSYN106AAXX  31064 06693 33/// /1505 11058 21068 39449 48456 52008 333 21057 55000 55300 20011 70000 91109 91206;
0149066930999992011013107004+47267+009100FM-12+062399999V0201301N002119999999N9999999N1-00591-00691999999ADDMA1999999094531MD1310111+9999ME1314599OA149900361REMSYN088AAXX  31074 06693 33/// /1304 11059 21069 39453 48459 53011 333 55300 20011 91107 91205;
0149066930999992011013108004+47267+009100FM-12+062399999V0201501N002619999999N9999999N1-00621-00711999999ADDMA1999999094591MD1210141+9999ME1314639OA149900361REMSYN088AAXX  31084 06693 33/// /1505 11062 21071 39459 48463 52014 333 55300 20076 91107 91205;
0149066930999992011013109004+47267+009100FM-12+062399999V0201401N001519999999N9999999N1-00601-00731999999ADDMA1999999094631MD1110141+9999ME1314679OA149900361REMSYN088AAXX  31094 06693 33/// /1403 11060 21073 39463 48467 51014 333 55300 20238 91107 91205;
0149066930999992011013110004+47267+009100FM-12+062399999V0202001N000519999999N9999999N1-00551-00681999999ADDMA1999999094671MD1110141+9999ME1314729OA149900361REMSYN088AAXX  31104 06693 33/// /2001 11055 21068 39467 48472 51014 333 55300 20454 91107 91204;
0149066930999992011013111004+47267+009100FM-12+062399999V0202301N001519999999N9999999N1-00501-00641999999ADDMA1999999094681MD1110091+9999ME1314749OA149900261REMSYN088AAXX  31114 06693 33/// /2303 11050 21064 39468 48474 51009 333 55300 20763 91105 91203;
0149066930999992011013112004+47267+009100FM-12+062399999V0202301N001019999999N9999999N1-00381-00631999999ADDMA1999999094651MD1010021+9999ME1314769OA149900361REMSYN088AAXX  31124 06693 33/// /2302 11038 21063 39465 48476 50002 333 55305 2//// 91107 91205;
0149066930999992011013113004+47267+009100FM-12+062399999V0203101N001519999999N9999999N1-00271-00551999999ADDMA1999999094611MD1710061+9999ME1314769OA149900361REMSYN088AAXX  31134 06693 33/// /3103 11027 21055 39461 48476 57006 333 553// 2//// 91107 91203;
0149066930999992011013114004+47267+009100FM-12+062399999V0203101N002119999999N9999999N1-00281-00501999999ADDMA1999999094621MD1710061+9999ME1314769OA149900411REMSYN088AAXX  31144 06693 33/// /3104 11028 21050 39462 48476 57006 333 55305 2//// 91108 91205;
0149066930999992011013115004+47267+009100FM-12+062399999V0203301N002119999999N9999999N1-00311-00501999999ADDMA1999999094621MD1510031+9999ME1314759OA149900411REMSYN088AAXX  31154 06693 33/// /3304 11031 21050 39462 48475 55003 333 55300 20788 91108 91205;
0149066930999992011013116004+47267+009100FM-12+062399999V0203201N002119999999N9999999N1-00331-00461999999ADDMA1999999094661MD1310051+9999ME1314789OA149900411REMSYN088AAXX  31164 06693 33/// /3204 11033 21046 39466 48478 53005 333 55300 20220 91108 91205;
0149066930999992011013117004+47267+009100FM-12+062399999V0203301N002619999999N9999999N1-00361-00461999999ADDMA1999999094731MD1310111+9999ME1314839OA149900361REMSYN088AAXX  31174 06693 33/// /3305 11036 21046 39473 48483 53011 333 55300 20018 91107 91205;
0168066930999992011013118004+47267+009100FM-12+062399999V0203101N001519999999N9999999N1-00381-00451999999ADDKA1120M-00271MA1999999094761MD1110141+9999ME1314859OA149900411REMSYN094AAXX  31184 06693 33/// /3103 11038 21045 39476 48485 51014 333 11027 55300 20011 91108 91205;
0149066930999992011013119004+47267+009100FM-12+062399999V0203001N001019999999N9999999N1-00401-00461999999ADDMA1999999094811MD1110151+9999ME1314889OA149900361REMSYN088AAXX  31194 06693 33/// /3002 11040 21046 39481 48488 51015 333 55300 20011 91107 91205;
0149066930999992011013120004+47267+009100FM-12+062399999V0202901N001019999999N9999999N1-00411-00461999999ADDMA1999999094861MD1310131+9999ME1314929OA149900311REMSYN088AAXX  31204 06693 33/// /2902 11041 21046 39486 48492 53013 333 55300 20011 91106 91203;
0149066930999992011013121004+47267+009100FM-12+062399999V0203201N001019999999N9999999N1-00441-00491999999ADDMA1999999094891MD1110131+9999ME1314939OA149900361REMSYN088AAXX  31214 06693 33/// /3202 11044 21049 39489 48493 51013 333 55300 20011 91107 91205;
0149066930999992011013122004+47267+009100FM-12+062399999V0201501N002119999999N9999999N1-00461-00561999999ADDMA1999999094891MD1110081+9999ME1314929OA149900361REMSYN088AAXX  31224 06693 33/// /1504 11046 21056 39489 48492 51008 333 55300 20011 91107 91204;
0149066930999992011013123004+47267+009100FM-12+062399999V0201701N002119999999N9999999N1-00471-00601999999ADDMA1999999094891MD1210031+9999ME1314929OA149900361REMSYN088AAXX  31234 06693 33/// /1704 11047 21060 39489 48492 52003 333 55300 20011 91107 91204;
0149066930999992011020100004+47267+009100FM-12+062399999V0201501N002619999999N9999999N1-00491-00601999999ADDMA1999999094901MD1310011+9999ME1314929OA149900411REMSYN088AAXX  01004 06693 33/// /1505 11049 21060 39490 48492 53001 333 55300 20011 91108 91205;
0149066930999992011020101004+47267+009100FM-12+062399999V0201401N002119999999N9999999N1-00531-00621999999ADDMA1999999094911MD1210021+9999ME1314929OA149900411REMSYN088AAXX  01014 06693 33/// /1404 11053 21062 39491 48492 52002 333 55300 20011 91108 91205;
0149066930999992011020102004+47267+009100FM-12+062399999V0201201N003119999999N9999999N1-00551-00671999999ADDMA1999999094921MD1210031+9999ME1314929OA149900511REMSYN088AAXX  01024 06693 33/// /1206 11055 21067 39492 48492 52003 333 55300 20011 91110 91206;
0149066930999992011020103004+47267+009100FM-12+062399999V0201501N002619999999N9999999N1-00601-00641999999ADDMA1999999094911MD1010011+9999ME1314899OA149900511REMSYN088AAXX  01034 06693 33/// /1505 11060 21064 39491 48489 50001 333 55300 20011 91110 91206;
0168066930999992011020104004+47267+009100FM-12+062399999V0201401N003119999999N9999999N1-00601-00671999999ADDMA1999999094911MD1410001+9999ME1314899OA149900511REMSYN088AAXX  01044 06693 33/// /1406 11060 21067 39491 48489 52000 333 55300 20011 91110 91206;EQDQ01+000022APCTEN
0149066930999992011020105004+47267+009100FM-12+062399999V0201501N003119999999N9999999N1-00621-00691999999ADDMA1999999094881MD1710041+9999ME1314869OA149900461REMSYN088AAXX  01054 06693 33/// /1506 11062 21069 39488 48486 57004 333 55300 20011 91109 91206;
0198066930999992011020106004+47267+009100FM-12+062399999V0201401N002119999999N9999999N1-00631-00691999999ADDAL19900091GJ101209KA1999N-00631MA1999999094901MD1710011+9999ME1314889OA149900511REMSYN106AAXX  01064 06693 33/// /1404 11063 21069 39490 48488 57001 333 21063 55020 55300 20011 70000 91110 91207;
0149066930999992011020107004+47267+009100FM-12+062399999V0201501N002619999999N9999999N1-00641-00721999999ADDMA1999999094961MD1210051+9999ME1314929OA149900511REMSYN088AAXX  01074 06693 33/// /1505 11064 21072 39496 48492 52005 333 55300 20011 91110 91207;
0149066930999992011020108004+47267+009100FM-12+062399999V0201501N002119999999N9999999N1-00621-00711999999ADDMA1999999095041MD1210161+9999ME1314999OA149900511REMSYN088AAXX  01084 06693 33/// /1504 11062 21071 39504 48499 52016 333 55300 20076 91110 91206;
0149066930999992011020109004+47267+009100FM-12+062399999V0201501N001519999999N9999999N1-00571-00671999999ADDMA1999999095091MD1110191+9999ME1315059OA149900511REMSYN088AAXX  01094 06693 33/// /1503 11057 21067 39509 48505 51019 333 55300 20227 91110 91207;
0149066930999992011020110004+47267+009100FM-12+062399999V0201601N001019999999N9999999N1-00481-00611999999ADDMA1999999095141MD1110181+9999ME1315129OA149900311REMSYN088AAXX  01104 06693 33/// /1602 11048 21061 39514 48512 51018 333 55300 20374 91106 91205;
0149066930999992011020111004+47267+009100FM-12+062399999V0201601N001519999999N9999999N1-00411-00531999999ADDMA1999999095141MD1210101+9999ME1315149OA149900261REMSYN088AAXX  01114 06693 33/// /1603 11041 21053 39514 48514 52010 333 55300 20526 91105 91204;
0149066930999992011020112004+47267+009100FM-12+062399999V0209999C000019999999N9999999N1-00301-00541999999ADDMA1999999095101MD1010011+9999ME1315159OA149900511REMSYN088AAXX  01124 06693 33/// /0000 11030 21054 39510 48515 50001 333 55300 20713 91110 91207;
0149066930999992011020113004+47267+009100FM-12+062399999V0202701N002119999999N9999999N1-00291-00441999999ADDMA1999999095081MD1710061+9999ME1315149OA149900461REMSYN088AAXX  01134 06693 33/// /2704 11029 21044 39508 48514 57006 333 55300 20785 91109 91205;
0149066930999992011020114004+47267+009100FM-12+062399999V0203001N001519999999N9999999N1-00311-00451999999ADDMA1999999095061MD1710081+9999ME1315119OA149900461REMSYN088AAXX  01144 06693 33/// /3003 11031 21045 39506 48511 57008 333 55300 20680 91109 91205;
0149066930999992011020115004+47267+009100FM-12+062399999V0202801N001519999999N9999999N1-00331-00441999999ADDMA1999999095071MD1510031+9999ME1315119OA149900461REMSYN088AAXX  01154 06693 33/// /2803 11033 21044 39507 48511 55003 333 55300 20349 91109 91205;
0149066930999992011020116004+47267+009100FM-12+062399999V0209999C000019999999N9999999N1-00361-00481999999ADDMA1999999095081MD1510001+9999ME1315119OA149900461REMSYN088AAXX  01164 06693 33/// /0000 11036 21048 39508 48511 55000 333 55300 20140 91109 91205;
0149066930999992011020117004+47267+009100FM-12+062399999V0203101N001019999999N9999999N1-00411-00491999999ADDMA1999999095131MD1210071+9999ME1315149OA149900311REMSYN088AAXX  01174 06693 33/// /3102 11041 21049 39513 48514 52007 333 55300 20018 91106 91203;
0168066930999992011020118004+47267+009100FM-12+062399999V0202801N001019999999N9999999N1-00431-00511999999ADDKA1120M-00271MA1999999095181MD1210111+9999ME1315179OA149900511REMSYN094AAXX  01184 06693 33/// /2802 11043 21051 39518 48517 52011 333 11027 55300 20011 91110 91206;
0149066930999992011020119004+47267+009100FM-12+062399999V0203001N001019999999N9999999N1-00451-00501999999ADDMA1999999095241MD1110161+9999ME1315219OA149900311REMSYN088AAXX  01194 06693 33/// /3002 11045 21050 39524 48521 51016 333 55300 20011 91106 91203;
0149066930999992011020120004+47267+009100FM-12+062399999V0202401N001519999999N9999999N1-00461-00531999999ADDMA1999999095291MD1110161+9999ME1315259OA149900361REMSYN088AAXX  01204 06693 33/// /2403 11046 21053 39529 48525 51016 333 55300 20011 91107 91203;
0149066930999992011020121004+47267+009100FM-12+062399999V0201201N001019999999N9999999N1-00461-00521999999ADDMA1999999095321MD1210141+9999ME1315279OA149900361REMSYN088AAXX  01214 06693 33/// /1202 11046 21052 39532 48527 52014 333 55300 20011 91107 91203;
0149066930999992011020122004+47267+009100FM-12+062399999V0202201N001019999999N9999999N1-00501-00551999999ADDMA1999999095301MD1210061+9999ME1315249OA149900261REMSYN088AAXX  01224 06693 33/// /2202 11050 21055 39530 48524 52006 333 55300 20011 91105 91203;
0149066930999992011020123004+47267+009100FM-12+062399999V0201501N002119999999N9999999N1-00541-00581999999ADDMA1999999095331MD1210041+9999ME1315259OA149900261REMSYN088AAXX  01234 06693 33/// /1504 11054 21058 39533 48525 52004 333 55300 20011 91105 91204;
0096066930999992011020200004+47267+009100FM-12+062399999V0201501N003619999999N9999999N1-00571-00641999999ADDMA1999999095361ME1315279REMSYN060AAXX  02004 06693 43/// /1507 11057 21064 39536 48527 5////;
0096066930999992011020201004+47267+009100FM-12+062399999V0201401N002119999999N9999999N1-00611-00661999999ADDMA1999999095401ME1315299REMSYN060AAXX  02014 06693 43/// /1404 11061 21066 39540 48529 5////;
0096066930999992011020202004+47267+009100FM-12+062399999V0201501N001519999999N9999999N1-00621-00701999999ADDMA1999999095451ME1315329REMSYN060AAXX  02024 06693 43/// /1503 11062 21070 39545 48532 5////;
0096066930999992011020203004+47267+009100FM-12+062399999V0201401N002619999999N9999999N1-00561-00631999999ADDMA1999999095441ME1315349REMSYN060AAXX  02034 06693 43/// /1405 11056 21063 39544 48534 5////;
0096066930999992011020204004+47267+009100FM-12+062399999V0201001N002619999999N9999999N1-00621-00661999999ADDMA1999999095431ME1315319REMSYN060AAXX  02044 06693 43/// /1005 11062 21066 39543 48531 5////;
0096066930999992011020205004+47267+009100FM-12+062399999V0201501N002119999999N9999999N1-00641-00671999999ADDMA1999999095491ME1315359REMSYN060AAXX  02054 06693 43/// /1504 11064 21067 39549 48535 5////;
0106066930999992011020206004+47267+009100FM-12+062399999V0201601N002619999999N9999999N1-00661-00731999999ADDMA1999999095511ME1315369REMSYN070AAXX  02064 06693 43/// /1605 11066 21073 39551 48536 5//// 333 55000;
0096066930999992011020207004+47267+009100FM-12+062399999V0201401N002619999999N9999999N1-00691-00721999999ADDMA1999999095541ME1315379REMSYN060AAXX  02074 06693 43/// /1405 11069 21072 39554 48537 5////;
0149066930999992011020208004+47267+009100FM-12+062399999V0201601N000519999999N9999999N1-00711-00741999999ADDMA1999999095571MD1210081+9999ME1315399OA149900411REMSYN088AAXX  02084 06693 33/// /1601 11071 21074 39557 48539 52008 333 55300 20119 91108 91206;
0149066930999992011020209004+47267+009100FM-12+062399999V0202001N000519999999N9999999N1-00651-00721999999ADDMA1999999095611MD1210101+9999ME1315449OA149900461REMSYN088AAXX  02094 06693 33/// /2001 11065 21072 39561 48544 52010 333 55300 20266 91109 91206;
0149066930999992011020210004+47267+009100FM-12+062399999V0200501N001519999999N9999999N1-00571-00701999999ADDMA1999999095671MD1310131+9999ME1315529OA149900361REMSYN088AAXX  02104 06693 33/// /0503 11057 21070 39567 48552 53013 333 55300 20457 91107 91203;
0149066930999992011020211004+47267+009100FM-12+062399999V0201701N002119999999N9999999N1-00491-00691999999ADDMA1999999095601MD1010031+9999ME1315499OA149900511REMSYN088AAXX  02114 06693 33/// /1704 11049 21069 39560 48549 50003 333 55306 2//// 91110 91206;
0149066930999992011020212004+47267+009100FM-12+062399999V0202301N000519999999N9999999N1-00371-00661999999ADDMA1999999095551MD1710061+9999ME1315499OA149900511REMSYN088AAXX  02124 06693 33/// /2301 11037 21066 39555 48549 57006 333 553// 2//// 91110 91206;
0149066930999992011020213004+47267+009100FM-12+062399999V0202701N000519999999N9999999N1-00181-00571999999ADDMA1999999095501MD1610171+9999ME1315529OA149900311REMSYN088AAXX  02134 06693 33/// /2701 11018 21057 39550 48552 56017 333 553// 2//// 91106 91203;
0112066930999992011020214004+47267+009100FM-12+062399999V0203001N001019999999N9999999N1-00151-00531999999ADDMA1999999095441ME1315489REMSYN076AAXX  02144 06693 33/// /3002 11015 21053 39544 48548 5//// 333 553// 2////;
0149066930999992011020215004+47267+009100FM-12+062399999V0202801N001019999999N9999999N1-00251-00551999999ADDMA1999999095461MD1510091+9999ME1315469OA149900511REMSYN088AAXX  02154 06693 33/// /2802 11025 21055 39546 48546 55009 333 55308 20749 91110 91206;
0149066930999992011020216004+47267+009100FM-12+062399999V0202701N001019999999N9999999N1-00571-00641999999ADDMA1999999095481MD1510021+9999ME1315369OA149900461REMSYN088AAXX  02164 06693 33/// /2702 11057 21064 39548 48536 55002 333 55300 20097 91109 91204;
0149066930999992011020217004+47267+009100FM-12+062399999V0201801N001019999999N9999999N1-00641-00701999999ADDMA1999999095501MD1210061+9999ME1315369OA149900151REMSYN088AAXX  02174 06693 33/// /1802 11064 21070 39550 48536 52006 333 55300 20025 91103 91202;
0168066930999992011020218004+47267+009100FM-12+062399999V0201201N000519999999N9999999N1-00571-00631999999ADDKA1120M-00141MA1999999095591MD1210131+9999ME1315459OA149900511REMSYN094AAXX  02184 06693 33/// /1201 11057 21063 39559 48545 52013 333 11014 55300 20011 91110 91206;
0149066930999992011020219004+47267+009100FM-12+062399999V0203201N002619999999N9999999N1-00701-00721999999ADDMA1999999095571MD1010091+9999ME1315399OA149900361REMSYN088AAXX  02194 06693 33/// /3205 11070 21072 39557 48539 50009 333 55300 20011 91107 91205;
0149066930999992011020220004+47267+009100FM-12+062399999V0201301N000519999999N9999999N1-00881-00881999999ADDMA1999999095601MD1210101+9999ME1315359OA149900361REMSYN088AAXX  02204 06693 33/// /1301 11088 21088 39560 48535 52010 333 55300 20011 91107 91205;
0149066930999992011020221004+47267+009100FM-12+062399999V0202901N000519999999N9999999N1-00951-00961999999ADDMA1999999095541MD1710051+9999ME1315289OA149900361REMSYN088AAXX  02214 06693 33/// /2901 11095 21096 39554 48528 57005 333 55300 20011 91107 91205;
0149066930999992011020222004+47267+009100FM-12+062399999V0209999C000019999999N9999999N1-01021-01041999999ADDMA1999999095511MD1710061+9999ME1315239OA149900211REMSYN088AAXX  02224 06693 33/// /0000 11102 21104 39551 48523 57006 333 55300 20011 91104 91202;
0149066930999992011020223004+47267+009100FM-12+062399999V0209999C000019999999N9999999N1-01101-01131999999ADDMA1999999095521MD1710081+9999ME1315219OA149900151REMSYN088AAXX  02234 06693 33/// /0000 11110 21113 39552 48521 57008 333 55300 20011 91103 91202;
0149066930999992011020300004+47267+009100FM-12+062399999V0201401N000519999999N9999999N1-01121-01161999999ADDMA1999999095521MD1510021+9999ME1315209OA149900461REMSYN088AAXX  03004 06693 33/// /1401 11112 21116 39552 48520 55002 333 55300 20011 91109 91205;
0149066930999992011020301004+47267+009100FM-12+062399999V0209999C000019999999N9999999N1-01141-01181999999ADDMA1999999095511MD1010001+9999ME1315199OA149900101REMSYN088AAXX  03014 06693 33/// /0000 11114 21118 39551 48519 50000 333 55300 20011 91102 91201;
0149066930999992011020302004+47267+009100FM-12+062399999V0209999C000019999999N9999999N1-01181-01231999999ADDMA1999999095511MD1710011+9999ME1315189OA149900101REMSYN088AAXX  03024 06693 33/// /0000 11118 21123 39551 48518 57001 333 55300 20011 91102 91201;
0149066930999992011020303004+47267+009100FM-12+062399999V0201901N000519999999N9999999N1-01161-01201999999ADDMA1999999095481MD1710041+9999ME1315169OA149900151REMSYN088AAXX  03034 06693 33/// /1901 11116 21120 39548 48516 57004 333 55300 20011 91103 91202;
0149066930999992011020304004+47267+009100FM-12+062399999V0201901N000519999999N9999999N1-01191-01241999999ADDMA1999999095471MD1810041+9999ME1315149OA149900101REMSYN088AAXX  03044 06693 33/// /1901 11119 21124 39547 48514 58004 333 55300 20011 91102 91201;
0149066930999992011020305004+47267+009100FM-12+062399999V0201701N000519999999N9999999N1-01181-01231999999ADDMA1999999095461MD1710051+9999ME1315149OA149900101REMSYN088AAXX  03054 06693 33/// /1701 11118 21123 39546 48514 57005 333 55300 20011 91102 91201;
0198066930999992011020306004+47267+009100FM-12+062399999V0201401N000519999999N9999999N1-01141-01181999999ADDAL19900091GJ102589KA1999N-01231MA1999999095461MD1710021+9999ME1315159OA149900361REMSYN106AAXX  03064 06693 33/// /1401 11114 21118 39546 48515 57002 333 21123 55043 55300 20011 70000 91107 91205;
0149066930999992011020307004+47267+009100FM-12+062399999V0203501N000519999999N9999999N1-01151-01191999999ADDMA1999999095501MD1310031+9999ME1315189OA149900261REMSYN088AAXX  03074 06693 33/// /3501 11115 21119 39550 48518 53003 333 55300 20014 91105 91202;
0149066930999992011020308004+47267+009100FM-12+062399999V0201201N000519999999N9999999N1-00991-01011999999ADDMA1999999095541MD1210081+9999ME1315279OA149900261REMSYN088AAXX  03084 06693 33/// /1201 11099 21101 39554 48527 52008 333 55306 20180 91105 91203;
0149066930999992011020309004+47267+009100FM-12+062399999V0201901N000519999999N9999999N1-00671-00671999999ADDMA1999999095531MD1010071+9999ME1315379OA149900261REMSYN088AAXX  03094 06693 33/// /1901 11067 21067 39553 48537 50007 333 553// 20742 91105 91203;
0149066930999992011020310004+47267+009100FM-12+062399999V0202601N000519999999N9999999N1-00411-00411999999ADDMA1999999095541MD1210041+9999ME1315479OA149900151REMSYN088AAXX  03104 06693 33/// /2601 11041 21041 39554 48547 52004 333 553// 2//// 91103 91202;
0149066930999992011020311004+47267+009100FM-12+062399999V0209999C000019999999N9999999N1+00021-00551999999ADDMA1999999095531MD1210011+9999ME1315619OA149900151REMSYN088AAXX  03114 06693 33/// /0000 10002 21055 39553 48561 52001 333 553// 2//// 91103 91202;
0149066930999992011020312004+47267+009100FM-12+062399999V0201801N000519999999N9999999N1+00281-00491999999ADDMA1999999095491MD1810041+9999ME1315679OA149900261REMSYN088AAXX  03124 06693 33/// /1801 10028 21049 39549 48567 58004 333 553// 2//// 91105 91203;
0149066930999992011020313004+47267+009100FM-12+062399999V0203201N001019999999N9999999N1+00321-00501999999ADDMA1999999095481MD1710061+9999ME1315679OA149900511REMSYN088AAXX  03134 06693 33/// /3202 10032 21050 39548 48567 57006 333 55303 2//// 91110 91206;
0149066930999992011020314004+47267+009100FM-12+062399999V0203301N001519999999N9999999N1+00351-00601999999ADDMA1999999095461MD1710071+9999ME1315679OA149900511REMSYN088AAXX  03144 06693 33/// /3303 10035 21060 39546 48567 57007 333 55300 20778 91110 91207;
0149066930999992011020315004+47267+009100FM-12+062399999V0202901N000519999999N9999999N1+00351-00501999999ADDMA1999999095451MD1710041+9999ME1315669OA149900511REMSYN088AAXX  03154 06693 33/// /2901 10035 21050 39545 48566 57004 333 55300 20461 91110 91207;
0149066930999992011020316004+47267+009100FM-12+062399999V0203201N001019999999N9999999N1+00221-00261999999ADDMA1999999095521MD1310041+9999ME1315679OA149900511REMSYN088AAXX  03164 06693 33/// /3202 10022 21026 39552 48567 53004 333 55300 20173 91110 91204;
0149066930999992011020317004+47267+009100FM-12+062399999V0209999C000019999999N9999999N1+00141-00161999999ADDMA1999999095551MD1210091+9999ME1315679OA149900511REMSYN088AAXX  03174 06693 33/// /0000 10014 21016 39555 48567 52009 333 55300 20029 91110 91204;
0168066930999992011020318004+47267+009100FM-12+062399999V0201401N000519999999N9999999N1+00141-00141999999ADDKA1120M+00381MA1999999095601MD1210151+9999ME1315719OA149900511REMSYN094AAXX  03184 06693 33/// /1401 10014 21014 39560 48571 52015 333 10038 55300 20011 91110 91207;
0149066930999992011020319004+47267+009100FM-12+062399999V0201301N000519999999N9999999N1+00131-00111999999ADDMA1999999095611MD1210091+9999ME1315719OA149900311REMSYN088AAXX  03194 06693 33/// /1301 10013 21011 39561 48571 52009 333 55300 20011 91106 91202;
0149066930999992011020320004+47267+009100FM-12+062399999V0202201N001019999999N9999999N1+00121-00081999999ADDMA1999999095651MD1210101+9999ME1315749OA149900311REMSYN088AAXX  03204 06693 33/// /2202 10012 21008 39565 48574 52010 333 55300 20011 91106 91202;
0149066930999992011020321004+47267+009100FM-12+062399999V0201101N000519999999N9999999N1+00121-00061999999ADDMA1999999095611MD1010011+9999ME1315719OA149900511REMSYN088AAXX  03214 06693 33/// /1101 10012 21006 39561 48571 50001 333 55300 20011 91110 91204;
0149066930999992011020322004+47267+009100FM-12+062399999V0202401N000519999999N9999999N1+00101+00031999999ADDMA1999999095591MD1810021+9999ME1315699OA149900311REMSYN088AAXX  03224 06693 33/// /2401 10010 20003 39559 48569 58002 333 55300 20011 91106 91203;
0149066930999992011020323004+47267+009100FM-12+062399999V0201501N001519999999N9999999N1+00101+00051999999ADDMA1999999095611MD1710041+9999ME1315709OA149900211REMSYN088AAXX  03234 06693 33/// /1503 10010 20005 39561 48570 57004 333 55300 20011 91104 91203;
0149066930999992011020400004+47267+009100FM-12+062399999V0209999C000019999999N9999999N1+00101+00071999999ADDMA1999999095611MD1010001+9999ME1315709OA149900511REMSYN088AAXX  04004 06693 33/// /0000 10010 20007 39561 48570 50000 333 55300 20011 91110 91207;
0149066930999992011020401004+47267+009100FM-12+062399999V0200901N001019999999N9999999N1+00081+00081999999ADDMA1999999095621MD1210031+9999ME1315709OA149900151REMSYN088AAXX  04014 06693 33/// /0902 10008 20008 39562 48570 52003 333 55300 20011 91103 91202;
0149066930999992011020402004+47267+009100FM-12+062399999V0209999C000019999999N9999999N1+00031+00031999999ADDMA1999999095581MD1810031+9999ME1315659OA149900151REMSYN088AAXX  04024 06693 33/// /0000 10003 20003 39558 48565 58003 333 55300 20011 91103 91202;
0149066930999992011020403004+47267+009100FM-12+062399999V0201701N000519999999N9999999N1-00071-00071999999ADDMA1999999095581MD1710031+9999ME1315629OA149900211REMSYN088AAXX  04034 06693 33/// /1701 11007 21007 39558 48562 57003 333 55300 20011 91104 91203;
0149066930999992011020404004+47267+009100FM-12+062399999V0202301N000519999999N9999999N1-00161-00161999999ADDMA1999999095541MD1710081+9999ME1315569OA149900211REMSYN088AAXX  04044 06693 33/// /2301 11016 21016 39554 48556 57008 333 55300 20011 91104 91202;
0168066930999992011020405004+47267+009100FM-12+062399999V0202501N000519999999N9999999N1-00271-00271999999ADDMA1999999095581MD1410001+9999ME1315559OA149900151REMSYN088AAXX  04054 06693 33/// /2501 11027 21027 39558 48555 52000 333 55300 20011 91103 91202;EQDQ01+000022APCTEN
0198066930999992011020406004+47267+009100FM-12+062399999V0201601N000519999999N9999999N1-00211-00211999999ADDAL19900091GJ102949KA1999N-00271MA1999999095611MD1310031+9999ME1315599OA149900311REMSYN106AAXX  04064 06693 33/// /1601 11021 21021 39561 48559 53003 333 21027 55049 55300 20011 70000 91106 91203;
0149066930999992011020407004+47267+009100FM-12+062399999V0201701N001019999999N9999999N1-00131-00131999999ADDMA1999999095701MD1210161+9999ME1315709OA149900261REMSYN088AAXX  04074 06693 33/// /1702 11013 21013 39570 48570 52016 333 55300 20014 91105 91202;
0149066930999992011020408004+47267+009100FM-12+062399999V0201301N001019999999N9999999N1-00051-00051999999ADDMA1999999095731MD1210151+9999ME1315759OA149900261REMSYN088AAXX  04084 06693 33/// /1302 11005 21005 39573 48575 52015 333 55300 20133 91105 91202;
0149066930999992011020409004+47267+009100FM-12+062399999V0209999C000019999999N9999999N1+00061+00041999999ADDMA1999999095741MD1210131+9999ME1315809OA149900311REMSYN088AAXX  04094 06693 33/// /0000 10006 20004 39574 48580 52013 333 55302 20385 91106 91204;
0149066930999992011020410004+47267+009100FM-12+062399999V0202201N000519999999N9999999N1+00391+00151999999ADDMA1999999095761MD1210061+9999ME1315939OA149900311REMSYN088AAXX  04104 06693 33/// /2201 10039 20015 39576 48593 52006 333 553// 2//// 91106 91204;
0149066930999992011020411004+47267+009100FM-12+062399999V0203101N000519999999N9999999N1+00691+00081999999ADDMA1999999095721MD1010011+9999ME1316019OA149900211REMSYN088AAXX  04114 06693 33/// /3101 10069 20008 39572 48601 50001 333 553// 2//// 91104 91201;
0149066930999992011020412004+47267+009100FM-12+062399999V0200301N002619999999N9999999N1+00771+00011999999ADDMA1999999095681MD1810061+9999ME1316009OA149900721REMSYN088AAXX  04124 06693 33/// /0305 10077 20001 39568 48600 58006 333 553// 2//// 91114 91208;
0149066930999992011020413004+47267+009100FM-12+062399999V0200701N001019999999N9999999N1+00791+00031999999ADDMA1999999095631MD1710131+9999ME1315979OA149900721REMSYN088AAXX  04134 06693 33/// /0702 10079 20003 39563 48597 57013 333 553// 2//// 91114 91208;
0149066930999992011020414004+47267+009100FM-12+062399999V0200301N001519999999N9999999N1+00791+00011999999ADDMA1999999095561MD1810161+9999ME1315919OA149900511REMSYN088AAXX  04144 06693 33/// /0303 10079 20001 39556 48591 58016 333 553// 2//// 91110 91205;
0149066930999992011020415004+47267+009100FM-12+062399999V0202301N000519999999N9999999N1+00541+00101999999ADDMA1999999095581MD1710101+9999ME1315839OA149900721REMSYN088AAXX  04154 06693 33/// /2301 10054 20010 39558 48583 57010 333 55308 20832 91114 91208;
0149066930999992011020416004+47267+009100FM-12+062399999V0202001N001019999999N9999999N1+00441+00111999999ADDMA1999999095641MD1310011+9999ME1315859OA149900571REMSYN088AAXX  04164 06693 33/// /2002 10044 20011 39564 48585 53001 333 55300 20198 91111 91204;
0149066930999992011020417004+47267+009100FM-12+062399999V0203001N000519999999N9999999N1+00371+00141999999ADDMA1999999095691MD1210131+9999ME1315879OA149900461REMSYN088AAXX  04174 06693 33/// /3001 10037 20014 39569 48587 52013 333 55300 20029 91109 91202;
0168066930999992011020418004+47267+009100FM-12+062399999V0201101N001019999999N9999999N1+00561+00161999999ADDKA1120M+00821MA1999999095701MD1210121+9999ME1315949OA149900721REMSYN094AAXX  04184 06693 33/// /1102 10056 20016 39570 48594 52012 333 10082 55300 20011 91114 91208;
0149066930999992011020419004+47267+009100FM-12+062399999V0201101N001519999999N9999999N1+00571+00161999999ADDMA1999999095721MD1210081+9999ME1315969OA149900671REMSYN088AAXX  04194 06693 33/// /1103 10057 20016 39572 48596 52008 333 55300 20011 91113 91203;
0149066930999992011020420004+47267+009100FM-12+062399999V0202801N000519999999N9999999N1+00441+00141999999ADDMA1999999095681MD1810011+9999ME1315889OA149900621REMSYN088AAXX  04204 06693 33/// /2801 10044 20014 39568 48588 58001 333 55300 20011 91112 91207;
0149066930999992011020421004+47267+009100FM-12+062399999V0202101N000519999999N9999999N1+00281+00121999999ADDMA1999999095701MD1510001+9999ME1315849OA149900671REMSYN088AAXX  04214 06693 33/// /2101 10028 20012 39570 48584 55000 333 55300 20011 91113 91207;
0149066930999992011020422004+47267+009100FM-12+062399999V0201101N002619999999N9999999N1+00391+00091999999ADDMA1999999095691MD1510031+9999ME1315879OA149900621REMSYN088AAXX  04224 06693 33/// /1105 10039 20009 39569 48587 55003 333 55300 20011 91112 91206;
0149066930999992011020423004+47267+009100FM-12+062399999V0200701N001019999999N9999999N1+00331+00051999999ADDMA1999999095721MD1210041+9999ME1315889OA149900511REMSYN088AAXX  04234 06693 33/// /0702 10033 20005 39572 48588 52004 333 55300 20011 91110 91205;
0149066930999992011020500004+47267+009100FM-12+062399999V0202501N000519999999N9999999N1+00141+00001999999ADDMA1999999095771MD1310071+9999ME1315859OA149900671REMSYN088AAXX  05004 06693 33/// /2501 10014 20000 39577 48585 53007 333 55300 20014 91113 91207;
0149066930999992011020501004+47267+009100FM-12+062399999V0201801N001019999999N9999999N1+00071+00001999999ADDMA1999999095801MD1210111+9999ME1315859OA149900411REMSYN088AAXX  05014 06693 33/// /1802 10007 20000 39580 48585 52011 333 55300 20011 91108 91203;
0149066930999992011020502004+47267+009100FM-12+062399999V0201201N002619999999N9999999N1+00461+00031999999ADDMA1999999095731MD1810011+9999ME1315939OA149900721REMSYN088AAXX  05024 06693 33/// /1205 10046 20003 39573 48593 58001 333 55300 20011 91114 91207;
0149066930999992011020503004+47267+009100FM-12+062399999V0201401N002619999999N9999999N1+00441+00011999999ADDMA1999999095711MD1710061+9999ME1315919OA149900721REMSYN088AAXX  05034 06693 33/// /1405 10044 20001 39571 48591 57006 333 55300 20011 91114 91207;
0149066930999992011020504004+47267+009100FM-12+062399999V0201801N001019999999N9999999N1+00271-00021999999ADDMA1999999095671MD1710131+9999ME1315819OA149900671REMSYN088AAXX  05044 06693 33/// /1802 10027 21002 39567 48581 57013 333 55300 20011 91113 91207;
0149066930999992011020505004+47267+009100FM-12+062399999V0202701N000519999999N9999999N1+00241-00011999999ADDMA1999999095721MD1510011+9999ME1315849OA149900671REMSYN088AAXX  05054 06693 33/// /2701 10024 21001 39572 48584 55001 333 55300 20011 91113 91207;
0198066930999992011020506004+47267+009100FM-12+062399999V0209999C001519999999N9999999N1+00441+00091999999ADDAL19900091GJ103609KA1999N+00051MA1999999095781MD1310071+9999ME1315979OA149900721REMSYN106AAXX  05064 06693 33/// /0003 10044 20009 39578 48597 53007 333 20005 55060 55300 20011 70000 91114 91207;
0149066930999992011020507004+47267+009100FM-12+062399999V0200901N000519999999N9999999N1+00481+00131999999ADDMA1999999095831MD1210161+9999ME1316029OA149900671REMSYN088AAXX  05074 06693 33/// /0901 10048 20013 39583 48602 52016 333 55300 20014 91113 91206;
0149066930999992011020508004+47267+009100FM-12+062399999V0201201N001019999999N9999999N1+00491+00141999999ADDMA1999999095811MD1210091+9999ME1316019OA149900771REMSYN088AAXX  05084 06693 33/// /1202 10049 20014 39581 48601 52009 333 55303 20108 91115 91204;
0149066930999992011020509004+47267+009100FM-12+062399999V0200101N001519999999N9999999N1+00561+00131999999ADDMA1999999095801MD1010021+9999ME1316039OA149900931REMSYN088AAXX  05094 06693 33/// /0103 10056 20013 39580 48603 50002 333 55303 20374 91118 91207;
0149066930999992011020510004+47267+009100FM-12+062399999V0203301N001019999999N9999999N1+00701+00081999999ADDMA1999999095801MD1710031+9999ME1316089OA149900931REMSYN088AAXX  05104 06693 33/// /3302 10070 20008 39580 48608 57003 333 553// 2//// 91118 91205;
0149066930999992011020511004+47267+009100FM-12+062399999V0202801N004619999999N9999999N1+00721+00091999999ADDMA1999999095771MD1710041+9999ME1316069OA149900821REMSYN088AAXX  05114 06693 33/// /2809 10072 20009 39577 48606 57004 333 553// 2//// 91116 91209;
0149066930999992011020512004+47267+009100FM-12+062399999V0202801N003119999999N9999999N1+00731+00141999999ADDMA1999999095671MD1710131+9999ME1315989OA149900931REMSYN088AAXX  05124 06693 33/// /2806 10073 20014 39567 48598 57013 333 553// 2//// 91118 91209;
0149066930999992011020513004+47267+009100FM-12+062399999V0202601N001519999999N9999999N1+00701+00151999999ADDMA1999999095591MD1810211+9999ME1315909OA149900771REMSYN088AAXX  05134 06693 33/// /2603 10070 20015 39559 48590 58021 333 553// 2//// 91115 91208;
0149066930999992011020514004+47267+009100FM-12+062399999V0201801N001019999999N9999999N1+00631+00161999999ADDMA1999999095581MD1610191+9999ME1315879OA149900771REMSYN088AAXX  05144 06693 33/// /1802 10063 20016 39558 48587 56019 333 553// 2//// 91115 91208;
0149066930999992011020515004+47267+009100FM-12+062399999V0202201N001019999999N9999999N1+00491+00111999999ADDMA1999999095581MD1610091+9999ME1315829OA149900821REMSYN088AAXX  05154 06693 33/// /2202 10049 20011 39558 48582 56009 333 55308 20850 91116 91209;
0149066930999992011020516004+47267+009100FM-12+062399999V0201801N001019999999N9999999N1+00331+00061999999ADDMA1999999095601MD1310011+9999ME1315789OA149900361REMSYN088AAXX  05164 06693 33/// /1802 10033 20006 39560 48578 53001 333 55300 20097 91107 91203;
0149066930999992011020517004+47267+009100FM-12+062399999V0201501N002119999999N9999999N1+00411+00031999999ADDMA1999999095631MD1310051+9999ME1315839OA149900771REMSYN088AAXX  05174 06693 33/// /1504 10041 20003 39563 48583 53005 333 55300 20029 91115 91207;
0168066930999992011020518004+47267+009100FM-12+062399999V0201401N001019999999N9999999N1+00241-00021999999ADDKA1120M+00811MA1999999095691MD1310111+9999ME1315829OA149900931REMSYN094AAXX  05184 06693 33/// /1402 10024 21002 39569 48582 53011 333 10081 55300 20011 91118 91209;
0149066930999992011020519004+47267+009100FM-12+062399999V0202001N001019999999N9999999N1+00011-00121999999ADDMA1999999095711MD1210111+9999ME1315759OA149900361REMSYN088AAXX  05194 06693 33/// /2002 10001 21012 39571 48575 52011 333 55300 20014 91107 91204;
0149066930999992011020520004+47267+009100FM-12+062399999V0201401N001019999999N9999999N1-00021-00181999999ADDMA1999999095701MD1210071+9999ME1315739OA149900311REMSYN088AAXX  05204 06693 33/// /1402 11002 21018 39570 48573 52007 333 55300 20011 91106 91203;
0149066930999992011020521004+47267+009100FM-12+062399999V0209999C000019999999N9999999N1-00061-00221999999ADDMA1999999095711MD1019999+9999ME1315739OA149900771REMSYN088AAXX  05214 06693 33/// /0000 11006 21022 39571 48573 50/// 333 55300 20011 91115 91207;
0149066930999992011020522004+47267+009100FM-12+062399999V0201601N001019999999N9999999N1-00111-00271999999ADDMA1999999095721MD1310011+9999ME1315729OA149900211REMSYN088AAXX  05224 06693 33/// /1602 11011 21027 39572 48572 53001 333 55300 20011 91104 91202;
0149066930999992011020523004+47267+009100FM-12+062399999V0201401N000519999999N9999999N1-00151-00311999999ADDMA1999999095741MD1110041+9999ME1315729OA149900311REMSYN088AAXX  05234 06693 33/// /1401 11015 21031 39574 48572 51004 333 55300 20011 91106 91203;
0149066930999992011020600004+47267+009100FM-12+062399999V0201601N001019999999N9999999N1-00131-00321999999ADDMA1999999095751MD1110041+9999ME1315749OA149900771REMSYN088AAXX  06004 06693 33/// /1602 11013 21032 39575 48574 51004 333 55300 20011 91115 91208;
0149066930999992011020601004+47267+009100FM-12+062399999V0201401N000519999999N9999999N1-00211-00311999999ADDMA1999999095751MD1110031+9999ME1315719OA149900151REMSYN088AAXX  06014 06693 33/// /1401 11021 21031 39575 48571 51003 333 55300 20011 91103 91202;
0149066930999992011020602004+47267+009100FM-12+062399999V0201501N001019999999N9999999N1-00241-00371999999ADDMA1999999095751MD1210011+9999ME1315709OA149900261REMSYN088AAXX  06024 06693 33/// /1502 11024 21037 39575 48570 52001 333 55300 20011 91105 91203;
0149066930999992011020603004+47267+009100FM-12+062399999V0201501N002119999999N9999999N1-00171-00351999999ADDMA1999999095731MD1810021+9999ME1315719OA149900311REMSYN088AAXX  06034 06693 33/// /1504 11017 21035 39573 48571 58002 333 55300 20011 91106 91204;
0149066930999992011020604004+47267+009100FM-12+062399999V0201701N001019999999N9999999N1-00111-00371999999ADDMA1999999095711MD1710041+9999ME1315719OA149900311REMSYN088AAXX  06044 06693 33/// /1702 11011 21037 39571 48571 57004 333 55300 20011 91106 91205;
0149066930999992011020605004+47267+009100FM-12+062399999V0201301N000519999999N9999999N1-00191-00351999999ADDMA1999999095701MD1710051+9999ME1315679OA149900311REMSYN088AAXX  06054 06693 33/// /1301 11019 21035 39570 48567 57005 333 55300 20011 91106 91205;
0198066930999992011020606004+47267+009100FM-12+062399999V0201801N000519999999N9999999N1-00201-00401999999ADDAL19900091GJ103849KA1999N-00261MA1999999095691MD1710041+9999ME1315669OA149900311REMSYN106AAXX  06064 06693 33/// /1801 11020 21040 39569 48566 57004 333 21026 55064 55300 20011 70000 91106 91205;
0149066930999992011020607004+47267+009100FM-12+062399999V0201701N001019999999N9999999N1-00301-00411999999ADDMA1999999095741MD1310031+9999ME1315679OA149900311REMSYN088AAXX  06074 06693 33/// /1702 11030 21041 39574 48567 53003 333 55300 20018 91106 91203;
0149066930999992011020608004+47267+009100FM-12+062399999V0209999C000019999999N9999999N1-00221-00341999999ADDMA1999999095741MD1210041+9999ME1315709OA149900311REMSYN088AAXX  06084 06693 33/// /0000 11022 21034 39574 48570 52004 333 55302 20122 91106 91203;
0149066930999992011020609004+47267+009100FM-12+062399999V0201901N000519999999N9999999N1+00021-00211999999ADDMA1999999095711MD1010021+9999ME1315769OA149900311REMSYN088AAXX  06094 06693 33/// /1901 10002 21021 39571 48576 50002 333 553// 20522 91106 91205;
0149066930999992011020610004+47267+009100FM-12+062399999V0201601N001019999999N9999999N1+00401-00091999999ADDMA1999999095681MD1810061+9999ME1315879OA149900151REMSYN088AAXX  06104 06693 33/// /1602 10040 21009 39568 48587 58006 333 553// 20961 91103 91202;
0149066930999992011020611004+47267+009100FM-12+062399999V0209999C000019999999N9999999N1+00741-00041999999ADDMA1999999095641MD1810101+9999ME1315969OA149900101REMSYN088AAXX  06114 06693 33/// /0000 10074 21004 39564 48596 58010 333 553// 2//// 91102 91202;
0149066930999992011020612004+47267+009100FM-12+062399999V0201801N000519999999N9999999N1+00781-00011999999ADDMA1999999095561MD1810151+9999ME1315909OA149900311REMSYN088AAXX  06124 06693 33/// /1801 10078 21001 39556 48590 58015 333 553// 2//// 91106 91205;
0149066930999992011020613004+47267+009100FM-12+062399999V0202101N001019999999N9999999N1+00861+00011999999ADDMA1999999095491MD1810191+9999ME1315879OA149900151REMSYN088AAXX  06134 06693 33/// /2102 10086 20001 39549 48587 58019 333 553// 2//// 91103 91202;
0149066930999992011020614004+47267+009100FM-12+062399999V0202001N001019999999N9999999N1+00831-00011999999ADDMA1999999095431MD1610211+9999ME1315819OA149900151REMSYN088AAXX  06144 06693 33/// /2002 10083 21001 39543 48581 56021 333 553// 2//// 91103 91202;
0149066930999992011020615004+47267+009100FM-12+062399999V0201401N000519999999N9999999N1+00731-00081999999ADDMA1999999095411MD1610151+9999ME1315769OA149900211REMSYN088AAXX  06154 06693 33/// /1401 10073 21008 39541 48576 56015 333 55309 20904 91104 91203;
0149066930999992011020616004+47267+009100FM-12+062399999V0201801N000519999999N9999999N1+00471-00061999999ADDMA1999999095401MD1710091+9999ME1315669OA149900211REMSYN088AAXX  06164 06693 33/// /1801 10047 21006 39540 48566 57009 333 55300 20151 91104 91203;
0168066930999992011020617004+47267+009100FM-12+062399999V0201701N000519999999N9999999N1+00231-00091999999ADDMA1999999095431MD1410001+9999ME1315609OA149900211REMSYN088AAXX  06174 06693 33/// /1701 10023 21009 39543 48560 53000 333 55300 20040 91104 91203;EQDQ01+000032APCTEN
0168066930999992011020618004+47267+009100FM-12+062399999V0201601N000519999999N9999999N1+00071-00141999999ADDKA1120M+00891MA1999999095471MD1210061+9999ME1315589OA149900311REMSYN094AAXX  06184 06693 33/// /1601 10007 21014 39547 48558 52006 333 10089 55300 20011 91106 91203;
0149066930999992011020619004+47267+009100FM-12+062399999V0200901N000519999999N9999999N1-00051-00171999999ADDMA1999999095471MD1210071+9999ME1315549OA149900151REMSYN088AAXX  06194 06693 33/// /0901 11005 21017 39547 48554 52007 333 55300 20011 91103 91201;
0149066930999992011020620004+47267+009100FM-12+062399999V0209999C000019999999N9999999N1-00121-00201999999ADDMA1999999095461MD1010031+9999ME1315509OA149900101REMSYN088AAXX  06204 06693 33/// /0000 11012 21020 39546 48550 50003 333 55300 20011 91102 91201;
0149066930999992011020621004+47267+009100FM-12+062399999V0201401N000519999999N9999999N1-00201-00261999999ADDMA1999999095461MD1710011+9999ME1315489OA149900211REMSYN088AAXX  06214 06693 33/// /1401 11020 21026 39546 48548 57001 333 55300 20011 91104 91203;
0149066930999992011020622004+47267+009100FM-12+062399999V0201701N000519999999N9999999N1-00221-00271999999ADDMA1999999095431MD1710041+9999ME1315449OA149900101REMSYN088AAXX  06224 06693 33/// /1701 11022 21027 39543 48544 57004 333 55300 20011 91102 91201;
0149066930999992011020623004+47267+009100FM-12+062399999V0201701N001019999999N9999999N1-00271-00271999999ADDMA1999999095401MD1710061+9999ME1315409OA149900151REMSYN088AAXX  06234 06693 33/// /1702 11027 21027 39540 48540 57006 333 55300 20011 91103 91202;
0149066930999992011020700004+47267+009100FM-12+062399999V0209999C000019999999N9999999N1-00331-00341999999ADDMA1999999095421MD1510041+9999ME1315409OA149900211REMSYN088AAXX  07004 06693 33/// /0000 11033 21034 39542 48540 55004 333 55300 20011 91104 91203;
0149066930999992011020701004+47267+009100FM-12+062399999V0209999C000019999999N9999999N1-00351-00351999999ADDMA1999999095411MD1710021+9999ME1315389OA149900151REMSYN088AAXX  07014 06693 33/// /0000 11035 21035 39541 48538 57002 333 55300 20011 91103 91201;
0149066930999992011020702004+47267+009100FM-12+062399999V0201601N001019999999N9999999N1-00411-00411999999ADDMA1999999095431MD1210031+9999ME1315389OA149900101REMSYN088AAXX  07024 06693 33/// /1602 11041 21041 39543 48538 52003 333 55300 20011 91102 91202;
0149066930999992011020703004+47267+009100FM-12+062399999V0209999C000019999999N9999999N1-00421-00421999999ADDMA1999999095391MD1810031+9999ME1315349OA149900151REMSYN088AAXX  07034 06693 33/// /0000 11042 21042 39539 48534 58003 333 55300 20011 91103 91202;
0149066930999992011020704004+47267+009100FM-12+062399999V0209999C000019999999N9999999N1-00441-00441999999ADDMA1999999095371MD1710041+9999ME1315329OA149900151REMSYN088AAXX  07044 06693 33/// /0000 11044 21044 39537 48532 57004 333 55300 20011 91103 91202;
0149066930999992011020705004+47267+009100FM-12+062399999V0201601N000519999999N9999999N1-00461-00461999999ADDMA1999999095361MD1610071+9999ME1315319OA149900101REMSYN088AAXX  07054 06693 33/// /1601 11046 21046 39536 48531 56007 333 55300 20011 91102 91201;
0198066930999992011020706004+47267+009100FM-12+062399999V0209999C000019999999N9999999N1-00411-00411999999ADDAL19900091GJ104269KA1999N-00481MA1999999095311MD1710081+9999ME1315289OA149900151REMSYN106AAXX  07064 06693 33/// /0000 11041 21041 39531 48528 57008 333 21048 55071 55300 20011 70000 91103 91202;
0149066930999992011020707004+47267+009100FM-12+062399999V0200601N001019999999N9999999N1-00291-00411999999ADDMA1999999095251MD1710121+9999ME1315279OA149900151REMSYN088AAXX  07074 06693 33/// /0602 11029 21041 39525 48527 57012 333 55300 20018 91103 91202;
0149066930999992011020708004+47267+009100FM-12+062399999V0209999C000019999999N9999999N1-00141-00391999999ADDMA1999999095211MD1710151+9999ME1315299OA149900151REMSYN088AAXX  07084 06693 33/// /0000 11014 21039 39521 48529 57015 333 55307 20227 91103 91202;
0149066930999992011020709004+47267+009100FM-12+062399999V0209999C000019999999N9999999N1+00211-00211999999ADDMA1999999095161MD1610151+9999ME1315379OA149900151REMSYN088AAXX  07094 06693 33/// /0000 10021 21021 39516 48537 56015 333 553// 20788 91103 91202;
0149066930999992011020710004+47267+009100FM-12+062399999V0209999C000019999999N9999999N1+00621-00171999999ADDMA1999999095141MD1710111+9999ME1315499OA149900101REMSYN088AAXX  07104 06693 33/// /0000 10062 21017 39514 48549 57011 333 553// 2//// 91102 91202;
0149066930999992011020711004+47267+009100FM-12+062399999V0202101N000519999999N9999999N1+00791-00051999999ADDMA1999999095111MD1710101+9999ME1315539OA149900101REMSYN088AAXX  07114 06693 33/// /2101 10079 21005 39511 48553 57010 333 553// 2//// 91102 91202;
0149066930999992011020712004+47267+009100FM-12+062399999V0203101N001519999999N9999999N1+00991-00041999999ADDMA1999999095051MD1710111+9999ME1315549OA149900461REMSYN088AAXX  07124 06693 33/// /3103 10099 21004 39505 48554 57011 333 553// 2//// 91109 91203;
0149066930999992011020713004+47267+009100FM-12+062399999V0202301N001019999999N9999999N1+00921-00021999999ADDMA1999999095011MD1710131+9999ME1315489OA149900571REMSYN088AAXX  07134 06693 33/// /2302 10092 21002 39501 48548 57013 333 553// 2//// 91111 91207;
0149066930999992011020714004+47267+009100FM-12+062399999V0201801N001019999999N9999999N1+00901-00061999999ADDMA1999999094961MD1710151+9999ME1315439OA149900571REMSYN088AAXX  07144 06693 33/// /1802 10090 21006 39496 48543 57015 333 553// 2//// 91111 91207;
0149066930999992011020715004+47267+009100FM-12+062399999V0202001N001019999999N9999999N1+00721-00111999999ADDMA1999999094931MD1610121+9999ME1315359OA149900571REMSYN088AAXX  07154 06693 33/// /2002 10072 21011 39493 48535 56012 333 55309 20954 91111 91207;
0149066930999992011020716004+47267+009100FM-12+062399999V0201901N000519999999N9999999N1+00421-00131999999ADDMA1999999094941MD1710071+9999ME1315269OA149900261REMSYN088AAXX  07164 06693 33/// /1901 10042 21013 39494 48526 57007 333 55300 20079 91105 91202;
0168066930999992011020717004+47267+009100FM-12+062399999V0201601N000519999999N9999999N1+00291-00151999999ADDMA1999999094961MD1410001+9999ME1315239OA149900211REMSYN088AAXX  07174 06693 33/// /1601 10029 21015 39496 48523 53000 333 55300 20029 91104 91203;EQDQ01+000032APCTEN
0168066930999992011020718004+47267+009100FM-12+062399999V0209999C000019999999N9999999N1+00071-00181999999ADDKA1120M+01061MA1999999094961MD1210031+9999ME1315169OA149900571REMSYN094AAXX  07184 06693 33/// /0000 10007 21018 39496 48516 52003 333 10106 55300 20011 91111 91207;
0149066930999992011020719004+47267+009100FM-12+062399999V0201101N000519999999N9999999N1+00021-00211999999ADDMA1999999094941MD1010001+9999ME1315129OA149900211REMSYN088AAXX  07194 06693 33/// /1101 10002 21021 39494 48512 50000 333 55300 20011 91104 91202;
0149066930999992011020720004+47267+009100FM-12+062399999V0202901N000519999999N9999999N1-00051-00271999999ADDMA1999999094901MD1710061+9999ME1315079OA149900261REMSYN088AAXX  07204 06693 33/// /2901 11005 21027 39490 48507 57006 333 55300 20011 91105 91202;
0149066930999992011020721004+47267+009100FM-12+062399999V0202201N000519999999N9999999N1-00181-00311999999ADDMA1999999094921MD1510041+9999ME1315049OA149900261REMSYN088AAXX  07214 06693 33/// /2201 11018 21031 39492 48504 55004 333 55300 20011 91105 91203;
0149066930999992011020722004+47267+009100FM-12+062399999V0201701N001019999999N9999999N1-00171-00291999999ADDMA1999999094961MD1210021+9999ME1315089OA149900211REMSYN088AAXX  07224 06693 33/// /1702 11017 21029 39496 48508 52002 333 55300 20011 91104 91202;
0149066930999992011020723004+47267+009100FM-12+062399999V0201401N001019999999N9999999N1-00211-00291999999ADDMA1999999094971MD1210071+9999ME1315079OA149900211REMSYN088AAXX  07234 06693 33/// /1402 11021 21029 39497 48507 52007 333 55300 20011 91104 91202;
0149066930999992011020800004+47267+009100FM-12+062399999V0201801N000519999999N9999999N1-00221-00331999999ADDMA1999999094961MD1210041+9999ME1315069OA149900571REMSYN088AAXX  08004 06693 33/// /1801 11022 21033 39496 48506 52004 333 55300 20011 91111 91207;
0149066930999992011020801004+47267+009100FM-12+062399999V0201301N000519999999N9999999N1-00161-00371999999ADDMA1999999094941MD1810021+9999ME1315069OA149900261REMSYN088AAXX  08014 06693 33/// /1301 11016 21037 39494 48506 58002 333 55300 20011 91105 91202;
0149066930999992011020802004+47267+009100FM-12+062399999V0201801N000519999999N9999999N1-00321-00411999999ADDMA1999999094931MD1710041+9999ME1315009OA149900211REMSYN088AAXX  08024 06693 33/// /1801 11032 21041 39493 48500 57004 333 55300 20011 91104 91202;
0149066930999992011020803004+47267+009100FM-12+062399999V0209999C000019999999N9999999N1-00321-00381999999ADDMA1999999094921MD1710041+9999ME1315009OA149900261REMSYN088AAXX  08034 06693 33/// /0000 11032 21038 39492 48500 57004 333 55300 20011 91105 91202;
0149066930999992011020804004+47267+009100FM-12+062399999V0209999C000019999999N9999999N1-00331-00411999999ADDMA1999999094931MD1510011+9999ME1315009OA149900151REMSYN088AAXX  08044 06693 33/// /0000 11033 21041 39493 48500 55001 333 55300 20011 91103 91202;
0149066930999992011020805004+47267+009100FM-12+062399999V0201501N001019999999N9999999N1-00421-00441999999ADDMA1999999094971MD1210041+9999ME1315009OA149900151REMSYN088AAXX  08054 06693 33/// /1502 11042 21044 39497 48500 52004 333 55300 20011 91103 91202;
0198066930999992011020806004+47267+009100FM-12+062399999V0201901N001019999999N9999999N1-00411-00441999999ADDAL19900091GJ104569KA1999N-00421MA1999999094991MD1210071+9999ME1315029OA149900261REMSYN106AAXX  08064 06693 33/// /1902 11041 21044 39499 48502 52007 333 21042 55076 55300 20011 70000 91105 91202;
0149066930999992011020807004+47267+009100FM-12+062399999V0201701N000519999999N9999999N1-00331-00391999999ADDMA1999999094991MD1210061+9999ME1315059OA149900211REMSYN088AAXX  08074 06693 33/// /1701 11033 21039 39499 48505 52006 333 55300 20025 91104 91202;
0096066930999992011020808004+47267+009100FM-12+062399999V0201001N000519999999N9999999N1-00031-00361999999ADDMA1999999094991ME1315159REMSYN060AAXX  08084 06693 43/// /1001 11003 21036 39499 48515 5////;
0096066930999992011020809004+47267+009100FM-12+062399999V0203401N000519999999N9999999N1+00211-00221999999ADDMA1999999095041ME1315279REMSYN060AAXX  08094 06693 43/// /3401 10021 21022 39504 48527 5////;
0149066930999992011020810004+47267+009100FM-12+062399999V0201501N000519999999N9999999N1+00521-00271999999ADDMA1999999095041MD1210051+9999ME1315379OA149900311REMSYN088AAXX  08104 06693 33/// /1501 10052 21027 39504 48537 52005 333 553// 2//// 91106 91204;
0149066930999992011020811004+47267+009100FM-12+062399999V0201901N000519999999N9999999N1+00771-00221999999ADDMA1999999095051MD1010061+9999ME1315479OA149900211REMSYN088AAXX  08114 06693 33/// /1901 10077 21022 39505 48547 50006 333 553// 2//// 91104 91203;
0149066930999992011020812004+47267+009100FM-12+062399999V0203201N000519999999N9999999N1+00921-00101999999ADDMA1999999094981MD1710061+9999ME1315469OA149900311REMSYN088AAXX  08124 06693 33/// /3201 10092 21010 39498 48546 57006 333 553// 2//// 91106 91204;
0149066930999992011020813004+47267+009100FM-12+062399999V0203101N002619999999N9999999N1+01021-00021999999ADDMA1999999094961MD1810081+9999ME1315489OA149900571REMSYN088AAXX  08134 06693 33/// /3105 10102 21002 39496 48548 58008 333 553// 2//// 91111 91206;
0149066930999992011020814004+47267+009100FM-12+062399999V0202401N001019999999N9999999N1+00971+00041999999ADDMA1999999094911MD1610141+9999ME1315429OA149900571REMSYN088AAXX  08144 06693 33/// /2402 10097 20004 39491 48542 56014 333 553// 2//// 91111 91206;
0149066930999992011020815004+47267+009100FM-12+062399999V0202101N001019999999N9999999N1+00661+00021999999ADDMA1999999094911MD1610071+9999ME1315319OA149900571REMSYN088AAXX  08154 06693 33/// /2102 10066 20002 39491 48531 56007 333 55309 20940 91111 91206;
0149066930999992011020816004+47267+009100FM-12+062399999V0201601N001019999999N9999999N1+00431-00021999999ADDMA1999999094901MD1610061+9999ME1315239OA149900211REMSYN088AAXX  08164 06693 33/// /1602 10043 21002 39490 48523 56006 333 55300 20115 91104 91202;
0149066930999992011020817004+47267+009100FM-12+062399999V0200901N000519999999N9999999N1+00231-00031999999ADDMA1999999094921MD1310011+9999ME1315189OA149900211REMSYN088AAXX  08174 06693 33/// /0901 10023 21003 39492 48518 53001 333 55300 20032 91104 91202;
0168066930999992011020818004+47267+009100FM-12+062399999V0201601N000519999999N9999999N1-00011-00101999999ADDKA1120M+01051MA1999999094981MD1210071+9999ME1315159OA149900571REMSYN094AAXX  08184 06693 33/// /1601 11001 21010 39498 48515 52007 333 10105 55300 20011 91111 91206;
0149066930999992011020819004+47267+009100FM-12+062399999V0201401N000519999999N9999999N1-00031-00121999999ADDMA1999999095001MD1210101+9999ME1315169OA149900151REMSYN088AAXX  08194 06693 33/// /1401 11003 21012 39500 48516 52010 333 55300 20011 91103 91202;
0096066930999992011020820004+47267+009100FM-12+062399999V0209999C000019999999N9999999N1-00151-00181999999ADDMA1999999094981ME1315109REMSYN060AAXX  08204 06693 43/// /0000 11015 21018 39498 48510 5////;
0149066930999992011020821004+47267+009100FM-12+062399999V0201101N000519999999N9999999N1-00231-00231999999ADDMA1999999094991MD1010011+9999ME1315089OA149900211REMSYN088AAXX  08214 06693 33/// /1101 11023 21023 39499 48508 50001 333 55300 20011 91104 91202;
0149066930999992011020822004+47267+009100FM-12+062399999V0209999C000019999999N9999999N1-00281-00281999999ADDMA1999999094971MD1710031+9999ME1315059OA149900101REMSYN088AAXX  08224 06693 33/// /0000 11028 21028 39497 48505 57003 333 55300 20011 91102 91201;
0149066930999992011020823004+47267+009100FM-12+062399999V0209999C000019999999N9999999N1-00341-00341999999ADDMA1999999094941MD1710041+9999ME1315019OA149900101REMSYN088AAXX  08234 06693 33/// /0000 11034 21034 39494 48501 57004 333 55300 20011 91102 91201;
0149066930999992011020900004+47267+009100FM-12+062399999V0201501N000519999999N9999999N1-00361-00361999999ADDMA1999999094931MD1610061+9999ME1314999OA149900571REMSYN088AAXX  09004 06693 33/// /1501 11036 21036 39493 48499 56006 333 55300 20011 91111 91206;
0149066930999992011020901004+47267+009100FM-12+062399999V0209999C000019999999N9999999N1-00371-00371999999ADDMA1999999094901MD1810071+9999ME1314969OA149900151REMSYN088AAXX  09014 06693 33/// /0000 11037 21037 39490 48496 58007 333 55300 20011 91103 91201;
0149066930999992011020902004+47267+009100FM-12+062399999V0209999C000019999999N9999999N1-00401-00401999999ADDMA1999999094881MD1810061+9999ME1314949OA149900101REMSYN088AAXX  09024 06693 33/// /0000 11040 21040 39488 48494 58006 333 55300 20011 91102 91201;
0149066930999992011020903004+47267+009100FM-12+062399999V0209999C000019999999N9999999N1-00451-00451999999ADDMA1999999094861MD1610071+9999ME1314909OA149900151REMSYN088AAXX  09034 06693 33/// /0000 11045 21045 39486 48490 56007 333 55300 20011 91103 91201;
0110066930999992011020904004+47267+009100FM-12+062399999V0201601N000519999999N9999999N1-00461-00461999999ADDMA1999999094861MD1710041+9999ME1314909REMSYN060AAXX  09044 06693 43/// /1601 11046 21046 39486 48490 57004;
0149066930999992011020905004+47267+009100FM-12+062399999V0201801N000519999999N9999999N1-00481-00481999999ADDMA1999999094851MD1710031+9999ME1314899OA149900101REMSYN088AAXX  09054 06693 33/// /1801 11048 21048 39485 48489 57003 333 55300 20011 91102 91201;
0198066930999992011020906004+47267+009100FM-12+062399999V0209999C000019999999N9999999N1-00491-00491999999ADDAL19900091GJ104629KA1999N-00501MA1999999094831MD1710031+9999ME1314879OA149900151REMSYN106AAXX  09064 06693 33/// /0000 11049 21049 39483 48487 57003 333 21050 55077 55300 20011 70000 91103 91202;
0149066930999992011020907004+47267+009100FM-12+062399999V0209999C000019999999N9999999N1-00511-00511999999ADDMA1999999094881MD1310021+9999ME1314909OA149900051REMSYN088AAXX  09074 06693 33/// /0000 11051 21051 39488 48490 53002 333 55300 20018 91101 91201;
0096066930999992011020908004+47267+009100FM-12+062399999V02099999999999999999N9999999N1+99999+99999999999ADDMD1219999+9999REMSYN070AAXX  09084 06693 43/// ///// 1//// 2//// 3//// 52/// 333 553// 20108;
0149066930999992011020909004+47267+009100FM-12+062399999V0209999C000019999999N9999999N1-00061-00221999999ADDMA1999999094881MD1010051+9999ME1315059OA149900101REMSYN088AAXX  09094 06693 33/// /0000 11006 21022 39488 48505 50005 333 553// 20781 91102 91201;
0149066930999992011020910004+47267+009100FM-12+062399999V0202701N000519999999N9999999N1+00261-00261999999ADDMA1999999094871MD1810011+9999ME1315159OA149900101REMSYN088AAXX  09104 06693 33/// /2701 10026 21026 39487 48515 58001 333 553// 2//// 91102 91201;
0149066930999992011020911004+47267+009100FM-12+062399999V0202101N000519999999N9999999N1+00491-00161999999ADDMA1999999094861MD1719999+9999ME1315219OA149900151REMSYN088AAXX  09114 06693 33/// /2101 10049 21016 39486 48521 57/// 333 553// 2//// 91103 91201;
0126066930999992011020912004+47267+009100FM-12+062399999V0203101N002619999999N9999999N1+00651+00021999999ADDMA1999999094821MD1710061+9999ME1315239REMSYN076AAXX  09124 06693 33/// /3105 10065 20002 39482 48523 57006 333 553// 2////;
0149066930999992011020913004+47267+009100FM-12+062399999V0203201N002619999999N9999999N1+00651+00031999999ADDMA1999999094801MD1710071+9999ME1315229OA149900511REMSYN088AAXX  09134 06693 33/// /3205 10065 20003 39480 48522 57007 333 553// 2//// 91110 91206;
0149066930999992011020914004+47267+009100FM-12+062399999V0203001N002119999999N9999999N1+00691+00111999999ADDMA1999999094801MD1710061+9999ME1315239OA149900511REMSYN088AAXX  09144 06693 33/// /3004 10069 20011 39480 48523 57006 333 553// 2//// 91110 91206;
0149066930999992011020915004+47267+009100FM-12+062399999V0202901N002119999999N9999999N1+00631+00101999999ADDMA1999999094811MD1510011+9999ME1315229OA149900511REMSYN088AAXX  09154 06693 33/// /2904 10063 20010 39481 48522 55001 333 553// 20976 91110 91206;
0149066930999992011020916004+47267+009100FM-12+062399999V0201501N001019999999N9999999N1+00291+00021999999ADDMA1999999094821MD1210021+9999ME1315119OA149900361REMSYN088AAXX  09164 06693 33/// /1502 10029 20002 39482 48511 52002 333 55300 20108 91107 91204;
0149066930999992011020917004+47267+009100FM-12+062399999V0209999C000019999999N9999999N1+00091-00031999999ADDMA1999999094841MD1210041+9999ME1315069OA149900261REMSYN088AAXX  09174 06693 33/// /0000 10009 21003 39484 48506 52004 333 55300 20032 91105 91204;
0168066930999992011020918004+47267+009100FM-12+062399999V0209999C000019999999N9999999N1-00111-00121999999ADDKA1120M+00701MA1999999094901MD1310091+9999ME1315059OA149900511REMSYN094AAXX  09184 06693 33/// /0000 11011 21012 39490 48505 53009 333 10070 55300 20011 91110 91206;
0149066930999992011020919004+47267+009100FM-12+062399999V0209999C000019999999N9999999N1-00181-00181999999ADDMA1999999094921MD1110101+9999ME1315049OA149900101REMSYN088AAXX  09194 06693 33/// /0000 11018 21018 39492 48504 51010 333 55300 20011 91102 91201;
