0128067050999992010010100004+46400+006233FM-12+043099999V0201901N001019999999N9999999N1+00481-00061099231ADDMA1999999093861MD1610111+9999OA149900621REMSYN076AAXX  01004 06705 33/// /1902 10048 21006 39386 49923 56011 333 91112 91207;
0128067050999992010010101004+46400+006233FM-12+043099999V0209999C000019999999N9999999N1+00471-00071099181ADDMA1999999093811MD1810131+9999OA149900151REMSYN076AAXX  01014 06705 33/// /0000 10047 21007 39381 49918 58013 333 91103 91202;
0128067050999992010010102004+46400+006233FM-12+043099999V0209999C000019999999N9999999N1+00481+00411099131ADDMA1999999093761MD1819999+9999OA149900151REMSYN076AAXX  01024 06705 33/// /0000 10048 20041 39376 49913 58/// 333 91103 91202;
0087067050999992010010103004+46400+006233FM-12+043099999V0202901N000519999999N9999999N1+00471-00021099061ADDMA1999999093701REMSYN060AAXX  01034 06705 43/// /2901 10047 21002 39370 49906 5////;
0087067050999992010010104004+46400+006233FM-12+043099999V0202801N000519999999N9999999N1+00471+00401099031ADDMA1999999093671REMSYN060AAXX  01044 06705 33/// /2801 10047 20040 39367 49903 5////;
0128067050999992010010105004+46400+006233FM-12+043099999V0200501N001019999999N9999999N1+00481-00051099001ADDMA1999999093641MD1710121+9999OA149900151REMSYN076AAXX  01054 06705 33/// /0502 10048 21005 39364 49900 57012 333 91103 91202;
0229067050999992010010106004+46400+006233FM-12+043099999V0209999C000019999999N9999999N1+00491-00061099011ADDAA112000091AA224001391AL11800191GJ101509IA2999-00209MA1999999093651MD1710051+9999OA149900311REMSYN106AAXX  01064 06705 03/// /0000 10049 21006 39365 49901 57005 69912 333 3/102 55025 69915 70013 91106 91205;EQDQ01  00002PRCP12
0145067050999992010010107004+46400+006233FM-12+043099999V0202801N001019999999N9999999N1+00491+00311099021ADDAA101000021MA1999999093651MD1510021+9999OA149900151REMSYN082AAXX  01074 06705 23/// /2802 10049 20031 39365 49902 55002 333 69915 91103 91202;
0145067050999992010010108004+46400+006233FM-12+043099999V0202101N000519999999N9999999N1+00491-00041099071ADDAA101000021MA1999999093711MD1210071+9999OA149900211REMSYN082AAXX  01084 06705 23/// /2101 10049 21004 39371 49907 52007 333 69925 91104 91203;
0145067050999992010010109004+46400+006233FM-12+043099999V0202301N001019999999N9999999N1+00511-00061099121ADDAA101000591MA1999999093771MD1210121+9999OA149900211REMSYN082AAXX  01094 06705 23/// /2302 10051 21006 39377 49912 52012 333 69945 91104 91203;
0145067050999992010010110004+46400+006233FM-12+043099999V0202101N001019999999N9999999N1+00531-00151099201ADDAA101000021MA1999999093841MD1310191+9999OA149900151REMSYN082AAXX  01104 06705 23/// /2102 10053 21015 39384 49920 53019 333 69915 91103 91202;
0145067050999992010010111004+46400+006233FM-12+043099999V0202001N001519999999N9999999N1+00541-00051099221ADDAA101000021MA1999999093861MD1110151+9999OA149900211REMSYN082AAXX  01114 06705 23/// /2003 10054 21005 39386 49922 51015 333 69915 91104 91203;
0151067050999992010010112004+46400+006233FM-12+043099999V0202101N001519999999N9999999N1+00531-00291099241ADDAA106001091MA1999999093881MD1110111+9999OA149900261REMSYN088AAXX  01124 06705 03/// /2103 10053 21029 39388 49924 51011 60011 333 69935 91105 91204;
0145067050999992010010113004+46400+006233FM-12+043099999V0202101N002619999999N9999999N1+00531-00021099311ADDAA101001091MA1999999093941MD1310101+9999OA149900411REMSYN082AAXX  01134 06705 23/// /2105 10053 21002 39394 49931 53010 333 69995 91108 91205;
0145067050999992010010114004+46400+006233FM-12+043099999V0202901N002119999999N9999999N1+00471-00021099441ADDAA101000891MA1999999094061MD1319999+9999OA149900411REMSYN082AAXX  01144 06705 23/// /2904 10047 21002 39406 49944 53/// 333 69985 91108 91205;
0128067050999992010010115004+46400+006233FM-12+043099999V0203201N008219999999N9999999N1+00491+00121099601ADDMA1999999094211MD1310331+9999OA149901291REMSYN076AAXX  01154 06705 33/// /3216 10049 20012 39421 49960 53033 333 91125 91216;
0128067050999992010010116004+46400+006233FM-12+043099999V0203001N003119999999N9999999N1+00491+00001099811ADDMA1999999094411MD1310471+9999OA149901291REMSYN076AAXX  01164 06705 33/// /3006 10049 20000 39441 49981 53047 333 91125 91216;
0128067050999992010010117004+46400+006233FM-12+043099999V0203101N003619999999N9999999N1+00441-00011100031ADDMA1999999094611MD1310551+9999OA149901241REMSYN076AAXX  01174 06705 33/// /3107 10044 21001 39461 40003 53055 333 91124 91215;
0151067050999992010010118004+46400+006233FM-12+043099999V0203101N005719999999N9999999N1+00311-00161100241ADDAA112003091MA1999999094781MD1210571+9999OA149901291REMSYN088AAXX  01184 06705 03/// /3111 10031 21016 39478 40024 52057 60032 333 60005 91125 91216;
0128067050999992010010119004+46400+006233FM-12+043099999V0203001N002619999999N9999999N1+00281-00301100441ADDMA1999999094961MD1210551+9999OA149901031REMSYN076AAXX  01194 06705 33/// /3005 10028 21030 39496 40044 52055 333 91120 91213;
0128067050999992010010120004+46400+006233FM-12+043099999V0202901N004119999999N9999999N1+00261-00241100541ADDMA1999999095051MD1110441+9999OA149901031REMSYN076AAXX  01204 06705 33/// /2908 10026 21024 39505 40054 51044 333 91120 91213;
0128067050999992010010121004+46400+006233FM-12+043099999V0202801N005119999999N9999999N1+00251-00341100641ADDMA1999999095151MD1110371+9999OA149901241REMSYN076AAXX  01214 06705 33/// /2810 10025 21034 39515 40064 51037 333 91124 91215;
0128067050999992010010122004+46400+006233FM-12+043099999V0202801N006719999999N9999999N1+00201-00471100731ADDMA1999999095221MD1210261+9999OA149901291REMSYN076AAXX  01224 06705 33/// /2813 10020 21047 39522 40073 52026 333 91125 91213;
0128067050999992010010123004+46400+006233FM-12+043099999V0203001N003119999999N9999999N1+00151-00551100821ADDMA1999999095301MD1110251+9999OA149901291REMSYN076AAXX  01234 06705 33/// /3006 10015 21055 39530 40082 51025 333 91125 91213;
0128067050999992010010200004+46400+006233FM-12+043099999V0202301N003619999999N9999999N1+00091-00631100931ADDMA1999999095391MD1310241+9999OA149901291REMSYN076AAXX  02004 06705 33/// /2307 10009 21063 39539 40093 53024 333 91125 91216;
0128067050999992010010201004+46400+006233FM-12+043099999V0202701N001519999999N9999999N1+00031-00741101051ADDMA1999999095491MD1310271+9999OA149900821REMSYN076AAXX  02014 06705 33/// /2703 10003 21074 39549 40105 53027 333 91116 91207;
0087067050999992010010202004+46400+006233FM-12+043099999V0202601N002619999999N9999999N1+00011-00771101231ADDMA1999999095661REMSYN060AAXX  02024 06705 33/// /2605 10001 21077 39566 40123 5////;
0128067050999992010010203004+46400+006233FM-12+043099999V0202901N002619999999N9999999N1-00021-00731101361ADDMA1999999095771MD1310381+9999OA149901291REMSYN076AAXX  02034 06705 33/// /2905 11002 21073 39577 40136 53038 333 91125 91213;
0128067050999992010010204004+46400+006233FM-12+043099999V0202901N006219999999N9999999N1-00061-00771101431ADDMA1999999095831MD1110341+9999OA149901131REMSYN076AAXX  02044 06705 33/// /2912 11006 21077 39583 40143 51034 333 91122 91212;
0128067050999992010010205004+46400+006233FM-12+043099999V0202801N003619999999N9999999N1-00051-00861101461ADDMA1999999095861MD1210201+9999OA149901131REMSYN076AAXX  02054 06705 33/// /2807 11005 21086 39586 40146 52020 333 91122 91214;
0206067050999992010010206004+46400+006233FM-12+043099999V0203201N006219999999N9999999N1-00071-00811101491ADDAA124002891AL14800291GJ100009IA2999-00309KA1999N-00071MA1999999095891MD1210121+9999OA149901291REMSYN100AAXX  02064 06705 33/// /3212 11007 21081 39589 40149 52012 333 21007 3/103 55000 70029 91125 91214;
0128067050999992010010207004+46400+006233FM-12+043099999V0202901N002619999999N9999999N1-00121-00861101591ADDMA1999999095971MD1210141+9999OA149901031REMSYN076AAXX  02074 06705 33/// /2905 11012 21086 39597 40159 52014 333 91120 91213;
0087067050999992010010208004+46400+006233FM-12+043099999V0203001N004619999999N9999999N1-00151-00971101701ADDMA1999999096071REMSYN060AAXX  02084 06705 33/// /3009 11015 21097 39607 40170 5////;
0128067050999992010010209004+46400+006233FM-12+043099999V0203301N002119999999N9999999N1-00121-00941101821ADDMA1999999096191MD1210301+9999OA149901131REMSYN076AAXX  02094 06705 33/// /3304 11012 21094 39619 40182 52030 333 91122 91214;
0128067050999992010010210004+46400+006233FM-12+043099999V0203501N004119999999N9999999N1-00011-01041101881ADDMA1999999096271MD1210301+9999OA149901031REMSYN076AAXX  02104 06705 33/// /3508 11001 21104 39627 40188 52030 333 91120 91211;
0128067050999992010010211004+46400+006233FM-12+043099999V0203401N003619999999N9999999N1+00001-01171101941ADDMA1999999096331MD1110261+9999OA149900881REMSYN076AAXX  02114 06705 33/// /3407 10000 21117 39633 40194 51026 333 91117 91210;
0128067050999992010010212004+46400+006233FM-12+043099999V0203301N005119999999N9999999N1+00051-01171101941ADDMA1999999096341MD1210151+9999OA149901131REMSYN076AAXX  02124 06705 33/// /3310 10005 21117 39634 40194 52015 333 91122 91214;
0128067050999992010010213004+46400+006233FM-12+043099999V0200801N001519999999N9999999N1+00031-00831102011ADDMA1999999096401MD1210131+9999OA149900771REMSYN076AAXX  02134 06705 33/// /0803 10003 21083 39640 40201 52013 333 91115 91210;
0128067050999992010010214004+46400+006233FM-12+043099999V0200101N000519999999N9999999N1+00041-01221102091ADDMA1999999096481MD1219999+9999OA149900671REMSYN076AAXX  02144 06705 33/// /0101 10004 21122 39648 40209 52/// 333 91113 91209;
0128067050999992010010215004+46400+006233FM-12+043099999V0203101N005119999999N9999999N1-00011-01001102171ADDMA1999999096541MD1310201+9999OA149900881REMSYN076AAXX  02154 06705 33/// /3110 11001 21100 39654 40217 53020 333 91117 91210;
0128067050999992010010216004+46400+006233FM-12+043099999V0203201N006219999999N9999999N1-00151-00981102281ADDMA1999999096621MD1110221+9999OA149900881REMSYN076AAXX  02164 06705 33/// /3212 11015 21098 39662 40228 51022 333 91117 91212;
0128067050999992010010217004+46400+006233FM-12+043099999V0203401N003619999999N9999999N1-00221-01041102351ADDMA1999999096671MD1210191+9999OA149900881REMSYN076AAXX  02174 06705 33/// /3407 11022 21104 39667 40235 52019 333 91117 91212;
0147067050999992010010218004+46400+006233FM-12+043099999V0203301N003619999999N9999999N1-00281-01021102411ADDKA1120M+00111MA1999999096711MD1210171+9999OA149901031REMSYN082AAXX  02184 06705 33/// /3307 11028 21102 39671 40241 52017 333 10011 91120 91212;
0128067050999992010010219004+46400+006233FM-12+043099999V0203401N002119999999N9999999N1-00321-01051102421ADDMA1999999096711MD1210091+9999OA149900621REMSYN076AAXX  02194 06705 33/// /3404 11032 21105 39671 40242 52009 333 91112 91208;
0128067050999992010010220004+46400+006233FM-12+043099999V0203401N002619999999N9999999N1-00381-01021102421ADDMA1999999096701MD1010031+9999OA149900461REMSYN076AAXX  02204 06705 33/// /3405 11038 21102 39670 40242 50003 333 91109 91207;
0128067050999992010010221004+46400+006233FM-12+043099999V0203301N002119999999N9999999N1-00431-01031102431ADDMA1999999096701MD1710011+9999OA149900881REMSYN076AAXX  02214 06705 33/// /3304 11043 21103 39670 40243 57001 333 91117 91212;
0128067050999992010010222004+46400+006233FM-12+043099999V0203401N002119999999N9999999N1-00441-01081102501ADDMA1999999096761MD1310051+9999OA149900311REMSYN076AAXX  02224 06705 33/// /3404 11044 21108 39676 40250 53005 333 91106 91205;
0128067050999992010010223004+46400+006233FM-12+043099999V0202901N001019999999N9999999N1-00491-01031102531ADDMA1999999096781MD1210081+9999OA149900311REMSYN076AAXX  02234 06705 33/// /2902 11049 21103 39678 40253 52008 333 91106 91205;
0128067050999992010010300004+46400+006233FM-12+043099999V0203301N001519999999N9999999N1-00561-01021102511ADDMA1999999096751MD1010051+9999OA149900881REMSYN076AAXX  03004 06705 33/// /3303 11056 21102 39675 40251 50005 333 91117 91212;
0128067050999992010010301004+46400+006233FM-12+043099999V0203201N001519999999N9999999N1-00561-01031102521ADDMA1999999096761MD1010001+9999OA149900361REMSYN076AAXX  03014 06705 33/// /3203 11056 21103 39676 40252 50000 333 91107 91204;
0087067050999992010010302004+46400+006233FM-12+043099999V0203201N001519999999N9999999N1-00601-01101102561ADDMA1999999096791REMSYN060AAXX  03024 06705 33/// /3203 11060 21110 39679 40256 5////;
0087067050999992010010303004+46400+006233FM-12+043099999V0203201N001519999999N9999999N1-00581-01021102501ADDMA1999999096731REMSYN060AAXX  03034 06705 33/// /3203 11058 21102 39673 40250 5////;
0128067050999992010010304004+46400+006233FM-12+043099999V0203401N001019999999N9999999N1-00541-00921102461ADDMA1999999096701MD1810061+9999OA149900211REMSYN076AAXX  03044 06705 33/// /3402 11054 21092 39670 40246 58006 333 91104 91204;
0128067050999992010010305004+46400+006233FM-12+043099999V0203001N001019999999N9999999N1-00501-00821102431ADDMA1999999096681MD1719999+9999OA149900211REMSYN076AAXX  03054 06705 33/// /3002 11050 21082 39668 40243 57/// 333 91104 91203;
0225067050999992010010306004+46400+006233FM-12+043099999V0203001N001019999999N9999999N1-00501-00821102361ADDAA124000091AL19900091GJ103849IA2999-01109KA1999N-00611MA1999999096621MD1710111+9999OA149900461REMSYN100AAXX  03064 06705 33/// /3002 11050 21082 39662 40236 57011 333 21061 3/111 55064 70000 91109 91207;EQDQ01  00002PRCP24
0128067050999992010010307004+46400+006233FM-12+043099999V0203001N001019999999N9999999N1-00531-00881102381ADDMA1999999096631MD1710071+9999OA149900211REMSYN076AAXX  03074 06705 33/// /3002 11053 21088 39663 40238 57007 333 91104 91203;
0128067050999992010010308004+46400+006233FM-12+043099999V0202701N001019999999N9999999N1-00431-00821102381ADDMA1999999096651MD1519999+9999OA149900211REMSYN076AAXX  03084 06705 33/// /2702 11043 21082 39665 40238 55/// 333 91104 91203;
0128067050999992010010309004+46400+006233FM-12+043099999V0203601N001519999999N9999999N1-00341-00731102351ADDMA1999999096641MD1210021+9999OA149900211REMSYN076AAXX  03094 06705 33/// /3603 11034 21073 39664 40235 52002 333 91104 91203;
0128067050999992010010310004+46400+006233FM-12+043099999V0200501N000519999999N9999999N1-00261-00651102311ADDMA1999999096621MD1010011+9999OA149900211REMSYN076AAXX  03104 06705 33/// /0501 11026 21065 39662 40231 50001 333 91104 91203;
0128067050999992010010311004+46400+006233FM-12+043099999V0200801N001019999999N9999999N1-00171-00851102251ADDMA1999999096581MD1710071+9999OA149900261REMSYN076AAXX  03114 06705 33/// /0802 11017 21085 39658 40225 57007 333 91105 91203;
0128067050999992010010312004+46400+006233FM-12+043099999V0200601N002619999999N9999999N1-00131-00901102161ADDMA1999999096511MD1710131+9999OA149900361REMSYN076AAXX  03124 06705 33/// /0605 11013 21090 39651 40216 57013 333 91107 91205;
0128067050999992010010313004+46400+006233FM-12+043099999V0200601N001019999999N9999999N1-00131-00861102171ADDMA1999999096521MD1710101+9999OA149900361REMSYN076AAXX  03134 06705 33/// /0602 11013 21086 39652 40217 57010 333 91107 91205;
0128067050999992010010314004+46400+006233FM-12+043099999V0202401N001019999999N9999999N1-00121-00881102151ADDMA1999999096501MD1710081+9999OA149900311REMSYN076AAXX  03144 06705 33/// /2402 11012 21088 39650 40215 57008 333 91106 91204;
0128067050999992010010315004+46400+006233FM-12+043099999V0202501N000519999999N9999999N1-00121-00821102151ADDMA1999999096501MD1710011+9999OA149900361REMSYN076AAXX  03154 06705 33/// /2501 11012 21082 39650 40215 57001 333 91107 91205;
0128067050999992010010316004+46400+006233FM-12+043099999V0200201N001019999999N9999999N1-00151-00821102091ADDMA1999999096441MD1710081+9999OA149900151REMSYN076AAXX  03164 06705 33/// /0202 11015 21082 39644 40209 57008 333 91103 91202;
0128067050999992010010317004+46400+006233FM-12+043099999V0203601N001519999999N9999999N1-00211-00721102061ADDMA1999999096401MD1710101+9999OA149900151REMSYN076AAXX  03174 06705 33/// /3603 11021 21072 39640 40206 57010 333 91103 91203;
0147067050999992010010318004+46400+006233FM-12+043099999V0203401N001519999999N9999999N1-00231-00651102081ADDKA1120M-00111MA1999999096411MD1710091+9999OA149900361REMSYN082AAXX  03184 06705 33/// /3403 11023 21065 39641 40208 57009 333 11011 91107 91205;
0128067050999992010010319004+46400+006233FM-12+043099999V0203401N002119999999N9999999N1-00311-00721102041ADDMA1999999096361MD1710081+9999OA149900261REMSYN076AAXX  03194 06705 33/// /3404 11031 21072 39636 40204 57008 333 91105 91204;
0128067050999992010010320004+46400+006233FM-12+043099999V0203201N002119999999N9999999N1-00391-00851102061ADDMA1999999096361MD1710041+9999OA149900311REMSYN076AAXX  03204 06705 33/// /3204 11039 21085 39636 40206 57004 333 91106 91204;
0128067050999992010010321004+46400+006233FM-12+043099999V0203401N002619999999N9999999N1-00441-00951102031ADDMA1999999096321MD1710091+9999OA149900311REMSYN076AAXX  03214 06705 33/// /3405 11044 21095 39632 40203 57009 333 91106 91205;
0128067050999992010010322004+46400+006233FM-12+043099999V0203301N002119999999N9999999N1-00441-00971102001ADDMA1999999096291MD1710071+9999OA149900311REMSYN076AAXX  03224 06705 33/// /3304 11044 21097 39629 40200 57007 333 91106 91205;
0128067050999992010010323004+46400+006233FM-12+043099999V0203301N001519999999N9999999N1-00321-00861101921ADDMA1999999096241MD1710121+9999OA149900261REMSYN076AAXX  03234 06705 33/// /3303 11032 21086 39624 40192 57012 333 91105 91204;
0128067050999992010010400004+46400+006233FM-12+043099999V0203101N001019999999N9999999N1-00271-00761101821ADDMA1999999096161MD1810161+9999OA149900311REMSYN076AAXX  04004 06705 33/// /3102 11027 21076 39616 40182 58016 333 91106 91205;
0128067050999992010010401004+46400+006233FM-12+043099999V0202501N000519999999N9999999N1-00211-00731101761ADDMA1999999096111MD1610181+9999OA149900151REMSYN076AAXX  04014 06705 33/// /2501 11021 21073 39611 40176 56018 333 91103 91203;
0128067050999992010010402004+46400+006233FM-12+043099999V0203001N001019999999N9999999N1-00221-00651101741ADDMA1999999096091MD1610151+9999OA149900151REMSYN076AAXX  04024 06705 33/// /3002 11022 21065 39609 40174 56015 333 91103 91202;
0128067050999992010010403004+46400+006233FM-12+043099999V0202501N000519999999N9999999N1-00181-00801101681ADDMA1999999096041MD1819999+9999OA149900261REMSYN076AAXX  04034 06705 33/// /2501 11018 21080 39604 40168 58/// 333 91105 91204;
0128067050999992010010404004+46400+006233FM-12+043099999V0203101N000519999999N9999999N1-00191-00601101661ADDMA1999999096021MD1810091+9999OA149900151REMSYN076AAXX  04044 06705 33/// /3101 11019 21060 39602 40166 58009 333 91103 91202;
0128067050999992010010405004+46400+006233FM-12+043099999V0201201N001519999999N9999999N1-00301-00581101691ADDMA1999999096031MD1510061+9999OA149900411REMSYN076AAXX  04054 06705 33/// /1203 11030 21058 39603 40169 55006 333 91108 91206;
0225067050999992010010406004+46400+006233FM-12+043099999V0203001N000519999999N9999999N1-00371-00551101691ADDAA124000091AL19900091GJ100249IA2999-00809KA1999N-00461MA1999999096011MD1710031+9999OA149900411REMSYN100AAXX  04064 06705 33/// /3001 11037 21055 39601 40169 57003 333 21046 3/108 55004 70000 91108 91206;EQDQ01  00002PRCP24
0128067050999992010010407004+46400+006233FM-12+043099999V0202801N001019999999N9999999N1-00371-00561101641ADDMA1999999095971MD1710051+9999OA149900151REMSYN076AAXX  04074 06705 33/// /2802 11037 21056 39597 40164 57005 333 91103 91202;
0128067050999992010010408004+46400+006233FM-12+043099999V0209999C000019999999N9999999N1-00331-00501101621ADDMA1999999095961MD1710071+9999OA149900151REMSYN076AAXX  04084 06705 33/// /0000 11033 21050 39596 40162 57007 333 91103 91202;
0128067050999992010010409004+46400+006233FM-12+043099999V0200301N000519999999N9999999N1-00281-00461101621ADDMA1999999095971MD1510041+9999OA149900411REMSYN076AAXX  04094 06705 33/// /0301 11028 21046 39597 40162 55004 333 91108 91206;
0128067050999992010010410004+46400+006233FM-12+043099999V0203001N000519999999N9999999N1-00201-00421101601ADDMA1999999095961MD1710011+9999OA149900101REMSYN076AAXX  04104 06705 33/// /3001 11020 21042 39596 40160 57001 333 91102 91201;
0145067050999992010010411004+46400+006233FM-12+043099999V0209999C000019999999N9999999N1-00191-00391101531ADDAA101000591MA1999999095901MD1710061+9999OA149900101REMSYN082AAXX  04114 06705 23/// /0000 11019 21039 39590 40153 57006 333 69945 91102 91201;
0151067050999992010010412004+46400+006233FM-12+043099999V0209999C000019999999N9999999N1-00161-00371101431ADDAA106000891MA1999999095811MD1710161+9999OA149900411REMSYN088AAXX  04124 06705 03/// /0000 11016 21037 39581 40143 57016 69981 333 69945 91108 91206;
0128067050999992010010413004+46400+006233FM-12+043099999V0209999C000019999999N9999999N1-00141-00381101351ADDMA1999999095741MD1610221+9999OA149900101REMSYN076AAXX  04134 06705 33/// /0000 11014 21038 39574 40135 56022 333 91102 91201;
0145067050999992010010414004+46400+006233FM-12+043099999V0209999C000019999999N9999999N1-00171-00331101331ADDAA101000021MA1999999095711MD1619999+9999OA149900101REMSYN082AAXX  04144 06705 23/// /0000 11017 21033 39571 40133 56/// 333 69915 91102 91201;
0128067050999992010010415004+46400+006233FM-12+043099999V0200701N000519999999N9999999N1-00191-00331101321ADDMA1999999095701MD1710111+9999OA149900101REMSYN076AAXX  04154 06705 33/// /0701 11019 21033 39570 40132 57011 333 91102 91201;
0128067050999992010010416004+46400+006233FM-12+043099999V0200601N000519999999N9999999N1-00201-00321101301ADDMA1999999095681MD1710061+9999OA149900101REMSYN076AAXX  04164 06705 33/// /0601 11020 21032 39568 40130 57006 333 91102 91201;
0128067050999992010010417004+46400+006233FM-12+043099999V0200101N000519999999N9999999N1-00211-00331101281ADDMA1999999095661MD1710051+9999OA149900101REMSYN076AAXX  04174 06705 33/// /0101 11021 21033 39566 40128 57005 333 91102 91201;
0170067050999992010010418004+46400+006233FM-12+043099999V0203201N000519999999N9999999N1-00221-00341101281ADDAA112001091KA1120M-00131MA1999999095661MD1610041+9999OA149900151REMSYN094AAXX  04184 06705 03/// /3201 11022 21034 39566 40128 56004 69992 333 11013 60005 91103 91202;
0128067050999992010010419004+46400+006233FM-12+043099999V0209999C000019999999N9999999N1-00211-00321101251ADDMA1999999095631MD1810051+9999OA149900051REMSYN076AAXX  04194 06705 33/// /0000 11021 21032 39563 40125 58005 333 91101 91201;
0128067050999992010010420004+46400+006233FM-12+043099999V0200601N001019999999N9999999N1-00211-00291101231ADDMA1999999095611MD1710051+9999OA149900101REMSYN076AAXX  04204 06705 33/// /0602 11021 21029 39561 40123 57005 333 91102 91202;
0128067050999992010010421004+46400+006233FM-12+043099999V0200601N000519999999N9999999N1-00221-00281101231ADDMA1999999095611MD1710051+9999OA149900101REMSYN076AAXX  04214 06705 33/// /0601 11022 21028 39561 40123 57005 333 91102 91202;
0128067050999992010010422004+46400+006233FM-12+043099999V0200801N001019999999N9999999N1-00241-00271101211ADDMA1999999095591MD1710041+9999OA149900151REMSYN076AAXX  04224 06705 33/// /0802 11024 21027 39559 40121 57004 333 91103 91202;
0128067050999992010010423004+46400+006233FM-12+043099999V0200601N000519999999N9999999N1-00281-00351101191ADDMA1999999095561MD1710051+9999OA149900151REMSYN076AAXX  04234 06705 33/// /0601 11028 21035 39556 40119 57005 333 91103 91202;
0122067050999992010010500004+46400+006233FM-12+043099999V0209999C000019999999N9999999N1+99999+99999999999ADDMA1999999095501MD1710111+9999OA149900151REMSYN070AAXX  05004 06705 33/// /0000 1//// 2//// 39550 57011 333 91103 91202;
0122067050999992010010501004+46400+006233FM-12+043099999V0209999C000019999999N9999999N1+99999+99999999999ADDMA1999999095421MD1810171+9999OA149900101REMSYN070AAXX  05014 06705 33/// /0000 1//// 2//// 39542 58017 333 91102 91201;
0128067050999992010010502004+46400+006233FM-12+043099999V0209999C000019999999N9999999N1-00281-00351101011ADDMA1999999095381MD1610181+9999OA149900101REMSYN076AAXX  05024 06705 33/// /0000 11028 21035 39538 40101 56018 333 91102 91201;
0122067050999992010010503004+46400+006233FM-12+043099999V0209999C000019999999N9999999N1+99999+99999999999ADDMA1999999095341MD1610161+9999OA149900151REMSYN070AAXX  05034 06705 33/// /0000 1//// 2//// 39534 56016 333 91103 91202;
0080067050999992010010504004+46400+006233FM-12+043099999V02099999999999999999N9999999N1+99999+99999999999ADDMD1819999+9999REMSYN054AAXX  05044 06705 43/// ///// 1//// 2//// 3//// 58///;
0073067050999992010010506004+46400+006233FM-12+043099999V02099999999999999999N9999999N1+99999+99999999999REMSYN064AAXX  05064 06705 43/// ///// 1//// 2//// 3//// 5//// 333 55000;
0081067050999992010010508004+46400+006233FM-12+043099999V0209999C000019999999N9999999N1+99999+99999999999ADDMA1999999095101REMSYN054AAXX  05084 06705 43/// /0000 1//// 2//// 39510 5////;
0087067050999992010010510004+46400+006233FM-12+043099999V0209999C000019999999N9999999N1+99999+99999999999ADDMA1999999095041REMSYN060AAXX  05104 06705 43/// /0000 1//// 2//// 39504 5//// 91020;
0108067050999992010010511004+46400+006233FM-12+043099999V0209999C000019999999N9999999N1-00181-00371100541ADDAA101002091MA1999999094971REMSYN070AAXX  05114 06705 23/// /0000 11018 21037 39497 40054 5//// 333 60025;
0103067050999992010010512004+46400+006233FM-12+043099999V0209999C000019999999N9999999N1-00131-00381100441ADDMA1999999094881REMSYN076AAXX  05124 06705 23/// /0000 11013 21038 39488 40044 5//// 6///1 333 60005;
0128067050999992010010513004+46400+006233FM-12+043099999V0209999C000019999999N9999999N1-00111-00451100351ADDMA1999999094801MD1619999+9999OA149900051REMSYN076AAXX  05134 06705 33/// /0000 11011 21045 39480 40035 56/// 333 91101 91201;
0087067050999992010010514004+46400+006233FM-12+043099999V0203201N000519999999N9999999N1-00091-00411100291ADDMA1999999094751REMSYN060AAXX  05144 06705 33/// /3201 11009 21041 39475 40029 5////;
0101067050999992010010515004+46400+006233FM-12+043099999V0209999C000019999999N9999999N1-00081-00431100281ADDMA1999999094741MD1610141+9999REMSYN060AAXX  05154 06705 33/// /0000 11008 21043 39474 40028 56014;
0128067050999992010010516004+46400+006233FM-12+043099999V0203001N000519999999N9999999N1-00081-00401100251ADDMA1999999094711MD1610091+9999OA149900151REMSYN076AAXX  05164 06705 33/// /3001 11008 21040 39471 40025 56009 333 91103 91202;
0128067050999992010010517004+46400+006233FM-12+043099999V0202801N001019999999N9999999N1-00081-00361100251ADDMA1999999094711MD1710041+9999OA149900151REMSYN076AAXX  05174 06705 33/// /2802 11008 21036 39471 40025 57004 333 91103 91202;
0128067050999992010010518004+46400+006233FM-12+043099999V0209999C000019999999N9999999N1-00081-00351100241ADDAA112999999MA1999999094701MD1710041+9999REMSYN076AAXX  05184 06705 23/// /0000 11008 21035 39470 40024 57004 6///2 333 60005;
0128067050999992010010519004+46400+006233FM-12+043099999V0203201N000519999999N9999999N1-00081-00341100221ADDMA1999999094681MD1810031+9999OA149900101REMSYN076AAXX  05194 06705 33/// /3201 11008 21034 39468 40022 58003 333 91102 91202;
0128067050999992010010520004+46400+006233FM-12+043099999V0202801N001019999999N9999999N1-00061-00361100181ADDMA1999999094651MD1810061+9999OA149900211REMSYN076AAXX  05204 06705 33/// /2802 11006 21036 39465 40018 58006 333 91104 91203;
0128067050999992010010521004+46400+006233FM-12+043099999V0202601N001519999999N9999999N1-00051-00321100151ADDMA1999999094621MD1610081+9999OA149900261REMSYN076AAXX  05214 06705 33/// /2603 11005 21032 39462 40015 56008 333 91105 91203;
0128067050999992010010522004+46400+006233FM-12+043099999V0202701N001019999999N9999999N1-00061-00301100121ADDMA1999999094591MD1610091+9999OA149900261REMSYN076AAXX  05224 06705 33/// /2702 11006 21030 39459 40012 56009 333 91105 91203;
0128067050999992010010523004+46400+006233FM-12+043099999V0202701N001519999999N9999999N1-00041-00281100101ADDMA1999999094581MD1610071+9999OA149900261REMSYN076AAXX  05234 06705 33/// /2703 11004 21028 39458 40010 56007 333 91105 91203;
0128067050999992010010600004+46400+006233FM-12+043099999V0202501N001019999999N9999999N1-00041-00261100081ADDMA1999999094561MD1710061+9999OA149900261REMSYN076AAXX  06004 06705 33/// /2502 11004 21026 39456 40008 57006 333 91105 91203;
0128067050999992010010601004+46400+006233FM-12+043099999V0202901N001019999999N9999999N1-00051-00241100071ADDMA1999999094551MD1710041+9999OA149900261REMSYN076AAXX  06014 06705 33/// /2902 11005 21024 39455 40007 57004 333 91105 91203;
0128067050999992010010602004+46400+006233FM-12+043099999V0202901N001019999999N9999999N1-00041-00251100121ADDMA1999999094601MD1310021+9999OA149900211REMSYN076AAXX  06024 06705 33/// /2902 11004 21025 39460 40012 53002 333 91104 91203;
0128067050999992010010603004+46400+006233FM-12+043099999V0202501N001519999999N9999999N1-00031-00271100101ADDMA1999999094581MD1210021+9999OA149900261REMSYN076AAXX  06034 06705 33/// /2503 11003 21027 39458 40010 52002 333 91105 91203;
0128067050999992010010604004+46400+006233FM-12+043099999V0202201N000519999999N9999999N1-00041-00251100091ADDMA1999999094571MD1010021+9999OA149900211REMSYN076AAXX  06044 06705 33/// /2201 11004 21025 39457 40009 50002 333 91104 91203;
0128067050999992010010605004+46400+006233FM-12+043099999V0202201N002119999999N9999999N1-00071-00301100151ADDMA1999999094621MD1310021+9999OA149900361REMSYN076AAXX  06054 06705 33/// /2204 11007 21030 39462 40015 53002 333 91107 91204;
0165067050999992010010606004+46400+006233FM-12+043099999V0202001N002619999999N9999999N1-00101-00431100161ADDIA2999-00209KA1999N-00101MA1999999094621MD1210041+9999OA149900411REMSYN088AAXX  06064 06705 33/// /2005 11010 21043 39462 40016 52004 333 21010 3/102 91108 91205;
0128067050999992010010607004+46400+006233FM-12+043099999V0202301N003619999999N9999999N1-00141-00461100201ADDMA1999999094651MD1210081+9999OA149900511REMSYN076AAXX  06074 06705 33/// /2307 11014 21046 39465 40020 52008 333 91110 91207;
0128067050999992010010608004+46400+006233FM-12+043099999V0202201N002119999999N9999999N1-00141-00481100251ADDMA1999999094701MD1210081+9999OA149900511REMSYN076AAXX  06084 06705 33/// /2204 11014 21048 39470 40025 52008 333 91110 91207;
0128067050999992010010609004+46400+006233FM-12+043099999V0202201N002619999999N9999999N1-00131-00511100291ADDMA1999999094741MD1310121+9999OA149900511REMSYN076AAXX  06094 06705 33/// /2205 11013 21051 39474 40029 53012 333 91110 91207;
0128067050999992010010610004+46400+006233FM-12+043099999V0202101N003119999999N9999999N1-00081-00571100321ADDMA1999999094781MD1210131+9999OA149900511REMSYN076AAXX  06104 06705 33/// /2106 11008 21057 39478 40032 52013 333 91110 91208;
0128067050999992010010611004+46400+006233FM-12+043099999V0202401N003619999999N9999999N1-00011-00581100301ADDMA1999999094771MD1219999+9999OA149900511REMSYN076AAXX  06114 06705 33/// /2407 11001 21058 39477 40030 52/// 333 91110 91208;
0128067050999992010010612004+46400+006233FM-12+043099999V0202401N003619999999N9999999N1+00001-00601100271ADDMA1999999094751MD1010011+9999OA149900511REMSYN076AAXX  06124 06705 33/// /2407 10000 21060 39475 40027 50001 333 91110 91208;
0128067050999992010010613004+46400+006233FM-12+043099999V0202001N003619999999N9999999N1+00001-00571100271ADDMA1999999094751MD1710031+9999OA149900571REMSYN076AAXX  06134 06705 33/// /2007 10000 21057 39475 40027 57003 333 91111 91208;
0128067050999992010010614004+46400+006233FM-12+043099999V0202201N003119999999N9999999N1+00061-00571100271ADDMA1999999094761MD1019999+9999OA149900571REMSYN076AAXX  06144 06705 33/// /2206 10006 21057 39476 40027 50/// 333 91111 91208;
0128067050999992010010615004+46400+006233FM-12+043099999V0202101N003119999999N9999999N1+00001-00631100311ADDMA1999999094791MD1219999+9999OA149900571REMSYN076AAXX  06154 06705 33/// /2106 10000 21063 39479 40031 52/// 333 91111 91208;
0128067050999992010010616004+46400+006233FM-12+043099999V0202001N002619999999N9999999N1-00131-00671100431ADDMA1999999094871MD1310121+9999OA149900571REMSYN076AAXX  06164 06705 33/// /2005 11013 21067 39487 40043 53012 333 91111 91208;
0128067050999992010010617004+46400+006233FM-12+043099999V0202201N002119999999N9999999N1-00191-00691100481ADDMA1999999094911MD1110151+9999OA149900461REMSYN076AAXX  06174 06705 33/// /2204 11019 21069 39491 40048 51015 333 91109 91206;
0147067050999992010010618004+46400+006233FM-12+043099999V0202701N002619999999N9999999N1-00151-00621100541ADDKA1120M+00061MA1999999094971MD1319999+9999OA149900571REMSYN082AAXX  06184 06705 33/// /2705 11015 21062 39497 40054 53/// 333 10006 91111 91208;
0128067050999992010010619004+46400+006233FM-12+043099999V0202501N001019999999N9999999N1-00081-00691100541ADDMA1999999094991MD1110121+9999OA149900721REMSYN076AAXX  06194 06705 33/// /2502 11008 21069 39499 40054 51012 333 91114 91209;
0128067050999992010010620004+46400+006233FM-12+043099999V0202001N003119999999N9999999N1-00081-00621100561ADDMA1999999095011MD1210101+9999OA149900721REMSYN076AAXX  06204 06705 33/// /2006 11008 21062 39501 40056 52010 333 91114 91209;
0128067050999992010010621004+46400+006233FM-12+043099999V0202101N001519999999N9999999N1-00111-00501100631ADDMA1999999095071MD1210101+9999OA149900721REMSYN076AAXX  06214 06705 33/// /2103 11011 21050 39507 40063 52010 333 91114 91209;
0128067050999992010010622004+46400+006233FM-12+043099999V0202001N002119999999N9999999N1-00181-00461100671ADDMA1999999095091MD1210101+9999OA149900511REMSYN076AAXX  06224 06705 33/// /2004 11018 21046 39509 40067 52010 333 91110 91207;
0128067050999992010010623004+46400+006233FM-12+043099999V0202901N001019999999N9999999N1-00331-00581100711ADDMA1999999095101MD1210091+9999OA149900361REMSYN076AAXX  06234 06705 33/// /2902 11033 21058 39510 40071 52009 333 91107 91205;
0128067050999992010010700004+46400+006233FM-12+043099999V0202901N002119999999N9999999N1-00451-00681100731ADDMA1999999095091MD1010021+9999OA149900721REMSYN076AAXX  07004 06705 33/// /2904 11045 21068 39509 40073 50002 333 91114 91209;
0147067050999992010010701004+46400+006233FM-12+043099999V0203001N001519999999N9999999N1-00491-00761100741ADDMA1999999095091MD1710071+9999OA149900361REMSYN076AAXX  07014 06705 33/// /3003 11049 21076 39509 40074 57000 333 91107 91205;EQDQ01+000002APC3  
0128067050999992010010702004+46400+006233FM-12+043099999V0203001N001519999999N9999999N1-00411-00711100751ADDMA1999999095121MD1319999+9999OA149900311REMSYN076AAXX  07024 06705 33/// /3003 11041 21071 39512 40075 53/// 333 91106 91204;
0128067050999992010010703004+46400+006233FM-12+043099999V0202401N000519999999N9999999N1-00441-00701100741ADDMA1999999095101MD1010011+9999OA149900361REMSYN076AAXX  07034 06705 33/// /2401 11044 21070 39510 40074 50001 333 91107 91205;
0128067050999992010010704004+46400+006233FM-12+043099999V0202701N000519999999N9999999N1-00481-00751100751ADDMA1999999095101MD1010011+9999OA149900261REMSYN076AAXX  07044 06705 33/// /2701 11048 21075 39510 40075 50001 333 91105 91204;
0147067050999992010010705004+46400+006233FM-12+043099999V0203101N001519999999N9999999N1-00531-00801100781ADDMA1999999095121MD1210031+9999OA149900261REMSYN076AAXX  07054 06705 33/// /3103 11053 21080 39512 40078 52000 333 91105 91204;EQDQ01+000002APC3  
0225067050999992010010706004+46400+006233FM-12+043099999V0202401N001519999999N9999999N1-00401-00631100791ADDAA124000091AL19900091GJ103429IA2999-00909KA1999N-00571MA1999999095161MD1210061+9999OA149900721REMSYN100AAXX  07064 06705 33/// /2403 11040 21063 39516 40079 52006 333 21057 3/109 55057 70000 91114 91209;EQDQ01  00002PRCP24
0128067050999992010010707004+46400+006233FM-12+043099999V0202601N001519999999N9999999N1-00441-00641100841ADDMA1999999095201MD1110101+9999OA149900261REMSYN076AAXX  07074 06705 33/// /2603 11044 21064 39520 40084 51010 333 91105 91203;
0128067050999992010010708004+46400+006233FM-12+043099999V0202401N001019999999N9999999N1-00381-00631100891ADDMA1999999095261MD1319999+9999OA149900261REMSYN076AAXX  07084 06705 33/// /2402 11038 21063 39526 40089 53/// 333 91105 91203;
0128067050999992010010709004+46400+006233FM-12+043099999V0202401N001519999999N9999999N1-00271-00571100931ADDMA1999999095321MD1310161+9999OA149900261REMSYN076AAXX  07094 06705 33/// /2403 11027 21057 39532 40093 53016 333 91105 91204;
0128067050999992010010710004+46400+006233FM-12+043099999V0209999C000019999999N9999999N1-00221-00551100971ADDMA1999999095361MD1210161+9999OA149900261REMSYN076AAXX  07104 06705 33/// /0000 11022 21055 39536 40097 52016 333 91105 91203;
0128067050999992010010711004+46400+006233FM-12+043099999V0202101N001019999999N9999999N1-00201-00601100951ADDMA1999999095351MD1210091+9999OA149900261REMSYN076AAXX  07114 06705 33/// /2102 11020 21060 39535 40095 52009 333 91105 91203;
0128067050999992010010712004+46400+006233FM-12+043099999V0202001N001519999999N9999999N1-00181-00551100931ADDMA1999999095331MD1010011+9999OA149900311REMSYN076AAXX  07124 06705 33/// /2003 11018 21055 39533 40093 50001 333 91106 91204;
0128067050999992010010713004+46400+006233FM-12+043099999V0202101N001019999999N9999999N1-00131-00651100901ADDMA1999999095321MD1710041+9999OA149900211REMSYN076AAXX  07134 06705 33/// /2102 11013 21065 39532 40090 57004 333 91104 91203;
0087067050999992010010715004+46400+006233FM-12+043099999V0209999C000019999999N9999999N1-00091-00731100961ADDMA1999999095381REMSYN060AAXX  07154 06705 43/// /0000 11009 21073 39538 40096 5////;
0087067050999992010010716004+46400+006233FM-12+043099999V0203201N001019999999N9999999N1-00121-00621100981ADDMA1999999095391REMSYN060AAXX  07164 06705 33/// /3202 11012 21062 39539 40098 5/007;
0128067050999992010010717004+46400+006233FM-12+043099999V0203301N001519999999N9999999N1-00161-00521101021ADDMA1999999095421MD1219999+9999OA149900211REMSYN076AAXX  07174 06705 33/// /3303 11016 21052 39542 40102 52/// 333 91104 91203;
0147067050999992010010718004+46400+006233FM-12+043099999V0203101N001019999999N9999999N1-00151-00481101051ADDKA1120M-00061MA1999999095451MD1219999+9999OA149900261REMSYN082AAXX  07184 06705 33/// /3102 11015 21048 39545 40105 52/// 333 11006 91105 91203;
0128067050999992010010719004+46400+006233FM-12+043099999V0200101N002119999999N9999999N1-00061-00511101031ADDMA1999999095451MD1210061+9999OA149900361REMSYN076AAXX  07194 06705 33/// /0104 11006 21051 39545 40103 52006 333 91107 91205;
0128067050999992010010720004+46400+006233FM-12+043099999V0209999C001019999999N9999999N1-00061-00511101021ADDMA1999999095441MD1010021+9999OA149900361REMSYN076AAXX  07204 06705 33/// /0002 11006 21051 39544 40102 50002 333 91107 91205;
0128067050999992010010721004+46400+006233FM-12+043099999V0203601N001519999999N9999999N1-00091-00471100971ADDMA1999999095391MD1810061+9999OA149900361REMSYN076AAXX  07214 06705 33/// /3603 11009 21047 39539 40097 58006 333 91107 91205;
0128067050999992010010722004+46400+006233FM-12+043099999V0200101N001519999999N9999999N1-00041-00461100931ADDMA1999999095361MD1810091+9999OA149900361REMSYN076AAXX  07224 06705 33/// /0103 11004 21046 39536 40093 58009 333 91107 91204;
0128067050999992010010723004+46400+006233FM-12+043099999V0202901N000519999999N9999999N1-00051-00451100971ADDMA1999999095401MD1510041+9999OA149900361REMSYN076AAXX  07234 06705 33/// /2901 11005 21045 39540 40097 55004 333 91107 91204;
0128067050999992010010800004+46400+006233FM-12+043099999V0200501N000519999999N9999999N1-00031-00461100891ADDMA1999999095331MD1710061+9999OA149900361REMSYN076AAXX  08004 06705 33/// /0501 11003 21046 39533 40089 57006 333 91107 91205;
0128067050999992010010801004+46400+006233FM-12+043099999V0200601N006219999999N9999999N1-00021-00451100821ADDMA1999999095261MD1810101+9999OA149900821REMSYN076AAXX  08014 06705 33/// /0612 11002 21045 39526 40082 58010 333 91116 91212;
0128067050999992010010802004+46400+006233FM-12+043099999V0200301N005719999999N9999999N1+00001-00511100811ADDMA1999999095261MD1719999+9999OA149900981REMSYN076AAXX  08024 06705 33/// /0311 10000 21051 39526 40081 57/// 333 91119 91213;
0128067050999992010010803004+46400+006233FM-12+043099999V0200401N006219999999N9999999N1-00041-00471100761ADDMA1999999095201MD1719999+9999OA149901341REMSYN076AAXX  08034 06705 33/// /0412 11004 21047 39520 40076 57/// 333 91126 91214;
0128067050999992010010804004+46400+006233FM-12+043099999V0200301N007719999999N9999999N1-00021-00451100671ADDMA1999999095121MD1710141+9999OA149901341REMSYN076AAXX  08044 06705 33/// /0315 11002 21045 39512 40067 57014 333 91126 91215;
0128067050999992010010805004+46400+006233FM-12+043099999V0200401N008719999999N9999999N1-00021-00421100591ADDMA1999999095051MD1610211+9999OA149901441REMSYN076AAXX  08054 06705 33/// /0417 11002 21042 39505 40059 56021 333 91128 91217;
0225067050999992010010806004+46400+006233FM-12+043099999V0200301N009319999999N9999999N1-00021-00431100531ADDAA124000091AL19900091GJ100969IA2999-00309KA1999N-00151MA1999999094991MD1610211+9999OA149901491REMSYN100AAXX  08064 06705 33/// /0318 11002 21043 39499 40053 56021 333 21015 3/103 55016 70000 91129 91218;EQDQ01  00002PRCP24
0128067050999992010010807004+46400+006233FM-12+043099999V0200301N008719999999N9999999N1-00051-00411100511ADDMA1999999094961MD1710161+9999OA149901491REMSYN076AAXX  08074 06705 33/// /0317 11005 21041 39496 40051 57016 333 91129 91218;
0128067050999992010010808004+46400+006233FM-12+043099999V0200301N009319999999N9999999N1-00021-00431100451ADDMA1999999094911MD1610141+9999OA149901541REMSYN076AAXX  08084 06705 33/// /0318 11002 21043 39491 40045 56014 333 91130 91219;
0128067050999992010010809004+46400+006233FM-12+043099999V0200301N008219999999N9999999N1-00031-00381100411ADDMA1999999094871MD1810121+9999OA149901541REMSYN076AAXX  08094 06705 33/// /0316 11003 21038 39487 40041 58012 333 91130 91219;
0128067050999992010010810004+46400+006233FM-12+043099999V0200301N009819999999N9999999N1-00011-00461100341ADDMA1999999094811MD1710151+9999OA149901651REMSYN076AAXX  08104 06705 33/// /0319 11001 21046 39481 40034 57015 333 91132 91219;
0128067050999992010010811004+46400+006233FM-12+043099999V0200501N009319999999N9999999N1-00041-00461100341ADDMA1999999094811MD1610101+9999OA149901651REMSYN076AAXX  08114 06705 33/// /0518 11004 21046 39481 40034 56010 333 91132 91219;
0128067050999992010010812004+46400+006233FM-12+043099999V0200501N009319999999N9999999N1-00071-00491100291ADDMA1999999094751MD1610121+9999OA149901651REMSYN076AAXX  08124 06705 33/// /0518 11007 21049 39475 40029 56012 333 91132 91219;
0128067050999992010010813004+46400+006233FM-12+043099999V0200401N007219999999N9999999N1-00101-00511100331ADDMA1999999094781MD1710031+9999OA149901601REMSYN076AAXX  08134 06705 33/// /0414 11010 21051 39478 40033 57003 333 91131 91220;
0128067050999992010010814004+46400+006233FM-12+043099999V0200401N008719999999N9999999N1-00101-00521100311ADDMA1999999094771MD1519999+9999OA149901601REMSYN076AAXX  08144 06705 33/// /0417 11010 21052 39477 40031 55/// 333 91131 91220;
0128067050999992010010815004+46400+006233FM-12+043099999V0200401N008219999999N9999999N1-00141-00471100341ADDMA1999999094791MD1210041+9999OA149901651REMSYN076AAXX  08154 06705 33/// /0416 11014 21047 39479 40034 52004 333 91132 91220;
0128067050999992010010816004+46400+006233FM-12+043099999V0200301N006219999999N9999999N1-00151-00451100361ADDMA1999999094801MD1210021+9999OA149901491REMSYN076AAXX  08164 06705 33/// /0312 11015 21045 39480 40036 52002 333 91129 91218;
0128067050999992010010817004+46400+006233FM-12+043099999V0200401N005719999999N9999999N1-00141-00501100361ADDMA1999999094801MD1219999+9999OA149901131REMSYN076AAXX  08174 06705 33/// /0411 11014 21050 39480 40036 52/// 333 91122 91214;
0147067050999992010010818004+46400+006233FM-12+043099999V0200401N006719999999N9999999N1-00151-00491100361ADDKA1120M-00011MA1999999094801MD1010011+9999OA149901651REMSYN082AAXX  08184 06705 33/// /0413 11015 21049 39480 40036 50001 333 11001 91132 91220;
0128067050999992010010819004+46400+006233FM-12+043099999V0200401N006719999999N9999999N1-00121-00541100391ADDMA1999999094841MD1210041+9999OA149901241REMSYN076AAXX  08194 06705 33/// /0413 11012 21054 39484 40039 52004 333 91124 91215;
0128067050999992010010820004+46400+006233FM-12+043099999V0200301N006719999999N9999999N1-00141-00541100421ADDMA1999999094861MD1210061+9999OA149901241REMSYN076AAXX  08204 06705 33/// /0313 11014 21054 39486 40042 52006 333 91124 91215;
0128067050999992010010821004+46400+006233FM-12+043099999V0200401N005719999999N9999999N1-00181-00511100451ADDMA1999999094881MD1210081+9999OA149901241REMSYN076AAXX  08214 06705 33/// /0411 11018 21051 39488 40045 52008 333 91124 91215;
0128067050999992010010822004+46400+006233FM-12+043099999V0200401N007219999999N9999999N1-00181-00591100451ADDMA1999999094881MD1210041+9999OA149901181REMSYN076AAXX  08224 06705 33/// /0414 11018 21059 39488 40045 52004 333 91123 91215;
0128067050999992010010823004+46400+006233FM-12+043099999V0200401N007219999999N9999999N1-00191-00611100441ADDMA1999999094871MD1510011+9999OA149901241REMSYN076AAXX  08234 06705 33/// /0414 11019 21061 39487 40044 55001 333 91124 91215;
0128067050999992010010900004+46400+006233FM-12+043099999V0200301N005719999999N9999999N1-00211-00641100471ADDMA1999999094891MD1310011+9999OA149901601REMSYN076AAXX  09004 06705 33/// /0311 11021 21064 39489 40047 53001 333 91131 91220;
0128067050999992010010901004+46400+006233FM-12+043099999V0200401N006219999999N9999999N1-00231-00651100451ADDMA1999999094871MD1010011+9999OA149901081REMSYN076AAXX  09014 06705 33/// /0412 11023 21065 39487 40045 50001 333 91121 91212;
0128067050999992010010902004+46400+006233FM-12+043099999V0200301N007719999999N9999999N1-00271-00661100491ADDMA1999999094901MD1219999+9999OA149901181REMSYN076AAXX  09024 06705 33/// /0315 11027 21066 39490 40049 52/// 333 91123 91216;
0128067050999992010010903004+46400+006233FM-12+043099999V0200301N006719999999N9999999N1-00271-00611100491ADDMA1999999094901MD1219999+9999OA149901291REMSYN076AAXX  09034 06705 33/// /0313 11027 21061 39490 40049 52/// 333 91125 91217;
0128067050999992010010904004+46400+006233FM-12+043099999V0200401N006719999999N9999999N1-00271-00631100441ADDMA1999999094851MD1810021+9999OA149901291REMSYN076AAXX  09044 06705 33/// /0413 11027 21063 39485 40044 58002 333 91125 91217;
0128067050999992010010905004+46400+006233FM-12+043099999V0200301N005119999999N9999999N1-00271-00621100401ADDMA1999999094821MD1710081+9999OA149901241REMSYN076AAXX  09054 06705 33/// /0310 11027 21062 39482 40040 57008 333 91124 91216;
0225067050999992010010906004+46400+006233FM-12+043099999V0200501N005719999999N9999999N1-00271-00591100331ADDAA124000091AL19900091GJ100009IA2999-00309KA1999N-00271MA1999999094751MD1710151+9999OA149901291REMSYN100AAXX  09064 06705 33/// /0511 11027 21059 39475 40033 57015 333 21027 3/103 55000 70000 91125 91217;EQDQ01  00002PRCP24
0128067050999992010010907004+46400+006233FM-12+043099999V0200201N003619999999N9999999N1-00231-00631100341ADDMA1999999094771MD1710081+9999OA149900981REMSYN076AAXX  09074 06705 33/// /0207 11023 21063 39477 40034 57008 333 91119 91211;
0128067050999992010010908004+46400+006233FM-12+043099999V0200501N004119999999N9999999N1-00261-00591100401ADDMA1999999094821MD1510001+9999OA149900981REMSYN076AAXX  09084 06705 33/// /0508 11026 21059 39482 40040 55000 333 91119 91211;
0128067050999992010010909004+46400+006233FM-12+043099999V0200601N005719999999N9999999N1-00261-00601100441ADDMA1999999094861MD1210111+9999OA149901241REMSYN076AAXX  09094 06705 33/// /0611 11026 21060 39486 40044 52011 333 91124 91216;
0128067050999992010010910004+46400+006233FM-12+043099999V0200601N005119999999N9999999N1-00271-00621100441ADDMA1999999094851MD1210081+9999OA149900981REMSYN076AAXX  09104 06705 33/// /0610 11027 21062 39485 40044 52008 333 91119 91212;
0128067050999992010010911004+46400+006233FM-12+043099999V0200401N005119999999N9999999N1-00281-00641100441ADDMA1999999094851MD1210031+9999OA149900981REMSYN076AAXX  09114 06705 33/// /0410 11028 21064 39485 40044 52003 333 91119 91213;
0128067050999992010010912004+46400+006233FM-12+043099999V0200301N004619999999N9999999N1-00281-00661100421ADDMA1999999094831MD1710031+9999OA149901291REMSYN076AAXX  09124 06705 33/// /0309 11028 21066 39483 40042 57003 333 91125 91217;
0128067050999992010010913004+46400+006233FM-12+043099999V0200401N003619999999N9999999N1-00281-00671100411ADDMA1999999094821MD1810031+9999OA149900931REMSYN076AAXX  09134 06705 33/// /0407 11028 21067 39482 40041 58003 333 91118 91210;
0128067050999992010010914004+46400+006233FM-12+043099999V0200701N006219999999N9999999N1-00301-00631100401ADDMA1999999094811MD1710041+9999OA149900821REMSYN076AAXX  09144 06705 33/// /0712 11030 21063 39481 40040 57004 333 91116 91212;
0128067050999992010010915004+46400+006233FM-12+043099999V0200701N005719999999N9999999N1-00311-00641100441ADDMA1999999094851MD1310021+9999OA149900981REMSYN076AAXX  09154 06705 33/// /0711 11031 21064 39485 40044 53002 333 91119 91213;
0128067050999992010010916004+46400+006233FM-12+043099999V0200701N004119999999N9999999N1-00321-00691100481ADDMA1999999094881MD1210061+9999OA149900881REMSYN076AAXX  09164 06705 33/// /0708 11032 21069 39488 40048 52006 333 91117 91212;
0128067050999992010010917004+46400+006233FM-12+043099999V0200601N004119999999N9999999N1-00381-00581100501ADDMA1999999094891MD1110081+9999OA149900821REMSYN076AAXX  09174 06705 33/// /0608 11038 21058 39489 40050 51008 333 91116 91212;
0189067050999992010010918004+46400+006233FM-12+043099999V0200701N002619999999N9999999N1-00391-00571100571ADDAA112000091KA1120M-00231MA1999999094951MD1310101+9999OA149900981REMSYN094AAXX  09184 06705 03/// /0705 11039 21057 39495 40057 53010 69922 333 11023 69925 91119 91213;EQDQ01  00002PRCP12
0145067050999992010010919004+46400+006233FM-12+043099999V0200301N000519999999N9999999N1-00421-00581100631ADDAA101000591MA1999999095001MD1310121+9999OA149900461REMSYN082AAXX  09194 06705 23/// /0301 11042 21058 39500 40063 53012 333 69955 91109 91207;
0128067050999992010010920004+46400+006233FM-12+043099999V0203301N001519999999N9999999N1-00431-00741100681ADDMA1999999095051MD1110161+9999OA149900361REMSYN076AAXX  09204 06705 33/// /3303 11043 21074 39505 40068 51016 333 91107 91205;
0128067050999992010010921004+46400+006233FM-12+043099999V0202901N001519999999N9999999N1-00411-00681100711ADDMA1999999095081MD1110131+9999OA149900821REMSYN076AAXX  09214 06705 33/// /2903 11041 21068 39508 40071 51013 333 91116 91212;
0145067050999992010010922004+46400+006233FM-12+043099999V0203101N001519999999N9999999N1-00461-00651100761ADDAA101000391MA1999999095121MD1110121+9999OA149900211REMSYN082AAXX  09224 06705 23/// /3103 11046 21065 39512 40076 51012 333 69935 91104 91203;
0145067050999992010010923004+46400+006233FM-12+043099999V0202501N001019999999N9999999N1-00461-00641100831ADDAA101000021MA1999999095181MD1310131+9999OA149900211REMSYN082AAXX  09234 06705 23/// /2502 11046 21064 39518 40083 53013 333 69925 91104 91203;
0151067050999992010011000004+46400+006233FM-12+043099999V0202401N000519999999N9999999N1-00441-00621100851ADDAA106001091MA1999999095211MD1110131+9999OA149900881REMSYN088AAXX  10004 06705 03/// /2401 11044 21062 39521 40085 51013 60011 333 69935 91117 91212;
0145067050999992010011001004+46400+006233FM-12+043099999V0202501N001019999999N9999999N1-00441-00601100901ADDAA101000591MA1999999095251MD1110131+9999OA149900151REMSYN082AAXX  10014 06705 23/// /2502 11044 21060 39525 40090 51013 333 69955 91103 91202;
0108067050999992010011002004+46400+006233FM-12+043099999V0203001N000519999999N9999999N1-00461-00611100981ADDAA101000591MA1999999095321REMSYN070AAXX  10024 06705 23/// /3001 11046 21061 39532 40098 5//// 333 69955;
0087067050999992010011003004+46400+006233FM-12+043099999V0203201N000519999999N9999999N1-00471-00611101001ADDMA1999999095341REMSYN060AAXX  10034 06705 43/// /3201 11047 21061 39534 40100 5////;
0145067050999992010011004004+46400+006233FM-12+043099999V0202401N000519999999N9999999N1-00451-00631101051ADDAA101000021MA1999999095391MD1110141+9999OA149900101REMSYN082AAXX  10044 06705 23/// /2401 11045 21063 39539 40105 51014 333 69925 91102 91201;
0145067050999992010011005004+46400+006233FM-12+043099999V0203201N000519999999N9999999N1-00461-00601101101ADDAA101000591MA1999999095441MD1310121+9999OA149900101REMSYN082AAXX  10054 06705 23/// /3201 11046 21060 39544 40110 53012 333 69945 91102 91201;
0229067050999992010011006004+46400+006233FM-12+043099999V0202801N000519999999N9999999N1-00451-00621101151ADDAA112003091AA224003691AL13600391GJ100009IA2999-00509KA1999N-00481MA1999999095491MD1210151+9999OA149900361REMSYN112AAXX  10064 06705 03/// /2801 11045 21062 39549 40115 52015 60032 333 21048 3/105 55000 69925 70036 91107 91205;
0145067050999992010011007004+46400+006233FM-12+043099999V0202401N000519999999N9999999N1-00441-00601101231ADDAA101000021MA1999999095561MD1110171+9999OA149900151REMSYN082AAXX  10074 06705 23/// /2401 11044 21060 39556 40123 51017 333 69915 91103 91202;
0145067050999992010011008004+46400+006233FM-12+043099999V0202701N000519999999N9999999N1-00511-00651101321ADDAA101000021MA1999999095631MD1319999+9999OA149900151REMSYN082AAXX  10084 06705 23/// /2701 11051 21065 39563 40132 53/// 333 69915 91103 91202;
0145067050999992010011009004+46400+006233FM-12+043099999V0202401N001019999999N9999999N1-00501-00681101391ADDAA101000021MA1999999095701MD1210211+9999OA149900151REMSYN082AAXX  10094 06705 23/// /2402 11050 21068 39570 40139 52021 333 69915 91103 91202;
0128067050999992010011010004+46400+006233FM-12+043099999V0202401N001519999999N9999999N1-00491-00701101451ADDMA1999999095761MD1110201+9999OA149900211REMSYN076AAXX  10104 06705 33/// /2403 11049 21070 39576 40145 51020 333 91104 91203;
0128067050999992010011011004+46400+006233FM-12+043099999V0203201N001019999999N9999999N1-00471-00711101481ADDMA1999999095791MD1110161+9999OA149900211REMSYN076AAXX  10114 06705 33/// /3202 11047 21071 39579 40148 51016 333 91104 91203;
0151067050999992010011012004+46400+006233FM-12+043099999V0202101N001519999999N9999999N1-00321-00681101441ADDAA106000391MA1999999095791MD1210091+9999OA149900261REMSYN088AAXX  10124 06705 03/// /2103 11032 21068 39579 40144 52009 69931 333 60005 91105 91203;
0128067050999992010011013004+46400+006233FM-12+043099999V0202001N001519999999N9999999N1-00301-00701101461ADDMA1999999095811MD1210051+9999OA149900261REMSYN076AAXX  10134 06705 33/// /2003 11030 21070 39581 40146 52005 333 91105 91203;
0128067050999992010011014004+46400+006233FM-12+043099999V0209999C000019999999N9999999N1-00331-00691101521ADDMA1999999095861MD1219999+9999OA149900211REMSYN076AAXX  10144 06705 33/// /0000 11033 21069 39586 40152 52/// 333 91104 91203;
0128067050999992010011015004+46400+006233FM-12+043099999V0203001N001519999999N9999999N1-00391-00721101561ADDMA1999999095891MD1110101+9999OA149900261REMSYN076AAXX  10154 06705 33/// /3003 11039 21072 39589 40156 51010 333 91105 91203;
0128067050999992010011016004+46400+006233FM-12+043099999V0203001N001019999999N9999999N1-00471-00791101611ADDMA1999999095921MD1110111+9999OA149900151REMSYN076AAXX  10164 06705 33/// /3002 11047 21079 39592 40161 51011 333 91103 91203;
0128067050999992010011017004+46400+006233FM-12+043099999V0203201N001519999999N9999999N1-00601-00871101681ADDMA1999999095961MD1310101+9999OA149900261REMSYN076AAXX  10174 06705 33/// /3203 11060 21087 39596 40168 53010 333 91105 91204;
0170067050999992010011018004+46400+006233FM-12+043099999V0203301N002119999999N9999999N1-00671-00991101721ADDAA112000391KA1120M-00281MA1999999095981MD1210091+9999OA149900261REMSYN094AAXX  10184 06705 03/// /3304 11067 21099 39598 40172 52009 69932 333 11028 60005 91105 91204;
0128067050999992010011019004+46400+006233FM-12+043099999V0203301N002119999999N9999999N1-00811-00991101751ADDMA1999999095981MD1210061+9999OA149900261REMSYN076AAXX  10194 06705 33/// /3304 11081 21099 39598 40175 52006 333 91105 91204;
0147067050999992010011020004+46400+006233FM-12+043099999V0203401N002119999999N9999999N1-00631-00971101691ADDMA1999999095961MD1810011+9999OA149900261REMSYN076AAXX  10204 06705 33/// /3404 11063 21097 39596 40169 58000 333 91105 91205;EQDQ01+000002APC3  
0128067050999992010011021004+46400+006233FM-12+043099999V0203201N001519999999N9999999N1-00471-00871101681ADDMA1999999095981MD1010001+9999OA149900261REMSYN076AAXX  10214 06705 33/// /3203 11047 21087 39598 40168 50000 333 91105 91205;
0128067050999992010011022004+46400+006233FM-12+043099999V0202201N001519999999N9999999N1-00461-00771101691ADDMA1999999095991MD1510011+9999OA149900211REMSYN076AAXX  10224 06705 33/// /2203 11046 21077 39599 40169 55001 333 91104 91203;
0128067050999992010011023004+46400+006233FM-12+043099999V0202201N001519999999N9999999N1-00411-00771101721ADDMA1999999096031MD1210071+9999OA149900261REMSYN076AAXX  10234 06705 33/// /2203 11041 21077 39603 40172 52007 333 91105 91203;
0128067050999992010011100004+46400+006233FM-12+043099999V0201601N001019999999N9999999N1-00431-00721101731ADDMA1999999096041MD1110061+9999OA149900261REMSYN076AAXX  11004 06705 33/// /1602 11043 21072 39604 40173 51006 333 91105 91205;
0128067050999992010011101004+46400+006233FM-12+043099999V0202501N000519999999N9999999N1-00391-00741101711ADDMA1999999096031MD1010041+9999OA149900211REMSYN076AAXX  11014 06705 33/// /2501 11039 21074 39603 40171 50004 333 91104 91203;
0128067050999992010011102004+46400+006233FM-12+043099999V0203001N001019999999N9999999N1-00371-00751101741ADDMA1999999096061MD1219999+9999OA149900151REMSYN076AAXX  11024 06705 33/// /3002 11037 21075 39606 40174 52/// 333 91103 91202;
0128067050999992010011103004+46400+006233FM-12+043099999V0203401N003119999999N9999999N1-00321-00781101701ADDMA1999999096031MD1019999+9999OA149900461REMSYN076AAXX  11034 06705 33/// /3406 11032 21078 39603 40170 50/// 333 91109 91206;
0128067050999992010011104004+46400+006233FM-12+043099999V0203301N002619999999N9999999N1-00351-00781101671ADDMA1999999096001MD1810031+9999OA149900461REMSYN076AAXX  11044 06705 33/// /3305 11035 21078 39600 40167 58003 333 91109 91206;
0128067050999992010011105004+46400+006233FM-12+043099999V0203401N002619999999N9999999N1-00331-00771101621ADDMA1999999095961MD1810101+9999OA149900461REMSYN076AAXX  11054 06705 33/// /3405 11033 21077 39596 40162 58010 333 91109 91206;
0206067050999992010011106004+46400+006233FM-12+043099999V0203501N003119999999N9999999N1-00321-00781101631ADDAA124000391AL11800091GJ102169IA2999-01409KA1999N-00811MA1999999095971MD1710061+9999OA149900511REMSYN100AAXX  11064 06705 33/// /3506 11032 21078 39597 40163 57006 333 21081 3/114 55036 70003 91110 91206;
0128067050999992010011107004+46400+006233FM-12+043099999V0203401N002619999999N9999999N1-00341-00761101671ADDMA1999999096001MD1510001+9999OA149900511REMSYN076AAXX  11074 06705 33/// /3405 11034 21076 39600 40167 55000 333 91110 91206;
0128067050999992010011108004+46400+006233FM-12+043099999V0203301N003619999999N9999999N1-00301-00711101701ADDMA1999999096041MD1219999+9999OA149900511REMSYN076AAXX  11084 06705 33/// /3307 11030 21071 39604 40170 52/// 333 91110 91208;
0128067050999992010011109004+46400+006233FM-12+043099999V0203401N002619999999N9999999N1-00281-00711101771ADDMA1999999096111MD1310141+9999OA149900511REMSYN076AAXX  11094 06705 33/// /3405 11028 21071 39611 40177 53014 333 91110 91208;
0128067050999992010011110004+46400+006233FM-12+043099999V0203201N001519999999N9999999N1-00241-00671101811ADDMA1999999096151MD1219999+9999OA149900361REMSYN076AAXX  11104 06705 33/// /3203 11024 21067 39615 40181 52/// 333 91107 91205;
0128067050999992010011111004+46400+006233FM-12+043099999V0202001N002119999999N9999999N1-00251-00581101781ADDMA1999999096121MD1010081+9999OA149900361REMSYN076AAXX  11114 06705 33/// /2004 11025 21058 39612 40178 50008 333 91107 91205;
0128067050999992010011112004+46400+006233FM-12+043099999V0202101N001019999999N9999999N1-00191-00601101711ADDMA1999999096071MD1810041+9999OA149900511REMSYN076AAXX  11124 06705 33/// /2102 11019 21060 39607 40171 58004 333 91110 91208;
0128067050999992010011113004+46400+006233FM-12+043099999V0202201N000519999999N9999999N1-00221-00631101701ADDMA1999999096051MD1710101+9999OA149900311REMSYN076AAXX  11134 06705 33/// /2201 11022 21063 39605 40170 57010 333 91106 91203;
0087067050999992010011114004+46400+006233FM-12+043099999V0201801N001019999999N9999999N1-00191-00591101691ADDMA1999999096051REMSYN060AAXX  11144 06705 33/// /1802 11019 21059 39605 40169 5////;
0147067050999992010011115004+46400+006233FM-12+043099999V0201701N000519999999N9999999N1-00231-00611101721ADDMA1999999096071MD1310011+9999OA149900361REMSYN076AAXX  11154 06705 33/// /1701 11023 21061 39607 40172 53000 333 91107 91205;EQDQ01+000002APC3  
0128067050999992010011116004+46400+006233FM-12+043099999V0203601N001019999999N9999999N1-00251-00591101751ADDMA1999999096091MD1310041+9999OA149900261REMSYN076AAXX  11164 06705 33/// /3602 11025 21059 39609 40175 53004 333 91105 91203;
0128067050999992010011117004+46400+006233FM-12+043099999V0203201N001019999999N9999999N1-00251-00581101791ADDMA1999999096131MD1310081+9999OA149900211REMSYN076AAXX  11174 06705 33/// /3202 11025 21058 39613 40179 53008 333 91104 91203;
0147067050999992010011118004+46400+006233FM-12+043099999V0203201N002119999999N9999999N1-00241-00561101831ADDKA1120M-00171MA1999999096171MD1310101+9999OA149900511REMSYN082AAXX  11184 06705 33/// /3204 11024 21056 39617 40183 53010 333 11017 91110 91208;
0128067050999992010011119004+46400+006233FM-12+043099999V0203501N001019999999N9999999N1-00261-00541101861ADDMA1999999096201MD1110111+9999OA149900311REMSYN076AAXX  11194 06705 33/// /3502 11026 21054 39620 40186 51011 333 91106 91204;
0128067050999992010011120004+46400+006233FM-12+043099999V0203401N001519999999N9999999N1-00261-00531101911ADDMA1999999096241MD1310111+9999OA149900311REMSYN076AAXX  11204 06705 33/// /3403 11026 21053 39624 40191 53011 333 91106 91204;
0128067050999992010011121004+46400+006233FM-12+043099999V0203001N001019999999N9999999N1-00241-00521101911ADDMA1999999096251MD1110081+9999OA149900311REMSYN076AAXX  11214 06705 33/// /3002 11024 21052 39625 40191 51008 333 91106 91204;
0128067050999992010011122004+46400+006233FM-12+043099999V0203001N001519999999N9999999N1-00221-00511101941ADDMA1999999096281MD1310081+9999OA149900211REMSYN076AAXX  11224 06705 33/// /3003 11022 21051 39628 40194 53008 333 91104 91203;
0128067050999992010011123004+46400+006233FM-12+043099999V0202901N001019999999N9999999N1-00211-00481101931ADDMA1999999096271MD1210031+9999OA149900211REMSYN076AAXX  11234 06705 33/// /2902 11021 21048 39627 40193 52003 333 91104 91203;
0128067050999992010011200004+46400+006233FM-12+043099999V0201801N002119999999N9999999N1-00191-00461101911ADDMA1999999096261MD1010011+9999OA149900361REMSYN076AAXX  12004 06705 33/// /1804 11019 21046 39626 40191 50001 333 91107 91204;
0128067050999992010011201004+46400+006233FM-12+043099999V0202401N002119999999N9999999N1-00261-00511101901ADDMA1999999096231MD1710051+9999OA149900361REMSYN076AAXX  12014 06705 33/// /2404 11026 21051 39623 40190 57005 333 91107 91205;
0128067050999992010011202004+46400+006233FM-12+043099999V0202501N002619999999N9999999N1-00281-00511101901ADDMA1999999096231MD1719999+9999OA149900461REMSYN076AAXX  12024 06705 33/// /2505 11028 21051 39623 40190 57/// 333 91109 91206;
0128067050999992010011203004+46400+006233FM-12+043099999V0202401N001519999999N9999999N1-00291-00511101911ADDMA1999999096241MD1510021+9999OA149900461REMSYN076AAXX  12034 06705 33/// /2403 11029 21051 39624 40191 55002 333 91109 91206;
0128067050999992010011204004+46400+006233FM-12+043099999V0202401N002119999999N9999999N1-00301-00511101891ADDMA1999999096221MD1010011+9999OA149900311REMSYN076AAXX  12044 06705 33/// /2404 11030 21051 39622 40189 50001 333 91106 91204;
0128067050999992010011205004+46400+006233FM-12+043099999V0202501N002119999999N9999999N1-00311-00521101851ADDMA1999999096181MD1710051+9999OA149900311REMSYN076AAXX  12054 06705 33/// /2504 11031 21052 39618 40185 57005 333 91106 91204;
0225067050999992010011206004+46400+006233FM-12+043099999V0203301N002119999999N9999999N1-00281-00541101791ADDAA124000091AL19900091GJ100009IA2999-00409KA1999N-00321MA1999999096131MD1710111+9999OA149900461REMSYN100AAXX  12064 06705 33/// /3304 11028 21054 39613 40179 57011 333 21032 3/104 55000 70000 91109 91206;EQDQ01  00002PRCP24
0128067050999992010011207004+46400+006233FM-12+043099999V0203201N001519999999N9999999N1-00301-00571101751ADDMA1999999096081MD1710141+9999OA149900361REMSYN076AAXX  12074 06705 33/// /3203 11030 21057 39608 40175 57014 333 91107 91205;
0128067050999992010011208004+46400+006233FM-12+043099999V0203201N001519999999N9999999N1-00301-00581101701ADDMA1999999096041MD1719999+9999OA149900361REMSYN076AAXX  12084 06705 33/// /3203 11030 21058 39604 40170 57/// 333 91107 91205;
0128067050999992010011209004+46400+006233FM-12+043099999V0203301N001519999999N9999999N1-00281-00551101641ADDMA1999999095981MD1810151+9999OA149900361REMSYN076AAXX  12094 06705 33/// /3303 11028 21055 39598 40164 58015 333 91107 91205;
0128067050999992010011210004+46400+006233FM-12+043099999V0203401N002119999999N9999999N1-00241-00521101571ADDMA1999999095931MD1710151+9999OA149900361REMSYN076AAXX  12104 06705 33/// /3404 11024 21052 39593 40157 57015 333 91107 91205;
0128067050999992010011211004+46400+006233FM-12+043099999V0203101N000519999999N9999999N1-00231-00511101501ADDMA1999999095861MD1710181+9999OA149900361REMSYN076AAXX  12114 06705 33/// /3101 11023 21051 39586 40150 57018 333 91107 91204;
0128067050999992010011212004+46400+006233FM-12+043099999V0202001N001519999999N9999999N1-00191-00501101421ADDMA1999999095801MD1810181+9999OA149900461REMSYN076AAXX  12124 06705 33/// /2003 11019 21050 39580 40142 58018 333 91109 91206;
0128067050999992010011213004+46400+006233FM-12+043099999V0202301N001019999999N9999999N1-00211-00511101301ADDMA1999999095681MD1810251+9999OA149900261REMSYN076AAXX  12134 06705 33/// /2302 11021 21051 39568 40130 58025 333 91105 91203;
0087067050999992010011214004+46400+006233FM-12+043099999V0209999C000019999999N9999999N1-00191-00481101191ADDMA1999999095581REMSYN060AAXX  12144 06705 33/// /0000 11019 21048 39558 40119 5////;
0128067050999992010011215004+46400+006233FM-12+043099999V0200301N000519999999N9999999N1-00191-00481101111ADDMA1999999095501MD1610301+9999OA149900361REMSYN076AAXX  12154 06705 33/// /0301 11019 21048 39550 40111 56030 333 91107 91204;
0128067050999992010011216004+46400+006233FM-12+043099999V0200101N002119999999N9999999N1-00221-00551101031ADDMA1999999095421MD1610261+9999OA149900361REMSYN076AAXX  12164 06705 33/// /0104 11022 21055 39542 40103 56026 333 91107 91204;
0128067050999992010011217004+46400+006233FM-12+043099999V0203401N002619999999N9999999N1-00221-00561101001ADDMA1999999095391MD1710191+9999OA149900411REMSYN076AAXX  12174 06705 33/// /3405 11022 21056 39539 40100 57019 333 91108 91206;
0147067050999992010011218004+46400+006233FM-12+043099999V0203301N002619999999N9999999N1-00221-00571100971ADDKA1120M-00181MA1999999095361MD1710141+9999OA149900411REMSYN082AAXX  12184 06705 33/// /3305 11022 21057 39536 40097 57014 333 11018 91108 91206;
0128067050999992010011219004+46400+006233FM-12+043099999V0203301N003119999999N9999999N1-00231-00611100941ADDMA1999999095331MD1710091+9999OA149900411REMSYN076AAXX  12194 06705 33/// /3306 11023 21061 39533 40094 57009 333 91108 91206;
0128067050999992010011220004+46400+006233FM-12+043099999V0203601N002119999999N9999999N1-00241-00631100891ADDMA1999999095281MD1710111+9999OA149900411REMSYN076AAXX  12204 06705 33/// /3604 11024 21063 39528 40089 57011 333 91108 91206;
0128067050999992010011221004+46400+006233FM-12+043099999V0203601N002119999999N9999999N1-00231-00591100811ADDMA1999999095211MD1710151+9999OA149900411REMSYN076AAXX  12214 06705 33/// /3604 11023 21059 39521 40081 57015 333 91108 91206;
0128067050999992010011222004+46400+006233FM-12+043099999V0203301N001519999999N9999999N1-00231-00571100861ADDMA1999999095261MD1510071+9999OA149900361REMSYN076AAXX  12224 06705 33/// /3303 11023 21057 39526 40086 55007 333 91107 91205;
0128067050999992010011223004+46400+006233FM-12+043099999V0202901N000519999999N9999999N1-00231-00521100871ADDMA1999999095271MD1510011+9999OA149900361REMSYN076AAXX  12234 06705 33/// /2901 11023 21052 39527 40087 55001 333 91107 91205;
0151067050999992010011300004+46400+006233FM-12+043099999V0203201N000519999999N9999999N1-00261-00381100851ADDAA106000891MA1999999095241MD1010031+9999OA149900411REMSYN088AAXX  13004 06705 03/// /3201 11026 21038 39524 40085 50003 69971 333 69975 91108 91206;
0145067050999992010011301004+46400+006233FM-12+043099999V0203201N001019999999N9999999N1-00261-00361100761ADDAA101001091MA1999999095161MD1710101+9999OA149900151REMSYN082AAXX  13014 06705 23/// /3202 11026 21036 39516 40076 57010 333 60015 91103 91203;
0145067050999992010011302004+46400+006233FM-12+043099999V0202501N000519999999N9999999N1-00231-00361100701ADDAA101000891MA1999999095111MD1819999+9999OA149900151REMSYN082AAXX  13024 06705 23/// /2501 11023 21036 39511 40070 58/// 333 69985 91103 91202;
0145067050999992010011303004+46400+006233FM-12+043099999V0202501N000519999999N9999999N1-00221-00361100691ADDAA101000591MA1999999095101MD1719999+9999OA149900361REMSYN082AAXX  13034 06705 23/// /2501 11022 21036 39510 40069 57/// 333 69945 91107 91205;
0145067050999992010011304004+46400+006233FM-12+043099999V0202701N000519999999N9999999N1-00231-00341100711ADDAA101001091MA1999999095121MD1510041+9999OA149900101REMSYN082AAXX  13044 06705 23/// /2701 11023 21034 39512 40071 55004 333 69995 91102 91202;
0145067050999992010011305004+46400+006233FM-12+043099999V0202501N000519999999N9999999N1-00221-00341100721ADDAA101002091MA1999999095131MD1210021+9999OA149900101REMSYN082AAXX  13054 06705 23/// /2501 11022 21034 39513 40072 52002 333 60025 91102 91201;
0229067050999992010011306004+46400+006233FM-12+043099999V0202601N001019999999N9999999N1-00201-00321100751ADDAA112006191AA224006191AL11200691GJ100009IA2999-00309KA1999N-00261MA1999999095161MD1310061+9999OA149900411REMSYN112AAXX  13064 06705 03/// /2602 11020 21032 39516 40075 53006 60062 333 21026 3/103 55000 69975 70062 91108 91206;
0145067050999992010011307004+46400+006233FM-12+043099999V0202801N000519999999N9999999N1-00181-00311100801ADDAA101001091MA1999999095211MD1310091+9999OA149900151REMSYN082AAXX  13074 06705 23/// /2801 11018 21031 39521 40080 53009 333 60015 91103 91202;
0145067050999992010011308004+46400+006233FM-12+043099999V0202401N000519999999N9999999N1-00151-00261100871ADDAA101001091MA1999999095281MD1310151+9999OA149900151REMSYN082AAXX  13084 06705 23/// /2401 11015 21026 39528 40087 53015 333 69995 91103 91202;
0145067050999992010011309004+46400+006233FM-12+043099999V0202401N000519999999N9999999N1-00131-00251100911ADDAA101000591MA1999999095331MD1110171+9999OA149900151REMSYN082AAXX  13094 06705 23/// /2401 11013 21025 39533 40091 51017 333 69945 91103 91202;
0145067050999992010011310004+46400+006233FM-12+043099999V0200501N000519999999N9999999N1-00081-00211100971ADDAA101000021MA1999999095391MD1110181+9999OA149900151REMSYN082AAXX  13104 06705 23/// /0501 11008 21021 39539 40097 51018 333 69925 91103 91202;
0145067050999992010011311004+46400+006233FM-12+043099999V0203401N000519999999N9999999N1-00011-00121100961ADDAA101000021MA1999999095401MD1210121+9999OA149900151REMSYN082AAXX  13114 06705 23/// /3401 11001 21012 39540 40096 52012 333 69915 91103 91201;
0151067050999992010011312004+46400+006233FM-12+043099999V0209999C000019999999N9999999N1+00061-00071100941ADDAA106003091MA1999999095391MD1010061+9999OA149900151REMSYN088AAXX  13124 06705 03/// /0000 10006 21007 39539 40094 50006 60031 333 60005 91103 91202;
0180067050999992010011313004+46400+006233FM-12+043099999V0201701N001019999999N9999999N1+00111-00011100931ADDAA101000591MA1999999095391MD1710041+9999OA149900151REMSYN082AAXX  13134 06705 23/// /1702 10011 21001 39539 40093 57000 333 69955 91103 91202;EQDQ01+000072APCTENQ02+000002APC3  
0145067050999992010011314004+46400+006233FM-12+043099999V0202301N003119999999N9999999N1+00151+00001100951ADDAA101000891MA1999999095421MD1319999+9999OA149900461REMSYN082AAXX  13144 06705 23/// /2306 10015 20000 39542 40095 53/// 333 69975 91109 91206;
0145067050999992010011315004+46400+006233FM-12+043099999V0202301N001519999999N9999999N1+00191+00011100961ADDAA101000391MA1999999095441MD1210051+9999OA149900461REMSYN082AAXX  13154 06705 23/// /2303 10019 20001 39544 40096 52005 333 69935 91109 91206;
0128067050999992010011316004+46400+006233FM-12+043099999V0201801N000519999999N9999999N1+00181+00021101011ADDMA1999999095481MD1210091+9999OA149900361REMSYN076AAXX  13164 06705 33/// /1801 10018 20002 39548 40101 52009 333 91107 91205;
0128067050999992010011317004+46400+006233FM-12+043099999V0202501N002119999999N9999999N1+00241+00041101021ADDMA1999999095501MD1210081+9999OA149900361REMSYN076AAXX  13174 06705 33/// /2504 10024 20004 39550 40102 52008 333 91107 91204;
0170067050999992010011318004+46400+006233FM-12+043099999V0202901N000519999999N9999999N1+00181+00051101041ADDAA112004191KA1120M+00251MA1999999095511MD1210071+9999OA149900461REMSYN094AAXX  13184 06705 03/// /2901 10018 20005 39551 40104 52007 60042 333 10025 60005 91109 91206;
0128067050999992010011319004+46400+006233FM-12+043099999V0203401N001519999999N9999999N1+00121+00011101051ADDMA1999999095511MD1210031+9999OA149900311REMSYN076AAXX  13194 06705 33/// /3403 10012 20001 39551 40105 52003 333 91106 91204;
0128067050999992010011320004+46400+006233FM-12+043099999V0200501N000519999999N9999999N1+00181+00071101021ADDMA1999999095491MD1810011+9999OA149900211REMSYN076AAXX  13204 06705 33/// /0501 10018 20007 39549 40102 58001 333 91104 91203;
0128067050999992010011321004+46400+006233FM-12+043099999V0201301N001019999999N9999999N1+00111+00011101001ADDMA1999999095461MD1710051+9999OA149900361REMSYN076AAXX  13214 06705 33/// /1302 10011 20001 39546 40100 57005 333 91107 91204;
0128067050999992010011322004+46400+006233FM-12+043099999V0203301N001019999999N9999999N1+00141+00031100951ADDMA1999999095421MD1710091+9999OA149900151REMSYN076AAXX  13224 06705 33/// /3302 10014 20003 39542 40095 57009 333 91103 91202;
0128067050999992010011323004+46400+006233FM-12+043099999V0209999C000019999999N9999999N1+00231+00071100901ADDMA1999999095391MD1610101+9999OA149900151REMSYN076AAXX  13234 06705 33/// /0000 10023 20007 39539 40090 56010 333 91103 91202;
0128067050999992010011400004+46400+006233FM-12+043099999V0202701N000519999999N9999999N1+00131+00011100871ADDMA1999999095341MD1810121+9999OA149900461REMSYN076AAXX  14004 06705 33/// /2701 10013 20001 39534 40087 58012 333 91109 91206;
0128067050999992010011401004+46400+006233FM-12+043099999V0202301N001519999999N9999999N1+00131+00041100851ADDMA1999999095321MD1610101+9999OA149900151REMSYN076AAXX  14014 06705 33/// /2303 10013 20004 39532 40085 56010 333 91103 91203;
0128067050999992010011402004+46400+006233FM-12+043099999V0203001N001019999999N9999999N1+00131+00021100831ADDMA1999999095301MD1619999+9999OA149900151REMSYN076AAXX  14024 06705 33/// /3002 10013 20002 39530 40083 56/// 333 91103 91203;
0087067050999992010011403004+46400+006233FM-12+043099999V0209999C001019999999N9999999N1+00121+00041100771ADDMA1999999095241REMSYN060AAXX  14034 06705 33/// /0002 10012 20004 39524 40077 5////;
0128067050999992010011404004+46400+006233FM-12+043099999V0203301N001519999999N9999999N1+00121+00041100721ADDMA1999999095201MD1810121+9999OA149900151REMSYN076AAXX  14044 06705 33/// /3303 10012 20004 39520 40072 58012 333 91103 91203;
0128067050999992010011405004+46400+006233FM-12+043099999V0203401N001519999999N9999999N1+00161+00031100671ADDMA1999999095161MD1710141+9999OA149900151REMSYN076AAXX  14054 06705 33/// /3403 10016 20003 39516 40067 57014 333 91103 91203;
0206067050999992010011406004+46400+006233FM-12+043099999V0209999C001519999999N9999999N1+00151+00011100611ADDAA124004391AL11800491GJ100009IA2999+00009KA1999N+00091MA1999999095101MD1710141+9999OA149900211REMSYN100AAXX  14064 06705 33/// /0003 10015 20001 39510 40061 57014 333 20009 3/100 55000 70043 91104 91203;
0128067050999992010011407004+46400+006233FM-12+043099999V0200501N002119999999N9999999N1+00141-00041100601ADDMA1999999095091MD1710111+9999OA149900261REMSYN076AAXX  14074 06705 33/// /0504 10014 21004 39509 40060 57011 333 91105 91204;
0128067050999992010011408004+46400+006233FM-12+043099999V0200501N002119999999N9999999N1+00161-00051100571ADDMA1999999095061MD1719999+9999OA149900461REMSYN076AAXX  14084 06705 33/// /0504 10016 21005 39506 40057 57/// 333 91109 91205;
0128067050999992010011409004+46400+006233FM-12+043099999V0200501N000519999999N9999999N1+00181-00051100581ADDMA1999999095081MD1510021+9999OA149900571REMSYN076AAXX  14094 06705 33/// /0501 10018 21005 39508 40058 55002 333 91111 91208;
0128067050999992010011410004+46400+006233FM-12+043099999V0200501N002119999999N9999999N1+00231-00051100541ADDMA1999999095051MD1810041+9999OA149900571REMSYN076AAXX  14104 06705 33/// /0504 10023 21005 39505 40054 58004 333 91111 91208;
0128067050999992010011411004+46400+006233FM-12+043099999V0200601N003119999999N9999999N1+00241-00021100571ADDMA1999999095081MD1210021+9999OA149900461REMSYN076AAXX  14114 06705 33/// /0606 10024 21002 39508 40057 52002 333 91109 91206;
0128067050999992010011412004+46400+006233FM-12+043099999V0200601N003619999999N9999999N1+00221-00021100521ADDMA1999999095031MD1710051+9999OA149900571REMSYN076AAXX  14124 06705 33/// /0607 10022 21002 39503 40052 57005 333 91111 91208;
0145067050999992010011413004+46400+006233FM-12+043099999V0200601N003619999999N9999999N1+00191+00011100491ADDAA101000021MA1999999094991MD1710061+9999OA149900721REMSYN082AAXX  14134 06705 23/// /0607 10019 20001 39499 40049 57006 333 69915 91114 91210;
0128067050999992010011414004+46400+006233FM-12+043099999V0200401N001019999999N9999999N1+00181+00031100491ADDMA1999999094991MD1710091+9999OA149900721REMSYN076AAXX  14144 06705 33/// /0402 10018 20003 39499 40049 57009 333 91114 91210;
0145067050999992010011415004+46400+006233FM-12+043099999V0202001N001019999999N9999999N1+00161+00011100491ADDAA101000391MA1999999094991MD1510041+9999OA149900721REMSYN082AAXX  14154 06705 23/// /2002 10016 20001 39499 40049 55004 333 69935 91114 91210;
0128067050999992010011416004+46400+006233FM-12+043099999V0202601N002119999999N9999999N1+00171+00001100551ADDMA1999999095051MD1210061+9999OA149900261REMSYN076AAXX  14164 06705 33/// /2604 10017 20000 39505 40055 52006 333 91105 91204;
0128067050999992010011417004+46400+006233FM-12+043099999V0203301N001019999999N9999999N1+00141+00011100621ADDMA1999999095111MD1210121+9999OA149900311REMSYN076AAXX  14174 06705 33/// /3302 10014 20001 39511 40062 52012 333 91106 91204;
0170067050999992010011418004+46400+006233FM-12+043099999V0203001N001019999999N9999999N1+00161+00001100751ADDAA112000591KA1120M+00261MA1999999095231MD1310241+9999OA149900721REMSYN094AAXX  14184 06705 03/// /3002 10016 20000 39523 40075 53024 69942 333 10026 60005 91114 91210;
0128067050999992010011419004+46400+006233FM-12+043099999V0203301N001019999999N9999999N1+00151+00011100891ADDMA1999999095361MD1310311+9999OA149900211REMSYN076AAXX  14194 06705 33/// /3302 10015 20001 39536 40089 53031 333 91104 91203;
0128067050999992010011420004+46400+006233FM-12+043099999V0200701N000519999999N9999999N1+00151-00041100971ADDMA1999999095441MD1110331+9999OA149900211REMSYN076AAXX  14204 06705 33/// /0701 10015 21004 39544 40097 51033 333 91104 91203;
0128067050999992010011421004+46400+006233FM-12+043099999V0202901N001019999999N9999999N1+00131-00021101091ADDMA1999999095551MD1210321+9999OA149900311REMSYN076AAXX  14214 06705 33/// /2902 10013 21002 39555 40109 52032 333 91106 91204;
0128067050999992010011422004+46400+006233FM-12+043099999V0200701N000519999999N9999999N1+00131+00011101211ADDMA1999999095661MD1310301+9999OA149900151REMSYN076AAXX  14224 06705 33/// /0701 10013 20001 39566 40121 53030 333 91103 91202;
0128067050999992010011423004+46400+006233FM-12+043099999V0203201N001019999999N9999999N1+00151-00011101281ADDMA1999999095731MD1110291+9999OA149900151REMSYN076AAXX  14234 06705 33/// /3202 10015 21001 39573 40128 51029 333 91103 91202;
0128067050999992010011500004+46400+006233FM-12+043099999V0202801N000519999999N9999999N1+00171-00011101351ADDMA1999999095801MD1110251+9999OA149900721REMSYN076AAXX  15004 06705 33/// /2801 10017 21001 39580 40135 51025 333 91114 91210;
0128067050999992010011501004+46400+006233FM-12+043099999V0203101N001019999999N9999999N1+00111-00021101401ADDMA1999999095841MD1110181+9999OA149900151REMSYN076AAXX  15014 06705 33/// /3102 10011 21002 39584 40140 51018 333 91103 91202;
0128067050999992010011502004+46400+006233FM-12+043099999V0202801N001519999999N9999999N1+00171-00021101471ADDMA1999999095921MD1310191+9999OA149900211REMSYN076AAXX  15024 06705 33/// /2803 10017 21002 39592 40147 53019 333 91104 91203;
0087067050999992010011503004+46400+006233FM-12+043099999V0209999C000019999999N9999999N1+00151-00021101561ADDMA1999999096001REMSYN060AAXX  15034 06705 33/// /0000 10015 21002 39600 40156 5////;
0128067050999992010011504004+46400+006233FM-12+043099999V0203401N000519999999N9999999N1+00111-00011101621ADDMA1999999096051MD1110211+9999OA149900211REMSYN076AAXX  15044 06705 33/// /3401 10011 21001 39605 40162 51021 333 91104 91202;
0128067050999992010011505004+46400+006233FM-12+043099999V0203401N001019999999N9999999N1+00121-00041101721ADDMA1999999096141MD1310221+9999OA149900151REMSYN076AAXX  15054 06705 33/// /3402 10012 21004 39614 40172 53022 333 91103 91202;
0206067050999992010011506004+46400+006233FM-12+043099999V0203401N001519999999N9999999N1+00141-00021101811ADDAA124000591AL12400091GJ100009IA2999+00009KA1999N+00101MA1999999096231MD1310231+9999OA149900211REMSYN100AAXX  15064 06705 33/// /3403 10014 21002 39623 40181 53023 333 20010 3/000 55000 70004 91104 91203;
0128067050999992010011507004+46400+006233FM-12+043099999V0203301N001519999999N9999999N1+00141-00041101931ADDMA1999999096341MD1310291+9999OA149900211REMSYN076AAXX  15074 06705 33/// /3303 10014 21004 39634 40193 53029 333 91104 91203;
0128067050999992010011508004+46400+006233FM-12+043099999V0203101N001519999999N9999999N1+00171-00021102001ADDMA1999999096421MD1219999+9999OA149900211REMSYN076AAXX  15084 06705 33/// /3103 10017 21002 39642 40200 52/// 333 91104 91203;
0128067050999992010011509004+46400+006233FM-12+043099999V0202601N001019999999N9999999N1+00231+00001102081ADDMA1999999096501MD1110271+9999OA149900211REMSYN076AAXX  15094 06705 33/// /2602 10023 20000 39650 40208 51027 333 91104 91203;
0128067050999992010011510004+46400+006233FM-12+043099999V0202101N001019999999N9999999N1+00241+00001102151ADDMA1999999096571MD1210231+9999OA149900151REMSYN076AAXX  15104 06705 33/// /2102 10024 20000 39657 40215 52023 333 91103 91203;
0128067050999992010011511004+46400+006233FM-12+043099999V0201501N001019999999N9999999N1+00251+00011102171ADDMA1999999096591MD1210171+9999OA149900211REMSYN076AAXX  15114 06705 33/// /1502 10025 20001 39659 40217 52017 333 91104 91203;
0128067050999992010011512004+46400+006233FM-12+043099999V0200201N000519999999N9999999N1+00231+00011102211ADDMA1999999096631MD1210131+9999OA149900211REMSYN076AAXX  15124 06705 33/// /0201 10023 20001 39663 40221 52013 333 91104 91203;
0128067050999992010011513004+46400+006233FM-12+043099999V0203301N000519999999N9999999N1+00241+00011102241ADDMA1999999096661MD1210091+9999OA149900211REMSYN076AAXX  15134 06705 33/// /3301 10024 20001 39666 40224 52009 333 91104 91202;
0128067050999992010011514004+46400+006233FM-12+043099999V0200801N001519999999N9999999N1+00251+00031102281ADDMA1999999096701MD1310111+9999OA149900311REMSYN076AAXX  15144 06705 33/// /0803 10025 20003 39670 40228 53011 333 91106 91203;
0128067050999992010011515004+46400+006233FM-12+043099999V0200401N000519999999N9999999N1+00261+00041102311ADDMA1999999096731MD1110101+9999OA149900311REMSYN076AAXX  15154 06705 33/// /0401 10026 20004 39673 40231 51010 333 91106 91203;
0128067050999992010011516004+46400+006233FM-12+043099999V0203301N002119999999N9999999N1+00201+00011102381ADDMA1999999096781MD1110121+9999OA149900261REMSYN076AAXX  15164 06705 33/// /3304 10020 20001 39678 40238 51012 333 91105 91204;
0128067050999992010011517004+46400+006233FM-12+043099999V0203301N001019999999N9999999N1+00161+00001102441ADDMA1999999096831MD1110131+9999OA149900261REMSYN076AAXX  15174 06705 33/// /3302 10016 20000 39683 40244 51013 333 91105 91204;
0147067050999992010011518004+46400+006233FM-12+043099999V0203201N000519999999N9999999N1+00171+00001102481ADDKA1120M+00281MA1999999096871MD1110141+9999OA149900311REMSYN082AAXX  15184 06705 33/// /3201 10017 20000 39687 40248 51014 333 10028 91106 91204;
0128067050999992010011519004+46400+006233FM-12+043099999V0209999C000019999999N9999999N1+00181-00011102501ADDMA1999999096891MD1210111+9999OA149900211REMSYN076AAXX  15194 06705 33/// /0000 10018 21001 39689 40250 52011 333 91104 91203;
0128067050999992010011520004+46400+006233FM-12+043099999V0203301N001519999999N9999999N1+00111-00061102531ADDMA1999999096911MD1210081+9999OA149900311REMSYN076AAXX  15204 06705 33/// /3303 10011 21006 39691 40253 52008 333 91106 91204;
0128067050999992010011521004+46400+006233FM-12+043099999V0200301N001519999999N9999999N1+00111-00071102531ADDMA1999999096911MD1210041+9999OA149900311REMSYN076AAXX  15214 06705 33/// /0303 10011 21007 39691 40253 52004 333 91106 91204;
0128067050999992010011522004+46400+006233FM-12+043099999V0200501N001519999999N9999999N1+00081-00081102581ADDMA1999999096951MD1210061+9999OA149900261REMSYN076AAXX  15224 06705 33/// /0503 10008 21008 39695 40258 52006 333 91105 91204;
0128067050999992010011523004+46400+006233FM-12+043099999V0203401N002119999999N9999999N1+00071-00131102611ADDMA1999999096971MD1210061+9999OA149900311REMSYN076AAXX  15234 06705 33/// /3404 10007 21013 39697 40261 52006 333 91106 91204;
0128067050999992010011600004+46400+006233FM-12+043099999V0203301N002119999999N9999999N1+00091-00161102591ADDMA1999999096961MD1210051+9999OA149900411REMSYN076AAXX  16004 06705 33/// /3304 10009 21016 39696 40259 52005 333 91108 91205;
0128067050999992010011601004+46400+006233FM-12+043099999V0203301N002619999999N9999999N1+00081-00151102571ADDMA1999999096941MD1810011+9999OA149900411REMSYN076AAXX  16014 06705 33/// /3305 10008 21015 39694 40257 58001 333 91108 91205;
0128067050999992010011602004+46400+006233FM-12+043099999V0203501N002119999999N9999999N1+00091-00171102551ADDMA1999999096921MD1710051+9999OA149900411REMSYN076AAXX  16024 06705 33/// /3504 10009 21017 39692 40255 57005 333 91108 91206;
0128067050999992010011603004+46400+006233FM-12+043099999V0203401N003119999999N9999999N1+00071-00221102531ADDMA1999999096901MD1719999+9999OA149900411REMSYN076AAXX  16034 06705 33/// /3406 10007 21022 39690 40253 57/// 333 91108 91206;
0128067050999992010011604004+46400+006233FM-12+043099999V0203401N003119999999N9999999N1+00061-00201102471ADDMA1999999096841MD1810101+9999OA149900411REMSYN076AAXX  16044 06705 33/// /3406 10006 21020 39684 40247 58010 333 91108 91206;
0128067050999992010011605004+46400+006233FM-12+043099999V0203401N003619999999N9999999N1+00041-00251102401ADDMA1999999096771MD1810151+9999OA149900511REMSYN076AAXX  16054 06705 33/// /3407 10004 21025 39677 40240 58015 333 91110 91207;
0225067050999992010011606004+46400+006233FM-12+043099999V0203401N004119999999N9999999N1+00021-00271102381ADDAA124000091AL19900091GJ100009IA2999+00009KA1999N+00021MA1999999096751MD1710151+9999OA149900571REMSYN100AAXX  16064 06705 33/// /3408 10002 21027 39675 40238 57015 333 20002 3/100 55000 70000 91111 91208;EQDQ01  00002PRCP24
0128067050999992010011607004+46400+006233FM-12+043099999V0203401N002619999999N9999999N1+00001-00291102351ADDMA1999999096711MD1710131+9999OA149900571REMSYN076AAXX  16074 06705 33/// /3405 10000 21029 39671 40235 57013 333 91111 91208;
0128067050999992010011608004+46400+006233FM-12+043099999V0203101N002119999999N9999999N1+00041-00231102331ADDMA1999999096701MD1710071+9999OA149900511REMSYN076AAXX  16084 06705 33/// /3104 10004 21023 39670 40233 57007 333 91110 91208;
0128067050999992010011609004+46400+006233FM-12+043099999V0203101N001519999999N9999999N1+00061-00211102251ADDMA1999999096631MD1710121+9999OA149900571REMSYN076AAXX  16094 06705 33/// /3103 10006 21021 39663 40225 57012 333 91111 91208;
0128067050999992010011610004+46400+006233FM-12+043099999V0203101N001519999999N9999999N1+00091-00221102251ADDMA1999999096641MD1710071+9999OA149900311REMSYN076AAXX  16104 06705 33/// /3103 10009 21022 39664 40225 57007 333 91106 91205;
0128067050999992010011611004+46400+006233FM-12+043099999V0202401N001519999999N9999999N1+00111-00171102251ADDMA1999999096641MD1710061+9999OA149900311REMSYN076AAXX  16114 06705 33/// /2403 10011 21017 39664 40225 57006 333 91106 91203;
0128067050999992010011612004+46400+006233FM-12+043099999V0202301N001519999999N9999999N1+00121-00161102191ADDMA1999999096591MD1810041+9999OA149900571REMSYN076AAXX  16124 06705 33/// /2303 10012 21016 39659 40219 58004 333 91111 91208;
0128067050999992010011613004+46400+006233FM-12+043099999V0202401N001519999999N9999999N1+00121-00161102111ADDMA1999999096511MD1710131+9999OA149900361REMSYN076AAXX  16134 06705 33/// /2403 10012 21016 39651 40211 57013 333 91107 91205;
0128067050999992010011614004+46400+006233FM-12+043099999V0202501N001519999999N9999999N1+00131-00181101991ADDMA1999999096401MD1819999+9999OA149900311REMSYN076AAXX  16144 06705 33/// /2503 10013 21018 39640 40199 58/// 333 91106 91205;
0128067050999992010011615004+46400+006233FM-12+043099999V0209999C000019999999N9999999N1+00141-00171101961ADDMA1999999096371MD1710221+9999OA149900361REMSYN076AAXX  16154 06705 33/// /0000 10014 21017 39637 40196 57022 333 91107 91205;
0128067050999992010011616004+46400+006233FM-12+043099999V0202901N001519999999N9999999N1+00151-00151102001ADDMA1999999096411MD1510101+9999OA149900211REMSYN076AAXX  16164 06705 33/// /2903 10015 21015 39641 40200 55010 333 91104 91203;
0145067050999992010011617004+46400+006233FM-12+043099999V0202601N001519999999N9999999N1+00161-00071102021ADDAA101000021MA1999999096431MD1310031+9999OA149900411REMSYN082AAXX  16174 06705 23/// /2603 10016 21007 39643 40202 53003 333 69915 91108 91205;
0170067050999992010011618004+46400+006233FM-12+043099999V0202701N003619999999N9999999N1+00271+00061101961ADDAA112000891KA1120M+00241MA1999999096401MD1010031+9999OA149900511REMSYN094AAXX  16184 06705 03/// /2707 10027 20006 39640 40196 50003 69972 333 10024 69965 91110 91208;
0145067050999992010011619004+46400+006233FM-12+043099999V0202301N002119999999N9999999N1+00241+00081102001ADDAA101000891MA1999999096431MD1310021+9999OA149900511REMSYN082AAXX  16194 06705 23/// /2304 10024 20008 39643 40200 53002 333 69975 91110 91207;
0145067050999992010011620004+46400+006233FM-12+043099999V0202301N005119999999N9999999N1+00371+00151101911ADDAA101000591MA1999999096371MD1710061+9999OA149900721REMSYN082AAXX  16204 06705 23/// /2310 10037 20015 39637 40191 57006 333 69965 91114 91210;
0145067050999992010011621004+46400+006233FM-12+043099999V0202401N004119999999N9999999N1+00371+00161101881ADDAA101000021MA1999999096341MD1710061+9999OA149900721REMSYN082AAXX  16214 06705 23/// /2408 10037 20016 39634 40188 57006 333 69925 91114 91210;
0145067050999992010011622004+46400+006233FM-12+043099999V0202301N005719999999N9999999N1+00391+00181101911ADDAA101002091MA1999999096381MD1510051+9999OA149901081REMSYN082AAXX  16224 06705 23/// /2311 10039 20018 39638 40191 55005 333 60025 91121 91213;
0145067050999992010011623004+46400+006233FM-12+043099999V0202301N005719999999N9999999N1+00381+00191101991ADDAA101002091MA1999999096451MD1210081+9999OA149901181REMSYN082AAXX  16234 06705 23/// /2311 10038 20019 39645 40199 52008 333 60025 91123 91215;
0151067050999992010011700004+46400+006233FM-12+043099999V0202401N004119999999N9999999N1+00331+00151102001ADDAA106005191MA1999999096451MD1210111+9999OA149901181REMSYN088AAXX  17004 06705 03/// /2408 10033 20015 39645 40200 52011 60051 333 69935 91123 91215;
0128067050999992010011701004+46400+006233FM-12+043099999V0202401N003619999999N9999999N1+00361+00161101951ADDMA1999999096411MD1010031+9999OA149900931REMSYN076AAXX  17014 06705 33/// /2407 10036 20016 39641 40195 50003 333 91118 91211;
0145067050999992010011702004+46400+006233FM-12+043099999V0202501N002119999999N9999999N1+00421+00191101921ADDAA101000591MA1999999096391MD1719999+9999OA149900771REMSYN082AAXX  17024 06705 23/// /2504 10042 20019 39639 40192 57/// 333 69965 91115 91210;
0087067050999992010011703004+46400+006233FM-12+043099999V0202101N000519999999N9999999N1+00401+00251101901ADDMA1999999096371REMSYN060AAXX  17034 06705 43/// /2101 10040 20025 39637 40190 5////;
0145067050999992010011704004+46400+006233FM-12+043099999V0202101N001519999999N9999999N1+00401+00261101911ADDAA101000591MA1999999096381MD1710031+9999OA149900881REMSYN082AAXX  17044 06705 23/// /2103 10040 20026 39638 40191 57003 333 69955 91117 91211;
0145067050999992010011705004+46400+006233FM-12+043099999V0202501N004619999999N9999999N1+00441+00241101851ADDAA101000391MA1999999096331MD1719999+9999OA149900881REMSYN082AAXX  17054 06705 23/// /2509 10044 20024 39633 40185 57/// 333 69935 91117 91210;
0229067050999992010011706004+46400+006233FM-12+043099999V0202501N005719999999N9999999N1+00441+00271101891ADDAA112007991AA224007991AL19900891GJ100009IA2999+00109KA1999N+00211MA1999999096371MD1010001+9999OA149901181REMSYN112AAXX  17064 06705 03/// /2511 10044 20027 39637 40189 50000 60082 333 20021 3/001 55000 69985 70080 91123 91215;
0145067050999992010011707004+46400+006233FM-12+043099999V0202301N005719999999N9999999N1+00471+00291101951ADDAA101001091MA1999999096431MD1310051+9999OA149900981REMSYN082AAXX  17074 06705 23/// /2311 10047 20029 39643 40195 53005 333 60015 91119 91211;
0145067050999992010011708004+46400+006233FM-12+043099999V0202301N005719999999N9999999N1+00481+00311102051ADDAA101002091MA1999999096531MD1219999+9999OA149900981REMSYN082AAXX  17084 06705 23/// /2311 10048 20031 39653 40205 52/// 333 60025 91119 91211;
0145067050999992010011709004+46400+006233FM-12+043099999V0202701N005119999999N9999999N1+00621+00141102151ADDAA101000891MA1999999096651MD1310281+9999OA149900981REMSYN082AAXX  17094 06705 23/// /2710 10062 20014 39665 40215 53028 333 69975 91119 91211;
0128067050999992010011710004+46400+006233FM-12+043099999V0202101N004119999999N9999999N1+00701+00011102241ADDMA1999999096751MD1210321+9999OA149900821REMSYN076AAXX  17104 06705 33/// /2108 10070 20001 39675 40224 52032 333 91116 91211;
0128067050999992010011711004+46400+006233FM-12+043099999V0202001N003119999999N9999999N1+00691-00031102291ADDMA1999999096791MD1110261+9999OA149900771REMSYN076AAXX  17114 06705 33/// /2006 10069 21003 39679 40229 51026 333 91115 91208;
0151067050999992010011712004+46400+006233FM-12+043099999V0202401N005119999999N9999999N1+00801-00031102291ADDAA106003091MA1999999096821MD1110171+9999OA149901081REMSYN088AAXX  17124 06705 03/// /2410 10080 21003 39682 40229 51017 60031 333 60005 91121 91212;
0128067050999992010011713004+46400+006233FM-12+043099999V0202101N003619999999N9999999N1+00721+00111102341ADDMA1999999096851MD1310101+9999OA149901081REMSYN076AAXX  17134 06705 33/// /2107 10072 20011 39685 40234 53010 333 91121 91212;
0128067050999992010011714004+46400+006233FM-12+043099999V0202901N001519999999N9999999N1+00631+00091102401ADDMA1999999096891MD1319999+9999OA149900671REMSYN076AAXX  17144 06705 33/// /2903 10063 20009 39689 40240 53/// 333 91113 91208;
0128067050999992010011715004+46400+006233FM-12+043099999V0200901N002119999999N9999999N1+00661+00071102421ADDMA1999999096911MD1210091+9999OA149901081REMSYN076AAXX  17154 06705 33/// /0904 10066 20007 39691 40242 52009 333 91121 91212;
0128067050999992010011716004+46400+006233FM-12+043099999V0203401N001519999999N9999999N1+00521-00031102521ADDMA1999999096981MD1210131+9999OA149900311REMSYN076AAXX  17164 06705 33/// /3403 10052 21003 39698 40252 52013 333 91106 91204;
0128067050999992010011717004+46400+006233FM-12+043099999V0203201N001519999999N9999999N1+00311-00081102621ADDMA1999999097031MD1210141+9999OA149900261REMSYN076AAXX  17174 06705 33/// /3203 10031 21008 39703 40262 52014 333 91105 91204;
0170067050999992010011718004+46400+006233FM-12+043099999V0203201N002119999999N9999999N1+00181-00141102681ADDAA112003091KA1120M+00841MA1999999097061MD1110151+9999OA149901081REMSYN094AAXX  17184 06705 03/// /3204 10018 21014 39706 40268 51015 60032 333 10084 60005 91121 91212;
0128067050999992010011719004+46400+006233FM-12+043099999V0203301N002619999999N9999999N1+00391-00111102681ADDMA1999999097101MD1310121+9999OA149900461REMSYN076AAXX  17194 06705 33/// /3305 10039 21011 39710 40268 53012 333 91109 91206;
0128067050999992010011720004+46400+006233FM-12+043099999V0203301N001519999999N9999999N1+00221-00171102741ADDMA1999999097131MD1310101+9999OA149900461REMSYN076AAXX  17204 06705 33/// /3303 10022 21017 39713 40274 53010 333 91109 91207;
0128067050999992010011721004+46400+006233FM-12+043099999V0203201N001519999999N9999999N1+00101-00231102791ADDMA1999999097151MD1210091+9999OA149900461REMSYN076AAXX  17214 06705 33/// /3203 10010 21023 39715 40279 52009 333 91109 91207;
0128067050999992010011722004+46400+006233FM-12+043099999V0202801N000519999999N9999999N1+00171-00181102781ADDMA1999999097151MD1210051+9999OA149900361REMSYN076AAXX  17224 06705 33/// /2801 10017 21018 39715 40278 52005 333 91107 91205;
0128067050999992010011723004+46400+006233FM-12+043099999V0202601N000519999999N9999999N1+00131-00101102811ADDMA1999999097171MD1210041+9999OA149900311REMSYN076AAXX  17234 06705 33/// /2601 10013 21010 39717 40281 52004 333 91106 91203;
0128067050999992010011800004+46400+006233FM-12+043099999V0201401N001019999999N9999999N1+00211-00041102761ADDMA1999999097141MD1810011+9999OA149900671REMSYN076AAXX  18004 06705 33/// /1402 10021 21004 39714 40276 58001 333 91113 91208;
0128067050999992010011801004+46400+006233FM-12+043099999V0203001N000519999999N9999999N1+00191-00061102781ADDMA1999999097161MD1510011+9999OA149900261REMSYN076AAXX  18014 06705 33/// /3001 10019 21006 39716 40278 55001 333 91105 91203;
0087067050999992010011802004+46400+006233FM-12+043099999V0202701N001519999999N9999999N1+00151-00091102791ADDMA1999999097161REMSYN060AAXX  18024 06705 33/// /2703 10015 21009 39716 40279 5////;
0087067050999992010011803004+46400+006233FM-12+043099999V0203101N001019999999N9999999N1+00141-00071102801ADDMA1999999097171REMSYN060AAXX  18034 06705 33/// /3102 10014 21007 39717 40280 5////;
0128067050999992010011804004+46400+006233FM-12+043099999V0202601N001019999999N9999999N1+00101-00091102781ADDMA1999999097141MD1810021+9999OA149900261REMSYN076AAXX  18044 06705 33/// /2602 10010 21009 39714 40278 58002 333 91105 91203;
0128067050999992010011805004+46400+006233FM-12+043099999V0202401N000519999999N9999999N1+00191-00101102751ADDMA1999999097131MD1710031+9999OA149900211REMSYN076AAXX  18054 06705 33/// /2401 10019 21010 39713 40275 57003 333 91104 91203;
0206067050999992010011806004+46400+006233FM-12+043099999V0200501N001019999999N9999999N1+00081-00151102811ADDAA124004191AL19900491GJ101749IA2999-00209KA1999N-00011MA1999999097161MD1510011+9999OA149900461REMSYN100AAXX  18064 06705 33/// /0502 10008 21015 39716 40281 55001 333 21001 3/102 55029 70040 91109 91207;
0128067050999992010011807004+46400+006233FM-12+043099999V0203401N002619999999N9999999N1+00001-00201102831ADDMA1999999097171MD1210031+9999OA149900261REMSYN076AAXX  18074 06705 33/// /3405 10000 21020 39717 40283 52003 333 91105 91205;
0128067050999992010011808004+46400+006233FM-12+043099999V0200201N001519999999N9999999N1+00041-00201102881ADDMA1999999097221MD1319999+9999OA149900311REMSYN076AAXX  18084 06705 33/// /0203 10004 21020 39722 40288 53/// 333 91106 91205;
0128067050999992010011809004+46400+006233FM-12+043099999V0200301N001519999999N9999999N1+00311-00011102821ADDMA1999999097221MD1210061+9999OA149900311REMSYN076AAXX  18094 06705 33/// /0303 10031 21001 39722 40282 52006 333 91106 91205;
0128067050999992010011810004+46400+006233FM-12+043099999V0200801N003619999999N9999999N1+00431+00101102791ADDMA1999999097221MD1210051+9999OA149900461REMSYN076AAXX  18104 06705 33/// /0807 10043 20010 39722 40279 52005 333 91109 91207;
0128067050999992010011811004+46400+006233FM-12+043099999V0201001N003119999999N9999999N1+00461+00061102741ADDMA1999999097171MD1810051+9999OA149900511REMSYN076AAXX  18114 06705 33/// /1006 10046 20006 39717 40274 58005 333 91110 91207;
0128067050999992010011812004+46400+006233FM-12+043099999V0200601N001519999999N9999999N1+00491+00031102621ADDMA1999999097071MD1710151+9999OA149900511REMSYN076AAXX  18124 06705 33/// /0603 10049 20003 39707 40262 57015 333 91110 91207;
0128067050999992010011813004+46400+006233FM-12+043099999V0200601N002119999999N9999999N1+00611+00101102521ADDMA1999999097001MD1810221+9999OA149900411REMSYN076AAXX  18134 06705 33/// /0604 10061 20010 39700 40252 58022 333 91108 91206;
