0140067050999992011010100004+46400+006233FM-12+043099999V0203001N001019999999N9999999N1+00161+00061102421ADDMA1999999096781MD1810031+9999OA149900261REMSYN088AAXX  01004 06705 33/// /3002 10016 20006 39678 40242 58003 333 55300 20000 91105 91203;
0140067050999992011010101004+46400+006233FM-12+043099999V0202601N001519999999N9999999N1+00201+00091102381ADDMA1999999096751MD1710071+9999OA149900261REMSYN088AAXX  01014 06705 33/// /2603 10020 20009 39675 40238 57007 333 55300 20000 91105 91203;
0140067050999992011010102004+46400+006233FM-12+043099999V0202301N001519999999N9999999N1+00211+00121102391ADDMA1999999096761MD1510031+9999OA149900311REMSYN088AAXX  01024 06705 33/// /2303 10021 20012 39676 40239 55003 333 55300 20000 91106 91204;
0140067050999992011010103004+46400+006233FM-12+043099999V0202101N001519999999N9999999N1+00181+00121102381ADDMA1999999096741MD1710041+9999OA149900311REMSYN088AAXX  01034 06705 33/// /2103 10018 20012 39674 40238 57004 333 55300 20000 91106 91204;
0140067050999992011010104004+46400+006233FM-12+043099999V0202301N001019999999N9999999N1+00121+00121102381ADDMA1999999096731MD1710021+9999OA149900211REMSYN088AAXX  01044 06705 33/// /2302 10012 20012 39673 40238 57002 333 55300 20000 91104 91203;
0140067050999992011010105004+46400+006233FM-12+043099999V0202201N001019999999N9999999N1+00091+00091102391ADDMA1999999096731MD1510031+9999OA149900211REMSYN088AAXX  01054 06705 33/// /2202 10009 20009 39673 40239 55003 333 55300 20000 91104 91203;
0207067050999992011010106004+46400+006233FM-12+043099999V0202301N001519999999N9999999N1+00101+00091102371ADDAL19900091GJ100009IA2999+00109KA1999N+00091MA1999999096721MD1710021+9999OA149900311REMSYN112AAXX  01064 06705 33/// /2303 10010 20009 39672 40237 57002 333 20009 3/001 55000 55300 20000 70000 91106 91204;
0140067050999992011010107004+46400+006233FM-12+043099999V0202501N001019999999N9999999N1+00081+00081102411ADDMA1999999096751MD1310021+9999OA149900151REMSYN088AAXX  01074 06705 33/// /2502 10008 20008 39675 40241 53002 333 55300 20000 91103 91203;
0140067050999992011010108004+46400+006233FM-12+043099999V0202401N001019999999N9999999N1+00091+00081102421ADDMA1999999096761MD1219999+9999OA149900151REMSYN088AAXX  01084 06705 33/// /2402 10009 20008 39676 40242 52/// 333 55300 20014 91103 91202;
0087067050999992011010109004+46400+006233FM-12+043099999V0203001N001019999999N9999999N1+00051+00001102421ADDMA1999999096751REMSYN060AAXX  01094 06705 43/// /3002 10005 20000 39675 40242 5////;
0087067050999992011010110004+46400+006233FM-12+043099999V0202301N000519999999N9999999N1+00151+00091102381ADDMA1999999096741REMSYN060AAXX  01104 06705 43/// /2301 10015 20009 39674 40238 5////;
0140067050999992011010111004+46400+006233FM-12+043099999V0209999C000019999999N9999999N1+00201+00101102341ADDMA1999999096711MD1810051+9999OA149900101REMSYN088AAXX  01114 06705 33/// /0000 10020 20010 39671 40234 58005 333 55300 20468 91102 91202;
0087067050999992011010112004+46400+006233FM-12+043099999V0201701N001019999999N9999999N1+00261+00051102261ADDMA1999999096651REMSYN060AAXX  01124 06705 43/// /1702 10026 20005 39665 40226 5////;
0087067050999992011010113004+46400+006233FM-12+043099999V0200901N001019999999N9999999N1+00271-00031102201ADDMA1999999096591REMSYN060AAXX  01134 06705 43/// /0902 10027 21003 39659 40220 5////;
0087067050999992011010114004+46400+006233FM-12+043099999V0202301N001519999999N9999999N1+00251-00061102161ADDMA1999999096551REMSYN060AAXX  01144 06705 43/// /2303 10025 21006 39655 40216 5////;
0087067050999992011010115004+46400+006233FM-12+043099999V0203501N001019999999N9999999N1+00211-00041102161ADDMA1999999096541REMSYN060AAXX  01154 06705 43/// /3502 10021 21004 39654 40216 5////;
0087067050999992011010116004+46400+006233FM-12+043099999V0203401N001519999999N9999999N1+00191-00061102141ADDMA1999999096521REMSYN060AAXX  01164 06705 43/// /3403 10019 21006 39652 40214 5////;
0087067050999992011010117004+46400+006233FM-12+043099999V0209999C000019999999N9999999N1+00161-00081102131ADDMA1999999096501REMSYN060AAXX  01174 06705 43/// /0000 10016 21008 39650 40213 5////;
0087067050999992011010118004+46400+006233FM-12+043099999V0209999C001519999999N9999999N1+00141-00051102121ADDMA1999999096491REMSYN060AAXX  01184 06705 43/// /0003 10014 21005 39649 40212 5////;
0103067050999992011010119004+46400+006233FM-12+043099999V0209999C002119999999N9999999N1+00111-00081102141ADDMA1999999096501REMSYN076AAXX  01194 06705 33/// /0004 10011 21008 39650 40214 5//// 333 553// 20000;
0159067050999992011010120004+46400+006233FM-12+043099999V0203501N001519999999N9999999N1+00141-00061102131ADDMA1999999096501MD1410001+9999OA149900361REMSYN088AAXX  01204 06705 33/// /3503 10014 21006 39650 40213 52000 333 55300 20000 91107 91205;EQDQ01+000022APCTEN
0140067050999992011010121004+46400+006233FM-12+043099999V0200101N001519999999N9999999N1+00171-00051102111ADDMA1999999096491MD1410001+9999OA149900361REMSYN088AAXX  01214 06705 33/// /0103 10017 21005 39649 40211 54000 333 55300 20000 91107 91205;
0140067050999992011010122004+46400+006233FM-12+043099999V0200201N002119999999N9999999N1+00161-00121102111ADDMA1999999096481MD1810021+9999OA149900411REMSYN088AAXX  01224 06705 33/// /0204 10016 21012 39648 40211 58002 333 55300 20000 91108 91205;
0140067050999992011010123004+46400+006233FM-12+043099999V0200401N002619999999N9999999N1+00141-00061102071ADDMA1999999096441MD1810061+9999OA149900411REMSYN088AAXX  01234 06705 33/// /0405 10014 21006 39644 40207 58006 333 55300 20000 91108 91205;
0140067050999992011010200004+46400+006233FM-12+043099999V0200501N002619999999N9999999N1+00131-00061102021ADDMA1999999096391MD1810101+9999OA149900511REMSYN088AAXX  02004 06705 33/// /0505 10013 21006 39639 40202 58010 333 55300 20000 91110 91207;
0140067050999992011010201004+46400+006233FM-12+043099999V0200701N003619999999N9999999N1+00111-00071102011ADDMA1999999096381MD1710101+9999OA149900511REMSYN088AAXX  02014 06705 33/// /0707 10011 21007 39638 40201 57010 333 55300 20000 91110 91207;
0087067050999992011010202004+46400+006233FM-12+043099999V0200601N003619999999N9999999N1+00091-00091102061ADDMA1999999096421REMSYN060AAXX  02024 06705 43/// /0607 10009 21009 39642 40206 5////;
0087067050999992011010203004+46400+006233FM-12+043099999V0200601N003619999999N9999999N1+00081-00141102041ADDMA1999999096401REMSYN060AAXX  02034 06705 43/// /0607 10008 21014 39640 40204 5////;
0087067050999992011010204004+46400+006233FM-12+043099999V0200601N003619999999N9999999N1+00081-00141102041ADDMA1999999096401REMSYN060AAXX  02044 06705 43/// /0607 10008 21014 39640 40204 5////;
0087067050999992011010205004+46400+006233FM-12+043099999V0200601N004619999999N9999999N1+00071-00191102061ADDMA1999999096421REMSYN060AAXX  02054 06705 43/// /0609 10007 21019 39642 40206 5////;
0134067050999992011010206004+46400+006233FM-12+043099999V0200701N002619999999N9999999N1+00061-00171102041ADDIA2999+00009KA1999N+00061MA1999999096401REMSYN082AAXX  02064 06705 43/// /0705 10006 21017 39640 40204 5//// 333 20006 3/000 55000;
0140067050999992011010207004+46400+006233FM-12+043099999V0200501N002119999999N9999999N1+00061-00201102051ADDMA1999999096411MD1210011+9999OA149900571REMSYN088AAXX  02074 06705 33/// /0504 10006 21020 39641 40205 52001 333 55300 20000 91111 91209;
0140067050999992011010208004+46400+006233FM-12+043099999V0200401N001519999999N9999999N1+00091-00211102081ADDMA1999999096441MD1310021+9999OA149900461REMSYN088AAXX  02084 06705 33/// /0403 10009 21021 39644 40208 53002 333 55300 20025 91109 91205;
0140067050999992011010209004+46400+006233FM-12+043099999V0200701N003619999999N9999999N1+00161-00171102071ADDMA1999999096451MD1310051+9999OA149900821REMSYN088AAXX  02094 06705 33/// /0707 10016 21017 39645 40207 53005 333 55300 20176 91116 91211;
0140067050999992011010210004+46400+006233FM-12+043099999V0200601N005719999999N9999999N1+00211-00201102101ADDMA1999999096481MD1310071+9999OA149900821REMSYN088AAXX  02104 06705 33/// /0611 10021 21020 39648 40210 53007 333 55300 20378 91116 91211;
0140067050999992011010211004+46400+006233FM-12+043099999V0200601N005719999999N9999999N1+00261-00111102071ADDMA1999999096471MD1210031+9999OA149900881REMSYN088AAXX  02114 06705 33/// /0611 10026 21011 39647 40207 52003 333 55300 20598 91117 91212;
0175067050999992011010212004+46400+006233FM-12+043099999V0200501N006719999999N9999999N1+00281-00201102051ADDMA1999999096451MD1710021+9999OA149901031REMSYN088AAXX  02124 06705 33/// /0513 10028 21020 39645 40205 58000 333 55300 20803 91120 91213;EQDQ01+000082APCTENQ02+000002APC3  
0140067050999992011010213004+46400+006233FM-12+043099999V0200401N006719999999N9999999N1+00261-00241102031ADDMA1999999096431MD1810051+9999OA149901241REMSYN088AAXX  02134 06705 33/// /0413 10026 21024 39643 40203 58005 333 55300 20688 91124 91215;
0103067050999992011010214004+46400+006233FM-12+043099999V0200401N005119999999N9999999N1+00211-00241102051ADDMA1999999096441REMSYN076AAXX  02144 06705 33/// /0410 10021 21024 39644 40205 5//// 333 553// 20432;
0140067050999992011010215004+46400+006233FM-12+043099999V0200301N005119999999N9999999N1+00181-00331102091ADDMA1999999096471MD1310021+9999OA149901241REMSYN088AAXX  02154 06705 33/// /0310 10018 21033 39647 40209 53002 333 55300 20227 91124 91215;
0140067050999992011010216004+46400+006233FM-12+043099999V0200301N006219999999N9999999N1+00131-00351102141ADDMA1999999096511MD1310081+9999OA149901031REMSYN088AAXX  02164 06705 33/// /0312 10013 21035 39651 40214 53008 333 55300 20076 91120 91214;
0140067050999992011010217004+46400+006233FM-12+043099999V0200301N006219999999N9999999N1+00091-00391102171ADDMA1999999096531MD1110091+9999OA149901181REMSYN088AAXX  02174 06705 33/// /0312 10009 21039 39653 40217 51009 333 55300 20000 91123 91214;
0159067050999992011010218004+46400+006233FM-12+043099999V0200201N006219999999N9999999N1+00081-00441102221ADDKA1120M+00301MA1999999096571MD1210101+9999OA149901241REMSYN094AAXX  02184 06705 33/// /0212 10008 21044 39657 40222 52010 333 10030 55300 20000 91124 91215;
0140067050999992011010219004+46400+006233FM-12+043099999V0200201N006219999999N9999999N1+00061-00481102231ADDMA1999999096581MD1210071+9999OA149901241REMSYN088AAXX  02194 06705 33/// /0212 10006 21048 39658 40223 52007 333 55300 20000 91124 91213;
0140067050999992011010220004+46400+006233FM-12+043099999V0200201N007219999999N9999999N1+00041-00561102261ADDMA1999999096601MD1210071+9999OA149901241REMSYN088AAXX  02204 06705 33/// /0214 10004 21056 39660 40226 52007 333 55300 20000 91124 91214;
0140067050999992011010221004+46400+006233FM-12+043099999V0200301N006719999999N9999999N1+00021-00581102301ADDMA1999999096631MD1310061+9999OA149901341REMSYN088AAXX  02214 06705 33/// /0313 10002 21058 39663 40230 53006 333 55300 20000 91126 91214;
0140067050999992011010222004+46400+006233FM-12+043099999V0200301N005719999999N9999999N1-00021-00581102331ADDMA1999999096651MD1210071+9999OA149901341REMSYN088AAXX  02224 06705 33/// /0311 11002 21058 39665 40233 52007 333 55300 20000 91126 91214;
0140067050999992011010223004+46400+006233FM-12+043099999V0200401N006719999999N9999999N1-00041-00601102341ADDMA1999999096661MD1210061+9999OA149901241REMSYN088AAXX  02234 06705 33/// /0413 11004 21060 39666 40234 52006 333 55300 20000 91124 91214;
0140067050999992011010300004+46400+006233FM-12+043099999V0200301N005119999999N9999999N1-00051-00631102341ADDMA1999999096661MD1210031+9999OA149901341REMSYN088AAXX  03004 06705 33/// /0310 11005 21063 39666 40234 52003 333 55300 20000 91126 91215;
0140067050999992011010301004+46400+006233FM-12+043099999V0200301N004619999999N9999999N1-00091-00661102351ADDMA1999999096661MD1410001+9999OA149901181REMSYN088AAXX  03014 06705 33/// /0309 11009 21066 39666 40235 54001 333 55300 20000 91123 91213;
0140067050999992011010302004+46400+006233FM-12+043099999V0200201N005719999999N9999999N1-00091-00691102371ADDMA1999999096681MD1319999+9999OA149900931REMSYN088AAXX  03024 06705 33/// /0211 11009 21069 39668 40237 53/// 333 55300 20000 91118 91211;
0087067050999992011010303004+46400+006233FM-12+043099999V0200401N005719999999N9999999N1-00121-00621102391ADDMA1999999096691REMSYN060AAXX  03034 06705 43/// /0411 11012 21062 39669 40239 5////;
0140067050999992011010304004+46400+006233FM-12+043099999V0200301N005119999999N9999999N1-00141-00761102401ADDMA1999999096701MD1210041+9999OA149901131REMSYN088AAXX  03044 06705 33/// /0310 11014 21076 39670 40240 52004 333 55300 20000 91122 91213;
0140067050999992011010305004+46400+006233FM-12+043099999V0200301N005119999999N9999999N1-00141-00781102401ADDMA1999999096701MD1010021+9999OA149901131REMSYN088AAXX  03054 06705 33/// /0310 11014 21078 39670 40240 50002 333 55300 20000 91122 91212;
0207067050999992011010306004+46400+006233FM-12+043099999V0200701N001519999999N9999999N1-00161-00791102411ADDAL19900091GJ100009IA2999-00309KA1999N-00181MA1999999096701MD1410001+9999OA149901341REMSYN112AAXX  03064 06705 33/// /0703 11016 21079 39670 40241 54001 333 21018 3/103 55000 55300 20000 70000 91126 91214;
0140067050999992011010307004+46400+006233FM-12+043099999V0200201N003619999999N9999999N1-00141-00841102381ADDMA1999999096681MD1710021+9999OA149900821REMSYN088AAXX  03074 06705 33/// /0207 11014 21084 39668 40238 57002 333 55300 20000 91116 91210;
0140067050999992011010308004+46400+006233FM-12+043099999V0200801N002619999999N9999999N1-00201-00661102441ADDMA1999999096721MD1319999+9999OA149900771REMSYN088AAXX  03084 06705 33/// /0805 11020 21066 39672 40244 53/// 333 55300 20029 91115 91208;
0103067050999992011010309004+46400+006233FM-12+043099999V0200701N005119999999N9999999N1-00041-00701102411ADDMA1999999096731REMSYN076AAXX  03094 06705 33/// /0710 11004 21070 39673 40241 5//// 333 553// 20414;
0140067050999992011010310004+46400+006233FM-12+043099999V0200901N004119999999N9999999N1+00011-00641102441ADDMA1999999096761MD1210081+9999OA149900771REMSYN088AAXX  03104 06705 33/// /0908 10001 21064 39676 40244 52008 333 553// 20882 91115 91211;
0140067050999992011010311004+46400+006233FM-12+043099999V0200601N006219999999N9999999N1+00081-00741102391ADDMA1999999096731MD1010011+9999OA149900881REMSYN088AAXX  03114 06705 33/// /0612 10008 21074 39673 40239 50001 333 553// 2//// 91117 91212;
0140067050999992011010312004+46400+006233FM-12+043099999V0200501N004119999999N9999999N1+00121-00761102321ADDMA1999999096671MD1810061+9999OA149901131REMSYN088AAXX  03124 06705 33/// /0508 10012 21076 39667 40232 58006 333 553// 2//// 91122 91213;
0140067050999992011010313004+46400+006233FM-12+043099999V0200601N005119999999N9999999N1+00091-00881102291ADDMA1999999096641MD1710121+9999OA149900881REMSYN088AAXX  03134 06705 33/// /0610 10009 21088 39664 40229 57012 333 553// 2//// 91117 91212;
0103067050999992011010314004+46400+006233FM-12+043099999V0200801N004619999999N9999999N1+00091-00791102311ADDMA1999999096661REMSYN076AAXX  03144 06705 33/// /0809 10009 21079 39666 40231 5//// 333 553// 20986;
0103067050999992011010315004+46400+006233FM-12+043099999V0200701N003619999999N9999999N1+00031-00781102321ADDMA1999999096661REMSYN076AAXX  03154 06705 33/// /0707 10003 21078 39666 40232 5//// 333 553// 20594;
0140067050999992011010316004+46400+006233FM-12+043099999V0200501N002119999999N9999999N1-00081-00801102341ADDMA1999999096651MD1010011+9999OA149900621REMSYN088AAXX  03164 06705 33/// /0504 11008 21080 39665 40234 50001 333 55307 20144 91112 91209;
0140067050999992011010317004+46400+006233FM-12+043099999V0200501N002119999999N9999999N1-00151-00731102371ADDMA1999999096671MD1510011+9999OA149900511REMSYN088AAXX  03174 06705 33/// /0504 11015 21073 39667 40237 55001 333 55300 20000 91110 91206;
0159067050999992011010318004+46400+006233FM-12+043099999V0203501N001519999999N9999999N1-00221-00711102391ADDKA1120M+00141MA1999999096671MD1510011+9999OA149900881REMSYN094AAXX  03184 06705 33/// /3503 11022 21071 39667 40239 55001 333 10014 55300 20000 91117 91212;
0140067050999992011010319004+46400+006233FM-12+043099999V0203201N001519999999N9999999N1-00351-00791102421ADDMA1999999096671MD1210021+9999OA149900411REMSYN088AAXX  03194 06705 33/// /3203 11035 21079 39667 40242 52002 333 55300 20000 91108 91205;
0140067050999992011010320004+46400+006233FM-12+043099999V0203301N001519999999N9999999N1-00381-00851102421ADDMA1999999096661MD1010011+9999OA149900311REMSYN088AAXX  03204 06705 33/// /3303 11038 21085 39666 40242 50001 333 55300 20000 91106 91204;
0140067050999992011010321004+46400+006233FM-12+043099999V0203401N001519999999N9999999N1-00301-00811102381ADDMA1999999096641MD1710031+9999OA149900511REMSYN088AAXX  03214 06705 33/// /3403 11030 21081 39664 40238 57003 333 55300 20000 91110 91206;
0140067050999992011010322004+46400+006233FM-12+043099999V0203501N002119999999N9999999N1-00311-00761102371ADDMA1999999096631MD1710041+9999OA149900311REMSYN088AAXX  03224 06705 33/// /3504 11031 21076 39663 40237 57004 333 55300 20000 91106 91205;
0140067050999992011010323004+46400+006233FM-12+043099999V0203401N002619999999N9999999N1-00361-00771102391ADDMA1999999096641MD1510021+9999OA149900411REMSYN088AAXX  03234 06705 33/// /3405 11036 21077 39664 40239 55002 333 55300 20000 91108 91206;
0140067050999992011010400004+46400+006233FM-12+043099999V0203401N002119999999N9999999N1-00301-00731102361ADDMA1999999096621MD1810021+9999OA149900771REMSYN088AAXX  04004 06705 33/// /3404 11030 21073 39662 40236 58002 333 55300 20000 91115 91210;
0140067050999992011010401004+46400+006233FM-12+043099999V0203401N001519999999N9999999N1-00251-00661102281ADDMA1999999096561MD1710071+9999OA149900361REMSYN088AAXX  04014 06705 33/// /3403 11025 21066 39656 40228 57007 333 55300 20000 91107 91206;
0140067050999992011010402004+46400+006233FM-12+043099999V0203301N001019999999N9999999N1-00231-00581102241ADDMA1999999096531MD1819999+9999OA149900261REMSYN088AAXX  04024 06705 33/// /3302 11023 21058 39653 40224 58/// 333 55300 20000 91105 91203;
0140067050999992011010403004+46400+006233FM-12+043099999V0202901N000519999999N9999999N1-00191-00511102191ADDMA1999999096491MD1610131+9999OA149900411REMSYN088AAXX  04034 06705 33/// /2901 11019 21051 39649 40219 56013 333 55300 20000 91108 91206;
0140067050999992011010404004+46400+006233FM-12+043099999V0203001N000519999999N9999999N1-00171-00511102141ADDMA1999999096441MD1810121+9999OA149900101REMSYN088AAXX  04044 06705 33/// /3001 11017 21051 39644 40214 58012 333 55300 20000 91102 91202;
0140067050999992011010405004+46400+006233FM-12+043099999V0202601N000519999999N9999999N1-00181-00671102111ADDMA1999999096411MD1710121+9999OA149900101REMSYN088AAXX  04054 06705 33/// /2601 11018 21067 39641 40211 57012 333 55300 20000 91102 91201;
0207067050999992011010406004+46400+006233FM-12+043099999V0203101N000519999999N9999999N1-00191-00451102081ADDAL19900091GJ104509IA2999-00709KA1999N-00401MA1999999096381MD1710111+9999OA149900411REMSYN112AAXX  04064 06705 33/// /3101 11019 21045 39638 40208 57011 333 21040 3/107 55075 55300 20000 70000 91108 91206;
0140067050999992011010407004+46400+006233FM-12+043099999V0203001N000519999999N9999999N1-00211-00461102071ADDMA1999999096371MD1710071+9999OA149900101REMSYN088AAXX  04074 06705 33/// /3001 11021 21046 39637 40207 57007 333 55300 20000 91102 91201;
0140067050999992011010408004+46400+006233FM-12+043099999V0202501N000519999999N9999999N1-00201-00551102101ADDMA1999999096401MD1519999+9999OA149900101REMSYN088AAXX  04084 06705 33/// /2501 11020 21055 39640 40210 55/// 333 55300 20000 91102 91201;
0103067050999992011010409004+46400+006233FM-12+043099999V0202101N000519999999N9999999N1-00181-00511102111ADDMA1999999096411REMSYN076AAXX  04094 06705 33/// /2101 11018 21051 39641 40211 5//// 333 553// 20029;
0140067050999992011010410004+46400+006233FM-12+043099999V0202201N001519999999N9999999N1-00151-00491102101ADDMA1999999096411MD1210041+9999OA149900151REMSYN088AAXX  04104 06705 33/// /2203 11015 21049 39641 40210 52004 333 55300 20180 91103 91203;
0140067050999992011010411004+46400+006233FM-12+043099999V0202301N001019999999N9999999N1-00101-00431102041ADDMA1999999096361MD1810041+9999OA149900211REMSYN088AAXX  04114 06705 33/// /2302 11010 21043 39636 40204 58004 333 55300 20403 91104 91203;
0140067050999992011010412004+46400+006233FM-12+043099999V0202401N001019999999N9999999N1-00091-00391101961ADDMA1999999096291MD1710121+9999OA149900261REMSYN088AAXX  04124 06705 33/// /2402 11009 21039 39629 40196 57012 333 55300 20551 91105 91203;
0140067050999992011010413004+46400+006233FM-12+043099999V0202001N001519999999N9999999N1-00061-00371101901ADDMA1999999096241MD1610171+9999OA149900261REMSYN088AAXX  04134 06705 33/// /2003 11006 21037 39624 40190 56017 333 55300 20407 91105 91203;
0103067050999992011010414004+46400+006233FM-12+043099999V0202301N000519999999N9999999N1-00071-00481101841ADDMA1999999096181REMSYN076AAXX  04144 06705 33/// /2301 11007 21048 39618 40184 5//// 333 553// 20274;
0087067050999992011010415004+46400+006233FM-12+043099999V0202401N000519999999N9999999N1-00051-00431101841ADDMA1999999096191REMSYN060AAXX  04154 06705 43/// /2401 11005 21043 39619 40184 5////;
0140067050999992011010416004+46400+006233FM-12+043099999V0202301N001019999999N9999999N1-00071-00441101851ADDMA1999999096191MD1710051+9999OA149900151REMSYN088AAXX  04164 06705 33/// /2302 11007 21044 39619 40185 57005 333 55301 20061 91103 91203;
0140067050999992011010417004+46400+006233FM-12+043099999V0202601N000519999999N9999999N1-00081-00421101891ADDMA1999999096231MD1210051+9999OA149900151REMSYN088AAXX  04174 06705 33/// /2601 11008 21042 39623 40189 52005 333 55300 20000 91103 91203;
0159067050999992011010418004+46400+006233FM-12+043099999V0202901N000519999999N9999999N1-00111-00391101901ADDKA1120M-00031MA1999999096231MD1210041+9999OA149900261REMSYN094AAXX  04184 06705 33/// /2901 11011 21039 39623 40190 52004 333 11003 55300 20000 91105 91203;
0140067050999992011010419004+46400+006233FM-12+043099999V0202501N001519999999N9999999N1-00081-00491101891ADDMA1999999096231MD1210041+9999OA149900261REMSYN088AAXX  04194 06705 33/// /2503 11008 21049 39623 40189 52004 333 55300 20000 91105 91203;
0140067050999992011010420004+46400+006233FM-12+043099999V0202901N001019999999N9999999N1-00251-00441101881ADDMA1999999096181MD1810051+9999OA149900261REMSYN088AAXX  04204 06705 33/// /2902 11025 21044 39618 40188 58005 333 55300 20000 91105 91204;
0140067050999992011010421004+46400+006233FM-12+043099999V0203301N001519999999N9999999N1-00301-00551101871ADDMA1999999096161MD1710071+9999OA149900261REMSYN088AAXX  04214 06705 33/// /3303 11030 21055 39616 40187 57007 333 55300 20000 91105 91204;
0140067050999992011010422004+46400+006233FM-12+043099999V0200201N000519999999N9999999N1-00241-00511101831ADDMA1999999096141MD1710091+9999OA149900261REMSYN088AAXX  04224 06705 33/// /0201 11024 21051 39614 40183 57009 333 55300 20000 91105 91204;
0175067050999992011010423004+46400+006233FM-12+043099999V0203601N000519999999N9999999N1-00201-00601101871ADDMA1999999096181MD1710011+9999OA149900211REMSYN088AAXX  04234 06705 33/// /3601 11020 21060 39618 40187 53000 333 55300 20000 91104 91204;EQDQ01+000032APCTENQ02+000002APC3  
0175067050999992011010500004+46400+006233FM-12+043099999V0203501N000519999999N9999999N1-00081-00671101821ADDMA1999999096161MD1710051+9999OA149900261REMSYN088AAXX  05004 06705 33/// /3501 11008 21067 39616 40182 52000 333 55300 20000 91105 91204;EQDQ01+000022APCTENQ02+000002APC3  
0140067050999992011010501004+46400+006233FM-12+043099999V0203401N001519999999N9999999N1-00161-00511101771ADDMA1999999096101MD1810041+9999OA149900211REMSYN088AAXX  05014 06705 33/// /3403 11016 21051 39610 40177 58004 333 55300 20000 91104 91203;
0140067050999992011010502004+46400+006233FM-12+043099999V0203601N001019999999N9999999N1-00111-00511101761ADDMA1999999096101MD1710081+9999OA149900211REMSYN088AAXX  05024 06705 33/// /3602 11011 21051 39610 40176 57008 333 55300 20000 91104 91203;
0087067050999992011010503004+46400+006233FM-12+043099999V0203001N001019999999N9999999N1-00191-00511101761ADDMA1999999096081REMSYN060AAXX  05034 06705 43/// /3002 11019 21051 39608 40176 5////;
0140067050999992011010504004+46400+006233FM-12+043099999V0200401N000519999999N9999999N1-00081-00611101721ADDMA1999999096071MD1710031+9999OA149900211REMSYN088AAXX  05044 06705 33/// /0401 11008 21061 39607 40172 57003 333 55300 20000 91104 91203;
0140067050999992011010505004+46400+006233FM-12+043099999V0202801N001019999999N9999999N1-00101-00431101731ADDMA1999999096071MD1510031+9999OA149900211REMSYN088AAXX  05054 06705 33/// /2802 11010 21043 39607 40173 55003 333 55300 20000 91104 91203;
0207067050999992011010506004+46400+006233FM-12+043099999V0203501N001519999999N9999999N1-00261-00551101781ADDAL19900091GJ100069IA2999-00509KA1999N-00301MA1999999096091MD1310011+9999OA149900261REMSYN112AAXX  05064 06705 33/// /3503 11026 21055 39609 40178 53001 333 21030 3/105 55001 55300 20000 70000 91105 91204;
0140067050999992011010507004+46400+006233FM-12+043099999V0203401N002119999999N9999999N1-00351-00601101801ADDMA1999999096091MD1210021+9999OA149900211REMSYN088AAXX  05074 06705 33/// /3404 11035 21060 39609 40180 52002 333 55300 20000 91104 91204;
0140067050999992011010508004+46400+006233FM-12+043099999V0203501N001019999999N9999999N1-00331-00591101811ADDMA1999999096101MD1219999+9999OA149900211REMSYN088AAXX  05084 06705 33/// /3502 11033 21059 39610 40181 52/// 333 55302 20058 91104 91204;
0140067050999992011010509004+46400+006233FM-12+043099999V0202301N001019999999N9999999N1-00101-00391101771ADDMA1999999096111MD1210021+9999OA149900211REMSYN088AAXX  05094 06705 33/// /2302 11010 21039 39611 40177 52002 333 553// 20407 91104 91204;
0140067050999992011010510004+46400+006233FM-12+043099999V0202101N001019999999N9999999N1+00011-00281101701ADDMA1999999096071MD1810021+9999OA149900211REMSYN088AAXX  05104 06705 33/// /2102 10001 21028 39607 40170 58002 333 553// 20814 91104 91203;
0140067050999992011010511004+46400+006233FM-12+043099999V0202101N001019999999N9999999N1+00111-00321101601ADDMA1999999095991MD1710111+9999OA149900261REMSYN088AAXX  05114 06705 33/// /2102 10011 21032 39599 40160 57011 333 553// 2//// 91105 91203;
0103067050999992011010512004+46400+006233FM-12+043099999V0202201N000519999999N9999999N1+00211-00271101511ADDMA1999999095931REMSYN076AAXX  05124 06705 33/// /2201 10021 21027 39593 40151 5//// 333 553// 2////;
0140067050999992011010513004+46400+006233FM-12+043099999V0201801N000519999999N9999999N1+00161-00271101501ADDMA1999999095911MD1710161+9999OA149900211REMSYN088AAXX  05134 06705 33/// /1801 10016 21027 39591 40150 57016 333 55302 20529 91104 91203;
0087067050999992011010514004+46400+006233FM-12+043099999V0203401N001019999999N9999999N1+00181-00241101471ADDMA1999999095881REMSYN060AAXX  05144 06705 43/// /3402 10018 21024 39588 40147 5////;
0087067050999992011010515004+46400+006233FM-12+043099999V0201001N000519999999N9999999N1+00201-00231101441ADDMA1999999095861REMSYN060AAXX  05154 06705 43/// /1001 10020 21023 39586 40144 5////;
0140067050999992011010516004+46400+006233FM-12+043099999V0202601N000519999999N9999999N1+00231-00291101421ADDMA1999999095851MD1710061+9999OA149900151REMSYN088AAXX  05164 06705 33/// /2601 10023 21029 39585 40142 57006 333 55300 20032 91103 91202;
0140067050999992011010517004+46400+006233FM-12+043099999V0202801N000519999999N9999999N1+00251-00301101381ADDMA1999999095811MD1710071+9999OA149900151REMSYN088AAXX  05174 06705 33/// /2801 10025 21030 39581 40138 57007 333 55300 20000 91103 91202;
0159067050999992011010518004+46400+006233FM-12+043099999V0202201N001019999999N9999999N1+00291-00301101351ADDKA1120M+00261MA1999999095791MD1619999+9999OA149900261REMSYN094AAXX  05184 06705 33/// /2202 10029 21030 39579 40135 56/// 333 10026 55300 20000 91105 91204;
0140067050999992011010519004+46400+006233FM-12+043099999V0203001N001519999999N9999999N1+00051-00271101371ADDMA1999999095761MD1610091+9999OA149900211REMSYN088AAXX  05194 06705 33/// /3003 10005 21027 39576 40137 56009 333 55300 20000 91104 91203;
0140067050999992011010520004+46400+006233FM-12+043099999V0202201N001519999999N9999999N1+00301-00241101271ADDMA1999999095721MD1719999+9999OA149900361REMSYN088AAXX  05204 06705 33/// /2203 10030 21024 39572 40127 57/// 333 55300 20000 91107 91204;
0103067050999992011010521004+46400+006233FM-12+043099999V0201801N002119999999N9999999N1+00281-00221101241ADDMA1999999095691REMSYN076AAXX  05214 06705 33/// /1804 10028 21022 39569 40124 5//// 333 553// 20000;
0140067050999992011010522004+46400+006233FM-12+043099999V0202101N001519999999N9999999N1+00341-00201101221ADDMA1999999095681MD1710081+9999OA149900511REMSYN088AAXX  05224 06705 33/// /2103 10034 21020 39568 40122 57008 333 55300 20000 91110 91207;
0140067050999992011010523004+46400+006233FM-12+043099999V0201601N001019999999N9999999N1+00371-00191101191ADDMA1999999095661MD1719999+9999OA149900511REMSYN088AAXX  05234 06705 33/// /1602 10037 21019 39566 40119 57/// 333 55300 20000 91110 91207;
0087067050999992011010600004+46400+006233FM-12+043099999V0202301N006219999999N9999999N1+00511-00181101111ADDMA1999999095611REMSYN060AAXX  06004 06705 43/// /2312 10051 21018 39561 40111 5////;
0087067050999992011010601004+46400+006233FM-12+043099999V0202101N003119999999N9999999N1+00431-00171101111ADDMA1999999095591REMSYN060AAXX  06014 06705 43/// /2106 10043 21017 39559 40111 5////;
0087067050999992011010602004+46400+006233FM-12+043099999V0202401N004119999999N9999999N1+00401+00041101161ADDMA1999999095631REMSYN060AAXX  06024 06705 43/// /2408 10040 20004 39563 40116 5////;
0087067050999992011010603004+46400+006233FM-12+043099999V0202501N004119999999N9999999N1+00481+00091101131ADDMA1999999095621REMSYN060AAXX  06034 06705 43/// /2508 10048 20009 39562 40113 5////;
0087067050999992011010604004+46400+006233FM-12+043099999V0202501N005119999999N9999999N1+00561+00141101101ADDMA1999999095611REMSYN060AAXX  06044 06705 43/// /2510 10056 20014 39561 40110 5////;
0087067050999992011010605004+46400+006233FM-12+043099999V0202401N003619999999N9999999N1+00531+00131101091ADDMA1999999095591REMSYN060AAXX  06054 06705 43/// /2407 10053 20013 39559 40109 5////;
0134067050999992011010606004+46400+006233FM-12+043099999V0202401N002119999999N9999999N1+00521+00141101081ADDIA2999-00209KA1999N+00041MA1999999095581REMSYN082AAXX  06064 06705 43/// /2404 10052 20014 39558 40108 5//// 333 20004 3/102 55043;
0087067050999992011010607004+46400+006233FM-12+043099999V0202501N003619999999N9999999N1+00471+00271101141ADDMA1999999095631REMSYN060AAXX  06074 06705 43/// /2507 10047 20027 39563 40114 5////;
0109067050999992011010608004+46400+006233FM-12+043099999V0202401N002619999999N9999999N1+00461+00331101151ADDMA1999999095641REMSYN082AAXX  06084 06705 23/// /2405 10046 20033 39564 40115 5//// 333 553// 20007 60015;
0087067050999992011010609004+46400+006233FM-12+043099999V0202301N002619999999N9999999N1+00541+00381101151ADDMA1999999095651REMSYN060AAXX  06094 06705 43/// /2305 10054 20038 39565 40115 5////;
0146067050999992011010610004+46400+006233FM-12+043099999V0202401N002119999999N9999999N1+00541+00411101161ADDMA1999999095661MD1210031+9999OA149900721REMSYN094AAXX  06104 06705 23/// /2404 10054 20041 39566 40116 52003 333 55300 20108 69945 91114 91208;
0146067050999992011010611004+46400+006233FM-12+043099999V0202401N004119999999N9999999N1+00741+00431101071ADDMA1999999095621MD1810021+9999OA149900721REMSYN094AAXX  06114 06705 23/// /2408 10074 20043 39562 40107 58002 333 55300 20259 69915 91114 91208;
0163067050999992011010612004+46400+006233FM-12+043099999V0202401N006219999999N9999999N1+00741+00361101031ADDAA106004191MA1999999095581MD1710071+9999OA149901031REMSYN100AAXX  06124 06705 03/// /2412 10074 20036 39558 40103 57007 60041 333 55300 20256 60005 91120 91213;
0146067050999992011010613004+46400+006233FM-12+043099999V0202301N005719999999N9999999N1+00741+00441101021ADDMA1999999095571MD1610091+9999OA149901031REMSYN094AAXX  06134 06705 23/// /2311 10074 20044 39557 40102 56009 333 55300 20169 69965 91120 91213;
0087067050999992011010614004+46400+006233FM-12+043099999V0202201N002119999999N9999999N1+00711+00501101041ADDMA1999999095581REMSYN060AAXX  06144 06705 43/// /2204 10071 20050 39558 40104 5////;
0087067050999992011010615004+46400+006233FM-12+043099999V0202501N006719999999N9999999N1+00831+00541101001ADDMA1999999095571REMSYN060AAXX  06154 06705 43/// /2513 10083 20054 39557 40100 5////;
0146067050999992011010616004+46400+006233FM-12+043099999V0202501N006219999999N9999999N1+00771+00571101051ADDMA1999999095601MD1210031+9999OA149901031REMSYN094AAXX  06164 06705 23/// /2512 10077 20057 39560 40105 52003 333 55300 20007 60015 91120 91213;
0146067050999992011010617004+46400+006233FM-12+043099999V0202201N003119999999N9999999N1+00771+00581101081ADDMA1999999095631MD1210051+9999OA149900881REMSYN094AAXX  06174 06705 23/// /2206 10077 20058 39563 40108 52005 333 55300 20000 60015 91117 91212;
0182067050999992011010618004+46400+006233FM-12+043099999V0202001N001519999999N9999999N1+00661+00561101141ADDAA112007991KA1120M+00831MA1999999095671MD1210101+9999OA149901031REMSYN106AAXX  06184 06705 03/// /2003 10066 20056 39567 40114 52010 60082 333 10083 55300 20000 69995 91120 91213;
0146067050999992011010619004+46400+006233FM-12+043099999V0202101N003119999999N9999999N1+00721+00591101151ADDMA1999999095691MD1210091+9999OA149900511REMSYN094AAXX  06194 06705 23/// /2106 10072 20059 39569 40115 52009 333 55300 20000 60015 91110 91207;
0146067050999992011010620004+46400+006233FM-12+043099999V0202301N002119999999N9999999N1+00731+00611101211ADDMA1999999095751MD1219999+9999OA149900511REMSYN094AAXX  06204 06705 23/// /2304 10073 20061 39575 40121 52/// 333 55300 20000 69975 91110 91206;
0146067050999992011010621004+46400+006233FM-12+043099999V0202201N002119999999N9999999N1+00751+00621101241ADDMA1999999095781MD1219999+9999OA149900881REMSYN094AAXX  06214 06705 23/// /2204 10075 20062 39578 40124 52/// 333 55300 20000 69975 91117 91212;
0140067050999992011010622004+46400+006233FM-12+043099999V0202501N001519999999N9999999N1+00741+00621101301ADDMA1999999095831MD1210141+9999OA149900621REMSYN088AAXX  06224 06705 33/// /2503 10074 20062 39583 40130 52014 333 55300 20000 91112 91208;
0109067050999992011010623004+46400+006233FM-12+043099999V0202201N001519999999N9999999N1+00741+00621101341ADDMA1999999095871REMSYN082AAXX  06234 06705 23/// /2203 10074 20062 39587 40134 5//// 333 553// 20000 69915;
0087067050999992011010700004+46400+006233FM-12+043099999V0201301N001019999999N9999999N1+00721+00641101331ADDMA1999999095861REMSYN060AAXX  07004 06705 43/// /1302 10072 20064 39586 40133 5////;
0087067050999992011010701004+46400+006233FM-12+043099999V0209999C000019999999N9999999N1+00711+00601101371ADDMA1999999095891REMSYN060AAXX  07014 06705 43/// /0000 10071 20060 39589 40137 5////;
0087067050999992011010702004+46400+006233FM-12+043099999V0202001N000519999999N9999999N1+00731+00651101401ADDMA1999999095931REMSYN060AAXX  07024 06705 43/// /2001 10073 20065 39593 40140 5////;
0087067050999992011010703004+46400+006233FM-12+043099999V0202301N002619999999N9999999N1+00781+00681101401ADDMA1999999095941REMSYN060AAXX  07034 06705 43/// /2305 10078 20068 39594 40140 5////;
0146067050999992011010704004+46400+006233FM-12+043099999V0203001N001019999999N9999999N1+00701+00651101391ADDMA1999999095911MD1010021+9999OA149900311REMSYN094AAXX  07044 06705 23/// /3002 10070 20065 39591 40139 50002 333 55300 20000 60025 91106 91205;
0146067050999992011010705004+46400+006233FM-12+043099999V0209999C000019999999N9999999N1+00651+00611101371ADDMA1999999095881MD1710051+9999OA149900261REMSYN094AAXX  07054 06705 23/// /0000 10065 20061 39588 40137 57005 333 55300 20000 69915 91105 91204;
0230067050999992011010706004+46400+006233FM-12+043099999V0203301N001519999999N9999999N1+00531+00531101371ADDAA112008991AL14801691GJ100009IA2999+00509KA1999N+00571MA1999999095861MD1710081+9999OA149900621REMSYN124AAXX  07064 06705 03/// /3303 10053 20053 39586 40137 57008 60092 333 20057 3/005 55000 55300 20000 60005 70168 91112 91208;
0140067050999992011010707004+46400+006233FM-12+043099999V0200101N001019999999N9999999N1+00531+00521101381ADDMA1999999095871MD1510041+9999OA149900311REMSYN088AAXX  07074 06705 33/// /0102 10053 20052 39587 40138 55004 333 55300 20000 91106 91204;
0103067050999992011010708004+46400+006233FM-12+043099999V0203201N001019999999N9999999N1+00541+00491101421ADDMA1999999095911REMSYN076AAXX  07084 06705 33/// /3202 10054 20049 39591 40142 5//// 333 553// 20043;
0087067050999992011010709004+46400+006233FM-12+043099999V0200501N000519999999N9999999N1+00661+00621101391ADDMA1999999095901REMSYN060AAXX  07094 06705 43/// /0501 10066 20062 39590 40139 5////;
0140067050999992011010710004+46400+006233FM-12+043099999V0200401N001019999999N9999999N1+00771+00701101371ADDMA1999999095911MD1210041+9999OA149900211REMSYN088AAXX  07104 06705 33/// /0402 10077 20070 39591 40137 52004 333 55300 20428 91104 91203;
0140067050999992011010711004+46400+006233FM-12+043099999V0200301N000519999999N9999999N1+00831+00731101371ADDMA1999999095921MD1310011+9999OA149900211REMSYN088AAXX  07114 06705 33/// /0301 10083 20073 39592 40137 53001 333 55300 20414 91104 91203;
0140067050999992011010712004+46400+006233FM-12+043099999V0202301N000519999999N9999999N1+00991+00741101261ADDMA1999999095841MD1810061+9999OA149900311REMSYN088AAXX  07124 06705 33/// /2301 10099 20074 39584 40126 58006 333 55305 20965 91106 91205;
0140067050999992011010713004+46400+006233FM-12+043099999V0202501N000519999999N9999999N1+01191+00791101181ADDMA1999999095811MD1710101+9999OA149900311REMSYN088AAXX  07134 06705 33/// /2501 10119 20079 39581 40118 57010 333 55305 20925 91106 91203;
0087067050999992011010714004+46400+006233FM-12+043099999V0202201N000519999999N9999999N1+01121+00741101201ADDMA1999999095811REMSYN060AAXX  07144 06705 43/// /2201 10112 20074 39581 40120 5////;
0087067050999992011010715004+46400+006233FM-12+043099999V0200701N001519999999N9999999N1+01091+00771101211ADDMA1999999095821REMSYN060AAXX  07154 06705 43/// /0703 10109 20077 39582 40121 5////;
0140067050999992011010716004+46400+006233FM-12+043099999V0200601N002119999999N9999999N1+00871+00691101291ADDMA1999999095851MD1210041+9999OA149900261REMSYN088AAXX  07164 06705 33/// /0604 10087 20069 39585 40129 52004 333 55300 20029 91105 91204;
0140067050999992011010717004+46400+006233FM-12+043099999V0201701N000519999999N9999999N1+01041+00721101251ADDMA1999999095841MD1210031+9999OA149900261REMSYN088AAXX  07174 06705 33/// /1701 10104 20072 39584 40125 52003 333 55300 20000 91105 91204;
0122067050999992011010718004+46400+006233FM-12+043099999V0200401N000519999999N9999999N1+00921+00671101271ADDKA1120M+01201MA1999999095841REMSYN082AAXX  07184 06705 33/// /0401 10092 20067 39584 40127 5//// 333 10120 553// 20000;
0140067050999992011010719004+46400+006233FM-12+043099999V0202601N001019999999N9999999N1+01151+00681101201ADDMA1999999095821MD1719999+9999OA149900311REMSYN088AAXX  07194 06705 33/// /2602 10115 20068 39582 40120 57/// 333 55300 20000 91106 91204;
0087067050999992011010720004+46400+006233FM-12+043099999V0202301N003119999999N9999999N1+01171+00681101191ADDMA1999999095811REMSYN060AAXX  07204 06705 43/// /2306 10117 20068 39581 40119 5////;
0087067050999992011010721004+46400+006233FM-12+043099999V0201901N002119999999N9999999N1+01011+00661101241ADDMA1999999095831REMSYN060AAXX  07214 06705 43/// /1904 10101 20066 39583 40124 5////;
0140067050999992011010722004+46400+006233FM-12+043099999V0200701N001519999999N9999999N1+00991+00661101281ADDMA1999999095861MD1210041+9999OA149900461REMSYN088AAXX  07224 06705 33/// /0703 10099 20066 39586 40128 52004 333 55300 20000 91109 91207;
0103067050999992011010723004+46400+006233FM-12+043099999V0200101N000519999999N9999999N1+01101+00661101281ADDMA1999999095881REMSYN076AAXX  07234 06705 33/// /0101 10110 20066 39588 40128 5//// 333 553// 20000;
0103067050999992011010800004+46400+006233FM-12+043099999V0200501N000519999999N9999999N1+00981+00641101301ADDMA1999999095881REMSYN076AAXX  08004 06705 33/// /0501 10098 20064 39588 40130 5//// 333 553// 20000;
0087067050999992011010801004+46400+006233FM-12+043099999V0202601N000519999999N9999999N1+00961+00681101311ADDMA1999999095891REMSYN060AAXX  08014 06705 43/// /2601 10096 20068 39589 40131 5////;
0087067050999992011010802004+46400+006233FM-12+043099999V0202601N001019999999N9999999N1+00871+00641101331ADDMA1999999095891REMSYN060AAXX  08024 06705 43/// /2602 10087 20064 39589 40133 5////;
0087067050999992011010803004+46400+006233FM-12+043099999V0202701N000519999999N9999999N1+00981+00681101371ADDMA1999999095951REMSYN060AAXX  08034 06705 43/// /2701 10098 20068 39595 40137 5////;
0087067050999992011010804004+46400+006233FM-12+043099999V0201901N002619999999N9999999N1+00991+00701101421ADDMA1999999096001REMSYN060AAXX  08044 06705 43/// /1905 10099 20070 39600 40142 5////;
0087067050999992011010805004+46400+006233FM-12+043099999V0203301N001519999999N9999999N1+01031+00631101431ADDMA1999999096011REMSYN060AAXX  08054 06705 43/// /3303 10103 20063 39601 40143 5////;
0134067050999992011010806004+46400+006233FM-12+043099999V0202901N001019999999N9999999N1+00821+00621101471ADDIA2999+00709KA1999N+00761MA1999999096011REMSYN082AAXX  08064 06705 43/// /2902 10082 20062 39601 40147 5//// 333 20076 3/007 55014;
0087067050999992011010807004+46400+006233FM-12+043099999V0202901N001019999999N9999999N1+00761+00601101501ADDMA1999999096031REMSYN060AAXX  08074 06705 43/// /2902 10076 20060 39603 40150 5////;
0103067050999992011010808004+46400+006233FM-12+043099999V0203401N000519999999N9999999N1+00731+00591101551ADDMA1999999096071REMSYN076AAXX  08084 06705 33/// /3401 10073 20059 39607 40155 5//// 333 553// 20047;
0087067050999992011010809004+46400+006233FM-12+043099999V0202801N001019999999N9999999N1+00871+00631101531ADDMA1999999096081REMSYN060AAXX  08094 06705 43/// /2802 10087 20063 39608 40153 5////;
0087067050999992011010810004+46400+006233FM-12+043099999V0202901N001019999999N9999999N1+01011+00731101531ADDMA1999999096101REMSYN060AAXX  08104 06705 43/// /2902 10101 20073 39610 40153 5////;
0087067050999992011010811004+46400+006233FM-12+043099999V0201601N001019999999N9999999N1+01241+00731101451ADDMA1999999096071REMSYN060AAXX  08114 06705 43/// /1602 10124 20073 39607 40145 5////;
0087067050999992011010812004+46400+006233FM-12+043099999V0202201N006219999999N9999999N1+01471+00591101341ADDMA1999999096011REMSYN060AAXX  08124 06705 43/// /2212 10147 20059 39601 40134 5////;
0087067050999992011010813004+46400+006233FM-12+043099999V0202201N007219999999N9999999N1+01441+00511101291ADDMA1999999095961REMSYN060AAXX  08134 06705 43/// /2214 10144 20051 39596 40129 5////;
0087067050999992011010814004+46400+006233FM-12+043099999V0202301N007219999999N9999999N1+01451+00461101261ADDMA1999999095931REMSYN060AAXX  08144 06705 43/// /2314 10145 20046 39593 40126 5////;
0087067050999992011010815004+46400+006233FM-12+043099999V0202301N006719999999N9999999N1+01381+00501101281ADDMA1999999095941REMSYN060AAXX  08154 06705 43/// /2313 10138 20050 39594 40128 5////;
0087067050999992011010816004+46400+006233FM-12+043099999V0202601N002119999999N9999999N1+01181+00521101331ADDMA1999999095951REMSYN060AAXX  08164 06705 43/// /2604 10118 20052 39595 40133 5////;
0087067050999992011010817004+46400+006233FM-12+043099999V0202501N003119999999N9999999N1+01121+00531101361ADDMA1999999095961REMSYN060AAXX  08174 06705 43/// /2506 10112 20053 39596 40136 5////;
0087067050999992011010818004+46400+006233FM-12+043099999V0202101N001519999999N9999999N1+01041+00531101351ADDMA1999999095941REMSYN060AAXX  08184 06705 43/// /2103 10104 20053 39594 40135 5////;
0087067050999992011010819004+46400+006233FM-12+043099999V0202101N001019999999N9999999N1+01051+00541101351ADDMA1999999095941REMSYN060AAXX  08194 06705 43/// /2102 10105 20054 39594 40135 5////;
0087067050999992011010820004+46400+006233FM-12+043099999V0202101N001519999999N9999999N1+01001+00551101351ADDMA1999999095931REMSYN060AAXX  08204 06705 43/// /2103 10100 20055 39593 40135 5////;
0087067050999992011010821004+46400+006233FM-12+043099999V0202701N001519999999N9999999N1+00841+00551101361ADDMA1999999095911REMSYN060AAXX  08214 06705 43/// /2703 10084 20055 39591 40136 5////;
0087067050999992011010822004+46400+006233FM-12+043099999V0200501N000519999999N9999999N1+00931+00571101371ADDMA1999999095941REMSYN060AAXX  08224 06705 43/// /0501 10093 20057 39594 40137 5////;
0087067050999992011010823004+46400+006233FM-12+043099999V0202801N001519999999N9999999N1+00741+00431101431ADDMA1999999095961REMSYN060AAXX  08234 06705 43/// /2803 10074 20043 39596 40143 5////;
0087067050999992011010900004+46400+006233FM-12+043099999V0202201N001519999999N9999999N1+00931+00431101391ADDMA1999999095961REMSYN060AAXX  09004 06705 43/// /2203 10093 20043 39596 40139 5////;
0087067050999992011010901004+46400+006233FM-12+043099999V0202301N000519999999N9999999N1+01011+00381101341ADDMA1999999095921REMSYN060AAXX  09014 06705 43/// /2301 10101 20038 39592 40134 5////;
0087067050999992011010902004+46400+006233FM-12+043099999V0209999C000019999999N9999999N1+00941+00361101371ADDMA1999999095941REMSYN060AAXX  09024 06705 43/// /0000 10094 20036 39594 40137 5////;
0087067050999992011010903004+46400+006233FM-12+043099999V0202501N002119999999N9999999N1+00991+00321101331ADDMA1999999095911REMSYN060AAXX  09034 06705 43/// /2504 10099 20032 39591 40133 5////;
0087067050999992011010904004+46400+006233FM-12+043099999V0202301N000519999999N9999999N1+00821+00311101301ADDMA1999999095851REMSYN060AAXX  09044 06705 43/// /2301 10082 20031 39585 40130 5////;
0087067050999992011010905004+46400+006233FM-12+043099999V0202101N001019999999N9999999N1+00751+00291101291ADDMA1999999095831REMSYN060AAXX  09054 06705 43/// /2102 10075 20029 39583 40129 5////;
0097067050999992011010906004+46400+006233FM-12+043099999V0202901N002119999999N9999999N1+00661+00241101361ADDMA1999999095871REMSYN070AAXX  09064 06705 43/// /2904 10066 20024 39587 40136 5//// 333 55030;
0087067050999992011010907004+46400+006233FM-12+043099999V0202401N002619999999N9999999N1+00771+00271101411ADDMA1999999095941REMSYN060AAXX  09074 06705 43/// /2405 10077 20027 39594 40141 5////;
0103067050999992011010908004+46400+006233FM-12+043099999V0202301N005119999999N9999999N1+00901+00371101461ADDMA1999999096021REMSYN076AAXX  09084 06705 33/// /2310 10090 20037 39602 40146 5//// 333 553// 20004;
0109067050999992011010909004+46400+006233FM-12+043099999V0202101N001519999999N9999999N1+00781+00541101491ADDMA1999999096021REMSYN082AAXX  09094 06705 23/// /2103 10078 20054 39602 40149 5//// 333 553// 20022 69935;
0146067050999992011010910004+46400+006233FM-12+043099999V0202401N001019999999N9999999N1+00761+00611101561ADDMA1999999096081MD1210141+9999OA149900671REMSYN094AAXX  09104 06705 23/// /2402 10076 20061 39608 40156 52014 333 55300 20047 69975 91113 91209;
0146067050999992011010911004+46400+006233FM-12+043099999V0202201N001519999999N9999999N1+00761+00651101571ADDMA1999999096091MD1210071+9999OA149900311REMSYN094AAXX  09114 06705 23/// /2203 10076 20065 39609 40157 52007 333 55300 20068 60025 91106 91203;
0163067050999992011010912004+46400+006233FM-12+043099999V0203001N001519999999N9999999N1+00741+00651101511ADDAA106003091MA1999999096031MD1010011+9999OA149900771REMSYN100AAXX  09124 06705 03/// /3003 10074 20065 39603 40151 50001 60031 333 55300 20090 69945 91115 91210;
0146067050999992011010913004+46400+006233FM-12+043099999V0202901N001019999999N9999999N1+00761+00691101521ADDMA1999999096051MD1710031+9999OA149900261REMSYN094AAXX  09134 06705 23/// /2902 10076 20069 39605 40152 57003 333 55300 20076 60025 91105 91203;
0087067050999992011010914004+46400+006233FM-12+043099999V0202201N001519999999N9999999N1+00761+00691101591ADDMA1999999096111REMSYN060AAXX  09144 06705 43/// /2203 10076 20069 39611 40159 5////;
0087067050999992011010915004+46400+006233FM-12+043099999V0202101N001519999999N9999999N1+00761+00711101651ADDMA1999999096171REMSYN060AAXX  09154 06705 43/// /2103 10076 20071 39617 40165 5////;
0146067050999992011010916004+46400+006233FM-12+043099999V0202401N001519999999N9999999N1+00691+00601101741ADDMA1999999096241MD1210191+9999OA149900361REMSYN094AAXX  09164 06705 23/// /2403 10069 20060 39624 40174 52019 333 55300 20004 60045 91107 91205;
0146067050999992011010917004+46400+006233FM-12+043099999V0202301N001519999999N9999999N1+00651+00581101801ADDMA1999999096291MD1110181+9999OA149900361REMSYN094AAXX  09174 06705 23/// /2303 10065 20058 39629 40180 51018 333 55300 20000 60035 91107 91205;
0182067050999992011010918004+46400+006233FM-12+043099999V0202201N002619999999N9999999N1+00651+00571101831ADDAA112019191KA1120M+00901MA1999999096321MD1110151+9999OA149900771REMSYN106AAXX  09184 06705 03/// /2205 10065 20057 39632 40183 51015 60192 333 10090 55300 20000 60015 91115 91210;
0146067050999992011010919004+46400+006233FM-12+043099999V0202101N003119999999N9999999N1+00611+00531101871ADDMA1999999096351MD1110111+9999OA149900511REMSYN094AAXX  09194 06705 23/// /2106 10061 20053 39635 40187 51011 333 55300 20000 60015 91110 91206;
0146067050999992011010920004+46400+006233FM-12+043099999V0202301N001519999999N9999999N1+00581+00511101941ADDMA1999999096411MD1310121+9999OA149900511REMSYN094AAXX  09204 06705 23/// /2303 10058 20051 39641 40194 53012 333 55300 20000 60025 91110 91206;
0146067050999992011010921004+46400+006233FM-12+043099999V0202001N002619999999N9999999N1+00571+00461102001ADDMA1999999096461MD1310141+9999OA149900511REMSYN094AAXX  09214 06705 23/// /2005 10057 20046 39646 40200 53014 333 55300 20000 60015 91110 91206;
0146067050999992011010922004+46400+006233FM-12+043099999V0202201N001519999999N9999999N1+00511+00441102021ADDMA1999999096471MD1210121+9999OA149900411REMSYN094AAXX  09224 06705 23/// /2203 10051 20044 39647 40202 52012 333 55300 20000 69945 91108 91205;
0140067050999992011010923004+46400+006233FM-12+043099999V0202201N001519999999N9999999N1+00521+00401102031ADDMA1999999096481MD1210071+9999OA149900411REMSYN088AAXX  09234 06705 33/// /2203 10052 20040 39648 40203 52007 333 55300 20000 91108 91205;
0163067050999992011011000004+46400+006233FM-12+043099999V0202001N001019999999N9999999N1+00501+00411102051ADDAA106005191MA1999999096501MD1210041+9999OA149900511REMSYN100AAXX  10004 06705 03/// /2002 10050 20041 39650 40205 52004 60051 333 55300 20000 60005 91110 91206;
0140067050999992011011001004+46400+006233FM-12+043099999V0203101N000519999999N9999999N1+00481+00411102071ADDMA1999999096511MD1110041+9999OA149900211REMSYN088AAXX  10014 06705 33/// /3101 10048 20041 39651 40207 51004 333 55300 20000 91104 91203;
0103067050999992011011002004+46400+006233FM-12+043099999V0202101N000519999999N9999999N1+00511+00421102081ADDMA1999999096531REMSYN076AAXX  10024 06705 33/// /2101 10051 20042 39653 40208 5//// 333 553// 20000;
0087067050999992011011003004+46400+006233FM-12+043099999V0202901N000519999999N9999999N1+00461+00401102071ADDMA1999999096511REMSYN060AAXX  10034 06705 43/// /2901 10046 20040 39651 40207 5////;
0103067050999992011011004004+46400+006233FM-12+043099999V0203301N001019999999N9999999N1+00391+00341102081ADDMA1999999096501REMSYN076AAXX  10044 06705 33/// /3302 10039 20034 39650 40208 5//// 333 553// 20000;
0140067050999992011011005004+46400+006233FM-12+043099999V0203001N001019999999N9999999N1+00391+00321102081ADDMA1999999096501MD1719999+9999OA149900151REMSYN088AAXX  10054 06705 33/// /3002 10039 20032 39650 40208 57/// 333 55300 20000 91103 91202;
0159067050999992011011006004+46400+006233FM-12+043099999V0201101N001019999999N9999999N1+00411+00371102071ADDAA124023691GJ100009IA2999+00309KA1999N+00391MA1999999096501REMSYN088AAXX  10064 06705 43/// /1102 10041 20037 39650 40207 5//// 333 20039 3/003 55000 70235;
0140067050999992011011007004+46400+006233FM-12+043099999V0200101N000519999999N9999999N1+00451+00361102111ADDMA1999999096541MD1210041+9999OA149900151REMSYN088AAXX  10074 06705 33/// /0101 10045 20036 39654 40211 52004 333 55300 20000 91103 91202;
0087067050999992011011008004+46400+006233FM-12+043099999V0203101N001019999999N9999999N1+00461+00381102131ADDMA1999999096561REMSYN060AAXX  10084 06705 43/// /3102 10046 20038 39656 40213 5////;
0087067050999992011011009004+46400+006233FM-12+043099999V0203501N000519999999N9999999N1+00541+00401102131ADDMA1999999096581REMSYN060AAXX  10094 06705 43/// /3501 10054 20040 39658 40213 5////;
0140067050999992011011010004+46400+006233FM-12+043099999V0201401N001019999999N9999999N1+00551+00471102151ADDMA1999999096601MD1310061+9999OA149900151REMSYN088AAXX  10104 06705 33/// /1402 10055 20047 39660 40215 53006 333 55300 20238 91103 91202;
0140067050999992011011011004+46400+006233FM-12+043099999V0200401N000519999999N9999999N1+00541+00431102121ADDMA1999999096571MD1019999+9999OA149900151REMSYN088AAXX  10114 06705 33/// /0401 10054 20043 39657 40212 50/// 333 55300 20176 91103 91202;
0103067050999992011011012004+46400+006233FM-12+043099999V0200901N001519999999N9999999N1+00611+00421102031ADDMA1999999096501REMSYN076AAXX  10124 06705 33/// /0903 10061 20042 39650 40203 5//// 333 553// 20378;
0087067050999992011011013004+46400+006233FM-12+043099999V0201301N001519999999N9999999N1+00591+00461101961ADDMA1999999096431REMSYN060AAXX  10134 06705 43/// /1303 10059 20046 39643 40196 5////;
0087067050999992011011014004+46400+006233FM-12+043099999V0200701N002119999999N9999999N1+00591+00451101901ADDMA1999999096371REMSYN060AAXX  10144 06705 43/// /0704 10059 20045 39637 40190 5////;
0087067050999992011011015004+46400+006233FM-12+043099999V0209999C000019999999N9999999N1+00591+00421101901ADDMA1999999096371REMSYN060AAXX  10154 06705 43/// /0000 10059 20042 39637 40190 5////;
0087067050999992011011016004+46400+006233FM-12+043099999V0201101N000519999999N9999999N1+00561+00421101871ADDMA1999999096341REMSYN060AAXX  10164 06705 43/// /1101 10056 20042 39634 40187 5////;
0087067050999992011011017004+46400+006233FM-12+043099999V0201801N000519999999N9999999N1+00561+00391101861ADDMA1999999096331REMSYN060AAXX  10174 06705 43/// /1801 10056 20039 39633 40186 5////;
0110067050999992011011018004+46400+006233FM-12+043099999V0201601N001019999999N9999999N1+00521+00391101861ADDKA1999M+00621MA1999999096321REMSYN070AAXX  10184 06705 43/// /1602 10052 20039 39632 40186 5//// 333 10062;
0087067050999992011011019004+46400+006233FM-12+043099999V0202001N001019999999N9999999N1+00501+00371101901ADDMA1999999096351REMSYN060AAXX  10194 06705 43/// /2002 10050 20037 39635 40190 5////;
0087067050999992011011020004+46400+006233FM-12+043099999V0202001N000519999999N9999999N1+00481+00361101891ADDMA1999999096341REMSYN060AAXX  10204 06705 43/// /2001 10048 20036 39634 40189 5////;
0087067050999992011011021004+46400+006233FM-12+043099999V0202101N001019999999N9999999N1+00481+00361101881ADDMA1999999096331REMSYN060AAXX  10214 06705 43/// /2102 10048 20036 39633 40188 5////;
0087067050999992011011022004+46400+006233FM-12+043099999V0202501N000519999999N9999999N1+00471+00341101861ADDMA1999999096311REMSYN060AAXX  10224 06705 43/// /2501 10047 20034 39631 40186 5////;
0087067050999992011011023004+46400+006233FM-12+043099999V0201401N001519999999N9999999N1+00461+00361101811ADDMA1999999096261REMSYN060AAXX  10234 06705 43/// /1403 10046 20036 39626 40181 5////;
0087067050999992011011100004+46400+006233FM-12+043099999V0209999C000019999999N9999999N1+00461+00311101751ADDMA1999999096201REMSYN060AAXX  11004 06705 43/// /0000 10046 20031 39620 40175 5////;
0087067050999992011011101004+46400+006233FM-12+043099999V0203401N001019999999N9999999N1+00441+00351101701ADDMA1999999096151REMSYN060AAXX  11014 06705 43/// /3402 10044 20035 39615 40170 5////;
0087067050999992011011102004+46400+006233FM-12+043099999V0202901N000519999999N9999999N1+00441+00331101691ADDMA1999999096141REMSYN060AAXX  11024 06705 43/// /2901 10044 20033 39614 40169 5////;
0087067050999992011011103004+46400+006233FM-12+043099999V0209999C000019999999N9999999N1+00451+00321101641ADDMA1999999096101REMSYN060AAXX  11034 06705 43/// /0000 10045 20032 39610 40164 5////;
0087067050999992011011104004+46400+006233FM-12+043099999V0202001N001519999999N9999999N1+00451+00361101611ADDMA1999999096071REMSYN060AAXX  11044 06705 43/// /2003 10045 20036 39607 40161 5////;
0087067050999992011011105004+46400+006233FM-12+043099999V0201901N002119999999N9999999N1+00441+00271101551ADDMA1999999096011REMSYN060AAXX  11054 06705 43/// /1904 10044 20027 39601 40155 5////;
0097067050999992011011106004+46400+006233FM-12+043099999V0202601N002619999999N9999999N1+00391+00191101521ADDMA1999999095971REMSYN070AAXX  11064 06705 43/// /2605 10039 20019 39597 40152 5//// 333 55000;
0140067050999992011011107004+46400+006233FM-12+043099999V0202101N002119999999N9999999N1+00331+00171101501ADDMA1999999095941MD1619999+9999OA149900361REMSYN088AAXX  11074 06705 33/// /2104 10033 20017 39594 40150 56/// 333 55300 20000 91107 91205;
0103067050999992011011108004+46400+006233FM-12+043099999V0202301N003119999999N9999999N1+00311+00151101481ADDMA1999999095921REMSYN076AAXX  11084 06705 33/// /2306 10031 20015 39592 40148 5//// 333 553// 20112;
0087067050999992011011109004+46400+006233FM-12+043099999V0202301N003119999999N9999999N1+00351+00161101451ADDMA1999999095901REMSYN060AAXX  11094 06705 43/// /2306 10035 20016 39590 40145 5////;
0140067050999992011011110004+46400+006233FM-12+043099999V0202201N003119999999N9999999N1+00421+00191101421ADDMA1999999095881MD1810061+9999OA149900621REMSYN088AAXX  11104 06705 33/// /2206 10042 20019 39588 40142 58006 333 55300 20385 91112 91208;
0140067050999992011011111004+46400+006233FM-12+043099999V0202301N004119999999N9999999N1+00451+00191101361ADDMA1999999095831MD1810091+9999OA149900821REMSYN088AAXX  11114 06705 33/// /2308 10045 20019 39583 40136 58009 333 55300 20270 91116 91209;
0126067050999992011011112004+46400+006233FM-12+043099999V0202401N006219999999N9999999N1+00421+00201101351ADDAA106001091MA1999999095821REMSYN088AAXX  11124 06705 03/// /2412 10042 20020 39582 40135 5//// 60011 333 553// 20191 60015;
0146067050999992011011113004+46400+006233FM-12+043099999V0202401N003619999999N9999999N1+00321+00171101361ADDMA1999999095811MD1710071+9999OA149901031REMSYN094AAXX  11134 06705 23/// /2407 10032 20017 39581 40136 57007 333 55300 20097 60025 91120 91214;
0087067050999992011011114004+46400+006233FM-12+043099999V0202501N005719999999N9999999N1+00351+00171101351ADDMA1999999095801REMSYN060AAXX  11144 06705 43/// /2511 10035 20017 39580 40135 5////;
0087067050999992011011115004+46400+006233FM-12+043099999V0202501N004619999999N9999999N1+00361+00211101431ADDMA1999999095881REMSYN060AAXX  11154 06705 43/// /2509 10036 20021 39588 40143 5////;
0146067050999992011011116004+46400+006233FM-12+043099999V0202001N002119999999N9999999N1+00371+00281101491ADDMA1999999095941MD1210131+9999OA149901031REMSYN094AAXX  11164 06705 23/// /2004 10037 20028 39594 40149 52013 333 55300 20072 69915 91120 91212;
0140067050999992011011117004+46400+006233FM-12+043099999V0202001N001519999999N9999999N1+00381+00301101531ADDMA1999999095981MD1110171+9999OA149900671REMSYN088AAXX  11174 06705 33/// /2003 10038 20030 39598 40153 51017 333 55300 20000 91113 91209;
0182067050999992011011118004+46400+006233FM-12+043099999V0202001N001019999999N9999999N1+00381+00291101641ADDAA112004191KA1120M+00471MA1999999096081MD1310201+9999OA149901031REMSYN106AAXX  11184 06705 03/// /2002 10038 20029 39608 40164 53020 60042 333 10047 55300 20000 69985 91120 91214;
0146067050999992011011119004+46400+006233FM-12+043099999V0202201N000519999999N9999999N1+00381+00311101751ADDMA1999999096191MD1310251+9999OA149900211REMSYN094AAXX  11194 06705 23/// /2201 10038 20031 39619 40175 53025 333 55300 20000 69995 91104 91203;
0146067050999992011011120004+46400+006233FM-12+043099999V0202201N001519999999N9999999N1+00401+00301101811ADDMA1999999096251MD1210271+9999OA149900211REMSYN094AAXX  11204 06705 23/// /2203 10040 20030 39625 40181 52027 333 55300 20000 69945 91104 91203;
0140067050999992011011121004+46400+006233FM-12+043099999V0202401N002619999999N9999999N1+00421+00291101921ADDMA1999999096361MD1210281+9999OA149900671REMSYN088AAXX  11214 06705 33/// /2405 10042 20029 39636 40192 52028 333 55300 20000 91113 91209;
0140067050999992011011122004+46400+006233FM-12+043099999V0202801N001019999999N9999999N1+00411+00281102011ADDMA1999999096441MD1310251+9999OA149900461REMSYN088AAXX  11224 06705 33/// /2802 10041 20028 39644 40201 53025 333 55300 20000 91109 91206;
0140067050999992011011123004+46400+006233FM-12+043099999V0202601N000519999999N9999999N1+00411+00291102071ADDMA1999999096501MD1110251+9999OA149900461REMSYN088AAXX  11234 06705 33/// /2601 10041 20029 39650 40207 51025 333 55300 20000 91109 91206;
0163067050999992011011200004+46400+006233FM-12+043099999V0202701N001019999999N9999999N1+00381+00301102131ADDAA106002091MA1999999096551MD1110191+9999OA149901031REMSYN100AAXX  12004 06705 03/// /2702 10038 20030 39655 40213 51019 60021 333 55300 20000 69955 91120 91214;
0146067050999992011011201004+46400+006233FM-12+043099999V0202301N001019999999N9999999N1+00411+00321102201ADDMA1999999096621MD1210181+9999OA149900211REMSYN094AAXX  12014 06705 23/// /2302 10041 20032 39662 40220 52018 333 55300 20000 69915 91104 91203;
0103067050999992011011202004+46400+006233FM-12+043099999V0202401N001019999999N9999999N1+00411+00301102281ADDMA1999999096691REMSYN076AAXX  12024 06705 33/// /2402 10041 20030 39669 40228 5//// 333 553// 20000;
0087067050999992011011203004+46400+006233FM-12+043099999V0202601N002119999999N9999999N1+00441+00311102351ADDMA1999999096771REMSYN060AAXX  12034 06705 43/// /2604 10044 20031 39677 40235 5////;
0087067050999992011011204004+46400+006233FM-12+043099999V0201701N001519999999N9999999N1+00411+00321102381ADDMA1999999096791REMSYN060AAXX  12044 06705 43/// /1703 10041 20032 39679 40238 5////;
0103067050999992011011205004+46400+006233FM-12+043099999V0202701N001019999999N9999999N1+00471+00291102421ADDMA1999999096841REMSYN076AAXX  12054 06705 33/// /2702 10047 20029 39684 40242 5//// 333 553// 20000;
0159067050999992011011206004+46400+006233FM-12+043099999V0202201N001019999999N9999999N1+00411+00271102481ADDAA124006191GJ100309IA2999+00209KA1999N+00331MA1999999096881REMSYN088AAXX  12064 06705 43/// /2202 10041 20027 39688 40248 5//// 333 20033 3/002 55005 70061;
0140067050999992011011207004+46400+006233FM-12+043099999V0203101N001519999999N9999999N1+00241+00161102551ADDMA1999999096921MD1310131+9999OA149900361REMSYN088AAXX  12074 06705 33/// /3103 10024 20016 39692 40255 53013 333 55300 20000 91107 91204;
0087067050999992011011208004+46400+006233FM-12+043099999V0202701N001019999999N9999999N1+00351+00231102541ADDMA1999999096931REMSYN060AAXX  12084 06705 43/// /2702 10035 20023 39693 40254 5////;
0087067050999992011011209004+46400+006233FM-12+043099999V0202501N002119999999N9999999N1+00451+00261102551ADDMA1999999096961REMSYN060AAXX  12094 06705 43/// /2504 10045 20026 39696 40255 5////;
0140067050999992011011210004+46400+006233FM-12+043099999V0202301N001519999999N9999999N1+00471+00261102561ADDMA1999999096971MD1219999+9999OA149900361REMSYN088AAXX  12104 06705 33/// /2303 10047 20026 39697 40256 52/// 333 55300 20284 91107 91204;
0117067050999992011011211004+46400+006233FM-12+043099999V0202301N002119999999N9999999N1+00571+00311102531ADDMA1999999096961MD1010031+9999REMSYN076AAXX  12114 06705 33/// /2304 10057 20031 39696 40253 50003 333 55300 20648;
0087067050999992011011212004+46400+006233FM-12+043099999V0202301N001519999999N9999999N1+00601+00311102491ADDMA1999999096931REMSYN060AAXX  12124 06705 43/// /2303 10060 20031 39693 40249 5////;
0087067050999992011011213004+46400+006233FM-12+043099999V0202301N002119999999N9999999N1+00661+00321102431ADDMA1999999096891REMSYN060AAXX  12134 06705 43/// /2304 10066 20032 39689 40243 5////;
0087067050999992011011214004+46400+006233FM-12+043099999V0202001N002119999999N9999999N1+00631+00301102481ADDMA1999999096931REMSYN060AAXX  12144 06705 43/// /2004 10063 20030 39693 40248 5////;
0087067050999992011011215004+46400+006233FM-12+043099999V0202501N003619999999N9999999N1+00621+00271102521ADDMA1999999096961REMSYN060AAXX  12154 06705 43/// /2507 10062 20027 39696 40252 5////;
0140067050999992011011216004+46400+006233FM-12+043099999V0202401N002619999999N9999999N1+00601+00231102541ADDMA1999999096981MD1110091+9999OA149900571REMSYN088AAXX  12164 06705 33/// /2405 10060 20023 39698 40254 51009 333 55300 20058 91111 91208;
0140067050999992011011217004+46400+006233FM-12+043099999V0202401N002119999999N9999999N1+00581+00291102571ADDMA1999999097001MD1110071+9999OA149900511REMSYN088AAXX  12174 06705 33/// /2404 10058 20029 39700 40257 51007 333 55300 20000 91110 91206;
0201067050999992011011218004+46400+006233FM-12+043099999V0202301N002119999999N9999999N1+00611+00211102571ADDAA112000091KA1120M+00671MA1999999097011MD1210051+9999OA149900571REMSYN106AAXX  12184 06705 03/// /2304 10061 20021 39701 40257 52005 69912 333 10067 55300 20000 60005 91111 91208;EQDQ01  00002PRCP12
0140067050999992011011219004+46400+006233FM-12+043099999V0202201N002619999999N9999999N1+00621+00221102601ADDMA1999999097041MD1210061+9999OA149900361REMSYN088AAXX  12194 06705 33/// /2205 10062 20022 39704 40260 52006 333 55300 20000 91107 91205;
0140067050999992011011220004+46400+006233FM-12+043099999V0202301N002619999999N9999999N1+00611+00211102591ADDMA1999999097031MD1210031+9999OA149900411REMSYN088AAXX  12204 06705 33/// /2305 10061 20021 39703 40259 52003 333 55300 20000 91108 91205;
0146067050999992011011221004+46400+006233FM-12+043099999V0202201N003619999999N9999999N1+00631+00281102581ADDMA1999999097021MD1710011+9999OA149900671REMSYN094AAXX  12214 06705 23/// /2207 10063 20028 39702 40258 57001 333 55300 20000 69915 91113 91210;
0140067050999992011011222004+46400+006233FM-12+043099999V0202401N003119999999N9999999N1+00621+00321102591ADDMA1999999097031MD1010011+9999OA149900671REMSYN088AAXX  12224 06705 33/// /2406 10062 20032 39703 40259 50001 333 55300 20000 91113 91210;
0140067050999992011011223004+46400+006233FM-12+043099999V0202401N003619999999N9999999N1+00631+00401102601ADDMA1999999097041MD1210011+9999OA149900571REMSYN088AAXX  12234 06705 33/// /2407 10063 20040 39704 40260 52001 333 55300 20000 91111 91208;
0182067050999992011011300004+46400+006233FM-12+043099999V0202501N003619999999N9999999N1+00641+00441102591ADDAA106000091MA1999999097031MD1010011+9999OA149900671REMSYN100AAXX  13004 06705 03/// /2507 10064 20044 39703 40259 50001 69911 333 55300 20000 60005 91113 91210;EQDQ01  00002PRCP06
0146067050999992011011301004+46400+006233FM-12+043099999V0202401N004619999999N9999999N1+00631+00451102561ADDMA1999999097001MD1810031+9999OA149900721REMSYN094AAXX  13014 06705 23/// /2409 10063 20045 39700 40256 58003 333 55300 20000 69915 91114 91209;
0140067050999992011011302004+46400+006233FM-12+043099999V0202501N002619999999N9999999N1+00611+00461102571ADDMA1999999097011MD1719999+9999OA149900721REMSYN088AAXX  13024 06705 33/// /2505 10061 20046 39701 40257 57/// 333 55300 20000 91114 91209;
0087067050999992011011303004+46400+006233FM-12+043099999V0202501N003119999999N9999999N1+00651+00481102551ADDMA1999999097001REMSYN060AAXX  13034 06705 43/// /2506 10065 20048 39700 40255 5////;
0146067050999992011011304004+46400+006233FM-12+043099999V0202601N002119999999N9999999N1+00661+00501102531ADDMA1999999096981MD1719999+9999OA149900621REMSYN094AAXX  13044 06705 23/// /2604 10066 20050 39698 40253 57/// 333 55300 20000 69925 91112 91209;
0109067050999992011011305004+46400+006233FM-12+043099999V0202101N001519999999N9999999N1+00691+00531102501ADDMA1999999096961REMSYN082AAXX  13054 06705 23/// /2103 10069 20053 39696 40250 5//// 333 553// 20000 69925;
0230067050999992011011306004+46400+006233FM-12+043099999V0202701N000519999999N9999999N1+00631+00531102521ADDAA112000591AL14200091GJ100069IA2999+00509KA1999N+00581MA1999999096971MD1710031+9999OA149900721REMSYN124AAXX  13064 06705 03/// /2701 10063 20053 39697 40252 57003 69962 333 20058 3/005 55001 55300 20000 60005 70007 91114 91210;
0087067050999992011011307004+46400+006233FM-12+043099999V0203201N001519999999N9999999N1+00621+00531102561ADDMA1999999097001REMSYN060AAXX  13074 06705 43/// /3203 10062 20053 39700 40256 5////;
0087067050999992011011308004+46400+006233FM-12+043099999V0202401N002119999999N9999999N1+00691+00551102551ADDMA1999999097011REMSYN060AAXX  13084 06705 43/// /2404 10069 20055 39701 40255 5////;
0087067050999992011011309004+46400+006233FM-12+043099999V0202901N001019999999N9999999N1+00811+00591102531ADDMA1999999097011REMSYN060AAXX  13094 06705 43/// /2902 10081 20059 39701 40253 5////;
0087067050999992011011310004+46400+006233FM-12+043099999V0202101N002119999999N9999999N1+00901+00671102531ADDMA1999999097031REMSYN060AAXX  13104 06705 43/// /2104 10090 20067 39703 40253 5////;
0087067050999992011011311004+46400+006233FM-12+043099999V0202201N003119999999N9999999N1+00931+00711102491ADDMA1999999097001REMSYN060AAXX  13114 06705 43/// /2206 10093 20071 39700 40249 5////;
0087067050999992011011312004+46400+006233FM-12+043099999V0202301N003619999999N9999999N1+01091+00771102401ADDMA1999999096941REMSYN060AAXX  13124 06705 43/// /2307 10109 20077 39694 40240 5////;
0087067050999992011011313004+46400+006233FM-12+043099999V0202101N004619999999N9999999N1+01151+00791102311ADDMA1999999096871REMSYN060AAXX  13134 06705 43/// /2109 10115 20079 39687 40231 5////;
0087067050999992011011314004+46400+006233FM-12+043099999V0202301N004619999999N9999999N1+01171+00721102311ADDMA1999999096871REMSYN060AAXX  13144 06705 43/// /2309 10117 20072 39687 40231 5////;
0087067050999992011011315004+46400+006233FM-12+043099999V0202301N003119999999N9999999N1+01161+00741102311ADDMA1999999096871REMSYN060AAXX  13154 06705 43/// /2306 10116 20074 39687 40231 5////;
0087067050999992011011316004+46400+006233FM-12+043099999V0202501N002619999999N9999999N1+01091+00751102331ADDMA1999999096881REMSYN060AAXX  13164 06705 43/// /2505 10109 20075 39688 40233 5////;
0140067050999992011011317004+46400+006233FM-12+043099999V0202101N001519999999N9999999N1+01021+00761102341ADDMA1999999096871MD1010001+9999OA149900461REMSYN088AAXX  13174 06705 33/// /2103 10102 20076 39687 40234 50000 333 55300 20004 91109 91206;
0159067050999992011011318004+46400+006233FM-12+043099999V0202901N000519999999N9999999N1+00991+00731102341ADDKA1120M+01201MA1999999096871MD1010001+9999OA149900721REMSYN094AAXX  13184 06705 33/// /2901 10099 20073 39687 40234 50000 333 10120 55300 20000 91114 91209;
0140067050999992011011319004+46400+006233FM-12+043099999V0202801N001519999999N9999999N1+00981+00691102341ADDMA1999999096861MD1710021+9999OA149900261REMSYN088AAXX  13194 06705 33/// /2803 10098 20069 39686 40234 57002 333 55300 20000 91105 91203;
0159067050999992011011320004+46400+006233FM-12+043099999V0202901N001519999999N9999999N1+00911+00621102361ADDMA1999999096871MD1710021+9999OA149900361REMSYN088AAXX  13204 06705 33/// /2903 10091 20062 39687 40236 57000 333 55300 20000 91107 91204;EQDQ01+000002APC3  
0140067050999992011011321004+46400+006233FM-12+043099999V0202901N001019999999N9999999N1+00861+00641102341ADDMA1999999096841MD1710031+9999OA149900461REMSYN088AAXX  13214 06705 33/// /2902 10086 20064 39684 40234 57003 333 55300 20000 91109 91206;
0140067050999992011011322004+46400+006233FM-12+043099999V0202601N001519999999N9999999N1+00931+00681102311ADDMA1999999096831MD1710031+9999OA149900261REMSYN088AAXX  13224 06705 33/// /2603 10093 20068 39683 40231 57003 333 55300 20000 91105 91203;
0140067050999992011011323004+46400+006233FM-12+043099999V0202801N001519999999N9999999N1+00901+00681102321ADDMA1999999096831MD1710041+9999OA149900361REMSYN088AAXX  13234 06705 33/// /2803 10090 20068 39683 40232 57004 333 55300 20000 91107 91204;
0140067050999992011011400004+46400+006233FM-12+043099999V0202901N001019999999N9999999N1+00841+00671102321ADDMA1999999096821MD1710021+9999OA149900721REMSYN088AAXX  14004 06705 33/// /2902 10084 20067 39682 40232 57002 333 55300 20000 91114 91209;
0140067050999992011011401004+46400+006233FM-12+043099999V0201901N000519999999N9999999N1+00901+00661102301ADDMA1999999096811MD1710021+9999OA149900311REMSYN088AAXX  14014 06705 33/// /1901 10090 20066 39681 40230 57002 333 55300 20000 91106 91203;
0103067050999992011011402004+46400+006233FM-12+043099999V0202701N000519999999N9999999N1+00831+00651102371ADDMA1999999096861REMSYN076AAXX  14024 06705 33/// /2701 10083 20065 39686 40237 5//// 333 553// 20000;
0140067050999992011011403004+46400+006233FM-12+043099999V0209999C000019999999N9999999N1+00831+00631102351ADDMA1999999096841MD1210021+9999OA149900361REMSYN088AAXX  14034 06705 33/// /0000 10083 20063 39684 40235 52002 333 55300 20000 91107 91204;
0140067050999992011011404004+46400+006233FM-12+043099999V0200301N000519999999N9999999N1+00721+00631102351ADDMA1999999096821MD1010011+9999OA149900151REMSYN088AAXX  14044 06705 33/// /0301 10072 20063 39682 40235 50001 333 55300 20000 91103 91202;
0140067050999992011011405004+46400+006233FM-12+043099999V0200101N000519999999N9999999N1+00741+00641102331ADDMA1999999096811MD1710051+9999OA149900151REMSYN088AAXX  14054 06705 33/// /0101 10074 20064 39681 40233 57005 333 55300 20000 91103 91202;
0207067050999992011011406004+46400+006233FM-12+043099999V0201101N001019999999N9999999N1+00731+00601102361ADDAL19900091GJ100069IA2999+00609KA1999N+00721MA1999999096831MD1510011+9999OA149900361REMSYN112AAXX  14064 06705 33/// /1102 10073 20060 39683 40236 55001 333 20072 3/006 55001 55300 20000 70000 91107 91204;
0140067050999992011011407004+46400+006233FM-12+043099999V0200401N001519999999N9999999N1+00721+00581102361ADDMA1999999096831MD1210011+9999OA149900151REMSYN088AAXX  14074 06705 33/// /0403 10072 20058 39683 40236 52001 333 55300 20000 91103 91203;
0087067050999992011011408004+46400+006233FM-12+043099999V0200101N001019999999N9999999N1+00741+00591102351ADDMA1999999096831REMSYN060AAXX  14084 06705 43/// /0102 10074 20059 39683 40235 5////;
0087067050999992011011409004+46400+006233FM-12+043099999V0200201N000519999999N9999999N1+00821+00581102321ADDMA1999999096811REMSYN060AAXX  14094 06705 43/// /0201 10082 20058 39681 40232 5////;
0087067050999992011011410004+46400+006233FM-12+043099999V0209999C000019999999N9999999N1+00881+00571102271ADDMA1999999096781REMSYN060AAXX  14104 06705 43/// /0000 10088 20057 39678 40227 5////;
0140067050999992011011411004+46400+006233FM-12+043099999V0201901N000519999999N9999999N1+00931+00611102241ADDMA1999999096761MD1710071+9999OA149900151REMSYN088AAXX  14114 06705 33/// /1901 10093 20061 39676 40224 57007 333 55305 20904 91103 91202;
0140067050999992011011412004+46400+006233FM-12+043099999V0201601N001019999999N9999999N1+00961+00561102201ADDMA1999999096731MD1710081+9999OA149900261REMSYN088AAXX  14124 06705 33/// /1602 10096 20056 39673 40220 57008 333 553// 2//// 91105 91203;
0140067050999992011011413004+46400+006233FM-12+043099999V0201601N001019999999N9999999N1+01061+00531102131ADDMA1999999096681MD1810101+9999OA149900261REMSYN088AAXX  14134 06705 33/// /1602 10106 20053 39668 40213 58010 333 553// 2//// 91105 91203;
0103067050999992011011414004+46400+006233FM-12+043099999V0201801N001019999999N9999999N1+01081+00541102091ADDMA1999999096651REMSYN076AAXX  14144 06705 33/// /1802 10108 20054 39665 40209 5//// 333 553// 20814;
0140067050999992011011415004+46400+006233FM-12+043099999V0201801N001019999999N9999999N1+01061+00631102101ADDMA1999999096651MD1710081+9999OA149900261REMSYN088AAXX  14154 06705 33/// /1802 10106 20063 39665 40210 57008 333 55308 20580 91105 91203;
0140067050999992011011416004+46400+006233FM-12+043099999V0202201N000519999999N9999999N1+00951+00511102111ADDMA1999999096641MD1710041+9999OA149900211REMSYN088AAXX  14164 06705 33/// /2201 10095 20051 39664 40211 57004 333 55302 20194 91104 91203;
0140067050999992011011417004+46400+006233FM-12+043099999V0203101N001519999999N9999999N1+00711+00501102151ADDMA1999999096631MD1710021+9999OA149900211REMSYN088AAXX  14174 06705 33/// /3103 10071 20050 39663 40215 57002 333 55300 20004 91104 91203;
0159067050999992011011418004+46400+006233FM-12+043099999V0203001N001019999999N9999999N1+00651+00441102161ADDKA1120M+01091MA1999999096631MD1710021+9999OA149900261REMSYN094AAXX  14184 06705 33/// /3002 10065 20044 39663 40216 57002 333 10109 55300 20000 91105 91203;
0140067050999992011011419004+46400+006233FM-12+043099999V0203001N001519999999N9999999N1+00601+00411102211ADDMA1999999096671MD1310031+9999OA149900261REMSYN088AAXX  14194 06705 33/// /3003 10060 20041 39667 40221 53003 333 55300 20000 91105 91203;
0140067050999992011011420004+46400+006233FM-12+043099999V0202901N001019999999N9999999N1+00631+00451102261ADDMA1999999096721MD1210091+9999OA149900361REMSYN088AAXX  14204 06705 33/// /2902 10063 20045 39672 40226 52009 333 55300 20000 91107 91204;
0140067050999992011011421004+46400+006233FM-12+043099999V0202201N004119999999N9999999N1+00821+00451102311ADDMA1999999096801MD1210171+9999OA149900721REMSYN088AAXX  14214 06705 33/// /2208 10082 20045 39680 40231 52017 333 55300 20000 91114 91210;
0140067050999992011011422004+46400+006233FM-12+043099999V0202201N006219999999N9999999N1+00951+00401102351ADDMA1999999096871MD1210201+9999OA149901341REMSYN088AAXX  14224 06705 33/// /2212 10095 20040 39687 40235 52020 333 55300 20000 91126 91212;
0140067050999992011011423004+46400+006233FM-12+043099999V0201901N004119999999N9999999N1+00881+00441102491ADDMA1999999096991MD1310271+9999OA149901341REMSYN088AAXX  14234 06705 33/// /1908 10088 20044 39699 40249 53027 333 55300 20000 91126 91212;
0140067050999992011011500004+46400+006233FM-12+043099999V0202201N002619999999N9999999N1+00921+00441102531ADDMA1999999097031MD1110231+9999OA149901341REMSYN088AAXX  15004 06705 33/// /2205 10092 20044 39703 40253 51023 333 55300 20000 91126 91212;
0140067050999992011011501004+46400+006233FM-12+043099999V0202301N003619999999N9999999N1+00961+00451102561ADDMA1999999097071MD1110201+9999OA149900721REMSYN088AAXX  15014 06705 33/// /2307 10096 20045 39707 40256 51020 333 55300 20000 91114 91209;
0140067050999992011011502004+46400+006233FM-12+043099999V0202401N004119999999N9999999N1+00941+00481102611ADDMA1999999097111MD1319999+9999OA149900721REMSYN088AAXX  15024 06705 33/// /2408 10094 20048 39711 40261 53/// 333 55300 20000 91114 91209;
0103067050999992011011503004+46400+006233FM-12+043099999V0202201N003119999999N9999999N1+00851+00541102701ADDMA1999999097181REMSYN076AAXX  15034 06705 33/// /2206 10085 20054 39718 40270 5//// 333 553// 20000;
0140067050999992011011504004+46400+006233FM-12+043099999V0202501N002119999999N9999999N1+00841+00491102771ADDMA1999999097241MD1310171+9999OA149900771REMSYN088AAXX  15044 06705 33/// /2504 10084 20049 39724 40277 53017 333 55300 20000 91115 91210;
0140067050999992011011505004+46400+006233FM-12+043099999V0202301N000519999999N9999999N1+00721+00351102811ADDMA1999999097261MD1110151+9999OA149900511REMSYN088AAXX  15054 06705 33/// /2301 10072 20035 39726 40281 51015 333 55300 20000 91110 91206;
0207067050999992011011506004+46400+006233FM-12+043099999V0200301N000519999999N9999999N1+00611+00331102901ADDAL19900091GJ102649IA2999+00309KA1999N+00511MA1999999097321MD1310141+9999OA149901341REMSYN112AAXX  15064 06705 33/// /0301 10061 20033 39732 40290 53014 333 20051 3/003 55044 55300 20000 70000 91126 91212;
0140067050999992011011507004+46400+006233FM-12+043099999V0202901N001519999999N9999999N1+00451+00181102931ADDMA1999999097321MD1210081+9999OA149900261REMSYN088AAXX  15074 06705 33/// /2903 10045 20018 39732 40293 52008 333 55300 20000 91105 91203;
0140067050999992011011508004+46400+006233FM-12+043099999V0203301N002619999999N9999999N1+00441+00141102941ADDMA1999999097321MD1019999+9999OA149900261REMSYN088AAXX  15084 06705 33/// /3305 10044 20014 39732 40294 50/// 333 55304 20086 91105 91205;
0140067050999992011011509004+46400+006233FM-12+043099999V0201301N001019999999N9999999N1+00761+00321102911ADDMA1999999097361MD1310041+9999OA149900511REMSYN088AAXX  15094 06705 33/// /1302 10076 20032 39736 40291 53004 333 553// 20493 91110 91206;
0140067050999992011011510004+46400+006233FM-12+043099999V0201301N001019999999N9999999N1+00801+00471102931ADDMA1999999097391MD1210071+9999OA149900311REMSYN088AAXX  15104 06705 33/// /1302 10080 20047 39739 40293 52007 333 553// 20904 91106 91204;
0140067050999992011011511004+46400+006233FM-12+043099999V0200501N000519999999N9999999N1+00861+00511102881ADDMA1999999097351MD1010031+9999OA149900311REMSYN088AAXX  15114 06705 33/// /0501 10086 20051 39735 40288 50003 333 553// 2//// 91106 91204;
0140067050999992011011512004+46400+006233FM-12+043099999V0203401N000519999999N9999999N1+00951+00481102811ADDMA1999999097301MD1710061+9999OA149900771REMSYN088AAXX  15124 06705 33/// /3401 10095 20048 39730 40281 57006 333 553// 2//// 91115 91210;
0103067050999992011011513004+46400+006233FM-12+043099999V0200601N000519999999N9999999N1+01021+00461102731ADDMA1999999097241REMSYN076AAXX  15134 06705 33/// /0601 10102 20046 39724 40273 5//// 333 553// 2////;
0087067050999992011011514004+46400+006233FM-12+043099999V0201501N001019999999N9999999N1+01081+00341102751ADDMA1999999097271REMSYN060AAXX  15144 06705 43/// /1502 10108 20034 39727 40275 5////;
0087067050999992011011515004+46400+006233FM-12+043099999V0201301N001019999999N9999999N1+00991+00421102811ADDMA1999999097311REMSYN060AAXX  15154 06705 43/// /1302 10099 20042 39731 40281 5////;
0087067050999992011011516004+46400+006233FM-12+043099999V0200601N001019999999N9999999N1+00921+00431102871ADDMA1999999097351REMSYN060AAXX  15164 06705 43/// /0602 10092 20043 39735 40287 5////;
0103067050999992011011517004+46400+006233FM-12+043099999V0203301N001019999999N9999999N1+00711+00421102931ADDMA1999999097371REMSYN076AAXX  15174 06705 33/// /3302 10071 20042 39737 40293 5//// 333 553// 20007;
0110067050999992011011518004+46400+006233FM-12+043099999V0203401N002619999999N9999999N1+00531+00261102971ADDKA1999M+01081MA1999999097371REMSYN070AAXX  15184 06705 43/// /3405 10053 20026 39737 40297 5//// 333 10108;
0087067050999992011011519004+46400+006233FM-12+043099999V0203401N002619999999N9999999N1+00521+00251102981ADDMA1999999097381REMSYN060AAXX  15194 06705 43/// /3405 10052 20025 39738 40298 5////;
0087067050999992011011520004+46400+006233FM-12+043099999V0200301N001519999999N9999999N1+00481+00251103041ADDMA1999999097431REMSYN060AAXX  15204 06705 43/// /0303 10048 20025 39743 40304 5////;
0140067050999992011011521004+46400+006233FM-12+043099999V0203401N002119999999N9999999N1+00331+00081103061ADDMA1999999097421MD1210051+9999OA149900361REMSYN088AAXX  15214 06705 33/// /3404 10033 20008 39742 40306 52005 333 55300 20000 91107 91206;
0140067050999992011011522004+46400+006233FM-12+043099999V0203401N002119999999N9999999N1+00331+00111103041ADDMA1999999097401MD1010021+9999OA149900311REMSYN088AAXX  15224 06705 33/// /3404 10033 20011 39740 40304 50002 333 55300 20000 91106 91205;
0140067050999992011011523004+46400+006233FM-12+043099999V0203501N002619999999N9999999N1+00281+00091103031ADDMA1999999097381MD1710051+9999OA149900311REMSYN088AAXX  15234 06705 33/// /3505 10028 20009 39738 40303 57005 333 55300 20000 91106 91205;
0140067050999992011011600004+46400+006233FM-12+043099999V0203301N001019999999N9999999N1+00311+00071102981ADDMA1999999097341MD1710081+9999OA149900411REMSYN088AAXX  16004 06705 33/// /3302 10031 20007 39734 40298 57008 333 55300 20000 91108 91206;
0140067050999992011011601004+46400+006233FM-12+043099999V0203201N001519999999N9999999N1+00231+00071102981ADDMA1999999097321MD1710081+9999OA149900261REMSYN088AAXX  16014 06705 33/// /3203 10023 20007 39732 40298 57008 333 55300 20000 91105 91205;
0140067050999992011011602004+46400+006233FM-12+043099999V0202801N001019999999N9999999N1+00251+00081102991ADDMA1999999097331MD1719999+9999OA149900151REMSYN088AAXX  16024 06705 33/// /2802 10025 20008 39733 40299 57/// 333 55300 20000 91103 91203;
0087067050999992011011603004+46400+006233FM-12+043099999V0203201N001519999999N9999999N1+00151-00021103001ADDMA1999999097321REMSYN060AAXX  16034 06705 43/// /3203 10015 21002 39732 40300 5////;
0140067050999992011011604004+46400+006233FM-12+043099999V0202401N000519999999N9999999N1+00101-00031103041ADDMA1999999097351MD1210031+9999OA149900211REMSYN088AAXX  16044 06705 33/// /2401 10010 21003 39735 40304 52003 333 55300 20000 91104 91203;
0140067050999992011011605004+46400+006233FM-12+043099999V0202401N001019999999N9999999N1+00221+00071103021ADDMA1999999097361MD1210031+9999OA149900151REMSYN088AAXX  16054 06705 33/// /2402 10022 20007 39736 40302 52003 333 55300 20000 91103 91202;
0207067050999992011011606004+46400+006233FM-12+043099999V0203401N001519999999N9999999N1+00091-00101103081ADDAL19900091GJ104929IA2999-00209KA1999N+00071MA1999999097391MD1310071+9999OA149900361REMSYN112AAXX  16064 06705 33/// /3403 10009 21010 39739 40308 53007 333 20007 3/102 55082 55300 20000 70000 91107 91206;
0140067050999992011011607004+46400+006233FM-12+043099999V0200601N001519999999N9999999N1+00171-00091103081ADDMA1999999097401MD1110051+9999OA149900211REMSYN088AAXX  16074 06705 33/// /0603 10017 21009 39740 40308 51005 333 55300 20000 91104 91203;
0140067050999992011011608004+46400+006233FM-12+043099999V0203601N001519999999N9999999N1+00011-00171103131ADDMA1999999097421MD1119999+9999OA149900211REMSYN088AAXX  16084 06705 33/// /3603 10001 21017 39742 40313 51/// 333 55304 20079 91104 91203;
0140067050999992011011609004+46400+006233FM-12+043099999V0200101N000519999999N9999999N1+00271+00091103081ADDMA1999999097421MD1210031+9999OA149900211REMSYN088AAXX  16094 06705 33/// /0101 10027 20009 39742 40308 52003 333 553// 20508 91104 91203;
0140067050999992011011610004+46400+006233FM-12+043099999V0202101N000519999999N9999999N1+00491+00191103041ADDMA1999999097431MD1210031+9999OA149900211REMSYN088AAXX  16104 06705 33/// /2101 10049 20019 39743 40304 52003 333 553// 20947 91104 91203;
0140067050999992011011611004+46400+006233FM-12+043099999V0201901N000519999999N9999999N1+00621+00251102991ADDMA1999999097411MD1810011+9999OA149900151REMSYN088AAXX  16114 06705 33/// /1901 10062 20025 39741 40299 58001 333 553// 2//// 91103 91202;
0140067050999992011011612004+46400+006233FM-12+043099999V0201201N001519999999N9999999N1+00701+00271102921ADDMA1999999097361MD1810061+9999OA149900211REMSYN088AAXX  16124 06705 33/// /1203 10070 20027 39736 40292 58006 333 553// 2//// 91104 91203;
0140067050999992011011613004+46400+006233FM-12+043099999V0201901N001519999999N9999999N1+00791+00311102841ADDMA1999999097301MD1810131+9999OA149900211REMSYN088AAXX  16134 06705 33/// /1903 10079 20031 39730 40284 58013 333 553// 2//// 91104 91203;
0140067050999992011011614004+46400+006233FM-12+043099999V0201801N000519999999N9999999N1+00811+00271102791ADDMA1999999097261MD1619999+9999OA149900261REMSYN088AAXX  16144 06705 33/// /1801 10081 20027 39726 40279 56/// 333 553// 2//// 91105 91203;
0140067050999992011011615004+46400+006233FM-12+043099999V0201201N000519999999N9999999N1+00811+00341102791ADDMA1999999097261MD1710101+9999OA149900261REMSYN088AAXX  16154 06705 33/// /1201 10081 20034 39726 40279 57010 333 553// 20731 91105 91203;
0140067050999992011011616004+46400+006233FM-12+043099999V0200601N001519999999N9999999N1+00641+00171102831ADDMA1999999097261MD1710041+9999OA149900151REMSYN088AAXX  16164 06705 33/// /0603 10064 20017 39726 40283 57004 333 55309 20263 91103 91203;
0140067050999992011011617004+46400+006233FM-12+043099999V0203501N001519999999N9999999N1+00481+00171102891ADDMA1999999097291MD1310031+9999OA149900261REMSYN088AAXX  16174 06705 33/// /3503 10048 20017 39729 40289 53003 333 55300 20007 91105 91203;
0159067050999992011011618004+46400+006233FM-12+043099999V0203301N001519999999N9999999N1+00311+00091102941ADDKA1120M+00871MA1999999097301MD1210041+9999OA149900261REMSYN094AAXX  16184 06705 33/// /3303 10031 20009 39730 40294 52004 333 10087 55300 20000 91105 91203;
0140067050999992011011619004+46400+006233FM-12+043099999V0203401N001019999999N9999999N1+00261+00051102981ADDMA1999999097331MD1210071+9999OA149900211REMSYN088AAXX  16194 06705 33/// /3402 10026 20005 39733 40298 52007 333 55300 20000 91104 91203;
0140067050999992011011620004+46400+006233FM-12+043099999V0203601N001519999999N9999999N1+00161-00091103021ADDMA1999999097341MD1110051+9999OA149900211REMSYN088AAXX  16204 06705 33/// /3603 10016 21009 39734 40302 51005 333 55300 20000 91104 91203;
0140067050999992011011621004+46400+006233FM-12+043099999V0203401N001519999999N9999999N1+00191-00051103011ADDMA1999999097341MD1210041+9999OA149900261REMSYN088AAXX  16214 06705 33/// /3403 10019 21005 39734 40301 52004 333 55300 20000 91105 91204;
0140067050999992011011622004+46400+006233FM-12+043099999V0203401N001519999999N9999999N1+00201-00031103011ADDMA1999999097341MD1010011+9999OA149900211REMSYN088AAXX  16224 06705 33/// /3403 10020 21003 39734 40301 50001 333 55300 20000 91104 91204;
0140067050999992011011623004+46400+006233FM-12+043099999V0203101N001019999999N9999999N1+00111-00081103041ADDMA1999999097351MD1310011+9999OA149900211REMSYN088AAXX  16234 06705 33/// /3102 10011 21008 39735 40304 53001 333 55300 20000 91104 91204;
0140067050999992011011700004+46400+006233FM-12+043099999V0203101N001019999999N9999999N1+00091-00081103041ADDMA1999999097351MD1210011+9999OA149900261REMSYN088AAXX  17004 06705 33/// /3102 10009 21008 39735 40304 52001 333 55300 20000 91105 91204;
0140067050999992011011701004+46400+006233FM-12+043099999V0203101N001019999999N9999999N1+00091-00061103011ADDMA1999999097321MD1810021+9999OA149900211REMSYN088AAXX  17014 06705 33/// /3102 10009 21006 39732 40301 58002 333 55300 20000 91104 91203;
0140067050999992011011702004+46400+006233FM-12+043099999V0202601N001519999999N9999999N1+00081-00051103021ADDMA1999999097331MD1719999+9999OA149900211REMSYN088AAXX  17024 06705 33/// /2603 10008 21005 39733 40302 57/// 333 55300 20000 91104 91203;
0103067050999992011011703004+46400+006233FM-12+043099999V0203301N000519999999N9999999N1+00071-00081103021ADDMA1999999097321REMSYN076AAXX  17034 06705 33/// /3301 10007 21008 39732 40302 5//// 333 553// 20000;
0159067050999992011011704004+46400+006233FM-12+043099999V0200201N000519999999N9999999N1+00051-00111103021ADDMA1999999097321MD1710011+9999OA149900211REMSYN088AAXX  17044 06705 33/// /0201 10005 21011 39732 40302 57000 333 55300 20000 91104 91203;EQDQ01+000002APC3  
0140067050999992011011705004+46400+006233FM-12+043099999V0202301N000519999999N9999999N1+00001-00131103021ADDMA1999999097311MD1710021+9999OA149900151REMSYN088AAXX  17054 06705 33/// /2301 10000 21013 39731 40302 57002 333 55300 20000 91103 91202;
0207067050999992011011706004+46400+006233FM-12+043099999V0209999C000019999999N9999999N1+00001-00151102991ADDAL19900091GJ104989IA2999-00309KA1999N-00031MA1999999097281MD1710041+9999OA149900211REMSYN112AAXX  17064 06705 33/// /0000 10000 21015 39728 40299 57004 333 21003 3/103 55083 55300 20000 70000 91104 91204;
0140067050999992011011707004+46400+006233FM-12+043099999V0203101N001019999999N9999999N1+00031-00121102991ADDMA1999999097291MD1710031+9999OA149900211REMSYN088AAXX  17074 06705 33/// /3102 10003 21012 39729 40299 57003 333 55300 20000 91104 91202;
0087067050999992011011708004+46400+006233FM-12+043099999V0203301N001019999999N9999999N1+00101-00101102991ADDMA1999999097301REMSYN060AAXX  17084 06705 43/// /3302 10010 21010 39730 40299 5////;
0087067050999992011011709004+46400+006233FM-12+043099999V0203401N001019999999N9999999N1+00291+00071102951ADDMA1999999097301REMSYN060AAXX  17094 06705 43/// /3402 10029 20007 39730 40295 5////;
0140067050999992011011710004+46400+006233FM-12+043099999V0200601N000519999999N9999999N1+00371+00171102981ADDMA1999999097351MD1210061+9999OA149900151REMSYN088AAXX  17104 06705 33/// /0601 10037 20017 39735 40298 52006 333 55300 20619 91103 91202;
0140067050999992011011711004+46400+006233FM-12+043099999V0209999C000019999999N9999999N1+00501+00291102951ADDMA1999999097351MD1210051+9999OA149900151REMSYN088AAXX  17114 06705 33/// /0000 10050 20029 39735 40295 52005 333 55307 20986 91103 91202;
0140067050999992011011712004+46400+006233FM-12+043099999V0202201N001519999999N9999999N1+00761+00401102841ADDMA1999999097291MD1810011+9999OA149900311REMSYN088AAXX  17124 06705 33/// /2203 10076 20040 39729 40284 58001 333 553// 2//// 91106 91203;
0140067050999992011011713004+46400+006233FM-12+043099999V0201901N002119999999N9999999N1+00861+00401102761ADDMA1999999097241MD1810111+9999OA149900411REMSYN088AAXX  17134 06705 33/// /1904 10086 20040 39724 40276 58011 333 553// 2//// 91108 91205;
0087067050999992011011714004+46400+006233FM-12+043099999V0201901N001519999999N9999999N1+00881+00431102761ADDMA1999999097241REMSYN060AAXX  17144 06705 43/// /1903 10088 20043 39724 40276 5////;
0087067050999992011011715004+46400+006233FM-12+043099999V0200801N001019999999N9999999N1+00681+00441102821ADDMA1999999097261REMSYN060AAXX  17154 06705 43/// /0802 10068 20044 39726 40282 5////;
0140067050999992011011716004+46400+006233FM-12+043099999V0200601N001519999999N9999999N1+00471+00361102871ADDMA1999999097261MD1210021+9999OA149900211REMSYN088AAXX  17164 06705 33/// /0603 10047 20036 39726 40287 52002 333 55304 20194 91104 91203;
0140067050999992011011717004+46400+006233FM-12+043099999V0200501N001519999999N9999999N1+00271+00271102931ADDMA1999999097281MD1210041+9999OA149900261REMSYN088AAXX  17174 06705 33/// /0503 10027 20027 39728 40293 52004 333 55300 20018 91105 91203;
0159067050999992011011718004+46400+006233FM-12+043099999V0200501N001519999999N9999999N1+00311+00231102941ADDKA1120M+00891MA1999999097301MD1210041+9999OA149900411REMSYN094AAXX  17184 06705 33/// /0503 10031 20023 39730 40294 52004 333 10089 55300 20000 91108 91206;
0140067050999992011011719004+46400+006233FM-12+043099999V0209999C001519999999N9999999N1+00341+00211102971ADDMA1999999097331MD1210071+9999OA149900261REMSYN088AAXX  17194 06705 33/// /0003 10034 20021 39733 40297 52007 333 55300 20000 91105 91204;
0140067050999992011011720004+46400+006233FM-12+043099999V0203401N001519999999N9999999N1+00311+00161102971ADDMA1999999097331MD1010051+9999OA149900211REMSYN088AAXX  17204 06705 33/// /3403 10031 20016 39733 40297 50005 333 55300 20000 91104 91203;
0140067050999992011011721004+46400+006233FM-12+043099999V0200501N000519999999N9999999N1+00291+00141102971ADDMA1999999097321MD1010021+9999OA149900261REMSYN088AAXX  17214 06705 33/// /0501 10029 20014 39732 40297 50002 333 55300 20000 91105 91204;
0140067050999992011011722004+46400+006233FM-12+043099999V0202901N000519999999N9999999N1+00171+00051103041ADDMA1999999097361MD1310031+9999OA149900211REMSYN088AAXX  17224 06705 33/// /2901 10017 20005 39736 40304 53003 333 55300 20000 91104 91203;
0140067050999992011011723004+46400+006233FM-12+043099999V0203301N001519999999N9999999N1+00191+00041103021ADDMA1999999097351MD1210021+9999OA149900261REMSYN088AAXX  17234 06705 33/// /3303 10019 20004 39735 40302 52002 333 55300 20000 91105 91203;
0140067050999992011011800004+46400+006233FM-12+043099999V0203401N001019999999N9999999N1+00131+00011103011ADDMA1999999097331MD1010011+9999OA149900411REMSYN088AAXX  18004 06705 33/// /3402 10013 20001 39733 40301 50001 333 55300 20000 91108 91206;
0140067050999992011011801004+46400+006233FM-12+043099999V0203501N001019999999N9999999N1+00131+00001103011ADDMA1999999097331MD1719999+9999OA149900261REMSYN088AAXX  18014 06705 33/// /3502 10013 20000 39733 40301 57/// 333 55300 20000 91105 91204;
0087067050999992011011802004+46400+006233FM-12+043099999V0203301N001519999999N9999999N1+00161+00001103011ADDMA1999999097331REMSYN060AAXX  18024 06705 43/// /3303 10016 20000 39733 40301 5////;
0087067050999992011011803004+46400+006233FM-12+043099999V0203201N001519999999N9999999N1+00181+00051102951ADDMA1999999097281REMSYN060AAXX  18034 06705 43/// /3203 10018 20005 39728 40295 5////;
0103067050999992011011804004+46400+006233FM-12+043099999V0203501N001519999999N9999999N1-00031-00101102971ADDMA1999999097261REMSYN076AAXX  18044 06705 33/// /3503 11003 21010 39726 40297 5//// 333 553// 20000;
0140067050999992011011805004+46400+006233FM-12+043099999V0203301N001019999999N9999999N1+00071-00061102961ADDMA1999999097271MD1710061+9999OA149900211REMSYN088AAXX  18054 06705 33/// /3302 10007 21006 39727 40296 57006 333 55300 20000 91104 91203;
0226067050999992011011806004+46400+006233FM-12+043099999V0203001N000519999999N9999999N1+00181+00031102951ADDAL19900091GJ103729IA2999-00209KA1999N-00031MA1999999097281MD1410001+9999OA149900261REMSYN112AAXX  18064 06705 33/// /3001 10018 20003 39728 40295 52000 333 21003 3/102 55062 55300 20000 70000 91105 91204;EQDQ01+000022APCTEN
0140067050999992011011807004+46400+006233FM-12+043099999V0209999C000019999999N9999999N1+00061+00011103011ADDMA1999999097311MD1210051+9999OA149900151REMSYN088AAXX  18074 06705 33/// /0000 10006 20001 39731 40301 52005 333 55300 20000 91103 91202;
0087067050999992011011808004+46400+006233FM-12+043099999V0209999C000019999999N9999999N1+00141+00031102991ADDMA1999999097311REMSYN060AAXX  18084 06705 43/// /0000 10014 20003 39731 40299 5////;
0087067050999992011011809004+46400+006233FM-12+043099999V0201601N001019999999N9999999N1+00211+00091103001ADDMA1999999097331REMSYN060AAXX  18094 06705 43/// /1602 10021 20009 39733 40300 5////;
0140067050999992011011810004+46400+006233FM-12+043099999V0202901N000519999999N9999999N1+00321+00191102961ADDMA1999999097321MD1010011+9999OA149900151REMSYN088AAXX  18104 06705 33/// /2901 10032 20019 39732 40296 50001 333 55300 20263 91103 91202;
0140067050999992011011811004+46400+006233FM-12+043099999V0201401N001019999999N9999999N1+00441+00241102871ADDMA1999999097261MD1710051+9999OA149900151REMSYN088AAXX  18114 06705 33/// /1402 10044 20024 39726 40287 57005 333 55300 20558 91103 91202;
0140067050999992011011812004+46400+006233FM-12+043099999V0201401N001019999999N9999999N1+00521+00301102791ADDMA1999999097201MD1819999+9999OA149900211REMSYN088AAXX  18124 06705 33/// /1402 10052 20030 39720 40279 58/// 333 55301 20817 91104 91203;
0103067050999992011011813004+46400+006233FM-12+043099999V0201101N000519999999N9999999N1+00501+00281102741ADDMA1999999097151REMSYN076AAXX  18134 06705 33/// /1101 10050 20028 39715 40274 5//// 333 553// 20713;
0087067050999992011011814004+46400+006233FM-12+043099999V0200701N001019999999N9999999N1+00511+00331102731ADDMA1999999097141REMSYN060AAXX  18144 06705 43/// /0702 10051 20033 39714 40273 5////;
0087067050999992011011815004+46400+006233FM-12+043099999V0200601N001019999999N9999999N1+00511+00341102761ADDMA1999999097171REMSYN060AAXX  18154 06705 43/// /0602 10051 20034 39717 40276 5////;
0140067050999992011011816004+46400+006233FM-12+043099999V0200601N001019999999N9999999N1+00411+00311102781ADDMA1999999097171MD1310021+9999OA149900151REMSYN088AAXX  18164 06705 33/// /0602 10041 20031 39717 40278 53002 333 55305 20234 91103 91203;
0140067050999992011011817004+46400+006233FM-12+043099999V0200501N000519999999N9999999N1+00341+00281102821ADDMA1999999097191MD1210051+9999OA149900151REMSYN088AAXX  18174 06705 33/// /0501 10034 20028 39719 40282 52005 333 55300 20007 91103 91202;
0159067050999992011011818004+46400+006233FM-12+043099999V0203501N001019999999N9999999N1+00241+00171102851ADDKA1120M+00581MA1999999097201MD1210031+9999OA149900211REMSYN094AAXX  18184 06705 33/// /3502 10024 20017 39720 40285 52003 333 10058 55300 20000 91104 91203;
0140067050999992011011819004+46400+006233FM-12+043099999V0200301N001519999999N9999999N1+00251+00121102861ADDMA1999999097211MD1210041+9999OA149900261REMSYN088AAXX  18194 06705 33/// /0303 10025 20012 39721 40286 52004 333 55300 20000 91105 91203;
0140067050999992011011820004+46400+006233FM-12+043099999V0200201N001019999999N9999999N1+00261+00121102871ADDMA1999999097221MD1210031+9999OA149900261REMSYN088AAXX  18204 06705 33/// /0202 10026 20012 39722 40287 52003 333 55300 20000 91105 91203;
0140067050999992011011821004+46400+006233FM-12+043099999V0203201N001019999999N9999999N1+00241+00091102871ADDMA1999999097221MD1210021+9999OA149900261REMSYN088AAXX  18214 06705 33/// /3202 10024 20009 39722 40287 52002 333 55300 20000 91105 91203;
0140067050999992011011822004+46400+006233FM-12+043099999V0202801N000519999999N9999999N1+00311+00101102871ADDMA1999999097231MD1210021+9999OA149900261REMSYN088AAXX  18224 06705 33/// /2801 10031 20010 39723 40287 52002 333 55300 20000 91105 91203;
0140067050999992011011823004+46400+006233FM-12+043099999V0202501N000519999999N9999999N1+00201+00021102881ADDMA1999999097221MD1010001+9999OA149900311REMSYN088AAXX  18234 06705 33/// /2501 10020 20002 39722 40288 50000 333 55300 20000 91106 91203;
