0149067020999992011010100004+46433+006100FM-12+167599999V0200801N007219999999N9999999N1-00191-00791999999ADDMA1999999083141MD1610041+9999ME1314949OA149900981REMSYN088AAXX  01004 06702 43/// /0814 11019 21079 38314 48494 56004 333 55300 20000 91119 91216;
0149067020999992011010101004+46433+006100FM-12+167599999V0200801N005719999999N9999999N1-00171-00931999999ADDMA1999999083121MD1610051+9999ME1314929OA149900981REMSYN088AAXX  01014 06702 43/// /0811 11017 21093 38312 48492 56005 333 55300 20000 91119 91216;
0149067020999992011010102004+46433+006100FM-12+167599999V0200701N004619999999N9999999N1-00171-00881999999ADDMA1999999083141MD1510011+9999ME1314949OA149900771REMSYN088AAXX  01024 06702 43/// /0709 11017 21088 38314 48494 55001 333 55300 20000 91115 91213;
0149067020999992011010103004+46433+006100FM-12+167599999V0200701N004119999999N9999999N1-00141-00881999999ADDMA1999999083111MD1710031+9999ME1314919OA149900981REMSYN088AAXX  01034 06702 43/// /0708 11014 21088 38311 48491 57003 333 55300 20000 91119 91216;
0149067020999992011010104004+46433+006100FM-12+167599999V0200401N004119999999N9999999N1-00181-01011999999ADDMA1999999083101MD1710021+9999ME1314919OA149900511REMSYN088AAXX  01044 06702 43/// /0408 11018 21101 38310 48491 57002 333 55300 20000 91110 91209;
0149067020999992011010105004+46433+006100FM-12+167599999V0200401N005119999999N9999999N1-00151-01041999999ADDMA1999999083091MD1610051+9999ME1314899OA149900671REMSYN088AAXX  01054 06702 43/// /0410 11015 21104 38309 48489 56005 333 55300 20000 91113 91210;
0182067020999992011010106004+46433+006100FM-12+167599999V0200401N005719999999N9999999N1-00181-00911999999ADDGJ101569KA1999N-00421MA1999999083091MD1710021+9999ME1314909OA149900981REMSYN100AAXX  01064 06702 43/// /0411 11018 21091 38309 48490 57002 333 21042 55026 55300 20000 91119 91216;
0149067020999992011010107004+46433+006100FM-12+167599999V0200501N006219999999N9999999N1-00201-00891999999ADDMA1999999083091MD1410001+9999ME1314909OA149900721REMSYN088AAXX  01074 06702 43/// /0512 11020 21089 38309 48490 54001 333 55300 20000 91114 91212;
0149067020999992011010108004+46433+006100FM-12+167599999V0200601N005719999999N9999999N1-00161-00861999999ADDMA1999999083101MD1410001+9999ME1314909OA149900771REMSYN088AAXX  01084 06702 43/// /0611 11016 21086 38310 48490 54/// 333 55305 20072 91115 91212;
0096067020999992011010109004+46433+006100FM-12+167599999V0200701N005119999999N9999999N1-00081-00761999999ADDMA1999999083101ME1314909REMSYN060AAXX  01094 06702 43/// /0710 11008 21076 38310 48490 5////;
0096067020999992011010110004+46433+006100FM-12+167599999V0200801N003619999999N9999999N1-00041-00711999999ADDMA1999999083101ME1314909REMSYN060AAXX  01104 06702 43/// /0807 11004 21071 38310 48490 5////;
0149067020999992011010111004+46433+006100FM-12+167599999V0201101N001019999999N9999999N1-00121-00721999999ADDMA1999999083091MD1810011+9999ME1314899OA149900621REMSYN088AAXX  01114 06702 43/// /1102 11012 21072 38309 48489 58001 333 553// 2//// 91112 91210;
0096067020999992011010112004+46433+006100FM-12+167599999V0200901N001019999999N9999999N1+00001-00511999999ADDMA1999999083051ME1314849REMSYN060AAXX  01124 06702 43/// /0902 10000 21051 38305 48484 5////;
0096067020999992011010113004+46433+006100FM-12+167599999V0200801N001019999999N9999999N1+00001-00481999999ADDMA1999999083011ME1314819REMSYN060AAXX  01134 06702 43/// /0802 10000 21048 38301 48481 5////;
0096067020999992011010114004+46433+006100FM-12+167599999V0200501N002119999999N9999999N1-00171-00481999999ADDMA1999999082991ME1314809REMSYN060AAXX  01144 06702 43/// /0504 11017 21048 38299 48480 5////;
0096067020999992011010115004+46433+006100FM-12+167599999V0203501N002619999999N9999999N1-00331-00331999999ADDMA1999999082981ME1314809REMSYN060AAXX  01154 06702 43/// /3505 11033 21033 38298 48480 5////;
0096067020999992011010116004+46433+006100FM-12+167599999V0200401N004119999999N9999999N1-00171-00821999999ADDMA1999999082961ME1314779REMSYN060AAXX  01164 06702 43/// /0408 11017 21082 38296 48477 5////;
0096067020999992011010117004+46433+006100FM-12+167599999V0200101N005719999999N9999999N1-00241-00661999999ADDMA1999999082931ME1314759REMSYN060AAXX  01174 06702 43/// /0111 11024 21066 38293 48475 5////;
0096067020999992011010118004+46433+006100FM-12+167599999V0203601N005119999999N9999999N1-00401-00541999999ADDMA1999999082901ME1314739REMSYN060AAXX  01184 06702 43/// /3610 11040 21054 38290 48473 5////;
0112067020999992011010119004+46433+006100FM-12+167599999V0200201N006219999999N9999999N1-00221-00801999999ADDMA1999999082891ME1314719REMSYN076AAXX  01194 06702 43/// /0212 11022 21080 38289 48471 5//// 333 553// 20000;
0149067020999992011010120004+46433+006100FM-12+167599999V0200501N006219999999N9999999N1-00241-00861999999ADDMA1999999082881MD1710051+9999ME1314709OA149900821REMSYN088AAXX  01204 06702 43/// /0512 11024 21086 38288 48470 57005 333 55300 20000 91116 91213;
0149067020999992011010121004+46433+006100FM-12+167599999V0200601N006219999999N9999999N1-00341-00741999999ADDMA1999999082861MD1710041+9999ME1314699OA149900821REMSYN088AAXX  01214 06702 43/// /0612 11034 21074 38286 48469 57004 333 55300 20000 91116 91213;
0149067020999992011010122004+46433+006100FM-12+167599999V0200501N006219999999N9999999N1-00381-00751999999ADDMA1999999082841MD1710051+9999ME1314679OA149900821REMSYN088AAXX  01224 06702 43/// /0512 11038 21075 38284 48467 57005 333 55300 20000 91116 91213;
0149067020999992011010123004+46433+006100FM-12+167599999V0200301N004619999999N9999999N1-00291-00881999999ADDMA1999999082801MD1710081+9999ME1314629OA149900821REMSYN088AAXX  01234 06702 43/// /0309 11029 21088 38280 48462 57008 333 55300 20000 91116 91213;
0149067020999992011010200004+46433+006100FM-12+167599999V0203501N005119999999N9999999N1-00481-00741999999ADDMA1999999082741MD1810121+9999ME1314589OA149900821REMSYN088AAXX  02004 06702 43/// /3510 11048 21074 38274 48458 58012 333 55300 20000 91116 91213;
0149067020999992011010201004+46433+006100FM-12+167599999V0203501N006219999999N9999999N1-00431-00781999999ADDMA1999999082731MD1710111+9999ME1314579OA149900771REMSYN088AAXX  02014 06702 43/// /3512 11043 21078 38273 48457 57011 333 55300 20000 91115 91213;
0096067020999992011010202004+46433+006100FM-12+167599999V0209999C006719999999N9999999N1-00331-00831999999ADDMA1999999082731ME1314569REMSYN060AAXX  02024 06702 43/// /0013 11033 21083 38273 48456 5////;
0096067020999992011010203004+46433+006100FM-12+167599999V0200301N004619999999N9999999N1-00301-00811999999ADDMA1999999082701ME1314539REMSYN060AAXX  02034 06702 43/// /0309 11030 21081 38270 48453 5////;
0096067020999992011010204004+46433+006100FM-12+167599999V0200401N004619999999N9999999N1-00481-00841999999ADDMA1999999082691ME1314539REMSYN060AAXX  02044 06702 43/// /0409 11048 21084 38269 48453 5////;
0096067020999992011010205004+46433+006100FM-12+167599999V0200601N006719999999N9999999N1-00641-00761999999ADDMA1999999082681ME1314549REMSYN060AAXX  02054 06702 43/// /0613 11064 21076 38268 48454 5////;
0125067020999992011010206004+46433+006100FM-12+167599999V0200701N012919999999N9999999N1-00741-00781999999ADDKA1999N-00861MA1999999082631ME1314509REMSYN076AAXX  02064 06702 43/// /0725 11074 21078 38263 48450 5//// 333 21086 55076;
0149067020999992011010207004+46433+006100FM-12+167599999V0200801N013419999999N9999999N1-00741-00771999999ADDMA1999999082621MD1710071+9999ME1314499OA149901751REMSYN088AAXX  02074 06702 43/// /0826 11074 21077 38262 48449 57007 333 55300 20000 91134 91227;
0149067020999992011010208004+46433+006100FM-12+167599999V0200801N012319999999N9999999N1-00721-00761999999ADDMA1999999082661MD1510021+9999ME1314539OA149901751REMSYN088AAXX  02084 06702 43/// /0824 11072 21076 38266 48453 55002 333 55300 20014 91134 91227;
0149067020999992011010209004+46433+006100FM-12+167599999V0200801N011819999999N9999999N1-00711-00761999999ADDMA1999999082701MD1210071+9999ME1314569OA149901751REMSYN088AAXX  02094 06702 43/// /0823 11071 21076 38270 48456 52007 333 55300 20126 91134 91227;
0149067020999992011010210004+46433+006100FM-12+167599999V0200901N011319999999N9999999N1-00681-00711999999ADDMA1999999082731MD1210111+9999ME1314599OA149901701REMSYN088AAXX  02104 06702 43/// /0922 11068 21071 38273 48459 52011 333 55300 20324 91133 91226;
0149067020999992011010211004+46433+006100FM-12+167599999V0200801N008719999999N9999999N1-00681-00741999999ADDMA1999999082761MD1210101+9999ME1314629OA149901651REMSYN088AAXX  02114 06702 43/// /0817 11068 21074 38276 48462 52010 333 55300 20626 91132 91224;
0149067020999992011010212004+46433+006100FM-12+167599999V0200801N008219999999N9999999N1-00671-00691999999ADDMA1999999082731MD1010031+9999ME1314599OA149901751REMSYN088AAXX  02124 06702 43/// /0816 11067 21069 38273 48459 50003 333 55300 20652 91134 91227;
0149067020999992011010213004+46433+006100FM-12+167599999V0200501N003619999999N9999999N1-00701-00741999999ADDMA1999999082741MD1210011+9999ME1314609OA149901131REMSYN088AAXX  02134 06702 43/// /0507 11070 21074 38274 48460 52001 333 55300 20486 91122 91218;
0112067020999992011010214004+46433+006100FM-12+167599999V0200601N004619999999N9999999N1-00761-00801999999ADDMA1999999082731ME1314609REMSYN076AAXX  02144 06702 43/// /0609 11076 21080 38273 48460 5//// 333 553// 20425;
0149067020999992011010215004+46433+006100FM-12+167599999V0200801N007719999999N9999999N1-00771-00801999999ADDMA1999999082751MD1310021+9999ME1314629OA149901651REMSYN088AAXX  02154 06702 43/// /0815 11077 21080 38275 48462 53002 333 55300 20234 91132 91224;
0149067020999992011010216004+46433+006100FM-12+167599999V0200701N008219999999N9999999N1-00831-00881999999ADDMA1999999082751MD1210011+9999ME1314629OA149901291REMSYN088AAXX  02164 06702 43/// /0716 11083 21088 38275 48462 52001 333 55300 20061 91125 91216;
0149067020999992011010217004+46433+006100FM-12+167599999V0200801N013419999999N9999999N1-00881-00971999999ADDMA1999999082711MD1810021+9999ME1314599OA149901751REMSYN088AAXX  02174 06702 43/// /0826 11088 21097 38271 48459 58002 333 55300 20000 91134 91226;
0168067020999992011010218004+46433+006100FM-12+167599999V0200801N014919999999N9999999N1-00911-01011999999ADDKA1120M-00651MA1999999082711MD1710041+9999ME1314599OA149902211REMSYN094AAXX  02184 06702 43/// /0829 11091 21101 38271 48459 57004 333 11065 55300 20000 91143 91231;
0149067020999992011010219004+46433+006100FM-12+167599999V0200801N017019999999N9999999N1-00911-00951999999ADDMA1999999082691MD1710061+9999ME1314579OA149902211REMSYN088AAXX  02194 06702 43/// /0833 11091 21095 38269 48457 57006 333 55300 20000 91143 91233;
0149067020999992011010220004+46433+006100FM-12+167599999V0200901N015919999999N9999999N1-00941-00991999999ADDMA1999999082731MD1210021+9999ME1314619OA149902111REMSYN088AAXX  02204 06702 43/// /0931 11094 21099 38273 48461 52002 333 55300 20000 91141 91233;
0149067020999992011010221004+46433+006100FM-12+167599999V0200801N015919999999N9999999N1-00991-01061999999ADDMA1999999082731MD1210021+9999ME1314619OA149902211REMSYN088AAXX  02214 06702 43/// /0831 11099 21106 38273 48461 52002 333 55300 20000 91143 91233;
0149067020999992011010222004+46433+006100FM-12+167599999V0200801N014919999999N9999999N1-01031-01131999999ADDMA1999999082751MD1210061+9999ME1314649OA149902061REMSYN088AAXX  02224 06702 43/// /0829 11103 21113 38275 48464 52006 333 55300 20000 91140 91233;
0149067020999992011010223004+46433+006100FM-12+167599999V0200801N015919999999N9999999N1-01021-01191999999ADDMA1999999082741MD1210011+9999ME1314639OA149902011REMSYN088AAXX  02234 06702 43/// /0831 11102 21119 38274 48463 52001 333 55300 20000 91139 91231;
0149067020999992011010300004+46433+006100FM-12+167599999V0200901N014919999999N9999999N1-01081-01221999999ADDMA1999999082731MD1010001+9999ME1314629OA149902211REMSYN088AAXX  03004 06702 43/// /0929 11108 21122 38273 48462 50000 333 55300 20000 91143 91233;
0149067020999992011010301004+46433+006100FM-12+167599999V0200901N013419999999N9999999N1-01091-01221999999ADDMA1999999082751MD1510001+9999ME1314649OA149902011REMSYN088AAXX  03014 06702 43/// /0926 11109 21122 38275 48464 55000 333 55300 20000 91139 91231;
0149067020999992011010302004+46433+006100FM-12+167599999V0200801N014919999999N9999999N1-01081-01321999999ADDMA1999999082761MD1319999+9999ME1314659OA149901851REMSYN088AAXX  03024 06702 43/// /0829 11108 21132 38276 48465 53/// 333 55300 20000 91136 91230;
0096067020999992011010303004+46433+006100FM-12+167599999V0201001N014919999999N9999999N1-01051-01341999999ADDMA1999999082761ME1314659REMSYN060AAXX  03034 06702 43/// /1029 11105 21134 38276 48465 5////;
0149067020999992011010304004+46433+006100FM-12+167599999V0200901N014419999999N9999999N1-01121-01281999999ADDMA1999999082781MD1210031+9999ME1314679OA149901961REMSYN088AAXX  03044 06702 43/// /0928 11112 21128 38278 48467 52003 333 55300 20000 91138 91231;
0149067020999992011010305004+46433+006100FM-12+167599999V0200901N013419999999N9999999N1-01151-01341999999ADDMA1999999082781MD1210021+9999ME1314679OA149901751REMSYN088AAXX  03054 06702 43/// /0926 11115 21134 38278 48467 52002 333 55300 20000 91134 91229;
0182067020999992011010306004+46433+006100FM-12+167599999V0200901N012319999999N9999999N1-01121-01411999999ADDGJ100009KA1999N-01151MA1999999082791MD1210031+9999ME1314689OA149902111REMSYN100AAXX  03064 06702 43/// /0924 11112 21141 38279 48468 52003 333 21115 55000 55300 20000 91141 91233;
0149067020999992011010307004+46433+006100FM-12+167599999V0200901N012919999999N9999999N1-01121-01391999999ADDMA1999999082771MD1810011+9999ME1314669OA149901601REMSYN088AAXX  03074 06702 43/// /0925 11112 21139 38277 48466 58001 333 55300 20000 91131 91227;
0149067020999992011010308004+46433+006100FM-12+167599999V0200801N010819999999N9999999N1-01031-01311999999ADDMA1999999082831MD1319999+9999ME1314719OA149901601REMSYN088AAXX  03084 06702 43/// /0821 11103 21131 38283 48471 53/// 333 55305 20072 91131 91227;
0112067020999992011010309004+46433+006100FM-12+167599999V0200901N009819999999N9999999N1-00951-01311999999ADDMA1999999082861ME1314739REMSYN076AAXX  03094 06702 43/// /0919 11095 21131 38286 48473 5//// 333 553// 20536;
0149067020999992011010310004+46433+006100FM-12+167599999V0200901N009319999999N9999999N1-00911-01201999999ADDMA1999999082881MD1210111+9999ME1314759OA149901291REMSYN088AAXX  03104 06702 43/// /0918 11091 21120 38288 48475 52011 333 553// 2//// 91125 91220;
0149067020999992011010311004+46433+006100FM-12+167599999V0200801N009319999999N9999999N1-00781-01351999999ADDMA1999999082881MD1210051+9999ME1314749OA149901291REMSYN088AAXX  03114 06702 43/// /0818 11078 21135 38288 48474 52005 333 553// 2//// 91125 91220;
0149067020999992011010312004+46433+006100FM-12+167599999V0200801N006719999999N9999999N1-00821-01521999999ADDMA1999999082851MD1810011+9999ME1314719OA149901961REMSYN088AAXX  03124 06702 43/// /0813 11082 21152 38285 48471 58001 333 553// 2//// 91138 91231;
0149067020999992011010313004+46433+006100FM-12+167599999V0200701N004119999999N9999999N1-00721-01711999999ADDMA1999999082841MD1710041+9999ME1314709OA149901081REMSYN088AAXX  03134 06702 43/// /0708 11072 21171 38284 48470 57004 333 553// 2//// 91121 91217;
0112067020999992011010314004+46433+006100FM-12+167599999V0201101N003119999999N9999999N1-00901-01151999999ADDMA1999999082851ME1314729REMSYN076AAXX  03144 06702 43/// /1106 11090 21115 38285 48472 5//// 333 553// 2////;
0112067020999992011010315004+46433+006100FM-12+167599999V0200601N001019999999N9999999N1-01021-01191999999ADDMA1999999082851ME1314739REMSYN076AAXX  03154 06702 43/// /0602 11102 21119 38285 48473 5//// 333 553// 20702;
0149067020999992011010316004+46433+006100FM-12+167599999V0200501N004119999999N9999999N1-00761-01761999999ADDMA1999999082821MD1810021+9999ME1314689OA149900511REMSYN088AAXX  03164 06702 43/// /0508 11076 21176 38282 48468 58002 333 55309 20191 91110 91208;
0149067020999992011010317004+46433+006100FM-12+167599999V0200501N003119999999N9999999N1-00881-01581999999ADDMA1999999082831MD1710021+9999ME1314709OA149900511REMSYN088AAXX  03174 06702 43/// /0506 11088 21158 38283 48470 57002 333 55300 20000 91110 91208;
0168067020999992011010318004+46433+006100FM-12+167599999V0200901N004119999999N9999999N1-00881-01911999999ADDKA1120M-00721MA1999999082821MD1710031+9999ME1314699OA149901601REMSYN094AAXX  03184 06702 43/// /0908 11088 21191 38282 48469 57003 333 11072 55300 20000 91131 91227;
0149067020999992011010319004+46433+006100FM-12+167599999V0201301N004619999999N9999999N1-00731-02771999999ADDMA1999999082801MD1710021+9999ME1314669OA149900571REMSYN088AAXX  03194 06702 43/// /1309 11073 21277 38280 48466 57002 333 55300 20000 91111 91209;
0149067020999992011010320004+46433+006100FM-12+167599999V0201701N003619999999N9999999N1-00511-03421999999ADDMA1999999082801MD1610031+9999ME1314649OA149900571REMSYN088AAXX  03204 06702 43/// /1707 11051 21342 38280 48464 56003 333 55300 20000 91111 91209;
0149067020999992011010321004+46433+006100FM-12+167599999V0201701N006219999999N9999999N1-00661-02901999999ADDMA1999999082781MD1810041+9999ME1314649OA149900721REMSYN088AAXX  03214 06702 43/// /1712 11066 21290 38278 48464 58004 333 55300 20000 91114 91212;
0149067020999992011010322004+46433+006100FM-12+167599999V0202501N007219999999N9999999N1-00641-02721999999ADDMA1999999082761MD1610041+9999ME1314619OA149900881REMSYN088AAXX  03224 06702 43/// /2514 11064 21272 38276 48461 56004 333 55300 20000 91117 91214;
0168067020999992011010323004+46433+006100FM-12+167599999V0202401N011819999999N9999999N1-00771-01172999999ADDMA1999999082741MD1710061+9999ME1314619OA149901391REMSYN088AAXX  03234 06702 43/// /2423 11077 21117 38274 48461 57006 333 55300 20000 91127 91223;EQDQ01-001173ATOD  
0149067020999992011010400004+46433+006100FM-12+167599999V0202401N010819999999N9999999N1-00701-00851999999ADDMA1999999082741MD1710041+9999ME1314609OA149901391REMSYN088AAXX  04004 06702 43/// /2421 11070 21085 38274 48460 57004 333 55300 20000 91127 91223;
0149067020999992011010401004+46433+006100FM-12+167599999V0202401N011819999999N9999999N1-00661-00781999999ADDMA1999999082691MD1710071+9999ME1314559OA149901601REMSYN088AAXX  04014 06702 43/// /2423 11066 21078 38269 48455 57007 333 55300 20000 91131 91223;
0149067020999992011010402004+46433+006100FM-12+167599999V0202301N009319999999N9999999N1-00631-00731999999ADDMA1999999082701MD1719999+9999ME1314569OA149901601REMSYN088AAXX  04024 06702 43/// /2318 11063 21073 38270 48456 57/// 333 55300 20000 91131 91223;
0149067020999992011010403004+46433+006100FM-12+167599999V0202201N009319999999N9999999N1-00631-00691999999ADDMA1999999082671MD1710071+9999ME1314539OA149901601REMSYN088AAXX  04034 06702 43/// /2218 11063 21069 38267 48453 57007 333 55300 20000 91131 91223;
0149067020999992011010404004+46433+006100FM-12+167599999V0202201N009819999999N9999999N1-00711-01151999999ADDMA1999999082631MD1710061+9999ME1314509OA149901491REMSYN088AAXX  04044 06702 43/// /2219 11071 21115 38263 48450 57006 333 55300 20000 91129 91222;
0149067020999992011010405004+46433+006100FM-12+167599999V0202301N009819999999N9999999N1-00681-00961999999ADDMA1999999082601MD1710101+9999ME1314479OA149901441REMSYN088AAXX  04054 06702 43/// /2319 11068 21096 38260 48447 57010 333 55300 20000 91128 91221;
0182067020999992011010406004+46433+006100FM-12+167599999V0202401N009819999999N9999999N1-00731-01131999999ADDGJ105049KA1999N-00891MA1999999082571MD1710101+9999ME1314449OA149901601REMSYN100AAXX  04064 06702 43/// /2419 11073 21113 38257 48444 57010 333 21089 55084 55300 20000 91131 91223;
0149067020999992011010407004+46433+006100FM-12+167599999V0202401N009819999999N9999999N1-00761-01231999999ADDMA1999999082541MD1710091+9999ME1314429OA149901491REMSYN088AAXX  04074 06702 43/// /2419 11076 21123 38254 48442 57009 333 55300 20000 91129 91220;
0149067020999992011010408004+46433+006100FM-12+167599999V0202401N010319999999N9999999N1-00721-00961999999ADDMA1999999082561MD1719999+9999ME1314439OA149901291REMSYN088AAXX  04084 06702 43/// /2420 11072 21096 38256 48443 57/// 333 55300 20000 91125 91220;
0112067020999992011010409004+46433+006100FM-12+167599999V0202501N010319999999N9999999N1-00781-01001999999ADDMA1999999082571ME1314459REMSYN076AAXX  04094 06702 43/// /2520 11078 21100 38257 48445 5//// 333 553// 20076;
0149067020999992011010410004+46433+006100FM-12+167599999V0202401N008219999999N9999999N1-00741-00931999999ADDMA1999999082591MD1210051+9999ME1314469OA149901291REMSYN088AAXX  04104 06702 43/// /2416 11074 21093 38259 48446 52005 333 55301 20403 91125 91221;
0149067020999992011010411004+46433+006100FM-12+167599999V0202401N009819999999N9999999N1-00721-00941999999ADDMA1999999082551MD1810011+9999ME1314429OA149901391REMSYN088AAXX  04114 06702 43/// /2419 11072 21094 38255 48442 58001 333 55303 20875 91127 91220;
0149067020999992011010412004+46433+006100FM-12+167599999V0202501N009819999999N9999999N1-00721-00941999999ADDMA1999999082491MD1710081+9999ME1314369OA149901601REMSYN088AAXX  04124 06702 43/// /2519 11072 21094 38249 48436 57008 333 55301 20947 91131 91223;
0149067020999992011010413004+46433+006100FM-12+167599999V0202401N009819999999N9999999N1-00691-00951999999ADDMA1999999082461MD1710131+9999ME1314339OA149901391REMSYN088AAXX  04134 06702 43/// /2419 11069 21095 38246 48433 57013 333 55300 20547 91127 91220;
0112067020999992011010414004+46433+006100FM-12+167599999V0202401N009819999999N9999999N1-00721-01121999999ADDMA1999999082431ME1314319REMSYN076AAXX  04144 06702 43/// /2419 11072 21112 38243 48431 5//// 333 553// 20450;
0096067020999992011010415004+46433+006100FM-12+167599999V0202601N008719999999N9999999N1-00831-01161999999ADDMA1999999082451ME1314349REMSYN060AAXX  04154 06702 43/// /2617 11083 21116 38245 48434 5////;
0149067020999992011010416004+46433+006100FM-12+167599999V0202601N008219999999N9999999N1-00951-01271999999ADDMA1999999082451MD1510011+9999ME1314359OA149901181REMSYN088AAXX  04164 06702 43/// /2616 11095 21127 38245 48435 55001 333 55300 20094 91123 91218;
0149067020999992011010417004+46433+006100FM-12+167599999V0202601N009819999999N9999999N1-00941-01341999999ADDMA1999999082481MD1210051+9999ME1314379OA149901181REMSYN088AAXX  04174 06702 43/// /2619 11094 21134 38248 48437 52005 333 55300 20000 91123 91219;
0168067020999992011010418004+46433+006100FM-12+167599999V0202701N009819999999N9999999N1-00901-01551999999ADDKA1120M-00691MA1999999082501MD1210051+9999ME1314399OA149901391REMSYN094AAXX  04184 06702 43/// /2719 11090 21155 38250 48439 52005 333 11069 55300 20000 91127 91221;
0149067020999992011010419004+46433+006100FM-12+167599999V0202801N006719999999N9999999N1-00941-01331999999ADDMA1999999082521MD1210071+9999ME1314419OA149901291REMSYN088AAXX  04194 06702 43/// /2813 11094 21133 38252 48441 52007 333 55300 20000 91125 91219;
0149067020999992011010420004+46433+006100FM-12+167599999V0202601N008219999999N9999999N1-00781-01291999999ADDMA1999999082491MD1010011+9999ME1314379OA149901131REMSYN088AAXX  04204 06702 43/// /2616 11078 21129 38249 48437 50001 333 55300 20000 91122 91217;
0149067020999992011010421004+46433+006100FM-12+167599999V0202501N008219999999N9999999N1-00771-01251999999ADDMA1999999082471MD1710031+9999ME1314359OA149901291REMSYN088AAXX  04214 06702 43/// /2516 11077 21125 38247 48435 57003 333 55300 20000 91125 91219;
0149067020999992011010422004+46433+006100FM-12+167599999V0202301N009319999999N9999999N1-00721-01091999999ADDMA1999999082481MD1510041+9999ME1314369OA149901131REMSYN088AAXX  04224 06702 43/// /2318 11072 21109 38248 48436 55004 333 55300 20000 91122 91219;
0149067020999992011010423004+46433+006100FM-12+167599999V0202401N010319999999N9999999N1-00701-00921999999ADDMA1999999082481MD1710011+9999ME1314359OA149901441REMSYN088AAXX  04234 06702 43/// /2420 11070 21092 38248 48435 57001 333 55300 20000 91128 91222;
0149067020999992011010500004+46433+006100FM-12+167599999V0202401N010819999999N9999999N1-00711-00851999999ADDMA1999999082461MD1810011+9999ME1314349OA149901441REMSYN088AAXX  05004 06702 43/// /2421 11071 21085 38246 48434 58001 333 55300 20000 91128 91222;
0149067020999992011010501004+46433+006100FM-12+167599999V0202301N008719999999N9999999N1-00691-00781999999ADDMA1999999082421MD1710061+9999ME1314309OA149901341REMSYN088AAXX  05014 06702 43/// /2317 11069 21078 38242 48430 57006 333 55300 20000 91126 91221;
0149067020999992011010502004+46433+006100FM-12+167599999V0202101N008719999999N9999999N1-00671-00731999999ADDMA1999999082431MD1710051+9999ME1314309OA149901341REMSYN088AAXX  05024 06702 43/// /2117 11067 21073 38243 48430 57005 333 55300 20000 91126 91219;
0096067020999992011010503004+46433+006100FM-12+167599999V0201901N009819999999N9999999N1-00621-00691999999ADDMA1999999082411ME1314289REMSYN060AAXX  05034 06702 43/// /1919 11062 21069 38241 48428 5////;
0149067020999992011010504004+46433+006100FM-12+167599999V0201901N009319999999N9999999N1-00661-00701999999ADDMA1999999082401MD1710021+9999ME1314279OA149901341REMSYN088AAXX  05044 06702 43/// /1918 11066 21070 38240 48427 57002 333 55300 20000 91126 91220;
0149067020999992011010505004+46433+006100FM-12+167599999V0202001N010319999999N9999999N1-00641-00701999999ADDMA1999999082401MD1710031+9999ME1314279OA149901541REMSYN088AAXX  05054 06702 43/// /2020 11064 21070 38240 48427 57003 333 55300 20000 91130 91220;
0182067020999992011010506004+46433+006100FM-12+167599999V0202001N010819999999N9999999N1-00641-00821999999ADDGJ100309KA1999N-00941MA1999999082411MD1410001+9999ME1314289OA149901541REMSYN100AAXX  05064 06702 43/// /2021 11064 21082 38241 48428 54000 333 21094 55005 55300 20000 91130 91222;
0149067020999992011010507004+46433+006100FM-12+167599999V0202001N010819999999N9999999N1-00611-00891999999ADDMA1999999082431MD1310031+9999ME1314309OA149901491REMSYN088AAXX  05074 06702 43/// /2021 11061 21089 38243 48430 53003 333 55300 20000 91129 91221;
0149067020999992011010508004+46433+006100FM-12+167599999V0202001N009819999999N9999999N1-00581-00881999999ADDMA1999999082451MD1319999+9999ME1314319OA149901491REMSYN088AAXX  05084 06702 43/// /2019 11058 21088 38245 48431 53/// 333 55305 20068 91129 91221;
0149067020999992011010509004+46433+006100FM-12+167599999V0201901N010819999999N9999999N1-00461-00871999999ADDMA1999999082461MD1110051+9999ME1314319OA149901541REMSYN088AAXX  05094 06702 43/// /1921 11046 21087 38246 48431 51005 333 553// 20500 91130 91221;
0149067020999992011010510004+46433+006100FM-12+167599999V0201801N010319999999N9999999N1-00381-00731999999ADDMA1999999082441MD1010011+9999ME1314299OA149901541REMSYN088AAXX  05104 06702 43/// /1820 11038 21073 38244 48429 50001 333 553// 20950 91130 91221;
0149067020999992011010511004+46433+006100FM-12+167599999V0201901N012319999999N9999999N1-00311-00531999999ADDMA1999999082411MD1710041+9999ME1314259OA149901961REMSYN088AAXX  05114 06702 43/// /1924 11031 21053 38241 48425 57004 333 553// 2//// 91138 91225;
0112067020999992011010512004+46433+006100FM-12+167599999V0202301N009319999999N9999999N1-00331-00571999999ADDMA1999999082391ME1314239REMSYN076AAXX  05124 06702 43/// /2318 11033 21057 38239 48423 5//// 333 553// 2////;
0149067020999992011010513004+46433+006100FM-12+167599999V0202101N009819999999N9999999N1-00351-00461999999ADDMA1999999082371MD1710071+9999ME1314229OA149901751REMSYN088AAXX  05134 06702 43/// /2119 11035 21046 38237 48422 57007 333 55303 20767 91134 91224;
0096067020999992011010514004+46433+006100FM-12+167599999V0202301N009819999999N9999999N1-00311-00421999999ADDMA1999999082371ME1314219REMSYN060AAXX  05144 06702 43/// /2319 11031 21042 38237 48421 5////;
0096067020999992011010515004+46433+006100FM-12+167599999V0202101N011819999999N9999999N1-00321-00341999999ADDMA1999999082381ME1314229REMSYN060AAXX  05154 06702 43/// /2123 11032 21034 38238 48422 5////;
0149067020999992011010516004+46433+006100FM-12+167599999V0202201N008719999999N9999999N1-00311-00331999999ADDMA1999999082371MD1010001+9999ME1314219OA149901601REMSYN088AAXX  05164 06702 43/// /2217 11031 21033 38237 48421 50000 333 55300 20022 91131 91223;
0149067020999992011010517004+46433+006100FM-12+167599999V0202101N010819999999N9999999N1-00281-00321999999ADDMA1999999082361MD1710011+9999ME1314209OA149901701REMSYN088AAXX  05174 06702 43/// /2121 11028 21032 38236 48420 57001 333 55300 20000 91133 91222;
0168067020999992011010518004+46433+006100FM-12+167599999V0202101N010819999999N9999999N1-00251-00341999999ADDKA1120M-00221MA1999999082361MD1719999+9999ME1314209OA149901961REMSYN094AAXX  05184 06702 43/// /2121 11025 21034 38236 48420 57/// 333 11022 55300 20000 91138 91225;
0149067020999992011010519004+46433+006100FM-12+167599999V0202101N017019999999N9999999N1-00181-00341999999ADDMA1999999082331MD1710041+9999ME1314169OA149902261REMSYN088AAXX  05194 06702 43/// /2133 11018 21034 38233 48416 57004 333 55300 20000 91144 91233;
0149067020999992011010520004+46433+006100FM-12+167599999V0202001N015419999999N9999999N1-00211-00341999999ADDMA1999999082311MD1719999+9999ME1314149OA149902261REMSYN088AAXX  05204 06702 43/// /2030 11021 21034 38231 48414 57/// 333 55300 20000 91144 91233;
0112067020999992011010521004+46433+006100FM-12+167599999V0202101N014919999999N9999999N1-00171-00421999999ADDMA1999999082291ME1314129REMSYN076AAXX  05214 06702 43/// /2129 11017 21042 38229 48412 5//// 333 553// 20000;
0149067020999992011010522004+46433+006100FM-12+167599999V0202001N017019999999N9999999N1-00141-00441999999ADDMA1999999082281MD1710051+9999ME1314119OA149902421REMSYN088AAXX  05224 06702 43/// /2033 11014 21044 38228 48411 57005 333 55300 20000 91147 91233;
0149067020999992011010523004+46433+006100FM-12+167599999V0202001N019019999999N9999999N1-00111-00351999999ADDMA1999999082271MD1719999+9999ME1314109OA149902521REMSYN088AAXX  05234 06702 43/// /2037 11011 21035 38227 48410 57/// 333 55300 20000 91149 91237;
0096067020999992011010600004+46433+006100FM-12+167599999V0202101N018019999999N9999999N1-00091-00251999999ADDMA1999999082281ME1314109REMSYN060AAXX  06004 06702 43/// /2135 11009 21025 38228 48410 5////;
0096067020999992011010601004+46433+006100FM-12+167599999V0202201N013919999999N9999999N1-00161-00201999999ADDMA1999999082251ME1314089REMSYN060AAXX  06014 06702 43/// /2227 11016 21020 38225 48408 5////;
0096067020999992011010602004+46433+006100FM-12+167599999V0202101N015919999999N9999999N1-00161-00221999999ADDMA1999999082261ME1314099REMSYN060AAXX  06024 06702 43/// /2131 11016 21022 38226 48409 5////;
0096067020999992011010603004+46433+006100FM-12+167599999V0202101N015919999999N9999999N1-00111-00171999999ADDMA1999999082251ME1314089REMSYN060AAXX  06034 06702 43/// /2131 11011 21017 38225 48408 5////;
0096067020999992011010604004+46433+006100FM-12+167599999V0202201N013919999999N9999999N1-00071-00111999999ADDMA1999999082251ME1314079REMSYN060AAXX  06044 06702 43/// /2227 11007 21011 38225 48407 5////;
0096067020999992011010605004+46433+006100FM-12+167599999V0202201N014919999999N9999999N1-00041-00061999999ADDMA1999999082251ME1314079REMSYN060AAXX  06054 06702 43/// /2229 11004 21006 38225 48407 5////;
0125067020999992011010606004+46433+006100FM-12+167599999V0202201N014919999999N9999999N1-00011-00051999999ADDKA1999N-00261MA1999999082251ME1314079REMSYN076AAXX  06064 06702 43/// /2229 11001 21005 38225 48407 5//// 333 21026 55047;
0096067020999992011010607004+46433+006100FM-12+167599999V0202101N015919999999N9999999N1-00061-00101999999ADDMA1999999082261ME1314089REMSYN060AAXX  06074 06702 43/// /2131 11006 21010 38226 48408 5////;
0112067020999992011010608004+46433+006100FM-12+167599999V0202001N016419999999N9999999N1-00031-00071999999ADDMA1999999082281ME1314109REMSYN076AAXX  06084 06702 43/// /2032 11003 21007 38228 48410 5//// 333 553// 20007;
0096067020999992011010609004+46433+006100FM-12+167599999V0202101N017019999999N9999999N1-00011-00051999999ADDMA1999999082311ME1314129REMSYN060AAXX  06094 06702 43/// /2133 11001 21005 38231 48412 5////;
0149067020999992011010610004+46433+006100FM-12+167599999V0202201N016419999999N9999999N1+00081+00051999999ADDMA1999999082341MD1210081+9999ME1314159OA149902521REMSYN088AAXX  06104 06702 43/// /2232 10008 20005 38234 48415 52008 333 55300 20155 91149 91234;
0149067020999992011010611004+46433+006100FM-12+167599999V0202101N017519999999N9999999N1+00131+00081999999ADDMA1999999082341MD1210061+9999ME1314149OA149902521REMSYN088AAXX  06114 06702 43/// /2134 10013 20008 38234 48414 52006 333 55300 20230 91149 91234;
0149067020999992011010612004+46433+006100FM-12+167599999V0202101N015419999999N9999999N1+00161+00111999999ADDMA1999999082341MD1010031+9999ME1314149OA149902521REMSYN088AAXX  06124 06702 43/// /2130 10016 20011 38234 48414 50003 333 55300 20205 91149 91235;
0149067020999992011010613004+46433+006100FM-12+167599999V0202201N014419999999N9999999N1+00171+00131999999ADDMA1999999082331MD1710011+9999ME1314139OA149902421REMSYN088AAXX  06134 06702 43/// /2228 10017 20013 38233 48413 57001 333 55300 20166 91147 91234;
0096067020999992011010614004+46433+006100FM-12+167599999V0202101N015919999999N9999999N1+00161+00131999999ADDMA1999999082341ME1314149REMSYN060AAXX  06144 06702 43/// /2131 10016 20013 38234 48414 5////;
0096067020999992011010615004+46433+006100FM-12+167599999V0202201N013919999999N9999999N1+00171+00141999999ADDMA1999999082361ME1314169REMSYN060AAXX  06154 06702 43/// /2227 10017 20014 38236 48416 5////;
0149067020999992011010616004+46433+006100FM-12+167599999V0202301N011819999999N9999999N1+00181+00151999999ADDMA1999999082381MD1210051+9999ME1314179OA149902421REMSYN088AAXX  06164 06702 43/// /2323 10018 20015 38238 48417 52005 333 55300 20007 91147 91233;
0149067020999992011010617004+46433+006100FM-12+167599999V0202301N010819999999N9999999N1+00191+00141999999ADDMA1999999082431MD1210091+9999ME1314229OA149902161REMSYN088AAXX  06174 06702 43/// /2321 10019 20014 38243 48422 52009 333 55300 20000 91142 91227;
0168067020999992011010618004+46433+006100FM-12+167599999V0202401N013419999999N9999999N1+00211+00171999999ADDKA1120M+00201MA1999999082421MD1210061+9999ME1314219OA149902521REMSYN094AAXX  06184 06702 43/// /2426 10021 20017 38242 48421 52006 333 10020 55300 20000 91149 91234;
0149067020999992011010619004+46433+006100FM-12+167599999V0202201N013419999999N9999999N1+00221+00191999999ADDMA1999999082461MD1210081+9999ME1314259OA149902371REMSYN088AAXX  06194 06702 43/// /2226 10022 20019 38246 48425 52008 333 55300 20000 91146 91227;
0149067020999992011010620004+46433+006100FM-12+167599999V0202401N012319999999N9999999N1+00221+00171999999ADDMA1999999082511MD1219999+9999ME1314309OA149902371REMSYN088AAXX  06204 06702 43/// /2424 10022 20017 38251 48430 52/// 333 55300 20000 91146 91227;
0149067020999992011010621004+46433+006100FM-12+167599999V0202301N012319999999N9999999N1+00231+00191999999ADDMA1999999082541MD1219999+9999ME1314339OA149902371REMSYN088AAXX  06214 06702 43/// /2324 10023 20019 38254 48433 52/// 333 55300 20000 91146 91227;
0149067020999992011010622004+46433+006100FM-12+167599999V0202201N010319999999N9999999N1+00231+00211999999ADDMA1999999082591MD1210131+9999ME1314389OA149902111REMSYN088AAXX  06224 06702 43/// /2220 10023 20021 38259 48438 52013 333 55300 20000 91141 91224;
0112067020999992011010623004+46433+006100FM-12+167599999V0202301N011319999999N9999999N1+00281+00261999999ADDMA1999999082621ME1314409REMSYN076AAXX  06234 06702 43/// /2322 10028 20026 38262 48440 5//// 333 553// 20000;
0096067020999992011010700004+46433+006100FM-12+167599999V0202101N010819999999N9999999N1+00291+00261999999ADDMA1999999082661ME1314449REMSYN060AAXX  07004 06702 43/// /2121 10029 20026 38266 48444 5////;
0096067020999992011010701004+46433+006100FM-12+167599999V0202301N011819999999N9999999N1+00291+00271999999ADDMA1999999082661ME1314449REMSYN060AAXX  07014 06702 43/// /2323 10029 20027 38266 48444 5////;
0096067020999992011010702004+46433+006100FM-12+167599999V0202301N010819999999N9999999N1+00291+00261999999ADDMA1999999082711ME1314499REMSYN060AAXX  07024 06702 43/// /2321 10029 20026 38271 48449 5////;
0096067020999992011010703004+46433+006100FM-12+167599999V0202201N012919999999N9999999N1+00301+00291999999ADDMA1999999082721ME1314509REMSYN060AAXX  07034 06702 43/// /2225 10030 20029 38272 48450 5////;
0149067020999992011010704004+46433+006100FM-12+167599999V0202101N012319999999N9999999N1+00371+00291999999ADDMA1999999082711MD1210051+9999ME1314489OA149902011REMSYN088AAXX  07044 06702 43/// /2124 10037 20029 38271 48448 52005 333 55300 20000 91139 91227;
0149067020999992011010705004+46433+006100FM-12+167599999V0202001N015419999999N9999999N1+00351+00221999999ADDMA1999999082681MD1710031+9999ME1314469OA149902161REMSYN088AAXX  07054 06702 43/// /2030 10035 20022 38268 48446 57003 333 55300 20000 91142 91233;
0182067020999992011010706004+46433+006100FM-12+167599999V0202001N019519999999N9999999N1+00371+00261999999ADDGJ100009KA1999N+00191MA1999999082651MD1710071+9999ME1314429OA149902681REMSYN100AAXX  07064 06702 43/// /2038 10037 20026 38265 48442 57007 333 20019 55000 55300 20000 91152 91238;
0149067020999992011010707004+46433+006100FM-12+167599999V0202001N018519999999N9999999N1+00381+00301999999ADDMA1999999082661MD1510051+9999ME1314439OA149902781REMSYN088AAXX  07074 06702 43/// /2036 10038 20030 38266 48443 55005 333 55300 20000 91154 91239;
0112067020999992011010708004+46433+006100FM-12+167599999V0202001N019019999999N9999999N1+00391+00311999999ADDMA1999999082701ME1314479REMSYN076AAXX  07084 06702 43/// /2037 10039 20031 38270 48447 5//// 333 553// 20058;
0096067020999992011010709004+46433+006100FM-12+167599999V0202001N018019999999N9999999N1+00441+00381999999ADDMA1999999082711ME1314489REMSYN060AAXX  07094 06702 43/// /2035 10044 20038 38271 48448 5////;
0149067020999992011010710004+46433+006100FM-12+167599999V0202001N019019999999N9999999N1+00471+00371999999ADDMA1999999082731MD1210071+9999ME1314509OA149902631REMSYN088AAXX  07104 06702 43/// /2037 10047 20037 38273 48450 52007 333 55301 20418 91151 91238;
0149067020999992011010711004+46433+006100FM-12+167599999V0202001N019019999999N9999999N1+00531+00341999999ADDMA1999999082761MD1110061+9999ME1314529OA149902731REMSYN088AAXX  07114 06702 43/// /2037 10053 20034 38276 48452 51006 333 55306 2//// 91153 91240;
0149067020999992011010712004+46433+006100FM-12+167599999V0202001N018019999999N9999999N1+00481+00361999999ADDMA1999999082731MD1010021+9999ME1314499OA149902781REMSYN088AAXX  07124 06702 43/// /2035 10048 20036 38273 48449 50002 333 55303 20896 91154 91240;
0149067020999992011010713004+46433+006100FM-12+167599999V0202001N016419999999N9999999N1+00541+00311999999ADDMA1999999082741MD1210011+9999ME1314509OA149902881REMSYN088AAXX  07134 06702 43/// /2032 10054 20031 38274 48450 52001 333 55300 20529 91156 91240;
0096067020999992011010714004+46433+006100FM-12+167599999V0202001N014919999999N9999999N1+00511+00311999999ADDMA1999999082761ME1314529REMSYN060AAXX  07144 06702 43/// /2029 10051 20031 38276 48452 5////;
0096067020999992011010715004+46433+006100FM-12+167599999V0202101N013419999999N9999999N1+00571+00261999999ADDMA1999999082801ME1314569REMSYN060AAXX  07154 06702 43/// /2126 10057 20026 38280 48456 5////;
0149067020999992011010716004+46433+006100FM-12+167599999V0202101N013919999999N9999999N1+00531+00271999999ADDMA1999999082831MD1310091+9999ME1314599OA149902571REMSYN088AAXX  07164 06702 43/// /2127 10053 20027 38283 48459 53009 333 55300 20014 91150 91231;
0149067020999992011010717004+46433+006100FM-12+167599999V0202101N016419999999N9999999N1+00521+00211999999ADDMA1999999082821MD1210061+9999ME1314589OA149902631REMSYN088AAXX  07174 06702 43/// /2132 10052 20021 38282 48458 52006 333 55300 20000 91151 91232;
0131067020999992011010718004+46433+006100FM-12+167599999V0202101N014919999999N9999999N1+00501+00211999999ADDKA1120M+00571MA1999999082791ME1314559REMSYN082AAXX  07184 06702 43/// /2129 10050 20021 38279 48455 5//// 333 10057 553// 20000;
0149067020999992011010719004+46433+006100FM-12+167599999V0202101N017019999999N9999999N1+00521+00201999999ADDMA1999999082761MD1719999+9999ME1314529OA149902521REMSYN088AAXX  07194 06702 43/// /2133 10052 20020 38276 48452 57/// 333 55300 20000 91149 91235;
0096067020999992011010720004+46433+006100FM-12+167599999V0202101N013919999999N9999999N1+00531+00171999999ADDMA1999999082771ME1314539REMSYN060AAXX  07204 06702 43/// /2127 10053 20017 38277 48453 5////;
0096067020999992011010721004+46433+006100FM-12+167599999V0202101N012919999999N9999999N1+00501+00161999999ADDMA1999999082791ME1314559REMSYN060AAXX  07214 06702 43/// /2125 10050 20016 38279 48455 5////;
0149067020999992011010722004+46433+006100FM-12+167599999V0202101N015919999999N9999999N1+00531+00121999999ADDMA1999999082781MD1210021+9999ME1314549OA149902571REMSYN088AAXX  07224 06702 43/// /2131 10053 20012 38278 48454 52002 333 55300 20000 91150 91231;
0112067020999992011010723004+46433+006100FM-12+167599999V0202001N011819999999N9999999N1+00471+00151999999ADDMA1999999082821ME1314589REMSYN076AAXX  07234 06702 43/// /2023 10047 20015 38282 48458 5//// 333 553// 20000;
0112067020999992011010800004+46433+006100FM-12+167599999V0202201N014419999999N9999999N1+00451+00061999999ADDMA1999999082781ME1314559REMSYN076AAXX  08004 06702 43/// /2228 10045 20006 38278 48455 5//// 333 553// 20000;
0096067020999992011010801004+46433+006100FM-12+167599999V0202101N015419999999N9999999N1+00421+00091999999ADDMA1999999082771ME1314549REMSYN060AAXX  08014 06702 43/// /2130 10042 20009 38277 48454 5////;
0096067020999992011010802004+46433+006100FM-12+167599999V0202301N011819999999N9999999N1+00301+00081999999ADDMA1999999082771ME1314559REMSYN060AAXX  08024 06702 43/// /2323 10030 20008 38277 48455 5////;
0096067020999992011010803004+46433+006100FM-12+167599999V0202401N014419999999N9999999N1+00211+00151999999ADDMA1999999082771ME1314569REMSYN060AAXX  08034 06702 43/// /2428 10021 20015 38277 48456 5////;
0096067020999992011010804004+46433+006100FM-12+167599999V0202401N014419999999N9999999N1+00271+00201999999ADDMA1999999082771ME1314559REMSYN060AAXX  08044 06702 43/// /2428 10027 20020 38277 48455 5////;
0096067020999992011010805004+46433+006100FM-12+167599999V0202101N012319999999N9999999N1+00301+00161999999ADDMA1999999082821ME1314609REMSYN060AAXX  08054 06702 43/// /2124 10030 20016 38282 48460 5////;
0125067020999992011010806004+46433+006100FM-12+167599999V0202201N012319999999N9999999N1+00321+00131999999ADDKA1999N+00201MA1999999082821ME1314609REMSYN076AAXX  08064 06702 43/// /2224 10032 20013 38282 48460 5//// 333 20020 55010;
0096067020999992011010807004+46433+006100FM-12+167599999V0202101N014419999999N9999999N1+00331+00091999999ADDMA1999999082851ME1314639REMSYN060AAXX  08074 06702 43/// /2128 10033 20009 38285 48463 5////;
0112067020999992011010808004+46433+006100FM-12+167599999V0202101N013419999999N9999999N1+00331+00091999999ADDMA1999999082881ME1314659REMSYN076AAXX  08084 06702 43/// /2126 10033 20009 38288 48465 5//// 333 553// 20040;
0096067020999992011010809004+46433+006100FM-12+167599999V0202101N013919999999N9999999N1+00351+00091999999ADDMA1999999082901ME1314679REMSYN060AAXX  08094 06702 43/// /2127 10035 20009 38290 48467 5////;
0096067020999992011010810004+46433+006100FM-12+167599999V0202101N012319999999N9999999N1+00361+00091999999ADDMA1999999082941ME1314719REMSYN060AAXX  08104 06702 43/// /2124 10036 20009 38294 48471 5////;
0096067020999992011010811004+46433+006100FM-12+167599999V0202101N012319999999N9999999N1+00461+00071999999ADDMA1999999082921ME1314689REMSYN060AAXX  08114 06702 43/// /2124 10046 20007 38292 48468 5////;
0096067020999992011010812004+46433+006100FM-12+167599999V0202101N008719999999N9999999N1+00451+00061999999ADDMA1999999082911ME1314689REMSYN060AAXX  08124 06702 43/// /2117 10045 20006 38291 48468 5////;
0096067020999992011010813004+46433+006100FM-12+167599999V0202301N008719999999N9999999N1+00471-00011999999ADDMA1999999082881ME1314649REMSYN060AAXX  08134 06702 43/// /2317 10047 21001 38288 48464 5////;
0096067020999992011010814004+46433+006100FM-12+167599999V0202201N007719999999N9999999N1+00471-00011999999ADDMA1999999082891ME1314659REMSYN060AAXX  08144 06702 43/// /2215 10047 21001 38289 48465 5////;
0096067020999992011010815004+46433+006100FM-12+167599999V0202101N009819999999N9999999N1+00461-00151999999ADDMA1999999082891ME1314659REMSYN060AAXX  08154 06702 43/// /2119 10046 21015 38289 48465 5////;
0096067020999992011010816004+46433+006100FM-12+167599999V0202101N009319999999N9999999N1+00421-00111999999ADDMA1999999082871ME1314649REMSYN060AAXX  08164 06702 43/// /2118 10042 21011 38287 48464 5////;
0096067020999992011010817004+46433+006100FM-12+167599999V0202101N009319999999N9999999N1+00411-00071999999ADDMA1999999082871ME1314649REMSYN060AAXX  08174 06702 43/// /2118 10041 21007 38287 48464 5////;
0096067020999992011010818004+46433+006100FM-12+167599999V0202001N015419999999N9999999N1+00381-00021999999ADDMA1999999082821ME1314599REMSYN060AAXX  08184 06702 43/// /2030 10038 21002 38282 48459 5////;
0096067020999992011010819004+46433+006100FM-12+167599999V0202101N015419999999N9999999N1+00421-00111999999ADDMA1999999082791ME1314569REMSYN060AAXX  08194 06702 43/// /2130 10042 21011 38279 48456 5////;
0096067020999992011010820004+46433+006100FM-12+167599999V0202001N014919999999N9999999N1+00391-00091999999ADDMA1999999082791ME1314569REMSYN060AAXX  08204 06702 43/// /2029 10039 21009 38279 48456 5////;
0096067020999992011010821004+46433+006100FM-12+167599999V0202001N016419999999N9999999N1+00391-00051999999ADDMA1999999082751ME1314529REMSYN060AAXX  08214 06702 43/// /2032 10039 21005 38275 48452 5////;
0096067020999992011010822004+46433+006100FM-12+167599999V0202001N017019999999N9999999N1+00391-00171999999ADDMA1999999082781ME1314559REMSYN060AAXX  08224 06702 43/// /2033 10039 21017 38278 48455 5////;
0096067020999992011010823004+46433+006100FM-12+167599999V0202101N011819999999N9999999N1+00331-00221999999ADDMA1999999082811ME1314599REMSYN060AAXX  08234 06702 43/// /2123 10033 21022 38281 48459 5////;
0096067020999992011010900004+46433+006100FM-12+167599999V0202201N008719999999N9999999N1+00331-00271999999ADDMA1999999082801ME1314589REMSYN060AAXX  09004 06702 43/// /2217 10033 21027 38280 48458 5////;
0096067020999992011010901004+46433+006100FM-12+167599999V0202101N011819999999N9999999N1+00331-00241999999ADDMA1999999082771ME1314559REMSYN060AAXX  09014 06702 43/// /2123 10033 21024 38277 48455 5////;
0096067020999992011010902004+46433+006100FM-12+167599999V0202301N010819999999N9999999N1+00261-00191999999ADDMA1999999082751ME1314539REMSYN060AAXX  09024 06702 43/// /2321 10026 21019 38275 48453 5////;
0096067020999992011010903004+46433+006100FM-12+167599999V0202101N016419999999N9999999N1+00301-00271999999ADDMA1999999082721ME1314509REMSYN060AAXX  09034 06702 43/// /2132 10030 21027 38272 48450 5////;
0096067020999992011010904004+46433+006100FM-12+167599999V0202201N013919999999N9999999N1+00311-00331999999ADDMA1999999082691ME1314479REMSYN060AAXX  09044 06702 43/// /2227 10031 21033 38269 48447 5////;
0096067020999992011010905004+46433+006100FM-12+167599999V0202301N014919999999N9999999N1+00311-00431999999ADDMA1999999082651ME1314439REMSYN060AAXX  09054 06702 43/// /2329 10031 21043 38265 48443 5////;
0106067020999992011010906004+46433+006100FM-12+167599999V0202301N014419999999N9999999N1+00251-00321999999ADDMA1999999082671ME1314459REMSYN070AAXX  09064 06702 43/// /2328 10025 21032 38267 48445 5//// 333 55020;
0096067020999992011010907004+46433+006100FM-12+167599999V0202301N014419999999N9999999N1+00181-00071999999ADDMA1999999082721ME1314519REMSYN060AAXX  09074 06702 43/// /2328 10018 21007 38272 48451 5////;
0112067020999992011010908004+46433+006100FM-12+167599999V0202101N013919999999N9999999N1+00091+00051999999ADDMA1999999082761ME1314569REMSYN076AAXX  09084 06702 43/// /2127 10009 20005 38276 48456 5//// 333 553// 20000;
0112067020999992011010909004+46433+006100FM-12+167599999V0202201N015919999999N9999999N1+00131+00081999999ADDMA1999999082751ME1314549REMSYN076AAXX  09094 06702 43/// /2231 10013 20008 38275 48454 5//// 333 553// 20018;
0149067020999992011010910004+46433+006100FM-12+167599999V0202201N014419999999N9999999N1+00131+00111999999ADDMA1999999082791MD1210071+9999ME1314589OA149902471REMSYN088AAXX  09104 06702 43/// /2228 10013 20011 38279 48458 52007 333 55300 20043 91148 91231;
0149067020999992011010911004+46433+006100FM-12+167599999V0202201N014419999999N9999999N1+00081+00051999999ADDMA1999999082801MD1210041+9999ME1314609OA149902321REMSYN088AAXX  09114 06702 43/// /2228 10008 20005 38280 48460 52004 333 55300 20058 91145 91230;
0149067020999992011010912004+46433+006100FM-12+167599999V0202501N012319999999N9999999N1+00021+00021999999ADDMA1999999082731MD1810021+9999ME1314539OA149902571REMSYN088AAXX  09124 06702 43/// /2524 10002 20002 38273 48453 58002 333 55300 20054 91150 91233;
0149067020999992011010913004+46433+006100FM-12+167599999V0202701N009819999999N9999999N1-00041-00041999999ADDMA1999999082731MD1710061+9999ME1314549OA149902111REMSYN088AAXX  09134 06702 43/// /2719 11004 21004 38273 48454 57006 333 55300 20108 91141 91226;
0096067020999992011010914004+46433+006100FM-12+167599999V0202801N008719999999N9999999N1-00101-00101999999ADDMA1999999082751ME1314569REMSYN060AAXX  09144 06702 43/// /2817 11010 21010 38275 48456 5////;
0096067020999992011010915004+46433+006100FM-12+167599999V0202801N009319999999N9999999N1-00151-00151999999ADDMA1999999082781ME1314599REMSYN060AAXX  09154 06702 43/// /2818 11015 21015 38278 48459 5////;
0149067020999992011010916004+46433+006100FM-12+167599999V0202801N009319999999N9999999N1-00131-00141999999ADDMA1999999082821MD1210091+9999ME1314639OA149901181REMSYN088AAXX  09164 06702 43/// /2818 11013 21014 38282 48463 52009 333 55300 20011 91123 91219;
0149067020999992011010917004+46433+006100FM-12+167599999V0202801N010319999999N9999999N1-00161-00161999999ADDMA1999999082841MD1110091+9999ME1314659OA149901291REMSYN088AAXX  09174 06702 43/// /2820 11016 21016 38284 48465 51009 333 55300 20000 91125 91221;
0168067020999992011010918004+46433+006100FM-12+167599999V0202801N007719999999N9999999N1-00121-00121999999ADDKA1120M+00291MA1999999082881MD1310101+9999ME1314699OA149902571REMSYN094AAXX  09184 06702 43/// /2815 11012 21012 38288 48469 53010 333 10029 55300 20000 91150 91232;
0149067020999992011010919004+46433+006100FM-12+167599999V0202601N005119999999N9999999N1-00071-00101999999ADDMA1999999082911MD1310091+9999ME1314719OA149901181REMSYN088AAXX  09194 06702 43/// /2610 11007 21010 38291 48471 53009 333 55300 20000 91123 91219;
0149067020999992011010920004+46433+006100FM-12+167599999V0202601N007219999999N9999999N1-00171-00211999999ADDMA1999999082921MD1210081+9999ME1314739OA149900821REMSYN088AAXX  09204 06702 43/// /2614 11017 21021 38292 48473 52008 333 55300 20000 91116 91214;
0149067020999992011010921004+46433+006100FM-12+167599999V0202701N006719999999N9999999N1-00211-00211999999ADDMA1999999082971MD1210091+9999ME1314789OA149901291REMSYN088AAXX  09214 06702 43/// /2713 11021 21021 38297 48478 52009 333 55300 20000 91125 91221;
0149067020999992011010922004+46433+006100FM-12+167599999V0202701N005719999999N9999999N1-00201-00201999999ADDMA1999999082991MD1210081+9999ME1314809OA149900821REMSYN088AAXX  09224 06702 43/// /2711 11020 21020 38299 48480 52008 333 55300 20000 91116 91214;
0149067020999992011010923004+46433+006100FM-12+167599999V0202701N007719999999N9999999N1-00181-00181999999ADDMA1999999082991MD1210071+9999ME1314809OA149900881REMSYN088AAXX  09234 06702 43/// /2715 11018 21018 38299 48480 52007 333 55300 20000 91117 91216;
0149067020999992011011000004+46433+006100FM-12+167599999V0202701N006219999999N9999999N1-00171-00171999999ADDMA1999999083021MD1210051+9999ME1314839OA149902011REMSYN088AAXX  10004 06702 43/// /2712 11017 21017 38302 48483 52005 333 55300 20000 91139 91230;
0149067020999992011011001004+46433+006100FM-12+167599999V0202801N005719999999N9999999N1-00181-00181999999ADDMA1999999083021MD1210031+9999ME1314839OA149900821REMSYN088AAXX  10014 06702 43/// /2811 11018 21018 38302 48483 52003 333 55300 20000 91116 91214;
0112067020999992011011002004+46433+006100FM-12+167599999V0202901N006219999999N9999999N1-00181-00181999999ADDMA1999999083031ME1314849REMSYN076AAXX  10024 06702 43/// /2912 11018 21018 38303 48484 5//// 333 553// 20000;
0096067020999992011011003004+46433+006100FM-12+167599999V0203101N005119999999N9999999N1-00181-00181999999ADDMA1999999083021ME1314839REMSYN060AAXX  10034 06702 43/// /3110 11018 21018 38302 48483 5////;
0112067020999992011011004004+46433+006100FM-12+167599999V0203101N003119999999N9999999N1-00211-00211999999ADDMA1999999083021ME1314839REMSYN076AAXX  10044 06702 43/// /3106 11021 21021 38302 48483 5//// 333 553// 20000;
0149067020999992011011005004+46433+006100FM-12+167599999V0203201N002619999999N9999999N1-00211-00211999999ADDMA1999999083021MD1719999+9999ME1314839OA149900571REMSYN088AAXX  10054 06702 43/// /3205 11021 21021 38302 48483 57/// 333 55300 20000 91111 91208;
0125067020999992011011006004+46433+006100FM-12+167599999V0201201N003619999999N9999999N1-00231-00231999999ADDKA1999N-00261MA1999999083011ME1314829REMSYN076AAXX  10064 06702 43/// /1207 11023 21023 38301 48482 5//// 333 21026 55000;
0149067020999992011011007004+46433+006100FM-12+167599999V0201501N003119999999N9999999N1-00171-00261999999ADDMA1999999083041MD1210021+9999ME1314859OA149900461REMSYN088AAXX  10074 06702 43/// /1506 11017 21026 38304 48485 52002 333 55300 20000 91109 91208;
0096067020999992011011008004+46433+006100FM-12+167599999V0201501N001019999999N9999999N1-00201-00201999999ADDMA1999999083081ME1314899REMSYN060AAXX  10084 06702 43/// /1502 11020 21020 38308 48489 5////;
0096067020999992011011009004+46433+006100FM-12+167599999V0201101N002619999999N9999999N1-00181-00181999999ADDMA1999999083081ME1314899REMSYN060AAXX  10094 06702 43/// /1105 11018 21018 38308 48489 5////;
0149067020999992011011010004+46433+006100FM-12+167599999V0201101N004619999999N9999999N1-00161-00161999999ADDMA1999999083081MD1210041+9999ME1314899OA149900571REMSYN088AAXX  10104 06702 43/// /1109 11016 21016 38308 48489 52004 333 55300 20497 91111 91209;
0149067020999992011011011004+46433+006100FM-12+167599999V0201201N003619999999N9999999N1-00201-00201999999ADDMA1999999083071MD1819999+9999ME1314889OA149900571REMSYN088AAXX  10114 06702 43/// /1207 11020 21020 38307 48488 58/// 333 55300 20623 91111 91209;
0112067020999992011011012004+46433+006100FM-12+167599999V0201501N001519999999N9999999N1-00231-00231999999ADDMA1999999083021ME1314839REMSYN076AAXX  10124 06702 43/// /1503 11023 21023 38302 48483 5//// 333 553// 2////;
0096067020999992011011013004+46433+006100FM-12+167599999V0201101N004619999999N9999999N1-00091-00091999999ADDMA1999999082941ME1314749REMSYN060AAXX  10134 06702 43/// /1109 11009 21009 38294 48474 5////;
0096067020999992011011014004+46433+006100FM-12+167599999V0201101N003119999999N9999999N1-00081-00081999999ADDMA1999999082901ME1314719REMSYN060AAXX  10144 06702 43/// /1106 11008 21008 38290 48471 5////;
0096067020999992011011015004+46433+006100FM-12+167599999V0201201N003119999999N9999999N1-00251-00251999999ADDMA1999999082891ME1314719REMSYN060AAXX  10154 06702 43/// /1206 11025 21025 38289 48471 5////;
0096067020999992011011016004+46433+006100FM-12+167599999V0201401N004119999999N9999999N1-00191-00251999999ADDMA1999999082871ME1314689REMSYN060AAXX  10164 06702 43/// /1408 11019 21025 38287 48468 5////;
0096067020999992011011017004+46433+006100FM-12+167599999V0201601N002619999999N9999999N1-00041-00441999999ADDMA1999999082861ME1314669REMSYN060AAXX  10174 06702 43/// /1605 11004 21044 38286 48466 5////;
0119067020999992011011018004+46433+006100FM-12+167599999V0201801N001519999999N9999999N1-00031-00621999999ADDKA1999M+00011MA1999999082851ME1314659REMSYN070AAXX  10184 06702 43/// /1803 11003 21062 38285 48465 5//// 333 10001;
0096067020999992011011019004+46433+006100FM-12+167599999V0202401N002119999999N9999999N1+00001-00581999999ADDMA1999999082861ME1314669REMSYN060AAXX  10194 06702 43/// /2404 10000 21058 38286 48466 5////;
0096067020999992011011020004+46433+006100FM-12+167599999V0201701N002619999999N9999999N1-00361-00361999999ADDMA1999999082841ME1314679REMSYN060AAXX  10204 06702 43/// /1705 11036 21036 38284 48467 5////;
0096067020999992011011021004+46433+006100FM-12+167599999V0201401N004619999999N9999999N1-00261-00341999999ADDMA1999999082821ME1314649REMSYN060AAXX  10214 06702 43/// /1409 11026 21034 38282 48464 5////;
0096067020999992011011022004+46433+006100FM-12+167599999V0201601N006219999999N9999999N1-00321-00361999999ADDMA1999999082811ME1314649REMSYN060AAXX  10224 06702 43/// /1612 11032 21036 38281 48464 5////;
0096067020999992011011023004+46433+006100FM-12+167599999V0201701N007719999999N9999999N1-00261-00301999999ADDMA1999999082771ME1314599REMSYN060AAXX  10234 06702 43/// /1715 11026 21030 38277 48459 5////;
0096067020999992011011100004+46433+006100FM-12+167599999V0201901N009319999999N9999999N1-00261-00301999999ADDMA1999999082721ME1314559REMSYN060AAXX  11004 06702 43/// /1918 11026 21030 38272 48455 5////;
0096067020999992011011101004+46433+006100FM-12+167599999V0202001N010819999999N9999999N1-00241-00291999999ADDMA1999999082671ME1314509REMSYN060AAXX  11014 06702 43/// /2021 11024 21029 38267 48450 5////;
0096067020999992011011102004+46433+006100FM-12+167599999V0202101N010319999999N9999999N1-00261-00301999999ADDMA1999999082661ME1314499REMSYN060AAXX  11024 06702 43/// /2120 11026 21030 38266 48449 5////;
0096067020999992011011103004+46433+006100FM-12+167599999V0202001N011819999999N9999999N1-00201-00491999999ADDMA1999999082621ME1314449REMSYN060AAXX  11034 06702 43/// /2023 11020 21049 38262 48444 5////;
0096067020999992011011104004+46433+006100FM-12+167599999V0202001N009819999999N9999999N1-00281-00381999999ADDMA1999999082591ME1314429REMSYN060AAXX  11044 06702 43/// /2019 11028 21038 38259 48442 5////;
0096067020999992011011105004+46433+006100FM-12+167599999V0201901N010319999999N9999999N1-00301-00491999999ADDMA1999999082531ME1314379REMSYN060AAXX  11054 06702 43/// /1920 11030 21049 38253 48437 5////;
0106067020999992011011106004+46433+006100FM-12+167599999V0202001N011319999999N9999999N1-00321-00561999999ADDMA1999999082501ME1314349REMSYN070AAXX  11064 06702 43/// /2022 11032 21056 38250 48434 5//// 333 55009;
0149067020999992011011107004+46433+006100FM-12+167599999V0201901N011819999999N9999999N1-00351-00771999999ADDMA1999999082481MD1719999+9999ME1314329OA149901701REMSYN088AAXX  11074 06702 43/// /1923 11035 21077 38248 48432 57/// 333 55300 20000 91133 91224;
0112067020999992011011108004+46433+006100FM-12+167599999V0201901N012919999999N9999999N1-00291-01121999999ADDMA1999999082461ME1314309REMSYN076AAXX  11084 06702 43/// /1925 11029 21112 38246 48430 5//// 333 553// 20119;
0096067020999992011011109004+46433+006100FM-12+167599999V0202001N014919999999N9999999N1-00231-01151999999ADDMA1999999082441ME1314279REMSYN060AAXX  11094 06702 43/// /2029 11023 21115 38244 48427 5////;
0149067020999992011011110004+46433+006100FM-12+167599999V0202001N013919999999N9999999N1-00251-00631999999ADDMA1999999082451MD1710031+9999ME1314289OA149902011REMSYN088AAXX  11104 06702 43/// /2027 11025 21063 38245 48428 57003 333 55300 20353 91139 91231;
0149067020999992011011111004+46433+006100FM-12+167599999V0202001N013919999999N9999999N1-00141-00171999999ADDMA1999999082391MD1710071+9999ME1314219OA149901961REMSYN088AAXX  11114 06702 43/// /2027 11014 21017 38239 48421 57007 333 55300 20310 91138 91231;
0112067020999992011011112004+46433+006100FM-12+167599999V0202401N010819999999N9999999N1-00191-00221999999ADDMA1999999082321ME1314159REMSYN076AAXX  11124 06702 43/// /2421 11019 21022 38232 48415 5//// 333 553// 20389;
0149067020999992011011113004+46433+006100FM-12+167599999V0202601N012919999999N9999999N1-00231-00291999999ADDMA1999999082261MD1710191+9999ME1314109OA149901701REMSYN088AAXX  11134 06702 43/// /2625 11023 21029 38226 48410 57019 333 55300 20281 91133 91225;
0096067020999992011011114004+46433+006100FM-12+167599999V0202601N011819999999N9999999N1-00301-00321999999ADDMA1999999082281ME1314129REMSYN060AAXX  11144 06702 43/// /2623 11030 21032 38228 48412 5////;
0096067020999992011011115004+46433+006100FM-12+167599999V0202801N010319999999N9999999N1-00281-00301999999ADDMA1999999082381ME1314229REMSYN060AAXX  11154 06702 43/// /2820 11028 21030 38238 48422 5////;
0149067020999992011011116004+46433+006100FM-12+167599999V0202801N009319999999N9999999N1-00231-00231999999ADDMA1999999082451MD1210191+9999ME1314289OA149901541REMSYN088AAXX  11164 06702 43/// /2818 11023 21023 38245 48428 52019 333 55300 20068 91130 91222;
0149067020999992011011117004+46433+006100FM-12+167599999V0202801N008219999999N9999999N1-00211-00211999999ADDMA1999999082511MD1210201+9999ME1314349OA149901541REMSYN088AAXX  11174 06702 43/// /2816 11021 21021 38251 48434 52020 333 55300 20000 91130 91222;
0168067020999992011011118004+46433+006100FM-12+167599999V0202801N007719999999N9999999N1-00251-00251999999ADDKA1120M-00141MA1999999082601MD1210221+9999ME1314439OA149902011REMSYN094AAXX  11184 06702 43/// /2815 11025 21025 38260 48443 52022 333 11014 55300 20000 91139 91231;
0149067020999992011011119004+46433+006100FM-12+167599999V0203101N008719999999N9999999N1-00281-00281999999ADDMA1999999082681MD1310231+9999ME1314519OA149901181REMSYN088AAXX  11194 06702 43/// /3117 11028 21028 38268 48451 53023 333 55300 20000 91123 91218;
0149067020999992011011120004+46433+006100FM-12+167599999V0203101N010319999999N9999999N1-00221-00221999999ADDMA1999999082731MD1210221+9999ME1314559OA149901391REMSYN088AAXX  11204 06702 43/// /3120 11022 21022 38273 48455 52022 333 55300 20000 91127 91221;
0149067020999992011011121004+46433+006100FM-12+167599999V0203101N010319999999N9999999N1-00211-00211999999ADDMA1999999082841MD1210241+9999ME1314669OA149901541REMSYN088AAXX  11214 06702 43/// /3120 11021 21021 38284 48466 52024 333 55300 20000 91130 91222;
0149067020999992011011122004+46433+006100FM-12+167599999V0203101N007219999999N9999999N1-00211-00211999999ADDMA1999999082931MD1310251+9999ME1314749OA149901441REMSYN088AAXX  11224 06702 43/// /3114 11021 21021 38293 48474 53025 333 55300 20000 91128 91221;
0149067020999992011011123004+46433+006100FM-12+167599999V0202901N005719999999N9999999N1-00101-00221999999ADDMA1999999082991MD1110261+9999ME1314799OA149901291REMSYN088AAXX  11234 06702 43/// /2911 11010 21022 38299 48479 51026 333 55300 20000 91125 91218;
0149067020999992011011200004+46433+006100FM-12+167599999V0202901N008219999999N9999999N1-00211-00211999999ADDMA1999999083031MD1110191+9999ME1314849OA149901701REMSYN088AAXX  12004 06702 43/// /2916 11021 21021 38303 48484 51019 333 55300 20000 91133 91225;
0149067020999992011011201004+46433+006100FM-12+167599999V0203001N006719999999N9999999N1-00191-00221999999ADDMA1999999083091MD1110161+9999ME1314909OA149901081REMSYN088AAXX  12014 06702 43/// /3013 11019 21022 38309 48490 51016 333 55300 20000 91121 91216;
0112067020999992011011202004+46433+006100FM-12+167599999V0203101N006219999999N9999999N1-00201-00201999999ADDMA1999999083171ME1314979REMSYN076AAXX  12024 06702 43/// /3112 11020 21020 38317 48497 5//// 333 553// 20000;
0096067020999992011011203004+46433+006100FM-12+167599999V0203101N007719999999N9999999N1-00111-00221999999ADDMA1999999083221ME1315029REMSYN060AAXX  12034 06702 43/// /3115 11011 21022 38322 48502 5////;
0096067020999992011011204004+46433+006100FM-12+167599999V0203001N006219999999N9999999N1-00261-00261999999ADDMA1999999083251ME1315059REMSYN060AAXX  12044 06702 43/// /3012 11026 21026 38325 48505 5////;
0112067020999992011011205004+46433+006100FM-12+167599999V0203001N007719999999N9999999N1-00331-00351999999ADDMA1999999083261ME1315079REMSYN076AAXX  12054 06702 43/// /3015 11033 21035 38326 48507 5//// 333 553// 20000;
0125067020999992011011206004+46433+006100FM-12+167599999V0202901N006719999999N9999999N1-00351-00351999999ADDKA1999N-00351MA1999999083331ME1315149REMSYN076AAXX  12064 06702 43/// /2913 11035 21035 38333 48514 5//// 333 21035 55007;
0149067020999992011011207004+46433+006100FM-12+167599999V0202901N006719999999N9999999N1-00391-00431999999ADDMA1999999083351MD1210101+9999ME1315169OA149901181REMSYN088AAXX  12074 06702 43/// /2913 11039 21043 38335 48516 52010 333 55300 20000 91123 91219;
0096067020999992011011208004+46433+006100FM-12+167599999V0202101N006719999999N9999999N1-00281-00411999999ADDMA1999999083361ME1315169REMSYN060AAXX  12084 06702 43/// /2113 11028 21041 38336 48516 5////;
0096067020999992011011209004+46433+006100FM-12+167599999V0202501N008719999999N9999999N1-00201-00471999999ADDMA1999999083391ME1315199REMSYN060AAXX  12094 06702 43/// /2517 11020 21047 38339 48519 5////;
0149067020999992011011210004+46433+006100FM-12+167599999V0202601N009319999999N9999999N1-00131-00571999999ADDMA1999999083381MD1019999+9999ME1315179OA149901241REMSYN088AAXX  12104 06702 43/// /2618 11013 21057 38338 48517 50/// 333 55300 20389 91124 91222;
0126067020999992011011211004+46433+006100FM-12+167599999V0202701N010319999999N9999999N1-00161-00601999999ADDMA1999999083411MD1210051+9999ME1315209REMSYN076AAXX  12114 06702 43/// /2720 11016 21060 38341 48520 52005 333 55300 20724;
0096067020999992011011212004+46433+006100FM-12+167599999V0202801N008719999999N9999999N1-00181-00771999999ADDMA1999999083391ME1315189REMSYN060AAXX  12124 06702 43/// /2817 11018 21077 38339 48518 5////;
0096067020999992011011213004+46433+006100FM-12+167599999V0202801N009319999999N9999999N1-00161-01291999999ADDMA1999999083381ME1315179REMSYN060AAXX  12134 06702 43/// /2818 11016 21129 38338 48517 5////;
0096067020999992011011214004+46433+006100FM-12+167599999V0202701N009319999999N9999999N1-00121-01781999999ADDMA1999999083401ME1315199REMSYN060AAXX  12144 06702 43/// /2718 11012 21178 38340 48519 5////;
0096067020999992011011215004+46433+006100FM-12+167599999V0202601N009319999999N9999999N1-00131-00701999999ADDMA1999999083431ME1315229REMSYN060AAXX  12154 06702 43/// /2618 11013 21070 38343 48522 5////;
0149067020999992011011216004+46433+006100FM-12+167599999V0202401N007219999999N9999999N1-00131-00491999999ADDMA1999999083471MD1210091+9999ME1315269OA149901131REMSYN088AAXX  12164 06702 43/// /2414 11013 21049 38347 48526 52009 333 55300 20050 91122 91218;
0149067020999992011011217004+46433+006100FM-12+167599999V0202801N010319999999N9999999N1-00111-00111999999ADDMA1999999083451MD1210051+9999ME1315249OA149901391REMSYN088AAXX  12174 06702 43/// /2820 11011 21011 38345 48524 52005 333 55300 20000 91127 91220;
0168067020999992011011218004+46433+006100FM-12+167599999V0202701N010319999999N9999999N1-00081-00081999999ADDKA1120M+00021MA1999999083481MD1210051+9999ME1315279OA149901391REMSYN094AAXX  12184 06702 43/// /2720 11008 21008 38348 48527 52005 333 10002 55300 20000 91127 91222;
0149067020999992011011219004+46433+006100FM-12+167599999V0202801N010319999999N9999999N1+00001+00001999999ADDMA1999999083531MD1210061+9999ME1315319OA149901291REMSYN088AAXX  12194 06702 43/// /2820 10000 20000 38353 48531 52006 333 55300 20000 91125 91221;
0149067020999992011011220004+46433+006100FM-12+167599999V0202801N009819999999N9999999N1+00041+00041999999ADDMA1999999083551MD1210101+9999ME1315339OA149901241REMSYN088AAXX  12204 06702 43/// /2819 10004 20004 38355 48533 52010 333 55300 20000 91124 91221;
0149067020999992011011221004+46433+006100FM-12+167599999V0202801N010319999999N9999999N1+00041+00041999999ADDMA1999999083551MD1219999+9999ME1315339OA149901391REMSYN088AAXX  12214 06702 43/// /2820 10004 20004 38355 48533 52/// 333 55300 20000 91127 91221;
0149067020999992011011222004+46433+006100FM-12+167599999V0202901N010819999999N9999999N1+00091+00091999999ADDMA1999999083541MD1010011+9999ME1315319OA149901341REMSYN088AAXX  12224 06702 43/// /2921 10009 20009 38354 48531 50001 333 55300 20000 91126 91221;
0149067020999992011011223004+46433+006100FM-12+167599999V0202801N009819999999N9999999N1+00091+00091999999ADDMA1999999083571MD1210021+9999ME1315349OA149901341REMSYN088AAXX  12234 06702 43/// /2819 10009 20009 38357 48534 52002 333 55300 20000 91126 91222;
0149067020999992011011300004+46433+006100FM-12+167599999V0202801N010319999999N9999999N1+00091+00091999999ADDMA1999999083571MD1219999+9999ME1315349OA149901391REMSYN088AAXX  13004 06702 43/// /2820 10009 20009 38357 48534 52/// 333 55300 20000 91127 91222;
0168067020999992011011301004+46433+006100FM-12+167599999V0202801N010819999999N9999999N1+00111+00111999999ADDMA1999999083541MD1410001+9999ME1315319OA149901341REMSYN088AAXX  13014 06702 43/// /2821 10011 20011 38354 48531 58000 333 55300 20000 91126 91222;EQDQ01+000082APCTEN
0149067020999992011011302004+46433+006100FM-12+167599999V0202801N010819999999N9999999N1+00121+00121999999ADDMA1999999083541MD1719999+9999ME1315319OA149901391REMSYN088AAXX  13024 06702 43/// /2821 10012 20012 38354 48531 57/// 333 55300 20000 91127 91222;
0096067020999992011011303004+46433+006100FM-12+167599999V0202801N010819999999N9999999N1+00111+00111999999ADDMA1999999083551ME1315329REMSYN060AAXX  13034 06702 43/// /2821 10011 20011 38355 48532 5////;
0149067020999992011011304004+46433+006100FM-12+167599999V0202701N009319999999N9999999N1+00111+00111999999ADDMA1999999083551MD1019999+9999ME1315329OA149901391REMSYN088AAXX  13044 06702 43/// /2718 10011 20011 38355 48532 50/// 333 55300 20000 91127 91221;
0112067020999992011011305004+46433+006100FM-12+167599999V0202801N009319999999N9999999N1+00141+00141999999ADDMA1999999083551ME1315329REMSYN076AAXX  13054 06702 43/// /2818 10014 20014 38355 48532 5//// 333 553// 20000;
0182067020999992011011306004+46433+006100FM-12+167599999V0202801N009319999999N9999999N1+00141+00141999999ADDGJ100009KA1999N-00101MA1999999083561MD1210011+9999ME1315339OA149901391REMSYN100AAXX  13064 06702 43/// /2818 10014 20014 38356 48533 52001 333 21010 55000 55300 20000 91127 91222;
0096067020999992011011307004+46433+006100FM-12+167599999V0202801N008219999999N9999999N1+00141+00141999999ADDMA1999999083601ME1315379REMSYN060AAXX  13074 06702 43/// /2816 10014 20014 38360 48537 5////;
0096067020999992011011308004+46433+006100FM-12+167599999V0202801N008719999999N9999999N1+00141+00141999999ADDMA1999999083631ME1315409REMSYN060AAXX  13084 06702 43/// /2817 10014 20014 38363 48540 5////;
0096067020999992011011309004+46433+006100FM-12+167599999V0202801N010319999999N9999999N1+00201+00201999999ADDMA1999999083621ME1315399REMSYN060AAXX  13094 06702 43/// /2820 10020 20020 38362 48539 5////;
0096067020999992011011310004+46433+006100FM-12+167599999V0202801N009319999999N9999999N1+00211+00211999999ADDMA1999999083661ME1315429REMSYN060AAXX  13104 06702 43/// /2818 10021 20021 38366 48542 5////;
0096067020999992011011311004+46433+006100FM-12+167599999V0202801N008219999999N9999999N1+00211+00211999999ADDMA1999999083641ME1315409REMSYN060AAXX  13114 06702 43/// /2816 10021 20021 38364 48540 5////;
0096067020999992011011312004+46433+006100FM-12+167599999V0202901N008219999999N9999999N1+00241+00241999999ADDMA1999999083621ME1315389REMSYN060AAXX  13124 06702 43/// /2916 10024 20024 38362 48538 5////;
0096067020999992011011313004+46433+006100FM-12+167599999V0202901N007719999999N9999999N1+00311+00311999999ADDMA1999999083581ME1315349REMSYN060AAXX  13134 06702 43/// /2915 10031 20031 38358 48534 5////;
0096067020999992011011314004+46433+006100FM-12+167599999V0202801N006719999999N9999999N1+00281+00281999999ADDMA1999999083581ME1315349REMSYN060AAXX  13144 06702 43/// /2813 10028 20028 38358 48534 5////;
0096067020999992011011315004+46433+006100FM-12+167599999V0202801N006219999999N9999999N1+00271+00271999999ADDMA1999999083591ME1315359REMSYN060AAXX  13154 06702 43/// /2812 10027 20027 38359 48535 5////;
0096067020999992011011316004+46433+006100FM-12+167599999V0202801N007219999999N9999999N1+00261+00261999999ADDMA1999999083601ME1315369REMSYN060AAXX  13164 06702 43/// /2814 10026 20026 38360 48536 5////;
0149067020999992011011317004+46433+006100FM-12+167599999V0202801N007719999999N9999999N1+00281+00281999999ADDMA1999999083601MD1210021+9999ME1315369OA149901031REMSYN088AAXX  13174 06702 43/// /2815 10028 20028 38360 48536 52002 333 55300 20000 91120 91215;
0168067020999992011011318004+46433+006100FM-12+167599999V0203001N007719999999N9999999N1+00271+00271999999ADDKA1120M+00321MA1999999083591MD1710011+9999ME1315359OA149901291REMSYN094AAXX  13184 06702 43/// /3015 10027 20027 38359 48535 57001 333 10032 55300 20000 91125 91220;
0149067020999992011011319004+46433+006100FM-12+167599999V0203001N007719999999N9999999N1+00231+00231999999ADDMA1999999083591MD1710011+9999ME1315359OA149901081REMSYN088AAXX  13194 06702 43/// /3015 10023 20023 38359 48535 57001 333 55300 20000 91121 91217;
0149067020999992011011320004+46433+006100FM-12+167599999V0202901N007719999999N9999999N1+00201+00201999999ADDMA1999999083591MD1710011+9999ME1315369OA149901081REMSYN088AAXX  13204 06702 43/// /2915 10020 20020 38359 48536 57001 333 55300 20000 91121 91217;
0149067020999992011011321004+46433+006100FM-12+167599999V0202901N007219999999N9999999N1+00191+00191999999ADDMA1999999083571MD1710021+9999ME1315349OA149901081REMSYN088AAXX  13214 06702 43/// /2914 10019 20019 38357 48534 57002 333 55300 20000 91121 91217;
0149067020999992011011322004+46433+006100FM-12+167599999V0202901N007719999999N9999999N1+00191+00191999999ADDMA1999999083531MD1710061+9999ME1315309OA149900981REMSYN088AAXX  13224 06702 43/// /2915 10019 20019 38353 48530 57006 333 55300 20000 91119 91216;
0149067020999992011011323004+46433+006100FM-12+167599999V0202901N006719999999N9999999N1+00171+00171999999ADDMA1999999083521MD1710071+9999ME1315299OA149900981REMSYN088AAXX  13234 06702 43/// /2913 10017 20017 38352 48529 57007 333 55300 20000 91119 91216;
0149067020999992011011400004+46433+006100FM-12+167599999V0202901N008219999999N9999999N1+00161+00161999999ADDMA1999999083501MD1710071+9999ME1315279OA149901081REMSYN088AAXX  14004 06702 43/// /2916 10016 20016 38350 48527 57007 333 55300 20000 91121 91217;
0149067020999992011011401004+46433+006100FM-12+167599999V0202901N007719999999N9999999N1+00131+00131999999ADDMA1999999083481MD1710051+9999ME1315259OA149901081REMSYN088AAXX  14014 06702 43/// /2915 10013 20013 38348 48525 57005 333 55300 20000 91121 91216;
0112067020999992011011402004+46433+006100FM-12+167599999V0202901N008719999999N9999999N1+00111+00111999999ADDMA1999999083491ME1315269REMSYN076AAXX  14024 06702 43/// /2917 10011 20011 38349 48526 5//// 333 553// 20000;
0149067020999992011011403004+46433+006100FM-12+167599999V0202801N005119999999N9999999N1+00061+00061999999ADDMA1999999083491MD1510011+9999ME1315279OA149901081REMSYN088AAXX  14034 06702 43/// /2810 10006 20006 38349 48527 55001 333 55300 20000 91121 91217;
0149067020999992011011404004+46433+006100FM-12+167599999V0202801N004619999999N9999999N1+00031+00031999999ADDMA1999999083471MD1010011+9999ME1315259OA149900981REMSYN088AAXX  14044 06702 43/// /2809 10003 20003 38347 48525 50001 333 55300 20000 91119 91215;
0149067020999992011011405004+46433+006100FM-12+167599999V0203001N004619999999N9999999N1+00031+00031999999ADDMA1999999083461MD1719999+9999ME1315249OA149900721REMSYN088AAXX  14054 06702 43/// /3009 10003 20003 38346 48524 57/// 333 55300 20000 91114 91211;
0182067020999992011011406004+46433+006100FM-12+167599999V0202301N003119999999N9999999N1+00301-00111999999ADDGJ100009KA1999N-00011MA1999999083471MD1510021+9999ME1315239OA149901081REMSYN100AAXX  14064 06702 43/// /2306 10030 21011 38347 48523 55002 333 21001 55000 55300 20000 91121 91217;
0168067020999992011011407004+46433+006100FM-12+167599999V0202301N003619999999N9999999N1+00221-00071999999ADDMA1999999083471MD1410001+9999ME1315249OA149900511REMSYN088AAXX  14074 06702 43/// /2307 10022 21007 38347 48524 52000 333 55300 20000 91110 91208;EQDQ01+000022APCTEN
0096067020999992011011408004+46433+006100FM-12+167599999V0202101N005119999999N9999999N1+00571-00271999999ADDMA1999999083471ME1315229REMSYN060AAXX  14084 06702 43/// /2110 10057 21027 38347 48522 5////;
0096067020999992011011409004+46433+006100FM-12+167599999V0202501N004619999999N9999999N1+00551-00241999999ADDMA1999999083471ME1315229REMSYN060AAXX  14094 06702 43/// /2509 10055 21024 38347 48522 5////;
0096067020999992011011410004+46433+006100FM-12+167599999V0202301N006719999999N9999999N1+00691-00811999999ADDMA1999999083461ME1315209REMSYN060AAXX  14104 06702 43/// /2313 10069 21081 38346 48520 5////;
0149067020999992011011411004+46433+006100FM-12+167599999V0202401N007719999999N9999999N1+00651-00821999999ADDMA1999999083441MD1710031+9999ME1315199OA149900881REMSYN088AAXX  14114 06702 43/// /2415 10065 21082 38344 48519 57003 333 553// 2//// 91117 91215;
0149067020999992011011412004+46433+006100FM-12+167599999V0202501N008219999999N9999999N1+00611-00681999999ADDMA1999999083401MD1810071+9999ME1315159OA149901081REMSYN088AAXX  14124 06702 43/// /2516 10061 21068 38340 48515 58007 333 553// 2//// 91121 91217;
0149067020999992011011413004+46433+006100FM-12+167599999V0202401N008219999999N9999999N1+00651-00821999999ADDMA1999999083381MD1710081+9999ME1315139OA149901081REMSYN088AAXX  14134 06702 43/// /2416 10065 21082 38338 48513 57008 333 553// 2//// 91121 91218;
0112067020999992011011414004+46433+006100FM-12+167599999V0202401N010819999999N9999999N1+00631-00941999999ADDMA1999999083351ME1315109REMSYN076AAXX  14144 06702 43/// /2421 10063 21094 38335 48510 5//// 333 553// 20976;
0149067020999992011011415004+46433+006100FM-12+167599999V0202401N010819999999N9999999N1+00641-01001999999ADDMA1999999083371MD1510031+9999ME1315129OA149901291REMSYN088AAXX  14154 06702 43/// /2421 10064 21100 38337 48512 55003 333 55309 20770 91125 91221;
0149067020999992011011416004+46433+006100FM-12+167599999V0202301N010319999999N9999999N1+00601-01021999999ADDMA1999999083391MD1210011+9999ME1315149OA149901291REMSYN088AAXX  14164 06702 43/// /2320 10060 21102 38339 48514 52001 333 55304 20216 91125 91221;
0149067020999992011011417004+46433+006100FM-12+167599999V0202401N011319999999N9999999N1+00541-01041999999ADDMA1999999083371MD1010021+9999ME1315129OA149901391REMSYN088AAXX  14174 06702 43/// /2422 10054 21104 38337 48512 50002 333 55300 20004 91127 91223;
0168067020999992011011418004+46433+006100FM-12+167599999V0202601N012919999999N9999999N1+00411-00881999999ADDKA1120M+00711MA1999999083361MD1810011+9999ME1315129OA149901491REMSYN094AAXX  14184 06702 43/// /2625 10041 21088 38336 48512 58001 333 10071 55300 20000 91129 91225;
0149067020999992011011419004+46433+006100FM-12+167599999V0202701N012319999999N9999999N1+00171-00411999999ADDMA1999999083381MD1510011+9999ME1315159OA149901541REMSYN088AAXX  14194 06702 43/// /2724 10017 21041 38338 48515 55001 333 55300 20000 91130 91225;
0149067020999992011011420004+46433+006100FM-12+167599999V0202801N012319999999N9999999N1+00141-00151999999ADDMA1999999083421MD1210051+9999ME1315199OA149901601REMSYN088AAXX  14204 06702 43/// /2824 10014 21015 38342 48519 52005 333 55300 20000 91131 91224;
0149067020999992011011421004+46433+006100FM-12+167599999V0202801N012319999999N9999999N1+00101-00061999999ADDMA1999999083481MD1210121+9999ME1315269OA149901801REMSYN088AAXX  14214 06702 43/// /2824 10010 21006 38348 48526 52012 333 55300 20000 91135 91225;
0149067020999992011011422004+46433+006100FM-12+167599999V0202801N009819999999N9999999N1+00051+00051999999ADDMA1999999083541MD1210161+9999ME1315329OA149901801REMSYN088AAXX  14224 06702 43/// /2819 10005 20005 38354 48532 52016 333 55300 20000 91135 91225;
0149067020999992011011423004+46433+006100FM-12+167599999V0202801N011819999999N9999999N1+00041+00041999999ADDMA1999999083561MD1210141+9999ME1315349OA149901801REMSYN088AAXX  14234 06702 43/// /2823 10004 20004 38356 48534 52014 333 55300 20000 91135 91226;
0149067020999992011011500004+46433+006100FM-12+167599999V0202801N011319999999N9999999N1+00061+00061999999ADDMA1999999083611MD1210131+9999ME1315389OA149901801REMSYN088AAXX  15004 06702 43/// /2822 10006 20006 38361 48538 52013 333 55300 20000 91135 91226;
0149067020999992011011501004+46433+006100FM-12+167599999V0202901N010819999999N9999999N1+00041+00041999999ADDMA1999999083631MD1210091+9999ME1315409OA149901801REMSYN088AAXX  15014 06702 43/// /2921 10004 20004 38363 48540 52009 333 55300 20000 91135 91223;
0149067020999992011011502004+46433+006100FM-12+167599999V0203001N009819999999N9999999N1-00011-00011999999ADDMA1999999083661MD1219999+9999ME1315439OA149901801REMSYN088AAXX  15024 06702 43/// /3019 11001 21001 38366 48543 52/// 333 55300 20000 91135 91223;
0112067020999992011011503004+46433+006100FM-12+167599999V0202901N008219999999N9999999N1-00021-00021999999ADDMA1999999083721ME1315499REMSYN076AAXX  15034 06702 43/// /2916 11002 21002 38372 48549 5//// 333 553// 20000;
0149067020999992011011504004+46433+006100FM-12+167599999V0202701N006219999999N9999999N1-00061-00061999999ADDMA1999999083781MD1310151+9999ME1315559OA149901601REMSYN088AAXX  15044 06702 43/// /2712 11006 21006 38378 48555 53015 333 55300 20000 91131 91221;
0149067020999992011011505004+46433+006100FM-12+167599999V0202901N006719999999N9999999N1-00111-00111999999ADDMA1999999083821MD1210161+9999ME1315599OA149901291REMSYN088AAXX  15054 06702 43/// /2913 11011 21011 38382 48559 52016 333 55300 20000 91125 91216;
0182067020999992011011506004+46433+006100FM-12+167599999V0202801N005719999999N9999999N1-00131-00161999999ADDGJ104569KA1999N-00111MA1999999083841MD1210121+9999ME1315619OA149901801REMSYN100AAXX  15064 06702 43/// /2811 11013 21016 38384 48561 52012 333 21011 55076 55300 20000 91135 91226;
0149067020999992011011507004+46433+006100FM-12+167599999V0201701N006219999999N9999999N1-00041-00271999999ADDMA1999999083841MD1210061+9999ME1315619OA149900881REMSYN088AAXX  15074 06702 43/// /1712 11004 21027 38384 48561 52006 333 55300 20000 91117 91215;
0149067020999992011011508004+46433+006100FM-12+167599999V0202001N006219999999N9999999N1-00011-00381999999ADDMA1999999083851MD1019999+9999ME1315629OA149900821REMSYN088AAXX  15084 06702 43/// /2012 11001 21038 38385 48562 50/// 333 55306 20104 91116 91216;
0149067020999992011011509004+46433+006100FM-12+167599999V0203001N005719999999N9999999N1-00141-00201999999ADDMA1999999083901MD1310061+9999ME1315679OA149901291REMSYN088AAXX  15094 06702 43/// /3011 11014 21020 38390 48567 53006 333 553// 20569 91125 91216;
0149067020999992011011510004+46433+006100FM-12+167599999V0202701N003619999999N9999999N1+00081-00401999999ADDMA1999999083911MD1210071+9999ME1315679OA149900721REMSYN088AAXX  15104 06702 43/// /2707 10008 21040 38391 48567 52007 333 553// 2//// 91114 91212;
0149067020999992011011511004+46433+006100FM-12+167599999V0202501N004619999999N9999999N1+00291-00781999999ADDMA1999999083901MD1010051+9999ME1315659OA149900621REMSYN088AAXX  15114 06702 43/// /2509 10029 21078 38390 48565 50005 333 553// 2//// 91112 91211;
0149067020999992011011512004+46433+006100FM-12+167599999V0202501N005719999999N9999999N1+00371-01231999999ADDMA1999999083861MD1710041+9999ME1315619OA149901801REMSYN088AAXX  15124 06702 43/// /2511 10037 21123 38386 48561 57004 333 553// 2//// 91135 91223;
0112067020999992011011513004+46433+006100FM-12+167599999V0203001N005719999999N9999999N1+00311-00412999999ADDMA1999999083841ME1315599REMSYN076AAXX  15134 06702 43/// /3011 10031 21041 38384 48559 5//// 333 553// 2////;
0096067020999992011011514004+46433+006100FM-12+167599999V0202901N007219999999N9999999N1+00271-00581999999ADDMA1999999083861ME1315619REMSYN060AAXX  15144 06702 43/// /2914 10027 21058 38386 48561 5////;
0096067020999992011011515004+46433+006100FM-12+167599999V0202901N003619999999N9999999N1+00441-01421999999ADDMA1999999083911ME1315669REMSYN060AAXX  15154 06702 43/// /2907 10044 21142 38391 48566 5////;
0096067020999992011011516004+46433+006100FM-12+167599999V0202901N005119999999N9999999N1+00381-01701999999ADDMA1999999083951ME1315709REMSYN060AAXX  15164 06702 43/// /2910 10038 21170 38395 48570 5////;
0112067020999992011011517004+46433+006100FM-12+167599999V0202101N001519999999N9999999N1+00491-01911999999ADDMA1999999083981ME1315729REMSYN076AAXX  15174 06702 43/// /2103 10049 21191 38398 48572 5//// 333 553// 20007;
0119067020999992011011518004+46433+006100FM-12+167599999V0201801N001019999999N9999999N1+00391-02111999999ADDKA1999M+00601MA1999999083991ME1315749REMSYN070AAXX  15184 06702 43/// /1802 10039 21211 38399 48574 5//// 333 10060;
0096067020999992011011519004+46433+006100FM-12+167599999V0202501N001519999999N9999999N1+00531-02271999999ADDMA1999999084011ME1315759REMSYN060AAXX  15194 06702 43/// /2503 10053 21227 38401 48575 5////;
0096067020999992011011520004+46433+006100FM-12+167599999V0201701N000519999999N9999999N1+00491-02151999999ADDMA1999999084021ME1315769REMSYN060AAXX  15204 06702 43/// /1701 10049 21215 38402 48576 5////;
0149067020999992011011521004+46433+006100FM-12+167599999V0201201N002119999999N9999999N1+00501-02081999999ADDMA1999999084021MD1210031+9999ME1315769OA149900621REMSYN088AAXX  15214 06702 43/// /1204 10050 21208 38402 48576 52003 333 55300 20000 91112 91210;
0149067020999992011011522004+46433+006100FM-12+167599999V0201901N002119999999N9999999N1+00621-02311999999ADDMA1999999084021MD1210011+9999ME1315769OA149900411REMSYN088AAXX  15224 06702 43/// /1904 10062 21231 38402 48576 52001 333 55300 20000 91108 91205;
0149067020999992011011523004+46433+006100FM-12+167599999V0201301N002119999999N9999999N1+00541-02221999999ADDMA1999999084001MD1710021+9999ME1315749OA149900411REMSYN088AAXX  15234 06702 43/// /1304 10054 21222 38400 48574 57002 333 55300 20000 91108 91205;
0149067020999992011011600004+46433+006100FM-12+167599999V0201601N002619999999N9999999N1+00691-02471999999ADDMA1999999083981MD1810041+9999ME1315729OA149900771REMSYN088AAXX  16004 06702 43/// /1605 10069 21247 38398 48572 58004 333 55300 20000 91115 91214;
0149067020999992011011601004+46433+006100FM-12+167599999V0201501N004619999999N9999999N1+00711-02211999999ADDMA1999999083971MD1610051+9999ME1315719OA149900571REMSYN088AAXX  16014 06702 43/// /1509 10071 21221 38397 48571 56005 333 55300 20000 91111 91210;
0149067020999992011011602004+46433+006100FM-12+167599999V0201601N005119999999N9999999N1+00821-02591999999ADDMA1999999083971MD1619999+9999ME1315709OA149900621REMSYN088AAXX  16024 06702 43/// /1610 10082 21259 38397 48570 56/// 333 55300 20000 91112 91210;
0096067020999992011011603004+46433+006100FM-12+167599999V0201801N006719999999N9999999N1+00841-01981999999ADDMA1999999083951ME1315689REMSYN060AAXX  16034 06702 43/// /1813 10084 21198 38395 48568 5////;
0149067020999992011011604004+46433+006100FM-12+167599999V0201901N007719999999N9999999N1+00701-01761999999ADDMA1999999083961MD1710011+9999ME1315709OA149900881REMSYN088AAXX  16044 06702 43/// /1915 10070 21176 38396 48570 57001 333 55300 20000 91117 91215;
0149067020999992011011605004+46433+006100FM-12+167599999V0202101N008719999999N9999999N1+00691-01551999999ADDMA1999999083971MD1510001+9999ME1315719OA149900931REMSYN088AAXX  16054 06702 43/// /2117 10069 21155 38397 48571 55000 333 55300 20000 91118 91217;
0182067020999992011011606004+46433+006100FM-12+167599999V0202101N008719999999N9999999N1+00661-01771999999ADDGJ105289KA1999N+00361MA1999999083971MD1210021+9999ME1315719OA149901081REMSYN100AAXX  16064 06702 43/// /2117 10066 21177 38397 48571 52002 333 20036 55088 55300 20000 91121 91218;
0149067020999992011011607004+46433+006100FM-12+167599999V0202301N008219999999N9999999N1+00711-02161999999ADDMA1999999083961MD1010001+9999ME1315709OA149901131REMSYN088AAXX  16074 06702 43/// /2316 10071 21216 38396 48570 50000 333 55300 20000 91122 91219;
0149067020999992011011608004+46433+006100FM-12+167599999V0202301N008219999999N9999999N1+00781-02481999999ADDMA1999999083981MD1319999+9999ME1315719OA149901131REMSYN088AAXX  16084 06702 43/// /2316 10078 21248 38398 48571 53/// 333 55306 20104 91122 91219;
0149067020999992011011609004+46433+006100FM-12+167599999V0202301N007719999999N9999999N1+00801-02231999999ADDMA1999999084001MD1210031+9999ME1315739OA149901131REMSYN088AAXX  16094 06702 43/// /2315 10080 21223 38400 48573 52003 333 553// 20605 91122 91219;
0149067020999992011011610004+46433+006100FM-12+167599999V0202101N004619999999N9999999N1+00841-01881999999ADDMA1999999084031MD1110071+9999ME1315769OA149900881REMSYN088AAXX  16104 06702 43/// /2109 10084 21188 38403 48576 51007 333 553// 2//// 91117 91216;
0149067020999992011011611004+46433+006100FM-12+167599999V0201801N004119999999N9999999N1+00871-01471999999ADDMA1999999084041MD1110061+9999ME1315779OA149900881REMSYN088AAXX  16114 06702 43/// /1808 10087 21147 38404 48577 51006 333 553// 2//// 91117 91215;
0149067020999992011011612004+46433+006100FM-12+167599999V0202101N007219999999N9999999N1+00891-01651999999ADDMA1999999084011MD1010011+9999ME1315749OA149901131REMSYN088AAXX  16124 06702 43/// /2114 10089 21165 38401 48574 50001 333 553// 2//// 91122 91219;
0149067020999992011011613004+46433+006100FM-12+167599999V0202301N006219999999N9999999N1+00761-01191999999ADDMA1999999083981MD1810051+9999ME1315719OA149900981REMSYN088AAXX  16134 06702 43/// /2312 10076 21119 38398 48571 58005 333 553// 2//// 91119 91214;
0149067020999992011011614004+46433+006100FM-12+167599999V0202401N006219999999N9999999N1+00781-01331999999ADDMA1999999083961MD1719999+9999ME1315699OA149900981REMSYN088AAXX  16144 06702 43/// /2412 10078 21133 38396 48569 57/// 333 553// 2//// 91119 91213;
0149067020999992011011615004+46433+006100FM-12+167599999V0202601N008719999999N9999999N1+00661-01341999999ADDMA1999999083951MD1710061+9999ME1315699OA149901081REMSYN088AAXX  16154 06702 43/// /2617 10066 21134 38395 48569 57006 333 553// 20868 91121 91217;
0149067020999992011011616004+46433+006100FM-12+167599999V0202401N006719999999N9999999N1+00601-01261999999ADDMA1999999083951MD1710031+9999ME1315699OA149901081REMSYN088AAXX  16164 06702 43/// /2413 10060 21126 38395 48569 57003 333 553// 20335 91121 91217;
0149067020999992011011617004+46433+006100FM-12+167599999V0202201N006719999999N9999999N1+00711-01691999999ADDMA1999999083981MD1310021+9999ME1315719OA149901081REMSYN088AAXX  16174 06702 43/// /2213 10071 21169 38398 48571 53002 333 55303 20011 91121 91217;
0168067020999992011011618004+46433+006100FM-12+167599999V0202501N011319999999N9999999N1+00531-01161999999ADDKA1120M+00921MA1999999083961MD1010011+9999ME1315709OA149901291REMSYN094AAXX  16184 06702 43/// /2522 10053 21116 38396 48570 50001 333 10092 55300 20000 91125 91222;
0149067020999992011011619004+46433+006100FM-12+167599999V0202601N009819999999N9999999N1+00541-01011999999ADDMA1999999083981MD1210031+9999ME1315729OA149901491REMSYN088AAXX  16194 06702 43/// /2619 10054 21101 38398 48572 52003 333 55300 20000 91129 91224;
0149067020999992011011620004+46433+006100FM-12+167599999V0202501N008719999999N9999999N1+00551-00891999999ADDMA1999999083981MD1510001+9999ME1315729OA149901491REMSYN088AAXX  16204 06702 43/// /2517 10055 21089 38398 48572 55000 333 55300 20000 91129 91224;
0149067020999992011011621004+46433+006100FM-12+167599999V0202501N010319999999N9999999N1+00571-00841999999ADDMA1999999083961MD1410001+9999ME1315709OA149901491REMSYN088AAXX  16214 06702 43/// /2520 10057 21084 38396 48570 58000 333 55300 20000 91129 91224;
0149067020999992011011622004+46433+006100FM-12+167599999V0202601N007719999999N9999999N1+00421-00731999999ADDMA1999999083981MD1010001+9999ME1315739OA149901341REMSYN088AAXX  16224 06702 43/// /2615 10042 21073 38398 48573 50000 333 55300 20000 91126 91221;
0149067020999992011011623004+46433+006100FM-12+167599999V0202601N006219999999N9999999N1+00521-00811999999ADDMA1999999083991MD1210011+9999ME1315739OA149901341REMSYN088AAXX  16234 06702 43/// /2612 10052 21081 38399 48573 52001 333 55300 20000 91126 91221;
0149067020999992011011700004+46433+006100FM-12+167599999V0201801N006719999999N9999999N1+00591-00981999999ADDMA1999999083981MD1210021+9999ME1315729OA149901491REMSYN088AAXX  17004 06702 43/// /1813 10059 21098 38398 48572 52002 333 55300 20000 91129 91224;
0149067020999992011011701004+46433+006100FM-12+167599999V0201901N005119999999N9999999N1+00531-00931999999ADDMA1999999083961MD1810021+9999ME1315709OA149900821REMSYN088AAXX  17014 06702 43/// /1910 10053 21093 38396 48570 58002 333 55300 20000 91116 91214;
0149067020999992011011702004+46433+006100FM-12+167599999V0201701N007719999999N9999999N1+00491-00901999999ADDMA1999999083921MD1819999+9999ME1315669OA149900981REMSYN088AAXX  17024 06702 43/// /1715 10049 21090 38392 48566 58/// 333 55300 20000 91119 91215;
0112067020999992011011703004+46433+006100FM-12+167599999V0201701N007219999999N9999999N1+00451-00911999999ADDMA1999999083911ME1315669REMSYN076AAXX  17034 06702 43/// /1714 10045 21091 38391 48566 5//// 333 553// 20000;
0149067020999992011011704004+46433+006100FM-12+167599999V0201901N007719999999N9999999N1+00421-00871999999ADDMA1999999083881MD1710081+9999ME1315639OA149901031REMSYN088AAXX  17044 06702 43/// /1915 10042 21087 38388 48563 57008 333 55300 20000 91120 91216;
0149067020999992011011705004+46433+006100FM-12+167599999V0202001N009319999999N9999999N1+00431-00821999999ADDMA1999999083841MD1710081+9999ME1315599OA149901081REMSYN088AAXX  17054 06702 43/// /2018 10043 21082 38384 48559 57008 333 55300 20000 91121 91218;
0182067020999992011011706004+46433+006100FM-12+167599999V0201901N008719999999N9999999N1+00341-00861999999ADDGJ105349KA1999N+00351MA1999999083811MD1610101+9999ME1315569OA149901491REMSYN100AAXX  17064 06702 43/// /1917 10034 21086 38381 48556 56010 333 20035 55089 55300 20000 91129 91224;
0149067020999992011011707004+46433+006100FM-12+167599999V0201901N008219999999N9999999N1+00331-00811999999ADDMA1999999083801MD1610081+9999ME1315559OA149901131REMSYN088AAXX  17074 06702 43/// /1916 10033 21081 38380 48555 56008 333 55300 20000 91122 91217;
0096067020999992011011708004+46433+006100FM-12+167599999V0202101N009819999999N9999999N1+00421-00681999999ADDMA1999999083801ME1315559REMSYN060AAXX  17084 06702 43/// /2119 10042 21068 38380 48555 5////;
0096067020999992011011709004+46433+006100FM-12+167599999V0202301N009319999999N9999999N1+00451-00641999999ADDMA1999999083811ME1315569REMSYN060AAXX  17094 06702 43/// /2318 10045 21064 38381 48556 5////;
0149067020999992011011710004+46433+006100FM-12+167599999V0202401N008219999999N9999999N1+00201-00371999999ADDMA1999999083841MD1310041+9999ME1315609OA149901291REMSYN088AAXX  17104 06702 43/// /2416 10020 21037 38384 48560 53004 333 553// 2//// 91125 91219;
0149067020999992011011711004+46433+006100FM-12+167599999V0202401N008719999999N9999999N1+00401-00431999999ADDMA1999999083851MD1210051+9999ME1315609OA149901391REMSYN088AAXX  17114 06702 43/// /2417 10040 21043 38385 48560 52005 333 553// 2//// 91127 91220;
0168067020999992011011712004+46433+006100FM-12+167599999V0202601N010319999999N9999999N1+00311-00361999999ADDMA1999999083811MD1410001+9999ME1315569OA149901391REMSYN088AAXX  17124 06702 43/// /2620 10031 21036 38381 48556 58000 333 553// 2//// 91127 91220;EQDQ01+000082APCTEN
0149067020999992011011713004+46433+006100FM-12+167599999V0202701N008719999999N9999999N1+00301-00231999999ADDMA1999999083821MD1710021+9999ME1315579OA149901241REMSYN088AAXX  17134 06702 43/// /2717 10030 21023 38382 48557 57002 333 553// 2//// 91124 91220;
0096067020999992011011714004+46433+006100FM-12+167599999V0202701N008719999999N9999999N1+00331-00211999999ADDMA1999999083821ME1315579REMSYN060AAXX  17144 06702 43/// /2717 10033 21021 38382 48557 5////;
0096067020999992011011715004+46433+006100FM-12+167599999V0202801N008219999999N9999999N1+00271-00221999999ADDMA1999999083861ME1315619REMSYN060AAXX  17154 06702 43/// /2816 10027 21022 38386 48561 5////;
0149067020999992011011716004+46433+006100FM-12+167599999V0202801N006719999999N9999999N1+00191-00291999999ADDMA1999999083891MD1210071+9999ME1315659OA149901081REMSYN088AAXX  17164 06702 43/// /2813 10019 21029 38389 48565 52007 333 55307 20230 91121 91217;
0149067020999992011011717004+46433+006100FM-12+167599999V0202801N006719999999N9999999N1+00171-00411999999ADDMA1999999083891MD1210071+9999ME1315659OA149900981REMSYN088AAXX  17174 06702 43/// /2813 10017 21041 38389 48565 52007 333 55301 20022 91119 91216;
0168067020999992011011718004+46433+006100FM-12+167599999V0202801N006719999999N9999999N1+00181-00381999999ADDKA1120M+00471MA1999999083911MD1210051+9999ME1315679OA149901391REMSYN094AAXX  17184 06702 43/// /2813 10018 21038 38391 48567 52005 333 10047 55300 20000 91127 91220;
0149067020999992011011719004+46433+006100FM-12+167599999V0202701N006719999999N9999999N1+00161-00361999999ADDMA1999999083921MD1210031+9999ME1315689OA149900771REMSYN088AAXX  17194 06702 43/// /2713 10016 21036 38392 48568 52003 333 55300 20000 91115 91213;
0149067020999992011011720004+46433+006100FM-12+167599999V0202601N007719999999N9999999N1+00301-00521999999ADDMA1999999083921MD1010031+9999ME1315679OA149900881REMSYN088AAXX  17204 06702 43/// /2615 10030 21052 38392 48567 50003 333 55300 20000 91117 91215;
0149067020999992011011721004+46433+006100FM-12+167599999V0202901N007219999999N9999999N1+00161-00341999999ADDMA1999999083921MD1010011+9999ME1315689OA149900981REMSYN088AAXX  17214 06702 43/// /2914 10016 21034 38392 48568 50001 333 55300 20000 91119 91216;
0149067020999992011011722004+46433+006100FM-12+167599999V0203001N007219999999N9999999N1+00141-00261999999ADDMA1999999083911MD1710011+9999ME1315679OA149900881REMSYN088AAXX  17224 06702 43/// /3014 10014 21026 38391 48567 57001 333 55300 20000 91117 91216;
0149067020999992011011723004+46433+006100FM-12+167599999V0203101N006219999999N9999999N1+00131-00281999999ADDMA1999999083911MD1510011+9999ME1315679OA149900881REMSYN088AAXX  17234 06702 43/// /3112 10013 21028 38391 48567 55001 333 55300 20000 91117 91216;
0149067020999992011011800004+46433+006100FM-12+167599999V0203201N005119999999N9999999N1+00111-00261999999ADDMA1999999083901MD1710021+9999ME1315669OA149901291REMSYN088AAXX  18004 06702 43/// /3210 10011 21026 38390 48566 57002 333 55300 20000 91125 91220;
0149067020999992011011801004+46433+006100FM-12+167599999V0203101N005119999999N9999999N1+00061-00211999999ADDMA1999999083881MD1719999+9999ME1315649OA149900671REMSYN088AAXX  18014 06702 43/// /3110 10006 21021 38388 48564 57/// 333 55300 20000 91113 91212;
0096067020999992011011802004+46433+006100FM-12+167599999V0203001N004619999999N9999999N1+00091-00181999999ADDMA1999999083861ME1315629REMSYN060AAXX  18024 06702 43/// /3009 10009 21018 38386 48562 5////;
0096067020999992011011803004+46433+006100FM-12+167599999V0202801N003119999999N9999999N1+00071-00131999999ADDMA1999999083831ME1315599REMSYN060AAXX  18034 06702 43/// /2806 10007 21013 38383 48559 5////;
0112067020999992011011804004+46433+006100FM-12+167599999V0202801N005119999999N9999999N1+00061-00161999999ADDMA1999999083811ME1315589REMSYN076AAXX  18044 06702 43/// /2810 10006 21016 38381 48558 5//// 333 553// 20000;
0149067020999992011011805004+46433+006100FM-12+167599999V0202901N005719999999N9999999N1-00041-00191999999ADDMA1999999083791MD1610071+9999ME1315569OA149900821REMSYN088AAXX  18054 06702 43/// /2911 11004 21019 38379 48556 56007 333 55300 20000 91116 91212;
0182067020999992011011806004+46433+006100FM-12+167599999V0202901N005719999999N9999999N1+00001-00231999999ADDGJ105049KA1999N-00051MA1999999083771MD1710061+9999ME1315549OA149900881REMSYN100AAXX  18064 06702 43/// /2911 10000 21023 38377 48554 57006 333 21005 55084 55300 20000 91117 91216;
0149067020999992011011807004+46433+006100FM-12+167599999V0202901N006219999999N9999999N1-00031-00141999999ADDMA1999999083781MD1510031+9999ME1315559OA149900721REMSYN088AAXX  18074 06702 43/// /2912 11003 21014 38378 48555 55003 333 55300 20000 91114 91213;
0096067020999992011011808004+46433+006100FM-12+167599999V0202501N004119999999N9999999N1+00061-00111999999ADDMA1999999083801ME1315579REMSYN060AAXX  18084 06702 43/// /2508 10006 21011 38380 48557 5////;
0096067020999992011011809004+46433+006100FM-12+167599999V0202801N004619999999N9999999N1+00031-00081999999ADDMA1999999083811ME1315589REMSYN060AAXX  18094 06702 43/// /2809 10003 21008 38381 48558 5////;
0149067020999992011011810004+46433+006100FM-12+167599999V0202901N003119999999N9999999N1+00041-00041999999ADDMA1999999083811MD1210031+9999ME1315589OA149900931REMSYN088AAXX  18104 06702 43/// /2906 10004 21004 38381 48558 52003 333 55300 20389 91118 91213;
0149067020999992011011811004+46433+006100FM-12+167599999V0202801N003119999999N9999999N1+00021-00051999999ADDMA1999999083771MD1710031+9999ME1315549OA149900621REMSYN088AAXX  18114 06702 43/// /2806 10002 21005 38377 48554 57003 333 55301 20853 91112 91209;
0149067020999992011011812004+46433+006100FM-12+167599999V0202901N005719999999N9999999N1+00041-00021999999ADDMA1999999083731MD1719999+9999ME1315509OA149900931REMSYN088AAXX  18124 06702 43/// /2911 10004 21002 38373 48550 57/// 333 55300 20702 91118 91213;
