0063067060999992011120609004+46483+006450FM-12+042599999V0202501N005719999999N9999999N1+99999+99999999999REMSYN054AAXX  06094 06706 43/// /2511 1//// 2//// 3//// 5////;
0063067060999992011120610004+46483+006450FM-12+042599999V0209999C000019999999N9999999N1+99999+99999999999REMSYN054AAXX  06104 06706 43/// /0000 1//// 2//// 3//// 5////;
0063067060999992011120611004+46483+006450FM-12+042599999V0202301N006219999999N9999999N1+99999+99999999999REMSYN054AAXX  06114 06706 43/// /2312 1//// 2//// 3//// 5////;
0063067060999992011120612004+46483+006450FM-12+042599999V0202201N007219999999N9999999N1+99999+99999999999REMSYN054AAXX  06124 06706 43/// /2214 1//// 2//// 3//// 5////;
0063067060999992011120613004+46483+006450FM-12+042599999V0202401N007219999999N9999999N1+99999+99999999999REMSYN054AAXX  06134 06706 43/// /2414 1//// 2//// 3//// 5////;
0063067060999992011120614004+46483+006450FM-12+042599999V0202201N008719999999N9999999N1+99999+99999999999REMSYN054AAXX  06144 06706 43/// /2217 1//// 2//// 3//// 5////;
0063067060999992011120615004+46483+006450FM-12+042599999V0202401N006719999999N9999999N1+99999+99999999999REMSYN054AAXX  06154 06706 43/// /2413 1//// 2//// 3//// 5////;
0063067060999992011120616004+46483+006450FM-12+042599999V0202501N006219999999N9999999N1+99999+99999999999REMSYN054AAXX  06164 06706 43/// /2512 1//// 2//// 3//// 5////;
0063067060999992011120617004+46483+006450FM-12+042599999V0202501N005119999999N9999999N1+99999+99999999999REMSYN054AAXX  06174 06706 43/// /2510 1//// 2//// 3//// 5////;
0063067060999992011120618004+46483+006450FM-12+042599999V0202401N004619999999N9999999N1+99999+99999999999REMSYN054AAXX  06184 06706 43/// /2409 1//// 2//// 3//// 5////;
0063067060999992011120619004+46483+006450FM-12+042599999V0202401N005719999999N9999999N1+99999+99999999999REMSYN054AAXX  06194 06706 43/// /2411 1//// 2//// 3//// 5////;
0063067060999992011120620004+46483+006450FM-12+042599999V0202501N005719999999N9999999N1+99999+99999999999REMSYN054AAXX  06204 06706 43/// /2511 1//// 2//// 3//// 5////;
0063067060999992011120621004+46483+006450FM-12+042599999V0202301N006219999999N9999999N1+99999+99999999999REMSYN054AAXX  06214 06706 43/// /2312 1//// 2//// 3//// 5////;
0063067060999992011120622004+46483+006450FM-12+042599999V0202401N005719999999N9999999N1+99999+99999999999REMSYN054AAXX  06224 06706 43/// /2411 1//// 2//// 3//// 5////;
0063067060999992011120623004+46483+006450FM-12+042599999V0202401N006719999999N9999999N1+99999+99999999999REMSYN054AAXX  06234 06706 43/// /2413 1//// 2//// 3//// 5////;
0063067060999992011120700004+46483+006450FM-12+042599999V0202501N006219999999N9999999N1+99999+99999999999REMSYN054AAXX  07004 06706 43/// /2512 1//// 2//// 3//// 5////;
0063067060999992011120701004+46483+006450FM-12+042599999V0202501N004619999999N9999999N1+99999+99999999999REMSYN054AAXX  07014 06706 43/// /2509 1//// 2//// 3//// 5////;
0063067060999992011120702004+46483+006450FM-12+042599999V0202401N005719999999N9999999N1+99999+99999999999REMSYN054AAXX  07024 06706 43/// /2411 1//// 2//// 3//// 5////;
0063067060999992011120703004+46483+006450FM-12+042599999V0202401N005119999999N9999999N1+99999+99999999999REMSYN054AAXX  07034 06706 43/// /2410 1//// 2//// 3//// 5////;
0063067060999992011120704004+46483+006450FM-12+042599999V0202401N005719999999N9999999N1+99999+99999999999REMSYN054AAXX  07044 06706 43/// /2411 1//// 2//// 3//// 5////;
0063067060999992011120705004+46483+006450FM-12+042599999V0202401N007219999999N9999999N1+99999+99999999999REMSYN054AAXX  07054 06706 43/// /2414 1//// 2//// 3//// 5////;
0063067060999992011120706004+46483+006450FM-12+042599999V0202401N007719999999N9999999N1+99999+99999999999REMSYN054AAXX  07064 06706 43/// /2415 1//// 2//// 3//// 5////;
0063067060999992011120707004+46483+006450FM-12+042599999V0202401N007219999999N9999999N1+99999+99999999999REMSYN054AAXX  07074 06706 43/// /2414 1//// 2//// 3//// 5////;
0063067060999992011120708004+46483+006450FM-12+042599999V0202401N007719999999N9999999N1+99999+99999999999REMSYN054AAXX  07084 06706 43/// /2415 1//// 2//// 3//// 5////;
0063067060999992011120709004+46483+006450FM-12+042599999V0202401N007219999999N9999999N1+99999+99999999999REMSYN054AAXX  07094 06706 43/// /2414 1//// 2//// 3//// 5////;
0063067060999992011120710004+46483+006450FM-12+042599999V0202301N008219999999N9999999N1+99999+99999999999REMSYN054AAXX  07104 06706 43/// /2316 1//// 2//// 3//// 5////;
0063067060999992011120711004+46483+006450FM-12+042599999V0202301N007719999999N9999999N1+99999+99999999999REMSYN054AAXX  07114 06706 43/// /2315 1//// 2//// 3//// 5////;
0063067060999992011120712004+46483+006450FM-12+042599999V0202401N007219999999N9999999N1+99999+99999999999REMSYN054AAXX  07124 06706 43/// /2414 1//// 2//// 3//// 5////;
0063067060999992011120713004+46483+006450FM-12+042599999V0202401N006719999999N9999999N1+99999+99999999999REMSYN054AAXX  07134 06706 43/// /2413 1//// 2//// 3//// 5////;
0063067060999992011120714004+46483+006450FM-12+042599999V0202501N008219999999N9999999N1+99999+99999999999REMSYN054AAXX  07144 06706 43/// /2516 1//// 2//// 3//// 5////;
0063067060999992011120715004+46483+006450FM-12+042599999V0202601N004119999999N9999999N1+99999+99999999999REMSYN054AAXX  07154 06706 43/// /2608 1//// 2//// 3//// 5////;
0063067060999992011120716004+46483+006450FM-12+042599999V0202401N007719999999N9999999N1+99999+99999999999REMSYN054AAXX  07164 06706 43/// /2415 1//// 2//// 3//// 5////;
0063067060999992011120717004+46483+006450FM-12+042599999V0202701N007219999999N9999999N1+99999+99999999999REMSYN054AAXX  07174 06706 43/// /2714 1//// 2//// 3//// 5////;
0063067060999992011120718004+46483+006450FM-12+042599999V0202601N006719999999N9999999N1+99999+99999999999REMSYN054AAXX  07184 06706 43/// /2613 1//// 2//// 3//// 5////;
0063067060999992011120720004+46483+006450FM-12+042599999V0202701N005119999999N9999999N1+99999+99999999999REMSYN054AAXX  07204 06706 43/// /2710 1//// 2//// 3//// 5////;
0063067060999992011120721004+46483+006450FM-12+042599999V0202101N005719999999N9999999N1+99999+99999999999REMSYN054AAXX  07214 06706 43/// /2111 1//// 2//// 3//// 5////;
0063067060999992011120722004+46483+006450FM-12+042599999V0202801N004119999999N9999999N1+99999+99999999999REMSYN054AAXX  07224 06706 43/// /2808 1//// 2//// 3//// 5////;
0063067060999992011120723004+46483+006450FM-12+042599999V0202401N003619999999N9999999N1+99999+99999999999REMSYN054AAXX  07234 06706 43/// /2407 1//// 2//// 3//// 5////;
0063067060999992011120800004+46483+006450FM-12+042599999V0202501N005119999999N9999999N1+99999+99999999999REMSYN054AAXX  08004 06706 43/// /2510 1//// 2//// 3//// 5////;
0063067060999992011120801004+46483+006450FM-12+042599999V0202601N005119999999N9999999N1+99999+99999999999REMSYN054AAXX  08014 06706 43/// /2610 1//// 2//// 3//// 5////;
0063067060999992011120802004+46483+006450FM-12+042599999V0202601N003619999999N9999999N1+99999+99999999999REMSYN054AAXX  08024 06706 43/// /2607 1//// 2//// 3//// 5////;
0063067060999992011120803004+46483+006450FM-12+042599999V0202501N003119999999N9999999N1+99999+99999999999REMSYN054AAXX  08034 06706 43/// /2506 1//// 2//// 3//// 5////;
0063067060999992011120804004+46483+006450FM-12+042599999V0202501N003619999999N9999999N1+99999+99999999999REMSYN054AAXX  08044 06706 43/// /2507 1//// 2//// 3//// 5////;
0063067060999992011120805004+46483+006450FM-12+042599999V0202501N002619999999N9999999N1+99999+99999999999REMSYN054AAXX  08054 06706 43/// /2505 1//// 2//// 3//// 5////;
0063067060999992011120806004+46483+006450FM-12+042599999V0202501N004619999999N9999999N1+99999+99999999999REMSYN054AAXX  08064 06706 43/// /2509 1//// 2//// 3//// 5////;
0063067060999992011120807004+46483+006450FM-12+042599999V0202501N003619999999N9999999N1+99999+99999999999REMSYN054AAXX  08074 06706 43/// /2507 1//// 2//// 3//// 5////;
0063067060999992011120808004+46483+006450FM-12+042599999V0202601N003119999999N9999999N1+99999+99999999999REMSYN054AAXX  08084 06706 43/// /2606 1//// 2//// 3//// 5////;
0093067060999992011120809004+46483+006450FM-12+042599999V0202401N005119999999N9999999N1+99999+99999999999ADDOA149900771REMSYN070AAXX  08094 06706 43/// /2410 1//// 2//// 3//// 5//// 333 91115 91210;
0063067060999992011120810004+46483+006450FM-12+042599999V0202401N005719999999N9999999N1+99999+99999999999REMSYN054AAXX  08104 06706 43/// /2411 1//// 2//// 3//// 5////;
0063067060999992011120811004+46483+006450FM-12+042599999V0202201N005119999999N9999999N1+99999+99999999999REMSYN054AAXX  08114 06706 43/// /2210 1//// 2//// 3//// 5////;
0063067060999992011120812004+46483+006450FM-12+042599999V0202201N006219999999N9999999N1+99999+99999999999REMSYN054AAXX  08124 06706 43/// /2212 1//// 2//// 3//// 5////;
0063067060999992011120813004+46483+006450FM-12+042599999V0202201N005119999999N9999999N1+99999+99999999999REMSYN054AAXX  08134 06706 43/// /2210 1//// 2//// 3//// 5////;
0063067060999992011120814004+46483+006450FM-12+042599999V0202001N004619999999N9999999N1+99999+99999999999REMSYN054AAXX  08144 06706 43/// /2009 1//// 2//// 3//// 5////;
0063067060999992011120815004+46483+006450FM-12+042599999V0202101N005719999999N9999999N1+99999+99999999999REMSYN054AAXX  08154 06706 43/// /2111 1//// 2//// 3//// 5////;
0063067060999992011120816004+46483+006450FM-12+042599999V0202201N005119999999N9999999N1+99999+99999999999REMSYN054AAXX  08164 06706 43/// /2210 1//// 2//// 3//// 5////;
0063067060999992011120817004+46483+006450FM-12+042599999V0202501N003119999999N9999999N1+99999+99999999999REMSYN054AAXX  08174 06706 43/// /2506 1//// 2//// 3//// 5////;
0063067060999992011120818004+46483+006450FM-12+042599999V0202401N003119999999N9999999N1+99999+99999999999REMSYN054AAXX  08184 06706 43/// /2406 1//// 2//// 3//// 5////;
0063067060999992011120819004+46483+006450FM-12+042599999V0202501N003119999999N9999999N1+99999+99999999999REMSYN054AAXX  08194 06706 43/// /2506 1//// 2//// 3//// 5////;
0063067060999992011120820004+46483+006450FM-12+042599999V0202601N003619999999N9999999N1+99999+99999999999REMSYN054AAXX  08204 06706 43/// /2607 1//// 2//// 3//// 5////;
0063067060999992011120821004+46483+006450FM-12+042599999V0202601N004619999999N9999999N1+99999+99999999999REMSYN054AAXX  08214 06706 43/// /2609 1//// 2//// 3//// 5////;
0063067060999992011120822004+46483+006450FM-12+042599999V0202601N005119999999N9999999N1+99999+99999999999REMSYN054AAXX  08224 06706 43/// /2610 1//// 2//// 3//// 5////;
0063067060999992011120823004+46483+006450FM-12+042599999V0202401N004619999999N9999999N1+99999+99999999999REMSYN054AAXX  08234 06706 43/// /2409 1//// 2//// 3//// 5////;
0093067060999992011120900004+46483+006450FM-12+042599999V0202401N004619999999N9999999N1+99999+99999999999ADDOA149900881REMSYN070AAXX  09004 06706 43/// /2409 1//// 2//// 3//// 5//// 333 91117 91211;
0063067060999992011120901004+46483+006450FM-12+042599999V0202501N006219999999N9999999N1+99999+99999999999REMSYN054AAXX  09014 06706 43/// /2512 1//// 2//// 3//// 5////;
0063067060999992011120902004+46483+006450FM-12+042599999V0202501N005719999999N9999999N1+99999+99999999999REMSYN054AAXX  09024 06706 43/// /2511 1//// 2//// 3//// 5////;
0063067060999992011120903004+46483+006450FM-12+042599999V0202501N006219999999N9999999N1+99999+99999999999REMSYN054AAXX  09034 06706 43/// /2512 1//// 2//// 3//// 5////;
0063067060999992011120904004+46483+006450FM-12+042599999V0202401N005719999999N9999999N1+99999+99999999999REMSYN054AAXX  09044 06706 43/// /2411 1//// 2//// 3//// 5////;
0063067060999992011120905004+46483+006450FM-12+042599999V0202401N006719999999N9999999N1+99999+99999999999REMSYN054AAXX  09054 06706 43/// /2413 1//// 2//// 3//// 5////;
0093067060999992011120906004+46483+006450FM-12+042599999V0202401N006219999999N9999999N1+99999+99999999999ADDOA149901081REMSYN070AAXX  09064 06706 43/// /2412 1//// 2//// 3//// 5//// 333 91121 91214;
0063067060999992011120907004+46483+006450FM-12+042599999V0202501N005719999999N9999999N1+99999+99999999999REMSYN054AAXX  09074 06706 43/// /2511 1//// 2//// 3//// 5////;
0063067060999992011120908004+46483+006450FM-12+042599999V0202301N005719999999N9999999N1+99999+99999999999REMSYN054AAXX  09084 06706 43/// /2311 1//// 2//// 3//// 5////;
0063067060999992011120909004+46483+006450FM-12+042599999V0202601N008719999999N9999999N1+99999+99999999999REMSYN054AAXX  09094 06706 43/// /2617 1//// 2//// 3//// 5////;
0063067060999992011120910004+46483+006450FM-12+042599999V0202501N007719999999N9999999N1+99999+99999999999REMSYN054AAXX  09104 06706 43/// /2515 1//// 2//// 3//// 5////;
0093067060999992011120911004+46483+006450FM-12+042599999V0202501N007719999999N9999999N1+99999+99999999999ADDOA149901241REMSYN070AAXX  09114 06706 43/// /2515 1//// 2//// 3//// 5//// 333 91124 91217;
0063067060999992011120912004+46483+006450FM-12+042599999V0202501N005119999999N9999999N1+99999+99999999999REMSYN054AAXX  09124 06706 43/// /2510 1//// 2//// 3//// 5////;
0063067060999992011120913004+46483+006450FM-12+042599999V0202401N006219999999N9999999N1+99999+99999999999REMSYN054AAXX  09134 06706 43/// /2412 1//// 2//// 3//// 5////;
0063067060999992011120914004+46483+006450FM-12+042599999V0202401N007219999999N9999999N1+99999+99999999999REMSYN054AAXX  09144 06706 43/// /2414 1//// 2//// 3//// 5////;
0093067060999992011120915004+46483+006450FM-12+042599999V0202301N004119999999N9999999N1+99999+99999999999ADDOA149901081REMSYN070AAXX  09154 06706 43/// /2308 1//// 2//// 3//// 5//// 333 91121 91214;
0063067060999992011120916004+46483+006450FM-12+042599999V0202201N004119999999N9999999N1+99999+99999999999REMSYN054AAXX  09164 06706 43/// /2208 1//// 2//// 3//// 5////;
0093067060999992011120917004+46483+006450FM-12+042599999V0202501N005119999999N9999999N1+99999+99999999999ADDOA149900771REMSYN070AAXX  09174 06706 43/// /2510 1//// 2//// 3//// 5//// 333 91115 91210;
0063067060999992011120918004+46483+006450FM-12+042599999V0202501N005719999999N9999999N1+99999+99999999999REMSYN054AAXX  09184 06706 43/// /2511 1//// 2//// 3//// 5////;
0063067060999992011120919004+46483+006450FM-12+042599999V0202501N006219999999N9999999N1+99999+99999999999REMSYN054AAXX  09194 06706 43/// /2512 1//// 2//// 3//// 5////;
0063067060999992011120920004+46483+006450FM-12+042599999V0202501N005719999999N9999999N1+99999+99999999999REMSYN054AAXX  09204 06706 43/// /2511 1//// 2//// 3//// 5////;
0063067060999992011120921004+46483+006450FM-12+042599999V0202501N006219999999N9999999N1+99999+99999999999REMSYN054AAXX  09214 06706 43/// /2512 1//// 2//// 3//// 5////;
0063067060999992011120922004+46483+006450FM-12+042599999V0202501N006219999999N9999999N1+99999+99999999999REMSYN054AAXX  09224 06706 43/// /2512 1//// 2//// 3//// 5////;
0063067060999992011120923004+46483+006450FM-12+042599999V0202501N006219999999N9999999N1+99999+99999999999REMSYN054AAXX  09234 06706 43/// /2512 1//// 2//// 3//// 5////;
0063067060999992011121000004+46483+006450FM-12+042599999V0202601N005719999999N9999999N1+99999+99999999999REMSYN054AAXX  10004 06706 43/// /2611 1//// 2//// 3//// 5////;
0063067060999992011121001004+46483+006450FM-12+042599999V0202501N005719999999N9999999N1+99999+99999999999REMSYN054AAXX  10014 06706 43/// /2511 1//// 2//// 3//// 5////;
0063067060999992011121002004+46483+006450FM-12+042599999V0202501N005719999999N9999999N1+99999+99999999999REMSYN054AAXX  10024 06706 43/// /2511 1//// 2//// 3//// 5////;
0093067060999992011121003004+46483+006450FM-12+042599999V0202401N005719999999N9999999N1+99999+99999999999ADDOA149901031REMSYN070AAXX  10034 06706 43/// /2411 1//// 2//// 3//// 5//// 333 91120 91215;
0063067060999992011121004004+46483+006450FM-12+042599999V0202501N004619999999N9999999N1+99999+99999999999REMSYN054AAXX  10044 06706 43/// /2509 1//// 2//// 3//// 5////;
0063067060999992011121005004+46483+006450FM-12+042599999V0202501N005719999999N9999999N1+99999+99999999999REMSYN054AAXX  10054 06706 43/// /2511 1//// 2//// 3//// 5////;
0063067060999992011121006004+46483+006450FM-12+042599999V0202401N004619999999N9999999N1+99999+99999999999REMSYN054AAXX  10064 06706 43/// /2409 1//// 2//// 3//// 5////;
0063067060999992011121007004+46483+006450FM-12+042599999V0202401N004119999999N9999999N1+99999+99999999999REMSYN054AAXX  10074 06706 43/// /2408 1//// 2//// 3//// 5////;
0063067060999992011121008004+46483+006450FM-12+042599999V0202401N004619999999N9999999N1+99999+99999999999REMSYN054AAXX  10084 06706 43/// /2409 1//// 2//// 3//// 5////;
0063067060999992011121009004+46483+006450FM-12+042599999V0202301N003119999999N9999999N1+99999+99999999999REMSYN054AAXX  10094 06706 43/// /2306 1//// 2//// 3//// 5////;
0063067060999992011121010004+46483+006450FM-12+042599999V0202401N006219999999N9999999N1+99999+99999999999REMSYN054AAXX  10104 06706 43/// /2412 1//// 2//// 3//// 5////;
0063067060999992011121011004+46483+006450FM-12+042599999V0202201N005719999999N9999999N1+99999+99999999999REMSYN054AAXX  10114 06706 43/// /2211 1//// 2//// 3//// 5////;
0063067060999992011121012004+46483+006450FM-12+042599999V0202401N005719999999N9999999N1+99999+99999999999REMSYN054AAXX  10124 06706 43/// /2411 1//// 2//// 3//// 5////;
0063067060999992011121013004+46483+006450FM-12+042599999V0202401N005719999999N9999999N1+99999+99999999999REMSYN054AAXX  10134 06706 43/// /2411 1//// 2//// 3//// 5////;
0093067060999992011121014004+46483+006450FM-12+042599999V0201201N002619999999N9999999N1+99999+99999999999ADDOA149900721REMSYN070AAXX  10144 06706 43/// /1205 1//// 2//// 3//// 5//// 333 91114 91210;
0063067060999992011121015004+46483+006450FM-12+042599999V0201001N001019999999N9999999N1+99999+99999999999REMSYN054AAXX  10154 06706 43/// /1002 1//// 2//// 3//// 5////;
0063067060999992011121016004+46483+006450FM-12+042599999V0201301N001019999999N9999999N1+99999+99999999999REMSYN054AAXX  10164 06706 43/// /1302 1//// 2//// 3//// 5////;
0063067060999992011121017004+46483+006450FM-12+042599999V0200301N001019999999N9999999N1+99999+99999999999REMSYN054AAXX  10174 06706 43/// /0302 1//// 2//// 3//// 5////;
0063067060999992011121018004+46483+006450FM-12+042599999V0200201N001019999999N9999999N1+99999+99999999999REMSYN054AAXX  10184 06706 43/// /0202 1//// 2//// 3//// 5////;
0063067060999992011121019004+46483+006450FM-12+042599999V0203501N001019999999N9999999N1+99999+99999999999REMSYN054AAXX  10194 06706 43/// /3502 1//// 2//// 3//// 5////;
0063067060999992011121020004+46483+006450FM-12+042599999V0200501N001519999999N9999999N1+99999+99999999999REMSYN054AAXX  10204 06706 43/// /0503 1//// 2//// 3//// 5////;
0063067060999992011121021004+46483+006450FM-12+042599999V0200601N000519999999N9999999N1+99999+99999999999REMSYN054AAXX  10214 06706 43/// /0601 1//// 2//// 3//// 5////;
0063067060999992011121022004+46483+006450FM-12+042599999V0200401N001019999999N9999999N1+99999+99999999999REMSYN054AAXX  10224 06706 43/// /0402 1//// 2//// 3//// 5////;
0063067060999992011121023004+46483+006450FM-12+042599999V0209999C001519999999N9999999N1+99999+99999999999REMSYN054AAXX  10234 06706 43/// /0003 1//// 2//// 3//// 5////;
0063067060999992011121100004+46483+006450FM-12+042599999V0203501N001519999999N9999999N1+99999+99999999999REMSYN054AAXX  11004 06706 43/// /3503 1//// 2//// 3//// 5////;
0063067060999992011121101004+46483+006450FM-12+042599999V0203001N001519999999N9999999N1+99999+99999999999REMSYN054AAXX  11014 06706 43/// /3003 1//// 2//// 3//// 5////;
0063067060999992011121102004+46483+006450FM-12+042599999V0202801N000519999999N9999999N1+99999+99999999999REMSYN054AAXX  11024 06706 43/// /2801 1//// 2//// 3//// 5////;
0063067060999992011121103004+46483+006450FM-12+042599999V0203101N001519999999N9999999N1+99999+99999999999REMSYN054AAXX  11034 06706 43/// /3103 1//// 2//// 3//// 5////;
0063067060999992011121104004+46483+006450FM-12+042599999V0203201N002119999999N9999999N1+99999+99999999999REMSYN054AAXX  11044 06706 43/// /3204 1//// 2//// 3//// 5////;
0063067060999992011121105004+46483+006450FM-12+042599999V0202801N002119999999N9999999N1+99999+99999999999REMSYN054AAXX  11054 06706 43/// /2804 1//// 2//// 3//// 5////;
0063067060999992011121106004+46483+006450FM-12+042599999V0203201N001519999999N9999999N1+99999+99999999999REMSYN054AAXX  11064 06706 43/// /3203 1//// 2//// 3//// 5////;
0063067060999992011121107004+46483+006450FM-12+042599999V0203201N001019999999N9999999N1+99999+99999999999REMSYN054AAXX  11074 06706 43/// /3202 1//// 2//// 3//// 5////;
0063067060999992011121108004+46483+006450FM-12+042599999V0203401N001019999999N9999999N1+99999+99999999999REMSYN054AAXX  11084 06706 43/// /3402 1//// 2//// 3//// 5////;
0063067060999992011121109004+46483+006450FM-12+042599999V0202801N000519999999N9999999N1+99999+99999999999REMSYN054AAXX  11094 06706 43/// /2801 1//// 2//// 3//// 5////;
0063067060999992011121110004+46483+006450FM-12+042599999V0202301N000519999999N9999999N1+99999+99999999999REMSYN054AAXX  11104 06706 43/// /2301 1//// 2//// 3//// 5////;
0063067060999992011121111004+46483+006450FM-12+042599999V0202001N000519999999N9999999N1+99999+99999999999REMSYN054AAXX  11114 06706 43/// /2001 1//// 2//// 3//// 5////;
0063067060999992011121112004+46483+006450FM-12+042599999V0202101N001519999999N9999999N1+99999+99999999999REMSYN054AAXX  11124 06706 43/// /2103 1//// 2//// 3//// 5////;
0063067060999992011121113004+46483+006450FM-12+042599999V0201301N000519999999N9999999N1+99999+99999999999REMSYN054AAXX  11134 06706 43/// /1301 1//// 2//// 3//// 5////;
0063067060999992011121114004+46483+006450FM-12+042599999V0201301N001519999999N9999999N1+99999+99999999999REMSYN054AAXX  11144 06706 43/// /1303 1//// 2//// 3//// 5////;
0063067060999992011121115004+46483+006450FM-12+042599999V0201301N001519999999N9999999N1+99999+99999999999REMSYN054AAXX  11154 06706 43/// /1303 1//// 2//// 3//// 5////;
0063067060999992011121116004+46483+006450FM-12+042599999V0209999C000019999999N9999999N1+99999+99999999999REMSYN054AAXX  11164 06706 43/// /0000 1//// 2//// 3//// 5////;
0063067060999992011121117004+46483+006450FM-12+042599999V0203301N001019999999N9999999N1+99999+99999999999REMSYN054AAXX  11174 06706 43/// /3302 1//// 2//// 3//// 5////;
0093067060999992011121118004+46483+006450FM-12+042599999V0203201N001519999999N9999999N1+99999+99999999999ADDOA149900311REMSYN070AAXX  11184 06706 43/// /3203 1//// 2//// 3//// 5//// 333 91106 91204;
0093067060999992011121119004+46483+006450FM-12+042599999V0203201N001519999999N9999999N1+99999+99999999999ADDOA149900211REMSYN070AAXX  11194 06706 43/// /3203 1//// 2//// 3//// 5//// 333 91104 91203;
0063067060999992011121120004+46483+006450FM-12+042599999V0203201N001519999999N9999999N1+99999+99999999999REMSYN054AAXX  11204 06706 43/// /3203 1//// 2//// 3//// 5////;
0063067060999992011121121004+46483+006450FM-12+042599999V0203101N001019999999N9999999N1+99999+99999999999REMSYN054AAXX  11214 06706 43/// /3102 1//// 2//// 3//// 5////;
0063067060999992011121122004+46483+006450FM-12+042599999V0203601N000519999999N9999999N1+99999+99999999999REMSYN054AAXX  11224 06706 43/// /3601 1//// 2//// 3//// 5////;
0063067060999992011121123004+46483+006450FM-12+042599999V0203001N000519999999N9999999N1+99999+99999999999REMSYN054AAXX  11234 06706 43/// /3001 1//// 2//// 3//// 5////;
0093067060999992011121200004+46483+006450FM-12+042599999V0202901N000519999999N9999999N1+99999+99999999999ADDOA149900211REMSYN070AAXX  12004 06706 43/// /2901 1//// 2//// 3//// 5//// 333 91104 91203;
0063067060999992011121201004+46483+006450FM-12+042599999V0202601N001519999999N9999999N1+99999+99999999999REMSYN054AAXX  12014 06706 43/// /2603 1//// 2//// 3//// 5////;
0063067060999992011121202004+46483+006450FM-12+042599999V0202601N003119999999N9999999N1+99999+99999999999REMSYN054AAXX  12024 06706 43/// /2606 1//// 2//// 3//// 5////;
0063067060999992011121203004+46483+006450FM-12+042599999V0202401N005719999999N9999999N1+99999+99999999999REMSYN054AAXX  12034 06706 43/// /2411 1//// 2//// 3//// 5////;
0063067060999992011121204004+46483+006450FM-12+042599999V0202501N004119999999N9999999N1+99999+99999999999REMSYN054AAXX  12044 06706 43/// /2508 1//// 2//// 3//// 5////;
0063067060999992011121205004+46483+006450FM-12+042599999V0202401N004619999999N9999999N1+99999+99999999999REMSYN054AAXX  12054 06706 43/// /2409 1//// 2//// 3//// 5////;
0063067060999992011121206004+46483+006450FM-12+042599999V0202401N005719999999N9999999N1+99999+99999999999REMSYN054AAXX  12064 06706 43/// /2411 1//// 2//// 3//// 5////;
0063067060999992011121207004+46483+006450FM-12+042599999V0202401N007219999999N9999999N1+99999+99999999999REMSYN054AAXX  12074 06706 43/// /2414 1//// 2//// 3//// 5////;
0063067060999992011121208004+46483+006450FM-12+042599999V0202301N006219999999N9999999N1+99999+99999999999REMSYN054AAXX  12084 06706 43/// /2312 1//// 2//// 3//// 5////;
0063067060999992011121209004+46483+006450FM-12+042599999V0202401N007219999999N9999999N1+99999+99999999999REMSYN054AAXX  12094 06706 43/// /2414 1//// 2//// 3//// 5////;
0063067060999992011121210004+46483+006450FM-12+042599999V0202601N003619999999N9999999N1+99999+99999999999REMSYN054AAXX  12104 06706 43/// /2607 1//// 2//// 3//// 5////;
0093067060999992011121211004+46483+006450FM-12+042599999V0202401N007719999999N9999999N1+99999+99999999999ADDOA149901291REMSYN070AAXX  12114 06706 43/// /2415 1//// 2//// 3//// 5//// 333 91125 91217;
0093067060999992011121212004+46483+006450FM-12+042599999V0202401N009319999999N9999999N1+99999+99999999999ADDOA149901291REMSYN070AAXX  12124 06706 43/// /2418 1//// 2//// 3//// 5//// 333 91125 91217;
0063067060999992011121213004+46483+006450FM-12+042599999V0202301N004619999999N9999999N1+99999+99999999999REMSYN054AAXX  12134 06706 43/// /2309 1//// 2//// 3//// 5////;
0063067060999992011121214004+46483+006450FM-12+042599999V0202301N006219999999N9999999N1+99999+99999999999REMSYN054AAXX  12144 06706 43/// /2312 1//// 2//// 3//// 5////;
0093067060999992011121215004+46483+006450FM-12+042599999V0202101N007219999999N9999999N1+99999+99999999999ADDOA149901241REMSYN070AAXX  12154 06706 43/// /2114 1//// 2//// 3//// 5//// 333 91124 91217;
0093067060999992011121216004+46483+006450FM-12+042599999V0202401N003119999999N9999999N1+99999+99999999999ADDOA149900881REMSYN070AAXX  12164 06706 43/// /2406 1//// 2//// 3//// 5//// 333 91117 91212;
0093067060999992011121217004+46483+006450FM-12+042599999V0202501N002619999999N9999999N1+99999+99999999999ADDOA149900571REMSYN070AAXX  12174 06706 43/// /2505 1//// 2//// 3//// 5//// 333 91111 91208;
0093067060999992011121218004+46483+006450FM-12+042599999V0202701N003619999999N9999999N1+99999+99999999999ADDOA149901541REMSYN070AAXX  12184 06706 43/// /2707 1//// 2//// 3//// 5//// 333 91130 91218;
0063067060999992011121219004+46483+006450FM-12+042599999V0202501N003619999999N9999999N1+99999+99999999999REMSYN054AAXX  12194 06706 43/// /2507 1//// 2//// 3//// 5////;
0093067060999992011121220004+46483+006450FM-12+042599999V0202601N003619999999N9999999N1+99999+99999999999ADDOA149900461REMSYN070AAXX  12204 06706 43/// /2607 1//// 2//// 3//// 5//// 333 91109 91207;
0063067060999992011121221004+46483+006450FM-12+042599999V0202701N003619999999N9999999N1+99999+99999999999REMSYN054AAXX  12214 06706 43/// /2707 1//// 2//// 3//// 5////;
0093067060999992011121222004+46483+006450FM-12+042599999V0202901N001519999999N9999999N1+99999+99999999999ADDOA149900461REMSYN070AAXX  12224 06706 43/// /2903 1//// 2//// 3//// 5//// 333 91109 91207;
0093067060999992011121223004+46483+006450FM-12+042599999V0202501N003119999999N9999999N1+99999+99999999999ADDOA149900511REMSYN070AAXX  12234 06706 43/// /2506 1//// 2//// 3//// 5//// 333 91110 91207;
0093067060999992011121300004+46483+006450FM-12+042599999V0202301N001019999999N9999999N1+99999+99999999999ADDOA149900621REMSYN070AAXX  13004 06706 43/// /2302 1//// 2//// 3//// 5//// 333 91112 91209;
0093067060999992011121301004+46483+006450FM-12+042599999V0202401N003619999999N9999999N1+99999+99999999999ADDOA149900511REMSYN070AAXX  13014 06706 43/// /2407 1//// 2//// 3//// 5//// 333 91110 91207;
0063067060999992011121302004+46483+006450FM-12+042599999V0202501N001519999999N9999999N1+99999+99999999999REMSYN054AAXX  13024 06706 43/// /2503 1//// 2//// 3//// 5////;
0093067060999992011121303004+46483+006450FM-12+042599999V0202301N005719999999N9999999N1+99999+99999999999ADDOA149900821REMSYN070AAXX  13034 06706 43/// /2311 1//// 2//// 3//// 5//// 333 91116 91212;
0093067060999992011121304004+46483+006450FM-12+042599999V0202301N005119999999N9999999N1+99999+99999999999ADDOA149900821REMSYN070AAXX  13044 06706 43/// /2310 1//// 2//// 3//// 5//// 333 91116 91211;
0093067060999992011121305004+46483+006450FM-12+042599999V0202401N006219999999N9999999N1+99999+99999999999ADDOA149900881REMSYN070AAXX  13054 06706 43/// /2412 1//// 2//// 3//// 5//// 333 91117 91212;
0093067060999992011121306004+46483+006450FM-12+042599999V0202301N007219999999N9999999N1+99999+99999999999ADDOA149901131REMSYN070AAXX  13064 06706 43/// /2314 1//// 2//// 3//// 5//// 333 91122 91217;
0093067060999992011121307004+46483+006450FM-12+042599999V0202201N005719999999N9999999N1+99999+99999999999ADDOA149901131REMSYN070AAXX  13074 06706 43/// /2211 1//// 2//// 3//// 5//// 333 91122 91215;
0063067060999992011121308004+46483+006450FM-12+042599999V0209999C000019999999N9999999N1+99999+99999999999REMSYN054AAXX  13084 06706 43/// /0000 1//// 2//// 3//// 5////;
0063067060999992011121309004+46483+006450FM-12+042599999V0202301N006219999999N9999999N1+99999+99999999999REMSYN054AAXX  13094 06706 43/// /2312 1//// 2//// 3//// 5////;
0093067060999992011121310004+46483+006450FM-12+042599999V0202401N007719999999N9999999N1+99999+99999999999ADDOA149901181REMSYN070AAXX  13104 06706 43/// /2415 1//// 2//// 3//// 5//// 333 91123 91214;
0093067060999992011121311004+46483+006450FM-12+042599999V0202301N006219999999N9999999N1+99999+99999999999ADDOA149901241REMSYN070AAXX  13114 06706 43/// /2312 1//// 2//// 3//// 5//// 333 91124 91216;
0063067060999992011121312004+46483+006450FM-12+042599999V0202301N006219999999N9999999N1+99999+99999999999REMSYN054AAXX  13124 06706 43/// /2312 1//// 2//// 3//// 5////;
0093067060999992011121313004+46483+006450FM-12+042599999V0202301N005719999999N9999999N1+99999+99999999999ADDOA149901131REMSYN070AAXX  13134 06706 43/// /2311 1//// 2//// 3//// 5//// 333 91122 91215;
0063067060999992011121314004+46483+006450FM-12+042599999V0202401N005719999999N9999999N1+99999+99999999999REMSYN054AAXX  13144 06706 43/// /2411 1//// 2//// 3//// 5////;
0063067060999992011121315004+46483+006450FM-12+042599999V0202501N007719999999N9999999N1+99999+99999999999REMSYN054AAXX  13154 06706 43/// /2515 1//// 2//// 3//// 5////;
0093067060999992011121316004+46483+006450FM-12+042599999V0202401N004619999999N9999999N1+99999+99999999999ADDOA149900931REMSYN070AAXX  13164 06706 43/// /2409 1//// 2//// 3//// 5//// 333 91118 91213;
0063067060999992011121317004+46483+006450FM-12+042599999V0201801N002619999999N9999999N1+99999+99999999999REMSYN054AAXX  13174 06706 43/// /1805 1//// 2//// 3//// 5////;
0093067060999992011121318004+46483+006450FM-12+042599999V0202201N005119999999N9999999N1+99999+99999999999ADDOA149901181REMSYN070AAXX  13184 06706 43/// /2210 1//// 2//// 3//// 5//// 333 91123 91215;
0063067060999992011121319004+46483+006450FM-12+042599999V0202501N005719999999N9999999N1+99999+99999999999REMSYN054AAXX  13194 06706 43/// /2511 1//// 2//// 3//// 5////;
0063067060999992011121320004+46483+006450FM-12+042599999V0202401N005719999999N9999999N1+99999+99999999999REMSYN054AAXX  13204 06706 43/// /2411 1//// 2//// 3//// 5////;
0063067060999992011121321004+46483+006450FM-12+042599999V0202101N004619999999N9999999N1+99999+99999999999REMSYN054AAXX  13214 06706 43/// /2109 1//// 2//// 3//// 5////;
0063067060999992011121322004+46483+006450FM-12+042599999V0201801N003119999999N9999999N1+99999+99999999999REMSYN054AAXX  13224 06706 43/// /1806 1//// 2//// 3//// 5////;
0063067060999992011121323004+46483+006450FM-12+042599999V0202301N006719999999N9999999N1+99999+99999999999REMSYN054AAXX  13234 06706 43/// /2313 1//// 2//// 3//// 5////;
0093067060999992011121400004+46483+006450FM-12+042599999V0202501N006219999999N9999999N1+99999+99999999999ADDOA149901291REMSYN070AAXX  14004 06706 43/// /2512 1//// 2//// 3//// 5//// 333 91125 91217;
0063067060999992011121401004+46483+006450FM-12+042599999V0202401N005719999999N9999999N1+99999+99999999999REMSYN054AAXX  14014 06706 43/// /2411 1//// 2//// 3//// 5////;
0063067060999992011121402004+46483+006450FM-12+042599999V0202401N006219999999N9999999N1+99999+99999999999REMSYN054AAXX  14024 06706 43/// /2412 1//// 2//// 3//// 5////;
0063067060999992011121403004+46483+006450FM-12+042599999V0202401N006219999999N9999999N1+99999+99999999999REMSYN054AAXX  14034 06706 43/// /2412 1//// 2//// 3//// 5////;
0093067060999992011121404004+46483+006450FM-12+042599999V0202501N003119999999N9999999N1+99999+99999999999ADDOA149900881REMSYN070AAXX  14044 06706 43/// /2506 1//// 2//// 3//// 5//// 333 91117 91211;
0093067060999992011121405004+46483+006450FM-12+042599999V0202301N003119999999N9999999N1+99999+99999999999ADDOA149900511REMSYN070AAXX  14054 06706 43/// /2306 1//// 2//// 3//// 5//// 333 91110 91206;
0093067060999992011121406004+46483+006450FM-12+042599999V0202501N005119999999N9999999N1+99999+99999999999ADDOA149901081REMSYN070AAXX  14064 06706 43/// /2510 1//// 2//// 3//// 5//// 333 91121 91215;
0093067060999992011121407004+46483+006450FM-12+042599999V0202401N003619999999N9999999N1+99999+99999999999ADDOA149901241REMSYN070AAXX  14074 06706 43/// /2407 1//// 2//// 3//// 5//// 333 91124 91216;
0063067060999992011121408004+46483+006450FM-12+042599999V0202401N007219999999N9999999N1+99999+99999999999REMSYN054AAXX  14084 06706 43/// /2414 1//// 2//// 3//// 5////;
0093067060999992011121409004+46483+006450FM-12+042599999V0202401N008219999999N9999999N1+99999+99999999999ADDOA149901241REMSYN070AAXX  14094 06706 43/// /2416 1//// 2//// 3//// 5//// 333 91124 91217;
0093067060999992011121410004+46483+006450FM-12+042599999V0202401N011319999999N9999999N1+99999+99999999999ADDOA149901851REMSYN070AAXX  14104 06706 43/// /2422 1//// 2//// 3//// 5//// 333 91136 91224;
0093067060999992011121411004+46483+006450FM-12+042599999V0202301N009819999999N9999999N1+99999+99999999999ADDOA149901751REMSYN070AAXX  14114 06706 43/// /2319 1//// 2//// 3//// 5//// 333 91134 91222;
0093067060999992011121412004+46483+006450FM-12+042599999V0202401N010319999999N9999999N1+99999+99999999999ADDOA149901851REMSYN070AAXX  14124 06706 43/// /2420 1//// 2//// 3//// 5//// 333 91136 91224;
0063067060999992011121413004+46483+006450FM-12+042599999V0202401N010319999999N9999999N1+99999+99999999999REMSYN054AAXX  14134 06706 43/// /2420 1//// 2//// 3//// 5////;
0063067060999992011121414004+46483+006450FM-12+042599999V0202201N009819999999N9999999N1+99999+99999999999REMSYN054AAXX  14144 06706 43/// /2219 1//// 2//// 3//// 5////;
0093067060999992011121415004+46483+006450FM-12+042599999V0202401N007719999999N9999999N1+99999+99999999999ADDOA149901701REMSYN070AAXX  14154 06706 43/// /2415 1//// 2//// 3//// 5//// 333 91133 91222;
0093067060999992011121416004+46483+006450FM-12+042599999V0202201N010319999999N9999999N1+99999+99999999999ADDOA149901751REMSYN070AAXX  14164 06706 43/// /2220 1//// 2//// 3//// 5//// 333 91134 91223;
0093067060999992011121417004+46483+006450FM-12+042599999V0202401N007719999999N9999999N1+99999+99999999999ADDOA149901961REMSYN070AAXX  14174 06706 43/// /2415 1//// 2//// 3//// 5//// 333 91138 91223;
0093067060999992011121418004+46483+006450FM-12+042599999V0202601N004119999999N9999999N1+99999+99999999999ADDOA149901961REMSYN070AAXX  14184 06706 43/// /2608 1//// 2//// 3//// 5//// 333 91138 91224;
0063067060999992011121419004+46483+006450FM-12+042599999V0202501N006719999999N9999999N1+99999+99999999999REMSYN054AAXX  14194 06706 43/// /2513 1//// 2//// 3//// 5////;
0093067060999992011121420004+46483+006450FM-12+042599999V0202601N004619999999N9999999N1+99999+99999999999ADDOA149900931REMSYN070AAXX  14204 06706 43/// /2609 1//// 2//// 3//// 5//// 333 91118 91212;
0063067060999992011121421004+46483+006450FM-12+042599999V0202201N005119999999N9999999N1+99999+99999999999REMSYN054AAXX  14214 06706 43/// /2210 1//// 2//// 3//// 5////;
0063067060999992011121422004+46483+006450FM-12+042599999V0202401N005719999999N9999999N1+99999+99999999999REMSYN054AAXX  14224 06706 43/// /2411 1//// 2//// 3//// 5////;
0063067060999992011121423004+46483+006450FM-12+042599999V0202501N005119999999N9999999N1+99999+99999999999REMSYN054AAXX  14234 06706 43/// /2510 1//// 2//// 3//// 5////;
0093067060999992011121500004+46483+006450FM-12+042599999V0202401N006719999999N9999999N1+99999+99999999999ADDOA149901701REMSYN070AAXX  15004 06706 43/// /2413 1//// 2//// 3//// 5//// 333 91133 91221;
0093067060999992011121501004+46483+006450FM-12+042599999V0202501N007719999999N9999999N1+99999+99999999999ADDOA149901081REMSYN070AAXX  15014 06706 43/// /2515 1//// 2//// 3//// 5//// 333 91121 91215;
0063067060999992011121502004+46483+006450FM-12+042599999V0202401N007719999999N9999999N1+99999+99999999999REMSYN054AAXX  15024 06706 43/// /2415 1//// 2//// 3//// 5////;
0063067060999992011121503004+46483+006450FM-12+042599999V0202401N007719999999N9999999N1+99999+99999999999REMSYN054AAXX  15034 06706 43/// /2415 1//// 2//// 3//// 5////;
0093067060999992011121504004+46483+006450FM-12+042599999V0202501N007219999999N9999999N1+99999+99999999999ADDOA149901601REMSYN070AAXX  15044 06706 43/// /2514 1//// 2//// 3//// 5//// 333 91131 91217;
0093067060999992011121505004+46483+006450FM-12+042599999V0202601N009319999999N9999999N1+99999+99999999999ADDOA149901701REMSYN070AAXX  15054 06706 43/// /2618 1//// 2//// 3//// 5//// 333 91133 91220;
0093067060999992011121506004+46483+006450FM-12+042599999V0202801N006219999999N9999999N1+99999+99999999999ADDOA149901701REMSYN070AAXX  15064 06706 43/// /2812 1//// 2//// 3//// 5//// 333 91133 91221;
0093067060999992011121507004+46483+006450FM-12+042599999V0202401N004619999999N9999999N1+99999+99999999999ADDOA149901391REMSYN070AAXX  15074 06706 43/// /2409 1//// 2//// 3//// 5//// 333 91127 91216;
0063067060999992011121508004+46483+006450FM-12+042599999V0202201N009819999999N9999999N1+99999+99999999999REMSYN054AAXX  15084 06706 43/// /2219 1//// 2//// 3//// 5////;
0093067060999992011121509004+46483+006450FM-12+042599999V0202101N012319999999N9999999N1+99999+99999999999ADDOA149901801REMSYN070AAXX  15094 06706 43/// /2124 1//// 2//// 3//// 5//// 333 91135 91223;
0093067060999992011121510004+46483+006450FM-12+042599999V0202101N011319999999N9999999N1+99999+99999999999ADDOA149901701REMSYN070AAXX  15104 06706 43/// /2122 1//// 2//// 3//// 5//// 333 91133 91224;
0093067060999992011121511004+46483+006450FM-12+042599999V0202301N011819999999N9999999N1+99999+99999999999ADDOA149901751REMSYN070AAXX  15114 06706 43/// /2323 1//// 2//// 3//// 5//// 333 91134 91223;
0063067060999992011121512004+46483+006450FM-12+042599999V0202501N009319999999N9999999N1+99999+99999999999REMSYN054AAXX  15124 06706 43/// /2518 1//// 2//// 3//// 5////;
0063067060999992011121513004+46483+006450FM-12+042599999V0202501N005119999999N9999999N1+99999+99999999999REMSYN054AAXX  15134 06706 43/// /2510 1//// 2//// 3//// 5////;
0063067060999992011121514004+46483+006450FM-12+042599999V0202501N007719999999N9999999N1+99999+99999999999REMSYN054AAXX  15144 06706 43/// /2515 1//// 2//// 3//// 5////;
0093067060999992011121515004+46483+006450FM-12+042599999V0202401N008219999999N9999999N1+99999+99999999999ADDOA149901601REMSYN070AAXX  15154 06706 43/// /2416 1//// 2//// 3//// 5//// 333 91131 91218;
0063067060999992011121516004+46483+006450FM-12+042599999V0202301N008719999999N9999999N1+99999+99999999999REMSYN054AAXX  15164 06706 43/// /2317 1//// 2//// 3//// 5////;
0093067060999992011121517004+46483+006450FM-12+042599999V0202301N006719999999N9999999N1+99999+99999999999ADDOA149901541REMSYN070AAXX  15174 06706 43/// /2313 1//// 2//// 3//// 5//// 333 91130 91219;
0093067060999992011121518004+46483+006450FM-12+042599999V0202501N004619999999N9999999N1+99999+99999999999ADDOA149901601REMSYN070AAXX  15184 06706 43/// /2509 1//// 2//// 3//// 5//// 333 91131 91219;
0063067060999992011121519004+46483+006450FM-12+042599999V0202501N004619999999N9999999N1+99999+99999999999REMSYN054AAXX  15194 06706 43/// /2509 1//// 2//// 3//// 5////;
0063067060999992011121520004+46483+006450FM-12+042599999V0202401N005119999999N9999999N1+99999+99999999999REMSYN054AAXX  15204 06706 43/// /2410 1//// 2//// 3//// 5////;
0063067060999992011121521004+46483+006450FM-12+042599999V0202301N008219999999N9999999N1+99999+99999999999REMSYN054AAXX  15214 06706 43/// /2316 1//// 2//// 3//// 5////;
0063067060999992011121522004+46483+006450FM-12+042599999V0202401N006719999999N9999999N1+99999+99999999999REMSYN054AAXX  15224 06706 43/// /2413 1//// 2//// 3//// 5////;
0093067060999992011121523004+46483+006450FM-12+042599999V0202401N007219999999N9999999N1+99999+99999999999ADDOA149901081REMSYN070AAXX  15234 06706 43/// /2414 1//// 2//// 3//// 5//// 333 91121 91214;
0093067060999992011121600004+46483+006450FM-12+042599999V0202401N008719999999N9999999N1+99999+99999999999ADDOA149901441REMSYN070AAXX  16004 06706 43/// /2417 1//// 2//// 3//// 5//// 333 91128 91219;
0063067060999992011121601004+46483+006450FM-12+042599999V0202401N008219999999N9999999N1+99999+99999999999REMSYN054AAXX  16014 06706 43/// /2416 1//// 2//// 3//// 5////;
0063067060999992011121602004+46483+006450FM-12+042599999V0202301N010319999999N9999999N1+99999+99999999999REMSYN054AAXX  16024 06706 43/// /2320 1//// 2//// 3//// 5////;
0063067060999992011121603004+46483+006450FM-12+042599999V0202301N011319999999N9999999N1+99999+99999999999REMSYN054AAXX  16034 06706 43/// /2322 1//// 2//// 3//// 5////;
0093067060999992011121604004+46483+006450FM-12+042599999V0202301N012319999999N9999999N1+99999+99999999999ADDOA149901751REMSYN070AAXX  16044 06706 43/// /2324 1//// 2//// 3//// 5//// 333 91134 91223;
0093067060999992011121605004+46483+006450FM-12+042599999V0202201N012919999999N9999999N1+99999+99999999999ADDOA149901961REMSYN070AAXX  16054 06706 43/// /2225 1//// 2//// 3//// 5//// 333 91138 91225;
0093067060999992011121606004+46483+006450FM-12+042599999V0202301N013919999999N9999999N1+99999+99999999999ADDOA149902061REMSYN070AAXX  16064 06706 43/// /2327 1//// 2//// 3//// 5//// 333 91140 91226;
0093067060999992011121607004+46483+006450FM-12+042599999V0202301N013919999999N9999999N1+99999+99999999999ADDOA149902061REMSYN070AAXX  16074 06706 43/// /2327 1//// 2//// 3//// 5//// 333 91140 91227;
0093067060999992011121608004+46483+006450FM-12+042599999V0202301N012919999999N9999999N1+99999+99999999999ADDOA149901851REMSYN070AAXX  16084 06706 43/// /2325 1//// 2//// 3//// 5//// 333 91136 91225;
0093067060999992011121609004+46483+006450FM-12+042599999V0202301N012319999999N9999999N1+99999+99999999999ADDOA149902061REMSYN070AAXX  16094 06706 43/// /2324 1//// 2//// 3//// 5//// 333 91140 91227;
0093067060999992011121610004+46483+006450FM-12+042599999V0202401N011819999999N9999999N1+99999+99999999999ADDOA149901751REMSYN070AAXX  16104 06706 43/// /2423 1//// 2//// 3//// 5//// 333 91134 91223;
0093067060999992011121611004+46483+006450FM-12+042599999V0202401N010319999999N9999999N1+99999+99999999999ADDOA149901961REMSYN070AAXX  16114 06706 43/// /2420 1//// 2//// 3//// 5//// 333 91138 91223;
0063067060999992011121612004+46483+006450FM-12+042599999V0202301N012919999999N9999999N1+99999+99999999999REMSYN054AAXX  16124 06706 43/// /2325 1//// 2//// 3//// 5////;
0063067060999992011121613004+46483+006450FM-12+042599999V0202301N014919999999N9999999N1+99999+99999999999REMSYN054AAXX  16134 06706 43/// /2329 1//// 2//// 3//// 5////;
0063067060999992011121614004+46483+006450FM-12+042599999V0202401N015919999999N9999999N1+99999+99999999999REMSYN054AAXX  16144 06706 43/// /2431 1//// 2//// 3//// 5////;
0093067060999992011121615004+46483+006450FM-12+042599999V0202401N011819999999N9999999N1+99999+99999999999ADDOA149902321REMSYN070AAXX  16154 06706 43/// /2423 1//// 2//// 3//// 5//// 333 91145 91231;
0093067060999992011121616004+46483+006450FM-12+042599999V0202401N009819999999N9999999N1+99999+99999999999ADDOA149902211REMSYN070AAXX  16164 06706 43/// /2419 1//// 2//// 3//// 5//// 333 91143 91223;
0077067060999992011121617004+46483+006450FM-12+042599999V0202501N006719999999N9999999N1+99999+99999999999ADDOA149901961REMSYN054AAXX  16174 06706 43/// /2513 1//// 2//// 3//// 5////;
0093067060999992011121618004+46483+006450FM-12+042599999V0202601N005719999999N9999999N1+99999+99999999999ADDOA149902321REMSYN070AAXX  16184 06706 43/// /2611 1//// 2//// 3//// 5//// 333 91145 91231;
0063067060999992011121619004+46483+006450FM-12+042599999V0202501N006219999999N9999999N1+99999+99999999999REMSYN054AAXX  16194 06706 43/// /2512 1//// 2//// 3//// 5////;
0093067060999992011121620004+46483+006450FM-12+042599999V0202501N003619999999N9999999N1+99999+99999999999ADDOA149901131REMSYN070AAXX  16204 06706 43/// /2507 1//// 2//// 3//// 5//// 333 91122 91210;
0063067060999992011121621004+46483+006450FM-12+042599999V0202501N006719999999N9999999N1+99999+99999999999REMSYN054AAXX  16214 06706 43/// /2513 1//// 2//// 3//// 5////;
0077067060999992011121622004+46483+006450FM-12+042599999V0202301N007219999999N9999999N1+99999+99999999999ADDOA149901131REMSYN054AAXX  16224 06706 43/// /2314 1//// 2//// 3//// 5////;
0063067060999992011121623004+46483+006450FM-12+042599999V0202301N006719999999N9999999N1+99999+99999999999REMSYN054AAXX  16234 06706 43/// /2313 1//// 2//// 3//// 5////;
0063067060999992011121700004+46483+006450FM-12+042599999V0202401N007219999999N9999999N1+99999+99999999999REMSYN054AAXX  17004 06706 43/// /2414 1//// 2//// 3//// 5////;
0063067060999992011121701004+46483+006450FM-12+042599999V0202601N005719999999N9999999N1+99999+99999999999REMSYN054AAXX  17014 06706 43/// /2611 1//// 2//// 3//// 5////;
0063067060999992011121702004+46483+006450FM-12+042599999V0202301N005119999999N9999999N1+99999+99999999999REMSYN054AAXX  17024 06706 43/// /2310 1//// 2//// 3//// 5////;
0063067060999992011121703004+46483+006450FM-12+042599999V0202101N006219999999N9999999N1+99999+99999999999REMSYN054AAXX  17034 06706 43/// /2112 1//// 2//// 3//// 5////;
0063067060999992011121704004+46483+006450FM-12+042599999V0202101N006719999999N9999999N1+99999+99999999999REMSYN054AAXX  17044 06706 43/// /2113 1//// 2//// 3//// 5////;
0093067060999992011121705004+46483+006450FM-12+042599999V0202201N007219999999N9999999N1+99999+99999999999ADDOA149901341REMSYN070AAXX  17054 06706 43/// /2214 1//// 2//// 3//// 5//// 333 91126 91217;
0063067060999992011121706004+46483+006450FM-12+042599999V0202401N006719999999N9999999N1+99999+99999999999REMSYN054AAXX  17064 06706 43/// /2413 1//// 2//// 3//// 5////;
0063067060999992011121707004+46483+006450FM-12+042599999V0202501N007719999999N9999999N1+99999+99999999999REMSYN054AAXX  17074 06706 43/// /2515 1//// 2//// 3//// 5////;
0063067060999992011121708004+46483+006450FM-12+042599999V0202301N007219999999N9999999N1+99999+99999999999REMSYN054AAXX  17084 06706 43/// /2314 1//// 2//// 3//// 5////;
0093067060999992011121709004+46483+006450FM-12+042599999V0202301N008219999999N9999999N1+99999+99999999999ADDOA149901391REMSYN070AAXX  17094 06706 43/// /2316 1//// 2//// 3//// 5//// 333 91127 91218;
0063067060999992011121710004+46483+006450FM-12+042599999V0202701N004619999999N9999999N1+99999+99999999999REMSYN054AAXX  17104 06706 43/// /2709 1//// 2//// 3//// 5////;
0063067060999992011121711004+46483+006450FM-12+042599999V0202501N005119999999N9999999N1+99999+99999999999REMSYN054AAXX  17114 06706 43/// /2510 1//// 2//// 3//// 5////;
0063067060999992011121712004+46483+006450FM-12+042599999V0202401N005119999999N9999999N1+99999+99999999999REMSYN054AAXX  17124 06706 43/// /2410 1//// 2//// 3//// 5////;
0063067060999992011121713004+46483+006450FM-12+042599999V0202501N005119999999N9999999N1+99999+99999999999REMSYN054AAXX  17134 06706 43/// /2510 1//// 2//// 3//// 5////;
0063067060999992011121714004+46483+006450FM-12+042599999V0202401N004619999999N9999999N1+99999+99999999999REMSYN054AAXX  17144 06706 43/// /2409 1//// 2//// 3//// 5////;
0063067060999992011121715004+46483+006450FM-12+042599999V0202501N004119999999N9999999N1+99999+99999999999REMSYN054AAXX  17154 06706 43/// /2508 1//// 2//// 3//// 5////;
0063067060999992011121716004+46483+006450FM-12+042599999V0202601N003619999999N9999999N1+99999+99999999999REMSYN054AAXX  17164 06706 43/// /2607 1//// 2//// 3//// 5////;
0093067060999992011121717004+46483+006450FM-12+042599999V0202501N004619999999N9999999N1+99999+99999999999ADDOA149900721REMSYN070AAXX  17174 06706 43/// /2509 1//// 2//// 3//// 5//// 333 91114 91210;
0093067060999992011121718004+46483+006450FM-12+042599999V0202401N004619999999N9999999N1+99999+99999999999ADDOA149900931REMSYN070AAXX  17184 06706 43/// /2409 1//// 2//// 3//// 5//// 333 91118 91212;
0063067060999992011121719004+46483+006450FM-12+042599999V0202501N005119999999N9999999N1+99999+99999999999REMSYN054AAXX  17194 06706 43/// /2510 1//// 2//// 3//// 5////;
0093067060999992011121720004+46483+006450FM-12+042599999V0202401N003619999999N9999999N1+99999+99999999999ADDOA149900671REMSYN070AAXX  17204 06706 43/// /2407 1//// 2//// 3//// 5//// 333 91113 91209;
0063067060999992011121721004+46483+006450FM-12+042599999V0202401N005119999999N9999999N1+99999+99999999999REMSYN054AAXX  17214 06706 43/// /2410 1//// 2//// 3//// 5////;
0093067060999992011121722004+46483+006450FM-12+042599999V0202401N006219999999N9999999N1+99999+99999999999ADDOA149900881REMSYN070AAXX  17224 06706 43/// /2412 1//// 2//// 3//// 5//// 333 91117 91212;
0063067060999992011121723004+46483+006450FM-12+042599999V0202501N004619999999N9999999N1+99999+99999999999REMSYN054AAXX  17234 06706 43/// /2509 1//// 2//// 3//// 5////;
0063067060999992011121800004+46483+006450FM-12+042599999V0202501N005119999999N9999999N1+99999+99999999999REMSYN054AAXX  18004 06706 43/// /2510 1//// 2//// 3//// 5////;
0063067060999992011121801004+46483+006450FM-12+042599999V0202501N004119999999N9999999N1+99999+99999999999REMSYN054AAXX  18014 06706 43/// /2508 1//// 2//// 3//// 5////;
0063067060999992011121802004+46483+006450FM-12+042599999V0202501N005119999999N9999999N1+99999+99999999999REMSYN054AAXX  18024 06706 43/// /2510 1//// 2//// 3//// 5////;
0063067060999992011121803004+46483+006450FM-12+042599999V0202401N005119999999N9999999N1+99999+99999999999REMSYN054AAXX  18034 06706 43/// /2410 1//// 2//// 3//// 5////;
0063067060999992011121804004+46483+006450FM-12+042599999V0202401N004119999999N9999999N1+99999+99999999999REMSYN054AAXX  18044 06706 43/// /2408 1//// 2//// 3//// 5////;
0063067060999992011121805004+46483+006450FM-12+042599999V0202601N004119999999N9999999N1+99999+99999999999REMSYN054AAXX  18054 06706 43/// /2608 1//// 2//// 3//// 5////;
0093067060999992011121806004+46483+006450FM-12+042599999V0202401N002119999999N9999999N1+99999+99999999999ADDOA149900981REMSYN070AAXX  18064 06706 43/// /2404 1//// 2//// 3//// 5//// 333 91119 91214;
0063067060999992011121807004+46483+006450FM-12+042599999V0202301N003619999999N9999999N1+99999+99999999999REMSYN054AAXX  18074 06706 43/// /2307 1//// 2//// 3//// 5////;
0063067060999992011121808004+46483+006450FM-12+042599999V0202501N002119999999N9999999N1+99999+99999999999REMSYN054AAXX  18084 06706 43/// /2504 1//// 2//// 3//// 5////;
0093067060999992011121809004+46483+006450FM-12+042599999V0202501N003619999999N9999999N1+99999+99999999999ADDOA149900571REMSYN070AAXX  18094 06706 43/// /2507 1//// 2//// 3//// 5//// 333 91111 91208;
0093067060999992011121810004+46483+006450FM-12+042599999V0202501N004619999999N9999999N1+99999+99999999999ADDOA149900671REMSYN070AAXX  18104 06706 43/// /2509 1//// 2//// 3//// 5//// 333 91113 91209;
0093067060999992011121811004+46483+006450FM-12+042599999V0202301N004619999999N9999999N1+99999+99999999999ADDOA149900821REMSYN070AAXX  18114 06706 43/// /2309 1//// 2//// 3//// 5//// 333 91116 91212;
0093067060999992011121812004+46483+006450FM-12+042599999V0202501N005119999999N9999999N1+99999+99999999999ADDOA149900821REMSYN070AAXX  18124 06706 43/// /2510 1//// 2//// 3//// 5//// 333 91116 91212;
0063067060999992011121813004+46483+006450FM-12+042599999V0209999C000019999999N9999999N1+99999+99999999999REMSYN054AAXX  18134 06706 43/// /0000 1//// 2//// 3//// 5////;
0063067060999992011121814004+46483+006450FM-12+042599999V0202501N004619999999N9999999N1+99999+99999999999REMSYN054AAXX  18144 06706 43/// /2509 1//// 2//// 3//// 5////;
0093067060999992011121815004+46483+006450FM-12+042599999V0202401N004619999999N9999999N1+99999+99999999999ADDOA149901081REMSYN070AAXX  18154 06706 43/// /2409 1//// 2//// 3//// 5//// 333 91121 91210;
0093067060999992011121816004+46483+006450FM-12+042599999V0202601N004119999999N9999999N1+99999+99999999999ADDOA149901081REMSYN070AAXX  18164 06706 43/// /2608 1//// 2//// 3//// 5//// 333 91121 91210;
0093067060999992011121817004+46483+006450FM-12+042599999V0202501N003619999999N9999999N1+99999+99999999999ADDOA149900881REMSYN070AAXX  18174 06706 43/// /2507 1//// 2//// 3//// 5//// 333 91117 91212;
0093067060999992011121818004+46483+006450FM-12+042599999V0202601N005119999999N9999999N1+99999+99999999999ADDOA149901081REMSYN070AAXX  18184 06706 43/// /2610 1//// 2//// 3//// 5//// 333 91121 91212;
0093067060999992011121819004+46483+006450FM-12+042599999V0202601N002619999999N9999999N1+99999+99999999999ADDOA149900771REMSYN070AAXX  18194 06706 43/// /2605 1//// 2//// 3//// 5//// 333 91115 91209;
0093067060999992011121820004+46483+006450FM-12+042599999V0202601N001519999999N9999999N1+99999+99999999999ADDOA149900411REMSYN070AAXX  18204 06706 43/// /2603 1//// 2//// 3//// 5//// 333 91108 91206;
0063067060999992011121821004+46483+006450FM-12+042599999V0202601N004619999999N9999999N1+99999+99999999999REMSYN054AAXX  18214 06706 43/// /2609 1//// 2//// 3//// 5////;
0093067060999992011121822004+46483+006450FM-12+042599999V0202601N003619999999N9999999N1+99999+99999999999ADDOA149900621REMSYN070AAXX  18224 06706 43/// /2607 1//// 2//// 3//// 5//// 333 91112 91208;
0063067060999992011121823004+46483+006450FM-12+042599999V0202601N004619999999N9999999N1+99999+99999999999REMSYN054AAXX  18234 06706 43/// /2609 1//// 2//// 3//// 5////;
0063067060999992011121900004+46483+006450FM-12+042599999V0202501N003119999999N9999999N1+99999+99999999999REMSYN054AAXX  19004 06706 43/// /2506 1//// 2//// 3//// 5////;
0063067060999992011121901004+46483+006450FM-12+042599999V0202701N003119999999N9999999N1+99999+99999999999REMSYN054AAXX  19014 06706 43/// /2706 1//// 2//// 3//// 5////;
0063067060999992011121902004+46483+006450FM-12+042599999V0202601N003619999999N9999999N1+99999+99999999999REMSYN054AAXX  19024 06706 43/// /2607 1//// 2//// 3//// 5////;
0093067060999992011121903004+46483+006450FM-12+042599999V0202501N004619999999N9999999N1+99999+99999999999ADDOA149900621REMSYN070AAXX  19034 06706 43/// /2509 1//// 2//// 3//// 5//// 333 91112 91209;
0063067060999992011121904004+46483+006450FM-12+042599999V0202601N005719999999N9999999N1+99999+99999999999REMSYN054AAXX  19044 06706 43/// /2611 1//// 2//// 3//// 5////;
0093067060999992011121905004+46483+006450FM-12+042599999V0202601N006219999999N9999999N1+99999+99999999999ADDOA149900931REMSYN070AAXX  19054 06706 43/// /2612 1//// 2//// 3//// 5//// 333 91118 91212;
0063067060999992011121906004+46483+006450FM-12+042599999V0202601N005119999999N9999999N1+99999+99999999999REMSYN054AAXX  19064 06706 43/// /2610 1//// 2//// 3//// 5////;
0063067060999992011121907004+46483+006450FM-12+042599999V0202501N005719999999N9999999N1+99999+99999999999REMSYN054AAXX  19074 06706 43/// /2511 1//// 2//// 3//// 5////;
0063067060999992011121908004+46483+006450FM-12+042599999V0202501N005719999999N9999999N1+99999+99999999999REMSYN054AAXX  19084 06706 43/// /2511 1//// 2//// 3//// 5////;
0093067060999992011121909004+46483+006450FM-12+042599999V0202401N005119999999N9999999N1+99999+99999999999ADDOA149900821REMSYN070AAXX  19094 06706 43/// /2410 1//// 2//// 3//// 5//// 333 91116 91211;
0093067060999992011121910004+46483+006450FM-12+042599999V0202501N003619999999N9999999N1+99999+99999999999ADDOA149900771REMSYN070AAXX  19104 06706 43/// /2507 1//// 2//// 3//// 5//// 333 91115 91210;
0093067060999992011121911004+46483+006450FM-12+042599999V0202601N004619999999N9999999N1+99999+99999999999ADDOA149900671REMSYN070AAXX  19114 06706 43/// /2609 1//// 2//// 3//// 5//// 333 91113 91210;
0093067060999992011121912004+46483+006450FM-12+042599999V0202501N004119999999N9999999N1+99999+99999999999ADDOA149900821REMSYN070AAXX  19124 06706 43/// /2508 1//// 2//// 3//// 5//// 333 91116 91211;
0063067060999992011121913004+46483+006450FM-12+042599999V0202601N002619999999N9999999N1+99999+99999999999REMSYN054AAXX  19134 06706 43/// /2605 1//// 2//// 3//// 5////;
0077067060999992011121914004+46483+006450FM-12+042599999V0202601N002619999999N9999999N1+99999+99999999999ADDOA149900461REMSYN054AAXX  19144 06706 43/// /2605 1//// 2//// 3//// 5////;
0093067060999992011121915004+46483+006450FM-12+042599999V0202601N000519999999N9999999N1+99999+99999999999ADDOA149900511REMSYN070AAXX  19154 06706 43/// /2601 1//// 2//// 3//// 5//// 333 91110 91207;
0093067060999992011121916004+46483+006450FM-12+042599999V0202901N000519999999N9999999N1+99999+99999999999ADDOA149900361REMSYN070AAXX  19164 06706 43/// /2901 1//// 2//// 3//// 5//// 333 91107 91204;
0093067060999992011121917004+46483+006450FM-12+042599999V0202901N001519999999N9999999N1+99999+99999999999ADDOA149900361REMSYN070AAXX  19174 06706 43/// /2903 1//// 2//// 3//// 5//// 333 91107 91206;
0093067060999992011121918004+46483+006450FM-12+042599999V0203101N002619999999N9999999N1+99999+99999999999ADDOA149900571REMSYN070AAXX  19184 06706 43/// /3105 1//// 2//// 3//// 5//// 333 91111 91208;
0093067060999992011121919004+46483+006450FM-12+042599999V0202901N002619999999N9999999N1+99999+99999999999ADDOA149900461REMSYN070AAXX  19194 06706 43/// /2905 1//// 2//// 3//// 5//// 333 91109 91207;
0093067060999992011121920004+46483+006450FM-12+042599999V0202801N003119999999N9999999N1+99999+99999999999ADDOA149900361REMSYN070AAXX  19204 06706 43/// /2806 1//// 2//// 3//// 5//// 333 91107 91206;
0063067060999992011121921004+46483+006450FM-12+042599999V0202601N002619999999N9999999N1+99999+99999999999REMSYN054AAXX  19214 06706 43/// /2605 1//// 2//// 3//// 5////;
0063067060999992011121922004+46483+006450FM-12+042599999V0202401N005719999999N9999999N1+99999+99999999999REMSYN054AAXX  19224 06706 43/// /2411 1//// 2//// 3//// 5////;
0063067060999992011121923004+46483+006450FM-12+042599999V0202501N004619999999N9999999N1+99999+99999999999REMSYN054AAXX  19234 06706 43/// /2509 1//// 2//// 3//// 5////;
0093067060999992011122000004+46483+006450FM-12+042599999V0202501N004119999999N9999999N1+99999+99999999999ADDOA149900821REMSYN070AAXX  20004 06706 43/// /2508 1//// 2//// 3//// 5//// 333 91116 91211;
0093067060999992011122001004+46483+006450FM-12+042599999V0202401N005719999999N9999999N1+99999+99999999999ADDOA149900821REMSYN070AAXX  20014 06706 43/// /2411 1//// 2//// 3//// 5//// 333 91116 91211;
0063067060999992011122002004+46483+006450FM-12+042599999V0202401N005719999999N9999999N1+99999+99999999999REMSYN054AAXX  20024 06706 43/// /2411 1//// 2//// 3//// 5////;
0093067060999992011122003004+46483+006450FM-12+042599999V0202501N006719999999N9999999N1+99999+99999999999ADDOA149901081REMSYN070AAXX  20034 06706 43/// /2513 1//// 2//// 3//// 5//// 333 91121 91214;
0093067060999992011122004004+46483+006450FM-12+042599999V0202501N007219999999N9999999N1+99999+99999999999ADDOA149901131REMSYN070AAXX  20044 06706 43/// /2514 1//// 2//// 3//// 5//// 333 91122 91216;
0093067060999992011122005004+46483+006450FM-12+042599999V0202401N008219999999N9999999N1+99999+99999999999ADDOA149901241REMSYN070AAXX  20054 06706 43/// /2416 1//// 2//// 3//// 5//// 333 91124 91216;
0093067060999992011122006004+46483+006450FM-12+042599999V0202401N007219999999N9999999N1+99999+99999999999ADDOA149901291REMSYN070AAXX  20064 06706 43/// /2414 1//// 2//// 3//// 5//// 333 91125 91217;
0093067060999992011122007004+46483+006450FM-12+042599999V0202401N006719999999N9999999N1+99999+99999999999ADDOA149901031REMSYN070AAXX  20074 06706 43/// /2413 1//// 2//// 3//// 5//// 333 91120 91214;
0063067060999992011122008004+46483+006450FM-12+042599999V0202301N005119999999N9999999N1+99999+99999999999REMSYN054AAXX  20084 06706 43/// /2310 1//// 2//// 3//// 5////;
0093067060999992011122009004+46483+006450FM-12+042599999V0202301N004619999999N9999999N1+99999+99999999999ADDOA149901031REMSYN070AAXX  20094 06706 43/// /2309 1//// 2//// 3//// 5//// 333 91120 91214;
0093067060999992011122010004+46483+006450FM-12+042599999V0202301N004619999999N9999999N1+99999+99999999999ADDOA149900721REMSYN070AAXX  20104 06706 43/// /2309 1//// 2//// 3//// 5//// 333 91114 91209;
0093067060999992011122011004+46483+006450FM-12+042599999V0202301N004119999999N9999999N1+99999+99999999999ADDOA149900671REMSYN070AAXX  20114 06706 43/// /2308 1//// 2//// 3//// 5//// 333 91113 91210;
0063067060999992011122012004+46483+006450FM-12+042599999V0202101N005119999999N9999999N1+99999+99999999999REMSYN054AAXX  20124 06706 43/// /2110 1//// 2//// 3//// 5////;
0063067060999992011122013004+46483+006450FM-12+042599999V0202301N003119999999N9999999N1+99999+99999999999REMSYN054AAXX  20134 06706 43/// /2306 1//// 2//// 3//// 5////;
0063067060999992011122014004+46483+006450FM-12+042599999V0202101N004119999999N9999999N1+99999+99999999999REMSYN054AAXX  20144 06706 43/// /2108 1//// 2//// 3//// 5////;
0063067060999992011122015004+46483+006450FM-12+042599999V0202301N003619999999N9999999N1+99999+99999999999REMSYN054AAXX  20154 06706 43/// /2307 1//// 2//// 3//// 5////;
0063067060999992011122016004+46483+006450FM-12+042599999V0209999C000019999999N9999999N1+99999+99999999999REMSYN054AAXX  20164 06706 43/// /0000 1//// 2//// 3//// 5////;
0063067060999992011122017004+46483+006450FM-12+042599999V0209999C000019999999N9999999N1+99999+99999999999REMSYN054AAXX  20174 06706 43/// /0000 1//// 2//// 3//// 5////;
0063067060999992011122018004+46483+006450FM-12+042599999V0200701N000519999999N9999999N1+99999+99999999999REMSYN054AAXX  20184 06706 43/// /0701 1//// 2//// 3//// 5////;
0063067060999992011122019004+46483+006450FM-12+042599999V0202901N001019999999N9999999N1+99999+99999999999REMSYN054AAXX  20194 06706 43/// /2902 1//// 2//// 3//// 5////;
0063067060999992011122020004+46483+006450FM-12+042599999V0203101N002119999999N9999999N1+99999+99999999999REMSYN054AAXX  20204 06706 43/// /3104 1//// 2//// 3//// 5////;
0063067060999992011122021004+46483+006450FM-12+042599999V0203601N002119999999N9999999N1+99999+99999999999REMSYN054AAXX  20214 06706 43/// /3604 1//// 2//// 3//// 5////;
0093067060999992011122022004+46483+006450FM-12+042599999V0203301N000519999999N9999999N1+99999+99999999999ADDOA149900151REMSYN070AAXX  20224 06706 43/// /3301 1//// 2//// 3//// 5//// 333 91103 91203;
0063067060999992011122023004+46483+006450FM-12+042599999V0202901N001519999999N9999999N1+99999+99999999999REMSYN054AAXX  20234 06706 43/// /2903 1//// 2//// 3//// 5////;
0093067060999992011122100004+46483+006450FM-12+042599999V0202501N003619999999N9999999N1+99999+99999999999ADDOA149900461REMSYN070AAXX  21004 06706 43/// /2507 1//// 2//// 3//// 5//// 333 91109 91207;
0063067060999992011122101004+46483+006450FM-12+042599999V0202501N002119999999N9999999N1+99999+99999999999REMSYN054AAXX  21014 06706 43/// /2504 1//// 2//// 3//// 5////;
0063067060999992011122102004+46483+006450FM-12+042599999V0202401N003119999999N9999999N1+99999+99999999999REMSYN054AAXX  21024 06706 43/// /2406 1//// 2//// 3//// 5////;
0063067060999992011122103004+46483+006450FM-12+042599999V0202501N003619999999N9999999N1+99999+99999999999REMSYN054AAXX  21034 06706 43/// /2507 1//// 2//// 3//// 5////;
0093067060999992011122104004+46483+006450FM-12+042599999V0202401N002119999999N9999999N1+99999+99999999999ADDOA149900461REMSYN070AAXX  21044 06706 43/// /2404 1//// 2//// 3//// 5//// 333 91109 91206;
0093067060999992011122105004+46483+006450FM-12+042599999V0202501N004619999999N9999999N1+99999+99999999999ADDOA149900771REMSYN070AAXX  21054 06706 43/// /2509 1//// 2//// 3//// 5//// 333 91115 91210;
0093067060999992011122106004+46483+006450FM-12+042599999V0202501N006719999999N9999999N1+99999+99999999999ADDOA149900771REMSYN070AAXX  21064 06706 43/// /2513 1//// 2//// 3//// 5//// 333 91115 91210;
0063067060999992011122107004+46483+006450FM-12+042599999V0202501N004119999999N9999999N1+99999+99999999999REMSYN054AAXX  21074 06706 43/// /2508 1//// 2//// 3//// 5////;
0063067060999992011122108004+46483+006450FM-12+042599999V0202601N004119999999N9999999N1+99999+99999999999REMSYN054AAXX  21084 06706 43/// /2608 1//// 2//// 3//// 5////;
0093067060999992011122109004+46483+006450FM-12+042599999V0202601N002119999999N9999999N1+99999+99999999999ADDOA149900931REMSYN070AAXX  21094 06706 43/// /2604 1//// 2//// 3//// 5//// 333 91118 91212;
0093067060999992011122110004+46483+006450FM-12+042599999V0202401N002619999999N9999999N1+99999+99999999999ADDOA149900621REMSYN070AAXX  21104 06706 43/// /2405 1//// 2//// 3//// 5//// 333 91112 91208;
0093067060999992011122111004+46483+006450FM-12+042599999V0202301N004119999999N9999999N1+99999+99999999999ADDOA149900571REMSYN070AAXX  21114 06706 43/// /2308 1//// 2//// 3//// 5//// 333 91111 91208;
0093067060999992011122112004+46483+006450FM-12+042599999V0202201N002619999999N9999999N1+99999+99999999999ADDOA149900931REMSYN070AAXX  21124 06706 43/// /2205 1//// 2//// 3//// 5//// 333 91118 91213;
0093067060999992011122113004+46483+006450FM-12+042599999V0202701N001019999999N9999999N1+99999+99999999999ADDOA149900411REMSYN070AAXX  21134 06706 43/// /2702 1//// 2//// 3//// 5//// 333 91108 91205;
0063067060999992011122114004+46483+006450FM-12+042599999V0202401N003619999999N9999999N1+99999+99999999999REMSYN054AAXX  21144 06706 43/// /2407 1//// 2//// 3//// 5////;
0093067060999992011122115004+46483+006450FM-12+042599999V0202401N002619999999N9999999N1+99999+99999999999ADDOA149900571REMSYN070AAXX  21154 06706 43/// /2405 1//// 2//// 3//// 5//// 333 91111 91208;
0093067060999992011122116004+46483+006450FM-12+042599999V0202301N003119999999N9999999N1+99999+99999999999ADDOA149900461REMSYN070AAXX  21164 06706 43/// /2306 1//// 2//// 3//// 5//// 333 91109 91206;
0093067060999992011122117004+46483+006450FM-12+042599999V0202601N002119999999N9999999N1+99999+99999999999ADDOA149900411REMSYN070AAXX  21174 06706 43/// /2604 1//// 2//// 3//// 5//// 333 91108 91206;
0093067060999992011122118004+46483+006450FM-12+042599999V0202601N002119999999N9999999N1+99999+99999999999ADDOA149900571REMSYN070AAXX  21184 06706 43/// /2604 1//// 2//// 3//// 5//// 333 91111 91208;
0063067060999992011122119004+46483+006450FM-12+042599999V0202601N001519999999N9999999N1+99999+99999999999REMSYN054AAXX  21194 06706 43/// /2603 1//// 2//// 3//// 5////;
0063067060999992011122120004+46483+006450FM-12+042599999V0202501N001519999999N9999999N1+99999+99999999999REMSYN054AAXX  21204 06706 43/// /2503 1//// 2//// 3//// 5////;
0063067060999992011122121004+46483+006450FM-12+042599999V0202401N002119999999N9999999N1+99999+99999999999REMSYN054AAXX  21214 06706 43/// /2404 1//// 2//// 3//// 5////;
0093067060999992011122122004+46483+006450FM-12+042599999V0203001N000519999999N9999999N1+99999+99999999999ADDOA149900261REMSYN070AAXX  21224 06706 43/// /3001 1//// 2//// 3//// 5//// 333 91105 91204;
0063067060999992011122123004+46483+006450FM-12+042599999V0202301N001019999999N9999999N1+99999+99999999999REMSYN054AAXX  21234 06706 43/// /2302 1//// 2//// 3//// 5////;
0093067060999992011122200004+46483+006450FM-12+042599999V0202401N001519999999N9999999N1+99999+99999999999ADDOA149900411REMSYN070AAXX  22004 06706 43/// /2403 1//// 2//// 3//// 5//// 333 91108 91206;
0063067060999992011122201004+46483+006450FM-12+042599999V0202101N002619999999N9999999N1+99999+99999999999REMSYN054AAXX  22014 06706 43/// /2105 1//// 2//// 3//// 5////;
0063067060999992011122202004+46483+006450FM-12+042599999V0202001N002619999999N9999999N1+99999+99999999999REMSYN054AAXX  22024 06706 43/// /2005 1//// 2//// 3//// 5////;
0063067060999992011122203004+46483+006450FM-12+042599999V0202201N003119999999N9999999N1+99999+99999999999REMSYN054AAXX  22034 06706 43/// /2206 1//// 2//// 3//// 5////;
0093067060999992011122204004+46483+006450FM-12+042599999V0202201N004119999999N9999999N1+99999+99999999999ADDOA149900621REMSYN070AAXX  22044 06706 43/// /2208 1//// 2//// 3//// 5//// 333 91112 91208;
0093067060999992011122205004+46483+006450FM-12+042599999V0202001N003119999999N9999999N1+99999+99999999999ADDOA149900511REMSYN070AAXX  22054 06706 43/// /2006 1//// 2//// 3//// 5//// 333 91110 91207;
0093067060999992011122206004+46483+006450FM-12+042599999V0203001N000519999999N9999999N1+99999+99999999999ADDOA149900621REMSYN070AAXX  22064 06706 43/// /3001 1//// 2//// 3//// 5//// 333 91112 91208;
0063067060999992011122207004+46483+006450FM-12+042599999V0203101N000519999999N9999999N1+99999+99999999999REMSYN054AAXX  22074 06706 43/// /3101 1//// 2//// 3//// 5////;
0063067060999992011122208004+46483+006450FM-12+042599999V0203201N000519999999N9999999N1+99999+99999999999REMSYN054AAXX  22084 06706 43/// /3201 1//// 2//// 3//// 5////;
0093067060999992011122209004+46483+006450FM-12+042599999V0202401N001519999999N9999999N1+99999+99999999999ADDOA149900211REMSYN070AAXX  22094 06706 43/// /2403 1//// 2//// 3//// 5//// 333 91104 91203;
0093067060999992011122210004+46483+006450FM-12+042599999V0209999C000019999999N9999999N1+99999+99999999999ADDOA149900311REMSYN070AAXX  22104 06706 43/// /0000 1//// 2//// 3//// 5//// 333 91106 91203;
0093067060999992011122211004+46483+006450FM-12+042599999V0209999C000019999999N9999999N1+99999+99999999999ADDOA149900211REMSYN070AAXX  22114 06706 43/// /0000 1//// 2//// 3//// 5//// 333 91104 91201;
0063067060999992011122212004+46483+006450FM-12+042599999V0202301N000519999999N9999999N1+99999+99999999999REMSYN054AAXX  22124 06706 43/// /2301 1//// 2//// 3//// 5////;
0063067060999992011122213004+46483+006450FM-12+042599999V0202101N001019999999N9999999N1+99999+99999999999REMSYN054AAXX  22134 06706 43/// /2102 1//// 2//// 3//// 5////;
0063067060999992011122214004+46483+006450FM-12+042599999V0202201N001519999999N9999999N1+99999+99999999999REMSYN054AAXX  22144 06706 43/// /2203 1//// 2//// 3//// 5////;
0093067060999992011122215004+46483+006450FM-12+042599999V0202901N000519999999N9999999N1+99999+99999999999ADDOA149900151REMSYN070AAXX  22154 06706 43/// /2901 1//// 2//// 3//// 5//// 333 91103 91202;
0063067060999992011122216004+46483+006450FM-12+042599999V0202501N001019999999N9999999N1+99999+99999999999REMSYN054AAXX  22164 06706 43/// /2502 1//// 2//// 3//// 5////;
0093067060999992011122217004+46483+006450FM-12+042599999V0203401N000519999999N9999999N1+99999+99999999999ADDOA149900211REMSYN070AAXX  22174 06706 43/// /3401 1//// 2//// 3//// 5//// 333 91104 91203;
0093067060999992011122218004+46483+006450FM-12+042599999V0202701N001019999999N9999999N1+99999+99999999999ADDOA149900261REMSYN070AAXX  22184 06706 43/// /2702 1//// 2//// 3//// 5//// 333 91105 91203;
0063067060999992011122219004+46483+006450FM-12+042599999V0203401N000519999999N9999999N1+99999+99999999999REMSYN054AAXX  22194 06706 43/// /3401 1//// 2//// 3//// 5////;
0063067060999992011122220004+46483+006450FM-12+042599999V0203601N001519999999N9999999N1+99999+99999999999REMSYN054AAXX  22204 06706 43/// /3603 1//// 2//// 3//// 5////;
0063067060999992011122221004+46483+006450FM-12+042599999V0209999C001519999999N9999999N1+99999+99999999999REMSYN054AAXX  22214 06706 43/// /0003 1//// 2//// 3//// 5////;
0063067060999992011122222004+46483+006450FM-12+042599999V0203301N001519999999N9999999N1+99999+99999999999REMSYN054AAXX  22224 06706 43/// /3303 1//// 2//// 3//// 5////;
0063067060999992011122223004+46483+006450FM-12+042599999V0203001N000519999999N9999999N1+99999+99999999999REMSYN054AAXX  22234 06706 43/// /3001 1//// 2//// 3//// 5////;
0063067060999992011122300004+46483+006450FM-12+042599999V0203301N001019999999N9999999N1+99999+99999999999REMSYN054AAXX  23004 06706 43/// /3302 1//// 2//// 3//// 5////;
0093067060999992011122301004+46483+006450FM-12+042599999V0203101N000519999999N9999999N1+99999+99999999999ADDOA149900211REMSYN070AAXX  23014 06706 43/// /3101 1//// 2//// 3//// 5//// 333 91104 91203;
0063067060999992011122302004+46483+006450FM-12+042599999V0202801N001519999999N9999999N1+99999+99999999999REMSYN054AAXX  23024 06706 43/// /2803 1//// 2//// 3//// 5////;
0093067060999992011122303004+46483+006450FM-12+042599999V0202601N001519999999N9999999N1+99999+99999999999ADDOA149900211REMSYN070AAXX  23034 06706 43/// /2603 1//// 2//// 3//// 5//// 333 91104 91203;
0093067060999992011122304004+46483+006450FM-12+042599999V0203001N002119999999N9999999N1+99999+99999999999ADDOA149900311REMSYN070AAXX  23044 06706 43/// /3004 1//// 2//// 3//// 5//// 333 91106 91204;
0093067060999992011122305004+46483+006450FM-12+042599999V0202601N002119999999N9999999N1+99999+99999999999ADDOA149900311REMSYN070AAXX  23054 06706 43/// /2604 1//// 2//// 3//// 5//// 333 91106 91204;
0093067060999992011122306004+46483+006450FM-12+042599999V0202801N000519999999N9999999N1+99999+99999999999ADDOA149900461REMSYN070AAXX  23064 06706 43/// /2801 1//// 2//// 3//// 5//// 333 91109 91205;
0093067060999992011122307004+46483+006450FM-12+042599999V0202701N001519999999N9999999N1+99999+99999999999ADDOA149900211REMSYN070AAXX  23074 06706 43/// /2703 1//// 2//// 3//// 5//// 333 91104 91203;
0063067060999992011122308004+46483+006450FM-12+042599999V0209999C000019999999N9999999N1+99999+99999999999REMSYN054AAXX  23084 06706 43/// /0000 1//// 2//// 3//// 5////;
0093067060999992011122309004+46483+006450FM-12+042599999V0209999C000019999999N9999999N1+99999+99999999999ADDOA149900211REMSYN070AAXX  23094 06706 43/// /0000 1//// 2//// 3//// 5//// 333 91104 91203;
0093067060999992011122310004+46483+006450FM-12+042599999V0202801N001019999999N9999999N1+99999+99999999999ADDOA149900151REMSYN070AAXX  23104 06706 43/// /2802 1//// 2//// 3//// 5//// 333 91103 91202;
0093067060999992011122311004+46483+006450FM-12+042599999V0202001N000519999999N9999999N1+99999+99999999999ADDOA149900151REMSYN070AAXX  23114 06706 43/// /2001 1//// 2//// 3//// 5//// 333 91103 91202;
0063067060999992011122312004+46483+006450FM-12+042599999V0209999C000019999999N9999999N1+99999+99999999999REMSYN054AAXX  23124 06706 43/// /0000 1//// 2//// 3//// 5////;
0063067060999992011122313004+46483+006450FM-12+042599999V0209999C000019999999N9999999N1+99999+99999999999REMSYN054AAXX  23134 06706 43/// /0000 1//// 2//// 3//// 5////;
0063067060999992011122314004+46483+006450FM-12+042599999V0209999C000019999999N9999999N1+99999+99999999999REMSYN054AAXX  23144 06706 43/// /0000 1//// 2//// 3//// 5////;
0093067060999992011122315004+46483+006450FM-12+042599999V0201301N000519999999N9999999N1+99999+99999999999ADDOA149900151REMSYN070AAXX  23154 06706 43/// /1301 1//// 2//// 3//// 5//// 333 91103 91202;
0093067060999992011122316004+46483+006450FM-12+042599999V0202801N001019999999N9999999N1+99999+99999999999ADDOA149900211REMSYN070AAXX  23164 06706 43/// /2802 1//// 2//// 3//// 5//// 333 91104 91202;
0093067060999992011122317004+46483+006450FM-12+042599999V0203001N002119999999N9999999N1+99999+99999999999ADDOA149900411REMSYN070AAXX  23174 06706 43/// /3004 1//// 2//// 3//// 5//// 333 91108 91205;
0063067060999992011122318004+46483+006450FM-12+042599999V0202801N001519999999N9999999N1+99999+99999999999REMSYN054AAXX  23184 06706 43/// /2803 1//// 2//// 3//// 5////;
0063067060999992011122319004+46483+006450FM-12+042599999V0202901N001519999999N9999999N1+99999+99999999999REMSYN054AAXX  23194 06706 43/// /2903 1//// 2//// 3//// 5////;
0063067060999992011122320004+46483+006450FM-12+042599999V0201901N001519999999N9999999N1+99999+99999999999REMSYN054AAXX  23204 06706 43/// /1903 1//// 2//// 3//// 5////;
0063067060999992011122321004+46483+006450FM-12+042599999V0202501N004619999999N9999999N1+99999+99999999999REMSYN054AAXX  23214 06706 43/// /2509 1//// 2//// 3//// 5////;
0063067060999992011122322004+46483+006450FM-12+042599999V0202401N005119999999N9999999N1+99999+99999999999REMSYN054AAXX  23224 06706 43/// /2410 1//// 2//// 3//// 5////;
0063067060999992011122323004+46483+006450FM-12+042599999V0202601N005119999999N9999999N1+99999+99999999999REMSYN054AAXX  23234 06706 43/// /2610 1//// 2//// 3//// 5////;
0093067060999992011122400004+46483+006450FM-12+042599999V0202501N005119999999N9999999N1+99999+99999999999ADDOA149901031REMSYN070AAXX  24004 06706 43/// /2510 1//// 2//// 3//// 5//// 333 91120 91213;
0063067060999992011122401004+46483+006450FM-12+042599999V0202601N006219999999N9999999N1+99999+99999999999REMSYN054AAXX  24014 06706 43/// /2612 1//// 2//// 3//// 5////;
0063067060999992011122402004+46483+006450FM-12+042599999V0202301N006219999999N9999999N1+99999+99999999999REMSYN054AAXX  24024 06706 43/// /2312 1//// 2//// 3//// 5////;
0063067060999992011122403004+46483+006450FM-12+042599999V0202401N007719999999N9999999N1+99999+99999999999REMSYN054AAXX  24034 06706 43/// /2415 1//// 2//// 3//// 5////;
0093067060999992011122404004+46483+006450FM-12+042599999V0202501N004119999999N9999999N1+99999+99999999999ADDOA149901291REMSYN070AAXX  24044 06706 43/// /2508 1//// 2//// 3//// 5//// 333 91125 91215;
0063067060999992011122405004+46483+006450FM-12+042599999V0203001N004619999999N9999999N1+99999+99999999999REMSYN054AAXX  24054 06706 43/// /3009 1//// 2//// 3//// 5////;
0093067060999992011122406004+46483+006450FM-12+042599999V0202701N003619999999N9999999N1+99999+99999999999ADDOA149901541REMSYN070AAXX  24064 06706 43/// /2707 1//// 2//// 3//// 5//// 333 91130 91216;
0093067060999992011122407004+46483+006450FM-12+042599999V0203001N001519999999N9999999N1+99999+99999999999ADDOA149900721REMSYN070AAXX  24074 06706 43/// /3003 1//// 2//// 3//// 5//// 333 91114 91206;
0063067060999992011122408004+46483+006450FM-12+042599999V0202801N003619999999N9999999N1+99999+99999999999REMSYN054AAXX  24084 06706 43/// /2807 1//// 2//// 3//// 5////;
0063067060999992011122409004+46483+006450FM-12+042599999V0203501N005719999999N9999999N1+99999+99999999999REMSYN054AAXX  24094 06706 43/// /3511 1//// 2//// 3//// 5////;
0063067060999992011122410004+46483+006450FM-12+042599999V0203501N003119999999N9999999N1+99999+99999999999REMSYN054AAXX  24104 06706 43/// /3506 1//// 2//// 3//// 5////;
0063067060999992011122411004+46483+006450FM-12+042599999V0200201N002119999999N9999999N1+99999+99999999999REMSYN054AAXX  24114 06706 43/// /0204 1//// 2//// 3//// 5////;
0063067060999992011122412004+46483+006450FM-12+042599999V0200101N004119999999N9999999N1+99999+99999999999REMSYN054AAXX  24124 06706 43/// /0108 1//// 2//// 3//// 5////;
0093067060999992011122413004+46483+006450FM-12+042599999V0200401N004619999999N9999999N1+99999+99999999999ADDOA149900771REMSYN070AAXX  24134 06706 43/// /0409 1//// 2//// 3//// 5//// 333 91115 91210;
0063067060999992011122414004+46483+006450FM-12+042599999V0200401N003619999999N9999999N1+99999+99999999999REMSYN054AAXX  24144 06706 43/// /0407 1//// 2//// 3//// 5////;
0063067060999992011122415004+46483+006450FM-12+042599999V0203501N002119999999N9999999N1+99999+99999999999REMSYN054AAXX  24154 06706 43/// /3504 1//// 2//// 3//// 5////;
0093067060999992011122416004+46483+006450FM-12+042599999V0203301N003119999999N9999999N1+99999+99999999999ADDOA149900411REMSYN070AAXX  24164 06706 43/// /3306 1//// 2//// 3//// 5//// 333 91108 91205;
0093067060999992011122417004+46483+006450FM-12+042599999V0203601N003619999999N9999999N1+99999+99999999999ADDOA149900511REMSYN070AAXX  24174 06706 43/// /3607 1//// 2//// 3//// 5//// 333 91110 91207;
0093067060999992011122418004+46483+006450FM-12+042599999V0203501N003119999999N9999999N1+99999+99999999999ADDOA149900881REMSYN070AAXX  24184 06706 43/// /3506 1//// 2//// 3//// 5//// 333 91117 91210;
0063067060999992011122419004+46483+006450FM-12+042599999V0200301N002119999999N9999999N1+99999+99999999999REMSYN054AAXX  24194 06706 43/// /0304 1//// 2//// 3//// 5////;
0093067060999992011122420004+46483+006450FM-12+042599999V0200401N003619999999N9999999N1+99999+99999999999ADDOA149900511REMSYN070AAXX  24204 06706 43/// /0407 1//// 2//// 3//// 5//// 333 91110 91207;
0063067060999992011122421004+46483+006450FM-12+042599999V0200401N003119999999N9999999N1+99999+99999999999REMSYN054AAXX  24214 06706 43/// /0406 1//// 2//// 3//// 5////;
0093067060999992011122422004+46483+006450FM-12+042599999V0200101N004119999999N9999999N1+99999+99999999999ADDOA149900511REMSYN070AAXX  24224 06706 43/// /0108 1//// 2//// 3//// 5//// 333 91110 91207;
0063067060999992011122423004+46483+006450FM-12+042599999V0209999C004119999999N9999999N1+99999+99999999999REMSYN054AAXX  24234 06706 43/// /0008 1//// 2//// 3//// 5////;
0093067060999992011122500004+46483+006450FM-12+042599999V0200101N003619999999N9999999N1+99999+99999999999ADDOA149900671REMSYN070AAXX  25004 06706 43/// /0107 1//// 2//// 3//// 5//// 333 91113 91210;
0063067060999992011122501004+46483+006450FM-12+042599999V0200201N003119999999N9999999N1+99999+99999999999REMSYN054AAXX  25014 06706 43/// /0206 1//// 2//// 3//// 5////;
0063067060999992011122502004+46483+006450FM-12+042599999V0200201N004119999999N9999999N1+99999+99999999999REMSYN054AAXX  25024 06706 43/// /0208 1//// 2//// 3//// 5////;
0063067060999992011122503004+46483+006450FM-12+042599999V0200301N003119999999N9999999N1+99999+99999999999REMSYN054AAXX  25034 06706 43/// /0306 1//// 2//// 3//// 5////;
0063067060999992011122504004+46483+006450FM-12+042599999V0200401N002119999999N9999999N1+99999+99999999999REMSYN054AAXX  25044 06706 43/// /0404 1//// 2//// 3//// 5////;
0063067060999992011122505004+46483+006450FM-12+042599999V0200201N003119999999N9999999N1+99999+99999999999REMSYN054AAXX  25054 06706 43/// /0206 1//// 2//// 3//// 5////;
0063067060999992011122506004+46483+006450FM-12+042599999V0200201N004619999999N9999999N1+99999+99999999999REMSYN054AAXX  25064 06706 43/// /0209 1//// 2//// 3//// 5////;
0063067060999992011122507004+46483+006450FM-12+042599999V0203601N005119999999N9999999N1+99999+99999999999REMSYN054AAXX  25074 06706 43/// /3610 1//// 2//// 3//// 5////;
0063067060999992011122508004+46483+006450FM-12+042599999V0200301N003119999999N9999999N1+99999+99999999999REMSYN054AAXX  25084 06706 43/// /0306 1//// 2//// 3//// 5////;
0093067060999992011122509004+46483+006450FM-12+042599999V0200201N003619999999N9999999N1+99999+99999999999ADDOA149900621REMSYN070AAXX  25094 06706 43/// /0207 1//// 2//// 3//// 5//// 333 91112 91210;
0093067060999992011122510004+46483+006450FM-12+042599999V0200301N004119999999N9999999N1+99999+99999999999ADDOA149900721REMSYN070AAXX  25104 06706 43/// /0308 1//// 2//// 3//// 5//// 333 91114 91209;
0093067060999992011122511004+46483+006450FM-12+042599999V0200401N004619999999N9999999N1+99999+99999999999ADDOA149900771REMSYN070AAXX  25114 06706 43/// /0409 1//// 2//// 3//// 5//// 333 91115 91210;
0063067060999992011122512004+46483+006450FM-12+042599999V0200201N004119999999N9999999N1+99999+99999999999REMSYN054AAXX  25124 06706 43/// /0208 1//// 2//// 3//// 5////;
0093067060999992011122513004+46483+006450FM-12+042599999V0200301N003619999999N9999999N1+99999+99999999999ADDOA149900571REMSYN070AAXX  25134 06706 43/// /0307 1//// 2//// 3//// 5//// 333 91111 91208;
0063067060999992011122514004+46483+006450FM-12+042599999V0200201N004619999999N9999999N1+99999+99999999999REMSYN054AAXX  25144 06706 43/// /0209 1//// 2//// 3//// 5////;
0093067060999992011122515004+46483+006450FM-12+042599999V0200501N003619999999N9999999N1+99999+99999999999ADDOA149900671REMSYN070AAXX  25154 06706 43/// /0507 1//// 2//// 3//// 5//// 333 91113 91209;
0093067060999992011122516004+46483+006450FM-12+042599999V0200501N002619999999N9999999N1+99999+99999999999ADDOA149900571REMSYN070AAXX  25164 06706 43/// /0505 1//// 2//// 3//// 5//// 333 91111 91208;
0093067060999992011122517004+46483+006450FM-12+042599999V0200201N003619999999N9999999N1+99999+99999999999ADDOA149900511REMSYN070AAXX  25174 06706 43/// /0207 1//// 2//// 3//// 5//// 333 91110 91207;
0093067060999992011122518004+46483+006450FM-12+042599999V0200301N004119999999N9999999N1+99999+99999999999ADDOA149900671REMSYN070AAXX  25184 06706 43/// /0308 1//// 2//// 3//// 5//// 333 91113 91209;
0093067060999992011122519004+46483+006450FM-12+042599999V0200301N004619999999N9999999N1+99999+99999999999ADDOA149900771REMSYN070AAXX  25194 06706 43/// /0309 1//// 2//// 3//// 5//// 333 91115 91211;
0063067060999992011122520004+46483+006450FM-12+042599999V0200201N005119999999N9999999N1+99999+99999999999REMSYN054AAXX  25204 06706 43/// /0210 1//// 2//// 3//// 5////;
0063067060999992011122521004+46483+006450FM-12+042599999V0200701N004119999999N9999999N1+99999+99999999999REMSYN054AAXX  25214 06706 43/// /0708 1//// 2//// 3//// 5////;
0093067060999992011122522004+46483+006450FM-12+042599999V0200301N005119999999N9999999N1+99999+99999999999ADDOA149900721REMSYN070AAXX  25224 06706 43/// /0310 1//// 2//// 3//// 5//// 333 91114 91210;
0093067060999992011122523004+46483+006450FM-12+042599999V0200301N004619999999N9999999N1+99999+99999999999ADDOA149900771REMSYN070AAXX  25234 06706 43/// /0309 1//// 2//// 3//// 5//// 333 91115 91210;
0093067060999992011122600004+46483+006450FM-12+042599999V0200401N003119999999N9999999N1+99999+99999999999ADDOA149900821REMSYN070AAXX  26004 06706 43/// /0406 1//// 2//// 3//// 5//// 333 91116 91211;
0063067060999992011122601004+46483+006450FM-12+042599999V0200201N005719999999N9999999N1+99999+99999999999REMSYN054AAXX  26014 06706 43/// /0211 1//// 2//// 3//// 5////;
0063067060999992011122602004+46483+006450FM-12+042599999V0200301N004619999999N9999999N1+99999+99999999999REMSYN054AAXX  26024 06706 43/// /0309 1//// 2//// 3//// 5////;
0063067060999992011122603004+46483+006450FM-12+042599999V0200201N004619999999N9999999N1+99999+99999999999REMSYN054AAXX  26034 06706 43/// /0209 1//// 2//// 3//// 5////;
0063067060999992011122604004+46483+006450FM-12+042599999V0200301N006219999999N9999999N1+99999+99999999999REMSYN054AAXX  26044 06706 43/// /0312 1//// 2//// 3//// 5////;
0093067060999992011122605004+46483+006450FM-12+042599999V0200201N003119999999N9999999N1+99999+99999999999ADDOA149900931REMSYN070AAXX  26054 06706 43/// /0206 1//// 2//// 3//// 5//// 333 91118 91213;
0093067060999992011122606004+46483+006450FM-12+042599999V0200301N003619999999N9999999N1+99999+99999999999ADDOA149900931REMSYN070AAXX  26064 06706 43/// /0307 1//// 2//// 3//// 5//// 333 91118 91213;
0063067060999992011122607004+46483+006450FM-12+042599999V0200201N002619999999N9999999N1+99999+99999999999REMSYN054AAXX  26074 06706 43/// /0205 1//// 2//// 3//// 5////;
0063067060999992011122608004+46483+006450FM-12+042599999V0200401N004619999999N9999999N1+99999+99999999999REMSYN054AAXX  26084 06706 43/// /0409 1//// 2//// 3//// 5////;
0093067060999992011122609004+46483+006450FM-12+042599999V0200201N004119999999N9999999N1+99999+99999999999ADDOA149900671REMSYN070AAXX  26094 06706 43/// /0208 1//// 2//// 3//// 5//// 333 91113 91209;
0093067060999992011122610004+46483+006450FM-12+042599999V0200801N002619999999N9999999N1+99999+99999999999ADDOA149900511REMSYN070AAXX  26104 06706 43/// /0805 1//// 2//// 3//// 5//// 333 91110 91207;
0093067060999992011122611004+46483+006450FM-12+042599999V0200601N003119999999N9999999N1+99999+99999999999ADDOA149900571REMSYN070AAXX  26114 06706 43/// /0606 1//// 2//// 3//// 5//// 333 91111 91207;
0063067060999992011122612004+46483+006450FM-12+042599999V0201101N002119999999N9999999N1+99999+99999999999REMSYN054AAXX  26124 06706 43/// /1104 1//// 2//// 3//// 5////;
0093067060999992011122613004+46483+006450FM-12+042599999V0201101N003119999999N9999999N1+99999+99999999999ADDOA149900511REMSYN070AAXX  26134 06706 43/// /1106 1//// 2//// 3//// 5//// 333 91110 91207;
0063067060999992011122614004+46483+006450FM-12+042599999V0202101N001019999999N9999999N1+99999+99999999999REMSYN054AAXX  26144 06706 43/// /2102 1//// 2//// 3//// 5////;
0093067060999992011122615004+46483+006450FM-12+042599999V0202101N001519999999N9999999N1+99999+99999999999ADDOA149900511REMSYN070AAXX  26154 06706 43/// /2103 1//// 2//// 3//// 5//// 333 91110 91207;
0093067060999992011122616004+46483+006450FM-12+042599999V0202401N001019999999N9999999N1+99999+99999999999ADDOA149900211REMSYN070AAXX  26164 06706 43/// /2402 1//// 2//// 3//// 5//// 333 91104 91203;
0093067060999992011122617004+46483+006450FM-12+042599999V0202801N000519999999N9999999N1+99999+99999999999ADDOA149900151REMSYN070AAXX  26174 06706 43/// /2801 1//// 2//// 3//// 5//// 333 91103 91202;
0093067060999992011122618004+46483+006450FM-12+042599999V0203201N001019999999N9999999N1+99999+99999999999ADDOA149900511REMSYN070AAXX  26184 06706 43/// /3202 1//// 2//// 3//// 5//// 333 91110 91207;
0063067060999992011122619004+46483+006450FM-12+042599999V0203601N001519999999N9999999N1+99999+99999999999REMSYN054AAXX  26194 06706 43/// /3603 1//// 2//// 3//// 5////;
0093067060999992011122620004+46483+006450FM-12+042599999V0203601N001519999999N9999999N1+99999+99999999999ADDOA149900261REMSYN070AAXX  26204 06706 43/// /3603 1//// 2//// 3//// 5//// 333 91105 91204;
0063067060999992011122621004+46483+006450FM-12+042599999V0209999C002119999999N9999999N1+99999+99999999999REMSYN054AAXX  26214 06706 43/// /0004 1//// 2//// 3//// 5////;
0093067060999992011122622004+46483+006450FM-12+042599999V0200201N001019999999N9999999N1+99999+99999999999ADDOA149900261REMSYN070AAXX  26224 06706 43/// /0202 1//// 2//// 3//// 5//// 333 91105 91203;
0063067060999992011122623004+46483+006450FM-12+042599999V0203401N001519999999N9999999N1+99999+99999999999REMSYN054AAXX  26234 06706 43/// /3403 1//// 2//// 3//// 5////;
0093067060999992011122700004+46483+006450FM-12+042599999V0203201N001019999999N9999999N1+99999+99999999999ADDOA149900261REMSYN070AAXX  27004 06706 43/// /3202 1//// 2//// 3//// 5//// 333 91105 91204;
0063067060999992011122701004+46483+006450FM-12+042599999V0203301N001519999999N9999999N1+99999+99999999999REMSYN054AAXX  27014 06706 43/// /3303 1//// 2//// 3//// 5////;
0063067060999992011122702004+46483+006450FM-12+042599999V0203301N001519999999N9999999N1+99999+99999999999REMSYN054AAXX  27024 06706 43/// /3303 1//// 2//// 3//// 5////;
0063067060999992011122703004+46483+006450FM-12+042599999V0203201N001519999999N9999999N1+99999+99999999999REMSYN054AAXX  27034 06706 43/// /3203 1//// 2//// 3//// 5////;
0063067060999992011122704004+46483+006450FM-12+042599999V0203301N001519999999N9999999N1+99999+99999999999REMSYN054AAXX  27044 06706 43/// /3303 1//// 2//// 3//// 5////;
0093067060999992011122705004+46483+006450FM-12+042599999V0203401N002119999999N9999999N1+99999+99999999999ADDOA149900211REMSYN070AAXX  27054 06706 43/// /3404 1//// 2//// 3//// 5//// 333 91104 91204;
0093067060999992011122706004+46483+006450FM-12+042599999V0203301N001519999999N9999999N1+99999+99999999999ADDOA149900261REMSYN070AAXX  27064 06706 43/// /3303 1//// 2//// 3//// 5//// 333 91105 91204;
0093067060999992011122707004+46483+006450FM-12+042599999V0203201N001019999999N9999999N1+99999+99999999999ADDOA149900211REMSYN070AAXX  27074 06706 43/// /3202 1//// 2//// 3//// 5//// 333 91104 91203;
0063067060999992011122708004+46483+006450FM-12+042599999V0203301N001519999999N9999999N1+99999+99999999999REMSYN054AAXX  27084 06706 43/// /3303 1//// 2//// 3//// 5////;
0093067060999992011122709004+46483+006450FM-12+042599999V0203201N001019999999N9999999N1+99999+99999999999ADDOA149900211REMSYN070AAXX  27094 06706 43/// /3202 1//// 2//// 3//// 5//// 333 91104 91203;
0093067060999992011122710004+46483+006450FM-12+042599999V0202601N001519999999N9999999N1+99999+99999999999ADDOA149900261REMSYN070AAXX  27104 06706 43/// /2603 1//// 2//// 3//// 5//// 333 91105 91203;
0093067060999992011122711004+46483+006450FM-12+042599999V0202101N001519999999N9999999N1+99999+99999999999ADDOA149900311REMSYN070AAXX  27114 06706 43/// /2103 1//// 2//// 3//// 5//// 333 91106 91204;
0093067060999992011122712004+46483+006450FM-12+042599999V0202301N001019999999N9999999N1+99999+99999999999ADDOA149900311REMSYN070AAXX  27124 06706 43/// /2302 1//// 2//// 3//// 5//// 333 91106 91204;
0093067060999992011122713004+46483+006450FM-12+042599999V0201301N000519999999N9999999N1+99999+99999999999ADDOA149900211REMSYN070AAXX  27134 06706 43/// /1301 1//// 2//// 3//// 5//// 333 91104 91203;
0093067060999992011122714004+46483+006450FM-12+042599999V0201001N001019999999N9999999N1+99999+99999999999ADDOA149900211REMSYN070AAXX  27144 06706 43/// /1002 1//// 2//// 3//// 5//// 333 91104 91203;
0063067060999992011122715004+46483+006450FM-12+042599999V0200301N001519999999N9999999N1+99999+99999999999REMSYN054AAXX  27154 06706 43/// /0303 1//// 2//// 3//// 5////;
0093067060999992011122716004+46483+006450FM-12+042599999V0203501N001519999999N9999999N1+99999+99999999999ADDOA149900311REMSYN070AAXX  27164 06706 43/// /3503 1//// 2//// 3//// 5//// 333 91106 91203;
0093067060999992011122717004+46483+006450FM-12+042599999V0203401N001519999999N9999999N1+99999+99999999999ADDOA149900211REMSYN070AAXX  27174 06706 43/// /3403 1//// 2//// 3//// 5//// 333 91104 91203;
0093067060999992011122718004+46483+006450FM-12+042599999V0203401N001519999999N9999999N1+99999+99999999999ADDOA149900311REMSYN070AAXX  27184 06706 43/// /3403 1//// 2//// 3//// 5//// 333 91106 91203;
0093067060999992011122719004+46483+006450FM-12+042599999V0203401N001519999999N9999999N1+99999+99999999999ADDOA149900261REMSYN070AAXX  27194 06706 43/// /3403 1//// 2//// 3//// 5//// 333 91105 91204;
0093067060999992011122720004+46483+006450FM-12+042599999V0203401N001519999999N9999999N1+99999+99999999999ADDOA149900211REMSYN070AAXX  27204 06706 43/// /3403 1//// 2//// 3//// 5//// 333 91104 91203;
0063067060999992011122721004+46483+006450FM-12+042599999V0203201N002119999999N9999999N1+99999+99999999999REMSYN054AAXX  27214 06706 43/// /3204 1//// 2//// 3//// 5////;
0063067060999992011122722004+46483+006450FM-12+042599999V0203201N002119999999N9999999N1+99999+99999999999REMSYN054AAXX  27224 06706 43/// /3204 1//// 2//// 3//// 5////;
0093067060999992011122723004+46483+006450FM-12+042599999V0203001N001519999999N9999999N1+99999+99999999999ADDOA149900261REMSYN070AAXX  27234 06706 43/// /3003 1//// 2//// 3//// 5//// 333 91105 91204;
0093067060999992011122800004+46483+006450FM-12+042599999V0203101N000519999999N9999999N1+99999+99999999999ADDOA149900261REMSYN070AAXX  28004 06706 43/// /3101 1//// 2//// 3//// 5//// 333 91105 91204;
0063067060999992011122801004+46483+006450FM-12+042599999V0203001N001019999999N9999999N1+99999+99999999999REMSYN054AAXX  28014 06706 43/// /3002 1//// 2//// 3//// 5////;
0063067060999992011122802004+46483+006450FM-12+042599999V0202801N001519999999N9999999N1+99999+99999999999REMSYN054AAXX  28024 06706 43/// /2803 1//// 2//// 3//// 5////;
0063067060999992011122803004+46483+006450FM-12+042599999V0202801N002119999999N9999999N1+99999+99999999999REMSYN054AAXX  28034 06706 43/// /2804 1//// 2//// 3//// 5////;
0063067060999992011122804004+46483+006450FM-12+042599999V0203201N001519999999N9999999N1+99999+99999999999REMSYN054AAXX  28044 06706 43/// /3203 1//// 2//// 3//// 5////;
0093067060999992011122805004+46483+006450FM-12+042599999V0203101N001519999999N9999999N1+99999+99999999999ADDOA149900261REMSYN070AAXX  28054 06706 43/// /3103 1//// 2//// 3//// 5//// 333 91105 91204;
0093067060999992011122806004+46483+006450FM-12+042599999V0203001N001519999999N9999999N1+99999+99999999999ADDOA149900361REMSYN070AAXX  28064 06706 43/// /3003 1//// 2//// 3//// 5//// 333 91107 91205;
0063067060999992011122807004+46483+006450FM-12+042599999V0202901N001519999999N9999999N1+99999+99999999999REMSYN054AAXX  28074 06706 43/// /2903 1//// 2//// 3//// 5////;
0063067060999992011122808004+46483+006450FM-12+042599999V0209999C000019999999N9999999N1+99999+99999999999REMSYN054AAXX  28084 06706 43/// /0000 1//// 2//// 3//// 5////;
0063067060999992011122809004+46483+006450FM-12+042599999V0202901N002119999999N9999999N1+99999+99999999999REMSYN054AAXX  28094 06706 43/// /2904 1//// 2//// 3//// 5////;
0063067060999992011122810004+46483+006450FM-12+042599999V0202501N001519999999N9999999N1+99999+99999999999REMSYN054AAXX  28104 06706 43/// /2503 1//// 2//// 3//// 5////;
0093067060999992011122811004+46483+006450FM-12+042599999V0203101N001019999999N9999999N1+99999+99999999999ADDOA149900211REMSYN070AAXX  28114 06706 43/// /3102 1//// 2//// 3//// 5//// 333 91104 91202;
0063067060999992011122812004+46483+006450FM-12+042599999V0202201N000519999999N9999999N1+99999+99999999999REMSYN054AAXX  28124 06706 43/// /2201 1//// 2//// 3//// 5////;
0063067060999992011122813004+46483+006450FM-12+042599999V0202301N000519999999N9999999N1+99999+99999999999REMSYN054AAXX  28134 06706 43/// /2301 1//// 2//// 3//// 5////;
0063067060999992011122814004+46483+006450FM-12+042599999V0202201N001519999999N9999999N1+99999+99999999999REMSYN054AAXX  28144 06706 43/// /2203 1//// 2//// 3//// 5////;
0093067060999992011122815004+46483+006450FM-12+042599999V0202601N000519999999N9999999N1+99999+99999999999ADDOA149900361REMSYN070AAXX  28154 06706 43/// /2601 1//// 2//// 3//// 5//// 333 91107 91203;
0093067060999992011122816004+46483+006450FM-12+042599999V0202701N001019999999N9999999N1+99999+99999999999ADDOA149900211REMSYN070AAXX  28164 06706 43/// /2702 1//// 2//// 3//// 5//// 333 91104 91202;
0093067060999992011122817004+46483+006450FM-12+042599999V0203001N001019999999N9999999N1+99999+99999999999ADDOA149900211REMSYN070AAXX  28174 06706 43/// /3002 1//// 2//// 3//// 5//// 333 91104 91202;
0093067060999992011122818004+46483+006450FM-12+042599999V0203301N001019999999N9999999N1+99999+99999999999ADDOA149900361REMSYN070AAXX  28184 06706 43/// /3302 1//// 2//// 3//// 5//// 333 91107 91203;
0063067060999992011122819004+46483+006450FM-12+042599999V0203401N002119999999N9999999N1+99999+99999999999REMSYN054AAXX  28194 06706 43/// /3404 1//// 2//// 3//// 5////;
0063067060999992011122820004+46483+006450FM-12+042599999V0202901N001519999999N9999999N1+99999+99999999999REMSYN054AAXX  28204 06706 43/// /2903 1//// 2//// 3//// 5////;
0063067060999992011122821004+46483+006450FM-12+042599999V0202801N001519999999N9999999N1+99999+99999999999REMSYN054AAXX  28214 06706 43/// /2803 1//// 2//// 3//// 5////;
0063067060999992011122822004+46483+006450FM-12+042599999V0203101N001519999999N9999999N1+99999+99999999999REMSYN054AAXX  28224 06706 43/// /3103 1//// 2//// 3//// 5////;
0063067060999992011122823004+46483+006450FM-12+042599999V0203301N002119999999N9999999N1+99999+99999999999REMSYN054AAXX  28234 06706 43/// /3304 1//// 2//// 3//// 5////;
0063067060999992011122900004+46483+006450FM-12+042599999V0203501N001519999999N9999999N1+99999+99999999999REMSYN054AAXX  29004 06706 43/// /3503 1//// 2//// 3//// 5////;
0063067060999992011122901004+46483+006450FM-12+042599999V0203301N001519999999N9999999N1+99999+99999999999REMSYN054AAXX  29014 06706 43/// /3303 1//// 2//// 3//// 5////;
0063067060999992011122902004+46483+006450FM-12+042599999V0201701N001019999999N9999999N1+99999+99999999999REMSYN054AAXX  29024 06706 43/// /1702 1//// 2//// 3//// 5////;
0063067060999992011122903004+46483+006450FM-12+042599999V0203101N001019999999N9999999N1+99999+99999999999REMSYN054AAXX  29034 06706 43/// /3102 1//// 2//// 3//// 5////;
0093067060999992011122904004+46483+006450FM-12+042599999V0200101N000519999999N9999999N1+99999+99999999999ADDOA149900211REMSYN070AAXX  29044 06706 43/// /0101 1//// 2//// 3//// 5//// 333 91104 91203;
0093067060999992011122905004+46483+006450FM-12+042599999V0201001N001519999999N9999999N1+99999+99999999999ADDOA149900461REMSYN070AAXX  29054 06706 43/// /1003 1//// 2//// 3//// 5//// 333 91109 91206;
0093067060999992011122906004+46483+006450FM-12+042599999V0200601N000519999999N9999999N1+99999+99999999999ADDOA149900461REMSYN070AAXX  29064 06706 43/// /0601 1//// 2//// 3//// 5//// 333 91109 91206;
0093067060999992011122907004+46483+006450FM-12+042599999V0203001N002119999999N9999999N1+99999+99999999999ADDOA149900311REMSYN070AAXX  29074 06706 43/// /3004 1//// 2//// 3//// 5//// 333 91106 91204;
0063067060999992011122908004+46483+006450FM-12+042599999V0203301N001019999999N9999999N1+99999+99999999999REMSYN054AAXX  29084 06706 43/// /3302 1//// 2//// 3//// 5////;
0093067060999992011122909004+46483+006450FM-12+042599999V0200101N003619999999N9999999N1+99999+99999999999ADDOA149900511REMSYN070AAXX  29094 06706 43/// /0107 1//// 2//// 3//// 5//// 333 91110 91207;
0093067060999992011122910004+46483+006450FM-12+042599999V0203101N000519999999N9999999N1+99999+99999999999ADDOA149900461REMSYN070AAXX  29104 06706 43/// /3101 1//// 2//// 3//// 5//// 333 91109 91206;
