0137067020999992010010100004+46433+006100FM-12+167599999V0202401N002619999999N9999999N1-00011-00331999999ADDMA1999999080811MD1610101+9999ME1312649OA149900981REMSYN076AAXX  01004 06702 33/// /2405 11001 21033 38081 48264 56010 333 91119 91215;
0137067020999992010010101004+46433+006100FM-12+167599999V0201801N004119999999N9999999N1-00011-00161999999ADDMA1999999080751MD1810131+9999ME1312589OA149900511REMSYN076AAXX  01014 06702 33/// /1808 11001 21016 38075 48258 58013 333 91110 91209;
0137067020999992010010102004+46433+006100FM-12+167599999V0202501N004619999999N9999999N1+00031-00211999999ADDMA1999999080701MD1719999+9999ME1312529OA149900511REMSYN076AAXX  01024 06702 33/// /2509 10003 21021 38070 48252 57/// 333 91110 91209;
0096067020999992010010103004+46433+006100FM-12+167599999V0202801N002619999999N9999999N1-00011-00141999999ADDMA1999999080651ME1312489REMSYN060AAXX  01034 06702 43/// /2805 11001 21014 38065 48248 5////;
0096067020999992010010104004+46433+006100FM-12+167599999V0202801N003119999999N9999999N1-00091-00141999999ADDMA1999999080621ME1312469REMSYN060AAXX  01044 06702 33/// /2806 11009 21014 38062 48246 5////;
0137067020999992010010105004+46433+006100FM-12+167599999V0202701N001519999999N9999999N1-00051-00131999999ADDMA1999999080601MD1610101+9999ME1312449OA149900411REMSYN076AAXX  01054 06702 33/// /2703 11005 21013 38060 48244 56010 333 91108 91206;
0220067020999992010010106004+46433+006100FM-12+167599999V0201401N002619999999N9999999N1-00081-00121999999ADDAA112000391AA224003891AL14800391GJ100009KA1999N-00101MA1999999080601MD1610051+9999ME1312449OA149900881REMSYN106AAXX  01064 06702 03/// /1405 11008 21012 38060 48244 56005 69932 333 21010 55000 69935 70038 91117 91215;
0154067020999992010010107004+46433+006100FM-12+167599999V0200901N003619999999N9999999N1-00131-00141999999ADDAA101000591MA1999999080581MD1810041+9999ME1312439OA149900411REMSYN082AAXX  01074 06702 23/// /0907 11013 21014 38058 48243 58004 333 69965 91108 91207;
0154067020999992010010108004+46433+006100FM-12+167599999V0201001N005119999999N9999999N1-00141-00141999999ADDAA101001091MA1999999080621MD1310021+9999ME1312479OA149900571REMSYN082AAXX  01084 06702 23/// /1010 11014 21014 38062 48247 53002 333 60015 91111 91210;
0154067020999992010010109004+46433+006100FM-12+167599999V0201001N004619999999N9999999N1-00121-00121999999ADDAA101001091MA1999999080681MD1210081+9999ME1312539OA149900621REMSYN082AAXX  01094 06702 23/// /1009 11012 21012 38068 48253 52008 333 69995 91112 91211;
0154067020999992010010110004+46433+006100FM-12+167599999V0202901N001019999999N9999999N1-00121-00141999999ADDAA101000021MA1999999080761MD1310181+9999ME1312619OA149900621REMSYN082AAXX  01104 06702 23/// /2902 11012 21014 38076 48261 53018 333 69925 91112 91211;
0154067020999992010010111004+46433+006100FM-12+167599999V0203001N003619999999N9999999N1-00141-00151999999ADDAA101000591MA1999999080761MD1110141+9999ME1312619OA149900411REMSYN082AAXX  01114 06702 23/// /3007 11014 21015 38076 48261 51014 333 69965 91108 91208;
0160067020999992010010112004+46433+006100FM-12+167599999V0203001N004619999999N9999999N1-00161-00171999999ADDAA106005191MA1999999080781MD1110101+9999ME1312639OA149900621REMSYN088AAXX  01124 06702 03/// /3009 11016 21017 38078 48263 51010 60051 333 60015 91112 91211;
0154067020999992010010113004+46433+006100FM-12+167599999V0203201N006719999999N9999999N1-00241-00241999999ADDAA101000591MA1999999080821MD1310061+9999ME1312699OA149900771REMSYN082AAXX  01134 06702 23/// /3213 11024 21024 38082 48269 53006 333 69955 91115 91213;
0154067020999992010010114004+46433+006100FM-12+167599999V0203201N011319999999N9999999N1-00411-00431999999ADDAA101000591MA1999999080861MD1319999+9999ME1312759OA149901491REMSYN082AAXX  01144 06702 23/// /3222 11041 21043 38086 48275 53/// 333 69955 91129 91222;
0154067020999992010010115004+46433+006100FM-12+167599999V0203201N012919999999N9999999N1-00491-00531999999ADDAA101001091MA1999999080951MD1310171+9999ME1312859OA149901701REMSYN082AAXX  01154 06702 23/// /3225 11049 21053 38095 48285 53017 333 60015 91133 91226;
0154067020999992010010116004+46433+006100FM-12+167599999V0203101N011319999999N9999999N1-00541-00571999999ADDAA101000591MA1999999081081MD1310261+9999ME1312999OA149901751REMSYN082AAXX  01164 06702 23/// /3122 11054 21057 38108 48299 53026 333 69945 91134 91226;
0154067020999992010010117004+46433+006100FM-12+167599999V0203101N009819999999N9999999N1-00601-00641999999ADDAA101000391MA1999999081241MD1310381+9999ME1313159OA149901751REMSYN082AAXX  01174 06702 23/// /3119 11060 21064 38124 48315 53038 333 69935 91134 91226;
0179067020999992010010118004+46433+006100FM-12+167599999V0203101N009319999999N9999999N1-00681-00711999999ADDAA112007191KA1120M-00071MA1999999081341MD1210391+9999ME1313269OA149901751REMSYN094AAXX  01184 06702 03/// /3118 11068 21071 38134 48326 52039 60072 333 11007 69915 91134 91226;
0137067020999992010010119004+46433+006100FM-12+167599999V0203001N010319999999N9999999N1-00711-00711999999ADDMA1999999081461MD1210381+9999ME1313389OA149901601REMSYN076AAXX  01194 06702 33/// /3020 11071 21071 38146 48338 52038 333 91131 91223;
0131067020999992010010120004+46433+006100FM-12+167599999V02099999999999999999N9999999N1-00711-00731999999ADDAA101000021MA1999999081551MD1210311+9999ME1313479REMSYN070AAXX  01204 06702 23/// ///// 11071 21073 38155 48347 52031 333 69915;
0110067020999992010010121004+46433+006100FM-12+167599999V02099999999999999999N9999999N1-00761-00781999999ADDMA1999999081591MD1210251+9999ME1313519REMSYN060AAXX  01214 06702 33/// ///// 11076 21078 38159 48351 52025;
0131067020999992010010122004+46433+006100FM-12+167599999V02099999999999999999N9999999N1-00851-00901999999ADDAA101000021MA1999999081681MD1210221+9999ME1313619REMSYN070AAXX  01224 06702 23/// ///// 11085 21090 38168 48361 52022 333 69915;
0131067020999992010010123004+46433+006100FM-12+167599999V02099999999999999999N9999999N1-00891-00931999999ADDAA101000021MA1999999081781MD1210231+9999ME1313719REMSYN070AAXX  01234 06702 23/// ///// 11089 21093 38178 48371 52023 333 69915;
0137067020999992010010200004+46433+006100FM-12+167599999V02099999999999999999N9999999N1-00961-00971999999ADDAA106000391MA1999999081831MD1110241+9999ME1313769REMSYN076AAXX  02004 06702 03/// ///// 11096 21097 38183 48376 51024 69931 333 60005;
0131067020999992010010201004+46433+006100FM-12+167599999V02099999999999999999N9999999N1-00991-01101999999ADDAA101000891MA1999999081871MD1210191+9999ME1313809REMSYN070AAXX  02014 06702 23/// ///// 11099 21110 38187 48380 52019 333 69975;
0117067020999992010010202004+46433+006100FM-12+167599999V02099999999999999999N9999999N1-01031-01121999999ADDAA101000391MA1999999081961ME1313899REMSYN070AAXX  02024 06702 23/// ///// 11103 21112 38196 48389 5//// 333 69935;
0131067020999992010010203004+46433+006100FM-12+167599999V02099999999999999999N9999999N1-01051-01111999999ADDAA101000021MA1999999082031MD1210201+9999ME1313969REMSYN070AAXX  02034 06702 23/// ///// 11105 21111 38203 48396 52020 333 69925;
0110067020999992010010204004+46433+006100FM-12+167599999V02099999999999999999N9999999N1-01111-01151999999ADDMA1999999082081MD1110211+9999ME1314029REMSYN060AAXX  02044 06702 33/// ///// 11111 21115 38208 48402 51021;
0110067020999992010010205004+46433+006100FM-12+167599999V02099999999999999999N9999999N1-01131-01191999999ADDMA1999999082091MD1210131+9999ME1314039REMSYN060AAXX  02054 06702 33/// ///// 11113 21119 38209 48403 52013;
0187067020999992010010206004+46433+006100FM-12+167599999V02099999999999999999N9999999N1-01141-01211999999ADDAA112002091AA224008991GJ100009KA1999N-01161MA1999999082111MD1210081+9999ME1314059REMSYN094AAXX  02064 06702 03/// ///// 11114 21121 38211 48405 52008 60022 333 21116 55000 60005 70090;
0131067020999992010010207004+46433+006100FM-12+167599999V02099999999999999999N9999999N1-01141-01201999999ADDAA101000021MA1999999082181MD1210101+9999ME1314119REMSYN070AAXX  02074 06702 23/// ///// 11114 21120 38218 48411 52010 333 69925;
0096067020999992010010208004+46433+006100FM-12+167599999V02099999999999999999N9999999N1-01231-01301999999ADDMA1999999082261ME1314209REMSYN060AAXX  02084 06702 33/// ///// 11123 21130 38226 48420 5////;
0110067020999992010010209004+46433+006100FM-12+167599999V02099999999999999999N9999999N1-01161-01241999999ADDMA1999999082351MD1210241+9999ME1314289REMSYN060AAXX  02094 06702 33/// ///// 11116 21124 38235 48428 52024;
0110067020999992010010210004+46433+006100FM-12+167599999V02099999999999999999N9999999N1-01151-01231999999ADDMA1999999082431MD1210251+9999ME1314359REMSYN060AAXX  02104 06702 33/// ///// 11115 21123 38243 48435 52025;
0110067020999992010010211004+46433+006100FM-12+167599999V02099999999999999999N9999999N1-01211-01371999999ADDMA1999999082481MD1110221+9999ME1314409REMSYN060AAXX  02114 06702 33/// ///// 11121 21137 38248 48440 51022;
0156067020999992010010212004+46433+006100FM-12+167599999V02099999999999999999N9999999N1-01231-01381999999ADDAA106000091MA1999999082501MD1110151+9999ME1314429REMSYN076AAXX  02124 06702 03/// ///// 11123 21138 38250 48442 51015 69921 333 60005;EQDQ01  00002PRCP06
0110067020999992010010213004+46433+006100FM-12+167599999V02099999999999999999N9999999N1-01201-01411999999ADDMA1999999082541MD1110111+9999ME1314469REMSYN060AAXX  02134 06702 33/// ///// 11120 21141 38254 48446 51011;
0110067020999992010010214004+46433+006100FM-12+167599999V02099999999999999999N9999999N1-01211-01351999999ADDMA1999999082611MD1319999+9999ME1314529REMSYN060AAXX  02144 06702 33/// ///// 11121 21135 38261 48452 53///;
0110067020999992010010215004+46433+006100FM-12+167599999V02099999999999999999N9999999N1-01221-01361999999ADDMA1999999082681MD1310181+9999ME1314599REMSYN060AAXX  02154 06702 33/// ///// 11122 21136 38268 48459 53018;
0110067020999992010010216004+46433+006100FM-12+167599999V02099999999999999999N9999999N1-01261-01341999999ADDMA1999999082731MD1110191+9999ME1314649REMSYN060AAXX  02164 06702 33/// ///// 11126 21134 38273 48464 51019;
0110067020999992010010217004+46433+006100FM-12+167599999V02099999999999999999N9999999N1-01291-01611999999ADDMA1999999082781MD1110171+9999ME1314699REMSYN060AAXX  02174 06702 33/// ///// 11129 21161 38278 48469 51017;
0175067020999992010010218004+46433+006100FM-12+167599999V02099999999999999999N9999999N1-01201-02271999999ADDAA112000091KA1120M-01091MA1999999082801MD1210121+9999ME1314709REMSYN082AAXX  02184 06702 03/// ///// 11120 21227 38280 48470 52012 69922 333 11109 60005;EQDQ01  00002PRCP12
0110067020999992010010219004+46433+006100FM-12+167599999V02099999999999999999N9999999N1-01121-02111999999ADDMA1999999082801MD1210071+9999ME1314699REMSYN060AAXX  02194 06702 33/// ///// 11112 21211 38280 48469 52007;
0110067020999992010010220004+46433+006100FM-12+167599999V02099999999999999999N9999999N1-01081-03162999999ADDMA1999999082801MD1210021+9999ME1314699REMSYN060AAXX  02204 06702 33/// ///// 11108 21316 38280 48469 52002;
0110067020999992010010221004+46433+006100FM-12+167599999V02099999999999999999N9999999N1-01041-02541999999ADDMA1999999082801MD1010001+9999ME1314699REMSYN060AAXX  02214 06702 33/// ///// 11104 21254 38280 48469 50000;
0110067020999992010010222004+46433+006100FM-12+167599999V02099999999999999999N9999999N1-01181-02931999999ADDMA1999999082851MD1310051+9999ME1314749REMSYN060AAXX  02224 06702 33/// ///// 11118 21293 38285 48474 53005;
0110067020999992010010223004+46433+006100FM-12+167599999V02099999999999999999N9999999N1-01141-02911999999ADDMA1999999082861MD1210061+9999ME1314759REMSYN060AAXX  02234 06702 33/// ///// 11114 21291 38286 48475 52006;
0110067020999992010010300004+46433+006100FM-12+167599999V02099999999999999999N9999999N1-01171-02841999999ADDMA1999999082821MD1010021+9999ME1314729REMSYN060AAXX  03004 06702 33/// ///// 11117 21284 38282 48472 50002;
0110067020999992010010301004+46433+006100FM-12+167599999V02099999999999999999N9999999N1-01111-02921999999ADDMA1999999082831MD1710021+9999ME1314729REMSYN060AAXX  03014 06702 33/// ///// 11111 21292 38283 48472 57002;
0096067020999992010010302004+46433+006100FM-12+167599999V02099999999999999999N9999999N1-01111-02751999999ADDMA1999999082841ME1314739REMSYN060AAXX  03024 06702 33/// ///// 11111 21275 38284 48473 5////;
0096067020999992010010303004+46433+006100FM-12+167599999V02099999999999999999N9999999N1-01071-02621999999ADDMA1999999082791ME1314689REMSYN060AAXX  03034 06702 33/// ///// 11107 21262 38279 48468 5////;
0110067020999992010010304004+46433+006100FM-12+167599999V02099999999999999999N9999999N1-00991-02491999999ADDMA1999999082781MD1710051+9999ME1314669REMSYN060AAXX  03044 06702 33/// ///// 11099 21249 38278 48466 57005;
0110067020999992010010305004+46433+006100FM-12+167599999V0201301N004119999999N9999999N1-00981-02651999999ADDMA1999999082741MD1719999+9999ME1314639REMSYN060AAXX  03054 06702 33/// /1308 11098 21265 38274 48463 57///;
0164067020999992010010306004+46433+006100FM-12+167599999V0201301N005119999999N9999999N1-00961-02581999999ADDAA124000391GJ102109KA1999N-01291MA1999999082701MD1710091+9999ME1314599REMSYN082AAXX  03064 06702 33/// /1310 11096 21258 38270 48459 57009 333 21129 55035 70002;
0137067020999992010010307004+46433+006100FM-12+167599999V0201301N002619999999N9999999N1-00791-02341999999ADDMA1999999082741MD1510041+9999ME1314619OA149900571REMSYN076AAXX  03074 06702 33/// /1305 11079 21234 38274 48461 55004 333 91111 91210;
0137067020999992010010308004+46433+006100FM-12+167599999V0201301N002119999999N9999999N1-00701-02921999999ADDMA1999999082771MD1319999+9999ME1314639OA149900571REMSYN076AAXX  03084 06702 33/// /1304 11070 21292 38277 48463 53/// 333 91111 91210;
0110067020999992010010309004+46433+006100FM-12+167599999V0201401N002619999999N9999999N1-00711-02851999999ADDMA1999999082761MD1210061+9999ME1314629REMSYN060AAXX  03094 06702 33/// /1405 11071 21285 38276 48462 52006;
0137067020999992010010310004+46433+006100FM-12+167599999V0201301N003119999999N9999999N1-00701-02391999999ADDMA1999999082751MD1010011+9999ME1314619OA149900411REMSYN076AAXX  03104 06702 33/// /1306 11070 21239 38275 48461 50001 333 91108 91206;
0137067020999992010010311004+46433+006100FM-12+167599999V0209999C000019999999N9999999N1-00581-02551999999ADDMA1999999082751MD1710021+9999ME1314609OA149900461REMSYN076AAXX  03114 06702 33/// /0000 11058 21255 38275 48460 57002 333 91109 91208;
0110067020999992010010312004+46433+006100FM-12+167599999V0202701N001019999999N9999999N1-00521-03582999999ADDMA1999999082691MD1710071+9999ME1314549REMSYN060AAXX  03124 06702 33/// /2702 11052 21358 38269 48454 57007;
0137067020999992010010313004+46433+006100FM-12+167599999V0202601N003619999999N9999999N1-00581-03221999999ADDMA1999999082701MD1710051+9999ME1314569OA149900411REMSYN076AAXX  03134 06702 33/// /2607 11058 21322 38270 48456 57005 333 91108 91207;
0137067020999992010010314004+46433+006100FM-12+167599999V0202801N003119999999N9999999N1-00581-03621999999ADDMA1999999082691MD1710061+9999ME1314559OA149900411REMSYN076AAXX  03144 06702 33/// /2806 11058 21362 38269 48455 57006 333 91108 91207;
0188067020999992010010315004+46433+006100FM-12+167599999V0201201N001519999999N9999999N1-00691+99999999999ADDMA1999999082691MD1410001+9999ME1314559OA149900461REMSYN076AAXX  03154 06702 33/// /1203 11069 21191 38269 48455 57000 333 91109 91208;EQDQ01-001913ATOD  Q02+000072APCTENQ03 -01913ATOD  
0137067020999992010010316004+46433+006100FM-12+167599999V0201301N005719999999N9999999N1-00751-02871999999ADDMA1999999082641MD1710061+9999ME1314519OA149900621REMSYN076AAXX  03164 06702 33/// /1311 11075 21287 38264 48451 57006 333 91112 91211;
0137067020999992010010317004+46433+006100FM-12+167599999V0201501N005119999999N9999999N1-00651-02451999999ADDMA1999999082631MD1710061+9999ME1314499OA149900721REMSYN076AAXX  03174 06702 33/// /1510 11065 21245 38263 48449 57006 333 91114 91213;
0156067020999992010010318004+46433+006100FM-12+167599999V0202001N005719999999N9999999N1-00701-02931999999ADDKA1120M-00511MA1999999082631MD1510061+9999ME1314509OA149900721REMSYN082AAXX  03184 06702 33/// /2011 11070 21293 38263 48450 55006 333 11051 91114 91213;
0137067020999992010010319004+46433+006100FM-12+167599999V0202101N006719999999N9999999N1-00631-02961999999ADDMA1999999082591MD1710051+9999ME1314459OA149900881REMSYN076AAXX  03194 06702 33/// /2113 11063 21296 38259 48445 57005 333 91117 91213;
0137067020999992010010320004+46433+006100FM-12+167599999V0202001N005119999999N9999999N1-00711-02611999999ADDMA1999999082591MD1710041+9999ME1314469OA149900881REMSYN076AAXX  03204 06702 33/// /2010 11071 21261 38259 48446 57004 333 91117 91213;
0137067020999992010010321004+46433+006100FM-12+167599999V0202201N005119999999N9999999N1-00701-02521999999ADDMA1999999082551MD1710081+9999ME1314429OA149900881REMSYN076AAXX  03214 06702 33/// /2210 11070 21252 38255 48442 57008 333 91117 91213;
0137067020999992010010322004+46433+006100FM-12+167599999V0202301N003119999999N9999999N1-00671-01901999999ADDMA1999999082531MD1710061+9999ME1314409OA149900671REMSYN076AAXX  03224 06702 33/// /2306 11067 21190 38253 48440 57006 333 91113 91210;
0137067020999992010010323004+46433+006100FM-12+167599999V0201601N002119999999N9999999N1-00661-01691999999ADDMA1999999082481MD1710111+9999ME1314359OA149900621REMSYN076AAXX  03234 06702 33/// /1604 11066 21169 38248 48435 57011 333 91112 91210;
0137067020999992010010400004+46433+006100FM-12+167599999V0201201N004619999999N9999999N1-00701-01911999999ADDMA1999999082411MD1710141+9999ME1314299OA149900881REMSYN076AAXX  04004 06702 33/// /1209 11070 21191 38241 48429 57014 333 91117 91213;
0137067020999992010010401004+46433+006100FM-12+167599999V0201201N004119999999N9999999N1-00761-02041999999ADDMA1999999082361MD1710171+9999ME1314259OA149900571REMSYN076AAXX  04014 06702 33/// /1208 11076 21204 38236 48425 57017 333 91111 91209;
0137067020999992010010402004+46433+006100FM-12+167599999V0201201N004619999999N9999999N1-00771-02161999999ADDMA1999999082351MD1710131+9999ME1314249OA149900621REMSYN076AAXX  04024 06702 33/// /1209 11077 21216 38235 48424 57013 333 91112 91210;
0137067020999992010010403004+46433+006100FM-12+167599999V0201101N002619999999N9999999N1-00761-00991999999ADDMA1999999082301MD1719999+9999ME1314199OA149900621REMSYN076AAXX  04034 06702 33/// /1105 11076 21099 38230 48419 57/// 333 91112 91210;
0154067020999992010010404004+46433+006100FM-12+167599999V0202601N003619999999N9999999N1-00671-00821999999ADDAA101000591MA1999999082261MD1710101+9999ME1314149OA149900511REMSYN082AAXX  04044 06702 23/// /2607 11067 21082 38226 48414 57010 333 69945 91110 91208;
0154067020999992010010405004+46433+006100FM-12+167599999V0202801N004119999999N9999999N1-00701-00781999999ADDAA101000891MA1999999082241MD1610111+9999ME1314139OA149900461REMSYN082AAXX  04054 06702 23/// /2808 11070 21078 38224 48413 56011 333 69975 91109 91208;
0220067020999992010010406004+46433+006100FM-12+167599999V0202701N002619999999N9999999N1-00611-00711999999ADDAA112001091AA224001391AL11800191GJ100249KA1999N-00811MA1999999082241MD1610061+9999ME1314129OA149900881REMSYN106AAXX  04064 06702 03/// /2705 11061 21071 38224 48412 56006 60012 333 21081 55004 69925 70013 91117 91213;
0137067020999992010010407004+46433+006100FM-12+167599999V0202201N003619999999N9999999N1-00611-00731999999ADDMA1999999082221MD1610041+9999ME1314109OA149900461REMSYN076AAXX  04074 06702 33/// /2207 11061 21073 38222 48410 56004 333 91109 91207;
0137067020999992010010408004+46433+006100FM-12+167599999V0202401N004119999999N9999999N1-00661-00741999999ADDMA1999999082221MD1710021+9999ME1314109OA149900511REMSYN076AAXX  04084 06702 33/// /2408 11066 21074 38222 48410 57002 333 91110 91209;
0137067020999992010010409004+46433+006100FM-12+167599999V0202501N003119999999N9999999N1-00651-00711999999ADDMA1999999082231MD1410001+9999ME1314119OA149900511REMSYN076AAXX  04094 06702 33/// /2506 11065 21071 38223 48411 54001 333 91110 91209;
0137067020999992010010410004+46433+006100FM-12+167599999V0202601N002119999999N9999999N1-00631-00711999999ADDMA1999999082231MD1410001+9999ME1314119OA149900461REMSYN076AAXX  04104 06702 33/// /2604 11063 21071 38223 48411 54001 333 91109 91206;
0154067020999992010010411004+46433+006100FM-12+167599999V0202601N001519999999N9999999N1-00611-00721999999ADDAA101000021MA1999999082181MD1810041+9999ME1314069OA149900361REMSYN082AAXX  04114 06702 23/// /2603 11061 21072 38218 48406 58004 333 69915 91107 91205;
0179067020999992010010412004+46433+006100FM-12+167599999V0202401N002119999999N9999999N1-00561-00681999999ADDAA106000091MA1999999082121MD1810111+9999ME1314009OA149900621REMSYN088AAXX  04124 06702 03/// /2404 11056 21068 38212 48400 58011 69911 333 60005 91112 91210;EQDQ01  00002PRCP06
0137067020999992010010413004+46433+006100FM-12+167599999V0202701N002619999999N9999999N1-00601-00661999999ADDMA1999999082061MD1710171+9999ME1313949OA149900411REMSYN076AAXX  04134 06702 33/// /2705 11060 21066 38206 48394 57017 333 91108 91207;
0154067020999992010010414004+46433+006100FM-12+167599999V0202601N002619999999N9999999N1-00581-00661999999ADDAA101000021MA1999999082041MD1619999+9999ME1313929OA149900411REMSYN082AAXX  04144 06702 23/// /2605 11058 21066 38204 48392 56/// 333 69925 91108 91207;
0154067020999992010010415004+46433+006100FM-12+167599999V0202701N001519999999N9999999N1-00591-00651999999ADDAA101000021MA1999999082041MD1610081+9999ME1313929OA149900411REMSYN082AAXX  04154 06702 23/// /2703 11059 21065 38204 48392 56008 333 69925 91108 91207;
0154067020999992010010416004+46433+006100FM-12+167599999V0202501N002119999999N9999999N1-00571-00641999999ADDAA101000021MA1999999082021MD1610041+9999ME1313909OA149900361REMSYN082AAXX  04164 06702 23/// /2504 11057 21064 38202 48390 56004 333 69925 91107 91205;
0154067020999992010010417004+46433+006100FM-12+167599999V0202001N003619999999N9999999N1-00561-00591999999ADDAA101000021MA1999999082001MD1810041+9999ME1313889OA149900461REMSYN082AAXX  04174 06702 23/// /2007 11056 21059 38200 48388 58004 333 69915 91109 91208;
0179067020999992010010418004+46433+006100FM-12+167599999V0202301N004619999999N9999999N1-00531-00641999999ADDAA112000891KA1120M-00521MA1999999082001MD1610041+9999ME1313889OA149900571REMSYN094AAXX  04184 06702 03/// /2309 11053 21064 38200 48388 56004 69982 333 11052 60005 91111 91209;
0137067020999992010010419004+46433+006100FM-12+167599999V0202201N004619999999N9999999N1-00521-00551999999ADDMA1999999081981MD1610041+9999ME1313869OA149900571REMSYN076AAXX  04194 06702 33/// /2209 11052 21055 38198 48386 56004 333 91111 91209;
0137067020999992010010420004+46433+006100FM-12+167599999V0202301N004619999999N9999999N1-00441-00561999999ADDMA1999999081971MD1810031+9999ME1313849OA149900511REMSYN076AAXX  04204 06702 33/// /2309 11044 21056 38197 48384 58003 333 91110 91209;
0137067020999992010010421004+46433+006100FM-12+167599999V0202301N003619999999N9999999N1-00451-00501999999ADDMA1999999081961MD1610041+9999ME1313839OA149900571REMSYN076AAXX  04214 06702 33/// /2307 11045 21050 38196 48383 56004 333 91111 91209;
0137067020999992010010422004+46433+006100FM-12+167599999V0202401N004619999999N9999999N1-00471-00551999999ADDMA1999999081931MD1810051+9999ME1313809OA149900571REMSYN076AAXX  04224 06702 33/// /2409 11047 21055 38193 48380 58005 333 91111 91209;
0154067020999992010010423004+46433+006100FM-12+167599999V0202501N006719999999N9999999N1-00481-00571999999ADDAA101000021MA1999999081901MD1810071+9999ME1313789OA149900931REMSYN082AAXX  04234 06702 23/// /2513 11048 21057 38190 48378 58007 333 69915 91118 91213;
0179067020999992010010500004+46433+006100FM-12+167599999V0202501N007719999999N9999999N1-00491-00571999999ADDAA106000091MA1999999081841MD1810121+9999ME1313729OA149900931REMSYN088AAXX  05004 06702 03/// /2515 11049 21057 38184 48372 58012 69911 333 60005 91118 91215;EQDQ01  00002PRCP06
0137067020999992010010501004+46433+006100FM-12+167599999V0202501N007219999999N9999999N1-00421-00521999999ADDMA1999999081771MD1810161+9999ME1313649OA149900981REMSYN076AAXX  05014 06702 33/// /2514 11042 21052 38177 48364 58016 333 91119 91216;
0137067020999992010010502004+46433+006100FM-12+167599999V0202401N006219999999N9999999N1-00421-00531999999ADDMA1999999081761MD1710141+9999ME1313639OA149900981REMSYN076AAXX  05024 06702 33/// /2412 11042 21053 38176 48363 57014 333 91119 91216;
0137067020999992010010503004+46433+006100FM-12+167599999V0202401N004119999999N9999999N1-00471-00541999999ADDMA1999999081721MD1710121+9999ME1313609OA149900981REMSYN076AAXX  05034 06702 33/// /2408 11047 21054 38172 48360 57012 333 91119 91216;
0137067020999992010010504004+46433+006100FM-12+167599999V0202301N005719999999N9999999N1-00391-00491999999ADDMA1999999081671MD1710101+9999ME1313549OA149900721REMSYN076AAXX  05044 06702 33/// /2311 11039 21049 38167 48354 57010 333 91114 91211;
0137067020999992010010505004+46433+006100FM-12+167599999V0202301N004619999999N9999999N1-00381-00491999999ADDMA1999999081621MD1810141+9999ME1313499OA149900771REMSYN076AAXX  05054 06702 33/// /2309 11038 21049 38162 48349 58014 333 91115 91212;
0239067020999992010010506004+46433+006100FM-12+167599999V0202201N005719999999N9999999N1-00361-00431999999ADDAA112000091AA224001091AL14800091GJ100009KA1999N-00601MA1999999081591MD1610131+9999ME1313469OA149900981REMSYN106AAXX  05064 06702 03/// /2211 11036 21043 38159 48346 56013 69912 333 21060 55000 60005 70009 91119 91216;EQDQ01  00002PRCP12
0137067020999992010010507004+46433+006100FM-12+167599999V0202201N005119999999N9999999N1-00411-00471999999ADDMA1999999081551MD1610121+9999ME1313439OA149900771REMSYN076AAXX  05074 06702 33/// /2210 11041 21047 38155 48343 56012 333 91115 91211;
0137067020999992010010508004+46433+006100FM-12+167599999V0202101N006219999999N9999999N1-00421-00471999999ADDMA1999999081531MD1610091+9999ME1313419OA149900771REMSYN076AAXX  05084 06702 33/// /2112 11042 21047 38153 48341 56009 333 91115 91212;
0137067020999992010010509004+46433+006100FM-12+167599999V0202301N005119999999N9999999N1-00331-00421999999ADDMA1999999081531MD1710061+9999ME1313409OA149900771REMSYN076AAXX  05094 06702 33/// /2310 11033 21042 38153 48340 57006 333 91115 91212;
0137067020999992010010510004+46433+006100FM-12+167599999V0202201N005119999999N9999999N1-00321-00391999999ADDMA1999999081501MD1710051+9999ME1313379OA149900771REMSYN076AAXX  05104 06702 33/// /2210 11032 21039 38150 48337 57005 333 91115 91211;
0137067020999992010010511004+46433+006100FM-12+167599999V0202401N005119999999N9999999N1-00301-00391999999ADDMA1999999081441MD1810091+9999ME1313319OA149900771REMSYN076AAXX  05114 06702 33/// /2410 11030 21039 38144 48331 58009 333 91115 91210;
0137067020999992010010512004+46433+006100FM-12+167599999V0202501N005119999999N9999999N1-00311-00371999999ADDMA1999999081381MD1810151+9999ME1313259OA149900981REMSYN076AAXX  05124 06702 33/// /2510 11031 21037 38138 48325 58015 333 91119 91216;
0137067020999992010010513004+46433+006100FM-12+167599999V0202601N005719999999N9999999N1-00331-00391999999ADDMA1999999081321MD1610181+9999ME1313199OA149900821REMSYN076AAXX  05134 06702 33/// /2611 11033 21039 38132 48319 56018 333 91116 91211;
0096067020999992010010514004+46433+006100FM-12+167599999V0202601N004119999999N9999999N1-00331-00391999999ADDMA1999999081281ME1313159REMSYN060AAXX  05144 06702 33/// /2608 11033 21039 38128 48315 5////;
0137067020999992010010515004+46433+006100FM-12+167599999V0202601N004619999999N9999999N1-00341-00371999999ADDMA1999999081271MD1610111+9999ME1313149OA149900821REMSYN076AAXX  05154 06702 33/// /2609 11034 21037 38127 48314 56011 333 91116 91211;
0137067020999992010010516004+46433+006100FM-12+167599999V0202601N003619999999N9999999N1-00351-00381999999ADDMA1999999081261MD1610061+9999ME1313149OA149900571REMSYN076AAXX  05164 06702 33/// /2607 11035 21038 38126 48314 56006 333 91111 91209;
0137067020999992010010517004+46433+006100FM-12+167599999V0202401N003619999999N9999999N1-00331-00421999999ADDMA1999999081261MD1610021+9999ME1313139OA149900571REMSYN076AAXX  05174 06702 33/// /2407 11033 21042 38126 48313 56002 333 91111 91209;
0156067020999992010010518004+46433+006100FM-12+167599999V0202501N004119999999N9999999N1-00371-00401999999ADDKA1120M-00281MA1999999081251MD1610021+9999ME1313139OA149900821REMSYN082AAXX  05184 06702 33/// /2508 11037 21040 38125 48313 56002 333 11028 91116 91212;
0137067020999992010010519004+46433+006100FM-12+167599999V0202601N006219999999N9999999N1-00371-00411999999ADDMA1999999081231MD1810031+9999ME1313119OA149900721REMSYN076AAXX  05194 06702 33/// /2612 11037 21041 38123 48311 58003 333 91114 91212;
0137067020999992010010520004+46433+006100FM-12+167599999V0202701N006219999999N9999999N1-00401-00461999999ADDMA1999999081191MD1810071+9999ME1313079OA149900821REMSYN076AAXX  05204 06702 33/// /2712 11040 21046 38119 48307 58007 333 91116 91213;
0137067020999992010010521004+46433+006100FM-12+167599999V0202701N006219999999N9999999N1-00411-00411999999ADDMA1999999081171MD1610081+9999ME1313069OA149900881REMSYN076AAXX  05214 06702 33/// /2712 11041 21041 38117 48306 56008 333 91117 91213;
0137067020999992010010522004+46433+006100FM-12+167599999V0202801N006719999999N9999999N1-00411-00411999999ADDMA1999999081141MD1610091+9999ME1313039OA149900981REMSYN076AAXX  05224 06702 33/// /2813 11041 21041 38114 48303 56009 333 91119 91214;
0137067020999992010010523004+46433+006100FM-12+167599999V0202701N006219999999N9999999N1-00411-00451999999ADDMA1999999081131MD1710061+9999ME1313029OA149900981REMSYN076AAXX  05234 06702 33/// /2712 11041 21045 38113 48302 57006 333 91119 91214;
0137067020999992010010600004+46433+006100FM-12+167599999V0202501N005719999999N9999999N1-00561-00661999999ADDMA1999999081121MD1710051+9999ME1313039OA149900981REMSYN076AAXX  06004 06702 33/// /2511 11056 21066 38112 48303 57005 333 91119 91214;
0137067020999992010010601004+46433+006100FM-12+167599999V0202701N006719999999N9999999N1-00671-00721999999ADDMA1999999081111MD1710031+9999ME1313039OA149900821REMSYN076AAXX  06014 06702 33/// /2713 11067 21072 38111 48303 57003 333 91116 91213;
0137067020999992010010602004+46433+006100FM-12+167599999V0202901N007719999999N9999999N1-00711-00751999999ADDMA1999999081131MD1510001+9999ME1313069OA149901031REMSYN076AAXX  06024 06702 33/// /2915 11071 21075 38113 48306 55000 333 91120 91216;
0137067020999992010010603004+46433+006100FM-12+167599999V0202901N008219999999N9999999N1-00821-00821999999ADDMA1999999081111MD1710011+9999ME1313059OA149901031REMSYN076AAXX  06034 06702 33/// /2916 11082 21082 38111 48305 57001 333 91120 91216;
0137067020999992010010604004+46433+006100FM-12+167599999V0202901N007219999999N9999999N1-00961-01001999999ADDMA1999999081071MD1810041+9999ME1313049OA149901081REMSYN076AAXX  06044 06702 33/// /2914 11096 21100 38107 48304 58004 333 91121 91217;
0137067020999992010010605004+46433+006100FM-12+167599999V0202801N007719999999N9999999N1-01021-01041999999ADDMA1999999081091MD1510041+9999ME1313069OA149901081REMSYN076AAXX  06054 06702 33/// /2815 11102 21104 38109 48306 55004 333 91121 91217;
0216067020999992010010606004+46433+006100FM-12+167599999V0202801N007719999999N9999999N1-01011-01071999999ADDAA124000091AL19900091GJ100009KA1999N-01021MA1999999081081MD1510031+9999ME1313059OA149901081REMSYN094AAXX  06064 06702 33/// /2815 11101 21107 38108 48305 55003 333 21102 55000 70000 91121 91217;EQDQ01  00002PRCP24
0137067020999992010010607004+46433+006100FM-12+167599999V0202701N007219999999N9999999N1-01031-01101999999ADDMA1999999081101MD1210031+9999ME1313079OA149900981REMSYN076AAXX  06074 06702 33/// /2714 11103 21110 38110 48307 52003 333 91119 91216;
0137067020999992010010608004+46433+006100FM-12+167599999V0202501N007219999999N9999999N1-00981-01111999999ADDMA1999999081131MD1210041+9999ME1313109OA149900931REMSYN076AAXX  06084 06702 33/// /2514 11098 21111 38113 48310 52004 333 91118 91214;
0137067020999992010010609004+46433+006100FM-12+167599999V0202301N006219999999N9999999N1-00951-01121999999ADDMA1999999081161MD1310081+9999ME1313129OA149901081REMSYN076AAXX  06094 06702 33/// /2312 11095 21112 38116 48312 53008 333 91121 91217;
0137067020999992010010610004+46433+006100FM-12+167599999V0202601N006219999999N9999999N1-00891-01061999999ADDMA1999999081191MD1310091+9999ME1313149OA149900981REMSYN076AAXX  06104 06702 33/// /2612 11089 21106 38119 48314 53009 333 91119 91215;
0137067020999992010010611004+46433+006100FM-12+167599999V0202301N005119999999N9999999N1-00921-01031999999ADDMA1999999081211MD1119999+9999ME1313179OA149900981REMSYN076AAXX  06114 06702 33/// /2310 11092 21103 38121 48317 51/// 333 91119 91215;
0137067020999992010010612004+46433+006100FM-12+167599999V0202501N007719999999N9999999N1-00921-01031999999ADDMA1999999081171MD1010011+9999ME1313139OA149901131REMSYN076AAXX  06124 06702 33/// /2515 11092 21103 38117 48313 50001 333 91122 91217;
0137067020999992010010613004+46433+006100FM-12+167599999V0202601N006719999999N9999999N1-00991-01101999999ADDMA1999999081181MD1710011+9999ME1313159OA149901131REMSYN076AAXX  06134 06702 33/// /2613 11099 21110 38118 48315 57001 333 91122 91217;
0137067020999992010010614004+46433+006100FM-12+167599999V0202801N008219999999N9999999N1-00961-01721999999ADDMA1999999081201MD1519999+9999ME1313169OA149901031REMSYN076AAXX  06144 06702 33/// /2816 11096 21172 38120 48316 55/// 333 91120 91217;
0137067020999992010010615004+46433+006100FM-12+167599999V0202901N008719999999N9999999N1-00991-01321999999ADDMA1999999081211MD1319999+9999ME1313179OA149901131REMSYN076AAXX  06154 06702 33/// /2917 11099 21132 38121 48317 53/// 333 91122 91217;
0137067020999992010010616004+46433+006100FM-12+167599999V0202801N008719999999N9999999N1-01061-01801999999ADDMA1999999081281MD1210101+9999ME1313259OA149901181REMSYN076AAXX  06164 06702 33/// /2817 11106 21180 38128 48325 52010 333 91123 91218;
0137067020999992010010617004+46433+006100FM-12+167599999V0202901N007719999999N9999999N1-00991-01671999999ADDMA1999999081331MD1210131+9999ME1313299OA149901131REMSYN076AAXX  06174 06702 33/// /2915 11099 21167 38133 48329 52013 333 91122 91217;
0156067020999992010010618004+46433+006100FM-12+167599999V0202701N007719999999N9999999N1-00941-01341999999ADDKA1120M-00831MA1999999081381MD1319999+9999ME1313339OA149901181REMSYN082AAXX  06184 06702 33/// /2715 11094 21134 38138 48333 53/// 333 11083 91123 91218;
0137067020999992010010619004+46433+006100FM-12+167599999V0202701N008219999999N9999999N1-00991-01081999999ADDMA1999999081381MD1210101+9999ME1313349OA149901131REMSYN076AAXX  06194 06702 33/// /2716 11099 21108 38138 48334 52010 333 91122 91219;
0137067020999992010010620004+46433+006100FM-12+167599999V0202801N008719999999N9999999N1-00991-01111999999ADDMA1999999081391MD1210061+9999ME1313359OA149901131REMSYN076AAXX  06204 06702 33/// /2817 11099 21111 38139 48335 52006 333 91122 91219;
0137067020999992010010621004+46433+006100FM-12+167599999V0202801N007219999999N9999999N1-00971-01011999999ADDMA1999999081431MD1210051+9999ME1313389OA149901241REMSYN076AAXX  06214 06702 33/// /2814 11097 21101 38143 48338 52005 333 91124 91219;
0137067020999992010010622004+46433+006100FM-12+167599999V0202601N008219999999N9999999N1-00931-01031999999ADDMA1999999081451MD1210071+9999ME1313409OA149901241REMSYN076AAXX  06224 06702 33/// /2616 11093 21103 38145 48340 52007 333 91124 91218;
0137067020999992010010623004+46433+006100FM-12+167599999V0202501N008719999999N9999999N1-00961-01131999999ADDMA1999999081461MD1210071+9999ME1313419OA149901081REMSYN076AAXX  06234 06702 33/// /2517 11096 21113 38146 48341 52007 333 91121 91217;
0137067020999992010010700004+46433+006100FM-12+167599999V0202301N009319999999N9999999N1-00911-01161999999ADDMA1999999081481MD1210051+9999ME1313429OA149901241REMSYN076AAXX  07004 06702 33/// /2318 11091 21116 38148 48342 52005 333 91124 91219;
0137067020999992010010701004+46433+006100FM-12+167599999V0202301N008219999999N9999999N1-00921-01111999999ADDMA1999999081481MD1210031+9999ME1313429OA149901181REMSYN076AAXX  07014 06702 33/// /2316 11092 21111 38148 48342 52003 333 91123 91218;
0137067020999992010010702004+46433+006100FM-12+167599999V0202101N009319999999N9999999N1-00901-01101999999ADDMA1999999081511MD1319999+9999ME1313459OA149901181REMSYN076AAXX  07024 06702 33/// /2118 11090 21110 38151 48345 53/// 333 91123 91218;
0137067020999992010010703004+46433+006100FM-12+167599999V0202101N009319999999N9999999N1-00891-01201999999ADDMA1999999081481MD1010001+9999ME1313429OA149901181REMSYN076AAXX  07034 06702 33/// /2118 11089 21120 38148 48342 50000 333 91123 91219;
0156067020999992010010704004+46433+006100FM-12+167599999V0202101N009319999999N9999999N1-00891-01161999999ADDMA1999999081481MD1410001+9999ME1313429OA149901241REMSYN076AAXX  07044 06702 33/// /2118 11089 21116 38148 48342 58000 333 91124 91220;EQDQ01+000082APCTEN
0137067020999992010010705004+46433+006100FM-12+167599999V0202001N009819999999N9999999N1-00891-01151999999ADDMA1999999081501MD1510011+9999ME1313449OA149901241REMSYN076AAXX  07054 06702 33/// /2019 11089 21115 38150 48344 55001 333 91124 91220;
0216067020999992010010706004+46433+006100FM-12+167599999V0202101N010819999999N9999999N1-00881-01461999999ADDAA124000091AL19900091GJ101689KA1999N-00991MA1999999081531MD1210051+9999ME1313479OA149901341REMSYN094AAXX  07064 06702 33/// /2121 11088 21146 38153 48347 52005 333 21099 55028 70000 91126 91221;EQDQ01  00002PRCP24
0137067020999992010010707004+46433+006100FM-12+167599999V0202201N009319999999N9999999N1-00871-01621999999ADDMA1999999081561MD1110081+9999ME1313499OA149901341REMSYN076AAXX  07074 06702 33/// /2218 11087 21162 38156 48349 51008 333 91126 91222;
0137067020999992010010708004+46433+006100FM-12+167599999V0202301N011319999999N9999999N1-00811-01711999999ADDMA1999999081601MD1319999+9999ME1313539OA149901341REMSYN076AAXX  07084 06702 33/// /2322 11081 21171 38160 48353 53/// 333 91126 91222;
0137067020999992010010709004+46433+006100FM-12+167599999V0202301N008719999999N9999999N1-00801-01421999999ADDMA1999999081651MD1310121+9999ME1313579OA149901341REMSYN076AAXX  07094 06702 33/// /2317 11080 21142 38165 48357 53012 333 91126 91222;
0137067020999992010010710004+46433+006100FM-12+167599999V0202301N008219999999N9999999N1-00761-01411999999ADDMA1999999081711MD1210151+9999ME1313639OA149901341REMSYN076AAXX  07104 06702 33/// /2316 11076 21141 38171 48363 52015 333 91126 91221;
0137067020999992010010711004+46433+006100FM-12+167599999V0202601N008219999999N9999999N1-00821-01291999999ADDMA1999999081691MD1210091+9999ME1313619OA149901181REMSYN076AAXX  07114 06702 33/// /2616 11082 21129 38169 48361 52009 333 91123 91218;
0137067020999992010010712004+46433+006100FM-12+167599999V0202601N009319999999N9999999N1-00821-01171999999ADDMA1999999081671MD1010021+9999ME1313599OA149901341REMSYN076AAXX  07124 06702 33/// /2618 11082 21117 38167 48359 50002 333 91126 91222;
0137067020999992010010713004+46433+006100FM-12+167599999V0202801N008219999999N9999999N1-00811-00971999999ADDMA1999999081681MD1710031+9999ME1313609OA149901131REMSYN076AAXX  07134 06702 33/// /2816 11081 21097 38168 48360 57003 333 91122 91218;
0096067020999992010010716004+46433+006100FM-12+167599999V0203001N004619999999N9999999N1-00871-01031999999ADDMA1999999081771ME1313709REMSYN060AAXX  07164 06702 33/// /3009 11087 21103 38177 48370 5/009;
0137067020999992010010717004+46433+006100FM-12+167599999V0202901N003119999999N9999999N1-00811-01061999999ADDMA1999999081811MD1219999+9999ME1313739OA149900571REMSYN076AAXX  07174 06702 33/// /2906 11081 21106 38181 48373 52/// 333 91111 91209;
0156067020999992010010718004+46433+006100FM-12+167599999V0201101N001019999999N9999999N1-00881-00991999999ADDKA1120M-00761MA1999999081841MD1219999+9999ME1313769OA149901341REMSYN082AAXX  07184 06702 33/// /1102 11088 21099 38184 48376 52/// 333 11076 91126 91222;
0137067020999992010010719004+46433+006100FM-12+167599999V0202301N000519999999N9999999N1-00841-01051999999ADDMA1999999081851MD1310081+9999ME1313779OA149900511REMSYN076AAXX  07194 06702 33/// /2301 11084 21105 38185 48377 53008 333 91110 91209;
0137067020999992010010720004+46433+006100FM-12+167599999V0200801N003119999999N9999999N1-00821-01041999999ADDMA1999999081821MD1010011+9999ME1313749OA149900411REMSYN076AAXX  07204 06702 33/// /0806 11082 21104 38182 48374 50001 333 91108 91206;
0137067020999992010010721004+46433+006100FM-12+167599999V0200601N005119999999N9999999N1-00851-00951999999ADDMA1999999081781MD1810061+9999ME1313709OA149900621REMSYN076AAXX  07214 06702 33/// /0610 11085 21095 38178 48370 58006 333 91112 91211;
0137067020999992010010722004+46433+006100FM-12+167599999V0200601N005719999999N9999999N1-00821-00991999999ADDMA1999999081761MD1610091+9999ME1313689OA149900721REMSYN076AAXX  07224 06702 33/// /0611 11082 21099 38176 48368 56009 333 91114 91211;
0137067020999992010010723004+46433+006100FM-12+167599999V0201001N009319999999N9999999N1-00871-00981999999ADDMA1999999081751MD1610071+9999ME1313689OA149901131REMSYN076AAXX  07234 06702 33/// /1018 11087 21098 38175 48368 56007 333 91122 91218;
0137067020999992010010800004+46433+006100FM-12+167599999V0200901N010319999999N9999999N1-00871-00941999999ADDMA1999999081691MD1810091+9999ME1313629OA149901291REMSYN076AAXX  08004 06702 33/// /0920 11087 21094 38169 48362 58009 333 91125 91220;
0137067020999992010010801004+46433+006100FM-12+167599999V0200801N011819999999N9999999N1-00881-01051999999ADDMA1999999081631MD1710131+9999ME1313569OA149901491REMSYN076AAXX  08014 06702 33/// /0823 11088 21105 38163 48356 57013 333 91129 91224;
0137067020999992010010802004+46433+006100FM-12+167599999V0200801N011319999999N9999999N1-00951-01061999999ADDMA1999999081601MD1719999+9999ME1313549OA149901491REMSYN076AAXX  08024 06702 33/// /0822 11095 21106 38160 48354 57/// 333 91129 91224;
0154067020999992010010803004+46433+006100FM-12+167599999V0200801N013419999999N9999999N1-00891-00941999999ADDAA101000021MA1999999081541MD1719999+9999ME1313489OA149901751REMSYN082AAXX  08034 06702 23/// /0826 11089 21094 38154 48348 57/// 333 69925 91134 91226;
0154067020999992010010804004+46433+006100FM-12+167599999V0200701N014419999999N9999999N1-00851-00901999999ADDAA101000391MA1999999081481MD1710151+9999ME1313429OA149901961REMSYN082AAXX  08044 06702 23/// /0728 11085 21090 38148 48342 57015 333 69935 91138 91229;
0137067020999992010010805004+46433+006100FM-12+167599999V0200701N012919999999N9999999N1-00861-00911999999ADDMA1999999081441MD1710161+9999ME1313389OA149901961REMSYN076AAXX  08054 06702 33/// /0725 11086 21091 38144 48338 57016 333 91138 91229;
0220067020999992010010806004+46433+006100FM-12+167599999V0200801N016419999999N9999999N1-00911-01011999999ADDAA112000591AA224000591AL13000091GJ100729KA1999N-00971MA1999999081321MD1710221+9999ME1313279OA149902161REMSYN106AAXX  08064 06702 03/// /0832 11091 21101 38132 48327 57022 69952 333 21097 55012 60005 70005 91142 91232;
0137067020999992010010807004+46433+006100FM-12+167599999V0200801N019519999999N9999999N1-00901-00971999999ADDMA1999999081231MD1810251+9999ME1313189OA149902571REMSYN076AAXX  08074 06702 33/// /0838 11090 21097 38123 48318 58025 333 91150 91238;
0137067020999992010010808004+46433+006100FM-12+167599999V0200801N019019999999N9999999N1-00871-00891999999ADDMA1999999081201MD1710241+9999ME1313159OA149902681REMSYN076AAXX  08084 06702 33/// /0837 11087 21089 38120 48315 57024 333 91152 91240;
0154067020999992010010809004+46433+006100FM-12+167599999V0200801N020019999999N9999999N1-00831-00841999999ADDAA101000021MA1999999081161MD1710161+9999ME1313109OA149902681REMSYN082AAXX  08094 06702 23/// /0839 11083 21084 38116 48310 57016 333 69925 91152 91240;
0154067020999992010010810004+46433+006100FM-12+167599999V0200801N019019999999N9999999N1-00741-00741999999ADDAA101000391MA1999999081151MD1710081+9999ME1313089OA149902831REMSYN082AAXX  08104 06702 23/// /0837 11074 21074 38115 48308 57008 333 69935 91155 91241;
0154067020999992010010811004+46433+006100FM-12+167599999V0200901N015919999999N9999999N1-00721-00861999999ADDAA101000391MA1999999081151MD1710051+9999ME1313089OA149902831REMSYN082AAXX  08114 06702 23/// /0931 11072 21086 38115 48308 57005 333 69935 91155 91241;
0160067020999992010010812004+46433+006100FM-12+167599999V0200801N013919999999N9999999N1-00771-00851999999ADDAA106001091MA1999999081111MD1710051+9999ME1313059OA149902831REMSYN088AAXX  08124 06702 03/// /0827 11077 21085 38111 48305 57005 60011 333 69965 91155 91241;
0137067020999992010010813004+46433+006100FM-12+167599999V0200901N009319999999N9999999N1-00841-00921999999ADDMA1999999081151MD1510001+9999ME1313109OA149902161REMSYN076AAXX  08134 06702 33/// /0918 11084 21092 38115 48310 55000 333 91142 91230;
0154067020999992010010814004+46433+006100FM-12+167599999V0200901N015419999999N9999999N1-00911-01011999999ADDAA101000391MA1999999081061MD1719999+9999ME1313029OA149902011REMSYN082AAXX  08144 06702 23/// /0930 11091 21101 38106 48302 57/// 333 69935 91139 91230;
0154067020999992010010815004+46433+006100FM-12+167599999V0200801N017019999999N9999999N1-00971-01041999999ADDAA101000891MA1999999081061MD1710051+9999ME1313039OA149902831REMSYN082AAXX  08154 06702 23/// /0833 11097 21104 38106 48303 57005 333 69985 91155 91241;
0154067020999992010010816004+46433+006100FM-12+167599999V0200801N018019999999N9999999N1-00991-00991999999ADDAA101000391MA1999999081061MD1510091+9999ME1313039OA149902261REMSYN082AAXX  08164 06702 23/// /0835 11099 21099 38106 48303 55009 333 69935 91144 91236;
0154067020999992010010817004+46433+006100FM-12+167599999V0200901N017519999999N9999999N1-01001-01001999999ADDAA101000021MA1999999081071MD1219999+9999ME1313049OA149902571REMSYN082AAXX  08174 06702 23/// /0934 11100 21100 38107 48304 52/// 333 69925 91150 91236;
0179067020999992010010818004+46433+006100FM-12+167599999V0200901N015919999999N9999999N1-01021-01041999999ADDAA112004191KA1120M-00721MA1999999081101MD1210041+9999ME1313079OA149902831REMSYN094AAXX  08184 06702 03/// /0931 11102 21104 38110 48307 52004 60042 333 11072 69945 91155 91241;
0154067020999992010010819004+46433+006100FM-12+167599999V0200901N015919999999N9999999N1-01001-01061999999ADDAA101000021MA1999999081131MD1210071+9999ME1313109OA149902321REMSYN082AAXX  08194 06702 23/// /0931 11100 21106 38113 48310 52007 333 69925 91145 91234;
0154067020999992010010820004+46433+006100FM-12+167599999V0200901N014919999999N9999999N1-01031-01061999999ADDAA101000021MA1999999081161MD1210091+9999ME1313139OA149902261REMSYN082AAXX  08204 06702 23/// /0929 11103 21106 38116 48313 52009 333 69925 91144 91233;
0154067020999992010010821004+46433+006100FM-12+167599999V0200901N012319999999N9999999N1-01051-01111999999ADDAA101000591MA1999999081201MD1210101+9999ME1313179OA149902571REMSYN082AAXX  08214 06702 23/// /0924 11105 21111 38120 48317 52010 333 69945 91150 91236;
0137067020999992010010822004+46433+006100FM-12+167599999V0200901N011819999999N9999999N1-01041-01121999999ADDMA1999999081211MD1210081+9999ME1313189OA149901701REMSYN076AAXX  08224 06702 33/// /0923 11104 21112 38121 48318 52008 333 91133 91227;
0137067020999992010010823004+46433+006100FM-12+167599999V0200901N009819999999N9999999N1-01031-01111999999ADDMA1999999081221MD1210061+9999ME1313199OA149901601REMSYN076AAXX  08234 06702 33/// /0919 11103 21111 38122 48319 52006 333 91131 91224;
0160067020999992010010900004+46433+006100FM-12+167599999V0200901N010819999999N9999999N1-01051-01101999999ADDAA106000891MA1999999081221MD1210021+9999ME1313199OA149902571REMSYN088AAXX  09004 06702 03/// /0921 11105 21110 38122 48319 52002 69981 333 60005 91150 91236;
0156067020999992010010901004+46433+006100FM-12+167599999V0200701N006719999999N9999999N1-01091-01151999999ADDMA1999999081211MD1410001+9999ME1313199OA149901491REMSYN076AAXX  09014 06702 33/// /0713 11109 21115 38121 48319 57000 333 91129 91221;EQDQ01+000072APCTEN
0137067020999992010010902004+46433+006100FM-12+167599999V0201001N007719999999N9999999N1-01051-01121999999ADDMA1999999081231MD1219999+9999ME1313209OA149901241REMSYN076AAXX  09024 06702 33/// /1015 11105 21112 38123 48320 52/// 333 91124 91219;
0137067020999992010010903004+46433+006100FM-12+167599999V0200901N007719999999N9999999N1-01041-01121999999ADDMA1999999081211MD1019999+9999ME1313189OA149901601REMSYN076AAXX  09034 06702 33/// /0915 11104 21112 38121 48318 50/// 333 91131 91224;
0137067020999992010010904004+46433+006100FM-12+167599999V0200901N008719999999N9999999N1-00981-01041999999ADDMA1999999081171MD1710041+9999ME1313139OA149901241REMSYN076AAXX  09044 06702 33/// /0917 11098 21104 38117 48313 57004 333 91124 91218;
0137067020999992010010905004+46433+006100FM-12+167599999V0200901N008719999999N9999999N1-00981-01051999999ADDMA1999999081141MD1610091+9999ME1313119OA149901241REMSYN076AAXX  09054 06702 33/// /0917 11098 21105 38114 48311 56009 333 91124 91219;
0220067020999992010010906004+46433+006100FM-12+167599999V0200801N006719999999N9999999N1-00961-01031999999ADDAA112000891AA224004391AL11800491GJ100009KA1999N-01091MA1999999081121MD1610091+9999ME1313089OA149902261REMSYN106AAXX  09064 06702 03/// /0813 11096 21103 38112 48308 56009 69982 333 21109 55000 60005 70043 91144 91233;
0137067020999992010010907004+46433+006100FM-12+167599999V0200301N004119999999N9999999N1-00861-00901999999ADDMA1999999081141MD1510031+9999ME1313099OA149901131REMSYN076AAXX  09074 06702 33/// /0308 11086 21090 38114 48309 55003 333 91122 91218;
0137067020999992010010908004+46433+006100FM-12+167599999V0200701N003619999999N9999999N1-00931-00961999999ADDMA1999999081171MD1310031+9999ME1313139OA149900621REMSYN076AAXX  09084 06702 33/// /0707 11093 21096 38117 48313 53003 333 91112 91210;
0137067020999992010010909004+46433+006100FM-12+167599999V0200801N003119999999N9999999N1-00971-01001999999ADDMA1999999081191MD1210071+9999ME1313159OA149901241REMSYN076AAXX  09094 06702 33/// /0806 11097 21100 38119 48315 52007 333 91124 91219;
0137067020999992010010910004+46433+006100FM-12+167599999V0200501N002619999999N9999999N1-01011-01031999999ADDMA1999999081181MD1210041+9999ME1313159OA149900461REMSYN076AAXX  09104 06702 33/// /0505 11101 21103 38118 48315 52004 333 91109 91208;
0137067020999992010010911004+46433+006100FM-12+167599999V0200601N002119999999N9999999N1-01031-01071999999ADDMA1999999081161MD1810011+9999ME1313139OA149900461REMSYN076AAXX  09114 06702 33/// /0604 11103 21107 38116 48313 58001 333 91109 91206;
0137067020999992010010912004+46433+006100FM-12+167599999V0200301N002119999999N9999999N1-01071-01121999999ADDMA1999999081151MD1610041+9999ME1313139OA149901241REMSYN076AAXX  09124 06702 33/// /0304 11107 21112 38115 48313 56004 333 91124 91219;
0137067020999992010010913004+46433+006100FM-12+167599999V0200101N002619999999N9999999N1-01111-01151999999ADDMA1999999081141MD1710041+9999ME1313129OA149900511REMSYN076AAXX  09134 06702 33/// /0105 11111 21115 38114 48312 57004 333 91110 91206;
0137067020999992010010914004+46433+006100FM-12+167599999V0209999C003619999999N9999999N1-01141-01181999999ADDMA1999999081131MD1710031+9999ME1313129OA149900571REMSYN076AAXX  09144 06702 33/// /0007 11114 21118 38113 48312 57003 333 91111 91207;
0137067020999992010010915004+46433+006100FM-12+167599999V0203501N002619999999N9999999N1-01231-01231999999ADDMA1999999081161MD1210011+9999ME1313169OA149900621REMSYN076AAXX  09154 06702 33/// /3505 11123 21123 38116 48316 52001 333 91112 91207;
0137067020999992010010916004+46433+006100FM-12+167599999V0203601N003619999999N9999999N1-01221-01251999999ADDMA1999999081171MD1210031+9999ME1313179OA149900621REMSYN076AAXX  09164 06702 33/// /3607 11122 21125 38117 48317 52003 333 91112 91207;
0154067020999992010010917004+46433+006100FM-12+167599999V0200201N003619999999N9999999N1-01181-01381999999ADDAA101000021MA1999999081171MD1110041+9999ME1313169OA149900671REMSYN082AAXX  09174 06702 23/// /0207 11118 21138 38117 48316 51004 333 69925 91113 91207;
0179067020999992010010918004+46433+006100FM-12+167599999V0200501N005719999999N9999999N1-01221-01431999999ADDAA112000591KA1120M-00861MA1999999081201MD1310041+9999ME1313209OA149900931REMSYN094AAXX  09184 06702 03/// /0511 11122 21143 38120 48320 53004 69952 333 11086 69935 91118 91211;
0154067020999992010010919004+46433+006100FM-12+167599999V0200301N003119999999N9999999N1-01331-01521999999ADDAA101000591MA1999999081241MD1310071+9999ME1313259OA149900931REMSYN082AAXX  09194 06702 23/// /0306 11133 21152 38124 48325 53007 333 69945 91118 91211;
0154067020999992010010920004+46433+006100FM-12+167599999V0200501N003619999999N9999999N1-01291-01491999999ADDAA101000021MA1999999081281MD1310111+9999ME1313289OA149900881REMSYN082AAXX  09204 06702 23/// /0507 11129 21149 38128 48328 53011 333 69915 91117 91210;
0154067020999992010010921004+46433+006100FM-12+167599999V0200501N005719999999N9999999N1-01291-01481999999ADDAA101000021MA1999999081301MD1110101+9999ME1313309OA149900931REMSYN082AAXX  09214 06702 23/// /0511 11129 21148 38130 48330 51010 333 69915 91118 91212;
0154067020999992010010922004+46433+006100FM-12+167599999V0200501N004619999999N9999999N1-01301-01511999999ADDAA101000021MA1999999081341MD1210101+9999ME1313349OA149900821REMSYN082AAXX  09224 06702 23/// /0509 11130 21151 38134 48334 52010 333 69925 91116 91212;
0154067020999992010010923004+46433+006100FM-12+167599999V0200701N006219999999N9999999N1-01331-01491999999ADDAA101000591MA1999999081381MD1210101+9999ME1313389OA149900821REMSYN082AAXX  09234 06702 23/// /0712 11133 21149 38138 48338 52010 333 69945 91116 91212;
0160067020999992010011000004+46433+006100FM-12+167599999V0200801N004619999999N9999999N1-01291-01451999999ADDAA106002091MA1999999081421MD1210121+9999ME1313419OA149900931REMSYN088AAXX  10004 06702 03/// /0809 11129 21145 38142 48341 52012 60021 333 69935 91118 91212;
0154067020999992010011001004+46433+006100FM-12+167599999V0203001N001019999999N9999999N1-01371-01591999999ADDAA101000591MA1999999081451MD1110111+9999ME1313459OA149900771REMSYN082AAXX  10014 06702 23/// /3002 11137 21159 38145 48345 51011 333 69945 91115 91210;
0117067020999992010011002004+46433+006100FM-12+167599999V0203001N001519999999N9999999N1-01331-01571999999ADDAA101000891MA1999999081511ME1313509REMSYN070AAXX  10024 06702 23/// /3003 11133 21157 38151 48350 5//// 333 69975;
0096067020999992010011003004+46433+006100FM-12+167599999V0203201N001019999999N9999999N1-01301-01521999999ADDMA1999999081531ME1313529REMSYN060AAXX  10034 06702 43/// /3202 11130 21152 38153 48352 5////;
0154067020999992010011004004+46433+006100FM-12+167599999V0203601N001019999999N9999999N1-01281-01471999999ADDAA101000591MA1999999081571MD1110121+9999ME1313559OA149900211REMSYN082AAXX  10044 06702 23/// /3602 11128 21147 38157 48355 51012 333 69945 91104 91204;
0154067020999992010011005004+46433+006100FM-12+167599999V0202901N001519999999N9999999N1-01371-01631999999ADDAA101000591MA1999999081611MD1310101+9999ME1313609OA149900261REMSYN082AAXX  10054 06702 23/// /2903 11137 21163 38161 48360 53010 333 69955 91105 91204;
0220067020999992010011006004+46433+006100FM-12+167599999V0203201N001519999999N9999999N1-01331-01581999999ADDAA112004191AA224004691AL13600491GJ100009KA1999N-01391MA1999999081661MD1310131+9999ME1313659OA149900881REMSYN106AAXX  10064 06702 03/// /3203 11133 21158 38166 48365 53013 60042 333 21139 55000 69915 70046 91117 91212;
0137067020999992010011007004+46433+006100FM-12+167599999V0203101N002119999999N9999999N1-01311-01531999999ADDMA1999999081721MD1310151+9999ME1313709OA149900261REMSYN076AAXX  10074 06702 33/// /3104 11131 21153 38172 48370 53015 333 91105 91204;
0137067020999992010011008004+46433+006100FM-12+167599999V0203301N001519999999N9999999N1-01291-01501999999ADDMA1999999081781MD1319999+9999ME1313759OA149900311REMSYN076AAXX  10084 06702 33/// /3303 11129 21150 38178 48375 53/// 333 91106 91205;
0137067020999992010011009004+46433+006100FM-12+167599999V0200201N000519999999N9999999N1-01261-01481999999ADDMA1999999081841MD1310181+9999ME1313819OA149900311REMSYN076AAXX  10094 06702 33/// /0201 11126 21148 38184 48381 53018 333 91106 91205;
0137067020999992010011010004+46433+006100FM-12+167599999V0202601N001519999999N9999999N1-01201-01431999999ADDMA1999999081901MD1310181+9999ME1313869OA149900211REMSYN076AAXX  10104 06702 33/// /2603 11120 21143 38190 48386 53018 333 91104 91204;
0137067020999992010011011004+46433+006100FM-12+167599999V0201401N000519999999N9999999N1-01221-01301999999ADDMA1999999081921MD1110141+9999ME1313889OA149900211REMSYN076AAXX  10114 06702 33/// /1401 11122 21130 38192 48388 51014 333 91104 91203;
0137067020999992010011012004+46433+006100FM-12+167599999V0202401N001519999999N9999999N1-01121-01291999999ADDMA1999999081941MD1110101+9999ME1313899OA149900461REMSYN076AAXX  10124 06702 33/// /2403 11112 21129 38194 48389 51010 333 91109 91208;
0137067020999992010011013004+46433+006100FM-12+167599999V0203301N001019999999N9999999N1-01171-01221999999ADDMA1999999081961MD1110061+9999ME1313919OA149900361REMSYN076AAXX  10134 06702 33/// /3302 11117 21122 38196 48391 51006 333 91107 91205;
0137067020999992010011014004+46433+006100FM-12+167599999V0201101N002119999999N9999999N1-01151-01241999999ADDMA1999999082011MD1319999+9999ME1313959OA149900361REMSYN076AAXX  10144 06702 33/// /1104 11115 21124 38201 48395 53/// 333 91107 91205;
0137067020999992010011015004+46433+006100FM-12+167599999V0201301N002619999999N9999999N1-01211-01311999999ADDMA1999999082041MD1210101+9999ME1313999OA149900361REMSYN076AAXX  10154 06702 33/// /1305 11121 21131 38204 48399 52010 333 91107 91205;
0137067020999992010011016004+46433+006100FM-12+167599999V0201601N002619999999N9999999N1-01181-01501999999ADDMA1999999082081MD1210121+9999ME1314029OA149900361REMSYN076AAXX  10164 06702 33/// /1605 11118 21150 38208 48402 52012 333 91107 91206;
0137067020999992010011017004+46433+006100FM-12+167599999V0201601N003619999999N9999999N1-01261-01391999999ADDMA1999999082111MD1210101+9999ME1314069OA149900411REMSYN076AAXX  10174 06702 33/// /1607 11126 21139 38211 48406 52010 333 91108 91207;
0156067020999992010011018004+46433+006100FM-12+167599999V0201201N003119999999N9999999N1-01151-01491999999ADDKA1120M-01111MA1999999082121MD1110081+9999ME1314069OA149900411REMSYN082AAXX  10184 06702 33/// /1206 11115 21149 38212 48406 51008 333 11111 91108 91207;
0137067020999992010011019004+46433+006100FM-12+167599999V0201301N004119999999N9999999N1-01081-01361999999ADDMA1999999082131MD1110051+9999ME1314069OA149900511REMSYN076AAXX  10194 06702 33/// /1308 11108 21136 38213 48406 51005 333 91110 91208;
0137067020999992010011020004+46433+006100FM-12+167599999V0201201N003119999999N9999999N1-00811-01371999999ADDMA1999999082131MD1210021+9999ME1314039OA149900511REMSYN076AAXX  10204 06702 33/// /1206 11081 21137 38213 48403 52002 333 91110 91208;
0137067020999992010011021004+46433+006100FM-12+167599999V0201301N003119999999N9999999N1-00721-01301999999ADDMA1999999082141MD1210021+9999ME1314039OA149900511REMSYN076AAXX  10214 06702 33/// /1306 11072 21130 38214 48403 52002 333 91110 91209;
0137067020999992010011022004+46433+006100FM-12+167599999V0201201N004619999999N9999999N1-00681-01261999999ADDMA1999999082171MD1210041+9999ME1314069OA149900511REMSYN076AAXX  10224 06702 33/// /1209 11068 21126 38217 48406 52004 333 91110 91209;
0137067020999992010011023004+46433+006100FM-12+167599999V0202301N004119999999N9999999N1-00631-01201999999ADDMA1999999082211MD1310081+9999ME1314099OA149900511REMSYN076AAXX  10234 06702 33/// /2308 11063 21120 38221 48409 53008 333 91110 91209;
0137067020999992010011100004+46433+006100FM-12+167599999V0202601N006719999999N9999999N1-00461-00921999999ADDMA1999999082201MD1210061+9999ME1314069OA149900721REMSYN076AAXX  11004 06702 33/// /2613 11046 21092 38220 48406 52006 333 91114 91213;
0137067020999992010011101004+46433+006100FM-12+167599999V0202601N005119999999N9999999N1-00521-00901999999ADDMA1999999082201MD1010031+9999ME1314079OA149900721REMSYN076AAXX  11014 06702 33/// /2610 11052 21090 38220 48407 50003 333 91114 91213;
0137067020999992010011102004+46433+006100FM-12+167599999V0202501N006719999999N9999999N1-00641-00881999999ADDMA1999999082221MD1319999+9999ME1314109OA149900721REMSYN076AAXX  11024 06702 33/// /2513 11064 21088 38222 48410 53/// 333 91114 91213;
0137067020999992010011103004+46433+006100FM-12+167599999V0202501N006219999999N9999999N1-00501-00801999999ADDMA1999999082221MD1219999+9999ME1314099OA149900721REMSYN076AAXX  11034 06702 33/// /2512 11050 21080 38222 48409 52/// 333 91114 91213;
0137067020999992010011104004+46433+006100FM-12+167599999V0202801N004119999999N9999999N1-00581-00901999999ADDMA1999999082221MD1010021+9999ME1314109OA149900721REMSYN076AAXX  11044 06702 33/// /2808 11058 21090 38222 48410 50002 333 91114 91213;
0137067020999992010011105004+46433+006100FM-12+167599999V0202901N003119999999N9999999N1-00531-00971999999ADDMA1999999082211MD1710011+9999ME1314089OA149900621REMSYN076AAXX  11054 06702 33/// /2906 11053 21097 38221 48408 57001 333 91112 91211;
0216067020999992010011106004+46433+006100FM-12+167599999V0203001N003119999999N9999999N1-00551-00971999999ADDAA124000091AL19900091GJ101569KA1999N-01161MA1999999082211MD1710011+9999ME1314089OA149900721REMSYN094AAXX  11064 06702 33/// /3006 11055 21097 38221 48408 57001 333 21116 55026 70000 91114 91213;EQDQ01  00002PRCP24
0137067020999992010011107004+46433+006100FM-12+167599999V0202801N003119999999N9999999N1-00661-00861999999ADDMA1999999082221MD1010001+9999ME1314109OA149900511REMSYN076AAXX  11074 06702 33/// /2806 11066 21086 38222 48410 50000 333 91110 91209;
0137067020999992010011108004+46433+006100FM-12+167599999V0202801N007219999999N9999999N1-00651-00731999999ADDMA1999999082251MD1319999+9999ME1314139OA149900821REMSYN076AAXX  11084 06702 33/// /2814 11065 21073 38225 48413 53/// 333 91116 91214;
0137067020999992010011109004+46433+006100FM-12+167599999V0202801N006719999999N9999999N1-00661-00741999999ADDMA1999999082301MD1210091+9999ME1314189OA149900881REMSYN076AAXX  11094 06702 33/// /2813 11066 21074 38230 48418 52009 333 91117 91215;
0137067020999992010011110004+46433+006100FM-12+167599999V0202901N006219999999N9999999N1-00661-00721999999ADDMA1999999082331MD1219999+9999ME1314219OA149900881REMSYN076AAXX  11104 06702 33/// /2912 11066 21072 38233 48421 52/// 333 91117 91215;
0137067020999992010011111004+46433+006100FM-12+167599999V0202901N005119999999N9999999N1-00631-00731999999ADDMA1999999082341MD1110091+9999ME1314229OA149900771REMSYN076AAXX  11114 06702 33/// /2910 11063 21073 38234 48422 51009 333 91115 91213;
0137067020999992010011112004+46433+006100FM-12+167599999V0203001N003619999999N9999999N1-00541-00671999999ADDMA1999999082331MD1010031+9999ME1314209OA149900881REMSYN076AAXX  11124 06702 33/// /3007 11054 21067 38233 48420 50003 333 91117 91215;
0137067020999992010011113004+46433+006100FM-12+167599999V0202901N003119999999N9999999N1-00591-00641999999ADDMA1999999082321MD1710011+9999ME1314199OA149900571REMSYN076AAXX  11134 06702 33/// /2906 11059 21064 38232 48419 57001 333 91111 91209;
0096067020999992010011114004+46433+006100FM-12+167599999V0202801N001019999999N9999999N1-00571-00651999999ADDMA1999999082331ME1314209REMSYN060AAXX  11144 06702 33/// /2802 11057 21065 38233 48420 5////;
0137067020999992010011115004+46433+006100FM-12+167599999V0203401N001019999999N9999999N1-00531-00741999999ADDMA1999999082361MD1210031+9999ME1314239OA149900771REMSYN076AAXX  11154 06702 33/// /3402 11053 21074 38236 48423 52003 333 91115 91213;
0137067020999992010011116004+46433+006100FM-12+167599999V0200901N002119999999N9999999N1-00601-00791999999ADDMA1999999082371MD1110051+9999ME1314249OA149900261REMSYN076AAXX  11164 06702 33/// /0904 11060 21079 38237 48424 51005 333 91105 91204;
0137067020999992010011117004+46433+006100FM-12+167599999V0203401N000519999999N9999999N1-00631-00841999999ADDMA1999999082411MD1310081+9999ME1314289OA149900311REMSYN076AAXX  11174 06702 33/// /3401 11063 21084 38241 48428 53008 333 91106 91204;
0156067020999992010011118004+46433+006100FM-12+167599999V0201101N002119999999N9999999N1-00621-00911999999ADDKA1120M-00511MA1999999082431MD1110071+9999ME1314309OA149900881REMSYN082AAXX  11184 06702 33/// /1104 11062 21091 38243 48430 51007 333 11051 91117 91215;
0137067020999992010011119004+46433+006100FM-12+167599999V0200801N001519999999N9999999N1-00561-00921999999ADDMA1999999082461MD1310091+9999ME1314329OA149900311REMSYN076AAXX  11194 06702 33/// /0803 11056 21092 38246 48432 53009 333 91106 91206;
0137067020999992010011120004+46433+006100FM-12+167599999V0202901N002119999999N9999999N1-00591-00871999999ADDMA1999999082471MD1310061+9999ME1314349OA149900311REMSYN076AAXX  11204 06702 33/// /2904 11059 21087 38247 48434 53006 333 91106 91206;
0137067020999992010011121004+46433+006100FM-12+167599999V0201101N002119999999N9999999N1-00561-00921999999ADDMA1999999082481MD1110051+9999ME1314349OA149900311REMSYN076AAXX  11214 06702 33/// /1104 11056 21092 38248 48434 51005 333 91106 91206;
0137067020999992010011122004+46433+006100FM-12+167599999V0201201N002619999999N9999999N1-00621-00951999999ADDMA1999999082491MD1210031+9999ME1314369OA149900311REMSYN076AAXX  11224 06702 33/// /1205 11062 21095 38249 48436 52003 333 91106 91205;
0137067020999992010011123004+46433+006100FM-12+167599999V0201201N002119999999N9999999N1-00581-00901999999ADDMA1999999082491MD1210021+9999ME1314359OA149900311REMSYN076AAXX  11234 06702 33/// /1204 11058 21090 38249 48435 52002 333 91106 91205;
0137067020999992010011200004+46433+006100FM-12+167599999V0201301N001519999999N9999999N1-00581-00881999999ADDMA1999999082481MD1010001+9999ME1314349OA149900571REMSYN076AAXX  12004 06702 33/// /1303 11058 21088 38248 48434 50000 333 91111 91208;
0137067020999992010011201004+46433+006100FM-12+167599999V0201101N002619999999N9999999N1-00621-00941999999ADDMA1999999082431MD1710061+9999ME1314309OA149900311REMSYN076AAXX  12014 06702 33/// /1105 11062 21094 38243 48430 57006 333 91106 91205;
0137067020999992010011202004+46433+006100FM-12+167599999V0201001N003119999999N9999999N1-00571-00951999999ADDMA1999999082441MD1719999+9999ME1314319OA149900361REMSYN076AAXX  12024 06702 33/// /1006 11057 21095 38244 48431 57/// 333 91107 91206;
0137067020999992010011203004+46433+006100FM-12+167599999V0201001N002619999999N9999999N1-00581-00931999999ADDMA1999999082441MD1510041+9999ME1314319OA149900361REMSYN076AAXX  12034 06702 33/// /1005 11058 21093 38244 48431 55004 333 91107 91206;
0137067020999992010011204004+46433+006100FM-12+167599999V0201101N001519999999N9999999N1-00581-01001999999ADDMA1999999082411MD1710021+9999ME1314289OA149900361REMSYN076AAXX  12044 06702 33/// /1103 11058 21100 38241 48428 57002 333 91107 91206;
0137067020999992010011205004+46433+006100FM-12+167599999V0201001N002119999999N9999999N1-00551-00961999999ADDMA1999999082381MD1710061+9999ME1314259OA149900311REMSYN076AAXX  12054 06702 33/// /1004 11055 21096 38238 48425 57006 333 91106 91205;
0216067020999992010011206004+46433+006100FM-12+167599999V0200901N002619999999N9999999N1-00541-00931999999ADDAA124000091AL19900091GJ103969KA1999N-00671MA1999999082351MD1610091+9999ME1314229OA149900361REMSYN094AAXX  12064 06702 33/// /0905 11054 21093 38235 48422 56009 333 21067 55066 70000 91107 91206;EQDQ01  00002PRCP24
0137067020999992010011207004+46433+006100FM-12+167599999V0201001N003119999999N9999999N1-00611-00961999999ADDMA1999999082311MD1810101+9999ME1314189OA149900461REMSYN076AAXX  12074 06702 33/// /1006 11061 21096 38231 48418 58010 333 91109 91207;
0137067020999992010011208004+46433+006100FM-12+167599999V0201101N005719999999N9999999N1-00551-01001999999ADDMA1999999082261MD1819999+9999ME1314139OA149900671REMSYN076AAXX  12084 06702 33/// /1111 11055 21100 38226 48413 58/// 333 91113 91211;
0137067020999992010011209004+46433+006100FM-12+167599999V0201201N008719999999N9999999N1-00421-00971999999ADDMA1999999082191MD1810161+9999ME1314059OA149900931REMSYN076AAXX  12094 06702 33/// /1217 11042 21097 38219 48405 58016 333 91118 91217;
0137067020999992010011210004+46433+006100FM-12+167599999V0201301N007719999999N9999999N1-00331-01291999999ADDMA1999999082171MD1610141+9999ME1314029OA149901031REMSYN076AAXX  12104 06702 33/// /1315 11033 21129 38217 48402 56014 333 91120 91217;
0137067020999992010011211004+46433+006100FM-12+167599999V0201501N007219999999N9999999N1-00231-01281999999ADDMA1999999082151MD1610111+9999ME1313999OA149901031REMSYN076AAXX  12114 06702 33/// /1514 11023 21128 38215 48399 56011 333 91120 91217;
0137067020999992010011212004+46433+006100FM-12+167599999V0202001N008219999999N9999999N1-00251-01401999999ADDMA1999999082101MD1810091+9999ME1313959OA149901031REMSYN076AAXX  12124 06702 33/// /2016 11025 21140 38210 48395 58009 333 91120 91217;
0137067020999992010011213004+46433+006100FM-12+167599999V0201901N010819999999N9999999N1-00301-01321999999ADDMA1999999082001MD1810171+9999ME1313859OA149901391REMSYN076AAXX  12134 06702 33/// /1921 11030 21132 38200 48385 58017 333 91127 91221;
0096067020999992010011214004+46433+006100FM-12+167599999V0201901N011319999999N9999999N1-00291-01191999999ADDMA1999999081931ME1313789REMSYN060AAXX  12144 06702 33/// /1922 11029 21119 38193 48378 5////;
0137067020999992010011215004+46433+006100FM-12+167599999V0201801N012319999999N9999999N1-00391-01211999999ADDMA1999999081841MD1610261+9999ME1313719OA149901491REMSYN076AAXX  12154 06702 33/// /1824 11039 21121 38184 48371 56026 333 91129 91224;
0137067020999992010011216004+46433+006100FM-12+167599999V0201701N013419999999N9999999N1-00441-01161999999ADDMA1999999081761MD1710241+9999ME1313649OA149901541REMSYN076AAXX  12164 06702 33/// /1726 11044 21116 38176 48364 57024 333 91130 91226;
0137067020999992010011217004+46433+006100FM-12+167599999V0201801N014419999999N9999999N1-00391-01141999999ADDMA1999999081731MD1710201+9999ME1313609OA149901701REMSYN076AAXX  12174 06702 33/// /1828 11039 21114 38173 48360 57020 333 91133 91229;
0156067020999992010011218004+46433+006100FM-12+167599999V0201801N014419999999N9999999N1-00471-01131999999ADDKA1120M-00191MA1999999081721MD1710121+9999ME1313609OA149901901REMSYN082AAXX  12184 06702 33/// /1828 11047 21113 38172 48360 57012 333 11019 91137 91231;
0137067020999992010011219004+46433+006100FM-12+167599999V0201901N014419999999N9999999N1-00421-01131999999ADDMA1999999081691MD1710071+9999ME1313579OA149901901REMSYN076AAXX  12194 06702 33/// /1928 11042 21113 38169 48357 57007 333 91137 91231;
0137067020999992010011220004+46433+006100FM-12+167599999V0201801N012919999999N9999999N1-00461-01151999999ADDMA1999999081651MD1710081+9999ME1313539OA149901901REMSYN076AAXX  12204 06702 33/// /1825 11046 21115 38165 48353 57008 333 91137 91230;
0137067020999992010011221004+46433+006100FM-12+167599999V0201901N012919999999N9999999N1-00451-01141999999ADDMA1999999081601MD1610121+9999ME1313489OA149901901REMSYN076AAXX  12214 06702 33/// /1925 11045 21114 38160 48348 56012 333 91137 91231;
0137067020999992010011222004+46433+006100FM-12+167599999V0202301N013919999999N9999999N1-00531-00751999999ADDMA1999999081611MD1710081+9999ME1313509OA149902011REMSYN076AAXX  12224 06702 33/// /2327 11053 21075 38161 48350 57008 333 91139 91228;
0154067020999992010011223004+46433+006100FM-12+167599999V0201901N015919999999N9999999N1-00501-00531999999ADDAA101000591MA1999999081611MD1510041+9999ME1313509OA149902261REMSYN082AAXX  12234 06702 23/// /1931 11050 21053 38161 48350 55004 333 69955 91144 91233;
0160067020999992010011300004+46433+006100FM-12+167599999V0201701N015419999999N9999999N1-00521-00521999999ADDAA106002091MA1999999081591MD1010011+9999ME1313489OA149902261REMSYN088AAXX  13004 06702 03/// /1730 11052 21052 38159 48348 50001 60021 333 60015 91144 91233;
0154067020999992010011301004+46433+006100FM-12+167599999V0201501N012919999999N9999999N1-00521-00521999999ADDAA101001091MA1999999081541MD1710071+9999ME1313439OA149902211REMSYN082AAXX  13014 06702 23/// /1525 11052 21052 38154 48343 57007 333 60015 91143 91232;
0154067020999992010011302004+46433+006100FM-12+167599999V0201701N011819999999N9999999N1-00501-00551999999ADDAA101000891MA1999999081521MD1719999+9999ME1313419OA149901851REMSYN082AAXX  13024 06702 23/// /1723 11050 21055 38152 48341 57/// 333 69975 91136 91228;
0154067020999992010011303004+46433+006100FM-12+167599999V0202001N014419999999N9999999N1-00451-00501999999ADDAA101000891MA1999999081521MD1719999+9999ME1313409OA149902261REMSYN082AAXX  13034 06702 23/// /2028 11045 21050 38152 48340 57/// 333 69975 91144 91233;
0173067020999992010011304004+46433+006100FM-12+167599999V0202201N013419999999N9999999N1-00371-00451999999ADDAA101002091MA1999999081541MD1410001+9999ME1313419OA149902011REMSYN082AAXX  13044 06702 23/// /2226 11037 21045 38154 48341 53000 333 60025 91139 91228;EQDQ01+000032APCTEN
0154067020999992010011305004+46433+006100FM-12+167599999V0202301N012919999999N9999999N1-00331-00391999999ADDAA101001091MA1999999081561MD1210041+9999ME1313439OA149902011REMSYN082AAXX  13054 06702 23/// /2325 11033 21039 38156 48343 52004 333 60015 91139 91227;
0220067020999992010011306004+46433+006100FM-12+167599999V0202301N010819999999N9999999N1-00361-00451999999ADDAA112008992AA224008192AL10600891GJ104629KA1999N-00581MA1999999081611MD1310091+9999ME1313489OA149902261REMSYN106AAXX  13064 06702 03/// /2321 11036 21045 38161 48348 53009 60092 333 21058 55077 60015 70081 91144 91233;
0154067020999992010011307004+46433+006100FM-12+167599999V0202301N010819999999N9999999N1-00371-00481999999ADDAA101001091MA1999999081661MD1310121+9999ME1313539OA149901801REMSYN082AAXX  13074 06702 23/// /2321 11037 21048 38166 48353 53012 333 60015 91135 91225;
0154067020999992010011308004+46433+006100FM-12+167599999V0202301N007719999999N9999999N1-00371-00451999999ADDAA101001091MA1999999081751MD1310191+9999ME1313629OA149901491REMSYN082AAXX  13084 06702 23/// /2315 11037 21045 38175 48362 53019 333 60015 91129 91221;
0154067020999992010011309004+46433+006100FM-12+167599999V0202501N007719999999N9999999N1-00381-00421999999ADDAA101000891MA1999999081811MD1210201+9999ME1313689OA149902011REMSYN082AAXX  13094 06702 23/// /2515 11038 21042 38181 48368 52020 333 69985 91139 91227;
0154067020999992010011310004+46433+006100FM-12+167599999V0202601N009819999999N9999999N1-00371-00371999999ADDAA101000591MA1999999081841MD1110181+9999ME1313719OA149901291REMSYN082AAXX  13104 06702 23/// /2619 11037 21037 38184 48371 51018 333 69965 91125 91219;
0154067020999992010011311004+46433+006100FM-12+167599999V0202601N010819999999N9999999N1-00401-00401999999ADDAA101000591MA1999999081861MD1210111+9999ME1313739OA149901341REMSYN082AAXX  13114 06702 23/// /2621 11040 21040 38186 48373 52011 333 69955 91126 91221;
0160067020999992010011312004+46433+006100FM-12+167599999V0202701N010819999999N9999999N1-00411-00411999999ADDAA106005191MA1999999081861MD1210051+9999ME1313739OA149902011REMSYN088AAXX  13124 06702 03/// /2721 11041 21041 38186 48373 52005 60051 333 69945 91139 91228;
0154067020999992010011313004+46433+006100FM-12+167599999V0202801N011319999999N9999999N1-00401-00401999999ADDAA101000891MA1999999081851MD1010011+9999ME1313729OA149901391REMSYN082AAXX  13134 06702 23/// /2822 11040 21040 38185 48372 50001 333 69985 91127 91223;
0154067020999992010011314004+46433+006100FM-12+167599999V0202801N010819999999N9999999N1-00381-00381999999ADDAA101001091MA1999999081901MD1319999+9999ME1313779OA149901441REMSYN082AAXX  13144 06702 23/// /2821 11038 21038 38190 48377 53/// 333 60015 91128 91222;
0154067020999992010011315004+46433+006100FM-12+167599999V0202801N009319999999N9999999N1-00371-00381999999ADDAA101000591MA1999999081951MD1210091+9999ME1313819OA149901441REMSYN082AAXX  13154 06702 23/// /2818 11037 21038 38195 48381 52009 333 69955 91128 91223;
0154067020999992010011316004+46433+006100FM-12+167599999V0202801N008219999999N9999999N1-00401-00401999999ADDAA101000591MA1999999081991MD1110141+9999ME1313859OA149901341REMSYN082AAXX  13164 06702 23/// /2816 11040 21040 38199 48385 51014 333 69965 91126 91219;
0137067020999992010011317004+46433+006100FM-12+167599999V0202701N007719999999N9999999N1-00351-00351999999ADDMA1999999082021MD1210121+9999ME1313889OA149901181REMSYN076AAXX  13174 06702 33/// /2715 11035 21035 38202 48388 52012 333 91123 91217;
0179067020999992010011318004+46433+006100FM-12+167599999V0202801N007719999999N9999999N1-00411-00441999999ADDAA112007991KA1120M-00341MA1999999082041MD1210091+9999ME1313909OA149901491REMSYN094AAXX  13184 06702 03/// /2815 11041 21044 38204 48390 52009 60082 333 11034 60005 91129 91223;
0137067020999992010011319004+46433+006100FM-12+167599999V0202301N004619999999N9999999N1-00421-00491999999ADDMA1999999082061MD1210071+9999ME1313929OA149901081REMSYN076AAXX  13194 06702 33/// /2309 11042 21049 38206 48392 52007 333 91121 91217;
0137067020999992010011320004+46433+006100FM-12+167599999V0202101N005119999999N9999999N1-00451-00491999999ADDMA1999999082051MD1010031+9999ME1313929OA149900721REMSYN076AAXX  13204 06702 33/// /2110 11045 21049 38205 48392 50003 333 91114 91211;
0137067020999992010011321004+46433+006100FM-12+167599999V0201901N007219999999N9999999N1-00431-00481999999ADDMA1999999082011MD1710031+9999ME1313889OA149901181REMSYN076AAXX  13214 06702 33/// /1914 11043 21048 38201 48388 57003 333 91123 91217;
0137067020999992010011322004+46433+006100FM-12+167599999V0201601N008719999999N9999999N1-00431-00471999999ADDMA1999999081951MD1810111+9999ME1313829OA149901131REMSYN076AAXX  13224 06702 33/// /1617 11043 21047 38195 48382 58011 333 91122 91218;
0137067020999992010011323004+46433+006100FM-12+167599999V0201701N009819999999N9999999N1-00421-00501999999ADDMA1999999081931MD1710121+9999ME1313809OA149901131REMSYN076AAXX  13234 06702 33/// /1719 11042 21050 38193 48380 57012 333 91122 91220;
0137067020999992010011400004+46433+006100FM-12+167599999V0201601N009319999999N9999999N1-00411-00481999999ADDMA1999999081871MD1710141+9999ME1313749OA149901441REMSYN076AAXX  14004 06702 33/// /1618 11041 21048 38187 48374 57014 333 91128 91222;
0137067020999992010011401004+46433+006100FM-12+167599999V0201801N009319999999N9999999N1-00421-00501999999ADDMA1999999081851MD1710101+9999ME1313729OA149901241REMSYN076AAXX  14014 06702 33/// /1818 11042 21050 38185 48372 57010 333 91124 91221;
0137067020999992010011402004+46433+006100FM-12+167599999V0201501N007719999999N9999999N1-00451-00501999999ADDMA1999999081811MD1619999+9999ME1313699OA149901181REMSYN076AAXX  14024 06702 33/// /1515 11045 21050 38181 48369 56/// 333 91123 91220;
0096067020999992010011403004+46433+006100FM-12+167599999V0201301N008219999999N9999999N1-00501-00541999999ADDMA1999999081741ME1313629REMSYN060AAXX  14034 06702 33/// /1316 11050 21054 38174 48362 5////;
0137067020999992010011404004+46433+006100FM-12+167599999V0201401N009819999999N9999999N1-00501-00581999999ADDMA1999999081681MD1810171+9999ME1313579OA149901341REMSYN076AAXX  14044 06702 33/// /1419 11050 21058 38168 48357 58017 333 91126 91220;
0137067020999992010011405004+46433+006100FM-12+167599999V0201301N008219999999N9999999N1-00551-00611999999ADDMA1999999081671MD1710141+9999ME1313569OA149901341REMSYN076AAXX  14054 06702 33/// /1316 11055 21061 38167 48356 57014 333 91126 91220;
0197067020999992010011406004+46433+006100FM-12+167599999V0201201N009319999999N9999999N1-00591-00631999999ADDAA124008491AL12400891GJ100009KA1999N-00581MA1999999081601MD1710141+9999ME1313509OA149901341REMSYN094AAXX  14064 06702 33/// /1218 11059 21063 38160 48350 57014 333 21058 55000 70084 91126 91221;
0137067020999992010011407004+46433+006100FM-12+167599999V0201101N011319999999N9999999N1-00581-00701999999ADDMA1999999081571MD1710111+9999ME1313479OA149901341REMSYN076AAXX  14074 06702 33/// /1122 11058 21070 38157 48347 57011 333 91126 91222;
0137067020999992010011408004+46433+006100FM-12+167599999V0201001N009819999999N9999999N1-00631-00671999999ADDMA1999999081561MD1719999+9999ME1313469OA149901341REMSYN076AAXX  14084 06702 33/// /1019 11063 21067 38156 48346 57/// 333 91126 91222;
0137067020999992010011409004+46433+006100FM-12+167599999V0201001N008219999999N9999999N1-00581-00681999999ADDMA1999999081611MD1310011+9999ME1313519OA149901341REMSYN076AAXX  14094 06702 33/// /1016 11058 21068 38161 48351 53001 333 91126 91222;
0137067020999992010011410004+46433+006100FM-12+167599999V0201201N008219999999N9999999N1-00231-00871999999ADDMA1999999081651MD1210081+9999ME1313509OA149901131REMSYN076AAXX  14104 06702 33/// /1216 11023 21087 38165 48350 52008 333 91122 91219;
0137067020999992010011411004+46433+006100FM-12+167599999V0201301N005719999999N9999999N1-00231-00491999999ADDMA1999999081671MD1210111+9999ME1313529OA149901081REMSYN076AAXX  14114 06702 33/// /1311 11023 21049 38167 48352 52011 333 91121 91218;
0160067020999992010011412004+46433+006100FM-12+167599999V0201201N006719999999N9999999N1-00291-00431999999ADDAA106000391MA1999999081631MD1010021+9999ME1313499OA149901341REMSYN088AAXX  14124 06702 03/// /1213 11029 21043 38163 48349 50002 69931 333 69935 91126 91222;
0154067020999992010011413004+46433+006100FM-12+167599999V0201001N008219999999N9999999N1-00271-00311999999ADDAA101000591MA1999999081601MD1710051+9999ME1313469OA149901131REMSYN082AAXX  14134 06702 23/// /1016 11027 21031 38160 48346 57005 333 69945 91122 91216;
0154067020999992010011414004+46433+006100FM-12+167599999V0200901N008219999999N9999999N1-00211-00231999999ADDAA101000591MA1999999081601MD1710071+9999ME1313459OA149900881REMSYN082AAXX  14144 06702 23/// /0916 11021 21023 38160 48345 57007 333 69945 91117 91216;
0173067020999992010011415004+46433+006100FM-12+167599999V0200801N008219999999N9999999N1-00211-00241999999ADDAA101000591MA1999999081631MD1410001+9999ME1313489OA149901131REMSYN082AAXX  14154 06702 23/// /0816 11021 21024 38163 48348 53000 333 69965 91122 91218;EQDQ01+000032APCTEN
0154067020999992010011416004+46433+006100FM-12+167599999V0201001N007719999999N9999999N1-00191-00301999999ADDAA101000021MA1999999081681MD1310081+9999ME1313539OA149901131REMSYN082AAXX  14164 06702 23/// /1015 11019 21030 38168 48353 53008 333 69925 91122 91219;
0137067020999992010011417004+46433+006100FM-12+167599999V0201001N006219999999N9999999N1-00071-00291999999ADDMA1999999081751MD1310151+9999ME1313589OA149901131REMSYN076AAXX  14174 06702 33/// /1012 11007 21029 38175 48358 53015 333 91122 91219;
0179067020999992010011418004+46433+006100FM-12+167599999V0201201N003619999999N9999999N1-00071-00201999999ADDAA112002091KA1120M-00031MA1999999081841MD1310211+9999ME1313679OA149901341REMSYN094AAXX  14184 06702 03/// /1207 11007 21020 38184 48367 53021 60022 333 11003 60005 91126 91222;
0137067020999992010011419004+46433+006100FM-12+167599999V0201501N001519999999N9999999N1-00051-00141999999ADDMA1999999081941MD1310261+9999ME1313779OA149900771REMSYN076AAXX  14194 06702 33/// /1503 11005 21014 38194 48377 53026 333 91115 91211;
0137067020999992010011420004+46433+006100FM-12+167599999V0203201N001519999999N9999999N1-00141-00151999999ADDMA1999999082011MD1110261+9999ME1313859OA149900411REMSYN076AAXX  14204 06702 33/// /3203 11014 21015 38201 48385 51026 333 91108 91207;
0137067020999992010011421004+46433+006100FM-12+167599999V0203001N004619999999N9999999N1-00161-00291999999ADDMA1999999082101MD1210261+9999ME1313949OA149901131REMSYN076AAXX  14214 06702 33/// /3009 11016 21029 38210 48394 52026 333 91122 91219;
0137067020999992010011422004+46433+006100FM-12+167599999V0203101N008219999999N9999999N1-00251-00441999999ADDMA1999999082161MD1210221+9999ME1314009OA149900931REMSYN076AAXX  14224 06702 33/// /3116 11025 21044 38216 48400 52022 333 91118 91216;
0137067020999992010011423004+46433+006100FM-12+167599999V0203101N008219999999N9999999N1-00261-00521999999ADDMA1999999082231MD1110221+9999ME1314079OA149900931REMSYN076AAXX  14234 06702 33/// /3116 11026 21052 38223 48407 51022 333 91118 91217;
0137067020999992010011500004+46433+006100FM-12+167599999V0203101N008219999999N9999999N1-00331-00421999999ADDMA1999999082301MD1110201+9999ME1314159OA149901131REMSYN076AAXX  15004 06702 33/// /3116 11033 21042 38230 48415 51020 333 91122 91219;
0137067020999992010011501004+46433+006100FM-12+167599999V0203101N008219999999N9999999N1-00311-00351999999ADDMA1999999082331MD1110171+9999ME1314189OA149901031REMSYN076AAXX  15014 06702 33/// /3116 11031 21035 38233 48418 51017 333 91120 91217;
0137067020999992010011502004+46433+006100FM-12+167599999V0203201N008219999999N9999999N1-00271-00281999999ADDMA1999999082401MD1310171+9999ME1314249OA149901031REMSYN076AAXX  15024 06702 33/// /3216 11027 21028 38240 48424 53017 333 91120 91217;
0096067020999992010011503004+46433+006100FM-12+167599999V0203101N008219999999N9999999N1-00281-00281999999ADDMA1999999082461ME1314309REMSYN060AAXX  15034 06702 33/// /3116 11028 21028 38246 48430 5////;
0137067020999992010011504004+46433+006100FM-12+167599999V0203201N008719999999N9999999N1-00301-00301999999ADDMA1999999082521MD1110191+9999ME1314369OA149901031REMSYN076AAXX  15044 06702 33/// /3217 11030 21030 38252 48436 51019 333 91120 91217;
0137067020999992010011505004+46433+006100FM-12+167599999V0203201N008219999999N9999999N1-00321-00321999999ADDMA1999999082611MD1310211+9999ME1314459OA149901031REMSYN076AAXX  15054 06702 33/// /3216 11032 21032 38261 48445 53021 333 91120 91217;
0197067020999992010011506004+46433+006100FM-12+167599999V0203201N007719999999N9999999N1-00321-00341999999ADDAA124001891AL14800191GJ100009KA1999N-00361MA1999999082671MD1110211+9999ME1314509OA149901031REMSYN094AAXX  15064 06702 33/// /3215 11032 21034 38267 48450 51021 333 21036 55000 70019 91120 91217;
0137067020999992010011507004+46433+006100FM-12+167599999V0203301N006219999999N9999999N1-00341-00681999999ADDMA1999999082781MD1310261+9999ME1314619OA149900981REMSYN076AAXX  15074 06702 33/// /3312 11034 21068 38278 48461 53026 333 91119 91217;
0137067020999992010011508004+46433+006100FM-12+167599999V0203601N006219999999N9999999N1-00251-00871999999ADDMA1999999082871MD1219999+9999ME1314699OA149900981REMSYN076AAXX  15084 06702 33/// /3612 11025 21087 38287 48469 52/// 333 91119 91216;
0137067020999992010011509004+46433+006100FM-12+167599999V0200401N005719999999N9999999N1-00131-00991999999ADDMA1999999082941MD1110271+9999ME1314759OA149901031REMSYN076AAXX  15094 06702 33/// /0411 11013 21099 38294 48475 51027 333 91120 91217;
0137067020999992010011510004+46433+006100FM-12+167599999V0200401N006219999999N9999999N1-00131-00911999999ADDMA1999999083001MD1110221+9999ME1314819OA149901081REMSYN076AAXX  15104 06702 33/// /0412 11013 21091 38300 48481 51022 333 91121 91215;
0137067020999992010011511004+46433+006100FM-12+167599999V0200301N006719999999N9999999N1-00091-00691999999ADDMA1999999083031MD1110161+9999ME1314839OA149901081REMSYN076AAXX  15114 06702 33/// /0313 11009 21069 38303 48483 51016 333 91121 91215;
0137067020999992010011512004+46433+006100FM-12+167599999V0209999C007219999999N9999999N1-00181-00461999999ADDMA1999999083071MD1110131+9999ME1314889OA149901081REMSYN076AAXX  15124 06702 33/// /0014 11018 21046 38307 48488 51013 333 91121 91217;
0137067020999992010011513004+46433+006100FM-12+167599999V0203501N006719999999N9999999N1-00251-00401999999ADDMA1999999083091MD1210091+9999ME1314909OA149901031REMSYN076AAXX  15134 06702 33/// /3513 11025 21040 38309 48490 52009 333 91120 91215;
0137067020999992010011514004+46433+006100FM-12+167599999V0200201N007219999999N9999999N1-00181-00431999999ADDMA1999999083141MD1210111+9999ME1314959OA149901241REMSYN076AAXX  15144 06702 33/// /0214 11018 21043 38314 48495 52011 333 91124 91216;
0137067020999992010011515004+46433+006100FM-12+167599999V0200401N007719999999N9999999N1-00161-00531999999ADDMA1999999083171MD1210101+9999ME1314979OA149901241REMSYN076AAXX  15154 06702 33/// /0415 11016 21053 38317 48497 52010 333 91124 91216;
0137067020999992010011516004+46433+006100FM-12+167599999V0200501N008719999999N9999999N1-00201-00511999999ADDMA1999999083211MD1210121+9999ME1315029OA149901181REMSYN076AAXX  15164 06702 33/// /0517 11020 21051 38321 48502 52012 333 91123 91217;
0137067020999992010011517004+46433+006100FM-12+167599999V0200601N008219999999N9999999N1-00221-00581999999ADDMA1999999083241MD1210101+9999ME1315059OA149901241REMSYN076AAXX  15174 06702 33/// /0616 11022 21058 38324 48505 52010 333 91124 91218;
0156067020999992010011518004+46433+006100FM-12+167599999V0200701N011819999999N9999999N1-00291-00621999999ADDKA1120M-00061MA1999999083211MD1010041+9999ME1315029OA149901291REMSYN082AAXX  15184 06702 33/// /0723 11029 21062 38321 48502 50004 333 11006 91125 91223;
0156067020999992010011519004+46433+006100FM-12+167599999V0200801N012919999999N9999999N1-00311-00701999999ADDMA1999999083211MD1410001+9999ME1315029OA149901391REMSYN076AAXX  15194 06702 33/// /0825 11031 21070 38321 48502 58000 333 91127 91225;EQDQ01+000082APCTEN
0137067020999992010011520004+46433+006100FM-12+167599999V0200801N011819999999N9999999N1-00351-00651999999ADDMA1999999083221MD1510021+9999ME1315039OA149901391REMSYN076AAXX  15204 06702 33/// /0823 11035 21065 38322 48503 55002 333 91127 91225;
0137067020999992010011521004+46433+006100FM-12+167599999V0200801N009819999999N9999999N1-00361-00681999999ADDMA1999999083241MD1210031+9999ME1315059OA149901391REMSYN076AAXX  15214 06702 33/// /0819 11036 21068 38324 48505 52003 333 91127 91225;
0137067020999992010011522004+46433+006100FM-12+167599999V0200801N007219999999N9999999N1-00261-00911999999ADDMA1999999083281MD1210071+9999ME1315099OA149901291REMSYN076AAXX  15224 06702 33/// /0814 11026 21091 38328 48509 52007 333 91125 91222;
0137067020999992010011523004+46433+006100FM-12+167599999V0200901N007219999999N9999999N1-00231-00971999999ADDMA1999999083271MD1210051+9999ME1315079OA149900981REMSYN076AAXX  15234 06702 33/// /0914 11023 21097 38327 48507 52005 333 91119 91217;
0137067020999992010011600004+46433+006100FM-12+167599999V0200901N006219999999N9999999N1-00211-00991999999ADDMA1999999083271MD1010031+9999ME1315079OA149901391REMSYN076AAXX  16004 06702 33/// /0912 11021 21099 38327 48507 50003 333 91127 91225;
0137067020999992010011601004+46433+006100FM-12+167599999V0200901N009319999999N9999999N1-00161-01101999999ADDMA1999999083211MD1710071+9999ME1315019OA149900981REMSYN076AAXX  16014 06702 33/// /0918 11016 21110 38321 48501 57007 333 91119 91218;
0137067020999992010011602004+46433+006100FM-12+167599999V0201001N006719999999N9999999N1-00191-01151999999ADDMA1999999083221MD1710051+9999ME1315029OA149901031REMSYN076AAXX  16024 06702 33/// /1013 11019 21115 38322 48502 57005 333 91120 91218;
0137067020999992010011603004+46433+006100FM-12+167599999V0201001N003119999999N9999999N1+00081-01851999999ADDMA1999999083231MD1719999+9999ME1315029OA149901031REMSYN076AAXX  16034 06702 33/// /1006 10008 21185 38323 48502 57/// 333 91120 91218;
0137067020999992010011604004+46433+006100FM-12+167599999V0201401N005719999999N9999999N1+00061-02181999999ADDMA1999999083171MD1810041+9999ME1314969OA149900721REMSYN076AAXX  16044 06702 33/// /1411 10006 21218 38317 48496 58004 333 91114 91213;
0137067020999992010011605004+46433+006100FM-12+167599999V0201501N008719999999N9999999N1+00081-01751999999ADDMA1999999083101MD1710121+9999ME1314899OA149900931REMSYN076AAXX  16054 06702 33/// /1517 10008 21175 38310 48489 57012 333 91118 91217;
0216067020999992010011606004+46433+006100FM-12+167599999V0201801N011319999999N9999999N1+00101-01221999999ADDAA124000091AL19900091GJ103849KA1999N-00361MA1999999083121MD1710111+9999ME1314919OA149901391REMSYN094AAXX  16064 06702 33/// /1822 10010 21122 38312 48491 57011 333 21036 55064 70000 91127 91225;EQDQ01  00002PRCP24
0137067020999992010011607004+46433+006100FM-12+167599999V0201801N011319999999N9999999N1+00061-01121999999ADDMA1999999083081MD1710091+9999ME1314879OA149901291REMSYN076AAXX  16074 06702 33/// /1822 10006 21112 38308 48487 57009 333 91125 91223;
0137067020999992010011608004+46433+006100FM-12+167599999V0201901N011819999999N9999999N1+00051-00991999999ADDMA1999999083071MD1710031+9999ME1314869OA149901441REMSYN076AAXX  16084 06702 33/// /1923 10005 21099 38307 48486 57003 333 91128 91224;
0137067020999992010011609004+46433+006100FM-12+167599999V0201901N012319999999N9999999N1+00131-00921999999ADDMA1999999083021MD1710101+9999ME1314819OA149901441REMSYN076AAXX  16094 06702 33/// /1924 10013 21092 38302 48481 57010 333 91128 91225;
0137067020999992010011610004+46433+006100FM-12+167599999V0201901N012319999999N9999999N1+00191-01041999999ADDMA1999999083051MD1510031+9999ME1314839OA149901441REMSYN076AAXX  16104 06702 33/// /1924 10019 21104 38305 48483 55003 333 91128 91225;
0137067020999992010011611004+46433+006100FM-12+167599999V0202101N012319999999N9999999N1+00121-00881999999ADDMA1999999083051MD1010021+9999ME1314849OA149901651REMSYN076AAXX  16114 06702 33/// /2124 10012 21088 38305 48484 50002 333 91132 91225;
0137067020999992010011612004+46433+006100FM-12+167599999V0202101N013419999999N9999999N1+00101-00691999999ADDMA1999999082991MD1810031+9999ME1314789OA149901701REMSYN076AAXX  16124 06702 33/// /2126 10010 21069 38299 48478 58003 333 91133 91226;
0137067020999992010011613004+46433+006100FM-12+167599999V0202101N015419999999N9999999N1+00031-00551999999ADDMA1999999082931MD1710121+9999ME1314739OA149902161REMSYN076AAXX  16134 06702 33/// /2130 10003 21055 38293 48473 57012 333 91142 91231;
0137067020999992010011614004+46433+006100FM-12+167599999V0202101N013919999999N9999999N1+00091-00651999999ADDMA1999999082881MD1719999+9999ME1314689OA149902261REMSYN076AAXX  16144 06702 33/// /2127 10009 21065 38288 48468 57/// 333 91144 91234;
0137067020999992010011615004+46433+006100FM-12+167599999V0202201N012919999999N9999999N1+00041-00691999999ADDMA1999999082861MD1710131+9999ME1314669OA149902261REMSYN076AAXX  16154 06702 33/// /2225 10004 21069 38286 48466 57013 333 91144 91234;
0154067020999992010011616004+46433+006100FM-12+167599999V0202601N013419999999N9999999N1-00181-00301999999ADDAA101000021MA1999999082841MD1710091+9999ME1314669OA149902061REMSYN082AAXX  16164 06702 23/// /2626 11018 21030 38284 48466 57009 333 69915 91140 91230;
0173067020999992010011617004+46433+006100FM-12+167599999V0202301N011819999999N9999999N1-00121-00191999999ADDAA101000021MA1999999082881MD1410001+9999ME1314699OA149902061REMSYN082AAXX  16174 06702 23/// /2323 11012 21019 38288 48469 52000 333 69925 91140 91230;EQDQ01+000022APCTEN
0179067020999992010011618004+46433+006100FM-12+167599999V0202201N013919999999N9999999N1-00091-00121999999ADDAA112002091KA1120M+00201MA1999999082871MD1010011+9999ME1314689OA149902261REMSYN094AAXX  16184 06702 03/// /2227 11009 21012 38287 48468 50001 60022 333 10020 60015 91144 91234;
0154067020999992010011619004+46433+006100FM-12+167599999V0202101N017019999999N9999999N1-00121-00161999999ADDAA101002091MA1999999082881MD1210041+9999ME1314699OA149902321REMSYN082AAXX  16194 06702 23/// /2133 11012 21016 38288 48469 52004 333 60025 91145 91233;
0154067020999992010011620004+46433+006100FM-12+167599999V0202001N018019999999N9999999N1-00161-00161999999ADDAA101001091MA1999999082851MD1810031+9999ME1314679OA149902471REMSYN082AAXX  16204 06702 23/// /2035 11016 21016 38285 48467 58003 333 69995 91148 91236;
0154067020999992010011621004+46433+006100FM-12+167599999V0202201N015919999999N9999999N1-00161-00161999999ADDAA101001091MA1999999082811MD1710061+9999ME1314639OA149902521REMSYN082AAXX  16214 06702 23/// /2231 11016 21016 38281 48463 57006 333 60015 91149 91236;
0154067020999992010011622004+46433+006100FM-12+167599999V0202301N011319999999N9999999N1-00181-00191999999ADDAA101002091MA1999999082861MD1510021+9999ME1314689OA149902521REMSYN082AAXX  16224 06702 23/// /2322 11018 21019 38286 48468 55002 333 60025 91149 91236;
0154067020999992010011623004+46433+006100FM-12+167599999V0202601N012919999999N9999999N1-00301-00301999999ADDAA101003091MA1999999082851MD1410001+9999ME1314689OA149902111REMSYN082AAXX  16234 06702 23/// /2625 11030 21030 38285 48468 52000 333 60035 91141 91229;
0160067020999992010011700004+46433+006100FM-12+167599999V0202501N009819999999N9999999N1-00281-00311999999ADDAA106008991MA1999999082881MD1210071+9999ME1314709OA149902521REMSYN088AAXX  17004 06702 03/// /2519 11028 21031 38288 48470 52007 60091 333 69955 91149 91236;
0154067020999992010011701004+46433+006100FM-12+167599999V0202301N009819999999N9999999N1-00241-00261999999ADDAA101000021MA1999999082871MD1310011+9999ME1314699OA149901651REMSYN082AAXX  17014 06702 23/// /2319 11024 21026 38287 48469 53001 333 69925 91132 91223;
0154067020999992010011702004+46433+006100FM-12+167599999V0202501N012919999999N9999999N1-00231-00241999999ADDAA101001091MA1999999082851MD1719999+9999ME1314679OA149901801REMSYN082AAXX  17024 06702 23/// /2525 11023 21024 38285 48467 57/// 333 60015 91135 91225;
0096067020999992010011703004+46433+006100FM-12+167599999V0202601N013919999999N9999999N1-00201-00241999999ADDMA1999999082821ME1314649REMSYN060AAXX  17034 06702 43/// /2627 11020 21024 38282 48464 5////;
0154067020999992010011704004+46433+006100FM-12+167599999V0202801N015919999999N9999999N1-00111-00111999999ADDAA101000891MA1999999082801MD1710071+9999ME1314619OA149902061REMSYN082AAXX  17044 06702 23/// /2831 11011 21011 38280 48461 57007 333 69975 91140 91232;
0154067020999992010011705004+46433+006100FM-12+167599999V0202801N014419999999N9999999N1-00141-00141999999ADDAA101001091MA1999999082801MD1519999+9999ME1314629OA149902061REMSYN082AAXX  17054 06702 23/// /2828 11014 21014 38280 48462 55/// 333 60015 91140 91232;
0220067020999992010011706004+46433+006100FM-12+167599999V0202801N014419999999N9999999N1-00121-00121999999ADDAA112016091AA224016391AL11801691GJ100789KA1999N-00321MA1999999082831MD1010011+9999ME1314649OA149902521REMSYN106AAXX  17064 06702 03/// /2828 11012 21012 38283 48464 50001 60162 333 21032 55013 60025 70163 91149 91236;
0154067020999992010011707004+46433+006100FM-12+167599999V0202901N013919999999N9999999N1-00151-00151999999ADDAA101001091MA1999999082891MD1310091+9999ME1314709OA149902061REMSYN082AAXX  17074 06702 23/// /2927 11015 21015 38289 48470 53009 333 60015 91140 91230;
0154067020999992010011708004+46433+006100FM-12+167599999V0203001N013919999999N9999999N1-00181-00181999999ADDAA101001091MA1999999082951MD1219999+9999ME1314769OA149902061REMSYN082AAXX  17084 06702 23/// /3027 11018 21018 38295 48476 52/// 333 60015 91140 91230;
0154067020999992010011709004+46433+006100FM-12+167599999V0203001N011819999999N9999999N1-00291-00301999999ADDAA101000021MA1999999083081MD1210251+9999ME1314909OA149902061REMSYN082AAXX  17094 06702 23/// /3023 11029 21030 38308 48490 52025 333 69915 91140 91232;
0137067020999992010011710004+46433+006100FM-12+167599999V0203001N008719999999N9999999N1-00381-00401999999ADDMA1999999083191MD1210301+9999ME1315019OA149902011REMSYN076AAXX  17104 06702 33/// /3017 11038 21040 38319 48501 52030 333 91139 91227;
0154067020999992010011711004+46433+006100FM-12+167599999V0202901N011819999999N9999999N1-00321-00351999999ADDAA101000021MA1999999083221MD1210271+9999ME1315039OA149901601REMSYN082AAXX  17114 06702 23/// /2923 11032 21035 38322 48503 52027 333 69925 91131 91223;
0160067020999992010011712004+46433+006100FM-12+167599999V0203001N008719999999N9999999N1-00341-00401999999ADDAA106003091MA1999999083271MD1210191+9999ME1315089OA149902061REMSYN088AAXX  17124 06702 03/// /3017 11034 21040 38327 48508 52019 60031 333 60005 91140 91232;
0154067020999992010011713004+46433+006100FM-12+167599999V0203001N007219999999N9999999N1-00291-00331999999ADDAA101000021MA1999999083291MD1210101+9999ME1315109OA149901541REMSYN082AAXX  17134 06702 23/// /3014 11029 21033 38329 48510 52010 333 69915 91130 91224;
0154067020999992010011714004+46433+006100FM-12+167599999V0203001N007219999999N9999999N1-00331-00331999999ADDAA101000591MA1999999083311MD1219999+9999ME1315129OA149901181REMSYN082AAXX  17144 06702 23/// /3014 11033 21033 38331 48512 52/// 333 69945 91123 91217;
0137067020999992010011715004+46433+006100FM-12+167599999V0203001N008219999999N9999999N1-00411-00451999999ADDMA1999999083351MD1210081+9999ME1315169OA149901601REMSYN076AAXX  17154 06702 33/// /3016 11041 21045 38335 48516 52008 333 91131 91224;
0137067020999992010011716004+46433+006100FM-12+167599999V0203101N007219999999N9999999N1-00421-00441999999ADDMA1999999083411MD1210121+9999ME1315229OA149901081REMSYN076AAXX  17164 06702 33/// /3114 11042 21044 38341 48522 52012 333 91121 91216;
0137067020999992010011717004+46433+006100FM-12+167599999V0203101N006719999999N9999999N1-00411-00421999999ADDMA1999999083441MD1210131+9999ME1315259OA149900981REMSYN076AAXX  17174 06702 33/// /3113 11041 21042 38344 48525 52013 333 91119 91215;
0179067020999992010011718004+46433+006100FM-12+167599999V0203001N007219999999N9999999N1-00381-00391999999ADDAA112003091KA1120M-00111MA1999999083471MD1110121+9999ME1315279OA149902061REMSYN094AAXX  17184 06702 03/// /3014 11038 21039 38347 48527 51012 60032 333 11011 60005 91140 91230;
