0128067120999992010010100004+46333+006917FM-12+038399999V0201501N001519999999N9999999N1+00521+00241099251ADDMA1999999094741MD1810111+9999OA149900881REMSYN076AAXX  01004 06712 33/// /1503 10052 20024 39474 49925 58011 333 91117 91211;
0128067120999992010010101004+46333+006917FM-12+038399999V0201701N001019999999N9999999N1+00491+00241099211ADDMA1999999094691MD1710151+9999OA149900461REMSYN076AAXX  01014 06712 33/// /1702 10049 20024 39469 49921 57015 333 91109 91206;
0128067120999992010010102004+46333+006917FM-12+038399999V0201601N003119999999N9999999N1+00521+00221099151ADDMA1999999094641MD1719999+9999OA149900511REMSYN076AAXX  01024 06712 33/// /1606 10052 20022 39464 49915 57/// 333 91110 91206;
0139067120999992010010103004+46333+006917FM-12+038399999V0201401N002610270019N0200001N1+00511+00211099101ADDGA1071+027001031GF107991999999999999999999MA1999999094591REMSYN070AAXX  01034 06712 42970 71405 10051 20021 39459 49910 5//// 333 87359;
0087067120999992010010104004+46333+006917FM-12+038399999V0201401N002619999999N9999999N1+00511+00211099031ADDMA1999999094531REMSYN060AAXX  01044 06712 33/// /1405 10051 20021 39453 49903 5////;
0128067120999992010010105004+46333+006917FM-12+038399999V0201101N001019999999N9999999N1+00481+00181099021ADDMA1999999094511MD1610131+9999OA149900721REMSYN076AAXX  01054 06712 33/// /1102 10048 20018 39451 49902 56013 333 91114 91208;
0282067120999992010010106004+46333+006917FM-12+038399999V0209999C000010270019N0250001N1+00351+00201099071ADDAA124001591AL13600191AL29900091GA1081+027001031GF108991999999999999999999GJ100369IA1099IA2999+00009KA1999N+00381MA1999999094541MD1510051+9999OA149900721REMSYN118AAXX  01064 06712 32975 80000 10035 20020 39454 49907 55005 333 20038 31100 55006 70016 88359 90768 93100 91114 91208;
0128067120999992010010107004+46333+006917FM-12+038399999V0201501N002119999999N9999999N1+00451+00181099051ADDMA1999999094541MD1210011+9999OA149900361REMSYN076AAXX  01074 06712 33/// /1504 10045 20018 39454 49905 52001 333 91107 91204;
0128067120999992010010108004+46333+006917FM-12+038399999V0202101N001019999999N9999999N1+00371+00171099121ADDMA1999999094591MD1210081+9999OA149900361REMSYN076AAXX  01084 06712 33/// /2102 10037 20017 39459 49912 52008 333 91107 91204;
0204067120999992010010109004+46333+006917FM-12+038399999V0201701N000510270019N0400001N1+00451+00161099171ADDAY121031AY221031GA1081+027001041GF108991999999999999999999MA1999999094651MD1210111+9999MW1151OA149900721REMSYN088AAXX  01094 06712 31982 81701 10045 20016 39465 49917 52011 71522 333 88459 91114 91208;
0128067120999992010010110004+46333+006917FM-12+038399999V0203101N000519999999N9999999N1+00551+00241099221ADDMA1999999094711MD1110171+9999OA149900211REMSYN076AAXX  01104 06712 33/// /3101 10055 20024 39471 49922 51017 333 91104 91201;
0128067120999992010010111004+46333+006917FM-12+038399999V0209999C000019999999N9999999N1+00631+00201099221ADDMA1999999094731MD1110141+9999OA149900211REMSYN076AAXX  01114 06712 33/// /0000 10063 20020 39473 49922 51014 333 91104 91202;
0198067120999992010010112004+46333+006917FM-12+038399999V0201701N001510300019N0400001N1+00691+00311099211ADDGA1011+010201071GA2061+030001041GF108991999999012501999999MA1999999094731MD1210081+9999OA149900721REMSYN088AAXX  01124 06712 32682 81703 10069 20031 39473 49921 52008 333 81734 86460 91114 91208;
0128067120999992010010113004+46333+006917FM-12+038399999V0201901N000519999999N9999999N1+00691+00261099291ADDMA1999999094801MD1210091+9999OA149900211REMSYN076AAXX  01134 06712 33/// /1901 10069 20026 39480 49929 52009 333 91104 91203;
0145067120999992010010114004+46333+006917FM-12+038399999V0203401N001519999999N9999999N1+00631+00411099391ADDAA101000021MA1999999094891MD1219999+9999OA149900261REMSYN082AAXX  01144 06712 23/// /3403 10063 20041 39489 49939 52/// 333 69915 91105 91203;
0221067120999992010010115004+46333+006917FM-12+038399999V0202901N001510081019N0170001N1+00621+00481099561ADDAA101002091AY161031AY221031GA1081+008101071GF108991999999008001999999MA1999999095051MD1310321+9999MW1631OA149900311REMSYN094AAXX  01154 06712 21567 82903 10062 20048 39505 49956 53032 76362 333 60025 88727 91106 91204;
0145067120999992010010116004+46333+006917FM-12+038399999V0203501N008219999999N9999999N1+00481+00241099761ADDAA101002091MA1999999095221MD1310421+9999OA149901341REMSYN082AAXX  01164 06712 23/// /3516 10048 20024 39522 49976 53042 333 60025 91126 91216;
0145067120999992010010117004+46333+006917FM-12+038399999V0203501N005719999999N9999999N1+00441+00181100001ADDAA101001091MA1999999095441MD1310551+9999OA149901391REMSYN082AAXX  01174 06712 23/// /3511 10044 20018 39544 40000 53055 333 60015 91127 91219;
0280067120999992010010118004+46333+006917FM-12+038399999V0203101N002610141019N0190001N1+00401+00211100181ADDAA112006191AL19900091AY161061AY221061GA1081+014101071GF108991999999012501999999IA1119KA1120M+00711MA1999999095611MD1210561+9999MW1631OA149901391REMSYN124AAXX  01184 06712 01669 83105 10040 20021 39561 40018 52056 60062 76362 333 10071 32/// 69945 88747 90766 93100 91127 91219;
0145067120999992010010119004+46333+006917FM-12+038399999V0203101N002619999999N9999999N1+00431+00191100321ADDAA101001091MA1999999095741MD1110521+9999OA149900721REMSYN082AAXX  01194 06712 23/// /3105 10043 20019 39574 40032 51052 333 69995 91114 91209;
0128067120999992010010120004+46333+006917FM-12+038399999V0209999C007719999999N9999999N1+00451-00041100421ADDMA1999999095841MD1110401+9999OA149901341REMSYN076AAXX  01204 06712 33/// /0015 10045 21004 39584 40042 51040 333 91126 91215;
0128067120999992010010121004+46333+006917FM-12+038399999V0203501N007219999999N9999999N1+00391-00051100541ADDMA1999999095951MD1210341+9999OA149901391REMSYN076AAXX  01214 06712 33/// /3514 10039 21005 39595 40054 52034 333 91127 91219;
0128067120999992010010122004+46333+006917FM-12+038399999V0203501N006219999999N9999999N1+00371-00131100651ADDMA1999999096051MD1210311+9999OA149901341REMSYN076AAXX  01224 06712 33/// /3512 10037 21013 39605 40065 52031 333 91126 91216;
0128067120999992010010123004+46333+006917FM-12+038399999V0203601N008719999999N9999999N1+00281-00181100741ADDMA1999999096121MD1210281+9999OA149901341REMSYN076AAXX  01234 06712 33/// /3617 10028 21018 39612 40074 52028 333 91126 91217;
0151067120999992010010200004+46333+006917FM-12+038399999V0203501N006719999999N9999999N1+00181-00151100841ADDAA106001091MA1999999096201MD1210251+9999OA149901391REMSYN088AAXX  02004 06712 03/// /3513 10018 21015 39620 40084 52025 69991 333 60005 91127 91219;
0145067120999992010010201004+46333+006917FM-12+038399999V0209999C007719999999N9999999N1+00151-00171100961ADDAA101000021MA1999999096311MD1310261+9999OA149901391REMSYN082AAXX  02014 06712 23/// /0015 10015 21017 39631 40096 53026 333 69915 91127 91218;
0087067120999992010010202004+46333+006917FM-12+038399999V0203501N007219999999N9999999N1+00111-00281101111ADDMA1999999096441REMSYN060AAXX  02024 06712 33/// /3514 10011 21028 39644 40111 5////;
0204067120999992010010203004+46333+006917FM-12+038399999V0209999C008710120019N0120001N1+00161-00471101201ADDAY171031AY221031GA1081+012001071GF108991999999012501999999MA1999999096541MD1210341+9999MW1261OA149901701REMSYN088AAXX  02034 06712 31662 80017 10016 21047 39654 40120 52034 72672 333 88740 91133 91218;
0128067120999992010010204004+46333+006917FM-12+038399999V0203501N007219999999N9999999N1+00111-00491101331ADDMA1999999096651MD1110341+9999OA149901491REMSYN076AAXX  02044 06712 33/// /3514 10011 21049 39665 40133 51034 333 91129 91218;
0128067120999992010010205004+46333+006917FM-12+038399999V0203501N006719999999N9999999N1-00031-00321101411ADDMA1999999096711MD1110271+9999OA149901491REMSYN076AAXX  02054 06712 33/// /3513 11003 21032 39671 40141 51027 333 91129 91218;
0355067120999992010010206004+46333+006917FM-12+038399999V0203301N006210111019N0010001N1-00031-00521101481ADDAA112001091AA224006991AL14800691AL29900091AY171061AY221061GA1041+002101071GA2071+011101061GF108991999999002501999999GJ100069IA1119IA2999-00109KA1999N-00051MA1999999096771MD1110231+9999MW1761OA149901701REMSYN142AAXX  02064 06712 01310 83312 11003 21052 39677 40148 51023 60012 77672 333 21005 32101 55001 60005 70068 84707 87637 90768 93100 91133 91218;
0128067120999992010010207004+46333+006917FM-12+038399999V0203401N004619999999N9999999N1+00011-00631101571ADDMA1999999096871MD1310221+9999OA149901131REMSYN076AAXX  02074 06712 33/// /3409 10001 21063 39687 40157 53022 333 91122 91214;
0087067120999992010010208004+46333+006917FM-12+038399999V0203501N004619999999N9999999N1+00001-00591101611ADDMA1999999096901REMSYN060AAXX  02084 06712 33/// /3509 10000 21059 39690 40161 5////;
0221067120999992010010209004+46333+006917FM-12+038399999V0203501N005110111019N0010001N1-00111-00321101801ADDAA101000021AY171031AY221031GA1081+011101051GF108991999999012501999999MA1999999097061MD1310291+9999MW1731OA149901491REMSYN094AAXX  02094 06712 21610 83510 11011 21032 39706 40180 53029 77372 333 69915 88537 91129 91218;
0128067120999992010010210004+46333+006917FM-12+038399999V0203501N005719999999N9999999N1-00131-00371101911ADDMA1999999097171MD1310301+9999OA149901241REMSYN076AAXX  02104 06712 33/// /3511 11013 21037 39717 40191 53030 333 91124 91213;
0128067120999992010010211004+46333+006917FM-12+038399999V0203601N004619999999N9999999N1-00041-00711101941ADDMA1999999097211MD1110311+9999OA149901031REMSYN076AAXX  02114 06712 33/// /3609 11004 21071 39721 40194 51031 333 91120 91213;
0227067120999992010010212004+46333+006917FM-12+038399999V0203501N004610090019N0600001N1+00051-00801101991ADDAA106000021AY171061AY221061GA1051+009001061GF105991999999008001999999MA1999999097271MD1110211+9999MW1011OA149901701REMSYN100AAXX  02124 06712 01586 53509 10005 21080 39727 40199 51021 69911 70172 333 60005 85630 91133 91218;
0128067120999992010010213004+46333+006917FM-12+038399999V0203601N003619999999N9999999N1+00101-00741102031ADDMA1999999097321MD1110151+9999OA149900881REMSYN076AAXX  02134 06712 33/// /3607 10010 21074 39732 40203 51015 333 91117 91211;
0128067120999992010010214004+46333+006917FM-12+038399999V0203301N003619999999N9999999N1+00091-00831102121ADDMA1999999097401MD1319999+9999OA149900771REMSYN076AAXX  02144 06712 33/// /3307 10009 21083 39740 40212 53/// 333 91115 91209;
0176067120999992010010215004+46333+006917FM-12+038399999V0202901N002112200019N0400001N1-00091-00841102221ADDGA1031+014101061GF103991999999012501999999MA1999999097471MD1310201+9999OA149901031REMSYN082AAXX  02154 06712 32682 32904 11009 21084 39747 40222 53020 333 83647 91120 91213;
0128067120999992010010216004+46333+006917FM-12+038399999V0202601N000519999999N9999999N1-00201-00911102331ADDMA1999999097551MD1210231+9999OA149900511REMSYN076AAXX  02164 06712 33/// /2601 11020 21091 39755 40233 52023 333 91110 91206;
0128067120999992010010217004+46333+006917FM-12+038399999V0202201N003119999999N9999999N1-00201-00791102401ADDMA1999999097621MD1110221+9999OA149900461REMSYN076AAXX  02174 06712 33/// /2206 11020 21079 39762 40240 51022 333 91109 91206;
0246067120999992010010218004+46333+006917FM-12+038399999V0201601N002112200019N0300001N1-00261-00811102461ADDAA112000021AL19900091GA1001+999999999GF100991001001999999001001IA1149KA1120M+00101MA1999999097671MD1210201+9999OA149901241REMSYN112AAXX  02184 06712 02/80 01604 11026 21081 39767 40246 52020 69912 333 10010 34/// 60005 90766 93100 91124 91213;
0128067120999992010010219004+46333+006917FM-12+038399999V0201801N002119999999N9999999N1-00251-00871102481ADDMA1999999097691MD1210141+9999OA149900671REMSYN076AAXX  02194 06712 33/// /1804 11025 21087 39769 40248 52014 333 91113 91207;
0128067120999992010010220004+46333+006917FM-12+038399999V0201501N003119999999N9999999N1-00291-00771102491ADDMA1999999097691MD1210071+9999OA149900671REMSYN076AAXX  02204 06712 33/// /1506 11029 21077 39769 40249 52007 333 91113 91207;
0128067120999992010010221004+46333+006917FM-12+038399999V0201501N002619999999N9999999N1-00321-00791102441ADDMA1999999097641MD1810031+9999OA149900671REMSYN076AAXX  02214 06712 33/// /1505 11032 21079 39764 40244 58003 333 91113 91207;
0128067120999992010010222004+46333+006917FM-12+038399999V0201901N002119999999N9999999N1-00381-00861102541ADDMA1999999097721MD1310031+9999OA149900461REMSYN076AAXX  02224 06712 33/// /1904 11038 21086 39772 40254 53003 333 91109 91207;
0128067120999992010010223004+46333+006917FM-12+038399999V0201801N001019999999N9999999N1-00381-00871102581ADDMA1999999097761MD1210071+9999OA149900461REMSYN076AAXX  02234 06712 33/// /1802 11038 21087 39776 40258 52007 333 91109 91207;
0128067120999992010010300004+46333+006917FM-12+038399999V0201701N002619999999N9999999N1-00451-00781102541ADDMA1999999097711MD1010071+9999OA149900771REMSYN076AAXX  03004 06712 33/// /1705 11045 21078 39771 40254 50007 333 91115 91209;
0128067120999992010010301004+46333+006917FM-12+038399999V0201901N002119999999N9999999N1-00411-00861102531ADDMA1999999097711MD1810011+9999OA149900361REMSYN076AAXX  03014 06712 33/// /1904 11041 21086 39771 40253 58001 333 91107 91206;
0087067120999992010010302004+46333+006917FM-12+038399999V0201801N002619999999N9999999N1-00481-00841102581ADDMA1999999097741REMSYN060AAXX  03024 06712 33/// /1805 11048 21084 39774 40258 5////;
0139067120999992010010303004+46333+006917FM-12+038399999V0201501N002112200019N0400001N1-00381-00971102501ADDGA1041+030001041GF104991999999999999999999MA1999999097681REMSYN070AAXX  03034 06712 32982 41504 11038 21097 39768 40250 5//// 333 84460;
0128067120999992010010304004+46333+006917FM-12+038399999V0201401N005119999999N9999999N1-00321-00971102481ADDMA1999999097681MD1810031+9999OA149900881REMSYN076AAXX  03044 06712 33/// /1410 11032 21097 39768 40248 58003 333 91117 91211;
0128067120999992010010305004+46333+006917FM-12+038399999V0201401N003619999999N9999999N1-00311-01041102411ADDMA1999999097611MD1719999+9999OA149900931REMSYN076AAXX  03054 06712 33/// /1407 11031 21104 39761 40241 57/// 333 91118 91211;
0272067120999992010010306004+46333+006917FM-12+038399999V0201601N005110660019N0400001N1-00291-01061102381ADDAA124000021AL19900091GA1061+066001021GF106991999999999999999999GJ101689IA1149IA2999-00909KA1999N-00501MA1999999097591MD1710091+9999OA149901031REMSYN118AAXX  03064 06712 32982 61610 11029 21106 39759 40238 57009 333 21050 34109 55028 70001 86272 90768 93100 91120 91211;
0128067120999992010010307004+46333+006917FM-12+038399999V0201401N007219999999N9999999N1-00281-01141102361ADDMA1999999097571MD1710111+9999OA149901241REMSYN076AAXX  03074 06712 33/// /1414 11028 21114 39757 40236 57011 333 91124 91214;
0128067120999992010010308004+46333+006917FM-12+038399999V0201301N005719999999N9999999N1-00251-01111102371ADDMA1999999097581MD1519999+9999OA149901241REMSYN076AAXX  03084 06712 33/// /1311 11025 21111 39758 40237 55/// 333 91124 91214;
0163067120999992010010309004+46333+006917FM-12+038399999V0201701N002119999999N9999999N1-00201-01171102371ADDMA1999999097591MD1710011+9999OA149901241REMSYN076AAXX  03094 06712 33/// /1704 11020 21117 39759 40237 52000 333 91124 91214;EQDQ01+000022APCTENQ02+000002APC3  
0128067120999992010010310004+46333+006917FM-12+038399999V0201901N004119999999N9999999N1-00171-01001102321ADDMA1999999097551MD1810021+9999OA149901241REMSYN076AAXX  03104 06712 33/// /1908 11017 21100 39755 40232 58002 333 91124 91213;
0128067120999992010010311004+46333+006917FM-12+038399999V0201301N005119999999N9999999N1-00061-00911102231ADDMA1999999097481MD1710101+9999OA149901181REMSYN076AAXX  03114 06712 33/// /1310 11006 21091 39748 40223 57010 333 91123 91213;
0128067120999992010010312004+46333+006917FM-12+038399999V0201101N003119999999N9999999N1-00041-01051102171ADDMA1999999097431MD1710161+9999OA149901241REMSYN076AAXX  03124 06712 33/// /1106 11004 21105 39743 40217 57016 333 91124 91214;
0128067120999992010010313004+46333+006917FM-12+038399999V0201301N002119999999N9999999N1-00011-01131102121ADDMA1999999097391MD1710161+9999OA149900931REMSYN076AAXX  03134 06712 33/// /1304 11001 21113 39739 40212 57016 333 91118 91210;
0128067120999992010010314004+46333+006917FM-12+038399999V0200501N001019999999N9999999N1-00011-01141102131ADDMA1999999097401MD1710081+9999OA149900671REMSYN076AAXX  03144 06712 33/// /0502 11001 21114 39740 40213 57008 333 91113 91208;
0195067120999992010010315004+46333+006917FM-12+038399999V0203201N000510330019N0200001N1-00031-01011102171ADDGA1081+033001041GF108991999999999999999999MA1999999097431MD1410001+9999OA149901181REMSYN082AAXX  03154 06712 32970 83201 11003 21101 39743 40217 52000 333 88461 91123 91213;EQDQ01+000022APCTEN
0147067120999992010010316004+46333+006917FM-12+038399999V0209999C000519999999N9999999N1-00061-00921102131ADDMA1999999097391MD1810011+9999OA149900211REMSYN076AAXX  03164 06712 33/// /0001 11006 21092 39739 40213 58000 333 91104 91203;EQDQ01+000002APC3  
0128067120999992010010317004+46333+006917FM-12+038399999V0201901N000519999999N9999999N1-00131-00751102091ADDMA1999999097341MD1710061+9999OA149900101REMSYN076AAXX  03174 06712 33/// /1901 11013 21075 39734 40209 57006 333 91102 91202;
0229067120999992010010318004+46333+006917FM-12+038399999V0201801N000510330019N0180001N1-00191-00561102111ADDAL19900091GA1081+033001041GF108991999999999999999999IA1149KA1120M+00011MA1999999097351MD1710081+9999OA149901241REMSYN106AAXX  03184 06712 32968 81801 11019 21056 39735 40211 57008 333 10001 34/// 88461 90766 93100 91124 91214;
0128067120999992010010319004+46333+006917FM-12+038399999V0201401N001519999999N9999999N1-00211-00801102061ADDMA1999999097291MD1710101+9999OA149900261REMSYN076AAXX  03194 06712 33/// /1403 11021 21080 39729 40206 57010 333 91105 91203;
0128067120999992010010320004+46333+006917FM-12+038399999V0201801N000519999999N9999999N1-00351-00681102031ADDMA1999999097241MD1710101+9999OA149900261REMSYN076AAXX  03204 06712 33/// /1801 11035 21068 39724 40203 57010 333 91105 91203;
0128067120999992010010321004+46333+006917FM-12+038399999V0200401N001019999999N9999999N1-00281-00681102021ADDMA1999999097241MD1710111+9999OA149900261REMSYN076AAXX  03214 06712 33/// /0402 11028 21068 39724 40202 57011 333 91105 91203;
0128067120999992010010322004+46333+006917FM-12+038399999V0200301N000519999999N9999999N1-00201-00691101991ADDMA1999999097231MD1710061+9999OA149900211REMSYN076AAXX  03224 06712 33/// /0301 11020 21069 39723 40199 57006 333 91104 91202;
0128067120999992010010323004+46333+006917FM-12+038399999V0209999C000019999999N9999999N1-00181-00591101921ADDMA1999999097171MD1710071+9999OA149900151REMSYN076AAXX  03234 06712 33/// /0000 11018 21059 39717 40192 57007 333 91103 91202;
0128067120999992010010400004+46333+006917FM-12+038399999V0201401N000519999999N9999999N1-00151-00421101821ADDMA1999999097081MD1810161+9999OA149900671REMSYN076AAXX  04004 06712 33/// /1401 11015 21042 39708 40182 58016 333 91113 91208;
0128067120999992010010401004+46333+006917FM-12+038399999V0203101N001019999999N9999999N1-00151-00631101751ADDMA1999999097011MD1810221+9999OA149900151REMSYN076AAXX  04014 06712 33/// /3102 11015 21063 39701 40175 58022 333 91103 91202;
0128067120999992010010402004+46333+006917FM-12+038399999V0203101N001019999999N9999999N1-00091-00721101721ADDMA1999999096991MD1710181+9999OA149900261REMSYN076AAXX  04024 06712 33/// /3102 11009 21072 39699 40172 57018 333 91105 91203;
0176067120999992010010403004+46333+006917FM-12+038399999V0209999C001010240019N0180001N1-00091-00631101671ADDGA1081+024001041GF108991999999022501999999MA1999999096941MD1719999+9999OA149900261REMSYN082AAXX  04034 06712 32868 80002 11009 21063 39694 40167 57/// 333 88458 91105 91203;
0128067120999992010010404004+46333+006917FM-12+038399999V0203101N000519999999N9999999N1-00071-00631101641ADDMA1999999096921MD1710091+9999OA149900211REMSYN076AAXX  04044 06712 33/// /3101 11007 21063 39692 40164 57009 333 91104 91203;
0128067120999992010010405004+46333+006917FM-12+038399999V0202601N000519999999N9999999N1-00151-00381101731ADDMA1999999096991MD1510001+9999OA149900511REMSYN076AAXX  04054 06712 33/// /2601 11015 21038 39699 40173 55000 333 91110 91205;
0356067120999992010010406004+46333+006917FM-12+038399999V0201401N003610021019N0015001N1-00161-00321101681ADDAA112000591AA224000591AJ100019199999999AL12400091AL29900191AY171061AY221061GA1081+002101051GF108991999999002501999999GJ100009IA1239IA2999-00909KA1999N-00351MA1999999096941MD1010001+9999MW1731OA149900511REMSYN142AAXX  04064 06712 01315 81407 11016 21032 39694 40168 50000 69962 77372 333 21035 3/109 47001 55000 69965 70004 88507 90768 93101 91110 91207;
0145067120999992010010407004+46333+006917FM-12+038399999V0201401N002619999999N9999999N1-00161-00331101651ADDAA101000591MA1999999096911MD1810011+9999OA149900411REMSYN082AAXX  04074 06712 23/// /1405 11016 21033 39691 40165 58001 333 69955 91108 91207;
0145067120999992010010408004+46333+006917FM-12+038399999V0202701N000519999999N9999999N1-00211-00331101641ADDAA101000391MA1999999096891MD1710101+9999OA149900411REMSYN082AAXX  04084 06712 23/// /2701 11021 21033 39689 40164 57010 333 69935 91108 91207;
0221067120999992010010409004+46333+006917FM-12+038399999V0203301N001010012019N0015001N1-00171-00291101621ADDAA101000391AY171031AY271031GA1081+001201051GF108991999999001501999999MA1999999096881MD1710061+9999MW1731OA149900511REMSYN094AAXX  04094 06712 21215 83302 11017 21029 39688 40162 57006 77377 333 69935 88504 91110 91207;
0145067120999992010010410004+46333+006917FM-12+038399999V0200301N000519999999N9999999N1-00081-00291101591ADDAA101000021MA1999999096871MD1710041+9999OA149900261REMSYN082AAXX  04104 06712 23/// /0301 11008 21029 39687 40159 57004 333 69915 91105 91203;
0128067120999992010010411004+46333+006917FM-12+038399999V0202701N000519999999N9999999N1-00071-00271101511ADDMA1999999096791MD1810101+9999OA149900311REMSYN076AAXX  04114 06712 33/// /2701 11007 21027 39679 40151 58010 333 91106 91203;
0227067120999992010010412004+46333+006917FM-12+038399999V0203401N001510012019N0015001N1-00061-00201101441ADDAA106001091AY171061AY271061GA1081+001201051GF108991999999001501999999MA1999999096731MD1810151+9999MW1731OA149900511REMSYN100AAXX  04124 06712 01215 83403 11006 21020 39673 40144 58015 60011 77377 333 69915 88504 91110 91207;
0128067120999992010010413004+46333+006917FM-12+038399999V0203201N001019999999N9999999N1-00041-00211101351ADDMA1999999096651MD1710221+9999OA149900211REMSYN076AAXX  04134 06712 33/// /3202 11004 21021 39665 40135 57022 333 91104 91203;
0128067120999992010010414004+46333+006917FM-12+038399999V0202801N001019999999N9999999N1-00021-00221101321ADDMA1999999096621MD1719999+9999OA149900261REMSYN076AAXX  04144 06712 33/// /2802 11002 21022 39662 40132 57/// 333 91105 91203;
0145067120999992010010415004+46333+006917FM-12+038399999V0202301N000519999999N9999999N1-00031-00201101321ADDAA101000021MA1999999096621MD1710111+9999OA149900311REMSYN082AAXX  04154 06712 23/// /2301 11003 21020 39662 40132 57011 333 69925 91106 91203;
0145067120999992010010416004+46333+006917FM-12+038399999V0209999C000019999999N9999999N1-00091-00171101311ADDAA101000391MA1999999096601MD1710051+9999OA149900151REMSYN082AAXX  04164 06712 23/// /0000 11009 21017 39660 40131 57005 333 69935 91103 91201;
0145067120999992010010417004+46333+006917FM-12+038399999V0209999C000019999999N9999999N1-00081-00181101291ADDAA101000021MA1999999096581MD1710041+9999OA149900051REMSYN082AAXX  04174 06712 23/// /0000 11008 21018 39658 40129 57004 333 69925 91101 91201;
0297067120999992010010418004+46333+006917FM-12+038399999V0203301N000510027019N0030001N1-00091-00161101281ADDAA112002091AJ100079199999999AL11200491AY171061AY271061GA1081+002701071GF108991999999002501999999IA1239KA1120M-00011MA1999999096571MD1710051+9999MW1701OA149900411REMSYN124AAXX  04184 06712 01330 83301 11009 21016 39657 40128 57005 60022 77077 333 11001 47007 69935 88709 90766 93104 91108 91207;
0145067120999992010010419004+46333+006917FM-12+038399999V0209999C000019999999N9999999N1-00051-00161101241ADDAA101000391MA1999999096541MD1710061+9999OA149900051REMSYN082AAXX  04194 06712 23/// /0000 11005 21016 39654 40124 57006 333 69935 91101 91201;
0145067120999992010010420004+46333+006917FM-12+038399999V0209999C000019999999N9999999N1-00061-00161101231ADDAA101000021MA1999999096531MD1710051+9999OA149900051REMSYN082AAXX  04204 06712 23/// /0000 11006 21016 39653 40123 57005 333 69925 91101 91201;
0145067120999992010010421004+46333+006917FM-12+038399999V0209999C000019999999N9999999N1-00111-00171101221ADDAA101000021MA1999999096511MD1710061+9999OA149900051REMSYN082AAXX  04214 06712 23/// /0000 11011 21017 39651 40122 57006 333 69915 91101 91201;
0145067120999992010010422004+46333+006917FM-12+038399999V0209999C000019999999N9999999N1-00111-00171101191ADDAA101000021MA1999999096481MD1710061+9999OA149900051REMSYN082AAXX  04224 06712 23/// /0000 11011 21017 39648 40119 57006 333 69915 91101 91201;
0145067120999992010010423004+46333+006917FM-12+038399999V0209999C000019999999N9999999N1-00051-00191101171ADDAA101000391MA1999999096471MD1710061+9999OA149900051REMSYN082AAXX  04234 06712 23/// /0000 11005 21019 39647 40117 57006 333 69935 91101 91200;
0151067120999992010010500004+46333+006917FM-12+038399999V0209999C000019999999N9999999N1-00111-00181101111ADDAA106001091MA1999999096411MD1810101+9999OA149900261REMSYN088AAXX  05004 06712 03/// /0000 11011 21018 39641 40111 58010 60011 333 60005 91105 91203;
0128067120999992010010501004+46333+006917FM-12+038399999V0202301N000519999999N9999999N1-00131-00211101051ADDMA1999999096351MD1810131+9999OA149900101REMSYN076AAXX  05014 06712 33/// /2301 11013 21021 39635 40105 58013 333 91102 91201;
0128067120999992010010502004+46333+006917FM-12+038399999V0201801N000519999999N9999999N1-00091-00201100971ADDMA1999999096281MD1810191+9999OA149900101REMSYN076AAXX  05024 06712 33/// /1801 11009 21020 39628 40097 58019 333 91102 91202;
0204067120999992010010503004+46333+006917FM-12+038399999V0203501N000510012019N0060001N1-00131-00191100951ADDAY171031AY221031GA1081+001201071GF108991999999001501999999MA1999999096251MD1610161+9999MW1701OA149900101REMSYN088AAXX  05034 06712 31256 83501 11013 21019 39625 40095 56016 77072 333 88704 91102 91202;
0145067120999992010010504004+46333+006917FM-12+038399999V0202501N000519999999N9999999N1-00181-00241100871ADDAA101000021MA1999999096171MD1810181+9999OA149900101REMSYN082AAXX  05044 06712 23/// /2501 11018 21024 39617 40087 58018 333 69915 91102 91201;
0128067120999992010010505004+46333+006917FM-12+038399999V0202401N000519999999N9999999N1-00151-00261100811ADDMA1999999096111MD1810171+9999OA149900101REMSYN076AAXX  05054 06712 33/// /2401 11015 21026 39611 40081 58017 333 91102 91201;
0334067120999992010010506004+46333+006917FM-12+038399999V0209999C000010012019N0040001N1-00211-00231100781ADDAA112001091AA224003691AJ100109199999999AL13600391AL29900291GA1081+001201071GF108991999999001501999999GJ100009IA1239IA2999-00109KA1999N-00241MA1999999096071MD1610181+9999OA149900101REMSYN142AAXX  05064 06712 01240 80000 11021 21023 39607 40078 56018 60012 7//72 333 21024 3/101 47010 55000 60005 70036 88704 90768 93102 91102 91202;
0128067120999992010010507004+46333+006917FM-12+038399999V0202101N000519999999N9999999N1-00351-00351100761ADDMA1999999096031MD1610141+9999OA149900101REMSYN076AAXX  05074 06712 33/// /2101 11035 21035 39603 40076 56014 333 91102 91201;
0128067120999992010010508004+46333+006917FM-12+038399999V0209999C000019999999N9999999N1-00221-00301100711ADDMA1999999096011MD1710101+9999OA149900101REMSYN076AAXX  05084 06712 33/// /0000 11022 21030 39601 40071 57010 333 91102 91201;
0204067120999992010010509004+46333+006917FM-12+038399999V0201901N000510012019N0030001N1-00161-00271100701ADDAY171031AY221031GA1081+001201071GF108991999999001501999999MA1999999096011MD1710061+9999MW1101OA149900101REMSYN088AAXX  05094 06712 31230 81901 11016 21027 39601 40070 57006 71072 333 88704 91102 91201;
0128067120999992010010510004+46333+006917FM-12+038399999V0201301N000519999999N9999999N1-00101-00231100641ADDMA1999999095961MD1710071+9999OA149900101REMSYN076AAXX  05104 06712 33/// /1301 11010 21023 39596 40064 57007 333 91102 91201;
0128067120999992010010511004+46333+006917FM-12+038399999V0203201N001019999999N9999999N1-00081-00211100531ADDMA1999999095861MD1710151+9999OA149900151REMSYN076AAXX  05114 06712 33/// /3202 11008 21021 39586 40053 57015 333 91103 91202;
0204067120999992010010512004+46333+006917FM-12+038399999V0203501N001010012019N0040001N1+00031-00161100441ADDAY171061AY221061GA1081+001201071GF108991999999001501999999MA1999999095791MD1610221+9999MW1101OA149900211REMSYN088AAXX  05124 06712 31240 83502 10003 21016 39579 40044 56022 71072 333 88704 91104 91203;
0128067120999992010010513004+46333+006917FM-12+038399999V0202901N000519999999N9999999N1+00021-00181100351ADDMA1999999095701MD1710261+9999OA149900211REMSYN076AAXX  05134 06712 33/// /2901 10002 21018 39570 40035 57026 333 91104 91203;
0087067120999992010010514004+46333+006917FM-12+038399999V0203301N000519999999N9999999N1+00051-00181100301ADDMA1999999095661REMSYN060AAXX  05144 06712 33/// /3301 10005 21018 39566 40030 5////;
0204067120999992010010515004+46333+006917FM-12+038399999V0201901N001010030019N0030001N1+00041-00191100271ADDAY121031AY221031GA1081+003001071GF108991999999004501999999MA1999999095631MD1710161+9999MW1101OA149900211REMSYN088AAXX  05154 06712 31430 81902 10004 21019 39563 40027 57016 71022 333 88710 91104 91203;
0128067120999992010010516004+46333+006917FM-12+038399999V0209999C000019999999N9999999N1-00051-00181100261ADDMA1999999095611MD1710091+9999OA149900151REMSYN076AAXX  05164 06712 33/// /0000 11005 21018 39561 40026 57009 333 91103 91202;
0128067120999992010010517004+46333+006917FM-12+038399999V0209999C000019999999N9999999N1-00101-00241100271ADDMA1999999095611MD1710051+9999OA149900101REMSYN076AAXX  05174 06712 33/// /0000 11010 21024 39561 40027 57005 333 91102 91202;
0274067120999992010010518004+46333+006917FM-12+038399999V0201201N001010015019N0030001N1+00041-00131100241ADDAJ100069199999999AL19900091AY121061AY221061GA1081+001501071GF108991999999001501999999IA1239KA1120M+00061MA1999999095601MD1710031+9999MW1101OA149900211REMSYN112AAXX  05184 06712 31230 81202 10004 21013 39560 40024 57003 71022 333 10006 47006 88705 90766 93100 91104 91203;
0128067120999992010010519004+46333+006917FM-12+038399999V0201801N000519999999N9999999N1+00011-00141100241ADDMA1999999095601MD1710011+9999OA149900151REMSYN076AAXX  05194 06712 33/// /1801 10001 21014 39560 40024 57001 333 91103 91202;
0128067120999992010010520004+46333+006917FM-12+038399999V0201701N000519999999N9999999N1-00021-00171100191ADDMA1999999095541MD1710071+9999OA149900151REMSYN076AAXX  05204 06712 33/// /1701 11002 21017 39554 40019 57007 333 91103 91202;
0128067120999992010010521004+46333+006917FM-12+038399999V0203501N001019999999N9999999N1-00101-00181100181ADDMA1999999095521MD1710081+9999OA149900151REMSYN076AAXX  05214 06712 33/// /3502 11010 21018 39552 40018 57008 333 91103 91202;
0128067120999992010010522004+46333+006917FM-12+038399999V0201601N001519999999N9999999N1-00051-00191100161ADDMA1999999095511MD1710091+9999OA149900151REMSYN076AAXX  05224 06712 33/// /1603 11005 21019 39551 40016 57009 333 91103 91203;
0128067120999992010010523004+46333+006917FM-12+038399999V0201601N001519999999N9999999N1-00021-00221100141ADDMA1999999095501MD1710041+9999OA149900211REMSYN076AAXX  05234 06712 33/// /1603 11002 21022 39550 40014 57004 333 91104 91203;
0128067120999992010010600004+46333+006917FM-12+038399999V0209999C000019999999N9999999N1-00071-00211100131ADDMA1999999095481MD1710041+9999OA149900261REMSYN076AAXX  06004 06712 33/// /0000 11007 21021 39548 40013 57004 333 91105 91204;
0128067120999992010010601004+46333+006917FM-12+038399999V0201701N001519999999N9999999N1-00121-00291100141ADDMA1999999095481MD1710031+9999OA149900261REMSYN076AAXX  06014 06712 33/// /1703 11012 21029 39548 40014 57003 333 91105 91204;
0164067120999992010010602004+46333+006917FM-12+038399999V0201801N001519999999N9999999N1-00051-00231100151ADDAA101000021MA1999999095501MD1210011+9999OA149900211REMSYN082AAXX  06024 06712 23/// /1803 11005 21023 39550 40015 52000 333 69925 91104 91203;EQDQ01+000002APC3  
0204067120999992010010603004+46333+006917FM-12+038399999V0203501N001010042019N0050001N1-00381-00411100221ADDAY121031AY221031GA1051+004201071GF105991999999004501999999MA1999999095511MD1210031+9999MW1101OA149900261REMSYN088AAXX  06034 06712 31450 53502 11038 21041 39551 40022 52003 71022 333 85714 91105 91204;
0128067120999992010010604004+46333+006917FM-12+038399999V0201501N001519999999N9999999N1-00291-00391100171ADDMA1999999095481MD1010001+9999OA149900211REMSYN076AAXX  06044 06712 33/// /1503 11029 21039 39548 40017 50000 333 91104 91203;
0128067120999992010010605004+46333+006917FM-12+038399999V0201501N001019999999N9999999N1-00331-00431100211ADDMA1999999095511MD1310011+9999OA149900151REMSYN076AAXX  06054 06712 33/// /1502 11033 21043 39551 40021 53001 333 91103 91203;
0365067120999992010010606004+46333+006917FM-12+038399999V0201901N001510012019N0040001N1-00121-00321100191ADDAA112000091AA224000391AJ100069199999999AL19900091AY121061AY221061GA1081+001201071GF108991999999001501999999GJ100009IA1239IA2999-00309KA1999N-00501MA1999999095531MD1210021+9999MW1101OA149900261REMSYN142AAXX  06064 06712 01240 81903 11012 21032 39553 40019 52002 69922 71022 333 21050 3/103 47006 55000 60005 70002 88704 90768 93100 91105 91204;EQDQ01  00002PRCP12
0128067120999992010010607004+46333+006917FM-12+038399999V0209999C000019999999N9999999N1-00121-00291100251ADDMA1999999095581MD1110101+9999OA149900211REMSYN076AAXX  06074 06712 33/// /0000 11012 21029 39558 40025 51010 333 91104 91203;
0128067120999992010010608004+46333+006917FM-12+038399999V0201701N000519999999N9999999N1-00081-00301100271ADDMA1999999095611MD1310101+9999OA149900151REMSYN076AAXX  06084 06712 33/// /1701 11008 21030 39561 40027 53010 333 91103 91202;
0204067120999992010010609004+46333+006917FM-12+038399999V0201601N000510012019N0080001N1-00111-00271100331ADDAY121031AY221031GA1081+001201071GF108991999999001501999999MA1999999095661MD1310131+9999MW1101OA149900211REMSYN088AAXX  06094 06712 31258 81601 11011 21027 39566 40033 53013 71022 333 88704 91104 91203;
0128067120999992010010610004+46333+006917FM-12+038399999V0201701N001019999999N9999999N1+00011-00211100341ADDMA1999999095691MD1110111+9999OA149900151REMSYN076AAXX  06104 06712 33/// /1702 10001 21021 39569 40034 51011 333 91103 91202;
0128067120999992010010611004+46333+006917FM-12+038399999V0209999C000019999999N9999999N1-00021-00201100331ADDMA1999999095681MD1219999+9999OA149900151REMSYN076AAXX  06114 06712 33/// /0000 11002 21020 39568 40033 52/// 333 91103 91202;
0204067120999992010010612004+46333+006917FM-12+038399999V0202801N001010006019N0040001N1+00081-00151100291ADDAY121061AY221061GA1081+000601071GF108991999999000751999999MA1999999095661MD1010001+9999MW1101OA149900211REMSYN088AAXX  06124 06712 31140 82802 10008 21015 39566 40029 50000 71022 333 88702 91104 91203;
0128067120999992010010613004+46333+006917FM-12+038399999V0202801N001519999999N9999999N1+00121-00251100281ADDMA1999999095651MD1710041+9999OA149900311REMSYN076AAXX  06134 06712 33/// /2803 10012 21025 39565 40028 57004 333 91106 91203;
0128067120999992010010614004+46333+006917FM-12+038399999V0203301N001019999999N9999999N1+00111-00211100291ADDMA1999999095661MD1719999+9999OA149900311REMSYN076AAXX  06144 06712 33/// /3302 10011 21021 39566 40029 57/// 333 91106 91203;
0204067120999992010010615004+46333+006917FM-12+038399999V0202901N001010111019N0080001N1+00131-00271100331ADDAY121031AY221031GA1081+011101071GF108991999999012501999999MA1999999095701MD1319999+9999MW1101OA149900311REMSYN088AAXX  06154 06712 31658 82902 10013 21027 39570 40033 53/// 71022 333 88737 91106 91203;
0128067120999992010010616004+46333+006917FM-12+038399999V0201501N000519999999N9999999N1+00061-00221100411ADDMA1999999095771MD1310121+9999OA149900211REMSYN076AAXX  06164 06712 33/// /1501 10006 21022 39577 40041 53012 333 91104 91202;
0128067120999992010010617004+46333+006917FM-12+038399999V0201301N001519999999N9999999N1-00121-00221100501ADDMA1999999095821MD1310161+9999OA149900151REMSYN076AAXX  06174 06712 33/// /1303 11012 21022 39582 40050 53016 333 91103 91203;
0274067120999992010010618004+46333+006917FM-12+038399999V0203201N000510111019N0100001N1-00441-00491100611ADDAJ100069199999999AL19900091AY121061AY221061GA1051+011101071GF105991999999012501999999IA1309KA1120M+00141MA1999999095871MD1119999+9999MW1101OA149900311REMSYN112AAXX  06184 06712 31660 53201 11044 21049 39587 40061 51/// 71022 333 10014 42006 85737 90766 93100 91106 91203;
0128067120999992010010619004+46333+006917FM-12+038399999V0201301N000519999999N9999999N1-00421-00451100671ADDMA1999999095931MD1310161+9999OA149900261REMSYN076AAXX  06194 06712 33/// /1301 11042 21045 39593 40067 53016 333 91105 91203;
0128067120999992010010620004+46333+006917FM-12+038399999V0202001N002119999999N9999999N1-00421-00511100651ADDMA1999999095911MD1210091+9999OA149900311REMSYN076AAXX  06204 06712 33/// /2004 11042 21051 39591 40065 52009 333 91106 91204;
0128067120999992010010621004+46333+006917FM-12+038399999V0202501N000519999999N9999999N1-00351-00521100711ADDMA1999999095981MD1210111+9999OA149900361REMSYN076AAXX  06214 06712 33/// /2501 11035 21052 39598 40071 52011 333 91107 91206;
0128067120999992010010622004+46333+006917FM-12+038399999V0201601N001019999999N9999999N1-00331-00561100761ADDMA1999999096031MD1210101+9999OA149900361REMSYN076AAXX  06224 06712 33/// /1602 11033 21056 39603 40076 52010 333 91107 91206;
0128067120999992010010623004+46333+006917FM-12+038399999V0202401N001019999999N9999999N1-00281-00471100761ADDMA1999999096041MD1210131+9999OA149900261REMSYN076AAXX  06234 06712 33/// /2402 11028 21047 39604 40076 52013 333 91105 91204;
0128067120999992010010700004+46333+006917FM-12+038399999V0201701N002119999999N9999999N1-00351-00581100771ADDMA1999999096041MD1010061+9999OA149900361REMSYN076AAXX  07004 06712 33/// /1704 11035 21058 39604 40077 50006 333 91107 91206;
0128067120999992010010701004+46333+006917FM-12+038399999V0201901N001519999999N9999999N1-00561-00681100811ADDMA1999999096041MD1510011+9999OA149900311REMSYN076AAXX  07014 06712 33/// /1903 11056 21068 39604 40081 55001 333 91106 91205;
0128067120999992010010702004+46333+006917FM-12+038399999V0201601N001019999999N9999999N1-00481-00651100811ADDMA1999999096061MD1319999+9999OA149900311REMSYN076AAXX  07024 06712 33/// /1602 11048 21065 39606 40081 53/// 333 91106 91205;
0170067120999992010010703004+46333+006917FM-12+038399999V0201901N002112200019N0150001N1-00721-00811100851ADDGA1001+999999999GF100991001001999999001001MA1999999096051MD1210011+9999OA149900311REMSYN076AAXX  07034 06712 32/65 01904 11072 21081 39605 40085 52001 333 91106 91205;
0128067120999992010010704004+46333+006917FM-12+038399999V0201801N002619999999N9999999N1-00531-00701100781ADDMA1999999096021MD1810021+9999OA149900411REMSYN076AAXX  07044 06712 33/// /1805 11053 21070 39602 40078 58002 333 91108 91205;
0128067120999992010010705004+46333+006917FM-12+038399999V0202801N001019999999N9999999N1-00541-00741100811ADDMA1999999096051MD1510011+9999OA149900411REMSYN076AAXX  07054 06712 33/// /2802 11054 21074 39605 40081 55001 333 91108 91205;
0314067120999992010010706004+46333+006917FM-12+038399999V0201701N002612200019N0220001N1-00371-00751100811ADDAA124000091AJ100069199999999AL19900091GA1041+018001061GF104991999999017501999999GJ100009IA1279IA2999-01009KA1999N-00781MA1999999096081MD1310031+9999OA149900461REMSYN124AAXX  07064 06712 32772 41705 11037 21075 39608 40081 53003 333 21078 3/110 43006 55000 70000 84656 90768 93100 91109 91206;EQDQ01  00002PRCP24
0128067120999992010010707004+46333+006917FM-12+038399999V0202201N000519999999N9999999N1-00461-00781100861ADDMA1999999096111MD1210091+9999OA149900461REMSYN076AAXX  07074 06712 33/// /2201 11046 21078 39611 40086 52009 333 91109 91205;
0128067120999992010010708004+46333+006917FM-12+038399999V0202101N002119999999N9999999N1-00391-00741100901ADDMA1999999096161MD1219999+9999OA149900571REMSYN076AAXX  07084 06712 33/// /2104 11039 21074 39616 40090 52/// 333 91111 91207;
0176067120999992010010709004+46333+006917FM-12+038399999V0201601N002612200019N0280001N1-00381-00801100971ADDGA1041+030001061GF104991999999999999999999MA1999999096231MD1210151+9999OA149900571REMSYN082AAXX  07094 06712 32978 41605 11038 21080 39623 40097 52015 333 84660 91111 91207;
0128067120999992010010710004+46333+006917FM-12+038399999V0201901N001519999999N9999999N1-00151-00761100961ADDMA1999999096261MD1110151+9999OA149900671REMSYN076AAXX  07104 06712 33/// /1903 11015 21076 39626 40096 51015 333 91113 91207;
0128067120999992010010711004+46333+006917FM-12+038399999V0202701N001019999999N9999999N1+00031-00801100931ADDMA1999999096261MD1210101+9999OA149900671REMSYN076AAXX  07114 06712 33/// /2702 10003 21080 39626 40093 52010 333 91113 91207;
0176067120999992010010712004+46333+006917FM-12+038399999V0203101N000512200019N0250001N1+00011-00751100921ADDGA1041+021001061GF104991999999022501999999MA1999999096251MD1010021+9999OA149900671REMSYN082AAXX  07124 06712 32875 43101 10001 21075 39625 40092 50002 333 84657 91113 91207;
0128067120999992010010713004+46333+006917FM-12+038399999V0203301N001019999999N9999999N1+00051-00721100911ADDMA1999999096241MD1710021+9999OA149900211REMSYN076AAXX  07134 06712 33/// /3302 10005 21072 39624 40091 57002 333 91104 91202;
0146067120999992010010715004+46333+006917FM-12+038399999V02099999999990300019N0080001N1+99999+99999999999ADDAY121031AY221031GA1081+030001041GF108991999999999999999999MW1101REMSYN070AAXX  07154 06712 41958 8//// 1//// 2//// 3//// 5//// 71022 333 88460;
0128067120999992010010716004+46333+006917FM-12+038399999V0201601N001019999999N9999999N1-00041-00621101011ADDMA1999999096321MD1210081+9999OA149900151REMSYN076AAXX  07164 06712 33/// /1602 11004 21062 39632 40101 52008 333 91103 91202;
0128067120999992010010717004+46333+006917FM-12+038399999V0202101N000519999999N9999999N1-00251-00581101091ADDMA1999999096361MD1219999+9999OA149900151REMSYN076AAXX  07174 06712 33/// /2101 11025 21058 39636 40109 52/// 333 91103 91202;
0274067120999992010010718004+46333+006917FM-12+038399999V0201801N001010300019N0080001N1-00211-00511101101ADDAJ100069199999999AL19900091AY121061AY221061GA1081+030001041GF108991999999999999999999IA1239KA1120M+00061MA1999999096381MD1219999+9999MW1101OA149900671REMSYN112AAXX  07184 06712 31958 81802 11021 21051 39638 40110 52/// 71022 333 10006 47006 88460 90766 93100 91113 91207;
0128067120999992010010719004+46333+006917FM-12+038399999V0201701N001519999999N9999999N1-00251-00461101111ADDMA1999999096381MD1210061+9999OA149900151REMSYN076AAXX  07194 06712 33/// /1703 11025 21046 39638 40111 52006 333 91103 91203;
0128067120999992010010720004+46333+006917FM-12+038399999V0201901N001519999999N9999999N1-00211-00431101081ADDMA1999999096361MD1010001+9999OA149900211REMSYN076AAXX  07204 06712 33/// /1903 11021 21043 39636 40108 50000 333 91104 91203;
0128067120999992010010721004+46333+006917FM-12+038399999V0201901N000519999999N9999999N1-00221-00431101051ADDMA1999999096331MD1710051+9999OA149900211REMSYN076AAXX  07214 06712 33/// /1901 11022 21043 39633 40105 57005 333 91104 91203;
0128067120999992010010722004+46333+006917FM-12+038399999V0201501N001019999999N9999999N1-00251-00411101001ADDMA1999999096281MD1810101+9999OA149900151REMSYN076AAXX  07224 06712 33/// /1502 11025 21041 39628 40100 58010 333 91103 91203;
0128067120999992010010723004+46333+006917FM-12+038399999V0203201N000519999999N9999999N1-00221-00401101021ADDMA1999999096301MD1710061+9999OA149900151REMSYN076AAXX  07234 06712 33/// /3201 11022 21040 39630 40102 57006 333 91103 91203;
0128067120999992010010800004+46333+006917FM-12+038399999V0203501N001019999999N9999999N1-00101-00401100941ADDMA1999999096251MD1710081+9999OA149900211REMSYN076AAXX  08004 06712 33/// /3502 11010 21040 39625 40094 57008 333 91104 91203;
0128067120999992010010801004+46333+006917FM-12+038399999V0201701N001519999999N9999999N1-00131-00401100911ADDMA1999999096211MD1710071+9999OA149900211REMSYN076AAXX  08014 06712 33/// /1703 11013 21040 39621 40091 57007 333 91104 91203;
0128067120999992010010802004+46333+006917FM-12+038399999V0201601N001019999999N9999999N1-00131-00361100881ADDMA1999999096181MD1619999+9999OA149900211REMSYN076AAXX  08024 06712 33/// /1602 11013 21036 39618 40088 56/// 333 91104 91203;
0176067120999992010010803004+46333+006917FM-12+038399999V0200201N001010180019N0150001N1-00121-00341100801ADDGA1081+018001041GF108991999999017501999999MA1999999096111MD1819999+9999OA149900211REMSYN082AAXX  08034 06712 32765 80202 11012 21034 39611 40080 58/// 333 88456 91104 91203;
0128067120999992010010804004+46333+006917FM-12+038399999V0209999C000019999999N9999999N1-00161-00401100721ADDMA1999999096031MD1810181+9999OA149900211REMSYN076AAXX  08044 06712 33/// /0000 11016 21040 39603 40072 58018 333 91104 91203;
0128067120999992010010805004+46333+006917FM-12+038399999V0201601N000519999999N9999999N1-00231-00401100681ADDMA1999999095981MD1710201+9999OA149900151REMSYN076AAXX  08054 06712 33/// /1601 11023 21040 39598 40068 57020 333 91103 91202;
0314067120999992010010806004+46333+006917FM-12+038399999V0201701N000510270019N0150001N1-00191-00331100611ADDAA124000091AJ100059199999999AL19900091GA1081+027001041GF108991999999999999999999GJ100609IA1239IA2999-00409KA1999N-00321MA1999999095921MD1710191+9999OA149900211REMSYN124AAXX  08064 06712 32965 81701 11019 21033 39592 40061 57019 333 21032 3/104 47005 55010 70000 88459 90768 93100 91104 91203;EQDQ01  00002PRCP24
0128067120999992010010807004+46333+006917FM-12+038399999V0201301N000519999999N9999999N1-00211-00361100571ADDMA1999999095871MD1710161+9999OA149900151REMSYN076AAXX  08074 06712 33/// /1301 11021 21036 39587 40057 57016 333 91103 91202;
0128067120999992010010808004+46333+006917FM-12+038399999V0201901N000519999999N9999999N1-00201-00351100511ADDMA1999999095821MD1610161+9999OA149900151REMSYN076AAXX  08084 06712 33/// /1901 11020 21035 39582 40051 56016 333 91103 91202;
0198067120999992010010809004+46333+006917FM-12+038399999V0202001N000510270019N0140001N1-00191-00331100451ADDGA1041+015001071GA2081+027001041GF108991999999017501999999MA1999999095761MD1710161+9999OA149900151REMSYN088AAXX  08094 06712 32764 82001 11019 21033 39576 40045 57016 333 84750 88459 91103 91202;
0128067120999992010010810004+46333+006917FM-12+038399999V0202801N000519999999N9999999N1-00121-00321100381ADDMA1999999095711MD1710161+9999OA149900101REMSYN076AAXX  08104 06712 33/// /2801 11012 21032 39571 40038 57016 333 91102 91201;
0128067120999992010010811004+46333+006917FM-12+038399999V0209999C000019999999N9999999N1-00101-00311100311ADDMA1999999095651MD1610171+9999OA149900151REMSYN076AAXX  08114 06712 33/// /0000 11010 21031 39565 40031 56017 333 91103 91201;
0226067120999992010010812004+46333+006917FM-12+038399999V0201401N000510270019N0080001N1-00051-00281100231ADDAY121061AY221061GA1041+011101061GA2081+027001041GF108991999999012501999999MA1999999095581MD1810181+9999MW1101OA149900211REMSYN094AAXX  08124 06712 31658 81401 11005 21028 39558 40023 58018 71022 333 84637 88459 91104 91203;
0128067120999992010010813004+46333+006917FM-12+038399999V0203501N002619999999N9999999N1+00101-00391100151ADDMA1999999095531MD1610181+9999OA149900571REMSYN076AAXX  08134 06712 33/// /3505 10010 21039 39553 40015 56018 333 91111 91205;
0128067120999992010010814004+46333+006917FM-12+038399999V0203301N003119999999N9999999N1+00101-00411100181ADDMA1999999095561MD1519999+9999OA149900721REMSYN076AAXX  08144 06712 33/// /3306 10010 21041 39556 40018 55/// 333 91114 91208;
0204067120999992010010815004+46333+006917FM-12+038399999V0203401N004110012019N0060001N1+00061-00391100271ADDAY121031AY221031GA1081+001201071GF108991999999001501999999MA1999999095631MD1310051+9999MW1101OA149900771REMSYN088AAXX  08154 06712 31256 83408 10006 21039 39563 40027 53005 71022 333 88704 91115 91208;
0128067120999992010010816004+46333+006917FM-12+038399999V0203401N002119999999N9999999N1+00031-00381100291ADDMA1999999095651MD1110121+9999OA149900771REMSYN076AAXX  08164 06712 33/// /3404 10003 21038 39565 40029 51012 333 91115 91208;
0128067120999992010010817004+46333+006917FM-12+038399999V0203601N002619999999N9999999N1+00001-00361100271ADDMA1999999095621MD1019999+9999OA149900621REMSYN076AAXX  08174 06712 33/// /3605 10000 21036 39562 40027 50/// 333 91112 91207;
0274067120999992010010818004+46333+006917FM-12+038399999V0203401N001510021019N0060001N1-00031-00291100301ADDAJ100069199999999AL19900091AY121061AY221061GA1081+002101071GF108991999999002501999999IA1239KA1120M+00111MA1999999095651MD1210021+9999MW1101OA149900771REMSYN112AAXX  08184 06712 31356 83403 11003 21029 39565 40030 52002 71022 333 10011 47006 88707 90766 93100 91115 91208;
0128067120999992010010819004+46333+006917FM-12+038399999V0203401N001519999999N9999999N1-00041-00281100351ADDMA1999999095691MD1210041+9999OA149900461REMSYN076AAXX  08194 06712 33/// /3403 11004 21028 39569 40035 52004 333 91109 91206;
0128067120999992010010820004+46333+006917FM-12+038399999V0203401N001519999999N9999999N1-00071-00241100381ADDMA1999999095721MD1210101+9999OA149900311REMSYN076AAXX  08204 06712 33/// /3403 11007 21024 39572 40038 52010 333 91106 91204;
0128067120999992010010821004+46333+006917FM-12+038399999V0203301N001019999999N9999999N1-00101-00221100431ADDMA1999999095761MD1210111+9999OA149900621REMSYN076AAXX  08214 06712 33/// /3302 11010 21022 39576 40043 52011 333 91112 91207;
0128067120999992010010822004+46333+006917FM-12+038399999V0203401N001019999999N9999999N1-00091-00241100461ADDMA1999999095791MD1210101+9999OA149900311REMSYN076AAXX  08224 06712 33/// /3402 11009 21024 39579 40046 52010 333 91106 91203;
0128067120999992010010823004+46333+006917FM-12+038399999V0209999C000019999999N9999999N1-00071-00241100411ADDMA1999999095751MD1210031+9999OA149900261REMSYN076AAXX  08234 06712 33/// /0000 11007 21024 39575 40041 52003 333 91105 91202;
0128067120999992010010900004+46333+006917FM-12+038399999V0209999C000019999999N9999999N1-00141-00251100431ADDMA1999999095751MD1810011+9999OA149900771REMSYN076AAXX  09004 06712 33/// /0000 11014 21025 39575 40043 58001 333 91115 91208;
0128067120999992010010901004+46333+006917FM-12+038399999V0201801N000519999999N9999999N1-00101-00251100421ADDMA1999999095751MD1710041+9999OA149900101REMSYN076AAXX  09014 06712 33/// /1801 11010 21025 39575 40042 57004 333 91102 91202;
0128067120999992010010902004+46333+006917FM-12+038399999V0209999C000019999999N9999999N1-00131-00251100461ADDMA1999999095781MD1219999+9999OA149900101REMSYN076AAXX  09024 06712 33/// /0000 11013 21025 39578 40046 52/// 333 91102 91202;
0204067120999992010010903004+46333+006917FM-12+038399999V0209999C000010021019N0030001N1-00091-00351100411ADDAY121031AY221031GA1081+002101071GF108991999999002501999999MA1999999095741MD1719999+9999MW1101OA149900261REMSYN088AAXX  09034 06712 31330 80000 11009 21035 39574 40041 57/// 71022 333 88707 91105 91202;
0128067120999992010010904004+46333+006917FM-12+038399999V0209999C000519999999N9999999N1-00101-00391100401ADDMA1999999095731MD1810021+9999OA149900101REMSYN076AAXX  09044 06712 33/// /0001 11010 21039 39573 40040 58002 333 91102 91201;
0128067120999992010010905004+46333+006917FM-12+038399999V0203201N000519999999N9999999N1-00091-00441100371ADDMA1999999095701MD1710081+9999OA149900151REMSYN076AAXX  09054 06712 33/// /3201 11009 21044 39570 40037 57008 333 91103 91202;
0342067120999992010010906004+46333+006917FM-12+038399999V0203301N001010051019N0060001N1-00091-00431100301ADDAA124000091AJ100059199999999AL19900091AY121061AY221061GA1081+005101071GF108991999999004501999999GJ100009IA1239IA2999-00209KA1999N-00141MA1999999095641MD1710101+9999MW1101OA149900311REMSYN130AAXX  09064 06712 31456 83302 11009 21043 39564 40030 57010 71022 333 21014 3/102 47005 55000 70000 88717 90768 93100 91106 91204;EQDQ01  00002PRCP24
0128067120999992010010907004+46333+006917FM-12+038399999V0203101N001019999999N9999999N1-00121-00441100311ADDMA1999999095641MD1710091+9999OA149900261REMSYN076AAXX  09074 06712 33/// /3102 11012 21044 39564 40031 57009 333 91105 91203;
0128067120999992010010908004+46333+006917FM-12+038399999V0203501N002619999999N9999999N1-00111-00471100351ADDMA1999999095681MD1510021+9999OA149900461REMSYN076AAXX  09084 06712 33/// /3505 11011 21047 39568 40035 55002 333 91109 91205;
0204067120999992010010909004+46333+006917FM-12+038399999V0203401N003110030019N0060001N1-00121-00421100381ADDAY121031AY221031GA1081+003001071GF108991999999004501999999MA1999999095711MD1310071+9999MW1101OA149900571REMSYN088AAXX  09094 06712 31456 83406 11012 21042 39571 40038 53007 71022 333 88710 91111 91206;
0128067120999992010010910004+46333+006917FM-12+038399999V0203501N003619999999N9999999N1-00131-00411100371ADDMA1999999095701MD1210061+9999OA149900621REMSYN076AAXX  09104 06712 33/// /3507 11013 21041 39570 40037 52006 333 91112 91208;
0128067120999992010010911004+46333+006917FM-12+038399999V0203501N003619999999N9999999N1-00131-00461100351ADDMA1999999095681MD1010001+9999OA149900721REMSYN076AAXX  09114 06712 33/// /3507 11013 21046 39568 40035 50000 333 91114 91208;
0204067120999992010010912004+46333+006917FM-12+038399999V0203501N003610030019N0050001N1-00151-00471100361ADDAY121061AY221061GA1081+003001071GF108991999999004501999999MA1999999095681MD1710031+9999MW1101OA149900721REMSYN088AAXX  09124 06712 31450 83507 11015 21047 39568 40036 57003 71022 333 88710 91114 91208;
0128067120999992010010913004+46333+006917FM-12+038399999V0203401N003619999999N9999999N1-00171-00491100341ADDMA1999999095661MD1710041+9999OA149900721REMSYN076AAXX  09134 06712 33/// /3407 11017 21049 39566 40034 57004 333 91114 91209;
0128067120999992010010914004+46333+006917FM-12+038399999V0203301N003619999999N9999999N1-00171-00511100361ADDMA1999999095681MD1510001+9999OA149900721REMSYN076AAXX  09144 06712 33/// /3307 11017 21051 39568 40036 55000 333 91114 91209;
0204067120999992010010915004+46333+006917FM-12+038399999V0203401N003610015019N0050001N1-00191-00511100391ADDAY121031AY221031GA1081+001501071GF108991999999001501999999MA1999999095711MD1310031+9999MW1101OA149900721REMSYN088AAXX  09154 06712 31250 83407 11019 21051 39571 40039 53003 71022 333 88705 91114 91209;
0128067120999992010010916004+46333+006917FM-12+038399999V0203301N003619999999N9999999N1-00201-00521100421ADDMA1999999095731MD1210071+9999OA149900671REMSYN076AAXX  09164 06712 33/// /3307 11020 21052 39573 40042 52007 333 91113 91208;
0128067120999992010010917004+46333+006917FM-12+038399999V0203401N003119999999N9999999N1-00221-00511100441ADDMA1999999095751MD1210071+9999OA149900671REMSYN076AAXX  09174 06712 33/// /3406 11022 21051 39575 40044 52007 333 91113 91207;
0274067120999992010010918004+46333+006917FM-12+038399999V0203401N003110015019N0080001N1-00261-00491100491ADDAJ100059199999999AL19900091AY121061AY221061GA1081+001501071GF108991999999001501999999IA1239KA1120M-00091MA1999999095791MD1210081+9999MW1101OA149900721REMSYN112AAXX  09184 06712 31258 83406 11026 21049 39579 40049 52008 71022 333 11009 47005 88705 90766 93100 91114 91209;
0128067120999992010010919004+46333+006917FM-12+038399999V0203401N003119999999N9999999N1-00251-00561100561ADDMA1999999095861MD1210131+9999OA149900621REMSYN076AAXX  09194 06712 33/// /3406 11025 21056 39586 40056 52013 333 91112 91207;
0128067120999992010010920004+46333+006917FM-12+038399999V0203401N002119999999N9999999N1-00231-00571100601ADDMA1999999095901MD1210151+9999OA149900571REMSYN076AAXX  09204 06712 33/// /3404 11023 21057 39590 40060 52015 333 91111 91207;
0145067120999992010010921004+46333+006917FM-12+038399999V0203101N001019999999N9999999N1-00301-00471100671ADDAA101000021MA1999999095951MD1110161+9999OA149900671REMSYN082AAXX  09214 06712 23/// /3102 11030 21047 39595 40067 51016 333 69915 91113 91207;
0128067120999992010010922004+46333+006917FM-12+038399999V0203001N001019999999N9999999N1-00291-00481100711ADDMA1999999095991MD1110131+9999OA149900361REMSYN076AAXX  09224 06712 33/// /3002 11029 21048 39599 40071 51013 333 91107 91204;
0128067120999992010010923004+46333+006917FM-12+038399999V0201101N000519999999N9999999N1-00291-00421100771ADDMA1999999096051MD1310151+9999OA149900261REMSYN076AAXX  09234 06712 33/// /1101 11029 21042 39605 40077 53015 333 91105 91202;
0170067120999992010011000004+46333+006917FM-12+038399999V0203501N000519999999N9999999N1-00271-00451100811ADDAA106000091MA1999999096091MD1110141+9999OA149900721REMSYN088AAXX  10004 06712 03/// /3501 11027 21045 39609 40081 51014 69911 333 60005 91114 91209;EQDQ01  00002PRCP06
0145067120999992010011001004+46333+006917FM-12+038399999V0209999C000019999999N9999999N1-00311-00431100861ADDAA101000021MA1999999096131MD1110141+9999OA149900151REMSYN082AAXX  10014 06712 23/// /0000 11031 21043 39613 40086 51014 333 69915 91103 91202;
0087067120999992010011002004+46333+006917FM-12+038399999V0202601N000519999999N9999999N1-00301-00461100921ADDMA1999999096191REMSYN060AAXX  10024 06712 33/// /2601 11030 21046 39619 40092 5////;
0167067120999992010011003004+46333+006917FM-12+038399999V0202301N000510021019N0010001N1-00281-00431100961ADDAY171031AY221031GA1081+002101071GF108991999999002501999999MA1999999096231MW1711REMSYN076AAXX  10034 06712 41310 82301 11028 21043 39623 40096 5//// 77172 333 88707;
0145067120999992010011004004+46333+006917FM-12+038399999V0203001N000519999999N9999999N1-00291-00421101011ADDAA101000021MA1999999096281MD1110151+9999OA149900151REMSYN082AAXX  10044 06712 23/// /3001 11029 21042 39628 40101 51015 333 69915 91103 91201;
0128067120999992010011005004+46333+006917FM-12+038399999V0203201N000519999999N9999999N1-00291-00421101071ADDMA1999999096341MD1310151+9999OA149900151REMSYN076AAXX  10054 06712 33/// /3201 11029 21042 39634 40107 53015 333 91103 91202;
0328067120999992010011006004+46333+006917FM-12+038399999V0209999C000010081019N0150001N1-00301-00431101131ADDAA112000591AA224000591AJ100069199999999AL12400091AL29900191GA1081+008101071GF108991999999008001999999GJ100009IA1279IA2999-00309KA1999N-00331MA1999999096391MD1210161+9999OA149900571REMSYN136AAXX  10064 06712 02565 80000 11030 21043 39639 40113 52016 69942 333 21033 3/103 43006 55000 60005 70004 88727 90768 93101 91111 91207;
0128067120999992010011007004+46333+006917FM-12+038399999V0209999C000019999999N9999999N1-00281-00441101211ADDMA1999999096471MD1310191+9999OA149900101REMSYN076AAXX  10074 06712 33/// /0000 11028 21044 39647 40121 53019 333 91102 91201;
0128067120999992010011008004+46333+006917FM-12+038399999V0201401N001019999999N9999999N1-00231-00401101271ADDMA1999999096541MD1319999+9999OA149900101REMSYN076AAXX  10084 06712 33/// /1402 11023 21040 39654 40127 53/// 333 91102 91202;
0176067120999992010011009004+46333+006917FM-12+038399999V0209999C000010120019N0180001N1-00231-00411101351ADDGA1081+012001071GF108991999999012501999999MA1999999096611MD1210221+9999OA149900151REMSYN082AAXX  10094 06712 32668 80000 11023 21041 39661 40135 52022 333 88740 91103 91202;
0128067120999992010011010004+46333+006917FM-12+038399999V0202801N000519999999N9999999N1-00261-00401101411ADDMA1999999096671MD1210201+9999OA149900151REMSYN076AAXX  10104 06712 33/// /2801 11026 21040 39667 40141 52020 333 91103 91202;
0128067120999992010011011004+46333+006917FM-12+038399999V0209999C000019999999N9999999N1-00231-00391101441ADDMA1999999096701MD1110161+9999OA149900101REMSYN076AAXX  10114 06712 33/// /0000 11023 21039 39670 40144 51016 333 91102 91201;
0204067120999992010011012004+46333+006917FM-12+038399999V0203301N001010030019N0090001N1-00161-00511101421ADDAY171061AY221061GA1081+003001071GF108991999999004501999999MA1999999096691MD1010081+9999MW1701OA149900151REMSYN088AAXX  10124 06712 31459 83302 11016 21051 39669 40142 50008 77072 333 88710 91103 91202;
0128067120999992010011013004+46333+006917FM-12+038399999V0203401N001519999999N9999999N1-00141-00561101441ADDMA1999999096721MD1210051+9999OA149900411REMSYN076AAXX  10134 06712 33/// /3403 11014 21056 39672 40144 52005 333 91108 91204;
0128067120999992010011014004+46333+006917FM-12+038399999V0203501N002119999999N9999999N1-00121-00561101501ADDMA1999999096781MD1219999+9999OA149900411REMSYN076AAXX  10144 06712 33/// /3504 11012 21056 39678 40150 52/// 333 91108 91204;
0204067120999992010011015004+46333+006917FM-12+038399999V0202601N000510012019N0060001N1-00151-00561101541ADDAY121031AY221031GA1081+001201071GF108991999999001501999999MA1999999096811MD1110121+9999MW1101OA149900411REMSYN088AAXX  10154 06712 31256 82601 11015 21056 39681 40154 51012 71022 333 88704 91108 91204;
0128067120999992010011016004+46333+006917FM-12+038399999V0209999C000019999999N9999999N1-00171-00561101591ADDMA1999999096851MD1110131+9999OA149900361REMSYN076AAXX  10164 06712 33/// /0000 11017 21056 39685 40159 51013 333 91107 91204;
0128067120999992010011017004+46333+006917FM-12+038399999V0209999C000019999999N9999999N1-00301-00521101631ADDMA1999999096871MD1110091+9999OA149900151REMSYN076AAXX  10174 06712 33/// /0000 11030 21052 39687 40163 51009 333 91103 91202;
0274067120999992010011018004+46333+006917FM-12+038399999V0201601N001010015019N0080001N1-00231-00521101671ADDAJ100069199999999AL19900091AY121061AY221061GA1081+001501071GF108991999999001501999999IA1239KA1120M-00111MA1999999096921MD1310111+9999MW1101OA149900411REMSYN112AAXX  10184 06712 31258 81602 11023 21052 39692 40167 53011 71022 333 11011 47006 88705 90766 93100 91108 91204;
0128067120999992010011019004+46333+006917FM-12+038399999V0201301N002619999999N9999999N1-00171-00561101641ADDMA1999999096901MD1210051+9999OA149900311REMSYN076AAXX  10194 06712 33/// /1305 11017 21056 39690 40164 52005 333 91106 91205;
0128067120999992010011020004+46333+006917FM-12+038399999V0201501N001019999999N9999999N1-00211-00591101651ADDMA1999999096901MD1010031+9999OA149900311REMSYN076AAXX  10204 06712 33/// /1502 11021 21059 39690 40165 50003 333 91106 91205;
0128067120999992010011021004+46333+006917FM-12+038399999V0201801N001519999999N9999999N1-00271-00581101631ADDMA1999999096871MD1710051+9999OA149900311REMSYN076AAXX  10214 06712 33/// /1803 11027 21058 39687 40163 57005 333 91106 91205;
0128067120999992010011022004+46333+006917FM-12+038399999V0202001N000519999999N9999999N1-00411-00681101651ADDMA1999999096871MD1710031+9999OA149900211REMSYN076AAXX  10224 06712 33/// /2001 11041 21068 39687 40165 57003 333 91104 91203;
0128067120999992010011023004+46333+006917FM-12+038399999V0203401N000519999999N9999999N1-00541-00711101731ADDMA1999999096921MD1310021+9999OA149900261REMSYN076AAXX  10234 06712 33/// /3401 11054 21071 39692 40173 53002 333 91105 91203;
0128067120999992010011100004+46333+006917FM-12+038399999V0201301N000519999999N9999999N1-00771-00861101821ADDMA1999999096971MD1210101+9999OA149900411REMSYN076AAXX  11004 06712 33/// /1301 11077 21086 39697 40182 52010 333 91108 91205;
0128067120999992010011101004+46333+006917FM-12+038399999V0201501N003119999999N9999999N1-00431-00781101741ADDMA1999999096951MD1210081+9999OA149900361REMSYN076AAXX  11014 06712 33/// /1506 11043 21078 39695 40174 52008 333 91107 91206;
0128067120999992010011102004+46333+006917FM-12+038399999V0200901N000519999999N9999999N1-00561-00781101781ADDMA1999999096971MD1019999+9999OA149900361REMSYN076AAXX  11024 06712 33/// /0901 11056 21078 39697 40178 50/// 333 91107 91206;
0204067120999992010011103004+46333+006917FM-12+038399999V0201501N001512200019N0150001N1-00841-01001101851ADDAY101031AY201031GA1021+036001041GF102991999999999999999999MA1999999096981MD1519999+9999MW1101OA149900361REMSYN088AAXX  11034 06712 31965 21503 11084 21100 39698 40185 55/// 71000 333 82462 91107 91206;
0128067120999992010011104004+46333+006917FM-12+038399999V0201901N001519999999N9999999N1-00881-01011101821ADDMA1999999096951MD1010001+9999OA149900211REMSYN076AAXX  11044 06712 33/// /1903 11088 21101 39695 40182 50000 333 91104 91203;
0128067120999992010011105004+46333+006917FM-12+038399999V0202101N001519999999N9999999N1-01051-01141101821ADDMA1999999096921MD1710051+9999OA149900211REMSYN076AAXX  11054 06712 33/// /2103 11105 21114 39692 40182 57005 333 91104 91203;
0323067120999992010011106004+46333+006917FM-12+038399999V0201101N001012200019N0120001N1-00871-00911101761ADDAA124000021AJ100069199999999AL19900091AY101061AY201061GA1031+087001001GF103991999999999999999999GJ100009IA1239IA2999-01109KA1999N-01051MA1999999096891MD1610091+9999MW1101OA149900361REMSYN130AAXX  11064 06712 31962 31102 11087 21091 39689 40176 56009 71000 333 21105 3/111 47006 55000 70000 83079 90768 93100 91107 91206;
0128067120999992010011107004+46333+006917FM-12+038399999V0201201N000519999999N9999999N1-00771-00971101761ADDMA1999999096911MD1710041+9999OA149900261REMSYN076AAXX  11074 06712 33/// /1201 11077 21097 39691 40176 57004 333 91105 91202;
0128067120999992010011108004+46333+006917FM-12+038399999V0202401N001019999999N9999999N1-00881-01061101831ADDMA1999999096961MD1319999+9999OA149900261REMSYN076AAXX  11084 06712 33/// /2402 11088 21106 39696 40183 53/// 333 91105 91202;
0204067120999992010011109004+46333+006917FM-12+038399999V0202201N001012200019N0100001N1-00591-00881101871ADDAY101031AY201031GA1011+027001031GF101991999999999999999999MA1999999097051MD1210161+9999MW1101OA149900261REMSYN088AAXX  11094 06712 31960 12202 11059 21088 39705 40187 52016 71000 333 81359 91105 91203;
0128067120999992010011110004+46333+006917FM-12+038399999V0202201N001519999999N9999999N1-00421-00771101871ADDMA1999999097081MD1119999+9999OA149900211REMSYN076AAXX  11104 06712 33/// /2203 11042 21077 39708 40187 51/// 333 91104 91203;
0128067120999992010011111004+46333+006917FM-12+038399999V0201801N001019999999N9999999N1-00281-00731101831ADDMA1999999097061MD1010101+9999OA149900211REMSYN076AAXX  11114 06712 33/// /1802 11028 21073 39706 40183 50010 333 91104 91203;
0198067120999992010011112004+46333+006917FM-12+038399999V0202301N000512200019N0070001N1-00191-00731101741ADDAY101061AY201061GA1001+999999999GF100991001001999999001001MA1999999096991MD1810061+9999MW1051OA149900361REMSYN082AAXX  11124 06712 31/57 02301 11019 21073 39699 40174 58006 70500 333 91107 91206;
0128067120999992010011113004+46333+006917FM-12+038399999V0202601N000519999999N9999999N1-00111-00731101711ADDMA1999999096981MD1610101+9999OA149900151REMSYN076AAXX  11134 06712 33/// /2601 11011 21073 39698 40171 56010 333 91103 91203;
0087067120999992010011114004+46333+006917FM-12+038399999V0202201N000519999999N9999999N1-00111-00661101691ADDMA1999999096961REMSYN060AAXX  11144 06712 33/// /2201 11011 21066 39696 40169 5////;
0217067120999992010011115004+46333+006917FM-12+038399999V0201901N001012200019N0070001N1-00381-00691101771ADDAY101031AY201031GA1001+999999999GF100991001001999999001001MA1999999096991MD1310031+9999MW1051OA149900211REMSYN082AAXX  11154 06712 31/57 01902 11038 21069 39699 40177 53000 70500 333 91104 91203;EQDQ01+000002APC3  
0128067120999992010011116004+46333+006917FM-12+038399999V0209999C000019999999N9999999N1-00481-00661101821ADDMA1999999097021MD1210041+9999OA149900151REMSYN076AAXX  11164 06712 33/// /0000 11048 21066 39702 40182 52004 333 91103 91203;
0128067120999992010011117004+46333+006917FM-12+038399999V0201601N001019999999N9999999N1-00781-00941101901ADDMA1999999097041MD1210081+9999OA149900151REMSYN076AAXX  11174 06712 33/// /1602 11078 21094 39704 40190 52008 333 91103 91203;
0268067120999992010011118004+46333+006917FM-12+038399999V0201801N000512200019N0060001N1-00611-00731101931ADDAJ100059199999999AL19900091AY101061AY201061GA1001+999999999GF100991001001999999001001IA1239KA1120M-00091MA1999999097101MD1210111+9999MW1101OA149900261REMSYN106AAXX  11184 06712 31/56 01801 11061 21073 39710 40193 52011 71000 333 11009 47005 90766 93100 91105 91203;
0128067120999992010011119004+46333+006917FM-12+038399999V0201501N001019999999N9999999N1-00851-00941102001ADDMA1999999097121MD1210101+9999OA149900211REMSYN076AAXX  11194 06712 33/// /1502 11085 21094 39712 40200 52010 333 91104 91203;
0128067120999992010011120004+46333+006917FM-12+038399999V0201701N001019999999N9999999N1-00811-00881102021ADDMA1999999097151MD1110111+9999OA149900211REMSYN076AAXX  11204 06712 33/// /1702 11081 21088 39715 40202 51011 333 91104 91203;
0128067120999992010011121004+46333+006917FM-12+038399999V0200101N000519999999N9999999N1-01031-01151102091ADDMA1999999097181MD1110081+9999OA149900211REMSYN076AAXX  11214 06712 33/// /0101 11103 21115 39718 40209 51008 333 91104 91203;
0128067120999992010011122004+46333+006917FM-12+038399999V0201801N001019999999N9999999N1-00751-00841102071ADDMA1999999097211MD1110091+9999OA149900151REMSYN076AAXX  11224 06712 33/// /1802 11075 21084 39721 40207 51009 333 91103 91203;
0128067120999992010011123004+46333+006917FM-12+038399999V0201501N001519999999N9999999N1-00771-00911102091ADDMA1999999097221MD1110071+9999OA149900261REMSYN076AAXX  11234 06712 33/// /1503 11077 21091 39722 40209 51007 333 91105 91203;
0128067120999992010011200004+46333+006917FM-12+038399999V0201701N001519999999N9999999N1-00891-01021102101ADDMA1999999097211MD1010031+9999OA149900261REMSYN076AAXX  12004 06712 33/// /1703 11089 21102 39721 40210 50003 333 91105 91203;
0128067120999992010011201004+46333+006917FM-12+038399999V0209999C000019999999N9999999N1-00881-00931102041ADDMA1999999097161MD1810051+9999OA149900211REMSYN076AAXX  12014 06712 33/// /0000 11088 21093 39716 40204 58005 333 91104 91203;
0128067120999992010011202004+46333+006917FM-12+038399999V0209999C000019999999N9999999N1-00881-00961102041ADDMA1999999097161MD1719999+9999OA149900151REMSYN076AAXX  12024 06712 33/// /0000 11088 21096 39716 40204 57/// 333 91103 91203;
0170067120999992010011203004+46333+006917FM-12+038399999V0201001N000512200019N0120001N1-00741-00821102031ADDGA1001+999999999GF100991001001999999001001MA1999999097171MD1510041+9999OA149900261REMSYN076AAXX  12034 06712 32/62 01001 11074 21082 39717 40203 55004 333 91105 91203;
0128067120999992010011204004+46333+006917FM-12+038399999V0201701N001019999999N9999999N1-00831-00951102011ADDMA1999999097141MD1810021+9999OA149900151REMSYN076AAXX  12044 06712 33/// /1702 11083 21095 39714 40201 58002 333 91103 91202;
0128067120999992010011205004+46333+006917FM-12+038399999V0201701N002119999999N9999999N1-00681-00821101991ADDMA1999999097141MD1810021+9999OA149900261REMSYN076AAXX  12054 06712 33/// /1704 11068 21082 39714 40199 58002 333 91105 91204;
0336067120999992010011206004+46333+006917FM-12+038399999V0201801N001512200019N0080001N1-00871-01001101961ADDAA124000091AJ100059199999999AL19900091AY101061AY201061GA1001+999999999GF100991001001999999001001GJ103729IA1239IA2999-01109KA1999N-01081MA1999999097081MD1710091+9999MW1101OA149900261REMSYN124AAXX  12064 06712 31/58 01803 11087 21100 39708 40196 57009 71000 333 21108 3/111 47005 55062 70000 90768 93100 91105 91204;EQDQ01  00002PRCP24
0128067120999992010011207004+46333+006917FM-12+038399999V0203401N000519999999N9999999N1-00881-01021101911ADDMA1999999097031MD1710111+9999OA149900211REMSYN076AAXX  12074 06712 33/// /3401 11088 21102 39703 40191 57011 333 91104 91203;
0128067120999992010011208004+46333+006917FM-12+038399999V0209999C000019999999N9999999N1-00981-01051101871ADDMA1999999096981MD1619999+9999OA149900211REMSYN076AAXX  12084 06712 33/// /0000 11098 21105 39698 40187 56/// 333 91104 91203;
0198067120999992010011209004+46333+006917FM-12+038399999V0201701N001012200019N0100001N1-00681-00891101741ADDAY101031AY201031GA1001+999999999GF100991001001999999001001MA1999999096911MD1810171+9999MW1101OA149900261REMSYN082AAXX  12094 06712 31/60 01702 11068 21089 39691 40174 58017 71000 333 91105 91204;
0128067120999992010011210004+46333+006917FM-12+038399999V0201601N000519999999N9999999N1-00331-00671101591ADDMA1999999096831MD1810201+9999OA149900261REMSYN076AAXX  12104 06712 33/// /1601 11033 21067 39683 40159 58020 333 91105 91203;
0128067120999992010011211004+46333+006917FM-12+038399999V0202901N001019999999N9999999N1-00161-00651101471ADDMA1999999096741MD1810241+9999OA149900311REMSYN076AAXX  12114 06712 33/// /2902 11016 21065 39674 40147 58024 333 91106 91204;
0198067120999992010011212004+46333+006917FM-12+038399999V0203201N001512200019N0070001N1-00021-00581101401ADDAY101061AY201061GA1001+999999999GF100991001001999999001001MA1999999096701MD1610211+9999MW1051OA149900311REMSYN082AAXX  12124 06712 31/57 03203 11002 21058 39670 40140 56021 70500 333 91106 91204;
0128067120999992010011213004+46333+006917FM-12+038399999V0202401N001019999999N9999999N1-00101-00571101281ADDMA1999999096571MD1810261+9999OA149900261REMSYN076AAXX  12134 06712 33/// /2402 11010 21057 39657 40128 58026 333 91105 91203;
0087067120999992010011214004+46333+006917FM-12+038399999V0203001N001019999999N9999999N1-00041-00471101211ADDMA1999999096511REMSYN060AAXX  12144 06712 33/// /3002 11004 21047 39651 40121 5////;
0204067120999992010011215004+46333+006917FM-12+038399999V0201701N001512200019N0100001N1-00611-00841101181ADDAY101031AY201031GA1031+087001001GF103991999999999999999999MA1999999096391MD1610311+9999MW1051OA149900311REMSYN088AAXX  12154 06712 31960 31703 11061 21084 39639 40118 56031 70500 333 83079 91106 91204;
0128067120999992010011216004+46333+006917FM-12+038399999V0203101N000519999999N9999999N1-00651-00891101121ADDMA1999999096321MD1810251+9999OA149900261REMSYN076AAXX  12164 06712 33/// /3101 11065 21089 39632 40112 58025 333 91105 91204;
0128067120999992010011217004+46333+006917FM-12+038399999V0201401N001519999999N9999999N1-00641-00831101061ADDMA1999999096271MD1710241+9999OA149900211REMSYN076AAXX  12174 06712 33/// /1403 11064 21083 39627 40106 57024 333 91104 91203;
0268067120999992010011218004+46333+006917FM-12+038399999V0202701N000512200019N0070001N1-00721-00861101081ADDAJ100059199999999AL19900091AY101061AY201061GA1001+999999999GF100991001001999999001001IA1239KA1120M-00011MA1999999096271MD1710121+9999MW1101OA149900311REMSYN106AAXX  12184 06712 31/57 02701 11072 21086 39627 40108 57012 71000 333 11001 47005 90766 93100 91106 91204;
0128067120999992010011219004+46333+006917FM-12+038399999V0203001N000519999999N9999999N1-00761-00901101071ADDMA1999999096251MD1710071+9999OA149900261REMSYN076AAXX  12194 06712 33/// /3001 11076 21090 39625 40107 57007 333 91105 91203;
0128067120999992010011220004+46333+006917FM-12+038399999V0201801N000519999999N9999999N1-00841-00911101001ADDMA1999999096171MD1710101+9999OA149900261REMSYN076AAXX  12204 06712 33/// /1801 11084 21091 39617 40100 57010 333 91105 91203;
0128067120999992010011221004+46333+006917FM-12+038399999V0203001N001019999999N9999999N1-00671-00801100881ADDMA1999999096091MD1710181+9999OA149900261REMSYN076AAXX  12214 06712 33/// /3002 11067 21080 39609 40088 57018 333 91105 91203;
0128067120999992010011222004+46333+006917FM-12+038399999V0203401N005719999999N9999999N1-00061-00391100761ADDMA1999999096081MD1710171+9999OA149900881REMSYN076AAXX  12224 06712 33/// /3411 11006 21039 39608 40076 57017 333 91117 91211;
0128067120999992010011223004+46333+006917FM-12+038399999V0203401N005119999999N9999999N1-00051-00381100841ADDMA1999999096161MD1510011+9999OA149900931REMSYN076AAXX  12234 06712 33/// /3410 11005 21038 39616 40084 55001 333 91118 91211;
0128067120999992010011300004+46333+006917FM-12+038399999V0201701N001519999999N9999999N1-00101-00371100861ADDMA1999999096171MD1210081+9999OA149900931REMSYN076AAXX  13004 06712 33/// /1703 11010 21037 39617 40086 52008 333 91118 91211;
0128067120999992010011301004+46333+006917FM-12+038399999V0201601N001019999999N9999999N1-00151-00321100731ADDMA1999999096041MD1810041+9999OA149900721REMSYN076AAXX  13014 06712 33/// /1602 11015 21032 39604 40073 58004 333 91114 91208;
0128067120999992010011302004+46333+006917FM-12+038399999V0203401N004619999999N9999999N1-00011-00341100631ADDMA1999999095971MD1719999+9999OA149900671REMSYN076AAXX  13024 06712 33/// /3409 11001 21034 39597 40063 57/// 333 91113 91209;
0176067120999992010011303004+46333+006917FM-12+038399999V0203401N002610141019N0150001N1+00031-00271100611ADDGA1071+014101071GF107991999999012501999999MA1999999095951MD1619999+9999OA149900931REMSYN082AAXX  13034 06712 32665 73405 10003 21027 39595 40061 56/// 333 87747 91118 91211;
0128067120999992010011304004+46333+006917FM-12+038399999V0200201N001019999999N9999999N1+00081-00221100591ADDMA1999999095941MD1710101+9999OA149901081REMSYN076AAXX  13044 06712 33/// /0202 10008 21022 39594 40059 57010 333 91121 91211;
0128067120999992010011305004+46333+006917FM-12+038399999V0203401N005119999999N9999999N1+00031-00161100681ADDMA1999999096021MD1310051+9999OA149901081REMSYN076AAXX  13054 06712 33/// /3410 10003 21016 39602 40068 53005 333 91121 91211;
0342067120999992010011306004+46333+006917FM-12+038399999V0203401N003110060019N0060001N1+00011-00131100701ADDAA124000091AJ100049199999999AL19900091AY111061AY211061GA1081+006001071GF108991999999008001999999GJ103789IA1279IA2999-01009KA1999N-00881MA1999999096041MD1210091+9999MW1101OA149901081REMSYN130AAXX  13064 06712 31556 83406 10001 21013 39604 40070 52009 71011 333 21088 3/110 43004 55063 70000 88720 90768 93100 91121 91211;EQDQ01  00002PRCP24
0128067120999992010011307004+46333+006917FM-12+038399999V0203401N002119999999N9999999N1+00011-00111100771ADDMA1999999096101MD1110161+9999OA149900721REMSYN076AAXX  13074 06712 33/// /3404 10001 21011 39610 40077 51016 333 91114 91208;
0128067120999992010011308004+46333+006917FM-12+038399999V0200101N001519999999N9999999N1+00061-00091100831ADDMA1999999096171MD1310151+9999OA149900511REMSYN076AAXX  13084 06712 33/// /0103 10006 21009 39617 40083 53015 333 91110 91206;
0204067120999992010011309004+46333+006917FM-12+038399999V0203501N002110150019N0150001N1+00101-00071100881ADDAY171031AY221031GA1081+015001071GF108991999999017501999999MA1999999096221MD1110181+9999MW1021OA149901081REMSYN088AAXX  13094 06712 31765 83504 10010 21007 39622 40088 51018 70272 333 88750 91121 91211;
0128067120999992010011310004+46333+006917FM-12+038399999V0201701N001519999999N9999999N1+00281-00121100911ADDMA1999999096281MD1110181+9999OA149900821REMSYN076AAXX  13104 06712 33/// /1703 10028 21012 39628 40091 51018 333 91116 91205;
0128067120999992010011311004+46333+006917FM-12+038399999V0201501N003119999999N9999999N1+00371-00121100881ADDMA1999999096271MD1210101+9999OA149900931REMSYN076AAXX  13114 06712 33/// /1506 10037 21012 39627 40088 52010 333 91118 91207;
0204067120999992010011312004+46333+006917FM-12+038399999V0201401N003110150019N0150001N1+00351-00071100871ADDAY171061AY221061GA1081+015001071GF108991999999017501999999MA1999999096261MD1010041+9999MW1021OA149901081REMSYN088AAXX  13124 06712 31765 81406 10035 21007 39626 40087 50004 70272 333 88750 91121 91211;
0128067120999992010011313004+46333+006917FM-12+038399999V0203301N003619999999N9999999N1+00221+00021100921ADDMA1999999096281MD1510001+9999OA149900721REMSYN076AAXX  13134 06712 33/// /3307 10022 20002 39628 40092 55000 333 91114 91207;
0128067120999992010011314004+46333+006917FM-12+038399999V0203301N001519999999N9999999N1+00211+00041100981ADDMA1999999096341MD1319999+9999OA149900721REMSYN076AAXX  13144 06712 33/// /3303 10021 20004 39634 40098 53/// 333 91114 91209;
0226067120999992010011315004+46333+006917FM-12+038399999V0203401N001510150019N0070001N1+00191+00041101031ADDAY121031AY221031GA1031+011101051GA2051+015001071GF108991999999012501999999MA1999999096381MD1210121+9999MW1161OA149900931REMSYN094AAXX  13154 06712 31657 83403 10019 20004 39638 40103 52012 71622 333 83537 85750 91118 91209;
0128067120999992010011316004+46333+006917FM-12+038399999V0203601N000519999999N9999999N1+00181+00051101071ADDMA1999999096421MD1110141+9999OA149900361REMSYN076AAXX  13164 06712 33/// /3601 10018 20005 39642 40107 51014 333 91107 91204;
0145067120999992010011317004+46333+006917FM-12+038399999V0202001N001019999999N9999999N1+00191+00041101081ADDAA101000021MA1999999096431MD1210091+9999OA149900211REMSYN082AAXX  13174 06712 23/// /2002 10019 20004 39643 40108 52009 333 69915 91104 91203;
0316067120999992010011318004+46333+006917FM-12+038399999V0202601N000510090019N0060001N1+00101+00011101121ADDAA112000091AJ100049199999999AL19900091AY121061AY221061GA1081+009001071GF108991999999008001999999IA1309KA1120M+00411MA1999999096451MD1210071+9999MW1101OA149900931REMSYN124AAXX  13184 06712 01556 82601 10010 20001 39645 40112 52007 69912 71022 333 10041 42004 60005 88730 90766 93100 91118 91209;EQDQ01  00002PRCP12
0128067120999992010011319004+46333+006917FM-12+038399999V0203201N000519999999N9999999N1+00101+00011101121ADDMA1999999096451MD1210031+9999OA149900151REMSYN076AAXX  13194 06712 33/// /3201 10010 20001 39645 40112 52003 333 91103 91202;
0128067120999992010011320004+46333+006917FM-12+038399999V0201701N000519999999N9999999N1-00081-00141101121ADDMA1999999096421MD1810011+9999OA149900151REMSYN076AAXX  13204 06712 33/// /1701 11008 21014 39642 40112 58001 333 91103 91202;
0128067120999992010011321004+46333+006917FM-12+038399999V0201901N001519999999N9999999N1-00181-00261101121ADDMA1999999096401MD1710051+9999OA149900311REMSYN076AAXX  13214 06712 33/// /1903 11018 21026 39640 40112 57005 333 91106 91203;
0128067120999992010011322004+46333+006917FM-12+038399999V0201701N002619999999N9999999N1-00081-00221101021ADDMA1999999096331MD1810121+9999OA149900671REMSYN076AAXX  13224 06712 33/// /1705 11008 21022 39633 40102 58012 333 91113 91207;
0128067120999992010011323004+46333+006917FM-12+038399999V0201701N002119999999N9999999N1-00071-00251100981ADDMA1999999096291MD1810131+9999OA149900671REMSYN076AAXX  13234 06712 33/// /1704 11007 21025 39629 40098 58013 333 91113 91207;
0128067120999992010011400004+46333+006917FM-12+038399999V0201701N000519999999N9999999N1-00091-00261100921ADDMA1999999096231MD1610171+9999OA149900721REMSYN076AAXX  14004 06712 33/// /1701 11009 21026 39623 40092 56017 333 91114 91209;
0128067120999992010011401004+46333+006917FM-12+038399999V0203101N001519999999N9999999N1-00061-00231100901ADDMA1999999096211MD1710121+9999OA149900511REMSYN076AAXX  14014 06712 33/// /3103 11006 21023 39621 40090 57012 333 91110 91205;
0128067120999992010011402004+46333+006917FM-12+038399999V0200601N000519999999N9999999N1+00111-00121100911ADDMA1999999096251MD1519999+9999OA149900411REMSYN076AAXX  14024 06712 33/// /0601 10011 21012 39625 40091 55/// 333 91108 91205;
0157067120999992010011403004+46333+006917FM-12+038399999V0201801N001512200019N0090001N1-00181-00301100921ADDAY111031AY211031GA1001+999999999GF100991001001999999001001MA1999999096211MW1101REMSYN066AAXX  14034 06712 31/59 01803 11018 21030 39621 40092 5//// 71011;
0128067120999992010011404004+46333+006917FM-12+038399999V0201501N002619999999N9999999N1+00051-00281100771ADDMA1999999096111MD1810101+9999OA149900361REMSYN076AAXX  14044 06712 33/// /1505 10005 21028 39611 40077 58010 333 91107 91205;
0128067120999992010011405004+46333+006917FM-12+038399999V0201401N002119999999N9999999N1+00101-00341100711ADDMA1999999096061MD1710191+9999OA149900621REMSYN076AAXX  14054 06712 33/// /1404 10010 21034 39606 40071 57019 333 91112 91205;
0308067120999992010011406004+46333+006917FM-12+038399999V0201501N002112200019N0180001N1-00211-00431100721ADDAA124000091AJ100049199999999AL19900091GA1001+999999999GF100991001001999999001001GJ100009IA1239IA2999-00709KA1999N-00281MA1999999096021MD1610191+9999OA149900671REMSYN118AAXX  14064 06712 32/68 01504 11021 21043 39602 40072 56019 333 21028 3/107 47004 55000 70001 90768 93100 91113 91207;EQDQ01  00002PRCP24
0128067120999992010011407004+46333+006917FM-12+038399999V0201601N003119999999N9999999N1-00061-00401100661ADDMA1999999095991MD1610121+9999OA149900821REMSYN076AAXX  14074 06712 33/// /1606 11006 21040 39599 40066 56012 333 91116 91207;
0128067120999992010011408004+46333+006917FM-12+038399999V0201501N003119999999N9999999N1+00121-00441100621ADDMA1999999095981MD1719999+9999OA149900821REMSYN076AAXX  14084 06712 33/// /1506 10012 21044 39598 40062 57/// 333 91116 91207;
0176067120999992010011409004+46333+006917FM-12+038399999V0201401N006710870019N0250001N1+00271-00431100521ADDGA1051+087001001GF105991999999999999999999MA1999999095911MD1710111+9999OA149900981REMSYN082AAXX  14094 06712 32975 51413 10027 21043 39591 40052 57011 333 85079 91119 91213;
0128067120999992010011410004+46333+006917FM-12+038399999V0203201N002619999999N9999999N1+00271-00201100561ADDMA1999999095951MD1710041+9999OA149900981REMSYN076AAXX  14104 06712 33/// /3205 10027 21020 39595 40056 57004 333 91119 91213;
0128067120999992010011411004+46333+006917FM-12+038399999V0203501N003619999999N9999999N1+00271-00191100561ADDMA1999999095951MD1510031+9999OA149900881REMSYN076AAXX  14114 06712 33/// /3507 10027 21019 39595 40056 55003 333 91117 91211;
0176067120999992010011412004+46333+006917FM-12+038399999V0203401N002610420019N0180001N1+00271-00191100561ADDGA1081+042001041GF108991999999999999999999MA1999999095951MD1210041+9999OA149900981REMSYN082AAXX  14124 06712 32968 83405 10027 21019 39595 40056 52004 333 88464 91119 91213;
0128067120999992010011413004+46333+006917FM-12+038399999V0202001N000519999999N9999999N1+00241-00061100541ADDMA1999999095921MD1810031+9999OA149900671REMSYN076AAXX  14134 06712 33/// /2001 10024 21006 39592 40054 58003 333 91113 91208;
0128067120999992010011414004+46333+006917FM-12+038399999V0203201N001019999999N9999999N1+00301-00181100471ADDMA1999999095871MD1810081+9999OA149900361REMSYN076AAXX  14144 06712 33/// /3202 10030 21018 39587 40047 58008 333 91107 91203;
0226067120999992010011415004+46333+006917FM-12+038399999V0203401N001510420019N0300001N1+00281-00121100471ADDAY121031AY221031GA1011+027001051GA2081+042001041GF108991999999999999999999MA1999999095861MD1710091+9999MW1151OA149900881REMSYN094AAXX  14154 06712 31980 83403 10028 21012 39586 40047 57009 71522 333 81559 88464 91117 91211;
0128067120999992010011416004+46333+006917FM-12+038399999V0203401N002619999999N9999999N1+00311-00101100491ADDMA1999999095891MD1510031+9999OA149900621REMSYN076AAXX  14164 06712 33/// /3405 10031 21010 39589 40049 55003 333 91112 91207;
0128067120999992010011417004+46333+006917FM-12+038399999V0203501N004119999999N9999999N1+00311-00071100591ADDMA1999999095981MD1210111+9999OA149900671REMSYN076AAXX  14174 06712 33/// /3508 10031 21007 39598 40059 52011 333 91113 91208;
0246067120999992010011418004+46333+006917FM-12+038399999V0203401N002110300019N0150001N1+00301-00051100711ADDAJ100019199999999AL19900091GA1081+030001041GF108991999999999999999999IA1279KA1120M+00411MA1999999096091MD1310231+9999OA149900981REMSYN106AAXX  14184 06712 32965 83404 10030 21005 39609 40071 53023 333 10041 43001 88460 90766 93100 91119 91213;
0128067120999992010011419004+46333+006917FM-12+038399999V0203401N002119999999N9999999N1+00291-00031100831ADDMA1999999096211MD1310321+9999OA149900671REMSYN076AAXX  14194 06712 33/// /3404 10029 21003 39621 40083 53032 333 91113 91207;
0128067120999992010011420004+46333+006917FM-12+038399999V0203301N001519999999N9999999N1+00251-00061100981ADDMA1999999096341MD1310361+9999OA149900571REMSYN076AAXX  14204 06712 33/// /3303 10025 21006 39634 40098 53036 333 91111 91206;
0128067120999992010011421004+46333+006917FM-12+038399999V0201301N001019999999N9999999N1+00071-00081101131ADDMA1999999096461MD1210371+9999OA149900671REMSYN076AAXX  14214 06712 33/// /1302 10007 21008 39646 40113 52037 333 91113 91208;
0128067120999992010011422004+46333+006917FM-12+038399999V0209999C000019999999N9999999N1+00071-00081101231ADDMA1999999096551MD1110341+9999OA149900261REMSYN076AAXX  14224 06712 33/// /0000 10007 21008 39655 40123 51034 333 91105 91202;
0128067120999992010011423004+46333+006917FM-12+038399999V0201201N001019999999N9999999N1+00031-00091101341ADDMA1999999096651MD1210311+9999OA149900151REMSYN076AAXX  14234 06712 33/// /1202 10003 21009 39665 40134 52031 333 91103 91202;
0128067120999992010011500004+46333+006917FM-12+038399999V0209999C000019999999N9999999N1-00021-00151101411ADDMA1999999096711MD1110251+9999OA149900671REMSYN076AAXX  15004 06712 33/// /0000 11002 21015 39671 40141 51025 333 91113 91208;
0128067120999992010011501004+46333+006917FM-12+038399999V0201401N001519999999N9999999N1+00061-00081101461ADDMA1999999096771MD1210221+9999OA149900211REMSYN076AAXX  15014 06712 33/// /1403 10006 21008 39677 40146 52022 333 91104 91203;
0128067120999992010011502004+46333+006917FM-12+038399999V0201901N001019999999N9999999N1-00071-00181101541ADDMA1999999096821MD1210171+9999OA149900211REMSYN076AAXX  15024 06712 33/// /1902 11007 21018 39682 40154 52017 333 91104 91203;
0157067120999992010011503004+46333+006917FM-12+038399999V0200301N000512200019N0090001N1-00161-00221101661ADDAY101031AY201031GA1001+999999999GF100991001001999999001001MA1999999096921MW1101REMSYN066AAXX  15034 06712 31/59 00301 11016 21022 39692 40166 5//// 71000;
0128067120999992010011504004+46333+006917FM-12+038399999V0201601N001519999999N9999999N1-00231-00351101741ADDMA1999999096991MD1210221+9999OA149900151REMSYN076AAXX  15044 06712 33/// /1603 11023 21035 39699 40174 52022 333 91103 91203;
0128067120999992010011505004+46333+006917FM-12+038399999V0201701N001519999999N9999999N1-00171-00291101821ADDMA1999999097071MD1210251+9999OA149900151REMSYN076AAXX  15054 06712 33/// /1703 11017 21029 39707 40182 52025 333 91103 91203;
0314067120999992010011506004+46333+006917FM-12+038399999V0202001N000510420019N0160001N1-00291-00421101941ADDAA124000091AJ100029199999999AL19900091GA1081+042001041GF108991999999999999999999GJ100489IA1279IA2999-00609KA1999N-00311MA1999999097171MD1210251+9999OA149900571REMSYN124AAXX  15064 06712 32966 82001 11029 21042 39717 40194 52025 333 21031 3/106 43002 55008 70000 88464 90768 93100 91111 91206;EQDQ01  00002PRCP24
0128067120999992010011507004+46333+006917FM-12+038399999V0201701N001019999999N9999999N1-00081-00221102001ADDMA1999999097261MD1210271+9999OA149900261REMSYN076AAXX  15074 06712 33/// /1702 11008 21022 39726 40200 52027 333 91105 91204;
0128067120999992010011508004+46333+006917FM-12+038399999V0201701N002619999999N9999999N1-00011-00221102071ADDMA1999999097341MD1119999+9999OA149900311REMSYN076AAXX  15084 06712 33/// /1705 11001 21022 39734 40207 51/// 333 91106 91205;
0176067120999992010011509004+46333+006917FM-12+038399999V0201701N001510870019N0180001N1+00111-00231102121ADDGA1051+087001001GF105991999999999999999999MA1999999097411MD1110241+9999OA149900411REMSYN082AAXX  15094 06712 32968 51703 10011 21023 39741 40212 51024 333 85079 91108 91206;
0128067120999992010011510004+46333+006917FM-12+038399999V0203001N000519999999N9999999N1+00341-00211102141ADDMA1999999097471MD1110211+9999OA149900411REMSYN076AAXX  15104 06712 33/// /3001 10034 21021 39747 40214 51021 333 91108 91206;
0128067120999992010011511004+46333+006917FM-12+038399999V0203101N000519999999N9999999N1+00331-00151102191ADDMA1999999097511MD1110171+9999OA149900411REMSYN076AAXX  15114 06712 33/// /3101 10033 21015 39751 40219 51017 333 91108 91204;
0176067120999992010011512004+46333+006917FM-12+038399999V0203301N002112200019N0250001N1+00421-00171102181ADDGA1031+087001001GF103991999999999999999999MA1999999097521MD1210111+9999OA149900411REMSYN082AAXX  15124 06712 32975 33304 10042 21017 39752 40218 52011 333 83079 91108 91206;
0128067120999992010011513004+46333+006917FM-12+038399999V0203301N001519999999N9999999N1+00451+00041102221ADDMA1999999097561MD1210091+9999OA149900511REMSYN076AAXX  15134 06712 33/// /3303 10045 20004 39756 40222 52009 333 91110 91206;
0128067120999992010011514004+46333+006917FM-12+038399999V0203301N002119999999N9999999N1+00441+00041102261ADDMA1999999097601MD1210091+9999OA149900511REMSYN076AAXX  15144 06712 33/// /3304 10044 20004 39760 40226 52009 333 91110 91206;
0176067120999992010011515004+46333+006917FM-12+038399999V0202901N000512200019N0200001N1+00281-00101102351ADDGA1011+036001041GF101991999999999999999999MA1999999097661MD1210141+9999OA149900511REMSYN082AAXX  15154 06712 32970 12901 10028 21010 39766 40235 52014 333 81462 91110 91206;
0128067120999992010011516004+46333+006917FM-12+038399999V0200201N001019999999N9999999N1+00121-00141102431ADDMA1999999097701MD1210141+9999OA149900361REMSYN076AAXX  15164 06712 33/// /0202 10012 21014 39770 40243 52014 333 91107 91204;
0128067120999992010011517004+46333+006917FM-12+038399999V0209999C000019999999N9999999N1-00021-00211102511ADDMA1999999097761MD1310161+9999OA149900151REMSYN076AAXX  15174 06712 33/// /0000 11002 21021 39776 40251 53016 333 91103 91202;
0274067120999992010011518004+46333+006917FM-12+038399999V0201601N001012200019N0100001N1-00111-00251102561ADDAJ100019199999999AL19900091AY101061AY201061GA1031+036001041GF103991999999999999999999IA1309KA1120M+00471MA1999999097791MD1210131+9999MW1101OA149900511REMSYN112AAXX  15184 06712 31960 31602 11011 21025 39779 40256 52013 71000 333 10047 42001 83462 90766 93100 91110 91206;
0128067120999992010011519004+46333+006917FM-12+038399999V0201501N001019999999N9999999N1-00261-00381102611ADDMA1999999097811MD1210111+9999OA149900151REMSYN076AAXX  15194 06712 33/// /1502 11026 21038 39781 40261 52011 333 91103 91202;
0128067120999992010011520004+46333+006917FM-12+038399999V0202201N001019999999N9999999N1-00341-00431102621ADDMA1999999097811MD1010051+9999OA149900261REMSYN076AAXX  15204 06712 33/// /2202 11034 21043 39781 40262 50005 333 91105 91203;
0128067120999992010011521004+46333+006917FM-12+038399999V0203601N001019999999N9999999N1-00211-00291102611ADDMA1999999097821MD1210031+9999OA149900261REMSYN076AAXX  15214 06712 33/// /3602 11021 21029 39782 40261 52003 333 91105 91203;
0128067120999992010011522004+46333+006917FM-12+038399999V0200101N001019999999N9999999N1-00291-00311102651ADDMA1999999097841MD1210031+9999OA149900151REMSYN076AAXX  15224 06712 33/// /0102 11029 21031 39784 40265 52003 333 91103 91202;
0128067120999992010011523004+46333+006917FM-12+038399999V0201601N000519999999N9999999N1-00301-00391102721ADDMA1999999097911MD1310101+9999OA149900261REMSYN076AAXX  15234 06712 33/// /1601 11030 21039 39791 40272 53010 333 91105 91204;
0128067120999992010011600004+46333+006917FM-12+038399999V0209999C000019999999N9999999N1-00271-00341102671ADDMA1999999097871MD1010051+9999OA149900511REMSYN076AAXX  16004 06712 33/// /0000 11027 21034 39787 40267 50005 333 91110 91206;
0128067120999992010011601004+46333+006917FM-12+038399999V0209999C000519999999N9999999N1-00411-00491102711ADDMA1999999097881MD1210041+9999OA149900311REMSYN076AAXX  16014 06712 33/// /0001 11041 21049 39788 40271 52004 333 91106 91204;
0128067120999992010011602004+46333+006917FM-12+038399999V0201501N001519999999N9999999N1-00341-00461102621ADDMA1999999097811MD1710101+9999OA149900311REMSYN076AAXX  16024 06712 33/// /1503 11034 21046 39781 40262 57010 333 91106 91204;
0198067120999992010011603004+46333+006917FM-12+038399999V0201801N001512200019N0080001N1-00391-00541102651ADDAY101031AY201031GA1001+999999999GF100991001001999999001001MA1999999097831MD1719999+9999MW1101OA149900311REMSYN082AAXX  16034 06712 31/58 01803 11039 21054 39783 40265 57/// 71000 333 91106 91204;
0128067120999992010011604004+46333+006917FM-12+038399999V0202401N000519999999N9999999N1-00441-00561102611ADDMA1999999097781MD1710101+9999OA149900311REMSYN076AAXX  16044 06712 33/// /2401 11044 21056 39778 40261 57010 333 91106 91205;
0128067120999992010011605004+46333+006917FM-12+038399999V0200501N000519999999N9999999N1-00381-00461102521ADDMA1999999097701MD1710111+9999OA149900311REMSYN076AAXX  16054 06712 33/// /0501 11038 21046 39770 40252 57011 333 91106 91205;
0308067120999992010011606004+46333+006917FM-12+038399999V0203601N003612200019N0180001N1-00231-00441102441ADDAA124000091AJ100019199999999AL19900091GA1001+999999999GF100991001001999999001001GJ103249IA1309IA2999-00909KA1999N-00601MA1999999097651MD1710181+9999OA149900621REMSYN118AAXX  16064 06712 32/68 03607 11023 21044 39765 40244 57018 333 21060 3/109 42001 55054 70000 90768 93100 91112 91207;EQDQ01  00002PRCP24
0128067120999992010011607004+46333+006917FM-12+038399999V0209999C000019999999N9999999N1-00061-00261102381ADDMA1999999097631MD1710151+9999OA149900671REMSYN076AAXX  16074 06712 33/// /0000 11006 21026 39763 40238 57015 333 91113 91209;
0128067120999992010011608004+46333+006917FM-12+038399999V0203401N002619999999N9999999N1-00101-00271102361ADDMA1999999097601MD1710101+9999OA149900671REMSYN076AAXX  16084 06712 33/// /3405 11010 21027 39760 40236 57010 333 91113 91209;
0170067120999992010011609004+46333+006917FM-12+038399999V0200101N001012200019N0200001N1+00071-00161102281ADDGA1001+999999999GF100991001001999999001001MA1999999097551MD1710101+9999OA149900671REMSYN076AAXX  16094 06712 32/70 00102 10007 21016 39755 40228 57010 333 91113 91209;
0128067120999992010011610004+46333+006917FM-12+038399999V0203501N002619999999N9999999N1+00161-00181102221ADDMA1999999097511MD1710121+9999OA149900461REMSYN076AAXX  16104 06712 33/// /3505 10016 21018 39751 40222 57012 333 91109 91205;
0128067120999992010011611004+46333+006917FM-12+038399999V0203401N005119999999N9999999N1+00201-00121102251ADDMA1999999097551MD1510051+9999OA149900931REMSYN076AAXX  16114 06712 33/// /3410 10020 21012 39755 40225 55005 333 91118 91210;
0204067120999992010011612004+46333+006917FM-12+038399999V0209999C000010870019N0080001N1+00221-00101102211ADDAY111061AY211061GA1061+087001021GF106991999999999999999999MA1999999097511MD1510041+9999MW1101OA149900931REMSYN088AAXX  16124 06712 31958 60000 10022 21010 39751 40221 55004 71011 333 86279 91118 91210;
0128067120999992010011613004+46333+006917FM-12+038399999V0203101N001019999999N9999999N1+00231-00101102121ADDMA1999999097431MD1810081+9999OA149900881REMSYN076AAXX  16134 06712 33/// /3102 10023 21010 39743 40212 58008 333 91117 91209;
0128067120999992010011614004+46333+006917FM-12+038399999V0202001N001019999999N9999999N1+00191-00031102001ADDMA1999999097311MD1719999+9999OA149900311REMSYN076AAXX  16144 06712 33/// /2002 10019 21003 39731 40200 57/// 333 91106 91203;
0204067120999992010011615004+46333+006917FM-12+038399999V0202801N000510420019N0070001N1+00231-00071102001ADDAY121031AY221031GA1081+042001041GF108991999999999999999999MA1999999097311MD1710201+9999MW1101OA149900931REMSYN088AAXX  16154 06712 31957 82801 10023 21007 39731 40200 57020 71022 333 88464 91118 91210;
0128067120999992010011616004+46333+006917FM-12+038399999V0203001N000519999999N9999999N1+00151-00061101981ADDMA1999999097281MD1710151+9999OA149900461REMSYN076AAXX  16164 06712 33/// /3001 10015 21006 39728 40198 57015 333 91109 91205;
0128067120999992010011617004+46333+006917FM-12+038399999V0200901N001519999999N9999999N1+00181-00031102081ADDMA1999999097381MD1310071+9999OA149900411REMSYN076AAXX  16174 06712 33/// /0903 10018 21003 39738 40208 53007 333 91108 91204;
0274067120999992010011618004+46333+006917FM-12+038399999V0201601N000510360019N0050001N1+00151-00061102031ADDAJ100019199999999AL19900091AY121061AY221061GA1081+036001041GF108991999999999999999999IA1259KA1120M+00261MA1999999097331MD1010021+9999MW1101OA149900931REMSYN112AAXX  16184 06712 31950 81601 10015 21006 39733 40203 50002 71022 333 10026 41001 88462 90766 93100 91118 91210;
0128067120999992010011619004+46333+006917FM-12+038399999V0203301N001519999999N9999999N1+00201-00091102031ADDMA1999999097341MD1010061+9999OA149900411REMSYN076AAXX  16194 06712 33/// /3303 10020 21009 39734 40203 50006 333 91108 91205;
0128067120999992010011620004+46333+006917FM-12+038399999V0200801N000519999999N9999999N1+00121-00041102021ADDMA1999999097311MD1710071+9999OA149900311REMSYN076AAXX  16204 06712 33/// /0801 10012 21004 39731 40202 57007 333 91106 91204;
0128067120999992010011621004+46333+006917FM-12+038399999V0201601N002619999999N9999999N1+00171-00041101971ADDMA1999999097271MD1810061+9999OA149900411REMSYN076AAXX  16214 06712 33/// /1605 10017 21004 39727 40197 58006 333 91108 91205;
0128067120999992010011622004+46333+006917FM-12+038399999V0203501N001519999999N9999999N1+00171-00061101981ADDMA1999999097281MD1710061+9999OA149900361REMSYN076AAXX  16224 06712 33/// /3503 10017 21006 39728 40198 57006 333 91107 91205;
0145067120999992010011623004+46333+006917FM-12+038399999V0201701N001019999999N9999999N1+00151+00001102141ADDAA101000591MA1999999097431MD1310121+9999OA149900311REMSYN082AAXX  16234 06712 23/// /1702 10015 20000 39743 40214 53012 333 69965 91106 91205;
0151067120999992010011700004+46333+006917FM-12+038399999V0201501N006219999999N9999999N1+00171-00021102101ADDAA106002091MA1999999097401MD1210131+9999OA149900721REMSYN088AAXX  17004 06712 03/// /1512 10017 21002 39740 40210 52013 60021 333 60025 91114 91212;
0145067120999992010011701004+46333+006917FM-12+038399999V0201401N002119999999N9999999N1+00221+00001102061ADDAA101000021MA1999999097371MD1010091+9999OA149900721REMSYN082AAXX  17014 06712 23/// /1404 10022 20000 39737 40206 50009 333 69915 91114 91212;
