0137067170999992010010100004+45867+007167FM-12+247999999V0202701N001519999999N9999999N1-00621-00961999999ADDMA1999999072961MD1610121+9999ME1428119OA149900511REMSYN076AAXX  01004 06717 33/// /2703 11062 21096 37296 47811 56012 333 91110 91206;
0137067170999992010010101004+45867+007167FM-12+247999999V0202801N001519999999N9999999N1-00681-00871999999ADDMA1999999072901MD1810161+9999ME1428049OA149900461REMSYN076AAXX  01014 06717 33/// /2803 11068 21087 37290 47804 58016 333 91109 91205;
0137067170999992010010102004+45867+007167FM-12+247999999V0202901N002119999999N9999999N1-00661-00851999999ADDMA1999999072861MD1619999+9999ME1428009OA149900361REMSYN076AAXX  01024 06717 33/// /2904 11066 21085 37286 47800 56/// 333 91107 91204;
0096067170999992010010103004+45867+007167FM-12+247999999V0202801N001519999999N9999999N1-00661-00871999999ADDMA1999999072801ME1427949REMSYN060AAXX  01034 06717 43/// /2803 11066 21087 37280 47794 5////;
0096067170999992010010104004+45867+007167FM-12+247999999V0202701N002619999999N9999999N1-00661-01011999999ADDMA1999999072751ME1427889REMSYN060AAXX  01044 06717 33/// /2705 11066 21101 37275 47788 5////;
0137067170999992010010105004+45867+007167FM-12+247999999V0200801N002119999999N9999999N1-00741-01011999999ADDMA1999999072721MD1610141+9999ME1427849OA149900361REMSYN076AAXX  01054 06717 33/// /0804 11074 21101 37272 47784 56014 333 91107 91205;
0291067170999992010010106004+45867+007167FM-12+247999999V0200801N003610360019N0750001N1-00701-00991999999ADDAA124009991AL14800991AL29900091GA1071+036001041GF107991999999999999999999GJ100669IA1239KA1999N-00751MA1999999072691MD1610111+9999ME1427819MW1001OA149900461REMSYN124AAXX  01064 06717 31989 70807 11070 21099 37269 47781 56011 700// 333 21075 47/// 55011 70098 87462 90768 93100 91109 91207;
0137067170999992010010107004+45867+007167FM-12+247999999V0200801N003119999999N9999999N1-00691-00961999999ADDMA1999999072701MD1710051+9999ME1427839OA149900461REMSYN076AAXX  01074 06717 33/// /0806 11069 21096 37270 47783 57005 333 91109 91207;
0137067170999992010010108004+45867+007167FM-12+247999999V0200801N003119999999N9999999N1-00711-01091999999ADDMA1999999072741MD1310021+9999ME1427879OA149900461REMSYN076AAXX  01084 06717 33/// /0806 11071 21109 37274 47787 53002 333 91109 91207;
0137067170999992010010109004+45867+007167FM-12+247999999V0200801N002619999999N9999999N1-00651-01051999999ADDMA1999999072781MD1210091+9999ME1427929OA149900461REMSYN076AAXX  01094 06717 33/// /0805 11065 21105 37278 47792 52009 333 91109 91207;
0137067170999992010010110004+45867+007167FM-12+247999999V0200801N003619999999N9999999N1-00711-01071999999ADDMA1999999072811MD1310111+9999ME1427949OA149900571REMSYN076AAXX  01104 06717 33/// /0807 11071 21107 37281 47794 53011 333 91111 91208;
0137067170999992010010111004+45867+007167FM-12+247999999V0201001N004619999999N9999999N1-00681-01081999999ADDMA1999999072811MD1110071+9999ME1427949OA149900621REMSYN076AAXX  01114 06717 33/// /1009 11068 21108 37281 47794 51007 333 91112 91209;
0207067170999992010010112004+45867+007167FM-12+247999999V0201101N004610102019N0750001N1-00651-00981999999ADDGA1011+005401071GA2061+010201061GF107991999999004501999999MA1999999072811MD1210031+9999ME1427959OA149900621REMSYN088AAXX  01124 06717 32489 71109 11065 21098 37281 47795 52003 333 81718 86634 91112 91209;
0137067170999992010010113004+45867+007167FM-12+247999999V0201001N004619999999N9999999N1-00671-00911999999ADDMA1999999072831MD1210021+9999ME1427979OA149900721REMSYN076AAXX  01134 06717 33/// /1009 11067 21091 37283 47797 52002 333 91114 91209;
0137067170999992010010114004+45867+007167FM-12+247999999V0201201N004119999999N9999999N1-00651-00831999999ADDMA1999999072901MD1219999+9999ME1428049OA149900721REMSYN076AAXX  01144 06717 33/// /1208 11065 21083 37290 47804 52/// 333 91114 91209;
0154067170999992010010115004+45867+007167FM-12+247999999V0200901N002619999999N9999999N1-00571-00751999999ADDAA101000021MA1999999072971MD1310161+9999ME1428139OA149900771REMSYN082AAXX  01154 06717 23/// /0905 11057 21075 37297 47813 53016 333 69915 91115 91209;
0154067170999992010010116004+45867+007167FM-12+247999999V0201101N005719999999N9999999N1-00641-00711999999ADDAA101000591MA1999999073031MD1110201+9999ME1428189OA149900821REMSYN082AAXX  01164 06717 23/// /1111 11064 21071 37303 47818 51020 333 69945 91116 91211;
0154067170999992010010117004+45867+007167FM-12+247999999V0201001N005719999999N9999999N1-00681-00691999999ADDAA101002091MA1999999073131MD1310231+9999ME1428289OA149900881REMSYN082AAXX  01174 06717 23/// /1011 11068 21069 37313 47828 53023 333 60025 91117 91212;
0283067170999992010010118004+45867+007167FM-12+247999999V0200901N008210003019N0002001N1-00741-00751999999ADDAA112013091AL11200791AY171061AY241061GA1091+999999999GF109991091999999999999999IA1239KA1120M-00561MA1999999073231MD1310261+9999ME1428389MW1721OA149901241REMSYN118AAXX  01184 06717 01/02 90916 11074 21075 37323 47838 53026 60132 77274 333 11056 47/// 60115 90766 93107 91124 91218;
0154067170999992010010119004+45867+007167FM-12+247999999V0200901N012319999999N9999999N1-00771-00771999999ADDAA101007991MA1999999073281MD1110251+9999ME1428439OA149901701REMSYN082AAXX  01194 06717 23/// /0924 11077 21077 37328 47843 51025 333 60085 91133 91224;
0154067170999992010010120004+45867+007167FM-12+247999999V0201001N006219999999N9999999N1-00831-00831999999ADDAA101003091MA1999999073361MD1110231+9999ME1428519OA149901701REMSYN082AAXX  01204 06717 23/// /1012 11083 21083 37336 47851 51023 333 60035 91133 91224;
0131067170999992010010121004+45867+007167FM-12+247999999V0201001N008719999999N9999999N1-00861-00881999999ADDAA101001091MA1999999073441MD1210211+9999ME1428599REMSYN070AAXX  01214 06717 23/// /1017 11086 21088 37344 47859 52021 333 60015;
0131067170999992010010122004+45867+007167FM-12+247999999V0201001N006719999999N9999999N1-00941-01131999999ADDAA101000891MA1999999073501MD1110221+9999ME1428649REMSYN070AAXX  01224 06717 23/// /1013 11094 21113 37350 47864 51022 333 69985;
0154067170999992010010123004+45867+007167FM-12+247999999V0201001N004119999999N9999999N1-01001-01001999999ADDAA101000021MA1999999073521MD1210161+9999ME1428659OA149901131REMSYN082AAXX  01234 06717 23/// /1008 11100 21100 37352 47865 52016 333 69915 91122 91217;
0137067170999992010010200004+45867+007167FM-12+247999999V0200901N004619999999N9999999N1-01041-01061999999ADDAA106013091MA1999999073521MD1210081+9999ME1428649REMSYN076AAXX  02004 06717 03/// /0909 11104 21106 37352 47864 52008 60131 333 69915;
0154067170999992010010201004+45867+007167FM-12+247999999V0200901N005719999999N9999999N1-01101-01131999999ADDAA101000021MA1999999073551MD1210051+9999ME1428679OA149900881REMSYN082AAXX  02014 06717 23/// /0911 11110 21113 37355 47867 52005 333 69915 91117 91211;
0117067170999992010010202004+45867+007167FM-12+247999999V0200901N005119999999N9999999N1-01181-01211999999ADDAA101000591MA1999999073641ME1428759REMSYN070AAXX  02024 06717 23/// /0910 11118 21121 37364 47875 5//// 333 69955;
0154067170999992010010203004+45867+007167FM-12+247999999V0200901N004619999999N9999999N1-01211-01481999999ADDAA101000591MA1999999073691MD1110171+9999ME1428799OA149901131REMSYN082AAXX  02034 06717 23/// /0909 11121 21148 37369 47879 51017 333 69945 91122 91217;
0154067170999992010010204004+45867+007167FM-12+247999999V0200801N005719999999N9999999N1-01291-01301999999ADDAA101000591MA1999999073681MD1210131+9999ME1428779OA149901131REMSYN082AAXX  02044 06717 23/// /0811 11129 21130 37368 47877 52013 333 69945 91122 91214;
0154067170999992010010205004+45867+007167FM-12+247999999V0200901N008219999999N9999999N1-01371-01371999999ADDAA101001091MA1999999073661MD1010021+9999ME1428749OA149901241REMSYN082AAXX  02054 06717 23/// /0916 11137 21137 37366 47874 50002 333 60015 91124 91217;
0291067170999992010010206004+45867+007167FM-12+247999999V0200901N007710001519N0000001N1-01461-01471999999ADDAA112017091AA224029791AL13602991AY171061AY241061GA1091+999999999GF109991091999999999999999GJ100129IA1239KA1999N-01411MA1999999073671MD1710021+9999ME1428739MW1731REMSYN118AAXX  02064 06717 01/00 90915 11146 21147 37367 47873 57002 60172 77374 333 21141 47/// 55002 60015 70296 90768 93116;
0154067170999992010010207004+45867+007167FM-12+247999999V0200901N008219999999N9999999N1-01491-01531999999ADDAA101001091MA1999999073741MD1310061+9999ME1428809OA149901241REMSYN082AAXX  02074 06717 23/// /0916 11149 21153 37374 47880 53006 333 60015 91124 91217;
0117067170999992010010208004+45867+007167FM-12+247999999V0200901N008219999999N9999999N1-01521-01521999999ADDAA101001091MA1999999073771ME1428839REMSYN070AAXX  02084 06717 23/// /0916 11152 21152 37377 47883 5//// 333 60015;
0154067170999992010010209004+45867+007167FM-12+247999999V0200901N008719999999N9999999N1-01561-01561999999ADDAA101000891MA1999999073811MD1210141+9999ME1428869OA149901241REMSYN082AAXX  02094 06717 23/// /0917 11156 21156 37381 47886 52014 333 69975 91124 91217;
0154067170999992010010210004+45867+007167FM-12+247999999V0200901N012919999999N9999999N1-01531-01531999999ADDAA101003091MA1999999073831MD1210091+9999ME1428899OA149901651REMSYN082AAXX  02104 06717 23/// /0925 11153 21153 37383 47889 52009 333 60035 91132 91225;
0154067170999992010010211004+45867+007167FM-12+247999999V0200901N012319999999N9999999N1-01541-01541999999ADDAA101004191MA1999999073851MD1210081+9999ME1428919OA149901801REMSYN082AAXX  02114 06717 23/// /0924 11154 21154 37385 47891 52008 333 60045 91135 91225;
0230067170999992010010212004+45867+007167FM-12+247999999V0200901N013910001519N0000001N1-01581-01581999999ADDAA106016091AY171061AY241061GA1091+999999999GF109991091999999999999999MA1999999073881MD1210071+9999ME1428939MW1701OA149902011REMSYN094AAXX  02124 06717 01/00 90927 11158 21158 37388 47893 52007 60161 77074 333 60055 91139 91227;
0154067170999992010010213004+45867+007167FM-12+247999999V0200901N012319999999N9999999N1-01651-01761999999ADDAA101005191MA1999999073941MD1210111+9999ME1428989OA149902371REMSYN082AAXX  02134 06717 23/// /0924 11165 21176 37394 47898 52011 333 60055 91146 91229;
0137067170999992010010214004+45867+007167FM-12+247999999V0201001N010319999999N9999999N1-01691-01901999999ADDMA1999999074011MD1219999+9999ME1429049OA149902371REMSYN076AAXX  02144 06717 33/// /1020 11169 21190 37401 47904 52/// 333 91146 91229;
0137067170999992010010215004+45867+007167FM-12+247999999V0201001N010819999999N9999999N1-01711-01961999999ADDMA1999999074091MD1210211+9999ME1429129OA149902371REMSYN076AAXX  02154 06717 33/// /1021 11171 21196 37409 47912 52021 333 91146 91229;
0137067170999992010010216004+45867+007167FM-12+247999999V0200901N010319999999N9999999N1-01731-01961999999ADDMA1999999074171MD1210231+9999ME1429209OA149902011REMSYN076AAXX  02164 06717 33/// /0920 11173 21196 37417 47920 52023 333 91139 91222;
0137067170999992010010217004+45867+007167FM-12+247999999V0201101N008219999999N9999999N1-01851-01851999999ADDMA1999999074231MD1110221+9999ME1429239OA149902011REMSYN076AAXX  02174 06717 33/// /1116 11185 21185 37423 47923 51022 333 91139 91221;
0241067170999992010010218004+45867+007167FM-12+247999999V0201201N008219999999N0750001N1-01751-01941999999ADDAA112020191AL11200891AY171061AY241061IA1239KA1120M-01441MA1999999074251MD1210161+9999ME1429279MW1011OA149902371REMSYN118AAXX  02184 06717 01/89 /1216 11175 21194 37425 47927 52016 60202 70174 333 11144 47/// 60005 90766 93108 91146 91229;
0137067170999992010010219004+45867+007167FM-12+247999999V0201301N005719999999N9999999N1-01771-02121999999ADDMA1999999074291MD1210121+9999ME1429319OA149901701REMSYN076AAXX  02194 06717 33/// /1311 11177 21212 37429 47931 52012 333 91133 91219;
0137067170999992010010220004+45867+007167FM-12+247999999V0201201N006719999999N9999999N1-01751-02251999999ADDMA1999999074331MD1210101+9999ME1429359OA149901801REMSYN076AAXX  02204 06717 33/// /1213 11175 21225 37433 47935 52010 333 91135 91218;
0137067170999992010010221004+45867+007167FM-12+247999999V0201101N003119999999N9999999N1-01691-02501999999ADDMA1999999074321MD1210071+9999ME1429359OA149902011REMSYN076AAXX  02214 06717 33/// /1106 11169 21250 37432 47935 52007 333 91139 91221;
0137067170999992010010222004+45867+007167FM-12+247999999V0201201N004119999999N9999999N1-01781-02411999999ADDMA1999999074361MD1210071+9999ME1429389OA149901391REMSYN076AAXX  02224 06717 33/// /1208 11178 21241 37436 47938 52007 333 91127 91212;
0137067170999992010010223004+45867+007167FM-12+247999999V0201201N005119999999N9999999N1-01771-02451999999ADDMA1999999074401MD1210071+9999ME1429429OA149901241REMSYN076AAXX  02234 06717 33/// /1210 11177 21245 37440 47942 52007 333 91124 91213;
0137067170999992010010300004+45867+007167FM-12+247999999V0201101N004619999999N9999999N1-01771-02501999999ADDMA1999999074391MD1210071+9999ME1429419OA149902371REMSYN076AAXX  03004 06717 33/// /1109 11177 21250 37439 47941 52007 333 91146 91229;
0137067170999992010010301004+45867+007167FM-12+247999999V0201201N005119999999N9999999N1-01731-02621999999ADDMA1999999074391MD1010031+9999ME1429429OA149900981REMSYN076AAXX  03014 06717 33/// /1210 11173 21262 37439 47942 50003 333 91119 91211;
0096067170999992010010302004+45867+007167FM-12+247999999V0201201N004619999999N9999999N1-01731-02651999999ADDMA1999999074461ME1429489REMSYN060AAXX  03024 06717 33/// /1209 11173 21265 37446 47948 5////;
0096067170999992010010303004+45867+007167FM-12+247999999V0201001N003119999999N9999999N1-01791-02571999999ADDMA1999999074451ME1429469REMSYN060AAXX  03034 06717 33/// /1006 11179 21257 37445 47946 5////;
0137067170999992010010304004+45867+007167FM-12+247999999V0201001N002619999999N9999999N1-01561-02521999999ADDMA1999999074441MD1010051+9999ME1429509OA149900671REMSYN076AAXX  03044 06717 33/// /1005 11156 21252 37444 47950 50005 333 91113 91210;
0137067170999992010010305004+45867+007167FM-12+247999999V0200701N002619999999N9999999N1-01591-02501999999ADDMA1999999074431MD1719999+9999ME1429489OA149900461REMSYN076AAXX  03054 06717 33/// /0705 11159 21250 37443 47948 57/// 333 91109 91205;
0279067170999992010010306004+45867+007167FM-12+247999999V0200701N001512200019N0750001N1-01481-02761999999ADDAA124020891AL14802091AL29900091GA1011+010201061GF101991999999012501999999GJ100009IA1239KA1999N-01871MA1999999074441MD1210011+9999ME1429519OA149901801REMSYN118AAXX  03064 06717 32689 10703 11148 21276 37444 47951 52001 333 21187 47/// 55000 70208 81634 90768 93100 91135 91218;
0156067170999992010010307004+45867+007167FM-12+247999999V0203101N000519999999N9999999N1-01341-02601999999ADDMA1999999074441MD1410001+9999ME1429549OA149900361REMSYN076AAXX  03074 06717 33/// /3101 11134 21260 37444 47954 58000 333 91107 91205;EQDQ01+000082APCTEN
0137067170999992010010308004+45867+007167FM-12+247999999V0209999C000019999999N9999999N1-01311-02411999999ADDMA1999999074481MD1319999+9999ME1429589OA149900311REMSYN076AAXX  03084 06717 33/// /0000 11131 21241 37448 47958 53/// 333 91106 91204;
0137067170999992010010309004+45867+007167FM-12+247999999V0200801N001519999999N9999999N1-01251-02591999999ADDMA1999999074511MD1210071+9999ME1429629OA149900461REMSYN076AAXX  03094 06717 33/// /0803 11125 21259 37451 47962 52007 333 91109 91206;
0137067170999992010010310004+45867+007167FM-12+247999999V0200801N001019999999N9999999N1-01161-02701999999ADDMA1999999074521MD1210081+9999ME1429659OA149900411REMSYN076AAXX  03104 06717 33/// /0802 11116 21270 37452 47965 52008 333 91108 91206;
0137067170999992010010311004+45867+007167FM-12+247999999V0200901N001019999999N9999999N1-01091-02571999999ADDMA1999999074461MD1810021+9999ME1429609OA149900361REMSYN076AAXX  03114 06717 33/// /0902 11109 21257 37446 47960 58002 333 91107 91205;
0185067170999992010010312004+45867+007167FM-12+247999999V0200901N001510210019N0750001N1-01161-02271999999ADDGA1071+021001041GF108991999999022501999999MA1999999074431MD1710081+9999ME1429569OA149900981REMSYN082AAXX  03124 06717 32889 80903 11116 21227 37443 47956 57008 333 87457 91119 91211;
0137067170999992010010313004+45867+007167FM-12+247999999V0200801N001519999999N9999999N1-01121-02281999999ADDMA1999999074421MD1710101+9999ME1429569OA149900361REMSYN076AAXX  03134 06717 33/// /0803 11112 21228 37442 47956 57010 333 91107 91204;
0137067170999992010010314004+45867+007167FM-12+247999999V0200701N001519999999N9999999N1-01141-02161999999ADDMA1999999074431MD1510031+9999ME1429569OA149900411REMSYN076AAXX  03144 06717 33/// /0703 11114 21216 37443 47956 55003 333 91108 91206;
0137067170999992010010315004+45867+007167FM-12+247999999V0200501N001519999999N9999999N1-01111-02311999999ADDMA1999999074451MD1210021+9999ME1429599OA149900411REMSYN076AAXX  03154 06717 33/// /0503 11111 21231 37445 47959 52002 333 91108 91206;
0137067170999992010010316004+45867+007167FM-12+247999999V0201001N001019999999N9999999N1-01151-02301999999ADDMA1999999074431MD1010011+9999ME1429569OA149900311REMSYN076AAXX  03164 06717 33/// /1002 11115 21230 37443 47956 50001 333 91106 91204;
0137067170999992010010317004+45867+007167FM-12+247999999V0200801N001519999999N9999999N1-01191-02181999999ADDMA1999999074391MD1710041+9999ME1429519OA149900311REMSYN076AAXX  03174 06717 33/// /0803 11119 21218 37439 47951 57004 333 91106 91204;
0202067170999992010010318004+45867+007167FM-12+247999999V0200801N001519999999N0750001N1-01201-01981999999ADDAL19900091IA1239KA1120M-01051MA1999999074411MD1710041+9999ME1429539MW1001OA149900411REMSYN106AAXX  03184 06717 31/89 /0803 11120 21198 37441 47953 57004 700// 333 11105 47/// 90766 93100 91108 91206;
0137067170999992010010319004+45867+007167FM-12+247999999V0209999C000019999999N9999999N1-01211-01871999999ADDMA1999999074391MD1710041+9999ME1429519OA149900361REMSYN076AAXX  03194 06717 33/// /0000 11121 21187 37439 47951 57004 333 91107 91204;
0137067170999992010010320004+45867+007167FM-12+247999999V0202701N003619999999N9999999N1-01211-01751999999ADDMA1999999074361MD1710031+9999ME1429489OA149900511REMSYN076AAXX  03204 06717 33/// /2707 11121 21175 37436 47948 57003 333 91110 91207;
0137067170999992010010321004+45867+007167FM-12+247999999V0202701N004119999999N9999999N1-01201-01761999999ADDMA1999999074351MD1710061+9999ME1429479OA149900571REMSYN076AAXX  03214 06717 33/// /2708 11120 21176 37435 47947 57006 333 91111 91209;
0137067170999992010010322004+45867+007167FM-12+247999999V0202801N004619999999N9999999N1-01291-01761999999ADDMA1999999074351MD1710041+9999ME1429459OA149900771REMSYN076AAXX  03224 06717 33/// /2809 11129 21176 37435 47945 57004 333 91115 91212;
0137067170999992010010323004+45867+007167FM-12+247999999V0202701N007219999999N9999999N1-01391-01781999999ADDMA1999999074321MD1710041+9999ME1429419OA149900821REMSYN076AAXX  03234 06717 33/// /2714 11139 21178 37432 47941 57004 333 91116 91214;
0137067170999992010010400004+45867+007167FM-12+247999999V0202801N006719999999N9999999N1-01421-01831999999ADDMA1999999074271MD1710081+9999ME1429359OA149900931REMSYN076AAXX  04004 06717 33/// /2813 11142 21183 37427 47935 57008 333 91118 91215;
0137067170999992010010401004+45867+007167FM-12+247999999V0202801N007219999999N9999999N1-01431-01721999999ADDMA1999999074221MD1810131+9999ME1429309OA149900931REMSYN076AAXX  04014 06717 33/// /2814 11143 21172 37422 47930 58013 333 91118 91215;
0137067170999992010010402004+45867+007167FM-12+247999999V0202701N007219999999N9999999N1-01371-01581999999ADDMA1999999074221MD1710101+9999ME1429319OA149900881REMSYN076AAXX  04024 06717 33/// /2714 11137 21158 37422 47931 57010 333 91117 91215;
0137067170999992010010403004+45867+007167FM-12+247999999V0202801N005719999999N9999999N1-01361-01591999999ADDMA1999999074191MD1719999+9999ME1429289OA149900931REMSYN076AAXX  04034 06717 33/// /2811 11136 21159 37419 47928 57/// 333 91118 91215;
0137067170999992010010404004+45867+007167FM-12+247999999V0202801N004119999999N9999999N1-01411-01581999999ADDMA1999999074121MD1710101+9999ME1429209OA149900771REMSYN076AAXX  04044 06717 33/// /2808 11141 21158 37412 47920 57010 333 91115 91212;
0137067170999992010010405004+45867+007167FM-12+247999999V0202901N004119999999N9999999N1-01341-01361999999ADDMA1999999074081MD1810141+9999ME1429179OA149900771REMSYN076AAXX  04054 06717 33/// /2908 11134 21136 37408 47917 58014 333 91115 91211;
0342067170999992010010406004+45867+007167FM-12+247999999V0202901N005710054019N0050001N1-01321-01361999999ADDAA112000021AA224000021AL19900091AY171061AY221061GA1021+000301071GA2061+005401071GF107991999999000251999999GJ100009IA1239KA1999N-01461MA1999999074081MD1710111+9999ME1429179MW1761OA149900931REMSYN142AAXX  04064 06717 01050 72911 11132 21136 37408 47917 57011 69912 77672 333 21146 47/// 55000 69915 70000 82701 86718 90768 93100 91118 91215;
0137067170999992010010407004+45867+007167FM-12+247999999V0202801N003119999999N9999999N1-01141-01181999999ADDMA1999999074081MD1710041+9999ME1429219OA149900721REMSYN076AAXX  04074 06717 33/// /2806 11114 21118 37408 47921 57004 333 91114 91211;
0137067170999992010010408004+45867+007167FM-12+247999999V0202901N004619999999N9999999N1-01051-01211999999ADDMA1999999074091MD1310011+9999ME1429239OA149900721REMSYN076AAXX  04084 06717 33/// /2909 11105 21121 37409 47923 53001 333 91114 91211;
0137067170999992010010409004+45867+007167FM-12+247999999V0202801N005719999999N9999999N1-01191-01231999999ADDMA1999999074101MD1210021+9999ME1429229OA149900771REMSYN076AAXX  04094 06717 33/// /2811 11119 21123 37410 47922 52002 333 91115 91211;
0137067170999992010010410004+45867+007167FM-12+247999999V0202801N005719999999N9999999N1-01231-01271999999ADDMA1999999074101MD1210021+9999ME1429219OA149900881REMSYN076AAXX  04104 06717 33/// /2811 11123 21127 37410 47921 52002 333 91117 91213;
0137067170999992010010411004+45867+007167FM-12+247999999V0202801N005719999999N9999999N1-01211-01461999999ADDMA1999999074061MD1710031+9999ME1429179OA149900881REMSYN076AAXX  04114 06717 33/// /2811 11121 21146 37406 47917 57003 333 91117 91213;
0213067170999992010010412004+45867+007167FM-12+247999999V0202801N004110033019N0050001N1-01111-01381999999ADDAY171061AY221061GA1081+003301041GF108991999999004501999999MA1999999074001MD1710101+9999ME1429139MW1771OA149900881REMSYN088AAXX  04124 06717 31450 82808 11111 21138 37400 47913 57010 77772 333 88411 91117 91215;
0137067170999992010010413004+45867+007167FM-12+247999999V0202901N003619999999N9999999N1-00871-01161999999ADDMA1999999073931MD1810171+9999ME1429109OA149900771REMSYN076AAXX  04134 06717 33/// /2907 11087 21116 37393 47910 58017 333 91115 91211;
0137067170999992010010414004+45867+007167FM-12+247999999V0202601N001519999999N9999999N1-00721-00991999999ADDMA1999999073901MD1619999+9999ME1429099OA149900621REMSYN076AAXX  04144 06717 33/// /2603 11072 21099 37390 47909 56/// 333 91112 91208;
0137067170999992010010415004+45867+007167FM-12+247999999V0203001N000519999999N9999999N1-00721-00941999999ADDMA1999999073921MD1710081+9999ME1429119OA149900881REMSYN076AAXX  04154 06717 33/// /3001 11072 21094 37392 47911 57008 333 91117 91213;
0137067170999992010010416004+45867+007167FM-12+247999999V0202701N002119999999N9999999N1-00751-00921999999ADDMA1999999073911MD1710021+9999ME1429099OA149900571REMSYN076AAXX  04164 06717 33/// /2704 11075 21092 37391 47909 57002 333 91111 91208;
0154067170999992010010417004+45867+007167FM-12+247999999V0202801N003119999999N9999999N1-00791-00981999999ADDAA101000021MA1999999073881MD1710021+9999ME1429069OA149900571REMSYN082AAXX  04174 06717 23/// /2806 11079 21098 37388 47906 57002 333 69925 91111 91208;
0241067170999992010010418004+45867+007167FM-12+247999999V0200901N002119999999N0080001N1-00861-00911999999ADDAA112000021AL11200291AY171061AY221061IA1239KA1120M-00651MA1999999073891MD1710031+9999ME1429069MW1701OA149900881REMSYN118AAXX  04184 06717 01/58 /0904 11086 21091 37389 47906 57003 69922 77072 333 11065 47/// 60005 90766 93102 91117 91213;
0137067170999992010010419004+45867+007167FM-12+247999999V0203201N000519999999N9999999N1-00811-00951999999ADDMA1999999073881MD1710031+9999ME1429059OA149900511REMSYN076AAXX  04194 06717 33/// /3201 11081 21095 37388 47905 57003 333 91110 91208;
0154067170999992010010420004+45867+007167FM-12+247999999V0202701N002619999999N9999999N1-00801-00931999999ADDAA101000021MA1999999073871MD1710011+9999ME1429049OA149900411REMSYN082AAXX  04204 06717 23/// /2705 11080 21093 37387 47904 57001 333 69915 91108 91205;
0137067170999992010010421004+45867+007167FM-12+247999999V0202601N001019999999N9999999N1-00791-01001999999ADDMA1999999073871MD1710021+9999ME1429059OA149900571REMSYN076AAXX  04214 06717 33/// /2602 11079 21100 37387 47905 57002 333 91111 91208;
0137067170999992010010422004+45867+007167FM-12+247999999V0202901N001519999999N9999999N1-00791-00981999999ADDMA1999999073861MD1710021+9999ME1429049OA149900571REMSYN076AAXX  04224 06717 33/// /2903 11079 21098 37386 47904 57002 333 91111 91205;
0137067170999992010010423004+45867+007167FM-12+247999999V0202701N002119999999N9999999N1-00821-01021999999ADDMA1999999073841MD1710031+9999ME1429019OA149900571REMSYN076AAXX  04234 06717 33/// /2704 11082 21102 37384 47901 57003 333 91111 91205;
0160067170999992010010500004+45867+007167FM-12+247999999V0202701N002119999999N9999999N1-00811-01021999999ADDAA106000021MA1999999073811MD1810061+9999ME1428989OA149900621REMSYN088AAXX  05004 06717 03/// /2704 11081 21102 37381 47898 58006 69911 333 60005 91112 91208;
0137067170999992010010501004+45867+007167FM-12+247999999V0203001N003619999999N9999999N1-00861-01031999999ADDMA1999999073751MD1810111+9999ME1428919OA149900571REMSYN076AAXX  05014 06717 33/// /3007 11086 21103 37375 47891 58011 333 91111 91207;
0137067170999992010010502004+45867+007167FM-12+247999999V0203301N001019999999N9999999N1-00921-01141999999ADDMA1999999073741MD1610101+9999ME1428899OA149900571REMSYN076AAXX  05024 06717 33/// /3302 11092 21114 37374 47889 56010 333 91111 91207;
0137067170999992010010503004+45867+007167FM-12+247999999V0203001N001019999999N9999999N1-01011-01431999999ADDMA1999999073701MD1610111+9999ME1428839OA149900571REMSYN076AAXX  05034 06717 33/// /3002 11101 21143 37370 47883 56011 333 91111 91207;
0137067170999992010010504004+45867+007167FM-12+247999999V0202901N001519999999N9999999N1-01051-01501999999ADDMA1999999073651MD1810101+9999ME1428789OA149900571REMSYN076AAXX  05044 06717 33/// /2903 11105 21150 37365 47878 58010 333 91111 91205;
0137067170999992010010505004+45867+007167FM-12+247999999V0202901N001019999999N9999999N1-01081-01541999999ADDMA1999999073621MD1610121+9999ME1428749OA149900571REMSYN076AAXX  05054 06717 33/// /2902 11108 21154 37362 47874 56012 333 91111 91205;
0304067170999992010010506004+45867+007167FM-12+247999999V0202801N000512200019N0750001N1-01071-01361999999ADDAA112000021AA224000591AL19900091GA1011+005401071GF103991999999004501999999GJ100429IA1239KA1999N-01121MA1999999073581MD1610121+9999ME1428709MW1001OA149900571REMSYN136AAXX  05064 06717 01489 32801 11107 21136 37358 47870 56012 69912 700// 333 21112 47/// 55007 60005 70004 81718 90768 93100 91111 91207;
0137067170999992010010507004+45867+007167FM-12+247999999V0202901N002119999999N9999999N1-01101-01511999999ADDMA1999999073571MD1710081+9999ME1428699OA149900361REMSYN076AAXX  05074 06717 33/// /2904 11110 21151 37357 47869 57008 333 91107 91204;
0137067170999992010010508004+45867+007167FM-12+247999999V0202701N002119999999N9999999N1-01031-01451999999ADDMA1999999073561MD1710061+9999ME1428699OA149900411REMSYN076AAXX  05084 06717 33/// /2704 11103 21145 37356 47869 57006 333 91108 91204;
0137067170999992010010509004+45867+007167FM-12+247999999V0202701N001019999999N9999999N1-00991-01401999999ADDMA1999999073551MD1710031+9999ME1428689OA149900571REMSYN076AAXX  05094 06717 33/// /2702 11099 21140 37355 47868 57003 333 91111 91206;
0137067170999992010010510004+45867+007167FM-12+247999999V0202701N002119999999N9999999N1-01001-01481999999ADDMA1999999073541MD1710031+9999ME1428679OA149900411REMSYN076AAXX  05104 06717 33/// /2704 11100 21148 37354 47867 57003 333 91108 91206;
0137067170999992010010511004+45867+007167FM-12+247999999V0202801N002619999999N9999999N1-01011-01291999999ADDMA1999999073461MD1710101+9999ME1428599OA149900411REMSYN076AAXX  05114 06717 33/// /2805 11101 21129 37346 47859 57010 333 91108 91205;
0207067170999992010010512004+45867+007167FM-12+247999999V0202701N001510660019N0750001N1-00941-01421999999ADDGA1011+007201071GA2061+066001011GF107991999999008001999999MA1999999073381MD1810171+9999ME1428519OA149900571REMSYN088AAXX  05124 06717 32589 72703 11094 21142 37338 47851 58017 333 81724 86172 91111 91207;
0137067170999992010010513004+45867+007167FM-12+247999999V0202501N001519999999N9999999N1-00931-01261999999ADDMA1999999073341MD1610201+9999ME1428479OA149900511REMSYN076AAXX  05134 06717 33/// /2503 11093 21126 37334 47847 56020 333 91110 91206;
0096067170999992010010514004+45867+007167FM-12+247999999V0202601N001519999999N9999999N1-00921-01391999999ADDMA1999999073301ME1428439REMSYN060AAXX  05144 06717 33/// /2603 11092 21139 37330 47843 5////;
0137067170999992010010515004+45867+007167FM-12+247999999V0202901N001019999999N9999999N1-00941-01461999999ADDMA1999999073281MD1610101+9999ME1428419OA149900511REMSYN076AAXX  05154 06717 33/// /2902 11094 21146 37328 47841 56010 333 91110 91206;
0137067170999992010010516004+45867+007167FM-12+247999999V0202801N001519999999N9999999N1-01051-01661999999ADDMA1999999073271MD1710071+9999ME1428389OA149900461REMSYN076AAXX  05164 06717 33/// /2803 11105 21166 37327 47838 57007 333 91109 91206;
0137067170999992010010517004+45867+007167FM-12+247999999V0202901N001519999999N9999999N1-01021-01581999999ADDMA1999999073251MD1710051+9999ME1428379OA149900311REMSYN076AAXX  05174 06717 33/// /2903 11102 21158 37325 47837 57005 333 91106 91204;
0232067170999992010010518004+45867+007167FM-12+247999999V0202801N001012200019N0750001N1-01031-01671999999ADDAL19900091GA1001+999999999GF100991001001999999001001IA1239KA1120M-00861MA1999999073231MD1710051+9999ME1428349OA149900511REMSYN100AAXX  05184 06717 32/89 02802 11103 21167 37323 47834 57005 333 11086 47/// 90766 93100 91110 91206;
0137067170999992010010519004+45867+007167FM-12+247999999V0200701N001519999999N9999999N1-01061-01571999999ADDMA1999999073241MD1710031+9999ME1428359OA149900311REMSYN076AAXX  05194 06717 33/// /0703 11106 21157 37324 47835 57003 333 91106 91204;
0137067170999992010010520004+45867+007167FM-12+247999999V0200501N001019999999N9999999N1-01091-01831999999ADDMA1999999073191MD1710061+9999ME1428299OA149900311REMSYN076AAXX  05204 06717 33/// /0502 11109 21183 37319 47829 57006 333 91106 91204;
0137067170999992010010521004+45867+007167FM-12+247999999V0202301N000519999999N9999999N1-01051-01851999999ADDMA1999999073161MD1810071+9999ME1428279OA149900311REMSYN076AAXX  05214 06717 33/// /2301 11105 21185 37316 47827 58007 333 91106 91204;
0137067170999992010010522004+45867+007167FM-12+247999999V0200701N001519999999N9999999N1-01021-01581999999ADDMA1999999073131MD1610111+9999ME1428249OA149900261REMSYN076AAXX  05224 06717 33/// /0703 11102 21158 37313 47824 56011 333 91105 91203;
0137067170999992010010523004+45867+007167FM-12+247999999V0200701N002119999999N9999999N1-01131-01731999999ADDMA1999999073121MD1610071+9999ME1428229OA149900361REMSYN076AAXX  05234 06717 33/// /0704 11113 21173 37312 47822 56007 333 91107 91204;
0137067170999992010010600004+45867+007167FM-12+247999999V0200701N001519999999N9999999N1-01191-01771999999ADDMA1999999073091MD1610071+9999ME1428189OA149900461REMSYN076AAXX  06004 06717 33/// /0703 11119 21177 37309 47818 56007 333 91109 91206;
0137067170999992010010601004+45867+007167FM-12+247999999V0200501N001019999999N9999999N1-01091-01681999999ADDMA1999999073081MD1710051+9999ME1428189OA149900361REMSYN076AAXX  06014 06717 33/// /0502 11109 21168 37308 47818 57005 333 91107 91205;
0137067170999992010010602004+45867+007167FM-12+247999999V0200701N001519999999N9999999N1-01161-01761999999ADDMA1999999073091MD1510031+9999ME1428189OA149900361REMSYN076AAXX  06024 06717 33/// /0703 11116 21176 37309 47818 55003 333 91107 91204;
0137067170999992010010603004+45867+007167FM-12+247999999V0200301N001519999999N9999999N1-01171-01821999999ADDMA1999999073061MD1710031+9999ME1428159OA149900361REMSYN076AAXX  06034 06717 33/// /0303 11117 21182 37306 47815 57003 333 91107 91205;
0137067170999992010010604004+45867+007167FM-12+247999999V0200601N003119999999N9999999N1-01211-01841999999ADDMA1999999073061MD1810021+9999ME1428149OA149900411REMSYN076AAXX  06044 06717 33/// /0606 11121 21184 37306 47814 58002 333 91108 91206;
0137067170999992010010605004+45867+007167FM-12+247999999V0200601N001519999999N9999999N1-01261-01911999999ADDMA1999999073041MD1710051+9999ME1428129OA149900411REMSYN076AAXX  06054 06717 33/// /0603 11126 21191 37304 47812 57005 333 91108 91206;
0282067170999992010010606004+45867+007167FM-12+247999999V0200601N001512200019N0750001N1-01261-02001999999ADDAA124000091AL19900091GA1001+999999999GF100991001001999999001001GJ100969IA1239KA1999N-01301MA1999999073031MD1710031+9999ME1428109OA149900411REMSYN112AAXX  06064 06717 32/89 00603 11126 21200 37303 47810 57003 333 21130 47/// 55016 70000 90768 93100 91108 91206;EQDQ01  00002PRCP24
0137067170999992010010607004+45867+007167FM-12+247999999V0200801N002619999999N9999999N1-01321-02011999999ADDMA1999999073041MD1710021+9999ME1428119OA149900361REMSYN076AAXX  06074 06717 33/// /0805 11132 21201 37304 47811 57002 333 91107 91205;
0137067170999992010010608004+45867+007167FM-12+247999999V0200601N001019999999N9999999N1-01201-02031999999ADDMA1999999073051MD1210011+9999ME1428139OA149900361REMSYN076AAXX  06084 06717 33/// /0602 11120 21203 37305 47813 52001 333 91107 91205;
0137067170999992010010609004+45867+007167FM-12+247999999V0200801N001519999999N9999999N1-01371-02081999999ADDMA1999999073101MD1210071+9999ME1428169OA149900411REMSYN076AAXX  06094 06717 33/// /0803 11137 21208 37310 47816 52007 333 91108 91206;
0137067170999992010010610004+45867+007167FM-12+247999999V0202701N001019999999N9999999N1-01121-02431999999ADDMA1999999073131MD1310091+9999ME1428239OA149900361REMSYN076AAXX  06104 06717 33/// /2702 11112 21243 37313 47823 53009 333 91107 91205;
0137067170999992010010611004+45867+007167FM-12+247999999V0202401N001519999999N9999999N1-00971-02621999999ADDMA1999999073131MD1119999+9999ME1428259OA149900461REMSYN076AAXX  06114 06717 33/// /2403 11097 21262 37313 47825 51/// 333 91109 91203;
0179067170999992010010612004+45867+007167FM-12+247999999V0202501N000512200019N0750001N1-01051-02571999999ADDGA1001+999999999GF100991001001999999001001MA1999999073111MD1010011+9999ME1428229OA149900461REMSYN076AAXX  06124 06717 32/89 02501 11105 21257 37311 47822 50001 333 91109 91206;
0137067170999992010010613004+45867+007167FM-12+247999999V0201301N000519999999N9999999N1-01081-02851999999ADDMA1999999073101MD1810031+9999ME1428209OA149900461REMSYN076AAXX  06134 06717 33/// /1301 11108 21285 37310 47820 58003 333 91109 91203;
0137067170999992010010614004+45867+007167FM-12+247999999V0200601N001019999999N9999999N1-01031-02851999999ADDMA1999999073111MD1519999+9999ME1428229OA149900461REMSYN076AAXX  06144 06717 33/// /0602 11103 21285 37311 47822 55/// 333 91109 91203;
0137067170999992010010615004+45867+007167FM-12+247999999V0203201N001519999999N9999999N1-01021-02841999999ADDMA1999999073141MD1319999+9999ME1428259OA149900461REMSYN076AAXX  06154 06717 33/// /3203 11102 21284 37314 47825 53/// 333 91109 91204;
0137067170999992010010616004+45867+007167FM-12+247999999V0202701N000519999999N9999999N1-01161-02671999999ADDMA1999999073171MD1310071+9999ME1428269OA149900461REMSYN076AAXX  06164 06717 33/// /2701 11116 21267 37317 47826 53007 333 91109 91204;
0137067170999992010010617004+45867+007167FM-12+247999999V0202601N000519999999N9999999N1-01121-02791999999ADDMA1999999073191MD1210081+9999ME1428299OA149900411REMSYN076AAXX  06174 06717 33/// /2601 11112 21279 37319 47829 52008 333 91108 91203;
0232067170999992010010618004+45867+007167FM-12+247999999V0200901N003112200019N0750001N1-01471-02221999999ADDAL19900091GA1001+999999999GF100991001001999999001001IA1239KA1120M-00961MA1999999073231MD1219999+9999ME1428289OA149900461REMSYN100AAXX  06184 06717 32/89 00906 11147 21222 37323 47828 52/// 333 11096 47/// 90766 93100 91109 91206;
0137067170999992010010619004+45867+007167FM-12+247999999V0201001N001519999999N9999999N1-01331-02121999999ADDMA1999999073271MD1210101+9999ME1428349OA149900411REMSYN076AAXX  06194 06717 33/// /1003 11133 21212 37327 47834 52010 333 91108 91206;
0137067170999992010010620004+45867+007167FM-12+247999999V0202701N001019999999N9999999N1-01421-02851999999ADDMA1999999073291MD1110101+9999ME1428359OA149900411REMSYN076AAXX  06204 06717 33/// /2702 11142 21285 37329 47835 51010 333 91108 91206;
0137067170999992010010621004+45867+007167FM-12+247999999V0202901N001519999999N9999999N1-01301-03001999999ADDMA1999999073301MD1210071+9999ME1428389OA149900411REMSYN076AAXX  06214 06717 33/// /2903 11130 21300 37330 47838 52007 333 91108 91206;
0137067170999992010010622004+45867+007167FM-12+247999999V0200401N000519999999N9999999N1-01411-02991999999ADDMA1999999073311MD1210041+9999ME1428379OA149900511REMSYN076AAXX  06224 06717 33/// /0401 11141 21299 37331 47837 52004 333 91110 91204;
0137067170999992010010623004+45867+007167FM-12+247999999V0200301N001519999999N9999999N1-01381-02771999999ADDMA1999999073331MD1210041+9999ME1428409OA149900511REMSYN076AAXX  06234 06717 33/// /0303 11138 21277 37333 47840 52004 333 91110 91204;
0137067170999992010010700004+45867+007167FM-12+247999999V0200101N001019999999N9999999N1-01381-02571999999ADDMA1999999073341MD1210041+9999ME1428419OA149900511REMSYN076AAXX  07004 06717 33/// /0102 11138 21257 37334 47841 52004 333 91110 91206;
0137067170999992010010701004+45867+007167FM-12+247999999V0202501N000519999999N9999999N1-01491-02781999999ADDMA1999999073361MD1210051+9999ME1428419OA149900411REMSYN076AAXX  07014 06717 33/// /2501 11149 21278 37336 47841 52005 333 91108 91203;
0137067170999992010010702004+45867+007167FM-12+247999999V0203401N001019999999N9999999N1-01431-02411999999ADDMA1999999073391MD1219999+9999ME1428459OA149900411REMSYN076AAXX  07024 06717 33/// /3402 11143 21241 37339 47845 52/// 333 91108 91203;
0137067170999992010010703004+45867+007167FM-12+247999999V0203301N000519999999N9999999N1-01441-02721999999ADDMA1999999073401MD1210061+9999ME1428469OA149900511REMSYN076AAXX  07034 06717 33/// /3301 11144 21272 37340 47846 52006 333 91110 91204;
0137067170999992010010704004+45867+007167FM-12+247999999V0202901N001519999999N9999999N1-01511-02621999999ADDMA1999999073401MD1210041+9999ME1428459OA149900311REMSYN076AAXX  07044 06717 33/// /2903 11151 21262 37340 47845 52004 333 91106 91203;
0137067170999992010010705004+45867+007167FM-12+247999999V0202401N001019999999N9999999N1-01521-02651999999ADDMA1999999073411MD1210021+9999ME1428469OA149900311REMSYN076AAXX  07054 06717 33/// /2402 11152 21265 37341 47846 52002 333 91106 91203;
0288067170999992010010706004+45867+007167FM-12+247999999V0202901N004119999999N0750001N1-01391-02641999999ADDAA124000091AL19900091GA1041+030001031GF105991999999999999999999GJ101269IA1239KA1999N-01541MA1999999073471MD1310071+9999ME1428549OA149900621REMSYN118AAXX  07064 06717 32989 52908 11139 21264 37347 47854 53007 333 21154 47/// 55021 70000 84360 90768 93100 91112 91208;EQDQ01  00002PRCP24
0137067170999992010010707004+45867+007167FM-12+247999999V0202801N005119999999N9999999N1-01301-02651999999ADDMA1999999073501MD1210101+9999ME1428589OA149900881REMSYN076AAXX  07074 06717 33/// /2810 11130 21265 37350 47858 52010 333 91117 91212;
0137067170999992010010708004+45867+007167FM-12+247999999V0202701N004619999999N9999999N1-01281-02571999999ADDMA1999999073561MD1219999+9999ME1428659OA149900931REMSYN076AAXX  07084 06717 33/// /2709 11128 21257 37356 47865 52/// 333 91118 91212;
0137067170999992010010709004+45867+007167FM-12+247999999V0203001N003619999999N9999999N1-01321-02471999999ADDMA1999999073611MD1210141+9999ME1428699OA149900931REMSYN076AAXX  07094 06717 33/// /3007 11132 21247 37361 47869 52014 333 91118 91212;
0137067170999992010010710004+45867+007167FM-12+247999999V0203001N002619999999N9999999N1-01191-02741999999ADDMA1999999073661MD1110161+9999ME1428779OA149901131REMSYN076AAXX  07104 06717 33/// /3005 11119 21274 37366 47877 51016 333 91122 91212;
0137067170999992010010711004+45867+007167FM-12+247999999V0203001N002619999999N9999999N1-01191-02511999999ADDMA1999999073651MD1210091+9999ME1428769OA149901131REMSYN076AAXX  07114 06717 33/// /3005 11119 21251 37365 47876 52009 333 91122 91212;
0185067170999992010010712004+45867+007167FM-12+247999999V0202701N003610132019N0750001N1-01171-02221999999ADDGA1071+013201071GF108991999999012501999999MA1999999073631MD1010021+9999ME1428749OA149901131REMSYN082AAXX  07124 06717 32689 82707 11117 21222 37363 47874 50002 333 87744 91122 91212;
0137067170999992010010713004+45867+007167FM-12+247999999V0203101N002619999999N9999999N1-01101-02691999999ADDMA1999999073631MD1710031+9999ME1428759OA149900821REMSYN076AAXX  07134 06717 33/// /3105 11110 21269 37363 47875 57003 333 91116 91209;
0096067170999992010010715004+45867+007167FM-12+247999999V0203401N003119999999N9999999N1-01161-02721999999ADDMA1999999073701ME1428819REMSYN060AAXX  07154 06717 43/// /3406 11116 21272 37370 47881 5////;
0137067170999992010010716004+45867+007167FM-12+247999999V0203401N004119999999N9999999N1-01201-02601999999ADDMA1999999073691MD1210061+9999ME1428809OA149900931REMSYN076AAXX  07164 06717 33/// /3408 11120 21260 37369 47880 52006 333 91118 91210;
0137067170999992010010717004+45867+007167FM-12+247999999V0203201N005119999999N9999999N1-01231-02581999999ADDMA1999999073721MD1219999+9999ME1428829OA149900821REMSYN076AAXX  07174 06717 33/// /3210 11123 21258 37372 47882 52/// 333 91116 91210;
0218067170999992010010718004+45867+007167FM-12+247999999V0202901N004619999999N0500001N1-01311-02131999999ADDAL19900091AY171061AY221061IA1239KA1120M-01101MA1999999073741MD1219999+9999ME1428839MW1761OA149901131REMSYN106AAXX  07184 06717 31/84 /2909 11131 21213 37374 47883 52/// 77672 333 11110 47/// 90766 93100 91122 91212;
0137067170999992010010719004+45867+007167FM-12+247999999V0202801N004619999999N9999999N1-01341-01561999999ADDMA1999999073751MD1210061+9999ME1428839OA149900821REMSYN076AAXX  07194 06717 33/// /2809 11134 21156 37375 47883 52006 333 91116 91211;
0154067170999992010010720004+45867+007167FM-12+247999999V0203001N004119999999N9999999N1-01311-01841999999ADDAA101000021MA1999999073741MD1210021+9999ME1428839OA149900771REMSYN082AAXX  07204 06717 23/// /3008 11131 21184 37374 47883 52002 333 69915 91115 91211;
0154067170999992010010721004+45867+007167FM-12+247999999V0202901N005119999999N9999999N1-01291-01521999999ADDAA101000891MA1999999073731MD1810011+9999ME1428829OA149900821REMSYN082AAXX  07214 06717 23/// /2910 11129 21152 37373 47882 58001 333 69985 91116 91211;
0154067170999992010010722004+45867+007167FM-12+247999999V0202801N004119999999N9999999N1-01291-01541999999ADDAA101000591MA1999999073731MD1710021+9999ME1428829OA149900881REMSYN082AAXX  07224 06717 23/// /2808 11129 21154 37373 47882 57002 333 69945 91117 91211;
0154067170999992010010723004+45867+007167FM-12+247999999V0203101N006219999999N9999999N1-01231-01731999999ADDAA101000591MA1999999073701MD1710041+9999ME1428809OA149901241REMSYN082AAXX  07234 06717 23/// /3112 11123 21173 37370 47880 57004 333 69945 91124 91212;
0160067170999992010010800004+45867+007167FM-12+247999999V0203201N005719999999N9999999N1-01191-01701999999ADDAA106002091MA1999999073651MD1710081+9999ME1428769OA149901241REMSYN088AAXX  08004 06717 03/// /3211 11119 21170 37365 47876 57008 60021 333 69965 91124 91215;
0154067170999992010010801004+45867+007167FM-12+247999999V0202901N008219999999N9999999N1-01191-01591999999ADDAA101000891MA1999999073581MD1710151+9999ME1428689OA149901081REMSYN082AAXX  08014 06717 23/// /2916 11119 21159 37358 47868 57015 333 69975 91121 91217;
0154067170999992010010802004+45867+007167FM-12+247999999V0202901N008219999999N9999999N1-01191-01391999999ADDAA101001091MA1999999073591MD1719999+9999ME1428699OA149901081REMSYN082AAXX  08024 06717 23/// /2916 11119 21139 37359 47869 57/// 333 60015 91121 91217;
0154067170999992010010803004+45867+007167FM-12+247999999V0202901N007719999999N9999999N1-01161-01481999999ADDAA101001091MA1999999073541MD1719999+9999ME1428659OA149901241REMSYN082AAXX  08034 06717 23/// /2915 11116 21148 37354 47865 57/// 333 60015 91124 91218;
0154067170999992010010804004+45867+007167FM-12+247999999V0202801N006719999999N9999999N1-01151-01261999999ADDAA101000591MA1999999073501MD1710081+9999ME1428619OA149901131REMSYN082AAXX  08044 06717 23/// /2813 11115 21126 37350 47861 57008 333 69965 91122 91218;
0154067170999992010010805004+45867+007167FM-12+247999999V0202901N006719999999N9999999N1-01121-01251999999ADDAA101000391MA1999999073481MD1710111+9999ME1428599OA149901181REMSYN082AAXX  08054 06717 23/// /2913 11112 21125 37348 47859 57011 333 69935 91123 91216;
0324067170999992010010806004+45867+007167FM-12+247999999V0203001N007210006019N0009001N1-01091-01351999999ADDAA112007192AA224006692AL13000691AL29902091AY171061AY241061GA1091+999999999GF109991091999999999999999GJ100009IA1239KA1999N-01351MA1999999073451MD1710091+9999ME1428569MW1721OA149901241REMSYN130AAXX  08064 06717 01/09 93014 11109 21135 37345 47856 57009 60072 77274 333 21135 47/// 55000 69965 70065 90768 93120 91124 91218;
0154067170999992010010807004+45867+007167FM-12+247999999V0203201N007219999999N9999999N1-01041-01151999999ADDAA101000591MA1999999073451MD1710051+9999ME1428579OA149901181REMSYN082AAXX  08074 06717 23/// /3214 11104 21115 37345 47857 57005 333 69955 91123 91214;
0154067170999992010010808004+45867+007167FM-12+247999999V0203201N008219999999N9999999N1-01021-01101999999ADDAA101001091MA1999999073431MD1710051+9999ME1428559OA149901491REMSYN082AAXX  08084 06717 23/// /3216 11102 21110 37343 47855 57005 333 60015 91129 91220;
0154067170999992010010809004+45867+007167FM-12+247999999V0203201N007719999999N9999999N1-00971-01271999999ADDAA101001091MA1999999073411MD1710041+9999ME1428549OA149901541REMSYN082AAXX  08094 06717 23/// /3215 11097 21127 37341 47854 57004 333 60015 91130 91220;
0154067170999992010010810004+45867+007167FM-12+247999999V0203201N007719999999N9999999N1-00921-01101999999ADDAA101000591MA1999999073411MD1510041+9999ME1428559OA149901541REMSYN082AAXX  08104 06717 23/// /3215 11092 21110 37341 47855 55004 333 69955 91130 91219;
0154067170999992010010811004+45867+007167FM-12+247999999V0202901N006719999999N9999999N1-00911-00991999999ADDAA101001091MA1999999073351MD1710081+9999ME1428489OA149901491REMSYN082AAXX  08114 06717 23/// /2913 11091 21099 37335 47848 57008 333 60015 91129 91217;
0258067170999992010010812004+45867+007167FM-12+247999999V0203101N006210033019N0020001N1-00831-01041999999ADDAA106005191AY171061AY241061GA1031+000151071GA2051+003301071GF108991999999000251999999MA1999999073291MD1810121+9999ME1428439MW1721OA149901541REMSYN106AAXX  08124 06717 01020 83112 11083 21104 37329 47843 58012 60051 77274 333 69995 83700 85711 91130 91220;
0154067170999992010010813004+45867+007167FM-12+247999999V0203001N005119999999N9999999N1-00771-00981999999ADDAA101001091MA1999999073231MD1810181+9999ME1428389OA149900931REMSYN082AAXX  08134 06717 23/// /3010 11077 21098 37323 47838 58018 333 60015 91118 91214;
0154067170999992010010814004+45867+007167FM-12+247999999V0203301N007219999999N9999999N1-00761-00891999999ADDAA101000891MA1999999073201MD1619999+9999ME1428359OA149901241REMSYN082AAXX  08144 06717 23/// /3314 11076 21089 37320 47835 56/// 333 69975 91124 91214;
0154067170999992010010815004+45867+007167FM-12+247999999V0202901N006219999999N9999999N1-00631-00821999999ADDAA101000591MA1999999073211MD1510081+9999ME1428389OA149901491REMSYN082AAXX  08154 06717 23/// /2912 11063 21082 37321 47838 55008 333 69945 91129 91217;
0154067170999992010010816004+45867+007167FM-12+247999999V0202801N006219999999N9999999N1-00671-00811999999ADDAA101001091MA1999999073221MD1310011+9999ME1428389OA149901341REMSYN082AAXX  08164 06717 23/// /2812 11067 21081 37322 47838 53001 333 69995 91126 91213;
0154067170999992010010817004+45867+007167FM-12+247999999V0203201N004619999999N9999999N1-00621-00781999999ADDAA101000591MA1999999073231MD1019999+9999ME1428409OA149901341REMSYN082AAXX  08174 06717 23/// /3209 11062 21078 37323 47840 50/// 333 69945 91126 91213;
0241067170999992010010818004+45867+007167FM-12+247999999V0202901N005119999999N0100001N1-00641-00731999999ADDAA112008991AL11201391AY171061AY221061IA1239KA1120M-00581MA1999999073231MD1210021+9999ME1428409MW1721OA149901541REMSYN118AAXX  08184 06717 01/60 /2910 11064 21073 37323 47840 52002 60092 77272 333 11058 47/// 69915 90766 93113 91130 91220;
0154067170999992010010819004+45867+007167FM-12+247999999V0202901N005119999999N9999999N1-00621-00721999999ADDAA101000891MA1999999073261MD1310041+9999ME1428439OA149900931REMSYN082AAXX  08194 06717 23/// /2910 11062 21072 37326 47843 53004 333 69975 91118 91213;
0154067170999992010010820004+45867+007167FM-12+247999999V0202901N003119999999N9999999N1-00651-00661999999ADDAA101000021MA1999999073291MD1210061+9999ME1428469OA149900721REMSYN082AAXX  08204 06717 23/// /2906 11065 21066 37329 47846 52006 333 69925 91114 91210;
0137067170999992010010821004+45867+007167FM-12+247999999V0202801N004119999999N9999999N1-00671-00681999999ADDMA1999999073281MD1210051+9999ME1428449OA149901341REMSYN076AAXX  08214 06717 33/// /2808 11067 21068 37328 47844 52005 333 91126 91213;
0137067170999992010010822004+45867+007167FM-12+247999999V0202501N002619999999N9999999N1-00641-00781999999ADDMA1999999073291MD1010031+9999ME1428469OA149900621REMSYN076AAXX  08224 06717 33/// /2505 11064 21078 37329 47846 50003 333 91112 91209;
0137067170999992010010823004+45867+007167FM-12+247999999V0202601N004619999999N9999999N1-00691-00881999999ADDMA1999999073261MD1810031+9999ME1428429OA149900671REMSYN076AAXX  08234 06717 33/// /2609 11069 21088 37326 47842 58003 333 91113 91210;
0160067170999992010010900004+45867+007167FM-12+247999999V0202601N004619999999N9999999N1-00701-00881999999ADDAA106001091MA1999999073241MD1710041+9999ME1428409OA149901341REMSYN088AAXX  09004 06717 03/// /2609 11070 21088 37324 47840 57004 69991 333 60005 91126 91214;
0137067170999992010010901004+45867+007167FM-12+247999999V0202701N003619999999N9999999N1-00771-00991999999ADDMA1999999073241MD1710051+9999ME1428399OA149900721REMSYN076AAXX  09014 06717 33/// /2707 11077 21099 37324 47839 57005 333 91114 91211;
0137067170999992010010902004+45867+007167FM-12+247999999V0202901N003119999999N9999999N1-00831-00871999999ADDMA1999999073251MD1519999+9999ME1428399OA149900671REMSYN076AAXX  09024 06717 33/// /2906 11083 21087 37325 47839 55/// 333 91113 91210;
0137067170999992010010903004+45867+007167FM-12+247999999V0202701N002119999999N9999999N1-00891-01001999999ADDMA1999999073201MD1819999+9999ME1428339OA149900721REMSYN076AAXX  09034 06717 33/// /2704 11089 21100 37320 47833 58/// 333 91114 91211;
0137067170999992010010904004+45867+007167FM-12+247999999V0200901N001519999999N9999999N1-00821-01111999999ADDMA1999999073161MD1710081+9999ME1428309OA149900571REMSYN076AAXX  09044 06717 33/// /0903 11082 21111 37316 47830 57008 333 91111 91208;
0137067170999992010010905004+45867+007167FM-12+247999999V0202901N001019999999N9999999N1-00771-01191999999ADDMA1999999073121MD1710131+9999ME1428269OA149900361REMSYN076AAXX  09054 06717 33/// /2902 11077 21119 37312 47826 57013 333 91107 91204;
0314067170999992010010906004+45867+007167FM-12+247999999V0200801N003612200019N0750001N1-00951-01161999999ADDAA112001091AA224009991AL19901091AL29900191GA1011+024001041GF101991999999022501999999GJ100009IA1239KA1999N-00951MA1999999073091MD1710111+9999ME1428219MW1011OA149900721REMSYN136AAXX  09064 06717 01889 10807 11095 21116 37309 47821 57011 69992 701// 333 21095 47/// 55000 60005 70100 81458 90768 93101 91114 91211;
0137067170999992010010907004+45867+007167FM-12+247999999V0200801N001519999999N9999999N1-00861-01181999999ADDMA1999999073091MD1710071+9999ME1428229OA149900511REMSYN076AAXX  09074 06717 33/// /0803 11086 21118 37309 47822 57007 333 91110 91208;
0137067170999992010010908004+45867+007167FM-12+247999999V0202801N001519999999N9999999N1-00701-01201999999ADDMA1999999073101MD1510021+9999ME1428259OA149900511REMSYN076AAXX  09084 06717 33/// /2803 11070 21120 37310 47825 55002 333 91110 91208;
0137067170999992010010909004+45867+007167FM-12+247999999V0203001N001019999999N9999999N1-00541-01201999999ADDMA1999999073101MD1210011+9999ME1428279OA149900511REMSYN076AAXX  09094 06717 33/// /3002 11054 21120 37310 47827 52001 333 91110 91208;
0137067170999992010010910004+45867+007167FM-12+247999999V0203101N000519999999N9999999N1-00601-01091999999ADDMA1999999073051MD1810041+9999ME1428219OA149900511REMSYN076AAXX  09104 06717 33/// /3101 11060 21109 37305 47821 58004 333 91110 91204;
0137067170999992010010911004+45867+007167FM-12+247999999V0202701N003119999999N9999999N1-00701-01111999999ADDMA1999999073041MD1710061+9999ME1428199OA149900511REMSYN076AAXX  09114 06717 33/// /2706 11070 21111 37304 47819 57006 333 91110 91206;
0213067170999992010010912004+45867+007167FM-12+247999999V0202701N004610042019N0750001N1-00671-00871999999ADDAY171061AY211061GA1081+004201071GF108991999999004501999999MA1999999073001MD1710101+9999ME1428159MW1701OA149900721REMSYN088AAXX  09124 06717 31489 82709 11067 21087 37300 47815 57010 77071 333 88714 91114 91212;
0154067170999992010010913004+45867+007167FM-12+247999999V0200801N002619999999N9999999N1-00681-00801999999ADDAA101000021MA1999999072951MD1710101+9999ME1428099OA149900721REMSYN082AAXX  09134 06717 23/// /0805 11068 21080 37295 47809 57010 333 69925 91114 91212;
0154067170999992010010914004+45867+007167FM-12+247999999V0200901N004619999999N9999999N1-00841-00941999999ADDAA101000591MA1999999072931MD1610111+9999ME1428059OA149900571REMSYN082AAXX  09144 06717 23/// /0909 11084 21094 37293 47805 56011 333 69965 91111 91209;
0154067170999992010010915004+45867+007167FM-12+247999999V0200901N004119999999N9999999N1-00791-00941999999ADDAA101001091MA1999999072941MD1710061+9999ME1428079OA149900721REMSYN082AAXX  09154 06717 23/// /0908 11079 21094 37294 47807 57006 333 60015 91114 91212;
0154067170999992010010916004+45867+007167FM-12+247999999V0200801N004619999999N9999999N1-00891-01021999999ADDAA101003091MA1999999072941MD1710011+9999ME1428069OA149900671REMSYN082AAXX  09164 06717 23/// /0809 11089 21102 37294 47806 57001 333 60035 91113 91210;
0154067170999992010010917004+45867+007167FM-12+247999999V0200801N003119999999N9999999N1-00851-00991999999ADDAA101000891MA1999999072951MD1210021+9999ME1428079OA149900671REMSYN082AAXX  09174 06717 23/// /0806 11085 21099 37295 47807 52002 333 69975 91113 91210;
0241067170999992010010918004+45867+007167FM-12+247999999V0202901N003119999999N0020001N1-00751-00871999999ADDAA112006191AL11200891AY171061AY221061IA1239KA1120M-00531MA1999999073001MD1210061+9999ME1428149MW1721OA149900721REMSYN118AAXX  09184 06717 01/20 /2906 11075 21087 37300 47814 52006 60062 77272 333 11053 47/// 69945 90766 93108 91114 91212;
0154067170999992010010919004+45867+007167FM-12+247999999V0203001N005719999999N9999999N1-00741-00781999999ADDAA101002091MA1999999073091MD1210151+9999ME1428239OA149901241REMSYN082AAXX  09194 06717 23/// /3011 11074 21078 37309 47823 52015 333 60025 91124 91215;
0154067170999992010010920004+45867+007167FM-12+247999999V0203301N005119999999N9999999N1-00731-00801999999ADDAA101000891MA1999999073131MD1210181+9999ME1428289OA149901391REMSYN082AAXX  09204 06717 23/// /3310 11073 21080 37313 47828 52018 333 69975 91127 91216;
0137067170999992010010921004+45867+007167FM-12+247999999V0203401N004619999999N9999999N1-00751-00911999999ADDMA1999999073161MD1210161+9999ME1428319OA149901391REMSYN076AAXX  09214 06717 33/// /3409 11075 21091 37316 47831 52016 333 91127 91216;
0154067170999992010010922004+45867+007167FM-12+247999999V0203001N006219999999N9999999N1-00791-00841999999ADDAA101000021MA1999999073181MD1210091+9999ME1428329OA149901181REMSYN082AAXX  09224 06717 23/// /3012 11079 21084 37318 47832 52009 333 69915 91123 91213;
0154067170999992010010923004+45867+007167FM-12+247999999V0203301N003619999999N9999999N1-00811-00941999999ADDAA101000021MA1999999073231MD1210101+9999ME1428379OA149901181REMSYN082AAXX  09234 06717 23/// /3307 11081 21094 37323 47837 52010 333 69915 91123 91214;
0160067170999992010011000004+45867+007167FM-12+247999999V0203001N002619999999N9999999N1-00781-00931999999ADDAA106003091MA1999999073231MD1210071+9999ME1428389OA149901391REMSYN088AAXX  10004 06717 03/// /3005 11078 21093 37323 47838 52007 60031 333 69915 91127 91216;
0137067170999992010011001004+45867+007167FM-12+247999999V0203101N004619999999N9999999N1-00801-00951999999ADDMA1999999073251MD1210071+9999ME1428409OA149901241REMSYN076AAXX  10014 06717 33/// /3109 11080 21095 37325 47840 52007 333 91124 91211;
0096067170999992010011002004+45867+007167FM-12+247999999V0203201N007719999999N9999999N1-00831-00941999999ADDMA1999999073291ME1428439REMSYN060AAXX  10024 06717 33/// /3215 11083 21094 37329 47843 5////;
0096067170999992010011003004+45867+007167FM-12+247999999V0203501N004619999999N9999999N1-00861-00991999999ADDMA1999999073331ME1428479REMSYN060AAXX  10034 06717 43/// /3509 11086 21099 37333 47847 5////;
0137067170999992010011004004+45867+007167FM-12+247999999V0203301N006219999999N9999999N1-00871-01011999999ADDMA1999999073361MD1110111+9999ME1428509OA149901131REMSYN076AAXX  10044 06717 33/// /3312 11087 21101 37336 47850 51011 333 91122 91212;
0137067170999992010011005004+45867+007167FM-12+247999999V0203201N004619999999N9999999N1-00901-00941999999ADDMA1999999073411MD1310121+9999ME1428559OA149901131REMSYN076AAXX  10054 06717 33/// /3209 11090 21094 37341 47855 53012 333 91122 91212;
0324067170999992010011006004+45867+007167FM-12+247999999V0203201N006710006019N0009001N1-00901-00931999999ADDAA112003091AA224008991AL14800891AL29900591AY171061AY241061GA1091+999999999GF109991091999999999999999GJ100009IA1239KA1999N-00921MA1999999073431MD1210101+9999ME1428579MW1701OA149901391REMSYN130AAXX  10064 06717 01/09 93213 11090 21093 37343 47857 52010 60032 77074 333 21092 47/// 55000 60005 70088 90768 93105 91127 91216;
0137067170999992010011007004+45867+007167FM-12+247999999V0202901N005119999999N9999999N1-00921-00941999999ADDMA1999999073521MD1210161+9999ME1428669OA149901241REMSYN076AAXX  10074 06717 33/// /2910 11092 21094 37352 47866 52016 333 91124 91215;
0137067170999992010011008004+45867+007167FM-12+247999999V0202901N004619999999N9999999N1-00931-00951999999ADDMA1999999073591MD1219999+9999ME1428739OA149900981REMSYN076AAXX  10084 06717 33/// /2909 11093 21095 37359 47873 52/// 333 91119 91212;
0137067170999992010011009004+45867+007167FM-12+247999999V0202801N003619999999N9999999N1-00961-01041999999ADDMA1999999073671MD1210241+9999ME1428819OA149901241REMSYN076AAXX  10094 06717 33/// /2807 11096 21104 37367 47881 52024 333 91124 91215;
0137067170999992010011010004+45867+007167FM-12+247999999V0202801N004619999999N9999999N1-00981-01031999999ADDMA1999999073721MD1110201+9999ME1428869OA149900771REMSYN076AAXX  10104 06717 33/// /2809 11098 21103 37372 47886 51020 333 91115 91209;
0137067170999992010011011004+45867+007167FM-12+247999999V0202901N003119999999N9999999N1-00991-01051999999ADDMA1999999073771MD1110181+9999ME1428919OA149900771REMSYN076AAXX  10114 06717 33/// /2906 11099 21105 37377 47891 51018 333 91115 91209;
0235067170999992010011012004+45867+007167FM-12+247999999V0202801N003610024019N0025001N1-01001-01061999999ADDAY171061AY241061GA1031+000151071GA2051+002401071GF108991999999000251999999MA1999999073791MD1110121+9999ME1428939MW1401OA149901241REMSYN094AAXX  10124 06717 31025 82807 11100 21106 37379 47893 51012 74074 333 83700 85708 91124 91215;
0137067170999992010011013004+45867+007167FM-12+247999999V0202601N003619999999N9999999N1-01001-01141999999ADDMA1999999073811MD1110091+9999ME1428959OA149900721REMSYN076AAXX  10134 06717 33/// /2607 11100 21114 37381 47895 51009 333 91114 91209;
0137067170999992010011014004+45867+007167FM-12+247999999V0202901N005719999999N9999999N1-01001-01271999999ADDMA1999999073841MD1319999+9999ME1428989OA149900771REMSYN076AAXX  10144 06717 33/// /2911 11100 21127 37384 47898 53/// 333 91115 91211;
0137067170999992010011015004+45867+007167FM-12+247999999V0202801N003619999999N9999999N1-01071-01261999999ADDMA1999999073861MD1310071+9999ME1428999OA149900771REMSYN076AAXX  10154 06717 33/// /2807 11107 21126 37386 47899 53007 333 91115 91212;
0137067170999992010011016004+45867+007167FM-12+247999999V0202801N001019999999N9999999N1-01041-02021999999ADDMA1999999073901MD1310091+9999ME1429049OA149900771REMSYN076AAXX  10164 06717 33/// /2802 11104 21202 37390 47904 53009 333 91115 91212;
0137067170999992010011017004+45867+007167FM-12+247999999V0202801N001019999999N9999999N1-01071-02261999999ADDMA1999999073931MD1310091+9999ME1429069OA149900461REMSYN076AAXX  10174 06717 33/// /2802 11107 21226 37393 47906 53009 333 91109 91207;
0232067170999992010011018004+45867+007167FM-12+247999999V0200801N001512200019N0750001N1-01051-02421999999ADDAL19900091GA1001+999999999GF100991001001999999001001IA1239KA1120M-00881MA1999999073981MD1310121+9999ME1429129OA149900981REMSYN100AAXX  10184 06717 32/89 00803 11105 21242 37398 47912 53012 333 11088 47/// 90766 93100 91119 91212;
0137067170999992010011019004+45867+007167FM-12+247999999V0200801N002619999999N9999999N1-01111-02331999999ADDMA1999999074011MD1310111+9999ME1429149OA149900361REMSYN076AAXX  10194 06717 33/// /0805 11111 21233 37401 47914 53011 333 91107 91206;
0137067170999992010011020004+45867+007167FM-12+247999999V0200701N001519999999N9999999N1-00961-02121999999ADDMA1999999074041MD1110111+9999ME1429199OA149900361REMSYN076AAXX  10204 06717 33/// /0703 11096 21212 37404 47919 51011 333 91107 91206;
0137067170999992010011021004+45867+007167FM-12+247999999V0202801N002119999999N9999999N1-01061-01971999999ADDMA1999999074061MD1110081+9999ME1429209OA149900461REMSYN076AAXX  10214 06717 33/// /2804 11106 21197 37406 47920 51008 333 91109 91207;
0137067170999992010011022004+45867+007167FM-12+247999999V0202701N003119999999N9999999N1-01091-02211999999ADDMA1999999074071MD1110061+9999ME1429209OA149900361REMSYN076AAXX  10224 06717 33/// /2706 11109 21221 37407 47920 51006 333 91107 91206;
0137067170999992010011023004+45867+007167FM-12+247999999V0202801N003119999999N9999999N1-01091-02201999999ADDMA1999999074091MD1110051+9999ME1429229OA149900411REMSYN076AAXX  10234 06717 33/// /2806 11109 21220 37409 47922 51005 333 91108 91207;
0137067170999992010011100004+45867+007167FM-12+247999999V0202901N002619999999N9999999N1-01061-02241999999ADDMA1999999074101MD1210041+9999ME1429249OA149900771REMSYN076AAXX  11004 06717 33/// /2905 11106 21224 37410 47924 52004 333 91115 91212;
0137067170999992010011101004+45867+007167FM-12+247999999V0202701N003619999999N9999999N1-01021-02441999999ADDMA1999999074101MD1010031+9999ME1429259OA149900411REMSYN076AAXX  11014 06717 33/// /2707 11102 21244 37410 47925 50003 333 91108 91207;
0137067170999992010011102004+45867+007167FM-12+247999999V0202801N001519999999N9999999N1-00961-02501999999ADDMA1999999074111MD1219999+9999ME1429279OA149900411REMSYN076AAXX  11024 06717 33/// /2803 11096 21250 37411 47927 52/// 333 91108 91207;
0137067170999992010011103004+45867+007167FM-12+247999999V0202901N001519999999N9999999N1-01011-02541999999ADDMA1999999074111MD1019999+9999ME1429269OA149900411REMSYN076AAXX  11034 06717 33/// /2903 11101 21254 37411 47926 50/// 333 91108 91207;
0156067170999992010011104004+45867+007167FM-12+247999999V0200901N002619999999N9999999N1-01061-02681999999ADDMA1999999074101MD1410001+9999ME1429249OA149900361REMSYN076AAXX  11044 06717 33/// /0905 11106 21268 37410 47924 57000 333 91107 91206;EQDQ01+000072APCTEN
0137067170999992010011105004+45867+007167FM-12+247999999V0200901N002619999999N9999999N1-01001-02701999999ADDMA1999999074101MD1710011+9999ME1429259OA149900461REMSYN076AAXX  11054 06717 33/// /0905 11100 21270 37410 47925 57001 333 91109 91206;
0263067170999992010011106004+45867+007167FM-12+247999999V0200801N002612200019N0750001N1-00941-02771999999ADDAA124000021AL19900091GA1001+999999999GF100991001001999999001001GJ100489IA1239KA1999N-01111MA1999999074081MD1810031+9999ME1429249OA149900461REMSYN112AAXX  11064 06717 32/89 00805 11094 21277 37408 47924 58003 333 21111 47/// 55008 70000 90768 93100 91109 91207;
0137067170999992010011107004+45867+007167FM-12+247999999V0200801N003119999999N9999999N1-00991-02761999999ADDMA1999999074101MD1510001+9999ME1429259OA149900461REMSYN076AAXX  11074 06717 33/// /0806 11099 21276 37410 47925 55000 333 91109 91207;
0137067170999992010011108004+45867+007167FM-12+247999999V0200501N001019999999N9999999N1-00811-02711999999ADDMA1999999074111MD1319999+9999ME1429299OA149900461REMSYN076AAXX  11084 06717 33/// /0502 11081 21271 37411 47929 53/// 333 91109 91207;
0137067170999992010011109004+45867+007167FM-12+247999999V0200801N001519999999N9999999N1-00891-02761999999ADDMA1999999074151MD1210071+9999ME1429329OA149900461REMSYN076AAXX  11094 06717 33/// /0803 11089 21276 37415 47932 52007 333 91109 91207;
0137067170999992010011110004+45867+007167FM-12+247999999V0200901N001519999999N9999999N1-01001-02211999999ADDMA1999999074171MD1219999+9999ME1429329OA149900361REMSYN076AAXX  11104 06717 33/// /0903 11100 21221 37417 47932 52/// 333 91107 91205;
0137067170999992010011111004+45867+007167FM-12+247999999V0202701N001019999999N9999999N1-00881-02721999999ADDMA1999999074171MD1210061+9999ME1429349OA149900361REMSYN076AAXX  11114 06717 33/// /2702 11088 21272 37417 47934 52006 333 91107 91205;
0198067170999992010011112004+45867+007167FM-12+247999999V0202701N001512200019N0750001N1-00941-02551999999ADDGA1001+999999999GF100991001001999999001001MA1999999074151MD1410001+9999ME1429319OA149900461REMSYN076AAXX  11124 06717 32/89 02703 11094 21255 37415 47931 58000 333 91109 91207;EQDQ01+000082APCTEN
0137067170999992010011113004+45867+007167FM-12+247999999V0200901N002619999999N9999999N1-00951-02491999999ADDMA1999999074141MD1710031+9999ME1429309OA149900311REMSYN076AAXX  11134 06717 33/// /0905 11095 21249 37414 47930 57003 333 91106 91205;
0096067170999992010011114004+45867+007167FM-12+247999999V0200901N004119999999N9999999N1-01001-02371999999ADDMA1999999074151ME1429309REMSYN060AAXX  11144 06717 33/// /0908 11100 21237 37415 47930 5////;
0137067170999992010011115004+45867+007167FM-12+247999999V0200801N004619999999N9999999N1-01041-02671999999ADDMA1999999074171MD1310021+9999ME1429319OA149900511REMSYN076AAXX  11154 06717 33/// /0809 11104 21267 37417 47931 53002 333 91110 91209;
0137067170999992010011116004+45867+007167FM-12+247999999V0200801N005119999999N9999999N1-01051-02631999999ADDMA1999999074181MD1210041+9999ME1429329OA149900671REMSYN076AAXX  11164 06717 33/// /0810 11105 21263 37418 47932 52004 333 91113 91210;
0137067170999992010011117004+45867+007167FM-12+247999999V0200801N004619999999N9999999N1-01111-02271999999ADDMA1999999074201MD1210051+9999ME1429339OA149900671REMSYN076AAXX  11174 06717 33/// /0809 11111 21227 37420 47933 52005 333 91113 91210;
0232067170999992010011118004+45867+007167FM-12+247999999V0200801N004112200019N0750001N1-01031-02081999999ADDAL19900091GA1001+999999999GF100991001001999999001001IA1239KA1120M-00811MA1999999074221MD1110051+9999ME1429379OA149900671REMSYN100AAXX  11184 06717 32/89 00808 11103 21208 37422 47937 51005 333 11081 47/// 90766 93100 91113 91210;
0137067170999992010011119004+45867+007167FM-12+247999999V0200801N005119999999N9999999N1-01091-02011999999ADDMA1999999074251MD1110071+9999ME1429399OA149900621REMSYN076AAXX  11194 06717 33/// /0810 11109 21201 37425 47939 51007 333 91112 91210;
0137067170999992010011120004+45867+007167FM-12+247999999V0200701N004119999999N9999999N1-01031-02181999999ADDMA1999999074281MD1310081+9999ME1429439OA149900621REMSYN076AAXX  11204 06717 33/// /0708 11103 21218 37428 47943 53008 333 91112 91210;
0137067170999992010011121004+45867+007167FM-12+247999999V0200801N004119999999N9999999N1-01061-02101999999ADDMA1999999074281MD1210061+9999ME1429429OA149900671REMSYN076AAXX  11214 06717 33/// /0808 11106 21210 37428 47942 52006 333 91113 91210;
0137067170999992010011122004+45867+007167FM-12+247999999V0200801N004119999999N9999999N1-01031-02181999999ADDMA1999999074301MD1210051+9999ME1429459OA149900671REMSYN076AAXX  11224 06717 33/// /0808 11103 21218 37430 47945 52005 333 91113 91210;
0137067170999992010011123004+45867+007167FM-12+247999999V0200801N004619999999N9999999N1-01051-02431999999ADDMA1999999074281MD1010001+9999ME1429439OA149900571REMSYN076AAXX  11234 06717 33/// /0809 11105 21243 37428 47943 50000 333 91111 91209;
0137067170999992010011200004+45867+007167FM-12+247999999V0200701N004619999999N9999999N1-01041-02341999999ADDMA1999999074291MD1010011+9999ME1429449OA149900671REMSYN076AAXX  12004 06717 33/// /0709 11104 21234 37429 47944 50001 333 91113 91210;
0137067170999992010011201004+45867+007167FM-12+247999999V0200801N004119999999N9999999N1-01091-02401999999ADDMA1999999074271MD1710031+9999ME1429419OA149900571REMSYN076AAXX  12014 06717 33/// /0808 11109 21240 37427 47941 57003 333 91111 91209;
0137067170999992010011202004+45867+007167FM-12+247999999V0200801N003119999999N9999999N1-01021-02291999999ADDMA1999999074271MD1719999+9999ME1429429OA149900571REMSYN076AAXX  12024 06717 33/// /0806 11102 21229 37427 47942 57/// 333 91111 91208;
0137067170999992010011203004+45867+007167FM-12+247999999V0200701N003119999999N9999999N1-00941-02361999999ADDMA1999999074281MD1710011+9999ME1429459OA149900571REMSYN076AAXX  12034 06717 33/// /0706 11094 21236 37428 47945 57001 333 91111 91209;
0137067170999992010011204004+45867+007167FM-12+247999999V0200901N002119999999N9999999N1-01001-02391999999ADDMA1999999074261MD1710011+9999ME1429419OA149900511REMSYN076AAXX  12044 06717 33/// /0904 11100 21239 37426 47941 57001 333 91110 91208;
0137067170999992010011205004+45867+007167FM-12+247999999V0200801N003119999999N9999999N1-01011-02361999999ADDMA1999999074261MD1710011+9999ME1429419OA149900511REMSYN076AAXX  12054 06717 33/// /0806 11101 21236 37426 47941 57001 333 91110 91207;
0282067170999992010011206004+45867+007167FM-12+247999999V0200801N002112200019N0750001N1-00991-02321999999ADDAA124000091AL19900091GA1001+999999999GF100991001001999999001001GJ101809IA1239KA1999N-01131MA1999999074251MD1710031+9999ME1429419OA149900671REMSYN112AAXX  12064 06717 32/89 00804 11099 21232 37425 47941 57003 333 21113 47/// 55030 70000 90768 93100 91113 91210;EQDQ01  00002PRCP24
0137067170999992010011207004+45867+007167FM-12+247999999V0202901N001519999999N9999999N1-00991-01751999999ADDMA1999999074231MD1710031+9999ME1429389OA149900461REMSYN076AAXX  12074 06717 33/// /2903 11099 21175 37423 47938 57003 333 91109 91206;
0137067170999992010011208004+45867+007167FM-12+247999999V0202701N005119999999N9999999N1-01051-02161999999ADDMA1999999074221MD1719999+9999ME1429369OA149900621REMSYN076AAXX  12084 06717 33/// /2710 11105 21216 37422 47936 57/// 333 91112 91210;
0137067170999992010011209004+45867+007167FM-12+247999999V0202801N006219999999N9999999N1-01181-02401999999ADDMA1999999074221MD1710031+9999ME1429349OA149900721REMSYN076AAXX  12094 06717 33/// /2812 11118 21240 37422 47934 57003 333 91114 91212;
0156067170999992010011210004+45867+007167FM-12+247999999V0202701N007219999999N9999999N1-01091-02411999999ADDMA1999999074231MD1410001+9999ME1429379OA149900881REMSYN076AAXX  12104 06717 33/// /2714 11109 21241 37423 47937 52000 333 91117 91214;EQDQ01+000022APCTEN
0137067170999992010011211004+45867+007167FM-12+247999999V0202601N006719999999N9999999N1-01051-02191999999ADDMA1999999074201MD1810021+9999ME1429349OA149900981REMSYN076AAXX  12114 06717 33/// /2613 11105 21219 37420 47934 58002 333 91119 91217;
0179067170999992010011212004+45867+007167FM-12+247999999V0202801N007212200019N0750001N1-00991-02141999999ADDGA1001+999999999GF100991001001999999001001MA1999999074161MD1710061+9999ME1429319OA149900981REMSYN076AAXX  12124 06717 32/89 02814 11099 21214 37416 47931 57006 333 91119 91217;
0137067170999992010011213004+45867+007167FM-12+247999999V0202701N007719999999N9999999N1-01021-01721999999ADDMA1999999074101MD1710131+9999ME1429259OA149900881REMSYN076AAXX  12134 06717 33/// /2715 11102 21172 37410 47925 57013 333 91117 91215;
0096067170999992010011214004+45867+007167FM-12+247999999V0202901N008719999999N9999999N1-01011-01621999999ADDMA1999999074051ME1429209REMSYN060AAXX  12144 06717 33/// /2917 11101 21162 37405 47920 5////;
0137067170999992010011215004+45867+007167FM-12+247999999V0202901N009319999999N9999999N1-01081-01561999999ADDMA1999999074021MD1710141+9999ME1429159OA149901131REMSYN076AAXX  12154 06717 33/// /2918 11108 21156 37402 47915 57014 333 91122 91219;
0137067170999992010011216004+45867+007167FM-12+247999999V0203001N008719999999N9999999N1-01151-01841999999ADDMA1999999073981MD1710121+9999ME1429109OA149901131REMSYN076AAXX  12164 06717 33/// /3017 11115 21184 37398 47910 57012 333 91122 91219;
0137067170999992010011217004+45867+007167FM-12+247999999V0203001N008219999999N9999999N1-01221-01911999999ADDMA1999999073981MD1710071+9999ME1429099OA149901131REMSYN076AAXX  12174 06717 33/// /3016 11122 21191 37398 47909 57007 333 91122 91217;
0190067170999992010011218004+45867+007167FM-12+247999999V0203001N008719999999N0600001N1-01241-01391999999ADDAL19900091IA1239KA1120M-00861MA1999999073971MD1710051+9999ME1429089OA149901241REMSYN100AAXX  12184 06717 32/86 /3017 11124 21139 37397 47908 57005 333 11086 47/// 90766 93100 91124 91219;
0137067170999992010011219004+45867+007167FM-12+247999999V0202901N006719999999N9999999N1-01241-01301999999ADDMA1999999073991MD1510011+9999ME1429109OA149901241REMSYN076AAXX  12194 06717 33/// /2913 11124 21130 37399 47910 55001 333 91124 91217;
0137067170999992010011220004+45867+007167FM-12+247999999V0202901N006219999999N9999999N1-01271-01311999999ADDMA1999999073971MD1010011+9999ME1429079OA149901031REMSYN076AAXX  12204 06717 33/// /2912 11127 21131 37397 47907 50001 333 91120 91215;
0137067170999992010011221004+45867+007167FM-12+247999999V0203001N006219999999N9999999N1-01281-01531999999ADDMA1999999073931MD1810041+9999ME1429039OA149901241REMSYN076AAXX  12214 06717 33/// /3012 11128 21153 37393 47903 58004 333 91124 91217;
0137067170999992010011222004+45867+007167FM-12+247999999V0202801N007219999999N9999999N1-01271-01311999999ADDMA1999999073871MD1710121+9999ME1428979OA149901081REMSYN076AAXX  12224 06717 33/// /2814 11127 21131 37387 47897 57012 333 91121 91214;
0154067170999992010011223004+45867+007167FM-12+247999999V0203001N005719999999N9999999N1-01251-01591999999ADDAA101000021MA1999999073901MD1510071+9999ME1429009OA149901081REMSYN082AAXX  12234 06717 23/// /3011 11125 21159 37390 47900 55007 333 69925 91121 91214;
0160067170999992010011300004+45867+007167FM-12+247999999V0202901N006219999999N9999999N1-01261-01621999999ADDAA106001091MA1999999073851MD1710081+9999ME1428959OA149901241REMSYN088AAXX  13004 06717 03/// /2912 11126 21162 37385 47895 57008 69991 333 69975 91124 91219;
0154067170999992010011301004+45867+007167FM-12+247999999V0203001N005119999999N9999999N1-01231-01371999999ADDAA101000591MA1999999073821MD1710051+9999ME1428929OA149901131REMSYN082AAXX  13014 06717 23/// /3010 11123 21137 37382 47892 57005 333 69965 91122 91215;
0154067170999992010011302004+45867+007167FM-12+247999999V0203201N004619999999N9999999N1-01241-01421999999ADDAA101000591MA1999999073801MD1719999+9999ME1428909OA149900931REMSYN082AAXX  13024 06717 23/// /3209 11124 21142 37380 47890 57/// 333 69955 91118 91212;
0154067170999992010011303004+45867+007167FM-12+247999999V0203101N005119999999N9999999N1-01241-01381999999ADDAA101001091MA1999999073761MD1719999+9999ME1428869OA149901131REMSYN082AAXX  13034 06717 23/// /3110 11124 21138 37376 47886 57/// 333 69995 91122 91215;
0154067170999992010011304004+45867+007167FM-12+247999999V0203201N006219999999N9999999N1-01211-01541999999ADDAA101000891MA1999999073741MD1710081+9999ME1428849OA149900881REMSYN082AAXX  13044 06717 23/// /3212 11121 21154 37374 47884 57008 333 69975 91117 91212;
0154067170999992010011305004+45867+007167FM-12+247999999V0203001N005119999999N9999999N1-01201-01301999999ADDAA101000391MA1999999073751MD1710051+9999ME1428869OA149900881REMSYN082AAXX  13054 06717 23/// /3010 11120 21130 37375 47886 57005 333 69935 91117 91212;
0324067170999992010011306004+45867+007167FM-12+247999999V0202801N005710006019N0009001N1-01151-01331999999ADDAA112004191AA224004191AL10600491AL29902291AY171061AY241061GA1091+999999999GF109991091999999999999999GJ101749IA1239KA1999N-01301MA1999999073741MD1510021+9999ME1428859MW1761OA149901131REMSYN130AAXX  13064 06717 01/09 92811 11115 21133 37374 47885 55002 60042 77674 333 21130 47/// 55029 69935 70041 90768 93122 91122 91215;
0137067170999992010011307004+45867+007167FM-12+247999999V0202901N005719999999N9999999N1-01141-01291999999ADDMA1999999073781MD1210041+9999ME1428909OA149900771REMSYN076AAXX  13074 06717 33/// /2911 11114 21129 37378 47890 52004 333 91115 91212;
0137067170999992010011308004+45867+007167FM-12+247999999V0202901N007719999999N9999999N1-01121-01241999999ADDMA1999999073811MD1210061+9999ME1428939OA149900931REMSYN076AAXX  13084 06717 33/// /2915 11112 21124 37381 47893 52006 333 91118 91215;
0137067170999992010011309004+45867+007167FM-12+247999999V0202701N008219999999N9999999N1-01091-01241999999ADDMA1999999073841MD1210101+9999ME1428979OA149901081REMSYN076AAXX  13094 06717 33/// /2716 11109 21124 37384 47897 52010 333 91121 91216;
0137067170999992010011310004+45867+007167FM-12+247999999V0202801N007719999999N9999999N1-01051-01281999999ADDMA1999999073881MD1210101+9999ME1429019OA149901081REMSYN076AAXX  13104 06717 33/// /2815 11105 21128 37388 47901 52010 333 91121 91217;
0137067170999992010011311004+45867+007167FM-12+247999999V0202601N006219999999N9999999N1-01001-01311999999ADDMA1999999073901MD1210091+9999ME1429049OA149901031REMSYN076AAXX  13114 06717 33/// /2612 11100 21131 37390 47904 52009 333 91120 91217;
0213067170999992010011312004+45867+007167FM-12+247999999V0202801N004610132019N0700001N1-00951-01251999999ADDAY171061AY241061GA1071+013201041GF108991999999012501999999MA1999999073881MD1010041+9999ME1429039MW1011OA149901081REMSYN088AAXX  13124 06717 31688 82809 11095 21125 37388 47903 50004 70174 333 87444 91121 91217;
0137067170999992010011313004+45867+007167FM-12+247999999V0202701N002619999999N9999999N1-00811-01091999999ADDMA1999999073871MD1810011+9999ME1429049OA149900721REMSYN076AAXX  13134 06717 33/// /2705 11081 21109 37387 47904 58001 333 91114 91211;
0137067170999992010011314004+45867+007167FM-12+247999999V0202801N001019999999N9999999N1-00781-01051999999ADDMA1999999073891MD1519999+9999ME1429079OA149900461REMSYN076AAXX  13144 06717 33/// /2802 11078 21105 37389 47907 55/// 333 91109 91208;
0137067170999992010011315004+45867+007167FM-12+247999999V0200901N002619999999N9999999N1-00861-01051999999ADDMA1999999073921MD1310041+9999ME1429099OA149901031REMSYN076AAXX  13154 06717 33/// /0905 11086 21105 37392 47909 53004 333 91120 91217;
0154067170999992010011316004+45867+007167FM-12+247999999V0200701N001519999999N9999999N1-00791-00981999999ADDAA101000021MA1999999073951MD1310081+9999ME1429139OA149900511REMSYN082AAXX  13164 06717 23/// /0703 11079 21098 37395 47913 53008 333 69915 91110 91207;
0137067170999992010011317004+45867+007167FM-12+247999999V0200801N001519999999N9999999N1-00821-00981999999ADDMA1999999073991MD1110101+9999ME1429179OA149900511REMSYN076AAXX  13174 06717 33/// /0803 11082 21098 37399 47917 51010 333 91110 91207;
0283067170999992010011318004+45867+007167FM-12+247999999V0200701N002112200019N0700001N1-00901-01061999999ADDAA112000021AL11200191AY171061AY211061GA1001+999999999GF100991001001999999001001IA1279KA1120M-00771MA1999999074001MD1210081+9999ME1429169MW1011OA149901081REMSYN118AAXX  13184 06717 01/88 00704 11090 21106 37400 47916 52008 69912 70171 333 11077 43/// 60005 90766 93101 91121 91217;
0137067170999992010011319004+45867+007167FM-12+247999999V0200901N000519999999N9999999N1-00931-01171999999ADDMA1999999074011MD1210061+9999ME1429179OA149900361REMSYN076AAXX  13194 06717 33/// /0901 11093 21117 37401 47917 52006 333 91107 91205;
0137067170999992010011320004+45867+007167FM-12+247999999V0202801N001519999999N9999999N1-01041-01251999999ADDMA1999999074011MD1210021+9999ME1429159OA149900261REMSYN076AAXX  13204 06717 33/// /2803 11104 21125 37401 47915 52002 333 91105 91203;
0137067170999992010011321004+45867+007167FM-12+247999999V0202601N003119999999N9999999N1-00961-01161999999ADDMA1999999074021MD1210021+9999ME1429179OA149900511REMSYN076AAXX  13214 06717 33/// /2606 11096 21116 37402 47917 52002 333 91110 91207;
0137067170999992010011322004+45867+007167FM-12+247999999V0202601N003619999999N9999999N1-00961-01201999999ADDMA1999999073991MD1710021+9999ME1429149OA149900571REMSYN076AAXX  13224 06717 33/// /2607 11096 21120 37399 47914 57002 333 91111 91207;
0137067170999992010011323004+45867+007167FM-12+247999999V0202801N003619999999N9999999N1-01021-01341999999ADDMA1999999073981MD1810031+9999ME1429129OA149900671REMSYN076AAXX  13234 06717 33/// /2807 11102 21134 37398 47912 58003 333 91113 91209;
0137067170999992010011400004+45867+007167FM-12+247999999V0202601N002619999999N9999999N1-01061-01421999999ADDMA1999999073931MD1810091+9999ME1429069OA149900671REMSYN076AAXX  14004 06717 33/// /2605 11106 21142 37393 47906 58009 333 91113 91209;
0137067170999992010011401004+45867+007167FM-12+247999999V0202701N003119999999N9999999N1-01091-01391999999ADDMA1999999073901MD1810091+9999ME1429039OA149900511REMSYN076AAXX  14014 06717 33/// /2706 11109 21139 37390 47903 58009 333 91110 91208;
0137067170999992010011402004+45867+007167FM-12+247999999V0202601N003119999999N9999999N1-01031-01201999999ADDMA1999999073901MD1719999+9999ME1429049OA149900571REMSYN076AAXX  14024 06717 33/// /2606 11103 21120 37390 47904 57/// 333 91111 91209;
0096067170999992010011403004+45867+007167FM-12+247999999V0202901N001519999999N9999999N1-01121-01321999999ADDMA1999999073891ME1429019REMSYN060AAXX  14034 06717 33/// /2903 11112 21132 37389 47901 5////;
0137067170999992010011404004+45867+007167FM-12+247999999V0202801N002619999999N9999999N1-01171-01331999999ADDMA1999999073871MD1810031+9999ME1428989OA149900461REMSYN076AAXX  14044 06717 33/// /2805 11117 21133 37387 47898 58003 333 91109 91205;
0137067170999992010011405004+45867+007167FM-12+247999999V0202901N002619999999N9999999N1-01151-01601999999ADDMA1999999073841MD1810061+9999ME1428969OA149900461REMSYN076AAXX  14054 06717 33/// /2905 11115 21160 37384 47896 58006 333 91109 91206;
0263067170999992010011406004+45867+007167FM-12+247999999V0202801N003612200019N0700001N1-01201-01411999999ADDAA124000391AL19900091GA1001+999999999GF100991001001999999001001GJ100009IA1279KA1999N-01181MA1999999073821MD1610071+9999ME1428939OA149900671REMSYN112AAXX  14064 06717 32/88 02807 11120 21141 37382 47893 56007 333 21118 43/// 55000 70002 90768 93100 91113 91209;
0137067170999992010011407004+45867+007167FM-12+247999999V0202601N004619999999N9999999N1-01151-01291999999ADDMA1999999073831MD1710041+9999ME1428959OA149900671REMSYN076AAXX  14074 06717 33/// /2609 11115 21129 37383 47895 57004 333 91113 91209;
0137067170999992010011408004+45867+007167FM-12+247999999V0202901N007219999999N9999999N1-01051-01151999999ADDMA1999999073841MD1519999+9999ME1428979OA149900881REMSYN076AAXX  14084 06717 33/// /2914 11105 21115 37384 47897 55/// 333 91117 91214;
0137067170999992010011409004+45867+007167FM-12+247999999V0202901N007719999999N9999999N1-01021-01361999999ADDMA1999999073841MD1210021+9999ME1428989OA149900981REMSYN076AAXX  14094 06717 33/// /2915 11102 21136 37384 47898 52002 333 91119 91215;
0137067170999992010011410004+45867+007167FM-12+247999999V0202901N006219999999N9999999N1-01031-01161999999ADDMA1999999073871MD1210041+9999ME1429019OA149900981REMSYN076AAXX  14104 06717 33/// /2912 11103 21116 37387 47901 52004 333 91119 91215;
0137067170999992010011411004+45867+007167FM-12+247999999V0202901N006219999999N9999999N1-01031-01151999999ADDMA1999999073881MD1310041+9999ME1429029OA149900931REMSYN076AAXX  14114 06717 33/// /2912 11103 21115 37388 47902 53004 333 91118 91215;
0207067170999992010011412004+45867+007167FM-12+247999999V0202901N006210024019N0100001N1-01051-01121999999ADDAY141061AY241061GA1091+999999999GF109991091999999999999999MA1999999073851MD1010011+9999ME1428989MW1471OA149900981REMSYN082AAXX  14124 06717 31/60 92912 11105 21112 37385 47898 50001 74744 333 91119 91215;
0154067170999992010011413004+45867+007167FM-12+247999999V0203001N006719999999N9999999N1-01041-01161999999ADDAA101000591MA1999999073851MD1710021+9999ME1428989OA149900981REMSYN082AAXX  14134 06717 23/// /3013 11104 21116 37385 47898 57002 333 69955 91119 91214;
0154067170999992010011414004+45867+007167FM-12+247999999V0202801N006219999999N9999999N1-01011-01121999999ADDAA101000391MA1999999073861MD1510021+9999ME1429009OA149900981REMSYN082AAXX  14144 06717 23/// /2812 11101 21112 37386 47900 55002 333 69935 91119 91214;
0154067170999992010011415004+45867+007167FM-12+247999999V0202901N005119999999N9999999N1-01041-01111999999ADDAA101000021MA1999999073861MD1310011+9999ME1429009OA149900981REMSYN082AAXX  14154 06717 23/// /2910 11104 21111 37386 47900 53001 333 69915 91119 91215;
0154067170999992010011416004+45867+007167FM-12+247999999V0202801N005119999999N9999999N1-01011-01141999999ADDAA101000021MA1999999073891MD1210041+9999ME1429039OA149900881REMSYN082AAXX  14164 06717 23/// /2810 11101 21114 37389 47903 52004 333 69915 91117 91213;
0137067170999992010011417004+45867+007167FM-12+247999999V0203101N005719999999N9999999N1-01061-01141999999ADDMA1999999073921MD1310061+9999ME1429059OA149900821REMSYN076AAXX  14174 06717 33/// /3111 11106 21114 37392 47905 53006 333 91116 91212;
0289067170999992010011418004+45867+007167FM-12+247999999V0202801N005110054019N0150001N1-01041-01121999999ADDAA112001091AL11200391AY171061AY241061GA1061+005401041GF106991999999004501999999IA1279KA1120M-01011MA1999999073971MD1310111+9999ME1429119MW1761OA149900981REMSYN124AAXX  14184 06717 01465 62810 11104 21112 37397 47911 53011 60012 77674 333 11101 43/// 69915 86418 90766 93103 91119 91215;
0137067170999992010011419004+45867+007167FM-12+247999999V0202901N007219999999N9999999N1-01001-01091999999ADDMA1999999074031MD1310141+9999ME1429189OA149900981REMSYN076AAXX  14194 06717 33/// /2914 11100 21109 37403 47918 53014 333 91119 91215;
0137067170999992010011420004+45867+007167FM-12+247999999V0202801N006219999999N9999999N1-01001-01071999999ADDMA1999999074091MD1310171+9999ME1429249OA149900981REMSYN076AAXX  14204 06717 33/// /2812 11100 21107 37409 47924 53017 333 91119 91215;
0137067170999992010011421004+45867+007167FM-12+247999999V0202601N007219999999N9999999N1-01001-01041999999ADDMA1999999074151MD1210181+9999ME1429309OA149901031REMSYN076AAXX  14214 06717 33/// /2614 11100 21104 37415 47930 52018 333 91120 91215;
0137067170999992010011422004+45867+007167FM-12+247999999V0202701N007719999999N9999999N1-01061-01111999999ADDMA1999999074181MD1110151+9999ME1429329OA149901031REMSYN076AAXX  14224 06717 33/// /2715 11106 21111 37418 47932 51015 333 91120 91216;
0137067170999992010011423004+45867+007167FM-12+247999999V0202801N007719999999N9999999N1-01111-01231999999ADDMA1999999074211MD1210121+9999ME1429349OA149901031REMSYN076AAXX  14234 06717 33/// /2815 11111 21123 37421 47934 52012 333 91120 91216;
0137067170999992010011500004+45867+007167FM-12+247999999V0202801N006219999999N9999999N1-01041-01291999999ADDMA1999999074221MD1210071+9999ME1429379OA149901031REMSYN076AAXX  15004 06717 33/// /2812 11104 21129 37422 47937 52007 333 91120 91217;
0137067170999992010011501004+45867+007167FM-12+247999999V0200801N003619999999N9999999N1-00871-01281999999ADDMA1999999074241MD1210061+9999ME1429429OA149900981REMSYN076AAXX  15014 06717 33/// /0807 11087 21128 37424 47942 52006 333 91119 91217;
0137067170999992010011502004+45867+007167FM-12+247999999V0200801N003619999999N9999999N1-00911-01311999999ADDMA1999999074321MD1310111+9999ME1429499OA149900671REMSYN076AAXX  15024 06717 33/// /0807 11091 21131 37432 47949 53011 333 91113 91212;
0096067170999992010011503004+45867+007167FM-12+247999999V0201001N004619999999N9999999N1-00761-01221999999ADDMA1999999074371ME1429579REMSYN060AAXX  15034 06717 33/// /1009 11076 21122 37437 47957 5////;
0137067170999992010011504004+45867+007167FM-12+247999999V0200701N003119999999N9999999N1-00731-01181999999ADDMA1999999074391MD1110151+9999ME1429609OA149900721REMSYN076AAXX  15044 06717 33/// /0706 11073 21118 37439 47960 51015 333 91114 91209;
0137067170999992010011505004+45867+007167FM-12+247999999V0200901N004619999999N9999999N1-00791-01211999999ADDMA1999999074451MD1310131+9999ME1429659OA149900621REMSYN076AAXX  15054 06717 33/// /0909 11079 21121 37445 47965 53013 333 91112 91210;
0279067170999992010011506004+45867+007167FM-12+247999999V0201001N006212200019N0500001N1-00811-01111999999ADDAA124001091AL10600191AL29900091GA1011+005401001GF101991999999004501999999GJ100009IA1279KA1999N-01111MA1999999074521MD1310151+9999ME1429729OA149901031REMSYN118AAXX  15064 06717 32484 11012 11081 21111 37452 47972 53015 333 21111 43/// 55000 70011 81018 90768 93100 91120 91217;
0137067170999992010011507004+45867+007167FM-12+247999999V0201001N005119999999N9999999N1-00791-01041999999ADDMA1999999074611MD1310221+9999ME1429819OA149900821REMSYN076AAXX  15074 06717 33/// /1010 11079 21104 37461 47981 53022 333 91116 91212;
0137067170999992010011508004+45867+007167FM-12+247999999V0201001N005119999999N9999999N1-00801-01051999999ADDMA1999999074691MD1219999+9999ME1429899OA149900821REMSYN076AAXX  15084 06717 33/// /1010 11080 21105 37469 47989 52/// 333 91116 91212;
0137067170999992010011509004+45867+007167FM-12+247999999V0201001N005119999999N9999999N1-00781-01031999999ADDMA1999999074771MD1210251+9999ME1429989OA149900821REMSYN076AAXX  15094 06717 33/// /1010 11078 21103 37477 47998 52025 333 91116 91212;
0137067170999992010011510004+45867+007167FM-12+247999999V0201001N004619999999N9999999N1-00761-01111999999ADDMA1999999074841MD1210231+9999ME1430059OA149900771REMSYN076AAXX  15104 06717 33/// /1009 11076 21111 37484 47005 52023 333 91115 91211;
0137067170999992010011511004+45867+007167FM-12+247999999V0201101N005119999999N9999999N1-00711-01221999999ADDMA1999999074851MD1110161+9999ME1430089OA149900721REMSYN076AAXX  15114 06717 33/// /1110 11071 21122 37485 47008 51016 333 91114 91211;
0137067170999992010011512004+45867+007167FM-12+247999999V0201001N004619999999N9999999N1-00711-01311999999ADDMA1999999074871MD1210101+9999ME1430109OA149900821REMSYN076AAXX  15124 06717 33/// /1009 11071 21131 37487 47010 52010 333 91116 91212;
0137067170999992010011513004+45867+007167FM-12+247999999V0201101N005119999999N9999999N1-00721-01181999999ADDMA1999999074891MD1210051+9999ME1430119OA149900721REMSYN076AAXX  15134 06717 33/// /1110 11072 21118 37489 47011 52005 333 91114 91210;
0137067170999992010011514004+45867+007167FM-12+247999999V0201001N005719999999N9999999N1-00761-01131999999ADDMA1999999074941MD1210091+9999ME1430169OA149900771REMSYN076AAXX  15144 06717 33/// /1011 11076 21113 37494 47016 52009 333 91115 91211;
0137067170999992010011515004+45867+007167FM-12+247999999V0201101N004619999999N9999999N1-00791-01061999999ADDMA1999999074991MD1310121+9999ME1430209OA149900821REMSYN076AAXX  15154 06717 33/// /1109 11079 21106 37499 47020 53012 333 91116 91211;
0137067170999992010011516004+45867+007167FM-12+247999999V0200801N004619999999N9999999N1-00811-01091999999ADDMA1999999075051MD1210161+9999ME1430269OA149900821REMSYN076AAXX  15164 06717 33/// /0809 11081 21109 37505 47026 52016 333 91116 91211;
0137067170999992010011517004+45867+007167FM-12+247999999V0200701N003619999999N9999999N1-00791-01591999999ADDMA1999999075061MD1110121+9999ME1430279OA149900671REMSYN076AAXX  15174 06717 33/// /0707 11079 21159 37506 47027 51012 333 91113 91209;
0238067170999992010011518004+45867+007167FM-12+247999999V0200701N002612200019N0750001N1-00771-02071999999ADDAL19900091GA1011+005401001GF101991999999004501999999IA1279KA1120M-00701MA1999999075111MD1310121+9999ME1430339OA149900821REMSYN106AAXX  15184 06717 32489 10705 11077 21207 37511 47033 53012 333 11070 43/// 81018 90766 93100 91116 91212;
0137067170999992010011519004+45867+007167FM-12+247999999V0200701N002119999999N9999999N1-00641-02561999999ADDMA1999999075131MD1110081+9999ME1430389OA149900461REMSYN076AAXX  15194 06717 33/// /0704 11064 21256 37513 47038 51008 333 91109 91208;
0137067170999992010011520004+45867+007167FM-12+247999999V0200701N002119999999N9999999N1-00621-02701999999ADDMA1999999075141MD1110081+9999ME1430399OA149900411REMSYN076AAXX  15204 06717 33/// /0704 11062 21270 37514 47039 51008 333 91108 91206;
0137067170999992010011521004+45867+007167FM-12+247999999V0200601N001519999999N9999999N1-00561-02411999999ADDMA1999999075171MD1310061+9999ME1430449OA149900671REMSYN076AAXX  15214 06717 33/// /0603 11056 21241 37517 47044 53006 333 91113 91209;
0137067170999992010011522004+45867+007167FM-12+247999999V0202801N001019999999N9999999N1-00651-02141999999ADDMA1999999075171MD1210041+9999ME1430429OA149900311REMSYN076AAXX  15224 06717 33/// /2802 11065 21214 37517 47042 52004 333 91106 91204;
0137067170999992010011523004+45867+007167FM-12+247999999V0202901N002119999999N9999999N1-00701-02011999999ADDMA1999999075191MD1210051+9999ME1430439OA149900361REMSYN076AAXX  15234 06717 33/// /2904 11070 21201 37519 47043 52005 333 91107 91205;
0137067170999992010011600004+45867+007167FM-12+247999999V0202801N003119999999N9999999N1-00741-01841999999ADDMA1999999075181MD1010011+9999ME1430419OA149900821REMSYN076AAXX  16004 06717 33/// /2806 11074 21184 37518 47041 50001 333 91116 91211;
0137067170999992010011601004+45867+007167FM-12+247999999V0202801N003119999999N9999999N1-00741-02021999999ADDMA1999999075191MD1210021+9999ME1430429OA149900511REMSYN076AAXX  16014 06717 33/// /2806 11074 21202 37519 47042 52002 333 91110 91208;
0137067170999992010011602004+45867+007167FM-12+247999999V0202801N002119999999N9999999N1-00731-01711999999ADDMA1999999075211MD1310021+9999ME1430449OA149900511REMSYN076AAXX  16024 06717 33/// /2804 11073 21171 37521 47044 53002 333 91110 91208;
0137067170999992010011603004+45867+007167FM-12+247999999V0202801N003119999999N9999999N1-00751-01991999999ADDMA1999999075171MD1819999+9999ME1430409OA149900511REMSYN076AAXX  16034 06717 33/// /2806 11075 21199 37517 47040 58/// 333 91110 91208;
0156067170999992010011604004+45867+007167FM-12+247999999V0200801N002619999999N9999999N1-00541-01971999999ADDMA1999999075191MD1410001+9999ME1430469OA149900511REMSYN076AAXX  16044 06717 33/// /0805 11054 21197 37519 47046 57000 333 91110 91208;EQDQ01+000072APCTEN
0137067170999992010011605004+45867+007167FM-12+247999999V0202501N001019999999N9999999N1-00531-02591999999ADDMA1999999075171MD1710041+9999ME1430449OA149900511REMSYN076AAXX  16054 06717 33/// /2502 11053 21259 37517 47044 57004 333 91110 91208;
0282067170999992010011606004+45867+007167FM-12+247999999V0202801N001512200019N0750001N1-00501-02381999999ADDAA124000091AL19900091GA1001+999999999GF100991001001999999001001GJ102109IA1279KA1999N-00801MA1999999075161MD1710011+9999ME1430449OA149900511REMSYN112AAXX  16064 06717 32/89 02803 11050 21238 37516 47044 57001 333 21080 43/// 55035 70000 90768 93100 91110 91208;EQDQ01  00002PRCP24
0137067170999992010011607004+45867+007167FM-12+247999999V0202901N002619999999N9999999N1-00591-02391999999ADDMA1999999075171MD1510021+9999ME1430439OA149900361REMSYN076AAXX  16074 06717 33/// /2905 11059 21239 37517 47043 55002 333 91107 91206;
0137067170999992010011608004+45867+007167FM-12+247999999V0202801N004119999999N9999999N1-00511-02701999999ADDMA1999999075161MD1710011+9999ME1430449OA149900511REMSYN076AAXX  16084 06717 33/// /2808 11051 21270 37516 47044 57001 333 91110 91208;
0137067170999992010011609004+45867+007167FM-12+247999999V0202801N004119999999N9999999N1-00521-02581999999ADDMA1999999075151MD1710011+9999ME1430429OA149900511REMSYN076AAXX  16094 06717 33/// /2808 11052 21258 37515 47042 57001 333 91110 91208;
0137067170999992010011610004+45867+007167FM-12+247999999V0202801N003619999999N9999999N1-00421-02301999999ADDMA1999999075181MD1210011+9999ME1430489OA149900511REMSYN076AAXX  16104 06717 33/// /2807 11042 21230 37518 47048 52001 333 91110 91209;
0137067170999992010011611004+45867+007167FM-12+247999999V0202701N005719999999N9999999N1-00451-02151999999ADDMA1999999075141MD1710021+9999ME1430439OA149900671REMSYN076AAXX  16114 06717 33/// /2711 11045 21215 37514 47043 57002 333 91113 91212;
0185067170999992010011612004+45867+007167FM-12+247999999V0202701N005710054019N0500001N1-00371-01861999999ADDGA1081+005401041GF108991999999004501999999MA1999999075101MD1710051+9999ME1430409OA149900721REMSYN082AAXX  16124 06717 32484 82711 11037 21186 37510 47040 57005 333 88418 91114 91212;
0137067170999992010011613004+45867+007167FM-12+247999999V0202801N005119999999N9999999N1-00391-01811999999ADDMA1999999075071MD1710111+9999ME1430379OA149900721REMSYN076AAXX  16134 06717 33/// /2810 11039 21181 37507 47037 57011 333 91114 91212;
0137067170999992010011614004+45867+007167FM-12+247999999V0202801N004119999999N9999999N1-00351-01791999999ADDMA1999999075031MD1719999+9999ME1430349OA149900721REMSYN076AAXX  16144 06717 33/// /2808 11035 21179 37503 47034 57/// 333 91114 91212;
0137067170999992010011615004+45867+007167FM-12+247999999V0203001N006219999999N9999999N1-00221-02031999999ADDMA1999999075011MD1710091+9999ME1430349OA149900771REMSYN076AAXX  16154 06717 33/// /3012 11022 21203 37501 47034 57009 333 91115 91212;
0137067170999992010011616004+45867+007167FM-12+247999999V0203001N005119999999N9999999N1-00361-01781999999ADDMA1999999075011MD1710061+9999ME1430319OA149900821REMSYN076AAXX  16164 06717 33/// /3010 11036 21178 37501 47031 57006 333 91116 91212;
0137067170999992010011617004+45867+007167FM-12+247999999V0203001N005719999999N9999999N1-00161-01791999999ADDMA1999999075011MD1710021+9999ME1430359OA149901031REMSYN076AAXX  16174 06717 33/// /3011 11016 21179 37501 47035 57002 333 91120 91211;
0190067170999992010011618004+45867+007167FM-12+247999999V0203101N001519999999N0750001N1-00151-01381999999ADDAL19900091IA1239KA1120M-00121MA1999999075021MD1510011+9999ME1430379OA149901031REMSYN100AAXX  16184 06717 32/89 /3103 11015 21138 37502 47037 55001 333 11012 47/// 90766 93100 91120 91212;
0137067170999992010011619004+45867+007167FM-12+247999999V0203001N004119999999N9999999N1-00401-00941999999ADDMA1999999075061MD1210051+9999ME1430369OA149901241REMSYN076AAXX  16194 06717 33/// /3008 11040 21094 37506 47036 52005 333 91124 91213;
0154067170999992010011620004+45867+007167FM-12+247999999V0202901N005719999999N9999999N1-00531-00671999999ADDAA101000591MA1999999074991MD1710021+9999ME1430269OA149901241REMSYN082AAXX  16204 06717 23/// /2911 11053 21067 37499 47026 57002 333 69965 91124 91213;
0154067170999992010011621004+45867+007167FM-12+247999999V0202801N004119999999N9999999N1-00621-00651999999ADDAA101000021MA1999999074931MD1710091+9999ME1430189OA149901241REMSYN082AAXX  16214 06717 23/// /2808 11062 21065 37493 47018 57009 333 69915 91124 91213;
0154067170999992010011622004+45867+007167FM-12+247999999V0203001N001519999999N9999999N1-00521-00671999999ADDAA101000021MA1999999074911MD1710151+9999ME1430189OA149900621REMSYN082AAXX  16224 06717 23/// /3003 11052 21067 37491 47018 57015 333 69915 91112 91209;
0154067170999992010011623004+45867+007167FM-12+247999999V0203001N004619999999N9999999N1-00481-00591999999ADDAA101000591MA1999999074891MD1710101+9999ME1430169OA149901081REMSYN082AAXX  16234 06717 23/// /3009 11048 21059 37489 47016 57010 333 69955 91121 91212;
0160067170999992010011700004+45867+007167FM-12+247999999V0202801N002119999999N9999999N1-00491-00561999999ADDAA106002091MA1999999074881MD1710051+9999ME1430159OA149901241REMSYN088AAXX  17004 06717 03/// /2804 11049 21056 37488 47015 57005 60021 333 69965 91124 91213;
0154067170999992010011701004+45867+007167FM-12+247999999V0201001N004119999999N9999999N1-00561-00611999999ADDAA101000891MA1999999074921MD1310011+9999ME1430189OA149900771REMSYN082AAXX  17014 06717 23/// /1008 11056 21061 37492 47018 53001 333 69975 91115 91208;
0154067170999992010011702004+45867+007167FM-12+247999999V0203001N000519999999N9999999N1-00531-00571999999ADDAA101000591MA1999999074921MD1219999+9999ME1430189OA149900621REMSYN082AAXX  17024 06717 23/// /3001 11053 21057 37492 47018 52/// 333 69945 91112 91208;
0096067170999992010011703004+45867+007167FM-12+247999999V0203401N001019999999N9999999N1-00481-00761999999ADDMA1999999074841ME1430119REMSYN060AAXX  17034 06717 43/// /3402 11048 21076 37484 47011 5////;
