0140067120999992011010100004+46333+006917FM-12+038399999V0201001N001019999999N9999999N1-00091-00231102491ADDMA1999999097721MD1810021+9999OA149900721REMSYN088AAXX  01004 06712 33/// /1002 11009 21023 39772 40249 58002 333 55300 20004 91114 91209;
0140067120999992011010101004+46333+006917FM-12+038399999V0201501N001519999999N9999999N1-00121-00281102471ADDMA1999999097701MD1710051+9999OA149900411REMSYN088AAXX  01014 06712 33/// /1503 11012 21028 39770 40247 57005 333 55300 20004 91108 91206;
0140067120999992011010102004+46333+006917FM-12+038399999V0201801N002619999999N9999999N1-00171-00331102491ADDMA1999999097711MD1510021+9999OA149900411REMSYN088AAXX  01024 06712 33/// /1805 11017 21033 39771 40249 55002 333 55300 20004 91108 91206;
0210067120999992011010103004+46333+006917FM-12+038399999V0202001N001512200019N0120001N1-00231-00361102481ADDAY101031AY201031GA1001+999999999GF100991001001999999001001MA1999999097691MD1810031+9999MW1101OA149900511REMSYN094AAXX  01034 06712 31/62 02003 11023 21036 39769 40248 58003 71000 333 55300 20004 91110 91207;
0140067120999992011010104004+46333+006917FM-12+038399999V0201901N000519999999N9999999N1-00231-00371102471ADDMA1999999097681MD1710021+9999OA149900311REMSYN088AAXX  01044 06712 33/// /1901 11023 21037 39768 40247 57002 333 55300 20004 91106 91204;
0140067120999992011010105004+46333+006917FM-12+038399999V0202001N001519999999N9999999N1-00281-00421102501ADDMA1999999097701MD1510011+9999OA149900361REMSYN088AAXX  01054 06712 33/// /2003 11028 21042 39770 40250 55001 333 55300 20004 91107 91204;
0295067120999992011010106004+46333+006917FM-12+038399999V0201901N002112200019N0100001N1-00331-00491102501ADDAL19900091AY101061AY201061GA1001+999999999GF100991001001999999001001GJ102109IA1149IA2999-00709KA1999N-00361MA1999999097691MD1010001+9999MW1101OA149900721REMSYN130AAXX  01064 06712 31/60 01904 11033 21049 39769 40250 50000 71000 333 21036 34107 55035 55300 20004 70000 90768 93100 91114 91209;
0140067120999992011010107004+46333+006917FM-12+038399999V0201601N000519999999N9999999N1-00321-00401102521ADDMA1999999097711MD1310031+9999OA149900311REMSYN088AAXX  01074 06712 33/// /1601 11032 21040 39771 40252 53003 333 55300 20004 91106 91205;
0140067120999992011010108004+46333+006917FM-12+038399999V0201801N001519999999N9999999N1-00261-00471102511ADDMA1999999097711MD1219999+9999OA149900411REMSYN088AAXX  01084 06712 33/// /1803 11026 21047 39771 40251 52/// 333 55300 20022 91108 91205;
0087067120999992011010109004+46333+006917FM-12+038399999V0201601N003119999999N9999999N1-00101-00381102481ADDMA1999999097711REMSYN060AAXX  01094 06712 43/// /1606 11010 21038 39771 40248 5////;
0087067120999992011010110004+46333+006917FM-12+038399999V0201701N003119999999N9999999N1+00051-00311102431ADDMA1999999097691REMSYN060AAXX  01104 06712 43/// /1706 10005 21031 39769 40243 5////;
0140067120999992011010111004+46333+006917FM-12+038399999V0202001N001019999999N9999999N1+00121-00261102371ADDMA1999999097641MD1810071+9999OA149900511REMSYN088AAXX  01114 06712 33/// /2002 10012 21026 39764 40237 58007 333 553// 2//// 91110 91207;
0087067120999992011010112004+46333+006917FM-12+038399999V0202101N001019999999N9999999N1+00251-00171102281ADDMA1999999097581REMSYN060AAXX  01124 06712 43/// /2102 10025 21017 39758 40228 5////;
0087067120999992011010113004+46333+006917FM-12+038399999V0202201N001019999999N9999999N1+00321-00201102181ADDMA1999999097501REMSYN060AAXX  01134 06712 43/// /2202 10032 21020 39750 40218 5////;
0087067120999992011010114004+46333+006917FM-12+038399999V0202701N001019999999N9999999N1+00341-00111102151ADDMA1999999097471REMSYN060AAXX  01144 06712 43/// /2702 10034 21011 39747 40215 5////;
0157067120999992011010115004+46333+006917FM-12+038399999V0202701N000512200019N0120001N1+00061-00171102191ADDAY101031AY201031GA1001+999999999GF100991001001999999001001MA1999999097461MW1101REMSYN066AAXX  01154 06712 41/62 02701 10006 21017 39746 40219 5//// 71000;
0087067120999992011010116004+46333+006917FM-12+038399999V0201501N001019999999N9999999N1+00011-00161102191ADDMA1999999097451REMSYN060AAXX  01164 06712 43/// /1502 10001 21016 39745 40219 5////;
0087067120999992011010117004+46333+006917FM-12+038399999V0201701N000519999999N9999999N1-00121-00211102191ADDMA1999999097431REMSYN060AAXX  01174 06712 43/// /1701 11012 21021 39743 40219 5////;
0167067120999992011010118004+46333+006917FM-12+038399999V0201501N001512200019N0200001N1-00111-00231102191ADDAL10600091GA1001+999999999GF100991001001999999001001IA1019MA1999999097431REMSYN082AAXX  01184 06712 42/70 01503 11011 21023 39743 40219 5//// 333 30/// 90766 93100;
0103067120999992011010119004+46333+006917FM-12+038399999V0202101N001019999999N9999999N1-00101-00241102191ADDMA1999999097431REMSYN076AAXX  01194 06712 33/// /2102 11010 21024 39743 40219 5//// 333 553// 20004;
0140067120999992011010120004+46333+006917FM-12+038399999V0201701N000519999999N9999999N1-00171-00251102211ADDMA1999999097441MD1210011+9999OA149900151REMSYN088AAXX  01204 06712 33/// /1701 11017 21025 39744 40221 52001 333 55300 20004 91103 91202;
0140067120999992011010121004+46333+006917FM-12+038399999V0201901N001519999999N9999999N1-00141-00291102221ADDMA1999999097451MD1210021+9999OA149900211REMSYN088AAXX  01214 06712 33/// /1903 11014 21029 39745 40222 52002 333 55300 20004 91104 91203;
0140067120999992011010122004+46333+006917FM-12+038399999V0209999C000019999999N9999999N1-00181-00311102191ADDMA1999999097421MD1710011+9999OA149900261REMSYN088AAXX  01224 06712 33/// /0000 11018 21031 39742 40219 57001 333 55300 20004 91105 91204;
0140067120999992011010123004+46333+006917FM-12+038399999V0201601N002119999999N9999999N1-00311-00431102161ADDMA1999999097371MD1710071+9999OA149900261REMSYN088AAXX  01234 06712 33/// /1604 11031 21043 39737 40216 57007 333 55300 20004 91105 91204;
0140067120999992011010200004+46333+006917FM-12+038399999V0202201N000519999999N9999999N1-00301-00401102121ADDMA1999999097331MD1810121+9999OA149900261REMSYN088AAXX  02004 06712 33/// /2201 11030 21040 39733 40212 58012 333 55300 20004 91105 91204;
0140067120999992011010201004+46333+006917FM-12+038399999V0201501N000519999999N9999999N1-00191-00321102091ADDMA1999999097321MD1710101+9999OA149900261REMSYN088AAXX  02014 06712 33/// /1501 11019 21032 39732 40209 57010 333 55300 20004 91105 91202;
0087067120999992011010202004+46333+006917FM-12+038399999V0201601N001519999999N9999999N1-00261-00421102141ADDMA1999999097361REMSYN060AAXX  02024 06712 43/// /1603 11026 21042 39736 40214 5////;
0157067120999992011010203004+46333+006917FM-12+038399999V0201901N001012200019N0100001N1-00221-00431102111ADDAY101031AY201031GA1001+999999999GF100991001001999999001001MA1999999097341MW1101REMSYN066AAXX  02034 06712 41/60 01902 11022 21043 39734 40211 5//// 71000;
0087067120999992011010204004+46333+006917FM-12+038399999V0202301N000519999999N9999999N1-00241-00401102111ADDMA1999999097331REMSYN060AAXX  02044 06712 43/// /2301 11024 21040 39733 40211 5////;
0087067120999992011010205004+46333+006917FM-12+038399999V0201401N001019999999N9999999N1-00181-00381102131ADDMA1999999097361REMSYN060AAXX  02054 06712 43/// /1402 11018 21038 39736 40213 5////;
0134067120999992011010206004+46333+006917FM-12+038399999V0201901N001019999999N9999999N1-00161-00351102101ADDIA2999-00609KA1999N-00321MA1999999097341REMSYN082AAXX  02064 06712 43/// /1902 11016 21035 39734 40210 5//// 333 21032 3/106 55060;
0175067120999992011010207004+46333+006917FM-12+038399999V0202001N000519999999N9999999N1-00121-00291102091ADDMA1999999097331MD1710021+9999OA149900151REMSYN088AAXX  02074 06712 33/// /2001 11012 21029 39733 40209 58000 333 55300 20004 91103 91202;EQDQ01+000082APCTENQ02+000002APC3  
0140067120999992011010208004+46333+006917FM-12+038399999V0201101N000519999999N9999999N1-00081-00281102131ADDMA1999999097381MD1310021+9999OA149900261REMSYN088AAXX  02084 06712 33/// /1101 11008 21028 39738 40213 53002 333 55300 20011 91105 91203;
0188067120999992011010209004+46333+006917FM-12+038399999V0201501N00211021001CN0250001N1-00031-00331102151ADDGA1081+021001061GF108991999999022501999999MA1999999097411MD1210071+9999OA149900311REMSYN094AAXX  02094 06712 32875 81504 11003 21033 39741 40215 52007 333 55300 20076 88657 91106 91204;
0140067120999992011010210004+46333+006917FM-12+038399999V0201501N001519999999N9999999N1+00001-00281102181ADDMA1999999097441MD1210111+9999OA149900411REMSYN088AAXX  02104 06712 33/// /1503 10000 21028 39744 40218 52011 333 55300 20212 91108 91205;
0140067120999992011010211004+46333+006917FM-12+038399999V0202101N001019999999N9999999N1+00001-00351102161ADDMA1999999097421MD1010041+9999OA149900411REMSYN088AAXX  02114 06712 33/// /2102 10000 21035 39742 40216 50004 333 55300 20425 91108 91205;
0188067120999992011010212004+46333+006917FM-12+038399999V0209999C00001018001CN0240001N1+00061-00311102091ADDGA1071+018001061GF107991999999017501999999MA1999999097371MD1710041+9999OA149900411REMSYN094AAXX  02124 06712 32774 70000 10006 21031 39737 40209 57004 333 55300 20626 87656 91108 91205;
0140067120999992011010213004+46333+006917FM-12+038399999V0203301N000519999999N9999999N1+00131-00331102041ADDMA1999999097331MD1810111+9999OA149900151REMSYN088AAXX  02134 06712 33/// /3301 10013 21033 39733 40204 58011 333 55301 20580 91103 91201;
0103067120999992011010214004+46333+006917FM-12+038399999V0201801N001019999999N9999999N1+00271-00261102021ADDMA1999999097331REMSYN076AAXX  02144 06712 33/// /1802 10027 21026 39733 40202 5//// 333 553// 20832;
0210067120999992011010215004+46333+006917FM-12+038399999V0201701N00101033001CN0200001N1+00141-00161102071ADDGA1041+012001071GA2041+033001031GF107991999999012501999999MA1999999097361MD1510011+9999OA149900411REMSYN100AAXX  02154 06712 32670 71702 10014 21016 39736 40207 55001 333 55302 20425 84740 84361 91108 91205;
0140067120999992011010216004+46333+006917FM-12+038399999V0201601N000519999999N9999999N1+00051-00151102111ADDMA1999999097381MD1310051+9999OA149900211REMSYN088AAXX  02164 06712 33/// /1601 10005 21015 39738 40211 53005 333 55300 20050 91104 91203;
0140067120999992011010217004+46333+006917FM-12+038399999V0209999C000019999999N9999999N1+00031-00201102141ADDMA1999999097411MD1310081+9999OA149900151REMSYN088AAXX  02174 06712 33/// /0000 10003 21020 39741 40214 53008 333 55300 20007 91103 91202;
0241067120999992011010218004+46333+006917FM-12+038399999V0201701N00051011101CN0180001N1+00031-00181102151ADDAL19900091GA1081+011101071GF108991999999012501999999IA1019KA1120M+00271MA1999999097421MD1110061+9999OA149900411REMSYN118AAXX  02184 06712 32668 81701 10003 21018 39742 40215 51006 333 10027 30/// 55300 20007 88737 90766 93100 91108 91205;
0140067120999992011010219004+46333+006917FM-12+038399999V0201901N001019999999N9999999N1+00041-00171102191ADDMA1999999097461MD1310081+9999OA149900151REMSYN088AAXX  02194 06712 33/// /1902 10004 21017 39746 40219 53008 333 55300 20004 91103 91202;
0140067120999992011010220004+46333+006917FM-12+038399999V0201301N000519999999N9999999N1+00041-00151102221ADDMA1999999097491MD1210081+9999OA149900151REMSYN088AAXX  02204 06712 33/// /1301 10004 21015 39749 40222 52008 333 55300 20004 91103 91202;
0140067120999992011010221004+46333+006917FM-12+038399999V0201901N001019999999N9999999N1+00011-00141102271ADDMA1999999097531MD1210111+9999OA149900151REMSYN088AAXX  02214 06712 33/// /1902 10001 21014 39753 40227 52011 333 55300 20004 91103 91202;
0140067120999992011010222004+46333+006917FM-12+038399999V0201401N001519999999N9999999N1+00111-00301102251ADDMA1999999097531MD1210071+9999OA149900261REMSYN088AAXX  02224 06712 33/// /1403 10011 21030 39753 40225 52007 333 55300 20004 91105 91203;
0140067120999992011010223004+46333+006917FM-12+038399999V0201301N002119999999N9999999N1+00111-00311102261ADDMA1999999097541MD1210051+9999OA149900411REMSYN088AAXX  02234 06712 33/// /1304 10011 21031 39754 40226 52005 333 55300 20004 91108 91204;
0140067120999992011010300004+46333+006917FM-12+038399999V0203401N001019999999N9999999N1+00061-00271102271ADDMA1999999097541MD1010011+9999OA149900411REMSYN088AAXX  03004 06712 33/// /3402 10006 21027 39754 40227 50001 333 55300 20007 91108 91204;
0159067120999992011010301004+46333+006917FM-12+038399999V0209999C000019999999N9999999N1-00011-00331102281ADDMA1999999097531MD1710031+9999OA149900311REMSYN088AAXX  03014 06712 33/// /0000 11001 21033 39753 40228 57000 333 55300 20004 91106 91204;EQDQ01+000002APC3  
0140067120999992011010302004+46333+006917FM-12+038399999V0203201N000519999999N9999999N1+00021-00391102301ADDMA1999999097561MD1219999+9999OA149900311REMSYN088AAXX  03024 06712 33/// /3201 10002 21039 39756 40230 52/// 333 55300 20004 91106 91204;
0167067120999992011010303004+46333+006917FM-12+038399999V0209999C000010210019N0120001N1+00011-00401102321ADDAY121031AY221031GA1071+021001061GF107991999999022501999999MA1999999097581MW1101REMSYN076AAXX  03034 06712 41862 70000 10001 21040 39758 40232 5//// 71022 333 87657;
0140067120999992011010304004+46333+006917FM-12+038399999V0203301N000519999999N9999999N1-00031-00371102351ADDMA1999999097601MD1110071+9999OA149900151REMSYN088AAXX  03044 06712 33/// /3301 11003 21037 39760 40235 51007 333 55300 20004 91103 91202;
0140067120999992011010305004+46333+006917FM-12+038399999V0209999C000019999999N9999999N1-00081-00381102371ADDMA1999999097611MD1110051+9999OA149900151REMSYN088AAXX  03054 06712 33/// /0000 11008 21038 39761 40237 51005 333 55300 20004 91103 91202;
0320067120999992011010306004+46333+006917FM-12+038399999V0201501N001012200019N0120001N1-00201-00481102381ADDAL19900091AY111061AY211061GA1021+036001031GF102991999999999999999999GJ100429IA1149IA2999-00509KA1999N+99999MA1999999097601MD1010021+9999MW1101OA149900411REMSYN136AAXX  03064 06712 31962 21502 11020 21048 39760 40238 50002 71011 333 21014 34105 55007 55300 20004 70000 82362 90768 93100 91108 91204;EQDQ01 -00142ATMN  
0140067120999992011010307004+46333+006917FM-12+038399999V0201401N002119999999N9999999N1-00191-00791102381ADDMA1999999097601MD1410001+9999OA149900461REMSYN088AAXX  03074 06712 33/// /1404 11019 21079 39760 40238 54000 333 55300 20004 91109 91204;
0140067120999992011010308004+46333+006917FM-12+038399999V0201501N002619999999N9999999N1-00231-00781102401ADDMA1999999097611MD1410001+9999OA149900511REMSYN088AAXX  03084 06712 33/// /1505 11023 21078 39761 40240 54/// 333 55300 20025 91110 91206;
0145067120999992011010309004+46333+006917FM-12+038399999V0203201N001012200019N0120001N1-00101-00551102441ADDGA1001+999999999GF100991001001999999001001MA1999999097671REMSYN076AAXX  03094 06712 32/62 03202 11010 21055 39767 40244 5//// 333 553// 20385;
0140067120999992011010310004+46333+006917FM-12+038399999V0209999C000019999999N9999999N1-00031-00591102441ADDMA1999999097681MD1210081+9999OA149900211REMSYN088AAXX  03104 06712 33/// /0000 11003 21059 39768 40244 52008 333 553// 20835 91104 91203;
0140067120999992011010311004+46333+006917FM-12+038399999V0203301N002119999999N9999999N1+00061-00501102381ADDMA1999999097641MD1010031+9999OA149900311REMSYN088AAXX  03114 06712 33/// /3304 10006 21050 39764 40238 50003 333 553// 2//// 91106 91204;
0216067120999992011010312004+46333+006917FM-12+038399999V0203401N003112200019N0080001N1+00091-00461102321ADDAY101061AY201061GA1011+005101071GF101991999999004501999999MA1999999097591MD1710081+9999MW1101OA149900511REMSYN100AAXX  03124 06712 31458 13406 10009 21046 39759 40232 57008 71000 333 553// 2//// 81717 91110 91206;
0140067120999992011010313004+46333+006917FM-12+038399999V0203301N003119999999N9999999N1+00091-00451102281ADDMA1999999097551MD1710131+9999OA149900511REMSYN088AAXX  03134 06712 33/// /3306 10009 21045 39755 40228 57013 333 553// 2//// 91110 91206;
0103067120999992011010314004+46333+006917FM-12+038399999V0203301N003619999999N9999999N1+00091-00491102291ADDMA1999999097561REMSYN076AAXX  03144 06712 33/// /3307 10009 21049 39756 40229 5//// 333 553// 20922;
0135067120999992011010315004+46333+006917FM-12+038399999V0203001N001519999999N0500001N1+00011-00491102331ADDGF105991999999012501999999MA1999999097591REMSYN082AAXX  03154 06712 32684 53003 10001 21049 39759 40233 5//// 333 553// 20256 85734;
0140067120999992011010316004+46333+006917FM-12+038399999V0202101N001019999999N9999999N1-00141-00551102341ADDMA1999999097571MD1010021+9999OA149900621REMSYN088AAXX  03164 06712 33/// /2102 11014 21055 39757 40234 50002 333 55300 20054 91112 91207;
0140067120999992011010317004+46333+006917FM-12+038399999V0201801N000519999999N9999999N1-00081-00541102351ADDMA1999999097591MD1210031+9999OA149900211REMSYN088AAXX  03174 06712 33/// /1801 11008 21054 39759 40235 52003 333 55300 20004 91104 91203;
0241067120999992011010318004+46333+006917FM-12+038399999V0202001N00101010201CN0200001N1-00111-00581102361ADDAL19900091GA1071+010201071GF107991999999012501999999IA1019KA1120M+00121MA1999999097591MD1510001+9999OA149900671REMSYN118AAXX  03184 06712 32670 72002 11011 21058 39759 40236 55000 333 10012 30/// 55300 20004 87734 90766 93100 91113 91207;
0140067120999992011010319004+46333+006917FM-12+038399999V0201901N001019999999N9999999N1-00161-00571102371ADDMA1999999097591MD1210021+9999OA149900211REMSYN088AAXX  03194 06712 33/// /1902 11016 21057 39759 40237 52002 333 55300 20004 91104 91203;
0140067120999992011010320004+46333+006917FM-12+038399999V0201601N002119999999N9999999N1-00261-00621102361ADDMA1999999097571MD1710021+9999OA149900261REMSYN088AAXX  03204 06712 33/// /1604 11026 21062 39757 40236 57002 333 55300 20004 91105 91204;
0140067120999992011010321004+46333+006917FM-12+038399999V0201501N002119999999N9999999N1-00241-00691102371ADDMA1999999097581MD1710011+9999OA149900361REMSYN088AAXX  03214 06712 33/// /1504 11024 21069 39758 40237 57001 333 55300 20004 91107 91205;
0140067120999992011010322004+46333+006917FM-12+038399999V0201601N001019999999N9999999N1-00321-00511102361ADDMA1999999097561MD1710031+9999OA149900361REMSYN088AAXX  03224 06712 33/// /1602 11032 21051 39756 40236 57003 333 55300 20004 91107 91205;
0140067120999992011010323004+46333+006917FM-12+038399999V0202001N001519999999N9999999N1-00411-00601102421ADDMA1999999097601MD1310031+9999OA149900261REMSYN088AAXX  03234 06712 33/// /2003 11041 21060 39760 40242 53003 333 55300 20004 91105 91204;
0140067120999992011010400004+46333+006917FM-12+038399999V0201801N002119999999N9999999N1-00301-00581102371ADDMA1999999097571MD1010011+9999OA149900671REMSYN088AAXX  04004 06712 33/// /1804 11030 21058 39757 40237 50001 333 55300 20004 91113 91207;
0140067120999992011010401004+46333+006917FM-12+038399999V0203401N000519999999N9999999N1-00321-00581102331ADDMA1999999097531MD1810031+9999OA149900411REMSYN088AAXX  04014 06712 33/// /3401 11032 21058 39753 40233 58003 333 55300 20004 91108 91207;
0140067120999992011010402004+46333+006917FM-12+038399999V0201701N002619999999N9999999N1-00311-00591102281ADDMA1999999097481MD1719999+9999OA149900411REMSYN088AAXX  04024 06712 33/// /1705 11031 21059 39748 40228 57/// 333 55300 20004 91108 91206;
0188067120999992011010403004+46333+006917FM-12+038399999V0201801N00211021001CN0200001N1-00281-00681102231ADDGA1071+021001041GF107991999999022501999999MA1999999097441MD1710131+9999OA149900411REMSYN094AAXX  04034 06712 32870 71804 11028 21068 39744 40223 57013 333 55300 20004 87457 91108 91207;
0140067120999992011010404004+46333+006917FM-12+038399999V0201701N001519999999N9999999N1-00351-00671102191ADDMA1999999097391MD1610141+9999OA149900411REMSYN088AAXX  04044 06712 33/// /1703 11035 21067 39739 40219 56014 333 55300 20004 91108 91206;
0140067120999992011010405004+46333+006917FM-12+038399999V0201501N002119999999N9999999N1-00321-00721102171ADDMA1999999097381MD1610101+9999OA149900411REMSYN088AAXX  04054 06712 33/// /1504 11032 21072 39738 40217 56010 333 55300 20004 91108 91205;
0301067120999992011010406004+46333+006917FM-12+038399999V0201701N001012200019N0100001N1-00381-00691102151ADDAL19900091AY121061AY221061GA1041+027001031GF104991999999999999999999GJ103609IA1149IA2999-00709KA1999N-00411MA1999999097351MD1610091+9999MW1101OA149900461REMSYN136AAXX  04064 06712 31960 41702 11038 21069 39735 40215 56009 71022 333 21041 34107 55060 55300 20004 70000 84359 90768 93100 91109 91207;
0140067120999992011010407004+46333+006917FM-12+038399999V0201401N002619999999N9999999N1-00351-00701102111ADDMA1999999097311MD1810081+9999OA149900721REMSYN088AAXX  04074 06712 33/// /1405 11035 21070 39731 40211 58008 333 55300 20004 91114 91210;
0140067120999992011010408004+46333+006917FM-12+038399999V0201501N001019999999N9999999N1-00271-00751102121ADDMA1999999097341MD1519999+9999OA149900721REMSYN088AAXX  04084 06712 33/// /1502 11027 21075 39734 40212 55/// 333 55300 20018 91114 91210;
0135067120999992011010409004+46333+006917FM-12+038399999V0201501N003119999999N0150001N1-00221-00801102141ADDGF106991999999022501999999MA1999999097361REMSYN082AAXX  04094 06712 32865 61506 11022 21080 39736 40214 5//// 333 553// 20112 86657;
0140067120999992011010410004+46333+006917FM-12+038399999V0201601N002119999999N9999999N1-00151-00801102131ADDMA1999999097371MD1210061+9999OA149900621REMSYN088AAXX  04104 06712 33/// /1604 11015 21080 39737 40213 52006 333 55302 20590 91112 91206;
0140067120999992011010411004+46333+006917FM-12+038399999V0201801N001519999999N9999999N1-00101-00711102041ADDMA1999999097291MD1810051+9999OA149900511REMSYN088AAXX  04114 06712 33/// /1803 11010 21071 39729 40204 58005 333 55301 20644 91110 91205;
0188067120999992011010412004+46333+006917FM-12+038399999V0201701N00101021001CN0150001N1-00011-00741101951ADDGA1061+021001031GF106991999999022501999999MA1999999097221MD1710141+9999OA149900721REMSYN094AAXX  04124 06712 32865 61702 11001 21074 39722 40195 57014 333 55307 2//// 86357 91114 91210;
0140067120999992011010413004+46333+006917FM-12+038399999V0209999C000019999999N9999999N1-00051-00791101921ADDMA1999999097181MD1710191+9999OA149900311REMSYN088AAXX  04134 06712 33/// /0000 11005 21079 39718 40192 57019 333 55301 20446 91106 91203;
0103067120999992011010414004+46333+006917FM-12+038399999V0203301N001019999999N9999999N1-00021-00691101881ADDMA1999999097151REMSYN076AAXX  04144 06712 33/// /3302 11002 21069 39715 40188 5//// 333 553// 20263;
0087067120999992011010415004+46333+006917FM-12+038399999V0201901N001019999999N9999999N1-00031-00441101841ADDMA1999999097111REMSYN060AAXX  04154 06712 43/// /1902 11003 21044 39711 40184 5////;
0140067120999992011010416004+46333+006917FM-12+038399999V0202901N000519999999N9999999N1-00041-00551101861ADDMA1999999097131MD1710051+9999OA149900151REMSYN088AAXX  04164 06712 33/// /2901 11004 21055 39713 40186 57005 333 55300 20050 91103 91202;
0140067120999992011010417004+46333+006917FM-12+038399999V0201201N001019999999N9999999N1-00091-00431101901ADDMA1999999097161MD1310011+9999OA149900151REMSYN088AAXX  04174 06712 33/// /1202 11009 21043 39716 40190 53001 333 55300 20004 91103 91202;
0241067120999992011010418004+46333+006917FM-12+038399999V0201301N00101021001CN0150001N1-00121-00481101931ADDAL19900091GA1061+021001031GF106991999999022501999999IA1019KA1120M-00011MA1999999097181MD1210071+9999OA149900721REMSYN118AAXX  04184 06712 32865 61302 11012 21048 39718 40193 52007 333 11001 30/// 55300 20004 86357 90766 93100 91114 91210;
0140067120999992011010419004+46333+006917FM-12+038399999V0201601N001019999999N9999999N1-00131-00541101931ADDMA1999999097181MD1210051+9999OA149900151REMSYN088AAXX  04194 06712 33/// /1602 11013 21054 39718 40193 52005 333 55300 20004 91103 91203;
0140067120999992011010420004+46333+006917FM-12+038399999V0202001N001019999999N9999999N1-00201-00521101911ADDMA1999999097151MD1810011+9999OA149900211REMSYN088AAXX  04204 06712 33/// /2002 11020 21052 39715 40191 58001 333 55300 20004 91104 91203;
0140067120999992011010421004+46333+006917FM-12+038399999V0202101N001519999999N9999999N1-00281-00541101891ADDMA1999999097121MD1810061+9999OA149900211REMSYN088AAXX  04214 06712 33/// /2103 11028 21054 39712 40189 58006 333 55300 20004 91104 91203;
0140067120999992011010422004+46333+006917FM-12+038399999V0201601N002619999999N9999999N1-00251-00651101901ADDMA1999999097131MD1710051+9999OA149900411REMSYN088AAXX  04224 06712 33/// /1605 11025 21065 39713 40190 57005 333 55300 20004 91108 91205;
0140067120999992011010423004+46333+006917FM-12+038399999V0201901N002619999999N9999999N1-00291-00671101921ADDMA1999999097141MD1510011+9999OA149900461REMSYN088AAXX  04234 06712 33/// /1905 11029 21067 39714 40192 55001 333 55300 20004 91109 91206;
0140067120999992011010500004+46333+006917FM-12+038399999V0201501N002119999999N9999999N1-00271-00781101891ADDMA1999999097121MD1010001+9999OA149900461REMSYN088AAXX  05004 06712 33/// /1504 11027 21078 39712 40189 50000 333 55300 20004 91109 91206;
0140067120999992011010501004+46333+006917FM-12+038399999V0201801N003619999999N9999999N1-00301-00721101851ADDMA1999999097071MD1710061+9999OA149900571REMSYN088AAXX  05014 06712 33/// /1807 11030 21072 39707 40185 57006 333 55300 20004 91111 91208;
0140067120999992011010502004+46333+006917FM-12+038399999V0201901N002619999999N9999999N1-00341-00771101831ADDMA1999999097051MD1710091+9999OA149900571REMSYN088AAXX  05024 06712 33/// /1905 11034 21077 39705 40183 57009 333 55300 20004 91111 91208;
0139067120999992011010503004+46333+006917FM-12+038399999V0201601N002612200019N0200001N1-00271-00811101801ADDGA1031+027001041GF103991999999999999999999MA1999999097031REMSYN070AAXX  05034 06712 42970 31605 11027 21081 39703 40180 5//// 333 83459;
0140067120999992011010504004+46333+006917FM-12+038399999V0201501N004619999999N9999999N1-00281-00781101781ADDMA1999999097011MD1710061+9999OA149900621REMSYN088AAXX  05044 06712 33/// /1509 11028 21078 39701 40178 57006 333 55300 20004 91112 91209;
0140067120999992011010505004+46333+006917FM-12+038399999V0201701N002619999999N9999999N1-00471-00751101821ADDMA1999999097021MD1710031+9999OA149900671REMSYN088AAXX  05054 06712 33/// /1705 11047 21075 39702 40182 57003 333 55300 20004 91113 91209;
0267067120999992011010506004+46333+006917FM-12+038399999V0201501N002112200019N0150001N1-00281-00841101811ADDAL19900091GA1001+999999999GF100991001001999999001001GJ100669IA1149IA2999-00709KA1999N-00471MA1999999097041MD1310011+9999OA149900671REMSYN124AAXX  05064 06712 32/65 01504 11028 21084 39704 40181 53001 333 21047 34107 55011 55300 20004 70000 90768 93100 91113 91209;
0140067120999992011010507004+46333+006917FM-12+038399999V0201801N002119999999N9999999N1-00331-00821101821ADDMA1999999097041MD1210031+9999OA149900621REMSYN088AAXX  05074 06712 33/// /1804 11033 21082 39704 40182 52003 333 55300 20004 91112 91208;
0140067120999992011010508004+46333+006917FM-12+038399999V0203201N001519999999N9999999N1-00271-00781101831ADDMA1999999097061MD1219999+9999OA149900671REMSYN088AAXX  05084 06712 33/// /3203 11027 21078 39706 40183 52/// 333 55300 20025 91113 91208;
0188067120999992011010509004+46333+006917FM-12+038399999V0201601N004612200019N0130001N1-00051-00831101761ADDGA1031+066001001GF103991999999999999999999MA1999999097031MD1710011+9999OA149900821REMSYN094AAXX  05094 06712 32963 31609 11005 21083 39703 40176 57001 333 55308 20392 83072 91116 91209;
0140067120999992011010510004+46333+006917FM-12+038399999V0201401N005719999999N9999999N1+00111-00811101651ADDMA1999999096951MD1710091+9999OA149901031REMSYN088AAXX  05104 06712 33/// /1411 10011 21081 39695 40165 57009 333 553// 20842 91120 91212;
0140067120999992011010511004+46333+006917FM-12+038399999V0203601N004119999999N9999999N1+00221-00831101581ADDMA1999999096911MD1810151+9999OA149901241REMSYN088AAXX  05114 06712 33/// /3608 10022 21083 39691 40158 58015 333 553// 2//// 91124 91215;
0135067120999992011010512004+46333+006917FM-12+038399999V0200801N003119999999N0120001N1+00361-00891101481ADDGF105991999999999999999999MA1999999096831REMSYN082AAXX  05124 06712 32962 50806 10036 21089 39683 40148 5//// 333 553// 2//// 85072;
0140067120999992011010513004+46333+006917FM-12+038399999V0203301N003119999999N9999999N1+00291-00651101531ADDMA1999999096871MD1510081+9999OA149900721REMSYN088AAXX  05134 06712 33/// /3306 10029 21065 39687 40153 55008 333 55309 2//// 91114 91208;
0087067120999992011010514004+46333+006917FM-12+038399999V0201701N003619999999N9999999N1+00391-00511101441ADDMA1999999096801REMSYN060AAXX  05144 06712 43/// /1707 10039 21051 39680 40144 5////;
0139067120999992011010515004+46333+006917FM-12+038399999V0203001N000510180019N0500001N1+00311-00671101421ADDGA1061+018001061GF106991999999017501999999MA1999999096771REMSYN070AAXX  05154 06712 42784 63001 10031 21067 39677 40142 5//// 333 86656;
0140067120999992011010516004+46333+006917FM-12+038399999V0203401N002119999999N9999999N1+00241-00491101451ADDMA1999999096791MD1510081+9999OA149900511REMSYN088AAXX  05164 06712 33/// /3404 10024 21049 39679 40145 55008 333 55300 20065 91110 91207;
0140067120999992011010517004+46333+006917FM-12+038399999V0201701N001019999999N9999999N1+00061-00301101441ADDMA1999999096751MD1710051+9999OA149900311REMSYN088AAXX  05174 06712 33/// /1702 10006 21030 39675 40144 57005 333 55300 20007 91106 91204;
0241067120999992011010518004+46333+006917FM-12+038399999V0202401N000512200019N0200001N1-00011-00361101431ADDAL19900091GA1021+018001061GF102991999999017501999999IA1019KA1120M+00411MA1999999096721MD1819999+9999OA149901241REMSYN118AAXX  05184 06712 32770 22401 11001 21036 39672 40143 58/// 333 10041 30/// 55300 20007 82656 90766 93100 91124 91215;
0140067120999992011010519004+46333+006917FM-12+038399999V0200201N000519999999N9999999N1-00011-00411101401ADDMA1999999096701MD1610091+9999OA149900261REMSYN088AAXX  05194 06712 33/// /0201 11001 21041 39670 40140 56009 333 55300 20004 91105 91203;
0140067120999992011010520004+46333+006917FM-12+038399999V0201701N002119999999N9999999N1+00081-00571101341ADDMA1999999096651MD1619999+9999OA149900571REMSYN088AAXX  05204 06712 33/// /1704 10008 21057 39665 40134 56/// 333 55300 20004 91111 91206;
0103067120999992011010521004+46333+006917FM-12+038399999V0201801N004119999999N9999999N1+00081-00541101281ADDMA1999999096601REMSYN076AAXX  05214 06712 33/// /1808 10008 21054 39660 40128 5//// 333 553// 20004;
0140067120999992011010522004+46333+006917FM-12+038399999V0201501N004119999999N9999999N1+00291-00621101211ADDMA1999999096571MD1710131+9999OA149901241REMSYN088AAXX  05224 06712 33/// /1508 10029 21062 39657 40121 57013 333 55300 20004 91124 91214;
0140067120999992011010523004+46333+006917FM-12+038399999V0201401N001519999999N9999999N1+00391-00671101191ADDMA1999999096561MD1719999+9999OA149901491REMSYN088AAXX  05234 06712 33/// /1403 10039 21067 39656 40119 57/// 333 55300 20004 91129 91216;
0087067120999992011010600004+46333+006917FM-12+038399999V0201601N008719999999N9999999N1+00501-00771101091ADDMA1999999096491REMSYN060AAXX  06004 06712 43/// /1617 10050 21077 39649 40109 5////;
0087067120999992011010601004+46333+006917FM-12+038399999V0201101N002119999999N9999999N1+00501-00721101071ADDMA1999999096471REMSYN060AAXX  06014 06712 43/// /1104 10050 21072 39647 40107 5////;
0087067120999992011010602004+46333+006917FM-12+038399999V0201301N002119999999N9999999N1+00521-00701101111ADDMA1999999096511REMSYN060AAXX  06024 06712 43/// /1304 10052 21070 39651 40111 5////;
0139067120999992011010603004+46333+006917FM-12+038399999V0201101N001010120019N0160001N1+00491-00631101211ADDGA1081+012001071GF108991999999012501999999MA1999999096601REMSYN070AAXX  06034 06712 42666 81102 10049 21063 39660 40121 5//// 333 88740;
0087067120999992011010604004+46333+006917FM-12+038399999V0201701N005719999999N9999999N1+00441-00511101151ADDMA1999999096531REMSYN060AAXX  06044 06712 43/// /1711 10044 21051 39653 40115 5////;
0087067120999992011010605004+46333+006917FM-12+038399999V0201501N006219999999N9999999N1+00501-00521101131ADDMA1999999096521REMSYN060AAXX  06054 06712 43/// /1512 10050 21052 39652 40113 5////;
0218067120999992011010606004+46333+006917FM-12+038399999V0201401N005710270019N0150001N1+00601-00401101081ADDAL10600091GA1081+027001051GF108991999999999999999999GJ103069IA1099IA2999-00409KA1999N-00061MA1999999096491REMSYN100AAXX  06064 06712 42965 81411 10060 21040 39649 40108 5//// 333 21006 31104 55051 88559 90768 93100;
0087067120999992011010607004+46333+006917FM-12+038399999V0201401N007719999999N9999999N1+00621-00321101061ADDMA1999999096481REMSYN060AAXX  06074 06712 43/// /1415 10062 21032 39648 40106 5////;
0103067120999992011010608004+46333+006917FM-12+038399999V0201301N004619999999N9999999N1+00621-00331101091ADDMA1999999096511REMSYN076AAXX  06084 06712 33/// /1309 10062 21033 39651 40109 5//// 333 553// 20029;
0139067120999992011010609004+46333+006917FM-12+038399999V0201501N001510210019N0150001N1+00591-00141101161ADDGA1081+021001071GF108991999999022501999999MA1999999096571REMSYN070AAXX  06094 06712 42865 81503 10059 21014 39657 40116 5//// 333 88757;
0140067120999992011010610004+46333+006917FM-12+038399999V0201401N008219999999N9999999N1+00701-00301101141ADDMA1999999096571MD1210091+9999OA149901241REMSYN088AAXX  06104 06712 33/// /1416 10070 21030 39657 40114 52009 333 55300 20284 91124 91216;
0140067120999992011010611004+46333+006917FM-12+038399999V0201301N008719999999N9999999N1+00811-00401101071ADDMA1999999096521MD1810011+9999OA149901651REMSYN088AAXX  06114 06712 33/// /1317 10081 21040 39652 40107 58001 333 55300 20295 91132 91219;
0188067120999992011010612004+46333+006917FM-12+038399999V0201301N00771021001CN0150001N1+00871-00431100981ADDGA1081+021001071GF108991999999022501999999MA1999999096441MD1710131+9999OA149901651REMSYN094AAXX  06124 06712 32865 81315 10087 21043 39644 40098 57013 333 55300 20572 88757 91132 91223;
0140067120999992011010613004+46333+006917FM-12+038399999V0201601N004119999999N9999999N1+00861-00221100981ADDMA1999999096441MD1710131+9999OA149901651REMSYN088AAXX  06134 06712 33/// /1608 10086 21022 39644 40098 57013 333 55300 20558 91132 91219;
0087067120999992011010614004+46333+006917FM-12+038399999V0201401N006719999999N9999999N1+00801-00211101041ADDMA1999999096491REMSYN060AAXX  06144 06712 43/// /1413 10080 21021 39649 40104 5////;
0139067120999992011010615004+46333+006917FM-12+038399999V0201201N009310330019N0160001N1+00911-00271101011ADDGA1081+033001041GF108991999999999999999999MA1999999096481REMSYN070AAXX  06154 06712 42966 81218 10091 21027 39648 40101 5//// 333 88461;
0140067120999992011010616004+46333+006917FM-12+038399999V0201301N007219999999N9999999N1+00851-00081101031ADDMA1999999096491MD1210051+9999OA149901541REMSYN088AAXX  06164 06712 33/// /1314 10085 21008 39649 40103 52005 333 55300 20047 91130 91220;
0146067120999992011010617004+46333+006917FM-12+038399999V0201301N008219999999N9999999N1+00761+00051101121ADDMA1999999096561MD1210071+9999OA149901541REMSYN094AAXX  06174 06712 23/// /1316 10076 20005 39656 40112 52007 333 55300 20007 69915 91130 91220;
0292067120999992011010618004+46333+006917FM-12+038399999V0201401N00821003001CN0060001N1+00731+00161101171ADDAA112000591AL19900091AY161061AY221061GA1081+003001051GF108991999999004501999999IA1119KA1120M+00911MA1999999096601MD1210121+9999MW1631OA149901651REMSYN136AAXX  06184 06712 01456 81416 10073 20016 39660 40117 52012 69952 76362 333 10091 32/// 55300 20004 69945 88510 90766 93100 91132 91220;
0146067120999992011010619004+46333+006917FM-12+038399999V0201401N007719999999N9999999N1+00671+00211101241ADDMA1999999096661MD1210171+9999OA149901601REMSYN094AAXX  06194 06712 23/// /1415 10067 20021 39666 40124 52017 333 55300 20007 69955 91131 91219;
0146067120999992011010620004+46333+006917FM-12+038399999V0201301N009319999999N9999999N1+00641+00261101291ADDMA1999999096701MD1219999+9999OA149901651REMSYN094AAXX  06204 06712 23/// /1318 10064 20026 39670 40129 52/// 333 55300 20004 69965 91132 91219;
0146067120999992011010621004+46333+006917FM-12+038399999V0201401N009819999999N9999999N1+00581+00271101351ADDMA1999999096751MD1219999+9999OA149901651REMSYN094AAXX  06214 06712 23/// /1419 10058 20027 39675 40135 52/// 333 55300 20004 69925 91132 91220;
0140067120999992011010622004+46333+006917FM-12+038399999V0201501N009319999999N9999999N1+00581+00251101421ADDMA1999999096811MD1210151+9999OA149901751REMSYN088AAXX  06224 06712 33/// /1518 10058 20025 39681 40142 52015 333 55300 20004 91134 91222;
0103067120999992011010623004+46333+006917FM-12+038399999V0201401N010819999999N9999999N1+00611+00251101421ADDMA1999999096821REMSYN076AAXX  06234 06712 33/// /1421 10061 20025 39682 40142 5//// 333 553// 20004;
0087067120999992011010700004+46333+006917FM-12+038399999V0201301N010319999999N9999999N1+00621+00271101421ADDMA1999999096821REMSYN060AAXX  07004 06712 43/// /1320 10062 20027 39682 40142 5////;
0087067120999992011010701004+46333+006917FM-12+038399999V0201301N011319999999N9999999N1+00641+00261101421ADDMA1999999096821REMSYN060AAXX  07014 06712 43/// /1322 10064 20026 39682 40142 5////;
0087067120999992011010702004+46333+006917FM-12+038399999V0201301N009819999999N9999999N1+00631+00381101501ADDMA1999999096901REMSYN060AAXX  07024 06712 43/// /1319 10063 20038 39690 40150 5////;
0167067120999992011010703004+46333+006917FM-12+038399999V0201301N009310111019N0060001N1+00621+00391101491ADDAY161031AY261031GA1081+011101051GF108991999999012501999999MA1999999096891MW1651REMSYN076AAXX  07034 06712 41656 81318 10062 20039 39689 40149 5//// 76566 333 88537;
0146067120999992011010704004+46333+006917FM-12+038399999V0201401N010819999999N9999999N1+00631+00351101491ADDMA1999999096891MD1210071+9999OA149901541REMSYN094AAXX  07044 06712 23/// /1421 10063 20035 39689 40149 52007 333 55300 20004 69965 91130 91221;
0140067120999992011010705004+46333+006917FM-12+038399999V0201501N010819999999N9999999N1+00661+00311101411ADDMA1999999096821MD1710081+9999OA149901801REMSYN088AAXX  07054 06712 33/// /1521 10066 20031 39682 40141 57008 333 55300 20004 91135 91222;
0306067120999992011010706004+46333+006917FM-12+038399999V0201401N008712200019N0180001N1+00701+00271101331ADDAA112003091AL14800391AL29900091GA1031+030001031GF103991999999999999999999GJ100009IA1119IA2999+00409KA1999N+00561MA1999999096751MD1710141+9999OA149901801REMSYN142AAXX  07064 06712 02968 31417 10070 20027 39675 40133 57014 60032 333 20056 32004 55000 55300 20004 60005 70038 83360 90768 93100 91135 91224;
0140067120999992011010707004+46333+006917FM-12+038399999V0201101N002119999999N9999999N1+00551+00331101381ADDMA1999999096771MD1510121+9999OA149901751REMSYN088AAXX  07074 06712 33/// /1104 10055 20033 39677 40138 55012 333 55300 20007 91134 91221;
0103067120999992011010708004+46333+006917FM-12+038399999V0201401N007719999999N9999999N1+00741+00341101401ADDMA1999999096821REMSYN076AAXX  07084 06712 33/// /1415 10074 20034 39682 40140 5//// 333 553// 20032;
0145067120999992011010709004+46333+006917FM-12+038399999V0201201N009319999999N0200001N1+00941+00361101331ADDGA1031+024001031GF105991999999022501999999MA1999999096791REMSYN076AAXX  07094 06712 42870 51218 10094 20036 39679 40133 5//// 333 83358 83179;
0140067120999992011010710004+46333+006917FM-12+038399999V0201401N007719999999N9999999N1+01041+00381101321ADDMA1999999096791MD1710021+9999OA149901751REMSYN088AAXX  07104 06712 33/// /1415 10104 20038 39679 40132 57002 333 55309 20659 91134 91218;
0140067120999992011010711004+46333+006917FM-12+038399999V0201101N008219999999N9999999N1+01181+00311101271ADDMA1999999096771MD1710051+9999OA149901751REMSYN088AAXX  07114 06712 33/// /1116 10118 20031 39677 40127 57005 333 553// 20896 91134 91217;
0210067120999992011010712004+46333+006917FM-12+038399999V0201501N005112200019N0200001N1+01231+00391101261ADDGA1021+024001061GA2041+087001001GF104991999999022501999999MA1999999096771MD1510021+9999OA149901801REMSYN100AAXX  07124 06712 32870 41510 10123 20039 39677 40126 55002 333 55307 20634 82658 84079 91135 91223;
0140067120999992011010713004+46333+006917FM-12+038399999V0201301N008719999999N9999999N1+01341+00381101131ADDMA1999999096661MD1710131+9999OA149901491REMSYN088AAXX  07134 06712 33/// /1317 10134 20038 39666 40113 57013 333 553// 2//// 91129 91217;
0087067120999992011010714004+46333+006917FM-12+038399999V0201301N007219999999N9999999N1+01311+00291101181ADDMA1999999096701REMSYN060AAXX  07144 06712 43/// /1314 10131 20029 39670 40118 5////;
0139067120999992011010715004+46333+006917FM-12+038399999V0201601N004110180019N0180001N1+01241+00391101231ADDGA1051+018001061GF105991999999017501999999MA1999999096741REMSYN070AAXX  07154 06712 42768 51608 10124 20039 39674 40123 5//// 333 85656;
0140067120999992011010716004+46333+006917FM-12+038399999V0201601N005119999999N9999999N1+01281+00261101231ADDMA1999999096751MD1210091+9999OA149901241REMSYN088AAXX  07164 06712 33/// /1610 10128 20026 39675 40123 52009 333 55300 20040 91124 91216;
0140067120999992011010717004+46333+006917FM-12+038399999V0201501N005719999999N9999999N1+01211+00211101261ADDMA1999999096761MD1210061+9999OA149901341REMSYN088AAXX  07174 06712 33/// /1511 10121 20021 39676 40126 52006 333 55300 20004 91126 91216;
0122067120999992011010718004+46333+006917FM-12+038399999V0201301N004619999999N9999999N1+01181+00221101271ADDKA1120M+01361MA1999999096771REMSYN082AAXX  07184 06712 33/// /1309 10118 20022 39677 40127 5//// 333 10136 553// 20007;
0140067120999992011010719004+46333+006917FM-12+038399999V0201601N003119999999N9999999N1+00681+00251101341ADDMA1999999096751MD1019999+9999OA149901131REMSYN088AAXX  07194 06712 33/// /1606 10068 20025 39675 40134 50/// 333 55300 20007 91122 91212;
0087067120999992011010720004+46333+006917FM-12+038399999V0201301N004619999999N9999999N1+01111+00181101231ADDMA1999999096721REMSYN060AAXX  07204 06712 43/// /1309 10111 20018 39672 40123 5////;
0087067120999992011010721004+46333+006917FM-12+038399999V0201501N002619999999N9999999N1+00901+00241101291ADDMA1999999096741REMSYN060AAXX  07214 06712 43/// /1505 10090 20024 39674 40129 5////;
0140067120999992011010722004+46333+006917FM-12+038399999V0201601N001519999999N9999999N1+00911+00191101321ADDMA1999999096771MD1310021+9999OA149900571REMSYN088AAXX  07224 06712 33/// /1603 10091 20019 39677 40132 53002 333 55300 20007 91111 91206;
0103067120999992011010723004+46333+006917FM-12+038399999V0201601N003619999999N9999999N1+00711+00291101381ADDMA1999999096801REMSYN076AAXX  07234 06712 33/// /1607 10071 20029 39680 40138 5//// 333 553// 20007;
0103067120999992011010800004+46333+006917FM-12+038399999V0201201N004119999999N9999999N1+01161+00111101271ADDMA1999999096771REMSYN076AAXX  08004 06712 33/// /1208 10116 20011 39677 40127 5//// 333 553// 20004;
0087067120999992011010801004+46333+006917FM-12+038399999V0201501N002619999999N9999999N1+01051+00171101301ADDMA1999999096781REMSYN060AAXX  08014 06712 43/// /1505 10105 20017 39678 40130 5////;
0087067120999992011010802004+46333+006917FM-12+038399999V0201401N003619999999N9999999N1+00971+00231101331ADDMA1999999096791REMSYN060AAXX  08024 06712 43/// /1407 10097 20023 39679 40133 5////;
0139067120999992011010803004+46333+006917FM-12+038399999V0201701N004110210019N0180001N1+01161+00161101271ADDGA1081+021001061GF108991999999022501999999MA1999999096771REMSYN070AAXX  08034 06712 42868 81708 10116 20016 39677 40127 5//// 333 88657;
0087067120999992011010804004+46333+006917FM-12+038399999V0203501N005119999999N9999999N1+01021+00491101481ADDMA1999999096941REMSYN060AAXX  08044 06712 43/// /3510 10102 20049 39694 40148 5////;
0087067120999992011010805004+46333+006917FM-12+038399999V0201301N003119999999N9999999N1+00861+00561101591ADDMA1999999097021REMSYN060AAXX  08054 06712 43/// /1306 10086 20056 39702 40159 5////;
0246067120999992011010806004+46333+006917FM-12+038399999V0201901N003112200019N0200001N1+00701+00421101541ADDAL10600091AY161061AY211061GA1041+021001061GF104991999999022501999999GJ102769IA1119IA2999+00409KA1999N+00591MA1999999096951MW1011REMSYN106AAXX  08064 06712 41870 41906 10070 20042 39695 40154 5//// 70161 333 20059 32004 55046 84657 90768 93100;
0087067120999992011010807004+46333+006917FM-12+038399999V0201901N002119999999N9999999N1+00921+00361101511ADDMA1999999096961REMSYN060AAXX  08074 06712 43/// /1904 10092 20036 39696 40151 5////;
0103067120999992011010808004+46333+006917FM-12+038399999V0201501N004619999999N9999999N1+00901+00411101551ADDMA1999999096991REMSYN076AAXX  08084 06712 33/// /1509 10090 20041 39699 40155 5//// 333 553// 20043;
0139067120999992011010809004+46333+006917FM-12+038399999V0201201N006712200019N0250001N1+01081+00321101511ADDGA1041+024001061GF104991999999022501999999MA1999999096981REMSYN070AAXX  08094 06712 42875 41213 10108 20032 39698 40151 5//// 333 84658;
0087067120999992011010810004+46333+006917FM-12+038399999V0201201N009319999999N9999999N1+01221+00261101481ADDMA1999999096981REMSYN060AAXX  08104 06712 43/// /1218 10122 20026 39698 40148 5////;
0087067120999992011010811004+46333+006917FM-12+038399999V0201401N007219999999N9999999N1+01211+00351101491ADDMA1999999096981REMSYN060AAXX  08114 06712 43/// /1414 10121 20035 39698 40149 5////;
0145067120999992011010812004+46333+006917FM-12+038399999V0201201N007712200019N0250001N1+01371+00291101351ADDGA1021+024001031GF103991999999022501999999MA1999999096881REMSYN076AAXX  08124 06712 42875 31215 10137 20029 39688 40135 5//// 333 82358 83075;
0087067120999992011010813004+46333+006917FM-12+038399999V0201401N006719999999N9999999N1+01441+00241101311ADDMA1999999096851REMSYN060AAXX  08134 06712 43/// /1413 10144 20024 39685 40131 5////;
0087067120999992011010814004+46333+006917FM-12+038399999V0201401N005119999999N9999999N1+01401+00381101281ADDMA1999999096811REMSYN060AAXX  08144 06712 43/// /1410 10140 20038 39681 40128 5////;
0145067120999992011010815004+46333+006917FM-12+038399999V0203301N002112200019N0300001N1+01371+00191101331ADDGA1011+018001061GF103991999999017501999999MA1999999096861REMSYN076AAXX  08154 06712 42780 33304 10137 20019 39686 40133 5//// 333 81656 83079;
0087067120999992011010816004+46333+006917FM-12+038399999V0201801N003119999999N9999999N1+01021+00311101401ADDMA1999999096871REMSYN060AAXX  08164 06712 43/// /1806 10102 20031 39687 40140 5////;
0087067120999992011010817004+46333+006917FM-12+038399999V0201301N003619999999N9999999N1+01211+00081101331ADDMA1999999096831REMSYN060AAXX  08174 06712 43/// /1307 10121 20008 39683 40133 5////;
0195067120999992011010818004+46333+006917FM-12+038399999V0201401N002110870019N0250001N1+00761+00231101431ADDAL10600091GA1031+018001061GA2051+087001001GF105991999999017501999999IA1019MA1999999096851REMSYN094AAXX  08184 06712 42775 51404 10076 20023 39685 40143 5//// 333 30/// 83656 85079 90766 93100;
0087067120999992011010819004+46333+006917FM-12+038399999V0201601N003619999999N9999999N1+00911+00161101391ADDMA1999999096841REMSYN060AAXX  08194 06712 43/// /1607 10091 20016 39684 40139 5////;
0087067120999992011010820004+46333+006917FM-12+038399999V0201901N002619999999N9999999N1+00811+00171101381ADDMA1999999096811REMSYN060AAXX  08204 06712 43/// /1905 10081 20017 39681 40138 5////;
0087067120999992011010821004+46333+006917FM-12+038399999V0202001N001019999999N9999999N1+01171-00011101291ADDMA1999999096791REMSYN060AAXX  08214 06712 43/// /2002 10117 21001 39679 40129 5////;
0087067120999992011010822004+46333+006917FM-12+038399999V0201401N006719999999N9999999N1+01211+00001101281ADDMA1999999096781REMSYN060AAXX  08224 06712 43/// /1413 10121 20000 39678 40128 5////;
0087067120999992011010823004+46333+006917FM-12+038399999V0201901N001019999999N9999999N1+01211-00091101311ADDMA1999999096811REMSYN060AAXX  08234 06712 43/// /1902 10121 21009 39681 40131 5////;
0087067120999992011010900004+46333+006917FM-12+038399999V0201501N004119999999N9999999N1+00931+00031101381ADDMA1999999096831REMSYN060AAXX  09004 06712 43/// /1508 10093 20003 39683 40138 5////;
0087067120999992011010901004+46333+006917FM-12+038399999V0201601N003119999999N9999999N1+00811+00051101381ADDMA1999999096811REMSYN060AAXX  09014 06712 43/// /1606 10081 20005 39681 40138 5////;
0087067120999992011010902004+46333+006917FM-12+038399999V0201501N005719999999N9999999N1+01121-00081101301ADDMA1999999096791REMSYN060AAXX  09024 06712 43/// /1511 10112 21008 39679 40130 5////;
0139067120999992011010903004+46333+006917FM-12+038399999V0203401N001012200019N0180001N1+01181-00121101311ADDGA1041+027001031GF104991999999999999999999MA1999999096811REMSYN070AAXX  09034 06712 42968 43402 10118 21012 39681 40131 5//// 333 84359;
0087067120999992011010904004+46333+006917FM-12+038399999V0201501N002619999999N9999999N1+00801-00051101331ADDMA1999999096761REMSYN060AAXX  09044 06712 43/// /1505 10080 21005 39676 40133 5////;
0087067120999992011010905004+46333+006917FM-12+038399999V0201801N001519999999N9999999N1+00951-00101101241ADDMA1999999096701REMSYN060AAXX  09054 06712 43/// /1803 10095 21010 39670 40124 5////;
0187067120999992011010906004+46333+006917FM-12+038399999V0203101N001012200019N0180001N1+00881-00071101291ADDAL10600091GA1041+036001031GF104991999999999999999999GJ103009IA1099MA1999999096741REMSYN094AAXX  09064 06712 42968 43102 10088 21007 39674 40129 5//// 333 31/// 55050 84362 90768 93100;
0087067120999992011010907004+46333+006917FM-12+038399999V0201801N002619999999N9999999N1+00661-00011101411ADDMA1999999096821REMSYN060AAXX  09074 06712 43/// /1805 10066 21001 39682 40141 5////;
0103067120999992011010908004+46333+006917FM-12+038399999V0201801N001519999999N9999999N1+00801+00051101461ADDMA1999999096891REMSYN076AAXX  09084 06712 33/// /1803 10080 20005 39689 40146 5//// 333 553// 20040;
0135067120999992011010909004+46333+006917FM-12+038399999V0203301N003119999999N0200001N1+00931+00141101461ADDGF108991999999022501999999MA1999999096911REMSYN082AAXX  09094 06712 32870 83306 10093 20014 39691 40146 5//// 333 553// 20155 88657;
0140067120999992011010910004+46333+006917FM-12+038399999V0203301N001519999999N9999999N1+00941+00261101511ADDMA1999999096961MD1210141+9999OA149900671REMSYN088AAXX  09104 06712 33/// /3303 10094 20026 39696 40151 52014 333 55300 20230 91113 91208;
0140067120999992011010911004+46333+006917FM-12+038399999V0203301N004119999999N9999999N1+00911+00531101511ADDMA1999999096951MD1210061+9999OA149900671REMSYN088AAXX  09114 06712 33/// /3308 10091 20053 39695 40151 52006 333 55300 20252 91113 91208;
0188067120999992011010912004+46333+006917FM-12+038399999V0203401N00571021001CN0180001N1+00881+00681101461ADDGA1081+021001041GF108991999999022501999999MA1999999096901MD1810011+9999OA149901081REMSYN094AAXX  09124 06712 32868 83411 10088 20068 39690 40146 58001 333 55300 20522 88457 91121 91211;
0140067120999992011010913004+46333+006917FM-12+038399999V0203501N003119999999N9999999N1+00851+00661101471ADDMA1999999096911MD1710051+9999OA149900931REMSYN088AAXX  09134 06712 33/// /3506 10085 20066 39691 40147 57005 333 55300 20317 91118 91212;
0087067120999992011010914004+46333+006917FM-12+038399999V0203601N000519999999N9999999N1+00841+00641101541ADDMA1999999096971REMSYN060AAXX  09144 06712 43/// /3601 10084 20064 39697 40154 5////;
0167067120999992011010915004+46333+006917FM-12+038399999V0203301N002610012019N0040001N1+00771+00681101661ADDAY161031AY221031GA1081+001201051GF108991999999001501999999MA1999999097071MW1631REMSYN076AAXX  09154 06712 41240 83305 10077 20068 39707 40166 5//// 76362 333 88504;
0146067120999992011010916004+46333+006917FM-12+038399999V0203201N002619999999N9999999N1+00821+00651101731ADDMA1999999097151MD1110241+9999OA149900621REMSYN094AAXX  09164 06712 23/// /3205 10082 20065 39715 40173 51024 333 55300 20011 60035 91112 91207;
0146067120999992011010917004+46333+006917FM-12+038399999V0203201N002119999999N9999999N1+00771+00671101801ADDMA1999999097211MD1110241+9999OA149900621REMSYN094AAXX  09174 06712 23/// /3204 10077 20067 39721 40180 51024 333 55300 20004 60025 91112 91206;
0292067120999992011010918004+46333+006917FM-12+038399999V0203101N00101001201CN0040001N1+00741+00621101851ADDAA112007991AL19900091AY161061AY221061GA1081+001201051GF108991999999001501999999IA1119KA1120M+01101MA1999999097251MD1110181+9999MW1631OA149900931REMSYN136AAXX  09184 06712 01240 83102 10074 20062 39725 40185 51018 60082 76362 333 10110 32/// 55300 20004 60025 88504 90766 93100 91118 91212;
0146067120999992011010919004+46333+006917FM-12+038399999V0201501N001019999999N9999999N1+00661+00601101891ADDMA1999999097281MD1210131+9999OA149900411REMSYN094AAXX  09194 06712 23/// /1502 10066 20060 39728 40189 52013 333 55300 20004 60035 91108 91204;
0146067120999992011010920004+46333+006917FM-12+038399999V0201401N002119999999N9999999N1+00651+00581101921ADDMA1999999097301MD1210091+9999OA149900511REMSYN094AAXX  09204 06712 23/// /1404 10065 20058 39730 40192 52009 333 55300 20004 69985 91110 91208;
0146067120999992011010921004+46333+006917FM-12+038399999V0209999C000019999999N9999999N1+00631+00571101951ADDMA1999999097331MD1210081+9999OA149900621REMSYN094AAXX  09214 06712 23/// /0000 10063 20057 39733 40195 52008 333 55300 20004 60015 91112 91208;
0146067120999992011010922004+46333+006917FM-12+038399999V0209999C001519999999N9999999N1+00621+00561102021ADDMA1999999097391MD1210111+9999OA149900261REMSYN094AAXX  09224 06712 23/// /0003 10062 20056 39739 40202 52011 333 55300 20004 60025 91105 91204;
0146067120999992011010923004+46333+006917FM-12+038399999V0203201N001019999999N9999999N1+00611+00541102041ADDMA1999999097411MD1110111+9999OA149900361REMSYN094AAXX  09234 06712 23/// /3202 10061 20054 39741 40204 51011 333 55300 20004 69955 91107 91205;
0163067120999992011011000004+46333+006917FM-12+038399999V0203401N001019999999N9999999N1+00601+00541102051ADDAA106007991MA1999999097421MD1110091+9999OA149900881REMSYN100AAXX  10004 06712 03/// /3402 10060 20054 39742 40205 51009 60081 333 55300 20004 69965 91117 91212;
0146067120999992011011001004+46333+006917FM-12+038399999V0200201N000519999999N9999999N1+00591+00541102061ADDMA1999999097431MD1110041+9999OA149900151REMSYN094AAXX  10014 06712 23/// /0201 10059 20054 39743 40206 51004 333 55300 20004 69965 91103 91202;
0109067120999992011011002004+46333+006917FM-12+038399999V0209999C000019999999N9999999N1+00561+00531102081ADDMA1999999097441REMSYN082AAXX  10024 06712 23/// /0000 10056 20053 39744 40208 5//// 333 553// 20004 69925;
0167067120999992011011003004+46333+006917FM-12+038399999V0202601N000510021019N0070001N1+00541+00491102071ADDAY121031AY221031GA1081+002101071GF108991999999002501999999MA1999999097431MW1581REMSYN076AAXX  10034 06712 41357 82601 10054 20049 39743 40207 5//// 75822 333 88707;
0109067120999992011011004004+46333+006917FM-12+038399999V0209999C000019999999N9999999N1+00541+00511102071ADDMA1999999097431REMSYN082AAXX  10044 06712 23/// /0000 10054 20051 39743 40207 5//// 333 553// 20004 69915;
0146067120999992011011005004+46333+006917FM-12+038399999V0201101N000519999999N9999999N1+00531+00501102051ADDMA1999999097411MD1719999+9999OA149900101REMSYN094AAXX  10054 06712 23/// /1101 10053 20050 39741 40205 57/// 333 55300 20007 69925 91102 91201;
0263067120999992011011006004+46333+006917FM-12+038399999V0201101N000510102019N0100001N1+00521+00491102071ADDAA124017591AL12401791AY161061AY251061GA1081+010201071GF108991999999012501999999GJ100009IA1119IA2999+00409KA1999N+00511MA1999999097421MW1501REMSYN112AAXX  10064 06712 41660 81101 10052 20049 39742 40207 5//// 75065 333 20051 32004 55000 70174 88734 90768 93100;
0146067120999992011011007004+46333+006917FM-12+038399999V0201301N000519999999N9999999N1+00511+00471102091ADDMA1999999097441MD1310011+9999OA149900101REMSYN094AAXX  10074 06712 23/// /1301 10051 20047 39744 40209 53001 333 55300 20004 69915 91102 91201;
0087067120999992011011008004+46333+006917FM-12+038399999V0202601N000519999999N9999999N1+00491+00451102121ADDMA1999999097471REMSYN060AAXX  10084 06712 43/// /2601 10049 20045 39747 40212 5////;
0167067120999992011011009004+46333+006917FM-12+038399999V0202401N000510012019N0030001N1+00571+00501102131ADDAY161031AY251031GA1081+001201071GF108991999999001501999999MA1999999097491MW1601REMSYN076AAXX  10094 06712 41230 82401 10057 20050 39749 40213 5//// 76065 333 88704;
0140067120999992011011010004+46333+006917FM-12+038399999V0202501N000519999999N9999999N1+00601+00501102151ADDMA1999999097511MD1110071+9999OA149900151REMSYN088AAXX  10104 06712 33/// /2501 10060 20050 39751 40215 51007 333 55300 20155 91103 91203;
0140067120999992011011011004+46333+006917FM-12+038399999V0202101N001019999999N9999999N1+00661+00561102101ADDMA1999999097481MD1019999+9999OA149900151REMSYN088AAXX  10114 06712 33/// /2102 10066 20056 39748 40210 50/// 333 55300 20205 91103 91203;
0208067120999992011011012004+46333+006917FM-12+038399999V0200101N001019999999N0080001N1+00751+00591101991ADDAA106000021AY161061AY251061GA1031+005101071GF105991999999004501999999MA1999999097391MW1101REMSYN106AAXX  10124 06712 01458 50102 10075 20059 39739 40199 5//// 69911 71065 333 553// 20655 60005 83717 83360;
0087067120999992011011013004+46333+006917FM-12+038399999V0203401N002119999999N9999999N1+00711+00541101951ADDMA1999999097341REMSYN060AAXX  10134 06712 43/// /3404 10071 20054 39734 40195 5////;
0087067120999992011011014004+46333+006917FM-12+038399999V0203201N001019999999N9999999N1+00731+00491101881ADDMA1999999097281REMSYN060AAXX  10144 06712 43/// /3202 10073 20049 39728 40188 5////;
0173067120999992011011015004+46333+006917FM-12+038399999V0203301N001019999999N0080001N1+00681+00511101871ADDAY121031AY221031GA1031+005101061GF107991999999004501999999MA1999999097261MW1101REMSYN082AAXX  10154 06712 41458 73302 10068 20051 39726 40187 5//// 71022 333 83617 87656;
0087067120999992011011016004+46333+006917FM-12+038399999V0203501N001019999999N9999999N1+00651+00521101851ADDMA1999999097241REMSYN060AAXX  10164 06712 43/// /3502 10065 20052 39724 40185 5////;
0087067120999992011011017004+46333+006917FM-12+038399999V0203401N001019999999N9999999N1+00621+00541101841ADDMA1999999097221REMSYN060AAXX  10174 06712 43/// /3402 10062 20054 39722 40184 5////;
0220067120999992011011018004+46333+006917FM-12+038399999V0203301N001010180019N0060001N1+00621+00531101821ADDAL10600091AY121061AY221061GA1081+018001061GF108991999999017501999999IA1119KA1120M+00751MA1999999097201MW1101REMSYN100AAXX  10184 06712 41756 83302 10062 20053 39720 40182 5//// 71022 333 10075 32/// 88656 90766 93100;
0087067120999992011011019004+46333+006917FM-12+038399999V0203401N001019999999N9999999N1+00611+00501101841ADDMA1999999097221REMSYN060AAXX  10194 06712 43/// /3402 10061 20050 39722 40184 5////;
0087067120999992011011020004+46333+006917FM-12+038399999V0203501N002119999999N9999999N1+00621+00471101841ADDMA1999999097221REMSYN060AAXX  10204 06712 43/// /3504 10062 20047 39722 40184 5////;
0087067120999992011011021004+46333+006917FM-12+038399999V0209999C000019999999N9999999N1+00611+00461101861ADDMA1999999097241REMSYN060AAXX  10214 06712 43/// /0000 10061 20046 39724 40186 5////;
0087067120999992011011022004+46333+006917FM-12+038399999V0209999C000019999999N9999999N1+00581+00461101831ADDMA1999999097211REMSYN060AAXX  10224 06712 43/// /0000 10058 20046 39721 40183 5////;
0087067120999992011011023004+46333+006917FM-12+038399999V0203101N000519999999N9999999N1+00551+00461101811ADDMA1999999097181REMSYN060AAXX  10234 06712 43/// /3101 10055 20046 39718 40181 5////;
0087067120999992011011100004+46333+006917FM-12+038399999V0209999C000519999999N9999999N1+00471+00421101761ADDMA1999999097121REMSYN060AAXX  11004 06712 43/// /0001 10047 20042 39712 40176 5////;
0087067120999992011011101004+46333+006917FM-12+038399999V0201801N000519999999N9999999N1+00471+00421101721ADDMA1999999097081REMSYN060AAXX  11014 06712 43/// /1801 10047 20042 39708 40172 5////;
0087067120999992011011102004+46333+006917FM-12+038399999V0209999C000019999999N9999999N1+00331+00281101711ADDMA1999999097051REMSYN060AAXX  11024 06712 43/// /0000 10033 20028 39705 40171 5////;
0167067120999992011011103004+46333+006917FM-12+038399999V0209999C000012200019N0080001N1+00211+00171101691ADDAY111031AY211031GA1011+002101071GF101991999999002501999999MA1999999097011MW1101REMSYN076AAXX  11034 06712 41358 10000 10021 20017 39701 40169 5//// 71011 333 81707;
0087067120999992011011104004+46333+006917FM-12+038399999V0209999C000019999999N9999999N1+00101+00061101681ADDMA1999999096981REMSYN060AAXX  11044 06712 43/// /0000 10010 20006 39698 40168 5////;
0087067120999992011011105004+46333+006917FM-12+038399999V0201701N000519999999N9999999N1+00171+00121101631ADDMA1999999096951REMSYN060AAXX  11054 06712 43/// /1701 10017 20012 39695 40163 5////;
0181067120999992011011106004+46333+006917FM-12+038399999V0201801N002112200019N0300001N1+00141+00041101571ADDAL10600091GA1001+999999999GF100991001001999999001001GJ100309IA1119MA1999999096881REMSYN088AAXX  11064 06712 42/80 01804 10014 20004 39688 40157 5//// 333 32/// 55005 90768 93100;
0140067120999992011011107004+46333+006917FM-12+038399999V0201801N002619999999N9999999N1+00311+00021101491ADDMA1999999096841MD1719999+9999OA149900571REMSYN088AAXX  11074 06712 33/// /1805 10031 20002 39684 40149 57/// 333 55300 20004 91111 91208;
0103067120999992011011108004+46333+006917FM-12+038399999V0201701N001519999999N9999999N1+00251+00001101471ADDMA1999999096811REMSYN076AAXX  11084 06712 33/// /1703 10025 20000 39681 40147 5//// 333 553// 20043;
0139067120999992011011109004+46333+006917FM-12+038399999V0201301N005110570019N0300001N1+00511+00051101391ADDGA1051+057001001GF105991999999999999999999MA1999999096771REMSYN070AAXX  11094 06712 42980 51310 10051 20005 39677 40139 5//// 333 85069;
0140067120999992011011110004+46333+006917FM-12+038399999V0203401N002619999999N9999999N1+00501+00191101411ADDMA1999999096791MD1710051+9999OA149900881REMSYN088AAXX  11104 06712 33/// /3405 10050 20019 39679 40141 57005 333 55302 20594 91117 91210;
0140067120999992011011111004+46333+006917FM-12+038399999V0203501N002619999999N9999999N1+00531+00231101341ADDMA1999999096731MD1710081+9999OA149900671REMSYN088AAXX  11114 06712 33/// /3505 10053 20023 39673 40134 57008 333 55300 20436 91113 91209;
0135067120999992011011112004+46333+006917FM-12+038399999V0203401N001519999999N0150001N1+00511+00281101291ADDGF108991999999017501999999MA1999999096681REMSYN082AAXX  11124 06712 32765 83403 10051 20028 39668 40129 5//// 333 553// 20216 88456;
0140067120999992011011113004+46333+006917FM-12+038399999V0203501N003619999999N9999999N1+00511+00271101301ADDMA1999999096691MD1710101+9999OA149900571REMSYN088AAXX  11134 06712 33/// /3507 10051 20027 39669 40130 57010 333 55300 20162 91111 91207;
0087067120999992011011114004+46333+006917FM-12+038399999V0203101N001019999999N9999999N1+00511+00251101361ADDMA1999999096751REMSYN060AAXX  11144 06712 43/// /3102 10051 20025 39675 40136 5////;
0173067120999992011011115004+46333+006917FM-12+038399999V0202001N002619999999N0080001N1+00501+00271101431ADDAY161031AY221031GA1031+006001071GF108991999999008001999999MA1999999096811MW1611REMSYN082AAXX  11154 06712 41558 82005 10050 20027 39681 40143 5//// 76162 333 83720 88757;
0146067120999992011011116004+46333+006917FM-12+038399999V0200501N000519999999N9999999N1+00471+00341101531ADDMA1999999096901MD1310211+9999OA149900461REMSYN094AAXX  11164 06712 23/// /0501 10047 20034 39690 40153 53021 333 55300 20086 69935 91109 91206;
0140067120999992011011117004+46333+006917FM-12+038399999V0201701N002119999999N9999999N1+00451+00281101541ADDMA1999999096911MD1210141+9999OA149900411REMSYN088AAXX  11174 06712 33/// /1704 10045 20028 39691 40154 52014 333 55300 20007 91108 91206;
0292067120999992011011118004+46333+006917FM-12+038399999V0201201N00261021001CN0170001N1+00461+00231101601ADDAA112001091AL19900091AY161061AY211061GA1071+021001061GF107991999999022501999999IA1119KA1120M+00551MA1999999096971MD1210161+9999MW1021OA149900931REMSYN136AAXX  11184 06712 01867 71205 10046 20023 39697 40160 52016 60012 70261 333 10055 32/// 55300 20004 60005 87657 90766 93100 91118 91210;
0140067120999992011011119004+46333+006917FM-12+038399999V0203201N001519999999N9999999N1+00411+00261101711ADDMA1999999097061MD1210161+9999OA149900461REMSYN088AAXX  11194 06712 33/// /3203 10041 20026 39706 40171 52016 333 55300 20004 91109 91205;
0146067120999992011011120004+46333+006917FM-12+038399999V0203501N001519999999N9999999N1+00461+00341101851ADDMA1999999097201MD1310291+9999OA149900671REMSYN094AAXX  11204 06712 23/// /3503 10046 20034 39720 40185 53029 333 55300 20007 60035 91113 91209;
0146067120999992011011121004+46333+006917FM-12+038399999V0201401N001519999999N9999999N1+00431+00291101961ADDMA1999999097301MD1210331+9999OA149900671REMSYN094AAXX  11214 06712 23/// /1403 10043 20029 39730 40196 52033 333 55300 20004 69985 91113 91209;
0140067120999992011011122004+46333+006917FM-12+038399999V0201601N001519999999N9999999N1+00391+00241102051ADDMA1999999097381MD1110321+9999OA149900261REMSYN088AAXX  11224 06712 33/// /1603 10039 20024 39738 40205 51032 333 55300 20004 91105 91204;
0140067120999992011011123004+46333+006917FM-12+038399999V0202101N001019999999N9999999N1+00331+00251102101ADDMA1999999097421MD1210221+9999OA149900261REMSYN088AAXX  11234 06712 33/// /2102 10033 20025 39742 40210 52022 333 55300 20004 91105 91204;
0163067120999992011011200004+46333+006917FM-12+038399999V0201401N001519999999N9999999N1+00371+00271102111ADDAA106003091MA1999999097441MD1210141+9999OA149900671REMSYN100AAXX  12004 06712 03/// /1403 10037 20027 39744 40211 52014 60031 333 55300 20004 60005 91113 91209;
0140067120999992011011201004+46333+006917FM-12+038399999V0203201N001019999999N9999999N1+00381+00271102221ADDMA1999999097541MD1210161+9999OA149900411REMSYN088AAXX  12014 06712 33/// /3202 10038 20027 39754 40222 52016 333 55300 20004 91108 91205;
0109067120999992011011202004+46333+006917FM-12+038399999V0202701N000519999999N9999999N1+00441+00321102301ADDMA1999999097631REMSYN082AAXX  12024 06712 23/// /2701 10044 20032 39763 40230 5//// 333 553// 20004 69915;
0167067120999992011011203004+46333+006917FM-12+038399999V0201401N002110180019N0060001N1+00391+00291102381ADDAY161031AY221031GA1081+018001051GF108991999999017501999999MA1999999097701MW1101REMSYN076AAXX  12034 06712 41756 81404 10039 20029 39770 40238 5//// 71062 333 88556;
0087067120999992011011204004+46333+006917FM-12+038399999V0202001N001019999999N9999999N1+00341+00281102401ADDMA1999999097711REMSYN060AAXX  12044 06712 43/// /2002 10034 20028 39771 40240 5////;
0103067120999992011011205004+46333+006917FM-12+038399999V0203401N001019999999N9999999N1+00371+00301102451ADDMA1999999097761REMSYN076AAXX  12054 06712 33/// /3402 10037 20030 39776 40245 5//// 333 553// 20004;
0263067120999992011011206004+46333+006917FM-12+038399999V0201401N000510210019N0050001N1+00331+00261102521ADDAA124004691AL13000491AY161061AY221061GA1061+021001061GF106991999999022501999999GJ100669IA1119IA2999+00109KA1999N+00291MA1999999097821MW1101REMSYN112AAXX  12064 06712 41850 61401 10033 20026 39782 40252 5//// 71062 333 20029 32001 55011 70045 86657 90768 93100;
0140067120999992011011207004+46333+006917FM-12+038399999V0202001N001019999999N9999999N1+00261+00201102531ADDMA1999999097821MD1210111+9999OA149900261REMSYN088AAXX  12074 06712 33/// /2002 10026 20020 39782 40253 52011 333 55300 20007 91105 91203;
0087067120999992011011208004+46333+006917FM-12+038399999V0201601N001519999999N9999999N1+00321+00241102571ADDMA1999999097871REMSYN060AAXX  12084 06712 43/// /1603 10032 20024 39787 40257 5////;
0167067120999992011011209004+46333+006917FM-12+038399999V0209999C000010360019N0140001N1+00351+00281102561ADDAY121031AY221031GA1081+036001041GF108991999999999999999999MA1999999097861MW1101REMSYN076AAXX  12094 06712 41964 80000 10035 20028 39786 40256 5//// 71022 333 88462;
0140067120999992011011210004+46333+006917FM-12+038399999V0201301N001519999999N9999999N1+00521+00361102561ADDMA1999999097891MD1219999+9999OA149900261REMSYN088AAXX  12104 06712 33/// /1303 10052 20036 39789 40256 52/// 333 55300 20353 91105 91203;
0117067120999992011011211004+46333+006917FM-12+038399999V0203401N001519999999N9999999N1+00571+00441102541ADDMA1999999097881MD1010011+9999REMSYN076AAXX  12114 06712 33/// /3403 10057 20044 39788 40254 50001 333 55300 20418;
0173067120999992011011212004+46333+006917FM-12+038399999V0209999C000019999999N0140001N1+00671+00451102491ADDAY121061AY221061GA1011+006001061GF108991999999008001999999MA1999999097851MW1101REMSYN082AAXX  12124 06712 41564 80000 10067 20045 39785 40249 5//// 71022 333 81620 88459;
0087067120999992011011213004+46333+006917FM-12+038399999V0203401N002119999999N9999999N1+00671+00441102441ADDMA1999999097801REMSYN060AAXX  12134 06712 43/// /3404 10067 20044 39780 40244 5////;
0087067120999992011011214004+46333+006917FM-12+038399999V0203401N002119999999N9999999N1+00651+00411102511ADDMA1999999097871REMSYN060AAXX  12144 06712 43/// /3404 10065 20041 39787 40251 5////;
0167067120999992011011215004+46333+006917FM-12+038399999V0201401N001010102019N0180001N1+00631+00441102521ADDAY161031AY221031GA1081+010201071GF108991999999012501999999MA1999999097871MW1601REMSYN076AAXX  12154 06712 41668 81402 10063 20044 39787 40252 5//// 76062 333 88734;
0140067120999992011011216004+46333+006917FM-12+038399999V0209999C000019999999N9999999N1+00631+00431102561ADDMA1999999097911MD1210111+9999OA149900261REMSYN088AAXX  12164 06712 33/// /0000 10063 20043 39791 40256 52011 333 55300 20040 91105 91204;
0146067120999992011011217004+46333+006917FM-12+038399999V0201701N001019999999N9999999N1+00601+00451102591ADDMA1999999097931MD1210061+9999OA149900151REMSYN094AAXX  12174 06712 23/// /1702 10060 20045 39793 40259 52006 333 55300 20007 69915 91103 91203;
0292067120999992011011218004+46333+006917FM-12+038399999V0203301N00211009001CN0170001N1+00561+00471102611ADDAA112000591AL19900091AY161061AY221061GA1081+009001071GF108991999999008001999999IA1119KA1120M+00681MA1999999097951MD1210081+9999MW1601OA149900361REMSYN136AAXX  12184 06712 01567 83304 10056 20047 39795 40261 52008 69962 76062 333 10068 32/// 55300 20004 69955 88730 90766 93100 91107 91204;
0140067120999992011011219004+46333+006917FM-12+038399999V0202001N000519999999N9999999N1+00561+00451102611ADDMA1999999097951MD1210041+9999OA149900311REMSYN088AAXX  12194 06712 33/// /2001 10056 20045 39795 40261 52004 333 55300 20004 91106 91204;
0146067120999992011011220004+46333+006917FM-12+038399999V0209999C000019999999N9999999N1+00541+00461102621ADDMA1999999097951MD1210021+9999OA149900311REMSYN094AAXX  12204 06712 23/// /0000 10054 20046 39795 40262 52002 333 55300 20004 69915 91106 91204;
0140067120999992011011221004+46333+006917FM-12+038399999V0203201N000519999999N9999999N1+00571+00461102611ADDMA1999999097951MD1410001+9999OA149900311REMSYN088AAXX  12214 06712 33/// /3201 10057 20046 39795 40261 57000 333 55300 20004 91106 91204;
0146067120999992011011222004+46333+006917FM-12+038399999V0209999C000019999999N9999999N1+00601+00471102641ADDMA1999999097981MD1210031+9999OA149900261REMSYN094AAXX  12224 06712 23/// /0000 10060 20047 39798 40264 52003 333 55300 20007 69975 91105 91203;
0146067120999992011011223004+46333+006917FM-12+038399999V0201501N000519999999N9999999N1+00551+00481102641ADDMA1999999097971MD1010021+9999OA149900361REMSYN094AAXX  12234 06712 23/// /1501 10055 20048 39797 40264 50002 333 55300 20004 69935 91107 91205;
0163067120999992011011300004+46333+006917FM-12+038399999V0201701N000519999999N9999999N1+00591+00481102591ADDAA106002091MA1999999097931MD1710021+9999OA149900361REMSYN100AAXX  13004 06712 03/// /1701 10059 20048 39793 40259 57002 60021 333 55300 20004 60015 91107 91205;
0146067120999992011011301004+46333+006917FM-12+038399999V0201301N000519999999N9999999N1+00571+00491102621ADDMA1999999097961MD1510021+9999OA149900261REMSYN094AAXX  13014 06712 23/// /1301 10057 20049 39796 40262 55002 333 55300 20004 60015 91105 91203;
0146067120999992011011302004+46333+006917FM-12+038399999V0201301N001519999999N9999999N1+00571+00501102581ADDMA1999999097921MD1719999+9999OA149900261REMSYN094AAXX  13024 06712 23/// /1303 10057 20050 39792 40258 57/// 333 55300 20007 60015 91105 91204;
0167067120999992011011303004+46333+006917FM-12+038399999V0203101N000510021019N0030001N1+00531+00491102581ADDAY161031AY221031GA1081+002101071GF108991999999002501999999MA1999999097911MW1611REMSYN076AAXX  13034 06712 41330 83101 10053 20049 39791 40258 5//// 76162 333 88707;
0146067120999992011011304004+46333+006917FM-12+038399999V0209999C000019999999N9999999N1+00521+00491102571ADDMA1999999097901MD1719999+9999OA149900151REMSYN094AAXX  13044 06712 23/// /0000 10052 20049 39790 40257 57/// 333 55300 20004 69955 91103 91201;
0109067120999992011011305004+46333+006917FM-12+038399999V0203501N000519999999N9999999N1+00561+00491102561ADDMA1999999097901REMSYN082AAXX  13054 06712 23/// /3501 10056 20049 39790 40256 5//// 333 553// 20004 69915;
0334067120999992011011306004+46333+006917FM-12+038399999V0201801N00101002101CN0080001N1+00541+00471102561ADDAA112006191AL11200691AL29900091AY161061AY221061GA1081+002101071GF108991999999002501999999GJ100009IA1119IA2999+00409KA1999N+00511MA1999999097901MD1510011+9999MW1211OA149900361REMSYN148AAXX  13064 06712 01358 81802 10054 20047 39790 40256 55001 60062 72162 333 20051 32004 55000 55300 20004 69915 70062 88707 90768 93100 91107 91205;
0087067120999992011011307004+46333+006917FM-12+038399999V0209999C000019999999N9999999N1+00521+00451102571ADDMA1999999097901REMSYN060AAXX  13074 06712 43/// /0000 10052 20045 39790 40257 5////;
0087067120999992011011308004+46333+006917FM-12+038399999V0201601N001519999999N9999999N1+00511+00441102651ADDMA1999999097981REMSYN060AAXX  13084 06712 43/// /1603 10051 20044 39798 40265 5////;
0145067120999992011011309004+46333+006917FM-12+038399999V0209999C000019999999N0160001N1+00581+00491102581ADDGA1031+002101071GF106991999999002501999999MA1999999097921REMSYN076AAXX  13094 06712 42366 60000 10058 20049 39792 40258 5//// 333 83707 86659;
0087067120999992011011310004+46333+006917FM-12+038399999V0201501N002619999999N9999999N1+00751+00591102561ADDMA1999999097931REMSYN060AAXX  13104 06712 43/// /1505 10075 20059 39793 40256 5////;
0087067120999992011011311004+46333+006917FM-12+038399999V0203301N002119999999N9999999N1+00831+00641102541ADDMA1999999097921REMSYN060AAXX  13114 06712 43/// /3304 10083 20064 39792 40254 5////;
0145067120999992011011312004+46333+006917FM-12+038399999V0203501N002119999999N0180001N1+00901+00681102471ADDGA1021+042001031GF106991999999999999999999MA1999999097871REMSYN076AAXX  13124 06712 42968 63504 10090 20068 39787 40247 5//// 333 82364 86079;
0087067120999992011011313004+46333+006917FM-12+038399999V0201801N001519999999N9999999N1+00981+00651102361ADDMA1999999097781REMSYN060AAXX  13134 06712 43/// /1803 10098 20065 39778 40236 5////;
0087067120999992011011314004+46333+006917FM-12+038399999V0203501N001519999999N9999999N1+01021+00791102351ADDMA1999999097771REMSYN060AAXX  13144 06712 43/// /3503 10102 20079 39777 40235 5////;
0145067120999992011011315004+46333+006917FM-12+038399999V0203401N001010420019N0250001N1+00951+00711102361ADDGA1061+042001031GF107991999999999999999999MA1999999097771REMSYN076AAXX  13154 06712 42975 73402 10095 20071 39777 40236 5//// 333 86364 87379;
0087067120999992011011316004+46333+006917FM-12+038399999V0201501N001019999999N9999999N1+00891+00711102401ADDMA1999999097801REMSYN060AAXX  13164 06712 43/// /1502 10089 20071 39780 40240 5////;
0140067120999992011011317004+46333+006917FM-12+038399999V0201901N001019999999N9999999N1+00701+00621102431ADDMA1999999097801MD1210031+9999OA149900511REMSYN088AAXX  13174 06712 33/// /1902 10070 20062 39780 40243 52003 333 55300 20011 91110 91206;
0269067120999992011011318004+46333+006917FM-12+038399999V0209999C00001018001CN0180001N1+00641+00591102431ADDAL19900091AY161061AY221061GA1081+018001061GF108991999999017501999999IA1119KA1120M+01021MA1999999097791MD1010011+9999MW1021OA149900511REMSYN124AAXX  13184 06712 31768 80000 10064 20059 39779 40243 50001 70262 333 10102 32/// 55300 20004 88656 90766 93100 91110 91206;
0140067120999992011011319004+46333+006917FM-12+038399999V0201501N001019999999N9999999N1+00731+00641102401ADDMA1999999097771MD1710031+9999OA149900211REMSYN088AAXX  13194 06712 33/// /1502 10073 20064 39777 40240 57003 333 55300 20004 91104 91203;
0140067120999992011011320004+46333+006917FM-12+038399999V0209999C000019999999N9999999N1+00671+00601102381ADDMA1999999097751MD1710051+9999OA149900151REMSYN088AAXX  13204 06712 33/// /0000 10067 20060 39775 40238 57005 333 55300 20007 91103 91203;
0140067120999992011011321004+46333+006917FM-12+038399999V0201401N000519999999N9999999N1+00481+00441102461ADDMA1999999097791MD1510001+9999OA149900511REMSYN088AAXX  13214 06712 33/// /1401 10048 20044 39779 40246 55000 333 55300 20007 91110 91206;
0140067120999992011011322004+46333+006917FM-12+038399999V0201401N001019999999N9999999N1+00431+00381102441ADDMA1999999097761MD1710011+9999OA149900211REMSYN088AAXX  13224 06712 33/// /1402 10043 20038 39776 40244 57001 333 55300 20004 91104 91203;
0140067120999992011011323004+46333+006917FM-12+038399999V0201901N001519999999N9999999N1+00501+00431102401ADDMA1999999097741MD1810011+9999OA149900261REMSYN088AAXX  13234 06712 33/// /1903 10050 20043 39774 40240 58001 333 55300 20004 91105 91205;
0140067120999992011011400004+46333+006917FM-12+038399999V0201801N002119999999N9999999N1+00681+00531102391ADDMA1999999097761MD1710031+9999OA149900511REMSYN088AAXX  14004 06712 33/// /1804 10068 20053 39776 40239 57003 333 55300 20004 91110 91206;
0140067120999992011011401004+46333+006917FM-12+038399999V0201701N002619999999N9999999N1+00761+00541102371ADDMA1999999097751MD1510011+9999OA149900511REMSYN088AAXX  14014 06712 33/// /1705 10076 20054 39775 40237 55001 333 55300 20004 91110 91207;
0103067120999992011011402004+46333+006917FM-12+038399999V0201501N003619999999N9999999N1+00821+00541102391ADDMA1999999097781REMSYN076AAXX  14024 06712 33/// /1507 10082 20054 39778 40239 5//// 333 553// 20004;
0140067120999992011011403004+46333+006917FM-12+038399999V0201501N004119999999N9999999N1+00841+00531102391ADDMA1999999097781MD1210021+9999OA149900511REMSYN088AAXX  14034 06712 33/// /1508 10084 20053 39778 40239 52002 333 55300 20004 91110 91208;
0140067120999992011011404004+46333+006917FM-12+038399999V0201601N003619999999N9999999N1+00841+00521102341ADDMA1999999097741MD1810011+9999OA149900621REMSYN088AAXX  14044 06712 33/// /1607 10084 20052 39774 40234 58001 333 55300 20004 91112 91208;
0140067120999992011011405004+46333+006917FM-12+038399999V0201501N004619999999N9999999N1+00781+00481102361ADDMA1999999097741MD1710041+9999OA149900721REMSYN088AAXX  14054 06712 33/// /1509 10078 20048 39774 40236 57004 333 55300 20004 91114 91209;
0207067120999992011011406004+46333+006917FM-12+038399999V0201601N002619999999N9999999N1+00711+00441102401ADDAL19900091GJ100669IA2999+00209KA1999N+00371MA1999999097771MD1510011+9999OA149900721REMSYN112AAXX  14064 06712 33/// /1605 10071 20044 39777 40240 55001 333 20037 3/002 55011 55300 20004 70000 91114 91209;
0140067120999992011011407004+46333+006917FM-12+038399999V0201901N003119999999N9999999N1+00571+00361102421ADDMA1999999097771MD1210031+9999OA149900621REMSYN088AAXX  14074 06712 33/// /1906 10057 20036 39777 40242 52003 333 55300 20007 91112 91209;
0087067120999992011011408004+46333+006917FM-12+038399999V0201801N002119999999N9999999N1+00621+00341102421ADDMA1999999097781REMSYN060AAXX  14084 06712 43/// /1804 10062 20034 39778 40242 5////;
0139067120999992011011409004+46333+006917FM-12+038399999V0201801N002112200019N0300001N1+00801+00421102341ADDGA1031+087001001GF103991999999999999999999MA1999999097731REMSYN070AAXX  14094 06712 42980 31804 10080 20042 39773 40234 5//// 333 83079;
0087067120999992011011410004+46333+006917FM-12+038399999V0201201N005119999999N9999999N1+00941+00411102261ADDMA1999999097681REMSYN060AAXX  14104 06712 43/// /1210 10094 20041 39768 40226 5////;
0140067120999992011011411004+46333+006917FM-12+038399999V0201201N003119999999N9999999N1+01081+00441102181ADDMA1999999097621MD1810161+9999OA149900881REMSYN088AAXX  14114 06712 33/// /1206 10108 20044 39762 40218 58016 333 553// 2//// 91117 91211;
0188067120999992011011412004+46333+006917FM-12+038399999V0203301N003112200019N0200001N1+01081+00531102171ADDGA1031+087001001GF103991999999999999999999MA1999999097611MD1610121+9999OA149900881REMSYN094AAXX  14124 06712 32970 33306 10108 20053 39761 40217 56012 333 553// 2//// 83079 91117 91211;
0140067120999992011011413004+46333+006917FM-12+038399999V0203301N002619999999N9999999N1+01101+00621102131ADDMA1999999097581MD1610101+9999OA149900821REMSYN088AAXX  14134 06712 33/// /3305 10110 20062 39758 40213 56010 333 553// 2//// 91116 91207;
0103067120999992011011414004+46333+006917FM-12+038399999V0203401N002119999999N9999999N1+01071+00641102111ADDMA1999999097551REMSYN076AAXX  14144 06712 33/// /3404 10107 20064 39755 40211 5//// 333 553// 20889;
0188067120999992011011415004+46333+006917FM-12+038399999V0203001N00051075001CN0180001N1+00891+00681102171ADDGA1071+075001001GF107991999999999999999999MA1999999097581MD1510031+9999OA149900881REMSYN094AAXX  14154 06712 32968 73001 10089 20068 39758 40217 55003 333 55300 20389 87075 91117 91211;
0140067120999992011011416004+46333+006917FM-12+038399999V0201301N001519999999N9999999N1+00761+00571102151ADDMA1999999097541MD1810041+9999OA149900361REMSYN088AAXX  14164 06712 33/// /1303 10076 20057 39754 40215 58004 333 55300 20133 91107 91205;
0159067120999992011011417004+46333+006917FM-12+038399999V0201801N000519999999N9999999N1+00691+00541102171ADDMA1999999097551MD1710061+9999OA149900211REMSYN088AAXX  14174 06712 33/// /1801 10069 20054 39755 40217 57000 333 55300 20011 91104 91203;EQDQ01+000002APC3  
0159067120999992011011418004+46333+006917FM-12+038399999V0209999C000019999999N9999999N1+00491+00411102191ADDKA1120M+01161MA1999999097531MD1710051+9999OA149900881REMSYN094AAXX  14184 06712 33/// /0000 10049 20041 39753 40219 57005 333 10116 55300 20004 91117 91211;
0140067120999992011011419004+46333+006917FM-12+038399999V0201701N000519999999N9999999N1+00391+00321102231ADDMA1999999097561MD1210021+9999OA149900211REMSYN088AAXX  14194 06712 33/// /1701 10039 20032 39756 40223 52002 333 55300 20007 91104 91202;
0140067120999992011011420004+46333+006917FM-12+038399999V0201401N001019999999N9999999N1+00381+00321102301ADDMA1999999097621MD1210071+9999OA149900211REMSYN088AAXX  14204 06712 33/// /1402 10038 20032 39762 40230 52007 333 55300 20007 91104 91203;
0140067120999992011011421004+46333+006917FM-12+038399999V0201301N001519999999N9999999N1+00211+00131102431ADDMA1999999097721MD1210191+9999OA149900261REMSYN088AAXX  14214 06712 33/// /1303 10021 20013 39772 40243 52019 333 55300 20004 91105 91203;
0140067120999992011011422004+46333+006917FM-12+038399999V0203501N002619999999N9999999N1+00431+00271102461ADDMA1999999097781MD1210221+9999OA149900411REMSYN088AAXX  14224 06712 33/// /3505 10043 20027 39778 40246 52022 333 55300 20004 91108 91206;
0140067120999992011011423004+46333+006917FM-12+038399999V0201901N002119999999N9999999N1+00511+00321102561ADDMA1999999097891MD1210271+9999OA149900511REMSYN088AAXX  14234 06712 33/// /1904 10051 20032 39789 40256 52027 333 55300 20004 91110 91206;
0140067120999992011011500004+46333+006917FM-12+038399999V0202501N001019999999N9999999N1+00421+00241102631ADDMA1999999097941MD1210221+9999OA149900511REMSYN088AAXX  15004 06712 33/// /2502 10042 20024 39794 40263 52022 333 55300 20004 91110 91206;
0140067120999992011011501004+46333+006917FM-12+038399999V0201601N001019999999N9999999N1+00431+00281102651ADDMA1999999097961MD1210181+9999OA149900511REMSYN088AAXX  15014 06712 33/// /1602 10043 20028 39796 40265 52018 333 55300 20007 91110 91206;
0140067120999992011011502004+46333+006917FM-12+038399999V0201701N001019999999N9999999N1+00351+00231102671ADDMA1999999097971MD1219999+9999OA149900511REMSYN088AAXX  15024 06712 33/// /1702 10035 20023 39797 40267 52/// 333 55300 20004 91110 91205;
0135067120999992011011503004+46333+006917FM-12+038399999V0202901N003112200019N0160001N1+00761+00451102701ADDGF104991999999017501999999MA1999999098071REMSYN082AAXX  15034 06712 32766 42906 10076 20045 39807 40270 5//// 333 553// 20004 84656;
0140067120999992011011504004+46333+006917FM-12+038399999V0200901N002119999999N9999999N1+00591+00371102841ADDMA1999999098171MD1210211+9999OA149900721REMSYN088AAXX  15044 06712 33/// /0904 10059 20037 39817 40284 52021 333 55300 20007 91114 91208;
0140067120999992011011505004+46333+006917FM-12+038399999V0201201N001019999999N9999999N1+00561+00451102891ADDMA1999999098211MD1110241+9999OA149900721REMSYN088AAXX  15054 06712 33/// /1202 10056 20045 39821 40289 51024 333 55300 20004 91114 91208;
0301067120999992011011506004+46333+006917FM-12+038399999V0201901N001512200019N0200001N1+00321+00291102961ADDAL19900091AY161061AY211061GA1041+036001031GF104991999999999999999999GJ103549IA1119IA2999+00009KA1999N+00211MA1999999098241MD1210171+9999MW1011OA149900721REMSYN136AAXX  15064 06712 31970 41903 10032 20029 39824 40296 52017 70161 333 20021 32100 55059 55300 20007 70000 84362 90768 93100 91114 91208;
0140067120999992011011507004+46333+006917FM-12+038399999V0201601N001519999999N9999999N1+00251+00201103001ADDMA1999999098271MD1210101+9999OA149900261REMSYN088AAXX  15074 06712 33/// /1603 10025 20020 39827 40300 52010 333 55300 20007 91105 91204;
0140067120999992011011508004+46333+006917FM-12+038399999V0201801N002119999999N9999999N1+00281+00231102961ADDMA1999999098231MD1019999+9999OA149900311REMSYN088AAXX  15084 06712 33/// /1804 10028 20023 39823 40296 50/// 333 55300 20032 91106 91205;
0188067120999992011011509004+46333+006917FM-12+038399999V0209999C001512200019N0300001N1+00641+00461102921ADDGA1021+087001001GF102991999999999999999999MA1999999098261MD1310021+9999OA149900721REMSYN094AAXX  15094 06712 32980 20003 10064 20046 39826 40292 53002 333 553// 20454 82079 91114 91208;
0140067120999992011011510004+46333+006917FM-12+038399999V0202601N000519999999N9999999N1+00861+00451102951ADDMA1999999098321MD1310051+9999OA149900411REMSYN088AAXX  15104 06712 33/// /2601 10086 20045 39832 40295 53005 333 553// 20896 91108 91205;
0140067120999992011011511004+46333+006917FM-12+038399999V0201001N000519999999N9999999N1+00991+00501102841ADDMA1999999098241MD1010011+9999OA149900411REMSYN088AAXX  15114 06712 33/// /1001 10099 20050 39824 40284 50001 333 553// 2//// 91108 91205;
0188067120999992011011512004+46333+006917FM-12+038399999V0209999C000012200019N0400001N1+01091+00631102781ADDGA1021+087001001GF102991999999999999999999MA1999999098201MD1810061+9999OA149900721REMSYN094AAXX  15124 06712 32982 20000 10109 20063 39820 40278 58006 333 553// 2//// 82079 91114 91208;
0103067120999992011011513004+46333+006917FM-12+038399999V0201901N001019999999N9999999N1+01091+00591102741ADDMA1999999098161REMSYN076AAXX  15134 06712 33/// /1902 10109 20059 39816 40274 5//// 333 553// 2////;
0087067120999992011011514004+46333+006917FM-12+038399999V0202301N001019999999N9999999N1+01131+00531102701ADDMA1999999098131REMSYN060AAXX  15144 06712 43/// /2302 10113 20053 39813 40270 5////;
0139067120999992011011515004+46333+006917FM-12+038399999V0203301N002112200019N0300001N1+00951+00491102791ADDGA1021+087001001GF102991999999999999999999MA1999999098181REMSYN070AAXX  15154 06712 42980 23304 10095 20049 39818 40279 5//// 333 82079;
0087067120999992011011516004+46333+006917FM-12+038399999V0203401N000519999999N9999999N1+00791+00451102921ADDMA1999999098281REMSYN060AAXX  15164 06712 43/// /3401 10079 20045 39828 40292 5////;
0103067120999992011011517004+46333+006917FM-12+038399999V0202101N000519999999N9999999N1+00521+00401102981ADDMA1999999098291REMSYN076AAXX  15174 06712 33/// /2101 10052 20040 39829 40298 5//// 333 553// 20014;
0186067120999992011011518004+46333+006917FM-12+038399999V0201701N002612200019N0250001N1+00411+00281103021ADDAL10600091GA1001+999999999GF100991001001999999001001IA1099KA1120M+01171MA1999999098311REMSYN088AAXX  15184 06712 42/75 01705 10041 20028 39831 40302 5//// 333 10117 31/// 90766 93100;
0087067120999992011011519004+46333+006917FM-12+038399999V0201801N001519999999N9999999N1+00491+00251103001ADDMA1999999098311REMSYN060AAXX  15194 06712 43/// /1803 10049 20025 39831 40300 5////;
0087067120999992011011520004+46333+006917FM-12+038399999V0201801N001519999999N9999999N1+00611+00191103001ADDMA1999999098331REMSYN060AAXX  15204 06712 43/// /1803 10061 20019 39833 40300 5////;
0140067120999992011011521004+46333+006917FM-12+038399999V0201701N002619999999N9999999N1+00481+00161103031ADDMA1999999098331MD1210021+9999OA149900771REMSYN088AAXX  15214 06712 33/// /1705 10048 20016 39833 40303 52002 333 55300 20007 91115 91208;
0140067120999992011011522004+46333+006917FM-12+038399999V0201501N004119999999N9999999N1+00651+00141102971ADDMA1999999098311MD1010001+9999OA149900771REMSYN088AAXX  15224 06712 33/// /1508 10065 20014 39831 40297 50000 333 55300 20007 91115 91208;
0140067120999992011011523004+46333+006917FM-12+038399999V0201601N004119999999N9999999N1+00671+00101102921ADDMA1999999098261MD1710071+9999OA149900771REMSYN088AAXX  15234 06712 33/// /1608 10067 20010 39826 40292 57007 333 55300 20004 91115 91208;
0140067120999992011011600004+46333+006917FM-12+038399999V0201401N006719999999N9999999N1+00761+00011102861ADDMA1999999098221MD1810111+9999OA149900931REMSYN088AAXX  16004 06712 33/// /1413 10076 20001 39822 40286 58011 333 55300 20004 91118 91213;
0140067120999992011011601004+46333+006917FM-12+038399999V0201201N002619999999N9999999N1+00761-00091102841ADDMA1999999098201MD1610111+9999OA149901181REMSYN088AAXX  16014 06712 33/// /1205 10076 21009 39820 40284 56011 333 55300 20004 91123 91213;
0140067120999992011011602004+46333+006917FM-12+038399999V0201501N003119999999N9999999N1+00591-00051102881ADDMA1999999098211MD1519999+9999OA149901181REMSYN088AAXX  16024 06712 33/// /1506 10059 21005 39821 40288 55/// 333 55300 20004 91123 91213;
0129067120999992011011603004+46333+006917FM-12+038399999V0201401N002112200019N0200001N1+00621-00101102881ADDGA1001+999999999GF100991001001999999001001MA1999999098211REMSYN060AAXX  16034 06712 42/70 01404 10062 21010 39821 40288 5////;
0140067120999992011011604004+46333+006917FM-12+038399999V0203501N002619999999N9999999N1+00491+00321102931ADDMA1999999098241MD1310041+9999OA149900571REMSYN088AAXX  16044 06712 33/// /3505 10049 20032 39824 40293 53004 333 55300 20007 91111 91207;
0140067120999992011011605004+46333+006917FM-12+038399999V0203401N003119999999N9999999N1+00421+00311102991ADDMA1999999098291MD1210081+9999OA149900571REMSYN088AAXX  16054 06712 33/// /3406 10042 20031 39829 40299 52008 333 55300 20004 91111 91207;
0207067120999992011011606004+46333+006917FM-12+038399999V0201101N000519999999N9999999N1+00361+00261103071ADDAL19900091GJ103909IA2999+00109KA1999N+00331MA1999999098351MD1310141+9999OA149901181REMSYN112AAXX  16064 06712 33/// /1101 10036 20026 39835 40307 53014 333 20033 3/001 55065 55300 20007 70000 91123 91213;
0140067120999992011011607004+46333+006917FM-12+038399999V0201401N002619999999N9999999N1+00161+00041103101ADDMA1999999098351MD1210111+9999OA149900461REMSYN088AAXX  16074 06712 33/// /1405 10016 20004 39835 40310 52011 333 55300 20007 91109 91205;
0140067120999992011011608004+46333+006917FM-12+038399999V0201901N001019999999N9999999N1+00071-00011103101ADDMA1999999098331MD1019999+9999OA149900311REMSYN088AAXX  16084 06712 33/// /1902 10007 21001 39833 40310 50/// 333 55300 20029 91106 91205;
0182067120999992011011609004+46333+006917FM-12+038399999V0203401N002112200019N0600001N1+00361+00171103051ADDGA1001+999999999GF100991001001999999001001MA1999999098331MD1710021+9999OA149900571REMSYN088AAXX  16094 06712 32/86 03404 10036 20017 39833 40305 57002 333 553// 20468 91111 91207;
0140067120999992011011610004+46333+006917FM-12+038399999V0201801N001019999999N9999999N1+00621+00341103021ADDMA1999999098351MD1510001+9999OA149900311REMSYN088AAXX  16104 06712 33/// /1802 10062 20034 39835 40302 55000 333 553// 20918 91106 91204;
0140067120999992011011611004+46333+006917FM-12+038399999V0203501N001519999999N9999999N1+00711+00251102971ADDMA1999999098321MD1810011+9999OA149900311REMSYN088AAXX  16114 06712 33/// /3503 10071 20025 39832 40297 58001 333 553// 2//// 91106 91203;
0182067120999992011011612004+46333+006917FM-12+038399999V0203301N001512200019N0600001N1+00751+00361102921ADDGA1001+999999999GF100991001001999999001001MA1999999098271MD1710061+9999OA149901181REMSYN088AAXX  16124 06712 32/86 03303 10075 20036 39827 40292 57006 333 553// 2//// 91123 91213;
0140067120999992011011613004+46333+006917FM-12+038399999V0203401N002619999999N9999999N1+00791+00461102851ADDMA1999999098211MD1810141+9999OA149900361REMSYN088AAXX  16134 06712 33/// /3405 10079 20046 39821 40285 58014 333 553// 2//// 91107 91205;
0140067120999992011011614004+46333+006917FM-12+038399999V0203201N001519999999N9999999N1+00751+00381102831ADDMA1999999098191MD1619999+9999OA149900461REMSYN088AAXX  16144 06712 33/// /3203 10075 20038 39819 40283 56/// 333 553// 2//// 91109 91205;
0140067120999992011011615004+46333+006917FM-12+038399999V0203201N001519999999N9999999N1+00651+00311102851ADDMA1999999098191MD1710081+9999OA149900461REMSYN088AAXX  16154 06712 33/// /3203 10065 20031 39819 40285 57008 333 55306 20479 91109 91205;
0140067120999992011011616004+46333+006917FM-12+038399999V0201701N001519999999N9999999N1+00511+00301102861ADDMA1999999098181MD1710031+9999OA149900361REMSYN088AAXX  16164 06712 33/// /1703 10051 20030 39818 40286 57003 333 55300 20050 91107 91203;
0140067120999992011011617004+46333+006917FM-12+038399999V0203401N000519999999N9999999N1+00381+00221102911ADDMA1999999098201MD1210011+9999OA149900361REMSYN088AAXX  16174 06712 33/// /3401 10038 20022 39820 40291 52001 333 55300 20011 91107 91203;
0235067120999992011011618004+46333+006917FM-12+038399999V0201901N001012200019N0250001N1+00221+00141102961ADDAL19900091GA1001+999999999GF100991001001999999001001IA1099KA1120M+00811MA1999999098221MD1310031+9999OA149900461REMSYN112AAXX  16184 06712 32/75 01902 10022 20014 39822 40296 53003 333 10081 31/// 55300 20007 90766 93100 91109 91205;
0140067120999992011011619004+46333+006917FM-12+038399999V0202301N000519999999N9999999N1+00191+00091103001ADDMA1999999098261MD1210081+9999OA149900151REMSYN088AAXX  16194 06712 33/// /2301 10019 20009 39826 40300 52008 333 55300 20007 91103 91202;
0140067120999992011011620004+46333+006917FM-12+038399999V0202301N000519999999N9999999N1+00121+00031103041ADDMA1999999098281MD1210081+9999OA149900151REMSYN088AAXX  16204 06712 33/// /2301 10012 20003 39828 40304 52008 333 55300 20007 91103 91202;
0140067120999992011011621004+46333+006917FM-12+038399999V0202201N000519999999N9999999N1+00091+00021103041ADDMA1999999098281MD1210061+9999OA149900361REMSYN088AAXX  16214 06712 33/// /2201 10009 20002 39828 40304 52006 333 55300 20004 91107 91203;
0140067120999992011011622004+46333+006917FM-12+038399999V0202001N002119999999N9999999N1+00081-00041103011ADDMA1999999098251MD1810011+9999OA149900361REMSYN088AAXX  16224 06712 33/// /2004 10008 21004 39825 40301 58001 333 55300 20004 91107 91206;
0140067120999992011011623004+46333+006917FM-12+038399999V0202701N000519999999N9999999N1-00031-00101103021ADDMA1999999098241MD1810041+9999OA149900361REMSYN088AAXX  16234 06712 33/// /2701 11003 21010 39824 40302 58004 333 55300 20004 91107 91206;
0140067120999992011011700004+46333+006917FM-12+038399999V0203101N000519999999N9999999N1-00051-00121103061ADDMA1999999098271MD1510011+9999OA149900461REMSYN088AAXX  17004 06712 33/// /3101 11005 21012 39827 40306 55001 333 55300 20004 91109 91206;
0140067120999992011011701004+46333+006917FM-12+038399999V0201201N000519999999N9999999N1+00021-00031103021ADDMA1999999098251MD1010001+9999OA149900211REMSYN088AAXX  17014 06712 33/// /1201 10002 21003 39825 40302 50000 333 55300 20004 91104 91203;
0140067120999992011011702004+46333+006917FM-12+038399999V0209999C000019999999N9999999N1-00071-00171103061ADDMA1999999098271MD1219999+9999OA149900211REMSYN088AAXX  17024 06712 33/// /0000 11007 21017 39827 40306 52/// 333 55300 20004 91104 91203;
0163067120999992011011703004+46333+006917FM-12+038399999V0201401N001012200019N0120001N1-00111-00161103051ADDAY101031AY201031GF101991999999002501999999MA1999999098251MW1101REMSYN088AAXX  17034 06712 31362 11402 11011 21016 39825 40305 5//// 71000 333 553// 20004 81707;
0140067120999992011011704004+46333+006917FM-12+038399999V0203201N000519999999N9999999N1-00111-00171103041ADDMA1999999098241MD1810011+9999OA149900211REMSYN088AAXX  17044 06712 33/// /3201 11011 21017 39824 40304 58001 333 55300 20004 91104 91203;
0140067120999992011011705004+46333+006917FM-12+038399999V0201601N001019999999N9999999N1-00051-00141103041ADDMA1999999098251MD1510021+9999OA149900211REMSYN088AAXX  17054 06712 33/// /1602 11005 21014 39825 40304 55002 333 55300 20004 91104 91202;
0301067120999992011011706004+46333+006917FM-12+038399999V0202701N00051001201CN0030001N1+00061-00041103001ADDAL19900091AY111061AY211061GA1081+001201071GF108991999999001501999999GJ103909IA1149IA2999-00409KA1999N-00131MA1999999098231MD1710021+9999MW1101OA149900361REMSYN136AAXX  17064 06712 31230 82701 10006 21004 39823 40300 57002 71011 333 21013 34104 55065 55300 20004 70000 88704 90768 93100 91107 91206;
0140067120999992011011707004+46333+006917FM-12+038399999V0201401N000519999999N9999999N1+00041+00041103011ADDMA1999999098241MD1510001+9999OA149900211REMSYN088AAXX  17074 06712 33/// /1401 10004 20004 39824 40301 55000 333 55300 20004 91104 91203;
0087067120999992011011708004+46333+006917FM-12+038399999V0201701N001519999999N9999999N1+00151+00131102991ADDMA1999999098241REMSYN060AAXX  17084 06712 43/// /1703 10015 20013 39824 40299 5////;
0157067120999992011011709004+46333+006917FM-12+038399999V0201801N001010001519N0000001N1+00171+00141103011ADDAY141031AY221031GA1091+999999999GF109991091999999999999999MA1999999098261MW1451REMSYN066AAXX  17094 06712 41/00 91802 10017 20014 39826 40301 5//// 74542;
0140067120999992011011710004+46333+006917FM-12+038399999V0201501N002119999999N9999999N1+00241+00181103031ADDMA1999999098291MD1210051+9999OA149900261REMSYN088AAXX  17104 06712 33/// /1504 10024 20018 39829 40303 52005 333 55300 20281 91105 91204;
0140067120999992011011711004+46333+006917FM-12+038399999V0201901N000519999999N9999999N1+00191+00141103011ADDMA1999999098271MD1010031+9999OA149900261REMSYN088AAXX  17114 06712 33/// /1901 10019 20014 39827 40301 50003 333 55300 20630 91105 91204;
0245067120999992011011712004+46333+006917FM-12+038399999V0200201N001010001519N0001001N1+00271+00231102991ADDAY141061AY241061GA1091+999999999GF109991091999999999999999MA1999999098261MD1710021+9999MW1451OA149900311REMSYN094AAXX  17124 06712 31/01 90202 10027 20023 39826 40299 58000 74544 333 55300 20641 91106 91204;EQDQ01+000082APCTENQ02+000002APC3  
0140067120999992011011713004+46333+006917FM-12+038399999V0203501N001019999999N9999999N1+00281+00261102941ADDMA1999999098211MD1710081+9999OA149900311REMSYN088AAXX  17134 06712 33/// /3502 10028 20026 39821 40294 57008 333 55300 20518 91106 91204;
0087067120999992011011714004+46333+006917FM-12+038399999V0202101N000519999999N9999999N1+00311+00251102911ADDMA1999999098191REMSYN060AAXX  17144 06712 43/// /2101 10031 20025 39819 40291 5////;
0157067120999992011011715004+46333+006917FM-12+038399999V0202601N001010001519N0001001N1+00231+00211102941ADDAY141031AY241031GA1091+999999999GF109991091999999999999999MA1999999098211MW1451REMSYN066AAXX  17154 06712 41/01 92602 10023 20021 39821 40294 5//// 74544;
0140067120999992011011716004+46333+006917FM-12+038399999V0201301N000519999999N9999999N1+00201+00151102961ADDMA1999999098221MD1510011+9999OA149900261REMSYN088AAXX  17164 06712 33/// /1301 10020 20015 39822 40296 55001 333 55300 20104 91105 91202;
0140067120999992011011717004+46333+006917FM-12+038399999V0201501N001019999999N9999999N1+00171+00091102991ADDMA1999999098241MD1210051+9999OA149900211REMSYN088AAXX  17174 06712 33/// /1502 10017 20009 39824 40299 52005 333 55300 20022 91104 91202;
0269067120999992011011718004+46333+006917FM-12+038399999V0201801N002612200019N0150001N1+00221+00121102971ADDAL19900091AY141061AY211061GA1031+087001001GF103991999999999999999999IA1019KA1120M+00361MA1999999098231MD1010021+9999MW1011OA149900311REMSYN124AAXX  17184 06712 31965 31805 10022 20012 39823 40297 50002 70141 333 10036 30/// 55300 20007 83079 90766 93100 91106 91205;
0140067120999992011011719004+46333+006917FM-12+038399999V0209999C001519999999N9999999N1+00161+00091103031ADDMA1999999098281MD1210061+9999OA149900311REMSYN088AAXX  17194 06712 33/// /0003 10016 20009 39828 40303 52006 333 55300 20004 91106 91205;
0140067120999992011011720004+46333+006917FM-12+038399999V0201601N002119999999N9999999N1+00101-00011103051ADDMA1999999098291MD1310051+9999OA149900311REMSYN088AAXX  17204 06712 33/// /1604 10010 21001 39829 40305 53005 333 55300 20007 91106 91205;
0140067120999992011011721004+46333+006917FM-12+038399999V0201801N002119999999N9999999N1+00181+00011103011ADDMA1999999098261MD1010031+9999OA149900511REMSYN088AAXX  17214 06712 33/// /1804 10018 20001 39826 40301 50003 333 55300 20004 91110 91207;
