0149067170999992011010100004+45867+007167FM-12+247999999V0202901N003119999999N9999999N1-00511-02041999999ADDMA1999999075061MD1810051+9999ME1430339OA149900461REMSYN088AAXX  01004 06717 33/// /2906 11051 21204 37506 47033 58005 333 55300 20000 91109 91208;
0149067170999992011010101004+45867+007167FM-12+247999999V0202901N002619999999N9999999N1-00401-02361999999ADDMA1999999075041MD1810061+9999ME1430339OA149900361REMSYN088AAXX  01014 06717 33/// /2905 11040 21236 37504 47033 58006 333 55300 20000 91107 91206;
0149067170999992011010102004+45867+007167FM-12+247999999V0201001N001519999999N9999999N1-00361-02891999999ADDMA1999999075041MD1710051+9999ME1430349OA149900361REMSYN088AAXX  01024 06717 33/// /1003 11036 21289 37504 47034 57005 333 55300 20000 91107 91205;
0149067170999992011010103004+45867+007167FM-12+247999999V0200901N002119999999N9999999N1-00421-02831999999ADDMA1999999075011MD1710051+9999ME1430309OA149900411REMSYN088AAXX  01034 06717 33/// /0904 11042 21283 37501 47030 57005 333 55300 20000 91108 91206;
0149067170999992011010104004+45867+007167FM-12+247999999V0200901N002619999999N9999999N1-00501-02381999999ADDMA1999999074991MD1710051+9999ME1430269OA149900411REMSYN088AAXX  01044 06717 33/// /0905 11050 21238 37499 47026 57005 333 55300 20000 91108 91205;
0149067170999992011010105004+45867+007167FM-12+247999999V0200901N002619999999N9999999N1-00521-02781999999ADDMA1999999074961MD1810081+9999ME1430229OA149900361REMSYN088AAXX  01054 06717 33/// /0905 11052 21278 37496 47022 58008 333 55300 20000 91107 91205;
0264067170999992011010106004+45867+007167FM-12+247999999V0200801N003112200019N0750001N1-00531-02781999999ADDAL19900091GA1001+999999999GF100991001001999999001001GJ101029IA1239KA1999N-00581MA1999999074961MD1710051+9999ME1430229OA149900511REMSYN124AAXX  01064 06717 32/89 00806 11053 21278 37496 47022 57005 333 21058 47/// 55017 55300 20000 70000 90768 93100 91110 91206;
0149067170999992011010107004+45867+007167FM-12+247999999V0201001N004619999999N9999999N1-00551-02601999999ADDMA1999999074961MD1710031+9999ME1430229OA149900621REMSYN088AAXX  01074 06717 33/// /1009 11055 21260 37496 47022 57003 333 55300 20000 91112 91209;
0149067170999992011010108004+45867+007167FM-12+247999999V0200901N005719999999N9999999N1-00651-02311999999ADDMA1999999074981MD1319999+9999ME1430229OA149900821REMSYN088AAXX  01084 06717 33/// /0911 11065 21231 37498 47022 53/// 333 55300 20025 91116 91213;
0096067170999992011010109004+45867+007167FM-12+247999999V0200901N004619999999N9999999N1-00591-02171999999ADDMA1999999074971ME1430229REMSYN060AAXX  01094 06717 43/// /0909 11059 21217 37497 47022 5////;
0096067170999992011010110004+45867+007167FM-12+247999999V0200901N004619999999N9999999N1-00581-02081999999ADDMA1999999074961ME1430219REMSYN060AAXX  01104 06717 43/// /0909 11058 21208 37496 47021 5////;
0149067170999992011010111004+45867+007167FM-12+247999999V0200801N004619999999N9999999N1-00641-02041999999ADDMA1999999074921MD1810061+9999ME1430169OA149900721REMSYN088AAXX  01114 06717 33/// /0809 11064 21204 37492 47016 58006 333 55300 20198 91114 91211;
0138067170999992011010112004+45867+007167FM-12+247999999V0200801N005712200019N0750001N1-00691-02031999999ADDGA1001+999999999GF100991001001999999001001MA1999999074881ME1430119REMSYN060AAXX  01124 06717 42/89 00811 11069 21203 37488 47011 5////;
0096067170999992011010113004+45867+007167FM-12+247999999V0201001N006719999999N9999999N1-00531-02011999999ADDMA1999999074831ME1430099REMSYN060AAXX  01134 06717 43/// /1013 11053 21201 37483 47009 5////;
0096067170999992011010114004+45867+007167FM-12+247999999V0201001N006219999999N9999999N1-00561-01751999999ADDMA1999999074811ME1430069REMSYN060AAXX  01144 06717 43/// /1012 11056 21175 37481 47006 5////;
0096067170999992011010115004+45867+007167FM-12+247999999V0201001N007219999999N9999999N1-00651-02001999999ADDMA1999999074811ME1430049REMSYN060AAXX  01154 06717 43/// /1014 11065 21200 37481 47004 5////;
0096067170999992011010116004+45867+007167FM-12+247999999V0201001N007719999999N9999999N1-00641-01981999999ADDMA1999999074791ME1430029REMSYN060AAXX  01164 06717 43/// /1015 11064 21198 37479 47002 5////;
0096067170999992011010117004+45867+007167FM-12+247999999V0201001N007219999999N9999999N1-00681-02061999999ADDMA1999999074771ME1430009REMSYN060AAXX  01174 06717 43/// /1014 11068 21206 37477 47000 5////;
0176067170999992011010118004+45867+007167FM-12+247999999V0200901N005712200019N0750001N1-00771-02131999999ADDAL10600091GA1001+999999999GF100991001001999999001001IA1239MA1999999074741ME1429959REMSYN082AAXX  01184 06717 42/89 00911 11077 21213 37474 47995 5//// 333 47/// 90766 93100;
0112067170999992011010119004+45867+007167FM-12+247999999V0201001N004619999999N9999999N1-00671-02171999999ADDMA1999999074711ME1429949REMSYN076AAXX  01194 06717 33/// /1009 11067 21217 37471 47994 5//// 333 553// 20000;
0149067170999992011010120004+45867+007167FM-12+247999999V0200701N003619999999N9999999N1-00681-02221999999ADDMA1999999074711MD1710061+9999ME1429939OA149900721REMSYN088AAXX  01204 06717 33/// /0707 11068 21222 37471 47993 57006 333 55300 20000 91114 91209;
0149067170999992011010121004+45867+007167FM-12+247999999V0200901N005119999999N9999999N1-00791-02121999999ADDMA1999999074701MD1610041+9999ME1429909OA149900981REMSYN088AAXX  01214 06717 33/// /0910 11079 21212 37470 47990 56004 333 55300 20000 91119 91215;
0149067170999992011010122004+45867+007167FM-12+247999999V0200901N005719999999N9999999N1-00731-02101999999ADDMA1999999074681MD1810031+9999ME1429899OA149900821REMSYN088AAXX  01224 06717 33/// /0911 11073 21210 37468 47989 58003 333 55300 20000 91116 91213;
0149067170999992011010123004+45867+007167FM-12+247999999V0200901N005719999999N9999999N1-00781-02011999999ADDMA1999999074641MD1810071+9999ME1429849OA149900821REMSYN088AAXX  01234 06717 33/// /0911 11078 21201 37464 47984 58007 333 55300 20000 91116 91213;
0149067170999992011010200004+45867+007167FM-12+247999999V0200901N005119999999N9999999N1-00731-02021999999ADDMA1999999074611MD1810091+9999ME1429829OA149900981REMSYN088AAXX  02004 06717 33/// /0910 11073 21202 37461 47982 58009 333 55300 20000 91119 91215;
0149067170999992011010201004+45867+007167FM-12+247999999V0200701N003619999999N9999999N1-00621-01731999999ADDMA1999999074571MD1810111+9999ME1429809OA149900881REMSYN088AAXX  02014 06717 33/// /0707 11062 21173 37457 47980 58011 333 55300 20000 91117 91213;
0096067170999992011010202004+45867+007167FM-12+247999999V0200701N003619999999N9999999N1-00651-01671999999ADDMA1999999074571ME1429799REMSYN060AAXX  02024 06717 43/// /0707 11065 21167 37457 47979 5////;
0096067170999992011010203004+45867+007167FM-12+247999999V0201001N004619999999N9999999N1-00771-01661999999ADDMA1999999074551ME1429759REMSYN060AAXX  02034 06717 43/// /1009 11077 21166 37455 47975 5////;
0096067170999992011010204004+45867+007167FM-12+247999999V0201001N005719999999N9999999N1-00701-01701999999ADDMA1999999074521ME1429739REMSYN060AAXX  02044 06717 43/// /1011 11070 21170 37452 47973 5////;
0096067170999992011010205004+45867+007167FM-12+247999999V0200801N004119999999N9999999N1-00751-01721999999ADDMA1999999074511ME1429719REMSYN060AAXX  02054 06717 43/// /0808 11075 21172 37451 47971 5////;
0209067170999992011010206004+45867+007167FM-12+247999999V0201101N006212200019N0750001N1-00751-01901999999ADDAL10600091GA1001+999999999GF100991001001999999001001GJ101029IA1239KA1999N-00881MA1999999074491ME1429699REMSYN094AAXX  02064 06717 42/89 01112 11075 21190 37449 47969 5//// 333 21088 47/// 55017 90768 93100;
0149067170999992011010207004+45867+007167FM-12+247999999V0201101N004619999999N9999999N1-00711-01601999999ADDMA1999999074491MD1710031+9999ME1429709OA149900881REMSYN088AAXX  02074 06717 33/// /1109 11071 21160 37449 47970 57003 333 55300 20000 91117 91212;
0149067170999992011010208004+45867+007167FM-12+247999999V0201101N005719999999N9999999N1-00821-01831999999ADDMA1999999074521MD1310011+9999ME1429719OA149900881REMSYN088AAXX  02084 06717 33/// /1111 11082 21183 37452 47971 53001 333 55300 20025 91117 91212;
0149067170999992011010209004+45867+007167FM-12+247999999V0201001N004619999999N9999999N1-00761-01511999999ADDMA1999999074541MD1310051+9999ME1429749OA149900881REMSYN088AAXX  02094 06717 33/// /1009 11076 21151 37454 47974 53005 333 55300 20094 91117 91212;
0149067170999992011010210004+45867+007167FM-12+247999999V0201201N006219999999N9999999N1-00701-01471999999ADDMA1999999074561MD1110071+9999ME1429779OA149900881REMSYN088AAXX  02104 06717 33/// /1212 11070 21147 37456 47977 51007 333 55300 20151 91117 91212;
0149067170999992011010211004+45867+007167FM-12+247999999V0201101N004619999999N9999999N1-00721-01471999999ADDMA1999999074541MD1010021+9999ME1429759OA149900821REMSYN088AAXX  02114 06717 33/// /1109 11072 21147 37454 47975 50002 333 55300 20202 91116 91212;
0191067170999992011010212004+45867+007167FM-12+247999999V0201401N006212200019N0750001N1-00651-01401999999ADDGA1001+999999999GF100991001001999999001001MA1999999074501MD1810041+9999ME1429729OA149900981REMSYN088AAXX  02124 06717 32/89 01412 11065 21140 37450 47972 58004 333 55300 20238 91119 91213;
0149067170999992011010213004+45867+007167FM-12+247999999V0201301N007719999999N9999999N1-00661-01411999999ADDMA1999999074471MD1810091+9999ME1429699OA149901131REMSYN088AAXX  02134 06717 33/// /1315 11066 21141 37447 47969 58009 333 55307 2//// 91122 91216;
0112067170999992011010214004+45867+007167FM-12+247999999V0201301N008719999999N9999999N1-00681-01381999999ADDMA1999999074461ME1429689REMSYN076AAXX  02144 06717 33/// /1317 11068 21138 37446 47968 5//// 333 553// 2////;
0149067170999992011010215004+45867+007167FM-12+247999999V0201301N008219999999N9999999N1-00701-01441999999ADDMA1999999074471MD1510031+9999ME1429689OA149901291REMSYN088AAXX  02154 06717 33/// /1316 11070 21144 37447 47968 55003 333 55300 20155 91125 91217;
0149067170999992011010216004+45867+007167FM-12+247999999V0201301N008719999999N9999999N1-00791-01401999999ADDMA1999999074481MD1310011+9999ME1429689OA149901291REMSYN088AAXX  02164 06717 33/// /1317 11079 21140 37448 47968 53001 333 55300 20050 91125 91217;
0149067170999992011010217004+45867+007167FM-12+247999999V0201301N006219999999N9999999N1-00821-01441999999ADDMA1999999074501MD1310041+9999ME1429699OA149901241REMSYN088AAXX  02174 06717 33/// /1312 11082 21144 37450 47969 53004 333 55300 20000 91124 91217;
0244067170999992011010218004+45867+007167FM-12+247999999V0201301N005712200019N0750001N1-00811-01731999999ADDAL19900091GA1001+999999999GF100991001001999999001001IA1239KA1120M-00651MA1999999074511MD1110041+9999ME1429709OA149901291REMSYN112AAXX  02184 06717 32/89 01311 11081 21173 37451 47970 51004 333 11065 47/// 55300 20000 90766 93100 91125 91217;
0149067170999992011010219004+45867+007167FM-12+247999999V0201101N005719999999N9999999N1-00851-02161999999ADDMA1999999074531MD1310051+9999ME1429729OA149900981REMSYN088AAXX  02194 06717 33/// /1111 11085 21216 37453 47972 53005 333 55300 20000 91119 91213;
0149067170999992011010220004+45867+007167FM-12+247999999V0200801N003619999999N9999999N1-00851-02381999999ADDMA1999999074541MD1210041+9999ME1429739OA149900931REMSYN088AAXX  02204 06717 33/// /0807 11085 21238 37454 47973 52004 333 55300 20000 91118 91212;
0149067170999992011010221004+45867+007167FM-12+247999999V0200801N003619999999N9999999N1-00931-02411999999ADDMA1999999074571MD1210061+9999ME1429749OA149901241REMSYN088AAXX  02214 06717 33/// /0807 11093 21241 37457 47974 52006 333 55300 20000 91124 91217;
0149067170999992011010222004+45867+007167FM-12+247999999V0200701N002619999999N9999999N1-00991-02771999999ADDMA1999999074601MD1310071+9999ME1429769OA149900571REMSYN088AAXX  02224 06717 33/// /0705 11099 21277 37460 47976 53007 333 55300 20000 91111 91208;
0149067170999992011010223004+45867+007167FM-12+247999999V0200601N003119999999N9999999N1-00901-02821999999ADDMA1999999074591MD1210051+9999ME1429779OA149900511REMSYN088AAXX  02234 06717 33/// /0606 11090 21282 37459 47977 52005 333 55300 20000 91110 91207;
0149067170999992011010300004+45867+007167FM-12+247999999V0201101N002619999999N9999999N1-00901-02851999999ADDMA1999999074581MD1010011+9999ME1429769OA149901291REMSYN088AAXX  03004 06717 33/// /1105 11090 21285 37458 47976 50001 333 55300 20000 91125 91217;
0149067170999992011010301004+45867+007167FM-12+247999999V0200701N002119999999N9999999N1-00941-03331999999ADDMA1999999074571MD1710031+9999ME1429749OA149900621REMSYN088AAXX  03014 06717 33/// /0704 11094 21333 37457 47974 57003 333 55300 20000 91112 91208;
0149067170999992011010302004+45867+007167FM-12+247999999V0201301N005119999999N9999999N1-00811-03091999999ADDMA1999999074571MD1519999+9999ME1429769OA149900771REMSYN088AAXX  03024 06717 33/// /1310 11081 21309 37457 47976 55/// 333 55300 20000 91115 91210;
0096067170999992011010303004+45867+007167FM-12+247999999V0201301N004619999999N9999999N1-00821-03101999999ADDMA1999999074571ME1429769REMSYN060AAXX  03034 06717 43/// /1309 11082 21310 37457 47976 5////;
0149067170999992011010304004+45867+007167FM-12+247999999V0201301N005119999999N9999999N1-00831-03101999999ADDMA1999999074571MD1410001+9999ME1429769OA149900721REMSYN088AAXX  03044 06717 33/// /1310 11083 21310 37457 47976 54000 333 55300 20000 91114 91210;
0149067170999992011010305004+45867+007167FM-12+247999999V0201201N004119999999N9999999N1-00871-03081999999ADDMA1999999074591MD1210021+9999ME1429779OA149900721REMSYN088AAXX  03054 06717 33/// /1208 11087 21308 37459 47977 52002 333 55300 20000 91114 91210;
0264067170999992011010306004+45867+007167FM-12+247999999V0201001N003112200019N0750001N1-00911-03211999999ADDAL19900091GA1001+999999999GF100991001001999999001001GJ101089IA1239KA1999N-01001MA1999999074601MD1210031+9999ME1429789OA149900931REMSYN124AAXX  03064 06717 32/89 01006 11091 21321 37460 47978 52003 333 21100 47/// 55018 55300 20000 70000 90768 93100 91118 91212;
0149067170999992011010307004+45867+007167FM-12+247999999V0201301N004119999999N9999999N1-00881-03361999999ADDMA1999999074611MD1110041+9999ME1429799OA149900771REMSYN088AAXX  03074 06717 33/// /1308 11088 21336 37461 47979 51004 333 55300 20000 91115 91210;
0149067170999992011010308004+45867+007167FM-12+247999999V0201201N005119999999N9999999N1-00831-03691999999ADDMA1999999074631MD1119999+9999ME1429829OA149900721REMSYN088AAXX  03084 06717 33/// /1210 11083 21369 37463 47982 51/// 333 55300 20025 91114 91210;
0112067170999992011010309004+45867+007167FM-12+247999999V0201001N003119999999N9999999N1-00821-03571999999ADDMA1999999074641ME1429839REMSYN076AAXX  03094 06717 33/// /1006 11082 21357 37464 47983 5//// 333 553// 20097;
0149067170999992011010310004+45867+007167FM-12+247999999V0200901N002119999999N9999999N1-00901-03321999999ADDMA1999999074691MD1310081+9999ME1429879OA149900621REMSYN088AAXX  03104 06717 33/// /0904 11090 21332 37469 47987 53008 333 55300 20151 91112 91209;
0149067170999992011010311004+45867+007167FM-12+247999999V0201301N003619999999N9999999N1-00731-03661999999ADDMA1999999074681MD1210051+9999ME1429899OA149900511REMSYN088AAXX  03114 06717 33/// /1307 11073 21366 37468 47989 52005 333 55300 20205 91110 91207;
0168067170999992011010312004+45867+007167FM-12+247999999V0201301N003619999999N9999999N1-00741-03461999999ADDMA1999999074641MD1410001+9999ME1429859OA149900771REMSYN088AAXX  03124 06717 33/// /1307 11074 21346 37464 47985 58000 333 55300 20241 91115 91210;EQDQ01+000082APCTEN
0149067170999992011010313004+45867+007167FM-12+247999999V0201301N004119999999N9999999N1-00701-03611999999ADDMA1999999074631MD1610061+9999ME1429859OA149900671REMSYN088AAXX  03134 06717 33/// /1308 11070 21361 37463 47985 56006 333 55308 2//// 91113 91209;
0112067170999992011010314004+45867+007167FM-12+247999999V0201501N004119999999N9999999N1-00721-03381999999ADDMA1999999074631ME1429849REMSYN076AAXX  03144 06717 33/// /1508 11072 21338 37463 47984 5//// 333 553// 2////;
0112067170999992011010315004+45867+007167FM-12+247999999V0201201N002619999999N9999999N1-00711-03301999999ADDMA1999999074641ME1429869REMSYN076AAXX  03154 06717 33/// /1205 11071 21330 37464 47986 5//// 333 553// 20166;
0149067170999992011010316004+45867+007167FM-12+247999999V0201001N002119999999N9999999N1-00831-03121999999ADDMA1999999074641MD1210011+9999ME1429839OA149900721REMSYN088AAXX  03164 06717 33/// /1004 11083 21312 37464 47983 52001 333 55300 20058 91114 91209;
0149067170999992011010317004+45867+007167FM-12+247999999V0203501N001519999999N9999999N1-00681-03111999999ADDMA1999999074651MD1210021+9999ME1429879OA149900461REMSYN088AAXX  03174 06717 33/// /3503 11068 21311 37465 47987 52002 333 55300 20000 91109 91205;
0244067170999992011010318004+45867+007167FM-12+247999999V0203401N001512200019N0750001N1-00721-02881999999ADDAL19900091GA1001+999999999GF100991001001999999001001IA1239KA1120M-00661MA1999999074661MD1210021+9999ME1429879OA149900771REMSYN112AAXX  03184 06717 32/89 03403 11072 21288 37466 47987 52002 333 11066 47/// 55300 20000 90766 93100 91115 91210;
0149067170999992011010319004+45867+007167FM-12+247999999V0200301N001019999999N9999999N1-00691-02991999999ADDMA1999999074651MD1410001+9999ME1429879OA149900361REMSYN088AAXX  03194 06717 33/// /0302 11069 21299 37465 47987 54001 333 55300 20000 91107 91205;
0149067170999992011010320004+45867+007167FM-12+247999999V0202701N001519999999N9999999N1-00841-03531999999ADDMA1999999074641MD1810011+9999ME1429839OA149900311REMSYN088AAXX  03204 06717 33/// /2703 11084 21353 37464 47983 58001 333 55300 20000 91106 91203;
0149067170999992011010321004+45867+007167FM-12+247999999V0202801N001519999999N9999999N1-00811-03021999999ADDMA1999999074641MD1710021+9999ME1429849OA149900461REMSYN088AAXX  03214 06717 33/// /2803 11081 21302 37464 47984 57002 333 55300 20000 91109 91205;
0149067170999992011010322004+45867+007167FM-12+247999999V0202801N002619999999N9999999N1-00941-03041999999ADDMA1999999074631MD1810021+9999ME1429809OA149900361REMSYN088AAXX  03224 06717 33/// /2805 11094 21304 37463 47980 58002 333 55300 20000 91107 91205;
0149067170999992011010323004+45867+007167FM-12+247999999V0202801N002619999999N9999999N1-00941-02731999999ADDMA1999999074631MD1710011+9999ME1429809OA149900411REMSYN088AAXX  03234 06717 33/// /2805 11094 21273 37463 47980 57001 333 55300 20000 91108 91205;
0149067170999992011010400004+45867+007167FM-12+247999999V0202901N002619999999N9999999N1-00941-02731999999ADDMA1999999074591MD1710051+9999ME1429769OA149900771REMSYN088AAXX  04004 06717 33/// /2905 11094 21273 37459 47976 57005 333 55300 20000 91115 91209;
0149067170999992011010401004+45867+007167FM-12+247999999V0202801N001519999999N9999999N1-00921-02691999999ADDMA1999999074571MD1810061+9999ME1429749OA149900461REMSYN088AAXX  04014 06717 33/// /2803 11092 21269 37457 47974 58006 333 55300 20000 91109 91206;
0149067170999992011010402004+45867+007167FM-12+247999999V0202701N003119999999N9999999N1-00931-02741999999ADDMA1999999074531MD1819999+9999ME1429709OA149900461REMSYN088AAXX  04024 06717 33/// /2706 11093 21274 37453 47970 58/// 333 55300 20000 91109 91207;
0149067170999992011010403004+45867+007167FM-12+247999999V0202801N002619999999N9999999N1-01021-02771999999ADDMA1999999074501MD1610091+9999ME1429659OA149900461REMSYN088AAXX  04034 06717 33/// /2805 11102 21277 37450 47965 56009 333 55300 20000 91109 91207;
0149067170999992011010404004+45867+007167FM-12+247999999V0202901N004619999999N9999999N1-01041-02831999999ADDMA1999999074451MD1810121+9999ME1429609OA149900621REMSYN088AAXX  04044 06717 33/// /2909 11104 21283 37445 47960 58012 333 55300 20000 91112 91209;
0149067170999992011010405004+45867+007167FM-12+247999999V0202701N003119999999N9999999N1-01061-02871999999ADDMA1999999074421MD1810111+9999ME1429569OA149900721REMSYN088AAXX  04054 06717 33/// /2706 11106 21287 37442 47956 58011 333 55300 20000 91114 91209;
0270067170999992011010406004+45867+007167FM-12+247999999V0202901N002112200019N0750001N1-01021-02891999999ADDAL19900091GA1011+024001061GF101991999999022501999999GJ101089IA1239KA1999N-01061MA1999999074401MD1610101+9999ME1429559OA149900721REMSYN130AAXX  04064 06717 32889 12904 11102 21289 37440 47955 56010 333 21106 47/// 55018 55300 20000 70000 81658 90768 93100 91114 91209;
0149067170999992011010407004+45867+007167FM-12+247999999V0201901N001019999999N9999999N1-00981-02771999999ADDMA1999999074401MD1710051+9999ME1429569OA149900571REMSYN088AAXX  04074 06717 33/// /1902 11098 21277 37440 47956 57005 333 55300 20000 91111 91207;
0149067170999992011010408004+45867+007167FM-12+247999999V0202701N003119999999N9999999N1-01141-02811999999ADDMA1999999074411MD1519999+9999ME1429549OA149900571REMSYN088AAXX  04084 06717 33/// /2706 11114 21281 37441 47954 55/// 333 55300 20025 91111 91206;
0112067170999992011010409004+45867+007167FM-12+247999999V0202701N002119999999N9999999N1-01181-02901999999ADDMA1999999074431ME1429559REMSYN076AAXX  04094 06717 33/// /2704 11118 21290 37443 47955 5//// 333 553// 20155;
0149067170999992011010410004+45867+007167FM-12+247999999V0202801N003119999999N9999999N1-01081-02141999999ADDMA1999999074461MD1210061+9999ME1429609OA149900771REMSYN088AAXX  04104 06717 33/// /2806 11108 21214 37446 47960 52006 333 55300 20508 91115 91208;
0149067170999992011010411004+45867+007167FM-12+247999999V0202801N001519999999N9999999N1-01031-01831999999ADDMA1999999074441MD1010031+9999ME1429599OA149900511REMSYN088AAXX  04114 06717 33/// /2803 11103 21183 37444 47959 50003 333 55300 20407 91110 91207;
0197067170999992011010412004+45867+007167FM-12+247999999V0202701N001012200019N0750001N1-00971-01661999999ADDGA1041+015001021GF104991999999017501999999MA1999999074391MD1810041+9999ME1429559OA149900771REMSYN094AAXX  04124 06717 32789 42702 11097 21166 37439 47955 58004 333 55300 20382 84250 91115 91209;
0149067170999992011010413004+45867+007167FM-12+247999999V0202701N002119999999N9999999N1-00931-01341999999ADDMA1999999074361MD1710101+9999ME1429539OA149900621REMSYN088AAXX  04134 06717 33/// /2704 11093 21134 37436 47953 57010 333 55308 2//// 91112 91208;
0112067170999992011010414004+45867+007167FM-12+247999999V0202501N001519999999N9999999N1-00941-01231999999ADDMA1999999074341ME1429509REMSYN076AAXX  04144 06717 33/// /2503 11094 21123 37434 47950 5//// 333 553// 2////;
0096067170999992011010415004+45867+007167FM-12+247999999V0202501N001019999999N9999999N1-01071-01341999999ADDMA1999999074341ME1429489REMSYN060AAXX  04154 06717 43/// /2502 11107 21134 37434 47948 5////;
0149067170999992011010416004+45867+007167FM-12+247999999V0202901N001519999999N9999999N1-01041-01581999999ADDMA1999999074351MD1410001+9999ME1429509OA149900461REMSYN088AAXX  04164 06717 33/// /2903 11104 21158 37435 47950 54001 333 55300 20054 91109 91204;
0149067170999992011010417004+45867+007167FM-12+247999999V0202801N002119999999N9999999N1-01081-01381999999ADDMA1999999074351MD1210011+9999ME1429499OA149900461REMSYN088AAXX  04174 06717 33/// /2804 11108 21138 37435 47949 52001 333 55300 20000 91109 91204;
0244067170999992011010418004+45867+007167FM-12+247999999V0202601N001512200019N0750001N1-01121-01451999999ADDAL19900091GA1001+999999999GF100991001001999999001001IA1239KA1120M-00881MA1999999074361MD1210021+9999ME1429499OA149900771REMSYN112AAXX  04184 06717 32/89 02603 11112 21145 37436 47949 52002 333 11088 47/// 55300 20000 90766 93100 91115 91208;
0149067170999992011010419004+45867+007167FM-12+247999999V0202601N000519999999N9999999N1-01111-01761999999ADDMA1999999074381MD1210031+9999ME1429519OA149900461REMSYN088AAXX  04194 06717 33/// /2601 11111 21176 37438 47951 52003 333 55300 20000 91109 91205;
0149067170999992011010420004+45867+007167FM-12+247999999V0202701N004119999999N9999999N1-01171-01651999999ADDMA1999999074371MD1210021+9999ME1429499OA149900571REMSYN088AAXX  04204 06717 33/// /2708 11117 21165 37437 47949 52002 333 55300 20000 91111 91208;
0149067170999992011010421004+45867+007167FM-12+247999999V0202801N005719999999N9999999N1-01101-01511999999ADDMA1999999074351MD1810011+9999ME1429499OA149900721REMSYN088AAXX  04214 06717 33/// /2811 11110 21151 37435 47949 58001 333 55300 20000 91114 91211;
0149067170999992011010422004+45867+007167FM-12+247999999V0202701N005719999999N9999999N1-01051-01741999999ADDMA1999999074341MD1610041+9999ME1429489OA149900771REMSYN088AAXX  04224 06717 33/// /2711 11105 21174 37434 47948 56004 333 55300 20000 91115 91211;
0149067170999992011010423004+45867+007167FM-12+247999999V0202801N005119999999N9999999N1-01181-01901999999ADDMA1999999074351MD1510021+9999ME1429479OA149900771REMSYN088AAXX  04234 06717 33/// /2810 11118 21190 37435 47947 55002 333 55300 20000 91115 91211;
0149067170999992011010500004+45867+007167FM-12+247999999V0202701N005119999999N9999999N1-01111-01971999999ADDMA1999999074311MD1710041+9999ME1429449OA149900771REMSYN088AAXX  05004 06717 33/// /2710 11111 21197 37431 47944 57004 333 55300 20000 91115 91211;
0149067170999992011010501004+45867+007167FM-12+247999999V0202801N004619999999N9999999N1-01131-02101999999ADDMA1999999074291MD1710051+9999ME1429429OA149900771REMSYN088AAXX  05014 06717 33/// /2809 11113 21210 37429 47942 57005 333 55300 20000 91115 91211;
0149067170999992011010502004+45867+007167FM-12+247999999V0202801N005119999999N9999999N1-01061-02221999999ADDMA1999999074301MD1710051+9999ME1429449OA149900771REMSYN088AAXX  05024 06717 33/// /2810 11106 21222 37430 47944 57005 333 55300 20000 91115 91210;
0096067170999992011010503004+45867+007167FM-12+247999999V0202801N004119999999N9999999N1-00991-02201999999ADDMA1999999074291ME1429449REMSYN060AAXX  05034 06717 43/// /2808 11099 21220 37429 47944 5////;
0149067170999992011010504004+45867+007167FM-12+247999999V0202801N003619999999N9999999N1-01031-02291999999ADDMA1999999074271MD1810021+9999ME1429429OA149900671REMSYN088AAXX  05044 06717 33/// /2807 11103 21229 37427 47942 58002 333 55300 20000 91113 91209;
0149067170999992011010505004+45867+007167FM-12+247999999V0202801N002619999999N9999999N1-01111-02341999999ADDMA1999999074301MD1510001+9999ME1429439OA149900571REMSYN088AAXX  05054 06717 33/// /2805 11111 21234 37430 47943 55000 333 55300 20000 91111 91208;
0264067170999992011010506004+45867+007167FM-12+247999999V0202801N001512200019N0750001N1-01101-02371999999ADDAL19900091GA1001+999999999GF100991001001999999001001GJ101089IA1239KA1999N-01221MA1999999074331MD1210041+9999ME1429469OA149900771REMSYN124AAXX  05064 06717 32/89 02803 11110 21237 37433 47946 52004 333 21122 47/// 55018 55300 20000 70000 90768 93100 91115 91211;
0149067170999992011010507004+45867+007167FM-12+247999999V0202801N001019999999N9999999N1-01031-02331999999ADDMA1999999074371MD1310101+9999ME1429529OA149900461REMSYN088AAXX  05074 06717 33/// /2802 11103 21233 37437 47952 53010 333 55300 20000 91109 91206;
0149067170999992011010508004+45867+007167FM-12+247999999V0202901N002619999999N9999999N1-01051-02301999999ADDMA1999999074391MD1119999+9999ME1429549OA149900461REMSYN088AAXX  05084 06717 33/// /2905 11105 21230 37439 47954 51/// 333 55300 20029 91109 91205;
0149067170999992011010509004+45867+007167FM-12+247999999V0202801N002619999999N9999999N1-01061-02241999999ADDMA1999999074421MD1110091+9999ME1429569OA149900571REMSYN088AAXX  05094 06717 33/// /2805 11106 21224 37442 47956 51009 333 55300 20104 91111 91208;
0149067170999992011010510004+45867+007167FM-12+247999999V0202701N002619999999N9999999N1-00911-01811999999ADDMA1999999074461MD1310091+9999ME1429639OA149900511REMSYN088AAXX  05104 06717 33/// /2705 11091 21181 37446 47963 53009 333 55300 20166 91110 91207;
0149067170999992011010511004+45867+007167FM-12+247999999V0202501N002119999999N9999999N1-00871-02031999999ADDMA1999999074441MD1010051+9999ME1429629OA149900511REMSYN088AAXX  05114 06717 33/// /2504 11087 21203 37444 47962 50005 333 55300 20234 91110 91207;
0144067170999992011010512004+45867+007167FM-12+247999999V0202601N004612200019N0750001N1-00871-01571999999ADDGF102991999999999999999999MA1999999074391ME1429579REMSYN082AAXX  05124 06717 32989 22609 11087 21157 37439 47957 5//// 333 553// 20266 82068;
0149067170999992011010513004+45867+007167FM-12+247999999V0202801N003619999999N9999999N1-00671-01391999999ADDMA1999999074381MD1710081+9999ME1429599OA149900721REMSYN088AAXX  05134 06717 33/// /2807 11067 21139 37438 47959 57008 333 55308 2//// 91114 91210;
0096067170999992011010514004+45867+007167FM-12+247999999V0202601N001519999999N9999999N1-00681-01331999999ADDMA1999999074421ME1429639REMSYN060AAXX  05144 06717 43/// /2603 11068 21133 37442 47963 5////;
0096067170999992011010515004+45867+007167FM-12+247999999V0202801N002119999999N9999999N1-00691-01271999999ADDMA1999999074421ME1429639REMSYN060AAXX  05154 06717 43/// /2804 11069 21127 37442 47963 5////;
0149067170999992011010516004+45867+007167FM-12+247999999V0202601N003119999999N9999999N1-00691-01101999999ADDMA1999999074431MD1010051+9999ME1429649OA149900511REMSYN088AAXX  05164 06717 33/// /2606 11069 21110 37443 47964 50005 333 55300 20068 91110 91207;
0149067170999992011010517004+45867+007167FM-12+247999999V0202901N003619999999N9999999N1-00751-01061999999ADDMA1999999074461MD1210041+9999ME1429669OA149900621REMSYN088AAXX  05174 06717 33/// /2907 11075 21106 37446 47966 52004 333 55300 20000 91112 91208;
0244067170999992011010518004+45867+007167FM-12+247999999V0202701N001512200019N0750001N1-00691-01011999999ADDAL19900091GA1001+999999999GF100991001001999999001001IA1239KA1120M-00601MA1999999074481MD1219999+9999ME1429699OA149900721REMSYN112AAXX  05184 06717 32/89 02703 11069 21101 37448 47969 52/// 333 11060 47/// 55300 20000 90766 93100 91114 91210;
0149067170999992011010519004+45867+007167FM-12+247999999V0202701N004119999999N9999999N1-00711-01021999999ADDMA1999999074471MD1210041+9999ME1429689OA149900771REMSYN088AAXX  05194 06717 33/// /2708 11071 21102 37447 47968 52004 333 55300 20000 91115 91209;
0149067170999992011010520004+45867+007167FM-12+247999999V0202701N004119999999N9999999N1-00751-01141999999ADDMA1999999074461MD1819999+9999ME1429669OA149900771REMSYN088AAXX  05204 06717 33/// /2708 11075 21114 37446 47966 58/// 333 55300 20000 91115 91209;
0112067170999992011010521004+45867+007167FM-12+247999999V0202601N002619999999N9999999N1-00761-01141999999ADDMA1999999074491ME1429699REMSYN076AAXX  05214 06717 33/// /2605 11076 21114 37449 47969 5//// 333 553// 20000;
0149067170999992011010522004+45867+007167FM-12+247999999V0202601N005719999999N9999999N1-00731-01121999999ADDMA1999999074491MD1210021+9999ME1429709OA149900721REMSYN088AAXX  05224 06717 33/// /2611 11073 21112 37449 47970 52002 333 55300 20000 91114 91211;
0149067170999992011010523004+45867+007167FM-12+247999999V0202801N007219999999N9999999N1-00761-01151999999ADDMA1999999074501MD1219999+9999ME1429709OA149900881REMSYN088AAXX  05234 06717 33/// /2814 11076 21115 37450 47970 52/// 333 55300 20000 91117 91214;
0096067170999992011010600004+45867+007167FM-12+247999999V0202801N004619999999N9999999N1-00721-01141999999ADDMA1999999074491ME1429709REMSYN060AAXX  06004 06717 43/// /2809 11072 21114 37449 47970 5////;
0096067170999992011010601004+45867+007167FM-12+247999999V0202801N005119999999N9999999N1-00671-01131999999ADDMA1999999074461ME1429689REMSYN060AAXX  06014 06717 43/// /2810 11067 21113 37446 47968 5////;
0096067170999992011010602004+45867+007167FM-12+247999999V0202701N005119999999N9999999N1-00711-01111999999ADDMA1999999074461ME1429679REMSYN060AAXX  06024 06717 43/// /2710 11071 21111 37446 47967 5////;
0096067170999992011010603004+45867+007167FM-12+247999999V0202901N004119999999N9999999N1-00711-01101999999ADDMA1999999074481ME1429699REMSYN060AAXX  06034 06717 43/// /2908 11071 21110 37448 47969 5////;
0096067170999992011010604004+45867+007167FM-12+247999999V0202901N004119999999N9999999N1-00601-00731999999ADDMA1999999074461ME1429699REMSYN060AAXX  06044 06717 43/// /2908 11060 21073 37446 47969 5////;
0096067170999992011010605004+45867+007167FM-12+247999999V0202701N002619999999N9999999N1-00591-00681999999ADDMA1999999074441ME1429679REMSYN060AAXX  06054 06717 43/// /2705 11059 21068 37444 47967 5////;
0243067170999992011010606004+45867+007167FM-12+247999999V0202901N002610033019N0004001N1-00451-00571999999ADDAL10600191AY171061AY221061GA1081+003301071GF108991999999004501999999GJ101089IA1239KA1999N-00841MA1999999074451ME1429719MW1711REMSYN106AAXX  06064 06717 41404 82905 11045 21057 37445 47971 5//// 77172 333 21084 47/// 55018 88711 90768 93101;
0096067170999992011010607004+45867+007167FM-12+247999999V0203101N004119999999N9999999N1-00401-00511999999ADDMA1999999074481ME1429759REMSYN060AAXX  06074 06717 43/// /3108 11040 21051 37448 47975 5////;
0118067170999992011010608004+45867+007167FM-12+247999999V0202901N004119999999N9999999N1-00451-00541999999ADDMA1999999074511ME1429779REMSYN082AAXX  06084 06717 23/// /2908 11045 21054 37451 47977 5//// 333 553// 20058 69915;
0096067170999992011010609004+45867+007167FM-12+247999999V0202801N004119999999N9999999N1-00551-00661999999ADDMA1999999074531ME1429779REMSYN060AAXX  06094 06717 43/// /2808 11055 21066 37453 47977 5////;
0155067170999992011010610004+45867+007167FM-12+247999999V0202801N005719999999N9999999N1-00591-00701999999ADDMA1999999074581MD1310101+9999ME1429829OA149900821REMSYN094AAXX  06104 06717 23/// /2811 11059 21070 37458 47982 53010 333 55300 20464 69955 91116 91211;
0155067170999992011010611004+45867+007167FM-12+247999999V0202801N004619999999N9999999N1-00471-00561999999ADDMA1999999074581MD1210071+9999ME1429849OA149900821REMSYN094AAXX  06114 06717 23/// /2809 11047 21056 37458 47984 52007 333 55300 20554 69925 91116 91211;
0248067170999992011010612004+45867+007167FM-12+247999999V0202701N00411003301CN0005001N1-00571-00651999999ADDAA106002091AY171061AY221061GA1081+003301071GF108991999999004501999999MA1999999074571MD1010041+9999ME1429819MW1711OA149900881REMSYN112AAXX  06124 06717 01405 82708 11057 21065 37457 47981 50004 60021 77172 333 55300 20630 69915 88711 91117 91211;
0149067170999992011010613004+45867+007167FM-12+247999999V0202601N003619999999N9999999N1-00391-00511999999ADDMA1999999074551MD1710031+9999ME1429829OA149900881REMSYN088AAXX  06134 06717 33/// /2607 11039 21051 37455 47982 57003 333 55300 20576 91117 91210;
0096067170999992011010614004+45867+007167FM-12+247999999V0202701N004119999999N9999999N1-00431-00501999999ADDMA1999999074581ME1429859REMSYN060AAXX  06144 06717 43/// /2708 11043 21050 37458 47985 5////;
0096067170999992011010615004+45867+007167FM-12+247999999V0203001N004619999999N9999999N1-00321-00441999999ADDMA1999999074621ME1429919REMSYN060AAXX  06154 06717 43/// /3009 11032 21044 37462 47991 5////;
0155067170999992011010616004+45867+007167FM-12+247999999V0203101N003619999999N9999999N1-00321-00411999999ADDMA1999999074631MD1210081+9999ME1429929OA149900821REMSYN094AAXX  06164 06717 23/// /3107 11032 21041 37463 47992 52008 333 55300 20086 69925 91116 91209;
0155067170999992011010617004+45867+007167FM-12+247999999V0203001N003619999999N9999999N1-00231-00341999999ADDMA1999999074661MD1210081+9999ME1429979OA149900931REMSYN094AAXX  06174 06717 23/// /3007 11023 21034 37466 47997 52008 333 55300 20000 69965 91118 91211;
0301067170999992011010618004+45867+007167FM-12+247999999V0202801N00621003301CN0005001N1-00191-00251999999ADDAA112004191AL11201091AY171061AY221061GA1081+003301071GF108991999999004501999999IA1239KA1120M-00211MA1999999074671MD1210051+9999ME1429999MW1731OA149901131REMSYN136AAXX  06184 06717 01405 82812 11019 21025 37467 47999 52005 60042 77372 333 11021 47/// 55300 20000 60015 88711 90766 93110 91122 91213;
0155067170999992011010619004+45867+007167FM-12+247999999V0202801N006219999999N9999999N1-00131-00211999999ADDMA1999999074691MD1210061+9999ME1430029OA149901291REMSYN094AAXX  06194 06717 23/// /2812 11013 21021 37469 47002 52006 333 55300 20000 69985 91125 91214;
0155067170999992011010620004+45867+007167FM-12+247999999V0202801N005719999999N9999999N1-00171-00201999999ADDMA1999999074721MD1219999+9999ME1430049OA149901291REMSYN094AAXX  06204 06717 23/// /2811 11017 21020 37472 47004 52/// 333 55300 20000 69955 91125 91214;
0155067170999992011010621004+45867+007167FM-12+247999999V0202701N007719999999N9999999N1-00111-00201999999ADDMA1999999074751MD1319999+9999ME1430099OA149901291REMSYN094AAXX  06214 06717 23/// /2715 11011 21020 37475 47009 53/// 333 55300 20000 69965 91125 91215;
0155067170999992011010622004+45867+007167FM-12+247999999V0202801N006719999999N9999999N1-00151-00181999999ADDMA1999999074801MD1310111+9999ME1430139OA149901341REMSYN094AAXX  06224 06717 23/// /2813 11015 21018 37480 47013 53011 333 55300 20000 69935 91126 91216;
0118067170999992011010623004+45867+007167FM-12+247999999V0202801N006719999999N9999999N1-00081-00171999999ADDMA1999999074841ME1430199REMSYN082AAXX  06234 06717 23/// /2813 11008 21017 37484 47019 5//// 333 553// 20000 69945;
0096067170999992011010700004+45867+007167FM-12+247999999V0202701N003119999999N9999999N1-00111-00151999999ADDMA1999999074851ME1430199REMSYN060AAXX  07004 06717 43/// /2706 11011 21015 37485 47019 5////;
0096067170999992011010701004+45867+007167FM-12+247999999V0202901N005719999999N9999999N1-00091-00141999999ADDMA1999999074871ME1430229REMSYN060AAXX  07014 06717 43/// /2911 11009 21014 37487 47022 5////;
0096067170999992011010702004+45867+007167FM-12+247999999V0202901N004119999999N9999999N1-00101-00161999999ADDMA1999999074921ME1430279REMSYN060AAXX  07024 06717 43/// /2908 11010 21016 37492 47027 5////;
0096067170999992011010703004+45867+007167FM-12+247999999V0202801N004619999999N9999999N1-00091-00141999999ADDMA1999999074921ME1430279REMSYN060AAXX  07034 06717 43/// /2809 11009 21014 37492 47027 5////;
0155067170999992011010704004+45867+007167FM-12+247999999V0202801N005119999999N9999999N1-00081-00181999999ADDMA1999999074941MD1210071+9999ME1430299OA149901241REMSYN094AAXX  07044 06717 23/// /2810 11008 21018 37494 47029 52007 333 55300 20000 69965 91124 91213;
0155067170999992011010705004+45867+007167FM-12+247999999V0202901N004619999999N9999999N1-00151-00151999999ADDMA1999999074931MD1210011+9999ME1430279OA149901241REMSYN094AAXX  07054 06717 23/// /2909 11015 21015 37493 47027 52001 333 55300 20000 69935 91124 91213;
0325067170999992011010706004+45867+007167FM-12+247999999V0202901N005110006019N0008001N1-00261-00261999999ADDAA112006191AL14800991AL29901391AY171061AY241061GA1091+999999999GF109991091999999999999999GJ100009IA1239KA1999N-00241MA1999999074951MD1210031+9999ME1430279MW1701OA149901341REMSYN142AAXX  07064 06717 01/08 92910 11026 21026 37495 47027 52003 60062 77074 333 21024 47/// 55000 55300 20000 60005 70098 90768 93113 91126 91216;
0149067170999992011010707004+45867+007167FM-12+247999999V0202701N006219999999N9999999N1-00211-00211999999ADDMA1999999074991MD1210051+9999ME1430329OA149900881REMSYN088AAXX  07074 06717 33/// /2712 11021 21021 37499 47032 52005 333 55300 20000 91117 91212;
0112067170999992011010708004+45867+007167FM-12+247999999V0202801N006219999999N9999999N1-00191-00191999999ADDMA1999999075031ME1430379REMSYN076AAXX  07084 06717 33/// /2812 11019 21019 37503 47037 5//// 333 553// 20022;
0096067170999992011010709004+45867+007167FM-12+247999999V0202901N004619999999N9999999N1-00181-00181999999ADDMA1999999075051ME1430399REMSYN060AAXX  07094 06717 43/// /2909 11018 21018 37505 47039 5////;
0149067170999992011010710004+45867+007167FM-12+247999999V0202701N004119999999N9999999N1-00211-00211999999ADDMA1999999075081MD1210091+9999ME1430419OA149900821REMSYN088AAXX  07104 06717 33/// /2708 11021 21021 37508 47041 52009 333 55300 20400 91116 91211;
0149067170999992011010711004+45867+007167FM-12+247999999V0202801N004119999999N9999999N1-00321-00321999999ADDMA1999999075081MD1210051+9999ME1430399OA149900671REMSYN088AAXX  07114 06717 33/// /2808 11032 21032 37508 47039 52005 333 55300 20486 91113 91209;
0242067170999992011010712004+45867+007167FM-12+247999999V0202801N004110006019N0008001N1-00291-00291999999ADDAA106000021AY171061AY241061GA1091+999999999GF109991091999999999999999MA1999999075081MD1210031+9999ME1430409MW1451OA149901241REMSYN106AAXX  07124 06717 01/08 92808 11029 21029 37508 47040 52003 69911 74574 333 55300 20508 60005 91124 91213;
0149067170999992011010713004+45867+007167FM-12+247999999V0202801N003619999999N9999999N1-00311-00311999999ADDMA1999999075061MD1710021+9999ME1430379OA149900721REMSYN088AAXX  07134 06717 33/// /2807 11031 21031 37506 47037 57002 333 55300 20454 91114 91210;
0096067170999992011010714004+45867+007167FM-12+247999999V0202701N004119999999N9999999N1-00361-00361999999ADDMA1999999075061ME1430369REMSYN060AAXX  07144 06717 43/// /2708 11036 21036 37506 47036 5////;
0096067170999992011010715004+45867+007167FM-12+247999999V0202601N004119999999N9999999N1-00341-00341999999ADDMA1999999075081ME1430399REMSYN060AAXX  07154 06717 43/// /2608 11034 21034 37508 47039 5////;
0149067170999992011010716004+45867+007167FM-12+247999999V0202901N006219999999N9999999N1-00321-00321999999ADDMA1999999075101MD1210041+9999ME1430419OA149901081REMSYN088AAXX  07164 06717 33/// /2912 11032 21032 37510 47041 52004 333 55300 20083 91121 91212;
0149067170999992011010717004+45867+007167FM-12+247999999V0202701N006219999999N9999999N1-00341-00341999999ADDMA1999999075101MD1210041+9999ME1430419OA149901081REMSYN088AAXX  07174 06717 33/// /2712 11034 21034 37510 47041 52004 333 55300 20000 91121 91212;
0248067170999992011010718004+45867+007167FM-12+247999999V0202601N004610003019N0003001N1-00361-00361999999ADDAA112000021AY141061AY241061GA1091+999999999GF109991091999999999999999IA1239KA1120M-00121MA1999999075131ME1430439MW1491REMSYN118AAXX  07184 06717 01/03 92609 11036 21036 37513 47043 5//// 69912 74944 333 11012 47/// 553// 20000 60005 90766 93100;
0149067170999992011010719004+45867+007167FM-12+247999999V0202601N003619999999N9999999N1-00351-00351999999ADDMA1999999075121MD1219999+9999ME1430439OA149900721REMSYN088AAXX  07194 06717 33/// /2607 11035 21035 37512 47043 52/// 333 55300 20000 91114 91211;
0096067170999992011010720004+45867+007167FM-12+247999999V0202901N005119999999N9999999N1-00331-00331999999ADDMA1999999075111ME1430429REMSYN060AAXX  07204 06717 43/// /2910 11033 21033 37511 47042 5////;
0096067170999992011010721004+45867+007167FM-12+247999999V0203101N005719999999N9999999N1-00321-00321999999ADDMA1999999075081ME1430399REMSYN060AAXX  07214 06717 43/// /3111 11032 21032 37508 47039 5////;
0149067170999992011010722004+45867+007167FM-12+247999999V0203301N005719999999N9999999N1-00241-00321999999ADDMA1999999075071MD1710051+9999ME1430409OA149900931REMSYN088AAXX  07224 06717 33/// /3311 11024 21032 37507 47040 57005 333 55300 20000 91118 91213;
0118067170999992011010723004+45867+007167FM-12+247999999V0203501N005119999999N9999999N1-00441-00451999999ADDMA1999999075091ME1430389REMSYN082AAXX  07234 06717 23/// /3510 11044 21045 37509 47038 5//// 333 553// 20000 69915;
0154067170999992011010800004+45867+007167FM-12+247999999V0203401N005119999999N9999999N1-00241-00391999999ADDAA106000091MA1999999075061ME1430399REMSYN088AAXX  08004 06717 03/// /3410 11024 21039 37506 47039 5//// 69911 333 553// 20000 60005;EQDQ01  00002PRCP06
0096067170999992011010801004+45867+007167FM-12+247999999V0203201N004619999999N9999999N1-00421-00491999999ADDMA1999999075031ME1430329REMSYN060AAXX  08014 06717 43/// /3209 11042 21049 37503 47032 5////;
0096067170999992011010802004+45867+007167FM-12+247999999V0203201N001519999999N9999999N1-00421-00471999999ADDMA1999999075051ME1430349REMSYN060AAXX  08024 06717 43/// /3203 11042 21047 37505 47034 5////;
0096067170999992011010803004+45867+007167FM-12+247999999V0203101N003119999999N9999999N1-00301-00441999999ADDMA1999999075041ME1430359REMSYN060AAXX  08034 06717 43/// /3106 11030 21044 37504 47035 5////;
0096067170999992011010804004+45867+007167FM-12+247999999V0203101N005119999999N9999999N1-00391-00431999999ADDMA1999999075011ME1430309REMSYN060AAXX  08044 06717 43/// /3110 11039 21043 37501 47030 5////;
0096067170999992011010805004+45867+007167FM-12+247999999V0203101N004619999999N9999999N1-00421-00441999999ADDMA1999999075001ME1430299REMSYN060AAXX  08054 06717 43/// /3109 11042 21044 37500 47029 5////;
0237067170999992011010806004+45867+007167FM-12+247999999V0202701N005110006019N0008001N1-00451-00451999999ADDAL10600491AY141061AY201061GA1091+999999999GF109991091999999999999999GJ100009IA1239KA1999N-00451MA1999999075011ME1430299MW1701REMSYN100AAXX  08064 06717 41/08 92710 11045 21045 37501 47029 5//// 77040 333 21045 47/// 55000 90768 93104;
0096067170999992011010807004+45867+007167FM-12+247999999V0202801N006719999999N9999999N1-00421-00421999999ADDMA1999999075011ME1430309REMSYN060AAXX  08074 06717 43/// /2813 11042 21042 37501 47030 5////;
0112067170999992011010808004+45867+007167FM-12+247999999V0202901N005119999999N9999999N1-00411-00411999999ADDMA1999999075071ME1430369REMSYN076AAXX  08084 06717 33/// /2910 11041 21041 37507 47036 5//// 333 553// 20025;
0096067170999992011010809004+45867+007167FM-12+247999999V0202901N005119999999N9999999N1-00411-00411999999ADDMA1999999075121ME1430419REMSYN060AAXX  08094 06717 43/// /2910 11041 21041 37512 47041 5////;
0096067170999992011010810004+45867+007167FM-12+247999999V0202901N005119999999N9999999N1-00411-00411999999ADDMA1999999075131ME1430429REMSYN060AAXX  08104 06717 43/// /2910 11041 21041 37513 47042 5////;
0096067170999992011010811004+45867+007167FM-12+247999999V0202801N006719999999N9999999N1-00391-00391999999ADDMA1999999075121ME1430429REMSYN060AAXX  08114 06717 43/// /2813 11039 21039 37512 47042 5////;
0166067170999992011010812004+45867+007167FM-12+247999999V0202801N007210003019N0003001N1-00381-00381999999ADDAY141061AY221061GA1091+999999999GF109991091999999999999999MA1999999075081ME1430389MW1451REMSYN066AAXX  08124 06717 41/03 92814 11038 21038 37508 47038 5//// 74542;
0096067170999992011010813004+45867+007167FM-12+247999999V0202801N007219999999N9999999N1-00411-00431999999ADDMA1999999075041ME1430339REMSYN060AAXX  08134 06717 43/// /2814 11041 21043 37504 47033 5////;
0096067170999992011010814004+45867+007167FM-12+247999999V0202701N007719999999N9999999N1-00391-00411999999ADDMA1999999075021ME1430319REMSYN060AAXX  08144 06717 43/// /2715 11039 21041 37502 47031 5////;
0096067170999992011010815004+45867+007167FM-12+247999999V0202701N008219999999N9999999N1-00401-00411999999ADDMA1999999075041ME1430339REMSYN060AAXX  08154 06717 43/// /2716 11040 21041 37504 47033 5////;
0096067170999992011010816004+45867+007167FM-12+247999999V0202701N008219999999N9999999N1-00421-00421999999ADDMA1999999075081ME1430379REMSYN060AAXX  08164 06717 43/// /2716 11042 21042 37508 47037 5////;
0096067170999992011010817004+45867+007167FM-12+247999999V0202701N007219999999N9999999N1-00441-00441999999ADDMA1999999075081ME1430379REMSYN060AAXX  08174 06717 43/// /2714 11044 21044 37508 47037 5////;
0204067170999992011010818004+45867+007167FM-12+247999999V0202801N005710003019N0003001N1-00451-00451999999ADDAL10600091AY141061AY221061GA1091+999999999GF109991091999999999999999IA1239MA1999999075101ME1430389MW1491REMSYN088AAXX  08184 06717 41/03 92811 11045 21045 37510 47038 5//// 74942 333 47/// 90766 93100;
0096067170999992011010819004+45867+007167FM-12+247999999V0202701N006219999999N9999999N1-00461-00461999999ADDMA1999999075101ME1430389REMSYN060AAXX  08194 06717 43/// /2712 11046 21046 37510 47038 5////;
0096067170999992011010820004+45867+007167FM-12+247999999V0202501N005719999999N9999999N1-00461-00461999999ADDMA1999999075121ME1430409REMSYN060AAXX  08204 06717 43/// /2511 11046 21046 37512 47040 5////;
0096067170999992011010821004+45867+007167FM-12+247999999V0202801N007219999999N9999999N1-00451-00451999999ADDMA1999999075121ME1430409REMSYN060AAXX  08214 06717 43/// /2814 11045 21045 37512 47040 5////;
0096067170999992011010822004+45867+007167FM-12+247999999V0202801N006219999999N9999999N1-00491-00491999999ADDMA1999999075131ME1430419REMSYN060AAXX  08224 06717 43/// /2812 11049 21049 37513 47041 5////;
0096067170999992011010823004+45867+007167FM-12+247999999V0202801N005719999999N9999999N1-00491-00491999999ADDMA1999999075111ME1430399REMSYN060AAXX  08234 06717 43/// /2811 11049 21049 37511 47039 5////;
0096067170999992011010900004+45867+007167FM-12+247999999V0202801N006219999999N9999999N1-00511-00511999999ADDMA1999999075101ME1430379REMSYN060AAXX  09004 06717 43/// /2812 11051 21051 37510 47037 5////;
0096067170999992011010901004+45867+007167FM-12+247999999V0202601N006719999999N9999999N1-00541-00551999999ADDMA1999999075081ME1430349REMSYN060AAXX  09014 06717 43/// /2613 11054 21055 37508 47034 5////;
0096067170999992011010902004+45867+007167FM-12+247999999V0202701N005719999999N9999999N1-00531-00531999999ADDMA1999999075071ME1430349REMSYN060AAXX  09024 06717 43/// /2711 11053 21053 37507 47034 5////;
0096067170999992011010903004+45867+007167FM-12+247999999V0202601N007219999999N9999999N1-00541-00561999999ADDMA1999999075031ME1430299REMSYN060AAXX  09034 06717 43/// /2614 11054 21056 37503 47029 5////;
0096067170999992011010904004+45867+007167FM-12+247999999V0202801N004619999999N9999999N1-00551-00551999999ADDMA1999999075031ME1430299REMSYN060AAXX  09044 06717 43/// /2809 11055 21055 37503 47029 5////;
0096067170999992011010905004+45867+007167FM-12+247999999V0202901N006219999999N9999999N1-00561-00571999999ADDMA1999999075001ME1430269REMSYN060AAXX  09054 06717 43/// /2912 11056 21057 37500 47026 5////;
0218067170999992011010906004+45867+007167FM-12+247999999V0202801N005710003019N0003001N1-00591-00621999999ADDAL10600091AY141061AY201061GA1091+999999999GF109991091999999999999999GJ100009IA1239MA1999999074991ME1430249MW1491REMSYN094AAXX  09064 06717 41/03 92811 11059 21062 37499 47024 5//// 74940 333 47/// 55000 90768 93100;
0096067170999992011010907004+45867+007167FM-12+247999999V0203001N006219999999N9999999N1-00591-00651999999ADDMA1999999075001ME1430259REMSYN060AAXX  09074 06717 43/// /3012 11059 21065 37500 47025 5////;
0118067170999992011010908004+45867+007167FM-12+247999999V0203101N006219999999N9999999N1-00601-00621999999ADDMA1999999075011ME1430269REMSYN082AAXX  09084 06717 23/// /3112 11060 21062 37501 47026 5//// 333 553// 20014 69985;
0118067170999992011010909004+45867+007167FM-12+247999999V0203001N009319999999N9999999N1-00561-00561999999ADDMA1999999074991ME1430259REMSYN082AAXX  09094 06717 23/// /3018 11056 21056 37499 47025 5//// 333 553// 20288 60025;
0155067170999992011010910004+45867+007167FM-12+247999999V0203101N004119999999N9999999N1-00551-00661999999ADDMA1999999075041MD1210041+9999ME1430309OA149901441REMSYN094AAXX  09104 06717 23/// /3108 11055 21066 37504 47030 52004 333 55300 20396 60025 91128 91218;
0155067170999992011010911004+45867+007167FM-12+247999999V0203001N003619999999N9999999N1-00521-00651999999ADDMA1999999075011MD1010001+9999ME1430289OA149901241REMSYN094AAXX  09114 06717 23/// /3007 11052 21065 37501 47028 50000 333 55300 20490 60025 91124 91214;
0242067170999992011010912004+45867+007167FM-12+247999999V0203101N004110003019N0003001N1-00531-00591999999ADDAA106007991AY171061AY241061GA1091+999999999GF109991091999999999999999MA1999999074961MD1810031+9999ME1430229MW1491OA149901441REMSYN106AAXX  09124 06717 01/03 93108 11053 21059 37496 47022 58003 60081 74974 333 55300 20698 60015 91128 91218;
0155067170999992011010913004+45867+007167FM-12+247999999V0203201N003619999999N9999999N1-00501-00561999999ADDMA1999999074931MD1710111+9999ME1430209OA149900721REMSYN094AAXX  09134 06717 23/// /3207 11050 21056 37493 47020 57011 333 55300 20536 60025 91114 91210;
0096067170999992011010914004+45867+007167FM-12+247999999V0203201N005119999999N9999999N1-00511-00511999999ADDMA1999999074921ME1430189REMSYN060AAXX  09144 06717 43/// /3210 11051 21051 37492 47018 5////;
0096067170999992011010915004+45867+007167FM-12+247999999V0203501N004119999999N9999999N1-00511-00591999999ADDMA1999999074911ME1430179REMSYN060AAXX  09154 06717 43/// /3508 11051 21059 37491 47017 5////;
0155067170999992011010916004+45867+007167FM-12+247999999V0203401N004119999999N9999999N1-00511-00641999999ADDMA1999999074911MD1710021+9999ME1430179OA149900981REMSYN094AAXX  09164 06717 23/// /3408 11051 21064 37491 47017 57002 333 55300 20097 69975 91119 91210;
0155067170999992011010917004+45867+007167FM-12+247999999V0202801N003619999999N9999999N1-00491-00601999999ADDMA1999999074901MD1710021+9999ME1430179OA149900981REMSYN094AAXX  09174 06717 23/// /2807 11049 21060 37490 47017 57002 333 55300 20000 60015 91119 91210;
0323067170999992011010918004+45867+007167FM-12+247999999V0203201N00511003301CN0040001N1-00501-00601999999ADDAA112014091AL11202091AY171061AY241061GA1021+000151071GA2061+003301071GF108991999999000251999999IA1239KA1120M-00481MA1999999074911MD1010001+9999ME1430189MW1721OA149901441REMSYN142AAXX  09184 06717 01040 83210 11050 21060 37491 47018 50000 60142 77274 333 11048 47/// 55300 20000 69955 82700 86711 90766 93120 91128 91218;
0155067170999992011010919004+45867+007167FM-12+247999999V0203301N006219999999N9999999N1-00491-00611999999ADDMA1999999074901MD1710011+9999ME1430179OA149900931REMSYN094AAXX  09194 06717 23/// /3312 11049 21061 37490 47017 57001 333 55300 20000 60015 91118 91212;
0155067170999992011010920004+45867+007167FM-12+247999999V0203001N004619999999N9999999N1-00521-00591999999ADDMA1999999074921MD1210021+9999ME1430189OA149900931REMSYN094AAXX  09204 06717 23/// /3009 11052 21059 37492 47018 52002 333 55300 20000 69965 91118 91213;
0155067170999992011010921004+45867+007167FM-12+247999999V0202901N004119999999N9999999N1-00521-00601999999ADDMA1999999074931MD1210021+9999ME1430199OA149900981REMSYN094AAXX  09214 06717 23/// /2908 11052 21060 37493 47019 52002 333 55300 20000 69965 91119 91213;
0155067170999992011010922004+45867+007167FM-12+247999999V0202901N002619999999N9999999N1-00491-00571999999ADDMA1999999074951MD1210051+9999ME1430229OA149900821REMSYN094AAXX  09224 06717 23/// /2905 11049 21057 37495 47022 52005 333 55300 20000 60025 91116 91213;
0155067170999992011010923004+45867+007167FM-12+247999999V0203001N003119999999N9999999N1-00491-00611999999ADDMA1999999074951MD1010031+9999ME1430229OA149900821REMSYN094AAXX  09234 06717 23/// /3006 11049 21061 37495 47022 50003 333 55300 20000 60015 91116 91213;
0172067170999992011011000004+45867+007167FM-12+247999999V0202901N002619999999N9999999N1-00481-00601999999ADDAA106006191MA1999999074951MD1210021+9999ME1430229OA149900981REMSYN100AAXX  10004 06717 03/// /2905 11048 21060 37495 47022 52002 60061 333 55300 20000 69995 91119 91213;
0155067170999992011011001004+45867+007167FM-12+247999999V0202801N002619999999N9999999N1-00511-00591999999ADDMA1999999074951MD1410001+9999ME1430229OA149900511REMSYN094AAXX  10014 06717 23/// /2805 11051 21059 37495 47022 54000 333 55300 20000 69935 91110 91206;
0112067170999992011011002004+45867+007167FM-12+247999999V0202701N002619999999N9999999N1-00591-00671999999ADDMA1999999074951ME1430209REMSYN076AAXX  10024 06717 33/// /2705 11059 21067 37495 47020 5//// 333 553// 20000;
0096067170999992011011003004+45867+007167FM-12+247999999V0202801N002619999999N9999999N1-00541-00591999999ADDMA1999999074941ME1430209REMSYN060AAXX  10034 06717 43/// /2805 11054 21059 37494 47020 5////;
0112067170999992011011004004+45867+007167FM-12+247999999V0202901N003619999999N9999999N1-00511-00591999999ADDMA1999999074921ME1430189REMSYN076AAXX  10044 06717 33/// /2907 11051 21059 37492 47018 5//// 333 553// 20000;
0149067170999992011011005004+45867+007167FM-12+247999999V0202901N003119999999N9999999N1-00541-00631999999ADDMA1999999074911MD1719999+9999ME1430179OA149900461REMSYN088AAXX  10054 06717 33/// /2906 11054 21063 37491 47017 57/// 333 55300 20000 91109 91207;
0212067170999992011011006004+45867+007167FM-12+247999999V0202801N003119999999N0600001N1-00561-00661999999ADDAA124020691AL14202091AY171061AY241061GJ100009IA1239KA1999N-00611MA1999999074911ME1430169MW1011REMSYN106AAXX  10064 06717 41/86 /2806 11056 21066 37491 47016 5//// 70174 333 21061 47/// 55000 70207 90768 93109;
0149067170999992011011007004+45867+007167FM-12+247999999V0202801N003119999999N9999999N1-00591-00701999999ADDMA1999999074911MD1410001+9999ME1430169OA149900511REMSYN088AAXX  10074 06717 33/// /2806 11059 21070 37491 47016 54001 333 55300 20000 91110 91207;
0096067170999992011011008004+45867+007167FM-12+247999999V0200801N003619999999N9999999N1-00591-00631999999ADDMA1999999074931ME1430189REMSYN060AAXX  10084 06717 43/// /0807 11059 21063 37493 47018 5////;
0096067170999992011011009004+45867+007167FM-12+247999999V0201201N001519999999N9999999N1-00571-00571999999ADDMA1999999074951ME1430209REMSYN060AAXX  10094 06717 43/// /1203 11057 21057 37495 47020 5////;
0149067170999992011011010004+45867+007167FM-12+247999999V0202701N003119999999N9999999N1-00481-00661999999ADDMA1999999074941MD1210031+9999ME1430219OA149900411REMSYN088AAXX  10104 06717 33/// /2706 11048 21066 37494 47021 52003 333 55300 20619 91108 91206;
0149067170999992011011011004+45867+007167FM-12+247999999V0202801N000519999999N9999999N1-00581-00591999999ADDMA1999999074941MD1019999+9999ME1430199OA149900461REMSYN088AAXX  10114 06717 33/// /2801 11058 21059 37494 47019 50/// 333 55300 20936 91109 91207;
0194067170999992011011012004+45867+007167FM-12+247999999V0203001N000519999999N0750001N1-00541-00581999999ADDAY141061AY221061GA1011+005401071GF107991999999004501999999MA1999999074921ME1430189MW1011REMSYN094AAXX  10124 06717 31489 73001 11054 21058 37492 47018 5//// 70142 333 553// 2//// 81718 86634;
0096067170999992011011013004+45867+007167FM-12+247999999V0202801N003619999999N9999999N1-00531-00551999999ADDMA1999999074861ME1430129REMSYN060AAXX  10134 06717 43/// /2807 11053 21055 37486 47012 5////;
0096067170999992011011014004+45867+007167FM-12+247999999V0202901N004619999999N9999999N1-00531-00551999999ADDMA1999999074841ME1430109REMSYN060AAXX  10144 06717 43/// /2909 11053 21055 37484 47010 5////;
0096067170999992011011015004+45867+007167FM-12+247999999V0202801N004119999999N9999999N1-00531-00581999999ADDMA1999999074841ME1430109REMSYN060AAXX  10154 06717 43/// /2808 11053 21058 37484 47010 5////;
0096067170999992011011016004+45867+007167FM-12+247999999V0202701N002619999999N9999999N1-00541-00611999999ADDMA1999999074861ME1430129REMSYN060AAXX  10164 06717 43/// /2705 11054 21061 37486 47012 5////;
0096067170999992011011017004+45867+007167FM-12+247999999V0202701N004619999999N9999999N1-00551-00681999999ADDMA1999999074831ME1430089REMSYN060AAXX  10174 06717 43/// /2709 11055 21068 37483 47008 5////;
0223067170999992011011018004+45867+007167FM-12+247999999V0202801N004110003019N0004001N1-00571-00591999999ADDAL10600091AY141061AY221061GA1091+999999999GF109991091999999999999999IA1239KA1120M-00451MA1999999074841ME1430099MW1491REMSYN094AAXX  10184 06717 41/04 92808 11057 21059 37484 47009 5//// 74942 333 11045 47/// 90766 93100;
0096067170999992011011019004+45867+007167FM-12+247999999V0202901N002119999999N9999999N1-00581-00581999999ADDMA1999999074841ME1430099REMSYN060AAXX  10194 06717 43/// /2904 11058 21058 37484 47009 5////;
0096067170999992011011020004+45867+007167FM-12+247999999V0202801N003119999999N9999999N1-00581-00691999999ADDMA1999999074831ME1430089REMSYN060AAXX  10204 06717 43/// /2806 11058 21069 37483 47008 5////;
0096067170999992011011021004+45867+007167FM-12+247999999V0202801N002619999999N9999999N1-00571-00781999999ADDMA1999999074841ME1430099REMSYN060AAXX  10214 06717 43/// /2805 11057 21078 37484 47009 5////;
0096067170999992011011022004+45867+007167FM-12+247999999V0202901N003119999999N9999999N1-00611-00701999999ADDMA1999999074831ME1430079REMSYN060AAXX  10224 06717 43/// /2906 11061 21070 37483 47007 5////;
0096067170999992011011023004+45867+007167FM-12+247999999V0202801N002619999999N9999999N1-00661-00731999999ADDMA1999999074811ME1430049REMSYN060AAXX  10234 06717 43/// /2805 11066 21073 37481 47004 5////;
0096067170999992011011100004+45867+007167FM-12+247999999V0202901N003619999999N9999999N1-00651-00751999999ADDMA1999999074771ME1430009REMSYN060AAXX  11004 06717 43/// /2907 11065 21075 37477 47000 5////;
0096067170999992011011101004+45867+007167FM-12+247999999V0203001N007219999999N9999999N1-00671-00871999999ADDMA1999999074691ME1429919REMSYN060AAXX  11014 06717 43/// /3014 11067 21087 37469 47991 5////;
0096067170999992011011102004+45867+007167FM-12+247999999V0203001N005119999999N9999999N1-00711-00921999999ADDMA1999999074671ME1429899REMSYN060AAXX  11024 06717 43/// /3010 11071 21092 37467 47989 5////;
0096067170999992011011103004+45867+007167FM-12+247999999V0202601N004619999999N9999999N1-00751-01031999999ADDMA1999999074651ME1429869REMSYN060AAXX  11034 06717 43/// /2609 11075 21103 37465 47986 5////;
0096067170999992011011104004+45867+007167FM-12+247999999V0202801N003119999999N9999999N1-00791-01121999999ADDMA1999999074621ME1429829REMSYN060AAXX  11044 06717 43/// /2806 11079 21112 37462 47982 5////;
0096067170999992011011105004+45867+007167FM-12+247999999V0202701N003119999999N9999999N1-00751-01141999999ADDMA1999999074581ME1429799REMSYN060AAXX  11054 06717 43/// /2706 11075 21114 37458 47979 5////;
0202067170999992011011106004+45867+007167FM-12+247999999V0202801N002612200019N0750001N1-00831-01501999999ADDAL10600091GA1001+999999999GF100991001001999999001001GJ100309IA1239MA1999999074571ME1429769MW1021REMSYN094AAXX  11064 06717 41/89 02805 11083 21150 37457 47976 5//// 702// 333 47/// 55005 90768 93100;
0149067170999992011011107004+45867+007167FM-12+247999999V0202801N005119999999N9999999N1-00721-01451999999ADDMA1999999074551MD1719999+9999ME1429769OA149900721REMSYN088AAXX  11074 06717 33/// /2810 11072 21145 37455 47976 57/// 333 55300 20000 91114 91210;
0112067170999992011011108004+45867+007167FM-12+247999999V0202601N003119999999N9999999N1-00801-01441999999ADDMA1999999074551ME1429759REMSYN076AAXX  11084 06717 33/// /2606 11080 21144 37455 47975 5//// 333 553// 20022;
0096067170999992011011109004+45867+007167FM-12+247999999V0202701N005119999999N9999999N1-00731-01351999999ADDMA1999999074551ME1429769REMSYN060AAXX  11094 06717 43/// /2710 11073 21135 37455 47976 5////;
0149067170999992011011110004+45867+007167FM-12+247999999V0202701N004619999999N9999999N1-00671-01341999999ADDMA1999999074551MD1010001+9999ME1429779OA149900771REMSYN088AAXX  11104 06717 33/// /2709 11067 21134 37455 47977 50000 333 55300 20472 91115 91210;
0149067170999992011011111004+45867+007167FM-12+247999999V0202601N003619999999N9999999N1-00651-01621999999ADDMA1999999074501MD1710051+9999ME1429729OA149900671REMSYN088AAXX  11114 06717 33/// /2607 11065 21162 37450 47972 57005 333 55300 20734 91113 91209;
0144067170999992011011112004+45867+007167FM-12+247999999V0202701N003619999999N0750001N1-00591-01191999999ADDGF108991999999008001999999MA1999999074451ME1429689REMSYN082AAXX  11124 06717 32589 82707 11059 21119 37445 47968 5//// 333 553// 2//// 88731;
0149067170999992011011113004+45867+007167FM-12+247999999V0202701N004619999999N9999999N1-00721-00881999999ADDMA1999999074381MD1810171+9999ME1429589OA149901031REMSYN088AAXX  11134 06717 33/// /2709 11072 21088 37438 47958 58017 333 55300 20853 91120 91209;
0096067170999992011011114004+45867+007167FM-12+247999999V0202801N005119999999N9999999N1-00731-00891999999ADDMA1999999074341ME1429549REMSYN060AAXX  11144 06717 43/// /2810 11073 21089 37434 47954 5////;
0096067170999992011011115004+45867+007167FM-12+247999999V0202601N002119999999N9999999N1-00731-00861999999ADDMA1999999074371ME1429579REMSYN060AAXX  11154 06717 43/// /2604 11073 21086 37437 47957 5////;
0155067170999992011011116004+45867+007167FM-12+247999999V0201001N000519999999N9999999N1-00671-00861999999ADDMA1999999074361MD1510021+9999ME1429579OA149900621REMSYN094AAXX  11164 06717 23/// /1001 11067 21086 37436 47957 55002 333 55300 20169 69925 91112 91210;
0155067170999992011011117004+45867+007167FM-12+247999999V0201101N005719999999N9999999N1-00721-00841999999ADDMA1999999074431MD1210081+9999ME1429649OA149900571REMSYN094AAXX  11174 06717 23/// /1111 11072 21084 37443 47964 52008 333 55300 20022 60025 91111 91211;
0323067170999992011011118004+45867+007167FM-12+247999999V0201201N005719999999N0060001N1-00711-00781999999ADDAA112004191AL11200891AY171061AY241061GA1011+000151071GA2031+002701071GF107991999999000251999999IA1239KA1120M-00531MA1999999074471MD1210101+9999ME1429689MW1701OA149901241REMSYN142AAXX  11184 06717 01056 71211 11071 21078 37447 47968 52010 60042 77074 333 11053 47/// 55300 20000 60015 81700 83709 90766 93108 91124 91214;
0149067170999992011011119004+45867+007167FM-12+247999999V0201201N003119999999N9999999N1-00671-00901999999ADDMA1999999074531MD1310171+9999ME1429759OA149901241REMSYN088AAXX  11194 06717 33/// /1206 11067 21090 37453 47975 53017 333 55300 20000 91124 91214;
0155067170999992011011120004+45867+007167FM-12+247999999V0201201N007719999999N9999999N1-00711-00711999999ADDMA1999999074541MD1210111+9999ME1429759OA149901241REMSYN094AAXX  11204 06717 23/// /1215 11071 21071 37454 47975 52011 333 55300 20000 69915 91124 91215;
0149067170999992011011121004+45867+007167FM-12+247999999V0201101N006719999999N9999999N1-00701-00711999999ADDMA1999999074611MD1210141+9999ME1429839OA149901601REMSYN088AAXX  11214 06717 33/// /1113 11070 21071 37461 47983 52014 333 55300 20000 91131 91217;
0155067170999992011011122004+45867+007167FM-12+247999999V0201001N009819999999N9999999N1-00721-00721999999ADDMA1999999074681MD1210151+9999ME1429899OA149901601REMSYN094AAXX  11224 06717 23/// /1019 11072 21072 37468 47989 52015 333 55300 20000 69985 91131 91219;
0132067170999992011011123004+45867+007167FM-12+247999999V02099999999999999999N9999999N1-00681-00681999999ADDMA1999999074771MD1310231+9999ME1430009REMSYN082AAXX  11234 06717 23/// ///// 11068 21068 37477 47000 53023 333 55300 20000 60035;
0149067170999992011011200004+45867+007167FM-12+247999999V02099999999999999999N9999999N1-00711-00711999999ADDAA106004191MA1999999074831MD1210221+9999ME1430059REMSYN088AAXX  12004 06717 03/// /09// 11071 21071 37483 47005 52022 60041 333 55300 20000 69965;
0126067170999992011011201004+45867+007167FM-12+247999999V02099999999999999999N9999999N1-00721-00731999999ADDMA1999999074851MD1210171+9999ME1430079REMSYN076AAXX  12014 06717 33/// ///// 11072 21073 37485 47007 52017 333 55300 20000;
0118067170999992011011202004+45867+007167FM-12+247999999V02099999999999999999N9999999N1-00731-00731999999ADDMA1999999074911ME1430139REMSYN082AAXX  12024 06717 23/// ///// 11073 21073 37491 47013 5//// 333 553// 20000 69955;
0096067170999992011011203004+45867+007167FM-12+247999999V02099999999999999999N9999999N1-00721-00731999999ADDMA1999999074951ME1430179REMSYN060AAXX  12034 06717 43/// ///// 11072 21073 37495 47017 5////;
0096067170999992011011204004+45867+007167FM-12+247999999V02099999999999999999N9999999N1-00731-00761999999ADDMA1999999075001ME1430229REMSYN060AAXX  12044 06717 43/// ///// 11073 21076 37500 47022 5////;
0118067170999992011011205004+45867+007167FM-12+247999999V02099999999999999999N9999999N1-00771-00781999999ADDMA1999999075031ME1430249REMSYN082AAXX  12054 06717 23/// /09// 11077 21078 37503 47024 5//// 333 553// 20000 69925;
0254067170999992011011206004+45867+007167FM-12+247999999V02099999999990001519N0001001N1-00761-00781999999ADDAA124008991AL14800891AY171061AY241061GA1091+999999999GF109991091999999999999999GJ100009IA1239KA1999N-00781MA1999999075081ME1430309MW1491REMSYN106AAXX  12064 06717 41/01 9//// 11076 21078 37508 47030 5//// 74974 333 21078 47/// 55000 70088 90768 93107;
0126067170999992011011207004+45867+007167FM-12+247999999V02099999999999999999N9999999N1-00751-00841999999ADDMA1999999075101MD1210101+9999ME1430329REMSYN076AAXX  12074 06717 33/// ///// 11075 21084 37510 47032 52010 333 55300 20000;
0096067170999992011011208004+45867+007167FM-12+247999999V0201401N012319999999N9999999N1-00601-01551999999ADDMA1999999075121ME1430379REMSYN060AAXX  12084 06717 43/// /1424 11060 21155 37512 47037 5////;
0096067170999992011011209004+45867+007167FM-12+247999999V0201201N009319999999N9999999N1-00631-00891999999ADDMA1999999075201ME1430459REMSYN060AAXX  12094 06717 43/// /1218 11063 21089 37520 47045 5////;
0149067170999992011011210004+45867+007167FM-12+247999999V0201101N007719999999N9999999N1-00361-01191999999ADDMA1999999075261MD1119999+9999ME1430579OA149901701REMSYN088AAXX  12104 06717 33/// /1115 11036 21119 37526 47057 51/// 333 55300 20518 91133 91221;
0126067170999992011011211004+45867+007167FM-12+247999999V0201001N009819999999N9999999N1-00341-00901999999ADDMA1999999075261MD1210141+9999ME1430579REMSYN076AAXX  12114 06717 33/// /1019 11034 21090 37526 47057 52014 333 55300 2////;
0176067170999992011011212004+45867+007167FM-12+247999999V0201001N010810114019N0450001N1-00281-00901999999ADDAY141061AY231061GA1061+011401041GF107991999999012501999999MA1999999075241ME1430579MW1021REMSYN076AAXX  12124 06717 41683 71021 11028 21090 37524 47057 5//// 70243 333 86438;
0096067170999992011011213004+45867+007167FM-12+247999999V0201201N010819999999N9999999N1-00461-00811999999ADDMA1999999075231ME1430529REMSYN060AAXX  12134 06717 43/// /1221 11046 21081 37523 47052 5////;
0096067170999992011011214004+45867+007167FM-12+247999999V0201101N008719999999N9999999N1-00471-01201999999ADDMA1999999075271ME1430569REMSYN060AAXX  12144 06717 43/// /1117 11047 21120 37527 47056 5////;
0096067170999992011011215004+45867+007167FM-12+247999999V0201201N008719999999N9999999N1-00461-00531999999ADDMA1999999075311ME1430609REMSYN060AAXX  12154 06717 43/// /1217 11046 21053 37531 47060 5////;
0155067170999992011011216004+45867+007167FM-12+247999999V0201201N012319999999N9999999N1-00201-00201999999ADDMA1999999075331MD1210101+9999ME1430689OA149901961REMSYN094AAXX  12164 06717 23/// /1224 11020 21020 37533 47068 52010 333 55300 20194 69925 91138 91224;
0155067170999992011011217004+45867+007167FM-12+247999999V0201101N010819999999N9999999N1-00201-00201999999ADDMA1999999075381MD1210111+9999ME1430739OA149901961REMSYN094AAXX  12174 06717 23/// /1121 11020 21020 37538 47073 52011 333 55300 20014 69915 91138 91225;
0262067170999992011011218004+45867+007167FM-12+247999999V0201201N010810001519N0001001N1-00241-00241999999ADDAA112000891AY171061AY241061GA1091+999999999GF109991091999999999999999IA1239KA1120M-00171MA1999999075371MD1210061+9999ME1430719MW1701REMSYN118AAXX  12184 06717 01/01 91221 11024 21024 37537 47071 52006 69982 77074 333 11017 47/// 55300 20000 60005 90766 93101;
0155067170999992011011219004+45867+007167FM-12+247999999V0201101N009319999999N9999999N1-00191-00191999999ADDMA1999999075421MD1210091+9999ME1430779OA149901801REMSYN094AAXX  12194 06717 23/// /1118 11019 21019 37542 47077 52009 333 55300 20000 69945 91135 91222;
0155067170999992011011220004+45867+007167FM-12+247999999V0201001N010319999999N9999999N1-00231-00231999999ADDMA1999999075451MD1210071+9999ME1430799OA149901801REMSYN094AAXX  12204 06717 23/// /1020 11023 21023 37545 47079 52007 333 55300 20000 69955 91135 91223;
0155067170999992011011221004+45867+007167FM-12+247999999V0201001N011319999999N9999999N1-00221-00221999999ADDMA1999999075461MD1110091+9999ME1430819OA149901961REMSYN094AAXX  12214 06717 23/// /1022 11022 21022 37546 47081 51009 333 55300 20000 69915 91138 91225;
0155067170999992011011222004+45867+007167FM-12+247999999V0201101N010819999999N9999999N1-00191-00191999999ADDMA1999999075471MD1210051+9999ME1430829OA149901701REMSYN094AAXX  12224 06717 23/// /1121 11019 21019 37547 47082 52005 333 55300 20000 69925 91133 91222;
0155067170999992011011223004+45867+007167FM-12+247999999V0201101N009819999999N9999999N1-00211-00211999999ADDMA1999999075481MD1210031+9999ME1430839OA149901901REMSYN094AAXX  12234 06717 23/// /1119 11021 21021 37548 47083 52003 333 55300 20000 69925 91137 91222;
0172067170999992011011300004+45867+007167FM-12+247999999V0201001N008719999999N9999999N1-00211-00211999999ADDAA106002091MA1999999075471MD1210011+9999ME1430829OA149901961REMSYN100AAXX  13004 06717 03/// /1017 11021 21021 37547 47082 52001 60021 333 55300 20000 69915 91138 91225;
0155067170999992011011301004+45867+007167FM-12+247999999V0201101N009819999999N9999999N1-00211-00211999999ADDMA1999999075441MD1710031+9999ME1430799OA149901541REMSYN094AAXX  13014 06717 23/// /1119 11021 21021 37544 47079 57003 333 55300 20000 69915 91130 91220;
0155067170999992011011302004+45867+007167FM-12+247999999V0201101N011319999999N9999999N1-00161-00181999999ADDMA1999999075431MD1719999+9999ME1430799OA149901541REMSYN094AAXX  13024 06717 23/// /1122 11016 21018 37543 47079 57/// 333 55300 20000 69955 91130 91222;
0096067170999992011011303004+45867+007167FM-12+247999999V0201101N013419999999N9999999N1-00151-00151999999ADDMA1999999075441ME1430809REMSYN060AAXX  13034 06717 43/// /1126 11015 21015 37544 47080 5////;
0155067170999992011011304004+45867+007167FM-12+247999999V0201201N012319999999N9999999N1-00101-00101999999ADDMA1999999075431MD1019999+9999ME1430809OA149901901REMSYN094AAXX  13044 06717 23/// /1224 11010 21010 37543 47080 50/// 333 55300 20000 69935 91137 91226;
0118067170999992011011305004+45867+007167FM-12+247999999V0201101N012919999999N9999999N1-00081-00081999999ADDMA1999999075401ME1430789REMSYN082AAXX  13054 06717 23/// /1125 11008 21008 37540 47078 5//// 333 553// 20000 69925;
0331067170999992011011306004+45867+007167FM-12+247999999V0201001N01341000151CN0030001N1-00101-00131999999ADDAA112004191AL19900591AL29900191AY171061AY241061GA1051+000151071GF106991999999000251999999GJ100969IA1279KA1999N-00281MA1999999075421MD1710021+9999ME1430799MW1281OA149902631REMSYN148AAXX  13064 06717 01030 61026 11010 21013 37542 47079 57002 60042 72874 333 21028 43/// 55016 55300 20000 69935 70050 85700 90768 93101 91151 91227;
0096067170999992011011307004+45867+007167FM-12+247999999V0201101N011319999999N9999999N1-00081-00081999999ADDMA1999999075471ME1430859REMSYN060AAXX  13074 06717 43/// /1122 11008 21008 37547 47085 5////;
0096067170999992011011308004+45867+007167FM-12+247999999V0201101N011319999999N9999999N1-00101-00101999999ADDMA1999999075491ME1430879REMSYN060AAXX  13084 06717 43/// /1122 11010 21010 37549 47087 5////;
0096067170999992011011309004+45867+007167FM-12+247999999V0201101N012319999999N9999999N1-00091-00111999999ADDMA1999999075511ME1430899REMSYN060AAXX  13094 06717 43/// /1124 11009 21011 37551 47089 5////;
0096067170999992011011310004+45867+007167FM-12+247999999V0201301N010319999999N9999999N1-00051-00191999999ADDMA1999999075521ME1430919REMSYN060AAXX  13104 06717 43/// /1320 11005 21019 37552 47091 5////;
0096067170999992011011311004+45867+007167FM-12+247999999V0201101N009819999999N9999999N1-00101-00101999999ADDMA1999999075511ME1430899REMSYN060AAXX  13114 06717 43/// /1119 11010 21010 37551 47089 5////;
0176067170999992011011312004+45867+007167FM-12+247999999V0201101N010310001519N0001001N1-00151-00151999999ADDAY141061AY211061GA1061+000151071GF107991999999000251999999MA1999999075491ME1430859MW1461REMSYN076AAXX  13124 06717 41001 71120 11015 21015 37549 47085 5//// 74641 333 86700;
0096067170999992011011313004+45867+007167FM-12+247999999V0201101N009819999999N9999999N1-00151-00161999999ADDMA1999999075471ME1430839REMSYN060AAXX  13134 06717 43/// /1119 11015 21016 37547 47083 5////;
0096067170999992011011314004+45867+007167FM-12+247999999V0201301N010319999999N9999999N1-00031-00501999999ADDMA1999999075441ME1430839REMSYN060AAXX  13144 06717 43/// /1320 11003 21050 37544 47083 5////;
0096067170999992011011315004+45867+007167FM-12+247999999V0201201N010319999999N9999999N1-00191-00231999999ADDMA1999999075451ME1430809REMSYN060AAXX  13154 06717 43/// /1220 11019 21023 37545 47080 5////;
0096067170999992011011316004+45867+007167FM-12+247999999V0201101N009319999999N9999999N1-00201-00221999999ADDMA1999999075491ME1430849REMSYN060AAXX  13164 06717 43/// /1118 11020 21022 37549 47084 5////;
0149067170999992011011317004+45867+007167FM-12+247999999V0201201N007719999999N9999999N1-00171-00241999999ADDMA1999999075511MD1210071+9999ME1430879OA149901491REMSYN088AAXX  13174 06717 33/// /1215 11017 21024 37551 47087 52007 333 55300 20000 91129 91219;
0301067170999992011011318004+45867+007167FM-12+247999999V0201301N00771000151CN0003001N1-00081-00301999999ADDAA112000591AL19900091AY141061AY211061GA1061+000151071GF107991999999000251999999IA1279KA1120M+00041MA1999999075511MD1210051+9999ME1430899MW1461OA149902111REMSYN136AAXX  13184 06717 01003 71315 11008 21030 37551 47089 52005 69942 74641 333 10004 43/// 55300 20000 60005 86700 90766 93100 91141 91226;
0149067170999992011011319004+45867+007167FM-12+247999999V0201301N006219999999N9999999N1-00101-00261999999ADDMA1999999075531MD1210041+9999ME1430919OA149901391REMSYN088AAXX  13194 06717 33/// /1312 11010 21026 37553 47091 52004 333 55300 20000 91127 91217;
0149067170999992011011320004+45867+007167FM-12+247999999V0201301N003619999999N9999999N1-00141-00301999999ADDMA1999999075551MD1210041+9999ME1430929OA149901291REMSYN088AAXX  13204 06717 33/// /1307 11014 21030 37555 47092 52004 333 55300 20000 91125 91216;
0149067170999992011011321004+45867+007167FM-12+247999999V0202001N000519999999N9999999N1-00021-00821999999ADDMA1999999075551MD1210041+9999ME1430959OA149901491REMSYN088AAXX  13214 06717 33/// /2001 11002 21082 37555 47095 52004 333 55300 20000 91129 91219;
0149067170999992011011322004+45867+007167FM-12+247999999V0200701N001019999999N9999999N1-00041-01071999999ADDMA1999999075551MD1210021+9999ME1430949OA149900621REMSYN088AAXX  13224 06717 33/// /0702 11004 21107 37555 47094 52002 333 55300 20000 91112 91206;
0149067170999992011011323004+45867+007167FM-12+247999999V0200301N003119999999N9999999N1+00061-01221999999ADDMA1999999075531MD1710021+9999ME1430949OA149900571REMSYN088AAXX  13234 06717 33/// /0306 10006 21122 37553 47094 57002 333 55300 20000 91111 91206;
0149067170999992011011400004+45867+007167FM-12+247999999V0200401N003619999999N9999999N1+00091-01231999999ADDMA1999999075511MD1810041+9999ME1430939OA149902011REMSYN088AAXX  14004 06717 33/// /0407 10009 21123 37551 47093 58004 333 55300 20000 91139 91221;
0149067170999992011011401004+45867+007167FM-12+247999999V0200801N003119999999N9999999N1-00191-01181999999ADDMA1999999075511MD1610041+9999ME1430879OA149900621REMSYN088AAXX  14014 06717 33/// /0806 11019 21118 37551 47087 56004 333 55300 20000 91112 91208;
0112067170999992011011402004+45867+007167FM-12+247999999V0200701N003119999999N9999999N1-00111-01141999999ADDMA1999999075531ME1430919REMSYN076AAXX  14024 06717 33/// /0706 11011 21114 37553 47091 5//// 333 553// 20000;
0149067170999992011011403004+45867+007167FM-12+247999999V0200801N003619999999N9999999N1-00231-01031999999ADDMA1999999075511MD1010001+9999ME1430869OA149900621REMSYN088AAXX  14034 06717 33/// /0807 11023 21103 37551 47086 50000 333 55300 20000 91112 91208;
0149067170999992011011404004+45867+007167FM-12+247999999V0200801N003119999999N9999999N1-00191-01041999999ADDMA1999999075511MD1010001+9999ME1430879OA149900571REMSYN088AAXX  14044 06717 33/// /0806 11019 21104 37551 47087 50000 333 55300 20000 91111 91208;
0149067170999992011011405004+45867+007167FM-12+247999999V0200801N002119999999N9999999N1-00111-01131999999ADDMA1999999075511MD1710021+9999ME1430889OA149900511REMSYN088AAXX  14054 06717 33/// /0804 11011 21113 37551 47088 57002 333 55300 20000 91110 91207;
0264067170999992011011406004+45867+007167FM-12+247999999V0200801N001512200019N0750001N1+00151-01421999999ADDAL19900091GA1001+999999999GF100991001001999999001001GJ100609IA1239KA1999N-00231MA1999999075521MD1210011+9999ME1430959OA149901291REMSYN124AAXX  14064 06717 32/89 00803 10015 21142 37552 47095 52001 333 21023 47/// 55010 55300 20000 70005 90768 93100 91125 91216;
0149067170999992011011407004+45867+007167FM-12+247999999V0200801N001019999999N9999999N1-00011-01361999999ADDMA1999999075551MD1210041+9999ME1430959OA149900361REMSYN088AAXX  14074 06717 33/// /0802 11001 21136 37555 47095 52004 333 55300 20000 91107 91205;
0096067170999992011011408004+45867+007167FM-12+247999999V0200101N000519999999N9999999N1+00041-01431999999ADDMA1999999075561ME1430979REMSYN060AAXX  14084 06717 43/// /0101 10004 21143 37556 47097 5////;
0096067170999992011011409004+45867+007167FM-12+247999999V0202801N001519999999N9999999N1-00061-01271999999ADDMA1999999075591ME1430989REMSYN060AAXX  14094 06717 43/// /2803 11006 21127 37559 47098 5////;
0096067170999992011011410004+45867+007167FM-12+247999999V0202701N002119999999N9999999N1+00021-01331999999ADDMA1999999075591ME1431009REMSYN060AAXX  14104 06717 43/// /2704 10002 21133 37559 47100 5////;
0149067170999992011011411004+45867+007167FM-12+247999999V0202601N002119999999N9999999N1+00111-01351999999ADDMA1999999075571MD1010011+9999ME1431009OA149900411REMSYN088AAXX  14114 06717 33/// /2604 10011 21135 37557 47100 50001 333 55300 20526 91108 91204;
0197067170999992011011412004+45867+007167FM-12+247999999V0202601N00151024001CN0750001N1+00191-01371999999ADDGA1071+024001031GF107991999999022501999999MA1999999075531MD1710061+9999ME1430979OA149900621REMSYN094AAXX  14124 06717 32889 72603 10019 21137 37553 47097 57006 333 55300 20648 87358 91112 91208;
0149067170999992011011413004+45867+007167FM-12+247999999V0202801N001519999999N9999999N1+00281-01531999999ADDMA1999999075501MD1810091+9999ME1430969OA149900361REMSYN088AAXX  14134 06717 33/// /2803 10028 21153 37550 47096 58009 333 553// 2//// 91107 91205;
0112067170999992011011414004+45867+007167FM-12+247999999V0202701N002119999999N9999999N1+00221-01451999999ADDMA1999999075491ME1430949REMSYN076AAXX  14144 06717 33/// /2704 10022 21145 37549 47094 5//// 333 553// 2////;
0149067170999992011011415004+45867+007167FM-12+247999999V0202501N001519999999N9999999N1+00251-01651999999ADDMA1999999075511MD1510021+9999ME1430979OA149900411REMSYN088AAXX  14154 06717 33/// /2503 10025 21165 37551 47097 55002 333 55307 20626 91108 91205;
0149067170999992011011416004+45867+007167FM-12+247999999V0202501N001019999999N9999999N1+00071-01481999999ADDMA1999999075531MD1210031+9999ME1430959OA149900411REMSYN088AAXX  14164 06717 33/// /2502 10007 21148 37553 47095 52003 333 55301 20227 91108 91205;
0149067170999992011011417004+45867+007167FM-12+247999999V0202701N001019999999N9999999N1+00051-01651999999ADDMA1999999075561MD1110071+9999ME1430979OA149900461REMSYN088AAXX  14174 06717 33/// /2702 10005 21165 37556 47097 51007 333 55300 20004 91109 91204;
0250067170999992011011418004+45867+007167FM-12+247999999V0202801N00151024001CN0750001N1+00021-01911999999ADDAL19900091GA1071+024001031GF107991999999022501999999IA1239KA1120M+00281MA1999999075541MD1010031+9999ME1430959OA149900461REMSYN118AAXX  14184 06717 32889 72803 10002 21191 37554 47095 50003 333 10028 47/// 55300 20000 87358 90766 93100 91109 91205;
0149067170999992011011419004+45867+007167FM-12+247999999V0202901N002119999999N9999999N1+00061-01761999999ADDMA1999999075521MD1810011+9999ME1430939OA149900461REMSYN088AAXX  14194 06717 33/// /2904 10006 21176 37552 47093 58001 333 55300 20000 91109 91204;
0149067170999992011011420004+45867+007167FM-12+247999999V0202801N001519999999N9999999N1-00051-01721999999ADDMA1999999075491MD1610071+9999ME1430889OA149900461REMSYN088AAXX  14204 06717 33/// /2803 11005 21172 37549 47088 56007 333 55300 20000 91109 91204;
0149067170999992011011421004+45867+007167FM-12+247999999V0200601N000519999999N9999999N1-00061-01991999999ADDMA1999999075491MD1710051+9999ME1430879OA149900461REMSYN088AAXX  14214 06717 33/// /0601 11006 21199 37549 47087 57005 333 55300 20000 91109 91204;
0149067170999992011011422004+45867+007167FM-12+247999999V0202801N001519999999N9999999N1-00121-02041999999ADDMA1999999075451MD1710071+9999ME1430829OA149900461REMSYN088AAXX  14224 06717 33/// /2803 11012 21204 37545 47082 57007 333 55300 20000 91109 91203;
0149067170999992011011423004+45867+007167FM-12+247999999V0201001N003619999999N9999999N1-00211-01781999999ADDMA1999999075471MD1710021+9999ME1430829OA149900821REMSYN088AAXX  14234 06717 33/// /1007 11021 21178 37547 47082 57002 333 55300 20000 91116 91210;
0149067170999992011011500004+45867+007167FM-12+247999999V0202601N004619999999N9999999N1-00161-01621999999ADDMA1999999075451MD1710041+9999ME1430819OA149901391REMSYN088AAXX  15004 06717 33/// /2609 11016 21162 37545 47081 57004 333 55300 20000 91127 91210;
0149067170999992011011501004+45867+007167FM-12+247999999V0202401N008719999999N9999999N1-00111-01141999999ADDMA1999999075451MD1010001+9999ME1430829OA149901751REMSYN088AAXX  15014 06717 33/// /2417 11011 21114 37545 47082 50000 333 55300 20000 91134 91217;
0149067170999992011011502004+45867+007167FM-12+247999999V0201101N002119999999N9999999N1-00411-00851999999ADDMA1999999075511MD1219999+9999ME1430829OA149902161REMSYN088AAXX  15024 06717 33/// /1104 11041 21085 37551 47082 52/// 333 55300 20000 91142 91217;
0112067170999992011011503004+45867+007167FM-12+247999999V0201301N004619999999N9999999N1-00441-00741999999ADDMA1999999075561ME1430869REMSYN076AAXX  15034 06717 33/// /1309 11044 21074 37556 47086 5//// 333 553// 20000;
0149067170999992011011504004+45867+007167FM-12+247999999V0209999C000019999999N9999999N1-00411-00881999999ADDMA1999999075621MD1210171+9999ME1430939OA149901131REMSYN088AAXX  15044 06717 33/// /0000 11041 21088 37562 47093 52017 333 55300 20000 91122 91211;
0149067170999992011011505004+45867+007167FM-12+247999999V0201301N005119999999N9999999N1-00591-00621999999ADDMA1999999075631MD1210121+9999ME1430909OA149901131REMSYN088AAXX  15054 06717 33/// /1310 11059 21062 37563 47090 52012 333 55300 20000 91122 91210;
0292067170999992011011506004+45867+007167FM-12+247999999V0201301N004110003019N0004001N1-00511-00891999999ADDAL19900091AY141061AY221061GA1091+999999999GF109991091999999999999999GJ101629IA1239KA1999N-00621MA1999999075661MD1210101+9999ME1430959MW1491OA149902161REMSYN130AAXX  15064 06717 31/04 91308 11051 21089 37566 47095 52010 74942 333 21062 47/// 55027 55300 20000 70000 90768 93100 91142 91217;
0149067170999992011011507004+45867+007167FM-12+247999999V0201101N006219999999N9999999N1-00341-01571999999ADDMA1999999075721MD1210101+9999ME1431059OA149901081REMSYN088AAXX  15074 06717 33/// /1112 11034 21157 37572 47105 52010 333 55300 20000 91121 91212;
0149067170999992011011508004+45867+007167FM-12+247999999V0201301N006719999999N9999999N1-00191-01871999999ADDMA1999999075741MD1219999+9999ME1431109OA149901241REMSYN088AAXX  15084 06717 33/// /1313 11019 21187 37574 47110 52/// 333 55300 20032 91124 91213;
0149067170999992011011509004+45867+007167FM-12+247999999V0201501N002619999999N9999999N1-00091-02521999999ADDMA1999999075801MD1310141+9999ME1431199OA149901241REMSYN088AAXX  15094 06717 33/// /1505 11009 21252 37580 47119 53014 333 55300 20108 91124 91213;
0149067170999992011011510004+45867+007167FM-12+247999999V0201501N000519999999N9999999N1+00161-03041999999ADDMA1999999075861MD1310141+9999ME1431319OA149901081REMSYN088AAXX  15104 06717 33/// /1501 10016 21304 37586 47131 53014 333 55300 20173 91121 91212;
0149067170999992011011511004+45867+007167FM-12+247999999V0201501N000519999999N9999999N1+00071-02172999999ADDMA1999999075841MD1210101+9999ME1431279OA149900671REMSYN088AAXX  15114 06717 33/// /1501 10007 21217 37584 47127 52010 333 55300 20238 91113 91205;
0238067170999992011011512004+45867+007167FM-12+247999999V0201401N003112200019N0750001N1+00301-02301999999ADDAY141061AY201061GA1001+999999999GF100991001001999999001001MA1999999075801MD1410001+9999ME1431289MW1011OA149902161REMSYN094AAXX  15124 06717 31/89 01406 10030 21230 37580 47128 58000 70140 333 55300 20266 91142 91217;EQDQ01+000082APCTEN
0112067170999992011011513004+45867+007167FM-12+247999999V0201301N002119999999N9999999N1+00301-01981999999ADDMA1999999075771ME1431259REMSYN076AAXX  15134 06717 33/// /1304 10030 21198 37577 47125 5//// 333 553// 2////;
0096067170999992011011514004+45867+007167FM-12+247999999V0201101N001019999999N9999999N1+00331-01731999999ADDMA1999999075811ME1431309REMSYN060AAXX  15144 06717 43/// /1102 10033 21173 37581 47130 5////;
0096067170999992011011515004+45867+007167FM-12+247999999V0201001N003119999999N9999999N1-00061-01511999999ADDMA1999999075881ME1431289REMSYN060AAXX  15154 06717 43/// /1006 11006 21151 37588 47128 5////;
0096067170999992011011516004+45867+007167FM-12+247999999V0201101N001519999999N9999999N1+00101-01471999999ADDMA1999999075921ME1431369REMSYN060AAXX  15164 06717 43/// /1103 10010 21147 37592 47136 5////;
0112067170999992011011517004+45867+007167FM-12+247999999V0201101N001519999999N9999999N1+00261-01381999999ADDMA1999999075951ME1431439REMSYN076AAXX  15174 06717 33/// /1103 10026 21138 37595 47143 5//// 333 553// 20004;
0195067170999992011011518004+45867+007167FM-12+247999999V0200401N000512200019N0750001N1+00331-01101999999ADDAL10600091GA1001+999999999GF100991001001999999001001IA1239KA1120M+00351MA1999999075991ME1431499REMSYN088AAXX  15184 06717 42/89 00401 10033 21110 37599 47149 5//// 333 10035 47/// 90766 93100;
0096067170999992011011519004+45867+007167FM-12+247999999V0200301N002619999999N9999999N1+00301-01151999999ADDMA1999999076031ME1431539REMSYN060AAXX  15194 06717 43/// /0305 10030 21115 37603 47153 5////;
0096067170999992011011520004+45867+007167FM-12+247999999V0200801N002119999999N9999999N1+00181-01111999999ADDMA1999999076051ME1431529REMSYN060AAXX  15204 06717 43/// /0804 10018 21111 37605 47152 5////;
0149067170999992011011521004+45867+007167FM-12+247999999V0202701N000519999999N9999999N1+00151-00831999999ADDMA1999999076081MD1110091+9999ME1431549OA149900671REMSYN088AAXX  15214 06717 33/// /2701 10015 21083 37608 47154 51009 333 55300 20000 91113 91207;
0149067170999992011011522004+45867+007167FM-12+247999999V0202901N002119999999N9999999N1+00121-00931999999ADDMA1999999076111MD1310081+9999ME1431569OA149900361REMSYN088AAXX  15224 06717 33/// /2904 10012 21093 37611 47156 53008 333 55300 20000 91107 91204;
0149067170999992011011523004+45867+007167FM-12+247999999V0202801N001519999999N9999999N1+00151-00931999999ADDMA1999999076111MD1210061+9999ME1431579OA149900311REMSYN088AAXX  15234 06717 33/// /2803 10015 21093 37611 47157 52006 333 55300 20000 91106 91204;
0149067170999992011011600004+45867+007167FM-12+247999999V0202801N002119999999N9999999N1+00111-00901999999ADDMA1999999076091MD1010011+9999ME1431549OA149900821REMSYN088AAXX  16004 06717 33/// /2804 10011 21090 37609 47154 50001 333 55300 20000 91116 91208;
0149067170999992011011601004+45867+007167FM-12+247999999V0202701N001519999999N9999999N1+00201-00901999999ADDMA1999999076071MD1710041+9999ME1431549OA149900361REMSYN088AAXX  16014 06717 33/// /2703 10020 21090 37607 47154 57004 333 55300 20000 91107 91204;
0149067170999992011011602004+45867+007167FM-12+247999999V0202801N003619999999N9999999N1+00151-00911999999ADDMA1999999076071MD1719999+9999ME1431539OA149900461REMSYN088AAXX  16024 06717 33/// /2807 10015 21091 37607 47153 57/// 333 55300 20000 91109 91207;
0096067170999992011011603004+45867+007167FM-12+247999999V0202901N002119999999N9999999N1+00171-00941999999ADDMA1999999076081ME1431559REMSYN060AAXX  16034 06717 43/// /2904 10017 21094 37608 47155 5////;
0149067170999992011011604004+45867+007167FM-12+247999999V0202601N001019999999N9999999N1+00201-00991999999ADDMA1999999076091MD1210021+9999ME1431569OA149900511REMSYN088AAXX  16044 06717 33/// /2602 10020 21099 37609 47156 52002 333 55300 20000 91110 91208;
0149067170999992011011605004+45867+007167FM-12+247999999V0202601N002619999999N9999999N1+00261-01041999999ADDMA1999999076091MD1210021+9999ME1431589OA149900511REMSYN088AAXX  16054 06717 33/// /2605 10026 21104 37609 47158 52002 333 55300 20000 91110 91205;
0264067170999992011011606004+45867+007167FM-12+247999999V0202701N003112200019N0750001N1+00151-01041999999ADDAL19900091GA1001+999999999GF100991001001999999001001GJ102169IA1239KA1999N+00091MA1999999076111MD1210031+9999ME1431579OA149900511REMSYN124AAXX  16064 06717 32/89 02706 10015 21104 37611 47157 52003 333 20009 47/// 55036 55300 20000 70000 90768 93100 91110 91208;
0149067170999992011011607004+45867+007167FM-12+247999999V0202801N002119999999N9999999N1+00161-01131999999ADDMA1999999076131MD1210041+9999ME1431609OA149900511REMSYN088AAXX  16074 06717 33/// /2804 10016 21113 37613 47160 52004 333 55300 20000 91110 91208;
0149067170999992011011608004+45867+007167FM-12+247999999V0202601N003119999999N9999999N1+00161-01241999999ADDMA1999999076151MD1319999+9999ME1431629OA149900511REMSYN088AAXX  16084 06717 33/// /2606 10016 21124 37615 47162 53/// 333 55300 20036 91110 91208;
0149067170999992011011609004+45867+007167FM-12+247999999V0202801N002619999999N9999999N1+00081-01241999999ADDMA1999999076161MD1210051+9999ME1431619OA149900511REMSYN088AAXX  16094 06717 33/// /2805 10008 21124 37616 47161 52005 333 55300 20108 91110 91208;
0149067170999992011011610004+45867+007167FM-12+247999999V0202801N004119999999N9999999N1+00121-01121999999ADDMA1999999076181MD1210051+9999ME1431649OA149900621REMSYN088AAXX  16104 06717 33/// /2808 10012 21112 37618 47164 52005 333 55300 20166 91112 91209;
0149067170999992011011611004+45867+007167FM-12+247999999V0202801N005119999999N9999999N1+00101-01031999999ADDMA1999999076181MD1210031+9999ME1431639OA149900671REMSYN088AAXX  16114 06717 33/// /2810 10010 21103 37618 47163 52003 333 55300 20230 91113 91210;
0191067170999992011011612004+45867+007167FM-12+247999999V0202801N005712200019N0750001N1+00181-00971999999ADDGA1001+999999999GF100991001001999999001001MA1999999076161MD1010001+9999ME1431639OA149900671REMSYN088AAXX  16124 06717 32/89 02811 10018 21097 37616 47163 50000 333 55301 20349 91113 91211;
0149067170999992011011613004+45867+007167FM-12+247999999V0202701N004619999999N9999999N1+00191-01071999999ADDMA1999999076131MD1810051+9999ME1431609OA149900771REMSYN088AAXX  16134 06717 33/// /2709 10019 21107 37613 47160 58005 333 553// 2//// 91115 91212;
0149067170999992011011614004+45867+007167FM-12+247999999V0202701N004119999999N9999999N1+00121-01011999999ADDMA1999999076111MD1619999+9999ME1431569OA149900771REMSYN088AAXX  16144 06717 33/// /2708 10012 21101 37611 47156 56/// 333 553// 2//// 91115 91212;
0149067170999992011011615004+45867+007167FM-12+247999999V0202801N005719999999N9999999N1+00031-00861999999ADDMA1999999076111MD1610051+9999ME1431549OA149900771REMSYN088AAXX  16154 06717 33/// /2811 10003 21086 37611 47154 56005 333 553// 20911 91115 91212;
0149067170999992011011616004+45867+007167FM-12+247999999V0202701N006219999999N9999999N1-00041-00891999999ADDMA1999999076101MD1610031+9999ME1431519OA149900771REMSYN088AAXX  16164 06717 33/// /2712 11004 21089 37610 47151 56003 333 55307 20310 91115 91213;
0149067170999992011011617004+45867+007167FM-12+247999999V0202801N006219999999N9999999N1+00001-00911999999ADDMA1999999076121MD1210011+9999ME1431549OA149900771REMSYN088AAXX  16174 06717 33/// /2812 10000 21091 37612 47154 52001 333 55300 20004 91115 91213;
0244067170999992011011618004+45867+007167FM-12+247999999V0202801N006212200019N0750001N1-00071-00941999999ADDAL19900091GA1001+999999999GF100991001001999999001001IA1239KA1120M+00291MA1999999076121MD1210011+9999ME1431539OA149900771REMSYN112AAXX  16184 06717 32/89 02812 11007 21094 37612 47153 52001 333 10029 47/// 55300 20000 90766 93100 91115 91213;
0149067170999992011011619004+45867+007167FM-12+247999999V0202701N007219999999N9999999N1-00021-00921999999ADDMA1999999076111MD1010011+9999ME1431539OA149900881REMSYN088AAXX  16194 06717 33/// /2714 11002 21092 37611 47153 50001 333 55300 20000 91117 91214;
0149067170999992011011620004+45867+007167FM-12+247999999V0202701N006219999999N9999999N1-00051-00881999999ADDMA1999999076101MD1810021+9999ME1431519OA149900881REMSYN088AAXX  16204 06717 33/// /2712 11005 21088 37610 47151 58002 333 55300 20000 91117 91214;
0149067170999992011011621004+45867+007167FM-12+247999999V0202601N006219999999N9999999N1-00061-00901999999ADDMA1999999076081MD1810041+9999ME1431499OA149900931REMSYN088AAXX  16214 06717 33/// /2612 11006 21090 37608 47149 58004 333 55300 20000 91118 91214;
0149067170999992011011622004+45867+007167FM-12+247999999V0202701N007219999999N9999999N1-00101-00911999999ADDMA1999999076071MD1810041+9999ME1431479OA149900931REMSYN088AAXX  16224 06717 33/// /2714 11010 21091 37607 47147 58004 333 55300 20000 91118 91214;
0149067170999992011011623004+45867+007167FM-12+247999999V0202801N006719999999N9999999N1-00091-00991999999ADDMA1999999076061MD1610041+9999ME1431469OA149900881REMSYN088AAXX  16234 06717 33/// /2813 11009 21099 37606 47146 56004 333 55300 20000 91117 91215;
0149067170999992011011700004+45867+007167FM-12+247999999V0202801N006719999999N9999999N1-00111-01081999999ADDMA1999999076041MD1810041+9999ME1431439OA149900931REMSYN088AAXX  17004 06717 33/// /2813 11011 21108 37604 47143 58004 333 55300 20000 91118 91215;
0149067170999992011011701004+45867+007167FM-12+247999999V0202701N005119999999N9999999N1-00061-01301999999ADDMA1999999076011MD1810061+9999ME1431429OA149900931REMSYN088AAXX  17014 06717 33/// /2710 11006 21130 37601 47142 58006 333 55300 20000 91118 91214;
0149067170999992011011702004+45867+007167FM-12+247999999V0202701N004119999999N9999999N1-00151-01271999999ADDMA1999999075991MD1619999+9999ME1431379OA149900931REMSYN088AAXX  17024 06717 33/// /2708 11015 21127 37599 47137 56/// 333 55300 20000 91118 91214;
0112067170999992011011703004+45867+007167FM-12+247999999V0202801N003619999999N9999999N1-00161-01321999999ADDMA1999999075961ME1431349REMSYN076AAXX  17034 06717 33/// /2807 11016 21132 37596 47134 5//// 333 553// 20000;
0149067170999992011011704004+45867+007167FM-12+247999999V0202801N002619999999N9999999N1-00161-01371999999ADDMA1999999075921MD1810091+9999ME1431309OA149900511REMSYN088AAXX  17044 06717 33/// /2805 11016 21137 37592 47130 58009 333 55300 20000 91110 91208;
0149067170999992011011705004+45867+007167FM-12+247999999V0202901N002119999999N9999999N1-00141-01461999999ADDMA1999999075901MD1810091+9999ME1431289OA149900411REMSYN088AAXX  17054 06717 33/// /2904 11014 21146 37590 47128 58009 333 55300 20000 91108 91206;
0264067170999992011011706004+45867+007167FM-12+247999999V0202701N001512200019N0750001N1-00151-01491999999ADDAL19900091GA1001+999999999GF100991001001999999001001GJ102289IA1239KA1999N-00201MA1999999075871MD1610091+9999ME1431259OA149900931REMSYN124AAXX  17064 06717 32/89 02703 11015 21149 37587 47125 56009 333 21020 47/// 55038 55300 20000 70000 90768 93100 91118 91215;
0149067170999992011011707004+45867+007167FM-12+247999999V0202701N002619999999N9999999N1-00201-01421999999ADDMA1999999075871MD1610051+9999ME1431249OA149900461REMSYN088AAXX  17074 06717 33/// /2705 11020 21142 37587 47124 56005 333 55300 20000 91109 91207;
0096067170999992011011708004+45867+007167FM-12+247999999V0202801N003119999999N9999999N1-00211-01331999999ADDMA1999999075881ME1431249REMSYN060AAXX  17084 06717 43/// /2806 11021 21133 37588 47124 5////;
0096067170999992011011709004+45867+007167FM-12+247999999V0202801N003619999999N9999999N1-00291-01331999999ADDMA1999999075851ME1431199REMSYN060AAXX  17094 06717 43/// /2807 11029 21133 37585 47119 5////;
0149067170999992011011710004+45867+007167FM-12+247999999V0202801N003119999999N9999999N1-00191-01221999999ADDMA1999999075881MD1210011+9999ME1431259OA149900511REMSYN088AAXX  17104 06717 33/// /2806 11019 21122 37588 47125 52001 333 55300 20169 91110 91208;
0149067170999992011011711004+45867+007167FM-12+247999999V0202701N003119999999N9999999N1-00041-01371999999ADDMA1999999075871MD1710011+9999ME1431289OA149900511REMSYN088AAXX  17114 06717 33/// /2706 11004 21137 37587 47128 57001 333 55300 20234 91110 91208;
0210067170999992011011712004+45867+007167FM-12+247999999V0202601N001012200019N0750001N1+00021-01431999999ADDGA1001+999999999GF100991001001999999001001MA1999999075851MD1410001+9999ME1431279OA149900931REMSYN088AAXX  17124 06717 32/89 02602 10002 21143 37585 47127 58000 333 55303 20565 91118 91214;EQDQ01+000082APCTEN
0149067170999992011011713004+45867+007167FM-12+247999999V0202601N001519999999N9999999N1+00031-01171999999ADDMA1999999075811MD1810071+9999ME1431239OA149900411REMSYN088AAXX  17134 06717 33/// /2603 10003 21117 37581 47123 58007 333 553// 2//// 91108 91207;
0096067170999992011011714004+45867+007167FM-12+247999999V0201001N001519999999N9999999N1-00091-01331999999ADDMA1999999075831ME1431229REMSYN060AAXX  17144 06717 43/// /1003 11009 21133 37583 47122 5////;
0096067170999992011011715004+45867+007167FM-12+247999999V0201001N001519999999N9999999N1-00051-01251999999ADDMA1999999075851ME1431259REMSYN060AAXX  17154 06717 43/// /1003 11005 21125 37585 47125 5////;
0149067170999992011011716004+45867+007167FM-12+247999999V0200601N002619999999N9999999N1-00201-01181999999ADDMA1999999075841MD1210031+9999ME1431219OA149900571REMSYN088AAXX  17164 06717 33/// /0605 11020 21118 37584 47121 52003 333 55307 20360 91111 91206;
0149067170999992011011717004+45867+007167FM-12+247999999V0200801N002119999999N9999999N1-00171-01151999999ADDMA1999999075851MD1210021+9999ME1431229OA149900571REMSYN088AAXX  17174 06717 33/// /0804 11017 21115 37585 47122 52002 333 55300 20004 91111 91206;
