0128067110999992010010100004+46517+006667FM-12+046199999V0200201N001519999999N9999999N1+00451+00321099251ADDMA1999999093871MD1710101+9999OA149900411REMSYN076AAXX  01004 06711 33/// /0203 10045 20032 39387 49925 57010 333 91108 91204;
0128067110999992010010101004+46517+006667FM-12+046199999V0202501N000519999999N9999999N1+00511+00351099181ADDMA1999999093811MD1710141+9999OA149900311REMSYN076AAXX  01014 06711 33/// /2501 10051 20035 39381 49918 57014 333 91106 91204;
0128067110999992010010102004+46517+006667FM-12+046199999V0200201N001019999999N9999999N1+00481+00351099141ADDMA1999999093771MD1719999+9999OA149900311REMSYN076AAXX  01024 06711 33/// /0202 10048 20035 39377 49914 57/// 333 91106 91203;
0087067110999992010010103004+46517+006667FM-12+046199999V0200901N001019999999N9999999N1+00491+00341099081ADDMA1999999093711REMSYN060AAXX  01034 06711 43/// /0902 10049 20034 39371 49908 5////;
0087067110999992010010104004+46517+006667FM-12+046199999V0209999C000019999999N9999999N1+00481+00351099041ADDMA1999999093671REMSYN060AAXX  01044 06711 33/// /0000 10048 20035 39367 49904 5////;
0128067110999992010010105004+46517+006667FM-12+046199999V0203501N000519999999N9999999N1+00511+00401099021ADDMA1999999093661MD1610111+9999OA149900211REMSYN076AAXX  01054 06711 33/// /3501 10051 20040 39366 49902 56011 333 91104 91202;
0188067110999992010010106004+46517+006667FM-12+046199999V0209999C000019999999N9999999N1+00481+00391099011ADDAA124000891AL14800091GJ101209KA1999N+00451MA1999999093651MD1610061+9999OA149900411REMSYN094AAXX  01064 06711 33/// /0000 10048 20039 39365 49901 56006 333 20045 55020 70008 91108 91204;
0128067110999992010010107004+46517+006667FM-12+046199999V0209999C000019999999N9999999N1+00511+00381099011ADDMA1999999093651MD1710021+9999OA149900261REMSYN076AAXX  01074 06711 33/// /0000 10051 20038 39365 49901 57002 333 91105 91203;
0128067110999992010010108004+46517+006667FM-12+046199999V0200601N000519999999N9999999N1+00531+00391099071ADDMA1999999093711MD1310051+9999OA149900261REMSYN076AAXX  01084 06711 33/// /0601 10053 20039 39371 49907 53005 333 91105 91203;
0128067110999992010010109004+46517+006667FM-12+046199999V0209999C000019999999N9999999N1+00571+00401099121ADDMA1999999093771MD1210121+9999OA149900261REMSYN076AAXX  01094 06711 33/// /0000 10057 20040 39377 49912 52012 333 91105 91203;
0128067110999992010010110004+46517+006667FM-12+046199999V0201301N001019999999N9999999N1+00611+00431099191ADDMA1999999093841MD1310191+9999OA149900151REMSYN076AAXX  01104 06711 33/// /1302 10061 20043 39384 49919 53019 333 91103 91202;
0128067110999992010010111004+46517+006667FM-12+046199999V0201801N001019999999N9999999N1+00611+00411099201ADDMA1999999093851MD1210141+9999OA149900211REMSYN076AAXX  01114 06711 33/// /1802 10061 20041 39385 49920 52014 333 91104 91202;
0128067110999992010010112004+46517+006667FM-12+046199999V0209999C000019999999N9999999N1+00631+00431099221ADDMA1999999093871MD1210101+9999OA149900311REMSYN076AAXX  01124 06711 33/// /0000 10063 20043 39387 49922 52010 333 91106 91203;
0128067110999992010010113004+46517+006667FM-12+046199999V0202101N001019999999N9999999N1+00621+00471099271ADDMA1999999093921MD1210081+9999OA149900151REMSYN076AAXX  01134 06711 33/// /2102 10062 20047 39392 49927 52008 333 91103 91202;
0145067110999992010010114004+46517+006667FM-12+046199999V0202601N003119999999N9999999N1+00591+00561099391ADDAA101001091MA1999999094031MD1319999+9999OA149900571REMSYN082AAXX  01144 06711 23/// /2606 10059 20056 39403 49939 53/// 333 60015 91111 91206;
0145067110999992010010115004+46517+006667FM-12+046199999V0203001N001519999999N9999999N1+00461+00291099611ADDAA101003091MA1999999094211MD1310341+9999OA149900671REMSYN082AAXX  01154 06711 23/// /3003 10046 20029 39421 49961 53034 333 60035 91113 91206;
0145067110999992010010116004+46517+006667FM-12+046199999V0203501N002119999999N9999999N1+00411+00201099811ADDAA101000891MA1999999094391MD1310471+9999OA149900671REMSYN082AAXX  01164 06711 23/// /3504 10041 20020 39439 49981 53047 333 69985 91113 91206;
0145067110999992010010117004+46517+006667FM-12+046199999V0202601N001019999999N9999999N1+00381+00191100031ADDAA101000591MA1999999094591MD1210561+9999OA149900571REMSYN082AAXX  01174 06711 23/// /2602 10038 20019 39459 40003 52056 333 69965 91111 91206;
0170067110999992010010118004+46517+006667FM-12+046199999V0202601N001019999999N9999999N1+00361+00211100201ADDAA112007191KA1120M+00631MA1999999094751MD1210541+9999OA149900671REMSYN094AAXX  01184 06711 03/// /2602 10036 20021 39475 40020 52054 60072 333 10063 60025 91113 91206;
0145067110999992010010119004+46517+006667FM-12+046199999V0203301N002619999999N9999999N1+00311-00031100371ADDAA101000591MA1999999094901MD1210511+9999OA149900621REMSYN082AAXX  01194 06711 23/// /3305 10031 21003 39490 40037 52051 333 69955 91112 91205;
0128067110999992010010120004+46517+006667FM-12+046199999V0203601N001519999999N9999999N1+00281-00081100531ADDMA1999999095041MD1210451+9999OA149900621REMSYN076AAXX  01204 06711 33/// /3603 10028 21008 39504 40053 52045 333 91112 91206;
0128067110999992010010121004+46517+006667FM-12+046199999V0203001N002619999999N9999999N1+00281-00161100631ADDMA1999999095141MD1110391+9999OA149900621REMSYN076AAXX  01214 06711 33/// /3005 10028 21016 39514 40063 51039 333 91112 91206;
0128067110999992010010122004+46517+006667FM-12+046199999V0202801N003619999999N9999999N1+00251-00251100721ADDMA1999999095221MD1110321+9999OA149900721REMSYN076AAXX  01224 06711 33/// /2807 10025 21025 39522 40072 51032 333 91114 91207;
0128067110999992010010123004+46517+006667FM-12+046199999V0203301N003119999999N9999999N1+00201-00341100801ADDMA1999999095281MD1110241+9999OA149900721REMSYN076AAXX  01234 06711 33/// /3306 10020 21034 39528 40080 51024 333 91114 91207;
0151067110999992010010200004+46517+006667FM-12+046199999V0203101N002119999999N9999999N1+00181-00381100911ADDAA106000591MA1999999095381MD1310241+9999OA149900721REMSYN088AAXX  02004 06711 03/// /3104 10018 21038 39538 40091 53024 69951 333 60005 91114 91207;
0128067110999992010010201004+46517+006667FM-12+046199999V0203101N001519999999N9999999N1+00111-00461101041ADDMA1999999095491MD1310271+9999OA149900571REMSYN076AAXX  02014 06711 33/// /3103 10011 21046 39549 40104 53027 333 91111 91206;
0087067110999992010010202004+46517+006667FM-12+046199999V0203001N001519999999N9999999N1+00131-00531101181ADDMA1999999095631REMSYN060AAXX  02024 06711 33/// /3003 10013 21053 39563 40118 5////;
0128067110999992010010203004+46517+006667FM-12+046199999V0203301N002619999999N9999999N1+00061-00571101321ADDMA1999999095751MD1210371+9999OA149900721REMSYN076AAXX  02034 06711 33/// /3305 10006 21057 39575 40132 52037 333 91114 91207;
0128067110999992010010204004+46517+006667FM-12+046199999V0203401N003119999999N9999999N1+00011-00601101421ADDMA1999999095831MD1110341+9999OA149900621REMSYN076AAXX  02044 06711 33/// /3406 10001 21060 39583 40142 51034 333 91112 91206;
0128067110999992010010205004+46517+006667FM-12+046199999V0203201N002119999999N9999999N1+00001-00691101451ADDMA1999999095861MD1110231+9999OA149900671REMSYN076AAXX  02054 06711 33/// /3204 10000 21069 39586 40145 51023 333 91113 91206;
0211067110999992010010206004+46517+006667FM-12+046199999V0203101N000519999999N9999999N1-00011-00661101521ADDAA112000591AA224007691AL14200791GJ100069KA1999N-00011MA1999999095921MD1110171+9999OA149900721REMSYN106AAXX  02064 06711 03/// /3101 11001 21066 39592 40152 51017 69952 333 21001 55001 60005 70077 91114 91207;
0128067110999992010010207004+46517+006667FM-12+046199999V0200101N001019999999N9999999N1-00011-00621101591ADDMA1999999095991MD1310161+9999OA149900361REMSYN076AAXX  02074 06711 33/// /0102 11001 21062 39599 40159 53016 333 91107 91204;
0087067110999992010010208004+46517+006667FM-12+046199999V0203601N003619999999N9999999N1-00111-00681101681ADDMA1999999096051REMSYN060AAXX  02084 06711 33/// /3607 11011 21068 39605 40168 5////;
0128067110999992010010209004+46517+006667FM-12+046199999V0203401N003119999999N9999999N1-00141-00831101821ADDMA1999999096181MD1310261+9999OA149900881REMSYN076AAXX  02094 06711 33/// /3406 11014 21083 39618 40182 53026 333 91117 91208;
0128067110999992010010210004+46517+006667FM-12+046199999V0200301N001019999999N9999999N1-00121-00741101931ADDMA1999999096291MD1310301+9999OA149900881REMSYN076AAXX  02104 06711 33/// /0302 11012 21074 39629 40193 53030 333 91117 91208;
0128067110999992010010211004+46517+006667FM-12+046199999V0200701N001019999999N9999999N1+00001-00811101961ADDMA1999999096341MD1110291+9999OA149900511REMSYN076AAXX  02114 06711 33/// /0702 10000 21081 39634 40196 51029 333 91110 91204;
0128067110999992010010212004+46517+006667FM-12+046199999V0200601N002119999999N9999999N1+00031-00871102001ADDMA1999999096381MD1110201+9999OA149900881REMSYN076AAXX  02124 06711 33/// /0604 10003 21087 39638 40200 51020 333 91117 91208;
0128067110999992010010213004+46517+006667FM-12+046199999V0200301N001519999999N9999999N1+00071-00871102021ADDMA1999999096411MD1110121+9999OA149900511REMSYN076AAXX  02134 06711 33/// /0303 10007 21087 39641 40202 51012 333 91110 91205;
0128067110999992010010214004+46517+006667FM-12+046199999V0200401N001019999999N9999999N1+00111-00861102071ADDMA1999999096471MD1319999+9999OA149900511REMSYN076AAXX  02144 06711 33/// /0402 10011 21086 39647 40207 53/// 333 91110 91204;
0128067110999992010010215004+46517+006667FM-12+046199999V0200401N001519999999N9999999N1+00081-00991102171ADDMA1999999096551MD1310171+9999OA149900511REMSYN076AAXX  02154 06711 33/// /0403 10008 21099 39655 40217 53017 333 91110 91205;
0128067110999992010010216004+46517+006667FM-12+046199999V0200201N001519999999N9999999N1-00031-00791102271ADDMA1999999096631MD1310221+9999OA149900511REMSYN076AAXX  02164 06711 33/// /0203 11003 21079 39663 40227 53022 333 91110 91203;
0128067110999992010010217004+46517+006667FM-12+046199999V0200101N002119999999N9999999N1-00151-00841102351ADDMA1999999096681MD1110211+9999OA149900511REMSYN076AAXX  02174 06711 33/// /0104 11015 21084 39668 40235 51021 333 91110 91205;
0147067110999992010010218004+46517+006667FM-12+046199999V0200201N002119999999N9999999N1-00231-00801102401ADDKA1120M+00111MA1999999096711MD1210161+9999OA149900881REMSYN082AAXX  02184 06711 33/// /0204 11023 21080 39671 40240 52016 333 10011 91117 91208;
0128067110999992010010219004+46517+006667FM-12+046199999V0200101N002619999999N9999999N1-00261-00881102411ADDMA1999999096711MD1210081+9999OA149900571REMSYN076AAXX  02194 06711 33/// /0105 11026 21088 39671 40241 52008 333 91111 91205;
0128067110999992010010220004+46517+006667FM-12+046199999V0200101N003119999999N9999999N1-00311-00901102431ADDMA1999999096721MD1210041+9999OA149900571REMSYN076AAXX  02204 06711 33/// /0106 11031 21090 39672 40243 52004 333 91111 91206;
0128067110999992010010221004+46517+006667FM-12+046199999V0200101N002619999999N9999999N1-00331-00901102401ADDMA1999999096691MD1710021+9999OA149900571REMSYN076AAXX  02214 06711 33/// /0105 11033 21090 39669 40240 57002 333 91111 91206;
0128067110999992010010222004+46517+006667FM-12+046199999V0200201N001519999999N9999999N1-00371-00871102491ADDMA1999999096761MD1310051+9999OA149900511REMSYN076AAXX  02224 06711 33/// /0203 11037 21087 39676 40249 53005 333 91110 91206;
0128067110999992010010223004+46517+006667FM-12+046199999V0200201N002119999999N9999999N1-00401-00881102521ADDMA1999999096791MD1210071+9999OA149900511REMSYN076AAXX  02234 06711 33/// /0204 11040 21088 39679 40252 52007 333 91110 91206;
0128067110999992010010300004+46517+006667FM-12+046199999V0200201N002619999999N9999999N1-00431-00901102501ADDMA1999999096761MD1010071+9999OA149900571REMSYN076AAXX  03004 06711 33/// /0205 11043 21090 39676 40250 50007 333 91111 91206;
0128067110999992010010301004+46517+006667FM-12+046199999V0200301N002119999999N9999999N1-00461-00891102501ADDMA1999999096751MD1710011+9999OA149900411REMSYN076AAXX  03014 06711 33/// /0304 11046 21089 39675 40250 57001 333 91108 91205;
0087067110999992010010302004+46517+006667FM-12+046199999V0200301N001519999999N9999999N1-00451-00931102531ADDMA1999999096781REMSYN060AAXX  03024 06711 33/// /0303 11045 21093 39678 40253 5////;
0087067110999992010010303004+46517+006667FM-12+046199999V0200301N001519999999N9999999N1-00441-00941102471ADDMA1999999096731REMSYN060AAXX  03034 06711 33/// /0303 11044 21094 39673 40247 5////;
0128067110999992010010304004+46517+006667FM-12+046199999V0200301N001519999999N9999999N1-00401-00921102441ADDMA1999999096711MD1810041+9999OA149900361REMSYN076AAXX  03044 06711 33/// /0303 11040 21092 39671 40244 58004 333 91107 91203;
0128067110999992010010305004+46517+006667FM-12+046199999V0200601N001519999999N9999999N1-00331-00911102381ADDMA1999999096671MD1719999+9999OA149900361REMSYN076AAXX  03054 06711 33/// /0603 11033 21091 39667 40238 57/// 333 91107 91203;
0207067110999992010010306004+46517+006667FM-12+046199999V0200401N001519999999N9999999N1-00291-01021102331ADDAA124000091AL19900091GJ103069KA1999N-00471MA1999999096631MD1710101+9999OA149900571REMSYN094AAXX  03064 06711 33/// /0403 11029 21102 39663 40233 57010 333 21047 55051 70000 91111 91206;EQDQ01  00002PRCP24
0128067110999992010010307004+46517+006667FM-12+046199999V0200301N001519999999N9999999N1-00331-00931102351ADDMA1999999096641MD1710071+9999OA149900411REMSYN076AAXX  03074 06711 33/// /0303 11033 21093 39664 40235 57007 333 91108 91204;
0128067110999992010010308004+46517+006667FM-12+046199999V0200501N002119999999N9999999N1-00261-00881102351ADDMA1999999096651MD1519999+9999OA149900461REMSYN076AAXX  03084 06711 33/// /0504 11026 21088 39665 40235 55/// 333 91109 91204;
0128067110999992010010309004+46517+006667FM-12+046199999V0201001N003119999999N9999999N1-00201-01051102321ADDMA1999999096641MD1210011+9999OA149900671REMSYN076AAXX  03094 06711 33/// /1006 11020 21105 39664 40232 52001 333 91113 91206;
0128067110999992010010310004+46517+006667FM-12+046199999V0201101N002119999999N9999999N1-00151-01031102301ADDMA1999999096631MD1810011+9999OA149900671REMSYN076AAXX  03104 06711 33/// /1104 11015 21103 39663 40230 58001 333 91113 91206;
0128067110999992010010311004+46517+006667FM-12+046199999V0201001N002619999999N9999999N1-00141-01051102271ADDMA1999999096601MD1710051+9999OA149900671REMSYN076AAXX  03114 06711 33/// /1005 11014 21105 39660 40227 57005 333 91113 91206;
0128067110999992010010312004+46517+006667FM-12+046199999V0200701N002619999999N9999999N1-00131-00941102181ADDMA1999999096521MD1710121+9999OA149900671REMSYN076AAXX  03124 06711 33/// /0705 11013 21094 39652 40218 57012 333 91113 91206;
0128067110999992010010313004+46517+006667FM-12+046199999V0200801N001019999999N9999999N1-00101-00991102161ADDMA1999999096511MD1710121+9999OA149900511REMSYN076AAXX  03134 06711 33/// /0802 11010 21099 39651 40216 57012 333 91110 91205;
0128067110999992010010314004+46517+006667FM-12+046199999V0201001N000519999999N9999999N1-00081-00961102131ADDMA1999999096481MD1710121+9999OA149900361REMSYN076AAXX  03144 06711 33/// /1001 11008 21096 39648 40213 57012 333 91107 91204;
0128067110999992010010315004+46517+006667FM-12+046199999V0200501N000519999999N9999999N1-00071-00931102131ADDMA1999999096491MD1710031+9999OA149900671REMSYN076AAXX  03154 06711 33/// /0501 11007 21093 39649 40213 57003 333 91113 91206;
0128067110999992010010316004+46517+006667FM-12+046199999V0200601N001019999999N9999999N1-00111-00821102111ADDMA1999999096461MD1710051+9999OA149900151REMSYN076AAXX  03164 06711 33/// /0602 11011 21082 39646 40211 57005 333 91103 91202;
0128067110999992010010317004+46517+006667FM-12+046199999V0200201N001519999999N9999999N1-00181-00721102081ADDMA1999999096421MD1710061+9999OA149900311REMSYN076AAXX  03174 06711 33/// /0203 11018 21072 39642 40208 57006 333 91106 91204;
0147067110999992010010318004+46517+006667FM-12+046199999V0200301N001519999999N9999999N1-00191-00711102081ADDKA1120M-00071MA1999999096411MD1710081+9999OA149900671REMSYN082AAXX  03184 06711 33/// /0303 11019 21071 39641 40208 57008 333 11007 91113 91206;
0128067110999992010010319004+46517+006667FM-12+046199999V0200201N002619999999N9999999N1-00271-00781102041ADDMA1999999096361MD1710101+9999OA149900461REMSYN076AAXX  03194 06711 33/// /0205 11027 21078 39636 40204 57010 333 91109 91205;
0128067110999992010010320004+46517+006667FM-12+046199999V0200201N003119999999N9999999N1-00321-00911102021ADDMA1999999096331MD1710091+9999OA149900511REMSYN076AAXX  03204 06711 33/// /0206 11032 21091 39633 40202 57009 333 91110 91206;
0128067110999992010010321004+46517+006667FM-12+046199999V0200201N002619999999N9999999N1-00311-00961102011ADDMA1999999096321MD1710091+9999OA149900511REMSYN076AAXX  03214 06711 33/// /0205 11031 21096 39632 40201 57009 333 91110 91206;
0128067110999992010010322004+46517+006667FM-12+046199999V0200201N002619999999N9999999N1-00331-01021101981ADDMA1999999096291MD1710071+9999OA149900511REMSYN076AAXX  03224 06711 33/// /0205 11033 21102 39629 40198 57007 333 91110 91206;
0128067110999992010010323004+46517+006667FM-12+046199999V0200201N002119999999N9999999N1-00251-00951101921ADDMA1999999096251MD1710081+9999OA149900461REMSYN076AAXX  03234 06711 33/// /0204 11025 21095 39625 40192 57008 333 91109 91205;
0128067110999992010010400004+46517+006667FM-12+046199999V0200301N001019999999N9999999N1-00171-00891101811ADDMA1999999096161MD1710161+9999OA149900511REMSYN076AAXX  04004 06711 33/// /0302 11017 21089 39616 40181 57016 333 91110 91206;
0128067110999992010010401004+46517+006667FM-12+046199999V0200301N001019999999N9999999N1-00141-00841101741ADDMA1999999096101MD1710191+9999OA149900361REMSYN076AAXX  04014 06711 33/// /0302 11014 21084 39610 40174 57019 333 91107 91204;
0128067110999992010010402004+46517+006667FM-12+046199999V0200301N001019999999N9999999N1-00111-00871101721ADDMA1999999096091MD1710161+9999OA149900211REMSYN076AAXX  04024 06711 33/// /0302 11011 21087 39609 40172 57016 333 91104 91202;
0128067110999992010010403004+46517+006667FM-12+046199999V0200201N001019999999N9999999N1-00111-00791101661ADDMA1999999096031MD1719999+9999OA149900461REMSYN076AAXX  04034 06711 33/// /0202 11011 21079 39603 40166 57/// 333 91109 91205;
0128067110999992010010404004+46517+006667FM-12+046199999V0200501N001019999999N9999999N1-00161-00631101671ADDMA1999999096031MD1710071+9999OA149900311REMSYN076AAXX  04044 06711 33/// /0502 11016 21063 39603 40167 57007 333 91106 91203;
0145067110999992010010405004+46517+006667FM-12+046199999V0200901N001519999999N9999999N1-00251-00441101691ADDAA101000021MA1999999096031MD1510061+9999OA149900311REMSYN082AAXX  04054 06711 23/// /0903 11025 21044 39603 40169 55006 333 69925 91106 91203;
0211067110999992010010406004+46517+006667FM-12+046199999V0209999C000019999999N9999999N1-00251-00351101641ADDAA112001092AA224000892AL14800091GJ100069KA1999N-00331MA1999999095991MD1810041+9999OA149900511REMSYN106AAXX  04064 06711 03/// /0000 11025 21035 39599 40164 58004 60012 333 21033 55001 69985 70008 91110 91206;
0145067110999992010010407004+46517+006667FM-12+046199999V0200201N000519999999N9999999N1-00231-00331101611ADDAA101000891MA1999999095961MD1710071+9999OA149900311REMSYN082AAXX  04074 06711 23/// /0201 11023 21033 39596 40161 57007 333 69985 91106 91203;
0128067110999992010010408004+46517+006667FM-12+046199999V0203101N001019999999N9999999N1-00171-00331101601ADDMA1999999095961MD1710071+9999OA149900211REMSYN076AAXX  04084 06711 33/// /3102 11017 21033 39596 40160 57007 333 91104 91202;
0145067110999992010010409004+46517+006667FM-12+046199999V0202801N001019999999N9999999N1-00141-00271101581ADDAA101000021MA1999999095951MD1710041+9999OA149900311REMSYN082AAXX  04094 06711 23/// /2802 11014 21027 39595 40158 57004 333 69925 91106 91203;
0145067110999992010010410004+46517+006667FM-12+046199999V0200701N001519999999N9999999N1-00131-00361101571ADDAA101000021MA1999999095941MD1710021+9999OA149900361REMSYN082AAXX  04104 06711 23/// /0703 11013 21036 39594 40157 57002 333 69915 91107 91203;
0145067110999992010010411004+46517+006667FM-12+046199999V0200901N001019999999N9999999N1-00111-00311101501ADDAA101000021MA1999999095881MD1710081+9999OA149900361REMSYN082AAXX  04114 06711 23/// /0902 11011 21031 39588 40150 57008 333 69915 91107 91204;
0151067110999992010010412004+46517+006667FM-12+046199999V0201101N001519999999N9999999N1-00091-00321101411ADDAA106001091MA1999999095801MD1710151+9999OA149900361REMSYN088AAXX  04124 06711 03/// /1103 11009 21032 39580 40141 57015 60011 333 69915 91107 91204;
0145067110999992010010413004+46517+006667FM-12+046199999V0201001N001019999999N9999999N1-00081-00331101341ADDAA101000021MA1999999095741MD1710201+9999OA149900261REMSYN082AAXX  04134 06711 23/// /1002 11008 21033 39574 40134 57020 333 69915 91105 91203;
0145067110999992010010414004+46517+006667FM-12+046199999V0200801N001019999999N9999999N1-00101-00301101321ADDAA101000021MA1999999095711MD1619999+9999OA149900261REMSYN082AAXX  04144 06711 23/// /0802 11010 21030 39571 40132 56/// 333 69925 91105 91202;
0145067110999992010010415004+46517+006667FM-12+046199999V0200201N001019999999N9999999N1-00131-00271101301ADDAA101000391MA1999999095691MD1610111+9999OA149900361REMSYN082AAXX  04154 06711 23/// /0202 11013 21027 39569 40130 56011 333 69935 91107 91204;
0145067110999992010010416004+46517+006667FM-12+046199999V0200201N001519999999N9999999N1-00151-00301101281ADDAA101000391MA1999999095671MD1810071+9999OA149900261REMSYN082AAXX  04164 06711 23/// /0203 11015 21030 39567 40128 58007 333 69935 91105 91203;
0145067110999992010010417004+46517+006667FM-12+046199999V0200201N001519999999N9999999N1-00161-00351101261ADDAA101000591MA1999999095651MD1810061+9999OA149900311REMSYN082AAXX  04174 06711 23/// /0203 11016 21035 39565 40126 58006 333 69945 91106 91203;
0170067110999992010010418004+46517+006667FM-12+046199999V0200201N000519999999N9999999N1-00161-00331101261ADDAA112003091KA1120M-00081MA1999999095651MD1710041+9999OA149900361REMSYN094AAXX  04184 06711 03/// /0201 11016 21033 39565 40126 57004 60032 333 11008 69915 91107 91204;
0145067110999992010010419004+46517+006667FM-12+046199999V0200101N001519999999N9999999N1-00151-00371101231ADDAA101000021MA1999999095621MD1710051+9999OA149900361REMSYN082AAXX  04194 06711 23/// /0103 11015 21037 39562 40123 57005 333 69925 91107 91203;
0145067110999992010010420004+46517+006667FM-12+046199999V0200101N000519999999N9999999N1-00171-00301101211ADDAA101000591MA1999999095601MD1710051+9999OA149900311REMSYN082AAXX  04204 06711 23/// /0101 11017 21030 39560 40121 57005 333 69945 91106 91203;
0145067110999992010010421004+46517+006667FM-12+046199999V0200101N001019999999N9999999N1-00171-00401101201ADDAA101000021MA1999999095591MD1710061+9999OA149900361REMSYN082AAXX  04214 06711 23/// /0102 11017 21040 39559 40120 57006 333 69915 91107 91203;
0145067110999992010010422004+46517+006667FM-12+046199999V0209999C000019999999N9999999N1-00201-00411101181ADDAA101000021MA1999999095561MD1710061+9999OA149900361REMSYN082AAXX  04224 06711 23/// /0000 11020 21041 39556 40118 57006 333 69925 91107 91203;
0128067110999992010010423004+46517+006667FM-12+046199999V0203101N000519999999N9999999N1-00181-00421101161ADDMA1999999095551MD1710051+9999OA149900361REMSYN076AAXX  04234 06711 33/// /3101 11018 21042 39555 40116 57005 333 91107 91203;
0151067110999992010010500004+46517+006667FM-12+046199999V0202701N000519999999N9999999N1-00191-00341101101ADDAA106001091MA1999999095491MD1710101+9999OA149900361REMSYN088AAXX  05004 06711 03/// /2701 11019 21034 39549 40110 57010 60011 333 69925 91107 91203;
0145067110999992010010501004+46517+006667FM-12+046199999V0209999C001019999999N9999999N1-00191-00401101021ADDAA101000021MA1999999095411MD1710151+9999OA149900151REMSYN082AAXX  05014 06711 23/// /0002 11019 21040 39541 40102 57015 333 69915 91103 91202;
0128067110999992010010502004+46517+006667FM-12+046199999V0200201N001519999999N9999999N1-00201-00491100981ADDMA1999999095371MD1710181+9999OA149900411REMSYN076AAXX  05024 06711 33/// /0203 11020 21049 39537 40098 57018 333 91108 91204;
0128067110999992010010503004+46517+006667FM-12+046199999V0200101N001519999999N9999999N1-00221-00461100931ADDMA1999999095321MD1610171+9999OA149900411REMSYN076AAXX  05034 06711 33/// /0103 11022 21046 39532 40093 56017 333 91108 91204;
0145067110999992010010504004+46517+006667FM-12+046199999V0200201N001519999999N9999999N1-00211-00501100851ADDAA101000021MA1999999095251MD1810161+9999OA149900411REMSYN082AAXX  05044 06711 23/// /0203 11021 21050 39525 40085 58016 333 69915 91108 91204;
0128067110999992010010505004+46517+006667FM-12+046199999V0200301N000519999999N9999999N1-00211-00431100781ADDMA1999999095181MD1810191+9999OA149900411REMSYN076AAXX  05054 06711 33/// /0301 11021 21043 39518 40078 58019 333 91108 91204;
0211067110999992010010506004+46517+006667FM-12+046199999V0200201N001019999999N9999999N1-00231-00421100751ADDAA112002091AA224004691AL13000491GJ100189KA1999N-00231MA1999999095151MD1610171+9999OA149900411REMSYN106AAXX  05064 06711 03/// /0202 11023 21042 39515 40075 56017 60022 333 21023 55003 69945 70045 91108 91204;
0128067110999992010010507004+46517+006667FM-12+046199999V0200301N001019999999N9999999N1-00231-00431100711ADDMA1999999095111MD1610141+9999OA149900261REMSYN076AAXX  05074 06711 33/// /0302 11023 21043 39511 40071 56014 333 91105 91203;
0145067110999992010010508004+46517+006667FM-12+046199999V0200101N001519999999N9999999N1-00211-00441100681ADDAA101000021MA1999999095091MD1710091+9999OA149900311REMSYN082AAXX  05084 06711 23/// /0103 11021 21044 39509 40068 57009 333 69915 91106 91203;
0145067110999992010010509004+46517+006667FM-12+046199999V0200201N001019999999N9999999N1-00181-00401100671ADDAA101000591MA1999999095081MD1710071+9999OA149900411REMSYN082AAXX  05094 06711 23/// /0202 11018 21040 39508 40067 57007 333 69945 91108 91204;
0145067110999992010010510004+46517+006667FM-12+046199999V0209999C000019999999N9999999N1-00091-00311100601ADDAA101000021MA1999999095041MD1710071+9999OA149900311REMSYN082AAXX  05104 06711 23/// /0000 11009 21031 39504 40060 57007 333 69915 91106 91203;
0128067110999992010010511004+46517+006667FM-12+046199999V0201701N000519999999N9999999N1-00071-00311100501ADDMA1999999094951MD1810141+9999OA149900151REMSYN076AAXX  05114 06711 33/// /1701 11007 21031 39495 40050 58014 333 91103 91202;
0151067110999992010010512004+46517+006667FM-12+046199999V0200901N001519999999N9999999N1-00061-00361100421ADDAA106000591MA1999999094871MD1810211+9999OA149900411REMSYN088AAXX  05124 06711 03/// /0903 11006 21036 39487 40042 58021 69961 333 60005 91108 91204;
0128067110999992010010513004+46517+006667FM-12+046199999V0201001N001019999999N9999999N1-00031-00281100331ADDMA1999999094791MD1710251+9999OA149900311REMSYN076AAXX  05134 06711 33/// /1002 11003 21028 39479 40033 57025 333 91106 91203;
0087067110999992010010514004+46517+006667FM-12+046199999V0201101N001019999999N9999999N1-00021-00291100281ADDMA1999999094751REMSYN060AAXX  05144 06711 33/// /1102 11002 21029 39475 40028 5////;
0128067110999992010010515004+46517+006667FM-12+046199999V0209999C000019999999N9999999N1-00011-00301100251ADDMA1999999094721MD1610151+9999OA149900311REMSYN076AAXX  05154 06711 33/// /0000 11001 21030 39472 40025 56015 333 91106 91203;
0128067110999992010010516004+46517+006667FM-12+046199999V0200801N000519999999N9999999N1-00031-00291100241ADDMA1999999094711MD1710081+9999OA149900151REMSYN076AAXX  05164 06711 33/// /0801 11003 21029 39471 40024 57008 333 91103 91201;
0128067110999992010010517004+46517+006667FM-12+046199999V0200301N000519999999N9999999N1-00031-00311100231ADDMA1999999094701MD1710051+9999OA149900211REMSYN076AAXX  05174 06711 33/// /0301 11003 21031 39470 40023 57005 333 91104 91202;
0170067110999992010010518004+46517+006667FM-12+046199999V0200601N000519999999N9999999N1-00021-00261100211ADDAA112000891KA1120M+00001MA1999999094681MD1710041+9999OA149900311REMSYN094AAXX  05184 06711 03/// /0601 11002 21026 39468 40021 57004 69972 333 10000 69915 91106 91203;
0128067110999992010010519004+46517+006667FM-12+046199999V0200201N001519999999N9999999N1-00041-00281100211ADDMA1999999094681MD1710031+9999OA149900261REMSYN076AAXX  05194 06711 33/// /0203 11004 21028 39468 40021 57003 333 91105 91203;
0128067110999992010010520004+46517+006667FM-12+046199999V0200301N001019999999N9999999N1-00031-00241100151ADDMA1999999094621MD1710081+9999OA149900261REMSYN076AAXX  05204 06711 33/// /0302 11003 21024 39462 40015 57008 333 91105 91203;
0128067110999992010010521004+46517+006667FM-12+046199999V0209999C000019999999N9999999N1+00011-00191100131ADDMA1999999094611MD1710071+9999OA149900261REMSYN076AAXX  05214 06711 33/// /0000 10001 21019 39461 40013 57007 333 91105 91203;
0145067110999992010010522004+46517+006667FM-12+046199999V0209999C000019999999N9999999N1-00041-00151100121ADDAA101000021MA1999999094591MD1610091+9999OA149900151REMSYN082AAXX  05224 06711 23/// /0000 11004 21015 39459 40012 56009 333 69915 91103 91202;
0128067110999992010010523004+46517+006667FM-12+046199999V0200401N000519999999N9999999N1-00041-00221100111ADDMA1999999094581MD1710041+9999OA149900211REMSYN076AAXX  05234 06711 33/// /0401 11004 21022 39458 40011 57004 333 91104 91202;
0170067110999992010010600004+46517+006667FM-12+046199999V0200301N001019999999N9999999N1-00021-00171100091ADDAA106000091MA1999999094571MD1710041+9999OA149900311REMSYN088AAXX  06004 06711 03/// /0302 11002 21017 39457 40009 57004 69911 333 60005 91106 91203;EQDQ01  00002PRCP06
0128067110999992010010601004+46517+006667FM-12+046199999V0200501N001019999999N9999999N1-00011-00181100071ADDMA1999999094551MD1710041+9999OA149900151REMSYN076AAXX  06014 06711 33/// /0502 11001 21018 39455 40007 57004 333 91103 91202;
0128067110999992010010602004+46517+006667FM-12+046199999V0200501N000519999999N9999999N1-00011-00161100111ADDMA1999999094591MD1310011+9999OA149900151REMSYN076AAXX  06024 06711 33/// /0501 11001 21016 39459 40011 53001 333 91103 91203;
0145067110999992010010603004+46517+006667FM-12+046199999V0200301N000519999999N9999999N1-00031-00121100101ADDAA101000021MA1999999094581MD1210011+9999OA149900211REMSYN082AAXX  06034 06711 23/// /0301 11003 21012 39458 40010 52001 333 69915 91104 91203;
0145067110999992010010604004+46517+006667FM-12+046199999V0209999C000019999999N9999999N1-00051-00101100101ADDAA101000021MA1999999094571MD1010021+9999OA149900101REMSYN082AAXX  06044 06711 23/// /0000 11005 21010 39457 40010 50002 333 69915 91102 91201;
0128067110999992010010605004+46517+006667FM-12+046199999V0209999C000019999999N9999999N1-00031-00091100111ADDMA1999999094591MD1510001+9999OA149900101REMSYN076AAXX  06054 06711 33/// /0000 11003 21009 39459 40011 55000 333 91102 91201;
0211067110999992010010606004+46517+006667FM-12+046199999V0202801N001519999999N9999999N1+00011-00121100131ADDAA112000591AA224001391AL11200191GJ100069KA1999N-00061MA1999999094611MD1210031+9999OA149900311REMSYN106AAXX  06064 06711 03/// /2803 10001 21012 39461 40013 52003 69942 333 21006 55001 69915 70012 91106 91203;
0128067110999992010010607004+46517+006667FM-12+046199999V0202701N003119999999N9999999N1+00041-00281100161ADDMA1999999094651MD1110081+9999OA149900571REMSYN076AAXX  06074 06711 33/// /2706 10004 21028 39465 40016 51008 333 91111 91206;
0128067110999992010010608004+46517+006667FM-12+046199999V0202801N001519999999N9999999N1+00031-00311100201ADDMA1999999094681MD1310091+9999OA149900571REMSYN076AAXX  06084 06711 33/// /2803 10003 21031 39468 40020 53009 333 91111 91206;
0128067110999992010010609004+46517+006667FM-12+046199999V0202701N002619999999N9999999N1+00031-00351100251ADDMA1999999094731MD1310121+9999OA149900571REMSYN076AAXX  06094 06711 33/// /2705 10003 21035 39473 40025 53012 333 91111 91206;
0128067110999992010010610004+46517+006667FM-12+046199999V0202801N001519999999N9999999N1+00021-00351100311ADDMA1999999094781MD1110131+9999OA149900571REMSYN076AAXX  06104 06711 33/// /2803 10002 21035 39478 40031 51013 333 91111 91206;
0128067110999992010010611004+46517+006667FM-12+046199999V0202701N003119999999N9999999N1+00031-00381100301ADDMA1999999094781MD1119999+9999OA149900571REMSYN076AAXX  06114 06711 33/// /2706 10003 21038 39478 40030 51/// 333 91111 91206;
0128067110999992010010612004+46517+006667FM-12+046199999V0202701N003119999999N9999999N1+00061-00351100281ADDMA1999999094761MD1010031+9999OA149900621REMSYN076AAXX  06124 06711 33/// /2706 10006 21035 39476 40028 50003 333 91112 91207;
0128067110999992010010613004+46517+006667FM-12+046199999V0202601N004119999999N9999999N1+00141-00331100241ADDMA1999999094741MD1810041+9999OA149900821REMSYN076AAXX  06134 06711 33/// /2608 10014 21033 39474 40024 58004 333 91116 91208;
0128067110999992010010614004+46517+006667FM-12+046199999V0202701N003119999999N9999999N1+00141-00401100271ADDMA1999999094771MD1519999+9999OA149900821REMSYN076AAXX  06144 06711 33/// /2706 10014 21040 39477 40027 55/// 333 91116 91208;
0128067110999992010010615004+46517+006667FM-12+046199999V0202601N002619999999N9999999N1+00161-00411100301ADDMA1999999094801MD1319999+9999OA149900821REMSYN076AAXX  06154 06711 33/// /2605 10016 21041 39480 40030 53/// 333 91116 91208;
0128067110999992010010616004+46517+006667FM-12+046199999V0202701N002619999999N9999999N1+00061-00481100391ADDMA1999999094871MD1310131+9999OA149900671REMSYN076AAXX  06164 06711 33/// /2705 10006 21048 39487 40039 53013 333 91113 91206;
0128067110999992010010617004+46517+006667FM-12+046199999V0202701N002619999999N9999999N1+00021-00551100451ADDMA1999999094921MD1110151+9999OA149900671REMSYN076AAXX  06174 06711 33/// /2705 10002 21055 39492 40045 51015 333 91113 91206;
0147067110999992010010618004+46517+006667FM-12+046199999V0202601N002119999999N9999999N1+00081-00421100481ADDKA1120M+00161MA1999999094961MD1119999+9999OA149900821REMSYN082AAXX  06184 06711 33/// /2604 10008 21042 39496 40048 51/// 333 10016 91116 91208;
0128067110999992010010619004+46517+006667FM-12+046199999V0202801N002119999999N9999999N1+00051-00431100511ADDMA1999999094981MD1110111+9999OA149900671REMSYN076AAXX  06194 06711 33/// /2804 10005 21043 39498 40051 51011 333 91113 91206;
0128067110999992010010620004+46517+006667FM-12+046199999V0202901N001519999999N9999999N1+00041-00391100531ADDMA1999999095001MD1110081+9999OA149900571REMSYN076AAXX  06204 06711 33/// /2903 10004 21039 39500 40053 51008 333 91111 91206;
0145067110999992010010621004+46517+006667FM-12+046199999V0202801N001519999999N9999999N1-00081-00171100641ADDAA101000391MA1999999095081MD1310121+9999OA149900771REMSYN082AAXX  06214 06711 23/// /2803 11008 21017 39508 40064 53012 333 69935 91115 91208;
0145067110999992010010622004+46517+006667FM-12+046199999V0202301N001019999999N9999999N1-00051-00111100651ADDAA101000391MA1999999095091MD1110111+9999OA149900771REMSYN082AAXX  06224 06711 23/// /2302 11005 21011 39509 40065 51011 333 69935 91115 91208;
0145067110999992010010623004+46517+006667FM-12+046199999V0202401N001019999999N9999999N1-00021-00191100651ADDAA101000021MA1999999095101MD1210101+9999OA149900261REMSYN082AAXX  06234 06711 23/// /2402 11002 21019 39510 40065 52010 333 69915 91105 91203;
0151067110999992010010700004+46517+006667FM-12+046199999V0202801N001519999999N9999999N1-00021-00211100651ADDAA106000891MA1999999095101MD1010021+9999OA149900821REMSYN088AAXX  07004 06711 03/// /2803 11002 21021 39510 40065 50002 69971 333 60005 91116 91208;
0128067110999992010010701004+46517+006667FM-12+046199999V0201201N000519999999N9999999N1-00021-00171100651ADDMA1999999095101MD1210011+9999OA149900311REMSYN076AAXX  07014 06711 33/// /1201 11002 21017 39510 40065 52001 333 91106 91204;
0128067110999992010010702004+46517+006667FM-12+046199999V0203501N001019999999N9999999N1-00021-00261100671ADDMA1999999095121MD1319999+9999OA149900311REMSYN076AAXX  07024 06711 33/// /3502 11002 21026 39512 40067 53/// 333 91106 91203;
0128067110999992010010703004+46517+006667FM-12+046199999V0201401N000519999999N9999999N1-00061-00311100661ADDMA1999999095101MD1010001+9999OA149900311REMSYN076AAXX  07034 06711 33/// /1401 11006 21031 39510 40066 50000 333 91106 91204;
0128067110999992010010704004+46517+006667FM-12+046199999V0203401N000519999999N9999999N1-00041-00301100651ADDMA1999999095091MD1810011+9999OA149900211REMSYN076AAXX  07044 06711 33/// /3401 11004 21030 39509 40065 58001 333 91104 91202;
0128067110999992010010705004+46517+006667FM-12+046199999V0202901N001019999999N9999999N1-00061-00291100691ADDMA1999999095131MD1310011+9999OA149900311REMSYN076AAXX  07054 06711 33/// /2902 11006 21029 39513 40069 53001 333 91106 91203;
0211067110999992010010706004+46517+006667FM-12+046199999V0202901N001519999999N9999999N1-00071-00291100731ADDAA112000891AA224000891AL14200091GJ101329KA1999N-00091MA1999999095161MD1210061+9999OA149900771REMSYN106AAXX  07064 06711 03/// /2903 11007 21029 39516 40073 52006 69972 333 21009 55022 60005 70007 91115 91208;
0128067110999992010010707004+46517+006667FM-12+046199999V0203001N001019999999N9999999N1-00091-00321100751ADDMA1999999095181MD1210091+9999OA149900311REMSYN076AAXX  07074 06711 33/// /3002 11009 21032 39518 40075 52009 333 91106 91204;
0128067110999992010010708004+46517+006667FM-12+046199999V0202801N001019999999N9999999N1-00081-00311100831ADDMA1999999095261MD1319999+9999OA149900211REMSYN076AAXX  07084 06711 33/// /2802 11008 21031 39526 40083 53/// 333 91104 91203;
0128067110999992010010709004+46517+006667FM-12+046199999V0202801N000519999999N9999999N1-00041-00321100881ADDMA1999999095311MD1310151+9999OA149900311REMSYN076AAXX  07094 06711 33/// /2801 11004 21032 39531 40088 53015 333 91106 91204;
0128067110999992010010710004+46517+006667FM-12+046199999V0202701N001519999999N9999999N1-00031-00341100941ADDMA1999999095371MD1110191+9999OA149900311REMSYN076AAXX  07104 06711 33/// /2703 11003 21034 39537 40094 51019 333 91106 91203;
0128067110999992010010711004+46517+006667FM-12+046199999V0202501N001019999999N9999999N1-00021-00331100921ADDMA1999999095351MD1210091+9999OA149900311REMSYN076AAXX  07114 06711 33/// /2502 11002 21033 39535 40092 52009 333 91106 91203;
0128067110999992010010712004+46517+006667FM-12+046199999V0202301N001019999999N9999999N1+00021-00331100911ADDMA1999999095351MD1010041+9999OA149900311REMSYN076AAXX  07124 06711 33/// /2302 10002 21033 39535 40091 50004 333 91106 91204;
0128067110999992010010713004+46517+006667FM-12+046199999V0209999C000019999999N9999999N1+00031-00341100901ADDMA1999999095341MD1719999+9999OA149900311REMSYN076AAXX  07134 06711 33/// /0000 10003 21034 39534 40090 57/// 333 91106 91203;
0087067110999992010010715004+46517+006667FM-12+046199999V0202301N000519999999N9999999N1+00051-00291100931ADDMA1999999095381REMSYN060AAXX  07154 06711 43/// /2301 10005 21029 39538 40093 5////;
0128067110999992010010716004+46517+006667FM-12+046199999V0200701N000519999999N9999999N1+00001-00401100971ADDMA1999999095401MD1219999+9999OA149900151REMSYN076AAXX  07164 06711 33/// /0701 10000 21040 39540 40097 52/// 333 91103 91201;
0128067110999992010010717004+46517+006667FM-12+046199999V0200101N001519999999N9999999N1-00031-00381101001ADDMA1999999095431MD1119999+9999OA149900261REMSYN076AAXX  07174 06711 33/// /0103 11003 21038 39543 40100 51/// 333 91105 91203;
0147067110999992010010718004+46517+006667FM-12+046199999V0200201N001519999999N9999999N1-00051-00451101031ADDKA1120M+00071MA1999999095451MD1319999+9999OA149900361REMSYN082AAXX  07184 06711 33/// /0203 11005 21045 39545 40103 53/// 333 10007 91107 91204;
0128067110999992010010719004+46517+006667FM-12+046199999V0209999C003119999999N9999999N1-00041-00531101031ADDMA1999999095451MD1210051+9999OA149900621REMSYN076AAXX  07194 06711 33/// /0006 11004 21053 39545 40103 52005 333 91112 91206;
0128067110999992010010720004+46517+006667FM-12+046199999V0200101N002119999999N9999999N1-00021-00561101011ADDMA1999999095441MD1010011+9999OA149900621REMSYN076AAXX  07204 06711 33/// /0104 11002 21056 39544 40101 50001 333 91112 91206;
0128067110999992010010721004+46517+006667FM-12+046199999V0200101N001519999999N9999999N1-00041-00521100961ADDMA1999999095391MD1710061+9999OA149900621REMSYN076AAXX  07214 06711 33/// /0103 11004 21052 39539 40096 57006 333 91112 91206;
0128067110999992010010722004+46517+006667FM-12+046199999V0200601N000519999999N9999999N1-00071-00501100951ADDMA1999999095371MD1710081+9999OA149900511REMSYN076AAXX  07224 06711 33/// /0601 11007 21050 39537 40095 57008 333 91110 91204;
0128067110999992010010723004+46517+006667FM-12+046199999V0201701N000519999999N9999999N1-00031-00511100941ADDMA1999999095371MD1710071+9999OA149900361REMSYN076AAXX  07234 06711 33/// /1701 11003 21051 39537 40094 57007 333 91107 91204;
0128067110999992010010800004+46517+006667FM-12+046199999V0200301N002619999999N9999999N1+00001-00551100891ADDMA1999999095331MD1710061+9999OA149900771REMSYN076AAXX  08004 06711 33/// /0305 10000 21055 39533 40089 57006 333 91115 91206;
0128067110999992010010801004+46517+006667FM-12+046199999V0200101N001019999999N9999999N1-00061-00521100851ADDMA1999999095281MD1710091+9999OA149900771REMSYN076AAXX  08014 06711 33/// /0102 11006 21052 39528 40085 57009 333 91115 91206;
0128067110999992010010802004+46517+006667FM-12+046199999V0202601N001519999999N9999999N1-00041-00421100821ADDMA1999999095251MD1819999+9999OA149900671REMSYN076AAXX  08024 06711 33/// /2603 11004 21042 39525 40082 58/// 333 91113 91206;
0128067110999992010010803004+46517+006667FM-12+046199999V0200301N002619999999N9999999N1-00081-00381100761ADDMA1999999095191MD1719999+9999OA149900771REMSYN076AAXX  08034 06711 33/// /0305 11008 21038 39519 40076 57/// 333 91115 91206;
0128067110999992010010804004+46517+006667FM-12+046199999V0200401N003119999999N9999999N1-00081-00391100651ADDMA1999999095091MD1810191+9999OA149900881REMSYN076AAXX  08044 06711 33/// /0406 11008 21039 39509 40065 58019 333 91117 91206;
0128067110999992010010805004+46517+006667FM-12+046199999V0200401N004119999999N9999999N1-00061-00411100591ADDMA1999999095031MD1610221+9999OA149901241REMSYN076AAXX  08054 06711 33/// /0408 11006 21041 39503 40059 56022 333 91124 91208;
0207067110999992010010806004+46517+006667FM-12+046199999V0200401N003119999999N9999999N1-00071-00391100531ADDAA124000091AL19900091GJ100369KA1999N-00091MA1999999094971MD1610221+9999OA149901291REMSYN094AAXX  08064 06711 33/// /0406 11007 21039 39497 40053 56022 333 21009 55006 70000 91125 91208;EQDQ01  00002PRCP24
0145067110999992010010807004+46517+006667FM-12+046199999V0202401N001019999999N9999999N1-00111-00351100501ADDAA101000021MA1999999094941MD1710151+9999OA149901291REMSYN082AAXX  08074 06711 23/// /2402 11011 21035 39494 40050 57015 333 69915 91125 91208;
0128067110999992010010808004+46517+006667FM-12+046199999V0200501N001019999999N9999999N1-00081-00441100451ADDMA1999999094901MD1710131+9999OA149900721REMSYN076AAXX  08084 06711 33/// /0502 11008 21044 39490 40045 57013 333 91114 91204;
0128067110999992010010809004+46517+006667FM-12+046199999V0201501N000519999999N9999999N1-00071-00421100381ADDMA1999999094831MD1710141+9999OA149901291REMSYN076AAXX  08094 06711 33/// /1501 11007 21042 39483 40038 57014 333 91125 91208;
0128067110999992010010810004+46517+006667FM-12+046199999V0200501N002619999999N9999999N1-00051-00421100331ADDMA1999999094791MD1710151+9999OA149900821REMSYN076AAXX  08104 06711 33/// /0505 11005 21042 39479 40033 57015 333 91116 91205;
0128067110999992010010811004+46517+006667FM-12+046199999V0200501N005119999999N9999999N1-00041-00401100281ADDMA1999999094741MD1710161+9999OA149901291REMSYN076AAXX  08114 06711 33/// /0510 11004 21040 39474 40028 57016 333 91125 91211;
0170067110999992010010812004+46517+006667FM-12+046199999V0200401N003619999999N9999999N1-00071-00401100251ADDAA106000091MA1999999094711MD1610121+9999OA149901291REMSYN088AAXX  08124 06711 03/// /0407 11007 21040 39471 40025 56012 69911 333 60005 91125 91211;EQDQ01  00002PRCP06
0128067110999992010010813004+46517+006667FM-12+046199999V0200201N003619999999N9999999N1-00101-00421100251ADDMA1999999094701MD1710091+9999OA149901241REMSYN076AAXX  08134 06711 33/// /0207 11010 21042 39470 40025 57009 333 91124 91209;
0134067110999992010010814004+46517+006667FM-12+046199999V0200201N003619999999N9999999N1-00121-00441100281ADDMA1999999094731MD1519999+9999OA149901241REMSYN082AAXX  08144 06711 33/// /0207 11012 21044 39473 40028 55/// 91340 333 91124 91209;
0128067110999992010010815004+46517+006667FM-12+046199999V0200301N004619999999N9999999N1-00141-00461100321ADDMA1999999094761MD1210051+9999OA149901291REMSYN076AAXX  08154 06711 33/// /0309 11014 21046 39476 40032 52005 333 91125 91211;
0128067110999992010010816004+46517+006667FM-12+046199999V0200501N003119999999N9999999N1-00161-00451100321ADDMA1999999094761MD1210061+9999OA149901031REMSYN076AAXX  08164 06711 33/// /0506 11016 21045 39476 40032 52006 333 91120 91209;
0164067110999992010010817004+46517+006667FM-12+046199999V0200401N004619999999N9999999N1-00161-00471100301ADDAA101000591MA1999999094741MD1710021+9999OA149901031REMSYN082AAXX  08174 06711 23/// /0409 11016 21047 39474 40030 57000 333 69965 91120 91209;EQDQ01+000002APC3  
0170067110999992010010818004+46517+006667FM-12+046199999V0200401N003619999999N9999999N1-00141-00471100311ADDAA112000891KA1120M-00041MA1999999094751MD1710011+9999OA149901291REMSYN094AAXX  08184 06711 03/// /0407 11014 21047 39475 40031 57001 69982 333 11004 69915 91125 91211;
0128067110999992010010819004+46517+006667FM-12+046199999V0200401N004119999999N9999999N1-00131-00461100331ADDMA1999999094771MD1310011+9999OA149900981REMSYN076AAXX  08194 06711 33/// /0408 11013 21046 39477 40033 53001 333 91119 91209;
0145067110999992010010820004+46517+006667FM-12+046199999V0200401N003619999999N9999999N1-00141-00471100381ADDAA101000021MA1999999094821MD1310081+9999OA149900981REMSYN082AAXX  08204 06711 23/// /0407 11014 21047 39482 40038 53008 333 69915 91119 91209;
0145067110999992010010821004+46517+006667FM-12+046199999V0200401N003119999999N9999999N1-00151-00461100411ADDAA101000021MA1999999094841MD1310091+9999OA149901031REMSYN082AAXX  08214 06711 23/// /0406 11015 21046 39484 40041 53009 333 69915 91120 91209;
0128067110999992010010822004+46517+006667FM-12+046199999V0200401N003119999999N9999999N1-00181-00511100441ADDMA1999999094871MD1210101+9999OA149900981REMSYN076AAXX  08224 06711 33/// /0406 11018 21051 39487 40044 52010 333 91119 91208;
0128067110999992010010823004+46517+006667FM-12+046199999V0200401N004119999999N9999999N1-00201-00541100421ADDMA1999999094841MD1210021+9999OA149901031REMSYN076AAXX  08234 06711 33/// /0408 11020 21054 39484 40042 52002 333 91120 91208;
0170067110999992010010900004+46517+006667FM-12+046199999V0200301N003619999999N9999999N1-00241-00571100451ADDAA106000091MA1999999094861MD1210021+9999OA149901241REMSYN088AAXX  09004 06711 03/// /0307 11024 21057 39486 40045 52002 69921 333 60005 91124 91209;EQDQ01  00002PRCP06
0128067110999992010010901004+46517+006667FM-12+046199999V0200201N004119999999N9999999N1-00271-00571100431ADDMA1999999094841MD1710031+9999OA149900931REMSYN076AAXX  09014 06711 33/// /0208 11027 21057 39484 40043 57003 333 91118 91208;
0128067110999992010010902004+46517+006667FM-12+046199999V0200401N003619999999N9999999N1-00271-00561100471ADDMA1999999094881MD1219999+9999OA149900931REMSYN076AAXX  09024 06711 33/// /0407 11027 21056 39488 40047 52/// 333 91118 91208;
0128067110999992010010903004+46517+006667FM-12+046199999V0200301N003619999999N9999999N1-00281-00561100431ADDMA1999999094841MD1819999+9999OA149901031REMSYN076AAXX  09034 06711 33/// /0307 11028 21056 39484 40043 58/// 333 91120 91208;
0128067110999992010010904004+46517+006667FM-12+046199999V0200501N004619999999N9999999N1-00281-00561100421ADDMA1999999094831MD1810011+9999OA149901031REMSYN076AAXX  09044 06711 33/// /0509 11028 21056 39483 40042 58001 333 91120 91209;
0128067110999992010010905004+46517+006667FM-12+046199999V0200301N003119999999N9999999N1-00311-00591100391ADDMA1999999094791MD1710091+9999OA149900881REMSYN076AAXX  09054 06711 33/// /0306 11031 21059 39479 40039 57009 333 91117 91209;
0230067110999992010010906004+46517+006667FM-12+046199999V0200301N003119999999N9999999N1-00331-00601100321ADDAA112000091AA224001091AL19900191GJ100069KA1999N-00321MA1999999094721MD1710121+9999OA149901031REMSYN106AAXX  09064 06711 03/// /0306 11033 21060 39472 40032 57012 69922 333 21032 55001 60005 70010 91120 91209;EQDQ01  00002PRCP12
0128067110999992010010907004+46517+006667FM-12+046199999V0200401N002619999999N9999999N1-00341-00601100351ADDMA1999999094751MD1710081+9999OA149900981REMSYN076AAXX  09074 06711 33/// /0405 11034 21060 39475 40035 57008 333 91119 91207;
0147067110999992010010908004+46517+006667FM-12+046199999V0200401N002619999999N9999999N1-00341-00601100391ADDMA1999999094791MD1410001+9999OA149900821REMSYN076AAXX  09084 06711 33/// /0405 11034 21060 39479 40039 53000 333 91116 91207;EQDQ01+000032APCTEN
0128067110999992010010909004+46517+006667FM-12+046199999V0200501N002119999999N9999999N1-00341-00591100421ADDMA1999999094821MD1110101+9999OA149900981REMSYN076AAXX  09094 06711 33/// /0504 11034 21059 39482 40042 51010 333 91119 91209;
0128067110999992010010910004+46517+006667FM-12+046199999V0200301N003119999999N9999999N1-00351-00611100441ADDMA1999999094831MD1110081+9999OA149900881REMSYN076AAXX  09104 06711 33/// /0306 11035 21061 39483 40044 51008 333 91117 91207;
0128067110999992010010911004+46517+006667FM-12+046199999V0200301N004119999999N9999999N1-00361-00631100411ADDMA1999999094801MD1010011+9999OA149900981REMSYN076AAXX  09114 06711 33/// /0308 11036 21063 39480 40041 50001 333 91119 91208;
0128067110999992010010912004+46517+006667FM-12+046199999V0200401N003619999999N9999999N1-00371-00641100421ADDMA1999999094811MD1710011+9999OA149901031REMSYN076AAXX  09124 06711 33/// /0407 11037 21064 39481 40042 57001 333 91120 91209;
0128067110999992010010913004+46517+006667FM-12+046199999V0200401N003119999999N9999999N1-00371-00631100411ADDMA1999999094801MD1710031+9999OA149900881REMSYN076AAXX  09134 06711 33/// /0406 11037 21063 39480 40041 57003 333 91117 91207;
0128067110999992010010914004+46517+006667FM-12+046199999V0200301N003619999999N9999999N1-00381-00641100411ADDMA1999999094801MD1010001+9999OA149900881REMSYN076AAXX  09144 06711 33/// /0307 11038 21064 39480 40041 50000 333 91117 91207;
0128067110999992010010915004+46517+006667FM-12+046199999V0200301N003119999999N9999999N1-00381-00641100431ADDMA1999999094821MD1510011+9999OA149901081REMSYN076AAXX  09154 06711 33/// /0306 11038 21064 39482 40043 55001 333 91121 91208;
0128067110999992010010916004+46517+006667FM-12+046199999V0200401N003619999999N9999999N1-00391-00651100471ADDMA1999999094851MD1210051+9999OA149901081REMSYN076AAXX  09164 06711 33/// /0407 11039 21065 39485 40047 52005 333 91121 91208;
0145067110999992010010917004+46517+006667FM-12+046199999V0200301N002619999999N9999999N1-00401-00641100471ADDAA101000021MA1999999094851MD1210051+9999OA149900931REMSYN082AAXX  09174 06711 23/// /0305 11040 21064 39485 40047 52005 333 69915 91118 91208;
0170067110999992010010918004+46517+006667FM-12+046199999V0200301N002619999999N9999999N1-00371-00741100521ADDAA112000391KA1120M-00321MA1999999094901MD1210081+9999OA149901081REMSYN094AAXX  09184 06711 03/// /0305 11037 21074 39490 40052 52008 69932 333 11032 69925 91121 91208;
0128067110999992010010919004+46517+006667FM-12+046199999V0200401N003619999999N9999999N1-00381-00721100581ADDMA1999999094961MD1210111+9999OA149900821REMSYN076AAXX  09194 06711 33/// /0407 11038 21072 39496 40058 52011 333 91116 91207;
0128067110999992010010920004+46517+006667FM-12+046199999V0200301N003119999999N9999999N1-00371-00721100631ADDMA1999999095011MD1310161+9999OA149900881REMSYN076AAXX  09204 06711 33/// /0306 11037 21072 39501 40063 53016 333 91117 91207;
0128067110999992010010921004+46517+006667FM-12+046199999V0200201N002619999999N9999999N1-00381-00711100671ADDMA1999999095041MD1210141+9999OA149900931REMSYN076AAXX  09214 06711 33/// /0205 11038 21071 39504 40067 52014 333 91118 91208;
0128067110999992010010922004+46517+006667FM-12+046199999V0200201N002119999999N9999999N1-00371-00751100711ADDMA1999999095081MD1210121+9999OA149900671REMSYN076AAXX  09224 06711 33/// /0204 11037 21075 39508 40071 52012 333 91113 91205;
0128067110999992010010923004+46517+006667FM-12+046199999V0200101N002119999999N9999999N1-00391-00711100771ADDMA1999999095141MD1210131+9999OA149900621REMSYN076AAXX  09234 06711 33/// /0104 11039 21071 39514 40077 52013 333 91112 91205;
0170067110999992010011000004+46517+006667FM-12+046199999V0200501N000519999999N9999999N1-00421-00671100821ADDAA106000091MA1999999095181MD1210141+9999OA149901081REMSYN088AAXX  10004 06711 03/// /0501 11042 21067 39518 40082 52014 69921 333 69925 91121 91208;EQDQ01  00002PRCP06
0145067110999992010011001004+46517+006667FM-12+046199999V0209999C000019999999N9999999N1-00431-00611100881ADDAA101000391MA1999999095231MD1110151+9999OA149900411REMSYN082AAXX  10014 06711 23/// /0000 11043 21061 39523 40088 51015 333 69935 91108 91203;
0108067110999992010011002004+46517+006667FM-12+046199999V0200201N001519999999N9999999N1-00401-00711100931ADDAA101000021MA1999999095281REMSYN070AAXX  10024 06711 23/// /0203 11040 21071 39528 40093 5//// 333 69915;
0087067110999992010011003004+46517+006667FM-12+046199999V0200201N001519999999N9999999N1-00421-00641100961ADDMA1999999095311REMSYN060AAXX  10034 06711 43/// /0203 11042 21064 39531 40096 5////;
0145067110999992010011004004+46517+006667FM-12+046199999V0200301N001019999999N9999999N1-00411-00661101011ADDAA101000021MA1999999095361MD1110131+9999OA149900411REMSYN082AAXX  10044 06711 23/// /0302 11041 21066 39536 40101 51013 333 69925 91108 91204;
0128067110999992010011005004+46517+006667FM-12+046199999V0209999C000019999999N9999999N1-00401-00611101071ADDMA1999999095421MD1310141+9999OA149900311REMSYN076AAXX  10054 06711 33/// /0000 11040 21061 39542 40107 53014 333 91106 91203;
0211067110999992010011006004+46517+006667FM-12+046199999V0203601N001019999999N9999999N1-00401-00651101121ADDAA112001091AA224001591AL13000191GJ100189KA1999N-00431MA1999999095461MD1119999+9999OA149900881REMSYN106AAXX  10064 06711 03/// /3602 11040 21065 39546 40112 51/// 60012 333 21043 55003 69915 70015 91117 91207;
0128067110999992010011007004+46517+006667FM-12+046199999V0200101N001519999999N9999999N1-00381-00681101201ADDMA1999999095541MD1210181+9999OA149900261REMSYN076AAXX  10074 06711 33/// /0103 11038 21068 39554 40120 52018 333 91105 91203;
0128067110999992010011008004+46517+006667FM-12+046199999V0200101N001519999999N9999999N1-00351-00681101261ADDMA1999999095611MD1319999+9999OA149900261REMSYN076AAXX  10084 06711 33/// /0103 11035 21068 39561 40126 53/// 333 91105 91203;
0128067110999992010011009004+46517+006667FM-12+046199999V0200201N001019999999N9999999N1-00321-00711101331ADDMA1999999095681MD1110221+9999OA149900311REMSYN076AAXX  10094 06711 33/// /0202 11032 21071 39568 40133 51022 333 91106 91203;
0128067110999992010011010004+46517+006667FM-12+046199999V0202701N000519999999N9999999N1-00191-00701101371ADDMA1999999095741MD1110201+9999OA149900261REMSYN076AAXX  10104 06711 33/// /2701 11019 21070 39574 40137 51020 333 91105 91203;
0128067110999992010011011004+46517+006667FM-12+046199999V0202401N001019999999N9999999N1-00191-00741101391ADDMA1999999095761MD1110151+9999OA149900461REMSYN076AAXX  10114 06711 33/// /2402 11019 21074 39576 40139 51015 333 91109 91203;
0128067110999992010011012004+46517+006667FM-12+046199999V0203001N002119999999N9999999N1-00201-00721101411ADDMA1999999095781MD1110101+9999OA149900511REMSYN076AAXX  10124 06711 33/// /3004 11020 21072 39578 40141 51010 333 91110 91204;
0128067110999992010011013004+46517+006667FM-12+046199999V0200101N000519999999N9999999N1-00151-00691101421ADDMA1999999095801MD1310061+9999OA149900411REMSYN076AAXX  10134 06711 33/// /0101 11015 21069 39580 40142 53006 333 91108 91204;
0128067110999992010011014004+46517+006667FM-12+046199999V0201501N000519999999N9999999N1-00151-00661101481ADDMA1999999095861MD1319999+9999OA149900311REMSYN076AAXX  10144 06711 33/// /1501 11015 21066 39586 40148 53/// 333 91106 91203;
0128067110999992010011015004+46517+006667FM-12+046199999V0200701N001019999999N9999999N1-00181-00641101511ADDMA1999999095881MD1110101+9999OA149900461REMSYN076AAXX  10154 06711 33/// /0702 11018 21064 39588 40151 51010 333 91109 91204;
0128067110999992010011016004+46517+006667FM-12+046199999V0200501N001019999999N9999999N1-00191-00621101561ADDMA1999999095921MD1110121+9999OA149900261REMSYN076AAXX  10164 06711 33/// /0502 11019 21062 39592 40156 51012 333 91105 91203;
0128067110999992010011017004+46517+006667FM-12+046199999V0200101N001519999999N9999999N1-00211-00621101591ADDMA1999999095951MD1310091+9999OA149900261REMSYN076AAXX  10174 06711 33/// /0103 11021 21062 39595 40159 53009 333 91105 91203;
0147067110999992010011018004+46517+006667FM-12+046199999V0200301N001019999999N9999999N1-00201-00601101621ADDKA1120M-00151MA1999999095981MD1310101+9999OA149900461REMSYN082AAXX  10184 06711 33/// /0302 11020 21060 39598 40162 53010 333 11015 91109 91204;
0128067110999992010011019004+46517+006667FM-12+046199999V0200101N001519999999N9999999N1-00221-00631101621ADDMA1999999095971MD1210051+9999OA149900261REMSYN076AAXX  10194 06711 33/// /0103 11022 21063 39597 40162 52005 333 91105 91204;
0128067110999992010011020004+46517+006667FM-12+046199999V0200101N001519999999N9999999N1-00221-00631101621ADDMA1999999095971MD1210021+9999OA149900311REMSYN076AAXX  10204 06711 33/// /0103 11022 21063 39597 40162 52002 333 91106 91204;
0128067110999992010011021004+46517+006667FM-12+046199999V0200201N001519999999N9999999N1-00241-00701101601ADDMA1999999095951MD1710031+9999OA149900411REMSYN076AAXX  10214 06711 33/// /0203 11024 21070 39595 40160 57003 333 91108 91204;
0128067110999992010011022004+46517+006667FM-12+046199999V0200201N001519999999N9999999N1-00231-00641101601ADDMA1999999095951MD1710021+9999OA149900411REMSYN076AAXX  10224 06711 33/// /0203 11023 21064 39595 40160 57002 333 91108 91204;
0128067110999992010011023004+46517+006667FM-12+046199999V0200101N001519999999N9999999N1-00251-00621101661ADDMA1999999096001MD1310031+9999OA149900411REMSYN076AAXX  10234 06711 33/// /0103 11025 21062 39600 40166 53003 333 91108 91204;
0128067110999992010011100004+46517+006667FM-12+046199999V0200201N002119999999N9999999N1-00251-00621101691ADDMA1999999096031MD1310081+9999OA149900411REMSYN076AAXX  11004 06711 33/// /0204 11025 21062 39603 40169 53008 333 91108 91204;
0128067110999992010011101004+46517+006667FM-12+046199999V0200201N001519999999N9999999N1-00251-00621101671ADDMA1999999096011MD1010061+9999OA149900411REMSYN076AAXX  11014 06711 33/// /0203 11025 21062 39601 40167 50006 333 91108 91204;
0128067110999992010011102004+46517+006667FM-12+046199999V0200201N001519999999N9999999N1-00241-00621101701ADDMA1999999096041MD1219999+9999OA149900361REMSYN076AAXX  11024 06711 33/// /0203 11024 21062 39604 40170 52/// 333 91107 91204;
0128067110999992010011103004+46517+006667FM-12+046199999V0200301N001019999999N9999999N1-00231-00571101671ADDMA1999999096021MD1719999+9999OA149900411REMSYN076AAXX  11034 06711 33/// /0302 11023 21057 39602 40167 57/// 333 91108 91204;
0128067110999992010011104004+46517+006667FM-12+046199999V0200201N000519999999N9999999N1-00221-00531101651ADDMA1999999096001MD1810011+9999OA149900261REMSYN076AAXX  11044 06711 33/// /0201 11022 21053 39600 40165 58001 333 91105 91203;
0128067110999992010011105004+46517+006667FM-12+046199999V0200301N001019999999N9999999N1-00211-00541101611ADDMA1999999095971MD1710071+9999OA149900211REMSYN076AAXX  11054 06711 33/// /0302 11021 21054 39597 40161 57007 333 91104 91202;
0207067110999992010011106004+46517+006667FM-12+046199999V0200201N001019999999N9999999N1-00191-00511101591ADDAA124000091AL19900091GJ100969KA1999N-00251MA1999999095951MD1610071+9999OA149900411REMSYN094AAXX  11064 06711 33/// /0202 11019 21051 39595 40159 56007 333 21025 55016 70000 91108 91204;EQDQ01  00002PRCP24
0128067110999992010011107004+46517+006667FM-12+046199999V0200301N001019999999N9999999N1-00211-00551101611ADDMA1999999095971MD1510031+9999OA149900261REMSYN076AAXX  11074 06711 33/// /0302 11021 21055 39597 40161 55003 333 91105 91203;
0128067110999992010011108004+46517+006667FM-12+046199999V0200101N001519999999N9999999N1-00221-00571101661ADDMA1999999096011MD1319999+9999OA149900311REMSYN076AAXX  11084 06711 33/// /0103 11022 21057 39601 40166 53/// 333 91106 91203;
0128067110999992010011109004+46517+006667FM-12+046199999V0200201N001019999999N9999999N1-00181-00531101741ADDMA1999999096091MD1310141+9999OA149900311REMSYN076AAXX  11094 06711 33/// /0202 11018 21053 39609 40174 53014 333 91106 91203;
0128067110999992010011110004+46517+006667FM-12+046199999V0200901N001019999999N9999999N1-00151-00531101771ADDMA1999999096131MD1119999+9999OA149900311REMSYN076AAXX  11104 06711 33/// /0902 11015 21053 39613 40177 51/// 333 91106 91203;
0128067110999992010011111004+46517+006667FM-12+046199999V0202601N001519999999N9999999N1-00141-00521101751ADDMA1999999096111MD1210101+9999OA149900261REMSYN076AAXX  11114 06711 33/// /2603 11014 21052 39611 40175 52010 333 91105 91203;
0128067110999992010011112004+46517+006667FM-12+046199999V0202701N001019999999N9999999N1-00111-00521101691ADDMA1999999096061MD1810031+9999OA149900361REMSYN076AAXX  11124 06711 33/// /2702 11011 21052 39606 40169 58003 333 91107 91204;
0128067110999992010011113004+46517+006667FM-12+046199999V0202201N001019999999N9999999N1-00111-00521101681ADDMA1999999096051MD1610081+9999OA149900311REMSYN076AAXX  11134 06711 33/// /2202 11011 21052 39605 40168 56008 333 91106 91203;
0087067110999992010011114004+46517+006667FM-12+046199999V0200301N001019999999N9999999N1-00111-00491101671ADDMA1999999096041REMSYN060AAXX  11144 06711 33/// /0302 11011 21049 39604 40167 5////;
0128067110999992010011115004+46517+006667FM-12+046199999V0200601N001019999999N9999999N1-00121-00491101701ADDMA1999999096071MD1310011+9999OA149900311REMSYN076AAXX  11154 06711 33/// /0602 11012 21049 39607 40170 53001 333 91106 91203;
0128067110999992010011116004+46517+006667FM-12+046199999V0200301N001019999999N9999999N1-00151-00491101741ADDMA1999999096101MD1210051+9999OA149900261REMSYN076AAXX  11164 06711 33/// /0302 11015 21049 39610 40174 52005 333 91105 91202;
0128067110999992010011117004+46517+006667FM-12+046199999V0200201N001519999999N9999999N1-00221-00471101781ADDMA1999999096121MD1110081+9999OA149900411REMSYN076AAXX  11174 06711 33/// /0203 11022 21047 39612 40178 51008 333 91108 91205;
0147067110999992010011118004+46517+006667FM-12+046199999V0200501N002119999999N9999999N1-00231-00461101831ADDKA1120M-00101MA1999999096171MD1310101+9999OA149900511REMSYN082AAXX  11184 06711 33/// /0504 11023 21046 39617 40183 53010 333 11010 91110 91205;
0128067110999992010011119004+46517+006667FM-12+046199999V0209999C002119999999N9999999N1-00241-00481101851ADDMA1999999096191MD1110091+9999OA149900511REMSYN076AAXX  11194 06711 33/// /0004 11024 21048 39619 40185 51009 333 91110 91205;
0128067110999992010011120004+46517+006667FM-12+046199999V0200101N002119999999N9999999N1-00231-00491101871ADDMA1999999096211MD1210091+9999OA149900511REMSYN076AAXX  11204 06711 33/// /0104 11023 21049 39621 40187 52009 333 91110 91205;
0128067110999992010011121004+46517+006667FM-12+046199999V0200101N001019999999N9999999N1-00181-00451101891ADDMA1999999096241MD1210071+9999OA149900511REMSYN076AAXX  11214 06711 33/// /0102 11018 21045 39624 40189 52007 333 91110 91205;
0128067110999992010011122004+46517+006667FM-12+046199999V0200301N000519999999N9999999N1-00171-00431101911ADDMA1999999096261MD1210071+9999OA149900311REMSYN076AAXX  11224 06711 33/// /0301 11017 21043 39626 40191 52007 333 91106 91204;
0128067110999992010011123004+46517+006667FM-12+046199999V0202901N001019999999N9999999N1-00151-00421101921ADDMA1999999096271MD1210061+9999OA149900211REMSYN076AAXX  11234 06711 33/// /2902 11015 21042 39627 40192 52006 333 91104 91202;
0128067110999992010011200004+46517+006667FM-12+046199999V0203001N001019999999N9999999N1-00161-00421101901ADDMA1999999096251MD1010011+9999OA149900511REMSYN076AAXX  12004 06711 33/// /3002 11016 21042 39625 40190 50001 333 91110 91205;
0128067110999992010011201004+46517+006667FM-12+046199999V0200201N001019999999N9999999N1-00171-00411101861ADDMA1999999096211MD1710051+9999OA149900261REMSYN076AAXX  12014 06711 33/// /0202 11017 21041 39621 40186 57005 333 91105 91203;
0128067110999992010011202004+46517+006667FM-12+046199999V0203601N001019999999N9999999N1-00151-00391101861ADDMA1999999096211MD1719999+9999OA149900211REMSYN076AAXX  12024 06711 33/// /3602 11015 21039 39621 40186 57/// 333 91104 91202;
0128067110999992010011203004+46517+006667FM-12+046199999V0200201N001519999999N9999999N1-00181-00401101871ADDMA1999999096221MD1510031+9999OA149900361REMSYN076AAXX  12034 06711 33/// /0203 11018 21040 39622 40187 55003 333 91107 91204;
0128067110999992010011204004+46517+006667FM-12+046199999V0200101N001019999999N9999999N1-00181-00391101841ADDMA1999999096191MD1810021+9999OA149900361REMSYN076AAXX  12044 06711 33/// /0102 11018 21039 39619 40184 58002 333 91107 91204;
0128067110999992010011205004+46517+006667FM-12+046199999V0203401N001019999999N9999999N1-00171-00391101811ADDMA1999999096161MD1810051+9999OA149900311REMSYN076AAXX  12054 06711 33/// /3402 11017 21039 39616 40181 58005 333 91106 91204;
0207067110999992010011206004+46517+006667FM-12+046199999V0202701N001019999999N9999999N1-00171-00351101751ADDAA124000091AL19900091GJ100129KA1999N-00251MA1999999096111MD1810111+9999OA149900511REMSYN094AAXX  12064 06711 33/// /2702 11017 21035 39611 40175 58011 333 21025 55002 70000 91110 91205;EQDQ01  00002PRCP24
0128067110999992010011207004+46517+006667FM-12+046199999V0203301N001019999999N9999999N1-00181-00351101711ADDMA1999999096071MD1810121+9999OA149900311REMSYN076AAXX  12074 06711 33/// /3302 11018 21035 39607 40171 58012 333 91106 91203;
0128067110999992010011208004+46517+006667FM-12+046199999V0202401N000519999999N9999999N1-00181-00341101671ADDMA1999999096031MD1819999+9999OA149900311REMSYN076AAXX  12084 06711 33/// /2401 11018 21034 39603 40167 58/// 333 91106 91203;
0128067110999992010011209004+46517+006667FM-12+046199999V0209999C000019999999N9999999N1-00161-00401101611ADDMA1999999095981MD1710131+9999OA149900311REMSYN076AAXX  12094 06711 33/// /0000 11016 21040 39598 40161 57013 333 91106 91204;
0128067110999992010011210004+46517+006667FM-12+046199999V0202501N001019999999N9999999N1-00141-00371101541ADDMA1999999095911MD1810161+9999OA149900211REMSYN076AAXX  12104 06711 33/// /2502 11014 21037 39591 40154 58016 333 91104 91202;
0128067110999992010011211004+46517+006667FM-12+046199999V0209999C000019999999N9999999N1-00121-00371101461ADDMA1999999095841MD1610191+9999OA149900211REMSYN076AAXX  12114 06711 33/// /0000 11012 21037 39584 40146 56019 333 91104 91202;
0128067110999992010011212004+46517+006667FM-12+046199999V0202701N000519999999N9999999N1-00111-00371101381ADDMA1999999095771MD1810211+9999OA149900361REMSYN076AAXX  12124 06711 33/// /2701 11011 21037 39577 40138 58021 333 91107 91204;
0128067110999992010011213004+46517+006667FM-12+046199999V0202401N001019999999N9999999N1-00101-00371101271ADDMA1999999095671MD1810241+9999OA149900311REMSYN076AAXX  12134 06711 33/// /2402 11010 21037 39567 40127 58024 333 91106 91203;
0087067110999992010011214004+46517+006667FM-12+046199999V0200701N000519999999N9999999N1-00061-00391101171ADDMA1999999095581REMSYN060AAXX  12144 06711 33/// /0701 11006 21039 39558 40117 5////;
0128067110999992010011215004+46517+006667FM-12+046199999V0202501N000519999999N9999999N1-00071-00371101051ADDMA1999999095471MD1710301+9999OA149900361REMSYN076AAXX  12154 06711 33/// /2501 11007 21037 39547 40105 57030 333 91107 91204;
0128067110999992010011216004+46517+006667FM-12+046199999V0202601N001019999999N9999999N1-00081-00391101011ADDMA1999999095431MD1610241+9999OA149900211REMSYN076AAXX  12164 06711 33/// /2602 11008 21039 39543 40101 56024 333 91104 91202;
0128067110999992010011217004+46517+006667FM-12+046199999V0200301N001519999999N9999999N1-00131-00491100941ADDMA1999999095351MD1610231+9999OA149900411REMSYN076AAXX  12174 06711 33/// /0303 11013 21049 39535 40094 56023 333 91108 91204;
0147067110999992010011218004+46517+006667FM-12+046199999V0200201N001019999999N9999999N1-00151-00481100931ADDKA1120M-00061MA1999999095341MD1710131+9999OA149900411REMSYN082AAXX  12184 06711 33/// /0202 11015 21048 39534 40093 57013 333 11006 91108 91204;
0128067110999992010011219004+46517+006667FM-12+046199999V0200201N001519999999N9999999N1-00151-00471100921ADDMA1999999095331MD1710101+9999OA149900411REMSYN076AAXX  12194 06711 33/// /0203 11015 21047 39533 40092 57010 333 91108 91204;
0128067110999992010011220004+46517+006667FM-12+046199999V0200101N001019999999N9999999N1-00161-00471100861ADDMA1999999095271MD1710081+9999OA149900261REMSYN076AAXX  12204 06711 33/// /0102 11016 21047 39527 40086 57008 333 91105 91203;
0128067110999992010011221004+46517+006667FM-12+046199999V0200101N002119999999N9999999N1-00191-00501100791ADDMA1999999095201MD1710141+9999OA149900411REMSYN076AAXX  12214 06711 33/// /0104 11019 21050 39520 40079 57014 333 91108 91204;
0128067110999992010011222004+46517+006667FM-12+046199999V0200101N001519999999N9999999N1-00191-00481100831ADDMA1999999095231MD1710101+9999OA149900411REMSYN076AAXX  12224 06711 33/// /0103 11019 21048 39523 40083 57010 333 91108 91204;
0128067110999992010011223004+46517+006667FM-12+046199999V0200401N001019999999N9999999N1-00161-00441100861ADDMA1999999095271MD1510001+9999OA149900411REMSYN076AAXX  12234 06711 33/// /0402 11016 21044 39527 40086 55000 333 91108 91204;
0128067110999992010011300004+46517+006667FM-12+046199999V0200101N001019999999N9999999N1-00141-00421100821ADDMA1999999095231MD1010031+9999OA149900411REMSYN076AAXX  13004 06711 33/// /0102 11014 21042 39523 40082 50003 333 91108 91204;
0128067110999992010011301004+46517+006667FM-12+046199999V0203101N001019999999N9999999N1-00111-00391100741ADDMA1999999095161MD1810071+9999OA149900151REMSYN076AAXX  13014 06711 33/// /3102 11011 21039 39516 40074 58007 333 91103 91202;
0128067110999992010011302004+46517+006667FM-12+046199999V0202001N000519999999N9999999N1-00111-00351100671ADDMA1999999095101MD1719999+9999OA149900211REMSYN076AAXX  13024 06711 33/// /2001 11011 21035 39510 40067 57/// 333 91104 91202;
0128067110999992010011303004+46517+006667FM-12+046199999V0202601N001019999999N9999999N1-00131-00301100671ADDMA1999999095091MD1719999+9999OA149900411REMSYN076AAXX  13034 06711 33/// /2602 11013 21030 39509 40067 57/// 333 91108 91204;
0145067110999992010011304004+46517+006667FM-12+046199999V0202801N000519999999N9999999N1-00141-00261100691ADDAA101000021MA1999999095111MD1510051+9999OA149900151REMSYN082AAXX  13044 06711 23/// /2801 11014 21026 39511 40069 55005 333 69915 91103 91202;
0145067110999992010011305004+46517+006667FM-12+046199999V0209999C000019999999N9999999N1-00151-00221100711ADDAA101000591MA1999999095131MD1210031+9999OA149900151REMSYN082AAXX  13054 06711 23/// /0000 11015 21022 39513 40071 52003 333 69965 91103 91202;
0211067110999992010011306004+46517+006667FM-12+046199999V0203001N000519999999N9999999N1-00151-00221100731ADDAA112001091AA224001391AL11200191GJ100189KA1999N-00191MA1999999095151MD1210061+9999OA149900411REMSYN106AAXX  13064 06711 03/// /3001 11015 21022 39515 40073 52006 60012 333 21019 55003 69965 70012 91108 91204;
0145067110999992010011307004+46517+006667FM-12+046199999V0202701N001019999999N9999999N1-00101-00181100781ADDAA101000391MA1999999095201MD1310091+9999OA149900151REMSYN082AAXX  13074 06711 23/// /2702 11010 21018 39520 40078 53009 333 69935 91103 91202;
0145067110999992010011308004+46517+006667FM-12+046199999V0202901N001019999999N9999999N1-00091-00161100861ADDAA101000891MA1999999095281MD1310151+9999OA149900211REMSYN082AAXX  13084 06711 23/// /2902 11009 21016 39528 40086 53015 333 69975 91104 91203;
0145067110999992010011309004+46517+006667FM-12+046199999V0202901N000519999999N9999999N1-00041-00121100901ADDAA101000591MA1999999095331MD1210181+9999OA149900211REMSYN082AAXX  13094 06711 23/// /2901 11004 21012 39533 40090 52018 333 69945 91104 91203;
0145067110999992010011310004+46517+006667FM-12+046199999V0202801N001019999999N9999999N1-00021-00091100961ADDAA101000591MA1999999095391MD1110191+9999OA149900151REMSYN082AAXX  13104 06711 23/// /2802 11002 21009 39539 40096 51019 333 69955 91103 91202;
0145067110999992010011311004+46517+006667FM-12+046199999V0201401N001019999999N9999999N1+00031-00021100961ADDAA101000021MA1999999095401MD1210121+9999OA149900151REMSYN082AAXX  13114 06711 23/// /1402 10003 21002 39540 40096 52012 333 69925 91103 91202;
0151067110999992010011312004+46517+006667FM-12+046199999V0202901N000519999999N9999999N1+00051-00011100971ADDAA106002091MA1999999095411MD1210081+9999OA149900211REMSYN088AAXX  13124 06711 03/// /2901 10005 21001 39541 40097 52008 60021 333 69935 91104 91203;
0145067110999992010011313004+46517+006667FM-12+046199999V0200101N000519999999N9999999N1+00091+00021100961ADDAA101001091MA1999999095411MD1210021+9999OA149900211REMSYN082AAXX  13134 06711 23/// /0101 10009 20002 39541 40096 52002 333 69995 91104 91202;
0145067110999992010011314004+46517+006667FM-12+046199999V0209999C000019999999N9999999N1+00071+00031100981ADDAA101002091MA1999999095431MD1219999+9999OA149900151REMSYN082AAXX  13144 06711 23/// /0000 10007 20003 39543 40098 52/// 333 60025 91103 91202;
0145067110999992010011315004+46517+006667FM-12+046199999V0209999C000019999999N9999999N1+00071+00031101021ADDAA101001091MA1999999095471MD1210061+9999OA149900211REMSYN082AAXX  13154 06711 23/// /0000 10007 20003 39547 40102 52006 333 60015 91104 91202;
0145067110999992010011316004+46517+006667FM-12+046199999V0200601N001019999999N9999999N1+00071+00041101071ADDAA101000891MA1999999095511MD1310101+9999OA149900151REMSYN082AAXX  13164 06711 23/// /0602 10007 20004 39551 40107 53010 333 69985 91103 91202;
0145067110999992010011317004+46517+006667FM-12+046199999V0200301N001019999999N9999999N1+00131+00061101061ADDAA101000591MA1999999095521MD1110091+9999OA149900211REMSYN082AAXX  13174 06711 23/// /0302 10013 20006 39552 40106 51009 333 69945 91104 91202;
0170067110999992010011318004+46517+006667FM-12+046199999V0209999C000019999999N9999999N1+00131+00061101101ADDAA112007991KA1120M+00131MA1999999095551MD1110081+9999OA149900211REMSYN094AAXX  13184 06711 03/// /0000 10013 20006 39555 40110 51008 60082 333 10013 69925 91104 91203;
0128067110999992010011319004+46517+006667FM-12+046199999V0200501N001519999999N9999999N1+00141+00051101061ADDMA1999999095521MD1010011+9999OA149900211REMSYN076AAXX  13194 06711 33/// /0503 10014 20005 39552 40106 50001 333 91104 91203;
0128067110999992010011320004+46517+006667FM-12+046199999V0200201N001519999999N9999999N1+00111+00011101051ADDMA1999999095501MD1810021+9999OA149900311REMSYN076AAXX  13204 06711 33/// /0203 10011 20001 39550 40105 58002 333 91106 91203;
0128067110999992010011321004+46517+006667FM-12+046199999V0200201N001519999999N9999999N1+00061-00051101041ADDMA1999999095481MD1710071+9999OA149900311REMSYN076AAXX  13214 06711 33/// /0203 10006 21005 39548 40104 57007 333 91106 91203;
0128067110999992010011322004+46517+006667FM-12+046199999V0200301N002119999999N9999999N1+00021-00141100991ADDMA1999999095431MD1710091+9999OA149900411REMSYN076AAXX  13224 06711 33/// /0304 10002 21014 39543 40099 57009 333 91108 91204;
0128067110999992010011323004+46517+006667FM-12+046199999V0200101N001519999999N9999999N1-00011-00131100971ADDMA1999999095401MD1710101+9999OA149900411REMSYN076AAXX  13234 06711 33/// /0103 11001 21013 39540 40097 57010 333 91108 91204;
0128067110999992010011400004+46517+006667FM-12+046199999V0200401N001519999999N9999999N1+00021-00141100881ADDMA1999999095321MD1710161+9999OA149900411REMSYN076AAXX  14004 06711 33/// /0403 10002 21014 39532 40088 57016 333 91108 91204;
0128067110999992010011401004+46517+006667FM-12+046199999V0200201N001519999999N9999999N1-00021-00171100891ADDMA1999999095321MD1710111+9999OA149900361REMSYN076AAXX  14014 06711 33/// /0203 11002 21017 39532 40089 57011 333 91107 91205;
0128067110999992010011402004+46517+006667FM-12+046199999V0200301N001519999999N9999999N1+00081-00081100861ADDMA1999999095321MD1719999+9999OA149900361REMSYN076AAXX  14024 06711 33/// /0303 10008 21008 39532 40086 57/// 333 91107 91205;
0087067110999992010011403004+46517+006667FM-12+046199999V0200401N001519999999N9999999N1+00141+00001100801ADDMA1999999095271REMSYN060AAXX  14034 06711 33/// /0403 10014 20000 39527 40080 5////;
0128067110999992010011404004+46517+006667FM-12+046199999V0200201N002119999999N9999999N1+00111-00051100731ADDMA1999999095201MD1810121+9999OA149900361REMSYN076AAXX  14044 06711 33/// /0204 10011 21005 39520 40073 58012 333 91107 91204;
0128067110999992010011405004+46517+006667FM-12+046199999V0200101N002619999999N9999999N1-00031-00231100721ADDMA1999999095161MD1610161+9999OA149900511REMSYN076AAXX  14054 06711 33/// /0105 11003 21023 39516 40072 56016 333 91110 91206;
0188067110999992010011406004+46517+006667FM-12+046199999V0200801N000519999999N9999999N1-00031-00221100691ADDAA124008191AL11200891GJ100189KA1999N-00031MA1999999095131MD1610141+9999OA149900621REMSYN094AAXX  14064 06711 33/// /0801 11003 21022 39513 40069 56014 333 21003 55003 70082 91112 91207;
0128067110999992010011407004+46517+006667FM-12+046199999V0200401N002619999999N9999999N1+00051-00121100641ADDMA1999999095101MD1610101+9999OA149900621REMSYN076AAXX  14074 06711 33/// /0405 10005 21012 39510 40064 56010 333 91112 91207;
0128067110999992010011408004+46517+006667FM-12+046199999V0200501N001519999999N9999999N1+00131-00191100581ADDMA1999999095061MD1619999+9999OA149900721REMSYN076AAXX  14084 06711 33/// /0503 10013 21019 39506 40058 56/// 333 91114 91206;
0128067110999992010011409004+46517+006667FM-12+046199999V0200401N001519999999N9999999N1+00181-00121100551ADDMA1999999095041MD1610091+9999OA149900721REMSYN076AAXX  14094 06711 33/// /0403 10018 21012 39504 40055 56009 333 91114 91207;
0128067110999992010011410004+46517+006667FM-12+046199999V0200201N001519999999N9999999N1+00181-00111100591ADDMA1999999095081MD1510021+9999OA149900571REMSYN076AAXX  14104 06711 33/// /0203 10018 21011 39508 40059 55002 333 91111 91204;
0128067110999992010011411004+46517+006667FM-12+046199999V0200301N001519999999N9999999N1+00221-00081100581ADDMA1999999095081MD1210021+9999OA149900461REMSYN076AAXX  14114 06711 33/// /0303 10022 21008 39508 40058 52002 333 91109 91203;
0128067110999992010011412004+46517+006667FM-12+046199999V0209999C000019999999N9999999N1+00241-00041100541ADDMA1999999095051MD1010011+9999OA149900721REMSYN076AAXX  14124 06711 33/// /0000 10024 21004 39505 40054 50001 333 91114 91207;
0128067110999992010011413004+46517+006667FM-12+046199999V0202801N001019999999N9999999N1+00291-00041100491ADDMA1999999095011MD1710071+9999OA149900411REMSYN076AAXX  14134 06711 33/// /2802 10029 21004 39501 40049 57007 333 91108 91203;
0128067110999992010011414004+46517+006667FM-12+046199999V0200301N001019999999N9999999N1+00291+00001100441ADDMA1999999094961MD1710121+9999OA149900311REMSYN076AAXX  14144 06711 33/// /0302 10029 20000 39496 40044 57012 333 91106 91202;
0128067110999992010011415004+46517+006667FM-12+046199999V0202801N000519999999N9999999N1+00261-00041100471ADDMA1999999094981MD1710071+9999OA149900461REMSYN076AAXX  14154 06711 33/// /2801 10026 21004 39498 40047 57007 333 91109 91203;
0128067110999992010011416004+46517+006667FM-12+046199999V0201101N001019999999N9999999N1+00201-00061100531ADDMA1999999095031MD1310021+9999OA149900361REMSYN076AAXX  14164 06711 33/// /1102 10020 21006 39503 40053 53002 333 91107 91203;
0128067110999992010011417004+46517+006667FM-12+046199999V0200501N002119999999N9999999N1+00151-00081100631ADDMA1999999095111MD1310151+9999OA149900461REMSYN076AAXX  14174 06711 33/// /0504 10015 21008 39511 40063 53015 333 91109 91204;
0147067110999992010011418004+46517+006667FM-12+046199999V0200601N002119999999N9999999N1+00151-00091100731ADDKA1120M+00301MA1999999095211MD1310231+9999OA149900721REMSYN082AAXX  14184 06711 33/// /0604 10015 21009 39521 40073 53023 333 10030 91114 91206;
0128067110999992010011419004+46517+006667FM-12+046199999V0200201N001519999999N9999999N1+00121-00091100881ADDMA1999999095341MD1310311+9999OA149900461REMSYN076AAXX  14194 06711 33/// /0203 10012 21009 39534 40088 53031 333 91109 91204;
0128067110999992010011420004+46517+006667FM-12+046199999V0200201N002119999999N9999999N1+00111-00091100981ADDMA1999999095441MD1210331+9999OA149900461REMSYN076AAXX  14204 06711 33/// /0204 10011 21009 39544 40098 52033 333 91109 91205;
0128067110999992010011421004+46517+006667FM-12+046199999V0200201N001519999999N9999999N1+00131-00091101091ADDMA1999999095541MD1110331+9999OA149900461REMSYN076AAXX  14214 06711 33/// /0203 10013 21009 39554 40109 51033 333 91109 91205;
0128067110999992010011422004+46517+006667FM-12+046199999V0200201N001519999999N9999999N1+00131-00081101191ADDMA1999999095641MD1310301+9999OA149900411REMSYN076AAXX  14224 06711 33/// /0203 10013 21008 39564 40119 53030 333 91108 91205;
0128067110999992010011423004+46517+006667FM-12+046199999V0200201N001519999999N9999999N1+00141-00081101271ADDMA1999999095721MD1110281+9999OA149900361REMSYN076AAXX  14234 06711 33/// /0203 10014 21008 39572 40127 51028 333 91107 91203;
0128067110999992010011500004+46517+006667FM-12+046199999V0200301N001019999999N9999999N1+00161-00031101351ADDMA1999999095801MD1110261+9999OA149900461REMSYN076AAXX  15004 06711 33/// /0302 10016 21003 39580 40135 51026 333 91109 91205;
0128067110999992010011501004+46517+006667FM-12+046199999V0200601N001019999999N9999999N1+00191+00011101381ADDMA1999999095831MD1110191+9999OA149900261REMSYN076AAXX  15014 06711 33/// /0602 10019 20001 39583 40138 51019 333 91105 91203;
0128067110999992010011502004+46517+006667FM-12+046199999V0200101N001019999999N9999999N1+00181+00021101481ADDMA1999999095921MD1110201+9999OA149900211REMSYN076AAXX  15024 06711 33/// /0102 10018 20002 39592 40148 51020 333 91104 91203;
0087067110999992010011503004+46517+006667FM-12+046199999V0200501N001019999999N9999999N1+00181+00021101561ADDMA1999999096001REMSYN060AAXX  15034 06711 33/// /0502 10018 20002 39600 40156 5////;
0128067110999992010011504004+46517+006667FM-12+046199999V0200101N001019999999N9999999N1+00181+00031101631ADDMA1999999096061MD1110231+9999OA149900151REMSYN076AAXX  15044 06711 33/// /0102 10018 20003 39606 40163 51023 333 91103 91202;
0128067110999992010011505004+46517+006667FM-12+046199999V0200401N001019999999N9999999N1+00191+00031101721ADDMA1999999096151MD1310231+9999OA149900211REMSYN076AAXX  15054 06711 33/// /0402 10019 20003 39615 40172 53023 333 91104 91203;
0207067110999992010011506004+46517+006667FM-12+046199999V0200201N001019999999N9999999N1+00201+00041101791ADDAA124000091AL19900091GJ100969KA1999N+00111MA1999999096221MD1310221+9999OA149900461REMSYN094AAXX  15064 06711 33/// /0202 10020 20004 39622 40179 53022 333 20011 55016 70000 91109 91205;EQDQ01  00002PRCP24
0128067110999992010011507004+46517+006667FM-12+046199999V0200301N001519999999N9999999N1+00181+00021101921ADDMA1999999096341MD1310281+9999OA149900311REMSYN076AAXX  15074 06711 33/// /0303 10018 20002 39634 40192 53028 333 91106 91204;
0128067110999992010011508004+46517+006667FM-12+046199999V0200201N001519999999N9999999N1+00171+00021102001ADDMA1999999096411MD1219999+9999OA149900311REMSYN076AAXX  15084 06711 33/// /0203 10017 20002 39641 40200 52/// 333 91106 91204;
0128067110999992010011509004+46517+006667FM-12+046199999V0200101N001019999999N9999999N1+00321+00051102051ADDMA1999999096491MD1110271+9999OA149900311REMSYN076AAXX  15094 06711 33/// /0102 10032 20005 39649 40205 51027 333 91106 91204;
0128067110999992010011510004+46517+006667FM-12+046199999V0202101N000519999999N9999999N1+00381+00101102121ADDMA1999999096571MD1210231+9999OA149900311REMSYN076AAXX  15104 06711 33/// /2101 10038 20010 39657 40212 52023 333 91106 91204;
0128067110999992010011511004+46517+006667FM-12+046199999V0201701N000519999999N9999999N1+00381+00061102151ADDMA1999999096601MD1110191+9999OA149900261REMSYN076AAXX  15114 06711 33/// /1701 10038 20006 39660 40215 51019 333 91105 91203;
0128067110999992010011512004+46517+006667FM-12+046199999V0201901N001519999999N9999999N1+00421+00091102171ADDMA1999999096621MD1110131+9999OA149900311REMSYN076AAXX  15124 06711 33/// /1903 10042 20009 39662 40217 51013 333 91106 91204;
0128067110999992010011513004+46517+006667FM-12+046199999V0202001N001019999999N9999999N1+00401+00081102211ADDMA1999999096661MD1310091+9999OA149900311REMSYN076AAXX  15134 06711 33/// /2002 10040 20008 39666 40221 53009 333 91106 91203;
0128067110999992010011514004+46517+006667FM-12+046199999V0202201N001519999999N9999999N1+00401+00091102271ADDMA1999999096711MD1210111+9999OA149900311REMSYN076AAXX  15144 06711 33/// /2203 10040 20009 39671 40227 52011 333 91106 91203;
0128067110999992010011515004+46517+006667FM-12+046199999V0202001N000519999999N9999999N1+00371+00081102301ADDMA1999999096741MD1210121+9999OA149900311REMSYN076AAXX  15154 06711 33/// /2001 10037 20008 39674 40230 52012 333 91106 91203;
0128067110999992010011516004+46517+006667FM-12+046199999V0201501N000519999999N9999999N1+00301+00061102351ADDMA1999999096771MD1210111+9999OA149900261REMSYN076AAXX  15164 06711 33/// /1501 10030 20006 39677 40235 52011 333 91105 91203;
0128067110999992010011517004+46517+006667FM-12+046199999V0200201N001519999999N9999999N1+00131-00011102451ADDMA1999999096831MD1210121+9999OA149900261REMSYN076AAXX  15174 06711 33/// /0203 10013 21001 39683 40245 52012 333 91105 91203;
0147067110999992010011518004+46517+006667FM-12+046199999V0200401N002119999999N9999999N1+00051-00121102521ADDKA1120M+00431MA1999999096881MD1210141+9999OA149900361REMSYN082AAXX  15184 06711 33/// /0404 10005 21012 39688 40252 52014 333 10043 91107 91204;
0128067110999992010011519004+46517+006667FM-12+046199999V0200201N002619999999N9999999N1+00091-00101102521ADDMA1999999096891MD1210121+9999OA149900461REMSYN076AAXX  15194 06711 33/// /0205 10009 21010 39689 40252 52012 333 91109 91205;
0128067110999992010011520004+46517+006667FM-12+046199999V0200201N002119999999N9999999N1+00061-00131102551ADDMA1999999096911MD1210081+9999OA149900511REMSYN076AAXX  15204 06711 33/// /0204 10006 21013 39691 40255 52008 333 91110 91206;
0128067110999992010011521004+46517+006667FM-12+046199999V0200101N003619999999N9999999N1+00051-00151102541ADDMA1999999096901MD1210021+9999OA149900511REMSYN076AAXX  15214 06711 33/// /0107 10005 21015 39690 40254 52002 333 91110 91207;
0128067110999992010011522004+46517+006667FM-12+046199999V0200101N002119999999N9999999N1+00091-00131102561ADDMA1999999096921MD1210031+9999OA149900511REMSYN076AAXX  15224 06711 33/// /0104 10009 21013 39692 40256 52003 333 91110 91207;
0128067110999992010011523004+46517+006667FM-12+046199999V0200401N001019999999N9999999N1+00111-00121102581ADDMA1999999096951MD1210041+9999OA149900511REMSYN076AAXX  15234 06711 33/// /0402 10011 21012 39695 40258 52004 333 91110 91205;
0128067110999992010011600004+46517+006667FM-12+046199999V0200101N002119999999N9999999N1+00091-00141102591ADDMA1999999096951MD1010051+9999OA149900511REMSYN076AAXX  16004 06711 33/// /0104 10009 21014 39695 40259 50005 333 91110 91207;
0128067110999992010011601004+46517+006667FM-12+046199999V0200201N001019999999N9999999N1+00101-00131102561ADDMA1999999096931MD1010011+9999OA149900411REMSYN076AAXX  16014 06711 33/// /0202 10010 21013 39693 40256 50001 333 91108 91204;
0128067110999992010011602004+46517+006667FM-12+046199999V0200101N001519999999N9999999N1+00121-00141102541ADDMA1999999096911MD1710041+9999OA149900311REMSYN076AAXX  16024 06711 33/// /0103 10012 21014 39691 40254 57004 333 91106 91203;
0128067110999992010011603004+46517+006667FM-12+046199999V0200501N001519999999N9999999N1+00091-00151102521ADDMA1999999096891MD1719999+9999OA149900511REMSYN076AAXX  16034 06711 33/// /0503 10009 21015 39689 40252 57/// 333 91110 91205;
0128067110999992010011604004+46517+006667FM-12+046199999V0200201N001519999999N9999999N1+00081-00161102481ADDMA1999999096851MD1710081+9999OA149900261REMSYN076AAXX  16044 06711 33/// /0203 10008 21016 39685 40248 57008 333 91105 91203;
0128067110999992010011605004+46517+006667FM-12+046199999V0200301N001019999999N9999999N1+00061-00171102381ADDMA1999999096751MD1810161+9999OA149900261REMSYN076AAXX  16054 06711 33/// /0302 10006 21017 39675 40238 58016 333 91105 91203;
0207067110999992010011606004+46517+006667FM-12+046199999V0200201N001519999999N9999999N1+00061-00191102381ADDAA124000091AL19900091GJ103309KA1999N+00041MA1999999096751MD1710141+9999OA149900511REMSYN094AAXX  16064 06711 33/// /0203 10006 21019 39675 40238 57014 333 20004 55055 70000 91110 91207;EQDQ01  00002PRCP24
0128067110999992010011607004+46517+006667FM-12+046199999V0200101N002119999999N9999999N1+00061-00191102321ADDMA1999999096691MD1710161+9999OA149900361REMSYN076AAXX  16074 06711 33/// /0104 10006 21019 39669 40232 57016 333 91107 91204;
0128067110999992010011608004+46517+006667FM-12+046199999V0200201N000519999999N9999999N1+00061-00171102321ADDMA1999999096691MD1710061+9999OA149900361REMSYN076AAXX  16084 06711 33/// /0201 10006 21017 39669 40232 57006 333 91107 91204;
0128067110999992010011609004+46517+006667FM-12+046199999V0201801N000519999999N9999999N1+00141-00111102221ADDMA1999999096611MD1710141+9999OA149900361REMSYN076AAXX  16094 06711 33/// /1801 10014 21011 39661 40222 57014 333 91107 91204;
0128067110999992010011610004+46517+006667FM-12+046199999V0202601N001519999999N9999999N1+00151-00171102221ADDMA1999999096621MD1710071+9999OA149900311REMSYN076AAXX  16104 06711 33/// /2603 10015 21017 39662 40222 57007 333 91106 91203;
0128067110999992010011611004+46517+006667FM-12+046199999V0202601N002119999999N9999999N1+00141-00161102271ADDMA1999999096661MD1510031+9999OA149900361REMSYN076AAXX  16114 06711 33/// /2604 10014 21016 39666 40227 55003 333 91107 91204;
0163067110999992010011612004+46517+006667FM-12+046199999V0202601N001019999999N9999999N1+00171-00141102211ADDMA1999999096611MD1710011+9999OA149900361REMSYN076AAXX  16124 06711 33/// /2602 10017 21014 39661 40221 57000 333 91107 91204;EQDQ01+000072APCTENQ02+000002APC3  
0128067110999992010011613004+46517+006667FM-12+046199999V0202401N000519999999N9999999N1+00171-00111102141ADDMA1999999096541MD1710081+9999OA149900261REMSYN076AAXX  16134 06711 33/// /2401 10017 21011 39654 40214 57008 333 91105 91202;
0128067110999992010011614004+46517+006667FM-12+046199999V0201901N000519999999N9999999N1+00191-00081101991ADDMA1999999096411MD1719999+9999OA149900261REMSYN076AAXX  16144 06711 33/// /1901 10019 21008 39641 40199 57/// 333 91105 91202;
0128067110999992010011615004+46517+006667FM-12+046199999V0201301N000519999999N9999999N1+00201-00081101961ADDMA1999999096381MD1710231+9999OA149900361REMSYN076AAXX  16154 06711 33/// /1301 10020 21008 39638 40196 57023 333 91107 91204;
0128067110999992010011616004+46517+006667FM-12+046199999V0209999C000019999999N9999999N1+00181-00061101991ADDMA1999999096401MD1710141+9999OA149900261REMSYN076AAXX  16164 06711 33/// /0000 10018 21006 39640 40199 57014 333 91105 91203;
0128067110999992010011617004+46517+006667FM-12+046199999V0200201N001019999999N9999999N1+00181-00051102031ADDMA1999999096441MD1310031+9999OA149900151REMSYN076AAXX  16174 06711 33/// /0202 10018 21005 39644 40203 53003 333 91103 91202;
0189067110999992010011618004+46517+006667FM-12+046199999V0209999C000019999999N9999999N1+00181+00021102001ADDAA112000091KA1120M+00201MA1999999096411MD1010031+9999OA149900361REMSYN094AAXX  16184 06711 03/// /0000 10018 20002 39641 40200 50003 69922 333 10020 69925 91107 91204;EQDQ01  00002PRCP12
0145067110999992010011619004+46517+006667FM-12+046199999V0200501N001019999999N9999999N1+00181+00091102001ADDAA101000591MA1999999096411MD1710011+9999OA149900211REMSYN082AAXX  16194 06711 23/// /0502 10018 20009 39641 40200 57001 333 69965 91104 91203;
0145067110999992010011620004+46517+006667FM-12+046199999V0203001N001019999999N9999999N1+00261+00141101961ADDAA101000591MA1999999096391MD1710051+9999OA149900261REMSYN082AAXX  16204 06711 23/// /3002 10026 20014 39639 40196 57005 333 69965 91105 91202;
0145067110999992010011621004+46517+006667FM-12+046199999V0200701N000519999999N9999999N1+00221+00141101881ADDAA101000021MA1999999096311MD1710101+9999OA149900311REMSYN082AAXX  16214 06711 23/// /0701 10022 20014 39631 40188 57010 333 69925 91106 91203;
0145067110999992010011622004+46517+006667FM-12+046199999V0202801N003119999999N9999999N1+00351+00261101921ADDAA101000591MA1999999096371MD1510041+9999OA149900721REMSYN082AAXX  16224 06711 23/// /2806 10035 20026 39637 40192 55004 333 69965 91114 91206;
0145067110999992010011623004+46517+006667FM-12+046199999V0202601N004619999999N9999999N1+00461+00351102001ADDAA101000591MA1999999096471MD1310081+9999OA149901081REMSYN082AAXX  16234 06711 23/// /2609 10046 20035 39647 40200 53008 333 69955 91121 91209;
0151067110999992010011700004+46517+006667FM-12+046199999V0201401N001019999999N9999999N1+00321+00251102041ADDAA106003091MA1999999096481MD1210171+9999OA149901081REMSYN088AAXX  17004 06711 03/// /1402 10032 20025 39648 40204 52017 60031 333 69945 91121 91209;
0145067110999992010011701004+46517+006667FM-12+046199999V0209999C002119999999N9999999N1+00301+00251101981ADDAA101000021MA1999999096421MD1010051+9999OA149900931REMSYN082AAXX  17014 06711 23/// /0004 10030 20025 39642 40198 50005 333 69915 91118 91208;
0145067110999992010011702004+46517+006667FM-12+046199999V0202901N000519999999N9999999N1+00311+00261101961ADDAA101000391MA1999999096401MD1719999+9999OA149900311REMSYN082AAXX  17024 06711 23/// /2901 10031 20026 39640 40196 57/// 333 69935 91106 91204;
0087067110999992010011703004+46517+006667FM-12+046199999V0200101N000519999999N9999999N1+00331+00271101911ADDMA1999999096361REMSYN060AAXX  17034 06711 43/// /0101 10033 20027 39636 40191 5////;
0145067110999992010011704004+46517+006667FM-12+046199999V0200301N000519999999N9999999N1+00311+00261101961ADDAA101000891MA1999999096401MD1010021+9999OA149900361REMSYN082AAXX  17044 06711 23/// /0301 10031 20026 39640 40196 50002 333 69975 91107 91202;
0145067110999992010011705004+46517+006667FM-12+046199999V0200801N000519999999N9999999N1+00331+00281101921ADDAA101000391MA1999999096371MD1719999+9999OA149900361REMSYN082AAXX  17054 06711 23/// /0801 10033 20028 39637 40192 57/// 333 69935 91107 91203;
0211067110999992010011706004+46517+006667FM-12+046199999V0202601N000519999999N9999999N1+00341+00301101921ADDAA112006192AA224005692AL13600591GJ100069KA1999N+00151MA1999999096371MD1010011+9999OA149901081REMSYN106AAXX  17064 06711 03/// /2601 10034 20030 39637 40192 50001 60062 333 20015 55001 69935 70056 91121 91209;
0145067110999992010011707004+46517+006667FM-12+046199999V0203101N001019999999N9999999N1+00411+00361101971ADDAA101000391MA1999999096431MD1310031+9999OA149900311REMSYN082AAXX  17074 06711 23/// /3102 10041 20036 39643 40197 53003 333 69935 91106 91203;
0145067110999992010011708004+46517+006667FM-12+046199999V0200101N001019999999N9999999N1+00431+00381102081ADDAA101000021MA1999999096541MD1219999+9999OA149900311REMSYN082AAXX  17084 06711 23/// /0102 10043 20038 39654 40208 52/// 333 69925 91106 91203;
0145067110999992010011709004+46517+006667FM-12+046199999V0202901N002119999999N9999999N1+00491+00431102211ADDAA101000021MA1999999096671MD1210301+9999OA149900361REMSYN082AAXX  17094 06711 23/// /2904 10049 20043 39667 40221 52030 333 69915 91107 91204;
0145067110999992010011710004+46517+006667FM-12+046199999V0202901N001519999999N9999999N1+00591+00521102281ADDAA101000021MA1999999096761MD1210331+9999OA149900361REMSYN082AAXX  17104 06711 23/// /2903 10059 20052 39676 40228 52033 333 69925 91107 91204;
0128067110999992010011711004+46517+006667FM-12+046199999V0201501N000519999999N9999999N1+00691+00481102311ADDMA1999999096811MD1110271+9999OA149900361REMSYN076AAXX  17114 06711 33/// /1501 10069 20048 39681 40231 51027 333 91107 91204;
0151067110999992010011712004+46517+006667FM-12+046199999V0202501N001519999999N9999999N1+00741+00391102321ADDAA106000891MA1999999096831MD1210161+9999OA149900361REMSYN088AAXX  17124 06711 03/// /2503 10074 20039 39683 40232 52016 69981 333 60005 91107 91204;
0128067110999992010011713004+46517+006667FM-12+046199999V0202301N001519999999N9999999N1+00781+00301102321ADDMA1999999096841MD1210081+9999OA149900621REMSYN076AAXX  17134 06711 33/// /2303 10078 20030 39684 40232 52008 333 91112 91205;
0128067110999992010011714004+46517+006667FM-12+046199999V0202601N003119999999N9999999N1+00831+00061102341ADDMA1999999096861MD1219999+9999OA149900671REMSYN076AAXX  17144 06711 33/// /2606 10083 20006 39686 40234 52/// 333 91113 91207;
0128067110999992010011715004+46517+006667FM-12+046199999V0202901N002119999999N9999999N1+00731+00171102411ADDMA1999999096911MD1210081+9999OA149900721REMSYN076AAXX  17154 06711 33/// /2904 10073 20017 39691 40241 52008 333 91114 91207;
0128067110999992010011716004+46517+006667FM-12+046199999V0202601N001019999999N9999999N1+00731+00121102481ADDMA1999999096981MD1310141+9999OA149900721REMSYN076AAXX  17164 06711 33/// /2602 10073 20012 39698 40248 53014 333 91114 91207;
0128067110999992010011717004+46517+006667FM-12+046199999V0200201N001519999999N9999999N1+00461+00151102591ADDMA1999999097031MD1110171+9999OA149900571REMSYN076AAXX  17174 06711 33/// /0203 10046 20015 39703 40259 51017 333 91111 91205;
0170067110999992010011718004+46517+006667FM-12+046199999V0200301N001519999999N9999999N1+00381+00091102651ADDAA112000891KA1120M+00861MA1999999097071MD1110161+9999OA149900721REMSYN094AAXX  17184 06711 03/// /0303 10038 20009 39707 40265 51016 69982 333 10086 60005 91114 91207;
0128067110999992010011719004+46517+006667FM-12+046199999V0200201N002119999999N9999999N1+00331+00041102701ADDMA1999999097111MD1310131+9999OA149900411REMSYN076AAXX  17194 06711 33/// /0204 10033 20004 39711 40270 53013 333 91108 91204;
0128067110999992010011720004+46517+006667FM-12+046199999V0200201N002119999999N9999999N1+00281+00061102751ADDMA1999999097141MD1210111+9999OA149900411REMSYN076AAXX  17204 06711 33/// /0204 10028 20006 39714 40275 52011 333 91108 91204;
0128067110999992010011721004+46517+006667FM-12+046199999V0200201N002119999999N9999999N1+00321+00051102751ADDMA1999999097151MD1210081+9999OA149900571REMSYN076AAXX  17214 06711 33/// /0204 10032 20005 39715 40275 52008 333 91111 91205;
0128067110999992010011722004+46517+006667FM-12+046199999V0200501N001519999999N9999999N1+00361+00091102741ADDMA1999999097151MD1210041+9999OA149900411REMSYN076AAXX  17224 06711 33/// /0503 10036 20009 39715 40274 52004 333 91108 91204;
0128067110999992010011723004+46517+006667FM-12+046199999V0200301N001519999999N9999999N1+00341+00091102761ADDMA1999999097161MD1210021+9999OA149900411REMSYN076AAXX  17234 06711 33/// /0303 10034 20009 39716 40276 52002 333 91108 91204;
0128067110999992010011800004+46517+006667FM-12+046199999V0200101N001519999999N9999999N1+00341+00091102741ADDMA1999999097151MD1010001+9999OA149900721REMSYN076AAXX  18004 06711 33/// /0103 10034 20009 39715 40274 50000 333 91114 91207;
0128067110999992010011801004+46517+006667FM-12+046199999V0200101N001519999999N9999999N1+00371+00101102751ADDMA1999999097161MD1210011+9999OA149900311REMSYN076AAXX  18014 06711 33/// /0103 10037 20010 39716 40275 52001 333 91106 91204;
0087067110999992010011802004+46517+006667FM-12+046199999V0200301N001019999999N9999999N1+00331+00091102751ADDMA1999999097151REMSYN060AAXX  18024 06711 33/// /0302 10033 20009 39715 40275 5////;
0087067110999992010011803004+46517+006667FM-12+046199999V0203401N000519999999N9999999N1+00301+00101102781ADDMA1999999097181REMSYN060AAXX  18034 06711 33/// /3401 10030 20010 39718 40278 5////;
0128067110999992010011804004+46517+006667FM-12+046199999V0200201N001019999999N9999999N1+00301+00101102741ADDMA1999999097141MD1810021+9999OA149900261REMSYN076AAXX  18044 06711 33/// /0202 10030 20010 39714 40274 58002 333 91105 91203;
0128067110999992010011805004+46517+006667FM-12+046199999V0200201N001519999999N9999999N1+00231+00051102751ADDMA1999999097131MD1710021+9999OA149900261REMSYN076AAXX  18054 06711 33/// /0203 10023 20005 39713 40275 57002 333 91105 91203;
0188067110999992010011806004+46517+006667FM-12+046199999V0200301N001019999999N9999999N1+00221-00051102781ADDAA124001091AL14800091GJ102109KA1999N+00231MA1999999097161MD1510021+9999OA149900411REMSYN094AAXX  18064 06711 33/// /0302 10022 21005 39716 40278 55002 333 20023 55035 70009 91108 91204;
0128067110999992010011807004+46517+006667FM-12+046199999V0200201N002119999999N9999999N1+00191-00141102821ADDMA1999999097191MD1210051+9999OA149900361REMSYN076AAXX  18074 06711 33/// /0204 10019 21014 39719 40282 52005 333 91107 91204;
