0137067270999992010010100004+46300+007850FM-12+064099999V0209999C000019999999N9999999N1-00121-00141999999ADDMA1999999091891MD1810131+9999ME1312589OA149900261REMSYN076AAXX  01004 06727 33/// /0000 11012 21014 39189 48258 58013 333 91105 91203;
0137067270999992010010101004+46300+007850FM-12+064099999V0200901N000519999999N9999999N1-00121-00131999999ADDMA1999999091851MD1710141+9999ME1312559OA149900211REMSYN076AAXX  01014 06727 33/// /0901 11012 21013 39185 48255 57014 333 91104 91202;
0137067270999992010010102004+46300+007850FM-12+064099999V0201101N001519999999N9999999N1-00021-00071999999ADDMA1999999091801MD1719999+9999ME1312539OA149900211REMSYN076AAXX  01024 06727 33/// /1103 11002 21007 39180 48253 57/// 333 91104 91203;
0096067270999992010010103004+46300+007850FM-12+064099999V0201201N000519999999N9999999N1-00141-00181999999ADDMA1999999091761ME1312469REMSYN060AAXX  01034 06727 43/// /1201 11014 21018 39176 48246 5////;
0096067270999992010010104004+46300+007850FM-12+064099999V0200301N000519999999N9999999N1-00071-00101999999ADDMA1999999091711ME1312449REMSYN060AAXX  01044 06727 33/// /0301 11007 21010 39171 48244 5////;
0137067270999992010010105004+46300+007850FM-12+064099999V0200801N001019999999N9999999N1-00061-00091999999ADDMA1999999091651MD1810151+9999ME1312399OA149900151REMSYN076AAXX  01054 06727 33/// /0802 11006 21009 39165 48239 58015 333 91103 91202;
0215067270999992010010106004+46300+007850FM-12+064099999V0201201N000519999999N9999999N1-00101-00181999999ADDAA124006691AL13000691GJ100009IA2999-00509KA1999N-00161MA1999999091631MD1610131+9999ME1312369OA149900211REMSYN100AAXX  01064 06727 33/// /1201 11010 21018 39163 48236 56013 333 21016 3/105 55000 70065 91104 91203;
0137067270999992010010107004+46300+007850FM-12+064099999V0200601N000519999999N9999999N1-00121-00151999999ADDMA1999999091631MD1710081+9999ME1312369OA149900211REMSYN076AAXX  01074 06727 33/// /0601 11012 21015 39163 48236 57008 333 91104 91203;
0137067270999992010010108004+46300+007850FM-12+064099999V0201101N000519999999N9999999N1-00051-00111999999ADDMA1999999091691MD1210041+9999ME1312429OA149900211REMSYN076AAXX  01084 06727 33/// /1101 11005 21011 39169 48242 52004 333 91104 91203;
0137067270999992010010109004+46300+007850FM-12+064099999V0202301N000519999999N9999999N1+00011-00031999999ADDMA1999999091741MD1210111+9999ME1312489OA149900211REMSYN076AAXX  01094 06727 33/// /2301 10001 21003 39174 48248 52011 333 91104 91203;
0137067270999992010010110004+46300+007850FM-12+064099999V0209999C000019999999N9999999N1+00031-00031999999ADDMA1999999091771MD1110141+9999ME1312519OA149900101REMSYN076AAXX  01104 06727 33/// /0000 10003 21003 39177 48251 51014 333 91102 91202;
0137067270999992010010111004+46300+007850FM-12+064099999V0202701N000519999999N9999999N1+00171+00081999999ADDMA1999999091761MD1210071+9999ME1312549OA149900151REMSYN076AAXX  01114 06727 33/// /2701 10017 20008 39176 48254 52007 333 91103 91202;
0137067270999992010010112004+46300+007850FM-12+064099999V0201101N000519999999N9999999N1+00291+00051999999ADDMA1999999091741MD1010001+9999ME1312559OA149900211REMSYN076AAXX  01124 06727 33/// /1101 10029 20005 39174 48255 50000 333 91104 91203;
0137067270999992010010113004+46300+007850FM-12+064099999V0201001N000519999999N9999999N1+00401+00161999999ADDMA1999999091741MD1710031+9999ME1312579OA149900101REMSYN076AAXX  01134 06727 33/// /1001 10040 20016 39174 48257 57003 333 91102 91202;
0137067270999992010010114004+46300+007850FM-12+064099999V0209999C000019999999N9999999N1+00431+00171999999ADDMA1999999091801MD1319999+9999ME1312639OA149900151REMSYN076AAXX  01144 06727 33/// /0000 10043 20017 39180 48263 53/// 333 91103 91202;
0137067270999992010010115004+46300+007850FM-12+064099999V0202701N002119999999N9999999N1+00341+00131999999ADDMA1999999091941MD1210201+9999ME1312739OA149900511REMSYN076AAXX  01154 06727 33/// /2704 10034 20013 39194 48273 52020 333 91110 91207;
0137067270999992010010116004+46300+007850FM-12+064099999V0203201N000519999999N9999999N1+00341+00111999999ADDMA1999999092041MD1210301+9999ME1312829OA149900511REMSYN076AAXX  01164 06727 33/// /3201 10034 20011 39204 48282 52030 333 91110 91207;
0137067270999992010010117004+46300+007850FM-12+064099999V0201001N000519999999N9999999N1+00391+00161999999ADDMA1999999092131MD1210331+9999ME1312919OA149900411REMSYN076AAXX  01174 06727 33/// /1001 10039 20016 39213 48291 52033 333 91108 91204;
0198067270999992010010118004+46300+007850FM-12+064099999V0202801N006219999999N9999999N1+00401+00181999999ADDAA112000091KA1120M+00451MA1999999092211MD1210271+9999ME1312989OA149901341REMSYN094AAXX  01184 06727 03/// /2812 10040 20018 39221 48298 52027 69912 333 10045 69915 91126 91212;EQDQ01  00002PRCP12
0137067270999992010010119004+46300+007850FM-12+064099999V0202901N006719999999N9999999N1+00411+00081999999ADDMA1999999092331MD1310291+9999ME1313099OA149901391REMSYN076AAXX  01194 06727 33/// /2913 10041 20008 39233 48309 53029 333 91127 91215;
0154067270999992010010120004+46300+007850FM-12+064099999V0202901N008219999999N9999999N1+00371+00031999999ADDAA101000021MA1999999092451MD1310321+9999ME1313189OA149901391REMSYN082AAXX  01204 06727 23/// /2916 10037 20003 39245 48318 53032 333 69915 91127 91218;
0137067270999992010010121004+46300+007850FM-12+064099999V0202901N008219999999N9999999N1+00351+00011999999ADDMA1999999092571MD1210361+9999ME1313289OA149901391REMSYN076AAXX  01214 06727 33/// /2916 10035 20001 39257 48328 52036 333 91127 91218;
0137067270999992010010122004+46300+007850FM-12+064099999V0202901N009319999999N9999999N1+00311-00011999999ADDMA1999999092651MD1110321+9999ME1313349OA149901291REMSYN076AAXX  01224 06727 33/// /2918 10031 21001 39265 48334 51032 333 91125 91218;
0137067270999992010010123004+46300+007850FM-12+064099999V0202901N008719999999N9999999N1+00241-00091999999ADDMA1999999092721MD1110271+9999ME1313389OA149901441REMSYN076AAXX  01234 06727 33/// /2917 10024 21009 39272 48338 51027 333 91128 91220;
0179067270999992010010200004+46300+007850FM-12+064099999V0202901N009319999999N9999999N1+00211-00151999999ADDAA106000091MA1999999092771MD1110201+9999ME1313419OA149901491REMSYN088AAXX  02004 06727 03/// /2918 10021 21015 39277 48341 51020 69911 333 60005 91129 91220;EQDQ01  00002PRCP06
0137067270999992010010201004+46300+007850FM-12+064099999V0203001N007219999999N9999999N1+00171-00181999999ADDMA1999999092841MD1110191+9999ME1313469OA149901491REMSYN076AAXX  02014 06727 33/// /3014 10017 21018 39284 48346 51019 333 91129 91219;
0096067270999992010010202004+46300+007850FM-12+064099999V0202901N009819999999N9999999N1+00161-00251999999ADDMA1999999092911ME1313529REMSYN060AAXX  02024 06727 33/// /2919 10016 21025 39291 48352 5////;
0137067270999992010010203004+46300+007850FM-12+064099999V0202901N010319999999N9999999N1+00091-00301999999ADDMA1999999093011MD1310241+9999ME1313599OA149901751REMSYN076AAXX  02034 06727 33/// /2920 10009 21030 39301 48359 53024 333 91134 91223;
0137067270999992010010204004+46300+007850FM-12+064099999V0202901N007719999999N9999999N1+00081-00391999999ADDMA1999999093131MD1310291+9999ME1313699OA149901751REMSYN076AAXX  02044 06727 33/// /2915 10008 21039 39313 48369 53029 333 91134 91223;
0137067270999992010010205004+46300+007850FM-12+064099999V0203001N008219999999N9999999N1+00031-00461999999ADDMA1999999093181MD1110271+9999ME1313719OA149901441REMSYN076AAXX  02054 06727 33/// /3016 10003 21046 39318 48371 51027 333 91128 91220;
0257067270999992010010206004+46300+007850FM-12+064099999V0203001N009319999999N9999999N1-00021-00541999999ADDAA112000091AA224000391AL11200091GJ100009IA2999-00109KA1999N+00021MA1999999093241MD1110231+9999ME1313759OA149901751REMSYN112AAXX  02064 06727 03/// /3018 11002 21054 39324 48375 51023 69912 333 20002 3/101 55000 60005 70002 91134 91223;EQDQ01  00002PRCP12
0137067270999992010010207004+46300+007850FM-12+064099999V0202901N009819999999N9999999N1-00061-00551999999ADDMA1999999093351MD1310221+9999ME1313839OA149901601REMSYN076AAXX  02074 06727 33/// /2919 11006 21055 39335 48383 53022 333 91131 91221;
0096067270999992010010208004+46300+007850FM-12+064099999V0202901N008719999999N9999999N1-00081-00631999999ADDMA1999999093411ME1313889REMSYN060AAXX  02084 06727 33/// /2917 11008 21063 39341 48388 5////;
0137067270999992010010209004+46300+007850FM-12+064099999V0202901N009819999999N9999999N1-00071-00691999999ADDMA1999999093541MD1310301+9999ME1313999OA149901601REMSYN076AAXX  02094 06727 33/// /2919 11007 21069 39354 48399 53030 333 91131 91221;
0137067270999992010010210004+46300+007850FM-12+064099999V0202901N009319999999N9999999N1-00091-00681999999ADDMA1999999093651MD1310301+9999ME1314089OA149901601REMSYN076AAXX  02104 06727 33/// /2918 11009 21068 39365 48408 53030 333 91131 91220;
0137067270999992010010211004+46300+007850FM-12+064099999V0202701N011319999999N9999999N1+00011-00881999999ADDMA1999999093671MD1110261+9999ME1314129OA149901601REMSYN076AAXX  02114 06727 33/// /2722 10001 21088 39367 48412 51026 333 91131 91222;
0137067270999992010010212004+46300+007850FM-12+064099999V0202701N009819999999N9999999N1+00051-01211999999ADDMA1999999093721MD1110181+9999ME1314189OA149901751REMSYN076AAXX  02124 06727 33/// /2719 10005 21121 39372 48418 51018 333 91134 91223;
0137067270999992010010213004+46300+007850FM-12+064099999V0202601N009819999999N9999999N1+00031-01321999999ADDMA1999999093801MD1310151+9999ME1314249OA149901801REMSYN076AAXX  02134 06727 33/// /2619 10003 21132 39380 48424 53015 333 91135 91223;
0137067270999992010010214004+46300+007850FM-12+064099999V0202601N009319999999N9999999N1+00031-01541999999ADDMA1999999093851MD1219999+9999ME1314289OA149901801REMSYN076AAXX  02144 06727 33/// /2618 10003 21154 39385 48428 52/// 333 91135 91223;
0137067270999992010010215004+46300+007850FM-12+064099999V0202601N011819999999N9999999N1+00001-01481999999ADDMA1999999093991MD1210271+9999ME1314399OA149901801REMSYN076AAXX  02154 06727 33/// /2623 10000 21148 39399 48439 52027 333 91135 91223;
0137067270999992010010216004+46300+007850FM-12+064099999V0202601N012319999999N9999999N1-00061-01511999999ADDMA1999999094021MD1210221+9999ME1314399OA149901851REMSYN076AAXX  02164 06727 33/// /2624 11006 21151 39402 48439 52022 333 91136 91224;
0137067270999992010010217004+46300+007850FM-12+064099999V0202601N011319999999N9999999N1-00131-01451999999ADDMA1999999094141MD1210291+9999ME1314479OA149901851REMSYN076AAXX  02174 06727 33/// /2622 11013 21145 39414 48447 52029 333 91136 91224;
0156067270999992010010218004+46300+007850FM-12+064099999V0202701N011819999999N9999999N1-00171-01511999999ADDKA1120M+00061MA1999999094251MD1210261+9999ME1314559OA149901851REMSYN082AAXX  02184 06727 33/// /2723 11017 21151 39425 48455 52026 333 10006 91136 91225;
0137067270999992010010219004+46300+007850FM-12+064099999V0202901N006719999999N9999999N1-00281-01201999999ADDMA1999999094351MD1310331+9999ME1314609OA149901801REMSYN076AAXX  02194 06727 33/// /2913 11028 21120 39435 48460 53033 333 91135 91225;
0137067270999992010010220004+46300+007850FM-12+064099999V0202901N007719999999N9999999N1-00331-01171999999ADDMA1999999094391MD1210251+9999ME1314629OA149901801REMSYN076AAXX  02204 06727 33/// /2915 11033 21117 39439 48462 52025 333 91135 91224;
0137067270999992010010221004+46300+007850FM-12+064099999V0202801N006719999999N9999999N1-00381-01111999999ADDMA1999999094431MD1210181+9999ME1314639OA149901851REMSYN076AAXX  02214 06727 33/// /2813 11038 21111 39443 48463 52018 333 91136 91225;
0137067270999992010010222004+46300+007850FM-12+064099999V0200501N001019999999N9999999N1-00441-01111999999ADDMA1999999094501MD1210151+9999ME1314679OA149901391REMSYN076AAXX  02224 06727 33/// /0502 11044 21111 39450 48467 52015 333 91127 91216;
0137067270999992010010223004+46300+007850FM-12+064099999V0209999C000019999999N9999999N1-00471-01181999999ADDMA1999999094591MD1310201+9999ME1314749OA149900931REMSYN076AAXX  02234 06727 33/// /0000 11047 21118 39459 48474 53020 333 91118 91209;
0137067270999992010010300004+46300+007850FM-12+064099999V0200901N001019999999N9999999N1-00621-01121999999ADDMA1999999094621MD1110191+9999ME1314719OA149901851REMSYN076AAXX  03004 06727 33/// /0902 11062 21112 39462 48471 51019 333 91136 91225;
0137067270999992010010301004+46300+007850FM-12+064099999V0201401N001019999999N9999999N1-00561-01141999999ADDMA1999999094661MD1210161+9999ME1314769OA149900261REMSYN076AAXX  03014 06727 33/// /1402 11056 21114 39466 48476 52016 333 91105 91202;
0096067270999992010010302004+46300+007850FM-12+064099999V0201101N001519999999N9999999N1-00651-01201999999ADDMA1999999094721ME1314789REMSYN060AAXX  03024 06727 33/// /1103 11065 21120 39472 48478 5////;
0096067270999992010010303004+46300+007850FM-12+064099999V0200801N003119999999N9999999N1-00631-01231999999ADDMA1999999094711ME1314789REMSYN060AAXX  03034 06727 33/// /0806 11063 21123 39471 48478 5////;
0137067270999992010010304004+46300+007850FM-12+064099999V0200801N003119999999N9999999N1-00641-01281999999ADDMA1999999094661MD1010001+9999ME1314749OA149900461REMSYN076AAXX  03044 06727 33/// /0806 11064 21128 39466 48474 50000 333 91109 91206;
0137067270999992010010305004+46300+007850FM-12+064099999V0200901N003119999999N9999999N1-00641-01361999999ADDMA1999999094661MD1719999+9999ME1314749OA149900511REMSYN076AAXX  03054 06727 33/// /0906 11064 21136 39466 48474 57/// 333 91110 91207;
0234067270999992010010306004+46300+007850FM-12+064099999V0201001N003619999999N9999999N1-00621-01391999999ADDAA124000091AL19900091GJ100009IA2999-01209KA1999N-00721MA1999999094621MD1710091+9999ME1314719OA149901801REMSYN100AAXX  03064 06727 33/// /1007 11062 21139 39462 48471 57009 333 21072 3/112 55000 70000 91135 91224;EQDQ01  00002PRCP24
0137067270999992010010307004+46300+007850FM-12+064099999V0201001N003119999999N9999999N1-00651-01371999999ADDMA1999999094621MD1710041+9999ME1314709OA149900571REMSYN076AAXX  03074 06727 33/// /1006 11065 21137 39462 48470 57004 333 91111 91207;
0137067270999992010010308004+46300+007850FM-12+064099999V0201101N002119999999N9999999N1-00581-01411999999ADDMA1999999094651MD1319999+9999ME1314759OA149900511REMSYN076AAXX  03084 06727 33/// /1104 11058 21141 39465 48475 53/// 333 91110 91207;
0137067270999992010010309004+46300+007850FM-12+064099999V0201001N002619999999N9999999N1-00491-01371999999ADDMA1999999094631MD1010011+9999ME1314769OA149900571REMSYN076AAXX  03094 06727 33/// /1005 11049 21137 39463 48476 50001 333 91111 91207;
0137067270999992010010310004+46300+007850FM-12+064099999V0201001N003119999999N9999999N1-00391-01441999999ADDMA1999999094591MD1810031+9999ME1314769OA149900461REMSYN076AAXX  03104 06727 33/// /1006 11039 21144 39459 48476 58003 333 91109 91206;
0137067270999992010010311004+46300+007850FM-12+064099999V0201101N001519999999N9999999N1-00301-01421999999ADDMA1999999094471MD1710181+9999ME1314699OA149900461REMSYN076AAXX  03114 06727 33/// /1103 11030 21142 39447 48469 57018 333 91109 91206;
0137067270999992010010312004+46300+007850FM-12+064099999V0201701N000519999999N9999999N1-00221-01511999999ADDMA1999999094401MD1710231+9999ME1314669OA149900571REMSYN076AAXX  03124 06727 33/// /1701 11022 21151 39440 48466 57023 333 91111 91207;
0137067270999992010010313004+46300+007850FM-12+064099999V0200901N000519999999N9999999N1-00221-01531999999ADDMA1999999094311MD1710281+9999ME1314599OA149900151REMSYN076AAXX  03134 06727 33/// /0901 11022 21153 39431 48459 57028 333 91103 91202;
0137067270999992010010314004+46300+007850FM-12+064099999V0202601N001019999999N9999999N1-00171-01471999999ADDMA1999999094331MD1710141+9999ME1314629OA149900151REMSYN076AAXX  03144 06727 33/// /2602 11017 21147 39433 48462 57014 333 91103 91202;
0137067270999992010010315004+46300+007850FM-12+064099999V0202201N000519999999N9999999N1-00171-01371999999ADDMA1999999094311MD1710091+9999ME1314609OA149900461REMSYN076AAXX  03154 06727 33/// /2201 11017 21137 39431 48460 57009 333 91109 91206;
0137067270999992010010316004+46300+007850FM-12+064099999V0202901N001519999999N9999999N1-00291-01081999999ADDMA1999999094291MD1710021+9999ME1314559OA149900211REMSYN076AAXX  03164 06727 33/// /2903 11029 21108 39429 48455 57002 333 91104 91203;
0137067270999992010010317004+46300+007850FM-12+064099999V0202101N000519999999N9999999N1-00271-01171999999ADDMA1999999094241MD1810091+9999ME1314519OA149900211REMSYN076AAXX  03174 06727 33/// /2101 11027 21117 39424 48451 58009 333 91104 91203;
0156067270999992010010318004+46300+007850FM-12+064099999V0209999C000019999999N9999999N1-00301-00891999999ADDKA1120M-00161MA1999999094261MD1710051+9999ME1314529OA149900511REMSYN082AAXX  03184 06727 33/// /0000 11030 21089 39426 48452 57005 333 11016 91110 91207;
0137067270999992010010319004+46300+007850FM-12+064099999V0209999C000019999999N9999999N1-00331-01041999999ADDMA1999999094251MD1710041+9999ME1314509OA149900101REMSYN076AAXX  03194 06727 33/// /0000 11033 21104 39425 48450 57004 333 91102 91201;
0137067270999992010010320004+46300+007850FM-12+064099999V0201501N000519999999N9999999N1-00431-00931999999ADDMA1999999094241MD1010001+9999ME1314469OA149900101REMSYN076AAXX  03204 06727 33/// /1501 11043 21093 39424 48446 50000 333 91102 91201;
0137067270999992010010321004+46300+007850FM-12+064099999V0201401N000519999999N9999999N1-00461-01011999999ADDMA1999999094191MD1710071+9999ME1314419OA149900211REMSYN076AAXX  03214 06727 33/// /1401 11046 21101 39419 48441 57007 333 91104 91203;
0137067270999992010010322004+46300+007850FM-12+064099999V0200201N000519999999N9999999N1-00461-01071999999ADDMA1999999094191MD1710061+9999ME1314419OA149900151REMSYN076AAXX  03224 06727 33/// /0201 11046 21107 39419 48441 57006 333 91103 91203;
0137067270999992010010323004+46300+007850FM-12+064099999V0200801N001019999999N9999999N1-00591-00851999999ADDMA1999999094181MD1710061+9999ME1314369OA149900151REMSYN076AAXX  03234 06727 33/// /0802 11059 21085 39418 48436 57006 333 91103 91202;
0137067270999992010010400004+46300+007850FM-12+064099999V0200801N002119999999N9999999N1-00361-01071999999ADDMA1999999094081MD1810111+9999ME1314359OA149900411REMSYN076AAXX  04004 06727 33/// /0804 11036 21107 39408 48435 58011 333 91108 91204;
0137067270999992010010401004+46300+007850FM-12+064099999V0200901N002119999999N9999999N1-00311-01131999999ADDMA1999999093991MD1710201+9999ME1314299OA149900461REMSYN076AAXX  04014 06727 33/// /0904 11031 21113 39399 48429 57020 333 91109 91206;
0137067270999992010010402004+46300+007850FM-12+064099999V0209999C000019999999N9999999N1-00311-01021999999ADDMA1999999093961MD1610221+9999ME1314279OA149900461REMSYN076AAXX  04024 06727 33/// /0000 11031 21102 39396 48427 56022 333 91109 91206;
0137067270999992010010403004+46300+007850FM-12+064099999V0202801N001519999999N9999999N1-00321-00831999999ADDMA1999999093911MD1619999+9999ME1314229OA149900461REMSYN076AAXX  04034 06727 33/// /2803 11032 21083 39391 48422 56/// 333 91109 91206;
0137067270999992010010404004+46300+007850FM-12+064099999V0202901N001019999999N9999999N1-00331-00901999999ADDMA1999999093851MD1710141+9999ME1314179OA149900311REMSYN076AAXX  04044 06727 33/// /2902 11033 21090 39385 48417 57014 333 91106 91205;
0137067270999992010010405004+46300+007850FM-12+064099999V0201001N001019999999N9999999N1-00331-00811999999ADDMA1999999093811MD1810151+9999ME1314149OA149900311REMSYN076AAXX  04054 06727 33/// /1002 11033 21081 39381 48414 58015 333 91106 91205;
0234067270999992010010406004+46300+007850FM-12+064099999V0202801N002619999999N9999999N1-00271-00891999999ADDAA124000091AL19900091GJ100009IA2999-01109KA1999N-00661MA1999999093881MD1510031+9999ME1314219OA149900461REMSYN100AAXX  04064 06727 33/// /2805 11027 21089 39388 48421 55003 333 21066 3/111 55000 70000 91109 91206;EQDQ01  00002PRCP24
0137067270999992010010407004+46300+007850FM-12+064099999V0202901N001019999999N9999999N1-00401-00591999999ADDMA1999999093921MD1310071+9999ME1314219OA149900411REMSYN076AAXX  04074 06727 33/// /2902 11040 21059 39392 48421 53007 333 91108 91206;
0154067270999992010010408004+46300+007850FM-12+064099999V0201201N000519999999N9999999N1-00411-00511999999ADDAA101000021MA1999999093911MD1210101+9999ME1314209OA149900411REMSYN082AAXX  04084 06727 23/// /1201 11041 21051 39391 48420 52010 333 69925 91108 91206;
0154067270999992010010409004+46300+007850FM-12+064099999V0203001N000519999999N9999999N1-00321-00441999999ADDAA101000021MA1999999093871MD1810011+9999ME1314199OA149900411REMSYN082AAXX  04094 06727 23/// /3001 11032 21044 39387 48419 58001 333 69915 91108 91206;
0137067270999992010010410004+46300+007850FM-12+064099999V0203201N000519999999N9999999N1-00271-00411999999ADDMA1999999093851MD1710071+9999ME1314199OA149900101REMSYN076AAXX  04104 06727 33/// /3201 11027 21041 39385 48419 57007 333 91102 91201;
0137067270999992010010411004+46300+007850FM-12+064099999V0209999C000019999999N9999999N1-00201-00391999999ADDMA1999999093741MD1710171+9999ME1314129OA149900101REMSYN076AAXX  04114 06727 33/// /0000 11020 21039 39374 48412 57017 333 91102 91201;
0160067270999992010010412004+46300+007850FM-12+064099999V0202801N002619999999N9999999N1-00111-00291999999ADDAA106000391MA1999999093651MD1710221+9999ME1314079OA149900461REMSYN088AAXX  04124 06727 03/// /2805 11011 21029 39365 48407 57022 69931 333 60005 91109 91206;
0137067270999992010010413004+46300+007850FM-12+064099999V0202801N002619999999N9999999N1-00091-00351999999ADDMA1999999093561MD1610291+9999ME1314009OA149900411REMSYN076AAXX  04134 06727 33/// /2805 11009 21035 39356 48400 56029 333 91108 91206;
0137067270999992010010414004+46300+007850FM-12+064099999V0202801N002619999999N9999999N1-00091-00331999999ADDMA1999999093511MD1619999+9999ME1313969OA149900411REMSYN076AAXX  04144 06727 33/// /2805 11009 21033 39351 48396 56/// 333 91108 91206;
0137067270999992010010415004+46300+007850FM-12+064099999V0202901N001019999999N9999999N1-00121-00331999999ADDMA1999999093471MD1610181+9999ME1313929OA149900411REMSYN076AAXX  04154 06727 33/// /2902 11012 21033 39347 48392 56018 333 91108 91206;
0137067270999992010010416004+46300+007850FM-12+064099999V0202901N002119999999N9999999N1-00131-00331999999ADDMA1999999093471MD1710091+9999ME1313919OA149900411REMSYN076AAXX  04164 06727 33/// /2904 11013 21033 39347 48391 57009 333 91108 91205;
0137067270999992010010417004+46300+007850FM-12+064099999V0202801N001519999999N9999999N1-00141-00321999999ADDMA1999999093471MD1710041+9999ME1313919OA149900461REMSYN076AAXX  04174 06727 33/// /2803 11014 21032 39347 48391 57004 333 91109 91206;
0179067270999992010010418004+46300+007850FM-12+064099999V0202601N001519999999N9999999N1-00171-00321999999ADDAA112000391KA1120M-00061MA1999999093481MD1210011+9999ME1313919OA149900461REMSYN094AAXX  04184 06727 03/// /2603 11017 21032 39348 48391 52001 69932 333 11006 60005 91109 91206;
0137067270999992010010419004+46300+007850FM-12+064099999V0202401N000519999999N9999999N1-00201-00331999999ADDMA1999999093461MD1010011+9999ME1313899OA149900261REMSYN076AAXX  04194 06727 33/// /2401 11020 21033 39346 48389 50001 333 91105 91203;
0137067270999992010010420004+46300+007850FM-12+064099999V0202901N000519999999N9999999N1-00231-00321999999ADDMA1999999093451MD1810021+9999ME1313879OA149900261REMSYN076AAXX  04204 06727 33/// /2901 11023 21032 39345 48387 58002 333 91105 91203;
0137067270999992010010421004+46300+007850FM-12+064099999V0202701N000519999999N9999999N1-00251-00331999999ADDMA1999999093431MD1710051+9999ME1313859OA149900461REMSYN076AAXX  04214 06727 33/// /2701 11025 21033 39343 48385 57005 333 91109 91206;
0137067270999992010010422004+46300+007850FM-12+064099999V0202401N001019999999N9999999N1-00241-00331999999ADDMA1999999093401MD1710061+9999ME1313829OA149900151REMSYN076AAXX  04224 06727 33/// /2402 11024 21033 39340 48382 57006 333 91103 91202;
0137067270999992010010423004+46300+007850FM-12+064099999V0209999C000019999999N9999999N1-00261-00331999999ADDMA1999999093371MD1710081+9999ME1313799OA149900101REMSYN076AAXX  04234 06727 33/// /0000 11026 21033 39337 48379 57008 333 91102 91202;
0137067270999992010010500004+46300+007850FM-12+064099999V0209999C000019999999N9999999N1-00281-00341999999ADDMA1999999093331MD1710101+9999ME1313759OA149900461REMSYN076AAXX  05004 06727 33/// /0000 11028 21034 39333 48375 57010 333 91109 91206;
0137067270999992010010501004+46300+007850FM-12+064099999V0202901N001019999999N9999999N1-00281-00361999999ADDMA1999999093261MD1810141+9999ME1313709OA149900151REMSYN076AAXX  05014 06727 33/// /2902 11028 21036 39326 48370 58014 333 91103 91202;
0137067270999992010010502004+46300+007850FM-12+064099999V0202801N000519999999N9999999N1-00271-00341999999ADDMA1999999093231MD1610141+9999ME1313679OA149900211REMSYN076AAXX  05024 06727 33/// /2801 11027 21034 39323 48367 56014 333 91104 91203;
0137067270999992010010503004+46300+007850FM-12+064099999V0200801N000519999999N9999999N1-00271-00341999999ADDMA1999999093171MD1610161+9999ME1313629OA149900211REMSYN076AAXX  05034 06727 33/// /0801 11027 21034 39317 48362 56016 333 91104 91203;
0137067270999992010010504004+46300+007850FM-12+064099999V0202901N001019999999N9999999N1-00301-00371999999ADDMA1999999093111MD1710151+9999ME1313579OA149900151REMSYN076AAXX  05044 06727 33/// /2902 11030 21037 39311 48357 57015 333 91103 91202;
0137067270999992010010505004+46300+007850FM-12+064099999V0202701N001519999999N9999999N1-00361-00411999999ADDMA1999999093081MD1710151+9999ME1313529OA149900211REMSYN076AAXX  05054 06727 33/// /2703 11036 21041 39308 48352 57015 333 91104 91203;
0234067270999992010010506004+46300+007850FM-12+064099999V0201101N001019999999N9999999N1-00481-00511999999ADDAA124000391AL11800091GJ100009IA2999-00509KA1999N+99999MA1999999093021MD1710151+9999ME1313449OA149900261REMSYN100AAXX  05064 06727 33/// /1102 11048 21051 39302 48344 57015 333 21036 3/105 55000 70003 91105 91204;EQDQ01 -00362ATMN  
0137067270999992010010507004+46300+007850FM-12+064099999V0201001N001519999999N9999999N1-00301-00421999999ADDMA1999999092971MD1810141+9999ME1313459OA149900261REMSYN076AAXX  05074 06727 33/// /1003 11030 21042 39297 48345 58014 333 91105 91204;
0137067270999992010010508004+46300+007850FM-12+064099999V0201801N000519999999N9999999N1-00401-00511999999ADDMA1999999092971MD1710111+9999ME1313429OA149900261REMSYN076AAXX  05084 06727 33/// /1801 11040 21051 39297 48342 57011 333 91105 91204;
0137067270999992010010509004+46300+007850FM-12+064099999V0201001N001019999999N9999999N1-00431-00501999999ADDMA1999999092951MD1710071+9999ME1313409OA149900261REMSYN076AAXX  05094 06727 33/// /1002 11043 21050 39295 48340 57007 333 91105 91204;
0137067270999992010010510004+46300+007850FM-12+064099999V0201101N000519999999N9999999N1-00301-00551999999ADDMA1999999092891MD1710081+9999ME1313389OA149900211REMSYN076AAXX  05104 06727 33/// /1101 11030 21055 39289 48338 57008 333 91104 91203;
0137067270999992010010511004+46300+007850FM-12+064099999V0203001N000519999999N9999999N1-00431-00541999999ADDMA1999999092791MD1810181+9999ME1313269OA149900211REMSYN076AAXX  05114 06727 33/// /3001 11043 21054 39279 48326 58018 333 91104 91203;
0137067270999992010010512004+46300+007850FM-12+064099999V0202001N000519999999N9999999N1-00341-00451999999ADDMA1999999092681MD1810271+9999ME1313199OA149900261REMSYN076AAXX  05124 06727 33/// /2001 11034 21045 39268 48319 58027 333 91105 91204;
0137067270999992010010513004+46300+007850FM-12+064099999V0201401N000519999999N9999999N1-00151-00361999999ADDMA1999999092571MD1710321+9999ME1313159OA149900151REMSYN076AAXX  05134 06727 33/// /1401 11015 21036 39257 48315 57032 333 91103 91202;
0096067270999992010010514004+46300+007850FM-12+064099999V0202801N001519999999N9999999N1-00051-00341999999ADDMA1999999092541ME1313159REMSYN060AAXX  05144 06727 33/// /2803 11005 21034 39254 48315 5////;
0137067270999992010010515004+46300+007850FM-12+064099999V0202701N001519999999N9999999N1-00071-00391999999ADDMA1999999092531MD1610151+9999ME1313149OA149900311REMSYN076AAXX  05154 06727 33/// /2703 11007 21039 39253 48314 56015 333 91106 91205;
0137067270999992010010516004+46300+007850FM-12+064099999V0202601N000519999999N9999999N1-00211-00401999999ADDMA1999999092541MD1710031+9999ME1313119OA149900311REMSYN076AAXX  05164 06727 33/// /2601 11021 21040 39254 48311 57003 333 91106 91205;
0137067270999992010010517004+46300+007850FM-12+064099999V0202301N000519999999N9999999N1-00421-00531999999ADDMA1999999092551MD1210011+9999ME1313079OA149900151REMSYN076AAXX  05174 06727 33/// /2301 11042 21053 39255 48307 52001 333 91103 91202;
0156067270999992010010518004+46300+007850FM-12+064099999V0209999C000019999999N9999999N1-00381-00481999999ADDKA1120M-00031MA1999999092551MD1210021+9999ME1313089OA149900311REMSYN082AAXX  05184 06727 33/// /0000 11038 21048 39255 48308 52002 333 11003 91106 91205;
0137067270999992010010519004+46300+007850FM-12+064099999V0202901N000519999999N9999999N1-00371-00461999999ADDMA1999999092571MD1210031+9999ME1313099OA149900101REMSYN076AAXX  05194 06727 33/// /2901 11037 21046 39257 48309 52003 333 91102 91201;
0137067270999992010010520004+46300+007850FM-12+064099999V0201201N000519999999N9999999N1-00381-00431999999ADDMA1999999092541MD1810011+9999ME1313079OA149900101REMSYN076AAXX  05204 06727 33/// /1201 11038 21043 39254 48307 58001 333 91102 91201;
0137067270999992010010521004+46300+007850FM-12+064099999V0201401N000519999999N9999999N1-00351-00421999999ADDMA1999999092501MD1710051+9999ME1313049OA149900151REMSYN076AAXX  05214 06727 33/// /1401 11035 21042 39250 48304 57005 333 91103 91202;
0137067270999992010010522004+46300+007850FM-12+064099999V0201001N000519999999N9999999N1-00431-00541999999ADDMA1999999092481MD1810091+9999ME1313009OA149900151REMSYN076AAXX  05224 06727 33/// /1001 11043 21054 39248 48300 58009 333 91103 91202;
0137067270999992010010523004+46300+007850FM-12+064099999V0209999C000019999999N9999999N1-00601-00621999999ADDMA1999999092471MD1610071+9999ME1312959OA149900151REMSYN076AAXX  05234 06727 33/// /0000 11060 21062 39247 48295 56007 333 91103 91202;
0137067270999992010010600004+46300+007850FM-12+064099999V0209999C000019999999N9999999N1-00471-00591999999ADDMA1999999092461MD1710041+9999ME1312989OA149900311REMSYN076AAXX  06004 06727 33/// /0000 11047 21059 39246 48298 57004 333 91106 91205;
0137067270999992010010601004+46300+007850FM-12+064099999V0209999C000019999999N9999999N1-00531-00611999999ADDMA1999999092451MD1710031+9999ME1312959OA149900151REMSYN076AAXX  06014 06727 33/// /0000 11053 21061 39245 48295 57003 333 91103 91202;
0137067270999992010010602004+46300+007850FM-12+064099999V0209999C000019999999N9999999N1-00451-00581999999ADDMA1999999092481MD1310011+9999ME1313009OA149900151REMSYN076AAXX  06024 06727 33/// /0000 11045 21058 39248 48300 53001 333 91103 91202;
0137067270999992010010603004+46300+007850FM-12+064099999V0209999C000519999999N9999999N1-00511-00611999999ADDMA1999999092451MD1010011+9999ME1312969OA149900151REMSYN076AAXX  06034 06727 33/// /0001 11051 21061 39245 48296 50001 333 91103 91202;
0137067270999992010010604004+46300+007850FM-12+064099999V0200101N000519999999N9999999N1-00501-00601999999ADDMA1999999092451MD1010001+9999ME1312969OA149900101REMSYN076AAXX  06044 06727 33/// /0101 11050 21060 39245 48296 50000 333 91102 91201;
0137067270999992010010605004+46300+007850FM-12+064099999V0203101N000519999999N9999999N1-00451-00611999999ADDMA1999999092461MD1510021+9999ME1312989OA149900151REMSYN076AAXX  06054 06727 33/// /3101 11045 21061 39246 48298 55002 333 91103 91202;
0234067270999992010010606004+46300+007850FM-12+064099999V0209999C000019999999N9999999N1-00511-00661999999ADDAA124000091AL19900091GJ100009IA2999-01009KA1999N-00761MA1999999092441MD1710011+9999ME1312959OA149900151REMSYN100AAXX  06064 06727 33/// /0000 11051 21066 39244 48295 57001 333 21076 3/110 55000 70000 91103 91202;EQDQ01  00002PRCP24
0137067270999992010010607004+46300+007850FM-12+064099999V0201201N000519999999N9999999N1-00571-00801999999ADDMA1999999092461MD1210011+9999ME1312959OA149900151REMSYN076AAXX  06074 06727 33/// /1201 11057 21080 39246 48295 52001 333 91103 91203;
0137067270999992010010608004+46300+007850FM-12+064099999V0202601N000519999999N9999999N1-00591-00751999999ADDMA1999999092531MD1210071+9999ME1313019OA149900211REMSYN076AAXX  06084 06727 33/// /2601 11059 21075 39253 48301 52007 333 91104 91203;
0137067270999992010010609004+46300+007850FM-12+064099999V0202701N001019999999N9999999N1-00521-00671999999ADDMA1999999092621MD1210181+9999ME1313109OA149900261REMSYN076AAXX  06094 06727 33/// /2702 11052 21067 39262 48310 52018 333 91105 91203;
0137067270999992010010610004+46300+007850FM-12+064099999V0203101N000519999999N9999999N1-00551-00621999999ADDMA1999999092661MD1110201+9999ME1313129OA149900361REMSYN076AAXX  06104 06727 33/// /3101 11055 21062 39266 48312 51020 333 91107 91205;
0137067270999992010010611004+46300+007850FM-12+064099999V0201401N000519999999N9999999N1-00511-00631999999ADDMA1999999092601MD1019999+9999ME1313089OA149900361REMSYN076AAXX  06114 06727 33/// /1401 11051 21063 39260 48308 50/// 333 91107 91205;
0137067270999992010010612004+46300+007850FM-12+064099999V0202101N000519999999N9999999N1-00541-00661999999ADDMA1999999092561MD1710061+9999ME1313049OA149900361REMSYN076AAXX  06124 06727 33/// /2101 11054 21066 39256 48304 57006 333 91107 91205;
0137067270999992010010613004+46300+007850FM-12+064099999V0202501N001019999999N9999999N1-00381-00621999999ADDMA1999999092541MD1710121+9999ME1313079OA149900261REMSYN076AAXX  06134 06727 33/// /2502 11038 21062 39254 48307 57012 333 91105 91202;
0137067270999992010010614004+46300+007850FM-12+064099999V0209999C000019999999N9999999N1-00301-00671999999ADDMA1999999092541MD1519999+9999ME1313099OA149900261REMSYN076AAXX  06144 06727 33/// /0000 11030 21067 39254 48309 55/// 333 91105 91202;
0137067270999992010010615004+46300+007850FM-12+064099999V0202401N000519999999N9999999N1-00311-00601999999ADDMA1999999092591MD1319999+9999ME1313139OA149900361REMSYN076AAXX  06154 06727 33/// /2401 11031 21060 39259 48313 53/// 333 91107 91205;
0137067270999992010010616004+46300+007850FM-12+064099999V0202601N001019999999N9999999N1-00301-00591999999ADDMA1999999092661MD1210121+9999ME1313199OA149900211REMSYN076AAXX  06164 06727 33/// /2602 11030 21059 39266 48319 52012 333 91104 91203;
0137067270999992010010617004+46300+007850FM-12+064099999V0202901N001019999999N9999999N1-00571-00731999999ADDMA1999999092711MD1210171+9999ME1313169OA149900211REMSYN076AAXX  06174 06727 33/// /2902 11057 21073 39271 48316 52017 333 91104 91203;
0156067270999992010010618004+46300+007850FM-12+064099999V0201201N001019999999N9999999N1-00381-00601999999ADDKA1120M-00231MA1999999092801MD1219999+9999ME1313299OA149900361REMSYN082AAXX  06184 06727 33/// /1202 11038 21060 39280 48329 52/// 333 11023 91107 91205;
0137067270999992010010619004+46300+007850FM-12+064099999V0200701N001519999999N9999999N1-00231-00491999999ADDMA1999999092861MD1310201+9999ME1313379OA149900261REMSYN076AAXX  06194 06727 33/// /0703 11023 21049 39286 48337 53020 333 91105 91203;
0137067270999992010010620004+46300+007850FM-12+064099999V0201201N001519999999N9999999N1-00261-00481999999ADDMA1999999092911MD1110201+9999ME1313419OA149900261REMSYN076AAXX  06204 06727 33/// /1203 11026 21048 39291 48341 51020 333 91105 91203;
0137067270999992010010621004+46300+007850FM-12+064099999V0200701N000519999999N9999999N1-00221-00511999999ADDMA1999999092931MD1110131+9999ME1313449OA149900261REMSYN076AAXX  06214 06727 33/// /0701 11022 21051 39293 48344 51013 333 91105 91203;
0137067270999992010010622004+46300+007850FM-12+064099999V0200901N001019999999N9999999N1-00171-00481999999ADDMA1999999092941MD1210081+9999ME1313469OA149900211REMSYN076AAXX  06224 06727 33/// /0902 11017 21048 39294 48346 52008 333 91104 91202;
0137067270999992010010623004+46300+007850FM-12+064099999V0201001N001519999999N9999999N1-00171-00661999999ADDMA1999999092931MD1010021+9999ME1313459OA149900411REMSYN076AAXX  06234 06727 33/// /1003 11017 21066 39293 48345 50002 333 91108 91206;
0137067270999992010010700004+46300+007850FM-12+064099999V0202701N003119999999N9999999N1-00201-00551999999ADDMA1999999092991MD1210061+9999ME1313499OA149900461REMSYN076AAXX  07004 06727 33/// /2706 11020 21055 39299 48349 52006 333 91109 91206;
0137067270999992010010701004+46300+007850FM-12+064099999V0203301N001019999999N9999999N1-00211-00591999999ADDMA1999999093031MD1210091+9999ME1313529OA149900461REMSYN076AAXX  07014 06727 33/// /3302 11021 21059 39303 48352 52009 333 91109 91206;
0137067270999992010010702004+46300+007850FM-12+064099999V0202001N001019999999N9999999N1-00231-00551999999ADDMA1999999093071MD1119999+9999ME1313559OA149900461REMSYN076AAXX  07024 06727 33/// /2002 11023 21055 39307 48355 51/// 333 91109 91206;
0137067270999992010010703004+46300+007850FM-12+064099999V0201601N000519999999N9999999N1-00491-00681999999ADDMA1999999093091MD1110101+9999ME1313509OA149900461REMSYN076AAXX  07034 06727 33/// /1601 11049 21068 39309 48350 51010 333 91109 91206;
0137067270999992010010704004+46300+007850FM-12+064099999V0201901N000519999999N9999999N1-00711-00841999999ADDMA1999999093101MD1110071+9999ME1313459OA149900151REMSYN076AAXX  07044 06727 33/// /1901 11071 21084 39310 48345 51007 333 91103 91202;
0137067270999992010010705004+46300+007850FM-12+064099999V0202401N000519999999N9999999N1-00631-00851999999ADDMA1999999093121MD1310051+9999ME1313489OA149900151REMSYN076AAXX  07054 06727 33/// /2401 11063 21085 39312 48348 53005 333 91103 91201;
0234067270999992010010706004+46300+007850FM-12+064099999V0201201N002119999999N9999999N1-00511-00991999999ADDAA124000091AL19900091GJ100009IA2999-01109KA1999N-00731MA1999999093161MD1310071+9999ME1313559OA149900461REMSYN100AAXX  07064 06727 33/// /1204 11051 21099 39316 48355 53007 333 21073 3/111 55000 70000 91109 91206;EQDQ01  00002PRCP24
0137067270999992010010707004+46300+007850FM-12+064099999V0201201N001519999999N9999999N1-00601-01021999999ADDMA1999999093221MD1310121+9999ME1313579OA149900461REMSYN076AAXX  07074 06727 33/// /1203 11060 21102 39322 48357 53012 333 91109 91206;
0137067270999992010010708004+46300+007850FM-12+064099999V0200901N002119999999N9999999N1-00411-00891999999ADDMA1999999093281MD1319999+9999ME1313689OA149900411REMSYN076AAXX  07084 06727 33/// /0904 11041 21089 39328 48368 53/// 333 91108 91206;
0137067270999992010010709004+46300+007850FM-12+064099999V0200901N002619999999N9999999N1-00371-00931999999ADDMA1999999093291MD1210131+9999ME1313709OA149900461REMSYN076AAXX  07094 06727 33/// /0905 11037 21093 39329 48370 52013 333 91109 91206;
0137067270999992010010710004+46300+007850FM-12+064099999V0201001N000519999999N9999999N1-00301-00931999999ADDMA1999999093321MD1210101+9999ME1313749OA149900461REMSYN076AAXX  07104 06727 33/// /1001 11030 21093 39332 48374 52010 333 91109 91206;
0137067270999992010010711004+46300+007850FM-12+064099999V0202001N000519999999N9999999N1-00211-00921999999ADDMA1999999093271MD1810011+9999ME1313729OA149900361REMSYN076AAXX  07114 06727 33/// /2001 11021 21092 39327 48372 58001 333 91107 91204;
0137067270999992010010712004+46300+007850FM-12+064099999V0201901N000519999999N9999999N1-00091-00891999999ADDMA1999999093161MD1810131+9999ME1313679OA149900461REMSYN076AAXX  07124 06727 33/// /1901 11009 21089 39316 48367 58013 333 91109 91206;
0137067270999992010010713004+46300+007850FM-12+064099999V0201701N000519999999N9999999N1+00041-00931999999ADDMA1999999093121MD1719999+9999ME1313679OA149900151REMSYN076AAXX  07134 06727 33/// /1701 10004 21093 39312 48367 57/// 333 91103 91202;
0096067270999992010010715004+46300+007850FM-12+064099999V0202601N001519999999N9999999N1-00051-00771999999ADDMA1999999093161ME1313689REMSYN060AAXX  07154 06727 43/// /2603 11005 21077 39316 48368 5////;
0137067270999992010010716004+46300+007850FM-12+064099999V0202601N001519999999N9999999N1-00111-00721999999ADDMA1999999093201MD1219999+9999ME1313699OA149900261REMSYN076AAXX  07164 06727 33/// /2603 11011 21072 39320 48369 52/// 333 91105 91203;
0137067270999992010010717004+46300+007850FM-12+064099999V0202901N000519999999N9999999N1-00121-00761999999ADDMA1999999093251MD1119999+9999ME1313739OA149900361REMSYN076AAXX  07174 06727 33/// /2901 11012 21076 39325 48373 51/// 333 91107 91204;
0156067270999992010010718004+46300+007850FM-12+064099999V0203201N000519999999N9999999N1-00211-00681999999ADDKA1120M+00071MA1999999093301MD1219999+9999ME1313759OA149900461REMSYN082AAXX  07184 06727 33/// /3201 11021 21068 39330 48375 52/// 333 10007 91109 91206;
0137067270999992010010719004+46300+007850FM-12+064099999V0200201N000519999999N9999999N1-00231-00711999999ADDMA1999999093301MD1210101+9999ME1313749OA149900151REMSYN076AAXX  07194 06727 33/// /0201 11023 21071 39330 48374 52010 333 91103 91202;
0137067270999992010010720004+46300+007850FM-12+064099999V0202701N001019999999N9999999N1-00261-00661999999ADDMA1999999093321MD1210071+9999ME1313759OA149900151REMSYN076AAXX  07204 06727 33/// /2702 11026 21066 39332 48375 52007 333 91103 91202;
0137067270999992010010721004+46300+007850FM-12+064099999V0202901N000519999999N9999999N1-00221-00681999999ADDMA1999999093301MD1410001+9999ME1313759OA149900361REMSYN076AAXX  07214 06727 33/// /2901 11022 21068 39330 48375 57000 333 91107 91204;
0137067270999992010010722004+46300+007850FM-12+064099999V0202201N000519999999N9999999N1-00291-00511999999ADDMA1999999093271MD1710031+9999ME1313709OA149900151REMSYN076AAXX  07224 06727 33/// /2201 11029 21051 39327 48370 57003 333 91103 91202;
0137067270999992010010723004+46300+007850FM-12+064099999V0202501N000519999999N9999999N1-00231-00611999999ADDMA1999999093211MD1810111+9999ME1313679OA149900211REMSYN076AAXX  07234 06727 33/// /2501 11023 21061 39321 48367 58011 333 91104 91203;
0137067270999992010010800004+46300+007850FM-12+064099999V0202801N002619999999N9999999N1-00211-00641999999ADDMA1999999093141MD1810161+9999ME1313629OA149900511REMSYN076AAXX  08004 06727 33/// /2805 11021 21064 39314 48362 58016 333 91110 91206;
0137067270999992010010801004+46300+007850FM-12+064099999V0202701N002119999999N9999999N1-00211-00621999999ADDMA1999999093101MD1710171+9999ME1313589OA149900511REMSYN076AAXX  08014 06727 33/// /2704 11021 21062 39310 48358 57017 333 91110 91206;
0137067270999992010010802004+46300+007850FM-12+064099999V0202201N001019999999N9999999N1-00171-00671999999ADDMA1999999093081MD1719999+9999ME1313589OA149900461REMSYN076AAXX  08024 06727 33/// /2202 11017 21067 39308 48358 57/// 333 91109 91205;
0137067270999992010010803004+46300+007850FM-12+064099999V0202501N001019999999N9999999N1-00251-00551999999ADDMA1999999093031MD1719999+9999ME1313519OA149900511REMSYN076AAXX  08034 06727 33/// /2502 11025 21055 39303 48351 57/// 333 91110 91206;
0137067270999992010010804004+46300+007850FM-12+064099999V0209999C000019999999N9999999N1-00201-00601999999ADDMA1999999092981MD1810121+9999ME1313489OA149900211REMSYN076AAXX  08044 06727 33/// /0000 11020 21060 39298 48348 58012 333 91104 91203;
0137067270999992010010805004+46300+007850FM-12+064099999V0201401N000519999999N9999999N1-00151-00591999999ADDMA1999999092871MD1810211+9999ME1313409OA149900151REMSYN076AAXX  08054 06727 33/// /1401 11015 21059 39287 48340 58021 333 91103 91202;
0234067270999992010010806004+46300+007850FM-12+064099999V0202501N001519999999N9999999N1-00201-00581999999ADDAA124000091AL19900091GJ100009IA2999-00409KA1999N-00321MA1999999092781MD1810251+9999ME1313329OA149900511REMSYN100AAXX  08064 06727 33/// /2503 11020 21058 39278 48332 58025 333 21032 3/104 55000 70000 91110 91206;EQDQ01  00002PRCP24
0137067270999992010010807004+46300+007850FM-12+064099999V0203001N001519999999N9999999N1-00181-00531999999ADDMA1999999092781MD1710201+9999ME1313329OA149900411REMSYN076AAXX  08074 06727 33/// /3003 11018 21053 39278 48332 57020 333 91108 91205;
0137067270999992010010808004+46300+007850FM-12+064099999V0202501N000519999999N9999999N1-00271-00461999999ADDMA1999999092731MD1710141+9999ME1313269OA149900411REMSYN076AAXX  08084 06727 33/// /2501 11027 21046 39273 48326 57014 333 91108 91205;
0137067270999992010010809004+46300+007850FM-12+064099999V0202801N001019999999N9999999N1-00111-00461999999ADDMA1999999092651MD1710131+9999ME1313239OA149900411REMSYN076AAXX  08094 06727 33/// /2802 11011 21046 39265 48323 57013 333 91108 91205;
0137067270999992010010810004+46300+007850FM-12+064099999V0202801N003119999999N9999999N1-00071-00451999999ADDMA1999999092581MD1810201+9999ME1313189OA149900461REMSYN076AAXX  08104 06727 33/// /2806 11007 21045 39258 48318 58020 333 91109 91206;
0137067270999992010010811004+46300+007850FM-12+064099999V0202701N003619999999N9999999N1-00021-00431999999ADDMA1999999092441MD1810291+9999ME1313079OA149900621REMSYN076AAXX  08114 06727 33/// /2707 11002 21043 39244 48307 58029 333 91112 91207;
0137067270999992010010812004+46300+007850FM-12+064099999V0202701N004119999999N9999999N1+00061-00411999999ADDMA1999999092351MD1710301+9999ME1313029OA149900621REMSYN076AAXX  08124 06727 33/// /2708 10006 21041 39235 48302 57030 333 91112 91208;
0137067270999992010010813004+46300+007850FM-12+064099999V0202701N005119999999N9999999N1+00051-00401999999ADDMA1999999092301MD1710281+9999ME1312979OA149900771REMSYN076AAXX  08134 06727 33/// /2710 10005 21040 39230 48297 57028 333 91115 91210;
0143067270999992010010814004+46300+007850FM-12+064099999V0202701N004619999999N9999999N1+00041-00361999999ADDMA1999999092301MD1719999+9999ME1312979OA149900821REMSYN082AAXX  08144 06727 33/// /2709 10004 21036 39230 48297 57/// 91340 333 91116 91211;
0137067270999992010010815004+46300+007850FM-12+064099999V0202701N006219999999N9999999N1+00011-00381999999ADDMA1999999092361MD1310011+9999ME1313019OA149900931REMSYN076AAXX  08154 06727 33/// /2712 10001 21038 39236 48301 53001 333 91118 91212;
0137067270999992010010816004+46300+007850FM-12+064099999V0202601N004619999999N9999999N1-00021-00421999999ADDMA1999999092471MD1210171+9999ME1313109OA149900931REMSYN076AAXX  08164 06727 33/// /2609 11002 21042 39247 48310 52017 333 91118 91212;
0137067270999992010010817004+46300+007850FM-12+064099999V0202601N003619999999N9999999N1-00041-00401999999ADDMA1999999092531MD1210231+9999ME1313159OA149900931REMSYN076AAXX  08174 06727 33/// /2607 11004 21040 39253 48315 52023 333 91118 91212;
0156067270999992010010818004+46300+007850FM-12+064099999V0200301N000519999999N9999999N1-00101-00311999999ADDKA1120M+00081MA1999999092561MD1210201+9999ME1313169OA149900931REMSYN082AAXX  08184 06727 33/// /0301 11010 21031 39256 48316 52020 333 10008 91118 91212;
0137067270999992010010819004+46300+007850FM-12+064099999V0209999C000019999999N9999999N1-00121-00271999999ADDMA1999999092581MD1210111+9999ME1313179OA149900361REMSYN076AAXX  08194 06727 33/// /0000 11012 21027 39258 48317 52011 333 91107 91204;
0137067270999992010010820004+46300+007850FM-12+064099999V0202701N002119999999N9999999N1-00121-00271999999ADDMA1999999092601MD1210071+9999ME1313189OA149900261REMSYN076AAXX  08204 06727 33/// /2704 11012 21027 39260 48318 52007 333 91105 91204;
0137067270999992010010821004+46300+007850FM-12+064099999V0202601N002119999999N9999999N1-00121-00401999999ADDMA1999999092641MD1310081+9999ME1313229OA149900931REMSYN076AAXX  08214 06727 33/// /2604 11012 21040 39264 48322 53008 333 91118 91212;
0137067270999992010010822004+46300+007850FM-12+064099999V0202701N000519999999N9999999N1-00151-00401999999ADDMA1999999092671MD1310091+9999ME1313249OA149900571REMSYN076AAXX  08224 06727 33/// /2701 11015 21040 39267 48324 53009 333 91111 91207;
0137067270999992010010823004+46300+007850FM-12+064099999V0202701N001519999999N9999999N1-00141-00381999999ADDMA1999999092691MD1210091+9999ME1313269OA149900461REMSYN076AAXX  08234 06727 33/// /2703 11014 21038 39269 48326 52009 333 91109 91206;
0137067270999992010010900004+46300+007850FM-12+064099999V0203001N002119999999N9999999N1-00161-00371999999ADDMA1999999092651MD1010011+9999ME1313229OA149900931REMSYN076AAXX  09004 06727 33/// /3004 11016 21037 39265 48322 50001 333 91118 91212;
0137067270999992010010901004+46300+007850FM-12+064099999V0202701N003119999999N9999999N1-00151-00361999999ADDMA1999999092631MD1710041+9999ME1313209OA149900461REMSYN076AAXX  09014 06727 33/// /2706 11015 21036 39263 48320 57004 333 91109 91206;
0137067270999992010010902004+46300+007850FM-12+064099999V0202701N002619999999N9999999N1-00151-00371999999ADDMA1999999092681MD1319999+9999ME1313249OA149900461REMSYN076AAXX  09024 06727 33/// /2705 11015 21037 39268 48324 53/// 333 91109 91206;
0137067270999992010010903004+46300+007850FM-12+064099999V0202801N002119999999N9999999N1-00161-00361999999ADDMA1999999092641MD1019999+9999ME1313219OA149900511REMSYN076AAXX  09034 06727 33/// /2804 11016 21036 39264 48321 50/// 333 91110 91207;
0137067270999992010010904004+46300+007850FM-12+064099999V0202701N002119999999N9999999N1-00161-00361999999ADDMA1999999092621MD1810011+9999ME1313199OA149900511REMSYN076AAXX  09044 06727 33/// /2704 11016 21036 39262 48319 58001 333 91110 91207;
0137067270999992010010905004+46300+007850FM-12+064099999V0202801N002119999999N9999999N1-00181-00321999999ADDMA1999999092571MD1710111+9999ME1313149OA149900361REMSYN076AAXX  09054 06727 33/// /2804 11018 21032 39257 48314 57011 333 91107 91205;
0234067270999992010010906004+46300+007850FM-12+064099999V0202801N002119999999N9999999N1-00201-00311999999ADDAA124000091AL19900091GJ100009IA2999-00309KA1999N-00201MA1999999092541MD1710101+9999ME1313119OA149900571REMSYN100AAXX  09064 06727 33/// /2804 11020 21031 39254 48311 57010 333 21020 3/103 55000 70000 91111 91207;EQDQ01  00002PRCP24
0137067270999992010010907004+46300+007850FM-12+064099999V0202801N001019999999N9999999N1-00221-00301999999ADDMA1999999092541MD1710081+9999ME1313119OA149900461REMSYN076AAXX  09074 06727 33/// /2802 11022 21030 39254 48311 57008 333 91109 91206;
0137067270999992010010908004+46300+007850FM-12+064099999V0202801N001019999999N9999999N1-00191-00301999999ADDMA1999999092551MD1510021+9999ME1313129OA149900311REMSYN076AAXX  09084 06727 33/// /2802 11019 21030 39255 48312 55002 333 91106 91204;
0137067270999992010010909004+46300+007850FM-12+064099999V0202801N002619999999N9999999N1-00151-00291999999ADDMA1999999092531MD1010011+9999ME1313129OA149900461REMSYN076AAXX  09094 06727 33/// /2805 11015 21029 39253 48312 50001 333 91109 91206;
0137067270999992010010910004+46300+007850FM-12+064099999V0202701N002619999999N9999999N1-00151-00311999999ADDMA1999999092471MD1710071+9999ME1313079OA149900411REMSYN076AAXX  09104 06727 33/// /2705 11015 21031 39247 48307 57007 333 91108 91206;
0137067270999992010010911004+46300+007850FM-12+064099999V0202801N004119999999N9999999N1-00131-00321999999ADDMA1999999092451MD1710101+9999ME1313059OA149900511REMSYN076AAXX  09114 06727 33/// /2808 11013 21032 39245 48305 57010 333 91110 91208;
0137067270999992010010912004+46300+007850FM-12+064099999V0202801N004619999999N9999999N1-00151-00401999999ADDMA1999999092461MD1710071+9999ME1313069OA149900771REMSYN076AAXX  09124 06727 33/// /2809 11015 21040 39246 48306 57007 333 91115 91210;
0137067270999992010010913004+46300+007850FM-12+064099999V0202601N003619999999N9999999N1-00181-00421999999ADDMA1999999092421MD1710051+9999ME1313029OA149900881REMSYN076AAXX  09134 06727 33/// /2607 11018 21042 39242 48302 57005 333 91117 91211;
0137067270999992010010914004+46300+007850FM-12+064099999V0202701N004619999999N9999999N1-00181-00451999999ADDMA1999999092421MD1710031+9999ME1313029OA149900881REMSYN076AAXX  09144 06727 33/// /2709 11018 21045 39242 48302 57003 333 91117 91211;
0137067270999992010010915004+46300+007850FM-12+064099999V0202701N005119999999N9999999N1-00211-00461999999ADDMA1999999092491MD1310031+9999ME1313079OA149900881REMSYN076AAXX  09154 06727 33/// /2710 11021 21046 39249 48307 53003 333 91117 91211;
0154067270999992010010916004+46300+007850FM-12+064099999V0202601N003619999999N9999999N1-00281-00421999999ADDAA101000021MA1999999092511MD1210091+9999ME1313079OA149900821REMSYN082AAXX  09164 06727 23/// /2607 11028 21042 39251 48307 52009 333 69915 91116 91211;
0154067270999992010010917004+46300+007850FM-12+064099999V0202601N004119999999N9999999N1-00291-00461999999ADDAA101000021MA1999999092551MD1310131+9999ME1313109OA149900771REMSYN082AAXX  09174 06727 23/// /2608 11029 21046 39255 48310 53013 333 69925 91115 91210;
0179067270999992010010918004+46300+007850FM-12+064099999V0202701N003619999999N9999999N1-00331-00481999999ADDAA112000891KA1120M-00121MA1999999092621MD1310131+9999ME1313159OA149900881REMSYN094AAXX  09184 06727 03/// /2707 11033 21048 39262 48315 53013 69982 333 11012 69955 91117 91211;
0154067270999992010010919004+46300+007850FM-12+064099999V0202601N002619999999N9999999N1-00331-00481999999ADDAA101000391MA1999999092691MD1310181+9999ME1313219OA149900571REMSYN082AAXX  09194 06727 23/// /2605 11033 21048 39269 48321 53018 333 69935 91111 91207;
0137067270999992010010920004+46300+007850FM-12+064099999V0202601N002619999999N9999999N1-00361-00531999999ADDMA1999999092761MD1110211+9999ME1313269OA149900511REMSYN076AAXX  09204 06727 33/// /2605 11036 21053 39276 48326 51021 333 91110 91207;
0137067270999992010010921004+46300+007850FM-12+064099999V0202701N001519999999N9999999N1-00381-00531999999ADDMA1999999092791MD1110171+9999ME1313289OA149900771REMSYN076AAXX  09214 06727 33/// /2703 11038 21053 39279 48328 51017 333 91115 91210;
0154067270999992010010922004+46300+007850FM-12+064099999V0202701N001019999999N9999999N1-00401-00511999999ADDAA101000021MA1999999092831MD1110141+9999ME1313309OA149900361REMSYN082AAXX  09224 06727 23/// /2702 11040 21051 39283 48330 51014 333 69925 91107 91205;
0154067270999992010010923004+46300+007850FM-12+064099999V0202701N002119999999N9999999N1-00381-00521999999ADDAA101000391MA1999999092881MD1310121+9999ME1313359OA149900311REMSYN082AAXX  09234 06727 23/// /2704 11038 21052 39288 48335 53012 333 69935 91106 91204;
0160067270999992010011000004+46300+007850FM-12+064099999V0202701N002619999999N9999999N1-00411-00591999999ADDAA106000891MA1999999092901MD1110111+9999ME1313369OA149900881REMSYN088AAXX  10004 06727 03/// /2705 11041 21059 39290 48336 51011 69981 333 60005 91117 91211;
0154067270999992010011001004+46300+007850FM-12+064099999V0202601N001519999999N9999999N1-00411-00581999999ADDAA101000021MA1999999092951MD1110121+9999ME1313409OA149900411REMSYN082AAXX  10014 06727 23/// /2603 11041 21058 39295 48340 51012 333 69915 91108 91206;
0096067270999992010011002004+46300+007850FM-12+064099999V0202701N002119999999N9999999N1-00411-00621999999ADDMA1999999093031ME1313479REMSYN060AAXX  10024 06727 33/// /2704 11041 21062 39303 48347 5////;
0096067270999992010011003004+46300+007850FM-12+064099999V0202501N002119999999N9999999N1-00441-00631999999ADDMA1999999093081ME1313509REMSYN060AAXX  10034 06727 43/// /2504 11044 21063 39308 48350 5////;
0137067270999992010011004004+46300+007850FM-12+064099999V0202301N000519999999N9999999N1-00481-00621999999ADDMA1999999093131MD1110181+9999ME1313539OA149900361REMSYN076AAXX  10044 06727 33/// /2301 11048 21062 39313 48353 51018 333 91107 91205;
0137067270999992010011005004+46300+007850FM-12+064099999V0202801N000519999999N9999999N1-00541-00651999999ADDMA1999999093201MD1310171+9999ME1313579OA149900311REMSYN076AAXX  10054 06727 33/// /2801 11054 21065 39320 48357 53017 333 91106 91204;
0238067270999992010011006004+46300+007850FM-12+064099999V0209999C000019999999N9999999N1-00521-00631999999ADDAA112001091AA224001891AL14200191GJ100009IA2999-00709KA1999N-00571MA1999999093251MD1310171+9999ME1313629OA149900511REMSYN112AAXX  10064 06727 03/// /0000 11052 21063 39325 48362 53017 69992 333 21057 3/107 55000 60005 70017 91110 91207;
0137067270999992010011007004+46300+007850FM-12+064099999V0202301N000519999999N9999999N1-00441-00591999999ADDMA1999999093341MD1310211+9999ME1313729OA149900101REMSYN076AAXX  10074 06727 33/// /2301 11044 21059 39334 48372 53021 333 91102 91201;
0137067270999992010011008004+46300+007850FM-12+064099999V0209999C000019999999N9999999N1-00471-00581999999ADDMA1999999093411MD1319999+9999ME1313779OA149900101REMSYN076AAXX  10084 06727 33/// /0000 11047 21058 39341 48377 53/// 333 91102 91201;
0137067270999992010011009004+46300+007850FM-12+064099999V0209999C000019999999N9999999N1-00431-00611999999ADDMA1999999093481MD1110231+9999ME1313849OA149900311REMSYN076AAXX  10094 06727 33/// /0000 11043 21061 39348 48384 51023 333 91106 91204;
0137067270999992010011010004+46300+007850FM-12+064099999V0209999C000019999999N9999999N1-00381-00641999999ADDMA1999999093541MD1110201+9999ME1313909OA149900101REMSYN076AAXX  10104 06727 33/// /0000 11038 21064 39354 48390 51020 333 91102 91202;
0137067270999992010011011004+46300+007850FM-12+064099999V0202701N001019999999N9999999N1-00291-00611999999ADDMA1999999093541MD1210131+9999ME1313939OA149900151REMSYN076AAXX  10114 06727 33/// /2702 11029 21061 39354 48393 52013 333 91103 91202;
0137067270999992010011012004+46300+007850FM-12+064099999V0202801N002619999999N9999999N1-00251-00561999999ADDMA1999999093541MD1210061+9999ME1313949OA149900411REMSYN076AAXX  10124 06727 33/// /2805 11025 21056 39354 48394 52006 333 91108 91206;
0137067270999992010011013004+46300+007850FM-12+064099999V0202701N002119999999N9999999N1-00231-00641999999ADDMA1999999093541MD1510001+9999ME1313949OA149900361REMSYN076AAXX  10134 06727 33/// /2704 11023 21064 39354 48394 55000 333 91107 91206;
0137067270999992010011014004+46300+007850FM-12+064099999V0202701N000519999999N9999999N1-00231-00591999999ADDMA1999999093571MD1219999+9999ME1313979OA149900311REMSYN076AAXX  10144 06727 33/// /2701 11023 21059 39357 48397 52/// 333 91106 91205;
0137067270999992010011015004+46300+007850FM-12+064099999V0202701N001519999999N9999999N1-00221-00611999999ADDMA1999999093621MD1210081+9999ME1314019OA149900361REMSYN076AAXX  10154 06727 33/// /2703 11022 21061 39362 48401 52008 333 91107 91206;
0137067270999992010011016004+46300+007850FM-12+064099999V0202801N000519999999N9999999N1-00281-00581999999ADDMA1999999093701MD1310161+9999ME1314069OA149900311REMSYN076AAXX  10164 06727 33/// /2801 11028 21058 39370 48406 53016 333 91106 91204;
0137067270999992010011017004+46300+007850FM-12+064099999V0202401N001019999999N9999999N1-00261-00511999999ADDMA1999999093771MD1310201+9999ME1314139OA149900311REMSYN076AAXX  10174 06727 33/// /2402 11026 21051 39377 48413 53020 333 91106 91204;
0156067270999992010011018004+46300+007850FM-12+064099999V0202701N000519999999N9999999N1-00271-00571999999ADDKA1120M-00211MA1999999093801MD1110181+9999ME1314159OA149900361REMSYN082AAXX  10184 06727 33/// /2701 11027 21057 39380 48415 51018 333 11021 91107 91206;
0137067270999992010011019004+46300+007850FM-12+064099999V0202801N002119999999N9999999N1-00291-00531999999ADDMA1999999093861MD1110161+9999ME1314199OA149900361REMSYN076AAXX  10194 06727 33/// /2804 11029 21053 39386 48419 51016 333 91107 91204;
0137067270999992010011020004+46300+007850FM-12+064099999V0209999C000019999999N9999999N1-00321-00591999999ADDMA1999999093861MD1210091+9999ME1314189OA149900361REMSYN076AAXX  10204 06727 33/// /0000 11032 21059 39386 48418 52009 333 91107 91204;
0137067270999992010011021004+46300+007850FM-12+064099999V0209999C000019999999N9999999N1-00301-00551999999ADDMA1999999093881MD1210081+9999ME1314219OA149900361REMSYN076AAXX  10214 06727 33/// /0000 11030 21055 39388 48421 52008 333 91107 91204;
0137067270999992010011022004+46300+007850FM-12+064099999V0203201N000519999999N9999999N1-00381-00541999999ADDMA1999999093871MD1210011+9999ME1314179OA149900101REMSYN076AAXX  10224 06727 33/// /3201 11038 21054 39387 48417 52001 333 91102 91201;
0137067270999992010011023004+46300+007850FM-12+064099999V0201201N000519999999N9999999N1-00361-00711999999ADDMA1999999093871MD1010011+9999ME1314189OA149900151REMSYN076AAXX  10234 06727 33/// /1201 11036 21071 39387 48418 50001 333 91103 91202;
0137067270999992010011100004+46300+007850FM-12+064099999V0201001N001019999999N9999999N1-00631-00821999999ADDMA1999999093861MD1710021+9999ME1314099OA149900361REMSYN076AAXX  11004 06727 33/// /1002 11063 21082 39386 48409 57002 333 91107 91205;
0137067270999992010011101004+46300+007850FM-12+064099999V0202501N000519999999N9999999N1-00781-00871999999ADDMA1999999093881MD1310011+9999ME1314069OA149900261REMSYN076AAXX  11014 06727 33/// /2501 11078 21087 39388 48406 53001 333 91105 91203;
0137067270999992010011102004+46300+007850FM-12+064099999V0209999C000019999999N9999999N1-01261-01261999999ADDMA1999999093931MD1319999+9999ME1313969OA149900261REMSYN076AAXX  11024 06727 33/// /0000 11126 21126 39393 48396 53/// 333 91105 91203;
0137067270999992010011103004+46300+007850FM-12+064099999V0200901N001019999999N9999999N1-00861-00931999999ADDMA1999999093921MD1219999+9999ME1314079OA149900261REMSYN076AAXX  11034 06727 33/// /0902 11086 21093 39392 48407 52/// 333 91105 91203;
0137067270999992010011104004+46300+007850FM-12+064099999V0201401N001019999999N9999999N1-00741-00941999999ADDMA1999999093911MD1010031+9999ME1314109OA149900261REMSYN076AAXX  11044 06727 33/// /1402 11074 21094 39391 48410 50003 333 91105 91204;
0137067270999992010011105004+46300+007850FM-12+064099999V0201301N001019999999N9999999N1-00941-01041999999ADDMA1999999093921MD1010011+9999ME1314059OA149900261REMSYN076AAXX  11054 06727 33/// /1302 11094 21104 39392 48405 50001 333 91105 91204;
0234067270999992010011106004+46300+007850FM-12+064099999V0201001N002119999999N9999999N1-00881-01091999999ADDAA124000091AL19900091GJ100009IA2999-01709KA1999N-01261MA1999999093911MD1710011+9999ME1314069OA149900361REMSYN100AAXX  11064 06727 33/// /1004 11088 21109 39391 48406 57001 333 21126 3/117 55000 70000 91107 91204;EQDQ01  00002PRCP24
0137067270999992010011107004+46300+007850FM-12+064099999V0201001N002119999999N9999999N1-00901-01111999999ADDMA1999999093861MD1810051+9999ME1314019OA149900361REMSYN076AAXX  11074 06727 33/// /1004 11090 21111 39386 48401 58005 333 91107 91204;
0137067270999992010011108004+46300+007850FM-12+064099999V0202601N001019999999N9999999N1-00951-01081999999ADDMA1999999093861MD1719999+9999ME1314009OA149900311REMSYN076AAXX  11084 06727 33/// /2602 11095 21108 39386 48400 57/// 333 91106 91204;
0137067270999992010011109004+46300+007850FM-12+064099999V0202301N000519999999N9999999N1-01041-01141999999ADDMA1999999093881MD1510031+9999ME1313999OA149900361REMSYN076AAXX  11094 06727 33/// /2301 11104 21114 39388 48399 55003 333 91107 91204;
0137067270999992010011110004+46300+007850FM-12+064099999V0202901N001019999999N9999999N1-01081-01111999999ADDMA1999999093891MD1219999+9999ME1313989OA149900151REMSYN076AAXX  11104 06727 33/// /2902 11108 21111 39389 48398 52/// 333 91103 91203;
0137067270999992010011111004+46300+007850FM-12+064099999V0201301N000519999999N9999999N1-00761-00941999999ADDMA1999999093881MD1010021+9999ME1314079OA149900151REMSYN076AAXX  11114 06727 33/// /1301 11076 21094 39388 48407 50002 333 91103 91203;
0137067270999992010011112004+46300+007850FM-12+064099999V0209999C000019999999N9999999N1-00981-01011999999ADDMA1999999093851MD1710031+9999ME1313989OA149900361REMSYN076AAXX  11124 06727 33/// /0000 11098 21101 39385 48398 57003 333 91107 91204;
0137067270999992010011113004+46300+007850FM-12+064099999V0201001N001019999999N9999999N1-00601-00831999999ADDMA1999999093841MD1710051+9999ME1314089OA149900151REMSYN076AAXX  11134 06727 33/// /1002 11060 21083 39384 48408 57005 333 91103 91202;
0096067270999992010011114004+46300+007850FM-12+064099999V0209999C000019999999N9999999N1-00721-00801999999ADDMA1999999093841ME1314059REMSYN060AAXX  11144 06727 33/// /0000 11072 21080 39384 48405 5////;
0137067270999992010011115004+46300+007850FM-12+064099999V0209999C000019999999N9999999N1-00591-00751999999ADDMA1999999093861MD1310011+9999ME1314109OA149900151REMSYN076AAXX  11154 06727 33/// /0000 11059 21075 39386 48410 53001 333 91103 91203;
0137067270999992010011116004+46300+007850FM-12+064099999V0202801N001019999999N9999999N1-00811-00841999999ADDMA1999999093921MD1210081+9999ME1314099OA149900151REMSYN076AAXX  11164 06727 33/// /2802 11081 21084 39392 48409 52008 333 91103 91202;
0137067270999992010011117004+46300+007850FM-12+064099999V0209999C000019999999N9999999N1-00761-00771999999ADDMA1999999093951MD1310111+9999ME1314139OA149900151REMSYN076AAXX  11174 06727 33/// /0000 11076 21077 39395 48413 53011 333 91103 91202;
0156067270999992010011118004+46300+007850FM-12+064099999V0209999C000019999999N9999999N1-00921-00941999999ADDKA1120M-00561MA1999999094011MD1310151+9999ME1314139OA149900311REMSYN082AAXX  11184 06727 33/// /0000 11092 21094 39401 48413 53015 333 11056 91106 91204;
0137067270999992010011119004+46300+007850FM-12+064099999V0209999C000019999999N9999999N1-00821-00821999999ADDMA1999999094051MD1110131+9999ME1314199OA149900101REMSYN076AAXX  11194 06727 33/// /0000 11082 21082 39405 48419 51013 333 91102 91201;
0137067270999992010011120004+46300+007850FM-12+064099999V0201301N000519999999N9999999N1-00961-01021999999ADDMA1999999094051MD1210101+9999ME1314159OA149900101REMSYN076AAXX  11204 06727 33/// /1301 11096 21102 39405 48415 52010 333 91102 91202;
0137067270999992010011121004+46300+007850FM-12+064099999V0209999C000019999999N9999999N1-00791-00881999999ADDMA1999999094081MD1210071+9999ME1314229OA149900151REMSYN076AAXX  11214 06727 33/// /0000 11079 21088 39408 48422 52007 333 91103 91202;
0137067270999992010011122004+46300+007850FM-12+064099999V0200701N000519999999N9999999N1-00901-00921999999ADDMA1999999094081MD1210031+9999ME1314199OA149900151REMSYN076AAXX  11224 06727 33/// /0701 11090 21092 39408 48419 52003 333 91103 91202;
0137067270999992010011123004+46300+007850FM-12+064099999V0202701N000519999999N9999999N1-00911-00911999999ADDMA1999999094111MD1210061+9999ME1314219OA149900101REMSYN076AAXX  11234 06727 33/// /2701 11091 21091 39411 48421 52006 333 91102 91202;
0137067270999992010011200004+46300+007850FM-12+064099999V0202901N000519999999N9999999N1-00801-00891999999ADDMA1999999094091MD1210011+9999ME1314239OA149900151REMSYN076AAXX  12004 06727 33/// /2901 11080 21089 39409 48423 52001 333 91103 91202;
0137067270999992010011201004+46300+007850FM-12+064099999V0201501N000519999999N9999999N1-00771-00831999999ADDMA1999999094091MD1010011+9999ME1314249OA149900101REMSYN076AAXX  12014 06727 33/// /1501 11077 21083 39409 48424 50001 333 91102 91201;
0137067270999992010011202004+46300+007850FM-12+064099999V0200801N001519999999N9999999N1-00691-00771999999ADDMA1999999094071MD1719999+9999ME1314249OA149900151REMSYN076AAXX  12024 06727 33/// /0803 11069 21077 39407 48424 57/// 333 91103 91203;
0137067270999992010011203004+46300+007850FM-12+064099999V0209999C000019999999N9999999N1-00681-00761999999ADDMA1999999094031MD1810061+9999ME1314229OA149900151REMSYN076AAXX  12034 06727 33/// /0000 11068 21076 39403 48422 58006 333 91103 91203;
0137067270999992010011204004+46300+007850FM-12+064099999V0202901N000519999999N9999999N1-00631-00751999999ADDMA1999999094011MD1710081+9999ME1314219OA149900151REMSYN076AAXX  12044 06727 33/// /2901 11063 21075 39401 48421 57008 333 91103 91202;
0137067270999992010011205004+46300+007850FM-12+064099999V0203201N000519999999N9999999N1-00761-00781999999ADDMA1999999094021MD1710051+9999ME1314189OA149900151REMSYN076AAXX  12054 06727 33/// /3201 11076 21078 39402 48418 57005 333 91103 91202;
0234067270999992010011206004+46300+007850FM-12+064099999V0209999C000019999999N9999999N1-00701-00771999999ADDAA124000091AL19900091GJ100009IA2999-01509KA1999N-01111MA1999999094001MD1710031+9999ME1314189OA149900151REMSYN100AAXX  12064 06727 33/// /0000 11070 21077 39400 48418 57003 333 21111 3/115 55000 70000 91103 91203;EQDQ01  00002PRCP24
0137067270999992010011207004+46300+007850FM-12+064099999V0201501N000519999999N9999999N1-01071-01071999999ADDMA1999999093971MD1710041+9999ME1314059OA149900101REMSYN076AAXX  12074 06727 33/// /1501 11107 21107 39397 48405 57004 333 91102 91201;
0137067270999992010011208004+46300+007850FM-12+064099999V0201201N001019999999N9999999N1-00781-00881999999ADDMA1999999093941MD1719999+9999ME1314119OA149900151REMSYN076AAXX  12084 06727 33/// /1202 11078 21088 39394 48411 57/// 333 91103 91202;
0137067270999992010011209004+46300+007850FM-12+064099999V0201101N000519999999N9999999N1-00841-00941999999ADDMA1999999093891MD1710111+9999ME1314059OA149900261REMSYN076AAXX  12094 06727 33/// /1101 11084 21094 39389 48405 57011 333 91105 91203;
0137067270999992010011210004+46300+007850FM-12+064099999V0209999C000019999999N9999999N1-00831-00931999999ADDMA1999999093811MD1710161+9999ME1313999OA149900261REMSYN076AAXX  12104 06727 33/// /0000 11083 21093 39381 48399 57016 333 91105 91203;
0137067270999992010011211004+46300+007850FM-12+064099999V0202501N000519999999N9999999N1-00781-00871999999ADDMA1999999093701MD1810241+9999ME1313929OA149900211REMSYN076AAXX  12114 06727 33/// /2501 11078 21087 39370 48392 58024 333 91104 91203;
0137067270999992010011212004+46300+007850FM-12+064099999V0209999C000019999999N9999999N1-00701-00781999999ADDMA1999999093581MD1810311+9999ME1313849OA149900261REMSYN076AAXX  12124 06727 33/// /0000 11070 21078 39358 48384 58031 333 91105 91203;
0137067270999992010011213004+46300+007850FM-12+064099999V0201001N001019999999N9999999N1-00471-00671999999ADDMA1999999093511MD1610301+9999ME1313859OA149900151REMSYN076AAXX  12134 06727 33/// /1002 11047 21067 39351 48385 56030 333 91103 91202;
0096067270999992010011214004+46300+007850FM-12+064099999V0201001N001519999999N9999999N1-00351-00601999999ADDMA1999999093421ME1313819REMSYN060AAXX  12144 06727 33/// /1003 11035 21060 39342 48381 5////;
0137067270999992010011215004+46300+007850FM-12+064099999V0209999C000019999999N9999999N1-00361-00561999999ADDMA1999999093341MD1710241+9999ME1313749OA149900261REMSYN076AAXX  12154 06727 33/// /0000 11036 21056 39334 48374 57024 333 91105 91203;
0137067270999992010011216004+46300+007850FM-12+064099999V0202901N001019999999N9999999N1-00391-00551999999ADDMA1999999093281MD1610231+9999ME1313689OA149900261REMSYN076AAXX  12164 06727 33/// /2902 11039 21055 39328 48368 56023 333 91105 91203;
0137067270999992010011217004+46300+007850FM-12+064099999V0202701N001019999999N9999999N1-00201-00661999999ADDMA1999999093281MD1710141+9999ME1313749OA149900511REMSYN076AAXX  12174 06727 33/// /2702 11020 21066 39328 48374 57014 333 91110 91205;
0156067270999992010011218004+46300+007850FM-12+064099999V0201101N008719999999N9999999N1+00281-00691999999ADDKA1120M+00281MA1999999093241MD1710101+9999ME1313849OA149901391REMSYN082AAXX  12184 06727 33/// /1117 10028 21069 39324 48384 57010 333 10028 91127 91217;
0156067270999992010011219004+46300+007850FM-12+064099999V0201201N008219999999N9999999N1+00281-00691999999ADDMA1999999093281MD1410001+9999ME1313879OA149901601REMSYN076AAXX  12194 06727 33/// /1216 10028 21069 39328 48387 53000 333 91131 91217;EQDQ01+000032APCTEN
0137067270999992010011220004+46300+007850FM-12+064099999V0201001N006719999999N9999999N1+00231-00761999999ADDMA1999999093311MD1210031+9999ME1313889OA149901601REMSYN076AAXX  12204 06727 33/// /1013 10023 21076 39331 48388 52003 333 91131 91218;
0137067270999992010011221004+46300+007850FM-12+064099999V0201101N008719999999N9999999N1+00271-00731999999ADDMA1999999093271MD1010031+9999ME1313869OA149901601REMSYN076AAXX  12214 06727 33/// /1117 10027 21073 39327 48386 50003 333 91131 91218;
0137067270999992010011222004+46300+007850FM-12+064099999V0201101N008719999999N9999999N1+00201-00691999999ADDMA1999999093201MD1710081+9999ME1313789OA149901491REMSYN076AAXX  12224 06727 33/// /1117 10020 21069 39320 48378 57008 333 91129 91220;
0137067270999992010011223004+46300+007850FM-12+064099999V0201001N007219999999N9999999N1+00261-00651999999ADDMA1999999093181MD1710131+9999ME1313789OA149901701REMSYN076AAXX  12234 06727 33/// /1014 10026 21065 39318 48378 57013 333 91133 91220;
0137067270999992010011300004+46300+007850FM-12+064099999V0201001N006219999999N9999999N1+00271-00641999999ADDMA1999999093241MD1510031+9999ME1313839OA149901701REMSYN076AAXX  13004 06727 33/// /1012 10027 21064 39324 48383 55003 333 91133 91220;
0137067270999992010011301004+46300+007850FM-12+064099999V0201101N006719999999N9999999N1+00341-00581999999ADDMA1999999093261MD1210061+9999ME1313879OA149901341REMSYN076AAXX  13014 06727 33/// /1113 10034 21058 39326 48387 52006 333 91126 91216;
0137067270999992010011302004+46300+007850FM-12+064099999V0200901N004119999999N9999999N1+00181-00611999999ADDMA1999999093221MD1219999+9999ME1313799OA149901341REMSYN076AAXX  13024 06727 33/// /0908 10018 21061 39322 48379 52/// 333 91126 91216;
0137067270999992010011303004+46300+007850FM-12+064099999V0200801N004619999999N9999999N1+00191-00491999999ADDMA1999999093181MD1819999+9999ME1313769OA149901701REMSYN076AAXX  13034 06727 33/// /0809 10019 21049 39318 48376 58/// 333 91133 91220;
0137067270999992010011304004+46300+007850FM-12+064099999V0200801N003119999999N9999999N1+00231-00571999999ADDMA1999999093161MD1710101+9999ME1313759OA149900881REMSYN076AAXX  13044 06727 33/// /0806 10023 21057 39316 48375 57010 333 91117 91211;
0137067270999992010011305004+46300+007850FM-12+064099999V0200801N002619999999N9999999N1+00131-00441999999ADDMA1999999093161MD1710061+9999ME1313739OA149900771REMSYN076AAXX  13054 06727 33/// /0805 10013 21044 39316 48373 57006 333 91115 91210;
0234067270999992010011306004+46300+007850FM-12+064099999V0203101N001019999999N9999999N1+00021-00451999999ADDAA124000091AL19900091GJ100009IA2999-00209KA1999N-00011MA1999999093231MD1310051+9999ME1313759OA149901701REMSYN100AAXX  13064 06727 33/// /3102 10002 21045 39323 48375 53005 333 21001 3/102 55000 70000 91133 91220;EQDQ01  00002PRCP24
0137067270999992010011307004+46300+007850FM-12+064099999V0203401N000519999999N9999999N1-00011-00411999999ADDMA1999999093271MD1210111+9999ME1313789OA149900411REMSYN076AAXX  13074 06727 33/// /3401 11001 21041 39327 48378 52011 333 91108 91205;
0137067270999992010011308004+46300+007850FM-12+064099999V0209999C000019999999N9999999N1-00031-00371999999ADDMA1999999093331MD1110171+9999ME1313829OA149900261REMSYN076AAXX  13084 06727 33/// /0000 11003 21037 39333 48382 51017 333 91105 91203;
0137067270999992010011309004+46300+007850FM-12+064099999V0202801N002119999999N9999999N1+00011-00281999999ADDMA1999999093401MD1310171+9999ME1313909OA149900771REMSYN076AAXX  13094 06727 33/// /2804 10001 21028 39340 48390 53017 333 91115 91210;
0137067270999992010011310004+46300+007850FM-12+064099999V0203101N000519999999N9999999N1+00001-00181999999ADDMA1999999093431MD1110161+9999ME1313929OA149900361REMSYN076AAXX  13104 06727 33/// /3101 10000 21018 39343 48392 51016 333 91107 91204;
0137067270999992010011311004+46300+007850FM-12+064099999V0202801N001519999999N9999999N1+00061-00131999999ADDMA1999999093421MD1210091+9999ME1313939OA149900311REMSYN076AAXX  13114 06727 33/// /2803 10006 21013 39342 48393 52009 333 91106 91204;
0137067270999992010011312004+46300+007850FM-12+064099999V0202801N001019999999N9999999N1+00091-00141999999ADDMA1999999093381MD1810021+9999ME1313909OA149901341REMSYN076AAXX  13124 06727 33/// /2802 10009 21014 39338 48390 58002 333 91126 91216;
0137067270999992010011313004+46300+007850FM-12+064099999V0202901N001019999999N9999999N1+00131-00111999999ADDMA1999999093331MD1810101+9999ME1313879OA149900211REMSYN076AAXX  13134 06727 33/// /2902 10013 21011 39333 48387 58010 333 91104 91203;
0137067270999992010011314004+46300+007850FM-12+064099999V0209999C000019999999N9999999N1+00141-00131999999ADDMA1999999093331MD1719999+9999ME1313879OA149900151REMSYN076AAXX  13144 06727 33/// /0000 10014 21013 39333 48387 57/// 333 91103 91203;
0137067270999992010011315004+46300+007850FM-12+064099999V0209999C000019999999N9999999N1+00161-00101999999ADDMA1999999093341MD1710041+9999ME1313899OA149900311REMSYN076AAXX  13154 06727 33/// /0000 10016 21010 39334 48389 57004 333 91106 91204;
0137067270999992010011316004+46300+007850FM-12+064099999V0202801N002619999999N9999999N1+00121-00081999999ADDMA1999999093391MD1310061+9999ME1313929OA149900361REMSYN076AAXX  13164 06727 33/// /2805 10012 21008 39339 48392 53006 333 91107 91205;
0154067270999992010011317004+46300+007850FM-12+064099999V0202801N000519999999N9999999N1+00021-00011999999ADDAA101000021MA1999999093441MD1310111+9999ME1313939OA149900361REMSYN082AAXX  13174 06727 23/// /2801 10002 21001 39344 48393 53011 333 69915 91107 91205;
0179067270999992010011318004+46300+007850FM-12+064099999V0203101N000519999999N9999999N1+00011+00001999999ADDAA112000591KA1120M+00201MA1999999093481MD1110141+9999ME1313969OA149900361REMSYN094AAXX  13184 06727 03/// /3101 10001 20000 39348 48396 51014 69942 333 10020 69935 91107 91205;
0154067270999992010011319004+46300+007850FM-12+064099999V0200901N001019999999N9999999N1+00061+00021999999ADDAA101000021MA1999999093491MD1119999+9999ME1313999OA149900151REMSYN082AAXX  13194 06727 23/// /0902 10006 20002 39349 48399 51/// 333 69925 91103 91202;
0096067270999992010011400004+46300+007850FM-12+064099999V0202701N000519999999N9999999N1-00561-00561999999ADDMA1999999093381ME1313729REMSYN060AAXX  14004 06727 43/// /2701 11056 21056 39338 48372 5////;
0137067270999992010011401004+46300+007850FM-12+064099999V0203401N000519999999N9999999N1-00551-00551999999ADDMA1999999093331MD1819999+9999ME1313689OA149900151REMSYN076AAXX  14014 06727 33/// /3401 11055 21055 39333 48368 58/// 333 91103 91202;
0137067270999992010011402004+46300+007850FM-12+064099999V0200401N000519999999N9999999N1-00591-00621999999ADDMA1999999093281MD1719999+9999ME1313639OA149900151REMSYN076AAXX  14024 06727 33/// /0401 11059 21062 39328 48363 57/// 333 91103 91202;
0096067270999992010011403004+46300+007850FM-12+064099999V0202801N001019999999N9999999N1-00511-00531999999ADDMA1999999093301ME1313679REMSYN060AAXX  14034 06727 33/// /2802 11051 21053 39330 48367 5////;
0137067270999992010011404004+46300+007850FM-12+064099999V0200701N001519999999N9999999N1-00601-00641999999ADDMA1999999093291MD1510041+9999ME1313639OA149900261REMSYN076AAXX  14044 06727 33/// /0703 11060 21064 39329 48363 55004 333 91105 91203;
0137067270999992010011405004+46300+007850FM-12+064099999V0201001N002619999999N9999999N1-00351-00501999999ADDMA1999999093241MD1810041+9999ME1313669OA149900311REMSYN076AAXX  14054 06727 33/// /1005 11035 21050 39324 48366 58004 333 91106 91205;
0257067270999992010011406004+46300+007850FM-12+064099999V0209999C000019999999N9999999N1-00671-00731999999ADDAA112000091AA224000591AL13600091GJ100009IA2999-01109KA1999N-00691MA1999999093231MD1710071+9999ME1313569OA149900361REMSYN112AAXX  14064 06727 03/// /0000 11067 21073 39323 48356 57007 69922 333 21069 3/111 55000 60005 70006 91107 91205;EQDQ01  00002PRCP12
0137067270999992010011407004+46300+007850FM-12+064099999V0201301N000519999999N9999999N1-00651-00711999999ADDMA1999999093221MD1710071+9999ME1313569OA149900361REMSYN076AAXX  14074 06727 33/// /1301 11065 21071 39322 48356 57007 333 91107 91204;
0137067270999992010011408004+46300+007850FM-12+064099999V0201501N000519999999N9999999N1-00481-00651999999ADDMA1999999093221MD1719999+9999ME1313619OA149900151REMSYN076AAXX  14084 06727 33/// /1501 11048 21065 39322 48361 57/// 333 91103 91202;
0137067270999992010011409004+46300+007850FM-12+064099999V0202701N001519999999N9999999N1-00491-00621999999ADDMA1999999093211MD1610021+9999ME1313609OA149900361REMSYN076AAXX  14094 06727 33/// /2703 11049 21062 39321 48360 56002 333 91107 91205;
0137067270999992010011410004+46300+007850FM-12+064099999V0209999C000019999999N9999999N1-00441-00581999999ADDMA1999999093191MD1810031+9999ME1313599OA149900261REMSYN076AAXX  14104 06727 33/// /0000 11044 21058 39319 48359 58003 333 91105 91203;
0137067270999992010011411004+46300+007850FM-12+064099999V0201101N006219999999N9999999N1+00451-00551999999ADDMA1999999093051MD1810171+9999ME1313729OA149901031REMSYN076AAXX  14114 06727 33/// /1112 10045 21055 39305 48372 58017 333 91120 91212;
0137067270999992010011412004+46300+007850FM-12+064099999V0201001N008219999999N9999999N1+00601-00571999999ADDMA1999999093001MD1710211+9999ME1313729OA149901291REMSYN076AAXX  14124 06727 33/// /1016 10060 21057 39300 48372 57021 333 91125 91218;
0137067270999992010011413004+46300+007850FM-12+064099999V0201101N006719999999N9999999N1+00601-00501999999ADDMA1999999093001MD1710191+9999ME1313729OA149901291REMSYN076AAXX  14134 06727 33/// /1113 10060 21050 39300 48372 57019 333 91125 91218;
0137067270999992010011414004+46300+007850FM-12+064099999V0201101N007719999999N9999999N1+00611-00521999999ADDMA1999999093031MD1510021+9999ME1313759OA149901241REMSYN076AAXX  14144 06727 33/// /1115 10061 21052 39303 48375 55002 333 91124 91216;
0137067270999992010011415004+46300+007850FM-12+064099999V0201101N008219999999N9999999N1+00601-00511999999ADDMA1999999093051MD1210051+9999ME1313769OA149901291REMSYN076AAXX  14154 06727 33/// /1116 10060 21051 39305 48376 52005 333 91125 91218;
0137067270999992010011416004+46300+007850FM-12+064099999V0201201N007719999999N9999999N1+00571-00531999999ADDMA1999999093051MD1210051+9999ME1313759OA149901181REMSYN076AAXX  14164 06727 33/// /1215 10057 21053 39305 48375 52005 333 91123 91216;
0137067270999992010011417004+46300+007850FM-12+064099999V0201001N005119999999N9999999N1+00451-00491999999ADDMA1999999093101MD1210071+9999ME1313769OA149901181REMSYN076AAXX  14174 06727 33/// /1010 10045 21049 39310 48376 52007 333 91123 91215;
0156067270999992010011418004+46300+007850FM-12+064099999V0200701N004619999999N9999999N1+00391-00501999999ADDKA1120M+00641MA1999999093171MD1310121+9999ME1313819OA149901291REMSYN082AAXX  14184 06727 33/// /0709 10039 21050 39317 48381 53012 333 10064 91125 91218;
0137067270999992010011419004+46300+007850FM-12+064099999V0200701N004119999999N9999999N1+00371-00541999999ADDMA1999999093251MD1310201+9999ME1313879OA149901081REMSYN076AAXX  14194 06727 33/// /0708 10037 21054 39325 48387 53020 333 91121 91212;
0137067270999992010011420004+46300+007850FM-12+064099999V0200801N003119999999N9999999N1+00281-00631999999ADDMA1999999093321MD1110221+9999ME1313909OA149900821REMSYN076AAXX  14204 06727 33/// /0806 10028 21063 39332 48390 51022 333 91116 91209;
0137067270999992010011421004+46300+007850FM-12+064099999V0209999C000019999999N9999999N1+00101-00541999999ADDMA1999999093421MD1210251+9999ME1313949OA149901181REMSYN076AAXX  14214 06727 33/// /0000 10010 21054 39342 48394 52025 333 91123 91215;
0137067270999992010011422004+46300+007850FM-12+064099999V0209999C000019999999N9999999N1-00151-00511999999ADDMA1999999093531MD1310281+9999ME1313969OA149900571REMSYN076AAXX  14224 06727 33/// /0000 11015 21051 39353 48396 53028 333 91111 91206;
0137067270999992010011423004+46300+007850FM-12+064099999V0201101N002119999999N9999999N1-00061-00401999999ADDMA1999999093581MD1210261+9999ME1314039OA149900261REMSYN076AAXX  14234 06727 33/// /1104 11006 21040 39358 48403 52026 333 91105 91204;
0137067270999992010011500004+46300+007850FM-12+064099999V0200701N002119999999N9999999N1+00061-00491999999ADDMA1999999093611MD1210191+9999ME1314099OA149901241REMSYN076AAXX  15004 06727 33/// /0704 10006 21049 39361 48409 52019 333 91124 91216;
0137067270999992010011501004+46300+007850FM-12+064099999V0200901N001019999999N9999999N1-00371-00621999999ADDMA1999999093671MD1210141+9999ME1314019OA149900361REMSYN076AAXX  15014 06727 33/// /0902 11037 21062 39367 48401 52014 333 91107 91205;
0137067270999992010011502004+46300+007850FM-12+064099999V0209999C000019999999N9999999N1-00311-00571999999ADDMA1999999093781MD1310201+9999ME1314129OA149900261REMSYN076AAXX  15024 06727 33/// /0000 11031 21057 39378 48412 53020 333 91105 91203;
0096067270999992010011503004+46300+007850FM-12+064099999V0200801N000519999999N9999999N1-00301-00501999999ADDMA1999999093891ME1314219REMSYN060AAXX  15034 06727 33/// /0801 11030 21050 39389 48421 5////;
0137067270999992010011504004+46300+007850FM-12+064099999V0201201N001519999999N9999999N1-00261-00561999999ADDMA1999999093931MD1110261+9999ME1314269OA149900361REMSYN076AAXX  15044 06727 33/// /1203 11026 21056 39393 48426 51026 333 91107 91204;
0137067270999992010011505004+46300+007850FM-12+064099999V0201301N001019999999N9999999N1-00211-00581999999ADDMA1999999093991MD1110211+9999ME1314329OA149900361REMSYN076AAXX  15054 06727 33/// /1302 11021 21058 39399 48432 51021 333 91107 91204;
0234067270999992010011506004+46300+007850FM-12+064099999V0201001N000519999999N9999999N1-00371-00641999999ADDAA124000091AL19900091GJ100009IA2999-00909KA1999N-00491MA1999999094101MD1310211+9999ME1314379OA149900821REMSYN100AAXX  15064 06727 33/// /1001 11037 21064 39410 48437 53021 333 21049 3/109 55000 70000 91116 91209;EQDQ01  00002PRCP24
0137067270999992010011507004+46300+007850FM-12+064099999V0201301N000519999999N9999999N1-00331-00581999999ADDMA1999999094221MD1310291+9999ME1314489OA149900151REMSYN076AAXX  15074 06727 33/// /1301 11033 21058 39422 48448 53029 333 91103 91202;
0137067270999992010011508004+46300+007850FM-12+064099999V0201401N000519999999N9999999N1-00261-00571999999ADDMA1999999094331MD1219999+9999ME1314599OA149900151REMSYN076AAXX  15084 06727 33/// /1401 11026 21057 39433 48459 52/// 333 91103 91202;
0137067270999992010011509004+46300+007850FM-12+064099999V0209999C000019999999N9999999N1-00251-00501999999ADDMA1999999094431MD1210331+9999ME1314679OA149900361REMSYN076AAXX  15094 06727 33/// /0000 11025 21050 39443 48467 52033 333 91107 91204;
0137067270999992010011510004+46300+007850FM-12+064099999V0201301N000519999999N9999999N1-00091-00521999999ADDMA1999999094491MD1110271+9999ME1314779OA149900151REMSYN076AAXX  15104 06727 33/// /1301 11009 21052 39449 48477 51027 333 91103 91202;
0137067270999992010011511004+46300+007850FM-12+064099999V0201201N001519999999N9999999N1+00061-00511999999ADDMA1999999094451MD1010121+9999ME1314799OA149900211REMSYN076AAXX  15114 06727 33/// /1203 10006 21051 39445 48479 50012 333 91104 91204;
0137067270999992010011512004+46300+007850FM-12+064099999V0201301N001519999999N9999999N1+00251-00471999999ADDMA1999999094411MD1810021+9999ME1314829OA149900361REMSYN076AAXX  15124 06727 33/// /1303 10025 21047 39441 48482 58002 333 91107 91204;
0137067270999992010011513004+46300+007850FM-12+064099999V0201201N001519999999N9999999N1+00381-00401999999ADDMA1999999094401MD1710091+9999ME1314859OA149900261REMSYN076AAXX  15134 06727 33/// /1203 10038 21040 39440 48485 57009 333 91105 91204;
0137067270999992010011514004+46300+007850FM-12+064099999V0202601N002119999999N9999999N1+00361-00501999999ADDMA1999999094411MD1510041+9999ME1314859OA149900411REMSYN076AAXX  15144 06727 33/// /2604 10036 21050 39441 48485 55004 333 91108 91204;
0137067270999992010011515004+46300+007850FM-12+064099999V0202701N003619999999N9999999N1+00281-00481999999ADDMA1999999094501MD1310091+9999ME1314909OA149900571REMSYN076AAXX  15154 06727 33/// /2707 10028 21048 39450 48490 53009 333 91111 91207;
0137067270999992010011516004+46300+007850FM-12+064099999V0202901N000519999999N9999999N1+00271-00531999999ADDMA1999999094581MD1210181+9999ME1314969OA149900571REMSYN076AAXX  15164 06727 33/// /2901 10027 21053 39458 48496 52018 333 91111 91207;
0137067270999992010011517004+46300+007850FM-12+064099999V0201201N000519999999N9999999N1-00111-00491999999ADDMA1999999094701MD1310291+9999ME1314949OA149900511REMSYN076AAXX  15174 06727 33/// /1201 11011 21049 39470 48494 53029 333 91110 91205;
0156067270999992010011518004+46300+007850FM-12+064099999V0201001N001019999999N9999999N1-00171-00451999999ADDKA1120M+00411MA1999999094761MD1210261+9999ME1314979OA149900571REMSYN082AAXX  15184 06727 33/// /1002 11017 21045 39476 48497 52026 333 10041 91111 91207;
0137067270999992010011519004+46300+007850FM-12+064099999V0201101N001519999999N9999999N1-00151-00481999999ADDMA1999999094811MD1110231+9999ME1315029OA149900261REMSYN076AAXX  15194 06727 33/// /1103 11015 21048 39481 48502 51023 333 91105 91203;
0137067270999992010011520004+46300+007850FM-12+064099999V0201101N001019999999N9999999N1-00191-00531999999ADDMA1999999094821MD1110121+9999ME1315019OA149900261REMSYN076AAXX  15204 06727 33/// /1102 11019 21053 39482 48501 51012 333 91105 91203;
0137067270999992010011521004+46300+007850FM-12+064099999V0201501N000519999999N9999999N1-00191-00521999999ADDMA1999999094821MD1210061+9999ME1315019OA149900511REMSYN076AAXX  15214 06727 33/// /1501 11019 21052 39482 48501 52006 333 91110 91205;
0137067270999992010011522004+46300+007850FM-12+064099999V0201401N001519999999N9999999N1-00141-00541999999ADDMA1999999094831MD1210021+9999ME1315049OA149900211REMSYN076AAXX  15224 06727 33/// /1403 11014 21054 39483 48504 52002 333 91104 91203;
0137067270999992010011523004+46300+007850FM-12+064099999V0201201N000519999999N9999999N1-00471-00661999999ADDMA1999999094841MD1210021+9999ME1314949OA149900211REMSYN076AAXX  15234 06727 33/// /1201 11047 21066 39484 48494 52002 333 91104 91203;
0137067270999992010011600004+46300+007850FM-12+064099999V0202601N000519999999N9999999N1-00441-00641999999ADDMA1999999094841MD1210021+9999ME1314959OA149900571REMSYN076AAXX  16004 06727 33/// /2601 11044 21064 39484 48495 52002 333 91111 91207;
0137067270999992010011601004+46300+007850FM-12+064099999V0203001N000519999999N9999999N1-00581-00731999999ADDMA1999999094841MD1010011+9999ME1314909OA149900211REMSYN076AAXX  16014 06727 33/// /3001 11058 21073 39484 48490 50001 333 91104 91203;
0137067270999992010011602004+46300+007850FM-12+064099999V0200901N001019999999N9999999N1-00691-00801999999ADDMA1999999094881MD1310041+9999ME1314909OA149900261REMSYN076AAXX  16024 06727 33/// /0902 11069 21080 39488 48490 53004 333 91105 91203;
0137067270999992010011603004+46300+007850FM-12+064099999V0200901N002619999999N9999999N1-00411-00691999999ADDMA1999999094851MD1019999+9999ME1314979OA149900361REMSYN076AAXX  16034 06727 33/// /0905 11041 21069 39485 48497 50/// 333 91107 91205;
0156067270999992010011604004+46300+007850FM-12+064099999V0200901N001519999999N9999999N1-00421-00771999999ADDMA1999999094841MD1410001+9999ME1314969OA149900411REMSYN076AAXX  16044 06727 33/// /0903 11042 21077 39484 48496 58000 333 91108 91205;EQDQ01+000082APCTEN
0137067270999992010011605004+46300+007850FM-12+064099999V0201001N001019999999N9999999N1-00341-00771999999ADDMA1999999094811MD1710071+9999ME1314969OA149900411REMSYN076AAXX  16054 06727 33/// /1002 11034 21077 39481 48496 57007 333 91108 91204;
0234067270999992010011606004+46300+007850FM-12+064099999V0201201N001019999999N9999999N1-00411-00741999999ADDAA124000091AL19900091GJ100009IA2999-01009KA1999N-00751MA1999999094801MD1710051+9999ME1314939OA149900411REMSYN100AAXX  16064 06727 33/// /1202 11041 21074 39480 48493 57005 333 21075 3/110 55000 70000 91108 91205;EQDQ01  00002PRCP24
0137067270999992010011607004+46300+007850FM-12+064099999V0201001N002119999999N9999999N1-00391-00851999999ADDMA1999999094771MD1710071+9999ME1314919OA149900361REMSYN076AAXX  16074 06727 33/// /1004 11039 21085 39477 48491 57007 333 91107 91204;
0137067270999992010011608004+46300+007850FM-12+064099999V0200901N002119999999N9999999N1-00321-00851999999ADDMA1999999094721MD1710091+9999ME1314899OA149900511REMSYN076AAXX  16084 06727 33/// /0904 11032 21085 39472 48489 57009 333 91110 91205;
0137067270999992010011609004+46300+007850FM-12+064099999V0201101N002619999999N9999999N1-00201-00831999999ADDMA1999999094661MD1710141+9999ME1314889OA149900511REMSYN076AAXX  16094 06727 33/// /1105 11020 21083 39466 48488 57014 333 91110 91206;
0137067270999992010011610004+46300+007850FM-12+064099999V0201101N000519999999N9999999N1-00091-00851999999ADDMA1999999094591MD1710181+9999ME1314869OA149900511REMSYN076AAXX  16104 06727 33/// /1101 11009 21085 39459 48486 57018 333 91110 91206;
0137067270999992010011611004+46300+007850FM-12+064099999V0201601N000519999999N9999999N1-00081-00691999999ADDMA1999999094501MD1710221+9999ME1314799OA149900311REMSYN076AAXX  16114 06727 33/// /1601 11008 21069 39450 48479 57022 333 91106 91204;
0137067270999992010011612004+46300+007850FM-12+064099999V0209999C000019999999N9999999N1+00151-00511999999ADDMA1999999094391MD1810271+9999ME1314779OA149900511REMSYN076AAXX  16124 06727 33/// /0000 10015 21051 39439 48477 58027 333 91110 91206;
0137067270999992010011613004+46300+007850FM-12+064099999V0201901N000519999999N9999999N1+00321-00511999999ADDMA1999999094311MD1810281+9999ME1314759OA149900101REMSYN076AAXX  16134 06727 33/// /1901 10032 21051 39431 48475 58028 333 91102 91202;
0137067270999992010011614004+46300+007850FM-12+064099999V0202701N002119999999N9999999N1+00261-00521999999ADDMA1999999094271MD1619999+9999ME1314709OA149900571REMSYN076AAXX  16144 06727 33/// /2704 10026 21052 39427 48470 56/// 333 91111 91208;
0137067270999992010011615004+46300+007850FM-12+064099999V0201301N000519999999N9999999N1+00321-00591999999ADDMA1999999094221MD1710171+9999ME1314689OA149900571REMSYN076AAXX  16154 06727 33/// /1301 10032 21059 39422 48468 57017 333 91111 91208;
0137067270999992010011616004+46300+007850FM-12+064099999V0203201N000519999999N9999999N1+00211-00541999999ADDMA1999999094251MD1510061+9999ME1314679OA149900361REMSYN076AAXX  16164 06727 33/// /3201 10021 21054 39425 48467 55006 333 91107 91205;
0137067270999992010011617004+46300+007850FM-12+064099999V0201001N001019999999N9999999N1+00181-00451999999ADDMA1999999094211MD1710061+9999ME1314639OA149900361REMSYN076AAXX  16174 06727 33/// /1002 10018 21045 39421 48463 57006 333 91107 91205;
0156067270999992010011618004+46300+007850FM-12+064099999V0203201N000519999999N9999999N1+00181-00441999999ADDKA1120M+00341MA1999999094241MD1310021+9999ME1314659OA149900571REMSYN082AAXX  16184 06727 33/// /3201 10018 21044 39424 48465 53002 333 10034 91111 91208;
0137067270999992010011619004+46300+007850FM-12+064099999V0202201N000519999999N9999999N1+00171-00471999999ADDMA1999999094281MD1310031+9999ME1314689OA149900361REMSYN076AAXX  16194 06727 33/// /2201 10017 21047 39428 48468 53003 333 91107 91203;
0137067270999992010011620004+46300+007850FM-12+064099999V0203301N000519999999N9999999N1+00151-00481999999ADDMA1999999094311MD1210101+9999ME1314709OA149900311REMSYN076AAXX  16204 06727 33/// /3301 10015 21048 39431 48470 52010 333 91106 91205;
0137067270999992010011621004+46300+007850FM-12+064099999V0200901N001019999999N9999999N1+00121-00431999999ADDMA1999999094281MD1010041+9999ME1314679OA149900361REMSYN076AAXX  16214 06727 33/// /0902 10012 21043 39428 48467 50004 333 91107 91205;
0137067270999992010011622004+46300+007850FM-12+064099999V0200701N002119999999N9999999N1+00151-00361999999ADDMA1999999094291MD1710011+9999ME1314689OA149900311REMSYN076AAXX  16224 06727 33/// /0704 10015 21036 39429 48468 57001 333 91106 91204;
0137067270999992010011623004+46300+007850FM-12+064099999V0209999C000019999999N9999999N1+00151-00301999999ADDMA1999999094301MD1210011+9999ME1314699OA149900361REMSYN076AAXX  16234 06727 33/// /0000 10015 21030 39430 48469 52001 333 91107 91204;
0137067270999992010011700004+46300+007850FM-12+064099999V0202801N001019999999N9999999N1+00101-00211999999ADDMA1999999094371MD1210091+9999ME1314749OA149900571REMSYN076AAXX  17004 06727 33/// /2802 10010 21021 39437 48474 52009 333 91111 91208;
0154067270999992010011701004+46300+007850FM-12+064099999V0209999C000019999999N9999999N1+00051-00071999999ADDAA101000591MA1999999094461MD1210171+9999ME1314799OA149900311REMSYN082AAXX  17014 06727 23/// /0000 10005 21007 39446 48479 52017 333 69945 91106 91204;
0154067270999992010011702004+46300+007850FM-12+064099999V0203001N000519999999N9999999N1+00011-00011999999ADDAA101000591MA1999999094441MD1219999+9999ME1314779OA149900311REMSYN082AAXX  17024 06727 23/// /3001 10001 21001 39444 48477 52/// 333 69965 91106 91204;
0096067270999992010011703004+46300+007850FM-12+064099999V0201101N002119999999N9999999N1+00111+00021999999ADDMA1999999094321ME1314709REMSYN060AAXX  17034 06727 43/// /1104 10011 20002 39432 48470 5////;
0154067270999992010011704004+46300+007850FM-12+064099999V0201501N000519999999N9999999N1+00091+00021999999ADDAA101000021MA1999999094291MD1710171+9999ME1314679OA149900411REMSYN082AAXX  17044 06727 23/// /1501 10009 20002 39429 48467 57017 333 69915 91108 91204;
0154067270999992010011705004+46300+007850FM-12+064099999V0203001N001019999999N9999999N1+00091+00031999999ADDAA101000021MA1999999094291MD1519999+9999ME1314679OA149900411REMSYN082AAXX  17054 06727 23/// /3002 10009 20003 39429 48467 55/// 333 69915 91108 91204;
0238067270999992010011706004+46300+007850FM-12+064099999V0202401N000519999999N9999999N1+00081+00041999999ADDAA112002092AA224001892AL14800191GJ100009IA2999-00109KA1999N+00011MA1999999094261MD1710061+9999ME1314649OA149900411REMSYN112AAXX  17064 06727 03/// /2401 10008 20004 39426 48464 57006 60022 333 20001 3/101 55000 69945 70018 91108 91205;
0154067270999992010011707004+46300+007850FM-12+064099999V0203201N000519999999N9999999N1+00041+00011999999ADDAA101000591MA1999999094341MD1310051+9999ME1314699OA149900211REMSYN082AAXX  17074 06727 23/// /3201 10004 20001 39434 48469 53005 333 69945 91104 91203;
0154067270999992010011708004+46300+007850FM-12+064099999V0202901N001019999999N9999999N1+00051+00011999999ADDAA101000021MA1999999094381MD1219999+9999ME1314739OA149900151REMSYN082AAXX  17084 06727 23/// /2902 10005 20001 39438 48473 52/// 333 69915 91103 91202;
0154067270999992010011709004+46300+007850FM-12+064099999V0200901N000519999999N9999999N1+00061+00021999999ADDAA101000591MA1999999094441MD1210181+9999ME1314789OA149900411REMSYN082AAXX  17094 06727 23/// /0901 10006 20002 39444 48478 52018 333 69965 91108 91204;
0137067270999992010011710004+46300+007850FM-12+064099999V0202001N000519999999N9999999N1+00071+00031999999ADDMA1999999094531MD1210191+9999ME1314869OA149900211REMSYN076AAXX  17104 06727 33/// /2001 10007 20003 39453 48486 52019 333 91104 91203;
0137067270999992010011711004+46300+007850FM-12+064099999V0209999C000019999999N9999999N1+00121+00061999999ADDMA1999999094471MD1010091+9999ME1314839OA149900151REMSYN076AAXX  17114 06727 33/// /0000 10012 20006 39447 48483 50009 333 91103 91202;
0179067270999992010011712004+46300+007850FM-12+064099999V0200901N001519999999N9999999N1+00171+00101999999ADDAA106001091MA1999999094441MD1410001+9999ME1314829OA149900411REMSYN088AAXX  17124 06727 03/// /0903 10017 20010 39444 48482 58000 60011 333 60005 91108 91204;EQDQ01+000082APCTEN
0137067270999992010011713004+46300+007850FM-12+064099999V0201501N000519999999N9999999N1+00331+00181999999ADDMA1999999094441MD1710091+9999ME1314879OA149900311REMSYN076AAXX  17134 06727 33/// /1501 10033 20018 39444 48487 57009 333 91106 91204;
0137067270999992010011714004+46300+007850FM-12+064099999V0202801N006719999999N9999999N1+00391+00151999999ADDMA1999999094461MD1519999+9999ME1314909OA149901241REMSYN076AAXX  17144 06727 33/// /2813 10039 20015 39446 48490 55/// 333 91124 91215;
0137067270999992010011715004+46300+007850FM-12+064099999V0202901N006719999999N9999999N1+00411+00141999999ADDMA1999999094491MD1210051+9999ME1314939OA149901241REMSYN076AAXX  17154 06727 33/// /2913 10041 20014 39449 48493 52005 333 91124 91215;
0137067270999992010011716004+46300+007850FM-12+064099999V0202901N007219999999N9999999N1+00441+00081999999ADDMA1999999094531MD1210091+9999ME1314989OA149901241REMSYN076AAXX  17164 06727 33/// /2914 10044 20008 39453 48498 52009 333 91124 91214;
0137067270999992010011717004+46300+007850FM-12+064099999V0202801N007719999999N9999999N1+00411-00011999999ADDMA1999999094621MD1310161+9999ME1315049OA149901241REMSYN076AAXX  17174 06727 33/// /2815 10041 21001 39462 48504 53016 333 91124 91217;
0179067270999992010011718004+46300+007850FM-12+064099999V0202801N008219999999N9999999N1+00391-00071999999ADDAA112001091KA1120M+00451MA1999999094691MD1310201+9999ME1315109OA149901241REMSYN094AAXX  17184 06727 03/// /2816 10039 21007 39469 48510 53020 60012 333 10045 60005 91124 91217;
0137067270999992010011719004+46300+007850FM-12+064099999V0202701N004619999999N9999999N1+00351-00091999999ADDMA1999999094791MD1110261+9999ME1315179OA149901241REMSYN076AAXX  17194 06727 33/// /2709 10035 21009 39479 48517 51026 333 91124 91216;
0137067270999992010011720004+46300+007850FM-12+064099999V0202801N001519999999N9999999N1+00281-00081999999ADDMA1999999094841MD1110221+9999ME1315199OA149901131REMSYN076AAXX  17204 06727 33/// /2803 10028 21008 39484 48519 51022 333 91122 91213;
0137067270999992010011721004+46300+007850FM-12+064099999V0200501N001019999999N9999999N1+00181-00111999999ADDMA1999999094871MD1210181+9999ME1315189OA149901241REMSYN076AAXX  17214 06727 33/// /0502 10018 21011 39487 48518 52018 333 91124 91217;
0137067270999992010011722004+46300+007850FM-12+064099999V0201101N002119999999N9999999N1+00101-00151999999ADDMA1999999094901MD1210111+9999ME1315189OA149900461REMSYN076AAXX  17224 06727 33/// /1104 10010 21015 39490 48518 52011 333 91109 91205;
0137067270999992010011723004+46300+007850FM-12+064099999V0200901N001519999999N9999999N1+00151-00141999999ADDMA1999999094951MD1210111+9999ME1315239OA149900411REMSYN076AAXX  17234 06727 33/// /0903 10015 21014 39495 48523 52011 333 91108 91205;
