0118067205999992011010107504+46217+007317FM-15+0482LSMS V0209999C000012200019N0030001N1-00701-00801999999ADDGF100991999999999999999999MA1102301999999MW1101REMMET059METAR LSMS 010750Z 00000KT 3000 BR NSC M07/M08 Q1023 NOSIG;
0080067205999992011010112504+46217+007317FM-15+0482LSMS V0209999V001519999999Y0099001N1-00101-00301999999ADDMA1102001999999REMMET053METAR LSMS 011250Z VRB03KT CAVOK M01/M03 Q1020 NOSIG;
0128067205999992011010212504+46217+007317FM-15+0482LSMS V0202501N002112200019N0112651N1-00101-00501999999ADDGA1021+009001999GF102991999999999999999999MA1101691999999REMMET059METAR LSMS 021250Z 25004KT 9999 FEW030 M01/M05 Q1017 NOSIG;
0138067205999992011010305504+46217+007317FM-15+0482LSMS V0200901N002110120019N0112651N1-00201-00601999999ADDGA1081+012001999GF108991999999999999999999MA1102101999999REMMET069METAR LSMS 030550Z 09004KT 060V120 9999 OVC040 M02/M06 Q1021 RMK WHT;
0128067205999992011010309504+46217+007317FM-15+0482LSMS V0201001N002612200019N0112651N1-00201-00701999999ADDGA1041+015001999GF104991999999999999999999MA1102201999999REMMET059METAR LSMS 030950Z 10005KT 9999 SCT050 M02/M07 Q1022 NOSIG;
0119067205999992011010317504+46217+007317AUTO +0482LSMS V0209999C000012200019N0112651N1-00301-00701999999ADDGF100991999999999999999999MA1102101999999REMMET066METAR LSMS 031750Z AUTO 00000KT 9999NDV NCD M03/M07 Q1021 RMK BLU;
0119067205999992011010318504+46217+007317AUTO +0482LSMS V0200901N002612200019N0112651N1-00301-00701999999ADDGF100991999999999999999999MA1102101999999REMMET066METAR LSMS 031850Z AUTO 09005KT 9999NDV NCD M03/M07 Q1021 RMK BLU;
0119067205999992011010319504+46217+007317AUTO +0482LSMS V0200901N002612200019N0112651N1-00401-00801999999ADDGF100991999999999999999999MA1102101999999REMMET066METAR LSMS 031950Z AUTO 09005KT 9999NDV NCD M04/M08 Q1021 RMK BLU;
0119067205999992011010320504+46217+007317AUTO +0482LSMS V0200901N002612200019N0112651N1-00401-00801999999ADDGF100991999999999999999999MA1102101999999REMMET066METAR LSMS 032050Z AUTO 09005KT 9999NDV NCD M04/M08 Q1021 RMK BLU;
0119067205999992011010321504+46217+007317AUTO +0482LSMS V0200801N002612200019N0112651N1-00501-00801999999ADDGF100991999999999999999999MA1102101999999REMMET066METAR LSMS 032150Z AUTO 08005KT 9999NDV NCD M05/M08 Q1021 RMK BLU;
0119067205999992011010322504+46217+007317AUTO +0482LSMS V0200901N002612200019N0112651N1-00501-00801999999ADDGF100991999999999999999999MA1102001999999REMMET066METAR LSMS 032250Z AUTO 09005KT 9999NDV NCD M05/M08 Q1020 RMK BLU;
0119067205999992011010323504+46217+007317AUTO +0482LSMS V0209999V001012200019N0112651N1-00601-00801999999ADDGF100991999999999999999999MA1102001999999REMMET066METAR LSMS 032350Z AUTO VRB02KT 9999NDV NCD M06/M08 Q1020 RMK BLU;
0138067205999992011010400504+46217+007317AUTO +0482LSMS V0200701N001012200019N0112651N1-00601-00801999999ADDGA1021+054001999GF102991999999999999999999MA1102001999999REMMET069METAR LSMS 040050Z AUTO 07002KT 9999NDV FEW180 M06/M08 Q1020 RMK BLU;
0119067205999992011010401504+46217+007317AUTO +0482LSMS V0200901N002112200019N0112651N1-00601-00801999999ADDGF100991999999999999999999MA1102001999999REMMET066METAR LSMS 040150Z AUTO 09004KT 9999NDV NCD M06/M08 Q1020 RMK BLU;
0138067205999992011010402504+46217+007317AUTO +0482LSMS V0200801N002112200019N0112651N1-00601-00901999999ADDGA1021+048001999GF102991999999999999999999MA1101901999999REMMET069METAR LSMS 040250Z AUTO 08004KT 9999NDV FEW160 M06/M09 Q1019 RMK BLU;
0138067205999992011010403504+46217+007317AUTO +0482LSMS V0209999V001012200019N0112651N1-00701-00901999999ADDGA1021+045001999GF102991999999999999999999MA1101901999999REMMET069METAR LSMS 040350Z AUTO VRB02KT 9999NDV FEW150 M07/M09 Q1019 RMK BLU;
0138067205999992011010404504+46217+007317AUTO +0482LSMS V0200901N003112200019N0112651N1-00701-00901999999ADDGA1021+042001999GF102991999999999999999999MA1101901999999REMMET069METAR LSMS 040450Z AUTO 09006KT 9999NDV FEW140 M07/M09 Q1019 RMK BLU;
0130067205999992011010405504+46217+007317FM-15+0482LSMS V0200801N001512200019N0112651N1-00701-00901999999ADDGA1021+048001999GF102991999999999999999999MA1101901999999REMMET061METAR LSMS 040550Z 08003KT 9999 FEW160 M07/M09 Q1019 RMK BLU;
0128067205999992011010407504+46217+007317FM-15+0482LSMS V0200801N003110420019N0112651N1-00601-00901999999ADDGA1071+042001999GF107991999999999999999999MA1101901999999REMMET059METAR LSMS 040750Z 08006KT 9999 BKN140 M06/M09 Q1019 NOSIG;
0136067205999992011010408504+46217+007317FM-15+0482LSMS V0200801N002110420019N0112651N1-00601-00901999999ADDGA1071+042001999GF107991999999999999999999MA1101901999999REMMET067METAR LSMS 040850Z 08004KT 050V110 9999 BKN140 M06/M09 Q1019 NOSIG;
0151067205999992011010411504+46217+007317FM-15+0482LSMS V0209999C000010390019N0112651N1-00201-00901999999ADDGA1021+024001999GA2071+039001999GF107991999999999999999999MA1101691999999REMMET066METAR LSMS 041150Z 00000KT 9999 FEW080 BKN130 M02/M09 Q1017 NOSIG;
0151067205999992011010412504+46217+007317FM-15+0482LSMS V0209999V001012200019N0112651N1-00101-00901999999ADDGA1021+024001999GA2041+042001999GF104991999999999999999999MA1101591999999REMMET066METAR LSMS 041250Z VRB02KT 9999 FEW080 SCT140 M01/M09 Q1016 NOSIG;
0128067205999992011010416504+46217+007317FM-15+0482LSMS V0209999V000512200019N0112651N1-00301-00801999999ADDGA1041+024001999GF104991999999999999999999MA1101491999999REMMET059METAR LSMS 041650Z VRB01KT 9999 SCT080 M03/M08 Q1015 NOSIG;
0138067205999992011010419504+46217+007317AUTO +0482LSMS V0200801N002612200019N0112651N1-00401-00801999999ADDGA1021+069001999GF102991999999999999999999MA1101691999999REMMET069METAR LSMS 041950Z AUTO 08005KT 9999NDV FEW230 M04/M08 Q1017 RMK BLU;
0119067205999992011010420504+46217+007317AUTO +0482LSMS V0200901N002612200019N0112651N1-00401-00801999999ADDGF100991999999999999999999MA1101691999999REMMET066METAR LSMS 042050Z AUTO 09005KT 9999NDV NCD M04/M08 Q1017 RMK BLU;
0119067205999992011010421504+46217+007317AUTO +0482LSMS V0200901N003112200019N0112651N1-00501-00801999999ADDGF100991999999999999999999MA1101591999999REMMET066METAR LSMS 042150Z AUTO 09006KT 9999NDV NCD M05/M08 Q1016 RMK BLU;
0119067205999992011010422504+46217+007317AUTO +0482LSMS V0200901N002612200019N0112651N1-00501-00901999999ADDGF100991999999999999999999MA1101591999999REMMET066METAR LSMS 042250Z AUTO 09005KT 9999NDV NCD M05/M09 Q1016 RMK BLU;
0119067205999992011010423504+46217+007317AUTO +0482LSMS V0209999V000512200019N0112651N1-00601-00901999999ADDGF100991999999999999999999MA1101591999999REMMET066METAR LSMS 042350Z AUTO VRB01KT 9999NDV NCD M06/M09 Q1016 RMK BLU;
0119067205999992011010500504+46217+007317AUTO +0482LSMS V0209999V000512200019N0112651N1-00701-00901999999ADDGF100991999999999999999999MA1101591999999REMMET066METAR LSMS 050050Z AUTO VRB01KT 9999NDV NCD M07/M09 Q1016 RMK BLU;
0119067205999992011010501504+46217+007317AUTO +0482LSMS V0209999V000512200019N0112651N1-00701-00901999999ADDGF100991999999999999999999MA1101591999999REMMET066METAR LSMS 050150Z AUTO VRB01KT 9999NDV NCD M07/M09 Q1016 RMK BLU;
0119067205999992011010502504+46217+007317AUTO +0482LSMS V0200901N002612200019N0112651N1-00701-00901999999ADDGF100991999999999999999999MA1101591999999REMMET066METAR LSMS 050250Z AUTO 09005KT 9999NDV NCD M07/M09 Q1016 RMK BLU;
0119067205999992011010503504+46217+007317AUTO +0482LSMS V0200901N003112200019N0112651N1-00701-00901999999ADDGF100991999999999999999999MA1101591999999REMMET066METAR LSMS 050350Z AUTO 09006KT 9999NDV NCD M07/M09 Q1016 RMK BLU;
0119067205999992011010504504+46217+007317AUTO +0482LSMS V0200801N002612200019N0112651N1-00701-00901999999ADDGF100991999999999999999999MA1101591999999REMMET066METAR LSMS 050450Z AUTO 08005KT 9999NDV NCD M07/M09 Q1016 RMK BLU;
0082067205999992011010505504+46217+007317FM-15+0482LSMS V0209999V000519999999Y0099001N1-00701-00901999999ADDMA1101591999999REMMET055METAR LSMS 050550Z VRB01KT CAVOK M07/M09 Q1016 RMK BLU;
0080067205999992011010508504+46217+007317FM-15+0482LSMS V0200701N002619999999Y0099001N1-00601-00901999999ADDMA1101691999999REMMET053METAR LSMS 050850Z 07005KT CAVOK M06/M09 Q1017 NOSIG;
0127067205999992011010512504+46217+007317FM-15+0482LSMS V0201001N003112200019N0112651N1+00101-00901999999ADDGA1021+042001999GF102991999999999999999999MA1101291999999REMMET058METAR LSMS 051250Z 10006KT 9999 FEW140 01/M09 Q1013 NOSIG;
0127067205999992011010518504+46217+007317AUTO +0482LSMS V0200901N002112200019N0112651N1-00201-00701999999ADDGF100991999999999999999999MA1101291999999REMMET074METAR LSMS 051850Z AUTO 09004KT 020V140 9999NDV NCD M02/M07 Q1013 RMK BLU;
0138067205999992011010519504+46217+007317AUTO +0482LSMS V0200801N003612200019N0112651N1-00201-00701999999ADDGA1021+072001999GF102991999999999999999999MA1101291999999REMMET069METAR LSMS 051950Z AUTO 08007KT 9999NDV FEW240 M02/M07 Q1013 RMK BLU;
0119067205999992011010520504+46217+007317AUTO +0482LSMS V0200801N002612200019N0112651N1-00301-00701999999ADDGF100991999999999999999999MA1101291999999REMMET066METAR LSMS 052050Z AUTO 08005KT 9999NDV NCD M03/M07 Q1013 RMK BLU;
0138067205999992011010521504+46217+007317AUTO +0482LSMS V0200901N002612200019N0112651N1-00201-00601999999ADDGA1041+042001999GF104991999999999999999999MA1101291999999REMMET069METAR LSMS 052150Z AUTO 09005KT 9999NDV SCT140 M02/M06 Q1013 RMK BLU;
0146067205999992011010522504+46217+007317AUTO +0482LSMS V0200801N003110450019N0112651N1-00201-00601999999ADDGA1071+045001999GF107991999999999999999999MA1101291999999REMMET077METAR LSMS 052250Z AUTO 08006KT 050V110 9999NDV BKN150 M02/M06 Q1013 RMK WHT;
0161067205999992011010523504+46217+007317AUTO +0482LSMS V0200901N003110360019N0112651N1-00101-00601999999ADDGA1071+036001999GA2071+045001999GF107991999999999999999999MA1101291999999REMMET076METAR LSMS 052350Z AUTO 09006KT 9999NDV BKN120 BKN150 M01/M06 Q1013 RMK WHT;
0161067205999992011010600504+46217+007317AUTO +0482LSMS V0200601N002610300019N0112651N1-00101-00601999999ADDGA1071+030001999GA2081+045001999GF108991999999999999999999MA1101191999999REMMET076METAR LSMS 060050Z AUTO 06005KT 9999NDV BKN100 OVC150 M01/M06 Q1012 RMK WHT;
0138067205999992011010601504+46217+007317AUTO +0482LSMS V0200801N003610270019N0112651N1+00001-00601999999ADDGA1071+027001999GF107991999999999999999999MA1101191999999REMMET069METAR LSMS 060150Z AUTO 08007KT 9999NDV BKN095 M00/M06 Q1012 RMK WHT;
0138067205999992011010602504+46217+007317AUTO +0482LSMS V0201001N002110270019N0112651N1+00001-00601999999ADDGA1081+027001999GF108991999999999999999999MA1101191999999REMMET069METAR LSMS 060250Z AUTO 10004KT 9999NDV OVC093 M00/M06 Q1012 RMK WHT;
0137067205999992011010603504+46217+007317AUTO +0482LSMS V0209999V001010180019N0112651N1+00001-00601999999ADDGA1081+018001999GF108991999999999999999999MA1101191999999REMMET068METAR LSMS 060350Z AUTO VRB02KT 9999NDV OVC063 00/M06 Q1012 RMK WHT;
0160067205999992011010604504+46217+007317AUTO +0482LSMS V0200801N003610210019N0112651N1+00001-00601999999ADDGA1071+021001999GA2081+024001999GF108991999999999999999999MA1101191999999REMMET075METAR LSMS 060450Z AUTO 08007KT 9999NDV BKN070 OVC080 00/M06 Q1012 RMK WHT;
0152067205999992011010605504+46217+007317FM-15+0482LSMS V0200901N003110180019N0112651N1+00001-00501999999ADDGA1071+018001999GA2081+021001999GF108991999999999999999999MA1101191999999REMMET067METAR LSMS 060550Z 09006KT 9999 BKN064 OVC075 00/M05 Q1012 RMK WHT;
0160067205999992011010616504+46217+007317AUTO +0482LSMS V0209999C000010150019N0112651N1+00501-00301999999ADDGA1071+015001999GA2081+018001999GF108991999999999999999999MA1101291999999REMMET075METAR LSMS 061650Z AUTO 00000KT 9999NDV BKN055 OVC064 05/M03 Q1013 RMK WHT;
0137067205999992011010617504+46217+007317AUTO +0482LSMS V0209999C000010150019N0112651N1+00401-00201999999ADDGA1081+015001999GF108991999999999999999999MA1101291999999REMMET068METAR LSMS 061750Z AUTO 00000KT 9999NDV OVC052 04/M02 Q1013 RMK WHT;
0172067205999992011010618504+46217+007317AUTO +0482LSMS V0209999V001010099019N0112651N1+00401-00101999999ADDAW1811GA1071+009901999GA2071+012901999GF107991999999999999999999MA1101391999999REMMET081METAR LSMS 061850Z AUTO VRB02KT 9999NDV -SHRA BKN033 BKN043 04/M01 Q1014 RMK WHT;
0191067205999992011010619504+46217+007317AUTO +0482LSMS V0209999V000510099019N0060001N1+00301+00001999999ADDAW1621GA1021+008701999GA2071+009901999GA3071+011401999GF107991999999999999999999MA1101491999999REMMET084METAR LSMS 061950Z AUTO VRB01KT 6000NDV RA FEW029 BKN033 BKN038 03/00 Q1015 RMK GRN;
0191067205999992011010620504+46217+007317AUTO +0482LSMS V0209999C000010135019N0060001N1+00301+00101999999ADDAW1621GA1021+009901999GA2071+013501999GA3071+015001999GF107991999999999999999999MA1101491999999REMMET084METAR LSMS 062050Z AUTO 00000KT 6000NDV RA FEW033 BKN045 BKN053 03/01 Q1015 RMK GRN;
0197067205999992011010621504+46217+007317AUTO +0482LSMS V0209999C000010126019N0070001N1+00301+00201999999ADDAW1611GA1021+011101999GA2071+012601999GA3071+014401999GF107991999999999999999999MA1101591999999REMMET090METAR LSMS 062150Z AUTO 00000KT 7000NDV -RA FEW037 BKN042 BKN048 03/02 Q1016 RERA RMK GRN;
0169067205999992011010622504+46217+007317AUTO +0482LSMS V0209999C000010129019N0050001N1+00201+00201999999ADDAW1611GA1021+010501999GA2081+012901999GF108991999999999999999999MA1101591999999REMMET078METAR LSMS 062250Z AUTO 00000KT 5000NDV -RA FEW035 OVC043 02/02 Q1016 RMK GRN;
0201067205999992011010623504+46217+007317AUTO +0482LSMS V0209999V00101014401CN0034001N1+00201+00201999999ADDAW1101AW2611GA1021+011401999GA2041+014401999GA3081+015001999GF108991999999999999999999MA1101591999999REMMET088METAR LSMS 062350Z AUTO VRB02KT 3400NDV -RA BR FEW038 SCT048 OVC057 02/02 Q1016 RMK GRN;
0177067205999992011010700504+46217+007317AUTO +0482LSMS V0201201N001510210019N0044001N1+00201+00201999999ADDAW1611GA1021+013201999GA2071+021001999GF107991999999999999999999MA1101591999999REMMET086METAR LSMS 070050Z AUTO 12003KT 070V160 4400NDV -RA FEW044 BKN070 02/02 Q1016 RMK GRN;
0177067205999992011010701504+46217+007317AUTO +0482LSMS V0209999V000510150019N0040001N1+00201+00201999999ADDAW1101AW2621GA1071+015001999GA2081+018001999GF108991999999999999999999MA1101691999999REMMET080METAR LSMS 070150Z AUTO VRB01KT 4000NDV RA BR BKN055 OVC063 02/02 Q1017 RMK GRN;
0151067205999992011010702504+46217+007317AUTO +0482LSMS V0209999V001010150019N0060001N1+00301+00201999999ADDAW1611GA1081+015001999GF108991999999999999999999MA1101691999999REMMET076METAR LSMS 070250Z AUTO VRB02KT 6000NDV -RA OVC055 03/02 Q1017 RERA RMK GRN;
0169067205999992011010703504+46217+007317AUTO +0482LSMS V0200801N003110180019N0050001N1+00301+00201999999ADDAW1611GA1041+015001999GA2071+018001999GF107991999999999999999999MA1101591999999REMMET078METAR LSMS 070350Z AUTO 08006KT 5000NDV -RA SCT051 BKN065 03/02 Q1016 RMK GRN;
0155067205999992011010704504+46217+007317AUTO +0482LSMS V0200901N002610150019N0043001N1+00301+00201999999ADDAW1101AW2611GA1081+015001999GF108991999999999999999999MA1101591999999REMMET074METAR LSMS 070450Z AUTO 09005KT 4300NDV -RA BR OVC057 03/02 Q1016 RMK GRN;
0161067205999992011010705504+46217+007317FM-15+0482LSMS V0200901N00311018001CN0050001N1+00301+00201999999ADDGA1021+018001999GA2071+018001999GF107991999999999999999999MA1101591999999MW1611REMMET070METAR LSMS 070550Z 09006KT 5000 -RA FEW061 BKN069 03/02 Q1016 RMK GRN;
0149067205999992011010707504+46217+007317FM-15+0482LSMS V0201001N001510300019N0090001N1+00201+00101999999ADDGA1021+015001999GA2071+030001999GF107991999999999999999999MA1101591999999REMMET064METAR LSMS 070750Z 10003KT 9000 FEW050 BKN100 02/01 Q1016 NOSIG;
0126067205999992011010709504+46217+007317FM-15+0482LSMS V0200601N002612200019N0112651N1+00401+00301999999ADDGA1041+036001999GF104991999999999999999999MA1101591999999REMMET057METAR LSMS 070950Z 06005KT 9999 SCT120 04/03 Q1016 NOSIG;
0126067205999992011010715504+46217+007317FM-15+0482LSMS V0209999V001510330019N0112651N1+00701+00401999999ADDGA1071+033001999GF107991999999999999999999MA1101491999999REMMET057METAR LSMS 071550Z VRB03KT 9999 BKN110 07/04 Q1015 NOSIG;
0126067205999992011010718504+46217+007317FM-15+0482LSMS V0209999V001510330019N0112651N1+00501+00301999999ADDGA1071+033001999GF107991999999999999999999MA1101491999999REMMET057METAR LSMS 071850Z VRB03KT 9999 BKN110 05/03 Q1015 NOSIG;
0159067205999992011010719504+46217+007317AUTO +0482LSMS V0209999V001012200019N0112651N1+00401+00201999999ADDGA1021+039001999GA2041+045001999GF104991999999999999999999MA1101491999999REMMET074METAR LSMS 071950Z AUTO VRB02KT 9999NDV FEW130 SCT150 04/02 Q1015 RMK BLU;
0136067205999992011010720504+46217+007317AUTO +0482LSMS V0201101N002112200019N0112651N1+00401+00201999999ADDGA1021+051001999GF102991999999999999999999MA1101491999999REMMET067METAR LSMS 072050Z AUTO 11004KT 9999NDV FEW170 04/02 Q1015 RMK BLU;
0144067205999992011010721504+46217+007317AUTO +0482LSMS V0200801N002112200019N0112651N1+00401+00101999999ADDGA1041+048001999GF104991999999999999999999MA1101491999999REMMET075METAR LSMS 072150Z AUTO 08004KT 050V110 9999NDV SCT160 04/01 Q1015 RMK BLU;
0167067205999992011010722504+46217+007317AUTO +0482LSMS V0200801N003110360019N0112651N1+00401+00101999999ADDGA1071+036001999GA2071+048001999GF107991999999999999999999MA1101591999999REMMET082METAR LSMS 072250Z AUTO 08006KT 020V100 9999NDV BKN120 BKN160 04/01 Q1016 RMK WHT;
0136067205999992011010723504+46217+007317AUTO +0482LSMS V0200801N003610330019N0112651N1+00401+00201999999ADDGA1071+033001999GF107991999999999999999999MA1101591999999REMMET067METAR LSMS 072350Z AUTO 08007KT 9999NDV BKN110 04/02 Q1016 RMK WHT;
0159067205999992011010800504+46217+007317AUTO +0482LSMS V0200801N002610330019N0112651N1+00401+00201999999ADDGA1041+027001999GA2071+033001999GF107991999999999999999999MA1101491999999REMMET074METAR LSMS 080050Z AUTO 08005KT 9999NDV SCT094 BKN110 04/02 Q1015 RMK WHT;
0144067205999992011010801504+46217+007317AUTO +0482LSMS V0200501N002610300019N0112651N1+00501+00201999999ADDGA1071+030001999GF107991999999999999999999MA1101591999999REMMET075METAR LSMS 080150Z AUTO 05005KT 020V100 9999NDV BKN100 05/02 Q1016 RMK WHT;
0144067205999992011010802504+46217+007317AUTO +0482LSMS V0200901N001510270019N0112651N1+00401+00201999999ADDGA1071+027001999GF107991999999999999999999MA1101591999999REMMET075METAR LSMS 080250Z AUTO 09003KT 010V150 9999NDV BKN091 04/02 Q1016 RMK WHT;
0167067205999992011010803504+46217+007317AUTO +0482LSMS V0200901N001510300019N0112651N1+00401+00201999999ADDGA1071+030001999GA2081+057001999GF108991999999999999999999MA1101491999999REMMET082METAR LSMS 080350Z AUTO 09003KT 020V120 9999NDV BKN100 OVC190 04/02 Q1015 RMK WHT;
0159067205999992011010804504+46217+007317AUTO +0482LSMS V0209999V001010180019N0112651N1+00401+00201999999ADDGA1071+018001999GA2081+027001999GF108991999999999999999999MA1101591999999REMMET074METAR LSMS 080450Z AUTO VRB02KT 9999NDV BKN064 OVC090 04/02 Q1016 RMK WHT;
0177067205999992011010805504+46217+007317AUTO +0482LSMS V0203001N001510150019N0112651N1+00401+00201999999ADDAW1611GA1071+015001999GA2081+018001999GF108991999999999999999999MA1101591999999REMMET086METAR LSMS 080550Z AUTO 30003KT 220V330 9999NDV -RA BKN057 OVC065 04/02 Q1016 RMK WHT;
0157067205999992011010806504+46217+007317FM-15+0482LSMS V0201001N001512200019N0112651N1+00401+00201999999ADDGA1041+018001999GA2041+027001999GF104991999999999999999999MA1101591999999REMMET072METAR LSMS 080650Z 10003KT 060V130 9999 SCT060 SCT090 04/02 Q1016 NOSIG;
0126067205999992011010811504+46217+007317FM-15+0482LSMS V0200901N003112200019N0112651N1+00901+00301999999ADDGA1021+021001999GF102991999999999999999999MA1101591999999REMMET057METAR LSMS 081150Z 09006KT 9999 FEW070 09/03 Q1016 NOSIG;
0134067205999992011010814504+46217+007317FM-15+0482LSMS V0200901N001512200019N0112651N1+01101+00201999999ADDGA1021+021001999GF102991999999999999999999MA1101491999999REMMET065METAR LSMS 081450Z 09003KT 050V120 9999 FEW070 11/02 Q1015 NOSIG;
0126067205999992011010815504+46217+007317FM-15+0482LSMS V0200901N002112200019N0112651N1+00901+00201999999ADDGA1041+045001999GF104991999999999999999999MA1101491999999REMMET057METAR LSMS 081550Z 09004KT 9999 SCT150 09/02 Q1015 NOSIG;
0125067205999992011010816504+46217+007317AUTO +0482LSMS V0201101N001512200019N0112651N1+00701+00101999999ADDGF100991999999999999999999MA1101591999999REMMET072METAR LSMS 081650Z AUTO 11003KT 080V150 9999NDV NCD 07/01 Q1016 RMK BLU;
0117067205999992011010817504+46217+007317AUTO +0482LSMS V0209999C000012200019N0112651N1+00501+00101999999ADDGF100991999999999999999999MA1101591999999REMMET064METAR LSMS 081750Z AUTO 00000KT 9999NDV NCD 05/01 Q1016 RMK BLU;
0117067205999992011010818504+46217+007317AUTO +0482LSMS V0209999V000512200019N0112651N1+00401+00101999999ADDGF100991999999999999999999MA1101591999999REMMET064METAR LSMS 081850Z AUTO VRB01KT 9999NDV NCD 04/01 Q1016 RMK BLU;
0136067205999992011010819504+46217+007317AUTO +0482LSMS V0209999V001012200019N0112651N1+00401+00101999999ADDGA1021+069001999GF102991999999999999999999MA1101591999999REMMET067METAR LSMS 081950Z AUTO VRB02KT 9999NDV FEW230 04/01 Q1016 RMK BLU;
0125067205999992011010820504+46217+007317AUTO +0482LSMS V0200701N002112200019N0112651N1+00401+00001999999ADDGF100991999999999999999999MA1101591999999REMMET072METAR LSMS 082050Z AUTO 07004KT 020V110 9999NDV NCD 04/00 Q1016 RMK BLU;
0144067205999992011010821504+46217+007317AUTO +0482LSMS V0201101N001512200019N0112651N1+00401+00001999999ADDGA1021+039001999GF102991999999999999999999MA1101691999999REMMET075METAR LSMS 082150Z AUTO 11003KT 060V120 9999NDV FEW130 04/00 Q1017 RMK BLU;
0137067205999992011010822504+46217+007317AUTO +0482LSMS V0200801N003112200019N0112651N1+00401+00001999999ADDGA1021+036001999GF102991999999999999999999MA1101591999999REMMET068METAR LSMS 082250Z AUTO 08006KT 9999NDV FEW120 04/M00 Q1016 RMK BLU;
0118067205999992011010823504+46217+007317AUTO +0482LSMS V0200701N002612200019N0112651N1+00401+00001999999ADDGF100991999999999999999999MA1101591999999REMMET065METAR LSMS 082350Z AUTO 07005KT 9999NDV NCD 04/M00 Q1016 RMK BLU;
0126067205999992011010900504+46217+007317AUTO +0482LSMS V0200901N001512200019N0112651N1+00301+00001999999ADDGF100991999999999999999999MA1101691999999REMMET073METAR LSMS 090050Z AUTO 09003KT 050V140 9999NDV NCD 03/M00 Q1017 RMK BLU;
0126067205999992011010901504+46217+007317AUTO +0482LSMS V0200501N002112200019N0112651N1+00301+00001999999ADDGF100991999999999999999999MA1101591999999REMMET073METAR LSMS 090150Z AUTO 05004KT 020V110 9999NDV NCD 03/M00 Q1016 RMK BLU;
0126067205999992011010902504+46217+007317AUTO +0482LSMS V0200501N001512200019N0112651N1+00201-00101999999ADDGF100991999999999999999999MA1101591999999REMMET073METAR LSMS 090250Z AUTO 05003KT 030V120 9999NDV NCD 02/M01 Q1016 RMK BLU;
0118067205999992011010903504+46217+007317AUTO +0482LSMS V0209999V001012200019N0112651N1+00101-00101999999ADDGF100991999999999999999999MA1101591999999REMMET065METAR LSMS 090350Z AUTO VRB02KT 9999NDV NCD 01/M01 Q1016 RMK BLU;
0145067205999992011010904504+46217+007317AUTO +0482LSMS V0201001N002610390019N0112651N1+00301-00101999999ADDGA1071+039001999GF107991999999999999999999MA1101591999999REMMET076METAR LSMS 090450Z AUTO 10005KT 040V120 9999NDV BKN130 03/M01 Q1016 RMK WHT;
0145067205999992011010905504+46217+007317AUTO +0482LSMS V0200801N002612200019N0112651N1+00201-00101999999ADDGA1041+039001999GF104991999999999999999999MA1101491999999REMMET076METAR LSMS 090550Z AUTO 08005KT 070V130 9999NDV SCT130 02/M01 Q1015 RMK BLU;
0150067205999992011010906504+46217+007317FM-15+0482LSMS V0209999V000510420019N0112651N1+00201-00101999999ADDGA1041+033001999GA2071+042001999GF107991999999999999999999MA1101591999999REMMET065METAR LSMS 090650Z VRB01KT 9999 SCT110 BKN140 02/M01 Q1016 NOSIG;
0158067205999992011010909504+46217+007317FM-15+0482LSMS V0201101N002610390019N0112651N1+00501+00001999999ADDGA1041+024001999GA2071+039001999GF107991999999999999999999MA1101591999999REMMET073METAR LSMS 090950Z 11005KT 070V130 9999 SCT080 BKN130 05/M00 Q1016 NOSIG;
0149067205999992011010911504+46217+007317FM-15+0482LSMS V0209999V001510390019N0112651N1+00701+00101999999ADDGA1041+018001999GA2071+039001999GF107991999999999999999999MA1101491999999REMMET064METAR LSMS 091150Z VRB03KT 9999 SCT060 BKN130 07/01 Q1015 NOSIG;
0149067205999992011010913504+46217+007317FM-15+0482LSMS V0209999V001010390019N0112651N1+00901+00101999999ADDGA1041+021001999GA2071+039001999GF107991999999999999999999MA1101391999999REMMET064METAR LSMS 091350Z VRB02KT 9999 SCT070 BKN130 09/01 Q1014 NOSIG;
0149067205999992011010914504+46217+007317FM-15+0482LSMS V0209999C000010360019N0112651N1+00801+00201999999ADDGA1041+018001999GA2081+036001999GF108991999999999999999999MA1101391999999REMMET064METAR LSMS 091450Z 00000KT 9999 SCT060 OVC120 08/02 Q1014 NOSIG;
0182067205999992011010916504+46217+007317AUTO +0482LSMS V0202601N005110210019N0112651N1+00701+00501999999ADDGA1021+018001999GA2041+021001999GA3081+021001999GF108991999999999999999999MA1101491999999REMMET081METAR LSMS 091650Z AUTO 26010KT 9999NDV FEW062 SCT070 OVC079 07/05 Q1015 RMK WHT;
0159067205999992011010917504+46217+007317AUTO +0482LSMS V0209999V002610180019N0112651N1+00701+00501999999ADDGA1071+018001999GA2081+021001999GF108991999999999999999999MA1101491999999REMMET074METAR LSMS 091750Z AUTO VRB05KT 9999NDV BKN060 OVC079 07/05 Q1015 RMK WHT;
0179067205999992011010918504+46217+007317AUTO +0482LSMS V0202501N003610150019N0112651N1+00701+00501999999ADDAW1811GA1071+015001999GA2081+018001999GF108991999999999999999999MA1101691999999REMMET088METAR LSMS 091850Z AUTO 25007KT 210V280 9999NDV -SHRA BKN054 OVC066 07/05 Q1017 RMK WHT;
0169067205999992011010919504+46217+007317AUTO +0482LSMS V0202501N002610135019N0112651N1+00601+00501999999ADDAW1611GA1071+013501999GA2081+015001999GF108991999999999999999999MA1101691999999REMMET078METAR LSMS 091950Z AUTO 25005KT 9999NDV -RA BKN045 OVC057 06/05 Q1017 RMK WHT;
0174067205999992011010920504+46217+007317AUTO +0482LSMS V0209999V000510123019N0112651N1+00601+00501999999ADDAW1611GA1021+010201999GA2081+012301999GF108991999999999999999999MA1101801999999REMMET083METAR LSMS 092050Z AUTO VRB01KT 9999NDV -RA FEW034 OVC041 06/05 Q1018 RERA RMK WHT;
0192067205999992011010921504+46217+007317AUTO +0482LSMS V0209999V000510114019N0070001N1+00501+00501999999ADDAW1611GA1021+001501999GA2071+011401999GA3081+013801999GF108991999999999999999999MA1101801999999REMMET085METAR LSMS 092150Z AUTO VRB01KT 7000NDV -RA FEW005 BKN038 OVC046 05/05 Q1018 RMK GRN;
0239067205999992011010922504+46217+007317AUTO +0482LSMS V0209999C00001008401CN0012001N1+00501+00401999999ADDAW1101AW2611ED107U12009GA1021+000601999GA2041+008401999GA3081+009901999GF108991999999999999999999MA1101901999999REMMET115METAR LSMS 092250Z AUTO 00000KT 1200NDV R07/1200VP2000U R25/P2000D -RA BR FEW002 SCT028 OVC033 05/04 Q1019 RMK RED;
0238067205999992011010923504+46217+007317AUTO +0482LSMS V0209999C000010105019N0006001N1+00501+00401999999ADDAW1301AW2611ED107U09009GA1021+002401999GA2071+010501999GA3071+012001999GF107991999999999999999999MA1101901999999REMMET114METAR LSMS 092350Z AUTO 00000KT 0600NDV R07/0900N R25/0750VP2000U -RA FG FEW008 BKN035 BKN040 05/04 Q1019 RMK RED;
0186067205999992011011000504+46217+007317AUTO +0482LSMS V0209999C000012200019N0007501N1+00401+00401999999ADDAW1301AW2611ED107U12009GA1021+002701999GF102991999999999999999999MA1101901999999REMMET094METAR LSMS 100050Z AUTO 00000KT 0750NDV R07/1200N R25/1100U -RA FG FEW009 04/04 Q1019 RMK RED;
0191067205999992011011001504+46217+007317AUTO +0482LSMS V0209999C000012200019N0010001N1+00401+00401999999ADDAW1301AW2611ED107U12009GA1041+000601999GF104991999999999999999999MA1101901999999REMMET099METAR LSMS 100150Z AUTO 00000KT 1000NDV R07/1200N R25/0900V1400U -RA FG SCT002 04/04 Q1019 RMK RED;
0210067205999992011011002504+46217+007317AUTO +0482LSMS V0209999C000012200019N0007001N1+00401+00401999999ADDAW1301AW2611ED107U12009GA1021+000601999GA2041+007801999GF104991999999999999999999MA1101901999999REMMET102METAR LSMS 100250Z AUTO 00000KT 0700NDV R07/1200N R25/P2000D -RA FG FEW002 SCT026 04/04 Q1019 RMK RED;
0185067205999992011011003504+46217+007317AUTO +0482LSMS V0209999C00001000601CN0009001N1+00401+00401999999ADDAW1311ED107U13009GA1081+000601999GF108991999999999999999999MA1101901999999REMMET099METAR LSMS 100350Z AUTO 00000KT 0900NDV R07/1300VP2000U R25/P2000N BCFG OVC002 04/04 Q1019 RMK RED;
0182067205999992011011004504+46217+007317AUTO +0482LSMS V0209999C00001000901CN0010001N1+00401+00401999999ADDAW1301ED107U12009GA1081+000901999GF108991999999999999999999MA1101901999999REMMET096METAR LSMS 100450Z AUTO 00000KT 1000NDV R07/1200V1800D R25/P2000N FG OVC003 04/04 Q1019 RMK RED;
0201067205999992011011005504+46217+007317FM-15+0482LSMS V0209999C000010006019N0006501N1+00401+00401999999ADDED107U09009GA1071+000601999GA2071+001201999GF107991999999999999999999MA1101901999999MW1441MW2611REMMET093METAR LSMS 100550Z 00000KT 0650 R07/0900N R25/0800N -RA FG BKN002 BKN004 04/04 Q1019 RMK RED;
0145067205999992011011006504+46217+007317FM-15+0482LSMS V0209999C000010015019N0015001N1+00401+00401999999ADDGA1081+001501999GF108991999999999999999999MA1101901999999MW1101MW2611REMMET064METAR LSMS 100650Z 00000KT 1500 -RA BR OVC005 04/04 Q1019 NOSIG;
0134067205999992011011007504+46217+007317FM-15+0482LSMS V0209999C000010006019N0005001N1+00401+00401999999ADDGA1091+000601999GF109991999999000251999999MA1101901999999MW1451REMMET059METAR LSMS 100750Z 00000KT 0500 FG VV002 04/04 Q1019 NOSIG;
0158067205999992011011008504+46217+007317FM-15+0482LSMS V0209999V000510009019N0010001N1+00401+00401999999ADDGA1021+000301999GA2081+000901999GF108991999999999999999999MA1101901999999MW1441REMMET067METAR LSMS 100850Z VRB01KT 1000 FG FEW001 OVC003 04/04 Q1019 NOSIG;
0149067205999992011011009504+46217+007317FM-15+0482LSMS V0209999C000010090019N0060001N1+00501+00501999999ADDGA1021+000301999GA2071+009001999GF107991999999999999999999MA1101901999999REMMET064METAR LSMS 100950Z 00000KT 6000 FEW001 BKN030 05/05 Q1019 NOSIG;
0172067205999992011011010504+46217+007317FM-15+0482LSMS V0209999V00101006001CN0060001N1+00501+00501999999ADDGA1021+001501999GA2041+006001999GA3071+009001999GF107991999999999999999999MA1101901999999REMMET071METAR LSMS 101050Z VRB02KT 6000 FEW005 SCT020 BKN030 05/05 Q1019 NOSIG;
0126067205999992011011014504+46217+007317FM-15+0482LSMS V0209999C000010090019N0112651N1+00601+00401999999ADDGA1071+009001999GF107991999999999999999999MA1101691999999REMMET057METAR LSMS 101450Z 00000KT 9999 BKN030 06/04 Q1017 NOSIG;
0126067205999992011011015504+46217+007317FM-15+0482LSMS V0201201N000510090019N0112651N1+00601+00401999999ADDGA1071+009001999GF107991999999999999999999MA1101691999999REMMET057METAR LSMS 101550Z 12001KT 9999 BKN030 06/04 Q1017 NOSIG;
0136067205999992011011016504+46217+007317AUTO +0482LSMS V0209999C000010081019N0112651N1+00601+00401999999ADDGA1081+008101999GF108991999999999999999999MA1101691999999REMMET067METAR LSMS 101650Z AUTO 00000KT 9999NDV OVC027 06/04 Q1017 RMK WHT;
0136067205999992011011017504+46217+007317AUTO +0482LSMS V0209999V001010078019N0112651N1+00601+00401999999ADDGA1081+007801999GF108991999999999999999999MA1101691999999REMMET067METAR LSMS 101750Z AUTO VRB02KT 9999NDV OVC026 06/04 Q1017 RMK WHT;
0136067205999992011011018504+46217+007317AUTO +0482LSMS V0200801N001010078019N0112651N1+00501+00401999999ADDGA1081+007801999GF108991999999999999999999MA1101691999999REMMET067METAR LSMS 101850Z AUTO 08002KT 9999NDV OVC026 05/04 Q1017 RMK WHT;
0136067205999992011011019504+46217+007317AUTO +0482LSMS V0209999C000010078019N0112651N1+00501+00401999999ADDGA1071+007801999GF107991999999999999999999MA1101691999999REMMET067METAR LSMS 101950Z AUTO 00000KT 9999NDV BKN026 05/04 Q1017 RMK WHT;
0136067205999992011011020504+46217+007317AUTO +0482LSMS V0200901N001510090019N0112651N1+00501+00301999999ADDGA1071+009001999GF107991999999999999999999MA1101691999999REMMET067METAR LSMS 102050Z AUTO 09003KT 9999NDV BKN030 05/03 Q1017 RMK WHT;
0136067205999992011011021504+46217+007317AUTO +0482LSMS V0200901N002110090019N0112651N1+00401+00201999999ADDGA1071+009001999GF107991999999999999999999MA1101691999999REMMET067METAR LSMS 102150Z AUTO 09004KT 9999NDV BKN030 04/02 Q1017 RMK WHT;
0136067205999992011011022504+46217+007317AUTO +0482LSMS V0201101N001512200019N0112651N1+00301+00101999999ADDGA1041+008701999GF104991999999999999999999MA1101691999999REMMET067METAR LSMS 102250Z AUTO 11003KT 9999NDV SCT029 03/01 Q1017 RMK BLU;
0117067205999992011011023504+46217+007317AUTO +0482LSMS V0209999V001012200019N0112651N1+00201+00101999999ADDGF100991999999999999999999MA1101691999999REMMET064METAR LSMS 102350Z AUTO VRB02KT 9999NDV NCD 02/01 Q1017 RMK BLU;
0117067205999992011011100504+46217+007317AUTO +0482LSMS V0200901N003112200019N0112651N1+00201+00001999999ADDGF100991999999999999999999MA1101591999999REMMET064METAR LSMS 110050Z AUTO 09006KT 9999NDV NCD 02/00 Q1016 RMK BLU;
0117067205999992011011101504+46217+007317AUTO +0482LSMS V0200901N002612200019N0112651N1+00201+00001999999ADDGF100991999999999999999999MA1101591999999REMMET064METAR LSMS 110150Z AUTO 09005KT 9999NDV NCD 02/00 Q1016 RMK BLU;
0145067205999992011011102504+46217+007317AUTO +0482LSMS V0200801N001512200019N0112651N1+00001-00101999999ADDGA1021+007801999GF102991999999999999999999MA1101591999999REMMET076METAR LSMS 110250Z AUTO 08003KT 040V100 9999NDV FEW026 00/M01 Q1016 RMK BLU;
0126067205999992011011103504+46217+007317AUTO +0482LSMS V0200901N001512200019N0112651N1+00001-00101999999ADDGF100991999999999999999999MA1101591999999REMMET073METAR LSMS 110350Z AUTO 09003KT 050V140 9999NDV NCD 00/M01 Q1016 RMK BLU;
0126067205999992011011104504+46217+007317AUTO +0482LSMS V0200801N001512200019N0112651N1+00001-00101999999ADDGF100991999999999999999999MA1101491999999REMMET073METAR LSMS 110450Z AUTO 08003KT 040V140 9999NDV NCD 00/M01 Q1015 RMK BLU;
0082067205999992011011105504+46217+007317FM-15+0482LSMS V0200701N002119999999Y0099001N1-00101-00201999999ADDMA1101491999999REMMET055METAR LSMS 110550Z 07004KT CAVOK M01/M02 Q1015 RMK BLU;
0080067205999992011011108504+46217+007317FM-15+0482LSMS V0200801N002119999999Y0099001N1+00001-00201999999ADDMA1101491999999REMMET053METAR LSMS 110850Z 08004KT CAVOK M00/M02 Q1015 NOSIG;
0127067205999992011011109504+46217+007317FM-15+0482LSMS V0200901N003112200019N0112651N1+00001-00101999999ADDGA1041+045001999GF104991999999999999999999MA1101391999999REMMET058METAR LSMS 110950Z 09006KT 9999 SCT150 00/M01 Q1014 NOSIG;
0135067205999992011011111504+46217+007317FM-15+0482LSMS V0200901N001510360019N0112651N1+00401-00101999999ADDGA1081+036001999GF108991999999999999999999MA1101191999999REMMET066METAR LSMS 111150Z 09003KT 060V120 9999 OVC120 04/M01 Q1012 NOSIG;
0158067205999992011011112504+46217+007317FM-15+0482LSMS V0202601N002110360019N0112651N1+00301+00001999999ADDGA1041+024001999GA2081+036001999GF108991999999999999999999MA1101081999999REMMET073METAR LSMS 111250Z 26004KT 220V300 9999 SCT080 OVC120 03/M00 Q1011 NOSIG;
0137067205999992011011113504+46217+007317FM-15+0482LSMS V0209999V000510180019N0112651N1+00401+00001999999ADDGA1081+018001999GF108991999999999999999999MA1101191999999MW1611REMMET062METAR LSMS 111350Z VRB01KT 9999 -RA OVC060 04/M00 Q1012 NOSIG;
0151067205999992011011116504+46217+007317AUTO +0482LSMS V0209999C000010078019N0070001N1+00301+00201999999ADDAW1611GA1071+007801999GF107991999999999999999999MA1101391999999REMMET076METAR LSMS 111650Z AUTO 00000KT 7000NDV -RA BKN026 03/02 Q1014 RERA RMK GRN;
0168067205999992011011117504+46217+007317AUTO +0482LSMS V0209999V001012200019N0046001N1+00201+00101999999ADDAW1101GA1021+018001999GA2041+024001999GF104991999999999999999999MA1101491999999REMMET077METAR LSMS 111750Z AUTO VRB02KT 4600NDV BR FEW064 SCT080 02/01 Q1015 RMK GRN;
0169067205999992011011118504+46217+007317AUTO +0482LSMS V0209999V001010240019N0060001N1+00201+00101999999ADDAW1511GA1041+018001999GA2071+024001999GF107991999999999999999999MA1101491999999REMMET078METAR LSMS 111850Z AUTO VRB02KT 6000NDV -DZ SCT068 BKN084 02/01 Q1015 RMK GRN;
0167067205999992011011119504+46217+007317AUTO +0482LSMS V0200601N001510240019N0050001N1+00201+00101999999ADDGA1021+018001999GA2081+024001999GF108991999999999999999999MA1101591999999REMMET082METAR LSMS 111950Z AUTO 06003KT 030V090 5000NDV FEW068 OVC080 02/01 Q1016 RMK GRN;
0168067205999992011011120504+46217+007317AUTO +0482LSMS V0209999V001010096019N0060001N1+00201+00101999999ADDAW1621GA1041+008401999GA2081+009601999GF108991999999999999999999MA1101691999999REMMET077METAR LSMS 112050Z AUTO VRB02KT 6000NDV RA SCT028 OVC032 02/01 Q1017 RMK GRN;
0183067205999992011011121504+46217+007317AUTO +0482LSMS V0209999V001010081019N0050001N1+00201+00101999999ADDAW1101AW2611GA1041+003301999GA2071+008101999GF107991999999999999999999MA1101801999999REMMET086METAR LSMS 112150Z AUTO VRB02KT 5000NDV -RA BR SCT011 BKN027 02/01 Q1018 RERA RMK GRN;
0192067205999992011011122504+46217+007317AUTO +0482LSMS V0201201N00051003001CN0070001N1+00201+00101999999ADDAW1611GA1041+002101999GA2041+003001999GA3071+003601999GF107991999999999999999999MA1101901999999REMMET085METAR LSMS 112250Z AUTO 12001KT 7000NDV -RA SCT007 SCT010 BKN012 02/01 Q1019 RMK GRN;
0182067205999992011011123504+46217+007317AUTO +0482LSMS V0209999V000510027019N0032001N1+00201+00201999999ADDGA1021+002101999GA2071+002701999GA3071+004801999GF107991999999999999999999MA1101901999999REMMET081METAR LSMS 112350Z AUTO VRB01KT 3200NDV FEW007 BKN009 BKN016 02/02 Q1019 RMK YLO;
0168067205999992011011200504+46217+007317AUTO +0482LSMS V0209999C000010240019N0060001N1+00201+00101999999ADDAW1101GA1021+004801999GA2071+024001999GF107991999999999999999999MA1102001999999REMMET077METAR LSMS 120050Z AUTO 00000KT 6000NDV BR FEW016 BKN086 02/01 Q1020 RMK GRN;
0180067205999992011011201504+46217+007317AUTO +0482LSMS V0209999V000510180019N0035001N1+00201+00101999999ADDAW1101AW2811GA1021+007501999GA2071+018001999GF107991999999999999999999MA1102001999999REMMET083METAR LSMS 120150Z AUTO VRB01KT 3500NDV -SHRA BR FEW025 BKN068 02/01 Q1020 RMK GRN;
0191067205999992011011202504+46217+007317AUTO +0482LSMS V0209999V001010063019N0042001N1+00201+00101999999ADDAW1101GA1041+003301999GA2071+006301999GA3081+024001999GF108991999999999999999999MA1102101999999REMMET084METAR LSMS 120250Z AUTO VRB02KT 4200NDV BR SCT011 BKN021 OVC083 02/01 Q1021 RMK GRN;
0168067205999992011011203504+46217+007317AUTO +0482LSMS V0209999V001010030019N0025001N1+00201+00101999999ADDAW1101GA1041+001801999GA2071+003001999GF107991999999999999999999MA1102201999999REMMET077METAR LSMS 120350Z AUTO VRB02KT 2500NDV BR SCT006 BKN010 02/01 Q1022 RMK YLO;
0191067205999992011011204504+46217+007317AUTO +0482LSMS V0209999C000010030019N0027001N1+00201+00101999999ADDAW1101GA1021+002401999GA2071+003001999GA3071+004201999GF107991999999999999999999MA1102201999999REMMET084METAR LSMS 120450Z AUTO 00000KT 2700NDV BR FEW008 BKN010 BKN014 02/01 Q1022 RMK YLO;
0137067205999992011011205504+46217+007317FM-15+0482LSMS V0209999C000010030019N0020001N1+00201+00101999999ADDGA1071+003001999GF107991999999999999999999MA1102301999999MW1441REMMET062METAR LSMS 120550Z 00000KT 2000 FG BKN010 02/01 Q1023 RMK YLO;
0158067205999992011011206504+46217+007317FM-15+0482LSMS V0209999V001010450019N0050001N1+00201+00101999999ADDGA1041+004501999GA2071+045001999GF107991999999999999999999MA1102301999999MW1101REMMET067METAR LSMS 120650Z VRB02KT 5000 BR SCT015 BKN150 02/01 Q1023 NOSIG;
0149067205999992011011207504+46217+007317FM-15+0482LSMS V0209999C000010450019N0080001N1+00201+00201999999ADDGA1041+004501999GA2071+045001999GF107991999999999999999999MA1102401999999REMMET064METAR LSMS 120750Z 00000KT 8000 SCT015 BKN150 02/02 Q1024 NOSIG;
0149067205999992011011211504+46217+007317FM-15+0482LSMS V0209999V000510270019N0112651N1+00501+00301999999ADDGA1021+006001999GA2071+027001999GF107991999999999999999999MA1102301999999REMMET064METAR LSMS 121150Z VRB01KT 9999 FEW020 BKN090 05/03 Q1023 NOSIG;
0149067205999992011011213504+46217+007317FM-15+0482LSMS V0202701N000510240019N0112651N1+00601+00301999999ADDGA1021+006001999GA2081+024001999GF108991999999999999999999MA1102301999999REMMET064METAR LSMS 121350Z 27001KT 9999 FEW020 OVC080 06/03 Q1023 NOSIG;
0171067205999992011011216504+46217+007317AUTO +0482LSMS V0202301N000510150019N0080001N1+00501+00401999999ADDAW1811GA1071+015001999GA2081+018001999GF108991999999999999999999MA1102511999999REMMET080METAR LSMS 121650Z AUTO 23001KT 8000NDV -SHRA BKN051 OVC065 05/04 Q1025 RMK WHT;
0148067205999992011011217504+46217+007317AUTO +0482LSMS V0209999C000010150019N0060001N1+00501+00401999999ADDAW1811GA1081+015001999GF108991999999999999999999MA1102511999999REMMET073METAR LSMS 121750Z AUTO 00000KT 6000NDV -SHRA OVC059 05/04 Q1025 RMK GRN;
0155067205999992011011218504+46217+007317AUTO +0482LSMS V0209999C000010180019N0024001N1+00401+00401999999ADDAW1101AW2611GA1081+018001999GF108991999999999999999999MA1102511999999REMMET074METAR LSMS 121850Z AUTO 00000KT 2400NDV -RA BR OVC063 04/04 Q1025 RMK YLO;
0155067205999992011011219504+46217+007317AUTO +0482LSMS V0209999V001010180019N0043001N1+00401+00401999999ADDAW1101AW2611GA1071+018001999GF107991999999999999999999MA1102511999999REMMET074METAR LSMS 121950Z AUTO VRB02KT 4300NDV -RA BR BKN061 04/04 Q1025 RMK GRN;
0169067205999992011011220504+46217+007317AUTO +0482LSMS V0200601N001010180019N0050001N1+00401+00401999999ADDAW1611GA1021+001801999GA2071+018001999GF107991999999999999999999MA1102511999999REMMET078METAR LSMS 122050Z AUTO 06002KT 5000NDV -RA FEW006 BKN064 04/04 Q1025 RMK GRN;
0186067205999992011011221504+46217+007317AUTO +0482LSMS V0201001N001510210019N0040001N1+00401+00401999999ADDAW1101AW2611GA1041+018001999GA2071+021001999GF107991999999999999999999MA1102511999999REMMET089METAR LSMS 122150Z AUTO 10003KT 060V140 4000NDV -RA BR SCT060 BKN077 04/04 Q1025 RMK GRN;
0178067205999992011011222504+46217+007317AUTO +0482LSMS V0209999V001010180019N0038001N1+00401+00301999999ADDAW1101AW2611GA1021+003301999GA2071+018001999GF107991999999999999999999MA1102511999999REMMET081METAR LSMS 122250Z AUTO VRB02KT 3800NDV -RA BR FEW011 BKN062 04/03 Q1025 RMK GRN;
0178067205999992011011223504+46217+007317AUTO +0482LSMS V0209999V001010150019N0040001N1+00401+00301999999ADDAW1101AW2611GA1021+003301999GA2071+015001999GF107991999999999999999999MA1102511999999REMMET081METAR LSMS 122350Z AUTO VRB02KT 4000NDV -RA BR FEW011 BKN054 04/03 Q1025 RMK GRN;
0201067205999992011011300504+46217+007317AUTO +0482LSMS V0201101N00101010201CN0033001N1+00401+00301999999ADDAW1101AW2611GA1021+001501999GA2041+010201999GA3071+018001999GF107991999999999999999999MA1102401999999REMMET088METAR LSMS 130050Z AUTO 11002KT 3300NDV -RA BR FEW005 SCT034 BKN060 04/03 Q1024 RMK GRN;
0160067205999992011011301504+46217+007317AUTO +0482LSMS V0209999C000010150019N0023001N1+00401+00301999999ADDAW1101AW2611GA1071+015001999GF107991999999999999999999MA1102401999999REMMET079METAR LSMS 130150Z AUTO 00000KT 2300NDV -RA BR BKN057 04/03 Q1024 RERA RMK YLO;
0239067205999992011011302504+46217+007317AUTO +0482LSMS V0209999V00051005101CN0009001N1+00401+00301999999ADDAW1101AW2611ED107U09009GA1021+003001999GA2041+005101999GA3071+014401999GF108991999999999999999999MA1102501999999REMMET115METAR LSMS 130250Z AUTO VRB01KT 0900NDV R07/0900VP2000D R25/P2000N -RA BR FEW010 SCT017 BKN048 04/03 Q1025 RMK RED;
0183067205999992011011303504+46217+007317AUTO +0482LSMS V0209999V000510210019N0023001N1+00401+00301999999ADDAW1101AW2611GA1021+000601999GA2071+021001999GF107991999999999999999999MA1102401999999REMMET086METAR LSMS 130350Z AUTO VRB01KT 2300NDV -RA BR FEW002 BKN070 04/03 Q1024 RERA RMK YLO;
0186067205999992011011304504+46217+007317AUTO +0482LSMS V0201001N001512200019N0026001N1+00401+00301999999ADDAW1101AW2611GA1021+001801999GA2041+015001999GF104991999999999999999999MA1102401999999REMMET089METAR LSMS 130450Z AUTO 10003KT 070V140 2600NDV -RA BR FEW006 SCT051 04/03 Q1024 RMK YLO;
0175067205999992011011305504+46217+007317FM-15+0482LSMS V0209999V001010180019N0026001N1+00401+00301999999ADDGA1021+006601999GA2071+018001999GF107991999999999999999999MA1102401999999MW1101MW2611REMMET078METAR LSMS 130550Z VRB02KT 2600 -RA BR FEW022 BKN065 04/03 Q1024 RERA RMK YLO;
0158067205999992011011306504+46217+007317FM-15+0482LSMS V0200701N001510210019N0040001N1+00401+00301999999ADDGA1041+003001999GA2071+021001999GF107991999999999999999999MA1102401999999MW1101REMMET067METAR LSMS 130650Z 07003KT 4000 BR SCT010 BKN070 04/03 Q1024 NOSIG;
0181067205999992011011309504+46217+007317FM-15+0482LSMS V0209999C00001006001CN0040001N1+00501+00401999999ADDGA1021+001501999GA2041+006001999GA3071+024001999GF107991999999999999999999MA1102401999999MW1101REMMET074METAR LSMS 130950Z 00000KT 4000 BR FEW005 SCT020 BKN080 05/04 Q1024 NOSIG;
0149067205999992011011312504+46217+007317FM-15+0482LSMS V0209999V000512200019N0112651N1+00801+00501999999ADDGA1041+006001999GA2041+033001999GF104991999999999999999999MA1102301999999REMMET064METAR LSMS 131250Z VRB01KT 9999 SCT020 SCT110 08/05 Q1023 NOSIG;
0172067205999992011011313504+46217+007317FM-15+0482LSMS V0209999C00001033001CN0090001N1+00901+00601999999ADDGA1021+006001999GA2041+033001999GA3071+048001999GF107991999999999999999999MA1102201999999REMMET071METAR LSMS 131350Z 00000KT 9000 FEW020 SCT110 BKN160 09/06 Q1022 NOSIG;
0149067205999992011011315504+46217+007317FM-15+0482LSMS V0209999V001012200019N0112651N1+00901+00701999999ADDGA1041+033001999GA2041+048001999GF104991999999999999999999MA1102201999999REMMET064METAR LSMS 131550Z VRB02KT 9999 SCT110 SCT160 09/07 Q1022 NOSIG;
0149067205999992011011316504+46217+007317FM-15+0482LSMS V0209999V000512200019N0112651N1+00701+00601999999ADDGA1041+033001999GA2041+048001999GF104991999999999999999999MA1102201999999REMMET064METAR LSMS 131650Z VRB01KT 9999 SCT110 SCT160 07/06 Q1022 NOSIG;
0136067205999992011011319504+46217+007317AUTO +0482LSMS V0209999C000012200019N0021001N1+00401+00401999999ADDGA1041+005701999GF104991999999999999999999MA1102301999999REMMET067METAR LSMS 131950Z AUTO 00000KT 2100NDV SCT019 04/04 Q1023 RMK YLO;
0183067205999992011011320504+46217+007317AUTO +0482LSMS V0209999C000012200019N0012001N1+00401+00301999999ADDAW1101ED107U09009GA1041+005701999GF104991999999999999999999MA1102301999999REMMET097METAR LSMS 132050Z AUTO 00000KT 1200NDV R07/0900VP2000D R25/P2000N BR SCT019 04/03 Q1023 RMK RED;
0136067205999992011011321504+46217+007317AUTO +0482LSMS V0209999V000510051019N0060001N1+00301+00301999999ADDGA1071+005101999GF107991999999999999999999MA1102301999999REMMET067METAR LSMS 132150Z AUTO VRB01KT 6000NDV BKN017 03/03 Q1023 RMK GRN;
0136067205999992011011322504+46217+007317AUTO +0482LSMS V0200801N002110051019N0070001N1+00501+00401999999ADDGA1081+005101999GF108991999999999999999999MA1102301999999REMMET067METAR LSMS 132250Z AUTO 08004KT 7000NDV OVC017 05/04 Q1023 RMK GRN;
0136067205999992011011323504+46217+007317AUTO +0482LSMS V0200901N001510051019N0070001N1+00501+00401999999ADDGA1081+005101999GF108991999999999999999999MA1102301999999REMMET067METAR LSMS 132350Z AUTO 09003KT 7000NDV OVC017 05/04 Q1023 RMK GRN;
0136067205999992011011400504+46217+007317AUTO +0482LSMS V0209999C000010057019N0112651N1+00401+00401999999ADDGA1081+005701999GF108991999999999999999999MA1102301999999REMMET067METAR LSMS 140050Z AUTO 00000KT 9999NDV OVC019 04/04 Q1023 RMK GRN;
0159067205999992011011401504+46217+007317AUTO +0482LSMS V0209999V000510069019N0070001N1+00401+00301999999ADDGA1041+005401999GA2081+006901999GF108991999999999999999999MA1102401999999REMMET074METAR LSMS 140150Z AUTO VRB01KT 7000NDV SCT018 OVC023 04/03 Q1024 RMK GRN;
0159067205999992011011402504+46217+007317AUTO +0482LSMS V0209999C000010081019N0080001N1+00401+00401999999ADDGA1041+005701999GA2081+008101999GF108991999999999999999999MA1102401999999REMMET074METAR LSMS 140250Z AUTO 00000KT 8000NDV SCT019 OVC027 04/04 Q1024 RMK WHT;
0182067205999992011011403504+46217+007317AUTO +0482LSMS V0200801N00211008101CN0112651N1+00501+00301999999ADDGA1021+006601999GA2041+008101999GA3081+009901999GF108991999999999999999999MA1102401999999REMMET081METAR LSMS 140350Z AUTO 08004KT 9999NDV FEW022 SCT027 OVC033 05/03 Q1024 RMK WHT;
0136067205999992011011404504+46217+007317AUTO +0482LSMS V0200801N002110099019N0112651N1+00401+00301999999ADDGA1071+009901999GF107991999999999999999999MA1102401999999REMMET067METAR LSMS 140450Z AUTO 08004KT 9999NDV BKN033 04/03 Q1024 RMK WHT;
0128067205999992011011405504+46217+007317FM-15+0482LSMS V0200701N002110093019N0112651N1+00401+00301999999ADDGA1071+009301999GF107991999999999999999999MA1102401999999REMMET059METAR LSMS 140550Z 07004KT 9999 BKN031 04/03 Q1024 RMK WHT;
0126067205999992011011406504+46217+007317FM-15+0482LSMS V0200901N004112200019N0112651N1+00401+00301999999ADDGA1041+009001999GF104991999999999999999999MA1102401999999REMMET057METAR LSMS 140650Z 09008KT 9999 SCT030 04/03 Q1024 NOSIG;
0157067205999992011011408504+46217+007317FM-15+0482LSMS V0200701N003612200019N0112651N1+00301+00201999999ADDGA1021+009001999GA2041+075001999GF104991999999999999999999MA1102401999999REMMET072METAR LSMS 140850Z 07007KT 020V090 9999 FEW030 SCT250 03/02 Q1024 NOSIG;
0078067205999992011011409504+46217+007317FM-15+0482LSMS V0200901N003619999999Y0099001N1+00401+00201999999ADDMA1102401999999REMMET051METAR LSMS 140950Z 09007KT CAVOK 04/02 Q1024 NOSIG;
0078067205999992011011413504+46217+007317FM-15+0482LSMS V0209999V001019999999Y0099001N1+01001+00301999999ADDMA1102101999999REMMET051METAR LSMS 141350Z VRB02KT CAVOK 10/03 Q1021 NOSIG;
0078067205999992011011414504+46217+007317FM-15+0482LSMS V0209999V000519999999Y0099001N1+00901+00301999999ADDMA1102001999999REMMET051METAR LSMS 141450Z VRB01KT CAVOK 09/03 Q1020 NOSIG;
0078067205999992011011415504+46217+007317FM-15+0482LSMS V0209999V000519999999Y0099001N1+00801+00301999999ADDMA1102101999999REMMET051METAR LSMS 141550Z VRB01KT CAVOK 08/03 Q1021 NOSIG;
0078067205999992011011416504+46217+007317FM-15+0482LSMS V0201301N001019999999Y0099001N1+00601+00201999999ADDMA1102101999999REMMET051METAR LSMS 141650Z 13002KT CAVOK 06/02 Q1021 NOSIG;
0078067205999992011011417504+46217+007317FM-15+0482LSMS V0200901N003119999999Y0099001N1+00501+00201999999ADDMA1102101999999REMMET051METAR LSMS 141750Z 09006KT CAVOK 05/02 Q1021 NOSIG;
0086067205999992011011418504+46217+007317FM-15+0482LSMS V0201001N001519999999Y0099001N1+00501+00201999999ADDMA1102101999999REMMET059METAR LSMS 141850Z 10003KT 060V140 CAVOK 05/02 Q1021 NOSIG;
0078067205999992011011419504+46217+007317FM-15+0482LSMS V0200801N002119999999Y0099001N1+00401+00101999999ADDMA1102101999999REMMET051METAR LSMS 141950Z 08004KT CAVOK 04/01 Q1021 NOSIG;
0117067205999992011011420504+46217+007317AUTO +0482LSMS V0209999V001012200019N0112651N1+00201+00001999999ADDGF100991999999999999999999MA1102101999999REMMET064METAR LSMS 142050Z AUTO VRB02KT 9999NDV NCD 02/00 Q1021 RMK BLU;
0125067205999992011011421504+46217+007317AUTO +0482LSMS V0202001N002112200019N0112651N1+00201+00101999999ADDGF100991999999999999999999MA1102201999999REMMET072METAR LSMS 142150Z AUTO 20004KT 170V250 9999NDV NCD 02/01 Q1022 RMK BLU;
0117067205999992011011422504+46217+007317AUTO +0482LSMS V0209999V001012200019N0112651N1+00201+00001999999ADDGF100991999999999999999999MA1102201999999REMMET064METAR LSMS 142250Z AUTO VRB02KT 9999NDV NCD 02/00 Q1022 RMK BLU;
0144067205999992011011423504+46217+007317AUTO +0482LSMS V0202701N001512200019N0112651N1+00101+00001999999ADDGA1021+054001999GF102991999999999999999999MA1102401999999REMMET075METAR LSMS 142350Z AUTO 27003KT 200V310 9999NDV FEW180 01/00 Q1024 RMK BLU;
0136067205999992011011500504+46217+007317AUTO +0482LSMS V0209999V001512200019N0112651N1+00201+00001999999ADDGA1041+030001999GF104991999999999999999999MA1102401999999REMMET067METAR LSMS 150050Z AUTO VRB03KT 9999NDV SCT100 02/00 Q1024 RMK BLU;
0136067205999992011011501504+46217+007317AUTO +0482LSMS V0200701N002112200019N0112651N1+00101+00001999999ADDGA1021+027001999GF102991999999999999999999MA1102401999999REMMET067METAR LSMS 150150Z AUTO 07004KT 9999NDV FEW091 01/00 Q1024 RMK BLU;
0144067205999992011011502504+46217+007317AUTO +0482LSMS V0201201N002112200019N0112651N1+00201+00001999999ADDGA1021+024001999GF102991999999999999999999MA1102401999999REMMET075METAR LSMS 150250Z AUTO 12004KT 070V170 9999NDV FEW083 02/00 Q1024 RMK BLU;
0136067205999992011011503504+46217+007317AUTO +0482LSMS V0209999C000012200019N0112651N1+00101+00001999999ADDGA1021+027001999GF102991999999999999999999MA1102511999999REMMET067METAR LSMS 150350Z AUTO 00000KT 9999NDV FEW090 01/00 Q1025 RMK BLU;
0136067205999992011011504504+46217+007317AUTO +0482LSMS V0209999V000512200019N0112651N1+00201+00001999999ADDGA1041+027001999GF104991999999999999999999MA1102611999999REMMET067METAR LSMS 150450Z AUTO VRB01KT 9999NDV SCT090 02/00 Q1026 RMK BLU;
0125067205999992011011505504+46217+007317AUTO +0482LSMS V0200901N001512200019N0112651N1+00201+00101999999ADDGF100991999999999999999999MA1102711999999REMMET072METAR LSMS 150550Z AUTO 09003KT 050V120 9999NDV NCD 02/01 Q1027 RMK BLU;
0134067205999992011011506504+46217+007317FM-15+0482LSMS V0200901N001512200019N0112651N1+00201+00001999999ADDGA1021+024001999GF102991999999999999999999MA1102811999999REMMET065METAR LSMS 150650Z 09003KT 050V150 9999 FEW080 02/00 Q1028 NOSIG;
0079067205999992011011508504+46217+007317FM-15+0482LSMS V0209999V000519999999Y0099001N1+00101+00001999999ADDMA1102811999999REMMET052METAR LSMS 150850Z VRB01KT CAVOK 01/M00 Q1028 NOSIG;
0078067205999992011011511504+46217+007317FM-15+0482LSMS V0209999V001019999999Y0099001N1+00801+00301999999ADDMA1102711999999REMMET051METAR LSMS 151150Z VRB02KT CAVOK 08/03 Q1027 NOSIG;
0078067205999992011011513504+46217+007317FM-15+0482LSMS V0209999V000519999999Y0099001N1+01001+00301999999ADDMA1102611999999REMMET051METAR LSMS 151350Z VRB01KT CAVOK 10/03 Q1026 NOSIG;
0078067205999992011011515504+46217+007317FM-15+0482LSMS V0209999V000519999999Y0099001N1+00801+00201999999ADDMA1102711999999REMMET051METAR LSMS 151550Z VRB01KT CAVOK 08/02 Q1027 NOSIG;
0078067205999992011011516504+46217+007317FM-15+0482LSMS V0209999V001019999999Y0099001N1+00601+00101999999ADDMA1102911999999REMMET051METAR LSMS 151650Z VRB02KT CAVOK 06/01 Q1029 NOSIG;
0078067205999992011011518504+46217+007317FM-15+0482LSMS V0201101N002119999999Y0099001N1+00401+00101999999ADDMA1103011999999REMMET051METAR LSMS 151850Z 11004KT CAVOK 04/01 Q1030 NOSIG;
0118067205999992011011519504+46217+007317AUTO +0482LSMS V0200801N002112200019N0112651N1+00301+00001999999ADDGF100991999999999999999999MA1103011999999REMMET065METAR LSMS 151950Z AUTO 08004KT 9999NDV NCD 03/M00 Q1030 RMK BLU;
0117067205999992011011520504+46217+007317AUTO +0482LSMS V0200701N002112200019N0112651N1+00301+00101999999ADDGF100991999999999999999999MA1103011999999REMMET064METAR LSMS 152050Z AUTO 07004KT 9999NDV NCD 03/01 Q1030 RMK BLU;
0117067205999992011011521504+46217+007317AUTO +0482LSMS V0200801N003112200019N0112651N1+00301+00101999999ADDGF100991999999999999999999MA1103121999999REMMET064METAR LSMS 152150Z AUTO 08006KT 9999NDV NCD 03/01 Q1031 RMK BLU;
0118067205999992011011522504+46217+007317AUTO +0482LSMS V0200501N002112200019N0112651N1+00301+00001999999ADDGF100991999999999999999999MA1103121999999REMMET065METAR LSMS 152250Z AUTO 05004KT 9999NDV NCD 03/M00 Q1031 RMK BLU;
0126067205999992011011523504+46217+007317AUTO +0482LSMS V0200601N001512200019N0112651N1+00201+00001999999ADDGF100991999999999999999999MA1103011999999REMMET073METAR LSMS 152350Z AUTO 06003KT 030V090 9999NDV NCD 02/M00 Q1030 RMK BLU;
0118067205999992011011600504+46217+007317AUTO +0482LSMS V0200701N003612200019N0112651N1+00201-00101999999ADDGF100991999999999999999999MA1103011999999REMMET065METAR LSMS 160050Z AUTO 07007KT 9999NDV NCD 02/M01 Q1030 RMK BLU;
0118067205999992011011601504+46217+007317AUTO +0482LSMS V0200801N002112200019N0112651N1+00101-00101999999ADDGF100991999999999999999999MA1103011999999REMMET065METAR LSMS 160150Z AUTO 08004KT 9999NDV NCD 01/M01 Q1030 RMK BLU;
0126067205999992011011602504+46217+007317AUTO +0482LSMS V0200701N001512200019N0112651N1+00101-00101999999ADDGF100991999999999999999999MA1103011999999REMMET073METAR LSMS 160250Z AUTO 07003KT 030V090 9999NDV NCD 01/M01 Q1030 RMK BLU;
0118067205999992011011603504+46217+007317AUTO +0482LSMS V0201001N001012200019N0112651N1+00001-00201999999ADDGF100991999999999999999999MA1103011999999REMMET065METAR LSMS 160350Z AUTO 10002KT 9999NDV NCD 00/M02 Q1030 RMK BLU;
0118067205999992011011604504+46217+007317AUTO +0482LSMS V0200801N002112200019N0112651N1+00001-00201999999ADDGF100991999999999999999999MA1102911999999REMMET065METAR LSMS 160450Z AUTO 08004KT 9999NDV NCD 00/M02 Q1029 RMK BLU;
0118067205999992011011605504+46217+007317AUTO +0482LSMS V0200701N003112200019N0112651N1+00001-00201999999ADDGF100991999999999999999999MA1103011999999REMMET065METAR LSMS 160550Z AUTO 07006KT 9999NDV NCD 00/M02 Q1030 RMK BLU;
0079067205999992011011606504+46217+007317FM-15+0482LSMS V0209999V001519999999Y0099001N1+00001-00201999999ADDMA1103011999999REMMET052METAR LSMS 160650Z VRB03KT CAVOK 00/M02 Q1030 NOSIG;
0079067205999992011011607504+46217+007317FM-15+0482LSMS V0209999V000519999999Y0099001N1+00101-00201999999ADDMA1103011999999REMMET052METAR LSMS 160750Z VRB01KT CAVOK 01/M02 Q1030 NOSIG;
0087067205999992011011608504+46217+007317FM-15+0482LSMS V0200801N002119999999Y0099001N1+00001-00201999999ADDMA1103011999999REMMET060METAR LSMS 160850Z 08004KT 030V100 CAVOK 00/M02 Q1030 NOSIG;
0079067205999992011011609504+46217+007317FM-15+0482LSMS V0201001N002619999999Y0099001N1+00101-00201999999ADDMA1102911999999REMMET052METAR LSMS 160950Z 10005KT CAVOK 01/M02 Q1029 NOSIG;
0079067205999992011011610504+46217+007317FM-15+0482LSMS V0209999V001019999999Y0099001N1+00401+00001999999ADDMA1102911999999REMMET052METAR LSMS 161050Z VRB02KT CAVOK 04/M00 Q1029 NOSIG;
0079067205999992011011611504+46217+007317FM-15+0482LSMS V0209999C000019999999Y0099001N1+00801+00001999999ADDMA1102811999999REMMET052METAR LSMS 161150Z 00000KT CAVOK 08/M00 Q1028 NOSIG;
0078067205999992011011612504+46217+007317FM-15+0482LSMS V0209999C000019999999Y0099001N1+01001+00001999999ADDMA1102711999999REMMET051METAR LSMS 161250Z 00000KT CAVOK 10/00 Q1027 NOSIG;
0079067205999992011011614504+46217+007317FM-15+0482LSMS V0209999V001019999999Y0099001N1+01101+00001999999ADDMA1102611999999REMMET052METAR LSMS 161450Z VRB02KT CAVOK 11/M00 Q1026 NOSIG;
0079067205999992011011615504+46217+007317FM-15+0482LSMS V0201801N001019999999Y0099001N1+00801-00101999999ADDMA1102711999999REMMET052METAR LSMS 161550Z 18002KT CAVOK 08/M01 Q1027 NOSIG;
0078067205999992011011616504+46217+007317FM-15+0482LSMS V0209999V001519999999Y0099001N1+00701+00001999999ADDMA1102711999999REMMET051METAR LSMS 161650Z VRB03KT CAVOK 07/00 Q1027 NOSIG;
0118067205999992011011617504+46217+007317AUTO +0482LSMS V0209999V001012200019N0112651N1+00401+00001999999ADDGF100991999999999999999999MA1102811999999REMMET065METAR LSMS 161750Z AUTO VRB02KT 9999NDV NCD 04/M00 Q1028 RMK BLU;
0118067205999992011011618504+46217+007317AUTO +0482LSMS V0200701N002112200019N0112651N1+00301+00001999999ADDGF100991999999999999999999MA1102811999999REMMET065METAR LSMS 161850Z AUTO 07004KT 9999NDV NCD 03/M00 Q1028 RMK BLU;
0118067205999992011011619504+46217+007317AUTO +0482LSMS V0200801N002112200019N0112651N1+00301+00001999999ADDGF100991999999999999999999MA1102811999999REMMET065METAR LSMS 161950Z AUTO 08004KT 9999NDV NCD 03/M00 Q1028 RMK BLU;
0126067205999992011011620504+46217+007317AUTO +0482LSMS V0200501N001512200019N0112651N1+00201-00101999999ADDGF100991999999999999999999MA1102811999999REMMET073METAR LSMS 162050Z AUTO 05003KT 010V080 9999NDV NCD 02/M01 Q1028 RMK BLU;
0118067205999992011011621504+46217+007317AUTO +0482LSMS V0209999C000012200019N0112651N1+00101-00101999999ADDGF100991999999999999999999MA1102811999999REMMET065METAR LSMS 162150Z AUTO 00000KT 9999NDV NCD 01/M01 Q1028 RMK BLU;
0118067205999992011011622504+46217+007317AUTO +0482LSMS V0209999C000012200019N0112651N1+00101-00101999999ADDGF100991999999999999999999MA1102911999999REMMET065METAR LSMS 162250Z AUTO 00000KT 9999NDV NCD 01/M01 Q1029 RMK BLU;
0118067205999992011011623504+46217+007317AUTO +0482LSMS V0200801N001512200019N0112651N1+00101-00101999999ADDGF100991999999999999999999MA1102911999999REMMET065METAR LSMS 162350Z AUTO 08003KT 9999NDV NCD 01/M01 Q1029 RMK BLU;
0118067205999992011011700504+46217+007317AUTO +0482LSMS V0209999V001012200019N0112651N1+00001-00101999999ADDGF100991999999999999999999MA1102811999999REMMET065METAR LSMS 170050Z AUTO VRB02KT 9999NDV NCD 00/M01 Q1028 RMK BLU;
0126067205999992011011701504+46217+007317AUTO +0482LSMS V0200801N002112200019N0112651N1+00001-00101999999ADDGF100991999999999999999999MA1102811999999REMMET073METAR LSMS 170150Z AUTO 08004KT 040V110 9999NDV NCD 00/M01 Q1028 RMK BLU;
0119067205999992011011702504+46217+007317AUTO +0482LSMS V0209999V001012200019N0112651N1+00001-00101999999ADDGF100991999999999999999999MA1102811999999REMMET066METAR LSMS 170250Z AUTO VRB02KT 9999NDV NCD M00/M01 Q1028 RMK BLU;
0127067205999992011011703504+46217+007317AUTO +0482LSMS V0201001N001512200019N0112651N1+00001-00201999999ADDGF100991999999999999999999MA1102811999999REMMET074METAR LSMS 170350Z AUTO 10003KT 080V140 9999NDV NCD M00/M02 Q1028 RMK BLU;
0118067205999992011011704504+46217+007317AUTO +0482LSMS V0209999V001512200019N0112651N1+00001-00201999999ADDGF100991999999999999999999MA1102811999999REMMET065METAR LSMS 170450Z AUTO VRB03KT 9999NDV NCD 00/M02 Q1028 RMK BLU;
0082067205999992011011705504+46217+007317FM-15+0482LSMS V0209999V000519999999Y0099001N1-00101-00201999999ADDMA1102811999999REMMET055METAR LSMS 170550Z VRB01KT CAVOK M01/M02 Q1028 RMK BLU;
0087067205999992011011708504+46217+007317FM-15+0482LSMS V0201001N001519999999Y0099001N1+00001-00201999999ADDMA1102811999999REMMET060METAR LSMS 170850Z 10003KT 060V120 CAVOK 00/M02 Q1028 NOSIG;
0080067205999992011011709504+46217+007317FM-15+0482LSMS V0209999V000519999999Y0099001N1+00001-00201999999ADDMA1102811999999REMMET053METAR LSMS 170950Z VRB01KT CAVOK M00/M02 Q1028 NOSIG;
0079067205999992011011712504+46217+007317FM-15+0482LSMS V0202401N004119999999Y0099001N1+00701-00201999999ADDMA1102611999999REMMET052METAR LSMS 171250Z 24008KT CAVOK 07/M02 Q1026 NOSIG;
0079067205999992011011714504+46217+007317FM-15+0482LSMS V0202401N002619999999Y0099001N1+00901-00101999999ADDMA1102611999999REMMET052METAR LSMS 171450Z 24005KT CAVOK 09/M01 Q1026 NOSIG;
0079067205999992011011715504+46217+007317FM-15+0482LSMS V0209999V001019999999Y0099001N1+00701-00101999999ADDMA1102711999999REMMET052METAR LSMS 171550Z VRB02KT CAVOK 07/M01 Q1027 NOSIG;
0118067205999992011011716504+46217+007317AUTO +0482LSMS V0201301N001512200019N0112651N1+00501-00101999999ADDGF100991999999999999999999MA1102711999999REMMET065METAR LSMS 171650Z AUTO 13003KT 9999NDV NCD 05/M01 Q1027 RMK BLU;
0118067205999992011011717504+46217+007317AUTO +0482LSMS V0209999C000012200019N0112651N1+00301-00101999999ADDGF100991999999999999999999MA1102811999999REMMET065METAR LSMS 171750Z AUTO 00000KT 9999NDV NCD 03/M01 Q1028 RMK BLU;
0118067205999992011011718504+46217+007317AUTO +0482LSMS V0209999V000512200019N0112651N1+00201-00201999999ADDGF100991999999999999999999MA1102811999999REMMET065METAR LSMS 171850Z AUTO VRB01KT 9999NDV NCD 02/M02 Q1028 RMK BLU;
0118067205999992011011719504+46217+007317AUTO +0482LSMS V0200901N002112200019N0112651N1+00201-00101999999ADDGF100991999999999999999999MA1102811999999REMMET065METAR LSMS 171950Z AUTO 09004KT 9999NDV NCD 02/M01 Q1028 RMK BLU;
0118067205999992011011720504+46217+007317AUTO +0482LSMS V0209999V001012200019N0112651N1+00101-00201999999ADDGF100991999999999999999999MA1102911999999REMMET065METAR LSMS 172050Z AUTO VRB02KT 9999NDV NCD 01/M02 Q1029 RMK BLU;
0119067205999992011011721504+46217+007317AUTO +0482LSMS V0209999V000512200019N0112651N1+00001-00201999999ADDGF100991999999999999999999MA1102911999999REMMET066METAR LSMS 172150Z AUTO VRB01KT 9999NDV NCD M00/M02 Q1029 RMK BLU;
0118067205999992011011722504+46217+007317AUTO +0482LSMS V0200901N002112200019N0112651N1+00001-00201999999ADDGF100991999999999999999999MA1102911999999REMMET065METAR LSMS 172250Z AUTO 09004KT 9999NDV NCD 00/M02 Q1029 RMK BLU;
0127067205999992011011723504+46217+007317AUTO +0482LSMS V0201001N002112200019N0112651N1+00001-00201999999ADDGF100991999999999999999999MA1102911999999REMMET074METAR LSMS 172350Z AUTO 10004KT 070V140 9999NDV NCD M00/M02 Q1029 RMK BLU;
0119067205999992011011800504+46217+007317AUTO +0482LSMS V0209999C000012200019N0112651N1-00101-00301999999ADDGF100991999999999999999999MA1102911999999REMMET066METAR LSMS 180050Z AUTO 00000KT 9999NDV NCD M01/M03 Q1029 RMK BLU;
0119067205999992011011801504+46217+007317AUTO +0482LSMS V0200801N002112200019N0112651N1-00101-00301999999ADDGF100991999999999999999999MA1102911999999REMMET066METAR LSMS 180150Z AUTO 08004KT 9999NDV NCD M01/M03 Q1029 RMK BLU;
0119067205999992011011802504+46217+007317AUTO +0482LSMS V0200801N002112200019N0112651N1-00101-00301999999ADDGF100991999999999999999999MA1102811999999REMMET066METAR LSMS 180250Z AUTO 08004KT 9999NDV NCD M01/M03 Q1028 RMK BLU;
0127067205999992011011803504+46217+007317AUTO +0482LSMS V0201001N002612200019N0112651N1-00101-00301999999ADDGF100991999999999999999999MA1102811999999REMMET074METAR LSMS 180350Z AUTO 10005KT 070V140 9999NDV NCD M01/M03 Q1028 RMK BLU;
0119067205999992011011804504+46217+007317AUTO +0482LSMS V0209999V001012200019N0112651N1-00101-00301999999ADDGF100991999999999999999999MA1102811999999REMMET066METAR LSMS 180450Z AUTO VRB02KT 9999NDV NCD M01/M03 Q1028 RMK BLU;
0082067205999992011011805504+46217+007317FM-15+0482LSMS V0209999V001019999999Y0099001N1-00201-00401999999ADDMA1102811999999REMMET055METAR LSMS 180550Z VRB02KT CAVOK M02/M04 Q1028 RMK BLU;
0128067205999992011011806504+46217+007317FM-15+0482LSMS V0209999C000012200019N0112651N1-00201-00301999999ADDGA1041+030001999GF104991999999999999999999MA1102811999999REMMET059METAR LSMS 180650Z 00000KT 9999 SCT100 M02/M03 Q1028 NOSIG;
0128067205999992011011807504+46217+007317FM-15+0482LSMS V0209999V001010330019N0112651N1-00101-00201999999ADDGA1071+033001999GF107991999999999999999999MA1102811999999REMMET059METAR LSMS 180750Z VRB02KT 9999 BKN110 M01/M02 Q1028 NOSIG;
0135067205999992011011810504+46217+007317FM-15+0482LSMS V0200801N002612200019N0112651N1+00501-00201999999ADDGA1041+033001999GF104991999999999999999999MA1102711999999REMMET066METAR LSMS 181050Z 08005KT 050V110 9999 SCT110 05/M02 Q1027 NOSIG;
0150067205999992011011811504+46217+007317FM-15+0482LSMS V0209999C000012200019N0112651N1+00701-00301999999ADDGA1021+033001999GA2041+060001999GF104991999999999999999999MA1102611999999REMMET065METAR LSMS 181150Z 00000KT 9999 FEW110 SCT200 07/M03 Q1026 NOSIG;
0150067205999992011011813504+46217+007317FM-15+0482LSMS V0202201N002112200019N0112651N1+00801-00301999999ADDGA1021+033001999GA2041+060001999GF104991999999999999999999MA1102511999999REMMET065METAR LSMS 181350Z 22004KT 9999 FEW110 SCT200 08/M03 Q1025 NOSIG;
0150067205999992011011814504+46217+007317FM-15+0482LSMS V0202101N001510600019N0112651N1+00701-00301999999ADDGA1041+027001999GA2071+060001999GF107991999999999999999999MA1102511999999REMMET065METAR LSMS 181450Z 21003KT 9999 SCT090 BKN200 07/M03 Q1025 NOSIG;
0150067205999992011011815504+46217+007317FM-15+0482LSMS V0202701N001510600019N0112651N1+00701-00401999999ADDGA1041+027001999GA2071+060001999GF107991999999999999999999MA1102511999999REMMET065METAR LSMS 181550Z 27003KT 9999 SCT090 BKN200 07/M04 Q1025 NOSIG;
0160067205999992011011816504+46217+007317AUTO +0482LSMS V0209999C000010240019N0112651N1+00601-00201999999ADDGA1071+024001999GA2071+027001999GF107991999999999999999999MA1102611999999REMMET075METAR LSMS 181650Z AUTO 00000KT 9999NDV BKN083 BKN097 06/M02 Q1026 RMK WHT;
0137067205999992011011817504+46217+007317AUTO +0482LSMS V0209999C000012200019N0112651N1+00401-00201999999ADDGA1021+021001999GF102991999999999999999999MA1102611999999REMMET068METAR LSMS 181750Z AUTO 00000KT 9999NDV FEW079 04/M02 Q1026 RMK BLU;
0137067205999992011011818504+46217+007317AUTO +0482LSMS V0200801N002112200019N0112651N1+00301-00201999999ADDGA1021+024001999GF102991999999999999999999MA1102611999999REMMET068METAR LSMS 181850Z AUTO 08004KT 9999NDV FEW082 03/M02 Q1026 RMK BLU;
0118067205999992011011819504+46217+007317AUTO +0482LSMS V0209999C000012200019N0112651N1+00201-00201999999ADDGF100991999999999999999999MA1102611999999REMMET065METAR LSMS 181950Z AUTO 00000KT 9999NDV NCD 02/M02 Q1026 RMK BLU;
0118067205999992011011820504+46217+007317AUTO +0482LSMS V0209999C000012200019N0112651N1+00101-00201999999ADDGF100991999999999999999999MA1102611999999REMMET065METAR LSMS 182050Z AUTO 00000KT 9999NDV NCD 01/M02 Q1026 RMK BLU;
0138067205999992011011821504+46217+007317AUTO +0482LSMS V0209999C000012200019N0112651N1+00001-00201999999ADDGA1021+063001999GF102991999999999999999999MA1102611999999REMMET069METAR LSMS 182150Z AUTO 00000KT 9999NDV FEW210 M00/M02 Q1026 RMK BLU;
0138067205999992011011822504+46217+007317AUTO +0482LSMS V0209999C000012200019N0112651N1+00001-00201999999ADDGA1021+051001999GF102991999999999999999999MA1102711999999REMMET069METAR LSMS 182250Z AUTO 00000KT 9999NDV FEW170 M00/M02 Q1027 RMK BLU;
0138067205999992011011823504+46217+007317AUTO +0482LSMS V0209999V001012200019N0112651N1+00001-00201999999ADDGA1021+057001999GF102991999999999999999999MA1102711999999REMMET069METAR LSMS 182350Z AUTO VRB02KT 9999NDV FEW190 M00/M02 Q1027 RMK BLU;
0161067205999992011011900504+46217+007317AUTO +0482LSMS V0200601N002112200019N0112651N1+00001-00201999999ADDGA1021+039001999GA2041+057001999GF104991999999999999999999MA1102711999999REMMET076METAR LSMS 190050Z AUTO 06004KT 9999NDV FEW130 SCT190 M00/M02 Q1027 RMK BLU;
0160067205999992011011901504+46217+007317AUTO +0482LSMS V0200501N002112200019N0112651N1+00101-00201999999ADDGA1041+039001999GA2041+051001999GF104991999999999999999999MA1102611999999REMMET075METAR LSMS 190150Z AUTO 05004KT 9999NDV SCT130 SCT170 01/M02 Q1026 RMK BLU;
0183067205999992011011902504+46217+007317AUTO +0482LSMS V0209999V00101039001CN0112651N1+00001-00201999999ADDGA1021+010801999GA2041+039001999GA3071+057001999GF107991999999999999999999MA1102611999999REMMET082METAR LSMS 190250Z AUTO VRB02KT 9999NDV FEW036 SCT130 BKN190 00/M02 Q1026 RMK WHT;
0184067205999992011011903504+46217+007317AUTO +0482LSMS V0209999V000510420019N0112651N1-00101-00201999999ADDGA1021+010201999GA2071+042001999GA3071+054001999GF107991999999999999999999MA1102611999999REMMET083METAR LSMS 190350Z AUTO VRB01KT 9999NDV FEW034 BKN140 BKN180 M01/M02 Q1026 RMK WHT;
0119067205999992011011904504+46217+007317AUTO +0482LSMS V0209999V001012200019N0112651N1-00101-00201999999ADDGF100991999999999999999999MA1102611999999REMMET066METAR LSMS 190450Z AUTO VRB02KT 9999NDV NCD M01/M02 Q1026 RMK BLU;
0130067205999992011011905504+46217+007317FM-15+0482LSMS V0209999V001012200019N0112651N1-00101-00301999999ADDGA1021+007801999GF102991999999999999999999MA1102611999999REMMET061METAR LSMS 190550Z VRB02KT 9999 FEW026 M01/M03 Q1026 RMK BLU;
0128067205999992011011906504+46217+007317FM-15+0482LSMS V0209999V000512200019N0112651N1-00101-00201999999ADDGA1021+009001999GF102991999999999999999999MA1102611999999REMMET059METAR LSMS 190650Z VRB01KT 9999 FEW030 M01/M02 Q1026 NOSIG;
0128067205999992011011907504+46217+007317FM-15+0482LSMS V0209999V000512200019N0112651N1-00201-00301999999ADDGA1021+021001999GF102991999999999999999999MA1102611999999REMMET059METAR LSMS 190750Z VRB01KT 9999 FEW070 M02/M03 Q1026 NOSIG;
0128067205999992011011908504+46217+007317FM-15+0482LSMS V0209999V001012200019N0112651N1-00101-00301999999ADDGA1041+021001999GF104991999999999999999999MA1102611999999REMMET059METAR LSMS 190850Z VRB02KT 9999 SCT070 M01/M03 Q1026 NOSIG;
0137067205999992011011909504+46217+007317FM-15+0482LSMS V0200901N001512200019N0090001N1+00001-00201999999ADDGA1021+018001999GF102991999999999999999999MA1102611999999REMMET068METAR LSMS 190950Z 09003KT 050V120 9000 FEW060 00/M02 Q1026 RMK BLU;
0126067205999992011011911504+46217+007317FM-15+0482LSMS V0209999V001012200019N0112651N1+00501+00001999999ADDGA1041+021001999GF104991999999999999999999MA1102511999999REMMET057METAR LSMS 191150Z VRB02KT 9999 SCT070 05/00 Q1025 NOSIG;
0135067205999992011011912504+46217+007317FM-15+0482LSMS V0202501N003112200019N0112651N1+00701-00101999999ADDGA1041+021001999GF104991999999999999999999MA1102301999999REMMET066METAR LSMS 191250Z 25006KT 210V290 9999 SCT070 07/M01 Q1023 NOSIG;
0127067205999992011011913504+46217+007317FM-15+0482LSMS V0202501N007712200019N0112651N1+00801-00101999999ADDGA1041+021001999GF104991999999999999999999MA1102301999999REMMET058METAR LSMS 191350Z 25015KT 9999 SCT070 08/M01 Q1023 NOSIG;
0127067205999992011011914504+46217+007317FM-15+0482LSMS V0202401N005712200019N0112651N1+00601-00201999999ADDGA1041+021001999GF104991999999999999999999MA1102201999999REMMET058METAR LSMS 191450Z 24011KT 9999 SCT070 06/M02 Q1022 NOSIG;
0158067205999992011011916504+46217+007317FM-15+0482LSMS V0202001N002112200019N0112651N1+00501-00401999999ADDGA1041+012001999GA2041+021001999GF104991999999999999999999MA1102301999999REMMET073METAR LSMS 191650Z 20004KT 160V240 9999 SCT040 SCT070 05/M04 Q1023 NOSIG;
0179067205999992011011917504+46217+007317AUTO +0482LSMS V0203101N005710210019N0112651N1+00601-00801999999ADDGA1071+021001999GA2071+027001999GF107991999999999999999999MA1102401999999OC101081REMMET086METAR LSMS 191750Z AUTO 31011G21KT 270V010 9999NDV BKN070 BKN092 06/M08 Q1024 RMK WHT;
0168067205999992011011918504+46217+007317AUTO +0482LSMS V0202901N002610240019N0112651N1+00401-00501999999ADDGA1021+015001999GA2081+024001999GF108991999999999999999999MA1102401999999REMMET083METAR LSMS 191850Z AUTO 29005KT 190V330 9999NDV FEW055 OVC081 04/M05 Q1024 RMK WHT;
0126067205999992011011919504+46217+007317AUTO +0482LSMS V0202401N002112200019N0112651N1+00301-00401999999ADDGF100991999999999999999999MA1102401999999REMMET073METAR LSMS 191950Z AUTO 24004KT 200V270 9999NDV NCD 03/M04 Q1024 RMK BLU;
0137067205999992011011920504+46217+007317AUTO +0482LSMS V0202401N002112200019N0112651N1+00201-00501999999ADDGA1041+021001999GF104991999999999999999999MA1102401999999REMMET068METAR LSMS 192050Z AUTO 24004KT 9999NDV SCT074 02/M05 Q1024 RMK BLU;
0118067205999992011011921504+46217+007317AUTO +0482LSMS V0209999C000012200019N0112651N1+00001-00501999999ADDGF100991999999999999999999MA1102511999999REMMET065METAR LSMS 192150Z AUTO 00000KT 9999NDV NCD 00/M05 Q1025 RMK BLU;
0119067205999992011011922504+46217+007317AUTO +0482LSMS V0209999V000512200019N0112651N1-00101-00501999999ADDGF100991999999999999999999MA1102401999999REMMET066METAR LSMS 192250Z AUTO VRB01KT 9999NDV NCD M01/M05 Q1024 RMK BLU;
0119067205999992011011923504+46217+007317AUTO +0482LSMS V0209999C000012200019N0112651N1-00101-00501999999ADDGF100991999999999999999999MA1102401999999REMMET066METAR LSMS 192350Z AUTO 00000KT 9999NDV NCD M01/M05 Q1024 RMK BLU;
0119067205999992011012000504+46217+007317AUTO +0482LSMS V0209999V000512200019N0112651N1-00201-00501999999ADDGF100991999999999999999999MA1102401999999REMMET066METAR LSMS 200050Z AUTO VRB01KT 9999NDV NCD M02/M05 Q1024 RMK BLU;
0119067205999992011012001504+46217+007317AUTO +0482LSMS V0209999C000012200019N0112651N1-00301-00501999999ADDGF100991999999999999999999MA1102401999999REMMET066METAR LSMS 200150Z AUTO 00000KT 9999NDV NCD M03/M05 Q1024 RMK BLU;
0119067205999992011012002504+46217+007317AUTO +0482LSMS V0209999V000512200019N0112651N1-00301-00601999999ADDGF100991999999999999999999MA1102401999999REMMET066METAR LSMS 200250Z AUTO VRB01KT 9999NDV NCD M03/M06 Q1024 RMK BLU;
0119067205999992011012003504+46217+007317AUTO +0482LSMS V0209999C000012200019N0112651N1-00301-00601999999ADDGF100991999999999999999999MA1102401999999REMMET066METAR LSMS 200350Z AUTO 00000KT 9999NDV NCD M03/M06 Q1024 RMK BLU;
0119067205999992011012004504+46217+007317AUTO +0482LSMS V0209999C000012200019N0112651N1-00301-00601999999ADDGF100991999999999999999999MA1102401999999REMMET066METAR LSMS 200450Z AUTO 00000KT 9999NDV NCD M03/M06 Q1024 RMK BLU;
0082067205999992011012005504+46217+007317FM-15+0482LSMS V0209999C000019999999Y0099001N1-00401-00701999999ADDMA1102401999999REMMET055METAR LSMS 200550Z 00000KT CAVOK M04/M07 Q1024 RMK BLU;
0080067205999992011012006504+46217+007317FM-15+0482LSMS V0209999C000019999999Y0099001N1-00401-00701999999ADDMA1102401999999REMMET053METAR LSMS 200650Z 00000KT CAVOK M04/M07 Q1024 NOSIG;
0128067205999992011012007504+46217+007317FM-15+0482LSMS V0209999V000512200019N0112651N1-00401-00601999999ADDGA1021+030001999GF102991999999999999999999MA1102401999999REMMET059METAR LSMS 200750Z VRB01KT 9999 FEW100 M04/M06 Q1024 NOSIG;
0151067205999992011012008504+46217+007317FM-15+0482LSMS V0209999C000012200019N0112651N1-00301-00701999999ADDGA1021+018001999GA2041+030001999GF104991999999999999999999MA1102401999999REMMET066METAR LSMS 200850Z 00000KT 9999 FEW060 SCT100 M03/M07 Q1024 NOSIG;
0151067205999992011012009504+46217+007317FM-15+0482LSMS V0200901N002112200019N0112651N1-00201-00601999999ADDGA1021+018001999GA2041+030001999GF104991999999999999999999MA1102401999999REMMET066METAR LSMS 200950Z 09004KT 9999 FEW060 SCT100 M02/M06 Q1024 NOSIG;
0150067205999992011012010504+46217+007317FM-15+0482LSMS V0201001N002112200019N0112651N1+00001-00701999999ADDGA1021+021001999GA2041+030001999GF104991999999999999999999MA1102301999999REMMET065METAR LSMS 201050Z 10004KT 9999 FEW070 SCT100 00/M07 Q1023 NOSIG;
0127067205999992011012011504+46217+007317FM-15+0482LSMS V0209999V001512200019N0112651N1+00201-00801999999ADDGA1041+024001999GF104991999999999999999999MA1102201999999REMMET058METAR LSMS 201150Z VRB03KT 9999 SCT080 02/M08 Q1022 NOSIG;
0158067205999992011012012504+46217+007317FM-15+0482LSMS V0202501N002112200019N0112651N1+00201-00801999999ADDGA1041+018001999GA2041+030001999GF104991999999999999999999MA1102101999999REMMET073METAR LSMS 201250Z 25004KT 190V300 9999 SCT060 SCT100 02/M08 Q1021 NOSIG;
0150067205999992011012013504+46217+007317FM-15+0482LSMS V0209999V001510300019N0112651N1+00201-00801999999ADDGA1041+018001999GA2071+030001999GF107991999999999999999999MA1102101999999REMMET065METAR LSMS 201350Z VRB03KT 9999 SCT060 BKN100 02/M08 Q1021 NOSIG;
0150067205999992011012014504+46217+007317FM-15+0482LSMS V0202601N006212200019N0112651N1+00201-00401999999ADDGA1041+021001999GA2041+030001999GF104991999999999999999999MA1102001999999REMMET065METAR LSMS 201450Z 26012KT 9999 SCT070 SCT100 02/M04 Q1020 NOSIG;
0127067205999992011012015504+46217+007317FM-15+0482LSMS V0202601N006212200019N0112651N1+00101-00401999999ADDGA1041+027001999GF104991999999999999999999MA1102101999999REMMET058METAR LSMS 201550Z 26012KT 9999 SCT090 01/M04 Q1021 NOSIG;
0128067205999992011012016504+46217+007317FM-15+0482LSMS V0202601N003112200019N0112651N1+00001-00401999999ADDGA1041+027001999GF104991999999999999999999MA1102101999999REMMET059METAR LSMS 201650Z 26006KT 9999 SCT090 M00/M04 Q1021 NOSIG;
0153067205999992011012017504+46217+007317FM-15+0482LSMS V0209999V001012200019N0112651N1+00001-00401999999ADDGA1041+021001999GA2041+024001999GF104991999999999999999999MA1102101999999REMMET068METAR LSMS 201750Z VRB02KT 9999 SCT073 SCT084 M00/M04 Q1021 RMK BLU;
0130067205999992011012018504+46217+007317FM-15+0482LSMS V0209999V001012200019N0112651N1-00101-00601999999ADDGA1041+024001999GF104991999999999999999999MA1102201999999REMMET061METAR LSMS 201850Z VRB02KT 9999 SCT080 M01/M06 Q1022 RMK BLU;
0130067205999992011012019504+46217+007317FM-15+0482LSMS V0201101N001012200019N0112651N1-00201-00601999999ADDGA1021+021001999GF102991999999999999999999MA1102201999999REMMET061METAR LSMS 201950Z 11002KT 9999 FEW070 M02/M06 Q1022 RMK BLU;
0119067205999992011012020504+46217+007317AUTO +0482LSMS V0209999V001012200019N0112651N1-00301-00601999999ADDGF100991999999999999999999MA1102201999999REMMET066METAR LSMS 202050Z AUTO VRB02KT 9999NDV NCD M03/M06 Q1022 RMK BLU;
0119067205999992011012021504+46217+007317AUTO +0482LSMS V0200801N001512200019N0112651N1-00301-00601999999ADDGF100991999999999999999999MA1102301999999REMMET066METAR LSMS 202150Z AUTO 08003KT 9999NDV NCD M03/M06 Q1023 RMK BLU;
0119067205999992011012022504+46217+007317AUTO +0482LSMS V0201001N001512200019N0112651N1-00301-00701999999ADDGF100991999999999999999999MA1102301999999REMMET066METAR LSMS 202250Z AUTO 10003KT 9999NDV NCD M03/M07 Q1023 RMK BLU;
0119067205999992011012023504+46217+007317AUTO +0482LSMS V0209999C000012200019N0112651N1-00401-00701999999ADDGF100991999999999999999999MA1102301999999REMMET066METAR LSMS 202350Z AUTO 00000KT 9999NDV NCD M04/M07 Q1023 RMK BLU;
0119067205999992011012100504+46217+007317AUTO +0482LSMS V0209999C000012200019N0112651N1-00401-00701999999ADDGF100991999999999999999999MA1102301999999REMMET066METAR LSMS 210050Z AUTO 00000KT 9999NDV NCD M04/M07 Q1023 RMK BLU;
0119067205999992011012101504+46217+007317AUTO +0482LSMS V0209999C000012200019N0112651N1-00501-00801999999ADDGF100991999999999999999999MA1102301999999REMMET066METAR LSMS 210150Z AUTO 00000KT 9999NDV NCD M05/M08 Q1023 RMK BLU;
0119067205999992011012102504+46217+007317AUTO +0482LSMS V0201201N001012200019N0112651N1-00501-00701999999ADDGF100991999999999999999999MA1102301999999REMMET066METAR LSMS 210250Z AUTO 12002KT 9999NDV NCD M05/M07 Q1023 RMK BLU;
0119067205999992011012103504+46217+007317AUTO +0482LSMS V0209999V001012200019N0112651N1-00501-00801999999ADDGF100991999999999999999999MA1102301999999REMMET066METAR LSMS 210350Z AUTO VRB02KT 9999NDV NCD M05/M08 Q1023 RMK BLU;
0119067205999992011012104504+46217+007317AUTO +0482LSMS V0209999V001012200019N0112651N1-00501-00701999999ADDGF100991999999999999999999MA1102401999999REMMET066METAR LSMS 210450Z AUTO VRB02KT 9999NDV NCD M05/M07 Q1024 RMK BLU;
0082067205999992011012105504+46217+007317FM-15+0482LSMS V0209999V001019999999Y0099001N1-00501-00801999999ADDMA1102401999999REMMET055METAR LSMS 210550Z VRB02KT CAVOK M05/M08 Q1024 RMK BLU;
0128067205999992011012106504+46217+007317FM-15+0482LSMS V0200901N001512200019N0112651N1-00601-00801999999ADDGA1021+015001999GF102991999999999999999999MA1102401999999REMMET059METAR LSMS 210650Z 09003KT 9999 FEW050 M06/M08 Q1024 NOSIG;
0128067205999992011012108504+46217+007317FM-15+0482LSMS V0200801N001012200019N0112651N1-00501-00801999999ADDGA1021+015001999GF102991999999999999999999MA1102511999999REMMET059METAR LSMS 210850Z 08002KT 9999 FEW050 M05/M08 Q1025 NOSIG;
0128067205999992011012109504+46217+007317FM-15+0482LSMS V0200901N002112200019N0112651N1-00401-00801999999ADDGA1021+015001999GF102991999999999999999999MA1102401999999REMMET059METAR LSMS 210950Z 09004KT 9999 FEW050 M04/M08 Q1024 NOSIG;
0128067205999992011012110504+46217+007317FM-15+0482LSMS V0209999V001012200019N0112651N1-00201-00701999999ADDGA1021+015001999GF102991999999999999999999MA1102401999999REMMET059METAR LSMS 211050Z VRB02KT 9999 FEW050 M02/M07 Q1024 NOSIG;
0127067205999992011012111504+46217+007317FM-15+0482LSMS V0209999V001012200019N0112651N1+00001-00901999999ADDGA1021+021001999GF102991999999999999999999MA1102301999999REMMET058METAR LSMS 211150Z VRB02KT 9999 FEW070 00/M09 Q1023 NOSIG;
0135067205999992011012112504+46217+007317FM-15+0482LSMS V0202101N001512200019N0112651N1+00101-01001999999ADDGA1021+021001999GF102991999999999999999999MA1102201999999REMMET066METAR LSMS 211250Z 21003KT 170V250 9999 FEW070 01/M10 Q1022 NOSIG;
0135067205999992011012113504+46217+007317FM-15+0482LSMS V0202401N002112200019N0112651N1+00201-00901999999ADDGA1021+021001999GF102991999999999999999999MA1102201999999REMMET066METAR LSMS 211350Z 24004KT 200V300 9999 FEW070 02/M09 Q1022 NOSIG;
0135067205999992011012114504+46217+007317FM-15+0482LSMS V0202401N002612200019N0112651N1+00201-01001999999ADDGA1021+021001999GF102991999999999999999999MA1102101999999REMMET066METAR LSMS 211450Z 24005KT 190V270 9999 FEW070 02/M10 Q1021 NOSIG;
0127067205999992011012115504+46217+007317FM-15+0482LSMS V0209999V001012200019N0112651N1+00101-01001999999ADDGA1021+024001999GF102991999999999999999999MA1102101999999REMMET058METAR LSMS 211550Z VRB02KT 9999 FEW080 01/M10 Q1021 NOSIG;
0080067205999992011012118504+46217+007317FM-15+0482LSMS V0201001N001519999999Y0099001N1-00201-00901999999ADDMA1102301999999REMMET053METAR LSMS 211850Z 10003KT CAVOK M02/M09 Q1023 NOSIG;
0119067205999992011012119504+46217+007317AUTO +0482LSMS V0209999C000012200019N0112651N1-00301-01001999999ADDGF100991999999999999999999MA1102301999999REMMET066METAR LSMS 211950Z AUTO 00000KT 9999NDV NCD M03/M10 Q1023 RMK BLU;
0119067205999992011012120504+46217+007317AUTO +0482LSMS V0209999C000012200019N0112651N1-00401-00901999999ADDGF100991999999999999999999MA1102401999999REMMET066METAR LSMS 212050Z AUTO 00000KT 9999NDV NCD M04/M09 Q1024 RMK BLU;
0119067205999992011012121504+46217+007317AUTO +0482LSMS V0209999C000012200019N0112651N1-00401-00901999999ADDGF100991999999999999999999MA1102401999999REMMET066METAR LSMS 212150Z AUTO 00000KT 9999NDV NCD M04/M09 Q1024 RMK BLU;
0119067205999992011012122504+46217+007317AUTO +0482LSMS V0200701N000512200019N0112651N1-00501-00901999999ADDGF100991999999999999999999MA1102401999999REMMET066METAR LSMS 212250Z AUTO 07001KT 9999NDV NCD M05/M09 Q1024 RMK BLU;
0119067205999992011012123504+46217+007317AUTO +0482LSMS V0209999C000012200019N0112651N1-00501-01001999999ADDGF100991999999999999999999MA1102401999999REMMET066METAR LSMS 212350Z AUTO 00000KT 9999NDV NCD M05/M10 Q1024 RMK BLU;
0119067205999992011012200504+46217+007317AUTO +0482LSMS V0201001N001512200019N0112651N1-00501-01001999999ADDGF100991999999999999999999MA1102401999999REMMET066METAR LSMS 220050Z AUTO 10003KT 9999NDV NCD M05/M10 Q1024 RMK BLU;
0119067205999992011012201504+46217+007317AUTO +0482LSMS V0209999C000012200019N0112651N1-00601-01001999999ADDGF100991999999999999999999MA1102301999999REMMET066METAR LSMS 220150Z AUTO 00000KT 9999NDV NCD M06/M10 Q1023 RMK BLU;
0119067205999992011012202504+46217+007317AUTO +0482LSMS V0209999V001012200019N0112651N1-00601-00901999999ADDGF100991999999999999999999MA1102301999999REMMET066METAR LSMS 220250Z AUTO VRB02KT 9999NDV NCD M06/M09 Q1023 RMK BLU;
0119067205999992011012203504+46217+007317AUTO +0482LSMS V0209999C000012200019N0112651N1-00601-01001999999ADDGF100991999999999999999999MA1102301999999REMMET066METAR LSMS 220350Z AUTO 00000KT 9999NDV NCD M06/M10 Q1023 RMK BLU;
0119067205999992011012204504+46217+007317AUTO +0482LSMS V0209999V001012200019N0112651N1-00701-01001999999ADDGF100991999999999999999999MA1102301999999REMMET066METAR LSMS 220450Z AUTO VRB02KT 9999NDV NCD M07/M10 Q1023 RMK BLU;
0119067205999992011012205504+46217+007317AUTO +0482LSMS V0209999C000012200019N0112651N1-00701-01001999999ADDGF100991999999999999999999MA1102301999999REMMET066METAR LSMS 220550Z AUTO 00000KT 9999NDV NCD M07/M10 Q1023 RMK BLU;
0080067205999992011012207504+46217+007317FM-15+0482LSMS V0200901N002119999999Y0099001N1-00701-01001999999ADDMA1102301999999REMMET053METAR LSMS 220750Z 09004KT CAVOK M07/M10 Q1023 NOSIG;
0080067205999992011012208504+46217+007317FM-15+0482LSMS V0200901N002119999999Y0099001N1-00701-00901999999ADDMA1102301999999REMMET053METAR LSMS 220850Z 09004KT CAVOK M07/M09 Q1023 NOSIG;
0080067205999992011012209504+46217+007317FM-15+0482LSMS V0209999V000519999999Y0099001N1-00701-01001999999ADDMA1102301999999REMMET053METAR LSMS 220950Z VRB01KT CAVOK M07/M10 Q1023 NOSIG;
0080067205999992011012210504+46217+007317FM-15+0482LSMS V0209999V000519999999Y0099001N1-00301-01001999999ADDMA1102201999999REMMET053METAR LSMS 221050Z VRB01KT CAVOK M03/M10 Q1022 NOSIG;
0080067205999992011012211504+46217+007317FM-15+0482LSMS V0202601N002119999999Y0099001N1-00201-00901999999ADDMA1102201999999REMMET053METAR LSMS 221150Z 26004KT CAVOK M02/M09 Q1022 NOSIG;
0088067205999992011012212504+46217+007317FM-15+0482LSMS V0202401N002619999999Y0099001N1-00101-01001999999ADDMA1102001999999REMMET061METAR LSMS 221250Z 24005KT 210V280 CAVOK M01/M10 Q1020 NOSIG;
0088067205999992011012213504+46217+007317FM-15+0482LSMS V0202501N002119999999Y0099001N1+00001-01001999999ADDMA1102001999999REMMET061METAR LSMS 221350Z 25004KT 210V280 CAVOK M00/M10 Q1020 NOSIG;
0088067205999992011012215504+46217+007317FM-15+0482LSMS V0202301N003619999999Y0099001N1+00001-00801999999ADDMA1102001999999REMMET061METAR LSMS 221550Z 23007KT 200V260 CAVOK M00/M08 Q1020 NOSIG;
0119067205999992011012217504+46217+007317AUTO +0482LSMS V0209999V000512200019N0112651N1-00201-00801999999ADDGF100991999999999999999999MA1102101999999REMMET066METAR LSMS 221750Z AUTO VRB01KT 9999NDV NCD M02/M08 Q1021 RMK BLU;
0119067205999992011012218504+46217+007317AUTO +0482LSMS V0209999C000012200019N0112651N1-00301-00901999999ADDGF100991999999999999999999MA1102101999999REMMET066METAR LSMS 221850Z AUTO 00000KT 9999NDV NCD M03/M09 Q1021 RMK BLU;
0119067205999992011012219504+46217+007317AUTO +0482LSMS V0200901N002612200019N0112651N1-00401-00901999999ADDGF100991999999999999999999MA1102101999999REMMET066METAR LSMS 221950Z AUTO 09005KT 9999NDV NCD M04/M09 Q1021 RMK BLU;
0127067205999992011012220504+46217+007317AUTO +0482LSMS V0201001N001512200019N0112651N1-00401-01001999999ADDGF100991999999999999999999MA1102201999999REMMET074METAR LSMS 222050Z AUTO 10003KT 080V140 9999NDV NCD M04/M10 Q1022 RMK BLU;
0119067205999992011012221504+46217+007317AUTO +0482LSMS V0201201N001512200019N0112651N1-00501-01001999999ADDGF100991999999999999999999MA1102201999999REMMET066METAR LSMS 222150Z AUTO 12003KT 9999NDV NCD M05/M10 Q1022 RMK BLU;
0119067205999992011012222504+46217+007317AUTO +0482LSMS V0209999V001012200019N0112651N1-00601-01001999999ADDGF100991999999999999999999MA1102201999999REMMET066METAR LSMS 222250Z AUTO VRB02KT 9999NDV NCD M06/M10 Q1022 RMK BLU;
0119067205999992011012223504+46217+007317AUTO +0482LSMS V0200901N002112200019N0112651N1-00601-01101999999ADDGF100991999999999999999999MA1102201999999REMMET066METAR LSMS 222350Z AUTO 09004KT 9999NDV NCD M06/M11 Q1022 RMK BLU;
0119067205999992011012300504+46217+007317AUTO +0482LSMS V0200501N001012200019N0112651N1-00601-01101999999ADDGF100991999999999999999999MA1102101999999REMMET066METAR LSMS 230050Z AUTO 05002KT 9999NDV NCD M06/M11 Q1021 RMK BLU;
0119067205999992011012301504+46217+007317AUTO +0482LSMS V0209999V000512200019N0112651N1-00701-01101999999ADDGF100991999999999999999999MA1102101999999REMMET066METAR LSMS 230150Z AUTO VRB01KT 9999NDV NCD M07/M11 Q1021 RMK BLU;
0119067205999992011012302504+46217+007317AUTO +0482LSMS V0209999V001012200019N0112651N1-00701-01101999999ADDGF100991999999999999999999MA1102101999999REMMET066METAR LSMS 230250Z AUTO VRB02KT 9999NDV NCD M07/M11 Q1021 RMK BLU;
0119067205999992011012303504+46217+007317AUTO +0482LSMS V0209999C000012200019N0112651N1-00801-01101999999ADDGF100991999999999999999999MA1102101999999REMMET066METAR LSMS 230350Z AUTO 00000KT 9999NDV NCD M08/M11 Q1021 RMK BLU;
0119067205999992011012304504+46217+007317AUTO +0482LSMS V0209999C000012200019N0112651N1-00801-01101999999ADDGF100991999999999999999999MA1102101999999REMMET066METAR LSMS 230450Z AUTO 00000KT 9999NDV NCD M08/M11 Q1021 RMK BLU;
0119067205999992011012305504+46217+007317AUTO +0482LSMS V0201201N001512200019N0112651N1-00801-01001999999ADDGF100991999999999999999999MA1102101999999REMMET066METAR LSMS 230550Z AUTO 12003KT 9999NDV NCD M08/M10 Q1021 RMK BLU;
0080067205999992011012306504+46217+007317FM-15+0482LSMS V0209999V000519999999Y0099001N1-00801-01101999999ADDMA1102201999999REMMET053METAR LSMS 230650Z VRB01KT CAVOK M08/M11 Q1022 NOSIG;
0080067205999992011012307504+46217+007317FM-15+0482LSMS V0209999V000519999999Y0099001N1-00901-01101999999ADDMA1102201999999REMMET053METAR LSMS 230750Z VRB01KT CAVOK M09/M11 Q1022 NOSIG;
0080067205999992011012308504+46217+007317FM-15+0482LSMS V0209999V000519999999Y0099001N1-00801-01001999999ADDMA1102201999999REMMET053METAR LSMS 230850Z VRB01KT CAVOK M08/M10 Q1022 NOSIG;
0080067205999992011012309504+46217+007317FM-15+0482LSMS V0209999V001019999999Y0099001N1-00701-01001999999ADDMA1102201999999REMMET053METAR LSMS 230950Z VRB02KT CAVOK M07/M10 Q1022 NOSIG;
0088067205999992011012311504+46217+007317FM-15+0482LSMS V0202401N002119999999Y0099001N1-00301-01001999999ADDMA1102101999999REMMET061METAR LSMS 231150Z 24004KT 200V280 CAVOK M03/M10 Q1021 NOSIG;
0088067205999992011012312504+46217+007317FM-15+0482LSMS V0202501N002119999999Y0099001N1-00101-00901999999ADDMA1102001999999REMMET061METAR LSMS 231250Z 25004KT 210V290 CAVOK M01/M09 Q1020 NOSIG;
0088067205999992011012313504+46217+007317FM-15+0482LSMS V0202301N002119999999Y0099001N1-00101-01001999999ADDMA1102001999999REMMET061METAR LSMS 231350Z 23004KT 190V270 CAVOK M01/M10 Q1020 NOSIG;
0088067205999992011012314504+46217+007317FM-15+0482LSMS V0202301N002619999999Y0099001N1+00001-00901999999ADDMA1102001999999REMMET061METAR LSMS 231450Z 23005KT 180V270 CAVOK M00/M09 Q1020 NOSIG;
0080067205999992011012318504+46217+007317FM-15+0482LSMS V0201101N001019999999Y0099001N1-00401-00901999999ADDMA1102201999999REMMET053METAR LSMS 231850Z 11002KT CAVOK M04/M09 Q1022 NOSIG;
0119067205999992011012319504+46217+007317AUTO +0482LSMS V0200901N001512200019N0112651N1-00501-00901999999ADDGF100991999999999999999999MA1102301999999REMMET066METAR LSMS 231950Z AUTO 09003KT 9999NDV NCD M05/M09 Q1023 RMK BLU;
0119067205999992011012320504+46217+007317AUTO +0482LSMS V0200701N001512200019N0112651N1-00501-00901999999ADDGF100991999999999999999999MA1102301999999REMMET066METAR LSMS 232050Z AUTO 07003KT 9999NDV NCD M05/M09 Q1023 RMK BLU;
0119067205999992011012321504+46217+007317AUTO +0482LSMS V0209999V000512200019N0112651N1-00501-00901999999ADDGF100991999999999999999999MA1102301999999REMMET066METAR LSMS 232150Z AUTO VRB01KT 9999NDV NCD M05/M09 Q1023 RMK BLU;
0119067205999992011012322504+46217+007317AUTO +0482LSMS V0209999C000012200019N0112651N1-00601-00901999999ADDGF100991999999999999999999MA1102301999999REMMET066METAR LSMS 232250Z AUTO 00000KT 9999NDV NCD M06/M09 Q1023 RMK BLU;
0119067205999992011012323504+46217+007317AUTO +0482LSMS V0209999C000012200019N0112651N1-00701-00901999999ADDGF100991999999999999999999MA1102301999999REMMET066METAR LSMS 232350Z AUTO 00000KT 9999NDV NCD M07/M09 Q1023 RMK BLU;
0119067205999992011012400504+46217+007317AUTO +0482LSMS V0209999V000512200019N0112651N1-00701-01001999999ADDGF100991999999999999999999MA1102301999999REMMET066METAR LSMS 240050Z AUTO VRB01KT 9999NDV NCD M07/M10 Q1023 RMK BLU;
0119067205999992011012401504+46217+007317AUTO +0482LSMS V0201001N001512200019N0112651N1-00701-00901999999ADDGF100991999999999999999999MA1102301999999REMMET066METAR LSMS 240150Z AUTO 10003KT 9999NDV NCD M07/M09 Q1023 RMK BLU;
0119067205999992011012402504+46217+007317AUTO +0482LSMS V0200801N001512200019N0112651N1-00701-00901999999ADDGF100991999999999999999999MA1102301999999REMMET066METAR LSMS 240250Z AUTO 08003KT 9999NDV NCD M07/M09 Q1023 RMK BLU;
0119067205999992011012403504+46217+007317AUTO +0482LSMS V0209999C000012200019N0112651N1-00801-01001999999ADDGF100991999999999999999999MA1102401999999REMMET066METAR LSMS 240350Z AUTO 00000KT 9999NDV NCD M08/M10 Q1024 RMK BLU;
0138067205999992011012404504+46217+007317AUTO +0482LSMS V0209999C000012200019N0090001N1-00801-01001999999ADDGA1021+051001999GF102991999999999999999999MA1102401999999REMMET069METAR LSMS 240450Z AUTO 00000KT 9000NDV FEW170 M08/M10 Q1024 RMK BLU;
0111067205999992011012405504+46217+007317FM-15+0482LSMS V0209999C000012200019N0080001N1-00801-01001999999ADDGF100991999999999999999999MA1102401999999REMMET058METAR LSMS 240550Z 00000KT 8000 NSC M08/M10 Q1024 RMK BLU;
0080067205999992011012406504+46217+007317FM-15+0482LSMS V0200901N001519999999Y0099001N1-00801-01001999999ADDMA1102511999999REMMET053METAR LSMS 240650Z 09003KT CAVOK M08/M10 Q1025 NOSIG;
0128067205999992011012411504+46217+007317FM-15+0482LSMS V0209999V001012200019N0112651N1-00201-00901999999ADDGA1021+033001999GF102991999999999999999999MA1102301999999REMMET059METAR LSMS 241150Z VRB02KT 9999 FEW110 M02/M09 Q1023 NOSIG;
0136067205999992011012412504+46217+007317FM-15+0482LSMS V0202201N001512200019N0112651N1-00101-00901999999ADDGA1041+033001999GF104991999999999999999999MA1102201999999REMMET067METAR LSMS 241250Z 22003KT 170V250 9999 SCT110 M01/M09 Q1022 NOSIG;
0079067205999992011012415504+46217+007317FM-15+0482LSMS V0209999V001019999999Y0099001N1+00101-01001999999ADDMA1102101999999REMMET052METAR LSMS 241550Z VRB02KT CAVOK 01/M10 Q1021 NOSIG;
0080067205999992011012416504+46217+007317FM-15+0482LSMS V0209999V000519999999Y0099001N1-00201-00801999999ADDMA1102101999999REMMET053METAR LSMS 241650Z VRB01KT CAVOK M02/M08 Q1021 NOSIG;
0082067205999992011012417504+46217+007317FM-15+0482LSMS V0209999C000019999999Y0099001N1-00301-00801999999ADDMA1102101999999REMMET055METAR LSMS 241750Z 00000KT CAVOK M03/M08 Q1021 RMK BLU;
0090067205999992011012418504+46217+007317FM-15+0482LSMS V0200701N001519999999Y0099001N1-00401-00901999999ADDMA1102201999999REMMET063METAR LSMS 241850Z 07003KT 040V100 CAVOK M04/M09 Q1022 RMK BLU;
0082067205999992011012419504+46217+007317FM-15+0482LSMS V0200901N002619999999Y0099001N1-00301-00801999999ADDMA1102201999999REMMET055METAR LSMS 241950Z 09005KT CAVOK M03/M08 Q1022 RMK BLU;
0119067205999992011012420504+46217+007317AUTO +0482LSMS V0200801N002112200019N0112651N1-00501-00901999999ADDGF100991999999999999999999MA1102201999999REMMET066METAR LSMS 242050Z AUTO 08004KT 9999NDV NCD M05/M09 Q1022 RMK BLU;
0119067205999992011012421504+46217+007317AUTO +0482LSMS V0200901N002112200019N0112651N1-00401-00901999999ADDGF100991999999999999999999MA1102201999999REMMET066METAR LSMS 242150Z AUTO 09004KT 9999NDV NCD M04/M09 Q1022 RMK BLU;
0119067205999992011012422504+46217+007317AUTO +0482LSMS V0200601N002112200019N0112651N1-00501-00901999999ADDGF100991999999999999999999MA1102101999999REMMET066METAR LSMS 242250Z AUTO 06004KT 9999NDV NCD M05/M09 Q1021 RMK BLU;
0119067205999992011012423504+46217+007317AUTO +0482LSMS V0201001N001012200019N0112651N1-00601-01001999999ADDGF100991999999999999999999MA1102101999999REMMET066METAR LSMS 242350Z AUTO 10002KT 9999NDV NCD M06/M10 Q1021 RMK BLU;
0119067205999992011012500504+46217+007317AUTO +0482LSMS V0209999C000012200019N0090001N1-00601-00901999999ADDGF100991999999999999999999MA1102101999999REMMET066METAR LSMS 250050Z AUTO 00000KT 9000NDV NCD M06/M09 Q1021 RMK BLU;
0119067205999992011012501504+46217+007317AUTO +0482LSMS V0209999C000012200019N0080001N1-00801-01001999999ADDGF100991999999999999999999MA1102101999999REMMET066METAR LSMS 250150Z AUTO 00000KT 8000NDV NCD M08/M10 Q1021 RMK BLU;
0119067205999992011012502504+46217+007317AUTO +0482LSMS V0209999V000512200019N0112651N1-00701-01001999999ADDGF100991999999999999999999MA1102101999999REMMET066METAR LSMS 250250Z AUTO VRB01KT 9999NDV NCD M07/M10 Q1021 RMK BLU;
0119067205999992011012503504+46217+007317AUTO +0482LSMS V0209999V000512200019N0080001N1-00801-00901999999ADDGF100991999999999999999999MA1102101999999REMMET066METAR LSMS 250350Z AUTO VRB01KT 8000NDV NCD M08/M09 Q1021 RMK BLU;
0119067205999992011012504504+46217+007317AUTO +0482LSMS V0200701N001512200019N0090001N1-00801-01001999999ADDGF100991999999999999999999MA1102001999999REMMET066METAR LSMS 250450Z AUTO 07003KT 9000NDV NCD M08/M10 Q1020 RMK BLU;
0082067205999992011012505504+46217+007317FM-15+0482LSMS V0200901N002119999999Y0099001N1-00701-00901999999ADDMA1102101999999REMMET055METAR LSMS 250550Z 09004KT CAVOK M07/M09 Q1021 RMK BLU;
0136067205999992011012507504+46217+007317FM-15+0482LSMS V0200801N002110300019N0112651N1-00601-00901999999ADDGA1071+030001999GF107991999999999999999999MA1102101999999REMMET067METAR LSMS 250750Z 08004KT 050V120 9999 BKN100 M06/M09 Q1021 NOSIG;
0128067205999992011012508504+46217+007317FM-15+0482LSMS V0209999V000512200019N0112651N1-00601-00901999999ADDGA1041+030001999GF104991999999999999999999MA1102101999999REMMET059METAR LSMS 250850Z VRB01KT 9999 SCT100 M06/M09 Q1021 NOSIG;
0087067205999992011012512504+46217+007317FM-15+0482LSMS V0202401N001519999999Y0099001N1+00101-00901999999ADDMA1101691999999REMMET060METAR LSMS 251250Z 24003KT 180V290 CAVOK 01/M09 Q1017 NOSIG;
0087067205999992011012513504+46217+007317FM-15+0482LSMS V0202501N002119999999Y0099001N1+00101-00901999999ADDMA1101591999999REMMET060METAR LSMS 251350Z 25004KT 210V280 CAVOK 01/M09 Q1016 NOSIG;
0087067205999992011012514504+46217+007317FM-15+0482LSMS V0202401N002119999999Y0099001N1+00201-00901999999ADDMA1101591999999REMMET060METAR LSMS 251450Z 24004KT 170V260 CAVOK 02/M09 Q1016 NOSIG;
0079067205999992011012515504+46217+007317FM-15+0482LSMS V0201901N001019999999Y0099001N1+00101-00801999999ADDMA1101591999999REMMET052METAR LSMS 251550Z 19002KT CAVOK 01/M08 Q1016 NOSIG;
0080067205999992011012517504+46217+007317FM-15+0482LSMS V0209999V001019999999Y0099001N1-00101-00601999999ADDMA1101491999999REMMET053METAR LSMS 251750Z VRB02KT CAVOK M01/M06 Q1015 NOSIG;
