0137067240999992010010100004+46300+007467FM-12+150899999V0200401N001019999999N9999999N1-00081-00201999999ADDMA1999999083401MD1710101+9999ME1312769OA149900411REMSYN076AAXX  01004 06724 33/// /0402 11008 21020 38340 48276 57010 333 91108 91205;
0137067240999992010010101004+46300+007467FM-12+150899999V0200601N002119999999N9999999N1-00111-00221999999ADDMA1999999083321MD1710161+9999ME1312699OA149900361REMSYN076AAXX  01014 06724 33/// /0604 11011 21022 38332 48269 57016 333 91107 91205;
0137067240999992010010102004+46300+007467FM-12+150899999V0200301N001019999999N9999999N1-00121-00231999999ADDMA1999999083291MD1719999+9999ME1312669OA149900361REMSYN076AAXX  01024 06724 33/// /0302 11012 21023 38329 48266 57/// 333 91107 91205;
0096067240999992010010103004+46300+007467FM-12+150899999V0200401N001519999999N9999999N1-00101-00321999999ADDMA1999999083241ME1312619REMSYN060AAXX  01034 06724 43/// /0403 11010 21032 38324 48261 5////;
0096067240999992010010104004+46300+007467FM-12+150899999V0200401N002619999999N9999999N1-00131-00271999999ADDMA1999999083181ME1312559REMSYN060AAXX  01044 06724 33/// /0405 11013 21027 38318 48255 5////;
0137067240999992010010105004+46300+007467FM-12+150899999V0200101N001019999999N9999999N1-00161-00281999999ADDMA1999999083151MD1810141+9999ME1312539OA149900361REMSYN076AAXX  01054 06724 33/// /0102 11016 21028 38315 48253 58014 333 91107 91205;
0215067240999992010010106004+46300+007467FM-12+150899999V0200201N001019999999N9999999N1-00151-00301999999ADDAA124006991AL14800691GJ100549IA2999-00409KA1999N-00191MA1999999083131MD1610111+9999ME1312519OA149900411REMSYN100AAXX  01064 06724 33/// /0202 11015 21030 38313 48251 56011 333 21019 3/104 55009 70069 91108 91205;
0137067240999992010010107004+46300+007467FM-12+150899999V0200501N002119999999N9999999N1-00091-00361999999ADDMA1999999083111MD1610071+9999ME1312489OA149900311REMSYN076AAXX  01074 06724 33/// /0504 11009 21036 38311 48248 56007 333 91106 91204;
0137067240999992010010108004+46300+007467FM-12+150899999V0209999C000019999999N9999999N1-00111-00271999999ADDMA1999999083171MD1310021+9999ME1312549OA149900311REMSYN076AAXX  01084 06724 33/// /0000 11011 21027 38317 48254 53002 333 91106 91204;
0137067240999992010010109004+46300+007467FM-12+150899999V0209999C000019999999N9999999N1-00051-00241999999ADDMA1999999083221MD1210091+9999ME1312599OA149900361REMSYN076AAXX  01094 06724 33/// /0000 11005 21024 38322 48259 52009 333 91107 91205;
0137067240999992010010110004+46300+007467FM-12+150899999V0203001N001019999999N9999999N1-00031-00261999999ADDMA1999999083271MD1110161+9999ME1312639OA149900151REMSYN076AAXX  01104 06724 33/// /3002 11003 21026 38327 48263 51016 333 91103 91202;
0137067240999992010010111004+46300+007467FM-12+150899999V0202701N001019999999N9999999N1+00071-00331999999ADDMA1999999083271MD1210101+9999ME1312639OA149900151REMSYN076AAXX  01114 06724 33/// /2702 10007 21033 38327 48263 52010 333 91103 91202;
0137067240999992010010112004+46300+007467FM-12+150899999V0203001N001019999999N9999999N1+00111-00301999999ADDMA1999999083271MD1210051+9999ME1312639OA149900361REMSYN076AAXX  01124 06724 33/// /3002 10011 21030 38327 48263 52005 333 91107 91205;
0137067240999992010010113004+46300+007467FM-12+150899999V0202601N001019999999N9999999N1+00081-00351999999ADDMA1999999083281MD1210011+9999ME1312649OA149900151REMSYN076AAXX  01134 06724 33/// /2602 10008 21035 38328 48264 52001 333 91103 91202;
0137067240999992010010114004+46300+007467FM-12+150899999V0202901N001019999999N9999999N1+00021-00081999999ADDMA1999999083361MD1319999+9999ME1312729OA149900211REMSYN076AAXX  01144 06724 33/// /2902 10002 21008 38336 48272 53/// 333 91104 91203;
0137067240999992010010115004+46300+007467FM-12+150899999V0202801N001019999999N9999999N1-00031-00161999999ADDMA1999999083451MD1310181+9999ME1312819OA149900261REMSYN076AAXX  01154 06724 33/// /2802 11003 21016 38345 48281 53018 333 91105 91203;
0154067240999992010010116004+46300+007467FM-12+150899999V0202501N001019999999N9999999N1-00121-00121999999ADDAA101000021MA1999999083541MD1210261+9999ME1312909OA149900261REMSYN082AAXX  01164 06724 23/// /2502 11012 21012 38354 48290 52026 333 69925 91105 91203;
0154067240999992010010117004+46300+007467FM-12+150899999V0202601N001019999999N9999999N1-00151-00151999999ADDAA101000021MA1999999083651MD1310291+9999ME1313019OA149900261REMSYN082AAXX  01174 06724 23/// /2602 11015 21015 38365 48301 53029 333 69915 91105 91203;
0179067240999992010010118004+46300+007467FM-12+150899999V0202501N002119999999N9999999N1-00131-00151999999ADDAA112000591KA1120M+00111MA1999999083811MD1310361+9999ME1313169OA149900511REMSYN094AAXX  01184 06724 03/// /2504 11013 21015 38381 48316 53036 69942 333 10011 69915 91110 91206;
0137067240999992010010119004+46300+007467FM-12+150899999V0202601N002619999999N9999999N1-00131-00291999999ADDMA1999999083941MD1310401+9999ME1313289OA149900511REMSYN076AAXX  01194 06724 33/// /2605 11013 21029 38394 48328 53040 333 91110 91206;
0137067240999992010010120004+46300+007467FM-12+150899999V0202701N001519999999N9999999N1-00171-00271999999ADDMA1999999084031MD1110381+9999ME1313379OA149900511REMSYN076AAXX  01204 06724 33/// /2703 11017 21027 38403 48337 51038 333 91110 91205;
0137067240999992010010121004+46300+007467FM-12+150899999V0202901N001019999999N9999999N1-00211-00251999999ADDMA1999999084121MD1110311+9999ME1313469OA149900511REMSYN076AAXX  01214 06724 33/// /2902 11021 21025 38412 48346 51031 333 91110 91206;
0137067240999992010010122004+46300+007467FM-12+150899999V0203101N001019999999N9999999N1-00251-00381999999ADDMA1999999084171MD1110231+9999ME1313509OA149900461REMSYN076AAXX  01224 06724 33/// /3102 11025 21038 38417 48350 51023 333 91109 91204;
0137067240999992010010123004+46300+007467FM-12+150899999V0202601N001019999999N9999999N1-00281-00431999999ADDMA1999999084191MD1210161+9999ME1313529OA149900361REMSYN076AAXX  01234 06724 33/// /2602 11028 21043 38419 48352 52016 333 91107 91203;
0137067240999992010010200004+46300+007467FM-12+150899999V0202601N001519999999N9999999N1-00301-00541999999ADDMA1999999084231MD1210111+9999ME1313569OA149900511REMSYN076AAXX  02004 06724 33/// /2603 11030 21054 38423 48356 52011 333 91110 91206;
0137067240999992010010201004+46300+007467FM-12+150899999V0202501N003119999999N9999999N1-00351-00581999999ADDMA1999999084291MD1210121+9999ME1313629OA149900621REMSYN076AAXX  02014 06724 33/// /2506 11035 21058 38429 48362 52012 333 91112 91206;
0096067240999992010010202004+46300+007467FM-12+150899999V0202701N001019999999N9999999N1-00431-00661999999ADDMA1999999084391ME1313729REMSYN060AAXX  02024 06724 33/// /2702 11043 21066 38439 48372 5////;
0137067240999992010010203004+46300+007467FM-12+150899999V0202601N001519999999N9999999N1-00481-00741999999ADDMA1999999084491MD1310261+9999ME1313819OA149900771REMSYN076AAXX  02034 06724 33/// /2603 11048 21074 38449 48381 53026 333 91115 91206;
0137067240999992010010204004+46300+007467FM-12+150899999V0202201N001519999999N9999999N1-00541-00861999999ADDMA1999999084531MD1110241+9999ME1313859OA149900511REMSYN076AAXX  02044 06724 33/// /2203 11054 21086 38453 48385 51024 333 91110 91204;
0137067240999992010010205004+46300+007467FM-12+150899999V0202401N002119999999N9999999N1-00601-00931999999ADDMA1999999084581MD1110191+9999ME1313909OA149900571REMSYN076AAXX  02054 06724 33/// /2404 11060 21093 38458 48390 51019 333 91111 91205;
0215067240999992010010206004+46300+007467FM-12+150899999V0202701N001019999999N9999999N1-00641-01071999999ADDAA124000591AL12400091GJ100369IA2999-00709KA1999N-00611MA1999999084621MD1110131+9999ME1313939OA149900771REMSYN100AAXX  02064 06724 33/// /2702 11064 21107 38462 48393 51013 333 21061 3/107 55006 70004 91115 91206;
0137067240999992010010207004+46300+007467FM-12+150899999V0203301N001519999999N9999999N1-00641-01381999999ADDMA1999999084721MD1310191+9999ME1314039OA149900721REMSYN076AAXX  02074 06724 33/// /3303 11064 21138 38472 48403 53019 333 91114 91207;
0096067240999992010010208004+46300+007467FM-12+150899999V0203501N004119999999N9999999N1-00691-01541999999ADDMA1999999084751ME1314059REMSYN060AAXX  02084 06724 33/// /3508 11069 21154 38475 48405 5////;
0137067240999992010010209004+46300+007467FM-12+150899999V0203401N002619999999N9999999N1-00701-01641999999ADDMA1999999084851MD1110231+9999ME1314159OA149901031REMSYN076AAXX  02094 06724 33/// /3405 11070 21164 38485 48415 51023 333 91120 91209;
0137067240999992010010210004+46300+007467FM-12+150899999V0201101N000519999999N9999999N1-00661-01281999999ADDMA1999999084951MD1310231+9999ME1314249OA149900931REMSYN076AAXX  02104 06724 33/// /1101 11066 21128 38495 48424 53023 333 91118 91208;
0137067240999992010010211004+46300+007467FM-12+150899999V0209999C002619999999N9999999N1-00621-01841999999ADDMA1999999084991MD1210241+9999ME1314289OA149900821REMSYN076AAXX  02114 06724 33/// /0005 11062 21184 38499 48428 52024 333 91116 91208;
0137067240999992010010212004+46300+007467FM-12+150899999V0200701N001519999999N9999999N1-00621-01821999999ADDMA1999999085051MD1210201+9999ME1314339OA149901031REMSYN076AAXX  02124 06724 33/// /0703 11062 21182 38505 48433 52020 333 91120 91209;
0137067240999992010010213004+46300+007467FM-12+150899999V0200201N001019999999N9999999N1-00681-01811999999ADDMA1999999085121MD1210171+9999ME1314409OA149900621REMSYN076AAXX  02134 06724 33/// /0202 11068 21181 38512 48440 52017 333 91112 91205;
0137067240999992010010214004+46300+007467FM-12+150899999V0209999C000019999999N9999999N1-00691-02111999999ADDMA1999999085181MD1219999+9999ME1314459OA149900621REMSYN076AAXX  02144 06724 33/// /0000 11069 21211 38518 48445 52/// 333 91112 91205;
0137067240999992010010215004+46300+007467FM-12+150899999V0203101N001519999999N9999999N1-00741-02351999999ADDMA1999999085271MD1310221+9999ME1314539OA149900821REMSYN076AAXX  02154 06724 33/// /3103 11074 21235 38527 48453 53022 333 91116 91208;
0137067240999992010010216004+46300+007467FM-12+150899999V0203101N002119999999N9999999N1-00841-02471999999ADDMA1999999085351MD1310231+9999ME1314609OA149900771REMSYN076AAXX  02164 06724 33/// /3104 11084 21247 38535 48460 53023 333 91115 91205;
0137067240999992010010217004+46300+007467FM-12+150899999V0200101N001519999999N9999999N1-01021-02391999999ADDMA1999999085411MD1110231+9999ME1314669OA149900771REMSYN076AAXX  02174 06724 33/// /0103 11102 21239 38541 48466 51023 333 91115 91205;
0156067240999992010010218004+46300+007467FM-12+150899999V0202901N001019999999N9999999N1-00991-02151999999ADDKA1120M-00581MA1999999085471MD1110201+9999ME1314719OA149901031REMSYN082AAXX  02184 06724 33/// /2902 11099 21215 38547 48471 51020 333 11058 91120 91209;
0137067240999992010010219004+46300+007467FM-12+150899999V0202901N001519999999N9999999N1-01071-01531999999ADDMA1999999085501MD1210151+9999ME1314749OA149900411REMSYN076AAXX  02194 06724 33/// /2903 11107 21153 38550 48474 52015 333 91108 91204;
0137067240999992010010220004+46300+007467FM-12+150899999V0203101N001019999999N9999999N1-01031-02151999999ADDMA1999999085521MD1210111+9999ME1314759OA149900311REMSYN076AAXX  02204 06724 33/// /3102 11103 21215 38552 48475 52011 333 91106 91204;
0137067240999992010010221004+46300+007467FM-12+150899999V0203601N001019999999N9999999N1-01091-02381999999ADDMA1999999085491MD1010021+9999ME1314739OA149900771REMSYN076AAXX  02214 06724 33/// /3602 11109 21238 38549 48473 50002 333 91115 91205;
0137067240999992010010222004+46300+007467FM-12+150899999V0203101N001519999999N9999999N1-01071-02551999999ADDMA1999999085531MD1210031+9999ME1314769OA149900311REMSYN076AAXX  02224 06724 33/// /3103 11107 21255 38553 48476 52003 333 91106 91203;
0137067240999992010010223004+46300+007467FM-12+150899999V0209999C000019999999N9999999N1-01111-02571999999ADDMA1999999085561MD1310041+9999ME1314799OA149900311REMSYN076AAXX  02234 06724 33/// /0000 11111 21257 38556 48479 53004 333 91106 91204;
0137067240999992010010300004+46300+007467FM-12+150899999V0200101N001019999999N9999999N1-01241-02421999999ADDMA1999999085531MD1010041+9999ME1314769OA149900771REMSYN076AAXX  03004 06724 33/// /0102 11124 21242 38553 48476 50004 333 91115 91205;
0137067240999992010010301004+46300+007467FM-12+150899999V0200501N001519999999N9999999N1-01171-02311999999ADDMA1999999085551MD1010021+9999ME1314789OA149900261REMSYN076AAXX  03014 06724 33/// /0503 11117 21231 38555 48478 50002 333 91105 91203;
0096067240999992010010302004+46300+007467FM-12+150899999V0200401N001019999999N9999999N1-01241-02241999999ADDMA1999999085611ME1314839REMSYN060AAXX  03024 06724 33/// /0402 11124 21224 38561 48483 5////;
0096067240999992010010303004+46300+007467FM-12+150899999V0200401N002119999999N9999999N1-01221-02201999999ADDMA1999999085591ME1314819REMSYN060AAXX  03034 06724 33/// /0404 11122 21220 38559 48481 5////;
0137067240999992010010304004+46300+007467FM-12+150899999V0200501N002619999999N9999999N1-01211-01701999999ADDMA1999999085571MD1010021+9999ME1314809OA149900511REMSYN076AAXX  03044 06724 33/// /0505 11121 21170 38557 48480 50002 333 91110 91206;
0137067240999992010010305004+46300+007467FM-12+150899999V0200601N003119999999N9999999N1-01121-01811999999ADDMA1999999085531MD1719999+9999ME1314769OA149900511REMSYN076AAXX  03054 06724 33/// /0606 11112 21181 38553 48476 57/// 333 91110 91206;
0234067240999992010010306004+46300+007467FM-12+150899999V0200501N002119999999N9999999N1-01131-02141999999ADDAA124000091AL19900091GJ102349IA2999-01109KA1999N-01341MA1999999085521MD1710071+9999ME1314759OA149900511REMSYN100AAXX  03064 06724 33/// /0504 11113 21214 38552 48475 57007 333 21134 3/111 55039 70000 91110 91206;EQDQ01  00002PRCP24
0137067240999992010010307004+46300+007467FM-12+150899999V0200601N002619999999N9999999N1-01161-02211999999ADDMA1999999085521MD1710051+9999ME1314759OA149900461REMSYN076AAXX  03074 06724 33/// /0605 11116 21221 38552 48475 57005 333 91109 91206;
0137067240999992010010308004+46300+007467FM-12+150899999V0200601N002119999999N9999999N1-01011-02211999999ADDMA1999999085541MD1319999+9999ME1314779OA149900411REMSYN076AAXX  03084 06724 33/// /0604 11101 21221 38554 48477 53/// 333 91108 91205;
0137067240999992010010309004+46300+007467FM-12+150899999V0200601N001519999999N9999999N1-00961-02191999999ADDMA1999999085561MD1210041+9999ME1314799OA149900511REMSYN076AAXX  03094 06724 33/// /0603 11096 21219 38556 48479 52004 333 91110 91206;
0137067240999992010010310004+46300+007467FM-12+150899999V0200601N002119999999N9999999N1-00841-02361999999ADDMA1999999085551MD1010031+9999ME1314799OA149900511REMSYN076AAXX  03104 06724 33/// /0604 11084 21236 38555 48479 50003 333 91110 91206;
0137067240999992010010311004+46300+007467FM-12+150899999V0200501N003119999999N9999999N1-00791-02431999999ADDMA1999999085461MD1810081+9999ME1314709OA149900511REMSYN076AAXX  03114 06724 33/// /0506 11079 21243 38546 48470 58008 333 91110 91207;
0137067240999992010010312004+46300+007467FM-12+150899999V0200501N003119999999N9999999N1-00731-02431999999ADDMA1999999085411MD1710151+9999ME1314669OA149900511REMSYN076AAXX  03124 06724 33/// /0506 11073 21243 38541 48466 57015 333 91110 91207;
0137067240999992010010313004+46300+007467FM-12+150899999V0200601N001519999999N9999999N1-00701-02411999999ADDMA1999999085351MD1710201+9999ME1314619OA149900511REMSYN076AAXX  03134 06724 33/// /0603 11070 21241 38535 48461 57020 333 91110 91206;
0137067240999992010010314004+46300+007467FM-12+150899999V0200701N001019999999N9999999N1-00671-02051999999ADDMA1999999085371MD1710091+9999ME1314629OA149900461REMSYN076AAXX  03144 06724 33/// /0702 11067 21205 38537 48462 57009 333 91109 91205;
0137067240999992010010315004+46300+007467FM-12+150899999V0200501N001519999999N9999999N1-00671-02081999999ADDMA1999999085381MD1710031+9999ME1314639OA149900511REMSYN076AAXX  03154 06724 33/// /0503 11067 21208 38538 48463 57003 333 91110 91207;
0156067240999992010010316004+46300+007467FM-12+150899999V0200501N001519999999N9999999N1-00671-01901999999ADDMA1999999085351MD1410001+9999ME1314619OA149900311REMSYN076AAXX  03164 06724 33/// /0503 11067 21190 38535 48461 58000 333 91106 91203;EQDQ01+000082APCTEN
0137067240999992010010317004+46300+007467FM-12+150899999V0200601N002119999999N9999999N1-00661-01941999999ADDMA1999999085301MD1810071+9999ME1314569OA149900361REMSYN076AAXX  03174 06724 33/// /0604 11066 21194 38530 48456 58007 333 91107 91204;
0156067240999992010010318004+46300+007467FM-12+150899999V0209999C000019999999N9999999N1-00741-01791999999ADDKA1120M-00651MA1999999085341MD1510041+9999ME1314609OA149900511REMSYN082AAXX  03184 06724 33/// /0000 11074 21179 38534 48460 55004 333 11065 91110 91207;
0137067240999992010010319004+46300+007467FM-12+150899999V0200501N002619999999N9999999N1-00771-01791999999ADDMA1999999085311MD1710041+9999ME1314579OA149900311REMSYN076AAXX  03194 06724 33/// /0505 11077 21179 38531 48457 57004 333 91106 91205;
0137067240999992010010320004+46300+007467FM-12+150899999V0200401N001519999999N9999999N1-00841-01701999999ADDMA1999999085281MD1810021+9999ME1314549OA149900311REMSYN076AAXX  03204 06724 33/// /0403 11084 21170 38528 48454 58002 333 91106 91205;
0137067240999992010010321004+46300+007467FM-12+150899999V0200401N002119999999N9999999N1-00831-01761999999ADDMA1999999085251MD1710091+9999ME1314519OA149900361REMSYN076AAXX  03214 06724 33/// /0404 11083 21176 38525 48451 57009 333 91107 91205;
0137067240999992010010322004+46300+007467FM-12+150899999V0200401N002119999999N9999999N1-00881-01771999999ADDMA1999999085251MD1710061+9999ME1314519OA149900311REMSYN076AAXX  03224 06724 33/// /0404 11088 21177 38525 48451 57006 333 91106 91205;
0137067240999992010010323004+46300+007467FM-12+150899999V0200501N002119999999N9999999N1-00711-01751999999ADDMA1999999085201MD1710081+9999ME1314479OA149900361REMSYN076AAXX  03234 06724 33/// /0504 11071 21175 38520 48447 57008 333 91107 91205;
0137067240999992010010400004+46300+007467FM-12+150899999V0200501N002619999999N9999999N1-00571-01881999999ADDMA1999999085141MD1710111+9999ME1314419OA149900461REMSYN076AAXX  04004 06724 33/// /0505 11057 21188 38514 48441 57011 333 91109 91205;
0137067240999992010010401004+46300+007467FM-12+150899999V0200501N003119999999N9999999N1-00561-01861999999ADDMA1999999085091MD1810161+9999ME1314379OA149900671REMSYN076AAXX  04014 06724 33/// /0506 11056 21186 38509 48437 58016 333 91113 91207;
0137067240999992010010402004+46300+007467FM-12+150899999V0200401N001519999999N9999999N1-00641-01681999999ADDMA1999999085071MD1719999+9999ME1314359OA149900671REMSYN076AAXX  04024 06724 33/// /0403 11064 21168 38507 48435 57/// 333 91113 91207;
0137067240999992010010403004+46300+007467FM-12+150899999V0200601N001519999999N9999999N1-00621-01701999999ADDMA1999999085021MD1719999+9999ME1314309OA149900671REMSYN076AAXX  04034 06724 33/// /0603 11062 21170 38502 48430 57/// 333 91113 91207;
0137067240999992010010404004+46300+007467FM-12+150899999V0200501N002119999999N9999999N1-00581-01221999999ADDMA1999999084971MD1710121+9999ME1314269OA149900411REMSYN076AAXX  04044 06724 33/// /0504 11058 21122 38497 48426 57012 333 91108 91205;
0137067240999992010010405004+46300+007467FM-12+150899999V0200601N002119999999N9999999N1-00641-01001999999ADDMA1999999084951MD1719999+9999ME1314249OA149900511REMSYN076AAXX  04054 06724 33/// /0604 11064 21100 38495 48424 57/// 333 91110 91205;
0273067240999992010010406004+46300+007467FM-12+150899999V0200901N001519999999N9999999N1-00721-00891999999ADDAA112000091AA224000091AL19900091GJ100009IA2999-00809KA1999N-00951MA1999999084991MD1510031+9999ME1314289OA149900671REMSYN112AAXX  04064 06724 03/// /0903 11072 21089 38499 48428 55003 69912 333 21095 3/108 55000 69915 70000 91113 91207;EQDQ01  00002PRCP24Q02  00002PRCP12
0154067240999992010010407004+46300+007467FM-12+150899999V0200601N002119999999N9999999N1-00721-00911999999ADDAA101000591MA1999999084961MD1010011+9999ME1314259OA149900461REMSYN082AAXX  04074 06724 23/// /0604 11072 21091 38496 48425 50001 333 69945 91109 91205;
0154067240999992010010408004+46300+007467FM-12+150899999V0200701N002119999999N9999999N1-00721-00881999999ADDAA101000591MA1999999084961MD1010011+9999ME1314259OA149900511REMSYN082AAXX  04084 06724 23/// /0704 11072 21088 38496 48425 50001 333 69945 91110 91205;
0154067240999992010010409004+46300+007467FM-12+150899999V0200601N003119999999N9999999N1-00721-00891999999ADDAA101000021MA1999999084951MD1710041+9999ME1314249OA149900571REMSYN082AAXX  04094 06724 23/// /0606 11072 21089 38495 48424 57004 333 69915 91111 91206;
0154067240999992010010410004+46300+007467FM-12+150899999V0200601N002119999999N9999999N1-00671-00881999999ADDAA101000021MA1999999084941MD1810021+9999ME1314239OA149900571REMSYN082AAXX  04104 06724 23/// /0604 11067 21088 38494 48423 58002 333 69915 91111 91206;
0137067240999992010010411004+46300+007467FM-12+150899999V0200701N002119999999N9999999N1-00631-00861999999ADDMA1999999084861MD1710101+9999ME1314169OA149900511REMSYN076AAXX  04114 06724 33/// /0704 11063 21086 38486 48416 57010 333 91110 91206;
0160067240999992010010412004+46300+007467FM-12+150899999V0200701N002119999999N9999999N1-00611-00871999999ADDAA106001091MA1999999084791MD1810161+9999ME1314099OA149900671REMSYN088AAXX  04124 06724 03/// /0704 11061 21087 38479 48409 58016 60011 333 60005 91113 91207;
0137067240999992010010413004+46300+007467FM-12+150899999V0200701N002119999999N9999999N1-00591-00831999999ADDMA1999999084721MD1610221+9999ME1314039OA149900411REMSYN076AAXX  04134 06724 33/// /0704 11059 21083 38472 48403 56022 333 91108 91205;
0137067240999992010010414004+46300+007467FM-12+150899999V0200701N001519999999N9999999N1-00551-00811999999ADDMA1999999084681MD1619999+9999ME1313999OA149900411REMSYN076AAXX  04144 06724 33/// /0703 11055 21081 38468 48399 56/// 333 91108 91205;
0137067240999992010010415004+46300+007467FM-12+150899999V0200701N001019999999N9999999N1-00551-00841999999ADDMA1999999084671MD1710121+9999ME1313989OA149900511REMSYN076AAXX  04154 06724 33/// /0702 11055 21084 38467 48398 57012 333 91110 91206;
0154067240999992010010416004+46300+007467FM-12+150899999V0200601N001519999999N9999999N1-00621-00811999999ADDAA101000021MA1999999084651MD1710071+9999ME1313969OA149900411REMSYN082AAXX  04164 06724 23/// /0603 11062 21081 38465 48396 57007 333 69915 91108 91204;
0137067240999992010010417004+46300+007467FM-12+150899999V0200801N001519999999N9999999N1-00611-00801999999ADDMA1999999084631MD1719999+9999ME1313949OA149900361REMSYN076AAXX  04174 06724 33/// /0803 11061 21080 38463 48394 57/// 333 91107 91204;
0179067240999992010010418004+46300+007467FM-12+150899999V0200801N001519999999N9999999N1-00601-00771999999ADDAA112001091KA1120M-00551MA1999999084631MD1710041+9999ME1313949OA149900571REMSYN094AAXX  04184 06724 03/// /0803 11060 21077 38463 48394 57004 60012 333 11055 60005 91111 91206;
0137067240999992010010419004+46300+007467FM-12+150899999V0200601N001519999999N9999999N1-00591-00771999999ADDMA1999999084631MD1710021+9999ME1313949OA149900311REMSYN076AAXX  04194 06724 33/// /0603 11059 21077 38463 48394 57002 333 91106 91204;
0137067240999992010010420004+46300+007467FM-12+150899999V0200701N002119999999N9999999N1-00561-00801999999ADDMA1999999084611MD1710021+9999ME1313929OA149900411REMSYN076AAXX  04204 06724 33/// /0704 11056 21080 38461 48392 57002 333 91108 91204;
0154067240999992010010421004+46300+007467FM-12+150899999V0200201N000519999999N9999999N1-00621-00771999999ADDAA101000021MA1999999084601MD1710031+9999ME1313929OA149900411REMSYN082AAXX  04214 06724 23/// /0201 11062 21077 38460 48392 57003 333 69915 91108 91204;
0137067240999992010010422004+46300+007467FM-12+150899999V0200501N000519999999N9999999N1-00541-00751999999ADDMA1999999084571MD1710061+9999ME1313899OA149900361REMSYN076AAXX  04224 06724 33/// /0501 11054 21075 38457 48389 57006 333 91107 91204;
0137067240999992010010423004+46300+007467FM-12+150899999V0200601N001519999999N9999999N1-00541-00721999999ADDMA1999999084551MD1710061+9999ME1313879OA149900361REMSYN076AAXX  04234 06724 33/// /0603 11054 21072 38455 48387 57006 333 91107 91204;
0179067240999992010010500004+46300+007467FM-12+150899999V0200401N000519999999N9999999N1-00561-00741999999ADDAA106000091MA1999999084511MD1710091+9999ME1313839OA149900411REMSYN088AAXX  05004 06724 03/// /0401 11056 21074 38451 48383 57009 69911 333 60005 91108 91205;EQDQ01  00002PRCP06
0137067240999992010010501004+46300+007467FM-12+150899999V0200401N001519999999N9999999N1-00501-00711999999ADDMA1999999084461MD1710111+9999ME1313789OA149900361REMSYN076AAXX  05014 06724 33/// /0403 11050 21071 38446 48378 57011 333 91107 91204;
0137067240999992010010502004+46300+007467FM-12+150899999V0200501N001519999999N9999999N1-00521-00711999999ADDMA1999999084421MD1610131+9999ME1313759OA149900311REMSYN076AAXX  05024 06724 33/// /0503 11052 21071 38442 48375 56013 333 91106 91203;
0137067240999992010010503004+46300+007467FM-12+150899999V0200601N001519999999N9999999N1-00511-00761999999ADDMA1999999084371MD1710141+9999ME1313709OA149900361REMSYN076AAXX  05034 06724 33/// /0603 11051 21076 38437 48370 57014 333 91107 91204;
0137067240999992010010504004+46300+007467FM-12+150899999V0200501N001519999999N9999999N1-00451-00681999999ADDMA1999999084321MD1810141+9999ME1313659OA149900311REMSYN076AAXX  05044 06724 33/// /0503 11045 21068 38432 48365 58014 333 91106 91204;
0137067240999992010010505004+46300+007467FM-12+150899999V0200601N002619999999N9999999N1-00401-00731999999ADDMA1999999084281MD1610141+9999ME1313619OA149900411REMSYN076AAXX  05054 06724 33/// /0605 11040 21073 38428 48361 56014 333 91108 91205;
0257067240999992010010506004+46300+007467FM-12+150899999V0200601N002119999999N9999999N1-00361-00711999999ADDAA112000091AA224001391AL11800191GJ100009IA2999-00209KA1999N-00621MA1999999084231MD1810141+9999ME1313569OA149900411REMSYN112AAXX  05064 06724 03/// /0604 11036 21071 38423 48356 58014 69912 333 21062 3/102 55000 60005 70013 91108 91205;EQDQ01  00002PRCP12
0137067240999992010010507004+46300+007467FM-12+150899999V0200101N000519999999N9999999N1-00441-00621999999ADDMA1999999084221MD1610101+9999ME1313569OA149900411REMSYN076AAXX  05074 06724 33/// /0101 11044 21062 38422 48356 56010 333 91108 91205;
0137067240999992010010508004+46300+007467FM-12+150899999V0200201N001019999999N9999999N1-00411-00631999999ADDMA1999999084201MD1610081+9999ME1313549OA149900211REMSYN076AAXX  05084 06724 33/// /0202 11041 21063 38420 48354 56008 333 91104 91203;
0137067240999992010010509004+46300+007467FM-12+150899999V0200701N002619999999N9999999N1-00211-00681999999ADDMA1999999084191MD1810041+9999ME1313529OA149900411REMSYN076AAXX  05094 06724 33/// /0705 11021 21068 38419 48352 58004 333 91108 91205;
0137067240999992010010510004+46300+007467FM-12+150899999V0202101N000519999999N9999999N1-00241-00581999999ADDMA1999999084171MD1610051+9999ME1313509OA149900361REMSYN076AAXX  05104 06724 33/// /2101 11024 21058 38417 48350 56005 333 91107 91205;
0137067240999992010010511004+46300+007467FM-12+150899999V0200701N001519999999N9999999N1-00071-00671999999ADDMA1999999084081MD1810121+9999ME1313419OA149900361REMSYN076AAXX  05114 06724 33/// /0703 11007 21067 38408 48341 58012 333 91107 91204;
0137067240999992010010512004+46300+007467FM-12+150899999V0200701N002119999999N9999999N1-00081-00771999999ADDMA1999999084001MD1810191+9999ME1313349OA149900411REMSYN076AAXX  05124 06724 33/// /0704 11008 21077 38400 48334 58019 333 91108 91205;
0137067240999992010010513004+46300+007467FM-12+150899999V0202801N000519999999N9999999N1-00141-00511999999ADDMA1999999083941MD1610231+9999ME1313289OA149900361REMSYN076AAXX  05134 06724 33/// /2801 11014 21051 38394 48328 56023 333 91107 91204;
0096067240999992010010514004+46300+007467FM-12+150899999V0200801N001519999999N9999999N1-00141-00831999999ADDMA1999999083901ME1313249REMSYN060AAXX  05144 06724 33/// /0803 11014 21083 38390 48324 5////;
0137067240999992010010515004+46300+007467FM-12+150899999V0200701N002119999999N9999999N1-00181-00801999999ADDMA1999999083891MD1610111+9999ME1313249OA149900361REMSYN076AAXX  05154 06724 33/// /0704 11018 21080 38389 48324 56011 333 91107 91204;
0137067240999992010010516004+46300+007467FM-12+150899999V0200501N001019999999N9999999N1-00321-00761999999ADDMA1999999083881MD1710061+9999ME1313239OA149900361REMSYN076AAXX  05164 06724 33/// /0502 11032 21076 38388 48323 57006 333 91107 91204;
0137067240999992010010517004+46300+007467FM-12+150899999V0200601N001519999999N9999999N1-00321-00801999999ADDMA1999999083861MD1710041+9999ME1313219OA149900261REMSYN076AAXX  05174 06724 33/// /0603 11032 21080 38386 48321 57004 333 91105 91203;
0156067240999992010010518004+46300+007467FM-12+150899999V0200401N001519999999N9999999N1-00441-00791999999ADDKA1120M-00031MA1999999083871MD1710021+9999ME1313239OA149900361REMSYN082AAXX  05184 06724 33/// /0403 11044 21079 38387 48323 57002 333 11003 91107 91205;
0156067240999992010010519004+46300+007467FM-12+150899999V0200401N001519999999N9999999N1-00471-00821999999ADDMA1999999083881MD1410001+9999ME1313249OA149900261REMSYN076AAXX  05194 06724 33/// /0403 11047 21082 38388 48324 52000 333 91105 91204;EQDQ01+000022APCTEN
0137067240999992010010520004+46300+007467FM-12+150899999V0200501N002619999999N9999999N1-00481-00901999999ADDMA1999999083831MD1810031+9999ME1313199OA149900311REMSYN076AAXX  05204 06724 33/// /0505 11048 21090 38383 48319 58003 333 91106 91205;
0137067240999992010010521004+46300+007467FM-12+150899999V0200401N001519999999N9999999N1-00511-00891999999ADDMA1999999083791MD1710081+9999ME1313169OA149900311REMSYN076AAXX  05214 06724 33/// /0403 11051 21089 38379 48316 57008 333 91106 91205;
0137067240999992010010522004+46300+007467FM-12+150899999V0200101N001519999999N9999999N1-00651-00971999999ADDMA1999999083781MD1610101+9999ME1313159OA149900311REMSYN076AAXX  05224 06724 33/// /0103 11065 21097 38378 48315 56010 333 91106 91205;
0137067240999992010010523004+46300+007467FM-12+150899999V0200201N001019999999N9999999N1-00671-00971999999ADDMA1999999083761MD1610071+9999ME1313139OA149900211REMSYN076AAXX  05234 06724 33/// /0202 11067 21097 38376 48313 56007 333 91104 91203;
0137067240999992010010600004+46300+007467FM-12+150899999V0200301N001019999999N9999999N1-00631-00961999999ADDMA1999999083741MD1810051+9999ME1313119OA149900361REMSYN076AAXX  06004 06724 33/// /0302 11063 21096 38374 48311 58005 333 91107 91205;
0137067240999992010010601004+46300+007467FM-12+150899999V0200201N001019999999N9999999N1-00591-00931999999ADDMA1999999083731MD1810051+9999ME1313109OA149900211REMSYN076AAXX  06014 06724 33/// /0202 11059 21093 38373 48310 58005 333 91104 91203;
0137067240999992010010602004+46300+007467FM-12+150899999V0200101N001019999999N9999999N1-00631-00911999999ADDMA1999999083751MD1510011+9999ME1313129OA149900211REMSYN076AAXX  06024 06724 33/// /0102 11063 21091 38375 48312 55001 333 91104 91203;
0137067240999992010010603004+46300+007467FM-12+150899999V0200201N001019999999N9999999N1-00691-00991999999ADDMA1999999083741MD1010001+9999ME1313129OA149900211REMSYN076AAXX  06034 06724 33/// /0202 11069 21099 38374 48312 50000 333 91104 91203;
0137067240999992010010604004+46300+007467FM-12+150899999V0200101N000519999999N9999999N1-00641-00941999999ADDMA1999999083721MD1810011+9999ME1313109OA149900151REMSYN076AAXX  06044 06724 33/// /0101 11064 21094 38372 48310 58001 333 91103 91203;
0137067240999992010010605004+46300+007467FM-12+150899999V0200601N001019999999N9999999N1-00601-00951999999ADDMA1999999083721MD1710031+9999ME1313099OA149900151REMSYN076AAXX  06054 06724 33/// /0602 11060 21095 38372 48309 57003 333 91103 91202;
0234067240999992010010606004+46300+007467FM-12+150899999V0200401N001019999999N9999999N1-00671-01011999999ADDAA124000091AL19900091GJ102769IA2999-00409KA1999N-00741MA1999999083711MD1710031+9999ME1313099OA149900311REMSYN100AAXX  06064 06724 33/// /0402 11067 21101 38371 48309 57003 333 21074 3/104 55046 70000 91106 91205;EQDQ01  00002PRCP24
0137067240999992010010607004+46300+007467FM-12+150899999V0203301N000519999999N9999999N1-00791-01081999999ADDMA1999999083731MD1210011+9999ME1313119OA149900151REMSYN076AAXX  06074 06724 33/// /3301 11079 21108 38373 48311 52001 333 91103 91203;
0137067240999992010010608004+46300+007467FM-12+150899999V0200201N001019999999N9999999N1-00711-01041999999ADDMA1999999083771MD1210051+9999ME1313159OA149900151REMSYN076AAXX  06084 06724 33/// /0202 11071 21104 38377 48315 52005 333 91103 91203;
0137067240999992010010609004+46300+007467FM-12+150899999V0202501N001019999999N9999999N1-00651-00921999999ADDMA1999999083831MD1310121+9999ME1313209OA149900151REMSYN076AAXX  06094 06724 33/// /2502 11065 21092 38383 48320 53012 333 91103 91203;
0137067240999992010010610004+46300+007467FM-12+150899999V0202501N000519999999N9999999N1-00541-00921999999ADDMA1999999083861MD1110131+9999ME1313229OA149900151REMSYN076AAXX  06104 06724 33/// /2501 11054 21092 38386 48322 51013 333 91103 91202;
0137067240999992010010611004+46300+007467FM-12+150899999V0202301N001019999999N9999999N1-00551-00841999999ADDMA1999999083841MD1019999+9999ME1313209OA149900151REMSYN076AAXX  06114 06724 33/// /2302 11055 21084 38384 48320 50/// 333 91103 91202;
0137067240999992010010612004+46300+007467FM-12+150899999V0202901N001019999999N9999999N1-00461-00751999999ADDMA1999999083821MD1810011+9999ME1313189OA149900211REMSYN076AAXX  06124 06724 33/// /2902 11046 21075 38382 48318 58001 333 91104 91203;
0137067240999992010010613004+46300+007467FM-12+150899999V0202601N001019999999N9999999N1-00451-00831999999ADDMA1999999083831MD1710031+9999ME1313199OA149900261REMSYN076AAXX  06134 06724 33/// /2602 11045 21083 38383 48319 57003 333 91105 91203;
0137067240999992010010614004+46300+007467FM-12+150899999V0202401N000519999999N9999999N1-00431-00611999999ADDMA1999999083821MD1719999+9999ME1313189OA149900261REMSYN076AAXX  06144 06724 33/// /2401 11043 21061 38382 48318 57/// 333 91105 91203;
0143067240999992010010615004+46300+007467FM-12+150899999V0202701N001019999999N9999999N1-00571-00591999999ADDMA1999999083851MD1219999+9999ME1313219OA149900261REMSYN082AAXX  06154 06724 33/// /2702 11057 21059 38385 48321 52/// 91440 333 91105 91203;
0137067240999992010010616004+46300+007467FM-12+150899999V0202301N000519999999N9999999N1-00571-00621999999ADDMA1999999083901MD1210071+9999ME1313269OA149900211REMSYN076AAXX  06164 06724 33/// /2301 11057 21062 38390 48326 52007 333 91104 91202;
0137067240999992010010617004+46300+007467FM-12+150899999V0202401N000519999999N9999999N1-00671-00671999999ADDMA1999999083951MD1110131+9999ME1313319OA149900151REMSYN076AAXX  06174 06724 33/// /2401 11067 21067 38395 48331 51013 333 91103 91202;
0156067240999992010010618004+46300+007467FM-12+150899999V0202101N000519999999N9999999N1-00681-00681999999ADDKA1120M-00381MA1999999084021MD1310151+9999ME1313389OA149900261REMSYN082AAXX  06184 06724 33/// /2101 11068 21068 38402 48338 53015 333 11038 91105 91203;
0137067240999992010010619004+46300+007467FM-12+150899999V0202301N001019999999N9999999N1-00681-00681999999ADDMA1999999084071MD1110171+9999ME1313429OA149900211REMSYN076AAXX  06194 06724 33/// /2302 11068 21068 38407 48342 51017 333 91104 91203;
0137067240999992010010620004+46300+007467FM-12+150899999V0200601N001019999999N9999999N1-00701-00781999999ADDMA1999999084101MD1110151+9999ME1313459OA149900151REMSYN076AAXX  06204 06724 33/// /0602 11070 21078 38410 48345 51015 333 91103 91202;
0137067240999992010010621004+46300+007467FM-12+150899999V0200801N001519999999N9999999N1-00721-00841999999ADDMA1999999084111MD1110091+9999ME1313469OA149900311REMSYN076AAXX  06214 06724 33/// /0803 11072 21084 38411 48346 51009 333 91106 91203;
0137067240999992010010622004+46300+007467FM-12+150899999V0200701N001519999999N9999999N1-00691-00821999999ADDMA1999999084111MD1210041+9999ME1313469OA149900411REMSYN076AAXX  06224 06724 33/// /0703 11069 21082 38411 48346 52004 333 91108 91204;
0137067240999992010010623004+46300+007467FM-12+150899999V0202701N001019999999N9999999N1-00721-00761999999ADDMA1999999084181MD1210081+9999ME1313539OA149900411REMSYN076AAXX  06234 06724 33/// /2702 11072 21076 38418 48353 52008 333 91108 91204;
0137067240999992010010700004+46300+007467FM-12+150899999V0202901N000519999999N9999999N1-00751-00881999999ADDMA1999999084201MD1210091+9999ME1313559OA149900411REMSYN076AAXX  07004 06724 33/// /2901 11075 21088 38420 48355 52009 333 91108 91204;
0137067240999992010010701004+46300+007467FM-12+150899999V0200401N000519999999N9999999N1-00721-00901999999ADDMA1999999084211MD1210101+9999ME1313569OA149900151REMSYN076AAXX  07014 06724 33/// /0401 11072 21090 38421 48356 52010 333 91103 91201;
0137067240999992010010702004+46300+007467FM-12+150899999V0200401N001019999999N9999999N1-00901-00911999999ADDMA1999999084241MD1219999+9999ME1313599OA149900151REMSYN076AAXX  07024 06724 33/// /0402 11090 21091 38424 48359 52/// 333 91103 91202;
0137067240999992010010703004+46300+007467FM-12+150899999V0200401N001519999999N9999999N1-00971-01171999999ADDMA1999999084241MD1210041+9999ME1313599OA149900411REMSYN076AAXX  07034 06724 33/// /0403 11097 21117 38424 48359 52004 333 91108 91204;
0137067240999992010010704004+46300+007467FM-12+150899999V0200501N002119999999N9999999N1-00991-01201999999ADDMA1999999084241MD1210031+9999ME1313599OA149900261REMSYN076AAXX  07044 06724 33/// /0504 11099 21120 38424 48359 52003 333 91105 91204;
0137067240999992010010705004+46300+007467FM-12+150899999V0200501N002619999999N9999999N1-00981-01191999999ADDMA1999999084251MD1210011+9999ME1313609OA149900411REMSYN076AAXX  07054 06724 33/// /0505 11098 21119 38425 48360 52001 333 91108 91205;
0234067240999992010010706004+46300+007467FM-12+150899999V0200601N002619999999N9999999N1-00881-01091999999ADDAA124000091AL19900091GJ103849IA2999-00509KA1999N-01041MA1999999084291MD1310051+9999ME1313639OA149900411REMSYN100AAXX  07064 06724 33/// /0605 11088 21109 38429 48363 53005 333 21104 3/105 55064 70000 91108 91205;EQDQ01  00002PRCP24
0137067240999992010010707004+46300+007467FM-12+150899999V0200601N003119999999N9999999N1-00911-01161999999ADDMA1999999084331MD1310091+9999ME1313679OA149900511REMSYN076AAXX  07074 06724 33/// /0606 11091 21116 38433 48367 53009 333 91110 91206;
0137067240999992010010708004+46300+007467FM-12+150899999V0200401N002119999999N9999999N1-00901-01201999999ADDMA1999999084371MD1219999+9999ME1313719OA149900511REMSYN076AAXX  07084 06724 33/// /0404 11090 21120 38437 48371 52/// 333 91110 91206;
0137067240999992010010709004+46300+007467FM-12+150899999V0200601N002619999999N9999999N1-00771-01191999999ADDMA1999999084431MD1210141+9999ME1313769OA149900511REMSYN076AAXX  07094 06724 33/// /0605 11077 21119 38443 48376 52014 333 91110 91206;
0137067240999992010010710004+46300+007467FM-12+150899999V0200601N001519999999N9999999N1-00691-01241999999ADDMA1999999084461MD1210131+9999ME1313799OA149900511REMSYN076AAXX  07104 06724 33/// /0603 11069 21124 38446 48379 52013 333 91110 91206;
0137067240999992010010711004+46300+007467FM-12+150899999V0200601N001019999999N9999999N1-00531-01381999999ADDMA1999999084441MD1210071+9999ME1313779OA149900461REMSYN076AAXX  07114 06724 33/// /0602 11053 21138 38444 48377 52007 333 91109 91206;
0137067240999992010010712004+46300+007467FM-12+150899999V0202301N000519999999N9999999N1-00511-01061999999ADDMA1999999084381MD1810051+9999ME1313719OA149900511REMSYN076AAXX  07124 06724 33/// /2301 11051 21106 38438 48371 58005 333 91110 91206;
0137067240999992010010713004+46300+007467FM-12+150899999V0201301N000519999999N9999999N1-00441-01201999999ADDMA1999999084361MD1619999+9999ME1313699OA149900211REMSYN076AAXX  07134 06724 33/// /1301 11044 21120 38436 48369 56/// 333 91104 91202;
0096067240999992010010715004+46300+007467FM-12+150899999V0200301N001019999999N9999999N1-00391-01511999999ADDMA1999999084411ME1313739REMSYN060AAXX  07154 06724 43/// /0302 11039 21151 38441 48373 5////;
0137067240999992010010716004+46300+007467FM-12+150899999V0200601N001019999999N9999999N1-00431-01451999999ADDMA1999999084431MD1219999+9999ME1313759OA149900311REMSYN076AAXX  07164 06724 43/// /0602 11043 21145 38443 48375 52/// 333 91106 91203;
0137067240999992010010717004+46300+007467FM-12+150899999V0200901N001519999999N9999999N1-00431-01331999999ADDMA1999999084481MD1219999+9999ME1313809OA149900361REMSYN076AAXX  07174 06724 33/// /0903 11043 21133 38448 48380 52/// 333 91107 91203;
0156067240999992010010718004+46300+007467FM-12+150899999V0200801N001519999999N9999999N1-00471-01381999999ADDKA1120M-00351MA1999999084501MD1219999+9999ME1313829OA149900511REMSYN082AAXX  07184 06724 33/// /0803 11047 21138 38450 48382 52/// 333 11035 91110 91206;
0137067240999992010010719004+46300+007467FM-12+150899999V0200701N002619999999N9999999N1-00431-01201999999ADDMA1999999084501MD1210071+9999ME1313829OA149900511REMSYN076AAXX  07194 06724 33/// /0705 11043 21120 38450 48382 52007 333 91110 91206;
0137067240999992010010720004+46300+007467FM-12+150899999V0200701N002119999999N9999999N1-00441-01231999999ADDMA1999999084521MD1210041+9999ME1313849OA149900511REMSYN076AAXX  07204 06724 33/// /0704 11044 21123 38452 48384 52004 333 91110 91206;
0137067240999992010010721004+46300+007467FM-12+150899999V0200601N003119999999N9999999N1-00431-01191999999ADDMA1999999084491MD1810011+9999ME1313819OA149900671REMSYN076AAXX  07214 06724 33/// /0606 11043 21119 38449 48381 58001 333 91113 91207;
0137067240999992010010722004+46300+007467FM-12+150899999V0200701N003119999999N9999999N1-00461-01171999999ADDMA1999999084481MD1710021+9999ME1313809OA149900771REMSYN076AAXX  07224 06724 33/// /0706 11046 21117 38448 48380 57002 333 91115 91208;
0137067240999992010010723004+46300+007467FM-12+150899999V0200701N003119999999N9999999N1-00461-00991999999ADDMA1999999084491MD1710031+9999ME1313819OA149900881REMSYN076AAXX  07234 06724 33/// /0706 11046 21099 38449 48381 57003 333 91117 91208;
0137067240999992010010800004+46300+007467FM-12+150899999V0201501N000519999999N9999999N1-00571-01031999999ADDMA1999999084411MD1710081+9999ME1313749OA149900881REMSYN076AAXX  08004 06724 33/// /1501 11057 21103 38441 48374 57008 333 91117 91208;
0137067240999992010010801004+46300+007467FM-12+150899999V0202701N001019999999N9999999N1-00641-00871999999ADDMA1999999084351MD1710131+9999ME1313689OA149900621REMSYN076AAXX  08014 06724 33/// /2702 11064 21087 38435 48368 57013 333 91112 91206;
0137067240999992010010802004+46300+007467FM-12+150899999V0202501N000519999999N9999999N1-00651-00871999999ADDMA1999999084321MD1719999+9999ME1313669OA149900261REMSYN076AAXX  08024 06724 33/// /2501 11065 21087 38432 48366 57/// 333 91105 91202;
0137067240999992010010803004+46300+007467FM-12+150899999V0209999C000019999999N9999999N1-00651-00831999999ADDMA1999999084271MD1619999+9999ME1313619OA149900881REMSYN076AAXX  08034 06724 33/// /0000 11065 21083 38427 48361 56/// 333 91117 91208;
0137067240999992010010804004+46300+007467FM-12+150899999V0200401N000519999999N9999999N1-00641-00821999999ADDMA1999999084201MD1810151+9999ME1313549OA149900151REMSYN076AAXX  08044 06724 33/// /0401 11064 21082 38420 48354 58015 333 91103 91202;
0137067240999992010010805004+46300+007467FM-12+150899999V0200801N001019999999N9999999N1-00581-00821999999ADDMA1999999084121MD1710201+9999ME1313479OA149900261REMSYN076AAXX  08054 06724 33/// /0802 11058 21082 38412 48347 57020 333 91105 91202;
0234067240999992010010806004+46300+007467FM-12+150899999V0200601N001019999999N9999999N1-00631-00771999999ADDAA124000091AL19900091GJ100669IA2999-00409KA1999N-00671MA1999999084071MD1610201+9999ME1313429OA149900881REMSYN100AAXX  08064 06724 33/// /0602 11063 21077 38407 48342 56020 333 21067 3/104 55011 70000 91117 91208;EQDQ01  00002PRCP24
0137067240999992010010807004+46300+007467FM-12+150899999V0200701N002119999999N9999999N1-00511-00731999999ADDMA1999999084031MD1710171+9999ME1313389OA149900411REMSYN076AAXX  08074 06724 33/// /0704 11051 21073 38403 48338 57017 333 91108 91204;
0137067240999992010010808004+46300+007467FM-12+150899999V0200801N002619999999N9999999N1-00451-00711999999ADDMA1999999083991MD1710131+9999ME1313349OA149900511REMSYN076AAXX  08084 06724 33/// /0805 11045 21071 38399 48334 57013 333 91110 91205;
0137067240999992010010809004+46300+007467FM-12+150899999V0201001N002119999999N9999999N1-00441-00671999999ADDMA1999999083961MD1710111+9999ME1313319OA149900511REMSYN076AAXX  08094 06724 33/// /1004 11044 21067 38396 48331 57011 333 91110 91205;
0137067240999992010010810004+46300+007467FM-12+150899999V0201001N002619999999N9999999N1-00301-00621999999ADDMA1999999083901MD1810131+9999ME1313259OA149900621REMSYN076AAXX  08104 06724 33/// /1005 11030 21062 38390 48325 58013 333 91112 91205;
0137067240999992010010811004+46300+007467FM-12+150899999V0200901N002119999999N9999999N1-00101-00611999999ADDMA1999999083821MD1810171+9999ME1313179OA149900621REMSYN076AAXX  08114 06724 33/// /0904 11010 21061 38382 48317 58017 333 91112 91205;
0137067240999992010010812004+46300+007467FM-12+150899999V0201001N002119999999N9999999N1-00021-00611999999ADDMA1999999083741MD1710221+9999ME1313099OA149900621REMSYN076AAXX  08124 06724 33/// /1004 11002 21061 38374 48309 57022 333 91112 91205;
0137067240999992010010813004+46300+007467FM-12+150899999V0200801N001519999999N9999999N1-00051-00571999999ADDMA1999999083681MD1610221+9999ME1313039OA149900511REMSYN076AAXX  08134 06724 33/// /0803 11005 21057 38368 48303 56022 333 91110 91205;
0143067240999992010010814004+46300+007467FM-12+150899999V0201101N001019999999N9999999N1-00061-00581999999ADDMA1999999083661MD1619999+9999ME1313019OA149900461REMSYN082AAXX  08144 06724 33/// /1102 11006 21058 38366 48301 56/// 91340 333 91109 91204;
0137067240999992010010815004+46300+007467FM-12+150899999V0209999C000019999999N9999999N1-00371-00621999999ADDMA1999999083691MD1510051+9999ME1313069OA149900621REMSYN076AAXX  08154 06724 33/// /0000 11037 21062 38369 48306 55005 333 91112 91205;
0137067240999992010010816004+46300+007467FM-12+150899999V0202301N001019999999N9999999N1-00481-00671999999ADDMA1999999083771MD1210091+9999ME1313149OA149900261REMSYN076AAXX  08164 06724 33/// /2302 11048 21067 38377 48314 52009 333 91105 91203;
0137067240999992010010817004+46300+007467FM-12+150899999V0200801N001019999999N9999999N1-00481-00671999999ADDMA1999999083791MD1110131+9999ME1313159OA149900261REMSYN076AAXX  08174 06724 33/// /0802 11048 21067 38379 48315 51013 333 91105 91203;
0156067240999992010010818004+46300+007467FM-12+150899999V0201301N000519999999N9999999N1-00531-00611999999ADDKA1120M+00011MA1999999083801MD1110111+9999ME1313179OA149900621REMSYN082AAXX  08184 06724 33/// /1301 11053 21061 38380 48317 51011 333 10001 91112 91205;
0137067240999992010010819004+46300+007467FM-12+150899999V0209999C000019999999N9999999N1-00591-00641999999ADDMA1999999083841MD1310071+9999ME1313219OA149900151REMSYN076AAXX  08194 06724 33/// /0000 11059 21064 38384 48321 53007 333 91103 91202;
0137067240999992010010820004+46300+007467FM-12+150899999V0200101N000519999999N9999999N1-00561-00671999999ADDMA1999999083861MD1210071+9999ME1313229OA149900151REMSYN076AAXX  08204 06724 33/// /0101 11056 21067 38386 48322 52007 333 91103 91202;
0137067240999992010010821004+46300+007467FM-12+150899999V0202401N000519999999N9999999N1-00611-00671999999ADDMA1999999083891MD1210091+9999ME1313259OA149900261REMSYN076AAXX  08214 06724 33/// /2401 11061 21067 38389 48325 52009 333 91105 91203;
0137067240999992010010822004+46300+007467FM-12+150899999V0203201N001019999999N9999999N1-00651-00701999999ADDMA1999999083901MD1210061+9999ME1313269OA149900211REMSYN076AAXX  08224 06724 33/// /3202 11065 21070 38390 48326 52006 333 91104 91202;
0137067240999992010010823004+46300+007467FM-12+150899999V0201501N000519999999N9999999N1-00651-00701999999ADDMA1999999083871MD1210011+9999ME1313249OA149900261REMSYN076AAXX  08234 06724 33/// /1501 11065 21070 38387 48324 52001 333 91105 91202;
0137067240999992010010900004+46300+007467FM-12+150899999V0201301N001519999999N9999999N1-00681-00721999999ADDMA1999999083841MD1810051+9999ME1313219OA149900461REMSYN076AAXX  09004 06724 33/// /1303 11068 21072 38384 48321 58005 333 91109 91204;
0137067240999992010010901004+46300+007467FM-12+150899999V0203301N000519999999N9999999N1-00681-00691999999ADDMA1999999083871MD1710031+9999ME1313249OA149900361REMSYN076AAXX  09014 06724 33/// /3301 11068 21069 38387 48324 57003 333 91107 91204;
0137067240999992010010902004+46300+007467FM-12+150899999V0209999C000019999999N9999999N1-00671-00691999999ADDMA1999999083901MD1319999+9999ME1313279OA149900311REMSYN076AAXX  09024 06724 33/// /0000 11067 21069 38390 48327 53/// 333 91106 91202;
0137067240999992010010903004+46300+007467FM-12+150899999V0201201N000519999999N9999999N1-00661-00661999999ADDMA1999999083861MD1019999+9999ME1313239OA149900361REMSYN076AAXX  09034 06724 33/// /1201 11066 21066 38386 48323 50/// 333 91107 91204;
0137067240999992010010904004+46300+007467FM-12+150899999V0209999C000019999999N9999999N1-00711-00711999999ADDMA1999999083841MD1810031+9999ME1313219OA149900151REMSYN076AAXX  09044 06724 33/// /0000 11071 21071 38384 48321 58003 333 91103 91202;
0137067240999992010010905004+46300+007467FM-12+150899999V0209999C000019999999N9999999N1-00671-00681999999ADDMA1999999083821MD1710081+9999ME1313199OA149900151REMSYN076AAXX  09054 06724 33/// /0000 11067 21068 38382 48319 57008 333 91103 91201;
0234067240999992010010906004+46300+007467FM-12+150899999V0209999C000019999999N9999999N1-00671-00691999999ADDAA124000091AL19900091GJ101269IA2999-00409KA1999N-00711MA1999999083761MD1710101+9999ME1313139OA149900361REMSYN100AAXX  09064 06724 33/// /0000 11067 21069 38376 48313 57010 333 21071 3/104 55021 70000 91107 91204;EQDQ01  00002PRCP24
0137067240999992010010907004+46300+007467FM-12+150899999V0209999C000019999999N9999999N1-00701-00701999999ADDMA1999999083761MD1710081+9999ME1313149OA149900151REMSYN076AAXX  09074 06724 33/// /0000 11070 21070 38376 48314 57008 333 91103 91201;
0137067240999992010010908004+46300+007467FM-12+150899999V0202001N000519999999N9999999N1-00721-00721999999ADDMA1999999083771MD1510051+9999ME1313159OA149900151REMSYN076AAXX  09084 06724 33/// /2001 11072 21072 38377 48315 55005 333 91103 91201;
0137067240999992010010909004+46300+007467FM-12+150899999V0202101N000519999999N9999999N1-00721-00721999999ADDMA1999999083771MD1210011+9999ME1313159OA149900151REMSYN076AAXX  09094 06724 33/// /2101 11072 21072 38377 48315 52001 333 91103 91202;
0137067240999992010010910004+46300+007467FM-12+150899999V0202601N001519999999N9999999N1-00691-00721999999ADDMA1999999083721MD1810041+9999ME1313109OA149900211REMSYN076AAXX  09104 06724 33/// /2603 11069 21072 38372 48310 58004 333 91104 91203;
0137067240999992010010911004+46300+007467FM-12+150899999V0202701N001019999999N9999999N1-00711-00731999999ADDMA1999999083701MD1710071+9999ME1313089OA149900211REMSYN076AAXX  09114 06724 33/// /2702 11071 21073 38370 48308 57007 333 91104 91203;
0137067240999992010010912004+46300+007467FM-12+150899999V0202601N001019999999N9999999N1-00711-00741999999ADDMA1999999083721MD1510051+9999ME1313109OA149900311REMSYN076AAXX  09124 06724 33/// /2602 11071 21074 38372 48310 55005 333 91106 91203;
0137067240999992010010913004+46300+007467FM-12+150899999V0202501N001019999999N9999999N1-00701-00741999999ADDMA1999999083651MD1710071+9999ME1313039OA149900211REMSYN076AAXX  09134 06724 33/// /2502 11070 21074 38365 48303 57007 333 91104 91203;
0137067240999992010010914004+46300+007467FM-12+150899999V0202901N000519999999N9999999N1-00711-00751999999ADDMA1999999083651MD1710051+9999ME1313039OA149900211REMSYN076AAXX  09144 06724 33/// /2901 11071 21075 38365 48303 57005 333 91104 91202;
0137067240999992010010915004+46300+007467FM-12+150899999V0209999C000019999999N9999999N1-00761-00781999999ADDMA1999999083701MD1510021+9999ME1313089OA149900211REMSYN076AAXX  09154 06724 33/// /0000 11076 21078 38370 48308 55002 333 91104 91203;
0154067240999992010010916004+46300+007467FM-12+150899999V0202601N001019999999N9999999N1-00851-00941999999ADDAA101000591MA1999999083711MD1210061+9999ME1313109OA149900151REMSYN082AAXX  09164 06724 23/// /2602 11085 21094 38371 48310 52006 333 69965 91103 91202;
0154067240999992010010917004+46300+007467FM-12+150899999V0202001N000519999999N9999999N1-00831-00921999999ADDAA101000021MA1999999083741MD1210091+9999ME1313129OA149900151REMSYN082AAXX  09174 06724 23/// /2001 11083 21092 38374 48312 52009 333 69915 91103 91202;
0179067240999992010010918004+46300+007467FM-12+150899999V0209999C000019999999N9999999N1-00841-00951999999ADDAA112001091KA1120M-00671MA1999999083781MD1210081+9999ME1313169OA149900211REMSYN094AAXX  09184 06724 03/// /0000 11084 21095 38378 48316 52008 69992 333 11067 69925 91104 91203;
0137067240999992010010919004+46300+007467FM-12+150899999V0202901N000519999999N9999999N1-00921-00961999999ADDMA1999999083851MD1210141+9999ME1313239OA149900151REMSYN076AAXX  09194 06724 33/// /2901 11092 21096 38385 48323 52014 333 91103 91201;
0137067240999992010010920004+46300+007467FM-12+150899999V0200801N000519999999N9999999N1-00871-00981999999ADDMA1999999083911MD1210171+9999ME1313289OA149900151REMSYN076AAXX  09204 06724 33/// /0801 11087 21098 38391 48328 52017 333 91103 91201;
0154067240999992010010921004+46300+007467FM-12+150899999V0209999C000019999999N9999999N1-00871-00981999999ADDAA101000021MA1999999083931MD1210151+9999ME1313309OA149900151REMSYN082AAXX  09214 06724 23/// /0000 11087 21098 38393 48330 52015 333 69925 91103 91202;
0137067240999992010010922004+46300+007467FM-12+150899999V0202601N000519999999N9999999N1-00911-01011999999ADDMA1999999083951MD1110101+9999ME1313329OA149900101REMSYN076AAXX  09224 06724 33/// /2601 11091 21101 38395 48332 51010 333 91102 91201;
0137067240999992010010923004+46300+007467FM-12+150899999V0209999C000019999999N9999999N1-00911-00981999999ADDMA1999999084021MD1310111+9999ME1313399OA149900101REMSYN076AAXX  09234 06724 33/// /0000 11091 21098 38402 48339 53011 333 91102 91201;
0179067240999992010011000004+46300+007467FM-12+150899999V0202501N000519999999N9999999N1-00961-01071999999ADDAA106000091MA1999999084031MD1110101+9999ME1313409OA149900211REMSYN088AAXX  10004 06724 03/// /2501 11096 21107 38403 48340 51010 69921 333 60005 91104 91202;EQDQ01  00002PRCP06
0137067240999992010011001004+46300+007467FM-12+150899999V0202601N000519999999N9999999N1-00961-01101999999ADDMA1999999084071MD1110121+9999ME1313439OA149900151REMSYN076AAXX  10014 06724 33/// /2601 11096 21110 38407 48343 51012 333 91103 91202;
0096067240999992010011002004+46300+007467FM-12+150899999V0202501N000519999999N9999999N1-00981-01081999999ADDMA1999999084141ME1313509REMSYN060AAXX  10024 06724 33/// /2501 11098 21108 38414 48350 5////;
0096067240999992010011003004+46300+007467FM-12+150899999V0202401N000519999999N9999999N1-00981-01081999999ADDMA1999999084181ME1313549REMSYN060AAXX  10034 06724 43/// /2401 11098 21108 38418 48354 5////;
0137067240999992010011004004+46300+007467FM-12+150899999V0202001N000519999999N9999999N1-00981-01071999999ADDMA1999999084221MD1110151+9999ME1313579OA149900151REMSYN076AAXX  10044 06724 33/// /2001 11098 21107 38422 48357 51015 333 91103 91201;
0137067240999992010011005004+46300+007467FM-12+150899999V0202301N000519999999N9999999N1-00991-01081999999ADDMA1999999084271MD1210131+9999ME1313629OA149900151REMSYN076AAXX  10054 06724 33/// /2301 11099 21108 38427 48362 52013 333 91103 91201;
0257067240999992010011006004+46300+007467FM-12+150899999V0209999C000019999999N9999999N1-00991-01081999999ADDAA112000091AA224001091AL10600191GJ100009IA2999-00409KA1999N-01001MA1999999084331MD1310151+9999ME1313679OA149900151REMSYN112AAXX  10064 06724 03/// /0000 11099 21108 38433 48367 53015 69922 333 21100 3/104 55000 60005 70011 91103 91202;EQDQ01  00002PRCP12
0137067240999992010011007004+46300+007467FM-12+150899999V0209999C000019999999N9999999N1-00981-01031999999ADDMA1999999084411MD1310191+9999ME1313759OA149900101REMSYN076AAXX  10074 06724 33/// /0000 11098 21103 38441 48375 53019 333 91102 91201;
0137067240999992010011008004+46300+007467FM-12+150899999V0209999C000019999999N9999999N1-00951-01061999999ADDMA1999999084471MD1319999+9999ME1313809OA149900101REMSYN076AAXX  10084 06724 33/// /0000 11095 21106 38447 48380 53/// 333 91102 91201;
0137067240999992010011009004+46300+007467FM-12+150899999V0202001N000519999999N9999999N1-00931-01061999999ADDMA1999999084531MD1210201+9999ME1313869OA149900151REMSYN076AAXX  10094 06724 33/// /2001 11093 21106 38453 48386 52020 333 91103 91201;
0154067240999992010011010004+46300+007467FM-12+150899999V0209999C000019999999N9999999N1-00891-01051999999ADDAA101000021MA1999999084611MD1210201+9999ME1313939OA149900101REMSYN082AAXX  10104 06724 23/// /0000 11089 21105 38461 48393 52020 333 69915 91102 91201;
0137067240999992010011011004+46300+007467FM-12+150899999V0202101N000519999999N9999999N1-00891-01051999999ADDMA1999999084621MD1110151+9999ME1313949OA149900101REMSYN076AAXX  10114 06724 33/// /2101 11089 21105 38462 48394 51015 333 91102 91201;
0179067240999992010011012004+46300+007467FM-12+150899999V0202001N000519999999N9999999N1-00811-00951999999ADDAA106000091MA1999999084641MD1210111+9999ME1313959OA149900151REMSYN088AAXX  10124 06724 03/// /2001 11081 21095 38464 48395 52011 69911 333 60005 91103 91202;EQDQ01  00002PRCP06
0137067240999992010011013004+46300+007467FM-12+150899999V0201701N000519999999N9999999N1-00831-00851999999ADDMA1999999084641MD1210031+9999ME1313969OA149900151REMSYN076AAXX  10134 06724 33/// /1701 11083 21085 38464 48396 52003 333 91103 91202;
0137067240999992010011014004+46300+007467FM-12+150899999V0202401N001019999999N9999999N1-00811-00851999999ADDMA1999999084691MD1219999+9999ME1314009OA149900151REMSYN076AAXX  10144 06724 33/// /2402 11081 21085 38469 48400 52/// 333 91103 91202;
0137067240999992010011015004+46300+007467FM-12+150899999V0202601N001019999999N9999999N1-00811-00831999999ADDMA1999999084741MD1210101+9999ME1314059OA149900211REMSYN076AAXX  10154 06724 33/// /2602 11081 21083 38474 48405 52010 333 91104 91203;
0154067240999992010011016004+46300+007467FM-12+150899999V0202601N000519999999N9999999N1-00831-00911999999ADDAA101000021MA1999999084781MD1110141+9999ME1314089OA149900211REMSYN082AAXX  10164 06724 23/// /2601 11083 21091 38478 48408 51014 333 69915 91104 91203;
0137067240999992010011017004+46300+007467FM-12+150899999V0200701N000519999999N9999999N1-00881-01021999999ADDMA1999999084831MD1210141+9999ME1314139OA149900151REMSYN076AAXX  10174 06724 33/// /0701 11088 21102 38483 48413 52014 333 91103 91202;
0198067240999992010011018004+46300+007467FM-12+150899999V0200901N001019999999N9999999N1-00841-00971999999ADDAA112000091KA1120M-00781MA1999999084891MD1110151+9999ME1314189OA149900261REMSYN094AAXX  10184 06724 03/// /0902 11084 21097 38489 48418 51015 69922 333 11078 60005 91105 91203;EQDQ01  00002PRCP12
0137067240999992010011019004+46300+007467FM-12+150899999V0200301N000519999999N9999999N1-00881-01021999999ADDMA1999999084921MD1210141+9999ME1314219OA149900261REMSYN076AAXX  10194 06724 33/// /0301 11088 21102 38492 48421 52014 333 91105 91202;
0137067240999992010011020004+46300+007467FM-12+150899999V0200601N001019999999N9999999N1-00861-00981999999ADDMA1999999084931MD1210101+9999ME1314229OA149900261REMSYN076AAXX  10204 06724 33/// /0602 11086 21098 38493 48422 52010 333 91105 91203;
0137067240999992010011021004+46300+007467FM-12+150899999V0200601N001519999999N9999999N1-00871-00981999999ADDMA1999999084931MD1210041+9999ME1314229OA149900311REMSYN076AAXX  10214 06724 33/// /0603 11087 21098 38493 48422 52004 333 91106 91203;
0137067240999992010011022004+46300+007467FM-12+150899999V0200501N001519999999N9999999N1-00901-01001999999ADDMA1999999084931MD1210011+9999ME1314229OA149900361REMSYN076AAXX  10224 06724 33/// /0503 11090 21100 38493 48422 52001 333 91107 91203;
0137067240999992010011023004+46300+007467FM-12+150899999V0200701N001519999999N9999999N1-00911-01001999999ADDMA1999999084921MD1710011+9999ME1314219OA149900361REMSYN076AAXX  10234 06724 33/// /0703 11091 21100 38492 48421 57001 333 91107 91204;
0137067240999992010011100004+46300+007467FM-12+150899999V0200301N001019999999N9999999N1-00991-01071999999ADDMA1999999084911MD1710021+9999ME1314209OA149900361REMSYN076AAXX  11004 06724 33/// /0302 11099 21107 38491 48420 57002 333 91107 91204;
0137067240999992010011101004+46300+007467FM-12+150899999V0200501N001019999999N9999999N1-01041-01201999999ADDMA1999999084911MD1710021+9999ME1314209OA149900311REMSYN076AAXX  11014 06724 33/// /0502 11104 21120 38491 48420 57002 333 91106 91203;
0137067240999992010011102004+46300+007467FM-12+150899999V0200401N001019999999N9999999N1-01091-01211999999ADDMA1999999084931MD1519999+9999ME1314229OA149900261REMSYN076AAXX  11024 06724 33/// /0402 11109 21121 38493 48422 55/// 333 91105 91203;
0137067240999992010011103004+46300+007467FM-12+150899999V0200101N000519999999N9999999N1-01031-01371999999ADDMA1999999084921MD1019999+9999ME1314219OA149900361REMSYN076AAXX  11034 06724 33/// /0101 11103 21137 38492 48421 50/// 333 91107 91204;
0137067240999992010011104004+46300+007467FM-12+150899999V0200101N000519999999N9999999N1-00931-01271999999ADDMA1999999084921MD1010011+9999ME1314219OA149900151REMSYN076AAXX  11044 06724 33/// /0101 11093 21127 38492 48421 50001 333 91103 91203;
0137067240999992010011105004+46300+007467FM-12+150899999V0200401N001519999999N9999999N1-00971-01181999999ADDMA1999999084911MD1710021+9999ME1314209OA149900151REMSYN076AAXX  11054 06724 33/// /0403 11097 21118 38491 48420 57002 333 91103 91203;
0215067240999992010011106004+46300+007467FM-12+150899999V0200401N002119999999N9999999N1-00931-01181999999ADDAA124000391AL11200091GJ100009IA2999-00409KA1999N-01131MA1999999084901MD1710021+9999ME1314199OA149900361REMSYN100AAXX  11064 06724 33/// /0404 11093 21118 38490 48419 57002 333 21113 3/104 55000 70002 91107 91204;
0137067240999992010011107004+46300+007467FM-12+150899999V0200201N000519999999N9999999N1-00961-01141999999ADDMA1999999084891MD1710031+9999ME1314189OA149900261REMSYN076AAXX  11074 06724 33/// /0201 11096 21114 38489 48418 57003 333 91105 91204;
0137067240999992010011108004+46300+007467FM-12+150899999V0200101N000519999999N9999999N1-00851-01061999999ADDMA1999999084901MD1519999+9999ME1314199OA149900261REMSYN076AAXX  11084 06724 33/// /0101 11085 21106 38490 48419 55/// 333 91105 91203;
0137067240999992010011109004+46300+007467FM-12+150899999V0200501N001519999999N9999999N1-00701-00931999999ADDMA1999999084931MD1310031+9999ME1314229OA149900361REMSYN076AAXX  11094 06724 33/// /0503 11070 21093 38493 48422 53003 333 91107 91206;
0137067240999992010011110004+46300+007467FM-12+150899999V0209999C000019999999N9999999N1-00531-00841999999ADDMA1999999084951MD1119999+9999ME1314249OA149900361REMSYN076AAXX  11104 06724 33/// /0000 11053 21084 38495 48424 51/// 333 91107 91206;
0137067240999992010011111004+46300+007467FM-12+150899999V0202401N001019999999N9999999N1-00611-00811999999ADDMA1999999084961MD1210061+9999ME1314259OA149900211REMSYN076AAXX  11114 06724 33/// /2402 11061 21081 38496 48425 52006 333 91104 91202;
0156067240999992010011112004+46300+007467FM-12+150899999V0202501N001519999999N9999999N1-00551-00951999999ADDMA1999999084931MD1410001+9999ME1314229OA149900361REMSYN076AAXX  11124 06724 33/// /2503 11055 21095 38493 48422 58000 333 91107 91206;EQDQ01+000082APCTEN
0137067240999992010011113004+46300+007467FM-12+150899999V0202401N001019999999N9999999N1-00491-00861999999ADDMA1999999084931MD1710021+9999ME1314229OA149900211REMSYN076AAXX  11134 06724 33/// /2402 11049 21086 38493 48422 57002 333 91104 91203;
0096067240999992010011114004+46300+007467FM-12+150899999V0202301N001019999999N9999999N1-00461-00761999999ADDMA1999999084951ME1314249REMSYN060AAXX  11144 06724 33/// /2302 11046 21076 38495 48424 5////;
0137067240999992010011115004+46300+007467FM-12+150899999V0202401N000519999999N9999999N1-00461-00781999999ADDMA1999999084971MD1210041+9999ME1314269OA149900211REMSYN076AAXX  11154 06724 33/// /2401 11046 21078 38497 48426 52004 333 91104 91203;
0137067240999992010011116004+46300+007467FM-12+150899999V0209999C000019999999N9999999N1-00681-00811999999ADDMA1999999085001MD1310071+9999ME1314289OA149900151REMSYN076AAXX  11164 06724 33/// /0000 11068 21081 38500 48428 53007 333 91103 91202;
0137067240999992010011117004+46300+007467FM-12+150899999V0200201N000519999999N9999999N1-00761-00861999999ADDMA1999999085041MD1310091+9999ME1314329OA149900151REMSYN076AAXX  11174 06724 33/// /0201 11076 21086 38504 48432 53009 333 91103 91202;
0156067240999992010011118004+46300+007467FM-12+150899999V0200301N001019999999N9999999N1-00761-00921999999ADDKA1120M-00421MA1999999085071MD1310101+9999ME1314359OA149900361REMSYN082AAXX  11184 06724 33/// /0302 11076 21092 38507 48435 53010 333 11042 91107 91206;
0137067240999992010011119004+46300+007467FM-12+150899999V0200301N001019999999N9999999N1-00801-00961999999ADDMA1999999085101MD1310101+9999ME1314389OA149900151REMSYN076AAXX  11194 06724 33/// /0302 11080 21096 38510 48438 53010 333 91103 91202;
0137067240999992010011120004+46300+007467FM-12+150899999V0200401N001519999999N9999999N1-00811-00961999999ADDMA1999999085131MD1110091+9999ME1314409OA149900211REMSYN076AAXX  11204 06724 33/// /0403 11081 21096 38513 48440 51009 333 91104 91203;
0137067240999992010011121004+46300+007467FM-12+150899999V0200501N002119999999N9999999N1-00771-00981999999ADDMA1999999085131MD1210061+9999ME1314409OA149900361REMSYN076AAXX  11214 06724 33/// /0504 11077 21098 38513 48440 52006 333 91107 91204;
0137067240999992010011122004+46300+007467FM-12+150899999V0200501N001519999999N9999999N1-00841-01041999999ADDMA1999999085151MD1210051+9999ME1314429OA149900361REMSYN076AAXX  11224 06724 33/// /0503 11084 21104 38515 48442 52005 333 91107 91204;
0137067240999992010011123004+46300+007467FM-12+150899999V0200501N001019999999N9999999N1-00811-01031999999ADDMA1999999085151MD1210021+9999ME1314429OA149900311REMSYN076AAXX  11234 06724 33/// /0502 11081 21103 38515 48442 52002 333 91106 91204;
0137067240999992010011200004+46300+007467FM-12+150899999V0200201N000519999999N9999999N1-00831-01041999999ADDMA1999999085151MD1010021+9999ME1314429OA149900361REMSYN076AAXX  12004 06724 33/// /0201 11083 21104 38515 48442 50002 333 91107 91204;
0137067240999992010011201004+46300+007467FM-12+150899999V0200401N001519999999N9999999N1-00761-00971999999ADDMA1999999085141MD1710011+9999ME1314419OA149900211REMSYN076AAXX  12014 06724 33/// /0403 11076 21097 38514 48441 57001 333 91104 91203;
0137067240999992010011202004+46300+007467FM-12+150899999V0200401N001519999999N9999999N1-00761-00991999999ADDMA1999999085121MD1719999+9999ME1314399OA149900211REMSYN076AAXX  12024 06724 33/// /0403 11076 21099 38512 48439 57/// 333 91104 91203;
0137067240999992010011203004+46300+007467FM-12+150899999V0200401N001519999999N9999999N1-00711-00961999999ADDMA1999999085101MD1710051+9999ME1314389OA149900311REMSYN076AAXX  12034 06724 33/// /0403 11071 21096 38510 48438 57005 333 91106 91204;
0137067240999992010011204004+46300+007467FM-12+150899999V0200401N001519999999N9999999N1-00851-01091999999ADDMA1999999085091MD1710051+9999ME1314379OA149900211REMSYN076AAXX  12044 06724 33/// /0403 11085 21109 38509 48437 57005 333 91104 91203;
0137067240999992010011205004+46300+007467FM-12+150899999V0200501N001519999999N9999999N1-00831-01091999999ADDMA1999999085081MD1710041+9999ME1314369OA149900211REMSYN076AAXX  12054 06724 33/// /0503 11083 21109 38508 48436 57004 333 91104 91203;
0234067240999992010011206004+46300+007467FM-12+150899999V0200301N001519999999N9999999N1-00861-01141999999ADDAA124000091AL19900091GJ104569IA2999-00409KA1999N-00911MA1999999085061MD1710041+9999ME1314349OA149900361REMSYN100AAXX  12064 06724 33/// /0303 11086 21114 38506 48434 57004 333 21091 3/104 55076 70000 91107 91204;EQDQ01  00002PRCP24
0137067240999992010011207004+46300+007467FM-12+150899999V0200301N001519999999N9999999N1-00871-01151999999ADDMA1999999085031MD1710061+9999ME1314319OA149900261REMSYN076AAXX  12074 06724 33/// /0303 11087 21115 38503 48431 57006 333 91105 91204;
0137067240999992010011208004+46300+007467FM-12+150899999V0200401N002619999999N9999999N1-00801-01101999999ADDMA1999999084991MD1819999+9999ME1314289OA149900411REMSYN076AAXX  12084 06724 33/// /0405 11080 21110 38499 48428 58/// 333 91108 91205;
0137067240999992010011209004+46300+007467FM-12+150899999V0200501N002119999999N9999999N1-00591-00971999999ADDMA1999999084981MD1710081+9999ME1314279OA149900411REMSYN076AAXX  12094 06724 33/// /0504 11059 21097 38498 48427 57008 333 91108 91205;
0137067240999992010011210004+46300+007467FM-12+150899999V0200501N001519999999N9999999N1-00381-00961999999ADDMA1999999084951MD1710081+9999ME1314249OA149900411REMSYN076AAXX  12104 06724 33/// /0503 11038 21096 38495 48424 57008 333 91108 91205;
0137067240999992010011211004+46300+007467FM-12+150899999V0200701N001519999999N9999999N1-00191-00931999999ADDMA1999999084871MD1710121+9999ME1314169OA149900411REMSYN076AAXX  12114 06724 33/// /0703 11019 21093 38487 48416 57012 333 91108 91205;
0137067240999992010011212004+46300+007467FM-12+150899999V0200701N002119999999N9999999N1-00151-01031999999ADDMA1999999084791MD1710191+9999ME1314099OA149900511REMSYN076AAXX  12124 06724 33/// /0704 11015 21103 38479 48409 57019 333 91110 91205;
0137067240999992010011213004+46300+007467FM-12+150899999V0200901N002619999999N9999999N1-00031-01021999999ADDMA1999999084731MD1610221+9999ME1314039OA149900511REMSYN076AAXX  12134 06724 33/// /0905 11003 21102 38473 48403 56022 333 91110 91205;
0096067240999992010011214004+46300+007467FM-12+150899999V0200701N003119999999N9999999N1-00041-00881999999ADDMA1999999084661ME1313969REMSYN060AAXX  12144 06724 33/// /0706 11004 21088 38466 48396 5////;
0137067240999992010011215004+46300+007467FM-12+150899999V0200601N005119999999N9999999N1-00081-00921999999ADDMA1999999084631MD1610161+9999ME1313949OA149900931REMSYN076AAXX  12154 06724 33/// /0610 11008 21092 38463 48394 56016 333 91118 91210;
0137067240999992010011216004+46300+007467FM-12+150899999V0200601N005719999999N9999999N1-00221-00961999999ADDMA1999999084551MD1810181+9999ME1313869OA149900981REMSYN076AAXX  12164 06724 33/// /0611 11022 21096 38455 48386 58018 333 91119 91211;
0137067240999992010011217004+46300+007467FM-12+150899999V0200601N006219999999N9999999N1-00271-00981999999ADDMA1999999084551MD1710111+9999ME1313869OA149901241REMSYN076AAXX  12174 06724 33/// /0612 11027 21098 38455 48386 57011 333 91124 91213;
0156067240999992010011218004+46300+007467FM-12+150899999V0200701N007219999999N9999999N1-00311-00991999999ADDKA1120M-00011MA1999999084551MD1710081+9999ME1313869OA149901441REMSYN082AAXX  12184 06724 33/// /0714 11031 21099 38455 48386 57008 333 11001 91128 91214;
0137067240999992010011219004+46300+007467FM-12+150899999V0200701N006219999999N9999999N1-00321-01031999999ADDMA1999999084581MD1210031+9999ME1313899OA149901441REMSYN076AAXX  12194 06724 33/// /0712 11032 21103 38458 48389 52003 333 91128 91214;
0137067240999992010011220004+46300+007467FM-12+150899999V0200701N005719999999N9999999N1-00341-01031999999ADDMA1999999084571MD1210021+9999ME1313889OA149901491REMSYN076AAXX  12204 06724 33/// /0711 11034 21103 38457 48388 52002 333 91129 91214;
0137067240999992010011221004+46300+007467FM-12+150899999V0200601N007219999999N9999999N1-00311-01071999999ADDMA1999999084521MD1710031+9999ME1313849OA149901491REMSYN076AAXX  12214 06724 33/// /0614 11031 21107 38452 48384 57003 333 91129 91214;
0137067240999992010011222004+46300+007467FM-12+150899999V0200601N006719999999N9999999N1-00311-01051999999ADDMA1999999084451MD1710131+9999ME1313779OA149901541REMSYN076AAXX  12224 06724 33/// /0613 11031 21105 38445 48377 57013 333 91130 91216;
0137067240999992010011223004+46300+007467FM-12+150899999V0200701N004119999999N9999999N1-00311-01021999999ADDMA1999999084501MD1510071+9999ME1313829OA149901541REMSYN076AAXX  12234 06724 33/// /0708 11031 21102 38450 48382 55007 333 91130 91216;
0137067240999992010011300004+46300+007467FM-12+150899999V0200701N003619999999N9999999N1-00301-01061999999ADDMA1999999084531MD1310011+9999ME1313859OA149901541REMSYN076AAXX  13004 06724 33/// /0707 11030 21106 38453 48385 53001 333 91130 91216;
0137067240999992010011301004+46300+007467FM-12+150899999V0200701N002619999999N9999999N1-00321-01001999999ADDMA1999999084551MD1210101+9999ME1313869OA149901031REMSYN076AAXX  13014 06724 33/// /0705 11032 21100 38455 48386 52010 333 91120 91209;
0137067240999992010011302004+46300+007467FM-12+150899999V0200701N004619999999N9999999N1-00371-00831999999ADDMA1999999084501MD1819999+9999ME1313829OA149901031REMSYN076AAXX  13024 06724 33/// /0709 11037 21083 38450 48382 58/// 333 91120 91209;
0137067240999992010011303004+46300+007467FM-12+150899999V0200601N002119999999N9999999N1-00381-00871999999ADDMA1999999084471MD1719999+9999ME1313799OA149901541REMSYN076AAXX  13034 06724 33/// /0604 11038 21087 38447 48379 57/// 333 91130 91216;
0137067240999992010011304004+46300+007467FM-12+150899999V0201001N001519999999N9999999N1-00401-00851999999ADDMA1999999084441MD1610111+9999ME1313769OA149900671REMSYN076AAXX  13044 06724 33/// /1003 11040 21085 38444 48376 56011 333 91113 91206;
0137067240999992010011305004+46300+007467FM-12+150899999V0200701N002119999999N9999999N1-00401-00801999999ADDMA1999999084451MD1710051+9999ME1313779OA149900671REMSYN076AAXX  13054 06724 33/// /0704 11040 21080 38445 48377 57005 333 91113 91206;
0234067240999992010011306004+46300+007467FM-12+150899999V0200601N003119999999N9999999N1-00421-00701999999ADDAA124000091AL19900091GJ104509IA2999-00409KA1999N-00421MA1999999084471MD1510001+9999ME1313799OA149901541REMSYN100AAXX  13064 06724 33/// /0606 11042 21070 38447 48379 55000 333 21042 3/104 55075 70000 91130 91216;EQDQ01  00002PRCP24
0137067240999992010011307004+46300+007467FM-12+150899999V0200501N002619999999N9999999N1-00451-00621999999ADDMA1999999084521MD1210081+9999ME1313849OA149900621REMSYN076AAXX  13074 06724 33/// /0505 11045 21062 38452 48384 52008 333 91112 91207;
0154067240999992010011308004+46300+007467FM-12+150899999V0200501N001519999999N9999999N1-00441-00581999999ADDAA101000391MA1999999084581MD1310131+9999ME1313899OA149900621REMSYN082AAXX  13084 06724 23/// /0503 11044 21058 38458 48389 53013 333 69935 91112 91207;
0154067240999992010011309004+46300+007467FM-12+150899999V0200601N002119999999N9999999N1-00401-00561999999ADDAA101000021MA1999999084611MD1110141+9999ME1313929OA149900671REMSYN082AAXX  13094 06724 23/// /0604 11040 21056 38461 48392 51014 333 69925 91113 91207;
0137067240999992010011310004+46300+007467FM-12+150899999V0200601N002619999999N9999999N1-00371-00561999999ADDMA1999999084651MD1110131+9999ME1313969OA149900511REMSYN076AAXX  13104 06724 33/// /0605 11037 21056 38465 48396 51013 333 91110 91205;
0137067240999992010011311004+46300+007467FM-12+150899999V0200601N002119999999N9999999N1-00331-00541999999ADDMA1999999084661MD1110081+9999ME1313979OA149900511REMSYN076AAXX  13114 06724 33/// /0604 11033 21054 38466 48397 51008 333 91110 91205;
0160067240999992010011312004+46300+007467FM-12+150899999V0200701N001519999999N9999999N1-00311-00531999999ADDAA106000591MA1999999084631MD1010021+9999ME1313949OA149901031REMSYN088AAXX  13124 06724 03/// /0703 11031 21053 38463 48394 50002 69951 333 60005 91120 91209;
0137067240999992010011313004+46300+007467FM-12+150899999V0200801N001019999999N9999999N1-00281-00521999999ADDMA1999999084611MD1810041+9999ME1313929OA149900511REMSYN076AAXX  13134 06724 33/// /0802 11028 21052 38461 48392 58004 333 91110 91206;
0137067240999992010011314004+46300+007467FM-12+150899999V0200701N000519999999N9999999N1-00301-00501999999ADDMA1999999084611MD1719999+9999ME1313929OA149900311REMSYN076AAXX  13144 06724 33/// /0701 11030 21050 38461 48392 57/// 333 91106 91204;
0137067240999992010011315004+46300+007467FM-12+150899999V0209999C000019999999N9999999N1-00291-00401999999ADDMA1999999084641MD1310011+9999ME1313959OA149900511REMSYN076AAXX  13154 06724 33/// /0000 11029 21040 38464 48395 53001 333 91110 91206;
0154067240999992010011316004+46300+007467FM-12+150899999V0209999C000019999999N9999999N1-00311-00361999999ADDAA101000021MA1999999084661MD1210051+9999ME1313979OA149900151REMSYN082AAXX  13164 06724 23/// /0000 11031 21036 38466 48397 52005 333 69915 91103 91202;
0154067240999992010011317004+46300+007467FM-12+150899999V0203401N000519999999N9999999N1-00321-00381999999ADDAA101000021MA1999999084701MD1210091+9999ME1314009OA149900101REMSYN082AAXX  13174 06724 23/// /3401 11032 21038 38470 48400 52009 333 69915 91102 91201;
0179067240999992010011318004+46300+007467FM-12+150899999V0200401N000519999999N9999999N1-00291-00401999999ADDAA112000891KA1120M-00261MA1999999084711MD1210071+9999ME1314019OA149900621REMSYN094AAXX  13184 06724 03/// /0401 11029 21040 38471 48401 52007 69972 333 11026 60005 91112 91207;
0137067240999992010011319004+46300+007467FM-12+150899999V0200501N000519999999N9999999N1-00311-00411999999ADDMA1999999084731MD1210071+9999ME1314039OA149900101REMSYN076AAXX  13194 06724 33/// /0501 11031 21041 38473 48403 52007 333 91102 91201;
0096067240999992010011400004+46300+007467FM-12+150899999V0200401N001519999999N9999999N1-00531-00701999999ADDMA1999999084621ME1313939REMSYN060AAXX  14004 06724 43/// /0403 11053 21070 38462 48393 5////;
0137067240999992010011401004+46300+007467FM-12+150899999V0200601N002119999999N9999999N1-00381-00651999999ADDMA1999999084561MD1819999+9999ME1313879OA149900311REMSYN076AAXX  14014 06724 33/// /0604 11038 21065 38456 48387 58/// 333 91106 91204;
0137067240999992010011402004+46300+007467FM-12+150899999V0200501N001519999999N9999999N1-00501-00711999999ADDMA1999999084551MD1719999+9999ME1313879OA149900311REMSYN076AAXX  14024 06724 33/// /0503 11050 21071 38455 48387 57/// 333 91106 91204;
0096067240999992010011403004+46300+007467FM-12+150899999V0200501N002619999999N9999999N1-00501-00751999999ADDMA1999999084541ME1313869REMSYN060AAXX  14034 06724 33/// /0505 11050 21075 38454 48386 5////;
0137067240999992010011404004+46300+007467FM-12+150899999V0200601N001519999999N9999999N1-00561-00801999999ADDMA1999999084501MD1710061+9999ME1313829OA149900411REMSYN076AAXX  14044 06724 33/// /0603 11056 21080 38450 48382 57006 333 91108 91205;
0137067240999992010011405004+46300+007467FM-12+150899999V0200401N001519999999N9999999N1-00521-00841999999ADDMA1999999084481MD1710071+9999ME1313809OA149900411REMSYN076AAXX  14054 06724 33/// /0403 11052 21084 38448 48380 57007 333 91108 91204;
0215067240999992010011406004+46300+007467FM-12+150899999V0200401N002619999999N9999999N1-00601-00921999999ADDAA124000891AL14200091GJ100009IA2999-00309KA1999N-00591MA1999999084461MD1710081+9999ME1313799OA149900411REMSYN100AAXX  14064 06724 33/// /0405 11060 21092 38446 48379 57008 333 21059 3/103 55000 70007 91108 91205;
0137067240999992010011407004+46300+007467FM-12+150899999V0200501N002619999999N9999999N1-00531-00951999999ADDMA1999999084451MD1710051+9999ME1313779OA149900361REMSYN076AAXX  14074 06724 33/// /0505 11053 21095 38445 48377 57005 333 91107 91205;
0137067240999992010011408004+46300+007467FM-12+150899999V0200501N002619999999N9999999N1-00481-00961999999ADDMA1999999084471MD1519999+9999ME1313799OA149900461REMSYN076AAXX  14084 06724 33/// /0505 11048 21096 38447 48379 55/// 333 91109 91205;
0137067240999992010011409004+46300+007467FM-12+150899999V0200701N002619999999N9999999N1-00301-00911999999ADDMA1999999084471MD1510011+9999ME1313799OA149900571REMSYN076AAXX  14094 06724 33/// /0705 11030 21091 38447 48379 55001 333 91111 91206;
0137067240999992010011410004+46300+007467FM-12+150899999V0200701N005119999999N9999999N1-00141-00871999999ADDMA1999999084441MD1810011+9999ME1313769OA149900981REMSYN076AAXX  14104 06724 33/// /0710 11014 21087 38444 48376 58001 333 91119 91210;
0137067240999992010011411004+46300+007467FM-12+150899999V0200701N004619999999N9999999N1-00051-00881999999ADDMA1999999084421MD1710051+9999ME1313749OA149901391REMSYN076AAXX  14114 06724 33/// /0709 11005 21088 38442 48374 57005 333 91127 91211;
0137067240999992010011412004+46300+007467FM-12+150899999V0200701N005719999999N9999999N1-00021-00911999999ADDMA1999999084391MD1710081+9999ME1313719OA149901391REMSYN076AAXX  14124 06724 33/// /0711 11002 21091 38439 48371 57008 333 91127 91212;
0137067240999992010011413004+46300+007467FM-12+150899999V0200701N006719999999N9999999N1-00031-00891999999ADDMA1999999084391MD1710051+9999ME1313719OA149901241REMSYN076AAXX  14134 06724 33/// /0713 11003 21089 38439 48371 57005 333 91124 91213;
0137067240999992010011414004+46300+007467FM-12+150899999V0200601N006219999999N9999999N1-00011-00881999999ADDMA1999999084421MD1510001+9999ME1313749OA149901241REMSYN076AAXX  14144 06724 33/// /0612 11001 21088 38442 48374 55000 333 91124 91213;
0137067240999992010011415004+46300+007467FM-12+150899999V0200601N005719999999N9999999N1-00041-00851999999ADDMA1999999084421MD1210031+9999ME1313749OA149901391REMSYN076AAXX  14154 06724 33/// /0611 11004 21085 38442 48374 52003 333 91127 91213;
0137067240999992010011416004+46300+007467FM-12+150899999V0200601N006219999999N9999999N1-00051-00901999999ADDMA1999999084441MD1210051+9999ME1313769OA149901241REMSYN076AAXX  14164 06724 33/// /0612 11005 21090 38444 48376 52005 333 91124 91212;
0137067240999992010011417004+46300+007467FM-12+150899999V0200601N004619999999N9999999N1-00101-00881999999ADDMA1999999084491MD1310071+9999ME1313809OA149901241REMSYN076AAXX  14174 06724 33/// /0609 11010 21088 38449 48380 53007 333 91124 91212;
0156067240999992010011418004+46300+007467FM-12+150899999V0200501N004119999999N9999999N1-00091-00871999999ADDKA1120M+00001MA1999999084561MD1310141+9999ME1313879OA149901391REMSYN082AAXX  14184 06724 33/// /0508 11009 21087 38456 48387 53014 333 10000 91127 91213;
0137067240999992010011419004+46300+007467FM-12+150899999V0200601N003119999999N9999999N1-00121-00851999999ADDMA1999999084631MD1310191+9999ME1313949OA149900881REMSYN076AAXX  14194 06724 33/// /0606 11012 21085 38463 48394 53019 333 91117 91209;
0137067240999992010011420004+46300+007467FM-12+150899999V0200601N003619999999N9999999N1-00101-00901999999ADDMA1999999084681MD1110191+9999ME1313989OA149900721REMSYN076AAXX  14204 06724 33/// /0607 11010 21090 38468 48398 51019 333 91114 91208;
0137067240999992010011421004+46300+007467FM-12+150899999V0200501N002119999999N9999999N1-00141-00901999999ADDMA1999999084771MD1210211+9999ME1314079OA149901241REMSYN076AAXX  14214 06724 33/// /0504 11014 21090 38477 48407 52021 333 91124 91212;
0137067240999992010011422004+46300+007467FM-12+150899999V0200601N002119999999N9999999N1-00111-00881999999ADDMA1999999084851MD1310221+9999ME1314149OA149900571REMSYN076AAXX  14224 06724 33/// /0604 11011 21088 38485 48414 53022 333 91111 91206;
0137067240999992010011423004+46300+007467FM-12+150899999V0200501N001519999999N9999999N1-00121-00891999999ADDMA1999999084881MD1110201+9999ME1314179OA149900411REMSYN076AAXX  14234 06724 33/// /0503 11012 21089 38488 48417 51020 333 91108 91204;
0137067240999992010011500004+46300+007467FM-12+150899999V0200601N001519999999N9999999N1-00211-00871999999ADDMA1999999084911MD1110141+9999ME1314209OA149901241REMSYN076AAXX  15004 06724 33/// /0603 11021 21087 38491 48420 51014 333 91124 91213;
0137067240999992010011501004+46300+007467FM-12+150899999V0200601N001019999999N9999999N1-00231-00861999999ADDMA1999999084971MD1310121+9999ME1314269OA149900261REMSYN076AAXX  15014 06724 33/// /0602 11023 21086 38497 48426 53012 333 91105 91203;
0137067240999992010011502004+46300+007467FM-12+150899999V0200101N000519999999N9999999N1-00311-00811999999ADDMA1999999085041MD1310161+9999ME1314329OA149900211REMSYN076AAXX  15024 06724 33/// /0101 11031 21081 38504 48432 53016 333 91104 91203;
0096067240999992010011503004+46300+007467FM-12+150899999V0200201N000519999999N9999999N1-00331-00861999999ADDMA1999999085111ME1314399REMSYN060AAXX  15034 06724 33/// /0201 11033 21086 38511 48439 5////;
0137067240999992010011504004+46300+007467FM-12+150899999V0200501N001519999999N9999999N1-00431-00911999999ADDMA1999999085131MD1110161+9999ME1314419OA149900211REMSYN076AAXX  15044 06724 33/// /0503 11043 21091 38513 48441 51016 333 91104 91203;
0137067240999992010011505004+46300+007467FM-12+150899999V0200201N001019999999N9999999N1-00461-00981999999ADDMA1999999085211MD1310171+9999ME1314489OA149900211REMSYN076AAXX  15054 06724 33/// /0202 11046 21098 38521 48448 53017 333 91104 91203;
0234067240999992010011506004+46300+007467FM-12+150899999V0200301N001019999999N9999999N1-00461-00931999999ADDAA124000091AL19900091GJ101209IA2999-00409KA1999N-00631MA1999999085301MD1310191+9999ME1314569OA149900721REMSYN100AAXX  15064 06724 33/// /0302 11046 21093 38530 48456 53019 333 21063 3/104 55020 70000 91114 91208;EQDQ01  00002PRCP24
0137067240999992010011507004+46300+007467FM-12+150899999V0200301N001019999999N9999999N1-00461-00941999999ADDMA1999999085401MD1210271+9999ME1314659OA149900151REMSYN076AAXX  15074 06724 33/// /0302 11046 21094 38540 48465 52027 333 91103 91203;
0137067240999992010011508004+46300+007467FM-12+150899999V0200201N001019999999N9999999N1-00401-00891999999ADDMA1999999085501MD1219999+9999ME1314759OA149900151REMSYN076AAXX  15084 06724 33/// /0202 11040 21089 38550 48475 52/// 333 91103 91203;
0137067240999992010011509004+46300+007467FM-12+150899999V0200501N000519999999N9999999N1-00291-00881999999ADDMA1999999085591MD1210291+9999ME1314839OA149900211REMSYN076AAXX  15094 06724 33/// /0501 11029 21088 38559 48483 52029 333 91104 91203;
0137067240999992010011510004+46300+007467FM-12+150899999V0209999C000019999999N9999999N1-00091-00881999999ADDMA1999999085641MD1110241+9999ME1314889OA149900151REMSYN076AAXX  15104 06724 33/// /0000 11009 21088 38564 48488 51024 333 91103 91202;
0137067240999992010011511004+46300+007467FM-12+150899999V0201501N000519999999N9999999N1-00101-00821999999ADDMA1999999085641MD1210141+9999ME1314889OA149900211REMSYN076AAXX  15114 06724 33/// /1501 11010 21082 38564 48488 52014 333 91104 91202;
0137067240999992010011512004+46300+007467FM-12+150899999V0200401N001019999999N9999999N1+00051-00851999999ADDMA1999999085651MD1210061+9999ME1314909OA149900311REMSYN076AAXX  15124 06724 33/// /0402 10005 21085 38565 48490 52006 333 91106 91204;
0137067240999992010011513004+46300+007467FM-12+150899999V0202001N001019999999N9999999N1+00081-00721999999ADDMA1999999085661MD1210021+9999ME1314919OA149900311REMSYN076AAXX  15134 06724 33/// /2002 10008 21072 38566 48491 52002 333 91106 91204;
0137067240999992010011514004+46300+007467FM-12+150899999V0202601N001019999999N9999999N1+00031-00731999999ADDMA1999999085711MD1210071+9999ME1314959OA149900261REMSYN076AAXX  15144 06724 33/// /2602 10003 21073 38571 48495 52007 333 91105 91203;
0137067240999992010011515004+46300+007467FM-12+150899999V0202601N001019999999N9999999N1+00011-00751999999ADDMA1999999085771MD1210121+9999ME1315019OA149900311REMSYN076AAXX  15154 06724 33/// /2602 10001 21075 38577 48501 52012 333 91106 91204;
0137067240999992010011516004+46300+007467FM-12+150899999V0209999C000019999999N9999999N1-00101-00721999999ADDMA1999999085821MD1110161+9999ME1315059OA149900211REMSYN076AAXX  15164 06724 33/// /0000 11010 21072 38582 48505 51016 333 91104 91202;
0137067240999992010011517004+46300+007467FM-12+150899999V0200401N001019999999N9999999N1-00301-00771999999ADDMA1999999085891MD1110181+9999ME1315119OA149900151REMSYN076AAXX  15174 06724 33/// /0402 11030 21077 38589 48511 51018 333 91103 91202;
0156067240999992010011518004+46300+007467FM-12+150899999V0200501N001519999999N9999999N1-00291-00761999999ADDKA1120M+00091MA1999999085931MD1110161+9999ME1315159OA149900311REMSYN082AAXX  15184 06724 33/// /0503 11029 21076 38593 48515 51016 333 10009 91106 91204;
0137067240999992010011519004+46300+007467FM-12+150899999V0200401N001519999999N9999999N1-00281-00831999999ADDMA1999999085961MD1210141+9999ME1315179OA149900211REMSYN076AAXX  15194 06724 33/// /0403 11028 21083 38596 48517 52014 333 91104 91203;
0137067240999992010011520004+46300+007467FM-12+150899999V0200501N002119999999N9999999N1-00331-00891999999ADDMA1999999085971MD1210081+9999ME1315189OA149900261REMSYN076AAXX  15204 06724 33/// /0504 11033 21089 38597 48518 52008 333 91105 91204;
0137067240999992010011521004+46300+007467FM-12+150899999V0200401N001519999999N9999999N1-00281-00941999999ADDMA1999999085991MD1210061+9999ME1315209OA149900311REMSYN076AAXX  15214 06724 33/// /0403 11028 21094 38599 48520 52006 333 91106 91204;
0137067240999992010011522004+46300+007467FM-12+150899999V0200401N002119999999N9999999N1-00331-00981999999ADDMA1999999085971MD1210011+9999ME1315189OA149900361REMSYN076AAXX  15224 06724 33/// /0404 11033 21098 38597 48518 52001 333 91107 91205;
0137067240999992010011523004+46300+007467FM-12+150899999V0200401N001519999999N9999999N1-00371-00991999999ADDMA1999999085991MD1210021+9999ME1315209OA149900361REMSYN076AAXX  15234 06724 33/// /0403 11037 21099 38599 48520 52002 333 91107 91205;
0137067240999992010011600004+46300+007467FM-12+150899999V0200401N002119999999N9999999N1-00391-01071999999ADDMA1999999085981MD1010011+9999ME1315199OA149900361REMSYN076AAXX  16004 06724 33/// /0404 11039 21107 38598 48519 50001 333 91107 91205;
0137067240999992010011601004+46300+007467FM-12+150899999V0200401N001519999999N9999999N1-00471-01101999999ADDMA1999999085971MD1010001+9999ME1315189OA149900311REMSYN076AAXX  16014 06724 33/// /0403 11047 21110 38597 48518 50000 333 91106 91205;
0137067240999992010011602004+46300+007467FM-12+150899999V0200301N001519999999N9999999N1-00431-01191999999ADDMA1999999085991MD1510001+9999ME1315209OA149900311REMSYN076AAXX  16024 06724 33/// /0303 11043 21119 38599 48520 55000 333 91106 91205;
0137067240999992010011603004+46300+007467FM-12+150899999V0200501N002619999999N9999999N1-00491-01211999999ADDMA1999999085951MD1819999+9999ME1315169OA149900361REMSYN076AAXX  16034 06724 33/// /0505 11049 21121 38595 48516 58/// 333 91107 91205;
0137067240999992010011604004+46300+007467FM-12+150899999V0200301N001019999999N9999999N1-00461-01271999999ADDMA1999999085971MD1010001+9999ME1315189OA149900361REMSYN076AAXX  16044 06724 33/// /0302 11046 21127 38597 48518 50000 333 91107 91205;
0137067240999992010011605004+46300+007467FM-12+150899999V0200301N001519999999N9999999N1-00481-01291999999ADDMA1999999085921MD1710071+9999ME1315139OA149900361REMSYN076AAXX  16054 06724 33/// /0303 11048 21129 38592 48513 57007 333 91107 91205;
0234067240999992010011606004+46300+007467FM-12+150899999V0200501N002619999999N9999999N1-00411-01231999999ADDAA124000091AL19900091GJ103729IA2999-00509KA1999N-00541MA1999999085901MD1710051+9999ME1315129OA149900361REMSYN100AAXX  16064 06724 33/// /0505 11041 21123 38590 48512 57005 333 21054 3/105 55062 70000 91107 91205;EQDQ01  00002PRCP24
0137067240999992010011607004+46300+007467FM-12+150899999V0200301N001519999999N9999999N1-00371-01221999999ADDMA1999999085891MD1710081+9999ME1315119OA149900511REMSYN076AAXX  16074 06724 33/// /0303 11037 21122 38589 48511 57008 333 91110 91207;
0137067240999992010011608004+46300+007467FM-12+150899999V0200601N003619999999N9999999N1-00191-01371999999ADDMA1999999085841MD1710081+9999ME1315079OA149900571REMSYN076AAXX  16084 06724 33/// /0607 11019 21137 38584 48507 57008 333 91111 91208;
0137067240999992010011609004+46300+007467FM-12+150899999V0200601N003619999999N9999999N1+00001-01361999999ADDMA1999999085801MD1710101+9999ME1315049OA149900621REMSYN076AAXX  16094 06724 33/// /0607 10000 21136 38580 48504 57010 333 91112 91208;
0137067240999992010011610004+46300+007467FM-12+150899999V0200701N003119999999N9999999N1+00171-01391999999ADDMA1999999085821MD1710071+9999ME1315069OA149900621REMSYN076AAXX  16104 06724 33/// /0706 10017 21139 38582 48506 57007 333 91112 91207;
0137067240999992010011611004+46300+007467FM-12+150899999V0200601N002619999999N9999999N1+00231-01351999999ADDMA1999999085741MD1710101+9999ME1314999OA149900621REMSYN076AAXX  16114 06724 33/// /0605 10023 21135 38574 48499 57010 333 91112 91208;
0137067240999992010011612004+46300+007467FM-12+150899999V0200601N002619999999N9999999N1+00281-01321999999ADDMA1999999085671MD1710131+9999ME1314929OA149900621REMSYN076AAXX  16124 06724 33/// /0605 10028 21132 38567 48492 57013 333 91112 91208;
0137067240999992010011613004+46300+007467FM-12+150899999V0200501N002119999999N9999999N1+00331-01301999999ADDMA1999999085641MD1710181+9999ME1314899OA149900571REMSYN076AAXX  16134 06724 33/// /0504 10033 21130 38564 48489 57018 333 91111 91206;
0137067240999992010011614004+46300+007467FM-12+150899999V0200601N002619999999N9999999N1+00221-01101999999ADDMA1999999085551MD1619999+9999ME1314819OA149900571REMSYN076AAXX  16144 06724 33/// /0605 10022 21110 38555 48481 56/// 333 91111 91205;
0137067240999992010011615004+46300+007467FM-12+150899999V0200201N000519999999N9999999N1+00251-01081999999ADDMA1999999085561MD1710111+9999ME1314829OA149900621REMSYN076AAXX  16154 06724 33/// /0201 10025 21108 38556 48482 57011 333 91112 91208;
0137067240999992010011616004+46300+007467FM-12+150899999V0200501N001519999999N9999999N1+00281-01121999999ADDMA1999999085541MD1710101+9999ME1314809OA149900361REMSYN076AAXX  16164 06724 33/// /0503 10028 21112 38554 48480 57010 333 91107 91205;
0137067240999992010011617004+46300+007467FM-12+150899999V0200501N001019999999N9999999N1+00121-00951999999ADDMA1999999085531MD1810021+9999ME1314799OA149900311REMSYN076AAXX  16174 06724 33/// /0502 10012 21095 38553 48479 58002 333 91106 91204;
0156067240999992010011618004+46300+007467FM-12+150899999V0200201N000519999999N9999999N1+00141-01011999999ADDKA1120M+00331MA1999999085571MD1310011+9999ME1314829OA149900621REMSYN082AAXX  16184 06724 33/// /0201 10014 21101 38557 48482 53001 333 10033 91112 91208;
0137067240999992010011619004+46300+007467FM-12+150899999V0200301N001019999999N9999999N1+00121-00941999999ADDMA1999999085591MD1210051+9999ME1314849OA149900261REMSYN076AAXX  16194 06724 33/// /0302 10012 21094 38559 48484 52005 333 91105 91203;
0137067240999992010011620004+46300+007467FM-12+150899999V0200101N001019999999N9999999N1+00281-01111999999ADDMA1999999085581MD1210051+9999ME1314849OA149900361REMSYN076AAXX  16204 06724 33/// /0102 10028 21111 38558 48484 52005 333 91107 91204;
0137067240999992010011621004+46300+007467FM-12+150899999V0200201N001019999999N9999999N1+00141-00211999999ADDMA1999999085581MD1010011+9999ME1314839OA149900361REMSYN076AAXX  16214 06724 33/// /0202 10014 21021 38558 48483 50001 333 91107 91204;
0154067240999992010011622004+46300+007467FM-12+150899999V0200701N001019999999N9999999N1+00081-00031999999ADDAA101000391MA1999999085571MD1710021+9999ME1314829OA149900261REMSYN082AAXX  16224 06724 23/// /0702 10008 21003 38557 48482 57002 333 69935 91105 91202;
0154067240999992010011623004+46300+007467FM-12+150899999V0209999C000019999999N9999999N1-00011-00031999999ADDAA101000591MA1999999085591MD1510011+9999ME1314849OA149900261REMSYN082AAXX  16234 06724 23/// /0000 11001 21003 38559 48484 55001 333 69965 91105 91203;
0160067240999992010011700004+46300+007467FM-12+150899999V0209999C000019999999N9999999N1-00081-00101999999ADDAA106003091MA1999999085611MD1310031+9999ME1314869OA149900571REMSYN088AAXX  17004 06724 03/// /0000 11008 21010 38561 48486 53003 60031 333 60025 91111 91205;
0154067240999992010011701004+46300+007467FM-12+150899999V0209999C000019999999N9999999N1-00081-00111999999ADDAA101002091MA1999999085641MD1210071+9999ME1314889OA149900101REMSYN082AAXX  17014 06724 23/// /0000 11008 21011 38564 48488 52007 333 60025 91102 91201;
0154067240999992010011702004+46300+007467FM-12+150899999V0200601N001019999999N9999999N1-00111-00161999999ADDAA101000591MA1999999085621MD1019999+9999ME1314869OA149900151REMSYN082AAXX  17024 06724 23/// /0602 11011 21016 38562 48486 50/// 333 69965 91103 91202;
0096067240999992010011703004+46300+007467FM-12+150899999V0200401N001519999999N9999999N1-00051-00171999999ADDMA1999999085501ME1314759REMSYN060AAXX  17034 06724 43/// /0403 11005 21017 38550 48475 5////;
0154067240999992010011704004+46300+007467FM-12+150899999V0200301N000519999999N9999999N1-00131-00191999999ADDAA101000591MA1999999085521MD1710121+9999ME1314779OA149900211REMSYN082AAXX  17044 06724 23/// /0301 11013 21019 38552 48477 57012 333 69945 91104 91203;
0154067240999992010011705004+46300+007467FM-12+150899999V0209999C000019999999N9999999N1+00011-00091999999ADDAA101000591MA1999999085521MD1719999+9999ME1314779OA149900151REMSYN082AAXX  17054 06724 23/// /0000 10001 21009 38552 48477 57/// 333 69965 91103 91201;
0238067240999992010011706004+46300+007467FM-12+150899999V0203001N000519999999N9999999N1-00101-00111999999ADDAA112007192AA224006992AL14800691GJ101809IA2999-00209KA1999N-00141MA1999999085511MD1010011+9999ME1314769OA149900361REMSYN112AAXX  17064 06724 03/// /3001 11010 21011 38551 48476 50001 60072 333 21014 3/102 55030 69935 70069 91107 91204;
0154067240999992010011707004+46300+007467FM-12+150899999V0202701N000519999999N9999999N1-00051-00071999999ADDAA101000021MA1999999085561MD1310041+9999ME1314819OA149900211REMSYN082AAXX  17074 06724 23/// /2701 11005 21007 38556 48481 53004 333 69915 91104 91202;
0154067240999992010011708004+46300+007467FM-12+150899999V0203201N001019999999N9999999N1+00051-00031999999ADDAA101000591MA1999999085621MD1219999+9999ME1314879OA149900311REMSYN082AAXX  17084 06724 23/// /3202 10005 21003 38562 48487 52/// 333 69945 91106 91203;
0154067240999992010011709004+46300+007467FM-12+150899999V0202701N000519999999N9999999N1+00021-00041999999ADDAA101000021MA1999999085701MD1310191+9999ME1314949OA149900311REMSYN082AAXX  17094 06724 23/// /2701 10002 21004 38570 48494 53019 333 69915 91106 91203;
0154067240999992010011710004+46300+007467FM-12+150899999V0202801N002119999999N9999999N1+00151-00011999999ADDAA101000021MA1999999085761MD1110201+9999ME1315009OA149900411REMSYN082AAXX  17104 06724 23/// /2804 10015 21001 38576 48500 51020 333 69915 91108 91204;
0137067240999992010011711004+46300+007467FM-12+150899999V0202501N002119999999N9999999N1+00031-00011999999ADDMA1999999085791MD1110171+9999ME1315039OA149900411REMSYN076AAXX  17114 06724 33/// /2504 10003 21001 38579 48503 51017 333 91108 91204;
0160067240999992010011712004+46300+007467FM-12+150899999V0202801N002619999999N9999999N1+00221-00111999999ADDAA106000891MA1999999085781MD1210081+9999ME1315029OA149900511REMSYN088AAXX  17124 06724 03/// /2805 10022 21011 38578 48502 52008 69971 333 60005 91110 91205;
0156067240999992010011713004+46300+007467FM-12+150899999V0202501N003619999999N9999999N1+00161-00111999999ADDMA1999999085761MD1410001+9999ME1315009OA149900881REMSYN076AAXX  17134 06724 33/// /2507 10016 21011 38576 48500 58000 333 91117 91209;EQDQ01+000082APCTEN
0137067240999992010011714004+46300+007467FM-12+150899999V0202401N002119999999N9999999N1+00091-00201999999ADDMA1999999085821MD1319999+9999ME1315069OA149900881REMSYN076AAXX  17144 06724 33/// /2404 10009 21020 38582 48506 53/// 333 91117 91209;
0137067240999992010011715004+46300+007467FM-12+150899999V0202601N001519999999N9999999N1+00061-00211999999ADDMA1999999085891MD1210111+9999ME1315129OA149900881REMSYN076AAXX  17154 06724 33/// /2603 10006 21021 38589 48512 52011 333 91117 91209;
0137067240999992010011716004+46300+007467FM-12+150899999V0203501N004119999999N9999999N1+00061-00771999999ADDMA1999999085951MD1110191+9999ME1315189OA149900881REMSYN076AAXX  17164 06724 33/// /3508 10006 21077 38595 48518 51019 333 91117 91208;
0137067240999992010011717004+46300+007467FM-12+150899999V0203401N002119999999N9999999N1+00011-01021999999ADDMA1999999086011MD1310191+9999ME1315239OA149900881REMSYN076AAXX  17174 06724 33/// /3404 10001 21102 38601 48523 53019 333 91117 91208;
0179067240999992010011718004+46300+007467FM-12+150899999V0202601N001519999999N9999999N1-00181-00711999999ADDAA112000891KA1120M+00221MA1999999086061MD1110171+9999ME1315279OA149900881REMSYN094AAXX  17184 06724 03/// /2603 11018 21071 38606 48527 51017 69972 333 10022 60005 91117 91209;
0137067240999992010011719004+46300+007467FM-12+150899999V0202501N001519999999N9999999N1-00221-00501999999ADDMA1999999086101MD1110151+9999ME1315319OA149900571REMSYN076AAXX  17194 06724 33/// /2503 11022 21050 38610 48531 51015 333 91111 91204;
0137067240999992010011720004+46300+007467FM-12+150899999V0202801N002119999999N9999999N1-00151-00571999999ADDMA1999999086131MD1210121+9999ME1315349OA149900311REMSYN076AAXX  17204 06724 33/// /2804 11015 21057 38613 48534 52012 333 91106 91204;
0137067240999992010011721004+46300+007467FM-12+150899999V0202701N001019999999N9999999N1-00211-00521999999ADDMA1999999086131MD1210071+9999ME1315339OA149900881REMSYN076AAXX  17214 06724 33/// /2702 11021 21052 38613 48533 52007 333 91117 91208;
0137067240999992010011722004+46300+007467FM-12+150899999V0202601N001519999999N9999999N1-00271-00441999999ADDMA1999999086131MD1010031+9999ME1315339OA149900311REMSYN076AAXX  17224 06724 33/// /2603 11027 21044 38613 48533 50003 333 91106 91203;
