0149067240999992011010100004+46300+007467FM-12+150899999V0200101N001019999999N9999999N1-00421-00901999999ADDMA1999999085791MD1719999+9999ME1314979OA149900261REMSYN088AAXX  01004 06724 33/// /0102 11042 21090 38579 48497 57/// 333 55300 20004 91105 91203;
0149067240999992011010101004+46300+007467FM-12+150899999V0200101N001019999999N9999999N1-00401-00891999999ADDMA1999999085761MD1810081+9999ME1314959OA149900211REMSYN088AAXX  01014 06724 33/// /0102 11040 21089 38576 48495 58008 333 55300 20004 91104 91203;
0149067240999992011010102004+46300+007467FM-12+150899999V0200201N001019999999N9999999N1-00461-00921999999ADDMA1999999085751MD1710071+9999ME1314939OA149900151REMSYN088AAXX  01024 06724 33/// /0202 11046 21092 38575 48493 57007 333 55300 20004 91103 91202;
0149067240999992011010103004+46300+007467FM-12+150899999V0209999C001019999999N9999999N1-00491-01021999999ADDMA1999999085731MD1719999+9999ME1314929OA149900211REMSYN088AAXX  01034 06724 33/// /0002 11049 21102 38573 48492 57/// 333 55300 20004 91104 91203;
0149067240999992011010104004+46300+007467FM-12+150899999V0200401N001519999999N9999999N1-00441-00921999999ADDMA1999999085701MD1710061+9999ME1314899OA149900211REMSYN088AAXX  01044 06724 33/// /0403 11044 21092 38570 48489 57006 333 55300 20004 91104 91203;
0149067240999992011010105004+46300+007467FM-12+150899999V0200301N001519999999N9999999N1-00571-01091999999ADDMA1999999085701MD1710051+9999ME1314899OA149900211REMSYN088AAXX  01054 06724 33/// /0303 11057 21109 38570 48489 57005 333 55300 20004 91104 91203;
0216067240999992011010106004+46300+007467FM-12+150899999V0200101N001019999999N9999999N1-00531-01121999999ADDAL19900091GJ104509IA2999-00509KA1999N-00571MA1999999085701MD1710031+9999ME1314899OA149900211REMSYN112AAXX  01064 06724 33/// /0102 11053 21112 38570 48489 57003 333 21057 3/105 55075 55300 20004 70000 91104 91203;
0149067240999992011010107004+46300+007467FM-12+150899999V0200301N001019999999N9999999N1-00551-01071999999ADDMA1999999085721MD1210021+9999ME1314919OA149900151REMSYN088AAXX  01074 06724 33/// /0302 11055 21107 38572 48491 52002 333 55300 20004 91103 91203;
0149067240999992011010108004+46300+007467FM-12+150899999V0200201N000519999999N9999999N1-00541-01071999999ADDMA1999999085751MD1319999+9999ME1314939OA149900151REMSYN088AAXX  01084 06724 33/// /0201 11054 21107 38575 48493 53/// 333 55300 20029 91103 91203;
0096067240999992011010109004+46300+007467FM-12+150899999V0200401N000519999999N9999999N1-00181-00901999999ADDMA1999999085731ME1314929REMSYN060AAXX  01094 06724 43/// /0401 11018 21090 38573 48492 5////;
0096067240999992011010110004+46300+007467FM-12+150899999V0202501N000519999999N9999999N1-00161-00771999999ADDMA1999999085721ME1314929REMSYN060AAXX  01104 06724 43/// /2501 11016 21077 38572 48492 5////;
0149067240999992011010111004+46300+007467FM-12+150899999V0202601N001019999999N9999999N1-00051-00631999999ADDMA1999999085671MD1810081+9999ME1314879OA149900211REMSYN088AAXX  01114 06724 33/// /2602 11005 21063 38567 48487 58008 333 553// 2//// 91104 91203;
0096067240999992011010112004+46300+007467FM-12+150899999V0202601N001519999999N9999999N1+00021-00641999999ADDMA1999999085611ME1314829REMSYN060AAXX  01124 06724 43/// /2603 10002 21064 38561 48482 5////;
0096067240999992011010113004+46300+007467FM-12+150899999V0202401N001019999999N9999999N1-00011-00741999999ADDMA1999999085571ME1314789REMSYN060AAXX  01134 06724 43/// /2402 11001 21074 38557 48478 5////;
0096067240999992011010114004+46300+007467FM-12+150899999V0202601N001019999999N9999999N1+00001-00751999999ADDMA1999999085561ME1314779REMSYN060AAXX  01144 06724 43/// /2602 10000 21075 38556 48477 5////;
0096067240999992011010115004+46300+007467FM-12+150899999V0202701N000519999999N9999999N1-00141-00751999999ADDMA1999999085561ME1314779REMSYN060AAXX  01154 06724 43/// /2701 11014 21075 38556 48477 5////;
0096067240999992011010116004+46300+007467FM-12+150899999V0209999C000019999999N9999999N1-00221-00801999999ADDMA1999999085561ME1314779REMSYN060AAXX  01164 06724 43/// /0000 11022 21080 38556 48477 5////;
0096067240999992011010117004+46300+007467FM-12+150899999V0200401N000519999999N9999999N1-00301-00911999999ADDMA1999999085551ME1314759REMSYN060AAXX  01174 06724 43/// /0401 11030 21091 38555 48475 5////;
0096067240999992011010118004+46300+007467FM-12+150899999V0200401N001019999999N9999999N1-00331-00791999999ADDMA1999999085501ME1314719REMSYN060AAXX  01184 06724 43/// /0402 11033 21079 38550 48471 5////;
0112067240999992011010119004+46300+007467FM-12+150899999V0200401N001519999999N9999999N1-00411-00831999999ADDMA1999999085481ME1314699REMSYN076AAXX  01194 06724 33/// /0403 11041 21083 38548 48469 5//// 333 553// 20004;
0149067240999992011010120004+46300+007467FM-12+150899999V0200601N000519999999N9999999N1-00541-00901999999ADDMA1999999085491MD1510061+9999ME1314699OA149900211REMSYN088AAXX  01204 06724 33/// /0601 11054 21090 38549 48469 55006 333 55300 20004 91104 91203;
0149067240999992011010121004+46300+007467FM-12+150899999V0200301N000519999999N9999999N1-00521-00921999999ADDMA1999999085491MD1010011+9999ME1314709OA149900211REMSYN088AAXX  01214 06724 33/// /0301 11052 21092 38549 48470 50001 333 55300 20004 91104 91203;
0149067240999992011010122004+46300+007467FM-12+150899999V0200101N001019999999N9999999N1-00491-00911999999ADDMA1999999085491MD1010011+9999ME1314709OA149900151REMSYN088AAXX  01224 06724 33/// /0102 11049 21091 38549 48470 50001 333 55300 20004 91103 91202;
0149067240999992011010123004+46300+007467FM-12+150899999V0200401N001019999999N9999999N1-00591-00961999999ADDMA1999999085451MD1810041+9999ME1314669OA149900151REMSYN088AAXX  01234 06724 33/// /0402 11059 21096 38545 48466 58004 333 55300 20004 91103 91202;
0149067240999992011010200004+46300+007467FM-12+150899999V0200501N001519999999N9999999N1-00521-00971999999ADDMA1999999085401MD1810091+9999ME1314619OA149900261REMSYN088AAXX  02004 06724 33/// /0503 11052 21097 38540 48461 58009 333 55300 20004 91105 91204;
0149067240999992011010201004+46300+007467FM-12+150899999V0200201N001519999999N9999999N1-00691-01091999999ADDMA1999999085341MD1810151+9999ME1314569OA149900261REMSYN088AAXX  02014 06724 33/// /0203 11069 21109 38534 48456 58015 333 55300 20004 91105 91204;
0096067240999992011010202004+46300+007467FM-12+150899999V0200101N001019999999N9999999N1-00601-01061999999ADDMA1999999085351ME1314579REMSYN060AAXX  02024 06724 43/// /0102 11060 21106 38535 48457 5////;
0096067240999992011010203004+46300+007467FM-12+150899999V0203401N000519999999N9999999N1-00611-01041999999ADDMA1999999085331ME1314559REMSYN060AAXX  02034 06724 43/// /3401 11061 21104 38533 48455 5////;
0096067240999992011010204004+46300+007467FM-12+150899999V0200101N001019999999N9999999N1-00661-01101999999ADDMA1999999085311ME1314539REMSYN060AAXX  02044 06724 43/// /0102 11066 21110 38531 48453 5////;
0096067240999992011010205004+46300+007467FM-12+150899999V0200101N000519999999N9999999N1-00701-01161999999ADDMA1999999085291ME1314519REMSYN060AAXX  02054 06724 43/// /0101 11070 21116 38529 48451 5////;
0143067240999992011010206004+46300+007467FM-12+150899999V0200401N001019999999N9999999N1-00871-01201999999ADDIA2999-00509KA1999N-00821MA1999999085301ME1314529REMSYN082AAXX  02064 06724 43/// /0402 11087 21120 38530 48452 5//// 333 21082 3/105 55075;
0149067240999992011010207004+46300+007467FM-12+150899999V0200201N000519999999N9999999N1-00851-01151999999ADDMA1999999085331MD1310021+9999ME1314549OA149900151REMSYN088AAXX  02074 06724 33/// /0201 11085 21115 38533 48454 53002 333 55300 20004 91103 91202;
0149067240999992011010208004+46300+007467FM-12+150899999V0200201N000519999999N9999999N1-00721-01101999999ADDMA1999999085351MD1310061+9999ME1314569OA149900101REMSYN088AAXX  02084 06724 33/// /0201 11072 21110 38535 48456 53006 333 55300 20029 91102 91202;
0149067240999992011010209004+46300+007467FM-12+150899999V0202601N000519999999N9999999N1-00551-00941999999ADDMA1999999085361MD1210061+9999ME1314589OA149900151REMSYN088AAXX  02094 06724 33/// /2601 11055 21094 38536 48458 52006 333 55309 20468 91103 91202;
0149067240999992011010210004+46300+007467FM-12+150899999V0202301N001019999999N9999999N1-00481-00741999999ADDMA1999999085391MD1210061+9999ME1314609OA149900151REMSYN088AAXX  02104 06724 33/// /2302 11048 21074 38539 48460 52006 333 553// 20936 91103 91202;
0149067240999992011010211004+46300+007467FM-12+150899999V0202701N001019999999N9999999N1-00431-00741999999ADDMA1999999085351MD1010001+9999ME1314579OA149900211REMSYN088AAXX  02114 06724 33/// /2702 11043 21074 38535 48457 50000 333 553// 2//// 91104 91202;
0149067240999992011010212004+46300+007467FM-12+150899999V0202501N001519999999N9999999N1-00411-00721999999ADDMA1999999085311MD1710051+9999ME1314539OA149900211REMSYN088AAXX  02124 06724 33/// /2503 11041 21072 38531 48453 57005 333 553// 2//// 91104 91203;
0149067240999992011010213004+46300+007467FM-12+150899999V0202801N001019999999N9999999N1-00361-00721999999ADDMA1999999085281MD1810111+9999ME1314509OA149900261REMSYN088AAXX  02134 06724 33/// /2802 11036 21072 38528 48450 58011 333 553// 2//// 91105 91203;
0112067240999992011010214004+46300+007467FM-12+150899999V0202701N001019999999N9999999N1-00441-00641999999ADDMA1999999085281ME1314509REMSYN076AAXX  02144 06724 33/// /2702 11044 21064 38528 48450 5//// 333 553// 2////;
0168067240999992011010215004+46300+007467FM-12+150899999V0202601N001019999999N9999999N1-00621-00681999999ADDMA1999999085311MD1410001+9999ME1314539OA149900261REMSYN088AAXX  02154 06724 33/// /2602 11062 21068 38531 48453 53000 333 55308 20558 91105 91203;EQDQ01+000032APCTEN
0149067240999992011010216004+46300+007467FM-12+150899999V0200101N000519999999N9999999N1-00731-00731999999ADDMA1999999085361MD1210081+9999ME1314579OA149900211REMSYN088AAXX  02164 06724 33/// /0101 11073 21073 38536 48457 52008 333 55300 20076 91104 91203;
0149067240999992011010217004+46300+007467FM-12+150899999V0209999C000019999999N9999999N1-00721-00831999999ADDMA1999999085391MD1310111+9999ME1314609OA149900151REMSYN088AAXX  02174 06724 33/// /0000 11072 21083 38539 48460 53011 333 55300 20004 91103 91202;
0168067240999992011010218004+46300+007467FM-12+150899999V0200201N000519999999N9999999N1-00671-00771999999ADDKA1120M-00361MA1999999085451MD1210141+9999ME1314669OA149900261REMSYN094AAXX  02184 06724 33/// /0201 11067 21077 38545 48466 52014 333 11036 55300 20004 91105 91203;
0149067240999992011010219004+46300+007467FM-12+150899999V0200301N000519999999N9999999N1-00641-00711999999ADDMA1999999085491MD1210131+9999ME1314699OA149900261REMSYN088AAXX  02194 06724 33/// /0301 11064 21071 38549 48469 52013 333 55300 20004 91105 91203;
0149067240999992011010220004+46300+007467FM-12+150899999V0200801N001019999999N9999999N1-00641-00721999999ADDMA1999999085511MD1110121+9999ME1314719OA149900211REMSYN088AAXX  02204 06724 33/// /0802 11064 21072 38551 48471 51012 333 55300 20007 91104 91203;
0149067240999992011010221004+46300+007467FM-12+150899999V0201101N000519999999N9999999N1-00621-00741999999ADDMA1999999085551MD1310101+9999ME1314759OA149900261REMSYN088AAXX  02214 06724 33/// /1101 11062 21074 38555 48475 53010 333 55300 20007 91105 91203;
0149067240999992011010222004+46300+007467FM-12+150899999V0200601N001019999999N9999999N1-00631-00821999999ADDMA1999999085571MD1110081+9999ME1314779OA149900261REMSYN088AAXX  02224 06724 33/// /0602 11063 21082 38557 48477 51008 333 55300 20004 91105 91203;
0149067240999992011010223004+46300+007467FM-12+150899999V0202401N001019999999N9999999N1-00651-00741999999ADDMA1999999085551MD1010041+9999ME1314759OA149900261REMSYN088AAXX  02234 06724 33/// /2402 11065 21074 38555 48475 50004 333 55300 20004 91105 91203;
0168067240999992011010300004+46300+007467FM-12+150899999V0200101N000519999999N9999999N1-00651-00861999999ADDMA1999999085551MD1410001+9999ME1314759OA149900261REMSYN088AAXX  03004 06724 33/// /0101 11065 21086 38555 48475 57000 333 55300 20004 91105 91203;EQDQ01+000072APCTEN
0149067240999992011010301004+46300+007467FM-12+150899999V0200501N000519999999N9999999N1-00661-00911999999ADDMA1999999085541MD1710031+9999ME1314749OA149900211REMSYN088AAXX  03014 06724 33/// /0501 11066 21091 38554 48474 57003 333 55300 20004 91104 91202;
0149067240999992011010302004+46300+007467FM-12+150899999V0200701N001019999999N9999999N1-00681-00991999999ADDMA1999999085531MD1719999+9999ME1314739OA149900211REMSYN088AAXX  03024 06724 33/// /0702 11068 21099 38553 48473 57/// 333 55300 20004 91104 91202;
0096067240999992011010303004+46300+007467FM-12+150899999V0201301N000519999999N9999999N1-00691-00931999999ADDMA1999999085531ME1314739REMSYN060AAXX  03034 06724 43/// /1301 11069 21093 38553 48473 5////;
0168067240999992011010304004+46300+007467FM-12+150899999V0200201N001519999999N9999999N1-00741-01001999999ADDMA1999999085541MD1410001+9999ME1314749OA149900311REMSYN088AAXX  03044 06724 33/// /0203 11074 21100 38554 48474 52000 333 55300 20004 91106 91203;EQDQ01+000022APCTEN
0149067240999992011010305004+46300+007467FM-12+150899999V0200601N001019999999N9999999N1-00751-00971999999ADDMA1999999085541MD1210011+9999ME1314749OA149900311REMSYN088AAXX  03054 06724 33/// /0602 11075 21097 38554 48474 52001 333 55300 20004 91106 91203;
0216067240999992011010306004+46300+007467FM-12+150899999V0200901N000519999999N9999999N1-00771-01001999999ADDAL19900091GJ104029IA2999-00409KA1999N-00771MA1999999085561MD1210031+9999ME1314759OA149900311REMSYN112AAXX  03064 06724 33/// /0901 11077 21100 38556 48475 52003 333 21077 3/104 55067 55300 20004 70000 91106 91203;
0149067240999992011010307004+46300+007467FM-12+150899999V0201701N001019999999N9999999N1-00791-01011999999ADDMA1999999085561MD1210021+9999ME1314759OA149900261REMSYN088AAXX  03074 06724 33/// /1702 11079 21101 38556 48475 52002 333 55300 20004 91105 91203;
0149067240999992011010308004+46300+007467FM-12+150899999V0200501N001519999999N9999999N1-00801-01081999999ADDMA1999999085591MD1219999+9999ME1314789OA149900361REMSYN088AAXX  03084 06724 33/// /0503 11080 21108 38559 48478 52/// 333 55300 20029 91107 91203;
0112067240999992011010309004+46300+007467FM-12+150899999V0201201N001019999999N9999999N1-00851-01111999999ADDMA1999999085591ME1314789REMSYN076AAXX  03094 06724 33/// /1202 11085 21111 38559 48478 5//// 333 553// 20248;
0149067240999992011010310004+46300+007467FM-12+150899999V0202201N000519999999N9999999N1-00711-01071999999ADDMA1999999085601MD1210041+9999ME1314799OA149900311REMSYN088AAXX  03104 06724 33/// /2201 11071 21107 38560 48479 52004 333 55309 20886 91106 91202;
0149067240999992011010311004+46300+007467FM-12+150899999V0209999C000019999999N9999999N1-00651-01041999999ADDMA1999999085561MD1710031+9999ME1314769OA149900261REMSYN088AAXX  03114 06724 33/// /0000 11065 21104 38556 48476 57003 333 553// 2//// 91105 91202;
0149067240999992011010312004+46300+007467FM-12+150899999V0202401N001019999999N9999999N1-00531-01001999999ADDMA1999999085501MD1710091+9999ME1314709OA149900361REMSYN088AAXX  03124 06724 33/// /2402 11053 21100 38550 48470 57009 333 553// 2//// 91107 91203;
0149067240999992011010313004+46300+007467FM-12+150899999V0202401N001019999999N9999999N1-00531-00971999999ADDMA1999999085471MD1610131+9999ME1314689OA149900261REMSYN088AAXX  03134 06724 33/// /2402 11053 21097 38547 48468 56013 333 553// 2//// 91105 91203;
0112067240999992011010314004+46300+007467FM-12+150899999V0202501N001519999999N9999999N1-00481-00991999999ADDMA1999999085471ME1314689REMSYN076AAXX  03144 06724 33/// /2503 11048 21099 38547 48468 5//// 333 553// 2////;
0112067240999992011010315004+46300+007467FM-12+150899999V0202601N001019999999N9999999N1-00521-01011999999ADDMA1999999085491ME1314709REMSYN076AAXX  03154 06724 33/// /2602 11052 21101 38549 48470 5//// 333 553// 20623;
0149067240999992011010316004+46300+007467FM-12+150899999V0203001N000519999999N9999999N1-00681-01041999999ADDMA1999999085501MD1310031+9999ME1314709OA149900261REMSYN088AAXX  03164 06724 33/// /3001 11068 21104 38550 48470 53003 333 55306 20155 91105 91203;
0149067240999992011010317004+46300+007467FM-12+150899999V0200701N000519999999N9999999N1-00781-01071999999ADDMA1999999085501MD1210031+9999ME1314709OA149900151REMSYN088AAXX  03174 06724 33/// /0701 11078 21107 38550 48470 52003 333 55300 20004 91103 91202;
0168067240999992011010318004+46300+007467FM-12+150899999V0200601N001519999999N9999999N1-00821-01091999999ADDKA1120M-00471MA1999999085531MD1210041+9999ME1314739OA149900361REMSYN094AAXX  03184 06724 33/// /0603 11082 21109 38553 48473 52004 333 11047 55300 20004 91107 91203;
0149067240999992011010319004+46300+007467FM-12+150899999V0200301N001019999999N9999999N1-00891-01171999999ADDMA1999999085511MD1010011+9999ME1314719OA149900211REMSYN088AAXX  03194 06724 33/// /0302 11089 21117 38551 48471 50001 333 55300 20004 91104 91203;
0149067240999992011010320004+46300+007467FM-12+150899999V0200201N001019999999N9999999N1-00971-01291999999ADDMA1999999085511MD1010011+9999ME1314719OA149900211REMSYN088AAXX  03204 06724 33/// /0202 11097 21129 38551 48471 50001 333 55300 20004 91104 91203;
0149067240999992011010321004+46300+007467FM-12+150899999V0200201N001019999999N9999999N1-00991-01591999999ADDMA1999999085511MD1710021+9999ME1314719OA149900211REMSYN088AAXX  03214 06724 33/// /0202 11099 21159 38551 48471 57002 333 55300 20004 91104 91203;
0149067240999992011010322004+46300+007467FM-12+150899999V0200501N002119999999N9999999N1-00911-01331999999ADDMA1999999085481MD1710031+9999ME1314689OA149900261REMSYN088AAXX  03224 06724 33/// /0504 11091 21133 38548 48468 57003 333 55300 20004 91105 91204;
0149067240999992011010323004+46300+007467FM-12+150899999V0200301N001019999999N9999999N1-00871-01621999999ADDMA1999999085461MD1710051+9999ME1314669OA149900261REMSYN088AAXX  03234 06724 33/// /0302 11087 21162 38546 48466 57005 333 55300 20004 91105 91204;
0149067240999992011010400004+46300+007467FM-12+150899999V0203501N000519999999N9999999N1-00931-01791999999ADDMA1999999085441MD1610071+9999ME1314649OA149900261REMSYN088AAXX  04004 06724 33/// /3501 11093 21179 38544 48464 56007 333 55300 20004 91105 91204;
0149067240999992011010401004+46300+007467FM-12+150899999V0200201N001019999999N9999999N1-00951-01701999999ADDMA1999999085401MD1810081+9999ME1314619OA149900211REMSYN088AAXX  04014 06724 33/// /0202 11095 21170 38540 48461 58008 333 55300 20004 91104 91203;
0149067240999992011010402004+46300+007467FM-12+150899999V0200301N001019999999N9999999N1-00821-01711999999ADDMA1999999085371MD1819999+9999ME1314589OA149900211REMSYN088AAXX  04024 06724 33/// /0302 11082 21171 38537 48458 58/// 333 55300 20004 91104 91203;
0149067240999992011010403004+46300+007467FM-12+150899999V0209999C000019999999N9999999N1-01001-01741999999ADDMA1999999085351MD1610091+9999ME1314569OA149900261REMSYN088AAXX  04034 06724 33/// /0000 11100 21174 38535 48456 56009 333 55300 20004 91105 91204;
0149067240999992011010404004+46300+007467FM-12+150899999V0200101N001019999999N9999999N1-00921-01831999999ADDMA1999999085321MD1810081+9999ME1314539OA149900151REMSYN088AAXX  04044 06724 33/// /0102 11092 21183 38532 48453 58008 333 55300 20004 91103 91202;
0149067240999992011010405004+46300+007467FM-12+150899999V0200501N001019999999N9999999N1-00871-01621999999ADDMA1999999085281MD1710091+9999ME1314509OA149900151REMSYN088AAXX  04054 06724 33/// /0502 11087 21162 38528 48450 57009 333 55300 20004 91103 91203;
0216067240999992011010406004+46300+007467FM-12+150899999V0200101N000519999999N9999999N1-00871-01921999999ADDAL19900091GJ103909IA2999-00709KA1999N-01061MA1999999085291MD1710061+9999ME1314519OA149900261REMSYN112AAXX  04064 06724 33/// /0101 11087 21192 38529 48451 57006 333 21106 3/107 55065 55300 20004 70000 91105 91204;
0149067240999992011010407004+46300+007467FM-12+150899999V0200201N000519999999N9999999N1-00961-01931999999ADDMA1999999085281MD1710041+9999ME1314509OA149900211REMSYN088AAXX  04074 06724 33/// /0201 11096 21193 38528 48450 57004 333 55300 20004 91104 91204;
0149067240999992011010408004+46300+007467FM-12+150899999V0200401N001519999999N9999999N1-00801-01871999999ADDMA1999999085291MD1319999+9999ME1314519OA149900211REMSYN088AAXX  04084 06724 33/// /0403 11080 21187 38529 48451 53/// 333 55300 20029 91104 91204;
0112067240999992011010409004+46300+007467FM-12+150899999V0200501N001519999999N9999999N1-00681-01731999999ADDMA1999999085291ME1314519REMSYN076AAXX  04094 06724 33/// /0503 11068 21173 38529 48451 5//// 333 553// 20137;
0149067240999992011010410004+46300+007467FM-12+150899999V0209999C000019999999N9999999N1-00441-01651999999ADDMA1999999085311MD1210031+9999ME1314539OA149900311REMSYN088AAXX  04104 06724 33/// /0000 11044 21165 38531 48453 52003 333 55303 20626 91106 91205;
0149067240999992011010411004+46300+007467FM-12+150899999V0202301N000519999999N9999999N1-00381-01351999999ADDMA1999999085261MD1810031+9999ME1314489OA149900211REMSYN088AAXX  04114 06724 33/// /2301 11038 21135 38526 48448 58003 333 55301 20904 91104 91203;
0149067240999992011010412004+46300+007467FM-12+150899999V0209999C000019999999N9999999N1-00351-01291999999ADDMA1999999085191MD1710101+9999ME1314429OA149900311REMSYN088AAXX  04124 06724 33/// /0000 11035 21129 38519 48442 57010 333 55300 20677 91106 91205;
0149067240999992011010413004+46300+007467FM-12+150899999V0202001N000519999999N9999999N1-00241-01381999999ADDMA1999999085141MD1610171+9999ME1314379OA149900151REMSYN088AAXX  04134 06724 33/// /2001 11024 21138 38514 48437 56017 333 55303 20724 91103 91201;
0112067240999992011010414004+46300+007467FM-12+150899999V0202701N001019999999N9999999N1-00301-01061999999ADDMA1999999085121ME1314369REMSYN076AAXX  04144 06724 33/// /2702 11030 21106 38512 48436 5//// 333 553// 20666;
0096067240999992011010415004+46300+007467FM-12+150899999V0203201N000519999999N9999999N1-00281-01091999999ADDMA1999999085111ME1314359REMSYN060AAXX  04154 06724 43/// /3201 11028 21109 38511 48435 5////;
0149067240999992011010416004+46300+007467FM-12+150899999V0201101N000519999999N9999999N1-00551-01181999999ADDMA1999999085131MD1510011+9999ME1314369OA149900211REMSYN088AAXX  04164 06724 33/// /1101 11055 21118 38513 48436 55001 333 55305 20144 91104 91201;
0149067240999992011010417004+46300+007467FM-12+150899999V0200401N001519999999N9999999N1-00451-01311999999ADDMA1999999085141MD1210021+9999ME1314379OA149900211REMSYN088AAXX  04174 06724 33/// /0403 11045 21131 38514 48437 52002 333 55300 20004 91104 91203;
0168067240999992011010418004+46300+007467FM-12+150899999V0200201N000519999999N9999999N1-00671-01281999999ADDKA1120M-00191MA1999999085161MD1210051+9999ME1314399OA149900311REMSYN094AAXX  04184 06724 33/// /0201 11067 21128 38516 48439 52005 333 11019 55300 20004 91106 91205;
0149067240999992011010419004+46300+007467FM-12+150899999V0200101N000519999999N9999999N1-00761-01231999999ADDMA1999999085211MD1310081+9999ME1314449OA149900151REMSYN088AAXX  04194 06724 33/// /0101 11076 21123 38521 48444 53008 333 55300 20004 91103 91202;
0149067240999992011010420004+46300+007467FM-12+150899999V0200101N001019999999N9999999N1-00711-01261999999ADDMA1999999085191MD1210051+9999ME1314429OA149900151REMSYN088AAXX  04204 06724 33/// /0102 11071 21126 38519 48442 52005 333 55300 20004 91103 91202;
0149067240999992011010421004+46300+007467FM-12+150899999V0200601N001519999999N9999999N1-00631-01281999999ADDMA1999999085181MD1010021+9999ME1314419OA149900261REMSYN088AAXX  04214 06724 33/// /0603 11063 21128 38518 48441 50002 333 55300 20004 91105 91204;
0149067240999992011010422004+46300+007467FM-12+150899999V0200501N002619999999N9999999N1-00721-01361999999ADDMA1999999085161MD1710051+9999ME1314399OA149900361REMSYN088AAXX  04224 06724 33/// /0505 11072 21136 38516 48439 57005 333 55300 20004 91107 91205;
0149067240999992011010423004+46300+007467FM-12+150899999V0200301N001519999999N9999999N1-00721-01221999999ADDMA1999999085161MD1610031+9999ME1314399OA149900361REMSYN088AAXX  04234 06724 33/// /0303 11072 21122 38516 48439 56003 333 55300 20004 91107 91205;
0149067240999992011010500004+46300+007467FM-12+150899999V0200301N001519999999N9999999N1-00741-01301999999ADDMA1999999085141MD1610041+9999ME1314379OA149900411REMSYN088AAXX  05004 06724 33/// /0303 11074 21130 38514 48437 56004 333 55300 20004 91108 91205;
0149067240999992011010501004+46300+007467FM-12+150899999V0200401N002619999999N9999999N1-00691-01301999999ADDMA1999999085111MD1810051+9999ME1314349OA149900411REMSYN088AAXX  05014 06724 33/// /0405 11069 21130 38511 48434 58005 333 55300 20004 91108 91206;
0149067240999992011010502004+46300+007467FM-12+150899999V0200401N001519999999N9999999N1-00761-01311999999ADDMA1999999085121MD1710041+9999ME1314359OA149900411REMSYN088AAXX  05024 06724 33/// /0403 11076 21131 38512 48435 57004 333 55300 20004 91108 91206;
0096067240999992011010503004+46300+007467FM-12+150899999V0200401N001519999999N9999999N1-00841-01341999999ADDMA1999999085131ME1314369REMSYN060AAXX  05034 06724 43/// /0403 11084 21134 38513 48436 5////;
0149067240999992011010504004+46300+007467FM-12+150899999V0200601N002619999999N9999999N1-00721-01261999999ADDMA1999999085101MD1810011+9999ME1314349OA149900411REMSYN088AAXX  05044 06724 33/// /0605 11072 21126 38510 48434 58001 333 55300 20004 91108 91205;
0149067240999992011010505004+46300+007467FM-12+150899999V0200201N001519999999N9999999N1-00821-01311999999ADDMA1999999085121MD1510001+9999ME1314359OA149900411REMSYN088AAXX  05054 06724 33/// /0203 11082 21131 38512 48435 55000 333 55300 20004 91108 91205;
0216067240999992011010506004+46300+007467FM-12+150899999V0200301N001519999999N9999999N1-00891-01371999999ADDAL19900091GJ101269IA2999-00709KA1999N-00921MA1999999085151MD1310021+9999ME1314389OA149900411REMSYN112AAXX  05064 06724 33/// /0303 11089 21137 38515 48438 53002 333 21092 3/107 55021 55300 20004 70000 91108 91206;
0149067240999992011010507004+46300+007467FM-12+150899999V0200401N002119999999N9999999N1-00791-01351999999ADDMA1999999085181MD1110081+9999ME1314419OA149900361REMSYN088AAXX  05074 06724 33/// /0404 11079 21135 38518 48441 51008 333 55300 20004 91107 91205;
0149067240999992011010508004+46300+007467FM-12+150899999V0200301N001019999999N9999999N1-00631-01341999999ADDMA1999999085191MD1219999+9999ME1314429OA149900361REMSYN088AAXX  05084 06724 33/// /0302 11063 21134 38519 48442 52/// 333 55301 20036 91107 91205;
0149067240999992011010509004+46300+007467FM-12+150899999V0200801N000519999999N9999999N1-00391-01261999999ADDMA1999999085221MD1210071+9999ME1314459OA149900411REMSYN088AAXX  05094 06724 33/// /0801 11039 21126 38522 48445 52007 333 55309 20482 91108 91205;
0149067240999992011010510004+46300+007467FM-12+150899999V0200501N001019999999N9999999N1-00311-01181999999ADDMA1999999085221MD1210041+9999ME1314459OA149900211REMSYN088AAXX  05104 06724 33/// /0502 11031 21118 38522 48445 52004 333 553// 20961 91104 91203;
0149067240999992011010511004+46300+007467FM-12+150899999V0202401N000519999999N9999999N1-00201-01151999999ADDMA1999999085181MD1810011+9999ME1314419OA149900211REMSYN088AAXX  05114 06724 33/// /2401 11020 21115 38518 48441 58001 333 553// 2//// 91104 91203;
0112067240999992011010512004+46300+007467FM-12+150899999V0200101N000519999999N9999999N1-00111-01071999999ADDMA1999999085081ME1314329REMSYN076AAXX  05124 06724 33/// /0101 11011 21107 38508 48432 5//// 333 553// 2////;
0149067240999992011010513004+46300+007467FM-12+150899999V0202501N001019999999N9999999N1-00051-01011999999ADDMA1999999085061MD1610161+9999ME1314309OA149900261REMSYN088AAXX  05134 06724 33/// /2502 11005 21101 38506 48430 56016 333 553// 2//// 91105 91203;
0096067240999992011010514004+46300+007467FM-12+150899999V0202601N001019999999N9999999N1+00021-01041999999ADDMA1999999085091ME1314339REMSYN060AAXX  05144 06724 43/// /2602 10002 21104 38509 48433 5////;
0096067240999992011010515004+46300+007467FM-12+150899999V0200501N001019999999N9999999N1+00001-01121999999ADDMA1999999085081ME1314329REMSYN060AAXX  05154 06724 43/// /0502 10000 21112 38508 48432 5////;
0149067240999992011010516004+46300+007467FM-12+150899999V0200601N003119999999N9999999N1-00211-01311999999ADDMA1999999085081MD1010021+9999ME1314329OA149900461REMSYN088AAXX  05164 06724 33/// /0606 11021 21131 38508 48432 50002 333 55303 20151 91109 91206;
0149067240999992011010517004+46300+007467FM-12+150899999V0200501N002619999999N9999999N1-00141-01301999999ADDMA1999999085111MD1310021+9999ME1314359OA149900511REMSYN088AAXX  05174 06724 33/// /0505 11014 21130 38511 48435 53002 333 55300 20007 91110 91206;
0168067240999992011010518004+46300+007467FM-12+150899999V0200501N003619999999N9999999N1-00281-01251999999ADDKA1120M+00071MA1999999085111MD1219999+9999ME1314359OA149900511REMSYN094AAXX  05184 06724 33/// /0507 11028 21125 38511 48435 52/// 333 10007 55300 20007 91110 91207;
0149067240999992011010519004+46300+007467FM-12+150899999V0200501N003119999999N9999999N1-00211-01281999999ADDMA1999999085101MD1010021+9999ME1314349OA149900571REMSYN088AAXX  05194 06724 33/// /0506 11021 21128 38510 48434 50002 333 55300 20004 91111 91207;
0149067240999992011010520004+46300+007467FM-12+150899999V0200501N002119999999N9999999N1-00161-01321999999ADDMA1999999085091MD1719999+9999ME1314339OA149900571REMSYN088AAXX  05204 06724 33/// /0504 11016 21132 38509 48433 57/// 333 55300 20007 91111 91207;
0112067240999992011010521004+46300+007467FM-12+150899999V0200401N002619999999N9999999N1-00231-01291999999ADDMA1999999085091ME1314339REMSYN076AAXX  05214 06724 33/// /0405 11023 21129 38509 48433 5//// 333 553// 20007;
0149067240999992011010522004+46300+007467FM-12+150899999V0200501N003119999999N9999999N1-00141-01241999999ADDMA1999999085101MD1410001+9999ME1314349OA149900511REMSYN088AAXX  05224 06724 33/// /0506 11014 21124 38510 48434 52000 333 55300 20004 91110 91206;
0149067240999992011010523004+46300+007467FM-12+150899999V0200501N003619999999N9999999N1-00181-01091999999ADDMA1999999085091MD1219999+9999ME1314339OA149900511REMSYN088AAXX  05234 06724 33/// /0507 11018 21109 38509 48433 52/// 333 55300 20007 91110 91207;
0096067240999992011010600004+46300+007467FM-12+150899999V0200501N003119999999N9999999N1-00091-01111999999ADDMA1999999085061ME1314309REMSYN060AAXX  06004 06724 43/// /0506 11009 21111 38506 48430 5////;
0096067240999992011010601004+46300+007467FM-12+150899999V0200401N002119999999N9999999N1-00041-01101999999ADDMA1999999085011ME1314259REMSYN060AAXX  06014 06724 43/// /0404 11004 21110 38501 48425 5////;
0096067240999992011010602004+46300+007467FM-12+150899999V0200501N002119999999N9999999N1-00091-01041999999ADDMA1999999085011ME1314259REMSYN060AAXX  06024 06724 43/// /0504 11009 21104 38501 48425 5////;
0096067240999992011010603004+46300+007467FM-12+150899999V0200601N002119999999N9999999N1-00041-01181999999ADDMA1999999085011ME1314259REMSYN060AAXX  06034 06724 43/// /0604 11004 21118 38501 48425 5////;
0096067240999992011010604004+46300+007467FM-12+150899999V0200501N002119999999N9999999N1-00081-00961999999ADDMA1999999085061ME1314309REMSYN060AAXX  06044 06724 43/// /0504 11008 21096 38506 48430 5////;
0096067240999992011010605004+46300+007467FM-12+150899999V0200501N002119999999N9999999N1-00031-01071999999ADDMA1999999085051ME1314299REMSYN060AAXX  06054 06724 43/// /0504 11003 21107 38505 48429 5////;
0143067240999992011010606004+46300+007467FM-12+150899999V0200301N001519999999N9999999N1-00061-00371999999ADDIA2999-00509KA1999N-00351MA1999999085051ME1314299REMSYN082AAXX  06064 06724 43/// /0303 11006 21037 38505 48429 5//// 333 21035 3/105 55070;
0096067240999992011010607004+46300+007467FM-12+150899999V0200501N001519999999N9999999N1-00061-00761999999ADDMA1999999085081ME1314329REMSYN060AAXX  06074 06724 43/// /0503 11006 21076 38508 48432 5////;
0112067240999992011010608004+46300+007467FM-12+150899999V0200501N002619999999N9999999N1-00051-00661999999ADDMA1999999085071ME1314319REMSYN076AAXX  06084 06724 33/// /0505 11005 21066 38507 48431 5//// 333 553// 20072;
0096067240999992011010609004+46300+007467FM-12+150899999V0200501N002119999999N9999999N1+00121-00971999999ADDMA1999999085111ME1314359REMSYN060AAXX  06094 06724 43/// /0504 10012 21097 38511 48435 5////;
0149067240999992011010610004+46300+007467FM-12+150899999V0200701N002619999999N9999999N1+00081-00971999999ADDMA1999999085151MD1210071+9999ME1314399OA149900461REMSYN088AAXX  06104 06724 33/// /0705 10008 21097 38515 48439 52007 333 55300 20551 91109 91205;
0149067240999992011010611004+46300+007467FM-12+150899999V0200501N001519999999N9999999N1+00131-00841999999ADDMA1999999085151MD1210081+9999ME1314399OA149900411REMSYN088AAXX  06114 06724 33/// /0503 10013 21084 38515 48439 52008 333 55300 20450 91108 91205;
0149067240999992011010612004+46300+007467FM-12+150899999V0200401N002119999999N9999999N1+00201-00851999999ADDMA1999999085091MD1810021+9999ME1314339OA149900461REMSYN088AAXX  06124 06724 33/// /0404 10020 21085 38509 48433 58002 333 55300 20382 91109 91207;
0149067240999992011010613004+46300+007467FM-12+150899999V0200501N002619999999N9999999N1+00201-00861999999ADDMA1999999085071MD1810081+9999ME1314319OA149900621REMSYN088AAXX  06134 06724 33/// /0505 10020 21086 38507 48431 58008 333 55300 20774 91112 91206;
0096067240999992011010614004+46300+007467FM-12+150899999V0200401N003119999999N9999999N1+00181-00811999999ADDMA1999999085091ME1314339REMSYN060AAXX  06144 06724 43/// /0406 10018 21081 38509 48433 5////;
0096067240999992011010615004+46300+007467FM-12+150899999V0200501N000519999999N9999999N1+00201-00681999999ADDMA1999999085161ME1314409REMSYN060AAXX  06154 06724 43/// /0501 10020 21068 38516 48440 5////;
0149067240999992011010616004+46300+007467FM-12+150899999V0200601N001019999999N9999999N1+00171-00551999999ADDMA1999999085171MD1210101+9999ME1314409OA149900511REMSYN088AAXX  06164 06724 33/// /0602 10017 21055 38517 48440 52010 333 55300 20040 91110 91205;
0149067240999992011010617004+46300+007467FM-12+150899999V0209999C000019999999N9999999N1+00101-00351999999ADDMA1999999085221MD1210131+9999ME1314459OA149900511REMSYN088AAXX  06174 06724 33/// /0000 10010 21035 38522 48445 52013 333 55300 20011 91110 91205;
0210067240999992011010618004+46300+007467FM-12+150899999V0200601N003619999999N9999999N1+00041-00291999999ADDAA112000091KA1120M+00241MA1999999085221MD1210061+9999ME1314459OA149900621REMSYN106AAXX  06184 06724 03/// /0607 10004 21029 38522 48445 52006 69922 333 10024 55300 20007 69925 91112 91207;EQDQ01  00002PRCP12
0155067240999992011010619004+46300+007467FM-12+150899999V0200601N003119999999N9999999N1-00041-00191999999ADDMA1999999085261MD1210091+9999ME1314499OA149900621REMSYN094AAXX  06194 06724 23/// /0606 11004 21019 38526 48449 52009 333 55300 20007 69925 91112 91208;
0155067240999992011010620004+46300+007467FM-12+150899999V0200601N003619999999N9999999N1-00031-00181999999ADDMA1999999085281MD1219999+9999ME1314519OA149900671REMSYN094AAXX  06204 06724 23/// /0607 11003 21018 38528 48451 52/// 333 55300 20007 69925 91113 91208;
0155067240999992011010621004+46300+007467FM-12+150899999V0200601N004619999999N9999999N1-00051-00131999999ADDMA1999999085301MD1219999+9999ME1314539OA149900771REMSYN094AAXX  06214 06724 23/// /0609 11005 21013 38530 48453 52/// 333 55300 20007 69945 91115 91209;
0155067240999992011010622004+46300+007467FM-12+150899999V0200601N005119999999N9999999N1+00011-00081999999ADDMA1999999085351MD1210091+9999ME1314579OA149900821REMSYN094AAXX  06224 06724 23/// /0610 10001 21008 38535 48457 52009 333 55300 20007 69955 91116 91210;
0118067240999992011010623004+46300+007467FM-12+150899999V0200701N003619999999N9999999N1+00031-00051999999ADDMA1999999085381ME1314609REMSYN082AAXX  06234 06724 23/// /0707 10003 21005 38538 48460 5//// 333 553// 20007 69945;
0096067240999992011010700004+46300+007467FM-12+150899999V0200601N004119999999N9999999N1+00051-00061999999ADDMA1999999085401ME1314629REMSYN060AAXX  07004 06724 43/// /0608 10005 21006 38540 48462 5////;
0096067240999992011010701004+46300+007467FM-12+150899999V0200601N004119999999N9999999N1+00101-00081999999ADDMA1999999085391ME1314619REMSYN060AAXX  07014 06724 43/// /0608 10010 21008 38539 48461 5////;
0096067240999992011010702004+46300+007467FM-12+150899999V0200501N003619999999N9999999N1+00141-00101999999ADDMA1999999085471ME1314699REMSYN060AAXX  07024 06724 43/// /0507 10014 21010 38547 48469 5////;
0096067240999992011010703004+46300+007467FM-12+150899999V0200601N003619999999N9999999N1+00131-00051999999ADDMA1999999085451ME1314679REMSYN060AAXX  07034 06724 43/// /0607 10013 21005 38545 48467 5////;
0155067240999992011010704004+46300+007467FM-12+150899999V0200701N004119999999N9999999N1+00131-00021999999ADDMA1999999085441MD1010051+9999ME1314669OA149900771REMSYN094AAXX  07044 06724 23/// /0708 10013 21002 38544 48466 50005 333 55300 20007 69935 91115 91209;
0155067240999992011010705004+46300+007467FM-12+150899999V0200601N003619999999N9999999N1+00161+00021999999ADDMA1999999085461MD1710011+9999ME1314689OA149900671REMSYN094AAXX  07054 06724 23/// /0607 10016 20002 38546 48468 57001 333 55300 20007 69915 91113 91209;
0239067240999992011010706004+46300+007467FM-12+150899999V0200701N004619999999N9999999N1+00201+00001999999ADDAA112003091AL10600391GJ100009IA2999-00109KA1999N-00071MA1999999085441MD1010011+9999ME1314669OA149900821REMSYN124AAXX  07064 06724 03/// /0709 10020 20000 38544 48466 50001 60032 333 21007 3/101 55000 55300 20007 60005 70031 91116 91210;
0149067240999992011010707004+46300+007467FM-12+150899999V0200701N005119999999N9999999N1+00241+00001999999ADDMA1999999085441MD1010001+9999ME1314669OA149900931REMSYN088AAXX  07074 06724 33/// /0710 10024 20000 38544 48466 50000 333 55300 20007 91118 91211;
0112067240999992011010708004+46300+007467FM-12+150899999V0200601N005119999999N9999999N1+00271-00031999999ADDMA1999999085481ME1314709REMSYN076AAXX  07084 06724 33/// /0610 10027 21003 38548 48470 5//// 333 553// 20036;
0096067240999992011010709004+46300+007467FM-12+150899999V0200601N003119999999N9999999N1+00451+00031999999ADDMA1999999085481ME1314709REMSYN060AAXX  07094 06724 43/// /0606 10045 20003 38548 48470 5////;
0149067240999992011010710004+46300+007467FM-12+150899999V0200701N005119999999N9999999N1+00481-00071999999ADDMA1999999085481MD1210041+9999ME1314709OA149901291REMSYN088AAXX  07104 06724 33/// /0710 10048 21007 38548 48470 52004 333 553// 20889 91125 91212;
0149067240999992011010711004+46300+007467FM-12+150899999V0200601N005119999999N9999999N1+00541-00111999999ADDMA1999999085491MD1010011+9999ME1314719OA149901291REMSYN088AAXX  07114 06724 33/// /0610 10054 21011 38549 48471 50001 333 553// 2//// 91125 91212;
0149067240999992011010712004+46300+007467FM-12+150899999V0200701N004619999999N9999999N1+00591-00141999999ADDMA1999999085461MD1710021+9999ME1314699OA149901291REMSYN088AAXX  07124 06724 33/// /0709 10059 21014 38546 48469 57002 333 553// 2//// 91125 91212;
0149067240999992011010713004+46300+007467FM-12+150899999V0200701N004619999999N9999999N1+00641-00161999999ADDMA1999999085451MD1710031+9999ME1314689OA149901031REMSYN088AAXX  07134 06724 33/// /0709 10064 21016 38545 48468 57003 333 553// 2//// 91120 91210;
0096067240999992011010714004+46300+007467FM-12+150899999V0200601N004119999999N9999999N1+00621-00201999999ADDMA1999999085471ME1314709REMSYN060AAXX  07144 06724 43/// /0608 10062 21020 38547 48470 5////;
0096067240999992011010715004+46300+007467FM-12+150899999V0200601N003619999999N9999999N1+00551-00181999999ADDMA1999999085511ME1314739REMSYN060AAXX  07154 06724 43/// /0607 10055 21018 38551 48473 5////;
0149067240999992011010716004+46300+007467FM-12+150899999V0200601N005119999999N9999999N1+00511-00221999999ADDMA1999999085531MD1210081+9999ME1314759OA149901031REMSYN088AAXX  07164 06724 33/// /0610 10051 21022 38553 48475 52008 333 55300 20058 91120 91210;
0149067240999992011010717004+46300+007467FM-12+150899999V0200601N005719999999N9999999N1+00521-00231999999ADDMA1999999085521MD1210051+9999ME1314749OA149901081REMSYN088AAXX  07174 06724 33/// /0611 10052 21023 38552 48474 52005 333 55300 20011 91121 91212;
0131067240999992011010718004+46300+007467FM-12+150899999V0200701N005719999999N9999999N1+00541-00251999999ADDKA1120M+00661MA1999999085521ME1314749REMSYN082AAXX  07184 06724 33/// /0711 10054 21025 38552 48474 5//// 333 10066 553// 20011;
0149067240999992011010719004+46300+007467FM-12+150899999V0200601N006719999999N9999999N1+00501-00271999999ADDMA1999999085501MD1719999+9999ME1314729OA149901291REMSYN088AAXX  07194 06724 33/// /0613 10050 21027 38550 48472 57/// 333 55300 20011 91125 91213;
0096067240999992011010720004+46300+007467FM-12+150899999V0200601N006219999999N9999999N1+00501-00271999999ADDMA1999999085481ME1314709REMSYN060AAXX  07204 06724 43/// /0612 10050 21027 38548 48470 5////;
0096067240999992011010721004+46300+007467FM-12+150899999V0200601N004119999999N9999999N1+00501-00271999999ADDMA1999999085481ME1314709REMSYN060AAXX  07214 06724 43/// /0608 10050 21027 38548 48470 5////;
0149067240999992011010722004+46300+007467FM-12+150899999V0200701N003619999999N9999999N1+00491-00261999999ADDMA1999999085491MD1210011+9999ME1314719OA149901241REMSYN088AAXX  07224 06724 33/// /0707 10049 21026 38549 48471 52001 333 55300 20011 91124 91211;
0112067240999992011010723004+46300+007467FM-12+150899999V0200901N002119999999N9999999N1+00471-00261999999ADDMA1999999085531ME1314759REMSYN076AAXX  07234 06724 33/// /0904 10047 21026 38553 48475 5//// 333 553// 20011;
0112067240999992011010800004+46300+007467FM-12+150899999V0200701N004119999999N9999999N1+00481-00261999999ADDMA1999999085511ME1314739REMSYN076AAXX  08004 06724 33/// /0708 10048 21026 38551 48473 5//// 333 553// 20011;
0096067240999992011010801004+46300+007467FM-12+150899999V0200701N004119999999N9999999N1+00471-00261999999ADDMA1999999085491ME1314719REMSYN060AAXX  08014 06724 43/// /0708 10047 21026 38549 48471 5////;
0096067240999992011010802004+46300+007467FM-12+150899999V0200701N005119999999N9999999N1+00481-00281999999ADDMA1999999085521ME1314749REMSYN060AAXX  08024 06724 43/// /0710 10048 21028 38552 48474 5////;
0096067240999992011010803004+46300+007467FM-12+150899999V0200701N004619999999N9999999N1+00481-00311999999ADDMA1999999085511ME1314739REMSYN060AAXX  08034 06724 43/// /0709 10048 21031 38551 48473 5////;
0096067240999992011010804004+46300+007467FM-12+150899999V0200701N006219999999N9999999N1+00481-00311999999ADDMA1999999085471ME1314699REMSYN060AAXX  08044 06724 43/// /0712 10048 21031 38547 48469 5////;
0096067240999992011010805004+46300+007467FM-12+150899999V0200601N002619999999N9999999N1+00451-00291999999ADDMA1999999085541ME1314769REMSYN060AAXX  08054 06724 43/// /0605 10045 21029 38554 48476 5////;
0143067240999992011010806004+46300+007467FM-12+150899999V0202501N001519999999N9999999N1+00351-00191999999ADDIA2999+00009KA1999N+00331MA1999999085601ME1314819REMSYN082AAXX  08064 06724 43/// /2503 10035 21019 38560 48481 5//// 333 20033 3/000 55050;
0096067240999992011010807004+46300+007467FM-12+150899999V0201001N001019999999N9999999N1+00291-00151999999ADDMA1999999085581ME1314799REMSYN060AAXX  08074 06724 43/// /1002 10029 21015 38558 48479 5////;
0112067240999992011010808004+46300+007467FM-12+150899999V0200701N002119999999N9999999N1+00381-00171999999ADDMA1999999085611ME1314829REMSYN076AAXX  08084 06724 33/// /0704 10038 21017 38561 48482 5//// 333 553// 20086;
0096067240999992011010809004+46300+007467FM-12+150899999V0200701N001519999999N9999999N1+00421-00141999999ADDMA1999999085651ME1314869REMSYN060AAXX  08094 06724 43/// /0703 10042 21014 38565 48486 5////;
0096067240999992011010810004+46300+007467FM-12+150899999V0200701N001519999999N9999999N1+00501-00131999999ADDMA1999999085661ME1314879REMSYN060AAXX  08104 06724 43/// /0703 10050 21013 38566 48487 5////;
0096067240999992011010811004+46300+007467FM-12+150899999V0200601N001519999999N9999999N1+00531-00121999999ADDMA1999999085651ME1314879REMSYN060AAXX  08114 06724 43/// /0603 10053 21012 38565 48487 5////;
0096067240999992011010812004+46300+007467FM-12+150899999V0200601N002619999999N9999999N1+00651-00211999999ADDMA1999999085601ME1314829REMSYN060AAXX  08124 06724 43/// /0605 10065 21021 38560 48482 5////;
0096067240999992011010813004+46300+007467FM-12+150899999V0200601N002119999999N9999999N1+00661-00221999999ADDMA1999999085561ME1314789REMSYN060AAXX  08134 06724 43/// /0604 10066 21022 38556 48478 5////;
0096067240999992011010814004+46300+007467FM-12+150899999V0200701N003119999999N9999999N1+00651-00261999999ADDMA1999999085541ME1314769REMSYN060AAXX  08144 06724 43/// /0706 10065 21026 38554 48476 5////;
0096067240999992011010815004+46300+007467FM-12+150899999V0200601N003619999999N9999999N1+00591-00321999999ADDMA1999999085561ME1314789REMSYN060AAXX  08154 06724 43/// /0607 10059 21032 38556 48478 5////;
0096067240999992011010816004+46300+007467FM-12+150899999V0200601N004119999999N9999999N1+00461-00321999999ADDMA1999999085571ME1314799REMSYN060AAXX  08164 06724 43/// /0608 10046 21032 38557 48479 5////;
0096067240999992011010817004+46300+007467FM-12+150899999V0200601N006719999999N9999999N1+00471-00341999999ADDMA1999999085551ME1314779REMSYN060AAXX  08174 06724 43/// /0613 10047 21034 38555 48477 5////;
0096067240999992011010818004+46300+007467FM-12+150899999V0200601N006219999999N9999999N1+00461-00371999999ADDMA1999999085551ME1314779REMSYN060AAXX  08184 06724 43/// /0612 10046 21037 38555 48477 5////;
0096067240999992011010819004+46300+007467FM-12+150899999V0200601N005719999999N9999999N1+00441-00381999999ADDMA1999999085551ME1314779REMSYN060AAXX  08194 06724 43/// /0611 10044 21038 38555 48477 5////;
0096067240999992011010820004+46300+007467FM-12+150899999V0200701N005119999999N9999999N1+00441-00391999999ADDMA1999999085581ME1314809REMSYN060AAXX  08204 06724 43/// /0710 10044 21039 38558 48480 5////;
0096067240999992011010821004+46300+007467FM-12+150899999V0200601N005719999999N9999999N1+00441-00391999999ADDMA1999999085571ME1314799REMSYN060AAXX  08214 06724 43/// /0611 10044 21039 38557 48479 5////;
0096067240999992011010822004+46300+007467FM-12+150899999V0200701N003619999999N9999999N1+00471-00391999999ADDMA1999999085601ME1314829REMSYN060AAXX  08224 06724 43/// /0707 10047 21039 38560 48482 5////;
0096067240999992011010823004+46300+007467FM-12+150899999V0200701N003119999999N9999999N1+00421-00371999999ADDMA1999999085561ME1314789REMSYN060AAXX  08234 06724 43/// /0706 10042 21037 38556 48478 5////;
0096067240999992011010900004+46300+007467FM-12+150899999V0200701N004619999999N9999999N1+00451-00391999999ADDMA1999999085571ME1314799REMSYN060AAXX  09004 06724 43/// /0709 10045 21039 38557 48479 5////;
0096067240999992011010901004+46300+007467FM-12+150899999V0200601N005119999999N9999999N1+00401-00371999999ADDMA1999999085561ME1314789REMSYN060AAXX  09014 06724 43/// /0610 10040 21037 38556 48478 5////;
0096067240999992011010902004+46300+007467FM-12+150899999V0200701N006219999999N9999999N1+00391-00361999999ADDMA1999999085521ME1314749REMSYN060AAXX  09024 06724 43/// /0712 10039 21036 38552 48474 5////;
0096067240999992011010903004+46300+007467FM-12+150899999V0200701N005719999999N9999999N1+00411-00381999999ADDMA1999999085481ME1314709REMSYN060AAXX  09034 06724 43/// /0711 10041 21038 38548 48470 5////;
0096067240999992011010904004+46300+007467FM-12+150899999V0200801N004119999999N9999999N1+00371-00411999999ADDMA1999999085481ME1314709REMSYN060AAXX  09044 06724 43/// /0808 10037 21041 38548 48470 5////;
0096067240999992011010905004+46300+007467FM-12+150899999V0200701N004619999999N9999999N1+00391-00411999999ADDMA1999999085451ME1314679REMSYN060AAXX  09054 06724 43/// /0709 10039 21041 38545 48467 5////;
0106067240999992011010906004+46300+007467FM-12+150899999V0200701N004619999999N9999999N1+00381-00421999999ADDMA1999999085451ME1314679REMSYN070AAXX  09064 06724 43/// /0709 10038 21042 38545 48467 5//// 333 55068;
0096067240999992011010907004+46300+007467FM-12+150899999V0200901N003119999999N9999999N1+00401-00391999999ADDMA1999999085481ME1314709REMSYN060AAXX  09074 06724 43/// /0906 10040 21039 38548 48470 5////;
0112067240999992011010908004+46300+007467FM-12+150899999V0200801N003119999999N9999999N1+00431-00381999999ADDMA1999999085491ME1314719REMSYN076AAXX  09084 06724 33/// /0806 10043 21038 38549 48471 5//// 333 553// 20036;
0112067240999992011010909004+46300+007467FM-12+150899999V0200701N004619999999N9999999N1+00451-00381999999ADDMA1999999085501ME1314729REMSYN076AAXX  09094 06724 33/// /0709 10045 21038 38550 48472 5//// 333 553// 20479;
0149067240999992011010910004+46300+007467FM-12+150899999V0200701N005119999999N9999999N1+00491-00351999999ADDMA1999999085531MD1210051+9999ME1314759OA149901081REMSYN088AAXX  09104 06724 33/// /0710 10049 21035 38553 48475 52005 333 55300 20752 91121 91210;
0149067240999992011010911004+46300+007467FM-12+150899999V0200801N003119999999N9999999N1+00471-00331999999ADDMA1999999085521MD1210031+9999ME1314749OA149900981REMSYN088AAXX  09114 06724 33/// /0806 10047 21033 38552 48474 52003 333 55300 20569 91119 91210;
0149067240999992011010912004+46300+007467FM-12+150899999V0200701N004619999999N9999999N1+00491-00331999999ADDMA1999999085431MD1810071+9999ME1314669OA149901391REMSYN088AAXX  09124 06724 33/// /0709 10049 21033 38543 48466 58007 333 55300 20392 91127 91213;
0149067240999992011010913004+46300+007467FM-12+150899999V0200701N005719999999N9999999N1+00471-00341999999ADDMA1999999085411MD1710121+9999ME1314649OA149901131REMSYN088AAXX  09134 06724 33/// /0711 10047 21034 38541 48464 57012 333 55300 20580 91122 91211;
0096067240999992011010914004+46300+007467FM-12+150899999V0200701N004619999999N9999999N1+00471-00341999999ADDMA1999999085411ME1314649REMSYN060AAXX  09144 06724 43/// /0709 10047 21034 38541 48464 5////;
0096067240999992011010915004+46300+007467FM-12+150899999V0200701N004119999999N9999999N1+00471-00361999999ADDMA1999999085431ME1314669REMSYN060AAXX  09154 06724 43/// /0708 10047 21036 38543 48466 5////;
0149067240999992011010916004+46300+007467FM-12+150899999V0200901N001519999999N9999999N1+00421-00331999999ADDMA1999999085471MD1210061+9999ME1314699OA149901031REMSYN088AAXX  09164 06724 33/// /0903 10042 21033 38547 48469 52006 333 55300 20058 91120 91210;
0149067240999992011010917004+46300+007467FM-12+150899999V0202101N000519999999N9999999N1+00361-00261999999ADDMA1999999085491MD1210081+9999ME1314719OA149900881REMSYN088AAXX  09174 06724 33/// /2101 10036 21026 38549 48471 52008 333 55300 20011 91117 91208;
0168067240999992011010918004+46300+007467FM-12+150899999V0200701N000519999999N9999999N1+00281-00221999999ADDKA1120M+00521MA1999999085511MD1210081+9999ME1314739OA149901241REMSYN094AAXX  09184 06724 33/// /0701 10028 21022 38551 48473 52008 333 10052 55300 20011 91124 91212;
0149067240999992011010919004+46300+007467FM-12+150899999V0202201N001019999999N9999999N1+00201-00041999999ADDMA1999999085561MD1210091+9999ME1314779OA149900211REMSYN088AAXX  09194 06724 33/// /2202 10020 21004 38556 48477 52009 333 55300 20011 91104 91202;
0149067240999992011010920004+46300+007467FM-12+150899999V0202601N000519999999N9999999N1+00121+00041999999ADDMA1999999085611MD1210121+9999ME1314829OA149900211REMSYN088AAXX  09204 06724 33/// /2601 10012 20004 38561 48482 52012 333 55300 20011 91104 91202;
0155067240999992011010921004+46300+007467FM-12+150899999V0200301N000519999999N9999999N1+00071-00011999999ADDMA1999999085601MD1210091+9999ME1314819OA149900881REMSYN094AAXX  09214 06724 23/// /0301 10007 21001 38560 48481 52009 333 55300 20007 69985 91117 91208;
0155067240999992011010922004+46300+007467FM-12+150899999V0200701N000519999999N9999999N1+00061+00001999999ADDMA1999999085631MD1210071+9999ME1314849OA149900211REMSYN094AAXX  09224 06724 23/// /0701 10006 20000 38563 48484 52007 333 55300 20007 69945 91104 91203;
0155067240999992011010923004+46300+007467FM-12+150899999V0200701N000519999999N9999999N1+00041-00011999999ADDMA1999999085651MD1210041+9999ME1314859OA149900211REMSYN094AAXX  09234 06724 23/// /0701 10004 21001 38565 48485 52004 333 55300 20007 69985 91104 91203;
0172067240999992011011000004+46300+007467FM-12+150899999V0209999C000019999999N9999999N1+00021-00011999999ADDAA106002091MA1999999085651MD1210051+9999ME1314859OA149901131REMSYN100AAXX  10004 06724 03/// /0000 10002 21001 38565 48485 52005 60021 333 55300 20007 69945 91122 91211;
0155067240999992011011001004+46300+007467FM-12+150899999V0209999C000019999999N9999999N1-00011-00021999999ADDMA1999999085661MD1210031+9999ME1314869OA149900051REMSYN094AAXX  10014 06724 23/// /0000 11001 21002 38566 48486 52003 333 55300 20007 69955 91101 91201;
0118067240999992011011002004+46300+007467FM-12+150899999V0200601N000519999999N9999999N1+00021-00021999999ADDMA1999999085661ME1314869REMSYN082AAXX  10024 06724 23/// /0601 10002 21002 38566 48486 5//// 333 553// 20007 69955;
0096067240999992011011003004+46300+007467FM-12+150899999V0200501N000519999999N9999999N1+00011-00041999999ADDMA1999999085651ME1314859REMSYN060AAXX  10034 06724 43/// /0501 10001 21004 38565 48485 5////;
0112067240999992011011004004+46300+007467FM-12+150899999V0209999C000019999999N9999999N1+00001-00041999999ADDMA1999999085641ME1314849REMSYN076AAXX  10044 06724 33/// /0000 10000 21004 38564 48484 5//// 333 553// 20007;
0149067240999992011011005004+46300+007467FM-12+150899999V0200801N000519999999N9999999N1+00021-00021999999ADDMA1999999085621MD1819999+9999ME1314839OA149900101REMSYN088AAXX  10054 06724 33/// /0801 10002 21002 38562 48483 58/// 333 55300 20007 91102 91201;
0168067240999992011011006004+46300+007467FM-12+150899999V0200601N000519999999N9999999N1+00031-00021999999ADDAA124003691GJ100009IA2999-00109KA1999N-00041MA1999999085631ME1314849REMSYN088AAXX  10064 06724 43/// /0601 10003 21002 38563 48484 5//// 333 21004 3/101 55000 70036;
0149067240999992011011007004+46300+007467FM-12+150899999V0200701N000519999999N9999999N1+00001-00031999999ADDMA1999999085651MD1310011+9999ME1314859OA149900151REMSYN088AAXX  10074 06724 33/// /0701 10000 21003 38565 48485 53001 333 55300 20007 91103 91202;
0096067240999992011011008004+46300+007467FM-12+150899999V0200701N000519999999N9999999N1+00011-00041999999ADDMA1999999085681ME1314889REMSYN060AAXX  10084 06724 43/// /0701 10001 21004 38568 48488 5////;
0096067240999992011011009004+46300+007467FM-12+150899999V0200801N000519999999N9999999N1+00011-00041999999ADDMA1999999085691ME1314899REMSYN060AAXX  10094 06724 43/// /0801 10001 21004 38569 48489 5////;
0149067240999992011011010004+46300+007467FM-12+150899999V0201901N000519999999N9999999N1-00021-00021999999ADDMA1999999085691MD1210041+9999ME1314899OA149900211REMSYN088AAXX  10104 06724 33/// /1901 11002 21002 38569 48489 52004 333 55300 20439 91104 91203;
0149067240999992011011011004+46300+007467FM-12+150899999V0201501N000519999999N9999999N1+00011+00011999999ADDMA1999999085681MD1719999+9999ME1314889OA149900211REMSYN088AAXX  10114 06724 33/// /1501 10001 20001 38568 48488 57/// 333 55300 20414 91104 91203;
0112067240999992011011012004+46300+007467FM-12+150899999V0202401N000519999999N9999999N1-00011-00011999999ADDMA1999999085641ME1314849REMSYN076AAXX  10124 06724 33/// /2401 11001 21001 38564 48484 5//// 333 553// 20482;
0096067240999992011011013004+46300+007467FM-12+150899999V0202501N000519999999N9999999N1+00041+00041999999ADDMA1999999085581ME1314799REMSYN060AAXX  10134 06724 43/// /2501 10004 20004 38558 48479 5////;
0096067240999992011011014004+46300+007467FM-12+150899999V0201001N000519999999N9999999N1+00061+00061999999ADDMA1999999085551ME1314769REMSYN060AAXX  10144 06724 43/// /1001 10006 20006 38555 48476 5////;
0096067240999992011011015004+46300+007467FM-12+150899999V0202001N000519999999N9999999N1+00021+00021999999ADDMA1999999085541ME1314759REMSYN060AAXX  10154 06724 43/// /2001 10002 20002 38554 48475 5////;
0096067240999992011011016004+46300+007467FM-12+150899999V0203101N001019999999N9999999N1+00031+00031999999ADDMA1999999085541ME1314759REMSYN060AAXX  10164 06724 43/// /3102 10003 20003 38554 48475 5////;
0096067240999992011011017004+46300+007467FM-12+150899999V0200701N001019999999N9999999N1-00031-00041999999ADDMA1999999085531ME1314749REMSYN060AAXX  10174 06724 43/// /0702 11003 21004 38553 48474 5////;
0119067240999992011011018004+46300+007467FM-12+150899999V0200601N001019999999N9999999N1-00041-00041999999ADDKA1999M+00061MA1999999085521ME1314739REMSYN070AAXX  10184 06724 43/// /0602 11004 21004 38552 48473 5//// 333 10006;
0096067240999992011011019004+46300+007467FM-12+150899999V0200601N002119999999N9999999N1-00021-00081999999ADDMA1999999085521ME1314739REMSYN060AAXX  10194 06724 43/// /0604 11002 21008 38552 48473 5////;
0096067240999992011011020004+46300+007467FM-12+150899999V0200701N001519999999N9999999N1-00051-00101999999ADDMA1999999085501ME1314719REMSYN060AAXX  10204 06724 43/// /0703 11005 21010 38550 48471 5////;
0096067240999992011011021004+46300+007467FM-12+150899999V0200701N001519999999N9999999N1-00121-00161999999ADDMA1999999085511ME1314729REMSYN060AAXX  10214 06724 43/// /0703 11012 21016 38551 48472 5////;
0096067240999992011011022004+46300+007467FM-12+150899999V0200401N001519999999N9999999N1-00181-00281999999ADDMA1999999085501ME1314719REMSYN060AAXX  10224 06724 43/// /0403 11018 21028 38550 48471 5////;
0096067240999992011011023004+46300+007467FM-12+150899999V0200401N001519999999N9999999N1-00151-00361999999ADDMA1999999085481ME1314699REMSYN060AAXX  10234 06724 43/// /0403 11015 21036 38548 48469 5////;
0096067240999992011011100004+46300+007467FM-12+150899999V0200201N001019999999N9999999N1-00251-00421999999ADDMA1999999085441ME1314659REMSYN060AAXX  11004 06724 43/// /0202 11025 21042 38544 48465 5////;
0096067240999992011011101004+46300+007467FM-12+150899999V0200201N001519999999N9999999N1-00291-00481999999ADDMA1999999085391ME1314619REMSYN060AAXX  11014 06724 43/// /0203 11029 21048 38539 48461 5////;
0096067240999992011011102004+46300+007467FM-12+150899999V0200401N002119999999N9999999N1-00261-00491999999ADDMA1999999085381ME1314609REMSYN060AAXX  11024 06724 43/// /0404 11026 21049 38538 48460 5////;
0096067240999992011011103004+46300+007467FM-12+150899999V0200301N001519999999N9999999N1-00311-00561999999ADDMA1999999085331ME1314559REMSYN060AAXX  11034 06724 43/// /0303 11031 21056 38533 48455 5////;
0096067240999992011011104004+46300+007467FM-12+150899999V0200201N001519999999N9999999N1-00401-00621999999ADDMA1999999085311ME1314539REMSYN060AAXX  11044 06724 43/// /0203 11040 21062 38531 48453 5////;
0096067240999992011011105004+46300+007467FM-12+150899999V0200101N001519999999N9999999N1-00421-00641999999ADDMA1999999085271ME1314499REMSYN060AAXX  11054 06724 43/// /0103 11042 21064 38527 48449 5////;
0106067240999992011011106004+46300+007467FM-12+150899999V0200401N002119999999N9999999N1-00361-00671999999ADDMA1999999085251ME1314489REMSYN070AAXX  11064 06724 43/// /0404 11036 21067 38525 48448 5//// 333 55000;
0149067240999992011011107004+46300+007467FM-12+150899999V0200201N001519999999N9999999N1-00391-00701999999ADDMA1999999085241MD1819999+9999ME1314479OA149900261REMSYN088AAXX  11074 06724 33/// /0203 11039 21070 38524 48447 58/// 333 55300 20004 91105 91204;
0112067240999992011011108004+46300+007467FM-12+150899999V0200501N002619999999N9999999N1-00281-00621999999ADDMA1999999085231ME1314469REMSYN076AAXX  11084 06724 33/// /0505 11028 21062 38523 48446 5//// 333 553// 20054;
0096067240999992011011109004+46300+007467FM-12+150899999V0200701N001519999999N9999999N1-00061-00571999999ADDMA1999999085221ME1314459REMSYN060AAXX  11094 06724 43/// /0703 11006 21057 38522 48445 5////;
0149067240999992011011110004+46300+007467FM-12+150899999V0200801N001519999999N9999999N1+00061-00561999999ADDMA1999999085201MD1710041+9999ME1314439OA149900361REMSYN088AAXX  11104 06724 33/// /0803 10006 21056 38520 48443 57004 333 55309 20986 91107 91205;
0149067240999992011011111004+46300+007467FM-12+150899999V0200701N002119999999N9999999N1+00151-00661999999ADDMA1999999085111MD1810121+9999ME1314359OA149900511REMSYN088AAXX  11114 06724 33/// /0704 10015 21066 38511 48435 58012 333 55304 20940 91110 91206;
0112067240999992011011112004+46300+007467FM-12+150899999V0200801N001019999999N9999999N1+00121-00631999999ADDMA1999999085021ME1314269REMSYN076AAXX  11124 06724 33/// /0802 10012 21063 38502 48426 5//// 333 553// 20684;
0149067240999992011011113004+46300+007467FM-12+150899999V0203201N001519999999N9999999N1+00111-00521999999ADDMA1999999085001MD1610201+9999ME1314249OA149900311REMSYN088AAXX  11134 06724 33/// /3203 10011 21052 38500 48424 56020 333 55300 20407 91106 91204;
0096067240999992011011114004+46300+007467FM-12+150899999V0203001N001519999999N9999999N1+00041-00391999999ADDMA1999999085041ME1314289REMSYN060AAXX  11144 06724 43/// /3003 10004 21039 38504 48428 5////;
0096067240999992011011115004+46300+007467FM-12+150899999V0202701N000519999999N9999999N1-00121-00181999999ADDMA1999999085131ME1314379REMSYN060AAXX  11154 06724 43/// /2701 11012 21018 38513 48437 5////;
0155067240999992011011116004+46300+007467FM-12+150899999V0200401N000519999999N9999999N1-00131-00251999999ADDMA1999999085141MD1110141+9999ME1314379OA149900261REMSYN094AAXX  11164 06724 23/// /0401 11013 21025 38514 48437 51014 333 55300 20047 69975 91105 91203;
0155067240999992011011117004+46300+007467FM-12+150899999V0209999C000019999999N9999999N1-00181-00201999999ADDMA1999999085191MD1110131+9999ME1314429OA149900211REMSYN094AAXX  11174 06724 23/// /0000 11018 21020 38519 48442 51013 333 55300 20007 69935 91104 91202;
0191067240999992011011118004+46300+007467FM-12+150899999V0209999C000019999999N9999999N1-00271-00381999999ADDAA112002091KA1120M+00161MA1999999085241MD1310111+9999ME1314479OA149900511REMSYN106AAXX  11184 06724 03/// /0000 11027 21038 38524 48447 53011 60022 333 10016 55300 20007 60005 91110 91206;
0149067240999992011011119004+46300+007467FM-12+150899999V0203301N001019999999N9999999N1-00231-00371999999ADDMA1999999085291MD1310151+9999ME1314519OA149900151REMSYN088AAXX  11194 06724 33/// /3302 11023 21037 38529 48451 53015 333 55300 20004 91103 91202;
0155067240999992011011120004+46300+007467FM-12+150899999V0203301N000519999999N9999999N1-00061-00271999999ADDMA1999999085331MD1110141+9999ME1314559OA149900151REMSYN094AAXX  11204 06724 23/// /3301 11006 21027 38533 48455 51014 333 55300 20007 69915 91103 91202;
0149067240999992011011121004+46300+007467FM-12+150899999V0203001N001019999999N9999999N1-00151-00191999999ADDMA1999999085431MD1310191+9999ME1314659OA149900211REMSYN088AAXX  11214 06724 33/// /3002 11015 21019 38543 48465 53019 333 55300 20007 91104 91202;
0155067240999992011011122004+46300+007467FM-12+150899999V0202901N001519999999N9999999N1-00151-00181999999ADDMA1999999085511MD1310221+9999ME1314729OA149900261REMSYN094AAXX  11224 06724 23/// /2903 11015 21018 38551 48472 53022 333 55300 20007 69935 91105 91203;
0149067240999992011011123004+46300+007467FM-12+150899999V0202901N001519999999N9999999N1-00161-00181999999ADDMA1999999085591MD1110261+9999ME1314799OA149900261REMSYN088AAXX  11234 06724 33/// /2903 11016 21018 38559 48479 51026 333 55300 20007 91105 91203;
0172067240999992011011200004+46300+007467FM-12+150899999V0202501N001519999999N9999999N1-00071-00191999999ADDAA106000591MA1999999085631MD1110201+9999ME1314839OA149900411REMSYN100AAXX  12004 06724 03/// /2503 11007 21019 38563 48483 51020 69941 333 55300 20007 60005 91108 91204;
0155067240999992011011201004+46300+007467FM-12+150899999V0203101N001019999999N9999999N1-00041-00221999999ADDMA1999999085661MD1110151+9999ME1314869OA149900311REMSYN094AAXX  12014 06724 23/// /3102 11004 21022 38566 48486 51015 333 55300 20007 69915 91106 91203;
0112067240999992011011202004+46300+007467FM-12+150899999V0202901N001019999999N9999999N1-00101-00191999999ADDMA1999999085731ME1314939REMSYN076AAXX  12024 06724 33/// /2902 11010 21019 38573 48493 5//// 333 553// 20007;
0096067240999992011011203004+46300+007467FM-12+150899999V0202801N001019999999N9999999N1-00041-00211999999ADDMA1999999085821ME1315019REMSYN060AAXX  12034 06724 43/// /2802 11004 21021 38582 48501 5////;
0096067240999992011011204004+46300+007467FM-12+150899999V0203301N001519999999N9999999N1-00041-00221999999ADDMA1999999085851ME1315049REMSYN060AAXX  12044 06724 43/// /3303 11004 21022 38585 48504 5////;
0112067240999992011011205004+46300+007467FM-12+150899999V0202701N001019999999N9999999N1-00131-00221999999ADDMA1999999085861ME1315059REMSYN076AAXX  12054 06724 33/// /2702 11013 21022 38586 48505 5//// 333 553// 20007;
0168067240999992011011206004+46300+007467FM-12+150899999V0203001N001019999999N9999999N1-00191-00231999999ADDAA124002091GJ101449IA2999-00309KA1999N-00391MA1999999085941ME1315129REMSYN088AAXX  12064 06724 43/// /3002 11019 21023 38594 48512 5//// 333 21039 3/103 55024 70021;
0149067240999992011011207004+46300+007467FM-12+150899999V0202801N001019999999N9999999N1-00091-00231999999ADDMA1999999085941MD1210091+9999ME1315129OA149900211REMSYN088AAXX  12074 06724 33/// /2802 11009 21023 38594 48512 52009 333 55300 20011 91104 91203;
0096067240999992011011208004+46300+007467FM-12+150899999V0202501N001519999999N9999999N1-00041-00241999999ADDMA1999999085991ME1315179REMSYN060AAXX  12084 06724 43/// /2503 11004 21024 38599 48517 5////;
0096067240999992011011209004+46300+007467FM-12+150899999V0202901N000519999999N9999999N1+00011-00271999999ADDMA1999999086001ME1315189REMSYN060AAXX  12094 06724 43/// /2901 10001 21027 38600 48518 5////;
0149067240999992011011210004+46300+007467FM-12+150899999V0202501N001019999999N9999999N1+00091-00311999999ADDMA1999999086021MD1219999+9999ME1315209OA149900261REMSYN088AAXX  12104 06724 33/// /2502 10009 21031 38602 48520 52/// 333 55300 20565 91105 91203;
0149067240999992011011211004+46300+007467FM-12+150899999V0202301N001019999999N9999999N1+00191-00291999999ADDMA1999999085991MD1010001+9999ME1315189OA149900261REMSYN088AAXX  12114 06724 33/// /2302 10019 21029 38599 48518 50000 333 55304 2//// 91105 91203;
0096067240999992011011212004+46300+007467FM-12+150899999V0202501N001519999999N9999999N1+00081-00261999999ADDMA1999999086001ME1315189REMSYN060AAXX  12124 06724 43/// /2503 10008 21026 38600 48518 5////;
0096067240999992011011213004+46300+007467FM-12+150899999V0202501N001519999999N9999999N1+00061-00211999999ADDMA1999999086001ME1315189REMSYN060AAXX  12134 06724 43/// /2503 10006 21021 38600 48518 5////;
0096067240999992011011214004+46300+007467FM-12+150899999V0202701N001519999999N9999999N1+00141-00271999999ADDMA1999999086031ME1315219REMSYN060AAXX  12144 06724 43/// /2703 10014 21027 38603 48521 5////;
0096067240999992011011215004+46300+007467FM-12+150899999V0202901N002119999999N9999999N1+00231-00191999999ADDMA1999999086091ME1315279REMSYN060AAXX  12154 06724 43/// /2904 10023 21019 38609 48527 5////;
0155067240999992011011216004+46300+007467FM-12+150899999V0203101N001519999999N9999999N1+00111-00101999999ADDMA1999999086161MD1210161+9999ME1315339OA149900461REMSYN094AAXX  12164 06724 23/// /3103 10011 21010 38616 48533 52016 333 55300 20032 69925 91109 91204;
0155067240999992011011217004+46300+007467FM-12+150899999V0202901N001019999999N9999999N1+00031-00031999999ADDMA1999999086161MD1210131+9999ME1315339OA149900411REMSYN094AAXX  12174 06724 23/// /2902 10003 21003 38616 48533 52013 333 55300 20007 69915 91108 91204;
0191067240999992011011218004+46300+007467FM-12+150899999V0202501N001019999999N9999999N1+00021-00041999999ADDAA112001091KA1120M+00271MA1999999086151MD1010061+9999ME1315329OA149900461REMSYN106AAXX  12184 06724 03/// /2502 10002 21004 38615 48532 50006 69992 333 10027 55300 20007 69965 91109 91204;
0155067240999992011011219004+46300+007467FM-12+150899999V0203101N000519999999N9999999N1+00031-00011999999ADDMA1999999086191MD1210031+9999ME1315369OA149900151REMSYN094AAXX  12194 06724 23/// /3101 10003 21001 38619 48536 52003 333 55300 20007 69955 91103 91202;
0155067240999992011011220004+46300+007467FM-12+150899999V0203201N001019999999N9999999N1+00111+00041999999ADDMA1999999086181MD1210021+9999ME1315359OA149900211REMSYN094AAXX  12204 06724 23/// /3202 10011 20004 38618 48535 52002 333 55300 20007 69935 91104 91202;
0155067240999992011011221004+46300+007467FM-12+150899999V0202901N000519999999N9999999N1+00141+00081999999ADDMA1999999086191MD1210041+9999ME1315369OA149900411REMSYN094AAXX  12214 06724 23/// /2901 10014 20008 38619 48536 52004 333 55300 20007 69925 91108 91204;
0155067240999992011011222004+46300+007467FM-12+150899999V0202801N001019999999N9999999N1+00221+00161999999ADDMA1999999086201MD1110011+9999ME1315389OA149900211REMSYN094AAXX  12224 06724 23/// /2802 10022 20016 38620 48538 51001 333 55300 20007 69925 91104 91202;
0155067240999992011011223004+46300+007467FM-12+150899999V0202601N001019999999N9999999N1+00251+00191999999ADDMA1999999086191MD1010011+9999ME1315379OA149900211REMSYN094AAXX  12234 06724 23/// /2602 10025 20019 38619 48537 50001 333 55300 20007 69925 91104 91202;
0172067240999992011011300004+46300+007467FM-12+150899999V0202801N001519999999N9999999N1+00291+00221999999ADDAA106002091MA1999999086161MD1710031+9999ME1315349OA149900461REMSYN100AAXX  13004 06724 03/// /2803 10029 20022 38616 48534 57003 60021 333 55300 20007 69935 91109 91204;
0155067240999992011011301004+46300+007467FM-12+150899999V0202701N001519999999N9999999N1+00321+00261999999ADDMA1999999086141MD1710061+9999ME1315329OA149900311REMSYN094AAXX  13014 06724 23/// /2703 10032 20026 38614 48532 57006 333 55300 20007 69945 91106 91203;
0155067240999992011011302004+46300+007467FM-12+150899999V0202401N002119999999N9999999N1+00241+00231999999ADDMA1999999086171MD1519999+9999ME1315359OA149900311REMSYN094AAXX  13024 06724 23/// /2404 10024 20023 38617 48535 55/// 333 55300 20011 69995 91106 91204;
0096067240999992011011303004+46300+007467FM-12+150899999V0202601N001519999999N9999999N1+00251+00251999999ADDMA1999999086161ME1315349REMSYN060AAXX  13034 06724 43/// /2603 10025 20025 38616 48534 5////;
0155067240999992011011304004+46300+007467FM-12+150899999V0202701N001019999999N9999999N1+00301+00241999999ADDMA1999999086141MD1819999+9999ME1315329OA149900311REMSYN094AAXX  13044 06724 23/// /2702 10030 20024 38614 48532 58/// 333 55300 20007 69975 91106 91203;
0118067240999992011011305004+46300+007467FM-12+150899999V0202801N001519999999N9999999N1+00361+00261999999ADDMA1999999086131ME1315329REMSYN082AAXX  13054 06724 23/// /2803 10036 20026 38613 48532 5//// 333 553// 20007 60015;
0239067240999992011011306004+46300+007467FM-12+150899999V0202701N001519999999N9999999N1+00371+00301999999ADDAA112006191AL14800691GJ100309IA2999+00009KA1999N+00011MA1999999086151MD1510011+9999ME1315339OA149900361REMSYN124AAXX  13064 06724 03/// /2703 10037 20030 38615 48533 55001 60062 333 20001 3/000 55005 55300 20007 69945 70068 91107 91205;
0096067240999992011011307004+46300+007467FM-12+150899999V0202701N001019999999N9999999N1+00321+00281999999ADDMA1999999086151ME1315339REMSYN060AAXX  13074 06724 43/// /2702 10032 20028 38615 48533 5////;
0096067240999992011011308004+46300+007467FM-12+150899999V0202701N001519999999N9999999N1+00381+00291999999ADDMA1999999086171ME1315359REMSYN060AAXX  13084 06724 43/// /2703 10038 20029 38617 48535 5////;
0096067240999992011011309004+46300+007467FM-12+150899999V0202701N001019999999N9999999N1+00421+00331999999ADDMA1999999086191ME1315379REMSYN060AAXX  13094 06724 43/// /2702 10042 20033 38619 48537 5////;
0096067240999992011011310004+46300+007467FM-12+150899999V0202301N001519999999N9999999N1+00501+00321999999ADDMA1999999086171ME1315369REMSYN060AAXX  13104 06724 43/// /2303 10050 20032 38617 48536 5////;
0096067240999992011011311004+46300+007467FM-12+150899999V0202901N001019999999N9999999N1+00511+00401999999ADDMA1999999086151ME1315349REMSYN060AAXX  13114 06724 43/// /2902 10051 20040 38615 48534 5////;
0096067240999992011011312004+46300+007467FM-12+150899999V0202601N002119999999N9999999N1+00501+00351999999ADDMA1999999086131ME1315329REMSYN060AAXX  13124 06724 43/// /2604 10050 20035 38613 48532 5////;
0096067240999992011011313004+46300+007467FM-12+150899999V0202501N002119999999N9999999N1+00491+00351999999ADDMA1999999086101ME1315299REMSYN060AAXX  13134 06724 43/// /2504 10049 20035 38610 48529 5////;
0096067240999992011011314004+46300+007467FM-12+150899999V0202501N002119999999N9999999N1+00501+00351999999ADDMA1999999086071ME1315269REMSYN060AAXX  13144 06724 43/// /2504 10050 20035 38607 48526 5////;
0096067240999992011011315004+46300+007467FM-12+150899999V0202601N002619999999N9999999N1+00521+00311999999ADDMA1999999086091ME1315289REMSYN060AAXX  13154 06724 43/// /2605 10052 20031 38609 48528 5////;
0096067240999992011011316004+46300+007467FM-12+150899999V0202901N001519999999N9999999N1+00531+00211999999ADDMA1999999086111ME1315309REMSYN060AAXX  13164 06724 43/// /2903 10053 20021 38611 48530 5////;
0149067240999992011011317004+46300+007467FM-12+150899999V0203401N000519999999N9999999N1+00411+00151999999ADDMA1999999086121MD1210051+9999ME1315319OA149900511REMSYN088AAXX  13174 06724 33/// /3401 10041 20015 38612 48531 52005 333 55300 20011 91110 91205;
0210067240999992011011318004+46300+007467FM-12+150899999V0200101N000519999999N9999999N1+00311+00171999999ADDAA112000091KA1120M+00551MA1999999086131MD1210041+9999ME1315319OA149900721REMSYN106AAXX  13184 06724 03/// /0101 10031 20017 38613 48531 52004 69912 333 10055 55300 20011 60005 91114 91207;EQDQ01  00002PRCP12
0149067240999992011011319004+46300+007467FM-12+150899999V0203201N000519999999N9999999N1+00291+00131999999ADDMA1999999086131MD1210021+9999ME1315319OA149900261REMSYN088AAXX  13194 06724 33/// /3201 10029 20013 38613 48531 52002 333 55300 20011 91105 91202;
0149067240999992011011320004+46300+007467FM-12+150899999V0200101N000519999999N9999999N1+00181+00111999999ADDMA1999999086121MD1010001+9999ME1315309OA149900261REMSYN088AAXX  13204 06724 33/// /0101 10018 20011 38612 48530 50000 333 55300 20011 91105 91202;
0149067240999992011011321004+46300+007467FM-12+150899999V0203601N000519999999N9999999N1+00131+00051999999ADDMA1999999086121MD1710011+9999ME1315309OA149900511REMSYN088AAXX  13214 06724 33/// /3601 10013 20005 38612 48530 57001 333 55300 20011 91110 91205;
0149067240999992011011322004+46300+007467FM-12+150899999V0200101N000519999999N9999999N1+00221+00221999999ADDMA1999999086131MD1510001+9999ME1315319OA149900151REMSYN088AAXX  13224 06724 33/// /0101 10022 20022 38613 48531 55000 333 55300 20007 91103 91202;
0149067240999992011011323004+46300+007467FM-12+150899999V0200701N001019999999N9999999N1+00211+00121999999ADDMA1999999086131MD1210011+9999ME1315319OA149900151REMSYN088AAXX  13234 06724 33/// /0702 10021 20012 38613 48531 52001 333 55300 20007 91103 91202;
0149067240999992011011400004+46300+007467FM-12+150899999V0200301N001019999999N9999999N1+00131+00011999999ADDMA1999999086101MD1810021+9999ME1315289OA149900721REMSYN088AAXX  14004 06724 33/// /0302 10013 20001 38610 48528 58002 333 55300 20007 91114 91207;
0149067240999992011011401004+46300+007467FM-12+150899999V0200501N002119999999N9999999N1+00121+00101999999ADDMA1999999086111MD1710021+9999ME1315299OA149900311REMSYN088AAXX  14014 06724 33/// /0504 10012 20010 38611 48529 57002 333 55300 20007 91106 91204;
0112067240999992011011402004+46300+007467FM-12+150899999V0200601N001519999999N9999999N1+00201+00161999999ADDMA1999999086141ME1315329REMSYN076AAXX  14024 06724 33/// /0603 10020 20016 38614 48532 5//// 333 553// 20007;
0149067240999992011011403004+46300+007467FM-12+150899999V0200601N001519999999N9999999N1+00231+00161999999ADDMA1999999086131MD1210031+9999ME1315319OA149900311REMSYN088AAXX  14034 06724 33/// /0603 10023 20016 38613 48531 52003 333 55300 20007 91106 91204;
0149067240999992011011404004+46300+007467FM-12+150899999V0200501N001519999999N9999999N1+00201+00101999999ADDMA1999999086121MD1010011+9999ME1315309OA149900261REMSYN088AAXX  14044 06724 33/// /0503 10020 20010 38612 48530 50001 333 55300 20007 91105 91203;
0149067240999992011011405004+46300+007467FM-12+150899999V0200501N002119999999N9999999N1+00231+00121999999ADDMA1999999086121MD1710021+9999ME1315309OA149900361REMSYN088AAXX  14054 06724 33/// /0504 10023 20012 38612 48530 57002 333 55300 20007 91107 91204;
0216067240999992011011406004+46300+007467FM-12+150899999V0200501N002619999999N9999999N1+00211+00091999999ADDAL10600091GJ100309IA2999-00209KA1999N+00021MA1999999086121MD1510011+9999ME1315309OA149900361REMSYN112AAXX  14064 06724 33/// /0505 10021 20009 38612 48530 55001 333 20002 3/102 55005 55300 20007 70001 91107 91205;
0149067240999992011011407004+46300+007467FM-12+150899999V0200301N001019999999N9999999N1+00091-00061999999ADDMA1999999086131MD1310011+9999ME1315309OA149900361REMSYN088AAXX  14074 06724 33/// /0302 10009 21006 38613 48530 53001 333 55300 20007 91107 91205;
0096067240999992011011408004+46300+007467FM-12+150899999V0200401N002119999999N9999999N1+00061-00041999999ADDMA1999999086151ME1315329REMSYN060AAXX  14084 06724 43/// /0404 10006 21004 38615 48532 5////;
0096067240999992011011409004+46300+007467FM-12+150899999V0200601N002119999999N9999999N1+00281+00091999999ADDMA1999999086151ME1315339REMSYN060AAXX  14094 06724 43/// /0604 10028 20009 38615 48533 5////;
0096067240999992011011410004+46300+007467FM-12+150899999V0200701N002119999999N9999999N1+00491+00061999999ADDMA1999999086131ME1315329REMSYN060AAXX  14104 06724 43/// /0704 10049 20006 38613 48532 5////;
0149067240999992011011411004+46300+007467FM-12+150899999V0200801N002119999999N9999999N1+00571+00011999999ADDMA1999999086091MD1710061+9999ME1315299OA149900461REMSYN088AAXX  14114 06724 33/// /0804 10057 20001 38609 48529 57006 333 553// 2//// 91109 91205;
0149067240999992011011412004+46300+007467FM-12+150899999V0200601N001519999999N9999999N1+00651+00001999999ADDMA1999999086021MD1810131+9999ME1315229OA149900461REMSYN088AAXX  14124 06724 33/// /0603 10065 20000 38602 48522 58013 333 553// 2//// 91109 91205;
0149067240999992011011413004+46300+007467FM-12+150899999V0200401N001019999999N9999999N1+00701+00001999999ADDMA1999999085971MD1810161+9999ME1315189OA149900411REMSYN088AAXX  14134 06724 33/// /0402 10070 20000 38597 48518 58016 333 553// 2//// 91108 91204;
0112067240999992011011414004+46300+007467FM-12+150899999V0200501N001019999999N9999999N1+00721-00081999999ADDMA1999999085961ME1315179REMSYN076AAXX  14144 06724 33/// /0502 10072 21008 38596 48517 5//// 333 553// 2////;
0149067240999992011011415004+46300+007467FM-12+150899999V0200701N000519999999N9999999N1+00571-00121999999ADDMA1999999085981MD1510041+9999ME1315189OA149900461REMSYN088AAXX  14154 06724 33/// /0701 10057 21012 38598 48518 55004 333 55304 20547 91109 91205;
0149067240999992011011416004+46300+007467FM-12+150899999V0200301N001019999999N9999999N1+00461+00101999999ADDMA1999999086011MD1310041+9999ME1315219OA149900261REMSYN088AAXX  14164 06724 33/// /0302 10046 20010 38601 48521 53004 333 55300 20198 91105 91203;
0149067240999992011011417004+46300+007467FM-12+150899999V0200301N001519999999N9999999N1+00231-00161999999ADDMA1999999086021MD1210061+9999ME1315219OA149900261REMSYN088AAXX  14174 06724 33/// /0303 10023 21016 38602 48521 52006 333 55300 20018 91105 91203;
0168067240999992011011418004+46300+007467FM-12+150899999V0200301N001519999999N9999999N1+00391-00441999999ADDKA1120M+00771MA1999999086001MD1010021+9999ME1315199OA149900461REMSYN094AAXX  14184 06724 33/// /0303 10039 21044 38600 48519 50002 333 10077 55300 20011 91109 91205;
0149067240999992011011419004+46300+007467FM-12+150899999V0200301N001519999999N9999999N1+00331-00491999999ADDMA1999999085981MD1810031+9999ME1315179OA149900261REMSYN088AAXX  14194 06724 33/// /0303 10033 21049 38598 48517 58003 333 55300 20011 91105 91204;
0149067240999992011011420004+46300+007467FM-12+150899999V0200201N001019999999N9999999N1+00011-00561999999ADDMA1999999085941MD1610081+9999ME1315129OA149900261REMSYN088AAXX  14204 06724 33/// /0202 10001 21056 38594 48512 56008 333 55300 20011 91105 91204;
0149067240999992011011421004+46300+007467FM-12+150899999V0209999C001019999999N9999999N1+00201-00411999999ADDMA1999999085961MD1710041+9999ME1315159OA149900261REMSYN088AAXX  14214 06724 33/// /0002 10020 21041 38596 48515 57004 333 55300 20011 91105 91204;
0149067240999992011011422004+46300+007467FM-12+150899999V0203101N001019999999N9999999N1+00161-00441999999ADDMA1999999085971MD1510011+9999ME1315169OA149900261REMSYN088AAXX  14224 06724 33/// /3102 10016 21044 38597 48516 55001 333 55300 20007 91105 91203;
0149067240999992011011423004+46300+007467FM-12+150899999V0203401N001519999999N9999999N1+00011-00421999999ADDMA1999999086001MD1210061+9999ME1315189OA149900311REMSYN088AAXX  14234 06724 33/// /3403 10001 21042 38600 48518 52006 333 55300 20007 91106 91203;
0149067240999992011011500004+46300+007467FM-12+150899999V0202601N002619999999N9999999N1+00241-00271999999ADDMA1999999086131MD1210171+9999ME1315319OA149900671REMSYN088AAXX  15004 06724 33/// /2605 10024 21027 38613 48531 52017 333 55300 20007 91113 91205;
0149067240999992011011501004+46300+007467FM-12+150899999V0202601N002619999999N9999999N1+00401-00331999999ADDMA1999999086141MD1210171+9999ME1315339OA149900981REMSYN088AAXX  15014 06724 33/// /2605 10040 21033 38614 48533 52017 333 55300 20007 91119 91208;
0149067240999992011011502004+46300+007467FM-12+150899999V0202601N001519999999N9999999N1+00391-00321999999ADDMA1999999086171MD1219999+9999ME1315359OA149900981REMSYN088AAXX  15024 06724 33/// /2603 10039 21032 38617 48535 52/// 333 55300 20007 91119 91209;
0112067240999992011011503004+46300+007467FM-12+150899999V0202501N000519999999N9999999N1+00311-00341999999ADDMA1999999086221ME1315409REMSYN076AAXX  15034 06724 33/// /2501 10031 21034 38622 48540 5//// 333 553// 20011;
0149067240999992011011504004+46300+007467FM-12+150899999V0202401N002119999999N9999999N1+00291-00171999999ADDMA1999999086331MD1210191+9999ME1315509OA149900771REMSYN088AAXX  15044 06724 33/// /2404 10029 21017 38633 48550 52019 333 55300 20011 91115 91204;
0149067240999992011011505004+46300+007467FM-12+150899999V0203001N002119999999N9999999N1+00311-00321999999ADDMA1999999086391MD1310221+9999ME1315569OA149900771REMSYN088AAXX  15054 06724 33/// /3004 10031 21032 38639 48556 53022 333 55300 20011 91115 91205;
0216067240999992011011506004+46300+007467FM-12+150899999V0202901N000519999999N9999999N1+00131-00241999999ADDAL19900091GJ103849IA2999-00309KA1999N-00041MA1999999086451MD1110231+9999ME1315609OA149900981REMSYN112AAXX  15064 06724 33/// /2901 10013 21024 38645 48560 51023 333 21004 3/103 55064 55300 20011 70000 91119 91209;
0149067240999992011011507004+46300+007467FM-12+150899999V0202601N001019999999N9999999N1+00101-00061999999ADDMA1999999086531MD1310201+9999ME1315689OA149900311REMSYN088AAXX  15074 06724 33/// /2602 10010 21006 38653 48568 53020 333 55300 20007 91106 91203;
0149067240999992011011508004+46300+007467FM-12+150899999V0203601N000519999999N9999999N1+00071-00111999999ADDMA1999999086531MD1219999+9999ME1315679OA149900261REMSYN088AAXX  15084 06724 33/// /3601 10007 21011 38653 48567 52/// 333 55302 20076 91105 91202;
0149067240999992011011509004+46300+007467FM-12+150899999V0209999C000019999999N9999999N1+00361-00321999999ADDMA1999999086521MD1010071+9999ME1315689OA149900771REMSYN088AAXX  15094 06724 33/// /0000 10036 21032 38652 48568 50007 333 553// 20565 91115 91205;
0168067240999992011011510004+46300+007467FM-12+150899999V0202501N000519999999N9999999N1+00461-00231999999ADDMA1999999086531MD1410001+9999ME1315709OA149900151REMSYN088AAXX  15104 06724 33/// /2501 10046 21023 38653 48570 57000 333 553// 2//// 91103 91201;EQDQ01+000072APCTEN
0149067240999992011011511004+46300+007467FM-12+150899999V0202401N001019999999N9999999N1+00481-00271999999ADDMA1999999086491MD1710041+9999ME1315669OA149900261REMSYN088AAXX  15114 06724 33/// /2402 10048 21027 38649 48566 57004 333 553// 2//// 91105 91203;
0149067240999992011011512004+46300+007467FM-12+150899999V0202601N001519999999N9999999N1+00581-00301999999ADDMA1999999086431MD1710091+9999ME1315619OA149900981REMSYN088AAXX  15124 06724 33/// /2603 10058 21030 38643 48561 57009 333 553// 2//// 91119 91209;
0112067240999992011011513004+46300+007467FM-12+150899999V0202701N001519999999N9999999N1+00561-00511999999ADDMA1999999086381ME1315569REMSYN076AAXX  15134 06724 33/// /2703 10056 21051 38638 48556 5//// 333 553// 2////;
0096067240999992011011514004+46300+007467FM-12+150899999V0202601N001519999999N9999999N1+00461-00061999999ADDMA1999999086431ME1315609REMSYN060AAXX  15144 06724 43/// /2603 10046 21006 38643 48560 5////;
0096067240999992011011515004+46300+007467FM-12+150899999V0202501N001519999999N9999999N1+00461+00041999999ADDMA1999999086481ME1315659REMSYN060AAXX  15154 06724 43/// /2503 10046 20004 38648 48565 5////;
0096067240999992011011516004+46300+007467FM-12+150899999V0209999C000019999999N9999999N1+00351-00061999999ADDMA1999999086551ME1315719REMSYN060AAXX  15164 06724 43/// /0000 10035 21006 38655 48571 5////;
0112067240999992011011517004+46300+007467FM-12+150899999V0200501N000519999999N9999999N1+00171-00201999999ADDMA1999999086611ME1315759REMSYN076AAXX  15174 06724 33/// /0501 10017 21020 38661 48575 5//// 333 553// 20018;
0119067240999992011011518004+46300+007467FM-12+150899999V0200501N001519999999N9999999N1+00201-00081999999ADDKA1999M+00621MA1999999086641ME1315789REMSYN070AAXX  15184 06724 43/// /0503 10020 21008 38664 48578 5//// 333 10062;
0096067240999992011011519004+46300+007467FM-12+150899999V0200501N002619999999N9999999N1+00171-00211999999ADDMA1999999086671ME1315819REMSYN060AAXX  15194 06724 43/// /0505 10017 21021 38667 48581 5////;
0096067240999992011011520004+46300+007467FM-12+150899999V0200501N003119999999N9999999N1+00221-00311999999ADDMA1999999086691ME1315839REMSYN060AAXX  15204 06724 43/// /0506 10022 21031 38669 48583 5////;
0149067240999992011011521004+46300+007467FM-12+150899999V0200401N002119999999N9999999N1+00211-00391999999ADDMA1999999086701MD1110061+9999ME1315849OA149900411REMSYN088AAXX  15214 06724 33/// /0404 10021 21039 38670 48584 51006 333 55300 20007 91108 91206;
0149067240999992011011522004+46300+007467FM-12+150899999V0200501N002619999999N9999999N1+00131-00351999999ADDMA1999999086721MD1310051+9999ME1315859OA149900411REMSYN088AAXX  15224 06724 33/// /0505 10013 21035 38672 48585 53005 333 55300 20007 91108 91206;
0149067240999992011011523004+46300+007467FM-12+150899999V0200401N001519999999N9999999N1+00201-00421999999ADDMA1999999086721MD1110031+9999ME1315869OA149900411REMSYN088AAXX  15234 06724 33/// /0403 10020 21042 38672 48586 51003 333 55300 20007 91108 91206;
0149067240999992011011600004+46300+007467FM-12+150899999V0200501N002119999999N9999999N1+00181-00511999999ADDMA1999999086681MD1810021+9999ME1315829OA149900411REMSYN088AAXX  16004 06724 33/// /0504 10018 21051 38668 48582 58002 333 55300 20007 91108 91206;
0149067240999992011011601004+46300+007467FM-12+150899999V0200401N002119999999N9999999N1+00201-00601999999ADDMA1999999086651MD1810071+9999ME1315799OA149900311REMSYN088AAXX  16014 06724 33/// /0404 10020 21060 38665 48579 58007 333 55300 20011 91106 91204;
0149067240999992011011602004+46300+007467FM-12+150899999V0200501N003119999999N9999999N1+00341-00671999999ADDMA1999999086641MD1719999+9999ME1315799OA149900411REMSYN088AAXX  16024 06724 33/// /0506 10034 21067 38664 48579 57/// 333 55300 20007 91108 91206;
0096067240999992011011603004+46300+007467FM-12+150899999V0200501N003119999999N9999999N1+00291-00731999999ADDMA1999999086631ME1315789REMSYN060AAXX  16034 06724 43/// /0506 10029 21073 38663 48578 5////;
0149067240999992011011604004+46300+007467FM-12+150899999V0200401N002619999999N9999999N1+00281-00731999999ADDMA1999999086621MD1710031+9999ME1315779OA149900411REMSYN088AAXX  16044 06724 33/// /0405 10028 21073 38662 48577 57003 333 55300 20007 91108 91206;
0149067240999992011011605004+46300+007467FM-12+150899999V0200501N002119999999N9999999N1+00271-00701999999ADDMA1999999086631MD1710011+9999ME1315789OA149900311REMSYN088AAXX  16054 06724 33/// /0504 10027 21070 38663 48578 57001 333 55300 20011 91106 91205;
0216067240999992011011606004+46300+007467FM-12+150899999V0200301N002119999999N9999999N1+00341-00691999999ADDAL19900091GJ104629IA2999-00209KA1999N+00041MA1999999086641MD1210011+9999ME1315799OA149900411REMSYN112AAXX  16064 06724 33/// /0304 10034 21069 38664 48579 52001 333 20004 3/102 55077 55300 20011 70000 91108 91206;
0149067240999992011011607004+46300+007467FM-12+150899999V0200301N002619999999N9999999N1+00401-00671999999ADDMA1999999086651MD1210031+9999ME1315819OA149900511REMSYN088AAXX  16074 06724 33/// /0305 10040 21067 38665 48581 52003 333 55300 20011 91110 91206;
0149067240999992011011608004+46300+007467FM-12+150899999V0200501N001519999999N9999999N1+00481-00651999999ADDMA1999999086661MD1219999+9999ME1315829OA149900511REMSYN088AAXX  16084 06724 33/// /0503 10048 21065 38666 48582 52/// 333 55302 20083 91110 91206;
0149067240999992011011609004+46300+007467FM-12+150899999V0200601N002119999999N9999999N1+00661-00571999999ADDMA1999999086661MD1110021+9999ME1315839OA149900511REMSYN088AAXX  16094 06724 33/// /0604 10066 21057 38666 48583 51002 333 553// 20569 91110 91206;
0149067240999992011011610004+46300+007467FM-12+150899999V0200701N002119999999N9999999N1+00911-00631999999ADDMA1999999086671MD1310021+9999ME1315859OA149900511REMSYN088AAXX  16104 06724 33/// /0704 10091 21063 38667 48585 53002 333 553// 2//// 91110 91206;
0149067240999992011011611004+46300+007467FM-12+150899999V0200701N002619999999N9999999N1+01021-00611999999ADDMA1999999086651MD1810011+9999ME1315849OA149900511REMSYN088AAXX  16114 06724 33/// /0705 10102 21061 38665 48584 58001 333 553// 2//// 91110 91206;
0149067240999992011011612004+46300+007467FM-12+150899999V0200701N001519999999N9999999N1+01101-00551999999ADDMA1999999086621MD1710041+9999ME1315829OA149900511REMSYN088AAXX  16124 06724 33/// /0703 10110 21055 38662 48582 57004 333 553// 2//// 91110 91206;
0149067240999992011011613004+46300+007467FM-12+150899999V0200801N001519999999N9999999N1+01161-00541999999ADDMA1999999086571MD1810101+9999ME1315779OA149900361REMSYN088AAXX  16134 06724 33/// /0803 10116 21054 38657 48577 58010 333 553// 2//// 91107 91204;
0149067240999992011011614004+46300+007467FM-12+150899999V0200801N001519999999N9999999N1+01181-00581999999ADDMA1999999086561MD1719999+9999ME1315769OA149900361REMSYN088AAXX  16144 06724 33/// /0803 10118 21058 38656 48576 57/// 333 553// 2//// 91107 91204;
0149067240999992011011615004+46300+007467FM-12+150899999V0200701N002119999999N9999999N1+01111-00491999999ADDMA1999999086551MD1710071+9999ME1315759OA149900511REMSYN088AAXX  16154 06724 33/// /0704 10111 21049 38655 48575 57007 333 553// 20778 91110 91206;
0149067240999992011011616004+46300+007467FM-12+150899999V0200701N001519999999N9999999N1+00951-00481999999ADDMA1999999086561MD1710011+9999ME1315759OA149900361REMSYN088AAXX  16164 06724 33/// /0703 10095 21048 38656 48575 57001 333 55309 20277 91107 91204;
0149067240999992011011617004+46300+007467FM-12+150899999V0200401N001519999999N9999999N1+00631-00401999999ADDMA1999999086591MD1210031+9999ME1315769OA149900311REMSYN088AAXX  16174 06724 33/// /0403 10063 21040 38659 48576 52003 333 55300 20022 91106 91203;
0168067240999992011011618004+46300+007467FM-12+150899999V0200401N002119999999N9999999N1+00571-00451999999ADDKA1120M+01201MA1999999086611MD1210061+9999ME1315789OA149900511REMSYN094AAXX  16184 06724 33/// /0404 10057 21045 38661 48578 52006 333 10120 55300 20011 91110 91206;
0149067240999992011011619004+46300+007467FM-12+150899999V0200401N002619999999N9999999N1+00581-00551999999ADDMA1999999086611MD1210051+9999ME1315789OA149900311REMSYN088AAXX  16194 06724 33/// /0405 10058 21055 38661 48578 52005 333 55300 20011 91106 91205;
0149067240999992011011620004+46300+007467FM-12+150899999V0200401N002119999999N9999999N1+00491-00561999999ADDMA1999999086621MD1210031+9999ME1315789OA149900311REMSYN088AAXX  16204 06724 33/// /0404 10049 21056 38662 48578 52003 333 55300 20011 91106 91205;
0149067240999992011011621004+46300+007467FM-12+150899999V0200401N001519999999N9999999N1+00471-00591999999ADDMA1999999086621MD1210011+9999ME1315789OA149900311REMSYN088AAXX  16214 06724 33/// /0403 10047 21059 38662 48578 52001 333 55300 20011 91106 91205;
0149067240999992011011622004+46300+007467FM-12+150899999V0200301N001519999999N9999999N1+00361-00631999999ADDMA1999999086621MD1010011+9999ME1315779OA149900311REMSYN088AAXX  16224 06724 33/// /0303 10036 21063 38662 48577 50001 333 55300 20011 91106 91205;
0149067240999992011011623004+46300+007467FM-12+150899999V0200401N001019999999N9999999N1+00221-00641999999ADDMA1999999086631MD1510011+9999ME1315789OA149900311REMSYN088AAXX  16234 06724 33/// /0402 10022 21064 38663 48578 55001 333 55300 20011 91106 91205;
0149067240999992011011700004+46300+007467FM-12+150899999V0200401N001519999999N9999999N1+00371-00721999999ADDMA1999999086601MD1810021+9999ME1315769OA149900361REMSYN088AAXX  17004 06724 33/// /0403 10037 21072 38660 48576 58002 333 55300 20011 91107 91205;
0149067240999992011011701004+46300+007467FM-12+150899999V0200501N001519999999N9999999N1+00361-00741999999ADDMA1999999086591MD1710031+9999ME1315759OA149900211REMSYN088AAXX  17014 06724 33/// /0503 10036 21074 38659 48575 57003 333 55300 20011 91104 91204;
0149067240999992011011702004+46300+007467FM-12+150899999V0200201N001519999999N9999999N1+00331-00781999999ADDMA1999999086581MD1619999+9999ME1315749OA149900211REMSYN088AAXX  17024 06724 33/// /0203 10033 21078 38658 48574 56/// 333 55300 20011 91104 91204;
0112067240999992011011703004+46300+007467FM-12+150899999V0200401N001519999999N9999999N1+00351-00781999999ADDMA1999999086571ME1315739REMSYN076AAXX  17034 06724 33/// /0403 10035 21078 38657 48573 5//// 333 553// 20011;
0149067240999992011011704004+46300+007467FM-12+150899999V0200301N001019999999N9999999N1+00311-00851999999ADDMA1999999086531MD1810061+9999ME1315699OA149900211REMSYN088AAXX  17044 06724 33/// /0302 10031 21085 38653 48569 58006 333 55300 20011 91104 91203;
0149067240999992011011705004+46300+007467FM-12+150899999V0200201N001519999999N9999999N1+00151-00811999999ADDMA1999999086501MD1810081+9999ME1315659OA149900261REMSYN088AAXX  17054 06724 33/// /0203 10015 21081 38650 48565 58008 333 55300 20007 91105 91203;
0216067240999992011011706004+46300+007467FM-12+150899999V0200501N001519999999N9999999N1+00271-00841999999ADDAL19900091GJ104869IA2999-00309KA1999N+00051MA1999999086481MD1710091+9999ME1315649OA149900311REMSYN112AAXX  17064 06724 33/// /0503 10027 21084 38648 48564 57009 333 20005 3/103 55081 55300 20007 70000 91106 91205;
0149067240999992011011707004+46300+007467FM-12+150899999V0200301N001519999999N9999999N1+00201-00841999999ADDMA1999999086481MD1710051+9999ME1315649OA149900311REMSYN088AAXX  17074 06724 33/// /0303 10020 21084 38648 48564 57005 333 55300 20011 91106 91204;
0096067240999992011011708004+46300+007467FM-12+150899999V0200601N003119999999N9999999N1+00341-00871999999ADDMA1999999086481ME1315649REMSYN060AAXX  17084 06724 43/// /0606 10034 21087 38648 48564 5////;
0096067240999992011011709004+46300+007467FM-12+150899999V0200701N003119999999N9999999N1+00651-00991999999ADDMA1999999086461ME1315649REMSYN060AAXX  17094 06724 43/// /0706 10065 21099 38646 48564 5////;
0149067240999992011011710004+46300+007467FM-12+150899999V0200801N001519999999N9999999N1+00681-00921999999ADDMA1999999086471MD1710011+9999ME1315659OA149900461REMSYN088AAXX  17104 06724 33/// /0803 10068 21092 38647 48565 57001 333 553// 2//// 91109 91206;
0149067240999992011011711004+46300+007467FM-12+150899999V0200701N000519999999N9999999N1+00781-01021999999ADDMA1999999086471MD1010011+9999ME1315669OA149900461REMSYN088AAXX  17114 06724 33/// /0701 10078 21102 38647 48566 50001 333 553// 2//// 91109 91205;
0149067240999992011011712004+46300+007467FM-12+150899999V0202601N001019999999N9999999N1+00681-00631999999ADDMA1999999086431MD1810031+9999ME1315619OA149900461REMSYN088AAXX  17124 06724 33/// /2602 10068 21063 38643 48561 58003 333 553// 2//// 91109 91206;
0149067240999992011011713004+46300+007467FM-12+150899999V0202701N001519999999N9999999N1+00801-00801999999ADDMA1999999086401MD1810071+9999ME1315599OA149900261REMSYN088AAXX  17134 06724 33/// /2703 10080 21080 38640 48559 58007 333 553// 2//// 91105 91203;
0096067240999992011011714004+46300+007467FM-12+150899999V0202501N001519999999N9999999N1+00841-00791999999ADDMA1999999086411ME1315609REMSYN060AAXX  17144 06724 43/// /2503 10084 21079 38641 48560 5////;
0096067240999992011011715004+46300+007467FM-12+150899999V0202701N001019999999N9999999N1+00791-00541999999ADDMA1999999086441ME1315639REMSYN060AAXX  17154 06724 43/// /2702 10079 21054 38644 48563 5////;
0149067240999992011011716004+46300+007467FM-12+150899999V0202301N000519999999N9999999N1+00541-00651999999ADDMA1999999086451MD1210051+9999ME1315629OA149900261REMSYN088AAXX  17164 06724 33/// /2301 10054 21065 38645 48562 52005 333 55306 20223 91105 91203;
0149067240999992011011717004+46300+007467FM-12+150899999V0200301N001019999999N9999999N1+00341-00681999999ADDMA1999999086481MD1210071+9999ME1315649OA149900151REMSYN088AAXX  17174 06724 33/// /0302 10034 21068 38648 48564 52007 333 55300 20022 91103 91202;
0168067240999992011011718004+46300+007467FM-12+150899999V0200301N001019999999N9999999N1+00321-00711999999ADDKA1120M+00841MA1999999086501MD1210061+9999ME1315669OA149900461REMSYN094AAXX  17184 06724 33/// /0302 10032 21071 38650 48566 52006 333 10084 55300 20011 91109 91206;
0149067240999992011011719004+46300+007467FM-12+150899999V0200201N001019999999N9999999N1+00151-00661999999ADDMA1999999086521MD1110071+9999ME1315679OA149900151REMSYN088AAXX  17194 06724 33/// /0202 10015 21066 38652 48567 51007 333 55300 20011 91103 91203;
0149067240999992011011720004+46300+007467FM-12+150899999V0200201N001019999999N9999999N1+00111-00681999999ADDMA1999999086521MD1110041+9999ME1315679OA149900151REMSYN088AAXX  17204 06724 33/// /0202 10011 21068 38652 48567 51004 333 55300 20007 91103 91203;
0149067240999992011011721004+46300+007467FM-12+150899999V0200301N001019999999N9999999N1+00041-00701999999ADDMA1999999086531MD1210031+9999ME1315679OA149900211REMSYN088AAXX  17214 06724 33/// /0302 10004 21070 38653 48567 52003 333 55300 20007 91104 91203;
0149067240999992011011722004+46300+007467FM-12+150899999V0200201N001019999999N9999999N1+00041-00741999999ADDMA1999999086531MD1210011+9999ME1315679OA149900211REMSYN088AAXX  17224 06724 33/// /0202 10004 21074 38653 48567 52001 333 55300 20007 91104 91203;
0149067240999992011011723004+46300+007467FM-12+150899999V0200401N001019999999N9999999N1+00061-00761999999ADDMA1999999086531MD1010011+9999ME1315679OA149900211REMSYN088AAXX  17234 06724 33/// /0402 10006 21076 38653 48567 50001 333 55300 20007 91104 91203;
0149067240999992011011800004+46300+007467FM-12+150899999V0200201N001519999999N9999999N1+00001-00781999999ADDMA1999999086521MD1010011+9999ME1315669OA149900311REMSYN088AAXX  18004 06724 33/// /0203 10000 21078 38652 48566 50001 333 55300 20007 91106 91203;
0149067240999992011011801004+46300+007467FM-12+150899999V0200201N001519999999N9999999N1-00181-00751999999ADDMA1999999086521MD1719999+9999ME1315659OA149900211REMSYN088AAXX  18014 06724 33/// /0203 11018 21075 38652 48565 57/// 333 55300 20007 91104 91203;
0096067240999992011011802004+46300+007467FM-12+150899999V0200201N001019999999N9999999N1-00041-00741999999ADDMA1999999086511ME1315659REMSYN060AAXX  18024 06724 43/// /0202 11004 21074 38651 48565 5////;
0096067240999992011011803004+46300+007467FM-12+150899999V0200501N001519999999N9999999N1+00011-00721999999ADDMA1999999086451ME1315609REMSYN060AAXX  18034 06724 43/// /0503 10001 21072 38645 48560 5////;
0112067240999992011011804004+46300+007467FM-12+150899999V0200501N002619999999N9999999N1+00061-00761999999ADDMA1999999086421ME1315579REMSYN076AAXX  18044 06724 33/// /0505 10006 21076 38642 48557 5//// 333 553// 20007;
0149067240999992011011805004+46300+007467FM-12+150899999V0200501N003119999999N9999999N1+00071-00801999999ADDMA1999999086361MD1810151+9999ME1315529OA149900461REMSYN088AAXX  18054 06724 33/// /0506 10007 21080 38636 48552 58015 333 55300 20007 91109 91206;
0216067240999992011011806004+46300+007467FM-12+150899999V0200201N001019999999N9999999N1-00061-00801999999ADDAL19900091GJ104689IA2999-00409KA1999N-00181MA1999999086371MD1710081+9999ME1315529OA149900461REMSYN112AAXX  18064 06724 33/// /0202 11006 21080 38637 48552 57008 333 21018 3/104 55078 55300 20007 70000 91109 91206;
0149067240999992011011807004+46300+007467FM-12+150899999V0203501N000519999999N9999999N1+00061-00751999999ADDMA1999999086391MD1510031+9999ME1315549OA149900461REMSYN088AAXX  18074 06724 33/// /3501 10006 21075 38639 48554 55003 333 55300 20007 91109 91206;
0096067240999992011011808004+46300+007467FM-12+150899999V0203201N000519999999N9999999N1+00061-00701999999ADDMA1999999086441ME1315599REMSYN060AAXX  18084 06724 43/// /3201 10006 21070 38644 48559 5////;
