0126067205999992010010100504+46217+007317AUTO +0482LSMS V0200801N001512200019N0035001N1+00101+00001999999ADDAW1101GF100991999999999999999999MA1099191999999REMMET067METAR LSMS 010050Z AUTO 08003KT 3500NDV BR NCD 01/00 Q0992 RMK GRN;
0186067205999992010010101504+46217+007317AUTO +0482LSMS V0200701N002112200019N0011001N1+00101+00001999999ADDAW1101ED199U20009GA1041+057001999GF104991999999999999999999MA1099091999999REMMET100METAR LSMS 010150Z AUTO 07004KT 040V100 1100NDV R07/P2000N R25/P2000N BR SCT190 01/00 Q0991 RMK RED;
0138067205999992010010102504+46217+007317AUTO +0482LSMS V0200701N001519999999N0018001N1+00001+00001999999ADDAW1101MA1099101999999REMMET105METAR LSMS 010250Z AUTO 07003KT 030V110 1800NDV R07/0750V1900N R25/P2000N BR FEW170 00/M00 Q0991 RMK AMB;
0154067205999992010010103504+46217+007317AUTO +0482LSMS V0201101N001512200019N0037001N1+00001+00001999999ADDAW1101GA1041+045001999GF104991999999999999999999MA1098981999999REMMET079METAR LSMS 010350Z AUTO 11003KT 070V130 3700NDV BR SCT150 00/M00 Q0990 RMK GRN;
0136067205999992010010104504+46217+007317AUTO +0482LSMS V0201001N002112200019N0042001N1+00101+00001999999ADDGA1041+042001999GF104991999999999999999999MA1098981999999REMMET067METAR LSMS 010450Z AUTO 10004KT 4200NDV SCT140 01/00 Q0990 RMK GRN;
0146067205999992010010105504+46217+007317AUTO +0482LSMS V0209999V001012200019N0042001N1+00001-00101999999ADDAW1101GA1021+045001999GF102991999999999999999999MA1098981999999REMMET071METAR LSMS 010550Z AUTO VRB02KT 4200NDV BR FEW150 00/M01 Q0990 RMK GRN;
0121067205999992010010106504+46217+007317FM-15+0482LSMS V0209999V000510390019N0050001N1+00101+00001999999ADDGA1071+039001999GF107991999999999999999999MA1098921999999REMMET052METAR LSMS 010650Z VRB01KT 5000 BKN130 01/M00 Q0989;
0143067205999992010010109504+46217+007317FM-15+0482LSMS V0209999V001510330019N0090001N1+00201+00101999999ADDGA1041+021001999GA2071+033001999GF107991999999999999999999MA1099091999999REMMET058METAR LSMS 010950Z VRB03KT 9000 SCT070 BKN110 02/01 Q0991;
0143067205999992010010110504+46217+007317FM-15+0482LSMS V0209999V001010300019N0112651N1+00301+00201999999ADDGA1021+009001999GA2071+030001999GF107991999999999999999999MA1099091999999REMMET058METAR LSMS 011050Z VRB02KT 9999 FEW030 BKN100 03/02 Q0991;
0143067205999992010010111504+46217+007317FM-15+0482LSMS V0209999C000010300019N0112651N1+00501+00201999999ADDGA1021+009001999GA2071+030001999GF107991999999999999999999MA1099091999999REMMET058METAR LSMS 011150Z 00000KT 9999 FEW030 BKN100 05/02 Q0991;
0166067205999992010010112504+46217+007317FM-15+0482LSMS V0202401N00151021001CN0112651N1+00501+00301999999ADDGA1021+009001999GA2041+021001999GA3071+030001999GF107991999999999999999999MA1099091999999REMMET065METAR LSMS 011250Z 24003KT 9999 FEW030 SCT070 BKN100 05/03 Q0991;
0166067205999992010010113504+46217+007317FM-15+0482LSMS V0209999V00151018001CN0090001N1+00501+00201999999ADDGA1021+009001999GA2041+018001999GA3071+030001999GF107991999999999999999999MA1099191999999REMMET065METAR LSMS 011350Z VRB03KT 9000 FEW030 SCT060 BKN100 05/02 Q0992;
0176067205999992010010114504+46217+007317FM-15+0482LSMS V0209999V00051018001CN0090001N1+00501+00201999999ADDGA1021+009001999GA2041+018001999GA3071+027001999GF107991999999999999999999MA1099291999999MW1611REMMET069METAR LSMS 011450Z VRB01KT 9000 -RA FEW030 SCT060 BKN090 05/02 Q0993;
0153067205999992010010115504+46217+007317FM-15+0482LSMS V0201201N001010180019N0090001N1+00501+00301999999ADDGA1041+009001999GA2081+018001999GF108991999999999999999999MA1099391999999MW1611REMMET062METAR LSMS 011550Z 12002KT 9000 -RA SCT030 OVC060 05/03 Q0994;
0202067205999992010010116504+46217+007317AUTO +0482LSMS V0202401N00311006601CN0112651N1+00501+00301999999ADDAW1811GA1021+005101999GA2041+006601999GA3081+015001999GF108991999999999999999999MA1099491999999REMMET095METAR LSMS 011650Z AUTO 24006KT 190V280 9999NDV -SHRA FEW017 SCT022 OVC053 05/03 Q0995 RMK WHT;
0177067205999992010010117504+46217+007317AUTO +0482LSMS V0202501N005710099019N0112651N1+00401+00201999999ADDAW1611GA1071+009901999GA2071+024001999GF107991999999999999999999MA1099701999999REMMET086METAR LSMS 011750Z AUTO 25011KT 200V270 9999NDV -RA BKN033 BKN086 04/02 Q0997 RMK WHT;
0190067205999992010010118504+46217+007317AUTO +0482LSMS V0202501N005710270019N0112651N1+00401+00101999999ADDGA1021+018001999GA2071+027001999GA3071+036001999GF107991999999999999999999MA1099901999999REMMET089METAR LSMS 011850Z AUTO 25011KT 210V290 9999NDV FEW067 BKN091 BKN120 04/01 Q0999 RMK WHT;
0194067205999992010010119504+46217+007317AUTO +0482LSMS V0202601N003610180019N0112651N1+00301+00101999999ADDAW1811GA1021+015001999GA2071+018001999GA3081+033001999GF108991999999999999999999MA1100001999999REMMET087METAR LSMS 011950Z AUTO 26007KT 9999NDV -SHRA FEW052 BKN060 OVC110 03/01 Q1000 RMK WHT;
0167067205999992010010120504+46217+007317AUTO +0482LSMS V0202901N004110150019N0112651N1+00401+00101999999ADDGA1041+014401999GA2081+015001999GF108991999999999999999999MA1100101999999REMMET082METAR LSMS 012050Z AUTO 29008KT 260V330 9999NDV SCT048 OVC054 04/01 Q1001 RMK WHT;
0168067205999992010010121504+46217+007317AUTO +0482LSMS V0202801N003610180019N0112651N1+00301+00001999999ADDGA1021+015001999GA2081+018001999GF108991999999999999999999MA1100201999999REMMET083METAR LSMS 012150Z AUTO 28007KT 230V330 9999NDV FEW055 OVC069 03/M00 Q1002 RMK WHT;
0168067205999992010010122504+46217+007317AUTO +0482LSMS V0202801N002610210019N0112651N1+00201-00101999999ADDGA1021+015001999GA2081+021001999GF108991999999999999999999MA1100201999999REMMET083METAR LSMS 012250Z AUTO 28005KT 210V330 9999NDV FEW055 OVC079 02/M01 Q1002 RMK WHT;
0191067205999992010010123504+46217+007317AUTO +0482LSMS V0202601N004110180019N0112651N1+00201-00101999999ADDGA1021+015001999GA2071+018001999GA3081+024001999GF108991999999999999999999MA1100311999999REMMET090METAR LSMS 012350Z AUTO 26008KT 200V300 9999NDV FEW058 BKN068 OVC080 02/M01 Q1003 RMK WHT;
0160067205999992010010200504+46217+007317AUTO +0482LSMS V0202501N007210210019N0112651N1+00201-00101999999ADDGA1021+015001999GA2081+021001999GF108991999999999999999999MA1100411999999REMMET075METAR LSMS 020050Z AUTO 25014KT 9999NDV FEW056 OVC073 02/M01 Q1004 RMK WHT;
0168067205999992010010201504+46217+007317AUTO +0482LSMS V0202401N007210210019N0112651N1+00101-00201999999ADDGA1041+018001999GA2081+021001999GF108991999999999999999999MA1100511999999REMMET083METAR LSMS 020150Z AUTO 24014KT 210V270 9999NDV SCT065 OVC078 01/M02 Q1005 RMK WHT;
0137067205999992010010202504+46217+007317AUTO +0482LSMS V0202301N008710210019N0112651N1+00101-00301999999ADDGA1071+021001999GF107991999999999999999999MA1100611999999REMMET068METAR LSMS 020250Z AUTO 23017KT 9999NDV BKN073 01/M03 Q1006 RMK WHT;
0137067205999992010010203504+46217+007317AUTO +0482LSMS V0202501N007710210019N0112651N1+00001-00301999999ADDGA1071+021001999GF107991999999999999999999MA1100711999999REMMET068METAR LSMS 020350Z AUTO 25015KT 9999NDV BKN075 00/M03 Q1007 RMK WHT;
0138067205999992010010204504+46217+007317AUTO +0482LSMS V0202501N008710210019N0112651N1+00001-00401999999ADDGA1071+021001999GF107991999999999999999999MA1100811999999REMMET069METAR LSMS 020450Z AUTO 25017KT 9999NDV BKN079 M00/M04 Q1008 RMK WHT;
0138067205999992010010205504+46217+007317AUTO +0482LSMS V0202401N007212200019N0112651N1+00001-00401999999ADDGA1041+021001999GF104991999999999999999999MA1100911999999REMMET069METAR LSMS 020550Z AUTO 24014KT 9999NDV SCT076 M00/M04 Q1009 RMK BLU;
0122067205999992010010206504+46217+007317FM-15+0482LSMS V0203001N005110240019N0112651N1-00101-00401999999ADDGA1071+024001999GF107991999999999999999999MA1101021999999REMMET053METAR LSMS 020650Z 30010KT 9999 BKN080 M01/M04 Q1010;
0153067205999992010010207504+46217+007317FM-15+0482LSMS V0202901N005110210019N0112651N1-00101-00401999999ADDGA1021+009001999GA2071+021001999GF107991999999999999999999MA1101081999999REMMET068METAR LSMS 020750Z 29010KT 230V340 9999 FEW030 BKN070 M01/M04 Q1011;
0153067205999992010010208504+46217+007317FM-15+0482LSMS V0202601N005110210019N0112651N1-00101-00501999999ADDGA1021+003001999GA2071+021001999GF107991999999999999999999MA1101191999999REMMET068METAR LSMS 020850Z 26010KT 230V290 9999 FEW010 BKN070 M01/M05 Q1012;
0153067205999992010010209504+46217+007317FM-15+0482LSMS V0202701N003112200019N0112651N1-00101-00501999999ADDGA1021+012001999GA2041+021001999GF104991999999999999999999MA1101291999999REMMET068METAR LSMS 020950Z 27006KT 240V320 9999 FEW040 SCT070 M01/M05 Q1013;
0153067205999992010010210504+46217+007317FM-15+0482LSMS V0202801N004612200019N0112651N1-00101-00501999999ADDGA1021+006001999GA2041+018001999GF104991999999999999999999MA1101391999999REMMET068METAR LSMS 021050Z 28009KT 250V320 9999 FEW020 SCT065 M01/M05 Q1014;
0144067205999992010010211504+46217+007317FM-15+0482LSMS V0202601N006212200019N0112651N1+00101-00701999999ADDGA1021+006001999GA2041+018001999GF104991999999999999999999MA1101491999999REMMET059METAR LSMS 021150Z 26012KT 9999 FEW020 SCT065 01/M07 Q1015;
0121067205999992010010212504+46217+007317FM-15+0482LSMS V0202601N006712200019N0112651N1+00201-00701999999ADDGA1041+018001999GF104991999999999999999999MA1101491999999REMMET052METAR LSMS 021250Z 26013KT 9999 SCT065 02/M07 Q1015;
0121067205999992010010213504+46217+007317FM-15+0482LSMS V0202501N007212200019N0112651N1+00101-00801999999ADDGA1041+024001999GF104991999999999999999999MA1101591999999REMMET052METAR LSMS 021350Z 25014KT 9999 SCT080 01/M08 Q1016;
0121067205999992010010214504+46217+007317FM-15+0482LSMS V0202501N004612200019N0112651N1+00101-00901999999ADDGA1041+024001999GF104991999999999999999999MA1101691999999REMMET052METAR LSMS 021450Z 25009KT 9999 SCT080 01/M09 Q1017;
0122067205999992010010215504+46217+007317FM-15+0482LSMS V0202501N005112200019N0112651N1-00101-00901999999ADDGA1021+024001999GF102991999999999999999999MA1101801999999REMMET053METAR LSMS 021550Z 25010KT 9999 FEW080 M01/M09 Q1018;
0119067205999992010010216504+46217+007317AUTO +0482LSMS V0202601N005112200019N0112651N1-00201-00801999999ADDGF100991999999999999999999MA1101901999999REMMET066METAR LSMS 021650Z AUTO 26010KT 9999NDV NCD M02/M08 Q1019 RMK BLU;
0119067205999992010010217504+46217+007317AUTO +0482LSMS V0202501N003612200019N0112651N1-00201-00801999999ADDGF100991999999999999999999MA1102001999999REMMET066METAR LSMS 021750Z AUTO 25007KT 9999NDV NCD M02/M08 Q1020 RMK BLU;
0127067205999992010010218504+46217+007317AUTO +0482LSMS V0202601N002612200019N0112651N1-00301-00901999999ADDGF100991999999999999999999MA1102101999999REMMET074METAR LSMS 021850Z AUTO 26005KT 230V300 9999NDV NCD M03/M09 Q1021 RMK BLU;
0119067205999992010010219504+46217+007317AUTO +0482LSMS V0209999V000512200019N0112651N1-00301-00901999999ADDGF100991999999999999999999MA1102101999999REMMET066METAR LSMS 021950Z AUTO VRB01KT 9999NDV NCD M03/M09 Q1021 RMK BLU;
0119067205999992010010220504+46217+007317AUTO +0482LSMS V0209999V001012200019N0112651N1-00401-00901999999ADDGF100991999999999999999999MA1102101999999REMMET066METAR LSMS 022050Z AUTO VRB02KT 9999NDV NCD M04/M09 Q1021 RMK BLU;
0119067205999992010010221504+46217+007317AUTO +0482LSMS V0209999V000512200019N0112651N1-00501-00901999999ADDGF100991999999999999999999MA1102101999999REMMET066METAR LSMS 022150Z AUTO VRB01KT 9999NDV NCD M05/M09 Q1021 RMK BLU;
0119067205999992010010222504+46217+007317AUTO +0482LSMS V0209999C000012200019N0112651N1-00501-00901999999ADDGF100991999999999999999999MA1102201999999REMMET066METAR LSMS 022250Z AUTO 00000KT 9999NDV NCD M05/M09 Q1022 RMK BLU;
0119067205999992010010223504+46217+007317AUTO +0482LSMS V0209999C000012200019N0112651N1-00601-00801999999ADDGF100991999999999999999999MA1102201999999REMMET066METAR LSMS 022350Z AUTO 00000KT 9999NDV NCD M06/M08 Q1022 RMK BLU;
0119067205999992010010300504+46217+007317AUTO +0482LSMS V0209999C000012200019N0112651N1-00601-00901999999ADDGF100991999999999999999999MA1102201999999REMMET066METAR LSMS 030050Z AUTO 00000KT 9999NDV NCD M06/M09 Q1022 RMK BLU;
0127067205999992010010301504+46217+007317AUTO +0482LSMS V0200701N001512200019N0112651N1-00601-01001999999ADDGF100991999999999999999999MA1102301999999REMMET074METAR LSMS 030150Z AUTO 07003KT 030V090 9999NDV NCD M06/M10 Q1023 RMK BLU;
0138067205999992010010302504+46217+007317AUTO +0482LSMS V0209999C000012200019N0112651N1-00601-01001999999ADDGA1021+060001999GF102991999999999999999999MA1102301999999REMMET069METAR LSMS 030250Z AUTO 00000KT 9999NDV FEW200 M06/M10 Q1023 RMK BLU;
0138067205999992010010303504+46217+007317AUTO +0482LSMS V0209999V001012200019N0112651N1-00601-01001999999ADDGA1021+045001999GF102991999999999999999999MA1102201999999REMMET069METAR LSMS 030350Z AUTO VRB02KT 9999NDV FEW150 M06/M10 Q1022 RMK BLU;
0138067205999992010010304504+46217+007317AUTO +0482LSMS V0209999C000012200019N0112651N1-00601-00901999999ADDGA1041+048001999GF104991999999999999999999MA1102201999999REMMET069METAR LSMS 030450Z AUTO 00000KT 9999NDV SCT160 M06/M09 Q1022 RMK BLU;
0161067205999992010010305504+46217+007317AUTO +0482LSMS V0209999V001010480019N0112651N1-00501-01001999999ADDGA1021+042001999GA2071+048001999GF107991999999999999999999MA1102201999999REMMET076METAR LSMS 030550Z AUTO VRB02KT 9999NDV FEW140 BKN160 M05/M10 Q1022 RMK WHT;
0122067205999992010010306504+46217+007317FM-15+0482LSMS V0209999C000012200019N0112651N1-00601-01001999999ADDGA1021+045001999GF102991999999999999999999MA1102201999999REMMET053METAR LSMS 030650Z 00000KT 9999 FEW150 M06/M10 Q1022;
0138067205999992010010307504+46217+007317AUTO +0482LSMS V0200601N002110480019N0112651N1-00501-01001999999ADDGA1071+048001999GF107991999999999999999999MA1102201999999REMMET069METAR LSMS 030750Z AUTO 06004KT 9999NDV BKN160 M05/M10 Q1022 RMK WHT;
0122067205999992010010308504+46217+007317FM-15+0482LSMS V0200801N002110450019N0112651N1-00401-01001999999ADDGA1071+045001999GF107991999999999999999999MA1102201999999REMMET053METAR LSMS 030850Z 08004KT 9999 BKN150 M04/M10 Q1022;
0122067205999992010010309504+46217+007317FM-15+0482LSMS V0209999V001510450019N0112651N1-00401-01101999999ADDGA1071+045001999GF107991999999999999999999MA1102201999999REMMET053METAR LSMS 030950Z VRB03KT 9999 BKN150 M04/M11 Q1022;
0145067205999992010010310504+46217+007317FM-15+0482LSMS V0200801N002610450019N0112651N1-00301-01101999999ADDGA1041+033001999GA2071+045001999GF107991999999999999999999MA1102101999999REMMET060METAR LSMS 031050Z 08005KT 9999 SCT110 BKN150 M03/M11 Q1021;
0153067205999992010010311504+46217+007317FM-15+0482LSMS V0201101N002110450019N0112651N1-00201-01101999999ADDGA1041+030001999GA2081+045001999GF108991999999999999999999MA1102001999999REMMET068METAR LSMS 031150Z 11004KT 070V140 9999 SCT100 OVC150 M02/M11 Q1020;
0145067205999992010010312504+46217+007317FM-15+0482LSMS V0200901N001510450019N0112651N1-00201-01201999999ADDGA1041+030001999GA2081+045001999GF108991999999999999999999MA1101901999999REMMET060METAR LSMS 031250Z 09003KT 9999 SCT100 OVC150 M02/M12 Q1019;
0145067205999992010010313504+46217+007317FM-15+0482LSMS V0209999V000510420019N0112651N1-00101-01201999999ADDGA1041+030001999GA2081+042001999GF108991999999999999999999MA1101901999999REMMET060METAR LSMS 031350Z VRB01KT 9999 SCT100 OVC140 M01/M12 Q1019;
0145067205999992010010314504+46217+007317FM-15+0482LSMS V0209999C000010420019N0112651N1-00101-01201999999ADDGA1041+030001999GA2081+042001999GF108991999999999999999999MA1101901999999REMMET060METAR LSMS 031450Z 00000KT 9999 SCT100 OVC140 M01/M12 Q1019;
0145067205999992010010315504+46217+007317FM-15+0482LSMS V0209999V000510420019N0112651N1-00101-01101999999ADDGA1041+030001999GA2081+042001999GF108991999999999999999999MA1101901999999REMMET060METAR LSMS 031550Z VRB01KT 9999 SCT100 OVC140 M01/M11 Q1019;
0138067205999992010010316504+46217+007317AUTO +0482LSMS V0209999V001010300019N0112651N1-00201-01001999999ADDGA1081+030001999GF108991999999999999999999MA1101801999999REMMET069METAR LSMS 031650Z AUTO VRB02KT 9999NDV OVC100 M02/M10 Q1018 RMK WHT;
0161067205999992010010317504+46217+007317AUTO +0482LSMS V0209999C000010450019N0112651N1-00201-00901999999ADDGA1021+030001999GA2081+045001999GF108991999999999999999999MA1101801999999REMMET076METAR LSMS 031750Z AUTO 00000KT 9999NDV FEW100 OVC150 M02/M09 Q1018 RMK WHT;
0138067205999992010010318504+46217+007317AUTO +0482LSMS V0209999V000512200019N0112651N1-00301-00901999999ADDGA1041+027001999GF104991999999999999999999MA1101801999999REMMET069METAR LSMS 031850Z AUTO VRB01KT 9999NDV SCT097 M03/M09 Q1018 RMK BLU;
0138067205999992010010319504+46217+007317AUTO +0482LSMS V0201101N001512200019N0112651N1-00301-00801999999ADDGA1021+045001999GF102991999999999999999999MA1101801999999REMMET069METAR LSMS 031950Z AUTO 11003KT 9999NDV FEW150 M03/M08 Q1018 RMK BLU;
0138067205999992010010320504+46217+007317AUTO +0482LSMS V0209999V001012200019N0112651N1-00401-00901999999ADDGA1021+024001999GF102991999999999999999999MA1101801999999REMMET069METAR LSMS 032050Z AUTO VRB02KT 9999NDV FEW080 M04/M09 Q1018 RMK BLU;
0161067205999992010010321504+46217+007317AUTO +0482LSMS V0209999V000512200019N0112651N1-00501-00901999999ADDGA1021+021001999GA2041+063001999GF104991999999999999999999MA1101691999999REMMET076METAR LSMS 032150Z AUTO VRB01KT 9999NDV FEW078 SCT210 M05/M09 Q1017 RMK BLU;
0161067205999992010010322504+46217+007317AUTO +0482LSMS V0200701N002110210019N0112651N1-00401-00801999999ADDGA1071+021001999GA2081+024001999GF108991999999999999999999MA1101691999999REMMET076METAR LSMS 032250Z AUTO 07004KT 9999NDV BKN075 OVC088 M04/M08 Q1017 RMK WHT;
0138067205999992010010323504+46217+007317AUTO +0482LSMS V0200901N002610210019N0112651N1-00401-00801999999ADDGA1081+021001999GF108991999999999999999999MA1101591999999REMMET069METAR LSMS 032350Z AUTO 09005KT 9999NDV OVC075 M04/M08 Q1016 RMK WHT;
0138067205999992010010400504+46217+007317AUTO +0482LSMS V0200801N002110240019N0112651N1-00301-00801999999ADDGA1081+024001999GF108991999999999999999999MA1101591999999REMMET069METAR LSMS 040050Z AUTO 08004KT 9999NDV OVC080 M03/M08 Q1016 RMK WHT;
0161067205999992010010401504+46217+007317AUTO +0482LSMS V0201001N001010270019N0112651N1-00301-00801999999ADDGA1021+024001999GA2081+027001999GF108991999999999999999999MA1101491999999REMMET076METAR LSMS 040150Z AUTO 10002KT 9999NDV FEW082 OVC093 M03/M08 Q1015 RMK WHT;
0161067205999992010010402504+46217+007317AUTO +0482LSMS V0209999C000010270019N0112651N1-00301-00801999999ADDGA1021+021001999GA2081+027001999GF108991999999999999999999MA1101491999999REMMET076METAR LSMS 040250Z AUTO 00000KT 9999NDV FEW071 OVC098 M03/M08 Q1015 RMK WHT;
0146067205999992010010403504+46217+007317AUTO +0482LSMS V0200701N002110210019N0112651N1-00201-00801999999ADDGA1081+021001999GF108991999999999999999999MA1101391999999REMMET077METAR LSMS 040350Z AUTO 07004KT 030V100 9999NDV OVC072 M02/M08 Q1014 RMK WHT;
0138067205999992010010404504+46217+007317AUTO +0482LSMS V0200901N002610180019N0112651N1-00201-00701999999ADDGA1081+018001999GF108991999999999999999999MA1101291999999REMMET069METAR LSMS 040450Z AUTO 09005KT 9999NDV OVC065 M02/M07 Q1013 RMK WHT;
0176067205999992010010405504+46217+007317FM-15+0482LSMS V0202401N001510141019N0112651N1-00201-00701999999ADDGA1021+012001999GA2071+014101999GA3081+015001999GF108991999999999999999999MA1101391999999REMMET075METAR LSMS 040550Z 24003KT 9999 FEW040 BKN047 OVC057 M02/M07 Q1014 RMK WHT;
0141067205999992010010406504+46217+007317FM-15+0482LSMS V0209999V000510060019N0030001N1-00301-00501999999ADDGA1081+006001999GF108991999999999999999999MA1101391999999MW1101MW2711REMMET060METAR LSMS 040650Z VRB01KT 3000 -SN BR OVC020 M03/M05 Q1014;
0148067205999992010010407504+46217+007317FM-15+0482LSMS V0209999C000010015019N0020001N1-00301-00401999999ADDGA1081+001501999GF108991999999999999999999MA1101391999999MW1101MW2711REMMET067METAR LSMS 040750Z 00000KT 2000 -SN BR OVC005 M03/M04 Q1014 SNOCLO;
0147067205999992010010408504+46217+007317FM-15+0482LSMS V0200801N001510015019N0015001N1-00301-00401999999ADDGA1081+001501999GF108991999999999999999999MA1101391999999MW1101MW2731REMMET066METAR LSMS 040850Z 08003KT 1500 SN BR OVC005 M03/M04 Q1014 SNOCLO;
0147067205999992010010409504+46217+007317FM-15+0482LSMS V0200801N002110021019N0020001N1-00301-00401999999ADDGA1081+002101999GF108991999999999999999999MA1101391999999MW1101MW2731REMMET066METAR LSMS 040950Z 08004KT 2000 SN BR OVC007 M03/M04 Q1014 SNOCLO;
0170067205999992010010411504+46217+007317FM-15+0482LSMS V0200701N000510090019N0020001N1-00101-00301999999ADDGA1041+003001999GA2081+009001999GF108991999999999999999999MA1101191999999MW1101MW2731REMMET073METAR LSMS 041150Z 07001KT 2000 SN BR SCT010 OVC030 M01/M03 Q1012 SNOCLO;
0162067205999992010010412504+46217+007317FM-15+0482LSMS V0200901N001010180019N0060001N1-00101-00301999999ADDGA1041+003001999GA2081+018001999GF108991999999999999999999MA1101081999999MW1711REMMET071METAR LSMS 041250Z 09002KT 6000 -SN SCT010 OVC060 M01/M03 Q1011 SNOCLO;
0180067205999992010010413504+46217+007317FM-15+0482LSMS V0200901N001010090019N0050001N1-00101-00201999999ADDGA1021+003001999GA2071+009001999GA3081+018001999GF108991999999999999999999MA1101021999999REMMET079METAR LSMS 041350Z 09002KT 5000 SHSN FEW010 BKN030 OVC060 M01/M02 Q1010 SNOCLO;
0175067205999992010010414504+46217+007317FM-15+0482LSMS V0209999C00001009001CN0080001N1+00001-00301999999ADDGA1021+003001999GA2041+009001999GA3071+021001999GF107991999999999999999999MA1101021999999REMMET074METAR LSMS 041450Z 00000KT 8000 FEW010 SCT030 BKN070 M00/M03 Q1010 SNOCLO;
0175067205999992010010415504+46217+007317FM-15+0482LSMS V0209999V00151009001CN0080001N1-00101-00201999999ADDGA1021+003001999GA2041+009001999GA3071+021001999GF107991999999999999999999MA1101021999999REMMET074METAR LSMS 041550Z VRB03KT 8000 FEW010 SCT030 BKN070 M01/M02 Q1010 SNOCLO;
0196067205999992010010416504+46217+007317AUTO +0482LSMS V0202501N000510150019N0070001N1-00201-00201999999ADDAW1851GA1021+004801999GA2041+015001999GA3071+015001999GF107991999999999999999999MA1101021999999REMMET089METAR LSMS 041650Z AUTO 25001KT 7000NDV -SHSN FEW016 SCT052 BKN059 M02/M02 Q1010 RMK GRN;
0194067205999992010010417504+46217+007317AUTO +0482LSMS V0209999V001010180019N0060001N1-00201-00201999999ADDAW1711GA1041+009301999GA2071+018001999GA3071+024001999GF107991999999999999999999MA1101021999999REMMET087METAR LSMS 041750Z AUTO VRB02KT 6000NDV -SN SCT031 BKN062 BKN082 M02/M02 Q1010 RMK GRN;
0194067205999992010010418504+46217+007317AUTO +0482LSMS V0209999C000010150019N0060001N1-00201-00201999999ADDAW1711GA1071+015001999GA2071+021001999GA3081+024001999GF108991999999999999999999MA1101021999999REMMET087METAR LSMS 041850Z AUTO 00000KT 6000NDV -SN BKN058 BKN074 OVC087 M02/M02 Q1010 RMK GRN;
0173067205999992010010419504+46217+007317AUTO +0482LSMS V0209999C000010150019N0070001N1-00201-00201999999ADDAW1671GA1071+015001999GA2081+021001999GF108991999999999999999999MA1100911999999REMMET082METAR LSMS 041950Z AUTO 00000KT 7000NDV -RASN BKN057 OVC076 M02/M02 Q1009 RMK GRN;
0196067205999992010010420504+46217+007317AUTO +0482LSMS V0200901N000510150019N0050001N1-00201-00201999999ADDAW1851GA1021+001201999GA2071+015001999GA3081+024001999GF108991999999999999999999MA1100911999999REMMET089METAR LSMS 042050Z AUTO 09001KT 5000NDV -SHSN FEW004 BKN058 OVC082 M02/M02 Q1009 RMK GRN;
0196067205999992010010421504+46217+007317AUTO +0482LSMS V0209999C00001013501CN0050001N1-00201-00201999999ADDAW1811GA1021+001501999GA2041+013501999GA3081+015001999GF108991999999999999999999MA1100911999999REMMET089METAR LSMS 042150Z AUTO 00000KT 5000NDV -SHRA FEW005 SCT045 OVC058 M02/M02 Q1009 RMK GRN;
0203067205999992010010422504+46217+007317AUTO +0482LSMS V0209999V00051024001CN0050001N1-00201-00201999999ADDAW1101AW2711GA1021+015001999GA2041+024001999GA3081+027001999GF108991999999999999999999MA1100911999999REMMET090METAR LSMS 042250Z AUTO VRB01KT 5000NDV -SN BR FEW056 SCT081 OVC099 M02/M02 Q1009 RMK GRN;
0182067205999992010010423504+46217+007317AUTO +0482LSMS V0209999C000010270019N0043001N1-00201-00201999999ADDAW1101AW2811GA1021+015001999GA2081+027001999GF108991999999999999999999MA1100811999999REMMET085METAR LSMS 042350Z AUTO 00000KT 4300NDV -SHRA BR FEW056 OVC097 M02/M02 Q1008 RMK GRN;
0207067205999992010010500504+46217+007317AUTO +0482LSMS V0209999C000010180019N0040001N1-00201-00301999999ADDAW1101AW2801GA1021+001201999GA2071+018001999GA3081+021001999GF108991999999999999999999MA1100811999999REMMET094METAR LSMS 050050Z AUTO 00000KT 4000NDV -SHRASN BR FEW004 BKN067 OVC078 M02/M03 Q1008 RMK GRN;
0195067205999992010010501504+46217+007317AUTO +0482LSMS V0209999C000010300019N0034001N1-00301-00301999999ADDAW1101GA1021+015001999GA2081+030001999GF108991999999999999999999MA1100711999999REMMET085METAR LSMS 050150Z AUTO 00000KT 3400NDV -SHRA BR FEW058 OVC100 M03/M03 Q1007 RMK GRN;EQDQ01    812PRSWA2
0139067205999992010010502504+46217+007317AUTO +0482LSMS V0209999C000019999999N0008001N1-00301-00401999999ADDAW1101MA1100701999999REMMET106METAR LSMS 050250Z AUTO 00000KT 0800NDV R07/0650VP2000D R25/P2000N BR FEW001 BKN095 M03/M04 Q1007 RMK RED;
0221067205999992010010503504+46217+007317AUTO +0482LSMS V0209999C000010270019N0007001N1-00301-00401999999ADDAW1101ED199U05509GA1021+000301999GA2071+027001999GF107991999999999999999999MA1100611999999REMMET100METAR LSMS 050350Z AUTO 00000KT 0700NDV R07/0550D R25/P2000N BR FEW001 BKN095 M03/M04 Q1006 RMK RED;EQDQ01-000303ATOT  
0139067205999992010010504504+46217+007317AUTO +0482LSMS V0209999V000519999999N0010001N1-00301-00401999999ADDAW1101MA1100501999999REMMET106METAR LSMS 050450Z AUTO VRB01KT 1000NDV R07/0750VP2000U R25/P2000N BR FEW002 BKN092 M03/M04 Q1005 RMK RED;
0130067205999992010010505504+46217+007317FM-15+0482LSMS V0201101N001010240019N0041001N1-00301-00301999999ADDGA1081+024001999GF108991999999999999999999MA1100511999999REMMET061METAR LSMS 050550Z 11002KT 4100 OVC088 M03/M03 Q1005 RMK GRN;
0129067205999992010010506504+46217+007317FM-15+0482LSMS V0209999C000010270019N0050001N1-00301-00301999999ADDGA1071+027001999GF107991999999999999999999MA1100411999999REMMET060METAR LSMS 050650Z 00000KT 5000 BKN090 M03/M03 Q1004 SNOCLO;
0139067205999992010010507504+46217+007317FM-15+0482LSMS V0209999V000510240019N0043001N1-00201-00301999999ADDGA1081+024001999GF108991999999999999999999MA1100411999999MW1101REMMET064METAR LSMS 050750Z VRB01KT 4300 BR OVC088 M02/M03 Q1004 RMK GRN;
0129067205999992010010508504+46217+007317FM-15+0482LSMS V0200501N002110270019N0080001N1-00201-00201999999ADDGA1071+027001999GF107991999999999999999999MA1100411999999REMMET060METAR LSMS 050850Z 05004KT 8000 BKN090 M02/M02 Q1004 SNOCLO;
0130067205999992010010509504+46217+007317FM-15+0482LSMS V0200801N001010270019N0080001N1-00101-00201999999ADDGA1071+027001999GF107991999999999999999999MA1100311999999REMMET061METAR LSMS 050950Z 08002KT 8000 BKN097 M01/M02 Q1003 RMK WHT;
0121067205999992010010510504+46217+007317FM-15+0482LSMS V0209999V000512200019N0090001N1+00101-00201999999ADDGA1021+027001999GF102991999999999999999999MA1100201999999REMMET052METAR LSMS 051050Z VRB01KT 9000 FEW090 01/M02 Q1002;
0152067205999992010010511504+46217+007317FM-15+0482LSMS V0201001N001512200019N0090001N1+00101-00301999999ADDGA1021+021001999GA2041+075001999GF104991999999999999999999MA1100101999999REMMET067METAR LSMS 051150Z 10003KT 070V150 9000 FEW070 SCT250 01/M03 Q1001;
0144067205999992010010513504+46217+007317FM-15+0482LSMS V0202601N002612200019N0090001N1+00101-00301999999ADDGA1021+021001999GA2041+075001999GF104991999999999999999999MA1100001999999REMMET059METAR LSMS 051350Z 26005KT 9000 FEW070 SCT250 01/M03 Q1000;
0144067205999992010010514504+46217+007317FM-15+0482LSMS V0202401N002112200019N0112651N1+00001-00301999999ADDGA1021+021001999GA2041+075001999GF104991999999999999999999MA1100001999999REMMET059METAR LSMS 051450Z 24004KT 9999 FEW070 SCT250 00/M03 Q1000;
0145067205999992010010515504+46217+007317FM-15+0482LSMS V0202501N001512200019N0090001N1-00101-00301999999ADDGA1021+021001999GA2041+075001999GF104991999999999999999999MA1100001999999REMMET060METAR LSMS 051550Z 25003KT 9000 FEW070 SCT250 M01/M03 Q1000;
0145067205999992010010516504+46217+007317FM-15+0482LSMS V0209999V000512200019N0090001N1-00101-00301999999ADDGA1021+021001999GA2041+075001999GF104991999999999999999999MA1099901999999REMMET060METAR LSMS 051650Z VRB01KT 9000 FEW070 SCT250 M01/M03 Q0999;
0119067205999992010010517504+46217+007317AUTO +0482LSMS V0209999C000012200019N0040001N1-00301-00401999999ADDGF100991999999999999999999MA1100001999999REMMET066METAR LSMS 051750Z AUTO 00000KT 4000NDV NCD M03/M04 Q1000 RMK GRN;
0147067205999992010010518504+46217+007317AUTO +0482LSMS V0209999C000012200019N0017001N1-00301-00401999999ADDAW1101GA1021+021001999GF102991999999999999999999MA1100001999999REMMET072METAR LSMS 051850Z AUTO 00000KT 1700NDV BR FEW079 M03/M04 Q1000 RMK AMB;
0151067205999992010010519504+46217+007317AUTO +0482LSMS V0209999C000012200019N0003501N1-00401-00501999999ADDED199U05009GF100991999999999999999999MA1099901999999REMMET087METAR LSMS 051950Z AUTO 00000KT 0350NDV R07/0500N R25/P2000N NCD M04/M05 Q0999 RMK RED;
0151067205999992010010520504+46217+007317AUTO +0482LSMS V0209999C000012200019N0007001N1-00401-00501999999ADDED199U07509GF100991999999999999999999MA1099901999999REMMET087METAR LSMS 052050Z AUTO 00000KT 0700NDV R07/0750D R25/P2000N NCD M04/M05 Q0999 RMK RED;
0128067205999992010010521504+46217+007317AUTO +0482LSMS V0201001N001512200019N0050001N1-00401-00401999999ADDAW1101GF100991999999999999999999MA1099901999999REMMET069METAR LSMS 052150Z AUTO 10003KT 5000NDV BR NCD M04/M04 Q0999 RMK GRN;
0119067205999992010010522504+46217+007317AUTO +0482LSMS V0200901N001012200019N0043001N1-00501-00501999999ADDGF100991999999999999999999MA1099901999999REMMET066METAR LSMS 052250Z AUTO 09002KT 4300NDV NCD M05/M05 Q0999 RMK GRN;
0138067205999992010010523504+46217+007317AUTO +0482LSMS V0209999V001012200019N0042001N1-00501-00601999999ADDGA1021+021001999GF102991999999999999999999MA1099901999999REMMET069METAR LSMS 052350Z AUTO VRB02KT 4200NDV FEW073 M05/M06 Q0999 RMK GRN;
0161067205999992010010600504+46217+007317AUTO +0482LSMS V0209999C000010240019N0043001N1-00501-00601999999ADDGA1021+021001999GA2071+024001999GF107991999999999999999999MA1099901999999REMMET076METAR LSMS 060050Z AUTO 00000KT 4300NDV FEW072 BKN082 M05/M06 Q0999 RMK GRN;
0138067205999992010010601504+46217+007317AUTO +0482LSMS V0209999C000012200019N0070001N1-00501-00601999999ADDGA1021+024001999GF102991999999999999999999MA1099901999999REMMET069METAR LSMS 060150Z AUTO 00000KT 7000NDV FEW082 M05/M06 Q0999 RMK GRN;
0161067205999992010010602504+46217+007317AUTO +0482LSMS V0209999C000010180019N0050001N1-00601-00701999999ADDGA1071+018001999GA2071+024001999GF107991999999999999999999MA1099901999999REMMET076METAR LSMS 060250Z AUTO 00000KT 5000NDV BKN066 BKN082 M06/M07 Q0999 RMK GRN;
0161067205999992010010603504+46217+007317AUTO +0482LSMS V0209999V000510240019N0060001N1-00601-00601999999ADDGA1021+021001999GA2071+024001999GF107991999999999999999999MA1099901999999REMMET076METAR LSMS 060350Z AUTO VRB01KT 6000NDV FEW071 BKN083 M06/M06 Q0999 RMK GRN;
0138067205999992010010604504+46217+007317AUTO +0482LSMS V0209999V001012200019N0070001N1-00501-00601999999ADDGA1041+024001999GF104991999999999999999999MA1099901999999REMMET069METAR LSMS 060450Z AUTO VRB02KT 7000NDV SCT084 M05/M06 Q0999 RMK GRN;
0138067205999992010010605504+46217+007317AUTO +0482LSMS V0209999C000012200019N0060001N1-00701-00701999999ADDGA1041+021001999GF104991999999999999999999MA1099901999999REMMET069METAR LSMS 060550Z AUTO 00000KT 6000NDV SCT079 M07/M07 Q0999 RMK GRN;
0122067205999992010010606504+46217+007317FM-15+0482LSMS V0209999V001012200019N0112651N1-00701-00801999999ADDGA1021+024001999GF102991999999999999999999MA1099901999999REMMET053METAR LSMS 060650Z VRB02KT 9999 FEW080 M07/M08 Q0999;
0122067205999992010010607504+46217+007317FM-15+0482LSMS V0209999V000512200019N0112651N1-00701-00701999999ADDGA1021+024001999GF102991999999999999999999MA1100001999999REMMET053METAR LSMS 060750Z VRB01KT 9999 FEW080 M07/M07 Q1000;
0122067205999992010010608504+46217+007317FM-15+0482LSMS V0209999V000512200019N0112651N1-00601-00601999999ADDGA1021+018001999GF102991999999999999999999MA1100001999999REMMET053METAR LSMS 060850Z VRB01KT 9999 FEW060 M06/M06 Q1000;
0122067205999992010010609504+46217+007317FM-15+0482LSMS V0209999C000012200019N0112651N1-00601-00701999999ADDGA1021+018001999GF102991999999999999999999MA1100101999999REMMET053METAR LSMS 060950Z 00000KT 9999 FEW060 M06/M07 Q1001;
0122067205999992010010610504+46217+007317FM-15+0482LSMS V0209999C000012200019N0112651N1-00201-00401999999ADDGA1021+015001999GF102991999999999999999999MA1100101999999REMMET053METAR LSMS 061050Z 00000KT 9999 FEW050 M02/M04 Q1001;
0122067205999992010010611504+46217+007317FM-15+0482LSMS V0202501N001012200019N0112651N1-00101-00401999999ADDGA1021+012001999GF102991999999999999999999MA1100001999999REMMET053METAR LSMS 061150Z 25002KT 9999 FEW040 M01/M04 Q1000;
0130067205999992010010612504+46217+007317FM-15+0482LSMS V0202301N002112200019N0112651N1+00001-00401999999ADDGA1021+012001999GF102991999999999999999999MA1100001999999REMMET061METAR LSMS 061250Z 23004KT 200V260 9999 FEW040 M00/M04 Q1000;
0122067205999992010010613504+46217+007317FM-15+0482LSMS V0202601N001512200019N0112651N1+00001-00401999999ADDGA1021+012001999GF102991999999999999999999MA1100001999999REMMET053METAR LSMS 061350Z 26003KT 9999 FEW040 M00/M04 Q1000;
0153067205999992010010614504+46217+007317FM-15+0482LSMS V0202301N001512200019N0112651N1-00101-00301999999ADDGA1021+012001999GA2041+045001999GF104991999999999999999999MA1100001999999REMMET068METAR LSMS 061450Z 23003KT 200V260 9999 FEW040 SCT150 M01/M03 Q1000;
0144067205999992010010615504+46217+007317FM-15+0482LSMS V0200201N000512200019N0112651N1+00001-00301999999ADDGA1021+012001999GA2041+036001999GF104991999999999999999999MA1100101999999REMMET059METAR LSMS 061550Z 02001KT 9999 FEW040 SCT120 00/M03 Q1001;
0138067205999992010010616504+46217+007317AUTO +0482LSMS V0209999V000510420019N0090001N1-00201-00401999999ADDGA1071+042001999GF107991999999999999999999MA1100101999999REMMET069METAR LSMS 061650Z AUTO VRB01KT 9000NDV BKN140 M02/M04 Q1001 RMK WHT;
0184067205999992010010617504+46217+007317AUTO +0482LSMS V0200901N00151010501CN0112651N1-00201-00401999999ADDGA1021+005101999GA2041+010501999GA3071+014401999GF107991999999999999999999MA1100201999999REMMET083METAR LSMS 061750Z AUTO 09003KT 9999NDV FEW017 SCT035 BKN048 M02/M04 Q1002 RMK WHT;
0184067205999992010010618504+46217+007317AUTO +0482LSMS V0202701N001010072019N0090001N1-00201-00401999999ADDGA1041+006301999GA2071+007201999GA3071+010501999GF107991999999999999999999MA1100311999999REMMET083METAR LSMS 061850Z AUTO 27002KT 9000NDV SCT021 BKN024 BKN035 M02/M04 Q1003 RMK WHT;
0138067205999992010010619504+46217+007317AUTO +0482LSMS V0209999V000510102019N0090001N1-00301-00401999999ADDGA1071+010201999GF107991999999999999999999MA1100311999999REMMET069METAR LSMS 061950Z AUTO VRB01KT 9000NDV BKN034 M03/M04 Q1003 RMK WHT;
0161067205999992010010620504+46217+007317AUTO +0482LSMS V0209999V001010093019N0112651N1-00301-00501999999ADDGA1071+009301999GA2071+011401999GF107991999999999999999999MA1100311999999REMMET076METAR LSMS 062050Z AUTO VRB02KT 9999NDV BKN031 BKN038 M03/M05 Q1003 RMK WHT;
0161067205999992010010621504+46217+007317AUTO +0482LSMS V0201101N002110330019N0112651N1-00301-00601999999ADDGA1021+008401999GA2071+033001999GF107991999999999999999999MA1100411999999REMMET076METAR LSMS 062150Z AUTO 11004KT 9999NDV FEW028 BKN110 M03/M06 Q1004 RMK WHT;
0161067205999992010010622504+46217+007317AUTO +0482LSMS V0202101N001510081019N0112651N1-00201-00501999999ADDGA1071+008101999GA2081+010501999GF108991999999999999999999MA1100411999999REMMET076METAR LSMS 062250Z AUTO 21003KT 9999NDV BKN027 OVC035 M02/M05 Q1004 RMK WHT;
0161067205999992010010623504+46217+007317AUTO +0482LSMS V0209999C000010111019N0112651N1-00201-00501999999ADDGA1021+008701999GA2081+011101999GF108991999999999999999999MA1100511999999REMMET076METAR LSMS 062350Z AUTO 00000KT 9999NDV FEW029 OVC037 M02/M05 Q1005 RMK WHT;
0161067205999992010010700504+46217+007317AUTO +0482LSMS V0209999C000010129019N0112651N1-00201-00401999999ADDGA1021+007801999GA2071+012901999GF107991999999999999999999MA1100511999999REMMET076METAR LSMS 070050Z AUTO 00000KT 9999NDV FEW026 BKN043 M02/M04 Q1005 RMK WHT;
0138067205999992010010701504+46217+007317AUTO +0482LSMS V0201101N001012200019N0080001N1-00401-00501999999ADDGA1021+010801999GF102991999999999999999999MA1100511999999REMMET069METAR LSMS 070150Z AUTO 11002KT 8000NDV FEW036 M04/M05 Q1005 RMK BLU;
0169067205999992010010702504+46217+007317AUTO +0482LSMS V0201101N001512200019N0112651N1-00401-00601999999ADDGA1021+008401999GA2041+011101999GF104991999999999999999999MA1100511999999REMMET084METAR LSMS 070250Z AUTO 11003KT 060V140 9999NDV FEW028 SCT037 M04/M06 Q1005 RMK BLU;
0161067205999992010010703504+46217+007317AUTO +0482LSMS V0209999V001010108019N0112651N1-00501-00701999999ADDGA1021+009301999GA2071+010801999GF107991999999999999999999MA1100511999999REMMET076METAR LSMS 070350Z AUTO VRB02KT 9999NDV FEW031 BKN036 M05/M07 Q1005 RMK WHT;
0161067205999992010010704504+46217+007317AUTO +0482LSMS V0209999C000012200019N0112651N1-00501-00801999999ADDGA1021+008401999GA2041+009601999GF104991999999999999999999MA1100611999999REMMET076METAR LSMS 070450Z AUTO 00000KT 9999NDV FEW028 SCT032 M05/M08 Q1006 RMK BLU;
0130067205999992010010705504+46217+007317FM-15+0482LSMS V0209999C000012200019N0112651N1-00501-00801999999ADDGA1041+042001999GF104991999999999999999999MA1100611999999REMMET061METAR LSMS 070550Z 00000KT 9999 SCT140 M05/M08 Q1006 RMK BLU;
0130067205999992010010706504+46217+007317FM-15+0482LSMS V0200801N001512200019N0112651N1-00501-00801999999ADDGA1041+042001999GF104991999999999999999999MA1100711999999REMMET061METAR LSMS 070650Z 08003KT 050V120 9999 SCT140 M05/M08 Q1007;
0122067205999992010010707504+46217+007317FM-15+0482LSMS V0200901N002612200019N0112651N1-00501-00801999999ADDGA1041+042001999GF104991999999999999999999MA1100711999999REMMET053METAR LSMS 070750Z 09005KT 9999 SCT140 M05/M08 Q1007;
0130067205999992010010708504+46217+007317FM-15+0482LSMS V0200501N002112200019N0112651N1-00501-00801999999ADDGA1041+042001999GF104991999999999999999999MA1100811999999REMMET061METAR LSMS 070850Z 05004KT 020V080 9999 SCT140 M05/M08 Q1008;
0145067205999992010010709504+46217+007317FM-15+0482LSMS V0200801N002612200019N0112651N1-00301-00701999999ADDGA1021+033001999GA2041+039001999GF104991999999999999999999MA1100811999999REMMET060METAR LSMS 070950Z 08005KT 9999 FEW110 SCT130 M03/M07 Q1008;
0145067205999992010010710504+46217+007317FM-15+0482LSMS V0200901N002610540019N0112651N1-00101-00701999999ADDGA1021+033001999GA2071+054001999GF107991999999999999999999MA1100811999999REMMET060METAR LSMS 071050Z 09005KT 9999 FEW110 BKN180 M01/M07 Q1008;
0145067205999992010010711504+46217+007317FM-15+0482LSMS V0200801N002610540019N0112651N1+00001-00701999999ADDGA1021+033001999GA2071+054001999GF107991999999999999999999MA1100711999999REMMET060METAR LSMS 071150Z 08005KT 9999 FEW110 BKN180 M00/M07 Q1007;
0144067205999992010010712504+46217+007317FM-15+0482LSMS V0200801N001510540019N0112651N1+00001-00901999999ADDGA1021+033001999GA2081+054001999GF108991999999999999999999MA1100611999999REMMET059METAR LSMS 071250Z 08003KT 9999 FEW110 OVC180 00/M09 Q1006;
0144067205999992010010713504+46217+007317FM-15+0482LSMS V0209999V000510540019N0112651N1+00101-01001999999ADDGA1041+033001999GA2071+054001999GF107991999999999999999999MA1100611999999REMMET059METAR LSMS 071350Z VRB01KT 9999 SCT110 BKN180 01/M10 Q1006;
0145067205999992010010714504+46217+007317FM-15+0482LSMS V0202501N002610540019N0112651N1+00001-00601999999ADDGA1021+033001999GA2081+054001999GF108991999999999999999999MA1100611999999REMMET060METAR LSMS 071450Z 25005KT 9999 FEW110 OVC180 M00/M06 Q1006;
0122067205999992010010715504+46217+007317FM-15+0482LSMS V0202501N001510300019N0112651N1-00101-00601999999ADDGA1081+030001999GF108991999999999999999999MA1100711999999REMMET053METAR LSMS 071550Z 25003KT 9999 OVC100 M01/M06 Q1007;
0138067205999992010010716504+46217+007317AUTO +0482LSMS V0202501N001010270019N0112651N1-00101-00601999999ADDGA1071+027001999GF107991999999999999999999MA1100711999999REMMET069METAR LSMS 071650Z AUTO 25002KT 9999NDV BKN097 M01/M06 Q1007 RMK WHT;
0138067205999992010010717504+46217+007317AUTO +0482LSMS V0209999C000010270019N0112651N1-00101-00601999999ADDGA1081+027001999GF108991999999999999999999MA1100811999999REMMET069METAR LSMS 071750Z AUTO 00000KT 9999NDV OVC093 M01/M06 Q1008 RMK WHT;
0138067205999992010010718504+46217+007317AUTO +0482LSMS V0209999C000010270019N0112651N1-00101-00601999999ADDGA1071+027001999GF107991999999999999999999MA1100811999999REMMET069METAR LSMS 071850Z AUTO 00000KT 9999NDV BKN094 M01/M06 Q1008 RMK WHT;
0138067205999992010010719504+46217+007317AUTO +0482LSMS V0202801N000510240019N0112651N1-00201-00501999999ADDGA1081+024001999GF108991999999999999999999MA1100811999999REMMET069METAR LSMS 071950Z AUTO 28001KT 9999NDV OVC083 M02/M05 Q1008 RMK WHT;
0161067205999992010010720504+46217+007317AUTO +0482LSMS V0200801N001010270019N0112651N1-00201-00501999999ADDGA1021+024001999GA2081+027001999GF108991999999999999999999MA1100811999999REMMET076METAR LSMS 072050Z AUTO 08002KT 9999NDV FEW080 OVC093 M02/M05 Q1008 RMK WHT;
0161067205999992010010721504+46217+007317AUTO +0482LSMS V0200801N002110210019N0112651N1-00101-00501999999ADDGA1071+021001999GA2081+030001999GF108991999999999999999999MA1100711999999REMMET076METAR LSMS 072150Z AUTO 08004KT 9999NDV BKN073 OVC100 M01/M05 Q1007 RMK WHT;
0161067205999992010010722504+46217+007317AUTO +0482LSMS V0209999V000510180019N0112651N1-00101-00501999999ADDGA1071+018001999GA2081+024001999GF108991999999999999999999MA1100711999999REMMET076METAR LSMS 072250Z AUTO VRB01KT 9999NDV BKN065 OVC080 M01/M05 Q1007 RMK WHT;
0184067205999992010010723504+46217+007317AUTO +0482LSMS V0209999V00051015001CN0112651N1-00101-00501999999ADDGA1021+014401999GA2041+015001999GA3081+018001999GF108991999999999999999999MA1100711999999REMMET083METAR LSMS 072350Z AUTO VRB01KT 9999NDV FEW048 SCT055 OVC069 M01/M05 Q1007 RMK WHT;
0184067205999992010010800504+46217+007317AUTO +0482LSMS V0200701N00101015001CN0112651N1-00101-00501999999ADDGA1041+013501999GA2041+015001999GA3081+018001999GF108991999999999999999999MA1100611999999REMMET083METAR LSMS 080050Z AUTO 07002KT 9999NDV SCT045 SCT052 OVC067 M01/M05 Q1006 RMK WHT;
0138067205999992010010801504+46217+007317AUTO +0482LSMS V0200801N002110180019N0112651N1-00101-00401999999ADDGA1081+018001999GF108991999999999999999999MA1100511999999REMMET069METAR LSMS 080150Z AUTO 08004KT 9999NDV OVC069 M01/M04 Q1005 RMK WHT;
0161067205999992010010802504+46217+007317AUTO +0482LSMS V0209999V000510210019N0112651N1-00101-00401999999ADDGA1041+015001999GA2081+021001999GF108991999999999999999999MA1100511999999REMMET076METAR LSMS 080250Z AUTO VRB01KT 9999NDV SCT054 OVC071 M01/M04 Q1005 RMK WHT;
0161067205999992010010803504+46217+007317AUTO +0482LSMS V0209999C000010240019N0112651N1-00101-00501999999ADDGA1021+018001999GA2081+024001999GF108991999999999999999999MA1100411999999REMMET076METAR LSMS 080350Z AUTO 00000KT 9999NDV FEW060 OVC089 M01/M05 Q1004 RMK WHT;
0161067205999992010010804504+46217+007317AUTO +0482LSMS V0200901N001510270019N0112651N1-00101-00401999999ADDGA1071+027001999GA2071+033001999GF107991999999999999999999MA1100311999999REMMET076METAR LSMS 080450Z AUTO 09003KT 9999NDV BKN095 BKN110 M01/M04 Q1003 RMK WHT;
0176067205999992010010805504+46217+007317FM-15+0482LSMS V0202501N00211024001CN0112651N1-00201-00401999999ADDGA1021+015001999GA2041+024001999GA3071+057001999GF107991999999999999999999MA1100311999999REMMET075METAR LSMS 080550Z 25004KT 9999 FEW050 SCT083 BKN190 M02/M04 Q1003 RMK WHT;
0145067205999992010010806504+46217+007317FM-15+0482LSMS V0209999V001010300019N0112651N1-00201-00401999999ADDGA1041+015001999GA2071+030001999GF107991999999999999999999MA1100201999999REMMET060METAR LSMS 080650Z VRB02KT 9999 SCT050 BKN100 M02/M04 Q1002;
0145067205999992010010807504+46217+007317FM-15+0482LSMS V0209999C000010330019N0112651N1-00201-00401999999ADDGA1041+018001999GA2071+033001999GF107991999999999999999999MA1100201999999REMMET060METAR LSMS 080750Z 00000KT 9999 SCT060 BKN110 M02/M04 Q1002;
0145067205999992010010808504+46217+007317FM-15+0482LSMS V0209999V000512200019N0090001N1-00201-00401999999ADDGA1041+021001999GA2041+039001999GF104991999999999999999999MA1100101999999REMMET060METAR LSMS 080850Z VRB01KT 9000 SCT070 SCT130 M02/M04 Q1001;
0145067205999992010010809504+46217+007317FM-15+0482LSMS V0209999V001010390019N0090001N1-00101-00301999999ADDGA1041+021001999GA2071+039001999GF107991999999999999999999MA1100101999999REMMET060METAR LSMS 080950Z VRB02KT 9000 SCT070 BKN130 M01/M03 Q1001;
0145067205999992010010810504+46217+007317FM-15+0482LSMS V0202401N002610390019N0090001N1+00001-00301999999ADDGA1041+021001999GA2071+039001999GF107991999999999999999999MA1099901999999REMMET060METAR LSMS 081050Z 24005KT 9000 SCT070 BKN130 M00/M03 Q0999;
0144067205999992010010811504+46217+007317FM-15+0482LSMS V0202501N004612200019N0112651N1+00001-00301999999ADDGA1041+021001999GA2041+039001999GF104991999999999999999999MA1099801999999REMMET059METAR LSMS 081150Z 25009KT 9999 SCT070 SCT130 00/M03 Q0998;
0152067205999992010010812504+46217+007317FM-15+0482LSMS V0202501N004112200019N0090001N1+00101-00401999999ADDGA1041+018001999GA2041+033001999GF104991999999999999999999MA1099701999999REMMET067METAR LSMS 081250Z 25008KT 220V290 9000 SCT060 SCT110 01/M04 Q0997;
0144067205999992010010813504+46217+007317FM-15+0482LSMS V0202501N006210330019N0090001N1+00101-00401999999ADDGA1041+018001999GA2071+033001999GF107991999999999999999999MA1099701999999REMMET059METAR LSMS 081350Z 25012KT 9000 SCT060 BKN110 01/M04 Q0997;
0144067205999992010010814504+46217+007317FM-15+0482LSMS V0202601N006710300019N0090001N1+00101-00401999999ADDGA1041+018001999GA2071+030001999GF107991999999999999999999MA1099801999999REMMET059METAR LSMS 081450Z 26013KT 9000 SCT060 BKN100 01/M04 Q0998;
0152067205999992010010815504+46217+007317FM-15+0482LSMS V0202601N005110270019N0080001N1+00001-00401999999ADDGA1041+015001999GA2071+027001999GF107991999999999999999999MA1099901999999REMMET067METAR LSMS 081550Z 26010KT 240V300 8000 SCT050 BKN090 00/M04 Q0999;
0144067205999992010010816504+46217+007317FM-15+0482LSMS V0202501N004610300019N0080001N1+00001-00401999999ADDGA1041+009001999GA2071+030001999GF107991999999999999999999MA1099901999999REMMET059METAR LSMS 081650Z 25009KT 8000 SCT030 BKN100 00/M04 Q0999;
0122067205999992010010817504+46217+007317FM-15+0482LSMS V0209999V001510330019N0080001N1+00001-00401999999ADDGA1071+033001999GF107991999999999999999999MA1099901999999REMMET053METAR LSMS 081750Z VRB03KT 8000 BKN110 M00/M04 Q0999;
0145067205999992010010818504+46217+007317FM-15+0482LSMS V0202701N002610300019N0070001N1-00101-00301999999ADDGA1041+009001999GA2071+030001999GF107991999999999999999999MA1100001999999REMMET060METAR LSMS 081850Z 27005KT 7000 SCT030 BKN100 M01/M03 Q1000;
0122067205999992010010906504+46217+007317FM-15+0482LSMS V0202601N002110045019N0050001N1-00101-00301999999ADDGA1081+004501999GF108991999999999999999999MA1100001999999REMMET053METAR LSMS 090650Z 26004KT 5000 OVC015 M01/M03 Q1000;
0122067205999992010010907504+46217+007317FM-15+0482LSMS V0202701N001010045019N0060001N1-00101-00301999999ADDGA1081+004501999GF108991999999999999999999MA1100001999999REMMET053METAR LSMS 090750Z 27002KT 6000 OVC015 M01/M03 Q1000;
0122067205999992010010908504+46217+007317FM-15+0482LSMS V0202601N002610045019N0060001N1-00101-00301999999ADDGA1081+004501999GF108991999999999999999999MA1100001999999REMMET053METAR LSMS 090850Z 26005KT 6000 OVC015 M01/M03 Q1000;
0145067205999992010010909504+46217+007317FM-15+0482LSMS V0202601N003610045019N0090001N1-00101-00301999999ADDGA1071+004501999GA2081+009001999GF108991999999999999999999MA1099901999999REMMET060METAR LSMS 090950Z 26007KT 9000 BKN015 OVC030 M01/M03 Q0999;
0145067205999992010010910504+46217+007317FM-15+0482LSMS V0202601N004610045019N0090001N1-00101-00401999999ADDGA1071+004501999GA2081+007501999GF108991999999999999999999MA1099901999999REMMET060METAR LSMS 091050Z 26009KT 9000 BKN015 OVC025 M01/M04 Q0999;
0145067205999992010010911504+46217+007317FM-15+0482LSMS V0202501N004110045019N0090001N1-00101-00401999999ADDGA1071+004501999GA2081+007501999GF108991999999999999999999MA1099901999999REMMET060METAR LSMS 091150Z 25008KT 9000 BKN015 OVC025 M01/M04 Q0999;
0153067205999992010010912504+46217+007317FM-15+0482LSMS V0202701N004110045019N0090001N1-00101-00401999999ADDGA1071+004501999GA2081+007501999GF108991999999999999999999MA1099901999999REMMET068METAR LSMS 091250Z 27008KT 240V300 9000 BKN015 OVC025 M01/M04 Q0999;
0145067205999992010010913504+46217+007317FM-15+0482LSMS V0202601N006710045019N0090001N1-00201-00401999999ADDGA1071+004501999GA2081+009001999GF108991999999999999999999MA1099901999999REMMET060METAR LSMS 091350Z 26013KT 9000 BKN015 OVC030 M02/M04 Q0999;
0145067205999992010010914504+46217+007317FM-15+0482LSMS V0202601N004610045019N0090001N1-00201-00501999999ADDGA1071+004501999GA2081+009001999GF108991999999999999999999MA1099901999999REMMET060METAR LSMS 091450Z 26009KT 9000 BKN015 OVC030 M02/M05 Q0999;
0132067205999992010010915504+46217+007317FM-15+0482LSMS V0202701N004610090019N0060001N1-00301-00401999999ADDGA1081+009001999GF108991999999999999999999MA1100001999999MW1711REMMET057METAR LSMS 091550Z 27009KT 6000 -SN OVC030 M03/M04 Q1000;
0152067205999992010011006504+46217+007317FM-15+0482LSMS V0209999C000010045019N0070001N1-00301-00501999999ADDGA1071+004501999GA2081+012001999GF108991999999999999999999MA1100811999999REMMET067METAR LSMS 100650Z 00000KT 7000 BKN015 OVC040 M03/M05 Q1008 SNOCLO;
0152067205999992010011007504+46217+007317FM-15+0482LSMS V0209999C000010135019N0090001N1-00301-00501999999ADDGA1041+003601999GA2071+013501999GF107991999999999999999999MA1100911999999REMMET067METAR LSMS 100750Z 00000KT 9000 SCT012 BKN045 M03/M05 Q1009 SNOCLO;
0122067205999992010011008504+46217+007317FM-15+0482LSMS V0209999V001010036019N0090001N1-00301-00501999999ADDGA1071+003601999GF107991999999999999999999MA1101021999999REMMET053METAR LSMS 100850Z VRB02KT 9000 BKN012 M03/M05 Q1010;
0145067205999992010011009504+46217+007317FM-15+0482LSMS V0209999C000010075019N0090001N1-00201-00401999999ADDGA1041+003601999GA2071+007501999GF107991999999999999999999MA1101021999999REMMET060METAR LSMS 100950Z 00000KT 9000 SCT012 BKN025 M02/M04 Q1010;
0145067205999992010011010504+46217+007317FM-15+0482LSMS V0202501N001510105019N0090001N1-00201-00501999999ADDGA1021+003601999GA2071+010501999GF107991999999999999999999MA1101081999999REMMET060METAR LSMS 101050Z 25003KT 9000 FEW012 BKN035 M02/M05 Q1011;
0145067205999992010011011504+46217+007317FM-15+0482LSMS V0209999V001012200019N0090001N1-00101-00501999999ADDGA1021+003601999GA2041+012601999GF104991999999999999999999MA1101081999999REMMET060METAR LSMS 101150Z VRB02KT 9000 FEW012 SCT042 M01/M05 Q1011;
0122067205999992010011012504+46217+007317FM-15+0482LSMS V0209999V001012200019N0090001N1+00001-00501999999ADDGA1021+013501999GF102991999999999999999999MA1101021999999REMMET053METAR LSMS 101250Z VRB02KT 9000 FEW045 M00/M05 Q1010;
0122067205999992010011013504+46217+007317FM-15+0482LSMS V0202401N002612200019N0090001N1-00101-00601999999ADDGA1021+013501999GF102991999999999999999999MA1101081999999REMMET053METAR LSMS 101350Z 24005KT 9000 FEW045 M01/M06 Q1011;
0122067205999992010011014504+46217+007317FM-15+0482LSMS V0202501N003612200019N0090001N1-00101-00501999999ADDGA1041+013501999GF104991999999999999999999MA1101191999999REMMET053METAR LSMS 101450Z 25007KT 9000 SCT045 M01/M05 Q1012;
0145067205999992010011015504+46217+007317FM-15+0482LSMS V0202601N003112200019N0090001N1-00201-00501999999ADDGA1021+009001999GA2041+013501999GF104991999999999999999999MA1101191999999REMMET060METAR LSMS 101550Z 26006KT 9000 FEW030 SCT045 M02/M05 Q1012;
0111067205999992010011105504+46217+007317FM-15+0482LSMS V0200901N003112200019N0070001N1-00601-00801999999ADDGF100991999999999999999999MA1101391999999REMMET058METAR LSMS 110550Z 09006KT 7000 NSC M06/M08 Q1014 RMK GRN;
0103067205999992010011106504+46217+007317FM-15+0482LSMS V0200901N003112200019N0090001N1-00601-00801999999ADDGF100991999999999999999999MA1101391999999REMMET050METAR LSMS 110650Z 09006KT 9000 NSC M06/M08 Q1014;
0103067205999992010011107504+46217+007317FM-15+0482LSMS V0200901N002612200019N0090001N1-00601-00901999999ADDGF100991999999999999999999MA1101391999999REMMET050METAR LSMS 110750Z 09005KT 9000 NSC M06/M09 Q1014;
0074067205999992010011108504+46217+007317FM-15+0482LSMS V0200601N001519999999Y0099001N1-00601-00801999999ADDMA1101491999999REMMET047METAR LSMS 110850Z 06003KT CAVOK M06/M08 Q1015;
0074067205999992010011109504+46217+007317FM-15+0482LSMS V0202301N001019999999Y0099001N1-00601-00801999999ADDMA1101491999999REMMET047METAR LSMS 110950Z 23002KT CAVOK M06/M08 Q1015;
0074067205999992010011110504+46217+007317FM-15+0482LSMS V0209999V001019999999Y0099001N1-00301-00701999999ADDMA1101491999999REMMET047METAR LSMS 111050Z VRB02KT CAVOK M03/M07 Q1015;
0122067205999992010011111504+46217+007317FM-15+0482LSMS V0202501N002612200019N0112651N1-00301-00701999999ADDGA1021+009001999GF102991999999999999999999MA1101391999999REMMET053METAR LSMS 111150Z 25005KT 9999 FEW030 M03/M07 Q1014;
0122067205999992010011112504+46217+007317FM-15+0482LSMS V0202501N002612200019N0112651N1-00201-00701999999ADDGA1021+009001999GF102991999999999999999999MA1101391999999REMMET053METAR LSMS 111250Z 25005KT 9999 FEW030 M02/M07 Q1014;
0122067205999992010011113504+46217+007317FM-15+0482LSMS V0209999V001512200019N0112651N1+00001-00601999999ADDGA1021+012001999GF102991999999999999999999MA1101391999999REMMET053METAR LSMS 111350Z VRB03KT 9999 FEW040 M00/M06 Q1014;
0122067205999992010011114504+46217+007317FM-15+0482LSMS V0209999V001012200019N0112651N1+00001-00601999999ADDGA1021+012001999GF102991999999999999999999MA1101391999999REMMET053METAR LSMS 111450Z VRB02KT 9999 FEW040 M00/M06 Q1014;
0122067205999992010011115504+46217+007317FM-15+0482LSMS V0201401N000512200019N0112651N1-00201-00601999999ADDGA1021+015001999GF102991999999999999999999MA1101391999999REMMET053METAR LSMS 111550Z 14001KT 9999 FEW050 M02/M06 Q1014;
0074067205999992010011116504+46217+007317FM-15+0482LSMS V0209999C000019999999Y0099001N1-00301-00701999999ADDMA1101491999999REMMET047METAR LSMS 111650Z 00000KT CAVOK M03/M07 Q1015;
0074067205999992010011117504+46217+007317FM-15+0482LSMS V0209999V000519999999Y0099001N1-00401-00701999999ADDMA1101491999999REMMET047METAR LSMS 111750Z VRB01KT CAVOK M04/M07 Q1015;
0074067205999992010011118504+46217+007317FM-15+0482LSMS V0209999V000519999999Y0099001N1-00501-00701999999ADDMA1101591999999REMMET047METAR LSMS 111850Z VRB01KT CAVOK M05/M07 Q1016;
0119067205999992010011119504+46217+007317AUTO +0482LSMS V0200801N001512200019N0090001N1-00501-00701999999ADDGF100991999999999999999999MA1101591999999REMMET066METAR LSMS 111950Z AUTO 08003KT 9000NDV NCD M05/M07 Q1016 RMK BLU;
0119067205999992010011120504+46217+007317AUTO +0482LSMS V0200901N002112200019N0090001N1-00501-00701999999ADDGF100991999999999999999999MA1101591999999REMMET066METAR LSMS 112050Z AUTO 09004KT 9000NDV NCD M05/M07 Q1016 RMK BLU;
0119067205999992010011121504+46217+007317AUTO +0482LSMS V0200701N001512200019N0080001N1-00501-00701999999ADDGF100991999999999999999999MA1101591999999REMMET066METAR LSMS 112150Z AUTO 07003KT 8000NDV NCD M05/M07 Q1016 RMK BLU;
0119067205999992010011122504+46217+007317AUTO +0482LSMS V0209999C000012200019N0080001N1-00601-00801999999ADDGF100991999999999999999999MA1101691999999REMMET066METAR LSMS 112250Z AUTO 00000KT 8000NDV NCD M06/M08 Q1017 RMK BLU;
0119067205999992010011123504+46217+007317AUTO +0482LSMS V0209999C000012200019N0080001N1-00701-00801999999ADDGF100991999999999999999999MA1101691999999REMMET066METAR LSMS 112350Z AUTO 00000KT 8000NDV NCD M07/M08 Q1017 RMK BLU;
0138067205999992010011200504+46217+007317AUTO +0482LSMS V0209999V000512200019N0080001N1-00701-00801999999ADDGA1021+033001999GF102991999999999999999999MA1101691999999REMMET069METAR LSMS 120050Z AUTO VRB01KT 8000NDV FEW110 M07/M08 Q1017 RMK BLU;
0146067205999992010011201504+46217+007317AUTO +0482LSMS V0201201N001512200019N0070001N1-00701-00801999999ADDGA1041+033001999GF104991999999999999999999MA1101591999999REMMET077METAR LSMS 120150Z AUTO 12003KT 080V150 7000NDV SCT110 M07/M08 Q1016 RMK GRN;
0119067205999992010011202504+46217+007317AUTO +0482LSMS V0201001N001512200019N0070001N1-00701-00801999999ADDGF100991999999999999999999MA1101591999999REMMET066METAR LSMS 120250Z AUTO 10003KT 7000NDV NCD M07/M08 Q1016 RMK GRN;
0119067205999992010011203504+46217+007317AUTO +0482LSMS V0209999C000012200019N0080001N1-00701-00801999999ADDGF100991999999999999999999MA1101591999999REMMET066METAR LSMS 120350Z AUTO 00000KT 8000NDV NCD M07/M08 Q1016 RMK BLU;
0119067205999992010011204504+46217+007317AUTO +0482LSMS V0209999V001012200019N0070001N1-00801-00901999999ADDGF100991999999999999999999MA1101591999999REMMET066METAR LSMS 120450Z AUTO VRB02KT 7000NDV NCD M08/M09 Q1016 RMK GRN;
0111067205999992010011205504+46217+007317FM-15+0482LSMS V0209999C000012200019N0060001N1-00801-00901999999ADDGF100991999999999999999999MA1101591999999REMMET058METAR LSMS 120550Z 00000KT 6000 NSC M08/M09 Q1016 RMK GRN;
0074067205999992010011206504+46217+007317FM-15+0482LSMS V0200901N001519999999Y0099001N1-00801-00901999999ADDMA1101491999999REMMET047METAR LSMS 120650Z 09003KT CAVOK M08/M09 Q1015;
0074067205999992010011207504+46217+007317FM-15+0482LSMS V0200701N002119999999Y0099001N1-00701-00801999999ADDMA1101491999999REMMET047METAR LSMS 120750Z 07004KT CAVOK M07/M08 Q1015;
0082067205999992010011208504+46217+007317FM-15+0482LSMS V0200701N002119999999Y0099001N1-00601-00801999999ADDMA1101491999999REMMET055METAR LSMS 120850Z 07004KT 050V110 CAVOK M06/M08 Q1015;
0082067205999992010011209504+46217+007317FM-15+0482LSMS V0200901N002619999999Y0099001N1-00601-00701999999ADDMA1101391999999REMMET055METAR LSMS 120950Z 09005KT 030V110 CAVOK M06/M07 Q1014;
0074067205999992010011210504+46217+007317FM-15+0482LSMS V0201201N002119999999Y0099001N1-00401-00601999999ADDMA1101291999999REMMET047METAR LSMS 121050Z 12004KT CAVOK M04/M06 Q1013;
0074067205999992010011211504+46217+007317FM-15+0482LSMS V0201001N002619999999Y0099001N1-00101-00601999999ADDMA1101081999999REMMET047METAR LSMS 121150Z 10005KT CAVOK M01/M06 Q1011;
0081067205999992010011212504+46217+007317FM-15+0482LSMS V0209999V001019999999Y0099001N1+00101-00701999999ADDMA1101021999999REMMET054METAR LSMS 121250Z VRB02KT CAVOK 01/M07 Q1010 RMK BLU;
0073067205999992010011213504+46217+007317FM-15+0482LSMS V0209999V001019999999Y0099001N1+00101-00701999999ADDMA1100911999999REMMET046METAR LSMS 121350Z VRB02KT CAVOK 01/M07 Q1009;
0073067205999992010011214504+46217+007317FM-15+0482LSMS V0209999V001519999999Y0099001N1+00201-00801999999ADDMA1100811999999REMMET046METAR LSMS 121450Z VRB03KT CAVOK 02/M08 Q1008;
0152067205999992010011305504+46217+007317FM-15+0482LSMS V0209999V000510150019N0112651N1+00101-00201999999ADDGA1071+015001999GA2081+018001999GF108991999999999999999999MA1100611999999REMMET067METAR LSMS 130550Z VRB01KT 9999 BKN053 OVC067 01/M02 Q1006 RMK WHT;
0144067205999992010011306504+46217+007317FM-15+0482LSMS V0200801N002610240019N0112651N1+00101-00301999999ADDGA1041+018001999GA2081+024001999GF108991999999999999999999MA1100711999999REMMET059METAR LSMS 130650Z 08005KT 9999 SCT060 OVC080 01/M03 Q1007;
0131067205999992010011307504+46217+007317FM-15+0482LSMS V0200901N002110060019N0040001N1+00101-00201999999ADDGA1081+006001999GF108991999999999999999999MA1100811999999MW1711REMMET056METAR LSMS 130750Z 09004KT 4000 -SN OVC020 01/M02 Q1008;
0161067205999992010011309504+46217+007317FM-15+0482LSMS V0200901N001510090019N0020001N1+00001-00101999999ADDGA1021+002401999GA2081+009001999GF108991999999999999999999MA1100911999999MW1711REMMET070METAR LSMS 130950Z 09003KT 2000 -SN FEW008 OVC030 00/M01 Q1009 SNOCLO;
0156067205999992010011310504+46217+007317FM-15+0482LSMS V0200901N002110105019N0060001N1+00101+00001999999ADDGA1021+002401999GA2081+010501999GF108991999999999999999999MA1100911999999REMMET071METAR LSMS 131050Z 09004KT 6000 FEW008 OVC035 01/M00 Q1009 RESN SNOCLO;
0167067205999992010011311504+46217+007317FM-15+0482LSMS V0200801N00211007501CN0090001N1+00201-00101999999ADDGA1021+003001999GA2041+007501999GA3081+012001999GF108991999999999999999999MA1100911999999REMMET066METAR LSMS 131150Z 08004KT 9000 FEW010 SCT025 OVC040 02/M01 Q1009;
0167067205999992010011312504+46217+007317FM-15+0482LSMS V0200901N00211012001CN0112651N1+00201-00101999999ADDGA1021+006001999GA2041+012001999GA3081+021001999GF108991999999999999999999MA1100811999999REMMET066METAR LSMS 131250Z 09004KT 9999 FEW020 SCT040 OVC070 02/M01 Q1008;
0144067205999992010011313504+46217+007317FM-15+0482LSMS V0200901N001010240019N0112651N1+00301-00101999999ADDGA1021+006001999GA2081+024001999GF108991999999999999999999MA1100811999999REMMET059METAR LSMS 131350Z 09002KT 9999 FEW020 OVC080 03/M01 Q1008;
0144067205999992010011314504+46217+007317FM-15+0482LSMS V0200901N001510240019N0112651N1+00301+00001999999ADDGA1041+018001999GA2081+024001999GF108991999999999999999999MA1100811999999REMMET059METAR LSMS 131450Z 09003KT 9999 SCT060 OVC080 03/M00 Q1008;
0144067205999992010011315504+46217+007317FM-15+0482LSMS V0200801N001010240019N0112651N1+00301-00101999999ADDGA1041+018001999GA2081+024001999GF108991999999999999999999MA1100811999999REMMET059METAR LSMS 131550Z 08002KT 9999 SCT060 OVC080 03/M01 Q1008;
0183067205999992010011316504+46217+007317AUTO +0482LSMS V0209999C000010240019N0112651N1+00201+00001999999ADDGA1021+015001999GA2071+024001999GA3081+027001999GF108991999999999999999999MA1100911999999REMMET082METAR LSMS 131650Z AUTO 00000KT 9999NDV FEW059 BKN085 OVC099 02/M00 Q1009 RMK WHT;
0168067205999992010011317504+46217+007317AUTO +0482LSMS V0200901N001510240019N0112651N1+00201-00101999999ADDGA1021+021001999GA2081+024001999GF108991999999999999999999MA1100911999999REMMET083METAR LSMS 131750Z AUTO 09003KT 050V110 9999NDV FEW073 OVC083 02/M01 Q1009 RMK WHT;
0137067205999992010011318504+46217+007317AUTO +0482LSMS V0200901N002610210019N0112651N1+00201+00001999999ADDGA1081+021001999GF108991999999999999999999MA1100911999999REMMET068METAR LSMS 131850Z AUTO 09005KT 9999NDV OVC079 02/M00 Q1009 RMK WHT;
0145067205999992010011319504+46217+007317AUTO +0482LSMS V0201101N001512200019N0070001N1+00101+00001999999ADDGA1021+007801999GF102991999999999999999999MA1100911999999REMMET076METAR LSMS 131950Z AUTO 11003KT 080V160 7000NDV FEW026 01/M00 Q1009 RMK GRN;
0161067205999992010011320504+46217+007317AUTO +0482LSMS V0209999C000010081019N0050001N1+00001-00101999999ADDGA1021+006901999GA2071+008101999GF107991999999999999999999MA1100911999999REMMET076METAR LSMS 132050Z AUTO 00000KT 5000NDV FEW023 BKN027 M00/M01 Q1009 RMK GRN;
0138067205999992010011321504+46217+007317AUTO +0482LSMS V0200701N001512200019N0050001N1+00001-00101999999ADDGA1041+009001999GF104991999999999999999999MA1100911999999REMMET069METAR LSMS 132150Z AUTO 07003KT 5000NDV SCT030 M00/M01 Q1009 RMK GRN;
0138067205999992010011322504+46217+007317AUTO +0482LSMS V0200801N001512200019N0080001N1-00101-00201999999ADDGA1041+010801999GF104991999999999999999999MA1100911999999REMMET069METAR LSMS 132250Z AUTO 08003KT 8000NDV SCT036 M01/M02 Q1009 RMK BLU;
0119067205999992010011323504+46217+007317AUTO +0482LSMS V0200401N002112200019N0070001N1-00101-00101999999ADDGF100991999999999999999999MA1100811999999REMMET066METAR LSMS 132350Z AUTO 04004KT 7000NDV NCD M01/M01 Q1008 RMK GRN;
0128067205999992010011400504+46217+007317AUTO +0482LSMS V0200801N002112200019N0050001N1-00101-00201999999ADDAW1101GF100991999999999999999999MA1100811999999REMMET069METAR LSMS 140050Z AUTO 08004KT 5000NDV BR NCD M01/M02 Q1008 RMK GRN;
0127067205999992010011401504+46217+007317AUTO +0482LSMS V0200701N002112200019N0050001N1-00201-00301999999ADDGF100991999999999999999999MA1100811999999REMMET074METAR LSMS 140150Z AUTO 07004KT 040V100 5000NDV NCD M02/M03 Q1008 RMK GRN;
0119067205999992010011402504+46217+007317AUTO +0482LSMS V0200901N002612200019N0050001N1-00201-00301999999ADDGF100991999999999999999999MA1100811999999REMMET066METAR LSMS 140250Z AUTO 09005KT 5000NDV NCD M02/M03 Q1008 RMK GRN;
0119067205999992010011403504+46217+007317AUTO +0482LSMS V0201101N001012200019N0070001N1-00301-00401999999ADDGF100991999999999999999999MA1100711999999REMMET066METAR LSMS 140350Z AUTO 11002KT 7000NDV NCD M03/M04 Q1007 RMK GRN;
0119067205999992010011404504+46217+007317AUTO +0482LSMS V0200601N001512200019N0070001N1-00301-00401999999ADDGF100991999999999999999999MA1100711999999REMMET066METAR LSMS 140450Z AUTO 06003KT 7000NDV NCD M03/M04 Q1007 RMK GRN;
0082067205999992010011405504+46217+007317FM-15+0482LSMS V0200801N003119999999Y0099001N1-00301-00501999999ADDMA1100711999999REMMET055METAR LSMS 140550Z 08006KT CAVOK M03/M05 Q1007 RMK BLU;
0074067205999992010011406504+46217+007317FM-15+0482LSMS V0200701N003119999999Y0099001N1-00301-00501999999ADDMA1100711999999REMMET047METAR LSMS 140650Z 07006KT CAVOK M03/M05 Q1007;
0074067205999992010011408504+46217+007317FM-15+0482LSMS V0200501N002119999999Y0099001N1-00201-00401999999ADDMA1100711999999REMMET047METAR LSMS 140850Z 05004KT CAVOK M02/M04 Q1007;
0145067205999992010011409504+46217+007317FM-15+0482LSMS V0200901N003110600019N0112651N1-00101-00401999999ADDGA1041+045001999GA2071+060001999GF107991999999999999999999MA1100611999999REMMET060METAR LSMS 140950Z 09006KT 9999 SCT150 BKN200 M01/M04 Q1006;
0144067205999992010011410504+46217+007317FM-15+0482LSMS V0200901N003110450019N0112651N1+00001-00301999999ADDGA1041+024001999GA2071+045001999GF107991999999999999999999MA1100611999999REMMET059METAR LSMS 141050Z 09006KT 9999 SCT080 BKN150 00/M03 Q1006;
0144067205999992010011411504+46217+007317FM-15+0482LSMS V0209999V001510240019N0112651N1+00101-00301999999ADDGA1071+024001999GA2071+045001999GF107991999999999999999999MA1100511999999REMMET059METAR LSMS 141150Z VRB03KT 9999 BKN080 BKN150 01/M03 Q1005;
0144067205999992010011412504+46217+007317FM-15+0482LSMS V0209999V001010240019N0112651N1+00301-00401999999ADDGA1071+024001999GA2071+039001999GF107991999999999999999999MA1100511999999REMMET059METAR LSMS 141250Z VRB02KT 9999 BKN080 BKN130 03/M04 Q1005;
0144067205999992010011413504+46217+007317FM-15+0482LSMS V0200801N002610210019N0112651N1+00301-00301999999ADDGA1071+021001999GA2071+036001999GF107991999999999999999999MA1100511999999REMMET059METAR LSMS 141350Z 08005KT 9999 BKN070 BKN120 03/M03 Q1005;
0129067205999992010011414504+46217+007317FM-15+0482LSMS V0200701N002610270019N0112651N1+00301-00201999999ADDGA1071+027001999GF107991999999999999999999MA1100411999999REMMET060METAR LSMS 141450Z 07005KT 040V100 9999 BKN090 03/M02 Q1004;
0144067205999992010011415504+46217+007317FM-15+0482LSMS V0209999C000012200019N0112651N1+00301-00301999999ADDGA1021+030001999GA2041+075001999GF104991999999999999999999MA1100511999999REMMET059METAR LSMS 141550Z 00000KT 9999 FEW100 SCT250 03/M03 Q1005;
0144067205999992010011416504+46217+007317FM-15+0482LSMS V0209999V001012200019N0112651N1+00201-00301999999ADDGA1041+030001999GA2041+075001999GF104991999999999999999999MA1100511999999REMMET059METAR LSMS 141650Z VRB02KT 9999 SCT100 SCT250 02/M03 Q1005;
0144067205999992010011417504+46217+007317FM-15+0482LSMS V0200801N002112200019N0112651N1+00201-00301999999ADDGA1041+033001999GA2041+075001999GF104991999999999999999999MA1100611999999REMMET059METAR LSMS 141750Z 08004KT 9999 SCT110 SCT250 02/M03 Q1006;
0137067205999992010011418504+46217+007317AUTO +0482LSMS V0200901N002610300019N0112651N1+00201-00301999999ADDGA1071+030001999GF107991999999999999999999MA1100711999999REMMET068METAR LSMS 141850Z AUTO 09005KT 9999NDV BKN100 02/M03 Q1007 RMK WHT;
0137067205999992010011419504+46217+007317AUTO +0482LSMS V0200901N001512200019N0112651N1+00101-00301999999ADDGA1021+033001999GF102991999999999999999999MA1100711999999REMMET068METAR LSMS 141950Z AUTO 09003KT 9999NDV FEW110 01/M03 Q1007 RMK BLU;
0137067205999992010011420504+46217+007317AUTO +0482LSMS V0209999V000512200019N0112651N1+00101-00401999999ADDGA1021+030001999GF102991999999999999999999MA1100811999999REMMET068METAR LSMS 142050Z AUTO VRB01KT 9999NDV FEW100 01/M04 Q1008 RMK BLU;
0145067205999992010011421504+46217+007317AUTO +0482LSMS V0201001N002110330019N0112651N1+00201-00401999999ADDGA1081+033001999GF108991999999999999999999MA1100911999999REMMET076METAR LSMS 142150Z AUTO 10004KT 360V120 9999NDV OVC110 02/M04 Q1009 RMK WHT;
0137067205999992010011422504+46217+007317AUTO +0482LSMS V0209999C000010360019N0112651N1+00001-00301999999ADDGA1081+036001999GF108991999999999999999999MA1101021999999REMMET068METAR LSMS 142250Z AUTO 00000KT 9999NDV OVC120 00/M03 Q1010 RMK WHT;
0138067205999992010011423504+46217+007317AUTO +0482LSMS V0209999V001010360019N0112651N1+00001-00301999999ADDGA1071+036001999GF107991999999999999999999MA1101081999999REMMET069METAR LSMS 142350Z AUTO VRB02KT 9999NDV BKN120 M00/M03 Q1011 RMK WHT;
0138067205999992010011500504+46217+007317AUTO +0482LSMS V0209999C000010360019N0112651N1-00101-00401999999ADDGA1071+036001999GF107991999999999999999999MA1101191999999REMMET069METAR LSMS 150050Z AUTO 00000KT 9999NDV BKN120 M01/M04 Q1012 RMK WHT;
0138067205999992010011501504+46217+007317AUTO +0482LSMS V0209999V000512200019N0112651N1-00201-00301999999ADDGA1041+033001999GF104991999999999999999999MA1101191999999REMMET069METAR LSMS 150150Z AUTO VRB01KT 9999NDV SCT110 M02/M03 Q1012 RMK BLU;
0138067205999992010011502504+46217+007317AUTO +0482LSMS V0209999C000010330019N0112651N1-00201-00401999999ADDGA1071+033001999GF107991999999999999999999MA1101291999999REMMET069METAR LSMS 150250Z AUTO 00000KT 9999NDV BKN110 M02/M04 Q1013 RMK WHT;
0146067205999992010011503504+46217+007317AUTO +0482LSMS V0201101N002110330019N0112651N1-00201-00401999999ADDGA1071+033001999GF107991999999999999999999MA1101391999999REMMET077METAR LSMS 150350Z AUTO 11004KT 080V140 9999NDV BKN110 M02/M04 Q1014 RMK WHT;
0161067205999992010011504504+46217+007317AUTO +0482LSMS V0200801N001010570019N0112651N1-00101-00301999999ADDGA1041+033001999GA2071+057001999GF107991999999999999999999MA1101491999999REMMET076METAR LSMS 150450Z AUTO 08002KT 9999NDV SCT110 BKN190 M01/M03 Q1015 RMK WHT;
0082067205999992010011505504+46217+007317FM-15+0482LSMS V0209999V000519999999Y0099001N1-00301-00401999999ADDMA1101591999999REMMET055METAR LSMS 150550Z VRB01KT CAVOK M03/M04 Q1016 RMK BLU;
0122067205999992010011506504+46217+007317FM-15+0482LSMS V0209999C000012200019N0112651N1-00301-00401999999ADDGA1041+045001999GF104991999999999999999999MA1101691999999REMMET053METAR LSMS 150650Z 00000KT 9999 SCT150 M03/M04 Q1017;
0122067205999992010011507504+46217+007317FM-15+0482LSMS V0209999C000012200019N0112651N1-00301-00401999999ADDGA1021+045001999GF102991999999999999999999MA1101901999999REMMET053METAR LSMS 150750Z 00000KT 9999 FEW150 M03/M04 Q1019;
0145067205999992010011508504+46217+007317FM-15+0482LSMS V0201001N001512200019N0112651N1-00101-00301999999ADDGA1021+045001999GA2041+075001999GF104991999999999999999999MA1102001999999REMMET060METAR LSMS 150850Z 10003KT 9999 FEW150 SCT250 M01/M03 Q1020;
0130067205999992010011509504+46217+007317FM-15+0482LSMS V0200701N002112200019N0112651N1-00101-00301999999ADDGA1021+033001999GF102991999999999999999999MA1102001999999REMMET061METAR LSMS 150950Z 07004KT 9999 FEW110 M01/M03 Q1020 RMK BLU;
0073067205999992010011510504+46217+007317FM-15+0482LSMS V0200701N003619999999Y0099001N1+00201-00401999999ADDMA1102001999999REMMET046METAR LSMS 151050Z 07007KT CAVOK 02/M04 Q1020;
0081067205999992010011511504+46217+007317FM-15+0482LSMS V0200901N003119999999Y0099001N1+00301-00501999999ADDMA1102001999999REMMET054METAR LSMS 151150Z 09006KT 050V110 CAVOK 03/M05 Q1020;
0081067205999992010011512504+46217+007317FM-15+0482LSMS V0209999V000519999999Y0099001N1+00501-00501999999ADDMA1102001999999REMMET054METAR LSMS 151250Z VRB01KT CAVOK 05/M05 Q1020 RMK BLU;
0081067205999992010011513504+46217+007317FM-15+0482LSMS V0202301N003119999999Y0099001N1+00501-00501999999ADDMA1102001999999REMMET054METAR LSMS 151350Z 23006KT 190V250 CAVOK 05/M05 Q1020;
0073067205999992010011514504+46217+007317FM-15+0482LSMS V0202601N003119999999Y0099001N1+00501-00301999999ADDMA1102001999999REMMET046METAR LSMS 151450Z 26006KT CAVOK 05/M03 Q1020;
0073067205999992010011515504+46217+007317FM-15+0482LSMS V0209999V000519999999Y0099001N1+00301-00401999999ADDMA1102101999999REMMET046METAR LSMS 151550Z VRB01KT CAVOK 03/M04 Q1021;
0073067205999992010011516504+46217+007317FM-15+0482LSMS V0209999V000519999999Y0099001N1+00101-00401999999ADDMA1102201999999REMMET046METAR LSMS 151650Z VRB01KT CAVOK 01/M04 Q1022;
0118067205999992010011517504+46217+007317AUTO +0482LSMS V0209999V001012200019N0112651N1+00001-00401999999ADDGF100991999999999999999999MA1102301999999REMMET065METAR LSMS 151750Z AUTO VRB02KT 9999NDV NCD 00/M04 Q1023 RMK BLU;
0119067205999992010011518504+46217+007317AUTO +0482LSMS V0209999C000012200019N0112651N1-00101-00401999999ADDGF100991999999999999999999MA1102301999999REMMET066METAR LSMS 151850Z AUTO 00000KT 9999NDV NCD M01/M04 Q1023 RMK BLU;
0119067205999992010011519504+46217+007317AUTO +0482LSMS V0201001N002112200019N0112651N1-00101-00401999999ADDGF100991999999999999999999MA1102401999999REMMET066METAR LSMS 151950Z AUTO 10004KT 9999NDV NCD M01/M04 Q1024 RMK BLU;
0119067205999992010011520504+46217+007317AUTO +0482LSMS V0209999V000512200019N0112651N1-00101-00401999999ADDGF100991999999999999999999MA1102401999999REMMET066METAR LSMS 152050Z AUTO VRB01KT 9999NDV NCD M01/M04 Q1024 RMK BLU;
0127067205999992010011521504+46217+007317AUTO +0482LSMS V0200901N002112200019N0112651N1-00201-00401999999ADDGF100991999999999999999999MA1102401999999REMMET074METAR LSMS 152150Z AUTO 09004KT 050V110 9999NDV NCD M02/M04 Q1024 RMK BLU;
0127067205999992010011522504+46217+007317AUTO +0482LSMS V0200701N002112200019N0112651N1-00201-00401999999ADDGF100991999999999999999999MA1102401999999REMMET074METAR LSMS 152250Z AUTO 07004KT 040V100 9999NDV NCD M02/M04 Q1024 RMK BLU;
0119067205999992010011523504+46217+007317AUTO +0482LSMS V0209999C000012200019N0112651N1-00301-00501999999ADDGF100991999999999999999999MA1102401999999REMMET066METAR LSMS 152350Z AUTO 00000KT 9999NDV NCD M03/M05 Q1024 RMK BLU;
0119067205999992010011600504+46217+007317AUTO +0482LSMS V0200701N001512200019N0112651N1-00401-00601999999ADDGF100991999999999999999999MA1102401999999REMMET066METAR LSMS 160050Z AUTO 07003KT 9999NDV NCD M04/M06 Q1024 RMK BLU;
0119067205999992010011601504+46217+007317AUTO +0482LSMS V0209999V000512200019N0112651N1-00401-00501999999ADDGF100991999999999999999999MA1102401999999REMMET066METAR LSMS 160150Z AUTO VRB01KT 9999NDV NCD M04/M05 Q1024 RMK BLU;
0119067205999992010011602504+46217+007317AUTO +0482LSMS V0200801N003612200019N0112651N1-00301-00601999999ADDGF100991999999999999999999MA1102401999999REMMET066METAR LSMS 160250Z AUTO 08007KT 9999NDV NCD M03/M06 Q1024 RMK BLU;
0119067205999992010011603504+46217+007317AUTO +0482LSMS V0200801N002612200019N0112651N1-00301-00601999999ADDGF100991999999999999999999MA1102401999999REMMET066METAR LSMS 160350Z AUTO 08005KT 9999NDV NCD M03/M06 Q1024 RMK BLU;
0119067205999992010011604504+46217+007317AUTO +0482LSMS V0200801N002112200019N0112651N1-00301-00601999999ADDGF100991999999999999999999MA1102401999999REMMET066METAR LSMS 160450Z AUTO 08004KT 9999NDV NCD M03/M06 Q1024 RMK BLU;
0119067205999992010011605504+46217+007317AUTO +0482LSMS V0200701N002612200019N0112651N1-00401-00601999999ADDGF100991999999999999999999MA1102401999999REMMET066METAR LSMS 160550Z AUTO 07005KT 9999NDV NCD M04/M06 Q1024 RMK BLU;
0074067205999992010011606504+46217+007317FM-15+0482LSMS V0200701N003119999999Y0099001N1-00301-00701999999ADDMA1102301999999REMMET047METAR LSMS 160650Z 07006KT CAVOK M03/M07 Q1023;
0074067205999992010011607504+46217+007317FM-15+0482LSMS V0200901N003119999999Y0099001N1-00301-00701999999ADDMA1102301999999REMMET047METAR LSMS 160750Z 09006KT CAVOK M03/M07 Q1023;
0074067205999992010011608504+46217+007317FM-15+0482LSMS V0200701N003619999999Y0099001N1-00301-00701999999ADDMA1102201999999REMMET047METAR LSMS 160850Z 07007KT CAVOK M03/M07 Q1022;
0074067205999992010011609504+46217+007317FM-15+0482LSMS V0200901N002619999999Y0099001N1-00201-00701999999ADDMA1102201999999REMMET047METAR LSMS 160950Z 09005KT CAVOK M02/M07 Q1022;
0081067205999992010011610504+46217+007317FM-15+0482LSMS V0200701N004619999999Y0099001N1+00101-00701999999ADDMA1102001999999REMMET054METAR LSMS 161050Z 07009KT 020V080 CAVOK 01/M07 Q1020;
0073067205999992010011611504+46217+007317FM-15+0482LSMS V0200801N002119999999Y0099001N1+00201-00601999999ADDMA1102001999999REMMET046METAR LSMS 161150Z 08004KT CAVOK 02/M06 Q1020;
0073067205999992010011612504+46217+007317FM-15+0482LSMS V0202601N002619999999Y0099001N1+00201-00501999999ADDMA1101901999999REMMET046METAR LSMS 161250Z 26005KT CAVOK 02/M05 Q1019;
0121067205999992010011613504+46217+007317FM-15+0482LSMS V0209999C000010450019N0112651N1+00301-00601999999ADDGA1081+045001999GF108991999999999999999999MA1101801999999REMMET052METAR LSMS 161350Z 00000KT 9999 OVC150 03/M06 Q1018;
0121067205999992010011614504+46217+007317FM-15+0482LSMS V0209999V000510450019N0112651N1+00301-00501999999ADDGA1081+045001999GF108991999999999999999999MA1101801999999REMMET052METAR LSMS 161450Z VRB01KT 9999 OVC150 03/M05 Q1018;
0144067205999992010011615504+46217+007317FM-15+0482LSMS V0209999V000510450019N0112651N1+00301-00501999999ADDGA1041+030001999GA2081+045001999GF108991999999999999999999MA1101691999999REMMET059METAR LSMS 161550Z VRB01KT 9999 SCT100 OVC150 03/M05 Q1017;
0137067205999992010011616504+46217+007317AUTO +0482LSMS V0209999C000010360019N0112651N1+00201-00501999999ADDGA1081+036001999GF108991999999999999999999MA1101691999999REMMET068METAR LSMS 161650Z AUTO 00000KT 9999NDV OVC120 02/M05 Q1017 RMK WHT;
0145067205999992010011617504+46217+007317AUTO +0482LSMS V0202601N003110360019N0112651N1+00201-00401999999ADDGA1081+036001999GF108991999999999999999999MA1101801999999REMMET076METAR LSMS 161750Z AUTO 26006KT 240V300 9999NDV OVC120 02/M04 Q1018 RMK WHT;
0137067205999992010011618504+46217+007317AUTO +0482LSMS V0209999V000510330019N0112651N1+00201-00301999999ADDGA1081+033001999GF108991999999999999999999MA1101801999999REMMET068METAR LSMS 161850Z AUTO VRB01KT 9999NDV OVC110 02/M03 Q1018 RMK WHT;
0137067205999992010011619504+46217+007317AUTO +0482LSMS V0209999V001510240019N0112651N1+00101-00301999999ADDGA1081+024001999GF108991999999999999999999MA1101801999999REMMET068METAR LSMS 161950Z AUTO VRB03KT 9999NDV OVC082 01/M03 Q1018 RMK WHT;
0160067205999992010011620504+46217+007317AUTO +0482LSMS V0200801N002610240019N0112651N1+00201-00301999999ADDGA1041+018001999GA2081+024001999GF108991999999999999999999MA1101801999999REMMET075METAR LSMS 162050Z AUTO 08005KT 9999NDV SCT065 OVC080 02/M03 Q1018 RMK WHT;
0201067205999992010011621504+46217+007317AUTO +0482LSMS V0200901N002110180019N0112651N1+00201-00301999999ADDAW1611GA1041+015001999GA2071+018001999GA3081+021001999GF108991999999999999999999MA1101801999999REMMET094METAR LSMS 162150Z AUTO 09004KT 060V120 9999NDV -RA SCT056 BKN069 OVC078 02/M03 Q1018 RMK WHT;
0203067205999992010011622504+46217+007317AUTO +0482LSMS V0200701N002110150019N0112651N1+00201-00301999999ADDAW1811GA1021+012601999GA2071+015001999GA3081+018001999GF108991999999999999999999MA1101801999999REMMET096METAR LSMS 162250Z AUTO 07004KT 040V100 9999NDV -SHRA FEW042 BKN055 OVC062 02/M03 Q1018 RMK WHT;
0174067205999992010011623504+46217+007317AUTO +0482LSMS V0202501N001010075019N0070001N1+00101-00201999999ADDAW1801GA1071+007501999GA2071+009901999GF107991999999999999999999MA1101901999999REMMET083METAR LSMS 162350Z AUTO 25002KT 7000NDV -SHRASN BKN025 BKN033 01/M02 Q1019 RMK GRN;
0193067205999992010011700504+46217+007317AUTO +0482LSMS V0209999V00101007801CN0043001N1+00001-00101999999ADDAW1711GA1021+006001999GA2041+007801999GA3071+009601999GF107991999999999999999999MA1102001999999REMMET086METAR LSMS 170050Z AUTO VRB02KT 4300NDV -SN FEW020 SCT026 BKN032 00/M01 Q1020 RMK GRN;
0202067205999992010011701504+46217+007317AUTO +0482LSMS V0209999V00101006301CN0050001N1+00001+00001999999ADDAW1101AW2611GA1021+003301999GA2041+006301999GA3081+012001999GF108991999999999999999999MA1101901999999REMMET089METAR LSMS 170150Z AUTO VRB02KT 5000NDV -RA BR FEW011 SCT021 OVC040 00/M00 Q1019 RMK GRN;
0183067205999992010011702504+46217+007317AUTO +0482LSMS V0200601N002110081019N0060001N1+00101+00001999999ADDGA1021+000901999GA2071+008101999GA3071+024001999GF107991999999999999999999MA1101801999999REMMET082METAR LSMS 170250Z AUTO 06004KT 6000NDV FEW003 BKN027 BKN088 01/M00 Q1018 RMK GRN;
0202067205999992010011703504+46217+007317AUTO +0482LSMS V0209999V00051007501CN0046001N1+00101+00001999999ADDAW1101AW2611GA1021+003601999GA2041+007501999GA3071+014401999GF107991999999999999999999MA1101901999999REMMET089METAR LSMS 170350Z AUTO VRB01KT 4600NDV -RA BR FEW012 SCT025 BKN048 01/M00 Q1019 RMK GRN;
0204067205999992010011704504+46217+007317AUTO +0482LSMS V0209999V00051007201CN0034001N1+00101+00001999999ADDAW1101AW2671GA1021+001201999GA2041+007201999GA3071+008701999GF107991999999999999999999MA1101901999999REMMET091METAR LSMS 170450Z AUTO VRB01KT 3400NDV -RASN BR FEW004 SCT024 BKN029 01/M00 Q1019 RMK GRN;
0204067205999992010011705504+46217+007317AUTO +0482LSMS V0209999V001010087019N0036001N1+00101+00001999999ADDAW1101AW2811GA1021+003901999GA2071+008701999GA3071+010801999GF107991999999999999999999MA1101801999999REMMET091METAR LSMS 170550Z AUTO VRB02KT 3600NDV -SHRA BR FEW013 BKN029 BKN036 01/M00 Q1018 RMK GRN;
0202067205999992010011706504+46217+007317FM-15+0482LSMS V0201801N001510030019N0040001N1+00101+00001999999ADDGA1071+003001999GA2071+009001999GA3081+015001999GF108991999999999999999999MA1101901999999MW1101MW2611REMMET089METAR LSMS 170650Z 18003KT 140V220 4000 BR -RA BKN010 BKN030 OVC050 01/00 Q1019 R/SNOCLO;
0194067205999992010011707504+46217+007317FM-15+0482LSMS V0209999V000510090019N0050001N1+00101+00001999999ADDGA1021+003001999GA2071+009001999GA3071+018001999GF107991999999999999999999MA1101901999999MW1101MW2611REMMET081METAR LSMS 170750Z VRB01KT 5000 BR -RA FEW010 BKN030 BKN060 01/00 Q1019 R/SNOCLO;
0184067205999992010011708504+46217+007317FM-15+0482LSMS V0209999V000510105019N0030001N1+00101+00001999999ADDGA1021+004501999GA2071+010501999GA3081+015001999GF108991999999999999999999MA1102001999999MW1101MW2631REMMET071METAR LSMS 170850Z VRB01KT 3000 BR RA FEW015 BKN035 OVC050 01/00 Q1020;
0187067205999992010011709504+46217+007317FM-15+0482LSMS V0209999V00101009001CN0040001N1+00201+00101999999ADDGA1021+003001999GA2041+009001999GA3071+018001999GF107991999999999999999999MA1102101999999MW1101MW2801REMMET074METAR LSMS 170950Z VRB02KT 4000 -SHRA BR FEW010 SCT030 BKN060 02/01 Q1021;
0175067205999992010011710504+46217+007317FM-15+0482LSMS V0202301N00151009001CN0050001N1+00201+00101999999ADDGA1021+003001999GA2041+009001999GA3071+015001999GF107991999999999999999999MA1102101999999MW1101REMMET068METAR LSMS 171050Z 23003KT 5000 BR FEW010 SCT030 BKN050 02/01 Q1021;
0143067205999992010011711504+46217+007317FM-15+0482LSMS V0202601N001510060019N0060001N1+00301+00101999999ADDGA1021+003001999GA2071+006001999GF107991999999999999999999MA1102101999999REMMET058METAR LSMS 171150Z 26003KT 6000 FEW010 BKN020 03/01 Q1021;
0151067205999992010011712504+46217+007317FM-15+0482LSMS V0201601N002112200019N0090001N1+00401+00201999999ADDGA1041+003001999GA2041+015001999GF104991999999999999999999MA1102101999999REMMET066METAR LSMS 171250Z 16004KT 120V200 9000 SCT010 SCT050 04/02 Q1021;
0143067205999992010011713504+46217+007317FM-15+0482LSMS V0209999V001512200019N0112651N1+00601+00301999999ADDGA1021+006001999GA2041+021001999GF104991999999999999999999MA1102001999999REMMET058METAR LSMS 171350Z VRB03KT 9999 FEW020 SCT070 06/03 Q1020;
0120067205999992010011714504+46217+007317FM-15+0482LSMS V0209999V001012200019N0112651N1+00701+00101999999ADDGA1041+021001999GF104991999999999999999999MA1102101999999REMMET051METAR LSMS 171450Z VRB02KT 9999 SCT070 07/01 Q1021;
0128067205999992010011715504+46217+007317FM-15+0482LSMS V0202401N002612200019N0112651N1+00601+00001999999ADDGA1041+021001999GF104991999999999999999999MA1102201999999REMMET059METAR LSMS 171550Z 24005KT 210V300 9999 SCT070 06/00 Q1022;
0126067205999992010011716504+46217+007317AUTO +0482LSMS V0202701N003112200019N0112651N1+00601+00001999999ADDGF100991999999999999999999MA1102301999999REMMET073METAR LSMS 171650Z AUTO 27006KT 210V320 9999NDV NCD 06/M00 Q1023 RMK BLU;
0118067205999992010011717504+46217+007317AUTO +0482LSMS V0209999V001512200019N0112651N1+00301+00001999999ADDGF100991999999999999999999MA1102401999999REMMET065METAR LSMS 171750Z AUTO VRB03KT 9999NDV NCD 03/M00 Q1024 RMK BLU;
0145067205999992010011718504+46217+007317AUTO +0482LSMS V0200901N002112200019N0112651N1+00201-00101999999ADDGA1021+024001999GF102991999999999999999999MA1102511999999REMMET076METAR LSMS 171850Z AUTO 09004KT 060V120 9999NDV FEW083 02/M01 Q1025 RMK BLU;
0137067205999992010011719504+46217+007317AUTO +0482LSMS V0209999C000012200019N0112651N1+00101-00101999999ADDGA1041+024001999GF104991999999999999999999MA1102511999999REMMET068METAR LSMS 171950Z AUTO 00000KT 9999NDV SCT083 01/M01 Q1025 RMK BLU;
0137067205999992010011720504+46217+007317AUTO +0482LSMS V0209999C000010240019N0112651N1+00001-00201999999ADDGA1071+024001999GF107991999999999999999999MA1102511999999REMMET068METAR LSMS 172050Z AUTO 00000KT 9999NDV BKN083 00/M02 Q1025 RMK WHT;
0138067205999992010011721504+46217+007317AUTO +0482LSMS V0209999C000010240019N0112651N1+00001-00201999999ADDGA1071+024001999GF107991999999999999999999MA1102511999999REMMET069METAR LSMS 172150Z AUTO 00000KT 9999NDV BKN084 M00/M02 Q1025 RMK WHT;
0119067205999992010011722504+46217+007317AUTO +0482LSMS V0209999C000012200019N0112651N1-00101-00201999999ADDGF100991999999999999999999MA1102611999999REMMET066METAR LSMS 172250Z AUTO 00000KT 9999NDV NCD M01/M02 Q1026 RMK BLU;
0119067205999992010011723504+46217+007317AUTO +0482LSMS V0209999C000012200019N0112651N1-00201-00301999999ADDGF100991999999999999999999MA1102611999999REMMET066METAR LSMS 172350Z AUTO 00000KT 9999NDV NCD M02/M03 Q1026 RMK BLU;
0119067205999992010011800504+46217+007317AUTO +0482LSMS V0209999C000012200019N0112651N1-00201-00301999999ADDGF100991999999999999999999MA1102611999999REMMET066METAR LSMS 180050Z AUTO 00000KT 9999NDV NCD M02/M03 Q1026 RMK BLU;
0119067205999992010011801504+46217+007317AUTO +0482LSMS V0209999C000012200019N0112651N1-00201-00301999999ADDGF100991999999999999999999MA1102611999999REMMET066METAR LSMS 180150Z AUTO 00000KT 9999NDV NCD M02/M03 Q1026 RMK BLU;
0119067205999992010011802504+46217+007317AUTO +0482LSMS V0209999V001012200019N0112651N1-00201-00301999999ADDGF100991999999999999999999MA1102611999999REMMET066METAR LSMS 180250Z AUTO VRB02KT 9999NDV NCD M02/M03 Q1026 RMK BLU;
0119067205999992010011803504+46217+007317AUTO +0482LSMS V0209999C000012200019N0112651N1-00201-00401999999ADDGF100991999999999999999999MA1102711999999REMMET066METAR LSMS 180350Z AUTO 00000KT 9999NDV NCD M02/M04 Q1027 RMK BLU;
0119067205999992010011804504+46217+007317AUTO +0482LSMS V0209999C000012200019N0112651N1-00301-00401999999ADDGF100991999999999999999999MA1102711999999REMMET066METAR LSMS 180450Z AUTO 00000KT 9999NDV NCD M03/M04 Q1027 RMK BLU;
0082067205999992010011805504+46217+007317FM-15+0482LSMS V0201001N001519999999Y0099001N1-00201-00401999999ADDMA1102711999999REMMET055METAR LSMS 180550Z 10003KT CAVOK M02/M04 Q1027 RMK BLU;
0074067205999992010011806504+46217+007317FM-15+0482LSMS V0200801N001519999999Y0099001N1-00301-00401999999ADDMA1102711999999REMMET047METAR LSMS 180650Z 08003KT CAVOK M03/M04 Q1027;
0122067205999992010011807504+46217+007317FM-15+0482LSMS V0209999V001512200019N0112651N1-00201-00401999999ADDGA1021+010501999GF102991999999999999999999MA1102811999999REMMET053METAR LSMS 180750Z VRB03KT 9999 FEW035 M02/M04 Q1028;
0122067205999992010011808504+46217+007317FM-15+0482LSMS V0209999V000512200019N0112651N1-00201-00401999999ADDGA1021+010501999GF102991999999999999999999MA1102811999999REMMET053METAR LSMS 180850Z VRB01KT 9999 FEW035 M02/M04 Q1028;
0122067205999992010011809504+46217+007317FM-15+0482LSMS V0201101N002112200019N0112651N1-00101-00401999999ADDGA1021+010501999GF102991999999999999999999MA1102811999999REMMET053METAR LSMS 180950Z 11004KT 9999 FEW035 M01/M04 Q1028;
0121067205999992010011811504+46217+007317FM-15+0482LSMS V0200901N001512200019N0112651N1+00301-00401999999ADDGA1021+018001999GF102991999999999999999999MA1102611999999REMMET052METAR LSMS 181150Z 09003KT 9999 FEW060 03/M04 Q1026;
0081067205999992010011812504+46217+007317FM-15+0482LSMS V0209999V001019999999Y0099001N1+00401-00601999999ADDMA1102511999999REMMET054METAR LSMS 181250Z VRB02KT CAVOK 04/M06 Q1025 RMK BLU;
0073067205999992010011815504+46217+007317FM-15+0482LSMS V0209999C000019999999Y0099001N1+00401-00401999999ADDMA1102401999999REMMET046METAR LSMS 181550Z 00000KT CAVOK 04/M04 Q1024;
0118067205999992010011816504+46217+007317AUTO +0482LSMS V0209999C000012200019N0112651N1+00101-00401999999ADDGF100991999999999999999999MA1102511999999REMMET065METAR LSMS 181650Z AUTO 00000KT 9999NDV NCD 01/M04 Q1025 RMK BLU;
0118067205999992010011817504+46217+007317AUTO +0482LSMS V0201001N002112200019N0112651N1+00001-00501999999ADDGF100991999999999999999999MA1102511999999REMMET065METAR LSMS 181750Z AUTO 10004KT 9999NDV NCD 00/M05 Q1025 RMK BLU;
0126067205999992010011818504+46217+007317AUTO +0482LSMS V0201001N001512200019N0112651N1+00001-00501999999ADDGF100991999999999999999999MA1102511999999REMMET073METAR LSMS 181850Z AUTO 10003KT 360V120 9999NDV NCD 00/M05 Q1025 RMK BLU;
0138067205999992010011819504+46217+007317AUTO +0482LSMS V0200801N002612200019N0112651N1-00101-00501999999ADDGA1021+066001999GF102991999999999999999999MA1102511999999REMMET069METAR LSMS 181950Z AUTO 08005KT 9999NDV FEW220 M01/M05 Q1025 RMK BLU;
0119067205999992010011820504+46217+007317AUTO +0482LSMS V0209999C000012200019N0112651N1-00101-00401999999ADDGF100991999999999999999999MA1102511999999REMMET066METAR LSMS 182050Z AUTO 00000KT 9999NDV NCD M01/M04 Q1025 RMK BLU;
0119067205999992010011821504+46217+007317AUTO +0482LSMS V0209999V001012200019N0112651N1-00201-00401999999ADDGF100991999999999999999999MA1102611999999REMMET066METAR LSMS 182150Z AUTO VRB02KT 9999NDV NCD M02/M04 Q1026 RMK BLU;
0127067205999992010011822504+46217+007317AUTO +0482LSMS V0200601N001512200019N0112651N1-00301-00501999999ADDGF100991999999999999999999MA1102611999999REMMET074METAR LSMS 182250Z AUTO 06003KT 010V100 9999NDV NCD M03/M05 Q1026 RMK BLU;
0119067205999992010011823504+46217+007317AUTO +0482LSMS V0209999C000012200019N0112651N1-00301-00501999999ADDGF100991999999999999999999MA1102611999999REMMET066METAR LSMS 182350Z AUTO 00000KT 9999NDV NCD M03/M05 Q1026 RMK BLU;
0119067205999992010011900504+46217+007317AUTO +0482LSMS V0201001N001512200019N0112651N1-00301-00501999999ADDGF100991999999999999999999MA1102511999999REMMET066METAR LSMS 190050Z AUTO 10003KT 9999NDV NCD M03/M05 Q1025 RMK BLU;
0119067205999992010011901504+46217+007317AUTO +0482LSMS V0200701N003112200019N0112651N1-00301-00501999999ADDGF100991999999999999999999MA1102511999999REMMET066METAR LSMS 190150Z AUTO 07006KT 9999NDV NCD M03/M05 Q1025 RMK BLU;
0119067205999992010011902504+46217+007317AUTO +0482LSMS V0200901N002612200019N0112651N1-00301-00601999999ADDGF100991999999999999999999MA1102511999999REMMET066METAR LSMS 190250Z AUTO 09005KT 9999NDV NCD M03/M06 Q1025 RMK BLU;
0127067205999992010011903504+46217+007317AUTO +0482LSMS V0200601N001512200019N0112651N1-00301-00601999999ADDGF100991999999999999999999MA1102401999999REMMET074METAR LSMS 190350Z AUTO 06003KT 020V080 9999NDV NCD M03/M06 Q1024 RMK BLU;
0119067205999992010011904504+46217+007317AUTO +0482LSMS V0200601N001512200019N0112651N1-00401-00601999999ADDGF100991999999999999999999MA1102401999999REMMET066METAR LSMS 190450Z AUTO 06003KT 9999NDV NCD M04/M06 Q1024 RMK BLU;
0082067205999992010011905504+46217+007317FM-15+0482LSMS V0209999V001019999999Y0099001N1-00401-00601999999ADDMA1102401999999REMMET055METAR LSMS 190550Z VRB02KT CAVOK M04/M06 Q1024 RMK BLU;
0082067205999992010011906504+46217+007317FM-15+0482LSMS V0209999V001019999999Y0099001N1-00401-00701999999ADDMA1102401999999REMMET055METAR LSMS 190650Z VRB02KT CAVOK M04/M07 Q1024 RMK BLU;
0074067205999992010011907504+46217+007317FM-15+0482LSMS V0201001N002619999999Y0099001N1-00401-00601999999ADDMA1102401999999REMMET047METAR LSMS 190750Z 10005KT CAVOK M04/M06 Q1024;
0074067205999992010011909504+46217+007317FM-15+0482LSMS V0209999C000019999999Y0099001N1-00301-00701999999ADDMA1102301999999REMMET047METAR LSMS 190950Z 00000KT CAVOK M03/M07 Q1023;
0073067205999992010011910504+46217+007317FM-15+0482LSMS V0200901N002119999999Y0099001N1+00001-00601999999ADDMA1102201999999REMMET046METAR LSMS 191050Z 09004KT CAVOK 00/M06 Q1022;
0073067205999992010011911504+46217+007317FM-15+0482LSMS V0209999C000019999999Y0099001N1+00301-00801999999ADDMA1102101999999REMMET046METAR LSMS 191150Z 00000KT CAVOK 03/M08 Q1021;
0081067205999992010011912504+46217+007317FM-15+0482LSMS V0209999V001019999999Y0099001N1+00401-00701999999ADDMA1101901999999REMMET054METAR LSMS 191250Z VRB02KT CAVOK 04/M07 Q1019 RMK BLU;
0073067205999992010011913504+46217+007317FM-15+0482LSMS V0202401N003119999999Y0099001N1+00401-00901999999ADDMA1101901999999REMMET046METAR LSMS 191350Z 24006KT CAVOK 04/M09 Q1019;
0073067205999992010011914504+46217+007317FM-15+0482LSMS V0202401N002119999999Y0099001N1+00401-00701999999ADDMA1101901999999REMMET046METAR LSMS 191450Z 24004KT CAVOK 04/M07 Q1019;
0073067205999992010011915504+46217+007317FM-15+0482LSMS V0209999V001019999999Y0099001N1+00301-00801999999ADDMA1101901999999REMMET046METAR LSMS 191550Z VRB02KT CAVOK 03/M08 Q1019;
0118067205999992010011916504+46217+007317AUTO +0482LSMS V0209999C000012200019N0112651N1+00001-00601999999ADDGF100991999999999999999999MA1101901999999REMMET065METAR LSMS 191650Z AUTO 00000KT 9999NDV NCD 00/M06 Q1019 RMK BLU;
0127067205999992010011917504+46217+007317AUTO +0482LSMS V0200901N001512200019N0112651N1+00001-00601999999ADDGF100991999999999999999999MA1101901999999REMMET074METAR LSMS 191750Z AUTO 09003KT 070V130 9999NDV NCD M00/M06 Q1019 RMK BLU;
0119067205999992010011918504+46217+007317AUTO +0482LSMS V0200801N001512200019N0112651N1-00101-00601999999ADDGF100991999999999999999999MA1101901999999REMMET066METAR LSMS 191850Z AUTO 08003KT 9999NDV NCD M01/M06 Q1019 RMK BLU;
0119067205999992010011919504+46217+007317AUTO +0482LSMS V0209999C000012200019N0112651N1-00101-00601999999ADDGF100991999999999999999999MA1101901999999REMMET066METAR LSMS 191950Z AUTO 00000KT 9999NDV NCD M01/M06 Q1019 RMK BLU;
0119067205999992010011920504+46217+007317AUTO +0482LSMS V0209999V001012200019N0112651N1-00301-00601999999ADDGF100991999999999999999999MA1101801999999REMMET066METAR LSMS 192050Z AUTO VRB02KT 9999NDV NCD M03/M06 Q1018 RMK BLU;
0119067205999992010011921504+46217+007317AUTO +0482LSMS V0209999V000512200019N0112651N1-00301-00601999999ADDGF100991999999999999999999MA1101801999999REMMET066METAR LSMS 192150Z AUTO VRB01KT 9999NDV NCD M03/M06 Q1018 RMK BLU;
0119067205999992010011922504+46217+007317AUTO +0482LSMS V0209999C000012200019N0112651N1-00301-00601999999ADDGF100991999999999999999999MA1101801999999REMMET066METAR LSMS 192250Z AUTO 00000KT 9999NDV NCD M03/M06 Q1018 RMK BLU;
0119067205999992010011923504+46217+007317AUTO +0482LSMS V0209999V001012200019N0112651N1-00301-00701999999ADDGF100991999999999999999999MA1101691999999REMMET066METAR LSMS 192350Z AUTO VRB02KT 9999NDV NCD M03/M07 Q1017 RMK BLU;
0119067205999992010012000504+46217+007317AUTO +0482LSMS V0209999V000512200019N0112651N1-00401-00601999999ADDGF100991999999999999999999MA1101691999999REMMET066METAR LSMS 200050Z AUTO VRB01KT 9999NDV NCD M04/M06 Q1017 RMK BLU;
0119067205999992010012001504+46217+007317AUTO +0482LSMS V0200701N001512200019N0112651N1-00401-00601999999ADDGF100991999999999999999999MA1101691999999REMMET066METAR LSMS 200150Z AUTO 07003KT 9999NDV NCD M04/M06 Q1017 RMK BLU;
0119067205999992010012002504+46217+007317AUTO +0482LSMS V0209999C000012200019N0112651N1-00501-00701999999ADDGF100991999999999999999999MA1101691999999REMMET066METAR LSMS 200250Z AUTO 00000KT 9999NDV NCD M05/M07 Q1017 RMK BLU;
0119067205999992010012003504+46217+007317AUTO +0482LSMS V0200901N002112200019N0112651N1-00501-00601999999ADDGF100991999999999999999999MA1101591999999REMMET066METAR LSMS 200350Z AUTO 09004KT 9999NDV NCD M05/M06 Q1016 RMK BLU;
0127067205999992010012004504+46217+007317AUTO +0482LSMS V0200801N001512200019N0112651N1-00501-00701999999ADDGF100991999999999999999999MA1101591999999REMMET074METAR LSMS 200450Z AUTO 08003KT 360V100 9999NDV NCD M05/M07 Q1016 RMK BLU;
0082067205999992010012005504+46217+007317FM-15+0482LSMS V0209999C000019999999Y0099001N1-00501-00701999999ADDMA1101591999999REMMET055METAR LSMS 200550Z 00000KT CAVOK M05/M07 Q1016 RMK BLU;
0074067205999992010012006504+46217+007317FM-15+0482LSMS V0200901N002119999999Y0099001N1-00501-00701999999ADDMA1101591999999REMMET047METAR LSMS 200650Z 09004KT CAVOK M05/M07 Q1016;
0074067205999992010012007504+46217+007317FM-15+0482LSMS V0200801N002619999999Y0099001N1-00501-00701999999ADDMA1101491999999REMMET047METAR LSMS 200750Z 08005KT CAVOK M05/M07 Q1015;
0074067205999992010012008504+46217+007317FM-15+0482LSMS V0200801N003119999999Y0099001N1-00401-00701999999ADDMA1101491999999REMMET047METAR LSMS 200850Z 08006KT CAVOK M04/M07 Q1015;
0074067205999992010012009504+46217+007317FM-15+0482LSMS V0202501N001019999999Y0099001N1-00401-00701999999ADDMA1101491999999REMMET047METAR LSMS 200950Z 25002KT CAVOK M04/M07 Q1015;
0073067205999992010012010504+46217+007317FM-15+0482LSMS V0209999C000019999999Y0099001N1+00001-00601999999ADDMA1101391999999REMMET046METAR LSMS 201050Z 00000KT CAVOK 00/M06 Q1014;
0073067205999992010012011504+46217+007317FM-15+0482LSMS V0202501N002119999999Y0099001N1+00101-00601999999ADDMA1101291999999REMMET046METAR LSMS 201150Z 25004KT CAVOK 01/M06 Q1013;
0073067205999992010012012504+46217+007317FM-15+0482LSMS V0202501N003619999999Y0099001N1+00101-00601999999ADDMA1101191999999REMMET046METAR LSMS 201250Z 25007KT CAVOK 01/M06 Q1012;
0183067205999992010012014504+46217+007317FM-15+0482LSMS V0202501N00361033001CN0112651N1+00201-00501999999ADDGA1021+027001999GA2041+033001999GA3071+039001999GF107991999999999999999999MA1101291999999REMMET082METAR LSMS 201450Z 25007KT 220V280 9999 FEW096 SCT110 BKN130 02/M05 Q1013 RMK WHT;
0144067205999992010012015504+46217+007317FM-15+0482LSMS V0209999V000510360019N0112651N1+00201-00501999999ADDGA1041+021001999GA2071+036001999GF107991999999999999999999MA1101291999999REMMET059METAR LSMS 201550Z VRB01KT 9999 SCT070 BKN120 02/M05 Q1013;
0121067205999992010012016504+46217+007317FM-15+0482LSMS V0202601N001510180019N0112651N1+00101-00301999999ADDGA1071+018001999GF107991999999999999999999MA1101391999999REMMET052METAR LSMS 201650Z 26003KT 9999 BKN065 01/M03 Q1014;
0195067205999992010012017504+46217+007317AUTO +0482LSMS V0203001N00151006601CN0033001N1+00101-00301999999ADDAW1671GA1021+004201999GA2041+006601999GA3071+012301999GF107991999999999999999999MA1101491999999REMMET088METAR LSMS 201750Z AUTO 30003KT 3300NDV -RASN FEW014 SCT022 BKN041 01/M03 Q1015 RMK GRN;
0170067205999992010012018504+46217+007317AUTO +0482LSMS V0202901N001010069019N0029001N1+00001-00101999999ADDAW1711GA1071+006901999GA2081+007801999GF108991999999999999999999MA1101491999999REMMET079METAR LSMS 201850Z AUTO 29002KT 2900NDV -SN BKN023 OVC026 00/M01 Q1015 RMK YLO;
0193067205999992010012019504+46217+007317AUTO +0482LSMS V0209999C00001003601CN0017001N1+00001-00101999999ADDAW1721GA1021+002401999GA2041+003601999GA3071+005101999GF107991999999999999999999MA1101591999999REMMET086METAR LSMS 201950Z AUTO 00000KT 1700NDV SN FEW008 SCT012 BKN017 M00/M01 Q1016 RMK AMB;
0198067205999992010012020504+46217+007317AUTO +0482LSMS V0209999V00051003901CN0016001N1+00001-00101999999ADDAW1711GA1021+001201999GA2041+003901999GA3071+004501999GF107991999999999999999999MA1101591999999REMMET091METAR LSMS 202050Z AUTO VRB01KT 1600NDV -SN FEW004 SCT013 BKN015 00/M01 Q1016 RESN RMK AMB;
0205067205999992010012021504+46217+007317AUTO +0482LSMS V0209999C000010045019N0028001N1+00001-00101999999ADDAW1101AW2671GA1021+001201999GA2071+004501999GA3071+005101999GF107991999999999999999999MA1101691999999REMMET092METAR LSMS 202150Z AUTO 00000KT 2800NDV -RASN BR FEW004 BKN015 BKN017 M00/M01 Q1017 RMK YLO;
