0149067220999992011010100004+46117+007517FM-12+182599999V0200301N001019999999N9999999N1-00311-01711999999ADDMA1999999081541MD1810061+9999ME1314989OA149900411REMSYN088AAXX  01004 06722 33/// /0302 11031 21171 38154 48498 58006 333 55300 20000 91108 91204;
0149067220999992011010101004+46117+007517FM-12+182599999V0200201N000519999999N9999999N1-00301-01781999999ADDMA1999999081511MD1810071+9999ME1314959OA149900311REMSYN088AAXX  01014 06722 33/// /0201 11030 21178 38151 48495 58007 333 553// 20000 91106 91203;
0149067220999992011010102004+46117+007517FM-12+182599999V0200501N001019999999N9999999N1-00301-01951999999ADDMA1999999081501MD1610081+9999ME1314949OA149900261REMSYN088AAXX  01024 06722 33/// /0502 11030 21195 38150 48494 56008 333 55300 20000 91105 91203;
0149067220999992011010103004+46117+007517FM-12+182599999V0200101N000519999999N9999999N1-00281-01881999999ADDMA1999999081481MD1610061+9999ME1314929OA149900311REMSYN088AAXX  01034 06722 33/// /0101 11028 21188 38148 48492 56006 333 55300 20000 91106 91203;
0149067220999992011010104004+46117+007517FM-12+182599999V0200301N001019999999N9999999N1-00341-01831999999ADDMA1999999081461MD1810051+9999ME1314919OA149900311REMSYN088AAXX  01044 06722 33/// /0302 11034 21183 38146 48491 58005 333 55300 20000 91106 91202;
0149067220999992011010105004+46117+007517FM-12+182599999V0200201N001019999999N9999999N1-00431-01861999999ADDMA1999999081451MD1610051+9999ME1314919OA149900311REMSYN088AAXX  01054 06722 33/// /0202 11043 21186 38145 48491 56005 333 55300 20000 91106 91202;
0216067220999992011010106004+46117+007517FM-12+182599999V0200801N001019999999N9999999N1-00361-01881999999ADDAL19900091GJ103429IA2999-00809KA1999N-00431MA1999999081451MD1610031+9999ME1314909OA149900411REMSYN112AAXX  01064 06722 33/// /0802 11036 21188 38145 48490 56003 333 21043 3/108 55057 55300 20000 70000 91108 91204;
0168067220999992011010107004+46117+007517FM-12+182599999V0200301N001019999999N9999999N1-00301-01991999999ADDMA1999999081461MD1410001+9999ME1314909OA149900311REMSYN088AAXX  01074 06722 33/// /0302 11030 21199 38146 48490 53000 333 55300 20000 91106 91203;EQDQ01+000032APCTEN
0149067220999992011010108004+46117+007517FM-12+182599999V0209999C000019999999N9999999N1-00291-02031999999ADDMA1999999081481MD1319999+9999ME1314929OA149900311REMSYN088AAXX  01084 06722 33/// /0000 11029 21203 38148 48492 53/// 333 55300 20022 91106 91203;
0096067220999992011010109004+46117+007517FM-12+182599999V0209999C000019999999N9999999N1-00321-01841999999ADDMA1999999081471ME1314919REMSYN060AAXX  01094 06722 43/// /0000 11032 21184 38147 48491 5////;
0096067220999992011010110004+46117+007517FM-12+182599999V0200801N000519999999N9999999N1-00181-01511999999ADDMA1999999081461ME1314899REMSYN060AAXX  01104 06722 43/// /0801 11018 21151 38146 48489 5////;
0149067220999992011010111004+46117+007517FM-12+182599999V0209999C000019999999N9999999N1-00161-01441999999ADDMA1999999081431MD1710051+9999ME1314859OA149900151REMSYN088AAXX  01114 06722 33/// /0000 11016 21144 38143 48485 57005 333 55307 2//// 91103 91201;
0096067220999992011010112004+46117+007517FM-12+182599999V0209999C000019999999N9999999N1-00151-01271999999ADDMA1999999081381ME1314809REMSYN060AAXX  01124 06722 43/// /0000 11015 21127 38138 48480 5////;
0096067220999992011010113004+46117+007517FM-12+182599999V0209999C000019999999N9999999N1-00131-01101999999ADDMA1999999081341ME1314769REMSYN060AAXX  01134 06722 43/// /0000 11013 21110 38134 48476 5////;
0096067220999992011010114004+46117+007517FM-12+182599999V0209999C000019999999N9999999N1-00141-01141999999ADDMA1999999081331ME1314759REMSYN060AAXX  01144 06722 43/// /0000 11014 21114 38133 48475 5////;
0096067220999992011010115004+46117+007517FM-12+182599999V0209999C000519999999N9999999N1-00211-01211999999ADDMA1999999081331ME1314769REMSYN060AAXX  01154 06722 43/// /0001 11021 21121 38133 48476 5////;
0096067220999992011010116004+46117+007517FM-12+182599999V0200301N001019999999N9999999N1-00321-01491999999ADDMA1999999081321ME1314779REMSYN060AAXX  01164 06722 43/// /0302 11032 21149 38132 48477 5////;
0096067220999992011010117004+46117+007517FM-12+182599999V0201101N001019999999N9999999N1-00241-01661999999ADDMA1999999081311ME1314759REMSYN060AAXX  01174 06722 43/// /1102 11024 21166 38131 48475 5////;
0193067220999992011010118004+46117+007517FM-12+182599999V0201101N001012200019N0750001N1-00211-01861999999ADDAJ100319199999999AL10600091GA1001+999999999GF100991001001999999001001IA1279MA1999999081251ME1314689REMSYN082AAXX  01184 06722 42/89 01102 11021 21186 38125 48468 5//// 333 43031 90766 93100;
0112067220999992011010119004+46117+007517FM-12+182599999V0209999C000019999999N9999999N1-00421-01791999999ADDMA1999999081221ME1314689REMSYN076AAXX  01194 06722 33/// /0000 11042 21179 38122 48468 5//// 333 553// 20000;
0149067220999992011010120004+46117+007517FM-12+182599999V0201001N000519999999N9999999N1-00501-01711999999ADDMA1999999081241MD1710071+9999ME1314719OA149900211REMSYN088AAXX  01204 06722 33/// /1001 11050 21171 38124 48471 57007 333 55300 20000 91104 91202;
0149067220999992011010121004+46117+007517FM-12+182599999V0200801N001019999999N9999999N1-00531-01731999999ADDMA1999999081241MD1510011+9999ME1314729OA149900261REMSYN088AAXX  01214 06722 33/// /0802 11053 21173 38124 48472 55001 333 55300 20000 91105 91203;
0149067220999992011010122004+46117+007517FM-12+182599999V0200801N001519999999N9999999N1-00431-01621999999ADDMA1999999081231MD1010011+9999ME1314699OA149900211REMSYN088AAXX  01224 06722 33/// /0803 11043 21162 38123 48469 50001 333 55300 20000 91104 91203;
0149067220999992011010123004+46117+007517FM-12+182599999V0200801N000519999999N9999999N1-00321-01821999999ADDMA1999999081191MD1710051+9999ME1314649OA149900211REMSYN088AAXX  01234 06722 33/// /0801 11032 21182 38119 48464 57005 333 55300 20000 91104 91203;
0149067220999992011010200004+46117+007517FM-12+182599999V0209999C000019999999N9999999N1-00491-01741999999ADDMA1999999081141MD1810101+9999ME1314619OA149900261REMSYN088AAXX  02004 06722 33/// /0000 11049 21174 38114 48461 58010 333 55300 20000 91105 91203;
0149067220999992011010201004+46117+007517FM-12+182599999V0203401N000519999999N9999999N1-00611-01781999999ADDMA1999999081081MD1610151+9999ME1314579OA149900211REMSYN088AAXX  02014 06722 33/// /3401 11061 21178 38108 48457 56015 333 55300 20000 91104 91202;
0096067220999992011010202004+46117+007517FM-12+182599999V0203101N000519999999N9999999N1-00541-01761999999ADDMA1999999081081ME1314569REMSYN060AAXX  02024 06722 43/// /3101 11054 21176 38108 48456 5////;
0096067220999992011010203004+46117+007517FM-12+182599999V0209999C000019999999N9999999N1-00581-01641999999ADDMA1999999081071ME1314569REMSYN060AAXX  02034 06722 43/// /0000 11058 21164 38107 48456 5////;
0096067220999992011010204004+46117+007517FM-12+182599999V0200501N001019999999N9999999N1-00551-01701999999ADDMA1999999081041ME1314529REMSYN060AAXX  02044 06722 43/// /0502 11055 21170 38104 48452 5////;
0096067220999992011010205004+46117+007517FM-12+182599999V0203501N000519999999N9999999N1-00581-01691999999ADDMA1999999081031ME1314529REMSYN060AAXX  02054 06722 43/// /3501 11058 21169 38103 48452 5////;
0244067220999992011010206004+46117+007517FM-12+182599999V0200801N001012200019N0750001N1-00531-01651999999ADDAJ100319199999999AL10600091GA1001+999999999GF100991001001999999001001GJ103429IA1279IA2999-00809KA1999N-00621MA1999999081011ME1314499REMSYN100AAXX  02064 06722 42/89 00802 11053 21165 38101 48449 5//// 333 21062 3/108 43031 55057 90768 93100;
0149067220999992011010207004+46117+007517FM-12+182599999V0200701N000519999999N9999999N1-00721-01611999999ADDMA1999999081041MD1510001+9999ME1314559OA149900151REMSYN088AAXX  02074 06722 33/// /0701 11072 21161 38104 48455 55000 333 55300 20000 91103 91202;
0149067220999992011010208004+46117+007517FM-12+182599999V0201201N001019999999N9999999N1-00621-01561999999ADDMA1999999081061MD1210031+9999ME1314559OA149900211REMSYN088AAXX  02084 06722 33/// /1202 11062 21156 38106 48455 52003 333 55300 20022 91104 91202;
0149067220999992011010209004+46117+007517FM-12+182599999V0200701N000519999999N9999999N1-00391-01501999999ADDMA1999999081061MD1210051+9999ME1314529OA149900261REMSYN088AAXX  02094 06722 33/// /0701 11039 21150 38106 48452 52005 333 55302 20320 91105 91203;
0149067220999992011010210004+46117+007517FM-12+182599999V0201401N001019999999N9999999N1-00451-01381999999ADDMA1999999081091MD1210051+9999ME1314569OA149900211REMSYN088AAXX  02104 06722 33/// /1402 11045 21138 38109 48456 52005 333 55308 2//// 91104 91203;
0149067220999992011010211004+46117+007517FM-12+182599999V0209999C000019999999N9999999N1-00541-01161999999ADDMA1999999081081MD1010021+9999ME1314569OA149900211REMSYN088AAXX  02114 06722 33/// /0000 11054 21116 38108 48456 50002 333 55308 2//// 91104 91202;
0191067220999992011010212004+46117+007517FM-12+182599999V0202801N000512200019N0750001N1-00521-01131999999ADDGA1001+999999999GF100991001001999999001001MA1999999081031MD1810031+9999ME1314519OA149900261REMSYN088AAXX  02124 06722 32/89 02801 11052 21113 38103 48451 58003 333 55308 2//// 91105 91203;
0149067220999992011010213004+46117+007517FM-12+182599999V0209999C000019999999N9999999N1-00531-01001999999ADDMA1999999081011MD1810081+9999ME1314499OA149900101REMSYN088AAXX  02134 06722 33/// /0000 11053 21100 38101 48449 58008 333 55308 2//// 91102 91201;
0112067220999992011010214004+46117+007517FM-12+182599999V0209999C000019999999N9999999N1-00461-01101999999ADDMA1999999081011ME1314489REMSYN076AAXX  02144 06722 33/// /0000 11046 21110 38101 48448 5//// 333 553// 2////;
0149067220999992011010215004+46117+007517FM-12+182599999V0202701N000519999999N9999999N1-00621-01141999999ADDMA1999999081031MD1510001+9999ME1314539OA149900211REMSYN088AAXX  02154 06722 33/// /2701 11062 21114 38103 48453 55000 333 55304 20407 91104 91202;
0149067220999992011010216004+46117+007517FM-12+182599999V0200801N000519999999N9999999N1-00641-01241999999ADDMA1999999081061MD1210051+9999ME1314569OA149900151REMSYN088AAXX  02164 06722 33/// /0801 11064 21124 38106 48456 52005 333 55300 20029 91103 91202;
0149067220999992011010217004+46117+007517FM-12+182599999V0209999C000019999999N9999999N1-00761-01371999999ADDMA1999999081071MD1210061+9999ME1314589OA149900151REMSYN088AAXX  02174 06722 33/// /0000 11076 21137 38107 48458 52006 333 55300 20000 91103 91202;
0261067220999992011010218004+46117+007517FM-12+182599999V0200901N000512200019N0750001N1-00911-01421999999ADDAJ100319199999999AL19900091GA1001+999999999GF100991001001999999001001IA1279KA1120M-00381MA1999999081101MD1210071+9999ME1314639OA149900211REMSYN112AAXX  02184 06722 32/89 00901 11091 21142 38110 48463 52007 333 11038 43031 55300 20000 90766 93100 91104 91203;
0149067220999992011010219004+46117+007517FM-12+182599999V0209999C000019999999N9999999N1-01071-01411999999ADDMA1999999081151MD1210091+9999ME1314709OA149900151REMSYN088AAXX  02194 06722 33/// /0000 11107 21141 38115 48470 52009 333 55300 20000 91103 91201;
0149067220999992011010220004+46117+007517FM-12+182599999V0209999C001519999999N9999999N1-01101-01181999999ADDMA1999999081181MD1210111+9999ME1314749OA149900211REMSYN088AAXX  02204 06722 33/// /0003 11110 21118 38118 48474 52011 333 55300 20000 91104 91203;
0149067220999992011010221004+46117+007517FM-12+182599999V0200201N001519999999N9999999N1-01101-01171999999ADDMA1999999081211MD1210111+9999ME1314779OA149900261REMSYN088AAXX  02214 06722 33/// /0203 11110 21117 38121 48477 52011 333 55300 20000 91105 91203;
0149067220999992011010222004+46117+007517FM-12+182599999V0203401N001019999999N9999999N1-01121-01161999999ADDMA1999999081231MD1110081+9999ME1314799OA149900261REMSYN088AAXX  02224 06722 33/// /3402 11112 21116 38123 48479 51008 333 55300 20000 91105 91203;
0149067220999992011010223004+46117+007517FM-12+182599999V0203301N000519999999N9999999N1-01191-01321999999ADDMA1999999081211MD1010031+9999ME1314789OA149900211REMSYN088AAXX  02234 06722 33/// /3301 11119 21132 38121 48478 50003 333 55300 20000 91104 91202;
0149067220999992011010300004+46117+007517FM-12+182599999V0203201N001519999999N9999999N1-01191-01341999999ADDMA1999999081201MD1810011+9999ME1314779OA149900261REMSYN088AAXX  03004 06722 33/// /3203 11119 21134 38120 48477 58001 333 55300 20000 91105 91203;
0149067220999992011010301004+46117+007517FM-12+182599999V0200201N000519999999N9999999N1-01231-01351999999ADDMA1999999081191MD1710041+9999ME1314769OA149900311REMSYN088AAXX  03014 06722 33/// /0201 11123 21135 38119 48476 57004 333 55300 20000 91106 91204;
0149067220999992011010302004+46117+007517FM-12+182599999V0209999C000019999999N9999999N1-01181-01901999999ADDMA1999999081171MD1719999+9999ME1314749OA149900311REMSYN088AAXX  03024 06722 33/// /0000 11118 21190 38117 48474 57/// 333 55300 20000 91106 91204;
0096067220999992011010303004+46117+007517FM-12+182599999V0209999C000019999999N9999999N1-01291-01661999999ADDMA1999999081171ME1314759REMSYN060AAXX  03034 06722 43/// /0000 11129 21166 38117 48475 5////;
0149067220999992011010304004+46117+007517FM-12+182599999V0209999C000019999999N9999999N1-01321-01661999999ADDMA1999999081181MD1710011+9999ME1314779OA149900211REMSYN088AAXX  03044 06722 33/// /0000 11132 21166 38118 48477 57001 333 55300 20000 91104 91203;
0149067220999992011010305004+46117+007517FM-12+182599999V0209999C000019999999N9999999N1-01201-02251999999ADDMA1999999081171MD1010001+9999ME1314749OA149900211REMSYN088AAXX  03054 06722 33/// /0000 11120 21225 38117 48474 50000 333 55300 20000 91104 91203;
0327067220999992011010306004+46117+007517FM-12+182599999V0209999C000010024019N0030001N1-01361-01891999999ADDAJ100319199999999AL19900091AY141061AY211061GA1091+999999999GF109991091999999999999999GJ103489IA1279IA2999-00809KA1999N-01331MA1999999081191MD1210021+9999ME1314789MW1401OA149900311REMSYN136AAXX  03064 06722 31/30 90000 11136 21189 38119 48478 52002 74041 333 21133 3/108 43031 55058 55300 20000 70000 90768 93100 91106 91204;
0149067220999992011010307004+46117+007517FM-12+182599999V0209999C000019999999N9999999N1-01101-02571999999ADDMA1999999081191MD1210011+9999ME1314759OA149900151REMSYN088AAXX  03074 06722 33/// /0000 11110 21257 38119 48475 52001 333 55300 20000 91103 91201;
0149067220999992011010308004+46117+007517FM-12+182599999V0200401N000519999999N9999999N1-01121-02191999999ADDMA1999999081211MD1319999+9999ME1314779OA149900211REMSYN088AAXX  03084 06722 33/// /0401 11112 21219 38121 48477 53/// 333 55300 20025 91104 91201;
0112067220999992011010309004+46117+007517FM-12+182599999V0201001N000519999999N9999999N1-00711-02451999999ADDMA1999999081201ME1314709REMSYN076AAXX  03094 06722 33/// /1001 11071 21245 38120 48470 5//// 333 553// 20338;
0149067220999992011010310004+46117+007517FM-12+182599999V0209999C000019999999N9999999N1-00811-01781999999ADDMA1999999081251MD1210061+9999ME1314779OA149900151REMSYN088AAXX  03104 06722 33/// /0000 11081 21178 38125 48477 52006 333 55308 2//// 91103 91201;
0149067220999992011010311004+46117+007517FM-12+182599999V0202801N000519999999N9999999N1-00441-02421999999ADDMA1999999081221MD1210011+9999ME1314699OA149900151REMSYN088AAXX  03114 06722 33/// /2801 11044 21242 38122 48469 52001 333 55308 2//// 91103 91201;
0191067220999992011010312004+46117+007517FM-12+182599999V0209999C000012200019N0750001N1-00601-01482999999ADDGA1001+999999999GF100991001001999999001001MA1999999081191MD1810011+9999ME1314689OA149900311REMSYN088AAXX  03124 06722 32/89 00000 11060 21148 38119 48468 58001 333 55308 2//// 91106 91204;
0149067220999992011010313004+46117+007517FM-12+182599999V0209999C000019999999N9999999N1-00421-01631999999ADDMA1999999081171MD1610081+9999ME1314639OA149900101REMSYN088AAXX  03134 06722 33/// /0000 11042 21163 38117 48463 56008 333 55308 2//// 91102 91201;
0112067220999992011010314004+46117+007517FM-12+182599999V0209999C000019999999N9999999N1-00551-01261999999ADDMA1999999081171ME1314659REMSYN076AAXX  03144 06722 33/// /0000 11055 21126 38117 48465 5//// 333 553// 2////;
0112067220999992011010315004+46117+007517FM-12+182599999V0209999C000019999999N9999999N1-00551-01781999999ADDMA1999999081181ME1314669REMSYN076AAXX  03154 06722 33/// /0000 11055 21178 38118 48466 5//// 333 553// 20428;
0149067220999992011010316004+46117+007517FM-12+182599999V0200801N000519999999N9999999N1-00641-02161999999ADDMA1999999081191MD1210021+9999ME1314689OA149900151REMSYN088AAXX  03164 06722 33/// /0801 11064 21216 38119 48468 52002 333 55300 20032 91103 91201;
0149067220999992011010317004+46117+007517FM-12+182599999V0200201N000519999999N9999999N1-00631-02661999999ADDMA1999999081181MD1010011+9999ME1314679OA149900151REMSYN088AAXX  03174 06722 33/// /0201 11063 21266 38118 48467 50001 333 55300 20000 91103 91201;
0261067220999992011010318004+46117+007517FM-12+182599999V0200701N000512200019N0750001N1-00761-02521999999ADDAJ100319199999999AL19900091GA1001+999999999GF100991001001999999001001IA1279KA1120M-00361MA1999999081211MD1210031+9999ME1314729OA149900211REMSYN112AAXX  03184 06722 32/89 00701 11076 21252 38121 48472 52003 333 11036 43031 55300 20000 90766 93100 91104 91201;
0149067220999992011010319004+46117+007517FM-12+182599999V0203501N000519999999N9999999N1-00751-02711999999ADDMA1999999081191MD1010001+9999ME1314709OA149900211REMSYN088AAXX  03194 06722 33/// /3501 11075 21271 38119 48470 50000 333 55300 20000 91104 91202;
0149067220999992011010320004+46117+007517FM-12+182599999V0200601N000519999999N9999999N1-00751-02721999999ADDMA1999999081181MD1010001+9999ME1314699OA149900261REMSYN088AAXX  03204 06722 33/// /0601 11075 21272 38118 48469 50000 333 55300 20000 91105 91202;
0149067220999992011010321004+46117+007517FM-12+182599999V0200701N000519999999N9999999N1-00701-03181999999ADDMA1999999081191MD1510021+9999ME1314699OA149900261REMSYN088AAXX  03214 06722 33/// /0701 11070 21318 38119 48469 55002 333 55300 20000 91105 91202;
0149067220999992011010322004+46117+007517FM-12+182599999V0200801N001019999999N9999999N1-00641-02781999999ADDMA1999999081171MD1710021+9999ME1314669OA149900261REMSYN088AAXX  03224 06722 33/// /0802 11064 21278 38117 48466 57002 333 55300 20000 91105 91202;
0149067220999992011010323004+46117+007517FM-12+182599999V0200701N000519999999N9999999N1-00621-02791999999ADDMA1999999081151MD1710031+9999ME1314649OA149900261REMSYN088AAXX  03234 06722 33/// /0701 11062 21279 38115 48464 57003 333 55300 20000 91105 91202;
0149067220999992011010400004+46117+007517FM-12+182599999V0203501N000519999999N9999999N1-00681-02581999999ADDMA1999999081121MD1810071+9999ME1314629OA149900261REMSYN088AAXX  04004 06722 33/// /3501 11068 21258 38112 48462 58007 333 55300 20000 91105 91202;
0149067220999992011010401004+46117+007517FM-12+182599999V0201001N001519999999N9999999N1-00601-02891999999ADDMA1999999081101MD1710071+9999ME1314599OA149900261REMSYN088AAXX  04014 06722 33/// /1003 11060 21289 38110 48459 57007 333 55300 20000 91105 91203;
0149067220999992011010402004+46117+007517FM-12+182599999V0209999C000019999999N9999999N1-00671-02691999999ADDMA1999999081041MD1719999+9999ME1314549OA149900261REMSYN088AAXX  04024 06722 33/// /0000 11067 21269 38104 48454 57/// 333 55300 20000 91105 91203;
0149067220999992011010403004+46117+007517FM-12+182599999V0203201N000519999999N9999999N1-00841-02481999999ADDMA1999999081031MD1710091+9999ME1314569OA149900261REMSYN088AAXX  04034 06722 33/// /3201 11084 21248 38103 48456 57009 333 55300 20000 91105 91203;
0149067220999992011010404004+46117+007517FM-12+182599999V0201001N001019999999N9999999N1-00771-02451999999ADDMA1999999081001MD1710101+9999ME1314529OA149900261REMSYN088AAXX  04044 06722 33/// /1002 11077 21245 38100 48452 57010 333 55300 20000 91105 91202;
0149067220999992011010405004+46117+007517FM-12+182599999V0200901N000519999999N9999999N1-00781-02461999999ADDMA1999999080981MD1710061+9999ME1314509OA149900211REMSYN088AAXX  04054 06722 33/// /0901 11078 21246 38098 48450 57006 333 55300 20000 91104 91202;
0305067220999992011010406004+46117+007517FM-12+182599999V0203501N00101063001CN0750001N1-00841-02401999999ADDAJ100319199999999AL19900091GA1061+063001021GF106991999999999999999999GJ103489IA1279IA2999-01009KA1999N-00841MA1999999080971MD1710061+9999ME1314509OA149900261REMSYN136AAXX  04064 06722 32989 63502 11084 21240 38097 48450 57006 333 21084 3/110 43031 55058 55300 20000 70000 86271 90768 93100 91105 91203;
0149067220999992011010407004+46117+007517FM-12+182599999V0203501N001019999999N9999999N1-00781-02461999999ADDMA1999999080981MD1510021+9999ME1314509OA149900261REMSYN088AAXX  04074 06722 33/// /3502 11078 21246 38098 48450 55002 333 55300 20000 91105 91202;
0149067220999992011010408004+46117+007517FM-12+182599999V0201001N001019999999N9999999N1-00881-02221999999ADDMA1999999081011MD1319999+9999ME1314549OA149900261REMSYN088AAXX  04084 06722 33/// /1002 11088 21222 38101 48454 53/// 333 55300 20014 91105 91203;
0112067220999992011010409004+46117+007517FM-12+182599999V0203301N000519999999N9999999N1-00711-02071999999ADDMA1999999081011ME1314529REMSYN076AAXX  04094 06722 33/// /3301 11071 21207 38101 48452 5//// 333 553// 20137;
0149067220999992011010410004+46117+007517FM-12+182599999V0200701N001019999999N9999999N1-00561-02021999999ADDMA1999999081031MD1210051+9999ME1314529OA149900311REMSYN088AAXX  04104 06722 33/// /0702 11056 21202 38103 48452 52005 333 55303 20655 91106 91203;
0149067220999992011010411004+46117+007517FM-12+182599999V0201101N000519999999N9999999N1-00471-01831999999ADDMA1999999080991MD1810021+9999ME1314469OA149900311REMSYN088AAXX  04114 06722 33/// /1101 11047 21183 38099 48446 58002 333 55307 2//// 91106 91203;
0197067220999992011010412004+46117+007517FM-12+182599999V0200401N00211033001CN0750001N1-00391-01621999999ADDGA1071+033001031GF107991999999999999999999MA1999999080921MD1710091+9999ME1314389OA149900311REMSYN094AAXX  04124 06722 32989 70404 11039 21162 38092 48438 57009 333 55302 2//// 87361 91106 91204;
0149067220999992011010413004+46117+007517FM-12+182599999V0200401N001019999999N9999999N1-00411-01791999999ADDMA1999999080901MD1610131+9999ME1314379OA149900311REMSYN088AAXX  04134 06722 33/// /0402 11041 21179 38090 48437 56013 333 55300 20626 91106 91204;
0112067220999992011010414004+46117+007517FM-12+182599999V0201301N001019999999N9999999N1-00371-01861999999ADDMA1999999080861ME1314329REMSYN076AAXX  04144 06722 33/// /1302 11037 21186 38086 48432 5//// 333 553// 2////;
0096067220999992011010415004+46117+007517FM-12+182599999V0200701N000519999999N9999999N1-00491-01821999999ADDMA1999999080881ME1314369REMSYN060AAXX  04154 06722 43/// /0701 11049 21182 38088 48436 5////;
0149067220999992011010416004+46117+007517FM-12+182599999V0200501N001519999999N9999999N1-00631-01891999999ADDMA1999999080891MD1510011+9999ME1314399OA149900261REMSYN088AAXX  04164 06722 33/// /0503 11063 21189 38089 48439 55001 333 55300 20029 91105 91203;
0149067220999992011010417004+46117+007517FM-12+182599999V0200201N001519999999N9999999N1-00561-02131999999ADDMA1999999080891MD1210031+9999ME1314389OA149900311REMSYN088AAXX  04174 06722 33/// /0203 11056 21213 38089 48438 52003 333 55300 20000 91106 91204;
0261067220999992011010418004+46117+007517FM-12+182599999V0200301N001512200019N0750001N1-00621-02101999999ADDAJ100319199999999AL19900091GA1001+999999999GF100991001001999999001001IA1279KA1120M-00331MA1999999080911MD1210031+9999ME1314419OA149900361REMSYN112AAXX  04184 06722 32/89 00303 11062 21210 38091 48441 52003 333 11033 43031 55300 20000 90766 93100 91107 91204;
0149067220999992011010419004+46117+007517FM-12+182599999V0200401N001519999999N9999999N1-00721-02001999999ADDMA1999999080941MD1210051+9999ME1314459OA149900411REMSYN088AAXX  04194 06722 33/// /0403 11072 21200 38094 48445 52005 333 55300 20000 91108 91205;
0149067220999992011010420004+46117+007517FM-12+182599999V0200401N000519999999N9999999N1-00611-02001999999ADDMA1999999080931MD1210041+9999ME1314439OA149900411REMSYN088AAXX  04204 06722 33/// /0401 11061 21200 38093 48443 52004 333 55300 20000 91108 91205;
0149067220999992011010421004+46117+007517FM-12+182599999V0200101N001019999999N9999999N1-00691-01981999999ADDMA1999999080911MD1010001+9999ME1314429OA149900411REMSYN088AAXX  04214 06722 33/// /0102 11069 21198 38091 48442 50000 333 55300 20000 91108 91205;
0149067220999992011010422004+46117+007517FM-12+182599999V0200301N001019999999N9999999N1-00781-02011999999ADDMA1999999080891MD1710051+9999ME1314419OA149900411REMSYN088AAXX  04224 06722 33/// /0302 11078 21201 38089 48441 57005 333 55300 20000 91108 91204;
0149067220999992011010423004+46117+007517FM-12+182599999V0200201N001519999999N9999999N1-00821-02031999999ADDMA1999999080891MD1710041+9999ME1314429OA149900411REMSYN088AAXX  04234 06722 33/// /0203 11082 21203 38089 48442 57004 333 55300 20000 91108 91204;
0149067220999992011010500004+46117+007517FM-12+182599999V0200401N002619999999N9999999N1-00771-02091999999ADDMA1999999080871MD1710041+9999ME1314399OA149900411REMSYN088AAXX  05004 06722 33/// /0405 11077 21209 38087 48439 57004 333 55300 20000 91108 91205;
0149067220999992011010501004+46117+007517FM-12+182599999V0200501N001519999999N9999999N1-00831-02081999999ADDMA1999999080851MD1710041+9999ME1314389OA149900411REMSYN088AAXX  05014 06722 33/// /0503 11083 21208 38085 48438 57004 333 55300 20000 91108 91205;
0149067220999992011010502004+46117+007517FM-12+182599999V0200501N001019999999N9999999N1-00701-02141999999ADDMA1999999080841MD1710051+9999ME1314359OA149900361REMSYN088AAXX  05024 06722 33/// /0502 11070 21214 38084 48435 57005 333 55300 20000 91107 91204;
0096067220999992011010503004+46117+007517FM-12+182599999V0200201N001519999999N9999999N1-00691-02171999999ADDMA1999999080851ME1314369REMSYN060AAXX  05034 06722 43/// /0203 11069 21217 38085 48436 5////;
0149067220999992011010504004+46117+007517FM-12+182599999V0200601N001519999999N9999999N1-00671-02201999999ADDMA1999999080821MD1810031+9999ME1314339OA149900361REMSYN088AAXX  05044 06722 33/// /0603 11067 21220 38082 48433 58003 333 55300 20000 91107 91204;
0149067220999992011010505004+46117+007517FM-12+182599999V0200301N001019999999N9999999N1-00691-02181999999ADDMA1999999080841MD1510001+9999ME1314359OA149900361REMSYN088AAXX  05054 06722 33/// /0302 11069 21218 38084 48435 55000 333 55300 20000 91107 91203;
0299067220999992011010506004+46117+007517FM-12+182599999V0200301N002112200019N0750001N1-00731-02081999999ADDAJ100319199999999AL19900091GA1001+999999999GF100991001001999999001001GJ101749IA1279IA2999-01109KA1999N-00831MA1999999080881MD1310031+9999ME1314409OA149900411REMSYN130AAXX  05064 06722 32/89 00304 11073 21208 38088 48440 53003 333 21083 3/111 43031 55029 55300 20000 70000 90768 93100 91108 91205;
0149067220999992011010507004+46117+007517FM-12+182599999V0200601N001519999999N9999999N1-00621-02101999999ADDMA1999999080901MD1210081+9999ME1314409OA149900361REMSYN088AAXX  05074 06722 33/// /0603 11062 21210 38090 48440 52008 333 55300 20000 91107 91204;
0149067220999992011010508004+46117+007517FM-12+182599999V0200901N001519999999N9999999N1-00581-02091999999ADDMA1999999080921MD1119999+9999ME1314419OA149900461REMSYN088AAXX  05084 06722 33/// /0903 11058 21209 38092 48441 51/// 333 55300 20018 91109 91206;
0149067220999992011010509004+46117+007517FM-12+182599999V0200501N001519999999N9999999N1-00401-02021999999ADDMA1999999080961MD1110081+9999ME1314429OA149900461REMSYN088AAXX  05094 06722 33/// /0503 11040 21202 38096 48442 51008 333 55302 20317 91109 91206;
0149067220999992011010510004+46117+007517FM-12+182599999V0200801N000519999999N9999999N1-00301-01821999999ADDMA1999999080971MD1210071+9999ME1314429OA149900311REMSYN088AAXX  05104 06722 33/// /0801 11030 21182 38097 48442 52007 333 55308 2//// 91106 91203;
0149067220999992011010511004+46117+007517FM-12+182599999V0201501N000519999999N9999999N1-00241-01841999999ADDMA1999999080931MD1010011+9999ME1314379OA149900211REMSYN088AAXX  05114 06722 33/// /1501 11024 21184 38093 48437 50001 333 55308 2//// 91104 91202;
0144067220999992011010512004+46117+007517FM-12+182599999V0200701N000512200019N0750001N1-00091-01801999999ADDGF102991999999999999999999MA1999999080841ME1314269REMSYN082AAXX  05124 06722 32989 20701 11009 21180 38084 48426 5//// 333 553// 2//// 82077;
0149067220999992011010513004+46117+007517FM-12+182599999V0201601N000519999999N9999999N1-00341-01461999999ADDMA1999999080851MD1710121+9999ME1314319OA149900311REMSYN088AAXX  05134 06722 33/// /1601 11034 21146 38085 48431 57012 333 55308 2//// 91106 91204;
0096067220999992011010514004+46117+007517FM-12+182599999V0201301N001519999999N9999999N1-00231-01521999999ADDMA1999999080901ME1314349REMSYN060AAXX  05144 06722 43/// /1303 11023 21152 38090 48434 5////;
0096067220999992011010515004+46117+007517FM-12+182599999V0201101N001519999999N9999999N1-00201-01511999999ADDMA1999999080871ME1314319REMSYN060AAXX  05154 06722 43/// /1103 11020 21151 38087 48431 5////;
0149067220999992011010516004+46117+007517FM-12+182599999V0200301N002119999999N9999999N1-00241-01711999999ADDMA1999999080881MD1010031+9999ME1314329OA149900411REMSYN088AAXX  05164 06722 33/// /0304 11024 21171 38088 48432 50003 333 55300 20054 91108 91205;
0149067220999992011010517004+46117+007517FM-12+182599999V0203301N001519999999N9999999N1-00361-01681999999ADDMA1999999080911MD1310011+9999ME1314379OA149900411REMSYN088AAXX  05174 06722 33/// /3303 11036 21168 38091 48437 53001 333 55300 20000 91108 91205;
0261067220999992011010518004+46117+007517FM-12+182599999V0200801N001512200019N0750001N1-00291-01731999999ADDAJ100309199999999AL19900091GA1001+999999999GF100991001001999999001001IA1279KA1120M-00091MA1999999080921MD1219999+9999ME1314379OA149900461REMSYN112AAXX  05184 06722 32/89 00803 11029 21173 38092 48437 52/// 333 11009 43030 55300 20000 90766 93100 91109 91206;
0149067220999992011010519004+46117+007517FM-12+182599999V0209999C001519999999N9999999N1-00371-01631999999ADDMA1999999080881MD1010001+9999ME1314349OA149900411REMSYN088AAXX  05194 06722 33/// /0003 11037 21163 38088 48434 50000 333 55300 20000 91108 91204;
0149067220999992011010520004+46117+007517FM-12+182599999V0200701N000519999999N9999999N1-00411-01611999999ADDMA1999999080901MD1519999+9999ME1314379OA149900361REMSYN088AAXX  05204 06722 33/// /0701 11041 21161 38090 48437 55/// 333 55300 20000 91107 91204;
0112067220999992011010521004+46117+007517FM-12+182599999V0200501N001019999999N9999999N1-00341-01571999999ADDMA1999999080891ME1314359REMSYN076AAXX  05214 06722 33/// /0502 11034 21157 38089 48435 5//// 333 553// 20000;
0149067220999992011010522004+46117+007517FM-12+182599999V0200801N001519999999N9999999N1-00221-01571999999ADDMA1999999080881MD1010001+9999ME1314329OA149900461REMSYN088AAXX  05224 06722 33/// /0803 11022 21157 38088 48432 50000 333 55300 20000 91109 91205;
0149067220999992011010523004+46117+007517FM-12+182599999V0200501N001519999999N9999999N1-00271-01431999999ADDMA1999999080901MD1019999+9999ME1314359OA149900461REMSYN088AAXX  05234 06722 33/// /0503 11027 21143 38090 48435 50/// 333 55300 20000 91109 91205;
0096067220999992011010600004+46117+007517FM-12+182599999V0201001N001519999999N9999999N1-00141-01381999999ADDMA1999999080861ME1314299REMSYN060AAXX  06004 06722 43/// /1003 11014 21138 38086 48429 5////;
0096067220999992011010601004+46117+007517FM-12+182599999V0203301N001019999999N9999999N1-00161-01231999999ADDMA1999999080831ME1314269REMSYN060AAXX  06014 06722 43/// /3302 11016 21123 38083 48426 5////;
0096067220999992011010602004+46117+007517FM-12+182599999V0200801N001019999999N9999999N1-00111-01231999999ADDMA1999999080831ME1314259REMSYN060AAXX  06024 06722 43/// /0802 11011 21123 38083 48425 5////;
0096067220999992011010603004+46117+007517FM-12+182599999V0203501N001019999999N9999999N1-00191-01141999999ADDMA1999999080811ME1314249REMSYN060AAXX  06034 06722 43/// /3502 11019 21114 38081 48424 5////;
0096067220999992011010604004+46117+007517FM-12+182599999V0200701N001019999999N9999999N1-00101-01141999999ADDMA1999999080871ME1314299REMSYN060AAXX  06044 06722 43/// /0702 11010 21114 38087 48429 5////;
0096067220999992011010605004+46117+007517FM-12+182599999V0201001N001519999999N9999999N1-00171-00981999999ADDMA1999999080861ME1314299REMSYN060AAXX  06054 06722 43/// /1003 11017 21098 38086 48429 5////;
0250067220999992011010606004+46117+007517FM-12+182599999V0203401N001010330019N0750001N1-00281-01211999999ADDAJ100309199999999AL10600091GA1081+033001041GF108991999999999999999999GJ103489IA1279IA2999-00709KA1999N-00411MA1999999080851ME1314309REMSYN106AAXX  06064 06722 42989 83402 11028 21121 38085 48430 5//// 333 21041 3/107 43030 55058 88461 90768 93100;
0096067220999992011010607004+46117+007517FM-12+182599999V0201101N001519999999N9999999N1-00281-01151999999ADDMA1999999080891ME1314349REMSYN060AAXX  06074 06722 43/// /1103 11028 21115 38089 48434 5////;
0112067220999992011010608004+46117+007517FM-12+182599999V0200401N000519999999N9999999N1-00251-01221999999ADDMA1999999080871ME1314319REMSYN076AAXX  06084 06722 33/// /0401 11025 21122 38087 48431 5//// 333 553// 20050;
0096067220999992011010609004+46117+007517FM-12+182599999V0200901N001019999999N9999999N1-00201-01051999999ADDMA1999999080921ME1314369REMSYN060AAXX  06094 06722 43/// /0902 11020 21105 38092 48436 5////;
0149067220999992011010610004+46117+007517FM-12+182599999V0203201N000519999999N9999999N1-00081-01011999999ADDMA1999999080951MD1210061+9999ME1314379OA149900211REMSYN088AAXX  06104 06722 33/// /3201 11008 21101 38095 48437 52006 333 55307 2//// 91104 91202;
0149067220999992011010611004+46117+007517FM-12+182599999V0209999C000519999999N9999999N1+00071-01051999999ADDMA1999999080961MD1210091+9999ME1314369OA149900211REMSYN088AAXX  06114 06722 33/// /0001 10007 21105 38096 48436 52009 333 55305 2//// 91104 91202;
0225067220999992011010612004+46117+007517FM-12+182599999V0209999C00001021001CN0250001N1+00011-00831999999ADDAY121061AY221061GA1061+021001041GF108991999999022501999999MA1999999080911MD1810011+9999ME1314319MW1151OA149900361REMSYN100AAXX  06124 06722 31875 80000 10001 21083 38091 48431 58001 71522 333 553// 2//// 86457 91107 91204;
0149067220999992011010613004+46117+007517FM-12+182599999V0200501N000519999999N9999999N1+00011-00891999999ADDMA1999999080891MD1710061+9999ME1314299OA149900211REMSYN088AAXX  06134 06722 33/// /0501 10001 21089 38089 48429 57006 333 55300 20864 91104 91201;
0096067220999992011010614004+46117+007517FM-12+182599999V0209999C000019999999N9999999N1+00061-00721999999ADDMA1999999080921ME1314329REMSYN060AAXX  06144 06722 43/// /0000 10006 21072 38092 48432 5////;
0096067220999992011010615004+46117+007517FM-12+182599999V0201401N000519999999N9999999N1+00031-00731999999ADDMA1999999080991ME1314399REMSYN060AAXX  06154 06722 43/// /1401 10003 21073 38099 48439 5////;
0149067220999992011010616004+46117+007517FM-12+182599999V0200501N001019999999N9999999N1+00121-00561999999ADDMA1999999080991MD1210101+9999ME1314389OA149900261REMSYN088AAXX  06164 06722 33/// /0502 10012 21056 38099 48438 52010 333 55300 20058 91105 91203;
0149067220999992011010617004+46117+007517FM-12+182599999V0201501N001019999999N9999999N1-00101-00701999999ADDMA1999999081031MD1210111+9999ME1314459OA149900361REMSYN088AAXX  06174 06722 33/// /1502 11010 21070 38103 48445 52011 333 55300 20000 91107 91204;
0295067220999992011010618004+46117+007517FM-12+182599999V0209999C00001011701CN0060001N1-00111-00651999999ADDAJ100309199999999AL19900091AY181061AY271061GA1081+011701051GF108991999999012501999999IA1279KA1120M+00141MA1999999081031MD1210041+9999ME1314459MW1851OA149900361REMSYN124AAXX  06184 06722 31656 80000 11011 21065 38103 48445 52004 78587 333 10014 43030 55300 20000 88539 90766 93100 91107 91204;
0149067220999992011010619004+46117+007517FM-12+182599999V0209999C000019999999N9999999N1-00041-00501999999ADDMA1999999081051MD1210061+9999ME1314469OA149900211REMSYN088AAXX  06194 06722 33/// /0000 11004 21050 38105 48446 52006 333 55300 20000 91104 91202;
0149067220999992011010620004+46117+007517FM-12+182599999V0200801N000519999999N9999999N1-00041-00471999999ADDMA1999999081091MD1219999+9999ME1314509OA149900211REMSYN088AAXX  06204 06722 33/// /0801 11004 21047 38109 48450 52/// 333 55300 20000 91104 91203;
0149067220999992011010621004+46117+007517FM-12+182599999V0201001N001019999999N9999999N1+00041-00311999999ADDMA1999999081111MD1219999+9999ME1314519OA149900361REMSYN088AAXX  06214 06722 33/// /1002 10004 21031 38111 48451 52/// 333 55300 20000 91107 91204;
0149067220999992011010622004+46117+007517FM-12+182599999V0200601N000519999999N9999999N1+00071-00241999999ADDMA1999999081171MD1210121+9999ME1314579OA149900151REMSYN088AAXX  06224 06722 33/// /0601 10007 21024 38117 48457 52012 333 55300 20000 91103 91202;
0112067220999992011010623004+46117+007517FM-12+182599999V0203301N001519999999N9999999N1+00111-00191999999ADDMA1999999081191ME1314589REMSYN076AAXX  06234 06722 33/// /3303 10011 21019 38119 48458 5//// 333 553// 20000;
0096067220999992011010700004+46117+007517FM-12+182599999V0201001N001519999999N9999999N1+00111-00121999999ADDMA1999999081231ME1314629REMSYN060AAXX  07004 06722 43/// /1003 10011 21012 38123 48462 5////;
0096067220999992011010701004+46117+007517FM-12+182599999V0203201N001519999999N9999999N1+00071-00161999999ADDMA1999999081211ME1314619REMSYN060AAXX  07014 06722 43/// /3203 10007 21016 38121 48461 5////;
0096067220999992011010702004+46117+007517FM-12+182599999V0201301N001019999999N9999999N1+00051-00171999999ADDMA1999999081301ME1314709REMSYN060AAXX  07024 06722 43/// /1302 10005 21017 38130 48470 5////;
0096067220999992011010703004+46117+007517FM-12+182599999V0202701N000519999999N9999999N1+00081-00101999999ADDMA1999999081271ME1314669REMSYN060AAXX  07034 06722 43/// /2701 10008 21010 38127 48466 5////;
0149067220999992011010704004+46117+007517FM-12+182599999V0203301N000519999999N9999999N1+00131-00041999999ADDMA1999999081281MD1210071+9999ME1314679OA149900311REMSYN088AAXX  07044 06722 33/// /3301 10013 21004 38128 48467 52007 333 55300 20000 91106 91203;
0149067220999992011010705004+46117+007517FM-12+182599999V0201101N000519999999N9999999N1+00181+00001999999ADDMA1999999081301MD1510001+9999ME1314689OA149900311REMSYN088AAXX  07054 06722 33/// /1101 10018 20000 38130 48468 55000 333 55300 20000 91106 91203;
0333067220999992011010706004+46117+007517FM-12+182599999V0200101N00051021001CN0700001N1+00151-00061999999ADDAJ100309199999999AL19900091AY181061AY271061GA1061+021001041GF106991999999022501999999GJ101569IA1279IA2999-00109KA1999N-00171MA1999999081291MD1010021+9999ME1314679MW1021OA149900411REMSYN142AAXX  07064 06722 31888 60101 10015 21006 38129 48467 50002 70287 333 21017 3/101 43030 55026 55300 20000 70000 86457 90768 93100 91108 91204;
0149067220999992011010707004+46117+007517FM-12+182599999V0203501N001019999999N9999999N1+00151-00091999999ADDMA1999999081281MD1510001+9999ME1314669OA149900211REMSYN088AAXX  07074 06722 33/// /3502 10015 21009 38128 48466 55000 333 55300 20000 91104 91202;
0118067220999992011010708004+46117+007517FM-12+182599999V0200801N000519999999N9999999N1+00231-00031999999ADDMA1999999081341ME1314719REMSYN082AAXX  07084 06722 23/// /0801 10023 21003 38134 48471 5//// 333 553// 20040 69915;
0096067220999992011010709004+46117+007517FM-12+182599999V0203201N001019999999N9999999N1+00161-00041999999ADDMA1999999081341ME1314729REMSYN060AAXX  07094 06722 43/// /3202 10016 21004 38134 48472 5////;
0149067220999992011010710004+46117+007517FM-12+182599999V0201401N000519999999N9999999N1+00331+00041999999ADDMA1999999081341MD1210061+9999ME1314709OA149900211REMSYN088AAXX  07104 06722 33/// /1401 10033 20004 38134 48470 52006 333 55300 20742 91104 91202;
0149067220999992011010711004+46117+007517FM-12+182599999V0200601N000519999999N9999999N1+00381+00031999999ADDMA1999999081351MD1010011+9999ME1314709OA149900211REMSYN088AAXX  07114 06722 33/// /0601 10038 20003 38135 48470 50001 333 55302 2//// 91104 91202;
0261067220999992011010712004+46117+007517FM-12+182599999V0203001N00101081001CN0700001N1+00391+00051999999ADDAA106000091GA1021+018001061GA2061+081001001GF106991999999017501999999MA1999999081321MD1810021+9999ME1314679OA149900411REMSYN112AAXX  07124 06722 02788 63002 10039 20005 38132 48467 58002 69911 333 553// 2//// 60005 82656 86077 91108 91204;EQDQ01  00002PRCP06
0149067220999992011010713004+46117+007517FM-12+182599999V0209999C000019999999N9999999N1+00281+00021999999ADDMA1999999081301MD1710041+9999ME1314679OA149900361REMSYN088AAXX  07134 06722 33/// /0000 10028 20002 38130 48467 57004 333 55308 2//// 91107 91203;
0096067220999992011010714004+46117+007517FM-12+182599999V0209999C000019999999N9999999N1+00251+00051999999ADDMA1999999081341ME1314719REMSYN060AAXX  07144 06722 43/// /0000 10025 20005 38134 48471 5////;
0096067220999992011010715004+46117+007517FM-12+182599999V0203301N000519999999N9999999N1+00321+00011999999ADDMA1999999081361ME1314729REMSYN060AAXX  07154 06722 43/// /3301 10032 20001 38136 48472 5////;
0149067220999992011010716004+46117+007517FM-12+182599999V0200301N001019999999N9999999N1+00311-00131999999ADDMA1999999081411MD1210111+9999ME1314779OA149900361REMSYN088AAXX  07164 06722 33/// /0302 10031 21013 38141 48477 52011 333 55300 20072 91107 91202;
0149067220999992011010717004+46117+007517FM-12+182599999V0209999C000019999999N9999999N1+00251-00081999999ADDMA1999999081381MD1210041+9999ME1314759OA149900411REMSYN088AAXX  07174 06722 33/// /0000 10025 21008 38138 48475 52004 333 55300 20000 91108 91203;
0262067220999992011010718004+46117+007517FM-12+182599999V0201601N00051018001CN0500001N1+00281-00171999999ADDAA112000091AJ100289199999999GA1061+018001061GF106991999999017501999999IA1279KA1120M+00491MA1999999081381ME1314759REMSYN118AAXX  07184 06722 02784 61601 10028 21017 38138 48475 5//// 69912 333 10049 43028 553// 20000 60005 86656 90766 93100;EQDQ01  00002PRCP12
0149067220999992011010719004+46117+007517FM-12+182599999V0203501N001019999999N9999999N1+00191-00131999999ADDMA1999999081361MD1719999+9999ME1314749OA149900411REMSYN088AAXX  07194 06722 33/// /3502 10019 21013 38136 48474 57/// 333 55300 20000 91108 91203;
0096067220999992011010720004+46117+007517FM-12+182599999V0203501N000519999999N9999999N1+00081-00101999999ADDMA1999999081361ME1314759REMSYN060AAXX  07204 06722 43/// /3501 10008 21010 38136 48475 5////;
0096067220999992011010721004+46117+007517FM-12+182599999V0203201N000519999999N9999999N1+00101-00181999999ADDMA1999999081331ME1314729REMSYN060AAXX  07214 06722 43/// /3201 10010 21018 38133 48472 5////;
0149067220999992011010722004+46117+007517FM-12+182599999V0200101N000519999999N9999999N1+00071-00221999999ADDMA1999999081361MD1410001+9999ME1314769OA149900361REMSYN088AAXX  07224 06722 33/// /0101 10007 21022 38136 48476 52000 333 55300 20000 91107 91202;
0112067220999992011010723004+46117+007517FM-12+182599999V0200101N001019999999N9999999N1+00181-00271999999ADDMA1999999081371ME1314759REMSYN076AAXX  07234 06722 33/// /0102 10018 21027 38137 48475 5//// 333 553// 20000;
0112067220999992011010800004+46117+007517FM-12+182599999V0201101N001019999999N9999999N1+00131-00281999999ADDMA1999999081391ME1314789REMSYN076AAXX  08004 06722 33/// /1102 10013 21028 38139 48478 5//// 333 553// 20000;
0096067220999992011010801004+46117+007517FM-12+182599999V0209999C000019999999N9999999N1+00201-00321999999ADDMA1999999081331ME1314719REMSYN060AAXX  08014 06722 43/// /0000 10020 21032 38133 48471 5////;
0096067220999992011010802004+46117+007517FM-12+182599999V0209999C000019999999N9999999N1+00091-00281999999ADDMA1999999081371ME1314769REMSYN060AAXX  08024 06722 43/// /0000 10009 21028 38137 48476 5////;
0096067220999992011010803004+46117+007517FM-12+182599999V0200601N000519999999N9999999N1+00171-00331999999ADDMA1999999081381ME1314769REMSYN060AAXX  08034 06722 43/// /0601 10017 21033 38138 48476 5////;
0096067220999992011010804004+46117+007517FM-12+182599999V0203101N001519999999N9999999N1+00091-00331999999ADDMA1999999081331ME1314729REMSYN060AAXX  08044 06722 43/// /3103 10009 21033 38133 48472 5////;
0096067220999992011010805004+46117+007517FM-12+182599999V0203201N001519999999N9999999N1+00091-00331999999ADDMA1999999081371ME1314769REMSYN060AAXX  08054 06722 43/// /3203 10009 21033 38137 48476 5////;
0250067220999992011010806004+46117+007517FM-12+182599999V0202301N000510150019N0300001N1-00041-00251999999ADDAJ100289199999999AL10600091GA1081+015001061GF108991999999017501999999GJ101509IA1279IA2999+00009KA1999N+00001MA1999999081441ME1314859REMSYN106AAXX  08064 06722 42780 82301 11004 21025 38144 48485 5//// 333 20000 3/100 43028 55025 88650 90768 93100;
0096067220999992011010807004+46117+007517FM-12+182599999V0201301N000519999999N9999999N1-00011-00261999999ADDMA1999999081371ME1314789REMSYN060AAXX  08074 06722 43/// /1301 11001 21026 38137 48478 5////;
0112067220999992011010808004+46117+007517FM-12+182599999V0200901N001019999999N9999999N1-00061-00311999999ADDMA1999999081431ME1314849REMSYN076AAXX  08084 06722 33/// /0902 11006 21031 38143 48484 5//// 333 553// 20054;
0096067220999992011010809004+46117+007517FM-12+182599999V0200801N001019999999N9999999N1+00031-00271999999ADDMA1999999081481ME1314889REMSYN060AAXX  08094 06722 43/// /0802 10003 21027 38148 48488 5////;
0096067220999992011010810004+46117+007517FM-12+182599999V0202801N001019999999N9999999N1+00051-00221999999ADDMA1999999081491ME1314899REMSYN060AAXX  08104 06722 43/// /2802 10005 21022 38149 48489 5////;
0096067220999992011010811004+46117+007517FM-12+182599999V0203201N000519999999N9999999N1+00171-00161999999ADDMA1999999081471ME1314859REMSYN060AAXX  08114 06722 43/// /3201 10017 21016 38147 48485 5////;
0154067220999992011010812004+46117+007517FM-12+182599999V0201101N000519999999N0750001N1+00191-00181999999ADDGA1011+018001081GF105991999999017501999999MA1999999081451ME1314839REMSYN076AAXX  08124 06722 42789 51101 10019 21018 38145 48483 5//// 333 81856 85271;
0096067220999992011010813004+46117+007517FM-12+182599999V0209999C000019999999N9999999N1+00251-00201999999ADDMA1999999081421ME1314799REMSYN060AAXX  08134 06722 43/// /0000 10025 21020 38142 48479 5////;
0096067220999992011010814004+46117+007517FM-12+182599999V0201401N000519999999N9999999N1+00281-00271999999ADDMA1999999081401ME1314779REMSYN060AAXX  08144 06722 43/// /1401 10028 21027 38140 48477 5////;
0096067220999992011010815004+46117+007517FM-12+182599999V0203401N001019999999N9999999N1+00271-00421999999ADDMA1999999081421ME1314799REMSYN060AAXX  08154 06722 43/// /3402 10027 21042 38142 48479 5////;
0096067220999992011010816004+46117+007517FM-12+182599999V0200301N001519999999N9999999N1+00181-00431999999ADDMA1999999081421ME1314809REMSYN060AAXX  08164 06722 43/// /0303 10018 21043 38142 48480 5////;
0096067220999992011010817004+46117+007517FM-12+182599999V0200401N001019999999N9999999N1+00211-00451999999ADDMA1999999081401ME1314789REMSYN060AAXX  08174 06722 43/// /0402 10021 21045 38140 48478 5////;
0199067220999992011010818004+46117+007517FM-12+182599999V0203601N001010630019N0750001N1+00101-00441999999ADDAJ100259199999999AL10600091GA1071+063001021GF107991999999999999999999IA1279MA1999999081401ME1314799REMSYN088AAXX  08184 06722 42989 73602 10010 21044 38140 48479 5//// 333 43025 87271 90766 93100;
0096067220999992011010819004+46117+007517FM-12+182599999V0200601N001519999999N9999999N1+00081-00471999999ADDMA1999999081411ME1314809REMSYN060AAXX  08194 06722 43/// /0603 10008 21047 38141 48480 5////;
0096067220999992011010820004+46117+007517FM-12+182599999V0203501N001519999999N9999999N1+00081-00431999999ADDMA1999999081421ME1314819REMSYN060AAXX  08204 06722 43/// /3503 10008 21043 38142 48481 5////;
0096067220999992011010821004+46117+007517FM-12+182599999V0203601N000519999999N9999999N1+00051-00481999999ADDMA1999999081401ME1314809REMSYN060AAXX  08214 06722 43/// /3601 10005 21048 38140 48480 5////;
0096067220999992011010822004+46117+007517FM-12+182599999V0200901N001519999999N9999999N1+00001-00501999999ADDMA1999999081451ME1314859REMSYN060AAXX  08224 06722 43/// /0903 10000 21050 38145 48485 5////;
0096067220999992011010823004+46117+007517FM-12+182599999V0200301N001019999999N9999999N1+00051-00621999999ADDMA1999999081401ME1314809REMSYN060AAXX  08234 06722 43/// /0302 10005 21062 38140 48480 5////;
0096067220999992011010900004+46117+007517FM-12+182599999V0200401N001019999999N9999999N1+00001-00601999999ADDMA1999999081431ME1314839REMSYN060AAXX  09004 06722 43/// /0402 10000 21060 38143 48483 5////;
0096067220999992011010901004+46117+007517FM-12+182599999V0203301N000519999999N9999999N1-00051-00671999999ADDMA1999999081391ME1314809REMSYN060AAXX  09014 06722 43/// /3301 11005 21067 38139 48480 5////;
0096067220999992011010902004+46117+007517FM-12+182599999V0200501N000519999999N9999999N1-00061-00691999999ADDMA1999999081361ME1314779REMSYN060AAXX  09024 06722 43/// /0501 11006 21069 38136 48477 5////;
0096067220999992011010903004+46117+007517FM-12+182599999V0200101N000519999999N9999999N1-00041-00611999999ADDMA1999999081311ME1314729REMSYN060AAXX  09034 06722 43/// /0101 11004 21061 38131 48472 5////;
0096067220999992011010904004+46117+007517FM-12+182599999V0200901N001519999999N9999999N1-00021-00621999999ADDMA1999999081331ME1314749REMSYN060AAXX  09044 06722 43/// /0903 11002 21062 38133 48474 5////;
0096067220999992011010905004+46117+007517FM-12+182599999V0203301N000519999999N9999999N1+00011-00651999999ADDMA1999999081271ME1314679REMSYN060AAXX  09054 06722 43/// /3301 10001 21065 38127 48467 5////;
0213067220999992011010906004+46117+007517FM-12+182599999V0203101N001012200019N0750001N1-00061-00611999999ADDAJ100259199999999AL10600091GA1021+018001061GF102991999999017501999999GJ103369IA1279MA1999999081271ME1314689REMSYN094AAXX  09064 06722 42789 23102 11006 21061 38127 48468 5//// 333 43025 55056 82656 90768 93100;
0096067220999992011010907004+46117+007517FM-12+182599999V0203601N001019999999N9999999N1-00091-00561999999ADDMA1999999081321ME1314749REMSYN060AAXX  09074 06722 43/// /3602 11009 21056 38132 48474 5////;
0112067220999992011010908004+46117+007517FM-12+182599999V0200501N001019999999N9999999N1-00011-00581999999ADDMA1999999081341ME1314759REMSYN076AAXX  09084 06722 33/// /0502 11001 21058 38134 48475 5//// 333 553// 20029;
0112067220999992011010909004+46117+007517FM-12+182599999V0202801N001019999999N9999999N1+00031-00531999999ADDMA1999999081341ME1314749REMSYN076AAXX  09094 06722 33/// /2802 10003 21053 38134 48474 5//// 333 553// 20338;
0149067220999992011010910004+46117+007517FM-12+182599999V0202901N001019999999N9999999N1+00041-00501999999ADDMA1999999081371MD1210051+9999ME1314779OA149900261REMSYN088AAXX  09104 06722 33/// /2902 10004 21050 38137 48477 52005 333 55300 20558 91105 91202;
0149067220999992011010911004+46117+007517FM-12+182599999V0200201N000519999999N9999999N1+00111-00411999999ADDMA1999999081361MD1210021+9999ME1314759OA149900261REMSYN088AAXX  09114 06722 33/// /0201 10011 21041 38136 48475 52002 333 55300 20742 91105 91202;
0197067220999992011010912004+46117+007517FM-12+182599999V0209999C00001015001CN0250001N1+00091-00481999999ADDGA1081+015001061GF108991999999017501999999MA1999999081301MD1810041+9999ME1314699OA149900461REMSYN094AAXX  09124 06722 32775 80000 10009 21048 38130 48469 58004 333 55300 20796 88650 91109 91204;
0149067220999992011010913004+46117+007517FM-12+182599999V0202901N001019999999N9999999N1+00131-00451999999ADDMA1999999081261MD1810111+9999ME1314659OA149900261REMSYN088AAXX  09134 06722 33/// /2902 10013 21045 38126 48465 58011 333 55300 20824 91105 91202;
0096067220999992011010914004+46117+007517FM-12+182599999V0200101N000519999999N9999999N1+00101-00371999999ADDMA1999999081271ME1314669REMSYN060AAXX  09144 06722 43/// /0101 10010 21037 38127 48466 5////;
0096067220999992011010915004+46117+007517FM-12+182599999V0203201N001019999999N9999999N1+00111-00421999999ADDMA1999999081281ME1314679REMSYN060AAXX  09154 06722 43/// /3202 10011 21042 38128 48467 5////;
0149067220999992011010916004+46117+007517FM-12+182599999V0203401N000519999999N9999999N1+00061-00451999999ADDMA1999999081301MD1210041+9999ME1314709OA149900261REMSYN088AAXX  09164 06722 33/// /3401 10006 21045 38130 48470 52004 333 55300 20086 91105 91202;
0149067220999992011010917004+46117+007517FM-12+182599999V0200801N001019999999N9999999N1+00021-00431999999ADDMA1999999081331MD1210061+9999ME1314739OA149900261REMSYN088AAXX  09174 06722 33/// /0802 10002 21043 38133 48473 52006 333 55300 20000 91105 91202;
0295067220999992011010918004+46117+007517FM-12+182599999V0200201N00101021001CN0300001N1-00021-00401999999ADDAJ100249199999999AL19900091AY121061AY221061GA1081+021001041GF108991999999022501999999IA1279KA1120M+00181MA1999999081321MD1210041+9999ME1314739MW1151OA149900461REMSYN124AAXX  09184 06722 31880 80202 11002 21040 38132 48473 52004 71522 333 10018 43024 55300 20000 88457 90766 93100 91109 91203;
0149067220999992011010919004+46117+007517FM-12+182599999V0202901N000519999999N9999999N1-00091-00351999999ADDMA1999999081381MD1210081+9999ME1314809OA149900211REMSYN088AAXX  09194 06722 33/// /2901 11009 21035 38138 48480 52008 333 55300 20000 91104 91202;
0149067220999992011010920004+46117+007517FM-12+182599999V0201101N001019999999N9999999N1-00141-00241999999ADDMA1999999081401MD1310071+9999ME1314829OA149900211REMSYN088AAXX  09204 06722 33/// /1102 11014 21024 38140 48482 53007 333 55300 20000 91104 91202;
0149067220999992011010921004+46117+007517FM-12+182599999V0209999C000019999999N9999999N1-00161-00251999999ADDMA1999999081391MD1010071+9999ME1314829OA149900261REMSYN088AAXX  09214 06722 33/// /0000 11016 21025 38139 48482 50007 333 55300 20000 91105 91202;
0155067220999992011010922004+46117+007517FM-12+182599999V0201601N001519999999N9999999N1-00201-00201999999ADDMA1999999081441MD1210061+9999ME1314879OA149900211REMSYN094AAXX  09224 06722 23/// /1603 11020 21020 38144 48487 52006 333 55300 20000 69915 91104 91203;
0155067220999992011010923004+46117+007517FM-12+182599999V0202901N000519999999N9999999N1-00181-00241999999ADDMA1999999081421MD1210021+9999ME1314859OA149900211REMSYN094AAXX  09234 06722 23/// /2901 11018 21024 38142 48485 52002 333 55300 20000 69975 91104 91203;
0172067220999992011011000004+46117+007517FM-12+182599999V0209999C000019999999N9999999N1-00181-00261999999ADDAA106001091MA1999999081431MD1210041+9999ME1314869OA149900261REMSYN100AAXX  10004 06722 03/// /0000 11018 21026 38143 48486 52004 60011 333 55300 20000 69935 91105 91203;
0155067220999992011011001004+46117+007517FM-12+182599999V0209999C000019999999N9999999N1-00151-00231999999ADDMA1999999081441MD1510001+9999ME1314869OA149900151REMSYN094AAXX  10014 06722 23/// /0000 11015 21023 38144 48486 55000 333 55300 20000 69915 91103 91201;
0118067220999992011011002004+46117+007517FM-12+182599999V0209999C000019999999N9999999N1-00141-00281999999ADDMA1999999081451ME1314879REMSYN082AAXX  10024 06722 23/// /0000 11014 21028 38145 48487 5//// 333 553// 20000 69925;
0096067220999992011011003004+46117+007517FM-12+182599999V0209999C000019999999N9999999N1-00181-00371999999ADDMA1999999081431ME1314869REMSYN060AAXX  10034 06722 43/// /0000 11018 21037 38143 48486 5////;
0112067220999992011011004004+46117+007517FM-12+182599999V0209999C000019999999N9999999N1-00191-00351999999ADDMA1999999081421ME1314859REMSYN076AAXX  10044 06722 33/// /0000 11019 21035 38142 48485 5//// 333 553// 20000;
0149067220999992011011005004+46117+007517FM-12+182599999V0200701N001019999999N9999999N1-00221-00431999999ADDMA1999999081391MD1719999+9999ME1314829OA149900151REMSYN088AAXX  10054 06722 33/// /0702 11022 21043 38139 48482 57/// 333 55300 20000 91103 91202;
0295067220999992011011006004+46117+007517FM-12+182599999V0201401N001010180019N0200001N1-00261-00341999999ADDAA124001591AJ100269199999999AL13000191AY171061AY241061GA1081+018001061GF108991999999017501999999GJ100009IA1239IA2999-00509KA1999N-00241MA1999999081421ME1314869MW1401REMSYN118AAXX  10064 06722 41770 81402 11026 21034 38142 48486 5//// 74074 333 21024 3/105 47026 55000 70015 88656 90768 93102;
0149067220999992011011007004+46117+007517FM-12+182599999V0203201N001519999999N9999999N1-00211-00311999999ADDMA1999999081431MD1310011+9999ME1314869OA149900261REMSYN088AAXX  10074 06722 33/// /3203 11021 21031 38143 48486 53001 333 55300 20000 91105 91204;
0096067220999992011011008004+46117+007517FM-12+182599999V0201201N001019999999N9999999N1-00211-00321999999ADDMA1999999081461ME1314899REMSYN060AAXX  10084 06722 43/// /1202 11021 21032 38146 48489 5////;
0096067220999992011011009004+46117+007517FM-12+182599999V0200601N001019999999N9999999N1-00051-00411999999ADDMA1999999081461ME1314879REMSYN060AAXX  10094 06722 43/// /0602 11005 21041 38146 48487 5////;
0149067220999992011011010004+46117+007517FM-12+182599999V0202901N001019999999N9999999N1-00271-00291999999ADDMA1999999081451MD1010021+9999ME1314899OA149900151REMSYN088AAXX  10104 06722 33/// /2902 11027 21029 38145 48489 50002 333 55300 20457 91103 91202;
0149067220999992011011011004+46117+007517FM-12+182599999V0201901N001019999999N9999999N1-00281-00281999999ADDMA1999999081461MD1519999+9999ME1314909OA149900151REMSYN088AAXX  10114 06722 33/// /1902 11028 21028 38146 48490 55/// 333 55300 20569 91103 91202;
0194067220999992011011012004+46117+007517FM-12+182599999V0202901N000519999999N0200001N1-00141-00251999999ADDAY141061AY221061GA1041+000901061GF107991999999000751999999MA1999999081421ME1314849MW1281REMSYN094AAXX  10124 06722 31170 72901 11014 21025 38142 48484 5//// 72842 333 553// 20954 84603 87356;
0096067220999992011011013004+46117+007517FM-12+182599999V0203101N000519999999N9999999N1-00181-00181999999ADDMA1999999081361ME1314799REMSYN060AAXX  10134 06722 43/// /3101 11018 21018 38136 48479 5////;
0096067220999992011011014004+46117+007517FM-12+182599999V0201401N001019999999N9999999N1-00141-00181999999ADDMA1999999081351ME1314779REMSYN060AAXX  10144 06722 43/// /1402 11014 21018 38135 48477 5////;
0096067220999992011011015004+46117+007517FM-12+182599999V0201301N000519999999N9999999N1-00071-00291999999ADDMA1999999081331ME1314749REMSYN060AAXX  10154 06722 43/// /1301 11007 21029 38133 48474 5////;
0096067220999992011011016004+46117+007517FM-12+182599999V0201101N001019999999N9999999N1-00101-00441999999ADDMA1999999081331ME1314759REMSYN060AAXX  10164 06722 43/// /1102 11010 21044 38133 48475 5////;
0096067220999992011011017004+46117+007517FM-12+182599999V0200201N001019999999N9999999N1-00181-00581999999ADDMA1999999081311ME1314749REMSYN060AAXX  10174 06722 43/// /0202 11018 21058 38131 48474 5////;
0240067220999992011011018004+46117+007517FM-12+182599999V0200701N001012200019N0750001N1-00181-00691999999ADDAJ100249199999999AL10600091AY141061AY211061GA1001+999999999GF100991001001999999001001IA1279KA1120M-00031MA1999999081311ME1314749MW1011REMSYN094AAXX  10184 06722 41/89 00702 11018 21069 38131 48474 5//// 70141 333 11003 43024 90766 93100;
0096067220999992011011019004+46117+007517FM-12+182599999V0200301N002619999999N9999999N1-00271-00751999999ADDMA1999999081301ME1314749REMSYN060AAXX  10194 06722 43/// /0305 11027 21075 38130 48474 5////;
0096067220999992011011020004+46117+007517FM-12+182599999V0200901N000519999999N9999999N1-00251-00761999999ADDMA1999999081291ME1314739REMSYN060AAXX  10204 06722 43/// /0901 11025 21076 38129 48473 5////;
0096067220999992011011021004+46117+007517FM-12+182599999V0209999C001519999999N9999999N1-00251-00791999999ADDMA1999999081301ME1314749REMSYN060AAXX  10214 06722 43/// /0003 11025 21079 38130 48474 5////;
0096067220999992011011022004+46117+007517FM-12+182599999V0200501N001519999999N9999999N1-00211-00811999999ADDMA1999999081291ME1314729REMSYN060AAXX  10224 06722 43/// /0503 11021 21081 38129 48472 5////;
0096067220999992011011023004+46117+007517FM-12+182599999V0200401N001519999999N9999999N1-00321-00861999999ADDMA1999999081271ME1314729REMSYN060AAXX  10234 06722 43/// /0403 11032 21086 38127 48472 5////;
0096067220999992011011100004+46117+007517FM-12+182599999V0200201N001519999999N9999999N1-00221-00911999999ADDMA1999999081231ME1314679REMSYN060AAXX  11004 06722 43/// /0203 11022 21091 38123 48467 5////;
0096067220999992011011101004+46117+007517FM-12+182599999V0200701N001519999999N9999999N1-00261-00921999999ADDMA1999999081191ME1314639REMSYN060AAXX  11014 06722 43/// /0703 11026 21092 38119 48463 5////;
0096067220999992011011102004+46117+007517FM-12+182599999V0200701N001519999999N9999999N1-00261-01011999999ADDMA1999999081161ME1314609REMSYN060AAXX  11024 06722 43/// /0703 11026 21101 38116 48460 5////;
0096067220999992011011103004+46117+007517FM-12+182599999V0203501N000519999999N9999999N1-00331-01111999999ADDMA1999999081121ME1314579REMSYN060AAXX  11034 06722 43/// /3501 11033 21111 38112 48457 5////;
0096067220999992011011104004+46117+007517FM-12+182599999V0200701N001019999999N9999999N1-00311-01191999999ADDMA1999999081101ME1314559REMSYN060AAXX  11044 06722 43/// /0702 11031 21119 38110 48455 5////;
0096067220999992011011105004+46117+007517FM-12+182599999V0200501N001519999999N9999999N1-00351-01321999999ADDMA1999999081051ME1314519REMSYN060AAXX  11054 06722 43/// /0503 11035 21132 38105 48451 5////;
0106067220999992011011106004+46117+007517FM-12+182599999V0200401N001019999999N9999999N1-00331-01461999999ADDMA1999999081041ME1314499REMSYN070AAXX  11064 06722 43/// /0402 11033 21146 38104 48449 5//// 333 55010;
0149067220999992011011107004+46117+007517FM-12+182599999V0203401N001019999999N9999999N1-00331-01481999999ADDMA1999999081021MD1719999+9999ME1314479OA149900411REMSYN088AAXX  11074 06722 33/// /3402 11033 21148 38102 48447 57/// 333 55300 20000 91108 91205;
0112067220999992011011108004+46117+007517FM-12+182599999V0200801N001519999999N9999999N1-00351-01541999999ADDMA1999999081041ME1314509REMSYN076AAXX  11084 06722 33/// /0803 11035 21154 38104 48450 5//// 333 553// 20022;
0096067220999992011011109004+46117+007517FM-12+182599999V0201001N000519999999N9999999N1-00251-01511999999ADDMA1999999081001ME1314449REMSYN060AAXX  11094 06722 43/// /1001 11025 21151 38100 48444 5////;
0149067220999992011011110004+46117+007517FM-12+182599999V0209999C000019999999N9999999N1-00231-01491999999ADDMA1999999081001MD1710021+9999ME1314449OA149900411REMSYN088AAXX  11104 06722 33/// /0000 11023 21149 38100 48444 57002 333 55308 2//// 91108 91204;
0149067220999992011011111004+46117+007517FM-12+182599999V0201001N000519999999N9999999N1-00131-01441999999ADDMA1999999080921MD1710121+9999ME1314359OA149900211REMSYN088AAXX  11114 06722 33/// /1001 11013 21144 38092 48435 57012 333 55301 20763 91104 91201;
0144067220999992011011112004+46117+007517FM-12+182599999V0203301N001019999999N0700001N1-00101-01201999999ADDGF108991999999999999999999MA1999999080831ME1314259REMSYN082AAXX  11124 06722 32988 83302 11010 21120 38083 48425 5//// 333 553// 20720 88459;
0149067220999992011011113004+46117+007517FM-12+182599999V0209999C000019999999N9999999N1-00091-01241999999ADDMA1999999080821MD1710181+9999ME1314249OA149900151REMSYN088AAXX  11134 06722 33/// /0000 11009 21124 38082 48424 57018 333 55300 20662 91103 91202;
0096067220999992011011114004+46117+007517FM-12+182599999V0202901N001519999999N9999999N1-00201-01031999999ADDMA1999999080821ME1314269REMSYN060AAXX  11144 06722 43/// /2903 11020 21103 38082 48426 5////;
0096067220999992011011115004+46117+007517FM-12+182599999V0203201N000519999999N9999999N1-00411-00551999999ADDMA1999999080921ME1314399REMSYN060AAXX  11154 06722 43/// /3201 11041 21055 38092 48439 5////;
0155067220999992011011116004+46117+007517FM-12+182599999V0201301N001519999999N9999999N1-00391-00581999999ADDMA1999999080901MD1210081+9999ME1314369OA149900361REMSYN094AAXX  11164 06722 23/// /1303 11039 21058 38090 48436 52008 333 553// 20101 69915 91107 91204;
0155067220999992011011117004+46117+007517FM-12+182599999V0201401N000519999999N9999999N1-00411-00501999999ADDMA1999999080991MD1210161+9999ME1314469OA149900261REMSYN094AAXX  11174 06722 23/// /1401 11041 21050 38099 48446 52016 333 55300 20000 69915 91105 91204;
0318067220999992011011118004+46117+007517FM-12+182599999V0200701N00101018001CN0200001N1-00281-00681999999ADDAA112000021AJ100259199999999AL11200191AY181061AY271061GA1071+018001061GF107991999999017501999999IA1239KA1120M-00061MA1999999081041MD1210121+9999ME1314499MW1261OA149900411REMSYN136AAXX  11184 06722 01770 70702 11028 21068 38104 48449 52012 69922 72687 333 11006 47025 55300 20000 60005 87656 90766 93101 91108 91204;
0149067220999992011011119004+46117+007517FM-12+182599999V0200501N001019999999N9999999N1-00271-00671999999ADDMA1999999081101MD1210201+9999ME1314549OA149900311REMSYN088AAXX  11194 06722 33/// /0502 11027 21067 38110 48454 52020 333 55300 20000 91106 91204;
0149067220999992011011120004+46117+007517FM-12+182599999V0203601N001519999999N9999999N1-00171-00781999999ADDMA1999999081111MD1210121+9999ME1314549OA149900411REMSYN088AAXX  11204 06722 33/// /3603 11017 21078 38111 48454 52012 333 55300 20000 91108 91203;
0149067220999992011011121004+46117+007517FM-12+182599999V0201401N000519999999N9999999N1-00351-00571999999ADDMA1999999081211MD1310171+9999ME1314669OA149900411REMSYN088AAXX  11214 06722 33/// /1401 11035 21057 38121 48466 53017 333 55300 20000 91108 91204;
0155067220999992011011122004+46117+007517FM-12+182599999V0200701N000519999999N9999999N1-00301-00501999999ADDMA1999999081281MD1310181+9999ME1314739OA149900261REMSYN094AAXX  11224 06722 23/// /0701 11030 21050 38128 48473 53018 333 55300 20000 69935 91105 91203;
0155067220999992011011123004+46117+007517FM-12+182599999V0209999C000019999999N9999999N1-00341-00481999999ADDMA1999999081361MD1210251+9999ME1314819OA149900151REMSYN094AAXX  11234 06722 23/// /0000 11034 21048 38136 48481 52025 333 55300 20000 69915 91103 91202;
0172067220999992011011200004+46117+007517FM-12+182599999V0200801N000519999999N9999999N1-00271-00471999999ADDAA106000591MA1999999081421MD1210211+9999ME1314869OA149900411REMSYN100AAXX  12004 06722 03/// /0801 11027 21047 38142 48486 52021 69951 333 55300 20000 69915 91108 91204;
0149067220999992011011201004+46117+007517FM-12+182599999V0200401N002619999999N9999999N1-00161-00891999999ADDMA1999999081451MD1110171+9999ME1314879OA149900361REMSYN088AAXX  12014 06722 33/// /0405 11016 21089 38145 48487 51017 333 55300 20000 91107 91205;
0112067220999992011011202004+46117+007517FM-12+182599999V0200201N002119999999N9999999N1-00191-00811999999ADDMA1999999081501ME1314939REMSYN076AAXX  12024 06722 33/// /0204 11019 21081 38150 48493 5//// 333 553// 20000;
0096067220999992011011203004+46117+007517FM-12+182599999V0203101N001519999999N9999999N1-00191-00761999999ADDMA1999999081591ME1315029REMSYN060AAXX  12034 06722 43/// /3103 11019 21076 38159 48502 5////;
0096067220999992011011204004+46117+007517FM-12+182599999V0201001N001019999999N9999999N1-00301-00771999999ADDMA1999999081621ME1315069REMSYN060AAXX  12044 06722 43/// /1002 11030 21077 38162 48506 5////;
0112067220999992011011205004+46117+007517FM-12+182599999V0200601N001519999999N9999999N1-00291-00911999999ADDMA1999999081651ME1315099REMSYN076AAXX  12054 06722 33/// /0603 11029 21091 38165 48509 5//// 333 553// 20000;
0295067220999992011011206004+46117+007517FM-12+182599999V0200601N001512200019N0750001N1-00231-00961999999ADDAA124000891AJ100269199999999AL14200091AY171061AY211061GA1041+063001021GF104991999999999999999999GJ100849IA1239IA2999-00609KA1999N-00411MA1999999081731ME1315169MW1021REMSYN118AAXX  12064 06722 41989 40603 11023 21096 38173 48516 5//// 70271 333 21041 3/106 47026 55014 70007 84271 90768 93102;
0149067220999992011011207004+46117+007517FM-12+182599999V0200601N002619999999N9999999N1-00081-00941999999ADDMA1999999081721MD1210101+9999ME1315139OA149900411REMSYN088AAXX  12074 06722 33/// /0605 11008 21094 38172 48513 52010 333 55300 20000 91108 91205;
0096067220999992011011208004+46117+007517FM-12+182599999V0209999C000019999999N9999999N1-00101-00901999999ADDMA1999999081771ME1315189REMSYN060AAXX  12084 06722 43/// /0000 11010 21090 38177 48518 5////;
0096067220999992011011209004+46117+007517FM-12+182599999V0200801N000519999999N9999999N1+00031-01071999999ADDMA1999999081811ME1315219REMSYN060AAXX  12094 06722 43/// /0801 10003 21107 38181 48521 5////;
0149067220999992011011210004+46117+007517FM-12+182599999V0200501N002619999999N9999999N1+00231-01291999999ADDMA1999999081811MD1219999+9999ME1315189OA149900411REMSYN088AAXX  12104 06722 33/// /0505 10023 21129 38181 48518 52/// 333 55300 20576 91108 91205;
0126067220999992011011211004+46117+007517FM-12+182599999V0201201N001019999999N9999999N1+00321-01211999999ADDMA1999999081801MD1010031+9999ME1315169REMSYN076AAXX  12114 06722 33/// /1202 10032 21121 38180 48516 50003 333 553// 2////;
0148067220999992011011212004+46117+007517FM-12+182599999V0200901N000510210019N0700001N1+00301-01081999999ADDGA1081+021001041GF108991999999022501999999MA1999999081811ME1315189REMSYN070AAXX  12124 06722 42888 80901 10030 21108 38181 48518 5//// 333 88457;
0096067220999992011011213004+46117+007517FM-12+182599999V0200601N000519999999N9999999N1+00291-00841999999ADDMA1999999081801ME1315179REMSYN060AAXX  12134 06722 43/// /0601 10029 21084 38180 48517 5////;
0096067220999992011011214004+46117+007517FM-12+182599999V0200301N002119999999N9999999N1+00181-00511999999ADDMA1999999081841ME1315229REMSYN060AAXX  12144 06722 43/// /0304 10018 21051 38184 48522 5////;
0096067220999992011011215004+46117+007517FM-12+182599999V0209999C000019999999N9999999N1+00011-00311999999ADDMA1999999081881ME1315289REMSYN060AAXX  12154 06722 43/// /0000 10001 21031 38188 48528 5////;
0155067220999992011011216004+46117+007517FM-12+182599999V0209999C000019999999N9999999N1-00121-00141999999ADDMA1999999081931MD1210131+9999ME1315349OA149900311REMSYN094AAXX  12164 06722 23/// /0000 11012 21014 38193 48534 52013 333 55300 20029 60015 91106 91205;
0155067220999992011011217004+46117+007517FM-12+182599999V0200901N001019999999N9999999N1+00071-00101999999ADDMA1999999081931MD1210091+9999ME1315329OA149900151REMSYN094AAXX  12174 06722 23/// /0902 10007 21010 38193 48532 52009 333 55300 20000 69925 91103 91202;
0318067220999992011011218004+46117+007517FM-12+182599999V0201601N00051014701CN0100001N1+00011-00091999999ADDAA112002091AJ100279199999999AL11200291AY171061AY241061GA1081+014701051GF108991999999012501999999IA1239KA1120M+00331MA1999999081941MD1210061+9999ME1315349MW1711OA149900461REMSYN136AAXX  12184 06722 01660 81601 10001 21009 38194 48534 52006 60022 77174 333 10033 47027 55300 20000 69945 88549 90766 93102 91109 91207;
0155067220999992011011219004+46117+007517FM-12+182599999V0203401N002119999999N9999999N1+00271+00001999999ADDMA1999999081981MD1310051+9999ME1315359OA149900571REMSYN094AAXX  12194 06722 23/// /3404 10027 20000 38198 48535 53005 333 55300 20000 69925 91111 91204;
0155067220999992011011220004+46117+007517FM-12+182599999V0200901N000519999999N9999999N1+00251+00001999999ADDMA1999999082001MD1210071+9999ME1315379OA149900571REMSYN094AAXX  12204 06722 23/// /0901 10025 20000 38200 48537 52007 333 55300 20000 69925 91111 91204;
0155067220999992011011221004+46117+007517FM-12+182599999V0200401N002619999999N9999999N1+00251+00001999999ADDMA1999999082011MD1110071+9999ME1315389OA149900571REMSYN094AAXX  12214 06722 23/// /0405 10025 20000 38201 48538 51007 333 55300 20000 69925 91111 91205;
0149067220999992011011222004+46117+007517FM-12+182599999V0200601N001019999999N9999999N1+00271+00001999999ADDMA1999999082011MD1210031+9999ME1315389OA149900361REMSYN088AAXX  12224 06722 33/// /0602 10027 20000 38201 48538 52003 333 55300 20000 91107 91205;
0155067220999992011011223004+46117+007517FM-12+182599999V0201001N001019999999N9999999N1+00241+00031999999ADDMA1999999082011MD1010011+9999ME1315389OA149900261REMSYN094AAXX  12234 06722 23/// /1002 10024 20003 38201 48538 50001 333 55300 20000 69915 91105 91203;
0172067220999992011011300004+46117+007517FM-12+182599999V0200101N000519999999N9999999N1+00271+00021999999ADDAA106000891MA1999999082001MD1710011+9999ME1315379OA149900571REMSYN100AAXX  13004 06722 03/// /0101 10027 20002 38200 48537 57001 69971 333 55300 20000 60005 91111 91207;
0155067220999992011011301004+46117+007517FM-12+182599999V0200901N000519999999N9999999N1+00261+00021999999ADDMA1999999081961MD1810051+9999ME1315339OA149900151REMSYN094AAXX  13014 06722 23/// /0901 10026 20002 38196 48533 58005 333 55300 20000 69915 91103 91202;
0155067220999992011011302004+46117+007517FM-12+182599999V0209999C000019999999N9999999N1+00201+00051999999ADDMA1999999082001MD1519999+9999ME1315389OA149900151REMSYN094AAXX  13024 06722 23/// /0000 10020 20005 38200 48538 55/// 333 55300 20000 69955 91103 91202;
0096067220999992011011303004+46117+007517FM-12+182599999V0200601N001519999999N9999999N1+00271+00071999999ADDMA1999999082001ME1315379REMSYN060AAXX  13034 06722 43/// /0603 10027 20007 38200 48537 5////;
0155067220999992011011304004+46117+007517FM-12+182599999V0200801N001519999999N9999999N1+00321+00071999999ADDMA1999999081981MD1019999+9999ME1315349OA149900211REMSYN094AAXX  13044 06722 23/// /0803 10032 20007 38198 48534 50/// 333 55300 20000 69955 91104 91203;
0118067220999992011011305004+46117+007517FM-12+182599999V0200101N000519999999N9999999N1+00351+00061999999ADDMA1999999081971ME1315339REMSYN082AAXX  13054 06722 23/// /0101 10035 20006 38197 48533 5//// 333 553// 20000 69915;
0366067220999992011011306004+46117+007517FM-12+182599999V0200401N00151011701CN0300001N1+00391+00091999999ADDAA112003091AJ100229199999999AL14800491AL29900091AY161061AY221061GA1081+011701041GF108991999999012501999999GJ100189IA1309IA2999+00009KA1999N+00011MA1999999082001MD1510001+9999ME1315369MW1611OA149900571REMSYN154AAXX  13064 06722 01680 80403 10039 20009 38200 48536 55000 60032 76162 333 20001 3/000 42022 55003 55300 20000 69925 70048 88439 90768 93100 91111 91205;
0096067220999992011011307004+46117+007517FM-12+182599999V0200701N000519999999N9999999N1+00471+00071999999ADDMA1999999082011ME1315369REMSYN060AAXX  13074 06722 43/// /0701 10047 20007 38201 48536 5////;
0096067220999992011011308004+46117+007517FM-12+182599999V0203601N002119999999N9999999N1+00581-00041999999ADDMA1999999082021ME1315359REMSYN060AAXX  13084 06722 43/// /3604 10058 21004 38202 48535 5////;
0096067220999992011011309004+46117+007517FM-12+182599999V0200501N001519999999N9999999N1+00491-00021999999ADDMA1999999082051ME1315399REMSYN060AAXX  13094 06722 43/// /0503 10049 21002 38205 48539 5////;
0096067220999992011011310004+46117+007517FM-12+182599999V0201001N001019999999N9999999N1+00651-00151999999ADDMA1999999082021ME1315359REMSYN060AAXX  13104 06722 43/// /1002 10065 21015 38202 48535 5////;
0096067220999992011011311004+46117+007517FM-12+182599999V0203001N002619999999N9999999N1+00581+00041999999ADDMA1999999081991ME1315329REMSYN060AAXX  13114 06722 43/// /3005 10058 20004 38199 48532 5////;
0148067220999992011011312004+46117+007517FM-12+182599999V0201501N000510210019N0700001N1+00491+00171999999ADDGA1061+021001031GF106991999999022501999999MA1999999082001ME1315349REMSYN070AAXX  13124 06722 42888 61501 10049 20017 38200 48534 5//// 333 86357;
0096067220999992011011313004+46117+007517FM-12+182599999V0200901N000519999999N9999999N1+00651-00071999999ADDMA1999999081971ME1315309REMSYN060AAXX  13134 06722 43/// /0901 10065 21007 38197 48530 5////;
0096067220999992011011314004+46117+007517FM-12+182599999V0200101N002119999999N9999999N1+00711-00411999999ADDMA1999999081941ME1315269REMSYN060AAXX  13144 06722 43/// /0104 10071 21041 38194 48526 5////;
0096067220999992011011315004+46117+007517FM-12+182599999V0200201N001019999999N9999999N1+00611-00331999999ADDMA1999999081951ME1315289REMSYN060AAXX  13154 06722 43/// /0202 10061 21033 38195 48528 5////;
0096067220999992011011316004+46117+007517FM-12+182599999V0203301N002119999999N9999999N1+00351-00221999999ADDMA1999999082001ME1315369REMSYN060AAXX  13164 06722 43/// /3304 10035 21022 38200 48536 5////;
0149067220999992011011317004+46117+007517FM-12+182599999V0200601N001019999999N9999999N1+00501-00311999999ADDMA1999999082011MD1310071+9999ME1315359OA149900411REMSYN088AAXX  13174 06722 33/// /0602 10050 21031 38201 48535 53007 333 553// 20000 91108 91204;
0261067220999992011011318004+46117+007517FM-12+182599999V0203601N003112200019N0750001N1+00431-00291999999ADDAJ100199199999999AL19900091GA1001+999999999GF100991001001999999001001IA1309KA1120M+00741MA1999999081981MD1010021+9999ME1315339OA149900621REMSYN112AAXX  13184 06722 32/89 03606 10043 21029 38198 48533 50002 333 10074 42019 55300 20000 90766 93100 91112 91208;
0149067220999992011011319004+46117+007517FM-12+182599999V0200501N001519999999N9999999N1+00511-00421999999ADDMA1999999081991MD1710011+9999ME1315339OA149900621REMSYN088AAXX  13194 06722 33/// /0503 10051 21042 38199 48533 57001 333 55300 20000 91112 91207;
0149067220999992011011320004+46117+007517FM-12+182599999V0200701N001519999999N9999999N1+00431-00431999999ADDMA1999999081971MD1710041+9999ME1315329OA149900621REMSYN088AAXX  13204 06722 33/// /0703 10043 21043 38197 48532 57004 333 55300 20000 91112 91207;
0149067220999992011011321004+46117+007517FM-12+182599999V0200601N001019999999N9999999N1+00381-00501999999ADDMA1999999081951MD1710031+9999ME1315319OA149900621REMSYN088AAXX  13214 06722 33/// /0602 10038 21050 38195 48531 57003 333 55300 20000 91112 91207;
0149067220999992011011322004+46117+007517FM-12+182599999V0200501N000519999999N9999999N1+00321-00521999999ADDMA1999999081971MD1510021+9999ME1315339OA149900361REMSYN088AAXX  13224 06722 33/// /0501 10032 21052 38197 48533 55002 333 55300 20000 91107 91204;
0149067220999992011011323004+46117+007517FM-12+182599999V0200501N000519999999N9999999N1+00381-00761999999ADDMA1999999081961MD1710011+9999ME1315329OA149900361REMSYN088AAXX  13234 06722 33/// /0501 10038 21076 38196 48532 57001 333 55300 20000 91107 91203;
0149067220999992011011400004+46117+007517FM-12+182599999V0203501N000519999999N9999999N1+00331-00751999999ADDMA1999999081921MD1810031+9999ME1315289OA149900621REMSYN088AAXX  14004 06722 33/// /3501 10033 21075 38192 48528 58003 333 55300 20000 91112 91207;
0149067220999992011011401004+46117+007517FM-12+182599999V0200401N001019999999N9999999N1+00271-00791999999ADDMA1999999081931MD1710041+9999ME1315309OA149900261REMSYN088AAXX  14014 06722 33/// /0402 10027 21079 38193 48530 57004 333 55300 20000 91105 91202;
0112067220999992011011402004+46117+007517FM-12+182599999V0203001N000519999999N9999999N1+00261-00771999999ADDMA1999999081951ME1315329REMSYN076AAXX  14024 06722 33/// /3001 10026 21077 38195 48532 5//// 333 553// 20000;
0149067220999992011011403004+46117+007517FM-12+182599999V0209999C000019999999N9999999N1+00221-00711999999ADDMA1999999081931MD1210011+9999ME1315309OA149900361REMSYN088AAXX  14034 06722 33/// /0000 10022 21071 38193 48530 52001 333 55300 20000 91107 91203;
0149067220999992011011404004+46117+007517FM-12+182599999V0200901N001019999999N9999999N1+00151-00751999999ADDMA1999999081931MD1010001+9999ME1315319OA149900261REMSYN088AAXX  14044 06722 33/// /0902 10015 21075 38193 48531 50000 333 55300 20000 91105 91202;
0149067220999992011011405004+46117+007517FM-12+182599999V0203601N000519999999N9999999N1+00211-00771999999ADDMA1999999081931MD1710021+9999ME1315319OA149900411REMSYN088AAXX  14054 06722 33/// /3601 10021 21077 38193 48531 57002 333 55300 20000 91108 91203;
0305067220999992011011406004+46117+007517FM-12+182599999V0200401N000512200019N0750001N1+00321-00831999999ADDAJ100199199999999AL19900091GA1021+063001021GF102991999999999999999999GJ102709IA1309IA2999-00109KA1999N+00151MA1999999081911MD1710021+9999ME1315279OA149900621REMSYN136AAXX  14064 06722 32989 20401 10032 21083 38191 48527 57002 333 20015 3/101 42019 55045 55300 20000 70000 82271 90768 93100 91112 91207;
0149067220999992011011407004+46117+007517FM-12+182599999V0200701N001019999999N9999999N1+00251-00861999999ADDMA1999999081951MD1310021+9999ME1315329OA149900261REMSYN088AAXX  14074 06722 33/// /0702 10025 21086 38195 48532 53002 333 55300 20000 91105 91202;
0096067220999992011011408004+46117+007517FM-12+182599999V0200901N000519999999N9999999N1+00281-01041999999ADDMA1999999081951ME1315329REMSYN060AAXX  14084 06722 43/// /0901 10028 21104 38195 48532 5////;
0096067220999992011011409004+46117+007517FM-12+182599999V0201101N000519999999N9999999N1+00321-00971999999ADDMA1999999081971ME1315339REMSYN060AAXX  14094 06722 43/// /1101 10032 21097 38197 48533 5////;
0096067220999992011011410004+46117+007517FM-12+182599999V0209999C000019999999N9999999N1+00491-00861999999ADDMA1999999081961ME1315309REMSYN060AAXX  14104 06722 43/// /0000 10049 21086 38196 48530 5////;
0149067220999992011011411004+46117+007517FM-12+182599999V0203001N000519999999N9999999N1+00551-00861999999ADDMA1999999081941MD1810011+9999ME1315289OA149900151REMSYN088AAXX  14114 06722 33/// /3001 10055 21086 38194 48528 58001 333 55308 2//// 91103 91201;
0197067220999992011011412004+46117+007517FM-12+182599999V0200101N00051081001CN0750001N1+00611-00901999999ADDGA1071+081001011GF107991999999999999999999MA1999999081881MD1710091+9999ME1315219OA149900411REMSYN094AAXX  14124 06722 32989 70101 10061 21090 38188 48521 57009 333 55307 2//// 87177 91108 91203;
0149067220999992011011413004+46117+007517FM-12+182599999V0209999C000019999999N9999999N1+00631-00781999999ADDMA1999999081841MD1710121+9999ME1315179OA149900151REMSYN088AAXX  14134 06722 33/// /0000 10063 21078 38184 48517 57012 333 55304 2//// 91103 91201;
0112067220999992011011414004+46117+007517FM-12+182599999V0203301N000519999999N9999999N1+00581-00541999999ADDMA1999999081821ME1315159REMSYN076AAXX  14144 06722 33/// /3301 10058 21054 38182 48515 5//// 333 553// 20875;
0149067220999992011011415004+46117+007517FM-12+182599999V0201101N001019999999N9999999N1+00511-00661999999ADDMA1999999081851MD1510031+9999ME1315199OA149900151REMSYN088AAXX  14154 06722 33/// /1102 10051 21066 38185 48519 55003 333 55306 20623 91103 91202;
0149067220999992011011416004+46117+007517FM-12+182599999V0201001N001019999999N9999999N1+00491-00951999999ADDMA1999999081891MD1210051+9999ME1315239OA149900211REMSYN088AAXX  14164 06722 33/// /1002 10049 21095 38189 48523 52005 333 55300 20148 91104 91203;
0149067220999992011011417004+46117+007517FM-12+182599999V0200501N002619999999N9999999N1+00601-01221999999ADDMA1999999081911MD1210091+9999ME1315249OA149900511REMSYN088AAXX  14174 06722 33/// /0505 10060 21122 38191 48524 52009 333 55300 20000 91110 91205;
0267067220999992011011418004+46117+007517FM-12+182599999V0200501N00211081001CN0700001N1+00571-01301999999ADDAJ100149199999999AL19900091GA1071+081001001GF107991999999999999999999IA1259KA1120M+00741MA1999999081871MD1010021+9999ME1315209OA149900511REMSYN118AAXX  14184 06722 32988 70504 10057 21130 38187 48520 50002 333 10074 41014 55300 20000 87077 90766 93100 91110 91206;
0149067220999992011011419004+46117+007517FM-12+182599999V0200301N000519999999N9999999N1+00471-01291999999ADDMA1999999081841MD1710051+9999ME1315199OA149900511REMSYN088AAXX  14194 06722 33/// /0301 10047 21129 38184 48519 57005 333 55300 20000 91110 91206;
0149067220999992011011420004+46117+007517FM-12+182599999V0200301N001519999999N9999999N1+00441-01301999999ADDMA1999999081801MD1710111+9999ME1315159OA149900411REMSYN088AAXX  14204 06722 33/// /0303 10044 21130 38180 48515 57011 333 55300 20000 91108 91204;
0149067220999992011011421004+46117+007517FM-12+182599999V0200401N001519999999N9999999N1+00371-01341999999ADDMA1999999081831MD1710041+9999ME1315199OA149900511REMSYN088AAXX  14214 06722 33/// /0403 10037 21134 38183 48519 57004 333 55300 20000 91110 91206;
0149067220999992011011422004+46117+007517FM-12+182599999V0200601N002619999999N9999999N1+00401-01441999999ADDMA1999999081811MD1710031+9999ME1315169OA149900511REMSYN088AAXX  14224 06722 33/// /0605 10040 21144 38181 48516 57003 333 55300 20000 91110 91205;
0149067220999992011011423004+46117+007517FM-12+182599999V0200101N001019999999N9999999N1+00291-01351999999ADDMA1999999081851MD1210051+9999ME1315229OA149900671REMSYN088AAXX  14234 06722 33/// /0102 10029 21135 38185 48522 52005 333 55300 20000 91113 91207;
0149067220999992011011500004+46117+007517FM-12+182599999V0203301N001019999999N9999999N1+00111-01031999999ADDMA1999999081971MD1210141+9999ME1315369OA149900671REMSYN088AAXX  15004 06722 33/// /3302 10011 21103 38197 48536 52014 333 55300 20000 91113 91207;
0149067220999992011011501004+46117+007517FM-12+182599999V0200801N001019999999N9999999N1+00091-00961999999ADDMA1999999081981MD1210171+9999ME1315379OA149900721REMSYN088AAXX  15014 06722 33/// /0802 10009 21096 38198 48537 52017 333 55300 20000 91114 91206;
0149067220999992011011502004+46117+007517FM-12+182599999V0200301N001019999999N9999999N1+00191-00751999999ADDMA1999999082011MD1219999+9999ME1315399OA149900721REMSYN088AAXX  15024 06722 33/// /0302 10019 21075 38201 48539 52/// 333 55300 20000 91114 91204;
0112067220999992011011503004+46117+007517FM-12+182599999V0203501N002119999999N9999999N1+00181-00631999999ADDMA1999999082061ME1315449REMSYN076AAXX  15034 06722 33/// /3504 10018 21063 38206 48544 5//// 333 553// 20000;
0149067220999992011011504004+46117+007517FM-12+182599999V0200401N001519999999N9999999N1+00121-00651999999ADDMA1999999082151MD1310171+9999ME1315539OA149900511REMSYN088AAXX  15044 06722 33/// /0403 10012 21065 38215 48553 53017 333 55300 20000 91110 91206;
0149067220999992011011505004+46117+007517FM-12+182599999V0200101N003119999999N9999999N1+00051-00791999999ADDMA1999999082201MD1110191+9999ME1315599OA149900461REMSYN088AAXX  15054 06722 33/// /0106 10005 21079 38220 48559 51019 333 55300 20000 91109 91206;
0299067220999992011011506004+46117+007517FM-12+182599999V0200301N003612200019N0750001N1+00131-00901999999ADDAJ100149199999999AL19900091GA1001+999999999GF100991001001999999001001GJ102289IA1309IA2999-00209KA1999N+00011MA1999999082241MD1110181+9999ME1315629OA149900721REMSYN130AAXX  15064 06722 32/89 00307 10013 21090 38224 48562 51018 333 20001 3/102 42014 55038 55300 20000 70000 90768 93100 91114 91207;
0149067220999992011011507004+46117+007517FM-12+182599999V0200601N002119999999N9999999N1+00001-00961999999ADDMA1999999082311MD1310161+9999ME1315709OA149900671REMSYN088AAXX  15074 06722 33/// /0604 10000 21096 38231 48570 53016 333 55300 20000 91113 91208;
0149067220999992011011508004+46117+007517FM-12+182599999V0200601N003119999999N9999999N1+00081-01351999999ADDMA1999999082321MD1219999+9999ME1315709OA149900671REMSYN088AAXX  15084 06722 33/// /0606 10008 21135 38232 48570 52/// 333 55300 20025 91113 91208;
0149067220999992011011509004+46117+007517FM-12+182599999V0200501N001519999999N9999999N1+00291-01561999999ADDMA1999999082301MD1010061+9999ME1315669OA149900671REMSYN088AAXX  15094 06722 33/// /0503 10029 21156 38230 48566 50006 333 55302 20324 91113 91208;
0149067220999992011011510004+46117+007517FM-12+182599999V0203001N000519999999N9999999N1+00221-01131999999ADDMA1999999082321MD1510011+9999ME1315699OA149900511REMSYN088AAXX  15104 06722 33/// /3001 10022 21113 38232 48569 55001 333 55308 2//// 91110 91206;
0149067220999992011011511004+46117+007517FM-12+182599999V0202901N000519999999N9999999N1+00251-01151999999ADDMA1999999082301MD1710021+9999ME1315679OA149900211REMSYN088AAXX  15114 06722 33/// /2901 10025 21115 38230 48567 57002 333 55308 2//// 91104 91202;
0197067220999992011011512004+46117+007517FM-12+182599999V0209999C000012200019N0750001N1+00421-01051999999ADDGA1011+081001001GF101991999999999999999999MA1999999082251MD1710051+9999ME1315609OA149900721REMSYN094AAXX  15124 06722 32989 10000 10042 21105 38225 48560 57005 333 55308 2//// 81077 91114 91208;
0112067220999992011011513004+46117+007517FM-12+182599999V0202901N000519999999N9999999N1+00471-00941999999ADDMA1999999082201ME1315559REMSYN076AAXX  15134 06722 33/// /2901 10047 21094 38220 48555 5//// 333 553// 2////;
0096067220999992011011514004+46117+007517FM-12+182599999V0209999C000019999999N9999999N1+00411-00921999999ADDMA1999999082241ME1315599REMSYN060AAXX  15144 06722 43/// /0000 10041 21092 38224 48559 5////;
0096067220999992011011515004+46117+007517FM-12+182599999V0201301N001519999999N9999999N1+00421-00991999999ADDMA1999999082311ME1315669REMSYN060AAXX  15154 06722 43/// /1303 10042 21099 38231 48566 5////;
0096067220999992011011516004+46117+007517FM-12+182599999V0200701N000519999999N9999999N1+00411-00971999999ADDMA1999999082341ME1315699REMSYN060AAXX  15164 06722 43/// /0701 10041 21097 38234 48569 5////;
0112067220999992011011517004+46117+007517FM-12+182599999V0201001N000519999999N9999999N1+00281-01041999999ADDMA1999999082391ME1315759REMSYN076AAXX  15174 06722 33/// /1001 10028 21104 38239 48575 5//// 333 553// 20000;
0119067220999992011011518004+46117+007517FM-12+182599999V0200601N000519999999N9999999N1+00301-01021999999ADDKA1999M+00621MA1999999082421ME1315789REMSYN070AAXX  15184 06722 43/// /0601 10030 21102 38242 48578 5//// 333 10062;
0096067220999992011011519004+46117+007517FM-12+182599999V0209999C000019999999N9999999N1+00151-00981999999ADDMA1999999082451ME1315839REMSYN060AAXX  15194 06722 43/// /0000 10015 21098 38245 48583 5////;
0096067220999992011011520004+46117+007517FM-12+182599999V0200801N001019999999N9999999N1+00271-00941999999ADDMA1999999082471ME1315839REMSYN060AAXX  15204 06722 43/// /0802 10027 21094 38247 48583 5////;
0149067220999992011011521004+46117+007517FM-12+182599999V0209999C000019999999N9999999N1+00281-00811999999ADDMA1999999082491MD1110071+9999ME1315859OA149900211REMSYN088AAXX  15214 06722 33/// /0000 10028 21081 38249 48585 51007 333 55300 20000 91104 91203;
0149067220999992011011522004+46117+007517FM-12+182599999V0200901N000519999999N9999999N1+00191-00821999999ADDMA1999999082521MD1310071+9999ME1315899OA149900211REMSYN088AAXX  15224 06722 33/// /0901 10019 21082 38252 48589 53007 333 55300 20000 91104 91202;
0149067220999992011011523004+46117+007517FM-12+182599999V0203401N000519999999N9999999N1+00251-00681999999ADDMA1999999082521MD1210051+9999ME1315899OA149900211REMSYN088AAXX  15234 06722 33/// /3401 10025 21068 38252 48589 52005 333 55300 20000 91104 91202;
0149067220999992011011600004+46117+007517FM-12+182599999V0200501N000519999999N9999999N1+00381-00681999999ADDMA1999999082491MD1010001+9999ME1315849OA149900211REMSYN088AAXX  16004 06722 33/// /0501 10038 21068 38249 48584 50000 333 55300 20000 91104 91203;
0149067220999992011011601004+46117+007517FM-12+182599999V0200501N000519999999N9999999N1+00421-00631999999ADDMA1999999082481MD1710041+9999ME1315839OA149900211REMSYN088AAXX  16014 06722 33/// /0501 10042 21063 38248 48583 57004 333 55300 20000 91104 91202;
0149067220999992011011602004+46117+007517FM-12+182599999V0200401N001519999999N9999999N1+00461-00611999999ADDMA1999999082471MD1719999+9999ME1315829OA149900311REMSYN088AAXX  16024 06722 33/// /0403 10046 21061 38247 48582 57/// 333 55300 20000 91106 91204;
0096067220999992011011603004+46117+007517FM-12+182599999V0200401N001519999999N9999999N1+00391-00611999999ADDMA1999999082461ME1315819REMSYN060AAXX  16034 06722 43/// /0403 10039 21061 38246 48581 5////;
0149067220999992011011604004+46117+007517FM-12+182599999V0200801N002119999999N9999999N1+00541-00651999999ADDMA1999999082471MD1510011+9999ME1315819OA149900411REMSYN088AAXX  16044 06722 33/// /0804 10054 21065 38247 48581 55001 333 55300 20000 91108 91204;
0149067220999992011011605004+46117+007517FM-12+182599999V0200401N002119999999N9999999N1+00591-00651999999ADDMA1999999082471MD1010001+9999ME1315819OA149900461REMSYN088AAXX  16054 06722 33/// /0404 10059 21065 38247 48581 50000 333 55300 20000 91109 91204;
0299067220999992011011606004+46117+007517FM-12+182599999V0200701N001512200019N0750001N1+00601-00661999999ADDAJ100139199999999AL19900091GA1001+999999999GF100991001001999999001001GJ103609IA1309IA2999-00109KA1999N+00151MA1999999082481MD1210021+9999ME1315819OA149900461REMSYN130AAXX  16064 06722 32/89 00703 10060 21066 38248 48581 52002 333 20015 3/101 42013 55060 55300 20000 70000 90768 93100 91109 91204;
0149067220999992011011607004+46117+007517FM-12+182599999V0200101N001019999999N9999999N1+00531-00721999999ADDMA1999999082491MD1110021+9999ME1315839OA149900411REMSYN088AAXX  16074 06722 33/// /0102 10053 21072 38249 48583 51002 333 55300 20000 91108 91204;
0149067220999992011011608004+46117+007517FM-12+182599999V0200701N000519999999N9999999N1+00511-00811999999ADDMA1999999082511MD1319999+9999ME1315859OA149900411REMSYN088AAXX  16084 06722 33/// /0701 10051 21081 38251 48585 53/// 333 55300 20029 91108 91203;
0149067220999992011011609004+46117+007517FM-12+182599999V0200201N000519999999N9999999N1+00601-00721999999ADDMA1999999082511MD1210031+9999ME1315849OA149900461REMSYN088AAXX  16094 06722 33/// /0201 10060 21072 38251 48584 52003 333 55302 20328 91109 91204;
0149067220999992011011610004+46117+007517FM-12+182599999V0200801N000519999999N9999999N1+00711-00671999999ADDMA1999999082531MD1210041+9999ME1315859OA149900311REMSYN088AAXX  16104 06722 33/// /0801 10071 21067 38253 48585 52004 333 55308 2//// 91106 91203;
0149067220999992011011611004+46117+007517FM-12+182599999V0200901N000519999999N9999999N1+00841-00801999999ADDMA1999999082511MD1010001+9999ME1315829OA149900151REMSYN088AAXX  16114 06722 33/// /0901 10084 21080 38251 48582 50000 333 55308 2//// 91103 91201;
0191067220999992011011612004+46117+007517FM-12+182599999V0209999C000012200019N0750001N1+00931-00881999999ADDGA1001+999999999GF100991001001999999001001MA1999999082501MD1810011+9999ME1315809OA149900461REMSYN088AAXX  16124 06722 32/89 00000 10093 21088 38250 48580 58001 333 55308 2//// 91109 91204;
0149067220999992011011613004+46117+007517FM-12+182599999V0201401N000519999999N9999999N1+00941-00691999999ADDMA1999999082451MD1710081+9999ME1315759OA149900151REMSYN088AAXX  16134 06722 33/// /1401 10094 21069 38245 48575 57008 333 55308 2//// 91103 91201;
0149067220999992011011614004+46117+007517FM-12+182599999V0209999C000019999999N9999999N1+00931-00761999999ADDMA1999999082441MD1719999+9999ME1315749OA149900151REMSYN088AAXX  16144 06722 33/// /0000 10093 21076 38244 48574 57/// 333 55308 2//// 91103 91201;
0149067220999992011011615004+46117+007517FM-12+182599999V0203401N000519999999N9999999N1+00671-00581999999ADDMA1999999082451MD1510051+9999ME1315789OA149900151REMSYN088AAXX  16154 06722 33/// /3401 10067 21058 38245 48578 55005 333 55307 20641 91103 91201;
0149067220999992011011616004+46117+007517FM-12+182599999V0200301N002119999999N9999999N1+00751-00921999999ADDMA1999999082441MD1710011+9999ME1315769OA149900361REMSYN088AAXX  16164 06722 33/// /0304 10075 21092 38244 48576 57001 333 55300 20054 91107 91204;
0149067220999992011011617004+46117+007517FM-12+182599999V0200201N002119999999N9999999N1+00651-00911999999ADDMA1999999082461MD1310021+9999ME1315799OA149900411REMSYN088AAXX  16174 06722 33/// /0204 10065 21091 38246 48579 53002 333 55300 20000 91108 91205;
0261067220999992011011618004+46117+007517FM-12+182599999V0200201N002112200019N0750001N1+00531-00831999999ADDAJ100139199999999AL19900091GA1001+999999999GF100991001001999999001001IA1309KA1120M+00961MA1999999082471MD1210021+9999ME1315819OA149900461REMSYN112AAXX  16184 06722 32/89 00204 10053 21083 38247 48581 52002 333 10096 42013 55300 20000 90766 93100 91109 91205;
0149067220999992011011619004+46117+007517FM-12+182599999V0200401N001519999999N9999999N1+00571-00931999999ADDMA1999999082461MD1210021+9999ME1315809OA149900461REMSYN088AAXX  16194 06722 33/// /0403 10057 21093 38246 48580 52002 333 55300 20000 91109 91205;
0149067220999992011011620004+46117+007517FM-12+182599999V0200101N001519999999N9999999N1+00461-00921999999ADDMA1999999082481MD1210021+9999ME1315839OA149900461REMSYN088AAXX  16204 06722 33/// /0103 10046 21092 38248 48583 52002 333 55300 20000 91109 91205;
0149067220999992011011621004+46117+007517FM-12+182599999V0200501N002119999999N9999999N1+00391-00911999999ADDMA1999999082471MD1010001+9999ME1315829OA149900461REMSYN088AAXX  16214 06722 33/// /0504 10039 21091 38247 48582 50000 333 55300 20000 91109 91205;
0149067220999992011011622004+46117+007517FM-12+182599999V0203501N001019999999N9999999N1+00411-00911999999ADDMA1999999082441MD1810021+9999ME1315799OA149900411REMSYN088AAXX  16224 06722 33/// /3502 10041 21091 38244 48579 58002 333 55300 20000 91108 91204;
0149067220999992011011623004+46117+007517FM-12+182599999V0200701N001519999999N9999999N1+00411-01041999999ADDMA1999999082471MD1510011+9999ME1315829OA149900411REMSYN088AAXX  16234 06722 33/// /0703 10041 21104 38247 48582 55001 333 55300 20000 91108 91204;
0149067220999992011011700004+46117+007517FM-12+182599999V0200701N001519999999N9999999N1+00441-01051999999ADDMA1999999082441MD1810031+9999ME1315799OA149900461REMSYN088AAXX  17004 06722 33/// /0703 10044 21105 38244 48579 58003 333 55300 20000 91109 91205;
0149067220999992011011701004+46117+007517FM-12+182599999V0200301N002619999999N9999999N1+00371-01021999999ADDMA1999999082421MD1810021+9999ME1315789OA149900461REMSYN088AAXX  17014 06722 33/// /0305 10037 21102 38242 48578 58002 333 55300 20000 91109 91205;
0149067220999992011011702004+46117+007517FM-12+182599999V0200601N001519999999N9999999N1+00351-01091999999ADDMA1999999082411MD1619999+9999ME1315779OA149900461REMSYN088AAXX  17024 06722 33/// /0603 10035 21109 38241 48577 56/// 333 55300 20000 91109 91205;
0112067220999992011011703004+46117+007517FM-12+182599999V0200301N001519999999N9999999N1+00251-01051999999ADDMA1999999082391ME1315769REMSYN076AAXX  17034 06722 33/// /0303 10025 21105 38239 48576 5//// 333 553// 20000;
0149067220999992011011704004+46117+007517FM-12+182599999V0200201N001519999999N9999999N1+00291-01101999999ADDMA1999999082361MD1810061+9999ME1315729OA149900361REMSYN088AAXX  17044 06722 33/// /0203 10029 21110 38236 48572 58006 333 55300 20000 91107 91204;
0149067220999992011011705004+46117+007517FM-12+182599999V0200101N001519999999N9999999N1+00261-01121999999ADDMA1999999082331MD1810081+9999ME1315709OA149900411REMSYN088AAXX  17054 06722 33/// /0103 10026 21112 38233 48570 58008 333 55300 20000 91108 91205;
0299067220999992011011706004+46117+007517FM-12+182599999V0200201N001512200019N0750001N1+00271-01151999999ADDAJ100139199999999AL19900091GA1001+999999999GF100991001001999999001001GJ103609IA1309IA2999-00209KA1999N+00141MA1999999082301MD1610091+9999ME1315679OA149900461REMSYN130AAXX  17064 06722 32/89 00203 10027 21115 38230 48567 56009 333 20014 3/102 42013 55060 55300 20000 70000 90768 93100 91109 91205;
0149067220999992011011707004+46117+007517FM-12+182599999V0209999C001519999999N9999999N1+00331-01271999999ADDMA1999999082301MD1710061+9999ME1315669OA149900411REMSYN088AAXX  17074 06722 33/// /0003 10033 21127 38230 48566 57006 333 55300 20000 91108 91205;
0096067220999992011011708004+46117+007517FM-12+182599999V0200201N001019999999N9999999N1+00181-01201999999ADDMA1999999082291ME1315679REMSYN060AAXX  17084 06722 43/// /0202 10018 21120 38229 48567 5////;
0096067220999992011011709004+46117+007517FM-12+182599999V0200701N000519999999N9999999N1+00351-01161999999ADDMA1999999082281ME1315649REMSYN060AAXX  17094 06722 43/// /0701 10035 21116 38228 48564 5////;
0149067220999992011011710004+46117+007517FM-12+182599999V0203401N000519999999N9999999N1+00511-00991999999ADDMA1999999082291MD1010011+9999ME1315639OA149900311REMSYN088AAXX  17104 06722 33/// /3401 10051 21099 38229 48563 50001 333 55308 2//// 91106 91203;
0149067220999992011011711004+46117+007517FM-12+182599999V0209999C000019999999N9999999N1+00521-00971999999ADDMA1999999082311MD1310021+9999ME1315659OA149900151REMSYN088AAXX  17114 06722 33/// /0000 10052 21097 38231 48565 53002 333 55308 2//// 91103 91202;
0191067220999992011011712004+46117+007517FM-12+182599999V0201301N000512200019N0750001N1+00611-01331999999ADDGA1001+999999999GF100991001001999999001001MA1999999082271MD1810011+9999ME1315609OA149900461REMSYN088AAXX  17124 06722 32/89 01301 10061 21133 38227 48560 58001 333 55308 2//// 91109 91205;
0149067220999992011011713004+46117+007517FM-12+182599999V0209999C000019999999N9999999N1+00581-01091999999ADDMA1999999082251MD1710041+9999ME1315599OA149900151REMSYN088AAXX  17134 06722 33/// /0000 10058 21109 38225 48559 57004 333 55308 2//// 91103 91202;
0096067220999992011011714004+46117+007517FM-12+182599999V0209999C000019999999N9999999N1+00631-01041999999ADDMA1999999082261ME1315599REMSYN060AAXX  17144 06722 43/// /0000 10063 21104 38226 48559 5////;
0096067220999992011011715004+46117+007517FM-12+182599999V0201101N000519999999N9999999N1+00481-01021999999ADDMA1999999082301ME1315659REMSYN060AAXX  17154 06722 43/// /1101 10048 21102 38230 48565 5////;
0149067220999992011011716004+46117+007517FM-12+182599999V0200601N001519999999N9999999N1+00391-00981999999ADDMA1999999082311MD1210061+9999ME1315669OA149900461REMSYN088AAXX  17164 06722 33/// /0603 10039 21098 38231 48566 52006 333 55300 20061 91109 91204;
0149067220999992011011717004+46117+007517FM-12+182599999V0200401N001519999999N9999999N1+00341-00971999999ADDMA1999999082321MD1110061+9999ME1315689OA149900461REMSYN088AAXX  17174 06722 33/// /0403 10034 21097 38232 48568 51006 333 55300 20004 91109 91204;
