0137067220999992010010100004+46117+007517FM-12+182599999V0200301N002119999999N9999999N1-00241-00961999999ADDMA1999999079291MD1610121+9999ME1312729OA149900461REMSYN076AAXX  01004 06722 33/// /0304 11024 21096 37929 48272 56012 333 91109 91206;
0137067220999992010010101004+46117+007517FM-12+182599999V0200201N002119999999N9999999N1-00221-01021999999ADDMA1999999079221MD1810151+9999ME1312649OA149900511REMSYN076AAXX  01014 06722 33/// /0204 11022 21102 37922 48264 58015 333 91110 91206;
0137067220999992010010102004+46117+007517FM-12+182599999V0200401N001019999999N9999999N1-00291-01031999999ADDMA1999999079191MD1719999+9999ME1312639OA149900511REMSYN076AAXX  01024 06722 33/// /0402 11029 21103 37919 48263 57/// 333 91110 91206;
0096067220999992010010103004+46117+007517FM-12+182599999V0200701N001019999999N9999999N1-00211-01051999999ADDMA1999999079141ME1312569REMSYN060AAXX  01034 06722 43/// /0702 11021 21105 37914 48256 5////;
0096067220999992010010104004+46117+007517FM-12+182599999V0200601N001519999999N9999999N1-00181-00981999999ADDMA1999999079071ME1312489REMSYN060AAXX  01044 06722 33/// /0603 11018 21098 37907 48248 5////;
0137067220999992010010105004+46117+007517FM-12+182599999V0200801N001519999999N9999999N1-00221-01001999999ADDMA1999999079061MD1610131+9999ME1312489OA149900311REMSYN076AAXX  01054 06722 33/// /0803 11022 21100 37906 48248 56013 333 91106 91204;
0314067220999992010010106004+46117+007517FM-12+182599999V0200501N001510270019N0600001N1-00201-00951999999ADDAA124005391AJ100409199999999AL11800591AL29900691GA1071+027001041GF107991999999999999999999GJ100609IA1279IA2999-00109KA1999N-00351MA1999999079031MD1610111+9999ME1312449OA149900511REMSYN124AAXX  01064 06722 32986 70503 11020 21095 37903 48244 56011 333 21035 3/101 43040 55010 70053 87459 90768 93106 91110 91206;
0137067220999992010010107004+46117+007517FM-12+182599999V0200101N001019999999N9999999N1-00261-00981999999ADDMA1999999079021MD1710051+9999ME1312459OA149900361REMSYN076AAXX  01074 06722 33/// /0102 11026 21098 37902 48245 57005 333 91107 91204;
0137067220999992010010108004+46117+007517FM-12+182599999V0200601N001519999999N9999999N1-00141-01001999999ADDMA1999999079051MD1510011+9999ME1312459OA149900411REMSYN076AAXX  01084 06722 33/// /0603 11014 21100 37905 48245 55001 333 91108 91204;
0137067220999992010010109004+46117+007517FM-12+182599999V0200601N000519999999N9999999N1-00281-00931999999ADDMA1999999079111MD1210081+9999ME1312549OA149900411REMSYN076AAXX  01094 06722 33/// /0601 11028 21093 37911 48254 52008 333 91108 91204;
0137067220999992010010110004+46117+007517FM-12+182599999V0203601N000519999999N9999999N1-00211-00931999999ADDMA1999999079151MD1210131+9999ME1312579OA149900211REMSYN076AAXX  01104 06722 33/// /3601 11021 21093 37915 48257 52013 333 91104 91201;
0137067220999992010010111004+46117+007517FM-12+182599999V0209999C000019999999N9999999N1-00151-00811999999ADDMA1999999079171MD1110121+9999ME1312589OA149900151REMSYN076AAXX  01114 06722 33/// /0000 11015 21081 37917 48258 51012 333 91103 91201;
0185067220999992010010112004+46117+007517FM-12+182599999V0209999C000010270019N0600001N1-00061-00841999999ADDGA1081+027001041GF108991999999999999999999MA1999999079161MD1210051+9999ME1312559OA149900511REMSYN082AAXX  01124 06722 32986 80000 11006 21084 37916 48255 52005 333 88459 91110 91206;
0137067220999992010010113004+46117+007517FM-12+182599999V0209999C000019999999N9999999N1-00131-00751999999ADDMA1999999079191MD1210041+9999ME1312599OA149900101REMSYN076AAXX  01134 06722 33/// /0000 11013 21075 37919 48259 52004 333 91102 91201;
0137067220999992010010114004+46117+007517FM-12+182599999V0203401N001019999999N9999999N1-00121-00551999999ADDMA1999999079261MD1219999+9999ME1312669OA149900151REMSYN076AAXX  01144 06722 33/// /3402 11012 21055 37926 48266 52/// 333 91103 91202;
0137067220999992010010115004+46117+007517FM-12+182599999V0201101N000519999999N9999999N1-00191-00611999999ADDMA1999999079341MD1310181+9999ME1312769OA149900151REMSYN076AAXX  01154 06722 33/// /1101 11019 21061 37934 48276 53018 333 91103 91202;
0137067220999992010010116004+46117+007517FM-12+182599999V0203001N000519999999N9999999N1-00281-00481999999ADDMA1999999079421MD1110231+9999ME1312869OA149900211REMSYN076AAXX  01164 06722 33/// /3001 11028 21048 37942 48286 51023 333 91104 91203;
0154067220999992010010117004+46117+007517FM-12+182599999V0209999C000019999999N9999999N1-00311-00451999999ADDAA101000021MA1999999079531MD1310271+9999ME1312979OA149900211REMSYN082AAXX  01174 06722 23/// /0000 11031 21045 37953 48297 53027 333 69925 91104 91203;
0300067220999992010010118004+46117+007517FM-12+182599999V0202901N001010003019N0002001N1-00341-00401999999ADDAA112000891AJ100419199999999AL11200191AY171061AY241061GA1091+999999999GF109991091999999999999999IA1239KA1120M-00031MA1999999079651MD1310311+9999ME1313109MW1731OA149900571REMSYN118AAXX  01184 06722 01/02 92902 11034 21040 37965 48310 53031 69982 77374 333 11003 47041 69965 90766 93101 91111 91204;
0137067220999992010010119004+46117+007517FM-12+182599999V0203401N002619999999N9999999N1-00281-00771999999ADDMA1999999079791MD1310371+9999ME1313239OA149900881REMSYN076AAXX  01194 06722 33/// /3405 11028 21077 37979 48323 53037 333 91117 91209;
0137067220999992010010120004+46117+007517FM-12+182599999V0202201N000519999999N9999999N1-00471-00471999999ADDMA1999999079881MD1110351+9999ME1313369OA149900881REMSYN076AAXX  01204 06722 33/// /2201 11047 21047 37988 48336 51035 333 91117 91209;
0137067220999992010010121004+46117+007517FM-12+182599999V0209999C000019999999N9999999N1-00461-00501999999ADDMA1999999079941MD1210291+9999ME1313419OA149900881REMSYN076AAXX  01214 06722 33/// /0000 11046 21050 37994 48341 52029 333 91117 91209;
0154067220999992010010122004+46117+007517FM-12+182599999V0202301N001019999999N9999999N1-00481-00481999999ADDAA101000021MA1999999079991MD1210201+9999ME1313479OA149900261REMSYN082AAXX  01224 06722 23/// /2302 11048 21048 37999 48347 52020 333 69915 91105 91202;
0137067220999992010010123004+46117+007517FM-12+182599999V0202901N001019999999N9999999N1-00481-00511999999ADDMA1999999080021MD1110141+9999ME1313509OA149900261REMSYN076AAXX  01234 06722 33/// /2902 11048 21051 38002 48350 51014 333 91105 91202;
0160067220999992010010200004+46117+007517FM-12+182599999V0203001N000519999999N9999999N1-00561-00641999999ADDAA106000021MA1999999080051MD1110111+9999ME1313549OA149900881REMSYN088AAXX  02004 06722 03/// /3001 11056 21064 38005 48354 51011 69911 333 60005 91117 91209;
0154067220999992010010201004+46117+007517FM-12+182599999V0202701N000519999999N9999999N1-00621-00661999999ADDAA101000021MA1999999080081MD1210091+9999ME1313589OA149900261REMSYN082AAXX  02014 06722 23/// /2701 11062 21066 38008 48358 52009 333 69915 91105 91203;
0096067220999992010010202004+46117+007517FM-12+182599999V0203001N000519999999N9999999N1-00631-00791999999ADDMA1999999080161ME1313669REMSYN060AAXX  02024 06722 33/// /3001 11063 21079 38016 48366 5////;
0137067220999992010010203004+46117+007517FM-12+182599999V0203101N001519999999N9999999N1-00681-00971999999ADDMA1999999080241MD1310191+9999ME1313759OA149900411REMSYN076AAXX  02034 06722 33/// /3103 11068 21097 38024 48375 53019 333 91108 91203;
0137067220999992010010204004+46117+007517FM-12+182599999V0201301N002119999999N9999999N1-00831-01051999999ADDMA1999999080281MD1110201+9999ME1313829OA149900671REMSYN076AAXX  02044 06722 33/// /1304 11083 21105 38028 48382 51020 333 91113 91205;
0137067220999992010010205004+46117+007517FM-12+182599999V0203001N002119999999N9999999N1-00821-01141999999ADDMA1999999080311MD1210151+9999ME1313849OA149900671REMSYN076AAXX  02054 06722 33/// /3004 11082 21114 38031 48384 52015 333 91113 91205;
0365067220999992010010206004+46117+007517FM-12+182599999V0202801N002110039019N0150001N1-00891-01221999999ADDAA112000021AA224001091AJ100429199999999AL19900191AL29900391AY171061AY221061GA1061+003901061GF106991999999004501999999GJ100609IA1279IA2999-00109KA1999N-00861MA1999999080331MD1210091+9999ME1313889MW1161OA149900881REMSYN142AAXX  02064 06722 01465 62804 11089 21122 38033 48388 52009 69922 71672 333 21086 3/101 43042 55010 60005 70010 86613 90768 93103 91117 91209;
0137067220999992010010207004+46117+007517FM-12+182599999V0203001N001019999999N9999999N1-00941-01241999999ADDMA1999999080431MD1210151+9999ME1313989OA149900821REMSYN076AAXX  02074 06722 33/// /3002 11094 21124 38043 48398 52015 333 91116 91209;
0096067220999992010010208004+46117+007517FM-12+182599999V0202701N002119999999N9999999N1-01011-01551999999ADDMA1999999080451ME1314019REMSYN060AAXX  02084 06722 33/// /2704 11101 21155 38045 48401 5////;
0137067220999992010010209004+46117+007517FM-12+182599999V0203001N001019999999N9999999N1-01041-01211999999ADDMA1999999080541MD1110211+9999ME1314109OA149900821REMSYN076AAXX  02094 06722 33/// /3002 11104 21121 38054 48410 51021 333 91116 91209;
0137067220999992010010210004+46117+007517FM-12+182599999V0203001N003119999999N9999999N1-01051-01391999999ADDMA1999999080611MD1310181+9999ME1314179OA149900721REMSYN076AAXX  02104 06722 33/// /3006 11105 21139 38061 48417 53018 333 91114 91206;
0154067220999992010010211004+46117+007517FM-12+182599999V0202801N003619999999N9999999N1-00961-01641999999ADDAA101000021MA1999999080661MD1110211+9999ME1314219OA149900721REMSYN082AAXX  02114 06722 23/// /2807 11096 21164 38066 48421 51021 333 69915 91114 91207;
0255067220999992010010212004+46117+007517FM-12+182599999V0202801N003110069019N0600001N1-00921-01571999999ADDAA106000091AY171061AY221061GA1051+006901061GF105991999999008001999999MA1999999080701MD1210161+9999ME1314249MW1011OA149900821REMSYN100AAXX  02124 06722 01586 52806 11092 21157 38070 48424 52016 69911 70172 333 60005 85623 91116 91209;EQDQ01  00002PRCP06
0137067220999992010010213004+46117+007517FM-12+182599999V0202901N003119999999N9999999N1-01001-01661999999ADDMA1999999080751MD1310141+9999ME1314309OA149900931REMSYN076AAXX  02134 06722 33/// /2906 11100 21166 38075 48430 53014 333 91118 91209;
0137067220999992010010214004+46117+007517FM-12+182599999V0202901N004119999999N9999999N1-01031-01841999999ADDMA1999999080801MD1319999+9999ME1314359OA149900931REMSYN076AAXX  02144 06722 33/// /2908 11103 21184 38080 48435 53/// 333 91118 91210;
0137067220999992010010215004+46117+007517FM-12+182599999V0203201N004119999999N9999999N1-01141-02181999999ADDMA1999999080921MD1310221+9999ME1314499OA149900931REMSYN076AAXX  02154 06722 33/// /3208 11114 21218 38092 48449 53022 333 91118 91210;
0137067220999992010010216004+46117+007517FM-12+182599999V0203201N003619999999N9999999N1-01231-02271999999ADDMA1999999081011MD1310261+9999ME1314599OA149900821REMSYN076AAXX  02164 06722 33/// /3207 11123 21227 38101 48459 53026 333 91116 91208;
0137067220999992010010217004+46117+007517FM-12+182599999V0200801N001519999999N9999999N1-01431-02411999999ADDMA1999999081061MD1110261+9999ME1314669OA149900571REMSYN076AAXX  02174 06722 33/// /0803 11143 21241 38106 48466 51026 333 91111 91207;
0297067220999992010010218004+46117+007517FM-12+182599999V0200301N003112200019N0750001N1-01421-02251999999ADDAA112000091AJ100419199999999AL19900091GA1011+021001031GF101991999999022501999999IA1279KA1120M-00851MA1999999081121MD1310201+9999ME1314729OA149900931REMSYN118AAXX  02184 06722 02889 10306 11142 21225 38112 48472 53020 69912 333 11085 43041 60005 81357 90766 93100 91118 91210;EQDQ01  00002PRCP12
0137067220999992010010219004+46117+007517FM-12+182599999V0200501N002619999999N9999999N1-01311-02361999999ADDMA1999999081151MD1210141+9999ME1314739OA149900721REMSYN076AAXX  02194 06722 33/// /0505 11131 21236 38115 48473 52014 333 91114 91208;
0137067220999992010010220004+46117+007517FM-12+182599999V0200401N003119999999N9999999N1-01241-02711999999ADDMA1999999081151MD1210091+9999ME1314729OA149900571REMSYN076AAXX  02204 06722 33/// /0406 11124 21271 38115 48472 52009 333 91111 91207;
0137067220999992010010221004+46117+007517FM-12+182599999V0200501N002119999999N9999999N1-01341-02641999999ADDMA1999999081131MD1010011+9999ME1314719OA149900721REMSYN076AAXX  02214 06722 33/// /0504 11134 21264 38113 48471 50001 333 91114 91208;
0137067220999992010010222004+46117+007517FM-12+182599999V0200301N002619999999N9999999N1-01361-02601999999ADDMA1999999081161MD1010011+9999ME1314759OA149900621REMSYN076AAXX  02224 06722 33/// /0305 11136 21260 38116 48475 50001 333 91112 91208;
0137067220999992010010223004+46117+007517FM-12+182599999V0200701N001519999999N9999999N1-01231-02751999999ADDMA1999999081201MD1310051+9999ME1314779OA149900621REMSYN076AAXX  02234 06722 33/// /0703 11123 21275 38120 48477 53005 333 91112 91208;
0137067220999992010010300004+46117+007517FM-12+182599999V0200501N002619999999N9999999N1-01311-02891999999ADDMA1999999081161MD1010031+9999ME1314749OA149900931REMSYN076AAXX  03004 06722 33/// /0505 11131 21289 38116 48474 50003 333 91118 91210;
0156067220999992010010301004+46117+007517FM-12+182599999V0200401N002119999999N9999999N1-01221-03221999999ADDMA1999999081161MD1410001+9999ME1314739OA149900571REMSYN076AAXX  03014 06722 33/// /0404 11122 21322 38116 48473 58000 333 91111 91206;EQDQ01+000082APCTEN
0096067220999992010010302004+46117+007517FM-12+182599999V0200501N001019999999N9999999N1-01281-02711999999ADDMA1999999081231ME1314809REMSYN060AAXX  03024 06722 33/// /0502 11128 21271 38123 48480 5////;
0096067220999992010010303004+46117+007517FM-12+182599999V0200601N002119999999N9999999N1-01181-02671999999ADDMA1999999081201ME1314769REMSYN060AAXX  03034 06722 33/// /0604 11118 21267 38120 48476 5////;
0137067220999992010010304004+46117+007517FM-12+182599999V0200101N000519999999N9999999N1-01231-02511999999ADDMA1999999081171MD1010011+9999ME1314749OA149900411REMSYN076AAXX  03044 06722 33/// /0101 11123 21251 38117 48474 50001 333 91108 91205;
0137067220999992010010305004+46117+007517FM-12+182599999V0200801N000519999999N9999999N1-01211-02461999999ADDMA1999999081141MD1719999+9999ME1314719OA149900361REMSYN076AAXX  03054 06722 33/// /0801 11121 21246 38114 48471 57/// 333 91107 91204;
0323067220999992010010306004+46117+007517FM-12+182599999V0209999C000010630019N0750001N1-01281-02491999999ADDAA124000091AJ100419199999999AL19900091GA1071+063001021GF107991999999999999999999GJ101269IA1279IA2999-00409KA1999N-01441MA1999999081131MD1810071+9999ME1314719OA149900621REMSYN124AAXX  03064 06722 32989 70000 11128 21249 38113 48471 58007 333 21144 3/104 43041 55021 70001 87271 90768 93100 91112 91208;EQDQ01  00002PRCP24
0137067220999992010010307004+46117+007517FM-12+182599999V0203501N000519999999N9999999N1-01291-02591999999ADDMA1999999081141MD1710031+9999ME1314729OA149900151REMSYN076AAXX  03074 06722 33/// /3501 11129 21259 38114 48472 57003 333 91103 91201;
0137067220999992010010308004+46117+007517FM-12+182599999V0201001N000519999999N9999999N1-01141-02461999999ADDMA1999999081161MD1319999+9999ME1314729OA149900211REMSYN076AAXX  03084 06722 33/// /1001 11114 21246 38116 48472 53/// 333 91104 91202;
0137067220999992010010309004+46117+007517FM-12+182599999V0209999C000019999999N9999999N1-01081-02831999999ADDMA1999999081171MD1210041+9999ME1314729OA149900361REMSYN076AAXX  03094 06722 33/// /0000 11108 21283 38117 48472 52004 333 91107 91204;
0137067220999992010010310004+46117+007517FM-12+182599999V0201101N000519999999N9999999N1-01011-02391999999ADDMA1999999081161MD1010021+9999ME1314709OA149900151REMSYN076AAXX  03104 06722 33/// /1101 11101 21239 38116 48470 50002 333 91103 91202;
0137067220999992010010311004+46117+007517FM-12+182599999V0200101N001519999999N9999999N1-00911-02501999999ADDMA1999999081101MD1810061+9999ME1314639OA149900261REMSYN076AAXX  03114 06722 33/// /0103 11091 21250 38110 48463 58006 333 91105 91203;
0185067220999992010010312004+46117+007517FM-12+182599999V0201301N001010210019N0400001N1-00961-02171999999ADDGA1081+021001041GF108991999999022501999999MA1999999081081MD1710091+9999ME1314619OA149900461REMSYN082AAXX  03124 06722 32882 81302 11096 21217 38108 48461 57009 333 88457 91109 91206;
0137067220999992010010313004+46117+007517FM-12+182599999V0209999C000019999999N9999999N1-00781-02211999999ADDMA1999999081031MD1710131+9999ME1314549OA149900211REMSYN076AAXX  03134 06722 33/// /0000 11078 21221 38103 48454 57013 333 91104 91202;
0137067220999992010010314004+46117+007517FM-12+182599999V0209999C000019999999N9999999N1-00841-01871999999ADDMA1999999081051MD1710051+9999ME1314579OA149900151REMSYN076AAXX  03144 06722 33/// /0000 11084 21187 38105 48457 57005 333 91103 91202;
0137067220999992010010315004+46117+007517FM-12+182599999V0200501N001019999999N9999999N1-00611-02171999999ADDMA1999999081061MD1510021+9999ME1314549OA149900261REMSYN076AAXX  03154 06722 33/// /0502 11061 21217 38106 48454 55002 333 91105 91203;
0137067220999992010010316004+46117+007517FM-12+182599999V0200501N001519999999N9999999N1-00621-01981999999ADDMA1999999081041MD1010011+9999ME1314539OA149900261REMSYN076AAXX  03164 06722 33/// /0503 11062 21198 38104 48453 50001 333 91105 91203;
0137067220999992010010317004+46117+007517FM-12+182599999V0201401N000519999999N9999999N1-00711-01801999999ADDMA1999999081001MD1810051+9999ME1314509OA149900261REMSYN076AAXX  03174 06722 33/// /1401 11071 21180 38100 48450 58005 333 91105 91203;
0255067220999992010010318004+46117+007517FM-12+182599999V0209999C000010270019N0750001N1-00801-01651999999ADDAJ100409199999999AL19900091GA1071+027001041GF107991999999999999999999IA1279KA1120M-00611MA1999999081031MD1510031+9999ME1314549OA149900261REMSYN106AAXX  03184 06722 32989 70000 11080 21165 38103 48454 55003 333 11061 43040 87459 90766 93100 91105 91203;
0137067220999992010010319004+46117+007517FM-12+182599999V0201101N000519999999N9999999N1-00771-01791999999ADDMA1999999081001MD1710041+9999ME1314519OA149900151REMSYN076AAXX  03194 06722 33/// /1101 11077 21179 38100 48451 57004 333 91103 91202;
0137067220999992010010320004+46117+007517FM-12+182599999V0203501N000519999999N9999999N1-00801-01941999999ADDMA1999999080971MD1810031+9999ME1314489OA149900211REMSYN076AAXX  03204 06722 33/// /3501 11080 21194 38097 48448 58003 333 91104 91202;
0137067220999992010010321004+46117+007517FM-12+182599999V0200101N001519999999N9999999N1-00861-02131999999ADDMA1999999080951MD1710081+9999ME1314479OA149900261REMSYN076AAXX  03214 06722 33/// /0103 11086 21213 38095 48447 57008 333 91105 91203;
0137067220999992010010322004+46117+007517FM-12+182599999V0201001N001019999999N9999999N1-00801-01941999999ADDMA1999999080951MD1510051+9999ME1314479OA149900411REMSYN076AAXX  03224 06722 33/// /1002 11080 21194 38095 48447 55005 333 91108 91203;
0137067220999992010010323004+46117+007517FM-12+182599999V0200601N001519999999N9999999N1-00741-02041999999ADDMA1999999080901MD1710071+9999ME1314419OA149900411REMSYN076AAXX  03234 06722 33/// /0603 11074 21204 38090 48441 57007 333 91108 91204;
0137067220999992010010400004+46117+007517FM-12+182599999V0200901N001019999999N9999999N1-00731-01871999999ADDMA1999999080841MD1710111+9999ME1314359OA149900411REMSYN076AAXX  04004 06722 33/// /0902 11073 21187 38084 48435 57011 333 91108 91204;
0137067220999992010010401004+46117+007517FM-12+182599999V0200401N000519999999N9999999N1-00711-01931999999ADDMA1999999080791MD1610161+9999ME1314309OA149900311REMSYN076AAXX  04014 06722 33/// /0401 11071 21193 38079 48430 56016 333 91106 91204;
0137067220999992010010402004+46117+007517FM-12+182599999V0201401N000519999999N9999999N1-00841-01671999999ADDMA1999999080771MD1610131+9999ME1314309OA149900151REMSYN076AAXX  04024 06722 33/// /1401 11084 21167 38077 48430 56013 333 91103 91202;
0137067220999992010010403004+46117+007517FM-12+182599999V0209999C000019999999N9999999N1-00781-01801999999ADDMA1999999080741MD1619999+9999ME1314269OA149900411REMSYN076AAXX  04034 06722 33/// /0000 11078 21180 38074 48426 56/// 333 91108 91204;
0137067220999992010010404004+46117+007517FM-12+182599999V0202701N000519999999N9999999N1-00851-01661999999ADDMA1999999080661MD1810131+9999ME1314199OA149900151REMSYN076AAXX  04044 06722 33/// /2701 11085 21166 38066 48419 58013 333 91103 91202;
0137067220999992010010405004+46117+007517FM-12+182599999V0203601N000519999999N9999999N1-00861-01661999999ADDMA1999999080651MD1710121+9999ME1314189OA149900151REMSYN076AAXX  04054 06722 33/// /3601 11086 21166 38065 48418 57012 333 91103 91201;
0323067220999992010010406004+46117+007517FM-12+182599999V0201201N001010099019N0600001N1-00951-01421999999ADDAA124000091AJ100409199999999AL19900091GA1081+009901041GF108991999999008001999999GJ100009IA1279IA2999-00209KA1999N-00951MA1999999080711MD1510031+9999ME1314259OA149900411REMSYN124AAXX  04064 06722 32586 81202 11095 21142 38071 48425 55003 333 21095 3/102 43040 55000 70000 88433 90768 93100 91108 91204;EQDQ01  00002PRCP24
0137067220999992010010407004+46117+007517FM-12+182599999V0201301N001019999999N9999999N1-00931-01251999999ADDMA1999999080631MD1810031+9999ME1314179OA149900311REMSYN076AAXX  04074 06722 33/// /1302 11093 21125 38063 48417 58003 333 91106 91204;
0173067220999992010010408004+46117+007517FM-12+182599999V0209999C000019999999N9999999N1-01031-01171999999ADDAA101000021MA1999999080651MD1410001+9999ME1314219OA149900311REMSYN082AAXX  04084 06722 23/// /0000 11103 21117 38065 48421 57000 333 69925 91106 91204;EQDQ01+000072APCTEN
0154067220999992010010409004+46117+007517FM-12+182599999V0209999C000019999999N9999999N1-00931-01121999999ADDAA101000391MA1999999080631MD1710081+9999ME1314179OA149900311REMSYN082AAXX  04094 06722 23/// /0000 11093 21112 38063 48417 57008 333 69935 91106 91204;
0173067220999992010010410004+46117+007517FM-12+182599999V0201401N001019999999N9999999N1-00961-01051999999ADDAA101000021MA1999999080631MD1410001+9999ME1314189OA149900261REMSYN082AAXX  04104 06722 23/// /1402 11096 21105 38063 48418 58000 333 69915 91105 91202;EQDQ01+000082APCTEN
0137067220999992010010411004+46117+007517FM-12+182599999V0209999C000019999999N9999999N1-00811-01021999999ADDMA1999999080571MD1710081+9999ME1314109OA149900261REMSYN076AAXX  04114 06722 33/// /0000 11081 21102 38057 48410 57008 333 91105 91202;
0236067220999992010010412004+46117+007517FM-12+182599999V0203401N000510210019N0100001N1-00621-00891999999ADDAA106000591AY171061AY221061GA1081+021001041GF108991999999022501999999MA1999999080491MD1710141+9999ME1313999MW1701OA149900311REMSYN100AAXX  04124 06722 01860 83401 11062 21089 38049 48399 57014 69961 77072 333 60005 88457 91106 91204;
0137067220999992010010413004+46117+007517FM-12+182599999V0209999C000019999999N9999999N1-00781-00881999999ADDMA1999999080451MD1610181+9999ME1313979OA149900211REMSYN076AAXX  04134 06722 33/// /0000 11078 21088 38045 48397 56018 333 91104 91201;
0154067220999992010010414004+46117+007517FM-12+182599999V0201201N000519999999N9999999N1-00601-00791999999ADDAA101000021MA1999999080411MD1619999+9999ME1313919OA149900261REMSYN082AAXX  04144 06722 23/// /1201 11060 21079 38041 48391 56/// 333 69915 91105 91201;
0137067220999992010010415004+46117+007517FM-12+182599999V0203401N000519999999N9999999N1-00541-00741999999ADDMA1999999080401MD1610091+9999ME1313899OA149900261REMSYN076AAXX  04154 06722 33/// /3401 11054 21074 38040 48389 56009 333 91105 91203;
0137067220999992010010416004+46117+007517FM-12+182599999V0203401N001519999999N9999999N1-00651-00811999999ADDMA1999999080391MD1710061+9999ME1313899OA149900311REMSYN076AAXX  04164 06722 33/// /3403 11065 21081 38039 48389 57006 333 91106 91203;
0137067220999992010010417004+46117+007517FM-12+182599999V0200101N000519999999N9999999N1-00481-00771999999ADDMA1999999080371MD1710041+9999ME1313859OA149900361REMSYN076AAXX  04174 06722 33/// /0101 11048 21077 38037 48385 57004 333 91107 91203;
0306067220999992010010418004+46117+007517FM-12+182599999V0201401N001010078019N0030001N1-00681-00741999999ADDAA112000891AJ100419199999999AL11200291AY171061AY241061GA1081+007801051GF108991999999008001999999IA1239KA1120M-00421MA1999999080391MD1710011+9999ME1313909MW1721OA149900361REMSYN124AAXX  04184 06722 01530 81402 11068 21074 38039 48390 57001 69972 77274 333 11042 47041 60005 88526 90766 93102 91107 91204;
0154067220999992010010419004+46117+007517FM-12+182599999V0201001N001019999999N9999999N1-00451-00621999999ADDAA101000021MA1999999080381MD1710011+9999ME1313859OA149900311REMSYN082AAXX  04194 06722 23/// /1002 11045 21062 38038 48385 57001 333 69915 91106 91203;
0154067220999992010010420004+46117+007517FM-12+182599999V0201301N000519999999N9999999N1-00541-00631999999ADDAA101000021MA1999999080371MD1010001+9999ME1313869OA149900211REMSYN082AAXX  04204 06722 23/// /1301 11054 21063 38037 48386 50000 333 69925 91104 91203;
0137067220999992010010421004+46117+007517FM-12+182599999V0201301N000519999999N9999999N1-00511-00651999999ADDMA1999999080361MD1710031+9999ME1313849OA149900361REMSYN076AAXX  04214 06722 33/// /1301 11051 21065 38036 48384 57003 333 91107 91203;
0137067220999992010010422004+46117+007517FM-12+182599999V0200701N000519999999N9999999N1-00471-00771999999ADDMA1999999080321MD1710061+9999ME1313799OA149900211REMSYN076AAXX  04224 06722 33/// /0701 11047 21077 38032 48379 57006 333 91104 91202;
0137067220999992010010423004+46117+007517FM-12+182599999V0200701N000519999999N9999999N1-00591-00871999999ADDMA1999999080311MD1710061+9999ME1313819OA149900211REMSYN076AAXX  04234 06722 33/// /0701 11059 21087 38031 48381 57006 333 91104 91202;
0160067220999992010010500004+46117+007517FM-12+182599999V0200601N001019999999N9999999N1-00621-00991999999ADDAA106000391MA1999999080281MD1710081+9999ME1313789OA149900361REMSYN088AAXX  05004 06722 03/// /0602 11062 21099 38028 48378 57008 69931 333 60005 91107 91203;
0137067220999992010010501004+46117+007517FM-12+182599999V0200801N000519999999N9999999N1-00561-01031999999ADDMA1999999080241MD1710081+9999ME1313739OA149900311REMSYN076AAXX  05014 06722 33/// /0801 11056 21103 38024 48373 57008 333 91106 91203;
0137067220999992010010502004+46117+007517FM-12+182599999V0200601N001019999999N9999999N1-00501-00991999999ADDMA1999999080191MD1710121+9999ME1313679OA149900311REMSYN076AAXX  05024 06722 33/// /0602 11050 21099 38019 48367 57012 333 91106 91203;
0137067220999992010010503004+46117+007517FM-12+182599999V0200501N002619999999N9999999N1-00511-01181999999ADDMA1999999080151MD1710131+9999ME1313639OA149900461REMSYN076AAXX  05034 06722 33/// /0505 11051 21118 38015 48363 57013 333 91109 91205;
0137067220999992010010504004+46117+007517FM-12+182599999V0203501N001019999999N9999999N1-00611-01301999999ADDMA1999999080101MD1710141+9999ME1313609OA149900461REMSYN076AAXX  05044 06722 33/// /3502 11061 21130 38010 48360 57014 333 91109 91205;
0137067220999992010010505004+46117+007517FM-12+182599999V0200301N001019999999N9999999N1-00601-01421999999ADDMA1999999080091MD1710101+9999ME1313599OA149900361REMSYN076AAXX  05054 06722 33/// /0302 11060 21142 38009 48359 57010 333 91107 91203;
0365067220999992010010506004+46117+007517FM-12+182599999V0201001N001012200019N0750001N1-00551-01411999999ADDAA112000391AA224001091AJ100439199999999AL19900191AL29900491AY171061AY211061GA1031+033001041GF103991999999999999999999GJ100009IA1239IA2999-00109KA1999N-00681MA1999999080051MD1710101+9999ME1313549MW1021OA149900461REMSYN142AAXX  05064 06722 01989 31002 11055 21141 38005 48354 57010 69932 70271 333 21068 3/101 47043 55000 60005 70010 83461 90768 93104 91109 91205;
0137067220999992010010507004+46117+007517FM-12+182599999V0200501N001519999999N9999999N1-00431-01461999999ADDMA1999999080011MD1710091+9999ME1313489OA149900361REMSYN076AAXX  05074 06722 33/// /0503 11043 21146 38001 48348 57009 333 91107 91204;
0137067220999992010010508004+46117+007517FM-12+182599999V0200501N001019999999N9999999N1-00581-01451999999ADDMA1999999080011MD1710081+9999ME1313519OA149900361REMSYN076AAXX  05084 06722 33/// /0502 11058 21145 38001 48351 57008 333 91107 91204;
0137067220999992010010509004+46117+007517FM-12+182599999V0200601N001519999999N9999999N1-00561-01431999999ADDMA1999999079991MD1710061+9999ME1313489OA149900361REMSYN076AAXX  05094 06722 33/// /0603 11056 21143 37999 48348 57006 333 91107 91204;
0137067220999992010010510004+46117+007517FM-12+182599999V0200301N001019999999N9999999N1-00501-01401999999ADDMA1999999079961MD1710051+9999ME1313449OA149900361REMSYN076AAXX  05104 06722 33/// /0302 11050 21140 37996 48344 57005 333 91107 91204;
0137067220999992010010511004+46117+007517FM-12+182599999V0200401N000519999999N9999999N1-00421-01371999999ADDMA1999999079891MD1810121+9999ME1313369OA149900311REMSYN076AAXX  05114 06722 33/// /0401 11042 21137 37989 48336 58012 333 91106 91204;
0185067220999992010010512004+46117+007517FM-12+182599999V0203601N000510630019N0750001N1-00381-01171999999ADDGA1061+063001001GF106991999999999999999999MA1999999079831MD1810161+9999ME1313299OA149900461REMSYN082AAXX  05124 06722 32989 63601 11038 21117 37983 48329 58016 333 86071 91109 91205;
0137067220999992010010513004+46117+007517FM-12+182599999V0201401N001019999999N9999999N1-00331-01221999999ADDMA1999999079771MD1610191+9999ME1313229OA149900151REMSYN076AAXX  05134 06722 33/// /1402 11033 21122 37977 48322 56019 333 91103 91202;
0096067220999992010010514004+46117+007517FM-12+182599999V0200701N000519999999N9999999N1-00381-01271999999ADDMA1999999079731ME1313199REMSYN060AAXX  05144 06722 33/// /0701 11038 21127 37973 48319 5////;
0137067220999992010010515004+46117+007517FM-12+182599999V0200501N001019999999N9999999N1-00421-01331999999ADDMA1999999079721MD1610111+9999ME1313199OA149900311REMSYN076AAXX  05154 06722 33/// /0502 11042 21133 37972 48319 56011 333 91106 91204;
0137067220999992010010516004+46117+007517FM-12+182599999V0200401N001519999999N9999999N1-00611-01391999999ADDMA1999999079711MD1710061+9999ME1313219OA149900361REMSYN076AAXX  05164 06722 33/// /0403 11061 21139 37971 48321 57006 333 91107 91203;
0137067220999992010010517004+46117+007517FM-12+182599999V0200101N001519999999N9999999N1-00531-01391999999ADDMA1999999079691MD1710041+9999ME1313189OA149900361REMSYN076AAXX  05174 06722 33/// /0103 11053 21139 37969 48318 57004 333 91107 91205;
0277067220999992010010518004+46117+007517FM-12+182599999V0200301N001512200019N0750001N1-00631-01431999999ADDAJ100419199999999AL19900091GA1011+027001041GA2031+063001001GF103991999999999999999999IA1279KA1120M-00301MA1999999079691MD1710031+9999ME1313209OA149900361REMSYN112AAXX  05184 06722 32989 30303 11063 21143 37969 48320 57003 333 11030 43041 81459 83071 90766 93100 91107 91205;
0137067220999992010010519004+46117+007517FM-12+182599999V0200501N001519999999N9999999N1-00701-01461999999ADDMA1999999079691MD1710021+9999ME1313219OA149900361REMSYN076AAXX  05194 06722 33/// /0503 11070 21146 37969 48321 57002 333 91107 91204;
0137067220999992010010520004+46117+007517FM-12+182599999V0200601N001519999999N9999999N1-00611-01381999999ADDMA1999999079641MD1810051+9999ME1313149OA149900361REMSYN076AAXX  05204 06722 33/// /0603 11061 21138 37964 48314 58005 333 91107 91205;
0137067220999992010010521004+46117+007517FM-12+182599999V0200201N001519999999N9999999N1-00611-01401999999ADDMA1999999079611MD1710081+9999ME1313119OA149900411REMSYN076AAXX  05214 06722 33/// /0203 11061 21140 37961 48311 57008 333 91108 91205;
0137067220999992010010522004+46117+007517FM-12+182599999V0200401N002619999999N9999999N1-00701-01421999999ADDMA1999999079581MD1610111+9999ME1313109OA149900461REMSYN076AAXX  05224 06722 33/// /0405 11070 21142 37958 48310 56011 333 91109 91205;
0137067220999992010010523004+46117+007517FM-12+182599999V0200301N003119999999N9999999N1-00761-01461999999ADDMA1999999079571MD1610071+9999ME1313109OA149900461REMSYN076AAXX  05234 06722 33/// /0306 11076 21146 37957 48310 56007 333 91109 91206;
0137067220999992010010600004+46117+007517FM-12+182599999V0200501N001519999999N9999999N1-00651-01471999999ADDMA1999999079561MD1710051+9999ME1313079OA149900461REMSYN076AAXX  06004 06722 33/// /0503 11065 21147 37956 48307 57005 333 91109 91206;
0137067220999992010010601004+46117+007517FM-12+182599999V0200201N001519999999N9999999N1-00671-01471999999ADDMA1999999079531MD1710051+9999ME1313059OA149900411REMSYN076AAXX  06014 06722 33/// /0203 11067 21147 37953 48305 57005 333 91108 91205;
0137067220999992010010602004+46117+007517FM-12+182599999V0200101N001019999999N9999999N1-00631-01451999999ADDMA1999999079561MD1510011+9999ME1313079OA149900361REMSYN076AAXX  06024 06722 33/// /0102 11063 21145 37956 48307 55001 333 91107 91204;
0137067220999992010010603004+46117+007517FM-12+182599999V0200401N003119999999N9999999N1-00751-01491999999ADDMA1999999079531MD1710031+9999ME1313069OA149900511REMSYN076AAXX  06034 06722 33/// /0406 11075 21149 37953 48306 57003 333 91110 91206;
0137067220999992010010604004+46117+007517FM-12+182599999V0200501N000519999999N9999999N1-00641-01401999999ADDMA1999999079541MD1010011+9999ME1313059OA149900511REMSYN076AAXX  06044 06722 33/// /0501 11064 21140 37954 48305 50001 333 91110 91206;
0137067220999992010010605004+46117+007517FM-12+182599999V0200501N002619999999N9999999N1-00631-01421999999ADDMA1999999079531MD1710031+9999ME1313049OA149900461REMSYN076AAXX  06054 06722 33/// /0505 11063 21142 37953 48304 57003 333 91109 91205;
0323067220999992010010606004+46117+007517FM-12+182599999V0200101N001512200019N0750001N1-00711-01491999999ADDAA124000091AJ100419199999999AL19900091GA1011+033001041GF101991999999999999999999GJ101629IA1279IA2999-00209KA1999N-00781MA1999999079511MD1810021+9999ME1313039OA149900621REMSYN124AAXX  06064 06722 32989 10103 11071 21149 37951 48303 58002 333 21078 3/102 43041 55027 70000 81461 90768 93100 91112 91210;EQDQ01  00002PRCP24
0137067220999992010010607004+46117+007517FM-12+182599999V0200301N003119999999N9999999N1-00761-01511999999ADDMA1999999079521MD1510021+9999ME1313059OA149900621REMSYN076AAXX  06074 06722 33/// /0306 11076 21151 37952 48305 55002 333 91112 91210;
0137067220999992010010608004+46117+007517FM-12+182599999V0200301N002119999999N9999999N1-00751-01541999999ADDMA1999999079541MD1210011+9999ME1313079OA149900511REMSYN076AAXX  06084 06722 33/// /0304 11075 21154 37954 48307 52001 333 91110 91206;
0137067220999992010010609004+46117+007517FM-12+182599999V0200301N000519999999N9999999N1-00751-01551999999ADDMA1999999079601MD1210091+9999ME1313139OA149900621REMSYN076AAXX  06094 06722 33/// /0301 11075 21155 37960 48313 52009 333 91112 91210;
0137067220999992010010610004+46117+007517FM-12+182599999V0209999C000019999999N9999999N1-00681-01411999999ADDMA1999999079621MD1110101+9999ME1313149OA149900311REMSYN076AAXX  06104 06722 33/// /0000 11068 21141 37962 48314 51010 333 91106 91203;
0137067220999992010010611004+46117+007517FM-12+182599999V0202801N001019999999N9999999N1-00691-01251999999ADDMA1999999079601MD1019999+9999ME1313129OA149900211REMSYN076AAXX  06114 06722 33/// /2802 11069 21125 37960 48312 50/// 333 91104 91202;
0185067220999992010010612004+46117+007517FM-12+182599999V0202901N000512200019N0750001N1-00811-01211999999ADDGA1011+033001041GF101991999999999999999999MA1999999079601MD1010001+9999ME1313149OA149900621REMSYN082AAXX  06124 06722 32989 12901 11081 21121 37960 48314 50000 333 81461 91112 91210;
0137067220999992010010613004+46117+007517FM-12+182599999V0209999C000019999999N9999999N1-00751-01221999999ADDMA1999999079611MD1710011+9999ME1313149OA149900261REMSYN076AAXX  06134 06722 33/// /0000 11075 21122 37961 48314 57001 333 91105 91203;
0137067220999992010010614004+46117+007517FM-12+182599999V0201501N001019999999N9999999N1-00661-01311999999ADDMA1999999079611MD1219999+9999ME1313129OA149900151REMSYN076AAXX  06144 06722 33/// /1502 11066 21131 37961 48312 52/// 333 91103 91202;
0137067220999992010010615004+46117+007517FM-12+182599999V0200701N000519999999N9999999N1-00711-01441999999ADDMA1999999079631MD1219999+9999ME1313159OA149900261REMSYN076AAXX  06154 06722 33/// /0701 11071 21144 37963 48315 52/// 333 91105 91203;
0137067220999992010010616004+46117+007517FM-12+182599999V0200401N001019999999N9999999N1-00781-01591999999ADDMA1999999079671MD1210061+9999ME1313219OA149900261REMSYN076AAXX  06164 06722 33/// /0402 11078 21159 37967 48321 52006 333 91105 91203;
0137067220999992010010617004+46117+007517FM-12+182599999V0203301N001019999999N9999999N1-00931-01551999999ADDMA1999999079711MD1210101+9999ME1313289OA149900261REMSYN076AAXX  06174 06722 33/// /3302 11093 21155 37971 48328 52010 333 91105 91203;
0255067220999992010010618004+46117+007517FM-12+182599999V0200701N001012200019N0750001N1-01021-01711999999ADDAJ100409199999999AL19900091GA1011+027001041GF101991999999999999999999IA1279KA1120M-00611MA1999999079781MD1319999+9999ME1313369OA149900511REMSYN106AAXX  06184 06722 32989 10702 11102 21171 37978 48336 53/// 333 11061 43040 81459 90766 93100 91110 91206;
0137067220999992010010619004+46117+007517FM-12+182599999V0200501N002119999999N9999999N1-00951-01631999999ADDMA1999999079821MD1110151+9999ME1313399OA149900411REMSYN076AAXX  06194 06722 33/// /0504 11095 21163 37982 48339 51015 333 91108 91204;
0137067220999992010010620004+46117+007517FM-12+182599999V0200601N002119999999N9999999N1-00931-01701999999ADDMA1999999079831MD1210121+9999ME1313399OA149900411REMSYN076AAXX  06204 06722 33/// /0604 11093 21170 37983 48339 52012 333 91108 91205;
0137067220999992010010621004+46117+007517FM-12+182599999V0200301N001519999999N9999999N1-00961-01831999999ADDMA1999999079821MD1010041+9999ME1313399OA149900411REMSYN076AAXX  06214 06722 33/// /0303 11096 21183 37982 48339 50004 333 91108 91205;
0137067220999992010010622004+46117+007517FM-12+182599999V0200901N002119999999N9999999N1-01091-01851999999ADDMA1999999079851MD1210031+9999ME1313449OA149900361REMSYN076AAXX  06224 06722 33/// /0904 11109 21185 37985 48344 52003 333 91107 91204;
0137067220999992010010623004+46117+007517FM-12+182599999V0203601N000519999999N9999999N1-01211-01791999999ADDMA1999999079911MD1210081+9999ME1313529OA149900411REMSYN076AAXX  06234 06722 33/// /3601 11121 21179 37991 48352 52008 333 91108 91206;
0137067220999992010010700004+46117+007517FM-12+182599999V0201001N002119999999N9999999N1-01101-01711999999ADDMA1999999079931MD1210111+9999ME1313529OA149900411REMSYN076AAXX  07004 06722 33/// /1004 11110 21171 37993 48352 52011 333 91108 91206;
0137067220999992010010701004+46117+007517FM-12+182599999V0200501N001019999999N9999999N1-01211-01971999999ADDMA1999999079921MD1010071+9999ME1313539OA149900361REMSYN076AAXX  07014 06722 33/// /0502 11121 21197 37992 48353 50007 333 91107 91204;
0137067220999992010010702004+46117+007517FM-12+182599999V0201101N001019999999N9999999N1-01191-01881999999ADDMA1999999079961MD1319999+9999ME1313579OA149900361REMSYN076AAXX  07024 06722 33/// /1102 11119 21188 37996 48357 53/// 333 91107 91204;
0137067220999992010010703004+46117+007517FM-12+182599999V0209999C000019999999N9999999N1-01111-02141999999ADDMA1999999079941MD1210011+9999ME1313539OA149900411REMSYN076AAXX  07034 06722 33/// /0000 11111 21214 37994 48353 52001 333 91108 91206;
0137067220999992010010704004+46117+007517FM-12+182599999V0200501N001519999999N9999999N1-01111-02161999999ADDMA1999999079951MD1210031+9999ME1313549OA149900461REMSYN076AAXX  07044 06722 33/// /0503 11111 21216 37995 48354 52003 333 91109 91204;
0137067220999992010010705004+46117+007517FM-12+182599999V0200501N001019999999N9999999N1-01151-02891999999ADDMA1999999079961MD1510001+9999ME1313569OA149900461REMSYN076AAXX  07054 06722 33/// /0502 11115 21289 37996 48356 55000 333 91109 91204;
0323067220999992010010706004+46117+007517FM-12+182599999V0200201N001012200019N0750001N1-01211-03121999999ADDAA124000091AJ100409199999999AL19900091GA1021+033001041GF103991999999999999999999GJ103489IA1279IA2999-00209KA1999N-01281MA1999999080011MD1210071+9999ME1313629OA149900461REMSYN124AAXX  07064 06722 32989 30202 11121 21312 38001 48362 52007 333 21128 3/102 43040 55058 70000 82461 90768 93100 91109 91206;EQDQ01  00002PRCP24
0137067220999992010010707004+46117+007517FM-12+182599999V0200501N001519999999N9999999N1-00961-02961999999ADDMA1999999080051MD1310101+9999ME1313619OA149900411REMSYN076AAXX  07074 06722 33/// /0503 11096 21296 38005 48361 53010 333 91108 91203;
0137067220999992010010708004+46117+007517FM-12+182599999V0209999C000019999999N9999999N1-01061-03021999999ADDMA1999999080091MD1119999+9999ME1313679OA149900411REMSYN076AAXX  07084 06722 33/// /0000 11106 21302 38009 48367 51/// 333 91108 91203;
0137067220999992010010709004+46117+007517FM-12+182599999V0203001N001519999999N9999999N1-00941-03231999999ADDMA1999999080131MD1310121+9999ME1313699OA149900511REMSYN076AAXX  07094 06722 33/// /3003 11094 21323 38013 48369 53012 333 91110 91204;
0137067220999992010010710004+46117+007517FM-12+182599999V0203601N000519999999N9999999N1-00931-02141999999ADDMA1999999080191MD1310141+9999ME1313759OA149900511REMSYN076AAXX  07104 06722 33/// /3601 11093 21214 38019 48375 53014 333 91110 91203;
0137067220999992010010711004+46117+007517FM-12+182599999V0209999C000019999999N9999999N1-00801-02091999999ADDMA1999999080161MD1210071+9999ME1313699OA149900261REMSYN076AAXX  07114 06722 33/// /0000 11080 21209 38016 48369 52007 333 91105 91203;
0226067220999992010010712004+46117+007517FM-12+182599999V0203101N001010330019N0750001N1-00781-01761999999ADDGA1011+021001031GA2081+033001041GF108991999999022501999999MA1999999080131MD1410001+9999ME1313669OA149900511REMSYN088AAXX  07124 06722 32889 83102 11078 21176 38013 48366 58000 333 81357 88461 91110 91204;EQDQ01+000082APCTEN
0137067220999992010010713004+46117+007517FM-12+182599999V0202801N001019999999N9999999N1-00691-02041999999ADDMA1999999080121MD1710071+9999ME1313649OA149900211REMSYN076AAXX  07134 06722 33/// /2802 11069 21204 38012 48364 57007 333 91104 91202;
0096067220999992010010716004+46117+007517FM-12+182599999V0200201N000519999999N9999999N1-00711-01951999999ADDMA1999999080201ME1313729REMSYN060AAXX  07164 06722 33/// /0201 11071 21195 38020 48372 5/008;
0137067220999992010010717004+46117+007517FM-12+182599999V0200801N000519999999N9999999N1-00781-01691999999ADDMA1999999080231MD1219999+9999ME1313769OA149900151REMSYN076AAXX  07174 06722 33/// /0801 11078 21169 38023 48376 52/// 333 91103 91202;
0255067220999992010010718004+46117+007517FM-12+182599999V0203501N001010210019N0500001N1-00761-01931999999ADDAJ100399199999999AL19900091GA1081+021001041GF108991999999022501999999IA1279KA1120M-00641MA1999999080261MD1219999+9999ME1313799OA149900511REMSYN106AAXX  07184 06722 32884 83502 11076 21193 38026 48379 52/// 333 11064 43039 88457 90766 93100 91110 91203;
0137067220999992010010719004+46117+007517FM-12+182599999V0200401N000519999999N9999999N1-00791-01811999999ADDMA1999999080261MD1210061+9999ME1313799OA149900211REMSYN076AAXX  07194 06722 33/// /0401 11079 21181 38026 48379 52006 333 91104 91202;
0137067220999992010010720004+46117+007517FM-12+182599999V0200401N000519999999N9999999N1-00761-01811999999ADDMA1999999080271MD1210041+9999ME1313799OA149900151REMSYN076AAXX  07204 06722 33/// /0401 11076 21181 38027 48379 52004 333 91103 91202;
0137067220999992010010721004+46117+007517FM-12+182599999V0200801N000519999999N9999999N1-00751-01761999999ADDMA1999999080251MD1810011+9999ME1313779OA149900211REMSYN076AAXX  07214 06722 33/// /0801 11075 21176 38025 48377 58001 333 91104 91202;
0137067220999992010010722004+46117+007517FM-12+182599999V0200401N001019999999N9999999N1-00801-01491999999ADDMA1999999080221MD1710041+9999ME1313759OA149900261REMSYN076AAXX  07224 06722 33/// /0402 11080 21149 38022 48375 57004 333 91105 91203;
0137067220999992010010723004+46117+007517FM-12+182599999V0203101N001019999999N9999999N1-00861-01451999999ADDMA1999999080211MD1710061+9999ME1313759OA149900261REMSYN076AAXX  07234 06722 33/// /3102 11086 21145 38021 48375 57006 333 91105 91203;
0137067220999992010010800004+46117+007517FM-12+182599999V0203301N000519999999N9999999N1-00941-01331999999ADDMA1999999080161MD1710091+9999ME1313729OA149900261REMSYN076AAXX  08004 06722 33/// /3301 11094 21133 38016 48372 57009 333 91105 91203;
0137067220999992010010801004+46117+007517FM-12+182599999V0201301N001019999999N9999999N1-00971-01181999999ADDMA1999999080111MD1810111+9999ME1313679OA149900151REMSYN076AAXX  08014 06722 33/// /1302 11097 21118 38011 48367 58011 333 91103 91202;
0137067220999992010010802004+46117+007517FM-12+182599999V0201201N000519999999N9999999N1-00941-01251999999ADDMA1999999080071MD1719999+9999ME1313639OA149900151REMSYN076AAXX  08024 06722 33/// /1201 11094 21125 38007 48363 57/// 333 91103 91202;
0137067220999992010010803004+46117+007517FM-12+182599999V0200701N000519999999N9999999N1-00881-01181999999ADDMA1999999080001MD1719999+9999ME1313559OA149900261REMSYN076AAXX  08034 06722 33/// /0701 11088 21118 38000 48355 57/// 333 91105 91203;
0137067220999992010010804004+46117+007517FM-12+182599999V0200701N001519999999N9999999N1-00851-01151999999ADDMA1999999079961MD1710151+9999ME1313519OA149900211REMSYN076AAXX  08044 06722 33/// /0703 11085 21115 37996 48351 57015 333 91104 91203;
0137067220999992010010805004+46117+007517FM-12+182599999V0203101N000519999999N9999999N1-00891-01121999999ADDMA1999999079881MD1810191+9999ME1313449OA149900261REMSYN076AAXX  08054 06722 33/// /3101 11089 21112 37988 48344 58019 333 91105 91203;
0323067220999992010010806004+46117+007517FM-12+182599999V0200901N001010180019N0600001N1-00791-01111999999ADDAA124000091AJ100409199999999AL19900091GA1071+018001041GF107991999999017501999999GJ101569IA1279IA2999-00209KA1999N-00991MA1999999079861MD1610141+9999ME1313409OA149900261REMSYN124AAXX  08064 06722 32786 70902 11079 21111 37986 48340 56014 333 21099 3/102 43040 55026 70000 87456 90768 93100 91105 91203;EQDQ01  00002PRCP24
0137067220999992010010807004+46117+007517FM-12+182599999V0201301N000519999999N9999999N1-00761-01071999999ADDMA1999999079811MD1610151+9999ME1313349OA149900211REMSYN076AAXX  08074 06722 33/// /1301 11076 21107 37981 48334 56015 333 91104 91203;
0137067220999992010010808004+46117+007517FM-12+182599999V0200301N001019999999N9999999N1-00691-01121999999ADDMA1999999079781MD1710101+9999ME1313309OA149900211REMSYN076AAXX  08084 06722 33/// /0302 11069 21112 37978 48330 57010 333 91104 91203;
0137067220999992010010809004+46117+007517FM-12+182599999V0200601N001519999999N9999999N1-00541-01051999999ADDMA1999999079751MD1710111+9999ME1313249OA149900361REMSYN076AAXX  08094 06722 33/// /0603 11054 21105 37975 48324 57011 333 91107 91204;
0137067220999992010010810004+46117+007517FM-12+182599999V0200901N000519999999N9999999N1-00501-01031999999ADDMA1999999079721MD1710091+9999ME1313209OA149900361REMSYN076AAXX  08104 06722 33/// /0901 11050 21103 37972 48320 57009 333 91107 91204;
0137067220999992010010811004+46117+007517FM-12+182599999V0201201N000519999999N9999999N1-00361-00971999999ADDMA1999999079651MD1710131+9999ME1313119OA149900211REMSYN076AAXX  08114 06722 33/// /1201 11036 21097 37965 48311 57013 333 91104 91202;
0235067220999992010010812004+46117+007517FM-12+182599999V0200901N000510630019N0700001N1-00321-00921999999ADDAY121061AY221061GA1031+018001041GA2061+063001021GF108991999999017501999999MA1999999079591MD1710161+9999ME1313049MW1151OA149900361REMSYN094AAXX  08124 06722 31788 80901 11032 21092 37959 48304 57016 71522 333 83456 86271 91107 91204;
0137067220999992010010813004+46117+007517FM-12+182599999V0201501N000519999999N9999999N1-00301-00941999999ADDMA1999999079531MD1610191+9999ME1312979OA149900211REMSYN076AAXX  08134 06722 33/// /1501 11030 21094 37953 48297 56019 333 91104 91202;
0137067220999992010010814004+46117+007517FM-12+182599999V0201301N000519999999N9999999N1-00271-00821999999ADDMA1999999079521MD1719999+9999ME1312969OA149900151REMSYN076AAXX  08144 06722 33/// /1301 11027 21082 37952 48296 57/// 333 91103 91202;
0137067220999992010010815004+46117+007517FM-12+182599999V0201501N000519999999N9999999N1-00331-00761999999ADDMA1999999079531MD1510061+9999ME1312989OA149900211REMSYN076AAXX  08154 06722 33/// /1501 11033 21076 37953 48298 55006 333 91104 91202;
0137067220999992010010816004+46117+007517FM-12+182599999V0200901N000519999999N9999999N1-00351-00741999999ADDMA1999999079581MD1210051+9999ME1313039OA149900151REMSYN076AAXX  08164 06722 33/// /0901 11035 21074 37958 48303 52005 333 91103 91201;
0137067220999992010010817004+46117+007517FM-12+182599999V0201101N000519999999N9999999N1-00321-00671999999ADDMA1999999079601MD1119999+9999ME1313059OA149900151REMSYN076AAXX  08174 06722 33/// /1101 11032 21067 37960 48305 51/// 333 91103 91202;
0283067220999992010010818004+46117+007517FM-12+182599999V0209999C000010180019N0600001N1-00501-00751999999ADDAJ100399199999999AL19900091AY121061AY221061GA1081+018001041GF108991999999017501999999IA1279KA1120M-00261MA1999999079601MD1210071+9999ME1313089MW1151OA149900361REMSYN112AAXX  08184 06722 31786 80000 11050 21075 37960 48308 52007 71522 333 11026 43039 88456 90766 93100 91107 91204;
0137067220999992010010819004+46117+007517FM-12+182599999V0200801N000519999999N9999999N1-00481-00681999999ADDMA1999999079631MD1310051+9999ME1313119OA149900151REMSYN076AAXX  08194 06722 33/// /0801 11048 21068 37963 48311 53005 333 91103 91202;
0137067220999992010010820004+46117+007517FM-12+182599999V0209999C000519999999N9999999N1-00471-00721999999ADDMA1999999079641MD1210041+9999ME1313129OA149900151REMSYN076AAXX  08204 06722 33/// /0001 11047 21072 37964 48312 52004 333 91103 91201;
0137067220999992010010821004+46117+007517FM-12+182599999V0200201N000519999999N9999999N1-00461-00841999999ADDMA1999999079661MD1210061+9999ME1313139OA149900361REMSYN076AAXX  08214 06722 33/// /0201 11046 21084 37966 48313 52006 333 91107 91203;
0137067220999992010010822004+46117+007517FM-12+182599999V0200801N001519999999N9999999N1-00401-00871999999ADDMA1999999079691MD1210061+9999ME1313159OA149900361REMSYN076AAXX  08224 06722 33/// /0803 11040 21087 37969 48315 52006 333 91107 91203;
0137067220999992010010823004+46117+007517FM-12+182599999V0201001N001019999999N9999999N1-00501-00911999999ADDMA1999999079671MD1210031+9999ME1313159OA149900311REMSYN076AAXX  08234 06722 33/// /1002 11050 21091 37967 48315 52003 333 91106 91203;
0137067220999992010010900004+46117+007517FM-12+182599999V0203301N001019999999N9999999N1-00521-00841999999ADDMA1999999079631MD1810031+9999ME1313129OA149900461REMSYN076AAXX  09004 06722 33/// /3302 11052 21084 37963 48312 58003 333 91109 91204;
0137067220999992010010901004+46117+007517FM-12+182599999V0200701N000519999999N9999999N1-00661-00991999999ADDMA1999999079631MD1710061+9999ME1313149OA149900461REMSYN076AAXX  09014 06722 33/// /0701 11066 21099 37963 48314 57006 333 91109 91204;
0137067220999992010010902004+46117+007517FM-12+182599999V0202501N000519999999N9999999N1-00731-00981999999ADDMA1999999079661MD1519999+9999ME1313199OA149900211REMSYN076AAXX  09024 06722 33/// /2501 11073 21098 37966 48319 55/// 333 91104 91202;
0137067220999992010010903004+46117+007517FM-12+182599999V0201201N000519999999N9999999N1-00941-01041999999ADDMA1999999079621MD1819999+9999ME1313199OA149900461REMSYN076AAXX  09034 06722 33/// /1201 11094 21104 37962 48319 58/// 333 91109 91204;
0137067220999992010010904004+46117+007517FM-12+182599999V0201101N000519999999N9999999N1-00631-00971999999ADDMA1999999079581MD1810051+9999ME1313099OA149900211REMSYN076AAXX  09044 06722 33/// /1101 11063 21097 37958 48309 58005 333 91104 91202;
0137067220999992010010905004+46117+007517FM-12+182599999V0200701N000519999999N9999999N1-00771-01091999999ADDMA1999999079541MD1710121+9999ME1313089OA149900211REMSYN076AAXX  09054 06722 33/// /0701 11077 21109 37954 48308 57012 333 91104 91202;
0345067220999992010010906004+46117+007517FM-12+182599999V0201001N001510001519N0001001N1-00751-01201999999ADDAA124000091AJ100399199999999AL19900091AY141061AY211061GA1091+999999999GF109991091999999999999999GJ100009IA1279IA2999-00109KA1999N-01091MA1999999079511MD1710111+9999ME1313049MW1471OA149900461REMSYN124AAXX  09064 06722 31/01 91003 11075 21120 37951 48304 57011 74741 333 21109 3/101 43039 55000 70000 90768 93100 91109 91204;EQDQ01  00002PRCP24
0137067220999992010010907004+46117+007517FM-12+182599999V0201201N001019999999N9999999N1-00761-01111999999ADDMA1999999079521MD1710061+9999ME1313059OA149900261REMSYN076AAXX  09074 06722 33/// /1202 11076 21111 37952 48305 57006 333 91105 91203;
0137067220999992010010908004+46117+007517FM-12+182599999V0200201N000519999999N9999999N1-00731-01131999999ADDMA1999999079511MD1710031+9999ME1313049OA149900261REMSYN076AAXX  09084 06722 33/// /0201 11073 21113 37951 48304 57003 333 91105 91203;
0156067220999992010010909004+46117+007517FM-12+182599999V0209999C000019999999N9999999N1-01041-01091999999ADDMA1999999079511MD1410001+9999ME1313109OA149900261REMSYN076AAXX  09094 06722 33/// /0000 11104 21109 37951 48310 52000 333 91105 91203;EQDQ01+000022APCTEN
0137067220999992010010910004+46117+007517FM-12+182599999V0200901N000519999999N9999999N1-00521-01061999999ADDMA1999999079471MD1810051+9999ME1312969OA149900211REMSYN076AAXX  09104 06722 33/// /0901 11052 21106 37947 48296 58005 333 91104 91202;
0137067220999992010010911004+46117+007517FM-12+182599999V0202701N000519999999N9999999N1-00931-00951999999ADDMA1999999079451MD1710061+9999ME1313029OA149900151REMSYN076AAXX  09114 06722 33/// /2701 11093 21095 37945 48302 57006 333 91103 91202;
0207067220999992010010912004+46117+007517FM-12+182599999V0203001N000510001519N0000001N1-00911-00921999999ADDAY141061AY221061GA1091+999999999GF109991091999999999999999MA1999999079461MD1510051+9999ME1313039MW1471OA149900261REMSYN082AAXX  09124 06722 31/00 93001 11091 21092 37946 48303 55005 74742 333 91105 91203;
0137067220999992010010913004+46117+007517FM-12+182599999V0201501N001019999999N9999999N1-00911-00911999999ADDMA1999999079401MD1810071+9999ME1312979OA149900211REMSYN076AAXX  09134 06722 33/// /1502 11091 21091 37940 48297 58007 333 91104 91203;
0137067220999992010010914004+46117+007517FM-12+182599999V0203001N001019999999N9999999N1-00881-00931999999ADDMA1999999079401MD1710051+9999ME1312969OA149900211REMSYN076AAXX  09144 06722 33/// /3002 11088 21093 37940 48296 57005 333 91104 91202;
0137067220999992010010915004+46117+007517FM-12+182599999V0202801N001019999999N9999999N1-00971-00991999999ADDMA1999999079441MD1510021+9999ME1313029OA149900211REMSYN076AAXX  09154 06722 33/// /2802 11097 21099 37944 48302 55002 333 91104 91203;
0154067220999992010010916004+46117+007517FM-12+182599999V0201401N001019999999N9999999N1-01001-01071999999ADDAA101000391MA1999999079471MD1210071+9999ME1313059OA149900211REMSYN082AAXX  09164 06722 23/// /1402 11100 21107 37947 48305 52007 333 69935 91104 91202;
0137067220999992010010917004+46117+007517FM-12+182599999V0202801N000519999999N9999999N1-00971-01051999999ADDMA1999999079471MD1210071+9999ME1313059OA149900151REMSYN076AAXX  09174 06722 33/// /2801 11097 21105 37947 48305 52007 333 91103 91202;
0306067220999992010010918004+46117+007517FM-12+182599999V0209999C000010018019N0040001N1-01011-01141999999ADDAA112000391AJ100409199999999AL11200191AY171061AY241061GA1081+001801051GF108991999999001501999999IA1279KA1120M-00521MA1999999079511MD1210071+9999ME1313099MW1701OA149900261REMSYN124AAXX  09184 06722 01240 80000 11101 21114 37951 48309 52007 69932 77074 333 11052 43040 60005 88506 90766 93101 91105 91203;
0137067220999992010010919004+46117+007517FM-12+182599999V0203001N000519999999N9999999N1-01081-01101999999ADDMA1999999079591MD1210121+9999ME1313199OA149900151REMSYN076AAXX  09194 06722 33/// /3001 11108 21110 37959 48319 52012 333 91103 91202;
0137067220999992010010920004+46117+007517FM-12+182599999V0209999C000019999999N9999999N1-01071-01161999999ADDMA1999999079641MD1310171+9999ME1313239OA149900151REMSYN076AAXX  09204 06722 33/// /0000 11107 21116 37964 48323 53017 333 91103 91202;
0137067220999992010010921004+46117+007517FM-12+182599999V0200701N000519999999N9999999N1-00991-01211999999ADDMA1999999079651MD1210141+9999ME1313239OA149900151REMSYN076AAXX  09214 06722 33/// /0701 11099 21121 37965 48323 52014 333 91103 91202;
0137067220999992010010922004+46117+007517FM-12+182599999V0209999C000019999999N9999999N1-01011-01241999999ADDMA1999999079671MD1210081+9999ME1313259OA149900101REMSYN076AAXX  09224 06722 33/// /0000 11101 21124 37967 48325 52008 333 91102 91201;
0137067220999992010010923004+46117+007517FM-12+182599999V0202901N000519999999N9999999N1-01151-01151999999ADDMA1999999079731MD1210091+9999ME1313349OA149900151REMSYN076AAXX  09234 06722 33/// /2901 11115 21115 37973 48334 52009 333 91103 91201;
0137067220999992010011000004+46117+007517FM-12+182599999V0200801N000519999999N9999999N1-01131-01251999999ADDMA1999999079751MD1310101+9999ME1313359OA149900211REMSYN076AAXX  10004 06722 33/// /0801 11113 21125 37975 48335 53010 333 91104 91202;
0137067220999992010011001004+46117+007517FM-12+182599999V0200301N000519999999N9999999N1-01161-01361999999ADDMA1999999079781MD1210111+9999ME1313399OA149900151REMSYN076AAXX  10014 06722 33/// /0301 11116 21136 37978 48339 52011 333 91103 91202;
0096067220999992010011002004+46117+007517FM-12+182599999V0200401N000519999999N9999999N1-01221-01501999999ADDMA1999999079821ME1313449REMSYN060AAXX  10024 06722 33/// /0401 11122 21150 37982 48344 5////;
0096067220999992010011003004+46117+007517FM-12+182599999V0203501N000519999999N9999999N1-01251-01341999999ADDMA1999999079871ME1313499REMSYN060AAXX  10034 06722 43/// /3501 11125 21134 37987 48349 5////;
0137067220999992010011004004+46117+007517FM-12+182599999V0209999C000019999999N9999999N1-01171-01301999999ADDMA1999999079901MD1110121+9999ME1313519OA149900261REMSYN076AAXX  10044 06722 33/// /0000 11117 21130 37990 48351 51012 333 91105 91202;
0137067220999992010011005004+46117+007517FM-12+182599999V0209999C000519999999N9999999N1-01191-01281999999ADDMA1999999079961MD1310141+9999ME1313579OA149900211REMSYN076AAXX  10054 06722 33/// /0001 11119 21128 37996 48357 53014 333 91104 91201;
0336067220999992010011006004+46117+007517FM-12+182599999V0200401N000510001519N0001001N1-01201-01291999999ADDAA124000391AJ100409199999999AL11800091AL29900191AY171061AY241061GA1091+999999999GF109991091999999999999999GJ100129IA1279IA2999-00109KA1999N-01291MA1999999080001MD1310131+9999ME1313619MW1451OA149900261REMSYN124AAXX  10064 06722 31/01 90401 11120 21129 38000 48361 53013 74574 333 21129 3/101 43040 55002 70003 90768 93101 91105 91202;
0137067220999992010011007004+46117+007517FM-12+182599999V0200501N001019999999N9999999N1-01241-01371999999ADDMA1999999080091MD1310191+9999ME1313709OA149900211REMSYN076AAXX  10074 06722 33/// /0502 11124 21137 38009 48370 53019 333 91104 91202;
0137067220999992010011008004+46117+007517FM-12+182599999V0209999C001019999999N9999999N1-01281-01371999999ADDMA1999999080141MD1119999+9999ME1313769OA149900211REMSYN076AAXX  10084 06722 33/// /0002 11128 21137 38014 48376 51/// 333 91104 91202;
0137067220999992010011009004+46117+007517FM-12+182599999V0201101N000519999999N9999999N1-01291-01341999999ADDMA1999999080201MD1310201+9999ME1313829OA149900211REMSYN076AAXX  10094 06722 33/// /1101 11129 21134 38020 48382 53020 333 91104 91202;
0137067220999992010011010004+46117+007517FM-12+182599999V0209999C000019999999N9999999N1-01221-01271999999ADDMA1999999080271MD1110181+9999ME1313879OA149900211REMSYN076AAXX  10104 06722 33/// /0000 11122 21127 38027 48387 51018 333 91104 91202;
0137067220999992010011011004+46117+007517FM-12+182599999V0203401N000519999999N9999999N1-01111-01171999999ADDMA1999999080301MD1110161+9999ME1313889OA149900101REMSYN076AAXX  10114 06722 33/// /3401 11111 21117 38030 48388 51016 333 91102 91201;
0213067220999992010011012004+46117+007517FM-12+182599999V0202501N000512200019N0500001N1-01091-01111999999ADDAY141061AY211061GA1021+001801061GF102991999999001501999999MA1999999080311MD1110111+9999ME1313899MW1021OA149900261REMSYN088AAXX  10124 06722 31284 22501 11109 21111 38031 48389 51011 70241 333 82606 91105 91202;
0137067220999992010011013004+46117+007517FM-12+182599999V0209999C000019999999N9999999N1-01031-01071999999ADDMA1999999080321MD1110051+9999ME1313899OA149900151REMSYN076AAXX  10134 06722 33/// /0000 11103 21107 38032 48389 51005 333 91103 91201;
0137067220999992010011014004+46117+007517FM-12+182599999V0203001N000519999999N9999999N1-01041-01081999999ADDMA1999999080371MD1319999+9999ME1313949OA149900151REMSYN076AAXX  10144 06722 33/// /3001 11104 21108 38037 48394 53/// 333 91103 91201;
0137067220999992010011015004+46117+007517FM-12+182599999V0202401N000519999999N9999999N1-01081-01091999999ADDMA1999999080421MD1310111+9999ME1314009OA149900151REMSYN076AAXX  10154 06722 33/// /2401 11108 21109 38042 48400 53011 333 91103 91201;
0137067220999992010011016004+46117+007517FM-12+182599999V0203601N000519999999N9999999N1-01111-01121999999ADDMA1999999080471MD1110151+9999ME1314059OA149900151REMSYN076AAXX  10164 06722 33/// /3601 11111 21112 38047 48405 51015 333 91103 91202;
0137067220999992010011017004+46117+007517FM-12+182599999V0203001N001019999999N9999999N1-01181-01231999999ADDMA1999999080491MD1110121+9999ME1314089OA149900151REMSYN076AAXX  10174 06722 33/// /3002 11118 21123 38049 48408 51012 333 91103 91202;
0277067220999992010011018004+46117+007517FM-12+182599999V0203201N000510003019N0002001N1-01211-01261999999ADDAJ100409199999999AL19900091AY141061AY221061GA1091+999999999GF109991091999999999999999IA1279KA1120M-01001MA1999999080551MD1210131+9999ME1314149MW1451OA149900211REMSYN106AAXX  10184 06722 31/02 93201 11121 21126 38055 48414 52013 74542 333 11100 43040 90766 93100 91104 91202;
0137067220999992010011019004+46117+007517FM-12+182599999V0201001N000519999999N9999999N1-01031-01641999999ADDMA1999999080571MD1110101+9999ME1314139OA149900211REMSYN076AAXX  10194 06722 33/// /1001 11103 21164 38057 48413 51010 333 91104 91202;
0137067220999992010011020004+46117+007517FM-12+182599999V0200301N000519999999N9999999N1-01061-01691999999ADDMA1999999080591MD1210101+9999ME1314169OA149900211REMSYN076AAXX  10204 06722 33/// /0301 11106 21169 38059 48416 52010 333 91104 91202;
0137067220999992010011021004+46117+007517FM-12+182599999V0200401N000519999999N9999999N1-00881-01851999999ADDMA1999999080601MD1210051+9999ME1314149OA149900211REMSYN076AAXX  10214 06722 33/// /0401 11088 21185 38060 48414 52005 333 91104 91202;
0137067220999992010011022004+46117+007517FM-12+182599999V0200701N001019999999N9999999N1-00851-01911999999ADDMA1999999080601MD1210031+9999ME1314139OA149900211REMSYN076AAXX  10224 06722 33/// /0702 11085 21191 38060 48413 52003 333 91104 91202;
0137067220999992010011023004+46117+007517FM-12+182599999V0200401N001519999999N9999999N1-00741-02061999999ADDMA1999999080611MD1210021+9999ME1314129OA149900361REMSYN076AAXX  10234 06722 33/// /0403 11074 21206 38061 48412 52002 333 91107 91203;
0137067220999992010011100004+46117+007517FM-12+182599999V0200301N001519999999N9999999N1-00681-02031999999ADDMA1999999080611MD1210011+9999ME1314129OA149900361REMSYN076AAXX  11004 06722 33/// /0303 11068 21203 38061 48412 52001 333 91107 91203;
0137067220999992010011101004+46117+007517FM-12+182599999V0200701N001019999999N9999999N1-00711-02101999999ADDMA1999999080621MD1210021+9999ME1314139OA149900361REMSYN076AAXX  11014 06722 33/// /0702 11071 21210 38062 48413 52002 333 91107 91203;
0137067220999992010011102004+46117+007517FM-12+182599999V0200701N001019999999N9999999N1-00711-02211999999ADDMA1999999080641MD1219999+9999ME1314159OA149900311REMSYN076AAXX  11024 06722 33/// /0702 11071 21221 38064 48415 52/// 333 91106 91203;
0137067220999992010011103004+46117+007517FM-12+182599999V0200701N000519999999N9999999N1-00731-02201999999ADDMA1999999080631MD1219999+9999ME1314149OA149900361REMSYN076AAXX  11034 06722 33/// /0701 11073 21220 38063 48414 52/// 333 91107 91203;
0137067220999992010011104004+46117+007517FM-12+182599999V0200401N001019999999N9999999N1-00731-02311999999ADDMA1999999080631MD1010011+9999ME1314149OA149900411REMSYN076AAXX  11044 06722 33/// /0402 11073 21231 38063 48414 50001 333 91108 91203;
0137067220999992010011105004+46117+007517FM-12+182599999V0200601N001019999999N9999999N1-00661-02311999999ADDMA1999999080631MD1710011+9999ME1314139OA149900411REMSYN076AAXX  11054 06722 33/// /0602 11066 21231 38063 48413 57001 333 91108 91203;
0345067220999992010011106004+46117+007517FM-12+182599999V0201001N001012200019N0750001N1-00581-02251999999ADDAA124000091AJ100409199999999AL19900091AY141061AY211061GA1001+999999999GF100991001001999999001001GJ101629IA1279IA2999-00209KA1999N-01211MA1999999080611MD1710021+9999ME1314109MW1021OA149900411REMSYN124AAXX  11064 06722 31/89 01002 11058 21225 38061 48410 57002 70241 333 21121 3/102 43040 55027 70000 90768 93100 91108 91203;EQDQ01  00002PRCP24
0137067220999992010011107004+46117+007517FM-12+182599999V0200201N000519999999N9999999N1-00711-02341999999ADDMA1999999080621MD1710011+9999ME1314139OA149900211REMSYN076AAXX  11074 06722 33/// /0201 11071 21234 38062 48413 57001 333 91104 91202;
0137067220999992010011108004+46117+007517FM-12+182599999V0209999C000019999999N9999999N1-00741-02331999999ADDMA1999999080631MD1519999+9999ME1314149OA149900211REMSYN076AAXX  11084 06722 33/// /0000 11074 21233 38063 48414 55/// 333 91104 91202;
0137067220999992010011109004+46117+007517FM-12+182599999V0200201N000519999999N9999999N1-00651-02111999999ADDMA1999999080671MD1210061+9999ME1314179OA149900411REMSYN076AAXX  11094 06722 33/// /0201 11065 21211 38067 48417 52006 333 91108 91203;
0137067220999992010011110004+46117+007517FM-12+182599999V0209999C000019999999N9999999N1-00501-01821999999ADDMA1999999080681MD1219999+9999ME1314169OA149900261REMSYN076AAXX  11104 06722 33/// /0000 11050 21182 38068 48416 52/// 333 91105 91202;
0137067220999992010011111004+46117+007517FM-12+182599999V0203301N000519999999N9999999N1-00461-01911999999ADDMA1999999080701MD1210071+9999ME1314179OA149900261REMSYN076AAXX  11114 06722 33/// /3301 11046 21191 38070 48417 52007 333 91105 91201;
0179067220999992010011112004+46117+007517FM-12+182599999V0202601N000512200019N0750001N1-00441-01661999999ADDGA1001+999999999GF100991001001999999001001MA1999999080671MD1010001+9999ME1314149OA149900411REMSYN076AAXX  11124 06722 32/89 02601 11044 21166 38067 48414 50000 333 91108 91203;
0137067220999992010011113004+46117+007517FM-12+182599999V0209999C000019999999N9999999N1-00491-01161999999ADDMA1999999080661MD1810021+9999ME1314139OA149900101REMSYN076AAXX  11134 06722 33/// /0000 11049 21116 38066 48413 58002 333 91102 91201;
0096067220999992010011114004+46117+007517FM-12+182599999V0201201N000519999999N9999999N1-00541-01251999999ADDMA1999999080691ME1314179REMSYN060AAXX  11144 06722 33/// /1201 11054 21125 38069 48417 5////;
0137067220999992010011115004+46117+007517FM-12+182599999V0209999C000019999999N9999999N1-00561-01561999999ADDMA1999999080711MD1210041+9999ME1314199OA149900261REMSYN076AAXX  11154 06722 33/// /0000 11056 21156 38071 48419 52004 333 91105 91201;
0137067220999992010011116004+46117+007517FM-12+182599999V0200201N000519999999N9999999N1-00641-01751999999ADDMA1999999080741MD1310081+9999ME1314249OA149900211REMSYN076AAXX  11164 06722 33/// /0201 11064 21175 38074 48424 53008 333 91104 91201;
0137067220999992010011117004+46117+007517FM-12+182599999V0200301N001019999999N9999999N1-00781-02011999999ADDMA1999999080771MD1310081+9999ME1314299OA149900361REMSYN076AAXX  11174 06722 33/// /0302 11078 21201 38077 48429 53008 333 91107 91202;
0249067220999992010011118004+46117+007517FM-12+182599999V0200701N000512200019N0750001N1-00691-02061999999ADDAJ100399199999999AL19900091GA1001+999999999GF100991001001999999001001IA1279KA1120M-00421MA1999999080801MD1310091+9999ME1314309OA149900361REMSYN100AAXX  11184 06722 32/89 00701 11069 21206 38080 48430 53009 333 11042 43039 90766 93100 91107 91204;
0137067220999992010011119004+46117+007517FM-12+182599999V0200801N001019999999N9999999N1-00651-02081999999ADDMA1999999080811MD1310071+9999ME1314319OA149900361REMSYN076AAXX  11194 06722 33/// /0802 11065 21208 38081 48431 53007 333 91107 91204;
0137067220999992010011120004+46117+007517FM-12+182599999V0200101N000519999999N9999999N1-00771-02201999999ADDMA1999999080851MD1310081+9999ME1314369OA149900211REMSYN076AAXX  11204 06722 33/// /0101 11077 21220 38085 48436 53008 333 91104 91202;
0137067220999992010011121004+46117+007517FM-12+182599999V0200801N001019999999N9999999N1-00671-02191999999ADDMA1999999080841MD1210041+9999ME1314349OA149900361REMSYN076AAXX  11214 06722 33/// /0802 11067 21219 38084 48434 52004 333 91107 91204;
0137067220999992010011122004+46117+007517FM-12+182599999V0200801N001019999999N9999999N1-00651-02211999999ADDMA1999999080841MD1010031+9999ME1314349OA149900311REMSYN076AAXX  11224 06722 33/// /0802 11065 21221 38084 48434 50003 333 91106 91204;
0137067220999992010011123004+46117+007517FM-12+182599999V0209999C000019999999N9999999N1-00771-02311999999ADDMA1999999080861MD1310011+9999ME1314379OA149900311REMSYN076AAXX  11234 06722 33/// /0000 11077 21231 38086 48437 53001 333 91106 91204;
0137067220999992010011200004+46117+007517FM-12+182599999V0200401N001519999999N9999999N1-00811-02261999999ADDMA1999999080871MD1210031+9999ME1314399OA149900361REMSYN076AAXX  12004 06722 33/// /0403 11081 21226 38087 48439 52003 333 91107 91204;
0156067220999992010011201004+46117+007517FM-12+182599999V0200301N001519999999N9999999N1-00721-02381999999ADDMA1999999080841MD1410001+9999ME1314359OA149900311REMSYN076AAXX  12014 06722 33/// /0303 11072 21238 38084 48435 58000 333 91106 91203;EQDQ01+000082APCTEN
0137067220999992010011202004+46117+007517FM-12+182599999V0201001N000519999999N9999999N1-00631-02281999999ADDMA1999999080821MD1719999+9999ME1314319OA149900311REMSYN076AAXX  12024 06722 33/// /1001 11063 21228 38082 48431 57/// 333 91106 91203;
0137067220999992010011203004+46117+007517FM-12+182599999V0203601N000519999999N9999999N1-00741-02331999999ADDMA1999999080821MD1610051+9999ME1314339OA149900311REMSYN076AAXX  12034 06722 33/// /3601 11074 21233 38082 48433 56005 333 91106 91204;
0137067220999992010011204004+46117+007517FM-12+182599999V0200301N001019999999N9999999N1-00731-02391999999ADDMA1999999080811MD1710031+9999ME1314329OA149900311REMSYN076AAXX  12044 06722 33/// /0302 11073 21239 38081 48432 57003 333 91106 91202;
0137067220999992010011205004+46117+007517FM-12+182599999V0200601N001019999999N9999999N1-00691-02301999999ADDMA1999999080791MD1710031+9999ME1314299OA149900261REMSYN076AAXX  12054 06722 33/// /0602 11069 21230 38079 48429 57003 333 91105 91203;
0317067220999992010011206004+46117+007517FM-12+182599999V0200301N001012200019N0750001N1-00681-02191999999ADDAA124000091AJ100399199999999AL19900091GA1001+999999999GF100991001001999999001001GJ103489IA1279IA2999-00209KA1999N-00851MA1999999080781MD1710041+9999ME1314289OA149900311REMSYN118AAXX  12064 06722 32/89 00302 11068 21219 38078 48428 57004 333 21085 3/102 43039 55058 70000 90768 93100 91106 91204;EQDQ01  00002PRCP24
0137067220999992010011207004+46117+007517FM-12+182599999V0209999C000019999999N9999999N1-00731-02041999999ADDMA1999999080741MD1710071+9999ME1314259OA149900311REMSYN076AAXX  12074 06722 33/// /0000 11073 21204 38074 48425 57007 333 91106 91203;
0137067220999992010011208004+46117+007517FM-12+182599999V0200401N001019999999N9999999N1-00761-02141999999ADDMA1999999080721MD1719999+9999ME1314249OA149900211REMSYN076AAXX  12084 06722 33/// /0402 11076 21214 38072 48424 57/// 333 91104 91202;
0137067220999992010011209004+46117+007517FM-12+182599999V0200401N000519999999N9999999N1-00621-01981999999ADDMA1999999080721MD1710061+9999ME1314219OA149900311REMSYN076AAXX  12094 06722 33/// /0401 11062 21198 38072 48421 57006 333 91106 91203;
0137067220999992010011210004+46117+007517FM-12+182599999V0209999C000019999999N9999999N1-00471-01801999999ADDMA1999999080701MD1710041+9999ME1314179OA149900261REMSYN076AAXX  12104 06722 33/// /0000 11047 21180 38070 48417 57004 333 91105 91202;
0137067220999992010011211004+46117+007517FM-12+182599999V0200801N000519999999N9999999N1-00351-01881999999ADDMA1999999080641MD1710081+9999ME1314099OA149900151REMSYN076AAXX  12114 06722 33/// /0801 11035 21188 38064 48409 57008 333 91103 91202;
0179067220999992010011212004+46117+007517FM-12+182599999V0209999C000012200019N0750001N1-00271-01541999999ADDGA1001+999999999GF100991001001999999001001MA1999999080581MD1710141+9999ME1314029OA149900311REMSYN076AAXX  12124 06722 32/89 00000 11027 21154 38058 48402 57014 333 91106 91203;
0137067220999992010011213004+46117+007517FM-12+182599999V0201401N001019999999N9999999N1-00201-01691999999ADDMA1999999080521MD1610181+9999ME1313959OA149900101REMSYN076AAXX  12134 06722 33/// /1402 11020 21169 38052 48395 56018 333 91102 91202;
0096067220999992010011214004+46117+007517FM-12+182599999V0201601N000519999999N9999999N1-00171-01501999999ADDMA1999999080451ME1313879REMSYN060AAXX  12144 06722 33/// /1601 11017 21150 38045 48387 5////;
0137067220999992010011215004+46117+007517FM-12+182599999V0200801N000519999999N9999999N1-00441-01391999999ADDMA1999999080441MD1610141+9999ME1313919OA149900151REMSYN076AAXX  12154 06722 33/// /0801 11044 21139 38044 48391 56014 333 91103 91202;
0137067220999992010011216004+46117+007517FM-12+182599999V0200401N001019999999N9999999N1-00421-01581999999ADDMA1999999080351MD1810171+9999ME1313829OA149900261REMSYN076AAXX  12164 06722 33/// /0402 11042 21158 38035 48382 58017 333 91105 91202;
0137067220999992010011217004+46117+007517FM-12+182599999V0200601N000519999999N9999999N1-00541-01641999999ADDMA1999999080331MD1710121+9999ME1313829OA149900311REMSYN076AAXX  12174 06722 33/// /0601 11054 21164 38033 48382 57012 333 91106 91203;
0249067220999992010011218004+46117+007517FM-12+182599999V0200601N001012200019N0750001N1-00581-01641999999ADDAJ100399199999999AL19900091GA1001+999999999GF100991001001999999001001IA1279KA1120M-00171MA1999999080351MD1710091+9999ME1313849OA149900311REMSYN100AAXX  12184 06722 32/89 00602 11058 21164 38035 48384 57009 333 11017 43039 90766 93100 91106 91203;
0137067220999992010011219004+46117+007517FM-12+182599999V0200501N001519999999N9999999N1-00551-01661999999ADDMA1999999080351MD1010001+9999ME1313849OA149900311REMSYN076AAXX  12194 06722 33/// /0503 11055 21166 38035 48384 50000 333 91106 91203;
0137067220999992010011220004+46117+007517FM-12+182599999V0201301N000519999999N9999999N1-00691-01631999999ADDMA1999999080341MD1010011+9999ME1313859OA149900311REMSYN076AAXX  12204 06722 33/// /1301 11069 21163 38034 48385 50001 333 91106 91203;
0137067220999992010011221004+46117+007517FM-12+182599999V0203601N000519999999N9999999N1-00741-01651999999ADDMA1999999080291MD1710061+9999ME1313819OA149900311REMSYN076AAXX  12214 06722 33/// /3601 11074 21165 38029 48381 57006 333 91106 91203;
0137067220999992010011222004+46117+007517FM-12+182599999V0203101N002119999999N9999999N1-00741-01401999999ADDMA1999999080211MD1710141+9999ME1313739OA149900261REMSYN076AAXX  12224 06722 33/// /3104 11074 21140 38021 48373 57014 333 91105 91204;
0137067220999992010011223004+46117+007517FM-12+182599999V0200701N001019999999N9999999N1-00691-01281999999ADDMA1999999080301MD1510041+9999ME1313819OA149900311REMSYN076AAXX  12234 06722 33/// /0702 11069 21128 38030 48381 55004 333 91106 91204;
0137067220999992010011300004+46117+007517FM-12+182599999V0202701N001019999999N9999999N1-00721-01241999999ADDMA1999999080261MD1710031+9999ME1313789OA149900311REMSYN076AAXX  13004 06722 33/// /2702 11072 21124 38026 48378 57003 333 91106 91204;
0137067220999992010011301004+46117+007517FM-12+182599999V0201101N000519999999N9999999N1-00761-01121999999ADDMA1999999080311MD1210101+9999ME1313839OA149900361REMSYN076AAXX  13014 06722 33/// /1101 11076 21112 38031 48383 52010 333 91107 91204;
0137067220999992010011302004+46117+007517FM-12+182599999V0200701N000519999999N9999999N1-00801-01071999999ADDMA1999999080261MD1819999+9999ME1313799OA149900361REMSYN076AAXX  13024 06722 33/// /0701 11080 21107 38026 48379 58/// 333 91107 91204;
0137067220999992010011303004+46117+007517FM-12+182599999V0200801N001519999999N9999999N1-00781-01031999999ADDMA1999999080231MD1819999+9999ME1313769OA149900361REMSYN076AAXX  13034 06722 33/// /0803 11078 21103 38023 48376 58/// 333 91107 91204;
0137067220999992010011304004+46117+007517FM-12+182599999V0200701N000519999999N9999999N1-00781-01131999999ADDMA1999999080211MD1710101+9999ME1313749OA149900211REMSYN076AAXX  13044 06722 33/// /0701 11078 21113 38021 48374 57010 333 91104 91203;
0137067220999992010011305004+46117+007517FM-12+182599999V0200801N000519999999N9999999N1-00711-01141999999ADDMA1999999080191MD1710071+9999ME1313719OA149900261REMSYN076AAXX  13054 06722 33/// /0801 11071 21114 38019 48371 57007 333 91105 91203;
0234067220999992010011306004+46117+007517FM-12+182599999V0200901N000519999999N9999999N1-00721-01081999999ADDAA124000091AL19900091GJ103549IA2999-00209KA1999N-00851MA1999999080221MD1510011+9999ME1313749OA149900361REMSYN100AAXX  13064 06722 33/// /0901 11072 21108 38022 48374 55001 333 21085 3/102 55059 70000 91107 91204;EQDQ01  00002PRCP24
0154067220999992010011307004+46117+007517FM-12+182599999V0201301N000519999999N9999999N1-00791-00901999999ADDAA101000021MA1999999080251MD1210041+9999ME1313789OA149900211REMSYN082AAXX  13074 06722 23/// /1301 11079 21090 38025 48378 52004 333 69925 91104 91202;
0154067220999992010011308004+46117+007517FM-12+182599999V0209999C000019999999N9999999N1-00791-00881999999ADDAA101000591MA1999999080321MD1310131+9999ME1313859OA149900151REMSYN082AAXX  13084 06722 23/// /0000 11079 21088 38032 48385 53013 333 69955 91103 91202;
0154067220999992010011309004+46117+007517FM-12+182599999V0201501N000519999999N9999999N1-00721-00821999999ADDAA101000021MA1999999080361MD1310141+9999ME1313889OA149900261REMSYN082AAXX  13094 06722 23/// /1501 11072 21082 38036 48388 53014 333 69925 91105 91203;
0154067220999992010011310004+46117+007517FM-12+182599999V0209999C000019999999N9999999N1-00661-00741999999ADDAA101000021MA1999999080401MD1110151+9999ME1313919OA149900101REMSYN082AAXX  13104 06722 23/// /0000 11066 21074 38040 48391 51015 333 69925 91102 91201;
0154067220999992010011311004+46117+007517FM-12+182599999V0201101N000519999999N9999999N1-00571-00731999999ADDAA101000021MA1999999080421MD1210101+9999ME1313919OA149900101REMSYN082AAXX  13114 06722 23/// /1101 11057 21073 38042 48391 52010 333 69915 91102 91201;
0236067220999992010011312004+46117+007517FM-12+182599999V0209999C000010117019N0060001N1-00511-00661999999ADDAA106001091AY171061AY221061GA1081+011701041GF108991999999012501999999MA1999999080381MD1010021+9999ME1313869MW1711OA149900361REMSYN100AAXX  13124 06722 01656 80000 11051 21066 38038 48386 50002 60011 77172 333 60005 88439 91107 91204;
0137067220999992010011313004+46117+007517FM-12+182599999V0209999C000019999999N9999999N1-00571-00621999999ADDMA1999999080371MD1710031+9999ME1313869OA149900101REMSYN076AAXX  13134 06722 33/// /0000 11057 21062 38037 48386 57003 333 91102 91201;
0137067220999992010011314004+46117+007517FM-12+182599999V0200801N000519999999N9999999N1-00471-00641999999ADDMA1999999080371MD1719999+9999ME1313849OA149900101REMSYN076AAXX  13144 06722 33/// /0801 11047 21064 38037 48384 57/// 333 91102 91201;
0154067220999992010011315004+46117+007517FM-12+182599999V0209999C000019999999N9999999N1-00551-00611999999ADDAA101000021MA1999999080421MD1210041+9999ME1313919OA149900311REMSYN082AAXX  13154 06722 23/// /0000 11055 21061 38042 48391 52004 333 69915 91106 91203;
0154067220999992010011316004+46117+007517FM-12+182599999V0201001N000519999999N9999999N1-00441-00641999999ADDAA101000021MA1999999080451MD1210081+9999ME1313929OA149900311REMSYN082AAXX  13164 06722 23/// /1001 11044 21064 38045 48392 52008 333 69915 91106 91203;
0137067220999992010011317004+46117+007517FM-12+182599999V0209999C000019999999N9999999N1-00461-00581999999ADDMA1999999080481MD1210111+9999ME1313959OA149900151REMSYN076AAXX  13174 06722 33/// /0000 11046 21058 38048 48395 52011 333 91103 91202;
0300067220999992010011318004+46117+007517FM-12+182599999V0201001N001010003019N0003001N1-00411-00571999999ADDAA112002091AJ100419199999999AL11200191AY171061AY241061GA1091+999999999GF109991091999999999999999IA1239KA1120M-00411MA1999999080491MD1210071+9999ME1313959MW1451OA149900311REMSYN118AAXX  13184 06722 01/03 91002 11041 21057 38049 48395 52007 60022 74574 333 11041 47041 69915 90766 93101 91106 91203;
0137067220999992010011319004+46117+007517FM-12+182599999V0200401N001019999999N9999999N1-00451-00761999999ADDMA1999999080511MD1210061+9999ME1313989OA149900151REMSYN076AAXX  13194 06722 33/// /0402 11045 21076 38051 48398 52006 333 91103 91202;
0137067220999992010011320004+46117+007517FM-12+182599999V0200601N002119999999N9999999N1-00461-00931999999ADDMA1999999080511MD1210031+9999ME1313989OA149900361REMSYN076AAXX  13204 06722 33/// /0604 11046 21093 38051 48398 52003 333 91107 91204;
0137067220999992010011321004+46117+007517FM-12+182599999V0203601N000519999999N9999999N1-00521-00921999999ADDMA1999999080481MD1810011+9999ME1313969OA149900511REMSYN076AAXX  13214 06722 33/// /3601 11052 21092 38048 48396 58001 333 91110 91206;
0137067220999992010011322004+46117+007517FM-12+182599999V0200501N001019999999N9999999N1-00651-01121999999ADDMA1999999080471MD1710041+9999ME1313979OA149900511REMSYN076AAXX  13224 06722 33/// /0502 11065 21112 38047 48397 57004 333 91110 91206;
0137067220999992010011323004+46117+007517FM-12+182599999V0200301N001019999999N9999999N1-00731-01141999999ADDMA1999999080451MD1710061+9999ME1313979OA149900261REMSYN076AAXX  13234 06722 33/// /0302 11073 21114 38045 48397 57006 333 91105 91203;
0137067220999992010011400004+46117+007517FM-12+182599999V0200201N001519999999N9999999N1-00661-01391999999ADDMA1999999080401MD1710081+9999ME1313919OA149900511REMSYN076AAXX  14004 06722 33/// /0203 11066 21139 38040 48391 57008 333 91110 91206;
0137067220999992010011401004+46117+007517FM-12+182599999V0200501N001519999999N9999999N1-00631-01341999999ADDMA1999999080351MD1810121+9999ME1313859OA149900361REMSYN076AAXX  14014 06722 33/// /0503 11063 21134 38035 48385 58012 333 91107 91204;
0137067220999992010011402004+46117+007517FM-12+182599999V0200401N001519999999N9999999N1-00631-01551999999ADDMA1999999080331MD1619999+9999ME1313839OA149900361REMSYN076AAXX  14024 06722 33/// /0403 11063 21155 38033 48383 56/// 333 91107 91203;
0096067220999992010011403004+46117+007517FM-12+182599999V0200601N001519999999N9999999N1-00631-01541999999ADDMA1999999080321ME1313829REMSYN060AAXX  14034 06722 33/// /0603 11063 21154 38032 48382 5////;
0137067220999992010011404004+46117+007517FM-12+182599999V0200301N001019999999N9999999N1-00631-01491999999ADDMA1999999080281MD1710071+9999ME1313789OA149900361REMSYN076AAXX  14044 06722 33/// /0302 11063 21149 38028 48378 57007 333 91107 91204;
0137067220999992010011405004+46117+007517FM-12+182599999V0200201N001519999999N9999999N1-00671-01341999999ADDMA1999999080251MD1710081+9999ME1313769OA149900411REMSYN076AAXX  14054 06722 33/// /0203 11067 21134 38025 48376 57008 333 91108 91205;
0336067220999992010011406004+46117+007517FM-12+182599999V0200801N001012200019N0750001N1-00631-01471999999ADDAA124001591AJ100419199999999AL13000191AL29900291AY171061AY241061GA1001+999999999GF100991001001999999001001GJ100009IA1279IA2999-00109KA1999N-00731MA1999999080251MD1710071+9999ME1313759MW1021OA149900511REMSYN124AAXX  14064 06722 31/89 00802 11063 21147 38025 48375 57007 70274 333 21073 3/101 43041 55000 70015 90768 93102 91110 91206;
0137067220999992010011407004+46117+007517FM-12+182599999V0200201N001519999999N9999999N1-00621-01601999999ADDMA1999999080231MD1710051+9999ME1313739OA149900411REMSYN076AAXX  14074 06722 33/// /0203 11062 21160 38023 48373 57005 333 91108 91204;
0137067220999992010011408004+46117+007517FM-12+182599999V0200101N001019999999N9999999N1-00661-01281999999ADDMA1999999080251MD1519999+9999ME1313769OA149900361REMSYN076AAXX  14084 06722 33/// /0102 11066 21128 38025 48376 55/// 333 91107 91203;
0137067220999992010011409004+46117+007517FM-12+182599999V0200201N000519999999N9999999N1-00531-01221999999ADDMA1999999080261MD1310011+9999ME1313759OA149900411REMSYN076AAXX  14094 06722 33/// /0201 11053 21122 38026 48375 53001 333 91108 91205;
0137067220999992010011410004+46117+007517FM-12+182599999V0201301N001519999999N9999999N1-00411-01091999999ADDMA1999999080241MD1010011+9999ME1313709OA149900261REMSYN076AAXX  14104 06722 33/// /1303 11041 21109 38024 48370 50001 333 91105 91203;
0137067220999992010011411004+46117+007517FM-12+182599999V0202901N000519999999N9999999N1-00461-01081999999ADDMA1999999080241MD1710011+9999ME1313719OA149900261REMSYN076AAXX  14114 06722 33/// /2901 11046 21108 38024 48371 57001 333 91105 91203;
0185067220999992010011412004+46117+007517FM-12+182599999V0201901N000510270019N0700001N1-00391-01081999999ADDGA1081+027001041GF108991999999999999999999MA1999999080211MD1710051+9999ME1313679OA149900411REMSYN082AAXX  14124 06722 32988 81901 11039 21108 38021 48367 57005 333 88459 91108 91205;
0137067220999992010011413004+46117+007517FM-12+182599999V0202901N001519999999N9999999N1-00381-01081999999ADDMA1999999080211MD1710031+9999ME1313679OA149900261REMSYN076AAXX  14134 06722 33/// /2903 11038 21108 38021 48367 57003 333 91105 91203;
0156067220999992010011414004+46117+007517FM-12+182599999V0209999C000019999999N9999999N1-00351-01001999999ADDMA1999999080241MD1410001+9999ME1313699OA149900261REMSYN076AAXX  14144 06722 33/// /0000 11035 21100 38024 48369 53000 333 91105 91203;EQDQ01+000032APCTEN
0137067220999992010011415004+46117+007517FM-12+182599999V0209999C000019999999N9999999N1-00421-01051999999ADDMA1999999080251MD1210041+9999ME1313729OA149900261REMSYN076AAXX  14154 06722 33/// /0000 11042 21105 38025 48372 52004 333 91105 91203;
0137067220999992010011416004+46117+007517FM-12+182599999V0200401N001019999999N9999999N1-00551-01231999999ADDMA1999999080261MD1110051+9999ME1313759OA149900261REMSYN076AAXX  14164 06722 33/// /0402 11055 21123 38026 48375 51005 333 91105 91204;
0137067220999992010011417004+46117+007517FM-12+182599999V0200501N001519999999N9999999N1-00541-01241999999ADDMA1999999080301MD1310061+9999ME1313799OA149900361REMSYN076AAXX  14174 06722 33/// /0503 11054 21124 38030 48379 53006 333 91107 91204;
0255067220999992010011418004+46117+007517FM-12+182599999V0200601N001012200019N0700001N1-00461-01261999999ADDAJ100409199999999AL19900091GA1021+027001041GF102991999999999999999999IA1279KA1120M-00311MA1999999080371MD1310121+9999ME1313849OA149900361REMSYN106AAXX  14184 06722 32988 20602 11046 21126 38037 48384 53012 333 11031 43040 82459 90766 93100 91107 91204;
0137067220999992010011419004+46117+007517FM-12+182599999V0200601N001019999999N9999999N1-00441-01211999999ADDMA1999999080441MD1310181+9999ME1313919OA149900261REMSYN076AAXX  14194 06722 33/// /0602 11044 21121 38044 48391 53018 333 91105 91203;
0137067220999992010011420004+46117+007517FM-12+182599999V0200401N001019999999N9999999N1-00411-01291999999ADDMA1999999080491MD1110191+9999ME1313959OA149900311REMSYN076AAXX  14204 06722 33/// /0402 11041 21129 38049 48395 51019 333 91106 91203;
0137067220999992010011421004+46117+007517FM-12+182599999V0200401N001019999999N9999999N1-00421-01311999999ADDMA1999999080551MD1310181+9999ME1314019OA149900361REMSYN076AAXX  14214 06722 33/// /0402 11042 21131 38055 48401 53018 333 91107 91204;
0137067220999992010011422004+46117+007517FM-12+182599999V0200501N000519999999N9999999N1-00381-01251999999ADDMA1999999080641MD1210201+9999ME1314109OA149900311REMSYN076AAXX  14224 06722 33/// /0501 11038 21125 38064 48410 52020 333 91106 91203;
0137067220999992010011423004+46117+007517FM-12+182599999V0201001N000519999999N9999999N1-00331-01281999999ADDMA1999999080671MD1110181+9999ME1314129OA149900311REMSYN076AAXX  14234 06722 33/// /1001 11033 21128 38067 48412 51018 333 91106 91203;
0137067220999992010011500004+46117+007517FM-12+182599999V0200701N000519999999N9999999N1-00471-01291999999ADDMA1999999080711MD1110161+9999ME1314189OA149900361REMSYN076AAXX  15004 06722 33/// /0701 11047 21129 38071 48418 51016 333 91107 91204;
0137067220999992010011501004+46117+007517FM-12+182599999V0201001N000519999999N9999999N1-00411-01331999999ADDMA1999999080741MD1210101+9999ME1314209OA149900311REMSYN076AAXX  15014 06722 33/// /1001 11041 21133 38074 48420 52010 333 91106 91203;
0137067220999992010011502004+46117+007517FM-12+182599999V0200501N001519999999N9999999N1-00501-01381999999ADDMA1999999080831MD1210161+9999ME1314309OA149900311REMSYN076AAXX  15024 06722 33/// /0503 11050 21138 38083 48430 52016 333 91106 91203;
0096067220999992010011503004+46117+007517FM-12+182599999V0201301N000519999999N9999999N1-00301-01241999999ADDMA1999999080871ME1314319REMSYN060AAXX  15034 06722 33/// /1301 11030 21124 38087 48431 5////;
0137067220999992010011504004+46117+007517FM-12+182599999V0209999C000019999999N9999999N1-00451-01271999999ADDMA1999999080901MD1110161+9999ME1314369OA149900311REMSYN076AAXX  15044 06722 33/// /0000 11045 21127 38090 48436 51016 333 91106 91204;
0137067220999992010011505004+46117+007517FM-12+182599999V0200301N000519999999N9999999N1-00491-01301999999ADDMA1999999080981MD1310151+9999ME1314459OA149900211REMSYN076AAXX  15054 06722 33/// /0301 11049 21130 38098 48445 53015 333 91104 91202;
0234067220999992010011506004+46117+007517FM-12+182599999V0201201N001019999999N9999999N1-00471-01291999999ADDAA124000091AL19900091GJ101029IA2999-00109KA1999N-00581MA1999999081061MD1310191+9999ME1314529OA149900311REMSYN100AAXX  15064 06722 33/// /1202 11047 21129 38106 48452 53019 333 21058 3/101 55017 70000 91106 91204;EQDQ01  00002PRCP24
0137067220999992010011507004+46117+007517FM-12+182599999V0201001N000519999999N9999999N1-00371-01281999999ADDMA1999999081141MD1110241+9999ME1314599OA149900211REMSYN076AAXX  15074 06722 33/// /1001 11037 21128 38114 48459 51024 333 91104 91203;
0137067220999992010011508004+46117+007517FM-12+182599999V0200101N000519999999N9999999N1-00411-01231999999ADDMA1999999081231MD1219999+9999ME1314689OA149900211REMSYN076AAXX  15084 06722 33/// /0101 11041 21123 38123 48468 52/// 333 91104 91202;
0137067220999992010011509004+46117+007517FM-12+182599999V0201101N000519999999N9999999N1-00431-01211999999ADDMA1999999081331MD1210271+9999ME1314789OA149900211REMSYN076AAXX  15094 06722 33/// /1101 11043 21121 38133 48478 52027 333 91104 91203;
0137067220999992010011510004+46117+007517FM-12+182599999V0201101N000519999999N9999999N1-00181-01151999999ADDMA1999999081371MD1110231+9999ME1314799OA149900211REMSYN076AAXX  15104 06722 33/// /1101 11018 21115 38137 48479 51023 333 91104 91202;
0137067220999992010011511004+46117+007517FM-12+182599999V0203001N001019999999N9999999N1-00291-00951999999ADDMA1999999081381MD1210151+9999ME1314819OA149900261REMSYN076AAXX  15114 06722 33/// /3002 11029 21095 38138 48481 52015 333 91105 91202;
0207067220999992010011512004+46117+007517FM-12+182599999V0209999C000010630019N0750001N1-00281-00971999999ADDGA1021+024001041GA2031+063001001GF105991999999022501999999MA1999999081421MD1210091+9999ME1314859OA149900311REMSYN088AAXX  15124 06722 32889 50000 11028 21097 38142 48485 52009 333 82458 83071 91106 91204;
0137067220999992010011513004+46117+007517FM-12+182599999V0203101N000519999999N9999999N1-00181-00981999999ADDMA1999999081431MD1210061+9999ME1314859OA149900151REMSYN076AAXX  15134 06722 33/// /3101 11018 21098 38143 48485 52006 333 91103 91202;
0137067220999992010011514004+46117+007517FM-12+182599999V0203101N000519999999N9999999N1-00231-00991999999ADDMA1999999081481MD1210101+9999ME1314909OA149900261REMSYN076AAXX  15144 06722 33/// /3101 11023 21099 38148 48490 52010 333 91105 91203;
0137067220999992010011515004+46117+007517FM-12+182599999V0201001N001019999999N9999999N1-00221-00951999999ADDMA1999999081541MD1210121+9999ME1314969OA149900261REMSYN076AAXX  15154 06722 33/// /1002 11022 21095 38154 48496 52012 333 91105 91203;
0137067220999992010011516004+46117+007517FM-12+182599999V0200501N001019999999N9999999N1-00331-01071999999ADDMA1999999081581MD1210151+9999ME1315029OA149900261REMSYN076AAXX  15164 06722 33/// /0502 11033 21107 38158 48502 52015 333 91105 91203;
0137067220999992010011517004+46117+007517FM-12+182599999V0200501N000519999999N9999999N1-00321-01221999999ADDMA1999999081631MD1210151+9999ME1315069OA149900261REMSYN076AAXX  15174 06722 33/// /0501 11032 21122 38163 48506 52015 333 91105 91203;
0249067220999992010011518004+46117+007517FM-12+182599999V0200801N001012200019N0750001N1-00421-01351999999ADDAJ100409199999999AL19900091GA1001+999999999GF100991001001999999001001IA1279KA1120M-00131MA1999999081681MD1310141+9999ME1315129OA149900261REMSYN100AAXX  15184 06722 32/89 00802 11042 21135 38168 48512 53014 333 11013 43040 90766 93100 91105 91203;
0137067220999992010011519004+46117+007517FM-12+182599999V0200301N001519999999N9999999N1-00441-01351999999ADDMA1999999081711MD1210131+9999ME1315169OA149900261REMSYN076AAXX  15194 06722 33/// /0303 11044 21135 38171 48516 52013 333 91105 91203;
0137067220999992010011520004+46117+007517FM-12+182599999V0200301N001019999999N9999999N1-00441-01381999999ADDMA1999999081711MD1210081+9999ME1315169OA149900361REMSYN076AAXX  15204 06722 33/// /0302 11044 21138 38171 48516 52008 333 91107 91203;
0137067220999992010011521004+46117+007517FM-12+182599999V0200201N001519999999N9999999N1-00441-01571999999ADDMA1999999081731MD1210051+9999ME1315189OA149900361REMSYN076AAXX  15214 06722 33/// /0203 11044 21157 38173 48518 52005 333 91107 91203;
0137067220999992010011522004+46117+007517FM-12+182599999V0200601N000519999999N9999999N1-00411-01661999999ADDMA1999999081691MD1810021+9999ME1315139OA149900311REMSYN076AAXX  15224 06722 33/// /0601 11041 21166 38169 48513 58002 333 91106 91203;
0137067220999992010011523004+46117+007517FM-12+182599999V0203401N000519999999N9999999N1-00501-01571999999ADDMA1999999081731MD1210021+9999ME1315189OA149900261REMSYN076AAXX  15234 06722 33/// /3401 11050 21157 38173 48518 52002 333 91105 91203;
0137067220999992010011600004+46117+007517FM-12+182599999V0200401N001519999999N9999999N1-00461-01591999999ADDMA1999999081711MD1710021+9999ME1315169OA149900361REMSYN076AAXX  16004 06722 33/// /0403 11046 21159 38171 48516 57002 333 91107 91203;
0137067220999992010011601004+46117+007517FM-12+182599999V0200701N001019999999N9999999N1-00511-01451999999ADDMA1999999081721MD1010031+9999ME1315179OA149900261REMSYN076AAXX  16014 06722 33/// /0702 11051 21145 38172 48517 50003 333 91105 91203;
0137067220999992010011602004+46117+007517FM-12+182599999V0201001N001019999999N9999999N1-00351-01581999999ADDMA1999999081741MD1510011+9999ME1315179OA149900311REMSYN076AAXX  16024 06722 33/// /1002 11035 21158 38174 48517 55001 333 91106 91203;
0137067220999992010011603004+46117+007517FM-12+182599999V0200601N000519999999N9999999N1-00291-01621999999ADDMA1999999081681MD1819999+9999ME1315119OA149900311REMSYN076AAXX  16034 06722 33/// /0601 11029 21162 38168 48511 58/// 333 91106 91203;
0137067220999992010011604004+46117+007517FM-12+182599999V0200601N000519999999N9999999N1-00471-01811999999ADDMA1999999081721MD1510001+9999ME1315179OA149900261REMSYN076AAXX  16044 06722 33/// /0601 11047 21181 38172 48517 55000 333 91105 91203;
0137067220999992010011605004+46117+007517FM-12+182599999V0200601N000519999999N9999999N1-00151-02061999999ADDMA1999999081661MD1710081+9999ME1315079OA149900311REMSYN076AAXX  16054 06722 33/// /0601 11015 21206 38166 48507 57008 333 91106 91203;
0317067220999992010011606004+46117+007517FM-12+182599999V0200301N001512200019N0750001N1-00331-02121999999ADDAA124000091AJ100409199999999AL19900091GA1001+999999999GF100991001001999999001001GJ102889IA1279IA2999-00109KA1999N-00551MA1999999081661MD1810021+9999ME1315099OA149900361REMSYN118AAXX  16064 06722 32/89 00303 11033 21212 38166 48509 58002 333 21055 3/101 43040 55048 70000 90768 93100 91107 91203;EQDQ01  00002PRCP24
0137067220999992010011607004+46117+007517FM-12+182599999V0201301N001019999999N9999999N1-00011-02421999999ADDMA1999999081621MD1710101+9999ME1315029OA149900311REMSYN076AAXX  16074 06722 33/// /1302 11001 21242 38162 48502 57010 333 91106 91203;
0137067220999992010011608004+46117+007517FM-12+182599999V0200701N001019999999N9999999N1-00241-02411999999ADDMA1999999081601MD1710061+9999ME1315029OA149900311REMSYN076AAXX  16084 06722 33/// /0702 11024 21241 38160 48502 57006 333 91106 91203;
0137067220999992010011609004+46117+007517FM-12+182599999V0200601N000519999999N9999999N1-00121-02151999999ADDMA1999999081591MD1710071+9999ME1315009OA149900311REMSYN076AAXX  16094 06722 33/// /0601 11012 21215 38159 48500 57007 333 91106 91203;
0137067220999992010011610004+46117+007517FM-12+182599999V0203201N000519999999N9999999N1+00031-01751999999ADDMA1999999081601MD1710021+9999ME1314999OA149900261REMSYN076AAXX  16104 06722 33/// /3201 10003 21175 38160 48499 57002 333 91105 91203;
0137067220999992010011611004+46117+007517FM-12+182599999V0200301N000519999999N9999999N1+00271-01501999999ADDMA1999999081521MD1710081+9999ME1314889OA149900261REMSYN076AAXX  16114 06722 33/// /0301 10027 21150 38152 48488 57008 333 91105 91203;
0185067220999992010011612004+46117+007517FM-12+182599999V0200501N000510360019N0600001N1+00181-01721999999ADDGA1081+036001041GF108991999999999999999999MA1999999081471MD1710121+9999ME1314849OA149900311REMSYN082AAXX  16124 06722 32986 80501 10018 21172 38147 48484 57012 333 88462 91106 91203;
0137067220999992010011613004+46117+007517FM-12+182599999V0200301N000519999999N9999999N1+00141-01211999999ADDMA1999999081451MD1710151+9999ME1314839OA149900211REMSYN076AAXX  16134 06722 33/// /0301 10014 21121 38145 48483 57015 333 91104 91202;
0137067220999992010011614004+46117+007517FM-12+182599999V0201001N001019999999N9999999N1+00251-01501999999ADDMA1999999081391MD1719999+9999ME1314759OA149900211REMSYN076AAXX  16144 06722 33/// /1002 10025 21150 38139 48475 57/// 333 91104 91202;
0137067220999992010011615004+46117+007517FM-12+182599999V0202901N001519999999N9999999N1+00041-01381999999ADDMA1999999081381MD1710091+9999ME1314779OA149900311REMSYN076AAXX  16154 06722 33/// /2903 10004 21138 38138 48477 57009 333 91106 91203;
0137067220999992010011616004+46117+007517FM-12+182599999V0201101N001519999999N9999999N1+00131-01141999999ADDMA1999999081381MD1510071+9999ME1314769OA149900311REMSYN076AAXX  16164 06722 33/// /1103 10013 21114 38138 48476 55007 333 91106 91204;
0137067220999992010011617004+46117+007517FM-12+182599999V0203501N000519999999N9999999N1+00201-01261999999ADDMA1999999081341MD1810051+9999ME1314719OA149900311REMSYN076AAXX  16174 06722 33/// /3501 10020 21126 38134 48471 58005 333 91106 91204;
0255067220999992010011618004+46117+007517FM-12+182599999V0200701N001010270019N0600001N1+00021-01151999999ADDAJ100399199999999AL19900091GA1081+027001041GF108991999999999999999999IA1279KA1120M+00291MA1999999081391MD1510011+9999ME1314789OA149900311REMSYN106AAXX  16184 06722 32986 80702 10002 21115 38139 48478 55001 333 10029 43039 88459 90766 93100 91106 91204;
0137067220999992010011619004+46117+007517FM-12+182599999V0200201N000519999999N9999999N1+00061-01241999999ADDMA1999999081411MD1310031+9999ME1314809OA149900211REMSYN076AAXX  16194 06722 33/// /0201 10006 21124 38141 48480 53003 333 91104 91202;
0137067220999992010011620004+46117+007517FM-12+182599999V0203301N000519999999N9999999N1+00091-01341999999ADDMA1999999081371MD1010031+9999ME1314759OA149900211REMSYN076AAXX  16204 06722 33/// /3301 10009 21134 38137 48475 50003 333 91104 91202;
0137067220999992010011621004+46117+007517FM-12+182599999V0201001N001019999999N9999999N1-00071-01101999999ADDMA1999999081361MD1810031+9999ME1314779OA149900461REMSYN076AAXX  16214 06722 33/// /1002 11007 21110 38136 48477 58003 333 91109 91206;
0137067220999992010011622004+46117+007517FM-12+182599999V0200701N001019999999N9999999N1-00101-01021999999ADDMA1999999081371MD1710041+9999ME1314789OA149900461REMSYN076AAXX  16224 06722 33/// /0702 11010 21102 38137 48478 57004 333 91109 91206;
0137067220999992010011623004+46117+007517FM-12+182599999V0203201N001519999999N9999999N1-00211-00861999999ADDMA1999999081351MD1810021+9999ME1314779OA149900311REMSYN076AAXX  16234 06722 33/// /3203 11021 21086 38135 48477 58002 333 91106 91203;
0179067220999992010011700004+46117+007517FM-12+182599999V0201101N001019999999N9999999N1-00381-00501999999ADDAA106000091MA1999999081401MD1310041+9999ME1314859OA149900461REMSYN088AAXX  17004 06722 03/// /1102 11038 21050 38140 48485 53004 69921 333 69925 91109 91206;EQDQ01  00002PRCP06
0154067220999992010011701004+46117+007517FM-12+182599999V0201101N001019999999N9999999N1-00411-00461999999ADDAA101000391MA1999999081441MD1210071+9999ME1314899OA149900261REMSYN082AAXX  17014 06722 23/// /1102 11041 21046 38144 48489 52007 333 69935 91105 91203;
0154067220999992010011702004+46117+007517FM-12+182599999V0200701N002119999999N9999999N1-00041-00421999999ADDAA101000021MA1999999081401MD1019999+9999ME1314809OA149900411REMSYN082AAXX  17024 06722 23/// /0704 11004 21042 38140 48480 50/// 333 69915 91108 91204;
0096067220999992010011703004+46117+007517FM-12+182599999V0200701N001019999999N9999999N1-00021-00401999999ADDMA1999999081271ME1314679REMSYN060AAXX  17034 06722 43/// /0702 11002 21040 38127 48467 5////;
