0140067340999992011010100004+46667+007867FM-12+057999999V0202201N002119999999N9999999N1-00341-00341102531ADDMA1999999095351MD1710081+9999OA149900311REMSYN088AAXX  01004 06734 33/// /2204 11034 21034 39535 40253 57008 333 55300 20014 91106 91205;
0140067340999992011010101004+46667+007867FM-12+057999999V0202201N002119999999N9999999N1-00361-00361102511ADDMA1999999095331MD1610081+9999OA149900261REMSYN088AAXX  01014 06734 33/// /2204 11036 21036 39533 40251 56008 333 55300 20014 91105 91204;
0140067340999992011010102004+46667+007867FM-12+057999999V0202101N002119999999N9999999N1-00331-00331102511ADDMA1999999095331MD1710051+9999OA149900311REMSYN088AAXX  01024 06734 33/// /2104 11033 21033 39533 40251 57005 333 55300 20014 91106 91205;
0140067340999992011010103004+46667+007867FM-12+057999999V0202101N002119999999N9999999N1-00401-00401102511ADDMA1999999095321MD1710031+9999OA149900311REMSYN088AAXX  01034 06734 33/// /2104 11040 21040 39532 40251 57003 333 55300 20014 91106 91205;
0140067340999992011010104004+46667+007867FM-12+057999999V0202001N002619999999N9999999N1-00421-00421102491ADDMA1999999095291MD1710041+9999OA149900311REMSYN088AAXX  01044 06734 33/// /2005 11042 21042 39529 40249 57004 333 55300 20014 91106 91205;
0140067340999992011010105004+46667+007867FM-12+057999999V0202101N002619999999N9999999N1-00381-00381102511ADDMA1999999095321MD1510011+9999OA149900361REMSYN088AAXX  01054 06734 33/// /2105 11038 21038 39532 40251 55001 333 55300 20014 91107 91205;
0189067340999992011010106004+46667+007867FM-12+057999999V0202201N002119999999N9999999N1-00451-00451102551ADDAL19900091GJ100009KA1999N-00441MA1999999095341MD1310021+9999OA149900361REMSYN106AAXX  01064 06734 33/// /2204 11045 21045 39534 40255 53002 333 21044 55000 55300 20014 70000 91107 91206;
0140067340999992011010107004+46667+007867FM-12+057999999V0202101N002619999999N9999999N1-00371-00371102541ADDMA1999999095351MD1110061+9999OA149900361REMSYN088AAXX  01074 06734 33/// /2105 11037 21037 39535 40254 51006 333 55300 20014 91107 91206;
0140067340999992011010108004+46667+007867FM-12+057999999V0202101N002119999999N9999999N1-00331-00331102541ADDMA1999999095361MD1119999+9999OA149900411REMSYN088AAXX  01084 06734 33/// /2104 11033 21033 39536 40254 51/// 333 55300 20022 91108 91206;
0087067340999992011010109004+46667+007867FM-12+057999999V0202401N001519999999N9999999N1-00401-00401102551ADDMA1999999095351REMSYN060AAXX  01094 06734 43/// /2403 11040 21040 39535 40255 5////;
0087067340999992011010110004+46667+007867FM-12+057999999V0202201N001019999999N9999999N1-00231-00281102491ADDMA1999999095341REMSYN060AAXX  01104 06734 43/// /2202 11023 21028 39534 40249 5////;
0140067340999992011010111004+46667+007867FM-12+057999999V0201001N001519999999N9999999N1-00161-00161102411ADDMA1999999095291MD1710071+9999OA149900261REMSYN088AAXX  01114 06734 33/// /1003 11016 21016 39529 40241 57007 333 55307 20932 91105 91204;
0087067340999992011010112004+46667+007867FM-12+057999999V0201801N001019999999N9999999N1-00141-00141102371ADDMA1999999095251REMSYN060AAXX  01124 06734 43/// /1802 11014 21014 39525 40237 5////;
0087067340999992011010113004+46667+007867FM-12+057999999V0201801N000519999999N9999999N1-00181-00231102281ADDMA1999999095161REMSYN060AAXX  01134 06734 43/// /1801 11018 21023 39516 40228 5////;
0087067340999992011010114004+46667+007867FM-12+057999999V0202001N001519999999N9999999N1-00181-00241102251ADDMA1999999095131REMSYN060AAXX  01144 06734 43/// /2003 11018 21024 39513 40225 5////;
0087067340999992011010115004+46667+007867FM-12+057999999V0202101N002119999999N9999999N1-00311-00341102271ADDMA1999999095121REMSYN060AAXX  01154 06734 43/// /2104 11031 21034 39512 40227 5////;
0087067340999992011010116004+46667+007867FM-12+057999999V0202101N001519999999N9999999N1-00381-00381102261ADDMA1999999095091REMSYN060AAXX  01164 06734 43/// /2103 11038 21038 39509 40226 5////;
0087067340999992011010117004+46667+007867FM-12+057999999V0202101N001519999999N9999999N1-00391-00391102271ADDMA1999999095101REMSYN060AAXX  01174 06734 43/// /2103 11039 21039 39510 40227 5////;
0087067340999992011010118004+46667+007867FM-12+057999999V0202101N002119999999N9999999N1-00301-00301102281ADDMA1999999095131REMSYN060AAXX  01184 06734 43/// /2104 11030 21030 39513 40228 5////;
0103067340999992011010119004+46667+007867FM-12+057999999V0201901N001019999999N9999999N1-00281-00281102301ADDMA1999999095151REMSYN076AAXX  01194 06734 33/// /1902 11028 21028 39515 40230 5//// 333 553// 20014;
0140067340999992011010120004+46667+007867FM-12+057999999V0202101N002119999999N9999999N1-00251-00251102281ADDMA1999999095141MD1210041+9999OA149900311REMSYN088AAXX  01204 06734 33/// /2104 11025 21025 39514 40228 52004 333 55300 20014 91106 91205;
0140067340999992011010121004+46667+007867FM-12+057999999V0202101N003119999999N9999999N1-00251-00251102271ADDMA1999999095131MD1010001+9999OA149900511REMSYN088AAXX  01214 06734 33/// /2106 11025 21025 39513 40227 50000 333 55300 20014 91110 91208;
0140067340999992011010122004+46667+007867FM-12+057999999V0202201N002619999999N9999999N1-00381-00401102271ADDMA1999999095101MD1710051+9999OA149900511REMSYN088AAXX  01224 06734 33/// /2205 11038 21040 39510 40227 57005 333 55300 20014 91110 91208;
0140067340999992011010123004+46667+007867FM-12+057999999V0202001N001019999999N9999999N1-00351-00351102191ADDMA1999999095031MD1810111+9999OA149900361REMSYN088AAXX  01234 06734 33/// /2002 11035 21035 39503 40219 58011 333 55300 20014 91107 91206;
0140067340999992011010200004+46667+007867FM-12+057999999V0202101N002119999999N9999999N1-00411-00441102141ADDMA1999999094971MD1810161+9999OA149900511REMSYN088AAXX  02004 06734 33/// /2104 11041 21044 39497 40214 58016 333 55300 20014 91110 91208;
0140067340999992011010201004+46667+007867FM-12+057999999V0200701N002119999999N9999999N1-00171-00171102121ADDMA1999999095011MD1510091+9999OA149900411REMSYN088AAXX  02014 06734 33/// /0704 11017 21017 39501 40212 55009 333 55300 20014 91108 91205;
0087067340999992011010202004+46667+007867FM-12+057999999V0202101N002619999999N9999999N1-00281-00281102181ADDMA1999999095041REMSYN060AAXX  02024 06734 43/// /2105 11028 21028 39504 40218 5////;
0087067340999992011010203004+46667+007867FM-12+057999999V0202201N002119999999N9999999N1-00241-00271102141ADDMA1999999095011REMSYN060AAXX  02034 06734 43/// /2204 11024 21027 39501 40214 5////;
0087067340999992011010204004+46667+007867FM-12+057999999V0203001N000519999999N9999999N1-00261-00341102171ADDMA1999999095041REMSYN060AAXX  02044 06734 43/// /3001 11026 21034 39504 40217 5////;
0087067340999992011010205004+46667+007867FM-12+057999999V0202101N001519999999N9999999N1-00251-00281102201ADDMA1999999095071REMSYN060AAXX  02054 06734 43/// /2103 11025 21028 39507 40220 5////;
0116067340999992011010206004+46667+007867FM-12+057999999V0202001N003619999999N9999999N1-00221-00361102171ADDKA1999N-00421MA1999999095051REMSYN076AAXX  02064 06734 43/// /2007 11022 21036 39505 40217 5//// 333 21042 55041;
0175067340999992011010207004+46667+007867FM-12+057999999V0203001N000519999999N9999999N1-00181-00311102151ADDMA1999999095041MD1710021+9999OA149900511REMSYN088AAXX  02074 06734 33/// /3001 11018 21031 39504 40215 58000 333 55300 20014 91110 91207;EQDQ01+000082APCTENQ02+000002APC3  
0140067340999992011010208004+46667+007867FM-12+057999999V0202001N002119999999N9999999N1-00171-00301102201ADDMA1999999095091MD1310021+9999OA149900511REMSYN088AAXX  02084 06734 33/// /2004 11017 21030 39509 40220 53002 333 55300 20022 91110 91207;
0140067340999992011010209004+46667+007867FM-12+057999999V0201901N001019999999N9999999N1-00141-00361102241ADDMA1999999095131MD1210081+9999OA149900511REMSYN088AAXX  02094 06734 33/// /1902 11014 21036 39513 40224 52008 333 55300 20101 91110 91207;
0140067340999992011010210004+46667+007867FM-12+057999999V0202001N001519999999N9999999N1-00101-00341102251ADDMA1999999095151MD1210111+9999OA149900461REMSYN088AAXX  02104 06734 33/// /2003 11010 21034 39515 40225 52011 333 55300 20227 91109 91205;
0140067340999992011010211004+46667+007867FM-12+057999999V0202001N002619999999N9999999N1-00061-00371102201ADDMA1999999095121MD1010031+9999OA149900361REMSYN088AAXX  02114 06734 33/// /2005 11006 21037 39512 40220 50003 333 55300 20313 91107 91205;
0140067340999992011010212004+46667+007867FM-12+057999999V0202001N001519999999N9999999N1-00031-00381102161ADDMA1999999095091MD1810041+9999OA149900511REMSYN088AAXX  02124 06734 33/// /2003 11003 21038 39509 40216 58004 333 55300 20353 91110 91207;
0140067340999992011010213004+46667+007867FM-12+057999999V0202001N001519999999N9999999N1-00021-00341102141ADDMA1999999095071MD1610081+9999OA149900311REMSYN088AAXX  02134 06734 33/// /2003 11002 21034 39507 40214 56008 333 55300 20263 91106 91205;
0103067340999992011010214004+46667+007867FM-12+057999999V0202201N001019999999N9999999N1-00011-00311102151ADDMA1999999095081REMSYN076AAXX  02144 06734 33/// /2202 11001 21031 39508 40215 5//// 333 553// 20205;
0140067340999992011010215004+46667+007867FM-12+057999999V0202301N001019999999N9999999N1+00001-00301102181ADDMA1999999095111MD1310021+9999OA149900361REMSYN088AAXX  02154 06734 33/// /2302 10000 21030 39511 40218 53002 333 55300 20115 91107 91205;
0140067340999992011010216004+46667+007867FM-12+057999999V0202201N001019999999N9999999N1-00021-00251102221ADDMA1999999095141MD1310071+9999OA149900151REMSYN088AAXX  02164 06734 33/// /2202 11002 21025 39514 40222 53007 333 55300 20029 91103 91202;
0140067340999992011010217004+46667+007867FM-12+057999999V0202301N000519999999N9999999N1-00041-00221102251ADDMA1999999095171MD1310091+9999OA149900151REMSYN088AAXX  02174 06734 33/// /2301 11004 21022 39517 40225 53009 333 55300 20014 91103 91202;
0159067340999992011010218004+46667+007867FM-12+057999999V0202201N001019999999N9999999N1-00061-00181102281ADDKA1120M+00011MA1999999095191MD1110081+9999OA149900511REMSYN094AAXX  02184 06734 33/// /2202 11006 21018 39519 40228 51008 333 10001 55300 20014 91110 91207;
0140067340999992011010219004+46667+007867FM-12+057999999V0202101N001519999999N9999999N1-00081-00101102301ADDMA1999999095201MD1110061+9999OA149900261REMSYN088AAXX  02194 06734 33/// /2103 11008 21010 39520 40230 51006 333 55300 20014 91105 91204;
0140067340999992011010220004+46667+007867FM-12+057999999V0201901N001019999999N9999999N1-00061-00161102311ADDMA1999999095221MD1110051+9999OA149900311REMSYN088AAXX  02204 06734 33/// /1902 11006 21016 39522 40231 51005 333 55300 20014 91106 91204;
0140067340999992011010221004+46667+007867FM-12+057999999V0201901N001519999999N9999999N1-00091-00141102361ADDMA1999999095261MD1210071+9999OA149900311REMSYN088AAXX  02214 06734 33/// /1903 11009 21014 39526 40236 52007 333 55300 20014 91106 91205;
0140067340999992011010222004+46667+007867FM-12+057999999V0201801N001019999999N9999999N1-00061-00261102371ADDMA1999999095271MD1210071+9999OA149900311REMSYN088AAXX  02224 06734 33/// /1802 11006 21026 39527 40237 52007 333 55300 20014 91106 91205;
0140067340999992011010223004+46667+007867FM-12+057999999V0201901N001519999999N9999999N1-00121-00251102401ADDMA1999999095291MD1210071+9999OA149900311REMSYN088AAXX  02234 06734 33/// /1903 11012 21025 39529 40240 52007 333 55300 20014 91106 91203;
0140067340999992011010300004+46667+007867FM-12+057999999V0202101N002119999999N9999999N1-00131-00431102401ADDMA1999999095281MD1210021+9999OA149900461REMSYN088AAXX  03004 06734 33/// /2104 11013 21043 39528 40240 52002 333 55300 20014 91109 91206;
0140067340999992011010301004+46667+007867FM-12+057999999V0202201N001019999999N9999999N1-00171-00421102391ADDMA1999999095261MD1810011+9999OA149900461REMSYN088AAXX  03014 06734 33/// /2202 11017 21042 39526 40239 58001 333 55300 20014 91109 91206;
0140067340999992011010302004+46667+007867FM-12+057999999V0202001N001519999999N9999999N1-00181-00431102411ADDMA1999999095281MD1519999+9999OA149900311REMSYN088AAXX  03024 06734 33/// /2003 11018 21043 39528 40241 55/// 333 55300 20014 91106 91204;
0087067340999992011010303004+46667+007867FM-12+057999999V0202001N002119999999N9999999N1-00191-00501102421ADDMA1999999095291REMSYN060AAXX  03034 06734 43/// /2004 11019 21050 39529 40242 5////;
0140067340999992011010304004+46667+007867FM-12+057999999V0202601N001519999999N9999999N1-00181-00561102431ADDMA1999999095301MD1210041+9999OA149900311REMSYN088AAXX  03044 06734 33/// /2603 11018 21056 39530 40243 52004 333 55300 20014 91106 91205;
0140067340999992011010305004+46667+007867FM-12+057999999V0201801N001519999999N9999999N1-00181-00581102431ADDMA1999999095301MD1210021+9999OA149900311REMSYN088AAXX  03054 06734 33/// /1803 11018 21058 39530 40243 52002 333 55300 20014 91106 91205;
0189067340999992011010306004+46667+007867FM-12+057999999V0202101N001019999999N9999999N1-00161-00681102441ADDAL19900091GJ100009KA1999N-00201MA1999999095311MD1210021+9999OA149900461REMSYN106AAXX  03064 06734 33/// /2102 11016 21068 39531 40244 52002 333 21020 55000 55300 20014 70000 91109 91206;
0140067340999992011010307004+46667+007867FM-12+057999999V0201401N002619999999N9999999N1-00181-00741102431ADDMA1999999095301MD1410001+9999OA149900411REMSYN088AAXX  03074 06734 33/// /1405 11018 21074 39530 40243 54000 333 55300 20014 91108 91205;
0140067340999992011010308004+46667+007867FM-12+057999999V0202001N004619999999N9999999N1-00411-00791102511ADDMA1999999095311MD1219999+9999OA149900621REMSYN088AAXX  03084 06734 33/// /2009 11041 21079 39531 40251 52/// 333 55300 20032 91112 91210;
0103067340999992011010309004+46667+007867FM-12+057999999V0201901N004619999999N9999999N1-00431-00851102511ADDMA1999999095311REMSYN076AAXX  03094 06734 33/// /1909 11043 21085 39531 40251 5//// 333 553// 20068;
0140067340999992011010310004+46667+007867FM-12+057999999V0202101N002619999999N9999999N1-00351-00771102511ADDMA1999999095331MD1210031+9999OA149900621REMSYN088AAXX  03104 06734 33/// /2105 11035 21077 39533 40251 52003 333 55305 20518 91112 91209;
0140067340999992011010311004+46667+007867FM-12+057999999V0202001N003119999999N9999999N1-00331-00781102481ADDMA1999999095311MD1010001+9999OA149900571REMSYN088AAXX  03114 06734 33/// /2006 11033 21078 39531 40248 50000 333 553// 2//// 91111 91208;
0140067340999992011010312004+46667+007867FM-12+057999999V0202101N002119999999N9999999N1-00251-00761102361ADDMA1999999095221MD1810091+9999OA149900621REMSYN088AAXX  03124 06734 33/// /2104 11025 21076 39522 40236 58009 333 553// 2//// 91112 91210;
0140067340999992011010313004+46667+007867FM-12+057999999V0202201N002619999999N9999999N1-00361-00781102351ADDMA1999999095181MD1810151+9999OA149900411REMSYN088AAXX  03134 06734 33/// /2205 11036 21078 39518 40235 58015 333 553// 2//// 91108 91206;
0103067340999992011010314004+46667+007867FM-12+057999999V0202101N002119999999N9999999N1-00321-00771102361ADDMA1999999095201REMSYN076AAXX  03144 06734 33/// /2104 11032 21077 39520 40236 5//// 333 553// 20868;
0103067340999992011010315004+46667+007867FM-12+057999999V0202101N002119999999N9999999N1-00471-00811102421ADDMA1999999095211REMSYN076AAXX  03154 06734 33/// /2104 11047 21081 39521 40242 5//// 333 553// 20367;
0140067340999992011010316004+46667+007867FM-12+057999999V0202301N001519999999N9999999N1-00541-00841102451ADDMA1999999095221MD1210041+9999OA149900261REMSYN088AAXX  03164 06734 33/// /2303 11054 21084 39522 40245 52004 333 55300 20043 91105 91204;
0140067340999992011010317004+46667+007867FM-12+057999999V0201901N001519999999N9999999N1-00581-00881102451ADDMA1999999095211MD1010011+9999OA149900361REMSYN088AAXX  03174 06734 33/// /1903 11058 21088 39521 40245 50001 333 55300 20014 91107 91206;
0159067340999992011010318004+46667+007867FM-12+057999999V0202001N001519999999N9999999N1-00631-00901102471ADDKA1120M-00161MA1999999095221MD1010011+9999OA149900621REMSYN094AAXX  03184 06734 33/// /2003 11063 21090 39522 40247 50001 333 11016 55300 20014 91112 91210;
0140067340999992011010319004+46667+007867FM-12+057999999V0201801N001519999999N9999999N1-00691-00941102461ADDMA1999999095191MD1710031+9999OA149900411REMSYN088AAXX  03194 06734 33/// /1803 11069 21094 39519 40246 57003 333 55300 20014 91108 91205;
0140067340999992011010320004+46667+007867FM-12+057999999V0201801N000519999999N9999999N1-00681-00951102441ADDMA1999999095181MD1710031+9999OA149900411REMSYN088AAXX  03204 06734 33/// /1801 11068 21095 39518 40244 57003 333 55300 20014 91108 91205;
0140067340999992011010321004+46667+007867FM-12+057999999V0202001N001019999999N9999999N1-00771-00991102461ADDMA1999999095171MD1710051+9999OA149900411REMSYN088AAXX  03214 06734 33/// /2002 11077 21099 39517 40246 57005 333 55300 20014 91108 91206;
0140067340999992011010322004+46667+007867FM-12+057999999V0202101N000519999999N9999999N1-00771-00961102461ADDMA1999999095171MD1710021+9999OA149900361REMSYN088AAXX  03224 06734 33/// /2101 11077 21096 39517 40246 57002 333 55300 20014 91107 91205;
0140067340999992011010323004+46667+007867FM-12+057999999V0202301N001019999999N9999999N1-00771-00991102481ADDMA1999999095191MD1310011+9999OA149900361REMSYN088AAXX  03234 06734 33/// /2302 11077 21099 39519 40248 53001 333 55300 20014 91107 91205;
0140067340999992011010400004+46667+007867FM-12+057999999V0202101N002119999999N9999999N1-00721-00951102481ADDMA1999999095201MD1210031+9999OA149900411REMSYN088AAXX  04004 06734 33/// /2104 11072 21095 39520 40248 52003 333 55300 20014 91108 91206;
0140067340999992011010401004+46667+007867FM-12+057999999V0202001N001019999999N9999999N1-00661-00931102421ADDMA1999999095161MD1810011+9999OA149900261REMSYN088AAXX  04014 06734 33/// /2002 11066 21093 39516 40242 58001 333 55300 20014 91105 91204;
0140067340999992011010402004+46667+007867FM-12+057999999V0202201N002119999999N9999999N1-00651-00901102361ADDMA1999999095111MD1719999+9999OA149900311REMSYN088AAXX  04024 06734 33/// /2204 11065 21090 39511 40236 57/// 333 55300 20014 91106 91204;
0140067340999992011010403004+46667+007867FM-12+057999999V0202001N004119999999N9999999N1-00691-00931102351ADDMA1999999095091MD1610111+9999OA149900511REMSYN088AAXX  04034 06734 33/// /2008 11069 21093 39509 40235 56011 333 55300 20014 91110 91208;
0140067340999992011010404004+46667+007867FM-12+057999999V0202301N001019999999N9999999N1-00641-00901102301ADDMA1999999095061MD1610101+9999OA149900671REMSYN088AAXX  04044 06734 33/// /2302 11064 21090 39506 40230 56010 333 55300 20014 91113 91209;
0140067340999992011010405004+46667+007867FM-12+057999999V0201901N004619999999N9999999N1-00661-00971102281ADDMA1999999095031MD1810081+9999OA149900671REMSYN088AAXX  04054 06734 33/// /1909 11066 21097 39503 40228 58008 333 55300 20014 91113 91209;
0189067340999992011010406004+46667+007867FM-12+057999999V0202001N001519999999N9999999N1-00671-00981102241ADDAL19900091GJ103069KA1999N-00781MA1999999094991MD1810101+9999OA149900671REMSYN106AAXX  04064 06734 33/// /2003 11067 21098 39499 40224 58010 333 21078 55051 55300 20014 70000 91113 91209;
0140067340999992011010407004+46667+007867FM-12+057999999V0201901N002619999999N9999999N1-00671-01011102211ADDMA1999999094971MD1710091+9999OA149900621REMSYN088AAXX  04074 06734 33/// /1905 11067 21101 39497 40221 57009 333 55300 20014 91112 91208;
0140067340999992011010408004+46667+007867FM-12+057999999V0201901N001519999999N9999999N1-00711-01001102231ADDMA1999999094971MD1719999+9999OA149900461REMSYN088AAXX  04084 06734 33/// /1903 11071 21100 39497 40223 57/// 333 55300 20029 91109 91207;
0103067340999992011010409004+46667+007867FM-12+057999999V0202201N001519999999N9999999N1-00651-00961102201ADDMA1999999094961REMSYN076AAXX  04094 06734 33/// /2203 11065 21096 39496 40220 5//// 333 553// 20137;
0140067340999992011010410004+46667+007867FM-12+057999999V0201601N000519999999N9999999N1-00481-00811102141ADDMA1999999094951MD1610021+9999OA149900211REMSYN088AAXX  04104 06734 33/// /1601 11048 21081 39495 40214 56002 333 55300 20436 91104 91203;
0140067340999992011010411004+46667+007867FM-12+057999999V0201701N001019999999N9999999N1-00311-00781102021ADDMA1999999094881MD1810091+9999OA149900211REMSYN088AAXX  04114 06734 33/// /1702 11031 21078 39488 40202 58009 333 55308 20882 91104 91203;
0140067340999992011010412004+46667+007867FM-12+057999999V0202901N000519999999N9999999N1-00251-00611101921ADDMA1999999094811MD1810151+9999OA149900671REMSYN088AAXX  04124 06734 33/// /2901 11025 21061 39481 40192 58015 333 55303 20806 91113 91209;
0140067340999992011010413004+46667+007867FM-12+057999999V0202701N001019999999N9999999N1-00191-00611101871ADDMA1999999094781MD1610171+9999OA149900461REMSYN088AAXX  04134 06734 33/// /2702 11019 21061 39478 40187 56017 333 55300 20601 91109 91205;
0103067340999992011010414004+46667+007867FM-12+057999999V0200901N000519999999N9999999N1-00101-00601101811ADDMA1999999094741REMSYN076AAXX  04144 06734 33/// /0901 11010 21060 39474 40181 5//// 333 553// 20810;
0087067340999992011010415004+46667+007867FM-12+057999999V0202201N001519999999N9999999N1-00301-00591101881ADDMA1999999094761REMSYN060AAXX  04154 06734 43/// /2203 11030 21059 39476 40188 5////;
0140067340999992011010416004+46667+007867FM-12+057999999V0202101N002619999999N9999999N1-00401-00681101901ADDMA1999999094751MD1710031+9999OA149900411REMSYN088AAXX  04164 06734 33/// /2105 11040 21068 39475 40190 57003 333 55300 20043 91108 91206;
0140067340999992011010417004+46667+007867FM-12+057999999V0202101N002619999999N9999999N1-00511-00731101931ADDMA1999999094751MD1410001+9999OA149900411REMSYN088AAXX  04174 06734 33/// /2105 11051 21073 39475 40193 54001 333 55300 20014 91108 91206;
0159067340999992011010418004+46667+007867FM-12+057999999V0202201N001019999999N9999999N1-00571-00761102001ADDKA1120M-00101MA1999999094801MD1310041+9999OA149900461REMSYN094AAXX  04184 06734 33/// /2202 11057 21076 39480 40200 53004 333 11010 55300 20014 91109 91207;
0140067340999992011010419004+46667+007867FM-12+057999999V0201301N000519999999N9999999N1-00661-00701102061ADDMA1999999094831MD1310081+9999OA149900411REMSYN088AAXX  04194 06734 33/// /1301 11066 21070 39483 40206 53008 333 55300 20014 91108 91205;
0140067340999992011010420004+46667+007867FM-12+057999999V0201901N001019999999N9999999N1-00631-00841101991ADDMA1999999094771MD1010021+9999OA149900411REMSYN088AAXX  04204 06734 33/// /1902 11063 21084 39477 40199 50002 333 55300 20014 91108 91205;
0140067340999992011010421004+46667+007867FM-12+057999999V0202201N002119999999N9999999N1-00611-00871101921ADDMA1999999094711MD1810091+9999OA149900411REMSYN088AAXX  04214 06734 33/// /2204 11061 21087 39471 40192 58009 333 55300 20014 91108 91206;
0140067340999992011010422004+46667+007867FM-12+057999999V0202401N000519999999N9999999N1-00621-00901101951ADDMA1999999094741MD1710091+9999OA149900361REMSYN088AAXX  04224 06734 33/// /2401 11062 21090 39474 40195 57009 333 55300 20014 91107 91204;
0140067340999992011010423004+46667+007867FM-12+057999999V0202201N001519999999N9999999N1-00751-00931102031ADDMA1999999094781MD1310011+9999OA149900361REMSYN088AAXX  04234 06734 33/// /2203 11075 21093 39478 40203 53001 333 55300 20014 91107 91204;
0140067340999992011010500004+46667+007867FM-12+057999999V0201801N000519999999N9999999N1-00721-00881101991ADDMA1999999094751MD1010041+9999OA149900461REMSYN088AAXX  05004 06734 33/// /1801 11072 21088 39475 40199 50004 333 55300 20014 91109 91206;
0159067340999992011010501004+46667+007867FM-12+057999999V0202001N002619999999N9999999N1-00711-00941101981ADDMA1999999094741MD1810031+9999OA149900361REMSYN088AAXX  05014 06734 33/// /2005 11071 21094 39474 40198 58000 333 55300 20014 91107 91205;EQDQ01+000002APC3  
0140067340999992011010502004+46667+007867FM-12+057999999V0202201N001019999999N9999999N1-00701-00951101981ADDMA1999999094741MD1710041+9999OA149900361REMSYN088AAXX  05024 06734 33/// /2202 11070 21095 39474 40198 57004 333 55300 20014 91107 91205;
0087067340999992011010503004+46667+007867FM-12+057999999V0202401N001019999999N9999999N1-00681-00941101961ADDMA1999999094731REMSYN060AAXX  05034 06734 43/// /2402 11068 21094 39473 40196 5////;
0140067340999992011010504004+46667+007867FM-12+057999999V0202101N001019999999N9999999N1-00731-00971101951ADDMA1999999094711MD1710031+9999OA149900361REMSYN088AAXX  05044 06734 33/// /2102 11073 21097 39471 40195 57003 333 55300 20014 91107 91205;
0140067340999992011010505004+46667+007867FM-12+057999999V0202201N001019999999N9999999N1-00731-00971101941ADDMA1999999094701MD1710041+9999OA149900361REMSYN088AAXX  05054 06734 33/// /2202 11073 21097 39470 40194 57004 333 55300 20014 91107 91204;
0189067340999992011010506004+46667+007867FM-12+057999999V0202201N001019999999N9999999N1-00781-00971101941ADDAL19900091GJ101449KA1999N-00771MA1999999094691MD1710041+9999OA149900411REMSYN106AAXX  05064 06734 33/// /2202 11078 21097 39469 40194 57004 333 21077 55024 55300 20014 70000 91108 91205;
0140067340999992011010507004+46667+007867FM-12+057999999V0202101N001019999999N9999999N1-00721-00811101941ADDMA1999999094701MD1510011+9999OA149900361REMSYN088AAXX  05074 06734 33/// /2102 11072 21081 39470 40194 55001 333 55300 20014 91107 91206;
0140067340999992011010508004+46667+007867FM-12+057999999V0202101N001519999999N9999999N1-00681-00931101931ADDMA1999999094701MD1219999+9999OA149900411REMSYN088AAXX  05084 06734 33/// /2103 11068 21093 39470 40193 52/// 333 55300 20032 91108 91206;
0140067340999992011010509004+46667+007867FM-12+057999999V0209999C000019999999N9999999N1-00631-00901101911ADDMA1999999094701MD1410001+9999OA149900411REMSYN088AAXX  05094 06734 33/// /0000 11063 21090 39470 40191 54001 333 55300 20065 91108 91206;
0140067340999992011010510004+46667+007867FM-12+057999999V0201801N000519999999N9999999N1-00481-00571101831ADDMA1999999094661MD1810041+9999OA149900311REMSYN088AAXX  05104 06734 33/// /1801 11048 21057 39466 40183 58004 333 55305 20500 91106 91204;
0140067340999992011010511004+46667+007867FM-12+057999999V0202401N000519999999N9999999N1-00181-00621101641ADDMA1999999094561MD1710141+9999OA149900211REMSYN088AAXX  05114 06734 33/// /2401 11018 21062 39456 40164 57014 333 553// 2//// 91104 91203;
0103067340999992011010512004+46667+007867FM-12+057999999V0201501N000519999999N9999999N1-00091-00661101541ADDMA1999999094491REMSYN076AAXX  05124 06734 33/// /1501 11009 21066 39449 40154 5//// 333 553// 2////;
0140067340999992011010513004+46667+007867FM-12+057999999V0201801N000519999999N9999999N1-00101-00651101511ADDMA1999999094461MD1710201+9999OA149900311REMSYN088AAXX  05134 06734 33/// /1801 11010 21065 39446 40151 57020 333 553// 2//// 91106 91204;
0087067340999992011010514004+46667+007867FM-12+057999999V0202101N001519999999N9999999N1-00161-00661101541ADDMA1999999094481REMSYN060AAXX  05144 06734 43/// /2103 11016 21066 39448 40154 5////;
0087067340999992011010515004+46667+007867FM-12+057999999V0202201N000519999999N9999999N1-00221-00691101521ADDMA1999999094441REMSYN060AAXX  05154 06734 43/// /2201 11022 21069 39444 40152 5////;
0140067340999992011010516004+46667+007867FM-12+057999999V0202001N001519999999N9999999N1-00351-00671101511ADDMA1999999094401MD1810061+9999OA149900461REMSYN088AAXX  05164 06734 33/// /2003 11035 21067 39440 40151 58006 333 55300 20061 91109 91206;
0140067340999992011010517004+46667+007867FM-12+057999999V0202301N000519999999N9999999N1-00351-00661101521ADDMA1999999094411MD1710071+9999OA149900411REMSYN088AAXX  05174 06734 33/// /2301 11035 21066 39441 40152 57007 333 55300 20014 91108 91205;
0159067340999992011010518004+46667+007867FM-12+057999999V0202201N001519999999N9999999N1-00351-00661101501ADDKA1120M-00081MA1999999094391MD1519999+9999OA149900461REMSYN094AAXX  05184 06734 33/// /2203 11035 21066 39439 40150 55/// 333 11008 55300 20014 91109 91206;
0140067340999992011010519004+46667+007867FM-12+057999999V0202201N000519999999N9999999N1-00381-00671101491ADDMA1999999094371MD1710031+9999OA149900311REMSYN088AAXX  05194 06734 33/// /2201 11038 21067 39437 40149 57003 333 55300 20014 91106 91203;
0140067340999992011010520004+46667+007867FM-12+057999999V0202601N001519999999N9999999N1-00441-00651101471ADDMA1999999094341MD1719999+9999OA149900311REMSYN088AAXX  05204 06734 33/// /2603 11044 21065 39434 40147 57/// 333 55300 20014 91106 91205;
0103067340999992011010521004+46667+007867FM-12+057999999V0202001N001019999999N9999999N1-00471-00651101441ADDMA1999999094301REMSYN076AAXX  05214 06734 33/// /2002 11047 21065 39430 40144 5//// 333 553// 20014;
0140067340999992011010522004+46667+007867FM-12+057999999V0209999C000019999999N9999999N1-00451-00671101411ADDMA1999999094281MD1710091+9999OA149900211REMSYN088AAXX  05224 06734 33/// /0000 11045 21067 39428 40141 57009 333 55300 20014 91104 91203;
0140067340999992011010523004+46667+007867FM-12+057999999V0202201N000519999999N9999999N1-00291-00551101351ADDMA1999999094271MD1719999+9999OA149900411REMSYN088AAXX  05234 06734 33/// /2201 11029 21055 39427 40135 57/// 333 55300 20014 91108 91205;
0087067340999992011010600004+46667+007867FM-12+057999999V0202301N001519999999N9999999N1-00301-00481101291ADDMA1999999094211REMSYN060AAXX  06004 06734 43/// /2303 11030 21048 39421 40129 5////;
0087067340999992011010601004+46667+007867FM-12+057999999V0202001N001019999999N9999999N1-00251-00401101171ADDMA1999999094111REMSYN060AAXX  06014 06734 43/// /2002 11025 21040 39411 40117 5////;
0087067340999992011010602004+46667+007867FM-12+057999999V0202001N001519999999N9999999N1-00201-00351101191ADDMA1999999094141REMSYN060AAXX  06024 06734 43/// /2003 11020 21035 39414 40119 5////;
0087067340999992011010603004+46667+007867FM-12+057999999V0203201N000519999999N9999999N1-00131-00321101171ADDMA1999999094141REMSYN060AAXX  06034 06734 43/// /3201 11013 21032 39414 40117 5////;
0087067340999992011010604004+46667+007867FM-12+057999999V0200301N001019999999N9999999N1-00131-00321101181ADDMA1999999094151REMSYN060AAXX  06044 06734 43/// /0302 11013 21032 39415 40118 5////;
0087067340999992011010605004+46667+007867FM-12+057999999V0201501N001519999999N9999999N1-00011-00251101151ADDMA1999999094151REMSYN060AAXX  06054 06734 43/// /1503 11001 21025 39415 40115 5////;
0116067340999992011010606004+46667+007867FM-12+057999999V0201801N000519999999N9999999N1-00021-00251101151ADDKA1999N-00521MA1999999094151REMSYN076AAXX  06064 06734 43/// /1801 11002 21025 39415 40115 5//// 333 21052 55051;
0087067340999992011010607004+46667+007867FM-12+057999999V0200601N001019999999N9999999N1-00011-00211101131ADDMA1999999094131REMSYN060AAXX  06074 06734 43/// /0602 11001 21021 39413 40113 5////;
0103067340999992011010608004+46667+007867FM-12+057999999V0201601N000519999999N9999999N1+00011-00191101101ADDMA1999999094111REMSYN076AAXX  06084 06734 33/// /1601 10001 21019 39411 40110 5//// 333 553// 20065;
0087067340999992011010609004+46667+007867FM-12+057999999V0201101N000519999999N9999999N1+00061-00211101111ADDMA1999999094131REMSYN060AAXX  06094 06734 43/// /1101 10006 21021 39413 40111 5////;
0140067340999992011010610004+46667+007867FM-12+057999999V0202201N000519999999N9999999N1+00141-00121101101ADDMA1999999094141MD1510011+9999OA149900261REMSYN088AAXX  06104 06734 33/// /2201 10014 21012 39414 40110 55001 333 55301 20403 91105 91203;
0140067340999992011010611004+46667+007867FM-12+057999999V0202101N000519999999N9999999N1+00321-00061101041ADDMA1999999094131MD1210021+9999OA149900261REMSYN088AAXX  06114 06734 33/// /2101 10032 21006 39413 40104 52002 333 55306 20954 91105 91203;
0140067340999992011010612004+46667+007867FM-12+057999999V0200601N002619999999N9999999N1+00371+00041100991ADDMA1999999094101MD1810031+9999OA149900461REMSYN088AAXX  06124 06734 33/// /0605 10037 20004 39410 40099 58003 333 55303 20788 91109 91205;
0140067340999992011010613004+46667+007867FM-12+057999999V0200601N001519999999N9999999N1+00361+00081100941ADDMA1999999094051MD1710091+9999OA149900461REMSYN088AAXX  06134 06734 33/// /0603 10036 20008 39405 40094 57009 333 55302 20752 91109 91206;
0087067340999992011010614004+46667+007867FM-12+057999999V0201401N001019999999N9999999N1+00391+00061100931ADDMA1999999094051REMSYN060AAXX  06144 06734 43/// /1402 10039 20006 39405 40093 5////;
0087067340999992011010615004+46667+007867FM-12+057999999V0202101N001019999999N9999999N1+00371+00091100981ADDMA1999999094091REMSYN060AAXX  06154 06734 43/// /2102 10037 20009 39409 40098 5////;
0140067340999992011010616004+46667+007867FM-12+057999999V0209999C000019999999N9999999N1+00321+00091101021ADDMA1999999094111MD1210061+9999OA149900211REMSYN088AAXX  06164 06734 33/// /0000 10032 20009 39411 40102 52006 333 55300 20040 91104 91202;
0140067340999992011010617004+46667+007867FM-12+057999999V0203401N001019999999N9999999N1+00321+00121101061ADDMA1999999094151MD1210101+9999OA149900261REMSYN088AAXX  06174 06734 33/// /3402 10032 20012 39415 40106 52010 333 55300 20014 91105 91202;
0201067340999992011010618004+46667+007867FM-12+057999999V0200501N000519999999N9999999N1+00251+00251101161ADDAA112000091KA1120M+00441MA1999999094231MD1210141+9999OA149900671REMSYN106AAXX  06184 06734 03/// /0501 10025 20025 39423 40116 52014 69912 333 10044 55300 20014 69915 91113 91207;EQDQ01  00002PRCP12
0146067340999992011010619004+46667+007867FM-12+057999999V0201301N000519999999N9999999N1+00281+00281101251ADDMA1999999094321MD1210211+9999OA149900671REMSYN094AAXX  06194 06734 23/// /1301 10028 20028 39432 40125 52021 333 55300 20014 69925 91113 91207;
0146067340999992011010620004+46667+007867FM-12+057999999V0201301N000519999999N9999999N1+00211+00211101301ADDMA1999999094351MD1219999+9999OA149900311REMSYN094AAXX  06204 06734 23/// /1301 10021 20021 39435 40130 52/// 333 55300 20014 69915 91106 91204;
0146067340999992011010621004+46667+007867FM-12+057999999V0200501N001019999999N9999999N1+00251+00251101301ADDMA1999999094361MD1219999+9999OA149900671REMSYN094AAXX  06214 06734 23/// /0502 10025 20025 39436 40130 52/// 333 55300 20014 69965 91113 91207;
0146067340999992011010622004+46667+007867FM-12+057999999V0201901N002119999999N9999999N1+00241+00241101361ADDMA1999999094411MD1210091+9999OA149900571REMSYN094AAXX  06224 06734 23/// /1904 10024 20024 39441 40136 52009 333 55300 20014 69935 91111 91204;
0103067340999992011010623004+46667+007867FM-12+057999999V0201401N000519999999N9999999N1+00241+00241101391ADDMA1999999094441REMSYN076AAXX  06234 06734 33/// /1401 10024 20024 39444 40139 5//// 333 553// 20014;
0087067340999992011010700004+46667+007867FM-12+057999999V0209999C000019999999N9999999N1+00261+00261101421ADDMA1999999094471REMSYN060AAXX  07004 06734 43/// /0000 10026 20026 39447 40142 5////;
0087067340999992011010701004+46667+007867FM-12+057999999V0201801N000519999999N9999999N1+00261+00261101411ADDMA1999999094461REMSYN060AAXX  07014 06734 43/// /1801 10026 20026 39446 40141 5////;
0087067340999992011010702004+46667+007867FM-12+057999999V0201901N000519999999N9999999N1+00231+00231101421ADDMA1999999094461REMSYN060AAXX  07024 06734 43/// /1901 10023 20023 39446 40142 5////;
0087067340999992011010703004+46667+007867FM-12+057999999V0201701N000519999999N9999999N1+00201+00201101501ADDMA1999999094531REMSYN060AAXX  07034 06734 43/// /1701 10020 20020 39453 40150 5////;
0146067340999992011010704004+46667+007867FM-12+057999999V0209999C000019999999N9999999N1+00221+00221101481ADDMA1999999094521MD1210061+9999OA149900261REMSYN094AAXX  07044 06734 23/// /0000 10022 20022 39452 40148 52006 333 55300 20014 69935 91105 91202;
0146067340999992011010705004+46667+007867FM-12+057999999V0202601N001019999999N9999999N1+00301+00301101471ADDMA1999999094531MD1210071+9999OA149900311REMSYN094AAXX  07054 06734 23/// /2602 10030 20030 39453 40147 52007 333 55300 20014 69925 91106 91203;
0247067340999992011010706004+46667+007867FM-12+057999999V0202201N002119999999N9999999N1+00291+00291101481ADDAA112002091AL14800191GJ100729KA1999N+00191MA1999999094531MD1710021+9999OA149900571REMSYN118AAXX  07064 06734 03/// /2204 10029 20029 39453 40148 58000 60022 333 20019 55012 55300 20014 60005 70018 91111 91204;EQDQ01+000082APCTENQ02+000002APC3  
0140067340999992011010707004+46667+007867FM-12+057999999V0202101N001019999999N9999999N1+00281+00281101441ADDMA1999999094491MD1710031+9999OA149900311REMSYN088AAXX  07074 06734 33/// /2102 10028 20028 39449 40144 57003 333 55300 20014 91106 91204;
0103067340999992011010708004+46667+007867FM-12+057999999V0200901N001019999999N9999999N1+00351+00351101471ADDMA1999999094541REMSYN076AAXX  07084 06734 33/// /0902 10035 20035 39454 40147 5//// 333 553// 20043;
0087067340999992011010709004+46667+007867FM-12+057999999V0202101N000519999999N9999999N1+00321+00321101471ADDMA1999999094531REMSYN060AAXX  07094 06734 43/// /2101 10032 20032 39453 40147 5////;
0140067340999992011010710004+46667+007867FM-12+057999999V0200801N001019999999N9999999N1+00441+00441101461ADDMA1999999094551MD1210061+9999OA149900211REMSYN088AAXX  07104 06734 33/// /0802 10044 20044 39455 40146 52006 333 55304 20605 91104 91203;
0140067340999992011010711004+46667+007867FM-12+057999999V0200401N000519999999N9999999N1+00581+00581101391ADDMA1999999094521MD1810021+9999OA149900261REMSYN088AAXX  07114 06734 33/// /0401 10058 20058 39452 40139 58002 333 553// 2//// 91105 91203;
0140067340999992011010712004+46667+007867FM-12+057999999V0202701N000519999999N9999999N1+00641+00641101311ADDMA1999999094461MD1810071+9999OA149900311REMSYN088AAXX  07124 06734 33/// /2701 10064 20064 39446 40131 58007 333 553// 2//// 91106 91204;
0140067340999992011010713004+46667+007867FM-12+057999999V0202101N001019999999N9999999N1+00641+00611101291ADDMA1999999094441MD1710111+9999OA149900361REMSYN088AAXX  07134 06734 33/// /2102 10064 20061 39444 40129 57011 333 553// 20925 91107 91204;
0087067340999992011010714004+46667+007867FM-12+057999999V0200601N000519999999N9999999N1+00551+00551101341ADDMA1999999094471REMSYN060AAXX  07144 06734 43/// /0601 10055 20055 39447 40134 5////;
0087067340999992011010715004+46667+007867FM-12+057999999V0200801N000519999999N9999999N1+00501+00501101391ADDMA1999999094501REMSYN060AAXX  07154 06734 43/// /0801 10050 20050 39450 40139 5////;
0140067340999992011010716004+46667+007867FM-12+057999999V0203101N000519999999N9999999N1+00481+00481101461ADDMA1999999094561MD1310121+9999OA149900261REMSYN088AAXX  07164 06734 33/// /3101 10048 20048 39456 40146 53012 333 55300 20094 91105 91203;
0140067340999992011010717004+46667+007867FM-12+057999999V0209999C000019999999N9999999N1+00451+00451101471ADDMA1999999094561MD1210091+9999OA149900261REMSYN088AAXX  07174 06734 33/// /0000 10045 20045 39456 40147 52009 333 55300 20014 91105 91203;
0122067340999992011010718004+46667+007867FM-12+057999999V0202101N001019999999N9999999N1+00361+00361101471ADDKA1120M+00641MA1999999094541REMSYN082AAXX  07184 06734 33/// /2102 10036 20036 39454 40147 5//// 333 10064 553// 20014;
0140067340999992011010719004+46667+007867FM-12+057999999V0201601N000519999999N9999999N1+00291+00291101481ADDMA1999999094531MD1819999+9999OA149900211REMSYN088AAXX  07194 06734 33/// /1601 10029 20029 39453 40148 58/// 333 55300 20014 91104 91203;
0087067340999992011010720004+46667+007867FM-12+057999999V0200201N000519999999N9999999N1+00271+00271101461ADDMA1999999094511REMSYN060AAXX  07204 06734 43/// /0201 10027 20027 39451 40146 5////;
0087067340999992011010721004+46667+007867FM-12+057999999V0202301N000519999999N9999999N1+00331+00331101401ADDMA1999999094471REMSYN060AAXX  07214 06734 43/// /2301 10033 20033 39447 40140 5////;
0140067340999992011010722004+46667+007867FM-12+057999999V0202401N001519999999N9999999N1+00331+00331101441ADDMA1999999094511MD1510021+9999OA149900461REMSYN088AAXX  07224 06734 33/// /2403 10033 20033 39451 40144 55002 333 55300 20014 91109 91203;
0103067340999992011010723004+46667+007867FM-12+057999999V0201401N000519999999N9999999N1+00331+00331101481ADDMA1999999094541REMSYN076AAXX  07234 06734 33/// /1401 10033 20033 39454 40148 5//// 333 553// 20014;
0103067340999992011010800004+46667+007867FM-12+057999999V0203201N000519999999N9999999N1+00351+00351101521ADDMA1999999094591REMSYN076AAXX  08004 06734 33/// /3201 10035 20035 39459 40152 5//// 333 553// 20014;
0087067340999992011010801004+46667+007867FM-12+057999999V0200301N001519999999N9999999N1+00391+00391101491ADDMA1999999094571REMSYN060AAXX  08014 06734 43/// /0303 10039 20039 39457 40149 5////;
0087067340999992011010802004+46667+007867FM-12+057999999V0209999C000019999999N9999999N1+00321+00321101491ADDMA1999999094551REMSYN060AAXX  08024 06734 43/// /0000 10032 20032 39455 40149 5////;
0087067340999992011010803004+46667+007867FM-12+057999999V0202101N001019999999N9999999N1+00401+00401101481ADDMA1999999094561REMSYN060AAXX  08034 06734 43/// /2102 10040 20040 39456 40148 5////;
0087067340999992011010804004+46667+007867FM-12+057999999V0209999C001519999999N9999999N1+00451+00401101471ADDMA1999999094561REMSYN060AAXX  08044 06734 43/// /0003 10045 20040 39456 40147 5////;
0087067340999992011010805004+46667+007867FM-12+057999999V0202701N004119999999N9999999N1+00721+00341101491ADDMA1999999094651REMSYN060AAXX  08054 06734 43/// /2708 10072 20034 39465 40149 5////;
0116067340999992011010806004+46667+007867FM-12+057999999V0202301N005719999999N9999999N1+00631+00351101541ADDKA1999N+00241MA1999999094671REMSYN076AAXX  08064 06734 43/// /2311 10063 20035 39467 40154 5//// 333 20024 55037;
0087067340999992011010807004+46667+007867FM-12+057999999V0202201N002119999999N9999999N1+00361+00351101671ADDMA1999999094731REMSYN060AAXX  08074 06734 43/// /2204 10036 20035 39473 40167 5////;
0103067340999992011010808004+46667+007867FM-12+057999999V0202401N001019999999N9999999N1+00331+00331101691ADDMA1999999094741REMSYN076AAXX  08084 06734 33/// /2402 10033 20033 39474 40169 5//// 333 553// 20079;
0087067340999992011010809004+46667+007867FM-12+057999999V0201601N000519999999N9999999N1+00371+00371101661ADDMA1999999094721REMSYN060AAXX  08094 06734 43/// /1601 10037 20037 39472 40166 5////;
0087067340999992011010810004+46667+007867FM-12+057999999V0201501N001019999999N9999999N1+00541+00511101621ADDMA1999999094731REMSYN060AAXX  08104 06734 43/// /1502 10054 20051 39473 40162 5////;
0087067340999992011010811004+46667+007867FM-12+057999999V0200801N000519999999N9999999N1+00671+00551101541ADDMA1999999094681REMSYN060AAXX  08114 06734 43/// /0801 10067 20055 39468 40154 5////;
0087067340999992011010812004+46667+007867FM-12+057999999V0201001N000519999999N9999999N1+00811+00541101471ADDMA1999999094651REMSYN060AAXX  08124 06734 43/// /1001 10081 20054 39465 40147 5////;
0087067340999992011010813004+46667+007867FM-12+057999999V0200701N000519999999N9999999N1+00911+00521101371ADDMA1999999094581REMSYN060AAXX  08134 06734 43/// /0701 10091 20052 39458 40137 5////;
0087067340999992011010814004+46667+007867FM-12+057999999V0202201N001519999999N9999999N1+00901+00451101371ADDMA1999999094581REMSYN060AAXX  08144 06734 43/// /2203 10090 20045 39458 40137 5////;
0087067340999992011010815004+46667+007867FM-12+057999999V0202101N001519999999N9999999N1+00761+00341101441ADDMA1999999094611REMSYN060AAXX  08154 06734 43/// /2103 10076 20034 39461 40144 5////;
0087067340999992011010816004+46667+007867FM-12+057999999V0202401N001019999999N9999999N1+00521+00291101531ADDMA1999999094641REMSYN060AAXX  08164 06734 43/// /2402 10052 20029 39464 40153 5////;
0087067340999992011010817004+46667+007867FM-12+057999999V0202401N000519999999N9999999N1+00371+00271101541ADDMA1999999094611REMSYN060AAXX  08174 06734 43/// /2401 10037 20027 39461 40154 5////;
0087067340999992011010818004+46667+007867FM-12+057999999V0202801N001019999999N9999999N1+00381+00231101541ADDMA1999999094611REMSYN060AAXX  08184 06734 43/// /2802 10038 20023 39461 40154 5////;
0087067340999992011010819004+46667+007867FM-12+057999999V0201101N001519999999N9999999N1+00281+00181101551ADDMA1999999094601REMSYN060AAXX  08194 06734 43/// /1103 10028 20018 39460 40155 5////;
0087067340999992011010820004+46667+007867FM-12+057999999V0209999C000019999999N9999999N1+00301+00161101561ADDMA1999999094611REMSYN060AAXX  08204 06734 43/// /0000 10030 20016 39461 40156 5////;
0087067340999992011010821004+46667+007867FM-12+057999999V0201201N000519999999N9999999N1+00391+00201101471ADDMA1999999094551REMSYN060AAXX  08214 06734 43/// /1201 10039 20020 39455 40147 5////;
0087067340999992011010822004+46667+007867FM-12+057999999V0201501N000519999999N9999999N1+00391+00191101481ADDMA1999999094561REMSYN060AAXX  08224 06734 43/// /1501 10039 20019 39456 40148 5////;
0087067340999992011010823004+46667+007867FM-12+057999999V0200401N000519999999N9999999N1+00411+00181101441ADDMA1999999094531REMSYN060AAXX  08234 06734 43/// /0401 10041 20018 39453 40144 5////;
0087067340999992011010900004+46667+007867FM-12+057999999V0209999C000019999999N9999999N1+00321+00111101491ADDMA1999999094551REMSYN060AAXX  09004 06734 43/// /0000 10032 20011 39455 40149 5////;
0087067340999992011010901004+46667+007867FM-12+057999999V0202601N002619999999N9999999N1+00431+00171101481ADDMA1999999094571REMSYN060AAXX  09014 06734 43/// /2605 10043 20017 39457 40148 5////;
0087067340999992011010902004+46667+007867FM-12+057999999V0200801N001519999999N9999999N1+00231+00061101541ADDMA1999999094571REMSYN060AAXX  09024 06734 43/// /0803 10023 20006 39457 40154 5////;
0087067340999992011010903004+46667+007867FM-12+057999999V0203601N000519999999N9999999N1+00151+00071101501ADDMA1999999094521REMSYN060AAXX  09034 06734 43/// /3601 10015 20007 39452 40150 5////;
0087067340999992011010904004+46667+007867FM-12+057999999V0202301N002119999999N9999999N1+00311+00001101461ADDMA1999999094521REMSYN060AAXX  09044 06734 43/// /2304 10031 20000 39452 40146 5////;
0087067340999992011010905004+46667+007867FM-12+057999999V0200801N001019999999N9999999N1+00191+00021101461ADDMA1999999094491REMSYN060AAXX  09054 06734 43/// /0802 10019 20002 39449 40146 5////;
0097067340999992011010906004+46667+007867FM-12+057999999V0203501N000519999999N9999999N1+00191+00071101431ADDMA1999999094461REMSYN070AAXX  09064 06734 43/// /3501 10019 20007 39446 40143 5//// 333 55050;
0087067340999992011010907004+46667+007867FM-12+057999999V0202701N002119999999N9999999N1+00371+00191101441ADDMA1999999094521REMSYN060AAXX  09074 06734 43/// /2704 10037 20019 39452 40144 5////;
0103067340999992011010908004+46667+007867FM-12+057999999V0202501N001519999999N9999999N1+00371+00131101491ADDMA1999999094561REMSYN076AAXX  09084 06734 33/// /2503 10037 20013 39456 40149 5//// 333 553// 20025;
0103067340999992011010909004+46667+007867FM-12+057999999V0202301N001019999999N9999999N1+00331+00211101551ADDMA1999999094611REMSYN076AAXX  09094 06734 33/// /2302 10033 20021 39461 40155 5//// 333 553// 20216;
0140067340999992011010910004+46667+007867FM-12+057999999V0203601N001019999999N9999999N1+00501+00291101531ADDMA1999999094631MD1210111+9999OA149900311REMSYN088AAXX  09104 06734 33/// /3602 10050 20029 39463 40153 52011 333 55300 20436 91106 91204;
0140067340999992011010911004+46667+007867FM-12+057999999V0200701N000519999999N9999999N1+00611+00311101491ADDMA1999999094621MD1210061+9999OA149900261REMSYN088AAXX  09114 06734 33/// /0701 10061 20031 39462 40149 52006 333 55300 20569 91105 91203;
0140067340999992011010912004+46667+007867FM-12+057999999V0200401N001519999999N9999999N1+00601+00261101461ADDMA1999999094591MD1810021+9999OA149900461REMSYN088AAXX  09124 06734 33/// /0403 10060 20026 39459 40146 58002 333 55300 20432 91109 91205;
0140067340999992011010913004+46667+007867FM-12+057999999V0200701N002119999999N9999999N1+00661+00291101431ADDMA1999999094581MD1710051+9999OA149900461REMSYN088AAXX  09134 06734 33/// /0704 10066 20029 39458 40143 57005 333 55300 20464 91109 91205;
0087067340999992011010914004+46667+007867FM-12+057999999V0200301N001019999999N9999999N1+00711+00261101441ADDMA1999999094601REMSYN060AAXX  09144 06734 43/// /0302 10071 20026 39460 40144 5////;
0087067340999992011010915004+46667+007867FM-12+057999999V0200501N001019999999N9999999N1+00781+00341101471ADDMA1999999094641REMSYN060AAXX  09154 06734 43/// /0502 10078 20034 39464 40147 5////;
0140067340999992011010916004+46667+007867FM-12+057999999V0200701N001519999999N9999999N1+00741+00411101571ADDMA1999999094731MD1310151+9999OA149900671REMSYN088AAXX  09164 06734 33/// /0703 10074 20041 39473 40157 53015 333 55300 20061 91113 91207;
0140067340999992011010917004+46667+007867FM-12+057999999V0203401N001019999999N9999999N1+00751+00491101641ADDMA1999999094801MD1110201+9999OA149900571REMSYN088AAXX  09174 06734 33/// /3402 10075 20049 39480 40164 51020 333 55300 20014 91111 91205;
0159067340999992011010918004+46667+007867FM-12+057999999V0200501N000519999999N9999999N1+00541+00381101731ADDKA1120M+00781MA1999999094831MD1110191+9999OA149900671REMSYN094AAXX  09184 06734 33/// /0501 10054 20038 39483 40173 51019 333 10078 55300 20014 91113 91207;
0146067340999992011010919004+46667+007867FM-12+057999999V0200301N001019999999N9999999N1+00561+00561101781ADDMA1999999094881MD1110151+9999OA149900311REMSYN094AAXX  09194 06734 23/// /0302 10056 20056 39488 40178 51015 333 55300 20014 69925 91106 91203;
0146067340999992011010920004+46667+007867FM-12+057999999V0202601N001019999999N9999999N1+00411+00411101871ADDMA1999999094931MD1210131+9999OA149900311REMSYN094AAXX  09204 06734 23/// /2602 10041 20041 39493 40187 52013 333 55300 20014 69955 91106 91203;
0146067340999992011010921004+46667+007867FM-12+057999999V0202401N000519999999N9999999N1+00411+00411101911ADDMA1999999094961MD1210131+9999OA149900571REMSYN094AAXX  09214 06734 23/// /2401 10041 20041 39496 40191 52013 333 55300 20014 69955 91111 91205;
0146067340999992011010922004+46667+007867FM-12+057999999V0202501N000519999999N9999999N1+00381+00381101961ADDMA1999999095001MD1210121+9999OA149900311REMSYN094AAXX  09224 06734 23/// /2501 10038 20038 39500 40196 52012 333 55300 20014 69955 91106 91203;
0146067340999992011010923004+46667+007867FM-12+057999999V0202301N000519999999N9999999N1+00381+00381101991ADDMA1999999095031MD1110101+9999OA149900151REMSYN094AAXX  09234 06734 23/// /2301 10038 20038 39503 40199 51010 333 55300 20014 60015 91103 91202;
0163067340999992011011000004+46667+007867FM-12+057999999V0202601N000519999999N9999999N1+00431+00431102001ADDAA106004191MA1999999095051MD1210091+9999OA149900671REMSYN100AAXX  10004 06734 03/// /2601 10043 20043 39505 40200 52009 60041 333 55300 20014 60015 91113 91207;
0146067340999992011011001004+46667+007867FM-12+057999999V0209999C000019999999N9999999N1+00361+00361102051ADDMA1999999095081MD1210081+9999OA149900261REMSYN094AAXX  10014 06734 23/// /0000 10036 20036 39508 40205 52008 333 55300 20014 69965 91105 91203;
0109067340999992011011002004+46667+007867FM-12+057999999V0209999C000019999999N9999999N1+00421+00421102061ADDMA1999999095111REMSYN082AAXX  10024 06734 23/// /0000 10042 20042 39511 40206 5//// 333 553// 20014 69995;
0087067340999992011011003004+46667+007867FM-12+057999999V0202201N000519999999N9999999N1+00331+00331102101ADDMA1999999095121REMSYN060AAXX  10034 06734 43/// /2201 10033 20033 39512 40210 5////;
0109067340999992011011004004+46667+007867FM-12+057999999V0209999C000019999999N9999999N1+00321+00321102091ADDMA1999999095111REMSYN082AAXX  10044 06734 23/// /0000 10032 20032 39511 40209 5//// 333 553// 20014 69925;
0140067340999992011011005004+46667+007867FM-12+057999999V0202201N000519999999N9999999N1+00311+00311102081ADDMA1999999095101MD1719999+9999OA149900151REMSYN088AAXX  10054 06734 33/// /2201 10031 20031 39510 40208 57/// 333 55300 20014 91103 91202;
0141067340999992011011006004+46667+007867FM-12+057999999V0202201N000519999999N9999999N1+00291+00291102101ADDAA124006991GJ100009KA1999N+00301MA1999999095111REMSYN082AAXX  10064 06734 43/// /2201 10029 20029 39511 40210 5//// 333 20030 55000 70068;
0140067340999992011011007004+46667+007867FM-12+057999999V0209999C000019999999N9999999N1+00301+00301102131ADDMA1999999095141MD1310031+9999OA149900151REMSYN088AAXX  10074 06734 33/// /0000 10030 20030 39514 40213 53003 333 55300 20014 91103 91203;
0087067340999992011011008004+46667+007867FM-12+057999999V0202301N000519999999N9999999N1+00331+00331102141ADDMA1999999095161REMSYN060AAXX  10084 06734 43/// /2301 10033 20033 39516 40214 5////;
0087067340999992011011009004+46667+007867FM-12+057999999V0202501N000519999999N9999999N1+00351+00351102151ADDMA1999999095171REMSYN060AAXX  10094 06734 43/// /2501 10035 20035 39517 40215 5////;
0140067340999992011011010004+46667+007867FM-12+057999999V0200901N000519999999N9999999N1+00391+00391102151ADDMA1999999095181MD1210041+9999OA149900101REMSYN088AAXX  10104 06734 33/// /0901 10039 20039 39518 40215 52004 333 55300 20108 91102 91201;
0140067340999992011011011004+46667+007867FM-12+057999999V0209999C000019999999N9999999N1+00441+00441102111ADDMA1999999095161MD1819999+9999OA149900101REMSYN088AAXX  10114 06734 33/// /0000 10044 20044 39516 40211 58/// 333 55300 20180 91102 91201;
0103067340999992011011012004+46667+007867FM-12+057999999V0209999C000019999999N9999999N1+00531+00531102001ADDMA1999999095081REMSYN076AAXX  10124 06734 33/// /0000 10053 20053 39508 40200 5//// 333 553// 20461;
0087067340999992011011013004+46667+007867FM-12+057999999V0200801N001019999999N9999999N1+00531+00531101931ADDMA1999999095011REMSYN060AAXX  10134 06734 43/// /0802 10053 20053 39501 40193 5////;
0087067340999992011011014004+46667+007867FM-12+057999999V0201001N000519999999N9999999N1+00531+00481101871ADDMA1999999094961REMSYN060AAXX  10144 06734 43/// /1001 10053 20048 39496 40187 5////;
0087067340999992011011015004+46667+007867FM-12+057999999V0209999C000019999999N9999999N1+00501+00501101861ADDMA1999999094941REMSYN060AAXX  10154 06734 43/// /0000 10050 20050 39494 40186 5////;
0087067340999992011011016004+46667+007867FM-12+057999999V0202401N000519999999N9999999N1+00411+00411101871ADDMA1999999094931REMSYN060AAXX  10164 06734 43/// /2401 10041 20041 39493 40187 5////;
0087067340999992011011017004+46667+007867FM-12+057999999V0209999C000019999999N9999999N1+00431+00431101851ADDMA1999999094911REMSYN060AAXX  10174 06734 43/// /0000 10043 20043 39491 40185 5////;
0110067340999992011011018004+46667+007867FM-12+057999999V0202701N001019999999N9999999N1+00421+00421101841ADDKA1999M+00571MA1999999094901REMSYN070AAXX  10184 06734 43/// /2702 10042 20042 39490 40184 5//// 333 10057;
0087067340999992011011019004+46667+007867FM-12+057999999V0209999C000019999999N9999999N1+00381+00381101831ADDMA1999999094881REMSYN060AAXX  10194 06734 43/// /0000 10038 20038 39488 40183 5////;
0087067340999992011011020004+46667+007867FM-12+057999999V0202301N001019999999N9999999N1+00371+00371101821ADDMA1999999094871REMSYN060AAXX  10204 06734 43/// /2302 10037 20037 39487 40182 5////;
0087067340999992011011021004+46667+007867FM-12+057999999V0202601N001519999999N9999999N1+00391+00391101841ADDMA1999999094891REMSYN060AAXX  10214 06734 43/// /2603 10039 20039 39489 40184 5////;
0087067340999992011011022004+46667+007867FM-12+057999999V0202401N001519999999N9999999N1+00361+00361101831ADDMA1999999094881REMSYN060AAXX  10224 06734 43/// /2403 10036 20036 39488 40183 5////;
0087067340999992011011023004+46667+007867FM-12+057999999V0202001N002119999999N9999999N1+00321+00321101821ADDMA1999999094861REMSYN060AAXX  10234 06734 43/// /2004 10032 20032 39486 40182 5////;
0087067340999992011011100004+46667+007867FM-12+057999999V0201901N003619999999N9999999N1+00281+00251101751ADDMA1999999094781REMSYN060AAXX  11004 06734 43/// /1907 10028 20025 39478 40175 5////;
0087067340999992011011101004+46667+007867FM-12+057999999V0202201N002119999999N9999999N1+00251+00241101721ADDMA1999999094751REMSYN060AAXX  11014 06734 43/// /2204 10025 20024 39475 40172 5////;
0087067340999992011011102004+46667+007867FM-12+057999999V0202101N004619999999N9999999N1+00191+00191101731ADDMA1999999094741REMSYN060AAXX  11024 06734 43/// /2109 10019 20019 39474 40173 5////;
0087067340999992011011103004+46667+007867FM-12+057999999V0202101N002619999999N9999999N1+00181+00181101691ADDMA1999999094701REMSYN060AAXX  11034 06734 43/// /2105 10018 20018 39470 40169 5////;
0087067340999992011011104004+46667+007867FM-12+057999999V0202101N004119999999N9999999N1+00131+00131101661ADDMA1999999094661REMSYN060AAXX  11044 06734 43/// /2108 10013 20013 39466 40166 5////;
0087067340999992011011105004+46667+007867FM-12+057999999V0202601N000519999999N9999999N1+00141+00131101611ADDMA1999999094621REMSYN060AAXX  11054 06734 43/// /2601 10014 20013 39462 40161 5////;
0097067340999992011011106004+46667+007867FM-12+057999999V0202001N003119999999N9999999N1+00081+00081101591ADDMA1999999094581REMSYN070AAXX  11064 06734 43/// /2006 10008 20008 39458 40159 5//// 333 55000;
0140067340999992011011107004+46667+007867FM-12+057999999V0201701N001019999999N9999999N1+00081+00061101521ADDMA1999999094521MD1719999+9999OA149900461REMSYN088AAXX  11074 06734 33/// /1702 10008 20006 39452 40152 57/// 333 55300 20014 91109 91206;
0103067340999992011011108004+46667+007867FM-12+057999999V0202001N003119999999N9999999N1+00011+00011101541ADDMA1999999094521REMSYN076AAXX  11084 06734 33/// /2006 10001 20001 39452 40154 5//// 333 553// 20032;
0087067340999992011011109004+46667+007867FM-12+057999999V0202201N002119999999N9999999N1+00111+00001101471ADDMA1999999094481REMSYN060AAXX  11094 06734 43/// /2204 10011 20000 39448 40147 5////;
0140067340999992011011110004+46667+007867FM-12+057999999V0201701N002119999999N9999999N1+00231+00171101381ADDMA1999999094431MD1710091+9999OA149900361REMSYN088AAXX  11104 06734 33/// /1704 10023 20017 39443 40138 57009 333 55301 20346 91107 91204;
0140067340999992011011111004+46667+007867FM-12+057999999V0202001N001519999999N9999999N1+00331+00101101251ADDMA1999999094331MD1710191+9999OA149900411REMSYN088AAXX  11114 06734 33/// /2003 10033 20010 39433 40125 57019 333 55309 2//// 91108 91206;
0103067340999992011011112004+46667+007867FM-12+057999999V0202901N002619999999N9999999N1+00381+00161101151ADDMA1999999094251REMSYN076AAXX  11124 06734 33/// /2905 10038 20016 39425 40115 5//// 333 553// 20702;
0140067340999992011011113004+46667+007867FM-12+057999999V0202701N001519999999N9999999N1+00351+00111101171ADDMA1999999094261MD1710171+9999OA149900571REMSYN088AAXX  11134 06734 33/// /2703 10035 20011 39426 40117 57017 333 55300 20346 91111 91205;
0087067340999992011011114004+46667+007867FM-12+057999999V0202901N002119999999N9999999N1+00371+00171101221ADDMA1999999094311REMSYN060AAXX  11144 06734 43/// /2904 10037 20017 39431 40122 5////;
0087067340999992011011115004+46667+007867FM-12+057999999V0200401N000519999999N9999999N1+00331+00261101371ADDMA1999999094441REMSYN060AAXX  11154 06734 43/// /0401 10033 20026 39444 40137 5////;
0146067340999992011011116004+46667+007867FM-12+057999999V0209999C000019999999N9999999N1+00261+00261101461ADDMA1999999094511MD1210251+9999OA149900311REMSYN094AAXX  11164 06734 23/// /0000 10026 20026 39451 40146 52025 333 55300 20032 69945 91106 91203;
0146067340999992011011117004+46667+007867FM-12+057999999V0200301N000519999999N9999999N1+00201+00201101551ADDMA1999999094581MD1110261+9999OA149900261REMSYN094AAXX  11174 06734 23/// /0301 10020 20020 39458 40155 51026 333 55300 20018 69945 91105 91203;
0182067340999992011011118004+46667+007867FM-12+057999999V0202001N001519999999N9999999N1+00151+00151101621ADDAA112001091KA1120M+00391MA1999999094631MD1110191+9999OA149900721REMSYN106AAXX  11184 06734 03/// /2003 10015 20015 39463 40162 51019 69992 333 10039 55300 20014 60005 91114 91208;
0140067340999992011011119004+46667+007867FM-12+057999999V0200701N000519999999N9999999N1+00151+00151101721ADDMA1999999094721MD1310211+9999OA149900261REMSYN088AAXX  11194 06734 33/// /0701 10015 20015 39472 40172 53021 333 55300 20014 91105 91203;
0146067340999992011011120004+46667+007867FM-12+057999999V0200101N000519999999N9999999N1+00191+00191101791ADDMA1999999094801MD1210221+9999OA149900211REMSYN094AAXX  11204 06734 23/// /0101 10019 20019 39480 40179 52022 333 55300 20014 60015 91104 91202;
0146067340999992011011121004+46667+007867FM-12+057999999V0200601N000519999999N9999999N1+00181+00181101881ADDMA1999999094881MD1210251+9999OA149900261REMSYN094AAXX  11214 06734 23/// /0601 10018 20018 39488 40188 52025 333 55300 20014 69925 91105 91203;
0146067340999992011011122004+46667+007867FM-12+057999999V0202101N001019999999N9999999N1+00211+00211101991ADDMA1999999094991MD1210271+9999OA149900151REMSYN094AAXX  11224 06734 23/// /2102 10021 20021 39499 40199 52027 333 55300 20014 69975 91103 91202;
0146067340999992011011123004+46667+007867FM-12+057999999V0202201N002119999999N9999999N1+00231+00231102051ADDMA1999999095051MD1110251+9999OA149900261REMSYN094AAXX  11234 06734 23/// /2204 10023 20023 39505 40205 51025 333 55300 20014 69925 91105 91204;
0163067340999992011011200004+46667+007867FM-12+057999999V0202201N003119999999N9999999N1+00281+00281102051ADDAA106002091MA1999999095061MD1210181+9999OA149900721REMSYN100AAXX  12004 06734 03/// /2206 10028 20028 39506 40205 52018 60021 333 55300 20014 60005 91114 91208;
0140067340999992011011201004+46667+007867FM-12+057999999V0203501N000519999999N9999999N1+00201+00201102121ADDMA1999999095111MD1210121+9999OA149900511REMSYN088AAXX  12014 06734 33/// /3501 10020 20020 39511 40212 52012 333 55300 20014 91110 91208;
0103067340999992011011202004+46667+007867FM-12+057999999V0202101N000519999999N9999999N1+00191+00191102201ADDMA1999999095181REMSYN076AAXX  12024 06734 33/// /2101 10019 20019 39518 40220 5//// 333 553// 20014;
0087067340999992011011203004+46667+007867FM-12+057999999V0202401N002119999999N9999999N1+00201+00201102311ADDMA1999999095281REMSYN060AAXX  12034 06734 43/// /2404 10020 20020 39528 40231 5////;
0087067340999992011011204004+46667+007867FM-12+057999999V0201201N001519999999N9999999N1+00211+00211102281ADDMA1999999095261REMSYN060AAXX  12044 06734 43/// /1203 10021 20021 39526 40228 5////;
0103067340999992011011205004+46667+007867FM-12+057999999V0202501N000519999999N9999999N1+00161+00161102361ADDMA1999999095321REMSYN076AAXX  12054 06734 33/// /2501 10016 20016 39532 40236 5//// 333 553// 20014;
0141067340999992011011206004+46667+007867FM-12+057999999V0202001N002119999999N9999999N1+00151+00151102461ADDAA124003091GJ100669KA1999N+00121MA1999999095411REMSYN082AAXX  12064 06734 43/// /2004 10015 20015 39541 40246 5//// 333 20012 55011 70031;
0140067340999992011011207004+46667+007867FM-12+057999999V0200501N001519999999N9999999N1+00171+00171102451ADDMA1999999095411MD1210151+9999OA149900461REMSYN088AAXX  12074 06734 33/// /0503 10017 20017 39541 40245 52015 333 55300 20014 91109 91207;
0087067340999992011011208004+46667+007867FM-12+057999999V0202001N002119999999N9999999N1+00261+00261102491ADDMA1999999095471REMSYN060AAXX  12084 06734 43/// /2004 10026 20026 39547 40249 5////;
0087067340999992011011209004+46667+007867FM-12+057999999V0201001N001019999999N9999999N1+00311+00311102471ADDMA1999999095461REMSYN060AAXX  12094 06734 43/// /1002 10031 20031 39546 40247 5////;
0140067340999992011011210004+46667+007867FM-12+057999999V0202201N001519999999N9999999N1+00371+00371102501ADDMA1999999095501MD1219999+9999OA149900311REMSYN088AAXX  12104 06734 33/// /2203 10037 20037 39550 40250 52/// 333 55300 20248 91106 91204;
0117067340999992011011211004+46667+007867FM-12+057999999V0200301N001019999999N9999999N1+00491+00481102431ADDMA1999999095471MD1010001+9999REMSYN076AAXX  12114 06734 33/// /0302 10049 20048 39547 40243 50000 333 55300 20688;
0087067340999992011011212004+46667+007867FM-12+057999999V0202401N000519999999N9999999N1+00521+00461102401ADDMA1999999095451REMSYN060AAXX  12124 06734 43/// /2401 10052 20046 39545 40240 5////;
0087067340999992011011213004+46667+007867FM-12+057999999V0200401N001519999999N9999999N1+00521+00521102371ADDMA1999999095421REMSYN060AAXX  12134 06734 43/// /0403 10052 20052 39542 40237 5////;
0087067340999992011011214004+46667+007867FM-12+057999999V0200301N000519999999N9999999N1+00521+00501102381ADDMA1999999095431REMSYN060AAXX  12144 06734 43/// /0301 10052 20050 39543 40238 5////;
0087067340999992011011215004+46667+007867FM-12+057999999V0200701N000519999999N9999999N1+00501+00501102441ADDMA1999999095481REMSYN060AAXX  12154 06734 43/// /0701 10050 20050 39548 40244 5////;
0146067340999992011011216004+46667+007867FM-12+057999999V0209999C000019999999N9999999N1+00461+00461102531ADDMA1999999095551MD1210131+9999OA149900151REMSYN094AAXX  12164 06734 23/// /0000 10046 20046 39555 40253 52013 333 55300 20025 69955 91103 91202;
0146067340999992011011217004+46667+007867FM-12+057999999V0202001N001019999999N9999999N1+00431+00431102541ADDMA1999999095561MD1210131+9999OA149900211REMSYN094AAXX  12174 06734 23/// /2002 10043 20043 39556 40254 52013 333 55300 20014 69915 91104 91203;
0182067340999992011011218004+46667+007867FM-12+057999999V0202201N001019999999N9999999N1+00401+00401102551ADDAA112002091KA1120M+00531MA1999999095561MD1210081+9999OA149900461REMSYN106AAXX  12184 06734 03/// /2202 10040 20040 39556 40255 52008 60022 333 10053 55300 20014 60015 91109 91207;
0146067340999992011011219004+46667+007867FM-12+057999999V0200601N000519999999N9999999N1+00401+00401102551ADDMA1999999095561MD1210011+9999OA149900261REMSYN094AAXX  12194 06734 23/// /0601 10040 20040 39556 40255 52001 333 55300 20014 60025 91105 91203;
0146067340999992011011220004+46667+007867FM-12+057999999V0200701N000519999999N9999999N1+00391+00391102561ADDMA1999999095561MD1510001+9999OA149900261REMSYN094AAXX  12204 06734 23/// /0701 10039 20039 39556 40256 55000 333 55300 20014 60015 91105 91203;
0146067340999992011011221004+46667+007867FM-12+057999999V0200801N001019999999N9999999N1+00381+00381102551ADDMA1999999095551MD1710011+9999OA149900361REMSYN094AAXX  12214 06734 23/// /0802 10038 20038 39555 40255 57001 333 55300 20014 69995 91107 91204;
0146067340999992011011222004+46667+007867FM-12+057999999V0200401N000519999999N9999999N1+00381+00381102531ADDMA1999999095531MD1710031+9999OA149900361REMSYN094AAXX  12224 06734 23/// /0401 10038 20038 39553 40253 57003 333 55300 20014 69935 91107 91204;
0146067340999992011011223004+46667+007867FM-12+057999999V0209999C000019999999N9999999N1+00381+00381102531ADDMA1999999095531MD1710031+9999OA149900261REMSYN094AAXX  12234 06734 23/// /0000 10038 20038 39553 40253 57003 333 55300 20014 60015 91105 91204;
0163067340999992011011300004+46667+007867FM-12+057999999V0209999C000019999999N9999999N1+00371+00371102511ADDAA106007191MA1999999095511MD1710041+9999OA149900361REMSYN100AAXX  13004 06734 03/// /0000 10037 20037 39551 40251 57004 60071 333 55300 20014 60025 91107 91205;
0146067340999992011011301004+46667+007867FM-12+057999999V0200401N001019999999N9999999N1+00381+00381102511ADDMA1999999095521MD1810011+9999OA149900151REMSYN094AAXX  13014 06734 23/// /0402 10038 20038 39552 40251 58001 333 55300 20014 60035 91103 91202;
0146067340999992011011302004+46667+007867FM-12+057999999V0209999C000019999999N9999999N1+00381+00381102531ADDMA1999999095531MD1519999+9999OA149900151REMSYN094AAXX  13024 06734 23/// /0000 10038 20038 39553 40253 55/// 333 55300 20014 60035 91103 91202;
0087067340999992011011303004+46667+007867FM-12+057999999V0200101N000519999999N9999999N1+00401+00401102491ADDMA1999999095501REMSYN060AAXX  13034 06734 43/// /0101 10040 20040 39550 40249 5////;
0146067340999992011011304004+46667+007867FM-12+057999999V0200601N000519999999N9999999N1+00401+00401102461ADDMA1999999095471MD1819999+9999OA149900211REMSYN094AAXX  13044 06734 23/// /0601 10040 20040 39547 40246 58/// 333 55300 20014 60025 91104 91203;
0109067340999992011011305004+46667+007867FM-12+057999999V0203601N001019999999N9999999N1+00431+00431102431ADDMA1999999095451REMSYN082AAXX  13054 06734 23/// /3602 10043 20043 39545 40243 5//// 333 553// 20014 60025;
0212067340999992011011306004+46667+007867FM-12+057999999V0200601N001019999999N9999999N1+00461+00461102441ADDAA112019191AL14802091GJ100009KA1999N+00361MA1999999095471MD1710031+9999OA149900361REMSYN118AAXX  13064 06734 03/// /0602 10046 20046 39547 40244 57003 60192 333 20036 55000 55300 20014 69975 70209 91107 91204;
0087067340999992011011307004+46667+007867FM-12+057999999V0209999C000019999999N9999999N1+00451+00451102461ADDMA1999999095491REMSYN060AAXX  13074 06734 43/// /0000 10045 20045 39549 40246 5////;
0087067340999992011011308004+46667+007867FM-12+057999999V0200701N000519999999N9999999N1+00461+00461102481ADDMA1999999095511REMSYN060AAXX  13084 06734 43/// /0701 10046 20046 39551 40248 5////;
0087067340999992011011309004+46667+007867FM-12+057999999V0200101N000519999999N9999999N1+00531+00531102401ADDMA1999999095451REMSYN060AAXX  13094 06734 43/// /0101 10053 20053 39545 40240 5////;
0087067340999992011011310004+46667+007867FM-12+057999999V0201301N000519999999N9999999N1+00551+00551102421ADDMA1999999095471REMSYN060AAXX  13104 06734 43/// /1301 10055 20055 39547 40242 5////;
0087067340999992011011311004+46667+007867FM-12+057999999V0201901N001019999999N9999999N1+00661+00661102391ADDMA1999999095471REMSYN060AAXX  13114 06734 43/// /1902 10066 20066 39547 40239 5////;
0087067340999992011011312004+46667+007867FM-12+057999999V0200801N002619999999N9999999N1+00841+00841102251ADDMA1999999095391REMSYN060AAXX  13124 06734 43/// /0805 10084 20084 39539 40225 5////;
0087067340999992011011313004+46667+007867FM-12+057999999V0200401N001519999999N9999999N1+00751+00751102261ADDMA1999999095371REMSYN060AAXX  13134 06734 43/// /0403 10075 20075 39537 40226 5////;
0087067340999992011011314004+46667+007867FM-12+057999999V0200401N001019999999N9999999N1+00761+00761102251ADDMA1999999095371REMSYN060AAXX  13144 06734 43/// /0402 10076 20076 39537 40225 5////;
0087067340999992011011315004+46667+007867FM-12+057999999V0200701N000519999999N9999999N1+00761+00761102291ADDMA1999999095401REMSYN060AAXX  13154 06734 43/// /0701 10076 20076 39540 40229 5////;
0087067340999992011011316004+46667+007867FM-12+057999999V0200601N001519999999N9999999N1+00681+00681102331ADDMA1999999095421REMSYN060AAXX  13164 06734 43/// /0603 10068 20068 39542 40233 5////;
0140067340999992011011317004+46667+007867FM-12+057999999V0202601N000519999999N9999999N1+00621+00621102341ADDMA1999999095421MD1210051+9999OA149900311REMSYN088AAXX  13174 06734 33/// /2601 10062 20062 39542 40234 52005 333 55300 20014 91106 91204;
0182067340999992011011318004+46667+007867FM-12+057999999V0203301N000519999999N9999999N1+00581+00581102331ADDAA112000591KA1120M+00881MA1999999095401MD1010001+9999OA149900771REMSYN106AAXX  13184 06734 03/// /3301 10058 20058 39540 40233 50000 69952 333 10088 55300 20014 60005 91115 91210;
0140067340999992011011319004+46667+007867FM-12+057999999V0209999C000019999999N9999999N1+00581+00581102331ADDMA1999999095401MD1710021+9999OA149900261REMSYN088AAXX  13194 06734 33/// /0000 10058 20058 39540 40233 57002 333 55300 20014 91105 91203;
0140067340999992011011320004+46667+007867FM-12+057999999V0200401N002119999999N9999999N1+00581+00581102321ADDMA1999999095391MD1710031+9999OA149900261REMSYN088AAXX  13204 06734 33/// /0404 10058 20058 39539 40232 57003 333 55300 20014 91105 91204;
0140067340999992011011321004+46667+007867FM-12+057999999V0202101N000519999999N9999999N1+00481+00481102371ADDMA1999999095411MD1510011+9999OA149900311REMSYN088AAXX  13214 06734 33/// /2101 10048 20048 39541 40237 55001 333 55300 20014 91106 91204;
0140067340999992011011322004+46667+007867FM-12+057999999V0209999C000019999999N9999999N1+00351+00351102381ADDMA1999999095391MD1710011+9999OA149900211REMSYN088AAXX  13224 06734 33/// /0000 10035 20035 39539 40238 57001 333 55300 20014 91104 91202;
0140067340999992011011323004+46667+007867FM-12+057999999V0209999C000019999999N9999999N1+00231+00231102431ADDMA1999999095401MD1210011+9999OA149900151REMSYN088AAXX  13234 06734 33/// /0000 10023 20023 39540 40243 52001 333 55300 20014 91103 91201;
0140067340999992011011400004+46667+007867FM-12+057999999V0202801N000519999999N9999999N1+00211+00211102431ADDMA1999999095401MD1410001+9999OA149900461REMSYN088AAXX  14004 06734 33/// /2801 10021 20021 39540 40243 54001 333 55300 20014 91109 91206;
0140067340999992011011401004+46667+007867FM-12+057999999V0200701N000519999999N9999999N1+00131+00131102461ADDMA1999999095411MD1210021+9999OA149900151REMSYN088AAXX  14014 06734 33/// /0701 10013 20013 39541 40246 52002 333 55300 20014 91103 91202;
0103067340999992011011402004+46667+007867FM-12+057999999V0200301N000519999999N9999999N1+00161+00161102501ADDMA1999999095451REMSYN076AAXX  14024 06734 33/// /0301 10016 20016 39545 40250 5//// 333 553// 20014;
0140067340999992011011403004+46667+007867FM-12+057999999V0209999C000019999999N9999999N1+00121+00121102531ADDMA1999999095471MD1210071+9999OA149900211REMSYN088AAXX  14034 06734 33/// /0000 10012 20012 39547 40253 52007 333 55300 20014 91104 91203;
0140067340999992011011404004+46667+007867FM-12+057999999V0202401N001019999999N9999999N1+00231+00231102481ADDMA1999999095451MD1010041+9999OA149900151REMSYN088AAXX  14044 06734 33/// /2402 10023 20023 39545 40248 50004 333 55300 20014 91103 91202;
0140067340999992011011405004+46667+007867FM-12+057999999V0200701N001519999999N9999999N1+00321+00321102421ADDMA1999999095421MD1710031+9999OA149900261REMSYN088AAXX  14054 06734 33/// /0703 10032 20032 39542 40242 57003 333 55300 20014 91105 91204;
0189067340999992011011406004+46667+007867FM-12+057999999V0209999C000019999999N9999999N1+00391+00391102461ADDAL13000091GJ100009KA1999N+00091MA1999999095471MD1510001+9999OA149900261REMSYN106AAXX  14064 06734 33/// /0000 10039 20039 39547 40246 55000 333 20009 55000 55300 20014 70005 91105 91204;
0140067340999992011011407004+46667+007867FM-12+057999999V0201001N001019999999N9999999N1+00401+00401102461ADDMA1999999095471MD1310021+9999OA149900261REMSYN088AAXX  14074 06734 33/// /1002 10040 20040 39547 40246 53002 333 55300 20014 91105 91203;
0087067340999992011011408004+46667+007867FM-12+057999999V0209999C000519999999N9999999N1+00461+00461102441ADDMA1999999095471REMSYN060AAXX  14084 06734 43/// /0001 10046 20046 39547 40244 5////;
0087067340999992011011409004+46667+007867FM-12+057999999V0209999C000019999999N9999999N1+00501+00501102401ADDMA1999999095441REMSYN060AAXX  14094 06734 43/// /0000 10050 20050 39544 40240 5////;
0087067340999992011011410004+46667+007867FM-12+057999999V0200401N000519999999N9999999N1+00611+00611102321ADDMA1999999095401REMSYN060AAXX  14104 06734 43/// /0401 10061 20061 39540 40232 5////;
0140067340999992011011411004+46667+007867FM-12+057999999V0200601N001519999999N9999999N1+00691+00691102241ADDMA1999999095341MD1710131+9999OA149900211REMSYN088AAXX  14114 06734 33/// /0603 10069 20069 39534 40224 57013 333 553// 2//// 91104 91203;
0140067340999992011011412004+46667+007867FM-12+057999999V0201001N002119999999N9999999N1+00791+00791102171ADDMA1999999095301MD1710141+9999OA149900311REMSYN088AAXX  14124 06734 33/// /1004 10079 20079 39530 40217 57014 333 553// 2//// 91106 91204;
0140067340999992011011413004+46667+007867FM-12+057999999V0201201N001519999999N9999999N1+00921+00921102091ADDMA1999999095261MD1710141+9999OA149900311REMSYN088AAXX  14134 06734 33/// /1203 10092 20092 39526 40209 57014 333 553// 2//// 91106 91204;
0103067340999992011011414004+46667+007867FM-12+057999999V0202001N002619999999N9999999N1+00831+00711102071ADDMA1999999095221REMSYN076AAXX  14144 06734 33/// /2005 10083 20071 39522 40207 5//// 333 553// 20896;
0140067340999992011011415004+46667+007867FM-12+057999999V0202301N001019999999N9999999N1+00691+00671102161ADDMA1999999095271MD1510031+9999OA149900311REMSYN088AAXX  14154 06734 33/// /2302 10069 20067 39527 40216 55003 333 55307 20425 91106 91205;
0140067340999992011011416004+46667+007867FM-12+057999999V0209999C000019999999N9999999N1+00601+00601102181ADDMA1999999095261MD1510001+9999OA149900311REMSYN088AAXX  14164 06734 33/// /0000 10060 20060 39526 40218 55000 333 55300 20119 91106 91205;
0140067340999992011011417004+46667+007867FM-12+057999999V0202201N001019999999N9999999N1+00511+00511102191ADDMA1999999095251MD1010031+9999OA149900361REMSYN088AAXX  14174 06734 33/// /2202 10051 20051 39525 40219 50003 333 55300 20018 91107 91204;
0159067340999992011011418004+46667+007867FM-12+057999999V0202001N001019999999N9999999N1+00381+00381102161ADDKA1120M+00931MA1999999095191MD1710081+9999OA149900361REMSYN094AAXX  14184 06734 33/// /2002 10038 20038 39519 40216 57008 333 10093 55300 20014 91107 91205;
0140067340999992011011419004+46667+007867FM-12+057999999V0202001N001019999999N9999999N1+00351+00351102171ADDMA1999999095191MD1710071+9999OA149900211REMSYN088AAXX  14194 06734 33/// /2002 10035 20035 39519 40217 57007 333 55300 20014 91104 91203;
0140067340999992011011420004+46667+007867FM-12+057999999V0209999C000019999999N9999999N1+00301+00301102201ADDMA1999999095211MD1510041+9999OA149900311REMSYN088AAXX  14204 06734 33/// /0000 10030 20030 39521 40220 55004 333 55300 20014 91106 91203;
0140067340999992011011421004+46667+007867FM-12+057999999V0201201N001519999999N9999999N1+00161+00161102291ADDMA1999999095261MD1210071+9999OA149900361REMSYN088AAXX  14214 06734 33/// /1203 10016 20016 39526 40229 52007 333 55300 20014 91107 91204;
0140067340999992011011422004+46667+007867FM-12+057999999V0202401N001019999999N9999999N1+00181+00181102401ADDMA1999999095361MD1310171+9999OA149900261REMSYN088AAXX  14224 06734 33/// /2402 10018 20018 39536 40240 53017 333 55300 20014 91105 91203;
0140067340999992011011423004+46667+007867FM-12+057999999V0200801N001019999999N9999999N1+00071+00071102491ADDMA1999999095421MD1210211+9999OA149900361REMSYN088AAXX  14234 06734 33/// /0802 10007 20007 39542 40249 52021 333 55300 20014 91107 91203;
0140067340999992011011500004+46667+007867FM-12+057999999V0202201N001519999999N9999999N1+00141+00141102611ADDMA1999999095551MD1210291+9999OA149900361REMSYN088AAXX  15004 06734 33/// /2203 10014 20014 39555 40261 52029 333 55300 20014 91107 91205;
0140067340999992011011501004+46667+007867FM-12+057999999V0202201N000519999999N9999999N1+00261+00261102561ADDMA1999999095531MD1210171+9999OA149900411REMSYN088AAXX  15014 06734 33/// /2201 10026 20026 39553 40256 52017 333 55300 20014 91108 91205;
0140067340999992011011502004+46667+007867FM-12+057999999V0209999C000019999999N9999999N1+00261+00261102631ADDMA1999999095601MD1219999+9999OA149900411REMSYN088AAXX  15024 06734 33/// /0000 10026 20026 39560 40263 52/// 333 55300 20014 91108 91205;
0103067340999992011011503004+46667+007867FM-12+057999999V0201301N000519999999N9999999N1+00271+00271102691ADDMA1999999095661REMSYN076AAXX  15034 06734 33/// /1301 10027 20027 39566 40269 5//// 333 553// 20014;
0140067340999992011011504004+46667+007867FM-12+057999999V0209999C000019999999N9999999N1+00361+00361102771ADDMA1999999095751MD1210221+9999OA149900411REMSYN088AAXX  15044 06734 33/// /0000 10036 20036 39575 40277 52022 333 55300 20014 91108 91204;
0140067340999992011011505004+46667+007867FM-12+057999999V0202301N001019999999N9999999N1+00431+00431102841ADDMA1999999095841MD1210241+9999OA149900411REMSYN088AAXX  15054 06734 33/// /2302 10043 20043 39584 40284 52024 333 55300 20014 91108 91204;
0189067340999992011011506004+46667+007867FM-12+057999999V0202101N002619999999N9999999N1+00361+00361102911ADDAL19900091GJ102889KA1999N+00051MA1999999095881MD1210221+9999OA149900411REMSYN106AAXX  15064 06734 33/// /2105 10036 20036 39588 40291 52022 333 20005 55048 55300 20014 70000 91108 91205;
0140067340999992011011507004+46667+007867FM-12+057999999V0201701N000519999999N9999999N1+00271+00271103031ADDMA1999999095971MD1210221+9999OA149900361REMSYN088AAXX  15074 06734 33/// /1701 10027 20027 39597 40303 52022 333 55300 20014 91107 91205;
0140067340999992011011508004+46667+007867FM-12+057999999V0202201N000519999999N9999999N1+00201+00201103031ADDMA1999999095951MD1219999+9999OA149900311REMSYN088AAXX  15084 06734 33/// /2201 10020 20020 39595 40303 52/// 333 55300 20036 91106 91204;
0140067340999992011011509004+46667+007867FM-12+057999999V0201001N000519999999N9999999N1+00181+00181103071ADDMA1999999095991MD1210111+9999OA149900411REMSYN088AAXX  15094 06734 33/// /1001 10018 20018 39599 40307 52011 333 55300 20086 91108 91205;
0140067340999992011011510004+46667+007867FM-12+057999999V0209999C000019999999N9999999N1+00401+00401103041ADDMA1999999096011MD1310041+9999OA149900151REMSYN088AAXX  15104 06734 33/// /0000 10040 20040 39601 40304 53004 333 55305 20508 91103 91202;
0140067340999992011011511004+46667+007867FM-12+057999999V0202001N001519999999N9999999N1+00681+00551102871ADDMA1999999095931MD1810021+9999OA149900361REMSYN088AAXX  15114 06734 33/// /2003 10068 20055 39593 40287 58002 333 553// 2//// 91107 91203;
0140067340999992011011512004+46667+007867FM-12+057999999V0202201N002119999999N9999999N1+00771+00491102811ADDMA1999999095891MD1710101+9999OA149900461REMSYN088AAXX  15124 06734 33/// /2204 10077 20049 39589 40281 57010 333 553// 2//// 91109 91206;
0103067340999992011011513004+46667+007867FM-12+057999999V0202301N001519999999N9999999N1+00761+00471102791ADDMA1999999095871REMSYN076AAXX  15134 06734 33/// /2303 10076 20047 39587 40279 5//// 333 553// 2////;
0087067340999992011011514004+46667+007867FM-12+057999999V0201401N000519999999N9999999N1+00751+00481102831ADDMA1999999095911REMSYN060AAXX  15144 06734 43/// /1401 10075 20048 39591 40283 5////;
0087067340999992011011515004+46667+007867FM-12+057999999V0202401N001519999999N9999999N1+00621+00471102881ADDMA1999999095921REMSYN060AAXX  15154 06734 43/// /2403 10062 20047 39592 40288 5////;
0087067340999992011011516004+46667+007867FM-12+057999999V0202301N001519999999N9999999N1+00511+00381102961ADDMA1999999095971REMSYN060AAXX  15164 06734 43/// /2303 10051 20038 39597 40296 5////;
0103067340999992011011517004+46667+007867FM-12+057999999V0202401N001019999999N9999999N1+00361+00341103041ADDMA1999999096001REMSYN076AAXX  15174 06734 33/// /2402 10036 20034 39600 40304 5//// 333 553// 20018;
0110067340999992011011518004+46667+007867FM-12+057999999V0209999C000019999999N9999999N1+00311+00311103061ADDKA1999M+00801MA1999999096011REMSYN070AAXX  15184 06734 43/// /0000 10031 20031 39601 40306 5//// 333 10080;
0087067340999992011011519004+46667+007867FM-12+057999999V0209999C000019999999N9999999N1+00181+00181103131ADDMA1999999096041REMSYN060AAXX  15194 06734 43/// /0000 10018 20018 39604 40313 5////;
0087067340999992011011520004+46667+007867FM-12+057999999V0202501N000519999999N9999999N1+00211+00211103151ADDMA1999999096071REMSYN060AAXX  15204 06734 43/// /2501 10021 20021 39607 40315 5////;
0140067340999992011011521004+46667+007867FM-12+057999999V0201801N000519999999N9999999N1+00171+00171103161ADDMA1999999096071MD1210061+9999OA149900261REMSYN088AAXX  15214 06734 33/// /1801 10017 20017 39607 40316 52006 333 55300 20014 91105 91204;
0140067340999992011011522004+46667+007867FM-12+057999999V0202101N002119999999N9999999N1+00151+00131103121ADDMA1999999096031MD1810011+9999OA149900261REMSYN088AAXX  15224 06734 33/// /2104 10015 20013 39603 40312 58001 333 55300 20014 91105 91204;
0140067340999992011011523004+46667+007867FM-12+057999999V0209999C000019999999N9999999N1+00091+00091103121ADDMA1999999096011MD1710061+9999OA149900361REMSYN088AAXX  15234 06734 33/// /0000 10009 20009 39601 40312 57006 333 55300 20014 91107 91205;
0140067340999992011011600004+46667+007867FM-12+057999999V0201601N000519999999N9999999N1+00041+00041103101ADDMA1999999095981MD1710091+9999OA149900411REMSYN088AAXX  16004 06734 33/// /1601 10004 20004 39598 40310 57009 333 55300 20014 91108 91205;
0140067340999992011011601004+46667+007867FM-12+057999999V0202201N001519999999N9999999N1-00011-00011103081ADDMA1999999095951MD1710081+9999OA149900211REMSYN088AAXX  16014 06734 33/// /2203 11001 21001 39595 40308 57008 333 55300 20014 91104 91203;
0140067340999992011011602004+46667+007867FM-12+057999999V0202101N002119999999N9999999N1-00051-00051103071ADDMA1999999095931MD1719999+9999OA149900261REMSYN088AAXX  16024 06734 33/// /2104 11005 21005 39593 40307 57/// 333 55300 20014 91105 91204;
0087067340999992011011603004+46667+007867FM-12+057999999V0201801N001019999999N9999999N1-00101-00101103091ADDMA1999999095931REMSYN060AAXX  16034 06734 43/// /1802 11010 21010 39593 40309 5////;
0140067340999992011011604004+46667+007867FM-12+057999999V0202001N001019999999N9999999N1-00061-00061103061ADDMA1999999095921MD1710031+9999OA149900261REMSYN088AAXX  16044 06734 33/// /2002 11006 21006 39592 40306 57003 333 55300 20014 91105 91203;
0140067340999992011011605004+46667+007867FM-12+057999999V0201901N000519999999N9999999N1-00061-00061103031ADDMA1999999095891MD1710041+9999OA149900211REMSYN088AAXX  16054 06734 33/// /1901 11006 21006 39589 40303 57004 333 55300 20014 91104 91203;
0189067340999992011011606004+46667+007867FM-12+057999999V0201501N001019999999N9999999N1+00001+00001103041ADDAL19900091GJ102829KA1999N-00101MA1999999095911MD1710021+9999OA149900361REMSYN106AAXX  16064 06734 33/// /1502 10000 20000 39591 40304 57002 333 21010 55047 55300 20014 70000 91107 91205;
0140067340999992011011607004+46667+007867FM-12+057999999V0201801N001019999999N9999999N1-00071-00071103101ADDMA1999999095951MD1310031+9999OA149900211REMSYN088AAXX  16074 06734 33/// /1802 11007 21007 39595 40310 53003 333 55300 20014 91104 91203;
0140067340999992011011608004+46667+007867FM-12+057999999V0202801N000519999999N9999999N1-00011-00011103181ADDMA1999999096041MD1219999+9999OA149900211REMSYN088AAXX  16084 06734 33/// /2801 11001 21001 39604 40318 52/// 333 55300 20032 91104 91203;
0140067340999992011011609004+46667+007867FM-12+057999999V0202301N001019999999N9999999N1-00051-00051103211ADDMA1999999096061MD1110151+9999OA149900211REMSYN088AAXX  16094 06734 33/// /2302 11005 21005 39606 40321 51015 333 55300 20065 91104 91203;
0140067340999992011011610004+46667+007867FM-12+057999999V0200901N001019999999N9999999N1+00061+00061103161ADDMA1999999096041MD1010091+9999OA149900261REMSYN088AAXX  16104 06734 33/// /0902 10006 20006 39604 40316 50009 333 55305 20515 91105 91203;
0140067340999992011011611004+46667+007867FM-12+057999999V0209999C000019999999N9999999N1+00501+00231103001ADDMA1999999096001MD1710041+9999OA149900261REMSYN088AAXX  16114 06734 33/// /0000 10050 20023 39600 40300 57004 333 553// 2//// 91105 91203;
0140067340999992011011612004+46667+007867FM-12+057999999V0200901N000519999999N9999999N1+00601+00331102911ADDMA1999999095941MD1810121+9999OA149900261REMSYN088AAXX  16124 06734 33/// /0901 10060 20033 39594 40291 58012 333 553// 2//// 91105 91204;
0140067340999992011011613004+46667+007867FM-12+057999999V0201801N000519999999N9999999N1+00661+00331102821ADDMA1999999095871MD1810171+9999OA149900211REMSYN088AAXX  16134 06734 33/// /1801 10066 20033 39587 40282 58017 333 553// 2//// 91104 91202;
0140067340999992011011614004+46667+007867FM-12+057999999V0201801N000519999999N9999999N1+00681+00291102761ADDMA1999999095821MD1719999+9999OA149900211REMSYN088AAXX  16144 06734 33/// /1801 10068 20029 39582 40276 57/// 333 553// 20997 91104 91202;
0140067340999992011011615004+46667+007867FM-12+057999999V0202101N001019999999N9999999N1+00491+00261102821ADDMA1999999095831MD1710111+9999OA149900311REMSYN088AAXX  16154 06734 33/// /2102 10049 20026 39583 40282 57011 333 55308 20526 91106 91204;
0140067340999992011011616004+46667+007867FM-12+057999999V0202301N001519999999N9999999N1+00391+00211102841ADDMA1999999095831MD1510041+9999OA149900411REMSYN088AAXX  16164 06734 33/// /2303 10039 20021 39583 40284 55004 333 55300 20054 91108 91206;
0140067340999992011011617004+46667+007867FM-12+057999999V0202101N001019999999N9999999N1+00241+00211102961ADDMA1999999095901MD1310081+9999OA149900411REMSYN088AAXX  16174 06734 33/// /2102 10024 20021 39590 40296 53008 333 55300 20018 91108 91206;
0159067340999992011011618004+46667+007867FM-12+057999999V0202201N001019999999N9999999N1+00231+00211102971ADDKA1120M+00691MA1999999095911MD1210081+9999OA149900411REMSYN094AAXX  16184 06734 33/// /2202 10023 20021 39591 40297 52008 333 10069 55300 20014 91108 91206;
0140067340999992011011619004+46667+007867FM-12+057999999V0202101N001019999999N9999999N1+00091+00091103001ADDMA1999999095901MD1010071+9999OA149900261REMSYN088AAXX  16194 06734 33/// /2102 10009 20009 39590 40300 50007 333 55300 20014 91105 91204;
0140067340999992011011620004+46667+007867FM-12+057999999V0202301N001519999999N9999999N1+00141+00131103001ADDMA1999999095911MD1210011+9999OA149900261REMSYN088AAXX  16204 06734 33/// /2303 10014 20013 39591 40300 52001 333 55300 20014 91105 91204;
0140067340999992011011621004+46667+007867FM-12+057999999V0202401N001519999999N9999999N1+00041+00041103071ADDMA1999999095951MD1210041+9999OA149900411REMSYN088AAXX  16214 06734 33/// /2403 10004 20004 39595 40307 52004 333 55300 20014 91108 91206;
0140067340999992011011622004+46667+007867FM-12+057999999V0202101N000519999999N9999999N1-00031-00031103101ADDMA1999999095961MD1210061+9999OA149900211REMSYN088AAXX  16224 06734 33/// /2101 11003 21003 39596 40310 52006 333 55300 20014 91104 91203;
0140067340999992011011623004+46667+007867FM-12+057999999V0202201N001019999999N9999999N1-00011-00011103101ADDMA1999999095971MD1210061+9999OA149900211REMSYN088AAXX  16234 06734 33/// /2202 11001 21001 39597 40310 52006 333 55300 20014 91104 91203;
0140067340999992011011700004+46667+007867FM-12+057999999V0202201N001519999999N9999999N1-00091-00091103131ADDMA1999999095971MD1210021+9999OA149900411REMSYN088AAXX  17004 06734 33/// /2203 11009 21009 39597 40313 52002 333 55300 20014 91108 91206;
0140067340999992011011701004+46667+007867FM-12+057999999V0202301N001019999999N9999999N1-00131-00131103131ADDMA1999999095961MD1010001+9999OA149900261REMSYN088AAXX  17014 06734 33/// /2302 11013 21013 39596 40313 50000 333 55300 20014 91105 91204;
0140067340999992011011702004+46667+007867FM-12+057999999V0201901N000519999999N9999999N1-00051-00051103061ADDMA1999999095921MD1719999+9999OA149900261REMSYN088AAXX  17024 06734 33/// /1901 11005 21005 39592 40306 57/// 333 55300 20014 91105 91204;
0103067340999992011011703004+46667+007867FM-12+057999999V0209999C000019999999N9999999N1-00071-00071103051ADDMA1999999095901REMSYN076AAXX  17034 06734 33/// /0000 11007 21007 39590 40305 5//// 333 553// 20014;
0140067340999992011011704004+46667+007867FM-12+057999999V0202301N000519999999N9999999N1-00101-00101103001ADDMA1999999095851MD1810111+9999OA149900151REMSYN088AAXX  17044 06734 33/// /2301 11010 21010 39585 40300 58011 333 55300 20014 91103 91202;
0140067340999992011011705004+46667+007867FM-12+057999999V0202701N000519999999N9999999N1-00081-00081102961ADDMA1999999095821MD1810101+9999OA149900151REMSYN088AAXX  17054 06734 33/// /2701 11008 21008 39582 40296 58010 333 55300 20014 91103 91202;
0189067340999992011011706004+46667+007867FM-12+057999999V0202201N001019999999N9999999N1-00111-00111102971ADDAL19900091GJ103189KA1999N-00131MA1999999095821MD1610081+9999OA149900261REMSYN106AAXX  17064 06734 33/// /2202 11011 21011 39582 40297 56008 333 21013 55053 55300 20014 70000 91105 91204;
0140067340999992011011707004+46667+007867FM-12+057999999V0202201N000519999999N9999999N1-00141-00141102961ADDMA1999999095801MD1710051+9999OA149900151REMSYN088AAXX  17074 06734 33/// /2201 11014 21014 39580 40296 57005 333 55300 20014 91103 91202;
0087067340999992011011708004+46667+007867FM-12+057999999V0201001N000519999999N9999999N1-00121-00121102971ADDMA1999999095821REMSYN060AAXX  17084 06734 43/// /1001 11012 21012 39582 40297 5////;
0087067340999992011011709004+46667+007867FM-12+057999999V0201901N000519999999N9999999N1-00071-00071102931ADDMA1999999095791REMSYN060AAXX  17094 06734 43/// /1901 11007 21007 39579 40293 5////;
0140067340999992011011710004+46667+007867FM-12+057999999V0200901N001519999999N9999999N1+00151+00151102901ADDMA1999999095821MD1310021+9999OA149900261REMSYN088AAXX  17104 06734 33/// /0903 10015 20015 39582 40290 53002 333 55305 20515 91105 91203;
0140067340999992011011711004+46667+007867FM-12+057999999V0202201N001519999999N9999999N1+00521+00231102821ADDMA1999999095841MD1310021+9999OA149900311REMSYN088AAXX  17114 06734 33/// /2203 10052 20023 39584 40282 53002 333 553// 2//// 91106 91204;
0140067340999992011011712004+46667+007867FM-12+057999999V0200701N001519999999N9999999N1+00581+00191102801ADDMA1999999095841MD1210051+9999OA149900311REMSYN088AAXX  17124 06734 33/// /0703 10058 20019 39584 40280 52005 333 553// 2//// 91106 91204;
0140067340999992011011713004+46667+007867FM-12+057999999V0202001N001519999999N9999999N1+00581+00201102751ADDMA1999999095791MD1810031+9999OA149900411REMSYN088AAXX  17134 06734 33/// /2003 10058 20020 39579 40275 58003 333 553// 2//// 91108 91205;
0087067340999992011011714004+46667+007867FM-12+057999999V0202201N001519999999N9999999N1+00571+00181102741ADDMA1999999095781REMSYN060AAXX  17144 06734 43/// /2203 10057 20018 39578 40274 5////;
0087067340999992011011715004+46667+007867FM-12+057999999V0202301N001519999999N9999999N1+00391+00061102821ADDMA1999999095811REMSYN060AAXX  17154 06734 43/// /2303 10039 20006 39581 40282 5////;
0140067340999992011011716004+46667+007867FM-12+057999999V0202301N001019999999N9999999N1+00261+00031102891ADDMA1999999095841MD1210051+9999OA149900311REMSYN088AAXX  17164 06734 33/// /2302 10026 20003 39584 40289 52005 333 55300 20054 91106 91205;
0140067340999992011011717004+46667+007867FM-12+057999999V0202101N000519999999N9999999N1+00221+00031102961ADDMA1999999095891MD1310111+9999OA149900311REMSYN088AAXX  17174 06734 33/// /2101 10022 20003 39589 40296 53011 333 55300 20018 91106 91204;
0159067340999992011011718004+46667+007867FM-12+057999999V0202001N000519999999N9999999N1+00161+00031103011ADDKA1120M+00611MA1999999095931MD1310121+9999OA149900411REMSYN094AAXX  17184 06734 33/// /2001 10016 20003 39593 40301 53012 333 10061 55300 20014 91108 91205;
0140067340999992011011719004+46667+007867FM-12+057999999V0201501N000519999999N9999999N1+00041+00031103061ADDMA1999999095941MD1210101+9999OA149900211REMSYN088AAXX  17194 06734 33/// /1501 10004 20003 39594 40306 52010 333 55300 20014 91104 91203;
0140067340999992011011720004+46667+007867FM-12+057999999V0201401N000519999999N9999999N1-00031-00031103101ADDMA1999999095961MD1210071+9999OA149900261REMSYN088AAXX  17204 06734 33/// /1401 11003 21003 39596 40310 52007 333 55300 20014 91105 91203;
0140067340999992011011721004+46667+007867FM-12+057999999V0202001N000519999999N9999999N1+00021-00051103091ADDMA1999999095961MD1210031+9999OA149900311REMSYN088AAXX  17214 06734 33/// /2001 10002 21005 39596 40309 52003 333 55300 20014 91106 91204;
0140067340999992011011722004+46667+007867FM-12+057999999V0202201N001519999999N9999999N1-00051-00051103121ADDMA1999999095971MD1210031+9999OA149900261REMSYN088AAXX  17224 06734 33/// /2203 11005 21005 39597 40312 52003 333 55300 20014 91105 91203;
0140067340999992011011723004+46667+007867FM-12+057999999V0209999C000019999999N9999999N1-00051-00051103081ADDMA1999999095941MD1710021+9999OA149900311REMSYN088AAXX  17234 06734 33/// /0000 11005 21005 39594 40308 57002 333 55300 20014 91106 91205;
0140067340999992011011800004+46667+007867FM-12+057999999V0202101N001519999999N9999999N1-00071-00111103101ADDMA1999999095951MD1010011+9999OA149900411REMSYN088AAXX  18004 06734 33/// /2103 11007 21011 39595 40310 50001 333 55300 20014 91108 91205;
0140067340999992011011801004+46667+007867FM-12+057999999V0209999C000019999999N9999999N1-00071-00091103081ADDMA1999999095931MD1719999+9999OA149900211REMSYN088AAXX  18014 06734 33/// /0000 11007 21009 39593 40308 57/// 333 55300 20014 91104 91203;
0087067340999992011011802004+46667+007867FM-12+057999999V0209999C000019999999N9999999N1-00051-00051103091ADDMA1999999095951REMSYN060AAXX  18024 06734 43/// /0000 11005 21005 39595 40309 5////;
0087067340999992011011803004+46667+007867FM-12+057999999V0201901N001019999999N9999999N1-00091-00101103061ADDMA1999999095911REMSYN060AAXX  18034 06734 43/// /1902 11009 21010 39591 40306 5////;
0103067340999992011011804004+46667+007867FM-12+057999999V0201901N000519999999N9999999N1-00161-00161103031ADDMA1999999095861REMSYN076AAXX  18044 06734 33/// /1901 11016 21016 39586 40303 5//// 333 553// 20014;
0140067340999992011011805004+46667+007867FM-12+057999999V0209999C000019999999N9999999N1-00131-00131102931ADDMA1999999095781MD1810171+9999OA149900211REMSYN088AAXX  18054 06734 33/// /0000 11013 21013 39578 40293 58017 333 55300 20014 91104 91204;
0189067340999992011011806004+46667+007867FM-12+057999999V0200601N000519999999N9999999N1-00151-00151103011ADDAL19900091GJ103189KA1999N-00171MA1999999095851MD1510061+9999OA149900311REMSYN106AAXX  18064 06734 33/// /0601 11015 21015 39585 40301 55006 333 21017 55053 55300 20014 70000 91106 91205;
0140067340999992011011807004+46667+007867FM-12+057999999V0202101N001019999999N9999999N1-00061-00081103041ADDMA1999999095901MD1310041+9999OA149900211REMSYN088AAXX  18074 06734 33/// /2102 11006 21008 39590 40304 53004 333 55300 20014 91104 91203;
0087067340999992011011808004+46667+007867FM-12+057999999V0202301N000519999999N9999999N1+00061-00041103051ADDMA1999999095941REMSYN060AAXX  18084 06734 43/// /2301 10006 21004 39594 40305 5////;
0087067340999992011011809004+46667+007867FM-12+057999999V0200801N001019999999N9999999N1+00201+00181102971ADDMA1999999095901REMSYN060AAXX  18094 06734 43/// /0802 10020 20018 39590 40297 5////;
0140067340999992011011810004+46667+007867FM-12+057999999V0202401N001019999999N9999999N1+00341+00261102881ADDMA1999999095851MD1810051+9999OA149900211REMSYN088AAXX  18104 06734 33/// /2402 10034 20026 39585 40288 58005 333 55300 20407 91104 91203;
0140067340999992011011811004+46667+007867FM-12+057999999V0201001N001019999999N9999999N1+00451+00281102751ADDMA1999999095761MD1810181+9999OA149900211REMSYN088AAXX  18114 06734 33/// /1002 10045 20028 39576 40275 58018 333 55301 20720 91104 91203;
0140067340999992011011812004+46667+007867FM-12+057999999V0200901N002119999999N9999999N1+00661+00211102621ADDMA1999999095691MD1819999+9999OA149900311REMSYN088AAXX  18124 06734 33/// /0904 10066 20021 39569 40262 58/// 333 553// 2//// 91106 91204;
0103067340999992011011813004+46667+007867FM-12+057999999V0203501N001019999999N9999999N1+00781+00031102571ADDMA1999999095671REMSYN076AAXX  18134 06734 33/// /3502 10078 20003 39567 40257 5//// 333 553// 2////;
0087067340999992011011814004+46667+007867FM-12+057999999V0200401N000519999999N9999999N1+00791+00201102531ADDMA1999999095641REMSYN060AAXX  18144 06734 43/// /0401 10079 20020 39564 40253 5////;
0087067340999992011011815004+46667+007867FM-12+057999999V0200301N001519999999N9999999N1+00641+00231102631ADDMA1999999095691REMSYN060AAXX  18154 06734 43/// /0303 10064 20023 39569 40263 5////;
0140067340999992011011816004+46667+007867FM-12+057999999V0202101N001019999999N9999999N1+00591+00251102671ADDMA1999999095721MD1310051+9999OA149900361REMSYN088AAXX  18164 06734 33/// /2102 10059 20025 39572 40267 53005 333 55300 20108 91107 91204;
0140067340999992011011817004+46667+007867FM-12+057999999V0200701N001019999999N9999999N1+00441+00271102721ADDMA1999999095731MD1210091+9999OA149900361REMSYN088AAXX  18174 06734 33/// /0702 10044 20027 39573 40272 52009 333 55300 20014 91107 91204;
0159067340999992011011818004+46667+007867FM-12+057999999V0209999C000019999999N9999999N1+00361+00251102791ADDKA1120M+00831MA1999999095771MD1210081+9999OA149900361REMSYN094AAXX  18184 06734 33/// /0000 10036 20025 39577 40279 52008 333 10083 55300 20014 91107 91204;
0140067340999992011011819004+46667+007867FM-12+057999999V0202401N001519999999N9999999N1+00221+00181102841ADDMA1999999095781MD1210061+9999OA149900261REMSYN088AAXX  18194 06734 33/// /2403 10022 20018 39578 40284 52006 333 55300 20014 91105 91204;
0140067340999992011011820004+46667+007867FM-12+057999999V0201801N002619999999N9999999N1+00341+00171102781ADDMA1999999095761MD1010031+9999OA149900461REMSYN088AAXX  18204 06734 33/// /1805 10034 20017 39576 40278 50003 333 55300 20014 91109 91206;
0140067340999992011011821004+46667+007867FM-12+057999999V0202301N002119999999N9999999N1+00271+00211102831ADDMA1999999095791MD1310021+9999OA149900461REMSYN088AAXX  18214 06734 33/// /2304 10027 20021 39579 40283 53002 333 55300 20014 91109 91206;
0140067340999992011011822004+46667+007867FM-12+057999999V0201301N000519999999N9999999N1+00241+00231102841ADDMA1999999095791MD1210011+9999OA149900311REMSYN088AAXX  18224 06734 33/// /1301 10024 20023 39579 40284 52001 333 55300 20014 91106 91204;
0140067340999992011011823004+46667+007867FM-12+057999999V0201801N001019999999N9999999N1+00281+00221102841ADDMA1999999095801MD1210041+9999OA149900311REMSYN088AAXX  18234 06734 33/// /1802 10028 20022 39580 40284 52004 333 55300 20014 91106 91203;
0140067340999992011011900004+46667+007867FM-12+057999999V0201901N000519999999N9999999N1+00271+00211102821ADDMA1999999095781MD1810011+9999OA149900461REMSYN088AAXX  19004 06734 33/// /1901 10027 20021 39578 40282 58001 333 55300 20014 91109 91206;
0140067340999992011011901004+46667+007867FM-12+057999999V0201801N000519999999N9999999N1+00231+00221102831ADDMA1999999095781MD1810011+9999OA149900211REMSYN088AAXX  19014 06734 33/// /1801 10023 20022 39578 40283 58001 333 55300 20014 91104 91203;
