0149067350999992011010100004+46500+007567FM-12+132099999V0209999C000019999999N9999999N1-00301-00881999999ADDMA1999999086801MD1810081+9999ME1314939OA149900361REMSYN088AAXX  01004 06735 33/// /0000 11030 21088 38680 48493 58008 333 55300 20014 91107 91204;
0149067350999992011010101004+46500+007567FM-12+132099999V0209999C000019999999N9999999N1-00321-00851999999ADDMA1999999086781MD1710111+9999ME1314919OA149900261REMSYN088AAXX  01014 06735 33/// /0000 11032 21085 38678 48491 57011 333 55300 20014 91105 91202;
0149067350999992011010102004+46500+007567FM-12+132099999V0209999C000019999999N9999999N1-00301-00891999999ADDMA1999999086791MD1510051+9999ME1314929OA149900261REMSYN088AAXX  01024 06735 33/// /0000 11030 21089 38679 48492 55005 333 55300 20014 91105 91202;
0149067350999992011010103004+46500+007567FM-12+132099999V0200101N001019999999N9999999N1-00431-00971999999ADDMA1999999086751MD1810051+9999ME1314879OA149900261REMSYN088AAXX  01034 06735 33/// /0102 11043 21097 38675 48487 58005 333 55300 20014 91105 91203;
0149067350999992011010104004+46500+007567FM-12+132099999V0203301N000519999999N9999999N1-00391-00961999999ADDMA1999999086731MD1710051+9999ME1314869OA149900261REMSYN088AAXX  01044 06735 33/// /3301 11039 21096 38673 48486 57005 333 55300 20014 91105 91203;
0149067350999992011010105004+46500+007567FM-12+132099999V0200501N002119999999N9999999N1-00381-01081999999ADDMA1999999086741MD1710051+9999ME1314879OA149900261REMSYN088AAXX  01054 06735 33/// /0504 11038 21108 38674 48487 57005 333 55300 20014 91105 91204;
0299067350999992011010106004+46500+007567FM-12+132099999V0202101N001012200019N0350001N1-00481-01111999999ADDAJ100269199999999AL19900091GA1001+999999999GF100991001001999999001001GJ103369IA1279IA2999-00909KA1999N-00501MA1999999086781MD1310031+9999ME1314909OA149900261REMSYN130AAXX  01064 06735 32/81 02102 11048 21111 38678 48490 53003 333 21050 3/109 43026 55056 55300 20018 70000 90768 93100 91105 91204;
0149067350999992011010107004+46500+007567FM-12+132099999V0202801N000519999999N9999999N1-00421-01021999999ADDMA1999999086771MD1010041+9999ME1314899OA149900211REMSYN088AAXX  01074 06735 33/// /2801 11042 21102 38677 48489 50004 333 55300 20014 91104 91203;
0149067350999992011010108004+46500+007567FM-12+132099999V0203201N000519999999N9999999N1-00421-01021999999ADDMA1999999086771MD1219999+9999ME1314899OA149900211REMSYN088AAXX  01084 06735 33/// /3201 11042 21102 38677 48489 52/// 333 55300 20036 91104 91201;
0096067350999992011010109004+46500+007567FM-12+132099999V0203101N000519999999N9999999N1-00351-00981999999ADDMA1999999086771ME1314909REMSYN060AAXX  01094 06735 43/// /3101 11035 21098 38677 48490 5////;
0096067350999992011010110004+46500+007567FM-12+132099999V0201801N000519999999N9999999N1-00161-01071999999ADDMA1999999086771ME1314919REMSYN060AAXX  01104 06735 43/// /1801 11016 21107 38677 48491 5////;
0149067350999992011010111004+46500+007567FM-12+132099999V0202001N001019999999N9999999N1-00081-01141999999ADDMA1999999086731MD1710041+9999ME1314889OA149900311REMSYN088AAXX  01114 06735 33/// /2002 11008 21114 38673 48488 57004 333 553// 2//// 91106 91203;
0138067350999992011010112004+46500+007567FM-12+132099999V0201201N001012200019N0350001N1+00011-01111999999ADDGA1001+999999999GF100991001001999999001001MA1999999086691ME1314849REMSYN060AAXX  01124 06735 42/81 01202 10001 21111 38669 48484 5////;
0096067350999992011010113004+46500+007567FM-12+132099999V0201501N001019999999N9999999N1+00021-01051999999ADDMA1999999086661ME1314829REMSYN060AAXX  01134 06735 43/// /1502 10002 21105 38666 48482 5////;
0096067350999992011010114004+46500+007567FM-12+132099999V0202001N001519999999N9999999N1+00021-00901999999ADDMA1999999086631ME1314799REMSYN060AAXX  01144 06735 43/// /2003 10002 21090 38663 48479 5////;
0096067350999992011010115004+46500+007567FM-12+132099999V0209999C000019999999N9999999N1-00171-00811999999ADDMA1999999086611ME1314769REMSYN060AAXX  01154 06735 43/// /0000 11017 21081 38661 48476 5////;
0096067350999992011010116004+46500+007567FM-12+132099999V0200601N001519999999N9999999N1-00261-00811999999ADDMA1999999086591ME1314749REMSYN060AAXX  01164 06735 43/// /0603 11026 21081 38659 48474 5////;
0096067350999992011010117004+46500+007567FM-12+132099999V0203301N001019999999N9999999N1-00261-00861999999ADDMA1999999086561ME1314719REMSYN060AAXX  01174 06735 43/// /3302 11026 21086 38656 48471 5////;
0193067350999992011010118004+46500+007567FM-12+132099999V0200801N001012200019N0400001N1-00321-00971999999ADDAJ100269199999999AL10600091GA1001+999999999GF100991001001999999001001IA1279MA1999999086591ME1314739REMSYN082AAXX  01184 06735 42/82 00802 11032 21097 38659 48473 5//// 333 43026 90766 93100;
0112067350999992011010119004+46500+007567FM-12+132099999V0203101N000519999999N9999999N1-00381-00941999999ADDMA1999999086611ME1314759REMSYN076AAXX  01194 06735 33/// /3101 11038 21094 38661 48475 5//// 333 553// 20014;
0149067350999992011010120004+46500+007567FM-12+132099999V0202601N000519999999N9999999N1-00371-00871999999ADDMA1999999086591MD1010031+9999ME1314739OA149900211REMSYN088AAXX  01204 06735 33/// /2601 11037 21087 38659 48473 50003 333 55300 20014 91104 91203;
0149067350999992011010121004+46500+007567FM-12+132099999V0201801N000519999999N9999999N1-00551-00971999999ADDMA1999999086591MD1410001+9999ME1314729OA149900361REMSYN088AAXX  01214 06735 33/// /1801 11055 21097 38659 48472 57000 333 55300 20014 91107 91204;
0149067350999992011010122004+46500+007567FM-12+132099999V0202801N000519999999N9999999N1-00411-00841999999ADDMA1999999086541MD1710071+9999ME1314689OA149900151REMSYN088AAXX  01224 06735 33/// /2801 11041 21084 38654 48468 57007 333 55300 20014 91103 91202;
0149067350999992011010123004+46500+007567FM-12+132099999V0202801N000519999999N9999999N1-00461-00861999999ADDMA1999999086461MD1710131+9999ME1314619OA149900151REMSYN088AAXX  01234 06735 33/// /2801 11046 21086 38646 48461 57013 333 55300 20014 91103 91202;
0149067350999992011010200004+46500+007567FM-12+132099999V0200301N001019999999N9999999N1-00501-00951999999ADDMA1999999086391MD1810201+9999ME1314549OA149900361REMSYN088AAXX  02004 06735 33/// /0302 11050 21095 38639 48454 58020 333 55300 20014 91107 91204;
0149067350999992011010201004+46500+007567FM-12+132099999V0200801N001019999999N9999999N1-00791-00871999999ADDMA1999999086441MD1510101+9999ME1314579OA149900461REMSYN088AAXX  02014 06735 33/// /0802 11079 21087 38644 48457 55010 333 55300 20018 91109 91205;
0096067350999992011010202004+46500+007567FM-12+132099999V0202001N000519999999N9999999N1-00761-00761999999ADDMA1999999086481ME1314619REMSYN060AAXX  02024 06735 43/// /2001 11076 21076 38648 48461 5////;
0096067350999992011010203004+46500+007567FM-12+132099999V0202501N000519999999N9999999N1-00781-01031999999ADDMA1999999086401ME1314549REMSYN060AAXX  02034 06735 43/// /2501 11078 21103 38640 48454 5////;
0096067350999992011010204004+46500+007567FM-12+132099999V0200401N002619999999N9999999N1-00841-01011999999ADDMA1999999086421ME1314559REMSYN060AAXX  02044 06735 43/// /0405 11084 21101 38642 48455 5////;
0096067350999992011010205004+46500+007567FM-12+132099999V0202701N001019999999N9999999N1-00811-00871999999ADDMA1999999086481ME1314619REMSYN060AAXX  02054 06735 43/// /2702 11081 21087 38648 48461 5////;
0297067350999992011010206004+46500+007567FM-12+132099999V0201001N000510024019N0025001N1-00951-01081999999ADDAJ100269199999999AL10600091AY111061AY211061GA1081+002401071GF108991999999002501999999GJ103369IA1279IA2999-01109KA1999N+99999MA1999999086471ME1314599MW1711REMSYN112AAXX  02064 06735 41325 81001 11095 21108 38647 48459 5//// 77111 333 21088 3/111 43026 55056 88708 90768 93100;EQDQ01 -00882ATMN  
0149067350999992011010207004+46500+007567FM-12+132099999V0200101N000519999999N9999999N1-00891-01121999999ADDMA1999999086401MD1810021+9999ME1314539OA149900311REMSYN088AAXX  02074 06735 33/// /0101 11089 21112 38640 48453 58002 333 55300 20018 91106 91204;
0149067350999992011010208004+46500+007567FM-12+132099999V0202201N001019999999N9999999N1-00901-00971999999ADDMA1999999086521MD1310041+9999ME1314649OA149900461REMSYN088AAXX  02084 06735 33/// /2202 11090 21097 38652 48464 53004 333 55300 20032 91109 91205;
0149067350999992011010209004+46500+007567FM-12+132099999V0201801N001519999999N9999999N1-00891-00981999999ADDMA1999999086551MD1310081+9999ME1314679OA149900511REMSYN088AAXX  02094 06735 33/// /1803 11089 21098 38655 48467 53008 333 55300 20054 91110 91205;
0149067350999992011010210004+46500+007567FM-12+132099999V0202001N000519999999N9999999N1-00781-00981999999ADDMA1999999086571MD1210171+9999ME1314699OA149900261REMSYN088AAXX  02104 06735 33/// /2001 11078 21098 38657 48469 52017 333 55300 20374 91105 91203;
0149067350999992011010211004+46500+007567FM-12+132099999V0201601N000519999999N9999999N1-00461-00831999999ADDMA1999999086531MD1010011+9999ME1314679OA149900211REMSYN088AAXX  02114 06735 33/// /1601 11046 21083 38653 48467 50001 333 55302 20817 91104 91202;
0197067350999992011010212004+46500+007567FM-12+132099999V0200601N00151006001CN0150001N1-00401-00721999999ADDGA1081+006001071GF108991999999008001999999MA1999999086501MD1710051+9999ME1314659OA149900511REMSYN094AAXX  02124 06735 32565 80603 11040 21072 38650 48465 57005 333 55300 20745 88720 91110 91205;
0149067350999992011010213004+46500+007567FM-12+132099999V0200601N001519999999N9999999N1-00461-00641999999ADDMA1999999086491MD1710081+9999ME1314639OA149900361REMSYN088AAXX  02134 06735 33/// /0603 11046 21064 38649 48463 57008 333 55300 20428 91107 91204;
0112067350999992011010214004+46500+007567FM-12+132099999V0201001N001019999999N9999999N1-00531-00611999999ADDMA1999999086521ME1314669REMSYN076AAXX  02144 06735 33/// /1002 11053 21061 38652 48466 5//// 333 553// 20227;
0149067350999992011010215004+46500+007567FM-12+132099999V0200601N001519999999N9999999N1-00511-00601999999ADDMA1999999086541MD1310041+9999ME1314689OA149900361REMSYN088AAXX  02154 06735 33/// /0603 11051 21060 38654 48468 53004 333 55300 20112 91107 91204;
0149067350999992011010216004+46500+007567FM-12+132099999V0200601N001519999999N9999999N1-00531-00561999999ADDMA1999999086571MD1310081+9999ME1314709OA149900361REMSYN088AAXX  02164 06735 33/// /0603 11053 21056 38657 48470 53008 333 55300 20036 91107 91204;
0149067350999992011010217004+46500+007567FM-12+132099999V0200701N000519999999N9999999N1-00561-00571999999ADDMA1999999086601MD1310081+9999ME1314739OA149900361REMSYN088AAXX  02174 06735 33/// /0701 11056 21057 38660 48473 53008 333 55300 20014 91107 91204;
0295067350999992011010218004+46500+007567FM-12+132099999V0200601N00051001501CN0020001N1-00551-00551999999ADDAJ100269199999999AL19900091AY171061AY221061GA1081+001501071GF108991999999001501999999IA1279KA1120M-00381MA1999999086621MD1110081+9999ME1314759MW1101OA149900461REMSYN124AAXX  02184 06735 31220 80601 11055 21055 38662 48475 51008 71072 333 11038 43026 55300 20014 88705 90766 93100 91109 91205;
0149067350999992011010219004+46500+007567FM-12+132099999V0201001N001019999999N9999999N1-00561-00571999999ADDMA1999999086641MD1110071+9999ME1314769OA149900261REMSYN088AAXX  02194 06735 33/// /1002 11056 21057 38664 48476 51007 333 55300 20014 91105 91202;
0149067350999992011010220004+46500+007567FM-12+132099999V0200701N001019999999N9999999N1-00561-00621999999ADDMA1999999086641MD1210041+9999ME1314769OA149900261REMSYN088AAXX  02204 06735 33/// /0702 11056 21062 38664 48476 52004 333 55300 20014 91105 91202;
0149067350999992011010221004+46500+007567FM-12+132099999V0202901N000519999999N9999999N1-00541-00931999999ADDMA1999999086681MD1210061+9999ME1314809OA149900361REMSYN088AAXX  02214 06735 33/// /2901 11054 21093 38668 48480 52006 333 55300 20018 91107 91204;
0149067350999992011010222004+46500+007567FM-12+132099999V0201601N002119999999N9999999N1-00601-01021999999ADDMA1999999086661MD1210021+9999ME1314789OA149900411REMSYN088AAXX  02224 06735 33/// /1604 11060 21102 38666 48478 52002 333 55300 20014 91108 91204;
0149067350999992011010223004+46500+007567FM-12+132099999V0202001N001019999999N9999999N1-00631-00941999999ADDMA1999999086691MD1210051+9999ME1314819OA149900411REMSYN088AAXX  02234 06735 33/// /2002 11063 21094 38669 48481 52005 333 55300 20018 91108 91204;
0149067350999992011010300004+46500+007567FM-12+132099999V0202001N001019999999N9999999N1-00681-00951999999ADDMA1999999086671MD1710011+9999ME1314799OA149900411REMSYN088AAXX  03004 06735 33/// /2002 11068 21095 38667 48479 57001 333 55300 20014 91108 91204;
0149067350999992011010301004+46500+007567FM-12+132099999V0202301N001519999999N9999999N1-00721-01051999999ADDMA1999999086641MD1810021+9999ME1314769OA149900261REMSYN088AAXX  03014 06735 33/// /2303 11072 21105 38664 48476 58002 333 55300 20014 91105 91203;
0149067350999992011010302004+46500+007567FM-12+132099999V0202101N001519999999N9999999N1-00821-01141999999ADDMA1999999086681MD1519999+9999ME1314799OA149900261REMSYN088AAXX  03024 06735 33/// /2103 11082 21114 38668 48479 55/// 333 55300 20018 91105 91203;
0096067350999992011010303004+46500+007567FM-12+132099999V0202301N002119999999N9999999N1-00861-01191999999ADDMA1999999086671ME1314779REMSYN060AAXX  03034 06735 43/// /2304 11086 21119 38667 48477 5////;
0149067350999992011010304004+46500+007567FM-12+132099999V0209999C000019999999N9999999N1-00991-01251999999ADDMA1999999086681MD1210041+9999ME1314789OA149900361REMSYN088AAXX  03044 06735 33/// /0000 11099 21125 38668 48478 52004 333 55300 20018 91107 91205;
0149067350999992011010305004+46500+007567FM-12+132099999V0202401N000519999999N9999999N1-01161-01391999999ADDMA1999999086671MD1710011+9999ME1314769OA149900361REMSYN088AAXX  03054 06735 33/// /2401 11116 21139 38667 48476 57001 333 55300 20018 91107 91205;
0299067350999992011010306004+46500+007567FM-12+132099999V0200201N000512200019N0350001N1-01201-01441999999ADDAJ100269199999999AL19900091GA1001+999999999GF100991001001999999001001GJ100129IA1279IA2999-01509KA1999N-01221MA1999999086661MD1810011+9999ME1314759OA149900411REMSYN130AAXX  03064 06735 32/81 00201 11120 21144 38666 48475 58001 333 21122 3/115 43026 55002 55300 20018 70000 90768 93100 91108 91205;
0149067350999992011010307004+46500+007567FM-12+132099999V0201701N000519999999N9999999N1-01191-01381999999ADDMA1999999086641MD1810041+9999ME1314739OA149900151REMSYN088AAXX  03074 06735 33/// /1701 11119 21138 38664 48473 58004 333 55300 20014 91103 91201;
0149067350999992011010308004+46500+007567FM-12+132099999V0203301N000519999999N9999999N1-01181-01381999999ADDMA1999999086641MD1819999+9999ME1314739OA149900151REMSYN088AAXX  03084 06735 33/// /3301 11118 21138 38664 48473 58/// 333 55300 20036 91103 91202;
0112067350999992011010309004+46500+007567FM-12+132099999V0202301N000519999999N9999999N1-01071-01351999999ADDMA1999999086631ME1314739REMSYN076AAXX  03094 06735 33/// /2301 11107 21135 38663 48473 5//// 333 553// 20068;
0149067350999992011010310004+46500+007567FM-12+132099999V0201601N000519999999N9999999N1-00901-01341999999ADDMA1999999086661MD1310021+9999ME1314769OA149900211REMSYN088AAXX  03104 06735 33/// /1601 11090 21134 38666 48476 53002 333 55305 20508 91104 91202;
0168067350999992011010311004+46500+007567FM-12+132099999V0201701N001019999999N9999999N1-00771-01221999999ADDMA1999999086641MD1410001+9999ME1314759OA149900211REMSYN088AAXX  03114 06735 33/// /1702 11077 21122 38664 48475 52000 333 553// 2//// 91104 91202;EQDQ01+000022APCTEN
0191067350999992011010312004+46500+007567FM-12+132099999V0201601N000512200019N0400001N1-00671-01251999999ADDGA1001+999999999GF100991001001999999001001MA1999999086571MD1810061+9999ME1314709OA149900361REMSYN088AAXX  03124 06735 32/82 01601 11067 21125 38657 48470 58006 333 553// 2//// 91107 91205;
0149067350999992011010313004+46500+007567FM-12+132099999V0201201N001519999999N9999999N1-00581-01361999999ADDMA1999999086551MD1710111+9999ME1314689OA149900261REMSYN088AAXX  03134 06735 33/// /1203 11058 21136 38655 48468 57011 333 553// 2//// 91105 91203;
0112067350999992011010314004+46500+007567FM-12+132099999V0201001N001519999999N9999999N1-00611-01201999999ADDMA1999999086571ME1314709REMSYN076AAXX  03144 06735 33/// /1003 11061 21120 38657 48470 5//// 333 553// 2////;
0112067350999992011010315004+46500+007567FM-12+132099999V0201501N000519999999N9999999N1-00751-01181999999ADDMA1999999086581ME1314709REMSYN076AAXX  03154 06735 33/// /1501 11075 21118 38658 48470 5//// 333 553// 20547;
0149067350999992011010316004+46500+007567FM-12+132099999V0201901N001019999999N9999999N1-00891-01341999999ADDMA1999999086591MD1110041+9999ME1314709OA149900261REMSYN088AAXX  03164 06735 33/// /1902 11089 21134 38659 48470 51004 333 55302 20079 91105 91202;
0168067350999992011010317004+46500+007567FM-12+132099999V0202201N000519999999N9999999N1-00981-01311999999ADDMA1999999086571MD1410001+9999ME1314689OA149900151REMSYN088AAXX  03174 06735 33/// /2201 11098 21131 38657 48468 57000 333 55300 20018 91103 91202;EQDQ01+000072APCTEN
0261067350999992011010318004+46500+007567FM-12+132099999V0201601N000512200019N0400001N1-01051-01481999999ADDAJ100269199999999AL19900091GA1001+999999999GF100991001001999999001001IA1279KA1120M-00561MA1999999086561MD1710021+9999ME1314679OA149900361REMSYN112AAXX  03184 06735 32/82 01601 11105 21148 38656 48467 57002 333 11056 43026 55300 20014 90766 93100 91107 91203;
0149067350999992011010319004+46500+007567FM-12+132099999V0202201N000519999999N9999999N1-00951-01401999999ADDMA1999999086531MD1710061+9999ME1314649OA149900211REMSYN088AAXX  03194 06735 33/// /2201 11095 21140 38653 48464 57006 333 55300 20014 91104 91202;
0149067350999992011010320004+46500+007567FM-12+132099999V0203301N000519999999N9999999N1-00911-01481999999ADDMA1999999086501MD1710071+9999ME1314629OA149900261REMSYN088AAXX  03204 06735 33/// /3301 11091 21148 38650 48462 57007 333 55300 20014 91105 91202;
0149067350999992011010321004+46500+007567FM-12+132099999V0202801N000519999999N9999999N1-00821-01561999999ADDMA1999999086491MD1610071+9999ME1314629OA149900261REMSYN088AAXX  03214 06735 33/// /2801 11082 21156 38649 48462 56007 333 55300 20014 91105 91202;
0149067350999992011010322004+46500+007567FM-12+132099999V0209999C000019999999N9999999N1-00951-01551999999ADDMA1999999086471MD1710061+9999ME1314599OA149900151REMSYN088AAXX  03224 06735 33/// /0000 11095 21155 38647 48459 57006 333 55300 20018 91103 91202;
0149067350999992011010323004+46500+007567FM-12+132099999V0209999C000019999999N9999999N1-00921-01561999999ADDMA1999999086491MD1510011+9999ME1314619OA149900101REMSYN088AAXX  03234 06735 33/// /0000 11092 21156 38649 48461 55001 333 55300 20014 91102 91201;
0149067350999992011010400004+46500+007567FM-12+132099999V0209999C000019999999N9999999N1-00991-01611999999ADDMA1999999086511MD1210021+9999ME1314629OA149900361REMSYN088AAXX  04004 06735 33/// /0000 11099 21161 38651 48462 52002 333 55300 20014 91107 91203;
0149067350999992011010401004+46500+007567FM-12+132099999V0201901N000519999999N9999999N1-01011-01581999999ADDMA1999999086441MD1810031+9999ME1314569OA149900151REMSYN088AAXX  04014 06735 33/// /1901 11101 21158 38644 48456 58003 333 55300 20014 91103 91202;
0149067350999992011010402004+46500+007567FM-12+132099999V0200501N000519999999N9999999N1-00981-01591999999ADDMA1999999086421MD1719999+9999ME1314559OA149900151REMSYN088AAXX  04024 06735 33/// /0501 11098 21159 38642 48455 57/// 333 55300 20014 91103 91202;
0149067350999992011010403004+46500+007567FM-12+132099999V0201801N001019999999N9999999N1-01011-01571999999ADDMA1999999086401MD1710111+9999ME1314539OA149900211REMSYN088AAXX  04034 06735 33/// /1802 11101 21157 38640 48453 57011 333 55300 20014 91104 91202;
0149067350999992011010404004+46500+007567FM-12+132099999V0209999C000019999999N9999999N1-00971-01621999999ADDMA1999999086381MD1710061+9999ME1314519OA149900261REMSYN088AAXX  04044 06735 33/// /0000 11097 21162 38638 48451 57006 333 55300 20014 91105 91203;
0149067350999992011010405004+46500+007567FM-12+132099999V0209999C000019999999N9999999N1-00931-01551999999ADDMA1999999086351MD1710071+9999ME1314499OA149900261REMSYN088AAXX  04054 06735 33/// /0000 11093 21155 38635 48449 57007 333 55300 20014 91105 91203;
0299067350999992011010406004+46500+007567FM-12+132099999V0203201N000512200019N0350001N1-00771-01571999999ADDAJ100269199999999AL19900091GA1001+999999999GF100991001001999999001001GJ103369IA1279IA2999-01409KA1999N-01091MA1999999086321MD1710081+9999ME1314479OA149900261REMSYN130AAXX  04064 06735 32/81 03201 11077 21157 38632 48447 57008 333 21109 3/114 43026 55056 55300 20014 70000 90768 93100 91105 91203;
0149067350999992011010407004+46500+007567FM-12+132099999V0202501N000519999999N9999999N1-00881-01561999999ADDMA1999999086331MD1710051+9999ME1314479OA149900211REMSYN088AAXX  04074 06735 33/// /2501 11088 21156 38633 48447 57005 333 55300 20014 91104 91202;
0149067350999992011010408004+46500+007567FM-12+132099999V0202101N000519999999N9999999N1-00701-01531999999ADDMA1999999086321MD1719999+9999ME1314479OA149900311REMSYN088AAXX  04084 06735 33/// /2101 11070 21153 38632 48447 57/// 333 55300 20043 91106 91203;
0112067350999992011010409004+46500+007567FM-12+132099999V0202501N000519999999N9999999N1-00591-01461999999ADDMA1999999086331ME1314489REMSYN076AAXX  04094 06735 33/// /2501 11059 21146 38633 48448 5//// 333 553// 20151;
0149067350999992011010410004+46500+007567FM-12+132099999V0209999C000019999999N9999999N1-00551-01301999999ADDMA1999999086321MD1710011+9999ME1314489OA149900261REMSYN088AAXX  04104 06735 33/// /0000 11055 21130 38632 48448 57001 333 55300 20371 91105 91201;
0149067350999992011010411004+46500+007567FM-12+132099999V0200901N001019999999N9999999N1-00461-01471999999ADDMA1999999086261MD1710061+9999ME1314439OA149900361REMSYN088AAXX  04114 06735 33/// /0902 11046 21147 38626 48443 57006 333 55303 20814 91107 91203;
0197067350999992011010412004+46500+007567FM-12+132099999V0200601N00101030001CN0200001N1-00521-01441999999ADDGA1081+030001031GF108991999999999999999999MA1999999086251MD1710081+9999ME1314419OA149900361REMSYN094AAXX  04124 06735 32970 80602 11052 21144 38625 48441 57008 333 55300 20680 88360 91107 91203;
0149067350999992011010413004+46500+007567FM-12+132099999V0201501N000519999999N9999999N1-00461-01451999999ADDMA1999999086211MD1710111+9999ME1314389OA149900311REMSYN088AAXX  04134 06735 33/// /1501 11046 21145 38621 48438 57011 333 55305 2//// 91106 91203;
0112067350999992011010414004+46500+007567FM-12+132099999V0200701N001519999999N9999999N1-00411-01391999999ADDMA1999999086161ME1314349REMSYN076AAXX  04144 06735 33/// /0703 11041 21139 38616 48434 5//// 333 553// 20958;
0096067350999992011010415004+46500+007567FM-12+132099999V0201201N000519999999N9999999N1-00531-01251999999ADDMA1999999086181ME1314359REMSYN060AAXX  04154 06735 43/// /1201 11053 21125 38618 48435 5////;
0149067350999992011010416004+46500+007567FM-12+132099999V0202501N000519999999N9999999N1-00711-01191999999ADDMA1999999086181MD1710031+9999ME1314349OA149900261REMSYN088AAXX  04164 06735 33/// /2501 11071 21119 38618 48434 57003 333 55302 20083 91105 91202;
0168067350999992011010417004+46500+007567FM-12+132099999V0209999C000019999999N9999999N1-00751-01261999999ADDMA1999999086161MD1410001+9999ME1314329OA149900151REMSYN088AAXX  04174 06735 33/// /0000 11075 21126 38616 48432 58000 333 55300 20018 91103 91202;EQDQ01+000082APCTEN
0261067350999992011010418004+46500+007567FM-12+132099999V0202401N000512200019N0400001N1-00681-01281999999ADDAJ100269199999999AL19900091GA1001+999999999GF100991001001999999001001IA1279KA1120M-00391MA1999999086201MD1310021+9999ME1314369OA149900361REMSYN112AAXX  04184 06735 32/82 02401 11068 21128 38620 48436 53002 333 11039 43026 55300 20014 90766 93100 91107 91204;
0149067350999992011010419004+46500+007567FM-12+132099999V0202501N000519999999N9999999N1-00721-01221999999ADDMA1999999086221MD1210041+9999ME1314389OA149900151REMSYN088AAXX  04194 06735 33/// /2501 11072 21122 38622 48438 52004 333 55300 20014 91103 91201;
0149067350999992011010420004+46500+007567FM-12+132099999V0200101N001019999999N9999999N1-00721-01181999999ADDMA1999999086151MD1810011+9999ME1314319OA149900211REMSYN088AAXX  04204 06735 33/// /0102 11072 21118 38615 48431 58001 333 55300 20014 91104 91202;
0149067350999992011010421004+46500+007567FM-12+132099999V0200401N000519999999N9999999N1-00641-01261999999ADDMA1999999086121MD1710081+9999ME1314299OA149900211REMSYN088AAXX  04214 06735 33/// /0401 11064 21126 38612 48429 57008 333 55300 20014 91104 91202;
0149067350999992011010422004+46500+007567FM-12+132099999V0202601N000519999999N9999999N1-00711-01221999999ADDMA1999999086151MD1510071+9999ME1314329OA149900211REMSYN088AAXX  04224 06735 33/// /2601 11071 21122 38615 48432 55007 333 55300 20014 91104 91202;
0149067350999992011010423004+46500+007567FM-12+132099999V0209999C000019999999N9999999N1-00771-01241999999ADDMA1999999086191MD1210041+9999ME1314359OA149900151REMSYN088AAXX  04234 06735 33/// /0000 11077 21124 38619 48435 52004 333 55300 20014 91103 91202;
0149067350999992011010500004+46500+007567FM-12+132099999V0203201N000519999999N9999999N1-00771-01161999999ADDMA1999999086151MD1010031+9999ME1314319OA149900311REMSYN088AAXX  05004 06735 33/// /3201 11077 21116 38615 48431 50003 333 55300 20014 91106 91204;
0149067350999992011010501004+46500+007567FM-12+132099999V0203401N000519999999N9999999N1-00731-01121999999ADDMA1999999086141MD1810011+9999ME1314319OA149900151REMSYN088AAXX  05014 06735 33/// /3401 11073 21112 38614 48431 58001 333 55300 20014 91103 91201;
0149067350999992011010502004+46500+007567FM-12+132099999V0203301N000519999999N9999999N1-00851-01121999999ADDMA1999999086151MD1710041+9999ME1314319OA149900211REMSYN088AAXX  05024 06735 33/// /3301 11085 21112 38615 48431 57004 333 55300 20014 91104 91201;
0096067350999992011010503004+46500+007567FM-12+132099999V0209999C001019999999N9999999N1-00861-01121999999ADDMA1999999086131ME1314299REMSYN060AAXX  05034 06735 43/// /0002 11086 21112 38613 48429 5////;
0149067350999992011010504004+46500+007567FM-12+132099999V0209999C000019999999N9999999N1-00821-01081999999ADDMA1999999086131MD1810011+9999ME1314299OA149900151REMSYN088AAXX  05044 06735 33/// /0000 11082 21108 38613 48429 58001 333 55300 20014 91103 91202;
0149067350999992011010505004+46500+007567FM-12+132099999V0201801N000519999999N9999999N1-00791-01081999999ADDMA1999999086111MD1710041+9999ME1314289OA149900151REMSYN088AAXX  05054 06735 33/// /1801 11079 21108 38611 48428 57004 333 55300 20014 91103 91202;
0299067350999992011010506004+46500+007567FM-12+132099999V0202401N000512200019N0350001N1-00861-01061999999ADDAJ100269199999999AL19900091GA1001+999999999GF100991001001999999001001GJ101809IA1279IA2999-01209KA1999N-00911MA1999999086131MD1510001+9999ME1314299OA149900211REMSYN130AAXX  05064 06735 32/81 02401 11086 21106 38613 48429 55000 333 21091 3/112 43026 55030 55300 20014 70000 90768 93100 91104 91202;
0149067350999992011010507004+46500+007567FM-12+132099999V0200201N000519999999N9999999N1-00721-01041999999ADDMA1999999086111MD1710021+9999ME1314289OA149900211REMSYN088AAXX  05074 06735 33/// /0201 11072 21104 38611 48428 57002 333 55300 20014 91104 91201;
0149067350999992011010508004+46500+007567FM-12+132099999V0209999C000019999999N9999999N1-00671-01091999999ADDMA1999999086131MD1219999+9999ME1314309OA149900211REMSYN088AAXX  05084 06735 33/// /0000 11067 21109 38613 48430 52/// 333 55300 20036 91104 91201;
0149067350999992011010509004+46500+007567FM-12+132099999V0202301N000519999999N9999999N1-00351-01221999999ADDMA1999999086151MD1210021+9999ME1314339OA149900211REMSYN088AAXX  05094 06735 33/// /2301 11035 21122 38615 48433 52002 333 55300 20065 91104 91202;
0149067350999992011010510004+46500+007567FM-12+132099999V0202001N002619999999N9999999N1-00141-01091999999ADDMA1999999086131MD1010021+9999ME1314329OA149900461REMSYN088AAXX  05104 06735 33/// /2005 11014 21109 38613 48432 50002 333 55304 20482 91109 91205;
0149067350999992011010511004+46500+007567FM-12+132099999V0202001N001019999999N9999999N1+00161-01131999999ADDMA1999999086061MD1810071+9999ME1314279OA149900461REMSYN088AAXX  05114 06735 33/// /2002 10016 21113 38606 48427 58007 333 553// 2//// 91109 91205;
0144067350999992011010512004+46500+007567FM-12+132099999V0201101N000512200019N0350001N1-00051-00891999999ADDGF101991999999999999999999MA1999999085981ME1314189REMSYN082AAXX  05124 06735 32981 11101 11005 21089 38598 48418 5//// 333 553// 2//// 81072;
0149067350999992011010513004+46500+007567FM-12+132099999V0201701N000519999999N9999999N1+00051-00871999999ADDMA1999999086001MD1710131+9999ME1314219OA149900411REMSYN088AAXX  05134 06735 33/// /1701 10005 21087 38600 48421 57013 333 553// 2//// 91108 91203;
0096067350999992011010514004+46500+007567FM-12+132099999V0201301N001519999999N9999999N1-00151-00851999999ADDMA1999999086041ME1314249REMSYN060AAXX  05144 06735 43/// /1303 11015 21085 38604 48424 5////;
0096067350999992011010515004+46500+007567FM-12+132099999V0202301N000519999999N9999999N1-00151-00821999999ADDMA1999999086011ME1314219REMSYN060AAXX  05154 06735 43/// /2301 11015 21082 38601 48421 5////;
0149067350999992011010516004+46500+007567FM-12+132099999V0202301N001019999999N9999999N1-00091-00821999999ADDMA1999999085981MD1810021+9999ME1314189OA149900361REMSYN088AAXX  05164 06735 33/// /2302 11009 21082 38598 48418 58002 333 55302 20097 91107 91202;
0149067350999992011010517004+46500+007567FM-12+132099999V0202401N003619999999N9999999N1+00221-00861999999ADDMA1999999085991MD1710051+9999ME1314209OA149900621REMSYN088AAXX  05174 06735 33/// /2407 10022 21086 38599 48420 57005 333 55300 20011 91112 91208;
0261067350999992011010518004+46500+007567FM-12+132099999V0202401N002612200019N0400001N1+00051-00721999999ADDAJ100269199999999AL19900091GA1001+999999999GF100991001001999999001001IA1279KA1120M+00221MA1999999085961MD1719999+9999ME1314179OA149900621REMSYN112AAXX  05184 06735 32/82 02405 10005 21072 38596 48417 57/// 333 10022 43026 55300 20014 90766 93100 91112 91208;
0149067350999992011010519004+46500+007567FM-12+132099999V0203501N001019999999N9999999N1+00001-00721999999ADDMA1999999085951MD1810031+9999ME1314169OA149900621REMSYN088AAXX  05194 06735 33/// /3502 10000 21072 38595 48416 58003 333 55300 20014 91112 91208;
0149067350999992011010520004+46500+007567FM-12+132099999V0209999C000019999999N9999999N1-00191-00701999999ADDMA1999999085931MD1719999+9999ME1314139OA149900361REMSYN088AAXX  05204 06735 33/// /0000 11019 21070 38593 48413 57/// 333 55300 20014 91107 91203;
0112067350999992011010521004+46500+007567FM-12+132099999V0202201N000519999999N9999999N1-00141-00751999999ADDMA1999999085921ME1314139REMSYN076AAXX  05214 06735 33/// /2201 11014 21075 38592 48413 5//// 333 553// 20014;
0149067350999992011010522004+46500+007567FM-12+132099999V0209999C000019999999N9999999N1-00081-00761999999ADDMA1999999085901MD1710051+9999ME1314119OA149900211REMSYN088AAXX  05224 06735 33/// /0000 11008 21076 38590 48411 57005 333 55300 20014 91104 91202;
0149067350999992011010523004+46500+007567FM-12+132099999V0209999C000019999999N9999999N1-00031-00721999999ADDMA1999999085881MD1719999+9999ME1314099OA149900261REMSYN088AAXX  05234 06735 33/// /0000 11003 21072 38588 48409 57/// 333 55300 20014 91105 91202;
0096067350999992011010600004+46500+007567FM-12+132099999V0209999C000019999999N9999999N1+00041-00761999999ADDMA1999999085821ME1314049REMSYN060AAXX  06004 06735 43/// /0000 10004 21076 38582 48404 5////;
0096067350999992011010601004+46500+007567FM-12+132099999V0202601N000519999999N9999999N1+00101-00881999999ADDMA1999999085781ME1314009REMSYN060AAXX  06014 06735 43/// /2601 10010 21088 38578 48400 5////;
0096067350999992011010602004+46500+007567FM-12+132099999V0200801N000519999999N9999999N1+00431-00931999999ADDMA1999999085771ME1314009REMSYN060AAXX  06024 06735 43/// /0801 10043 21093 38577 48400 5////;
0096067350999992011010603004+46500+007567FM-12+132099999V0202201N002119999999N9999999N1+00071-00791999999ADDMA1999999085781ME1314009REMSYN060AAXX  06034 06735 43/// /2204 10007 21079 38578 48400 5////;
0096067350999992011010604004+46500+007567FM-12+132099999V0202401N006219999999N9999999N1+00591-00471999999ADDMA1999999085851ME1314089REMSYN060AAXX  06044 06735 43/// /2412 10059 21047 38585 48408 5////;
0096067350999992011010605004+46500+007567FM-12+132099999V0202401N004619999999N9999999N1+00651-00381999999ADDMA1999999085811ME1314059REMSYN060AAXX  06054 06735 43/// /2409 10065 21038 38581 48405 5////;
0278067350999992011010606004+46500+007567FM-12+132099999V0202201N003110240019N0200001N1+00451-00111999999ADDAJ100259199999999AL10600091AY161061AY211061GA1081+024001041GF108991999999022501999999GJ103189IA1279IA2999-00509KA1999N-00211MA1999999085841ME1314079MW1021REMSYN112AAXX  06064 06735 41870 82206 10045 21011 38584 48407 5//// 70261 333 21021 3/105 43025 55053 88458 90768 93100;
0096067350999992011010607004+46500+007567FM-12+132099999V0200601N000519999999N9999999N1+00381-00131999999ADDMA1999999085831ME1314069REMSYN060AAXX  06074 06735 43/// /0601 10038 21013 38583 48406 5////;
0112067350999992011010608004+46500+007567FM-12+132099999V0202201N003619999999N9999999N1+00671-00231999999ADDMA1999999085821ME1314069REMSYN076AAXX  06084 06735 33/// /2207 10067 21023 38582 48406 5//// 333 553// 20054;
0096067350999992011010609004+46500+007567FM-12+132099999V0202201N004619999999N9999999N1+00811-00241999999ADDMA1999999085811ME1314059REMSYN060AAXX  06094 06735 43/// /2209 10081 21024 38581 48405 5////;
0149067350999992011010610004+46500+007567FM-12+132099999V0202101N004619999999N9999999N1+00591-00301999999ADDMA1999999085841MD1210011+9999ME1314079OA149901801REMSYN088AAXX  06104 06735 33/// /2109 10059 21030 38584 48407 52001 333 55304 20554 91135 91217;
0149067350999992011010611004+46500+007567FM-12+132099999V0202401N006219999999N9999999N1+00861-00191999999ADDMA1999999085881MD1210061+9999ME1314129OA149901801REMSYN088AAXX  06114 06735 33/// /2412 10086 21019 38588 48412 52006 333 55302 20742 91135 91217;
0219067350999992011010612004+46500+007567FM-12+132099999V0202401N00721039001CN0250001N1+00891-00161999999ADDGA1041+018001031GA2031+039001001GF106991999999017501999999MA1999999085821MD1010011+9999ME1314069OA149901801REMSYN100AAXX  06124 06735 32775 62414 10089 21016 38582 48406 50001 333 55304 20806 84356 83063 91135 91217;
0149067350999992011010613004+46500+007567FM-12+132099999V0202501N008219999999N9999999N1+00951-00181999999ADDMA1999999085801MD1710041+9999ME1314059OA149901391REMSYN088AAXX  06134 06735 33/// /2516 10095 21018 38580 48405 57004 333 55302 20716 91127 91216;
0096067350999992011010614004+46500+007567FM-12+132099999V0202401N007219999999N9999999N1+00931-00151999999ADDMA1999999085841ME1314089REMSYN060AAXX  06144 06735 43/// /2414 10093 21015 38584 48408 5////;
0096067350999992011010615004+46500+007567FM-12+132099999V0202401N004119999999N9999999N1+00881-00111999999ADDMA1999999085901ME1314149REMSYN060AAXX  06154 06735 43/// /2408 10088 21011 38590 48414 5////;
0149067350999992011010616004+46500+007567FM-12+132099999V0202501N005119999999N9999999N1+00911-00121999999ADDMA1999999085921MD1210121+9999ME1314169OA149901031REMSYN088AAXX  06164 06735 33/// /2510 10091 21012 38592 48416 52012 333 55300 20050 91120 91213;
0149067350999992011010617004+46500+007567FM-12+132099999V0202501N004619999999N9999999N1+00821+00021999999ADDMA1999999085981MD1210141+9999ME1314219OA149901031REMSYN088AAXX  06174 06735 33/// /2509 10082 20002 38598 48421 52014 333 55300 20014 91120 91210;
0318067350999992011010618004+46500+007567FM-12+132099999V0202501N00411012001CN0140001N1+00661+00141999999ADDAA112000021AJ100229199999999AL19900091AY161061AY221061GA1081+012001041GF108991999999012501999999IA1279KA1120M+00961MA1999999086011MD1210111+9999ME1314249MW1621OA149901801REMSYN136AAXX  06184 06735 01664 82508 10066 20014 38601 48424 52011 69922 76262 333 10096 43022 55300 20014 69925 88440 90766 93100 91135 91217;
0155067350999992011010619004+46500+007567FM-12+132099999V0202501N004619999999N9999999N1+00591+00181999999ADDMA1999999086061MD1210141+9999ME1314289OA149900881REMSYN094AAXX  06194 06735 23/// /2509 10059 20018 38606 48428 52014 333 55300 20014 69965 91117 91209;
0155067350999992011010620004+46500+007567FM-12+132099999V0202401N004119999999N9999999N1+00541+00231999999ADDMA1999999086101MD1219999+9999ME1314329OA149900881REMSYN094AAXX  06204 06735 23/// /2408 10054 20023 38610 48432 52/// 333 55300 20011 69955 91117 91209;
0155067350999992011010621004+46500+007567FM-12+132099999V0202501N003619999999N9999999N1+00561+00241999999ADDMA1999999086111MD1219999+9999ME1314339OA149901031REMSYN094AAXX  06214 06735 23/// /2507 10056 20024 38611 48433 52/// 333 55300 20011 69935 91120 91210;
0149067350999992011010622004+46500+007567FM-12+132099999V0202401N004619999999N9999999N1+00611+00211999999ADDMA1999999086141MD1210081+9999ME1314369OA149900771REMSYN088AAXX  06224 06735 33/// /2409 10061 20021 38614 48436 52008 333 55300 20011 91115 91209;
0112067350999992011010623004+46500+007567FM-12+132099999V0202401N005119999999N9999999N1+00621+00201999999ADDMA1999999086191ME1314419REMSYN076AAXX  06234 06735 33/// /2410 10062 20020 38619 48441 5//// 333 553// 20011;
0096067350999992011010700004+46500+007567FM-12+132099999V0202601N004619999999N9999999N1+00711+00161999999ADDMA1999999086221ME1314449REMSYN060AAXX  07004 06735 43/// /2609 10071 20016 38622 48444 5////;
0096067350999992011010701004+46500+007567FM-12+132099999V0202501N003119999999N9999999N1+00651+00151999999ADDMA1999999086211ME1314439REMSYN060AAXX  07014 06735 43/// /2506 10065 20015 38621 48443 5////;
0096067350999992011010702004+46500+007567FM-12+132099999V0202301N004619999999N9999999N1+00801+00091999999ADDMA1999999086241ME1314469REMSYN060AAXX  07024 06735 43/// /2309 10080 20009 38624 48446 5////;
0096067350999992011010703004+46500+007567FM-12+132099999V0202401N003119999999N9999999N1+00601+00301999999ADDMA1999999086291ME1314509REMSYN060AAXX  07034 06735 43/// /2406 10060 20030 38629 48450 5////;
0155067350999992011010704004+46500+007567FM-12+132099999V0202401N004119999999N9999999N1+00631+00261999999ADDMA1999999086301MD1210091+9999ME1314519OA149900981REMSYN094AAXX  07044 06735 23/// /2408 10063 20026 38630 48451 52009 333 55300 20011 69925 91119 91210;
0149067350999992011010705004+46500+007567FM-12+132099999V0200301N002119999999N9999999N1+00471+00241999999ADDMA1999999086281MD1210041+9999ME1314499OA149900771REMSYN088AAXX  07054 06735 33/// /0304 10047 20024 38628 48449 52004 333 55300 20014 91115 91210;
0366067350999992011010706004+46500+007567FM-12+132099999V0202801N00051024001CN0250001N1+00371+00231999999ADDAA112002091AJ100209199999999AL13000291AL29900091AY161061AY221061GA1081+024001041GF108991999999022501999999GJ100789IA1279IA2999+00209KA1999N+00371MA1999999086261MD1710031+9999ME1314469MW1021OA149900981REMSYN154AAXX  07064 06735 01875 82801 10037 20023 38626 48446 57003 60022 70262 333 20037 3/002 43020 55013 55300 20014 60005 70025 88458 90768 93100 91119 91210;
0149067350999992011010707004+46500+007567FM-12+132099999V0209999C000019999999N9999999N1+00351+00231999999ADDMA1999999086271MD1710031+9999ME1314479OA149900511REMSYN088AAXX  07074 06735 33/// /0000 10035 20023 38627 48447 57003 333 55300 20014 91110 91202;
0112067350999992011010708004+46500+007567FM-12+132099999V0202501N001019999999N9999999N1+00361+00201999999ADDMA1999999086301ME1314509REMSYN076AAXX  07084 06735 33/// /2502 10036 20020 38630 48450 5//// 333 553// 20047;
0096067350999992011010709004+46500+007567FM-12+132099999V0202601N001019999999N9999999N1+00521+00261999999ADDMA1999999086311ME1314529REMSYN060AAXX  07094 06735 43/// /2602 10052 20026 38631 48452 5////;
0149067350999992011010710004+46500+007567FM-12+132099999V0209999C000019999999N9999999N1+00561+00251999999ADDMA1999999086301MD1010031+9999ME1314519OA149900361REMSYN088AAXX  07104 06735 33/// /0000 10056 20025 38630 48451 50003 333 55304 20529 91107 91203;
0149067350999992011010711004+46500+007567FM-12+132099999V0201201N000519999999N9999999N1+00691+00231999999ADDMA1999999086291MD1710011+9999ME1314519OA149900621REMSYN088AAXX  07114 06735 33/// /1201 10069 20023 38629 48451 57001 333 553// 20929 91112 91206;
0216067350999992011010712004+46500+007567FM-12+132099999V0202101N001012200019N0350001N1+00731+00231999999ADDGA1041+054001001GF104991999999999999999999MA1999999086311MD1410001+9999ME1314539OA149900981REMSYN094AAXX  07124 06735 32981 42102 10073 20023 38631 48453 53000 333 553// 2//// 84068 91119 91210;EQDQ01+000032APCTEN
0168067350999992011010713004+46500+007567FM-12+132099999V0201401N001019999999N9999999N1+00721+00161999999ADDMA1999999086301MD1410001+9999ME1314529OA149900311REMSYN088AAXX  07134 06735 33/// /1402 10072 20016 38630 48452 52000 333 553// 2//// 91106 91203;EQDQ01+000022APCTEN
0096067350999992011010714004+46500+007567FM-12+132099999V0201501N001019999999N9999999N1+00861+00101999999ADDMA1999999086291ME1314519REMSYN060AAXX  07144 06735 43/// /1502 10086 20010 38629 48451 5////;
0096067350999992011010715004+46500+007567FM-12+132099999V0201901N001019999999N9999999N1+00731+00051999999ADDMA1999999086331ME1314559REMSYN060AAXX  07154 06735 43/// /1902 10073 20005 38633 48455 5////;
0149067350999992011010716004+46500+007567FM-12+132099999V0200801N001019999999N9999999N1+00681+00101999999ADDMA1999999086391MD1210091+9999ME1314609OA149900771REMSYN088AAXX  07164 06735 33/// /0802 10068 20010 38639 48460 52009 333 55300 20061 91115 91204;
0149067350999992011010717004+46500+007567FM-12+132099999V0203301N000519999999N9999999N1+00491+00041999999ADDMA1999999086391MD1210101+9999ME1314599OA149900671REMSYN088AAXX  07174 06735 33/// /3301 10049 20004 38639 48459 52010 333 55300 20014 91113 91203;
0220067350999992011010718004+46500+007567FM-12+132099999V0200201N00101024001CN0300001N1+00731-00131999999ADDAJ100189199999999GA1061+024001031GF106991999999022501999999IA1279KA1120M+01031MA1999999086371ME1314589REMSYN106AAXX  07184 06735 32880 60202 10073 21013 38637 48458 5//// 333 10103 43018 553// 20011 86358 90766 93100;
0149067350999992011010719004+46500+007567FM-12+132099999V0203101N000519999999N9999999N1+00591-00101999999ADDMA1999999086351MD1719999+9999ME1314569OA149900721REMSYN088AAXX  07194 06735 33/// /3101 10059 21010 38635 48456 57/// 333 55300 20018 91114 91208;
0096067350999992011010720004+46500+007567FM-12+132099999V0203401N001019999999N9999999N1+00581-00081999999ADDMA1999999086341ME1314559REMSYN060AAXX  07204 06735 43/// /3402 10058 21008 38634 48455 5////;
0096067350999992011010721004+46500+007567FM-12+132099999V0202401N000519999999N9999999N1+00521-00101999999ADDMA1999999086331ME1314549REMSYN060AAXX  07214 06735 43/// /2401 10052 21010 38633 48454 5////;
0149067350999992011010722004+46500+007567FM-12+132099999V0202801N001019999999N9999999N1+00541-00121999999ADDMA1999999086361MD1210011+9999ME1314569OA149900411REMSYN088AAXX  07224 06735 33/// /2802 10054 21012 38636 48456 52001 333 55300 20014 91108 91203;
0112067350999992011010723004+46500+007567FM-12+132099999V0202501N001519999999N9999999N1+00541-00111999999ADDMA1999999086401ME1314609REMSYN076AAXX  07234 06735 33/// /2503 10054 21011 38640 48460 5//// 333 553// 20014;
0112067350999992011010800004+46500+007567FM-12+132099999V0202501N000519999999N9999999N1+00541-00141999999ADDMA1999999086411ME1314619REMSYN076AAXX  08004 06735 33/// /2501 10054 21014 38641 48461 5//// 333 553// 20014;
0096067350999992011010801004+46500+007567FM-12+132099999V0202801N001519999999N9999999N1+00491-00101999999ADDMA1999999086381ME1314589REMSYN060AAXX  08014 06735 43/// /2803 10049 21010 38638 48458 5////;
0096067350999992011010802004+46500+007567FM-12+132099999V0203101N001019999999N9999999N1+00551-00131999999ADDMA1999999086361ME1314569REMSYN060AAXX  08024 06735 43/// /3102 10055 21013 38636 48456 5////;
0096067350999992011010803004+46500+007567FM-12+132099999V0200601N001019999999N9999999N1+00401-00091999999ADDMA1999999086351ME1314559REMSYN060AAXX  08034 06735 43/// /0602 10040 21009 38635 48455 5////;
0096067350999992011010804004+46500+007567FM-12+132099999V0202501N000519999999N9999999N1+00551-00141999999ADDMA1999999086341ME1314559REMSYN060AAXX  08044 06735 43/// /2501 10055 21014 38634 48455 5////;
0096067350999992011010805004+46500+007567FM-12+132099999V0209999C002119999999N9999999N1+00501-00131999999ADDMA1999999086481ME1314689REMSYN060AAXX  08054 06735 43/// /0004 10050 21013 38648 48468 5////;
0250067350999992011010806004+46500+007567FM-12+132099999V0202501N001010240019N0250001N1+00381-00061999999ADDAJ100189199999999AL10600091GA1071+024001031GF107991999999022501999999GJ102769IA1279IA2999+00209KA1999N+00311MA1999999086511ME1314709REMSYN106AAXX  08064 06735 42875 72502 10038 21006 38651 48470 5//// 333 20031 3/002 43018 55046 87358 90768 93100;
0096067350999992011010807004+46500+007567FM-12+132099999V0209999C000519999999N9999999N1+00321-00061999999ADDMA1999999086481ME1314679REMSYN060AAXX  08074 06735 43/// /0001 10032 21006 38648 48467 5////;
0112067350999992011010808004+46500+007567FM-12+132099999V0202601N001019999999N9999999N1+00391-00031999999ADDMA1999999086491ME1314689REMSYN076AAXX  08084 06735 33/// /2602 10039 21003 38649 48468 5//// 333 553// 20086;
0096067350999992011010809004+46500+007567FM-12+132099999V0200201N002619999999N9999999N1+00481-00061999999ADDMA1999999086461ME1314669REMSYN060AAXX  08094 06735 43/// /0205 10048 21006 38646 48466 5////;
0096067350999992011010810004+46500+007567FM-12+132099999V0200401N001019999999N9999999N1+00501-00041999999ADDMA1999999086491ME1314689REMSYN060AAXX  08104 06735 43/// /0402 10050 21004 38649 48468 5////;
0096067350999992011010811004+46500+007567FM-12+132099999V0201701N001019999999N9999999N1+00641-00021999999ADDMA1999999086501ME1314709REMSYN060AAXX  08114 06735 43/// /1702 10064 21002 38650 48470 5////;
0154067350999992011010812004+46500+007567FM-12+132099999V0202001N002619999999N0350001N1+00991-00341999999ADDGA1011+021001031GF105991999999022501999999MA1999999086441ME1314669REMSYN076AAXX  08124 06735 42881 52005 10099 21034 38644 48466 5//// 333 81357 85071;
0096067350999992011010813004+46500+007567FM-12+132099999V0202301N003619999999N9999999N1+01061-00481999999ADDMA1999999086411ME1314649REMSYN060AAXX  08134 06735 43/// /2307 10106 21048 38641 48464 5////;
0096067350999992011010814004+46500+007567FM-12+132099999V0202301N004119999999N9999999N1+01041-00501999999ADDMA1999999086411ME1314649REMSYN060AAXX  08144 06735 43/// /2308 10104 21050 38641 48464 5////;
0096067350999992011010815004+46500+007567FM-12+132099999V0201801N001019999999N9999999N1+00711-00031999999ADDMA1999999086451ME1314669REMSYN060AAXX  08154 06735 43/// /1802 10071 21003 38645 48466 5////;
0096067350999992011010816004+46500+007567FM-12+132099999V0203101N000519999999N9999999N1+00581-00181999999ADDMA1999999086471ME1314679REMSYN060AAXX  08164 06735 43/// /3101 10058 21018 38647 48467 5////;
0096067350999992011010817004+46500+007567FM-12+132099999V0202801N000519999999N9999999N1+00451-00261999999ADDMA1999999086411ME1314619REMSYN060AAXX  08174 06735 43/// /2801 10045 21026 38641 48461 5////;
0199067350999992011010818004+46500+007567FM-12+132099999V0203401N000512200019N0350001N1+00431-00391999999ADDAJ100179199999999AL10600091GA1011+039001001GF101991999999999999999999IA1279MA1999999086431ME1314629REMSYN088AAXX  08184 06735 42981 13401 10043 21039 38643 48462 5//// 333 43017 81063 90766 93100;
0096067350999992011010819004+46500+007567FM-12+132099999V0202601N001519999999N9999999N1+00411-00361999999ADDMA1999999086441ME1314639REMSYN060AAXX  08194 06735 43/// /2603 10041 21036 38644 48463 5////;
0096067350999992011010820004+46500+007567FM-12+132099999V0203101N000519999999N9999999N1+00271-00331999999ADDMA1999999086421ME1314619REMSYN060AAXX  08204 06735 43/// /3101 10027 21033 38642 48461 5////;
0096067350999992011010821004+46500+007567FM-12+132099999V0200401N001019999999N9999999N1+00461-00391999999ADDMA1999999086371ME1314579REMSYN060AAXX  08214 06735 43/// /0402 10046 21039 38637 48457 5////;
0096067350999992011010822004+46500+007567FM-12+132099999V0202901N000519999999N9999999N1+00511-00411999999ADDMA1999999086381ME1314589REMSYN060AAXX  08224 06735 43/// /2901 10051 21041 38638 48458 5////;
0096067350999992011010823004+46500+007567FM-12+132099999V0202101N000519999999N9999999N1+00481-00411999999ADDMA1999999086331ME1314539REMSYN060AAXX  08234 06735 43/// /2101 10048 21041 38633 48453 5////;
0096067350999992011010900004+46500+007567FM-12+132099999V0209999C000519999999N9999999N1+00571-00461999999ADDMA1999999086361ME1314579REMSYN060AAXX  09004 06735 43/// /0001 10057 21046 38636 48457 5////;
0096067350999992011010901004+46500+007567FM-12+132099999V0200301N001019999999N9999999N1+00421-00431999999ADDMA1999999086351ME1314559REMSYN060AAXX  09014 06735 43/// /0302 10042 21043 38635 48455 5////;
0096067350999992011010902004+46500+007567FM-12+132099999V0200601N002119999999N9999999N1+00401-00491999999ADDMA1999999086331ME1314539REMSYN060AAXX  09024 06735 43/// /0604 10040 21049 38633 48453 5////;
0096067350999992011010903004+46500+007567FM-12+132099999V0200101N002619999999N9999999N1+00381-00491999999ADDMA1999999086301ME1314509REMSYN060AAXX  09034 06735 43/// /0105 10038 21049 38630 48450 5////;
0096067350999992011010904004+46500+007567FM-12+132099999V0202301N001019999999N9999999N1+00361-00471999999ADDMA1999999086331ME1314539REMSYN060AAXX  09044 06735 43/// /2302 10036 21047 38633 48453 5////;
0096067350999992011010905004+46500+007567FM-12+132099999V0202501N001019999999N9999999N1+00401-00441999999ADDMA1999999086281ME1314489REMSYN060AAXX  09054 06735 43/// /2502 10040 21044 38628 48448 5////;
0207067350999992011010906004+46500+007567FM-12+132099999V0202701N001012200019N0300001N1+00401-00451999999ADDAJ100179199999999AL10600091GA1001+999999999GF100991001001999999001001GJ103249IA1279MA1999999086251ME1314459REMSYN088AAXX  09064 06735 42/80 02702 10040 21045 38625 48445 5//// 333 43017 55054 90768 93100;
0096067350999992011010907004+46500+007567FM-12+132099999V0203301N001019999999N9999999N1+00431-00451999999ADDMA1999999086311ME1314519REMSYN060AAXX  09074 06735 43/// /3302 10043 21045 38631 48451 5////;
0112067350999992011010908004+46500+007567FM-12+132099999V0203001N000519999999N9999999N1+00411-00411999999ADDMA1999999086371ME1314579REMSYN076AAXX  09084 06735 33/// /3001 10041 21041 38637 48457 5//// 333 553// 20040;
0112067350999992011010909004+46500+007567FM-12+132099999V0202401N004119999999N9999999N1+00831-00541999999ADDMA1999999086351ME1314579REMSYN076AAXX  09094 06735 33/// /2408 10083 21054 38635 48457 5//// 333 553// 20335;
0149067350999992011010910004+46500+007567FM-12+132099999V0201501N001019999999N9999999N1+00561-00411999999ADDMA1999999086411MD1210101+9999ME1314619OA149900721REMSYN088AAXX  09104 06735 33/// /1502 10056 21041 38641 48461 52010 333 55300 20605 91114 91208;
0149067350999992011010911004+46500+007567FM-12+132099999V0200201N001519999999N9999999N1+00601-00381999999ADDMA1999999086391MD1210021+9999ME1314609OA149900721REMSYN088AAXX  09114 06735 33/// /0203 10060 21038 38639 48460 52002 333 55302 20659 91114 91208;
0149067350999992011010912004+46500+007567FM-12+132099999V0200701N001519999999N9999999N1+00541-00321999999ADDMA1999999086341MD1810011+9999ME1314559OA149900721REMSYN088AAXX  09124 06735 33/// /0703 10054 21032 38634 48455 58001 333 55300 20331 91114 91208;
0149067350999992011010913004+46500+007567FM-12+132099999V0200501N001019999999N9999999N1+00411-00261999999ADDMA1999999086341MD1710071+9999ME1314549OA149900411REMSYN088AAXX  09134 06735 33/// /0502 10041 21026 38634 48454 57007 333 55301 20648 91108 91203;
0096067350999992011010914004+46500+007567FM-12+132099999V0200501N001519999999N9999999N1+00321-00171999999ADDMA1999999086381ME1314579REMSYN060AAXX  09144 06735 43/// /0503 10032 21017 38638 48457 5////;
0096067350999992011010915004+46500+007567FM-12+132099999V0201901N000519999999N9999999N1+00311-00131999999ADDMA1999999086421ME1314619REMSYN060AAXX  09154 06735 43/// /1901 10031 21013 38642 48461 5////;
0149067350999992011010916004+46500+007567FM-12+132099999V0200701N001519999999N9999999N1+00241-00081999999ADDMA1999999086501MD1310161+9999ME1314689OA149900361REMSYN088AAXX  09164 06735 33/// /0703 10024 21008 38650 48468 53016 333 55300 20054 91107 91203;
0149067350999992011010917004+46500+007567FM-12+132099999V0202401N001019999999N9999999N1+00231-00011999999ADDMA1999999086551MD1310171+9999ME1314739OA149900361REMSYN088AAXX  09174 06735 33/// /2402 10023 21001 38655 48473 53017 333 55300 20014 91107 91203;
0318067350999992011010918004+46500+007567FM-12+132099999V0202201N00101003001CN0100001N1+00161+00021999999ADDAA112000021AJ100179199999999AL19900091AY161061AY221061GA1081+003001051GF108991999999004501999999IA1279KA1120M+00831MA1999999086561MD1210141+9999ME1314739MW1601OA149900721REMSYN136AAXX  09184 06735 01460 82202 10016 20002 38656 48473 52014 69912 76062 333 10083 43017 55300 20014 69915 88510 90766 93100 91114 91208;
0155067350999992011010919004+46500+007567FM-12+132099999V0202001N000519999999N9999999N1+00161+00041999999ADDMA1999999086601MD1210101+9999ME1314779OA149900361REMSYN094AAXX  09194 06735 23/// /2001 10016 20004 38660 48477 52010 333 55300 20014 69945 91107 91204;
0155067350999992011010920004+46500+007567FM-12+132099999V0202101N001019999999N9999999N1+00121+00051999999ADDMA1999999086601MD1210051+9999ME1314779OA149900211REMSYN094AAXX  09204 06735 23/// /2102 10012 20005 38660 48477 52005 333 55300 20014 69955 91104 91202;
0155067350999992011010921004+46500+007567FM-12+132099999V0202001N001019999999N9999999N1+00101+00041999999ADDMA1999999086611MD1210051+9999ME1314789OA149900361REMSYN094AAXX  09214 06735 23/// /2002 10010 20004 38661 48478 52005 333 55300 20014 69945 91107 91204;
0155067350999992011010922004+46500+007567FM-12+132099999V0203101N000519999999N9999999N1+00101+00041999999ADDMA1999999086651MD1210051+9999ME1314819OA149900211REMSYN094AAXX  09224 06735 23/// /3101 10010 20004 38665 48481 52005 333 55300 20014 69925 91104 91202;
0155067350999992011010923004+46500+007567FM-12+132099999V0200501N000519999999N9999999N1+00071+00031999999ADDMA1999999086671MD1210071+9999ME1314839OA149900101REMSYN094AAXX  09234 06735 23/// /0501 10007 20003 38667 48483 52007 333 55300 20014 69985 91102 91202;
0172067350999992011011000004+46500+007567FM-12+132099999V0200501N001019999999N9999999N1+00031+00011999999ADDAA106003091MA1999999086681MD1210071+9999ME1314849OA149900411REMSYN100AAXX  10004 06735 03/// /0502 10003 20001 38668 48484 52007 60031 333 55300 20014 69925 91108 91204;
0155067350999992011011001004+46500+007567FM-12+132099999V0200401N000519999999N9999999N1+00001+00001999999ADDMA1999999086691MD1210041+9999ME1314849OA149900211REMSYN094AAXX  10014 06735 23/// /0401 10000 20000 38669 48484 52004 333 55300 20014 69955 91104 91202;
0118067350999992011011002004+46500+007567FM-12+132099999V0209999C000019999999N9999999N1+00011+00001999999ADDMA1999999086711ME1314869REMSYN082AAXX  10024 06735 23/// /0000 10001 20000 38671 48486 5//// 333 553// 20014 69955;
0096067350999992011011003004+46500+007567FM-12+132099999V0200301N000519999999N9999999N1+00001+00001999999ADDMA1999999086711ME1314869REMSYN060AAXX  10034 06735 43/// /0301 10000 20000 38671 48486 5////;
0118067350999992011011004004+46500+007567FM-12+132099999V0209999C000019999999N9999999N1+00021+00001999999ADDMA1999999086701ME1314859REMSYN082AAXX  10044 06735 23/// /0000 10002 20000 38670 48485 5//// 333 553// 20014 69915;
0155067350999992011011005004+46500+007567FM-12+132099999V0201201N000519999999N9999999N1+00001+00001999999ADDMA1999999086691MD1819999+9999ME1314849OA149900101REMSYN094AAXX  10054 06735 23/// /1201 10000 20000 38669 48484 58/// 333 55300 20014 69925 91102 91201;
0295067350999992011011006004+46500+007567FM-12+132099999V0200701N000510009019N0020001N1+00011+00001999999ADDAA124004391AJ100179199999999AL11200491AY171061AY261061GA1081+000901071GF108991999999000751999999GJ100189IA1279IA2999+00009KA1999N-00011MA1999999086711ME1314869MW1681REMSYN118AAXX  10064 06735 41120 80701 10001 20000 38671 48486 5//// 76876 333 21001 3/100 43017 55003 70042 88703 90768 93101;
0155067350999992011011007004+46500+007567FM-12+132099999V0201001N000519999999N9999999N1-00011-00011999999ADDMA1999999086741MD1310041+9999ME1314899OA149900151REMSYN094AAXX  10074 06735 23/// /1001 11001 21001 38674 48489 53004 333 55300 20014 69915 91103 91202;
0096067350999992011011008004+46500+007567FM-12+132099999V0201301N000519999999N9999999N1+00001+00001999999ADDMA1999999086751ME1314909REMSYN060AAXX  10084 06735 43/// /1301 10000 20000 38675 48490 5////;
0096067350999992011011009004+46500+007567FM-12+132099999V0202201N000519999999N9999999N1+00021-00011999999ADDMA1999999086741ME1314899REMSYN060AAXX  10094 06735 43/// /2201 10002 21001 38674 48489 5////;
0149067350999992011011010004+46500+007567FM-12+132099999V0200601N001519999999N9999999N1+00071+00031999999ADDMA1999999086761MD1210021+9999ME1314919OA149900311REMSYN088AAXX  10104 06735 33/// /0603 10007 20003 38676 48491 52002 333 55300 20428 91106 91203;
0149067350999992011011011004+46500+007567FM-12+132099999V0200601N001519999999N9999999N1+00011+00011999999ADDMA1999999086751MD1410001+9999ME1314909OA149900311REMSYN088AAXX  10114 06735 33/// /0603 10001 20001 38675 48490 54/// 333 55300 20490 91106 91203;
0217067350999992011011012004+46500+007567FM-12+132099999V0201501N000519999999N0150001N1+00071-00011999999ADDAA106000021AY171061AY241061GA1041+003301071GF107991999999004501999999MA1999999086681ME1314849MW1011REMSYN106AAXX  10124 06735 01465 71501 10007 21001 38668 48484 5//// 69921 70174 333 553// 20828 60005 84711 83361;
0096067350999992011011013004+46500+007567FM-12+132099999V0209999C000019999999N9999999N1+00121+00021999999ADDMA1999999086631ME1314799REMSYN060AAXX  10134 06735 43/// /0000 10012 20002 38663 48479 5////;
0096067350999992011011014004+46500+007567FM-12+132099999V0200601N002119999999N9999999N1+00081+00051999999ADDMA1999999086591ME1314769REMSYN060AAXX  10144 06735 43/// /0604 10008 20005 38659 48476 5////;
0096067350999992011011015004+46500+007567FM-12+132099999V0202201N000519999999N9999999N1+00041-00011999999ADDMA1999999086581ME1314749REMSYN060AAXX  10154 06735 43/// /2201 10004 21001 38658 48474 5////;
0096067350999992011011016004+46500+007567FM-12+132099999V0201401N001019999999N9999999N1+00031-00011999999ADDMA1999999086561ME1314729REMSYN060AAXX  10164 06735 43/// /1402 10003 21001 38656 48472 5////;
0096067350999992011011017004+46500+007567FM-12+132099999V0201701N001019999999N9999999N1-00041-00061999999ADDMA1999999086531ME1314699REMSYN060AAXX  10174 06735 43/// /1702 11004 21006 38653 48469 5////;
0246067350999992011011018004+46500+007567FM-12+132099999V0201601N000510018019N0080001N1-00111-00111999999ADDAJ100159199999999AL10600091AY121061AY221061GA1081+001801071GF108991999999001501999999IA1279KA1120M+00191MA1999999086501ME1314669MW1101REMSYN100AAXX  10184 06735 41258 81601 11011 21011 38650 48466 5//// 71022 333 10019 43015 88706 90766 93100;
0096067350999992011011019004+46500+007567FM-12+132099999V0201801N001019999999N9999999N1-00131-00131999999ADDMA1999999086511ME1314679REMSYN060AAXX  10194 06735 43/// /1802 11013 21013 38651 48467 5////;
0096067350999992011011020004+46500+007567FM-12+132099999V0202901N000519999999N9999999N1-00201-00231999999ADDMA1999999086471ME1314639REMSYN060AAXX  10204 06735 43/// /2901 11020 21023 38647 48463 5////;
0096067350999992011011021004+46500+007567FM-12+132099999V0200701N001019999999N9999999N1-00231-00261999999ADDMA1999999086491ME1314659REMSYN060AAXX  10214 06735 43/// /0702 11023 21026 38649 48465 5////;
0096067350999992011011022004+46500+007567FM-12+132099999V0202101N000519999999N9999999N1-00361-00361999999ADDMA1999999086471ME1314629REMSYN060AAXX  10224 06735 43/// /2101 11036 21036 38647 48462 5////;
0096067350999992011011023004+46500+007567FM-12+132099999V0209999C000019999999N9999999N1-00251-00351999999ADDMA1999999086441ME1314609REMSYN060AAXX  10234 06735 43/// /0000 11025 21035 38644 48460 5////;
0096067350999992011011100004+46500+007567FM-12+132099999V0202301N001019999999N9999999N1-00261-00401999999ADDMA1999999086391ME1314559REMSYN060AAXX  11004 06735 43/// /2302 11026 21040 38639 48455 5////;
0096067350999992011011101004+46500+007567FM-12+132099999V0203201N000519999999N9999999N1-00241-00391999999ADDMA1999999086341ME1314519REMSYN060AAXX  11014 06735 43/// /3201 11024 21039 38634 48451 5////;
0096067350999992011011102004+46500+007567FM-12+132099999V0209999C000019999999N9999999N1-00291-00451999999ADDMA1999999086331ME1314509REMSYN060AAXX  11024 06735 43/// /0000 11029 21045 38633 48450 5////;
0096067350999992011011103004+46500+007567FM-12+132099999V0203401N000519999999N9999999N1-00241-00401999999ADDMA1999999086291ME1314469REMSYN060AAXX  11034 06735 43/// /3401 11024 21040 38629 48446 5////;
0096067350999992011011104004+46500+007567FM-12+132099999V0202301N000519999999N9999999N1-00271-00421999999ADDMA1999999086241ME1314429REMSYN060AAXX  11044 06735 43/// /2301 11027 21042 38624 48442 5////;
0096067350999992011011105004+46500+007567FM-12+132099999V0202701N000519999999N9999999N1-00231-00441999999ADDMA1999999086201ME1314389REMSYN060AAXX  11054 06735 43/// /2701 11023 21044 38620 48438 5////;
0207067350999992011011106004+46500+007567FM-12+132099999V0203501N001012200019N0350001N1-00331-00581999999ADDAJ100159199999999AL10600091GA1001+999999999GF100991001001999999001001GJ100009IA1279MA1999999086151ME1314339REMSYN088AAXX  11064 06735 42/81 03502 11033 21058 38615 48433 5//// 333 43015 55000 90768 93100;
0149067350999992011011107004+46500+007567FM-12+132099999V0200201N001019999999N9999999N1-00301-00551999999ADDMA1999999086121MD1619999+9999ME1314309OA149900311REMSYN088AAXX  11074 06735 33/// /0202 11030 21055 38612 48430 56/// 333 55300 20014 91106 91203;
0112067350999992011011108004+46500+007567FM-12+132099999V0203201N001019999999N9999999N1-00251-00591999999ADDMA1999999086121ME1314319REMSYN076AAXX  11084 06735 33/// /3202 11025 21059 38612 48431 5//// 333 553// 20036;
0096067350999992011011109004+46500+007567FM-12+132099999V0203001N000519999999N9999999N1-00161-00581999999ADDMA1999999086081ME1314279REMSYN060AAXX  11094 06735 43/// /3001 11016 21058 38608 48427 5////;
0149067350999992011011110004+46500+007567FM-12+132099999V0202201N001019999999N9999999N1+00041-00661999999ADDMA1999999086041MD1710081+9999ME1314249OA149900411REMSYN088AAXX  11104 06735 33/// /2202 10004 21066 38604 48424 57008 333 55304 20533 91108 91204;
0149067350999992011011111004+46500+007567FM-12+132099999V0202401N000519999999N9999999N1+00311-00871999999ADDMA1999999085951MD1710171+9999ME1314179OA149900411REMSYN088AAXX  11114 06735 33/// /2401 10031 21087 38595 48417 57017 333 55303 20986 91108 91204;
0144067350999992011011112004+46500+007567FM-12+132099999V0200801N000519999999N0180001N1+00041-00441999999ADDGF108991999999022501999999MA1999999085911ME1314129REMSYN082AAXX  11124 06735 32868 80801 10004 21044 38591 48412 5//// 333 553// 20720 88457;
0149067350999992011011113004+46500+007567FM-12+132099999V0202301N000519999999N9999999N1+00061-00551999999ADDMA1999999085901MD1710141+9999ME1314119OA149900361REMSYN088AAXX  11134 06735 33/// /2301 10006 21055 38590 48411 57014 333 55300 20392 91107 91203;
0096067350999992011011114004+46500+007567FM-12+132099999V0200401N001519999999N9999999N1+00051-00251999999ADDMA1999999085981ME1314199REMSYN060AAXX  11144 06735 43/// /0403 10005 21025 38598 48419 5////;
0096067350999992011011115004+46500+007567FM-12+132099999V0201901N000519999999N9999999N1-00031-00071999999ADDMA1999999086051ME1314259REMSYN060AAXX  11154 06735 43/// /1901 11003 21007 38605 48425 5////;
0155067350999992011011116004+46500+007567FM-12+132099999V0203201N000519999999N9999999N1+00041-00051999999ADDMA1999999086101MD1110201+9999ME1314309OA149900621REMSYN094AAXX  11164 06735 23/// /3201 10004 21005 38610 48430 51020 333 55300 20065 69965 91112 91204;
0149067350999992011011117004+46500+007567FM-12+132099999V0202301N003619999999N9999999N1+00181-00131999999ADDMA1999999086181MD1310201+9999ME1314389OA149900671REMSYN088AAXX  11174 06735 33/// /2307 10018 21013 38618 48438 53020 333 55300 20018 91113 91207;
0318067350999992011011118004+46500+007567FM-12+132099999V0202601N00211018001CN0180001N1+00201-00211999999ADDAA112001091AJ100159199999999AL19900091AY171061AY221061GA1061+018001071GF106991999999017501999999IA1279KA1120M+00411MA1999999086261MD1310211+9999ME1314459MW1011OA149900821REMSYN136AAXX  11184 06735 01768 62604 10020 21021 38626 48445 53021 60012 70172 333 10041 43015 55300 20014 60005 86756 90766 93100 91116 91209;
0149067350999992011011119004+46500+007567FM-12+132099999V0202601N001519999999N9999999N1+00151-00211999999ADDMA1999999086311MD1110211+9999ME1314509OA149900671REMSYN088AAXX  11194 06735 33/// /2603 10015 21021 38631 48450 51021 333 55300 20014 91113 91206;
0149067350999992011011120004+46500+007567FM-12+132099999V0201201N000519999999N9999999N1-00081-00081999999ADDMA1999999086401MD1310221+9999ME1314579OA149900571REMSYN088AAXX  11204 06735 33/// /1201 11008 21008 38640 48457 53022 333 55300 20018 91111 91206;
0155067350999992011011121004+46500+007567FM-12+132099999V0202501N000519999999N9999999N1-00061-00111999999ADDMA1999999086481MD1310221+9999ME1314659OA149900671REMSYN094AAXX  11214 06735 23/// /2501 11006 21011 38648 48465 53022 333 55300 20014 69935 91113 91207;
0155067350999992011011122004+46500+007567FM-12+132099999V0209999C000019999999N9999999N1-00061-00081999999ADDMA1999999086591MD1210281+9999ME1314759OA149900211REMSYN094AAXX  11224 06735 23/// /0000 11006 21008 38659 48475 52028 333 55300 20014 69925 91104 91202;
0155067350999992011011123004+46500+007567FM-12+132099999V0202701N000519999999N9999999N1-00021-00081999999ADDMA1999999086661MD1310261+9999ME1314819OA149900211REMSYN094AAXX  11234 06735 23/// /2701 11002 21008 38666 48481 53026 333 55300 20014 69925 91104 91202;
0172067350999992011011200004+46500+007567FM-12+132099999V0202401N001519999999N9999999N1-00031-00181999999ADDAA106000891MA1999999086691MD1110211+9999ME1314849OA149900821REMSYN100AAXX  12004 06735 03/// /2403 11003 21018 38669 48484 51021 69981 333 55300 20014 69915 91116 91209;
0149067350999992011011201004+46500+007567FM-12+132099999V0202801N001519999999N9999999N1-00041-00141999999ADDMA1999999086691MD1210101+9999ME1314849OA149900361REMSYN088AAXX  12014 06735 33/// /2803 11004 21014 38669 48484 52010 333 55300 20014 91107 91203;
0112067350999992011011202004+46500+007567FM-12+132099999V0202801N002119999999N9999999N1+00011-00161999999ADDMA1999999086761ME1314919REMSYN076AAXX  12024 06735 33/// /2804 10001 21016 38676 48491 5//// 333 553// 20011;
0096067350999992011011203004+46500+007567FM-12+132099999V0203001N000519999999N9999999N1+00101-00191999999ADDMA1999999086871ME1315029REMSYN060AAXX  12034 06735 43/// /3001 10010 21019 38687 48502 5////;
0096067350999992011011204004+46500+007567FM-12+132099999V0202501N001019999999N9999999N1-00071-00211999999ADDMA1999999086861ME1314999REMSYN060AAXX  12044 06735 43/// /2502 11007 21021 38686 48499 5////;
0112067350999992011011205004+46500+007567FM-12+132099999V0202501N003619999999N9999999N1+00161-00271999999ADDMA1999999086901ME1315059REMSYN076AAXX  12054 06735 33/// /2507 10016 21027 38690 48505 5//// 333 553// 20014;
0295067350999992011011206004+46500+007567FM-12+132099999V0202701N003110240019N0200001N1+00181-00321999999ADDAA124001891AJ100169199999999AL14800191AY171061AY221061GA1071+024001031GF107991999999022501999999GJ100489IA1279IA2999-00409KA1999N-00101MA1999999086991ME1315139MW1021REMSYN118AAXX  12064 06735 41870 72706 10018 21032 38699 48513 5//// 70272 333 21010 3/104 43016 55008 70019 87358 90768 93102;
0149067350999992011011207004+46500+007567FM-12+132099999V0200101N000519999999N9999999N1+00041-00241999999ADDMA1999999086961MD1010101+9999ME1315099OA149900721REMSYN088AAXX  12074 06735 33/// /0101 10004 21024 38696 48509 50010 333 55300 20018 91114 91207;
0096067350999992011011208004+46500+007567FM-12+132099999V0200901N000519999999N9999999N1-00081-00131999999ADDMA1999999087041ME1315169REMSYN060AAXX  12084 06735 43/// /0901 11008 21013 38704 48516 5////;
0096067350999992011011209004+46500+007567FM-12+132099999V0200401N000519999999N9999999N1-00011-00111999999ADDMA1999999087021ME1315159REMSYN060AAXX  12094 06735 43/// /0401 11001 21011 38702 48515 5////;
0149067350999992011011210004+46500+007567FM-12+132099999V0200501N001019999999N9999999N1+00071-00111999999ADDMA1999999087041MD1019999+9999ME1315179OA149900261REMSYN088AAXX  12104 06735 33/// /0502 10007 21011 38704 48517 50/// 333 55300 20288 91105 91202;
0126067350999992011011211004+46500+007567FM-12+132099999V0200901N001019999999N9999999N1+00101-00091999999ADDMA1999999087051MD1210011+9999ME1315189REMSYN076AAXX  12114 06735 33/// /0902 10010 21009 38705 48518 52001 333 55301 20882;
0148067350999992011011212004+46500+007567FM-12+132099999V0201901N000510210019N0200001N1+00111-00071999999ADDGA1081+021001041GF108991999999022501999999MA1999999087041ME1315179REMSYN070AAXX  12124 06735 42870 81901 10011 21007 38704 48517 5//// 333 88457;
0096067350999992011011213004+46500+007567FM-12+132099999V0202301N004119999999N9999999N1+00551-00751999999ADDMA1999999087011ME1315189REMSYN060AAXX  12134 06735 43/// /2308 10055 21075 38701 48518 5////;
0096067350999992011011214004+46500+007567FM-12+132099999V0202301N004119999999N9999999N1+00441-00641999999ADDMA1999999087051ME1315219REMSYN060AAXX  12144 06735 43/// /2308 10044 21064 38705 48521 5////;
0096067350999992011011215004+46500+007567FM-12+132099999V0202401N004119999999N9999999N1+00211-00221999999ADDMA1999999087101ME1315249REMSYN060AAXX  12154 06735 43/// /2408 10021 21022 38710 48524 5////;
0155067350999992011011216004+46500+007567FM-12+132099999V0201101N000519999999N9999999N1+00111-00011999999ADDMA1999999087101MD1210091+9999ME1315239OA149900821REMSYN094AAXX  12164 06735 23/// /1101 10011 21001 38710 48523 52009 333 55300 20040 69965 91116 91208;
0155067350999992011011217004+46500+007567FM-12+132099999V0200101N001019999999N9999999N1+00111+00021999999ADDMA1999999087141MD1210091+9999ME1315269OA149900621REMSYN094AAXX  12174 06735 23/// /0102 10011 20002 38714 48526 52009 333 55300 20014 69915 91112 91206;
0318067350999992011011218004+46500+007567FM-12+132099999V0202501N00311007801CN0100001N1+00421+00251999999ADDAA112002091AJ100159199999999AL19900091AY161061AY221061GA1081+007801051GF108991999999008001999999IA1279KA1120M+00551MA1999999087121MD1210021+9999ME1315279MW1621OA149900881REMSYN136AAXX  12184 06735 01560 82506 10042 20025 38712 48527 52002 60022 76262 333 10055 43015 55300 20011 69985 88526 90766 93100 91117 91208;
0155067350999992011011219004+46500+007567FM-12+132099999V0202401N004119999999N9999999N1+00481+00221999999ADDMA1999999087171MD1210071+9999ME1315329OA149900771REMSYN094AAXX  12194 06735 23/// /2408 10048 20022 38717 48532 52007 333 55300 20011 69995 91115 91208;
0155067350999992011011220004+46500+007567FM-12+132099999V0202601N003119999999N9999999N1+00511+00251999999ADDMA1999999087191MD1210051+9999ME1315349OA149900771REMSYN094AAXX  12204 06735 23/// /2606 10051 20025 38719 48534 52005 333 55300 20011 69945 91115 91208;
0155067350999992011011221004+46500+007567FM-12+132099999V0202501N003119999999N9999999N1+00461+00221999999ADDMA1999999087201MD1210081+9999ME1315359OA149900771REMSYN094AAXX  12214 06735 23/// /2506 10046 20022 38720 48535 52008 333 55300 20011 69955 91115 91208;
0155067350999992011011222004+46500+007567FM-12+132099999V0202601N004619999999N9999999N1+00531+00201999999ADDMA1999999087181MD1010011+9999ME1315339OA149900771REMSYN094AAXX  12224 06735 23/// /2609 10053 20020 38718 48533 50001 333 55300 20011 69915 91115 91209;
0155067350999992011011223004+46500+007567FM-12+132099999V0202501N003619999999N9999999N1+00521+00251999999ADDMA1999999087191MD1010001+9999ME1315349OA149900771REMSYN094AAXX  12234 06735 23/// /2507 10052 20025 38719 48534 50000 333 55300 20011 69935 91115 91209;
0172067350999992011011300004+46500+007567FM-12+132099999V0202601N003619999999N9999999N1+00551+00231999999ADDAA106003091MA1999999087191MD1010011+9999ME1315349OA149900881REMSYN100AAXX  13004 06735 03/// /2607 10055 20023 38719 48534 50001 60031 333 55300 20011 69955 91117 91209;
0155067350999992011011301004+46500+007567FM-12+132099999V0202401N004119999999N9999999N1+00521+00231999999ADDMA1999999087181MD1010001+9999ME1315339OA149900931REMSYN094AAXX  13014 06735 23/// /2408 10052 20023 38718 48533 50000 333 55300 20011 69945 91118 91209;
0155067350999992011011302004+46500+007567FM-12+132099999V0202501N005119999999N9999999N1+00481+00211999999ADDMA1999999087201MD1319999+9999ME1315359OA149900931REMSYN094AAXX  13024 06735 23/// /2510 10048 20021 38720 48535 53/// 333 55300 20014 60015 91118 91210;
0096067350999992011011303004+46500+007567FM-12+132099999V0202501N002619999999N9999999N1+00511+00251999999ADDMA1999999087191ME1315349REMSYN060AAXX  13034 06735 43/// /2505 10051 20025 38719 48534 5////;
0155067350999992011011304004+46500+007567FM-12+132099999V0202401N002119999999N9999999N1+00501+00301999999ADDMA1999999087141MD1819999+9999ME1315299OA149900881REMSYN094AAXX  13044 06735 23/// /2404 10050 20030 38714 48529 58/// 333 55300 20011 69955 91117 91210;
0118067350999992011011305004+46500+007567FM-12+132099999V0202501N004619999999N9999999N1+00551+00301999999ADDMA1999999087151ME1315319REMSYN082AAXX  13054 06735 23/// /2509 10055 20030 38715 48531 5//// 333 553// 20011 60015;
0366067350999992011011306004+46500+007567FM-12+132099999V0202301N00411009901CN0100001N1+00591+00331999999ADDAA112007191AJ100159199999999AL11200891AL29900091AY161061AY221061GA1081+009901051GF108991999999008001999999GJ100069IA1279IA2999+00209KA1999N+00411MA1999999087171MD1510021+9999ME1315339MW1631OA149900931REMSYN154AAXX  13064 06735 01560 82308 10059 20033 38717 48533 55002 60072 76362 333 20041 3/002 43015 55001 55300 20014 69945 70082 88533 90768 93100 91118 91210;
0096067350999992011011307004+46500+007567FM-12+132099999V0202601N002119999999N9999999N1+00611+00381999999ADDMA1999999087181ME1315349REMSYN060AAXX  13074 06735 43/// /2604 10061 20038 38718 48534 5////;
0096067350999992011011308004+46500+007567FM-12+132099999V0202401N003619999999N9999999N1+00631+00381999999ADDMA1999999087231ME1315399REMSYN060AAXX  13084 06735 43/// /2407 10063 20038 38723 48539 5////;
0096067350999992011011309004+46500+007567FM-12+132099999V0202701N004619999999N9999999N1+00781+00271999999ADDMA1999999087161ME1315339REMSYN060AAXX  13094 06735 43/// /2709 10078 20027 38716 48533 5////;
0096067350999992011011310004+46500+007567FM-12+132099999V0202001N000519999999N9999999N1+00681+00401999999ADDMA1999999087161ME1315339REMSYN060AAXX  13104 06735 43/// /2001 10068 20040 38716 48533 5////;
0096067350999992011011311004+46500+007567FM-12+132099999V0201501N000519999999N9999999N1+00471+00421999999ADDMA1999999087221ME1315379REMSYN060AAXX  13114 06735 43/// /1501 10047 20042 38722 48537 5////;
0154067350999992011011312004+46500+007567FM-12+132099999V0202401N001519999999N0200001N1+00811+00361999999ADDGA1041+024001031GF107991999999022501999999MA1999999087141ME1315329REMSYN076AAXX  13124 06735 42870 72403 10081 20036 38714 48532 5//// 333 84358 85462;
0096067350999992011011313004+46500+007567FM-12+132099999V0202401N003119999999N9999999N1+00971+00011999999ADDMA1999999087091ME1315289REMSYN060AAXX  13134 06735 43/// /2406 10097 20001 38709 48528 5////;
0096067350999992011011314004+46500+007567FM-12+132099999V0202001N002119999999N9999999N1+00941+00041999999ADDMA1999999087121ME1315319REMSYN060AAXX  13144 06735 43/// /2004 10094 20004 38712 48531 5////;
0096067350999992011011315004+46500+007567FM-12+132099999V0202301N003619999999N9999999N1+00831+00161999999ADDMA1999999087171ME1315359REMSYN060AAXX  13154 06735 43/// /2307 10083 20016 38717 48535 5////;
0096067350999992011011316004+46500+007567FM-12+132099999V0202701N002619999999N9999999N1+00721+00131999999ADDMA1999999087201ME1315379REMSYN060AAXX  13164 06735 43/// /2705 10072 20013 38720 48537 5////;
0149067350999992011011317004+46500+007567FM-12+132099999V0202401N003619999999N9999999N1+00701+00131999999ADDMA1999999087181MD1210061+9999ME1315359OA149900771REMSYN088AAXX  13174 06735 33/// /2407 10070 20013 38718 48535 52006 333 55300 20014 91115 91209;
0302067350999992011011318004+46500+007567FM-12+132099999V0202401N00311018001CN0250001N1+00721+00141999999ADDAJ199992999999999AL19900091GA1071+018001061GF107991999999017501999999IA1279KA1120M+00971MA1999999087171MD1410001+9999ME1315349OA149900771REMSYN118AAXX  13184 06735 32775 72406 10072 20014 38717 48534 57000 333 10097 43998 55300 20014 87656 90766 93100 91115 91209;EQDQ01+000072APCTENQ02  09982SNDP  
0149067350999992011011319004+46500+007567FM-12+132099999V0202701N003619999999N9999999N1+00761+00191999999ADDMA1999999087171MD1710031+9999ME1315349OA149900721REMSYN088AAXX  13194 06735 33/// /2707 10076 20019 38717 48534 57003 333 55300 20011 91114 91208;
0149067350999992011011320004+46500+007567FM-12+132099999V0202901N001519999999N9999999N1+00511+00181999999ADDMA1999999087151MD1710031+9999ME1315309OA149900721REMSYN088AAXX  13204 06735 33/// /2903 10051 20018 38715 48530 57003 333 55300 20014 91114 91207;
0149067350999992011011321004+46500+007567FM-12+132099999V0202701N000519999999N9999999N1+00461+00111999999ADDMA1999999087131MD1710041+9999ME1315289OA149900771REMSYN088AAXX  13214 06735 33/// /2701 10046 20011 38713 48528 57004 333 55300 20014 91115 91209;
0149067350999992011011322004+46500+007567FM-12+132099999V0202801N000519999999N9999999N1+00371+00091999999ADDMA1999999087091MD1710081+9999ME1315249OA149900411REMSYN088AAXX  13224 06735 33/// /2801 10037 20009 38709 48524 57008 333 55300 20014 91108 91204;
0149067350999992011011323004+46500+007567FM-12+132099999V0200201N001019999999N9999999N1+00371+00041999999ADDMA1999999087101MD1710051+9999ME1315259OA149900411REMSYN088AAXX  13234 06735 33/// /0202 10037 20004 38710 48525 57005 333 55300 20014 91108 91204;
0149067350999992011011400004+46500+007567FM-12+132099999V0202701N000519999999N9999999N1+00361+00021999999ADDMA1999999087101MD1710031+9999ME1315259OA149900771REMSYN088AAXX  14004 06735 33/// /2701 10036 20002 38710 48525 57003 333 55300 20014 91115 91209;
0149067350999992011011401004+46500+007567FM-12+132099999V0200401N000519999999N9999999N1+00331-00021999999ADDMA1999999087111MD1210021+9999ME1315259OA149900211REMSYN088AAXX  14014 06735 33/// /0401 10033 21002 38711 48525 52002 333 55300 20014 91104 91203;
0112067350999992011011402004+46500+007567FM-12+132099999V0202501N000519999999N9999999N1+00321+00001999999ADDMA1999999087141ME1315289REMSYN076AAXX  14024 06735 33/// /2501 10032 20000 38714 48528 5//// 333 553// 20014;
0149067350999992011011403004+46500+007567FM-12+132099999V0202601N000519999999N9999999N1+00301+00081999999ADDMA1999999087151MD1210051+9999ME1315299OA149900411REMSYN088AAXX  14034 06735 33/// /2601 10030 20008 38715 48529 52005 333 55300 20014 91108 91204;
0149067350999992011011404004+46500+007567FM-12+132099999V0200201N000519999999N9999999N1+00171+00011999999ADDMA1999999087131MD1010021+9999ME1315269OA149900151REMSYN088AAXX  14044 06735 33/// /0201 10017 20001 38713 48526 50002 333 55300 20014 91103 91201;
0149067350999992011011405004+46500+007567FM-12+132099999V0202101N000519999999N9999999N1+00161+00011999999ADDMA1999999087101MD1810041+9999ME1315239OA149900151REMSYN088AAXX  14054 06735 33/// /2101 10016 20001 38710 48523 58004 333 55300 20014 91103 91201;
0305067350999992011011406004+46500+007567FM-12+132099999V0200501N00101003001CN0200001N1+00061-00031999999ADDAJ100159199999999AL19900091GA1051+003001071GF105991999999004501999999GJ100429IA1279IA2999-00109KA1999N+00081MA1999999087121MD1510031+9999ME1315249OA149900721REMSYN136AAXX  14064 06735 32470 50502 10006 21003 38712 48524 55003 333 20008 3/101 43015 55007 55300 20014 70000 85710 90768 93100 91114 91207;
0149067350999992011011407004+46500+007567FM-12+132099999V0202501N000519999999N9999999N1+00031-00041999999ADDMA1999999087161MD1310031+9999ME1315289OA149900311REMSYN088AAXX  14074 06735 33/// /2501 10003 21004 38716 48528 53003 333 55300 20014 91106 91204;
0096067350999992011011408004+46500+007567FM-12+132099999V0201801N000519999999N9999999N1+00081+00021999999ADDMA1999999087111ME1315239REMSYN060AAXX  14084 06735 43/// /1801 10008 20002 38711 48523 5////;
0096067350999992011011409004+46500+007567FM-12+132099999V0202001N000519999999N9999999N1+00021+00001999999ADDMA1999999087121ME1315249REMSYN060AAXX  14094 06735 43/// /2001 10002 20000 38712 48524 5////;
0096067350999992011011410004+46500+007567FM-12+132099999V0202201N000519999999N9999999N1+00041+00011999999ADDMA1999999087051ME1315189REMSYN060AAXX  14104 06735 43/// /2201 10004 20001 38705 48518 5////;
0149067350999992011011411004+46500+007567FM-12+132099999V0201401N001019999999N9999999N1+00241+00051999999ADDMA1999999087021MD1710091+9999ME1315169OA149900151REMSYN088AAXX  14114 06735 33/// /1402 10024 20005 38702 48516 57009 333 553// 2//// 91103 91203;
0197067350999992011011412004+46500+007567FM-12+132099999V0201501N00101054001CN0350001N1+00411+00131999999ADDGA1071+054001001GF107991999999999999999999MA1999999087001MD1710121+9999ME1315169OA149900311REMSYN094AAXX  14124 06735 32981 71502 10041 20013 38700 48516 57012 333 553// 2//// 87068 91106 91204;
0149067350999992011011413004+46500+007567FM-12+132099999V0201601N001019999999N9999999N1+00501+00081999999ADDMA1999999086971MD1710081+9999ME1315149OA149900261REMSYN088AAXX  14134 06735 33/// /1602 10050 20008 38697 48514 57008 333 553// 2//// 91105 91203;
0112067350999992011011414004+46500+007567FM-12+132099999V0201201N001019999999N9999999N1+00551+00061999999ADDMA1999999086941ME1315119REMSYN076AAXX  14144 06735 33/// /1202 10055 20006 38694 48511 5//// 333 553// 2////;
0149067350999992011011415004+46500+007567FM-12+132099999V0201001N001019999999N9999999N1+00401+00071999999ADDMA1999999086981MD1510021+9999ME1315149OA149900261REMSYN088AAXX  14154 06735 33/// /1002 10040 20007 38698 48514 55002 333 55307 20515 91105 91203;
0149067350999992011011416004+46500+007567FM-12+132099999V0203601N000519999999N9999999N1+00351+00091999999ADDMA1999999086961MD1510011+9999ME1315129OA149900211REMSYN088AAXX  14164 06735 33/// /3601 10035 20009 38696 48512 55001 333 55300 20140 91104 91203;
0149067350999992011011417004+46500+007567FM-12+132099999V0209999C000019999999N9999999N1+00301-00121999999ADDMA1999999086931MD1010011+9999ME1315089OA149900211REMSYN088AAXX  14174 06735 33/// /0000 10030 21012 38693 48508 50001 333 55300 20014 91104 91203;
0267067350999992011011418004+46500+007567FM-12+132099999V0202401N004612200019N0300001N1+00571-00681999999ADDAJ100119199999999AL19900091GA1031+024001031GF103991999999022501999999IA1279KA1120M+00911MA1999999086881MD1710101+9999ME1315069OA149900881REMSYN118AAXX  14184 06735 32880 32409 10057 21068 38688 48506 57010 333 10091 43011 55300 20007 83358 90766 93100 91117 91210;
0149067350999992011011419004+46500+007567FM-12+132099999V0201901N000519999999N9999999N1+00281-00491999999ADDMA1999999086911MD1710051+9999ME1315069OA149900881REMSYN088AAXX  14194 06735 33/// /1901 10028 21049 38691 48506 57005 333 55300 20018 91117 91210;
0149067350999992011011420004+46500+007567FM-12+132099999V0202201N001019999999N9999999N1+00321-00461999999ADDMA1999999086881MD1510051+9999ME1315049OA149900621REMSYN088AAXX  14204 06735 33/// /2202 10032 21046 38688 48504 55005 333 55300 20014 91112 91206;
0149067350999992011011421004+46500+007567FM-12+132099999V0202701N000519999999N9999999N1+00231-00351999999ADDMA1999999086941MD1210061+9999ME1315099OA149900881REMSYN088AAXX  14214 06735 33/// /2701 10023 21035 38694 48509 52006 333 55300 20014 91117 91210;
0149067350999992011011422004+46500+007567FM-12+132099999V0202501N001519999999N9999999N1+00171-00281999999ADDMA1999999087001MD1210091+9999ME1315149OA149900621REMSYN088AAXX  14224 06735 33/// /2503 10017 21028 38700 48514 52009 333 55300 20011 91112 91204;
0149067350999992011011423004+46500+007567FM-12+132099999V0202501N004119999999N9999999N1+00621-00701999999ADDMA1999999087081MD1210201+9999ME1315259OA149900671REMSYN088AAXX  14234 06735 33/// /2508 10062 21070 38708 48525 52020 333 55300 20011 91113 91208;
0149067350999992011011500004+46500+007567FM-12+132099999V0202001N003619999999N9999999N1+00561-00381999999ADDMA1999999087191MD1210251+9999ME1315359OA149900881REMSYN088AAXX  15004 06735 33/// /2007 10056 21038 38719 48535 52025 333 55300 20014 91117 91210;
0149067350999992011011501004+46500+007567FM-12+132099999V0202301N002119999999N9999999N1+00551-00291999999ADDMA1999999087231MD1210231+9999ME1315389OA149901081REMSYN088AAXX  15014 06735 33/// /2304 10055 21029 38723 48538 52023 333 55300 20014 91121 91210;
0149067350999992011011502004+46500+007567FM-12+132099999V0202101N005719999999N9999999N1+00581-00251999999ADDMA1999999087271MD1219999+9999ME1315429OA149901131REMSYN088AAXX  15024 06735 33/// /2111 10058 21025 38727 48542 52/// 333 55300 20014 91122 91211;
0112067350999992011011503004+46500+007567FM-12+132099999V0202201N003619999999N9999999N1+00531-00181999999ADDMA1999999087311ME1315459REMSYN076AAXX  15034 06735 33/// /2207 10053 21018 38731 48545 5//// 333 553// 20014;
0149067350999992011011504004+46500+007567FM-12+132099999V0202301N003119999999N9999999N1+00351-00011999999ADDMA1999999087401MD1310171+9999ME1315529OA149900931REMSYN088AAXX  15044 06735 33/// /2306 10035 21001 38740 48552 53017 333 55300 20014 91118 91210;
0155067350999992011011505004+46500+007567FM-12+132099999V0202001N000519999999N9999999N1+00171+00071999999ADDMA1999999087481MD1310211+9999ME1315589OA149900771REMSYN094AAXX  15054 06735 23/// /2001 10017 20007 38748 48558 53021 333 55300 20014 69915 91115 91207;
0356067350999992011011506004+46500+007567FM-12+132099999V0200401N00051006001CN0250001N1+00131+00081999999ADDAA112000021AJ100119199999999AL19900091AY151061AY211061GA1051+006001071GF105991999999008001999999GJ103009IA1279IA2999-00209KA1999N+00111MA1999999087521MD1110211+9999ME1315619MW1511OA149901131REMSYN154AAXX  15064 06735 01575 50401 10013 20008 38752 48561 51021 69912 75151 333 20011 3/102 43011 55050 55300 20014 60005 70001 85720 90768 93100 91122 91211;
0149067350999992011011507004+46500+007567FM-12+132099999V0202701N001519999999N9999999N1+00161-00031999999ADDMA1999999087561MD1210161+9999ME1315659OA149900311REMSYN088AAXX  15074 06735 33/// /2703 10016 21003 38756 48565 52016 333 55300 20014 91106 91203;
0149067350999992011011508004+46500+007567FM-12+132099999V0203001N000519999999N9999999N1+00041-00121999999ADDMA1999999087521MD1019999+9999ME1315619OA149900511REMSYN088AAXX  15084 06735 33/// /3001 10004 21012 38752 48561 50/// 333 55300 20036 91110 91204;
0149067350999992011011509004+46500+007567FM-12+132099999V0209999C000019999999N9999999N1+00031-00211999999ADDMA1999999087531MD1010011+9999ME1315629OA149900771REMSYN088AAXX  15094 06735 33/// /0000 10003 21021 38753 48562 50001 333 55300 20086 91115 91207;
0149067350999992011011510004+46500+007567FM-12+132099999V0201301N000519999999N9999999N1+00241-00341999999ADDMA1999999087591MD1310031+9999ME1315699OA149900211REMSYN088AAXX  15104 06735 33/// /1301 10024 21034 38759 48569 53003 333 55304 20497 91104 91201;
0149067350999992011011511004+46500+007567FM-12+132099999V0201301N001019999999N9999999N1+00331-00071999999ADDMA1999999087541MD1010021+9999ME1315659OA149900311REMSYN088AAXX  15114 06735 33/// /1302 10033 21007 38754 48565 50002 333 553// 2//// 91106 91203;
0197067350999992011011512004+46500+007567FM-12+132099999V0200901N001512200019N0350001N1+00451+00031999999ADDGA1011+063001001GF101991999999999999999999MA1999999087501MD1810031+9999ME1315629OA149901131REMSYN094AAXX  15124 06735 32981 10903 10045 20003 38750 48562 58003 333 553// 2//// 81071 91122 91211;
0112067350999992011011513004+46500+007567FM-12+132099999V0200701N002119999999N9999999N1+00451+00061999999ADDMA1999999087491ME1315629REMSYN076AAXX  15134 06735 33/// /0704 10045 20006 38749 48562 5//// 333 553// 2////;
0096067350999992011011514004+46500+007567FM-12+132099999V0200601N001519999999N9999999N1+00491+00111999999ADDMA1999999087531ME1315669REMSYN060AAXX  15144 06735 43/// /0603 10049 20011 38753 48566 5////;
0096067350999992011011515004+46500+007567FM-12+132099999V0201201N000519999999N9999999N1+00411-00101999999ADDMA1999999087541ME1315669REMSYN060AAXX  15154 06735 43/// /1201 10041 21010 38754 48566 5////;
0096067350999992011011516004+46500+007567FM-12+132099999V0202101N000519999999N9999999N1+00251-00101999999ADDMA1999999087621ME1315729REMSYN060AAXX  15164 06735 43/// /2101 10025 21010 38762 48572 5////;
0112067350999992011011517004+46500+007567FM-12+132099999V0202601N000519999999N9999999N1+00191-00101999999ADDMA1999999087631ME1315729REMSYN076AAXX  15174 06735 33/// /2601 10019 21010 38763 48572 5//// 333 553// 20022;
0119067350999992011011518004+46500+007567FM-12+132099999V0202501N001019999999N9999999N1+00151-00261999999ADDKA1999M+00521MA1999999087611ME1315709REMSYN070AAXX  15184 06735 43/// /2502 10015 21026 38761 48570 5//// 333 10052;
0096067350999992011011519004+46500+007567FM-12+132099999V0202401N001019999999N9999999N1+00231-00471999999ADDMA1999999087631ME1315729REMSYN060AAXX  15194 06735 43/// /2402 10023 21047 38763 48572 5////;
0096067350999992011011520004+46500+007567FM-12+132099999V0202701N000519999999N9999999N1+00281-00491999999ADDMA1999999087701ME1315799REMSYN060AAXX  15204 06735 43/// /2701 10028 21049 38770 48579 5////;
0149067350999992011011521004+46500+007567FM-12+132099999V0203301N000519999999N9999999N1+00141-00451999999ADDMA1999999087701MD1210091+9999ME1315789OA149900211REMSYN088AAXX  15214 06735 33/// /3301 10014 21045 38770 48578 52009 333 55300 20014 91104 91202;
0149067350999992011011522004+46500+007567FM-12+132099999V0209999C000019999999N9999999N1+00201-00521999999ADDMA1999999087661MD1010031+9999ME1315759OA149900211REMSYN088AAXX  15224 06735 33/// /0000 10020 21052 38766 48575 50003 333 55300 20014 91104 91202;
0149067350999992011011523004+46500+007567FM-12+132099999V0202601N000519999999N9999999N1+00401-00661999999ADDMA1999999087631MD1710071+9999ME1315749OA149900211REMSYN088AAXX  15234 06735 33/// /2601 10040 21066 38763 48574 57007 333 55300 20011 91104 91202;
0149067350999992011011600004+46500+007567FM-12+132099999V0202801N000519999999N9999999N1+00431-00611999999ADDMA1999999087591MD1610111+9999ME1315719OA149900361REMSYN088AAXX  16004 06735 33/// /2801 10043 21061 38759 48571 56011 333 55300 20011 91107 91204;
0149067350999992011011601004+46500+007567FM-12+132099999V0203401N000519999999N9999999N1+00451-00581999999ADDMA1999999087581MD1610081+9999ME1315709OA149900151REMSYN088AAXX  16014 06735 33/// /3401 10045 21058 38758 48570 56008 333 55300 20011 91103 91201;
0149067350999992011011602004+46500+007567FM-12+132099999V0202301N000519999999N9999999N1+00401-00391999999ADDMA1999999087571MD1719999+9999ME1315689OA149900261REMSYN088AAXX  16024 06735 33/// /2301 10040 21039 38757 48568 57/// 333 55300 20014 91105 91201;
0096067350999992011011603004+46500+007567FM-12+132099999V0202501N000519999999N9999999N1+00631-00391999999ADDMA1999999087581ME1315719REMSYN060AAXX  16034 06735 43/// /2501 10063 21039 38758 48571 5////;
0149067350999992011011604004+46500+007567FM-12+132099999V0203001N000519999999N9999999N1+00551-00331999999ADDMA1999999087571MD1510011+9999ME1315709OA149900151REMSYN088AAXX  16044 06735 33/// /3001 10055 21033 38757 48570 55001 333 55300 20011 91103 91201;
0149067350999992011011605004+46500+007567FM-12+132099999V0203501N001019999999N9999999N1+00521-00341999999ADDMA1999999087551MD1810021+9999ME1315689OA149900151REMSYN088AAXX  16054 06735 33/// /3502 10052 21034 38755 48568 58002 333 55300 20011 91103 91202;
0299067350999992011011606004+46500+007567FM-12+132099999V0202701N000512200019N0350001N1+00601-00361999999ADDAJ100109199999999AL19900091GA1001+999999999GF100991001001999999001001GJ103309IA1309IA2999-00209KA1999N+00131MA1999999087541MD1810041+9999ME1315679OA149900261REMSYN130AAXX  16064 06735 32/81 02701 10060 21036 38754 48567 58004 333 20013 3/102 42010 55055 55300 20011 70000 90768 93100 91105 91202;
0149067350999992011011607004+46500+007567FM-12+132099999V0203501N000519999999N9999999N1+00531-00361999999ADDMA1999999087561MD1510011+9999ME1315699OA149900211REMSYN088AAXX  16074 06735 33/// /3501 10053 21036 38756 48569 55001 333 55300 20011 91104 91202;
0149067350999992011011608004+46500+007567FM-12+132099999V0202601N000519999999N9999999N1+00441-00371999999ADDMA1999999087601MD1219999+9999ME1315729OA149900261REMSYN088AAXX  16084 06735 33/// /2601 10044 21037 38760 48572 52/// 333 55300 20036 91105 91204;
0149067350999992011011609004+46500+007567FM-12+132099999V0202301N000519999999N9999999N1+00371-00361999999ADDMA1999999087611MD1110071+9999ME1315729OA149900261REMSYN088AAXX  16094 06735 33/// /2301 10037 21036 38761 48572 51007 333 55300 20065 91105 91204;
0149067350999992011011610004+46500+007567FM-12+132099999V0202101N000519999999N9999999N1+00481-00381999999ADDMA1999999087621MD1110061+9999ME1315749OA149900151REMSYN088AAXX  16104 06735 33/// /2101 10048 21038 38762 48574 51006 333 55303 20335 91103 91202;
0149067350999992011011611004+46500+007567FM-12+132099999V0201901N000519999999N9999999N1+00791-00461999999ADDMA1999999087621MD1210021+9999ME1315779OA149900151REMSYN088AAXX  16114 06735 33/// /1901 10079 21046 38762 48577 52002 333 553// 2//// 91103 91202;
0191067350999992011011612004+46500+007567FM-12+132099999V0201701N000512200019N0350001N1+00901-00541999999ADDGA1001+999999999GF100991001001999999001001MA1999999087611MD1010001+9999ME1315779OA149900261REMSYN088AAXX  16124 06735 32/81 01701 10090 21054 38761 48577 50000 333 553// 2//// 91105 91204;
0149067350999992011011613004+46500+007567FM-12+132099999V0201501N000519999999N9999999N1+01021-00441999999ADDMA1999999087561MD1710061+9999ME1315739OA149900211REMSYN088AAXX  16134 06735 33/// /1501 10102 21044 38756 48573 57006 333 553// 2//// 91104 91202;
0149067350999992011011614004+46500+007567FM-12+132099999V0201501N000519999999N9999999N1+01031-00301999999ADDMA1999999087531MD1719999+9999ME1315709OA149900211REMSYN088AAXX  16144 06735 33/// /1501 10103 21030 38753 48570 57/// 333 553// 2//// 91104 91202;
0149067350999992011011615004+46500+007567FM-12+132099999V0202001N000519999999N9999999N1+00941-00301999999ADDMA1999999087551MD1510061+9999ME1315719OA149900211REMSYN088AAXX  16154 06735 33/// /2001 10094 21030 38755 48571 55006 333 553// 20785 91104 91202;
0168067350999992011011616004+46500+007567FM-12+132099999V0202801N000519999999N9999999N1+00761-00291999999ADDMA1999999087561MD1410001+9999ME1315719OA149900151REMSYN088AAXX  16164 06735 33/// /2801 10076 21029 38756 48571 53000 333 55305 20212 91103 91202;EQDQ01+000032APCTEN
0149067350999992011011617004+46500+007567FM-12+132099999V0202701N000519999999N9999999N1+00751-00341999999ADDMA1999999087581MD1219999+9999ME1315739OA149900151REMSYN088AAXX  16174 06735 33/// /2701 10075 21034 38758 48573 52/// 333 55300 20025 91103 91202;
0261067350999992011011618004+46500+007567FM-12+132099999V0203001N000512200019N0350001N1+00591-00321999999ADDAJ100109199999999AL19900091GA1001+999999999GF100991001001999999001001IA1309KA1120M+01091MA1999999087601MD1210051+9999ME1315739OA149900311REMSYN112AAXX  16184 06735 32/81 03001 10059 21032 38760 48573 52005 333 10109 42010 55300 20011 90766 93100 91106 91204;
0149067350999992011011619004+46500+007567FM-12+132099999V0202701N000519999999N9999999N1+00581-00361999999ADDMA1999999087591MD1210031+9999ME1315729OA149900311REMSYN088AAXX  16194 06735 33/// /2701 10058 21036 38759 48572 52003 333 55300 20014 91106 91202;
0149067350999992011011620004+46500+007567FM-12+132099999V0203201N000519999999N9999999N1+00641-00431999999ADDMA1999999087611MD1219999+9999ME1315749OA149900151REMSYN088AAXX  16204 06735 33/// /3201 10064 21043 38761 48574 52/// 333 55300 20014 91103 91201;
0149067350999992011011621004+46500+007567FM-12+132099999V0203301N000519999999N9999999N1+00521-00451999999ADDMA1999999087601MD1010001+9999ME1315729OA149900311REMSYN088AAXX  16214 06735 33/// /3301 10052 21045 38760 48572 50000 333 55300 20011 91106 91202;
0149067350999992011011622004+46500+007567FM-12+132099999V0209999C001019999999N9999999N1+00601-00561999999ADDMA1999999087621MD1210031+9999ME1315759OA149900211REMSYN088AAXX  16224 06735 33/// /0002 10060 21056 38762 48575 52003 333 55300 20014 91104 91202;
0149067350999992011011623004+46500+007567FM-12+132099999V0203101N000519999999N9999999N1+00521-00531999999ADDMA1999999087631MD1310021+9999ME1315759OA149900211REMSYN088AAXX  16234 06735 33/// /3101 10052 21053 38763 48575 53002 333 55300 20014 91104 91202;
0149067350999992011011700004+46500+007567FM-12+132099999V0203601N000519999999N9999999N1+00441-00571999999ADDMA1999999087631MD1210031+9999ME1315749OA149900311REMSYN088AAXX  17004 06735 33/// /3601 10044 21057 38763 48574 52003 333 55300 20014 91106 91202;
0149067350999992011011701004+46500+007567FM-12+132099999V0209999C000019999999N9999999N1+00351-00521999999ADDMA1999999087611MD1810011+9999ME1315729OA149900151REMSYN088AAXX  17014 06735 33/// /0000 10035 21052 38761 48572 58001 333 55300 20014 91103 91201;
0149067350999992011011702004+46500+007567FM-12+132099999V0203201N001019999999N9999999N1+00441-00591999999ADDMA1999999087581MD1719999+9999ME1315709OA149900211REMSYN088AAXX  17024 06735 33/// /3202 10044 21059 38758 48570 57/// 333 55300 20014 91104 91202;
0112067350999992011011703004+46500+007567FM-12+132099999V0203001N001019999999N9999999N1+00441-00621999999ADDMA1999999087571ME1315699REMSYN076AAXX  17034 06735 33/// /3002 10044 21062 38757 48569 5//// 333 553// 20014;
0149067350999992011011704004+46500+007567FM-12+132099999V0202801N000519999999N9999999N1+00381-00611999999ADDMA1999999087521MD1710091+9999ME1315649OA149900211REMSYN088AAXX  17044 06735 33/// /2801 10038 21061 38752 48564 57009 333 55300 20014 91104 91202;
0149067350999992011011705004+46500+007567FM-12+132099999V0202901N000519999999N9999999N1+00341-00631999999ADDMA1999999087491MD1810091+9999ME1315619OA149900151REMSYN088AAXX  17054 06735 33/// /2901 10034 21063 38749 48561 58009 333 55300 20011 91103 91202;
0299067350999992011011706004+46500+007567FM-12+132099999V0203401N000512200019N0350001N1+00441-00661999999ADDAJ100109199999999AL19900091GA1001+999999999GF100991001001999999001001GJ103429IA1309IA2999-00109KA1999N+00281MA1999999087481MD1710091+9999ME1315619OA149900211REMSYN130AAXX  17064 06735 32/81 03401 10044 21066 38748 48561 57009 333 20028 3/101 42010 55057 55300 20014 70000 90768 93100 91104 91202;
0149067350999992011011707004+46500+007567FM-12+132099999V0202501N000519999999N9999999N1+00391-00691999999ADDMA1999999087461MD1710061+9999ME1315589OA149900151REMSYN088AAXX  17074 06735 33/// /2501 10039 21069 38746 48558 57006 333 55300 20014 91103 91201;
0096067350999992011011708004+46500+007567FM-12+132099999V0203101N000519999999N9999999N1+00351-00651999999ADDMA1999999087451ME1315579REMSYN060AAXX  17084 06735 43/// /3101 10035 21065 38745 48557 5////;
0096067350999992011011709004+46500+007567FM-12+132099999V0202901N001019999999N9999999N1+00371-00601999999ADDMA1999999087421ME1315549REMSYN060AAXX  17094 06735 43/// /2902 10037 21060 38742 48554 5////;
0149067350999992011011710004+46500+007567FM-12+132099999V0202101N001019999999N9999999N1+00591-00671999999ADDMA1999999087421MD1710041+9999ME1315569OA149900311REMSYN088AAXX  17104 06735 33/// /2102 10059 21067 38742 48556 57004 333 55303 20335 91106 91203;
0149067350999992011011711004+46500+007567FM-12+132099999V0201401N000519999999N9999999N1+00401-00481999999ADDMA1999999087471MD1310021+9999ME1315599OA149900311REMSYN088AAXX  17114 06735 33/// /1401 10040 21048 38747 48559 53002 333 553// 2//// 91106 91203;
0191067350999992011011712004+46500+007567FM-12+132099999V0201501N000512200019N0350001N1+00611-00581999999ADDGA1001+999999999GF100991001001999999001001MA1999999087451MD1210031+9999ME1315599OA149900311REMSYN088AAXX  17124 06735 32/81 01501 10061 21058 38745 48559 52003 333 553// 2//// 91106 91203;
0168067350999992011011713004+46500+007567FM-12+132099999V0201401N001019999999N9999999N1+00721-00581999999ADDMA1999999087421MD1410001+9999ME1315579OA149900261REMSYN088AAXX  17134 06735 33/// /1402 10072 21058 38742 48557 58000 333 553// 2//// 91105 91202;EQDQ01+000082APCTEN
0096067350999992011011714004+46500+007567FM-12+132099999V0201201N001019999999N9999999N1+00811-00531999999ADDMA1999999087441ME1315609REMSYN060AAXX  17144 06735 43/// /1202 10081 21053 38744 48560 5////;
0096067350999992011011715004+46500+007567FM-12+132099999V0201501N000519999999N9999999N1+00651-00441999999ADDMA1999999087471ME1315619REMSYN060AAXX  17154 06735 43/// /1501 10065 21044 38747 48561 5////;
