0149067300999992011010100004+46550+007983FM-12+357699999V0203101N002119999999N9999999N1-00811-03431999999ADDMA1999999065421MD1710031+9999ME1430479OA149900881REMSYN088AAXX  01004 06730 43/// /3104 11081 21343 36542 47047 57003 333 55300 20000 91117 91212;
0149067300999992011010101004+46550+007983FM-12+357699999V0203301N004119999999N9999999N1-00831-03301999999ADDMA1999999065381MD1710071+9999ME1430429OA149900511REMSYN088AAXX  01014 06730 43/// /3308 11083 21330 36538 47042 57007 333 55300 20000 91110 91208;
0149067300999992011010102004+46550+007983FM-12+357699999V0203301N004119999999N9999999N1-00811-03411999999ADDMA1999999065371MD1610071+9999ME1430409OA149900511REMSYN088AAXX  01024 06730 43/// /3308 11081 21341 36537 47040 56007 333 55300 20000 91110 91209;
0149067300999992011010103004+46550+007983FM-12+357699999V0203201N005119999999N9999999N1-00881-03251999999ADDMA1999999065341MD1810081+9999ME1430389OA149900571REMSYN088AAXX  01034 06730 43/// /3210 11088 21325 36534 47038 58008 333 55300 20000 91111 91210;
0149067300999992011010104004+46550+007983FM-12+357699999V0203201N004619999999N9999999N1-00901-03191999999ADDMA1999999065321MD1810061+9999ME1430369OA149900571REMSYN088AAXX  01044 06730 43/// /3209 11090 21319 36532 47036 58006 333 55300 20000 91111 91210;
0149067300999992011010105004+46550+007983FM-12+357699999V0203201N005719999999N9999999N1-00951-03131999999ADDMA1999999065291MD1610081+9999ME1430349OA149900621REMSYN088AAXX  01054 06730 43/// /3211 11095 21313 36529 47034 56008 333 55300 20000 91112 91211;
0246067300999992011010106004+46550+007983FM-12+357699999V0203201N005712200019N0700001N1-00961-03051999999ADDGA1001+999999999GF100991001001999999001001GJ104389IA1239KA1999N-00961MA1999999065271MD1610071+9999ME1430329OA149900671REMSYN116AAXX  01064 06730 42988 03211 11096 21305 36527 47032 56007 333 21096 47/// 55073 55300 20000 91113 91211 444 76125;
0149067300999992011010107004+46550+007983FM-12+357699999V0203201N005719999999N9999999N1-00981-03071999999ADDMA1999999065271MD1710051+9999ME1430329OA149900671REMSYN088AAXX  01074 06730 43/// /3211 11098 21307 36527 47032 57005 333 55300 20000 91113 91212;
0149067300999992011010108004+46550+007983FM-12+357699999V0203201N006219999999N9999999N1-00951-03251999999ADDMA1999999065281MD1519999+9999ME1430339OA149900671REMSYN088AAXX  01084 06730 43/// /3212 11095 21325 36528 47033 55/// 333 55306 20112 91113 91213;
0166067300999992011010109004+46550+007983FM-12+357699999V0203101N006712200019N0750001N1-00871-02801999999ADDGA1001+999999999GF100991001001999999001001GG1069025009019999MA1999999065261ME1430289REMSYN070AAXX  01094 06730 42989 03113 11087 21280 36526 47028 5//// 444 76125;
0096067300999992011010110004+46550+007983FM-12+357699999V0203201N005119999999N9999999N1-00951-03081999999ADDMA1999999065261ME1430309REMSYN060AAXX  01104 06730 43/// /3210 11095 21308 36526 47030 5////;
0149067300999992011010111004+46550+007983FM-12+357699999V0203201N005119999999N9999999N1-00911-02431999999ADDMA1999999065231MD1810051+9999ME1430269OA149900771REMSYN088AAXX  01114 06730 43/// /3210 11091 21243 36523 47026 58005 333 553// 2//// 91115 91212;
0166067300999992011010112004+46550+007983FM-12+357699999V0203201N004112200019N0750001N1-00841-02571999999ADDGA1001+999999999GF100991001001999999001001GG1069015009019999MA1999999065191ME1430199REMSYN070AAXX  01124 06730 42989 03208 11084 21257 36519 47019 5//// 444 76115;
0096067300999992011010113004+46550+007983FM-12+357699999V0203201N004619999999N9999999N1-00891-02321999999ADDMA1999999065151ME1430169REMSYN060AAXX  01134 06730 43/// /3209 11089 21232 36515 47016 5////;
0096067300999992011010114004+46550+007983FM-12+357699999V0203201N004619999999N9999999N1-00951-02791999999ADDMA1999999065121ME1430139REMSYN060AAXX  01144 06730 43/// /3209 11095 21279 36512 47013 5////;
0166067300999992011010115004+46550+007983FM-12+357699999V0203201N005112200019N0750001N1-01081-02761999999ADDGA1001+999999999GF100991001001999999001001GG1069015009019999MA1999999065111ME1430159REMSYN070AAXX  01154 06730 42989 03210 11108 21276 36511 47015 5//// 444 66115;
0096067300999992011010116004+46550+007983FM-12+357699999V0203201N006719999999N9999999N1-01151-02341999999ADDMA1999999065091ME1430149REMSYN060AAXX  01164 06730 43/// /3213 11115 21234 36509 47014 5////;
0096067300999992011010117004+46550+007983FM-12+357699999V0203201N007219999999N9999999N1-01161-01511999999ADDMA1999999065071ME1430129REMSYN060AAXX  01174 06730 43/// /3214 11116 21151 36507 47012 5////;
0164067300999992011010118004+46550+007983FM-12+357699999V0203201N007712200019N0700001N1-01061-01491999999ADDGA1001+999999999GF100991001001999999001001IA1239MA1999999065021ME1430049REMSYN080AAXX  01184 06730 42988 03215 11106 21149 36502 47004 5//// 333 47/// 444 76125;
0112067300999992011010119004+46550+007983FM-12+357699999V0203201N006719999999N9999999N1-01081-01541999999ADDMA1999999065021ME1430049REMSYN076AAXX  01194 06730 43/// /3213 11108 21154 36502 47004 5//// 333 553// 20000;
0149067300999992011010120004+46550+007983FM-12+357699999V0203301N005719999999N9999999N1-01121-01631999999ADDMA1999999065011MD1710061+9999ME1430049OA149900981REMSYN088AAXX  01204 06730 43/// /3311 11112 21163 36501 47004 57006 333 55300 20000 91119 91216;
0149067300999992011010121004+46550+007983FM-12+357699999V0203201N006719999999N9999999N1-01071-01741999999ADDMA1999999064991MD1710031+9999ME1430009OA149901031REMSYN088AAXX  01214 06730 43/// /3213 11107 21174 36499 47000 57003 333 55300 20000 91120 91216;
0149067300999992011010122004+46550+007983FM-12+357699999V0203201N007219999999N9999999N1-01131-01891999999ADDMA1999999064971MD1810051+9999ME1429999OA149900981REMSYN088AAXX  01224 06730 43/// /3214 11113 21189 36497 47999 58005 333 55300 20000 91119 91215;
0149067300999992011010123004+46550+007983FM-12+357699999V0203201N006219999999N9999999N1-01171-02071999999ADDMA1999999064951MD1810061+9999ME1429989OA149900981REMSYN088AAXX  01234 06730 43/// /3212 11117 21207 36495 47998 58006 333 55300 20000 91119 91215;
0149067300999992011010200004+46550+007983FM-12+357699999V0203101N006219999999N9999999N1-01141-01831999999ADDMA1999999064921MD1810071+9999ME1429939OA149901031REMSYN088AAXX  02004 06730 43/// /3112 11114 21183 36492 47993 58007 333 55300 20000 91120 91216;
0149067300999992011010201004+46550+007983FM-12+357699999V0203201N005119999999N9999999N1-01111-01901999999ADDMA1999999064891MD1810081+9999ME1429899OA149901031REMSYN088AAXX  02014 06730 43/// /3210 11111 21190 36489 47989 58008 333 55300 20000 91120 91214;
0096067300999992011010202004+46550+007983FM-12+357699999V0203201N006219999999N9999999N1-01201-01811999999ADDMA1999999064881ME1429909REMSYN060AAXX  02024 06730 43/// /3212 11120 21181 36488 47990 5////;
0096067300999992011010203004+46550+007983FM-12+357699999V0203101N007719999999N9999999N1-01121-02491999999ADDMA1999999064851ME1429859REMSYN060AAXX  02034 06730 43/// /3115 11112 21249 36485 47985 5////;
0096067300999992011010204004+46550+007983FM-12+357699999V0203201N006219999999N9999999N1-01181-02541999999ADDMA1999999064831ME1429849REMSYN060AAXX  02044 06730 43/// /3212 11118 21254 36483 47984 5////;
0096067300999992011010205004+46550+007983FM-12+357699999V0203001N007219999999N9999999N1-01131-02341999999ADDMA1999999064801ME1429799REMSYN060AAXX  02054 06730 43/// /3014 11113 21234 36480 47979 5////;
0216067300999992011010206004+46550+007983FM-12+357699999V0203201N006712200019N0700001N1-01301-01811999999ADDGA1001+999999999GF100991001001999999001001GJ104389IA1239KA1999N+99999MA1999999064781ME1429809REMSYN092AAXX  02064 06730 42988 03213 11130 21181 36478 47980 5//// 333 21121 47/// 55073 444 86154;EQDQ01 -01212ATMN  
0149067300999992011010207004+46550+007983FM-12+357699999V0203201N007219999999N9999999N1-01241-02481999999ADDMA1999999064761MD1610071+9999ME1429779OA149901031REMSYN088AAXX  02074 06730 43/// /3214 11124 21248 36476 47977 56007 333 55300 20000 91120 91215;
0149067300999992011010208004+46550+007983FM-12+357699999V0203101N007719999999N9999999N1-01321-02341999999ADDMA1999999064761MD1710041+9999ME1429789OA149901031REMSYN088AAXX  02084 06730 43/// /3115 11132 21234 36476 47978 57004 333 55306 20112 91120 91215;
0219067300999992011010209004+46550+007983FM-12+357699999V0203201N007212200019N0750001N1-01291-02531999999ADDGA1001+999999999GF100991001001999999001001GG1069024009029999MA1999999064761MD1710021+9999ME1429789OA149901131REMSYN098AAXX  02094 06730 42989 03214 11129 21253 36476 47978 57002 333 553// 20616 91122 91216 444 86224;
0149067300999992011010210004+46550+007983FM-12+357699999V0203101N007719999999N9999999N1-01261-02791999999ADDMA1999999064791MD1310031+9999ME1429819OA149901131REMSYN088AAXX  02104 06730 43/// /3115 11126 21279 36479 47981 53003 333 553// 2//// 91122 91216;
0149067300999992011010211004+46550+007983FM-12+357699999V0203101N007719999999N9999999N1-01231-03071999999ADDMA1999999064771MD1010011+9999ME1429789OA149901181REMSYN088AAXX  02114 06730 43/// /3115 11123 21307 36477 47978 50001 333 553// 2//// 91123 91215;
0231067300999992011010212004+46550+007983FM-12+357699999V0203101N008212200019N0750001N1-01211-03521999999ADDGA1011+018001031GF101991011001017501041001GG1069024009029999MA1999999064731MD1810031+9999ME1429729OA149901181REMSYN110AAXX  02124 06730 42789 13116 11121 21352 36473 47972 58003 81040 333 553// 2//// 81356 91123 91216 444 86224;
0149067300999992011010213004+46550+007983FM-12+357699999V0203101N007719999999N9999999N1-01241-03961999999ADDMA1999999064701MD1810091+9999ME1429699OA149901291REMSYN088AAXX  02134 06730 43/// /3115 11124 21396 36470 47969 58009 333 553// 2//// 91125 91217;
0112067300999992011010214004+46550+007983FM-12+357699999V0203201N008719999999N9999999N1-01271-03891999999ADDMA1999999064681ME1429689REMSYN076AAXX  02144 06730 43/// /3217 11127 21389 36468 47968 5//// 333 553// 2////;
0219067300999992011010215004+46550+007983FM-12+357699999V0203201N008712200019N0750001N1-01391-04231999999ADDGA1001+999999999GF100991001001999999001001GG1069034009029999MA1999999064691MD1510041+9999ME1429729OA149901491REMSYN098AAXX  02154 06730 42989 03217 11139 21423 36469 47972 55004 333 55308 20569 91129 91218 444 86234;
0149067300999992011010216004+46550+007983FM-12+357699999V0203201N008219999999N9999999N1-01431-04171999999ADDMA1999999064691MD1010011+9999ME1429739OA149901491REMSYN088AAXX  02164 06730 43/// /3216 11143 21417 36469 47973 50001 333 55300 20025 91129 91218;
0149067300999992011010217004+46550+007983FM-12+357699999V0203201N007719999999N9999999N1-01401-04461999999ADDMA1999999064681MD1010001+9999ME1429719OA149901441REMSYN088AAXX  02174 06730 43/// /3215 11140 21446 36468 47971 50000 333 55300 20000 91128 91218;
0250067300999992011010218004+46550+007983FM-12+357699999V0203101N008212200019N0700001N1-01431-04531999999ADDGA1001+999999999GF100991001001999999001001GG1069024009029999IA1239KA1120M-01171MA1999999064691MD1010001+9999ME1429739OA149901491REMSYN110AAXX  02184 06730 42988 03116 11143 21453 36469 47973 50000 333 11117 47/// 55300 20000 91129 91218 444 76224;
0149067300999992011010219004+46550+007983FM-12+357699999V0203301N006719999999N9999999N1-01461-04571999999ADDMA1999999064711MD1210021+9999ME1429769OA149901291REMSYN088AAXX  02194 06730 43/// /3313 11146 21457 36471 47976 52002 333 55300 20000 91125 91217;
0149067300999992011010220004+46550+007983FM-12+357699999V0203101N008219999999N9999999N1-01481-04411999999ADDMA1999999064711MD1210031+9999ME1429769OA149901181REMSYN088AAXX  02204 06730 43/// /3116 11148 21441 36471 47976 52003 333 55300 20000 91123 91216;
0149067300999992011010221004+46550+007983FM-12+357699999V0203001N007719999999N9999999N1-01431-04661999999ADDMA1999999064751MD1210061+9999ME1429809OA149901441REMSYN088AAXX  02214 06730 43/// /3015 11143 21466 36475 47980 52006 333 55300 20000 91128 91218;
0149067300999992011010222004+46550+007983FM-12+357699999V0203101N008719999999N9999999N1-01431-04271999999ADDMA1999999064751MD1210041+9999ME1429809OA149901491REMSYN088AAXX  02224 06730 43/// /3117 11143 21427 36475 47980 52004 333 55300 20000 91129 91218;
0149067300999992011010223004+46550+007983FM-12+357699999V0203101N007719999999N9999999N1-01461-04261999999ADDMA1999999064751MD1210041+9999ME1429819OA149901491REMSYN088AAXX  02234 06730 43/// /3115 11146 21426 36475 47981 52004 333 55300 20000 91129 91218;
0149067300999992011010300004+46550+007983FM-12+357699999V0203201N009319999999N9999999N1-01461-04461999999ADDMA1999999064731MD1710021+9999ME1429789OA149901491REMSYN088AAXX  03004 06730 43/// /3218 11146 21446 36473 47978 57002 333 55300 20000 91129 91218;
0149067300999992011010301004+46550+007983FM-12+357699999V0203201N009819999999N9999999N1-01521-04471999999ADDMA1999999064721MD1710031+9999ME1429789OA149901491REMSYN088AAXX  03014 06730 43/// /3219 11152 21447 36472 47978 57003 333 55300 20000 91129 91219;
0149067300999992011010302004+46550+007983FM-12+357699999V0203101N010819999999N9999999N1-01541-04581999999ADDMA1999999064711MD1719999+9999ME1429789OA149901541REMSYN088AAXX  03024 06730 43/// /3121 11154 21458 36471 47978 57/// 333 55300 20000 91130 91221;
0096067300999992011010303004+46550+007983FM-12+357699999V0203101N009319999999N9999999N1-01621-04551999999ADDMA1999999064701ME1429789REMSYN060AAXX  03034 06730 43/// /3118 11162 21455 36470 47978 5////;
0149067300999992011010304004+46550+007983FM-12+357699999V0203101N009319999999N9999999N1-01591-04301999999ADDMA1999999064691MD1710031+9999ME1429769OA149901441REMSYN088AAXX  03044 06730 43/// /3118 11159 21430 36469 47976 57003 333 55300 20000 91128 91221;
0149067300999992011010305004+46550+007983FM-12+357699999V0203101N009319999999N9999999N1-01631-04271999999ADDMA1999999064681MD1710031+9999ME1429769OA149901441REMSYN088AAXX  03054 06730 43/// /3118 11163 21427 36468 47976 57003 333 55300 20000 91128 91221;
0246067300999992011010306004+46550+007983FM-12+357699999V0203001N009312200019N0700001N1-01681-04381999999ADDGA1001+999999999GF100991001001999999001001GJ104389IA1239KA1999N-01651MA1999999064691MD1510011+9999ME1429799OA149901541REMSYN116AAXX  03064 06730 42988 03018 11168 21438 36469 47979 55001 333 21165 47/// 55073 55300 20000 91130 91221 444 36189;
0149067300999992011010307004+46550+007983FM-12+357699999V0203101N008719999999N9999999N1-01701-04561999999ADDMA1999999064711MD1310021+9999ME1429819OA149901491REMSYN088AAXX  03074 06730 43/// /3117 11170 21456 36471 47981 53002 333 55300 20000 91129 91219;
0149067300999992011010308004+46550+007983FM-12+357699999V0203001N007719999999N9999999N1-01641-04311999999ADDMA1999999064741MD1219999+9999ME1429849OA149901241REMSYN088AAXX  03084 06730 43/// /3015 11164 21431 36474 47984 52/// 333 55306 20115 91124 91218;
0182067300999992011010309004+46550+007983FM-12+357699999V0203001N008212200019N0750001N1-01591-03931999999ADDGA1001+999999999GF100991001001999999001001GG1069089009019999MA1999999064751ME1429849REMSYN086AAXX  03094 06730 42989 03016 11159 21393 36475 47984 5//// 333 553// 20623 444 16189;
0149067300999992011010310004+46550+007983FM-12+357699999V0203001N007719999999N9999999N1-01561-03781999999ADDMA1999999064781MD1210071+9999ME1429869OA149901081REMSYN088AAXX  03104 06730 43/// /3015 11156 21378 36478 47986 52007 333 553// 2//// 91121 91216;
0149067300999992011010311004+46550+007983FM-12+357699999V0203101N007219999999N9999999N1-01581-03801999999ADDMA1999999064781MD1210041+9999ME1429879OA149901081REMSYN088AAXX  03114 06730 43/// /3114 11158 21380 36478 47987 52004 333 553// 2//// 91121 91216;
0219067300999992011010312004+46550+007983FM-12+357699999V0203101N008212200019N0750001N1-01501-03851999999ADDGA1001+999999999GF100991001001999999001001GG1069089009019999MA1999999064751MD1010001+9999ME1429819OA149901541REMSYN098AAXX  03124 06730 42989 03116 11150 21385 36475 47981 50000 333 553// 2//// 91130 91221 444 16189;
0149067300999992011010313004+46550+007983FM-12+357699999V0203101N007219999999N9999999N1-01501-03961999999ADDMA1999999064741MD1710041+9999ME1429809OA149901031REMSYN088AAXX  03134 06730 43/// /3114 11150 21396 36474 47980 57004 333 553// 2//// 91120 91216;
0112067300999992011010314004+46550+007983FM-12+357699999V0203101N007219999999N9999999N1-01471-04021999999ADDMA1999999064751ME1429819REMSYN076AAXX  03144 06730 43/// /3114 11147 21402 36475 47981 5//// 333 553// 2////;
0194067300999992011010315004+46550+007983FM-12+357699999V0203101N007712200019N0750001N1-01551-04091999999ADDGA1011+054001001GF101991001001999999001011GG1069029009029999MA1999999064761ME1429849REMSYN098AAXX  03154 06730 42989 13115 11155 21409 36476 47984 5//// 80001 333 553// 20576 81068 444 26229;
0149067300999992011010316004+46550+007983FM-12+357699999V0203101N006719999999N9999999N1-01571-04141999999ADDMA1999999064771MD1210031+9999ME1429859OA149901081REMSYN088AAXX  03164 06730 43/// /3113 11157 21414 36477 47985 52003 333 55300 20025 91121 91215;
0149067300999992011010317004+46550+007983FM-12+357699999V0203101N006719999999N9999999N1-01581-04001999999ADDMA1999999064771MD1210021+9999ME1429869OA149901131REMSYN088AAXX  03174 06730 43/// /3113 11158 21400 36477 47986 52002 333 55300 20000 91122 91215;
0262067300999992011010318004+46550+007983FM-12+357699999V0203301N005712200019N0700001N1-01521-04031999999ADDGA1011+054001001GF101991001001999999001011GG1069015009019999IA1239KA1120M-01471MA1999999064781MD1210021+9999ME1429859OA149901241REMSYN122AAXX  03184 06730 42988 13311 11152 21403 36478 47985 52002 80001 333 11147 47/// 55300 20000 81068 91124 91218 444 46115;
0149067300999992011010319004+46550+007983FM-12+357699999V0203201N004119999999N9999999N1-01511-03521999999ADDMA1999999064791MD1210021+9999ME1429869OA149901031REMSYN088AAXX  03194 06730 43/// /3208 11151 21352 36479 47986 52002 333 55300 20000 91120 91213;
0149067300999992011010320004+46550+007983FM-12+357699999V0203201N005119999999N9999999N1-01521-03561999999ADDMA1999999064781MD1010011+9999ME1429859OA149901031REMSYN088AAXX  03204 06730 43/// /3210 11152 21356 36478 47985 50001 333 55300 20000 91120 91212;
0149067300999992011010321004+46550+007983FM-12+357699999V0203201N006219999999N9999999N1-01511-03801999999ADDMA1999999064781MD1010001+9999ME1429859OA149901131REMSYN088AAXX  03214 06730 43/// /3212 11151 21380 36478 47985 50000 333 55300 20000 91122 91215;
0149067300999992011010322004+46550+007983FM-12+357699999V0203201N005119999999N9999999N1-01491-03851999999ADDMA1999999064791MD1510001+9999ME1429869OA149901081REMSYN088AAXX  03224 06730 43/// /3210 11149 21385 36479 47986 55000 333 55300 20000 91121 91212;
0149067300999992011010323004+46550+007983FM-12+357699999V0203301N005119999999N9999999N1-01481-03861999999ADDMA1999999064781MD1010001+9999ME1429859OA149901131REMSYN088AAXX  03234 06730 43/// /3310 11148 21386 36478 47985 50000 333 55300 20000 91122 91212;
0149067300999992011010400004+46550+007983FM-12+357699999V0203401N005119999999N9999999N1-01511-03721999999ADDMA1999999064751MD1710031+9999ME1429829OA149901131REMSYN088AAXX  04004 06730 43/// /3410 11151 21372 36475 47982 57003 333 55300 20000 91122 91215;
0149067300999992011010401004+46550+007983FM-12+357699999V0203401N005119999999N9999999N1-01541-03711999999ADDMA1999999064711MD1810081+9999ME1429789OA149901081REMSYN088AAXX  04014 06730 43/// /3410 11154 21371 36471 47978 58008 333 55300 20000 91121 91212;
0149067300999992011010402004+46550+007983FM-12+357699999V0203301N005119999999N9999999N1-01501-03641999999ADDMA1999999064681MD1619999+9999ME1429739OA149901031REMSYN088AAXX  04024 06730 43/// /3310 11150 21364 36468 47973 56/// 333 55300 20000 91120 91212;
0149067300999992011010403004+46550+007983FM-12+357699999V0203301N004619999999N9999999N1-01571-03631999999ADDMA1999999064651MD1810101+9999ME1429719OA149901131REMSYN088AAXX  04034 06730 43/// /3309 11157 21363 36465 47971 58010 333 55300 20000 91122 91212;
0149067300999992011010404004+46550+007983FM-12+357699999V0203301N004119999999N9999999N1-01531-03591999999ADDMA1999999064611MD1810101+9999ME1429669OA149901031REMSYN088AAXX  04044 06730 43/// /3308 11153 21359 36461 47966 58010 333 55300 20000 91120 91212;
0149067300999992011010405004+46550+007983FM-12+357699999V0203001N005719999999N9999999N1-01531-03661999999ADDMA1999999064581MD1610101+9999ME1429629OA149901131REMSYN088AAXX  04054 06730 43/// /3011 11153 21366 36458 47962 56010 333 55300 20000 91122 91212;
0258067300999992011010406004+46550+007983FM-12+357699999V0203301N002612200019N0600001N1-01591-03631999999ADDGA1021+014101031GF102991021001012501041999GJ104449IA1239KA1999N-01591MA1999999064561MD1710091+9999ME1429619OA149901131REMSYN128AAXX  04064 06730 42686 23305 11159 21363 36456 47961 57009 8204/ 333 21159 47/// 55074 55300 20000 82347 91122 91212 444 26309;
0149067300999992011010407004+46550+007983FM-12+357699999V0203001N005119999999N9999999N1-01571-03681999999ADDMA1999999064541MD1710071+9999ME1429589OA149901181REMSYN088AAXX  04074 06730 43/// /3010 11157 21368 36454 47958 57007 333 55300 20000 91123 91210;
0149067300999992011010408004+46550+007983FM-12+357699999V0202901N006219999999N9999999N1-01581-03891999999ADDMA1999999064541MD1719999+9999ME1429589OA149901241REMSYN088AAXX  04084 06730 43/// /2912 11158 21389 36454 47958 57/// 333 55300 20007 91124 91212;
0194067300999992011010409004+46550+007983FM-12+357699999V0203201N00311012301CN0750001N1-01561-04091999999ADDGA1061+012301031GF106991061001012501041999GG1069009009039999MA1999999064531ME1429579REMSYN098AAXX  04094 06730 42689 63206 11156 21409 36453 47957 5//// 8604/ 333 553// 20169 86341 444 36309;
0149067300999992011010410004+46550+007983FM-12+357699999V0203101N002619999999N9999999N1-01561-03851999999ADDMA1999999064541MD1510001+9999ME1429589OA149901341REMSYN088AAXX  04104 06730 43/// /3105 11156 21385 36454 47958 55000 333 55300 20734 91126 91212;
0149067300999992011010411004+46550+007983FM-12+357699999V0209999C001019999999N9999999N1-01571-03481999999ADDMA1999999064511MD1710031+9999ME1429559OA149901081REMSYN088AAXX  04114 06730 43/// /0002 11157 21348 36451 47955 57003 333 55306 2//// 91121 91211;
0231067300999992011010412004+46550+007983FM-12+357699999V0202501N00051012301CN0750001N1-01481-03271999999ADDGA1051+012301031GF106991051001012501041011GG1069009009039999MA1999999064461MD1710071+9999ME1429469OA149901341REMSYN110AAXX  04124 06730 42689 62501 11148 21327 36446 47946 57007 85041 333 55308 2//// 85341 91126 91212 444 46309;
0149067300999992011010413004+46550+007983FM-12+357699999V0203201N001019999999N9999999N1-01601-02481999999ADDMA1999999064441MD1610101+9999ME1429479OA149900881REMSYN088AAXX  04134 06730 43/// /3202 11160 21248 36444 47947 56010 333 55300 2//// 91117 91203;
0112067300999992011010414004+46550+007983FM-12+357699999V0203501N001519999999N9999999N1-01581-02291999999ADDMA1999999064431ME1429459REMSYN076AAXX  04144 06730 43/// /3503 11158 21229 36443 47945 5//// 333 553// 20788;
0182067300999992011010415004+46550+007983FM-12+357699999V0203001N006712200019N0750001N1-01631-02651999999ADDGA1011+009301031GF106991011001008001041011GG1069004009039999MA1999999064411ME1429449REMSYN086AAXX  04154 06730 42589 63013 11163 21265 36441 47944 5//// 81041 333 81331 444 46304;
0149067300999992011010416004+46550+007983FM-12+357699999V0203101N006219999999N9999999N1-01641-02521999999ADDMA1999999064431MD1510011+9999ME1429479OA149901291REMSYN088AAXX  04164 06730 43/// /3112 11164 21252 36443 47947 55001 333 55300 20029 91125 91215;
0149067300999992011010417004+46550+007983FM-12+357699999V0203301N004619999999N9999999N1-01671-02511999999ADDMA1999999064441MD1310011+9999ME1429499OA149901291REMSYN088AAXX  04174 06730 43/// /3309 11167 21251 36444 47949 53001 333 55300 20000 91125 91215;
0250067300999992011010418004+46550+007983FM-12+357699999V0203301N005112200019N0700001N1-01661-02491999999ADDGA1001+999999999GF100991001001999999001001GG1069009009039999IA1239KA1120M-01421MA1999999064441MD1210031+9999ME1429489OA149901341REMSYN110AAXX  04184 06730 42988 03310 11166 21249 36444 47948 52003 333 11142 47/// 55300 20000 91126 91215 444 36309;
0149067300999992011010419004+46550+007983FM-12+357699999V0203301N004119999999N9999999N1-01611-03371999999ADDMA1999999064461MD1210031+9999ME1429509OA149900981REMSYN088AAXX  04194 06730 43/// /3308 11161 21337 36446 47950 52003 333 55300 20000 91119 91212;
0149067300999992011010420004+46550+007983FM-12+357699999V0203201N004119999999N9999999N1-01501-03451999999ADDMA1999999064471MD1210031+9999ME1429489OA149900981REMSYN088AAXX  04204 06730 43/// /3208 11150 21345 36447 47948 52003 333 55300 20000 91119 91210;
0149067300999992011010421004+46550+007983FM-12+357699999V0203401N002619999999N9999999N1-01511-03121999999ADDMA1999999064481MD1110041+9999ME1429509OA149901291REMSYN088AAXX  04214 06730 43/// /3405 11151 21312 36448 47950 51004 333 55300 20000 91125 91215;
0149067300999992011010422004+46550+007983FM-12+357699999V0203201N005719999999N9999999N1-01531-03481999999ADDMA1999999064491MD1110031+9999ME1429519OA149900881REMSYN088AAXX  04224 06730 43/// /3211 11153 21348 36449 47951 51003 333 55300 20000 91117 91211;
0149067300999992011010423004+46550+007983FM-12+357699999V0203201N007219999999N9999999N1-01531-03261999999ADDMA1999999064481MD1010011+9999ME1429509OA149901241REMSYN088AAXX  04234 06730 43/// /3214 11153 21326 36448 47950 50001 333 55300 20000 91124 91214;
0149067300999992011010500004+46550+007983FM-12+357699999V0203301N005119999999N9999999N1-01531-02591999999ADDMA1999999064461MD1810021+9999ME1429489OA149901341REMSYN088AAXX  05004 06730 43/// /3310 11153 21259 36446 47948 58002 333 55300 20000 91126 91215;
0149067300999992011010501004+46550+007983FM-12+357699999V0203201N004119999999N9999999N1-01511-02441999999ADDMA1999999064451MD1810041+9999ME1429469OA149901341REMSYN088AAXX  05014 06730 43/// /3208 11151 21244 36445 47946 58004 333 55300 20000 91126 91213;
0149067300999992011010502004+46550+007983FM-12+357699999V0203001N006719999999N9999999N1-01521-02341999999ADDMA1999999064461MD1710021+9999ME1429479OA149901031REMSYN088AAXX  05024 06730 43/// /3013 11152 21234 36446 47947 57002 333 55300 20000 91120 91213;
0096067300999992011010503004+46550+007983FM-12+357699999V0203201N004619999999N9999999N1-01541-02501999999ADDMA1999999064451ME1429479REMSYN060AAXX  05034 06730 43/// /3209 11154 21250 36445 47947 5////;
0149067300999992011010504004+46550+007983FM-12+357699999V0203301N004619999999N9999999N1-01601-02741999999ADDMA1999999064441MD1710011+9999ME1429479OA149901031REMSYN088AAXX  05044 06730 43/// /3309 11160 21274 36444 47947 57001 333 55300 20000 91120 91211;
0149067300999992011010505004+46550+007983FM-12+357699999V0203201N004119999999N9999999N1-01601-02431999999ADDMA1999999064441MD1710021+9999ME1429479OA149901031REMSYN088AAXX  05054 06730 43/// /3208 11160 21243 36444 47947 57002 333 55300 20000 91120 91211;
0258067300999992011010506004+46550+007983FM-12+357699999V0203301N005712200019N0700001N1-01601-02531999999ADDGA1011+012301031GF101991011001012501041001GJ101149IA1239KA1999N-01661MA1999999064461MD1310011+9999ME1429499OA149901341REMSYN128AAXX  05064 06730 42688 13311 11160 21253 36446 47949 53001 81040 333 21166 47/// 55019 55300 20000 81341 91126 91214 444 36189;
0149067300999992011010507004+46550+007983FM-12+357699999V0203201N005719999999N9999999N1-01651-02271999999ADDMA1999999064491MD1210051+9999ME1429549OA149901131REMSYN088AAXX  05074 06730 43/// /3211 11165 21227 36449 47954 52005 333 55300 20000 91122 91214;
0149067300999992011010508004+46550+007983FM-12+357699999V0203401N004119999999N9999999N1-01581-02131999999ADDMA1999999064521MD1319999+9999ME1429569OA149901131REMSYN088AAXX  05084 06730 43/// /3408 11158 21213 36452 47956 53/// 333 55306 20115 91122 91214;
0231067300999992011010509004+46550+007983FM-12+357699999V0203501N003612200019N0750001N1-01591-02211999999ADDGA1011+054001001GF101991001001999999001011GG1069044009019999MA1999999064551MD1110091+9999ME1429609OA149901131REMSYN110AAXX  05094 06730 42989 13507 11159 21221 36455 47960 51009 80001 333 553// 20619 81068 91122 91214 444 36144;
0149067300999992011010510004+46550+007983FM-12+357699999V0209999C004119999999N9999999N1-01431-02351999999ADDMA1999999064581MD1210091+9999ME1429609OA149900881REMSYN088AAXX  05104 06730 43/// /0008 11143 21235 36458 47960 52009 333 553// 2//// 91117 91211;
0149067300999992011010511004+46550+007983FM-12+357699999V0203201N003619999999N9999999N1-01361-02471999999ADDMA1999999064591MD1210071+9999ME1429599OA149900931REMSYN088AAXX  05114 06730 43/// /3207 11136 21247 36459 47959 52007 333 553// 2//// 91118 91211;
0194067300999992011010512004+46550+007983FM-12+357699999V0203201N003112200019N0750001N1-01241-02621999999ADDGA1011+054001001GF101991001001999999001011GG1069029009019999MA1999999064571ME1429549REMSYN098AAXX  05124 06730 42989 13206 11124 21262 36457 47954 5//// 80001 333 553// 2//// 81068 444 16129;
0149067300999992011010513004+46550+007983FM-12+357699999V0203301N005119999999N9999999N1-01331-02581999999ADDMA1999999064561MD1710021+9999ME1429559OA149900881REMSYN088AAXX  05134 06730 43/// /3310 11133 21258 36456 47955 57002 333 553// 2//// 91117 91210;
0096067300999992011010514004+46550+007983FM-12+357699999V0203501N004619999999N9999999N1-01311-02211999999ADDMA1999999064591ME1429589REMSYN060AAXX  05144 06730 43/// /3509 11131 21221 36459 47958 5////;
0182067300999992011010515004+46550+007983FM-12+357699999V0203401N004112200019N0750001N1-01261-02531999999ADDGA1011+001201031GF103991011001001501041061GG1069009009039999MA1999999064631ME1429619REMSYN086AAXX  05154 06730 42289 33408 11126 21253 36463 47961 5//// 81046 333 81304 444 16309;
0149067300999992011010516004+46550+007983FM-12+357699999V0203101N006719999999N9999999N1-01271-02051999999ADDMA1999999064651MD1110091+9999ME1429649OA149901491REMSYN088AAXX  05164 06730 43/// /3113 11127 21205 36465 47964 51009 333 55300 20050 91129 91213;
0149067300999992011010517004+46550+007983FM-12+357699999V0203501N003119999999N9999999N1-01201-02231999999ADDMA1999999064681MD1210091+9999ME1429669OA149901491REMSYN088AAXX  05174 06730 43/// /3506 11120 21223 36468 47966 52009 333 55300 20000 91129 91213;
0262067300999992011010518004+46550+007983FM-12+357699999V0203501N003112200019N0700001N1-01151-02251999999ADDGA1011+054001021GF101991001001999999001051GG1069009009039999IA1239KA1120M-01131MA1999999064691MD1219999+9999ME1429669OA149901491REMSYN122AAXX  05184 06730 42988 13506 11115 21225 36469 47966 52/// 80005 333 11113 47/// 55300 20000 81268 91129 91214 444 16309;
0149067300999992011010519004+46550+007983FM-12+357699999V0203601N003619999999N9999999N1-01061-02251999999ADDMA1999999064721MD1210071+9999ME1429689OA149901291REMSYN088AAXX  05194 06730 43/// /3607 11106 21225 36472 47968 52007 333 55300 20000 91125 91215;
0149067300999992011010520004+46550+007983FM-12+357699999V0203201N003619999999N9999999N1-01011-02421999999ADDMA1999999064711MD1219999+9999ME1429659OA149901291REMSYN088AAXX  05204 06730 43/// /3207 11101 21242 36471 47965 52/// 333 55300 20000 91125 91215;
0112067300999992011010521004+46550+007983FM-12+357699999V0203201N003119999999N9999999N1-00981-02451999999ADDMA1999999064721ME1429669REMSYN076AAXX  05214 06730 43/// /3206 11098 21245 36472 47966 5//// 333 553// 20000;
0149067300999992011010522004+46550+007983FM-12+357699999V0203001N005119999999N9999999N1-01001-02071999999ADDMA1999999064721MD1010001+9999ME1429669OA149901701REMSYN088AAXX  05224 06730 43/// /3010 11100 21207 36472 47966 50000 333 55300 20000 91133 91214;
0149067300999992011010523004+46550+007983FM-12+357699999V0203201N004119999999N9999999N1-00991-02401999999ADDMA1999999064751MD1219999+9999ME1429709OA149901701REMSYN088AAXX  05234 06730 43/// /3208 11099 21240 36475 47970 52/// 333 55300 20000 91133 91214;
0096067300999992011010600004+46550+007983FM-12+357699999V0203101N007719999999N9999999N1-00881-02091999999ADDMA1999999064701ME1429619REMSYN060AAXX  06004 06730 43/// /3115 11088 21209 36470 47961 5////;
0115067300999992011010601004+46550+007983FM-12+357699999V0203001N008219999999N9999999N1-00941-01262999999ADDMA1999999064731ME1429669REMSYN060AAXX  06014 06730 43/// /3016 11094 21126 36473 47966 5////;EQDQ01-001263ATOD  
0096067300999992011010602004+46550+007983FM-12+357699999V0202901N007219999999N9999999N1-00861-01101999999ADDMA1999999064741ME1429659REMSYN060AAXX  06024 06730 43/// /2914 11086 21110 36474 47965 5////;
0096067300999992011010603004+46550+007983FM-12+357699999V0203001N003619999999N9999999N1-00771-01141999999ADDMA1999999064721ME1429619REMSYN060AAXX  06034 06730 43/// /3007 11077 21114 36472 47961 5////;
0096067300999992011010604004+46550+007983FM-12+357699999V0200601N003619999999N9999999N1-00931-01071999999ADDMA1999999064731ME1429669REMSYN060AAXX  06044 06730 43/// /0607 11093 21107 36473 47966 5////;
0096067300999992011010605004+46550+007983FM-12+357699999V0203401N003619999999N9999999N1-00891-01031999999ADDMA1999999064741ME1429669REMSYN060AAXX  06054 06730 43/// /3407 11089 21103 36474 47966 5////;
0207067300999992011010606004+46550+007983FM-12+357699999V0203301N007210001519N0000001N1-00881-00951999999ADDAY171061AY241061GA1091+999999999GF109991091999999999999999IA1239KA1999N-01151MA1999999064721ME1429639MW1731REMSYN088AAXX  06064 06730 41/00 93314 11088 21095 36472 47963 5//// 77374 333 21115 47/// 55074;
0096067300999992011010607004+46550+007983FM-12+357699999V0202801N001519999999N9999999N1-00861-01061999999ADDMA1999999064781ME1429709REMSYN060AAXX  06074 06730 43/// /2803 11086 21106 36478 47970 5////;
0112067300999992011010608004+46550+007983FM-12+357699999V0201301N002619999999N9999999N1-00851-01141999999ADDMA1999999064811ME1429749REMSYN076AAXX  06084 06730 43/// /1305 11085 21114 36481 47974 5//// 333 553// 20104;
0192067300999992011010609004+46550+007983FM-12+357699999V0201501N004610003019N0600001N1-00731-01141999999ADDAY171031AY241031GA1061+000301031GF108991061001000251041061MA1999999064841ME1429749MW1021REMSYN092AAXX  06094 06730 41086 81509 11073 21114 36484 47974 5//// 70274 86046 333 86301 444 53369;
0149067300999992011010610004+46550+007983FM-12+357699999V0203401N003619999999N9999999N1-00731-01061999999ADDMA1999999064851MD1210071+9999ME1429769OA149902011REMSYN088AAXX  06104 06730 43/// /3407 11073 21106 36485 47976 52007 333 55300 20342 91139 91209;
0149067300999992011010611004+46550+007983FM-12+357699999V0203501N002119999999N9999999N1-00781-00951999999ADDMA1999999064871MD1210061+9999ME1429799OA149902011REMSYN088AAXX  06114 06730 43/// /3504 11078 21095 36487 47979 52006 333 55300 20371 91139 91209;
0219067300999992011010612004+46550+007983FM-12+357699999V0201101N004110001519N0001001N1-00751-00921999999ADDAY171061AY241061GA1091+999999999GF109991091999999999999999MA1999999064841MD1010001+9999ME1429759MW1771OA149902061REMSYN094AAXX  06124 06730 41/01 91108 11075 21092 36484 47975 50000 77774 333 55300 20410 91140 91218;
0168067300999992011010613004+46550+007983FM-12+357699999V0203601N002119999999N9999999N1-00751-01001999999ADDMA1999999064851MD1410001+9999ME1429769OA149901241REMSYN088AAXX  06134 06730 43/// /3604 11075 21100 36485 47976 57000 333 55300 20439 91124 91210;EQDQ01+000072APCTEN
0096067300999992011010614004+46550+007983FM-12+357699999V0203301N003619999999N9999999N1-00721-00961999999ADDMA1999999064871ME1429789REMSYN060AAXX  06144 06730 43/// /3307 11072 21096 36487 47978 5////;
0166067300999992011010615004+46550+007983FM-12+357699999V0203601N005710003019N0002001N1-00701-00881999999ADDAY171031AY241031GA1091+999999999GF109991091999999999999999MA1999999064921ME1429839MW1701REMSYN066AAXX  06154 06730 41/02 93611 11070 21088 36492 47983 5//// 77074;
0149067300999992011010616004+46550+007983FM-12+357699999V0203401N004619999999N9999999N1-00681-00821999999ADDMA1999999064961MD1210111+9999ME1429889OA149902011REMSYN088AAXX  06164 06730 43/// /3409 11068 21082 36496 47988 52011 333 55300 20011 91139 91215;
0149067300999992011010617004+46550+007983FM-12+357699999V0203501N003619999999N9999999N1-00711-00811999999ADDMA1999999064961MD1210091+9999ME1429899OA149902011REMSYN088AAXX  06174 06730 43/// /3507 11071 21081 36496 47989 52009 333 55300 20000 91139 91215;
0250067300999992011010618004+46550+007983FM-12+357699999V0200201N004110001519N0000001N1-00611-00611999999ADDAY171061AY241061GA1091+999999999GF109991091999999999999999IA1239KA1120M-00611MA1999999064971MD1210051+9999ME1429889MW1731OA149902011REMSYN106AAXX  06184 06730 41/00 90208 11061 21061 36497 47988 52005 77374 333 11061 47/// 55300 20000 91139 91215;
0149067300999992011010619004+46550+007983FM-12+357699999V0203601N006219999999N9999999N1-00701-00761999999ADDMA1999999064991MD1210031+9999ME1429929OA149901651REMSYN088AAXX  06194 06730 43/// /3612 11070 21076 36499 47992 52003 333 55300 20000 91132 91212;
0149067300999992011010620004+46550+007983FM-12+357699999V0200201N005119999999N9999999N1-00671-00671999999ADDMA1999999065041MD1219999+9999ME1429979OA149901541REMSYN088AAXX  06204 06730 43/// /0210 11067 21067 36504 47997 52/// 333 55300 20000 91130 91212;
0149067300999992011010621004+46550+007983FM-12+357699999V0203501N003619999999N9999999N1-00691-00761999999ADDMA1999999065071MD1219999+9999ME1430029OA149902011REMSYN088AAXX  06214 06730 43/// /3507 11069 21076 36507 47002 52/// 333 55300 20000 91139 91215;
0149067300999992011010622004+46550+007983FM-12+357699999V0209999C005119999999N9999999N1-00651-00741999999ADDMA1999999065101MD1210111+9999ME1430049OA149901751REMSYN088AAXX  06224 06730 43/// /0010 11065 21074 36510 47004 52011 333 55300 20000 91134 91211;
0112067300999992011010623004+46550+007983FM-12+357699999V0203501N003619999999N9999999N1-00651-00721999999ADDMA1999999065151ME1430109REMSYN076AAXX  06234 06730 43/// /3507 11065 21072 36515 47010 5//// 333 553// 20000;
0096067300999992011010700004+46550+007983FM-12+357699999V0203501N002119999999N9999999N1-00691-00751999999ADDMA1999999065181ME1430159REMSYN060AAXX  07004 06730 43/// /3504 11069 21075 36518 47015 5////;
0096067300999992011010701004+46550+007983FM-12+357699999V0203601N003619999999N9999999N1-00641-00821999999ADDMA1999999065201ME1430169REMSYN060AAXX  07014 06730 43/// /3607 11064 21082 36520 47016 5////;
0096067300999992011010702004+46550+007983FM-12+357699999V0200101N004119999999N9999999N1-00601-00811999999ADDMA1999999065251ME1430229REMSYN060AAXX  07024 06730 43/// /0108 11060 21081 36525 47022 5////;
0096067300999992011010703004+46550+007983FM-12+357699999V0203601N004619999999N9999999N1-00631-00741999999ADDMA1999999065251ME1430229REMSYN060AAXX  07034 06730 43/// /3609 11063 21074 36525 47022 5////;
0149067300999992011010704004+46550+007983FM-12+357699999V0209999C006719999999N9999999N1-00601-00671999999ADDMA1999999065251MD1210051+9999ME1430229OA149901651REMSYN088AAXX  07044 06730 43/// /0013 11060 21067 36525 47022 52005 333 55300 20000 91132 91214;
0149067300999992011010705004+46550+007983FM-12+357699999V0203601N007219999999N9999999N1-00571-00731999999ADDMA1999999065271MD1210021+9999ME1430239OA149901651REMSYN088AAXX  07054 06730 43/// /3614 11057 21073 36527 47023 52002 333 55300 20000 91132 91214;
0264067300999992011010706004+46550+007983FM-12+357699999V0200201N004110001519N0001001N1-00631-00711999999ADDAY171061AY241061GA1091+999999999GF109991091999999999999999GJ100129IA1239KA1999N-00741MA1999999065311MD1210061+9999ME1430299MW1771OA149901901REMSYN112AAXX  07064 06730 41/01 90208 11063 21071 36531 47029 52006 77774 333 21074 47/// 55002 55300 20000 91137 91214;
0149067300999992011010707004+46550+007983FM-12+357699999V0209999C005719999999N9999999N1-00521-00821999999ADDMA1999999065331MD1210081+9999ME1430309OA149901901REMSYN088AAXX  07074 06730 43/// /0011 11052 21082 36533 47030 52008 333 55300 20000 91137 91212;
0112067300999992011010708004+46550+007983FM-12+357699999V0201101N004119999999N9999999N1-00621-00751999999ADDMA1999999065371ME1430379REMSYN076AAXX  07084 06730 43/// /1108 11062 21075 36537 47037 5//// 333 553// 20029;
0232067300999992011010709004+46550+007983FM-12+357699999V0201201N007210540019N0750001N1-00661-00821999999ADDAY171031AY241031GA1021+004201031GA2081+054001021GF108991021001004501031071GG1069069009019999MA1999999065361ME1430369MW1011REMSYN098AAXX  07094 06730 41489 81214 11066 21082 36536 47036 5//// 70174 82037 333 82314 88268 444 26169;
0149067300999992011010710004+46550+007983FM-12+357699999V0201201N010319999999N9999999N1-00681-00861999999ADDMA1999999065361MD1210031+9999ME1430379OA149901341REMSYN088AAXX  07104 06730 43/// /1220 11068 21086 36536 47037 52003 333 55300 20468 91126 91220;
0149067300999992011010711004+46550+007983FM-12+357699999V0201101N008219999999N9999999N1-00591-00971999999ADDMA1999999065381MD1210011+9999ME1430379OA149901341REMSYN088AAXX  07114 06730 43/// /1116 11059 21097 36538 47037 52001 333 55303 2//// 91126 91220;
0281067300999992011010712004+46550+007983FM-12+357699999V0201101N00721054001CN0750001N1-00471-01151999999ADDAY171061AY241061GA1021+004201031GA2071+054001021GF107991021001004501031071GG1069069009019999MA1999999065351MD1810011+9999ME1430319MW1011OA149901901REMSYN122AAXX  07124 06730 41489 71114 11047 21115 36535 47031 58001 70174 82037 333 55307 2//// 82314 87268 91137 91220 444 26169;
0149067300999992011010713004+46550+007983FM-12+357699999V0201301N007219999999N9999999N1-00501-01141999999ADDMA1999999065331MD1710031+9999ME1430299OA149901391REMSYN088AAXX  07134 06730 43/// /1314 11050 21114 36533 47029 57003 333 55309 2//// 91127 91217;
0096067300999992011010714004+46550+007983FM-12+357699999V0201401N006719999999N9999999N1-00561-01111999999ADDMA1999999065351ME1430339REMSYN060AAXX  07144 06730 43/// /1413 11056 21111 36535 47033 5////;
0232067300999992011010715004+46550+007983FM-12+357699999V0201201N004610042019N0750001N1-00581-01051999999ADDAY131031AY221031GA1051+004201031GA2031+054001021GF108991051001004501071071GG1069034009039999MA1999999065371ME1430369MW1031REMSYN098AAXX  07154 06730 41489 81209 11058 21105 36537 47036 5//// 70332 85077 333 85314 83268 444 56334;
0149067300999992011010716004+46550+007983FM-12+357699999V0201201N004619999999N9999999N1-00661-01001999999ADDMA1999999065401MD1210071+9999ME1430419OA149901801REMSYN088AAXX  07164 06730 43/// /1209 11066 21100 36540 47041 52007 333 55300 20086 91135 91215;
0149067300999992011010717004+46550+007983FM-12+357699999V0201101N005119999999N9999999N1-00701-00981999999ADDMA1999999065411MD1210061+9999ME1430439OA149901441REMSYN088AAXX  07174 06730 43/// /1110 11070 21098 36541 47043 52006 333 55300 20000 91128 91212;
0209067300999992011010718004+46550+007983FM-12+357699999V0201201N007710042019N0600001N1-00671-01051999999ADDAY131061AY221061GF108991081001004501071999IA1239KA1120M-00471MA1999999065401ME1430419MW1021REMSYN106AAXX  07184 06730 41486 81215 11067 21105 36540 47041 5//// 70232 8807/ 333 11047 47/// 553// 20000 88311;
0149067300999992011010719004+46550+007983FM-12+357699999V0201401N007219999999N9999999N1-00771-00991999999ADDMA1999999065381MD1719999+9999ME1430419OA149901701REMSYN088AAXX  07194 06730 43/// /1414 11077 21099 36538 47041 57/// 333 55300 20000 91133 91215;
0096067300999992011010720004+46550+007983FM-12+357699999V0201201N009319999999N9999999N1-00761-01001999999ADDMA1999999065361ME1430389REMSYN060AAXX  07204 06730 43/// /1218 11076 21100 36536 47038 5////;
0096067300999992011010721004+46550+007983FM-12+357699999V0201201N009819999999N9999999N1-00861-00941999999ADDMA1999999065331ME1430379REMSYN060AAXX  07214 06730 43/// /1219 11086 21094 36533 47037 5////;
0149067300999992011010722004+46550+007983FM-12+357699999V0201401N008719999999N9999999N1-00771-01181999999ADDMA1999999065321MD1710061+9999ME1430349OA149901851REMSYN088AAXX  07224 06730 43/// /1417 11077 21118 36532 47034 57006 333 55300 20000 91136 91220;
0112067300999992011010723004+46550+007983FM-12+357699999V0201301N006219999999N9999999N1-00761-01041999999ADDMA1999999065361ME1430389REMSYN076AAXX  07234 06730 43/// /1312 11076 21104 36536 47038 5//// 333 553// 20000;
0112067300999992011010800004+46550+007983FM-12+357699999V0201501N006719999999N9999999N1-00861-00961999999ADDMA1999999065331ME1430379REMSYN076AAXX  08004 06730 43/// /1513 11086 21096 36533 47037 5//// 333 553// 20000;
0096067300999992011010801004+46550+007983FM-12+357699999V0201101N004619999999N9999999N1-00811-00961999999ADDMA1999999065311ME1430339REMSYN060AAXX  08014 06730 43/// /1109 11081 21096 36531 47033 5////;
0096067300999992011010802004+46550+007983FM-12+357699999V0201401N005119999999N9999999N1-00921-00951999999ADDMA1999999065311ME1430369REMSYN060AAXX  08024 06730 43/// /1410 11092 21095 36531 47036 5////;
0096067300999992011010803004+46550+007983FM-12+357699999V0201401N005719999999N9999999N1-00981-01031999999ADDMA1999999065291ME1430349REMSYN060AAXX  08034 06730 43/// /1411 11098 21103 36529 47034 5////;
0096067300999992011010804004+46550+007983FM-12+357699999V0201501N005719999999N9999999N1-01001-01061999999ADDMA1999999065251ME1430309REMSYN060AAXX  08044 06730 43/// /1511 11100 21106 36525 47030 5////;
0096067300999992011010805004+46550+007983FM-12+357699999V0201101N005719999999N9999999N1-00881-01071999999ADDMA1999999065221ME1430249REMSYN060AAXX  08054 06730 43/// /1111 11088 21107 36522 47024 5////;
0207067300999992011010806004+46550+007983FM-12+357699999V0201101N006210001519N0000001N1-00871-01041999999ADDAY171061AY241061GA1091+999999999GF109991091999999999999999IA1239KA1999N-01061MA1999999065231ME1430259MW1711REMSYN088AAXX  08064 06730 41/00 91112 11087 21104 36523 47025 5//// 77174 333 21106 47/// 55021;
0096067300999992011010807004+46550+007983FM-12+357699999V0201401N003119999999N9999999N1-00911-01091999999ADDMA1999999065291ME1430339REMSYN060AAXX  08074 06730 43/// /1406 11091 21109 36529 47033 5////;
0112067300999992011010808004+46550+007983FM-12+357699999V0201101N004619999999N9999999N1-00921-01111999999ADDMA1999999065281ME1430329REMSYN076AAXX  08084 06730 43/// /1109 11092 21111 36528 47032 5//// 333 553// 20097;
0166067300999992011010809004+46550+007983FM-12+357699999V0201201N006710001519N0000001N1-00931-01181999999ADDAY171031AY241031GA1091+999999999GF109991091999999999999999MA1999999065271ME1430319MW1471REMSYN066AAXX  08094 06730 41/00 91213 11093 21118 36527 47031 5//// 74774;
0096067300999992011010810004+46550+007983FM-12+357699999V0201201N005119999999N9999999N1-00851-01431999999ADDMA1999999065311ME1430349REMSYN060AAXX  08104 06730 43/// /1210 11085 21143 36531 47034 5////;
0096067300999992011010811004+46550+007983FM-12+357699999V0201001N005119999999N9999999N1-00841-01591999999ADDMA1999999065311ME1430349REMSYN060AAXX  08114 06730 43/// /1010 11084 21159 36531 47034 5////;
0192067300999992011010812004+46550+007983FM-12+357699999V0200701N003112200019N0750001N1-00781-01771999999ADDAY171061AY241061GA1011+009301031GF102991011001008001041081MA1999999065301ME1430319MW1011REMSYN092AAXX  08124 06730 41589 20706 11078 21177 36530 47031 5//// 70174 81048 333 81331 444 26329;
0096067300999992011010813004+46550+007983FM-12+357699999V0200901N001519999999N9999999N1-00711-01621999999ADDMA1999999065291ME1430299REMSYN060AAXX  08134 06730 43/// /0903 11071 21162 36529 47029 5////;
0096067300999992011010814004+46550+007983FM-12+357699999V0200901N003119999999N9999999N1-00661-01511999999ADDMA1999999065311ME1430309REMSYN060AAXX  08144 06730 43/// /0906 11066 21151 36531 47030 5////;
0186067300999992011010815004+46550+007983FM-12+357699999V0200501N001510540019N0750001N1-00791-01521999999ADDGA1011+009301031GA2081+054001021GF108991011001008001041061MA1999999065331ME1430359REMSYN092AAXX  08154 06730 42589 80503 11079 21152 36533 47035 5//// 81046 333 81331 88268 444 18349;
0096067300999992011010816004+46550+007983FM-12+357699999V0201101N005119999999N9999999N1-00851-01521999999ADDMA1999999065351ME1430399REMSYN060AAXX  08164 06730 43/// /1110 11085 21152 36535 47039 5////;
0096067300999992011010817004+46550+007983FM-12+357699999V0201101N007219999999N9999999N1-00801-01551999999ADDMA1999999065341ME1430379REMSYN060AAXX  08174 06730 43/// /1114 11080 21155 36534 47037 5////;
0216067300999992011010818004+46550+007983FM-12+357699999V0201201N006710540019N0700001N1-00781-01561999999ADDGA1011+009301031GA2071+054001021GF107991011001008001041061GG1069009009039999IA1239MA1999999065331ME1430359REMSYN098AAXX  08184 06730 42588 71213 11078 21156 36533 47035 5//// 81046 333 47/// 81331 87268 444 16309;
0096067300999992011010819004+46550+007983FM-12+357699999V0201101N007219999999N9999999N1-00771-01581999999ADDMA1999999065321ME1430349REMSYN060AAXX  08194 06730 43/// /1114 11077 21158 36532 47034 5////;
0096067300999992011010820004+46550+007983FM-12+357699999V0201301N005119999999N9999999N1-00971-01371999999ADDMA1999999065311ME1430379REMSYN060AAXX  08204 06730 43/// /1310 11097 21137 36531 47037 5////;
0096067300999992011010821004+46550+007983FM-12+357699999V0201501N006219999999N9999999N1-01111-01201999999ADDMA1999999065311ME1430409REMSYN060AAXX  08214 06730 43/// /1512 11111 21120 36531 47040 5////;
0096067300999992011010822004+46550+007983FM-12+357699999V0201301N004119999999N9999999N1-00921-01401999999ADDMA1999999065321ME1430379REMSYN060AAXX  08224 06730 43/// /1308 11092 21140 36532 47037 5////;
0096067300999992011010823004+46550+007983FM-12+357699999V0201401N005719999999N9999999N1-01091-01121999999ADDMA1999999065311ME1430399REMSYN060AAXX  08234 06730 43/// /1411 11109 21112 36531 47039 5////;
0096067300999992011010900004+46550+007983FM-12+357699999V0201001N003619999999N9999999N1-00891-01311999999ADDMA1999999065311ME1430359REMSYN060AAXX  09004 06730 43/// /1007 11089 21131 36531 47035 5////;
0096067300999992011010901004+46550+007983FM-12+357699999V0201101N004119999999N9999999N1-01041-01261999999ADDMA1999999065301ME1430379REMSYN060AAXX  09014 06730 43/// /1108 11104 21126 36530 47037 5////;
0096067300999992011010902004+46550+007983FM-12+357699999V0201301N005719999999N9999999N1-00911-01611999999ADDMA1999999065291ME1430339REMSYN060AAXX  09024 06730 43/// /1311 11091 21161 36529 47033 5////;
0096067300999992011010903004+46550+007983FM-12+357699999V0201201N009819999999N9999999N1-00941-01761999999ADDMA1999999065231ME1430269REMSYN060AAXX  09034 06730 43/// /1219 11094 21176 36523 47026 5////;
0096067300999992011010904004+46550+007983FM-12+357699999V0201301N007719999999N9999999N1-00971-02011999999ADDMA1999999065211ME1430259REMSYN060AAXX  09044 06730 43/// /1315 11097 21201 36521 47025 5////;
0096067300999992011010905004+46550+007983FM-12+357699999V0201501N010819999999N9999999N1-00981-01651999999ADDMA1999999065171ME1430209REMSYN060AAXX  09054 06730 43/// /1521 11098 21165 36517 47020 5////;
0212067300999992011010906004+46550+007983FM-12+357699999V0201301N008210540019N0700001N1-00941-01481999999ADDGA1041+009301031GA2031+054001021GF107991041001008001041061GJ102829IA1239MA1999999065151ME1430179REMSYN104AAXX  09064 06730 42588 71316 11094 21148 36515 47017 5//// 84046 333 47/// 55047 84331 83268 444 76354;
0096067300999992011010907004+46550+007983FM-12+357699999V0201201N009319999999N9999999N1-01161-01261999999ADDMA1999999065161ME1430239REMSYN060AAXX  09074 06730 43/// /1218 11116 21126 36516 47023 5////;
0112067300999992011010908004+46550+007983FM-12+357699999V0201201N008719999999N9999999N1-01061-01241999999ADDMA1999999065171ME1430229REMSYN076AAXX  09084 06730 43/// /1217 11106 21124 36517 47022 5//// 333 553// 20025;
0204067300999992011010909004+46550+007983FM-12+357699999V0201301N009310012019N0240001N1-01031-01171999999ADDAY141031AY221031GA1081+001201031GF108991081001001501071999MA1999999065151ME1430199MW1031REMSYN104AAXX  09094 06730 41274 81318 11103 21117 36515 47019 5//// 70342 8807/ 333 553// 20220 88304 444 76354;
0149067300999992011010910004+46550+007983FM-12+357699999V0201301N009819999999N9999999N1-00981-01161999999ADDMA1999999065171MD1510011+9999ME1430209OA149901651REMSYN088AAXX  09104 06730 43/// /1319 11098 21116 36517 47020 55001 333 55300 20425 91132 91220;
0149067300999992011010911004+46550+007983FM-12+357699999V0201601N007719999999N9999999N1-01071-01191999999ADDMA1999999065141MD1710031+9999ME1430189OA149901701REMSYN088AAXX  09114 06730 43/// /1615 11107 21119 36514 47018 57003 333 55300 20497 91133 91220;
0149067300999992011010912004+46550+007983FM-12+357699999V0201501N010319999999N9999999N1-01081-01171999999ADDMA1999999065091MD1810061+9999ME1430139OA149902211REMSYN088AAXX  09124 06730 43/// /1520 11108 21117 36509 47013 58006 333 55300 20475 91143 91221;
0149067300999992011010913004+46550+007983FM-12+357699999V0201701N010319999999N9999999N1-01151-01461999999ADDMA1999999065061MD1710111+9999ME1430109OA149901601REMSYN088AAXX  09134 06730 43/// /1720 11115 21146 36506 47010 57011 333 55300 20414 91131 91222;
0096067300999992011010914004+46550+007983FM-12+357699999V0201501N008219999999N9999999N1-01031-01151999999ADDMA1999999065081ME1430109REMSYN060AAXX  09144 06730 43/// /1516 11103 21115 36508 47010 5////;
0166067300999992011010915004+46550+007983FM-12+357699999V0201501N011310001519N0000001N1-01111-01171999999ADDAY171031AY241031GA1091+999999999GF109991091999999999999999MA1999999065051ME1430089MW1701REMSYN066AAXX  09154 06730 41/00 91522 11111 21117 36505 47008 5//// 77074;
0168067300999992011010916004+46550+007983FM-12+357699999V0201401N011319999999N9999999N1-01131-01241999999ADDMA1999999065061MD1410001+9999ME1430109OA149901651REMSYN088AAXX  09164 06730 43/// /1422 11113 21124 36506 47010 58000 333 55300 20076 91132 91223;EQDQ01+000082APCTEN
0149067300999992011010917004+46550+007983FM-12+357699999V0201301N008219999999N9999999N1-01131-01191999999ADDMA1999999065111MD1310031+9999ME1430169OA149901601REMSYN088AAXX  09174 06730 43/// /1316 11113 21119 36511 47016 53003 333 55300 20000 91131 91224;
0168067300999992011010918004+46550+007983FM-12+357699999V0201201N010319999999N9999999N1-01141-01231999999ADDKA1120M-00891MA1999999065101MD1210051+9999ME1430159OA149902211REMSYN094AAXX  09184 06730 43/// /1220 11114 21123 36510 47015 52005 333 11089 55300 20000 91143 91224;
0149067300999992011010919004+46550+007983FM-12+357699999V0201401N010319999999N9999999N1-01181-01271999999ADDMA1999999065101MD1210041+9999ME1430169OA149901441REMSYN088AAXX  09194 06730 43/// /1420 11118 21127 36510 47016 52004 333 55300 20000 91128 91222;
0149067300999992011010920004+46550+007983FM-12+357699999V0201301N008219999999N9999999N1-01151-01201999999ADDMA1999999065141MD1310031+9999ME1430209OA149901441REMSYN088AAXX  09204 06730 43/// /1316 11115 21120 36514 47020 53003 333 55300 20000 91128 91222;
0149067300999992011010921004+46550+007983FM-12+357699999V0201301N010319999999N9999999N1-01141-01211999999ADDMA1999999065131MD1210031+9999ME1430199OA149901601REMSYN088AAXX  09214 06730 43/// /1320 11114 21121 36513 47019 52003 333 55300 20000 91131 91224;
0149067300999992011010922004+46550+007983FM-12+357699999V0201301N008219999999N9999999N1-01141-01231999999ADDMA1999999065141MD1210041+9999ME1430209OA149901241REMSYN088AAXX  09224 06730 43/// /1316 11114 21123 36514 47020 52004 333 55300 20000 91124 91220;
0149067300999992011010923004+46550+007983FM-12+357699999V0201501N006719999999N9999999N1-01181-01281999999ADDMA1999999065151MD1210011+9999ME1430229OA149901131REMSYN088AAXX  09234 06730 43/// /1513 11118 21128 36515 47022 52001 333 55300 20000 91122 91218;
0149067300999992011011000004+46550+007983FM-12+357699999V0201501N004619999999N9999999N1-01191-01281999999ADDMA1999999065161MD1210031+9999ME1430239OA149901651REMSYN088AAXX  10004 06730 43/// /1509 11119 21128 36516 47023 52003 333 55300 20000 91132 91224;
0149067300999992011011001004+46550+007983FM-12+357699999V0201401N004119999999N9999999N1-01201-01291999999ADDMA1999999065161MD1110021+9999ME1430249OA149900771REMSYN088AAXX  10014 06730 43/// /1408 11120 21129 36516 47024 51002 333 55300 20000 91115 91213;
0112067300999992011011002004+46550+007983FM-12+357699999V0201401N003619999999N9999999N1-01181-01291999999ADDMA1999999065161ME1430239REMSYN076AAXX  10024 06730 43/// /1407 11118 21129 36516 47023 5//// 333 553// 20000;
0096067300999992011011003004+46550+007983FM-12+357699999V0201501N001519999999N9999999N1-01241-01361999999ADDMA1999999065161ME1430249REMSYN060AAXX  10034 06730 43/// /1503 11124 21136 36516 47024 5////;
0112067300999992011011004004+46550+007983FM-12+357699999V0201701N002619999999N9999999N1-01171-01351999999ADDMA1999999065151ME1430229REMSYN076AAXX  10044 06730 43/// /1705 11117 21135 36515 47022 5//// 333 553// 20000;
0149067300999992011011005004+46550+007983FM-12+357699999V0200601N000519999999N9999999N1-01081-01441999999ADDMA1999999065131MD1719999+9999ME1430179OA149900721REMSYN088AAXX  10054 06730 43/// /0601 11108 21144 36513 47017 57/// 333 55300 20000 91114 91208;
0239067300999992011011006004+46550+007983FM-12+357699999V0201501N004112200019N0700001N1-01211-01331999999ADDGA1011+009301031GF102991011001008001041081GG1069094009029999GJ100009IA1239KA1999N-01241MA1999999065141ME1430219MW1011REMSYN110AAXX  10064 06730 41588 21508 11121 21133 36514 47021 5//// 701// 81048 333 21124 47/// 55000 81331 444 86294;
0149067300999992011011007004+46550+007983FM-12+357699999V0201401N003119999999N9999999N1-01231-01381999999ADDMA1999999065141MD1510011+9999ME1430229OA149900721REMSYN088AAXX  10074 06730 43/// /1406 11123 21138 36514 47022 55001 333 55300 20000 91114 91208;
0096067300999992011011008004+46550+007983FM-12+357699999V0201101N002619999999N9999999N1-01181-01411999999ADDMA1999999065171ME1430249REMSYN060AAXX  10084 06730 43/// /1105 11118 21141 36517 47024 5////;
0182067300999992011011009004+46550+007983FM-12+357699999V0203301N002110102019N0750001N1-01141-01621999999ADDGA1071+010201031GF107991071001012501071999GG1069059009039999MA1999999065171ME1430239REMSYN086AAXX  10094 06730 42689 73304 11114 21162 36517 47023 5//// 8707/ 333 87334 444 86359;
0149067300999992011011010004+46550+007983FM-12+357699999V0201601N001519999999N9999999N1-01191-01331999999ADDMA1999999065181MD1210041+9999ME1430269OA149900671REMSYN088AAXX  10104 06730 43/// /1603 11119 21133 36518 47026 52004 333 55300 20637 91113 91206;
0149067300999992011011011004+46550+007983FM-12+357699999V0201401N003119999999N9999999N1-01071-01361999999ADDMA1999999065161MD1019999+9999ME1430219OA149900571REMSYN088AAXX  10114 06730 43/// /1406 11107 21136 36516 47021 50/// 333 55301 2//// 91111 91207;
0194067300999992011011012004+46550+007983FM-12+357699999V0201601N002112200019N0750001N1-01071-01461999999ADDGA1021+010201031GF104991021001012501041051GG1069044009039999MA1999999065121ME1430169REMSYN098AAXX  10124 06730 42689 41604 11107 21146 36512 47016 5//// 82045 333 553// 2//// 82334 444 86344;
0096067300999992011011013004+46550+007983FM-12+357699999V0200801N002119999999N9999999N1-00981-01461999999ADDMA1999999065091ME1430109REMSYN060AAXX  10134 06730 43/// /0804 11098 21146 36509 47010 5////;
0096067300999992011011014004+46550+007983FM-12+357699999V0201201N003619999999N9999999N1-00981-01381999999ADDMA1999999065061ME1430079REMSYN060AAXX  10144 06730 43/// /1207 11098 21138 36506 47007 5////;
0182067300999992011011015004+46550+007983FM-12+357699999V0201301N003112200019N0750001N1-01091-01501999999ADDGA1011+010201031GF102991011001012501041011GG1069094009019999MA1999999065061ME1430099REMSYN086AAXX  10154 06730 42689 21306 11109 21150 36506 47009 5//// 81041 333 81334 444 86194;
0096067300999992011011016004+46550+007983FM-12+357699999V0201301N002619999999N9999999N1-01291-01631999999ADDMA1999999065081ME1430169REMSYN060AAXX  10164 06730 43/// /1305 11129 21163 36508 47016 5////;
0096067300999992011011017004+46550+007983FM-12+357699999V0201301N005719999999N9999999N1-01321-01671999999ADDMA1999999065041ME1430129REMSYN060AAXX  10174 06730 43/// /1311 11132 21167 36504 47012 5////;
0213067300999992011011018004+46550+007983FM-12+357699999V0201301N005712200019N0700001N1-01341-01641999999ADDGA1011+054001001GF101991001001999999001011GG1069054009019999IA1239KA1120M-00911MA1999999065031ME1430119REMSYN098AAXX  10184 06730 42988 11311 11134 21164 36503 47011 5//// 80001 333 11091 47/// 81068 444 86154;
0096067300999992011011019004+46550+007983FM-12+357699999V0201401N006219999999N9999999N1-01361-01621999999ADDMA1999999065021ME1430109REMSYN060AAXX  10194 06730 43/// /1412 11136 21162 36502 47010 5////;
0096067300999992011011020004+46550+007983FM-12+357699999V0201301N006219999999N9999999N1-01401-01751999999ADDMA1999999064991ME1430089REMSYN060AAXX  10204 06730 43/// /1312 11140 21175 36499 47008 5////;
0096067300999992011011021004+46550+007983FM-12+357699999V0201201N004619999999N9999999N1-01371-01731999999ADDMA1999999065031ME1430129REMSYN060AAXX  10214 06730 43/// /1209 11137 21173 36503 47012 5////;
0096067300999992011011022004+46550+007983FM-12+357699999V0201301N004119999999N9999999N1-01381-01641999999ADDMA1999999065011ME1430109REMSYN060AAXX  10224 06730 43/// /1308 11138 21164 36501 47010 5////;
0096067300999992011011023004+46550+007983FM-12+357699999V0201301N005119999999N9999999N1-01471-01571999999ADDMA1999999064981ME1430089REMSYN060AAXX  10234 06730 43/// /1310 11147 21157 36498 47008 5////;
0096067300999992011011100004+46550+007983FM-12+357699999V0201201N003619999999N9999999N1-01391-02181999999ADDMA1999999064951ME1430039REMSYN060AAXX  11004 06730 43/// /1207 11139 21218 36495 47003 5////;
0096067300999992011011101004+46550+007983FM-12+357699999V0201101N000519999999N9999999N1-01281-02591999999ADDMA1999999064921ME1429979REMSYN060AAXX  11014 06730 43/// /1101 11128 21259 36492 47997 5////;
0096067300999992011011102004+46550+007983FM-12+357699999V0203001N004119999999N9999999N1-01301-02541999999ADDMA1999999064911ME1429969REMSYN060AAXX  11024 06730 43/// /3008 11130 21254 36491 47996 5////;
0096067300999992011011103004+46550+007983FM-12+357699999V0203501N002619999999N9999999N1-01331-02641999999ADDMA1999999064871ME1429929REMSYN060AAXX  11034 06730 43/// /3505 11133 21264 36487 47992 5////;
0096067300999992011011104004+46550+007983FM-12+357699999V0203201N002119999999N9999999N1-01321-02841999999ADDMA1999999064851ME1429899REMSYN060AAXX  11044 06730 43/// /3204 11132 21284 36485 47989 5////;
0096067300999992011011105004+46550+007983FM-12+357699999V0203001N002619999999N9999999N1-01321-02921999999ADDMA1999999064821ME1429869REMSYN060AAXX  11054 06730 43/// /3005 11132 21292 36482 47986 5////;
0208067300999992011011106004+46550+007983FM-12+357699999V0201001N000512200019N0700001N1-01311-02791999999ADDGA1011+054001001GF101991001001999999001011GG1069034009019999GJ102289IA1239MA1999999064801ME1429839REMSYN098AAXX  11064 06730 42988 11001 11131 21279 36480 47983 5//// 80001 333 47/// 55038 81068 444 76134;
0149067300999992011011107004+46550+007983FM-12+357699999V0201401N000519999999N9999999N1-01291-03021999999ADDMA1999999064791MD1619999+9999ME1429819OA149900461REMSYN088AAXX  11074 06730 43/// /1401 11129 21302 36479 47981 56/// 333 55300 20000 91109 91207;
0112067300999992011011108004+46550+007983FM-12+357699999V0201401N002119999999N9999999N1-01271-02871999999ADDMA1999999064791ME1429819REMSYN076AAXX  11084 06730 43/// /1404 11127 21287 36479 47981 5//// 333 553// 20133;
0182067300999992011011109004+46550+007983FM-12+357699999V0201401N003612200019N0750001N1-01281-02631999999ADDGA1011+014101031GF101991011001012501051011GG1069049009019999MA1999999064761ME1429789REMSYN086AAXX  11094 06730 42689 11407 11128 21263 36476 47978 5//// 81051 333 81347 444 16149;
0149067300999992011011110004+46550+007983FM-12+357699999V0201301N004619999999N9999999N1-01201-02721999999ADDMA1999999064771MD1710021+9999ME1429779OA149900671REMSYN088AAXX  11104 06730 43/// /1309 11120 21272 36477 47977 57002 333 553// 2//// 91113 91209;
0149067300999992011011111004+46550+007983FM-12+357699999V0201701N002619999999N9999999N1-01151-02571999999ADDMA1999999064721MD1710071+9999ME1429709OA149901241REMSYN088AAXX  11114 06730 43/// /1705 11115 21257 36472 47970 57007 333 55307 2//// 91124 91209;
0194067300999992011011112004+46550+007983FM-12+357699999V0201301N00051011101CN0750001N1-01021-02511999999ADDGA1061+011101041GF107991061001012501011061GG1069069009019999MA1999999064651ME1429589REMSYN098AAXX  11124 06730 42689 71301 11102 21251 36465 47958 5//// 86016 333 553// 2//// 86437 444 36169;
0149067300999992011011113004+46550+007983FM-12+357699999V0201301N007719999999N9999999N1-01271-01781999999ADDMA1999999064571MD1710201+9999ME1429549OA149900931REMSYN088AAXX  11134 06730 43/// /1315 11127 21178 36457 47954 57020 333 55300 20720 91118 91215;
0096067300999992011011114004+46550+007983FM-12+357699999V0203401N003119999999N9999999N1-01251-01431999999ADDMA1999999064561ME1429539REMSYN060AAXX  11144 06730 43/// /3406 11125 21143 36456 47953 5////;
0166067300999992011011115004+46550+007983FM-12+357699999V0203301N008210001519N0000001N1-01241-01321999999ADDAY171031AY241031GA1091+999999999GF109991091999999999999999MA1999999064571ME1429549MW1731REMSYN066AAXX  11154 06730 41/00 93316 11124 21132 36457 47954 5//// 77374;
0168067300999992011011116004+46550+007983FM-12+357699999V0203401N009819999999N9999999N1-01261-01401999999ADDMA1999999064571MD1410001+9999ME1429549OA149901851REMSYN088AAXX  11164 06730 43/// /3419 11126 21140 36457 47954 52000 333 55300 20054 91136 91219;EQDQ01+000022APCTEN
0149067300999992011011117004+46550+007983FM-12+357699999V0203301N011819999999N9999999N1-01361-01441999999ADDMA1999999064581MD1210021+9999ME1429589OA149902161REMSYN088AAXX  11174 06730 43/// /3323 11136 21144 36458 47958 52002 333 55300 20000 91142 91223;
0250067300999992011011118004+46550+007983FM-12+357699999V0203401N010310001519N0000001N1-01461-02011999999ADDAY171061AY241061GA1091+999999999GF109991091999999999999999IA1239KA1120M-01021MA1999999064641MD1210071+9999ME1429679MW1711OA149902161REMSYN106AAXX  11184 06730 41/00 93420 11146 21201 36464 47967 52007 77174 333 11102 47/// 55300 20000 91142 91223;
0149067300999992011011119004+46550+007983FM-12+357699999V0203301N009319999999N9999999N1-01481-01571999999ADDMA1999999064681MD1210111+9999ME1429739OA149901801REMSYN088AAXX  11194 06730 43/// /3318 11148 21157 36468 47973 52011 333 55300 20000 91135 91220;
0149067300999992011011120004+46550+007983FM-12+357699999V0203101N011819999999N9999999N1-01461-01521999999ADDMA1999999064711MD1210131+9999ME1429769OA149901801REMSYN088AAXX  11204 06730 43/// /3123 11146 21152 36471 47976 52013 333 55300 20000 91135 91223;
0149067300999992011011121004+46550+007983FM-12+357699999V0203101N011319999999N9999999N1-01391-01451999999ADDMA1999999064761MD1210121+9999ME1429809OA149902161REMSYN088AAXX  11214 06730 43/// /3122 11139 21145 36476 47980 52012 333 55300 20000 91142 91224;
0149067300999992011011122004+46550+007983FM-12+357699999V0203101N011319999999N9999999N1-01391-01481999999ADDMA1999999064831MD1210151+9999ME1429889OA149901751REMSYN088AAXX  11224 06730 43/// /3122 11139 21148 36483 47988 52015 333 55300 20000 91134 91224;
0149067300999992011011123004+46550+007983FM-12+357699999V0203001N010819999999N9999999N1-01411-01511999999ADDMA1999999064871MD1110161+9999ME1429949OA149901751REMSYN088AAXX  11234 06730 43/// /3021 11141 21151 36487 47994 51016 333 55300 20000 91134 91224;
0149067300999992011011200004+46550+007983FM-12+357699999V0203101N009319999999N9999999N1-01471-01531999999ADDMA1999999064921MD1110161+9999ME1430019OA149902161REMSYN088AAXX  12004 06730 43/// /3118 11147 21153 36492 47001 51016 333 55300 20000 91142 91224;
0149067300999992011011201004+46550+007983FM-12+357699999V0203201N008219999999N9999999N1-01551-01601999999ADDMA1999999064971MD1310141+9999ME1430099OA149901701REMSYN088AAXX  12014 06730 43/// /3216 11155 21160 36497 47009 53014 333 55300 20000 91133 91223;
0112067300999992011011202004+46550+007983FM-12+357699999V0203301N008219999999N9999999N1-01511-01611999999ADDMA1999999065021ME1430149REMSYN076AAXX  12024 06730 43/// /3316 11151 21161 36502 47014 5//// 333 553// 20000;
0096067300999992011011203004+46550+007983FM-12+357699999V0203101N011819999999N9999999N1-01471-01531999999ADDMA1999999065071ME1430199REMSYN060AAXX  12034 06730 43/// /3123 11147 21153 36507 47019 5////;
0096067300999992011011204004+46550+007983FM-12+357699999V0203301N008719999999N9999999N1-01391-01761999999ADDMA1999999065111ME1430229REMSYN060AAXX  12044 06730 43/// /3317 11139 21176 36511 47022 5////;
0112067300999992011011205004+46550+007983FM-12+357699999V0203301N009819999999N9999999N1-01431-02251999999ADDMA1999999065171ME1430309REMSYN076AAXX  12054 06730 43/// /3319 11143 21225 36517 47030 5//// 333 553// 20000;
0239067300999992011011206004+46550+007983FM-12+357699999V0203101N011312200019N0600001N1-01441-02611999999ADDGA1041+009301031GF104991041001008001041999GG1069059009019999GJ102109IA1239KA1999N-01571MA1999999065231ME1430379MW1361REMSYN110AAXX  12064 06730 41586 43122 11144 21261 36523 47037 5//// 736// 8404/ 333 21157 47/// 55035 84331 444 36159;
0149067300999992011011207004+46550+007983FM-12+357699999V0203001N011319999999N9999999N1-01291-03131999999ADDMA1999999065291MD1210181+9999ME1430419OA149901901REMSYN088AAXX  12074 06730 43/// /3022 11129 21313 36529 47041 52018 333 55300 20000 91137 91223;
0096067300999992011011208004+46550+007983FM-12+357699999V0203101N009819999999N9999999N1-01251-02961999999ADDMA1999999065361ME1430489REMSYN060AAXX  12084 06730 43/// /3119 11125 21296 36536 47048 5////;
0192067300999992011011209004+46550+007983FM-12+357699999V0203101N009810033019N0600001N1-01251-02281999999ADDAY121031AY221031GA1081+003301041GF108991081001004501011999MA1999999065381ME1430519MW1361REMSYN092AAXX  12094 06730 41486 83119 11125 21228 36538 47051 5//// 73622 8801/ 333 88411 444 36159;
0149067300999992011011210004+46550+007983FM-12+357699999V0203201N008719999999N9999999N1-01231-01331999999ADDMA1999999065451MD1219999+9999ME1430599OA149901541REMSYN088AAXX  12104 06730 43/// /3217 11123 21133 36545 47059 52/// 333 55300 20616 91130 91219;
0126067300999992011011211004+46550+007983FM-12+357699999V0203101N009319999999N9999999N1-00961-00981999999ADDMA1999999065461MD1210101+9999ME1430549REMSYN076AAXX  12114 06730 43/// /3118 11096 21098 36546 47054 52010 333 55300 20626;
0096067300999992011011212004+46550+007983FM-12+357699999V0203101N011819999999N9999999N1-00801-00831999999ADDMA1999999065461ME1430519REMSYN060AAXX  12124 06730 43/// /3123 11080 21083 36546 47051 5////;
0096067300999992011011213004+46550+007983FM-12+357699999V0203001N013919999999N9999999N1-00731-00751999999ADDMA1999999065431ME1430469REMSYN060AAXX  12134 06730 43/// /3027 11073 21075 36543 47046 5////;
0096067300999992011011214004+46550+007983FM-12+357699999V0203001N012919999999N9999999N1-00751-00791999999ADDMA1999999065471ME1430519REMSYN060AAXX  12144 06730 43/// /3025 11075 21079 36547 47051 5////;
0166067300999992011011215004+46550+007983FM-12+357699999V0203001N013410001519N0000001N1-00711-00741999999ADDAY171031AY241031GA1091+999999999GF109991091999999999999999MA1999999065511ME1430559MW1731REMSYN066AAXX  12154 06730 41/00 93026 11071 21074 36551 47055 5//// 77374;
0149067300999992011011216004+46550+007983FM-12+357699999V0203101N014919999999N9999999N1-00701-00731999999ADDMA1999999065521MD1210091+9999ME1430569OA149902011REMSYN088AAXX  12164 06730 43/// /3129 11070 21073 36552 47056 52009 333 55300 20025 91139 91229;
0149067300999992011011217004+46550+007983FM-12+357699999V0203101N012919999999N9999999N1-00731-00771999999ADDMA1999999065611MD1210141+9999ME1430689OA149902011REMSYN088AAXX  12174 06730 43/// /3125 11073 21077 36561 47068 52014 333 55300 20000 91139 91229;
0250067300999992011011218004+46550+007983FM-12+357699999V0203101N012310001519N0000001N1-00831-00851999999ADDAY171061AY241061GA1091+999999999GF109991091999999999999999IA1239KA1120M-00691MA1999999065631MD1210121+9999ME1430729MW1731OA149902111REMSYN106AAXX  12184 06730 41/00 93124 11083 21085 36563 47072 52012 77374 333 11069 47/// 55300 20000 91141 91229;
0149067300999992011011219004+46550+007983FM-12+357699999V0203101N012319999999N9999999N1-00781-00801999999ADDMA1999999065661MD1210141+9999ME1430759OA149902111REMSYN088AAXX  12194 06730 43/// /3124 11078 21080 36566 47075 52014 333 55300 20000 91141 91225;
0149067300999992011011220004+46550+007983FM-12+357699999V0203301N010319999999N9999999N1-00771-00801999999ADDMA1999999065681MD1210071+9999ME1430779OA149901961REMSYN088AAXX  12204 06730 43/// /3320 11077 21080 36568 47077 52007 333 55300 20000 91138 91224;
0149067300999992011011221004+46550+007983FM-12+357699999V0203101N011819999999N9999999N1-00691-00701999999ADDMA1999999065691MD1210061+9999ME1430779OA149902111REMSYN088AAXX  12214 06730 43/// /3123 11069 21070 36569 47077 52006 333 55300 20000 91141 91229;
0149067300999992011011222004+46550+007983FM-12+357699999V0203101N012319999999N9999999N1-00671-00691999999ADDMA1999999065701MD1210041+9999ME1430779OA149902111REMSYN088AAXX  12224 06730 43/// /3124 11067 21069 36570 47077 52004 333 55300 20000 91141 91225;
0149067300999992011011223004+46550+007983FM-12+357699999V0203001N012919999999N9999999N1-00641-00651999999ADDMA1999999065701MD1210021+9999ME1430779OA149902111REMSYN088AAXX  12234 06730 43/// /3025 11064 21065 36570 47077 52002 333 55300 20000 91141 91226;
0149067300999992011011300004+46550+007983FM-12+357699999V0203001N012319999999N9999999N1-00701-00721999999ADDMA1999999065691MD1010001+9999ME1430779OA149902111REMSYN088AAXX  13004 06730 43/// /3024 11070 21072 36569 47077 50000 333 55300 20000 91141 91229;
0149067300999992011011301004+46550+007983FM-12+357699999V0203001N012919999999N9999999N1-00741-00751999999ADDMA1999999065671MD1710031+9999ME1430759OA149901961REMSYN088AAXX  13014 06730 43/// /3025 11074 21075 36567 47075 57003 333 55300 20000 91138 91226;
0149067300999992011011302004+46550+007983FM-12+357699999V0203001N014419999999N9999999N1-00671-00691999999ADDMA1999999065651MD1719999+9999ME1430719OA149901961REMSYN088AAXX  13024 06730 43/// /3028 11067 21069 36565 47071 57/// 333 55300 20000 91138 91229;
0096067300999992011011303004+46550+007983FM-12+357699999V0202901N014919999999N9999999N1-00651-00661999999ADDMA1999999065671ME1430739REMSYN060AAXX  13034 06730 43/// /2929 11065 21066 36567 47073 5////;
0149067300999992011011304004+46550+007983FM-12+357699999V0203001N013419999999N9999999N1-00631-00671999999ADDMA1999999065671MD1219999+9999ME1430739OA149902111REMSYN088AAXX  13044 06730 43/// /3026 11063 21067 36567 47073 52/// 333 55300 20000 91141 91230;
0112067300999992011011305004+46550+007983FM-12+357699999V0203001N014919999999N9999999N1-00681-00681999999ADDMA1999999065691ME1430769REMSYN076AAXX  13054 06730 43/// /3029 11068 21068 36569 47076 5//// 333 553// 20000;
0264067300999992011011306004+46550+007983FM-12+357699999V0203001N014410001519N0000001N1-00701-00751999999ADDAY171061AY241061GA1091+999999999GF109991091999999999999999GJ100009IA1239KA1999N-00851MA1999999065701MD1310031+9999ME1430789MW1751OA149902321REMSYN112AAXX  13064 06730 41/00 93028 11070 21075 36570 47078 53003 77574 333 21085 47/// 55000 55300 20000 91145 91230;
0096067300999992011011307004+46550+007983FM-12+357699999V0203101N012919999999N9999999N1-00751-00801999999ADDMA1999999065751ME1430859REMSYN060AAXX  13074 06730 43/// /3125 11075 21080 36575 47085 5////;
0096067300999992011011308004+46550+007983FM-12+357699999V0203101N011319999999N9999999N1-00851-00911999999ADDMA1999999065811ME1430949REMSYN060AAXX  13084 06730 43/// /3122 11085 21091 36581 47094 5////;
0166067300999992011011309004+46550+007983FM-12+357699999V0203401N013410001519N0000001N1-00811-00861999999ADDAY171031AY241031GA1091+999999999GF109991091999999999999999MA1999999065771ME1430899MW1721REMSYN066AAXX  13094 06730 41/00 93426 11081 21086 36577 47089 5//// 77274;
0096067300999992011011310004+46550+007983FM-12+357699999V0203001N015419999999N9999999N1-00741-00881999999ADDMA1999999065791ME1430909REMSYN060AAXX  13104 06730 43/// /3030 11074 21088 36579 47090 5////;
0096067300999992011011311004+46550+007983FM-12+357699999V0203301N010819999999N9999999N1-00771-01051999999ADDMA1999999065801ME1430919REMSYN060AAXX  13114 06730 43/// /3321 11077 21105 36580 47091 5////;
0182067300999992011011312004+46550+007983FM-12+357699999V0203201N010310072019N0600001N1-00811-01331999999ADDAY171061AY241061GA1081+007201031GF108991081001008001071999MA1999999065791ME1430919MW1021REMSYN082AAXX  13124 06730 41586 83220 11081 21133 36579 47091 5//// 70274 8807/ 333 88324;
0096067300999992011011313004+46550+007983FM-12+357699999V0203101N011319999999N9999999N1-00781-01071999999ADDMA1999999065761ME1430879REMSYN060AAXX  13134 06730 43/// /3122 11078 21107 36576 47087 5////;
0096067300999992011011314004+46550+007983FM-12+357699999V0203201N011819999999N9999999N1-00731-00791999999ADDMA1999999065771ME1430879REMSYN060AAXX  13144 06730 43/// /3223 11073 21079 36577 47087 5////;
0166067300999992011011315004+46550+007983FM-12+357699999V0203201N011810001519N0000001N1-00721-00781999999ADDAY141031AY231031GA1091+999999999GF109991091999999999999999MA1999999065771ME1430879MW1471REMSYN066AAXX  13154 06730 41/00 93223 11072 21078 36577 47087 5//// 74743;
0096067300999992011011316004+46550+007983FM-12+357699999V0203101N011819999999N9999999N1-00731-00781999999ADDMA1999999065771ME1430879REMSYN060AAXX  13164 06730 43/// /3123 11073 21078 36577 47087 5////;
0149067300999992011011317004+46550+007983FM-12+357699999V0203101N010819999999N9999999N1-00751-00821999999ADDMA1999999065791MD1210021+9999ME1430909OA149901801REMSYN088AAXX  13174 06730 43/// /3121 11075 21082 36579 47090 52002 333 55300 20000 91135 91225;
0269067300999992011011318004+46550+007983FM-12+357699999V0203101N009810001519N0000001N1-00721-00761999999ADDAY141061AY231061GA1091+999999999GF109991091999999999999999IA1239KA1120M-00681MA1999999065771MD1410001+9999ME1430879MW1491OA149902631REMSYN106AAXX  13184 06730 41/00 93119 11072 21076 36577 47087 57000 74943 333 11068 47/// 55300 20000 91151 91233;EQDQ01+000072APCTEN
0168067300999992011011319004+46550+007983FM-12+357699999V0203201N010319999999N9999999N1-00741-00801999999ADDMA1999999065771MD1410001+9999ME1430879OA149901751REMSYN088AAXX  13194 06730 43/// /3220 11074 21080 36577 47087 57000 333 55300 20000 91134 91223;EQDQ01+000072APCTEN
0149067300999992011011320004+46550+007983FM-12+357699999V0203101N010819999999N9999999N1-00731-00811999999ADDMA1999999065771MD1210021+9999ME1430879OA149901751REMSYN088AAXX  13204 06730 43/// /3121 11073 21081 36577 47087 52002 333 55300 20000 91134 91221;
0149067300999992011011321004+46550+007983FM-12+357699999V0203101N010319999999N9999999N1-00741-00801999999ADDMA1999999065781MD1010011+9999ME1430889OA149901801REMSYN088AAXX  13214 06730 43/// /3120 11074 21080 36578 47088 50001 333 55300 20000 91135 91225;
0149067300999992011011322004+46550+007983FM-12+357699999V0203201N009819999999N9999999N1-00771-00861999999ADDMA1999999065781MD1510011+9999ME1430899OA149901701REMSYN088AAXX  13224 06730 43/// /3219 11077 21086 36578 47089 55001 333 55300 20000 91133 91222;
0149067300999992011011323004+46550+007983FM-12+357699999V0203101N008719999999N9999999N1-00771-00891999999ADDMA1999999065791MD1210021+9999ME1430909OA149901751REMSYN088AAXX  13234 06730 43/// /3117 11077 21089 36579 47090 52002 333 55300 20000 91134 91220;
0149067300999992011011400004+46550+007983FM-12+357699999V0203101N008219999999N9999999N1-00791-00951999999ADDMA1999999065771MD1810011+9999ME1430889OA149902061REMSYN088AAXX  14004 06730 43/// /3116 11079 21095 36577 47088 58001 333 55300 20000 91140 91226;
0149067300999992011011401004+46550+007983FM-12+357699999V0203201N008219999999N9999999N1-00741-00801999999ADDMA1999999065771MD1010011+9999ME1430879OA149901601REMSYN088AAXX  14014 06730 43/// /3216 11074 21080 36577 47087 50001 333 55300 20000 91131 91217;
0112067300999992011011402004+46550+007983FM-12+357699999V0203201N008719999999N9999999N1-00751-00841999999ADDMA1999999065791ME1430909REMSYN076AAXX  14024 06730 43/// /3217 11075 21084 36579 47090 5//// 333 553// 20000;
0149067300999992011011403004+46550+007983FM-12+357699999V0203301N007719999999N9999999N1-00771-01041999999ADDMA1999999065791MD1210021+9999ME1430909OA149901751REMSYN088AAXX  14034 06730 43/// /3315 11077 21104 36579 47090 52002 333 55300 20000 91134 91220;
0149067300999992011011404004+46550+007983FM-12+357699999V0203201N007719999999N9999999N1-00781-01331999999ADDMA1999999065801MD1210031+9999ME1430929OA149901491REMSYN088AAXX  14044 06730 43/// /3215 11078 21133 36580 47092 52003 333 55300 20000 91129 91217;
0149067300999992011011405004+46550+007983FM-12+357699999V0203301N007719999999N9999999N1-00781-01461999999ADDMA1999999065811MD1210021+9999ME1430939OA149901491REMSYN088AAXX  14054 06730 43/// /3315 11078 21146 36581 47093 52002 333 55300 20000 91129 91217;
0246067300999992011011406004+46550+007983FM-12+357699999V0203301N005712200019N0600001N1-00731-01731999999ADDGA1001+999999999GF100991001001999999001001GJ100009IA1239KA1999N-00801MA1999999065841MD1210051+9999ME1430959OA149901751REMSYN116AAXX  14064 06730 42986 03311 11073 21173 36584 47095 52005 333 21080 47/// 55000 55300 20000 91134 91222 444 36153;
0149067300999992011011407004+46550+007983FM-12+357699999V0203401N005719999999N9999999N1-00711-01741999999ADDMA1999999065861MD1210061+9999ME1430979OA149901131REMSYN088AAXX  14074 06730 43/// /3411 11071 21174 36586 47097 52006 333 55300 20000 91122 91214;
0096067300999992011011408004+46550+007983FM-12+357699999V0203201N006719999999N9999999N1-00611-01791999999ADDMA1999999065871ME1430979REMSYN060AAXX  14084 06730 43/// /3213 11061 21179 36587 47097 5////;
0182067300999992011011409004+46550+007983FM-12+357699999V0203401N005112200019N0750001N1-00531-01921999999ADDGA1041+045001011GF104991001001999999001091GG1069054009019999MA1999999065911ME1431009REMSYN086AAXX  14094 06730 42989 43410 11053 21192 36591 47100 5//// 80009 333 84165 444 46154;
0096067300999992011011410004+46550+007983FM-12+357699999V0203301N006719999999N9999999N1-00521-02331999999ADDMA1999999065931ME1431029REMSYN060AAXX  14104 06730 43/// /3313 11052 21233 36593 47102 5////;
0149067300999992011011411004+46550+007983FM-12+357699999V0203201N006719999999N9999999N1-00461-02971999999ADDMA1999999065931MD1210061+9999ME1431019OA149901291REMSYN088AAXX  14114 06730 43/// /3213 11046 21297 36593 47101 52006 333 553// 2//// 91125 91214;
0231067300999992011011412004+46550+007983FM-12+357699999V0203301N00821045001CN0750001N1-00421-02631999999ADDGA1061+045001001GF106991001001999999001051GG1069076009019999MA1999999065891MD1810021+9999ME1430969OA149901541REMSYN110AAXX  14124 06730 42989 63316 11042 21263 36589 47096 58002 80005 333 553// 2//// 86065 91130 91218 444 26176;
0149067300999992011011413004+46550+007983FM-12+357699999V0203201N007219999999N9999999N1-00391-02691999999ADDMA1999999065881MD1710051+9999ME1430949OA149901541REMSYN088AAXX  14134 06730 43/// /3214 11039 21269 36588 47094 57005 333 553// 2//// 91130 91217;
0112067300999992011011414004+46550+007983FM-12+357699999V0203301N005719999999N9999999N1-00351-02811999999ADDMA1999999065881ME1430939REMSYN076AAXX  14144 06730 43/// /3311 11035 21281 36588 47093 5//// 333 553// 2////;
0250067300999992011011415004+46550+007983FM-12+357699999V0203101N00461045001CN0750001N1-00301-03171999999ADDGA1081+045001021GF108991001001999999001061GG1069066009019999MA1999999065891MD1410001+9999ME1430949OA149901541REMSYN110AAXX  14154 06730 42989 83109 11030 21317 36589 47094 57000 80006 333 55307 20598 88265 91130 91217 444 26166;EQDQ01+000072APCTEN
0149067300999992011011416004+46550+007983FM-12+357699999V0203201N004119999999N9999999N1-00441-03071999999ADDMA1999999065891MD1210011+9999ME1430969OA149901241REMSYN088AAXX  14164 06730 43/// /3208 11044 21307 36589 47096 52001 333 55300 20112 91124 91211;
0149067300999992011011417004+46550+007983FM-12+357699999V0203301N004119999999N9999999N1-00521-02761999999ADDMA1999999065921MD1210041+9999ME1431019OA149901081REMSYN088AAXX  14174 06730 43/// /3308 11052 21276 36592 47101 52004 333 55300 20000 91121 91209;
0234067300999992011011418004+46550+007983FM-12+357699999V0202901N00621045001CN0750001N1-00521-03001999999ADDGA1051+045001021GF105991001001999999001061IA1239KA1120M-00301MA1999999065901MD1210011+9999ME1430999OA149901651REMSYN112AAXX  14184 06730 42989 52912 11052 21300 36590 47099 52001 80006 333 11030 47/// 55300 20000 85265 91132 91217;
0149067300999992011011419004+46550+007983FM-12+357699999V0203301N004619999999N9999999N1-00571-02921999999ADDMA1999999065861MD1810031+9999ME1430959OA149901701REMSYN088AAXX  14194 06730 43/// /3309 11057 21292 36586 47095 58003 333 55300 20000 91133 91218;
0149067300999992011011420004+46550+007983FM-12+357699999V0203101N006719999999N9999999N1-00611-03031999999ADDMA1999999065811MD1710111+9999ME1430909OA149901701REMSYN088AAXX  14204 06730 43/// /3113 11061 21303 36581 47090 57011 333 55300 20000 91133 91218;
0149067300999992011011421004+46550+007983FM-12+357699999V0203301N005119999999N9999999N1-00661-02901999999ADDMA1999999065771MD1710131+9999ME1430869OA149901701REMSYN088AAXX  14214 06730 43/// /3310 11066 21290 36577 47086 57013 333 55300 20000 91133 91218;
0149067300999992011011422004+46550+007983FM-12+357699999V0203401N006219999999N9999999N1-00681-02741999999ADDMA1999999065701MD1710161+9999ME1430789OA149901851REMSYN088AAXX  14224 06730 43/// /3412 11068 21274 36570 47078 57016 333 55300 20000 91136 91215;
0149067300999992011011423004+46550+007983FM-12+357699999V0203501N007219999999N9999999N1-00781-02611999999ADDMA1999999065641MD1810171+9999ME1430729OA149902011REMSYN088AAXX  14234 06730 43/// /3514 11078 21261 36564 47072 58017 333 55300 20000 91139 91216;
0149067300999992011011500004+46550+007983FM-12+357699999V0203101N010819999999N9999999N1-01101-01851999999ADDMA1999999065581MD1710191+9999ME1430719OA149902161REMSYN088AAXX  15004 06730 43/// /3121 11110 21185 36558 47071 57019 333 55300 20000 91142 91221;
0168067300999992011011501004+46550+007983FM-12+357699999V0203301N011819999999N9999999N1-01241-01411999999ADDMA1999999065511MD1710191+9999ME1430669OA149902521REMSYN088AAXX  15014 06730 43/// /3323 11124 21141 36551 47066 57019 333 55300 20000 91149 91223;EQDQ01-001413ATOD  
0149067300999992011011502004+46550+007983FM-12+357699999V0203301N015419999999N9999999N1-01141-01591999999ADDMA1999999065451MD1719999+9999ME1430579OA149903241REMSYN088AAXX  15024 06730 43/// /3330 11114 21159 36545 47057 57/// 333 55300 20000 91163 91233;
0112067300999992011011503004+46550+007983FM-12+357699999V0203101N018019999999N9999999N1-01201-01261999999ADDMA1999999065471ME1430609REMSYN076AAXX  15034 06730 43/// /3135 11120 21126 36547 47060 5//// 333 553// 20000;
0149067300999992011011504004+46550+007983FM-12+357699999V0203101N015919999999N9999999N1-01211-01281999999ADDMA1999999065561MD1310051+9999ME1430719OA149903191REMSYN088AAXX  15044 06730 43/// /3131 11121 21128 36556 47071 53005 333 55300 20000 91162 91236;
0149067300999992011011505004+46550+007983FM-12+357699999V0203301N009819999999N9999999N1-01231-01321999999ADDMA1999999065681MD1210231+9999ME1430869OA149902571REMSYN088AAXX  15054 06730 43/// /3319 11123 21132 36568 47086 52023 333 55300 20000 91150 91232;
0311067300999992011011506004+46550+007983FM-12+357699999V0203301N011812200019N0750001N1-01221-02602999999ADDAY131061AY201061GA1001+999999999GF100991001001999999001001GG1069066009019999GJ104149IA1239KA1999N-01301MA1999999065751MD1210281+9999ME1430949MW1361OA149903241REMSYN122AAXX  15064 06730 41989 03323 11122 21260 36575 47094 52028 73630 333 21130 47/// 55069 55300 20000 91163 91236 444 36166;EQDQ01-002603ATOD  
0149067300999992011011507004+46550+007983FM-12+357699999V0203201N007219999999N9999999N1-01191-02771999999ADDMA1999999065881MD1210321+9999ME1431099OA149901751REMSYN088AAXX  15074 06730 43/// /3214 11119 21277 36588 47109 52032 333 55300 20000 91134 91223;
0149067300999992011011508004+46550+007983FM-12+357699999V0203301N008219999999N9999999N1-01051-02621999999ADDMA1999999065901MD1219999+9999ME1431089OA149901601REMSYN088AAXX  15084 06730 43/// /3316 11105 21262 36590 47108 52/// 333 55306 20144 91131 91220;
0231067300999992011011509004+46550+007983FM-12+357699999V0203201N009812200019N0750001N1-00911-03071999999ADDAY131031AY201031GA1021+045001001GF102991001001999999001011MA1999999065951MD1210201+9999ME1431129MW1381OA149902571REMSYN106AAXX  15094 06730 41989 23219 11091 21307 36595 47112 52020 73830 80001 333 553// 20666 82065 91150 91232;
0149067300999992011011510004+46550+007983FM-12+357699999V0203101N008719999999N9999999N1-00761-03291999999ADDMA1999999066061MD1210181+9999ME1431229OA149901701REMSYN088AAXX  15104 06730 43/// /3117 11076 21329 36606 47122 52018 333 553// 2//// 91133 91224;
0149067300999992011011511004+46550+007983FM-12+357699999V0203201N007719999999N9999999N1-00661-02711999999ADDMA1999999066091MD1210191+9999ME1431249OA149901701REMSYN088AAXX  15114 06730 43/// /3215 11066 21271 36609 47124 52019 333 553// 2//// 91133 91222;
0231067300999992011011512004+46550+007983FM-12+357699999V0203301N008212200019N0750001N1-00571-02531999999ADDGA1021+045001001GF102991001001999999001021GG1069006009029999MA1999999066101MD1210151+9999ME1431249OA149903241REMSYN110AAXX  15124 06730 42989 23316 11057 21253 36610 47124 52015 80002 333 553// 2//// 82065 91163 91236 444 26206;
0112067300999992011011513004+46550+007983FM-12+357699999V0203101N010319999999N9999999N1-00531-02361999999ADDMA1999999066071ME1431199REMSYN076AAXX  15134 06730 43/// /3120 11053 21236 36607 47119 5//// 333 553// 2////;
0096067300999992011011514004+46550+007983FM-12+357699999V0203101N010819999999N9999999N1-00551-01721999999ADDMA1999999066101ME1431239REMSYN060AAXX  15144 06730 43/// /3121 11055 21172 36610 47123 5////;
0160067300999992011011515004+46550+007983FM-12+357699999V0203101N00981220001CN0750001N1-00521-01131999999ADDGA1031+014101031GF106991031001012501041061MA1999999066141ME1431289REMSYN082AAXX  15154 06730 42689 63119 11052 21113 36614 47128 5//// 83046 333 83347 85065;
0096067300999992011011516004+46550+007983FM-12+357699999V0203201N009319999999N9999999N1-00571-00971999999ADDMA1999999066191ME1431359REMSYN060AAXX  15164 06730 43/// /3218 11057 21097 36619 47135 5////;
0112067300999992011011517004+46550+007983FM-12+357699999V0203201N009819999999N9999999N1-00581-00871999999ADDMA1999999066221ME1431389REMSYN076AAXX  15174 06730 43/// /3219 11058 21087 36622 47138 5//// 333 553// 20000;
0185067300999992011011518004+46550+007983FM-12+357699999V0203001N009812200019N0750001N1-00601-00801999999ADDGA1021+005101031GF102991021001004501041001IA1239KA1120M-00501MA1999999066251ME1431429REMSYN088AAXX  15184 06730 42489 23019 11060 21080 36625 47142 5//// 82040 333 11050 47/// 82317;
0096067300999992011011519004+46550+007983FM-12+357699999V0203001N008719999999N9999999N1-00571-00821999999ADDMA1999999066281ME1431459REMSYN060AAXX  15194 06730 43/// /3017 11057 21082 36628 47145 5////;
0096067300999992011011520004+46550+007983FM-12+357699999V0203101N006719999999N9999999N1-00601-00801999999ADDMA1999999066331ME1431529REMSYN060AAXX  15204 06730 43/// /3113 11060 21080 36633 47152 5////;
0149067300999992011011521004+46550+007983FM-12+357699999V0203301N004119999999N9999999N1-00551-00821999999ADDMA1999999066371MD1110121+9999ME1431569OA149901751REMSYN088AAXX  15214 06730 43/// /3308 11055 21082 36637 47156 51012 333 55300 20000 91134 91221;
0149067300999992011011522004+46550+007983FM-12+357699999V0203401N004119999999N9999999N1-00361-00871999999ADDMA1999999066411MD1310131+9999ME1431589OA149900881REMSYN088AAXX  15224 06730 43/// /3408 11036 21087 36641 47158 53013 333 55300 20000 91117 91213;
0149067300999992011011523004+46550+007983FM-12+357699999V0203401N004119999999N9999999N1-00391-00911999999ADDMA1999999066421MD1210091+9999ME1431599OA149900881REMSYN088AAXX  15234 06730 43/// /3408 11039 21091 36642 47159 52009 333 55300 20000 91117 91210;
0149067300999992011011600004+46550+007983FM-12+357699999V0203501N002619999999N9999999N1-00321-01001999999ADDMA1999999066441MD1210071+9999ME1431619OA149901961REMSYN088AAXX  16004 06730 43/// /3505 11032 21100 36644 47161 52007 333 55300 20000 91138 91221;
0149067300999992011011601004+46550+007983FM-12+357699999V0203301N003619999999N9999999N1-00261-01151999999ADDMA1999999066461MD1210051+9999ME1431629OA149900881REMSYN088AAXX  16014 06730 43/// /3307 11026 21115 36646 47162 52005 333 55300 20000 91117 91208;
0149067300999992011011602004+46550+007983FM-12+357699999V0203401N003619999999N9999999N1-00191-01361999999ADDMA1999999066481MD1119999+9999ME1431639OA149900881REMSYN088AAXX  16024 06730 43/// /3407 11019 21136 36648 47163 51/// 333 55300 20000 91117 91208;
0131067300999992011011603004+46550+007983FM-12+357699999V0203201N005119999999N9999999N1-00161+99999999999ADDMA1999999066481ME1431639REMSYN060AAXX  16034 06730 43/// /3210 11016 21217 36648 47163 5////;EQDQ01-002173ATOD  Q02 -02173ATOD  
0149067300999992011011604004+46550+007983FM-12+357699999V0203301N005119999999N9999999N1-00251-01291999999ADDMA1999999066471MD1210011+9999ME1431639OA149900771REMSYN088AAXX  16044 06730 43/// /3310 11025 21129 36647 47163 52001 333 55300 20000 91115 91210;
0168067300999992011011605004+46550+007983FM-12+357699999V0203101N006219999999N9999999N1-00141-02662999999ADDMA1999999066491MD1310011+9999ME1431649OA149901181REMSYN088AAXX  16054 06730 43/// /3112 11014 21266 36649 47164 53001 333 55300 20000 91123 91212;EQDQ01-002663ATOD  
0236067300999992011011606004+46550+007983FM-12+357699999V0203101N005712200019N0750001N1-00201-02841999999ADDGA1001+999999999GF100991001001999999001001GJ104269IA1239KA1999N-00661MA1999999066511MD1210031+9999ME1431679OA149901341REMSYN106AAXX  16064 06730 42989 03111 11020 21284 36651 47167 52003 333 21066 47/// 55071 55300 20000 91126 91221;
0149067300999992011011607004+46550+007983FM-12+357699999V0203001N003619999999N9999999N1-00081-03611999999ADDMA1999999066531MD1110061+9999ME1431689OA149901241REMSYN088AAXX  16074 06730 43/// /3007 11008 21361 36653 47168 51006 333 55300 20000 91124 91213;
0149067300999992011011608004+46550+007983FM-12+357699999V0203101N003619999999N9999999N1-00131-03491999999ADDMA1999999066541MD1119999+9999ME1431709OA149901181REMSYN088AAXX  16084 06730 43/// /3107 11013 21349 36654 47170 51/// 333 55307 20151 91123 91212;
0191067300999992011011609004+46550+007983FM-12+357699999V0202801N000512200019N0750001N1-00071-03281999999ADDGA1001+999999999GF100991001001999999001001MA1999999066551MD1210041+9999ME1431709OA149901241REMSYN088AAXX  16094 06730 42989 02801 11007 21328 36655 47170 52004 333 553// 20695 91124 91213;
0149067300999992011011610004+46550+007983FM-12+357699999V0202601N001019999999N9999999N1-00011-03221999999ADDMA1999999066571MD1210041+9999ME1431719OA149901031REMSYN088AAXX  16104 06730 43/// /2602 11001 21322 36657 47171 52004 333 553// 2//// 91120 91207;
0149067300999992011011611004+46550+007983FM-12+357699999V0203101N001519999999N9999999N1-00011-03601999999ADDMA1999999066561MD1210021+9999ME1431709OA149901391REMSYN088AAXX  16114 06730 43/// /3103 11001 21360 36656 47170 52002 333 553// 2//// 91127 91208;
0191067300999992011011612004+46550+007983FM-12+357699999V0203501N004112200019N0750001N1-00021-03021999999ADDGA1001+999999999GF100991001001999999001001MA1999999066541MD1810011+9999ME1431689OA149901391REMSYN088AAXX  16124 06730 42989 03508 11002 21302 36654 47168 58001 333 553// 2//// 91127 91213;
0149067300999992011011613004+46550+007983FM-12+357699999V0203101N004119999999N9999999N1+00011-02951999999ADDMA1999999066511MD1710061+9999ME1431649OA149901241REMSYN088AAXX  16134 06730 43/// /3108 10001 21295 36651 47164 57006 333 553// 2//// 91124 91209;
0149067300999992011011614004+46550+007983FM-12+357699999V0200301N002119999999N9999999N1-00021-03131999999ADDMA1999999066511MD1719999+9999ME1431649OA149901391REMSYN088AAXX  16144 06730 43/// /0304 11002 21313 36651 47164 57/// 333 553// 2//// 91127 91209;
0191067300999992011011615004+46550+007983FM-12+357699999V0203501N003612200019N0750001N1-00041-03111999999ADDGA1001+999999999GF100991001001999999001001MA1999999066511MD1710031+9999ME1431659OA149901391REMSYN088AAXX  16154 06730 42989 03507 11004 21311 36651 47165 57003 333 553// 20817 91127 91209;
0149067300999992011011616004+46550+007983FM-12+357699999V0200301N003119999999N9999999N1-00111-02931999999ADDMA1999999066491MD1710021+9999ME1431639OA149901031REMSYN088AAXX  16164 06730 43/// /0306 11011 21293 36649 47163 57002 333 55300 20043 91120 91207;
0149067300999992011011617004+46550+007983FM-12+357699999V0201201N004119999999N9999999N1-00211-02861999999ADDMA1999999066481MD1710031+9999ME1431649OA149901031REMSYN088AAXX  16174 06730 43/// /1208 11021 21286 36648 47164 57003 333 55300 20000 91120 91208;
0222067300999992011011618004+46550+007983FM-12+357699999V0201101N006712200019N0750001N1-00241-02751999999ADDGA1001+999999999GF100991001001999999001001IA1239KA1120M+00071MA1999999066491MD1710021+9999ME1431659OA149901391REMSYN100AAXX  16184 06730 42989 01113 11024 21275 36649 47165 57002 333 10007 47/// 55300 20000 91127 91213;
0149067300999992011011619004+46550+007983FM-12+357699999V0201101N006719999999N9999999N1-00281-03321999999ADDMA1999999066481MD1710011+9999ME1431659OA149900931REMSYN088AAXX  16194 06730 43/// /1113 11028 21332 36648 47165 57001 333 55300 20000 91118 91213;
0149067300999992011011620004+46550+007983FM-12+357699999V0201401N004619999999N9999999N1-00241-02811999999ADDMA1999999066471MD1810011+9999ME1431639OA149900931REMSYN088AAXX  16204 06730 43/// /1409 11024 21281 36647 47163 58001 333 55300 20000 91118 91213;
0149067300999992011011621004+46550+007983FM-12+357699999V0201501N003619999999N9999999N1-00271-02871999999ADDMA1999999066461MD1710031+9999ME1431629OA149901031REMSYN088AAXX  16214 06730 43/// /1507 11027 21287 36646 47162 57003 333 55300 20000 91120 91213;
0149067300999992011011622004+46550+007983FM-12+357699999V0201401N004119999999N9999999N1-00281-02881999999ADDMA1999999066441MD1710041+9999ME1431609OA149900931REMSYN088AAXX  16224 06730 43/// /1408 11028 21288 36644 47160 57004 333 55300 20000 91118 91210;
0149067300999992011011623004+46550+007983FM-12+357699999V0201401N005119999999N9999999N1-00331-02891999999ADDMA1999999066411MD1610061+9999ME1431579OA149900881REMSYN088AAXX  16234 06730 43/// /1410 11033 21289 36641 47157 56006 333 55300 20000 91117 91211;
0149067300999992011011700004+46550+007983FM-12+357699999V0201301N005719999999N9999999N1-00331-02831999999ADDMA1999999066381MD1810081+9999ME1431539OA149901391REMSYN088AAXX  17004 06730 43/// /1311 11033 21283 36638 47153 58008 333 55300 20000 91127 91213;
0149067300999992011011701004+46550+007983FM-12+357699999V0201301N004619999999N9999999N1-00341-02791999999ADDMA1999999066351MD1810091+9999ME1431509OA149900981REMSYN088AAXX  17014 06730 43/// /1309 11034 21279 36635 47150 58009 333 55300 20000 91119 91211;
0149067300999992011011702004+46550+007983FM-12+357699999V0201301N005119999999N9999999N1-00351-02791999999ADDMA1999999066311MD1619999+9999ME1431459OA149900981REMSYN088AAXX  17024 06730 43/// /1310 11035 21279 36631 47145 56/// 333 55300 20000 91119 91211;
0112067300999992011011703004+46550+007983FM-12+357699999V0201201N004119999999N9999999N1-00381-02821999999ADDMA1999999066301ME1431459REMSYN076AAXX  17034 06730 43/// /1208 11038 21282 36630 47145 5//// 333 553// 20000;
0149067300999992011011704004+46550+007983FM-12+357699999V0201201N004119999999N9999999N1-00431-02781999999ADDMA1999999066261MD1710091+9999ME1431419OA149900721REMSYN088AAXX  17044 06730 43/// /1208 11043 21278 36626 47141 57009 333 55300 20000 91114 91209;
0149067300999992011011705004+46550+007983FM-12+357699999V0201101N002619999999N9999999N1-00411-02801999999ADDMA1999999066201MD1710111+9999ME1431339OA149900621REMSYN088AAXX  17054 06730 43/// /1105 11041 21280 36620 47133 57011 333 55300 20000 91112 91208;
0248067300999992011011706004+46550+007983FM-12+357699999V0201401N001512200019N0750001N1-00471-03001999999ADDGA1011+054001001GF101991001001999999001011GJ104629IA1239KA1999N-00461MA1999999066201MD1710101+9999ME1431349OA149900981REMSYN118AAXX  17064 06730 42989 11403 11047 21300 36620 47134 57010 80001 333 21046 47/// 55077 55300 20000 81068 91119 91213;
0149067300999992011011707004+46550+007983FM-12+357699999V0202001N002119999999N9999999N1-00421-03161999999ADDMA1999999066181MD1710081+9999ME1431319OA149900571REMSYN088AAXX  17074 06730 43/// /2004 11042 21316 36618 47131 57008 333 55300 20000 91111 91205;
0096067300999992011011708004+46550+007983FM-12+357699999V0201601N001019999999N9999999N1-00431-02831999999ADDMA1999999066181ME1431319REMSYN060AAXX  17084 06730 43/// /1602 11043 21283 36618 47131 5////;
0154067300999992011011709004+46550+007983FM-12+357699999V0202601N005712200019N0750001N1-00491-02161999999ADDGA1011+054001001GF101991001001999999001011MA1999999066181ME1431329REMSYN076AAXX  17094 06730 42989 12611 11049 21216 36618 47132 5//// 80001 333 81068;
