0137067300999992010010100004+46550+007983FM-12+357699999V0200901N001019999999N9999999N1-01241-01851999999ADDMA1999999063421MD1810101+9999ME1428139OA149901701REMSYN076AAXX  01004 06730 43/// /0902 11124 21185 36342 47813 58010 333 91133 91216;
0137067300999992010010101004+46550+007983FM-12+357699999V0201301N001519999999N9999999N1-01281-01831999999ADDMA1999999063381MD1810101+9999ME1428109OA149900411REMSYN076AAXX  01014 06730 43/// /1303 11128 21183 36338 47810 58010 333 91108 91204;
0137067300999992010010102004+46550+007983FM-12+357699999V0203401N001519999999N9999999N1-01271-01701999999ADDMA1999999063341MD1819999+9999ME1428049OA149900461REMSYN076AAXX  01024 06730 43/// /3403 11127 21170 36334 47804 58/// 333 91109 91204;
0096067300999992010010103004+46550+007983FM-12+357699999V0201201N001519999999N9999999N1-01251-01771999999ADDMA1999999063301ME1427999REMSYN060AAXX  01034 06730 43/// /1203 11125 21177 36330 47799 5////;
0096067300999992010010104004+46550+007983FM-12+357699999V0203401N001519999999N9999999N1-01271-01731999999ADDMA1999999063261ME1427959REMSYN060AAXX  01044 06730 43/// /3403 11127 21173 36326 47795 5////;
0137067300999992010010105004+46550+007983FM-12+357699999V0203301N002119999999N9999999N1-01261-01671999999ADDMA1999999063241MD1610101+9999ME1427929OA149900361REMSYN076AAXX  01054 06730 43/// /3304 11126 21167 36324 47792 56010 333 91107 91206;
0236067300999992010010106004+46550+007983FM-12+357699999V0203401N003610123019N0300001N1-01291-01581999999ADDGA1081+012301041GF108991081001012501011999GJ100009IA1239KA1999N-01301MA1999999063201MD1810101+9999ME1427889OA149901601REMSYN106AAXX  01064 06730 42680 83407 11129 21158 36320 47788 58010 8801/ 333 21130 47/// 55000 88441 91131 91214;
0137067300999992010010107004+46550+007983FM-12+357699999V0203401N003119999999N9999999N1-01311-01551999999ADDMA1999999063201MD1710061+9999ME1427889OA149900461REMSYN076AAXX  01074 06730 43/// /3406 11131 21155 36320 47788 57006 333 91109 91207;
0137067300999992010010108004+46550+007983FM-12+357699999V0203301N003619999999N9999999N1-01331-01451999999ADDMA1999999063221MD1510021+9999ME1427929OA149900461REMSYN076AAXX  01084 06730 43/// /3307 11133 21145 36322 47792 55002 333 91109 91208;
0191067300999992010010109004+46550+007983FM-12+357699999V0203401N001010093019N0300001N1-01301-01401999999ADDGA1081+009301041GF108991081001008001011999MA1999999063241MD1210041+9999ME1427939OA149900461REMSYN088AAXX  01094 06730 42580 83402 11130 21140 36324 47793 52004 8801/ 333 88431 91109 91208;
0137067300999992010010110004+46550+007983FM-12+357699999V0201501N000519999999N9999999N1-01211-01491999999ADDMA1999999063271MD1310071+9999ME1427949OA149900411REMSYN076AAXX  01104 06730 43/// /1501 11121 21149 36327 47794 53007 333 91108 91206;
0137067300999992010010111004+46550+007983FM-12+357699999V0203301N003119999999N9999999N1-01361-01451999999ADDMA1999999063261MD1210041+9999ME1427979OA149900361REMSYN076AAXX  01114 06730 43/// /3306 11136 21145 36326 47797 52004 333 91107 91206;
0207067300999992010010112004+46550+007983FM-12+357699999V0203401N003110003019N0002001N1-01311-01421999999ADDAY141061AY221061GA1091+999999999GF109991091999999999999999MA1999999063261MD1210021+9999ME1427969MW1471OA149900511REMSYN082AAXX  01124 06730 41/02 93406 11131 21142 36326 47796 52002 74742 333 91110 91208;
0137067300999992010010113004+46550+007983FM-12+357699999V0203201N004619999999N9999999N1-01371-01471999999ADDMA1999999063261MD1710011+9999ME1427989OA149900571REMSYN076AAXX  01134 06730 43/// /3209 11137 21147 36326 47798 57001 333 91111 91209;
0137067300999992010010114004+46550+007983FM-12+357699999V0203201N006719999999N9999999N1-01331-01441999999ADDMA1999999063281MD1219999+9999ME1427999OA149900881REMSYN076AAXX  01144 06730 43/// /3213 11133 21144 36328 47799 52/// 333 91117 91213;
0207067300999992010010115004+46550+007983FM-12+357699999V0203201N006710001519N0000001N1-01391-01501999999ADDAY171031AY241031GA1091+999999999GF109991091999999999999999MA1999999063341MD1210081+9999ME1428089MW1701OA149900981REMSYN082AAXX  01154 06730 41/00 93213 11139 21150 36334 47808 52008 77074 333 91119 91214;
0137067300999992010010116004+46550+007983FM-12+357699999V0203301N006719999999N9999999N1-01381-01501999999ADDMA1999999063391MD1310131+9999ME1428149OA149901031REMSYN076AAXX  01164 06730 43/// /3313 11138 21150 36339 47814 53013 333 91120 91214;
0137067300999992010010117004+46550+007983FM-12+357699999V0203101N007719999999N9999999N1-01421-01541999999ADDMA1999999063451MD1110171+9999ME1428229OA149901031REMSYN076AAXX  01174 06730 43/// /3115 11142 21154 36345 47822 51017 333 91120 91215;
0238067300999992010010118004+46550+007983FM-12+357699999V0203101N008710001519N0000001N1-01591-01811999999ADDAY171061AY241061GA1091+999999999GF109991091999999999999999IA1239KA1120M-01141MA1999999063511MD1210171+9999ME1428359MW1731OA149901181REMSYN094AAXX  01184 06730 41/00 93117 11159 21181 36351 47835 52017 77374 333 11114 47/// 91123 91217;
0137067300999992010010119004+46550+007983FM-12+357699999V0203201N008219999999N9999999N1-01651-01921999999ADDMA1999999063571MD1310181+9999ME1428449OA149901241REMSYN076AAXX  01194 06730 43/// /3216 11165 21192 36357 47844 53018 333 91124 91218;
0137067300999992010010120004+46550+007983FM-12+357699999V0203301N009819999999N9999999N1-01671-02161999999ADDMA1999999063601MD1210151+9999ME1428489OA149901391REMSYN076AAXX  01204 06730 43/// /3319 11167 21216 36360 47848 52015 333 91127 91219;
0137067300999992010010121004+46550+007983FM-12+357699999V0203301N009319999999N9999999N1-01671-02141999999ADDMA1999999063631MD1210121+9999ME1428529OA149901491REMSYN076AAXX  01214 06730 43/// /3318 11167 21214 36363 47852 52012 333 91129 91220;
0137067300999992010010122004+46550+007983FM-12+357699999V0203301N007719999999N9999999N1-01741-02031999999ADDMA1999999063661MD1210091+9999ME1428579OA149901491REMSYN076AAXX  01224 06730 43/// /3315 11174 21203 36366 47857 52009 333 91129 91220;
0137067300999992010010123004+46550+007983FM-12+357699999V0203201N009319999999N9999999N1-01811-02411999999ADDMA1999999063631MD1210031+9999ME1428559OA149901441REMSYN076AAXX  01234 06730 43/// /3218 11181 21241 36363 47855 52003 333 91128 91220;
0137067300999992010010200004+46550+007983FM-12+357699999V0203101N010819999999N9999999N1-01801-02291999999ADDMA1999999063621MD1810011+9999ME1428549OA149901801REMSYN076AAXX  02004 06730 43/// /3121 11180 21229 36362 47854 58001 333 91135 91221;
0122067300999992010010201004+46550+007983FM-12+357699999V0203301N006219999999N9999999N1+99999+99999999999ADDMA1999999063681MD1210021+9999OA149901961REMSYN070AAXX  02014 06730 43/// /3312 1//// 2//// 36368 52002 333 91138 91221;
0081067300999992010010202004+46550+007983FM-12+357699999V0203401N006719999999N9999999N1+99999+99999999999ADDMA1999999063721REMSYN054AAXX  02024 06730 43/// /3413 1//// 2//// 36372 5////;
0122067300999992010010203004+46550+007983FM-12+357699999V0203301N007219999999N9999999N1+99999+99999999999ADDMA1999999063721MD1210101+9999OA149901961REMSYN070AAXX  02034 06730 43/// /3314 1//// 2//// 36372 52010 333 91138 91221;
0122067300999992010010204004+46550+007983FM-12+357699999V0203301N006719999999N9999999N1+99999+99999999999ADDMA1999999063691MD1010011+9999OA149901341REMSYN070AAXX  02044 06730 43/// /3313 1//// 2//// 36369 50001 333 91126 91214;
0122067300999992010010205004+46550+007983FM-12+357699999V0203201N008219999999N9999999N1+99999+99999999999ADDMA1999999063661MD1710061+9999OA149901341REMSYN070AAXX  02054 06730 43/// /3216 1//// 2//// 36366 57006 333 91126 91216;
0218067300999992010010206004+46550+007983FM-12+357699999V0203301N008710001519N0000001N1+99999+99999999999ADDAY171061AY241061GA1091+999999999GF109991091999999999999999GJ100009IA1239MA1999999063631MD1710091+9999MW1701OA149901961REMSYN088AAXX  02064 06730 41/00 93317 1//// 2//// 36363 57009 77074 333 47/// 55000 91138 91221;
0122067300999992010010207004+46550+007983FM-12+357699999V0203301N008219999999N9999999N1+99999+99999999999ADDMA1999999063671MD1710021+9999OA149901241REMSYN070AAXX  02074 06730 43/// /3316 1//// 2//// 36367 57002 333 91124 91217;
0081067300999992010010208004+46550+007983FM-12+357699999V0203201N009819999999N9999999N1+99999+99999999999ADDMA1999999063651REMSYN054AAXX  02084 06730 43/// /3219 1//// 2//// 36365 5////;
0192067300999992010010209004+46550+007983FM-12+357699999V0203101N009810001519N0000001N1+99999+99999999999ADDAY171031AY241031GA1091+999999999GF109991091999999999999999MA1999999063681MD1210051+9999MW1491OA149901701REMSYN076AAXX  02094 06730 41/00 93119 1//// 2//// 36368 52005 74974 333 91133 91220;
0122067300999992010010210004+46550+007983FM-12+357699999V0203101N010319999999N9999999N1+99999+99999999999ADDMA1999999063721MD1210051+9999OA149901701REMSYN070AAXX  02104 06730 43/// /3120 1//// 2//// 36372 52005 333 91133 91221;
0122067300999992010010211004+46550+007983FM-12+357699999V0203101N010319999999N9999999N1+99999+99999999999ADDMA1999999063731MD1210081+9999OA149901441REMSYN070AAXX  02114 06730 43/// /3120 1//// 2//// 36373 52008 333 91128 91221;
0192067300999992010010212004+46550+007983FM-12+357699999V0203201N008710001519N0000001N1+99999+99999999999ADDAY171061AY241061GA1091+999999999GF109991091999999999999999MA1999999063771MD1210091+9999MW1491OA149901961REMSYN076AAXX  02124 06730 41/00 93217 1//// 2//// 36377 52009 74974 333 91138 91221;
0122067300999992010010213004+46550+007983FM-12+357699999V0203101N011319999999N9999999N1+99999+99999999999ADDMA1999999063771MD1210051+9999OA149901751REMSYN070AAXX  02134 06730 43/// /3122 1//// 2//// 36377 52005 333 91134 91222;
0122067300999992010010214004+46550+007983FM-12+357699999V0203101N010819999999N9999999N1+99999+99999999999ADDMA1999999063821MD1219999+9999OA149901801REMSYN070AAXX  02144 06730 43/// /3121 1//// 2//// 36382 52/// 333 91135 91224;
0192067300999992010010215004+46550+007983FM-12+357699999V0203101N013410006019N0008001N1+99999+99999999999ADDAY141031AY231031GA1091+999999999GF109991091999999999999999MA1999999063901MD1210131+9999MW1431OA149902681REMSYN076AAXX  02154 06730 41/08 93126 1//// 2//// 36390 52013 74343 333 91152 91229;
0122067300999992010010216004+46550+007983FM-12+357699999V0203201N012919999999N9999999N1+99999+99999999999ADDMA1999999063971MD1210201+9999OA149902681REMSYN070AAXX  02164 06730 43/// /3225 1//// 2//// 36397 52020 333 91152 91230;
0137067300999992010010217004+46550+007983FM-12+357699999V0203101N012319999999N9999999N1-02601-02871999999ADDMA1999999064021MD1210201+9999ME1429239OA149902421REMSYN076AAXX  02174 06730 43/// /3124 11260 21287 36402 47923 52020 333 91147 91230;
0219067300999992010010218004+46550+007983FM-12+357699999V0203001N011810006019N0008001N1-02621-02891999999ADDAY141061AY241061GA1091+999999999GF109991091999999999999999IA1239MA1999999064091MD1210191+9999ME1429329MW1431OA149902681REMSYN088AAXX  02184 06730 41/08 93023 11262 21289 36409 47932 52019 74344 333 47/// 91152 91230;
0137067300999992010010219004+46550+007983FM-12+357699999V0203001N008219999999N9999999N1-02621-02891999999ADDMA1999999064131MD1210161+9999ME1429369OA149901701REMSYN076AAXX  02194 06730 43/// /3016 11262 21289 36413 47936 52016 333 91133 91223;
0137067300999992010010220004+46550+007983FM-12+357699999V0203101N008219999999N9999999N1-02631-02911999999ADDMA1999999064141MD1210121+9999ME1429389OA149901651REMSYN076AAXX  02204 06730 43/// /3116 11263 21291 36414 47938 52012 333 91132 91222;
0137067300999992010010221004+46550+007983FM-12+357699999V0203201N007719999999N9999999N1-02611-02891999999ADDMA1999999064171MD1210081+9999ME1429419OA149902421REMSYN076AAXX  02214 06730 43/// /3215 11261 21289 36417 47941 52008 333 91147 91230;
0137067300999992010010222004+46550+007983FM-12+357699999V0203101N007719999999N9999999N1-02581-02851999999ADDMA1999999064181MD1210051+9999ME1429419OA149901491REMSYN076AAXX  02224 06730 43/// /3115 11258 21285 36418 47941 52005 333 91129 91217;
0137067300999992010010223004+46550+007983FM-12+357699999V0203101N007719999999N9999999N1-02561-02831999999ADDMA1999999064221MD1210081+9999ME1429459OA149901081REMSYN076AAXX  02234 06730 43/// /3115 11256 21283 36422 47945 52008 333 91121 91215;
0137067300999992010010300004+46550+007983FM-12+357699999V0203101N006719999999N9999999N1-02501-02771999999ADDMA1999999064241MD1210071+9999ME1429469OA149902681REMSYN076AAXX  03004 06730 43/// /3113 11250 21277 36424 47946 52007 333 91152 91230;
0137067300999992010010301004+46550+007983FM-12+357699999V0203101N006719999999N9999999N1-02481-02751999999ADDMA1999999064261MD1210081+9999ME1429489OA149901131REMSYN076AAXX  03014 06730 43/// /3113 11248 21275 36426 47948 52008 333 91122 91216;
0096067300999992010010302004+46550+007983FM-12+357699999V0203101N005119999999N9999999N1-02461-02731999999ADDMA1999999064311ME1429539REMSYN060AAXX  03024 06730 43/// /3110 11246 21273 36431 47953 5////;
0096067300999992010010303004+46550+007983FM-12+357699999V0203101N005119999999N9999999N1-02431-02691999999ADDMA1999999064331ME1429549REMSYN060AAXX  03034 06730 43/// /3110 11243 21269 36433 47954 5////;
0137067300999992010010304004+46550+007983FM-12+357699999V0203101N005719999999N9999999N1-02391-02651999999ADDMA1999999064331MD1210071+9999ME1429539OA149901031REMSYN076AAXX  03044 06730 43/// /3111 11239 21265 36433 47953 52007 333 91120 91212;
0137067300999992010010305004+46550+007983FM-12+357699999V0203101N005119999999N9999999N1-02381-02641999999ADDMA1999999064341MD1219999+9999ME1429549OA149901031REMSYN076AAXX  03054 06730 43/// /3110 11238 21264 36434 47954 52/// 333 91120 91213;
0236067300999992010010306004+46550+007983FM-12+357699999V0203101N004612200019N0750001N1-02351-02611999999ADDGA1011+045001001GF101991001001999999001011GJ100009IA1239KA1999N-02631MA1999999064331MD1010001+9999ME1429529OA149901651REMSYN106AAXX  03064 06730 42989 13109 11235 21261 36433 47952 50000 80001 333 21263 47/// 55000 81065 91132 91222;
0137067300999992010010307004+46550+007983FM-12+357699999V0203101N005119999999N9999999N1-02361-02621999999ADDMA1999999064351MD1310021+9999ME1429559OA149900981REMSYN076AAXX  03074 06730 43/// /3110 11236 21262 36435 47955 53002 333 91119 91211;
0137067300999992010010308004+46550+007983FM-12+357699999V0203301N004619999999N9999999N1-02311-02581999999ADDMA1999999064401MD1219999+9999ME1429599OA149900881REMSYN076AAXX  03084 06730 43/// /3309 11231 21258 36440 47959 52/// 333 91117 91212;
0191067300999992010010309004+46550+007983FM-12+357699999V0203201N006210141019N0750001N1-02291-02551999999ADDGA1061+014101031GF106991061001012501051001MA1999999064411MD1210081+9999ME1429609OA149901031REMSYN088AAXX  03094 06730 42689 63212 11229 21255 36441 47960 52008 86050 333 86347 91120 91213;
0137067300999992010010310004+46550+007983FM-12+357699999V0203301N006219999999N9999999N1-02301-02571999999ADDMA1999999064441MD1210091+9999ME1429649OA149901081REMSYN076AAXX  03104 06730 43/// /3312 11230 21257 36444 47964 52009 333 91121 91213;
0137067300999992010010311004+46550+007983FM-12+357699999V0203301N005119999999N9999999N1-02261-02541999999ADDMA1999999064381MD1810021+9999ME1429569OA149901081REMSYN076AAXX  03114 06730 43/// /3310 11226 21254 36438 47956 58002 333 91121 91213;
0191067300999992010010312004+46550+007983FM-12+357699999V0203301N005712200019N0750001N1-02291-02651999999ADDGA1041+033001021GF104991001001999999001061MA1999999064371MD1710041+9999ME1429569OA149901131REMSYN088AAXX  03124 06730 42989 43311 11229 21265 36437 47956 57004 80006 333 84261 91122 91215;
0137067300999992010010313004+46550+007983FM-12+357699999V0203301N005719999999N9999999N1-02281-02571999999ADDMA1999999064331MD1710111+9999ME1429519OA149901131REMSYN076AAXX  03134 06730 43/// /3311 11228 21257 36433 47951 57011 333 91122 91213;
0137067300999992010010314004+46550+007983FM-12+357699999V0203401N006219999999N9999999N1-02261-02541999999ADDMA1999999064351MD1710031+9999ME1429529OA149901241REMSYN076AAXX  03144 06730 43/// /3412 11226 21254 36435 47952 57003 333 91124 91213;
0191067300999992010010315004+46550+007983FM-12+357699999V0203201N005710063019N0750001N1-02261-02521999999ADDGA1081+006301031GF108991081001008001071999MA1999999064381MD1310011+9999ME1429569OA149901241REMSYN088AAXX  03154 06730 42589 83211 11226 21252 36438 47956 53001 8807/ 333 88321 91124 91213;
0137067300999992010010316004+46550+007983FM-12+357699999V0203301N006719999999N9999999N1-02191-02441999999ADDMA1999999064371MD1210041+9999ME1429539OA149901181REMSYN076AAXX  03164 06730 43/// /3313 11219 21244 36437 47953 52004 333 91123 91215;
0137067300999992010010317004+46550+007983FM-12+357699999V0203401N006719999999N9999999N1-02151-02401999999ADDMA1999999064341MD1810011+9999ME1429499OA149901341REMSYN076AAXX  03174 06730 43/// /3413 11215 21240 36434 47949 58001 333 91126 91216;
0222067300999992010010318004+46550+007983FM-12+357699999V0203401N008210063019N0750001N1-02071-02321999999ADDGA1081+006301031GF108991081001008001071999IA1239KA1120M-02061MA1999999064371MD1510011+9999ME1429509OA149901491REMSYN100AAXX  03184 06730 42589 83416 11207 21232 36437 47950 55001 8807/ 333 11206 47/// 88321 91129 91217;
0137067300999992010010319004+46550+007983FM-12+357699999V0203301N007219999999N9999999N1-02021-02261999999ADDMA1999999064381MD1310011+9999ME1429509OA149901491REMSYN076AAXX  03194 06730 43/// /3314 11202 21226 36438 47950 53001 333 91129 91217;
0137067300999992010010320004+46550+007983FM-12+357699999V0203501N004619999999N9999999N1-01971-02201999999ADDMA1999999064401MD1210061+9999ME1429519OA149901341REMSYN076AAXX  03204 06730 43/// /3509 11197 21220 36440 47951 52006 333 91126 91215;
0137067300999992010010321004+46550+007983FM-12+357699999V0203401N004119999999N9999999N1-01941-02171999999ADDMA1999999064391MD1210021+9999ME1429499OA149901491REMSYN076AAXX  03214 06730 43/// /3408 11194 21217 36439 47949 52002 333 91129 91217;
0137067300999992010010322004+46550+007983FM-12+357699999V0203301N004119999999N9999999N1-01851-02141999999ADDMA1999999064401MD1210021+9999ME1429489OA149901031REMSYN076AAXX  03224 06730 43/// /3308 11185 21214 36440 47948 52002 333 91120 91210;
0137067300999992010010323004+46550+007983FM-12+357699999V0203201N007219999999N9999999N1-01701-02251999999ADDMA1999999064391MD1010011+9999ME1429439OA149901391REMSYN076AAXX  03234 06730 43/// /3214 11170 21225 36439 47943 50001 333 91127 91214;
0137067300999992010010400004+46550+007983FM-12+357699999V0203101N008719999999N9999999N1-01601-01921999999ADDMA1999999064361MD1710031+9999ME1429379OA149901961REMSYN076AAXX  04004 06730 43/// /3117 11160 21192 36436 47937 57003 333 91138 91220;
0137067300999992010010401004+46550+007983FM-12+357699999V0203201N008719999999N9999999N1-01461-01631999999ADDMA1999999064341MD1710061+9999ME1429319OA149902371REMSYN076AAXX  04014 06730 43/// /3217 11146 21163 36434 47931 57006 333 91146 91220;
0137067300999992010010402004+46550+007983FM-12+357699999V0203301N005119999999N9999999N1-01391-01551999999ADDMA1999999064351MD1710041+9999ME1429319OA149902371REMSYN076AAXX  04024 06730 43/// /3310 11139 21155 36435 47931 57004 333 91146 91218;
0137067300999992010010403004+46550+007983FM-12+357699999V0203401N004619999999N9999999N1-01351-01501999999ADDMA1999999064331MD1719999+9999ME1429279OA149902371REMSYN076AAXX  04034 06730 43/// /3409 11135 21150 36433 47927 57/// 333 91146 91220;
0137067300999992010010404004+46550+007983FM-12+357699999V0203201N007219999999N9999999N1-01331-01481999999ADDMA1999999064281MD1710061+9999ME1429219OA149901851REMSYN076AAXX  04044 06730 43/// /3214 11133 21148 36428 47921 57006 333 91136 91216;
0137067300999992010010405004+46550+007983FM-12+357699999V0203201N007719999999N9999999N1-01391-01551999999ADDMA1999999064241MD1810111+9999ME1429179OA149901751REMSYN076AAXX  04054 06730 43/// /3215 11139 21155 36424 47917 58011 333 91134 91216;
0252067300999992010010406004+46550+007983FM-12+357699999V0203101N005710003019N0002001N1-01511-01691999999ADDAY171061AY241061GA1091+999999999GF109991091999999999999999GJ101509IA1239KA1999N-02081MA1999999064241MD1710091+9999ME1429209MW1701OA149902371REMSYN100AAXX  04064 06730 41/02 93111 11151 21169 36424 47920 57009 77074 333 21208 47/// 55025 91146 91220;
0137067300999992010010407004+46550+007983FM-12+357699999V0203101N005119999999N9999999N1-01481-01651999999ADDMA1999999064231MD1710051+9999ME1429189OA149901751REMSYN076AAXX  04074 06730 43/// /3110 11148 21165 36423 47918 57005 333 91134 91214;
0137067300999992010010408004+46550+007983FM-12+357699999V0203101N007719999999N9999999N1-01471-01641999999ADDMA1999999064211MD1810031+9999ME1429169OA149901961REMSYN076AAXX  04084 06730 43/// /3115 11147 21164 36421 47916 58003 333 91138 91216;
0207067300999992010010409004+46550+007983FM-12+357699999V0203201N006210006019N0008001N1-01481-01651999999ADDAY171031AY241031GA1091+999999999GF109991091999999999999999MA1999999064211MD1710031+9999ME1429169MW1431OA149901961REMSYN082AAXX  04094 06730 41/08 93212 11148 21165 36421 47916 57003 74374 333 91138 91217;
0137067300999992010010410004+46550+007983FM-12+357699999V0203201N008219999999N9999999N1-01481-01571999999ADDMA1999999064211MD1710021+9999ME1429169OA149901751REMSYN076AAXX  04104 06730 43/// /3216 11148 21157 36421 47916 57002 333 91134 91217;
0137067300999992010010411004+46550+007983FM-12+357699999V0203401N008219999999N9999999N1-01421-01561999999ADDMA1999999064151MD1710061+9999ME1429079OA149901601REMSYN076AAXX  04114 06730 43/// /3416 11142 21156 36415 47907 57006 333 91131 91219;
0207067300999992010010412004+46550+007983FM-12+357699999V0203401N008710003019N0002001N1-01431-01591999999ADDAY171061AY241061GA1091+999999999GF109991091999999999999999MA1999999064111MD1710101+9999ME1429039MW1701OA149902371REMSYN082AAXX  04124 06730 41/02 93417 11143 21159 36411 47903 57010 77074 333 91146 91219;
0137067300999992010010413004+46550+007983FM-12+357699999V0203401N008219999999N9999999N1-01471-01671999999ADDMA1999999064091MD1710121+9999ME1429019OA149901961REMSYN076AAXX  04134 06730 43/// /3416 11147 21167 36409 47901 57012 333 91138 91219;
0137067300999992010010414004+46550+007983FM-12+357699999V0203301N008219999999N9999999N1-01481-01621999999ADDMA1999999064101MD1719999+9999ME1429039OA149901851REMSYN076AAXX  04144 06730 43/// /3316 11148 21162 36410 47903 57/// 333 91136 91219;
0207067300999992010010415004+46550+007983FM-12+357699999V0203401N008710003019N0002001N1-01511-01671999999ADDAY171031AY241031GA1091+999999999GF109991091999999999999999MA1999999064101MD1510011+9999ME1429049MW1451OA149901961REMSYN082AAXX  04154 06730 41/02 93417 11151 21167 36410 47904 55001 74574 333 91138 91219;
0137067300999992010010416004+46550+007983FM-12+357699999V0203401N008719999999N9999999N1-01501-01651999999ADDMA1999999064101MD1210011+9999ME1429039OA149901801REMSYN076AAXX  04164 06730 43/// /3417 11150 21165 36410 47903 52001 333 91135 91220;
0137067300999992010010417004+46550+007983FM-12+357699999V0203401N007219999999N9999999N1-01541-01671999999ADDMA1999999064091MD1510011+9999ME1429039OA149901801REMSYN076AAXX  04174 06730 43/// /3414 11154 21167 36409 47903 55001 333 91135 91220;
0238067300999992010010418004+46550+007983FM-12+357699999V0203401N005710001519N0000001N1-01541-01671999999ADDAY171061AY241061GA1091+999999999GF109991091999999999999999IA1239KA1120M-01391MA1999999064091MD1010011+9999ME1429039MW1451OA149901961REMSYN094AAXX  04184 06730 41/00 93411 11154 21167 36409 47903 50001 74574 333 11139 47/// 91138 91220;
0156067300999992010010419004+46550+007983FM-12+357699999V0203401N006719999999N9999999N1-01561-01701999999ADDMA1999999064101MD1410001+9999ME1429059OA149901441REMSYN076AAXX  04194 06730 43/// /3413 11156 21170 36410 47905 53000 333 91128 91214;EQDQ01+000032APCTEN
0137067300999992010010420004+46550+007983FM-12+357699999V0203501N005119999999N9999999N1-01561-01691999999ADDMA1999999064081MD1710011+9999ME1429039OA149901391REMSYN076AAXX  04204 06730 43/// /3510 11156 21169 36408 47903 57001 333 91127 91214;
0137067300999992010010421004+46550+007983FM-12+357699999V0203401N005119999999N9999999N1-01561-01701999999ADDMA1999999064081MD1710011+9999ME1429039OA149901801REMSYN076AAXX  04214 06730 43/// /3410 11156 21170 36408 47903 57001 333 91135 91220;
0137067300999992010010422004+46550+007983FM-12+357699999V0203301N005719999999N9999999N1-01571-01761999999ADDMA1999999064061MD1710041+9999ME1429009OA149901491REMSYN076AAXX  04224 06730 43/// /3311 11157 21176 36406 47900 57004 333 91129 91213;
0137067300999992010010423004+46550+007983FM-12+357699999V0203401N003619999999N9999999N1-01571-01691999999ADDMA1999999064041MD1710041+9999ME1428989OA149901441REMSYN076AAXX  04234 06730 43/// /3407 11157 21169 36404 47898 57004 333 91128 91212;
0137067300999992010010500004+46550+007983FM-12+357699999V0203301N003619999999N9999999N1-01601-01721999999ADDMA1999999064021MD1710061+9999ME1428969OA149901851REMSYN076AAXX  05004 06730 43/// /3307 11160 21172 36402 47896 57006 333 91136 91220;
0137067300999992010010501004+46550+007983FM-12+357699999V0203501N002119999999N9999999N1-01611-01721999999ADDMA1999999063981MD1710081+9999ME1428929OA149900821REMSYN076AAXX  05014 06730 43/// /3504 11161 21172 36398 47892 57008 333 91116 91207;
0137067300999992010010502004+46550+007983FM-12+357699999V0203301N004119999999N9999999N1-01671-01801999999ADDMA1999999063941MD1810101+9999ME1428899OA149900671REMSYN076AAXX  05024 06730 43/// /3308 11167 21180 36394 47889 58010 333 91113 91208;
0137067300999992010010503004+46550+007983FM-12+357699999V0200801N001019999999N9999999N1-01711-01911999999ADDMA1999999063921MD1610101+9999ME1428879OA149901441REMSYN076AAXX  05034 06730 43/// /0802 11171 21191 36392 47887 56010 333 91128 91212;
0137067300999992010010504004+46550+007983FM-12+357699999V0203301N002119999999N9999999N1-01721-01831999999ADDMA1999999063871MD1810111+9999ME1428829OA149900571REMSYN076AAXX  05044 06730 43/// /3304 11172 21183 36387 47882 58011 333 91111 91206;
0137067300999992010010505004+46550+007983FM-12+357699999V0200901N000519999999N9999999N1-01681-02091999999ADDMA1999999063831MD1810111+9999ME1428769OA149900571REMSYN076AAXX  05054 06730 43/// /0901 11168 21209 36383 47876 58011 333 91111 91206;
0246067300999992010010506004+46550+007983FM-12+357699999V0201501N002112200019N0500001N1-01741-01961999999ADDGA1011+012301031GF101991011001012501081001GJ100009IA1239KA1999N-01761MA1999999063801MD1610121+9999ME1428749OA149901491REMSYN116AAXX  05064 06730 42684 11504 11174 21196 36380 47874 56012 81080 333 21176 47/// 55000 81341 91129 91214 444 46322;
0137067300999992010010507004+46550+007983FM-12+357699999V0200701N000519999999N9999999N1-01651-02721999999ADDMA1999999063781MD1610091+9999ME1428699OA149900671REMSYN076AAXX  05074 06730 43/// /0701 11165 21272 36378 47869 56009 333 91113 91205;
0137067300999992010010508004+46550+007983FM-12+357699999V0200201N000519999999N9999999N1-01571-02811999999ADDMA1999999063771MD1610061+9999ME1428669OA149900671REMSYN076AAXX  05084 06730 43/// /0201 11157 21281 36377 47866 56006 333 91113 91205;
0219067300999992010010509004+46550+007983FM-12+357699999V0203501N001512200019N0500001N1-01481-03101999999ADDGA1021+014101031GF102991021001012501081001GG1079002009019999MA1999999063771MD1610031+9999ME1428639OA149900771REMSYN098AAXX  05094 06730 42684 23503 11148 21310 36377 47863 56003 82080 333 82347 91115 91206 444 47102;
0137067300999992010010510004+46550+007983FM-12+357699999V0202901N002619999999N9999999N1-01481-02641999999ADDMA1999999063761MD1610021+9999ME1428629OA149901131REMSYN076AAXX  05104 06730 43/// /2905 11148 21264 36376 47862 56002 333 91122 91206;
0137067300999992010010511004+46550+007983FM-12+357699999V0201401N000519999999N9999999N1-01421-02611999999ADDMA1999999063701MD1810071+9999ME1428539OA149901131REMSYN076AAXX  05114 06730 43/// /1401 11142 21261 36370 47853 58007 333 91122 91206;
0219067300999992010010512004+46550+007983FM-12+357699999V0203201N001012200019N0700001N1-01271-03221999999ADDGA1021+033001001GF102991001001999999001021GG1079001009019999MA1999999063651MD1810121+9999ME1428439OA149901131REMSYN098AAXX  05124 06730 42988 23202 11127 21322 36365 47843 58012 80002 333 82061 91122 91208 444 67101;
0137067300999992010010513004+46550+007983FM-12+357699999V0201501N001519999999N9999999N1-01261-02931999999ADDMA1999999063611MD1610151+9999ME1428379OA149900771REMSYN076AAXX  05134 06730 43/// /1503 11126 21293 36361 47837 56015 333 91115 91204;
0096067300999992010010514004+46550+007983FM-12+357699999V0203101N000519999999N9999999N1-01271-02941999999ADDMA1999999063591ME1428359REMSYN060AAXX  05144 06730 43/// /3101 11127 21294 36359 47835 5////;
0219067300999992010010515004+46550+007983FM-12+357699999V0203301N002610330019N0600001N1-01381-02651999999ADDGA1061+033001021GF106991001001999999001051GG1079011009019999MA1999999063581MD1710071+9999ME1428379OA149901181REMSYN098AAXX  05154 06730 42986 63305 11138 21265 36358 47837 57007 80005 333 86261 91123 91206 444 47111;
0137067300999992010010516004+46550+007983FM-12+357699999V0202501N000519999999N9999999N1-01401-02641999999ADDMA1999999063581MD1710031+9999ME1428389OA149901181REMSYN076AAXX  05164 06730 43/// /2501 11140 21264 36358 47838 57003 333 91123 91205;
0137067300999992010010517004+46550+007983FM-12+357699999V0201801N001519999999N9999999N1-01411-02401999999ADDMA1999999063561MD1710031+9999ME1428369OA149901291REMSYN076AAXX  05174 06730 43/// /1803 11141 21240 36356 47836 57003 333 91125 91206;
0250067300999992010010518004+46550+007983FM-12+357699999V0202901N001512200019N0600001N1-01351-03091999999ADDGA1021+033001001GF102991001001999999001021GG1079081009009999IA1239KA1120M-01151MA1999999063531MD1810051+9999ME1428309OA149901291REMSYN110AAXX  05184 06730 42986 22903 11135 21309 36353 47830 58005 80002 333 11115 47/// 82061 91125 91206 444 47081;
0137067300999992010010519004+46550+007983FM-12+357699999V0202501N004119999999N9999999N1-01351-03771999999ADDMA1999999063531MD1610051+9999ME1428309OA149901181REMSYN076AAXX  05194 06730 43/// /2508 11135 21377 36353 47830 56005 333 91123 91208;
0137067300999992010010520004+46550+007983FM-12+357699999V0202801N005119999999N9999999N1-01341-03841999999ADDMA1999999063491MD1810071+9999ME1428259OA149901341REMSYN076AAXX  05204 06730 43/// /2810 11134 21384 36349 47825 58007 333 91126 91210;
0156067300999992010010521004+46550+007983FM-12+357699999V0202701N003119999999N9999999N1-01371+99999999999ADDMA1999999063471MD1810061+9999ME1428239OA149901341REMSYN076AAXX  05214 06730 43/// /2706 11137 21398 36347 47823 58006 333 91126 91210;EQDQ01-003983ATOD  
0137067300999992010010522004+46550+007983FM-12+357699999V0200401N000519999999N9999999N1-01451-03071999999ADDMA1999999063441MD1810091+9999ME1428229OA149901491REMSYN076AAXX  05224 06730 43/// /0401 11145 21307 36344 47822 58009 333 91129 91207;
0137067300999992010010523004+46550+007983FM-12+357699999V0203001N002119999999N9999999N1-01361-03661999999ADDMA1999999063411MD1610081+9999ME1428169OA149901491REMSYN076AAXX  05234 06730 43/// /3004 11136 21366 36341 47816 56008 333 91129 91207;
0137067300999992010010600004+46550+007983FM-12+357699999V0203101N002619999999N9999999N1-01481-02742999999ADDMA1999999063381MD1810091+9999ME1428169OA149901491REMSYN076AAXX  06004 06730 43/// /3105 11148 21274 36338 47816 58009 333 91129 91210;
0137067300999992010010601004+46550+007983FM-12+357699999V0203001N002619999999N9999999N1-01481-03181999999ADDMA1999999063361MD1610081+9999ME1428139OA149901131REMSYN076AAXX  06014 06730 43/// /3005 11148 21318 36336 47813 56008 333 91122 91208;
0137067300999992010010602004+46550+007983FM-12+357699999V0203501N001019999999N9999999N1-01561-03091999999ADDMA1999999063361MD1710051+9999ME1428169OA149901131REMSYN076AAXX  06024 06730 43/// /3502 11156 21309 36336 47816 57005 333 91122 91208;
0137067300999992010010603004+46550+007983FM-12+357699999V0203601N001519999999N9999999N1-01621-03341999999ADDMA1999999063331MD1710051+9999ME1428149OA149901491REMSYN076AAXX  06034 06730 43/// /3603 11162 21334 36333 47814 57005 333 91129 91208;
0137067300999992010010604004+46550+007983FM-12+357699999V0203201N002119999999N9999999N1-01661-02911999999ADDMA1999999063311MD1710051+9999ME1428139OA149901031REMSYN076AAXX  06044 06730 43/// /3204 11166 21291 36331 47813 57005 333 91120 91204;
0137067300999992010010605004+46550+007983FM-12+357699999V0203301N001519999999N9999999N1-01641-03271999999ADDMA1999999063321MD1510041+9999ME1428139OA149901181REMSYN076AAXX  06054 06730 43/// /3303 11164 21327 36332 47813 55004 333 91123 91206;
0234067300999992010010606004+46550+007983FM-12+357699999V0202901N002612200019N0700001N1-01661-03181999999ADDGA1001+999999999GF100991001001999999001001GJ103549IA1239KA1999N-01701MA1999999063311MD1710021+9999ME1428139OA149901491REMSYN104AAXX  06064 06730 42988 02905 11166 21318 36331 47813 57002 333 21170 47/// 55059 91129 91210 444 47182;
0137067300999992010010607004+46550+007983FM-12+357699999V0202801N002119999999N9999999N1-01711-02891999999ADDMA1999999063301MD1810011+9999ME1428139OA149901441REMSYN076AAXX  06074 06730 43/// /2804 11171 21289 36330 47813 58001 333 91128 91210;
0137067300999992010010608004+46550+007983FM-12+357699999V0203001N005719999999N9999999N1-01681-03021999999ADDMA1999999063291MD1710031+9999ME1428119OA149901441REMSYN076AAXX  06084 06730 43/// /3011 11168 21302 36329 47811 57003 333 91128 91212;
0219067300999992010010609004+46550+007983FM-12+357699999V0202701N005112200019N0750001N1-01711-02711999999ADDGA1011+033001001GF101991001001999999001011GG1069004009029999MA1999999063341MD1310031+9999ME1428189OA149901441REMSYN098AAXX  06094 06730 42989 12710 11171 21271 36334 47818 53003 80001 333 81061 91128 91212 444 86204;
0137067300999992010010610004+46550+007983FM-12+357699999V0203101N001519999999N9999999N1-01731-02711999999ADDMA1999999063361MD1210061+9999ME1428219OA149901291REMSYN076AAXX  06104 06730 43/// /3103 11173 21271 36336 47821 52006 333 91125 91215;
0137067300999992010010611004+46550+007983FM-12+357699999V0203001N005119999999N9999999N1-01771-02581999999ADDMA1999999063341MD1019999+9999ME1428199OA149901291REMSYN076AAXX  06114 06730 43/// /3010 11177 21258 36334 47819 50/// 333 91125 91215;
0219067300999992010010612004+46550+007983FM-12+357699999V0200701N003112200019N0750001N1-01751-03011999999ADDGA1011+033001001GF101991001001999999001011GG1079034009029999MA1999999063311MD1810031+9999ME1428159OA149901441REMSYN098AAXX  06124 06730 42989 10706 11175 21301 36331 47815 58003 80001 333 81061 91128 91215 444 67234;
0137067300999992010010613004+46550+007983FM-12+357699999V0201001N003619999999N9999999N1-01661-02991999999ADDMA1999999063321MD1710041+9999ME1428149OA149900881REMSYN076AAXX  06134 06730 43/// /1007 11166 21299 36332 47814 57004 333 91117 91207;
0137067300999992010010614004+46550+007983FM-12+357699999V0200901N003619999999N9999999N1-01741-03021999999ADDMA1999999063331MD1519999+9999ME1428179OA149901031REMSYN076AAXX  06144 06730 43/// /0907 11174 21302 36333 47817 55/// 333 91120 91208;
0223067300999992010010615004+46550+007983FM-12+357699999V0203601N003112200019N0750001N1-01791-03201999999ADDGA1021+014101031GA2031+039001001GF104991021001012501041021MA1999999063361MD1219999+9999ME1428229OA149901291REMSYN104AAXX  06154 06730 42689 43606 11179 21320 36336 47822 52/// 82042 333 82347 83063 91125 91215 444 66215;
0137067300999992010010616004+46550+007983FM-12+357699999V0203401N001519999999N9999999N1-01891-03061999999ADDMA1999999063391MD1210071+9999ME1428299OA149901081REMSYN076AAXX  06164 06730 43/// /3403 11189 21306 36339 47829 52007 333 91121 91208;
0137067300999992010010617004+46550+007983FM-12+357699999V0201801N002619999999N9999999N1-01931-03261999999ADDMA1999999063391MD1210061+9999ME1428309OA149900881REMSYN076AAXX  06174 06730 43/// /1805 11193 21326 36339 47830 52006 333 91117 91206;
0250067300999992010010618004+46550+007983FM-12+357699999V0201801N004612200019N0750001N1-01931-03211999999ADDGA1021+039001001GF102991001001999999001021GG1069085009019999IA1239KA1120M-01631MA1999999063411MD1219999+9999ME1428339OA149901441REMSYN110AAXX  06184 06730 42989 21809 11193 21321 36341 47833 52/// 80002 333 11163 47/// 82063 91128 91215 444 66185;
0137067300999992010010619004+46550+007983FM-12+357699999V0201801N001019999999N9999999N1-01941-02641999999ADDMA1999999063421MD1210031+9999ME1428349OA149900771REMSYN076AAXX  06194 06730 43/// /1802 11194 21264 36342 47834 52003 333 91115 91209;
0137067300999992010010620004+46550+007983FM-12+357699999V0201801N003619999999N9999999N1-02031-03071999999ADDMA1999999063421MD1110031+9999ME1428379OA149900821REMSYN076AAXX  06204 06730 43/// /1807 11203 21307 36342 47837 51003 333 91116 91209;
0137067300999992010010621004+46550+007983FM-12+357699999V0201401N005719999999N9999999N1-02081-03251999999ADDMA1999999063411MD1010001+9999ME1428379OA149900881REMSYN076AAXX  06214 06730 43/// /1411 11208 21325 36341 47837 50000 333 91117 91212;
0137067300999992010010622004+46550+007983FM-12+357699999V0201101N003619999999N9999999N1-02081-02711999999ADDMA1999999063431MD1210011+9999ME1428399OA149900881REMSYN076AAXX  06224 06730 43/// /1107 11208 21271 36343 47839 52001 333 91117 91212;
0137067300999992010010623004+46550+007983FM-12+357699999V0201601N007719999999N9999999N1-02091-03111999999ADDMA1999999063411MD1810011+9999ME1428379OA149901341REMSYN076AAXX  06234 06730 43/// /1615 11209 21311 36341 47837 58001 333 91126 91216;
0137067300999992010010700004+46550+007983FM-12+357699999V0201101N001519999999N9999999N1-02121-02741999999ADDMA1999999063421MD1010011+9999ME1428399OA149901341REMSYN076AAXX  07004 06730 43/// /1103 11212 21274 36342 47839 50001 333 91126 91216;
0137067300999992010010701004+46550+007983FM-12+357699999V0200601N001519999999N9999999N1-02151-03021999999ADDMA1999999063421MD1510011+9999ME1428399OA149901181REMSYN076AAXX  07014 06730 43/// /0603 11215 21302 36342 47839 55001 333 91123 91209;
0122067300999992010010702004+46550+007983FM-12+357699999V0200601N002119999999N9999999N1+99999+99999999999ADDMA1999999063431MD1219999+9999OA149901181REMSYN070AAXX  07024 06730 43/// /0604 1//// 2//// 36343 52/// 333 91123 91209;
0122067300999992010010703004+46550+007983FM-12+357699999V0203301N005119999999N9999999N1+99999+99999999999ADDMA1999999063431MD1210011+9999OA149901851REMSYN070AAXX  07034 06730 43/// /3310 1//// 2//// 36343 52001 333 91136 91216;
0122067300999992010010704004+46550+007983FM-12+357699999V0203401N005719999999N9999999N1+99999+99999999999ADDMA1999999063441MD1210021+9999OA149902011REMSYN070AAXX  07044 06730 43/// /3411 1//// 2//// 36344 52002 333 91139 91214;
0122067300999992010010705004+46550+007983FM-12+357699999V0203201N006219999999N9999999N1+99999+99999999999ADDMA1999999063461MD1210031+9999OA149902011REMSYN070AAXX  07054 06730 43/// /3212 1//// 2//// 36346 52003 333 91139 91214;
0212067300999992010010706004+46550+007983FM-12+357699999V0203001N004612200019N0750001N1+99999+99999999999ADDGA1011+033001001GF101991001001999999001011GJ104449IA1239MA1999999063511MD1210081+9999OA149902011REMSYN104AAXX  07064 06730 42989 13009 1//// 2//// 36351 52008 80001 333 47/// 55074 81061 91139 91216 444 27083;
0122067300999992010010707004+46550+007983FM-12+357699999V0203601N003119999999N9999999N1+99999+99999999999ADDMA1999999063551MD1210111+9999OA149901651REMSYN070AAXX  07074 06730 43/// /3606 1//// 2//// 36355 52011 333 91132 91212;
0122067300999992010010708004+46550+007983FM-12+357699999V0201001N003119999999N9999999N1+99999+99999999999ADDMA1999999063591MD1219999+9999OA149901651REMSYN070AAXX  07084 06730 43/// /1006 1//// 2//// 36359 52/// 333 91132 91212;
0186067300999992010010709004+46550+007983FM-12+357699999V0200301N001512200019N0600001N1+99999+99999999999ADDGA1041+007201031GF104991041001008001051001MA1999999063641MD1210131+9999OA149902011REMSYN092AAXX  07094 06730 42586 40303 1//// 2//// 36364 52013 84050 333 84324 91139 91214 444 16083;
0137067300999992010010710004+46550+007983FM-12+357699999V0201201N003119999999N9999999N1-01991-02451999999ADDMA1999999063691MD1210141+9999ME1428689OA149900931REMSYN076AAXX  07104 06730 43/// /1206 11199 21245 36369 47868 52014 333 91118 91206;
0137067300999992010010711004+46550+007983FM-12+357699999V0201201N002619999999N9999999N1-01951-02451999999ADDMA1999999063721MD1110131+9999ME1428709OA149901031REMSYN076AAXX  07114 06730 43/// /1205 11195 21245 36372 47870 51013 333 91120 91209;
0223067300999992010010712004+46550+007983FM-12+357699999V0201201N001510450019N0750001N1-01901-02451999999ADDGA1021+014101031GA2081+045001021GF108991021001012501071061MA1999999063691MD1010051+9999ME1428659OA149902011REMSYN104AAXX  07124 06730 42689 81203 11190 21245 36369 47865 50005 82076 333 82347 88265 91139 91214 444 16110;
0137067300999992010010713004+46550+007983FM-12+357699999V0200401N001519999999N9999999N1-01891-02451999999ADDMA1999999063701MD1019999+9999ME1428669OA149900881REMSYN076AAXX  07134 06730 43/// /0403 11189 21245 36370 47866 50/// 333 91117 91204;
0124067300999992010010715004+46550+007983FM-12+357699999V02099999999990063019N0600001N1+99999+99999999999ADDGA1081+006301041GF108991081001008001011999REMSYN070AAXX  07154 06730 42586 8//// 1//// 2//// 3//// 5//// 8801/ 333 88421;
0096067300999992010010716004+46550+007983FM-12+357699999V0201201N007219999999N9999999N1-01941-02281999999ADDMA1999999063771ME1428769REMSYN060AAXX  07164 06730 43/// /1214 11194 21228 36377 47876 5////;
0137067300999992010010717004+46550+007983FM-12+357699999V0201201N008719999999N9999999N1-01971-02221999999ADDMA1999999063781MD1119999+9999ME1428789OA149901131REMSYN076AAXX  07174 06730 43/// /1217 11197 21222 36378 47878 51/// 333 91122 91217;
0219067300999992010010718004+46550+007983FM-12+357699999V0201201N009310006019N0008001N1-02001-02241999999ADDAY171061AY241061GA1091+999999999GF109991091999999999999999IA1239MA1999999063791MD1219999+9999ME1428809MW1701OA149901651REMSYN088AAXX  07184 06730 41/08 91218 11200 21224 36379 47880 52/// 77074 333 47/// 91132 91219;
0137067300999992010010719004+46550+007983FM-12+357699999V0201201N006219999999N9999999N1-01861-02151999999ADDMA1999999063831MD1210061+9999ME1428819OA149901131REMSYN076AAXX  07194 06730 43/// /1212 11186 21215 36383 47881 52006 333 91122 91219;
0137067300999992010010720004+46550+007983FM-12+357699999V0201101N005719999999N9999999N1-01861-02101999999ADDMA1999999063851MD1110071+9999ME1428839OA149901181REMSYN076AAXX  07204 06730 43/// /1111 11186 21210 36385 47883 51007 333 91123 91216;
0137067300999992010010721004+46550+007983FM-12+357699999V0201301N008719999999N9999999N1-01851-02081999999ADDMA1999999063821MD1010031+9999ME1428799OA149901181REMSYN076AAXX  07214 06730 43/// /1317 11185 21208 36382 47879 50003 333 91123 91219;
0137067300999992010010722004+46550+007983FM-12+357699999V0201501N010819999999N9999999N1-01911-02141999999ADDMA1999999063801MD1810031+9999ME1428799OA149901241REMSYN076AAXX  07224 06730 43/// /1521 11191 21214 36380 47879 58003 333 91124 91221;
0137067300999992010010723004+46550+007983FM-12+357699999V0201501N012319999999N9999999N1-01861-02091999999ADDMA1999999063781MD1710071+9999ME1428759OA149901541REMSYN076AAXX  07234 06730 43/// /1524 11186 21209 36378 47875 57007 333 91130 91224;
0137067300999992010010800004+46550+007983FM-12+357699999V0201501N015419999999N9999999N1-01851-02071999999ADDMA1999999063731MD1710091+9999ME1428699OA149901851REMSYN076AAXX  08004 06730 43/// /1530 11185 21207 36373 47869 57009 333 91136 91230;
0137067300999992010010801004+46550+007983FM-12+357699999V0201501N015919999999N9999999N1-01851-02071999999ADDMA1999999063681MD1810121+9999ME1428639OA149902011REMSYN076AAXX  08014 06730 43/// /1531 11185 21207 36368 47863 58012 333 91139 91231;
0137067300999992010010802004+46550+007983FM-12+357699999V0201501N015419999999N9999999N1-01761-01971999999ADDMA1999999063711MD1519999+9999ME1428649OA149902011REMSYN076AAXX  08024 06730 43/// /1530 11176 21197 36371 47864 55/// 333 91139 91233;
0137067300999992010010803004+46550+007983FM-12+357699999V0201601N016419999999N9999999N1-01711-01911999999ADDMA1999999063701MD1519999+9999ME1428619OA149902011REMSYN076AAXX  08034 06730 43/// /1632 11171 21191 36370 47861 55/// 333 91139 91233;
0137067300999992010010804004+46550+007983FM-12+357699999V0201501N019519999999N9999999N1-01651-01851999999ADDMA1999999063671MD1810011+9999ME1428569OA149902261REMSYN076AAXX  08044 06730 43/// /1538 11165 21185 36367 47856 58001 333 91144 91238;
0137067300999992010010805004+46550+007983FM-12+357699999V0201501N020019999999N9999999N1-01591-01781999999ADDMA1999999063651MD1710061+9999ME1428529OA149902421REMSYN076AAXX  08054 06730 43/// /1539 11159 21178 36365 47852 57006 333 91147 91239;
0252067300999992010010806004+46550+007983FM-12+357699999V0201601N020610001519N0000001N1-01571-01751999999ADDAY171061AY241061GA1091+999999999GF109991091999999999999999GJ100849IA1239KA1999N-02011MA1999999063611MD1610091+9999ME1428469MW1781OA149902421REMSYN100AAXX  08064 06730 41/00 91640 11157 21175 36361 47846 56009 77874 333 21201 47/// 55014 91147 91240;
0137067300999992010010807004+46550+007983FM-12+357699999V0201601N020619999999N9999999N1-01551-01731999999ADDMA1999999063641MD1710031+9999ME1428499OA149902371REMSYN076AAXX  08074 06730 43/// /1640 11155 21173 36364 47849 57003 333 91146 91241;
0137067300999992010010808004+46550+007983FM-12+357699999V0201501N020019999999N9999999N1-01511-01691999999ADDMA1999999063631MD1710021+9999ME1428479OA149902371REMSYN076AAXX  08084 06730 43/// /1539 11151 21169 36363 47847 57002 333 91146 91241;
0226067300999992010010809004+46550+007983FM-12+357699999V0201701N020610001519N0000001N1-01521-01701999999ADDAY171031AY241031GA1091+999999999GF109991091999999999999999MA1999999063611MD1410001+9999ME1428459MW1491OA149902631REMSYN082AAXX  08094 06730 41/00 91740 11152 21170 36361 47845 58000 74974 333 91151 91241;EQDQ01+000082APCTEN
0137067300999992010010810004+46550+007983FM-12+357699999V0201601N019519999999N9999999N1-01441-01611999999ADDMA1999999063651MD1310011+9999ME1428479OA149902631REMSYN076AAXX  08104 06730 43/// /1638 11144 21161 36365 47847 53001 333 91151 91241;
0137067300999992010010811004+46550+007983FM-12+357699999V0201401N022119999999N9999999N1-01391-01551999999ADDMA1999999063581MD1710051+9999ME1428379OA149902471REMSYN076AAXX  08114 06730 43/// /1443 11139 21155 36358 47837 57005 333 91148 91244;
0207067300999992010010812004+46550+007983FM-12+357699999V0201501N019510001519N0000001N1-01311-01491999999ADDAY171061AY241061GA1091+999999999GF109991091999999999999999MA1999999063561MD1810051+9999ME1428339MW1491OA149902631REMSYN082AAXX  08124 06730 41/00 91538 11131 21149 36356 47833 58005 74974 333 91151 91244;
0137067300999992010010813004+46550+007983FM-12+357699999V0201401N019019999999N9999999N1-01291-01421999999ADDMA1999999063541MD1710111+9999ME1428309OA149902371REMSYN076AAXX  08134 06730 43/// /1437 11129 21142 36354 47830 57011 333 91146 91243;
0137067300999992010010814004+46550+007983FM-12+357699999V0201501N017019999999N9999999N1-01261-01401999999ADDMA1999999063541MD1719999+9999ME1428299OA149902211REMSYN076AAXX  08144 06730 43/// /1533 11126 21140 36354 47829 57/// 333 91143 91237;
0207067300999992010010815004+46550+007983FM-12+357699999V0201501N015410001519N0000001N1-01241-01371999999ADDAY141031AY231031GA1091+999999999GF109991091999999999999999MA1999999063561MD1010001+9999ME1428319MW1491OA149902471REMSYN082AAXX  08154 06730 41/00 91530 11124 21137 36356 47831 50000 74943 333 91148 91244;
0137067300999992010010816004+46550+007983FM-12+357699999V0201501N017019999999N9999999N1-01231-01351999999ADDMA1999999063571MD1210031+9999ME1428329OA149902161REMSYN076AAXX  08164 06730 43/// /1533 11123 21135 36357 47832 52003 333 91142 91233;
0137067300999992010010817004+46550+007983FM-12+357699999V0201601N013919999999N9999999N1-01241-01351999999ADDMA1999999063601MD1219999+9999ME1428369OA149902161REMSYN076AAXX  08174 06730 43/// /1627 11124 21135 36360 47836 52/// 333 91142 91233;
0238067300999992010010818004+46550+007983FM-12+357699999V0201601N013410001519N0000001N1-01261-01391999999ADDAY141061AY231061GA1091+999999999GF109991091999999999999999IA1239KA1120M-01211MA1999999063611MD1210051+9999ME1428379MW1491OA149902631REMSYN094AAXX  08184 06730 41/00 91626 11126 21139 36361 47837 52005 74943 333 11121 47/// 91151 91244;
0137067300999992010010819004+46550+007983FM-12+357699999V0201601N012319999999N9999999N1-01291-01371999999ADDMA1999999063631MD1210061+9999ME1428419OA149901701REMSYN076AAXX  08194 06730 43/// /1624 11129 21137 36363 47841 52006 333 91133 91227;
0137067300999992010010820004+46550+007983FM-12+357699999V0201701N012319999999N9999999N1-01291-01391999999ADDMA1999999063651MD1210051+9999ME1428439OA149901701REMSYN076AAXX  08204 06730 43/// /1724 11129 21139 36365 47843 52005 333 91133 91227;
0137067300999992010010821004+46550+007983FM-12+357699999V0201601N012319999999N9999999N1-01311-01421999999ADDMA1999999063651MD1210041+9999ME1428449OA149902161REMSYN076AAXX  08214 06730 43/// /1624 11131 21142 36365 47844 52004 333 91142 91233;
0137067300999992010010822004+46550+007983FM-12+357699999V0201501N008719999999N9999999N1-01291-01351999999ADDMA1999999063691MD1210061+9999ME1428489OA149901491REMSYN076AAXX  08224 06730 43/// /1517 11129 21135 36369 47848 52006 333 91129 91224;
0137067300999992010010823004+46550+007983FM-12+357699999V0201201N005119999999N9999999N1-01271-01471999999ADDMA1999999063731MD1210081+9999ME1428529OA149901491REMSYN076AAXX  08234 06730 43/// /1210 11127 21147 36373 47852 52008 333 91129 91224;
0137067300999992010010900004+46550+007983FM-12+357699999V0201201N004119999999N9999999N1-01261-01621999999ADDMA1999999063721MD1210071+9999ME1428519OA149902211REMSYN076AAXX  09004 06730 43/// /1208 11126 21162 36372 47851 52007 333 91143 91237;
0137067300999992010010901004+46550+007983FM-12+357699999V0201201N001519999999N9999999N1-01251-01761999999ADDMA1999999063721MD1010031+9999ME1428519OA149900771REMSYN076AAXX  09014 06730 43/// /1203 11125 21176 36372 47851 50003 333 91115 91210;
0137067300999992010010902004+46550+007983FM-12+357699999V0201201N003619999999N9999999N1-01241-01851999999ADDMA1999999063711MD1719999+9999ME1428499OA149900771REMSYN076AAXX  09024 06730 43/// /1207 11124 21185 36371 47849 57/// 333 91115 91210;
0137067300999992010010903004+46550+007983FM-12+357699999V0201201N003119999999N9999999N1-01291-01821999999ADDMA1999999063691MD1819999+9999ME1428489OA149901491REMSYN076AAXX  09034 06730 43/// /1206 11129 21182 36369 47848 58/// 333 91129 91224;
0137067300999992010010904004+46550+007983FM-12+357699999V0201601N003119999999N9999999N1-01331-01851999999ADDMA1999999063651MD1710071+9999ME1428449OA149900571REMSYN076AAXX  09044 06730 43/// /1606 11133 21185 36365 47844 57007 333 91111 91208;
0137067300999992010010905004+46550+007983FM-12+357699999V0201601N005719999999N9999999N1-01411-01801999999ADDMA1999999063631MD1710081+9999ME1428449OA149900721REMSYN076AAXX  09054 06730 43/// /1611 11141 21180 36363 47844 57008 333 91114 91212;
0246067300999992010010906004+46550+007983FM-12+357699999V0200901N004612200019N0750001N1-01181-02341999999ADDGA1021+014101031GF102991021001012501071001GJ100009IA1239KA1999N-01411MA1999999063591MD1710101+9999ME1428339OA149901701REMSYN116AAXX  09064 06730 42689 20909 11118 21234 36359 47833 57010 82070 333 21141 47/// 55000 82347 91133 91227 444 47162;
0137067300999992010010907004+46550+007983FM-12+357699999V0201601N005719999999N9999999N1-01331-02141999999ADDMA1999999063591MD1710061+9999ME1428379OA149900881REMSYN076AAXX  09074 06730 43/// /1611 11133 21214 36359 47837 57006 333 91117 91211;
0137067300999992010010908004+46550+007983FM-12+357699999V0201501N008719999999N9999999N1-01341-02101999999ADDMA1999999063571MD1710061+9999ME1428359OA149901081REMSYN076AAXX  09084 06730 43/// /1517 11134 21210 36357 47835 57006 333 91121 91217;
0223067300999992010010909004+46550+007983FM-12+357699999V0201601N010310093019N0750001N1-01341-01971999999ADDGA1061+009301041GA2061+045001001GF108991061001008001011061MA1999999063561MD1710031+9999ME1428349OA149901291REMSYN104AAXX  09094 06730 42589 81620 11134 21197 36356 47834 57003 86016 333 86431 86065 91125 91221 444 67181;
0137067300999992010010910004+46550+007983FM-12+357699999V0201701N009319999999N9999999N1-01241-01811999999ADDMA1999999063551MD1710041+9999ME1428299OA149901291REMSYN076AAXX  09104 06730 43/// /1718 11124 21181 36355 47829 57004 333 91125 91221;
0137067300999992010010911004+46550+007983FM-12+357699999V0201701N010819999999N9999999N1-01271-01431999999ADDMA1999999063491MD1810081+9999ME1428239OA149901601REMSYN076AAXX  09114 06730 43/// /1721 11127 21143 36349 47823 58008 333 91131 91222;
0207067300999992010010912004+46550+007983FM-12+357699999V0201701N007710006019N0008001N1-01241-01401999999ADDAY141061AY221061GA1091+999999999GF109991091999999999999999MA1999999063481MD1710081+9999ME1428219MW1471OA149901601REMSYN082AAXX  09124 06730 41/08 91715 11124 21140 36348 47821 57008 74742 333 91131 91222;
0137067300999992010010913004+46550+007983FM-12+357699999V0201601N002619999999N9999999N1-01061-01371999999ADDMA1999999063471MD1710081+9999ME1428149OA149901341REMSYN076AAXX  09134 06730 43/// /1605 11106 21137 36347 47814 57008 333 91126 91220;
0137067300999992010010914004+46550+007983FM-12+357699999V0201801N004119999999N9999999N1-01131-01291999999ADDMA1999999063451MD1710041+9999ME1428149OA149901181REMSYN076AAXX  09144 06730 43/// /1808 11113 21129 36345 47814 57004 333 91123 91214;
0207067300999992010010915004+46550+007983FM-12+357699999V0201801N005710003019N0005001N1-01111-01221999999ADDAY171031AY241031GA1091+999999999GF109991091999999999999999MA1999999063421MD1610061+9999ME1428109MW1771OA149901601REMSYN082AAXX  09154 06730 41/05 91811 11111 21122 36342 47810 56006 77774 333 91131 91222;
0137067300999992010010916004+46550+007983FM-12+357699999V0201701N007719999999N9999999N1-01181-01261999999ADDMA1999999063421MD1710051+9999ME1428129OA149901651REMSYN076AAXX  09164 06730 43/// /1715 11118 21126 36342 47812 57005 333 91132 91219;
0137067300999992010010917004+46550+007983FM-12+357699999V0201801N008219999999N9999999N1-01221-01311999999ADDMA1999999063421MD1510031+9999ME1428139OA149901651REMSYN076AAXX  09174 06730 43/// /1816 11122 21131 36342 47813 55003 333 91132 91219;
0238067300999992010010918004+46550+007983FM-12+357699999V0201901N007710001519N0001001N1-01241-01341999999ADDAY171061AY241061GA1091+999999999GF109991091999999999999999IA1239KA1120M-01061MA1999999063421MD1510001+9999ME1428139MW1701OA149901651REMSYN094AAXX  09184 06730 41/01 91915 11124 21134 36342 47813 55000 77074 333 11106 47/// 91132 91222;
0137067300999992010010919004+46550+007983FM-12+357699999V0201401N012319999999N9999999N1-01381-01511999999ADDMA1999999063441MD1210021+9999ME1428209OA149901391REMSYN076AAXX  09194 06730 43/// /1424 11138 21151 36344 47820 52002 333 91127 91224;
0137067300999992010010920004+46550+007983FM-12+357699999V0201501N012919999999N9999999N1-01411-01541999999ADDMA1999999063461MD1210041+9999ME1428239OA149901541REMSYN076AAXX  09204 06730 43/// /1525 11141 21154 36346 47823 52004 333 91130 91225;
0137067300999992010010921004+46550+007983FM-12+357699999V0201501N014419999999N9999999N1-01431-01591999999ADDMA1999999063471MD1210051+9999ME1428259OA149901751REMSYN076AAXX  09214 06730 43/// /1528 11143 21159 36347 47825 52005 333 91134 91228;
0137067300999992010010922004+46550+007983FM-12+357699999V0201501N011819999999N9999999N1-01461-01621999999ADDMA1999999063491MD1210051+9999ME1428289OA149901751REMSYN076AAXX  09224 06730 43/// /1523 11146 21162 36349 47828 52005 333 91134 91228;
0137067300999992010010923004+46550+007983FM-12+357699999V0201501N013919999999N9999999N1-01501-01661999999ADDMA1999999063511MD1210051+9999ME1428329OA149901651REMSYN076AAXX  09234 06730 43/// /1527 11150 21166 36351 47832 52005 333 91132 91228;
0137067300999992010011000004+46550+007983FM-12+357699999V0201801N013419999999N9999999N1-01561-01641999999ADDMA1999999063531MD1210061+9999ME1428369OA149901751REMSYN076AAXX  10004 06730 43/// /1826 11156 21164 36353 47836 52006 333 91134 91228;
0137067300999992010011001004+46550+007983FM-12+357699999V0201501N011819999999N9999999N1-01611-01701999999ADDMA1999999063561MD1210071+9999ME1428419OA149901751REMSYN076AAXX  10014 06730 43/// /1523 11161 21170 36356 47841 52007 333 91134 91227;
0096067300999992010011002004+46550+007983FM-12+357699999V0201601N012319999999N9999999N1-01621-01761999999ADDMA1999999063581ME1428449REMSYN060AAXX  10024 06730 43/// /1624 11162 21176 36358 47844 5////;
0096067300999992010011003004+46550+007983FM-12+357699999V0201601N010819999999N9999999N1-01661-01781999999ADDMA1999999063601ME1428489REMSYN060AAXX  10034 06730 43/// /1621 11166 21178 36360 47848 5////;
0137067300999992010011004004+46550+007983FM-12+357699999V0201601N010319999999N9999999N1-01661-01811999999ADDMA1999999063631MD1210071+9999ME1428519OA149901391REMSYN076AAXX  10044 06730 43/// /1620 11166 21181 36363 47851 52007 333 91127 91223;
0137067300999992010011005004+46550+007983FM-12+357699999V0201701N009819999999N9999999N1-01681-01811999999ADDMA1999999063661MD1210081+9999ME1428559OA149901391REMSYN076AAXX  10054 06730 43/// /1719 11168 21181 36366 47855 52008 333 91127 91222;
0252067300999992010011006004+46550+007983FM-12+357699999V0201501N010310001519N0000001N1-01701-01861999999ADDAY141061AY231061GA1091+999999999GF109991091999999999999999GJ100009IA1239KA1999N-01701MA1999999063691MD1210091+9999ME1428609MW1491OA149901751REMSYN100AAXX  10064 06730 41/00 91520 11170 21186 36369 47860 52009 74943 333 21170 47/// 55000 91134 91228;
0137067300999992010011007004+46550+007983FM-12+357699999V0201301N010319999999N9999999N1-01691-01841999999ADDMA1999999063751MD1210121+9999ME1428679OA149901391REMSYN076AAXX  10074 06730 43/// /1320 11169 21184 36375 47867 52012 333 91127 91223;
0137067300999992010011008004+46550+007983FM-12+357699999V0201501N009319999999N9999999N1-01711-01851999999ADDMA1999999063811MD1319999+9999ME1428749OA149901391REMSYN076AAXX  10084 06730 43/// /1518 11171 21185 36381 47874 53/// 333 91127 91223;
0229067300999992010011009004+46550+007983FM-12+357699999V0201401N006710093019N0750001N1-01681-01971999999ADDAY141031AY231031GA1061+009301031GF106991061001008001071041MA1999999063881MD1210191+9999ME1428829MW1011OA149901391REMSYN104AAXX  10094 06730 41589 61413 11168 21197 36388 47882 52019 70143 86074 333 86331 91127 91223 444 67182;
0137067300999992010011010004+46550+007983FM-12+357699999V0201401N007719999999N9999999N1-01591-02171999999ADDMA1999999063941MD1310191+9999ME1428879OA149901081REMSYN076AAXX  10104 06730 43/// /1415 11159 21217 36394 47887 53019 333 91121 91218;
0137067300999992010011011004+46550+007983FM-12+357699999V0201501N005719999999N9999999N1-01521-02191999999ADDMA1999999063981MD1110171+9999ME1428909OA149900881REMSYN076AAXX  10114 06730 43/// /1511 11152 21219 36398 47890 51017 333 91117 91215;
0217067300999992010011012004+46550+007983FM-12+357699999V0201601N002612200019N0750001N1-01511-02121999999ADDAY141061AY231061GA1001+999999999GF100991001001999999001001MA1999999064001MD1210121+9999ME1428929MW1021OA149901751REMSYN092AAXX  10124 06730 41989 01605 11151 21212 36400 47892 52012 70243 333 91134 91226 444 67192;
0137067300999992010011013004+46550+007983FM-12+357699999V0201601N003619999999N9999999N1-01281-02031999999ADDMA1999999064021MD1210081+9999ME1428889OA149900511REMSYN076AAXX  10134 06730 43/// /1607 11128 21203 36402 47888 52008 333 91110 91209;
0137067300999992010011014004+46550+007983FM-12+357699999V0201401N000519999999N9999999N1-01291-01911999999ADDMA1999999064071MD1219999+9999ME1428949OA149900461REMSYN076AAXX  10144 06730 43/// /1401 11129 21191 36407 47894 52/// 333 91109 91207;
0219067300999992010011015004+46550+007983FM-12+357699999V0203301N004112200019N0750001N1-01581-01941999999ADDGA1011+039001001GF101991001001999999001041GG1079084009019999MA1999999064101MD1310101+9999ME1429069OA149900881REMSYN098AAXX  10154 06730 42989 13308 11158 21194 36410 47906 53010 80004 333 81063 91117 91215 444 67184;
0137067300999992010011016004+46550+007983FM-12+357699999V0203401N004119999999N9999999N1-01671-02031999999ADDMA1999999064141MD1310121+9999ME1429139OA149900571REMSYN076AAXX  10164 06730 43/// /3408 11167 21203 36414 47913 53012 333 91111 91209;
0137067300999992010011017004+46550+007983FM-12+357699999V0203301N002619999999N9999999N1-01631-02091999999ADDMA1999999064181MD1310111+9999ME1429169OA149900571REMSYN076AAXX  10174 06730 43/// /3305 11163 21209 36418 47916 53011 333 91111 91209;
0238067300999992010011018004+46550+007983FM-12+357699999V0209999C000012200019N0750001N1-01511-02481999999ADDGA1001+999999999GF100991001001999999001001GG1079074009019999IA1239KA1120M-01281MA1999999064221MD1310121+9999ME1429189OA149901391REMSYN098AAXX  10184 06730 42989 00000 11151 21248 36422 47918 53012 333 11128 47/// 91127 91223 444 67174;
0137067300999992010011019004+46550+007983FM-12+357699999V0209999C000019999999N9999999N1-01451-02561999999ADDMA1999999064251MD1110111+9999ME1429209OA149900511REMSYN076AAXX  10194 06730 43/// /0000 11145 21256 36425 47920 51011 333 91110 91207;
0137067300999992010011020004+46550+007983FM-12+357699999V0209999C000019999999N9999999N1-01501-02511999999ADDMA1999999064281MD1110101+9999ME1429259OA149900151REMSYN076AAXX  10204 06730 43/// /0000 11150 21251 36428 47925 51010 333 91103 91201;
0137067300999992010011021004+46550+007983FM-12+357699999V0203301N001519999999N9999999N1-01501-02481999999ADDMA1999999064311MD1110091+9999ME1429299OA149900571REMSYN076AAXX  10214 06730 43/// /3303 11150 21248 36431 47929 51009 333 91111 91209;
0137067300999992010011022004+46550+007983FM-12+357699999V0203301N001519999999N9999999N1-01481-02441999999ADDMA1999999064341MD1110091+9999ME1429329OA149900261REMSYN076AAXX  10224 06730 43/// /3303 11148 21244 36434 47932 51009 333 91105 91204;
0137067300999992010011023004+46550+007983FM-12+357699999V0203201N002619999999N9999999N1-01481-02491999999ADDMA1999999064351MD1110071+9999ME1429339OA149900411REMSYN076AAXX  10234 06730 43/// /3205 11148 21249 36435 47933 51007 333 91108 91206;
0137067300999992010011100004+46550+007983FM-12+357699999V0203301N002619999999N9999999N1-01501-02481999999ADDMA1999999064361MD1110051+9999ME1429359OA149900571REMSYN076AAXX  11004 06730 43/// /3305 11150 21248 36436 47935 51005 333 91111 91209;
0137067300999992010011101004+46550+007983FM-12+357699999V0203301N003619999999N9999999N1-01481-02471999999ADDMA1999999064351MD1210011+9999ME1429339OA149900511REMSYN076AAXX  11014 06730 43/// /3307 11148 21247 36435 47933 52001 333 91110 91207;
0137067300999992010011102004+46550+007983FM-12+357699999V0203301N004119999999N9999999N1-01541-02481999999ADDMA1999999064361MD1219999+9999ME1429369OA149900571REMSYN076AAXX  11024 06730 43/// /3308 11154 21248 36436 47936 52/// 333 91111 91209;
0137067300999992010011103004+46550+007983FM-12+357699999V0203301N004119999999N9999999N1-01551-02481999999ADDMA1999999064361MD1410001+9999ME1429369OA149900771REMSYN076AAXX  11034 06730 43/// /3308 11155 21248 36436 47936 54/// 333 91115 91209;
0137067300999992010011104004+46550+007983FM-12+357699999V0203201N005119999999N9999999N1-01581-02461999999ADDMA1999999064341MD1810011+9999ME1429349OA149900771REMSYN076AAXX  11044 06730 43/// /3210 11158 21246 36434 47934 58001 333 91115 91210;
0137067300999992010011105004+46550+007983FM-12+357699999V0203101N006219999999N9999999N1-01561-02431999999ADDMA1999999064331MD1710031+9999ME1429339OA149900771REMSYN076AAXX  11054 06730 43/// /3112 11156 21243 36433 47933 57003 333 91115 91212;
0234067300999992010011106004+46550+007983FM-12+357699999V0203201N003612200019N0750001N1-01521-02511999999ADDGA1001+999999999GF100991001001999999001001GJ103429IA1239KA1999N-01581MA1999999064351MD1510011+9999ME1429349OA149900771REMSYN104AAXX  11064 06730 42989 03207 11152 21251 36435 47934 55001 333 21158 47/// 55057 91115 91212 444 47102;
0137067300999992010011107004+46550+007983FM-12+357699999V0203301N003119999999N9999999N1-01511-02541999999ADDMA1999999064361MD1210021+9999ME1429359OA149900671REMSYN076AAXX  11074 06730 43/// /3306 11151 21254 36436 47935 52002 333 91113 91211;
0137067300999992010011108004+46550+007983FM-12+357699999V0203301N003619999999N9999999N1-01511-02551999999ADDMA1999999064371MD1219999+9999ME1429369OA149900511REMSYN076AAXX  11084 06730 43/// /3307 11151 21255 36437 47936 52/// 333 91110 91207;
0207067300999992010011109004+46550+007983FM-12+357699999V0203301N003112200019N0750001N1-01441-02311999999ADDGA1001+999999999GF100991001001999999001001GG1079021009019999MA1999999064401MD1210051+9999ME1429389OA149900771REMSYN086AAXX  11094 06730 42989 03306 11144 21231 36440 47938 52005 333 91115 91212 444 67121;
0137067300999992010011110004+46550+007983FM-12+357699999V0203301N003119999999N9999999N1-01481-02511999999ADDMA1999999064411MD1319999+9999ME1429409OA149900411REMSYN076AAXX  11104 06730 43/// /3306 11148 21251 36441 47940 53/// 333 91108 91206;
0137067300999992010011111004+46550+007983FM-12+357699999V0203201N002619999999N9999999N1-01471-02541999999ADDMA1999999064411MD1210041+9999ME1429409OA149900461REMSYN076AAXX  11114 06730 43/// /3205 11147 21254 36441 47940 52004 333 91109 91207;
0219067300999992010011112004+46550+007983FM-12+357699999V0203201N001512200019N0750001N1-01441-02441999999ADDGA1011+014101031GF101991011001012501051001GG1079021009019999MA1999999064381MD1710021+9999ME1429359OA149900771REMSYN098AAXX  11124 06730 42689 13203 11144 21244 36438 47935 57002 81050 333 81347 91115 91212 444 67121;
0137067300999992010011113004+46550+007983FM-12+357699999V0203101N003119999999N9999999N1-01291-02091999999ADDMA1999999064361MD1710051+9999ME1429299OA149900511REMSYN076AAXX  11134 06730 43/// /3106 11129 21209 36436 47929 57005 333 91110 91206;
0096067300999992010011114004+46550+007983FM-12+357699999V0203301N003619999999N9999999N1-01361-02391999999ADDMA1999999064361ME1429319REMSYN060AAXX  11144 06730 43/// /3307 11136 21239 36436 47931 5////;
0219067300999992010011115004+46550+007983FM-12+357699999V0203201N005712200019N0750001N1-01541-02411999999ADDGA1041+014101031GF104991041001012501041001GG1079021009019999MA1999999064371MD1510011+9999ME1429379OA149900671REMSYN098AAXX  11154 06730 42689 43211 11154 21241 36437 47937 55001 84040 333 84347 91113 91211 444 57121;
0137067300999992010011116004+46550+007983FM-12+357699999V0203201N005119999999N9999999N1-01611-02441999999ADDMA1999999064371MD1210011+9999ME1429399OA149900671REMSYN076AAXX  11164 06730 43/// /3210 11161 21244 36437 47939 52001 333 91113 91211;
0137067300999992010011117004+46550+007983FM-12+357699999V0203401N005119999999N9999999N1-01611-02341999999ADDMA1999999064391MD1210031+9999ME1429419OA149900821REMSYN076AAXX  11174 06730 43/// /3410 11161 21234 36439 47941 52003 333 91116 91211;
0250067300999992010011118004+46550+007983FM-12+357699999V0203301N006210141019N0750001N1-01631-02451999999ADDGA1061+014101031GF106991061001012501051001GG1079082009009999IA1239KA1120M-01271MA1999999064401MD1210031+9999ME1429439OA149900821REMSYN110AAXX  11184 06730 42689 63312 11163 21245 36440 47943 52003 86050 333 11127 47/// 86347 91116 91212 444 37082;
0137067300999992010011119004+46550+007983FM-12+357699999V0203201N006219999999N9999999N1-01661-02391999999ADDMA1999999064411MD1110041+9999ME1429459OA149900881REMSYN076AAXX  11194 06730 43/// /3212 11166 21239 36441 47945 51004 333 91117 91213;
0137067300999992010011120004+46550+007983FM-12+357699999V0203301N005719999999N9999999N1-01561-01701999999ADDMA1999999064421MD1210031+9999ME1429439OA149900881REMSYN076AAXX  11204 06730 43/// /3311 11156 21170 36442 47943 52003 333 91117 91213;
0137067300999992010011121004+46550+007983FM-12+357699999V0203201N006219999999N9999999N1-01541-01641999999ADDMA1999999064441MD1210041+9999ME1429459OA149901031REMSYN076AAXX  11214 06730 43/// /3212 11154 21164 36444 47945 52004 333 91120 91213;
0137067300999992010011122004+46550+007983FM-12+357699999V0203301N005719999999N9999999N1-01541-01621999999ADDMA1999999064451MD1210041+9999ME1429469OA149901031REMSYN076AAXX  11224 06730 43/// /3311 11154 21162 36445 47946 52004 333 91120 91212;
0137067300999992010011123004+46550+007983FM-12+357699999V0203201N005719999999N9999999N1-01501-01601999999ADDMA1999999064461MD1310041+9999ME1429479OA149901031REMSYN076AAXX  11234 06730 43/// /3211 11150 21160 36446 47947 53004 333 91120 91213;
0137067300999992010011200004+46550+007983FM-12+357699999V0203101N005719999999N9999999N1-01521-01611999999ADDMA1999999064451MD1010011+9999ME1429469OA149901031REMSYN076AAXX  12004 06730 43/// /3111 11152 21161 36445 47946 50001 333 91120 91213;
0156067300999992010011201004+46550+007983FM-12+357699999V0203201N005719999999N9999999N1-01511-01621999999ADDMA1999999064451MD1410001+9999ME1429469OA149900881REMSYN076AAXX  12014 06730 43/// /3211 11151 21162 36445 47946 57000 333 91117 91212;EQDQ01+000072APCTEN
0137067300999992010011202004+46550+007983FM-12+357699999V0203101N006219999999N9999999N1-01531-01621999999ADDMA1999999064451MD1719999+9999ME1429469OA149900881REMSYN076AAXX  12024 06730 43/// /3112 11153 21162 36445 47946 57/// 333 91117 91212;
0137067300999992010011203004+46550+007983FM-12+357699999V0203101N005719999999N9999999N1-01531-01621999999ADDMA1999999064441MD1610011+9999ME1429459OA149901031REMSYN076AAXX  12034 06730 43/// /3111 11153 21162 36444 47945 56001 333 91120 91213;
0137067300999992010011204004+46550+007983FM-12+357699999V0203301N005119999999N9999999N1-01551-01641999999ADDMA1999999064431MD1610021+9999ME1429449OA149900821REMSYN076AAXX  12044 06730 43/// /3310 11155 21164 36443 47944 56002 333 91116 91212;
0137067300999992010011205004+46550+007983FM-12+357699999V0203201N005119999999N9999999N1-01581-01671999999ADDMA1999999064431MD1610021+9999ME1429459OA149900821REMSYN076AAXX  12054 06730 43/// /3210 11158 21167 36443 47945 56002 333 91116 91212;
0252067300999992010011206004+46550+007983FM-12+357699999V0203201N005110001519N0000001N1-01661-01771999999ADDAY171061AY241061GA1091+999999999GF109991091999999999999999GJ104329IA1239KA1999N-01731MA1999999064421MD1610021+9999ME1429469MW1711OA149901031REMSYN100AAXX  12064 06730 41/00 93210 11166 21177 36442 47946 56002 77174 333 21173 47/// 55072 91120 91213;
0137067300999992010011207004+46550+007983FM-12+357699999V0203201N002619999999N9999999N1-01391-02381999999ADDMA1999999064421MD1710011+9999ME1429399OA149900881REMSYN076AAXX  12074 06730 43/// /3205 11139 21238 36442 47939 57001 333 91117 91211;
0137067300999992010011208004+46550+007983FM-12+357699999V0203501N002119999999N9999999N1-01411-02261999999ADDMA1999999064431MD1219999+9999ME1429419OA149900721REMSYN076AAXX  12084 06730 43/// /3504 11141 21226 36443 47941 52/// 333 91114 91208;
0217067300999992010011209004+46550+007983FM-12+357699999V0203101N003612200019N0750001N1-01251-02111999999ADDAY171031AY241031GA1001+999999999GF100991001001999999001001MA1999999064431MD1210011+9999ME1429379MW1011OA149900881REMSYN092AAXX  12094 06730 41989 03107 11125 21211 36443 47937 52001 70174 333 91117 91212 444 67112;
0137067300999992010011210004+46550+007983FM-12+357699999V0203101N002119999999N9999999N1-01161-02241999999ADDMA1999999064431MD1210011+9999ME1429359OA149900931REMSYN076AAXX  12104 06730 43/// /3104 11116 21224 36443 47935 52001 333 91118 91207;
0137067300999992010011211004+46550+007983FM-12+357699999V0203401N001019999999N9999999N1-01231-02341999999ADDMA1999999064401MD1710031+9999ME1429339OA149900931REMSYN076AAXX  12114 06730 43/// /3402 11123 21234 36440 47933 57003 333 91118 91207;
0217067300999992010011212004+46550+007983FM-12+357699999V0203101N002112200019N0750001N1-01201-02411999999ADDAY171061AY241061GA1001+999999999GF100991001001999999001001MA1999999064361MD1710071+9999ME1429279MW1021OA149900981REMSYN092AAXX  12124 06730 41989 03104 11120 21241 36436 47927 57007 70274 333 91119 91212 444 76134;
0137067300999992010011213004+46550+007983FM-12+357699999V0203001N002119999999N9999999N1-01161-02301999999ADDMA1999999064321MD1810111+9999ME1429219OA149901181REMSYN076AAXX  12134 06730 43/// /3004 11116 21230 36432 47921 58011 333 91123 91210;
0096067300999992010011214004+46550+007983FM-12+357699999V0203401N002119999999N9999999N1-01071-02081999999ADDMA1999999064291ME1429159REMSYN060AAXX  12144 06730 43/// /3404 11107 21208 36429 47915 5////;
0207067300999992010011215004+46550+007983FM-12+357699999V0203001N006712200019N0750001N1-01211-02121999999ADDGA1001+999999999GF100991001001999999001001GG1069034009019999MA1999999064271MD1710091+9999ME1429169OA149901341REMSYN086AAXX  12154 06730 42989 03013 11121 21212 36427 47916 57009 333 91126 91215 444 76134;
0137067300999992010011216004+46550+007983FM-12+357699999V0203301N004119999999N9999999N1-01221-02301999999ADDMA1999999064231MD1710091+9999ME1429129OA149901441REMSYN076AAXX  12164 06730 43/// /3308 11122 21230 36423 47912 57009 333 91128 91215;
0137067300999992010011217004+46550+007983FM-12+357699999V0203101N003119999999N9999999N1-01241-02301999999ADDMA1999999064211MD1710081+9999ME1429109OA149901441REMSYN076AAXX  12174 06730 43/// /3106 11124 21230 36421 47910 57008 333 91128 91212;
0238067300999992010011218004+46550+007983FM-12+357699999V0203101N001512200019N0700001N1-01141-02611999999ADDGA1001+999999999GF100991001001999999001001GG1069035009019999IA1239KA1120M-01071MA1999999064201MD1710071+9999ME1429069OA149901441REMSYN098AAXX  12184 06730 42988 03103 11114 21261 36420 47906 57007 333 11107 47/// 91128 91215 444 66135;
0137067300999992010011219004+46550+007983FM-12+357699999V0202801N004619999999N9999999N1-01171-02831999999ADDMA1999999064191MD1710041+9999ME1429069OA149901181REMSYN076AAXX  12194 06730 43/// /2809 11117 21283 36419 47906 57004 333 91123 91209;
0137067300999992010011220004+46550+007983FM-12+357699999V0202701N002119999999N9999999N1-01181-03291999999ADDMA1999999064161MD1710051+9999ME1429029OA149901491REMSYN076AAXX  12204 06730 43/// /2704 11118 21329 36416 47902 57005 333 91129 91210;
0137067300999992010011221004+46550+007983FM-12+357699999V0201401N005119999999N9999999N1-01291-02851999999ADDMA1999999064111MD1810091+9999ME1428999OA149901491REMSYN076AAXX  12214 06730 43/// /1410 11129 21285 36411 47899 58009 333 91129 91212;
0137067300999992010011222004+46550+007983FM-12+357699999V0201801N007219999999N9999999N1-01211-02661999999ADDMA1999999064081MD1710111+9999ME1428939OA149901341REMSYN076AAXX  12224 06730 43/// /1814 11121 21266 36408 47893 57011 333 91126 91214;
0137067300999992010011223004+46550+007983FM-12+357699999V0201101N001019999999N9999999N1-01211-03071999999ADDMA1999999064041MD1710121+9999ME1428889OA149901341REMSYN076AAXX  12234 06730 43/// /1102 11121 21307 36404 47888 57012 333 91126 91214;
0137067300999992010011300004+46550+007983FM-12+357699999V0203001N001519999999N9999999N1-01281-02861999999ADDMA1999999064031MD1710081+9999ME1428899OA149901491REMSYN076AAXX  13004 06730 43/// /3003 11128 21286 36403 47889 57008 333 91129 91215;
0156067300999992010011301004+46550+007983FM-12+357699999V0201401N002619999999N9999999N1-01451-01832999999ADDMA1999999064021MD1710061+9999ME1428929OA149900671REMSYN076AAXX  13014 06730 43/// /1405 11145 21183 36402 47892 57006 333 91113 91205;EQDQ01-001833ATOD  
0137067300999992010011302004+46550+007983FM-12+357699999V0203301N005719999999N9999999N1-01291-01581999999ADDMA1999999063991MD1719999+9999ME1428859OA149901601REMSYN076AAXX  13024 06730 43/// /3311 11129 21158 36399 47885 57/// 333 91131 91211;
0137067300999992010011303004+46550+007983FM-12+357699999V0203401N003619999999N9999999N1-01351-01431999999ADDMA1999999063981MD1719999+9999ME1428859OA149901601REMSYN076AAXX  13034 06730 43/// /3407 11135 21143 36398 47885 57/// 333 91131 91214;
0137067300999992010011304004+46550+007983FM-12+357699999V0203301N004119999999N9999999N1-01301-01561999999ADDMA1999999063951MD1710071+9999ME1428809OA149901131REMSYN076AAXX  13044 06730 43/// /3308 11130 21156 36395 47880 57007 333 91122 91210;
0137067300999992010011305004+46550+007983FM-12+357699999V0200301N003119999999N9999999N1-01321-01591999999ADDMA1999999063951MD1710041+9999ME1428809OA149901701REMSYN076AAXX  13054 06730 43/// /0306 11132 21159 36395 47880 57004 333 91133 91210;
0252067300999992010011306004+46550+007983FM-12+357699999V0203201N003110001519N0000001N1-01361-01601999999ADDAY171061AY241061GA1091+999999999GF109991091999999999999999GJ104509IA1239KA1999N-01541MA1999999063951MD1510031+9999ME1428829MW1731OA149901701REMSYN100AAXX  13064 06730 41/00 93206 11136 21160 36395 47882 55003 77374 333 21154 47/// 55075 91133 91214;
0137067300999992010011307004+46550+007983FM-12+357699999V0203201N005119999999N9999999N1-01381-01471999999ADDMA1999999063981MD1210031+9999ME1428869OA149901341REMSYN076AAXX  13074 06730 43/// /3210 11138 21147 36398 47886 52003 333 91126 91212;
0137067300999992010011308004+46550+007983FM-12+357699999V0203201N003119999999N9999999N1-01361-01501999999ADDMA1999999064021MD1210071+9999ME1428909OA149901291REMSYN076AAXX  13084 06730 43/// /3206 11136 21150 36402 47890 52007 333 91125 91212;
0207067300999992010011309004+46550+007983FM-12+357699999V0203101N004610001519N0000001N1-01381-01471999999ADDAY171031AY241031GA1091+999999999GF109991091999999999999999MA1999999064071MD1210121+9999ME1428979MW1731OA149901701REMSYN082AAXX  13094 06730 41/00 93109 11138 21147 36407 47897 52012 77374 333 91133 91212;
0137067300999992010011310004+46550+007983FM-12+357699999V0203401N005119999999N9999999N1-01391-01481999999ADDMA1999999064111MD1210131+9999ME1429029OA149901241REMSYN076AAXX  13104 06730 43/// /3410 11139 21148 36411 47902 52013 333 91124 91211;
0137067300999992010011311004+46550+007983FM-12+357699999V0203401N005119999999N9999999N1-01321-01501999999ADDMA1999999064121MD1210101+9999ME1429019OA149901241REMSYN076AAXX  13114 06730 43/// /3410 11132 21150 36412 47901 52010 333 91124 91211;
0207067300999992010011312004+46550+007983FM-12+357699999V0203301N005710001519N0000001N1-01411-01501999999ADDAY171061AY241061GA1091+999999999GF109991091999999999999999MA1999999064111MD1010041+9999ME1429029MW1711OA149901701REMSYN082AAXX  13124 06730 41/00 93311 11141 21150 36411 47902 50004 77174 333 91133 91212;
0137067300999992010011313004+46550+007983FM-12+357699999V0203401N006219999999N9999999N1-01401-01501999999ADDMA1999999064091MD1710021+9999ME1429009OA149901291REMSYN076AAXX  13134 06730 43/// /3412 11140 21150 36409 47900 57002 333 91125 91213;
0137067300999992010011314004+46550+007983FM-12+357699999V0203401N006719999999N9999999N1-01431-01521999999ADDMA1999999064121MD1519999+9999ME1429049OA149901291REMSYN076AAXX  13144 06730 43/// /3413 11143 21152 36412 47904 55/// 333 91125 91214;
0207067300999992010011315004+46550+007983FM-12+357699999V0203501N007210001519N0000001N1-01411-01541999999ADDAY171031AY241031GA1091+999999999GF109991091999999999999999MA1999999064141MD1310031+9999ME1429069MW1701OA149901291REMSYN082AAXX  13154 06730 41/00 93514 11141 21154 36414 47906 53003 77074 333 91125 91214;
0137067300999992010011316004+46550+007983FM-12+357699999V0203401N005119999999N9999999N1-01471-01561999999ADDMA1999999064171MD1210081+9999ME1429119OA149901241REMSYN076AAXX  13164 06730 43/// /3410 11147 21156 36417 47911 52008 333 91124 91214;
0137067300999992010011317004+46550+007983FM-12+357699999V0203301N006219999999N9999999N1-01501-01651999999ADDMA1999999064171MD1310051+9999ME1429129OA149901131REMSYN076AAXX  13174 06730 43/// /3312 11150 21165 36417 47912 53005 333 91122 91214;
0238067300999992010011318004+46550+007983FM-12+357699999V0203301N005110001519N0000001N1-01551-01651999999ADDAY171061AY241061GA1091+999999999GF109991091999999999999999IA1239KA1120M-01321MA1999999064201MD1210061+9999ME1429179MW1731OA149901291REMSYN094AAXX  13184 06730 41/00 93310 11155 21165 36420 47917 52006 77374 333 11132 47/// 91125 91214;
0137067300999992010011319004+46550+007983FM-12+357699999V0203301N003619999999N9999999N1-01581-01661999999ADDMA1999999064221MD1210051+9999ME1429209OA149900931REMSYN076AAXX  13194 06730 43/// /3307 11158 21166 36422 47920 52005 333 91118 91212;
0137067300999992010011320004+46550+007983FM-12+357699999V0209999C000019999999N9999999N1-01531-01871999999ADDMA1999999064221MD1210051+9999ME1429199OA149900721REMSYN076AAXX  13204 06730 43/// /0000 11153 21187 36422 47919 52005 333 91114 91210;
0137067300999992010011321004+46550+007983FM-12+357699999V0201801N003119999999N9999999N1-01541-01921999999ADDMA1999999064221MD1210021+9999ME1429199OA149901131REMSYN076AAXX  13214 06730 43/// /1806 11154 21192 36422 47919 52002 333 91122 91214;
0137067300999992010011322004+46550+007983FM-12+357699999V0202701N000519999999N9999999N1-01591-02511999999ADDMA1999999064231MD1510011+9999ME1429219OA149901031REMSYN076AAXX  13224 06730 43/// /2701 11159 21251 36423 47921 55001 333 91120 91209;
0137067300999992010011323004+46550+007983FM-12+357699999V0201501N002619999999N9999999N1-01581-03041999999ADDMA1999999064201MD1710021+9999ME1429179OA149900771REMSYN076AAXX  13234 06730 43/// /1505 11158 21304 36420 47917 57002 333 91115 91206;
0137067300999992010011400004+46550+007983FM-12+357699999V0201401N003119999999N9999999N1-01631-02761999999ADDMA1999999064171MD1710051+9999ME1429159OA149901291REMSYN076AAXX  14004 06730 43/// /1406 11163 21276 36417 47915 57005 333 91125 91214;
0137067300999992010011401004+46550+007983FM-12+357699999V0201301N004619999999N9999999N1-01621-03171999999ADDMA1999999064141MD1810091+9999ME1429119OA149900771REMSYN076AAXX  14014 06730 43/// /1309 11162 21317 36414 47911 58009 333 91115 91209;
0137067300999992010011402004+46550+007983FM-12+357699999V0201501N002619999999N9999999N1-01511-03371999999ADDMA1999999064131MD1619999+9999ME1429079OA149900771REMSYN076AAXX  14024 06730 43/// /1505 11151 21337 36413 47907 56/// 333 91115 91209;
0096067300999992010011403004+46550+007983FM-12+357699999V0201201N001519999999N9999999N1-01591-02522999999ADDMA1999999064111ME1429079REMSYN060AAXX  14034 06730 43/// /1203 11159 21252 36411 47907 5////;
0137067300999992010011404004+46550+007983FM-12+357699999V0201501N004119999999N9999999N1-01651-03141999999ADDMA1999999064091MD1810051+9999ME1429069OA149900511REMSYN076AAXX  14044 06730 43/// /1508 11165 21314 36409 47906 58005 333 91110 91208;
0137067300999992010011405004+46550+007983FM-12+357699999V0201401N005119999999N9999999N1-01601-02871999999ADDMA1999999064071MD1710061+9999ME1429029OA149900771REMSYN076AAXX  14054 06730 43/// /1410 11160 21287 36407 47902 57006 333 91115 91211;
0264067300999992010011406004+46550+007983FM-12+357699999V0201501N004112200019N0700001N1-01521-02671999999ADDGA1001+999999999GF100991001001999999001001GG1069012009019999GJ100009IA1239KA1999N-01691MA1999999064071MD1710041+9999ME1429009MW1021OA149901031REMSYN110AAXX  14064 06730 41988 01508 11152 21267 36407 47900 57004 702// 333 21169 47/// 55000 91120 91211 444 66112;
0137067300999992010011407004+46550+007983FM-12+357699999V0201301N004119999999N9999999N1-01581-02701999999ADDMA1999999064071MD1510021+9999ME1429029OA149900771REMSYN076AAXX  14074 06730 43/// /1308 11158 21270 36407 47902 55002 333 91115 91210;
0137067300999992010011408004+46550+007983FM-12+357699999V0201401N005719999999N9999999N1-01511-02641999999ADDMA1999999064061MD1719999+9999ME1428999OA149900721REMSYN076AAXX  14084 06730 43/// /1411 11151 21264 36406 47899 57/// 333 91114 91211;
0219067300999992010011409004+46550+007983FM-12+357699999V0201201N004110540019N0750001N1-01431-02331999999ADDGA1071+054001021GF107991001001999999001061GG1069015009019999MA1999999064101MD1310031+9999ME1429029OA149900881REMSYN098AAXX  14094 06730 42989 71208 11143 21233 36410 47902 53003 80006 333 87268 91117 91212 444 46115;
0137067300999992010011410004+46550+007983FM-12+357699999V0201301N004119999999N9999999N1-01381-02601999999ADDMA1999999064111MD1210041+9999ME1429019OA149900881REMSYN076AAXX  14104 06730 43/// /1308 11138 21260 36411 47901 52004 333 91117 91212;
0137067300999992010011411004+46550+007983FM-12+357699999V0201001N002119999999N9999999N1-01241-02301999999ADDMA1999999064111MD1210051+9999ME1428989OA149900671REMSYN076AAXX  14114 06730 43/// /1004 11124 21230 36411 47898 52005 333 91113 91210;
0219067300999992010011412004+46550+007983FM-12+357699999V0203501N001010051019N0750001N1-01181-01941999999ADDGA1061+005101031GF106991061001004501041999GG1069024009019999MA1999999064081MD1710021+9999ME1428939OA149901031REMSYN098AAXX  14124 06730 42489 63502 11118 21194 36408 47893 57002 8604/ 333 86317 91120 91212 444 46124;
0137067300999992010011413004+46550+007983FM-12+357699999V0201701N002619999999N9999999N1-01251-02431999999ADDMA1999999064081MD1710031+9999ME1428949OA149901031REMSYN076AAXX  14134 06730 43/// /1705 11125 21243 36408 47894 57003 333 91120 91205;
0137067300999992010011414004+46550+007983FM-12+357699999V0201501N004619999999N9999999N1-01411-01961999999ADDMA1999999064081MD1710031+9999ME1428999OA149900671REMSYN076AAXX  14144 06730 43/// /1509 11141 21196 36408 47899 57003 333 91113 91210;
0207067300999992010011415004+46550+007983FM-12+357699999V0200501N000510006019N0009001N1-01191-01481999999ADDAY171031AY241031GA1091+999999999GF109991091999999999999999MA1999999064131MD1310051+9999ME1428999MW1781OA149901031REMSYN082AAXX  14154 06730 41/09 90501 11119 21148 36413 47899 53005 77874 333 91120 91211;
0137067300999992010011416004+46550+007983FM-12+357699999V0203301N001519999999N9999999N1-01151-01311999999ADDMA1999999064151MD1210071+9999ME1429009OA149900621REMSYN076AAXX  14164 06730 43/// /3303 11115 21131 36415 47900 52007 333 91112 91211;
0137067300999992010011417004+46550+007983FM-12+357699999V0203501N001519999999N9999999N1-01171-01301999999ADDMA1999999064201MD1310121+9999ME1429079OA149900511REMSYN076AAXX  14174 06730 43/// /3503 11117 21130 36420 47907 53012 333 91110 91204;
0260067300999992010011418004+46550+007983FM-12+357699999V0203301N001010021019N0700001N1-01171-01281999999ADDAY171061AY241061GA1071+002101031GF107991071001002501041999IA1239KA1120M-01131MA1999999064251MD1310121+9999ME1429139MW1021OA149901031REMSYN116AAXX  14184 06730 41388 73302 11117 21128 36425 47913 53012 70274 8704/ 333 11113 47/// 87307 91120 91212 444 66124;
0137067300999992010011419004+46550+007983FM-12+357699999V0203601N001019999999N9999999N1-01181-01361999999ADDMA1999999064321MD1310171+9999ME1429229OA149900411REMSYN076AAXX  14194 06730 43/// /3602 11118 21136 36432 47922 53017 333 91108 91204;
0137067300999992010011420004+46550+007983FM-12+357699999V0200301N000519999999N9999999N1-01171-01391999999ADDMA1999999064361MD1110161+9999ME1429269OA149900311REMSYN076AAXX  14204 06730 43/// /0301 11117 21139 36436 47926 51016 333 91106 91202;
0137067300999992010011421004+46550+007983FM-12+357699999V0203101N002119999999N9999999N1-01171-01421999999ADDMA1999999064411MD1110161+9999ME1429329OA149900511REMSYN076AAXX  14214 06730 43/// /3104 11117 21142 36441 47932 51016 333 91110 91204;
0137067300999992010011422004+46550+007983FM-12+357699999V0203301N002619999999N9999999N1-01211-01321999999ADDMA1999999064471MD1110151+9999ME1429419OA149900411REMSYN076AAXX  14224 06730 43/// /3305 11121 21132 36447 47941 51015 333 91108 91205;
0137067300999992010011423004+46550+007983FM-12+357699999V0203301N003119999999N9999999N1-01221-01341999999ADDMA1999999064511MD1110151+9999ME1429469OA149900411REMSYN076AAXX  14234 06730 43/// /3306 11122 21134 36451 47946 51015 333 91108 91207;
0137067300999992010011500004+46550+007983FM-12+357699999V0203301N004119999999N9999999N1-01231-01361999999ADDMA1999999064541MD1110131+9999ME1429509OA149900671REMSYN076AAXX  15004 06730 43/// /3308 11123 21136 36454 47950 51013 333 91113 91211;
0137067300999992010011501004+46550+007983FM-12+357699999V0203101N006719999999N9999999N1-01241-01471999999ADDMA1999999064561MD1110091+9999ME1429529OA149900821REMSYN076AAXX  15014 06730 43/// /3113 11124 21147 36456 47952 51009 333 91116 91213;
0137067300999992010011502004+46550+007983FM-12+357699999V0203201N006219999999N9999999N1-01331-01411999999ADDMA1999999064591MD1310081+9999ME1429589OA149900821REMSYN076AAXX  15024 06730 43/// /3212 11133 21141 36459 47958 53008 333 91116 91213;
0096067300999992010011503004+46550+007983FM-12+357699999V0203101N008219999999N9999999N1-01341-02021999999ADDMA1999999064631ME1429639REMSYN060AAXX  15034 06730 43/// /3116 11134 21202 36463 47963 5////;
0137067300999992010011504004+46550+007983FM-12+357699999V0203301N007219999999N9999999N1-01331-01861999999ADDMA1999999064661MD1110101+9999ME1429669OA149901081REMSYN076AAXX  15044 06730 43/// /3314 11133 21186 36466 47966 51010 333 91121 91216;
0137067300999992010011505004+46550+007983FM-12+357699999V0203101N007719999999N9999999N1-01371-02441999999ADDMA1999999064701MD1310111+9999ME1429729OA149901081REMSYN076AAXX  15054 06730 43/// /3115 11137 21244 36470 47972 53011 333 91121 91215;
0280067300999992010011506004+46550+007983FM-12+357699999V0203201N008710540019N0700001N1-01381-02311999999ADDGA1011+006301031GA2061+054001021GF106991011001008001041061GJ102049IA1239KA1999N-01431MA1999999064751MD1310121+9999ME1429789MW1021OA149901241REMSYN128AAXX  15064 06730 41588 63217 11138 21231 36475 47978 53012 702// 81046 333 21143 47/// 55034 81321 86268 91124 91218 444 66115;
0137067300999992010011507004+46550+007983FM-12+357699999V0203101N009319999999N9999999N1-01341-01931999999ADDMA1999999064821MD1310161+9999ME1429869OA149901291REMSYN076AAXX  15074 06730 43/// /3118 11134 21193 36482 47986 53016 333 91125 91219;
0137067300999992010011508004+46550+007983FM-12+357699999V0203101N008719999999N9999999N1-01381-02631999999ADDMA1999999064881MD1319999+9999ME1429949OA149901441REMSYN076AAXX  15084 06730 43/// /3117 11138 21263 36488 47994 53/// 333 91128 91219;
0223067300999992010011509004+46550+007983FM-12+357699999V0203101N007710540019N0750001N1-01391-02591999999ADDGA1011+006301031GA2071+054001021GF107991011001008001041061MA1999999064931MD1110181+9999ME1430009OA149901441REMSYN104AAXX  15094 06730 42589 73115 11139 21259 36493 47000 51018 81046 333 81321 87268 91128 91219 444 36105;
0137067300999992010011510004+46550+007983FM-12+357699999V0203001N010319999999N9999999N1-01291-01901999999ADDMA1999999064991MD1110171+9999ME1430059OA149901601REMSYN076AAXX  15104 06730 43/// /3020 11129 21190 36499 47005 51017 333 91131 91220;
0137067300999992010011511004+46550+007983FM-12+357699999V0203201N009319999999N9999999N1-01261-01711999999ADDMA1999999065031MD1110151+9999ME1430099OA149901751REMSYN076AAXX  15114 06730 43/// /3218 11126 21171 36503 47009 51015 333 91134 91221;
0219067300999992010011512004+46550+007983FM-12+357699999V0203101N008210081019N0750001N1-01261-01771999999ADDGA1061+008101031GF107991061001008001041061GG1069005009019999MA1999999065061MD1110131+9999ME1430139OA149901751REMSYN098AAXX  15124 06730 42589 73116 11126 21177 36506 47013 51013 86046 333 86327 91134 91221 444 36105;
0137067300999992010011513004+46550+007983FM-12+357699999V0203101N006719999999N9999999N1-01241-01841999999ADDMA1999999065081MD1310091+9999ME1430149OA149901391REMSYN076AAXX  15134 06730 43/// /3113 11124 21184 36508 47014 53009 333 91127 91217;
0137067300999992010011514004+46550+007983FM-12+357699999V0203201N004619999999N9999999N1-01411-02431999999ADDMA1999999065111MD1210081+9999ME1430229OA149901241REMSYN076AAXX  15144 06730 43/// /3209 11141 21243 36511 47022 52008 333 91124 91217;
0223067300999992010011515004+46550+007983FM-12+357699999V0203001N005710540019N0750001N1-01371-02291999999ADDGA1011+008101031GA2071+054001021GF107991011001008001041061MA1999999065161MD1210101+9999ME1430279OA149901751REMSYN104AAXX  15154 06730 42589 73011 11137 21229 36516 47027 52010 81046 333 81327 87268 91134 91221 444 26095;
0137067300999992010011516004+46550+007983FM-12+357699999V0203201N003119999999N9999999N1-01431-02561999999ADDMA1999999065201MD1210121+9999ME1430339OA149901131REMSYN076AAXX  15164 06730 43/// /3206 11143 21256 36520 47033 52012 333 91122 91212;
0137067300999992010011517004+46550+007983FM-12+357699999V0203001N006719999999N9999999N1-01341-02011999999ADDMA1999999065241MD1210131+9999ME1430369OA149901031REMSYN076AAXX  15174 06730 43/// /3013 11134 21201 36524 47036 52013 333 91120 91213;
0250067300999992010011518004+46550+007983FM-12+357699999V0203101N005112200019N0700001N1-01351-01911999999ADDGA1011+054001001GF101991001001999999001011GG1069095009009999IA1239KA1120M-01241MA1999999065271MD1110111+9999ME1430399OA149901751REMSYN110AAXX  15184 06730 42988 13110 11135 21191 36527 47039 51011 80001 333 11124 47/// 81068 91134 91221 444 26095;
0137067300999992010011519004+46550+007983FM-12+357699999V0203001N004619999999N9999999N1-01341-01811999999ADDMA1999999065301MD1210101+9999ME1430439OA149900981REMSYN076AAXX  15194 06730 43/// /3009 11134 21181 36530 47043 52010 333 91119 91212;
0137067300999992010011520004+46550+007983FM-12+357699999V0202901N003619999999N9999999N1-01341-01901999999ADDMA1999999065331MD1210091+9999ME1430469OA149901031REMSYN076AAXX  15204 06730 43/// /2907 11134 21190 36533 47046 52009 333 91120 91210;
0137067300999992010011521004+46550+007983FM-12+357699999V0203001N003119999999N9999999N1-01341-02001999999ADDMA1999999065341MD1210071+9999ME1430479OA149901031REMSYN076AAXX  15214 06730 43/// /3006 11134 21200 36534 47047 52007 333 91120 91213;
0137067300999992010011522004+46550+007983FM-12+357699999V0203501N001519999999N9999999N1-01231-02851999999ADDMA1999999065361MD1210061+9999ME1430489OA149900571REMSYN076AAXX  15224 06730 43/// /3503 11123 21285 36536 47048 52006 333 91111 91207;
0137067300999992010011523004+46550+007983FM-12+357699999V0202901N002619999999N9999999N1-01181-03041999999ADDMA1999999065381MD1210051+9999ME1430499OA149900511REMSYN076AAXX  15234 06730 43/// /2905 11118 21304 36538 47049 52005 333 91110 91207;
0137067300999992010011600004+46550+007983FM-12+357699999V0203201N001519999999N9999999N1-01201-03331999999ADDMA1999999065381MD1210041+9999ME1430499OA149901241REMSYN076AAXX  16004 06730 43/// /3203 11120 21333 36538 47049 52004 333 91124 91217;
0156067300999992010011601004+46550+007983FM-12+357699999V0203201N002119999999N9999999N1-01191-03061999999ADDMA1999999065361MD1410001+9999ME1430479OA149900511REMSYN076AAXX  16014 06730 43/// /3204 11119 21306 36536 47047 58000 333 91110 91206;EQDQ01+000082APCTEN
0137067300999992010011602004+46550+007983FM-12+357699999V0203201N004119999999N9999999N1-01231-02961999999ADDMA1999999065371MD1710011+9999ME1430499OA149900511REMSYN076AAXX  16024 06730 43/// /3208 11123 21296 36537 47049 57001 333 91110 91208;
0137067300999992010011603004+46550+007983FM-12+357699999V0203301N004119999999N9999999N1-01181-03361999999ADDMA1999999065371MD1019999+9999ME1430489OA149900771REMSYN076AAXX  16034 06730 43/// /3308 11118 21336 36537 47048 50/// 333 91115 91210;
0137067300999992010011604004+46550+007983FM-12+357699999V0203101N005119999999N9999999N1-01101-03771999999ADDMA1999999065391MD1210031+9999ME1430489OA149900821REMSYN076AAXX  16044 06730 43/// /3110 11110 21377 36539 47048 52003 333 91116 91211;
0137067300999992010011605004+46550+007983FM-12+357699999V0203401N004619999999N9999999N1-01111-03441999999ADDMA1999999065381MD1010011+9999ME1430479OA149900821REMSYN076AAXX  16054 06730 43/// /3409 11111 21344 36538 47047 50001 333 91116 91211;
0234067300999992010011606004+46550+007983FM-12+357699999V0203301N004112200019N0700001N1-01001-03511999999ADDGA1001+999999999GF100991001001999999001001GJ101149IA1239KA1999N-01371MA1999999065411MD1210041+9999ME1430499OA149901031REMSYN104AAXX  16064 06730 42988 03308 11100 21351 36541 47049 52004 333 21137 47/// 55019 91120 91211 444 66115;
0137067300999992010011607004+46550+007983FM-12+357699999V0203401N003619999999N9999999N1-00961-03481999999ADDMA1999999065421MD1310031+9999ME1430499OA149900771REMSYN076AAXX  16074 06730 43/// /3407 11096 21348 36542 47049 53003 333 91115 91209;
0137067300999992010011608004+46550+007983FM-12+357699999V0203201N005119999999N9999999N1-00891-02881999999ADDMA1999999065451MD1210071+9999ME1430519OA149900881REMSYN076AAXX  16084 06730 43/// /3210 11089 21288 36545 47051 52007 333 91117 91210;
0219067300999992010011609004+46550+007983FM-12+357699999V0203401N003112200019N0750001N1-00861-02311999999ADDGA1011+054001021GF101991001001999999001051GG1069004009019999MA1999999065451MD1210041+9999ME1430519OA149901031REMSYN098AAXX  16094 06730 42989 13406 11086 21231 36545 47051 52004 80005 333 81268 91120 91211 444 66104;
0137067300999992010011610004+46550+007983FM-12+357699999V0203201N004619999999N9999999N1-00841-02301999999ADDMA1999999065451MD1210031+9999ME1430509OA149901031REMSYN076AAXX  16104 06730 43/// /3209 11084 21230 36545 47050 52003 333 91120 91210;
0137067300999992010011611004+46550+007983FM-12+357699999V0203301N004119999999N9999999N1-00821-02191999999ADDMA1999999065431MD1710021+9999ME1430489OA149900821REMSYN076AAXX  16114 06730 43/// /3308 11082 21219 36543 47048 57002 333 91116 91210;
0219067300999992010011612004+46550+007983FM-12+357699999V0203401N004110540019N0750001N1-00751-02041999999ADDGA1061+054001021GF106991001001999999001071GG1069004009019999MA1999999065411MD1810041+9999ME1430449OA149901181REMSYN098AAXX  16124 06730 42989 63408 11075 21204 36541 47044 58004 80007 333 86268 91123 91212 444 66104;
0137067300999992010011613004+46550+007983FM-12+357699999V0203301N005119999999N9999999N1-00791-02121999999ADDMA1999999065381MD1710071+9999ME1430419OA149901181REMSYN076AAXX  16134 06730 43/// /3310 11079 21212 36538 47041 57007 333 91123 91212;
0137067300999992010011614004+46550+007983FM-12+357699999V0203601N002119999999N9999999N1-00751-02231999999ADDMA1999999065341MD1719999+9999ME1430359OA149901241REMSYN076AAXX  16144 06730 43/// /3604 11075 21223 36534 47035 57/// 333 91124 91212;
0219067300999992010011615004+46550+007983FM-12+357699999V0203001N005110141019N0750001N1-00671-02301999999ADDGA1081+014101041GF108991081001012501021999GG1069005009019999MA1999999065321MD1610091+9999ME1430319OA149901391REMSYN098AAXX  16154 06730 42689 83010 11067 21230 36532 47031 56009 8802/ 333 88447 91127 91212 444 36105;
0137067300999992010011616004+46550+007983FM-12+357699999V0203201N003619999999N9999999N1-00731-02221999999ADDMA1999999065311MD1710071+9999ME1430319OA149901601REMSYN076AAXX  16164 06730 43/// /3207 11073 21222 36531 47031 57007 333 91131 91213;
0137067300999992010011617004+46550+007983FM-12+357699999V0200201N003619999999N9999999N1-00771-02081999999ADDMA1999999065291MD1710051+9999ME1430309OA149901601REMSYN076AAXX  16174 06730 43/// /0207 11077 21208 36529 47030 57005 333 91131 91213;
0238067300999992010011618004+46550+007983FM-12+357699999V0201401N009310001519N0000001N1-00941-01311999999ADDAY171061AY241061GA1091+999999999GF109991091999999999999999IA1239KA1120M-00671MA1999999065231MD1710091+9999ME1430269MW1711OA149901601REMSYN094AAXX  16184 06730 41/00 91418 11094 21131 36523 47026 57009 77174 333 11067 47/// 91131 91218;
0137067300999992010011619004+46550+007983FM-12+357699999V0201301N001519999999N9999999N1-00841-01141999999ADDMA1999999065241MD1710071+9999ME1430259OA149901701REMSYN076AAXX  16194 06730 43/// /1303 11084 21114 36524 47025 57007 333 91133 91221;
0137067300999992010011620004+46550+007983FM-12+357699999V0201401N000519999999N9999999N1-00861-01061999999ADDMA1999999065191MD1710101+9999ME1430199OA149901701REMSYN076AAXX  16204 06730 43/// /1401 11086 21106 36519 47019 57010 333 91133 91221;
0137067300999992010011621004+46550+007983FM-12+357699999V0203601N002619999999N9999999N1-00891-01031999999ADDMA1999999065131MD1810101+9999ME1430139OA149901701REMSYN076AAXX  16214 06730 43/// /3605 11089 21103 36513 47013 58010 333 91133 91221;
0137067300999992010011622004+46550+007983FM-12+357699999V0203301N007219999999N9999999N1-00811-00921999999ADDMA1999999065081MD1710161+9999ME1430059OA149901801REMSYN076AAXX  16224 06730 43/// /3314 11081 21092 36508 47005 57016 333 91135 91214;
0137067300999992010011623004+46550+007983FM-12+357699999V0203201N008719999999N9999999N1-00891-00951999999ADDMA1999999065031MD1710161+9999ME1430019OA149901801REMSYN076AAXX  16234 06730 43/// /3217 11089 21095 36503 47001 57016 333 91135 91217;
0137067300999992010011700004+46550+007983FM-12+357699999V0203301N007719999999N9999999N1-01051-01121999999ADDMA1999999065041MD1710091+9999ME1430069OA149901801REMSYN076AAXX  17004 06730 43/// /3315 11105 21112 36504 47006 57009 333 91135 91221;
0137067300999992010011701004+46550+007983FM-12+357699999V0203301N010819999999N9999999N1-01231-01381999999ADDMA1999999065021MD1710061+9999ME1430079OA149902211REMSYN076AAXX  17014 06730 43/// /3321 11123 21138 36502 47007 57006 333 91143 91227;
0137067300999992010011702004+46550+007983FM-12+357699999V0203201N011319999999N9999999N1-01271-01361999999ADDMA1999999065001MD1719999+9999ME1430069OA149902211REMSYN076AAXX  17024 06730 43/// /3222 11127 21136 36500 47006 57/// 333 91143 91227;
