0093067390999992011121518004+46433+008083FM-12+289399999V02099999999999999999N9999999N1+99999+99999999999ADDAJ100879199999999REMSYN064AAXX  15184 06739 43/// ///// 1//// 2//// 3//// 5//// 333 4/087;
0093067390999992011121606004+46433+008083FM-12+289399999V02099999999999999999N9999999N1+99999+99999999999ADDAJ101039199999999REMSYN064AAXX  16064 06739 43/// ///// 1//// 2//// 3//// 5//// 333 4/103;
0093067390999992011121618004+46433+008083FM-12+289399999V02099999999999999999N9999999N1+99999+99999999999ADDAJ101489199999999REMSYN064AAXX  16184 06739 43/// ///// 1//// 2//// 3//// 5//// 333 4/148;
0093067390999992011121706004+46433+008083FM-12+289399999V02099999999999999999N9999999N1+99999+99999999999ADDAJ101459199999999REMSYN064AAXX  17064 06739 43/// ///// 1//// 2//// 3//// 5//// 333 4/145;
0093067390999992011121718004+46433+008083FM-12+289399999V02099999999999999999N9999999N1+99999+99999999999ADDAJ101549199999999REMSYN064AAXX  17184 06739 43/// ///// 1//// 2//// 3//// 5//// 333 4/154;
0093067390999992011121806004+46433+008083FM-12+289399999V02099999999999999999N9999999N1+99999+99999999999ADDAJ101459199999999REMSYN064AAXX  18064 06739 43/// ///// 1//// 2//// 3//// 5//// 333 4/145;
0093067390999992011121818004+46433+008083FM-12+289399999V02099999999999999999N9999999N1+99999+99999999999ADDAJ101449199999999REMSYN064AAXX  18184 06739 43/// ///// 1//// 2//// 3//// 5//// 333 4/144;
0093067390999992011121906004+46433+008083FM-12+289399999V02099999999999999999N9999999N1+99999+99999999999ADDAJ101419199999999REMSYN064AAXX  19064 06739 43/// ///// 1//// 2//// 3//// 5//// 333 4/141;
0093067390999992011121918004+46433+008083FM-12+289399999V02099999999999999999N9999999N1+99999+99999999999ADDAJ101389199999999REMSYN064AAXX  19184 06739 43/// ///// 1//// 2//// 3//// 5//// 333 4/138;
0093067390999992011122006004+46433+008083FM-12+289399999V02099999999999999999N9999999N1+99999+99999999999ADDAJ101349199999999REMSYN064AAXX  20064 06739 43/// ///// 1//// 2//// 3//// 5//// 333 4/134;
0093067390999992011122018004+46433+008083FM-12+289399999V02099999999999999999N9999999N1+99999+99999999999ADDAJ101499199999999REMSYN064AAXX  20184 06739 43/// ///// 1//// 2//// 3//// 5//// 333 4/149;
0093067390999992011122106004+46433+008083FM-12+289399999V02099999999999999999N9999999N1+99999+99999999999ADDAJ101469199999999REMSYN064AAXX  21064 06739 43/// ///// 1//// 2//// 3//// 5//// 333 4/146;
0093067390999992011122118004+46433+008083FM-12+289399999V02099999999999999999N9999999N1+99999+99999999999ADDAJ101499199999999REMSYN064AAXX  21184 06739 43/// ///// 1//// 2//// 3//// 5//// 333 4/149;
0093067390999992011122206004+46433+008083FM-12+289399999V02099999999999999999N9999999N1+99999+99999999999ADDAJ101539199999999REMSYN064AAXX  22064 06739 43/// ///// 1//// 2//// 3//// 5//// 333 4/153;
0093067390999992011122218004+46433+008083FM-12+289399999V02099999999999999999N9999999N1+99999+99999999999ADDAJ101599199999999REMSYN064AAXX  22184 06739 43/// ///// 1//// 2//// 3//// 5//// 333 4/159;
0093067390999992011122306004+46433+008083FM-12+289399999V02099999999999999999N9999999N1+99999+99999999999ADDAJ101569199999999REMSYN064AAXX  23064 06739 43/// ///// 1//// 2//// 3//// 5//// 333 4/156;
0093067390999992011122318004+46433+008083FM-12+289399999V02099999999999999999N9999999N1+99999+99999999999ADDAJ101509199999999REMSYN064AAXX  23184 06739 43/// ///// 1//// 2//// 3//// 5//// 333 4/150;
0093067390999992011122406004+46433+008083FM-12+289399999V02099999999999999999N9999999N1+99999+99999999999ADDAJ101479199999999REMSYN064AAXX  24064 06739 43/// ///// 1//// 2//// 3//// 5//// 333 4/147;
0093067390999992011122418004+46433+008083FM-12+289399999V02099999999999999999N9999999N1+99999+99999999999ADDAJ101469199999999REMSYN064AAXX  24184 06739 43/// ///// 1//// 2//// 3//// 5//// 333 4/146;
0093067390999992011122506004+46433+008083FM-12+289399999V02099999999999999999N9999999N1+99999+99999999999ADDAJ101429199999999REMSYN064AAXX  25064 06739 43/// ///// 1//// 2//// 3//// 5//// 333 4/142;
0093067390999992011122518004+46433+008083FM-12+289399999V02099999999999999999N9999999N1+99999+99999999999ADDAJ101399199999999REMSYN064AAXX  25184 06739 43/// ///// 1//// 2//// 3//// 5//// 333 4/139;
0093067390999992011122606004+46433+008083FM-12+289399999V02099999999999999999N9999999N1+99999+99999999999ADDAJ101349199999999REMSYN064AAXX  26064 06739 43/// ///// 1//// 2//// 3//// 5//// 333 4/134;
0093067390999992011122618004+46433+008083FM-12+289399999V02099999999999999999N9999999N1+99999+99999999999ADDAJ101319199999999REMSYN064AAXX  26184 06739 43/// ///// 1//// 2//// 3//// 5//// 333 4/131;
0093067390999992011122706004+46433+008083FM-12+289399999V02099999999999999999N9999999N1+99999+99999999999ADDAJ101309199999999REMSYN064AAXX  27064 06739 43/// ///// 1//// 2//// 3//// 5//// 333 4/130;
0093067390999992011122718004+46433+008083FM-12+289399999V02099999999999999999N9999999N1+99999+99999999999ADDAJ101289199999999REMSYN064AAXX  27184 06739 43/// ///// 1//// 2//// 3//// 5//// 333 4/128;
0093067390999992011122806004+46433+008083FM-12+289399999V02099999999999999999N9999999N1+99999+99999999999ADDAJ101269199999999REMSYN064AAXX  28064 06739 43/// ///// 1//// 2//// 3//// 5//// 333 4/126;
0093067390999992011122818004+46433+008083FM-12+289399999V02099999999999999999N9999999N1+99999+99999999999ADDAJ101279199999999REMSYN064AAXX  28184 06739 43/// ///// 1//// 2//// 3//// 5//// 333 4/127;
0093067390999992011122906004+46433+008083FM-12+289399999V02099999999999999999N9999999N1+99999+99999999999ADDAJ101289199999999REMSYN064AAXX  29064 06739 43/// ///// 1//// 2//// 3//// 5//// 333 4/128;
0093067390999992011122918004+46433+008083FM-12+289399999V02099999999999999999N9999999N1+99999+99999999999ADDAJ101299199999999REMSYN064AAXX  29184 06739 43/// ///// 1//// 2//// 3//// 5//// 333 4/129;
0093067390999992011123006004+46433+008083FM-12+289399999V02099999999999999999N9999999N1+99999+99999999999ADDAJ101409199999999REMSYN064AAXX  30064 06739 43/// ///// 1//// 2//// 3//// 5//// 333 4/140;
0093067390999992011123018004+46433+008083FM-12+289399999V02099999999999999999N9999999N1+99999+99999999999ADDAJ101549199999999REMSYN064AAXX  30184 06739 43/// ///// 1//// 2//// 3//// 5//// 333 4/154;
0093067390999992011123106004+46433+008083FM-12+289399999V02099999999999999999N9999999N1+99999+99999999999ADDAJ101639199999999REMSYN064AAXX  31064 06739 43/// ///// 1//// 2//// 3//// 5//// 333 4/163;
0093067390999992011123118004+46433+008083FM-12+289399999V02099999999999999999N9999999N1+99999+99999999999ADDAJ101849199999999REMSYN064AAXX  31184 06739 43/// ///// 1//// 2//// 3//// 5//// 333 4/184;
