0137067350999992010010100004+46500+007567FM-12+132099999V0202201N000519999999N9999999N1-00081-00201999999ADDMA1999999084391MD1710101+9999ME1312639OA149900621REMSYN076AAXX  01004 06735 33/// /2201 11008 21020 38439 48263 57010 333 91112 91204;
0137067350999992010010101004+46500+007567FM-12+132099999V0202901N000519999999N9999999N1-00091-00191999999ADDMA1999999084331MD1710121+9999ME1312589OA149900151REMSYN076AAXX  01014 06735 33/// /2901 11009 21019 38433 48258 57012 333 91103 91202;
0137067350999992010010102004+46500+007567FM-12+132099999V0202301N000519999999N9999999N1+00041-00191999999ADDMA1999999084291MD1719999+9999ME1312539OA149900151REMSYN076AAXX  01024 06735 33/// /2301 10004 21019 38429 48253 57/// 333 91103 91202;
0096067350999992010010103004+46500+007567FM-12+132099999V0202801N000519999999N9999999N1-00031-00191999999ADDMA1999999084231ME1312489REMSYN060AAXX  01034 06735 43/// /2801 11003 21019 38423 48248 5////;
0096067350999992010010104004+46500+007567FM-12+132099999V0202801N000519999999N9999999N1-00011-00201999999ADDMA1999999084181ME1312439REMSYN060AAXX  01044 06735 33/// /2801 11001 21020 38418 48243 5////;
0137067350999992010010105004+46500+007567FM-12+132099999V0202901N000519999999N9999999N1+00001-00161999999ADDMA1999999084161MD1610131+9999ME1312419OA149900101REMSYN076AAXX  01054 06735 33/// /2901 10000 21016 38416 48241 56013 333 91102 91201;
0314067350999992010010106004+46500+007567FM-12+132099999V0202501N000510240019N0200001N1+00031-00171999999ADDAA124004191AJ100199199999999AL19900491AL29900091GA1081+024001041GF108991999999022501999999GJ100009IA1279IA2999-00409KA1999N-00111MA1999999084131MD1610101+9999ME1312389OA149900211REMSYN124AAXX  01064 06735 32870 82501 10003 21017 38413 48238 56010 333 21011 3/104 43019 55000 70040 88458 90768 93100 91104 91202;
0137067350999992010010107004+46500+007567FM-12+132099999V0209999C000019999999N9999999N1+00001-00191999999ADDMA1999999084131MD1710051+9999ME1312389OA149900101REMSYN076AAXX  01074 06735 33/// /0000 10000 21019 38413 48238 57005 333 91102 91201;
0137067350999992010010108004+46500+007567FM-12+132099999V0209999C000019999999N9999999N1-00021-00191999999ADDMA1999999084171MD1310011+9999ME1312429OA149900101REMSYN076AAXX  01084 06735 33/// /0000 11002 21019 38417 48242 53001 333 91102 91201;
0137067350999992010010109004+46500+007567FM-12+132099999V0202401N001019999999N9999999N1+00121-00231999999ADDMA1999999084231MD1210101+9999ME1312479OA149900151REMSYN076AAXX  01094 06735 33/// /2402 10012 21023 38423 48247 52010 333 91103 91203;
0137067350999992010010110004+46500+007567FM-12+132099999V0202001N000519999999N9999999N1+00191-00191999999ADDMA1999999084281MD1110151+9999ME1312529OA149900151REMSYN076AAXX  01104 06735 33/// /2001 10019 21019 38428 48252 51015 333 91103 91203;
0137067350999992010010111004+46500+007567FM-12+132099999V0202101N001019999999N9999999N1+00321-00311999999ADDMA1999999084281MD1210111+9999ME1312529OA149900211REMSYN076AAXX  01114 06735 33/// /2102 10032 21031 38428 48252 52011 333 91104 91202;
0185067350999992010010112004+46500+007567FM-12+132099999V0201501N001010210019N0200001N1+00291-00341999999ADDGA1081+021001031GF108991999999022501999999MA1999999084291MD1210061+9999ME1312539OA149900211REMSYN082AAXX  01124 06735 32870 81502 10029 21034 38429 48253 52006 333 88357 91104 91203;
0137067350999992010010113004+46500+007567FM-12+132099999V0200501N001019999999N9999999N1+00201-00051999999ADDMA1999999084311MD1210031+9999ME1312559OA149900261REMSYN076AAXX  01134 06735 33/// /0502 10020 21005 38431 48255 52003 333 91105 91203;
0137067350999992010010114004+46500+007567FM-12+132099999V0201501N001019999999N9999999N1+00171-00081999999ADDMA1999999084371MD1219999+9999ME1312619OA149900261REMSYN076AAXX  01144 06735 33/// /1502 10017 21008 38437 48261 52/// 333 91105 91203;
0137067350999992010010115004+46500+007567FM-12+132099999V0200501N001519999999N9999999N1+00011+00011999999ADDMA1999999084461MD1210171+9999ME1312709OA149900411REMSYN076AAXX  01154 06735 33/// /0503 10001 20001 38446 48270 52017 333 91108 91204;
0154067350999992010010116004+46500+007567FM-12+132099999V0200901N000519999999N9999999N1-00021-00021999999ADDAA101000591MA1999999084571MD1210261+9999ME1312809OA149900461REMSYN082AAXX  01164 06735 23/// /0901 11002 21002 38457 48280 52026 333 69945 91109 91205;
0154067350999992010010117004+46500+007567FM-12+132099999V0200601N001519999999N9999999N1-00081-00101999999ADDAA101002091MA1999999084721MD1310351+9999ME1312949OA149900461REMSYN082AAXX  01174 06735 23/// /0603 11008 21010 38472 48294 53035 333 60025 91109 91205;
0300067350999992010010118004+46500+007567FM-12+132099999V0200501N002610006019N0008001N1-00151-00181999999ADDAA112005191AJ100279199999999AL11200891AY171061AY241061GA1091+999999999GF109991091999999999999999IA1279KA1120M+00321MA1999999084901MD1310441+9999ME1313119MW1731OA149900511REMSYN118AAXX  01184 06735 01/08 90505 11015 21018 38490 48311 53044 60052 77374 333 10032 43027 60025 90766 93108 91110 91205;
0154067350999992010010119004+46500+007567FM-12+132099999V0201201N001019999999N9999999N1-00221-00221999999ADDAA101002091MA1999999085021MD1210451+9999ME1313239OA149900511REMSYN082AAXX  01194 06735 23/// /1202 11022 21022 38502 48323 52045 333 60025 91110 91205;
0154067350999992010010120004+46500+007567FM-12+132099999V0209999C000019999999N9999999N1-00211-00211999999ADDAA101000591MA1999999085101MD1110381+9999ME1313309OA149900411REMSYN082AAXX  01204 06735 23/// /0000 11021 21021 38510 48330 51038 333 69945 91108 91204;
0154067350999992010010121004+46500+007567FM-12+132099999V0200501N001519999999N9999999N1-00201-00201999999ADDAA101000021MA1999999085191MD1110291+9999ME1313399OA149900511REMSYN082AAXX  01214 06735 23/// /0503 11020 21020 38519 48339 51029 333 69915 91110 91205;
0154067350999992010010122004+46500+007567FM-12+132099999V0200601N001519999999N9999999N1-00351-00351999999ADDAA101000021MA1999999085271MD1310251+9999ME1313469OA149900411REMSYN082AAXX  01224 06735 23/// /0603 11035 21035 38527 48346 53025 333 69915 91108 91204;
0137067350999992010010123004+46500+007567FM-12+132099999V0200701N001019999999N9999999N1-00371-00371999999ADDMA1999999085291MD1210191+9999ME1313489OA149900411REMSYN076AAXX  01234 06735 33/// /0702 11037 21037 38529 48348 52019 333 91108 91204;
0160067350999992010010200004+46500+007567FM-12+132099999V0200501N004119999999N9999999N1-00431-00491999999ADDAA106002091MA1999999085361MD1210171+9999ME1313549OA149900771REMSYN088AAXX  02004 06735 03/// /0508 11043 21049 38536 48354 52017 60021 333 69925 91115 91208;
0154067350999992010010201004+46500+007567FM-12+132099999V0200401N002619999999N9999999N1-00531-00611999999ADDAA101000891MA1999999085441MD1210171+9999ME1313619OA149900771REMSYN082AAXX  02014 06735 23/// /0405 11053 21061 38544 48361 52017 333 69975 91115 91208;
0117067350999992010010202004+46500+007567FM-12+132099999V0200501N003119999999N9999999N1-00591-00681999999ADDAA101000591MA1999999085571ME1313739REMSYN070AAXX  02024 06735 23/// /0506 11059 21068 38557 48373 5//// 333 69965;
0154067350999992010010203004+46500+007567FM-12+132099999V0200401N002119999999N9999999N1-00631-00751999999ADDAA101000591MA1999999085661MD1210301+9999ME1313819OA149900771REMSYN082AAXX  02034 06735 23/// /0404 11063 21075 38566 48381 52030 333 69955 91115 91208;
0154067350999992010010204004+46500+007567FM-12+132099999V0200301N002119999999N9999999N1-00651-00781999999ADDAA101000391MA1999999085711MD1110271+9999ME1313869OA149900571REMSYN082AAXX  02044 06735 23/// /0304 11065 21078 38571 48386 51027 333 69935 91111 91206;
0154067350999992010010205004+46500+007567FM-12+132099999V0200501N002619999999N9999999N1-00721-00811999999ADDAA101000021MA1999999085761MD1110191+9999ME1313909OA149900571REMSYN082AAXX  02054 06735 23/// /0505 11072 21081 38576 48390 51019 333 69915 91111 91206;
0365067350999992010010206004+46500+007567FM-12+132099999V0200501N003110021019N0012001N1-00771-00901999999ADDAA112005191AA224009791AJ100359199999999AL14200991AL29901791AY171061AY221061GA1081+002101051GF108991999999002501999999GJ100249IA1279IA2999-00609KA1999N-00761MA1999999085821MD1210161+9999ME1313959MW1731OA149900771REMSYN142AAXX  02064 06735 01312 80506 11077 21090 38582 48395 52016 60052 77372 333 21076 3/106 43035 55004 69925 70097 88507 90768 93117 91115 91208;
0154067350999992010010207004+46500+007567FM-12+132099999V0200601N002619999999N9999999N1-00801-00891999999ADDAA101000021MA1999999085901MD1310191+9999ME1314039OA149900571REMSYN082AAXX  02074 06735 23/// /0605 11080 21089 38590 48403 53019 333 69915 91111 91207;
0096067350999992010010208004+46500+007567FM-12+132099999V0200601N001519999999N9999999N1-00781-00921999999ADDMA1999999085951ME1314079REMSYN060AAXX  02084 06735 33/// /0603 11078 21092 38595 48407 5////;
0137067350999992010010209004+46500+007567FM-12+132099999V0200401N003619999999N9999999N1-00801-00961999999ADDMA1999999086041MD1210221+9999ME1314159OA149900621REMSYN076AAXX  02094 06735 33/// /0407 11080 21096 38604 48415 52022 333 91112 91207;
0154067350999992010010210004+46500+007567FM-12+132099999V0200401N003119999999N9999999N1-00821-00921999999ADDAA101000021MA1999999086121MD1310221+9999ME1314229OA149900721REMSYN082AAXX  02104 06735 23/// /0406 11082 21092 38612 48422 53022 333 69915 91114 91207;
0137067350999992010010211004+46500+007567FM-12+132099999V0200501N003119999999N9999999N1-00831-01001999999ADDMA1999999086171MD1110221+9999ME1314279OA149900721REMSYN076AAXX  02114 06735 33/// /0506 11083 21100 38617 48427 51022 333 91114 91208;
0236067350999992010010212004+46500+007567FM-12+132099999V0200501N003610036019N0040001N1-00881-01031999999ADDAA106000021AY171061AY221061GA1081+003601071GF108991999999004501999999MA1999999086241MD1210201+9999ME1314339MW1701OA149900771REMSYN100AAXX  02124 06735 01440 80507 11088 21103 38624 48433 52020 69921 77072 333 60005 88712 91115 91208;
0154067350999992010010213004+46500+007567FM-12+132099999V0200501N002619999999N9999999N1-00871-01041999999ADDAA101000021MA1999999086281MD1110161+9999ME1314379OA149900721REMSYN082AAXX  02134 06735 23/// /0505 11087 21104 38628 48437 51016 333 69915 91114 91208;
0137067350999992010010214004+46500+007567FM-12+132099999V0200501N002619999999N9999999N1-00891-01071999999ADDMA1999999086351MD1119999+9999ME1314439OA149900721REMSYN076AAXX  02144 06735 33/// /0505 11089 21107 38635 48443 51/// 333 91114 91208;
0137067350999992010010215004+46500+007567FM-12+132099999V0200601N002119999999N9999999N1-00931-01071999999ADDMA1999999086461MD1310221+9999ME1314529OA149900721REMSYN076AAXX  02154 06735 33/// /0604 11093 21107 38646 48452 53022 333 91114 91208;
0137067350999992010010216004+46500+007567FM-12+132099999V0202701N001019999999N9999999N1-00941-01121999999ADDMA1999999086521MD1110241+9999ME1314589OA149900511REMSYN076AAXX  02164 06735 33/// /2702 11094 21112 38652 48458 51024 333 91110 91206;
0137067350999992010010217004+46500+007567FM-12+132099999V0202301N002619999999N9999999N1-01081-01421999999ADDMA1999999086571MD1210221+9999ME1314619OA149900511REMSYN076AAXX  02174 06735 33/// /2305 11108 21142 38657 48461 52022 333 91110 91206;
0300067350999992010010218004+46500+007567FM-12+132099999V0200101N000512200019N0250001N1-01241-01491999999ADDAA112000391AJ100389199999999AL11200391AY171061AY211061GA1001+999999999GF100991001001999999001001IA1279KA1120M-00751MA1999999086611MD1210151+9999ME1314649MW1021OA149900721REMSYN118AAXX  02184 06735 01/75 00101 11124 21149 38661 48464 52015 69932 70271 333 11075 43038 60005 90766 93103 91114 91208;
0137067350999992010010219004+46500+007567FM-12+132099999V0202001N000519999999N9999999N1-01311-01561999999ADDMA1999999086621MD1110101+9999ME1314649OA149900151REMSYN076AAXX  02194 06735 33/// /2001 11131 21156 38662 48464 51010 333 91103 91201;
0137067350999992010010220004+46500+007567FM-12+132099999V0202401N000519999999N9999999N1-01271-01561999999ADDMA1999999086611MD1010041+9999ME1314649OA149900151REMSYN076AAXX  02204 06735 33/// /2401 11127 21156 38661 48464 50004 333 91103 91201;
0137067350999992010010221004+46500+007567FM-12+132099999V0209999C000519999999N9999999N1-01321-01631999999ADDMA1999999086591MD1710021+9999ME1314629OA149900511REMSYN076AAXX  02214 06735 33/// /0001 11132 21163 38659 48462 57002 333 91110 91206;
0137067350999992010010222004+46500+007567FM-12+132099999V0209999C000019999999N9999999N1-01341-01631999999ADDMA1999999086611MD1510011+9999ME1314639OA149900151REMSYN076AAXX  02224 06735 33/// /0000 11134 21163 38661 48463 55001 333 91103 91201;
0137067350999992010010223004+46500+007567FM-12+132099999V0202901N000519999999N9999999N1-01291-01611999999ADDMA1999999086651MD1310041+9999ME1314679OA149900211REMSYN076AAXX  02234 06735 33/// /2901 11129 21161 38665 48467 53004 333 91104 91202;
0137067350999992010010300004+46500+007567FM-12+132099999V0209999C000019999999N9999999N1-01271-01541999999ADDMA1999999086611MD1010021+9999ME1314649OA149900721REMSYN076AAXX  03004 06735 33/// /0000 11127 21154 38661 48464 50002 333 91114 91208;
0137067350999992010010301004+46500+007567FM-12+132099999V0209999C000019999999N9999999N1-01321-01571999999ADDMA1999999086621MD1010011+9999ME1314649OA149900151REMSYN076AAXX  03014 06735 33/// /0000 11132 21157 38662 48464 50001 333 91103 91201;
0096067350999992010010302004+46500+007567FM-12+132099999V0209999C000019999999N9999999N1-01281-01531999999ADDMA1999999086631ME1314659REMSYN060AAXX  03024 06735 33/// /0000 11128 21153 38663 48465 5////;
0096067350999992010010303004+46500+007567FM-12+132099999V0202801N000519999999N9999999N1-01221-01531999999ADDMA1999999086591ME1314629REMSYN060AAXX  03034 06735 33/// /2801 11122 21153 38659 48462 5////;
0137067350999992010010304004+46500+007567FM-12+132099999V0203301N000519999999N9999999N1-01231-01501999999ADDMA1999999086561MD1710061+9999ME1314609OA149900151REMSYN076AAXX  03044 06735 33/// /3301 11123 21150 38656 48460 57006 333 91103 91202;
0137067350999992010010305004+46500+007567FM-12+132099999V0203501N000519999999N9999999N1-01171-01481999999ADDMA1999999086541MD1719999+9999ME1314589OA149900151REMSYN076AAXX  03054 06735 33/// /3501 11117 21148 38654 48458 57/// 333 91103 91201;
0314067350999992010010306004+46500+007567FM-12+132099999V0209999C000010480019N0300001N1-01201-01491999999ADDAA124000591AJ100389199999999AL12400091AL29900491GA1061+048001021GF106991999999999999999999GJ100189IA1239IA2999-02009KA1999N-01361MA1999999086511MD1710081+9999ME1314559OA149900211REMSYN124AAXX  03064 06735 32980 60000 11120 21149 38651 48455 57008 333 21136 3/120 47038 55003 70004 86266 90768 93104 91104 91202;
0137067350999992010010307004+46500+007567FM-12+132099999V0209999C000019999999N9999999N1-01131-01441999999ADDMA1999999086481MD1710081+9999ME1314539OA149900151REMSYN076AAXX  03074 06735 33/// /0000 11113 21144 38648 48453 57008 333 91103 91202;
0137067350999992010010308004+46500+007567FM-12+132099999V0200301N000519999999N9999999N1-01021-01321999999ADDMA1999999086521MD1519999+9999ME1314579OA149900151REMSYN076AAXX  03084 06735 33/// /0301 11102 21132 38652 48457 55/// 333 91103 91202;
0137067350999992010010309004+46500+007567FM-12+132099999V0202101N001019999999N9999999N1-00851-01201999999ADDMA1999999086541MD1310031+9999ME1314609OA149900211REMSYN076AAXX  03094 06735 33/// /2102 11085 21120 38654 48460 53003 333 91104 91202;
0137067350999992010010310004+46500+007567FM-12+132099999V0200801N000519999999N9999999N1-00751-01191999999ADDMA1999999086551MD1210071+9999ME1314619OA149900211REMSYN076AAXX  03104 06735 33/// /0801 11075 21119 38655 48461 52007 333 91104 91202;
0137067350999992010010311004+46500+007567FM-12+132099999V0202501N000519999999N9999999N1-00701-01091999999ADDMA1999999086441MD1710081+9999ME1314529OA149900211REMSYN076AAXX  03114 06735 33/// /2501 11070 21109 38644 48452 57008 333 91104 91202;
0185067350999992010010312004+46500+007567FM-12+132099999V0200501N001010240019N0250001N1-00611-01031999999ADDGA1061+024001031GF106991999999022501999999MA1999999086401MD1710141+9999ME1314499OA149900261REMSYN082AAXX  03124 06735 32875 60502 11061 21103 38640 48449 57014 333 86358 91105 91202;
0137067350999992010010313004+46500+007567FM-12+132099999V0201001N000519999999N9999999N1-00731-01101999999ADDMA1999999086391MD1710161+9999ME1314479OA149900261REMSYN076AAXX  03134 06735 33/// /1001 11073 21110 38639 48447 57016 333 91105 91202;
0137067350999992010010314004+46500+007567FM-12+132099999V0202201N000519999999N9999999N1-00641-01321999999ADDMA1999999086421MD1510021+9999ME1314509OA149900261REMSYN076AAXX  03144 06735 33/// /2201 11064 21132 38642 48450 55002 333 91105 91202;
0137067350999992010010315004+46500+007567FM-12+132099999V0202201N001019999999N9999999N1-00641-01091999999ADDMA1999999086431MD1210031+9999ME1314519OA149900261REMSYN076AAXX  03154 06735 33/// /2202 11064 21109 38643 48451 52003 333 91105 91202;
0137067350999992010010316004+46500+007567FM-12+132099999V0202201N001019999999N9999999N1-00681-00921999999ADDMA1999999086421MD1210031+9999ME1314509OA149900151REMSYN076AAXX  03164 06735 33/// /2202 11068 21092 38642 48450 52003 333 91103 91202;
0137067350999992010010317004+46500+007567FM-12+132099999V0209999C000019999999N9999999N1-00731-00991999999ADDMA1999999086351MD1810071+9999ME1314439OA149900151REMSYN076AAXX  03174 06735 33/// /0000 11073 21099 38635 48443 58007 333 91103 91202;
0255067350999992010010318004+46500+007567FM-12+132099999V0209999C000010330019N0200001N1-00721-01031999999ADDAJ100389199999999AL19900091GA1081+033001041GF108991999999999999999999IA1239KA1120M-00591MA1999999086371MD1710061+9999ME1314459OA149900261REMSYN106AAXX  03184 06735 32970 80000 11072 21103 38637 48445 57006 333 11059 47038 88461 90766 93100 91105 91202;
0137067350999992010010319004+46500+007567FM-12+132099999V0202501N000519999999N9999999N1-00721-01071999999ADDMA1999999086331MD1710091+9999ME1314429OA149900211REMSYN076AAXX  03194 06735 33/// /2501 11072 21107 38633 48442 57009 333 91104 91202;
0137067350999992010010320004+46500+007567FM-12+132099999V0202701N000519999999N9999999N1-00731-01171999999ADDMA1999999086321MD1810031+9999ME1314419OA149900211REMSYN076AAXX  03204 06735 33/// /2701 11073 21117 38632 48441 58003 333 91104 91202;
0137067350999992010010321004+46500+007567FM-12+132099999V0202501N000519999999N9999999N1-00831-01241999999ADDMA1999999086291MD1710081+9999ME1314389OA149900211REMSYN076AAXX  03214 06735 33/// /2501 11083 21124 38629 48438 57008 333 91104 91202;
0137067350999992010010322004+46500+007567FM-12+132099999V0202701N000519999999N9999999N1-00911-01301999999ADDMA1999999086261MD1710071+9999ME1314359OA149900211REMSYN076AAXX  03224 06735 33/// /2701 11091 21130 38626 48435 57007 333 91104 91202;
0137067350999992010010323004+46500+007567FM-12+132099999V0203101N000519999999N9999999N1-00781-01281999999ADDMA1999999086201MD1710121+9999ME1314309OA149900151REMSYN076AAXX  03234 06735 33/// /3101 11078 21128 38620 48430 57012 333 91103 91202;
0137067350999992010010400004+46500+007567FM-12+132099999V0202101N001019999999N9999999N1-00741-01211999999ADDMA1999999086171MD1710121+9999ME1314279OA149900261REMSYN076AAXX  04004 06735 33/// /2102 11074 21121 38617 48427 57012 333 91105 91203;
0137067350999992010010401004+46500+007567FM-12+132099999V0202301N001519999999N9999999N1-00591-01101999999ADDMA1999999086101MD1810161+9999ME1314219OA149900261REMSYN076AAXX  04014 06735 33/// /2303 11059 21110 38610 48421 58016 333 91105 91203;
0137067350999992010010402004+46500+007567FM-12+132099999V0202001N001519999999N9999999N1-00631-00931999999ADDMA1999999086081MD1610121+9999ME1314199OA149900261REMSYN076AAXX  04024 06735 33/// /2003 11063 21093 38608 48419 56012 333 91105 91203;
0137067350999992010010403004+46500+007567FM-12+132099999V0209999C000019999999N9999999N1-00571-00971999999ADDMA1999999086021MD1619999+9999ME1314149OA149900261REMSYN076AAXX  04034 06735 33/// /0000 11057 21097 38602 48414 56/// 333 91105 91203;
0137067350999992010010404004+46500+007567FM-12+132099999V0202601N000519999999N9999999N1-00551-00891999999ADDMA1999999085981MD1810121+9999ME1314119OA149900211REMSYN076AAXX  04044 06735 33/// /2601 11055 21089 38598 48411 58012 333 91104 91201;
0137067350999992010010405004+46500+007567FM-12+132099999V0202201N000519999999N9999999N1-00601-00771999999ADDMA1999999086011MD1510071+9999ME1314139OA149900311REMSYN076AAXX  04054 06735 33/// /2201 11060 21077 38601 48413 55007 333 91106 91203;
0365067350999992010010406004+46500+007567FM-12+132099999V0201401N000510030019N0010001N1-00651-00691999999ADDAA112000892AA224000592AJ100339199999999AL13000091AL29903191AY171061AY221061GA1081+003001051GF108991999999004501999999GJ100009IA1239IA2999-01409KA1999N-01021MA1999999085991MD1710031+9999ME1314119MW1731OA149900311REMSYN142AAXX  04064 06735 01410 81401 11065 21069 38599 48411 57003 69972 77372 333 21102 3/114 47033 55000 69975 70005 88510 90768 93131 91106 91203;
0154067350999992010010407004+46500+007567FM-12+132099999V0201801N000519999999N9999999N1-00631-00711999999ADDAA101000891MA1999999085951MD1810031+9999ME1314089OA149900101REMSYN082AAXX  04074 06735 23/// /1801 11063 21071 38595 48408 58003 333 69985 91102 91201;
0154067350999992010010408004+46500+007567FM-12+132099999V0201101N000519999999N9999999N1-00621-00691999999ADDAA101000591MA1999999085931MD1710081+9999ME1314069OA149900101REMSYN082AAXX  04084 06735 23/// /1101 11062 21069 38593 48406 57008 333 69955 91102 91201;
0154067350999992010010409004+46500+007567FM-12+132099999V0200701N001519999999N9999999N1-00631-00691999999ADDAA101000021MA1999999085941MD1510051+9999ME1314079OA149900311REMSYN082AAXX  04094 06735 23/// /0703 11063 21069 38594 48407 55005 333 69925 91106 91203;
0154067350999992010010410004+46500+007567FM-12+132099999V0200501N001019999999N9999999N1-00581-00721999999ADDAA101000391MA1999999085921MD1710031+9999ME1314059OA149900261REMSYN082AAXX  04104 06735 23/// /0502 11058 21072 38592 48405 57003 333 69935 91105 91203;
0154067350999992010010411004+46500+007567FM-12+132099999V0201001N000519999999N9999999N1-00601-00721999999ADDAA101000021MA1999999085891MD1810041+9999ME1314029OA149900211REMSYN082AAXX  04114 06735 23/// /1001 11060 21072 38589 48402 58004 333 69915 91104 91202;
0236067350999992010010412004+46500+007567FM-12+132099999V0209999C000010015019N0030001N1-00541-00651999999ADDAA106002091AY171061AY231061GA1081+001501071GF108991999999001501999999MA1999999085831MD1810111+9999ME1313979MW1731OA149900311REMSYN100AAXX  04124 06735 01230 80000 11054 21065 38583 48397 58011 60021 77373 333 69925 88705 91106 91203;
0154067350999992010010413004+46500+007567FM-12+132099999V0201001N001019999999N9999999N1-00491-00631999999ADDAA101000021MA1999999085741MD1810181+9999ME1313899OA149900151REMSYN082AAXX  04134 06735 23/// /1002 11049 21063 38574 48389 58018 333 69925 91103 91202;
0137067350999992010010414004+46500+007567FM-12+132099999V0203001N000519999999N9999999N1-00511-00621999999ADDMA1999999085741MD1619999+9999ME1313899OA149900261REMSYN076AAXX  04144 06735 33/// /3001 11051 21062 38574 48389 56/// 333 91105 91203;
0137067350999992010010415004+46500+007567FM-12+132099999V0201801N001019999999N9999999N1-00531-00631999999ADDMA1999999085741MD1710091+9999ME1313899OA149900261REMSYN076AAXX  04154 06735 33/// /1802 11053 21063 38574 48389 57009 333 91105 91203;
0154067350999992010010416004+46500+007567FM-12+132099999V0209999C000019999999N9999999N1-00521-00581999999ADDAA101000591MA1999999085711MD1810031+9999ME1313869OA149900151REMSYN082AAXX  04164 06735 23/// /0000 11052 21058 38571 48386 58003 333 69945 91103 91202;
0154067350999992010010417004+46500+007567FM-12+132099999V0209999C000019999999N9999999N1-00551-00581999999ADDAA101000021MA1999999085701MD1719999+9999ME1313859OA149900151REMSYN082AAXX  04174 06735 23/// /0000 11055 21058 38570 48385 57/// 333 69925 91103 91202;
0306067350999992010010418004+46500+007567FM-12+132099999V0202301N000510012019N0070001N1-00611-00651999999ADDAA112003091AJ100399199999999AL11200991AY171061AY221061GA1081+001201051GF108991999999001501999999IA1239KA1120M-00471MA1999999085701MD1710041+9999ME1313859MW1731OA149900261REMSYN124AAXX  04184 06735 01257 82301 11061 21065 38570 48385 57004 60032 77372 333 11047 47039 69925 88504 90766 93109 91105 91203;
0154067350999992010010419004+46500+007567FM-12+132099999V0201901N000519999999N9999999N1-00561-00641999999ADDAA101000021MA1999999085671MD1710041+9999ME1313829OA149900261REMSYN082AAXX  04194 06735 23/// /1901 11056 21064 38567 48382 57004 333 69915 91105 91202;
0154067350999992010010420004+46500+007567FM-12+132099999V0200601N000519999999N9999999N1-00471-00591999999ADDAA101000021MA1999999085631MD1710071+9999ME1313799OA149900151REMSYN082AAXX  04204 06735 23/// /0601 11047 21059 38563 48379 57007 333 69915 91103 91202;
0137067350999992010010421004+46500+007567FM-12+132099999V0201001N000519999999N9999999N1-00581-00621999999ADDMA1999999085641MD1710061+9999ME1313809OA149900361REMSYN076AAXX  04214 06735 33/// /1001 11058 21062 38564 48380 57006 333 91107 91205;
0154067350999992010010422004+46500+007567FM-12+132099999V0209999C000019999999N9999999N1-00551-00631999999ADDAA101000021MA1999999085611MD1710061+9999ME1313779OA149900361REMSYN082AAXX  04224 06735 23/// /0000 11055 21063 38561 48377 57006 333 69925 91107 91205;
0137067350999992010010423004+46500+007567FM-12+132099999V0202501N000519999999N9999999N1-00471-00611999999ADDMA1999999085581MD1610051+9999ME1313749OA149900151REMSYN076AAXX  04234 06735 33/// /2501 11047 21061 38558 48374 56005 333 91103 91201;
0160067350999992010010500004+46500+007567FM-12+132099999V0202301N000519999999N9999999N1-00441-00591999999ADDAA106000591MA1999999085551MD1810091+9999ME1313729OA149900361REMSYN088AAXX  05004 06735 03/// /2301 11044 21059 38555 48372 58009 69941 333 60005 91107 91205;
0137067350999992010010501004+46500+007567FM-12+132099999V0201801N000519999999N9999999N1-00491-00581999999ADDMA1999999085491MD1610121+9999ME1313669OA149900151REMSYN076AAXX  05014 06735 33/// /1801 11049 21058 38549 48366 56012 333 91103 91202;
0137067350999992010010502004+46500+007567FM-12+132099999V0209999C000019999999N9999999N1-00441-00591999999ADDMA1999999085451MD1610131+9999ME1313629OA149900151REMSYN076AAXX  05024 06735 33/// /0000 11044 21059 38545 48362 56013 333 91103 91202;
0137067350999992010010503004+46500+007567FM-12+132099999V0200701N000519999999N9999999N1-00481-00581999999ADDMA1999999085401MD1610151+9999ME1313589OA149900151REMSYN076AAXX  05034 06735 33/// /0701 11048 21058 38540 48358 56015 333 91103 91202;
0137067350999992010010504004+46500+007567FM-12+132099999V0203101N000519999999N9999999N1-00481-00571999999ADDMA1999999085361MD1810131+9999ME1313549OA149900311REMSYN076AAXX  05044 06735 33/// /3101 11048 21057 38536 48354 58013 333 91106 91203;
0137067350999992010010505004+46500+007567FM-12+132099999V0202501N001019999999N9999999N1-00401-00511999999ADDMA1999999085291MD1610161+9999ME1313489OA149900311REMSYN076AAXX  05054 06735 33/// /2502 11040 21051 38529 48348 56016 333 91106 91203;
0365067350999992010010506004+46500+007567FM-12+132099999V0202601N001010270019N0200001N1-00381-00491999999ADDAA112000591AA224003891AJ100399199999999AL14800391AL29901091AY171061AY221061GA1071+027001031GF107991999999999999999999GJ100009IA1239IA2999-00709KA1999N-00631MA1999999085221MD1810181+9999ME1313419MW1021OA149900361REMSYN142AAXX  05064 06735 01970 72602 11038 21049 38522 48341 58018 69952 70272 333 21063 3/107 47039 55000 69915 70038 87359 90768 93110 91107 91205;
0137067350999992010010507004+46500+007567FM-12+132099999V0202601N001019999999N9999999N1-00381-00491999999ADDMA1999999085201MD1610161+9999ME1313399OA149900211REMSYN076AAXX  05074 06735 33/// /2602 11038 21049 38520 48339 56016 333 91104 91202;
0137067350999992010010508004+46500+007567FM-12+132099999V0200901N000519999999N9999999N1-00421-00481999999ADDMA1999999085191MD1710101+9999ME1313389OA149900211REMSYN076AAXX  05084 06735 33/// /0901 11042 21048 38519 48338 57010 333 91104 91202;
0137067350999992010010509004+46500+007567FM-12+132099999V0202301N000519999999N9999999N1-00321-00471999999ADDMA1999999085171MD1710051+9999ME1313379OA149900311REMSYN076AAXX  05094 06735 33/// /2301 11032 21047 38517 48337 57005 333 91106 91203;
0137067350999992010010510004+46500+007567FM-12+132099999V0202801N000519999999N9999999N1-00261-00411999999ADDMA1999999085141MD1810061+9999ME1313349OA149900151REMSYN076AAXX  05104 06735 33/// /2801 11026 21041 38514 48334 58006 333 91103 91202;
0137067350999992010010511004+46500+007567FM-12+132099999V0201101N001019999999N9999999N1-00091-00381999999ADDMA1999999085061MD1810131+9999ME1313269OA149900151REMSYN076AAXX  05114 06735 33/// /1102 11009 21038 38506 48326 58013 333 91103 91202;
0207067350999992010010512004+46500+007567FM-12+132099999V0200901N000512200019N0350001N1-00211-00381999999ADDGA1011+024001031GA2031+054001001GF103991999999022501999999MA1999999085031MD1610141+9999ME1313249OA149900311REMSYN088AAXX  05124 06735 32881 30901 11021 21038 38503 48324 56014 333 81358 83068 91106 91203;
0137067350999992010010513004+46500+007567FM-12+132099999V0201601N000519999999N9999999N1-00201-00391999999ADDMA1999999084961MD1810181+9999ME1313179OA149900261REMSYN076AAXX  05134 06735 33/// /1601 11020 21039 38496 48317 58018 333 91105 91202;
0096067350999992010010514004+46500+007567FM-12+132099999V0200801N000519999999N9999999N1-00271-00511999999ADDMA1999999084921ME1313139REMSYN060AAXX  05144 06735 33/// /0801 11027 21051 38492 48313 5////;
0137067350999992010010515004+46500+007567FM-12+132099999V0202201N001019999999N9999999N1-00351-00441999999ADDMA1999999084911MD1610121+9999ME1313129OA149900261REMSYN076AAXX  05154 06735 33/// /2202 11035 21044 38491 48312 56012 333 91105 91202;
0137067350999992010010516004+46500+007567FM-12+132099999V0202401N000519999999N9999999N1-00381-00531999999ADDMA1999999084901MD1610061+9999ME1313119OA149900211REMSYN076AAXX  05164 06735 33/// /2401 11038 21053 38490 48311 56006 333 91104 91203;
0137067350999992010010517004+46500+007567FM-12+132099999V0209999C000019999999N9999999N1-00521-00681999999ADDMA1999999084891MD1710031+9999ME1313119OA149900211REMSYN076AAXX  05174 06735 33/// /0000 11052 21068 38489 48311 57003 333 91104 91203;
0255067350999992010010518004+46500+007567FM-12+132099999V0209999C000012200019N0350001N1-00521-00701999999ADDAJ100389199999999AL19900091GA1011+027001031GF101991999999999999999999IA1239KA1120M-00091MA1999999084871MD1710041+9999ME1313099OA149900261REMSYN106AAXX  05184 06735 32981 10000 11052 21070 38487 48309 57004 333 11009 47038 81359 90766 93100 91105 91203;
0137067350999992010010519004+46500+007567FM-12+132099999V0202801N000519999999N9999999N1-00431-00621999999ADDMA1999999084861MD1710041+9999ME1313089OA149900151REMSYN076AAXX  05194 06735 33/// /2801 11043 21062 38486 48308 57004 333 91103 91201;
0137067350999992010010520004+46500+007567FM-12+132099999V0203501N000519999999N9999999N1-00531-00751999999ADDMA1999999084811MD1810081+9999ME1313039OA149900151REMSYN076AAXX  05204 06735 33/// /3501 11053 21075 38481 48303 58008 333 91103 91201;
0137067350999992010010521004+46500+007567FM-12+132099999V0202901N000519999999N9999999N1-00421-00671999999ADDMA1999999084791MD1710081+9999ME1313019OA149900211REMSYN076AAXX  05214 06735 33/// /2901 11042 21067 38479 48301 57008 333 91104 91203;
0137067350999992010010522004+46500+007567FM-12+132099999V0209999C000019999999N9999999N1-00481-00711999999ADDMA1999999084781MD1710081+9999ME1313009OA149900151REMSYN076AAXX  05224 06735 33/// /0000 11048 21071 38478 48300 57008 333 91103 91202;
0137067350999992010010523004+46500+007567FM-12+132099999V0200401N000519999999N9999999N1-00421-00711999999ADDMA1999999084761MD1710051+9999ME1312989OA149900151REMSYN076AAXX  05234 06735 33/// /0401 11042 21071 38476 48298 57005 333 91103 91202;
0137067350999992010010600004+46500+007567FM-12+132099999V0203001N000519999999N9999999N1-00551-00711999999ADDMA1999999084731MD1810061+9999ME1312969OA149900211REMSYN076AAXX  06004 06735 33/// /3001 11055 21071 38473 48296 58006 333 91104 91203;
0137067350999992010010601004+46500+007567FM-12+132099999V0202601N000519999999N9999999N1-00561-00731999999ADDMA1999999084731MD1710051+9999ME1312969OA149900151REMSYN076AAXX  06014 06735 33/// /2601 11056 21073 38473 48296 57005 333 91103 91202;
0137067350999992010010602004+46500+007567FM-12+132099999V0200501N000519999999N9999999N1-00441-00681999999ADDMA1999999084741MD1510021+9999ME1312979OA149900151REMSYN076AAXX  06024 06735 33/// /0501 11044 21068 38474 48297 55002 333 91103 91202;
0137067350999992010010603004+46500+007567FM-12+132099999V0200101N000519999999N9999999N1-00411-00641999999ADDMA1999999084741MD1210011+9999ME1312979OA149900151REMSYN076AAXX  06034 06735 33/// /0101 11041 21064 38474 48297 52001 333 91103 91202;
0137067350999992010010604004+46500+007567FM-12+132099999V0202101N000519999999N9999999N1-00411-00611999999ADDMA1999999084721MD1010011+9999ME1312959OA149900151REMSYN076AAXX  06044 06735 33/// /2101 11041 21061 38472 48295 50001 333 91103 91202;
0137067350999992010010605004+46500+007567FM-12+132099999V0202801N000519999999N9999999N1-00411-00661999999ADDMA1999999084731MD1710011+9999ME1312969OA149900151REMSYN076AAXX  06054 06735 33/// /2801 11041 21066 38473 48296 57001 333 91103 91202;
0323067350999992010010606004+46500+007567FM-12+132099999V0203501N000512200019N0250001N1-00681-00791999999ADDAA124000091AJ100389199999999AL19900091GA1021+027001031GF102991999999999999999999GJ102349IA1239IA2999-01009KA1999N-00661MA1999999084751MD1310011+9999ME1312989OA149900151REMSYN124AAXX  06064 06735 32975 23501 11068 21079 38475 48298 53001 333 21066 3/110 47038 55039 70000 82359 90768 93100 91103 91202;EQDQ01  00002PRCP24
0137067350999992010010607004+46500+007567FM-12+132099999V0202101N000519999999N9999999N1-00871-00931999999ADDMA1999999084781MD1210061+9999ME1313019OA149900211REMSYN076AAXX  06074 06735 33/// /2101 11087 21093 38478 48301 52006 333 91104 91203;
0137067350999992010010608004+46500+007567FM-12+132099999V0202301N001019999999N9999999N1-00681-00811999999ADDMA1999999084831MD1210101+9999ME1313059OA149900211REMSYN076AAXX  06084 06735 33/// /2302 11068 21081 38483 48305 52010 333 91104 91203;
0137067350999992010010609004+46500+007567FM-12+132099999V0201901N000519999999N9999999N1-00591-00731999999ADDMA1999999084861MD1310111+9999ME1313089OA149900211REMSYN076AAXX  06094 06735 33/// /1901 11059 21073 38486 48308 53011 333 91104 91203;
0137067350999992010010610004+46500+007567FM-12+132099999V0200601N001519999999N9999999N1-00541-00541999999ADDMA1999999084891MD1110111+9999ME1313119OA149900261REMSYN076AAXX  06104 06735 33/// /0603 11054 21054 38489 48311 51011 333 91105 91203;
0137067350999992010010611004+46500+007567FM-12+132099999V0200701N000519999999N9999999N1-00521-00531999999ADDMA1999999084881MD1019999+9999ME1313109OA149900311REMSYN076AAXX  06114 06735 33/// /0701 11052 21053 38488 48310 50/// 333 91106 91203;
0248067350999992010010612004+46500+007567FM-12+132099999V0200901N001510180019N0120001N1-00411-00581999999ADDGA1031+002701071GA2041+018001031GA3051+057001001GF107991999999002501999999MA1999999084861MD1410001+9999ME1313089OA149900311REMSYN094AAXX  06124 06735 32362 70903 11041 21058 38486 48308 58000 333 83709 84356 85069 91106 91203;EQDQ01+000082APCTEN
0137067350999992010010613004+46500+007567FM-12+132099999V0200501N002119999999N9999999N1-00371-00541999999ADDMA1999999084841MD1810051+9999ME1313069OA149900411REMSYN076AAXX  06134 06735 33/// /0504 11037 21054 38484 48306 58005 333 91108 91204;
0137067350999992010010614004+46500+007567FM-12+132099999V0200801N001019999999N9999999N1-00521-00621999999ADDMA1999999084871MD1519999+9999ME1313099OA149900461REMSYN076AAXX  06144 06735 33/// /0802 11052 21062 38487 48309 55/// 333 91109 91204;
0137067350999992010010615004+46500+007567FM-12+132099999V0200701N001519999999N9999999N1-00561-00651999999ADDMA1999999084921MD1219999+9999ME1313139OA149900461REMSYN076AAXX  06154 06735 33/// /0703 11056 21065 38492 48313 52/// 333 91109 91204;
0137067350999992010010616004+46500+007567FM-12+132099999V0201201N000519999999N9999999N1-00591-00641999999ADDMA1999999084961MD1310121+9999ME1313179OA149900261REMSYN076AAXX  06164 06735 33/// /1201 11059 21064 38496 48317 53012 333 91105 91203;
0137067350999992010010617004+46500+007567FM-12+132099999V0200901N001019999999N9999999N1-00581-00581999999ADDMA1999999085021MD1210151+9999ME1313239OA149900211REMSYN076AAXX  06174 06735 33/// /0902 11058 21058 38502 48323 52015 333 91104 91203;
0283067350999992010010618004+46500+007567FM-12+132099999V0201701N000510030019N0060001N1-00681-00781999999ADDAJ100349199999999AL19900091AY171061AY221061GA1081+003001071GF108991999999004501999999IA1239KA1120M-00371MA1999999085061MD1219999+9999ME1313269MW1701OA149900461REMSYN112AAXX  06184 06735 31456 81701 11068 21078 38506 48326 52/// 77072 333 11037 47034 88710 90766 93100 91109 91204;
0137067350999992010010619004+46500+007567FM-12+132099999V0200501N000519999999N9999999N1-00791-00911999999ADDMA1999999085081MD1210121+9999ME1313289OA149900211REMSYN076AAXX  06194 06735 33/// /0501 11079 21091 38508 48328 52012 333 91104 91202;
0137067350999992010010620004+46500+007567FM-12+132099999V0201901N000519999999N9999999N1-00851-00961999999ADDMA1999999085101MD1210081+9999ME1313299OA149900211REMSYN076AAXX  06204 06735 33/// /1901 11085 21096 38510 48329 52008 333 91104 91202;
0137067350999992010010621004+46500+007567FM-12+132099999V0202001N000519999999N9999999N1-00781-00901999999ADDMA1999999085121MD1210061+9999ME1313329OA149900211REMSYN076AAXX  06214 06735 33/// /2001 11078 21090 38512 48332 52006 333 91104 91203;
0137067350999992010010622004+46500+007567FM-12+132099999V0202001N001519999999N9999999N1-00851-01011999999ADDMA1999999085171MD1210091+9999ME1313369OA149900261REMSYN076AAXX  06224 06735 33/// /2003 11085 21101 38517 48336 52009 333 91105 91203;
0137067350999992010010623004+46500+007567FM-12+132099999V0202601N001019999999N9999999N1-00911-01141999999ADDMA1999999085221MD1310121+9999ME1313419OA149900311REMSYN076AAXX  06234 06735 33/// /2602 11091 21114 38522 48341 53012 333 91106 91204;
0137067350999992010010700004+46500+007567FM-12+132099999V0200101N000519999999N9999999N1-01011-01211999999ADDMA1999999085211MD1210091+9999ME1313409OA149900461REMSYN076AAXX  07004 06735 33/// /0101 11101 21121 38521 48340 52009 333 91109 91204;
0137067350999992010010701004+46500+007567FM-12+132099999V0209999C000019999999N9999999N1-00991-01301999999ADDMA1999999085191MD1010021+9999ME1313389OA149900311REMSYN076AAXX  07014 06735 33/// /0000 11099 21130 38519 48338 50002 333 91106 91203;
0137067350999992010010702004+46500+007567FM-12+132099999V0200401N002119999999N9999999N1-00931-01231999999ADDMA1999999085221MD1519999+9999ME1313419OA149900311REMSYN076AAXX  07024 06735 33/// /0404 11093 21123 38522 48341 55/// 333 91106 91204;
0137067350999992010010703004+46500+007567FM-12+132099999V0202701N001019999999N9999999N1-01011-01291999999ADDMA1999999085241MD1310031+9999ME1313439OA149900311REMSYN076AAXX  07034 06735 33/// /2702 11101 21129 38524 48343 53003 333 91106 91204;
0137067350999992010010704004+46500+007567FM-12+132099999V0202901N000519999999N9999999N1-01081-01451999999ADDMA1999999085221MD1210031+9999ME1313419OA149900311REMSYN076AAXX  07044 06735 33/// /2901 11108 21145 38522 48341 52003 333 91106 91203;
0137067350999992010010705004+46500+007567FM-12+132099999V0201801N001019999999N9999999N1-00981-01491999999ADDMA1999999085211MD1810011+9999ME1313409OA149900311REMSYN076AAXX  07054 06735 33/// /1802 11098 21149 38521 48340 58001 333 91106 91202;
0304067350999992010010706004+46500+007567FM-12+132099999V0201601N000510330019N0200001N1-00951-01491999999ADDAA124000021AJ100339199999999AL19900091GA1061+033001031GF106991999999999999999999GJ101029IA1279IA2999-01509KA1999N-01121MA1999999085231MD1510011+9999ME1313429OA149900311REMSYN124AAXX  07064 06735 32970 61601 11095 21149 38523 48342 55001 333 21112 3/115 43033 55017 70000 86361 90768 93100 91106 91204;
0137067350999992010010707004+46500+007567FM-12+132099999V0202501N000519999999N9999999N1-00921-01431999999ADDMA1999999085251MD1210031+9999ME1313449OA149900361REMSYN076AAXX  07074 06735 33/// /2501 11092 21143 38525 48344 52003 333 91107 91202;
0137067350999992010010708004+46500+007567FM-12+132099999V0200401N001519999999N9999999N1-00811-01531999999ADDMA1999999085321MD1319999+9999ME1313509OA149900361REMSYN076AAXX  07084 06735 33/// /0403 11081 21153 38532 48350 53/// 333 91107 91203;
0137067350999992010010709004+46500+007567FM-12+132099999V0202601N000519999999N9999999N1-00871-01321999999ADDMA1999999085351MD1310121+9999ME1313539OA149900361REMSYN076AAXX  07094 06735 33/// /2601 11087 21132 38535 48353 53012 333 91107 91203;
0137067350999992010010710004+46500+007567FM-12+132099999V0201801N000519999999N9999999N1-00741-01371999999ADDMA1999999085411MD1110161+9999ME1313589OA149900261REMSYN076AAXX  07104 06735 33/// /1801 11074 21137 38541 48358 51016 333 91105 91202;
0137067350999992010010711004+46500+007567FM-12+132099999V0201401N000519999999N9999999N1-00591-01211999999ADDMA1999999085381MD1010061+9999ME1313569OA149900261REMSYN076AAXX  07114 06735 33/// /1401 11059 21121 38538 48356 50006 333 91105 91202;
0207067350999992010010712004+46500+007567FM-12+132099999V0200701N002110390019N0200001N1-00621-01031999999ADDGA1031+024001031GA2081+039001041GF108991999999022501999999MA1999999085401MD1210051+9999ME1313589OA149900361REMSYN088AAXX  07124 06735 32870 80704 11062 21103 38540 48358 52005 333 83358 88463 91107 91204;
0137067350999992010010713004+46500+007567FM-12+132099999V0201501N000519999999N9999999N1-00631-01081999999ADDMA1999999085421MD1319999+9999ME1313599OA149900361REMSYN076AAXX  07134 06735 33/// /1501 11063 21108 38542 48359 53/// 333 91107 91204;
0102067350999992010010715004+46500+007567FM-12+132099999V0201901N000519999999N9999999N1-00721-00941999999ADDMA1999999085521ME1313689REMSYN066AAXX  07154 06735 43/// /1901 11072 21094 38552 48368 5//// 91520;
0137067350999992010010716004+46500+007567FM-12+132099999V0202401N000519999999N9999999N1-00671-00911999999ADDMA1999999085521MD1219999+9999ME1313689OA149900261REMSYN076AAXX  07164 06735 33/// /2401 11067 21091 38552 48368 52/// 333 91105 91203;
0137067350999992010010717004+46500+007567FM-12+132099999V0202101N001519999999N9999999N1-00621-01111999999ADDMA1999999085541MD1219999+9999ME1313709OA149900361REMSYN076AAXX  07174 06735 33/// /2103 11062 21111 38554 48370 52/// 333 91107 91203;
0255067350999992010010718004+46500+007567FM-12+132099999V0201801N000510390019N0250001N1-00681-01041999999ADDAJ100329199999999AL19900091GA1081+039001041GF108991999999999999999999IA1279KA1120M-00521MA1999999085561MD1219999+9999ME1313729OA149900361REMSYN106AAXX  07184 06735 32975 81801 11068 21104 38556 48372 52/// 333 11052 43032 88463 90766 93100 91107 91204;
0137067350999992010010719004+46500+007567FM-12+132099999V0209999C000019999999N9999999N1-00681-01011999999ADDMA1999999085591MD1210071+9999ME1313759OA149900151REMSYN076AAXX  07194 06735 33/// /0000 11068 21101 38559 48375 52007 333 91103 91201;
0137067350999992010010720004+46500+007567FM-12+132099999V0202401N000519999999N9999999N1-00701-01001999999ADDMA1999999085581MD1210041+9999ME1313749OA149900101REMSYN076AAXX  07204 06735 33/// /2401 11070 21100 38558 48374 52004 333 91102 91201;
0137067350999992010010721004+46500+007567FM-12+132099999V0209999C000019999999N9999999N1-00671-00981999999ADDMA1999999085571MD1010011+9999ME1313739OA149900361REMSYN076AAXX  07214 06735 33/// /0000 11067 21098 38557 48373 50001 333 91107 91203;
0137067350999992010010722004+46500+007567FM-12+132099999V0209999C000019999999N9999999N1-00631-01001999999ADDMA1999999085571MD1710021+9999ME1313739OA149900151REMSYN076AAXX  07224 06735 33/// /0000 11063 21100 38557 48373 57002 333 91103 91201;
0137067350999992010010723004+46500+007567FM-12+132099999V0209999C000019999999N9999999N1-00581-01081999999ADDMA1999999085551MD1810031+9999ME1313719OA149900151REMSYN076AAXX  07234 06735 33/// /0000 11058 21108 38555 48371 58003 333 91103 91201;
0137067350999992010010800004+46500+007567FM-12+132099999V0202101N001019999999N9999999N1-00571-01051999999ADDMA1999999085511MD1810061+9999ME1313689OA149900361REMSYN076AAXX  08004 06735 33/// /2102 11057 21105 38551 48368 58006 333 91107 91203;
0137067350999992010010801004+46500+007567FM-12+132099999V0202001N001519999999N9999999N1-00661-00841999999ADDMA1999999085481MD1710091+9999ME1313659OA149900261REMSYN076AAXX  08014 06735 33/// /2003 11066 21084 38548 48365 57009 333 91105 91203;
0137067350999992010010802004+46500+007567FM-12+132099999V0202101N001019999999N9999999N1-00671-00861999999ADDMA1999999085461MD1719999+9999ME1313639OA149900261REMSYN076AAXX  08024 06735 33/// /2102 11067 21086 38546 48363 57/// 333 91105 91203;
0137067350999992010010803004+46500+007567FM-12+132099999V0201701N000519999999N9999999N1-00711-00801999999ADDMA1999999085411MD1719999+9999ME1313589OA149900261REMSYN076AAXX  08034 06735 33/// /1701 11071 21080 38541 48358 57/// 333 91105 91203;
0137067350999992010010804004+46500+007567FM-12+132099999V0200801N000519999999N9999999N1-00711-00791999999ADDMA1999999085351MD1810131+9999ME1313539OA149900151REMSYN076AAXX  08044 06735 33/// /0801 11071 21079 38535 48353 58013 333 91103 91202;
0137067350999992010010805004+46500+007567FM-12+132099999V0209999C000019999999N9999999N1-00721-00791999999ADDMA1999999085291MD1710171+9999ME1313479OA149900101REMSYN076AAXX  08054 06735 33/// /0000 11072 21079 38529 48347 57017 333 91102 91201;
0362067350999992010010806004+46500+007567FM-12+132099999V0209999C000010270019N0150001N1-00701-00781999999ADDAA112000091AA224000091AJ100329199999999AL19900091GA1081+027001031GF108991999999999999999999GJ100969IA1239IA2999-00909KA1999N-00731MA1999999085241MD1710171+9999ME1313439OA149900261REMSYN136AAXX  08064 06735 02965 80000 11070 21078 38524 48343 57017 69912 333 21073 3/109 47032 55016 69915 70001 88359 90768 93100 91105 91203;EQDQ01  00002PRCP24Q02  00002PRCP12
0137067350999992010010807004+46500+007567FM-12+132099999V0201201N000519999999N9999999N1-00721-00821999999ADDMA1999999085211MD1610141+9999ME1313409OA149900151REMSYN076AAXX  08074 06735 33/// /1201 11072 21082 38521 48340 56014 333 91103 91202;
0137067350999992010010808004+46500+007567FM-12+132099999V0200901N000519999999N9999999N1-00781-00811999999ADDMA1999999085151MD1810141+9999ME1313359OA149900151REMSYN076AAXX  08084 06735 33/// /0901 11078 21081 38515 48335 58014 333 91103 91202;
0137067350999992010010809004+46500+007567FM-12+132099999V0201001N001019999999N9999999N1-00751-00761999999ADDMA1999999085121MD1610121+9999ME1313329OA149900261REMSYN076AAXX  08094 06735 33/// /1002 11075 21076 38512 48332 56012 333 91105 91203;
0137067350999992010010810004+46500+007567FM-12+132099999V0201101N000519999999N9999999N1-00721-00791999999ADDMA1999999085071MD1810141+9999ME1313279OA149900261REMSYN076AAXX  08104 06735 33/// /1101 11072 21079 38507 48327 58014 333 91105 91203;
0137067350999992010010811004+46500+007567FM-12+132099999V0201201N001019999999N9999999N1-00691-00831999999ADDMA1999999085021MD1810131+9999ME1313239OA149900261REMSYN076AAXX  08114 06735 33/// /1202 11069 21083 38502 48323 58013 333 91105 91203;
0229067350999992010010812004+46500+007567FM-12+132099999V0200801N000510090019N0180001N1-00601-00891999999ADDGA1021+002701071GA2051+009001061GA3051+048001001GF106991999999002501999999MA1999999084951MD1810171+9999ME1313169OA149900261REMSYN094AAXX  08124 06735 32368 60801 11060 21089 38495 48316 58017 333 82709 85630 85066 91105 91203;
0137067350999992010010813004+46500+007567FM-12+132099999V0200501N001519999999N9999999N1-00541-00781999999ADDMA1999999084871MD1810201+9999ME1313099OA149900361REMSYN076AAXX  08134 06735 33/// /0503 11054 21078 38487 48309 58020 333 91107 91203;
0137067350999992010010814004+46500+007567FM-12+132099999V0200701N001519999999N9999999N1-00611-00741999999ADDMA1999999084861MD1619999+9999ME1313089OA149900361REMSYN076AAXX  08144 06735 33/// /0703 11061 21074 38486 48308 56/// 333 91107 91204;
0137067350999992010010815004+46500+007567FM-12+132099999V0200701N002119999999N9999999N1-00671-00681999999ADDMA1999999084901MD1510051+9999ME1313129OA149900461REMSYN076AAXX  08154 06735 33/// /0704 11067 21068 38490 48312 55005 333 91109 91204;
0137067350999992010010816004+46500+007567FM-12+132099999V0200501N002619999999N9999999N1-00701-00701999999ADDMA1999999084961MD1210091+9999ME1313179OA149900461REMSYN076AAXX  08164 06735 33/// /0505 11070 21070 38496 48317 52009 333 91109 91206;
0137067350999992010010817004+46500+007567FM-12+132099999V0200501N002119999999N9999999N1-00731-00731999999ADDMA1999999085001MD1119999+9999ME1313219OA149900461REMSYN076AAXX  08174 06735 33/// /0504 11073 21073 38500 48321 51/// 333 91109 91206;
0277067350999992010010818004+46500+007567FM-12+132099999V0200801N001010003019N0003001N1-00741-00741999999ADDAJ100309199999999AL19900091AY141061AY221061GA1091+999999999GF109991091999999999999999IA1239KA1120M-00521MA1999999084971MD1010071+9999ME1313189MW1451OA149900461REMSYN106AAXX  08184 06735 31/03 90802 11074 21074 38497 48318 50007 74542 333 11052 47030 90766 93100 91109 91206;
0137067350999992010010819004+46500+007567FM-12+132099999V0200501N001019999999N9999999N1-00741-00741999999ADDMA1999999084981MD1210021+9999ME1313199OA149900361REMSYN076AAXX  08194 06735 33/// /0502 11074 21074 38498 48319 52002 333 91107 91205;
0137067350999992010010820004+46500+007567FM-12+132099999V0200801N001019999999N9999999N1-00741-00741999999ADDMA1999999084981MD1710021+9999ME1313199OA149900211REMSYN076AAXX  08204 06735 33/// /0802 11074 21074 38498 48319 57002 333 91104 91203;
0137067350999992010010821004+46500+007567FM-12+132099999V0200901N000519999999N9999999N1-00741-00741999999ADDMA1999999084991MD1210021+9999ME1313209OA149900461REMSYN076AAXX  08214 06735 33/// /0901 11074 21074 38499 48320 52002 333 91109 91206;
0137067350999992010010822004+46500+007567FM-12+132099999V0200801N001019999999N9999999N1-00741-00741999999ADDMA1999999085001MD1210021+9999ME1313219OA149900211REMSYN076AAXX  08224 06735 33/// /0802 11074 21074 38500 48321 52002 333 91104 91202;
0137067350999992010010823004+46500+007567FM-12+132099999V0201201N000519999999N9999999N1-00751-00831999999ADDMA1999999085031MD1210051+9999ME1313249OA149900211REMSYN076AAXX  08234 06735 33/// /1201 11075 21083 38503 48324 52005 333 91104 91203;
0137067350999992010010900004+46500+007567FM-12+132099999V0201001N000519999999N9999999N1-00751-00811999999ADDMA1999999084991MD1010001+9999ME1313209OA149900461REMSYN076AAXX  09004 06735 33/// /1001 11075 21081 38499 48320 50000 333 91109 91206;
0137067350999992010010901004+46500+007567FM-12+132099999V0202001N000519999999N9999999N1-00801-00991999999ADDMA1999999084971MD1710031+9999ME1313189OA149900211REMSYN076AAXX  09014 06735 33/// /2001 11080 21099 38497 48318 57003 333 91104 91202;
0137067350999992010010902004+46500+007567FM-12+132099999V0202301N001519999999N9999999N1-00801-00991999999ADDMA1999999085031MD1519999+9999ME1313249OA149900211REMSYN076AAXX  09024 06735 33/// /2303 11080 21099 38503 48324 55/// 333 91104 91203;
0137067350999992010010903004+46500+007567FM-12+132099999V0202001N001019999999N9999999N1-00801-01011999999ADDMA1999999084971MD1719999+9999ME1313189OA149900311REMSYN076AAXX  09034 06735 33/// /2002 11080 21101 38497 48318 57/// 333 91106 91204;
0137067350999992010010904004+46500+007567FM-12+132099999V0202301N001519999999N9999999N1-00851-01031999999ADDMA1999999084971MD1010001+9999ME1313189OA149900311REMSYN076AAXX  09044 06735 33/// /2303 11085 21103 38497 48318 50000 333 91106 91204;
0137067350999992010010905004+46500+007567FM-12+132099999V0202101N001019999999N9999999N1-00891-01081999999ADDMA1999999084931MD1710101+9999ME1313149OA149900261REMSYN076AAXX  09054 06735 33/// /2102 11089 21108 38493 48314 57010 333 91105 91203;
0361067350999992010010906004+46500+007567FM-12+132099999V0202401N001510042019N0030001N1-00891-01091999999ADDAA124000091AJ100319199999999AL19900091AL29900191AY171061AY241061GA1081+004201071GF108991999999004501999999GJ100189IA1239IA2999-00909KA1999N-00921MA1999999084881MD1710091+9999ME1313109MW1101OA149900311REMSYN130AAXX  09064 06735 31430 82403 11089 21109 38488 48310 57009 71074 333 21092 3/109 47031 55003 70000 88714 90768 93101 91106 91204;EQDQ01  00002PRCP24
0137067350999992010010907004+46500+007567FM-12+132099999V0201201N000519999999N9999999N1-01001-01191999999ADDMA1999999084851MD1710121+9999ME1313079OA149900261REMSYN076AAXX  09074 06735 33/// /1201 11100 21119 38485 48307 57012 333 91105 91204;
0137067350999992010010908004+46500+007567FM-12+132099999V0202201N002119999999N9999999N1-00931-01141999999ADDMA1999999084891MD1510041+9999ME1313119OA149900261REMSYN076AAXX  09084 06735 33/// /2204 11093 21114 38489 48311 55004 333 91105 91204;
0156067350999992010010909004+46500+007567FM-12+132099999V0201901N000519999999N9999999N1-00931-00971999999ADDMA1999999084881MD1410001+9999ME1313109OA149900261REMSYN076AAXX  09094 06735 33/// /1901 11093 21097 38488 48310 52000 333 91105 91204;EQDQ01+000022APCTEN
0137067350999992010010910004+46500+007567FM-12+132099999V0201601N000519999999N9999999N1-00841-00971999999ADDMA1999999084901MD1210051+9999ME1313129OA149900261REMSYN076AAXX  09104 06735 33/// /1601 11084 21097 38490 48312 52005 333 91105 91203;
0137067350999992010010911004+46500+007567FM-12+132099999V0201901N000519999999N9999999N1-00821-00861999999ADDMA1999999084841MD1710051+9999ME1313069OA149900211REMSYN076AAXX  09114 06735 33/// /1901 11082 21086 38484 48306 57005 333 91104 91203;
0207067350999992010010912004+46500+007567FM-12+132099999V0200501N002610003019N0002001N1-00821-00871999999ADDAY141061AY221061GA1091+999999999GF109991091999999999999999MA1999999084831MD1710051+9999ME1313059MW1471OA149900461REMSYN082AAXX  09124 06735 31/02 90505 11082 21087 38483 48305 57005 74742 333 91109 91205;
0137067350999992010010913004+46500+007567FM-12+132099999V0200601N001519999999N9999999N1-00861-00881999999ADDMA1999999084791MD1710111+9999ME1313029OA149900461REMSYN076AAXX  09134 06735 33/// /0603 11086 21088 38479 48302 57011 333 91109 91205;
0156067350999992010010914004+46500+007567FM-12+132099999V0200601N002619999999N9999999N1-00891-00931999999ADDMA1999999084841MD1410001+9999ME1313069OA149900511REMSYN076AAXX  09144 06735 33/// /0605 11089 21093 38484 48306 53000 333 91110 91205;EQDQ01+000032APCTEN
0137067350999992010010915004+46500+007567FM-12+132099999V0200501N002119999999N9999999N1-00931-00931999999ADDMA1999999084861MD1310031+9999ME1313089OA149900511REMSYN076AAXX  09154 06735 33/// /0504 11093 21093 38486 48308 53003 333 91110 91205;
0154067350999992010010916004+46500+007567FM-12+132099999V0200501N001519999999N9999999N1-00951-01001999999ADDAA101000021MA1999999084871MD1210081+9999ME1313099OA149900461REMSYN082AAXX  09164 06735 23/// /0503 11095 21100 38487 48309 52008 333 69915 91109 91205;
0154067350999992010010917004+46500+007567FM-12+132099999V0200601N001519999999N9999999N1-00971-01031999999ADDAA101000021MA1999999084871MD1010031+9999ME1313099OA149900361REMSYN082AAXX  09174 06735 23/// /0603 11097 21103 38487 48309 50003 333 69915 91107 91204;
0303067350999992010010918004+46500+007567FM-12+132099999V0200801N001010012019N0015001N1-00991-01041999999ADDAA112000091AJ100329199999999AL11200191GA1081+001201071GF108991999999001501999999IA1239KA1120M-00751MA1999999084911MD1210051+9999ME1313139OA149900511REMSYN124AAXX  09184 06735 01215 80802 11099 21104 38491 48313 52005 69922 7//74 333 11075 47032 60005 88704 90766 93101 91110 91205;EQDQ01  00002PRCP12
0137067350999992010010919004+46500+007567FM-12+132099999V0200701N001019999999N9999999N1-01021-01061999999ADDMA1999999084971MD1210101+9999ME1313189OA149900311REMSYN076AAXX  09194 06735 33/// /0702 11102 21106 38497 48318 52010 333 91106 91203;
0137067350999992010010920004+46500+007567FM-12+132099999V0200901N001019999999N9999999N1-01011-01071999999ADDMA1999999084981MD1210111+9999ME1313199OA149900311REMSYN076AAXX  09204 06735 33/// /0902 11101 21107 38498 48319 52011 333 91106 91203;
0137067350999992010010921004+46500+007567FM-12+132099999V0200701N001019999999N9999999N1-01011-01071999999ADDMA1999999085031MD1210121+9999ME1313249OA149900361REMSYN076AAXX  09214 06735 33/// /0702 11101 21107 38503 48324 52012 333 91107 91204;
0137067350999992010010922004+46500+007567FM-12+132099999V0200701N001019999999N9999999N1-01011-01061999999ADDMA1999999085071MD1110101+9999ME1313279OA149900311REMSYN076AAXX  09224 06735 33/// /0702 11101 21106 38507 48327 51010 333 91106 91203;
0154067350999992010010923004+46500+007567FM-12+132099999V0200601N001019999999N9999999N1-01041-01121999999ADDAA101000021MA1999999085111MD1110131+9999ME1313319OA149900311REMSYN082AAXX  09234 06735 23/// /0602 11104 21112 38511 48331 51013 333 69915 91106 91203;
0179067350999992010011000004+46500+007567FM-12+132099999V0200601N001019999999N9999999N1-01041-01151999999ADDAA106000091MA1999999085111MD1210081+9999ME1313319OA149900511REMSYN088AAXX  10004 06735 03/// /0602 11104 21115 38511 48331 52008 69911 333 60005 91110 91205;EQDQ01  00002PRCP06
0137067350999992010011001004+46500+007567FM-12+132099999V0202301N000519999999N9999999N1-01021-01121999999ADDMA1999999085171MD1210101+9999ME1313369OA149900151REMSYN076AAXX  10014 06735 33/// /2301 11102 21112 38517 48336 52010 333 91103 91202;
0096067350999992010011002004+46500+007567FM-12+132099999V0202601N000519999999N9999999N1-01101-01221999999ADDMA1999999085211ME1313409REMSYN060AAXX  10024 06735 33/// /2601 11110 21122 38521 48340 5////;
0096067350999992010011003004+46500+007567FM-12+132099999V0209999C000019999999N9999999N1-01251-01401999999ADDMA1999999085241ME1313429REMSYN060AAXX  10034 06735 43/// /0000 11125 21140 38524 48342 5////;
0137067350999992010011004004+46500+007567FM-12+132099999V0202201N000519999999N9999999N1-01231-01431999999ADDMA1999999085311MD1310141+9999ME1313499OA149900151REMSYN076AAXX  10044 06735 33/// /2201 11123 21143 38531 48349 53014 333 91103 91201;
0137067350999992010011005004+46500+007567FM-12+132099999V0209999C000019999999N9999999N1-01181-01411999999ADDMA1999999085361MD1210151+9999ME1313539OA149900211REMSYN076AAXX  10054 06735 33/// /0000 11118 21141 38536 48353 52015 333 91104 91202;
0384067350999992010011006004+46500+007567FM-12+132099999V0202001N001010060019N0040001N1-01201-01391999999ADDAA112000091AA224000391AJ100329199999999AL11800091AL29900191AY121061AY221061GA1061+006001071GF106991999999008001999999GJ100009IA1239IA2999-01609KA1999N-01271MA1999999085361MD1210121+9999ME1313539MW1101OA149900311REMSYN142AAXX  10064 06735 01540 62002 11120 21139 38536 48353 52012 69912 71022 333 21127 3/116 47032 55000 60005 70003 86720 90768 93101 91106 91203;EQDQ01  00002PRCP12
0137067350999992010011007004+46500+007567FM-12+132099999V0202001N000519999999N9999999N1-01141-01331999999ADDMA1999999085481MD1210171+9999ME1313649OA149900151REMSYN076AAXX  10074 06735 33/// /2001 11114 21133 38548 48364 52017 333 91103 91202;
0137067350999992010011008004+46500+007567FM-12+132099999V0202001N001019999999N9999999N1-01101-01281999999ADDMA1999999085541MD1319999+9999ME1313699OA149900211REMSYN076AAXX  10084 06735 33/// /2002 11110 21128 38554 48369 53/// 333 91104 91203;
0137067350999992010011009004+46500+007567FM-12+132099999V0202001N000519999999N9999999N1-01131-01281999999ADDMA1999999085591MD1110231+9999ME1313749OA149900211REMSYN076AAXX  10094 06735 33/// /2001 11113 21128 38559 48374 51023 333 91104 91203;
0137067350999992010011010004+46500+007567FM-12+132099999V0201801N000519999999N9999999N1-00901-01201999999ADDMA1999999085651MD1310171+9999ME1313809OA149900151REMSYN076AAXX  10104 06735 33/// /1801 11090 21120 38565 48380 53017 333 91103 91202;
0137067350999992010011011004+46500+007567FM-12+132099999V0200701N001519999999N9999999N1-00861-01151999999ADDMA1999999085671MD1210131+9999ME1313829OA149900361REMSYN076AAXX  10114 06735 33/// /0703 11086 21115 38567 48382 52013 333 91107 91203;
0257067350999992010011012004+46500+007567FM-12+132099999V0200801N00261033001CN0100001N1-00761-00971999999ADDAY111061AY211061GA1021+003601071GA2031+013201031GA3051+033001041GF106991999999004501999999MA1999999085691MD1210101+9999ME1313849MW1101OA149900511REMSYN100AAXX  10124 06735 31460 60805 11076 21097 38569 48384 52010 71011 333 82712 83344 85461 91110 91205;
0137067350999992010011013004+46500+007567FM-12+132099999V0200701N002119999999N9999999N1-00811-01001999999ADDMA1999999085711MD1210061+9999ME1313859OA149900511REMSYN076AAXX  10134 06735 33/// /0704 11081 21100 38571 48385 52006 333 91110 91205;
0137067350999992010011014004+46500+007567FM-12+132099999V0200801N001519999999N9999999N1-00841-00971999999ADDMA1999999085781MD1219999+9999ME1313929OA149900511REMSYN076AAXX  10144 06735 33/// /0803 11084 21097 38578 48392 52/// 333 91110 91205;
0137067350999992010011015004+46500+007567FM-12+132099999V0200701N001519999999N9999999N1-00891-00991999999ADDMA1999999085821MD1210131+9999ME1313959OA149900511REMSYN076AAXX  10154 06735 33/// /0703 11089 21099 38582 48395 52013 333 91110 91205;
0137067350999992010011016004+46500+007567FM-12+132099999V0201001N000519999999N9999999N1-00941-01011999999ADDMA1999999085861MD1210151+9999ME1313999OA149900311REMSYN076AAXX  10164 06735 33/// /1001 11094 21101 38586 48399 52015 333 91106 91204;
0137067350999992010011017004+46500+007567FM-12+132099999V0202001N001019999999N9999999N1-01031-01171999999ADDMA1999999085881MD1210101+9999ME1314009OA149900311REMSYN076AAXX  10174 06735 33/// /2002 11103 21117 38588 48400 52010 333 91106 91204;
0277067350999992010011018004+46500+007567FM-12+132099999V0202201N000512200019N0040001N1-01111-01291999999ADDAJ100329199999999AL19900091AY141061AY211061GA1001+999999999GF100991001001999999001001IA1239KA1120M-00751MA1999999085931MD1210111+9999ME1314049MW1101OA149900511REMSYN106AAXX  10184 06735 31/40 02201 11111 21129 38593 48404 52011 71041 333 11075 47032 90766 93100 91110 91205;
0137067350999992010011019004+46500+007567FM-12+132099999V0201901N000519999999N9999999N1-01171-01381999999ADDMA1999999085931MD1210071+9999ME1314049OA149900211REMSYN076AAXX  10194 06735 33/// /1901 11117 21138 38593 48404 52007 333 91104 91202;
0137067350999992010011020004+46500+007567FM-12+132099999V0209999C000019999999N9999999N1-01211-01381999999ADDMA1999999085931MD1210051+9999ME1314049OA149900211REMSYN076AAXX  10204 06735 33/// /0000 11121 21138 38593 48404 52005 333 91104 91202;
0137067350999992010011021004+46500+007567FM-12+132099999V0202401N001019999999N9999999N1-01061-01301999999ADDMA1999999085921MD1810011+9999ME1314049OA149900311REMSYN076AAXX  10214 06735 33/// /2402 11106 21130 38592 48404 58001 333 91106 91204;
0137067350999992010011022004+46500+007567FM-12+132099999V0209999C000019999999N9999999N1-01141-01311999999ADDMA1999999085911MD1710021+9999ME1314029OA149900151REMSYN076AAXX  10224 06735 33/// /0000 11114 21131 38591 48402 57002 333 91103 91202;
0137067350999992010011023004+46500+007567FM-12+132099999V0203501N000519999999N9999999N1-00991-01151999999ADDMA1999999085871MD1810061+9999ME1313999OA149900261REMSYN076AAXX  10234 06735 33/// /3501 11099 21115 38587 48399 58006 333 91105 91203;
0137067350999992010011100004+46500+007567FM-12+132099999V0202401N001019999999N9999999N1-01091-01261999999ADDMA1999999085951MD1310031+9999ME1314069OA149900511REMSYN076AAXX  11004 06735 33/// /2402 11109 21126 38595 48406 53003 333 91110 91205;
0137067350999992010011101004+46500+007567FM-12+132099999V0200401N001519999999N9999999N1-01141-01261999999ADDMA1999999085961MD1210051+9999ME1314079OA149900411REMSYN076AAXX  11014 06735 33/// /0403 11114 21126 38596 48407 52005 333 91108 91203;
0137067350999992010011102004+46500+007567FM-12+132099999V0202401N001019999999N9999999N1-01111-01301999999ADDMA1999999085991MD1219999+9999ME1314109OA149900261REMSYN076AAXX  11024 06735 33/// /2402 11111 21130 38599 48410 52/// 333 91105 91203;
0137067350999992010011103004+46500+007567FM-12+132099999V0202401N001019999999N9999999N1-00811-01021999999ADDMA1999999085931MD1019999+9999ME1314059OA149900411REMSYN076AAXX  11034 06735 33/// /2402 11081 21102 38593 48405 50/// 333 91108 91203;
0137067350999992010011104004+46500+007567FM-12+132099999V0202701N000519999999N9999999N1-00811-00951999999ADDMA1999999085941MD1710021+9999ME1314069OA149900261REMSYN076AAXX  11044 06735 33/// /2701 11081 21095 38594 48406 57002 333 91105 91203;
0137067350999992010011105004+46500+007567FM-12+132099999V0209999C000019999999N9999999N1-00811-00981999999ADDMA1999999085931MD1710061+9999ME1314059OA149900211REMSYN076AAXX  11054 06735 33/// /0000 11081 21098 38593 48405 57006 333 91104 91202;
0317067350999992010011106004+46500+007567FM-12+132099999V0202501N000512200019N0250001N1-00821-00951999999ADDAA124000091AJ100329199999999AL19900091GA1001+999999999GF100991001001999999001001GJ101389IA1239IA2999-01609KA1999N-01211MA1999999085931MD1010001+9999ME1314059OA149900411REMSYN118AAXX  11064 06735 32/75 02501 11082 21095 38593 48405 50000 333 21121 3/116 47032 55023 70000 90768 93100 91108 91203;EQDQ01  00002PRCP24
0137067350999992010011107004+46500+007567FM-12+132099999V0202901N000519999999N9999999N1-00781-00921999999ADDMA1999999085921MD1710021+9999ME1314049OA149900311REMSYN076AAXX  11074 06735 33/// /2901 11078 21092 38592 48404 57002 333 91106 91201;
0137067350999992010011108004+46500+007567FM-12+132099999V0209999C000519999999N9999999N1-00751-00921999999ADDMA1999999085931MD1519999+9999ME1314059OA149900311REMSYN076AAXX  11084 06735 33/// /0001 11075 21092 38593 48405 55/// 333 91106 91201;
0137067350999992010011109004+46500+007567FM-12+132099999V0209999C000019999999N9999999N1-00661-00841999999ADDMA1999999085971MD1210041+9999ME1314099OA149900311REMSYN076AAXX  11094 06735 33/// /0000 11066 21084 38597 48409 52004 333 91106 91202;
0137067350999992010011110004+46500+007567FM-12+132099999V0202001N000519999999N9999999N1-00581-00801999999ADDMA1999999086001MD1319999+9999ME1314129OA149900211REMSYN076AAXX  11104 06735 33/// /2001 11058 21080 38600 48412 53/// 333 91104 91202;
0137067350999992010011111004+46500+007567FM-12+132099999V0201401N000519999999N9999999N1-00601-00841999999ADDMA1999999086021MD1110091+9999ME1314149OA149900211REMSYN076AAXX  11114 06735 33/// /1401 11060 21084 38602 48414 51009 333 91104 91201;
0179067350999992010011112004+46500+007567FM-12+132099999V0201501N000512200019N0350001N1-00521-00811999999ADDGA1001+999999999GF100991001001999999001001MA1999999085981MD1010011+9999ME1314119OA149900311REMSYN076AAXX  11124 06735 32/81 01501 11052 21081 38598 48411 50001 333 91106 91203;
0137067350999992010011113004+46500+007567FM-12+132099999V0201401N000519999999N9999999N1-00481-00791999999ADDMA1999999085951MD1710051+9999ME1314089OA149900151REMSYN076AAXX  11134 06735 33/// /1401 11048 21079 38595 48408 57005 333 91103 91202;
0096067350999992010011114004+46500+007567FM-12+132099999V0200601N001519999999N9999999N1-00541-00781999999ADDMA1999999085991ME1314129REMSYN060AAXX  11144 06735 33/// /0603 11054 21078 38599 48412 5////;
0137067350999992010011115004+46500+007567FM-12+132099999V0201401N000519999999N9999999N1-00741-00851999999ADDMA1999999086041MD1310061+9999ME1314159OA149900261REMSYN076AAXX  11154 06735 33/// /1401 11074 21085 38604 48415 53006 333 91105 91203;
0137067350999992010011116004+46500+007567FM-12+132099999V0202301N001519999999N9999999N1-00661-00871999999ADDMA1999999086081MD1210131+9999ME1314199OA149900261REMSYN076AAXX  11164 06735 33/// /2303 11066 21087 38608 48419 52013 333 91105 91203;
0137067350999992010011117004+46500+007567FM-12+132099999V0202401N000519999999N9999999N1-00681-00881999999ADDMA1999999086101MD1210111+9999ME1314219OA149900211REMSYN076AAXX  11174 06735 33/// /2401 11068 21088 38610 48421 52011 333 91104 91203;
0255067350999992010011118004+46500+007567FM-12+132099999V0203301N000510270019N0300001N1-00671-00901999999ADDAJ100329199999999AL19900091GA1051+027001031GF105991999999999999999999IA1239KA1120M-00441MA1999999086111MD1210071+9999ME1314229OA149900311REMSYN106AAXX  11184 06735 32980 53301 11067 21090 38611 48422 52007 333 11044 47032 85359 90766 93100 91106 91203;
0137067350999992010011119004+46500+007567FM-12+132099999V0202301N000519999999N9999999N1-00601-00821999999ADDMA1999999086131MD1210051+9999ME1314249OA149900101REMSYN076AAXX  11194 06735 33/// /2301 11060 21082 38613 48424 52005 333 91102 91201;
0137067350999992010011120004+46500+007567FM-12+132099999V0202701N000519999999N9999999N1-00561-00791999999ADDMA1999999086151MD1210051+9999ME1314269OA149900211REMSYN076AAXX  11204 06735 33/// /2701 11056 21079 38615 48426 52005 333 91104 91201;
0137067350999992010011121004+46500+007567FM-12+132099999V0200601N000519999999N9999999N1-00601-00801999999ADDMA1999999086181MD1210071+9999ME1314299OA149900211REMSYN076AAXX  11214 06735 33/// /0601 11060 21080 38618 48429 52007 333 91104 91203;
0137067350999992010011122004+46500+007567FM-12+132099999V0202201N000519999999N9999999N1-00721-00941999999ADDMA1999999086181MD1210051+9999ME1314289OA149900261REMSYN076AAXX  11224 06735 33/// /2201 11072 21094 38618 48428 52005 333 91105 91202;
0137067350999992010011123004+46500+007567FM-12+132099999V0202101N000519999999N9999999N1-00721-00941999999ADDMA1999999086181MD1110031+9999ME1314289OA149900261REMSYN076AAXX  11234 06735 33/// /2101 11072 21094 38618 48428 51003 333 91105 91202;
0137067350999992010011200004+46500+007567FM-12+132099999V0201601N000519999999N9999999N1-00621-00831999999ADDMA1999999086181MD1410001+9999ME1314299OA149900261REMSYN076AAXX  12004 06735 33/// /1601 11062 21083 38618 48429 54000 333 91105 91203;
0137067350999992010011201004+46500+007567FM-12+132099999V0200501N000519999999N9999999N1-00521-00781999999ADDMA1999999086141MD1710041+9999ME1314259OA149900211REMSYN076AAXX  12014 06735 33/// /0501 11052 21078 38614 48425 57004 333 91104 91202;
0137067350999992010011202004+46500+007567FM-12+132099999V0209999C000019999999N9999999N1-00791-00801999999ADDMA1999999086161MD1719999+9999ME1314269OA149900311REMSYN076AAXX  12024 06735 33/// /0000 11079 21080 38616 48426 57/// 333 91106 91204;
0137067350999992010011203004+46500+007567FM-12+132099999V0202201N000519999999N9999999N1-00801-00821999999ADDMA1999999086131MD1710051+9999ME1314239OA149900311REMSYN076AAXX  12034 06735 33/// /2201 11080 21082 38613 48423 57005 333 91106 91204;
0137067350999992010011204004+46500+007567FM-12+132099999V0202601N001019999999N9999999N1-00691-00821999999ADDMA1999999086131MD1810011+9999ME1314249OA149900151REMSYN076AAXX  12044 06735 33/// /2602 11069 21082 38613 48424 58001 333 91103 91202;
0137067350999992010011205004+46500+007567FM-12+132099999V0202301N000519999999N9999999N1-00661-00841999999ADDMA1999999086141MD1510021+9999ME1314259OA149900211REMSYN076AAXX  12054 06735 33/// /2301 11066 21084 38614 48425 55002 333 91104 91203;
0317067350999992010011206004+46500+007567FM-12+132099999V0202301N000512200019N0250001N1-00761-00931999999ADDAA124000091AJ100329199999999AL19900091GA1001+999999999GF100991001001999999001001GJ103429IA1239IA2999-01109KA1999N-00841MA1999999086101MD1710031+9999ME1314219OA149900311REMSYN118AAXX  12064 06735 32/75 02301 11076 21093 38610 48421 57003 333 21084 3/111 47032 55057 70000 90768 93100 91106 91204;EQDQ01  00002PRCP24
0137067350999992010011207004+46500+007567FM-12+132099999V0203301N000519999999N9999999N1-00691-00901999999ADDMA1999999086031MD1710101+9999ME1314159OA149900151REMSYN076AAXX  12074 06735 33/// /3301 11069 21090 38603 48415 57010 333 91103 91201;
0137067350999992010011208004+46500+007567FM-12+132099999V0200701N000519999999N9999999N1-00741-01011999999ADDMA1999999085991MD1619999+9999ME1314119OA149900261REMSYN076AAXX  12084 06735 33/// /0701 11074 21101 38599 48411 56/// 333 91105 91202;
0137067350999992010011209004+46500+007567FM-12+132099999V0203101N000519999999N9999999N1-00641-00881999999ADDMA1999999085931MD1810171+9999ME1314069OA149900261REMSYN076AAXX  12094 06735 33/// /3101 11064 21088 38593 48406 58017 333 91105 91203;
0137067350999992010011210004+46500+007567FM-12+132099999V0202201N001019999999N9999999N1-00421-00881999999ADDMA1999999085891MD1710141+9999ME1314039OA149900261REMSYN076AAXX  12104 06735 33/// /2202 11042 21088 38589 48403 57014 333 91105 91202;
0137067350999992010011211004+46500+007567FM-12+132099999V0201301N000519999999N9999999N1-00401-00851999999ADDMA1999999085821MD1710171+9999ME1313979OA149900261REMSYN076AAXX  12114 06735 33/// /1301 11040 21085 38582 48397 57017 333 91105 91202;
0179067350999992010011212004+46500+007567FM-12+132099999V0201301N001012200019N0350001N1-00301-00841999999ADDGA1001+999999999GF100991001001999999001001MA1999999085751MD1710181+9999ME1313909OA149900311REMSYN076AAXX  12124 06735 32/81 01302 11030 21084 38575 48390 57018 333 91106 91204;
0137067350999992010011213004+46500+007567FM-12+132099999V0200701N001019999999N9999999N1-00371-00721999999ADDMA1999999085701MD1610191+9999ME1313869OA149900211REMSYN076AAXX  12134 06735 33/// /0702 11037 21072 38570 48386 56019 333 91104 91202;
0096067350999992010011214004+46500+007567FM-12+132099999V0201901N000519999999N9999999N1-00391-00701999999ADDMA1999999085621ME1313789REMSYN060AAXX  12144 06735 33/// /1901 11039 21070 38562 48378 5////;
0137067350999992010011215004+46500+007567FM-12+132099999V0202001N000519999999N9999999N1-00311-00781999999ADDMA1999999085571MD1610181+9999ME1313749OA149900261REMSYN076AAXX  12154 06735 33/// /2001 11031 21078 38557 48374 56018 333 91105 91202;
0137067350999992010011216004+46500+007567FM-12+132099999V0202201N001019999999N9999999N1-00371-00811999999ADDMA1999999085501MD1610201+9999ME1313679OA149900211REMSYN076AAXX  12164 06735 33/// /2202 11037 21081 38550 48367 56020 333 91104 91202;
0137067350999992010011217004+46500+007567FM-12+132099999V0202701N000519999999N9999999N1-00421-00821999999ADDMA1999999085461MD1610161+9999ME1313639OA149900261REMSYN076AAXX  12174 06735 33/// /2701 11042 21082 38546 48363 56016 333 91105 91202;
0249067350999992010011218004+46500+007567FM-12+132099999V0209999C000012200019N0400001N1-00481-00811999999ADDAJ100329199999999AL19900091GA1001+999999999GF100991001001999999001001IA1239KA1120M-00261MA1999999085451MD1610121+9999ME1313629OA149900261REMSYN100AAXX  12184 06735 32/82 00000 11048 21081 38545 48362 56012 333 11026 47032 90766 93100 91105 91202;
0137067350999992010011219004+46500+007567FM-12+132099999V0209999C000019999999N9999999N1-00361-00801999999ADDMA1999999085431MD1610071+9999ME1313619OA149900211REMSYN076AAXX  12194 06735 33/// /0000 11036 21080 38543 48361 56007 333 91104 91202;
0137067350999992010011220004+46500+007567FM-12+132099999V0203601N000519999999N9999999N1-00411-00821999999ADDMA1999999085381MD1810081+9999ME1313569OA149900211REMSYN076AAXX  12204 06735 33/// /3601 11041 21082 38538 48356 58008 333 91104 91202;
0137067350999992010011221004+46500+007567FM-12+132099999V0203601N000519999999N9999999N1-00311-00851999999ADDMA1999999085321MD1810131+9999ME1313519OA149900261REMSYN076AAXX  12214 06735 33/// /3601 11031 21085 38532 48351 58013 333 91105 91202;
0137067350999992010011222004+46500+007567FM-12+132099999V0202201N001019999999N9999999N1-00441-00831999999ADDMA1999999085281MD1610151+9999ME1313479OA149900261REMSYN076AAXX  12224 06735 33/// /2202 11044 21083 38528 48347 56015 333 91105 91202;
0137067350999992010011223004+46500+007567FM-12+132099999V0200401N000519999999N9999999N1-00301-00811999999ADDMA1999999085281MD1710101+9999ME1313479OA149900261REMSYN076AAXX  12234 06735 33/// /0401 11030 21081 38528 48347 57010 333 91105 91202;
0137067350999992010011300004+46500+007567FM-12+132099999V0202601N000519999999N9999999N1-00481-00691999999ADDMA1999999085371MD1310051+9999ME1313559OA149900311REMSYN076AAXX  13004 06735 33/// /2601 11048 21069 38537 48355 53005 333 91106 91202;
0137067350999992010011301004+46500+007567FM-12+132099999V0202801N000519999999N9999999N1-00371-00671999999ADDMA1999999085381MD1210101+9999ME1313569OA149900311REMSYN076AAXX  13014 06735 33/// /2801 11037 21067 38538 48356 52010 333 91106 91203;
0137067350999992010011302004+46500+007567FM-12+132099999V0202401N001019999999N9999999N1-00271-00661999999ADDMA1999999085321MD1019999+9999ME1313519OA149900311REMSYN076AAXX  13024 06735 33/// /2402 11027 21066 38532 48351 50/// 333 91106 91203;
0137067350999992010011303004+46500+007567FM-12+132099999V0202801N000519999999N9999999N1-00271-00521999999ADDMA1999999085271MD1819999+9999ME1313469OA149900311REMSYN076AAXX  13034 06735 33/// /2801 11027 21052 38527 48346 58/// 333 91106 91203;
0137067350999992010011304004+46500+007567FM-12+132099999V0201801N001019999999N9999999N1-00201-00531999999ADDMA1999999085251MD1710131+9999ME1313449OA149900261REMSYN076AAXX  13044 06735 33/// /1802 11020 21053 38525 48344 57013 333 91105 91203;
0137067350999992010011305004+46500+007567FM-12+132099999V0202101N001019999999N9999999N1-00201-00551999999ADDMA1999999085251MD1710071+9999ME1313449OA149900261REMSYN076AAXX  13054 06735 33/// /2102 11020 21055 38525 48344 57007 333 91105 91203;
0323067350999992010011306004+46500+007567FM-12+132099999V0203101N000510270019N0200001N1-00161-00491999999ADDAA124000091AJ100329199999999AL19900091GA1081+027001041GF108991999999999999999999GJ103429IA1239IA2999-00909KA1999N-00531MA1999999085301MD1310031+9999ME1313499OA149900311REMSYN124AAXX  13064 06735 32970 83101 11016 21049 38530 48349 53003 333 21053 3/109 47032 55057 70000 88459 90768 93100 91106 91203;EQDQ01  00002PRCP24
0137067350999992010011307004+46500+007567FM-12+132099999V0202701N000519999999N9999999N1-00141-00481999999ADDMA1999999085351MD1210101+9999ME1313549OA149900311REMSYN076AAXX  13074 06735 33/// /2701 11014 21048 38535 48354 52010 333 91106 91203;
0137067350999992010011308004+46500+007567FM-12+132099999V0202501N000519999999N9999999N1-00171-00371999999ADDMA1999999085431MD1310181+9999ME1313619OA149900311REMSYN076AAXX  13084 06735 33/// /2501 11017 21037 38543 48361 53018 333 91106 91203;
0137067350999992010011309004+46500+007567FM-12+132099999V0202801N000519999999N9999999N1-00201-00311999999ADDMA1999999085461MD1210161+9999ME1313649OA149900311REMSYN076AAXX  13094 06735 33/// /2801 11020 21031 38546 48364 52016 333 91106 91203;
0137067350999992010011310004+46500+007567FM-12+132099999V0203001N000519999999N9999999N1-00171-00301999999ADDMA1999999085511MD1110161+9999ME1313689OA149900151REMSYN076AAXX  13104 06735 33/// /3001 11017 21030 38551 48368 51016 333 91103 91202;
0137067350999992010011311004+46500+007567FM-12+132099999V0200301N001019999999N9999999N1-00031-00251999999ADDMA1999999085521MD1110091+9999ME1313709OA149900261REMSYN076AAXX  13114 06735 33/// /0302 11003 21025 38552 48370 51009 333 91105 91202;
0235067350999992010011312004+46500+007567FM-12+132099999V0209999C000010270019N0200001N1-00071-00201999999ADDAY171061AY221061GA1021+008101071GA2081+027001041GF108991999999008001999999MA1999999085511MD1010051+9999ME1313699MW1021OA149900311REMSYN094AAXX  13124 06735 31570 80000 11007 21020 38551 48369 50005 70272 333 82727 88459 91106 91204;
0137067350999992010011313004+46500+007567FM-12+132099999V0201701N002119999999N9999999N1+00091-00331999999ADDMA1999999085501MD1710011+9999ME1313689OA149900621REMSYN076AAXX  13134 06735 33/// /1704 10009 21033 38550 48368 57001 333 91112 91206;
0137067350999992010011314004+46500+007567FM-12+132099999V0200501N001519999999N9999999N1-00051-00261999999ADDMA1999999085541MD1319999+9999ME1313719OA149900621REMSYN076AAXX  13144 06735 33/// /0503 11005 21026 38554 48371 53/// 333 91112 91206;
0137067350999992010011315004+46500+007567FM-12+132099999V0202301N002119999999N9999999N1-00061-00221999999ADDMA1999999085601MD1210091+9999ME1313779OA149900621REMSYN076AAXX  13154 06735 33/// /2304 11006 21022 38560 48377 52009 333 91112 91206;
0154067350999992010011316004+46500+007567FM-12+132099999V0202401N001519999999N9999999N1+00021-00191999999ADDAA101000021MA1999999085641MD1210141+9999ME1313819OA149900511REMSYN082AAXX  13164 06735 23/// /2403 10002 21019 38564 48381 52014 333 69915 91110 91204;
0154067350999992010011317004+46500+007567FM-12+132099999V0202501N002619999999N9999999N1+00011-00201999999ADDAA101000021MA1999999085681MD1210141+9999ME1313859OA149900571REMSYN082AAXX  13174 06735 23/// /2505 10001 21020 38568 48385 52014 333 69915 91111 91206;
0306067350999992010011318004+46500+007567FM-12+132099999V0201001N000510075019N0100001N1-00071-00141999999ADDAA112000391AJ100329199999999AL11200191AY171061AY221061GA1081+007501071GF108991999999008001999999IA1239KA1120M+00181MA1999999085721MD1110121+9999ME1313889MW1701OA149900621REMSYN124AAXX  13184 06735 01560 81001 11007 21014 38572 48388 51012 69932 77072 333 10018 47032 69915 88725 90766 93101 91112 91206;
0137067350999992010011319004+46500+007567FM-12+132099999V0209999C000019999999N9999999N1-00091-00131999999ADDMA1999999085731MD1210091+9999ME1313899OA149900511REMSYN076AAXX  13194 06735 33/// /0000 11009 21013 38573 48389 52009 333 91110 91205;
0096067350999992010011400004+46500+007567FM-12+132099999V0200101N000519999999N9999999N1-00521-00691999999ADDMA1999999085601ME1313769REMSYN060AAXX  14004 06735 43/// /0101 11052 21069 38560 48376 5////;
0137067350999992010011401004+46500+007567FM-12+132099999V0209999C000019999999N9999999N1-00591-00731999999ADDMA1999999085541MD1819999+9999ME1313709OA149900261REMSYN076AAXX  14014 06735 33/// /0000 11059 21073 38554 48370 58/// 333 91105 91202;
0137067350999992010011402004+46500+007567FM-12+132099999V0202301N000519999999N9999999N1-00571-00751999999ADDMA1999999085521MD1619999+9999ME1313699OA149900261REMSYN076AAXX  14024 06735 33/// /2301 11057 21075 38552 48369 56/// 333 91105 91202;
0096067350999992010011403004+46500+007567FM-12+132099999V0202501N000519999999N9999999N1-00531-00711999999ADDMA1999999085511ME1313689REMSYN060AAXX  14034 06735 33/// /2501 11053 21071 38551 48368 5////;
0137067350999992010011404004+46500+007567FM-12+132099999V0203001N000519999999N9999999N1-00621-00781999999ADDMA1999999085481MD1610061+9999ME1313659OA149900211REMSYN076AAXX  14044 06735 33/// /3001 11062 21078 38548 48365 56006 333 91104 91201;
0137067350999992010011405004+46500+007567FM-12+132099999V0203401N000519999999N9999999N1-00581-00801999999ADDMA1999999085441MD1810081+9999ME1313619OA149900211REMSYN076AAXX  14054 06735 33/// /3401 11058 21080 38544 48361 58008 333 91104 91202;
0336067350999992010011406004+46500+007567FM-12+132099999V0203101N000512200019N0300001N1-00461-00721999999ADDAA124000391AJ100329199999999AL11800091AL29900191AY171061AY211061GA1001+999999999GF100991001001999999001001GJ100009IA1279IA2999-01109KA1999N-00661MA1999999085421MD1610091+9999ME1313609MW1021OA149900261REMSYN124AAXX  14064 06735 31/80 03101 11046 21072 38542 48360 56009 70271 333 21066 3/111 43032 55000 70003 90768 93101 91105 91202;
0137067350999992010011407004+46500+007567FM-12+132099999V0203201N000519999999N9999999N1-00531-00881999999ADDMA1999999085391MD1610091+9999ME1313579OA149900211REMSYN076AAXX  14074 06735 33/// /3201 11053 21088 38539 48357 56009 333 91104 91202;
0137067350999992010011408004+46500+007567FM-12+132099999V0202901N000519999999N9999999N1-00601-00931999999ADDMA1999999085381MD1619999+9999ME1313569OA149900211REMSYN076AAXX  14084 06735 33/// /2901 11060 21093 38538 48356 56/// 333 91104 91202;
0137067350999992010011409004+46500+007567FM-12+132099999V0209999C000019999999N9999999N1-00461-00901999999ADDMA1999999085361MD1610061+9999ME1313549OA149900211REMSYN076AAXX  14094 06735 33/// /0000 11046 21090 38536 48354 56006 333 91104 91202;
0137067350999992010011410004+46500+007567FM-12+132099999V0201901N001019999999N9999999N1-00141-00871999999ADDMA1999999085331MD1710061+9999ME1313529OA149900361REMSYN076AAXX  14104 06735 33/// /1902 11014 21087 38533 48352 57006 333 91107 91202;
0137067350999992010011411004+46500+007567FM-12+132099999V0203101N000519999999N9999999N1-00011-00731999999ADDMA1999999085321MD1710061+9999ME1313519OA149900361REMSYN076AAXX  14114 06735 33/// /3101 11001 21073 38532 48351 57006 333 91107 91204;
0185067350999992010011412004+46500+007567FM-12+132099999V0209999C000510300019N0200001N1+00081-00551999999ADDGA1071+030001031GF107991999999999999999999MA1999999085281MD1710081+9999ME1313479OA149900361REMSYN082AAXX  14124 06735 32970 70001 10008 21055 38528 48347 57008 333 87360 91107 91204;
0137067350999992010011413004+46500+007567FM-12+132099999V0200701N000519999999N9999999N1+00191-00851999999ADDMA1999999085301MD1510031+9999ME1313499OA149900311REMSYN076AAXX  14134 06735 33/// /0701 10019 21085 38530 48349 55003 333 91106 91203;
0137067350999992010011414004+46500+007567FM-12+132099999V0202001N000519999999N9999999N1+00161-01001999999ADDMA1999999085311MD1310011+9999ME1313509OA149900261REMSYN076AAXX  14144 06735 33/// /2001 10016 21100 38531 48350 53001 333 91105 91203;
0137067350999992010011415004+46500+007567FM-12+132099999V0202701N001019999999N9999999N1+00181-00681999999ADDMA1999999085301MD1010021+9999ME1313499OA149900361REMSYN076AAXX  14154 06735 33/// /2702 10018 21068 38530 48349 50002 333 91107 91204;
0137067350999992010011416004+46500+007567FM-12+132099999V0202501N000519999999N9999999N1+00051-00531999999ADDMA1999999085321MD1210021+9999ME1313519OA149900211REMSYN076AAXX  14164 06735 33/// /2501 10005 21053 38532 48351 52002 333 91104 91202;
0137067350999992010011417004+46500+007567FM-12+132099999V0200401N000519999999N9999999N1-00021-00421999999ADDMA1999999085371MD1310061+9999ME1313569OA149900211REMSYN076AAXX  14174 06735 33/// /0401 11002 21042 38537 48356 53006 333 91104 91202;
0255067350999992010011418004+46500+007567FM-12+132099999V0209999C000510240019N0200001N1-00021-00531999999ADDAJ100319199999999AL19900091GA1081+024001031GF108991999999022501999999IA1279KA1120M+00201MA1999999085441MD1310141+9999ME1313629OA149900361REMSYN106AAXX  14184 06735 32870 80001 11002 21053 38544 48362 53014 333 10020 43031 88358 90766 93100 91107 91204;
0137067350999992010011419004+46500+007567FM-12+132099999V0209999C000019999999N9999999N1+00041-00641999999ADDMA1999999085511MD1210191+9999ME1313699OA149900261REMSYN076AAXX  14194 06735 33/// /0000 10004 21064 38551 48369 52019 333 91105 91203;
0137067350999992010011420004+46500+007567FM-12+132099999V0200201N000519999999N9999999N1-00261-00381999999ADDMA1999999085601MD1310231+9999ME1313779OA149900261REMSYN076AAXX  14204 06735 33/// /0201 11026 21038 38560 48377 53023 333 91105 91203;
0137067350999992010011421004+46500+007567FM-12+132099999V0202301N000519999999N9999999N1-00171-00521999999ADDMA1999999085681MD1310241+9999ME1313849OA149900261REMSYN076AAXX  14214 06735 33/// /2301 11017 21052 38568 48384 53024 333 91105 91203;
0137067350999992010011422004+46500+007567FM-12+132099999V0200501N000519999999N9999999N1-00151-00661999999ADDMA1999999085781MD1310271+9999ME1313949OA149900211REMSYN076AAXX  14224 06735 33/// /0501 11015 21066 38578 48394 53027 333 91104 91202;
0137067350999992010011423004+46500+007567FM-12+132099999V0209999C000019999999N9999999N1-00121-00661999999ADDMA1999999085851MD1210251+9999ME1314009OA149900211REMSYN076AAXX  14234 06735 33/// /0000 11012 21066 38585 48400 52025 333 91104 91202;
0137067350999992010011500004+46500+007567FM-12+132099999V0202701N000519999999N9999999N1-00151-00711999999ADDMA1999999085901MD1110221+9999ME1314059OA149900261REMSYN076AAXX  15004 06735 33/// /2701 11015 21071 38590 48405 51022 333 91105 91203;
0137067350999992010011501004+46500+007567FM-12+132099999V0202801N000519999999N9999999N1-00231-00741999999ADDMA1999999085961MD1110181+9999ME1314109OA149900151REMSYN076AAXX  15014 06735 33/// /2801 11023 21074 38596 48410 51018 333 91103 91202;
0137067350999992010011502004+46500+007567FM-12+132099999V0202501N000519999999N9999999N1-00091-00701999999ADDMA1999999086021MD1310171+9999ME1314169OA149900151REMSYN076AAXX  15024 06735 33/// /2501 11009 21070 38602 48416 53017 333 91103 91202;
0096067350999992010011503004+46500+007567FM-12+132099999V0200201N000519999999N9999999N1-00191-00711999999ADDMA1999999086101ME1314239REMSYN060AAXX  15034 06735 33/// /0201 11019 21071 38610 48423 5////;
0137067350999992010011504004+46500+007567FM-12+132099999V0202601N000519999999N9999999N1-00251-00751999999ADDMA1999999086151MD1110191+9999ME1314279OA149900211REMSYN076AAXX  15044 06735 33/// /2601 11025 21075 38615 48427 51019 333 91104 91202;
0137067350999992010011505004+46500+007567FM-12+132099999V0200301N001019999999N9999999N1-00311-00791999999ADDMA1999999086271MD1310251+9999ME1314389OA149900211REMSYN076AAXX  15054 06735 33/// /0302 11031 21079 38627 48438 53025 333 91104 91202;
0323067350999992010011506004+46500+007567FM-12+132099999V0202201N001012200019N0250001N1-00321-00851999999ADDAA124000091AJ100319199999999AL19900091GA1011+024001031GF101991999999022501999999GJ100429IA1279IA2999-00809KA1999N-00461MA1999999086361MD1310261+9999ME1314469OA149900261REMSYN124AAXX  15064 06735 32875 12202 11032 21085 38636 48446 53026 333 21046 3/108 43031 55007 70000 81358 90768 93100 91105 91203;EQDQ01  00002PRCP24
0137067350999992010011507004+46500+007567FM-12+132099999V0202801N000519999999N9999999N1-00301-00791999999ADDMA1999999086431MD1110281+9999ME1314539OA149900211REMSYN076AAXX  15074 06735 33/// /2801 11030 21079 38643 48453 51028 333 91104 91202;
0137067350999992010011508004+46500+007567FM-12+132099999V0200601N000519999999N9999999N1-00341-00821999999ADDMA1999999086521MD1219999+9999ME1314619OA149900261REMSYN076AAXX  15084 06735 33/// /0601 11034 21082 38652 48461 52/// 333 91105 91202;
0137067350999992010011509004+46500+007567FM-12+132099999V0203301N000519999999N9999999N1-00231-00731999999ADDMA1999999086611MD1310251+9999ME1314709OA149900261REMSYN076AAXX  15094 06735 33/// /3301 11023 21073 38661 48470 53025 333 91105 91202;
0137067350999992010011510004+46500+007567FM-12+132099999V0202201N001019999999N9999999N1-00061-00881999999ADDMA1999999086641MD1110211+9999ME1314739OA149900211REMSYN076AAXX  15104 06735 33/// /2202 11006 21088 38664 48473 51021 333 91104 91202;
0137067350999992010011511004+46500+007567FM-12+132099999V0201701N000519999999N9999999N1-00011-00661999999ADDMA1999999086671MD1210151+9999ME1314769OA149900211REMSYN076AAXX  15114 06735 33/// /1701 11001 21066 38667 48476 52015 333 91104 91202;
0185067350999992010011512004+46500+007567FM-12+132099999V0201201N000510630019N0350001N1+00071-00811999999ADDGA1061+063001001GF106991999999999999999999MA1999999086721MD1210111+9999ME1314819OA149900311REMSYN082AAXX  15124 06735 32981 61201 10007 21081 38672 48481 52011 333 86071 91106 91203;
0137067350999992010011513004+46500+007567FM-12+132099999V0201401N001019999999N9999999N1+00101-00761999999ADDMA1999999086761MD1210121+9999ME1314859OA149900311REMSYN076AAXX  15134 06735 33/// /1402 10010 21076 38676 48485 52012 333 91106 91203;
0137067350999992010011514004+46500+007567FM-12+132099999V0200601N000519999999N9999999N1+00121-00631999999ADDMA1999999086811MD1210141+9999ME1314909OA149900261REMSYN076AAXX  15144 06735 33/// /0601 10012 21063 38681 48490 52014 333 91105 91203;
0137067350999992010011515004+46500+007567FM-12+132099999V0202301N000519999999N9999999N1+00061-00611999999ADDMA1999999086871MD1210151+9999ME1314959OA149900311REMSYN076AAXX  15154 06735 33/// /2301 10006 21061 38687 48495 52015 333 91106 91203;
0137067350999992010011516004+46500+007567FM-12+132099999V0203101N000519999999N9999999N1-00131-00631999999ADDMA1999999086911MD1210151+9999ME1314989OA149900211REMSYN076AAXX  15164 06735 33/// /3101 11013 21063 38691 48498 52015 333 91104 91203;
0137067350999992010011517004+46500+007567FM-12+132099999V0202501N000519999999N9999999N1-00111-00661999999ADDMA1999999086931MD1210121+9999ME1315009OA149900211REMSYN076AAXX  15174 06735 33/// /2501 11011 21066 38693 48500 52012 333 91104 91203;
0249067350999992010011518004+46500+007567FM-12+132099999V0202901N000512200019N0300001N1-00161-00671999999ADDAJ100309199999999AL19900091GA1001+999999999GF100991001001999999001001IA1279KA1120M+00121MA1999999086971MD1210101+9999ME1315039OA149900311REMSYN100AAXX  15184 06735 32/80 02901 11016 21067 38697 48503 52010 333 10012 43030 90766 93100 91106 91203;
0137067350999992010011519004+46500+007567FM-12+132099999V0209999C000019999999N9999999N1-00181-00741999999ADDMA1999999086981MD1210071+9999ME1315049OA149900101REMSYN076AAXX  15194 06735 33/// /0000 11018 21074 38698 48504 52007 333 91102 91201;
0137067350999992010011520004+46500+007567FM-12+132099999V0203101N000519999999N9999999N1-00271-00751999999ADDMA1999999086971MD1210041+9999ME1315029OA149900151REMSYN076AAXX  15204 06735 33/// /3101 11027 21075 38697 48502 52004 333 91103 91201;
0137067350999992010011521004+46500+007567FM-12+132099999V0202601N000519999999N9999999N1-00231-00771999999ADDMA1999999086971MD1010001+9999ME1315029OA149900211REMSYN076AAXX  15214 06735 33/// /2601 11023 21077 38697 48502 50000 333 91104 91203;
0137067350999992010011522004+46500+007567FM-12+132099999V0202801N001019999999N9999999N1-00321-00831999999ADDMA1999999086951MD1710031+9999ME1315009OA149900151REMSYN076AAXX  15224 06735 33/// /2802 11032 21083 38695 48500 57003 333 91103 91202;
0137067350999992010011523004+46500+007567FM-12+132099999V0202901N000519999999N9999999N1-00311-00891999999ADDMA1999999086991MD1310021+9999ME1315049OA149900211REMSYN076AAXX  15234 06735 33/// /2901 11031 21089 38699 48504 53002 333 91104 91202;
0137067350999992010011600004+46500+007567FM-12+132099999V0203101N000519999999N9999999N1-00301-00901999999ADDMA1999999086971MD1510001+9999ME1315029OA149900261REMSYN076AAXX  16004 06735 33/// /3101 11030 21090 38697 48502 55000 333 91105 91203;
0137067350999992010011601004+46500+007567FM-12+132099999V0200301N000519999999N9999999N1-00451-01061999999ADDMA1999999086951MD1010001+9999ME1314999OA149900211REMSYN076AAXX  16014 06735 33/// /0301 11045 21106 38695 48499 50000 333 91104 91203;
0137067350999992010011602004+46500+007567FM-12+132099999V0202601N000519999999N9999999N1-00301-01081999999ADDMA1999999086941MD1710051+9999ME1314999OA149900211REMSYN076AAXX  16024 06735 33/// /2601 11030 21108 38694 48499 57005 333 91104 91203;
0137067350999992010011603004+46500+007567FM-12+132099999V0202501N000519999999N9999999N1-00341-01041999999ADDMA1999999086881MD1719999+9999ME1314949OA149900211REMSYN076AAXX  16034 06735 33/// /2501 11034 21104 38688 48494 57/// 333 91104 91203;
0137067350999992010011604004+46500+007567FM-12+132099999V0203001N000519999999N9999999N1-00351-01101999999ADDMA1999999086901MD1710051+9999ME1314959OA149900211REMSYN076AAXX  16044 06735 33/// /3001 11035 21110 38690 48495 57005 333 91104 91202;
0137067350999992010011605004+46500+007567FM-12+132099999V0202301N000519999999N9999999N1-00231-01091999999ADDMA1999999086821MD1710121+9999ME1314899OA149900211REMSYN076AAXX  16054 06735 33/// /2301 11023 21109 38682 48489 57012 333 91104 91202;
0317067350999992010011606004+46500+007567FM-12+132099999V0200401N000512200019N0300001N1-00151-01061999999ADDAA124000091AJ100309199999999AL19900091GA1001+999999999GF100991001001999999001001GJ103069IA1279IA2999-00909KA1999N-00451MA1999999086791MD1710091+9999ME1314879OA149900211REMSYN118AAXX  16064 06735 32/80 00401 11015 21106 38679 48487 57009 333 21045 3/109 43030 55051 70000 90768 93100 91104 91203;EQDQ01  00002PRCP24
0137067350999992010011607004+46500+007567FM-12+132099999V0203001N000519999999N9999999N1-00141-01101999999ADDMA1999999086741MD1710161+9999ME1314829OA149900151REMSYN076AAXX  16074 06735 33/// /3001 11014 21110 38674 48482 57016 333 91103 91202;
0137067350999992010011608004+46500+007567FM-12+132099999V0202801N001019999999N9999999N1-00061-01181999999ADDMA1999999086721MD1710101+9999ME1314819OA149900261REMSYN076AAXX  16084 06735 33/// /2802 11006 21118 38672 48481 57010 333 91105 91203;
0137067350999992010011609004+46500+007567FM-12+132099999V0202401N000519999999N9999999N1-00111-01151999999ADDMA1999999086681MD1710111+9999ME1314779OA149900261REMSYN076AAXX  16094 06735 33/// /2401 11011 21115 38668 48477 57011 333 91105 91203;
0137067350999992010011610004+46500+007567FM-12+132099999V0202001N001019999999N9999999N1+00211-01191999999ADDMA1999999086691MD1710051+9999ME1314809OA149900261REMSYN076AAXX  16104 06735 33/// /2002 10021 21119 38669 48480 57005 333 91105 91202;
0137067350999992010011611004+46500+007567FM-12+132099999V0202301N000519999999N9999999N1+00331-01061999999ADDMA1999999086611MD1710111+9999ME1314739OA149900311REMSYN076AAXX  16114 06735 33/// /2301 10033 21106 38661 48473 57011 333 91106 91203;
0185067350999992010011612004+46500+007567FM-12+132099999V0200501N001010360019N0250001N1+00121-00681999999ADDGA1071+036001041GF107991999999999999999999MA1999999086561MD1710121+9999ME1314679OA149900311REMSYN082AAXX  16124 06735 32975 70502 10012 21068 38656 48467 57012 333 87462 91106 91203;
0137067350999992010011613004+46500+007567FM-12+132099999V0202401N000519999999N9999999N1-00161-00661999999ADDMA1999999086591MD1710101+9999ME1314689OA149900261REMSYN076AAXX  16134 06735 33/// /2401 11016 21066 38659 48468 57010 333 91105 91202;
0137067350999992010011614004+46500+007567FM-12+132099999V0202401N001519999999N9999999N1+00311-00951999999ADDMA1999999086501MD1719999+9999ME1314629OA149900361REMSYN076AAXX  16144 06735 33/// /2403 10031 21095 38650 48462 57/// 333 91107 91203;
0137067350999992010011615004+46500+007567FM-12+132099999V0202901N000519999999N9999999N1+00311-00691999999ADDMA1999999086511MD1710051+9999ME1314639OA149900361REMSYN076AAXX  16154 06735 33/// /2901 10031 21069 38651 48463 57005 333 91107 91203;
0137067350999992010011616004+46500+007567FM-12+132099999V0202201N000519999999N9999999N1+00281-00711999999ADDMA1999999086471MD1710121+9999ME1314599OA149900361REMSYN076AAXX  16164 06735 33/// /2201 10028 21071 38647 48459 57012 333 91107 91202;
0137067350999992010011617004+46500+007567FM-12+132099999V0202801N000519999999N9999999N1+00291-00741999999ADDMA1999999086471MD1810031+9999ME1314609OA149900361REMSYN076AAXX  16174 06735 33/// /2801 10029 21074 38647 48460 58003 333 91107 91202;
0255067350999992010011618004+46500+007567FM-12+132099999V0202201N000510270019N0200001N1-00281-00561999999ADDAJ100309199999999AL19900091GA1081+027001031GF108991999999999999999999IA1279KA1120M+00471MA1999999086501MD1510011+9999ME1314599OA149900361REMSYN106AAXX  16184 06735 32970 82201 11028 21056 38650 48459 55001 333 10047 43030 88359 90766 93100 91107 91203;
0137067350999992010011619004+46500+007567FM-12+132099999V0202601N001019999999N9999999N1+00051-00531999999ADDMA1999999086461MD1010011+9999ME1314579OA149900311REMSYN076AAXX  16194 06735 33/// /2602 10005 21053 38646 48457 50001 333 91106 91202;
0137067350999992010011620004+46500+007567FM-12+132099999V0202401N006219999999N9999999N1+00621-00411999999ADDMA1999999086391MD1710081+9999ME1314549OA149901341REMSYN076AAXX  16204 06735 33/// /2412 10062 21041 38639 48454 57008 333 91126 91214;
0137067350999992010011621004+46500+007567FM-12+132099999V0202301N005719999999N9999999N1+00661-00351999999ADDMA1999999086351MD1710151+9999ME1314509OA149901341REMSYN076AAXX  16214 06735 33/// /2311 10066 21035 38635 48450 57015 333 91126 91214;
0137067350999992010011622004+46500+007567FM-12+132099999V0202501N004119999999N9999999N1+00581-00211999999ADDMA1999999086321MD1710141+9999ME1314479OA149901291REMSYN076AAXX  16224 06735 33/// /2508 10058 21021 38632 48447 57014 333 91125 91215;
0137067350999992010011623004+46500+007567FM-12+132099999V0200801N001019999999N9999999N1-00151-00381999999ADDMA1999999086451MD1310061+9999ME1314559OA149901241REMSYN076AAXX  16234 06735 33/// /0802 11015 21038 38645 48455 53006 333 91124 91215;
0160067350999992010011700004+46500+007567FM-12+132099999V0202201N003119999999N9999999N1+00161-00041999999ADDAA106000891MA1999999086541MD1210191+9999ME1314659OA149901341REMSYN088AAXX  17004 06735 03/// /2206 10016 21004 38654 48465 52019 69981 333 69985 91126 91215;
0154067350999992010011701004+46500+007567FM-12+132099999V0202201N003619999999N9999999N1+00311-00051999999ADDAA101000591MA1999999086591MD1210271+9999ME1314719OA149901081REMSYN082AAXX  17014 06735 23/// /2207 10031 21005 38659 48471 52027 333 69945 91121 91211;
0137067350999992010011702004+46500+007567FM-12+132099999V0202101N003619999999N9999999N1+00371-00161999999ADDMA1999999086551MD1019999+9999ME1314679OA149901081REMSYN076AAXX  17024 06735 33/// /2107 10037 21016 38655 48467 50/// 333 91121 91211;
0096067350999992010011703004+46500+007567FM-12+132099999V0202401N005719999999N9999999N1+00271-00071999999ADDMA1999999086481ME1314609REMSYN060AAXX  17034 06735 43/// /2411 10027 21007 38648 48460 5////;
0154067350999992010011704004+46500+007567FM-12+132099999V0202001N004619999999N9999999N1+00351-00111999999ADDAA101000021MA1999999086491MD1710101+9999ME1314629OA149901181REMSYN082AAXX  17044 06735 23/// /2009 10035 21011 38649 48462 57010 333 69925 91123 91211;
