0128067340999992010010100004+46667+007867FM-12+057999999V0202701N000519999999N9999999N1+00121+00111099381ADDMA1999999092531MD1810121+9999OA149900311REMSYN076AAXX  01004 06734 33/// /2701 10012 20011 39253 49938 58012 333 91106 91204;
0128067340999992010010101004+46667+007867FM-12+057999999V0200601N000519999999N9999999N1+00161+00161099321ADDMA1999999092491MD1710121+9999OA149900151REMSYN076AAXX  01014 06734 33/// /0601 10016 20016 39249 49932 57012 333 91103 91201;
0128067340999992010010102004+46667+007867FM-12+057999999V0202101N002119999999N9999999N1+00091+00091099321ADDMA1999999092471MD1719999+9999OA149900261REMSYN076AAXX  01024 06734 33/// /2104 10009 20009 39247 49932 57/// 333 91105 91204;
0087067340999992010010103004+46667+007867FM-12+057999999V0202001N001519999999N9999999N1+00131+00131099241ADDMA1999999092411REMSYN060AAXX  01034 06734 43/// /2003 10013 20013 39241 49924 5////;
0087067340999992010010104004+46667+007867FM-12+057999999V0201901N000519999999N9999999N1+00091+00091099201ADDMA1999999092361REMSYN060AAXX  01044 06734 33/// /1901 10009 20009 39236 49920 5////;
0128067340999992010010105004+46667+007867FM-12+057999999V0202101N001519999999N9999999N1+00101+00101099161ADDMA1999999092321MD1610151+9999OA149900261REMSYN076AAXX  01054 06734 33/// /2103 10010 20010 39232 49916 56015 333 91105 91204;
0188067340999992010010106004+46667+007867FM-12+057999999V0202201N001019999999N9999999N1+00101+00101099111ADDAA124002391AL11800291GJ100129KA1999N+00081MA1999999092281MD1810131+9999OA149900361REMSYN094AAXX  01064 06734 33/// /2202 10010 20010 39228 49911 58013 333 20008 55002 70023 91107 91205;
0128067340999992010010107004+46667+007867FM-12+057999999V0209999C000019999999N9999999N1+00111+00111099121ADDMA1999999092291MD1710071+9999OA149900211REMSYN076AAXX  01074 06734 33/// /0000 10011 20011 39229 49912 57007 333 91104 91203;
0128067340999992010010108004+46667+007867FM-12+057999999V0209999C000019999999N9999999N1+00131+00131099151ADDMA1999999092321MD1510001+9999OA149900151REMSYN076AAXX  01084 06734 33/// /0000 10013 20013 39232 49915 55000 333 91103 91203;
0128067340999992010010109004+46667+007867FM-12+057999999V0202001N000519999999N9999999N1+00221+00221099201ADDMA1999999092391MD1210111+9999OA149900261REMSYN076AAXX  01094 06734 33/// /2001 10022 20022 39239 49920 52011 333 91105 91204;
0128067340999992010010110004+46667+007867FM-12+057999999V0200601N000519999999N9999999N1+00341+00341099201ADDMA1999999092421MD1110131+9999OA149900151REMSYN076AAXX  01104 06734 33/// /0601 10034 20034 39242 49920 51013 333 91103 91202;
0128067340999992010010111004+46667+007867FM-12+057999999V0201201N000519999999N9999999N1+00461+00461099181ADDMA1999999092431MD1210111+9999OA149900151REMSYN076AAXX  01114 06734 33/// /1201 10046 20046 39243 49918 52011 333 91103 91202;
0128067340999992010010112004+46667+007867FM-12+057999999V0203101N002619999999N9999999N1+00541+00381099171ADDMA1999999092441MD1210051+9999OA149900511REMSYN076AAXX  01124 06734 33/// /3105 10054 20038 39244 49917 52005 333 91110 91205;
0128067340999992010010113004+46667+007867FM-12+057999999V0203301N000519999999N9999999N1+00561+00341099191ADDMA1999999092461MD1310041+9999OA149900571REMSYN076AAXX  01134 06734 33/// /3301 10056 20034 39246 49919 53004 333 91111 91205;
0128067340999992010010114004+46667+007867FM-12+057999999V0203301N001519999999N9999999N1+00551+00311099271ADDMA1999999092541MD1319999+9999OA149900571REMSYN076AAXX  01144 06734 33/// /3303 10055 20031 39254 49927 53/// 333 91111 91205;
0128067340999992010010115004+46667+007867FM-12+057999999V0200401N000519999999N9999999N1+00541+00351099371ADDMA1999999092631MD1310191+9999OA149900571REMSYN076AAXX  01154 06734 33/// /0401 10054 20035 39263 49937 53019 333 91111 91205;
0145067340999992010010116004+46667+007867FM-12+057999999V0202701N005119999999N9999999N1+00541+00311099481ADDAA101000891MA1999999092731MD1210271+9999OA149900981REMSYN082AAXX  01164 06734 23/// /2710 10054 20031 39273 49948 52027 333 69975 91119 91210;
0145067340999992010010117004+46667+007867FM-12+057999999V0202401N004119999999N9999999N1+00481+00201099701ADDAA101004191MA1999999092921MD1310381+9999OA149901241REMSYN082AAXX  01174 06734 23/// /2408 10048 20020 39292 49970 53038 333 60045 91124 91211;
0170067340999992010010118004+46667+007867FM-12+057999999V0202501N007719999999N9999999N1+00331+00101100021ADDAA112007191KA1120M+00571MA1999999093181MD1310551+9999OA149901701REMSYN094AAXX  01184 06734 03/// /2515 10033 20010 39318 40002 53055 60072 333 10057 60035 91133 91215;
0145067340999992010010119004+46667+007867FM-12+057999999V0203201N001019999999N9999999N1+00311+00141100151ADDAA101002091MA1999999093301MD1210571+9999OA149901701REMSYN082AAXX  01194 06734 23/// /3202 10031 20014 39330 40015 52057 333 60025 91133 91215;
0145067340999992010010120004+46667+007867FM-12+057999999V0203001N003119999999N9999999N1+00271+00131100271ADDAA101002091MA1999999093401MD1110481+9999OA149901291REMSYN082AAXX  01204 06734 23/// /3006 10027 20013 39340 40027 51048 333 60025 91125 91211;
0145067340999992010010121004+46667+007867FM-12+057999999V0202201N003619999999N9999999N1+00261+00011100401ADDAA101000391MA1999999093521MD1210341+9999OA149901701REMSYN082AAXX  01214 06734 23/// /2207 10026 20001 39352 40040 52034 333 69935 91133 91215;
0145067340999992010010122004+46667+007867FM-12+057999999V0200701N001519999999N9999999N1+00201+00011100491ADDAA101000391MA1999999093591MD1210291+9999OA149901031REMSYN082AAXX  01224 06734 23/// /0703 10020 20001 39359 40049 52029 333 69935 91120 91209;
0145067340999992010010123004+46667+007867FM-12+057999999V0202601N007719999999N9999999N1+00221-00121100551ADDAA101000021MA1999999093651MD1110251+9999OA149901181REMSYN082AAXX  01234 06734 23/// /2615 10022 21012 39365 40055 51025 333 69915 91123 91215;
0151067340999992010010200004+46667+007867FM-12+057999999V0202501N009319999999N9999999N1+00131-00221100681ADDAA106005191MA1999999093751MD1210231+9999OA149901701REMSYN088AAXX  02004 06734 03/// /2518 10013 21022 39375 40068 52023 60051 333 69915 91133 91220;
0145067340999992010010201004+46667+007867FM-12+057999999V0202501N005719999999N9999999N1+00051-00341100851ADDAA101000591MA1999999093881MD1210291+9999OA149901651REMSYN082AAXX  02014 06734 23/// /2511 10005 21034 39388 40085 52029 333 69945 91132 91220;
0108067340999992010010202004+46667+007867FM-12+057999999V0202201N005119999999N9999999N1+00011-00451101031ADDAA101000891MA1999999094041REMSYN070AAXX  02024 06734 23/// /2210 10001 21045 39404 40103 5//// 333 69975;
0145067340999992010010203004+46667+007867FM-12+057999999V0202201N005719999999N9999999N1-00031-00491101151ADDAA101000021MA1999999094141MD1110391+9999OA149901651REMSYN082AAXX  02034 06734 23/// /2211 11003 21049 39414 40115 51039 333 69925 91132 91220;
0145067340999992010010204004+46667+007867FM-12+057999999V0202101N005119999999N9999999N1-00051-00591101251ADDAA101000021MA1999999094231MD1110351+9999OA149901341REMSYN082AAXX  02044 06734 23/// /2110 11005 21059 39423 40125 51035 333 69915 91126 91211;
0128067340999992010010205004+46667+007867FM-12+057999999V0202101N004119999999N9999999N1-00121-00621101351ADDMA1999999094311MD1110271+9999OA149901181REMSYN076AAXX  02054 06734 33/// /2108 11012 21062 39431 40135 51027 333 91123 91211;
0211067340999992010010206004+46667+007867FM-12+057999999V0202101N003619999999N9999999N1-00091-00741101401ADDAA112006191AA224013591AL13001391GJ100309KA1999N-00121MA1999999094361MD1110221+9999OA149901651REMSYN106AAXX  02064 06734 03/// /2107 11009 21074 39436 40140 51022 60062 333 21012 55005 60005 70135 91132 91220;
0128067340999992010010207004+46667+007867FM-12+057999999V0202001N004619999999N9999999N1-00081-00821101501ADDMA1999999094461MD1310231+9999OA149901031REMSYN076AAXX  02074 06734 33/// /2009 11008 21082 39446 40150 53023 333 91120 91210;
0087067340999992010010208004+46667+007867FM-12+057999999V0202301N003119999999N9999999N1-00081-00811101571ADDMA1999999094521REMSYN060AAXX  02084 06734 33/// /2306 11008 21081 39452 40157 5////;
0128067340999992010010209004+46667+007867FM-12+057999999V0202301N002619999999N9999999N1-00111-00741101711ADDMA1999999094641MD1310281+9999OA149901181REMSYN076AAXX  02094 06734 33/// /2305 11011 21074 39464 40171 53028 333 91123 91211;
0128067340999992010010210004+46667+007867FM-12+057999999V0202801N005719999999N9999999N1-00171-00591101831ADDMA1999999094741MD1310281+9999OA149901131REMSYN076AAXX  02104 06734 33/// /2811 11017 21059 39474 40183 53028 333 91122 91212;
0128067340999992010010211004+46667+007867FM-12+057999999V0202901N002119999999N9999999N1-00061-00721101851ADDMA1999999094791MD1110271+9999OA149901131REMSYN076AAXX  02114 06734 33/// /2904 11006 21072 39479 40185 51027 333 91122 91212;
0128067340999992010010212004+46667+007867FM-12+057999999V0202901N002619999999N9999999N1-00131-00841101951ADDMA1999999094861MD1110221+9999OA149901491REMSYN076AAXX  02124 06734 33/// /2905 11013 21084 39486 40195 51022 333 91129 91216;
0128067340999992010010213004+46667+007867FM-12+057999999V0202201N003119999999N9999999N1-00111-00861102011ADDMA1999999094921MD1210181+9999OA149900821REMSYN076AAXX  02134 06734 33/// /2206 11011 21086 39492 40201 52018 333 91116 91206;
0128067340999992010010214004+46667+007867FM-12+057999999V0202501N002119999999N9999999N1-00121-00851102121ADDMA1999999095021MD1319999+9999OA149900771REMSYN076AAXX  02144 06734 33/// /2504 11012 21085 39502 40212 53/// 333 91115 91206;
0128067340999992010010215004+46667+007867FM-12+057999999V0202701N002119999999N9999999N1-00191-00891102201ADDMA1999999095081MD1310221+9999OA149901131REMSYN076AAXX  02154 06734 33/// /2704 11019 21089 39508 40220 53022 333 91122 91212;
0128067340999992010010216004+46667+007867FM-12+057999999V0202101N003619999999N9999999N1-00341-00941102311ADDMA1999999095141MD1110221+9999OA149900511REMSYN076AAXX  02164 06734 33/// /2107 11034 21094 39514 40231 51022 333 91110 91207;
0128067340999992010010217004+46667+007867FM-12+057999999V0202201N005119999999N9999999N1-00421-01081102401ADDMA1999999095211MD1110191+9999OA149900721REMSYN076AAXX  02174 06734 33/// /2210 11042 21108 39521 40240 51019 333 91114 91210;
0147067340999992010010218004+46667+007867FM-12+057999999V0202201N004119999999N9999999N1-00441-01071102491ADDKA1120M-00061MA1999999095281MD1210201+9999OA149901131REMSYN082AAXX  02184 06734 33/// /2208 11044 21107 39528 40249 52020 333 11006 91122 91212;
0128067340999992010010219004+46667+007867FM-12+057999999V0202101N003119999999N9999999N1-00481-01021102511ADDMA1999999095291MD1210151+9999OA149900671REMSYN076AAXX  02194 06734 33/// /2106 11048 21102 39529 40251 52015 333 91113 91210;
0128067340999992010010220004+46667+007867FM-12+057999999V0202101N002119999999N9999999N1-00531-01051102531ADDMA1999999095301MD1210091+9999OA149900621REMSYN076AAXX  02204 06734 33/// /2104 11053 21105 39530 40253 52009 333 91112 91209;
0128067340999992010010221004+46667+007867FM-12+057999999V0201901N001519999999N9999999N1-00601-01021102571ADDMA1999999095321MD1210041+9999OA149900721REMSYN076AAXX  02214 06734 33/// /1903 11060 21102 39532 40257 52004 333 91114 91210;
0128067340999992010010222004+46667+007867FM-12+057999999V0202001N003119999999N9999999N1-00601-01061102571ADDMA1999999095321MD1210031+9999OA149900511REMSYN076AAXX  02224 06734 33/// /2006 11060 21106 39532 40257 52003 333 91110 91206;
0128067340999992010010223004+46667+007867FM-12+057999999V0202001N003119999999N9999999N1-00621-01081102621ADDMA1999999095361MD1210061+9999OA149900461REMSYN076AAXX  02234 06734 33/// /2006 11062 21108 39536 40262 52006 333 91109 91207;
0128067340999992010010300004+46667+007867FM-12+057999999V0202101N002619999999N9999999N1-00661-01141102621ADDMA1999999095351MD1210031+9999OA149900771REMSYN076AAXX  03004 06734 33/// /2105 11066 21114 39535 40262 52003 333 91115 91210;
0128067340999992010010301004+46667+007867FM-12+057999999V0201901N001519999999N9999999N1-00731-01071102651ADDMA1999999095361MD1010041+9999OA149900571REMSYN076AAXX  03014 06734 33/// /1903 11073 21107 39536 40265 50004 333 91111 91207;
0087067340999992010010302004+46667+007867FM-12+057999999V0201901N002619999999N9999999N1-00661-01111102631ADDMA1999999095361REMSYN060AAXX  03024 06734 33/// /1905 11066 21111 39536 40263 5////;
0087067340999992010010303004+46667+007867FM-12+057999999V0202101N003119999999N9999999N1-00691-01121102601ADDMA1999999095321REMSYN060AAXX  03034 06734 33/// /2106 11069 21112 39532 40260 5////;
0128067340999992010010304004+46667+007867FM-12+057999999V0202201N001519999999N9999999N1-00811-01061102601ADDMA1999999095291MD1810071+9999OA149900411REMSYN076AAXX  03044 06734 33/// /2203 11081 21106 39529 40260 58007 333 91108 91206;
0128067340999992010010305004+46667+007867FM-12+057999999V0201701N001519999999N9999999N1-00811-01021102591ADDMA1999999095281MD1719999+9999OA149900461REMSYN076AAXX  03054 06734 33/// /1703 11081 21102 39528 40259 57/// 333 91109 91207;
0207067340999992010010306004+46667+007867FM-12+057999999V0201801N002119999999N9999999N1-00741-01021102511ADDAA124000091AL19900091GJ100609KA1999N-00841MA1999999095221MD1710101+9999OA149900621REMSYN094AAXX  03064 06734 33/// /1804 11074 21102 39522 40251 57010 333 21084 55010 70000 91112 91209;EQDQ01  00002PRCP24
0128067340999992010010307004+46667+007867FM-12+057999999V0201701N000519999999N9999999N1-00781-00991102521ADDMA1999999095221MD1710071+9999OA149900411REMSYN076AAXX  03074 06734 33/// /1701 11078 21099 39522 40252 57007 333 91108 91205;
0128067340999992010010308004+46667+007867FM-12+057999999V0209999C000019999999N9999999N1-00681-01011102491ADDMA1999999095221MD1519999+9999OA149900411REMSYN076AAXX  03084 06734 33/// /0000 11068 21101 39522 40249 55/// 333 91108 91205;
0128067340999992010010309004+46667+007867FM-12+057999999V0209999C000019999999N9999999N1-00661-00881102501ADDMA1999999095241MD1210021+9999OA149900461REMSYN076AAXX  03094 06734 33/// /0000 11066 21088 39524 40250 52002 333 91109 91207;
0128067340999992010010310004+46667+007867FM-12+057999999V0201701N001019999999N9999999N1-00461-00971102451ADDMA1999999095241MD1210021+9999OA149900151REMSYN076AAXX  03104 06734 33/// /1702 11046 21097 39524 40245 52002 333 91103 91203;
0128067340999992010010311004+46667+007867FM-12+057999999V0201901N001019999999N9999999N1-00321-00891102261ADDMA1999999095101MD1810121+9999OA149900261REMSYN076AAXX  03114 06734 33/// /1902 11032 21089 39510 40226 58012 333 91105 91203;
0128067340999992010010312004+46667+007867FM-12+057999999V0202101N002119999999N9999999N1-00361-00941102231ADDMA1999999095061MD1710181+9999OA149900461REMSYN076AAXX  03124 06734 33/// /2104 11036 21094 39506 40223 57018 333 91109 91207;
0128067340999992010010313004+46667+007867FM-12+057999999V0202501N001519999999N9999999N1-00401-00931102191ADDMA1999999095021MD1710221+9999OA149900361REMSYN076AAXX  03134 06734 33/// /2503 11040 21093 39502 40219 57022 333 91107 91205;
0128067340999992010010314004+46667+007867FM-12+057999999V0201901N000519999999N9999999N1-00481-00941102261ADDMA1999999095061MD1510041+9999OA149900261REMSYN076AAXX  03144 06734 33/// /1901 11048 21094 39506 40226 55004 333 91105 91204;
0128067340999992010010315004+46667+007867FM-12+057999999V0201801N000519999999N9999999N1-00481-00881102271ADDMA1999999095071MD1310011+9999OA149900361REMSYN076AAXX  03154 06734 33/// /1801 11048 21088 39507 40227 53001 333 91107 91205;
0128067340999992010010316004+46667+007867FM-12+057999999V0202001N001519999999N9999999N1-00441-00861102221ADDMA1999999095031MD1010011+9999OA149900211REMSYN076AAXX  03164 06734 33/// /2003 11044 21086 39503 40222 50001 333 91104 91203;
0128067340999992010010317004+46667+007867FM-12+057999999V0202101N002119999999N9999999N1-00431-00841102161ADDMA1999999094981MD1810081+9999OA149900261REMSYN076AAXX  03174 06734 33/// /2104 11043 21084 39498 40216 58008 333 91105 91204;
0147067340999992010010318004+46667+007867FM-12+057999999V0202201N002619999999N9999999N1-00541-00851102201ADDKA1120M-00321MA1999999094991MD1710081+9999OA149900411REMSYN082AAXX  03184 06734 33/// /2205 11054 21085 39499 40220 57008 333 11032 91108 91205;
0128067340999992010010319004+46667+007867FM-12+057999999V0201701N000519999999N9999999N1-00641-00881102211ADDMA1999999094971MD1710061+9999OA149900411REMSYN076AAXX  03194 06734 33/// /1701 11064 21088 39497 40221 57006 333 91108 91206;
0128067340999992010010320004+46667+007867FM-12+057999999V0202001N000519999999N9999999N1-00681-00891102201ADDMA1999999094951MD1810031+9999OA149900411REMSYN076AAXX  03204 06734 33/// /2001 11068 21089 39495 40220 58003 333 91108 91206;
0128067340999992010010321004+46667+007867FM-12+057999999V0202001N001019999999N9999999N1-00701-00911102161ADDMA1999999094911MD1710081+9999OA149900411REMSYN076AAXX  03214 06734 33/// /2002 11070 21091 39491 40216 57008 333 91108 91206;
0128067340999992010010322004+46667+007867FM-12+057999999V0201901N000519999999N9999999N1-00721-00951102151ADDMA1999999094891MD1710081+9999OA149900261REMSYN076AAXX  03224 06734 33/// /1901 11072 21095 39489 40215 57008 333 91105 91204;
0128067340999992010010323004+46667+007867FM-12+057999999V0202001N001019999999N9999999N1-00731-00961102131ADDMA1999999094871MD1710081+9999OA149900261REMSYN076AAXX  03234 06734 33/// /2002 11073 21096 39487 40213 57008 333 91105 91204;
0128067340999992010010400004+46667+007867FM-12+057999999V0202001N001019999999N9999999N1-00661-00891102011ADDMA1999999094781MD1710131+9999OA149900411REMSYN076AAXX  04004 06734 33/// /2002 11066 21089 39478 40201 57013 333 91108 91206;
0128067340999992010010401004+46667+007867FM-12+057999999V0202301N000519999999N9999999N1-00511-00751101871ADDMA1999999094691MD1710201+9999OA149900211REMSYN076AAXX  04014 06734 33/// /2301 11051 21075 39469 40187 57020 333 91104 91203;
0128067340999992010010402004+46667+007867FM-12+057999999V0202601N000519999999N9999999N1-00411-00801101791ADDMA1999999094641MD1610231+9999OA149900211REMSYN076AAXX  04024 06734 33/// /2601 11041 21080 39464 40179 56023 333 91104 91202;
0128067340999992010010403004+46667+007867FM-12+057999999V0200801N001019999999N9999999N1-00411-00721101751ADDMA1999999094601MD1619999+9999OA149900261REMSYN076AAXX  04034 06734 33/// /0802 11041 21072 39460 40175 56/// 333 91105 91204;
0128067340999992010010404004+46667+007867FM-12+057999999V0209999C000019999999N9999999N1-00371-00681101691ADDMA1999999094561MD1610131+9999OA149900211REMSYN076AAXX  04044 06734 33/// /0000 11037 21068 39456 40169 56013 333 91104 91202;
0128067340999992010010405004+46667+007867FM-12+057999999V0209999C000019999999N9999999N1-00351-00601101711ADDMA1999999094581MD1510061+9999OA149900361REMSYN076AAXX  04054 06734 33/// /0000 11035 21060 39458 40171 55006 333 91107 91204;
0239067340999992010010406004+46667+007867FM-12+057999999V0203601N000519999999N9999999N1-00331-00571101721ADDAA124000091AL19900091GJ101749KA1999N-00791MA1999999094601MD1710031+9999OA149900411REMSYN094AAXX  04064 06734 33/// /3601 11033 21057 39460 40172 53000 333 21079 55029 70000 91108 91206;EQDQ01+000032APCTENQ02+000002APC3  Q03  00002PRCP24
0145067340999992010010407004+46667+007867FM-12+057999999V0201801N000519999999N9999999N1-00381-00471101681ADDAA101000021MA1999999094551MD1810011+9999OA149900151REMSYN082AAXX  04074 06734 23/// /1801 11038 21047 39455 40168 58001 333 69915 91103 91203;
0145067340999992010010408004+46667+007867FM-12+057999999V0201801N001019999999N9999999N1-00331-00451101631ADDAA101000391MA1999999094511MD1710071+9999OA149900311REMSYN082AAXX  04084 06734 23/// /1802 11033 21045 39451 40163 57007 333 69935 91106 91204;
0145067340999992010010409004+46667+007867FM-12+057999999V0202201N001519999999N9999999N1-00321-00421101621ADDAA101000021MA1999999094511MD1710091+9999OA149900361REMSYN082AAXX  04094 06734 23/// /2203 11032 21042 39451 40162 57009 333 69925 91107 91204;
0128067340999992010010410004+46667+007867FM-12+057999999V0209999C000019999999N9999999N1-00261-00411101611ADDMA1999999094511MD1710041+9999OA149900211REMSYN076AAXX  04104 06734 33/// /0000 11026 21041 39451 40161 57004 333 91104 91203;
0145067340999992010010411004+46667+007867FM-12+057999999V0202601N000519999999N9999999N1-00241-00371101531ADDAA101000021MA1999999094441MD1710071+9999OA149900151REMSYN082AAXX  04114 06734 23/// /2601 11024 21037 39444 40153 57007 333 69925 91103 91202;
0151067340999992010010412004+46667+007867FM-12+057999999V0203401N001019999999N9999999N1-00221-00351101461ADDAA106001091MA1999999094381MD1710131+9999OA149900361REMSYN088AAXX  04124 06734 03/// /3402 11022 21035 39438 40146 57013 60011 333 69935 91107 91204;
0128067340999992010010413004+46667+007867FM-12+057999999V0203301N001519999999N9999999N1-00201-00361101391ADDMA1999999094321MD1610191+9999OA149900361REMSYN076AAXX  04134 06734 33/// /3303 11020 21036 39432 40139 56019 333 91107 91204;
0145067340999992010010414004+46667+007867FM-12+057999999V0200601N000519999999N9999999N1-00231-00361101351ADDAA101000021MA1999999094281MD1619999+9999OA149900361REMSYN082AAXX  04144 06734 23/// /0601 11023 21036 39428 40135 56/// 333 69915 91107 91204;
0128067340999992010010415004+46667+007867FM-12+057999999V0200801N000519999999N9999999N1-00231-00351101331ADDMA1999999094261MD1610121+9999OA149900361REMSYN076AAXX  04154 06734 33/// /0801 11023 21035 39426 40133 56012 333 91107 91204;
0145067340999992010010416004+46667+007867FM-12+057999999V0209999C000019999999N9999999N1-00201-00331101311ADDAA101000021MA1999999094251MD1710071+9999OA149900151REMSYN082AAXX  04164 06734 23/// /0000 11020 21033 39425 40131 57007 333 69915 91103 91202;
0145067340999992010010417004+46667+007867FM-12+057999999V0209999C000019999999N9999999N1-00231-00311101311ADDAA101000021MA1999999094241MD1710041+9999OA149900151REMSYN082AAXX  04174 06734 23/// /0000 11023 21031 39424 40131 57004 333 69925 91103 91201;
0170067340999992010010418004+46667+007867FM-12+057999999V0209999C000019999999N9999999N1-00231-00291101301ADDAA112002091KA1120M-00201MA1999999094231MD1710031+9999OA149900361REMSYN094AAXX  04184 06734 03/// /0000 11023 21029 39423 40130 57003 60022 333 11020 69925 91107 91204;
0145067340999992010010419004+46667+007867FM-12+057999999V0202101N000519999999N9999999N1-00251-00291101261ADDAA101000021MA1999999094191MD1710061+9999OA149900151REMSYN082AAXX  04194 06734 23/// /2101 11025 21029 39419 40126 57006 333 69925 91103 91201;
0128067340999992010010420004+46667+007867FM-12+057999999V0209999C000019999999N9999999N1-00251-00291101241ADDMA1999999094171MD1710071+9999OA149900101REMSYN076AAXX  04204 06734 33/// /0000 11025 21029 39417 40124 57007 333 91102 91201;
0145067340999992010010421004+46667+007867FM-12+057999999V0202301N001019999999N9999999N1-00221-00291101221ADDAA101000021MA1999999094161MD1710071+9999OA149900151REMSYN082AAXX  04214 06734 23/// /2302 11022 21029 39416 40122 57007 333 69915 91103 91202;
0128067340999992010010422004+46667+007867FM-12+057999999V0202601N000519999999N9999999N1-00211-00301101201ADDMA1999999094141MD1710051+9999OA149900151REMSYN076AAXX  04224 06734 33/// /2601 11021 21030 39414 40120 57005 333 91103 91202;
0145067340999992010010423004+46667+007867FM-12+057999999V0209999C000019999999N9999999N1-00231-00291101151ADDAA101000021MA1999999094091MD1710081+9999OA149900151REMSYN082AAXX  04234 06734 23/// /0000 11023 21029 39409 40115 57008 333 69915 91103 91202;
0151067340999992010010500004+46667+007867FM-12+057999999V0209999C000019999999N9999999N1-00231-00281101101ADDAA106000891MA1999999094051MD1810111+9999OA149900361REMSYN088AAXX  05004 06734 03/// /0000 11023 21028 39405 40110 58011 69981 333 69945 91107 91204;
0145067340999992010010501004+46667+007867FM-12+057999999V0209999C000019999999N9999999N1-00241-00281101041ADDAA101000591MA1999999093991MD1810151+9999OA149900151REMSYN082AAXX  05014 06734 23/// /0000 11024 21028 39399 40104 58015 333 69955 91103 91201;
0145067340999992010010502004+46667+007867FM-12+057999999V0203301N000519999999N9999999N1-00341-00391101041ADDAA101000021MA1999999093961MD1610131+9999OA149900151REMSYN082AAXX  05024 06734 23/// /3301 11034 21039 39396 40104 56013 333 69915 91103 91202;
0128067340999992010010503004+46667+007867FM-12+057999999V0202701N001519999999N9999999N1-00261-00381100971ADDMA1999999093921MD1610131+9999OA149900461REMSYN076AAXX  05034 06734 33/// /2703 11026 21038 39392 40097 56013 333 91109 91206;
0128067340999992010010504004+46667+007867FM-12+057999999V0202701N000519999999N9999999N1-00291-00361100881ADDMA1999999093831MD1810161+9999OA149900461REMSYN076AAXX  05044 06734 33/// /2701 11029 21036 39383 40088 58016 333 91109 91206;
0128067340999992010010505004+46667+007867FM-12+057999999V0201001N000519999999N9999999N1-00251-00341100821ADDMA1999999093781MD1710181+9999OA149900151REMSYN076AAXX  05054 06734 33/// /1001 11025 21034 39378 40082 57018 333 91103 91202;
0211067340999992010010506004+46667+007867FM-12+057999999V0209999C000019999999N9999999N1-00241-00321100741ADDAA112001091AA224003091AL10600391GJ100009KA1999N-00341MA1999999093711MD1710211+9999OA149900461REMSYN106AAXX  05064 06734 03/// /0000 11024 21032 39371 40074 57021 60012 333 21034 55000 60005 70031 91109 91206;
0128067340999992010010507004+46667+007867FM-12+057999999V0202901N000519999999N9999999N1-00241-00311100701ADDMA1999999093671MD1610161+9999OA149900211REMSYN076AAXX  05074 06734 33/// /2901 11024 21031 39367 40070 56016 333 91104 91202;
0128067340999992010010508004+46667+007867FM-12+057999999V0209999C000019999999N9999999N1-00221-00311100671ADDMA1999999093651MD1710131+9999OA149900361REMSYN076AAXX  05084 06734 33/// /0000 11022 21031 39365 40067 57013 333 91107 91204;
0128067340999992010010509004+46667+007867FM-12+057999999V0203101N002619999999N9999999N1-00201-00331100641ADDMA1999999093631MD1710081+9999OA149900511REMSYN076AAXX  05094 06734 33/// /3105 11020 21033 39363 40064 57008 333 91110 91206;
0128067340999992010010510004+46667+007867FM-12+057999999V0202901N002619999999N9999999N1-00181-00321100601ADDMA1999999093591MD1710081+9999OA149900511REMSYN076AAXX  05104 06734 33/// /2905 11018 21032 39359 40060 57008 333 91110 91206;
0128067340999992010010511004+46667+007867FM-12+057999999V0203001N003119999999N9999999N1-00151-00311100511ADDMA1999999093521MD1810131+9999OA149900461REMSYN076AAXX  05114 06734 33/// /3006 11015 21031 39352 40051 58013 333 91109 91206;
0128067340999992010010512004+46667+007867FM-12+057999999V0202901N002619999999N9999999N1-00141-00311100451ADDMA1999999093461MD1710171+9999OA149900571REMSYN076AAXX  05124 06734 33/// /2905 11014 21031 39346 40045 57017 333 91111 91207;
0128067340999992010010513004+46667+007867FM-12+057999999V0202801N001019999999N9999999N1-00121-00291100361ADDMA1999999093391MD1810201+9999OA149900571REMSYN076AAXX  05134 06734 33/// /2802 11012 21029 39339 40036 58020 333 91111 91207;
0087067340999992010010514004+46667+007867FM-12+057999999V0202801N000519999999N9999999N1-00091-00261100311ADDMA1999999093351REMSYN060AAXX  05144 06734 33/// /2801 11009 21026 39335 40031 5////;
0128067340999992010010515004+46667+007867FM-12+057999999V0201801N001019999999N9999999N1-00091-00301100281ADDMA1999999093321MD1610141+9999OA149900571REMSYN076AAXX  05154 06734 33/// /1802 11009 21030 39332 40028 56014 333 91111 91207;
0128067340999992010010516004+46667+007867FM-12+057999999V0201901N002119999999N9999999N1-00101-00301100271ADDMA1999999093311MD1710081+9999OA149900261REMSYN076AAXX  05164 06734 33/// /1904 11010 21030 39331 40027 57008 333 91105 91204;
0128067340999992010010517004+46667+007867FM-12+057999999V0202001N003119999999N9999999N1-00131-00321100261ADDMA1999999093291MD1710061+9999OA149900461REMSYN076AAXX  05174 06734 33/// /2006 11013 21032 39329 40026 57006 333 91109 91206;
0147067340999992010010518004+46667+007867FM-12+057999999V0202001N003119999999N9999999N1-00191-00361100231ADDKA1120M-00071MA1999999093251MD1710071+9999OA149900571REMSYN082AAXX  05184 06734 33/// /2006 11019 21036 39325 40023 57007 333 11007 91111 91207;
0128067340999992010010519004+46667+007867FM-12+057999999V0202001N003619999999N9999999N1-00241-00411100251ADDMA1999999093251MD1710061+9999OA149900461REMSYN076AAXX  05194 06734 33/// /2007 11024 21041 39325 40025 57006 333 91109 91207;
0128067340999992010010520004+46667+007867FM-12+057999999V0202101N003119999999N9999999N1-00261-00431100201ADDMA1999999093201MD1810091+9999OA149900461REMSYN076AAXX  05204 06734 33/// /2106 11026 21043 39320 40020 58009 333 91109 91207;
0128067340999992010010521004+46667+007867FM-12+057999999V0202201N001519999999N9999999N1-00311-00471100211ADDMA1999999093201MD1610051+9999OA149900461REMSYN076AAXX  05214 06734 33/// /2203 11031 21047 39320 40021 56005 333 91109 91207;
0128067340999992010010522004+46667+007867FM-12+057999999V0202101N002619999999N9999999N1-00321-00481100191ADDMA1999999093181MD1610071+9999OA149900361REMSYN076AAXX  05224 06734 33/// /2105 11032 21048 39318 40019 56007 333 91107 91206;
0128067340999992010010523004+46667+007867FM-12+057999999V0202301N002119999999N9999999N1-00301-00461100171ADDMA1999999093161MD1710041+9999OA149900361REMSYN076AAXX  05234 06734 33/// /2304 11030 21046 39316 40017 57004 333 91107 91206;
0128067340999992010010600004+46667+007867FM-12+057999999V0201701N002119999999N9999999N1-00291-00451100121ADDMA1999999093121MD1710081+9999OA149900461REMSYN076AAXX  06004 06734 33/// /1704 11029 21045 39312 40012 57008 333 91109 91207;
0128067340999992010010601004+46667+007867FM-12+057999999V0202201N001519999999N9999999N1-00331-00501100141ADDMA1999999093131MD1710051+9999OA149900411REMSYN076AAXX  06014 06734 33/// /2203 11033 21050 39313 40014 57005 333 91108 91207;
0128067340999992010010602004+46667+007867FM-12+057999999V0202701N001019999999N9999999N1-00321-00471100141ADDMA1999999093131MD1510031+9999OA149900361REMSYN076AAXX  06024 06734 33/// /2702 11032 21047 39313 40014 55003 333 91107 91205;
0128067340999992010010603004+46667+007867FM-12+057999999V0202301N001519999999N9999999N1-00281-00431100131ADDMA1999999093131MD1210011+9999OA149900411REMSYN076AAXX  06034 06734 33/// /2303 11028 21043 39313 40013 52001 333 91108 91207;
0128067340999992010010604004+46667+007867FM-12+057999999V0202601N000519999999N9999999N1-00241-00401100111ADDMA1999999093121MD1710011+9999OA149900261REMSYN076AAXX  06044 06734 33/// /2601 11024 21040 39312 40011 57001 333 91105 91203;
0128067340999992010010605004+46667+007867FM-12+057999999V0202301N001519999999N9999999N1-00251-00401100131ADDMA1999999093141MD1510011+9999OA149900211REMSYN076AAXX  06054 06734 33/// /2303 11025 21040 39314 40013 55001 333 91104 91203;
0207067340999992010010606004+46667+007867FM-12+057999999V0202301N001019999999N9999999N1-00231-00361100141ADDAA124000091AL19900091GJ100009KA1999N-00331MA1999999093151MD1310021+9999OA149900461REMSYN094AAXX  06064 06734 33/// /2302 11023 21036 39315 40014 53002 333 21033 55000 70000 91109 91207;EQDQ01  00002PRCP24
0128067340999992010010607004+46667+007867FM-12+057999999V0202601N000519999999N9999999N1-00221-00381100181ADDMA1999999093191MD1210071+9999OA149900211REMSYN076AAXX  06074 06734 33/// /2601 11022 21038 39319 40018 52007 333 91104 91203;
0128067340999992010010608004+46667+007867FM-12+057999999V0200801N000519999999N9999999N1-00201-00361100211ADDMA1999999093231MD1210091+9999OA149900261REMSYN076AAXX  06084 06734 33/// /0801 11020 21036 39323 40021 52009 333 91105 91203;
0128067340999992010010609004+46667+007867FM-12+057999999V0200701N002119999999N9999999N1-00101-00251100241ADDMA1999999093281MD1310131+9999OA149900311REMSYN076AAXX  06094 06734 33/// /0704 11010 21025 39328 40024 53013 333 91106 91204;
0128067340999992010010610004+46667+007867FM-12+057999999V0209999C000019999999N9999999N1-00051-00221100261ADDMA1999999093311MD1110121+9999OA149900411REMSYN076AAXX  06104 06734 33/// /0000 11005 21022 39331 40026 51012 333 91108 91206;
0128067340999992010010611004+46667+007867FM-12+057999999V0202801N003619999999N9999999N1-00061-00211100251ADDMA1999999093301MD1219999+9999OA149900511REMSYN076AAXX  06114 06734 33/// /2807 11006 21021 39330 40025 52/// 333 91110 91207;
0128067340999992010010612004+46667+007867FM-12+057999999V0202601N001519999999N9999999N1-00041-00281100221ADDMA1999999093281MD1010001+9999OA149900511REMSYN076AAXX  06124 06734 33/// /2603 11004 21028 39328 40022 50000 333 91110 91207;
0128067340999992010010613004+46667+007867FM-12+057999999V0203101N002119999999N9999999N1+00011-00211100211ADDMA1999999093281MD1710031+9999OA149900461REMSYN076AAXX  06134 06734 33/// /3104 10001 21021 39328 40021 57003 333 91109 91206;
0128067340999992010010614004+46667+007867FM-12+057999999V0203101N001519999999N9999999N1+00021-00201100211ADDMA1999999093281MD1719999+9999OA149900411REMSYN076AAXX  06144 06734 33/// /3103 10002 21020 39328 40021 57/// 333 91108 91205;
0128067340999992010010615004+46667+007867FM-12+057999999V0203001N003119999999N9999999N1+00001-00231100271ADDMA1999999093331MD1219999+9999OA149900511REMSYN076AAXX  06154 06734 33/// /3006 10000 21023 39333 40027 52/// 333 91110 91207;
0128067340999992010010616004+46667+007867FM-12+057999999V0202901N003119999999N9999999N1-00021-00271100321ADDMA1999999093371MD1310091+9999OA149900511REMSYN076AAXX  06164 06734 33/// /2906 11002 21027 39337 40032 53009 333 91110 91207;
0128067340999992010010617004+46667+007867FM-12+057999999V0203001N001519999999N9999999N1+00001-00251100381ADDMA1999999093431MD1310151+9999OA149900571REMSYN076AAXX  06174 06734 33/// /3003 10000 21025 39343 40038 53015 333 91111 91207;
0147067340999992010010618004+46667+007867FM-12+057999999V0202401N002119999999N9999999N1-00041-00261100441ADDKA1120M+00021MA1999999093481MD1119999+9999OA149900571REMSYN082AAXX  06184 06734 33/// /2404 11004 21026 39348 40044 51/// 333 10002 91111 91207;
0128067340999992010010619004+46667+007867FM-12+057999999V0202201N001519999999N9999999N1-00071-00331100481ADDMA1999999093511MD1110141+9999OA149900411REMSYN076AAXX  06194 06734 33/// /2203 11007 21033 39351 40048 51014 333 91108 91205;
0128067340999992010010620004+46667+007867FM-12+057999999V0202001N000519999999N9999999N1-00101-00351100511ADDMA1999999093531MD1110101+9999OA149900261REMSYN076AAXX  06204 06734 33/// /2001 11010 21035 39353 40051 51010 333 91105 91203;
0128067340999992010010621004+46667+007867FM-12+057999999V0202201N000519999999N9999999N1-00171-00301100551ADDMA1999999093551MD1210071+9999OA149900571REMSYN076AAXX  06214 06734 33/// /2201 11017 21030 39355 40055 52007 333 91111 91207;
0128067340999992010010622004+46667+007867FM-12+057999999V0202301N003119999999N9999999N1-00141-00421100611ADDMA1999999093611MD1210101+9999OA149900511REMSYN076AAXX  06224 06734 33/// /2306 11014 21042 39361 40061 52010 333 91110 91206;
0128067340999992010010623004+46667+007867FM-12+057999999V0202601N002119999999N9999999N1-00161-00511100641ADDMA1999999093641MD1210111+9999OA149900511REMSYN076AAXX  06234 06734 33/// /2604 11016 21051 39364 40064 52011 333 91110 91206;
0128067340999992010010700004+46667+007867FM-12+057999999V0202101N001519999999N9999999N1-00271-00571100721ADDMA1999999093681MD1210131+9999OA149900571REMSYN076AAXX  07004 06734 33/// /2103 11027 21057 39368 40072 52013 333 91111 91207;
0128067340999992010010701004+46667+007867FM-12+057999999V0202401N001019999999N9999999N1-00401-00621100761ADDMA1999999093691MD1210081+9999OA149900461REMSYN076AAXX  07014 06734 33/// /2402 11040 21062 39369 40076 52008 333 91109 91206;
0128067340999992010010702004+46667+007867FM-12+057999999V0202201N001019999999N9999999N1-00401-00601100811ADDMA1999999093731MD1319999+9999OA149900411REMSYN076AAXX  07024 06734 33/// /2202 11040 21060 39373 40081 53/// 333 91108 91206;
0128067340999992010010703004+46667+007867FM-12+057999999V0202101N003619999999N9999999N1-00481-00701100811ADDMA1999999093711MD1210031+9999OA149900511REMSYN076AAXX  07034 06734 33/// /2107 11048 21070 39371 40081 52003 333 91110 91208;
0128067340999992010010704004+46667+007867FM-12+057999999V0202001N003119999999N9999999N1-00481-00771100821ADDMA1999999093721MD1210031+9999OA149900511REMSYN076AAXX  07044 06734 33/// /2006 11048 21077 39372 40082 52003 333 91110 91208;
0128067340999992010010705004+46667+007867FM-12+057999999V0202201N003619999999N9999999N1-00431-00771100821ADDMA1999999093731MD1010001+9999OA149900511REMSYN076AAXX  07054 06734 33/// /2207 11043 21077 39373 40082 50000 333 91110 91207;
0207067340999992010010706004+46667+007867FM-12+057999999V0202001N003119999999N9999999N1-00551-00861100881ADDAA124000091AL19900091GJ100009KA1999N-00671MA1999999093761MD1310051+9999OA149900511REMSYN094AAXX  07064 06734 33/// /2006 11055 21086 39376 40088 53005 333 21067 55000 70000 91110 91208;EQDQ01  00002PRCP24
0128067340999992010010707004+46667+007867FM-12+057999999V0202101N003619999999N9999999N1-00571-00911100921ADDMA1999999093791MD1210071+9999OA149900571REMSYN076AAXX  07074 06734 33/// /2107 11057 21091 39379 40092 52007 333 91111 91208;
0128067340999992010010708004+46667+007867FM-12+057999999V0201001N000519999999N9999999N1-00741-00891101041ADDMA1999999093861MD1219999+9999OA149900571REMSYN076AAXX  07084 06734 33/// /1001 11074 21089 39386 40104 52/// 333 91111 91208;
0128067340999992010010709004+46667+007867FM-12+057999999V0202001N001019999999N9999999N1-00661-00921101061ADDMA1999999093901MD1110141+9999OA149900571REMSYN076AAXX  07094 06734 33/// /2002 11066 21092 39390 40106 51014 333 91111 91208;
0128067340999992010010710004+46667+007867FM-12+057999999V0202101N001519999999N9999999N1-00481-00821101071ADDMA1999999093951MD1210161+9999OA149900261REMSYN076AAXX  07104 06734 33/// /2103 11048 21082 39395 40107 52016 333 91105 91203;
0128067340999992010010711004+46667+007867FM-12+057999999V0201201N000519999999N9999999N1-00491-00741101071ADDMA1999999093951MD1210091+9999OA149900461REMSYN076AAXX  07114 06734 33/// /1201 11049 21074 39395 40107 52009 333 91109 91207;
0128067340999992010010712004+46667+007867FM-12+057999999V0200901N001019999999N9999999N1-00331-00641100991ADDMA1999999093921MD1010021+9999OA149900571REMSYN076AAXX  07124 06734 33/// /0902 11033 21064 39392 40099 50002 333 91111 91208;
0128067340999992010010713004+46667+007867FM-12+057999999V0202201N000519999999N9999999N1-00211-00581100961ADDMA1999999093921MD1710031+9999OA149900151REMSYN076AAXX  07134 06734 33/// /2201 11021 21058 39392 40096 57003 333 91103 91202;
0087067340999992010010715004+46667+007867FM-12+057999999V0202001N000519999999N9999999N1-00221-00591101041ADDMA1999999093991REMSYN060AAXX  07154 06734 43/// /2001 11022 21059 39399 40104 5////;
0128067340999992010010716004+46667+007867FM-12+057999999V0209999C000019999999N9999999N1-00261-00531101091ADDMA1999999094031MD1310111+9999OA149900101REMSYN076AAXX  07164 06734 33/// /0000 11026 21053 39403 40109 53011 333 91102 91202;
0128067340999992010010717004+46667+007867FM-12+057999999V0202101N001519999999N9999999N1-00331-00571101121ADDMA1999999094041MD1119999+9999OA149900211REMSYN076AAXX  07174 06734 33/// /2103 11033 21057 39404 40112 51/// 333 91104 91203;
0147067340999992010010718004+46667+007867FM-12+057999999V0201701N001019999999N9999999N1-00371-00601101161ADDKA1120M-00161MA1999999094071MD1319999+9999OA149900571REMSYN082AAXX  07184 06734 33/// /1702 11037 21060 39407 40116 53/// 333 11016 91111 91208;
0128067340999992010010719004+46667+007867FM-12+057999999V0201801N001019999999N9999999N1-00331-00611101171ADDMA1999999094091MD1110061+9999OA149900311REMSYN076AAXX  07194 06734 33/// /1802 11033 21061 39409 40117 51006 333 91106 91205;
0128067340999992010010720004+46667+007867FM-12+057999999V0209999C000019999999N9999999N1-00361-00571101171ADDMA1999999094081MD1010041+9999OA149900211REMSYN076AAXX  07204 06734 33/// /0000 11036 21057 39408 40117 50004 333 91104 91203;
0128067340999992010010721004+46667+007867FM-12+057999999V0201801N000519999999N9999999N1-00371-00551101171ADDMA1999999094081MD1010011+9999OA149900311REMSYN076AAXX  07214 06734 33/// /1801 11037 21055 39408 40117 50001 333 91106 91205;
0128067340999992010010722004+46667+007867FM-12+057999999V0209999C000019999999N9999999N1-00321-00571101131ADDMA1999999094051MD1710041+9999OA149900151REMSYN076AAXX  07224 06734 33/// /0000 11032 21057 39405 40113 57004 333 91103 91202;
0128067340999992010010723004+46667+007867FM-12+057999999V0202101N001519999999N9999999N1-00281-00571101101ADDMA1999999094031MD1710051+9999OA149900211REMSYN076AAXX  07234 06734 33/// /2103 11028 21057 39403 40110 57005 333 91104 91203;
0128067340999992010010800004+46667+007867FM-12+057999999V0202101N001519999999N9999999N1-00281-00531101051ADDMA1999999093991MD1710091+9999OA149900311REMSYN076AAXX  08004 06734 33/// /2103 11028 21053 39399 40105 57009 333 91106 91205;
0128067340999992010010801004+46667+007867FM-12+057999999V0202201N000519999999N9999999N1-00281-00531101031ADDMA1999999093971MD1710081+9999OA149900211REMSYN076AAXX  08014 06734 33/// /2201 11028 21053 39397 40103 57008 333 91104 91203;
0128067340999992010010802004+46667+007867FM-12+057999999V0202301N001019999999N9999999N1-00311-00511101031ADDMA1999999093961MD1719999+9999OA149900211REMSYN076AAXX  08024 06734 33/// /2302 11031 21051 39396 40103 57/// 333 91104 91203;
0128067340999992010010803004+46667+007867FM-12+057999999V0202401N000519999999N9999999N1-00281-00481100991ADDMA1999999093931MD1719999+9999OA149900211REMSYN076AAXX  08034 06734 33/// /2401 11028 21048 39393 40099 57/// 333 91104 91203;
0128067340999992010010804004+46667+007867FM-12+057999999V0202801N001019999999N9999999N1-00281-00421100911ADDMA1999999093861MD1710111+9999OA149900151REMSYN076AAXX  08044 06734 33/// /2802 11028 21042 39386 40091 57011 333 91103 91202;
0128067340999992010010805004+46667+007867FM-12+057999999V0209999C000019999999N9999999N1-00311-00401100851ADDMA1999999093791MD1710171+9999OA149900151REMSYN076AAXX  08054 06734 33/// /0000 11031 21040 39379 40085 57017 333 91103 91202;
0207067340999992010010806004+46667+007867FM-12+057999999V0202101N001019999999N9999999N1-00291-00431100801ADDAA124000091AL19900091GJ100669KA1999N-00421MA1999999093751MD1610181+9999OA149900211REMSYN094AAXX  08064 06734 33/// /2102 11029 21043 39375 40080 56018 333 21042 55011 70000 91104 91203;EQDQ01  00002PRCP24
0128067340999992010010807004+46667+007867FM-12+057999999V0209999C000019999999N9999999N1-00321-00441100771ADDMA1999999093721MD1610141+9999OA149900211REMSYN076AAXX  08074 06734 33/// /0000 11032 21044 39372 40077 56014 333 91104 91203;
0128067340999992010010808004+46667+007867FM-12+057999999V0203101N000519999999N9999999N1-00321-00391100721ADDMA1999999093671MD1810121+9999OA149900151REMSYN076AAXX  08084 06734 33/// /3101 11032 21039 39367 40072 58012 333 91103 91202;
0128067340999992010010809004+46667+007867FM-12+057999999V0202301N001019999999N9999999N1-00201-00411100621ADDMA1999999093611MD1610141+9999OA149900261REMSYN076AAXX  08094 06734 33/// /2302 11020 21041 39361 40062 56014 333 91105 91203;
0128067340999992010010810004+46667+007867FM-12+057999999V0203601N000519999999N9999999N1-00171-00321100561ADDMA1999999093561MD1610161+9999OA149900261REMSYN076AAXX  08104 06734 33/// /3601 11017 21032 39356 40056 56016 333 91105 91203;
0128067340999992010010811004+46667+007867FM-12+057999999V0200701N001519999999N9999999N1-00111-00381100461ADDMA1999999093481MD1810191+9999OA149900361REMSYN076AAXX  08114 06734 33/// /0703 11011 21038 39348 40046 58019 333 91107 91203;
0128067340999992010010812004+46667+007867FM-12+057999999V0200501N003619999999N9999999N1-00151-00281100401ADDMA1999999093421MD1710191+9999OA149900461REMSYN076AAXX  08124 06734 33/// /0507 11015 21028 39342 40040 57019 333 91109 91207;
0128067340999992010010813004+46667+007867FM-12+057999999V0200601N004119999999N9999999N1-00121-00371100321ADDMA1999999093351MD1610211+9999OA149900571REMSYN076AAXX  08134 06734 33/// /0608 11012 21037 39335 40032 56021 333 91111 91208;
0128067340999992010010814004+46667+007867FM-12+057999999V0200501N004619999999N9999999N1-00111-00371100301ADDMA1999999093331MD1719999+9999OA149900671REMSYN076AAXX  08144 06734 33/// /0509 11011 21037 39333 40030 57/// 333 91113 91209;
0128067340999992010010815004+46667+007867FM-12+057999999V0200301N002619999999N9999999N1-00151-00411100361ADDMA1999999093381MD1510041+9999OA149900721REMSYN076AAXX  08154 06734 33/// /0305 11015 21041 39338 40036 55004 333 91114 91211;
0128067340999992010010816004+46667+007867FM-12+057999999V0202901N003619999999N9999999N1-00171-00461100431ADDMA1999999093441MD1210091+9999OA149900721REMSYN076AAXX  08164 06734 33/// /2907 11017 21046 39344 40043 52009 333 91114 91211;
0128067340999992010010817004+46667+007867FM-12+057999999V0203001N002619999999N9999999N1-00191-00451100491ADDMA1999999093491MD1119999+9999OA149900671REMSYN076AAXX  08174 06734 33/// /3005 11019 21045 39349 40049 51/// 333 91113 91208;
0147067340999992010010818004+46667+007867FM-12+057999999V0200701N001019999999N9999999N1-00211-00431100491ADDKA1120M-00101MA1999999093481MD1210101+9999OA149900721REMSYN082AAXX  08184 06734 33/// /0702 11021 21043 39348 40049 52010 333 11010 91114 91211;
0128067340999992010010819004+46667+007867FM-12+057999999V0202201N000519999999N9999999N1-00201-00401100461ADDMA1999999093461MD1010021+9999OA149900571REMSYN076AAXX  08194 06734 33/// /2201 11020 21040 39346 40046 50002 333 91111 91206;
0128067340999992010010820004+46667+007867FM-12+057999999V0200501N003119999999N9999999N1-00151-00461100451ADDMA1999999093461MD1710031+9999OA149900571REMSYN076AAXX  08204 06734 33/// /0506 11015 21046 39346 40045 57003 333 91111 91207;
0128067340999992010010821004+46667+007867FM-12+057999999V0200501N003619999999N9999999N1-00151-00461100451ADDMA1999999093461MD1510021+9999OA149900671REMSYN076AAXX  08214 06734 33/// /0507 11015 21046 39346 40045 55002 333 91113 91208;
0128067340999992010010822004+46667+007867FM-12+057999999V0200601N002619999999N9999999N1-00161-00441100471ADDMA1999999093481MD1210021+9999OA149900571REMSYN076AAXX  08224 06734 33/// /0605 11016 21044 39348 40047 52002 333 91111 91207;
0128067340999992010010823004+46667+007867FM-12+057999999V0200601N004119999999N9999999N1-00161-00451100491ADDMA1999999093501MD1210041+9999OA149900571REMSYN076AAXX  08234 06734 33/// /0608 11016 21045 39350 40049 52004 333 91111 91208;
0128067340999992010010900004+46667+007867FM-12+057999999V0200701N004619999999N9999999N1-00161-00471100441ADDMA1999999093451MD1810011+9999OA149900721REMSYN076AAXX  09004 06734 33/// /0709 11016 21047 39345 40044 58001 333 91114 91211;
0128067340999992010010901004+46667+007867FM-12+057999999V0200601N006219999999N9999999N1-00161-00471100441ADDMA1999999093451MD1810031+9999OA149900821REMSYN076AAXX  09014 06734 33/// /0612 11016 21047 39345 40044 58003 333 91116 91212;
0128067340999992010010902004+46667+007867FM-12+057999999V0200801N004619999999N9999999N1-00171-00491100491ADDMA1999999093491MD1519999+9999OA149900821REMSYN076AAXX  09024 06734 33/// /0809 11017 21049 39349 40049 55/// 333 91116 91212;
0128067340999992010010903004+46667+007867FM-12+057999999V0200801N003619999999N9999999N1-00171-00491100471ADDMA1999999093481MD1219999+9999OA149900821REMSYN076AAXX  09034 06734 33/// /0807 11017 21049 39348 40047 52/// 333 91116 91212;
0128067340999992010010904004+46667+007867FM-12+057999999V0200701N003119999999N9999999N1-00171-00521100431ADDMA1999999093441MD1810011+9999OA149900721REMSYN076AAXX  09044 06734 33/// /0706 11017 21052 39344 40043 58001 333 91114 91209;
0128067340999992010010905004+46667+007867FM-12+057999999V0200501N003119999999N9999999N1-00191-00531100411ADDMA1999999093411MD1610081+9999OA149900621REMSYN076AAXX  09054 06734 33/// /0506 11019 21053 39341 40041 56008 333 91112 91209;
0207067340999992010010906004+46667+007867FM-12+057999999V0200501N003619999999N9999999N1-00201-00521100331ADDAA124000091AL19900091GJ100009KA1999N-00221MA1999999093341MD1810141+9999OA149900821REMSYN094AAXX  09064 06734 33/// /0507 11020 21052 39334 40033 58014 333 21022 55000 70000 91116 91212;EQDQ01  00002PRCP24
0128067340999992010010907004+46667+007867FM-12+057999999V0200501N004619999999N9999999N1-00221-00541100351ADDMA1999999093351MD1710091+9999OA149900621REMSYN076AAXX  09074 06734 33/// /0509 11022 21054 39335 40035 57009 333 91112 91209;
0128067340999992010010908004+46667+007867FM-12+057999999V0200501N004119999999N9999999N1-00231-00551100361ADDMA1999999093361MD1510051+9999OA149900621REMSYN076AAXX  09084 06734 33/// /0508 11023 21055 39336 40036 55005 333 91112 91210;
0128067340999992010010909004+46667+007867FM-12+057999999V0209999C000019999999N9999999N1-00241-00521100411ADDMA1999999093401MD1210061+9999OA149900621REMSYN076AAXX  09094 06734 33/// /0000 11024 21052 39340 40041 52006 333 91112 91210;
0128067340999992010010910004+46667+007867FM-12+057999999V0202901N002619999999N9999999N1-00261-00541100411ADDMA1999999093401MD1210051+9999OA149900461REMSYN076AAXX  09104 06734 33/// /2905 11026 21054 39340 40041 52005 333 91109 91206;
0128067340999992010010911004+46667+007867FM-12+057999999V0203001N003619999999N9999999N1-00321-00601100401ADDMA1999999093371MD1010011+9999OA149900621REMSYN076AAXX  09114 06734 33/// /3007 11032 21060 39337 40040 50001 333 91112 91208;
0128067340999992010010912004+46667+007867FM-12+057999999V0203101N003119999999N9999999N1-00321-00601100391ADDMA1999999093361MD1710041+9999OA149900821REMSYN076AAXX  09124 06734 33/// /3106 11032 21060 39336 40039 57004 333 91116 91212;
0128067340999992010010913004+46667+007867FM-12+057999999V0202901N004119999999N9999999N1-00361-00601100371ADDMA1999999093331MD1710071+9999OA149900771REMSYN076AAXX  09134 06734 33/// /2908 11036 21060 39333 40037 57007 333 91115 91209;
0128067340999992010010914004+46667+007867FM-12+057999999V0202901N004619999999N9999999N1-00391-00621100431ADDMA1999999093381MD1310011+9999OA149900821REMSYN076AAXX  09144 06734 33/// /2909 11039 21062 39338 40043 53001 333 91116 91209;
0128067340999992010010915004+46667+007867FM-12+057999999V0202901N004119999999N9999999N1-00391-00631100451ADDMA1999999093401MD1210041+9999OA149900821REMSYN076AAXX  09154 06734 33/// /2908 11039 21063 39340 40045 52004 333 91116 91210;
0128067340999992010010916004+46667+007867FM-12+057999999V0203001N003619999999N9999999N1-00411-00611100451ADDMA1999999093401MD1210071+9999OA149900771REMSYN076AAXX  09164 06734 33/// /3007 11041 21061 39340 40045 52007 333 91115 91210;
0128067340999992010010917004+46667+007867FM-12+057999999V0203001N002119999999N9999999N1-00431-00621100491ADDMA1999999093431MD1210051+9999OA149900721REMSYN076AAXX  09174 06734 33/// /3004 11043 21062 39343 40049 52005 333 91114 91208;
0147067340999992010010918004+46667+007867FM-12+057999999V0203201N003619999999N9999999N1-00431-00661100521ADDKA1120M-00191MA1999999093461MD1310061+9999OA149900821REMSYN082AAXX  09184 06734 33/// /3207 11043 21066 39346 40052 53006 333 11019 91116 91210;
0128067340999992010010919004+46667+007867FM-12+057999999V0203001N003619999999N9999999N1-00421-00691100581ADDMA1999999093511MD1310111+9999OA149900621REMSYN076AAXX  09194 06734 33/// /3007 11042 21069 39351 40058 53011 333 91112 91207;
0128067340999992010010920004+46667+007867FM-12+057999999V0203001N002619999999N9999999N1-00431-00701100621ADDMA1999999093551MD1110121+9999OA149900571REMSYN076AAXX  09204 06734 33/// /3005 11043 21070 39355 40062 51012 333 91111 91207;
0128067340999992010010921004+46667+007867FM-12+057999999V0203001N003619999999N9999999N1-00441-00691100681ADDMA1999999093601MD1210141+9999OA149900721REMSYN076AAXX  09214 06734 33/// /3007 11044 21069 39360 40068 52014 333 91114 91208;
0128067340999992010010922004+46667+007867FM-12+057999999V0203101N002119999999N9999999N1-00421-00711100701ADDMA1999999093631MD1110121+9999OA149900671REMSYN076AAXX  09224 06734 33/// /3104 11042 21071 39363 40070 51012 333 91113 91208;
0128067340999992010010923004+46667+007867FM-12+057999999V0202701N001019999999N9999999N1-00411-00711100761ADDMA1999999093681MD1110131+9999OA149900571REMSYN076AAXX  09234 06734 33/// /2702 11041 21071 39368 40076 51013 333 91111 91208;
0128067340999992010011000004+46667+007867FM-12+057999999V0203001N002119999999N9999999N1-00401-00691100761ADDMA1999999093691MD1210091+9999OA149900821REMSYN076AAXX  10004 06734 33/// /3004 11040 21069 39369 40076 52009 333 91116 91210;
0128067340999992010011001004+46667+007867FM-12+057999999V0202901N003119999999N9999999N1-00411-00691100811ADDMA1999999093731MD1210101+9999OA149900461REMSYN076AAXX  10014 06734 33/// /2906 11041 21069 39373 40081 52010 333 91109 91206;
0087067340999992010011002004+46667+007867FM-12+057999999V0202801N002119999999N9999999N1-00411-00681100881ADDMA1999999093801REMSYN060AAXX  10024 06734 33/// /2804 11041 21068 39380 40088 5////;
0087067340999992010011003004+46667+007867FM-12+057999999V0202801N002619999999N9999999N1-00411-00681100931ADDMA1999999093841REMSYN060AAXX  10034 06734 43/// /2805 11041 21068 39384 40093 5////;
0128067340999992010011004004+46667+007867FM-12+057999999V0202701N001019999999N9999999N1-00401-00661100981ADDMA1999999093891MD1110161+9999OA149900511REMSYN076AAXX  10044 06734 33/// /2702 11040 21066 39389 40098 51016 333 91110 91206;
0128067340999992010011005004+46667+007867FM-12+057999999V0202801N003619999999N9999999N1-00411-00691101021ADDMA1999999093931MD1110131+9999OA149900511REMSYN076AAXX  10054 06734 33/// /2807 11041 21069 39393 40102 51013 333 91110 91207;
0207067340999992010011006004+46667+007867FM-12+057999999V0202801N003619999999N9999999N1-00391-00661101051ADDAA124000091AL19900091GJ100009KA1999N-00441MA1999999093961MD1110121+9999OA149900671REMSYN094AAXX  10064 06734 33/// /2807 11039 21066 39396 40105 51012 333 21044 55000 70000 91113 91208;EQDQ01  00002PRCP24
0128067340999992010011007004+46667+007867FM-12+057999999V0202801N001519999999N9999999N1-00381-00671101161ADDMA1999999094061MD1310171+9999OA149900511REMSYN076AAXX  10074 06734 33/// /2803 11038 21067 39406 40116 53017 333 91110 91207;
0128067340999992010011008004+46667+007867FM-12+057999999V0202901N001519999999N9999999N1-00391-00691101231ADDMA1999999094131MD1319999+9999OA149900461REMSYN076AAXX  10084 06734 33/// /2903 11039 21069 39413 40123 53/// 333 91109 91205;
0128067340999992010011009004+46667+007867FM-12+057999999V0202901N002619999999N9999999N1-00391-00691101311ADDMA1999999094201MD1110241+9999OA149900511REMSYN076AAXX  10094 06734 33/// /2905 11039 21069 39420 40131 51024 333 91110 91207;
0128067340999992010011010004+46667+007867FM-12+057999999V0203001N004119999999N9999999N1-00381-00711101371ADDMA1999999094261MD1110201+9999OA149900721REMSYN076AAXX  10104 06734 33/// /3008 11038 21071 39426 40137 51020 333 91114 91209;
0128067340999992010011011004+46667+007867FM-12+057999999V0203101N003619999999N9999999N1-00361-00611101401ADDMA1999999094291MD1110161+9999OA149900721REMSYN076AAXX  10114 06734 33/// /3107 11036 21061 39429 40140 51016 333 91114 91209;
0128067340999992010011012004+46667+007867FM-12+057999999V0203101N003119999999N9999999N1-00351-00601101421ADDMA1999999094311MD1210111+9999OA149900721REMSYN076AAXX  10124 06734 33/// /3106 11035 21060 39431 40142 52011 333 91114 91209;
0128067340999992010011013004+46667+007867FM-12+057999999V0203101N003619999999N9999999N1-00321-00641101441ADDMA1999999094341MD1210081+9999OA149900671REMSYN076AAXX  10134 06734 33/// /3107 11032 21064 39434 40144 52008 333 91113 91208;
0128067340999992010011014004+46667+007867FM-12+057999999V0203001N003119999999N9999999N1-00291-00681101481ADDMA1999999094381MD1219999+9999OA149900671REMSYN076AAXX  10144 06734 33/// /3006 11029 21068 39438 40148 52/// 333 91113 91208;
0128067340999992010011015004+46667+007867FM-12+057999999V0202901N002119999999N9999999N1-00281-00691101531ADDMA1999999094431MD1110121+9999OA149900721REMSYN076AAXX  10154 06734 33/// /2904 11028 21069 39443 40153 51012 333 91114 91209;
0128067340999992010011016004+46667+007867FM-12+057999999V0209999C000019999999N9999999N1-00281-00661101571ADDMA1999999094471MD1310131+9999OA149900511REMSYN076AAXX  10164 06734 33/// /0000 11028 21066 39447 40157 53013 333 91110 91206;
0128067340999992010011017004+46667+007867FM-12+057999999V0209999C000019999999N9999999N1-00291-00681101601ADDMA1999999094501MD1110121+9999OA149900411REMSYN076AAXX  10174 06734 33/// /0000 11029 21068 39450 40160 51012 333 91108 91205;
0147067340999992010011018004+46667+007867FM-12+057999999V0202801N000519999999N9999999N1-00321-00651101651ADDKA1120M-00271MA1999999094531MD1110101+9999OA149900721REMSYN082AAXX  10184 06734 33/// /2801 11032 21065 39453 40165 51010 333 11027 91114 91209;
0128067340999992010011019004+46667+007867FM-12+057999999V0202201N002119999999N9999999N1-00341-00671101661ADDMA1999999094541MD1210071+9999OA149900261REMSYN076AAXX  10194 06734 33/// /2204 11034 21067 39454 40166 52007 333 91105 91204;
0128067340999992010011020004+46667+007867FM-12+057999999V0202301N003119999999N9999999N1-00401-00791101701ADDMA1999999094561MD1210061+9999OA149900411REMSYN076AAXX  10204 06734 33/// /2306 11040 21079 39456 40170 52006 333 91108 91206;
0128067340999992010011021004+46667+007867FM-12+057999999V0202001N004119999999N9999999N1-00391-00811101691ADDMA1999999094551MD1010021+9999OA149900621REMSYN076AAXX  10214 06734 33/// /2008 11039 21081 39455 40169 50002 333 91112 91208;
0128067340999992010011022004+46667+007867FM-12+057999999V0202001N004119999999N9999999N1-00491-00861101691ADDMA1999999094531MD1810011+9999OA149900621REMSYN076AAXX  10224 06734 33/// /2008 11049 21086 39453 40169 58001 333 91112 91208;
0128067340999992010011023004+46667+007867FM-12+057999999V0202101N002619999999N9999999N1-00491-00851101711ADDMA1999999094551MD1710011+9999OA149900511REMSYN076AAXX  10234 06734 33/// /2105 11049 21085 39455 40171 57001 333 91110 91208;
0128067340999992010011100004+46667+007867FM-12+057999999V0202001N004119999999N9999999N1-00531-00891101741ADDMA1999999094561MD1310011+9999OA149900671REMSYN076AAXX  11004 06734 33/// /2008 11053 21089 39456 40174 53001 333 91113 91209;
0128067340999992010011101004+46667+007867FM-12+057999999V0202201N001519999999N9999999N1-00521-00841101791ADDMA1999999094611MD1310081+9999OA149900511REMSYN076AAXX  11014 06734 33/// /2203 11052 21084 39461 40179 53008 333 91110 91209;
0128067340999992010011102004+46667+007867FM-12+057999999V0202101N003119999999N9999999N1-00511-00881101811ADDMA1999999094631MD1219999+9999OA149900461REMSYN076AAXX  11024 06734 33/// /2106 11051 21088 39463 40181 52/// 333 91109 91207;
0128067340999992010011103004+46667+007867FM-12+057999999V0202001N002619999999N9999999N1-00521-00881101771ADDMA1999999094591MD1019999+9999OA149900511REMSYN076AAXX  11034 06734 33/// /2005 11052 21088 39459 40177 50/// 333 91110 91209;
0128067340999992010011104004+46667+007867FM-12+057999999V0202001N004119999999N9999999N1-00631-00941101801ADDMA1999999094591MD1710021+9999OA149900571REMSYN076AAXX  11044 06734 33/// /2008 11063 21094 39459 40180 57002 333 91111 91209;
0128067340999992010011105004+46667+007867FM-12+057999999V0202301N002119999999N9999999N1-00591-00911101771ADDMA1999999094581MD1710051+9999OA149900571REMSYN076AAXX  11054 06734 33/// /2304 11059 21091 39458 40177 57005 333 91111 91209;
0207067340999992010011106004+46667+007867FM-12+057999999V0201901N002619999999N9999999N1-00611-00901101771ADDAA124000091AL19900091GJ100009KA1999N-00631MA1999999094571MD1710021+9999OA149900621REMSYN094AAXX  11064 06734 33/// /1905 11061 21090 39457 40177 57002 333 21063 55000 70000 91112 91209;EQDQ01  00002PRCP24
0128067340999992010011107004+46667+007867FM-12+057999999V0201801N002619999999N9999999N1-00611-00901101761ADDMA1999999094561MD1710031+9999OA149900571REMSYN076AAXX  11074 06734 33/// /1805 11061 21090 39456 40176 57003 333 91111 91209;
0128067340999992010011108004+46667+007867FM-12+057999999V0202201N002619999999N9999999N1-00601-00911101761ADDMA1999999094561MD1719999+9999OA149900571REMSYN076AAXX  11084 06734 33/// /2205 11060 21091 39456 40176 57/// 333 91111 91209;
0128067340999992010011109004+46667+007867FM-12+057999999V0202301N002119999999N9999999N1-00591-00871101801ADDMA1999999094601MD1210031+9999OA149900571REMSYN076AAXX  11094 06734 33/// /2304 11059 21087 39460 40180 52003 333 91111 91209;
0128067340999992010011110004+46667+007867FM-12+057999999V0202601N001019999999N9999999N1-00461-00781101801ADDMA1999999094641MD1319999+9999OA149900411REMSYN076AAXX  11104 06734 33/// /2602 11046 21078 39464 40180 53/// 333 91108 91207;
0128067340999992010011111004+46667+007867FM-12+057999999V0203001N001519999999N9999999N1-00331-00641101791ADDMA1999999094661MD1110101+9999OA149900361REMSYN076AAXX  11114 06734 33/// /3003 11033 21064 39466 40179 51010 333 91107 91204;
0128067340999992010011112004+46667+007867FM-12+057999999V0203001N001519999999N9999999N1-00311-00631101751ADDMA1999999094631MD1010031+9999OA149900571REMSYN076AAXX  11124 06734 33/// /3003 11031 21063 39463 40175 50003 333 91111 91209;
0128067340999992010011113004+46667+007867FM-12+057999999V0200701N001019999999N9999999N1-00321-00631101701ADDMA1999999094581MD1810061+9999OA149900511REMSYN076AAXX  11134 06734 33/// /0702 11032 21063 39458 40170 58006 333 91110 91205;
0087067340999992010011114004+46667+007867FM-12+057999999V0202201N000519999999N9999999N1-00301-00611101741ADDMA1999999094621REMSYN060AAXX  11144 06734 33/// /2201 11030 21061 39462 40174 5////;
0128067340999992010011115004+46667+007867FM-12+057999999V0200901N001019999999N9999999N1-00301-00601101771ADDMA1999999094651MD1310021+9999OA149900511REMSYN076AAXX  11154 06734 33/// /0902 11030 21060 39465 40177 53002 333 91110 91205;
0128067340999992010011116004+46667+007867FM-12+057999999V0209999C000019999999N9999999N1-00301-00601101801ADDMA1999999094681MD1110101+9999OA149900151REMSYN076AAXX  11164 06734 33/// /0000 11030 21060 39468 40180 51010 333 91103 91202;
0128067340999992010011117004+46667+007867FM-12+057999999V0202101N001519999999N9999999N1-00331-00601101831ADDMA1999999094701MD1110081+9999OA149900211REMSYN076AAXX  11174 06734 33/// /2103 11033 21060 39470 40183 51008 333 91104 91203;
0147067340999992010011118004+46667+007867FM-12+057999999V0202101N001019999999N9999999N1-00371-00621101861ADDKA1120M-00291MA1999999094721MD1110071+9999OA149900571REMSYN082AAXX  11184 06734 33/// /2102 11037 21062 39472 40186 51007 333 11029 91111 91209;
0128067340999992010011119004+46667+007867FM-12+057999999V0209999C000019999999N9999999N1-00361-00621101881ADDMA1999999094741MD1310061+9999OA149900261REMSYN076AAXX  11194 06734 33/// /0000 11036 21062 39474 40188 53006 333 91105 91204;
0128067340999992010011120004+46667+007867FM-12+057999999V0202301N000519999999N9999999N1-00371-00591101901ADDMA1999999094751MD1210051+9999OA149900261REMSYN076AAXX  11204 06734 33/// /2301 11037 21059 39475 40190 52005 333 91105 91204;
0128067340999992010011121004+46667+007867FM-12+057999999V0202201N000519999999N9999999N1-00331-00611101921ADDMA1999999094781MD1210061+9999OA149900261REMSYN076AAXX  11214 06734 33/// /2201 11033 21061 39478 40192 52006 333 91105 91204;
0128067340999992010011122004+46667+007867FM-12+057999999V0202101N001019999999N9999999N1-00341-00591101901ADDMA1999999094761MD1010021+9999OA149900211REMSYN076AAXX  11224 06734 33/// /2102 11034 21059 39476 40190 50002 333 91104 91203;
0128067340999992010011123004+46667+007867FM-12+057999999V0202201N001519999999N9999999N1-00321-00581101911ADDMA1999999094781MD1210031+9999OA149900211REMSYN076AAXX  11234 06734 33/// /2203 11032 21058 39478 40191 52003 333 91104 91203;
0128067340999992010011200004+46667+007867FM-12+057999999V0202401N000519999999N9999999N1-00311-00551101891ADDMA1999999094761MD1810021+9999OA149900361REMSYN076AAXX  12004 06734 33/// /2401 11031 21055 39476 40189 58002 333 91107 91204;
0128067340999992010011201004+46667+007867FM-12+057999999V0203201N001019999999N9999999N1-00261-00501101891ADDMA1999999094771MD1010011+9999OA149900261REMSYN076AAXX  12014 06734 33/// /3202 11026 21050 39477 40189 50001 333 91105 91203;
0128067340999992010011202004+46667+007867FM-12+057999999V0202901N002619999999N9999999N1-00271-00531101891ADDMA1999999094771MD1019999+9999OA149900411REMSYN076AAXX  12024 06734 33/// /2905 11027 21053 39477 40189 50/// 333 91108 91205;
0128067340999992010011203004+46667+007867FM-12+057999999V0201701N000519999999N9999999N1-00261-00491101851ADDMA1999999094741MD1710021+9999OA149900411REMSYN076AAXX  12034 06734 33/// /1701 11026 21049 39474 40185 57002 333 91108 91206;
0128067340999992010011204004+46667+007867FM-12+057999999V0209999C000019999999N9999999N1-00261-00501101831ADDMA1999999094721MD1710051+9999OA149900411REMSYN076AAXX  12044 06734 33/// /0000 11026 21050 39472 40183 57005 333 91108 91206;
0128067340999992010011205004+46667+007867FM-12+057999999V0202201N000519999999N9999999N1-00261-00471101831ADDMA1999999094721MD1710051+9999OA149900261REMSYN076AAXX  12054 06734 33/// /2201 11026 21047 39472 40183 57005 333 91105 91203;
0207067340999992010011206004+46667+007867FM-12+057999999V0202001N001519999999N9999999N1-00281-00481101781ADDAA124000091AL19900091GJ100009KA1999N-00381MA1999999094671MD1710071+9999OA149900411REMSYN094AAXX  12064 06734 33/// /2003 11028 21048 39467 40178 57007 333 21038 55000 70000 91108 91206;EQDQ01  00002PRCP24
0128067340999992010011207004+46667+007867FM-12+057999999V0202101N001519999999N9999999N1-00301-00481101751ADDMA1999999094631MD1710091+9999OA149900211REMSYN076AAXX  12074 06734 33/// /2103 11030 21048 39463 40175 57009 333 91104 91203;
0128067340999992010011208004+46667+007867FM-12+057999999V0202101N003119999999N9999999N1-00321-00531101701ADDMA1999999094581MD1819999+9999OA149900461REMSYN076AAXX  12084 06734 33/// /2106 11032 21053 39458 40170 58/// 333 91109 91206;
0128067340999992010011209004+46667+007867FM-12+057999999V0202101N003119999999N9999999N1-00331-00551101641ADDMA1999999094521MD1810151+9999OA149900461REMSYN076AAXX  12094 06734 33/// /2106 11033 21055 39452 40164 58015 333 91109 91206;
0128067340999992010011210004+46667+007867FM-12+057999999V0202401N001519999999N9999999N1-00251-00531101531ADDMA1999999094441MD1610191+9999OA149900461REMSYN076AAXX  12104 06734 33/// /2403 11025 21053 39444 40153 56019 333 91109 91206;
0128067340999992010011211004+46667+007867FM-12+057999999V0202901N001519999999N9999999N1-00151-00411101431ADDMA1999999094371MD1810211+9999OA149900361REMSYN076AAXX  12114 06734 33/// /2903 11015 21041 39437 40143 58021 333 91107 91205;
0128067340999992010011212004+46667+007867FM-12+057999999V0202901N002119999999N9999999N1-00171-00421101381ADDMA1999999094321MD1610201+9999OA149900461REMSYN076AAXX  12124 06734 33/// /2904 11017 21042 39432 40138 56020 333 91109 91206;
0128067340999992010011213004+46667+007867FM-12+057999999V0200301N001519999999N9999999N1-00151-00421101301ADDMA1999999094251MD1610191+9999OA149900411REMSYN076AAXX  12134 06734 33/// /0303 11015 21042 39425 40130 56019 333 91108 91205;
0087067340999992010011214004+46667+007867FM-12+057999999V0209999C000019999999N9999999N1-00151-00421101181ADDMA1999999094141REMSYN060AAXX  12144 06734 33/// /0000 11015 21042 39414 40118 5////;
0128067340999992010011215004+46667+007867FM-12+057999999V0202001N001519999999N9999999N1-00151-00411101111ADDMA1999999094081MD1810241+9999OA149900411REMSYN076AAXX  12154 06734 33/// /2003 11015 21041 39408 40111 58024 333 91108 91205;
0128067340999992010011216004+46667+007867FM-12+057999999V0202001N002119999999N9999999N1-00191-00451101031ADDMA1999999093991MD1610261+9999OA149900311REMSYN076AAXX  12164 06734 33/// /2004 11019 21045 39399 40103 56026 333 91106 91204;
0128067340999992010011217004+46667+007867FM-12+057999999V0202101N002619999999N9999999N1-00271-00511101011ADDMA1999999093951MD1610191+9999OA149900311REMSYN076AAXX  12174 06734 33/// /2105 11027 21051 39395 40101 56019 333 91106 91205;
0147067340999992010011218004+46667+007867FM-12+057999999V0202001N003119999999N9999999N1-00301-00531100991ADDKA1120M-00141MA1999999093931MD1610151+9999OA149900461REMSYN082AAXX  12184 06734 33/// /2006 11030 21053 39393 40099 56015 333 11014 91109 91207;
0128067340999992010011219004+46667+007867FM-12+057999999V0202001N004119999999N9999999N1-00391-00621100971ADDMA1999999093881MD1710111+9999OA149900511REMSYN076AAXX  12194 06734 33/// /2008 11039 21062 39388 40097 57011 333 91110 91208;
0128067340999992010011220004+46667+007867FM-12+057999999V0202101N003119999999N9999999N1-00451-00641100931ADDMA1999999093831MD1710121+9999OA149900511REMSYN076AAXX  12204 06734 33/// /2106 11045 21064 39383 40093 57012 333 91110 91208;
0128067340999992010011221004+46667+007867FM-12+057999999V0202501N002619999999N9999999N1-00501-00681100871ADDMA1999999093761MD1710171+9999OA149900511REMSYN076AAXX  12214 06734 33/// /2505 11050 21068 39376 40087 57017 333 91110 91208;
0128067340999992010011222004+46667+007867FM-12+057999999V0202001N001019999999N9999999N1-00491-00651100801ADDMA1999999093701MD1710181+9999OA149900461REMSYN076AAXX  12224 06734 33/// /2002 11049 21065 39370 40080 57018 333 91109 91207;
0128067340999992010011223004+46667+007867FM-12+057999999V0202201N001519999999N9999999N1-00421-00591100791ADDMA1999999093711MD1710121+9999OA149900511REMSYN076AAXX  12234 06734 33/// /2203 11042 21059 39371 40079 57012 333 91110 91204;
0128067340999992010011300004+46667+007867FM-12+057999999V0202901N005719999999N9999999N1-00281-00461100871ADDMA1999999093821MD1310061+9999OA149901081REMSYN076AAXX  13004 06734 33/// /2911 11028 21046 39382 40087 53006 333 91121 91213;
0128067340999992010011301004+46667+007867FM-12+057999999V0202601N000519999999N9999999N1-00281-00471100901ADDMA1999999093851MD1210151+9999OA149901081REMSYN076AAXX  13014 06734 33/// /2601 11028 21047 39385 40090 52015 333 91121 91213;
0128067340999992010011302004+46667+007867FM-12+057999999V0200701N001519999999N9999999N1-00291-00451100781ADDMA1999999093731MD1019999+9999OA149900931REMSYN076AAXX  13024 06734 33/// /0703 11029 21045 39373 40078 50/// 333 91118 91211;
0128067340999992010011303004+46667+007867FM-12+057999999V0202101N000519999999N9999999N1-00231-00421100671ADDMA1999999093651MD1719999+9999OA149901081REMSYN076AAXX  13034 06734 33/// /2101 11023 21042 39365 40067 57/// 333 91121 91213;
0128067340999992010011304004+46667+007867FM-12+057999999V0209999C000019999999N9999999N1-00221-00391100641ADDMA1999999093621MD1610231+9999OA149900211REMSYN076AAXX  13044 06734 33/// /0000 11022 21039 39362 40064 56023 333 91104 91202;
0128067340999992010011305004+46667+007867FM-12+057999999V0203001N000519999999N9999999N1-00201-00371100621ADDMA1999999093611MD1710121+9999OA149900151REMSYN076AAXX  13054 06734 33/// /3001 11020 21037 39361 40062 57012 333 91103 91202;
0207067340999992010011306004+46667+007867FM-12+057999999V0202901N001519999999N9999999N1-00131-00311100681ADDAA124000091AL19900091GJ100009KA1999N-00541MA1999999093681MD1310031+9999OA149901081REMSYN094AAXX  13064 06734 33/// /2903 11013 21031 39368 40068 53003 333 21054 55000 70000 91121 91213;EQDQ01  00002PRCP24
0128067340999992010011307004+46667+007867FM-12+057999999V0202901N001019999999N9999999N1-00141-00331100761ADDMA1999999093751MD1210131+9999OA149900621REMSYN076AAXX  13074 06734 33/// /2902 11014 21033 39375 40076 52013 333 91112 91205;
0128067340999992010011308004+46667+007867FM-12+057999999V0200101N000519999999N9999999N1-00131-00341100821ADDMA1999999093811MD1110201+9999OA149900621REMSYN076AAXX  13084 06734 33/// /0101 11013 21034 39381 40082 51020 333 91112 91205;
0128067340999992010011309004+46667+007867FM-12+057999999V0201001N000519999999N9999999N1-00101-00311100901ADDMA1999999093891MD1310211+9999OA149900621REMSYN076AAXX  13094 06734 33/// /1001 11010 21031 39389 40090 53021 333 91112 91205;
0128067340999992010011310004+46667+007867FM-12+057999999V0209999C000019999999N9999999N1-00051-00281100921ADDMA1999999093921MD1110171+9999OA149900101REMSYN076AAXX  13104 06734 33/// /0000 11005 21028 39392 40092 51017 333 91102 91201;
0128067340999992010011311004+46667+007867FM-12+057999999V0209999C000019999999N9999999N1+00011-00201100901ADDMA1999999093921MD1210111+9999OA149900151REMSYN076AAXX  13114 06734 33/// /0000 10001 21020 39392 40090 52011 333 91103 91202;
0163067340999992010011312004+46667+007867FM-12+057999999V0200201N000519999999N9999999N1+00101-00081100841ADDMA1999999093891MD1710061+9999OA149900931REMSYN076AAXX  13124 06734 33/// /0201 10010 21008 39389 40084 58000 333 91118 91211;EQDQ01+000082APCTENQ02+000002APC3  
0128067340999992010011313004+46667+007867FM-12+057999999V0203301N000519999999N9999999N1+00111-00081100841ADDMA1999999093891MD1710031+9999OA149900211REMSYN076AAXX  13134 06734 33/// /3301 10011 21008 39389 40084 57003 333 91104 91203;
0128067340999992010011314004+46667+007867FM-12+057999999V0203001N003119999999N9999999N1+00091-00101100901ADDMA1999999093941MD1319999+9999OA149900511REMSYN076AAXX  13144 06734 33/// /3006 10009 21010 39394 40090 53/// 333 91110 91206;
0128067340999992010011315004+46667+007867FM-12+057999999V0200701N000519999999N9999999N1+00071-00091100951ADDMA1999999093981MD1210091+9999OA149900511REMSYN076AAXX  13154 06734 33/// /0701 10007 21009 39398 40095 52009 333 91110 91206;
0128067340999992010011316004+46667+007867FM-12+057999999V0200701N000519999999N9999999N1+00021-00051100991ADDMA1999999094011MD1110121+9999OA149900461REMSYN076AAXX  13164 06734 33/// /0701 10002 21005 39401 40099 51012 333 91109 91205;
0145067340999992010011317004+46667+007867FM-12+057999999V0201501N000519999999N9999999N1+00021-00021101061ADDAA101000591MA1999999094071MD1310131+9999OA149900101REMSYN082AAXX  13174 06734 23/// /1501 10002 21002 39407 40106 53013 333 69945 91102 91202;
0170067340999992010011318004+46667+007867FM-12+057999999V0209999C000019999999N9999999N1+00011-00011101101ADDAA112001091KA1120M+00131MA1999999094111MD1110131+9999OA149900621REMSYN094AAXX  13184 06734 03/// /0000 10001 21001 39411 40110 51013 60012 333 10013 69965 91112 91206;
0145067340999992010011319004+46667+007867FM-12+057999999V0209999C000019999999N9999999N1+00021+00011101111ADDAA101000391MA1999999094121MD1210111+9999OA149900051REMSYN082AAXX  13194 06734 23/// /0000 10002 20001 39412 40111 52011 333 69935 91101 91200;
0145067340999992010011320004+46667+007867FM-12+057999999V0209999C000019999999N9999999N1+00051+00041101101ADDAA101000021MA1999999094121MD1210051+9999OA149900001REMSYN082AAXX  13204 06734 23/// /0000 10005 20004 39412 40110 52005 333 69915 91100 91200;
0128067340999992010011321004+46667+007867FM-12+057999999V0201801N001019999999N9999999N1+00041+00021101061ADDMA1999999094081MD1810031+9999OA149900211REMSYN076AAXX  13214 06734 33/// /1802 10004 20002 39408 40106 58003 333 91104 91203;
0128067340999992010011322004+46667+007867FM-12+057999999V0201801N000519999999N9999999N1-00011-00041101051ADDMA1999999094061MD1710061+9999OA149900211REMSYN076AAXX  13224 06734 33/// /1801 11001 21004 39406 40105 57006 333 91104 91203;
0128067340999992010011323004+46667+007867FM-12+057999999V0209999C000019999999N9999999N1-00151-00161101031ADDMA1999999094001MD1710121+9999OA149900151REMSYN076AAXX  13234 06734 33/// /0000 11015 21016 39400 40103 57012 333 91103 91202;
0151067340999992010011400004+46667+007867FM-12+057999999V0202301N001019999999N9999999N1-00091-00091100991ADDAA106000591MA1999999093981MD1710101+9999OA149900511REMSYN088AAXX  14004 06734 03/// /2302 11009 21009 39398 40099 57010 69941 333 60005 91110 91206;
0128067340999992010011401004+46667+007867FM-12+057999999V0202001N001519999999N9999999N1-00101-00101100941ADDMA1999999093931MD1710131+9999OA149900261REMSYN076AAXX  14014 06734 33/// /2003 11010 21010 39393 40094 57013 333 91105 91203;
0128067340999992010011402004+46667+007867FM-12+057999999V0202001N002119999999N9999999N1-00061-00061100901ADDMA1999999093901MD1719999+9999OA149900361REMSYN076AAXX  14024 06734 33/// /2004 11006 21006 39390 40090 57/// 333 91107 91204;
0087067340999992010011403004+46667+007867FM-12+057999999V0202201N003119999999N9999999N1-00121-00161100901ADDMA1999999093891REMSYN060AAXX  14034 06734 33/// /2206 11012 21016 39389 40090 5////;
0128067340999992010011404004+46667+007867FM-12+057999999V0202101N001519999999N9999999N1-00281-00361100941ADDMA1999999093881MD1710051+9999OA149900411REMSYN076AAXX  14044 06734 33/// /2103 11028 21036 39388 40094 57005 333 91108 91206;
0128067340999992010011405004+46667+007867FM-12+057999999V0202001N002119999999N9999999N1-00141-00271100841ADDMA1999999093831MD1810071+9999OA149900361REMSYN076AAXX  14054 06734 33/// /2004 11014 21027 39383 40084 58007 333 91107 91206;
0211067340999992010011406004+46667+007867FM-12+057999999V0202101N002619999999N9999999N1-00131-00291100811ADDAA112000591AA224001591AL12400191GJ100009KA1999N-00321MA1999999093801MD1810091+9999OA149900411REMSYN106AAXX  14064 06734 03/// /2105 11013 21029 39380 40081 58009 69942 333 21032 55000 60005 70014 91108 91206;
0128067340999992010011407004+46667+007867FM-12+057999999V0201901N002619999999N9999999N1-00191-00371100801ADDMA1999999093781MD1610101+9999OA149900571REMSYN076AAXX  14074 06734 33/// /1905 11019 21037 39378 40080 56010 333 91111 91207;
0128067340999992010011408004+46667+007867FM-12+057999999V0202101N003619999999N9999999N1-00191-00401100781ADDMA1999999093761MD1619999+9999OA149900571REMSYN076AAXX  14084 06734 33/// /2107 11019 21040 39376 40078 56/// 333 91111 91207;
0128067340999992010011409004+46667+007867FM-12+057999999V0201901N002119999999N9999999N1-00231-00441100781ADDMA1999999093751MD1810051+9999OA149900571REMSYN076AAXX  14094 06734 33/// /1904 11023 21044 39375 40078 58005 333 91111 91207;
0128067340999992010011410004+46667+007867FM-12+057999999V0201201N000519999999N9999999N1-00111-00351100711ADDMA1999999093711MD1710071+9999OA149900461REMSYN076AAXX  14104 06734 33/// /1201 11011 21035 39371 40071 57007 333 91109 91206;
0128067340999992010011411004+46667+007867FM-12+057999999V0200801N000519999999N9999999N1-00011-00111100601ADDMA1999999093641MD1710121+9999OA149900261REMSYN076AAXX  14114 06734 33/// /0801 11001 21011 39364 40060 57012 333 91105 91203;
0128067340999992010011412004+46667+007867FM-12+057999999V0209999C000019999999N9999999N1+00061-00071100531ADDMA1999999093591MD1710161+9999OA149900571REMSYN076AAXX  14124 06734 33/// /0000 10006 21007 39359 40053 57016 333 91111 91207;
0128067340999992010011413004+46667+007867FM-12+057999999V0202901N005719999999N9999999N1+00121-00111100531ADDMA1999999093601MD1710111+9999OA149900931REMSYN076AAXX  14134 06734 33/// /2911 10012 21011 39360 40053 57011 333 91118 91211;
0128067340999992010011414004+46667+007867FM-12+057999999V0202801N003119999999N9999999N1+00131-00141100581ADDMA1999999093651MD1310011+9999OA149901031REMSYN076AAXX  14144 06734 33/// /2806 10013 21014 39365 40058 53001 333 91120 91211;
0128067340999992010011415004+46667+007867FM-12+057999999V0203201N001019999999N9999999N1+00141-00121100581ADDMA1999999093661MD1210071+9999OA149901031REMSYN076AAXX  14154 06734 33/// /3202 10014 21012 39366 40058 52007 333 91120 91211;
0128067340999992010011416004+46667+007867FM-12+057999999V0202701N000519999999N9999999N1+00051-00141100611ADDMA1999999093661MD1210061+9999OA149900461REMSYN076AAXX  14164 06734 33/// /2701 10005 21014 39366 40061 52006 333 91109 91206;
0128067340999992010011417004+46667+007867FM-12+057999999V0202101N000519999999N9999999N1-00011-00151100671ADDMA1999999093701MD1210051+9999OA149900101REMSYN076AAXX  14174 06734 33/// /2101 11001 21015 39370 40067 52005 333 91102 91201;
0147067340999992010011418004+46667+007867FM-12+057999999V0202201N001019999999N9999999N1-00051-00191100761ADDKA1120M+00151MA1999999093781MD1210121+9999OA149901031REMSYN082AAXX  14184 06734 33/// /2202 11005 21019 39378 40076 52012 333 10015 91120 91211;
0128067340999992010011419004+46667+007867FM-12+057999999V0202701N002119999999N9999999N1-00051-00211100901ADDMA1999999093911MD1310251+9999OA149900571REMSYN076AAXX  14194 06734 33/// /2704 11005 21021 39391 40090 53025 333 91111 91205;
0128067340999992010011420004+46667+007867FM-12+057999999V0202001N001019999999N9999999N1+00011-00151101001ADDMA1999999094011MD1310311+9999OA149900571REMSYN076AAXX  14204 06734 33/// /2002 10001 21015 39401 40100 53031 333 91111 91205;
0128067340999992010011421004+46667+007867FM-12+057999999V0202201N001519999999N9999999N1+00001-00121101101ADDMA1999999094101MD1110321+9999OA149900571REMSYN076AAXX  14214 06734 33/// /2203 10000 21012 39410 40110 51032 333 91111 91205;
0128067340999992010011422004+46667+007867FM-12+057999999V0202201N001019999999N9999999N1+00011-00101101211ADDMA1999999094211MD1210301+9999OA149900151REMSYN076AAXX  14224 06734 33/// /2202 10001 21010 39421 40121 52030 333 91103 91203;
0128067340999992010011423004+46667+007867FM-12+057999999V0209999C000019999999N9999999N1+00021-00121101281ADDMA1999999094281MD1110271+9999OA149900151REMSYN076AAXX  14234 06734 33/// /0000 10002 21012 39428 40128 51027 333 91103 91202;
0128067340999992010011500004+46667+007867FM-12+057999999V0202101N002119999999N9999999N1+00051-00121101351ADDMA1999999094351MD1110251+9999OA149901031REMSYN076AAXX  15004 06734 33/// /2104 10005 21012 39435 40135 51025 333 91120 91211;
0128067340999992010011501004+46667+007867FM-12+057999999V0202001N003619999999N9999999N1+00031-00171101401ADDMA1999999094391MD1110181+9999OA149900461REMSYN076AAXX  15014 06734 33/// /2007 10003 21017 39439 40140 51018 333 91109 91207;
0128067340999992010011502004+46667+007867FM-12+057999999V0202201N001519999999N9999999N1-00041-00201101521ADDMA1999999094491MD1310211+9999OA149900461REMSYN076AAXX  15024 06734 33/// /2203 11004 21020 39449 40152 53021 333 91109 91207;
0087067340999992010011503004+46667+007867FM-12+057999999V0202001N003619999999N9999999N1-00091-00291101641ADDMA1999999094581REMSYN060AAXX  15034 06734 33/// /2007 11009 21029 39458 40164 5////;
0128067340999992010011504004+46667+007867FM-12+057999999V0202301N002119999999N9999999N1-00111-00301101721ADDMA1999999094651MD1110261+9999OA149900461REMSYN076AAXX  15044 06734 33/// /2304 11011 21030 39465 40172 51026 333 91109 91208;
0128067340999992010011505004+46667+007867FM-12+057999999V0202101N003619999999N9999999N1-00141-00341101831ADDMA1999999094751MD1310261+9999OA149900461REMSYN076AAXX  15054 06734 33/// /2107 11014 21034 39475 40183 53026 333 91109 91208;
0207067340999992010011506004+46667+007867FM-12+057999999V0202001N003119999999N9999999N1-00171-00361101941ADDAA124000091AL19900091GJ100789KA1999N-00151MA1999999094841MD1310261+9999OA149900571REMSYN094AAXX  15064 06734 33/// /2006 11017 21036 39484 40194 53026 333 21015 55013 70000 91111 91208;EQDQ01  00002PRCP24
0128067340999992010011507004+46667+007867FM-12+057999999V0202101N002619999999N9999999N1-00171-00371102021ADDMA1999999094921MD1110271+9999OA149900461REMSYN076AAXX  15074 06734 33/// /2105 11017 21037 39492 40202 51027 333 91109 91208;
0128067340999992010011508004+46667+007867FM-12+057999999V0202001N002619999999N9999999N1-00151-00351102141ADDMA1999999095031MD1219999+9999OA149900461REMSYN076AAXX  15084 06734 33/// /2005 11015 21035 39503 40214 52/// 333 91109 91205;
0128067340999992010011509004+46667+007867FM-12+057999999V0209999C000019999999N9999999N1-00251-00491102241ADDMA1999999095101MD1210261+9999OA149900511REMSYN076AAXX  15094 06734 33/// /0000 11025 21049 39510 40224 52026 333 91110 91208;
0128067340999992010011510004+46667+007867FM-12+057999999V0202001N000519999999N9999999N1+00011-00341102221ADDMA1999999095151MD1110231+9999OA149900511REMSYN076AAXX  15104 06734 33/// /2001 10001 21034 39515 40222 51023 333 91110 91208;
0128067340999992010011511004+46667+007867FM-12+057999999V0209999C000019999999N9999999N1+00141-00141102201ADDMA1999999095161MD1210131+9999OA149900151REMSYN076AAXX  15114 06734 33/// /0000 10014 21014 39516 40220 52013 333 91103 91201;
0128067340999992010011512004+46667+007867FM-12+057999999V0202001N001019999999N9999999N1+00171-00141102231ADDMA1999999095201MD1210101+9999OA149900511REMSYN076AAXX  15124 06734 33/// /2002 10017 21014 39520 40223 52010 333 91110 91208;
0128067340999992010011513004+46667+007867FM-12+057999999V0209999C000019999999N9999999N1+00251-00231102221ADDMA1999999095211MD1210061+9999OA149900151REMSYN076AAXX  15134 06734 33/// /0000 10025 21023 39521 40222 52006 333 91103 91202;
0128067340999992010011514004+46667+007867FM-12+057999999V0209999C000019999999N9999999N1+00291-00071102291ADDMA1999999095291MD1210131+9999OA149900411REMSYN076AAXX  15144 06734 33/// /0000 10029 21007 39529 40229 52013 333 91108 91203;
0128067340999992010011515004+46667+007867FM-12+057999999V0209999C000019999999N9999999N1+00191-00121102381ADDMA1999999095341MD1210141+9999OA149900411REMSYN076AAXX  15154 06734 33/// /0000 10019 21012 39534 40238 52014 333 91108 91203;
0128067340999992010011516004+46667+007867FM-12+057999999V0202101N002119999999N9999999N1+00011-00211102491ADDMA1999999095401MD1210191+9999OA149900261REMSYN076AAXX  15164 06734 33/// /2104 10001 21021 39540 40249 52019 333 91105 91204;
0128067340999992010011517004+46667+007867FM-12+057999999V0202001N001519999999N9999999N1-00181-00361102561ADDMA1999999095421MD1210131+9999OA149900261REMSYN076AAXX  15174 06734 33/// /2003 11018 21036 39542 40256 52013 333 91105 91204;
0147067340999992010011518004+46667+007867FM-12+057999999V0202301N002119999999N9999999N1-00171-00361102611ADDKA1120M+00301MA1999999095471MD1210131+9999OA149900511REMSYN082AAXX  15184 06734 33/// /2304 11017 21036 39547 40261 52013 333 10030 91110 91208;
0128067340999992010011519004+46667+007867FM-12+057999999V0201801N000519999999N9999999N1-00311-00391102691ADDMA1999999095501MD1310101+9999OA149900311REMSYN076AAXX  15194 06734 33/// /1801 11031 21039 39550 40269 53010 333 91106 91204;
0128067340999992010011520004+46667+007867FM-12+057999999V0202301N001019999999N9999999N1-00311-00471102691ADDMA1999999095501MD1210081+9999OA149900311REMSYN076AAXX  15204 06734 33/// /2302 11031 21047 39550 40269 52008 333 91106 91204;
0128067340999992010011521004+46667+007867FM-12+057999999V0202201N001519999999N9999999N1-00381-00521102691ADDMA1999999095491MD1210021+9999OA149900311REMSYN076AAXX  15214 06734 33/// /2203 11038 21052 39549 40269 52002 333 91106 91204;
0128067340999992010011522004+46667+007867FM-12+057999999V0202401N000519999999N9999999N1-00311-00521102661ADDMA1999999095481MD1710021+9999OA149900261REMSYN076AAXX  15224 06734 33/// /2401 11031 21052 39548 40266 57002 333 91105 91203;
0128067340999992010011523004+46667+007867FM-12+057999999V0202301N002119999999N9999999N1-00381-00571102741ADDMA1999999095531MD1210031+9999OA149900311REMSYN076AAXX  15234 06734 33/// /2304 11038 21057 39553 40274 52003 333 91106 91205;
0128067340999992010011600004+46667+007867FM-12+057999999V0202401N000519999999N9999999N1-00451-00631102751ADDMA1999999095521MD1210031+9999OA149900411REMSYN076AAXX  16004 06734 33/// /2401 11045 21063 39552 40275 52003 333 91108 91205;
0128067340999992010011601004+46667+007867FM-12+057999999V0201801N000519999999N9999999N1-00491-00671102781ADDMA1999999095541MD1210061+9999OA149900361REMSYN076AAXX  16014 06734 33/// /1801 11049 21067 39554 40278 52006 333 91107 91204;
0128067340999992010011602004+46667+007867FM-12+057999999V0202201N001019999999N9999999N1-00451-00631102711ADDMA1999999095491MD1710041+9999OA149900261REMSYN076AAXX  16024 06734 33/// /2202 11045 21063 39549 40271 57004 333 91105 91204;
0128067340999992010011603004+46667+007867FM-12+057999999V0202001N002119999999N9999999N1-00391-00601102631ADDMA1999999095431MD1819999+9999OA149900361REMSYN076AAXX  16034 06734 33/// /2004 11039 21060 39543 40263 58/// 333 91107 91205;
0128067340999992010011604004+46667+007867FM-12+057999999V0203101N002119999999N9999999N1-00181-00361102611ADDMA1999999095461MD1710081+9999OA149900461REMSYN076AAXX  16044 06734 33/// /3104 11018 21036 39546 40261 57008 333 91109 91205;
0128067340999992010011605004+46667+007867FM-12+057999999V0201001N001519999999N9999999N1-00431-00591102581ADDMA1999999095371MD1710121+9999OA149900461REMSYN076AAXX  16054 06734 33/// /1003 11043 21059 39537 40258 57012 333 91109 91205;
0207067340999992010011606004+46667+007867FM-12+057999999V0202001N003119999999N9999999N1-00301-00491102501ADDAA124000091AL19900091GJ100849KA1999N-00531MA1999999095331MD1710101+9999OA149900461REMSYN094AAXX  16064 06734 33/// /2006 11030 21049 39533 40250 57010 333 21053 55014 70000 91109 91206;EQDQ01  00002PRCP24
0128067340999992010011607004+46667+007867FM-12+057999999V0201901N001019999999N9999999N1-00431-00651102481ADDMA1999999095281MD1710181+9999OA149900411REMSYN076AAXX  16074 06734 33/// /1902 11043 21065 39528 40248 57018 333 91108 91206;
0128067340999992010011608004+46667+007867FM-12+057999999V0202401N001519999999N9999999N1-00491-00711102461ADDMA1999999095241MD1710131+9999OA149900411REMSYN076AAXX  16084 06734 33/// /2403 11049 21071 39524 40246 57013 333 91108 91206;
0128067340999992010011609004+46667+007867FM-12+057999999V0202501N001019999999N9999999N1-00461-00711102391ADDMA1999999095191MD1710141+9999OA149900461REMSYN076AAXX  16094 06734 33/// /2502 11046 21071 39519 40239 57014 333 91109 91206;
0128067340999992010011610004+46667+007867FM-12+057999999V0200901N001019999999N9999999N1-00301-00501102351ADDMA1999999095191MD1710091+9999OA149900261REMSYN076AAXX  16104 06734 33/// /0902 11030 21050 39519 40235 57009 333 91105 91203;
0128067340999992010011611004+46667+007867FM-12+057999999V0200801N001519999999N9999999N1-00181-00361102231ADDMA1999999095111MD1710131+9999OA149900261REMSYN076AAXX  16114 06734 33/// /0803 11018 21036 39511 40223 57013 333 91105 91204;
0128067340999992010011612004+46667+007867FM-12+057999999V0202901N004119999999N9999999N1-00041-00281102171ADDMA1999999095091MD1710101+9999OA149900771REMSYN076AAXX  16124 06734 33/// /2908 11004 21028 39509 40217 57010 333 91115 91209;
0128067340999992010011613004+46667+007867FM-12+057999999V0203001N003619999999N9999999N1-00061-00321102191ADDMA1999999095101MD1710091+9999OA149900881REMSYN076AAXX  16134 06734 33/// /3007 11006 21032 39510 40219 57009 333 91117 91210;
0128067340999992010011614004+46667+007867FM-12+057999999V0200601N001519999999N9999999N1-00121-00331102111ADDMA1999999095011MD1719999+9999OA149900881REMSYN076AAXX  16144 06734 33/// /0603 11012 21033 39501 40211 57/// 333 91117 91210;
0128067340999992010011615004+46667+007867FM-12+057999999V0203301N001019999999N9999999N1-00011-00261102041ADDMA1999999094981MD1710111+9999OA149900881REMSYN076AAXX  16154 06734 33/// /3302 11001 21026 39498 40204 57011 333 91117 91210;
0128067340999992010011616004+46667+007867FM-12+057999999V0209999C000019999999N9999999N1-00041-00281101991ADDMA1999999094921MD1710181+9999OA149900311REMSYN076AAXX  16164 06734 33/// /0000 11004 21028 39492 40199 57018 333 91106 91204;
0128067340999992010011617004+46667+007867FM-12+057999999V0203101N002119999999N9999999N1+00001-00251102031ADDMA1999999094971MD1510041+9999OA149900411REMSYN076AAXX  16174 06734 33/// /3104 10000 21025 39497 40203 55004 333 91108 91204;
0147067340999992010011618004+46667+007867FM-12+057999999V0209999C000019999999N9999999N1-00011-00241101991ADDKA1120M+00021MA1999999094931MD1510051+9999OA149900881REMSYN082AAXX  16184 06734 33/// /0000 11001 21024 39493 40199 55005 333 10002 91117 91210;
0128067340999992010011619004+46667+007867FM-12+057999999V0200301N000519999999N9999999N1-00051-00211102011ADDMA1999999094941MD1210021+9999OA149900571REMSYN076AAXX  16194 06734 33/// /0301 11005 21021 39494 40201 52002 333 91111 91205;
0128067340999992010011620004+46667+007867FM-12+057999999V0202901N000519999999N9999999N1-00021-00211101931ADDMA1999999094871MD1710101+9999OA149900211REMSYN076AAXX  16204 06734 33/// /2901 11002 21021 39487 40193 57010 333 91104 91203;
0128067340999992010011621004+46667+007867FM-12+057999999V0201701N001019999999N9999999N1-00031-00201101881ADDMA1999999094821MD1710111+9999OA149900571REMSYN076AAXX  16214 06734 33/// /1702 11003 21020 39482 40188 57011 333 91111 91205;
0128067340999992010011622004+46667+007867FM-12+057999999V0203201N000519999999N9999999N1-00011-00191101811ADDMA1999999094761MD1710181+9999OA149900151REMSYN076AAXX  16224 06734 33/// /3201 11001 21019 39476 40181 57018 333 91103 91202;
0128067340999992010011623004+46667+007867FM-12+057999999V0203001N003119999999N9999999N1+00101-00121101941ADDMA1999999094911MD1310041+9999OA149900621REMSYN076AAXX  16234 06734 33/// /3006 10010 21012 39491 40194 53004 333 91112 91206;
0151067340999992010011700004+46667+007867FM-12+057999999V0200101N000519999999N9999999N1+00021-00081102081ADDAA106000591MA1999999095021MD1210201+9999OA149900881REMSYN088AAXX  17004 06734 03/// /0101 10002 21008 39502 40208 52020 69941 333 69945 91117 91210;
0145067340999992010011701004+46667+007867FM-12+057999999V0201801N001519999999N9999999N1+00011-00031102101ADDAA101000591MA1999999095041MD1210281+9999OA149900311REMSYN082AAXX  17014 06734 23/// /1803 10001 21003 39504 40210 52028 333 69965 91106 91203;
0128067340999992010011702004+46667+007867FM-12+057999999V0201101N000519999999N9999999N1+00021-00061102011ADDMA1999999094961MD1019999+9999OA149900261REMSYN076AAXX  17024 06734 33/// /1101 10002 21006 39496 40201 50/// 333 91105 91203;
0087067340999992010011703004+46667+007867FM-12+057999999V0201101N001019999999N9999999N1+00011-00071101861ADDMA1999999094811REMSYN060AAXX  17034 06734 43/// /1102 10001 21007 39481 40186 5////;
0145067340999992010011704004+46667+007867FM-12+057999999V0200301N001519999999N9999999N1+00061+00001101841ADDAA101000021MA1999999094811MD1710231+9999OA149900361REMSYN082AAXX  17044 06734 23/// /0303 10006 20000 39481 40184 57023 333 69915 91107 91204;
0128067340999992010011705004+46667+007867FM-12+057999999V0209999C000019999999N9999999N1+00051+00001101911ADDMA1999999094871MD1519999+9999OA149900361REMSYN076AAXX  17054 06734 33/// /0000 10005 20000 39487 40191 55/// 333 91107 91204;
0211067340999992010011706004+46667+007867FM-12+057999999V0200901N001519999999N9999999N1+00061+00021101921ADDAA112001091AA224001591AL12400191GJ101029KA1999N-00071MA1999999094881MD1210071+9999OA149900621REMSYN106AAXX  17064 06734 03/// /0903 10006 20002 39488 40192 52007 60012 333 21007 55017 69935 70014 91112 91206;
0145067340999992010011707004+46667+007867FM-12+057999999V0202401N001019999999N9999999N1+00071+00041101981ADDAA101000021MA1999999094941MD1210131+9999OA149900311REMSYN082AAXX  17074 06734 23/// /2402 10007 20004 39494 40198 52013 333 69915 91106 91204;
0145067340999992010011708004+46667+007867FM-12+057999999V0200301N000519999999N9999999N1+00131+00101102031ADDAA101000591MA1999999095001MD1319999+9999OA149900311REMSYN082AAXX  17084 06734 23/// /0301 10013 20010 39500 40203 53/// 333 69955 91106 91204;
0128067340999992010011709004+46667+007867FM-12+057999999V0200801N000519999999N9999999N1+00161+00131102081ADDMA1999999095061MD1210181+9999OA149900361REMSYN076AAXX  17094 06734 33/// /0801 10016 20013 39506 40208 52018 333 91107 91204;
0145067340999992010011710004+46667+007867FM-12+057999999V0202401N001019999999N9999999N1+00171+00141102191ADDAA101000021MA1999999095161MD1310221+9999OA149900311REMSYN082AAXX  17104 06734 23/// /2402 10017 20014 39516 40219 53022 333 69925 91106 91204;
0145067340999992010011711004+46667+007867FM-12+057999999V0200601N001019999999N9999999N1+00331+00291102171ADDAA101000021MA1999999095181MD1210181+9999OA149900461REMSYN082AAXX  17114 06734 23/// /0602 10033 20029 39518 40217 52018 333 69925 91109 91204;
0151067340999992010011712004+46667+007867FM-12+057999999V0202401N002119999999N9999999N1+00501+00291102151ADDAA106001091MA1999999095211MD1210151+9999OA149900511REMSYN088AAXX  17124 06734 03/// /2404 10050 20029 39521 40215 52015 60011 333 60005 91110 91204;
0128067340999992010011713004+46667+007867FM-12+057999999V0200501N001019999999N9999999N1+00431+00251102241ADDMA1999999095271MD1310111+9999OA149900511REMSYN076AAXX  17134 06734 33/// /0502 10043 20025 39527 40224 53011 333 91110 91204;
0128067340999992010011714004+46667+007867FM-12+057999999V0202501N000519999999N9999999N1+00501+00131102281ADDMA1999999095331MD1119999+9999OA149900361REMSYN076AAXX  17144 06734 33/// /2501 10050 20013 39533 40228 51/// 333 91107 91203;
0128067340999992010011715004+46667+007867FM-12+057999999V0202201N003619999999N9999999N1+00621-00101102351ADDMA1999999095421MD1210211+9999OA149900931REMSYN076AAXX  17154 06734 33/// /2207 10062 21010 39542 40235 52021 333 91118 91208;
0128067340999992010011716004+46667+007867FM-12+057999999V0203401N000519999999N9999999N1+00461-00051102451ADDMA1999999095481MD1110211+9999OA149900931REMSYN076AAXX  17164 06734 33/// /3401 10046 21005 39548 40245 51021 333 91118 91208;
0128067340999992010011717004+46667+007867FM-12+057999999V0202201N002619999999N9999999N1+00231-00041102601ADDMA1999999095561MD1210231+9999OA149900881REMSYN076AAXX  17174 06734 33/// /2205 10023 21004 39556 40260 52023 333 91117 91208;
0170067340999992010011718004+46667+007867FM-12+057999999V0202101N004619999999N9999999N1+00251-00021102661ADDAA112001091KA1120M+00631MA1999999095621MD1210201+9999OA149900931REMSYN094AAXX  17184 06734 03/// /2109 10025 21002 39562 40266 52020 60012 333 10063 60005 91118 91209;
0128067340999992010011719004+46667+007867FM-12+057999999V0201301N000519999999N9999999N1+00211-00041102721ADDMA1999999095671MD1210191+9999OA149900571REMSYN076AAXX  17194 06734 33/// /1301 10021 21004 39567 40272 52019 333 91111 91209;
0128067340999992010011720004+46667+007867FM-12+057999999V0202701N001519999999N9999999N1+00271-00011102721ADDMA1999999095681MD1210121+9999OA149900571REMSYN076AAXX  17204 06734 33/// /2703 10027 21001 39568 40272 52012 333 91111 91209;
0128067340999992010011721004+46667+007867FM-12+057999999V0202001N001019999999N9999999N1+00241-00031102751ADDMA1999999095701MD1210081+9999OA149900881REMSYN076AAXX  17214 06734 33/// /2002 10024 21003 39570 40275 52008 333 91117 91209;
0128067340999992010011722004+46667+007867FM-12+057999999V0209999C000019999999N9999999N1+00151-00031102791ADDMA1999999095721MD1210051+9999OA149900361REMSYN076AAXX  17224 06734 33/// /0000 10015 21003 39572 40279 52005 333 91107 91205;
0128067340999992010011723004+46667+007867FM-12+057999999V0202201N002119999999N9999999N1+00021-00101102841ADDMA1999999095731MD1210051+9999OA149900261REMSYN076AAXX  17234 06734 33/// /2204 10002 21010 39573 40284 52005 333 91105 91204;
0128067340999992010011800004+46667+007867FM-12+057999999V0209999C000019999999N9999999N1-00041-00131102871ADDMA1999999095741MD1210041+9999OA149900931REMSYN076AAXX  18004 06734 33/// /0000 11004 21013 39574 40287 52004 333 91118 91209;
0128067340999992010011801004+46667+007867FM-12+057999999V0202101N001019999999N9999999N1-00161-00251102911ADDMA1999999095751MD1110031+9999OA149900311REMSYN076AAXX  18014 06734 33/// /2102 11016 21025 39575 40291 51003 333 91106 91205;
0087067340999992010011802004+46667+007867FM-12+057999999V0202501N000519999999N9999999N1-00171-00261102941ADDMA1999999095771REMSYN060AAXX  18024 06734 33/// /2501 11017 21026 39577 40294 5////;
0087067340999992010011803004+46667+007867FM-12+057999999V0202301N000519999999N9999999N1-00111-00221102931ADDMA1999999095781REMSYN060AAXX  18034 06734 33/// /2301 11011 21022 39578 40293 5////;
0128067340999992010011804004+46667+007867FM-12+057999999V0209999C000019999999N9999999N1-00131-00221102911ADDMA1999999095761MD1210011+9999OA149900151REMSYN076AAXX  18044 06734 33/// /0000 11013 21022 39576 40291 52001 333 91103 91202;
0128067340999992010011805004+46667+007867FM-12+057999999V0202101N002119999999N9999999N1-00131-00241102881ADDMA1999999095731MD1710041+9999OA149900311REMSYN076AAXX  18054 06734 33/// /2104 11013 21024 39573 40288 57004 333 91106 91204;
0188067340999992010011806004+46667+007867FM-12+057999999V0202101N001019999999N9999999N1-00201-00311102941ADDAA124001091AL19900191GJ100009KA1999N-00221MA1999999095771MD1510011+9999OA149900571REMSYN094AAXX  18064 06734 33/// /2102 11020 21031 39577 40294 55001 333 21022 55000 70010 91111 91209;
0128067340999992010011807004+46667+007867FM-12+057999999V0201501N001019999999N9999999N1-00231-00331102991ADDMA1999999095801MD1310041+9999OA149900261REMSYN076AAXX  18074 06734 33/// /1502 11023 21033 39580 40299 53004 333 91105 91203;
0128067340999992010011808004+46667+007867FM-12+057999999V0202701N001019999999N9999999N1-00191-00341102991ADDMA1999999095811MD1219999+9999OA149900261REMSYN076AAXX  18084 06734 33/// /2702 11019 21034 39581 40299 52/// 333 91105 91203;
0128067340999992010011809004+46667+007867FM-12+057999999V0209999C000019999999N9999999N1-00221-00381103011ADDMA1999999095831MD1210061+9999OA149900311REMSYN076AAXX  18094 06734 33/// /0000 11022 21038 39583 40301 52006 333 91106 91204;
0128067340999992010011810004+46667+007867FM-12+057999999V0200901N000519999999N9999999N1-00031-00191102941ADDMA1999999095811MD1010011+9999OA149900151REMSYN076AAXX  18104 06734 33/// /0901 11003 21019 39581 40294 50001 333 91103 91202;
0128067340999992010011811004+46667+007867FM-12+057999999V0209999C000019999999N9999999N1+00191-00091102851ADDMA1999999095781MD1710031+9999OA149900151REMSYN076AAXX  18114 06734 33/// /0000 10019 21009 39578 40285 57003 333 91103 91202;
