0137067480999992010010100004+46033+007750FM-12+163899999V0202301N001019999999N9999999N1-00441-00881999999ADDMA1999999081221MD1810131+9999ME1312809OA149900361REMSYN076AAXX  01004 06748 33/// /2302 11044 21088 38122 48280 58013 333 91107 91205;
0137067480999992010010101004+46033+007750FM-12+163899999V0202301N001519999999N9999999N1-00481-00861999999ADDMA1999999081161MD1710171+9999ME1312749OA149900151REMSYN076AAXX  01014 06748 33/// /2303 11048 21086 38116 48274 57017 333 91103 91203;
0137067480999992010010102004+46033+007750FM-12+163899999V0202101N001019999999N9999999N1-00511-00871999999ADDMA1999999081111MD1619999+9999ME1312709OA149900151REMSYN076AAXX  01024 06748 33/// /2102 11051 21087 38111 48270 56/// 333 91103 91203;
0096067480999992010010103004+46033+007750FM-12+163899999V0202101N001019999999N9999999N1-00471-00771999999ADDMA1999999081061ME1312649REMSYN060AAXX  01034 06748 43/// /2102 11047 21077 38106 48264 5////;
0096067480999992010010104004+46033+007750FM-12+163899999V0202201N001019999999N9999999N1-00471-00791999999ADDMA1999999081011ME1312599REMSYN060AAXX  01044 06748 33/// /2202 11047 21079 38101 48259 5////;
0137067480999992010010105004+46033+007750FM-12+163899999V0202201N001019999999N9999999N1-00451-00841999999ADDMA1999999080971MD1710141+9999ME1312559OA149900211REMSYN076AAXX  01054 06748 33/// /2202 11045 21084 38097 48255 57014 333 91104 91203;
0215067480999992010010106004+46033+007750FM-12+163899999V0202201N001019999999N9999999N1-00511-00801999999ADDAA124001591AL13600191GJ100309IA2999-00309KA1999N-00561MA1999999080961MD1710101+9999ME1312559OA149900261REMSYN100AAXX  01064 06748 33/// /2202 11051 21080 38096 48255 57010 333 21056 3/103 55005 70016 91105 91203;
0137067480999992010010107004+46033+007750FM-12+163899999V0202201N001019999999N9999999N1-00531-00831999999ADDMA1999999080931MD1710081+9999ME1312529OA149900151REMSYN076AAXX  01074 06748 33/// /2202 11053 21083 38093 48252 57008 333 91103 91203;
0137067480999992010010108004+46033+007750FM-12+163899999V0202101N001019999999N9999999N1-00461-00861999999ADDMA1999999080971MD1510001+9999ME1312559OA149900151REMSYN076AAXX  01084 06748 33/// /2102 11046 21086 38097 48255 55000 333 91103 91203;
0137067480999992010010109004+46033+007750FM-12+163899999V0202101N001019999999N9999999N1-00371-00731999999ADDMA1999999081021MD1210061+9999ME1312599OA149900211REMSYN076AAXX  01094 06748 33/// /2102 11037 21073 38102 48259 52006 333 91104 91203;
0137067480999992010010110004+46033+007750FM-12+163899999V0202301N001019999999N9999999N1-00151-00661999999ADDMA1999999081041MD1210111+9999ME1312589OA149900151REMSYN076AAXX  01104 06748 33/// /2302 11015 21066 38104 48258 52011 333 91103 91202;
0137067480999992010010111004+46033+007750FM-12+163899999V0202101N001019999999N9999999N1+00001-00661999999ADDMA1999999081041MD1210071+9999ME1312569OA149900151REMSYN076AAXX  01114 06748 33/// /2102 10000 21066 38104 48256 52007 333 91103 91202;
0137067480999992010010112004+46033+007750FM-12+163899999V0201801N000519999999N9999999N1-00031-00661999999ADDMA1999999081051MD1210031+9999ME1312579OA149900211REMSYN076AAXX  01124 06748 33/// /1801 11003 21066 38105 48257 52003 333 91104 91203;
0137067480999992010010113004+46033+007750FM-12+163899999V0200501N001519999999N9999999N1-00071-00581999999ADDMA1999999081061MD1210021+9999ME1312599OA149900261REMSYN076AAXX  01134 06748 33/// /0503 11007 21058 38106 48259 52002 333 91105 91203;
0137067480999992010010114004+46033+007750FM-12+163899999V0209999C000019999999N9999999N1-00011-00671999999ADDMA1999999081111MD1319999+9999ME1312639OA149900261REMSYN076AAXX  01144 06748 33/// /0000 11001 21067 38111 48263 53/// 333 91105 91203;
0137067480999992010010115004+46033+007750FM-12+163899999V0200401N002619999999N9999999N1-00111-00521999999ADDMA1999999081181MD1310131+9999ME1312719OA149900411REMSYN076AAXX  01154 06748 33/// /0405 11011 21052 38118 48271 53013 333 91108 91205;
0137067480999992010010116004+46033+007750FM-12+163899999V0200201N001019999999N9999999N1-00201-00491999999ADDMA1999999081281MD1310221+9999ME1312829OA149900621REMSYN076AAXX  01164 06748 33/// /0202 11020 21049 38128 48282 53022 333 91112 91207;
0137067480999992010010117004+46033+007750FM-12+163899999V0200401N001019999999N9999999N1-00261-00371999999ADDMA1999999081371MD1210261+9999ME1312929OA149900621REMSYN076AAXX  01174 06748 33/// /0402 11026 21037 38137 48292 52026 333 91112 91207;
0156067480999992010010118004+46033+007750FM-12+163899999V0202601N000519999999N9999999N1-00211-00371999999ADDKA1120M+00031MA1999999081441MD1110261+9999ME1312989OA149900621REMSYN082AAXX  01184 06748 33/// /2601 11021 21037 38144 48298 51026 333 10003 91112 91207;
0154067480999992010010119004+46033+007750FM-12+163899999V0201801N000519999999N9999999N1-00251-00321999999ADDAA101000021MA1999999081571MD1310291+9999ME1313119OA149900311REMSYN082AAXX  01194 06748 23/// /1801 11025 21032 38157 48311 53029 333 69925 91106 91203;
0137067480999992010010120004+46033+007750FM-12+163899999V0209999C000019999999N9999999N1-00201-00371999999ADDMA1999999081651MD1210281+9999ME1313199OA149900311REMSYN076AAXX  01204 06748 33/// /0000 11020 21037 38165 48319 52028 333 91106 91203;
0137067480999992010010121004+46033+007750FM-12+163899999V0202201N001019999999N9999999N1-00241-00401999999ADDMA1999999081721MD1110281+9999ME1313269OA149900621REMSYN076AAXX  01214 06748 33/// /2202 11024 21040 38172 48326 51028 333 91112 91207;
0137067480999992010010122004+46033+007750FM-12+163899999V0200301N001019999999N9999999N1-00311-00391999999ADDMA1999999081771MD1110201+9999ME1313329OA149900411REMSYN076AAXX  01224 06748 33/// /0302 11031 21039 38177 48332 51020 333 91108 91203;
0137067480999992010010123004+46033+007750FM-12+163899999V0200401N001019999999N9999999N1-00301-00371999999ADDMA1999999081831MD1110181+9999ME1313379OA149900261REMSYN076AAXX  01234 06748 33/// /0402 11030 21037 38183 48337 51018 333 91105 91203;
0179067480999992010010200004+46033+007750FM-12+163899999V0200301N001019999999N9999999N1-00351-00411999999ADDAA106000091MA1999999081831MD1110111+9999ME1313389OA149900621REMSYN088AAXX  02004 06748 03/// /0302 11035 21041 38183 48338 51011 69921 333 60005 91112 91207;EQDQ01  00002PRCP06
0137067480999992010010201004+46033+007750FM-12+163899999V0200501N001519999999N9999999N1-00371-00461999999ADDMA1999999081861MD1110091+9999ME1313419OA149900461REMSYN076AAXX  02014 06748 33/// /0503 11037 21046 38186 48341 51009 333 91109 91203;
0096067480999992010010202004+46033+007750FM-12+163899999V0200301N002119999999N9999999N1-00411-00561999999ADDMA1999999081941ME1313499REMSYN060AAXX  02024 06748 33/// /0304 11041 21056 38194 48349 5////;
0137067480999992010010203004+46033+007750FM-12+163899999V0200401N001519999999N9999999N1-00481-00631999999ADDMA1999999082001MD1310171+9999ME1313569OA149900461REMSYN076AAXX  02034 06748 33/// /0403 11048 21063 38200 48356 53017 333 91109 91205;
0137067480999992010010204004+46033+007750FM-12+163899999V0203601N000519999999N9999999N1-00591-00771999999ADDMA1999999082101MD1210241+9999ME1313679OA149900361REMSYN076AAXX  02044 06748 33/// /3601 11059 21077 38210 48367 52024 333 91107 91204;
0137067480999992010010205004+46033+007750FM-12+163899999V0209999C000019999999N9999999N1-00751-00901999999ADDMA1999999082111MD1210171+9999ME1313699OA149900311REMSYN076AAXX  02054 06748 33/// /0000 11075 21090 38211 48369 52017 333 91106 91204;
0257067480999992010010206004+46033+007750FM-12+163899999V0202301N001519999999N9999999N1-00791-01441999999ADDAA112000091AA224000391AL11200091GJ101029IA2999-00309KA1999N-00751MA1999999082101MD1210101+9999ME1313699OA149900461REMSYN112AAXX  02064 06748 03/// /2303 11079 21144 38210 48369 52010 69922 333 21075 3/103 55017 60005 70002 91109 91205;EQDQ01  00002PRCP12
0137067480999992010010207004+46033+007750FM-12+163899999V0209999C000019999999N9999999N1-00891-01141999999ADDMA1999999082161MD1210061+9999ME1313769OA149900211REMSYN076AAXX  02074 06748 33/// /0000 11089 21114 38216 48376 52006 333 91104 91203;
0096067480999992010010208004+46033+007750FM-12+163899999V0202701N000519999999N9999999N1-00901-01571999999ADDMA1999999082241ME1313839REMSYN060AAXX  02084 06748 33/// /2701 11090 21157 38224 48383 5////;
0137067480999992010010209004+46033+007750FM-12+163899999V0200401N000519999999N9999999N1-00831-01291999999ADDMA1999999082341MD1210241+9999ME1313929OA149900311REMSYN076AAXX  02094 06748 33/// /0401 11083 21129 38234 48392 52024 333 91106 91204;
0137067480999992010010210004+46033+007750FM-12+163899999V0200501N002119999999N9999999N1-00711-01911999999ADDMA1999999082441MD1310281+9999ME1314009OA149900411REMSYN076AAXX  02104 06748 33/// /0504 11071 21191 38244 48400 53028 333 91108 91204;
0137067480999992010010211004+46033+007750FM-12+163899999V0200501N003119999999N9999999N1-00691-02261999999ADDMA1999999082461MD1110221+9999ME1314029OA149900821REMSYN076AAXX  02114 06748 33/// /0506 11069 21226 38246 48402 51022 333 91116 91208;
0137067480999992010010212004+46033+007750FM-12+163899999V0200401N003619999999N9999999N1-00761-02121999999ADDMA1999999082531MD1110191+9999ME1314099OA149901031REMSYN076AAXX  02124 06748 33/// /0407 11076 21212 38253 48409 51019 333 91120 91211;
0137067480999992010010213004+46033+007750FM-12+163899999V0200401N004119999999N9999999N1-00801-02241999999ADDMA1999999082601MD1310161+9999ME1314169OA149901031REMSYN076AAXX  02134 06748 33/// /0408 11080 21224 38260 48416 53016 333 91120 91211;
0137067480999992010010214004+46033+007750FM-12+163899999V0200401N002119999999N9999999N1-00831-02201999999ADDMA1999999082691MD1319999+9999ME1314259OA149901131REMSYN076AAXX  02144 06748 33/// /0404 11083 21220 38269 48425 53/// 333 91122 91209;
0137067480999992010010215004+46033+007750FM-12+163899999V0209999C000019999999N9999999N1-00861-02171999999ADDMA1999999082781MD1310251+9999ME1314349OA149901131REMSYN076AAXX  02154 06748 33/// /0000 11086 21217 38278 48434 53025 333 91122 91211;
0137067480999992010010216004+46033+007750FM-12+163899999V0202301N001019999999N9999999N1-00951-01991999999ADDMA1999999082861MD1210261+9999ME1314429OA149900411REMSYN076AAXX  02164 06748 33/// /2302 11095 21199 38286 48442 52026 333 91108 91202;
0137067480999992010010217004+46033+007750FM-12+163899999V0202401N000519999999N9999999N1-01061-01981999999ADDMA1999999082961MD1310271+9999ME1314529OA149900511REMSYN076AAXX  02174 06748 33/// /2401 11106 21198 38296 48452 53027 333 91110 91207;
0156067480999992010010218004+46033+007750FM-12+163899999V0202501N000519999999N9999999N1-01171-01961999999ADDKA1120M-00681MA1999999083011MD1110231+9999ME1314589OA149901131REMSYN082AAXX  02184 06748 33/// /2501 11117 21196 38301 48458 51023 333 11068 91122 91211;
0137067480999992010010219004+46033+007750FM-12+163899999V0202201N001019999999N9999999N1-01241-01851999999ADDMA1999999083081MD1110221+9999ME1314659OA149900211REMSYN076AAXX  02194 06748 33/// /2202 11124 21185 38308 48465 51022 333 91104 91202;
0137067480999992010010220004+46033+007750FM-12+163899999V0202201N001019999999N9999999N1-01281-02011999999ADDMA1999999083131MD1210171+9999ME1314709OA149900151REMSYN076AAXX  02204 06748 33/// /2202 11128 21201 38313 48470 52017 333 91103 91202;
0137067480999992010010221004+46033+007750FM-12+163899999V0202001N001019999999N9999999N1-01281-02111999999ADDMA1999999083121MD1210111+9999ME1314699OA149900511REMSYN076AAXX  02214 06748 33/// /2002 11128 21211 38312 48469 52011 333 91110 91207;
0137067480999992010010222004+46033+007750FM-12+163899999V0202201N001019999999N9999999N1-01341-02101999999ADDMA1999999083141MD1010061+9999ME1314719OA149900211REMSYN076AAXX  02224 06748 33/// /2202 11134 21210 38314 48471 50006 333 91104 91202;
0137067480999992010010223004+46033+007750FM-12+163899999V0202201N001019999999N9999999N1-01391-02161999999ADDMA1999999083181MD1310051+9999ME1314759OA149900151REMSYN076AAXX  02234 06748 33/// /2202 11139 21216 38318 48475 53005 333 91103 91202;
0137067480999992010010300004+46033+007750FM-12+163899999V0202301N001019999999N9999999N1-01431-02271999999ADDMA1999999083181MD1210061+9999ME1314759OA149901131REMSYN076AAXX  03004 06748 33/// /2302 11143 21227 38318 48475 52006 333 91122 91209;
0137067480999992010010301004+46033+007750FM-12+163899999V0202101N001019999999N9999999N1-01501-02091999999ADDMA1999999083231MD1210091+9999ME1314809OA149900211REMSYN076AAXX  03014 06748 33/// /2102 11150 21209 38323 48480 52009 333 91104 91203;
0096067480999992010010302004+46033+007750FM-12+163899999V0202201N001019999999N9999999N1-01491-02241999999ADDMA1999999083281ME1314859REMSYN060AAXX  03024 06748 33/// /2202 11149 21224 38328 48485 5////;
0096067480999992010010303004+46033+007750FM-12+163899999V0202301N001019999999N9999999N1-01491-02281999999ADDMA1999999083241ME1314819REMSYN060AAXX  03034 06748 33/// /2302 11149 21228 38324 48481 5////;
0137067480999992010010304004+46033+007750FM-12+163899999V0202201N001019999999N9999999N1-01421-02201999999ADDMA1999999083211MD1810021+9999ME1314789OA149900151REMSYN076AAXX  03044 06748 33/// /2202 11142 21220 38321 48478 58002 333 91103 91203;
0137067480999992010010305004+46033+007750FM-12+163899999V0200601N000519999999N9999999N1-01371-02131999999ADDMA1999999083191MD1719999+9999ME1314769OA149900151REMSYN076AAXX  03054 06748 33/// /0601 11137 21213 38319 48476 57/// 333 91103 91202;
0234067480999992010010306004+46033+007750FM-12+163899999V0202101N001519999999N9999999N1-01401-02061999999ADDAA124000091AL19900091GJ100249IA2999-00709KA1999N-01561MA1999999083191MD1710051+9999ME1314769OA149900211REMSYN100AAXX  03064 06748 33/// /2103 11140 21206 38319 48476 57005 333 21156 3/107 55004 70000 91104 91203;EQDQ01  00002PRCP24
0137067480999992010010307004+46033+007750FM-12+163899999V0202101N001019999999N9999999N1-01451-02001999999ADDMA1999999083171MD1710041+9999ME1314749OA149900211REMSYN076AAXX  03074 06748 33/// /2102 11145 21200 38317 48474 57004 333 91104 91203;
0137067480999992010010308004+46033+007750FM-12+163899999V0202101N001019999999N9999999N1-01321-01961999999ADDMA1999999083211MD1319999+9999ME1314779OA149900211REMSYN076AAXX  03084 06748 33/// /2102 11132 21196 38321 48477 53/// 333 91104 91203;
0137067480999992010010309004+46033+007750FM-12+163899999V0202201N000519999999N9999999N1-01161-01971999999ADDMA1999999083221MD1210031+9999ME1314779OA149900211REMSYN076AAXX  03094 06748 33/// /2201 11116 21197 38322 48477 52003 333 91104 91203;
0137067480999992010010310004+46033+007750FM-12+163899999V0202101N001019999999N9999999N1-01051-01981999999ADDMA1999999083211MD1010041+9999ME1314769OA149900151REMSYN076AAXX  03104 06748 33/// /2102 11105 21198 38321 48476 50004 333 91103 91202;
0137067480999992010010311004+46033+007750FM-12+163899999V0202301N001019999999N9999999N1-00891-02261999999ADDMA1999999083131MD1710081+9999ME1314679OA149900211REMSYN076AAXX  03114 06748 33/// /2302 11089 21226 38313 48467 57008 333 91104 91203;
0137067480999992010010312004+46033+007750FM-12+163899999V0200601N000519999999N9999999N1-00801-02241999999ADDMA1999999083091MD1710131+9999ME1314639OA149900261REMSYN076AAXX  03124 06748 33/// /0601 11080 21224 38309 48463 57013 333 91105 91203;
0137067480999992010010313004+46033+007750FM-12+163899999V0202101N000519999999N9999999N1-00711-02441999999ADDMA1999999083021MD1710191+9999ME1314559OA149900261REMSYN076AAXX  03134 06748 33/// /2101 11071 21244 38302 48455 57019 333 91105 91203;
0137067480999992010010314004+46033+007750FM-12+163899999V0200301N001519999999N9999999N1-00831-02241999999ADDMA1999999083061MD1710071+9999ME1314609OA149900461REMSYN076AAXX  03144 06748 33/// /0303 11083 21224 38306 48460 57007 333 91109 91204;
0137067480999992010010315004+46033+007750FM-12+163899999V0202101N000519999999N9999999N1-00741-02631999999ADDMA1999999083041MD1510051+9999ME1314589OA149900461REMSYN076AAXX  03154 06748 33/// /2101 11074 21263 38304 48458 55005 333 91109 91204;
0137067480999992010010316004+46033+007750FM-12+163899999V0200401N000519999999N9999999N1-00851-02111999999ADDMA1999999083051MD1010031+9999ME1314599OA149900361REMSYN076AAXX  03164 06748 33/// /0401 11085 21211 38305 48459 50003 333 91107 91203;
0137067480999992010010317004+46033+007750FM-12+163899999V0202501N000519999999N9999999N1-00761-02321999999ADDMA1999999083001MD1810061+9999ME1314549OA149900361REMSYN076AAXX  03174 06748 33/// /2501 11076 21232 38300 48454 58006 333 91107 91203;
0156067480999992010010318004+46033+007750FM-12+163899999V0200101N000519999999N9999999N1-00761-01611999999ADDKA1120M-00691MA1999999083021MD1710021+9999ME1314569OA149900461REMSYN082AAXX  03184 06748 33/// /0101 11076 21161 38302 48456 57002 333 11069 91109 91204;
0137067480999992010010319004+46033+007750FM-12+163899999V0202201N001019999999N9999999N1-00771-01731999999ADDMA1999999083021MD1710031+9999ME1314569OA149900151REMSYN076AAXX  03194 06748 33/// /2202 11077 21173 38302 48456 57003 333 91103 91202;
0137067480999992010010320004+46033+007750FM-12+163899999V0202301N001019999999N9999999N1-00811-01721999999ADDMA1999999082981MD1810021+9999ME1314529OA149900151REMSYN076AAXX  03204 06748 33/// /2302 11081 21172 38298 48452 58002 333 91103 91202;
0137067480999992010010321004+46033+007750FM-12+163899999V0202201N000519999999N9999999N1-00891-02101999999ADDMA1999999082941MD1710081+9999ME1314499OA149900361REMSYN076AAXX  03214 06748 33/// /2201 11089 21210 38294 48449 57008 333 91107 91203;
0137067480999992010010322004+46033+007750FM-12+163899999V0202101N001019999999N9999999N1-00951-02091999999ADDMA1999999082951MD1710071+9999ME1314519OA149900211REMSYN076AAXX  03224 06748 33/// /2102 11095 21209 38295 48451 57007 333 91104 91203;
0137067480999992010010323004+46033+007750FM-12+163899999V0202201N001019999999N9999999N1-00931-01931999999ADDMA1999999082931MD1710051+9999ME1314499OA149900211REMSYN076AAXX  03234 06748 33/// /2202 11093 21193 38293 48449 57005 333 91104 91203;
0137067480999992010010400004+46033+007750FM-12+163899999V0202201N001019999999N9999999N1-00931-01971999999ADDMA1999999082891MD1810051+9999ME1314459OA149900461REMSYN076AAXX  04004 06748 33/// /2202 11093 21197 38289 48445 58005 333 91109 91204;
0137067480999992010010401004+46033+007750FM-12+163899999V0202101N001019999999N9999999N1-00911-01771999999ADDMA1999999082811MD1710141+9999ME1314379OA149900261REMSYN076AAXX  04014 06748 33/// /2102 11091 21177 38281 48437 57014 333 91105 91203;
0137067480999992010010402004+46033+007750FM-12+163899999V0202101N001019999999N9999999N1-00861-01781999999ADDMA1999999082761MD1710171+9999ME1314329OA149900211REMSYN076AAXX  04024 06748 33/// /2102 11086 21178 38276 48432 57017 333 91104 91202;
0137067480999992010010403004+46033+007750FM-12+163899999V0202101N001019999999N9999999N1-00841-01771999999ADDMA1999999082711MD1619999+9999ME1314279OA149900261REMSYN076AAXX  04034 06748 33/// /2102 11084 21177 38271 48427 56/// 333 91105 91203;
0137067480999992010010404004+46033+007750FM-12+163899999V0202401N001019999999N9999999N1-00821-01741999999ADDMA1999999082671MD1710141+9999ME1314239OA149900211REMSYN076AAXX  04044 06748 33/// /2402 11082 21174 38267 48423 57014 333 91104 91203;
0137067480999992010010405004+46033+007750FM-12+163899999V0202101N001019999999N9999999N1-00811-01681999999ADDMA1999999082641MD1710121+9999ME1314209OA149900211REMSYN076AAXX  04054 06748 33/// /2102 11081 21168 38264 48420 57012 333 91104 91203;
0234067480999992010010406004+46033+007750FM-12+163899999V0209999C000519999999N9999999N1-00791-01701999999ADDAA124000091AL19900091GJ100009IA2999-00409KA1999N-00951MA1999999082651MD1510061+9999ME1314219OA149900261REMSYN100AAXX  04064 06748 33/// /0001 11079 21170 38265 48421 55006 333 21095 3/104 55000 70000 91105 91203;EQDQ01  00002PRCP24
0137067480999992010010407004+46033+007750FM-12+163899999V0200401N001019999999N9999999N1-00811-01271999999ADDMA1999999082661MD1310011+9999ME1314229OA149900211REMSYN076AAXX  04074 06748 33/// /0402 11081 21127 38266 48422 53001 333 91104 91202;
0137067480999992010010408004+46033+007750FM-12+163899999V0200301N001019999999N9999999N1-00901-01181999999ADDMA1999999082671MD1210031+9999ME1314249OA149900571REMSYN076AAXX  04084 06748 33/// /0302 11090 21118 38267 48424 52003 333 91111 91207;
0137067480999992010010409004+46033+007750FM-12+163899999V0209999C000019999999N9999999N1-00841-01171999999ADDMA1999999082631MD1810021+9999ME1314209OA149900571REMSYN076AAXX  04094 06748 33/// /0000 11084 21117 38263 48420 58002 333 91111 91207;
0137067480999992010010410004+46033+007750FM-12+163899999V0200401N003119999999N9999999N1-00811-01201999999ADDMA1999999082641MD1710021+9999ME1314209OA149900511REMSYN076AAXX  04104 06748 33/// /0406 11081 21120 38264 48420 57002 333 91110 91206;
0137067480999992010010411004+46033+007750FM-12+163899999V0200601N000519999999N9999999N1-00691-01361999999ADDMA1999999082541MD1710131+9999ME1314109OA149900511REMSYN076AAXX  04114 06748 33/// /0601 11069 21136 38254 48410 57013 333 91110 91206;
0137067480999992010010412004+46033+007750FM-12+163899999V0200501N002619999999N9999999N1-00621-01211999999ADDMA1999999082461MD1710171+9999ME1314029OA149900571REMSYN076AAXX  04124 06748 33/// /0505 11062 21121 38246 48402 57017 333 91111 91207;
0137067480999992010010413004+46033+007750FM-12+163899999V0200501N002119999999N9999999N1-00611-01161999999ADDMA1999999082411MD1610231+9999ME1313979OA149900511REMSYN076AAXX  04134 06748 33/// /0504 11061 21116 38241 48397 56023 333 91110 91207;
0137067480999992010010414004+46033+007750FM-12+163899999V0200401N003119999999N9999999N1-00601-01111999999ADDMA1999999082361MD1619999+9999ME1313929OA149900511REMSYN076AAXX  04144 06748 33/// /0406 11060 21111 38236 48392 56/// 333 91110 91207;
0137067480999992010010415004+46033+007750FM-12+163899999V0200401N001519999999N9999999N1-00661-01021999999ADDMA1999999082371MD1710091+9999ME1313939OA149900621REMSYN076AAXX  04154 06748 33/// /0403 11066 21102 38237 48393 57009 333 91112 91207;
0137067480999992010010416004+46033+007750FM-12+163899999V0200301N000519999999N9999999N1-00691-01001999999ADDMA1999999082351MD1710061+9999ME1313929OA149900621REMSYN076AAXX  04164 06748 33/// /0301 11069 21100 38235 48392 57006 333 91112 91207;
0137067480999992010010417004+46033+007750FM-12+163899999V0200301N001019999999N9999999N1-00731-01011999999ADDMA1999999082351MD1710011+9999ME1313929OA149900361REMSYN076AAXX  04174 06748 33/// /0302 11073 21101 38235 48392 57001 333 91107 91203;
0156067480999992010010418004+46033+007750FM-12+163899999V0200201N001019999999N9999999N1-00771-01041999999ADDKA1120M-00561MA1999999082371MD1510001+9999ME1313949OA149900621REMSYN082AAXX  04184 06748 33/// /0202 11077 21104 38237 48394 55000 333 11056 91112 91207;
0137067480999992010010419004+46033+007750FM-12+163899999V0202201N001519999999N9999999N1-00721-01081999999ADDMA1999999082341MD1710011+9999ME1313919OA149900361REMSYN076AAXX  04194 06748 33/// /2203 11072 21108 38234 48391 57001 333 91107 91203;
0137067480999992010010420004+46033+007750FM-12+163899999V0202201N001019999999N9999999N1-00741-01141999999ADDMA1999999082341MD1010011+9999ME1313919OA149900261REMSYN076AAXX  04204 06748 33/// /2202 11074 21114 38234 48391 50001 333 91105 91203;
0137067480999992010010421004+46033+007750FM-12+163899999V0202101N001019999999N9999999N1-00751-01131999999ADDMA1999999082331MD1610041+9999ME1313909OA149900361REMSYN076AAXX  04214 06748 33/// /2102 11075 21113 38233 48390 56004 333 91107 91203;
0137067480999992010010422004+46033+007750FM-12+163899999V0202301N001019999999N9999999N1-00781-01161999999ADDMA1999999082301MD1810041+9999ME1313889OA149900211REMSYN076AAXX  04224 06748 33/// /2302 11078 21116 38230 48388 58004 333 91104 91203;
0137067480999992010010423004+46033+007750FM-12+163899999V0202101N001019999999N9999999N1-00821-01201999999ADDMA1999999082291MD1710051+9999ME1313879OA149900211REMSYN076AAXX  04234 06748 33/// /2102 11082 21120 38229 48387 57005 333 91104 91203;
0137067480999992010010500004+46033+007750FM-12+163899999V0202101N001019999999N9999999N1-00851-01191999999ADDMA1999999082271MD1710061+9999ME1313869OA149900621REMSYN076AAXX  05004 06748 33/// /2102 11085 21119 38227 48386 57006 333 91112 91207;
0137067480999992010010501004+46033+007750FM-12+163899999V0202101N001019999999N9999999N1-00881-01231999999ADDMA1999999082221MD1710081+9999ME1313819OA149900211REMSYN076AAXX  05014 06748 33/// /2102 11088 21123 38222 48381 57008 333 91104 91203;
0137067480999992010010502004+46033+007750FM-12+163899999V0202201N001019999999N9999999N1-00831-01341999999ADDMA1999999082191MD1610101+9999ME1313789OA149900211REMSYN076AAXX  05024 06748 33/// /2202 11083 21134 38219 48378 56010 333 91104 91203;
0137067480999992010010503004+46033+007750FM-12+163899999V0202201N001519999999N9999999N1-00801-01661999999ADDMA1999999082151MD1810121+9999ME1313749OA149900211REMSYN076AAXX  05034 06748 33/// /2203 11080 21166 38215 48374 58012 333 91104 91203;
0137067480999992010010504004+46033+007750FM-12+163899999V0202101N001019999999N9999999N1-00821-01761999999ADDMA1999999082081MD1810141+9999ME1313679OA149900211REMSYN076AAXX  05044 06748 33/// /2102 11082 21176 38208 48367 58014 333 91104 91203;
0137067480999992010010505004+46033+007750FM-12+163899999V0202301N001519999999N9999999N1-00861-01721999999ADDMA1999999082061MD1610131+9999ME1313669OA149900211REMSYN076AAXX  05054 06748 33/// /2303 11086 21172 38206 48366 56013 333 91104 91203;
0220067480999992010010506004+46033+007750FM-12+163899999V0202301N001019999999N9999999N1-00881-01761999999ADDAA124000091AL19900091IA2999-00509KA1999N-00931MA1999999082031MD1610121+9999ME1313639OA149900261REMSYN094AAXX  05064 06748 33/// /2302 11088 21176 38203 48363 56012 333 21093 3/105 70000 91105 91203;EQDQ01  00002PRCP24
0137067480999992010010507004+46033+007750FM-12+163899999V0202301N000519999999N9999999N1-00791-02001999999ADDMA1999999082001MD1810081+9999ME1313599OA149900151REMSYN076AAXX  05074 06748 33/// /2301 11079 21200 38200 48359 58008 333 91103 91202;
0137067480999992010010508004+46033+007750FM-12+163899999V0202301N001019999999N9999999N1-00841-01841999999ADDMA1999999081971MD1610091+9999ME1313579OA149900151REMSYN076AAXX  05084 06748 33/// /2302 11084 21184 38197 48357 56009 333 91103 91202;
0137067480999992010010509004+46033+007750FM-12+163899999V0202101N000519999999N9999999N1-00741-01711999999ADDMA1999999081961MD1810071+9999ME1313559OA149900211REMSYN076AAXX  05094 06748 33/// /2101 11074 21171 38196 48355 58007 333 91104 91203;
0137067480999992010010510004+46033+007750FM-12+163899999V0202101N001019999999N9999999N1-00671-01561999999ADDMA1999999081931MD1810071+9999ME1313519OA149900151REMSYN076AAXX  05104 06748 33/// /2102 11067 21156 38193 48351 58007 333 91103 91202;
0137067480999992010010511004+46033+007750FM-12+163899999V0202001N000519999999N9999999N1-00301-01231999999ADDMA1999999081831MD1810141+9999ME1313379OA149900211REMSYN076AAXX  05114 06748 33/// /2001 11030 21123 38183 48337 58014 333 91104 91202;
0137067480999992010010512004+46033+007750FM-12+163899999V0202101N001019999999N9999999N1-00141-01341999999ADDMA1999999081741MD1810221+9999ME1313279OA149900211REMSYN076AAXX  05124 06748 33/// /2102 11014 21134 38174 48327 58022 333 91104 91203;
0137067480999992010010513004+46033+007750FM-12+163899999V0200501N000519999999N9999999N1-00311-01281999999ADDMA1999999081711MD1610221+9999ME1313269OA149900261REMSYN076AAXX  05134 06748 33/// /0501 11031 21128 38171 48326 56022 333 91105 91204;
0096067480999992010010514004+46033+007750FM-12+163899999V0202201N001519999999N9999999N1-00251-01281999999ADDMA1999999081671ME1313219REMSYN060AAXX  05144 06748 33/// /2203 11025 21128 38167 48321 5////;
0137067480999992010010515004+46033+007750FM-12+163899999V0202201N000519999999N9999999N1-00321-01391999999ADDMA1999999081661MD1610081+9999ME1313219OA149900261REMSYN076AAXX  05154 06748 33/// /2201 11032 21139 38166 48321 56008 333 91105 91204;
0137067480999992010010516004+46033+007750FM-12+163899999V0202101N000519999999N9999999N1-00471-01341999999ADDMA1999999081671MD1710041+9999ME1313249OA149900261REMSYN076AAXX  05164 06748 33/// /2101 11047 21134 38167 48324 57004 333 91105 91202;
0137067480999992010010517004+46033+007750FM-12+163899999V0202201N001019999999N9999999N1-00581-01301999999ADDMA1999999081651MD1710021+9999ME1313239OA149900151REMSYN076AAXX  05174 06748 33/// /2202 11058 21130 38165 48323 57002 333 91103 91202;
0156067480999992010010518004+46033+007750FM-12+163899999V0202201N000519999999N9999999N1-00631-01361999999ADDKA1120M-00141MA1999999081641MD1710021+9999ME1313239OA149900261REMSYN082AAXX  05184 06748 33/// /2201 11063 21136 38164 48323 57002 333 11014 91105 91204;
0137067480999992010010519004+46033+007750FM-12+163899999V0202101N000519999999N9999999N1-00671-01381999999ADDMA1999999081641MD1710031+9999ME1313239OA149900151REMSYN076AAXX  05194 06748 33/// /2101 11067 21138 38164 48323 57003 333 91103 91202;
0137067480999992010010520004+46033+007750FM-12+163899999V0202201N001019999999N9999999N1-00711-01621999999ADDMA1999999081601MD1710051+9999ME1313209OA149900151REMSYN076AAXX  05204 06748 33/// /2202 11071 21162 38160 48320 57005 333 91103 91202;
0137067480999992010010521004+46033+007750FM-12+163899999V0202301N001019999999N9999999N1-00731-01791999999ADDMA1999999081571MD1810071+9999ME1313179OA149900151REMSYN076AAXX  05214 06748 33/// /2302 11073 21179 38157 48317 58007 333 91103 91202;
0137067480999992010010522004+46033+007750FM-12+163899999V0202301N000519999999N9999999N1-00761-01891999999ADDMA1999999081521MD1810121+9999ME1313139OA149900151REMSYN076AAXX  05224 06748 33/// /2301 11076 21189 38152 48313 58012 333 91103 91202;
0137067480999992010010523004+46033+007750FM-12+163899999V0202101N001019999999N9999999N1-00851-01491999999ADDMA1999999081531MD1710071+9999ME1313159OA149900151REMSYN076AAXX  05234 06748 33/// /2102 11085 21149 38153 48315 57007 333 91103 91202;
0137067480999992010010600004+46033+007750FM-12+163899999V0202201N001019999999N9999999N1-00891-01751999999ADDMA1999999081511MD1710061+9999ME1313149OA149900261REMSYN076AAXX  06004 06748 33/// /2202 11089 21175 38151 48314 57006 333 91105 91204;
0137067480999992010010601004+46033+007750FM-12+163899999V0202201N001019999999N9999999N1-00901-01971999999ADDMA1999999081491MD1710031+9999ME1313129OA149900151REMSYN076AAXX  06014 06748 33/// /2202 11090 21197 38149 48312 57003 333 91103 91203;
0137067480999992010010602004+46033+007750FM-12+163899999V0202201N001019999999N9999999N1-00891-01591999999ADDMA1999999081501MD1710031+9999ME1313139OA149900151REMSYN076AAXX  06024 06748 33/// /2202 11089 21159 38150 48313 57003 333 91103 91202;
0137067480999992010010603004+46033+007750FM-12+163899999V0202201N001019999999N9999999N1-00941-01991999999ADDMA1999999081501MD1510011+9999ME1313139OA149900151REMSYN076AAXX  06034 06748 33/// /2202 11094 21199 38150 48313 55001 333 91103 91203;
0137067480999992010010604004+46033+007750FM-12+163899999V0202301N000519999999N9999999N1-00951-02151999999ADDMA1999999081481MD1810011+9999ME1313119OA149900151REMSYN076AAXX  06044 06748 33/// /2301 11095 21215 38148 48311 58001 333 91103 91202;
0137067480999992010010605004+46033+007750FM-12+163899999V0202201N001019999999N9999999N1-00951-02231999999ADDMA1999999081501MD1510001+9999ME1313139OA149900151REMSYN076AAXX  06054 06748 33/// /2202 11095 21223 38150 48313 55000 333 91103 91202;
0234067480999992010010606004+46033+007750FM-12+163899999V0202201N001019999999N9999999N1-01011-02131999999ADDAA124000091AL19900091GJ102349IA2999-00609KA1999N-01031MA1999999081491MD1010011+9999ME1313139OA149900211REMSYN100AAXX  06064 06748 33/// /2202 11101 21213 38149 48313 50001 333 21103 3/106 55039 70000 91104 91203;EQDQ01  00002PRCP24
0137067480999992010010607004+46033+007750FM-12+163899999V0202101N001019999999N9999999N1-00971-02161999999ADDMA1999999081501MD1210021+9999ME1313149OA149900211REMSYN076AAXX  06074 06748 33/// /2102 11097 21216 38150 48314 52002 333 91104 91202;
0137067480999992010010608004+46033+007750FM-12+163899999V0202301N001019999999N9999999N1-00931-02291999999ADDMA1999999081501MD1510001+9999ME1313139OA149900211REMSYN076AAXX  06084 06748 33/// /2302 11093 21229 38150 48313 55000 333 91104 91203;
0137067480999992010010609004+46033+007750FM-12+163899999V0202201N001019999999N9999999N1-00991-02031999999ADDMA1999999081571MD1310081+9999ME1313219OA149900211REMSYN076AAXX  06094 06748 33/// /2202 11099 21203 38157 48321 53008 333 91104 91203;
0137067480999992010010610004+46033+007750FM-12+163899999V0202201N001519999999N9999999N1-00791-01891999999ADDMA1999999081601MD1210101+9999ME1313219OA149900211REMSYN076AAXX  06104 06748 33/// /2203 11079 21189 38160 48321 52010 333 91104 91203;
0137067480999992010010611004+46033+007750FM-12+163899999V0202101N001519999999N9999999N1-00581-01711999999ADDMA1999999081571MD1019999+9999ME1313159OA149900211REMSYN076AAXX  06114 06748 33/// /2103 11058 21171 38157 48315 50/// 333 91104 91203;
0137067480999992010010612004+46033+007750FM-12+163899999V0202101N001519999999N9999999N1-00411-01431999999ADDMA1999999081501MD1810071+9999ME1313079OA149900461REMSYN076AAXX  06124 06748 33/// /2103 11041 21143 38150 48307 58007 333 91109 91206;
0137067480999992010010613004+46033+007750FM-12+163899999V0200501N003119999999N9999999N1-00531-01371999999ADDMA1999999081511MD1710091+9999ME1313099OA149900511REMSYN076AAXX  06134 06748 33/// /0506 11053 21137 38151 48309 57009 333 91110 91207;
0137067480999992010010614004+46033+007750FM-12+163899999V0200601N001519999999N9999999N1-00571-01311999999ADDMA1999999081561MD1319999+9999ME1313149OA149900511REMSYN076AAXX  06144 06748 33/// /0603 11057 21131 38156 48314 53/// 333 91110 91207;
0137067480999992010010615004+46033+007750FM-12+163899999V0202201N001519999999N9999999N1-00651-01751999999ADDMA1999999081611MD1319999+9999ME1313209OA149900511REMSYN076AAXX  06154 06748 33/// /2203 11065 21175 38161 48320 53/// 333 91110 91207;
0137067480999992010010616004+46033+007750FM-12+163899999V0202201N001519999999N9999999N1-00801-01951999999ADDMA1999999081651MD1110141+9999ME1313269OA149900311REMSYN076AAXX  06164 06748 33/// /2203 11080 21195 38165 48326 51014 333 91106 91204;
0137067480999992010010617004+46033+007750FM-12+163899999V0202201N001019999999N9999999N1-00911-02091999999ADDMA1999999081651MD1210091+9999ME1313279OA149900261REMSYN076AAXX  06174 06748 33/// /2202 11091 21209 38165 48327 52009 333 91105 91204;
0156067480999992010010618004+46033+007750FM-12+163899999V0202201N001019999999N9999999N1-00951-01981999999ADDKA1120M-00361MA1999999081701MD1219999+9999ME1313329OA149900511REMSYN082AAXX  06184 06748 33/// /2202 11095 21198 38170 48332 52/// 333 11036 91110 91207;
0137067480999992010010619004+46033+007750FM-12+163899999V0209999C000519999999N9999999N1-00981-01991999999ADDMA1999999081791MD1210141+9999ME1313419OA149900211REMSYN076AAXX  06194 06748 33/// /0001 11098 21199 38179 48341 52014 333 91104 91202;
0137067480999992010010620004+46033+007750FM-12+163899999V0202101N001019999999N9999999N1-01131-02071999999ADDMA1999999081841MD1310191+9999ME1313489OA149900211REMSYN076AAXX  06204 06748 33/// /2102 11113 21207 38184 48348 53019 333 91104 91202;
0137067480999992010010621004+46033+007750FM-12+163899999V0202201N001519999999N9999999N1-01241-02451999999ADDMA1999999081881MD1110181+9999ME1313539OA149900261REMSYN076AAXX  06214 06748 33/// /2203 11124 21245 38188 48353 51018 333 91105 91204;
0137067480999992010010622004+46033+007750FM-12+163899999V0202101N001019999999N9999999N1-01221-02401999999ADDMA1999999081871MD1010081+9999ME1313529OA149900211REMSYN076AAXX  06224 06748 33/// /2102 11122 21240 38187 48352 50008 333 91104 91203;
0137067480999992010010623004+46033+007750FM-12+163899999V0202201N001519999999N9999999N1-01251-02391999999ADDMA1999999081861MD1010021+9999ME1313519OA149900211REMSYN076AAXX  06234 06748 33/// /2203 11125 21239 38186 48351 50002 333 91104 91203;
0137067480999992010010700004+46033+007750FM-12+163899999V0209999C000019999999N9999999N1-01191-02131999999ADDMA1999999081871MD1710011+9999ME1313519OA149900511REMSYN076AAXX  07004 06748 33/// /0000 11119 21213 38187 48351 57001 333 91110 91207;
0137067480999992010010701004+46033+007750FM-12+163899999V0202201N000519999999N9999999N1-01181-02001999999ADDMA1999999081921MD1310051+9999ME1313569OA149900411REMSYN076AAXX  07014 06748 33/// /2201 11118 21200 38192 48356 53005 333 91108 91204;
0137067480999992010010702004+46033+007750FM-12+163899999V0202101N001519999999N9999999N1-01261-02181999999ADDMA1999999081971MD1219999+9999ME1313629OA149900411REMSYN076AAXX  07024 06748 33/// /2103 11126 21218 38197 48362 52/// 333 91108 91204;
0137067480999992010010703004+46033+007750FM-12+163899999V0202101N001019999999N9999999N1-01311-02331999999ADDMA1999999081971MD1210101+9999ME1313629OA149900411REMSYN076AAXX  07034 06748 33/// /2102 11131 21233 38197 48362 52010 333 91108 91204;
0137067480999992010010704004+46033+007750FM-12+163899999V0202101N001019999999N9999999N1-01311-02041999999ADDMA1999999081981MD1210061+9999ME1313639OA149900211REMSYN076AAXX  07044 06748 33/// /2102 11131 21204 38198 48363 52006 333 91104 91203;
0137067480999992010010705004+46033+007750FM-12+163899999V0202201N001019999999N9999999N1-01351-01981999999ADDMA1999999082011MD1210041+9999ME1313669OA149900211REMSYN076AAXX  07054 06748 33/// /2202 11135 21198 38201 48366 52004 333 91104 91202;
0234067480999992010010706004+46033+007750FM-12+163899999V0202101N001519999999N9999999N1-01351-01981999999ADDAA124000091AL19900091GJ102889IA2999-00709KA1999N-01401MA1999999082041MD1310071+9999ME1313699OA149900411REMSYN100AAXX  07064 06748 33/// /2103 11135 21198 38204 48369 53007 333 21140 3/107 55048 70000 91108 91204;EQDQ01  00002PRCP24
0137067480999992010010707004+46033+007750FM-12+163899999V0202201N001519999999N9999999N1-01301-01991999999ADDMA1999999082081MD1310101+9999ME1313729OA149900261REMSYN076AAXX  07074 06748 33/// /2203 11130 21199 38208 48372 53010 333 91105 91203;
0137067480999992010010708004+46033+007750FM-12+163899999V0202201N001519999999N9999999N1-01231-02081999999ADDMA1999999082121MD1319999+9999ME1313759OA149900261REMSYN076AAXX  07084 06748 33/// /2203 11123 21208 38212 48375 53/// 333 91105 91203;
0137067480999992010010709004+46033+007750FM-12+163899999V0202101N001519999999N9999999N1-01251-02761999999ADDMA1999999082131MD1110091+9999ME1313769OA149900261REMSYN076AAXX  07094 06748 33/// /2103 11125 21276 38213 48376 51009 333 91105 91203;
0137067480999992010010710004+46033+007750FM-12+163899999V0202101N001519999999N9999999N1-00911-02221999999ADDMA1999999082131MD1210051+9999ME1313739OA149900411REMSYN076AAXX  07104 06748 33/// /2103 11091 21222 38213 48373 52005 333 91108 91203;
0137067480999992010010711004+46033+007750FM-12+163899999V0200501N003119999999N9999999N1-00831-02391999999ADDMA1999999082151MD1210031+9999ME1313749OA149900621REMSYN076AAXX  07114 06748 33/// /0506 11083 21239 38215 48374 52003 333 91112 91208;
0137067480999992010010712004+46033+007750FM-12+163899999V0200401N000519999999N9999999N1-00711-02321999999ADDMA1999999082131MD1010001+9999ME1313719OA149900621REMSYN076AAXX  07124 06748 33/// /0401 11071 21232 38213 48371 50000 333 91112 91208;
0137067480999992010010713004+46033+007750FM-12+163899999V0200401N000519999999N9999999N1-00621-01881999999ADDMA1999999082101MD1719999+9999ME1313679OA149900411REMSYN076AAXX  07134 06748 33/// /0401 11062 21188 38210 48367 57/// 333 91108 91205;
0096067480999992010010715004+46033+007750FM-12+163899999V0209999C000019999999N9999999N1-00561-01891999999ADDMA1999999082161ME1313729REMSYN060AAXX  07154 06748 43/// /0000 11056 21189 38216 48372 5////;
0137067480999992010010716004+46033+007750FM-12+163899999V0200301N001519999999N9999999N1-00641-01541999999ADDMA1999999082151MD1219999+9999ME1313729OA149900411REMSYN076AAXX  07164 06748 33/// /0303 11064 21154 38215 48372 52/// 333 91108 91205;
0137067480999992010010717004+46033+007750FM-12+163899999V0200201N001019999999N9999999N1-00671-01601999999ADDMA1999999082221MD1219999+9999ME1313799OA149900361REMSYN076AAXX  07174 06748 33/// /0202 11067 21160 38222 48379 52/// 333 91107 91205;
0156067480999992010010718004+46033+007750FM-12+163899999V0202501N000519999999N9999999N1-00681-01541999999ADDKA1120M-00541MA1999999082241MD1219999+9999ME1313819OA149900621REMSYN082AAXX  07184 06748 33/// /2501 11068 21154 38224 48381 52/// 333 11054 91112 91208;
0137067480999992010010719004+46033+007750FM-12+163899999V0202101N001019999999N9999999N1-00691-01451999999ADDMA1999999082271MD1110121+9999ME1313849OA149900151REMSYN076AAXX  07194 06748 33/// /2102 11069 21145 38227 48384 51012 333 91103 91202;
0137067480999992010010720004+46033+007750FM-12+163899999V0202101N000519999999N9999999N1-00651-01361999999ADDMA1999999082281MD1210061+9999ME1313859OA149900151REMSYN076AAXX  07204 06748 33/// /2101 11065 21136 38228 48385 52006 333 91103 91202;
0137067480999992010010721004+46033+007750FM-12+163899999V0202101N002119999999N9999999N1-00681-01091999999ADDMA1999999082281MD1210041+9999ME1313859OA149900361REMSYN076AAXX  07214 06748 33/// /2104 11068 21109 38228 48385 52004 333 91107 91205;
0137067480999992010010722004+46033+007750FM-12+163899999V0209999C000019999999N9999999N1-00741-01041999999ADDMA1999999082261MD1710011+9999ME1313849OA149900311REMSYN076AAXX  07224 06748 33/// /0000 11074 21104 38226 48384 57001 333 91106 91204;
0137067480999992010010723004+46033+007750FM-12+163899999V0209999C000019999999N9999999N1-00781-00971999999ADDMA1999999082221MD1710061+9999ME1313809OA149900211REMSYN076AAXX  07234 06748 33/// /0000 11078 21097 38222 48380 57006 333 91104 91203;
0137067480999992010010800004+46033+007750FM-12+163899999V0200101N000519999999N9999999N1-00771-00971999999ADDMA1999999082181MD1710101+9999ME1313769OA149900411REMSYN076AAXX  08004 06748 33/// /0101 11077 21097 38218 48376 57010 333 91108 91205;
0137067480999992010010801004+46033+007750FM-12+163899999V0202201N000519999999N9999999N1-00771-00941999999ADDMA1999999082121MD1710141+9999ME1313719OA149900151REMSYN076AAXX  08014 06748 33/// /2201 11077 21094 38212 48371 57014 333 91103 91202;
0137067480999992010010802004+46033+007750FM-12+163899999V0202101N000519999999N9999999N1-00761-00941999999ADDMA1999999082091MD1719999+9999ME1313689OA149900151REMSYN076AAXX  08024 06748 33/// /2101 11076 21094 38209 48368 57/// 333 91103 91202;
0154067480999992010010803004+46033+007750FM-12+163899999V0202101N000519999999N9999999N1-00741-00921999999ADDAA101000021MA1999999082041MD1719999+9999ME1313639OA149900211REMSYN082AAXX  08034 06748 23/// /2101 11074 21092 38204 48363 57/// 333 69915 91104 91203;
0137067480999992010010804004+46033+007750FM-12+163899999V0202201N000519999999N9999999N1-00731-00921999999ADDMA1999999082011MD1710111+9999ME1313609OA149900151REMSYN076AAXX  08044 06748 33/// /2201 11073 21092 38201 48360 57011 333 91103 91202;
0137067480999992010010805004+46033+007750FM-12+163899999V0201901N000519999999N9999999N1-00741-00921999999ADDMA1999999081951MD1610141+9999ME1313549OA149900211REMSYN076AAXX  08054 06748 33/// /1901 11074 21092 38195 48354 56014 333 91104 91202;
0273067480999992010010806004+46033+007750FM-12+163899999V0202201N001019999999N9999999N1-00651-00881999999ADDAA112000091AA224000091AL10600091GJ101209IA2999-00409KA1999N-00801MA1999999081911MD1710131+9999ME1313499OA149900311REMSYN112AAXX  08064 06748 03/// /2202 11065 21088 38191 48349 57013 69912 333 21080 3/104 55020 60005 70001 91106 91204;EQDQ01  00002PRCP24Q02  00002PRCP12
0154067480999992010010807004+46033+007750FM-12+163899999V0202301N000519999999N9999999N1-00651-00831999999ADDAA101000021MA1999999081901MD1710111+9999ME1313489OA149900211REMSYN082AAXX  08074 06748 23/// /2301 11065 21083 38190 48348 57011 333 69915 91104 91202;
0137067480999992010010808004+46033+007750FM-12+163899999V0202401N001519999999N9999999N1-00581-00821999999ADDMA1999999081871MD1710081+9999ME1313449OA149900211REMSYN076AAXX  08084 06748 33/// /2403 11058 21082 38187 48344 57008 333 91104 91203;
0137067480999992010010809004+46033+007750FM-12+163899999V0202301N000519999999N9999999N1-00521-00821999999ADDMA1999999081831MD1810081+9999ME1313409OA149900211REMSYN076AAXX  08094 06748 33/// /2301 11052 21082 38183 48340 58008 333 91104 91203;
0137067480999992010010810004+46033+007750FM-12+163899999V0202001N000519999999N9999999N1-00471-00721999999ADDMA1999999081841MD1710061+9999ME1313409OA149900211REMSYN076AAXX  08104 06748 33/// /2001 11047 21072 38184 48340 57006 333 91104 91202;
0137067480999992010010811004+46033+007750FM-12+163899999V0202001N000519999999N9999999N1-00381-00591999999ADDMA1999999081741MD1710131+9999ME1313309OA149900151REMSYN076AAXX  08114 06748 33/// /2001 11038 21059 38174 48330 57013 333 91103 91202;
0179067480999992010010812004+46033+007750FM-12+163899999V0201901N000519999999N9999999N1-00301-00561999999ADDAA106000091MA1999999081651MD1710181+9999ME1313209OA149900211REMSYN088AAXX  08124 06748 03/// /1901 11030 21056 38165 48320 57018 69911 333 60005 91104 91203;EQDQ01  00002PRCP06
0137067480999992010010813004+46033+007750FM-12+163899999V0202301N001019999999N9999999N1-00191-00621999999ADDMA1999999081561MD1710281+9999ME1313109OA149900211REMSYN076AAXX  08134 06748 33/// /2302 11019 21062 38156 48310 57028 333 91104 91203;
0143067480999992010010814004+46033+007750FM-12+163899999V0202101N001019999999N9999999N1-00171-00561999999ADDMA1999999081531MD1619999+9999ME1313069OA149900211REMSYN082AAXX  08144 06748 33/// /2102 11017 21056 38153 48306 56/// 91340 333 91104 91203;
0137067480999992010010815004+46033+007750FM-12+163899999V0202101N000519999999N9999999N1-00191-00491999999ADDMA1999999081511MD1710141+9999ME1313059OA149900261REMSYN076AAXX  08154 06748 33/// /2101 11019 21049 38151 48305 57014 333 91105 91203;
0137067480999992010010816004+46033+007750FM-12+163899999V0202301N000519999999N9999999N1-00181-00471999999ADDMA1999999081511MD1710051+9999ME1313059OA149900261REMSYN076AAXX  08164 06748 33/// /2301 11018 21047 38151 48305 57005 333 91105 91203;
0137067480999992010010817004+46033+007750FM-12+163899999V0201601N000519999999N9999999N1-00341-00481999999ADDMA1999999081541MD1210031+9999ME1313109OA149900261REMSYN076AAXX  08174 06748 33/// /1601 11034 21048 38154 48310 52003 333 91105 91202;
0198067480999992010010818004+46033+007750FM-12+163899999V0200401N002119999999N9999999N1-00601-00651999999ADDAA112000091KA1120M-00161MA1999999081571MD1210061+9999ME1313169OA149900361REMSYN094AAXX  08184 06748 03/// /0404 11060 21065 38157 48316 52006 69912 333 11016 60005 91107 91204;EQDQ01  00002PRCP12
0137067480999992010010819004+46033+007750FM-12+163899999V0202201N001019999999N9999999N1-00461-00591999999ADDMA1999999081581MD1210071+9999ME1313159OA149900361REMSYN076AAXX  08194 06748 33/// /2202 11046 21059 38158 48315 52007 333 91107 91204;
0137067480999992010010820004+46033+007750FM-12+163899999V0202101N000519999999N9999999N1-00381-00541999999ADDMA1999999081581MD1010041+9999ME1313149OA149900261REMSYN076AAXX  08204 06748 33/// /2101 11038 21054 38158 48314 50004 333 91105 91203;
0137067480999992010010821004+46033+007750FM-12+163899999V0202201N001519999999N9999999N1-00441-00611999999ADDMA1999999081631MD1210061+9999ME1313209OA149900361REMSYN076AAXX  08214 06748 33/// /2203 11044 21061 38163 48320 52006 333 91107 91204;
0137067480999992010010822004+46033+007750FM-12+163899999V0202501N000519999999N9999999N1-00371-00711999999ADDMA1999999081651MD1210071+9999ME1313219OA149900211REMSYN076AAXX  08224 06748 33/// /2501 11037 21071 38165 48321 52007 333 91104 91203;
0137067480999992010010823004+46033+007750FM-12+163899999V0202301N001019999999N9999999N1-00421-00781999999ADDMA1999999081631MD1210051+9999ME1313199OA149900211REMSYN076AAXX  08234 06748 33/// /2302 11042 21078 38163 48319 52005 333 91104 91203;
0137067480999992010010900004+46033+007750FM-12+163899999V0202201N001019999999N9999999N1-00731-00861999999ADDMA1999999081621MD1810011+9999ME1313229OA149900361REMSYN076AAXX  09004 06748 33/// /2202 11073 21086 38162 48322 58001 333 91107 91204;
0137067480999992010010901004+46033+007750FM-12+163899999V0202201N001019999999N9999999N1-00521-00871999999ADDMA1999999081591MD1710061+9999ME1313179OA149900211REMSYN076AAXX  09014 06748 33/// /2202 11052 21087 38159 48317 57006 333 91104 91202;
0137067480999992010010902004+46033+007750FM-12+163899999V0200401N001519999999N9999999N1-00901-00941999999ADDMA1999999081611MD1519999+9999ME1313239OA149900621REMSYN076AAXX  09024 06748 33/// /0403 11090 21094 38161 48323 55/// 333 91112 91203;
0137067480999992010010903004+46033+007750FM-12+163899999V0202201N001519999999N9999999N1-00911-00941999999ADDMA1999999081621MD1519999+9999ME1313249OA149900621REMSYN076AAXX  09034 06748 33/// /2203 11091 21094 38162 48324 55/// 333 91112 91205;
0137067480999992010010904004+46033+007750FM-12+163899999V0202101N001019999999N9999999N1-00831-01041999999ADDMA1999999081571MD1810021+9999ME1313199OA149900411REMSYN076AAXX  09044 06748 33/// /2102 11083 21104 38157 48319 58002 333 91108 91205;
0137067480999992010010905004+46033+007750FM-12+163899999V0202301N000519999999N9999999N1-00681-01101999999ADDMA1999999081511MD1810101+9999ME1313119OA149900211REMSYN076AAXX  09054 06748 33/// /2301 11068 21110 38151 48311 58010 333 91104 91203;
0234067480999992010010906004+46033+007750FM-12+163899999V0209999C000019999999N9999999N1-00831-01071999999ADDAA124000091AL10600091GJ100009IA2999-00509KA1999N-00921MA1999999081491MD1710131+9999ME1313119OA149900621REMSYN100AAXX  09064 06748 33/// /0000 11083 21107 38149 48311 57013 333 21092 3/105 55000 70001 91112 91205;EQDQ01  00002PRCP24
0137067480999992010010907004+46033+007750FM-12+163899999V0202101N001019999999N9999999N1-00701-01001999999ADDMA1999999081471MD1610101+9999ME1313079OA149900211REMSYN076AAXX  09074 06748 33/// /2102 11070 21100 38147 48307 56010 333 91104 91203;
0137067480999992010010908004+46033+007750FM-12+163899999V0203601N000519999999N9999999N1-00931-00951999999ADDMA1999999081501MD1510011+9999ME1313139OA149900511REMSYN076AAXX  09084 06748 33/// /3601 11093 21095 38150 48313 55001 333 91110 91205;
0137067480999992010010909004+46033+007750FM-12+163899999V0200401N004119999999N9999999N1-00851-00951999999ADDMA1999999081441MD1710051+9999ME1313069OA149900671REMSYN076AAXX  09094 06748 33/// /0408 11085 21095 38144 48306 57005 333 91113 91208;
0137067480999992010010910004+46033+007750FM-12+163899999V0200401N001519999999N9999999N1-00761-00901999999ADDMA1999999081421MD1710051+9999ME1313039OA149900671REMSYN076AAXX  09104 06748 33/// /0403 11076 21090 38142 48303 57005 333 91113 91208;
0137067480999992010010911004+46033+007750FM-12+163899999V0200401N003119999999N9999999N1-00691-00861999999ADDMA1999999081381MD1710121+9999ME1312989OA149900571REMSYN076AAXX  09114 06748 33/// /0406 11069 21086 38138 48298 57012 333 91111 91206;
0137067480999992010010912004+46033+007750FM-12+163899999V0201901N000519999999N9999999N1-00701-00811999999ADDMA1999999081401MD1710041+9999ME1313019OA149900671REMSYN076AAXX  09124 06748 33/// /1901 11070 21081 38140 48301 57004 333 91113 91208;
0154067480999992010010913004+46033+007750FM-12+163899999V0209999C000019999999N9999999N1-00621-00731999999ADDAA101000591MA1999999081321MD1810101+9999ME1312929OA149900461REMSYN082AAXX  09134 06748 23/// /0000 11062 21073 38132 48292 58010 333 69965 91109 91206;
0154067480999992010010914004+46033+007750FM-12+163899999V0200401N002119999999N9999999N1-00771-00891999999ADDAA101000021MA1999999081351MD1710031+9999ME1312979OA149900721REMSYN082AAXX  09144 06748 23/// /0404 11077 21089 38135 48297 57003 333 69925 91114 91208;
0154067480999992010010915004+46033+007750FM-12+163899999V0200401N003119999999N9999999N1-00761-00921999999ADDAA101000021MA1999999081411MD1310011+9999ME1313029OA149900721REMSYN082AAXX  09154 06748 23/// /0406 11076 21092 38141 48302 53001 333 69925 91114 91208;
0154067480999992010010916004+46033+007750FM-12+163899999V0200401N002119999999N9999999N1-00801-00931999999ADDAA101000391MA1999999081431MD1210111+9999ME1313059OA149900511REMSYN082AAXX  09164 06748 23/// /0404 11080 21093 38143 48305 52011 333 69935 91110 91207;
0154067480999992010010917004+46033+007750FM-12+163899999V0200401N000519999999N9999999N1-00831-00961999999ADDAA101000591MA1999999081431MD1210081+9999ME1313059OA149900461REMSYN082AAXX  09174 06748 23/// /0401 11083 21096 38143 48305 52008 333 69955 91109 91206;
0179067480999992010010918004+46033+007750FM-12+163899999V0200501N001519999999N9999999N1-00851-00951999999ADDAA112002091KA1120M-00581MA1999999081481MD1210071+9999ME1313109OA149900721REMSYN094AAXX  09184 06748 03/// /0503 11085 21095 38148 48310 52007 60022 333 11058 69925 91114 91208;
0137067480999992010010919004+46033+007750FM-12+163899999V0203301N000519999999N9999999N1-00901-01031999999ADDMA1999999081581MD1210151+9999ME1313209OA149900461REMSYN076AAXX  09194 06748 33/// /3301 11090 21103 38158 48320 52015 333 91109 91206;
0137067480999992010010920004+46033+007750FM-12+163899999V0202901N000519999999N9999999N1-00831-01051999999ADDMA1999999081611MD1210181+9999ME1313229OA149900461REMSYN076AAXX  09204 06748 33/// /2901 11083 21105 38161 48322 52018 333 91109 91206;
0137067480999992010010921004+46033+007750FM-12+163899999V0200101N001019999999N9999999N1-00891-01021999999ADDMA1999999081621MD1210141+9999ME1313249OA149900461REMSYN076AAXX  09214 06748 33/// /0102 11089 21102 38162 48324 52014 333 91109 91206;
0137067480999992010010922004+46033+007750FM-12+163899999V0200101N000519999999N9999999N1-00931-01051999999ADDMA1999999081651MD1210071+9999ME1313279OA149900361REMSYN076AAXX  09224 06748 33/// /0101 11093 21105 38165 48327 52007 333 91107 91205;
0137067480999992010010923004+46033+007750FM-12+163899999V0200501N001519999999N9999999N1-00981-01031999999ADDMA1999999081721MD1310111+9999ME1313359OA149900411REMSYN076AAXX  09234 06748 33/// /0503 11098 21103 38172 48335 53011 333 91108 91205;
0137067480999992010011000004+46033+007750FM-12+163899999V0200801N000519999999N9999999N1-00961-01051999999ADDMA1999999081721MD1210101+9999ME1313349OA149900721REMSYN076AAXX  10004 06748 33/// /0801 11096 21105 38172 48334 52010 333 91114 91208;
0137067480999992010011001004+46033+007750FM-12+163899999V0200101N001019999999N9999999N1-01001-01101999999ADDMA1999999081761MD1210111+9999ME1313399OA149900211REMSYN076AAXX  10014 06748 33/// /0102 11100 21110 38176 48339 52011 333 91104 91202;
0096067480999992010011002004+46033+007750FM-12+163899999V0200201N001019999999N9999999N1-00991-01131999999ADDMA1999999081801ME1313429REMSYN060AAXX  10024 06748 33/// /0202 11099 21113 38180 48342 5////;
0096067480999992010011003004+46033+007750FM-12+163899999V0200401N001519999999N9999999N1-01071-01141999999ADDMA1999999081841ME1313479REMSYN060AAXX  10034 06748 43/// /0403 11107 21114 38184 48347 5////;
0137067480999992010011004004+46033+007750FM-12+163899999V0200501N001019999999N9999999N1-01051-01111999999ADDMA1999999081911MD1310151+9999ME1313549OA149900361REMSYN076AAXX  10044 06748 33/// /0502 11105 21111 38191 48354 53015 333 91107 91205;
0137067480999992010011005004+46033+007750FM-12+163899999V0202301N000519999999N9999999N1-01061-01201999999ADDMA1999999081951MD1110151+9999ME1313579OA149900361REMSYN076AAXX  10054 06748 33/// /2301 11106 21120 38195 48357 51015 333 91107 91205;
0215067480999992010011006004+46033+007750FM-12+163899999V0200601N000519999999N9999999N1-01071-01161999999ADDAA124002091AL19900291GJ100009IA2999-00309KA1999N-01111MA1999999082001MD1210161+9999ME1313629OA149900461REMSYN100AAXX  10064 06748 33/// /0601 11107 21116 38200 48362 52016 333 21111 3/103 55000 70020 91109 91206;
0137067480999992010011007004+46033+007750FM-12+163899999V0201801N000519999999N9999999N1-01101-01221999999ADDMA1999999082091MD1210181+9999ME1313719OA149900261REMSYN076AAXX  10074 06748 33/// /1801 11110 21122 38209 48371 52018 333 91105 91203;
0137067480999992010011008004+46033+007750FM-12+163899999V0202201N001519999999N9999999N1-01061-01251999999ADDMA1999999082151MD1219999+9999ME1313769OA149900211REMSYN076AAXX  10084 06748 33/// /2203 11106 21125 38215 48376 52/// 333 91104 91203;
0137067480999992010011009004+46033+007750FM-12+163899999V0202001N000519999999N9999999N1-01101-01291999999ADDMA1999999082211MD1110211+9999ME1313829OA149900361REMSYN076AAXX  10094 06748 33/// /2001 11110 21129 38221 48382 51021 333 91107 91205;
0137067480999992010011010004+46033+007750FM-12+163899999V0200601N000519999999N9999999N1-01041-01181999999ADDMA1999999082281MD1310191+9999ME1313889OA149900211REMSYN076AAXX  10104 06748 33/// /0601 11104 21118 38228 48388 53019 333 91104 91203;
0137067480999992010011011004+46033+007750FM-12+163899999V0201901N001519999999N9999999N1-00851-01181999999ADDMA1999999082291MD1210141+9999ME1313889OA149900261REMSYN076AAXX  10114 06748 33/// /1903 11085 21118 38229 48388 52014 333 91105 91203;
0137067480999992010011012004+46033+007750FM-12+163899999V0200501N003119999999N9999999N1-00811-01061999999ADDMA1999999082271MD1010061+9999ME1313859OA149900461REMSYN076AAXX  10124 06748 33/// /0506 11081 21106 38227 48385 50006 333 91109 91206;
0137067480999992010011013004+46033+007750FM-12+163899999V0200801N000519999999N9999999N1-00881-01051999999ADDMA1999999082331MD1310051+9999ME1313929OA149900571REMSYN076AAXX  10134 06748 33/// /0801 11088 21105 38233 48392 53005 333 91111 91208;
0137067480999992010011014004+46033+007750FM-12+163899999V0200501N002119999999N9999999N1-00791-01001999999ADDMA1999999082331MD1219999+9999ME1313919OA149900571REMSYN076AAXX  10144 06748 33/// /0504 11079 21100 38233 48391 52/// 333 91111 91208;
0137067480999992010011015004+46033+007750FM-12+163899999V0200301N001519999999N9999999N1-00951-01061999999ADDMA1999999082411MD1210141+9999ME1314009OA149900571REMSYN076AAXX  10154 06748 33/// /0303 11095 21106 38241 48400 52014 333 91111 91208;
0137067480999992010011016004+46033+007750FM-12+163899999V0200501N001519999999N9999999N1-00921-01011999999ADDMA1999999082471MD1310141+9999ME1314059OA149900411REMSYN076AAXX  10164 06748 33/// /0503 11092 21101 38247 48405 53014 333 91108 91205;
0137067480999992010011017004+46033+007750FM-12+163899999V0201701N000519999999N9999999N1-00941-01071999999ADDMA1999999082531MD1210201+9999ME1314119OA149900261REMSYN076AAXX  10174 06748 33/// /1701 11094 21107 38253 48411 52020 333 91105 91203;
0156067480999992010011018004+46033+007750FM-12+163899999V0201301N000519999999N9999999N1-00961-01131999999ADDKA1120M-00701MA1999999082591MD1110181+9999ME1314179OA149900571REMSYN082AAXX  10184 06748 33/// /1301 11096 21113 38259 48417 51018 333 11070 91111 91208;
0137067480999992010011019004+46033+007750FM-12+163899999V0202101N001019999999N9999999N1-01131-01271999999ADDMA1999999082571MD1210101+9999ME1314169OA149900361REMSYN076AAXX  10194 06748 33/// /2102 11113 21127 38257 48416 52010 333 91107 91206;
0137067480999992010011020004+46033+007750FM-12+163899999V0201301N000519999999N9999999N1-01141-01281999999ADDMA1999999082651MD1210121+9999ME1314249OA149900461REMSYN076AAXX  10204 06748 33/// /1301 11114 21128 38265 48424 52012 333 91109 91206;
0137067480999992010011021004+46033+007750FM-12+163899999V0202301N002119999999N9999999N1-01141-01351999999ADDMA1999999082611MD1210021+9999ME1314209OA149900461REMSYN076AAXX  10214 06748 33/// /2304 11114 21135 38261 48420 52002 333 91109 91206;
0137067480999992010011022004+46033+007750FM-12+163899999V0202101N001519999999N9999999N1-01231-02182999999ADDMA1999999082631MD1010061+9999ME1314239OA149900361REMSYN076AAXX  10224 06748 33/// /2103 11123 21218 38263 48423 50006 333 91107 91205;
0137067480999992010011023004+46033+007750FM-12+163899999V0202101N001019999999N9999999N1-01221-01881999999ADDMA1999999082641MD1510011+9999ME1314249OA149900211REMSYN076AAXX  10234 06748 33/// /2102 11122 21188 38264 48424 55001 333 91104 91203;
0137067480999992010011100004+46033+007750FM-12+163899999V0202101N001519999999N9999999N1-01201-01961999999ADDMA1999999082591MD1810021+9999ME1314199OA149900571REMSYN076AAXX  11004 06748 33/// /2103 11120 21196 38259 48419 58002 333 91111 91208;
0137067480999992010011101004+46033+007750FM-12+163899999V0202201N001019999999N9999999N1-01111-01791999999ADDMA1999999082591MD1710041+9999ME1314189OA149900211REMSYN076AAXX  11014 06748 33/// /2202 11111 21179 38259 48418 57004 333 91104 91203;
0137067480999992010011102004+46033+007750FM-12+163899999V0202101N001019999999N9999999N1-01141-01731999999ADDMA1999999082621MD1519999+9999ME1314219OA149900211REMSYN076AAXX  11024 06748 33/// /2102 11114 21173 38262 48421 55/// 333 91104 91203;
0137067480999992010011103004+46033+007750FM-12+163899999V0202201N001019999999N9999999N1-01151-01831999999ADDMA1999999082641MD1219999+9999ME1314239OA149900211REMSYN076AAXX  11034 06748 33/// /2202 11115 21183 38264 48423 52/// 333 91104 91203;
0137067480999992010011104004+46033+007750FM-12+163899999V0202201N001019999999N9999999N1-01171-02171999999ADDMA1999999082631MD1010041+9999ME1314229OA149900151REMSYN076AAXX  11044 06748 33/// /2202 11117 21217 38263 48422 50004 333 91103 91203;
0137067480999992010011105004+46033+007750FM-12+163899999V0202201N001019999999N9999999N1-01091-02281999999ADDMA1999999082641MD1310021+9999ME1314239OA149900151REMSYN076AAXX  11054 06748 33/// /2202 11109 21228 38264 48423 53002 333 91103 91203;
0234067480999992010011106004+46033+007750FM-12+163899999V0202201N001019999999N9999999N1-01091-02331999999ADDAA124000091AL19900091GJ102829IA2999-00409KA1999N-01291MA1999999082631MD1510011+9999ME1314229OA149900461REMSYN100AAXX  11064 06748 33/// /2202 11109 21233 38263 48422 55001 333 21129 3/104 55047 70000 91109 91206;EQDQ01  00002PRCP24
0137067480999992010011107004+46033+007750FM-12+163899999V0202201N001019999999N9999999N1-01071-02221999999ADDMA1999999082631MD1010001+9999ME1314229OA149900151REMSYN076AAXX  11074 06748 33/// /2202 11107 21222 38263 48422 50000 333 91103 91203;
0137067480999992010011108004+46033+007750FM-12+163899999V0202201N001019999999N9999999N1-01091-02121999999ADDMA1999999082631MD1719999+9999ME1314229OA149900151REMSYN076AAXX  11084 06748 33/// /2202 11109 21212 38263 48422 57/// 333 91103 91203;
0137067480999992010011109004+46033+007750FM-12+163899999V0202201N001019999999N9999999N1-01061-02011999999ADDMA1999999082651MD1310021+9999ME1314239OA149900151REMSYN076AAXX  11094 06748 33/// /2202 11106 21201 38265 48423 53002 333 91103 91203;
0137067480999992010011110004+46033+007750FM-12+163899999V0202201N001019999999N9999999N1-00831-01661999999ADDMA1999999082631MD1019999+9999ME1314209OA149900151REMSYN076AAXX  11104 06748 33/// /2202 11083 21166 38263 48420 50/// 333 91103 91203;
0156067480999992010011111004+46033+007750FM-12+163899999V0202101N001019999999N9999999N1-00571-01231999999ADDMA1999999082631MD1410001+9999ME1314179OA149900151REMSYN076AAXX  11114 06748 33/// /2102 11057 21123 38263 48417 58000 333 91103 91203;EQDQ01+000082APCTEN
0137067480999992010011112004+46033+007750FM-12+163899999V0200501N001519999999N9999999N1-00581-01421999999ADDMA1999999082621MD1710031+9999ME1314169OA149900311REMSYN076AAXX  11124 06748 33/// /0503 11058 21142 38262 48416 57003 333 91106 91204;
0137067480999992010011113004+46033+007750FM-12+163899999V0200501N002619999999N9999999N1-00441-01331999999ADDMA1999999082601MD1810031+9999ME1314139OA149900361REMSYN076AAXX  11134 06748 33/// /0505 11044 21133 38260 48413 58003 333 91107 91205;
0096067480999992010011114004+46033+007750FM-12+163899999V0209999C000019999999N9999999N1-00441-01161999999ADDMA1999999082641ME1314179REMSYN060AAXX  11144 06748 33/// /0000 11044 21116 38264 48417 5////;
0137067480999992010011115004+46033+007750FM-12+163899999V0202601N000519999999N9999999N1-00661-01181999999ADDMA1999999082671MD1210051+9999ME1314229OA149900461REMSYN076AAXX  11154 06748 33/// /2601 11066 21118 38267 48422 52005 333 91109 91205;
0137067480999992010011116004+46033+007750FM-12+163899999V0202101N001019999999N9999999N1-00811-01721999999ADDMA1999999082691MD1210091+9999ME1314259OA149900461REMSYN076AAXX  11164 06748 33/// /2102 11081 21172 38269 48425 52009 333 91109 91205;
0137067480999992010011117004+46033+007750FM-12+163899999V0202101N001019999999N9999999N1-00971-01831999999ADDMA1999999082751MD1210111+9999ME1314329OA149900151REMSYN076AAXX  11174 06748 33/// /2102 11097 21183 38275 48432 52011 333 91103 91202;
0156067480999992010011118004+46033+007750FM-12+163899999V0202201N000519999999N9999999N1-01001-01621999999ADDKA1120M-00401MA1999999082781MD1210111+9999ME1314359OA149900461REMSYN082AAXX  11184 06748 33/// /2201 11100 21162 38278 48435 52011 333 11040 91109 91205;
0137067480999992010011119004+46033+007750FM-12+163899999V0202001N001019999999N9999999N1-01051-02001999999ADDMA1999999082821MD1110131+9999ME1314399OA149900151REMSYN076AAXX  11194 06748 33/// /2002 11105 21200 38282 48439 51013 333 91103 91202;
0137067480999992010011120004+46033+007750FM-12+163899999V0202201N001019999999N9999999N1-01061-02251999999ADDMA1999999082831MD1110081+9999ME1314409OA149900151REMSYN076AAXX  11204 06748 33/// /2202 11106 21225 38283 48440 51008 333 91103 91202;
0137067480999992010011121004+46033+007750FM-12+163899999V0202101N001019999999N9999999N1-01081-02141999999ADDMA1999999082841MD1210061+9999ME1314419OA149900151REMSYN076AAXX  11214 06748 33/// /2102 11108 21214 38284 48441 52006 333 91103 91203;
0137067480999992010011122004+46033+007750FM-12+163899999V0202201N001019999999N9999999N1-01061-02141999999ADDMA1999999082851MD1210031+9999ME1314429OA149900151REMSYN076AAXX  11224 06748 33/// /2202 11106 21214 38285 48442 52003 333 91103 91203;
0137067480999992010011123004+46033+007750FM-12+163899999V0202101N001019999999N9999999N1-01131-02291999999ADDMA1999999082861MD1210031+9999ME1314449OA149900151REMSYN076AAXX  11234 06748 33/// /2102 11113 21229 38286 48444 52003 333 91103 91202;
0137067480999992010011200004+46033+007750FM-12+163899999V0202201N001019999999N9999999N1-01051-02341999999ADDMA1999999082871MD1210031+9999ME1314449OA149900461REMSYN076AAXX  12004 06748 33/// /2202 11105 21234 38287 48444 52003 333 91109 91205;
0137067480999992010011201004+46033+007750FM-12+163899999V0202101N001019999999N9999999N1-01021-02221999999ADDMA1999999082831MD1810021+9999ME1314409OA149900211REMSYN076AAXX  12014 06748 33/// /2102 11102 21222 38283 48440 58002 333 91104 91203;
0137067480999992010011202004+46033+007750FM-12+163899999V0202201N001019999999N9999999N1-01001-02231999999ADDMA1999999082831MD1719999+9999ME1314409OA149900211REMSYN076AAXX  12024 06748 33/// /2202 11100 21223 38283 48440 57/// 333 91104 91203;
0137067480999992010011203004+46033+007750FM-12+163899999V0202101N001019999999N9999999N1-01041-02021999999ADDMA1999999082831MD1710041+9999ME1314409OA149900211REMSYN076AAXX  12034 06748 33/// /2102 11104 21202 38283 48440 57004 333 91104 91203;
0137067480999992010011204004+46033+007750FM-12+163899999V0202301N001519999999N9999999N1-00991-02331999999ADDMA1999999082811MD1710021+9999ME1314389OA149900211REMSYN076AAXX  12044 06748 33/// /2303 11099 21233 38281 48438 57002 333 91104 91203;
0137067480999992010011205004+46033+007750FM-12+163899999V0202201N001019999999N9999999N1-01011-02231999999ADDMA1999999082791MD1710041+9999ME1314369OA149900211REMSYN076AAXX  12054 06748 33/// /2202 11101 21223 38279 48436 57004 333 91104 91203;
0234067480999992010011206004+46033+007750FM-12+163899999V0202101N001519999999N9999999N1-01031-02171999999ADDAA124000091AL19900091GJ102889IA2999-00409KA1999N-01141MA1999999082781MD1710051+9999ME1314359OA149900211REMSYN100AAXX  12064 06748 33/// /2103 11103 21217 38278 48435 57005 333 21114 3/104 55048 70000 91104 91203;EQDQ01  00002PRCP24
0137067480999992010011207004+46033+007750FM-12+163899999V0202201N001019999999N9999999N1-01101-01971999999ADDMA1999999082771MD1710041+9999ME1314359OA149900211REMSYN076AAXX  12074 06748 33/// /2202 11110 21197 38277 48435 57004 333 91104 91203;
0137067480999992010011208004+46033+007750FM-12+163899999V0202201N001019999999N9999999N1-01031-02051999999ADDMA1999999082741MD1719999+9999ME1314329OA149900211REMSYN076AAXX  12084 06748 33/// /2202 11103 21205 38274 48432 57/// 333 91104 91203;
0137067480999992010011209004+46033+007750FM-12+163899999V0202201N001019999999N9999999N1-00971-02041999999ADDMA1999999082721MD1810061+9999ME1314299OA149900211REMSYN076AAXX  12094 06748 33/// /2202 11097 21204 38272 48429 58006 333 91104 91203;
0137067480999992010011210004+46033+007750FM-12+163899999V0202101N001519999999N9999999N1-00841-01781999999ADDMA1999999082681MD1810091+9999ME1314249OA149900211REMSYN076AAXX  12104 06748 33/// /2103 11084 21178 38268 48424 58009 333 91104 91203;
0137067480999992010011211004+46033+007750FM-12+163899999V0202101N001519999999N9999999N1-00441-01201999999ADDMA1999999082591MD1810151+9999ME1314129OA149900211REMSYN076AAXX  12114 06748 33/// /2103 11044 21120 38259 48412 58015 333 91104 91203;
0137067480999992010011212004+46033+007750FM-12+163899999V0202101N001019999999N9999999N1-00231-01141999999ADDMA1999999082511MD1810211+9999ME1314039OA149900211REMSYN076AAXX  12124 06748 33/// /2102 11023 21114 38251 48403 58021 333 91104 91203;
0137067480999992010011213004+46033+007750FM-12+163899999V0200501N002619999999N9999999N1-00231-01411999999ADDMA1999999082471MD1610211+9999ME1313999OA149900411REMSYN076AAXX  12134 06748 33/// /0505 11023 21141 38247 48399 56021 333 91108 91205;
0096067480999992010011214004+46033+007750FM-12+163899999V0202101N001519999999N9999999N1-00161-01381999999ADDMA1999999082451ME1313969REMSYN060AAXX  12144 06748 33/// /2103 11016 21138 38245 48396 5////;
0137067480999992010011215004+46033+007750FM-12+163899999V0202201N001519999999N9999999N1-00431-01411999999ADDMA1999999082401MD1810111+9999ME1313949OA149900411REMSYN076AAXX  12154 06748 33/// /2203 11043 21141 38240 48394 58011 333 91108 91205;
0137067480999992010011216004+46033+007750FM-12+163899999V0202201N000519999999N9999999N1-00551-01741999999ADDMA1999999082341MD1810131+9999ME1313899OA149900311REMSYN076AAXX  12164 06748 33/// /2201 11055 21174 38234 48389 58013 333 91106 91204;
0137067480999992010011217004+46033+007750FM-12+163899999V0202201N001019999999N9999999N1-00691-01481999999ADDMA1999999082351MD1710101+9999ME1313929OA149900211REMSYN076AAXX  12174 06748 33/// /2202 11069 21148 38235 48392 57010 333 91104 91203;
0156067480999992010011218004+46033+007750FM-12+163899999V0202301N001019999999N9999999N1-00761-01571999999ADDKA1120M-00141MA1999999082341MD1710061+9999ME1313919OA149900411REMSYN082AAXX  12184 06748 33/// /2302 11076 21157 38234 48391 57006 333 11014 91108 91205;
0137067480999992010011219004+46033+007750FM-12+163899999V0202101N001519999999N9999999N1-00871-01871999999ADDMA1999999082401MD1210061+9999ME1313989OA149900211REMSYN076AAXX  12194 06748 33/// /2103 11087 21187 38240 48398 52006 333 91104 91203;
0137067480999992010011220004+46033+007750FM-12+163899999V0202101N001019999999N9999999N1-00931-01941999999ADDMA1999999082401MD1210051+9999ME1313999OA149900211REMSYN076AAXX  12204 06748 33/// /2102 11093 21194 38240 48399 52005 333 91104 91203;
0137067480999992010011221004+46033+007750FM-12+163899999V0202001N000519999999N9999999N1-00831-01491999999ADDMA1999999082351MD1010011+9999ME1313939OA149900211REMSYN076AAXX  12214 06748 33/// /2001 11083 21149 38235 48393 50001 333 91104 91203;
0137067480999992010011222004+46033+007750FM-12+163899999V0202201N001519999999N9999999N1-00731-01731999999ADDMA1999999082321MD1710081+9999ME1313899OA149900211REMSYN076AAXX  12224 06748 33/// /2203 11073 21173 38232 48389 57008 333 91104 91203;
0137067480999992010011223004+46033+007750FM-12+163899999V0202201N000519999999N9999999N1-00711-01241999999ADDMA1999999082271MD1710131+9999ME1313849OA149900211REMSYN076AAXX  12234 06748 33/// /2201 11071 21124 38227 48384 57013 333 91104 91203;
0137067480999992010011300004+46033+007750FM-12+163899999V0202101N001019999999N9999999N1-00671-01161999999ADDMA1999999082301MD1510051+9999ME1313879OA149900411REMSYN076AAXX  13004 06748 33/// /2102 11067 21116 38230 48387 55005 333 91108 91205;
0137067480999992010011301004+46033+007750FM-12+163899999V0200301N001019999999N9999999N1-00601-01171999999ADDMA1999999082351MD1310031+9999ME1313919OA149900151REMSYN076AAXX  13014 06748 33/// /0302 11060 21117 38235 48391 53003 333 91103 91202;
0137067480999992010011302004+46033+007750FM-12+163899999V0202101N000519999999N9999999N1-00691-00901999999ADDMA1999999082321MD1219999+9999ME1313899OA149900211REMSYN076AAXX  13024 06748 33/// /2101 11069 21090 38232 48389 52/// 333 91104 91203;
0137067480999992010011303004+46033+007750FM-12+163899999V0201801N000519999999N9999999N1-00671-00931999999ADDMA1999999082241MD1819999+9999ME1313819OA149900211REMSYN076AAXX  13034 06748 33/// /1801 11067 21093 38224 48381 58/// 333 91104 91203;
0137067480999992010011304004+46033+007750FM-12+163899999V0202201N001019999999N9999999N1-00691-00971999999ADDMA1999999082211MD1610141+9999ME1313789OA149900151REMSYN076AAXX  13044 06748 33/// /2202 11069 21097 38221 48378 56014 333 91103 91202;
0137067480999992010011305004+46033+007750FM-12+163899999V0202101N001019999999N9999999N1-00681-00971999999ADDMA1999999082221MD1710101+9999ME1313799OA149900151REMSYN076AAXX  13054 06748 33/// /2102 11068 21097 38222 48379 57010 333 91103 91202;
0234067480999992010011306004+46033+007750FM-12+163899999V0202401N000519999999N9999999N1-00661-01021999999ADDAA124000091AL19900091GJ102889IA2999-00309KA1999N-00931MA1999999082211MD1510031+9999ME1313789OA149900211REMSYN100AAXX  13064 06748 33/// /2401 11066 21102 38221 48378 55003 333 21093 3/103 55048 70000 91104 91203;EQDQ01  00002PRCP24
0137067480999992010011307004+46033+007750FM-12+163899999V0202301N000519999999N9999999N1-00671-01001999999ADDMA1999999082271MD1210061+9999ME1313849OA149900151REMSYN076AAXX  13074 06748 33/// /2301 11067 21100 38227 48384 52006 333 91103 91202;
0137067480999992010011308004+46033+007750FM-12+163899999V0202101N000519999999N9999999N1-00641-00891999999ADDMA1999999082321MD1210101+9999ME1313889OA149900151REMSYN076AAXX  13084 06748 33/// /2101 11064 21089 38232 48388 52010 333 91103 91202;
0137067480999992010011309004+46033+007750FM-12+163899999V0200701N000519999999N9999999N1-00571-00891999999ADDMA1999999082341MD1110131+9999ME1313909OA149900151REMSYN076AAXX  13094 06748 33/// /0701 11057 21089 38234 48390 51013 333 91103 91202;
0137067480999992010011310004+46033+007750FM-12+163899999V0209999C000019999999N9999999N1-00511-00861999999ADDMA1999999082381MD1310111+9999ME1313939OA149900151REMSYN076AAXX  13104 06748 33/// /0000 11051 21086 38238 48393 53011 333 91103 91202;
0137067480999992010011311004+46033+007750FM-12+163899999V0200501N002119999999N9999999N1-00471-00801999999ADDMA1999999082371MD1210051+9999ME1313929OA149900311REMSYN076AAXX  13114 06748 33/// /0504 11047 21080 38237 48392 52005 333 91106 91204;
0137067480999992010011312004+46033+007750FM-12+163899999V0200501N001019999999N9999999N1-00461-00741999999ADDMA1999999082361MD1010021+9999ME1313909OA149900311REMSYN076AAXX  13124 06748 33/// /0502 11046 21074 38236 48390 50002 333 91106 91204;
0137067480999992010011313004+46033+007750FM-12+163899999V0200401N002119999999N9999999N1-00381-00711999999ADDMA1999999082321MD1810061+9999ME1313869OA149900361REMSYN076AAXX  13134 06748 33/// /0404 11038 21071 38232 48386 58006 333 91107 91205;
0137067480999992010011314004+46033+007750FM-12+163899999V0200501N001519999999N9999999N1-00381-00691999999ADDMA1999999082331MD1719999+9999ME1313879OA149900411REMSYN076AAXX  13144 06748 33/// /0503 11038 21069 38233 48387 57/// 333 91108 91206;
0137067480999992010011315004+46033+007750FM-12+163899999V0200501N001519999999N9999999N1-00391-00651999999ADDMA1999999082351MD1310011+9999ME1313899OA149900411REMSYN076AAXX  13154 06748 33/// /0503 11039 21065 38235 48389 53001 333 91108 91206;
0137067480999992010011316004+46033+007750FM-12+163899999V0200401N001019999999N9999999N1-00441-00621999999ADDMA1999999082391MD1210071+9999ME1313939OA149900311REMSYN076AAXX  13164 06748 33/// /0402 11044 21062 38239 48393 52007 333 91106 91204;
0137067480999992010011317004+46033+007750FM-12+163899999V0209999C000019999999N9999999N1-00481-00561999999ADDMA1999999082431MD1210101+9999ME1313979OA149900261REMSYN076AAXX  13174 06748 33/// /0000 11048 21056 38243 48397 52010 333 91105 91203;
0198067480999992010011318004+46033+007750FM-12+163899999V0200301N000519999999N9999999N1-00481-00571999999ADDAA112000091KA1120M-00371MA1999999082471MD1210121+9999ME1314019OA149900411REMSYN094AAXX  13184 06748 03/// /0301 11048 21057 38247 48401 52012 69912 333 11037 69915 91108 91206;EQDQ01  00002PRCP12
0137067480999992010011319004+46033+007750FM-12+163899999V0202501N000519999999N9999999N1-00431-00591999999ADDMA1999999082471MD1210081+9999ME1314019OA149900151REMSYN076AAXX  13194 06748 33/// /2501 11043 21059 38247 48401 52008 333 91103 91202;
0137067480999992010011320004+46033+007750FM-12+163899999V0202401N000519999999N9999999N1-00461-00681999999ADDMA1999999082481MD1210051+9999ME1314029OA149900101REMSYN076AAXX  13204 06748 33/// /2401 11046 21068 38248 48402 52005 333 91102 91201;
0137067480999992010011321004+46033+007750FM-12+163899999V0202301N001019999999N9999999N1-00611-00901999999ADDMA1999999082481MD1210011+9999ME1314039OA149900261REMSYN076AAXX  13214 06748 33/// /2302 11061 21090 38248 48403 52001 333 91105 91203;
0137067480999992010011322004+46033+007750FM-12+163899999V0202201N001019999999N9999999N1-00681-00971999999ADDMA1999999082461MD1810011+9999ME1314029OA149900151REMSYN076AAXX  13224 06748 33/// /2202 11068 21097 38246 48402 58001 333 91103 91202;
0137067480999992010011323004+46033+007750FM-12+163899999V0202101N000519999999N9999999N1-00761-01101999999ADDMA1999999082451MD1710031+9999ME1314029OA149900151REMSYN076AAXX  13234 06748 33/// /2101 11076 21110 38245 48402 57003 333 91103 91203;
0137067480999992010011400004+46033+007750FM-12+163899999V0202101N001019999999N9999999N1-00841-01241999999ADDMA1999999082401MD1810081+9999ME1313989OA149900411REMSYN076AAXX  14004 06748 33/// /2102 11084 21124 38240 48398 58008 333 91108 91206;
0137067480999992010011401004+46033+007750FM-12+163899999V0202201N001519999999N9999999N1-00851-01251999999ADDMA1999999082351MD1810111+9999ME1313939OA149900211REMSYN076AAXX  14014 06748 33/// /2203 11085 21125 38235 48393 58011 333 91104 91203;
0137067480999992010011402004+46033+007750FM-12+163899999V0202301N001519999999N9999999N1-00791-01521999999ADDMA1999999082321MD1619999+9999ME1313909OA149900261REMSYN076AAXX  14024 06748 33/// /2303 11079 21152 38232 48390 56/// 333 91105 91203;
0096067480999992010011403004+46033+007750FM-12+163899999V0202101N001519999999N9999999N1-00841-01951999999ADDMA1999999082291ME1313879REMSYN060AAXX  14034 06748 33/// /2103 11084 21195 38229 48387 5////;
0137067480999992010011404004+46033+007750FM-12+163899999V0202201N001519999999N9999999N1-00861-01931999999ADDMA1999999082281MD1610071+9999ME1313879OA149900211REMSYN076AAXX  14044 06748 33/// /2203 11086 21193 38228 48387 56007 333 91104 91203;
0137067480999992010011405004+46033+007750FM-12+163899999V0202201N001019999999N9999999N1-00951-01771999999ADDMA1999999082271MD1610051+9999ME1313879OA149900211REMSYN076AAXX  14054 06748 33/// /2202 11095 21177 38227 48387 56005 333 91104 91203;
0234067480999992010011406004+46033+007750FM-12+163899999V0202201N001019999999N9999999N1-00971-01711999999ADDAA124000091AL10600091GJ100249IA2999-00309KA1999N-00981MA1999999082261MD1610031+9999ME1313869OA149900261REMSYN100AAXX  14064 06748 33/// /2202 11097 21171 38226 48386 56003 333 21098 3/103 55004 70001 91105 91203;EQDQ01  00002PRCP24
0137067480999992010011407004+46033+007750FM-12+163899999V0202101N001519999999N9999999N1-00871-02261999999ADDMA1999999082251MD1710031+9999ME1313849OA149900261REMSYN076AAXX  14074 06748 33/// /2103 11087 21226 38225 48384 57003 333 91105 91203;
0137067480999992010011408004+46033+007750FM-12+163899999V0202201N001519999999N9999999N1-00921-02121999999ADDMA1999999082271MD1319999+9999ME1313869OA149900211REMSYN076AAXX  14084 06748 33/// /2203 11092 21212 38227 48386 53/// 333 91104 91203;
0137067480999992010011409004+46033+007750FM-12+163899999V0202201N001019999999N9999999N1-00841-01801999999ADDMA1999999082291MD1210031+9999ME1313879OA149900261REMSYN076AAXX  14094 06748 33/// /2202 11084 21180 38229 48387 52003 333 91105 91203;
0137067480999992010011410004+46033+007750FM-12+163899999V0202101N001019999999N9999999N1-00601-01361999999ADDMA1999999082301MD1210051+9999ME1313869OA149900211REMSYN076AAXX  14104 06748 33/// /2102 11060 21136 38230 48386 52005 333 91104 91202;
0137067480999992010011411004+46033+007750FM-12+163899999V0202101N001019999999N9999999N1-00441-01251999999ADDMA1999999082261MD1810011+9999ME1313819OA149900151REMSYN076AAXX  14114 06748 33/// /2102 11044 21125 38226 48381 58001 333 91103 91203;
0137067480999992010011412004+46033+007750FM-12+163899999V0209999C000019999999N9999999N1-00161-01651999999ADDMA1999999082201MD1710091+9999ME1313729OA149900261REMSYN076AAXX  14124 06748 33/// /0000 11016 21165 38220 48372 57009 333 91105 91203;
0137067480999992010011413004+46033+007750FM-12+163899999V0200401N003119999999N9999999N1-00161-01411999999ADDMA1999999082201MD1710101+9999ME1313729OA149900461REMSYN076AAXX  14134 06748 33/// /0406 11016 21141 38220 48372 57010 333 91109 91206;
0137067480999992010011414004+46033+007750FM-12+163899999V0200401N002619999999N9999999N1-00191-01171999999ADDMA1999999082251MD1310011+9999ME1313779OA149900511REMSYN076AAXX  14144 06748 33/// /0405 11019 21117 38225 48377 53001 333 91110 91207;
0137067480999992010011415004+46033+007750FM-12+163899999V0200201N000519999999N9999999N1-00211-01171999999ADDMA1999999082281MD1210081+9999ME1313809OA149900511REMSYN076AAXX  14154 06748 33/// /0201 11021 21117 38228 48380 52008 333 91110 91207;
0137067480999992010011416004+46033+007750FM-12+163899999V0202301N001519999999N9999999N1-00371-01371999999ADDMA1999999082301MD1110101+9999ME1313849OA149900311REMSYN076AAXX  14164 06748 33/// /2303 11037 21137 38230 48384 51010 333 91106 91203;
0137067480999992010011417004+46033+007750FM-12+163899999V0202201N001019999999N9999999N1-00561-01251999999ADDMA1999999082301MD1210051+9999ME1313869OA149900261REMSYN076AAXX  14174 06748 33/// /2202 11056 21125 38230 48386 52005 333 91105 91203;
0156067480999992010011418004+46033+007750FM-12+163899999V0202301N001019999999N9999999N1-00611-01301999999ADDKA1120M-00151MA1999999082361MD1210081+9999ME1313929OA149900511REMSYN082AAXX  14184 06748 33/// /2302 11061 21130 38236 48392 52008 333 11015 91110 91207;
0137067480999992010011419004+46033+007750FM-12+163899999V0202301N001019999999N9999999N1-00581-01271999999ADDMA1999999082421MD1210121+9999ME1313979OA149900211REMSYN076AAXX  14194 06748 33/// /2302 11058 21127 38242 48397 52012 333 91104 91203;
0137067480999992010011420004+46033+007750FM-12+163899999V0202201N001019999999N9999999N1-00561-01241999999ADDMA1999999082441MD1110141+9999ME1313999OA149900211REMSYN076AAXX  14204 06748 33/// /2202 11056 21124 38244 48399 51014 333 91104 91203;
0137067480999992010011421004+46033+007750FM-12+163899999V0202301N000519999999N9999999N1-00581-01241999999ADDMA1999999082511MD1310151+9999ME1314069OA149900261REMSYN076AAXX  14214 06748 33/// /2301 11058 21124 38251 48406 53015 333 91105 91203;
0137067480999992010011422004+46033+007750FM-12+163899999V0202301N001019999999N9999999N1-00591-01221999999ADDMA1999999082611MD1310191+9999ME1314169OA149900151REMSYN076AAXX  14224 06748 33/// /2302 11059 21122 38261 48416 53019 333 91103 91202;
0137067480999992010011423004+46033+007750FM-12+163899999V0209999C000019999999N9999999N1-00481-01151999999ADDMA1999999082641MD1110201+9999ME1314189OA149900151REMSYN076AAXX  14234 06748 33/// /0000 11048 21115 38264 48418 51020 333 91103 91203;
0137067480999992010011500004+46033+007750FM-12+163899999V0202401N000519999999N9999999N1-00461-01161999999ADDMA1999999082651MD1210141+9999ME1314189OA149900511REMSYN076AAXX  15004 06748 33/// /2401 11046 21116 38265 48418 52014 333 91110 91207;
0137067480999992010011501004+46033+007750FM-12+163899999V0202101N001019999999N9999999N1-00591-01061999999ADDMA1999999082691MD1210081+9999ME1314239OA149900211REMSYN076AAXX  15014 06748 33/// /2102 11059 21106 38269 48423 52008 333 91104 91203;
0137067480999992010011502004+46033+007750FM-12+163899999V0202201N000519999999N9999999N1-00641-01141999999ADDMA1999999082771MD1210131+9999ME1314319OA149900151REMSYN076AAXX  15024 06748 33/// /2201 11064 21114 38277 48431 52013 333 91103 91202;
0096067480999992010011503004+46033+007750FM-12+163899999V0202101N001019999999N9999999N1-00691-01201999999ADDMA1999999082861ME1314409REMSYN060AAXX  15034 06748 33/// /2102 11069 21120 38286 48440 5////;
0137067480999992010011504004+46033+007750FM-12+163899999V0202101N001019999999N9999999N1-00741-01251999999ADDMA1999999082871MD1210181+9999ME1314429OA149900151REMSYN076AAXX  15044 06748 33/// /2102 11074 21125 38287 48442 52018 333 91103 91202;
0137067480999992010011505004+46033+007750FM-12+163899999V0202101N001019999999N9999999N1-00781-01241999999ADDMA1999999082931MD1210161+9999ME1314479OA149900151REMSYN076AAXX  15054 06748 33/// /2102 11078 21124 38293 48447 52016 333 91103 91202;
0234067480999992010011506004+46033+007750FM-12+163899999V0202201N001019999999N9999999N1-00721-01251999999ADDAA124000091AL19900091GJ100429IA2999-00309KA1999N-00791MA1999999083031MD1210171+9999ME1314569OA149900211REMSYN100AAXX  15064 06748 33/// /2202 11072 21125 38303 48456 52017 333 21079 3/103 55007 70000 91104 91203;EQDQ01  00002PRCP24
0137067480999992010011507004+46033+007750FM-12+163899999V0202201N001019999999N9999999N1-00731-01231999999ADDMA1999999083121MD1210251+9999ME1314659OA149900151REMSYN076AAXX  15074 06748 33/// /2202 11073 21123 38312 48465 52025 333 91103 91202;
0137067480999992010011508004+46033+007750FM-12+163899999V0202201N000519999999N9999999N1-00601-01221999999ADDMA1999999083201MD1219999+9999ME1314729OA149900151REMSYN076AAXX  15084 06748 33/// /2201 11060 21122 38320 48472 52/// 333 91103 91203;
0137067480999992010011509004+46033+007750FM-12+163899999V0202101N001019999999N9999999N1-00581-01091999999ADDMA1999999083301MD1310271+9999ME1314819OA149900151REMSYN076AAXX  15094 06748 33/// /2102 11058 21109 38330 48481 53027 333 91103 91203;
0137067480999992010011510004+46033+007750FM-12+163899999V0202001N001019999999N9999999N1-00441-00961999999ADDMA1999999083371MD1210251+9999ME1314879OA149900151REMSYN076AAXX  15104 06748 33/// /2002 11044 21096 38337 48487 52025 333 91103 91202;
0137067480999992010011511004+46033+007750FM-12+163899999V0202101N001019999999N9999999N1-00181-00941999999ADDMA1999999083381MD1210181+9999ME1314869OA149900151REMSYN076AAXX  15114 06748 33/// /2102 11018 21094 38338 48486 52018 333 91103 91202;
0137067480999992010011512004+46033+007750FM-12+163899999V0201701N000519999999N9999999N1+00051-01001999999ADDMA1999999083351MD1010051+9999ME1314829OA149900151REMSYN076AAXX  15124 06748 33/// /1701 10005 21100 38335 48482 50005 333 91103 91203;
0137067480999992010011513004+46033+007750FM-12+163899999V0200401N003119999999N9999999N1-00091-01071999999ADDMA1999999083391MD1310021+9999ME1314879OA149900511REMSYN076AAXX  15134 06748 33/// /0406 11009 21107 38339 48487 53002 333 91110 91207;
0137067480999992010011514004+46033+007750FM-12+163899999V0202101N002119999999N9999999N1+00031-00921999999ADDMA1999999083421MD1210041+9999ME1314899OA149900511REMSYN076AAXX  15144 06748 33/// /2104 10003 21092 38342 48489 52004 333 91110 91207;
0137067480999992010011515004+46033+007750FM-12+163899999V0202101N000519999999N9999999N1-00191-01101999999ADDMA1999999083511MD1310161+9999ME1314999OA149900511REMSYN076AAXX  15154 06748 33/// /2101 11019 21110 38351 48499 53016 333 91110 91207;
0137067480999992010011516004+46033+007750FM-12+163899999V0202701N000519999999N9999999N1-00251-01051999999ADDMA1999999083551MD1310161+9999ME1315039OA149900311REMSYN076AAXX  15164 06748 33/// /2701 11025 21105 38355 48503 53016 333 91106 91204;
0137067480999992010011517004+46033+007750FM-12+163899999V0202201N001019999999N9999999N1-00471-01021999999ADDMA1999999083641MD1110221+9999ME1315139OA149900211REMSYN076AAXX  15174 06748 33/// /2202 11047 21102 38364 48513 51022 333 91104 91203;
0156067480999992010011518004+46033+007750FM-12+163899999V0202201N001019999999N9999999N1-00521-01071999999ADDKA1120M+00051MA1999999083681MD1310171+9999ME1315179OA149900511REMSYN082AAXX  15184 06748 33/// /2202 11052 21107 38368 48517 53017 333 10005 91110 91207;
0137067480999992010011519004+46033+007750FM-12+163899999V0202201N001019999999N9999999N1-00571-01141999999ADDMA1999999083711MD1110161+9999ME1315209OA149900151REMSYN076AAXX  15194 06748 33/// /2202 11057 21114 38371 48520 51016 333 91103 91203;
0137067480999992010011520004+46033+007750FM-12+163899999V0202201N001019999999N9999999N1-00631-01151999999ADDMA1999999083721MD1210081+9999ME1315219OA149900151REMSYN076AAXX  15204 06748 33/// /2202 11063 21115 38372 48521 52008 333 91103 91203;
0137067480999992010011521004+46033+007750FM-12+163899999V0202201N001019999999N9999999N1-00661-01191999999ADDMA1999999083711MD1210031+9999ME1315209OA149900211REMSYN076AAXX  15214 06748 33/// /2202 11066 21119 38371 48520 52003 333 91104 91203;
0137067480999992010011522004+46033+007750FM-12+163899999V0202201N001019999999N9999999N1-00641-01201999999ADDMA1999999083731MD1210021+9999ME1315229OA149900211REMSYN076AAXX  15224 06748 33/// /2202 11064 21120 38373 48522 52002 333 91104 91203;
0137067480999992010011523004+46033+007750FM-12+163899999V0202201N001019999999N9999999N1-00711-01211999999ADDMA1999999083721MD1010001+9999ME1315219OA149900211REMSYN076AAXX  15234 06748 33/// /2202 11071 21121 38372 48521 50000 333 91104 91203;
0137067480999992010011600004+46033+007750FM-12+163899999V0209999C000019999999N9999999N1-00651-01231999999ADDMA1999999083691MD1710021+9999ME1315189OA149900511REMSYN076AAXX  16004 06748 33/// /0000 11065 21123 38369 48518 57002 333 91110 91207;
0137067480999992010011601004+46033+007750FM-12+163899999V0202201N001019999999N9999999N1-00741-01251999999ADDMA1999999083721MD1510011+9999ME1315219OA149900151REMSYN076AAXX  16014 06748 33/// /2202 11074 21125 38372 48521 55001 333 91103 91203;
0156067480999992010011602004+46033+007750FM-12+163899999V0202201N001019999999N9999999N1-00781-01241999999ADDMA1999999083721MD1410001+9999ME1315229OA149900151REMSYN076AAXX  16024 06748 33/// /2202 11078 21124 38372 48522 53000 333 91103 91203;EQDQ01+000032APCTEN
0137067480999992010011603004+46033+007750FM-12+163899999V0202101N001519999999N9999999N1-00671-01431999999ADDMA1999999083691MD1019999+9999ME1315189OA149900211REMSYN076AAXX  16034 06748 33/// /2103 11067 21143 38369 48518 50/// 333 91104 91203;
0137067480999992010011604004+46033+007750FM-12+163899999V0202101N001019999999N9999999N1-00681-01761999999ADDMA1999999083671MD1710051+9999ME1315169OA149900211REMSYN076AAXX  16044 06748 33/// /2102 11068 21176 38367 48516 57005 333 91104 91203;
0137067480999992010011605004+46033+007750FM-12+163899999V0202201N001019999999N9999999N1-00691-01831999999ADDMA1999999083651MD1610071+9999ME1315159OA149900151REMSYN076AAXX  16054 06748 33/// /2202 11069 21183 38365 48515 56007 333 91103 91203;
0234067480999992010011606004+46033+007750FM-12+163899999V0202001N000519999999N9999999N1-00731-01641999999ADDAA124000091AL19900091GJ102829IA2999-00409KA1999N-00781MA1999999083651MD1710041+9999ME1315159OA149900211REMSYN100AAXX  16064 06748 33/// /2001 11073 21164 38365 48515 57004 333 21078 3/104 55047 70000 91104 91203;EQDQ01  00002PRCP24
0137067480999992010011607004+46033+007750FM-12+163899999V0202301N001019999999N9999999N1-00661-02091999999ADDMA1999999083661MD1510011+9999ME1315159OA149900211REMSYN076AAXX  16074 06748 33/// /2302 11066 21209 38366 48515 55001 333 91104 91203;
0137067480999992010011608004+46033+007750FM-12+163899999V0202201N001519999999N9999999N1-00831-01951999999ADDMA1999999083611MD1810041+9999ME1315129OA149900211REMSYN076AAXX  16084 06748 33/// /2203 11083 21195 38361 48512 58004 333 91104 91203;
0137067480999992010011609004+46033+007750FM-12+163899999V0202201N000519999999N9999999N1-00611-02091999999ADDMA1999999083591MD1710061+9999ME1315099OA149900211REMSYN076AAXX  16094 06748 33/// /2201 11061 21209 38359 48509 57006 333 91104 91203;
0137067480999992010011610004+46033+007750FM-12+163899999V0202101N001519999999N9999999N1-00551-01222999999ADDMA1999999083541MD1610121+9999ME1315049OA149900211REMSYN076AAXX  16104 06748 33/// /2103 11055 21122 38354 48504 56012 333 91104 91203;
0137067480999992010011611004+46033+007750FM-12+163899999V0202101N001019999999N9999999N1-00251-01221999999ADDMA1999999083511MD1710101+9999ME1314999OA149900261REMSYN076AAXX  16114 06748 33/// /2102 11025 21122 38351 48499 57010 333 91105 91203;
0137067480999992010011612004+46033+007750FM-12+163899999V0202101N001019999999N9999999N1+00001-01271999999ADDMA1999999083441MD1710151+9999ME1314919OA149900261REMSYN076AAXX  16124 06748 33/// /2102 10000 21127 38344 48491 57015 333 91105 91203;
0137067480999992010011613004+46033+007750FM-12+163899999V0202301N001519999999N9999999N1+00231-01601999999ADDMA1999999083391MD1710151+9999ME1314859OA149900211REMSYN076AAXX  16134 06748 33/// /2303 10023 21160 38339 48485 57015 333 91104 91203;
0137067480999992010011614004+46033+007750FM-12+163899999V0202201N001019999999N9999999N1+00131-00981999999ADDMA1999999083341MD1719999+9999ME1314819OA149900211REMSYN076AAXX  16144 06748 33/// /2202 10013 21098 38334 48481 57/// 333 91104 91203;
0137067480999992010011615004+46033+007750FM-12+163899999V0202101N000519999999N9999999N1+00111-00991999999ADDMA1999999083311MD1710131+9999ME1314789OA149900261REMSYN076AAXX  16154 06748 33/// /2101 10011 21099 38331 48478 57013 333 91105 91203;
0137067480999992010011616004+46033+007750FM-12+163899999V0202301N000519999999N9999999N1+00041-00741999999ADDMA1999999083311MD1510081+9999ME1314789OA149900211REMSYN076AAXX  16164 06748 33/// /2301 10004 21074 38331 48478 55008 333 91104 91202;
0137067480999992010011617004+46033+007750FM-12+163899999V0202701N000519999999N9999999N1-00021-00681999999ADDMA1999999083291MD1710051+9999ME1314779OA149900211REMSYN076AAXX  16174 06748 33/// /2701 11002 21068 38329 48477 57005 333 91104 91202;
0156067480999992010011618004+46033+007750FM-12+163899999V0202501N000519999999N9999999N1-00041-00641999999ADDKA1120M+00251MA1999999083321MD1210011+9999ME1314809OA149900261REMSYN082AAXX  16184 06748 33/// /2501 11004 21064 38332 48480 52001 333 10025 91105 91203;
0137067480999992010011619004+46033+007750FM-12+163899999V0209999C000019999999N9999999N1-00011-00751999999ADDMA1999999083321MD1310011+9999ME1314809OA149900411REMSYN076AAXX  16194 06748 33/// /0000 11001 21075 38332 48480 53001 333 91108 91204;
0137067480999992010011620004+46033+007750FM-12+163899999V0202301N001019999999N9999999N1-00061-00641999999ADDMA1999999083341MD1210051+9999ME1314829OA149900411REMSYN076AAXX  16204 06748 33/// /2302 11006 21064 38334 48482 52005 333 91108 91204;
0137067480999992010011621004+46033+007750FM-12+163899999V0209999C000019999999N9999999N1+00001-00891999999ADDMA1999999083301MD1810021+9999ME1314789OA149900411REMSYN076AAXX  16214 06748 33/// /0000 10000 21089 38330 48478 58002 333 91108 91204;
0137067480999992010011622004+46033+007750FM-12+163899999V0202601N000519999999N9999999N1-00091-00741999999ADDMA1999999083341MD1310021+9999ME1314829OA149900211REMSYN076AAXX  16224 06748 33/// /2601 11009 21074 38334 48482 53002 333 91104 91203;
0137067480999992010011623004+46033+007750FM-12+163899999V0209999C000019999999N9999999N1-00131-00711999999ADDMA1999999083291MD1710051+9999ME1314779OA149900151REMSYN076AAXX  16234 06748 33/// /0000 11013 21071 38329 48477 57005 333 91103 91202;
0137067480999992010011700004+46033+007750FM-12+163899999V0200501N002119999999N9999999N1-00161-00771999999ADDMA1999999083301MD1010001+9999ME1314799OA149900461REMSYN076AAXX  17004 06748 33/// /0504 11016 21077 38330 48479 50000 333 91109 91205;
0137067480999992010011701004+46033+007750FM-12+163899999V0200401N002619999999N9999999N1-00321-00431999999ADDMA1999999083371MD1310031+9999ME1314869OA149900571REMSYN076AAXX  17014 06748 33/// /0405 11032 21043 38337 48486 53003 333 91111 91208;
0137067480999992010011702004+46033+007750FM-12+163899999V0202101N001519999999N9999999N1-00321-00491999999ADDMA1999999083361MD1219999+9999ME1314859OA149900571REMSYN076AAXX  17024 06748 33/// /2103 11032 21049 38336 48485 52/// 333 91111 91208;
0096067480999992010011703004+46033+007750FM-12+163899999V0202301N001519999999N9999999N1-00291-00551999999ADDMA1999999083241ME1314749REMSYN060AAXX  17034 06748 43/// /2303 11029 21055 38324 48474 5////;
0137067480999992010011704004+46033+007750FM-12+163899999V0200201N001019999999N9999999N1-00331-00501999999ADDMA1999999083241MD1710131+9999ME1314749OA149900361REMSYN076AAXX  17044 06748 33/// /0202 11033 21050 38324 48474 57013 333 91107 91204;
0137067480999992010011705004+46033+007750FM-12+163899999V0202101N001519999999N9999999N1-00261-00541999999ADDMA1999999083241MD1519999+9999ME1314739OA149900361REMSYN076AAXX  17054 06748 33/// /2103 11026 21054 38324 48473 55/// 333 91107 91204;
0234067480999992010011706004+46033+007750FM-12+163899999V0202201N001019999999N9999999N1-00241-00501999999ADDAA124000091AL19900091GJ100729IA2999-00209KA1999N-00351MA1999999083211MD1810031+9999ME1314709OA149900571REMSYN100AAXX  17064 06748 33/// /2202 11024 21050 38321 48470 58003 333 21035 3/102 55012 70000 91111 91208;EQDQ01  00002PRCP24
0137067480999992010011707004+46033+007750FM-12+163899999V0203201N001019999999N9999999N1-00221-00511999999ADDMA1999999083241MD1510001+9999ME1314739OA149900261REMSYN076AAXX  17074 06748 33/// /3202 11022 21051 38324 48473 55000 333 91105 91203;
0137067480999992010011708004+46033+007750FM-12+163899999V0202101N001519999999N9999999N1-00221-00481999999ADDMA1999999083321MD1219999+9999ME1314819OA149900361REMSYN076AAXX  17084 06748 33/// /2103 11022 21048 38332 48481 52/// 333 91107 91204;
0137067480999992010011709004+46033+007750FM-12+163899999V0202401N001019999999N9999999N1-00111-00461999999ADDMA1999999083391MD1210181+9999ME1314879OA149900361REMSYN076AAXX  17094 06748 33/// /2402 11011 21046 38339 48487 52018 333 91107 91204;
0154067480999992010011710004+46033+007750FM-12+163899999V0202501N001019999999N9999999N1-00061-00331999999ADDAA101000021MA1999999083461MD1310221+9999ME1314939OA149900411REMSYN082AAXX  17104 06748 23/// /2502 11006 21033 38346 48493 53022 333 69925 91108 91203;
0137067480999992010011711004+46033+007750FM-12+163899999V0201601N000519999999N9999999N1+00081-00301999999ADDMA1999999083401MD1010081+9999ME1314879OA149900411REMSYN076AAXX  17114 06748 33/// /1601 10008 21030 38340 48487 50008 333 91108 91203;
0179067480999992010011712004+46033+007750FM-12+163899999V0200401N004119999999N9999999N1-00051-00261999999ADDAA106000091MA1999999083351MD1810041+9999ME1314839OA149900671REMSYN088AAXX  17124 06748 03/// /0408 11005 21026 38335 48483 58004 69921 333 60005 91113 91208;EQDQ01  00002PRCP06
0137067480999992010011713004+46033+007750FM-12+163899999V0200501N005119999999N9999999N1-00021-00211999999ADDMA1999999083351MD1710111+9999ME1314839OA149900881REMSYN076AAXX  17134 06748 33/// /0510 11002 21021 38335 48483 57011 333 91117 91211;
0137067480999992010011714004+46033+007750FM-12+163899999V0200501N003119999999N9999999N1-00091-00221999999ADDMA1999999083431MD1319999+9999ME1314919OA149900881REMSYN076AAXX  17144 06748 33/// /0506 11009 21022 38343 48491 53/// 333 91117 91211;
0137067480999992010011715004+46033+007750FM-12+163899999V0202301N001519999999N9999999N1-00121-00261999999ADDMA1999999083501MD1210151+9999ME1314989OA149900881REMSYN076AAXX  17154 06748 33/// /2303 11012 21026 38350 48498 52015 333 91117 91211;
0137067480999992010011716004+46033+007750FM-12+163899999V0200301N001519999999N9999999N1-00261-00391999999ADDMA1999999083501MD1210151+9999ME1314989OA149900511REMSYN076AAXX  17164 06748 33/// /0303 11026 21039 38350 48498 52015 333 91110 91206;
0137067480999992010011717004+46033+007750FM-12+163899999V0202301N001019999999N9999999N1-00371-00581999999ADDMA1999999083581MD1210151+9999ME1315069OA149900311REMSYN076AAXX  17174 06748 33/// /2302 11037 21058 38358 48506 52015 333 91106 91203;
0198067480999992010011718004+46033+007750FM-12+163899999V0202201N001519999999N9999999N1-00421-00661999999ADDAA112000091KA1120M+00121MA1999999083671MD1210171+9999ME1315159OA149900881REMSYN094AAXX  17184 06748 03/// /2203 11042 21066 38367 48515 52017 69922 333 10012 60005 91117 91211;EQDQ01  00002PRCP12
0137067480999992010011719004+46033+007750FM-12+163899999V0202301N000519999999N9999999N1-00521-01001999999ADDMA1999999083751MD1310251+9999ME1315239OA149900151REMSYN076AAXX  17194 06748 33/// /2301 11052 21100 38375 48523 53025 333 91103 91203;
