0149067450999992011010100004+46500+008317FM-12+1345LSMC V0200701N001519999999N9999999N1-01571-02041999999ADDMA1999999086661MD1710071+9999ME1314939OA149900211REMSYN088AAXX  01004 06745 33/// /0703 11157 21204 38666 48493 57007 333 55300 20004 91104 91203;
0149067450999992011010101004+46500+008317FM-12+1345LSMC V0200701N001019999999N9999999N1-01571-02061999999ADDMA1999999086621MD1710091+9999ME1314909OA149900211REMSYN088AAXX  01014 06745 33/// /0702 11157 21206 38662 48490 57009 333 55300 20004 91104 91203;
0149067450999992011010102004+46500+008317FM-12+1345LSMC V0200601N000519999999N9999999N1-01711-02251999999ADDMA1999999086621MD1710061+9999ME1314899OA149900151REMSYN088AAXX  01024 06745 33/// /0601 11171 21225 38662 48489 57006 333 55300 20004 91103 91202;
0149067450999992011010103004+46500+008317FM-12+1345LSMC V0200701N000519999999N9999999N1-01661-02201999999ADDMA1999999086601MD1710061+9999ME1314879OA149900211REMSYN088AAXX  01034 06745 33/// /0701 11166 21220 38660 48487 57006 333 55300 20004 91104 91203;
0149067450999992011010104004+46500+008317FM-12+1345LSMC V0200801N000519999999N9999999N1-01811-02321999999ADDMA1999999086561MD1710061+9999ME1314839OA149900101REMSYN088AAXX  01044 06745 33/// /0801 11181 21232 38656 48483 57006 333 55300 20004 91102 91201;
0149067450999992011010105004+46500+008317FM-12+1345LSMC V0200601N001019999999N9999999N1-01641-02151999999ADDMA1999999086561MD1610061+9999ME1314849OA149900101REMSYN088AAXX  01054 06745 33/// /0602 11164 21215 38656 48484 56006 333 55300 20004 91102 91202;
0311067450999992011010106004+46500+008317FM-12+1345LSMC V0209999C000012200019N0700001N1-01791-02471999999ADDAJ100639199999999AL19900091GA1001+999999999GF100991001001999999001001GJ102229IA1279IA2999-02209KA1999N-01821MA1999999086551MD1610051+9999ME1314829MW1021OA149900211REMSYN136AAXX  01064 06745 31/88 00000 11179 21247 38655 48482 56005 702// 333 21182 3/122 43063 55037 55300 20004 70000 90768 93100 91104 91203;
0149067450999992011010107004+46500+008317FM-12+1345LSMC V0209999C000019999999N9999999N1-01771-02001999999ADDMA1999999086591MD1310031+9999ME1314869OA149900151REMSYN088AAXX  01074 06745 33/// /0000 11177 21200 38659 48486 53003 333 55300 20004 91103 91202;
0149067450999992011010108004+46500+008317FM-12+1345LSMC V0209999C000019999999N9999999N1-01721-02271999999ADDMA1999999086621MD1219999+9999ME1314899OA149900151REMSYN088AAXX  01084 06745 33/// /0000 11172 21227 38662 48489 52/// 333 55300 20025 91103 91202;
0096067450999992011010109004+46500+008317FM-12+1345LSMC V0209999C000019999999N9999999N1-01811-02271999999ADDMA1999999086631ME1314899REMSYN060AAXX  01094 06745 43/// /0000 11181 21227 38663 48489 5////;
0096067450999992011010110004+46500+008317FM-12+1345LSMC V0200801N001019999999N9999999N1-01581-02101999999ADDMA1999999086591ME1314899REMSYN060AAXX  01104 06745 43/// /0802 11158 21210 38659 48489 5////;
0149067450999992011010111004+46500+008317FM-12+1345LSMC V0200601N000519999999N9999999N1-01401-01681999999ADDMA1999999086511MD1710111+9999ME1314819OA149900151REMSYN088AAXX  01114 06745 33/// /0601 11140 21168 38651 48481 57011 333 55300 20108 91103 91202;
0150067450999992011010112004+46500+008317FM-12+1345LSMC V0209999C000012200019N0700001N1-01061-01301999999ADDGA1001+999999999GF100991001001999999001001MA1999999086451ME1314779MW1021REMSYN066AAXX  01124 06745 41/88 00000 11106 21130 38645 48477 5//// 702//;
0096067450999992011010113004+46500+008317FM-12+1345LSMC V0201801N000519999999N9999999N1-00961-01121999999ADDMA1999999086391ME1314739REMSYN060AAXX  01134 06745 43/// /1801 11096 21112 38639 48473 5////;
0096067450999992011010114004+46500+008317FM-12+1345LSMC V0209999C000019999999N9999999N1-00651-00961999999ADDMA1999999086371ME1314729REMSYN060AAXX  01144 06745 43/// /0000 11065 21096 38637 48472 5////;
0096067450999992011010115004+46500+008317FM-12+1345LSMC V0209999C000019999999N9999999N1-00701-01031999999ADDMA1999999086391ME1314749REMSYN060AAXX  01154 06745 43/// /0000 11070 21103 38639 48474 5////;
0096067450999992011010116004+46500+008317FM-12+1345LSMC V0202601N000519999999N9999999N1-00971-01071999999ADDMA1999999086411ME1314749REMSYN060AAXX  01164 06745 43/// /2601 11097 21107 38641 48474 5////;
0096067450999992011010117004+46500+008317FM-12+1345LSMC V0209999C000019999999N9999999N1-01161-01341999999ADDMA1999999086401ME1314729REMSYN060AAXX  01174 06745 43/// /0000 11116 21134 38640 48472 5////;
0096067450999992011010118004+46500+008317FM-12+1345LSMC V0200601N001019999999N9999999N1-01211-01431999999ADDMA1999999086401ME1314729REMSYN060AAXX  01184 06745 43/// /0602 11121 21143 38640 48472 5////;
0112067450999992011010119004+46500+008317FM-12+1345LSMC V0209999C000019999999N9999999N1-01251-01491999999ADDMA1999999086381ME1314709REMSYN076AAXX  01194 06745 33/// /0000 11125 21149 38638 48470 5//// 333 553// 20004;
0149067450999992011010120004+46500+008317FM-12+1345LSMC V0209999C000019999999N9999999N1-01481-01781999999ADDMA1999999086341MD1710061+9999ME1314669OA149900101REMSYN088AAXX  01204 06745 33/// /0000 11148 21178 38634 48466 57006 333 55300 20004 91102 91201;
0149067450999992011010121004+46500+008317FM-12+1345LSMC V0209999C000019999999N9999999N1-01471-01691999999ADDMA1999999086321MD1710081+9999ME1314649OA149900211REMSYN088AAXX  01214 06745 33/// /0000 11147 21169 38632 48464 57008 333 55300 20004 91104 91203;
0149067450999992011010122004+46500+008317FM-12+1345LSMC V0201201N001019999999N9999999N1-01431-01721999999ADDMA1999999086321MD1610061+9999ME1314649OA149900261REMSYN088AAXX  01224 06745 33/// /1202 11143 21172 38632 48464 56006 333 55300 20004 91105 91203;
0149067450999992011010123004+46500+008317FM-12+1345LSMC V0200601N001019999999N9999999N1-01421-01681999999ADDMA1999999086331MD1510011+9999ME1314659OA149900261REMSYN088AAXX  01234 06745 33/// /0602 11142 21168 38633 48465 55001 333 55300 20004 91105 91202;
0149067450999992011010200004+46500+008317FM-12+1345LSMC V0202601N000519999999N9999999N1-01621-02231999999ADDMA1999999086301MD1810021+9999ME1314619OA149900261REMSYN088AAXX  02004 06745 33/// /2601 11162 21223 38630 48461 58002 333 55300 20004 91105 91203;
0149067450999992011010201004+46500+008317FM-12+1345LSMC V0202701N000519999999N9999999N1-01581-01881999999ADDMA1999999086251MD1710071+9999ME1314579OA149900151REMSYN088AAXX  02014 06745 33/// /2701 11158 21188 38625 48457 57007 333 55300 20004 91103 91202;
0096067450999992011010202004+46500+008317FM-12+1345LSMC V0200701N000519999999N9999999N1-01531-02141999999ADDMA1999999086231ME1314569REMSYN060AAXX  02024 06745 43/// /0701 11153 21214 38623 48456 5////;
0096067450999992011010203004+46500+008317FM-12+1345LSMC V0209999C000019999999N9999999N1-01661-01971999999ADDMA1999999086181ME1314519REMSYN060AAXX  02034 06745 43/// /0000 11166 21197 38618 48451 5////;
0096067450999992011010204004+46500+008317FM-12+1345LSMC V0209999C000019999999N9999999N1-01601-02191999999ADDMA1999999086151ME1314499REMSYN060AAXX  02044 06745 43/// /0000 11160 21219 38615 48449 5////;
0096067450999992011010205004+46500+008317FM-12+1345LSMC V0200901N000519999999N9999999N1-01641-01931999999ADDMA1999999086151ME1314489REMSYN060AAXX  02054 06745 43/// /0901 11164 21193 38615 48448 5////;
0256067450999992011010206004+46500+008317FM-12+1345LSMC V0200901N000512200019N0700001N1-01591-02231999999ADDAJ100639199999999AL10600091GA1001+999999999GF100991001001999999001001GJ102289IA1279IA2999-02109KA1999N-01921MA1999999086161ME1314499MW1021REMSYN106AAXX  02064 06745 41/88 00901 11159 21223 38616 48449 5//// 702// 333 21192 3/121 43063 55038 90768 93100;
0149067450999992011010207004+46500+008317FM-12+1345LSMC V0209999C000019999999N9999999N1-01671-02231999999ADDMA1999999086161MD1210011+9999ME1314499OA149900151REMSYN088AAXX  02074 06745 33/// /0000 11167 21223 38616 48449 52001 333 55300 20004 91103 91201;
0149067450999992011010208004+46500+008317FM-12+1345LSMC V0209999C000019999999N9999999N1-01761-02531999999ADDMA1999999086231MD1310081+9999ME1314559OA149900151REMSYN088AAXX  02084 06745 33/// /0000 11176 21253 38623 48455 53008 333 55300 20025 91103 91202;
0197067450999992011010209004+46500+008317FM-12+1345LSMC V0209999C000012200019N0700001N1-01661-01971999999ADDGA1011+066001001GF101991999999999999999999MA1999999086261MD1210101+9999ME1314589OA149900151REMSYN094AAXX  02094 06745 32988 10000 11166 21197 38626 48458 52010 333 55300 20068 81072 91103 91202;
0149067450999992011010210004+46500+008317FM-12+1345LSMC V0209999C000019999999N9999999N1-01761-02391999999ADDMA1999999086251MD1210091+9999ME1314579OA149900101REMSYN088AAXX  02104 06745 33/// /0000 11176 21239 38625 48457 52009 333 55300 20094 91102 91201;
0149067450999992011010211004+46500+008317FM-12+1345LSMC V0200501N000519999999N9999999N1-01461-01701999999ADDMA1999999086181MD1810051+9999ME1314529OA149900151REMSYN088AAXX  02114 06745 33/// /0501 11146 21170 38618 48452 58005 333 55300 20112 91103 91202;
0203067450999992011010212004+46500+008317FM-12+1345LSMC V0202001N000512200019N0700001N1-01171-01591999999ADDGA1001+999999999GF100991001001999999001001MA1999999086131MD1810131+9999ME1314489MW1011OA149900151REMSYN094AAXX  02124 06745 31/88 02001 11117 21159 38613 48448 58013 701// 333 553// 2//// 91103 91202;
0149067450999992011010213004+46500+008317FM-12+1345LSMC V0202701N000519999999N9999999N1-00731-01181999999ADDMA1999999086101MD1610151+9999ME1314479OA149900101REMSYN088AAXX  02134 06745 33/// /2701 11073 21118 38610 48447 56015 333 553// 2//// 91102 91201;
0112067450999992011010214004+46500+008317FM-12+1345LSMC V0200701N003119999999N9999999N1-00291-00861999999ADDMA1999999086111ME1314509REMSYN076AAXX  02144 06745 33/// /0706 11029 21086 38611 48450 5//// 333 553// 2////;
0149067450999992011010215004+46500+008317FM-12+1345LSMC V0200601N004119999999N9999999N1-00391-00861999999ADDMA1999999086151MD1310021+9999ME1314539OA149900721REMSYN088AAXX  02154 06745 33/// /0608 11039 21086 38615 48453 53002 333 55308 20356 91114 91209;
0149067450999992011010216004+46500+008317FM-12+1345LSMC V0200701N003619999999N9999999N1-00421-00831999999ADDMA1999999086181MD1310081+9999ME1314569OA149900721REMSYN088AAXX  02164 06745 33/// /0707 11042 21083 38618 48456 53008 333 55300 20036 91114 91209;
0149067450999992011010217004+46500+008317FM-12+1345LSMC V0200801N002119999999N9999999N1-00521-00891999999ADDMA1999999086241MD1310131+9999ME1314619OA149900721REMSYN088AAXX  02174 06745 33/// /0804 11052 21089 38624 48461 53013 333 55300 20004 91114 91208;
0273067450999992011010218004+46500+008317FM-12+1345LSMC V0202401N001512200019N0700001N1-01071-01491999999ADDAJ100639199999999AL19900091GA1001+999999999GF100991001001999999001001IA1239KA1120M-00291MA1999999086311MD1310161+9999ME1314659MW1001OA149900721REMSYN118AAXX  02184 06745 31/88 02403 11107 21149 38631 48465 53016 700// 333 11029 47063 55300 20004 90766 93100 91114 91209;
0149067450999992011010219004+46500+008317FM-12+1345LSMC V0202501N000519999999N9999999N1-01021-01301999999ADDMA1999999086341MD1110161+9999ME1314689OA149900461REMSYN088AAXX  02194 06745 33/// /2501 11102 21130 38634 48468 51016 333 55300 20004 91109 91205;
0149067450999992011010220004+46500+008317FM-12+1345LSMC V0200501N000519999999N9999999N1-01381-01381999999ADDMA1999999086391MD1110151+9999ME1314709OA149900261REMSYN088AAXX  02204 06745 33/// /0501 11138 21138 38639 48470 51015 333 55300 20004 91105 91204;
0149067450999992011010221004+46500+008317FM-12+1345LSMC V0200701N000519999999N9999999N1-01531-01811999999ADDMA1999999086441MD1310131+9999ME1314749OA149900721REMSYN088AAXX  02214 06745 33/// /0701 11153 21181 38644 48474 53013 333 55300 20004 91114 91208;
0149067450999992011010222004+46500+008317FM-12+1345LSMC V0200701N000519999999N9999999N1-01661-02211999999ADDMA1999999086441MD1210101+9999ME1314739OA149900151REMSYN088AAXX  02224 06745 33/// /0701 11166 21221 38644 48473 52010 333 55300 20004 91103 91201;
0149067450999992011010223004+46500+008317FM-12+1345LSMC V0200801N000519999999N9999999N1-01771-02331999999ADDMA1999999086461MD1210071+9999ME1314759OA149900151REMSYN088AAXX  02234 06745 33/// /0801 11177 21233 38646 48475 52007 333 55300 20004 91103 91202;
0149067450999992011010300004+46500+008317FM-12+1345LSMC V0200801N000519999999N9999999N1-01821-02531999999ADDMA1999999086431MD1810011+9999ME1314729OA149900721REMSYN088AAXX  03004 06745 33/// /0801 11182 21253 38643 48472 58001 333 55300 20004 91114 91209;
0149067450999992011010301004+46500+008317FM-12+1345LSMC V0209999C000019999999N9999999N1-01891-01891999999ADDMA1999999086401MD1810041+9999ME1314699OA149900101REMSYN088AAXX  03014 06745 33/// /0000 11189 21189 38640 48469 58004 333 55300 20004 91102 91202;
0149067450999992011010302004+46500+008317FM-12+1345LSMC V0200601N000519999999N9999999N1-01941-02531999999ADDMA1999999086431MD1519999+9999ME1314719OA149900151REMSYN088AAXX  03024 06745 33/// /0601 11194 21253 38643 48471 55/// 333 55300 20004 91103 91201;
0096067450999992011010303004+46500+008317FM-12+1345LSMC V0209999C000019999999N9999999N1-02011-02171999999ADDMA1999999086431ME1314719REMSYN060AAXX  03034 06745 43/// /0000 11201 21217 38643 48471 5////;
0149067450999992011010304004+46500+008317FM-12+1345LSMC V0200801N000519999999N9999999N1-01951-02351999999ADDMA1999999086421MD1010021+9999ME1314709OA149900101REMSYN088AAXX  03044 06745 33/// /0801 11195 21235 38642 48470 50002 333 55300 20004 91102 91201;
0149067450999992011010305004+46500+008317FM-12+1345LSMC V0209999C000019999999N9999999N1-02061-02241999999ADDMA1999999086421MD1710011+9999ME1314709OA149900101REMSYN088AAXX  03054 06745 33/// /0000 11206 21224 38642 48470 57001 333 55300 20004 91102 91201;
0216067450999992011010306004+46500+008317FM-12+1345LSMC V0200701N000519999999N9999999N1-02011-02261999999ADDAL19900091GJ102289IA2999-02509KA1999N-02251MA1999999086461MD1310031+9999ME1314739OA149900261REMSYN112AAXX  03064 06745 33/// /0701 11201 21226 38646 48473 53003 333 21225 3/125 55038 55300 20004 70000 91105 91204;
0149067450999992011010307004+46500+008317FM-12+1345LSMC V0209999C000019999999N9999999N1-02131-02281999999ADDMA1999999086481MD1210061+9999ME1314759OA149900151REMSYN088AAXX  03074 06745 33/// /0000 11213 21228 38648 48475 52006 333 55300 20004 91103 91202;
0149067450999992011010308004+46500+008317FM-12+1345LSMC V0200801N000519999999N9999999N1-02121-02241999999ADDMA1999999086501MD1219999+9999ME1314769OA149900101REMSYN088AAXX  03084 06745 33/// /0801 11212 21224 38650 48476 52/// 333 55300 20025 91102 91201;
0139067450999992011010309004+46500+008317FM-12+1345LSMC V0209999C000012200019N0700001N1+99999+99999999999ADDGA1001+999999999GF100991001001999999001001MA1999999086481REMSYN070AAXX  03094 06745 32/88 00000 1//// 2//// 38648 5//// 333 553// 20068;
0134067450999992011010310004+46500+008317FM-12+1345LSMC V0209999C000019999999N9999999N1+99999+99999999999ADDMA1999999086461MD1710021+9999OA149900151REMSYN082AAXX  03104 06745 33/// /0000 1//// 2//// 38646 57002 333 55300 20097 91103 91202;
0134067450999992011010311004+46500+008317FM-12+1345LSMC V0209999C000019999999N9999999N1+99999+99999999999ADDMA1999999086431MD1810071+9999OA149900151REMSYN082AAXX  03114 06745 33/// /0000 1//// 2//// 38643 58007 333 55300 20115 91103 91202;
0149067450999992011010312004+46500+008317FM-12+1345LSMC V0209999C000019999999N9999999N1-01391-01721999999ADDMA1999999086371MD1810111+9999ME1314699OA149900151REMSYN088AAXX  03124 06745 33/// /0000 11139 21172 38637 48469 58011 333 553// 2//// 91103 91202;
0149067450999992011010313004+46500+008317FM-12+1345LSMC V0202501N000519999999N9999999N1-01231-01601999999ADDMA1999999086321MD1810141+9999ME1314659OA149900151REMSYN088AAXX  03134 06745 33/// /2501 11123 21160 38632 48465 58014 333 553// 2//// 91103 91202;
0112067450999992011010314004+46500+008317FM-12+1345LSMC V0200901N000519999999N9999999N1-01071-01421999999ADDMA1999999086321ME1314669REMSYN076AAXX  03144 06745 33/// /0901 11107 21142 38632 48466 5//// 333 553// 2////;
0166067450999992011010315004+46500+008317FM-12+1345LSMC V0202401N000512200019N0700001N1-01031-01391999999ADDGA1001+999999999GF100991001001999999001001MA1999999086311ME1314659MW1021REMSYN082AAXX  03154 06745 31/88 02401 11103 21139 38631 48465 5//// 702// 333 553// 20371;
0149067450999992011010316004+46500+008317FM-12+1345LSMC V0209999C000019999999N9999999N1-01461-01691999999ADDMA1999999086331MD1210011+9999ME1314659OA149900151REMSYN088AAXX  03164 06745 33/// /0000 11146 21169 38633 48465 52001 333 55300 20036 91103 91202;
0149067450999992011010317004+46500+008317FM-12+1345LSMC V0209999C000019999999N9999999N1-01531-01741999999ADDMA1999999086381MD1210061+9999ME1314699OA149900101REMSYN088AAXX  03174 06745 33/// /0000 11153 21174 38638 48469 52006 333 55300 20007 91102 91201;
0254067450999992011010318004+46500+008317FM-12+1345LSMC V0209999C000012200019N0700001N1-01811-02491999999ADDAJ100609199999999AL19900091GA1001+999999999GF100991001001999999001001IA1279MA1999999086431MD1310121+9999ME1314729MW1021OA149900151REMSYN112AAXX  03184 06745 31/88 00000 11181 21249 38643 48472 53012 702// 333 43060 55300 20004 90766 93100 91103 91203;
0149067450999992011010319004+46500+008317FM-12+1345LSMC V0209999C000019999999N9999999N1-01781-02201999999ADDMA1999999086421MD1210091+9999ME1314719OA149900151REMSYN088AAXX  03194 06745 33/// /0000 11178 21220 38642 48471 52009 333 55300 20004 91103 91203;
0149067450999992011010320004+46500+008317FM-12+1345LSMC V0209999C000019999999N9999999N1-01901-02271999999ADDMA1999999086391MD1010011+9999ME1314689OA149900101REMSYN088AAXX  03204 06745 33/// /0000 11190 21227 38639 48468 50001 333 55300 20004 91102 91201;
0149067450999992011010321004+46500+008317FM-12+1345LSMC V0209999C000019999999N9999999N1-02021-02581999999ADDMA1999999086371MD1810061+9999ME1314669OA149900211REMSYN088AAXX  03214 06745 33/// /0000 11202 21258 38637 48466 58006 333 55300 20004 91104 91203;
0149067450999992011010322004+46500+008317FM-12+1345LSMC V0200501N000519999999N9999999N1-02001-02451999999ADDMA1999999086401MD1510021+9999ME1314689OA149900211REMSYN088AAXX  03224 06745 33/// /0501 11200 21245 38640 48468 55002 333 55300 20004 91104 91202;
0149067450999992011010323004+46500+008317FM-12+1345LSMC V0201201N000519999999N9999999N1-01951-02411999999ADDMA1999999086371MD1710021+9999ME1314669OA149900211REMSYN088AAXX  03234 06745 33/// /1201 11195 21241 38637 48466 57002 333 55300 20004 91104 91202;
0149067450999992011010400004+46500+008317FM-12+1345LSMC V0200401N000519999999N9999999N1-01991-02491999999ADDMA1999999086321MD1710051+9999ME1314629OA149900211REMSYN088AAXX  04004 06745 33/// /0401 11199 21249 38632 48462 57005 333 55300 20004 91104 91203;
0149067450999992011010401004+46500+008317FM-12+1345LSMC V0200701N001019999999N9999999N1-01961-02361999999ADDMA1999999086271MD1810131+9999ME1314579OA149900151REMSYN088AAXX  04014 06745 33/// /0702 11196 21236 38627 48457 58013 333 55300 20004 91103 91202;
0149067450999992011010402004+46500+008317FM-12+1345LSMC V0200701N000519999999N9999999N1-02081-02571999999ADDMA1999999086261MD1619999+9999ME1314569OA149900151REMSYN088AAXX  04024 06745 33/// /0701 11208 21257 38626 48456 56/// 333 55300 20004 91103 91202;
0149067450999992011010403004+46500+008317FM-12+1345LSMC V0202601N000519999999N9999999N1-02131-02141999999ADDMA1999999086221MD1610101+9999ME1314529OA149900211REMSYN088AAXX  04034 06745 33/// /2601 11213 21214 38622 48452 56010 333 55300 20004 91104 91203;
0149067450999992011010404004+46500+008317FM-12+1345LSMC V0202301N000519999999N9999999N1-02031-02511999999ADDMA1999999086191MD1810081+9999ME1314509OA149900361REMSYN088AAXX  04044 06745 33/// /2301 11203 21251 38619 48450 58008 333 55300 20004 91107 91203;
0149067450999992011010405004+46500+008317FM-12+1345LSMC V0201001N000519999999N9999999N1-01841-02211999999ADDMA1999999086171MD1710091+9999ME1314499OA149900361REMSYN088AAXX  04054 06745 33/// /1001 11184 21221 38617 48449 57009 333 55300 20004 91107 91203;
0299067450999992011010406004+46500+008317FM-12+1345LSMC V0200701N001012200019N0700001N1-01931-02471999999ADDAJ100609199999999AL19900091GA1001+999999999GF100991001001999999001001GJ102289IA1279IA2999-02409KA1999N-02181MA1999999086161MD1710061+9999ME1314489OA149900361REMSYN130AAXX  04064 06745 32/88 00702 11193 21247 38616 48448 57006 333 21218 3/124 43060 55038 55300 20004 70000 90768 93100 91107 91203;
0149067450999992011010407004+46500+008317FM-12+1345LSMC V0209999C000019999999N9999999N1-01881-02361999999ADDMA1999999086171MD1510021+9999ME1314499OA149900151REMSYN088AAXX  04074 06745 33/// /0000 11188 21236 38617 48449 55002 333 55300 20004 91103 91202;
0149067450999992011010408004+46500+008317FM-12+1345LSMC V0209999C000019999999N9999999N1-01791-02381999999ADDMA1999999086191MD1319999+9999ME1314519OA149900151REMSYN088AAXX  04084 06745 33/// /0000 11179 21238 38619 48451 53/// 333 55300 20025 91103 91202;
0112067450999992011010409004+46500+008317FM-12+1345LSMC V0200701N001019999999N9999999N1-01581-01901999999ADDMA1999999086201ME1314539REMSYN076AAXX  04094 06745 33/// /0702 11158 21190 38620 48453 5//// 333 553// 20148;
0149067450999992011010410004+46500+008317FM-12+1345LSMC V0200601N000519999999N9999999N1-01361-01771999999ADDMA1999999086211MD1210041+9999ME1314559OA149900211REMSYN088AAXX  04104 06745 33/// /0601 11136 21177 38621 48455 52004 333 55300 20457 91104 91203;
0149067450999992011010411004+46500+008317FM-12+1345LSMC V0200101N000519999999N9999999N1-01261-01671999999ADDMA1999999086141MD1810051+9999ME1314499OA149900151REMSYN088AAXX  04114 06745 33/// /0101 11126 21167 38614 48449 58005 333 55300 20698 91103 91202;
0197067450999992011010412004+46500+008317FM-12+1345LSMC V0200701N00051015001CN0600001N1-00931-01461999999ADDGA1081+015001041GF108991999999017501999999MA1999999086051MD1710151+9999ME1314429OA149900361REMSYN094AAXX  04124 06745 32786 80701 11093 21146 38605 48442 57015 333 55307 2//// 88450 91107 91203;
0149067450999992011010413004+46500+008317FM-12+1345LSMC V0209999C000019999999N9999999N1-00851-01401999999ADDMA1999999086001MD1610211+9999ME1314389OA149900151REMSYN088AAXX  04134 06745 33/// /0000 11085 21140 38600 48438 56021 333 55304 20976 91103 91203;
0112067450999992011010414004+46500+008317FM-12+1345LSMC V0203601N000519999999N9999999N1-00641-01371999999ADDMA1999999085961ME1314359REMSYN076AAXX  04144 06745 33/// /3601 11064 21137 38596 48435 5//// 333 553// 20641;
0148067450999992011010415004+46500+008317FM-12+1345LSMC V0209999C000010063019N0700001N1-00861-01291999999ADDGA1051+006301061GF105991999999008001999999MA1999999085931ME1314329REMSYN070AAXX  04154 06745 42588 50000 11086 21129 38593 48432 5//// 333 85621;
0149067450999992011010416004+46500+008317FM-12+1345LSMC V0209999C000019999999N9999999N1-00891-01291999999ADDMA1999999085971MD1510031+9999ME1314359OA149900211REMSYN088AAXX  04164 06745 33/// /0000 11089 21129 38597 48435 55003 333 55300 20036 91104 91202;
0149067450999992011010417004+46500+008317FM-12+1345LSMC V0202001N000519999999N9999999N1-01201-01241999999ADDMA1999999086001MD1310041+9999ME1314379OA149900211REMSYN088AAXX  04174 06745 33/// /2001 11120 21124 38600 48437 53004 333 55300 20004 91104 91202;
0261067450999992011010418004+46500+008317FM-12+1345LSMC V0209999C000012200019N0700001N1-01571-01931999999ADDAJ100609199999999AL19900091GA1001+999999999GF100991001001999999001001IA1279KA1120M-00621MA1999999086021MD1210091+9999ME1314379OA149900211REMSYN112AAXX  04184 06745 32/88 00000 11157 21193 38602 48437 52009 333 11062 43060 55300 20004 90766 93100 91104 91203;
0149067450999992011010419004+46500+008317FM-12+1345LSMC V0209999C000019999999N9999999N1-01481-01711999999ADDMA1999999086061MD1310091+9999ME1314419OA149900211REMSYN088AAXX  04194 06745 33/// /0000 11148 21171 38606 48441 53009 333 55300 20004 91104 91202;
0149067450999992011010420004+46500+008317FM-12+1345LSMC V0200601N001019999999N9999999N1-01601-01911999999ADDMA1999999086081MD1110081+9999ME1314429OA149900211REMSYN088AAXX  04204 06745 33/// /0602 11160 21191 38608 48442 51008 333 55300 20004 91104 91202;
0149067450999992011010421004+46500+008317FM-12+1345LSMC V0209999C000019999999N9999999N1-01621-01931999999ADDMA1999999086071MD1210051+9999ME1314419OA149900211REMSYN088AAXX  04214 06745 33/// /0000 11162 21193 38607 48441 52005 333 55300 20004 91104 91202;
0149067450999992011010422004+46500+008317FM-12+1345LSMC V0209999C000019999999N9999999N1-01651-02011999999ADDMA1999999086081MD1210021+9999ME1314429OA149900151REMSYN088AAXX  04224 06745 33/// /0000 11165 21201 38608 48442 52002 333 55300 20004 91103 91202;
0149067450999992011010423004+46500+008317FM-12+1345LSMC V0209999C000019999999N9999999N1-01741-02041999999ADDMA1999999086071MD1710011+9999ME1314419OA149900151REMSYN088AAXX  04234 06745 33/// /0000 11174 21204 38607 48441 57001 333 55300 20004 91103 91202;
0149067450999992011010500004+46500+008317FM-12+1345LSMC V0200701N000519999999N9999999N1-01691-02001999999ADDMA1999999086041MD1710031+9999ME1314399OA149900211REMSYN088AAXX  05004 06745 33/// /0701 11169 21200 38604 48439 57003 333 55300 20004 91104 91202;
0149067450999992011010501004+46500+008317FM-12+1345LSMC V0200601N000519999999N9999999N1-01791-02171999999ADDMA1999999086001MD1810081+9999ME1314359OA149900151REMSYN088AAXX  05014 06745 33/// /0601 11179 21217 38600 48435 58008 333 55300 20004 91103 91202;
0149067450999992011010502004+46500+008317FM-12+1345LSMC V0200901N000519999999N9999999N1-01771-01971999999ADDMA1999999086001MD1710071+9999ME1314359OA149900101REMSYN088AAXX  05024 06745 33/// /0901 11177 21197 38600 48435 57007 333 55300 20004 91102 91201;
0096067450999992011010503004+46500+008317FM-12+1345LSMC V0209999C000019999999N9999999N1-01911-02111999999ADDMA1999999085991ME1314339REMSYN060AAXX  05034 06745 43/// /0000 11191 21211 38599 48433 5////;
0168067450999992011010504004+46500+008317FM-12+1345LSMC V0209999C000019999999N9999999N1-01991-02461999999ADDMA1999999086001MD1410001+9999ME1314349OA149900151REMSYN088AAXX  05044 06745 33/// /0000 11199 21246 38600 48434 52000 333 55300 20004 91103 91202;EQDQ01+000022APCTEN
0149067450999992011010505004+46500+008317FM-12+1345LSMC V0209999C000019999999N9999999N1-01921-02271999999ADDMA1999999086001MD1510001+9999ME1314349OA149900151REMSYN088AAXX  05054 06745 33/// /0000 11192 21227 38600 48434 55000 333 55300 20004 91103 91202;
0296067450999992011010506004+46500+008317FM-12+1345LSMC V0209999C000012200019N0700001N1+99999+99999999999ADDAJ100609199999999AL19900091GA1001+999999999GF100991001001999999001001GJ101149IA1279IA2999-02309KA1999N-01991MA1999999086041MD1210051+9999MW1021OA149900211REMSYN130AAXX  05064 06745 31/88 00000 1//// 2//// 38604 52005 702// 333 21199 3/123 43060 55019 55300 20004 70000 90768 93100 91104 91202;
0134067450999992011010507004+46500+008317FM-12+1345LSMC V0209999C000019999999N9999999N1+99999+99999999999ADDMA1999999086071MD1210071+9999OA149900151REMSYN082AAXX  05074 06745 33/// /0000 1//// 2//// 38607 52007 333 55300 20004 91103 91202;
0149067450999992011010508004+46500+008317FM-12+1345LSMC V0200501N001519999999N9999999N1-01861-02061999999ADDMA1999999086101MD1319999+9999ME1314439OA149900211REMSYN088AAXX  05084 06745 33/// /0503 11186 21206 38610 48443 53/// 333 55300 20025 91104 91203;
0203067450999992011010509004+46500+008317FM-12+1345LSMC V0201301N000512200019N0700001N1-01941-02161999999ADDGA1001+999999999GF100991001001999999001001MA1999999086131MD1110091+9999ME1314459MW1021OA149900211REMSYN094AAXX  05094 06745 31/88 01301 11194 21216 38613 48445 51009 702// 333 55300 20076 91104 91203;
0149067450999992011010510004+46500+008317FM-12+1345LSMC V0200501N000519999999N9999999N1-01801-02001999999ADDMA1999999086111MD1010041+9999ME1314449OA149900151REMSYN088AAXX  05104 06745 33/// /0501 11180 21200 38611 48444 50004 333 55300 20104 91103 91202;
0149067450999992011010511004+46500+008317FM-12+1345LSMC V0200601N000519999999N9999999N1-01691-01871999999ADDMA1999999086071MD1810031+9999ME1314419OA149900151REMSYN088AAXX  05114 06745 33/// /0601 11169 21187 38607 48441 58003 333 55300 20137 91103 91202;
0166067450999992011010512004+46500+008317FM-12+1345LSMC V0200801N000512200019N0700001N1-01141-01231999999ADDGA1001+999999999GF100991001001999999001001MA1999999085991ME1314369MW1021REMSYN082AAXX  05124 06745 31/88 00801 11114 21123 38599 48436 5//// 702// 333 553// 2////;
0149067450999992011010513004+46500+008317FM-12+1345LSMC V0200801N000519999999N9999999N1-00891-00931999999ADDMA1999999085931MD1810181+9999ME1314329OA149900151REMSYN088AAXX  05134 06745 33/// /0801 11089 21093 38593 48432 58018 333 553// 2//// 91103 91202;
0096067450999992011010514004+46500+008317FM-12+1345LSMC V0201101N000519999999N9999999N1-00761-00821999999ADDMA1999999085951ME1314349REMSYN060AAXX  05144 06745 43/// /1101 11076 21082 38595 48434 5////;
0148067450999992011010515004+46500+008317FM-12+1345LSMC V0201101N000512200019N0700001N1-00751-01021999999ADDGA1031+036001031GF103991999999999999999999MA1999999085981ME1314379REMSYN070AAXX  05154 06745 42988 31101 11075 21102 38598 48437 5//// 333 83362;
0149067450999992011010516004+46500+008317FM-12+1345LSMC V0200701N000519999999N9999999N1-00951-01271999999ADDMA1999999085971MD1210041+9999ME1314359OA149900211REMSYN088AAXX  05164 06745 33/// /0701 11095 21127 38597 48435 52004 333 55300 20054 91104 91203;
0149067450999992011010517004+46500+008317FM-12+1345LSMC V0200601N001019999999N9999999N1-01201-01341999999ADDMA1999999085991MD1010041+9999ME1314369OA149900211REMSYN088AAXX  05174 06745 33/// /0602 11120 21134 38599 48436 50004 333 55300 20004 91104 91203;
0248067450999992011010518004+46500+008317FM-12+1345LSMC V0200901N000512200019N0700001N1-01271-01381999999ADDAJ100609199999999AL19900091GA1031+036001031GF103991999999999999999999IA1239MA1999999085991MD1519999+9999ME1314369OA149900211REMSYN112AAXX  05184 06745 32988 30901 11127 21138 38599 48436 55/// 333 47060 55300 20004 83362 90766 93100 91104 91203;
0149067450999992011010519004+46500+008317FM-12+1345LSMC V0200301N000519999999N9999999N1-01411-01581999999ADDMA1999999086051MD1310081+9999ME1314409OA149900211REMSYN088AAXX  05194 06745 33/// /0301 11141 21158 38605 48440 53008 333 55300 20004 91104 91202;
0149067450999992011010520004+46500+008317FM-12+1345LSMC V0202801N000519999999N9999999N1-01591-01801999999ADDMA1999999086021MD1019999+9999ME1314379OA149900211REMSYN088AAXX  05204 06745 33/// /2801 11159 21180 38602 48437 50/// 333 55300 20004 91104 91202;
0112067450999992011010521004+46500+008317FM-12+1345LSMC V0200701N001019999999N9999999N1-01331-01511999999ADDMA1999999086011ME1314379REMSYN076AAXX  05214 06745 33/// /0702 11133 21151 38601 48437 5//// 333 553// 20004;
0149067450999992011010522004+46500+008317FM-12+1345LSMC V0200601N000519999999N9999999N1-01491-01711999999ADDMA1999999086011MD1710041+9999ME1314379OA149900211REMSYN088AAXX  05224 06745 33/// /0601 11149 21171 38601 48437 57004 333 55300 20004 91104 91202;
0149067450999992011010523004+46500+008317FM-12+1345LSMC V0209999C000019999999N9999999N1-01531-01831999999ADDMA1999999086031MD1319999+9999ME1314389OA149900261REMSYN088AAXX  05234 06745 33/// /0000 11153 21183 38603 48438 53/// 333 55300 20000 91105 91203;
0096067450999992011010600004+46500+008317FM-12+1345LSMC V0200101N000519999999N9999999N1-01081-01351999999ADDMA1999999085981ME1314359REMSYN060AAXX  06004 06745 43/// /0101 11108 21135 38598 48435 5////;
0096067450999992011010601004+46500+008317FM-12+1345LSMC V0200901N001019999999N9999999N1-01081-01261999999ADDMA1999999085941ME1314329REMSYN060AAXX  06014 06745 43/// /0902 11108 21126 38594 48432 5////;
0096067450999992011010602004+46500+008317FM-12+1345LSMC V0200101N001019999999N9999999N1-00771-01141999999ADDMA1999999085891ME1314289REMSYN060AAXX  06024 06745 43/// /0102 11077 21114 38589 48428 5////;
0096067450999992011010603004+46500+008317FM-12+1345LSMC V0201101N000519999999N9999999N1-00831-01061999999ADDMA1999999085901ME1314299REMSYN060AAXX  06034 06745 43/// /1101 11083 21106 38590 48429 5////;
0096067450999992011010604004+46500+008317FM-12+1345LSMC V0202401N001519999999N9999999N1-00711-01011999999ADDMA1999999085901ME1314299REMSYN060AAXX  06044 06745 43/// /2403 11071 21101 38590 48429 5////;
0096067450999992011010605004+46500+008317FM-12+1345LSMC V0209999C000019999999N9999999N1-00661-00921999999ADDMA1999999085911ME1314319REMSYN060AAXX  06054 06745 43/// /0000 11066 21092 38591 48431 5////;
0286067450999992011010606004+46500+008317FM-12+1345LSMC V0202501N001010123019N0200001N1-00621-00951999999ADDAA124000091AJ100609199999999AL19900091GA1081+012301071GF108991999999012501999999GJ102289IA1239IA2999-01909KA1999N-01591MA1999999085901ME1314309REMSYN112AAXX  06064 06745 42670 82502 11062 21095 38590 48430 5//// 333 21159 3/119 47060 55038 70000 88741 90768 93100;EQDQ01  00002PRCP24
0096067450999992011010607004+46500+008317FM-12+1345LSMC V0202601N001019999999N9999999N1-00531-00911999999ADDMA1999999085981ME1314379REMSYN060AAXX  06074 06745 43/// /2602 11053 21091 38598 48437 5////;
0112067450999992011010608004+46500+008317FM-12+1345LSMC V0201201N000519999999N9999999N1-00601-00961999999ADDMA1999999085981ME1314379REMSYN076AAXX  06084 06745 33/// /1201 11060 21096 38598 48437 5//// 333 553// 20076;
0148067450999992011010609004+46500+008317FM-12+1345LSMC V0202501N000512200019N0700001N1-00761-01031999999ADDGA1041+030001031GF104991999999999999999999MA1999999086011ME1314399REMSYN070AAXX  06094 06745 42988 42501 11076 21103 38601 48439 5//// 333 84360;
0149067450999992011010610004+46500+008317FM-12+1345LSMC V0202201N000519999999N9999999N1-00671-00951999999ADDMA1999999086031MD1310051+9999ME1314419OA149900211REMSYN088AAXX  06104 06745 33/// /2201 11067 21095 38603 48441 53005 333 55300 20371 91104 91202;
0149067450999992011010611004+46500+008317FM-12+1345LSMC V0202501N000519999999N9999999N1-00491-00821999999ADDMA1999999086011MD1010031+9999ME1314409OA149900461REMSYN088AAXX  06114 06745 33/// /2501 11049 21082 38601 48440 50003 333 55300 20490 91109 91202;
0197067450999992011010612004+46500+008317FM-12+1345LSMC V0201001N00361030001CN0700001N1+00191-00801999999ADDGA1071+030001031GF107991999999999999999999MA1999999085981MD1710031+9999ME1314409OA149900821REMSYN094AAXX  06124 06745 32988 71007 10019 21080 38598 48440 57003 333 55300 20796 87360 91116 91207;
0149067450999992011010613004+46500+008317FM-12+1345LSMC V0201001N006719999999N9999999N1+00181-00801999999ADDMA1999999085961MD1710071+9999ME1314389OA149901181REMSYN088AAXX  06134 06745 33/// /1013 10018 21080 38596 48438 57007 333 55304 20774 91123 91213;
0096067450999992011010614004+46500+008317FM-12+1345LSMC V0200901N004119999999N9999999N1+00231-00701999999ADDMA1999999085981ME1314409REMSYN060AAXX  06144 06745 43/// /0908 10023 21070 38598 48440 5////;
0148067450999992011010615004+46500+008317FM-12+1345LSMC V0201501N000510510019N0700001N1-00021-00501999999ADDGA1071+051001001GF107991999999999999999999MA1999999086011ME1314429REMSYN070AAXX  06154 06745 42988 71501 11002 21050 38601 48442 5//// 333 87067;
0149067450999992011010616004+46500+008317FM-12+1345LSMC V0200801N001519999999N9999999N1+00081-00611999999ADDMA1999999086051MD1210091+9999ME1314469OA149900981REMSYN088AAXX  06164 06745 33/// /0803 10008 21061 38605 48446 52009 333 55300 20054 91119 91209;
0149067450999992011010617004+46500+008317FM-12+1345LSMC V0202601N000519999999N9999999N1-00231-00541999999ADDMA1999999086051MD1210071+9999ME1314459OA149900361REMSYN088AAXX  06174 06745 33/// /2601 11023 21054 38605 48445 52007 333 55300 20004 91107 91203;
0267067450999992011010618004+46500+008317FM-12+1345LSMC V0202801N00051051001CN0700001N1-00121-00471999999ADDAJ100609199999999AL19900091GA1081+051001001GF108991999999999999999999IA1279KA1120M+00261MA1999999086091MD1210081+9999ME1314499OA149901241REMSYN118AAXX  06184 06745 32988 82801 11012 21047 38609 48449 52008 333 10026 43060 55300 20004 88067 90766 93100 91124 91213;
0149067450999992011010619004+46500+008317FM-12+1345LSMC V0203501N000519999999N9999999N1-00151-00431999999ADDMA1999999086131MD1210081+9999ME1314529OA149900211REMSYN088AAXX  06194 06745 33/// /3501 11015 21043 38613 48452 52008 333 55300 20004 91104 91202;
0149067450999992011010620004+46500+008317FM-12+1345LSMC V0209999C000019999999N9999999N1-00181-00371999999ADDMA1999999086201MD1219999+9999ME1314599OA149900151REMSYN088AAXX  06204 06745 33/// /0000 11018 21037 38620 48459 52/// 333 55300 20004 91103 91202;
0149067450999992011010621004+46500+008317FM-12+1345LSMC V0200501N000519999999N9999999N1-00201-00271999999ADDMA1999999086221MD1219999+9999ME1314619OA149900361REMSYN088AAXX  06214 06745 33/// /0501 11020 21027 38622 48461 52/// 333 55300 20004 91107 91203;
0149067450999992011010622004+46500+008317FM-12+1345LSMC V0209999C000019999999N9999999N1-00181-00251999999ADDMA1999999086251MD1210121+9999ME1314639OA149900151REMSYN088AAXX  06224 06745 33/// /0000 11018 21025 38625 48463 52012 333 55300 20004 91103 91202;
0112067450999992011010623004+46500+008317FM-12+1345LSMC V0200401N000519999999N9999999N1-00161-00211999999ADDMA1999999086301ME1314689REMSYN076AAXX  06234 06745 33/// /0401 11016 21021 38630 48468 5//// 333 553// 20004;
0096067450999992011010700004+46500+008317FM-12+1345LSMC V0201001N000519999999N9999999N1-00131-00211999999ADDMA1999999086281ME1314669REMSYN060AAXX  07004 06745 43/// /1001 11013 21021 38628 48466 5////;
0096067450999992011010701004+46500+008317FM-12+1345LSMC V0200801N000519999999N9999999N1-00131-00211999999ADDMA1999999086301ME1314689REMSYN060AAXX  07014 06745 43/// /0801 11013 21021 38630 48468 5////;
0096067450999992011010702004+46500+008317FM-12+1345LSMC V0201101N000519999999N9999999N1-00131-00211999999ADDMA1999999086341ME1314729REMSYN060AAXX  07024 06745 43/// /1101 11013 21021 38634 48472 5////;
0096067450999992011010703004+46500+008317FM-12+1345LSMC V0209999C000019999999N9999999N1-00111-00201999999ADDMA1999999086371ME1314759REMSYN060AAXX  07034 06745 43/// /0000 11011 21020 38637 48475 5////;
0149067450999992011010704004+46500+008317FM-12+1345LSMC V0200101N000519999999N9999999N1-00111-00181999999ADDMA1999999086341MD1010041+9999ME1314729OA149900211REMSYN088AAXX  07044 06745 33/// /0101 11011 21018 38634 48472 50004 333 55300 20004 91104 91202;
0149067450999992011010705004+46500+008317FM-12+1345LSMC V0200801N000519999999N9999999N1-00111-00171999999ADDMA1999999086391MD1210051+9999ME1314779OA149900211REMSYN088AAXX  07054 06745 33/// /0801 11011 21017 38639 48477 52005 333 55300 20004 91104 91202;
0318067450999992011010706004+46500+008317FM-12+1345LSMC V0201501N000519999999N0050001N1-00101-00151999999ADDAA112000021AJ100609199999999AL19900091AL29900191AY171061AY221061GJ100549IA1239IA2999-00209KA1999N-00201MA1999999086451MD1310081+9999ME1314829MW1261OA149900211REMSYN148AAXX  07064 06745 01/50 /1501 11010 21015 38645 48482 53008 69912 72672 333 21020 3/102 47060 55009 55300 20004 69915 70000 90768 93101 91104 91203;
0155067450999992011010707004+46500+008317FM-12+1345LSMC V0200601N001019999999N9999999N1-00061-00121999999ADDMA1999999086461MD1210121+9999ME1314839OA149900211REMSYN094AAXX  07074 06745 23/// /0602 11006 21012 38646 48483 52012 333 55300 20004 69925 91104 91203;
0112067450999992011010708004+46500+008317FM-12+1345LSMC V0202301N000519999999N9999999N1-00151-00191999999ADDMA1999999086441ME1314819REMSYN076AAXX  07084 06745 33/// /2301 11015 21019 38644 48481 5//// 333 553// 20061;
0176067450999992011010709004+46500+008317FM-12+1345LSMC V0200701N001512200019N0600001N1-00161-00231999999ADDAY171031AY211031GA1041+030001031GF104991999999999999999999MA1999999086471ME1314849MW1011REMSYN076AAXX  07094 06745 41986 40703 11016 21023 38647 48484 5//// 70171 333 84360;
0149067450999992011010710004+46500+008317FM-12+1345LSMC V0202501N001019999999N9999999N1-00161-00241999999ADDMA1999999086501MD1210041+9999ME1314869OA149900261REMSYN088AAXX  07104 06745 33/// /2502 11016 21024 38650 48486 52004 333 55300 20497 91105 91203;
0149067450999992011010711004+46500+008317FM-12+1345LSMC V0202501N001019999999N9999999N1+00041-00111999999ADDMA1999999086461MD1010021+9999ME1314849OA149900311REMSYN088AAXX  07114 06745 33/// /2502 10004 21011 38646 48484 50002 333 55300 20630 91106 91203;
0220067450999992011010712004+46500+008317FM-12+1345LSMC V0202001N001012200019N0700001N1+00211+00021999999ADDAA106000021GA1041+027001031GF104991999999999999999999MA1999999086411MD1710061+9999ME1314809OA149900311REMSYN106AAXX  07124 06745 02988 42002 10021 20002 38641 48480 57006 69921 333 55305 2//// 60005 84359 91106 91203;
0149067450999992011010713004+46500+008317FM-12+1345LSMC V0201201N002619999999N9999999N1+00671-00231999999ADDMA1999999086401MD1810101+9999ME1314819OA149900931REMSYN088AAXX  07134 06745 33/// /1205 10067 21023 38640 48481 58010 333 553// 2//// 91118 91207;
0096067450999992011010714004+46500+008317FM-12+1345LSMC V0200901N005119999999N9999999N1+00601-00251999999ADDMA1999999086411ME1314829REMSYN060AAXX  07144 06745 43/// /0910 10060 21025 38641 48482 5////;
0166067450999992011010715004+46500+008317FM-12+1345LSMC V0200801N006219999999N0700001N1+00631-00231999999ADDGA1041+011401061GF107991999999012501999999MA1999999086451ME1314869MW1031REMSYN082AAXX  07154 06745 41688 70812 10063 21023 38645 48486 5//// 703// 333 84638 83067;
0149067450999992011010716004+46500+008317FM-12+1345LSMC V0209999C000019999999N9999999N1+00251-00051999999ADDMA1999999086491MD1210091+9999ME1314889OA149901491REMSYN088AAXX  07164 06745 33/// /0000 10025 21005 38649 48488 52009 333 55300 20101 91129 91213;
0149067450999992011010717004+46500+008317FM-12+1345LSMC V0202401N001019999999N9999999N1+00201-00051999999ADDMA1999999086521MD1310111+9999ME1314909OA149901491REMSYN088AAXX  07174 06745 33/// /2402 10020 21005 38652 48490 53011 333 55300 20007 91129 91210;
0154067450999992011010718004+46500+008317FM-12+1345LSMC V0202401N001019999999N9999999N1+00121-00081999999ADDAA112000021KA1120M+00671MA1999999086521ME1314909REMSYN094AAXX  07184 06745 03/// /2402 10012 21008 38652 48490 5//// 69922 333 10067 553// 20004 60005;
0149067450999992011010719004+46500+008317FM-12+1345LSMC V0201701N001019999999N9999999N1+00061-00111999999ADDMA1999999086511MD1219999+9999ME1314899OA149900361REMSYN088AAXX  07194 06745 33/// /1702 10006 21011 38651 48489 52/// 333 55300 20004 91107 91202;
0096067450999992011010720004+46500+008317FM-12+1345LSMC V0202301N001519999999N9999999N1-00031-00151999999ADDMA1999999086481ME1314859REMSYN060AAXX  07204 06745 43/// /2303 11003 21015 38648 48485 5////;
0096067450999992011010721004+46500+008317FM-12+1345LSMC V0202201N002119999999N9999999N1+00031-00161999999ADDMA1999999086481ME1314869REMSYN060AAXX  07214 06745 43/// /2204 10003 21016 38648 48486 5////;
0149067450999992011010722004+46500+008317FM-12+1345LSMC V0202601N001019999999N9999999N1+00111-00141999999ADDMA1999999086481MD1710031+9999ME1314869OA149900361REMSYN088AAXX  07224 06745 33/// /2602 10011 21014 38648 48486 57003 333 55300 20004 91107 91204;
0112067450999992011010723004+46500+008317FM-12+1345LSMC V0202201N000519999999N9999999N1+00611-00251999999ADDMA1999999086481ME1314899REMSYN076AAXX  07234 06745 33/// /2201 10061 21025 38648 48489 5//// 333 553// 20004;
0112067450999992011010800004+46500+008317FM-12+1345LSMC V0202701N001019999999N9999999N1+00301-00141999999ADDMA1999999086491ME1314889REMSYN076AAXX  08004 06745 33/// /2702 10030 21014 38649 48488 5//// 333 553// 20007;
0096067450999992011010801004+46500+008317FM-12+1345LSMC V0202401N001019999999N9999999N1+00151-00061999999ADDMA1999999086481ME1314869REMSYN060AAXX  08014 06745 43/// /2402 10015 21006 38648 48486 5////;
0096067450999992011010802004+46500+008317FM-12+1345LSMC V0202501N001019999999N9999999N1+00151-00071999999ADDMA1999999086491ME1314879REMSYN060AAXX  08024 06745 43/// /2502 10015 21007 38649 48487 5////;
0096067450999992011010803004+46500+008317FM-12+1345LSMC V0202601N001019999999N9999999N1+00171-00081999999ADDMA1999999086481ME1314869REMSYN060AAXX  08034 06745 43/// /2602 10017 21008 38648 48486 5////;
0096067450999992011010804004+46500+008317FM-12+1345LSMC V0202401N000519999999N9999999N1+00141-00081999999ADDMA1999999086461ME1314849REMSYN060AAXX  08044 06745 43/// /2401 10014 21008 38646 48484 5////;
0096067450999992011010805004+46500+008317FM-12+1345LSMC V0203101N000519999999N9999999N1+00091-00111999999ADDMA1999999086401ME1314799REMSYN060AAXX  08054 06745 43/// /3101 10009 21011 38640 48479 5////;
0202067450999992011010806004+46500+008317FM-12+1345LSMC V0201801N000519999999N0150001N1+00071-00081999999ADDAJ100579199999999AL10600091GJ101689IA1279IA2999-00309KA1999N-00131MA1999999086411ME1314799REMSYN100AAXX  08064 06745 42/65 /1801 10007 21008 38641 48479 5//// 333 21013 3/103 43057 55028 90768 93100;
0096067450999992011010807004+46500+008317FM-12+1345LSMC V0202101N001019999999N9999999N1+00121-00071999999ADDMA1999999086481ME1314869REMSYN060AAXX  08074 06745 43/// /2102 10012 21007 38648 48486 5////;
0112067450999992011010808004+46500+008317FM-12+1345LSMC V0200801N000519999999N9999999N1+00051-00051999999ADDMA1999999086511ME1314899REMSYN076AAXX  08084 06745 33/// /0801 10005 21005 38651 48489 5//// 333 553// 20061;
0148067450999992011010809004+46500+008317FM-12+1345LSMC V0202101N001010123019N0500001N1+00161-00041999999ADDGA1051+012301061GF105991999999012501999999MA1999999086531ME1314919REMSYN070AAXX  08094 06745 42684 52102 10016 21004 38653 48491 5//// 333 85641;
0096067450999992011010810004+46500+008317FM-12+1345LSMC V0200901N001019999999N9999999N1+00191-00071999999ADDMA1999999086531ME1314919REMSYN060AAXX  08104 06745 43/// /0902 10019 21007 38653 48491 5////;
0096067450999992011010811004+46500+008317FM-12+1345LSMC V0201301N000519999999N9999999N1+00191-00091999999ADDMA1999999086491ME1314879REMSYN060AAXX  08114 06745 43/// /1301 10019 21009 38649 48487 5////;
0148067450999992011010812004+46500+008317FM-12+1345LSMC V0202601N001012200019N0600001N1+00431-00051999999ADDGA1031+015001031GF103991999999017501999999MA1999999086451ME1314859REMSYN070AAXX  08124 06745 42786 32602 10043 21005 38645 48485 5//// 333 83350;
0096067450999992011010813004+46500+008317FM-12+1345LSMC V0201001N005119999999N9999999N1+00651-00291999999ADDMA1999999086411ME1314829REMSYN060AAXX  08134 06745 43/// /1010 10065 21029 38641 48482 5////;
0096067450999992011010814004+46500+008317FM-12+1345LSMC V0201001N005119999999N9999999N1+00621-00241999999ADDMA1999999086421ME1314839REMSYN060AAXX  08144 06745 43/// /1010 10062 21024 38642 48483 5////;
0148067450999992011010815004+46500+008317FM-12+1345LSMC V0200901N004112200019N0700001N1+00621-00291999999ADDGA1031+015001031GF103991999999017501999999MA1999999086451ME1314869REMSYN070AAXX  08154 06745 42788 30908 10062 21029 38645 48486 5//// 333 83350;
0096067450999992011010816004+46500+008317FM-12+1345LSMC V0200901N003119999999N9999999N1+00601-00321999999ADDMA1999999086501ME1314919REMSYN060AAXX  08164 06745 43/// /0906 10060 21032 38650 48491 5////;
0096067450999992011010817004+46500+008317FM-12+1345LSMC V0203001N000519999999N9999999N1+00311-00161999999ADDMA1999999086541ME1314939REMSYN060AAXX  08174 06745 43/// /3001 10031 21016 38654 48493 5////;
0096067450999992011010818004+46500+008317FM-12+1345LSMC V0202901N000519999999N9999999N1+00051-00191999999ADDMA1999999086541ME1314919REMSYN060AAXX  08184 06745 43/// /2901 10005 21019 38654 48491 5////;
0096067450999992011010819004+46500+008317FM-12+1345LSMC V0209999C000019999999N9999999N1-00011-00271999999ADDMA1999999086561ME1314939REMSYN060AAXX  08194 06745 43/// /0000 11001 21027 38656 48493 5////;
0096067450999992011010820004+46500+008317FM-12+1345LSMC V0203401N001019999999N9999999N1-00011-00221999999ADDMA1999999086571ME1314949REMSYN060AAXX  08204 06745 43/// /3402 11001 21022 38657 48494 5////;
0096067450999992011010821004+46500+008317FM-12+1345LSMC V0203201N000519999999N9999999N1-00021-00211999999ADDMA1999999086561ME1314939REMSYN060AAXX  08214 06745 43/// /3201 11002 21021 38656 48493 5////;
0096067450999992011010822004+46500+008317FM-12+1345LSMC V0202601N000519999999N9999999N1-00021-00191999999ADDMA1999999086551ME1314929REMSYN060AAXX  08224 06745 43/// /2601 11002 21019 38655 48492 5////;
0096067450999992011010823004+46500+008317FM-12+1345LSMC V0202101N000519999999N9999999N1-00091-00241999999ADDMA1999999086541ME1314919REMSYN060AAXX  08234 06745 43/// /2101 11009 21024 38654 48491 5////;
0096067450999992011010900004+46500+008317FM-12+1345LSMC V0202201N001019999999N9999999N1-00141-00291999999ADDMA1999999086521ME1314889REMSYN060AAXX  09004 06745 43/// /2202 11014 21029 38652 48488 5////;
0096067450999992011010901004+46500+008317FM-12+1345LSMC V0209999C000019999999N9999999N1-00171-00311999999ADDMA1999999086541ME1314909REMSYN060AAXX  09014 06745 43/// /0000 11017 21031 38654 48490 5////;
0096067450999992011010902004+46500+008317FM-12+1345LSMC V0202401N002619999999N9999999N1-00121-00291999999ADDMA1999999086541ME1314909REMSYN060AAXX  09024 06745 43/// /2405 11012 21029 38654 48490 5////;
0096067450999992011010903004+46500+008317FM-12+1345LSMC V0202301N001519999999N9999999N1-00231-00371999999ADDMA1999999086491ME1314859REMSYN060AAXX  09034 06745 43/// /2303 11023 21037 38649 48485 5////;
0096067450999992011010904004+46500+008317FM-12+1345LSMC V0202401N001019999999N9999999N1-00161-00371999999ADDMA1999999086471ME1314849REMSYN060AAXX  09044 06745 43/// /2402 11016 21037 38647 48484 5////;
0096067450999992011010905004+46500+008317FM-12+1345LSMC V0203101N000519999999N9999999N1-00181-00381999999ADDMA1999999086471ME1314849REMSYN060AAXX  09054 06745 43/// /3101 11018 21038 38647 48484 5////;
0213067450999992011010906004+46500+008317FM-12+1345LSMC V0202401N000510114019N0300001N1-00191-00381999999ADDAJ100579199999999AL10600091GA1061+011401061GF106991999999012501999999GJ101269IA1279MA1999999086431ME1314809REMSYN094AAXX  09064 06745 42680 62401 11019 21038 38643 48480 5//// 333 43057 55021 86638 90768 93100;
0096067450999992011010907004+46500+008317FM-12+1345LSMC V0202401N001019999999N9999999N1-00251-00451999999ADDMA1999999086431ME1314809REMSYN060AAXX  09074 06745 43/// /2402 11025 21045 38643 48480 5////;
0112067450999992011010908004+46500+008317FM-12+1345LSMC V0200101N000519999999N9999999N1-00111-00371999999ADDMA1999999086471ME1314849REMSYN076AAXX  09084 06745 33/// /0101 11011 21037 38647 48484 5//// 333 553// 20047;
0112067450999992011010909004+46500+008317FM-12+1345LSMC V0202601N001019999999N9999999N1+00041-00321999999ADDMA1999999086461ME1314849REMSYN076AAXX  09094 06745 33/// /2602 10004 21032 38646 48484 5//// 333 553// 20202;
0149067450999992011010910004+46500+008317FM-12+1345LSMC V0202901N001019999999N9999999N1+00141-00251999999ADDMA1999999086491MD1210061+9999ME1314879OA149900261REMSYN088AAXX  09104 06745 33/// /2902 10014 21025 38649 48487 52006 333 55300 20392 91105 91203;
0149067450999992011010911004+46500+008317FM-12+1345LSMC V0200101N000519999999N9999999N1+00421-00221999999ADDMA1999999086461MD1710011+9999ME1314869OA149900261REMSYN088AAXX  09114 06745 33/// /0101 10042 21022 38646 48486 57001 333 55300 20396 91105 91203;
0197067450999992011010912004+46500+008317FM-12+1345LSMC V0201101N00211021001CN0500001N1+00571-00311999999ADDGA1081+021001041GF108991999999022501999999MA1999999086391MD1810071+9999ME1314809OA149900511REMSYN094AAXX  09124 06745 32884 81104 10057 21031 38639 48480 58007 333 55300 20457 88457 91110 91205;
0149067450999992011010913004+46500+008317FM-12+1345LSMC V0200901N001519999999N9999999N1+00541-00271999999ADDMA1999999086381MD1710111+9999ME1314799OA149900671REMSYN088AAXX  09134 06745 33/// /0903 10054 21027 38638 48479 57011 333 55300 20324 91113 91207;
0096067450999992011010914004+46500+008317FM-12+1345LSMC V0209999C000019999999N9999999N1+00321-00121999999ADDMA1999999086361ME1314769REMSYN060AAXX  09144 06745 43/// /0000 10032 21012 38636 48476 5////;
0148067450999992011010915004+46500+008317FM-12+1345LSMC V0209999C000010150019N0500001N1+00391-00171999999ADDGA1081+015001041GF108991999999017501999999MA1999999086371ME1314779REMSYN070AAXX  09154 06745 42784 80000 10039 21017 38637 48477 5//// 333 88450;
0149067450999992011010916004+46500+008317FM-12+1345LSMC V0202701N000519999999N9999999N1+00261-00111999999ADDMA1999999086381MD1010001+9999ME1314789OA149900311REMSYN088AAXX  09164 06745 33/// /2701 10026 21011 38638 48478 50000 333 55300 20047 91106 91203;
0149067450999992011010917004+46500+008317FM-12+1345LSMC V0202201N000519999999N9999999N1+00161-00091999999ADDMA1999999086361MD1010001+9999ME1314759OA149900211REMSYN088AAXX  09174 06745 33/// /2201 10016 21009 38636 48475 50000 333 55300 20007 91104 91203;
0267067450999992011010918004+46500+008317FM-12+1345LSMC V0202701N00051015001CN0600001N1+00161-00101999999ADDAJ100579199999999AL19900091GA1081+015001041GF108991999999017501999999IA1279KA1120M+00621MA1999999086381MD1210011+9999ME1314779OA149900671REMSYN118AAXX  09184 06745 32786 82701 10016 21010 38638 48477 52001 333 10062 43057 55300 20004 88450 90766 93100 91113 91207;
0168067450999992011010919004+46500+008317FM-12+1345LSMC V0202401N001019999999N9999999N1+00131-00081999999ADDMA1999999086381MD1410001+9999ME1314779OA149900211REMSYN088AAXX  09194 06745 33/// /2402 10013 21008 38638 48477 52000 333 55300 20004 91104 91202;EQDQ01+000022APCTEN
0149067450999992011010920004+46500+008317FM-12+1345LSMC V0201101N000519999999N9999999N1+00151-00081999999ADDMA1999999086421MD1210061+9999ME1314819OA149900211REMSYN088AAXX  09204 06745 33/// /1101 10015 21008 38642 48481 52006 333 55300 20004 91104 91203;
0149067450999992011010921004+46500+008317FM-12+1345LSMC V0209999C000019999999N9999999N1+00121-00071999999ADDMA1999999086431MD1210051+9999ME1314819OA149900211REMSYN088AAXX  09214 06745 33/// /0000 10012 21007 38643 48481 52005 333 55300 20004 91104 91203;
0149067450999992011010922004+46500+008317FM-12+1345LSMC V0202301N001519999999N9999999N1+00141-00071999999ADDMA1999999086461MD1110081+9999ME1314849OA149900211REMSYN088AAXX  09224 06745 33/// /2303 10014 21007 38646 48484 51008 333 55300 20004 91104 91203;
0149067450999992011010923004+46500+008317FM-12+1345LSMC V0202301N001019999999N9999999N1+00111-00051999999ADDMA1999999086451MD1210031+9999ME1314839OA149900261REMSYN088AAXX  09234 06745 33/// /2302 10011 21005 38645 48483 52003 333 55300 20004 91105 91203;
0191067450999992011011000004+46500+008317FM-12+1345LSMC V0202201N001519999999N9999999N1+00131+00081999999ADDAA106000091MA1999999086481MD1210051+9999ME1314869OA149900671REMSYN100AAXX  10004 06745 03/// /2203 10013 20008 38648 48486 52005 69911 333 55300 20004 69915 91113 91207;EQDQ01  00002PRCP06
0155067450999992011011001004+46500+008317FM-12+1345LSMC V0200601N001019999999N9999999N1+00061+00021999999ADDMA1999999086491MD1210031+9999ME1314879OA149900461REMSYN094AAXX  10014 06745 23/// /0602 10006 20002 38649 48487 52003 333 55300 20004 69965 91109 91206;
0118067450999992011011002004+46500+008317FM-12+1345LSMC V0200701N000519999999N9999999N1+00031+00011999999ADDMA1999999086491ME1314879REMSYN082AAXX  10024 06745 23/// /0701 10003 20001 38649 48487 5//// 333 553// 20004 69945;
0096067450999992011011003004+46500+008317FM-12+1345LSMC V0202901N000519999999N9999999N1+00021+00001999999ADDMA1999999086491ME1314879REMSYN060AAXX  10034 06745 43/// /2901 10002 20000 38649 48487 5////;
0118067450999992011011004004+46500+008317FM-12+1345LSMC V0201001N000519999999N9999999N1+00011+00001999999ADDMA1999999086491ME1314869REMSYN082AAXX  10044 06745 23/// /1001 10001 20000 38649 48486 5//// 333 553// 20004 69915;
0155067450999992011011005004+46500+008317FM-12+1345LSMC V0202701N000519999999N9999999N1+00031-00011999999ADDMA1999999086461MD1819999+9999ME1314849OA149900101REMSYN094AAXX  10054 06745 23/// /2701 10003 21001 38646 48484 58/// 333 55300 20004 69915 91102 91201;
0267067450999992011011006004+46500+008317FM-12+1345LSMC V0209999C000010063019N0150001N1+00011-00011999999ADDAA124001591AJ100569199999999AL13000191GA1081+006301051GF108991999999008001999999GJ100009IA1279IA2999+00009KA1999N-00011MA1999999086471ME1314859REMSYN112AAXX  10064 06745 42565 80000 10001 21001 38647 48485 5//// 333 21001 3/100 43056 55000 70015 88521 90768 93101;
0149067450999992011011007004+46500+008317FM-12+1345LSMC V0209999C000019999999N9999999N1+00001-00021999999ADDMA1999999086471MD1510021+9999ME1314859OA149900151REMSYN088AAXX  10074 06745 33/// /0000 10000 21002 38647 48485 55002 333 55300 20004 91103 91202;
0096067450999992011011008004+46500+008317FM-12+1345LSMC V0201201N000519999999N9999999N1-00011-00021999999ADDMA1999999086501ME1314879REMSYN060AAXX  10084 06745 43/// /1201 11001 21002 38650 48487 5////;
0096067450999992011011009004+46500+008317FM-12+1345LSMC V0202301N001019999999N9999999N1+00001-00011999999ADDMA1999999086521ME1314899REMSYN060AAXX  10094 06745 43/// /2302 10000 21001 38652 48489 5////;
0149067450999992011011010004+46500+008317FM-12+1345LSMC V0202601N001519999999N9999999N1+00031-00021999999ADDMA1999999086531MD1210061+9999ME1314909OA149900151REMSYN088AAXX  10104 06745 33/// /2603 10003 21002 38653 48490 52006 333 55300 20457 91103 91203;
0149067450999992011011011004+46500+008317FM-12+1345LSMC V0202401N000519999999N9999999N1+00041-00021999999ADDMA1999999086501MD1019999+9999ME1314889OA149900151REMSYN088AAXX  10114 06745 33/// /2401 10004 21002 38650 48488 50/// 333 55300 20526 91103 91203;
0144067450999992011011012004+46500+008317FM-12+1345LSMC V0203501N000519999999N0100001N1+00061-00031999999ADDGF108991999999000251999999MA1999999086441ME1314829REMSYN082AAXX  10124 06745 32060 83501 10006 21003 38644 48482 5//// 333 553// 20796 88501;
0096067450999992011011013004+46500+008317FM-12+1345LSMC V0202601N001519999999N9999999N1+00091-00021999999ADDMA1999999086391ME1314789REMSYN060AAXX  10134 06745 43/// /2603 10009 21002 38639 48478 5////;
0096067450999992011011014004+46500+008317FM-12+1345LSMC V0202401N001519999999N9999999N1+00131+00041999999ADDMA1999999086381ME1314779REMSYN060AAXX  10144 06745 43/// /2403 10013 20004 38638 48477 5////;
0148067450999992011011015004+46500+008317FM-12+1345LSMC V0202801N001010003019N0100001N1+00091+00011999999ADDGA1081+000301051GF108991999999000251999999MA1999999086381ME1314779REMSYN070AAXX  10154 06745 42060 82802 10009 20001 38638 48477 5//// 333 88501;
0096067450999992011011016004+46500+008317FM-12+1345LSMC V0202601N001019999999N9999999N1+00071+00021999999ADDMA1999999086391ME1314789REMSYN060AAXX  10164 06745 43/// /2602 10007 20002 38639 48478 5////;
0096067450999992011011017004+46500+008317FM-12+1345LSMC V0200601N000519999999N9999999N1+00071+00031999999ADDMA1999999086381ME1314779REMSYN060AAXX  10174 06745 43/// /0601 10007 20003 38638 48477 5////;
0218067450999992011011018004+46500+008317FM-12+1345LSMC V0202201N000510024019N0300001N1+00041+00011999999ADDAJ100579199999999AL10600091GA1081+002401051GF108991999999002501999999IA1279KA1120M+00141MA1999999086361ME1314759REMSYN094AAXX  10184 06745 42380 82201 10004 20001 38636 48475 5//// 333 10014 43057 88508 90766 93100;
0096067450999992011011019004+46500+008317FM-12+1345LSMC V0200401N000519999999N9999999N1+00021-00011999999ADDMA1999999086341ME1314739REMSYN060AAXX  10194 06745 43/// /0401 10002 21001 38634 48473 5////;
0096067450999992011011020004+46500+008317FM-12+1345LSMC V0202301N000519999999N9999999N1-00011-00041999999ADDMA1999999086321ME1314719REMSYN060AAXX  10204 06745 43/// /2301 11001 21004 38632 48471 5////;
0096067450999992011011021004+46500+008317FM-12+1345LSMC V0200701N000519999999N9999999N1-00021-00021999999ADDMA1999999086321ME1314719REMSYN060AAXX  10214 06745 43/// /0701 11002 21002 38632 48471 5////;
0096067450999992011011022004+46500+008317FM-12+1345LSMC V0200701N000519999999N9999999N1-00031-00031999999ADDMA1999999086331ME1314719REMSYN060AAXX  10224 06745 43/// /0701 11003 21003 38633 48471 5////;
0096067450999992011011023004+46500+008317FM-12+1345LSMC V0201801N001019999999N9999999N1-00091-00091999999ADDMA1999999086331ME1314719REMSYN060AAXX  10234 06745 43/// /1802 11009 21009 38633 48471 5////;
0096067450999992011011100004+46500+008317FM-12+1345LSMC V0209999C000019999999N9999999N1-00051-00061999999ADDMA1999999086301ME1314699REMSYN060AAXX  11004 06745 43/// /0000 11005 21006 38630 48469 5////;
0096067450999992011011101004+46500+008317FM-12+1345LSMC V0202701N001019999999N9999999N1-00051-00061999999ADDMA1999999086251ME1314649REMSYN060AAXX  11014 06745 43/// /2702 11005 21006 38625 48464 5////;
0096067450999992011011102004+46500+008317FM-12+1345LSMC V0202201N000519999999N9999999N1-00041-00081999999ADDMA1999999086241ME1314639REMSYN060AAXX  11024 06745 43/// /2201 11004 21008 38624 48463 5////;
0096067450999992011011103004+46500+008317FM-12+1345LSMC V0200701N001019999999N9999999N1-00101-00341999999ADDMA1999999086201ME1314599REMSYN060AAXX  11034 06745 43/// /0702 11010 21034 38620 48459 5////;
0096067450999992011011104004+46500+008317FM-12+1345LSMC V0200101N000519999999N9999999N1-00331-00431999999ADDMA1999999086171ME1314559REMSYN060AAXX  11044 06745 43/// /0101 11033 21043 38617 48455 5////;
0096067450999992011011105004+46500+008317FM-12+1345LSMC V0200401N001019999999N9999999N1-00511-00511999999ADDMA1999999086141ME1314529REMSYN060AAXX  11054 06745 43/// /0402 11051 21051 38614 48452 5////;
0219067450999992011011106004+46500+008317FM-12+1345LSMC V0200701N001012200019N0150001N1-00561-00621999999ADDAJ100579199999999AL10600091GA1001+999999999GF100991001001999999001001GJ100009IA1279MA1999999086141ME1314529MW1021REMSYN094AAXX  11064 06745 41/65 00702 11056 21062 38614 48452 5//// 702// 333 43057 55000 90768 93100;
0149067450999992011011107004+46500+008317FM-12+1345LSMC V0209999C000019999999N9999999N1-00711-00711999999ADDMA1999999086121MD1719999+9999ME1314499OA149900151REMSYN088AAXX  11074 06745 33/// /0000 11071 21071 38612 48449 57/// 333 55300 20004 91103 91203;
0112067450999992011011108004+46500+008317FM-12+1345LSMC V0200801N001019999999N9999999N1-00681-00781999999ADDMA1999999086121ME1314499REMSYN076AAXX  11084 06745 33/// /0802 11068 21078 38612 48449 5//// 333 553// 20029;
0150067450999992011011109004+46500+008317FM-12+1345LSMC V0209999C000012200019N0700001N1-00831-00881999999ADDGA1001+999999999GF100991001001999999001001MA1999999086101ME1314479MW1021REMSYN066AAXX  11094 06745 41/88 00000 11083 21088 38610 48447 5//// 702//;
0149067450999992011011110004+46500+008317FM-12+1345LSMC V0209999C000019999999N9999999N1-00831-00891999999ADDMA1999999086081MD1710041+9999ME1314459OA149900151REMSYN088AAXX  11104 06745 33/// /0000 11083 21089 38608 48445 57004 333 55300 20104 91103 91202;
0149067450999992011011111004+46500+008317FM-12+1345LSMC V0201001N000519999999N9999999N1-00581-00681999999ADDMA1999999085971MD1810151+9999ME1314369OA149900151REMSYN088AAXX  11114 06745 33/// /1001 11058 21068 38597 48436 58015 333 55300 20414 91103 91202;
0166067450999992011011112004+46500+008317FM-12+1345LSMC V0200301N00051011401CN0700001N1-00321-00511999999ADDGA1051+011401061GF107991999999012501999999MA1999999085851ME1314269REMSYN088AAXX  11124 06745 32688 70301 11032 21051 38585 48426 5//// 333 553// 2//// 85638 83364;
0149067450999992011011113004+46500+008317FM-12+1345LSMC V0202201N000519999999N9999999N1-00301-00491999999ADDMA1999999085771MD1710311+9999ME1314199OA149900101REMSYN088AAXX  11134 06745 33/// /2201 11030 21049 38577 48419 57031 333 55300 20731 91102 91201;
0096067450999992011011114004+46500+008317FM-12+1345LSMC V0202801N000519999999N9999999N1-00091-00451999999ADDMA1999999085781ME1314209REMSYN060AAXX  11144 06745 43/// /2801 11009 21045 38578 48420 5////;
0148067450999992011011115004+46500+008317FM-12+1345LSMC V0202401N005710102019N0600001N1-00031-00471999999ADDGA1051+010201041GF105991999999012501999999MA1999999085841ME1314269REMSYN070AAXX  11154 06745 42686 52411 11003 21047 38584 48426 5//// 333 85434;
0149067450999992011011116004+46500+008317FM-12+1345LSMC V0202501N003619999999N9999999N1-00151-00301999999ADDMA1999999085961MD1310191+9999ME1314379OA149900981REMSYN088AAXX  11164 06745 33/// /2507 11015 21030 38596 48437 53019 333 55300 20050 91119 91213;
0155067450999992011011117004+46500+008317FM-12+1345LSMC V0209999C000019999999N9999999N1-00201-00251999999ADDMA1999999086011MD1119999+9999ME1314419OA149900931REMSYN094AAXX  11174 06745 23/// /0000 11020 21025 38601 48441 51/// 333 55300 20004 69965 91118 91213;
0318067450999992011011118004+46500+008317FM-12+1345LSMC V0200201N00051004201CN0020001N1-00211-00251999999ADDAA112001091AJ100589199999999AL11200191AY121061AY221061GA1081+004201051GF108991999999004501999999IA1239KA1120M+00031MA1999999086061MD1110221+9999ME1314469MW1781OA149900981REMSYN136AAXX  11184 06745 01420 80201 11021 21025 38606 48446 51022 60012 77822 333 10003 47058 55300 20004 69975 88514 90766 93101 91119 91213;
0155067450999992011011119004+46500+008317FM-12+1345LSMC V0209999C000019999999N9999999N1-00241-00281999999ADDMA1999999086121MD1310161+9999ME1314519OA149900101REMSYN094AAXX  11194 06745 23/// /0000 11024 21028 38612 48451 53016 333 55300 20004 69915 91102 91201;
0149067450999992011011120004+46500+008317FM-12+1345LSMC V0200401N000519999999N9999999N1-00231-00271999999ADDMA1999999086151MD1110141+9999ME1314549OA149900101REMSYN088AAXX  11204 06745 33/// /0401 11023 21027 38615 48454 51014 333 55300 20004 91102 91201;
0155067450999992011011121004+46500+008317FM-12+1345LSMC V0201501N000519999999N9999999N1-00211-00251999999ADDMA1999999086201MD1110141+9999ME1314599OA149900931REMSYN094AAXX  11214 06745 23/// /1501 11021 21025 38620 48459 51014 333 55300 20004 69925 91118 91213;
0155067450999992011011122004+46500+008317FM-12+1345LSMC V0202701N000519999999N9999999N1-00231-00271999999ADDMA1999999086271MD1310151+9999ME1314659OA149900101REMSYN094AAXX  11224 06745 23/// /2701 11023 21027 38627 48465 53015 333 55300 20004 69925 91102 91201;
0155067450999992011011123004+46500+008317FM-12+1345LSMC V0209999C000019999999N9999999N1-00231-00261999999ADDMA1999999086321MD1310171+9999ME1314709OA149900101REMSYN094AAXX  11234 06745 23/// /0000 11023 21026 38632 48470 53017 333 55300 20004 69955 91102 91201;
0172067450999992011011200004+46500+008317FM-12+1345LSMC V0202501N000519999999N9999999N1-00221-00251999999ADDAA106001091MA1999999086381MD1110181+9999ME1314759OA149900981REMSYN100AAXX  12004 06745 03/// /2501 11022 21025 38638 48475 51018 60011 333 55300 20004 69945 91119 91213;
0155067450999992011011201004+46500+008317FM-12+1345LSMC V0200901N000519999999N9999999N1-00181-00241999999ADDMA1999999086451MD1210181+9999ME1314829OA149900151REMSYN094AAXX  12014 06745 23/// /0901 11018 21024 38645 48482 52018 333 55300 20004 69915 91103 91202;
0112067450999992011011202004+46500+008317FM-12+1345LSMC V0201801N000519999999N9999999N1-00201-00231999999ADDMA1999999086521ME1314889REMSYN076AAXX  12024 06745 33/// /1801 11020 21023 38652 48488 5//// 333 553// 20004;
0096067450999992011011203004+46500+008317FM-12+1345LSMC V0200401N000519999999N9999999N1-00391-00431999999ADDMA1999999086561ME1314919REMSYN060AAXX  12034 06745 43/// /0401 11039 21043 38656 48491 5////;
0096067450999992011011204004+46500+008317FM-12+1345LSMC V0202801N000519999999N9999999N1-00491-00501999999ADDMA1999999086611ME1314959REMSYN060AAXX  12044 06745 43/// /2801 11049 21050 38661 48495 5////;
0112067450999992011011205004+46500+008317FM-12+1345LSMC V0200201N001019999999N9999999N1-00391-00431999999ADDMA1999999086631ME1314979REMSYN076AAXX  12054 06745 33/// /0202 11039 21043 38663 48497 5//// 333 553// 20004;
0267067450999992011011206004+46500+008317FM-12+1345LSMC V0202701N000510114019N0100001N1-00501-00541999999ADDAA124002891AJ100609199999999AL14800291GA1081+011401071GF108991999999012501999999GJ100249IA1279IA2999-00909KA1999N-00591MA1999999086691ME1315029REMSYN112AAXX  12064 06745 42660 82701 11050 21054 38669 48502 5//// 333 21059 3/109 43060 55004 70028 88738 90768 93108;
0149067450999992011011207004+46500+008317FM-12+1345LSMC V0201201N000519999999N9999999N1-00611-00691999999ADDMA1999999086741MD1310131+9999ME1315069OA149900101REMSYN088AAXX  12074 06745 33/// /1201 11061 21069 38674 48506 53013 333 55300 20007 91102 91201;
0096067450999992011011208004+46500+008317FM-12+1345LSMC V0202101N000519999999N9999999N1-00501-00571999999ADDMA1999999086821ME1315149REMSYN060AAXX  12084 06745 43/// /2101 11050 21057 38682 48514 5////;
0148067450999992011011209004+46500+008317FM-12+1345LSMC V0200501N001012200019N0270001N1-00361-00441999999ADDGA1041+011401061GF104991999999012501999999MA1999999086841ME1315169REMSYN070AAXX  12094 06745 42677 40502 11036 21044 38684 48516 5//// 333 84638;
0149067450999992011011210004+46500+008317FM-12+1345LSMC V0209999C000019999999N9999999N1-00241-00351999999ADDMA1999999086871MD1219999+9999ME1315209OA149900151REMSYN088AAXX  12104 06745 33/// /0000 11024 21035 38687 48520 52/// 333 55300 20756 91103 91202;
0149067450999992011011211004+46500+008317FM-12+1345LSMC V0202001N000519999999N9999999N1-00091-00271999999ADDMA1999999086861MD1210041+9999ME1315209OA149900151REMSYN088AAXX  12114 06745 33/// /2001 11009 21027 38686 48520 52004 333 55301 20763 91103 91202;
0148067450999992011011212004+46500+008317FM-12+1345LSMC V0200201N001010114019N0100001N1+00051-00181999999ADDGA1081+011401041GF108991999999012501999999MA1999999086821ME1315179REMSYN070AAXX  12124 06745 42660 80202 10005 21018 38682 48517 5//// 333 88438;
0096067450999992011011213004+46500+008317FM-12+1345LSMC V0200701N001519999999N9999999N1+00251-00271999999ADDMA1999999086791ME1315169REMSYN060AAXX  12134 06745 43/// /0703 10025 21027 38679 48516 5////;
0096067450999992011011214004+46500+008317FM-12+1345LSMC V0200101N000519999999N9999999N1+00151-00111999999ADDMA1999999086821ME1315189REMSYN060AAXX  12144 06745 43/// /0101 10015 21011 38682 48518 5////;
0096067450999992011011215004+46500+008317FM-12+1345LSMC V0202301N003619999999N9999999N1+00071-00071999999ADDMA1999999086881ME1315239REMSYN060AAXX  12154 06745 43/// /2307 10007 21007 38688 48523 5////;
0155067450999992011011216004+46500+008317FM-12+1345LSMC V0202301N002119999999N9999999N1+00001-00041999999ADDMA1999999086931MD1310141+9999ME1315279OA149900721REMSYN094AAXX  12164 06745 23/// /2304 10000 21004 38693 48527 53014 333 55300 20036 69945 91114 91209;
0155067450999992011011217004+46500+008317FM-12+1345LSMC V0209999C000019999999N9999999N1-00031-00031999999ADDMA1999999086971MD1110151+9999ME1315309OA149900411REMSYN094AAXX  12174 06745 23/// /0000 11003 21003 38697 48530 51015 333 55300 20004 60015 91108 91206;
0318067450999992011011218004+46500+008317FM-12+1345LSMC V0202801N00051001201CN0010001N1-00031-00051999999ADDAA112002091AJ100689199999999AL11200891AY171061AY221061GA1081+001201051GF108991999999001501999999IA1279KA1120M+00251MA1999999086971MD1210091+9999ME1315309MW1701OA149900721REMSYN136AAXX  12184 06745 01210 82801 11003 21005 38697 48530 52009 60022 77072 333 10025 43068 55300 20004 69955 88504 90766 93108 91114 91209;
0155067450999992011011219004+46500+008317FM-12+1345LSMC V0201001N000519999999N9999999N1-00041-00061999999ADDMA1999999086991MD1210061+9999ME1315329OA149900101REMSYN094AAXX  12194 06745 23/// /1001 11004 21006 38699 48532 52006 333 55300 20004 69945 91102 91201;
0155067450999992011011220004+46500+008317FM-12+1345LSMC V0200701N000519999999N9999999N1-00021-00061999999ADDMA1999999087001MD1210031+9999ME1315339OA149900101REMSYN094AAXX  12204 06745 23/// /0701 11002 21006 38700 48533 52003 333 55300 20004 69955 91102 91201;
0155067450999992011011221004+46500+008317FM-12+1345LSMC V0209999C000019999999N9999999N1-00051-00061999999ADDMA1999999087001MD1210031+9999ME1315339OA149900411REMSYN094AAXX  12214 06745 23/// /0000 11005 21006 38700 48533 52003 333 55300 20004 69925 91108 91206;
0155067450999992011011222004+46500+008317FM-12+1345LSMC V0209999C000019999999N9999999N1-00031-00051999999ADDMA1999999086981MD1810011+9999ME1315319OA149900051REMSYN094AAXX  12224 06745 23/// /0000 11003 21005 38698 48531 58001 333 55300 20004 69965 91101 91201;
0155067450999992011011223004+46500+008317FM-12+1345LSMC V0209999C000019999999N9999999N1-00021-00041999999ADDMA1999999086981MD1710021+9999ME1315319OA149900051REMSYN094AAXX  12234 06745 23/// /0000 11002 21004 38698 48531 57002 333 55300 20004 69955 91101 91201;
0172067450999992011011300004+46500+008317FM-12+1345LSMC V0200901N000519999999N9999999N1-00011-00031999999ADDAA106003091MA1999999086941MD1710061+9999ME1315289OA149900721REMSYN100AAXX  13004 06745 03/// /0901 11001 21003 38694 48528 57006 60031 333 55300 20004 69935 91114 91209;
0155067450999992011011301004+46500+008317FM-12+1345LSMC V0200401N000519999999N9999999N1+00021-00021999999ADDMA1999999086911MD1710071+9999ME1315259OA149900051REMSYN094AAXX  13014 06745 23/// /0401 10002 21002 38691 48525 57007 333 55300 20004 69935 91101 91201;
0155067450999992011011302004+46500+008317FM-12+1345LSMC V0209999C000019999999N9999999N1+00021+00011999999ADDMA1999999086941MD1519999+9999ME1315289OA149900051REMSYN094AAXX  13024 06745 23/// /0000 10002 20001 38694 48528 55/// 333 55300 20004 60015 91101 91201;
0096067450999992011011303004+46500+008317FM-12+1345LSMC V0209999C000019999999N9999999N1+00031+00011999999ADDMA1999999086941ME1315289REMSYN060AAXX  13034 06745 43/// /0000 10003 20001 38694 48528 5////;
0155067450999992011011304004+46500+008317FM-12+1345LSMC V0200801N000519999999N9999999N1+00031+00011999999ADDMA1999999086901MD1819999+9999ME1315249OA149900101REMSYN094AAXX  13044 06745 23/// /0801 10003 20001 38690 48524 58/// 333 55300 20004 60015 91102 91201;
0118067450999992011011305004+46500+008317FM-12+1345LSMC V0200501N000519999999N9999999N1+00041+00021999999ADDMA1999999086921ME1315269REMSYN082AAXX  13054 06745 23/// /0501 10004 20002 38692 48526 5//// 333 553// 20004 60015;
0366067450999992011011306004+46500+008317FM-12+1345LSMC V0201701N00051006301CN0100001N1+00031+00001999999ADDAA112008991AJ100709199999999AL14801091AL29901591AY121061AY221061GA1081+006301051GF108991999999008001999999GJ100069IA1279IA2999-00109KA1999N-00061MA1999999086931MD1510011+9999ME1315279MW1701OA149900151REMSYN154AAXX  13064 06745 01560 81701 10003 20000 38693 48527 55001 60092 77022 333 21006 3/101 43070 55001 55300 20004 60015 70108 88521 90768 93115 91103 91201;
0096067450999992011011307004+46500+008317FM-12+1345LSMC V0202401N000519999999N9999999N1+00061+00021999999ADDMA1999999086921ME1315269REMSYN060AAXX  13074 06745 43/// /2401 10006 20002 38692 48526 5////;
0096067450999992011011308004+46500+008317FM-12+1345LSMC V0203001N000519999999N9999999N1+00061+00031999999ADDMA1999999086931ME1315279REMSYN060AAXX  13084 06745 43/// /3001 10006 20003 38693 48527 5////;
0176067450999992011011309004+46500+008317FM-12+1345LSMC V0200401N000510063019N0100001N1+00111+00061999999ADDAY171031AY271031GA1081+006301051GF108991999999008001999999MA1999999086961ME1315309MW1621REMSYN076AAXX  13094 06745 41560 80401 10011 20006 38696 48530 5//// 76277 333 88521;
0096067450999992011011310004+46500+008317FM-12+1345LSMC V0202301N001519999999N9999999N1+00131+00081999999ADDMA1999999086951ME1315309REMSYN060AAXX  13104 06745 43/// /2303 10013 20008 38695 48530 5////;
0096067450999992011011311004+46500+008317FM-12+1345LSMC V0200601N001519999999N9999999N1+00221+00121999999ADDMA1999999086901ME1315269REMSYN060AAXX  13114 06745 43/// /0603 10022 20012 38690 48526 5////;
0148067450999992011011312004+46500+008317FM-12+1345LSMC V0201801N001010114019N0240001N1+00401+00271999999ADDGA1051+011401061GF105991999999012501999999MA1999999086861ME1315239REMSYN070AAXX  13124 06745 42674 51802 10040 20027 38686 48523 5//// 333 85638;
0096067450999992011011313004+46500+008317FM-12+1345LSMC V0209999C000019999999N9999999N1+00301+00201999999ADDMA1999999086841ME1315219REMSYN060AAXX  13134 06745 43/// /0000 10030 20020 38684 48521 5////;
0096067450999992011011314004+46500+008317FM-12+1345LSMC V0200201N001519999999N9999999N1+00261+00171999999ADDMA1999999086841ME1315209REMSYN060AAXX  13144 06745 43/// /0203 10026 20017 38684 48520 5////;
0096067450999992011011315004+46500+008317FM-12+1345LSMC V0200401N000519999999N9999999N1+00221+00171999999ADDMA1999999086871ME1315239REMSYN060AAXX  13154 06745 43/// /0401 10022 20017 38687 48523 5////;
0096067450999992011011316004+46500+008317FM-12+1345LSMC V0201201N000519999999N9999999N1+00171+00131999999ADDMA1999999086911ME1315269REMSYN060AAXX  13164 06745 43/// /1201 10017 20013 38691 48526 5////;
0149067450999992011011317004+46500+008317FM-12+1345LSMC V0201801N000519999999N9999999N1+00081+00061999999ADDMA1999999086921MD1210081+9999ME1315279OA149900151REMSYN088AAXX  13174 06745 33/// /1801 10008 20006 38692 48527 52008 333 55300 20007 91103 91202;
0191067450999992011011318004+46500+008317FM-12+1345LSMC V0200401N001519999999N9999999N1+00101+00071999999ADDAA112000591KA1120M+00401MA1999999086941MD1210061+9999ME1315299OA149900361REMSYN106AAXX  13184 06745 03/// /0403 10010 20007 38694 48529 52006 69962 333 10040 55300 20004 60005 91107 91206;
0149067450999992011011319004+46500+008317FM-12+1345LSMC V0209999C000019999999N9999999N1+00081+00051999999ADDMA1999999086941MD1210031+9999ME1315289OA149900261REMSYN088AAXX  13194 06745 33/// /0000 10008 20005 38694 48528 52003 333 55300 20004 91105 91203;
0149067450999992011011320004+46500+008317FM-12+1345LSMC V0201201N000519999999N9999999N1+00051+00051999999ADDMA1999999086951MD1210031+9999ME1315299OA149900211REMSYN088AAXX  13204 06745 33/// /1201 10005 20005 38695 48529 52003 333 55300 20004 91104 91202;
0149067450999992011011321004+46500+008317FM-12+1345LSMC V0200501N001019999999N9999999N1+00081+00071999999ADDMA1999999086961MD1210021+9999ME1315309OA149900261REMSYN088AAXX  13214 06745 33/// /0502 10008 20007 38696 48530 52002 333 55300 20004 91105 91203;
0149067450999992011011322004+46500+008317FM-12+1345LSMC V0200101N000519999999N9999999N1+00001+00001999999ADDMA1999999086971MD1210031+9999ME1315319OA149900211REMSYN088AAXX  13224 06745 33/// /0101 10000 20000 38697 48531 52003 333 55300 20004 91104 91202;
0149067450999992011011323004+46500+008317FM-12+1345LSMC V0202501N000519999999N9999999N1+00001-00021999999ADDMA1999999086981MD1210031+9999ME1315329OA149900151REMSYN088AAXX  13234 06745 33/// /2501 10000 21002 38698 48532 52003 333 55300 20004 91103 91201;
0149067450999992011011400004+46500+008317FM-12+1345LSMC V0200801N000519999999N9999999N1+00051+00031999999ADDMA1999999086981MD1110021+9999ME1315329OA149900311REMSYN088AAXX  14004 06745 33/// /0801 10005 20003 38698 48532 51002 333 55300 20004 91106 91203;
0149067450999992011011401004+46500+008317FM-12+1345LSMC V0209999C000019999999N9999999N1+00011+00001999999ADDMA1999999086971MD1010001+9999ME1315319OA149900151REMSYN088AAXX  14014 06745 33/// /0000 10001 20000 38697 48531 50000 333 55300 20004 91103 91202;
0112067450999992011011402004+46500+008317FM-12+1345LSMC V0201001N000519999999N9999999N1+00051+00031999999ADDMA1999999087001ME1315349REMSYN076AAXX  14024 06745 33/// /1001 10005 20003 38700 48534 5//// 333 553// 20004;
0170067450999992011011403004+46500+008317FM-12+1345LSMC V0202301N000519999999N9999999N1-00241-00241999999ADDMA1999999086981ME1315309OA149900151REMSYN088AAXX  14034 06745 33/// /2301 11024 21024 38698 48530 52000 333 55300 20004 91103 91202;EQDQ01+000022APCTENQ02+000002APC3  
0149067450999992011011404004+46500+008317FM-12+1345LSMC V0209999C000019999999N9999999N1-00221-00221999999ADDMA1999999086961MD1810011+9999ME1315289OA149900151REMSYN088AAXX  14044 06745 33/// /0000 11022 21022 38696 48528 58001 333 55300 20004 91103 91203;
0149067450999992011011405004+46500+008317FM-12+1345LSMC V0202101N000519999999N9999999N1-00281-00281999999ADDMA1999999086981MD1710021+9999ME1315309OA149900151REMSYN088AAXX  14054 06745 33/// /2101 11028 21028 38698 48530 57002 333 55300 20004 91103 91203;
0311067450999992011011406004+46500+008317FM-12+1345LSMC V0209999C000010024019N0050001N1-00231-00231999999ADDAJ100609199999999AL19900091GA1091+999999999GF109991091999999999999999GJ100069IA1279IA2999-00309KA1999N-00281MA1999999087001MD1310021+9999ME1315329MW1101OA149900211REMSYN136AAXX  14064 06745 31/50 90000 11023 21023 38700 48532 53002 710// 333 21028 3/103 43060 55001 55300 20004 70008 90768 93100 91104 91203;
0149067450999992011011407004+46500+008317FM-12+1345LSMC V0209999C000019999999N9999999N1-00271-00271999999ADDMA1999999087021MD1110061+9999ME1315339OA149900151REMSYN088AAXX  14074 06745 33/// /0000 11027 21027 38702 48533 51006 333 55300 20004 91103 91202;
0096067450999992011011408004+46500+008317FM-12+1345LSMC V0200401N001019999999N9999999N1-00391-00391999999ADDMA1999999087031ME1315339REMSYN060AAXX  14084 06745 43/// /0402 11039 21039 38703 48533 5////;
0141067450999992011011409004+46500+008317FM-12+1345LSMC V0200701N000512200019N0240001N1-00471-00471999999ADDGA1041+027001031MA1999999087021ME1315329REMSYN070AAXX  14094 06745 42974 20701 11047 21047 38702 48532 5//// 333 84359;EQDQ01+000022SCOTCV
0096067450999992011011410004+46500+008317FM-12+1345LSMC V0200601N001019999999N9999999N1-00471-00471999999ADDMA1999999087011ME1315319REMSYN060AAXX  14104 06745 43/// /0602 11047 21047 38701 48531 5////;
0149067450999992011011411004+46500+008317FM-12+1345LSMC V0209999C000019999999N9999999N1-00401-00401999999ADDMA1999999086971MD1710061+9999ME1315289OA149900151REMSYN088AAXX  14114 06745 33/// /0000 11040 21040 38697 48528 57006 333 55301 20392 91103 91202;
0197067450999992011011412004+46500+008317FM-12+1345LSMC V0209999C000012200019N0240001N1-00211-00241999999ADDGA1021+011401061GF102991999999012501999999MA1999999086881MD1810141+9999ME1315219OA149900151REMSYN094AAXX  14124 06745 32674 20000 11021 21024 38688 48521 58014 333 553// 2//// 82638 91103 91203;
0149067450999992011011413004+46500+008317FM-12+1345LSMC V0209999C000019999999N9999999N1+00051-00051999999ADDMA1999999086821MD1810191+9999ME1315179OA149900151REMSYN088AAXX  14134 06745 33/// /0000 10005 21005 38682 48517 58019 333 55308 2//// 91103 91202;
0112067450999992011011414004+46500+008317FM-12+1345LSMC V0200701N001019999999N9999999N1+00161+00011999999ADDMA1999999086791ME1315159REMSYN076AAXX  14144 06745 33/// /0702 10016 20001 38679 48515 5//// 333 553// 20943;
0203067450999992011011415004+46500+008317FM-12+1345LSMC V0200801N000512200019N0240001N1+00121+00001999999ADDGA1001+999999999GF100991001001999999001001MA1999999086791MD1710091+9999ME1315159MW1021OA149900151REMSYN094AAXX  14154 06745 31/74 00801 10012 20000 38679 48515 57009 702// 333 55305 20396 91103 91202;
0149067450999992011011416004+46500+008317FM-12+1345LSMC V0209999C000019999999N9999999N1-00121-00141999999ADDMA1999999086801MD1510021+9999ME1315149OA149900151REMSYN088AAXX  14164 06745 33/// /0000 11012 21014 38680 48514 55002 333 55300 20115 91103 91202;
0149067450999992011011417004+46500+008317FM-12+1345LSMC V0201101N000519999999N9999999N1-00421-00421999999ADDMA1999999086891MD1310101+9999ME1315209OA149900151REMSYN088AAXX  14174 06745 33/// /1101 11042 21042 38689 48520 53010 333 55300 20007 91103 91202;
0168067450999992011011418004+46500+008317FM-12+1345LSMC V0209999C000019999999N9999999N1-00601-00601999999ADDKA1120M+00161MA1999999086891MD1210101+9999ME1315199OA149900211REMSYN094AAXX  14184 06745 33/// /0000 11060 21060 38689 48519 52010 333 10016 55300 20004 91104 91203;
0149067450999992011011419004+46500+008317FM-12+1345LSMC V0200601N000519999999N9999999N1-00541-00541999999ADDMA1999999086861MD1010061+9999ME1315179OA149900211REMSYN088AAXX  14194 06745 33/// /0601 11054 21054 38686 48517 50006 333 55300 20004 91104 91203;
0149067450999992011011420004+46500+008317FM-12+1345LSMC V0200801N001019999999N9999999N1-00531-00531999999ADDMA1999999086801MD1710091+9999ME1315129OA149900211REMSYN088AAXX  14204 06745 33/// /0802 11053 21053 38680 48512 57009 333 55300 20004 91104 91202;
0149067450999992011011421004+46500+008317FM-12+1345LSMC V0209999C000019999999N9999999N1-00631-00631999999ADDMA1999999086771MD1710121+9999ME1315089OA149900211REMSYN088AAXX  14214 06745 33/// /0000 11063 21063 38677 48508 57012 333 55300 20004 91104 91203;
0149067450999992011011422004+46500+008317FM-12+1345LSMC V0200601N000519999999N9999999N1-00691-00751999999ADDMA1999999086761MD1710101+9999ME1315079OA149900261REMSYN088AAXX  14224 06745 33/// /0601 11069 21075 38676 48507 57010 333 55300 20004 91105 91203;
0149067450999992011011423004+46500+008317FM-12+1345LSMC V0202801N000519999999N9999999N1-00911-00951999999ADDMA1999999086791MD1510011+9999ME1315089OA149900261REMSYN088AAXX  14234 06745 33/// /2801 11091 21095 38679 48508 55001 333 55300 20004 91105 91203;
0149067450999992011011500004+46500+008317FM-12+1345LSMC V0202101N000519999999N9999999N1-00591-00621999999ADDMA1999999086851MD1310081+9999ME1315169OA149900411REMSYN088AAXX  15004 06745 33/// /2101 11059 21062 38685 48516 53008 333 55300 20004 91108 91203;
0149067450999992011011501004+46500+008317FM-12+1345LSMC V0201701N001019999999N9999999N1-00491-00521999999ADDMA1999999086881MD1210121+9999ME1315199OA149900411REMSYN088AAXX  15014 06745 33/// /1702 11049 21052 38688 48519 52012 333 55300 20004 91108 91204;
0149067450999992011011502004+46500+008317FM-12+1345LSMC V0202601N001019999999N9999999N1-00301-00411999999ADDMA1999999086921MD1219999+9999ME1315249OA149900411REMSYN088AAXX  15024 06745 33/// /2602 11030 21041 38692 48524 52/// 333 55300 20004 91108 91204;
0112067450999992011011503004+46500+008317FM-12+1345LSMC V0203601N000519999999N9999999N1-00231-00351999999ADDMA1999999086951ME1315279REMSYN076AAXX  15034 06745 33/// /3601 11023 21035 38695 48527 5//// 333 553// 20004;
0149067450999992011011504004+46500+008317FM-12+1345LSMC V0202601N000519999999N9999999N1-00241-00381999999ADDMA1999999087041MD1210161+9999ME1315359OA149900461REMSYN088AAXX  15044 06745 33/// /2601 11024 21038 38704 48535 52016 333 55300 20004 91109 91204;
0149067450999992011011505004+46500+008317FM-12+1345LSMC V0202201N001019999999N9999999N1-00261-00321999999ADDMA1999999087161MD1210241+9999ME1315469OA149900361REMSYN088AAXX  15054 06745 33/// /2202 11026 21032 38716 48546 52024 333 55300 20004 91107 91204;
0285067450999992011011506004+46500+008317FM-12+1345LSMC V0201701N001019999999N0040001N1-00351-00391999999ADDAJ100589199999999AL19900091AY171061AY221061GJ102109IA1279IA2999-01009KA1999N-00911MA1999999087231MD1210281+9999ME1315529MW1221OA149900461REMSYN136AAXX  15064 06745 31/40 /1702 11035 21039 38723 48552 52028 72272 333 21091 3/110 43058 55035 55300 20004 70000 90768 93100 91109 91204;
0149067450999992011011507004+46500+008317FM-12+1345LSMC V0203201N000519999999N9999999N1-00511-00521999999ADDMA1999999087281MD1210241+9999ME1315559OA149900311REMSYN088AAXX  15074 06745 33/// /3201 11051 21052 38728 48555 52024 333 55300 20004 91106 91203;
0149067450999992011011508004+46500+008317FM-12+1345LSMC V0202501N002119999999N9999999N1-00461-00511999999ADDMA1999999087321MD1219999+9999ME1315599OA149900261REMSYN088AAXX  15084 06745 33/// /2504 11046 21051 38732 48559 52/// 333 55300 20047 91105 91204;
0225067450999992011011509004+46500+008317FM-12+1345LSMC V0200301N00101014401CN0500001N1-00451-00501999999ADDAY171031AY221031GA1051+014401061GF105991999999012501999999MA1999999087401MD1210171+9999ME1315669MW1011OA149900361REMSYN100AAXX  15094 06745 31684 50302 11045 21050 38740 48566 52017 70172 333 55300 20216 85648 91107 91205;
0149067450999992011011510004+46500+008317FM-12+1345LSMC V0203401N000519999999N9999999N1-00471-00521999999ADDMA1999999087391MD1210111+9999ME1315659OA149900361REMSYN088AAXX  15104 06745 33/// /3401 11047 21052 38739 48565 52011 333 55300 20119 91107 91205;
0149067450999992011011511004+46500+008317FM-12+1345LSMC V0200601N000519999999N9999999N1-00371-00441999999ADDMA1999999087331MD1810011+9999ME1315619OA149900151REMSYN088AAXX  15114 06745 33/// /0601 11037 21044 38733 48561 58001 333 55303 20421 91103 91202;
0197067450999992011011512004+46500+008317FM-12+1345LSMC V0209999C000012200019N0700001N1-00061-00261999999ADDGA1021+066001001GF102991999999999999999999MA1999999087271MD1810131+9999ME1315589OA149900461REMSYN094AAXX  15124 06745 32988 20000 11006 21026 38727 48558 58013 333 553// 2//// 82072 91109 91205;
0112067450999992011011513004+46500+008317FM-12+1345LSMC V0202301N001019999999N9999999N1+00141-00191999999ADDMA1999999087221ME1315559REMSYN076AAXX  15134 06745 33/// /2302 10014 21019 38722 48555 5//// 333 553// 2////;
0096067450999992011011514004+46500+008317FM-12+1345LSMC V0200501N001019999999N9999999N1+00161-00181999999ADDMA1999999087251ME1315589REMSYN060AAXX  15144 06745 43/// /0502 10016 21018 38725 48558 5////;
0148067450999992011011515004+46500+008317FM-12+1345LSMC V0201401N000512200019N0700001N1+00101-00171999999ADDGA1031+066001011GF103991999999999999999999MA1999999087281ME1315609REMSYN070AAXX  15154 06745 42988 31401 10010 21017 38728 48560 5//// 333 83172;
0096067450999992011011516004+46500+008317FM-12+1345LSMC V0202301N001019999999N9999999N1-00091-00271999999ADDMA1999999087391ME1315689REMSYN060AAXX  15164 06745 43/// /2302 11009 21027 38739 48568 5////;
0112067450999992011011517004+46500+008317FM-12+1345LSMC V0200201N000519999999N9999999N1-00311-00451999999ADDMA1999999087481ME1315759REMSYN076AAXX  15174 06745 33/// /0201 11031 21045 38748 48575 5//// 333 553// 20007;
0212067450999992011011518004+46500+008317FM-12+1345LSMC V0209999C000012200019N0700001N1-00471-00551999999ADDAJ100619199999999AL10600091GA1001+999999999GF100991001001999999001001IA1279KA1120M+00311MA1999999087541ME1315799REMSYN088AAXX  15184 06745 42/88 00000 11047 21055 38754 48579 5//// 333 10031 43061 90766 93100;
0096067450999992011011519004+46500+008317FM-12+1345LSMC V0200501N000519999999N9999999N1-00541-00621999999ADDMA1999999087561ME1315809REMSYN060AAXX  15194 06745 43/// /0501 11054 21062 38756 48580 5////;
0096067450999992011011520004+46500+008317FM-12+1345LSMC V0200501N000519999999N9999999N1-00721-00731999999ADDMA1999999087591ME1315819REMSYN060AAXX  15204 06745 43/// /0501 11072 21073 38759 48581 5////;
0149067450999992011011521004+46500+008317FM-12+1345LSMC V0200601N000519999999N9999999N1-00761-00831999999ADDMA1999999087621MD1210081+9999ME1315839OA149900261REMSYN088AAXX  15214 06745 33/// /0601 11076 21083 38762 48583 52008 333 55300 20004 91105 91204;
0149067450999992011011522004+46500+008317FM-12+1345LSMC V0200501N000519999999N9999999N1-00731-00801999999ADDMA1999999087621MD1110061+9999ME1315839OA149900211REMSYN088AAXX  15224 06745 33/// /0501 11073 21080 38762 48583 51006 333 55300 20004 91104 91202;
0149067450999992011011523004+46500+008317FM-12+1345LSMC V0201901N000519999999N9999999N1-00881-00961999999ADDMA1999999087601MD1010011+9999ME1315809OA149900211REMSYN088AAXX  15234 06745 33/// /1901 11088 21096 38760 48580 50001 333 55300 20004 91104 91203;
0149067450999992011011600004+46500+008317FM-12+1345LSMC V0202301N001019999999N9999999N1-00881-00981999999ADDMA1999999087571MD1810051+9999ME1315789OA149900311REMSYN088AAXX  16004 06745 33/// /2302 11088 21098 38757 48578 58005 333 55300 20004 91106 91204;
0149067450999992011011601004+46500+008317FM-12+1345LSMC V0200701N000519999999N9999999N1-00711-00841999999ADDMA1999999087561MD1610061+9999ME1315789OA149900311REMSYN088AAXX  16014 06745 33/// /0701 11071 21084 38756 48578 56006 333 55300 20004 91106 91204;
0149067450999992011011602004+46500+008317FM-12+1345LSMC V0200601N000519999999N9999999N1-00841-00931999999ADDMA1999999087561MD1719999+9999ME1315779OA149900151REMSYN088AAXX  16024 06745 33/// /0601 11084 21093 38756 48577 57/// 333 55300 20004 91103 91203;
0096067450999992011011603004+46500+008317FM-12+1345LSMC V0200501N001019999999N9999999N1-00791-00871999999ADDMA1999999087511ME1315739REMSYN060AAXX  16034 06745 43/// /0502 11079 21087 38751 48573 5////;
0149067450999992011011604004+46500+008317FM-12+1345LSMC V0200701N001019999999N9999999N1-00861-00931999999ADDMA1999999087511MD1710051+9999ME1315729OA149900151REMSYN088AAXX  16044 06745 33/// /0702 11086 21093 38751 48572 57005 333 55300 20004 91103 91202;
0149067450999992011011605004+46500+008317FM-12+1345LSMC V0200601N001019999999N9999999N1-00881-00881999999ADDMA1999999087521MD1510041+9999ME1315739OA149900151REMSYN088AAXX  16054 06745 33/// /0602 11088 21088 38752 48573 55004 333 55300 20004 91103 91202;
0311067450999992011011606004+46500+008317FM-12+1345LSMC V0200701N001012200019N0700001N1-00971-01091999999ADDAJ100619199999999AL19900091GA1001+999999999GF100991001001999999001001GJ102409IA1279IA2999-01309KA1999N-01101MA1999999087551MD1210041+9999ME1315759MW1021OA149900311REMSYN136AAXX  16064 06745 31/88 00702 11097 21109 38755 48575 52004 702// 333 21110 3/113 43061 55040 55300 20004 70000 90768 93100 91106 91204;
0149067450999992011011607004+46500+008317FM-12+1345LSMC V0209999C000019999999N9999999N1-01041-01291999999ADDMA1999999087561MD1210051+9999ME1315759OA149900151REMSYN088AAXX  16074 06745 33/// /0000 11104 21129 38756 48575 52005 333 55300 20004 91103 91203;
0149067450999992011011608004+46500+008317FM-12+1345LSMC V0200501N000519999999N9999999N1-00841-00951999999ADDMA1999999087561MD1219999+9999ME1315779OA149900151REMSYN088AAXX  16084 06745 33/// /0501 11084 21095 38756 48577 52/// 333 55300 20029 91103 91203;
0203067450999992011011609004+46500+008317FM-12+1345LSMC V0200701N000512200019N0700001N1-00861-00951999999ADDGA1001+999999999GF100991001001999999001001MA1999999087571MD1210021+9999ME1315789MW1021OA149900151REMSYN094AAXX  16094 06745 31/88 00701 11086 21095 38757 48578 52002 702// 333 55300 20076 91103 91203;
0149067450999992011011610004+46500+008317FM-12+1345LSMC V0209999C000019999999N9999999N1-00881-00951999999ADDMA1999999087541MD1810021+9999ME1315759OA149900151REMSYN088AAXX  16104 06745 33/// /0000 11088 21095 38754 48575 58002 333 55300 20101 91103 91202;
0149067450999992011011611004+46500+008317FM-12+1345LSMC V0209999C000019999999N9999999N1-00711-00821999999ADDMA1999999087501MD1710061+9999ME1315739OA149900151REMSYN088AAXX  16114 06745 33/// /0000 11071 21082 38750 48573 57006 333 55303 20454 91103 91202;
0203067450999992011011612004+46500+008317FM-12+1345LSMC V0200701N000512200019N0700001N1-00211-00421999999ADDGA1001+999999999GF100991001001999999001001MA1999999087481MD1819999+9999ME1315759MW1021OA149900211REMSYN094AAXX  16124 06745 31/88 00701 11021 21042 38748 48575 58/// 702// 333 55308 2//// 91104 91203;
0149067450999992011011613004+46500+008317FM-12+1345LSMC V0209999C000019999999N9999999N1+00181-00221999999ADDMA1999999087431MD1810111+9999ME1315749OA149900211REMSYN088AAXX  16134 06745 33/// /0000 10018 21022 38743 48574 58011 333 553// 2//// 91104 91202;
0149067450999992011011614004+46500+008317FM-12+1345LSMC V0209999C000019999999N9999999N1+00271-00201999999ADDMA1999999087421MD1619999+9999ME1315749OA149900151REMSYN088AAXX  16144 06745 33/// /0000 10027 21020 38742 48574 56/// 333 553// 2//// 91103 91201;
0191067450999992011011615004+46500+008317FM-12+1345LSMC V0209999C000012200019N0700001N1+00281-00201999999ADDGA1001+999999999GF100991001001999999001001MA1999999087421MD1619999+9999ME1315749OA149900211REMSYN088AAXX  16154 06745 32/88 00000 10028 21020 38742 48574 56/// 333 55309 20428 91104 91202;
0149067450999992011011616004+46500+008317FM-12+1345LSMC V0200901N000519999999N9999999N1+00051-00351999999ADDMA1999999087431MD1410001+9999ME1315739OA149900151REMSYN088AAXX  16164 06745 33/// /0901 10005 21035 38743 48573 54000 333 55301 20068 91103 91201;
0149067450999992011011617004+46500+008317FM-12+1345LSMC V0200701N000519999999N9999999N1-00201-00421999999ADDMA1999999087451MD1310031+9999ME1315739OA149900211REMSYN088AAXX  16174 06745 33/// /0701 11020 21042 38745 48573 53003 333 55300 20007 91104 91201;
0261067450999992011011618004+46500+008317FM-12+1345LSMC V0200501N001512200019N0700001N1-00181-00461999999ADDAJ100559199999999AL19900091GA1001+999999999GF100991001001999999001001IA1279KA1120M+00441MA1999999087511MD1310091+9999ME1315789OA149900261REMSYN112AAXX  16184 06745 32/88 00503 11018 21046 38751 48578 53009 333 10044 43055 55300 20004 90766 93100 91105 91203;
0149067450999992011011619004+46500+008317FM-12+1345LSMC V0201201N000519999999N9999999N1-00431-00601999999ADDMA1999999087511MD1110081+9999ME1315769OA149900261REMSYN088AAXX  16194 06745 33/// /1201 11043 21060 38751 48576 51008 333 55300 20004 91105 91203;
0149067450999992011011620004+46500+008317FM-12+1345LSMC V0200801N001519999999N9999999N1-00391-00571999999ADDMA1999999087501MD1010051+9999ME1315769OA149900311REMSYN088AAXX  16204 06745 33/// /0803 11039 21057 38750 48576 50005 333 55300 20004 91106 91203;
0149067450999992011011621004+46500+008317FM-12+1345LSMC V0200601N001019999999N9999999N1-00491-00671999999ADDMA1999999087511MD1010001+9999ME1315769OA149900311REMSYN088AAXX  16214 06745 33/// /0602 11049 21067 38751 48576 50000 333 55300 20004 91106 91203;
0149067450999992011011622004+46500+008317FM-12+1345LSMC V0200901N000519999999N9999999N1-00581-00721999999ADDMA1999999087501MD1810011+9999ME1315749OA149900211REMSYN088AAXX  16224 06745 33/// /0901 11058 21072 38750 48574 58001 333 55300 20004 91104 91202;
0149067450999992011011623004+46500+008317FM-12+1345LSMC V0200601N000519999999N9999999N1-00571-00711999999ADDMA1999999087491MD1810011+9999ME1315739OA149900261REMSYN088AAXX  16234 06745 33/// /0601 11057 21071 38749 48573 58001 333 55300 20004 91105 91202;
0149067450999992011011700004+46500+008317FM-12+1345LSMC V0209999C000019999999N9999999N1-00581-00731999999ADDMA1999999087471MD1710041+9999ME1315719OA149900311REMSYN088AAXX  17004 06745 33/// /0000 11058 21073 38747 48571 57004 333 55300 20004 91106 91203;
0149067450999992011011701004+46500+008317FM-12+1345LSMC V0209999C000019999999N9999999N1-00881-01021999999ADDMA1999999087451MD1610051+9999ME1315679OA149900261REMSYN088AAXX  17014 06745 33/// /0000 11088 21102 38745 48567 56005 333 55300 20004 91105 91203;
0149067450999992011011702004+46500+008317FM-12+1345LSMC V0200501N001019999999N9999999N1-00811-00911999999ADDMA1999999087441MD1619999+9999ME1315679OA149900261REMSYN088AAXX  17024 06745 33/// /0502 11081 21091 38744 48567 56/// 333 55300 20004 91105 91203;
0112067450999992011011703004+46500+008317FM-12+1345LSMC V0209999C000019999999N9999999N1-00981-01041999999ADDMA1999999087441ME1315659REMSYN076AAXX  17034 06745 33/// /0000 11098 21104 38744 48565 5//// 333 553// 20004;
0149067450999992011011704004+46500+008317FM-12+1345LSMC V0209999C000019999999N9999999N1-01081-01151999999ADDMA1999999087431MD1710021+9999ME1315649OA149900211REMSYN088AAXX  17044 06745 33/// /0000 11108 21115 38743 48564 57002 333 55300 20004 91104 91203;
0149067450999992011011705004+46500+008317FM-12+1345LSMC V0209999C000019999999N9999999N1-01061-01151999999ADDMA1999999087381MD1710061+9999ME1315599OA149900211REMSYN088AAXX  17054 06745 33/// /0000 11106 21115 38738 48559 57006 333 55300 20004 91104 91203;
0330067450999992011011706004+46500+008317FM-12+1345LSMC V0209999C000012200019N0700001N1-01051-01131999999ADDAJ199992999999999AL19900091GA1001+999999999GF100991001001999999001001GJ102649IA1279IA2999-01409KA1999N-01081MA1999999087381MD1710061+9999ME1315599MW1021OA149900311REMSYN136AAXX  17064 06745 31/88 00000 11105 21113 38738 48559 57006 702// 333 21108 3/114 43998 55044 55300 20004 70000 90768 93100 91106 91203;EQDQ01  09982SNDP  
0149067450999992011011707004+46500+008317FM-12+1345LSMC V0200601N000519999999N9999999N1-01031-01101999999ADDMA1999999087391MD1510041+9999ME1315609OA149900211REMSYN088AAXX  17074 06745 33/// /0601 11103 21110 38739 48560 55004 333 55300 20004 91104 91203;
0096067450999992011011708004+46500+008317FM-12+1345LSMC V0200601N001019999999N9999999N1-01011-01261999999ADDMA1999999087391ME1315619REMSYN060AAXX  17084 06745 43/// /0602 11101 21126 38739 48561 5////;
0096067450999992011011709004+46500+008317FM-12+1345LSMC V0200701N000519999999N9999999N1-00991-01221999999ADDMA1999999087371ME1315599REMSYN060AAXX  17094 06745 43/// /0701 11099 21122 38737 48559 5////;
0149067450999992011011710004+46500+008317FM-12+1345LSMC V0200601N000519999999N9999999N1-00951-01091999999ADDMA1999999087341MD1710051+9999ME1315579OA149900211REMSYN088AAXX  17104 06745 33/// /0601 11095 21109 38734 48557 57005 333 55300 20101 91104 91202;
0149067450999992011011711004+46500+008317FM-12+1345LSMC V0209999C000019999999N9999999N1-00741-00921999999ADDMA1999999087291MD1810101+9999ME1315549OA149900211REMSYN088AAXX  17114 06745 33/// /0000 11074 21092 38729 48554 58010 333 55304 20526 91104 91202;
0203067450999992011011712004+46500+008317FM-12+1345LSMC V0209999C000012200019N0700001N1-00221-00641999999ADDGA1001+999999999GF100991001001999999001001MA1999999087241MD1710131+9999ME1315549MW1021OA149900261REMSYN094AAXX  17124 06745 31/88 00000 11022 21064 38724 48554 57013 702// 333 553// 2//// 91105 91203;
0149067450999992011011713004+46500+008317FM-12+1345LSMC V0209999C000019999999N9999999N1+00001-00461999999ADDMA1999999087201MD1710141+9999ME1315529OA149900211REMSYN088AAXX  17134 06745 33/// /0000 10000 21046 38720 48552 57014 333 553// 2//// 91104 91202;
