0137067440999992010010100004+46567+008333FM-12+198099999V0202401N004619999999N9999999N1-00451-01141999999ADDMA1999999078021MD1810131+9999ME1312809OA149900981REMSYN076AAXX  01004 06744 33/// /2409 11045 21114 37802 48280 58013 333 91119 91214;
0137067440999992010010101004+46567+008333FM-12+198099999V0202401N005719999999N9999999N1-00511-01241999999ADDMA1999999077981MD1610141+9999ME1312789OA149900931REMSYN076AAXX  01014 06744 33/// /2411 11051 21124 37798 48278 56014 333 91118 91211;
0137067440999992010010102004+46567+008333FM-12+198099999V0202601N006719999999N9999999N1-00501-01291999999ADDMA1999999077931MD1619999+9999ME1312729OA149900881REMSYN076AAXX  01024 06744 33/// /2613 11050 21129 37793 48272 56/// 333 91117 91213;
0096067440999992010010103004+46567+008333FM-12+198099999V0202401N004119999999N9999999N1-00391-01061999999ADDMA1999999077881ME1312649REMSYN060AAXX  01034 06744 43/// /2408 11039 21106 37788 48264 5////;
0096067440999992010010104004+46567+008333FM-12+198099999V0202401N004619999999N9999999N1-00421-01231999999ADDMA1999999077851ME1312629REMSYN060AAXX  01044 06744 33/// /2409 11042 21123 37785 48262 5////;
0137067440999992010010105004+46567+008333FM-12+198099999V0202001N001519999999N9999999N1-00431-01091999999ADDMA1999999077811MD1610121+9999ME1312589OA149900721REMSYN076AAXX  01054 06744 33/// /2003 11043 21109 37781 48258 56012 333 91114 91210;
0296067440999992010010106004+46567+008333FM-12+198099999V0202501N003110300019N0280001N1-00421-01221999999ADDAA124001891AJ101469199999999AL14800191AL29900691GA1071+030001041GF107991999999999999999999GJ100009IA1239KA1999N-00631MA1999999077771MD1810111+9999ME1312549OA149900981REMSYN118AAXX  01064 06744 32978 72506 11042 21122 37777 48254 58011 333 21063 47146 55000 70018 87460 90768 93106 91119 91214;
0137067440999992010010107004+46567+008333FM-12+198099999V0202501N004119999999N9999999N1-00481-01211999999ADDMA1999999077771MD1710081+9999ME1312559OA149900621REMSYN076AAXX  01074 06744 33/// /2508 11048 21121 37777 48255 57008 333 91112 91210;
0137067440999992010010108004+46567+008333FM-12+198099999V0202501N004619999999N9999999N1-00461-01201999999ADDMA1999999077821MD1310011+9999ME1312609OA149900621REMSYN076AAXX  01084 06744 33/// /2509 11046 21120 37782 48260 53001 333 91112 91210;
0137067440999992010010109004+46567+008333FM-12+198099999V0202501N004619999999N9999999N1-00461-01191999999ADDMA1999999077851MD1210081+9999ME1312639OA149900721REMSYN076AAXX  01094 06744 33/// /2509 11046 21119 37785 48263 52008 333 91114 91210;
0137067440999992010010110004+46567+008333FM-12+198099999V0202101N002619999999N9999999N1-00281-01091999999ADDMA1999999077881MD1110111+9999ME1312619OA149900571REMSYN076AAXX  01104 06744 33/// /2105 11028 21109 37788 48261 51011 333 91111 91210;
0137067440999992010010111004+46567+008333FM-12+198099999V0202501N003119999999N9999999N1-00311-01111999999ADDMA1999999077871MD1210051+9999ME1312619OA149900511REMSYN076AAXX  01114 06744 33/// /2506 11031 21111 37787 48261 52005 333 91110 91208;
0185067440999992010010112004+46567+008333FM-12+198099999V0200101N001010360019N0300001N1-00301-00981999999ADDGA1061+036001041GF106991999999999999999999MA1999999077891MD1210041+9999ME1312639OA149900881REMSYN082AAXX  01124 06744 32980 60102 11030 21098 37789 48263 52004 333 86462 91117 91213;
0137067440999992010010113004+46567+008333FM-12+198099999V0203501N004119999999N9999999N1-00361-00631999999ADDMA1999999077901MD1210021+9999ME1312669OA149900571REMSYN076AAXX  01134 06744 33/// /3508 11036 21063 37790 48266 52002 333 91111 91208;
0137067440999992010010114004+46567+008333FM-12+198099999V0203401N001519999999N9999999N1-00441-00491999999ADDMA1999999077961MD1319999+9999ME1312749OA149900571REMSYN076AAXX  01144 06744 33/// /3403 11044 21049 37796 48274 53/// 333 91111 91208;
0154067440999992010010115004+46567+008333FM-12+198099999V0202901N001519999999N9999999N1-00371-00491999999ADDAA101000021MA1999999078021MD1310131+9999ME1312789OA149900571REMSYN082AAXX  01154 06744 23/// /2903 11037 21049 37802 48278 53013 333 69915 91111 91208;
0154067440999992010010116004+46567+008333FM-12+198099999V0203201N001019999999N9999999N1-00411-00551999999ADDAA101000391MA1999999078071MD1110171+9999ME1312849OA149900411REMSYN082AAXX  01164 06744 23/// /3202 11041 21055 37807 48284 51017 333 69935 91108 91204;
0154067440999992010010117004+46567+008333FM-12+198099999V0202601N002119999999N9999999N1-00471-00601999999ADDAA101000591MA1999999078151MD1110191+9999ME1312949OA149900411REMSYN082AAXX  01174 06744 23/// /2604 11047 21060 37815 48294 51019 333 69965 91108 91204;
0300067440999992010010118004+46567+008333FM-12+198099999V0203401N007710003019N0002001N1-00501-00501999999ADDAA112003091AJ101479199999999AL11200391AY131061AY221061GA1091+999999999GF109991091999999999999999IA1239KA1120M-00231MA1999999078271MD1310251+9999ME1313079MW1731OA149901241REMSYN118AAXX  01184 06744 01/02 93415 11050 21050 37827 48307 53025 60032 77332 333 11023 47147 60025 90766 93103 91124 91216;
0154067440999992010010119004+46567+008333FM-12+198099999V0203201N008219999999N9999999N1-00521-00591999999ADDAA101002091MA1999999078401MD1310331+9999ME1313219OA149901491REMSYN082AAXX  01194 06744 23/// /3216 11052 21059 37840 48321 53033 333 60025 91129 91218;
0154067440999992010010120004+46567+008333FM-12+198099999V0203401N006219999999N9999999N1-00601-00651999999ADDAA101001091MA1999999078471MD1110321+9999ME1313309OA149901601REMSYN082AAXX  01204 06744 23/// /3412 11060 21065 37847 48330 51032 333 60015 91131 91218;
0154067440999992010010121004+46567+008333FM-12+198099999V0203301N010819999999N9999999N1-00601-00611999999ADDAA101001091MA1999999078531MD1110261+9999ME1313369OA149901601REMSYN082AAXX  01214 06744 23/// /3321 11060 21061 37853 48336 51026 333 60015 91131 91221;
0154067440999992010010122004+46567+008333FM-12+198099999V0203401N007219999999N9999999N1-00661-00671999999ADDAA101002091MA1999999078591MD1310191+9999ME1313449OA149901701REMSYN082AAXX  01224 06744 23/// /3414 11066 21067 37859 48344 53019 333 60025 91133 91221;
0154067440999992010010123004+46567+008333FM-12+198099999V0203401N005119999999N9999999N1-00751-00761999999ADDAA101001091MA1999999078651MD1110181+9999ME1313529OA149901701REMSYN082AAXX  01234 06744 23/// /3410 11075 21076 37865 48352 51018 333 60015 91133 91221;
0160067440999992010010200004+46567+008333FM-12+198099999V0203501N006719999999N9999999N1-00771-00801999999ADDAA106008991MA1999999078651MD1210121+9999ME1313529OA149901701REMSYN088AAXX  02004 06744 03/// /3513 11077 21080 37865 48352 52012 60091 333 60015 91133 91221;
0154067440999992010010201004+46567+008333FM-12+198099999V0203401N005719999999N9999999N1-00831-00831999999ADDAA101002091MA1999999078691MD1210101+9999ME1313589OA149901241REMSYN082AAXX  02014 06744 23/// /3411 11083 21083 37869 48358 52010 333 60025 91124 91213;
0117067440999992010010202004+46567+008333FM-12+198099999V0203501N007719999999N9999999N1-00941-01011999999ADDAA101002091MA1999999078801ME1313719REMSYN070AAXX  02024 06744 23/// /3515 11094 21101 37880 48371 5//// 333 60025;
0154067440999992010010203004+46567+008333FM-12+198099999V0203501N007219999999N9999999N1-01051-01051999999ADDAA101002091MA1999999078861MD1310211+9999ME1313809OA149901701REMSYN082AAXX  02034 06744 23/// /3514 11105 21105 37886 48380 53021 333 60025 91133 91221;
0154067440999992010010204004+46567+008333FM-12+198099999V0203401N006219999999N9999999N1-01101-01101999999ADDAA101001091MA1999999078911MD1110221+9999ME1313869OA149901441REMSYN082AAXX  02044 06744 23/// /3412 11110 21110 37891 48386 51022 333 60015 91128 91217;
0154067440999992010010205004+46567+008333FM-12+198099999V0203301N011819999999N9999999N1-01081-01081999999ADDAA101002091MA1999999078931MD1110131+9999ME1313879OA149901851REMSYN082AAXX  02054 06744 23/// /3323 11108 21108 37893 48387 51013 333 60025 91136 91223;
0341067440999992010010206004+46567+008333FM-12+198099999V0203201N007710001519N0001001N1-01181-01181999999ADDAA112018091AA224020891AJ101599199999999AL14802091AL29901991AY171061AY241061GA1091+999999999GF109991091999999999999999GJ100729IA1239KA1999N-01161MA1999999078991MD1210131+9999ME1313959MW1731OA149901851REMSYN130AAXX  02064 06744 01/01 93215 11118 21118 37899 48395 52013 60182 77374 333 21116 47159 55012 60015 70208 90768 93119 91136 91223;
0154067440999992010010207004+46567+008333FM-12+198099999V0203301N009819999999N9999999N1-01271-01321999999ADDAA101001091MA1999999079031MD1210121+9999ME1314019OA149901701REMSYN082AAXX  02074 06744 23/// /3319 11127 21132 37903 48401 52012 333 60015 91133 91220;
0117067440999992010010208004+46567+008333FM-12+198099999V0203401N008719999999N9999999N1-01231-01231999999ADDAA101001091MA1999999079061ME1314039REMSYN070AAXX  02084 06744 23/// /3417 11123 21123 37906 48403 5//// 333 60015;
0154067440999992010010209004+46567+008333FM-12+198099999V0203301N011319999999N9999999N1-01161-01161999999ADDAA101001091MA1999999079121MD1210131+9999ME1314089OA149901961REMSYN082AAXX  02094 06744 23/// /3322 11116 21116 37912 48408 52013 333 60015 91138 91226;
0154067440999992010010210004+46567+008333FM-12+198099999V0203401N009819999999N9999999N1-01251-01251999999ADDAA101000591MA1999999079221MD1310191+9999ME1314199OA149901961REMSYN082AAXX  02104 06744 23/// /3419 11125 21125 37922 48419 53019 333 69955 91138 91226;
0154067440999992010010211004+46567+008333FM-12+198099999V0203401N009319999999N9999999N1-01331-01471999999ADDAA101000891MA1999999079261MD1210201+9999ME1314259OA149901701REMSYN082AAXX  02114 06744 23/// /3418 11133 21147 37926 48425 52020 333 69985 91133 91224;
0230067440999992010010212004+46567+008333FM-12+198099999V0203401N008710001519N0001001N1-01321-01451999999ADDAA106006191AY171061AY241061GA1091+999999999GF109991091999999999999999MA1999999079301MD1210181+9999ME1314299MW1731OA149901961REMSYN094AAXX  02124 06744 01/01 93417 11132 21145 37930 48429 52018 60061 77374 333 60015 91138 91226;
0154067440999992010010213004+46567+008333FM-12+198099999V0203501N010819999999N9999999N1-01351-01501999999ADDAA101001091MA1999999079341MD1210121+9999ME1314339OA149902061REMSYN082AAXX  02134 06744 23/// /3521 11135 21150 37934 48433 52012 333 60015 91140 91221;
0154067440999992010010214004+46567+008333FM-12+198099999V0203501N009819999999N9999999N1-01391-01521999999ADDAA101001091MA1999999079421MD1219999+9999ME1314429OA149902061REMSYN082AAXX  02144 06744 23/// /3519 11139 21152 37942 48442 52/// 333 69995 91140 91222;
0154067440999992010010215004+46567+008333FM-12+198099999V0203501N009819999999N9999999N1-01401-01531999999ADDAA101000391MA1999999079501MD1210201+9999ME1314509OA149902061REMSYN082AAXX  02154 06744 23/// /3519 11140 21153 37950 48450 52020 333 69935 91140 91224;
0154067440999992010010216004+46567+008333FM-12+198099999V0203501N013419999999N9999999N1-01411-01561999999ADDAA101001091MA1999999079541MD1210201+9999ME1314549OA149902061REMSYN082AAXX  02164 06744 23/// /3526 11141 21156 37954 48454 52020 333 60015 91140 91226;
0154067440999992010010217004+46567+008333FM-12+198099999V0203401N009819999999N9999999N1-01431-01691999999ADDAA101000591MA1999999079601MD1210181+9999ME1314609OA149902061REMSYN082AAXX  02174 06744 23/// /3419 11143 21169 37960 48460 52018 333 69945 91140 91226;
0300067440999992010010218004+46567+008333FM-12+198099999V0203401N009810003019N0002001N1-01421-01551999999ADDAA112009991AJ101429199999999AL19900091AY171061AY241061GA1091+999999999GF109991091999999999999999IA1239KA1120M-01111MA1999999079671MD1210171+9999ME1314679MW1731OA149902061REMSYN118AAXX  02184 06744 01/02 93419 11142 21155 37967 48467 52017 60102 77374 333 11111 47142 69945 90766 93100 91140 91226;
0154067440999992010010219004+46567+008333FM-12+198099999V0203301N008719999999N9999999N1-01491-01611999999ADDAA101000021MA1999999079721MD1110181+9999ME1314739OA149901801REMSYN082AAXX  02194 06744 23/// /3317 11149 21161 37972 48473 51018 333 69925 91135 91222;
0137067440999992010010220004+46567+008333FM-12+198099999V0203601N008719999999N9999999N1-01491-01591999999ADDMA1999999079711MD1010111+9999ME1314729OA149901701REMSYN076AAXX  02204 06744 33/// /3617 11149 21159 37971 48472 50011 333 91133 91222;
0137067440999992010010221004+46567+008333FM-12+198099999V0203601N004119999999N9999999N1-01541-01601999999ADDMA1999999079761MD1210091+9999ME1314789OA149902061REMSYN076AAXX  02214 06744 33/// /3608 11154 21160 37976 48478 52009 333 91140 91226;
0137067440999992010010222004+46567+008333FM-12+198099999V0200401N001519999999N9999999N1-01521-01961999999ADDMA1999999079751MD1210031+9999ME1314769OA149901181REMSYN076AAXX  02224 06744 33/// /0403 11152 21196 37975 48476 52003 333 91123 91218;
0137067440999992010010223004+46567+008333FM-12+198099999V0209999C002119999999N9999999N1-01551-01901999999ADDMA1999999079791MD1210081+9999ME1314819OA149900621REMSYN076AAXX  02234 06744 33/// /0004 11155 21190 37979 48481 52008 333 91112 91207;
0160067440999992010010300004+46567+008333FM-12+198099999V0200401N000519999999N9999999N1-01461-02461999999ADDAA106000021MA1999999079811MD1210051+9999ME1314819OA149902061REMSYN088AAXX  03004 06744 03/// /0401 11146 21246 37981 48481 52005 69921 333 60005 91140 91226;
0137067440999992010010301004+46567+008333FM-12+198099999V0201701N002619999999N9999999N1-01531-01951999999ADDMA1999999079801MD1210051+9999ME1314819OA149900511REMSYN076AAXX  03014 06744 33/// /1705 11153 21195 37980 48481 52005 333 91110 91205;
0096067440999992010010302004+46567+008333FM-12+198099999V0201801N005119999999N9999999N1-01651-01861999999ADDMA1999999079831ME1314869REMSYN060AAXX  03024 06744 33/// /1810 11165 21186 37983 48486 5////;
0081067440999992010010303004+46567+008333FM-12+198099999V0201701N006219999999N9999999N1+99999+99999999999ADDMA1999999079851REMSYN054AAXX  03034 06744 33/// /1712 1//// 2//// 37985 5////;
0137067440999992010010304004+46567+008333FM-12+198099999V0201801N008719999999N9999999N1-01511-02261999999ADDMA1999999079791MD1810011+9999ME1314809OA149901081REMSYN076AAXX  03044 06744 33/// /1817 11151 21226 37979 48480 58001 333 91121 91217;
0137067440999992010010305004+46567+008333FM-12+198099999V0201801N007719999999N9999999N1-01451-02491999999ADDMA1999999079791MD1719999+9999ME1314799OA149901341REMSYN076AAXX  03054 06744 33/// /1815 11145 21249 37979 48479 57/// 333 91126 91218;
0347067440999992010010306004+46567+008333FM-12+198099999V0201801N007712200019N0300001N1-01431-02541999999ADDAA112000021AA224010991AJ101429199999999AL14801091AL29900291AY141061AY211061GA1041+051001001GF104991999999999999999999GJ100009IA1239KA1999N-01651MA1999999079761MD1710091+9999ME1314769MW1361OA149901701REMSYN136AAXX  03064 06744 01980 41815 11143 21254 37976 48476 57009 69922 73641 333 21165 47142 55000 60005 70109 84067 90768 93102 91133 91222;
0156067440999992010010307004+46567+008333FM-12+198099999V0201501N006219999999N9999999N1-01321-02811999999ADDMA1999999079791MD1410001+9999ME1314769OA149901241REMSYN076AAXX  03074 06744 33/// /1512 11132 21281 37979 48476 57000 333 91124 91217;EQDQ01+000072APCTEN
0137067440999992010010308004+46567+008333FM-12+198099999V0201401N006219999999N9999999N1-01171-02721999999ADDMA1999999079821MD1219999+9999ME1314769OA149901241REMSYN076AAXX  03084 06744 33/// /1412 11117 21272 37982 48476 52/// 333 91124 91216;
0137067440999992010010309004+46567+008333FM-12+198099999V0201801N009319999999N9999999N1-01271-02751999999ADDMA1999999079841MD1210081+9999ME1314809OA149901341REMSYN076AAXX  03094 06744 33/// /1818 11127 21275 37984 48480 52008 333 91126 91218;
0137067440999992010010310004+46567+008333FM-12+198099999V0202101N007219999999N9999999N1-01231-03131999999ADDMA1999999079871MD1210081+9999ME1314829OA149901241REMSYN076AAXX  03104 06744 33/// /2114 11123 21313 37987 48482 52008 333 91124 91218;
0137067440999992010010311004+46567+008333FM-12+198099999V0202201N005119999999N9999999N1-01201-03271999999ADDMA1999999079771MD1810051+9999ME1314729OA149901241REMSYN076AAXX  03114 06744 33/// /2210 11120 21327 37977 48472 58005 333 91124 91217;
0213067440999992010010312004+46567+008333FM-12+198099999V0201901N008212200019N0300001N1-01041-02741999999ADDAY101061AY201061GA1011+060001001GF101991999999999999999999MA1999999079731MD1710111+9999ME1314659MW1361OA149901341REMSYN088AAXX  03124 06744 31980 11916 11104 21274 37973 48465 57011 73600 333 81070 91126 91218;
0137067440999992010010313004+46567+008333FM-12+198099999V0201901N005719999999N9999999N1-01141-03191999999ADDMA1999999079711MD1610161+9999ME1314659OA149901081REMSYN076AAXX  03134 06744 33/// /1911 11114 21319 37971 48465 56016 333 91121 91216;
0137067440999992010010314004+46567+008333FM-12+198099999V0202501N005719999999N9999999N1-01181-03451999999ADDMA1999999079731MD1510041+9999ME1314689OA149901081REMSYN076AAXX  03144 06744 33/// /2511 11118 21345 37973 48468 55004 333 91121 91215;
0137067440999992010010315004+46567+008333FM-12+198099999V0202501N004119999999N9999999N1-01141-02841999999ADDMA1999999079761MD1310031+9999ME1314709OA149901241REMSYN076AAXX  03154 06744 33/// /2508 11114 21284 37976 48470 53003 333 91124 91217;
0137067440999992010010316004+46567+008333FM-12+198099999V0202501N004119999999N9999999N1-01181-03041999999ADDMA1999999079771MD1210061+9999ME1314729OA149900671REMSYN076AAXX  03164 06744 33/// /2508 11118 21304 37977 48472 52006 333 91113 91209;
0137067440999992010010317004+46567+008333FM-12+198099999V0202501N004619999999N9999999N1-01091-02491999999ADDMA1999999079691MD1810041+9999ME1314629OA149900621REMSYN076AAXX  03174 06744 33/// /2509 11109 21249 37969 48462 58004 333 91112 91209;
0255067440999992010010318004+46567+008333FM-12+198099999V0201801N001510270019N0280001N1-01081-02911999999ADDAJ101409199999999AL19900091GA1061+027001031GF106991999999999999999999IA1239KA1120M-01021MA1999999079711MD1710051+9999ME1314649OA149901241REMSYN106AAXX  03184 06744 32978 61803 11108 21291 37971 48464 57005 333 11102 47140 86359 90766 93100 91124 91218;
0137067440999992010010319004+46567+008333FM-12+198099999V0202201N003119999999N9999999N1-01151-02831999999ADDMA1999999079701MD1510071+9999ME1314649OA149900511REMSYN076AAXX  03194 06744 33/// /2206 11115 21283 37970 48464 55007 333 91110 91207;
0137067440999992010010320004+46567+008333FM-12+198099999V0202401N004619999999N9999999N1-01251-02841999999ADDMA1999999079671MD1810021+9999ME1314639OA149900621REMSYN076AAXX  03204 06744 33/// /2409 11125 21284 37967 48463 58002 333 91112 91209;
0137067440999992010010321004+46567+008333FM-12+198099999V0202201N003119999999N9999999N1-01241-02841999999ADDMA1999999079651MD1710061+9999ME1314619OA149900621REMSYN076AAXX  03214 06744 33/// /2206 11124 21284 37965 48461 57006 333 91112 91209;
0137067440999992010010322004+46567+008333FM-12+198099999V0202401N003619999999N9999999N1-01191-02791999999ADDMA1999999079631MD1710071+9999ME1314589OA149900621REMSYN076AAXX  03224 06744 33/// /2407 11119 21279 37963 48458 57007 333 91112 91209;
0137067440999992010010323004+46567+008333FM-12+198099999V0202101N004619999999N9999999N1-01231-02551999999ADDMA1999999079621MD1710051+9999ME1314589OA149900881REMSYN076AAXX  03234 06744 33/// /2109 11123 21255 37962 48458 57005 333 91117 91209;
0137067440999992010010400004+46567+008333FM-12+198099999V0202101N005119999999N9999999N1-01221-02401999999ADDMA1999999079561MD1710091+9999ME1314529OA149901081REMSYN076AAXX  04004 06744 33/// /2110 11122 21240 37956 48452 57009 333 91121 91215;
0137067440999992010010401004+46567+008333FM-12+198099999V0201801N006719999999N9999999N1-01221-02381999999ADDMA1999999079491MD1710141+9999ME1314459OA149901031REMSYN076AAXX  04014 06744 33/// /1813 11122 21238 37949 48445 57014 333 91120 91215;
0137067440999992010010402004+46567+008333FM-12+198099999V0201701N008219999999N9999999N1-01001-02271999999ADDMA1999999079451MD1710171+9999ME1314379OA149901131REMSYN076AAXX  04024 06744 33/// /1716 11100 21227 37945 48437 57017 333 91122 91217;
0137067440999992010010403004+46567+008333FM-12+198099999V0201501N007719999999N9999999N1-00951-02011999999ADDMA1999999079391MD1619999+9999ME1314309OA149901131REMSYN076AAXX  04034 06744 33/// /1515 11095 21201 37939 48430 56/// 333 91122 91217;
0137067440999992010010404004+46567+008333FM-12+198099999V0201501N008719999999N9999999N1-00991-01861999999ADDMA1999999079351MD1710141+9999ME1314279OA149901081REMSYN076AAXX  04044 06744 33/// /1517 11099 21186 37935 48427 57014 333 91121 91217;
0137067440999992010010405004+46567+008333FM-12+198099999V0201401N007719999999N9999999N1-01001-01581999999ADDMA1999999079341MD1710111+9999ME1314269OA149901081REMSYN076AAXX  04054 06744 33/// /1415 11100 21158 37934 48426 57011 333 91121 91217;
0333067440999992010010406004+46567+008333FM-12+198099999V0201401N007210003019N0050001N1-01031-01491999999ADDAA124000091AJ101409199999999AL19900091AY141061AY221061GA1081+000301051GF108991999999000251999999GJ102289IA1239KA1999N-01281MA1999999079341MD1710051+9999ME1314279MW1361OA149901131REMSYN124AAXX  04064 06744 31050 81414 11103 21149 37934 48427 57005 73642 333 21128 47140 55038 70000 88501 90768 93100 91122 91217;EQDQ01  00002PRCP24
0137067440999992010010407004+46567+008333FM-12+198099999V0201501N009319999999N9999999N1-01031-01501999999ADDMA1999999079301MD1710051+9999ME1314239OA149901131REMSYN076AAXX  04074 06744 33/// /1518 11103 21150 37930 48423 57005 333 91122 91218;
0137067440999992010010408004+46567+008333FM-12+198099999V0201501N009319999999N9999999N1-01031-01381999999ADDMA1999999079291MD1710051+9999ME1314229OA149901341REMSYN076AAXX  04084 06744 33/// /1518 11103 21138 37929 48422 57005 333 91126 91218;
0137067440999992010010409004+46567+008333FM-12+198099999V0201501N009319999999N9999999N1-00941-01391999999ADDMA1999999079281MD1710061+9999ME1314199OA149901341REMSYN076AAXX  04094 06744 33/// /1518 11094 21139 37928 48419 57006 333 91126 91219;
0137067440999992010010410004+46567+008333FM-12+198099999V0201501N008719999999N9999999N1-00911-01341999999ADDMA1999999079291MD1010011+9999ME1314199OA149901241REMSYN076AAXX  04104 06744 33/// /1517 11091 21134 37929 48419 50001 333 91124 91219;
0137067440999992010010411004+46567+008333FM-12+198099999V0201501N008719999999N9999999N1-00891-01331999999ADDMA1999999079201MD1710091+9999ME1314109OA149901181REMSYN076AAXX  04114 06744 33/// /1517 11089 21133 37920 48410 57009 333 91123 91217;
0207067440999992010010412004+46567+008333FM-12+198099999V0201501N008210003019N0004001N1-00881-01291999999ADDAY171061AY241061GA1091+999999999GF109991091999999999999999MA1999999079141MD1710141+9999ME1314049MW1701OA149901341REMSYN082AAXX  04124 06744 31/04 91516 11088 21129 37914 48404 57014 77074 333 91126 91219;
0137067440999992010010413004+46567+008333FM-12+198099999V0201601N006219999999N9999999N1-00861-01291999999ADDMA1999999079111MD1610181+9999ME1314009OA149901031REMSYN076AAXX  04134 06744 33/// /1612 11086 21129 37911 48400 56018 333 91120 91217;
0137067440999992010010414004+46567+008333FM-12+198099999V0202201N001519999999N9999999N1-00891-01061999999ADDMA1999999079111MD1719999+9999ME1314019OA149900931REMSYN076AAXX  04144 06744 33/// /2203 11089 21106 37911 48401 57/// 333 91118 91214;
0137067440999992010010415004+46567+008333FM-12+198099999V0202701N004619999999N9999999N1-00861-01041999999ADDMA1999999079101MD1710041+9999ME1313999OA149901181REMSYN076AAXX  04154 06744 33/// /2709 11086 21104 37910 48399 57004 333 91123 91217;
0137067440999992010010416004+46567+008333FM-12+198099999V0201801N000519999999N9999999N1-00771-01001999999ADDMA1999999079071MD1710041+9999ME1313949OA149900621REMSYN076AAXX  04164 06744 33/// /1801 11077 21100 37907 48394 57004 333 91112 91209;
0137067440999992010010417004+46567+008333FM-12+198099999V0202501N001519999999N9999999N1-00811-01001999999ADDMA1999999079081MD1710031+9999ME1313969OA149900571REMSYN076AAXX  04174 06744 33/// /2503 11081 21100 37908 48396 57003 333 91111 91209;
0277067440999992010010418004+46567+008333FM-12+198099999V0202401N002610003019N0004001N1-00801-00951999999ADDAJ101479199999999AL11200791AY171061AY231061GA1091+999999999GF109991091999999999999999IA1239KA1120M-00771MA1999999079071MD1710031+9999ME1313959MW1701OA149901341REMSYN106AAXX  04184 06744 31/04 92405 11080 21095 37907 48395 57003 77073 333 11077 47147 90766 93107 91126 91219;
0173067440999992010010419004+46567+008333FM-12+198099999V0202401N003119999999N9999999N1-00781-00911999999ADDAA101000021MA1999999079071MD1410001+9999ME1313959OA149900621REMSYN082AAXX  04194 06744 23/// /2406 11078 21091 37907 48395 57000 333 69925 91112 91209;EQDQ01+000072APCTEN
0154067440999992010010420004+46567+008333FM-12+198099999V0202201N002119999999N9999999N1-00711-00911999999ADDAA101000021MA1999999079041MD1710041+9999ME1313909OA149900461REMSYN082AAXX  04204 06744 23/// /2204 11071 21091 37904 48390 57004 333 69925 91109 91206;
0137067440999992010010421004+46567+008333FM-12+198099999V0202401N003119999999N9999999N1-00711-00871999999ADDMA1999999079041MD1710031+9999ME1313909OA149900621REMSYN076AAXX  04214 06744 33/// /2406 11071 21087 37904 48390 57003 333 91112 91209;
0137067440999992010010422004+46567+008333FM-12+198099999V0202401N002619999999N9999999N1-00681-00851999999ADDMA1999999079031MD1710041+9999ME1313889OA149900571REMSYN076AAXX  04224 06744 33/// /2405 11068 21085 37903 48388 57004 333 91111 91208;
0137067440999992010010423004+46567+008333FM-12+198099999V0202201N003119999999N9999999N1-00661-00911999999ADDMA1999999079001MD1710041+9999ME1313859OA149900511REMSYN076AAXX  04234 06744 33/// /2206 11066 21091 37900 48385 57004 333 91110 91207;
0160067440999992010010500004+46567+008333FM-12+198099999V0202301N001519999999N9999999N1-00711-01001999999ADDAA106000591MA1999999078971MD1710071+9999ME1313839OA149900931REMSYN088AAXX  05004 06744 03/// /2303 11071 21100 37897 48383 57007 69941 333 60005 91118 91214;
0137067440999992010010501004+46567+008333FM-12+198099999V0202601N005719999999N9999999N1-00731-01101999999ADDMA1999999078921MD1710111+9999ME1313789OA149900771REMSYN076AAXX  05014 06744 33/// /2611 11073 21110 37892 48378 57011 333 91115 91211;
0137067440999992010010502004+46567+008333FM-12+198099999V0202301N003119999999N9999999N1-00781-01211999999ADDMA1999999078911MD1610091+9999ME1313799OA149900771REMSYN076AAXX  05024 06744 33/// /2306 11078 21121 37891 48379 56009 333 91115 91212;
0137067440999992010010503004+46567+008333FM-12+198099999V0202401N005119999999N9999999N1-00811-01311999999ADDMA1999999078891MD1710081+9999ME1313779OA149900771REMSYN076AAXX  05034 06744 33/// /2410 11081 21131 37889 48377 57008 333 91115 91212;
0137067440999992010010504004+46567+008333FM-12+198099999V0202401N005119999999N9999999N1-00701-01221999999ADDMA1999999078831MD1710091+9999ME1313699OA149901081REMSYN076AAXX  05044 06744 33/// /2410 11070 21122 37883 48369 57009 333 91121 91215;
0154067440999992010010505004+46567+008333FM-12+198099999V0202301N005719999999N9999999N1-00801-01361999999ADDAA101000021MA1999999078781MD1710131+9999ME1313669OA149901081REMSYN082AAXX  05054 06744 23/// /2311 11080 21136 37878 48366 57013 333 69915 91121 91215;
0347067440999992010010506004+46567+008333FM-12+198099999V0202201N003612200019N0230001N1-00791-01401999999ADDAA112000591AA224000591AJ101489199999999AL13000091AL29900891AY171061AY241061GA1031+027001031GF103991999999999999999999GJ100009IA1239KA1999N-00891MA1999999078751MD1710141+9999ME1313639MW1011OA149901081REMSYN136AAXX  05064 06744 01973 32207 11079 21140 37875 48363 57014 69952 70174 333 21089 47148 55000 60005 70005 83359 90768 93108 91121 91215;
0137067440999992010010507004+46567+008333FM-12+198099999V0201701N004619999999N9999999N1-00661-01181999999ADDMA1999999078731MD1710101+9999ME1313589OA149900881REMSYN076AAXX  05074 06744 33/// /1709 11066 21118 37873 48358 57010 333 91117 91211;
0137067440999992010010508004+46567+008333FM-12+198099999V0202201N002619999999N9999999N1-00801-01371999999ADDMA1999999078721MD1710061+9999ME1313609OA149900881REMSYN076AAXX  05084 06744 33/// /2205 11080 21137 37872 48360 57006 333 91117 91211;
0137067440999992010010509004+46567+008333FM-12+198099999V0202001N005719999999N9999999N1-00851-01501999999ADDMA1999999078691MD1710061+9999ME1313589OA149901081REMSYN076AAXX  05094 06744 33/// /2011 11085 21150 37869 48358 57006 333 91121 91215;
0137067440999992010010510004+46567+008333FM-12+198099999V0202001N006719999999N9999999N1-00691-01331999999ADDMA1999999078661MD1710071+9999ME1313519OA149901181REMSYN076AAXX  05104 06744 33/// /2013 11069 21133 37866 48351 57007 333 91123 91213;
0137067440999992010010511004+46567+008333FM-12+198099999V0201601N006719999999N9999999N1-00761-01301999999ADDMA1999999078601MD1710121+9999ME1313479OA149901181REMSYN076AAXX  05114 06744 33/// /1613 11076 21130 37860 48347 57012 333 91123 91216;
0207067440999992010010512004+46567+008333FM-12+198099999V0202101N004612200019N0260001N1-00591-01091999999ADDGA1011+014101041GA2031+039001011GF104991999999012501999999MA1999999078531MD1810161+9999ME1313369OA149901181REMSYN088AAXX  05124 06744 32676 42109 11059 21109 37853 48336 58016 333 81447 83163 91123 91216;
0137067440999992010010513004+46567+008333FM-12+198099999V0201901N005119999999N9999999N1-00561-01111999999ADDMA1999999078481MD1810181+9999ME1313309OA149900931REMSYN076AAXX  05134 06744 33/// /1910 11056 21111 37848 48330 58018 333 91118 91213;
0096067440999992010010514004+46567+008333FM-12+198099999V0202101N004119999999N9999999N1-00661-01301999999ADDMA1999999078461ME1313319REMSYN060AAXX  05144 06744 33/// /2108 11066 21130 37846 48331 5////;
0137067440999992010010515004+46567+008333FM-12+198099999V0202201N004619999999N9999999N1-00711-01481999999ADDMA1999999078441MD1710091+9999ME1313309OA149901181REMSYN076AAXX  05154 06744 33/// /2209 11071 21148 37844 48330 57009 333 91123 91216;
0137067440999992010010516004+46567+008333FM-12+198099999V0202501N005119999999N9999999N1-00801-01631999999ADDMA1999999078451MD1710031+9999ME1313339OA149900821REMSYN076AAXX  05164 06744 33/// /2510 11080 21163 37845 48333 57003 333 91116 91211;
0137067440999992010010517004+46567+008333FM-12+198099999V0202401N003619999999N9999999N1-00721-01491999999ADDMA1999999078431MD1710031+9999ME1313299OA149900771REMSYN076AAXX  05174 06744 33/// /2407 11072 21149 37843 48329 57003 333 91115 91211;
0255067440999992010010518004+46567+008333FM-12+198099999V0202301N002612200019N0210001N1-00811-01581999999ADDAJ101469199999999AL19900091GA1041+011101041GF104991999999012501999999IA1239KA1120M-00561MA1999999078421MD1710021+9999ME1313309OA149901181REMSYN106AAXX  05184 06744 32671 42305 11081 21158 37842 48330 57002 333 11056 47146 84437 90766 93100 91123 91216;
0137067440999992010010519004+46567+008333FM-12+198099999V0202301N003119999999N9999999N1-00851-01591999999ADDMA1999999078411MD1710041+9999ME1313309OA149900771REMSYN076AAXX  05194 06744 33/// /2306 11085 21159 37841 48330 57004 333 91115 91210;
0137067440999992010010520004+46567+008333FM-12+198099999V0202401N004619999999N9999999N1-00811-01571999999ADDMA1999999078351MD1710081+9999ME1313239OA149900671REMSYN076AAXX  05204 06744 33/// /2409 11081 21157 37835 48323 57008 333 91113 91210;
0137067440999992010010521004+46567+008333FM-12+198099999V0202401N004119999999N9999999N1-00861-01591999999ADDMA1999999078331MD1710091+9999ME1313229OA149900771REMSYN076AAXX  05214 06744 33/// /2408 11086 21159 37833 48322 57009 333 91115 91211;
0137067440999992010010522004+46567+008333FM-12+198099999V0202201N003119999999N9999999N1-00831-01571999999ADDMA1999999078301MD1710111+9999ME1313189OA149900621REMSYN076AAXX  05224 06744 33/// /2206 11083 21157 37830 48318 57011 333 91112 91210;
0137067440999992010010523004+46567+008333FM-12+198099999V0202401N004619999999N9999999N1-00861-01611999999ADDMA1999999078281MD1710071+9999ME1313179OA149900621REMSYN076AAXX  05234 06744 33/// /2409 11086 21161 37828 48317 57007 333 91112 91209;
0137067440999992010010600004+46567+008333FM-12+198099999V0202301N003619999999N9999999N1-00881-01651999999ADDMA1999999078261MD1710071+9999ME1313169OA149900981REMSYN076AAXX  06004 06744 33/// /2307 11088 21165 37826 48316 57007 333 91119 91213;
0137067440999992010010601004+46567+008333FM-12+198099999V0202401N004119999999N9999999N1-00861-01591999999ADDMA1999999078251MD1710051+9999ME1313149OA149900621REMSYN076AAXX  06014 06744 33/// /2408 11086 21159 37825 48314 57005 333 91112 91209;
0137067440999992010010602004+46567+008333FM-12+198099999V0202401N004119999999N9999999N1-00861-01631999999ADDMA1999999078271MD1510011+9999ME1313169OA149900621REMSYN076AAXX  06024 06744 33/// /2408 11086 21163 37827 48316 55001 333 91112 91209;
0137067440999992010010603004+46567+008333FM-12+198099999V0202201N002619999999N9999999N1-00881-01581999999ADDMA1999999078241MD1710021+9999ME1313149OA149900621REMSYN076AAXX  06034 06744 33/// /2205 11088 21158 37824 48314 57002 333 91112 91209;
0137067440999992010010604004+46567+008333FM-12+198099999V0202301N003119999999N9999999N1-00921-01621999999ADDMA1999999078221MD1710031+9999ME1313139OA149900571REMSYN076AAXX  06044 06744 33/// /2306 11092 21162 37822 48313 57003 333 91111 91209;
0137067440999992010010605004+46567+008333FM-12+198099999V0202201N002619999999N9999999N1-00951-01631999999ADDMA1999999078231MD1510041+9999ME1313149OA149900571REMSYN076AAXX  06054 06744 33/// /2205 11095 21163 37823 48314 55004 333 91111 91207;
0305067440999992010010606004+46567+008333FM-12+198099999V0202301N004110180019N0220001N1-01001-01661999999ADDAA124000091AJ101469199999999AL19900091GA1051+018001031GF105991999999017501999999GJ102529IA1239KA1999N-01001MA1999999078231MD1510011+9999ME1313169OA149900671REMSYN118AAXX  06064 06744 32772 52308 11100 21166 37823 48316 55001 333 21100 47146 55042 70000 85356 90768 93100 91113 91210;EQDQ01  00002PRCP24
0137067440999992010010607004+46567+008333FM-12+198099999V0202401N005119999999N9999999N1-01031-01721999999ADDMA1999999078241MD1010021+9999ME1313179OA149900621REMSYN076AAXX  06074 06744 33/// /2410 11103 21172 37824 48317 50002 333 91112 91210;
0137067440999992010010608004+46567+008333FM-12+198099999V0202401N003619999999N9999999N1-01071-01751999999ADDMA1999999078251MD1310021+9999ME1313199OA149900621REMSYN076AAXX  06084 06744 33/// /2407 11107 21175 37825 48319 53002 333 91112 91210;
0137067440999992010010609004+46567+008333FM-12+198099999V0202301N003619999999N9999999N1-00961-01681999999ADDMA1999999078301MD1210071+9999ME1313229OA149900621REMSYN076AAXX  06094 06744 33/// /2307 11096 21168 37830 48322 52007 333 91112 91210;
0137067440999992010010610004+46567+008333FM-12+198099999V0202401N005719999999N9999999N1-00871-01641999999ADDMA1999999078311MD1210071+9999ME1313209OA149900981REMSYN076AAXX  06104 06744 33/// /2411 11087 21164 37831 48320 52007 333 91119 91212;
0137067440999992010010611004+46567+008333FM-12+198099999V0201501N006719999999N9999999N1-00861-01491999999ADDMA1999999078281MD1019999+9999ME1313179OA149900981REMSYN076AAXX  06114 06744 33/// /1513 11086 21149 37828 48317 50/// 333 91119 91214;
0195067440999992010010612004+46567+008333FM-12+198099999V0201701N005112200019N0210001N1-00891-01531999999ADDGA1031+039001011GF103991999999999999999999MA1999999078281MD1710021+9999ME1313189OA149900981REMSYN092AAXX  06124 06744 32971 31710 11089 21153 37828 48318 57002 333 83163 91119 91214 444 44172;
0137067440999992010010613004+46567+008333FM-12+198099999V0201801N005119999999N9999999N1-01021-01591999999ADDMA1999999078281MD1710031+9999ME1313219OA149900931REMSYN076AAXX  06134 06744 33/// /1810 11102 21159 37828 48321 57003 333 91118 91213;
0137067440999992010010614004+46567+008333FM-12+198099999V0201701N006219999999N9999999N1-00951-01501999999ADDMA1999999078291MD1519999+9999ME1313209OA149900931REMSYN076AAXX  06144 06744 33/// /1712 11095 21150 37829 48320 55/// 333 91118 91213;
0128067440999992010010615004+46567+008333FM-12+198099999V0201601N005719999999N9999999N1+99999+99999999999ADDMA1999999078331MD1219999+9999OA149900981REMSYN076AAXX  06154 06744 33/// /1611 1//// 2//// 37833 52/// 91440 333 91119 91214;
0137067440999992010010616004+46567+008333FM-12+198099999V0201901N006719999999N9999999N1-01001-01561999999ADDMA1999999078361MD1310081+9999ME1313299OA149901031REMSYN076AAXX  06164 06744 33/// /1913 11100 21156 37836 48329 53008 333 91120 91214;
0137067440999992010010617004+46567+008333FM-12+198099999V0201601N007719999999N9999999N1-00961-01471999999ADDMA1999999078371MD1210081+9999ME1313299OA149901181REMSYN076AAXX  06174 06744 33/// /1615 11096 21147 37837 48329 52008 333 91123 91215;
0255067440999992010010618004+46567+008333FM-12+198099999V0200701N000512200019N0230001N1-01141-01141999999ADDAJ101449199999999AL19900091GA1041+011101041GF104991999999012501999999IA1239KA1120M-00741MA1999999078451MD1210111+9999ME1313419OA149901181REMSYN106AAXX  06184 06744 32673 40701 11114 21114 37845 48341 52011 333 11074 47144 84437 90766 93100 91123 91215;
0137067440999992010010619004+46567+008333FM-12+198099999V0202301N003119999999N9999999N1-01211-01301999999ADDMA1999999078481MD1210121+9999ME1313469OA149900881REMSYN076AAXX  06194 06744 33/// /2306 11121 21130 37848 48346 52012 333 91117 91213;
0137067440999992010010620004+46567+008333FM-12+198099999V0201601N009319999999N9999999N1-01111-01311999999ADDMA1999999078481MD1210111+9999ME1313439OA149901131REMSYN076AAXX  06204 06744 33/// /1618 11111 21131 37848 48343 52011 333 91122 91218;
0137067440999992010010621004+46567+008333FM-12+198099999V0201301N007719999999N9999999N1-01051-01261999999ADDMA1999999078521MD1210071+9999ME1313469OA149901181REMSYN076AAXX  06214 06744 33/// /1315 11105 21126 37852 48346 52007 333 91123 91218;
0137067440999992010010622004+46567+008333FM-12+198099999V0201801N005719999999N9999999N1-01011-01271999999ADDMA1999999078551MD1210071+9999ME1313489OA149901181REMSYN076AAXX  06224 06744 33/// /1811 11101 21127 37855 48348 52007 333 91123 91218;
0137067440999992010010623004+46567+008333FM-12+198099999V0202001N007719999999N9999999N1-01251-01731999999ADDMA1999999078541MD1210061+9999ME1313539OA149901081REMSYN076AAXX  06234 06744 33/// /2015 11125 21173 37854 48353 52006 333 91121 91217;
0137067440999992010010700004+46567+008333FM-12+198099999V0201801N007219999999N9999999N1-01131-01371999999ADDMA1999999078541MD1010021+9999ME1313509OA149901181REMSYN076AAXX  07004 06744 33/// /1814 11113 21137 37854 48350 50002 333 91123 91218;
0137067440999992010010701004+46567+008333FM-12+198099999V0201401N005119999999N9999999N1-01121-01341999999ADDMA1999999078601MD1310051+9999ME1313559OA149901031REMSYN076AAXX  07014 06744 33/// /1410 11112 21134 37860 48355 53005 333 91120 91216;
0137067440999992010010702004+46567+008333FM-12+198099999V0201301N007219999999N9999999N1-01101-01431999999ADDMA1999999078601MD1219999+9999ME1313559OA149901131REMSYN076AAXX  07024 06744 33/// /1314 11110 21143 37860 48355 52/// 333 91122 91216;
0137067440999992010010703004+46567+008333FM-12+198099999V0201401N008719999999N9999999N1-01121-01431999999ADDMA1999999078601MD1210061+9999ME1313559OA149901181REMSYN076AAXX  07034 06744 33/// /1417 11112 21143 37860 48355 52006 333 91123 91217;
0137067440999992010010704004+46567+008333FM-12+198099999V0201401N008219999999N9999999N1-01151-01471999999ADDMA1999999078631MD1210031+9999ME1313599OA149901291REMSYN076AAXX  07044 06744 33/// /1416 11115 21147 37863 48359 52003 333 91125 91220;
0137067440999992010010705004+46567+008333FM-12+198099999V0201601N008219999999N9999999N1-01181-01651999999ADDMA1999999078631MD1310031+9999ME1313609OA149901291REMSYN076AAXX  07054 06744 33/// /1616 11118 21165 37863 48360 53003 333 91125 91220;
0305067440999992010010706004+46567+008333FM-12+198099999V0201901N008212200019N0220001N1-01201-01821999999ADDAA124000091AJ101449199999999AL19900091GA1031+021001031GF103991999999022501999999GJ102409IA1239KA1999N-01411MA1999999078681MD1210081+9999ME1313659OA149901291REMSYN118AAXX  07064 06744 32872 31916 11120 21182 37868 48365 52008 333 21141 47144 55040 70000 83357 90768 93100 91125 91220;EQDQ01  00002PRCP24
0137067440999992010010707004+46567+008333FM-12+198099999V0201901N006219999999N9999999N1-01341-02301999999ADDMA1999999078701MD1210071+9999ME1313709OA149901291REMSYN076AAXX  07074 06744 33/// /1912 11134 21230 37870 48370 52007 333 91125 91220;
0137067440999992010010708004+46567+008333FM-12+198099999V0201701N007219999999N9999999N1-01211-02101999999ADDMA1999999078751MD1219999+9999ME1313729OA149901291REMSYN076AAXX  07084 06744 33/// /1714 11121 21210 37875 48372 52/// 333 91125 91216;
0137067440999992010010709004+46567+008333FM-12+198099999V0201801N007719999999N9999999N1-01091-01991999999ADDMA1999999078801MD1210121+9999ME1313759OA149901291REMSYN076AAXX  07094 06744 33/// /1815 11109 21199 37880 48375 52012 333 91125 91220;
0137067440999992010010710004+46567+008333FM-12+198099999V0201301N008219999999N9999999N1-00831-02371999999ADDMA1999999078851MD1310151+9999ME1313749OA149901181REMSYN076AAXX  07104 06744 33/// /1316 11083 21237 37885 48374 53015 333 91123 91217;
0137067440999992010010711004+46567+008333FM-12+198099999V0201501N007219999999N9999999N1-00841-02281999999ADDMA1999999078841MD1219999+9999ME1313739OA149901241REMSYN076AAXX  07114 06744 33/// /1514 11084 21228 37884 48373 52/// 333 91124 91217;
0213067440999992010010712004+46567+008333FM-12+198099999V0201501N006712200019N0300001N1-00811-02181999999ADDAY111061AY211061GA1041+024001031GF104991999999022501999999MA1999999078811MD1010011+9999ME1313699MW1361OA149901291REMSYN088AAXX  07124 06744 31880 41513 11081 21218 37881 48369 50001 73611 333 84358 91125 91220;
0137067440999992010010713004+46567+008333FM-12+198099999V0201501N005719999999N9999999N1-00841-02011999999ADDMA1999999078821MD1719999+9999ME1313719OA149901031REMSYN076AAXX  07134 06744 33/// /1511 11084 21201 37882 48371 57/// 333 91120 91215;
0137067440999992010010716004+46567+008333FM-12+198099999V0201701N007219999999N9999999N1-00801-01731999999ADDMA1999999078951MD1219999+9999ME1313839OA149900931REMSYN076AAXX  07164 06744 33/// /1714 11080 21173 37895 48383 52/// 333 91118 91214;
0137067440999992010010717004+46567+008333FM-12+198099999V0201601N005119999999N9999999N1-00811-01661999999ADDMA1999999078981MD1119999+9999ME1313869OA149900981REMSYN076AAXX  07174 06744 33/// /1610 11081 21166 37898 48386 51/// 333 91119 91214;
0255067440999992010010718004+46567+008333FM-12+198099999V0201801N006210141019N0240001N1-00811-01581999999ADDAJ101429199999999AL19900091GA1061+014101041GF106991999999012501999999IA1279KA1120M-00741MA1999999079021MD1319999+9999ME1313909OA149901291REMSYN106AAXX  07184 06744 32674 61812 11081 21158 37902 48390 53/// 333 11074 43142 86447 90766 93100 91125 91217;
0137067440999992010010719004+46567+008333FM-12+198099999V0201801N006719999999N9999999N1-00841-01531999999ADDMA1999999079031MD1210081+9999ME1313929OA149901031REMSYN076AAXX  07194 06744 33/// /1813 11084 21153 37903 48392 52008 333 91120 91214;
0137067440999992010010720004+46567+008333FM-12+198099999V0201701N006219999999N9999999N1-00861-01421999999ADDMA1999999079041MD1210061+9999ME1313939OA149901031REMSYN076AAXX  07204 06744 33/// /1712 11086 21142 37904 48393 52006 333 91120 91213;
0137067440999992010010721004+46567+008333FM-12+198099999V0201501N005119999999N9999999N1-00881-01351999999ADDMA1999999079031MD1010011+9999ME1313939OA149901031REMSYN076AAXX  07214 06744 33/// /1510 11088 21135 37903 48393 50001 333 91120 91214;
0137067440999992010010722004+46567+008333FM-12+198099999V0201501N006219999999N9999999N1-00901-01251999999ADDMA1999999079001MD1810031+9999ME1313909OA149901031REMSYN076AAXX  07224 06744 33/// /1512 11090 21125 37900 48390 58003 333 91120 91214;
0137067440999992010010723004+46567+008333FM-12+198099999V0201501N008719999999N9999999N1-00861-01211999999ADDMA1999999078971MD1710071+9999ME1313869OA149901341REMSYN076AAXX  07234 06744 33/// /1517 11086 21121 37897 48386 57007 333 91126 91218;
0137067440999992010010800004+46567+008333FM-12+198099999V0201601N008719999999N9999999N1-00841-01161999999ADDMA1999999078931MD1810101+9999ME1313829OA149901341REMSYN076AAXX  08004 06744 33/// /1617 11084 21116 37893 48382 58010 333 91126 91218;
0137067440999992010010801004+46567+008333FM-12+198099999V0201301N009319999999N9999999N1-00791-01131999999ADDMA1999999078861MD1810141+9999ME1313749OA149901241REMSYN076AAXX  08014 06744 33/// /1318 11079 21113 37886 48374 58014 333 91124 91218;
0137067440999992010010802004+46567+008333FM-12+198099999V0201601N007219999999N9999999N1-00801-01071999999ADDMA1999999078851MD1719999+9999ME1313739OA149901241REMSYN076AAXX  08024 06744 33/// /1614 11080 21107 37885 48373 57/// 333 91124 91218;
0137067440999992010010803004+46567+008333FM-12+198099999V0201301N008219999999N9999999N1-00711-01111999999ADDMA1999999078811MD1719999+9999ME1313679OA149901441REMSYN076AAXX  08034 06744 33/// /1316 11071 21111 37881 48367 57/// 333 91128 91218;
0137067440999992010010804004+46567+008333FM-12+198099999V0201501N009319999999N9999999N1-00751-00991999999ADDMA1999999078761MD1710101+9999ME1313639OA149901441REMSYN076AAXX  08044 06744 33/// /1518 11075 21099 37876 48363 57010 333 91128 91218;
0137067440999992010010805004+46567+008333FM-12+198099999V0201401N009319999999N9999999N1-00651-00951999999ADDMA1999999078701MD1810151+9999ME1313559OA149901291REMSYN076AAXX  08054 06744 33/// /1418 11065 21095 37870 48355 58015 333 91125 91219;
0318067440999992010010806004+46567+008333FM-12+198099999V0201401N011310003019N0004001N1-00601-00871999999ADDAA124000021AJ101509199999999AL19900091AL29900891AY171061AY231061GA1091+999999999GF109991091999999999999999GJ102229IA1239KA1999N-00901MA1999999078671MD1610141+9999ME1313509MW1731OA149901601REMSYN118AAXX  08064 06744 31/04 91422 11060 21087 37867 48350 56014 77373 333 21090 47150 55037 70000 90768 93108 91131 91222;
0137067440999992010010807004+46567+008333FM-12+198099999V0201401N008219999999N9999999N1-00551-00761999999ADDMA1999999078661MD1710101+9999ME1313489OA149901601REMSYN076AAXX  08074 06744 33/// /1416 11055 21076 37866 48348 57010 333 91131 91222;
0154067440999992010010808004+46567+008333FM-12+198099999V0201301N009819999999N9999999N1-00491-00721999999ADDAA101000021MA1999999078631MD1710071+9999ME1313449OA149901651REMSYN082AAXX  08084 06744 23/// /1319 11049 21072 37863 48344 57007 333 69915 91132 91222;
0137067440999992010010809004+46567+008333FM-12+198099999V0201401N008719999999N9999999N1-00461-00541999999ADDMA1999999078611MD1710061+9999ME1313419OA149901651REMSYN076AAXX  08094 06744 33/// /1417 11046 21054 37861 48341 57006 333 91132 91222;
0137067440999992010010810004+46567+008333FM-12+198099999V0201401N010819999999N9999999N1-00401-00641999999ADDMA1999999078581MD1710081+9999ME1313369OA149901601REMSYN076AAXX  08104 06744 33/// /1421 11040 21064 37858 48336 57008 333 91131 91221;
0154067440999992010010811004+46567+008333FM-12+198099999V0201401N011319999999N9999999N1-00361-00541999999ADDAA101000021MA1999999078491MD1810141+9999ME1313269OA149901601REMSYN082AAXX  08114 06744 23/// /1422 11036 21054 37849 48326 58014 333 69915 91131 91222;
0215067440999992010010812004+46567+008333FM-12+198099999V0201301N010810006019N0009001N1+99999+99999999999ADDAA106000021AY131061AY221061GA1091+999999999GF109991091999999999999999MA1999999078411MD1810201+9999MW1701OA149901651REMSYN088AAXX  08124 06744 01/09 91321 1//// 2//// 37841 58020 69921 77032 333 60005 91132 91222;
0139067440999992010010813004+46567+008333FM-12+198099999V0201601N008219999999N9999999N1+99999+99999999999ADDAA101000021MA1999999078351MD1610231+9999OA149901701REMSYN076AAXX  08134 06744 23/// /1616 1//// 2//// 37835 56023 333 69915 91133 91222;
0122067440999992010010814004+46567+008333FM-12+198099999V0201401N008719999999N9999999N1+99999+99999999999ADDMA1999999078311MD1619999+9999OA149901701REMSYN070AAXX  08144 06744 33/// /1417 1//// 2//// 37831 56/// 333 91133 91221;
0139067440999992010010815004+46567+008333FM-12+198099999V0201501N007719999999N9999999N1+99999+99999999999ADDAA101000021MA1999999078311MD1710101+9999OA149901701REMSYN076AAXX  08154 06744 23/// /1515 1//// 2//// 37831 57010 333 69915 91133 91222;
0139067440999992010010816004+46567+008333FM-12+198099999V0201401N006219999999N9999999N1+99999+99999999999ADDAA101000021MA1999999078321MD1510031+9999OA149901341REMSYN076AAXX  08164 06744 23/// /1412 1//// 2//// 37832 55003 333 69915 91126 91217;
0139067440999992010010817004+46567+008333FM-12+198099999V0201601N005119999999N9999999N1+99999+99999999999ADDAA101000391MA1999999078341MD1319999+9999OA149901081REMSYN076AAXX  08174 06744 23/// /1610 1//// 2//// 37834 53/// 333 69935 91121 91214;
0266067440999992010010818004+46567+008333FM-12+198099999V0201401N005710003019N0003001N1+99999+99999999999ADDAA112002091AJ101559199999999AL11200591AY171061AY231061GA1091+999999999GF109991091999999999999999IA1239MA1999999078351MD1210041+9999MW1701OA149901701REMSYN106AAXX  08184 06744 01/03 91411 1//// 2//// 37835 52004 60022 77073 333 47155 60015 90766 93105 91133 91222;
0139067440999992010010819004+46567+008333FM-12+198099999V0201401N007219999999N9999999N1+99999+99999999999ADDAA101000021MA1999999078361MD1210041+9999OA149901081REMSYN076AAXX  08194 06744 23/// /1414 1//// 2//// 37836 52004 333 69915 91121 91215;
0139067440999992010010820004+46567+008333FM-12+198099999V0201401N007219999999N9999999N1+99999+99999999999ADDAA101000021MA1999999078381MD1210041+9999OA149901131REMSYN076AAXX  08204 06744 23/// /1414 1//// 2//// 37838 52004 333 69925 91122 91215;
0122067440999992010010821004+46567+008333FM-12+198099999V0201301N006219999999N9999999N1+99999+99999999999ADDMA1999999078381MD1210031+9999OA149901181REMSYN070AAXX  08214 06744 33/// /1312 1//// 2//// 37838 52003 333 91123 91215;
0139067440999992010010822004+46567+008333FM-12+198099999V0201401N005719999999N9999999N1+99999+99999999999ADDAA101000021MA1999999078411MD1210051+9999OA149901181REMSYN076AAXX  08224 06744 23/// /1411 1//// 2//// 37841 52005 333 69915 91123 91214;
0122067440999992010010823004+46567+008333FM-12+198099999V0201401N005719999999N9999999N1+99999+99999999999ADDMA1999999078421MD1210041+9999OA149901031REMSYN070AAXX  08234 06744 33/// /1411 1//// 2//// 37842 52004 333 91120 91214;
0145067440999992010010900004+46567+008333FM-12+198099999V0201401N004119999999N9999999N1+99999+99999999999ADDAA106000591MA1999999078381MD1010001+9999OA149901701REMSYN082AAXX  09004 06744 03/// /1408 1//// 2//// 37838 50000 69941 333 60005 91133 91221;
0122067440999992010010901004+46567+008333FM-12+198099999V0201501N003119999999N9999999N1+99999+99999999999ADDMA1999999078371MD1810041+9999OA149900721REMSYN070AAXX  09014 06744 33/// /1506 1//// 2//// 37837 58004 333 91114 91211;
0122067440999992010010902004+46567+008333FM-12+198099999V0201801N005719999999N9999999N1+99999+99999999999ADDMA1999999078411MD1519999+9999OA149900881REMSYN070AAXX  09024 06744 33/// /1811 1//// 2//// 37841 55/// 333 91117 91213;
0122067440999992010010903004+46567+008333FM-12+198099999V0201801N006219999999N9999999N1+99999+99999999999ADDMA1999999078421MD1219999+9999OA149901031REMSYN070AAXX  09034 06744 33/// /1812 1//// 2//// 37842 52/// 333 91120 91214;
0141067440999992010010904004+46567+008333FM-12+198099999V0201601N003619999999N9999999N1+99999+99999999999ADDMA1999999078371MD1410001+9999OA149900981REMSYN070AAXX  09044 06744 33/// /1607 1//// 2//// 37837 58000 333 91119 91214;EQDQ01+000082APCTEN
0122067440999992010010905004+46567+008333FM-12+198099999V0202501N006719999999N9999999N1+99999+99999999999ADDMA1999999078321MD1710091+9999OA149901081REMSYN070AAXX  09054 06744 33/// /2513 1//// 2//// 37832 57009 333 91121 91214;
0313067440999992010010906004+46567+008333FM-12+198099999V0201701N000512200019N0250001N1+99999+99999999999ADDAA112000591AA224002391AJ101559199999999AL12400291AL29900591AY171061AY231061GA1031+027001031GF103991999999999999999999GJ100009IA1239MA1999999078271MD1710151+9999MW1011OA149901181REMSYN124AAXX  09064 06744 01975 31701 1//// 2//// 37827 57015 69942 70173 333 47155 55000 60005 70024 83359 90768 93105 91123 91215;
0122067440999992010010907004+46567+008333FM-12+198099999V0202301N003619999999N9999999N1+99999+99999999999ADDMA1999999078281MD1710091+9999OA149900981REMSYN070AAXX  09074 06744 33/// /2307 1//// 2//// 37828 57009 333 91119 91215;
0137067440999992010010908004+46567+008333FM-12+198099999V0202101N002619999999N9999999N1-00411-01451999999ADDMA1999999078251MD1710071+9999ME1313039OA149900721REMSYN076AAXX  09084 06744 33/// /2105 11041 21145 37825 48303 57007 333 91114 91210;
0137067440999992010010909004+46567+008333FM-12+198099999V0202401N003119999999N9999999N1-00381-01471999999ADDMA1999999078251MD1710021+9999ME1313029OA149901081REMSYN076AAXX  09094 06744 33/// /2406 11038 21147 37825 48302 57002 333 91121 91215;
0137067440999992010010910004+46567+008333FM-12+198099999V0203401N001519999999N9999999N1-00891-01311999999ADDMA1999999078221MD1710061+9999ME1313129OA149900931REMSYN076AAXX  09104 06744 33/// /3403 11089 21131 37822 48312 57006 333 91118 91211;
0137067440999992010010911004+46567+008333FM-12+198099999V0209999C001519999999N9999999N1-01161-01271999999ADDMA1999999078191MD1710061+9999ME1313169OA149900721REMSYN076AAXX  09114 06744 33/// /0003 11116 21127 37819 48316 57006 333 91114 91211;
0245067440999992010010912004+46567+008333FM-12+198099999V0202201N001010210019N0180001N1-00961-01211999999ADDAY131061AY221061GA1071+021001041GA2071+021001041GF107991999999022501999999MA1999999078151MD1710101+9999ME1313079MW1031OA149901081REMSYN104AAXX  09124 06744 31868 72202 11096 21121 37815 48307 57010 70332 333 87457 87457 91121 91215 444 56192;
0137067440999992010010913004+46567+008333FM-12+198099999V0200401N001519999999N9999999N1-01291-01291999999ADDMA1999999078151MD1710071+9999ME1313159OA149900511REMSYN076AAXX  09134 06744 33/// /0403 11129 21129 37815 48315 57007 333 91110 91208;
0137067440999992010010914004+46567+008333FM-12+198099999V0209999C001519999999N9999999N1-01281-01281999999ADDMA1999999078171MD1510021+9999ME1313179OA149900511REMSYN076AAXX  09144 06744 33/// /0003 11128 21128 37817 48317 55002 333 91110 91208;
0154067440999992010010915004+46567+008333FM-12+198099999V0202201N001519999999N9999999N1-01201-01411999999ADDAA101000021MA1999999078181MD1210031+9999ME1313169OA149900721REMSYN082AAXX  09154 06744 23/// /2203 11120 21141 37818 48316 52003 333 69915 91114 91211;
0154067440999992010010916004+46567+008333FM-12+198099999V0200201N001519999999N9999999N1-01341-01451999999ADDAA101000891MA1999999078191MD1210041+9999ME1313209OA149900311REMSYN082AAXX  09164 06744 23/// /0203 11134 21145 37819 48320 52004 333 69975 91106 91204;
0137067440999992010010917004+46567+008333FM-12+198099999V0203501N001519999999N9999999N1-01321-01491999999ADDMA1999999078181MD1010011+9999ME1313199OA149900311REMSYN076AAXX  09174 06744 33/// /3503 11132 21149 37818 48319 50001 333 91106 91204;
0281067440999992010010918004+46567+008333FM-12+198099999V0200301N000510001519N0001001N1-01431-01561999999ADDAA112001091AJ101569199999999AL11200191AY171061AY241061GA1091+999999999GF109991091999999999999999IA1239MA1999999078241MD1210061+9999ME1313279MW1701OA149900931REMSYN112AAXX  09184 06744 01/01 90301 11143 21156 37824 48327 52006 69992 77074 333 47156 69915 90766 93101 91118 91211;
0137067440999992010010919004+46567+008333FM-12+198099999V0203301N001019999999N9999999N1-01371-01471999999ADDMA1999999078251MD1210061+9999ME1313279OA149900821REMSYN076AAXX  09194 06744 33/// /3302 11137 21147 37825 48327 52006 333 91116 91207;
0137067440999992010010920004+46567+008333FM-12+198099999V0201501N000519999999N9999999N1-01131-01301999999ADDMA1999999078281MD1210101+9999ME1313249OA149900821REMSYN076AAXX  09204 06744 33/// /1501 11113 21130 37828 48324 52010 333 91116 91207;
0154067440999992010010921004+46567+008333FM-12+198099999V0201601N006219999999N9999999N1-00661-00981999999ADDAA101000021MA1999999078321MD1210081+9999ME1313169OA149900931REMSYN082AAXX  09214 06744 23/// /1612 11066 21098 37832 48316 52008 333 69915 91118 91212;
0154067440999992010010922004+46567+008333FM-12+198099999V0200201N001519999999N9999999N1-01441-01571999999ADDAA101000021MA1999999078361MD1219999+9999ME1313399OA149900931REMSYN082AAXX  09224 06744 23/// /0203 11144 21157 37836 48339 52/// 333 69915 91118 91212;
0154067440999992010010923004+46567+008333FM-12+198099999V0201701N007219999999N9999999N1-00412-00781999999ADDAA101000021MA1999999078401MD1310121+9999ME1313189OA149900981REMSYN082AAXX  09234 06744 23/// /1714 11041 21078 37840 48318 53012 333 69915 91119 91214;
0160067440999992010011000004+46567+008333FM-12+198099999V0201401N005719999999N9999999N1-00441-00801999999ADDAA106000391MA1999999078431MD1110111+9999ME1313229OA149900981REMSYN088AAXX  10004 06744 03/// /1411 11044 21080 37843 48322 51011 69931 333 60005 91119 91214;
0137067440999992010011001004+46567+008333FM-12+198099999V0201601N005719999999N9999999N1-00451-00781999999ADDMA1999999078461MD1319999+9999ME1313259OA149900931REMSYN076AAXX  10014 06744 33/// /1611 11045 21078 37846 48325 53/// 333 91118 91213;
0096067440999992010011002004+46567+008333FM-12+198099999V0201301N007219999999N9999999N1-00451-00821999999ADDMA1999999078501ME1313309REMSYN060AAXX  10024 06744 33/// /1314 11045 21082 37850 48330 5////;
0096067440999992010011003004+46567+008333FM-12+198099999V0201401N005719999999N9999999N1-00471-00781999999ADDMA1999999078541ME1313349REMSYN060AAXX  10034 06744 43/// /1411 11047 21078 37854 48334 5////;
0137067440999992010011004004+46567+008333FM-12+198099999V0201401N005119999999N9999999N1-00571-00851999999ADDMA1999999078591MD1210131+9999ME1313429OA149900931REMSYN076AAXX  10044 06744 33/// /1410 11057 21085 37859 48342 52013 333 91118 91214;
0154067440999992010011005004+46567+008333FM-12+198099999V0201401N005719999999N9999999N1-00511-00811999999ADDAA101000021MA1999999078621MD1210121+9999ME1313439OA149900821REMSYN082AAXX  10054 06744 23/// /1411 11051 21081 37862 48343 52012 333 69915 91116 91213;
0341067440999992010011006004+46567+008333FM-12+198099999V0201501N004110003019N0004001N1-00521-00861999999ADDAA112000591AA224001391AJ101609199999999AL11800191AL29900491AY171061AY231061GA1091+999999999GF109991091999999999999999GJ100009IA1239KA1999N-01441MA1999999078671MD1210131+9999ME1313489MW1701OA149900981REMSYN130AAXX  10064 06744 01/04 91508 11052 21086 37867 48348 52013 69942 77073 333 21144 47160 55000 60005 70013 90768 93104 91119 91214;
0137067440999992010011007004+46567+008333FM-12+198099999V0201501N004619999999N9999999N1-00501-00901999999ADDMA1999999078731MD1210141+9999ME1313549OA149900821REMSYN076AAXX  10074 06744 33/// /1509 11050 21090 37873 48354 52014 333 91116 91212;
0137067440999992010011008004+46567+008333FM-12+198099999V0201501N005719999999N9999999N1-00561-00881999999ADDMA1999999078801MD1319999+9999ME1313639OA149900821REMSYN076AAXX  10084 06744 33/// /1511 11056 21088 37880 48363 53/// 333 91116 91211;
0137067440999992010011009004+46567+008333FM-12+198099999V0201501N006219999999N9999999N1-00521-00921999999ADDMA1999999078851MD1210181+9999ME1313679OA149900821REMSYN076AAXX  10094 06744 33/// /1512 11052 21092 37885 48367 52018 333 91116 91213;
0137067440999992010011010004+46567+008333FM-12+198099999V0201401N005719999999N9999999N1-00541-00971999999ADDMA1999999078931MD1210201+9999ME1313759OA149901031REMSYN076AAXX  10104 06744 33/// /1411 11054 21097 37893 48375 52020 333 91120 91214;
0137067440999992010011011004+46567+008333FM-12+198099999V0201801N007219999999N9999999N1-00531-00991999999ADDMA1999999078971MD1110171+9999ME1313799OA149901031REMSYN076AAXX  10114 06744 33/// /1814 11053 21099 37897 48379 51017 333 91120 91215;
0241067440999992010011012004+46567+008333FM-12+198099999V0201501N005712200019N0240001N1-00581-01031999999ADDAY171061AY231061GA1031+018001031GF103991999999017501999999GG1089082009019999MA1999999078981MD1210131+9999ME1313819MW1361OA149901031REMSYN098AAXX  10124 06744 31774 31511 11058 21103 37898 48381 52013 73673 333 83356 91120 91215 444 38182;
0137067440999992010011013004+46567+008333FM-12+198099999V0201601N005119999999N9999999N1-00591-01121999999ADDMA1999999078991MD1210061+9999ME1313829OA149900931REMSYN076AAXX  10134 06744 33/// /1610 11059 21112 37899 48382 52006 333 91118 91214;
0137067440999992010011014004+46567+008333FM-12+198099999V0201401N003119999999N9999999N1-00771-01181999999ADDMA1999999079041MD1219999+9999ME1313919OA149900821REMSYN076AAXX  10144 06744 33/// /1406 11077 21118 37904 48391 52/// 333 91116 91212;
0137067440999992010011015004+46567+008333FM-12+198099999V0201901N001519999999N9999999N1-00811-01371999999ADDMA1999999079081MD1310101+9999ME1313969OA149901031REMSYN076AAXX  10154 06744 33/// /1903 11081 21137 37908 48396 53010 333 91120 91215;
0137067440999992010011016004+46567+008333FM-12+198099999V0201701N005119999999N9999999N1-00791-01241999999ADDMA1999999079121MD1310131+9999ME1314009OA149900771REMSYN076AAXX  10164 06744 33/// /1710 11079 21124 37912 48400 53013 333 91115 91210;
0137067440999992010011017004+46567+008333FM-12+198099999V0201801N005119999999N9999999N1-00901-01331999999ADDMA1999999079151MD1210111+9999ME1314059OA149900821REMSYN076AAXX  10174 06744 33/// /1810 11090 21133 37915 48405 52011 333 91116 91214;
0311067440999992010011018004+46567+008333FM-12+198099999V0201701N007712200019N0220001N1-00731-01231999999ADDAJ101569199999999AL19900091AY131061AY201061GA1021+033001031GF102991999999999999999999GG1039094009019999IA1279KA1120M-00461MA1999999079191MD1210111+9999ME1314069MW1361OA149901031REMSYN122AAXX  10184 06744 31972 21715 11073 21123 37919 48406 52011 73630 333 11046 43156 82361 90766 93100 91120 91217 444 33194;
0137067440999992010011019004+46567+008333FM-12+198099999V0202201N004619999999N9999999N1-00911-01621999999ADDMA1999999079231MD1210111+9999ME1314139OA149901031REMSYN076AAXX  10194 06744 33/// /2209 11091 21162 37923 48413 52011 333 91120 91217;
0137067440999992010011020004+46567+008333FM-12+198099999V0201601N008719999999N9999999N1-00731-01211999999ADDMA1999999079251MD1110101+9999ME1314129OA149901031REMSYN076AAXX  10204 06744 33/// /1617 11073 21121 37925 48412 51010 333 91120 91217;
0137067440999992010011021004+46567+008333FM-12+198099999V0201901N007219999999N9999999N1-00801-01351999999ADDMA1999999079291MD1310101+9999ME1314179OA149901081REMSYN076AAXX  10214 06744 33/// /1914 11080 21135 37929 48417 53010 333 91121 91217;
0137067440999992010011022004+46567+008333FM-12+198099999V0201701N008719999999N9999999N1-00701-01271999999ADDMA1999999079291MD1210061+9999ME1314159OA149901081REMSYN076AAXX  10224 06744 33/// /1717 11070 21127 37929 48415 52006 333 91121 91217;
0137067440999992010011023004+46567+008333FM-12+198099999V0201901N007719999999N9999999N1-00811-01681999999ADDMA1999999079291MD1010041+9999ME1314179OA149901181REMSYN076AAXX  10234 06744 33/// /1915 11081 21168 37929 48417 50004 333 91123 91217;
0137067440999992010011100004+46567+008333FM-12+198099999V0201701N007719999999N9999999N1-00761-01401999999ADDMA1999999079281MD1710011+9999ME1314159OA149901181REMSYN076AAXX  11004 06744 33/// /1715 11076 21140 37928 48415 57001 333 91123 91217;
0137067440999992010011101004+46567+008333FM-12+198099999V0202501N006219999999N9999999N1-00771-02041999999ADDMA1999999079311MD1310021+9999ME1314189OA149901131REMSYN076AAXX  11014 06744 33/// /2512 11077 21204 37931 48418 53002 333 91122 91217;
0137067440999992010011102004+46567+008333FM-12+198099999V0202401N004119999999N9999999N1-00771-02151999999ADDMA1999999079331MD1219999+9999ME1314209OA149901131REMSYN076AAXX  11024 06744 33/// /2408 11077 21215 37933 48420 52/// 333 91122 91215;
0137067440999992010011103004+46567+008333FM-12+198099999V0202401N004119999999N9999999N1-00881-02071999999ADDMA1999999079341MD1219999+9999ME1314249OA149901181REMSYN076AAXX  11034 06744 33/// /2408 11088 21207 37934 48424 52/// 333 91123 91217;
0137067440999992010011104004+46567+008333FM-12+198099999V0202501N005719999999N9999999N1-00821-02141999999ADDMA1999999079331MD1210021+9999ME1314219OA149900621REMSYN076AAXX  11044 06744 33/// /2511 11082 21214 37933 48421 52002 333 91112 91211;
0137067440999992010011105004+46567+008333FM-12+198099999V0202501N004119999999N9999999N1-00751-02081999999ADDMA1999999079341MD1210011+9999ME1314219OA149900671REMSYN076AAXX  11054 06744 33/// /2508 11075 21208 37934 48421 52001 333 91113 91211;
0314067440999992010011106004+46567+008333FM-12+198099999V0202401N004612200019N0260001N1-00801-01831999999ADDAA124000021AJ101539199999999AL19900091AY111061AY211061GA1011+027001031GF101991999999999999999999GJ100489IA1279KA1999N-01011MA1999999079331MD1510011+9999ME1314219MW1381OA149901181REMSYN124AAXX  11064 06744 31976 12409 11080 21183 37933 48421 55001 73811 333 21101 43153 55008 70000 81359 90768 93100 91123 91217;
0137067440999992010011107004+46567+008333FM-12+198099999V0202101N004119999999N9999999N1-00841-01651999999ADDMA1999999079351MD1210021+9999ME1314249OA149900771REMSYN076AAXX  11074 06744 33/// /2108 11084 21165 37935 48424 52002 333 91115 91210;
0137067440999992010011108004+46567+008333FM-12+198099999V0202501N005719999999N9999999N1-00881-01841999999ADDMA1999999079361MD1219999+9999ME1314269OA149900881REMSYN076AAXX  11084 06744 33/// /2511 11088 21184 37936 48426 52/// 333 91117 91211;
0137067440999992010011109004+46567+008333FM-12+198099999V0202501N005119999999N9999999N1-00711-01841999999ADDMA1999999079371MD1210041+9999ME1314239OA149900881REMSYN076AAXX  11094 06744 33/// /2510 11071 21184 37937 48423 52004 333 91117 91211;
0137067440999992010011110004+46567+008333FM-12+198099999V0202401N003619999999N9999999N1-00641-02021999999ADDMA1999999079401MD1219999+9999ME1314259OA149900771REMSYN076AAXX  11104 06744 33/// /2407 11064 21202 37940 48425 52/// 333 91115 91210;
0137067440999992010011111004+46567+008333FM-12+198099999V0202301N001519999999N9999999N1-00531-02021999999ADDMA1999999079401MD1210041+9999ME1314229OA149900571REMSYN076AAXX  11114 06744 33/// /2303 11053 21202 37940 48422 52004 333 91111 91209;
0185067440999992010011112004+46567+008333FM-12+198099999V0202201N001012200019N0250001N1-00581-01941999999ADDGA1021+030001001GF102991999999999999999999MA1999999079381MD1010011+9999ME1314219OA149901131REMSYN082AAXX  11124 06744 32975 22202 11058 21194 37938 48421 50001 333 82060 91122 91215;
0137067440999992010011113004+46567+008333FM-12+198099999V0202401N003119999999N9999999N1-00581-01851999999ADDMA1999999079361MD1710041+9999ME1314199OA149900511REMSYN076AAXX  11134 06744 33/// /2406 11058 21185 37936 48419 57004 333 91110 91209;
0096067440999992010011114004+46567+008333FM-12+198099999V0202601N003619999999N9999999N1-00631-01941999999ADDMA1999999079381ME1314229REMSYN060AAXX  11144 06744 33/// /2607 11063 21194 37938 48422 5////;
0137067440999992010011115004+46567+008333FM-12+198099999V0203501N001519999999N9999999N1-00681-01731999999ADDMA1999999079411MD1310031+9999ME1314269OA149900571REMSYN076AAXX  11154 06744 33/// /3503 11068 21173 37941 48426 53003 333 91111 91209;
0137067440999992010011116004+46567+008333FM-12+198099999V0201701N001019999999N9999999N1-00801-01201999999ADDMA1999999079421MD1210061+9999ME1314309OA149900361REMSYN076AAXX  11164 06744 33/// /1702 11080 21120 37942 48430 52006 333 91107 91204;
0137067440999992010011117004+46567+008333FM-12+198099999V0202501N002619999999N9999999N1-00811-01581999999ADDMA1999999079461MD1210081+9999ME1314349OA149900411REMSYN076AAXX  11174 06744 33/// /2505 11081 21158 37946 48434 52008 333 91108 91205;
0283067440999992010011118004+46567+008333FM-12+198099999V0202401N002612200019N0150001N1-00871-01801999999ADDAJ101519199999999AL19900091AY111061AY211061GA1031+021001041GF103991999999022501999999IA1279KA1120M-00521MA1999999079491MD1310081+9999ME1314389MW1051OA149900881REMSYN112AAXX  11184 06744 31865 32405 11087 21180 37949 48438 53008 70511 333 11052 43151 83457 90766 93100 91117 91211;
0137067440999992010011119004+46567+008333FM-12+198099999V0202501N004119999999N9999999N1-00921-01711999999ADDMA1999999079511MD1110091+9999ME1314419OA149900511REMSYN076AAXX  11194 06744 33/// /2508 11092 21171 37951 48441 51009 333 91110 91208;
0137067440999992010011120004+46567+008333FM-12+198099999V0202501N003619999999N9999999N1-00891-01621999999ADDMA1999999079531MD1110071+9999ME1314439OA149900571REMSYN076AAXX  11204 06744 33/// /2507 11089 21162 37953 48443 51007 333 91111 91209;
0137067440999992010011121004+46567+008333FM-12+198099999V0202501N004119999999N9999999N1-00911-01421999999ADDMA1999999079551MD1110061+9999ME1314459OA149900571REMSYN076AAXX  11214 06744 33/// /2508 11091 21142 37955 48445 51006 333 91111 91209;
0137067440999992010011122004+46567+008333FM-12+198099999V0202301N002619999999N9999999N1-00761-01261999999ADDMA1999999079541MD1210031+9999ME1314419OA149900571REMSYN076AAXX  11224 06744 33/// /2305 11076 21126 37954 48441 52003 333 91111 91209;
0137067440999992010011123004+46567+008333FM-12+198099999V0202101N003619999999N9999999N1-00711-01211999999ADDMA1999999079541MD1410001+9999ME1314409OA149900671REMSYN076AAXX  11234 06744 33/// /2107 11071 21121 37954 48440 54001 333 91113 91207;
0137067440999992010011200004+46567+008333FM-12+198099999V0202501N003119999999N9999999N1-00771-01251999999ADDMA1999999079531MD1710021+9999ME1314409OA149900671REMSYN076AAXX  12004 06744 33/// /2506 11077 21125 37953 48440 57002 333 91113 91209;
0137067440999992010011201004+46567+008333FM-12+198099999V0202201N003119999999N9999999N1-00771-01041999999ADDMA1999999079521MD1710021+9999ME1314399OA149900671REMSYN076AAXX  12014 06744 33/// /2206 11077 21104 37952 48439 57002 333 91113 91210;
0137067440999992010011202004+46567+008333FM-12+198099999V0201701N005119999999N9999999N1-00671-01081999999ADDMA1999999079511MD1719999+9999ME1314369OA149900721REMSYN076AAXX  12024 06744 33/// /1710 11067 21108 37951 48436 57/// 333 91114 91210;
0137067440999992010011203004+46567+008333FM-12+198099999V0201901N004119999999N9999999N1-00711-01061999999ADDMA1999999079501MD1710031+9999ME1314369OA149900721REMSYN076AAXX  12034 06744 33/// /1908 11071 21106 37950 48436 57003 333 91114 91211;
0137067440999992010011204004+46567+008333FM-12+198099999V0201901N005119999999N9999999N1-00651-01131999999ADDMA1999999079481MD1710041+9999ME1314339OA149900721REMSYN076AAXX  12044 06744 33/// /1910 11065 21113 37948 48433 57004 333 91114 91211;
0137067440999992010011205004+46567+008333FM-12+198099999V0201901N002619999999N9999999N1-00751-01001999999ADDMA1999999079471MD1710041+9999ME1314349OA149900771REMSYN076AAXX  12054 06744 33/// /1905 11075 21100 37947 48434 57004 333 91115 91211;
0333067440999992010011206004+46567+008333FM-12+198099999V0202301N004612200019N0150001N1-00781-01091999999ADDAA124000091AJ101519199999999AL19900091AY121061AY221061GA1031+030001031GF103991999999999999999999GJ102709IA1279KA1999N-00941MA1999999079471MD1710031+9999ME1314349MW1051OA149900771REMSYN124AAXX  12064 06744 31965 32309 11078 21109 37947 48434 57003 70522 333 21094 43151 55045 70000 83360 90768 93100 91115 91211;EQDQ01  00002PRCP24
0137067440999992010011207004+46567+008333FM-12+198099999V0201801N007219999999N9999999N1-00771-01251999999ADDMA1999999079451MD1810031+9999ME1314329OA149900981REMSYN076AAXX  12074 06744 33/// /1814 11077 21125 37945 48432 58003 333 91119 91214;
0137067440999992010011208004+46567+008333FM-12+198099999V0201701N009319999999N9999999N1-00701-01281999999ADDMA1999999079421MD1719999+9999ME1314289OA149901131REMSYN076AAXX  12084 06744 33/// /1718 11070 21128 37942 48428 57/// 333 91122 91218;
0137067440999992010011209004+46567+008333FM-12+198099999V0201901N007219999999N9999999N1-00661-01291999999ADDMA1999999079401MD1710071+9999ME1314259OA149901181REMSYN076AAXX  12094 06744 33/// /1914 11066 21129 37940 48425 57007 333 91123 91219;
0122067440999992010011210004+46567+008333FM-12+198099999V0201601N008719999999N9999999N1+99999+99999999999ADDMA1999999079381MD1710071+9999OA149901181REMSYN070AAXX  12104 06744 33/// /1617 1//// 2//// 37938 57007 333 91123 91219;
0137067440999992010011211004+46567+008333FM-12+198099999V0201701N010319999999N9999999N1-00431-01281999999ADDMA1999999079321MD1710101+9999ME1314129OA149901391REMSYN076AAXX  12114 06744 33/// /1720 11043 21128 37932 48412 57010 333 91127 91220;
0202067440999992010011212004+46567+008333FM-12+198099999V0201501N008712200019N0300001N1-00471-01251999999ADDAA106005191GA1001+999999999GF100991001001999999001001MA1999999079251MD1710151+9999ME1314069OA149901491REMSYN088AAXX  12124 06744 02/80 01517 11047 21125 37925 48406 57015 60051 333 60055 91129 91222;
0137067440999992010011213004+46567+008333FM-12+198099999V0201501N008719999999N9999999N1-00511-01301999999ADDMA1999999079221MD1610161+9999ME1314049OA149901491REMSYN076AAXX  12134 06744 33/// /1517 11051 21130 37922 48404 56016 333 91129 91222;
0096067440999992010011214004+46567+008333FM-12+198099999V0201601N009319999999N9999999N1-00641-01271999999ADDMA1999999079231ME1314089REMSYN060AAXX  12144 06744 33/// /1618 11064 21127 37923 48408 5////;
0137067440999992010011215004+46567+008333FM-12+198099999V0201701N009319999999N9999999N1-00671-01311999999ADDMA1999999079171MD1710081+9999ME1314029OA149901651REMSYN076AAXX  12154 06744 33/// /1718 11067 21131 37917 48402 57008 333 91132 91223;
0137067440999992010011216004+46567+008333FM-12+198099999V0201601N009319999999N9999999N1-00721-01261999999ADDMA1999999079131MD1810091+9999ME1313999OA149901651REMSYN076AAXX  12164 06744 33/// /1618 11072 21126 37913 48399 58009 333 91132 91223;
0137067440999992010011217004+46567+008333FM-12+198099999V0201501N010319999999N9999999N1-00771-01211999999ADDMA1999999079141MD1710091+9999ME1314019OA149901651REMSYN076AAXX  12174 06744 33/// /1520 11077 21121 37914 48401 57009 333 91132 91223;
0259067440999992010011218004+46567+008333FM-12+198099999V0201601N008712200019N0150001N1-00781-01261999999ADDAA112005191AJ101529199999999AL19900091GA1031+060001011GF103991999999999999999999IA1279MA1999999079151MD1510021+9999ME1314039OA149901651REMSYN112AAXX  12184 06744 02965 31617 11078 21126 37915 48403 55002 60052 333 43152 60005 83170 90766 93100 91132 91223;
0137067440999992010011219004+46567+008333FM-12+198099999V0201701N011819999999N9999999N1-00751-01221999999ADDMA1999999079151MD1010021+9999ME1314029OA149901701REMSYN076AAXX  12194 06744 33/// /1723 11075 21122 37915 48402 50002 333 91133 91223;
0137067440999992010011220004+46567+008333FM-12+198099999V0201601N009319999999N9999999N1-00781-01241999999ADDMA1999999079181MD1210041+9999ME1314069OA149901701REMSYN076AAXX  12204 06744 33/// /1618 11078 21124 37918 48406 52004 333 91133 91223;
0137067440999992010011221004+46567+008333FM-12+198099999V0201601N010319999999N9999999N1-00791-01321999999ADDMA1999999079161MD1010011+9999ME1314049OA149901701REMSYN076AAXX  12214 06744 33/// /1620 11079 21132 37916 48404 50001 333 91133 91223;
0137067440999992010011222004+46567+008333FM-12+198099999V0201701N008719999999N9999999N1-00811-01381999999ADDMA1999999079151MD1410001+9999ME1314039OA149901391REMSYN076AAXX  12224 06744 33/// /1717 11081 21138 37915 48403 58000 333 91127 91220;
0137067440999992010011223004+46567+008333FM-12+198099999V0201701N007719999999N9999999N1-00791-01461999999ADDMA1999999079041MD1810141+9999ME1313929OA149901341REMSYN076AAXX  12234 06744 33/// /1715 11079 21146 37904 48392 58014 333 91126 91219;
0137067440999992010011300004+46567+008333FM-12+198099999V0201701N007719999999N9999999N1-00781-01211999999ADDMA1999999079121MD1510041+9999ME1314009OA149901701REMSYN076AAXX  13004 06744 33/// /1715 11078 21121 37912 48400 55004 333 91133 91223;
0137067440999992010011301004+46567+008333FM-12+198099999V0201701N005719999999N9999999N1-00761-01261999999ADDMA1999999079091MD1710061+9999ME1313969OA149901391REMSYN076AAXX  13014 06744 33/// /1711 11076 21126 37909 48396 57006 333 91127 91216;
0137067440999992010011302004+46567+008333FM-12+198099999V0201701N008219999999N9999999N1-00731-01291999999ADDMA1999999079021MD1819999+9999ME1313899OA149901081REMSYN076AAXX  13024 06744 33/// /1716 11073 21129 37902 48389 58/// 333 91121 91216;
0137067440999992010011303004+46567+008333FM-12+198099999V0201701N007719999999N9999999N1-00691-01301999999ADDMA1999999078961MD1719999+9999ME1313829OA149901391REMSYN076AAXX  13034 06744 33/// /1715 11069 21130 37896 48382 57/// 333 91127 91219;
0137067440999992010011304004+46567+008333FM-12+198099999V0201601N007219999999N9999999N1-00701-01281999999ADDMA1999999078951MD1710141+9999ME1313819OA149901131REMSYN076AAXX  13044 06744 33/// /1614 11070 21128 37895 48381 57014 333 91122 91217;
0137067440999992010011305004+46567+008333FM-12+198099999V0201801N009319999999N9999999N1-00681-01301999999ADDMA1999999078921MD1710101+9999ME1313779OA149901241REMSYN076AAXX  13054 06744 33/// /1818 11068 21130 37892 48377 57010 333 91124 91219;
0296067440999992010011306004+46567+008333FM-12+198099999V0201401N006710210019N0150001N1-00731-01251999999ADDAA124004891AJ101529199999999AL14200491AL29900091GA1071+021001041GF107991999999022501999999GJ102649IA1279KA1999N-00831MA1999999078941MD1510021+9999ME1313819OA149901701REMSYN118AAXX  13064 06744 32865 71413 11073 21125 37894 48381 55002 333 21083 43152 55044 70047 87457 90768 93100 91133 91223;
0137067440999992010011307004+46567+008333FM-12+198099999V0201601N006719999999N9999999N1-00711-01211999999ADDMA1999999078981MD1210031+9999ME1313849OA149901181REMSYN076AAXX  13074 06744 33/// /1613 11071 21121 37898 48384 52003 333 91123 91217;
0137067440999992010011308004+46567+008333FM-12+198099999V0201601N007219999999N9999999N1-00691-01171999999ADDMA1999999079011MD1110091+9999ME1313879OA149901081REMSYN076AAXX  13084 06744 33/// /1614 11069 21117 37901 48387 51009 333 91121 91216;
0137067440999992010011309004+46567+008333FM-12+198099999V0201601N006719999999N9999999N1-00661-01111999999ADDMA1999999079041MD1310101+9999ME1313899OA149901241REMSYN076AAXX  13094 06744 33/// /1613 11066 21111 37904 48389 53010 333 91124 91219;
0137067440999992010011310004+46567+008333FM-12+198099999V0201501N006719999999N9999999N1-00651-01101999999ADDMA1999999079071MD1110091+9999ME1313929OA149901031REMSYN076AAXX  13104 06744 33/// /1513 11065 21110 37907 48392 51009 333 91120 91216;
0137067440999992010011311004+46567+008333FM-12+198099999V0201701N007719999999N9999999N1-00591-01151999999ADDMA1999999079061MD1210051+9999ME1313899OA149901031REMSYN076AAXX  13114 06744 33/// /1715 11059 21115 37906 48389 52005 333 91120 91216;
0213067440999992010011312004+46567+008333FM-12+198099999V0201501N008210051019N0150001N1-00591-01111999999ADDAY121061AY221061GA1081+005101071GF108991999999004501999999MA1999999079041MD1010001+9999ME1313879MW1101OA149901241REMSYN088AAXX  13124 06744 31465 81516 11059 21111 37904 48387 50000 71022 333 88717 91124 91219;
0137067440999992010011313004+46567+008333FM-12+198099999V0201501N008719999999N9999999N1-00611-01051999999ADDMA1999999079031MD1710041+9999ME1313879OA149901131REMSYN076AAXX  13134 06744 33/// /1517 11061 21105 37903 48387 57004 333 91122 91217;
0137067440999992010011314004+46567+008333FM-12+198099999V0201501N008719999999N9999999N1-00621-01001999999ADDMA1999999079041MD1719999+9999ME1313889OA149901131REMSYN076AAXX  13144 06744 33/// /1517 11062 21100 37904 48388 57/// 333 91122 91217;
0137067440999992010011315004+46567+008333FM-12+198099999V0201701N007719999999N9999999N1-00591-00971999999ADDMA1999999079051MD1310011+9999ME1313889OA149901181REMSYN076AAXX  13154 06744 33/// /1715 11059 21097 37905 48388 53001 333 91123 91217;
0137067440999992010011316004+46567+008333FM-12+198099999V0201601N006719999999N9999999N1-00601-00941999999ADDMA1999999079071MD1210041+9999ME1313919OA149901181REMSYN076AAXX  13164 06744 33/// /1613 11060 21094 37907 48391 52004 333 91123 91217;
0137067440999992010011317004+46567+008333FM-12+198099999V0201701N006219999999N9999999N1-00571-00921999999ADDMA1999999079121MD1210081+9999ME1313959OA149901031REMSYN076AAXX  13174 06744 33/// /1712 11057 21092 37912 48395 52008 333 91120 91215;
0283067440999992010011318004+46567+008333FM-12+198099999V0201901N004610051019N0020001N1-00571-00891999999ADDAJ101519199999999AL19900091AY121061AY221061GA1081+005101071GF108991999999004501999999IA1279KA1120M-00501MA1999999079171MD1310121+9999ME1314009MW1101OA149901181REMSYN112AAXX  13184 06744 31420 81909 11057 21089 37917 48400 53012 71022 333 11050 43151 88717 90766 93100 91123 91217;
0137067440999992010011319004+46567+008333FM-12+198099999V0201601N004619999999N9999999N1-00511-00851999999ADDMA1999999079191MD1110121+9999ME1314019OA149900771REMSYN076AAXX  13194 06744 33/// /1609 11051 21085 37919 48401 51012 333 91115 91212;
0096067440999992010011400004+46567+008333FM-12+198099999V0201501N006719999999N9999999N1-00551-00911999999ADDMA1999999079121ME1313959REMSYN060AAXX  14004 06744 43/// /1513 11055 21091 37912 48395 5////;
0137067440999992010011401004+46567+008333FM-12+198099999V0201701N008719999999N9999999N1-00671-01071999999ADDMA1999999079081MD1719999+9999ME1313939OA149901181REMSYN076AAXX  14014 06744 33/// /1717 11067 21107 37908 48393 57/// 333 91123 91218;
0137067440999992010011402004+46567+008333FM-12+198099999V0201901N005719999999N9999999N1-00781-01361999999ADDMA1999999079061MD1719999+9999ME1313949OA149901241REMSYN076AAXX  14024 06744 33/// /1911 11078 21136 37906 48394 57/// 333 91124 91220;
0096067440999992010011403004+46567+008333FM-12+198099999V0202101N005119999999N9999999N1-00691-01321999999ADDMA1999999079031ME1313899REMSYN060AAXX  14034 06744 33/// /2110 11069 21132 37903 48389 5////;
0137067440999992010011404004+46567+008333FM-12+198099999V0201601N005719999999N9999999N1-00631-01311999999ADDMA1999999079041MD1710041+9999ME1313889OA149901081REMSYN076AAXX  14044 06744 33/// /1611 11063 21131 37904 48388 57004 333 91121 91212;
0137067440999992010011405004+46567+008333FM-12+198099999V0201901N005119999999N9999999N1-00731-01461999999ADDMA1999999079031MD1710031+9999ME1313909OA149901081REMSYN076AAXX  14054 06744 33/// /1910 11073 21146 37903 48390 57003 333 91121 91212;
0327067440999992010011406004+46567+008333FM-12+198099999V0201901N005712200019N0150001N1-00771-01421999999ADDAA124000091AJ101519199999999AL19900091AY111061AY211061GA1001+999999999GF100991001001999999001001GJ100009IA1279KA1999N-00821MA1999999079011MD1810021+9999ME1313889MW1051OA149901241REMSYN118AAXX  14064 06744 31/65 01911 11077 21142 37901 48388 58002 70511 333 21082 43151 55000 70000 90768 93100 91124 91220;EQDQ01  00002PRCP24
0137067440999992010011407004+46567+008333FM-12+198099999V0201601N007219999999N9999999N1-00591-01231999999ADDMA1999999079031MD1510011+9999ME1313869OA149901031REMSYN076AAXX  14074 06744 33/// /1614 11059 21123 37903 48386 55001 333 91120 91214;
0137067440999992010011408004+46567+008333FM-12+198099999V0201601N008219999999N9999999N1-00581-01291999999ADDMA1999999079061MD1219999+9999ME1313899OA149900981REMSYN076AAXX  14084 06744 33/// /1616 11058 21129 37906 48389 52/// 333 91119 91216;
0137067440999992010011409004+46567+008333FM-12+198099999V0201601N007719999999N9999999N1-00531-01201999999ADDMA1999999079081MD1210071+9999ME1313909OA149901081REMSYN076AAXX  14094 06744 33/// /1615 11053 21120 37908 48390 52007 333 91121 91216;
0137067440999992010011410004+46567+008333FM-12+198099999V0201501N007219999999N9999999N1-00491-01241999999ADDMA1999999079091MD1210061+9999ME1313909OA149901031REMSYN076AAXX  14104 06744 33/// /1514 11049 21124 37909 48390 52006 333 91120 91215;
0137067440999992010011411004+46567+008333FM-12+198099999V0201501N007219999999N9999999N1-00501-01201999999ADDMA1999999079101MD1210041+9999ME1313929OA149901031REMSYN076AAXX  14114 06744 33/// /1514 11050 21120 37910 48392 52004 333 91120 91215;
0185067440999992010011412004+46567+008333FM-12+198099999V0201601N007212200019N0260001N1-00461-01251999999ADDGA1031+021001031GF103991999999022501999999MA1999999079031MD1810051+9999ME1313849OA149901241REMSYN082AAXX  14124 06744 32876 31614 11046 21125 37903 48384 58005 333 83357 91124 91220;
0137067440999992010011413004+46567+008333FM-12+198099999V0201601N007219999999N9999999N1-00471-01171999999ADDMA1999999079051MD1710041+9999ME1313869OA149901081REMSYN076AAXX  14134 06744 33/// /1614 11047 21117 37905 48386 57004 333 91121 91216;
0137067440999992010011414004+46567+008333FM-12+198099999V0201601N007219999999N9999999N1-00481-01151999999ADDMA1999999079071MD1510031+9999ME1313889OA149901131REMSYN076AAXX  14144 06744 33/// /1614 11048 21115 37907 48388 55003 333 91122 91216;
0137067440999992010011415004+46567+008333FM-12+198099999V0201701N009819999999N9999999N1-00501-01131999999ADDMA1999999079071MD1210041+9999ME1313899OA149901181REMSYN076AAXX  14154 06744 33/// /1719 11050 21113 37907 48389 52004 333 91123 91219;
0137067440999992010011416004+46567+008333FM-12+198099999V0201701N009819999999N9999999N1-00501-01171999999ADDMA1999999079051MD1010001+9999ME1313879OA149901441REMSYN076AAXX  14164 06744 33/// /1719 11050 21117 37905 48387 50000 333 91128 91220;
0156067440999992010011417004+46567+008333FM-12+198099999V0201601N006719999999N9999999N1-00491-01191999999ADDMA1999999079071MD1410001+9999ME1313889OA149901441REMSYN076AAXX  14174 06744 33/// /1613 11049 21119 37907 48388 52000 333 91128 91220;EQDQ01+000022APCTEN
0255067440999992010011418004+46567+008333FM-12+198099999V0201801N008710021019N0180001N1-00371-01211999999ADDAJ101509199999999AL19900091GA1061+002101041GF106991999999002501999999IA1279KA1120M-00401MA1999999079091MD1210021+9999ME1313889OA149901441REMSYN106AAXX  14184 06744 32368 61817 11037 21121 37909 48388 52002 333 11040 43150 86407 90766 93100 91128 91220;
0137067440999992010011419004+46567+008333FM-12+198099999V0201701N011319999999N9999999N1-00391-01171999999ADDMA1999999079151MD1210101+9999ME1313949OA149901391REMSYN076AAXX  14194 06744 33/// /1722 11039 21117 37915 48394 52010 333 91127 91223;
0137067440999992010011420004+46567+008333FM-12+198099999V0201701N007719999999N9999999N1-00361-01201999999ADDMA1999999079181MD1210111+9999ME1313979OA149901441REMSYN076AAXX  14204 06744 33/// /1715 11036 21120 37918 48397 52011 333 91128 91223;
0137067440999992010011421004+46567+008333FM-12+198099999V0201401N009319999999N9999999N1-00471-01161999999ADDMA1999999079221MD1210131+9999ME1314039OA149901441REMSYN076AAXX  14214 06744 33/// /1418 11047 21116 37922 48403 52013 333 91128 91223;
0137067440999992010011422004+46567+008333FM-12+198099999V0201501N008219999999N9999999N1-00511-01161999999ADDMA1999999079301MD1310151+9999ME1314129OA149901441REMSYN076AAXX  14224 06744 33/// /1516 11051 21116 37930 48412 53015 333 91128 91218;
0137067440999992010011423004+46567+008333FM-12+198099999V0201701N008719999999N9999999N1-00531-01171999999ADDMA1999999079341MD1210161+9999ME1314169OA149901441REMSYN076AAXX  14234 06744 33/// /1717 11053 21117 37934 48416 52016 333 91128 91219;
0137067440999992010011500004+46567+008333FM-12+198099999V0201801N008219999999N9999999N1-00511-01191999999ADDMA1999999079371MD1210151+9999ME1314199OA149901441REMSYN076AAXX  15004 06744 33/// /1816 11051 21119 37937 48419 52015 333 91128 91223;
0137067440999992010011501004+46567+008333FM-12+198099999V0202501N005119999999N9999999N1-00531-01401999999ADDMA1999999079421MD1210121+9999ME1314249OA149901131REMSYN076AAXX  15014 06744 33/// /2510 11053 21140 37942 48424 52012 333 91122 91218;
0137067440999992010011502004+46567+008333FM-12+198099999V0203301N000519999999N9999999N1-00361-01321999999ADDMA1999999079461MD1110121+9999ME1314259OA149901031REMSYN076AAXX  15024 06744 33/// /3301 11036 21132 37946 48425 51012 333 91120 91216;
0096067440999992010011503004+46567+008333FM-12+198099999V0201401N001019999999N9999999N1-00481-01311999999ADDMA1999999079561ME1314379REMSYN060AAXX  15034 06744 33/// /1402 11048 21131 37956 48437 5////;
0137067440999992010011504004+46567+008333FM-12+198099999V0202301N003119999999N9999999N1-00591-01331999999ADDMA1999999079611MD1210191+9999ME1314459OA149900671REMSYN076AAXX  15044 06744 33/// /2306 11059 21133 37961 48445 52019 333 91113 91208;
0137067440999992010011505004+46567+008333FM-12+198099999V0202501N004119999999N9999999N1-00621-01471999999ADDMA1999999079671MD1110211+9999ME1314519OA149900671REMSYN076AAXX  15054 06744 33/// /2508 11062 21147 37967 48451 51021 333 91113 91211;
0305067440999992010011506004+46567+008333FM-12+198099999V0202501N002612200019N0180001N1-00641-01511999999ADDAA124000091AJ101509199999999AL19900091GA1021+030001031GF102991999999999999999999GJ101689IA1279KA1999N-00711MA1999999079761MD1310201+9999ME1314619OA149901441REMSYN118AAXX  15064 06744 32968 22505 11064 21151 37976 48461 53020 333 21071 43150 55028 70000 82360 90768 93100 91128 91223;EQDQ01  00002PRCP24
0137067440999992010011507004+46567+008333FM-12+198099999V0202301N002119999999N9999999N1-00601-01471999999ADDMA1999999079851MD1310241+9999ME1314699OA149900461REMSYN076AAXX  15074 06744 33/// /2304 11060 21147 37985 48469 53024 333 91109 91207;
0137067440999992010011508004+46567+008333FM-12+198099999V0202501N005119999999N9999999N1-00651-01511999999ADDMA1999999079911MD1119999+9999ME1314769OA149900621REMSYN076AAXX  15084 06744 33/// /2510 11065 21151 37991 48476 51/// 333 91112 91211;
0137067440999992010011509004+46567+008333FM-12+198099999V0202301N001019999999N9999999N1-00571-01461999999ADDMA1999999080001MD1110241+9999ME1314839OA149900671REMSYN076AAXX  15094 06744 33/// /2302 11057 21146 38000 48483 51024 333 91113 91211;
0137067440999992010011510004+46567+008333FM-12+198099999V0202101N003619999999N9999999N1-00561-01411999999ADDMA1999999080071MD1210221+9999ME1314909OA149900671REMSYN076AAXX  15104 06744 33/// /2107 11056 21141 38007 48490 52022 333 91113 91211;
0137067440999992010011511004+46567+008333FM-12+198099999V0201701N006219999999N9999999N1-00481-01261999999ADDMA1999999080081MD1210171+9999ME1314899OA149900881REMSYN076AAXX  15114 06744 33/// /1712 11048 21126 38008 48489 52017 333 91117 91213;
0185067440999992010011512004+46567+008333FM-12+198099999V0202501N003112200019N0250001N1-00481-01501999999ADDGA1031+051001001GF103991999999999999999999MA1999999080131MD1210131+9999ME1314949OA149901031REMSYN082AAXX  15124 06744 32975 32506 11048 21150 38013 48494 52013 333 83067 91120 91216;
0137067440999992010011513004+46567+008333FM-12+198099999V0202401N000519999999N9999999N1-00431-01471999999ADDMA1999999080151MD1210081+9999ME1314959OA149900881REMSYN076AAXX  15134 06744 33/// /2401 11043 21147 38015 48495 52008 333 91117 91213;
0137067440999992010011514004+46567+008333FM-12+198099999V0203401N002119999999N9999999N1-00401-01331999999ADDMA1999999080201MD1210121+9999ME1315009OA149900461REMSYN076AAXX  15144 06744 33/// /3404 11040 21133 38020 48500 52012 333 91109 91207;
0137067440999992010011515004+46567+008333FM-12+198099999V0203301N004119999999N9999999N1-00501-01281999999ADDMA1999999080271MD1210141+9999ME1315099OA149900881REMSYN076AAXX  15154 06744 33/// /3308 11050 21128 38027 48509 52014 333 91117 91213;
0137067440999992010011516004+46567+008333FM-12+198099999V0202801N002619999999N9999999N1-00511-01411999999ADDMA1999999080311MD1210161+9999ME1315139OA149900571REMSYN076AAXX  15164 06744 33/// /2805 11051 21141 38031 48513 52016 333 91111 91209;
0137067440999992010011517004+46567+008333FM-12+198099999V0202601N005119999999N9999999N1-00601-01551999999ADDMA1999999080361MD1110161+9999ME1315199OA149900571REMSYN076AAXX  15174 06744 33/// /2610 11060 21155 38036 48519 51016 333 91111 91210;
0255067440999992010011518004+46567+008333FM-12+198099999V0202401N003112200019N0180001N1-00631-01561999999ADDAJ101499199999999AL19900091GA1031+060001011GF103991999999999999999999IA1279KA1120M-00361MA1999999080381MD1110111+9999ME1315229OA149900881REMSYN106AAXX  15184 06744 32968 32406 11063 21156 38038 48522 51011 333 11036 43149 83170 90766 93100 91117 91213;
0137067440999992010011519004+46567+008333FM-12+198099999V0202301N005119999999N9999999N1-00661-01711999999ADDMA1999999080381MD1210071+9999ME1315229OA149900931REMSYN076AAXX  15194 06744 33/// /2310 11066 21171 38038 48522 52007 333 91118 91211;
0137067440999992010011520004+46567+008333FM-12+198099999V0201801N008719999999N9999999N1-00541-01611999999ADDMA1999999080381MD1010021+9999ME1315209OA149901031REMSYN076AAXX  15204 06744 33/// /1817 11054 21161 38038 48520 50002 333 91120 91217;
0137067440999992010011521004+46567+008333FM-12+198099999V0201901N008219999999N9999999N1-00581-01861999999ADDMA1999999080381MD1410001+9999ME1315219OA149901181REMSYN076AAXX  15214 06744 33/// /1916 11058 21186 38038 48521 58000 333 91123 91217;
0137067440999992010011522004+46567+008333FM-12+198099999V0202301N004619999999N9999999N1-00631-02011999999ADDMA1999999080401MD1310021+9999ME1315249OA149901181REMSYN076AAXX  15224 06744 33/// /2309 11063 21201 38040 48524 53002 333 91123 91217;
0137067440999992010011523004+46567+008333FM-12+198099999V0202101N005119999999N9999999N1-00541-01871999999ADDMA1999999080411MD1210031+9999ME1315239OA149901081REMSYN076AAXX  15234 06744 33/// /2110 11054 21187 38041 48523 52003 333 91121 91215;
0137067440999992010011600004+46567+008333FM-12+198099999V0202201N004619999999N9999999N1-00451-01801999999ADDMA1999999080401MD1010021+9999ME1315219OA149901181REMSYN076AAXX  16004 06744 33/// /2209 11045 21180 38040 48521 50002 333 91123 91217;
0137067440999992010011601004+46567+008333FM-12+198099999V0202401N005119999999N9999999N1-00551-01701999999ADDMA1999999080381MD1710021+9999ME1315209OA149901031REMSYN076AAXX  16014 06744 33/// /2410 11055 21170 38038 48520 57002 333 91120 91214;
0137067440999992010011602004+46567+008333FM-12+198099999V0202001N003119999999N9999999N1-00441-01851999999ADDMA1999999080371MD1710041+9999ME1315179OA149900881REMSYN076AAXX  16024 06744 33/// /2006 11044 21185 38037 48517 57004 333 91117 91212;
0137067440999992010011603004+46567+008333FM-12+198099999V0201601N007719999999N9999999N1-00471-01881999999ADDMA1999999080371MD1719999+9999ME1315189OA149901081REMSYN076AAXX  16034 06744 33/// /1615 11047 21188 38037 48518 57/// 333 91121 91215;
0137067440999992010011604004+46567+008333FM-12+198099999V0201601N009819999999N9999999N1-00401-01801999999ADDMA1999999080371MD1710011+9999ME1315179OA149901291REMSYN076AAXX  16044 06744 33/// /1619 11040 21180 38037 48517 57001 333 91125 91221;
0137067440999992010011605004+46567+008333FM-12+198099999V0201801N008219999999N9999999N1-00531-01851999999ADDMA1999999080331MD1710041+9999ME1315159OA149901291REMSYN076AAXX  16054 06744 33/// /1816 11053 21185 38033 48515 57004 333 91125 91221;
0299067440999992010011606004+46567+008333FM-12+198099999V0201801N011312200019N0180001N1-00411-01871999999ADDAA124000091AJ101499199999999AL19900091GA1001+999999999GF100991001001999999001001GJ101989IA1279KA1999N-00821MA1999999080311MD1710061+9999ME1315119OA149901391REMSYN112AAXX  16064 06744 32/68 01822 11041 21187 38031 48511 57006 333 21082 43149 55033 70000 90768 93100 91127 91222;EQDQ01  00002PRCP24
0137067440999992010011607004+46567+008333FM-12+198099999V0201801N008719999999N9999999N1-00381-01731999999ADDMA1999999080311MD1710061+9999ME1315119OA149901441REMSYN076AAXX  16074 06744 33/// /1817 11038 21173 38031 48511 57006 333 91128 91223;
0137067440999992010011608004+46567+008333FM-12+198099999V0201601N009319999999N9999999N1-00391-01621999999ADDMA1999999080301MD1710031+9999ME1315109OA149901441REMSYN076AAXX  16084 06744 33/// /1618 11039 21162 38030 48510 57003 333 91128 91223;
0137067440999992010011609004+46567+008333FM-12+198099999V0201901N006219999999N9999999N1-00611-01861999999ADDMA1999999080271MD1710041+9999ME1315109OA149901441REMSYN076AAXX  16094 06744 33/// /1912 11061 21186 38027 48510 57004 333 91128 91223;
0137067440999992010011610004+46567+008333FM-12+198099999V0201801N010319999999N9999999N1-00111-01701999999ADDMA1999999080221MD1710091+9999ME1314979OA149901341REMSYN076AAXX  16104 06744 33/// /1820 11011 21170 38022 48497 57009 333 91126 91220;
0137067440999992010011611004+46567+008333FM-12+198099999V0201501N010819999999N9999999N1-00061-01571999999ADDMA1999999080191MD1710111+9999ME1314939OA149901341REMSYN076AAXX  16114 06744 33/// /1521 11006 21157 38019 48493 57011 333 91126 91221;
0207067440999992010011612004+46567+008333FM-12+198099999V0201701N009810900019N0300001N1-00071-01531999999ADDGA1031+081001011GA2031+090001001GF106991999999999999999999MA1999999080171MD1710101+9999ME1314919OA149901441REMSYN088AAXX  16124 06744 32980 61719 11007 21153 38017 48491 57010 333 83177 83080 91128 91223;
0137067440999992010011613004+46567+008333FM-12+198099999V0201701N010319999999N9999999N1+00051-01901999999ADDMA1999999080101MD1710121+9999ME1314829OA149901441REMSYN076AAXX  16134 06744 33/// /1720 10005 21190 38010 48482 57012 333 91128 91222;
0137067440999992010011614004+46567+008333FM-12+198099999V0201801N010819999999N9999999N1+00101-02041999999ADDMA1999999080051MD1719999+9999ME1314769OA149901441REMSYN076AAXX  16144 06744 33/// /1821 10010 21204 38005 48476 57/// 333 91128 91222;
0137067440999992010011615004+46567+008333FM-12+198099999V0201701N009319999999N9999999N1+00131-02071999999ADDMA1999999080041MD1710131+9999ME1314749OA149901441REMSYN076AAXX  16154 06744 33/// /1718 10013 21207 38004 48474 57013 333 91128 91222;
0137067440999992010011616004+46567+008333FM-12+198099999V0201601N010319999999N9999999N1+00091-01771999999ADDMA1999999080021MD1710081+9999ME1314739OA149901341REMSYN076AAXX  16164 06744 33/// /1620 10009 21177 38002 48473 57008 333 91126 91221;
0137067440999992010011617004+46567+008333FM-12+198099999V0201501N008719999999N9999999N1+00051-01641999999ADDMA1999999080011MD1710041+9999ME1314739OA149901341REMSYN076AAXX  16174 06744 33/// /1517 10005 21164 38001 48473 57004 333 91126 91221;
0283067440999992010011618004+46567+008333FM-12+198099999V0201501N010310300019N0150001N1+00051-01711999999ADDAJ101469199999999AL19900091AY111061AY211061GA1081+030001041GF108991999999999999999999IA1279KA1120M+00151MA1999999080021MD1510021+9999ME1314749MW1051OA149901441REMSYN112AAXX  16184 06744 31965 81520 10005 21171 38002 48474 55002 70511 333 10015 43146 88460 90766 93100 91128 91223;
0156067440999992010011619004+46567+008333FM-12+198099999V0201501N011319999999N9999999N1-00031-01591999999ADDMA1999999080021MD1410001+9999ME1314759OA149901491REMSYN076AAXX  16194 06744 33/// /1522 11003 21159 38002 48475 52000 333 91129 91222;EQDQ01+000022APCTEN
0137067440999992010011620004+46567+008333FM-12+198099999V0201501N007219999999N9999999N1-00011-01551999999ADDMA1999999080051MD1210041+9999ME1314789OA149901491REMSYN076AAXX  16204 06744 33/// /1514 11001 21155 38005 48478 52004 333 91129 91222;
0137067440999992010011621004+46567+008333FM-12+198099999V0201701N010819999999N9999999N1-00121-01371999999ADDMA1999999079971MD1810051+9999ME1314729OA149901491REMSYN076AAXX  16214 06744 33/// /1721 11012 21137 37997 48472 58005 333 91129 91222;
0137067440999992010011622004+46567+008333FM-12+198099999V0201701N012919999999N9999999N1-00311-00911999999ADDMA1999999080001MD1710021+9999ME1314789OA149901751REMSYN076AAXX  16224 06744 33/// /1725 11031 21091 38000 48478 57002 333 91134 91226;
0137067440999992010011623004+46567+008333FM-12+198099999V0201401N009819999999N9999999N1-00481-00741999999ADDMA1999999079991MD1710061+9999ME1314809OA149901751REMSYN076AAXX  16234 06744 33/// /1419 11048 21074 37999 48480 57006 333 91134 91226;
0137067440999992010011700004+46567+008333FM-12+198099999V0201601N008719999999N9999999N1-00451-00741999999ADDMA1999999080001MD1010031+9999ME1314819OA149901751REMSYN076AAXX  17004 06744 33/// /1617 11045 21074 38000 48481 50003 333 91134 91226;
0139067440999992010011701004+46567+008333FM-12+198099999V0201601N008719999999N9999999N1+99999+99999999999ADDAA101000021MA1999999080021MD1310021+9999OA149901441REMSYN076AAXX  17014 06744 23/// /1617 1//// 2//// 38002 53002 333 69915 91128 91221;
0122067440999992010011702004+46567+008333FM-12+198099999V0201501N009819999999N9999999N1+99999+99999999999ADDMA1999999079991MD1019999+9999OA149901291REMSYN070AAXX  17024 06744 33/// /1519 1//// 2//// 37999 50/// 333 91125 91220;
0081067440999992010011703004+46567+008333FM-12+198099999V0201501N009319999999N9999999N1+99999+99999999999ADDMA1999999079941REMSYN054AAXX  17034 06744 43/// /1518 1//// 2//// 37994 5////;
0122067440999992010011704004+46567+008333FM-12+198099999V0201701N003619999999N9999999N1+99999+99999999999ADDMA1999999079921MD1710101+9999OA149901541REMSYN070AAXX  17044 06744 33/// /1707 1//// 2//// 37992 57010 333 91130 91219;
0122067440999992010011705004+46567+008333FM-12+198099999V0201701N005719999999N9999999N1+99999+99999999999ADDMA1999999079911MD1519999+9999OA149901541REMSYN070AAXX  17054 06744 33/// /1711 1//// 2//// 37991 55/// 333 91130 91219;
0322067440999992010011706004+46567+008333FM-12+198099999V0201901N002610003019N0020001N1+99999+99999999999ADDAA112000592AA224000092AJ101489199999999AL19900091AY121061AY221061GA1071+000301071GF107991999999000251999999GJ101989IA1279MA1999999079931MD1210011+9999MW1101OA149901751REMSYN124AAXX  17064 06744 01020 71905 1//// 2//// 37993 52001 69942 71022 333 43148 55033 69935 70001 87701 90768 93100 91134 91226;EQDQ01  00002PRCP24
