0137067450999992010010100004+46500+008317FM-12+1345LSMC V0200801N001019999999N9999999N1-00241-00241999999ADDMA1999999084221MD1810131+9999ME1312749OA149900261REMSYN076AAXX  01004 06745 33/// /0802 11024 21024 38422 48274 58013 333 91105 91203;
0137067450999992010010101004+46500+008317FM-12+1345LSMC V0201001N000519999999N9999999N1-00321-00321999999ADDMA1999999084181MD1610141+9999ME1312719OA149900151REMSYN076AAXX  01014 06745 33/// /1001 11032 21032 38418 48271 56014 333 91103 91202;
0137067450999992010010102004+46500+008317FM-12+1345LSMC V0209999C000019999999N9999999N1-00311-00311999999ADDMA1999999084131MD1619999+9999ME1312669OA149900151REMSYN076AAXX  01024 06745 33/// /0000 11031 21031 38413 48266 56/// 333 91103 91202;
0096067450999992010010103004+46500+008317FM-12+1345LSMC V0200501N001519999999N9999999N1-00401-00401999999ADDMA1999999084081ME1312619REMSYN060AAXX  01034 06745 43/// /0503 11040 21040 38408 48261 5////;
0096067450999992010010104004+46500+008317FM-12+1345LSMC V0200801N001019999999N9999999N1-00481-00481999999ADDMA1999999084041ME1312589REMSYN060AAXX  01044 06745 33/// /0802 11048 21048 38404 48258 5////;
0137067450999992010010105004+46500+008317FM-12+1345LSMC V0200401N000519999999N9999999N1-00571-00571999999ADDMA1999999083991MD1710141+9999ME1312539OA149900211REMSYN076AAXX  01054 06745 33/// /0401 11057 21057 38399 48253 57014 333 91104 91203;
0215067450999992010010106004+46500+008317FM-12+1345LSMC V0200501N001019999999N9999999N1-00571-00571999999ADDAA124005391AL12400591GJ100009IA2999-00909KA1999N-00591MA1999999083941MD1710141+9999ME1312499OA149900261REMSYN100AAXX  01064 06745 33/// /0502 11057 21057 38394 48249 57014 333 21059 3/109 55000 70054 91105 91204;
0137067450999992010010107004+46500+008317FM-12+1345LSMC V0202801N000519999999N9999999N1-00661-00661999999ADDMA1999999083951MD1710091+9999ME1312509OA149900151REMSYN076AAXX  01074 06745 33/// /2801 11066 21066 38395 48250 57009 333 91103 91203;
0137067450999992010010108004+46500+008317FM-12+1345LSMC V0200301N000519999999N9999999N1-00651-00651999999ADDMA1999999084041MD1310051+9999ME1312589OA149900261REMSYN076AAXX  01084 06745 33/// /0301 11065 21065 38404 48258 53005 333 91105 91204;
0137067450999992010010109004+46500+008317FM-12+1345LSMC V0200801N000519999999N9999999N1-00561-00561999999ADDMA1999999084051MD1310111+9999ME1312599OA149900261REMSYN076AAXX  01094 06745 33/// /0801 11056 21056 38405 48259 53011 333 91105 91204;
0137067450999992010010110004+46500+008317FM-12+1345LSMC V0200501N001019999999N9999999N1-00551-00551999999ADDMA1999999084071MD1110121+9999ME1312619OA149900151REMSYN076AAXX  01104 06745 33/// /0502 11055 21055 38407 48261 51012 333 91103 91202;
0137067450999992010010111004+46500+008317FM-12+1345LSMC V0202601N000519999999N9999999N1-00491-00491999999ADDMA1999999084051MD1010011+9999ME1312599OA149900101REMSYN076AAXX  01114 06745 33/// /2601 11049 21049 38405 48259 50001 333 91102 91202;
0185067450999992010010112004+46500+008317FM-12+1345LSMC V0200801N000510102019N0450001N1-00321-00321999999ADDGA1081+010201071GF108991999999012501999999MA1999999084071MD1210021+9999ME1312609OA149900261REMSYN082AAXX  01124 06745 32683 80801 11032 21032 38407 48260 52002 333 88734 91105 91204;
0156067450999992010010113004+46500+008317FM-12+1345LSMC V0209999C000019999999N9999999N1-00281-00281999999ADDMA1999999084071MD1410001+9999ME1312609OA149900211REMSYN076AAXX  01134 06745 33/// /0000 11028 21028 38407 48260 53000 333 91104 91203;EQDQ01+000032APCTEN
0137067450999992010010114004+46500+008317FM-12+1345LSMC V0202401N001019999999N9999999N1-00231-00231999999ADDMA1999999084131MD1319999+9999ME1312669OA149900151REMSYN076AAXX  01144 06745 33/// /2402 11023 21023 38413 48266 53/// 333 91103 91202;
0185067450999992010010115004+46500+008317FM-12+1345LSMC V0202101N000510102019N0450001N1-00181-00181999999ADDGA1081+010201071GF108991999999012501999999MA1999999084211MD1310141+9999ME1312739OA149900211REMSYN082AAXX  01154 06745 32683 82101 11018 21018 38421 48273 53014 333 88734 91104 91203;
0137067450999992010010116004+46500+008317FM-12+1345LSMC V0200401N001019999999N9999999N1-00141-00141999999ADDMA1999999084281MD1310211+9999ME1312799OA149900151REMSYN076AAXX  01164 06745 33/// /0402 11014 21014 38428 48279 53021 333 91103 91202;
0137067450999992010010117004+46500+008317FM-12+1345LSMC V0209999C000019999999N9999999N1-00151-00151999999ADDMA1999999084381MD1210251+9999ME1312899OA149900151REMSYN076AAXX  01174 06745 33/// /0000 11015 21015 38438 48289 52025 333 91103 91202;
0306067450999992010010118004+46500+008317FM-12+1345LSMC V0201801N000510024019N0002001N1-00121-00121999999ADDAA112000021AJ100549199999999AL11200191AY171061AY221061GA1081+002401051GF108991999999002501999999IA1239KA1120M-00131MA1999999084491MD1310281+9999ME1312999MW1701OA149900261REMSYN124AAXX  01184 06745 01302 81801 11012 21012 38449 48299 53028 69922 77072 333 11013 47054 69925 88508 90766 93101 91105 91204;
0154067450999992010010119004+46500+008317FM-12+1345LSMC V0209999C000019999999N9999999N1-00121-00121999999ADDAA101000591MA1999999084601MD1210321+9999ME1313109OA149900211REMSYN082AAXX  01194 06745 23/// /0000 11012 21012 38460 48310 52032 333 69965 91104 91202;
0154067450999992010010120004+46500+008317FM-12+1345LSMC V0201901N000519999999N9999999N1-00141-00141999999ADDAA101000021MA1999999084671MD1110291+9999ME1313169OA149900211REMSYN082AAXX  01204 06745 23/// /1901 11014 21014 38467 48316 51029 333 69915 91104 91203;
0154067450999992010010121004+46500+008317FM-12+1345LSMC V0202001N000519999999N9999999N1-00121-00121999999ADDAA101000591MA1999999084771MD1110281+9999ME1313269OA149900311REMSYN082AAXX  01214 06745 23/// /2001 11012 21012 38477 48326 51028 333 69965 91106 91203;
0154067450999992010010122004+46500+008317FM-12+1345LSMC V0200201N001519999999N9999999N1-00151-00151999999ADDAA101001091MA1999999084841MD1110241+9999ME1313329OA149900311REMSYN082AAXX  01224 06745 23/// /0203 11015 21015 38484 48332 51024 333 60015 91106 91203;
0154067450999992010010123004+46500+008317FM-12+1345LSMC V0200801N000519999999N9999999N1-00161-00161999999ADDAA101000891MA1999999084901MD1110231+9999ME1313389OA149900361REMSYN082AAXX  01234 06745 23/// /0801 11016 21016 38490 48338 51023 333 69985 91107 91204;
0160067450999992010010200004+46500+008317FM-12+1345LSMC V0202401N000519999999N9999999N1-00241-00241999999ADDAA106005191MA1999999084931MD1210161+9999ME1313419OA149900361REMSYN088AAXX  02004 06745 03/// /2401 11024 21024 38493 48341 52016 60051 333 60015 91107 91204;
0154067450999992010010201004+46500+008317FM-12+1345LSMC V0209999C000019999999N9999999N1-00301-00371999999ADDAA101000591MA1999999084971MD1210131+9999ME1313459OA149900311REMSYN082AAXX  02014 06745 23/// /0000 11030 21037 38497 48345 52013 333 69945 91106 91203;
0117067450999992010010202004+46500+008317FM-12+1345LSMC V0201401N001019999999N9999999N1-00391-00651999999ADDAA101001091MA1999999085081ME1313559REMSYN070AAXX  02024 06745 23/// /1402 11039 21065 38508 48355 5//// 333 60015;
0154067450999992010010203004+46500+008317FM-12+1345LSMC V0201301N003619999999N9999999N1-00461-00871999999ADDAA101000021MA1999999085141MD1310211+9999ME1313609OA149900671REMSYN082AAXX  02034 06745 23/// /1307 11046 21087 38514 48360 53021 333 69915 91113 91207;
0137067450999992010010204004+46500+008317FM-12+1345LSMC V0201201N004119999999N9999999N1-00451-00961999999ADDMA1999999085221MD1110251+9999ME1313689OA149900981REMSYN076AAXX  02044 06745 33/// /1208 11045 21096 38522 48368 51025 333 91119 91210;
0137067450999992010010205004+46500+008317FM-12+1345LSMC V0200501N007219999999N9999999N1-00541-01061999999ADDMA1999999085261MD1210181+9999ME1313719OA149901241REMSYN076AAXX  02054 06745 33/// /0514 11054 21106 38526 48371 52018 333 91124 91214;
0238067450999992010010206004+46500+008317FM-12+1345LSMC V0200701N007219999999N9999999N1-00621-01101999999ADDAA112006191AA224006491AL12400691GJ100189IA2999-00709KA1999N-00581MA1999999085321MD1210181+9999ME1313779OA149901291REMSYN112AAXX  02064 06745 03/// /0714 11062 21110 38532 48377 52018 60062 333 21058 3/107 55003 60005 70064 91125 91216;
0137067450999992010010207004+46500+008317FM-12+1345LSMC V0200701N009819999999N9999999N1-00701-01091999999ADDMA1999999085391MD1310171+9999ME1313839OA149901601REMSYN076AAXX  02074 06745 33/// /0719 11070 21109 38539 48383 53017 333 91131 91219;
0096067450999992010010208004+46500+008317FM-12+1345LSMC V0200701N009819999999N9999999N1-00721-01061999999ADDMA1999999085461ME1313899REMSYN060AAXX  02084 06745 33/// /0719 11072 21106 38546 48389 5////;
0137067450999992010010209004+46500+008317FM-12+1345LSMC V0200701N007219999999N9999999N1-00721-01051999999ADDMA1999999085541MD1210221+9999ME1313979OA149901601REMSYN076AAXX  02094 06745 33/// /0714 11072 21105 38554 48397 52022 333 91131 91220;
0137067450999992010010210004+46500+008317FM-12+1345LSMC V0200701N007219999999N9999999N1-00731-01141999999ADDMA1999999085631MD1210241+9999ME1314059OA149901701REMSYN076AAXX  02104 06745 33/// /0714 11073 21114 38563 48405 52024 333 91133 91216;
0137067450999992010010211004+46500+008317FM-12+1345LSMC V0200601N007719999999N9999999N1-00711-01151999999ADDMA1999999085691MD1110231+9999ME1314109OA149901701REMSYN076AAXX  02114 06745 33/// /0615 11071 21115 38569 48410 51023 333 91133 91217;
0236067450999992010010212004+46500+008317FM-12+1345LSMC V0200701N007710012019N0003001N1-00731-01161999999ADDAA106000021AY171061AY221061GA1081+001201051GF108991999999001501999999MA1999999085741MD1110201+9999ME1314159MW1711OA149901701REMSYN100AAXX  02124 06745 01203 80715 11073 21116 38574 48415 51020 69911 77172 333 69915 88504 91133 91220;
0137067450999992010010213004+46500+008317FM-12+1345LSMC V0200701N007719999999N9999999N1-00741-01271999999ADDMA1999999085811MD1310181+9999ME1314219OA149901651REMSYN076AAXX  02134 06745 33/// /0715 11074 21127 38581 48421 53018 333 91132 91219;
0137067450999992010010214004+46500+008317FM-12+1345LSMC V0200701N006719999999N9999999N1-00771-01371999999ADDMA1999999085911MD1319999+9999ME1314309OA149901651REMSYN076AAXX  02144 06745 33/// /0713 11077 21137 38591 48430 53/// 333 91132 91217;
0185067450999992010010215004+46500+008317FM-12+1345LSMC V0200701N006710042019N0005001N1-00801-01431999999ADDGA1081+004201071GF108991999999004501999999MA1999999085991MD1310251+9999ME1314379OA149901701REMSYN082AAXX  02154 06745 32405 80713 11080 21143 38599 48437 53025 333 88714 91133 91219;
0137067450999992010010216004+46500+008317FM-12+1345LSMC V0200701N005719999999N9999999N1-00821-01501999999ADDMA1999999086031MD1210221+9999ME1314419OA149901341REMSYN076AAXX  02164 06745 33/// /0711 11082 21150 38603 48441 52022 333 91126 91214;
0137067450999992010010217004+46500+008317FM-12+1345LSMC V0200701N006219999999N9999999N1-00851-01521999999ADDMA1999999086101MD1210191+9999ME1314479OA149901491REMSYN076AAXX  02174 06745 33/// /0712 11085 21152 38610 48447 52019 333 91129 91213;
0278067450999992010010218004+46500+008317FM-12+1345LSMC V0200701N008210042019N0003001N1-00871-01481999999ADDAA112000021AJ100559199999999AL11200191GA1081+004201071GF108991999999004501999999IA1279KA1120M-00581MA1999999086171MD1210181+9999ME1314539OA149901701REMSYN118AAXX  02184 06745 02403 80716 11087 21148 38617 48453 52018 69912 333 11058 43055 60005 88714 90766 93101 91133 91220;
0137067450999992010010219004+46500+008317FM-12+1345LSMC V0200701N008219999999N9999999N1-00891-01531999999ADDMA1999999086211MD1210181+9999ME1314579OA149901651REMSYN076AAXX  02194 06745 33/// /0716 11089 21153 38621 48457 52018 333 91132 91222;
0137067450999992010010220004+46500+008317FM-12+1345LSMC V0200701N007219999999N9999999N1-00921-01601999999ADDMA1999999086221MD1210121+9999ME1314589OA149901651REMSYN076AAXX  02204 06745 33/// /0714 11092 21160 38622 48458 52012 333 91132 91222;
0137067450999992010010221004+46500+008317FM-12+1345LSMC V0202301N002619999999N9999999N1-01161-01611999999ADDMA1999999086331MD1210161+9999ME1314669OA149901651REMSYN076AAXX  02214 06745 33/// /2305 11116 21161 38633 48466 52016 333 91132 91222;
0137067450999992010010222004+46500+008317FM-12+1345LSMC V0201001N000519999999N9999999N1-01501-01681999999ADDMA1999999086351MD1210141+9999ME1314669OA149901081REMSYN076AAXX  02224 06745 33/// /1001 11150 21168 38635 48466 52014 333 91121 91212;
0137067450999992010010223004+46500+008317FM-12+1345LSMC V0201401N000519999999N9999999N1-01681-01851999999ADDMA1999999086441MD1210221+9999ME1314739OA149900211REMSYN076AAXX  02234 06745 33/// /1401 11168 21185 38644 48473 52022 333 91104 91202;
0137067450999992010010300004+46500+008317FM-12+1345LSMC V0200301N000519999999N9999999N1-01681-01861999999ADDMA1999999086471MD1210141+9999ME1314769OA149901651REMSYN076AAXX  03004 06745 33/// /0301 11168 21186 38647 48476 52014 333 91132 91222;
0137067450999992010010301004+46500+008317FM-12+1345LSMC V0200601N001519999999N9999999N1-01721-01901999999ADDMA1999999086481MD1210131+9999ME1314779OA149900411REMSYN076AAXX  03014 06745 33/// /0603 11172 21190 38648 48477 52013 333 91108 91205;
0096067450999992010010302004+46500+008317FM-12+1345LSMC V0200401N000519999999N9999999N1-01891-02091999999ADDMA1999999086521ME1314799REMSYN060AAXX  03024 06745 33/// /0401 11189 21209 38652 48479 5////;
0096067450999992010010303004+46500+008317FM-12+1345LSMC V0200701N001019999999N9999999N1-01871-02071999999ADDMA1999999086561ME1314839REMSYN060AAXX  03034 06745 33/// /0702 11187 21207 38656 48483 5////;
0137067450999992010010304004+46500+008317FM-12+1345LSMC V0209999C000019999999N9999999N1-01981-02191999999ADDMA1999999086491MD1010011+9999ME1314769OA149900261REMSYN076AAXX  03044 06745 33/// /0000 11198 21219 38649 48476 50001 333 91105 91203;
0137067450999992010010305004+46500+008317FM-12+1345LSMC V0209999C000019999999N9999999N1-02041-02261999999ADDMA1999999086501MD1719999+9999ME1314779OA149900211REMSYN076AAXX  03054 06745 33/// /0000 11204 21226 38650 48477 57/// 333 91104 91203;
0215067450999992010010306004+46500+008317FM-12+1345LSMC V0200801N000519999999N9999999N1-02011-02231999999ADDAA124000021AL10600091GJ100009IA2999-02609KA1999N-02071MA1999999086471MD1710091+9999ME1314749OA149901651REMSYN100AAXX  03064 06745 33/// /0801 11201 21223 38647 48474 57009 333 21207 3/126 55000 70001 91132 91222;
0137067450999992010010307004+46500+008317FM-12+1345LSMC V0200501N001019999999N9999999N1-01981-02201999999ADDMA1999999086471MD1710021+9999ME1314749OA149900151REMSYN076AAXX  03074 06745 33/// /0502 11198 21220 38647 48474 57002 333 91103 91202;
0137067450999992010010308004+46500+008317FM-12+1345LSMC V0200601N001019999999N9999999N1-01781-01971999999ADDMA1999999086491MD1519999+9999ME1314779OA149900151REMSYN076AAXX  03084 06745 33/// /0602 11178 21197 38649 48477 55/// 333 91103 91202;
0137067450999992010010309004+46500+008317FM-12+1345LSMC V0200601N001019999999N9999999N1-01661-01841999999ADDMA1999999086491MD1210021+9999ME1314789OA149900211REMSYN076AAXX  03094 06745 33/// /0602 11166 21184 38649 48478 52002 333 91104 91203;
0137067450999992010010310004+46500+008317FM-12+1345LSMC V0200201N000519999999N9999999N1-01781-01971999999ADDMA1999999086491MD1210021+9999ME1314779OA149900151REMSYN076AAXX  03104 06745 33/// /0201 11178 21197 38649 48477 52002 333 91103 91202;
0137067450999992010010311004+46500+008317FM-12+1345LSMC V0200501N000519999999N9999999N1-01741-01931999999ADDMA1999999086351MD1710141+9999ME1314659OA149900211REMSYN076AAXX  03114 06745 33/// /0501 11174 21193 38635 48465 57014 333 91104 91202;
0137067450999992010010312004+46500+008317FM-12+1345LSMC V0200601N000519999999N9999999N1-01491-01641999999ADDMA1999999086311MD1710181+9999ME1314639OA149900261REMSYN076AAXX  03124 06745 33/// /0601 11149 21164 38631 48463 57018 333 91105 91203;
0137067450999992010010313004+46500+008317FM-12+1345LSMC V0200701N000519999999N9999999N1-01391-01531999999ADDMA1999999086261MD1610231+9999ME1314599OA149900151REMSYN076AAXX  03134 06745 33/// /0701 11139 21153 38626 48459 56023 333 91103 91202;
0137067450999992010010314004+46500+008317FM-12+1345LSMC V0209999C000019999999N9999999N1-01421-01561999999ADDMA1999999086261MD1710091+9999ME1314599OA149900151REMSYN076AAXX  03144 06745 33/// /0000 11142 21156 38626 48459 57009 333 91103 91202;
0185067450999992010010315004+46500+008317FM-12+1345LSMC V0202201N000510093019N0400001N1-01451-01601999999ADDGA1061+009301061GF106991999999008001999999MA1999999086261MD1510051+9999ME1314599OA149900211REMSYN082AAXX  03154 06745 32582 62201 11145 21160 38626 48459 55005 333 86631 91104 91202;
0137067450999992010010316004+46500+008317FM-12+1345LSMC V0200501N000519999999N9999999N1-01451-01601999999ADDMA1999999086251MD1010011+9999ME1314589OA149900151REMSYN076AAXX  03164 06745 33/// /0501 11145 21160 38625 48458 50001 333 91103 91203;
0137067450999992010010317004+46500+008317FM-12+1345LSMC V0200501N000519999999N9999999N1-01511-01661999999ADDMA1999999086211MD1810051+9999ME1314549OA149900151REMSYN076AAXX  03174 06745 33/// /0501 11151 21166 38621 48454 58005 333 91103 91203;
0156067450999992010010318004+46500+008317FM-12+1345LSMC V0200701N000519999999N9999999N1-01571-01731999999ADDKA1120M-01341MA1999999086231MD1510031+9999ME1314569OA149900211REMSYN082AAXX  03184 06745 33/// /0701 11157 21173 38623 48456 55003 333 11134 91104 91203;
0137067450999992010010319004+46500+008317FM-12+1345LSMC V0209999C000019999999N9999999N1-01661-01831999999ADDMA1999999086211MD1710041+9999ME1314549OA149900211REMSYN076AAXX  03194 06745 33/// /0000 11166 21183 38621 48454 57004 333 91104 91202;
0137067450999992010010320004+46500+008317FM-12+1345LSMC V0200501N000519999999N9999999N1-01801-01991999999ADDMA1999999086181MD1810031+9999ME1314509OA149900211REMSYN076AAXX  03204 06745 33/// /0501 11180 21199 38618 48450 58003 333 91104 91202;
0137067450999992010010321004+46500+008317FM-12+1345LSMC V0200501N000519999999N9999999N1-01901-02101999999ADDMA1999999086171MD1710061+9999ME1314499OA149900211REMSYN076AAXX  03214 06745 33/// /0501 11190 21210 38617 48449 57006 333 91104 91203;
0137067450999992010010322004+46500+008317FM-12+1345LSMC V0200601N000519999999N9999999N1-01941-02151999999ADDMA1999999086171MD1710041+9999ME1314499OA149900151REMSYN076AAXX  03224 06745 33/// /0601 11194 21215 38617 48449 57004 333 91103 91202;
0137067450999992010010323004+46500+008317FM-12+1345LSMC V0202901N000519999999N9999999N1-01961-02171999999ADDMA1999999086161MD1710021+9999ME1314489OA149900211REMSYN076AAXX  03234 06745 33/// /2901 11196 21217 38616 48448 57002 333 91104 91202;
0137067450999992010010400004+46500+008317FM-12+1345LSMC V0200501N001019999999N9999999N1-01821-02011999999ADDMA1999999086111MD1710061+9999ME1314449OA149900211REMSYN076AAXX  04004 06745 33/// /0502 11182 21201 38611 48444 57006 333 91104 91203;
0137067450999992010010401004+46500+008317FM-12+1345LSMC V0200201N001019999999N9999999N1-01801-01991999999ADDMA1999999086031MD1710141+9999ME1314379OA149900261REMSYN076AAXX  04014 06745 33/// /0202 11180 21199 38603 48437 57014 333 91105 91202;
0137067450999992010010402004+46500+008317FM-12+1345LSMC V0209999C000019999999N9999999N1-01691-01871999999ADDMA1999999085981MD1710181+9999ME1314339OA149900261REMSYN076AAXX  04024 06745 33/// /0000 11169 21187 38598 48433 57018 333 91105 91202;
0137067450999992010010403004+46500+008317FM-12+1345LSMC V0202301N000519999999N9999999N1-01521-01681999999ADDMA1999999085931MD1619999+9999ME1314309OA149900261REMSYN076AAXX  04034 06745 33/// /2301 11152 21168 38593 48430 56/// 333 91105 91202;
0137067450999992010010404004+46500+008317FM-12+1345LSMC V0202501N001019999999N9999999N1-01321-01451999999ADDMA1999999085871MD1810161+9999ME1314259OA149900261REMSYN076AAXX  04044 06745 33/// /2502 11132 21145 38587 48425 58016 333 91105 91202;
0137067450999992010010405004+46500+008317FM-12+1345LSMC V0202601N000519999999N9999999N1-01011-01091999999ADDMA1999999085821MD1710161+9999ME1314219OA149900571REMSYN076AAXX  04054 06745 33/// /2601 11101 21109 38582 48421 57016 333 91111 91202;
0323067450999992010010406004+46500+008317FM-12+1345LSMC V0201801N000510270019N0100001N1-00931-01001999999ADDAA124000091AJ100649199999999AL19900091GA1081+027001041GF108991999999999999999999GJ100489IA1239IA2999-02409KA1999N-01961MA1999999085841MD1710091+9999ME1314239OA149900721REMSYN124AAXX  04064 06745 32960 81801 11093 21100 38584 48423 57009 333 21196 3/124 47064 55008 70000 88459 90768 93100 91114 91203;EQDQ01  00002PRCP24
0137067450999992010010407004+46500+008317FM-12+1345LSMC V0202101N001019999999N9999999N1-00891-00951999999ADDMA1999999085831MD1710041+9999ME1314239OA149900721REMSYN076AAXX  04074 06745 33/// /2102 11089 21095 38583 48423 57004 333 91114 91203;
0137067450999992010010408004+46500+008317FM-12+1345LSMC V0202501N000519999999N9999999N1-00911-01031999999ADDMA1999999085851MD1210031+9999ME1314249OA149900261REMSYN076AAXX  04084 06745 33/// /2501 11091 21103 38585 48424 52003 333 91105 91203;
0213067450999992010010409004+46500+008317FM-12+1345LSMC V0209999C000010063019N0100001N1-00751-00941999999ADDAY171031AY221031GA1081+006301071GF108991999999008001999999MA1999999085841MD1010001+9999ME1314249MW1701OA149900721REMSYN088AAXX  04094 06745 31560 80000 11075 21094 38584 48424 50000 77072 333 88721 91114 91203;
0137067450999992010010410004+46500+008317FM-12+1345LSMC V0202601N001019999999N9999999N1-00731-00881999999ADDMA1999999085821MD1810011+9999ME1314229OA149900151REMSYN076AAXX  04104 06745 33/// /2602 11073 21088 38582 48422 58001 333 91103 91202;
0137067450999992010010411004+46500+008317FM-12+1345LSMC V0202601N001019999999N9999999N1-00641-00861999999ADDMA1999999085721MD1710131+9999ME1314139OA149900211REMSYN076AAXX  04114 06745 33/// /2602 11064 21086 38572 48413 57013 333 91104 91203;
0213067450999992010010412004+46500+008317FM-12+1345LSMC V0200401N004110063019N0050001N1-00451-00931999999ADDAY171061AY221061GA1081+006301071GF108991999999008001999999MA1999999085631MD1810211+9999ME1314069MW1701OA149901031REMSYN088AAXX  04124 06745 31550 80408 11045 21093 38563 48406 58021 77072 333 88721 91120 91208;
0137067450999992010010413004+46500+008317FM-12+1345LSMC V0200301N004619999999N9999999N1-00451-00811999999ADDMA1999999085561MD1710261+9999ME1313999OA149901081REMSYN076AAXX  04134 06745 33/// /0309 11045 21081 38556 48399 57026 333 91121 91210;
0137067450999992010010414004+46500+008317FM-12+1345LSMC V0200501N004119999999N9999999N1-00481-00671999999ADDMA1999999085531MD1619999+9999ME1313969OA149901081REMSYN076AAXX  04144 06745 33/// /0508 11048 21067 38553 48396 56/// 333 91121 91210;
0137067450999992010010415004+46500+008317FM-12+1345LSMC V0200501N000519999999N9999999N1-00501-00641999999ADDMA1999999085511MD1610121+9999ME1313949OA149901081REMSYN076AAXX  04154 06745 33/// /0501 11050 21064 38551 48394 56012 333 91121 91210;
0137067450999992010010416004+46500+008317FM-12+1345LSMC V0201201N000519999999N9999999N1-00531-00621999999ADDMA1999999085501MD1710061+9999ME1313939OA149900461REMSYN076AAXX  04164 06745 33/// /1201 11053 21062 38550 48393 57006 333 91109 91208;
0137067450999992010010417004+46500+008317FM-12+1345LSMC V0200801N000519999999N9999999N1-00541-00601999999ADDMA1999999085471MD1710061+9999ME1313919OA149900151REMSYN076AAXX  04174 06745 33/// /0801 11054 21060 38547 48391 57006 333 91103 91202;
0283067450999992010010418004+46500+008317FM-12+1345LSMC V0201601N001010042019N0010001N1-00561-00601999999ADDAJ100669199999999AL19900091AY171061AY221061GA1081+004201071GF108991999999004501999999IA1279KA1120M-00401MA1999999085461MD1710051+9999ME1313909MW1021OA149901081REMSYN112AAXX  04184 06745 31410 81602 11056 21060 38546 48390 57005 70272 333 11040 43066 88714 90766 93100 91121 91210;
0154067450999992010010419004+46500+008317FM-12+1345LSMC V0201401N000519999999N9999999N1-00581-00621999999ADDAA101000021MA1999999085481MD1510021+9999ME1313919OA149900151REMSYN082AAXX  04194 06745 23/// /1401 11058 21062 38548 48391 55002 333 69915 91103 91202;
0137067450999992010010420004+46500+008317FM-12+1345LSMC V0200801N000519999999N9999999N1-00651-00681999999ADDMA1999999085451MD1810021+9999ME1313899OA149900151REMSYN076AAXX  04204 06745 33/// /0801 11065 21068 38545 48389 58002 333 91103 91202;
0137067450999992010010421004+46500+008317FM-12+1345LSMC V0200601N000519999999N9999999N1-00671-00701999999ADDMA1999999085451MD1810011+9999ME1313899OA149900151REMSYN076AAXX  04214 06745 33/// /0601 11067 21070 38545 48389 58001 333 91103 91202;
0137067450999992010010422004+46500+008317FM-12+1345LSMC V0200601N000519999999N9999999N1-00681-00711999999ADDMA1999999085431MD1710051+9999ME1313879OA149900151REMSYN076AAXX  04224 06745 33/// /0601 11068 21071 38543 48387 57005 333 91103 91202;
0154067450999992010010423004+46500+008317FM-12+1345LSMC V0200501N000519999999N9999999N1-00661-00701999999ADDAA101000021MA1999999085411MD1710041+9999ME1313859OA149900101REMSYN082AAXX  04234 06745 23/// /0501 11066 21070 38541 48385 57004 333 69915 91102 91201;
0179067450999992010010500004+46500+008317FM-12+1345LSMC V0202601N000519999999N9999999N1-00711-00751999999ADDAA106000091MA1999999085371MD1810081+9999ME1313819OA149901081REMSYN088AAXX  05004 06745 03/// /2601 11071 21075 38537 48381 58008 69921 333 60005 91121 91210;EQDQ01  00002PRCP06
0137067450999992010010501004+46500+008317FM-12+1345LSMC V0200401N000519999999N9999999N1-00661-00701999999ADDMA1999999085311MD1810121+9999ME1313769OA149900151REMSYN076AAXX  05014 06745 33/// /0401 11066 21070 38531 48376 58012 333 91103 91202;
0137067450999992010010502004+46500+008317FM-12+1345LSMC V0201001N000519999999N9999999N1-00651-00691999999ADDMA1999999085271MD1710141+9999ME1313729OA149900151REMSYN076AAXX  05024 06745 33/// /1001 11065 21069 38527 48372 57014 333 91103 91202;
0137067450999992010010503004+46500+008317FM-12+1345LSMC V0202201N000519999999N9999999N1-00641-00681999999ADDMA1999999085241MD1710131+9999ME1313699OA149900151REMSYN076AAXX  05034 06745 33/// /2201 11064 21068 38524 48369 57013 333 91103 91202;
0137067450999992010010504004+46500+008317FM-12+1345LSMC V0203201N000519999999N9999999N1-00651-00701999999ADDMA1999999085181MD1710131+9999ME1313649OA149900151REMSYN076AAXX  05044 06745 33/// /3201 11065 21070 38518 48364 57013 333 91103 91202;
0137067450999992010010505004+46500+008317FM-12+1345LSMC V0200801N000519999999N9999999N1-00641-00691999999ADDMA1999999085121MD1710151+9999ME1313589OA149900211REMSYN076AAXX  05054 06745 33/// /0801 11064 21069 38512 48358 57015 333 91104 91203;
0346067450999992010010506004+46500+008317FM-12+1345LSMC V0209999C000010150019N0100001N1-00651-00691999999ADDAA112000091AA224000391AJ100659199999999AL19900091GA1071+015001061GF107991999999017501999999GJ100009IA1239IA2999-00909KA1999N-00711MA1999999085101MD1610141+9999ME1313579OA149900211REMSYN136AAXX  05064 06745 02760 70000 11065 21069 38510 48357 56014 69922 333 21071 3/109 47065 55000 60005 70002 87650 90768 93100 91104 91203;EQDQ01  00002PRCP12
0137067450999992010010507004+46500+008317FM-12+1345LSMC V0200701N001019999999N9999999N1-00611-00661999999ADDMA1999999085091MD1710091+9999ME1313569OA149900151REMSYN076AAXX  05074 06745 33/// /0702 11061 21066 38509 48356 57009 333 91103 91202;
0137067450999992010010508004+46500+008317FM-12+1345LSMC V0202701N000519999999N9999999N1-00611-00661999999ADDMA1999999085071MD1710051+9999ME1313549OA149900151REMSYN076AAXX  05084 06745 33/// /2701 11061 21066 38507 48354 57005 333 91103 91203;
0185067450999992010010509004+46500+008317FM-12+1345LSMC V0209999C000010150019N0600001N1-00681-00731999999ADDGA1051+015001061GF105991999999017501999999MA1999999085041MD1710061+9999ME1313519OA149900211REMSYN082AAXX  05094 06745 32786 50000 11068 21073 38504 48351 57006 333 85650 91104 91203;
0137067450999992010010510004+46500+008317FM-12+1345LSMC V0200601N000519999999N9999999N1-00861-00901999999ADDMA1999999085011MD1710081+9999ME1313489OA149900211REMSYN076AAXX  05104 06745 33/// /0601 11086 21090 38501 48348 57008 333 91104 91203;
0137067450999992010010511004+46500+008317FM-12+1345LSMC V0200601N000519999999N9999999N1-00931-00991999999ADDMA1999999084941MD1710131+9999ME1313429OA149900101REMSYN076AAXX  05114 06745 33/// /0601 11093 21099 38494 48342 57013 333 91102 91201;
0185067450999992010010512004+46500+008317FM-12+1345LSMC V0209999C000012200019N0700001N1-00711-00751999999ADDGA1031+057001001GF103991999999999999999999MA1999999084841MD1710201+9999ME1313339OA149900211REMSYN082AAXX  05124 06745 32988 30000 11071 21075 38484 48333 57020 333 83069 91104 91203;
0137067450999992010010513004+46500+008317FM-12+1345LSMC V0209999C000019999999N9999999N1-00501-00711999999ADDMA1999999084781MD1610231+9999ME1313279OA149900151REMSYN076AAXX  05134 06745 33/// /0000 11050 21071 38478 48327 56023 333 91103 91202;
0096067450999992010010514004+46500+008317FM-12+1345LSMC V0200601N000519999999N9999999N1-00441-00671999999ADDMA1999999084751ME1313249REMSYN060AAXX  05144 06745 33/// /0601 11044 21067 38475 48324 5////;
0137067450999992010010515004+46500+008317FM-12+1345LSMC V0200601N000519999999N9999999N1-00611-00781999999ADDMA1999999084741MD1710101+9999ME1313239OA149900211REMSYN076AAXX  05154 06745 33/// /0601 11061 21078 38474 48323 57010 333 91104 91202;
0137067450999992010010516004+46500+008317FM-12+1345LSMC V0200601N000519999999N9999999N1-00791-00851999999ADDMA1999999084731MD1710051+9999ME1313239OA149900211REMSYN076AAXX  05164 06745 33/// /0601 11079 21085 38473 48323 57005 333 91104 91202;
0137067450999992010010517004+46500+008317FM-12+1345LSMC V0200401N001019999999N9999999N1-00931-00981999999ADDMA1999999084721MD1610031+9999ME1313229OA149900151REMSYN076AAXX  05174 06745 33/// /0402 11093 21098 38472 48322 56003 333 91103 91202;
0156067450999992010010518004+46500+008317FM-12+1345LSMC V0200801N001019999999N9999999N1-00971-01031999999ADDKA1120M-00441MA1999999084721MD1610021+9999ME1313229OA149900211REMSYN082AAXX  05184 06745 33/// /0802 11097 21103 38472 48322 56002 333 11044 91104 91203;
0137067450999992010010519004+46500+008317FM-12+1345LSMC V0209999C000019999999N9999999N1-01071-01141999999ADDMA1999999084711MD1710021+9999ME1313219OA149900151REMSYN076AAXX  05194 06745 33/// /0000 11107 21114 38471 48321 57002 333 91103 91202;
0137067450999992010010520004+46500+008317FM-12+1345LSMC V0200701N000519999999N9999999N1-01111-01191999999ADDMA1999999084671MD1710051+9999ME1313179OA149900151REMSYN076AAXX  05204 06745 33/// /0701 11111 21119 38467 48317 57005 333 91103 91202;
0137067450999992010010521004+46500+008317FM-12+1345LSMC V0200501N000519999999N9999999N1-01191-01281999999ADDMA1999999084651MD1710071+9999ME1313169OA149900151REMSYN076AAXX  05214 06745 33/// /0501 11119 21128 38465 48316 57007 333 91103 91202;
0137067450999992010010522004+46500+008317FM-12+1345LSMC V0200501N000519999999N9999999N1-01241-01341999999ADDMA1999999084641MD1710071+9999ME1313159OA149900151REMSYN076AAXX  05224 06745 33/// /0501 11124 21134 38464 48315 57007 333 91103 91202;
0137067450999992010010523004+46500+008317FM-12+1345LSMC V0209999C000019999999N9999999N1-01281-01391999999ADDMA1999999084611MD1710061+9999ME1313129OA149900151REMSYN076AAXX  05234 06745 33/// /0000 11128 21139 38461 48312 57006 333 91103 91202;
0137067450999992010010600004+46500+008317FM-12+1345LSMC V0209999C000019999999N9999999N1-01421-01551999999ADDMA1999999084591MD1710061+9999ME1313119OA149900211REMSYN076AAXX  06004 06745 33/// /0000 11142 21155 38459 48311 57006 333 91104 91202;
0137067450999992010010601004+46500+008317FM-12+1345LSMC V0200501N001519999999N9999999N1-01431-01561999999ADDMA1999999084591MD1710051+9999ME1313119OA149900151REMSYN076AAXX  06014 06745 33/// /0503 11143 21156 38459 48311 57005 333 91103 91203;
0156067450999992010010602004+46500+008317FM-12+1345LSMC V0209999C000019999999N9999999N1-01631-01791999999ADDMA1999999084611MD1410001+9999ME1313139OA149900151REMSYN076AAXX  06024 06745 33/// /0000 11163 21179 38461 48313 53000 333 91103 91203;EQDQ01+000032APCTEN
0137067450999992010010603004+46500+008317FM-12+1345LSMC V0200701N000519999999N9999999N1-01541-01691999999ADDMA1999999084591MD1010001+9999ME1313119OA149900151REMSYN076AAXX  06034 06745 33/// /0701 11154 21169 38459 48311 50000 333 91103 91203;
0137067450999992010010604004+46500+008317FM-12+1345LSMC V0209999C000019999999N9999999N1-01641-01801999999ADDMA1999999084571MD1810021+9999ME1313099OA149900151REMSYN076AAXX  06044 06745 33/// /0000 11164 21180 38457 48309 58002 333 91103 91201;
0137067450999992010010605004+46500+008317FM-12+1345LSMC V0200601N001019999999N9999999N1-01631-01791999999ADDMA1999999084601MD1510011+9999ME1313129OA149900151REMSYN076AAXX  06054 06745 33/// /0602 11163 21179 38460 48312 55001 333 91103 91202;
0250067450999992010010606004+46500+008317FM-12+1345LSMC V0200401N000519999999N9999999N1-01691-01861999999ADDAA124000091AL19900091GJ101689IA2999-02109KA1999N-01721MA1999999084591MD1410001+9999ME1313119OA149900151REMSYN100AAXX  06064 06745 33/// /0401 11169 21186 38459 48311 52000 333 21172 3/121 55028 70000 91103 91203;EQDQ01+000022APCTENQ02  00002PRCP24
0137067450999992010010607004+46500+008317FM-12+1345LSMC V0200501N000519999999N9999999N1-01721-01901999999ADDMA1999999084601MD1210031+9999ME1313129OA149900101REMSYN076AAXX  06074 06745 33/// /0501 11172 21190 38460 48312 52003 333 91102 91201;
0137067450999992010010608004+46500+008317FM-12+1345LSMC V0209999C000019999999N9999999N1-01741-01921999999ADDMA1999999084621MD1210021+9999ME1313149OA149900101REMSYN076AAXX  06084 06745 33/// /0000 11174 21192 38462 48314 52002 333 91102 91201;
0185067450999992010010609004+46500+008317FM-12+1345LSMC V0200601N000512200019N0700001N1-01661-01801999999ADDGA1011+057001031GF101991999999999999999999MA1999999084681MD1210091+9999ME1313199OA149900151REMSYN082AAXX  06094 06745 32988 10601 11166 21180 38468 48319 52009 333 81369 91103 91202;
0137067450999992010010610004+46500+008317FM-12+1345LSMC V0200801N000519999999N9999999N1-01651-01811999999ADDMA1999999084691MD1210091+9999ME1313209OA149900101REMSYN076AAXX  06104 06745 33/// /0801 11165 21181 38469 48320 52009 333 91102 91201;
0137067450999992010010611004+46500+008317FM-12+1345LSMC V0202601N000519999999N9999999N1-01701-01911999999ADDMA1999999084671MD1019999+9999ME1313189OA149900101REMSYN076AAXX  06114 06745 33/// /2601 11170 21191 38467 48318 50/// 333 91102 91201;
0185067450999992010010612004+46500+008317FM-12+1345LSMC V0209999C000012200019N0700001N1-01131-01241999999ADDGA1041+045001031GF104991999999999999999999MA1999999084641MD1710041+9999ME1313159OA149900151REMSYN082AAXX  06124 06745 32988 40000 11113 21124 38464 48315 57004 333 84365 91103 91203;
0137067450999992010010613004+46500+008317FM-12+1345LSMC V0202501N000519999999N9999999N1-00961-01101999999ADDMA1999999084621MD1610071+9999ME1313139OA149900151REMSYN076AAXX  06134 06745 33/// /2501 11096 21110 38462 48313 56007 333 91103 91203;
0137067450999992010010614004+46500+008317FM-12+1345LSMC V0202301N000519999999N9999999N1-00611-00881999999ADDMA1999999084631MD1719999+9999ME1313139OA149900101REMSYN076AAXX  06144 06745 33/// /2301 11061 21088 38463 48313 57/// 333 91102 91201;
0185067450999992010010615004+46500+008317FM-12+1345LSMC V0200501N001012200019N0700001N1-00661-01011999999ADDGA1041+011401061GF104991999999012501999999MA1999999084681MD1319999+9999ME1313189OA149900151REMSYN082AAXX  06154 06745 32688 40502 11066 21101 38468 48318 53/// 333 84638 91103 91203;
0137067450999992010010616004+46500+008317FM-12+1345LSMC V0200701N000519999999N9999999N1-00941-01071999999ADDMA1999999084741MD1310121+9999ME1313249OA149900151REMSYN076AAXX  06164 06745 33/// /0701 11094 21107 38474 48324 53012 333 91103 91202;
0137067450999992010010617004+46500+008317FM-12+1345LSMC V0209999C000019999999N9999999N1-01231-01291999999ADDMA1999999084771MD1110141+9999ME1313279OA149900151REMSYN076AAXX  06174 06745 33/// /0000 11123 21129 38477 48327 51014 333 91103 91202;
0156067450999992010010618004+46500+008317FM-12+1345LSMC V0200201N000519999999N9999999N1-01361-01471999999ADDKA1120M-00611MA1999999084831MD1319999+9999ME1313329OA149900151REMSYN082AAXX  06184 06745 33/// /0201 11136 21147 38483 48332 53/// 333 11061 91103 91203;
0137067450999992010010619004+46500+008317FM-12+1345LSMC V0200401N000519999999N9999999N1-01641-01691999999ADDMA1999999084911MD1310171+9999ME1313399OA149900151REMSYN076AAXX  06194 06745 33/// /0401 11164 21169 38491 48339 53017 333 91103 91202;
0137067450999992010010620004+46500+008317FM-12+1345LSMC V0200601N002119999999N9999999N1-01161-01341999999ADDMA1999999084991MD1310221+9999ME1313469OA149900311REMSYN076AAXX  06204 06745 33/// /0604 11116 21134 38499 48346 53022 333 91106 91204;
0137067450999992010010621004+46500+008317FM-12+1345LSMC V0200601N001019999999N9999999N1-00981-01181999999ADDMA1999999085011MD1110181+9999ME1313489OA149900311REMSYN076AAXX  06214 06745 33/// /0602 11098 21118 38501 48348 51018 333 91106 91204;
0137067450999992010010622004+46500+008317FM-12+1345LSMC V0201101N000519999999N9999999N1-00971-01131999999ADDMA1999999085021MD1210111+9999ME1313499OA149900311REMSYN076AAXX  06224 06745 33/// /1101 11097 21113 38502 48349 52011 333 91106 91204;
0137067450999992010010623004+46500+008317FM-12+1345LSMC V0202301N000519999999N9999999N1-00941-01141999999ADDMA1999999085011MD1010021+9999ME1313489OA149900211REMSYN076AAXX  06234 06745 33/// /2301 11094 21114 38501 48348 50002 333 91104 91202;
0137067450999992010010700004+46500+008317FM-12+1345LSMC V0203601N000519999999N9999999N1-00901-01131999999ADDMA1999999085001MD1710011+9999ME1313479OA149900311REMSYN076AAXX  07004 06745 33/// /3601 11090 21113 38500 48347 57001 333 91106 91204;
0137067450999992010010701004+46500+008317FM-12+1345LSMC V0200801N001019999999N9999999N1-00901-01071999999ADDMA1999999085051MD1310031+9999ME1313529OA149900211REMSYN076AAXX  07014 06745 33/// /0802 11090 21107 38505 48352 53003 333 91104 91202;
0137067450999992010010702004+46500+008317FM-12+1345LSMC V0202101N001019999999N9999999N1-00901-01071999999ADDMA1999999085091MD1219999+9999ME1313569OA149900211REMSYN076AAXX  07024 06745 33/// /2102 11090 21107 38509 48356 52/// 333 91104 91203;
0137067450999992010010703004+46500+008317FM-12+1345LSMC V0200301N000519999999N9999999N1-00891-01081999999ADDMA1999999085101MD1110101+9999ME1313569OA149900211REMSYN076AAXX  07034 06745 33/// /0301 11089 21108 38510 48356 51010 333 91104 91203;
0137067450999992010010704004+46500+008317FM-12+1345LSMC V0202401N000519999999N9999999N1-01071-01171999999ADDMA1999999085121MD1110071+9999ME1313589OA149900211REMSYN076AAXX  07044 06745 33/// /2401 11107 21117 38512 48358 51007 333 91104 91203;
0137067450999992010010705004+46500+008317FM-12+1345LSMC V0203001N000519999999N9999999N1-01201-01261999999ADDMA1999999085151MD1310061+9999ME1313619OA149900211REMSYN076AAXX  07054 06745 33/// /3001 11120 21126 38515 48361 53006 333 91104 91203;
0323067450999992010010706004+46500+008317FM-12+1345LSMC V0201001N000512200019N0300001N1-01411-01451999999ADDAA124000091AJ100659199999999AL19900091GA1041+014401061GF104991999999012501999999GJ101929IA1239IA2999-02009KA1999N-01641MA1999999085211MD1310111+9999ME1313669OA149900311REMSYN124AAXX  07064 06745 32680 41001 11141 21145 38521 48366 53011 333 21164 3/120 47065 55032 70000 84648 90768 93100 91106 91204;EQDQ01  00002PRCP24
0137067450999992010010707004+46500+008317FM-12+1345LSMC V0200501N000519999999N9999999N1-01551-01671999999ADDMA1999999085231MD1110111+9999ME1313689OA149900151REMSYN076AAXX  07074 06745 33/// /0501 11155 21167 38523 48368 51011 333 91103 91202;
0137067450999992010010708004+46500+008317FM-12+1345LSMC V0200601N001519999999N9999999N1-01621-01731999999ADDMA1999999085301MD1319999+9999ME1313749OA149900211REMSYN076AAXX  07084 06745 33/// /0603 11162 21173 38530 48374 53/// 333 91104 91203;
0185067450999992010010709004+46500+008317FM-12+1345LSMC V0200601N001010123019N0700001N1-01531-01681999999ADDGA1051+012301061GF105991999999012501999999MA1999999085351MD1110141+9999ME1313789OA149900211REMSYN082AAXX  07094 06745 32688 50602 11153 21168 38535 48378 51014 333 85641 91104 91203;
0137067450999992010010710004+46500+008317FM-12+1345LSMC V0201301N000519999999N9999999N1-01631-01751999999ADDMA1999999085371MD1110141+9999ME1313809OA149900151REMSYN076AAXX  07104 06745 33/// /1301 11163 21175 38537 48380 51014 333 91103 91202;
0137067450999992010010711004+46500+008317FM-12+1345LSMC V0209999C000019999999N9999999N1-01491-01651999999ADDMA1999999085341MD1010041+9999ME1313789OA149900151REMSYN076AAXX  07114 06745 33/// /0000 11149 21165 38534 48378 50004 333 91103 91202;
0185067450999992010010712004+46500+008317FM-12+1345LSMC V0209999C000010123019N0400001N1-01131-01431999999ADDGA1051+012301061GF106991999999012501999999MA1999999085251MD1710101+9999ME1313709OA149900211REMSYN082AAXX  07124 06745 32682 60000 11113 21143 38525 48370 57010 333 85641 91104 91203;
0137067450999992010010713004+46500+008317FM-12+1345LSMC V0200501N000519999999N9999999N1-00891-01401999999ADDMA1999999085241MD1619999+9999ME1313699OA149900101REMSYN076AAXX  07134 06745 33/// /0501 11089 21140 38524 48369 56/// 333 91102 91201;
0096067450999992010010715004+46500+008317FM-12+1345LSMC V0209999C000019999999N9999999N1-00731-01221999999ADDMA1999999085281ME1313739REMSYN060AAXX  07154 06745 43/// /0000 11073 21122 38528 48373 5////;
0137067450999992010010716004+46500+008317FM-12+1345LSMC V0209999C000019999999N9999999N1-00831-01121999999ADDMA1999999085341MD1319999+9999ME1313789OA149900151REMSYN076AAXX  07164 06745 33/// /0000 11083 21112 38534 48378 53/// 333 91103 91202;
0137067450999992010010717004+46500+008317FM-12+1345LSMC V0201901N000519999999N9999999N1-00801-01081999999ADDMA1999999085381MD1119999+9999ME1313829OA149900151REMSYN076AAXX  07174 06745 33/// /1901 11080 21108 38538 48382 51/// 333 91103 91202;
0156067450999992010010718004+46500+008317FM-12+1345LSMC V0202001N000519999999N9999999N1-00781-01141999999ADDKA1120M-00711MA1999999085421MD1319999+9999ME1313869OA149900211REMSYN082AAXX  07184 06745 33/// /2001 11078 21114 38542 48386 53/// 333 11071 91104 91203;
0137067450999992010010719004+46500+008317FM-12+1345LSMC V0209999C000019999999N9999999N1-00761-01021999999ADDMA1999999085431MD1210091+9999ME1313879OA149900151REMSYN076AAXX  07194 06745 33/// /0000 11076 21102 38543 48387 52009 333 91103 91202;
0137067450999992010010720004+46500+008317FM-12+1345LSMC V0202401N000519999999N9999999N1-00831-01001999999ADDMA1999999085451MD1210071+9999ME1313889OA149900151REMSYN076AAXX  07204 06745 33/// /2401 11083 21100 38545 48388 52007 333 91103 91202;
0137067450999992010010721004+46500+008317FM-12+1345LSMC V0200701N001519999999N9999999N1-00701-00981999999ADDMA1999999085441MD1210021+9999ME1313889OA149900211REMSYN076AAXX  07214 06745 33/// /0703 11070 21098 38544 48388 52002 333 91104 91203;
0137067450999992010010722004+46500+008317FM-12+1345LSMC V0200101N000519999999N9999999N1-00731-00951999999ADDMA1999999085431MD1010001+9999ME1313879OA149900211REMSYN076AAXX  07224 06745 33/// /0101 11073 21095 38543 48387 50000 333 91104 91203;
0137067450999992010010723004+46500+008317FM-12+1345LSMC V0200301N001019999999N9999999N1-00681-00911999999ADDMA1999999085431MD1710021+9999ME1313879OA149900151REMSYN076AAXX  07234 06745 33/// /0302 11068 21091 38543 48387 57002 333 91103 91202;
0137067450999992010010800004+46500+008317FM-12+1345LSMC V0200501N000519999999N9999999N1-00721-00881999999ADDMA1999999085391MD1810051+9999ME1313839OA149900211REMSYN076AAXX  08004 06745 33/// /0501 11072 21088 38539 48383 58005 333 91104 91203;
0137067450999992010010801004+46500+008317FM-12+1345LSMC V0209999C000019999999N9999999N1-00671-00891999999ADDMA1999999085311MD1710121+9999ME1313769OA149900151REMSYN076AAXX  08014 06745 33/// /0000 11067 21089 38531 48376 57012 333 91103 91202;
0137067450999992010010802004+46500+008317FM-12+1345LSMC V0200401N001019999999N9999999N1-00651-00761999999ADDMA1999999085281MD1619999+9999ME1313739OA149900151REMSYN076AAXX  08024 06745 33/// /0402 11065 21076 38528 48373 56/// 333 91103 91202;
0137067450999992010010803004+46500+008317FM-12+1345LSMC V0200201N000519999999N9999999N1-00661-00721999999ADDMA1999999085241MD1619999+9999ME1313699OA149900151REMSYN076AAXX  08034 06745 33/// /0201 11066 21072 38524 48369 56/// 333 91103 91203;
0137067450999992010010804004+46500+008317FM-12+1345LSMC V0200801N000519999999N9999999N1-00631-00691999999ADDMA1999999085191MD1810121+9999ME1313659OA149900151REMSYN076AAXX  08044 06745 33/// /0801 11063 21069 38519 48365 58012 333 91103 91203;
0154067450999992010010805004+46500+008317FM-12+1345LSMC V0200301N000519999999N9999999N1-00591-00641999999ADDAA101000391MA1999999085131MD1810151+9999ME1313599OA149900101REMSYN082AAXX  08054 06745 23/// /0301 11059 21064 38513 48359 58015 333 69935 91102 91201;
0365067450999992010010806004+46500+008317FM-12+1345LSMC V0201301N000510042019N0020001N1-00551-00651999999ADDAA112000591AA224000591AJ100669199999999AL12400091AL29900191AY171061AY221061GA1081+004201051GF108991999999004501999999GJ101029IA1239IA2999-01009KA1999N-00901MA1999999085081MD1610161+9999ME1313559MW1701OA149900211REMSYN142AAXX  08064 06745 01420 81301 11055 21065 38508 48355 56016 69942 77072 333 21090 3/110 47066 55017 69915 70004 88514 90768 93101 91104 91203;
0154067450999992010010807004+46500+008317FM-12+1345LSMC V0209999C000019999999N9999999N1-00601-00641999999ADDAA101000021MA1999999085061MD1610131+9999ME1313539OA149900151REMSYN082AAXX  08074 06745 23/// /0000 11060 21064 38506 48353 56013 333 69915 91103 91202;
0154067450999992010010808004+46500+008317FM-12+1345LSMC V0200301N000519999999N9999999N1-00551-00601999999ADDAA101000391MA1999999085031MD1610101+9999ME1313519OA149900151REMSYN082AAXX  08084 06745 23/// /0301 11055 21060 38503 48351 56010 333 69935 91103 91201;
0198067450999992010010809004+46500+008317FM-12+1345LSMC V0200501N000510054019N0020001N1+99999+99999999999ADDAY171031AY271031GA1081+005401051GF108991999999004501999999MA1999999084991MD1810091+9999MW1701OA149900151REMSYN082AAXX  08094 06745 31420 80501 1//// 2//// 38499 58009 77077 333 88518 91103 91202;
0122067450999992010010810004+46500+008317FM-12+1345LSMC V0200801N000519999999N9999999N1+99999+99999999999ADDMA1999999084931MD1810131+9999OA149900151REMSYN070AAXX  08104 06745 33/// /0801 1//// 2//// 38493 58013 333 91103 91202;
0122067450999992010010811004+46500+008317FM-12+1345LSMC V0200701N001019999999N9999999N1+99999+99999999999ADDMA1999999084811MD1810221+9999OA149900211REMSYN070AAXX  08114 06745 33/// /0702 1//// 2//// 38481 58022 333 91104 91203;
0221067450999992010010812004+46500+008317FM-12+1345LSMC V0200601N000510063019N0050001N1+99999+99999999999ADDAA106000591AY171061AY271061GA1081+006301051GF108991999999008001999999MA1999999084701MD1810291+9999MW1701OA149900211REMSYN094AAXX  08124 06745 01550 80601 1//// 2//// 38470 58029 69941 77077 333 60005 88521 91104 91203;
0122067450999992010010813004+46500+008317FM-12+1345LSMC V0200301N001519999999N9999999N1+99999+99999999999ADDMA1999999084631MD1610301+9999OA149900151REMSYN070AAXX  08134 06745 33/// /0303 1//// 2//// 38463 56030 333 91103 91203;
0128067450999992010010814004+46500+008317FM-12+1345LSMC V0200501N001019999999N9999999N1+99999+99999999999ADDMA1999999084581MD1619999+9999OA149900151REMSYN076AAXX  08144 06745 33/// /0502 1//// 2//// 38458 56/// 91340 333 91103 91203;
0154067450999992010010815004+46500+008317FM-12+1345LSMC V0200301N000519999999N9999999N1-00021-00021999999ADDAA101000391MA1999999084561MD1610141+9999ME1313069OA149900211REMSYN082AAXX  08154 06745 23/// /0301 11002 21002 38456 48306 56014 333 69935 91104 91203;
0154067450999992010010816004+46500+008317FM-12+1345LSMC V0209999C000019999999N9999999N1-00041-00041999999ADDAA101000391MA1999999084561MD1610071+9999ME1313069OA149900101REMSYN082AAXX  08164 06745 23/// /0000 11004 21004 38456 48306 56007 333 69935 91102 91202;
0154067450999992010010817004+46500+008317FM-12+1345LSMC V0202601N000519999999N9999999N1-00071-00071999999ADDAA101000591MA1999999084581MD1310011+9999ME1313089OA149900101REMSYN082AAXX  08174 06745 23/// /2601 11007 21007 38458 48308 53001 333 69965 91102 91201;
0160067450999992010010818004+46500+008317FM-12+1345LSMC V0202401N004619999999N9999999N1-00461-00461999999ADDAA112002091MA1999999084641MD1310081+9999ME1313149OA149900671REMSYN088AAXX  08184 06745 03/// /2409 11046 21046 38464 48314 53008 60022 333 69945 91113 91210;
0154067450999992010010819004+46500+008317FM-12+1345LSMC V0202501N001019999999N9999999N1-00471-00491999999ADDAA101000591MA1999999084681MD1210121+9999ME1313189OA149900671REMSYN082AAXX  08194 06745 23/// /2502 11047 21049 38468 48318 52012 333 69945 91113 91210;
0154067450999992010010820004+46500+008317FM-12+1345LSMC V0209999C000019999999N9999999N1-00461-00481999999ADDAA101000021MA1999999084681MD1210101+9999ME1313189OA149900571REMSYN082AAXX  08204 06745 23/// /0000 11046 21048 38468 48318 52010 333 69915 91111 91208;
0137067450999992010010821004+46500+008317FM-12+1345LSMC V0209999C000019999999N9999999N1-00431-00451999999ADDMA1999999084661MD1010021+9999ME1313169OA149900671REMSYN076AAXX  08214 06745 33/// /0000 11043 21045 38466 48316 50002 333 91113 91210;
0137067450999992010010822004+46500+008317FM-12+1345LSMC V0202201N001019999999N9999999N1-00461-00471999999ADDMA1999999084721MD1310041+9999ME1313219OA149900361REMSYN076AAXX  08224 06745 33/// /2202 11046 21047 38472 48321 53004 333 91107 91204;
0137067450999992010010823004+46500+008317FM-12+1345LSMC V0202301N001019999999N9999999N1-00531-00531999999ADDMA1999999084751MD1210071+9999ME1313249OA149900361REMSYN076AAXX  08234 06745 33/// /2302 11053 21053 38475 48324 52007 333 91107 91204;
0160067450999992010010900004+46500+008317FM-12+1345LSMC V0209999C000019999999N9999999N1-00521-00521999999ADDAA106000591MA1999999084691MD1010031+9999ME1313199OA149900671REMSYN088AAXX  09004 06745 03/// /0000 11052 21052 38469 48319 50003 69951 333 60005 91113 91210;
0137067450999992010010901004+46500+008317FM-12+1345LSMC V0202401N001519999999N9999999N1-00531-00531999999ADDMA1999999084681MD1810041+9999ME1313189OA149900261REMSYN076AAXX  09014 06745 33/// /2403 11053 21053 38468 48318 58004 333 91105 91203;
0137067450999992010010902004+46500+008317FM-12+1345LSMC V0200501N001019999999N9999999N1-00491-00501999999ADDMA1999999084721MD1519999+9999ME1313219OA149900261REMSYN076AAXX  09024 06745 33/// /0502 11049 21050 38472 48321 55/// 333 91105 91203;
0137067450999992010010903004+46500+008317FM-12+1345LSMC V0200401N001019999999N9999999N1-00491-00491999999ADDMA1999999084721MD1019999+9999ME1313219OA149900361REMSYN076AAXX  09034 06745 33/// /0402 11049 21049 38472 48321 50/// 333 91107 91204;
0137067450999992010010904004+46500+008317FM-12+1345LSMC V0200401N000519999999N9999999N1-00581-00581999999ADDMA1999999084651MD1810031+9999ME1313159OA149900211REMSYN076AAXX  09044 06745 33/// /0401 11058 21058 38465 48315 58003 333 91104 91203;
0137067450999992010010905004+46500+008317FM-12+1345LSMC V0202701N001019999999N9999999N1-00621-00621999999ADDMA1999999084611MD1710111+9999ME1313119OA149900211REMSYN076AAXX  09054 06745 33/// /2702 11062 21062 38461 48311 57011 333 91104 91203;
0365067450999992010010906004+46500+008317FM-12+1345LSMC V0200301N000510042019N0001001N1-00621-00621999999ADDAA112000891AA224002591AJ100809199999999AL13600291AL29915091AY171061AY221061GA1081+004201051GF108991999999004501999999GJ100009IA1239IA2999-00709KA1999N-00631MA1999999084591MD1710131+9999ME1313099MW1021OA149900571REMSYN142AAXX  09064 06745 01401 80301 11062 21062 38459 48309 57013 69982 70272 333 21063 3/107 47080 55000 69935 70026 88514 90768 93165 91111 91208;
0137067450999992010010907004+46500+008317FM-12+1345LSMC V0200601N001519999999N9999999N1-00641-00651999999ADDMA1999999084621MD1510031+9999ME1313129OA149900261REMSYN076AAXX  09074 06745 33/// /0603 11064 21065 38462 48312 55003 333 91105 91204;
0137067450999992010010908004+46500+008317FM-12+1345LSMC V0209999C000019999999N9999999N1-00631-00641999999ADDMA1999999084601MD1710011+9999ME1313109OA149900261REMSYN076AAXX  09084 06745 33/// /0000 11063 21064 38460 48310 57001 333 91105 91204;
0185067450999992010010909004+46500+008317FM-12+1345LSMC V0200401N001010042019N0015001N1-00621-00631999999ADDGA1081+004201071GF108991999999004501999999MA1999999084601MD1210011+9999ME1313109OA149900261REMSYN082AAXX  09094 06745 32415 80402 11062 21063 38460 48310 52001 333 88714 91105 91204;
0137067450999992010010910004+46500+008317FM-12+1345LSMC V0209999C000019999999N9999999N1-00641-00651999999ADDMA1999999084501MD1810121+9999ME1313019OA149900151REMSYN076AAXX  09104 06745 33/// /0000 11064 21065 38450 48301 58012 333 91103 91203;
0137067450999992010010911004+46500+008317FM-12+1345LSMC V0209999C000019999999N9999999N1-00571-00581999999ADDMA1999999084491MD1610111+9999ME1313009OA149900151REMSYN076AAXX  09114 06745 33/// /0000 11057 21058 38449 48300 56011 333 91103 91203;
0137067450999992010010912004+46500+008317FM-12+1345LSMC V0202401N002119999999N9999999N1-00531-00531999999ADDMA1999999084471MD1710131+9999ME1312989OA149900311REMSYN076AAXX  09124 06745 33/// /2404 11053 21053 38447 48298 57013 333 91106 91204;
0137067450999992010010913004+46500+008317FM-12+1345LSMC V0202401N003619999999N9999999N1-00561-00571999999ADDMA1999999084471MD1810031+9999ME1312989OA149900461REMSYN076AAXX  09134 06745 33/// /2407 11056 21057 38447 48298 58003 333 91109 91207;
0137067450999992010010914004+46500+008317FM-12+1345LSMC V0202401N002619999999N9999999N1-00581-00581999999ADDMA1999999084461MD1710031+9999ME1312979OA149900461REMSYN076AAXX  09144 06745 33/// /2405 11058 21058 38446 48297 57003 333 91109 91207;
0213067450999992010010915004+46500+008317FM-12+1345LSMC V0202301N003610033019N0100001N1-00611-00621999999ADDAY171031AY221031GA1081+003301051GF108991999999004501999999MA1999999084501MD1210031+9999ME1313019MW1701OA149900461REMSYN088AAXX  09154 06745 31460 82307 11061 21062 38450 48301 52003 77072 333 88511 91109 91207;
0154067450999992010010916004+46500+008317FM-12+1345LSMC V0202401N002619999999N9999999N1-00641-00661999999ADDAA101000021MA1999999084541MD1210071+9999ME1313059OA149900461REMSYN082AAXX  09164 06745 23/// /2405 11064 21066 38454 48305 52007 333 69925 91109 91207;
0154067450999992010010917004+46500+008317FM-12+1345LSMC V0202301N002619999999N9999999N1-00681-00701999999ADDAA101000021MA1999999084561MD1110101+9999ME1313079OA149900461REMSYN082AAXX  09174 06745 23/// /2305 11068 21070 38456 48307 51010 333 69925 91109 91207;
0284067450999992010010918004+46500+008317FM-12+1345LSMC V0202401N002110042019N0050001N1-00711-00741999999ADDAA112000591AJ100809199999999AL11200191GA1081+004201051GF108991999999004501999999IA1239KA1120M-00531MA1999999084641MD1310141+9999ME1313149OA149900461REMSYN124AAXX  09184 06745 01450 82404 11071 21074 38464 48314 53014 69942 7//72 333 11053 47080 60005 88514 90766 93101 91109 91207;
0154067450999992010010919004+46500+008317FM-12+1345LSMC V0202501N001519999999N9999999N1-00721-00761999999ADDAA101000021MA1999999084681MD1310141+9999ME1313189OA149900411REMSYN082AAXX  09194 06745 23/// /2503 11072 21076 38468 48318 53014 333 69925 91108 91206;
0137067450999992010010920004+46500+008317FM-12+1345LSMC V0202401N002119999999N9999999N1-00731-00771999999ADDMA1999999084741MD1110181+9999ME1313239OA149900311REMSYN076AAXX  09204 06745 33/// /2404 11073 21077 38474 48323 51018 333 91106 91205;
0154067450999992010010921004+46500+008317FM-12+1345LSMC V0202401N001519999999N9999999N1-00761-00801999999ADDAA101000391MA1999999084781MD1210141+9999ME1313279OA149900461REMSYN082AAXX  09214 06745 23/// /2403 11076 21080 38478 48327 52014 333 69935 91109 91207;
0154067450999992010010922004+46500+008317FM-12+1345LSMC V0202301N002619999999N9999999N1-00781-00831999999ADDAA101000021MA1999999084811MD1210131+9999ME1313309OA149900361REMSYN082AAXX  09224 06745 23/// /2305 11078 21083 38481 48330 52013 333 69925 91107 91205;
0154067450999992010010923004+46500+008317FM-12+1345LSMC V0202101N001019999999N9999999N1-00791-00841999999ADDAA101000021MA1999999084871MD1210131+9999ME1313359OA149900361REMSYN082AAXX  09234 06745 23/// /2102 11079 21084 38487 48335 52013 333 69925 91107 91205;
0160067450999992010011000004+46500+008317FM-12+1345LSMC V0209999C000019999999N9999999N1-00781-00841999999ADDAA106001091MA1999999084851MD1210071+9999ME1313349OA149900461REMSYN088AAXX  10004 06745 03/// /0000 11078 21084 38485 48334 52007 69991 333 60005 91109 91207;
0137067450999992010011001004+46500+008317FM-12+1345LSMC V0209999C000019999999N9999999N1-00781-00841999999ADDMA1999999084881MD1210071+9999ME1313369OA149900151REMSYN076AAXX  10014 06745 33/// /0000 11078 21084 38488 48336 52007 333 91103 91202;
0117067450999992010011002004+46500+008317FM-12+1345LSMC V0202401N001019999999N9999999N1-00791-00851999999ADDAA101000021MA1999999084961ME1313449REMSYN070AAXX  10024 06745 23/// /2402 11079 21085 38496 48344 5//// 333 69915;
0096067450999992010011003004+46500+008317FM-12+1345LSMC V0202401N002119999999N9999999N1-00831-00871999999ADDMA1999999085011ME1313489REMSYN060AAXX  10034 06745 43/// /2404 11083 21087 38501 48348 5////;
0154067450999992010011004004+46500+008317FM-12+1345LSMC V0202301N002119999999N9999999N1-00881-00931999999ADDAA101000021MA1999999085061MD1110181+9999ME1313539OA149900411REMSYN082AAXX  10044 06745 23/// /2304 11088 21093 38506 48353 51018 333 69915 91108 91206;
0154067450999992010011005004+46500+008317FM-12+1345LSMC V0202501N001019999999N9999999N1-00881-00931999999ADDAA101000021MA1999999085121MD1310161+9999ME1313589OA149900361REMSYN082AAXX  10054 06745 23/// /2502 11088 21093 38512 48358 53016 333 69915 91107 91205;
0365067450999992010011006004+46500+008317FM-12+1345LSMC V0202401N001010042019N0010001N1-00881-00941999999ADDAA112001091AA224002091AJ100829199999999AL19900291AL29900491AY171061AY221061GA1081+004201051GF108991999999004501999999GJ100009IA1239IA2999-00909KA1999N-00891MA1999999085171MD1210161+9999ME1313639MW1021OA149900411REMSYN142AAXX  10064 06745 01410 82402 11088 21094 38517 48363 52016 60012 70272 333 21089 3/109 47082 55000 60005 70020 88514 90768 93104 91108 91206;
0154067450999992010011007004+46500+008317FM-12+1345LSMC V0202401N001519999999N9999999N1-00891-00951999999ADDAA101000021MA1999999085231MD1210171+9999ME1313689OA149900261REMSYN082AAXX  10074 06745 23/// /2403 11089 21095 38523 48368 52017 333 69915 91105 91204;
0137067450999992010011008004+46500+008317FM-12+1345LSMC V0202401N001519999999N9999999N1-00921-00981999999ADDMA1999999085341MD1319999+9999ME1313789OA149900311REMSYN076AAXX  10084 06745 33/// /2403 11092 21098 38534 48378 53/// 333 91106 91204;
0185067450999992010011009004+46500+008317FM-12+1345LSMC V0202601N000510054019N0150001N1-00891-00961999999ADDGA1081+005401071GF108991999999004501999999MA1999999085401MD1210231+9999ME1313849OA149900361REMSYN082AAXX  10094 06745 32465 82601 11089 21096 38540 48384 52023 333 88718 91107 91205;
0137067450999992010011010004+46500+008317FM-12+1345LSMC V0202401N001019999999N9999999N1-00861-00951999999ADDMA1999999085431MD1110201+9999ME1313869OA149900151REMSYN076AAXX  10104 06745 33/// /2402 11086 21095 38543 48386 51020 333 91103 91202;
0137067450999992010011011004+46500+008317FM-12+1345LSMC V0202601N001019999999N9999999N1-00821-00961999999ADDMA1999999085451MD1110111+9999ME1313889OA149900151REMSYN076AAXX  10114 06745 33/// /2602 11082 21096 38545 48388 51011 333 91103 91203;
0227067450999992010011012004+46500+008317FM-12+1345LSMC V0202501N002110063019N0300001N1-00711-00961999999ADDAA106000091GA1061+006301071GF106991999999008001999999MA1999999085471MD1110071+9999ME1313909OA149900411REMSYN094AAXX  10124 06745 02580 62504 11071 21096 38547 48390 51007 69911 333 60005 86721 91108 91206;EQDQ01  00002PRCP06
0137067450999992010011013004+46500+008317FM-12+1345LSMC V0202501N002619999999N9999999N1-00681-00881999999ADDMA1999999085461MD1210031+9999ME1313909OA149900311REMSYN076AAXX  10134 06745 33/// /2505 11068 21088 38546 48390 52003 333 91106 91205;
0137067450999992010011014004+46500+008317FM-12+1345LSMC V0202401N003119999999N9999999N1-00711-00891999999ADDMA1999999085501MD1219999+9999ME1313939OA149900411REMSYN076AAXX  10144 06745 33/// /2406 11071 21089 38550 48393 52/// 333 91108 91206;
0213067450999992010011015004+46500+008317FM-12+1345LSMC V0202401N003612200019N0150001N1-00931-01041999999ADDAY171031AY211031GA1041+005401071GF104991999999004501999999MA1999999085551MD1210081+9999ME1313979MW1011OA149900461REMSYN088AAXX  10154 06745 31465 42407 11093 21104 38555 48397 52008 70171 333 84718 91109 91207;
0137067450999992010011016004+46500+008317FM-12+1345LSMC V0202301N002119999999N9999999N1-00731-00831999999ADDMA1999999085631MD1310171+9999ME1314059OA149900461REMSYN076AAXX  10164 06745 33/// /2304 11073 21083 38563 48405 53017 333 91109 91207;
0137067450999992010011017004+46500+008317FM-12+1345LSMC V0202401N001019999999N9999999N1-00731-00821999999ADDMA1999999085701MD1110201+9999ME1314119OA149900411REMSYN076AAXX  10174 06745 33/// /2402 11073 21082 38570 48411 51020 333 91108 91206;
0297067450999992010011018004+46500+008317FM-12+1345LSMC V0203601N000510063019N0150001N1-00721-00831999999ADDAA112000091AJ100849199999999AL19900091GA1081+006301071GF108991999999008001999999IA1239KA1120M-00591MA1999999085761MD1110211+9999ME1314179OA149900461REMSYN118AAXX  10184 06745 02565 83601 11072 21083 38576 48417 51021 69912 333 11059 47084 60005 88721 90766 93100 91109 91207;EQDQ01  00002PRCP12
0137067450999992010011019004+46500+008317FM-12+1345LSMC V0200301N001519999999N9999999N1-00741-00901999999ADDMA1999999085761MD1210131+9999ME1314179OA149900261REMSYN076AAXX  10194 06745 33/// /0303 11074 21090 38576 48417 52013 333 91105 91203;
0137067450999992010011020004+46500+008317FM-12+1345LSMC V0201201N000519999999N9999999N1-00771-00961999999ADDMA1999999085831MD1210131+9999ME1314239OA149900261REMSYN076AAXX  10204 06745 33/// /1201 11077 21096 38583 48423 52013 333 91105 91203;
0137067450999992010011021004+46500+008317FM-12+1345LSMC V0201001N001019999999N9999999N1-00861-01031999999ADDMA1999999085821MD1210061+9999ME1314229OA149900461REMSYN076AAXX  10214 06745 33/// /1002 11086 21103 38582 48422 52006 333 91109 91206;
0137067450999992010011022004+46500+008317FM-12+1345LSMC V0200801N001519999999N9999999N1-00971-01141999999ADDMA1999999085811MD1010051+9999ME1314219OA149900461REMSYN076AAXX  10224 06745 33/// /0803 11097 21114 38581 48421 50005 333 91109 91204;
0137067450999992010011023004+46500+008317FM-12+1345LSMC V0200701N001519999999N9999999N1-01321-01421999999ADDMA1999999085801MD1710031+9999ME1314199OA149900311REMSYN076AAXX  10234 06745 33/// /0703 11132 21142 38580 48419 57003 333 91106 91203;
0137067450999992010011100004+46500+008317FM-12+1345LSMC V0200601N001019999999N9999999N1-01461-01601999999ADDMA1999999085811MD1510011+9999ME1314199OA149900461REMSYN076AAXX  11004 06745 33/// /0602 11146 21160 38581 48419 55001 333 91109 91207;
0137067450999992010011101004+46500+008317FM-12+1345LSMC V0200601N000519999999N9999999N1-01591-01751999999ADDMA1999999085761MD1710051+9999ME1314149OA149900151REMSYN076AAXX  11014 06745 33/// /0601 11159 21175 38576 48414 57005 333 91103 91202;
0137067450999992010011102004+46500+008317FM-12+1345LSMC V0209999C000019999999N9999999N1-01681-01851999999ADDMA1999999085781MD1719999+9999ME1314169OA149900151REMSYN076AAXX  11024 06745 33/// /0000 11168 21185 38578 48416 57/// 333 91103 91202;
0137067450999992010011103004+46500+008317FM-12+1345LSMC V0200101N000519999999N9999999N1-01761-01941999999ADDMA1999999085831MD1319999+9999ME1314209OA149900311REMSYN076AAXX  11034 06745 33/// /0101 11176 21194 38583 48420 53/// 333 91106 91203;
0137067450999992010011104004+46500+008317FM-12+1345LSMC V0202601N000519999999N9999999N1-01811-02001999999ADDMA1999999085801MD1210041+9999ME1314179OA149900261REMSYN076AAXX  11044 06745 33/// /2601 11181 21200 38580 48417 52004 333 91105 91203;
0137067450999992010011105004+46500+008317FM-12+1345LSMC V0209999C000019999999N9999999N1-01821-02011999999ADDMA1999999085801MD1010021+9999ME1314179OA149900211REMSYN076AAXX  11054 06745 33/// /0000 11182 21201 38580 48417 50002 333 91104 91203;
0329067450999992010011106004+46500+008317FM-12+1345LSMC V0200701N000512200019N0300001N1-01851-02051999999ADDAA124000091AJ100849199999999AL19900091GA1001+999999999GF100991001001999999001001GJ101269IA1239IA2999-02309KA1999N-01961MA1999999085821MD1510011+9999ME1314199MW1021OA149900461REMSYN124AAXX  11064 06745 31/80 00701 11185 21205 38582 48419 55001 702// 333 21196 3/123 47084 55021 70001 90768 93100 91109 91204;EQDQ01  00002PRCP24
0137067450999992010011107004+46500+008317FM-12+1345LSMC V0209999C000019999999N9999999N1-01871-02071999999ADDMA1999999085831MD1210031+9999ME1314209OA149900151REMSYN076AAXX  11074 06745 33/// /0000 11187 21207 38583 48420 52003 333 91103 91202;
0137067450999992010011108004+46500+008317FM-12+1345LSMC V0209999C000019999999N9999999N1-01901-02111999999ADDMA1999999085821MD1219999+9999ME1314199OA149900151REMSYN076AAXX  11084 06745 33/// /0000 11190 21211 38582 48419 52/// 333 91103 91202;
0191067450999992010011109004+46500+008317FM-12+1345LSMC V0209999C000012200019N0700001N1-01991-01991999999ADDGA1001+999999999GF100991001001999999001001MA1999999085801MD1710021+9999ME1314179MW1021OA149900211REMSYN082AAXX  11094 06745 31/88 00000 11199 21199 38580 48417 57002 702// 333 91104 91203;
0137067450999992010011110004+46500+008317FM-12+1345LSMC V0209999C000019999999N9999999N1-01801-01961999999ADDMA1999999085791MD1619999+9999ME1314169OA149900101REMSYN076AAXX  11104 06745 33/// /0000 11180 21196 38579 48416 56/// 333 91102 91201;
0137067450999992010011111004+46500+008317FM-12+1345LSMC V0202301N000519999999N9999999N1-01651-01891999999ADDMA1999999085771MD1610051+9999ME1314159OA149900101REMSYN076AAXX  11114 06745 33/// /2301 11165 21189 38577 48415 56005 333 91102 91202;
0137067450999992010011112004+46500+008317FM-12+1345LSMC V0200501N000519999999N9999999N1-01041-01311999999ADDMA1999999085751MD1810051+9999ME1314159OA149900261REMSYN076AAXX  11124 06745 33/// /0501 11104 21131 38575 48415 58005 333 91105 91203;
0137067450999992010011113004+46500+008317FM-12+1345LSMC V0200601N001519999999N9999999N1-00791-01111999999ADDMA1999999085751MD1710041+9999ME1314169OA149900211REMSYN076AAXX  11134 06745 33/// /0603 11079 21111 38575 48416 57004 333 91104 91203;
0096067450999992010011114004+46500+008317FM-12+1345LSMC V0200601N001019999999N9999999N1-00701-00961999999ADDMA1999999085791ME1314209REMSYN060AAXX  11144 06745 33/// /0602 11070 21096 38579 48420 5////;
0185067450999992010011115004+46500+008317FM-12+1345LSMC V0200801N000512200019N0700001N1-00751-00991999999ADDGA1041+057001011GF104991999999999999999999MA1999999085831MD1210081+9999ME1314239OA149900211REMSYN082AAXX  11154 06745 32988 40801 11075 21099 38583 48423 52008 333 84169 91104 91203;
0137067450999992010011116004+46500+008317FM-12+1345LSMC V0200401N001019999999N9999999N1-01021-01111999999ADDMA1999999085881MD1210131+9999ME1314279OA149900151REMSYN076AAXX  11164 06745 33/// /0402 11102 21111 38588 48427 52013 333 91103 91202;
0137067450999992010011117004+46500+008317FM-12+1345LSMC V0200601N001019999999N9999999N1-01211-01271999999ADDMA1999999085901MD1310111+9999ME1314289OA149900211REMSYN076AAXX  11174 06745 33/// /0602 11121 21127 38590 48428 53011 333 91104 91203;
0249067450999992010011118004+46500+008317FM-12+1345LSMC V0200701N001012200019N0700001N1-01391-01451999999ADDAJ100759199999999AL19900091GA1001+999999999GF100991001001999999001001IA1239KA1120M-00651MA1999999085941MD1110111+9999ME1314319OA149900211REMSYN100AAXX  11184 06745 32/88 00702 11139 21145 38594 48431 51011 333 11065 47075 90766 93100 91104 91203;
0137067450999992010011119004+46500+008317FM-12+1345LSMC V0200801N000519999999N9999999N1-01361-01491999999ADDMA1999999085971MD1310091+9999ME1314349OA149900211REMSYN076AAXX  11194 06745 33/// /0801 11136 21149 38597 48434 53009 333 91104 91203;
0137067450999992010011120004+46500+008317FM-12+1345LSMC V0200601N000519999999N9999999N1-01411-01501999999ADDMA1999999086001MD1110101+9999ME1314369OA149900211REMSYN076AAXX  11204 06745 33/// /0601 11141 21150 38600 48436 51010 333 91104 91203;
0137067450999992010011121004+46500+008317FM-12+1345LSMC V0209999C000019999999N9999999N1-01301-01451999999ADDMA1999999086011MD1110071+9999ME1314379OA149900211REMSYN076AAXX  11214 06745 33/// /0000 11130 21145 38601 48437 51007 333 91104 91203;
0137067450999992010011122004+46500+008317FM-12+1345LSMC V0202201N000519999999N9999999N1-01131-01321999999ADDMA1999999085991MD1010021+9999ME1314369OA149900211REMSYN076AAXX  11224 06745 33/// /2201 11113 21132 38599 48436 50002 333 91104 91202;
0137067450999992010011123004+46500+008317FM-12+1345LSMC V0200401N000519999999N9999999N1-01051-01191999999ADDMA1999999086011MD1210011+9999ME1314389OA149900151REMSYN076AAXX  11234 06745 33/// /0401 11105 21119 38601 48438 52001 333 91103 91202;
0137067450999992010011200004+46500+008317FM-12+1345LSMC V0200201N001019999999N9999999N1-01001-01131999999ADDMA1999999086001MD1810011+9999ME1314389OA149900211REMSYN076AAXX  12004 06745 33/// /0202 11100 21113 38600 48438 58001 333 91104 91203;
0137067450999992010011201004+46500+008317FM-12+1345LSMC V0202201N000519999999N9999999N1-00991-01121999999ADDMA1999999086001MD1710011+9999ME1314389OA149900211REMSYN076AAXX  12014 06745 33/// /2201 11099 21112 38600 48438 57001 333 91104 91202;
0137067450999992010011202004+46500+008317FM-12+1345LSMC V0202901N000519999999N9999999N1-00911-01041999999ADDMA1999999085981MD1619999+9999ME1314369OA149900211REMSYN076AAXX  12024 06745 33/// /2901 11091 21104 38598 48436 56/// 333 91104 91202;
0137067450999992010011203004+46500+008317FM-12+1345LSMC V0202101N000519999999N9999999N1-00911-01061999999ADDMA1999999085971MD1710031+9999ME1314359OA149900211REMSYN076AAXX  12034 06745 33/// /2101 11091 21106 38597 48435 57003 333 91104 91202;
0137067450999992010011204004+46500+008317FM-12+1345LSMC V0209999C000019999999N9999999N1-00861-00981999999ADDMA1999999085961MD1710041+9999ME1314349OA149900151REMSYN076AAXX  12044 06745 33/// /0000 11086 21098 38596 48434 57004 333 91103 91202;
0137067450999992010011205004+46500+008317FM-12+1345LSMC V0209999C000019999999N9999999N1-01001-01091999999ADDMA1999999085931MD1710051+9999ME1314319OA149900151REMSYN076AAXX  12054 06745 33/// /0000 11100 21109 38593 48431 57005 333 91103 91202;
0323067450999992010011206004+46500+008317FM-12+1345LSMC V0201801N000510054019N0100001N1-01271-01331999999ADDAA124000091AJ100749199999999AL19900091GA1081+005401071GF108991999999004501999999GJ101989IA1239IA2999-01709KA1999N-01551MA1999999085931MD1710041+9999ME1314309OA149900211REMSYN124AAXX  12064 06745 32460 81801 11127 21133 38593 48430 57004 333 21155 3/117 47074 55033 70000 88718 90768 93100 91104 91203;EQDQ01  00002PRCP24
0137067450999992010011207004+46500+008317FM-12+1345LSMC V0201701N000519999999N9999999N1-01341-01421999999ADDMA1999999085931MD1710031+9999ME1314309OA149900151REMSYN076AAXX  12074 06745 33/// /1701 11134 21142 38593 48430 57003 333 91103 91202;
0137067450999992010011208004+46500+008317FM-12+1345LSMC V0200401N000519999999N9999999N1-01351-01411999999ADDMA1999999085911MD1719999+9999ME1314289OA149900211REMSYN076AAXX  12084 06745 33/// /0401 11135 21141 38591 48428 57/// 333 91104 91203;
0179067450999992010011209004+46500+008317FM-12+1345LSMC V0200701N000512200019N0700001N1-01541-01621999999ADDGA1001+999999999GF100991001001999999001001MA1999999085891MD1710041+9999ME1314269OA149900211REMSYN076AAXX  12094 06745 32/88 00701 11154 21162 38589 48426 57004 333 91104 91203;
0137067450999992010011210004+46500+008317FM-12+1345LSMC V0209999C000019999999N9999999N1-01391-01491999999ADDMA1999999085831MD1810101+9999ME1314219OA149900151REMSYN076AAXX  12104 06745 33/// /0000 11139 21149 38583 48421 58010 333 91103 91202;
0137067450999992010011211004+46500+008317FM-12+1345LSMC V0200901N000519999999N9999999N1-01091-01271999999ADDMA1999999085741MD1810171+9999ME1314149OA149900151REMSYN076AAXX  12114 06745 33/// /0901 11109 21127 38574 48414 58017 333 91103 91202;
0137067450999992010011212004+46500+008317FM-12+1345LSMC V0202301N001019999999N9999999N1-00841-01081999999ADDMA1999999085651MD1810241+9999ME1314069OA149900261REMSYN076AAXX  12124 06745 33/// /2302 11084 21108 38565 48406 58024 333 91105 91203;
0137067450999992010011213004+46500+008317FM-12+1345LSMC V0201101N003619999999N9999999N1-00091-00901999999ADDMA1999999085611MD1610221+9999ME1314049OA149900821REMSYN076AAXX  12134 06745 33/// /1107 11009 21090 38561 48404 56022 333 91116 91209;
0096067450999992010011214004+46500+008317FM-12+1345LSMC V0201001N006719999999N9999999N1-00101-00931999999ADDMA1999999085601ME1314039REMSYN060AAXX  12144 06745 33/// /1013 11010 21093 38560 48403 5////;
0179067450999992010011215004+46500+008317FM-12+1345LSMC V0200901N005712200019N0700001N1-00161-01001999999ADDGA1001+999999999GF100991001001999999001001MA1999999085561MD1810091+9999ME1314009OA149901341REMSYN076AAXX  12154 06745 32/88 00911 11016 21100 38556 48400 58009 333 91126 91213;
0137067450999992010011216004+46500+008317FM-12+1345LSMC V0200701N006719999999N9999999N1-00201-01001999999ADDMA1999999085531MD1810081+9999ME1313979OA149901341REMSYN076AAXX  12164 06745 33/// /0713 11020 21100 38553 48397 58008 333 91126 91214;
0137067450999992010011217004+46500+008317FM-12+1345LSMC V0200701N006719999999N9999999N1-00231-00971999999ADDMA1999999085531MD1710071+9999ME1313979OA149901391REMSYN076AAXX  12174 06745 33/// /0713 11023 21097 38553 48397 57007 333 91127 91215;
0249067450999992010011218004+46500+008317FM-12+1345LSMC V0200601N004612200019N0700001N1-00461-00951999999ADDAJ100749199999999AL19900091GA1001+999999999GF100991001001999999001001IA1279KA1120M-00071MA1999999085551MD1510011+9999ME1313989OA149901441REMSYN100AAXX  12184 06745 32/88 00609 11046 21095 38555 48398 55001 333 11007 43074 90766 93100 91128 91215;
0137067450999992010011219004+46500+008317FM-12+1345LSMC V0202001N001019999999N9999999N1-00711-00981999999ADDMA1999999085591MD1210061+9999ME1314019OA149901441REMSYN076AAXX  12194 06745 33/// /2002 11071 21098 38559 48401 52006 333 91128 91212;
0137067450999992010011220004+46500+008317FM-12+1345LSMC V0202601N000519999999N9999999N1-00831-01051999999ADDMA1999999085621MD1210091+9999ME1314049OA149901341REMSYN076AAXX  12204 06745 33/// /2601 11083 21105 38562 48404 52009 333 91126 91210;
0137067450999992010011221004+46500+008317FM-12+1345LSMC V0202501N001519999999N9999999N1-00971-01161999999ADDMA1999999085601MD1010051+9999ME1314029OA149901441REMSYN076AAXX  12214 06745 33/// /2503 11097 21116 38560 48402 50005 333 91128 91215;
0137067450999992010011222004+46500+008317FM-12+1345LSMC V0209999C000019999999N9999999N1-00911-01061999999ADDMA1999999085601MD1010011+9999ME1314029OA149900361REMSYN076AAXX  12224 06745 33/// /0000 11091 21106 38560 48402 50001 333 91107 91203;
0137067450999992010011223004+46500+008317FM-12+1345LSMC V0202301N000519999999N9999999N1-00931-01071999999ADDMA1999999085471MD1710151+9999ME1313909OA149900211REMSYN076AAXX  12234 06745 33/// /2301 11093 21107 38547 48390 57015 333 91104 91202;
0137067450999992010011300004+46500+008317FM-12+1345LSMC V0200801N001019999999N9999999N1-00761-00961999999ADDMA1999999085551MD1710051+9999ME1313989OA149901441REMSYN076AAXX  13004 06745 33/// /0802 11076 21096 38555 48398 57005 333 91128 91215;
0137067450999992010011301004+46500+008317FM-12+1345LSMC V0200701N000519999999N9999999N1-00691-00891999999ADDMA1999999085511MD1710091+9999ME1313949OA149900261REMSYN076AAXX  13014 06745 33/// /0701 11069 21089 38551 48394 57009 333 91105 91203;
0137067450999992010011302004+46500+008317FM-12+1345LSMC V0203601N000519999999N9999999N1-00761-00881999999ADDMA1999999085451MD1819999+9999ME1313889OA149900211REMSYN076AAXX  13024 06745 33/// /3601 11076 21088 38545 48388 58/// 333 91104 91203;
0137067450999992010011303004+46500+008317FM-12+1345LSMC V0209999C000019999999N9999999N1-00781-00901999999ADDMA1999999085401MD1719999+9999ME1313849OA149900261REMSYN076AAXX  13034 06745 33/// /0000 11078 21090 38540 48384 57/// 333 91105 91203;
0137067450999992010011304004+46500+008317FM-12+1345LSMC V0200601N001019999999N9999999N1-00711-00871999999ADDMA1999999085371MD1610141+9999ME1313819OA149900211REMSYN076AAXX  13044 06745 33/// /0602 11071 21087 38537 48381 56014 333 91104 91202;
0137067450999992010011305004+46500+008317FM-12+1345LSMC V0202101N000519999999N9999999N1-00781-00871999999ADDMA1999999085341MD1610111+9999ME1313789OA149900211REMSYN076AAXX  13054 06745 33/// /2101 11078 21087 38534 48378 56011 333 91104 91203;
0323067450999992010011306004+46500+008317FM-12+1345LSMC V0200801N001010054019N0150001N1-00711-00841999999ADDAA124000091AJ100749199999999AL19900091GA1081+005401071GF108991999999004501999999GJ102289IA1239IA2999-01209KA1999N-01081MA1999999085361MD1510041+9999ME1313809OA149901341REMSYN124AAXX  13064 06745 32465 80802 11071 21084 38536 48380 55004 333 21108 3/112 47074 55038 70000 88718 90768 93100 91126 91210;EQDQ01  00002PRCP24
0137067450999992010011307004+46500+008317FM-12+1345LSMC V0200701N001019999999N9999999N1-00741-00851999999ADDMA1999999085401MD1210031+9999ME1313849OA149900211REMSYN076AAXX  13074 06745 33/// /0702 11074 21085 38540 48384 52003 333 91104 91202;
0122067450999992010011308004+46500+008317FM-12+1345LSMC V0200801N000519999999N9999999N1+99999+99999999999ADDMA1999999085441MD1310101+9999OA149900151REMSYN070AAXX  13084 06745 33/// /0801 1//// 2//// 38544 53010 333 91103 91202;
0122067450999992010011309004+46500+008317FM-12+1345LSMC V0200101N000519999999N9999999N1+99999+99999999999ADDMA1999999085481MD1310121+9999OA149900211REMSYN070AAXX  13094 06745 33/// /0101 1//// 2//// 38548 53012 333 91104 91203;
0137067450999992010011310004+46500+008317FM-12+1345LSMC V0200401N000519999999N9999999N1-00471-00721999999ADDMA1999999085501MD1110101+9999ME1313949OA149900101REMSYN076AAXX  13104 06745 33/// /0401 11047 21072 38550 48394 51010 333 91102 91202;
0137067450999992010011311004+46500+008317FM-12+1345LSMC V0202501N001019999999N9999999N1-00421-00711999999ADDMA1999999085481MD1010041+9999ME1313929OA149900151REMSYN076AAXX  13114 06745 33/// /2502 11042 21071 38548 48392 50004 333 91103 91202;
0185067450999992010011312004+46500+008317FM-12+1345LSMC V0202601N000510063019N0300001N1-00311-00741999999ADDGA1081+006301071GF108991999999008001999999MA1999999085451MD1710031+9999ME1313899OA149900211REMSYN082AAXX  13124 06745 32580 82601 11031 21074 38545 48389 57003 333 88721 91104 91203;
0137067450999992010011313004+46500+008317FM-12+1345LSMC V0202601N001019999999N9999999N1-00271-00711999999ADDMA1999999085431MD1710071+9999ME1313879OA149900151REMSYN076AAXX  13134 06745 33/// /2602 11027 21071 38543 48387 57007 333 91103 91203;
0137067450999992010011314004+46500+008317FM-12+1345LSMC V0202501N001019999999N9999999N1-00231-00571999999ADDMA1999999085441MD1719999+9999ME1313889OA149900151REMSYN076AAXX  13144 06745 33/// /2502 11023 21057 38544 48388 57/// 333 91103 91203;
0204067450999992010011315004+46500+008317FM-12+1345LSMC V0209999C000010054019N0300001N1-00221-00611999999ADDGA1081+005401071GF108991999999004501999999MA1999999085451MD1410001+9999ME1313899OA149900151REMSYN082AAXX  13154 06745 32480 80000 11022 21061 38545 48389 53000 333 88718 91103 91203;EQDQ01+000032APCTEN
0137067450999992010011316004+46500+008317FM-12+1345LSMC V0202401N001019999999N9999999N1-00231-00561999999ADDMA1999999085481MD1210051+9999ME1313929OA149900101REMSYN076AAXX  13164 06745 33/// /2402 11023 21056 38548 48392 52005 333 91102 91202;
0137067450999992010011317004+46500+008317FM-12+1345LSMC V0209999C000019999999N9999999N1-00311-00471999999ADDMA1999999085541MD1310101+9999ME1313989OA149900101REMSYN076AAXX  13174 06745 33/// /0000 11031 21047 38554 48398 53010 333 91102 91202;
0264067450999992010011318004+46500+008317FM-12+1345LSMC V0209999C000010042019N0030001N1-00351-00401999999ADDAJ100759199999999AL11200191AY171061AY271061GA1081+004201071GF108991999999004501999999IA1239MA1999999085571MD1110121+9999ME1314009MW1701OA149900151REMSYN106AAXX  13184 06745 31430 80000 11035 21040 38557 48400 51012 77077 333 47075 88714 90766 93101 91103 91203;
0154067450999992010011319004+46500+008317FM-12+1345LSMC V0202301N000519999999N9999999N1-00381-00401999999ADDAA101000021MA1999999085601MD1219999+9999ME1314039OA149900051REMSYN082AAXX  13194 06745 23/// /2301 11038 21040 38560 48403 52/// 333 69915 91101 91201;
0096067450999992010011400004+46500+008317FM-12+1345LSMC V0209999C000019999999N9999999N1-00781-00821999999ADDMA1999999085501ME1313939REMSYN060AAXX  14004 06745 43/// /0000 11078 21082 38550 48393 5////;
0137067450999992010011401004+46500+008317FM-12+1345LSMC V0209999C000019999999N9999999N1-00971-01031999999ADDMA1999999085491MD1619999+9999ME1313929OA149900151REMSYN076AAXX  14014 06745 33/// /0000 11097 21103 38549 48392 56/// 333 91103 91202;
0137067450999992010011402004+46500+008317FM-12+1345LSMC V0200401N000519999999N9999999N1-01121-01211999999ADDMA1999999085451MD1819999+9999ME1313889OA149900151REMSYN076AAXX  14024 06745 33/// /0401 11112 21121 38545 48388 58/// 333 91103 91202;
0096067450999992010011403004+46500+008317FM-12+1345LSMC V0200601N001019999999N9999999N1-01221-01331999999ADDMA1999999085411ME1313849REMSYN060AAXX  14034 06745 33/// /0602 11122 21133 38541 48384 5////;
0137067450999992010011404004+46500+008317FM-12+1345LSMC V0200601N001019999999N9999999N1-01261-01371999999ADDMA1999999085421MD1710071+9999ME1313859OA149900151REMSYN076AAXX  14044 06745 33/// /0602 11126 21137 38542 48385 57007 333 91103 91202;
0137067450999992010011405004+46500+008317FM-12+1345LSMC V0200401N000519999999N9999999N1-01371-01501999999ADDMA1999999085401MD1710051+9999ME1313839OA149900151REMSYN076AAXX  14054 06745 33/// /0401 11137 21150 38540 48383 57005 333 91103 91203;
0331067450999992010011406004+46500+008317FM-12+1345LSMC V0209999C000012200019N0700001N1-01441-01581999999ADDAA112000021AA224000021AJ100769199999999AL10600091AL29900191GA1001+999999999GF100991001001999999001001GJ100009IA1239IA2999-01709KA1999N-01431MA1999999085381MD1710031+9999ME1313819OA149900151REMSYN130AAXX  14064 06745 02/88 00000 11144 21158 38538 48381 57003 69912 333 21143 3/117 47076 55000 60005 70001 90768 93101 91103 91203;
0137067450999992010011407004+46500+008317FM-12+1345LSMC V0201601N000519999999N9999999N1-01381-01511999999ADDMA1999999085411MD1510011+9999ME1313849OA149900151REMSYN076AAXX  14074 06745 33/// /1601 11138 21151 38541 48384 55001 333 91103 91202;
0137067450999992010011408004+46500+008317FM-12+1345LSMC V0200501N000519999999N9999999N1-01361-01491999999ADDMA1999999085441MD1219999+9999ME1313879OA149900151REMSYN076AAXX  14084 06745 33/// /0501 11136 21149 38544 48387 52/// 333 91103 91202;
0185067450999992010011409004+46500+008317FM-12+1345LSMC V0209999C000012200019N0700001N1-01361-01491999999ADDGA1031+045001031GF103991999999999999999999MA1999999085461MD1110081+9999ME1313889OA149900151REMSYN082AAXX  14094 06745 32988 30000 11136 21149 38546 48388 51008 333 83365 91103 91203;
0137067450999992010011410004+46500+008317FM-12+1345LSMC V0209999C000019999999N9999999N1-01311-01441999999ADDMA1999999085451MD1010041+9999ME1313889OA149900151REMSYN076AAXX  14104 06745 33/// /0000 11131 21144 38545 48388 50004 333 91103 91202;
0156067450999992010011411004+46500+008317FM-12+1345LSMC V0202201N000519999999N9999999N1-00931-01001999999ADDMA1999999085441MD1410001+9999ME1313879OA149900151REMSYN076AAXX  14114 06745 33/// /2201 11093 21100 38544 48387 58000 333 91103 91201;EQDQ01+000082APCTEN
0137067450999992010011412004+46500+008317FM-12+1345LSMC V0201301N001519999999N9999999N1-00531-00551999999ADDMA1999999085361MD1810101+9999ME1313819OA149900571REMSYN076AAXX  14124 06745 33/// /1303 11053 21055 38536 48381 58010 333 91111 91203;
0137067450999992010011413004+46500+008317FM-12+1345LSMC V0201001N004619999999N9999999N1+00041-00831999999ADDMA1999999085371MD1710081+9999ME1313829OA149900881REMSYN076AAXX  14134 06745 33/// /1009 10004 21083 38537 48382 57008 333 91117 91209;
0137067450999992010011414004+46500+008317FM-12+1345LSMC V0201001N003619999999N9999999N1+00061-00841999999ADDMA1999999085391MD1510051+9999ME1313849OA149900881REMSYN076AAXX  14144 06745 33/// /1007 10006 21084 38539 48384 55005 333 91117 91209;
0185067450999992010011415004+46500+008317FM-12+1345LSMC V0201201N002110084019N0500001N1+00001-00771999999ADDGA1071+008401061GF107991999999008001999999MA1999999085411MD1210051+9999ME1313869OA149900881REMSYN082AAXX  14154 06745 32584 71204 10000 21077 38541 48386 52005 333 87628 91117 91209;
0137067450999992010011416004+46500+008317FM-12+1345LSMC V0201301N000519999999N9999999N1-00291-00651999999ADDMA1999999085401MD1210031+9999ME1313859OA149900771REMSYN076AAXX  14164 06745 33/// /1301 11029 21065 38540 48385 52003 333 91115 91208;
0137067450999992010011417004+46500+008317FM-12+1345LSMC V0209999C000019999999N9999999N1-00391-00641999999ADDMA1999999085441MD1210051+9999ME1313889OA149900311REMSYN076AAXX  14174 06745 33/// /0000 11039 21064 38544 48388 52005 333 91106 91203;
0255067450999992010011418004+46500+008317FM-12+1345LSMC V0202701N000510084019N0500001N1-00581-00731999999ADDAJ100759199999999AL19900091GA1071+008401061GF107991999999008001999999IA1279KA1120M+00071MA1999999085471MD1210061+9999ME1313919OA149900881REMSYN106AAXX  14184 06745 32584 72701 11058 21073 38547 48391 52006 333 10007 43075 87628 90766 93100 91117 91209;
0137067450999992010011419004+46500+008317FM-12+1345LSMC V0200601N000519999999N9999999N1-00561-00761999999ADDMA1999999085551MD1310151+9999ME1313989OA149900151REMSYN076AAXX  14194 06745 33/// /0601 11056 21076 38555 48398 53015 333 91103 91201;
0137067450999992010011420004+46500+008317FM-12+1345LSMC V0209999C000019999999N9999999N1-00781-00911999999ADDMA1999999085581MD1310141+9999ME1314009OA149900211REMSYN076AAXX  14204 06745 33/// /0000 11078 21091 38558 48400 53014 333 91104 91202;
0137067450999992010011421004+46500+008317FM-12+1345LSMC V0200601N000519999999N9999999N1-00861-00931999999ADDMA1999999085651MD1210181+9999ME1314069OA149900311REMSYN076AAXX  14214 06745 33/// /0601 11086 21093 38565 48406 52018 333 91106 91203;
0137067450999992010011422004+46500+008317FM-12+1345LSMC V0209999C000019999999N9999999N1-00891-00951999999ADDMA1999999085731MD1310181+9999ME1314149OA149900151REMSYN076AAXX  14224 06745 33/// /0000 11089 21095 38573 48414 53018 333 91103 91201;
0137067450999992010011423004+46500+008317FM-12+1345LSMC V0203001N000519999999N9999999N1-01051-01121999999ADDMA1999999085781MD1310201+9999ME1314189OA149900261REMSYN076AAXX  14234 06745 33/// /3001 11105 21112 38578 48418 53020 333 91105 91201;
0137067450999992010011500004+46500+008317FM-12+1345LSMC V0209999C000019999999N9999999N1-01071-01161999999ADDMA1999999085801MD1110151+9999ME1314199OA149900881REMSYN076AAXX  15004 06745 33/// /0000 11107 21116 38580 48419 51015 333 91117 91209;
0137067450999992010011501004+46500+008317FM-12+1345LSMC V0200401N001519999999N9999999N1-01081-01171999999ADDMA1999999085791MD1210061+9999ME1314189OA149900211REMSYN076AAXX  15014 06745 33/// /0403 11108 21117 38579 48418 52006 333 91104 91203;
0137067450999992010011502004+46500+008317FM-12+1345LSMC V0200501N002619999999N9999999N1-01171-01271999999ADDMA1999999085871MD1210091+9999ME1314259OA149900311REMSYN076AAXX  15024 06745 33/// /0505 11117 21127 38587 48425 52009 333 91106 91205;
0096067450999992010011503004+46500+008317FM-12+1345LSMC V0200701N000519999999N9999999N1-01331-01451999999ADDMA1999999085991ME1314359REMSYN060AAXX  15034 06745 33/// /0701 11133 21145 38599 48435 5////;
0137067450999992010011504004+46500+008317FM-12+1345LSMC V0209999C000019999999N9999999N1-01401-01531999999ADDMA1999999086031MD1110241+9999ME1314399OA149900311REMSYN076AAXX  15044 06745 33/// /0000 11140 21153 38603 48439 51024 333 91106 91203;
0137067450999992010011505004+46500+008317FM-12+1345LSMC V0200801N000519999999N9999999N1-01431-01571999999ADDMA1999999086081MD1110211+9999ME1314439OA149900151REMSYN076AAXX  15054 06745 33/// /0801 11143 21157 38608 48443 51021 333 91103 91202;
0317067450999992010011506004+46500+008317FM-12+1345LSMC V0209999C000012200019N0500001N1-01501-01651999999ADDAA124000091AJ100759199999999AL19900091GA1001+999999999GF100991001001999999001001GJ100489IA1239IA2999-01909KA1999N-01521MA1999999086161MD1310171+9999ME1314509OA149900311REMSYN118AAXX  15064 06745 32/84 00000 11150 21165 38616 48450 53017 333 21152 3/119 47075 55008 70000 90768 93100 91106 91205;EQDQ01  00002PRCP24
0137067450999992010011507004+46500+008317FM-12+1345LSMC V0209999C000019999999N9999999N1-01501-01651999999ADDMA1999999086251MD1319999+9999ME1314589OA149900261REMSYN076AAXX  15074 06745 33/// /0000 11150 21165 38625 48458 53/// 333 91105 91203;
0137067450999992010011508004+46500+008317FM-12+1345LSMC V0200601N000519999999N9999999N1-01331-01461999999ADDMA1999999086341MD1219999+9999ME1314669OA149900261REMSYN076AAXX  15084 06745 33/// /0601 11133 21146 38634 48466 52/// 333 91105 91203;
0185067450999992010011509004+46500+008317FM-12+1345LSMC V0209999C000012200019N0700001N1-01361-01501999999ADDGA1041+015001061GF104991999999017501999999MA1999999086451MD1210291+9999ME1314769OA149900261REMSYN082AAXX  15094 06745 32788 40000 11136 21150 38645 48476 52029 333 84650 91105 91203;
0137067450999992010011510004+46500+008317FM-12+1345LSMC V0202601N000519999999N9999999N1-01361-01501999999ADDMA1999999086531MD1219999+9999ME1314839OA149900151REMSYN076AAXX  15104 06745 33/// /2601 11136 21150 38653 48483 52/// 333 91103 91202;
0137067450999992010011511004+46500+008317FM-12+1345LSMC V0200601N001019999999N9999999N1-00981-01061999999ADDMA1999999086541MD1210201+9999ME1314869OA149900151REMSYN076AAXX  15114 06745 33/// /0602 11098 21106 38654 48486 52020 333 91103 91202;
0185067450999992010011512004+46500+008317FM-12+1345LSMC V0209999C000012200019N0500001N1-00941-01021999999ADDGA1041+011401061GF104991999999012501999999MA1999999086521MD1010071+9999ME1314849OA149900311REMSYN082AAXX  15124 06745 32684 40000 11094 21102 38652 48484 50007 333 84638 91106 91205;
0137067450999992010011513004+46500+008317FM-12+1345LSMC V0200401N000519999999N9999999N1-00561-00601999999ADDMA1999999086521MD1710011+9999ME1314869OA149900101REMSYN076AAXX  15134 06745 33/// /0401 11056 21060 38652 48486 57001 333 91102 91201;
0137067450999992010011514004+46500+008317FM-12+1345LSMC V0200801N000519999999N9999999N1-00301-00771999999ADDMA1999999086521MD1510021+9999ME1314889OA149900151REMSYN076AAXX  15144 06745 33/// /0801 11030 21077 38652 48488 55002 333 91103 91202;
0185067450999992010011515004+46500+008317FM-12+1345LSMC V0201801N000512200019N0600001N1-00331-00721999999ADDGA1041+006301061GF104991999999008001999999MA1999999086581MD1310061+9999ME1314939OA149900211REMSYN082AAXX  15154 06745 32586 41801 11033 21072 38658 48493 53006 333 84621 91104 91203;
0137067450999992010011516004+46500+008317FM-12+1345LSMC V0209999C000019999999N9999999N1-00351-00741999999ADDMA1999999086651MD1210131+9999ME1314999OA149900211REMSYN076AAXX  15164 06745 33/// /0000 11035 21074 38665 48499 52013 333 91104 91203;
0137067450999992010011517004+46500+008317FM-12+1345LSMC V0202901N001019999999N9999999N1-00721-00851999999ADDMA1999999086751MD1210231+9999ME1315069OA149900151REMSYN076AAXX  15174 06745 33/// /2902 11072 21085 38675 48506 52023 333 91103 91202;
0255067450999992010011518004+46500+008317FM-12+1345LSMC V0200601N001012200019N0600001N1-00821-00941999999ADDAJ100759199999999AL19900091GA1041+006301061GF104991999999008001999999IA1279KA1120M-00291MA1999999086821MD1310241+9999ME1315129OA149900261REMSYN106AAXX  15184 06745 32586 40602 11082 21094 38682 48512 53024 333 11029 43075 84621 90766 93100 91105 91203;
0137067450999992010011519004+46500+008317FM-12+1345LSMC V0200701N000519999999N9999999N1-01041-01111999999ADDMA1999999086851MD1210201+9999ME1315139OA149900211REMSYN076AAXX  15194 06745 33/// /0701 11104 21111 38685 48513 52020 333 91104 91202;
0137067450999992010011520004+46500+008317FM-12+1345LSMC V0200701N001019999999N9999999N1-01121-01211999999ADDMA1999999086871MD1210121+9999ME1315149OA149900151REMSYN076AAXX  15204 06745 33/// /0702 11112 21121 38687 48514 52012 333 91103 91202;
0137067450999992010011521004+46500+008317FM-12+1345LSMC V0200701N000519999999N9999999N1-01261-01371999999ADDMA1999999086881MD1210061+9999ME1315149OA149900211REMSYN076AAXX  15214 06745 33/// /0701 11126 21137 38688 48514 52006 333 91104 91202;
0137067450999992010011522004+46500+008317FM-12+1345LSMC V0201401N000519999999N9999999N1-01411-01541999999ADDMA1999999086891MD1210041+9999ME1315149OA149900211REMSYN076AAXX  15224 06745 33/// /1401 11141 21154 38689 48514 52004 333 91104 91202;
0137067450999992010011523004+46500+008317FM-12+1345LSMC V0209999C000019999999N9999999N1-01511-01661999999ADDMA1999999086901MD1210031+9999ME1315149OA149900261REMSYN076AAXX  15234 06745 33/// /0000 11151 21166 38690 48514 52003 333 91105 91203;
0137067450999992010011600004+46500+008317FM-12+1345LSMC V0200301N000519999999N9999999N1-01481-01621999999ADDMA1999999086881MD1010001+9999ME1315139OA149900261REMSYN076AAXX  16004 06745 33/// /0301 11148 21162 38688 48513 50000 333 91105 91203;
0137067450999992010011601004+46500+008317FM-12+1345LSMC V0200401N000519999999N9999999N1-01531-01681999999ADDMA1999999086851MD1710041+9999ME1315109OA149900211REMSYN076AAXX  16014 06745 33/// /0401 11153 21168 38685 48510 57004 333 91104 91203;
0137067450999992010011602004+46500+008317FM-12+1345LSMC V0200501N000519999999N9999999N1-01601-01761999999ADDMA1999999086851MD1710051+9999ME1315099OA149900211REMSYN076AAXX  16024 06745 33/// /0501 11160 21176 38685 48509 57005 333 91104 91203;
0137067450999992010011603004+46500+008317FM-12+1345LSMC V0200501N001519999999N9999999N1-01641-01811999999ADDMA1999999086881MD1519999+9999ME1315129OA149900261REMSYN076AAXX  16034 06745 33/// /0503 11164 21181 38688 48512 55/// 333 91105 91203;
0137067450999992010011604004+46500+008317FM-12+1345LSMC V0200501N000519999999N9999999N1-01701-01881999999ADDMA1999999086871MD1210021+9999ME1315109OA149900211REMSYN076AAXX  16044 06745 33/// /0501 11170 21188 38687 48510 52002 333 91104 91203;
0137067450999992010011605004+46500+008317FM-12+1345LSMC V0200801N000519999999N9999999N1-01731-01911999999ADDMA1999999086831MD1810021+9999ME1315079OA149900211REMSYN076AAXX  16054 06745 33/// /0801 11173 21191 38683 48507 58002 333 91104 91203;
0317067450999992010011606004+46500+008317FM-12+1345LSMC V0202401N000512200019N0400001N1-01761-01951999999ADDAA124000091AJ100759199999999AL19900091GA1001+999999999GF100991001001999999001001GJ100849IA1239IA2999-02209KA1999N-01811MA1999999086811MD1710071+9999ME1315059OA149900261REMSYN118AAXX  16064 06745 32/82 02401 11176 21195 38681 48505 57007 333 21181 3/122 47075 55014 70000 90768 93100 91105 91203;EQDQ01  00002PRCP24
0137067450999992010011607004+46500+008317FM-12+1345LSMC V0203201N000519999999N9999999N1-01701-01881999999ADDMA1999999086831MD1710041+9999ME1315079OA149900211REMSYN076AAXX  16074 06745 33/// /3201 11170 21188 38683 48507 57004 333 91104 91203;
0137067450999992010011608004+46500+008317FM-12+1345LSMC V0200601N001019999999N9999999N1-01681-01851999999ADDMA1999999086801MD1710031+9999ME1315049OA149900211REMSYN076AAXX  16084 06745 33/// /0602 11168 21185 38680 48504 57003 333 91104 91203;
0185067450999992010011609004+46500+008317FM-12+1345LSMC V0200501N000512200019N0700001N1-01731-01911999999ADDGA1011+066001001GF101991999999999999999999MA1999999086741MD1710071+9999ME1314999OA149900211REMSYN082AAXX  16094 06745 32988 10501 11173 21191 38674 48499 57007 333 81072 91104 91203;
0137067450999992010011610004+46500+008317FM-12+1345LSMC V0200601N001019999999N9999999N1-01481-01631999999ADDMA1999999086681MD1710151+9999ME1314959OA149900151REMSYN076AAXX  16104 06745 33/// /0602 11148 21163 38668 48495 57015 333 91103 91202;
0137067450999992010011611004+46500+008317FM-12+1345LSMC V0200601N001519999999N9999999N1-01311-01441999999ADDMA1999999086631MD1810171+9999ME1314929OA149900151REMSYN076AAXX  16114 06745 33/// /0603 11131 21144 38663 48492 58017 333 91103 91203;
0185067450999992010011612004+46500+008317FM-12+1345LSMC V0209999C000010570019N0400001N1-00911-00981999999ADDGA1061+057001041GF106991999999999999999999MA1999999086581MD1810161+9999ME1314909OA149900211REMSYN082AAXX  16124 06745 32982 60000 11091 21098 38658 48490 58016 333 86469 91104 91203;
0137067450999992010011613004+46500+008317FM-12+1345LSMC V0202101N000519999999N9999999N1-00741-00781999999ADDMA1999999086481MD1810201+9999ME1314829OA149900151REMSYN076AAXX  16134 06745 33/// /2101 11074 21078 38648 48482 58020 333 91103 91202;
0137067450999992010011614004+46500+008317FM-12+1345LSMC V0209999C000019999999N9999999N1-00561-00591999999ADDMA1999999086421MD1619999+9999ME1314779OA149900211REMSYN076AAXX  16144 06745 33/// /0000 11056 21059 38642 48477 56/// 333 91104 91202;
0185067450999992010011615004+46500+008317FM-12+1345LSMC V0201401N000510063019N0400001N1-00391-00661999999ADDGA1081+006301071GF108991999999008001999999MA1999999086391MD1610191+9999ME1314759OA149900211REMSYN082AAXX  16154 06745 32582 81401 11039 21066 38639 48475 56019 333 88721 91104 91203;
0137067450999992010011616004+46500+008317FM-12+1345LSMC V0202101N000519999999N9999999N1-00461-00711999999ADDMA1999999086381MD1710101+9999ME1314749OA149900261REMSYN076AAXX  16164 06745 33/// /2101 11046 21071 38638 48474 57010 333 91105 91203;
0137067450999992010011617004+46500+008317FM-12+1345LSMC V0209999C000019999999N9999999N1-00411-00681999999ADDMA1999999086391MD1710031+9999ME1314759OA149900311REMSYN076AAXX  16174 06745 33/// /0000 11041 21068 38639 48475 57003 333 91106 91203;
0156067450999992010011618004+46500+008317FM-12+1345LSMC V0202601N001019999999N9999999N1-00341-00681999999ADDKA1120M-00321MA1999999086401MD1510011+9999ME1314769OA149900311REMSYN082AAXX  16184 06745 33/// /2602 11034 21068 38640 48476 55001 333 11032 91106 91203;
0137067450999992010011619004+46500+008317FM-12+1345LSMC V0202001N000519999999N9999999N1-00331-00581999999ADDMA1999999086401MD1010021+9999ME1314769OA149900311REMSYN076AAXX  16194 06745 33/// /2001 11033 21058 38640 48476 50002 333 91106 91203;
0137067450999992010011620004+46500+008317FM-12+1345LSMC V0202301N001019999999N9999999N1-00271-00521999999ADDMA1999999086421MD1010031+9999ME1314799OA149900311REMSYN076AAXX  16204 06745 33/// /2302 11027 21052 38642 48479 50003 333 91106 91204;
0137067450999992010011621004+46500+008317FM-12+1345LSMC V0203501N000519999999N9999999N1-00231-00541999999ADDMA1999999086371MD1710031+9999ME1314749OA149900311REMSYN076AAXX  16214 06745 33/// /3501 11023 21054 38637 48474 57003 333 91106 91204;
0137067450999992010011622004+46500+008317FM-12+1345LSMC V0203101N001019999999N9999999N1-00111-00571999999ADDMA1999999086431MD1210031+9999ME1314809OA149900361REMSYN076AAXX  16224 06745 33/// /3102 11011 21057 38643 48480 52003 333 91107 91203;
0137067450999992010011623004+46500+008317FM-12+1345LSMC V0203101N001519999999N9999999N1-00021-00471999999ADDMA1999999086441MD1210021+9999ME1314829OA149900671REMSYN076AAXX  16234 06745 33/// /3103 11002 21047 38644 48482 52002 333 91113 91206;
0160067450999992010011700004+46500+008317FM-12+1345LSMC V0200101N000519999999N9999999N1-00201-00211999999ADDAA106000391MA1999999086471MD1210101+9999ME1314849OA149900671REMSYN088AAXX  17004 06745 03/// /0101 11020 21021 38647 48484 52010 69931 333 69935 91113 91206;
0154067450999992010011701004+46500+008317FM-12+1345LSMC V0200401N000519999999N9999999N1-00231-00231999999ADDAA101000591MA1999999086501MD1210071+9999ME1314869OA149900211REMSYN082AAXX  17014 06745 23/// /0401 11023 21023 38650 48486 52007 333 69945 91104 91202;
0154067450999992010011702004+46500+008317FM-12+1345LSMC V0200601N000519999999N9999999N1-00221-00221999999ADDAA101000891MA1999999086481MD1219999+9999ME1314849OA149900151REMSYN082AAXX  17024 06745 23/// /0601 11022 21022 38648 48484 52/// 333 69975 91103 91202;
0096067450999992010011703004+46500+008317FM-12+1345LSMC V0200301N001019999999N9999999N1-00251-00251999999ADDMA1999999086411ME1314789REMSYN060AAXX  17034 06745 43/// /0302 11025 21025 38641 48478 5////;
0137067450999992010011704004+46500+008317FM-12+1345LSMC V0200401N000519999999N9999999N1-00261-00261999999ADDMA1999999086341MD1710161+9999ME1314719OA149900151REMSYN076AAXX  17044 06745 33/// /0401 11026 21026 38634 48471 57016 333 91103 91202;
0154067450999992010011705004+46500+008317FM-12+1345LSMC V0209999C000019999999N9999999N1-00251-00251999999ADDAA101000021MA1999999086341MD1719999+9999ME1314719OA149900151REMSYN082AAXX  17054 06745 23/// /0000 11025 21025 38634 48471 57/// 333 69925 91103 91202;
