0137067510999992010010100004+46450+008517FM-12+189899999V0202501N001019999999N9999999N1-00451-01071999999ADDMA1999999078611MD1710101+9999ME1312769OA149900671REMSYN076AAXX  01004 06751 33/// /2502 11045 21107 37861 48276 57010 333 91113 91208;
0137067510999992010010101004+46450+008517FM-12+189899999V0209999C000519999999N9999999N1-00491-01031999999ADDMA1999999078581MD1710131+9999ME1312739OA149900461REMSYN076AAXX  01014 06751 33/// /0001 11049 21103 37858 48273 57013 333 91109 91202;
0137067510999992010010102004+46450+008517FM-12+189899999V0200101N001519999999N9999999N1-00641-01051999999ADDMA1999999078571MD1719999+9999ME1312769OA149900461REMSYN076AAXX  01024 06751 33/// /0103 11064 21105 37857 48276 57/// 333 91109 91203;
0096067510999992010010103004+46450+008517FM-12+189899999V0200201N001019999999N9999999N1-00621-00891999999ADDMA1999999078501ME1312689REMSYN060AAXX  01034 06751 43/// /0202 11062 21089 37850 48268 5////;
0096067510999992010010104004+46450+008517FM-12+189899999V0202601N000519999999N9999999N1-00551-00781999999ADDMA1999999078481ME1312659REMSYN060AAXX  01044 06751 33/// /2601 11055 21078 37848 48265 5////;
0137067510999992010010105004+46450+008517FM-12+189899999V0203501N001019999999N9999999N1-00431-00861999999ADDMA1999999078381MD1710191+9999ME1312529OA149900571REMSYN076AAXX  01054 06751 33/// /3502 11043 21086 37838 48252 57019 333 91111 91204;
0197067510999992010010106004+46450+008517FM-12+189899999V0202501N000519999999N9999999N1-00341-00981999999ADDAA124004691AL13600491GJ100009KA1999N-00641MA1999999078331MD1710171+9999ME1312449OA149900621REMSYN094AAXX  01064 06751 33/// /2501 11034 21098 37833 48244 57017 333 21064 55000 70046 91112 91206;
0137067510999992010010107004+46450+008517FM-12+189899999V0200101N000519999999N9999999N1-00361-00951999999ADDMA1999999078351MD1710131+9999ME1312479OA149900361REMSYN076AAXX  01074 06751 33/// /0101 11036 21095 37835 48247 57013 333 91107 91202;
0137067510999992010010108004+46450+008517FM-12+189899999V0203001N000519999999N9999999N1-00401-00721999999ADDMA1999999078461MD1310081+9999ME1312599OA149900361REMSYN076AAXX  01084 06751 33/// /3001 11040 21072 37846 48259 53008 333 91107 91204;
0137067510999992010010109004+46450+008517FM-12+189899999V0202601N002619999999N9999999N1-00471-00981999999ADDMA1999999078461MD1210131+9999ME1312619OA149900571REMSYN076AAXX  01094 06751 33/// /2605 11047 21098 37846 48261 52013 333 91111 91206;
0137067510999992010010110004+46450+008517FM-12+189899999V0202701N001519999999N9999999N1-00431-00851999999ADDMA1999999078481MD1210131+9999ME1312629OA149900511REMSYN076AAXX  01104 06751 33/// /2703 11043 21085 37848 48262 52013 333 91110 91206;
0137067510999992010010111004+46450+008517FM-12+189899999V0200301N000519999999N9999999N1-00291-00761999999ADDMA1999999078451MD1810011+9999ME1312559OA149900511REMSYN076AAXX  01114 06751 33/// /0301 11029 21076 37845 48255 58001 333 91110 91205;
0137067510999992010010112004+46450+008517FM-12+189899999V0203301N001019999999N9999999N1-00281-00681999999ADDMA1999999078431MD1710031+9999ME1312539OA149900571REMSYN076AAXX  01124 06751 33/// /3302 11028 21068 37843 48253 57003 333 91111 91206;
0137067510999992010010113004+46450+008517FM-12+189899999V0203201N002119999999N9999999N1-00231-00791999999ADDMA1999999078411MD1710071+9999ME1312509OA149900511REMSYN076AAXX  01134 06751 33/// /3204 11023 21079 37841 48250 57007 333 91110 91206;
0137067510999992010010114004+46450+008517FM-12+189899999V0200301N004619999999N9999999N1-00021-00841999999ADDMA1999999078471MD1319999+9999ME1312519OA149900721REMSYN076AAXX  01144 06751 33/// /0309 11002 21084 37847 48251 53/// 333 91114 91209;
0137067510999992010010115004+46450+008517FM-12+189899999V0200201N003619999999N9999999N1-00081-00751999999ADDMA1999999078541MD1210111+9999ME1312609OA149900721REMSYN076AAXX  01154 06751 33/// /0207 11008 21075 37854 48260 52011 333 91114 91209;
0137067510999992010010116004+46450+008517FM-12+189899999V0203501N004119999999N9999999N1-00071-00731999999ADDMA1999999078611MD1210201+9999ME1312679OA149900771REMSYN076AAXX  01164 06751 33/// /3508 11007 21073 37861 48267 52020 333 91115 91208;
0137067510999992010010117004+46450+008517FM-12+189899999V0203601N004119999999N9999999N1-00101-00741999999ADDMA1999999078671MD1210201+9999ME1312739OA149900821REMSYN076AAXX  01174 06751 33/// /3608 11010 21074 37867 48273 52020 333 91116 91209;
0156067510999992010010118004+46450+008517FM-12+189899999V0203601N003119999999N9999999N1-00111-00771999999ADDKA1120M+00051MA1999999078741MD1210201+9999ME1312819OA149900821REMSYN082AAXX  01184 06751 33/// /3606 11011 21077 37874 48281 52020 333 10005 91116 91209;
0137067510999992010010119004+46450+008517FM-12+189899999V0203601N005119999999N9999999N1-00191-00781999999ADDMA1999999078851MD1210241+9999ME1312949OA149901031REMSYN076AAXX  01194 06751 33/// /3610 11019 21078 37885 48294 52024 333 91120 91210;
0137067510999992010010120004+46450+008517FM-12+189899999V0203201N004119999999N9999999N1-00221-01061999999ADDMA1999999078931MD1210261+9999ME1313039OA149901441REMSYN076AAXX  01204 06751 33/// /3208 11022 21106 37893 48303 52026 333 91128 91210;
0137067510999992010010121004+46450+008517FM-12+189899999V0203201N004119999999N9999999N1-00271-01151999999ADDMA1999999079001MD1110261+9999ME1313119OA149901441REMSYN076AAXX  01214 06751 33/// /3208 11027 21115 37900 48311 51026 333 91128 91210;
0137067510999992010010122004+46450+008517FM-12+189899999V0203401N003119999999N9999999N1-00361-01011999999ADDMA1999999079061MD1110211+9999ME1313199OA149901241REMSYN076AAXX  01224 06751 33/// /3406 11036 21101 37906 48319 51021 333 91124 91210;
0137067510999992010010123004+46450+008517FM-12+189899999V0203301N003119999999N9999999N1-00371-01101999999ADDMA1999999079111MD1110181+9999ME1313259OA149900771REMSYN076AAXX  01234 06751 33/// /3306 11037 21110 37911 48325 51018 333 91115 91209;
0137067510999992010010200004+46450+008517FM-12+189899999V0203501N004619999999N9999999N1-00441-01261999999ADDMA1999999079141MD1110141+9999ME1313299OA149901441REMSYN076AAXX  02004 06751 33/// /3509 11044 21126 37914 48329 51014 333 91128 91210;
0137067510999992010010201004+46450+008517FM-12+189899999V0200201N004119999999N9999999N1-00471-01251999999ADDMA1999999079171MD1110111+9999ME1313339OA149900881REMSYN076AAXX  02014 06751 33/// /0208 11047 21125 37917 48333 51011 333 91117 91209;
0096067510999992010010202004+46450+008517FM-12+189899999V0200101N003619999999N9999999N1-00521-01221999999ADDMA1999999079241ME1313419REMSYN060AAXX  02024 06751 33/// /0107 11052 21122 37924 48341 5////;
0137067510999992010010203004+46450+008517FM-12+189899999V0203401N005719999999N9999999N1-00631-01281999999ADDMA1999999079301MD1310161+9999ME1313499OA149901131REMSYN076AAXX  02034 06751 33/// /3411 11063 21128 37930 48349 53016 333 91122 91211;
0137067510999992010010204004+46450+008517FM-12+189899999V0203601N004619999999N9999999N1-00711-01491999999ADDMA1999999079361MD1110191+9999ME1313579OA149901131REMSYN076AAXX  02044 06751 33/// /3609 11071 21149 37936 48357 51019 333 91122 91211;
0137067510999992010010205004+46450+008517FM-12+189899999V0203101N004619999999N9999999N1-00821-01461999999ADDMA1999999079381MD1210141+9999ME1313619OA149901081REMSYN076AAXX  02054 06751 33/// /3109 11082 21146 37938 48361 52014 333 91121 91211;
0216067510999992010010206004+46450+008517FM-12+189899999V0203301N003619999999N9999999N1-00891-01631999999ADDAA124000091AL19900091GJ100249KA1999N-00871MA1999999079421MD1210121+9999ME1313679OA149901701REMSYN094AAXX  02064 06751 33/// /3307 11089 21163 37942 48367 52012 333 21087 55004 70000 91133 91216;EQDQ01  00002PRCP24
0137067510999992010010207004+46450+008517FM-12+189899999V0203301N004119999999N9999999N1-00971-01711999999ADDMA1999999079451MD1210091+9999ME1313719OA149901701REMSYN076AAXX  02074 06751 33/// /3308 11097 21171 37945 48371 52009 333 91133 91216;
0096067510999992010010208004+46450+008517FM-12+189899999V0200101N004119999999N9999999N1-01011-01651999999ADDMA1999999079511ME1313789REMSYN060AAXX  02084 06751 33/// /0108 11101 21165 37951 48378 5////;
0137067510999992010010209004+46450+008517FM-12+189899999V0203201N004619999999N9999999N1-01031-01731999999ADDMA1999999079601MD1210181+9999ME1313879OA149901701REMSYN076AAXX  02094 06751 33/// /3209 11103 21173 37960 48387 52018 333 91133 91216;
0137067510999992010010210004+46450+008517FM-12+189899999V0200401N001019999999N9999999N1-01061-01851999999ADDMA1999999079681MD1210231+9999ME1313959OA149901291REMSYN076AAXX  02104 06751 33/// /0402 11106 21185 37968 48395 52023 333 91125 91213;
0137067510999992010010211004+46450+008517FM-12+189899999V0203201N003619999999N9999999N1-01091-01631999999ADDMA1999999079711MD1210201+9999ME1313999OA149901241REMSYN076AAXX  02114 06751 33/// /3207 11109 21163 37971 48399 52020 333 91124 91210;
0137067510999992010010212004+46450+008517FM-12+189899999V0200401N004119999999N9999999N1-01121-01881999999ADDMA1999999079741MD1210141+9999ME1314029OA149901701REMSYN076AAXX  02124 06751 33/// /0408 11112 21188 37974 48402 52014 333 91133 91216;
0137067510999992010010213004+46450+008517FM-12+189899999V0200201N003119999999N9999999N1-01151-01731999999ADDMA1999999079781MD1210101+9999ME1314079OA149901391REMSYN076AAXX  02134 06751 33/// /0206 11115 21173 37978 48407 52010 333 91127 91209;
0137067510999992010010214004+46450+008517FM-12+189899999V0203601N003619999999N9999999N1-01201-01941999999ADDMA1999999079831MD1219999+9999ME1314139OA149901391REMSYN076AAXX  02144 06751 33/// /3607 11120 21194 37983 48413 52/// 333 91127 91210;
0137067510999992010010215004+46450+008517FM-12+189899999V0203501N004119999999N9999999N1-01221-01781999999ADDMA1999999079901MD1210161+9999ME1314209OA149901701REMSYN076AAXX  02154 06751 33/// /3508 11122 21178 37990 48420 52016 333 91133 91213;
0137067510999992010010216004+46450+008517FM-12+189899999V0203101N005719999999N9999999N1-01241-02772999999ADDMA1999999079971MD1210191+9999ME1314279OA149901701REMSYN076AAXX  02164 06751 33/// /3111 11124 21277 37997 48427 52019 333 91133 91213;
0137067510999992010010217004+46450+008517FM-12+189899999V0203101N005719999999N9999999N1-01231-02721999999ADDMA1999999080031MD1210201+9999ME1314339OA149901601REMSYN076AAXX  02174 06751 33/// /3111 11123 21272 38003 48433 52020 333 91131 91212;
0156067510999992010010218004+46450+008517FM-12+189899999V0203201N005119999999N9999999N1-01231-02701999999ADDKA1120M-00841MA1999999080091MD1210191+9999ME1314399OA149901701REMSYN082AAXX  02184 06751 33/// /3210 11123 21270 38009 48439 52019 333 11084 91133 91215;
0137067510999992010010219004+46450+008517FM-12+189899999V0200101N004119999999N9999999N1-01231-02831999999ADDMA1999999080141MD1110171+9999ME1314439OA149901651REMSYN076AAXX  02194 06751 33/// /0108 11123 21283 38014 48443 51017 333 91132 91215;
0137067510999992010010220004+46450+008517FM-12+189899999V0200201N006719999999N9999999N1-01231-02921999999ADDMA1999999080201MD1210171+9999ME1314499OA149901391REMSYN076AAXX  02204 06751 33/// /0213 11123 21292 38020 48449 52017 333 91127 91213;
0137067510999992010010221004+46450+008517FM-12+189899999V0203401N006719999999N9999999N1-01241-03101999999ADDMA1999999080231MD1210141+9999ME1314529OA149901651REMSYN076AAXX  02214 06751 33/// /3413 11124 21310 38023 48452 52014 333 91132 91215;
0137067510999992010010222004+46450+008517FM-12+189899999V0203401N008219999999N9999999N1-01211-02911999999ADDMA1999999080231MD1210091+9999ME1314529OA149901441REMSYN076AAXX  02224 06751 33/// /3416 11121 21291 38023 48452 52009 333 91128 91216;
0137067510999992010010223004+46450+008517FM-12+189899999V0200101N005119999999N9999999N1-01191-03161999999ADDMA1999999080281MD1210081+9999ME1314569OA149901441REMSYN076AAXX  02234 06751 33/// /0110 11119 21316 38028 48456 52008 333 91128 91217;
0137067510999992010010300004+46450+008517FM-12+189899999V0203401N009319999999N9999999N1-01161-03271999999ADDMA1999999080321MD1210091+9999ME1314609OA149901701REMSYN076AAXX  03004 06751 33/// /3418 11116 21327 38032 48460 52009 333 91133 91218;
0137067510999992010010301004+46450+008517FM-12+189899999V0203401N007219999999N9999999N1-01151-03431999999ADDMA1999999080321MD1210091+9999ME1314599OA149901651REMSYN076AAXX  03014 06751 33/// /3414 11115 21343 38032 48459 52009 333 91132 91218;
0096067510999992010010302004+46450+008517FM-12+189899999V0203401N006219999999N9999999N1-01061-03231999999ADDMA1999999080351ME1314619REMSYN060AAXX  03024 06751 33/// /3412 11106 21323 38035 48461 5////;
0096067510999992010010303004+46450+008517FM-12+189899999V0200101N005119999999N9999999N1-00971-03321999999ADDMA1999999080371ME1314619REMSYN060AAXX  03034 06751 33/// /0110 11097 21332 38037 48461 5////;
0137067510999992010010304004+46450+008517FM-12+189899999V0203501N005119999999N9999999N1-00901-02771999999ADDMA1999999080301MD1810021+9999ME1314539OA149901291REMSYN076AAXX  03044 06751 33/// /3510 11090 21277 38030 48453 58002 333 91125 91211;
0137067510999992010010305004+46450+008517FM-12+189899999V0200101N004119999999N9999999N1-00911-02701999999ADDMA1999999080321MD1719999+9999ME1314559OA149901031REMSYN076AAXX  03054 06751 33/// /0108 11091 21270 38032 48455 57/// 333 91120 91211;
0216067510999992010010306004+46450+008517FM-12+189899999V0200101N003619999999N9999999N1-00871-02801999999ADDAA124000091AL19900091GJ100009KA1999N-01251MA1999999080291MD1710081+9999ME1314529OA149901651REMSYN094AAXX  03064 06751 33/// /0107 11087 21280 38029 48452 57008 333 21125 55000 70000 91132 91218;EQDQ01  00002PRCP24
0137067510999992010010307004+46450+008517FM-12+189899999V0203501N005119999999N9999999N1-00891-02691999999ADDMA1999999080331MD1210031+9999ME1314569OA149900931REMSYN076AAXX  03074 06751 33/// /3510 11089 21269 38033 48456 52003 333 91118 91210;
0137067510999992010010308004+46450+008517FM-12+189899999V0203401N001519999999N9999999N1-00871-02881999999ADDMA1999999080371MD1319999+9999ME1314609OA149900931REMSYN076AAXX  03084 06751 33/// /3403 11087 21288 38037 48460 53/// 333 91118 91212;
0137067510999992010010309004+46450+008517FM-12+189899999V0202701N000519999999N9999999N1-01061-02541999999ADDMA1999999080401MD1210111+9999ME1314669OA149901031REMSYN076AAXX  03094 06751 33/// /2701 11106 21254 38040 48466 52011 333 91120 91212;
0137067510999992010010310004+46450+008517FM-12+189899999V0203101N000519999999N9999999N1-00981-02511999999ADDMA1999999080451MD1210121+9999ME1314699OA149900511REMSYN076AAXX  03104 06751 33/// /3101 11098 21251 38045 48469 52012 333 91110 91204;
0137067510999992010010311004+46450+008517FM-12+189899999V0202701N001519999999N9999999N1-00921-02911999999ADDMA1999999080391MD1010021+9999ME1314629OA149900411REMSYN076AAXX  03114 06751 33/// /2703 11092 21291 38039 48462 50002 333 91108 91204;
0137067510999992010010312004+46450+008517FM-12+189899999V0202701N001519999999N9999999N1-00971-03051999999ADDMA1999999080361MD1710041+9999ME1314609OA149901651REMSYN076AAXX  03124 06751 33/// /2703 11097 21305 38036 48460 57004 333 91132 91218;
0137067510999992010010313004+46450+008517FM-12+189899999V0202801N001519999999N9999999N1-01041-02361999999ADDMA1999999080331MD1710121+9999ME1314589OA149900621REMSYN076AAXX  03134 06751 33/// /2803 11104 21236 38033 48458 57012 333 91112 91208;
0137067510999992010010314004+46450+008517FM-12+189899999V0203401N000519999999N9999999N1-01041-02361999999ADDMA1999999080351MD1510041+9999ME1314609OA149900621REMSYN076AAXX  03144 06751 33/// /3401 11104 21236 38035 48460 55004 333 91112 91208;
0137067510999992010010315004+46450+008517FM-12+189899999V0202601N002619999999N9999999N1-01101-03141999999ADDMA1999999080361MD1510001+9999ME1314629OA149900621REMSYN076AAXX  03154 06751 33/// /2605 11110 21314 38036 48462 55000 333 91112 91208;
0137067510999992010010316004+46450+008517FM-12+189899999V0202901N001519999999N9999999N1-01151-02891999999ADDMA1999999080351MD1010021+9999ME1314629OA149900571REMSYN076AAXX  03164 06751 33/// /2903 11115 21289 38035 48462 50002 333 91111 91206;
0137067510999992010010317004+46450+008517FM-12+189899999V0203201N000519999999N9999999N1-01191-02941999999ADDMA1999999080311MD1810041+9999ME1314599OA149900511REMSYN076AAXX  03174 06751 33/// /3201 11119 21294 38031 48459 58004 333 91110 91203;
0156067510999992010010318004+46450+008517FM-12+189899999V0200201N000519999999N9999999N1-01171-02171999999ADDKA1120M-00831MA1999999080331MD1710031+9999ME1314619OA149900931REMSYN082AAXX  03184 06751 33/// /0201 11117 21217 38033 48461 57003 333 11083 91118 91212;
0137067510999992010010319004+46450+008517FM-12+189899999V0202701N001519999999N9999999N1-01111-03022999999ADDMA1999999080321MD1510031+9999ME1314599OA149900411REMSYN076AAXX  03194 06751 33/// /2703 11111 21302 38032 48459 55003 333 91108 91203;
0137067510999992010010320004+46450+008517FM-12+189899999V0203001N002119999999N9999999N1-01171-02331999999ADDMA1999999080311MD1010001+9999ME1314599OA149900571REMSYN076AAXX  03204 06751 33/// /3004 11117 21233 38031 48459 50000 333 91111 91208;
0137067510999992010010321004+46450+008517FM-12+189899999V0202701N002619999999N9999999N1-01231-02381999999ADDMA1999999080321MD1010011+9999ME1314619OA149900671REMSYN076AAXX  03214 06751 33/// /2705 11123 21238 38032 48461 50001 333 91113 91208;
0137067510999992010010322004+46450+008517FM-12+189899999V0202701N002119999999N9999999N1-01251-03322999999ADDMA1999999080341MD1210021+9999ME1314639OA149900671REMSYN076AAXX  03224 06751 33/// /2704 11125 21332 38034 48463 52002 333 91113 91208;
0137067510999992010010323004+46450+008517FM-12+189899999V0202601N001519999999N9999999N1-01331-02971999999ADDMA1999999080351MD1210041+9999ME1314659OA149900571REMSYN076AAXX  03234 06751 33/// /2603 11133 21297 38035 48465 52004 333 91111 91206;
0137067510999992010010400004+46450+008517FM-12+189899999V0202601N005119999999N9999999N1-01321-02501999999ADDMA1999999080281MD1810041+9999ME1314589OA149900821REMSYN076AAXX  04004 06751 33/// /2610 11132 21250 38028 48458 58004 333 91116 91210;
0137067510999992010010401004+46450+008517FM-12+189899999V0202501N004619999999N9999999N1-01261-02521999999ADDMA1999999080221MD1710121+9999ME1314529OA149900821REMSYN076AAXX  04014 06751 33/// /2509 11126 21252 38022 48452 57012 333 91116 91210;
0137067510999992010010402004+46450+008517FM-12+189899999V0202701N002119999999N9999999N1-01301-02521999999ADDMA1999999080201MD1710151+9999ME1314509OA149900621REMSYN076AAXX  04024 06751 33/// /2704 11130 21252 38020 48450 57015 333 91112 91209;
0137067510999992010010403004+46450+008517FM-12+189899999V0203301N000519999999N9999999N1-01191-02341999999ADDMA1999999080181MD1719999+9999ME1314479OA149900821REMSYN076AAXX  04034 06751 33/// /3301 11119 21234 38018 48447 57/// 333 91116 91210;
0137067510999992010010404004+46450+008517FM-12+189899999V0203101N000519999999N9999999N1-01191-02391999999ADDMA1999999080141MD1710081+9999ME1314439OA149900411REMSYN076AAXX  04044 06751 33/// /3101 11119 21239 38014 48443 57008 333 91108 91204;
0137067510999992010010405004+46450+008517FM-12+189899999V0209999C000019999999N9999999N1-01201-02931999999ADDMA1999999080111MD1810091+9999ME1314409OA149900411REMSYN076AAXX  04054 06751 33/// /0000 11120 21293 38011 48440 58009 333 91108 91204;
0216067510999992010010406004+46450+008517FM-12+189899999V0202101N001519999999N9999999N1-01181-02901999999ADDAA124000091AL19900091GJ101749KA1999N-01331MA1999999080101MD1710081+9999ME1314399OA149900821REMSYN094AAXX  04064 06751 33/// /2103 11118 21290 38010 48439 57008 333 21133 55029 70000 91116 91210;EQDQ01  00002PRCP24
0137067510999992010010407004+46450+008517FM-12+189899999V0203101N001019999999N9999999N1-01151-02691999999ADDMA1999999080091MD1710051+9999ME1314379OA149900461REMSYN076AAXX  04074 06751 33/// /3102 11115 21269 38009 48437 57005 333 91109 91205;
0137067510999992010010408004+46450+008517FM-12+189899999V0202801N000519999999N9999999N1-01211-02001999999ADDMA1999999080101MD1710011+9999ME1314399OA149900461REMSYN076AAXX  04084 06751 33/// /2801 11121 21200 38010 48439 57001 333 91109 91205;
0137067510999992010010409004+46450+008517FM-12+189899999V0209999C000019999999N9999999N1-01261-01531999999ADDMA1999999080111MD1510011+9999ME1314419OA149900461REMSYN076AAXX  04094 06751 33/// /0000 11126 21153 38011 48441 55001 333 91109 91205;
0137067510999992010010410004+46450+008517FM-12+189899999V0209999C000019999999N9999999N1-01271-01461999999ADDMA1999999080101MD1010011+9999ME1314409OA149900101REMSYN076AAXX  04104 06751 33/// /0000 11127 21146 38010 48440 50001 333 91102 91201;
0137067510999992010010411004+46450+008517FM-12+189899999V0209999C000019999999N9999999N1-01251-01471999999ADDMA1999999080031MD1710071+9999ME1314339OA149900051REMSYN076AAXX  04114 06751 33/// /0000 11125 21147 38003 48433 57007 333 91101 91201;
0179067510999992010010412004+46450+008517FM-12+189899999V0203301N000519999999N9999999N1-01121-01491999999ADDAA106000091MA1999999079971MD1710141+9999ME1314259OA149900621REMSYN088AAXX  04124 06751 03/// /3301 11112 21149 37997 48425 57014 69911 333 69915 91112 91209;EQDQ01  00002PRCP06
0137067510999992010010413004+46450+008517FM-12+189899999V0200201N000519999999N9999999N1-01101-01531999999ADDMA1999999079881MD1810221+9999ME1314169OA149900101REMSYN076AAXX  04134 06751 33/// /0201 11110 21153 37988 48416 58022 333 91102 91201;
0137067510999992010010414004+46450+008517FM-12+189899999V0203001N000519999999N9999999N1-01101-01471999999ADDMA1999999079841MD1619999+9999ME1314129OA149900101REMSYN076AAXX  04144 06751 33/// /3001 11110 21147 37984 48412 56/// 333 91102 91201;
0137067510999992010010415004+46450+008517FM-12+189899999V0209999C000519999999N9999999N1-01141-01441999999ADDMA1999999079831MD1710141+9999ME1314129OA149900151REMSYN076AAXX  04154 06751 33/// /0001 11114 21144 37983 48412 57014 333 91103 91202;
0154067510999992010010416004+46450+008517FM-12+189899999V0209999C000019999999N9999999N1-01151-01381999999ADDAA101000021MA1999999079831MD1710051+9999ME1314129OA149900151REMSYN082AAXX  04164 06751 23/// /0000 11115 21138 37983 48412 57005 333 69915 91103 91202;
0154067510999992010010417004+46450+008517FM-12+189899999V0200101N000519999999N9999999N1-01141-01291999999ADDAA101000021MA1999999079801MD1810041+9999ME1314099OA149900151REMSYN082AAXX  04174 06751 23/// /0101 11114 21129 37980 48409 58004 333 69915 91103 91201;
0179067510999992010010418004+46450+008517FM-12+189899999V0209999C000019999999N9999999N1-01171-01321999999ADDAA112000391KA1120M-01081MA1999999079791MD1710041+9999ME1314089OA149900461REMSYN094AAXX  04184 06751 03/// /0000 11117 21132 37979 48408 57004 69932 333 11108 60005 91109 91205;
0137067510999992010010419004+46450+008517FM-12+189899999V0200201N000519999999N9999999N1-01111-01371999999ADDMA1999999079771MD1710061+9999ME1314059OA149900211REMSYN076AAXX  04194 06751 33/// /0201 11111 21137 37977 48405 57006 333 91104 91202;
0137067510999992010010420004+46450+008517FM-12+189899999V0203101N000519999999N9999999N1-01151-01511999999ADDMA1999999079741MD1710061+9999ME1314039OA149900211REMSYN076AAXX  04204 06751 33/// /3101 11115 21151 37974 48403 57006 333 91104 91202;
0137067510999992010010421004+46450+008517FM-12+189899999V0203201N000519999999N9999999N1-01061-01451999999ADDMA1999999079731MD1710061+9999ME1314009OA149900411REMSYN076AAXX  04214 06751 33/// /3201 11106 21145 37973 48400 57006 333 91108 91203;
0137067510999992010010422004+46450+008517FM-12+189899999V0202001N000519999999N9999999N1-01101-01351999999ADDMA1999999079731MD1710041+9999ME1314019OA149900411REMSYN076AAXX  04224 06751 33/// /2001 11110 21135 37973 48401 57004 333 91108 91203;
0137067510999992010010423004+46450+008517FM-12+189899999V0200301N001019999999N9999999N1-00991-01241999999ADDMA1999999079701MD1710041+9999ME1313969OA149900211REMSYN076AAXX  04234 06751 33/// /0302 11099 21124 37970 48396 57004 333 91104 91202;
0179067510999992010010500004+46450+008517FM-12+189899999V0209999C000019999999N9999999N1-01041-01231999999ADDAA106000091MA1999999079671MD1710061+9999ME1313949OA149900411REMSYN088AAXX  05004 06751 03/// /0000 11104 21123 37967 48394 57006 69911 333 69915 91108 91203;EQDQ01  00002PRCP06
0137067510999992010010501004+46450+008517FM-12+189899999V0200601N000519999999N9999999N1-01061-01291999999ADDMA1999999079601MD1710131+9999ME1313889OA149900261REMSYN076AAXX  05014 06751 33/// /0601 11106 21129 37960 48388 57013 333 91105 91202;
0137067510999992010010502004+46450+008517FM-12+189899999V0203401N000519999999N9999999N1-01161-01441999999ADDMA1999999079561MD1710141+9999ME1313869OA149900261REMSYN076AAXX  05024 06751 33/// /3401 11116 21144 37956 48386 57014 333 91105 91202;
0137067510999992010010503004+46450+008517FM-12+189899999V0203401N001019999999N9999999N1-01061-01371999999ADDMA1999999079521MD1610151+9999ME1313809OA149900261REMSYN076AAXX  05034 06751 33/// /3402 11106 21137 37952 48380 56015 333 91105 91202;
0137067510999992010010504004+46450+008517FM-12+189899999V0203501N000519999999N9999999N1-01121-01441999999ADDMA1999999079471MD1810131+9999ME1313769OA149900311REMSYN076AAXX  05044 06751 33/// /3501 11112 21144 37947 48376 58013 333 91106 91202;
0137067510999992010010505004+46450+008517FM-12+189899999V0200201N000519999999N9999999N1-01051-01381999999ADDMA1999999079431MD1710131+9999ME1313719OA149900361REMSYN076AAXX  05054 06751 33/// /0201 11105 21138 37943 48371 57013 333 91107 91202;
0239067510999992010010506004+46450+008517FM-12+189899999V0203101N000519999999N9999999N1-01151-01501999999ADDAA112000091AA224000591AL12400091GJ100009KA1999N-01181MA1999999079411MD1710111+9999ME1313719OA149900411REMSYN106AAXX  05064 06751 03/// /3101 11115 21150 37941 48371 57011 69912 333 21118 55000 60005 70004 91108 91203;EQDQ01  00002PRCP12
0137067510999992010010507004+46450+008517FM-12+189899999V0200301N000519999999N9999999N1-01031-01421999999ADDMA1999999079381MD1710091+9999ME1313659OA149900411REMSYN076AAXX  05074 06751 33/// /0301 11103 21142 37938 48365 57009 333 91108 91202;
0137067510999992010010508004+46450+008517FM-12+189899999V0200401N000519999999N9999999N1-01231-01571999999ADDMA1999999079381MD1710051+9999ME1313709OA149900311REMSYN076AAXX  05084 06751 33/// /0401 11123 21157 37938 48370 57005 333 91106 91202;
0137067510999992010010509004+46450+008517FM-12+189899999V0209999C000019999999N9999999N1-01081-01491999999ADDMA1999999079351MD1710061+9999ME1313639OA149900411REMSYN076AAXX  05094 06751 33/// /0000 11108 21149 37935 48363 57006 333 91108 91202;
0137067510999992010010510004+46450+008517FM-12+189899999V0201701N000519999999N9999999N1-00991-01431999999ADDMA1999999079331MD1710051+9999ME1313609OA149900211REMSYN076AAXX  05104 06751 33/// /1701 11099 21143 37933 48360 57005 333 91104 91202;
0137067510999992010010511004+46450+008517FM-12+189899999V0200401N000519999999N9999999N1-00851-01381999999ADDMA1999999079271MD1810111+9999ME1313519OA149900211REMSYN076AAXX  05114 06751 33/// /0401 11085 21138 37927 48351 58011 333 91104 91202;
0137067510999992010010512004+46450+008517FM-12+189899999V0200101N000519999999N9999999N1-00841-01261999999ADDMA1999999079221MD1810131+9999ME1313469OA149900411REMSYN076AAXX  05124 06751 33/// /0101 11084 21126 37922 48346 58013 333 91108 91202;
0137067510999992010010513004+46450+008517FM-12+189899999V0200101N000519999999N9999999N1-00841-01311999999ADDMA1999999079141MD1810191+9999ME1313389OA149900151REMSYN076AAXX  05134 06751 33/// /0101 11084 21131 37914 48338 58019 333 91103 91202;
0096067510999992010010514004+46450+008517FM-12+189899999V0200201N000519999999N9999999N1-00871-01261999999ADDMA1999999079121ME1313369REMSYN060AAXX  05144 06751 33/// /0201 11087 21126 37912 48336 5////;
0137067510999992010010515004+46450+008517FM-12+189899999V0203401N001019999999N9999999N1-00941-01331999999ADDMA1999999079111MD1610111+9999ME1313379OA149900211REMSYN076AAXX  05154 06751 33/// /3402 11094 21133 37911 48337 56011 333 91104 91202;
0137067510999992010010516004+46450+008517FM-12+189899999V0200101N001019999999N9999999N1-00921-01291999999ADDMA1999999079091MD1810051+9999ME1313349OA149900151REMSYN076AAXX  05164 06751 33/// /0102 11092 21129 37909 48334 58005 333 91103 91202;
0137067510999992010010517004+46450+008517FM-12+189899999V0203401N000519999999N9999999N1-00851-01351999999ADDMA1999999079061MD1810061+9999ME1313309OA149900261REMSYN076AAXX  05174 06751 33/// /3401 11085 21135 37906 48330 58006 333 91105 91202;
0156067510999992010010518004+46450+008517FM-12+189899999V0209999C000019999999N9999999N1-01011-01351999999ADDKA1120M-00841MA1999999079051MD1710061+9999ME1313329OA149900311REMSYN082AAXX  05184 06751 33/// /0000 11101 21135 37905 48332 57006 333 11084 91106 91202;
0137067510999992010010519004+46450+008517FM-12+189899999V0200301N000519999999N9999999N1-01021-01351999999ADDMA1999999079051MD1710041+9999ME1313339OA149900151REMSYN076AAXX  05194 06751 33/// /0301 11102 21135 37905 48333 57004 333 91103 91202;
0137067510999992010010520004+46450+008517FM-12+189899999V0203101N000519999999N9999999N1-01011-01351999999ADDMA1999999079001MD1710061+9999ME1313279OA149900461REMSYN076AAXX  05204 06751 33/// /3101 11101 21135 37900 48327 57006 333 91109 91202;
0137067510999992010010521004+46450+008517FM-12+189899999V0203501N000519999999N9999999N1-01031-01371999999ADDMA1999999078971MD1810081+9999ME1313259OA149900461REMSYN076AAXX  05214 06751 33/// /3501 11103 21137 37897 48325 58008 333 91109 91202;
0137067510999992010010522004+46450+008517FM-12+189899999V0200201N000519999999N9999999N1-00961-01361999999ADDMA1999999078911MD1710141+9999ME1313179OA149900261REMSYN076AAXX  05224 06751 33/// /0201 11096 21136 37891 48317 57014 333 91105 91202;
0137067510999992010010523004+46450+008517FM-12+189899999V0200201N000519999999N9999999N1-00951-01371999999ADDMA1999999078881MD1710121+9999ME1313149OA149900151REMSYN076AAXX  05234 06751 33/// /0201 11095 21137 37888 48314 57012 333 91103 91202;
0137067510999992010010600004+46450+008517FM-12+189899999V0203501N000519999999N9999999N1-00881-01381999999ADDMA1999999078831MD1710141+9999ME1313089OA149900461REMSYN076AAXX  06004 06751 33/// /3501 11088 21138 37883 48308 57014 333 91109 91202;
0137067510999992010010601004+46450+008517FM-12+189899999V0209999C000019999999N9999999N1-00901-01471999999ADDMA1999999078801MD1710111+9999ME1313059OA149900311REMSYN076AAXX  06014 06751 33/// /0000 11090 21147 37880 48305 57011 333 91106 91202;
0137067510999992010010602004+46450+008517FM-12+189899999V0203201N002119999999N9999999N1-00551-01371999999ADDMA1999999078801MD1710081+9999ME1312979OA149900411REMSYN076AAXX  06024 06751 33/// /3204 11055 21137 37880 48297 57008 333 91108 91204;
0137067510999992010010603004+46450+008517FM-12+189899999V0203401N003619999999N9999999N1-00541-01391999999ADDMA1999999078771MD1710061+9999ME1312949OA149900671REMSYN076AAXX  06034 06751 33/// /3407 11054 21139 37877 48294 57006 333 91113 91207;
0137067510999992010010604004+46450+008517FM-12+189899999V0203301N004119999999N9999999N1-00551-01431999999ADDMA1999999078761MD1710041+9999ME1312939OA149900671REMSYN076AAXX  06044 06751 33/// /3308 11055 21143 37876 48293 57004 333 91113 91208;
0137067510999992010010605004+46450+008517FM-12+189899999V0203201N004119999999N9999999N1-00551-01461999999ADDMA1999999078771MD1510031+9999ME1312949OA149900721REMSYN076AAXX  06054 06751 33/// /3208 11055 21146 37877 48294 55003 333 91114 91209;
0216067510999992010010606004+46450+008517FM-12+189899999V0203301N004119999999N9999999N1-00581-01691999999ADDAA124000091AL19900091GJ102709KA1999N-01091MA1999999078761MD1010011+9999ME1312949OA149900721REMSYN094AAXX  06064 06751 33/// /3308 11058 21169 37876 48294 50001 333 21109 55045 70000 91114 91209;EQDQ01  00002PRCP24
0137067510999992010010607004+46450+008517FM-12+189899999V0203201N003619999999N9999999N1-00581-01531999999ADDMA1999999078761MD1510001+9999ME1312949OA149900721REMSYN076AAXX  06074 06751 33/// /3207 11058 21153 37876 48294 55000 333 91114 91210;
0137067510999992010010608004+46450+008517FM-12+189899999V0203401N003119999999N9999999N1-00651-01511999999ADDMA1999999078771MD1510001+9999ME1312969OA149900721REMSYN076AAXX  06084 06751 33/// /3406 11065 21151 37877 48296 55000 333 91114 91210;
0137067510999992010010609004+46450+008517FM-12+189899999V0203501N002619999999N9999999N1-00521-01451999999ADDMA1999999078841MD1210081+9999ME1313019OA149900721REMSYN076AAXX  06094 06751 33/// /3505 11052 21145 37884 48301 52008 333 91114 91210;
0137067510999992010010610004+46450+008517FM-12+189899999V0202401N003619999999N9999999N1-00621-01551999999ADDMA1999999078871MD1310111+9999ME1313069OA149900771REMSYN076AAXX  06104 06751 33/// /2407 11062 21155 37887 48306 53011 333 91115 91211;
0137067510999992010010611004+46450+008517FM-12+189899999V0202601N003619999999N9999999N1-00621-01531999999ADDMA1999999078851MD1019999+9999ME1313049OA149900771REMSYN076AAXX  06114 06751 33/// /2607 11062 21153 37885 48304 50/// 333 91115 91211;
0156067510999992010010612004+46450+008517FM-12+189899999V0202501N004619999999N9999999N1-00661-01801999999ADDMA1999999078841MD1410001+9999ME1313049OA149900771REMSYN076AAXX  06124 06751 33/// /2509 11066 21180 37884 48304 58000 333 91115 91211;EQDQ01+000082APCTEN
0137067510999992010010613004+46450+008517FM-12+189899999V0202501N003619999999N9999999N1-00621-01541999999ADDMA1999999078861MD1510011+9999ME1313059OA149900771REMSYN076AAXX  06134 06751 33/// /2507 11062 21154 37886 48305 55001 333 91115 91209;
0137067510999992010010614004+46450+008517FM-12+189899999V0202501N004119999999N9999999N1-00781-01901999999ADDMA1999999078861MD1519999+9999ME1313089OA149900821REMSYN076AAXX  06144 06751 33/// /2508 11078 21190 37886 48308 55/// 333 91116 91209;
0137067510999992010010615004+46450+008517FM-12+189899999V0202601N002619999999N9999999N1-00841-01521999999ADDMA1999999078911MD1219999+9999ME1313159OA149900821REMSYN076AAXX  06154 06751 33/// /2605 11084 21152 37891 48315 52/// 333 91116 91211;
0137067510999992010010616004+46450+008517FM-12+189899999V0200201N000519999999N9999999N1-00931-01481999999ADDMA1999999078961MD1310101+9999ME1313229OA149900771REMSYN076AAXX  06164 06751 33/// /0201 11093 21148 37896 48322 53010 333 91115 91208;
0137067510999992010010617004+46450+008517FM-12+189899999V0202901N001519999999N9999999N1-00911-01571999999ADDMA1999999078981MD1110121+9999ME1313239OA149900671REMSYN076AAXX  06174 06751 33/// /2903 11091 21157 37898 48323 51012 333 91113 91206;
0156067510999992010010618004+46450+008517FM-12+189899999V0202901N001519999999N9999999N1-00891-01551999999ADDKA1120M-00481MA1999999079001MD1119999+9999ME1313259OA149900821REMSYN082AAXX  06184 06751 33/// /2903 11089 21155 37900 48325 51/// 333 11048 91116 91211;
0137067510999992010010619004+46450+008517FM-12+189899999V0203401N000519999999N9999999N1-00791-01331999999ADDMA1999999079051MD1310091+9999ME1313289OA149900621REMSYN076AAXX  06194 06751 33/// /3401 11079 21133 37905 48328 53009 333 91112 91207;
0137067510999992010010620004+46450+008517FM-12+189899999V0202501N003119999999N9999999N1-00791-01361999999ADDMA1999999079061MD1110081+9999ME1313299OA149900571REMSYN076AAXX  06204 06751 33/// /2506 11079 21136 37906 48329 51008 333 91111 91207;
0137067510999992010010621004+46450+008517FM-12+189899999V0202601N003119999999N9999999N1-00841-01441999999ADDMA1999999079091MD1110091+9999ME1313339OA149900671REMSYN076AAXX  06214 06751 33/// /2606 11084 21144 37909 48333 51009 333 91113 91208;
0137067510999992010010622004+46450+008517FM-12+189899999V0201601N000519999999N9999999N1-00871-01341999999ADDMA1999999079081MD1210031+9999ME1313329OA149900621REMSYN076AAXX  06224 06751 33/// /1601 11087 21134 37908 48332 52003 333 91112 91208;
0137067510999992010010623004+46450+008517FM-12+189899999V0202601N001519999999N9999999N1-00811-01281999999ADDMA1999999079091MD1210031+9999ME1313329OA149900361REMSYN076AAXX  06234 06751 33/// /2603 11081 21128 37909 48332 52003 333 91107 91204;
0160067510999992010010700004+46450+008517FM-12+189899999V0203201N000519999999N9999999N1-00881-01001999999ADDAA106002091MA1999999079101MD1010011+9999ME1313359OA149900821REMSYN088AAXX  07004 06751 03/// /3201 11088 21100 37910 48335 50001 60021 333 60025 91116 91209;
0154067510999992010010701004+46450+008517FM-12+189899999V0203601N000519999999N9999999N1-00841-01031999999ADDAA101000591MA1999999079121MD1310041+9999ME1313369OA149900261REMSYN082AAXX  07014 06751 23/// /3601 11084 21103 37912 48336 53004 333 69965 91105 91201;
0154067510999992010010702004+46450+008517FM-12+189899999V0202501N002119999999N9999999N1-00891-01311999999ADDAA101000021MA1999999079171MD1319999+9999ME1313429OA149900411REMSYN082AAXX  07024 06751 23/// /2504 11089 21131 37917 48342 53/// 333 69915 91108 91204;
0137067510999992010010703004+46450+008517FM-12+189899999V0202801N001519999999N9999999N1-01111-01531999999ADDMA1999999079201MD1110101+9999ME1313499OA149900721REMSYN076AAXX  07034 06751 33/// /2803 11111 21153 37920 48349 51010 333 91114 91208;
0137067510999992010010704004+46450+008517FM-12+189899999V0202401N002619999999N9999999N1-01081-01851999999ADDMA1999999079221MD1210101+9999ME1313519OA149900821REMSYN076AAXX  07044 06751 33/// /2405 11108 21185 37922 48351 52010 333 91116 91208;
0137067510999992010010705004+46450+008517FM-12+189899999V0201701N001019999999N9999999N1-01141-01571999999ADDMA1999999079251MD1210081+9999ME1313559OA149900821REMSYN076AAXX  07054 06751 33/// /1702 11114 21157 37925 48355 52008 333 91116 91205;
0220067510999992010010706004+46450+008517FM-12+189899999V0203301N001019999999N9999999N1-01121-01491999999ADDAA112003092AA224002592AL13600291GJ103009KA1999N-01141MA1999999079301MD1310101+9999ME1313599OA149900821REMSYN106AAXX  07064 06751 03/// /3302 11112 21149 37930 48359 53010 60032 333 21114 55050 60005 70026 91116 91208;
0137067510999992010010707004+46450+008517FM-12+189899999V0203401N001019999999N9999999N1-01071-01651999999ADDMA1999999079361MD1310141+9999ME1313649OA149900721REMSYN076AAXX  07074 06751 33/// /3402 11107 21165 37936 48364 53014 333 91114 91205;
0137067510999992010010708004+46450+008517FM-12+189899999V0203501N001019999999N9999999N1-01041-02231999999ADDMA1999999079411MD1319999+9999ME1313699OA149900721REMSYN076AAXX  07084 06751 33/// /3502 11104 21223 37941 48369 53/// 333 91114 91207;
0137067510999992010010709004+46450+008517FM-12+189899999V0203501N000519999999N9999999N1-01001-02621999999ADDMA1999999079471MD1210171+9999ME1313749OA149900821REMSYN076AAXX  07094 06751 33/// /3501 11100 21262 37947 48374 52017 333 91116 91207;
0137067510999992010010710004+46450+008517FM-12+189899999V0202901N001019999999N9999999N1-00951-02501999999ADDMA1999999079531MD1310171+9999ME1313799OA149900571REMSYN076AAXX  07104 06751 33/// /2902 11095 21250 37953 48379 53017 333 91111 91205;
0137067510999992010010711004+46450+008517FM-12+189899999V0202701N000519999999N9999999N1-00821-01831999999ADDMA1999999079541MD1210131+9999ME1313779OA149900571REMSYN076AAXX  07114 06751 33/// /2701 11082 21183 37954 48377 52013 333 91111 91205;
0137067510999992010010712004+46450+008517FM-12+189899999V0202501N002619999999N9999999N1-00831-01631999999ADDMA1999999079501MD1010031+9999ME1313739OA149900821REMSYN076AAXX  07124 06751 33/// /2505 11083 21163 37950 48373 50003 333 91116 91208;
0137067510999992010010713004+46450+008517FM-12+189899999V0203201N000519999999N9999999N1-00831-01531999999ADDMA1999999079531MD1719999+9999ME1313769OA149900571REMSYN076AAXX  07134 06751 33/// /3201 11083 21153 37953 48376 57/// 333 91111 91207;
0137067510999992010010716004+46450+008517FM-12+189899999V0201901N000519999999N9999999N1-00841-01061999999ADDMA1999999079651MD1319999+9999ME1313889OA149900361REMSYN076AAXX  07164 06751 33/// /1901 11084 21106 37965 48388 53/// 333 91107 91203;
0137067510999992010010717004+46450+008517FM-12+189899999V0202401N000519999999N9999999N1-00841-01071999999ADDMA1999999079691MD1119999+9999ME1313929OA149900261REMSYN076AAXX  07174 06751 33/// /2401 11084 21107 37969 48392 51/// 333 91105 91202;
0156067510999992010010718004+46450+008517FM-12+189899999V0202201N001019999999N9999999N1-00901-01091999999ADDKA1120M-00761MA1999999079711MD1119999+9999ME1313959OA149900721REMSYN082AAXX  07184 06751 33/// /2202 11090 21109 37971 48395 51/// 333 11076 91114 91207;
0137067510999992010010719004+46450+008517FM-12+189899999V0209999C000019999999N9999999N1-00891-01061999999ADDMA1999999079711MD1110061+9999ME1313959OA149900151REMSYN076AAXX  07194 06751 33/// /0000 11089 21106 37971 48395 51006 333 91103 91202;
0154067510999992010010720004+46450+008517FM-12+189899999V0201501N000519999999N9999999N1-00901-01131999999ADDAA101000021MA1999999079711MD1210021+9999ME1313959OA149900151REMSYN082AAXX  07204 06751 23/// /1501 11090 21113 37971 48395 52002 333 69915 91103 91201;
0154067510999992010010721004+46450+008517FM-12+189899999V0209999C000019999999N9999999N1-00951-01121999999ADDAA101000021MA1999999079701MD1710011+9999ME1313959OA149900261REMSYN082AAXX  07214 06751 23/// /0000 11095 21112 37970 48395 57001 333 69915 91105 91202;
0154067510999992010010722004+46450+008517FM-12+189899999V0209999C000019999999N9999999N1-00981-01101999999ADDAA101000591MA1999999079701MD1810011+9999ME1313969OA149900101REMSYN082AAXX  07224 06751 23/// /0000 11098 21110 37970 48396 58001 333 69955 91102 91201;
0154067510999992010010723004+46450+008517FM-12+189899999V0200201N000519999999N9999999N1-00921-01111999999ADDAA101000591MA1999999079691MD1710021+9999ME1313949OA149900101REMSYN082AAXX  07234 06751 23/// /0201 11092 21111 37969 48394 57002 333 69945 91102 91201;
0160067510999992010010800004+46450+008517FM-12+189899999V0203101N000519999999N9999999N1-00901-01121999999ADDAA106001091MA1999999079621MD1710081+9999ME1313869OA149900571REMSYN088AAXX  08004 06751 03/// /3101 11090 21112 37962 48386 57008 60011 333 69925 91111 91207;
0154067510999992010010801004+46450+008517FM-12+189899999V0209999C000019999999N9999999N1-00911-01081999999ADDAA101000591MA1999999079551MD1710151+9999ME1313809OA149900101REMSYN082AAXX  08014 06751 23/// /0000 11091 21108 37955 48380 57015 333 69955 91102 91201;
0154067510999992010010802004+46450+008517FM-12+189899999V0209999C000019999999N9999999N1-00891-01041999999ADDAA101000891MA1999999079531MD1619999+9999ME1313779OA149900051REMSYN082AAXX  08024 06751 23/// /0000 11089 21104 37953 48377 56/// 333 69975 91101 91201;
0154067510999992010010803004+46450+008517FM-12+189899999V0203301N000519999999N9999999N1-00831-01011999999ADDAA101000591MA1999999079491MD1719999+9999ME1313729OA149900101REMSYN082AAXX  08034 06751 23/// /3301 11083 21101 37949 48372 57/// 333 69945 91102 91201;
0154067510999992010010804004+46450+008517FM-12+189899999V0200201N000519999999N9999999N1-00801-00951999999ADDAA101000891MA1999999079441MD1710111+9999ME1313679OA149900151REMSYN082AAXX  08044 06751 23/// /0201 11080 21095 37944 48367 57011 333 69975 91103 91201;
0154067510999992010010805004+46450+008517FM-12+189899999V0209999C000019999999N9999999N1-00771-00891999999ADDAA101000891MA1999999079401MD1710131+9999ME1313629OA149900151REMSYN082AAXX  08054 06751 23/// /0000 11077 21089 37940 48362 57013 333 69985 91103 91202;
0220067510999992010010806004+46450+008517FM-12+189899999V0200401N000519999999N9999999N1-00591-00691999999ADDAA112006192AA224005392AL12400591GJ101569KA1999N-00981MA1999999079361MD1610131+9999ME1313549OA149900151REMSYN106AAXX  08064 06751 03/// /0401 11059 21069 37936 48354 56013 60062 333 21098 55026 60025 70054 91103 91202;
0154067510999992010010807004+46450+008517FM-12+189899999V0202901N000519999999N9999999N1-00481-00601999999ADDAA101001091MA1999999079331MD1610111+9999ME1313499OA149900211REMSYN082AAXX  08074 06751 23/// /2901 11048 21060 37933 48349 56011 333 60015 91104 91203;
0154067510999992010010808004+46450+008517FM-12+189899999V0200101N000519999999N9999999N1-00431-00581999999ADDAA101001091MA1999999079321MD1610081+9999ME1313479OA149900211REMSYN082AAXX  08084 06751 23/// /0101 11043 21058 37932 48347 56008 333 60015 91104 91203;
0154067510999992010010809004+46450+008517FM-12+189899999V0202401N000519999999N9999999N1-00381-00501999999ADDAA101001091MA1999999079291MD1610071+9999ME1313439OA149900311REMSYN082AAXX  08094 06751 23/// /2401 11038 21050 37929 48343 56007 333 60015 91106 91203;
0154067510999992010010810004+46450+008517FM-12+189899999V0209999C000019999999N9999999N1-00341-00461999999ADDAA101001091MA1999999079251MD1810081+9999ME1313389OA149900311REMSYN082AAXX  08104 06751 23/// /0000 11034 21046 37925 48338 58008 333 60015 91106 91203;
0154067510999992010010811004+46450+008517FM-12+189899999V0209999C000019999999N9999999N1-00331-00411999999ADDAA101002091MA1999999079181MD1810141+9999ME1313319OA149900211REMSYN082AAXX  08114 06751 23/// /0000 11033 21041 37918 48331 58014 333 60025 91104 91203;
0160067510999992010010812004+46450+008517FM-12+189899999V0209999C000019999999N9999999N1-00281-00361999999ADDAA106007991MA1999999079101MD1810191+9999ME1313229OA149900311REMSYN088AAXX  08124 06751 03/// /0000 11028 21036 37910 48322 58019 60081 333 60015 91106 91203;
0154067510999992010010813004+46450+008517FM-12+189899999V0203301N001519999999N9999999N1-00241-00351999999ADDAA101002091MA1999999079041MD1610211+9999ME1313159OA149900311REMSYN082AAXX  08134 06751 23/// /3303 11024 21035 37904 48315 56021 333 60025 91106 91204;
0160067510999992010010814004+46450+008517FM-12+189899999V0209999C000019999999N9999999N1-00251-00301999999ADDAA101001091MA1999999078991MD1619999+9999ME1313109OA149900311REMSYN088AAXX  08144 06751 23/// /0000 11025 21030 37899 48310 56/// 91340 333 60015 91106 91204;
0154067510999992010010815004+46450+008517FM-12+189899999V0202901N001019999999N9999999N1-00201-00321999999ADDAA101002091MA1999999078971MD1610131+9999ME1313079OA149900311REMSYN082AAXX  08154 06751 23/// /2902 11020 21032 37897 48307 56013 333 60025 91106 91204;
0154067510999992010010816004+46450+008517FM-12+189899999V0200301N000519999999N9999999N1-00201-00271999999ADDAA101002091MA1999999078961MD1610081+9999ME1313069OA149900211REMSYN082AAXX  08164 06751 23/// /0301 11020 21027 37896 48306 56008 333 60025 91104 91203;
0154067510999992010010817004+46450+008517FM-12+189899999V0202701N001019999999N9999999N1-00131-00261999999ADDAA101003091MA1999999078971MD1710011+9999ME1313059OA149900261REMSYN082AAXX  08174 06751 23/// /2702 11013 21026 37897 48305 57001 333 60035 91105 91202;
0179067510999992010010818004+46450+008517FM-12+189899999V0202601N001519999999N9999999N1-00121-00251999999ADDAA112021191KA1120M-00131MA1999999078991MD1210021+9999ME1313079OA149900411REMSYN094AAXX  08184 06751 03/// /2603 11012 21025 37899 48307 52002 60212 333 11013 60025 91108 91204;
0154067510999992010010819004+46450+008517FM-12+189899999V0201901N001019999999N9999999N1-00281-00301999999ADDAA101000891MA1999999079011MD1210051+9999ME1313129OA149900411REMSYN082AAXX  08194 06751 23/// /1902 11028 21030 37901 48312 52005 333 69985 91108 91203;
0154067510999992010010820004+46450+008517FM-12+189899999V0209999C000019999999N9999999N1-00271-00351999999ADDAA101001091MA1999999079021MD1210051+9999ME1313139OA149900411REMSYN082AAXX  08204 06751 23/// /0000 11027 21035 37902 48313 52005 333 60015 91108 91203;
0154067510999992010010821004+46450+008517FM-12+189899999V0202001N000519999999N9999999N1-00261-00331999999ADDAA101001091MA1999999079041MD1210051+9999ME1313159OA149900411REMSYN082AAXX  08214 06751 23/// /2001 11026 21033 37904 48315 52005 333 69995 91108 91203;
0154067510999992010010822004+46450+008517FM-12+189899999V0209999C000019999999N9999999N1-00271-00361999999ADDAA101000591MA1999999079061MD1210051+9999ME1313179OA149900151REMSYN082AAXX  08224 06751 23/// /0000 11027 21036 37906 48317 52005 333 69945 91103 91201;
0154067510999992010010823004+46450+008517FM-12+189899999V0209999C000019999999N9999999N1-00301-00361999999ADDAA101000021MA1999999079061MD1210041+9999ME1313189OA149900151REMSYN082AAXX  08234 06751 23/// /0000 11030 21036 37906 48318 52004 333 69915 91103 91202;
0160067510999992010010900004+46450+008517FM-12+189899999V0202501N000519999999N9999999N1-00311-00391999999ADDAA106004191MA1999999079031MD1810011+9999ME1313159OA149900411REMSYN088AAXX  09004 06751 03/// /2501 11031 21039 37903 48315 58001 60041 333 60005 91108 91204;
0137067510999992010010901004+46450+008517FM-12+189899999V0202701N000519999999N9999999N1-00341-00361999999ADDMA1999999079031MD1710031+9999ME1313169OA149900211REMSYN076AAXX  09014 06751 33/// /2701 11034 21036 37903 48316 57003 333 91104 91202;
0137067510999992010010902004+46450+008517FM-12+189899999V0203101N000519999999N9999999N1-00321-00321999999ADDMA1999999079091MD1319999+9999ME1313219OA149900151REMSYN076AAXX  09024 06751 33/// /3101 11032 21032 37909 48321 53/// 333 91103 91202;
0154067510999992010010903004+46450+008517FM-12+189899999V0203401N000519999999N9999999N1-00271-00351999999ADDAA101000021MA1999999079021MD1819999+9999ME1313139OA149900211REMSYN082AAXX  09034 06751 23/// /3401 11027 21035 37902 48313 58/// 333 69915 91104 91202;
0137067510999992010010904004+46450+008517FM-12+189899999V0203001N000519999999N9999999N1-00311-00391999999ADDMA1999999078991MD1810041+9999ME1313119OA149900261REMSYN076AAXX  09044 06751 33/// /3001 11031 21039 37899 48311 58004 333 91105 91202;
0137067510999992010010905004+46450+008517FM-12+189899999V0202501N003119999999N9999999N1-00351-00851999999ADDMA1999999078901MD1710191+9999ME1313039OA149900511REMSYN076AAXX  09054 06751 33/// /2506 11035 21085 37890 48303 57019 333 91110 91206;
0220067510999992010010906004+46450+008517FM-12+189899999V0202501N002119999999N9999999N1-00311-01041999999ADDAA112004191AA224025491AL12402591GJ100009KA1999N-00351MA1999999078821MD1710201+9999ME1312949OA149900571REMSYN106AAXX  09064 06751 03/// /2504 11031 21104 37882 48294 57020 60042 333 21035 55000 60005 70254 91111 91207;
0137067510999992010010907004+46450+008517FM-12+189899999V0203001N000519999999N9999999N1-00251-01141999999ADDMA1999999078821MD1710171+9999ME1312929OA149900571REMSYN076AAXX  09074 06751 33/// /3001 11025 21114 37882 48292 57017 333 91111 91207;
0137067510999992010010908004+46450+008517FM-12+189899999V0209999C000019999999N9999999N1-00281-01141999999ADDMA1999999078841MD1510061+9999ME1312959OA149900361REMSYN076AAXX  09084 06751 33/// /0000 11028 21114 37884 48295 55006 333 91107 91203;
0156067510999992010010909004+46450+008517FM-12+189899999V0200101N000519999999N9999999N1-00201-01111999999ADDMA1999999078821MD1410001+9999ME1312919OA149900571REMSYN076AAXX  09094 06751 33/// /0101 11020 21111 37882 48291 57000 333 91111 91207;EQDQ01+000072APCTEN
0137067510999992010010910004+46450+008517FM-12+189899999V0202601N001019999999N9999999N1-00271-00841999999ADDMA1999999078761MD1810061+9999ME1312879OA149900411REMSYN076AAXX  09104 06751 33/// /2602 11027 21084 37876 48287 58006 333 91108 91203;
0137067510999992010010911004+46450+008517FM-12+189899999V0203601N001019999999N9999999N1+00151-01141999999ADDMA1999999078691MD1710151+9999ME1312709OA149900411REMSYN076AAXX  09114 06751 33/// /3602 10015 21114 37869 48270 57015 333 91108 91203;
0137067510999992010010912004+46450+008517FM-12+189899999V0203401N004119999999N9999999N1+00211-01131999999ADDMA1999999078611MD1710211+9999ME1312609OA149900821REMSYN076AAXX  09124 06751 33/// /3408 10021 21113 37861 48260 57021 333 91116 91210;
0137067510999992010010913004+46450+008517FM-12+189899999V0203101N003619999999N9999999N1+00161-01011999999ADDMA1999999078551MD1610211+9999ME1312559OA149901131REMSYN076AAXX  09134 06751 33/// /3107 10016 21101 37855 48255 56021 333 91122 91214;
0137067510999992010010914004+46450+008517FM-12+189899999V0203301N004119999999N9999999N1+00061-00731999999ADDMA1999999078601MD1710091+9999ME1312629OA149901131REMSYN076AAXX  09144 06751 33/// /3308 10006 21073 37860 48262 57009 333 91122 91214;
0137067510999992010010915004+46450+008517FM-12+189899999V0203501N000519999999N9999999N1-00081-00511999999ADDMA1999999078641MD1310031+9999ME1312709OA149901131REMSYN076AAXX  09154 06751 33/// /3501 11008 21051 37864 48270 53003 333 91122 91214;
0137067510999992010010916004+46450+008517FM-12+189899999V0209999C000019999999N9999999N1-00321-00531999999ADDMA1999999078661MD1110111+9999ME1312789OA149900771REMSYN076AAXX  09164 06751 33/// /0000 11032 21053 37866 48278 51011 333 91115 91210;
0154067510999992010010917004+46450+008517FM-12+189899999V0209999C000019999999N9999999N1-00421-00451999999ADDAA101000391MA1999999078741MD1310141+9999ME1312889OA149900361REMSYN082AAXX  09174 06751 23/// /0000 11042 21045 37874 48288 53014 333 69935 91107 91203;
0179067510999992010010918004+46450+008517FM-12+189899999V0203301N000519999999N9999999N1-00411-00491999999ADDAA112002091KA1120M+00221MA1999999078801MD1310161+9999ME1312949OA149901131REMSYN094AAXX  09184 06751 03/// /3301 11041 21049 37880 48294 53016 60022 333 10022 60025 91122 91214;
0154067510999992010010919004+46450+008517FM-12+189899999V0202001N000519999999N9999999N1-00431-00441999999ADDAA101001091MA1999999078841MD1210181+9999ME1312989OA149900311REMSYN082AAXX  09194 06751 23/// /2001 11043 21044 37884 48298 52018 333 69995 91106 91202;
0154067510999992010010920004+46450+008517FM-12+189899999V0209999C000019999999N9999999N1-00451-00521999999ADDAA101002091MA1999999078891MD1210151+9999ME1313049OA149900101REMSYN082AAXX  09204 06751 23/// /0000 11045 21052 37889 48304 52015 333 60025 91102 91201;
0154067510999992010010921004+46450+008517FM-12+189899999V0201901N001019999999N9999999N1-00461-00481999999ADDAA101000891MA1999999078931MD1110131+9999ME1313089OA149900361REMSYN082AAXX  09214 06751 23/// /1902 11046 21048 37893 48308 51013 333 69985 91107 91203;
0154067510999992010010922004+46450+008517FM-12+189899999V0201601N001519999999N9999999N1-00501-00571999999ADDAA101001091MA1999999079011MD1310171+9999ME1313179OA149900511REMSYN082AAXX  09224 06751 23/// /1603 11050 21057 37901 48317 53017 333 60015 91110 91205;
0154067510999992010010923004+46450+008517FM-12+189899999V0209999C000019999999N9999999N1-00521-00591999999ADDAA101002091MA1999999079061MD1310171+9999ME1313239OA149900511REMSYN082AAXX  09234 06751 23/// /0000 11052 21059 37906 48323 53017 333 60025 91110 91205;
0160067510999992010011000004+46450+008517FM-12+189899999V0202801N000519999999N9999999N1-00511-00541999999ADDAA106007191MA1999999079081MD1210151+9999ME1313259OA149901131REMSYN088AAXX  10004 06751 03/// /2801 11051 21054 37908 48325 52015 60071 333 69995 91122 91214;
0154067510999992010011001004+46450+008517FM-12+189899999V0202601N000519999999N9999999N1-00491-00561999999ADDAA101000591MA1999999079111MD1210101+9999ME1313279OA149900211REMSYN082AAXX  10014 06751 23/// /2601 11049 21056 37911 48327 52010 333 69945 91104 91202;
0117067510999992010011002004+46450+008517FM-12+189899999V0201701N000519999999N9999999N1-00531-00561999999ADDAA101001091MA1999999079171ME1313349REMSYN070AAXX  10024 06751 23/// /1701 11053 21056 37917 48334 5//// 333 60015;
0096067510999992010011003004+46450+008517FM-12+189899999V0201801N000519999999N9999999N1-00471-00581999999ADDMA1999999079191ME1313359REMSYN060AAXX  10034 06751 43/// /1801 11047 21058 37919 48335 5////;
0154067510999992010011004004+46450+008517FM-12+189899999V0202101N001019999999N9999999N1-00511-00591999999ADDAA101001091MA1999999079241MD1310131+9999ME1313419OA149900621REMSYN082AAXX  10044 06751 23/// /2102 11051 21059 37924 48341 53013 333 60015 91112 91204;
0154067510999992010011005004+46450+008517FM-12+189899999V0201801N001519999999N9999999N1-00531-00561999999ADDAA101000591MA1999999079281MD1310111+9999ME1313459OA149900621REMSYN082AAXX  10054 06751 23/// /1803 11053 21056 37928 48345 53011 333 69945 91112 91204;
0220067510999992010011006004+46450+008517FM-12+189899999V0201501N001519999999N9999999N1-00541-00571999999ADDAA112011991AA224013291AL11801391GJ100009KA1999N-00561MA1999999079331MD1110141+9999ME1313509OA149900621REMSYN106AAXX  10064 06751 03/// /1503 11054 21057 37933 48350 51014 60122 333 21056 55000 69955 70133 91112 91205;
0154067510999992010011007004+46450+008517FM-12+189899999V0201601N001519999999N9999999N1-00561-00561999999ADDAA101000021MA1999999079391MD1110151+9999ME1313579OA149900411REMSYN082AAXX  10074 06751 23/// /1603 11056 21056 37939 48357 51015 333 69925 91108 91204;
0154067510999992010011008004+46450+008517FM-12+189899999V0201501N001019999999N9999999N1-00581-00581999999ADDAA101000021MA1999999079451MD1319999+9999ME1313639OA149900311REMSYN082AAXX  10084 06751 23/// /1502 11058 21058 37945 48363 53/// 333 69915 91106 91204;
0137067510999992010011009004+46450+008517FM-12+189899999V0201801N001019999999N9999999N1-00571-00571999999ADDMA1999999079521MD1210191+9999ME1313709OA149900621REMSYN076AAXX  10094 06751 33/// /1802 11057 21057 37952 48370 52019 333 91112 91204;
0154067510999992010011010004+46450+008517FM-12+189899999V0202301N000519999999N9999999N1-00621-00621999999ADDAA101000021MA1999999079581MD1110191+9999ME1313779OA149900211REMSYN082AAXX  10104 06751 23/// /2301 11062 21062 37958 48377 51019 333 69915 91104 91203;
0154067510999992010011011004+46450+008517FM-12+189899999V0202301N000519999999N9999999N1-00631-00631999999ADDAA101000021MA1999999079611MD1110161+9999ME1313809OA149900211REMSYN082AAXX  10114 06751 23/// /2301 11063 21063 37961 48380 51016 333 69925 91104 91203;
0160067510999992010011012004+46450+008517FM-12+189899999V0209999C000019999999N9999999N1-00561-00671999999ADDAA106000591MA1999999079621MD1110101+9999ME1313809OA149900621REMSYN088AAXX  10124 06751 03/// /0000 11056 21067 37962 48380 51010 69961 333 60005 91112 91204;
0137067510999992010011013004+46450+008517FM-12+189899999V0202501N004119999999N9999999N1-00631-01211999999ADDMA1999999079611MD1210031+9999ME1313809OA149900571REMSYN076AAXX  10134 06751 33/// /2508 11063 21121 37961 48380 52003 333 91111 91208;
0137067510999992010011014004+46450+008517FM-12+189899999V0202601N002119999999N9999999N1-00641-01181999999ADDMA1999999079641MD1219999+9999ME1313839OA149900621REMSYN076AAXX  10144 06751 33/// /2604 11064 21118 37964 48383 52/// 333 91112 91209;
0137067510999992010011015004+46450+008517FM-12+189899999V0203001N001019999999N9999999N1-00771-01261999999ADDMA1999999079671MD1210051+9999ME1313899OA149900621REMSYN076AAXX  10154 06751 33/// /3002 11077 21126 37967 48389 52005 333 91112 91209;
0137067510999992010011016004+46450+008517FM-12+189899999V0203401N000519999999N9999999N1-00801-01261999999ADDMA1999999079701MD1310091+9999ME1313929OA149900671REMSYN076AAXX  10164 06751 33/// /3401 11080 21126 37970 48392 53009 333 91113 91208;
0137067510999992010011017004+46450+008517FM-12+189899999V0200201N000519999999N9999999N1-00851-01311999999ADDMA1999999079731MD1310091+9999ME1313969OA149900671REMSYN076AAXX  10174 06751 33/// /0201 11085 21131 37973 48396 53009 333 91113 91208;
0179067510999992010011018004+46450+008517FM-12+189899999V0200101N000519999999N9999999N1-00791-01231999999ADDAA112000591KA1120M-00521MA1999999079771MD1210101+9999ME1313999OA149900671REMSYN094AAXX  10184 06751 03/// /0101 11079 21123 37977 48399 52010 69962 333 11052 60005 91113 91209;
0137067510999992010011019004+46450+008517FM-12+189899999V0203101N000519999999N9999999N1-00831-01351999999ADDMA1999999079801MD1210101+9999ME1314039OA149900511REMSYN076AAXX  10194 06751 33/// /3101 11083 21135 37980 48403 52010 333 91110 91203;
0137067510999992010011020004+46450+008517FM-12+189899999V0209999C001019999999N9999999N1-00831-01311999999ADDMA1999999079851MD1210121+9999ME1314089OA149900461REMSYN076AAXX  10204 06751 33/// /0002 11083 21131 37985 48408 52012 333 91109 91202;
0137067510999992010011021004+46450+008517FM-12+189899999V0200201N000519999999N9999999N1-00761-01541999999ADDMA1999999079861MD1210091+9999ME1314079OA149900671REMSYN076AAXX  10214 06751 33/// /0201 11076 21154 37986 48407 52009 333 91113 91208;
0137067510999992010011022004+46450+008517FM-12+189899999V0209999C000519999999N9999999N1-00771-01551999999ADDMA1999999079871MD1210071+9999ME1314099OA149900211REMSYN076AAXX  10224 06751 33/// /0001 11077 21155 37987 48409 52007 333 91104 91202;
0137067510999992010011023004+46450+008517FM-12+189899999V0209999C000019999999N9999999N1-00831-01411999999ADDMA1999999079881MD1210031+9999ME1314119OA149900211REMSYN076AAXX  10234 06751 33/// /0000 11083 21141 37988 48411 52003 333 91104 91202;
0137067510999992010011100004+46450+008517FM-12+189899999V0209999C000019999999N9999999N1-01081-01591999999ADDMA1999999079901MD1210041+9999ME1314179OA149900671REMSYN076AAXX  11004 06751 33/// /0000 11108 21159 37990 48417 52004 333 91113 91209;
0137067510999992010011101004+46450+008517FM-12+189899999V0200201N000519999999N9999999N1-00751-01481999999ADDMA1999999079861MD1810011+9999ME1314079OA149900461REMSYN076AAXX  11014 06751 33/// /0201 11075 21148 37986 48407 58001 333 91109 91202;
0137067510999992010011102004+46450+008517FM-12+189899999V0202301N000519999999N9999999N1-00831-01661999999ADDMA1999999079881MD1019999+9999ME1314119OA149900461REMSYN076AAXX  11024 06751 33/// /2301 11083 21166 37988 48411 50/// 333 91109 91202;
0137067510999992010011103004+46450+008517FM-12+189899999V0200301N001019999999N9999999N1-00681-01751999999ADDMA1999999079881MD1719999+9999ME1314089OA149900571REMSYN076AAXX  11034 06751 33/// /0302 11068 21175 37988 48408 57/// 333 91111 91204;
0137067510999992010011104004+46450+008517FM-12+189899999V0203201N001019999999N9999999N1-00731-01581999999ADDMA1999999079881MD1210021+9999ME1314099OA149900671REMSYN076AAXX  11044 06751 33/// /3202 11073 21158 37988 48409 52002 333 91113 91207;
0137067510999992010011105004+46450+008517FM-12+189899999V0209999C000519999999N9999999N1-00741-01751999999ADDMA1999999079891MD1510011+9999ME1314109OA149900671REMSYN076AAXX  11054 06751 33/// /0001 11074 21175 37989 48410 55001 333 91113 91207;
0197067510999992010011106004+46450+008517FM-12+189899999V0200201N000519999999N9999999N1-00771-01531999999ADDAA124000891AL14800091GJ100429KA1999N-01081MA1999999079891MD1510011+9999ME1314119OA149900671REMSYN094AAXX  11064 06751 33/// /0201 11077 21153 37989 48411 55001 333 21108 55007 70008 91113 91207;
0137067510999992010011107004+46450+008517FM-12+189899999V0200101N000519999999N9999999N1-00841-01581999999ADDMA1999999079911MD1210031+9999ME1314149OA149900621REMSYN076AAXX  11074 06751 33/// /0101 11084 21158 37991 48414 52003 333 91112 91207;
0137067510999992010011108004+46450+008517FM-12+189899999V0200401N000519999999N9999999N1-00781-01511999999ADDMA1999999079931MD1219999+9999ME1314159OA149900571REMSYN076AAXX  11084 06751 33/// /0401 11078 21151 37993 48415 52/// 333 91111 91201;
0137067510999992010011109004+46450+008517FM-12+189899999V0203201N000519999999N9999999N1-00671-01691999999ADDMA1999999079971MD1310081+9999ME1314179OA149900671REMSYN076AAXX  11094 06751 33/// /3201 11067 21169 37997 48417 53008 333 91113 91207;
0137067510999992010011110004+46450+008517FM-12+189899999V0202501N000519999999N9999999N1-00631-01541999999ADDMA1999999080011MD1319999+9999ME1314209OA149900211REMSYN076AAXX  11104 06751 33/// /2501 11063 21154 38001 48420 53/// 333 91104 91202;
0137067510999992010011111004+46450+008517FM-12+189899999V0209999C000019999999N9999999N1-00641-01361999999ADDMA1999999080001MD1210071+9999ME1314199OA149900151REMSYN076AAXX  11114 06751 33/// /0000 11064 21136 38000 48419 52007 333 91103 91201;
0137067510999992010011112004+46450+008517FM-12+189899999V0209999C000019999999N9999999N1-00631-01451999999ADDMA1999999079981MD1010011+9999ME1314179OA149900671REMSYN076AAXX  11124 06751 33/// /0000 11063 21145 37998 48417 50001 333 91113 91207;
0137067510999992010011113004+46450+008517FM-12+189899999V0202801N001019999999N9999999N1-00601-01291999999ADDMA1999999079951MD1810061+9999ME1314139OA149900261REMSYN076AAXX  11134 06751 33/// /2802 11060 21129 37995 48413 58006 333 91105 91202;
0096067510999992010011114004+46450+008517FM-12+189899999V0202601N002619999999N9999999N1-00661-01381999999ADDMA1999999079951ME1314159REMSYN060AAXX  11144 06751 33/// /2605 11066 21138 37995 48415 5////;
0137067510999992010011115004+46450+008517FM-12+189899999V0203201N000519999999N9999999N1-00681-01381999999ADDMA1999999079941MD1710041+9999ME1314149OA149900461REMSYN076AAXX  11154 06751 33/// /3201 11068 21138 37994 48414 57004 333 91109 91205;
0137067510999992010011116004+46450+008517FM-12+189899999V0202801N001519999999N9999999N1-00671-01531999999ADDMA1999999079931MD1810021+9999ME1314139OA149900411REMSYN076AAXX  11164 06751 33/// /2803 11067 21153 37993 48413 58002 333 91108 91204;
0137067510999992010011117004+46450+008517FM-12+189899999V0202401N000519999999N9999999N1-00641-01361999999ADDMA1999999079941MD1510011+9999ME1314139OA149900411REMSYN076AAXX  11174 06751 33/// /2401 11064 21136 37994 48413 55001 333 91108 91203;
0156067510999992010011118004+46450+008517FM-12+189899999V0203501N000519999999N9999999N1-00681-01211999999ADDKA1120M-00571MA1999999079981MD1210041+9999ME1314189OA149900571REMSYN082AAXX  11184 06751 33/// /3501 11068 21121 37998 48418 52004 333 11057 91111 91205;
0137067510999992010011119004+46450+008517FM-12+189899999V0202601N001019999999N9999999N1-00751-01131999999ADDMA1999999080011MD1310081+9999ME1314229OA149900361REMSYN076AAXX  11194 06751 33/// /2602 11075 21113 38001 48422 53008 333 91107 91202;
0137067510999992010011120004+46450+008517FM-12+189899999V0202601N001019999999N9999999N1-00781-01291999999ADDMA1999999080051MD1110111+9999ME1314279OA149900311REMSYN076AAXX  11204 06751 33/// /2602 11078 21129 38005 48427 51011 333 91106 91202;
0137067510999992010011121004+46450+008517FM-12+189899999V0200101N000519999999N9999999N1-00881-01331999999ADDMA1999999080071MD1210091+9999ME1314309OA149900621REMSYN076AAXX  11214 06751 33/// /0101 11088 21133 38007 48430 52009 333 91112 91203;
0137067510999992010011122004+46450+008517FM-12+189899999V0203201N000519999999N9999999N1-00821-01211999999ADDMA1999999080081MD1210071+9999ME1314309OA149900621REMSYN076AAXX  11224 06751 33/// /3201 11082 21121 38008 48430 52007 333 91112 91203;
0137067510999992010011123004+46450+008517FM-12+189899999V0200801N000519999999N9999999N1-00741-01061999999ADDMA1999999080081MD1210031+9999ME1314299OA149900211REMSYN076AAXX  11234 06751 33/// /0801 11074 21106 38008 48429 52003 333 91104 91202;
0137067510999992010011200004+46450+008517FM-12+189899999V0209999C000019999999N9999999N1-00701-01051999999ADDMA1999999080081MD1010011+9999ME1314289OA149900621REMSYN076AAXX  12004 06751 33/// /0000 11070 21105 38008 48428 50001 333 91112 91205;
0137067510999992010011201004+46450+008517FM-12+189899999V0200101N000519999999N9999999N1-00711-01081999999ADDMA1999999080101MD1210021+9999ME1314309OA149900151REMSYN076AAXX  12014 06751 33/// /0101 11071 21108 38010 48430 52002 333 91103 91202;
0137067510999992010011202004+46450+008517FM-12+189899999V0200401N000519999999N9999999N1-00771-01031999999ADDMA1999999080091MD1019999+9999ME1314309OA149900151REMSYN076AAXX  12024 06751 33/// /0401 11077 21103 38009 48430 50/// 333 91103 91201;
0137067510999992010011203004+46450+008517FM-12+189899999V0203301N000519999999N9999999N1-00741-01021999999ADDMA1999999080101MD1210021+9999ME1314319OA149900211REMSYN076AAXX  12034 06751 33/// /3301 11074 21102 38010 48431 52002 333 91104 91202;
0137067510999992010011204004+46450+008517FM-12+189899999V0200501N000519999999N9999999N1-00691-01041999999ADDMA1999999080081MD1710021+9999ME1314289OA149900151REMSYN076AAXX  12044 06751 33/// /0501 11069 21104 38008 48428 57002 333 91103 91202;
0137067510999992010011205004+46450+008517FM-12+189899999V0203401N000519999999N9999999N1-00741-01041999999ADDMA1999999080091MD1010001+9999ME1314309OA149900101REMSYN076AAXX  12054 06751 33/// /3401 11074 21104 38009 48430 50000 333 91102 91201;
0216067510999992010011206004+46450+008517FM-12+189899999V0202901N000519999999N9999999N1-00841-01201999999ADDAA124000091AL19900091GJ103129KA1999N-00891MA1999999080091MD1510011+9999ME1314329OA149900621REMSYN094AAXX  12064 06751 33/// /2901 11084 21120 38009 48432 55001 333 21089 55052 70000 91112 91203;EQDQ01  00002PRCP24
0137067510999992010011207004+46450+008517FM-12+189899999V0203001N001019999999N9999999N1-00871-01331999999ADDMA1999999080101MD1310021+9999ME1314339OA149900261REMSYN076AAXX  12074 06751 33/// /3002 11087 21133 38010 48433 53002 333 91105 91203;
0137067510999992010011208004+46450+008517FM-12+189899999V0200201N000519999999N9999999N1-00991-01401999999ADDMA1999999080121MD1219999+9999ME1314379OA149900311REMSYN076AAXX  12084 06751 33/// /0201 11099 21140 38012 48437 52/// 333 91106 91203;
0137067510999992010011209004+46450+008517FM-12+189899999V0202601N001519999999N9999999N1-00801-01341999999ADDMA1999999080111MD1210021+9999ME1314339OA149900411REMSYN076AAXX  12094 06751 33/// /2603 11080 21134 38011 48433 52002 333 91108 91203;
0137067510999992010011210004+46450+008517FM-12+189899999V0202601N001519999999N9999999N1-00821-01171999999ADDMA1999999080131MD1210031+9999ME1314359OA149900411REMSYN076AAXX  12104 06751 33/// /2603 11082 21117 38013 48435 52003 333 91108 91203;
0137067510999992010011211004+46450+008517FM-12+189899999V0200601N000519999999N9999999N1-00731-01031999999ADDMA1999999080121MD1010001+9999ME1314339OA149900361REMSYN076AAXX  12114 06751 33/// /0601 11073 21103 38012 48433 50000 333 91107 91203;
0137067510999992010011212004+46450+008517FM-12+189899999V0201801N001019999999N9999999N1-00751-00901999999ADDMA1999999080071MD1710041+9999ME1314289OA149900411REMSYN076AAXX  12124 06751 33/// /1802 11075 21090 38007 48428 57004 333 91108 91203;
0137067510999992010011213004+46450+008517FM-12+189899999V0202101N000519999999N9999999N1-00781-00911999999ADDMA1999999080051MD1810081+9999ME1314279OA149900311REMSYN076AAXX  12134 06751 33/// /2101 11078 21091 38005 48427 58008 333 91106 91203;
0096067510999992010011214004+46450+008517FM-12+189899999V0201701N000519999999N9999999N1-00801-00901999999ADDMA1999999080031ME1314259REMSYN060AAXX  12144 06751 33/// /1701 11080 21090 38003 48425 5////;
0137067510999992010011215004+46450+008517FM-12+189899999V0209999C000019999999N9999999N1-00821-00881999999ADDMA1999999079971MD1810101+9999ME1314199OA149900361REMSYN076AAXX  12154 06751 33/// /0000 11082 21088 37997 48419 58010 333 91107 91203;
0137067510999992010011216004+46450+008517FM-12+189899999V0202101N000519999999N9999999N1-00791-00811999999ADDMA1999999079951MD1810101+9999ME1314179OA149900101REMSYN076AAXX  12164 06751 33/// /2101 11079 21081 37995 48417 58010 333 91102 91201;
0137067510999992010011217004+46450+008517FM-12+189899999V0201901N001519999999N9999999N1-00771-00861999999ADDMA1999999079931MD1610101+9999ME1314159OA149900311REMSYN076AAXX  12174 06751 33/// /1903 11077 21086 37993 48415 56010 333 91106 91203;
0156067510999992010011218004+46450+008517FM-12+189899999V0202401N000519999999N9999999N1-00821-00931999999ADDKA1120M-00731MA1999999079931MD1710041+9999ME1314159OA149900411REMSYN082AAXX  12184 06751 33/// /2401 11082 21093 37993 48415 57004 333 11073 91108 91203;
0137067510999992010011219004+46450+008517FM-12+189899999V0201801N000519999999N9999999N1-00831-00911999999ADDMA1999999079941MD1710011+9999ME1314179OA149900261REMSYN076AAXX  12194 06751 33/// /1801 11083 21091 37994 48417 57001 333 91105 91203;
0137067510999992010011220004+46450+008517FM-12+189899999V0202001N000519999999N9999999N1-00831-00881999999ADDMA1999999079951MD1310021+9999ME1314189OA149900151REMSYN076AAXX  12204 06751 33/// /2001 11083 21088 37995 48418 53002 333 91103 91201;
0137067510999992010011221004+46450+008517FM-12+189899999V0201901N001019999999N9999999N1-00801-00841999999ADDMA1999999079931MD1010001+9999ME1314159OA149900311REMSYN076AAXX  12214 06751 33/// /1902 11080 21084 37993 48415 50000 333 91106 91203;
0154067510999992010011222004+46450+008517FM-12+189899999V0201801N001019999999N9999999N1-00831-00861999999ADDAA101000021MA1999999079891MD1810051+9999ME1314129OA149900261REMSYN082AAXX  12224 06751 23/// /1802 11083 21086 37989 48412 58005 333 69915 91105 91203;
0137067510999992010011223004+46450+008517FM-12+189899999V0201801N001019999999N9999999N1-00811-00861999999ADDMA1999999079791MD1710161+9999ME1314029OA149900261REMSYN076AAXX  12234 06751 33/// /1802 11081 21086 37979 48402 57016 333 91105 91203;
0179067510999992010011300004+46450+008517FM-12+189899999V0202501N001019999999N9999999N1-00841-00961999999ADDAA106000091MA1999999079811MD1710121+9999ME1314049OA149900311REMSYN088AAXX  13004 06751 03/// /2502 11084 21096 37981 48404 57012 69911 333 60005 91106 91203;EQDQ01  00002PRCP06
0137067510999992010011301004+46450+008517FM-12+189899999V0202401N000519999999N9999999N1-00851-00961999999ADDMA1999999079761MD1710131+9999ME1313999OA149900211REMSYN076AAXX  13014 06751 33/// /2401 11085 21096 37976 48399 57013 333 91104 91202;
0154067510999992010011302004+46450+008517FM-12+189899999V0209999C000019999999N9999999N1-00861-00971999999ADDAA101000391MA1999999079731MD1819999+9999ME1313979OA149900151REMSYN082AAXX  13024 06751 23/// /0000 11086 21097 37973 48397 58/// 333 69935 91103 91202;
0154067510999992010011303004+46450+008517FM-12+189899999V0209999C000019999999N9999999N1-00851-00971999999ADDAA101000591MA1999999079691MD1719999+9999ME1313929OA149900261REMSYN082AAXX  13034 06751 23/// /0000 11085 21097 37969 48392 57/// 333 69945 91105 91203;
0137067510999992010011304004+46450+008517FM-12+189899999V0209999C000019999999N9999999N1-00841-01021999999ADDMA1999999079671MD1710091+9999ME1313909OA149900051REMSYN076AAXX  13044 06751 33/// /0000 11084 21102 37967 48390 57009 333 91101 91200;
0154067510999992010011305004+46450+008517FM-12+189899999V0203301N000519999999N9999999N1-00871-01041999999ADDAA101000021MA1999999079641MD1610091+9999ME1313889OA149900051REMSYN082AAXX  13054 06751 23/// /3301 11087 21104 37964 48388 56009 333 69915 91101 91201;
0220067510999992010011306004+46450+008517FM-12+189899999V0209999C000019999999N9999999N1-00851-01001999999ADDAA112001091AA224001091AL19900191GJ100369KA1999N-00881MA1999999079641MD1610051+9999ME1313879OA149900261REMSYN106AAXX  13064 06751 03/// /0000 11085 21100 37964 48387 56005 60012 333 21088 55006 69915 70010 91105 91203;
0173067510999992010011307004+46450+008517FM-12+189899999V0209999C000019999999N9999999N1-00851-01011999999ADDAA101000021MA1999999079671MD1410001+9999ME1313909OA149900051REMSYN082AAXX  13074 06751 23/// /0000 11085 21101 37967 48390 53000 333 69925 91101 91201;EQDQ01+000032APCTEN
0137067510999992010011308004+46450+008517FM-12+189899999V0202601N000519999999N9999999N1-00821-01131999999ADDMA1999999079711MD1210071+9999ME1313949OA149900211REMSYN076AAXX  13084 06751 33/// /2601 11082 21113 37971 48394 52007 333 91104 91201;
0137067510999992010011309004+46450+008517FM-12+189899999V0200201N000519999999N9999999N1-00771-01031999999ADDMA1999999079731MD1210091+9999ME1313959OA149900211REMSYN076AAXX  13094 06751 33/// /0201 11077 21103 37973 48395 52009 333 91104 91202;
0137067510999992010011310004+46450+008517FM-12+189899999V0209999C000019999999N9999999N1-00731-01001999999ADDMA1999999079751MD1110081+9999ME1313969OA149900211REMSYN076AAXX  13104 06751 33/// /0000 11073 21100 37975 48396 51008 333 91104 91202;
0137067510999992010011311004+46450+008517FM-12+189899999V0209999C000019999999N9999999N1-00761-00971999999ADDMA1999999079761MD1110051+9999ME1313989OA149900101REMSYN076AAXX  13114 06751 33/// /0000 11076 21097 37976 48398 51005 333 91102 91201;
0195067510999992010011312004+46450+008517FM-12+189899999V0209999C000019999999N9999999N1-00651-00971999999ADDAA106000091MA1999999079731MD1410001+9999ME1313939OA149900211REMSYN088AAXX  13124 06751 03/// /0000 11065 21097 37973 48393 58000 69921 333 60005 91104 91202;EQDQ01+000082APCTENQ02  00002PRCP06
0137067510999992010011313004+46450+008517FM-12+189899999V0209999C000019999999N9999999N1-00761-00991999999ADDMA1999999079711MD1710041+9999ME1313939OA149900051REMSYN076AAXX  13134 06751 33/// /0000 11076 21099 37971 48393 57004 333 91101 91201;
0137067510999992010011314004+46450+008517FM-12+189899999V0209999C000019999999N9999999N1-00701-00961999999ADDMA1999999079721MD1519999+9999ME1313929OA149900101REMSYN076AAXX  13144 06751 33/// /0000 11070 21096 37972 48392 55/// 333 91102 91201;
0137067510999992010011315004+46450+008517FM-12+189899999V0203001N000519999999N9999999N1-00711-01051999999ADDMA1999999079711MD1710021+9999ME1313929OA149900101REMSYN076AAXX  13154 06751 33/// /3001 11071 21105 37971 48392 57002 333 91102 91201;
0137067510999992010011316004+46450+008517FM-12+189899999V0203201N000519999999N9999999N1-00761-01141999999ADDMA1999999079741MD1210031+9999ME1313969OA149900311REMSYN076AAXX  13164 06751 33/// /3201 11076 21114 37974 48396 52003 333 91106 91203;
0137067510999992010011317004+46450+008517FM-12+189899999V0200401N000519999999N9999999N1-00751-01091999999ADDMA1999999079771MD1210051+9999ME1313989OA149900311REMSYN076AAXX  13174 06751 33/// /0401 11075 21109 37977 48398 52005 333 91106 91204;
0198067510999992010011318004+46450+008517FM-12+189899999V0209999C000519999999N9999999N1-00691-01041999999ADDAA112000091KA1120M-00611MA1999999079791MD1110081+9999ME1313999OA149900311REMSYN094AAXX  13184 06751 03/// /0001 11069 21104 37979 48399 51008 69922 333 11061 60005 91106 91204;EQDQ01  00002PRCP12
0137067510999992010011319004+46450+008517FM-12+189899999V0209999C000019999999N9999999N1-00721-01111999999ADDMA1999999079811MD1210071+9999ME1314029OA149900151REMSYN076AAXX  13194 06751 33/// /0000 11072 21111 37981 48402 52007 333 91103 91201;
0137067510999992010011320004+46450+008517FM-12+189899999V0200201N000519999999N9999999N1-00721-01101999999ADDMA1999999079811MD1210041+9999ME1314029OA149900151REMSYN076AAXX  13204 06751 33/// /0201 11072 21110 37981 48402 52004 333 91103 91201;
0137067510999992010011321004+46450+008517FM-12+189899999V0209999C000019999999N9999999N1-00741-01071999999ADDMA1999999079801MD1010011+9999ME1314019OA149900311REMSYN076AAXX  13214 06751 33/// /0000 11074 21107 37980 48401 50001 333 91106 91204;
0137067510999992010011322004+46450+008517FM-12+189899999V0200801N000519999999N9999999N1-00721-01081999999ADDMA1999999079801MD1710011+9999ME1314019OA149900151REMSYN076AAXX  13224 06751 33/// /0801 11072 21108 37980 48401 57001 333 91103 91201;
0137067510999992010011323004+46450+008517FM-12+189899999V0203301N000519999999N9999999N1-00841-01221999999ADDMA1999999079801MD1710011+9999ME1314039OA149900151REMSYN076AAXX  13234 06751 33/// /3301 11084 21122 37980 48403 57001 333 91103 91202;
0137067510999992010011400004+46450+008517FM-12+189899999V0209999C000519999999N9999999N1-00891-01251999999ADDMA1999999079771MD1710031+9999ME1314019OA149900311REMSYN076AAXX  14004 06751 33/// /0001 11089 21125 37977 48401 57003 333 91106 91204;
0137067510999992010011401004+46450+008517FM-12+189899999V0200301N000519999999N9999999N1-00761-01171999999ADDMA1999999079751MD1710051+9999ME1313979OA149900211REMSYN076AAXX  14014 06751 33/// /0301 11076 21117 37975 48397 57005 333 91104 91202;
0137067510999992010011402004+46450+008517FM-12+189899999V0203101N000519999999N9999999N1-00711-01181999999ADDMA1999999079721MD1619999+9999ME1313939OA149900261REMSYN076AAXX  14024 06751 33/// /3101 11071 21118 37972 48393 56/// 333 91105 91201;
0096067510999992010011403004+46450+008517FM-12+189899999V0202401N000519999999N9999999N1-00781-01121999999ADDMA1999999079721ME1313949REMSYN060AAXX  14034 06751 33/// /2401 11078 21112 37972 48394 5////;
0137067510999992010011404004+46450+008517FM-12+189899999V0209999C000019999999N9999999N1-00771-01081999999ADDMA1999999079741MD1510011+9999ME1313969OA149900151REMSYN076AAXX  14044 06751 33/// /0000 11077 21108 37974 48396 55001 333 91103 91202;
0137067510999992010011405004+46450+008517FM-12+189899999V0200301N000519999999N9999999N1-00731-01081999999ADDMA1999999079741MD1210021+9999ME1313959OA149900151REMSYN076AAXX  14054 06751 33/// /0301 11073 21108 37974 48395 52002 333 91103 91202;
0197067510999992010011406004+46450+008517FM-12+189899999V0203601N000519999999N9999999N1-00781-01121999999ADDAA124000391AL11200091GJ100009KA1999N-00891MA1999999079741MD1010021+9999ME1313969OA149900411REMSYN094AAXX  14064 06751 33/// /3601 11078 21112 37974 48396 50002 333 21089 55000 70002 91108 91203;
0137067510999992010011407004+46450+008517FM-12+189899999V0200501N000519999999N9999999N1-00751-01101999999ADDMA1999999079751MD1210011+9999ME1313969OA149900411REMSYN076AAXX  14074 06751 33/// /0501 11075 21110 37975 48396 52001 333 91108 91203;
0137067510999992010011408004+46450+008517FM-12+189899999V0202301N000519999999N9999999N1-00771-01051999999ADDMA1999999079791MD1219999+9999ME1314019OA149900361REMSYN076AAXX  14084 06751 33/// /2301 11077 21105 37979 48401 52/// 333 91107 91202;
0137067510999992010011409004+46450+008517FM-12+189899999V0200501N000519999999N9999999N1-00721-00991999999ADDMA1999999079801MD1210061+9999ME1314019OA149900411REMSYN076AAXX  14094 06751 33/// /0501 11072 21099 37980 48401 52006 333 91108 91203;
0137067510999992010011410004+46450+008517FM-12+189899999V0209999C000019999999N9999999N1-00661-00911999999ADDMA1999999079821MD1210071+9999ME1314029OA149900151REMSYN076AAXX  14104 06751 33/// /0000 11066 21091 37982 48402 52007 333 91103 91202;
0137067510999992010011411004+46450+008517FM-12+189899999V0209999C000019999999N9999999N1-00671-00881999999ADDMA1999999079801MD1010011+9999ME1314009OA149900101REMSYN076AAXX  14114 06751 33/// /0000 11067 21088 37980 48400 50001 333 91102 91201;
0137067510999992010011412004+46450+008517FM-12+189899999V0209999C000019999999N9999999N1-00691-00821999999ADDMA1999999079781MD1810021+9999ME1313989OA149900411REMSYN076AAXX  14124 06751 33/// /0000 11069 21082 37978 48398 58002 333 91108 91203;
0137067510999992010011413004+46450+008517FM-12+189899999V0209999C000019999999N9999999N1-00701-00791999999ADDMA1999999079761MD1610061+9999ME1313969OA149900101REMSYN076AAXX  14134 06751 33/// /0000 11070 21079 37976 48396 56006 333 91102 91201;
0154067510999992010011414004+46450+008517FM-12+189899999V0202101N000519999999N9999999N1-00691-00771999999ADDAA101000021MA1999999079781MD1510021+9999ME1313989OA149900101REMSYN082AAXX  14144 06751 23/// /2101 11069 21077 37978 48398 55002 333 69915 91102 91201;
0137067510999992010011415004+46450+008517FM-12+189899999V0209999C000019999999N9999999N1-00661-00761999999ADDMA1999999079791MD1210011+9999ME1313999OA149900101REMSYN076AAXX  14154 06751 33/// /0000 11066 21076 37979 48399 52001 333 91102 91201;
0154067510999992010011416004+46450+008517FM-12+189899999V0202101N000519999999N9999999N1-00731-00791999999ADDAA101000021MA1999999079781MD1210021+9999ME1313999OA149900151REMSYN082AAXX  14164 06751 23/// /2101 11073 21079 37978 48399 52002 333 69915 91103 91201;
0137067510999992010011417004+46450+008517FM-12+189899999V0209999C000019999999N9999999N1-00691-00981999999ADDMA1999999079811MD1210031+9999ME1314019OA149900211REMSYN076AAXX  14174 06751 33/// /0000 11069 21098 37981 48401 52003 333 91104 91201;
0198067510999992010011418004+46450+008517FM-12+189899999V0203501N000519999999N9999999N1-00681-00981999999ADDAA112000091KA1120M-00611MA1999999079861MD1310071+9999ME1314069OA149900361REMSYN094AAXX  14184 06751 03/// /3501 11068 21098 37986 48406 53007 69922 333 11061 60005 91107 91202;EQDQ01  00002PRCP12
0137067510999992010011419004+46450+008517FM-12+189899999V0209999C000019999999N9999999N1-00631-00951999999ADDMA1999999079921MD1310141+9999ME1314119OA149900151REMSYN076AAXX  14194 06751 33/// /0000 11063 21095 37992 48411 53014 333 91103 91201;
0137067510999992010011420004+46450+008517FM-12+189899999V0203201N000519999999N9999999N1-00631-00931999999ADDMA1999999079961MD1110151+9999ME1314159OA149900151REMSYN076AAXX  14204 06751 33/// /3201 11063 21093 37996 48415 51015 333 91103 91201;
0137067510999992010011421004+46450+008517FM-12+189899999V0209999C000019999999N9999999N1-00641-00931999999ADDMA1999999080021MD1310161+9999ME1314219OA149900211REMSYN076AAXX  14214 06751 33/// /0000 11064 21093 38002 48421 53016 333 91104 91201;
0137067510999992010011422004+46450+008517FM-12+189899999V0203301N000519999999N9999999N1-00641-00911999999ADDMA1999999080071MD1110151+9999ME1314269OA149900101REMSYN076AAXX  14224 06751 33/// /3301 11064 21091 38007 48426 51015 333 91102 91201;
0137067510999992010011423004+46450+008517FM-12+189899999V0203301N002119999999N9999999N1-00611-00971999999ADDMA1999999080081MD1110121+9999ME1314269OA149900261REMSYN076AAXX  14234 06751 33/// /3304 11061 21097 38008 48426 51012 333 91105 91204;
0137067510999992010011500004+46450+008517FM-12+189899999V0202301N000519999999N9999999N1-00761-01101999999ADDMA1999999080081MD1210061+9999ME1314299OA149900411REMSYN076AAXX  15004 06751 33/// /2301 11076 21110 38008 48429 52006 333 91108 91206;
0137067510999992010011501004+46450+008517FM-12+189899999V0203001N001019999999N9999999N1-00811-01191999999ADDMA1999999080061MD1810011+9999ME1314289OA149900571REMSYN076AAXX  15014 06751 33/// /3002 11081 21119 38006 48428 58001 333 91111 91208;
0137067510999992010011502004+46450+008517FM-12+189899999V0202601N003119999999N9999999N1-00851-01241999999ADDMA1999999080111MD1310031+9999ME1314349OA149900621REMSYN076AAXX  15024 06751 33/// /2606 11085 21124 38011 48434 53003 333 91112 91208;
0096067510999992010011503004+46450+008517FM-12+189899999V0203001N001519999999N9999999N1-00841-01231999999ADDMA1999999080141ME1314369REMSYN060AAXX  15034 06751 33/// /3003 11084 21123 38014 48436 5////;
0137067510999992010011504004+46450+008517FM-12+189899999V0200101N001019999999N9999999N1-00771-01141999999ADDMA1999999080141MD1210081+9999ME1314359OA149900571REMSYN076AAXX  15044 06751 33/// /0102 11077 21114 38014 48435 52008 333 91111 91205;
0137067510999992010011505004+46450+008517FM-12+189899999V0200301N000519999999N9999999N1-00581-01351999999ADDMA1999999080161MD1210051+9999ME1314349OA149900411REMSYN076AAXX  15054 06751 33/// /0301 11058 21135 38016 48434 52005 333 91108 91202;
0197067510999992010011506004+46450+008517FM-12+189899999V0200501N000519999999N9999999N1-00301-01781999999ADDAA124000391AL11200091GJ100009KA1999N-00961MA1999999080221MD1210081+9999ME1314359OA149900621REMSYN094AAXX  15064 06751 33/// /0501 11030 21178 38022 48435 52008 333 21096 55000 70002 91112 91208;
0137067510999992010011507004+46450+008517FM-12+189899999V0203601N003619999999N9999999N1-00011-02101999999ADDMA1999999080331MD1210191+9999ME1314419OA149900721REMSYN076AAXX  15074 06751 33/// /3607 11001 21210 38033 48441 52019 333 91114 91207;
0137067510999992010011508004+46450+008517FM-12+189899999V0202901N001019999999N9999999N1-00231-01851999999ADDMA1999999080401MD1319999+9999ME1314529OA149900721REMSYN076AAXX  15084 06751 33/// /2902 11023 21185 38040 48452 53/// 333 91114 91207;
0137067510999992010011509004+46450+008517FM-12+189899999V0203301N001519999999N9999999N1-00121-01981999999ADDMA1999999080491MD1110271+9999ME1314599OA149900721REMSYN076AAXX  15094 06751 33/// /3303 11012 21198 38049 48459 51027 333 91114 91207;
0137067510999992010011510004+46450+008517FM-12+189899999V0203201N003119999999N9999999N1+00011-01881999999ADDMA1999999080571MD1210241+9999ME1314659OA149900671REMSYN076AAXX  15104 06751 33/// /3206 10001 21188 38057 48465 52024 333 91113 91206;
0137067510999992010011511004+46450+008517FM-12+189899999V0203201N002119999999N9999999N1+00091-01851999999ADDMA1999999080591MD1110191+9999ME1314669OA149900671REMSYN076AAXX  15114 06751 33/// /3204 10009 21185 38059 48466 51019 333 91113 91206;
0137067510999992010011512004+46450+008517FM-12+189899999V0203401N003619999999N9999999N1+00161-02471999999ADDMA1999999080601MD1110111+9999ME1314659OA149900721REMSYN076AAXX  15124 06751 33/// /3407 10016 21247 38060 48465 51011 333 91114 91208;
0137067510999992010011513004+46450+008517FM-12+189899999V0203401N003619999999N9999999N1+00111-01951999999ADDMA1999999080651MD1310081+9999ME1314719OA149900771REMSYN076AAXX  15134 06751 33/// /3407 10011 21195 38065 48471 53008 333 91115 91209;
0137067510999992010011514004+46450+008517FM-12+189899999V0203301N003119999999N9999999N1+00151-02141999999ADDMA1999999080671MD1310081+9999ME1314739OA149900771REMSYN076AAXX  15144 06751 33/// /3306 10015 21214 38067 48473 53008 333 91115 91209;
0137067510999992010011515004+46450+008517FM-12+189899999V0202801N002119999999N9999999N1-00131-01951999999ADDMA1999999080731MD1310131+9999ME1314839OA149900771REMSYN076AAXX  15154 06751 33/// /2804 11013 21195 38073 48483 53013 333 91115 91209;
0137067510999992010011516004+46450+008517FM-12+189899999V0203501N002619999999N9999999N1-00121-01861999999ADDMA1999999080811MD1310161+9999ME1314919OA149900821REMSYN076AAXX  15164 06751 33/// /3505 11012 21186 38081 48491 53016 333 91116 91207;
0137067510999992010011517004+46450+008517FM-12+189899999V0203501N005119999999N9999999N1-00011-02151999999ADDMA1999999080861MD1210191+9999ME1314949OA149901031REMSYN076AAXX  15174 06751 33/// /3510 11001 21215 38086 48494 52019 333 91120 91210;
0156067510999992010011518004+46450+008517FM-12+189899999V0203401N004619999999N9999999N1-00091-02091999999ADDKA1120M+00211MA1999999080911MD1210181+9999ME1315009OA149901031REMSYN082AAXX  15184 06751 33/// /3409 11009 21209 38091 48500 52018 333 10021 91120 91213;
0137067510999992010011519004+46450+008517FM-12+189899999V0203201N002119999999N9999999N1-00221-02731999999ADDMA1999999080931MD1210121+9999ME1315049OA149901031REMSYN076AAXX  15194 06751 33/// /3204 11022 21273 38093 48504 52012 333 91120 91213;
0137067510999992010011520004+46450+008517FM-12+189899999V0203401N002119999999N9999999N1-00231-02251999999ADDMA1999999080951MD1210091+9999ME1315069OA149900771REMSYN076AAXX  15204 06751 33/// /3404 11023 21225 38095 48506 52009 333 91115 91208;
0137067510999992010011521004+46450+008517FM-12+189899999V0202501N004119999999N9999999N1-00281-02471999999ADDMA1999999080951MD1210041+9999ME1315079OA149901031REMSYN076AAXX  15214 06751 33/// /2508 11028 21247 38095 48507 52004 333 91120 91213;
0137067510999992010011522004+46450+008517FM-12+189899999V0202501N000519999999N9999999N1-00281-02471999999ADDMA1999999080971MD1210041+9999ME1315099OA149900821REMSYN076AAXX  15224 06751 33/// /2501 11028 21247 38097 48509 52004 333 91116 91208;
0137067510999992010011523004+46450+008517FM-12+189899999V0202601N004119999999N9999999N1-00291-02181999999ADDMA1999999080991MD1210041+9999ME1315119OA149900821REMSYN076AAXX  15234 06751 33/// /2608 11029 21218 38099 48511 52004 333 91116 91208;
0137067510999992010011600004+46450+008517FM-12+189899999V0203401N000519999999N9999999N1-00431-02081999999ADDMA1999999080991MD1210041+9999ME1315139OA149901031REMSYN076AAXX  16004 06751 33/// /3401 11043 21208 38099 48513 52004 333 91120 91213;
0137067510999992010011601004+46450+008517FM-12+189899999V0203201N000519999999N9999999N1-00471-01851999999ADDMA1999999080981MD1010011+9999ME1315139OA149900621REMSYN076AAXX  16014 06751 33/// /3201 11047 21185 38098 48513 50001 333 91112 91205;
0137067510999992010011602004+46450+008517FM-12+189899999V0203501N000519999999N9999999N1-00531-01631999999ADDMA1999999080981MD1710011+9999ME1315149OA149900621REMSYN076AAXX  16024 06751 33/// /3501 11053 21163 38098 48514 57001 333 91112 91205;
0137067510999992010011603004+46450+008517FM-12+189899999V0209999C000519999999N9999999N1-00531-01721999999ADDMA1999999080981MD1519999+9999ME1315149OA149900821REMSYN076AAXX  16034 06751 33/// /0001 11053 21172 38098 48514 55/// 333 91116 91208;
0137067510999992010011604004+46450+008517FM-12+189899999V0209999C000519999999N9999999N1-00511-01881999999ADDMA1999999080981MD1410001+9999ME1315149OA149900461REMSYN076AAXX  16044 06751 33/// /0001 11051 21188 38098 48514 54000 333 91109 91203;
0137067510999992010011605004+46450+008517FM-12+189899999V0200201N000519999999N9999999N1-00531-01791999999ADDMA1999999080941MD1710041+9999ME1315109OA149900461REMSYN076AAXX  16054 06751 33/// /0201 11053 21179 38094 48510 57004 333 91109 91203;
0216067510999992010011606004+46450+008517FM-12+189899999V0202901N001019999999N9999999N1-00571-01721999999ADDAA124000091AL19900091GJ102649KA1999N-00601MA1999999080951MD1710031+9999ME1315119OA149900821REMSYN094AAXX  16064 06751 33/// /2902 11057 21172 38095 48511 57003 333 21060 55044 70000 91116 91208;EQDQ01  00002PRCP24
0137067510999992010011607004+46450+008517FM-12+189899999V0203001N001019999999N9999999N1-00571-01831999999ADDMA1999999081001MD1310021+9999ME1315169OA149900571REMSYN076AAXX  16074 06751 33/// /3002 11057 21183 38100 48516 53002 333 91111 91203;
0137067510999992010011608004+46450+008517FM-12+189899999V0209999C000519999999N9999999N1-00611-01761999999ADDMA1999999081011MD1210071+9999ME1315189OA149900621REMSYN076AAXX  16084 06751 33/// /0001 11061 21176 38101 48518 52007 333 91112 91204;
0137067510999992010011609004+46450+008517FM-12+189899999V0202801N001519999999N9999999N1-00501-01641999999ADDMA1999999080991MD1010041+9999ME1315149OA149900621REMSYN076AAXX  16094 06751 33/// /2803 11050 21164 38099 48514 50004 333 91112 91204;
0137067510999992010011610004+46450+008517FM-12+189899999V0200201N000519999999N9999999N1-00381-01551999999ADDMA1999999080991MD1810011+9999ME1315139OA149900621REMSYN076AAXX  16104 06751 33/// /0201 11038 21155 38099 48513 58001 333 91112 91203;
0137067510999992010011611004+46450+008517FM-12+189899999V0202901N001019999999N9999999N1-00261-01571999999ADDMA1999999080991MD1710021+9999ME1315119OA149900411REMSYN076AAXX  16114 06751 33/// /2902 11026 21157 38099 48511 57002 333 91108 91202;
0137067510999992010011612004+46450+008517FM-12+189899999V0202601N001519999999N9999999N1-00331-01491999999ADDMA1999999080951MD1810041+9999ME1315089OA149900621REMSYN076AAXX  16124 06751 33/// /2603 11033 21149 38095 48508 58004 333 91112 91205;
0137067510999992010011613004+46450+008517FM-12+189899999V0202801N001519999999N9999999N1-00431-01371999999ADDMA1999999080911MD1710081+9999ME1315059OA149900411REMSYN076AAXX  16134 06751 33/// /2803 11043 21137 38091 48505 57008 333 91108 91203;
0137067510999992010011614004+46450+008517FM-12+189899999V0202901N000519999999N9999999N1-00431-01331999999ADDMA1999999080891MD1719999+9999ME1315049OA149900411REMSYN076AAXX  16144 06751 33/// /2901 11043 21133 38089 48504 57/// 333 91108 91203;
0137067510999992010011615004+46450+008517FM-12+189899999V0209999C000019999999N9999999N1-00401-01301999999ADDMA1999999080871MD1710081+9999ME1315019OA149900411REMSYN076AAXX  16154 06751 33/// /0000 11040 21130 38087 48501 57008 333 91108 91203;
0137067510999992010011616004+46450+008517FM-12+189899999V0203001N000519999999N9999999N1-00451-01221999999ADDMA1999999080881MD1710031+9999ME1315039OA149900311REMSYN076AAXX  16164 06751 33/// /3001 11045 21122 38088 48503 57003 333 91106 91203;
0137067510999992010011617004+46450+008517FM-12+189899999V0203401N000519999999N9999999N1-00391-01331999999ADDMA1999999080871MD1710021+9999ME1315019OA149900261REMSYN076AAXX  16174 06751 33/// /3401 11039 21133 38087 48501 57002 333 91105 91203;
0156067510999992010011618004+46450+008517FM-12+189899999V0203401N000519999999N9999999N1-00431-01271999999ADDKA1120M-00261MA1999999080891MD1210021+9999ME1315049OA149900621REMSYN082AAXX  16184 06751 33/// /3401 11043 21127 38089 48504 52002 333 11026 91112 91204;
0137067510999992010011619004+46450+008517FM-12+189899999V0200101N000519999999N9999999N1-00391-01211999999ADDMA1999999080901MD1210021+9999ME1315049OA149900361REMSYN076AAXX  16194 06751 33/// /0101 11039 21121 38090 48504 52002 333 91107 91202;
0137067510999992010011620004+46450+008517FM-12+189899999V0202701N000519999999N9999999N1-00411-01191999999ADDMA1999999080871MD1010001+9999ME1315019OA149900261REMSYN076AAXX  16204 06751 33/// /2701 11041 21119 38087 48501 50000 333 91105 91202;
0137067510999992010011621004+46450+008517FM-12+189899999V0200401N000519999999N9999999N1-00461-01181999999ADDMA1999999080821MD1710071+9999ME1314979OA149900361REMSYN076AAXX  16214 06751 33/// /0401 11046 21118 38082 48497 57007 333 91107 91203;
0137067510999992010011622004+46450+008517FM-12+189899999V0203401N000519999999N9999999N1-00451-01181999999ADDMA1999999080791MD1710111+9999ME1314949OA149900151REMSYN076AAXX  16224 06751 33/// /3401 11045 21118 38079 48494 57011 333 91103 91201;
0137067510999992010011623004+46450+008517FM-12+189899999V0202801N000519999999N9999999N1-00531-01071999999ADDMA1999999080741MD1710131+9999ME1314909OA149900361REMSYN076AAXX  16234 06751 33/// /2801 11053 21107 38074 48490 57013 333 91107 91203;
0137067510999992010011700004+46450+008517FM-12+189899999V0202701N000519999999N9999999N1-00541-01041999999ADDMA1999999080721MD1710101+9999ME1314889OA149900411REMSYN076AAXX  17004 06751 33/// /2701 11054 21104 38072 48488 57010 333 91108 91203;
0137067510999992010011701004+46450+008517FM-12+189899999V0202901N000519999999N9999999N1-00581-00921999999ADDMA1999999080751MD1510041+9999ME1314929OA149900211REMSYN076AAXX  17014 06751 33/// /2901 11058 21092 38075 48492 55004 333 91104 91202;
0154067510999992010011702004+46450+008517FM-12+189899999V0200101N000519999999N9999999N1-00651-00811999999ADDAA101000021MA1999999080701MD1819999+9999ME1314889OA149900151REMSYN082AAXX  17024 06751 23/// /0101 11065 21081 38070 48488 58/// 333 69915 91103 91202;
0096067510999992010011703004+46450+008517FM-12+189899999V0200401N000519999999N9999999N1-00821-01181999999ADDMA1999999080651ME1314869REMSYN060AAXX  17034 06751 43/// /0401 11082 21118 38065 48486 5////;
0137067510999992010011704004+46450+008517FM-12+189899999V0203401N000519999999N9999999N1-00721-01061999999ADDMA1999999080591MD1710161+9999ME1314799OA149900671REMSYN076AAXX  17044 06751 33/// /3401 11072 21106 38059 48479 57016 333 91113 91207;
0137067510999992010011705004+46450+008517FM-12+189899999V0209999C001019999999N9999999N1-00651-00991999999ADDMA1999999080611MD1719999+9999ME1314799OA149900671REMSYN076AAXX  17054 06751 33/// /0002 11065 21099 38061 48479 57/// 333 91113 91207;
0239067510999992010011706004+46450+008517FM-12+189899999V0209999C000519999999N9999999N1-00641-00891999999ADDAA112000091AA224000391AL11200091GJ102049KA1999N-00831MA1999999080591MD1710061+9999ME1314779OA149900671REMSYN106AAXX  17064 06751 03/// /0001 11064 21089 38059 48477 57006 69922 333 21083 55034 60005 70002 91113 91207;EQDQ01  00002PRCP12
0137067510999992010011707004+46450+008517FM-12+189899999V0209999C000019999999N9999999N1-00681-00891999999ADDMA1999999080551MD1710041+9999ME1314749OA149900211REMSYN076AAXX  17074 06751 33/// /0000 11068 21089 38055 48474 57004 333 91104 91202;
0137067510999992010011708004+46450+008517FM-12+189899999V0200101N001019999999N9999999N1-00661-00871999999ADDMA1999999080571MD1519999+9999ME1314769OA149900211REMSYN076AAXX  17084 06751 33/// /0102 11066 21087 38057 48476 55/// 333 91104 91202;
0137067510999992010011709004+46450+008517FM-12+189899999V0200501N000519999999N9999999N1-00411-00621999999ADDMA1999999080601MD1210011+9999ME1314759OA149900671REMSYN076AAXX  17094 06751 33/// /0501 11041 21062 38060 48475 52001 333 91113 91207;
0154067510999992010011710004+46450+008517FM-12+189899999V0200101N000519999999N9999999N1-00131-00441999999ADDAA101000391MA1999999080631MD1210081+9999ME1314739OA149900361REMSYN082AAXX  17104 06751 23/// /0101 11013 21044 38063 48473 52008 333 69935 91107 91203;
0137067510999992010011711004+46450+008517FM-12+189899999V0200501N002119999999N9999999N1+00061-00731999999ADDMA1999999080641MD1210071+9999ME1314719OA149900621REMSYN076AAXX  17114 06751 33/// /0504 10006 21073 38064 48471 52007 333 91112 91206;
0160067510999992010011712004+46450+008517FM-12+189899999V0203601N002119999999N9999999N1+00061-00751999999ADDAA106000391MA1999999080671MD1210071+9999ME1314749OA149900671REMSYN088AAXX  17124 06751 03/// /3604 10006 21075 38067 48474 52007 69931 333 60005 91113 91207;
0137067510999992010011713004+46450+008517FM-12+189899999V0202701N001019999999N9999999N1-00061-00811999999ADDMA1999999080661MD1210031+9999ME1314759OA149900571REMSYN076AAXX  17134 06751 33/// /2702 11006 21081 38066 48475 52003 333 91111 91205;
0137067510999992010011714004+46450+008517FM-12+189899999V0203301N004119999999N9999999N1-00071-00911999999ADDMA1999999080711MD1219999+9999ME1314809OA149900981REMSYN076AAXX  17144 06751 33/// /3308 11007 21091 38071 48480 52/// 333 91119 91208;
0137067510999992010011715004+46450+008517FM-12+189899999V0202501N001519999999N9999999N1-00171-01011999999ADDMA1999999080751MD1210081+9999ME1314869OA149900981REMSYN076AAXX  17154 06751 33/// /2503 11017 21101 38075 48486 52008 333 91119 91208;
0137067510999992010011716004+46450+008517FM-12+189899999V0202601N003619999999N9999999N1-00241-01151999999ADDMA1999999080791MD1210131+9999ME1314919OA149900981REMSYN076AAXX  17164 06751 33/// /2607 11024 21115 38079 48491 52013 333 91119 91207;
0137067510999992010011717004+46450+008517FM-12+189899999V0200401N001519999999N9999999N1-00271-01291999999ADDMA1999999080861MD1310151+9999ME1314989OA149900771REMSYN076AAXX  17174 06751 33/// /0403 11027 21129 38086 48498 53015 333 91115 91207;
