0149067500999992011010100004+46650+008617FM-12+228499999V0200601N002619999999N9999999N1-00151-02131999999ADDMA1999999076991MD1710071+9999ME1314929OA149900621REMSYN088AAXX  01004 06750 43/// /0605 11015 21213 37699 48492 57007 333 55300 20000 91112 91210;
0149067500999992011010101004+46650+008617FM-12+228499999V0203601N001519999999N9999999N1-00151-02201999999ADDMA1999999076941MD1710101+9999ME1314879OA149900511REMSYN088AAXX  01014 06750 43/// /3603 11015 21220 37694 48487 57010 333 55300 20000 91110 91208;
0149067500999992011010102004+46650+008617FM-12+228499999V0203301N001519999999N9999999N1-00171-02211999999ADDMA1999999076941MD1610091+9999ME1314879OA149900311REMSYN088AAXX  01024 06750 43/// /3303 11017 21221 37694 48487 56009 333 55300 20000 91106 91203;
0149067500999992011010103004+46650+008617FM-12+228499999V0203301N002619999999N9999999N1-00261-02141999999ADDMA1999999076921MD1610071+9999ME1314889OA149900621REMSYN088AAXX  01034 06750 43/// /3305 11026 21214 37692 48488 56007 333 55300 20000 91112 91210;
0149067500999992011010104004+46650+008617FM-12+228499999V0203401N002619999999N9999999N1-00291-02111999999ADDMA1999999076891MD1810051+9999ME1314869OA149900411REMSYN088AAXX  01044 06750 43/// /3405 11029 21211 37689 48486 58005 333 55300 20000 91108 91206;
0149067500999992011010105004+46650+008617FM-12+228499999V0203601N003119999999N9999999N1-00381-02001999999ADDMA1999999076871MD1610071+9999ME1314869OA149900411REMSYN088AAXX  01054 06750 43/// /3606 11038 21200 37687 48486 56007 333 55300 20000 91108 91207;
0182067500999992011010106004+46650+008617FM-12+228499999V0200201N002119999999N9999999N1-00311-02091999999ADDGJ104449KA1999N-00381MA1999999076881MD1710041+9999ME1314859OA149900621REMSYN100AAXX  01064 06750 43/// /0204 11031 21209 37688 48485 57004 333 21038 55074 55300 20000 91112 91210;
0168067500999992011010107004+46650+008617FM-12+228499999V0200401N001019999999N9999999N1-00421-02001999999ADDMA1999999076891MD1410001+9999ME1314909OA149900461REMSYN088AAXX  01074 06750 43/// /0402 11042 21200 37689 48490 52000 333 55300 20000 91109 91207;EQDQ01+000022APCTEN
0149067500999992011010108004+46650+008617FM-12+228499999V0200101N003119999999N9999999N1-00461-01921999999ADDMA1999999076901MD1119999+9999ME1314929OA149900511REMSYN088AAXX  01084 06750 43/// /0106 11046 21192 37690 48492 51/// 333 55300 20029 91110 91207;
0096067500999992011010109004+46650+008617FM-12+228499999V0209999C003619999999N9999999N1-00351-01911999999ADDMA1999999076901ME1314899REMSYN060AAXX  01094 06750 43/// /0007 11035 21191 37690 48489 5////;
0096067500999992011010110004+46650+008617FM-12+228499999V0203601N003619999999N9999999N1-00381-01851999999ADDMA1999999076881ME1314879REMSYN060AAXX  01104 06750 43/// /3607 11038 21185 37688 48487 5////;
0149067500999992011010111004+46650+008617FM-12+228499999V0200201N003619999999N9999999N1-00371-01741999999ADDMA1999999076851MD1810051+9999ME1314849OA149900721REMSYN088AAXX  01114 06750 43/// /0207 11037 21174 37685 48484 58005 333 553// 2//// 91114 91209;
0096067500999992011010112004+46650+008617FM-12+228499999V0200801N000519999999N9999999N1-00391-01601999999ADDMA1999999076821ME1314819REMSYN060AAXX  01124 06750 43/// /0801 11039 21160 37682 48481 5////;
0096067500999992011010113004+46650+008617FM-12+228499999V0203401N001019999999N9999999N1-00381-01631999999ADDMA1999999076781ME1314779REMSYN060AAXX  01134 06750 43/// /3402 11038 21163 37678 48477 5////;
0096067500999992011010114004+46650+008617FM-12+228499999V0200101N003119999999N9999999N1-00461-01541999999ADDMA1999999076751ME1314769REMSYN060AAXX  01144 06750 43/// /0106 11046 21154 37675 48476 5////;
0096067500999992011010115004+46650+008617FM-12+228499999V0203601N003119999999N9999999N1-00461-01501999999ADDMA1999999076761ME1314779REMSYN060AAXX  01154 06750 43/// /3606 11046 21150 37676 48477 5////;
0096067500999992011010116004+46650+008617FM-12+228499999V0200201N002119999999N9999999N1-00411-01481999999ADDMA1999999076751ME1314759REMSYN060AAXX  01164 06750 43/// /0204 11041 21148 37675 48475 5////;
0096067500999992011010117004+46650+008617FM-12+228499999V0200301N002619999999N9999999N1-00401-01471999999ADDMA1999999076701ME1314699REMSYN060AAXX  01174 06750 43/// /0305 11040 21147 37670 48469 5////;
0096067500999992011010118004+46650+008617FM-12+228499999V0200201N003619999999N9999999N1-00561-01501999999ADDMA1999999076681ME1314729REMSYN060AAXX  01184 06750 43/// /0207 11056 21150 37668 48472 5////;
0112067500999992011010119004+46650+008617FM-12+228499999V0203501N002119999999N9999999N1-00681-01461999999ADDMA1999999076671ME1314759REMSYN076AAXX  01194 06750 43/// /3504 11068 21146 37667 48475 5//// 333 553// 20000;
0149067500999992011010120004+46650+008617FM-12+228499999V0200101N004119999999N9999999N1-00681-01401999999ADDMA1999999076651MD1610051+9999ME1314739OA149900571REMSYN088AAXX  01204 06750 43/// /0108 11068 21140 37665 48473 56005 333 55300 20000 91111 91208;
0149067500999992011010121004+46650+008617FM-12+228499999V0200101N003119999999N9999999N1-00761-01401999999ADDMA1999999076661MD1710021+9999ME1314769OA149900621REMSYN088AAXX  01214 06750 43/// /0106 11076 21140 37666 48476 57002 333 55300 20000 91112 91208;
0149067500999992011010122004+46650+008617FM-12+228499999V0200201N002119999999N9999999N1-00611-01391999999ADDMA1999999076641MD1710031+9999ME1314699OA149900621REMSYN088AAXX  01224 06750 43/// /0204 11061 21139 37664 48469 57003 333 55300 20000 91112 91208;
0149067500999992011010123004+46650+008617FM-12+228499999V0203601N003119999999N9999999N1-00641-01381999999ADDMA1999999076591MD1710061+9999ME1314659OA149900511REMSYN088AAXX  01234 06750 43/// /3606 11064 21138 37659 48465 57006 333 55300 20000 91110 91207;
0149067500999992011010200004+46650+008617FM-12+228499999V0200101N002119999999N9999999N1-00531-01311999999ADDMA1999999076531MD1810131+9999ME1314559OA149900881REMSYN088AAXX  02004 06750 43/// /0104 11053 21131 37653 48455 58013 333 55300 20000 91117 91208;
0149067500999992011010201004+46650+008617FM-12+228499999V0200201N003619999999N9999999N1-00611-01351999999ADDMA1999999076491MD1610151+9999ME1314549OA149900511REMSYN088AAXX  02014 06750 43/// /0207 11061 21135 37649 48454 56015 333 55300 20000 91110 91207;
0096067500999992011010202004+46650+008617FM-12+228499999V0200301N003119999999N9999999N1-00531-01301999999ADDMA1999999076491ME1314519REMSYN060AAXX  02024 06750 43/// /0306 11053 21130 37649 48451 5////;
0096067500999992011010203004+46650+008617FM-12+228499999V0203501N002619999999N9999999N1-00661-01321999999ADDMA1999999076461ME1314529REMSYN060AAXX  02034 06750 43/// /3505 11066 21132 37646 48452 5////;
0096067500999992011010204004+46650+008617FM-12+228499999V0209999C004619999999N9999999N1-00801-01391999999ADDMA1999999076431ME1314549REMSYN060AAXX  02044 06750 43/// /0009 11080 21139 37643 48454 5////;
0096067500999992011010205004+46650+008617FM-12+228499999V0200101N000519999999N9999999N1-00861-01381999999ADDMA1999999076441ME1314569REMSYN060AAXX  02054 06750 43/// /0101 11086 21138 37644 48456 5////;
0125067500999992011010206004+46650+008617FM-12+228499999V0200101N001519999999N9999999N1-00961-01311999999ADDKA1999N-00991MA1999999076421ME1314589REMSYN076AAXX  02064 06750 43/// /0103 11096 21131 37642 48458 5//// 333 21099 55074;
0149067500999992011010207004+46650+008617FM-12+228499999V0200101N004619999999N9999999N1-01001-01161999999ADDMA1999999076411MD1710021+9999ME1314589OA149900671REMSYN088AAXX  02074 06750 43/// /0109 11100 21116 37641 48458 57002 333 55300 20000 91113 91209;
0149067500999992011010208004+46650+008617FM-12+228499999V0209999C004619999999N9999999N1-01081-01141999999ADDMA1999999076441MD1510001+9999ME1314639OA149900771REMSYN088AAXX  02084 06750 43/// /0009 11108 21114 37644 48463 55000 333 55300 20040 91115 91209;
0149067500999992011010209004+46650+008617FM-12+228499999V0203601N002119999999N9999999N1-01131-01231999999ADDMA1999999076471MD1210051+9999ME1314689OA149900771REMSYN088AAXX  02094 06750 43/// /3604 11113 21123 37647 48468 52005 333 55300 20400 91115 91209;
0149067500999992011010210004+46650+008617FM-12+228499999V0201201N001519999999N9999999N1-01111-01221999999ADDMA1999999076501MD1210091+9999ME1314719OA149900671REMSYN088AAXX  02104 06750 43/// /1203 11111 21122 37650 48471 52009 333 55300 20655 91113 91209;
0149067500999992011010211004+46650+008617FM-12+228499999V0203401N002619999999N9999999N1-01071-01181999999ADDMA1999999076481MD1010041+9999ME1314679OA149900671REMSYN088AAXX  02114 06750 43/// /3405 11107 21118 37648 48467 50004 333 55300 20752 91113 91209;
0149067500999992011010212004+46650+008617FM-12+228499999V0203301N003619999999N9999999N1-01061-01171999999ADDMA1999999076441MD1710031+9999ME1314639OA149900771REMSYN088AAXX  02124 06750 43/// /3307 11106 21117 37644 48463 57003 333 55300 20763 91115 91209;
0149067500999992011010213004+46650+008617FM-12+228499999V0203401N003619999999N9999999N1-01101-01211999999ADDMA1999999076431MD1710071+9999ME1314639OA149900821REMSYN088AAXX  02134 06750 43/// /3407 11110 21121 37643 48463 57007 333 55300 20763 91116 91213;
0112067500999992011010214004+46650+008617FM-12+228499999V0203501N004619999999N9999999N1-01121-01231999999ADDMA1999999076431ME1314649REMSYN076AAXX  02144 06750 43/// /3509 11112 21123 37643 48464 5//// 333 553// 20522;
0149067500999992011010215004+46650+008617FM-12+228499999V0200101N003619999999N9999999N1-01141-01251999999ADDMA1999999076461MD1210021+9999ME1314679OA149900821REMSYN088AAXX  02154 06750 43/// /0107 11114 21125 37646 48467 52002 333 55300 20367 91116 91213;
0149067500999992011010216004+46650+008617FM-12+228499999V0203501N002619999999N9999999N1-01161-01271999999ADDMA1999999076471MD1310041+9999ME1314699OA149900671REMSYN088AAXX  02164 06750 43/// /3505 11116 21127 37647 48469 53004 333 55300 20065 91113 91209;
0149067500999992011010217004+46650+008617FM-12+228499999V0203401N006219999999N9999999N1-01181-01301999999ADDMA1999999076501MD1210071+9999ME1314739OA149900931REMSYN088AAXX  02174 06750 43/// /3412 11118 21130 37650 48473 52007 333 55300 20000 91118 91212;
0168067500999992011010218004+46650+008617FM-12+228499999V0203501N006219999999N9999999N1-01241-01371999999ADDKA1120M-00941MA1999999076531MD1210071+9999ME1314789OA149900981REMSYN094AAXX  02184 06750 43/// /3512 11124 21137 37653 48478 52007 333 11094 55300 20000 91119 91214;
0149067500999992011010219004+46650+008617FM-12+228499999V0200101N003119999999N9999999N1-01281-01411999999ADDMA1999999076541MD1210071+9999ME1314809OA149900981REMSYN088AAXX  02194 06750 43/// /0106 11128 21141 37654 48480 52007 333 55300 20000 91119 91214;
0149067500999992011010220004+46650+008617FM-12+228499999V0200101N004119999999N9999999N1-01301-01431999999ADDMA1999999076561MD1210061+9999ME1314839OA149900881REMSYN088AAXX  02204 06750 43/// /0108 11130 21143 37656 48483 52006 333 55300 20000 91117 91209;
0149067500999992011010221004+46650+008617FM-12+228499999V0209999C003119999999N9999999N1-01341-01481999999ADDMA1999999076581MD1210051+9999ME1314869OA149900981REMSYN088AAXX  02214 06750 43/// /0006 11134 21148 37658 48486 52005 333 55300 20000 91119 91214;
0149067500999992011010222004+46650+008617FM-12+228499999V0200501N006219999999N9999999N1-01371-01511999999ADDMA1999999076571MD1010031+9999ME1314869OA149900821REMSYN088AAXX  02224 06750 43/// /0512 11137 21151 37657 48486 50003 333 55300 20000 91116 91212;
0149067500999992011010223004+46650+008617FM-12+228499999V0203101N002119999999N9999999N1-01371-01511999999ADDMA1999999076571MD1010011+9999ME1314869OA149900821REMSYN088AAXX  02234 06750 43/// /3104 11137 21151 37657 48486 50001 333 55300 20000 91116 91212;
0149067500999992011010300004+46650+008617FM-12+228499999V0203401N004619999999N9999999N1-01381-01521999999ADDMA1999999076541MD1810041+9999ME1314839OA149900981REMSYN088AAXX  03004 06750 43/// /3409 11138 21152 37654 48483 58004 333 55300 20000 91119 91214;
0149067500999992011010301004+46650+008617FM-12+228499999V0203301N004619999999N9999999N1-01361-01501999999ADDMA1999999076541MD1710031+9999ME1314839OA149900621REMSYN088AAXX  03014 06750 43/// /3309 11136 21150 37654 48483 57003 333 55300 20000 91112 91209;
0149067500999992011010302004+46650+008617FM-12+228499999V0203301N003119999999N9999999N1-01401-01551999999ADDMA1999999076531MD1719999+9999ME1314839OA149900571REMSYN088AAXX  03024 06750 43/// /3306 11140 21155 37653 48483 57/// 333 55300 20000 91111 91209;
0096067500999992011010303004+46650+008617FM-12+228499999V0200401N002619999999N9999999N1-01551-01721999999ADDMA1999999076521ME1314869REMSYN060AAXX  03034 06750 43/// /0405 11155 21172 37652 48486 5////;
0149067500999992011010304004+46650+008617FM-12+228499999V0209999C000019999999N9999999N1-01451-01631999999ADDMA1999999076521MD1710021+9999ME1314839OA149900721REMSYN088AAXX  03044 06750 43/// /0000 11145 21163 37652 48483 57002 333 55300 20000 91114 91207;
0149067500999992011010305004+46650+008617FM-12+228499999V0202001N001019999999N9999999N1-01391-01861999999ADDMA1999999076511MD1710021+9999ME1314809OA149900311REMSYN088AAXX  03054 06750 43/// /2002 11139 21186 37651 48480 57002 333 55300 20000 91106 91202;
0182067500999992011010306004+46650+008617FM-12+228499999V0202401N001019999999N9999999N1-01191-02741999999ADDGJ100009KA1999N-01551MA1999999076531MD1310011+9999ME1314769OA149900881REMSYN100AAXX  03064 06750 43/// /2402 11119 21274 37653 48476 53001 333 21155 55000 55300 20000 91117 91212;
0149067500999992011010307004+46650+008617FM-12+228499999V0202901N000519999999N9999999N1-01111-03071999999ADDMA1999999076531MD1210011+9999ME1314749OA149900361REMSYN088AAXX  03074 06750 43/// /2901 11111 21307 37653 48474 52001 333 55300 20000 91107 91203;
0149067500999992011010308004+46650+008617FM-12+228499999V0203501N001519999999N9999999N1-01031-03371999999ADDMA1999999076561MD1219999+9999ME1314749OA149900361REMSYN088AAXX  03084 06750 43/// /3503 11103 21337 37656 48474 52/// 333 55300 20032 91107 91204;
0112067500999992011010309004+46650+008617FM-12+228499999V0203601N003619999999N9999999N1-00931-03281999999ADDMA1999999076581ME1314739REMSYN076AAXX  03094 06750 43/// /3607 11093 21328 37658 48473 5//// 333 553// 20623;
0149067500999992011010310004+46650+008617FM-12+228499999V0203501N003119999999N9999999N1-00991-03451999999ADDMA1999999076591MD1310061+9999ME1314769OA149900511REMSYN088AAXX  03104 06750 43/// /3506 11099 21345 37659 48476 53006 333 553// 2//// 91110 91207;
0149067500999992011010311004+46650+008617FM-12+228499999V0203301N002619999999N9999999N1-00861-03611999999ADDMA1999999076581MD1010021+9999ME1314719OA149900511REMSYN088AAXX  03114 06750 43/// /3305 11086 21361 37658 48471 50002 333 553// 2//// 91110 91207;
0149067500999992011010312004+46650+008617FM-12+228499999V0200101N003619999999N9999999N1-00821-03171999999ADDMA1999999076551MD1710031+9999ME1314679OA149900721REMSYN088AAXX  03124 06750 43/// /0107 11082 21317 37655 48467 57003 333 553// 2//// 91114 91209;
0149067500999992011010313004+46650+008617FM-12+228499999V0201601N001019999999N9999999N1-00821-03201999999ADDMA1999999076531MD1710061+9999ME1314659OA149900511REMSYN088AAXX  03134 06750 43/// /1602 11082 21320 37653 48465 57006 333 553// 2//// 91110 91208;
0112067500999992011010314004+46650+008617FM-12+228499999V0203601N002119999999N9999999N1-00771-03061999999ADDMA1999999076541ME1314649REMSYN076AAXX  03144 06750 43/// /3604 11077 21306 37654 48464 5//// 333 553// 2////;
0112067500999992011010315004+46650+008617FM-12+228499999V0200301N002119999999N9999999N1-00881-02871999999ADDMA1999999076541ME1314679REMSYN076AAXX  03154 06750 43/// /0304 11088 21287 37654 48467 5//// 333 553// 20634;
0149067500999992011010316004+46650+008617FM-12+228499999V0200201N002619999999N9999999N1-00911-03101999999ADDMA1999999076541MD1010011+9999ME1314689OA149900511REMSYN088AAXX  03164 06750 43/// /0205 11091 21310 37654 48468 50001 333 55305 20126 91110 91206;
0168067500999992011010317004+46650+008617FM-12+228499999V0201101N001019999999N9999999N1-00861-03321999999ADDMA1999999076541MD1410001+9999ME1314679OA149900511REMSYN088AAXX  03174 06750 43/// /1102 11086 21332 37654 48467 57000 333 55300 20000 91110 91206;EQDQ01+000072APCTEN
0168067500999992011010318004+46650+008617FM-12+228499999V0201501N001019999999N9999999N1-00861-03391999999ADDKA1120M-00741MA1999999076551MD1510011+9999ME1314689OA149900511REMSYN094AAXX  03184 06750 43/// /1502 11086 21339 37655 48468 55001 333 11074 55300 20000 91110 91208;
0149067500999992011010319004+46650+008617FM-12+228499999V0202001N001519999999N9999999N1-00831-03261999999ADDMA1999999076541MD1010001+9999ME1314669OA149900311REMSYN088AAXX  03194 06750 43/// /2003 11083 21326 37654 48466 50000 333 55300 20000 91106 91204;
0149067500999992011010320004+46650+008617FM-12+228499999V0202101N002119999999N9999999N1-00841-03181999999ADDMA1999999076531MD1710011+9999ME1314659OA149900311REMSYN088AAXX  03204 06750 43/// /2104 11084 21318 37653 48465 57001 333 55300 20000 91106 91204;
0149067500999992011010321004+46650+008617FM-12+228499999V0201901N001519999999N9999999N1-00811-03351999999ADDMA1999999076521MD1710031+9999ME1314639OA149900511REMSYN088AAXX  03214 06750 43/// /1903 11081 21335 37652 48463 57003 333 55300 20000 91110 91206;
0149067500999992011010322004+46650+008617FM-12+228499999V0201801N002119999999N9999999N1-00841-03221999999ADDMA1999999076521MD1710021+9999ME1314649OA149900311REMSYN088AAXX  03224 06750 43/// /1804 11084 21322 37652 48464 57002 333 55300 20000 91106 91204;
0149067500999992011010323004+46650+008617FM-12+228499999V0201801N002119999999N9999999N1-00701-03221999999ADDMA1999999076511MD1710021+9999ME1314599OA149900461REMSYN088AAXX  03234 06750 43/// /1804 11070 21322 37651 48459 57002 333 55300 20000 91109 91206;
0149067500999992011010400004+46650+008617FM-12+228499999V0201501N002119999999N9999999N1-00771-03001999999ADDMA1999999076491MD1710031+9999ME1314599OA149900511REMSYN088AAXX  04004 06750 43/// /1504 11077 21300 37649 48459 57003 333 55300 20000 91110 91207;
0149067500999992011010401004+46650+008617FM-12+228499999V0201601N001519999999N9999999N1-00761-02941999999ADDMA1999999076451MD1810071+9999ME1314549OA149900511REMSYN088AAXX  04014 06750 43/// /1603 11076 21294 37645 48454 58007 333 55300 20000 91110 91207;
0149067500999992011010402004+46650+008617FM-12+228499999V0201601N001519999999N9999999N1-00731-03021999999ADDMA1999999076421MD1619999+9999ME1314509OA149900361REMSYN088AAXX  04024 06750 43/// /1603 11073 21302 37642 48450 56/// 333 55300 20000 91107 91204;
0149067500999992011010403004+46650+008617FM-12+228499999V0202301N002119999999N9999999N1-00851-02721999999ADDMA1999999076391MD1810101+9999ME1314519OA149900511REMSYN088AAXX  04034 06750 43/// /2304 11085 21272 37639 48451 58010 333 55300 20000 91110 91207;
0149067500999992011010404004+46650+008617FM-12+228499999V0202501N002619999999N9999999N1-00861-02591999999ADDMA1999999076371MD1710081+9999ME1314499OA149900411REMSYN088AAXX  04044 06750 43/// /2505 11086 21259 37637 48449 57008 333 55300 20000 91108 91205;
0149067500999992011010405004+46650+008617FM-12+228499999V0203201N001519999999N9999999N1-00971-02661999999ADDMA1999999076341MD1710081+9999ME1314509OA149900411REMSYN088AAXX  04054 06750 43/// /3203 11097 21266 37634 48450 57008 333 55300 20000 91108 91205;
0182067500999992011010406004+46650+008617FM-12+228499999V0203501N001519999999N9999999N1-00951-02731999999ADDGJ104509KA1999N-01041MA1999999076321MD1710071+9999ME1314479OA149900511REMSYN100AAXX  04064 06750 43/// /3503 11095 21273 37632 48447 57007 333 21104 55075 55300 20000 91110 91207;
0149067500999992011010407004+46650+008617FM-12+228499999V0203501N000519999999N9999999N1-00971-02661999999ADDMA1999999076311MD1610061+9999ME1314479OA149900361REMSYN088AAXX  04074 06750 43/// /3501 11097 21266 37631 48447 56006 333 55300 20000 91107 91206;
0149067500999992011010408004+46650+008617FM-12+228499999V0200801N003119999999N9999999N1-01021-02481999999ADDMA1999999076341MD1519999+9999ME1314519OA149900461REMSYN088AAXX  04084 06750 43/// /0806 11102 21248 37634 48451 55/// 333 55300 20025 91109 91206;
0112067500999992011010409004+46650+008617FM-12+228499999V0200701N005119999999N9999999N1-00891-02561999999ADDMA1999999076331ME1314469REMSYN076AAXX  04094 06750 43/// /0710 11089 21256 37633 48446 5//// 333 553// 20122;
0149067500999992011010410004+46650+008617FM-12+228499999V0200601N004119999999N9999999N1-00921-02481999999ADDMA1999999076351MD1210041+9999ME1314499OA149900721REMSYN088AAXX  04104 06750 43/// /0608 11092 21248 37635 48449 52004 333 55300 20454 91114 91212;
0149067500999992011010411004+46650+008617FM-12+228499999V0201001N002119999999N9999999N1-00921-02451999999ADDMA1999999076321MD1710021+9999ME1314469OA149900721REMSYN088AAXX  04114 06750 43/// /1004 11092 21245 37632 48446 57002 333 55302 20846 91114 91211;
0149067500999992011010412004+46650+008617FM-12+228499999V0201001N001519999999N9999999N1-00941-02201999999ADDMA1999999076281MD1810051+9999ME1314429OA149900721REMSYN088AAXX  04124 06750 43/// /1003 11094 21220 37628 48442 58005 333 55304 2//// 91114 91212;
0149067500999992011010413004+46650+008617FM-12+228499999V0201301N002119999999N9999999N1-00911-01941999999ADDMA1999999076261MD1710091+9999ME1314399OA149900411REMSYN088AAXX  04134 06750 43/// /1304 11091 21194 37626 48439 57009 333 553// 2//// 91108 91205;
0112067500999992011010414004+46650+008617FM-12+228499999V0201101N002119999999N9999999N1-00921-01811999999ADDMA1999999076241ME1314389REMSYN076AAXX  04144 06750 43/// /1104 11092 21181 37624 48438 5//// 333 553// 20983;
0096067500999992011010415004+46650+008617FM-12+228499999V0201201N004119999999N9999999N1-00891-01641999999ADDMA1999999076231ME1314369REMSYN060AAXX  04154 06750 43/// /1208 11089 21164 37623 48436 5////;
0149067500999992011010416004+46650+008617FM-12+228499999V0201401N002119999999N9999999N1-00911-01611999999ADDMA1999999076241MD1710021+9999ME1314379OA149900621REMSYN088AAXX  04164 06750 43/// /1404 11091 21161 37624 48437 57002 333 55306 20155 91112 91208;
0168067500999992011010417004+46650+008617FM-12+228499999V0201201N003119999999N9999999N1-00901-01601999999ADDMA1999999076241MD1410001+9999ME1314379OA149900721REMSYN088AAXX  04174 06750 43/// /1206 11090 21160 37624 48437 57000 333 55300 20000 91114 91208;EQDQ01+000072APCTEN
0168067500999992011010418004+46650+008617FM-12+228499999V0201501N003619999999N9999999N1-00941-01691999999ADDKA1120M-00861MA1999999076231MD1010001+9999ME1314379OA149900721REMSYN094AAXX  04184 06750 43/// /1507 11094 21169 37623 48437 50000 333 11086 55300 20000 91114 91212;
0149067500999992011010419004+46650+008617FM-12+228499999V0201901N003619999999N9999999N1-00881-01641999999ADDMA1999999076271MD1310031+9999ME1314399OA149900721REMSYN088AAXX  04194 06750 43/// /1907 11088 21164 37627 48439 53003 333 55300 20000 91114 91209;
0149067500999992011010420004+46650+008617FM-12+228499999V0201901N003119999999N9999999N1-00981-01581999999ADDMA1999999076261MD1210021+9999ME1314429OA149900721REMSYN088AAXX  04204 06750 43/// /1906 11098 21158 37626 48442 52002 333 55300 20000 91114 91209;
0149067500999992011010421004+46650+008617FM-12+228499999V0201801N005719999999N9999999N1-00921-01501999999ADDMA1999999076221MD1810011+9999ME1314369OA149900821REMSYN088AAXX  04214 06750 43/// /1811 11092 21150 37622 48436 58001 333 55300 20000 91116 91211;
0149067500999992011010422004+46650+008617FM-12+228499999V0201501N004619999999N9999999N1-00921-01531999999ADDMA1999999076211MD1710061+9999ME1314359OA149900881REMSYN088AAXX  04224 06750 43/// /1509 11092 21153 37621 48435 57006 333 55300 20000 91117 91211;
0149067500999992011010423004+46650+008617FM-12+228499999V0201701N003119999999N9999999N1-00991-01611999999ADDMA1999999076221MD1510041+9999ME1314389OA149900881REMSYN088AAXX  04234 06750 43/// /1706 11099 21161 37622 48438 55004 333 55300 20000 91117 91211;
0149067500999992011010500004+46650+008617FM-12+228499999V0201401N005119999999N9999999N1-00961-01701999999ADDMA1999999076201MD1810021+9999ME1314359OA149900881REMSYN088AAXX  05004 06750 43/// /1410 11096 21170 37620 48435 58002 333 55300 20000 91117 91211;
0149067500999992011010501004+46650+008617FM-12+228499999V0201501N005119999999N9999999N1-00941-01751999999ADDMA1999999076181MD1710031+9999ME1314329OA149900671REMSYN088AAXX  05014 06750 43/// /1510 11094 21175 37618 48432 57003 333 55300 20000 91113 91210;
0149067500999992011010502004+46650+008617FM-12+228499999V0201501N002619999999N9999999N1-00881-01781999999ADDMA1999999076181MD1610041+9999ME1314309OA149900671REMSYN088AAXX  05024 06750 43/// /1505 11088 21178 37618 48430 56004 333 55300 20000 91113 91210;
0096067500999992011010503004+46650+008617FM-12+228499999V0201501N003619999999N9999999N1-00921-01881999999ADDMA1999999076171ME1314309REMSYN060AAXX  05034 06750 43/// /1507 11092 21188 37617 48430 5////;
0149067500999992011010504004+46650+008617FM-12+228499999V0201401N001519999999N9999999N1-00871-01951999999ADDMA1999999076161MD1810021+9999ME1314289OA149900511REMSYN088AAXX  05044 06750 43/// /1403 11087 21195 37616 48428 58002 333 55300 20000 91110 91208;
0149067500999992011010505004+46650+008617FM-12+228499999V0201901N003119999999N9999999N1-00911-01931999999ADDMA1999999076161MD1710021+9999ME1314299OA149900411REMSYN088AAXX  05054 06750 43/// /1906 11091 21193 37616 48429 57002 333 55300 20000 91108 91206;
0182067500999992011010506004+46650+008617FM-12+228499999V0201701N002619999999N9999999N1-00841-01961999999ADDGJ102349KA1999N-01031MA1999999076201MD1310031+9999ME1314319OA149900881REMSYN100AAXX  05064 06750 43/// /1705 11084 21196 37620 48431 53003 333 21103 55039 55300 20000 91117 91211;
0149067500999992011010507004+46650+008617FM-12+228499999V0202101N002619999999N9999999N1-00861-01991999999ADDMA1999999076231MD1210071+9999ME1314359OA149900571REMSYN088AAXX  05074 06750 43/// /2105 11086 21199 37623 48435 52007 333 55300 20000 91111 91207;
0149067500999992011010508004+46650+008617FM-12+228499999V0201901N004619999999N9999999N1-00851-01881999999ADDMA1999999076251MD1119999+9999ME1314369OA149900771REMSYN088AAXX  05084 06750 43/// /1909 11085 21188 37625 48436 51/// 333 55300 20032 91115 91209;
0149067500999992011010509004+46650+008617FM-12+228499999V0202001N004119999999N9999999N1-00701-01921999999ADDMA1999999076311MD1310111+9999ME1314389OA149900931REMSYN088AAXX  05094 06750 43/// /2008 11070 21192 37631 48438 53011 333 55309 20608 91118 91210;
0149067500999992011010510004+46650+008617FM-12+228499999V0201801N004119999999N9999999N1-00641-01951999999ADDMA1999999076311MD1110081+9999ME1314369OA149900931REMSYN088AAXX  05104 06750 43/// /1808 11064 21195 37631 48436 51008 333 553// 2//// 91118 91210;
0149067500999992011010511004+46650+008617FM-12+228499999V0201901N005119999999N9999999N1-00631-01771999999ADDMA1999999076311MD1110061+9999ME1314369OA149900821REMSYN088AAXX  05114 06750 43/// /1910 11063 21177 37631 48436 51006 333 553// 2//// 91116 91210;
0112067500999992011010512004+46650+008617FM-12+228499999V0201901N004119999999N9999999N1-00581-01661999999ADDMA1999999076271ME1314309REMSYN076AAXX  05124 06750 43/// /1908 11058 21166 37627 48430 5//// 333 553// 2////;
0149067500999992011010513004+46650+008617FM-12+228499999V0202101N001519999999N9999999N1-00491-01711999999ADDMA1999999076261MD1710051+9999ME1314269OA149900771REMSYN088AAXX  05134 06750 43/// /2103 11049 21171 37626 48426 57005 333 553// 2//// 91115 91210;
0096067500999992011010514004+46650+008617FM-12+228499999V0201601N001519999999N9999999N1-00521-01731999999ADDMA1999999076301ME1314319REMSYN060AAXX  05144 06750 43/// /1603 11052 21173 37630 48431 5////;
0096067500999992011010515004+46650+008617FM-12+228499999V0201401N002119999999N9999999N1-00591-01911999999ADDMA1999999076311ME1314349REMSYN060AAXX  05154 06750 43/// /1404 11059 21191 37631 48434 5////;
0149067500999992011010516004+46650+008617FM-12+228499999V0201401N005719999999N9999999N1-00611-01811999999ADDMA1999999076321MD1210061+9999ME1314369OA149900671REMSYN088AAXX  05164 06750 43/// /1411 11061 21181 37632 48436 52006 333 55306 20126 91113 91211;
0149067500999992011010517004+46650+008617FM-12+228499999V0201501N006219999999N9999999N1-00581-01821999999ADDMA1999999076341MD1210041+9999ME1314379OA149900821REMSYN088AAXX  05174 06750 43/// /1512 11058 21182 37634 48437 52004 333 55300 20000 91116 91212;
0168067500999992011010518004+46650+008617FM-12+228499999V0201401N007719999999N9999999N1-00561-01841999999ADDKA1120M-00461MA1999999076311MD1519999+9999ME1314339OA149901031REMSYN094AAXX  05184 06750 43/// /1415 11056 21184 37631 48433 55/// 333 11046 55300 20000 91120 91215;
0149067500999992011010519004+46650+008617FM-12+228499999V0201501N011819999999N9999999N1-00611-01701999999ADDMA1999999076341MD1210021+9999ME1314389OA149901601REMSYN088AAXX  05194 06750 43/// /1523 11061 21170 37634 48438 52002 333 55300 20000 91131 91223;
0149067500999992011010520004+46650+008617FM-12+228499999V0201501N011319999999N9999999N1-00591-01521999999ADDMA1999999076311MD1719999+9999ME1314349OA149901901REMSYN088AAXX  05204 06750 43/// /1522 11059 21152 37631 48434 57/// 333 55300 20000 91137 91227;
0112067500999992011010521004+46650+008617FM-12+228499999V0201601N012919999999N9999999N1-00671-01551999999ADDMA1999999076311ME1314379REMSYN076AAXX  05214 06750 43/// /1625 11067 21155 37631 48437 5//// 333 553// 20000;
0149067500999992011010522004+46650+008617FM-12+228499999V0201601N012919999999N9999999N1-00641-01711999999ADDMA1999999076311MD1710031+9999ME1314369OA149901701REMSYN088AAXX  05224 06750 43/// /1625 11064 21171 37631 48436 57003 333 55300 20000 91133 91227;
0149067500999992011010523004+46650+008617FM-12+228499999V0201601N012919999999N9999999N1-00641-01821999999ADDMA1999999076341MD1219999+9999ME1314399OA149901851REMSYN088AAXX  05234 06750 43/// /1625 11064 21182 37634 48439 52/// 333 55300 20000 91136 91228;
0096067500999992011010600004+46650+008617FM-12+228499999V0201601N013419999999N9999999N1-00661-01741999999ADDMA1999999076321ME1314389REMSYN060AAXX  06004 06750 43/// /1626 11066 21174 37632 48438 5////;
0096067500999992011010601004+46650+008617FM-12+228499999V0201501N012919999999N9999999N1-00631-01691999999ADDMA1999999076301ME1314349REMSYN060AAXX  06014 06750 43/// /1525 11063 21169 37630 48434 5////;
0096067500999992011010602004+46650+008617FM-12+228499999V0201601N015919999999N9999999N1-00651-01511999999ADDMA1999999076281ME1314339REMSYN060AAXX  06024 06750 43/// /1631 11065 21151 37628 48433 5////;
0096067500999992011010603004+46650+008617FM-12+228499999V0201601N013419999999N9999999N1-00681-01341999999ADDMA1999999076301ME1314369REMSYN060AAXX  06034 06750 43/// /1626 11068 21134 37630 48436 5////;
0096067500999992011010604004+46650+008617FM-12+228499999V0201601N010819999999N9999999N1-00721-01351999999ADDMA1999999076281ME1314359REMSYN060AAXX  06044 06750 43/// /1621 11072 21135 37628 48435 5////;
0096067500999992011010605004+46650+008617FM-12+228499999V0201501N015919999999N9999999N1-00691-01191999999ADDMA1999999076291ME1314359REMSYN060AAXX  06054 06750 43/// /1531 11069 21119 37629 48435 5////;
0125067500999992011010606004+46650+008617FM-12+228499999V0201601N012919999999N9999999N1-00751-01061999999ADDKA1999N-00741MA1999999076321ME1314409REMSYN076AAXX  06064 06750 43/// /1625 11075 21106 37632 48440 5//// 333 21074 55075;
0096067500999992011010607004+46650+008617FM-12+228499999V0201701N009819999999N9999999N1-00871-01041999999ADDMA1999999076371ME1314509REMSYN060AAXX  06074 06750 43/// /1719 11087 21104 37637 48450 5////;
0112067500999992011010608004+46650+008617FM-12+228499999V0201501N012919999999N9999999N1-00771-01051999999ADDMA1999999076391ME1314489REMSYN076AAXX  06084 06750 43/// /1525 11077 21105 37639 48448 5//// 333 553// 20061;
0096067500999992011010609004+46650+008617FM-12+228499999V0201601N012319999999N9999999N1-00801-00991999999ADDMA1999999076401ME1314509REMSYN060AAXX  06094 06750 43/// /1624 11080 21099 37640 48450 5////;
0149067500999992011010610004+46650+008617FM-12+228499999V0201501N015919999999N9999999N1-00681-00941999999ADDMA1999999076411MD1210041+9999ME1314489OA149902011REMSYN088AAXX  06104 06750 43/// /1531 11068 21094 37641 48448 52004 333 553// 20976 91139 91231;
0149067500999992011010611004+46650+008617FM-12+228499999V0201501N018019999999N9999999N1-00601-00871999999ADDMA1999999076401MD1210011+9999ME1314449OA149902371REMSYN088AAXX  06114 06750 43/// /1535 11060 21087 37640 48444 52001 333 553// 2//// 91146 91235;
0149067500999992011010612004+46650+008617FM-12+228499999V0201601N014919999999N9999999N1-00701-00841999999ADDMA1999999076421MD1310021+9999ME1314499OA149902371REMSYN088AAXX  06124 06750 43/// /1629 11070 21084 37642 48449 53002 333 55304 2//// 91146 91235;
0149067500999992011010613004+46650+008617FM-12+228499999V0201501N016419999999N9999999N1-00681-00841999999ADDMA1999999076411MD1010001+9999ME1314489OA149902321REMSYN088AAXX  06134 06750 43/// /1532 11068 21084 37641 48448 50000 333 55301 20734 91145 91233;
0096067500999992011010614004+46650+008617FM-12+228499999V0201601N013919999999N9999999N1-00621-00771999999ADDMA1999999076451ME1314509REMSYN060AAXX  06144 06750 43/// /1627 11062 21077 37645 48450 5////;
0096067500999992011010615004+46650+008617FM-12+228499999V0201601N011819999999N9999999N1-00691-00741999999ADDMA1999999076461ME1314539REMSYN060AAXX  06154 06750 43/// /1623 11069 21074 37646 48453 5////;
0149067500999992011010616004+46650+008617FM-12+228499999V0201501N013919999999N9999999N1-00591-00641999999ADDMA1999999076511MD1210101+9999ME1314559OA149901851REMSYN088AAXX  06164 06750 43/// /1527 11059 21064 37651 48455 52010 333 55300 20058 91136 91227;
0149067500999992011010617004+46650+008617FM-12+228499999V0201501N012319999999N9999999N1-00561-00611999999ADDMA1999999076491MD1210041+9999ME1314529OA149902061REMSYN088AAXX  06174 06750 43/// /1524 11056 21061 37649 48452 52004 333 55300 20000 91140 91230;
0168067500999992011010618004+46650+008617FM-12+228499999V0201501N013419999999N9999999N1-00521-00551999999ADDKA1120M-00521MA1999999076521MD1210061+9999ME1314549OA149902371REMSYN094AAXX  06184 06750 43/// /1526 11052 21055 37652 48454 52006 333 11052 55300 20000 91146 91235;
0149067500999992011010619004+46650+008617FM-12+228499999V0201501N012919999999N9999999N1-00511-00581999999ADDMA1999999076541MD1210031+9999ME1314569OA149901901REMSYN088AAXX  06194 06750 43/// /1525 11051 21058 37654 48456 52003 333 55300 20000 91137 91228;
0149067500999992011010620004+46650+008617FM-12+228499999V0201401N014919999999N9999999N1-00401-00601999999ADDMA1999999076601MD1219999+9999ME1314599OA149901901REMSYN088AAXX  06204 06750 43/// /1429 11040 21060 37660 48459 52/// 333 55300 20000 91137 91229;
0149067500999992011010621004+46650+008617FM-12+228499999V0201501N012919999999N9999999N1-00401-00571999999ADDMA1999999076611MD1219999+9999ME1314609OA149902061REMSYN088AAXX  06214 06750 43/// /1525 11040 21057 37661 48460 52/// 333 55300 20000 91140 91230;
0149067500999992011010622004+46650+008617FM-12+228499999V0201501N012919999999N9999999N1-00401-00581999999ADDMA1999999076671MD1310131+9999ME1314669OA149901851REMSYN088AAXX  06224 06750 43/// /1525 11040 21058 37667 48466 53013 333 55300 20000 91136 91228;
0112067500999992011010623004+46650+008617FM-12+228499999V0201501N012919999999N9999999N1-00401-00551999999ADDMA1999999076701ME1314699REMSYN076AAXX  06234 06750 43/// /1525 11040 21055 37670 48469 5//// 333 553// 20000;
0096067500999992011010700004+46650+008617FM-12+228499999V0201401N011319999999N9999999N1-00371-00521999999ADDMA1999999076701ME1314689REMSYN060AAXX  07004 06750 43/// /1422 11037 21052 37670 48468 5////;
0096067500999992011010701004+46650+008617FM-12+228499999V0201501N012319999999N9999999N1-00361-00491999999ADDMA1999999076731ME1314719REMSYN060AAXX  07014 06750 43/// /1524 11036 21049 37673 48471 5////;
0096067500999992011010702004+46650+008617FM-12+228499999V0201501N011319999999N9999999N1-00371-00461999999ADDMA1999999076781ME1314779REMSYN060AAXX  07024 06750 43/// /1522 11037 21046 37678 48477 5////;
0096067500999992011010703004+46650+008617FM-12+228499999V0201601N012319999999N9999999N1-00411-00481999999ADDMA1999999076791ME1314799REMSYN060AAXX  07034 06750 43/// /1624 11041 21048 37679 48479 5////;
0149067500999992011010704004+46650+008617FM-12+228499999V0201601N011319999999N9999999N1-00361-00461999999ADDMA1999999076791MD1010061+9999ME1314779OA149901801REMSYN088AAXX  07044 06750 43/// /1622 11036 21046 37679 48477 50006 333 55300 20000 91135 91225;
0149067500999992011010705004+46650+008617FM-12+228499999V0201501N017019999999N9999999N1-00301-00431999999ADDMA1999999076801MD1210021+9999ME1314779OA149902011REMSYN088AAXX  07054 06750 43/// /1533 11030 21043 37680 48477 52002 333 55300 20000 91139 91233;
0182067500999992011010706004+46650+008617FM-12+228499999V0201601N014419999999N9999999N1-00291-00431999999ADDGJ102229KA1999N-00541MA1999999076861MD1310071+9999ME1314839OA149902061REMSYN100AAXX  07064 06750 43/// /1628 11029 21043 37686 48483 53007 333 21054 55037 55300 20000 91140 91233;
0149067500999992011010707004+46650+008617FM-12+228499999V0201501N014919999999N9999999N1-00271-00451999999ADDMA1999999076881MD1310091+9999ME1314849OA149902111REMSYN088AAXX  07074 06750 43/// /1529 11027 21045 37688 48484 53009 333 55300 20000 91141 91232;
0112067500999992011010708004+46650+008617FM-12+228499999V0201601N011319999999N9999999N1-00271-00411999999ADDMA1999999076911ME1314879REMSYN076AAXX  07084 06750 43/// /1622 11027 21041 37691 48487 5//// 333 553// 20065;
0096067500999992011010709004+46650+008617FM-12+228499999V0201601N012319999999N9999999N1-00181-00291999999ADDMA1999999076941ME1314889REMSYN060AAXX  07094 06750 43/// /1624 11018 21029 37694 48488 5////;
0149067500999992011010710004+46650+008617FM-12+228499999V0201401N014919999999N9999999N1-00161-00351999999ADDMA1999999076991MD1210111+9999ME1314929OA149902111REMSYN088AAXX  07104 06750 43/// /1429 11016 21035 37699 48492 52011 333 55304 20914 91141 91231;
0149067500999992011010711004+46650+008617FM-12+228499999V0201801N009819999999N9999999N1-00151-00331999999ADDMA1999999076981MD1210071+9999ME1314919OA149902111REMSYN088AAXX  07114 06750 43/// /1819 11015 21033 37698 48491 52007 333 55301 20871 91141 91231;
0149067500999992011010712004+46650+008617FM-12+228499999V0201701N009319999999N9999999N1-00201-00321999999ADDMA1999999076971MD1010031+9999ME1314919OA149902111REMSYN088AAXX  07124 06750 43/// /1718 11020 21032 37697 48491 50003 333 55300 20709 91141 91233;
0149067500999992011010713004+46650+008617FM-12+228499999V0201601N011819999999N9999999N1-00101-00341999999ADDMA1999999076951MD1710041+9999ME1314869OA149901851REMSYN088AAXX  07134 06750 43/// /1623 11010 21034 37695 48486 57004 333 55300 20688 91136 91225;
0096067500999992011010714004+46650+008617FM-12+228499999V0201501N012919999999N9999999N1-00091-00351999999ADDMA1999999076961ME1314879REMSYN060AAXX  07144 06750 43/// /1525 11009 21035 37696 48487 5////;
0096067500999992011010715004+46650+008617FM-12+228499999V0201401N014419999999N9999999N1-00111-00371999999ADDMA1999999076981ME1314909REMSYN060AAXX  07154 06750 43/// /1428 11011 21037 37698 48490 5////;
0149067500999992011010716004+46650+008617FM-12+228499999V0201501N015919999999N9999999N1-00131-00341999999ADDMA1999999077011MD1210061+9999ME1314949OA149902011REMSYN088AAXX  07164 06750 43/// /1531 11013 21034 37701 48494 52006 333 55300 20054 91139 91231;
0149067500999992011010717004+46650+008617FM-12+228499999V0201601N009319999999N9999999N1-00191-00351999999ADDMA1999999077041MD1210081+9999ME1314999OA149902011REMSYN088AAXX  07174 06750 43/// /1618 11019 21035 37704 48499 52008 333 55300 20000 91139 91231;
0131067500999992011010718004+46650+008617FM-12+228499999V0201601N010319999999N9999999N1-00181-00371999999ADDKA1120M-00061MA1999999077041ME1314989REMSYN082AAXX  07184 06750 43/// /1620 11018 21037 37704 48498 5//// 333 11006 553// 20000;
0149067500999992011010719004+46650+008617FM-12+228499999V0201601N010819999999N9999999N1-00181-00361999999ADDMA1999999077041MD1219999+9999ME1314989OA149901601REMSYN088AAXX  07194 06750 43/// /1621 11018 21036 37704 48498 52/// 333 55300 20000 91131 91221;
0096067500999992011010720004+46650+008617FM-12+228499999V0201601N009319999999N9999999N1-00171-00341999999ADDMA1999999077031ME1314979REMSYN060AAXX  07204 06750 43/// /1618 11017 21034 37703 48497 5////;
0096067500999992011010721004+46650+008617FM-12+228499999V0201701N010319999999N9999999N1-00241-00301999999ADDMA1999999076991ME1314959REMSYN060AAXX  07214 06750 43/// /1720 11024 21030 37699 48495 5////;
0149067500999992011010722004+46650+008617FM-12+228499999V0201501N013919999999N9999999N1-00141-00321999999ADDMA1999999077001MD1710041+9999ME1314939OA149902631REMSYN088AAXX  07224 06750 43/// /1527 11014 21032 37700 48493 57004 333 55300 20000 91151 91229;
0112067500999992011010723004+46650+008617FM-12+228499999V0201501N015419999999N9999999N1-00091-00361999999ADDMA1999999076991ME1314909REMSYN076AAXX  07234 06750 43/// /1530 11009 21036 37699 48490 5//// 333 553// 20000;
0112067500999992011010800004+46650+008617FM-12+228499999V0201501N017019999999N9999999N1-00091-00401999999ADDMA1999999076981ME1314899REMSYN076AAXX  08004 06750 43/// /1533 11009 21040 37698 48489 5//// 333 553// 20000;
0096067500999992011010801004+46650+008617FM-12+228499999V0201601N015919999999N9999999N1-00141-00381999999ADDMA1999999076971ME1314909REMSYN060AAXX  08014 06750 43/// /1631 11014 21038 37697 48490 5////;
0096067500999992011010802004+46650+008617FM-12+228499999V0201701N010319999999N9999999N1-00251-00341999999ADDMA1999999076961ME1314929REMSYN060AAXX  08024 06750 43/// /1720 11025 21034 37696 48492 5////;
0096067500999992011010803004+46650+008617FM-12+228499999V0201601N007219999999N9999999N1-00281-00341999999ADDMA1999999076951ME1314929REMSYN060AAXX  08034 06750 43/// /1614 11028 21034 37695 48492 5////;
0096067500999992011010804004+46650+008617FM-12+228499999V0201901N010819999999N9999999N1-00271-00361999999ADDMA1999999076921ME1314889REMSYN060AAXX  08044 06750 43/// /1921 11027 21036 37692 48488 5////;
0096067500999992011010805004+46650+008617FM-12+228499999V0201801N009819999999N9999999N1-00241-00381999999ADDMA1999999076881ME1314839REMSYN060AAXX  08054 06750 43/// /1819 11024 21038 37688 48483 5////;
0125067500999992011010806004+46650+008617FM-12+228499999V0201901N008719999999N9999999N1-00281-00351999999ADDKA1999N-00291MA1999999076901ME1314879REMSYN076AAXX  08064 06750 43/// /1917 11028 21035 37690 48487 5//// 333 21029 55009;
0096067500999992011010807004+46650+008617FM-12+228499999V0201801N010319999999N9999999N1-00271-00361999999ADDMA1999999076921ME1314889REMSYN060AAXX  08074 06750 43/// /1820 11027 21036 37692 48488 5////;
0112067500999992011010808004+46650+008617FM-12+228499999V0201701N009319999999N9999999N1-00311-00361999999ADDMA1999999076961ME1314949REMSYN076AAXX  08084 06750 43/// /1718 11031 21036 37696 48494 5//// 333 553// 20036;
0096067500999992011010809004+46650+008617FM-12+228499999V0201701N010319999999N9999999N1-00201-00401999999ADDMA1999999076981ME1314939REMSYN060AAXX  08094 06750 43/// /1720 11020 21040 37698 48493 5////;
0096067500999992011010810004+46650+008617FM-12+228499999V0201501N012319999999N9999999N1-00071-00391999999ADDMA1999999076991ME1314909REMSYN060AAXX  08104 06750 43/// /1524 11007 21039 37699 48490 5////;
0096067500999992011010811004+46650+008617FM-12+228499999V0201501N014419999999N9999999N1-00111-00421999999ADDMA1999999076971ME1314899REMSYN060AAXX  08114 06750 43/// /1528 11011 21042 37697 48489 5////;
0096067500999992011010812004+46650+008617FM-12+228499999V0201401N012319999999N9999999N1-00111-00401999999ADDMA1999999076961ME1314889REMSYN060AAXX  08124 06750 43/// /1424 11011 21040 37696 48488 5////;
0096067500999992011010813004+46650+008617FM-12+228499999V0201501N012919999999N9999999N1-00161-00391999999ADDMA1999999076931ME1314869REMSYN060AAXX  08134 06750 43/// /1525 11016 21039 37693 48486 5////;
0096067500999992011010814004+46650+008617FM-12+228499999V0201501N015419999999N9999999N1-00141-00401999999ADDMA1999999076931ME1314859REMSYN060AAXX  08144 06750 43/// /1530 11014 21040 37693 48485 5////;
0096067500999992011010815004+46650+008617FM-12+228499999V0201501N014419999999N9999999N1-00171-00471999999ADDMA1999999076961ME1314909REMSYN060AAXX  08154 06750 43/// /1528 11017 21047 37696 48490 5////;
0096067500999992011010816004+46650+008617FM-12+228499999V0201501N011819999999N9999999N1-00221-00441999999ADDMA1999999077011ME1314969REMSYN060AAXX  08164 06750 43/// /1523 11022 21044 37701 48496 5////;
0096067500999992011010817004+46650+008617FM-12+228499999V0201501N012919999999N9999999N1-00221-00471999999ADDMA1999999077011ME1314969REMSYN060AAXX  08174 06750 43/// /1525 11022 21047 37701 48496 5////;
0096067500999992011010818004+46650+008617FM-12+228499999V0201501N011819999999N9999999N1-00271-00401999999ADDMA1999999077001ME1314979REMSYN060AAXX  08184 06750 43/// /1523 11027 21040 37700 48497 5////;
0096067500999992011010819004+46650+008617FM-12+228499999V0201701N011819999999N9999999N1-00251-00441999999ADDMA1999999076991ME1314959REMSYN060AAXX  08194 06750 43/// /1723 11025 21044 37699 48495 5////;
0096067500999992011010820004+46650+008617FM-12+228499999V0201801N010819999999N9999999N1-00271-00381999999ADDMA1999999077011ME1314989REMSYN060AAXX  08204 06750 43/// /1821 11027 21038 37701 48498 5////;
0096067500999992011010821004+46650+008617FM-12+228499999V0201701N011319999999N9999999N1-00211-00391999999ADDMA1999999077001ME1314959REMSYN060AAXX  08214 06750 43/// /1722 11021 21039 37700 48495 5////;
0096067500999992011010822004+46650+008617FM-12+228499999V0201701N010319999999N9999999N1-00241-00331999999ADDMA1999999077001ME1314969REMSYN060AAXX  08224 06750 43/// /1720 11024 21033 37700 48496 5////;
0096067500999992011010823004+46650+008617FM-12+228499999V0201501N012919999999N9999999N1-00221-00361999999ADDMA1999999076991ME1314949REMSYN060AAXX  08234 06750 43/// /1525 11022 21036 37699 48494 5////;
0096067500999992011010900004+46650+008617FM-12+228499999V0201501N017019999999N9999999N1-00181-00491999999ADDMA1999999076951ME1314899REMSYN060AAXX  09004 06750 43/// /1533 11018 21049 37695 48489 5////;
0096067500999992011010901004+46650+008617FM-12+228499999V0201501N014419999999N9999999N1-00201-00561999999ADDMA1999999076971ME1314919REMSYN060AAXX  09014 06750 43/// /1528 11020 21056 37697 48491 5////;
0096067500999992011010902004+46650+008617FM-12+228499999V0201801N009319999999N9999999N1-00291-00431999999ADDMA1999999076991ME1314969REMSYN060AAXX  09024 06750 43/// /1818 11029 21043 37699 48496 5////;
0096067500999992011010903004+46650+008617FM-12+228499999V0201601N010819999999N9999999N1-00271-00391999999ADDMA1999999076951ME1314919REMSYN060AAXX  09034 06750 43/// /1621 11027 21039 37695 48491 5////;
0096067500999992011010904004+46650+008617FM-12+228499999V0201601N012919999999N9999999N1-00271-00421999999ADDMA1999999076911ME1314879REMSYN060AAXX  09044 06750 43/// /1625 11027 21042 37691 48487 5////;
0096067500999992011010905004+46650+008617FM-12+228499999V0201601N015919999999N9999999N1-00261-00461999999ADDMA1999999076871ME1314839REMSYN060AAXX  09054 06750 43/// /1631 11026 21046 37687 48483 5////;
0106067500999992011010906004+46650+008617FM-12+228499999V0201801N012319999999N9999999N1-00321-00391999999ADDMA1999999076881ME1314869REMSYN070AAXX  09064 06750 43/// /1824 11032 21039 37688 48486 5//// 333 55028;
0096067500999992011010907004+46650+008617FM-12+228499999V0201501N017019999999N9999999N1-00231-00471999999ADDMA1999999076861ME1314819REMSYN060AAXX  09074 06750 43/// /1533 11023 21047 37686 48481 5////;
0112067500999992011010908004+46650+008617FM-12+228499999V0201801N009819999999N9999999N1-00331-00401999999ADDMA1999999076921ME1314909REMSYN076AAXX  09084 06750 43/// /1819 11033 21040 37692 48490 5//// 333 553// 20029;
0112067500999992011010909004+46650+008617FM-12+228499999V0201601N010819999999N9999999N1-00351-00361999999ADDMA1999999076911ME1314909REMSYN076AAXX  09094 06750 43/// /1621 11035 21036 37691 48490 5//// 333 553// 20198;
0149067500999992011010910004+46650+008617FM-12+228499999V0201601N017519999999N9999999N1-00251-00391999999ADDMA1999999076891MD1010031+9999ME1314859OA149902631REMSYN088AAXX  09104 06750 43/// /1634 11025 21039 37689 48485 50003 333 55300 20392 91151 91238;
0149067500999992011010911004+46650+008617FM-12+228499999V0201501N020019999999N9999999N1-00201-00451999999ADDMA1999999076861MD1710061+9999ME1314809OA149902991REMSYN088AAXX  09114 06750 43/// /1539 11020 21045 37686 48480 57006 333 55300 20594 91158 91241;
0149067500999992011010912004+46650+008617FM-12+228499999V0201501N019519999999N9999999N1-00201-00471999999ADDMA1999999076821MD1710091+9999ME1314769OA149902991REMSYN088AAXX  09124 06750 43/// /1538 11020 21047 37682 48476 57009 333 55300 20832 91158 91241;
0149067500999992011010913004+46650+008617FM-12+228499999V0201601N019019999999N9999999N1-00201-00441999999ADDMA1999999076791MD1710101+9999ME1314729OA149903141REMSYN088AAXX  09134 06750 43/// /1637 11020 21044 37679 48472 57010 333 55300 20515 91161 91240;
0096067500999992011010914004+46650+008617FM-12+228499999V0201501N018519999999N9999999N1-00201-00451999999ADDMA1999999076781ME1314719REMSYN060AAXX  09144 06750 43/// /1536 11020 21045 37678 48471 5////;
0096067500999992011010915004+46650+008617FM-12+228499999V0201701N013419999999N9999999N1-00301-00381999999ADDMA1999999076801ME1314779REMSYN060AAXX  09154 06750 43/// /1726 11030 21038 37680 48477 5////;
0149067500999992011010916004+46650+008617FM-12+228499999V0201701N012919999999N9999999N1-00311-00371999999ADDMA1999999076801MD1510011+9999ME1314779OA149902631REMSYN088AAXX  09164 06750 43/// /1725 11031 21037 37680 48477 55001 333 55300 20032 91151 91237;
0149067500999992011010917004+46650+008617FM-12+228499999V0201601N010819999999N9999999N1-00321-00381999999ADDMA1999999076811MD1210031+9999ME1314789OA149902471REMSYN088AAXX  09174 06750 43/// /1621 11032 21038 37681 48478 52003 333 55300 20000 91148 91235;
0168067500999992011010918004+46650+008617FM-12+228499999V0201801N009319999999N9999999N1-00341-00381999999ADDKA1120M-00191MA1999999076831MD1210031+9999ME1314819OA149903141REMSYN094AAXX  09184 06750 43/// /1818 11034 21038 37683 48481 52003 333 11019 55300 20000 91161 91241;
0149067500999992011010919004+46650+008617FM-12+228499999V0201901N010319999999N9999999N1-00331-00361999999ADDMA1999999076821MD1210021+9999ME1314809OA149901961REMSYN088AAXX  09194 06750 43/// /1920 11033 21036 37682 48480 52002 333 55300 20000 91138 91222;
0149067500999992011010920004+46650+008617FM-12+228499999V0201801N009319999999N9999999N1-00301-00411999999ADDMA1999999076851MD1210041+9999ME1314829OA149901961REMSYN088AAXX  09204 06750 43/// /1818 11030 21041 37685 48482 52004 333 55300 20000 91138 91222;
0149067500999992011010921004+46650+008617FM-12+228499999V0201901N008719999999N9999999N1-00301-00421999999ADDMA1999999076851MD1210021+9999ME1314829OA149902471REMSYN088AAXX  09214 06750 43/// /1917 11030 21042 37685 48482 52002 333 55300 20000 91148 91235;
0149067500999992011010922004+46650+008617FM-12+228499999V0202001N007719999999N9999999N1-00341-00391999999ADDMA1999999076851MD1010031+9999ME1314839OA149902061REMSYN088AAXX  09224 06750 43/// /2015 11034 21039 37685 48483 50003 333 55300 20000 91140 91224;
0149067500999992011010923004+46650+008617FM-12+228499999V0201601N007219999999N9999999N1-00281-00421999999ADDMA1999999076851MD1510001+9999ME1314819OA149902061REMSYN088AAXX  09234 06750 43/// /1614 11028 21042 37685 48481 55000 333 55300 20000 91140 91224;
0149067500999992011011000004+46650+008617FM-12+228499999V0201601N007219999999N9999999N1-00311-00391999999ADDMA1999999076861MD1010011+9999ME1314839OA149903141REMSYN088AAXX  10004 06750 43/// /1614 11031 21039 37686 48483 50001 333 55300 20000 91161 91240;
0149067500999992011011001004+46650+008617FM-12+228499999V0202001N003119999999N9999999N1-00361-00361999999ADDMA1999999076881MD1210031+9999ME1314879OA149901391REMSYN088AAXX  10014 06750 43/// /2006 11036 21036 37688 48487 52003 333 55300 20000 91127 91215;
0112067500999992011011002004+46650+008617FM-12+228499999V0201901N002619999999N9999999N1-00361-00361999999ADDMA1999999076881ME1314879REMSYN076AAXX  10024 06750 43/// /1905 11036 21036 37688 48487 5//// 333 553// 20000;
0096067500999992011011003004+46650+008617FM-12+228499999V0202201N001019999999N9999999N1-00361-00361999999ADDMA1999999076871ME1314869REMSYN060AAXX  10034 06750 43/// /2202 11036 21036 37687 48486 5////;
0112067500999992011011004004+46650+008617FM-12+228499999V0202301N001519999999N9999999N1-00361-00371999999ADDMA1999999076881ME1314879REMSYN076AAXX  10044 06750 43/// /2303 11036 21037 37688 48487 5//// 333 553// 20000;
0149067500999992011011005004+46650+008617FM-12+228499999V0202201N001519999999N9999999N1-00381-00391999999ADDMA1999999076861MD1719999+9999ME1314859OA149900261REMSYN088AAXX  10054 06750 43/// /2203 11038 21039 37686 48485 57/// 333 55300 20000 91105 91204;
0125067500999992011011006004+46650+008617FM-12+228499999V0202201N002619999999N9999999N1-00411-00411999999ADDKA1999N-00411MA1999999076871ME1314879REMSYN076AAXX  10064 06750 43/// /2205 11041 21041 37687 48487 5//// 333 21041 55000;
0149067500999992011011007004+46650+008617FM-12+228499999V0201701N002619999999N9999999N1-00391-00401999999ADDMA1999999076881MD1510001+9999ME1314889OA149900361REMSYN088AAXX  10074 06750 43/// /1705 11039 21040 37688 48488 55000 333 55300 20000 91107 91205;
0096067500999992011011008004+46650+008617FM-12+228499999V0201801N001519999999N9999999N1-00391-00401999999ADDMA1999999076901ME1314909REMSYN060AAXX  10084 06750 43/// /1803 11039 21040 37690 48490 5////;
0096067500999992011011009004+46650+008617FM-12+228499999V0201801N002619999999N9999999N1-00371-00381999999ADDMA1999999076911ME1314909REMSYN060AAXX  10094 06750 43/// /1805 11037 21038 37691 48490 5////;
0149067500999992011011010004+46650+008617FM-12+228499999V0201401N003119999999N9999999N1-00341-00361999999ADDMA1999999076921MD1210041+9999ME1314909OA149900511REMSYN088AAXX  10104 06750 43/// /1406 11034 21036 37692 48490 52004 333 55300 20446 91110 91206;
0149067500999992011011011004+46650+008617FM-12+228499999V0201901N002619999999N9999999N1-00301-00321999999ADDMA1999999076901MD1019999+9999ME1314879OA149900511REMSYN088AAXX  10114 06750 43/// /1905 11030 21032 37690 48487 50/// 333 55300 20760 91110 91206;
0112067500999992011011012004+46650+008617FM-12+228499999V0201701N002119999999N9999999N1-00321-00351999999ADDMA1999999076871ME1314859REMSYN076AAXX  10124 06750 43/// /1704 11032 21035 37687 48485 5//// 333 553// 2////;
0096067500999992011011013004+46650+008617FM-12+228499999V0202001N002119999999N9999999N1-00361-00401999999ADDMA1999999076831ME1314829REMSYN060AAXX  10134 06750 43/// /2004 11036 21040 37683 48482 5////;
0096067500999992011011014004+46650+008617FM-12+228499999V0201801N002119999999N9999999N1-00371-00451999999ADDMA1999999076811ME1314809REMSYN060AAXX  10144 06750 43/// /1804 11037 21045 37681 48480 5////;
0096067500999992011011015004+46650+008617FM-12+228499999V0201501N004119999999N9999999N1-00351-00471999999ADDMA1999999076801ME1314789REMSYN060AAXX  10154 06750 43/// /1508 11035 21047 37680 48478 5////;
0096067500999992011011016004+46650+008617FM-12+228499999V0201701N004119999999N9999999N1-00381-00461999999ADDMA1999999076801ME1314799REMSYN060AAXX  10164 06750 43/// /1708 11038 21046 37680 48479 5////;
0096067500999992011011017004+46650+008617FM-12+228499999V0202001N004619999999N9999999N1-00381-00481999999ADDMA1999999076791ME1314789REMSYN060AAXX  10174 06750 43/// /2009 11038 21048 37679 48478 5////;
0119067500999992011011018004+46650+008617FM-12+228499999V0201701N003119999999N9999999N1-00371-00521999999ADDKA1999M-00241MA1999999076781ME1314779REMSYN070AAXX  10184 06750 43/// /1706 11037 21052 37678 48477 5//// 333 11024;
0096067500999992011011019004+46650+008617FM-12+228499999V0201501N004119999999N9999999N1-00361-00561999999ADDMA1999999076771ME1314759REMSYN060AAXX  10194 06750 43/// /1508 11036 21056 37677 48475 5////;
0096067500999992011011020004+46650+008617FM-12+228499999V0201701N004619999999N9999999N1-00341-00631999999ADDMA1999999076741ME1314719REMSYN060AAXX  10204 06750 43/// /1709 11034 21063 37674 48471 5////;
0096067500999992011011021004+46650+008617FM-12+228499999V0201701N005119999999N9999999N1-00351-00581999999ADDMA1999999076721ME1314709REMSYN060AAXX  10214 06750 43/// /1710 11035 21058 37672 48470 5////;
0096067500999992011011022004+46650+008617FM-12+228499999V0201601N004619999999N9999999N1-00351-00601999999ADDMA1999999076721ME1314709REMSYN060AAXX  10224 06750 43/// /1609 11035 21060 37672 48470 5////;
0096067500999992011011023004+46650+008617FM-12+228499999V0201601N005119999999N9999999N1-00361-00631999999ADDMA1999999076701ME1314689REMSYN060AAXX  10234 06750 43/// /1610 11036 21063 37670 48468 5////;
0096067500999992011011100004+46650+008617FM-12+228499999V0201601N004119999999N9999999N1-00431-00561999999ADDMA1999999076651ME1314659REMSYN060AAXX  11004 06750 43/// /1608 11043 21056 37665 48465 5////;
0096067500999992011011101004+46650+008617FM-12+228499999V0201501N007219999999N9999999N1-00431-00611999999ADDMA1999999076611ME1314619REMSYN060AAXX  11014 06750 43/// /1514 11043 21061 37661 48461 5////;
0096067500999992011011102004+46650+008617FM-12+228499999V0201201N005119999999N9999999N1-00441-00631999999ADDMA1999999076601ME1314609REMSYN060AAXX  11024 06750 43/// /1210 11044 21063 37660 48460 5////;
0096067500999992011011103004+46650+008617FM-12+228499999V0201401N006219999999N9999999N1-00471-00631999999ADDMA1999999076561ME1314579REMSYN060AAXX  11034 06750 43/// /1412 11047 21063 37656 48457 5////;
0096067500999992011011104004+46650+008617FM-12+228499999V0201401N006719999999N9999999N1-00461-00611999999ADDMA1999999076531ME1314539REMSYN060AAXX  11044 06750 43/// /1413 11046 21061 37653 48453 5////;
0096067500999992011011105004+46650+008617FM-12+228499999V0201501N003619999999N9999999N1-00561-00651999999ADDMA1999999076501ME1314539REMSYN060AAXX  11054 06750 43/// /1507 11056 21065 37650 48453 5////;
0106067500999992011011106004+46650+008617FM-12+228499999V0201501N007219999999N9999999N1-00541-00691999999ADDMA1999999076481ME1314509REMSYN070AAXX  11064 06750 43/// /1514 11054 21069 37648 48450 5//// 333 55003;
0149067500999992011011107004+46650+008617FM-12+228499999V0201501N007219999999N9999999N1-00531-00681999999ADDMA1999999076471MD1819999+9999ME1314499OA149901081REMSYN088AAXX  11074 06750 43/// /1514 11053 21068 37647 48449 58/// 333 55300 20000 91121 91217;
0112067500999992011011108004+46650+008617FM-12+228499999V0201701N007719999999N9999999N1-00541-00741999999ADDMA1999999076471ME1314499REMSYN076AAXX  11084 06750 43/// /1715 11054 21074 37647 48449 5//// 333 553// 20036;
0096067500999992011011109004+46650+008617FM-12+228499999V0201801N008219999999N9999999N1-00471-00701999999ADDMA1999999076451ME1314459REMSYN060AAXX  11094 06750 43/// /1816 11047 21070 37645 48445 5////;
0149067500999992011011110004+46650+008617FM-12+228499999V0201701N007719999999N9999999N1-00431-00691999999ADDMA1999999076451MD1710021+9999ME1314449OA149901291REMSYN088AAXX  11104 06750 43/// /1715 11043 21069 37645 48444 57002 333 553// 2//// 91125 91217;
0149067500999992011011111004+46650+008617FM-12+228499999V0201701N008719999999N9999999N1-00381-00731999999ADDMA1999999076401MD1710071+9999ME1314379OA149901341REMSYN088AAXX  11114 06750 43/// /1717 11038 21073 37640 48437 57007 333 553// 2//// 91126 91218;
0112067500999992011011112004+46650+008617FM-12+228499999V0201401N013919999999N9999999N1-00341-00611999999ADDMA1999999076281ME1314239REMSYN076AAXX  11124 06750 43/// /1427 11034 21061 37628 48423 5//// 333 553// 2////;
0149067500999992011011113004+46650+008617FM-12+228499999V0201501N011819999999N9999999N1-00411-00651999999ADDMA1999999076241MD1710211+9999ME1314219OA149901701REMSYN088AAXX  11134 06750 43/// /1523 11041 21065 37624 48421 57021 333 55301 20875 91133 91227;
0096067500999992011011114004+46650+008617FM-12+228499999V0201701N006719999999N9999999N1-00471-00651999999ADDMA1999999076231ME1314229REMSYN060AAXX  11144 06750 43/// /1713 11047 21065 37623 48422 5////;
0096067500999992011011115004+46650+008617FM-12+228499999V0201701N006219999999N9999999N1-00421-00721999999ADDMA1999999076271ME1314249REMSYN060AAXX  11154 06750 43/// /1712 11042 21072 37627 48424 5////;
0149067500999992011011116004+46650+008617FM-12+228499999V0201801N003119999999N9999999N1-00481-00771999999ADDMA1999999076301MD1210061+9999ME1314309OA149901241REMSYN088AAXX  11164 06750 43/// /1806 11048 21077 37630 48430 52006 333 55300 20065 91124 91213;
0149067500999992011011117004+46650+008617FM-12+228499999V0201801N001019999999N9999999N1-00611-00681999999ADDMA1999999076331MD1110091+9999ME1314379OA149900771REMSYN088AAXX  11174 06750 43/// /1802 11061 21068 37633 48437 51009 333 55300 20000 91115 91210;
0168067500999992011011118004+46650+008617FM-12+228499999V0201901N000519999999N9999999N1-00601-00651999999ADDKA1120M-00341MA1999999076371MD1310101+9999ME1314419OA149901701REMSYN094AAXX  11184 06750 43/// /1901 11060 21065 37637 48441 53010 333 11034 55300 20000 91133 91227;
0149067500999992011011119004+46650+008617FM-12+228499999V0203201N004619999999N9999999N1-00551-00651999999ADDMA1999999076431MD1310131+9999ME1314469OA149900721REMSYN088AAXX  11194 06750 43/// /3209 11055 21065 37643 48446 53013 333 55300 20000 91114 91209;
0149067500999992011011120004+46650+008617FM-12+228499999V0200101N007219999999N9999999N1-00501-00761999999ADDMA1999999076451MD1110121+9999ME1314469OA149901441REMSYN088AAXX  11204 06750 43/// /0114 11050 21076 37645 48446 51012 333 55300 20000 91128 91217;
0149067500999992011011121004+46650+008617FM-12+228499999V0200101N008219999999N9999999N1-00551-00651999999ADDMA1999999076511MD1310141+9999ME1314549OA149901541REMSYN088AAXX  11214 06750 43/// /0116 11055 21065 37651 48454 53014 333 55300 20000 91130 91217;
0149067500999992011011122004+46650+008617FM-12+228499999V0200201N010319999999N9999999N1-00501-00791999999ADDMA1999999076561MD1310131+9999ME1314589OA149901851REMSYN088AAXX  11224 06750 43/// /0220 11050 21079 37656 48458 53013 333 55300 20000 91136 91221;
0149067500999992011011123004+46650+008617FM-12+228499999V0200201N008219999999N9999999N1-00541-00721999999ADDMA1999999076611MD1110161+9999ME1314649OA149901851REMSYN088AAXX  11234 06750 43/// /0216 11054 21072 37661 48464 51016 333 55300 20000 91136 91221;
0149067500999992011011200004+46650+008617FM-12+228499999V0200201N004119999999N9999999N1-00571-00661999999ADDMA1999999076641MD1110131+9999ME1314689OA149901851REMSYN088AAXX  12004 06750 43/// /0208 11057 21066 37664 48468 51013 333 55300 20000 91136 91226;
0149067500999992011011201004+46650+008617FM-12+228499999V0203601N010319999999N9999999N1-00541-00831999999ADDMA1999999076681MD1210121+9999ME1314719OA149901751REMSYN088AAXX  12014 06750 43/// /3620 11054 21083 37668 48471 52012 333 55300 20000 91134 91220;
0112067500999992011011202004+46650+008617FM-12+228499999V0200201N008219999999N9999999N1-00591-00931999999ADDMA1999999076771ME1314829REMSYN076AAXX  12024 06750 43/// /0216 11059 21093 37677 48482 5//// 333 553// 20000;
0096067500999992011011203004+46650+008617FM-12+228499999V0200201N010819999999N9999999N1-00541-00891999999ADDMA1999999076791ME1314839REMSYN060AAXX  12034 06750 43/// /0221 11054 21089 37679 48483 5////;
0096067500999992011011204004+46650+008617FM-12+228499999V0200201N010319999999N9999999N1-00561-00771999999ADDMA1999999076841ME1314899REMSYN060AAXX  12044 06750 43/// /0220 11056 21077 37684 48489 5////;
0112067500999992011011205004+46650+008617FM-12+228499999V0200101N014419999999N9999999N1-00541-00831999999ADDMA1999999076821ME1314869REMSYN076AAXX  12054 06750 43/// /0128 11054 21083 37682 48486 5//// 333 553// 20000;
0125067500999992011011206004+46650+008617FM-12+228499999V0200201N014419999999N9999999N1-00541-00961999999ADDKA1999N-00631MA1999999076891ME1314939REMSYN076AAXX  12064 06750 43/// /0228 11054 21096 37689 48493 5//// 333 21063 55036;
0149067500999992011011207004+46650+008617FM-12+228499999V0200201N010319999999N9999999N1-00531-01021999999ADDMA1999999076961MD1210121+9999ME1315009OA149902321REMSYN088AAXX  12074 06750 43/// /0220 11053 21102 37696 48500 52012 333 55300 20000 91145 91229;
0096067500999992011011208004+46650+008617FM-12+228499999V0200101N006219999999N9999999N1-00491-00981999999ADDMA1999999077021ME1315059REMSYN060AAXX  12084 06750 43/// /0112 11049 21098 37702 48505 5////;
0096067500999992011011209004+46650+008617FM-12+228499999V0203601N005119999999N9999999N1-00511-01021999999ADDMA1999999077041ME1315089REMSYN060AAXX  12094 06750 43/// /3610 11051 21102 37704 48508 5////;
0149067500999992011011210004+46650+008617FM-12+228499999V0203501N003619999999N9999999N1-00511-00791999999ADDMA1999999077081MD1219999+9999ME1315129OA149901291REMSYN088AAXX  12104 06750 43/// /3507 11051 21079 37708 48512 52/// 333 55302 20889 91125 91213;
0149067500999992011011211004+46650+008617FM-12+228499999V0209999C002619999999N9999999N1-00201-01141999999ADDMA1999999077101MD1210081+9999ME1315059OA149900931REMSYN088AAXX  12114 06750 43/// /0005 11020 21114 37710 48505 52008 333 55304 2//// 91118 91210;
0096067500999992011011212004+46650+008617FM-12+228499999V0203501N004119999999N9999999N1-00231-00871999999ADDMA1999999077101ME1315069REMSYN060AAXX  12124 06750 43/// /3508 11023 21087 37710 48506 5////;
0096067500999992011011213004+46650+008617FM-12+228499999V0203501N006719999999N9999999N1-00321-00721999999ADDMA1999999077091ME1315089REMSYN060AAXX  12134 06750 43/// /3513 11032 21072 37709 48508 5////;
0096067500999992011011214004+46650+008617FM-12+228499999V0209999C005119999999N9999999N1-00261-00571999999ADDMA1999999077131ME1315109REMSYN060AAXX  12144 06750 43/// /0010 11026 21057 37713 48510 5////;
0096067500999992011011215004+46650+008617FM-12+228499999V0203601N003119999999N9999999N1-00281-00381999999ADDMA1999999077141ME1315129REMSYN060AAXX  12154 06750 43/// /3606 11028 21038 37714 48512 5////;
0149067500999992011011216004+46650+008617FM-12+228499999V0203501N002619999999N9999999N1-00211-00271999999ADDMA1999999077161MD1210071+9999ME1315129OA149901031REMSYN088AAXX  12164 06750 43/// /3505 11021 21027 37716 48512 52007 333 55300 20054 91120 91212;
0149067500999992011011217004+46650+008617FM-12+228499999V0203601N008719999999N9999999N1+00001-00141999999ADDMA1999999077191MD1210061+9999ME1315099OA149901601REMSYN088AAXX  12174 06750 43/// /3617 10000 21014 37719 48509 52006 333 55300 20000 91131 91221;
0168067500999992011011218004+46650+008617FM-12+228499999V0203601N011819999999N9999999N1-00021-00111999999ADDKA1120M+00051MA1999999077181MD1210041+9999ME1315089OA149902211REMSYN094AAXX  12184 06750 43/// /3623 11002 21011 37718 48508 52004 333 10005 55300 20000 91143 91228;
0149067500999992011011219004+46650+008617FM-12+228499999V0203501N012919999999N9999999N1-00011-00141999999ADDMA1999999077191MD1210031+9999ME1315099OA149902061REMSYN088AAXX  12194 06750 43/// /3525 11001 21014 37719 48509 52003 333 55300 20000 91140 91225;
0149067500999992011011220004+46650+008617FM-12+228499999V0203501N008219999999N9999999N1-00041-00121999999ADDMA1999999077251MD1310061+9999ME1315169OA149901961REMSYN088AAXX  12204 06750 43/// /3516 11004 21012 37725 48516 53006 333 55300 20000 91138 91225;
0149067500999992011011221004+46650+008617FM-12+228499999V0203501N009319999999N9999999N1-00051-00121999999ADDMA1999999077251MD1210071+9999ME1315179OA149902061REMSYN088AAXX  12214 06750 43/// /3518 11005 21012 37725 48517 52007 333 55300 20000 91140 91225;
0149067500999992011011222004+46650+008617FM-12+228499999V0203501N008219999999N9999999N1-00021-00101999999ADDMA1999999077261MD1210071+9999ME1315179OA149901601REMSYN088AAXX  12224 06750 43/// /3516 11002 21010 37726 48517 52007 333 55300 20000 91131 91218;
0149067500999992011011223004+46650+008617FM-12+228499999V0203601N007219999999N9999999N1-00051-00081999999ADDMA1999999077261MD1010011+9999ME1315189OA149901441REMSYN088AAXX  12234 06750 43/// /3614 11005 21008 37726 48518 50001 333 55300 20000 91128 91217;
0149067500999992011011300004+46650+008617FM-12+228499999V0203601N007719999999N9999999N1+00011-00081999999ADDMA1999999077241MD1810011+9999ME1315149OA149902061REMSYN088AAXX  13004 06750 43/// /3615 10001 21008 37724 48514 58001 333 55300 20000 91140 91225;
0149067500999992011011301004+46650+008617FM-12+228499999V0209999C012919999999N9999999N1+00011-00071999999ADDMA1999999077231MD1710031+9999ME1315139OA149902011REMSYN088AAXX  13014 06750 43/// /0025 10001 21007 37723 48513 57003 333 55300 20000 91139 91225;
0149067500999992011011302004+46650+008617FM-12+228499999V0200101N009319999999N9999999N1-00021-00081999999ADDMA1999999077291MD1319999+9999ME1315209OA149902011REMSYN088AAXX  13024 06750 43/// /0118 11002 21008 37729 48520 53/// 333 55300 20000 91139 91225;
0096067500999992011011303004+46650+008617FM-12+228499999V0203501N003119999999N9999999N1-00011-00041999999ADDMA1999999077281ME1315199REMSYN060AAXX  13034 06750 43/// /3506 11001 21004 37728 48519 5////;
0149067500999992011011304004+46650+008617FM-12+228499999V0209999C007219999999N9999999N1+00021-00051999999ADDMA1999999077241MD1819999+9999ME1315139OA149901391REMSYN088AAXX  13044 06750 43/// /0014 10002 21005 37724 48513 58/// 333 55300 20000 91127 91217;
0112067500999992011011305004+46650+008617FM-12+228499999V0203601N009819999999N9999999N1+00091-00051999999ADDMA1999999077261ME1315149REMSYN076AAXX  13054 06750 43/// /3619 10009 21005 37726 48514 5//// 333 553// 20000;
0201067500999992011011306004+46650+008617FM-12+228499999V0203501N010819999999N9999999N1+00091-00041999999ADDGJ101149KA1999N-00081MA1999999077281MD1410001+9999ME1315169OA149902111REMSYN100AAXX  13064 06750 43/// /3521 10009 21004 37728 48516 53000 333 21008 55019 55300 20000 91141 91225;EQDQ01+000032APCTEN
0096067500999992011011307004+46650+008617FM-12+228499999V0209999C012319999999N9999999N1+00101-00021999999ADDMA1999999077261ME1315139REMSYN060AAXX  13074 06750 43/// /0024 10010 21002 37726 48513 5////;
0096067500999992011011308004+46650+008617FM-12+228499999V0200101N011319999999N9999999N1+00111-00161999999ADDMA1999999077301ME1315179REMSYN060AAXX  13084 06750 43/// /0122 10011 21016 37730 48517 5////;
0096067500999992011011309004+46650+008617FM-12+228499999V0200201N008719999999N9999999N1+00011-00121999999ADDMA1999999077331ME1315239REMSYN060AAXX  13094 06750 43/// /0217 10001 21012 37733 48523 5////;
0096067500999992011011310004+46650+008617FM-12+228499999V0200101N012919999999N9999999N1+00121-00111999999ADDMA1999999077311ME1315189REMSYN060AAXX  13104 06750 43/// /0125 10012 21011 37731 48518 5////;
0096067500999992011011311004+46650+008617FM-12+228499999V0209999C014419999999N9999999N1+00211-00221999999ADDMA1999999077281ME1315129REMSYN060AAXX  13114 06750 43/// /0028 10021 21022 37728 48512 5////;
0096067500999992011011312004+46650+008617FM-12+228499999V0200101N009319999999N9999999N1+00281-00571999999ADDMA1999999077291ME1315119REMSYN060AAXX  13124 06750 43/// /0118 10028 21057 37729 48511 5////;
0096067500999992011011313004+46650+008617FM-12+228499999V0203501N013419999999N9999999N1+00291-00661999999ADDMA1999999077241ME1315069REMSYN060AAXX  13134 06750 43/// /3526 10029 21066 37724 48506 5////;
0096067500999992011011314004+46650+008617FM-12+228499999V0203601N012319999999N9999999N1+00241-00631999999ADDMA1999999077241ME1315079REMSYN060AAXX  13144 06750 43/// /3624 10024 21063 37724 48507 5////;
0096067500999992011011315004+46650+008617FM-12+228499999V0203601N012319999999N9999999N1+00201-00491999999ADDMA1999999077261ME1315109REMSYN060AAXX  13154 06750 43/// /3624 10020 21049 37726 48510 5////;
0096067500999992011011316004+46650+008617FM-12+228499999V0203601N009319999999N9999999N1+00111-00311999999ADDMA1999999077291ME1315169REMSYN060AAXX  13164 06750 43/// /3618 10011 21031 37729 48516 5////;
0149067500999992011011317004+46650+008617FM-12+228499999V0203601N014419999999N9999999N1+00091-00191999999ADDMA1999999077261MD1210021+9999ME1315149OA149902261REMSYN088AAXX  13174 06750 43/// /3628 10009 21019 37726 48514 52002 333 55300 20000 91144 91228;
0168067500999992011011318004+46650+008617FM-12+228499999V0203501N012319999999N9999999N1+00141-00211999999ADDKA1120M+00311MA1999999077291MD1010041+9999ME1315159OA149902471REMSYN094AAXX  13184 06750 43/// /3524 10014 21021 37729 48515 50004 333 10031 55300 20000 91148 91230;
0149067500999992011011319004+46650+008617FM-12+228499999V0200301N007219999999N9999999N1+00131-00151999999ADDMA1999999077321MD1310031+9999ME1315199OA149902211REMSYN088AAXX  13194 06750 43/// /0314 10013 21015 37732 48519 53003 333 55300 20000 91143 91229;
0149067500999992011011320004+46650+008617FM-12+228499999V0200301N008219999999N9999999N1+00111-00101999999ADDMA1999999077351MD1210091+9999ME1315239OA149902011REMSYN088AAXX  13204 06750 43/// /0316 10011 21010 37735 48523 52009 333 55300 20000 91139 91224;
0149067500999992011011321004+46650+008617FM-12+228499999V0200101N008719999999N9999999N1+00141-00151999999ADDMA1999999077351MD1210061+9999ME1315229OA149902261REMSYN088AAXX  13214 06750 43/// /0117 10014 21015 37735 48522 52006 333 55300 20000 91144 91229;
0149067500999992011011322004+46650+008617FM-12+228499999V0200401N003619999999N9999999N1+00111-00151999999ADDMA1999999077361MD1210041+9999ME1315249OA149901701REMSYN088AAXX  13224 06750 43/// /0407 10011 21015 37736 48524 52004 333 55300 20000 91133 91220;
0149067500999992011011323004+46650+008617FM-12+228499999V0203501N004619999999N9999999N1+00111-00161999999ADDMA1999999077361MD1110011+9999ME1315249OA149901241REMSYN088AAXX  13234 06750 43/// /3509 10011 21016 37736 48524 51001 333 55300 20000 91124 91216;
0149067500999992011011400004+46650+008617FM-12+228499999V0203501N004619999999N9999999N1+00121-00201999999ADDMA1999999077361MD1110011+9999ME1315239OA149902471REMSYN088AAXX  14004 06750 43/// /3509 10012 21020 37736 48523 51001 333 55300 20000 91148 91230;
0149067500999992011011401004+46650+008617FM-12+228499999V0203501N005119999999N9999999N1+00011-00091999999ADDMA1999999077371MD1210011+9999ME1315289OA149900981REMSYN088AAXX  14014 06750 43/// /3510 10001 21009 37737 48528 52001 333 55300 20000 91119 91211;
0112067500999992011011402004+46650+008617FM-12+228499999V0203501N005719999999N9999999N1+00011-00131999999ADDMA1999999077411ME1315329REMSYN076AAXX  14024 06750 43/// /3511 10001 21013 37741 48532 5//// 333 553// 20000;
0149067500999992011011403004+46650+008617FM-12+228499999V0209999C000019999999N9999999N1-00071-00081999999ADDMA1999999077401MD1210041+9999ME1315339OA149901241REMSYN088AAXX  14034 06750 43/// /0000 11007 21008 37740 48533 52004 333 55300 20000 91124 91216;
0168067500999992011011404004+46650+008617FM-12+228499999V0201001N001019999999N9999999N1+00031-00171999999ADDMA1999999077371MD1410001+9999ME1315279OA149900821REMSYN088AAXX  14044 06750 43/// /1002 10003 21017 37737 48527 58000 333 55300 20000 91116 91210;EQDQ01+000082APCTEN
0149067500999992011011405004+46650+008617FM-12+228499999V0200301N002119999999N9999999N1+00111-00351999999ADDMA1999999077371MD1710041+9999ME1315259OA149900671REMSYN088AAXX  14054 06750 43/// /0304 10011 21035 37737 48525 57004 333 55300 20000 91113 91207;
0182067500999992011011406004+46650+008617FM-12+228499999V0200901N001519999999N9999999N1-00051-00341999999ADDGJ101929KA1999N-00091MA1999999077381MD1510021+9999ME1315309OA149902011REMSYN100AAXX  14064 06750 43/// /0903 11005 21034 37738 48530 55002 333 21009 55032 55300 20000 91139 91224;
0149067500999992011011407004+46650+008617FM-12+228499999V0201301N001519999999N9999999N1+00001-00381999999ADDMA1999999077411MD1210041+9999ME1315329OA149900411REMSYN088AAXX  14074 06750 43/// /1303 10000 21038 37741 48532 52004 333 55300 20000 91108 91205;
0096067500999992011011408004+46650+008617FM-12+228499999V0201401N002119999999N9999999N1+00001-00381999999ADDMA1999999077421ME1315339REMSYN060AAXX  14084 06750 43/// /1404 10000 21038 37742 48533 5////;
0096067500999992011011409004+46650+008617FM-12+228499999V0201401N002619999999N9999999N1+00201-00451999999ADDMA1999999077421ME1315279REMSYN060AAXX  14094 06750 43/// /1405 10020 21045 37742 48527 5////;
0096067500999992011011410004+46650+008617FM-12+228499999V0201401N002619999999N9999999N1+00301-00671999999ADDMA1999999077431ME1315269REMSYN060AAXX  14104 06750 43/// /1405 10030 21067 37743 48526 5////;
0149067500999992011011411004+46650+008617FM-12+228499999V0201701N004119999999N9999999N1+00341-00811999999ADDMA1999999077421MD1410001+9999ME1315239OA149900771REMSYN088AAXX  14114 06750 43/// /1708 10034 21081 37742 48523 54000 333 553// 2//// 91115 91210;
0149067500999992011011412004+46650+008617FM-12+228499999V0202001N005119999999N9999999N1+00431-01101999999ADDMA1999999077371MD1810051+9999ME1315159OA149900931REMSYN088AAXX  14124 06750 43/// /2010 10043 21110 37737 48515 58005 333 553// 2//// 91118 91211;
0149067500999992011011413004+46650+008617FM-12+228499999V0201701N005119999999N9999999N1+00471-01211999999ADDMA1999999077331MD1810101+9999ME1315109OA149900881REMSYN088AAXX  14134 06750 43/// /1710 10047 21121 37733 48510 58010 333 553// 2//// 91117 91211;
0112067500999992011011414004+46650+008617FM-12+228499999V0201601N005119999999N9999999N1+00391-00981999999ADDMA1999999077321ME1315119REMSYN076AAXX  14144 06750 43/// /1610 10039 21098 37732 48511 5//// 333 553// 2////;
0149067500999992011011415004+46650+008617FM-12+228499999V0201601N004619999999N9999999N1+00441-01281999999ADDMA1999999077311MD1610061+9999ME1315099OA149900881REMSYN088AAXX  14154 06750 43/// /1609 10044 21128 37731 48509 56006 333 553// 20608 91117 91211;
0168067500999992011011416004+46650+008617FM-12+228499999V0201501N003119999999N9999999N1+00331-01201999999ADDMA1999999077331MD1410001+9999ME1315149OA149900721REMSYN088AAXX  14164 06750 43/// /1506 10033 21120 37733 48514 53000 333 55300 20130 91114 91210;EQDQ01+000032APCTEN
0149067500999992011011417004+46650+008617FM-12+228499999V0201401N003619999999N9999999N1+00231-01541999999ADDMA1999999077341MD1310021+9999ME1315189OA149900721REMSYN088AAXX  14174 06750 43/// /1407 10023 21154 37734 48518 53002 333 55300 20000 91114 91210;
0168067500999992011011418004+46650+008617FM-12+228499999V0201801N007219999999N9999999N1+00281-01121999999ADDKA1120M+00531MA1999999077331MD1010021+9999ME1315169OA149901031REMSYN094AAXX  14184 06750 43/// /1814 10028 21112 37733 48516 50002 333 10053 55300 20000 91120 91214;
0149067500999992011011419004+46650+008617FM-12+228499999V0201701N004119999999N9999999N1+00221-01121999999ADDMA1999999077311MD1810021+9999ME1315159OA149901031REMSYN088AAXX  14194 06750 43/// /1708 10022 21112 37731 48515 58002 333 55300 20000 91120 91214;
0149067500999992011011420004+46650+008617FM-12+228499999V0201801N005719999999N9999999N1+00321-01311999999ADDMA1999999077261MD1710081+9999ME1315079OA149900881REMSYN088AAXX  14204 06750 43/// /1811 10032 21131 37726 48507 57008 333 55300 20000 91117 91212;
0149067500999992011011421004+46650+008617FM-12+228499999V0201601N003619999999N9999999N1+00201-01571999999ADDMA1999999077231MD1710101+9999ME1315079OA149901031REMSYN088AAXX  14214 06750 43/// /1607 10020 21157 37723 48507 57010 333 55300 20000 91120 91214;
0149067500999992011011422004+46650+008617FM-12+228499999V0201901N002119999999N9999999N1+00201-01331999999ADDMA1999999077231MD1610081+9999ME1315079OA149900671REMSYN088AAXX  14224 06750 43/// /1904 10020 21133 37723 48507 56008 333 55300 20000 91113 91209;
0149067500999992011011423004+46650+008617FM-12+228499999V0203601N007719999999N9999999N1+00091-01391999999ADDMA1999999077211MD1610051+9999ME1315089OA149901131REMSYN088AAXX  14234 06750 43/// /3615 10009 21139 37721 48508 56005 333 55300 20000 91122 91215;
0149067500999992011011500004+46650+008617FM-12+228499999V0203501N008219999999N9999999N1-00301-00582999999ADDMA1999999077211MD1710021+9999ME1315209OA149901341REMSYN088AAXX  15004 06750 43/// /3516 11030 21058 37721 48520 57002 333 55300 20000 91126 91217;
0149067500999992011011501004+46650+008617FM-12+228499999V0200101N008719999999N9999999N1-00261-00711999999ADDMA1999999077291MD1310061+9999ME1315279OA149901961REMSYN088AAXX  15014 06750 43/// /0117 11026 21071 37729 48527 53006 333 55300 20000 91138 91222;
0149067500999992011011502004+46650+008617FM-12+228499999V0200101N005119999999N9999999N1-00261-00591999999ADDMA1999999077281MD1219999+9999ME1315269OA149901961REMSYN088AAXX  15024 06750 43/// /0110 11026 21059 37728 48526 52/// 333 55300 20000 91138 91222;
0112067500999992011011503004+46650+008617FM-12+228499999V0203501N011319999999N9999999N1-00301-00451999999ADDMA1999999077271ME1315269REMSYN076AAXX  15034 06750 43/// /3522 11030 21045 37727 48526 5//// 333 553// 20000;
0149067500999992011011504004+46650+008617FM-12+228499999V0209999C009819999999N9999999N1-00241-00591999999ADDMA1999999077331MD1310041+9999ME1315309OA149902161REMSYN088AAXX  15044 06750 43/// /0019 11024 21059 37733 48530 53004 333 55300 20000 91142 91229;
0149067500999992011011505004+46650+008617FM-12+228499999V0200101N008719999999N9999999N1-00291-00601999999ADDMA1999999077461MD1310181+9999ME1315459OA149902161REMSYN088AAXX  15054 06750 43/// /0117 11029 21060 37746 48545 53018 333 55300 20000 91142 91229;
0182067500999992011011506004+46650+008617FM-12+228499999V0200101N008719999999N9999999N1-00341-00651999999ADDGJ104209KA1999N-00411MA1999999077521MD1210251+9999ME1315539OA149902161REMSYN100AAXX  15064 06750 43/// /0117 11034 21065 37752 48553 52025 333 21041 55070 55300 20000 91142 91229;
0149067500999992011011507004+46650+008617FM-12+228499999V0203601N009819999999N9999999N1-00341-00701999999ADDMA1999999077551MD1210221+9999ME1315569OA149901901REMSYN088AAXX  15074 06750 43/// /3619 11034 21070 37755 48556 52022 333 55300 20000 91137 91224;
0149067500999992011011508004+46650+008617FM-12+228499999V0200101N006219999999N9999999N1-00341-01171999999ADDMA1999999077591MD1219999+9999ME1315609OA149901901REMSYN088AAXX  15084 06750 43/// /0112 11034 21117 37759 48560 52/// 333 55300 20036 91137 91224;
0149067500999992011011509004+46650+008617FM-12+228499999V0209999C003119999999N9999999N1-00201-01171999999ADDMA1999999077671MD1210151+9999ME1315659OA149902161REMSYN088AAXX  15094 06750 43/// /0006 11020 21117 37767 48565 52015 333 553// 20688 91142 91229;
0149067500999992011011510004+46650+008617FM-12+228499999V0200101N005719999999N9999999N1-00041-01501999999ADDMA1999999077681MD1210131+9999ME1315629OA149901031REMSYN088AAXX  15104 06750 43/// /0111 11004 21150 37768 48562 52013 333 553// 2//// 91120 91211;
0149067500999992011011511004+46650+008617FM-12+228499999V0203501N004119999999N9999999N1-00011-01311999999ADDMA1999999077641MD1010051+9999ME1315579OA149901181REMSYN088AAXX  15114 06750 43/// /3508 11001 21131 37764 48557 50005 333 553// 2//// 91123 91212;
0149067500999992011011512004+46650+008617FM-12+228499999V0203401N002619999999N9999999N1-00031-01301999999ADDMA1999999077621MD1710051+9999ME1315559OA149902161REMSYN088AAXX  15124 06750 43/// /3405 11003 21130 37762 48555 57005 333 553// 2//// 91142 91229;
0112067500999992011011513004+46650+008617FM-12+228499999V0203501N001019999999N9999999N1-00131-00701999999ADDMA1999999077631ME1315599REMSYN076AAXX  15134 06750 43/// /3502 11013 21070 37763 48559 5//// 333 553// 2////;
0096067500999992011011514004+46650+008617FM-12+228499999V0203601N003619999999N9999999N1+00271-01832999999ADDMA1999999077671ME1315529REMSYN060AAXX  15144 06750 43/// /3607 10027 21183 37767 48552 5////;
0096067500999992011011515004+46650+008617FM-12+228499999V0200201N004119999999N9999999N1+00181-01621999999ADDMA1999999077711ME1315599REMSYN060AAXX  15154 06750 43/// /0208 10018 21162 37771 48559 5////;
0096067500999992011011516004+46650+008617FM-12+228499999V0209999C005719999999N9999999N1+00241-01921999999ADDMA1999999077771ME1315639REMSYN060AAXX  15164 06750 43/// /0011 10024 21192 37777 48563 5////;
0112067500999992011011517004+46650+008617FM-12+228499999V0200101N004619999999N9999999N1+00221-02121999999ADDMA1999999077811ME1315689REMSYN076AAXX  15174 06750 43/// /0109 10022 21212 37781 48568 5//// 333 553// 20000;
0119067500999992011011518004+46650+008617FM-12+228499999V0200201N003619999999N9999999N1+00011-01641999999ADDKA1999M+00281MA1999999077871ME1315809REMSYN070AAXX  15184 06750 43/// /0207 10001 21164 37787 48580 5//// 333 10028;
0096067500999992011011519004+46650+008617FM-12+228499999V0201001N001019999999N9999999N1+00071-01671999999ADDMA1999999077911ME1315839REMSYN060AAXX  15194 06750 43/// /1002 10007 21167 37791 48583 5////;
0096067500999992011011520004+46650+008617FM-12+228499999V0200901N001519999999N9999999N1+00171-01731999999ADDMA1999999077951ME1315849REMSYN060AAXX  15204 06750 43/// /0903 10017 21173 37795 48584 5////;
0149067500999992011011521004+46650+008617FM-12+228499999V0201601N000519999999N9999999N1+00211-01601999999ADDMA1999999077981MD1310111+9999ME1315869OA149901181REMSYN088AAXX  15214 06750 43/// /1601 10021 21160 37798 48586 53011 333 55300 20000 91123 91211;
0149067500999992011011522004+46650+008617FM-12+228499999V0200701N001019999999N9999999N1+00301-01191999999ADDMA1999999077981MD1210071+9999ME1315849OA149900261REMSYN088AAXX  15224 06750 43/// /0702 10030 21119 37798 48584 52007 333 55300 20000 91105 91203;
0149067500999992011011523004+46650+008617FM-12+228499999V0203001N001519999999N9999999N1+00201-01191999999ADDMA1999999077961MD1010011+9999ME1315859OA149900261REMSYN088AAXX  15234 06750 43/// /3003 10020 21119 37796 48585 50001 333 55300 20000 91105 91204;
0149067500999992011011600004+46650+008617FM-12+228499999V0201501N001519999999N9999999N1+00291-01181999999ADDMA1999999077961MD1710021+9999ME1315829OA149901181REMSYN088AAXX  16004 06750 43/// /1503 10029 21118 37796 48582 57002 333 55300 20000 91123 91212;
0149067500999992011011601004+46650+008617FM-12+228499999V0202101N000519999999N9999999N1+00381-00781999999ADDMA1999999077951MD1710031+9999ME1315799OA149900211REMSYN088AAXX  16014 06750 43/// /2101 10038 21078 37795 48579 57003 333 55300 20000 91104 91203;
0149067500999992011011602004+46650+008617FM-12+228499999V0201001N003619999999N9999999N1+00381-00571999999ADDMA1999999077961MD1410001+9999ME1315809OA149900621REMSYN088AAXX  16024 06750 43/// /1007 10038 21057 37796 48580 54/// 333 55300 20000 91112 91207;
0096067500999992011011603004+46650+008617FM-12+228499999V0200601N005719999999N9999999N1+00401-00531999999ADDMA1999999077951ME1315789REMSYN060AAXX  16034 06750 43/// /0611 10040 21053 37795 48578 5////;
0149067500999992011011604004+46650+008617FM-12+228499999V0200701N003119999999N9999999N1+00421-00571999999ADDMA1999999077961MD1510011+9999ME1315799OA149900771REMSYN088AAXX  16044 06750 43/// /0706 10042 21057 37796 48579 55001 333 55300 20000 91115 91213;
0149067500999992011011605004+46650+008617FM-12+228499999V0209999C000019999999N9999999N1+00451-00621999999ADDMA1999999077981MD1310021+9999ME1315809OA149900621REMSYN088AAXX  16054 06750 43/// /0000 10045 21062 37798 48580 53002 333 55300 20000 91112 91210;
0182067500999992011011606004+46650+008617FM-12+228499999V0201201N001519999999N9999999N1+00471-00641999999ADDGJ104689KA1999N+00011MA1999999078011MD1210061+9999ME1315839OA149900771REMSYN100AAXX  16064 06750 43/// /1203 10047 21064 37801 48583 52006 333 20001 55078 55300 20000 91115 91213;
0149067500999992011011607004+46650+008617FM-12+228499999V0201301N003119999999N9999999N1+00351-00661999999ADDMA1999999078011MD1210051+9999ME1315869OA149900411REMSYN088AAXX  16074 06750 43/// /1306 10035 21066 37801 48586 52005 333 55300 20000 91108 91206;
0149067500999992011011608004+46650+008617FM-12+228499999V0201301N004119999999N9999999N1+00311-00701999999ADDMA1999999078041MD1219999+9999ME1315909OA149900461REMSYN088AAXX  16084 06750 43/// /1308 10031 21070 37804 48590 52/// 333 55300 20050 91109 91208;
0149067500999992011011609004+46650+008617FM-12+228499999V0201201N005119999999N9999999N1+00431-00591999999ADDMA1999999078051MD1210041+9999ME1315889OA149900671REMSYN088AAXX  16094 06750 43/// /1210 10043 21059 37805 48588 52004 333 553// 20691 91113 91210;
0149067500999992011011610004+46650+008617FM-12+228499999V0201201N006719999999N9999999N1+00571-00601999999ADDMA1999999078061MD1210051+9999ME1315859OA149900981REMSYN088AAXX  16104 06750 43/// /1213 10057 21060 37806 48585 52005 333 553// 2//// 91119 91214;
0149067500999992011011611004+46650+008617FM-12+228499999V0201401N007719999999N9999999N1+00541-00571999999ADDMA1999999078051MD1010011+9999ME1315859OA149901181REMSYN088AAXX  16114 06750 43/// /1415 10054 21057 37805 48585 50001 333 553// 2//// 91123 91215;
0149067500999992011011612004+46650+008617FM-12+228499999V0201501N008219999999N9999999N1+00511-00641999999ADDMA1999999078041MD1810011+9999ME1315859OA149901181REMSYN088AAXX  16124 06750 43/// /1516 10051 21064 37804 48585 58001 333 553// 2//// 91123 91218;
0149067500999992011011613004+46650+008617FM-12+228499999V0201501N008719999999N9999999N1+00511-00771999999ADDMA1999999078021MD1710041+9999ME1315839OA149901341REMSYN088AAXX  16134 06750 43/// /1517 10051 21077 37802 48583 57004 333 553// 2//// 91126 91218;
0149067500999992011011614004+46650+008617FM-12+228499999V0201501N009819999999N9999999N1+00431-00651999999ADDMA1999999078021MD1719999+9999ME1315859OA149901341REMSYN088AAXX  16144 06750 43/// /1519 10043 21065 37802 48585 57/// 333 553// 2//// 91126 91219;
0149067500999992011011615004+46650+008617FM-12+228499999V0201501N008219999999N9999999N1+00421-00851999999ADDMA1999999078021MD1510021+9999ME1315859OA149901341REMSYN088AAXX  16154 06750 43/// /1516 10042 21085 37802 48585 55002 333 553// 20774 91126 91219;
0149067500999992011011616004+46650+008617FM-12+228499999V0201301N007219999999N9999999N1+00331-00791999999ADDMA1999999078011MD1010011+9999ME1315869OA149901241REMSYN088AAXX  16164 06750 43/// /1314 10033 21079 37801 48586 50001 333 55309 20241 91124 91217;
0149067500999992011011617004+46650+008617FM-12+228499999V0201401N009819999999N9999999N1+00321-00911999999ADDMA1999999078021MD1510001+9999ME1315889OA149901241REMSYN088AAXX  16174 06750 43/// /1419 10032 21091 37802 48588 55000 333 55300 20000 91124 91219;
0168067500999992011011618004+46650+008617FM-12+228499999V0201501N010819999999N9999999N1+00291-00901999999ADDKA1120M+00591MA1999999078021MD1010001+9999ME1315899OA149901441REMSYN094AAXX  16184 06750 43/// /1521 10029 21090 37802 48589 50000 333 10059 55300 20000 91128 91221;
0149067500999992011011619004+46650+008617FM-12+228499999V0201501N010819999999N9999999N1+00271-00921999999ADDMA1999999078021MD1210011+9999ME1315899OA149901491REMSYN088AAXX  16194 06750 43/// /1521 10027 21092 37802 48589 52001 333 55300 20000 91129 91223;
0149067500999992011011620004+46650+008617FM-12+228499999V0201501N010819999999N9999999N1+00231-00921999999ADDMA1999999078011MD1810011+9999ME1315899OA149901541REMSYN088AAXX  16204 06750 43/// /1521 10023 21092 37801 48589 58001 333 55300 20000 91130 91223;
0149067500999992011011621004+46650+008617FM-12+228499999V0201601N006219999999N9999999N1+00171-00991999999ADDMA1999999078031MD1510011+9999ME1315939OA149901541REMSYN088AAXX  16214 06750 43/// /1612 10017 21099 37803 48593 55001 333 55300 20000 91130 91223;
0149067500999992011011622004+46650+008617FM-12+228499999V0201501N007219999999N9999999N1+00191-01061999999ADDMA1999999078021MD1010001+9999ME1315919OA149901441REMSYN088AAXX  16224 06750 43/// /1514 10019 21106 37802 48591 50000 333 55300 20000 91128 91222;
0149067500999992011011623004+46650+008617FM-12+228499999V0201701N006719999999N9999999N1+00111-01081999999ADDMA1999999078001MD1810011+9999ME1315919OA149901081REMSYN088AAXX  16234 06750 43/// /1713 10011 21108 37800 48591 58001 333 55300 20000 91121 91215;
0149067500999992011011700004+46650+008617FM-12+228499999V0201501N007219999999N9999999N1+00191-01091999999ADDMA1999999077971MD1810061+9999ME1315869OA149901541REMSYN088AAXX  17004 06750 43/// /1514 10019 21109 37797 48586 58006 333 55300 20000 91130 91223;
0149067500999992011011701004+46650+008617FM-12+228499999V0201501N005719999999N9999999N1+00171-01121999999ADDMA1999999077951MD1810071+9999ME1315849OA149900981REMSYN088AAXX  17014 06750 43/// /1511 10017 21112 37795 48584 58007 333 55300 20000 91119 91215;
0149067500999992011011702004+46650+008617FM-12+228499999V0201501N006219999999N9999999N1+00111-01231999999ADDMA1999999077931MD1619999+9999ME1315849OA149900931REMSYN088AAXX  17024 06750 43/// /1512 10011 21123 37793 48584 56/// 333 55300 20000 91118 91212;
0112067500999992011011703004+46650+008617FM-12+228499999V0201401N005719999999N9999999N1+00161-01481999999ADDMA1999999077901ME1315799REMSYN076AAXX  17034 06750 43/// /1411 10016 21148 37790 48579 5//// 333 553// 20000;
0149067500999992011011704004+46650+008617FM-12+228499999V0201501N005719999999N9999999N1+00051-01561999999ADDMA1999999077881MD1610071+9999ME1315809OA149900881REMSYN088AAXX  17044 06750 43/// /1511 10005 21156 37788 48580 56007 333 55300 20000 91117 91213;
0149067500999992011011705004+46650+008617FM-12+228499999V0201401N006719999999N9999999N1+00111-01751999999ADDMA1999999077831MD1810101+9999ME1315739OA149900931REMSYN088AAXX  17054 06750 43/// /1413 10011 21175 37783 48573 58010 333 55300 20000 91118 91214;
0182067500999992011011706004+46650+008617FM-12+228499999V0201501N006719999999N9999999N1+00041-01751999999ADDGJ104749KA1999N-00061MA1999999077811MD1610091+9999ME1315739OA149901541REMSYN100AAXX  17064 06750 43/// /1513 10004 21175 37781 48573 56009 333 21006 55079 55300 20000 91130 91223;
0149067500999992011011707004+46650+008617FM-12+228499999V0201501N005719999999N9999999N1+00051-01821999999ADDMA1999999077811MD1610071+9999ME1315739OA149900881REMSYN088AAXX  17074 06750 43/// /1511 10005 21182 37781 48573 56007 333 55300 20000 91117 91213;
0096067500999992011011708004+46650+008617FM-12+228499999V0201701N005719999999N9999999N1+00021-01961999999ADDMA1999999077811ME1315749REMSYN060AAXX  17084 06750 43/// /1711 10002 21196 37781 48574 5////;
0096067500999992011011709004+46650+008617FM-12+228499999V0201501N006719999999N9999999N1+00171-01951999999ADDMA1999999077801ME1315699REMSYN060AAXX  17094 06750 43/// /1513 10017 21195 37780 48569 5////;
0149067500999992011011710004+46650+008617FM-12+228499999V0201501N006719999999N9999999N1+00221-01661999999ADDMA1999999077801MD1410001+9999ME1315679OA149900981REMSYN088AAXX  17104 06750 43/// /1513 10022 21166 37780 48567 54001 333 553// 2//// 91119 91216;
0149067500999992011011711004+46650+008617FM-12+228499999V0201601N006719999999N9999999N1+00231-01451999999ADDMA1999999077771MD1710041+9999ME1315649OA149901031REMSYN088AAXX  17114 06750 43/// /1613 10023 21145 37777 48564 57004 333 553// 2//// 91120 91216;
0149067500999992011011712004+46650+008617FM-12+228499999V0201501N005719999999N9999999N1+00221-01411999999ADDMA1999999077741MD1810061+9999ME1315619OA149901031REMSYN088AAXX  17124 06750 43/// /1511 10022 21141 37774 48561 58006 333 553// 2//// 91120 91216;
0149067500999992011011713004+46650+008617FM-12+228499999V0201601N002619999999N9999999N1+00121-01291999999ADDMA1999999077721MD1610081+9999ME1315619OA149900881REMSYN088AAXX  17134 06750 43/// /1605 10012 21129 37772 48561 56008 333 553// 2//// 91117 91214;
0096067500999992011011714004+46650+008617FM-12+228499999V0201801N001519999999N9999999N1+00111-01191999999ADDMA1999999077711ME1315619REMSYN060AAXX  17144 06750 43/// /1803 10011 21119 37771 48561 5////;
0096067500999992011011715004+46650+008617FM-12+228499999V0203001N003119999999N9999999N1+00141-01191999999ADDMA1999999077741ME1315639REMSYN060AAXX  17154 06750 43/// /3006 10014 21119 37774 48563 5////;
0149067500999992011011716004+46650+008617FM-12+228499999V0203601N001519999999N9999999N1-00031-01141999999ADDMA1999999077741MD1210021+9999ME1315689OA149900571REMSYN088AAXX  17164 06750 43/// /3603 11003 21114 37774 48568 52002 333 55308 20245 91111 91207;
0149067500999992011011717004+46650+008617FM-12+228499999V0203601N002119999999N9999999N1-00021-01091999999ADDMA1999999077741MD1210031+9999ME1315679OA149900571REMSYN088AAXX  17174 06750 43/// /3604 11002 21109 37774 48567 52003 333 55300 20000 91111 91207;
0168067500999992011011718004+46650+008617FM-12+228499999V0200101N003119999999N9999999N1-00111-01141999999ADDKA1120M+00231MA1999999077761MD1210021+9999ME1315729OA149901031REMSYN094AAXX  17184 06750 43/// /0106 11011 21114 37776 48572 52002 333 10023 55300 20000 91120 91216;
0149067500999992011011719004+46650+008617FM-12+228499999V0200101N001519999999N9999999N1-00091-01181999999ADDMA1999999077761MD1210021+9999ME1315719OA149900621REMSYN088AAXX  17194 06750 43/// /0103 11009 21118 37776 48571 52002 333 55300 20000 91112 91207;
0149067500999992011011720004+46650+008617FM-12+228499999V0200201N001519999999N9999999N1-00081-01111999999ADDMA1999999077751MD1010011+9999ME1315709OA149900511REMSYN088AAXX  17204 06750 43/// /0203 11008 21111 37775 48570 50001 333 55300 20000 91110 91206;
0149067500999992011011721004+46650+008617FM-12+228499999V0203601N003119999999N9999999N1-00211-01021999999ADDMA1999999077741MD1710021+9999ME1315729OA149900621REMSYN088AAXX  17214 06750 43/// /3606 11021 21102 37774 48572 57002 333 55300 20000 91112 91207;
0149067500999992011011722004+46650+008617FM-12+228499999V0200101N005119999999N9999999N1-00081-01201999999ADDMA1999999077741MD1710021+9999ME1315699OA149900821REMSYN088AAXX  17224 06750 43/// /0110 11008 21120 37774 48569 57002 333 55300 20000 91116 91210;
0149067500999992011011723004+46650+008617FM-12+228499999V0200201N007719999999N9999999N1-00101-01131999999ADDMA1999999077741MD1710011+9999ME1315699OA149901031REMSYN088AAXX  17234 06750 43/// /0215 11010 21113 37774 48569 57001 333 55300 20000 91120 91215;
0149067500999992011011800004+46650+008617FM-12+228499999V0200101N005719999999N9999999N1-00061-01011999999ADDMA1999999077711MD1710031+9999ME1315659OA149901081REMSYN088AAXX  18004 06750 43/// /0111 11006 21101 37771 48565 57003 333 55300 20000 91121 91215;
0149067500999992011011801004+46650+008617FM-12+228499999V0200201N002119999999N9999999N1-00081-00951999999ADDMA1999999077701MD1719999+9999ME1315659OA149901081REMSYN088AAXX  18014 06750 43/// /0204 11008 21095 37770 48565 57/// 333 55300 20000 91121 91213;
0096067500999992011011802004+46650+008617FM-12+228499999V0200301N000519999999N9999999N1-00171-00971999999ADDMA1999999077691ME1315669REMSYN060AAXX  18024 06750 43/// /0301 11017 21097 37769 48566 5////;
0096067500999992011011803004+46650+008617FM-12+228499999V0209999C002119999999N9999999N1-00221-00881999999ADDMA1999999077681ME1315669REMSYN060AAXX  18034 06750 43/// /0004 11022 21088 37768 48566 5////;
0112067500999992011011804004+46650+008617FM-12+228499999V0200401N001019999999N9999999N1-00351-00951999999ADDMA1999999077641ME1315669REMSYN076AAXX  18044 06750 43/// /0402 11035 21095 37764 48566 5//// 333 553// 20000;
0149067500999992011011805004+46650+008617FM-12+228499999V0200601N005719999999N9999999N1-00231-00971999999ADDMA1999999077591MD1810101+9999ME1315579OA149900721REMSYN088AAXX  18054 06750 43/// /0611 11023 21097 37759 48557 58010 333 55300 20000 91114 91211;
0182067500999992011011806004+46650+008617FM-12+228499999V0200601N006219999999N9999999N1-00231-00991999999ADDGJ104749KA1999N-00351MA1999999077581MD1710101+9999ME1315569OA149901081REMSYN100AAXX  18064 06750 43/// /0612 11023 21099 37758 48556 57010 333 21035 55079 55300 20000 91121 91215;
0149067500999992011011807004+46650+008617FM-12+228499999V0200401N003619999999N9999999N1-00201-00971999999ADDMA1999999077561MD1710081+9999ME1315539OA149900771REMSYN088AAXX  18074 06750 43/// /0407 11020 21097 37756 48553 57008 333 55300 20000 91115 91212;
0096067500999992011011808004+46650+008617FM-12+228499999V0200101N003619999999N9999999N1-00281-00951999999ADDMA1999999077591ME1315599REMSYN060AAXX  18084 06750 43/// /0107 11028 21095 37759 48559 5////;
0096067500999992011011809004+46650+008617FM-12+228499999V0203301N002119999999N9999999N1-00301-00881999999ADDMA1999999077621ME1315629REMSYN060AAXX  18094 06750 43/// /3304 11030 21088 37762 48562 5////;
0149067500999992011011810004+46650+008617FM-12+228499999V0209999C000019999999N9999999N1-00191-00911999999ADDMA1999999077601MD1010041+9999ME1315579OA149900411REMSYN088AAXX  18104 06750 43/// /0000 11019 21091 37760 48557 50004 333 55309 2//// 91108 91205;
0149067500999992011011811004+46650+008617FM-12+228499999V0200901N003619999999N9999999N1-00171-00781999999ADDMA1999999077561MD1810031+9999ME1315539OA149900411REMSYN088AAXX  18114 06750 43/// /0907 11017 21078 37756 48553 58003 333 553// 2//// 91108 91207;
0149067500999992011011812004+46650+008617FM-12+228499999V0200901N004619999999N9999999N1-00061-00761999999ADDMA1999999077511MD1819999+9999ME1315449OA149900931REMSYN088AAXX  18124 06750 43/// /0909 11006 21076 37751 48544 58/// 333 553// 2//// 91118 91212;
