0137067500999992010010100004+46650+008617FM-12+228499999V0201801N002119999999N9999999N1-00531-00921999999ADDMA1999999074841MD1810131+9999ME1312769OA149900721REMSYN076AAXX  01004 06750 33/// /1804 11053 21092 37484 48276 58013 333 91114 91210;
0137067500999992010010101004+46650+008617FM-12+228499999V0201401N001519999999N9999999N1-00531-00921999999ADDMA1999999074791MD1810151+9999ME1312709OA149900411REMSYN076AAXX  01014 06750 33/// /1403 11053 21092 37479 48270 58015 333 91108 91206;
0137067500999992010010102004+46650+008617FM-12+228499999V0200601N003619999999N9999999N1-00471-00991999999ADDMA1999999074761MD1619999+9999ME1312659OA149900461REMSYN076AAXX  01024 06750 33/// /0607 11047 21099 37476 48265 56/// 333 91109 91207;
0096067500999992010010103004+46650+008617FM-12+228499999V0200801N004619999999N9999999N1-00541-00881999999ADDMA1999999074721ME1312639REMSYN060AAXX  01034 06750 43/// /0809 11054 21088 37472 48263 5////;
0096067500999992010010104004+46650+008617FM-12+228499999V0200701N004119999999N9999999N1-00481-00801999999ADDMA1999999074681ME1312569REMSYN060AAXX  01044 06750 33/// /0708 11048 21080 37468 48256 5////;
0137067500999992010010105004+46650+008617FM-12+228499999V0200601N004619999999N9999999N1-00491-00751999999ADDMA1999999074651MD1610111+9999ME1312549OA149900571REMSYN076AAXX  01054 06750 33/// /0609 11049 21075 37465 48254 56011 333 91111 91209;
0197067500999992010010106004+46650+008617FM-12+228499999V0200101N001519999999N9999999N1-00501-00961999999ADDAA124003091AL19900391GJ100429KA1999N-00571MA1999999074621MD1610101+9999ME1312519OA149900621REMSYN094AAXX  01064 06750 33/// /0103 11050 21096 37462 48251 56010 333 21057 55007 70030 91112 91210;
0137067500999992010010107004+46650+008617FM-12+228499999V0200301N002619999999N9999999N1-00461-00961999999ADDMA1999999074611MD1710071+9999ME1312489OA149900721REMSYN076AAXX  01074 06750 33/// /0305 11046 21096 37461 48248 57007 333 91114 91208;
0156067500999992010010108004+46650+008617FM-12+228499999V0200601N001019999999N9999999N1-00551-00941999999ADDMA1999999074651MD1410001+9999ME1312569OA149900721REMSYN076AAXX  01084 06750 33/// /0602 11055 21094 37465 48256 53000 333 91114 91208;EQDQ01+000032APCTEN
0137067500999992010010109004+46650+008617FM-12+228499999V0201301N000519999999N9999999N1-00491-00931999999ADDMA1999999074691MD1210071+9999ME1312589OA149900721REMSYN076AAXX  01094 06750 33/// /1301 11049 21093 37469 48258 52007 333 91114 91209;
0137067500999992010010110004+46650+008617FM-12+228499999V0203301N001019999999N9999999N1-00421-00951999999ADDMA1999999074711MD1110101+9999ME1312579OA149900261REMSYN076AAXX  01104 06750 33/// /3302 11042 21095 37471 48257 51010 333 91105 91203;
0137067500999992010010111004+46650+008617FM-12+228499999V0203301N001519999999N9999999N1-00431-00911999999ADDMA1999999074691MD1010041+9999ME1312569OA149900211REMSYN076AAXX  01114 06750 33/// /3303 11043 21091 37469 48256 50004 333 91104 91203;
0137067500999992010010112004+46650+008617FM-12+228499999V0203501N004619999999N9999999N1-00481-00921999999ADDMA1999999074691MD1010001+9999ME1312589OA149900721REMSYN076AAXX  01124 06750 33/// /3509 11048 21092 37469 48258 50000 333 91114 91210;
0137067500999992010010113004+46650+008617FM-12+228499999V0200301N003619999999N9999999N1-00491-00911999999ADDMA1999999074701MD1410001+9999ME1312599OA149900721REMSYN076AAXX  01134 06750 33/// /0307 11049 21091 37470 48259 54001 333 91114 91209;
0137067500999992010010114004+46650+008617FM-12+228499999V0209999C002619999999N9999999N1-00531-00721999999ADDMA1999999074751MD1219999+9999ME1312669OA149900721REMSYN076AAXX  01144 06750 33/// /0005 11053 21072 37475 48266 52/// 333 91114 91207;
0137067500999992010010115004+46650+008617FM-12+228499999V0203601N001519999999N9999999N1-00681-00761999999ADDMA1999999074821MD1210131+9999ME1312799OA149900721REMSYN076AAXX  01154 06750 33/// /3603 11068 21076 37482 48279 52013 333 91114 91209;
0137067500999992010010116004+46650+008617FM-12+228499999V0200301N001519999999N9999999N1-00661-00661999999ADDMA1999999074871MD1110171+9999ME1312849OA149900721REMSYN076AAXX  01164 06750 33/// /0303 11066 21066 37487 48284 51017 333 91114 91209;
0154067500999992010010117004+46650+008617FM-12+228499999V0200101N003119999999N9999999N1-00591-00591999999ADDAA101000021MA1999999074931MD1110181+9999ME1312889OA149900721REMSYN082AAXX  01174 06750 23/// /0106 11059 21059 37493 48288 51018 333 69915 91114 91206;
0179067500999992010010118004+46650+008617FM-12+228499999V0203601N004119999999N9999999N1-00681-00701999999ADDAA112000891KA1120M-00401MA1999999074991MD1310171+9999ME1312989OA149900821REMSYN094AAXX  01184 06750 03/// /3608 11068 21070 37499 48298 53017 69972 333 11040 69965 91116 91209;
0154067500999992010010119004+46650+008617FM-12+228499999V0209999C009319999999N9999999N1-00631-00781999999ADDAA101000591MA1999999075091MD1310221+9999ME1313069OA149901601REMSYN082AAXX  01194 06750 23/// /0018 11063 21078 37509 48306 53022 333 69965 91131 91218;
0154067500999992010010120004+46650+008617FM-12+228499999V0209999C008219999999N9999999N1-00701-00861999999ADDAA101000021MA1999999075191MD1310261+9999ME1313209OA149901601REMSYN082AAXX  01204 06750 23/// /0016 11070 21086 37519 48320 53026 333 69925 91131 91219;
0154067500999992010010121004+46650+008617FM-12+228499999V0200201N005119999999N9999999N1-00721-00871999999ADDAA101000021MA1999999075241MD1110251+9999ME1313269OA149901601REMSYN082AAXX  01214 06750 23/// /0210 11072 21087 37524 48326 51025 333 69925 91131 91219;
0154067500999992010010122004+46650+008617FM-12+228499999V0200101N004619999999N9999999N1-00811-00851999999ADDAA101000591MA1999999075291MD1210201+9999ME1313349OA149901441REMSYN082AAXX  01224 06750 23/// /0109 11081 21085 37529 48334 52020 333 69955 91128 91218;
0154067500999992010010123004+46650+008617FM-12+228499999V0200101N005719999999N9999999N1-00861-00961999999ADDAA101000021MA1999999075321MD1210131+9999ME1313399OA149901341REMSYN082AAXX  01234 06750 23/// /0111 11086 21096 37532 48339 52013 333 69915 91126 91214;
0160067500999992010010200004+46650+008617FM-12+228499999V0200201N004619999999N9999999N1-00861-01081999999ADDAA106002091MA1999999075341MD1210101+9999ME1313419OA149901601REMSYN088AAXX  02004 06750 03/// /0209 11086 21108 37534 48341 52010 60021 333 69915 91131 91219;
0154067500999992010010201004+46650+008617FM-12+228499999V0200101N004619999999N9999999N1-00911-01121999999ADDAA101000021MA1999999075361MD1210071+9999ME1313459OA149901601REMSYN082AAXX  02014 06750 23/// /0109 11091 21112 37536 48345 52007 333 69925 91131 91213;
0117067500999992010010202004+46650+008617FM-12+228499999V0200101N004119999999N9999999N1-01031-01171999999ADDAA101000591MA1999999075431ME1313579REMSYN070AAXX  02024 06750 23/// /0108 11103 21117 37543 48357 5//// 333 69955;
0154067500999992010010203004+46650+008617FM-12+228499999V0209999C005719999999N9999999N1-01121-01311999999ADDAA101000021MA1999999075481MD1310141+9999ME1313659OA149901651REMSYN082AAXX  02034 06750 23/// /0011 11112 21131 37548 48365 53014 333 69925 91132 91215;
0154067500999992010010204004+46650+008617FM-12+228499999V0209999C003619999999N9999999N1-01241-01541999999ADDAA101000021MA1999999075531MD1210171+9999ME1313759OA149901651REMSYN082AAXX  02044 06750 23/// /0007 11124 21154 37553 48375 52017 333 69915 91132 91215;
0154067500999992010010205004+46650+008617FM-12+228499999V0200301N005119999999N9999999N1-01281-01531999999ADDAA101000021MA1999999075541MD1210111+9999ME1313779OA149901341REMSYN082AAXX  02054 06750 23/// /0310 11128 21153 37554 48377 52011 333 69925 91126 91212;
0220067500999992010010206004+46650+008617FM-12+228499999V0203601N008219999999N9999999N1-01311-01841999999ADDAA112003091AA224003891AL14200391GJ101389KA1999N-01321MA1999999075571MD1210091+9999ME1313819OA149901651REMSYN106AAXX  02064 06750 03/// /3616 11131 21184 37557 48381 52009 60032 333 21132 55023 69915 70037 91132 91219;
0154067500999992010010207004+46650+008617FM-12+228499999V0200101N007719999999N9999999N1-01381-01921999999ADDAA101000021MA1999999075611MD1210081+9999ME1313889OA149901701REMSYN082AAXX  02074 06750 23/// /0115 11138 21192 37561 48388 52008 333 69915 91133 91218;
0096067500999992010010208004+46650+008617FM-12+228499999V0200301N006219999999N9999999N1-01461-01921999999ADDMA1999999075661ME1313969REMSYN060AAXX  02084 06750 33/// /0312 11146 21192 37566 48396 5////;
0154067500999992010010209004+46650+008617FM-12+228499999V0200401N006219999999N9999999N1-01461-01961999999ADDAA101000021MA1999999075731MD1210161+9999ME1314039OA149901701REMSYN082AAXX  02094 06750 23/// /0412 11146 21196 37573 48403 52016 333 69925 91133 91218;
0154067500999992010010210004+46650+008617FM-12+228499999V0200201N007719999999N9999999N1-01501-02091999999ADDAA101000021MA1999999075791MD1310181+9999ME1314119OA149901701REMSYN082AAXX  02104 06750 23/// /0215 11150 21209 37579 48411 53018 333 69915 91133 91216;
0154067500999992010010211004+46650+008617FM-12+228499999V0200301N007719999999N9999999N1-01511-02121999999ADDAA101000021MA1999999075831MD1110171+9999ME1314159OA149901701REMSYN082AAXX  02114 06750 23/// /0315 11151 21212 37583 48415 51017 333 69915 91133 91216;
0160067500999992010010212004+46650+008617FM-12+228499999V0200101N009819999999N9999999N1-01541-02111999999ADDAA106000591MA1999999075871MD1210141+9999ME1314209OA149901851REMSYN088AAXX  02124 06750 03/// /0119 11154 21211 37587 48420 52014 69961 333 69915 91136 91219;
0137067500999992010010213004+46650+008617FM-12+228499999V0200201N008719999999N9999999N1-01571-02131999999ADDMA1999999075901MD1210111+9999ME1314249OA149902011REMSYN076AAXX  02134 06750 33/// /0217 11157 21213 37590 48424 52011 333 91139 91221;
0137067500999992010010214004+46650+008617FM-12+228499999V0200201N007219999999N9999999N1-01631-02331999999ADDMA1999999076001MD1219999+9999ME1314369OA149902061REMSYN076AAXX  02144 06750 33/// /0214 11163 21233 37600 48436 52/// 333 91140 91222;
0137067500999992010010215004+46650+008617FM-12+228499999V0200101N008219999999N9999999N1-01671-02591999999ADDMA1999999076071MD1210201+9999ME1314459OA149902061REMSYN076AAXX  02154 06750 33/// /0116 11167 21259 37607 48445 52020 333 91140 91222;
0137067500999992010010216004+46650+008617FM-12+228499999V0200201N006719999999N9999999N1-01711-02541999999ADDMA1999999076121MD1110221+9999ME1314519OA149902061REMSYN076AAXX  02164 06750 33/// /0213 11171 21254 37612 48451 51022 333 91140 91221;
0137067500999992010010217004+46650+008617FM-12+228499999V0200301N008719999999N9999999N1-01681-02401999999ADDMA1999999076121MD1210121+9999ME1314509OA149902111REMSYN076AAXX  02174 06750 33/// /0317 11168 21240 37612 48450 52012 333 91141 91221;
0179067500999992010010218004+46650+008617FM-12+228499999V0200401N003619999999N9999999N1-01681-02701999999ADDAA112000591KA1120M-01311MA1999999076211MD1210141+9999ME1314599OA149902111REMSYN094AAXX  02184 06750 03/// /0407 11168 21270 37621 48459 52014 69962 333 11131 60005 91141 91222;
0137067500999992010010219004+46650+008617FM-12+228499999V0200501N003119999999N9999999N1-01701-02471999999ADDMA1999999076291MD1210171+9999ME1314689OA149901801REMSYN076AAXX  02194 06750 33/// /0506 11170 21247 37629 48468 52017 333 91135 91217;
0137067500999992010010220004+46650+008617FM-12+228499999V0200201N005719999999N9999999N1-01721-02761999999ADDMA1999999076291MD1210171+9999ME1314699OA149901181REMSYN076AAXX  02204 06750 33/// /0211 11172 21276 37629 48469 52017 333 91123 91211;
0137067500999992010010221004+46650+008617FM-12+228499999V0200101N006219999999N9999999N1-01691-02371999999ADDMA1999999076311MD1210101+9999ME1314709OA149902111REMSYN076AAXX  02214 06750 33/// /0112 11169 21237 37631 48470 52010 333 91141 91221;
0137067500999992010010222004+46650+008617FM-12+228499999V0200101N005119999999N9999999N1-01701-02381999999ADDMA1999999076321MD1210031+9999ME1314719OA149901181REMSYN076AAXX  02224 06750 33/// /0110 11170 21238 37632 48471 52003 333 91123 91214;
0137067500999992010010223004+46650+008617FM-12+228499999V0209999C006219999999N9999999N1-01641-03141999999ADDMA1999999076341MD1210051+9999ME1314719OA149901181REMSYN076AAXX  02234 06750 33/// /0012 11164 21314 37634 48471 52005 333 91123 91214;
0137067500999992010010300004+46650+008617FM-12+228499999V0203501N005719999999N9999999N1-01651-02931999999ADDMA1999999076361MD1210051+9999ME1314739OA149902111REMSYN076AAXX  03004 06750 33/// /3511 11165 21293 37636 48473 52005 333 91141 91222;
0137067500999992010010301004+46650+008617FM-12+228499999V0203501N007719999999N9999999N1-01621-02641999999ADDMA1999999076361MD1210041+9999ME1314739OA149901291REMSYN076AAXX  03014 06750 33/// /3515 11162 21264 37636 48473 52004 333 91125 91216;
0096067500999992010010302004+46650+008617FM-12+228499999V0200101N006219999999N9999999N1-01541-02441999999ADDMA1999999076391ME1314739REMSYN060AAXX  03024 06750 33/// /0112 11154 21244 37639 48473 5////;
0096067500999992010010303004+46650+008617FM-12+228499999V0203501N007219999999N9999999N1-01521-02451999999ADDMA1999999076411ME1314749REMSYN060AAXX  03034 06750 33/// /3514 11152 21245 37641 48474 5////;
0137067500999992010010304004+46650+008617FM-12+228499999V0203401N004619999999N9999999N1-01481-02521999999ADDMA1999999076351MD1810011+9999ME1314679OA149901181REMSYN076AAXX  03044 06750 33/// /3409 11148 21252 37635 48467 58001 333 91123 91215;
0137067500999992010010305004+46650+008617FM-12+228499999V0200101N003619999999N9999999N1-01371-02521999999ADDMA1999999076381MD1719999+9999ME1314679OA149900821REMSYN076AAXX  03054 06750 33/// /0107 11137 21252 37638 48467 57/// 333 91116 91211;
0197067500999992010010306004+46650+008617FM-12+228499999V0203501N003119999999N9999999N1-01391-02491999999ADDAA124000591AL13600091GJ100009KA1999N-01771MA1999999076351MD1710061+9999ME1314649OA149901441REMSYN094AAXX  03064 06750 33/// /3506 11139 21249 37635 48464 57006 333 21177 55000 70006 91128 91216;
0137067500999992010010307004+46650+008617FM-12+228499999V0201001N001019999999N9999999N1-01491-02541999999ADDMA1999999076381MD1210031+9999ME1314709OA149900671REMSYN076AAXX  03074 06750 33/// /1002 11149 21254 37638 48470 52003 333 91113 91209;
0137067500999992010010308004+46650+008617FM-12+228499999V0201801N001019999999N9999999N1-01351-02611999999ADDMA1999999076431MD1319999+9999ME1314719OA149900511REMSYN076AAXX  03084 06750 33/// /1802 11135 21261 37643 48471 53/// 333 91110 91205;
0137067500999992010010309004+46650+008617FM-12+228499999V0202001N001519999999N9999999N1-01301-02451999999ADDMA1999999076461MD1210111+9999ME1314739OA149900821REMSYN076AAXX  03094 06750 33/// /2003 11130 21245 37646 48473 52011 333 91116 91211;
0137067500999992010010310004+46650+008617FM-12+228499999V0201201N001019999999N9999999N1-01111-02681999999ADDMA1999999076491MD1210111+9999ME1314709OA149900461REMSYN076AAXX  03104 06750 33/// /1202 11111 21268 37649 48470 52011 333 91109 91206;
0137067500999992010010311004+46650+008617FM-12+228499999V0203401N000519999999N9999999N1-01081-02861999999ADDMA1999999076391MD1810041+9999ME1314589OA149900411REMSYN076AAXX  03114 06750 33/// /3401 11108 21286 37639 48458 58004 333 91108 91205;
0137067500999992010010312004+46650+008617FM-12+228499999V0201601N002119999999N9999999N1-01121-02511999999ADDMA1999999076381MD1710081+9999ME1314599OA149901441REMSYN076AAXX  03124 06750 33/// /1604 11112 21251 37638 48459 57008 333 91128 91216;
0137067500999992010010313004+46650+008617FM-12+228499999V0201701N002119999999N9999999N1-01141-03041999999ADDMA1999999076361MD1610131+9999ME1314579OA149900411REMSYN076AAXX  03134 06750 33/// /1704 11114 21304 37636 48457 56013 333 91108 91206;
0137067500999992010010314004+46650+008617FM-12+228499999V0201901N002619999999N9999999N1-01161-02431999999ADDMA1999999076371MD1710021+9999ME1314599OA149900411REMSYN076AAXX  03144 06750 33/// /1905 11116 21243 37637 48459 57002 333 91108 91206;
0137067500999992010010315004+46650+008617FM-12+228499999V0201701N002119999999N9999999N1-01191-02571999999ADDMA1999999076371MD1510011+9999ME1314609OA149900411REMSYN076AAXX  03154 06750 33/// /1704 11119 21257 37637 48460 55001 333 91108 91206;
0137067500999992010010316004+46650+008617FM-12+228499999V0201701N001519999999N9999999N1-01191-02601999999ADDMA1999999076381MD1210021+9999ME1314619OA149900411REMSYN076AAXX  03164 06750 33/// /1703 11119 21260 37638 48461 52002 333 91108 91206;
0137067500999992010010317004+46650+008617FM-12+228499999V0201601N001519999999N9999999N1-01201-02611999999ADDMA1999999076341MD1810031+9999ME1314579OA149900411REMSYN076AAXX  03174 06750 33/// /1603 11120 21261 37634 48457 58003 333 91108 91204;
0156067500999992010010318004+46650+008617FM-12+228499999V0202001N001519999999N9999999N1-01221-02531999999ADDKA1120M-01021MA1999999076351MD1710021+9999ME1314599OA149900511REMSYN082AAXX  03184 06750 33/// /2003 11122 21253 37635 48459 57002 333 11102 91110 91206;
0137067500999992010010319004+46650+008617FM-12+228499999V0201701N001519999999N9999999N1-01141-02511999999ADDMA1999999076361MD1510021+9999ME1314579OA149900311REMSYN076AAXX  03194 06750 33/// /1703 11114 21251 37636 48457 55002 333 91106 91204;
0137067500999992010010320004+46650+008617FM-12+228499999V0201501N001519999999N9999999N1-01211-02311999999ADDMA1999999076331MD1010011+9999ME1314569OA149900311REMSYN076AAXX  03204 06750 33/// /1503 11121 21231 37633 48456 50001 333 91106 91204;
0137067500999992010010321004+46650+008617FM-12+228499999V0201501N003619999999N9999999N1-01321-02841999999ADDMA1999999076311MD1710041+9999ME1314589OA149900411REMSYN076AAXX  03214 06750 33/// /1507 11132 21284 37631 48458 57004 333 91108 91207;
0137067500999992010010322004+46650+008617FM-12+228499999V0201401N006219999999N9999999N1-01261-02441999999ADDMA1999999076321MD1510041+9999ME1314579OA149900881REMSYN076AAXX  03224 06750 33/// /1412 11126 21244 37632 48457 55004 333 91117 91212;
0137067500999992010010323004+46650+008617FM-12+228499999V0201501N007219999999N9999999N1-01341-02581999999ADDMA1999999076281MD1710051+9999ME1314559OA149901081REMSYN076AAXX  03234 06750 33/// /1514 11134 21258 37628 48455 57005 333 91121 91216;
0137067500999992010010400004+46650+008617FM-12+228499999V0201501N006219999999N9999999N1-01311-02581999999ADDMA1999999076251MD1710061+9999ME1314519OA149901241REMSYN076AAXX  04004 06750 33/// /1512 11131 21258 37625 48451 57006 333 91124 91217;
0137067500999992010010401004+46650+008617FM-12+228499999V0201501N008219999999N9999999N1-01311-02511999999ADDMA1999999076201MD1710121+9999ME1314469OA149901241REMSYN076AAXX  04014 06750 33/// /1516 11131 21251 37620 48446 57012 333 91124 91217;
0137067500999992010010402004+46650+008617FM-12+228499999V0201401N008719999999N9999999N1-01281-02861999999ADDMA1999999076161MD1710121+9999ME1314419OA149901241REMSYN076AAXX  04024 06750 33/// /1417 11128 21286 37616 48441 57012 333 91124 91217;
0137067500999992010010403004+46650+008617FM-12+228499999V0201501N011319999999N9999999N1-01241-02341999999ADDMA1999999076111MD1619999+9999ME1314359OA149901391REMSYN076AAXX  04034 06750 33/// /1522 11124 21234 37611 48435 56/// 333 91127 91222;
0137067500999992010010404004+46650+008617FM-12+228499999V0201501N011819999999N9999999N1-01261-02401999999ADDMA1999999076091MD1710111+9999ME1314339OA149901701REMSYN076AAXX  04044 06750 33/// /1523 11126 21240 37609 48433 57011 333 91133 91228;
0137067500999992010010405004+46650+008617FM-12+228499999V0201501N010819999999N9999999N1-01291-02381999999ADDMA1999999076051MD1710111+9999ME1314309OA149901701REMSYN076AAXX  04054 06750 33/// /1521 11129 21238 37605 48430 57011 333 91133 91228;
0216067500999992010010406004+46650+008617FM-12+228499999V0201501N012319999999N9999999N1-01321-02381999999ADDAA124000091AL19900091GJ103669KA1999N-01401MA1999999076051MD1710061+9999ME1314319OA149901701REMSYN094AAXX  04064 06750 33/// /1524 11132 21238 37605 48431 57006 333 21140 55061 70000 91133 91228;EQDQ01  00002PRCP24
0137067500999992010010407004+46650+008617FM-12+228499999V0201501N010319999999N9999999N1-01361-02121999999ADDMA1999999076031MD1710061+9999ME1314319OA149901601REMSYN076AAXX  04074 06750 33/// /1520 11136 21212 37603 48431 57006 333 91131 91224;
0137067500999992010010408004+46650+008617FM-12+228499999V0201501N009319999999N9999999N1-01331-02061999999ADDMA1999999076021MD1710031+9999ME1314289OA149901601REMSYN076AAXX  04084 06750 33/// /1518 11133 21206 37602 48428 57003 333 91131 91223;
0137067500999992010010409004+46650+008617FM-12+228499999V0201501N009819999999N9999999N1-01331-01861999999ADDMA1999999076021MD1610031+9999ME1314289OA149901701REMSYN076AAXX  04094 06750 33/// /1519 11133 21186 37602 48428 56003 333 91133 91228;
0137067500999992010010410004+46650+008617FM-12+228499999V0201501N008719999999N9999999N1-01291-01791999999ADDMA1999999076011MD1710021+9999ME1314269OA149901391REMSYN076AAXX  04104 06750 33/// /1517 11129 21179 37601 48426 57002 333 91127 91221;
0137067500999992010010411004+46650+008617FM-12+228499999V0201501N009319999999N9999999N1-01241-01651999999ADDMA1999999075941MD1710081+9999ME1314179OA149901341REMSYN076AAXX  04114 06750 33/// /1518 11124 21165 37594 48417 57008 333 91126 91219;
0137067500999992010010412004+46650+008617FM-12+228499999V0201401N009319999999N9999999N1-01241-01611999999ADDMA1999999075911MD1710111+9999ME1314149OA149901701REMSYN076AAXX  04124 06750 33/// /1418 11124 21161 37591 48414 57011 333 91133 91228;
0137067500999992010010413004+46650+008617FM-12+228499999V0201601N006219999999N9999999N1-01241-01601999999ADDMA1999999075861MD1610151+9999ME1314099OA149901241REMSYN076AAXX  04134 06750 33/// /1612 11124 21160 37586 48409 56015 333 91124 91218;
0137067500999992010010414004+46650+008617FM-12+228499999V0201101N004619999999N9999999N1-01191-01451999999ADDMA1999999075831MD1719999+9999ME1314049OA149901181REMSYN076AAXX  04144 06750 33/// /1109 11119 21145 37583 48404 57/// 333 91123 91217;
0137067500999992010010415004+46650+008617FM-12+228499999V0200701N005119999999N9999999N1-01161-01481999999ADDMA1999999075811MD1710101+9999ME1314019OA149901341REMSYN076AAXX  04154 06750 33/// /0710 11116 21148 37581 48401 57010 333 91126 91219;
0137067500999992010010416004+46650+008617FM-12+228499999V0200701N005719999999N9999999N1-01161-01421999999ADDMA1999999075811MD1710051+9999ME1314019OA149900671REMSYN076AAXX  04164 06750 33/// /0711 11116 21142 37581 48401 57005 333 91113 91211;
0137067500999992010010417004+46650+008617FM-12+228499999V0200701N004619999999N9999999N1-01101-01391999999ADDMA1999999075801MD1710031+9999ME1313989OA149900721REMSYN076AAXX  04174 06750 33/// /0709 11110 21139 37580 48398 57003 333 91114 91212;
0156067500999992010010418004+46650+008617FM-12+228499999V0200801N002119999999N9999999N1-01061-01331999999ADDKA1120M-01081MA1999999075801MD1010011+9999ME1313979OA149901601REMSYN082AAXX  04184 06750 33/// /0804 11106 21133 37580 48397 50001 333 11108 91131 91223;
0154067500999992010010419004+46650+008617FM-12+228499999V0201401N001519999999N9999999N1-00941-01161999999ADDAA101000021MA1999999075791MD1810021+9999ME1313919OA149900621REMSYN082AAXX  04194 06750 23/// /1403 11094 21116 37579 48391 58002 333 69915 91112 91208;
0137067500999992010010420004+46650+008617FM-12+228499999V0201501N002119999999N9999999N1-00931-01191999999ADDMA1999999075781MD1710021+9999ME1313909OA149900311REMSYN076AAXX  04204 06750 33/// /1504 11093 21119 37578 48390 57002 333 91106 91204;
0154067500999992010010421004+46650+008617FM-12+228499999V0201001N001519999999N9999999N1-00891-01131999999ADDAA101000021MA1999999075761MD1710041+9999ME1313879OA149900721REMSYN082AAXX  04214 06750 23/// /1003 11089 21113 37576 48387 57004 333 69915 91114 91212;
0137067500999992010010422004+46650+008617FM-12+228499999V0201201N001519999999N9999999N1-00861-01151999999ADDMA1999999075761MD1710031+9999ME1313869OA149900571REMSYN076AAXX  04224 06750 33/// /1203 11086 21115 37576 48386 57003 333 91111 91209;
0137067500999992010010423004+46650+008617FM-12+228499999V0201201N002619999999N9999999N1-00791-01171999999ADDMA1999999075751MD1710031+9999ME1313829OA149900571REMSYN076AAXX  04234 06750 33/// /1205 11079 21117 37575 48382 57003 333 91111 91209;
0179067500999992010010500004+46650+008617FM-12+228499999V0201401N002619999999N9999999N1-00931-01201999999ADDAA106000091MA1999999075721MD1710041+9999ME1313849OA149901181REMSYN088AAXX  05004 06750 03/// /1405 11093 21120 37572 48384 57004 69921 333 60005 91123 91217;EQDQ01  00002PRCP06
0137067500999992010010501004+46650+008617FM-12+228499999V0201301N002619999999N9999999N1-00881-01281999999ADDMA1999999075681MD1810081+9999ME1313789OA149900361REMSYN076AAXX  05014 06750 33/// /1305 11088 21128 37568 48378 58008 333 91107 91205;
0137067500999992010010502004+46650+008617FM-12+228499999V0201201N001519999999N9999999N1-00751-01171999999ADDMA1999999075651MD1610101+9999ME1313709OA149900511REMSYN076AAXX  05024 06750 33/// /1203 11075 21117 37565 48370 56010 333 91110 91206;
0137067500999992010010503004+46650+008617FM-12+228499999V0201601N001519999999N9999999N1-00891-01201999999ADDMA1999999075621MD1610101+9999ME1313729OA149900571REMSYN076AAXX  05034 06750 33/// /1603 11089 21120 37562 48372 56010 333 91111 91209;
0137067500999992010010504004+46650+008617FM-12+228499999V0201501N002619999999N9999999N1-00791-01151999999ADDMA1999999075571MD1810111+9999ME1313639OA149900361REMSYN076AAXX  05044 06750 33/// /1505 11079 21115 37557 48363 58011 333 91107 91205;
0137067500999992010010505004+46650+008617FM-12+228499999V0201801N002119999999N9999999N1-00871-01181999999ADDMA1999999075521MD1610131+9999ME1313619OA149900511REMSYN076AAXX  05054 06750 33/// /1804 11087 21118 37552 48361 56013 333 91110 91206;
0239067500999992010010506004+46650+008617FM-12+228499999V0201701N003119999999N9999999N1-00841-01161999999ADDAA112000091AA224000391AL11200091GJ100129KA1999N-01101MA1999999075491MD1610131+9999ME1313569OA149900571REMSYN106AAXX  05064 06750 03/// /1706 11084 21116 37549 48356 56013 69922 333 21110 55002 60005 70002 91111 91209;EQDQ01  00002PRCP12
0137067500999992010010507004+46650+008617FM-12+228499999V0201801N003619999999N9999999N1-00891-01211999999ADDMA1999999075471MD1710101+9999ME1313569OA149900511REMSYN076AAXX  05074 06750 33/// /1807 11089 21121 37547 48356 57010 333 91110 91207;
0137067500999992010010508004+46650+008617FM-12+228499999V0201701N004619999999N9999999N1-00871-01211999999ADDMA1999999075461MD1710061+9999ME1313549OA149900721REMSYN076AAXX  05084 06750 33/// /1709 11087 21121 37546 48354 57006 333 91114 91210;
0137067500999992010010509004+46650+008617FM-12+228499999V0201701N004619999999N9999999N1-00781-01181999999ADDMA1999999075451MD1710041+9999ME1313509OA149900721REMSYN076AAXX  05094 06750 33/// /1709 11078 21118 37545 48350 57004 333 91114 91210;
0137067500999992010010510004+46650+008617FM-12+228499999V0201601N003119999999N9999999N1-00821-01211999999ADDMA1999999075431MD1710041+9999ME1313499OA149900621REMSYN076AAXX  05104 06750 33/// /1606 11082 21121 37543 48349 57004 333 91112 91209;
0137067500999992010010511004+46650+008617FM-12+228499999V0201601N005119999999N9999999N1-00671-01201999999ADDMA1999999075371MD1710091+9999ME1313389OA149900671REMSYN076AAXX  05114 06750 33/// /1610 11067 21120 37537 48338 57009 333 91113 91210;
0137067500999992010010512004+46650+008617FM-12+228499999V0201401N004119999999N9999999N1-00651-01181999999ADDMA1999999075311MD1710141+9999ME1313319OA149900721REMSYN076AAXX  05124 06750 33/// /1408 11065 21118 37531 48331 57014 333 91114 91210;
0137067500999992010010513004+46650+008617FM-12+228499999V0201401N004619999999N9999999N1-00761-01181999999ADDMA1999999075261MD1610171+9999ME1313299OA149900721REMSYN076AAXX  05134 06750 33/// /1409 11076 21118 37526 48329 56017 333 91114 91210;
0096067500999992010010514004+46650+008617FM-12+228499999V0201501N003619999999N9999999N1-00861-01231999999ADDMA1999999075231ME1313309REMSYN060AAXX  05144 06750 33/// /1507 11086 21123 37523 48330 5////;
0137067500999992010010515004+46650+008617FM-12+228499999V0201601N003119999999N9999999N1-00911-01311999999ADDMA1999999075221MD1710091+9999ME1313319OA149900721REMSYN076AAXX  05154 06750 33/// /1606 11091 21131 37522 48331 57009 333 91114 91210;
0137067500999992010010516004+46650+008617FM-12+228499999V0201101N003119999999N9999999N1-00891-01411999999ADDMA1999999075201MD1710061+9999ME1313289OA149900571REMSYN076AAXX  05164 06750 33/// /1106 11089 21141 37520 48328 57006 333 91111 91209;
0137067500999992010010517004+46650+008617FM-12+228499999V0201101N003619999999N9999999N1-00941-01411999999ADDMA1999999075191MD1710041+9999ME1313289OA149900461REMSYN076AAXX  05174 06750 33/// /1107 11094 21141 37519 48328 57004 333 91109 91207;
0156067500999992010010518004+46650+008617FM-12+228499999V0201201N003119999999N9999999N1-00891-01351999999ADDKA1120M-00651MA1999999075171MD1710051+9999ME1313249OA149900721REMSYN082AAXX  05184 06750 33/// /1206 11089 21135 37517 48324 57005 333 11065 91114 91210;
0137067500999992010010519004+46650+008617FM-12+228499999V0201401N001519999999N9999999N1-00861-01431999999ADDMA1999999075151MD1710051+9999ME1313219OA149900511REMSYN076AAXX  05194 06750 33/// /1403 11086 21143 37515 48321 57005 333 91110 91207;
0137067500999992010010520004+46650+008617FM-12+228499999V0201401N002119999999N9999999N1-00921-01341999999ADDMA1999999075111MD1810081+9999ME1313199OA149900361REMSYN076AAXX  05204 06750 33/// /1404 11092 21134 37511 48319 58008 333 91107 91205;
0137067500999992010010521004+46650+008617FM-12+228499999V0201501N001519999999N9999999N1-00911-01351999999ADDMA1999999075081MD1810091+9999ME1313169OA149900511REMSYN076AAXX  05214 06750 33/// /1503 11091 21135 37508 48316 58009 333 91110 91207;
0137067500999992010010522004+46650+008617FM-12+228499999V0200801N001019999999N9999999N1-00881-01361999999ADDMA1999999075051MD1610101+9999ME1313119OA149900411REMSYN076AAXX  05224 06750 33/// /0802 11088 21136 37505 48311 56010 333 91108 91206;
0137067500999992010010523004+46650+008617FM-12+228499999V0202901N000519999999N9999999N1-00871-01321999999ADDMA1999999075031MD1810081+9999ME1313099OA149900211REMSYN076AAXX  05234 06750 33/// /2901 11087 21132 37503 48309 58008 333 91104 91203;
0137067500999992010010600004+46650+008617FM-12+228499999V0203401N002119999999N9999999N1-00931-01381999999ADDMA1999999074991MD1710091+9999ME1313079OA149900721REMSYN076AAXX  06004 06750 33/// /3404 11093 21138 37499 48307 57009 333 91114 91210;
0137067500999992010010601004+46650+008617FM-12+228499999V0203601N002119999999N9999999N1-00941-01511999999ADDMA1999999074981MD1710071+9999ME1313069OA149900511REMSYN076AAXX  06014 06750 33/// /3604 11094 21151 37498 48306 57007 333 91110 91207;
0137067500999992010010602004+46650+008617FM-12+228499999V0203501N002619999999N9999999N1-00981-01551999999ADDMA1999999075001MD1510031+9999ME1313109OA149900511REMSYN076AAXX  06024 06750 33/// /3505 11098 21155 37500 48310 55003 333 91110 91207;
0137067500999992010010603004+46650+008617FM-12+228499999V0200101N003119999999N9999999N1-00891-01501999999ADDMA1999999074971MD1710021+9999ME1313039OA149900621REMSYN076AAXX  06034 06750 33/// /0106 11089 21150 37497 48303 57002 333 91112 91207;
0137067500999992010010604004+46650+008617FM-12+228499999V0200101N002119999999N9999999N1-00921-01521999999ADDMA1999999074951MD1810031+9999ME1313029OA149900771REMSYN076AAXX  06044 06750 33/// /0104 11092 21152 37495 48302 58003 333 91115 91209;
0137067500999992010010605004+46650+008617FM-12+228499999V0200401N003119999999N9999999N1-00891-01541999999ADDMA1999999074961MD1510041+9999ME1313029OA149900771REMSYN076AAXX  06054 06750 33/// /0406 11089 21154 37496 48302 55004 333 91115 91209;
0216067500999992010010606004+46650+008617FM-12+228499999V0200101N001519999999N9999999N1-00991-01581999999ADDAA124000091AL19900091GJ103489KA1999N-00981MA1999999074951MD1710021+9999ME1313059OA149900771REMSYN094AAXX  06064 06750 33/// /0103 11099 21158 37495 48305 57002 333 21098 55058 70000 91115 91209;EQDQ01  00002PRCP24
0137067500999992010010607004+46650+008617FM-12+228499999V0203501N003119999999N9999999N1-01031-01581999999ADDMA1999999074951MD1410001+9999ME1313069OA149900361REMSYN076AAXX  06074 06750 33/// /3506 11103 21158 37495 48306 54000 333 91107 91206;
0137067500999992010010608004+46650+008617FM-12+228499999V0203501N004119999999N9999999N1-01111-01491999999ADDMA1999999074981MD1210021+9999ME1313139OA149900461REMSYN076AAXX  06084 06750 33/// /3508 11111 21149 37498 48313 52002 333 91109 91208;
0137067500999992010010609004+46650+008617FM-12+228499999V0203501N004119999999N9999999N1-01011-01221999999ADDMA1999999075021MD1210071+9999ME1313139OA149900771REMSYN076AAXX  06094 06750 33/// /3508 11101 21122 37502 48313 52007 333 91115 91209;
0137067500999992010010610004+46650+008617FM-12+228499999V0202901N001019999999N9999999N1-01011-01301999999ADDMA1999999075051MD1210101+9999ME1313169OA149900621REMSYN076AAXX  06104 06750 33/// /2902 11101 21130 37505 48316 52010 333 91112 91209;
0137067500999992010010611004+46650+008617FM-12+228499999V0200301N000519999999N9999999N1-00921-01451999999ADDMA1999999075031MD1019999+9999ME1313119OA149900461REMSYN076AAXX  06114 06750 33/// /0301 11092 21145 37503 48311 50/// 333 91109 91207;
0137067500999992010010612004+46650+008617FM-12+228499999V0201001N003119999999N9999999N1-00921-01261999999ADDMA1999999075011MD1710011+9999ME1313099OA149900771REMSYN076AAXX  06124 06750 33/// /1006 11092 21126 37501 48309 57001 333 91115 91209;
0137067500999992010010613004+46650+008617FM-12+228499999V0200901N003619999999N9999999N1-00861-01361999999ADDMA1999999075021MD1710031+9999ME1313079OA149900571REMSYN076AAXX  06134 06750 33/// /0907 11086 21136 37502 48307 57003 333 91111 91208;
0137067500999992010010614004+46650+008617FM-12+228499999V0200701N002619999999N9999999N1-00931-01371999999ADDMA1999999075031MD1519999+9999ME1313119OA149900571REMSYN076AAXX  06144 06750 33/// /0705 11093 21137 37503 48311 55/// 333 91111 91208;
0137067500999992010010615004+46650+008617FM-12+228499999V0201201N001519999999N9999999N1-00931-01391999999ADDMA1999999075061MD1219999+9999ME1313149OA149900571REMSYN076AAXX  06154 06750 33/// /1203 11093 21139 37506 48314 52/// 333 91111 91208;
0137067500999992010010616004+46650+008617FM-12+228499999V0201801N003119999999N9999999N1-01041-01551999999ADDMA1999999075091MD1210071+9999ME1313229OA149900511REMSYN076AAXX  06164 06750 33/// /1806 11104 21155 37509 48322 52007 333 91110 91206;
0137067500999992010010617004+46650+008617FM-12+228499999V0201701N001519999999N9999999N1-01031-01661999999ADDMA1999999075111MD1110081+9999ME1313239OA149900511REMSYN076AAXX  06174 06750 33/// /1703 11103 21166 37511 48323 51008 333 91110 91206;
0156067500999992010010618004+46650+008617FM-12+228499999V0201801N001019999999N9999999N1-01011-01681999999ADDKA1120M-00821MA1999999075131MD1319999+9999ME1313259OA149900621REMSYN082AAXX  06184 06750 33/// /1802 11101 21168 37513 48325 53/// 333 11082 91112 91209;
0137067500999992010010619004+46650+008617FM-12+228499999V0201301N002119999999N9999999N1-01131-01581999999ADDMA1999999075171MD1310081+9999ME1313339OA149900361REMSYN076AAXX  06194 06750 33/// /1304 11113 21158 37517 48333 53008 333 91107 91205;
0137067500999992010010620004+46650+008617FM-12+228499999V0201601N002619999999N9999999N1-01161-01721999999ADDMA1999999075181MD1110071+9999ME1313359OA149900361REMSYN076AAXX  06204 06750 33/// /1605 11116 21172 37518 48335 51007 333 91107 91205;
0137067500999992010010621004+46650+008617FM-12+228499999V0202001N002619999999N9999999N1-01141-01721999999ADDMA1999999075191MD1110061+9999ME1313369OA149900511REMSYN076AAXX  06214 06750 33/// /2005 11114 21172 37519 48336 51006 333 91110 91206;
0137067500999992010010622004+46650+008617FM-12+228499999V0202001N002119999999N9999999N1-01271-01631999999ADDMA1999999075221MD1310051+9999ME1313449OA149900571REMSYN076AAXX  06224 06750 33/// /2004 11127 21163 37522 48344 53005 333 91111 91207;
0137067500999992010010623004+46650+008617FM-12+228499999V0201801N001519999999N9999999N1-01221-01651999999ADDMA1999999075221MD1210041+9999ME1313429OA149900571REMSYN076AAXX  06234 06750 33/// /1803 11122 21165 37522 48342 52004 333 91111 91207;
0137067500999992010010700004+46650+008617FM-12+228499999V0201701N000519999999N9999999N1-01221-01661999999ADDMA1999999075211MD1010021+9999ME1313419OA149900571REMSYN076AAXX  07004 06750 33/// /1701 11122 21166 37521 48341 50002 333 91111 91208;
0137067500999992010010701004+46650+008617FM-12+228499999V0201801N001019999999N9999999N1-01311-01591999999ADDMA1999999075231MD1510011+9999ME1313469OA149900461REMSYN076AAXX  07014 06750 33/// /1802 11131 21159 37523 48346 55001 333 91109 91205;
0137067500999992010010702004+46650+008617FM-12+228499999V0201301N002119999999N9999999N1-01501-01661999999ADDMA1999999075281MD1219999+9999ME1313589OA149900311REMSYN076AAXX  07024 06750 33/// /1304 11150 21166 37528 48358 52/// 333 91106 91204;
0137067500999992010010703004+46650+008617FM-12+228499999V0201401N002619999999N9999999N1-01501-01781999999ADDMA1999999075281MD1210071+9999ME1313589OA149900571REMSYN076AAXX  07034 06750 33/// /1405 11150 21178 37528 48358 52007 333 91111 91207;
0137067500999992010010704004+46650+008617FM-12+228499999V0201301N002119999999N9999999N1-01351-01851999999ADDMA1999999075301MD1210071+9999ME1313559OA149900571REMSYN076AAXX  07044 06750 33/// /1304 11135 21185 37530 48355 52007 333 91111 91207;
0137067500999992010010705004+46650+008617FM-12+228499999V0201601N004119999999N9999999N1-01341-02121999999ADDMA1999999075321MD1210041+9999ME1313579OA149900981REMSYN076AAXX  07054 06750 33/// /1608 11134 21212 37532 48357 52004 333 91119 91209;
0216067500999992010010706004+46650+008617FM-12+228499999V0201601N005119999999N9999999N1-01301-02011999999ADDAA124000091AL19900091GJ104329KA1999N-01531MA1999999075371MD1210091+9999ME1313609OA149900981REMSYN094AAXX  07064 06750 33/// /1610 11130 21201 37537 48360 52009 333 21153 55072 70000 91119 91211;EQDQ01  00002PRCP24
0137067500999992010010707004+46650+008617FM-12+228499999V0201601N004619999999N9999999N1-01281-02071999999ADDMA1999999075411MD1310111+9999ME1313649OA149900821REMSYN076AAXX  07074 06750 33/// /1609 11128 21207 37541 48364 53011 333 91116 91211;
0137067500999992010010708004+46650+008617FM-12+228499999V0201301N004619999999N9999999N1-01271-02401999999ADDMA1999999075471MD1319999+9999ME1313709OA149900821REMSYN076AAXX  07084 06750 33/// /1309 11127 21240 37547 48370 53/// 333 91116 91211;
0137067500999992010010709004+46650+008617FM-12+228499999V0201601N005719999999N9999999N1-01111-02441999999ADDMA1999999075511MD1210141+9999ME1313689OA149900981REMSYN076AAXX  07094 06750 33/// /1611 11111 21244 37551 48368 52014 333 91119 91213;
0137067500999992010010710004+46650+008617FM-12+228499999V0201501N009319999999N9999999N1-01021-02301999999ADDMA1999999075561MD1310151+9999ME1313709OA149901241REMSYN076AAXX  07104 06750 33/// /1518 11102 21230 37556 48370 53015 333 91124 91218;
0137067500999992010010711004+46650+008617FM-12+228499999V0201501N009319999999N9999999N1-01021-02081999999ADDMA1999999075571MD1210101+9999ME1313719OA149901291REMSYN076AAXX  07114 06750 33/// /1518 11102 21208 37557 48371 52010 333 91125 91219;
0137067500999992010010712004+46650+008617FM-12+228499999V0201501N009819999999N9999999N1-00981-02031999999ADDMA1999999075541MD1010031+9999ME1313679OA149901341REMSYN076AAXX  07124 06750 33/// /1519 11098 21203 37554 48367 50003 333 91126 91220;
0137067500999992010010713004+46650+008617FM-12+228499999V0201601N009319999999N9999999N1-01031-01821999999ADDMA1999999075551MD1710011+9999ME1313709OA149901341REMSYN076AAXX  07134 06750 33/// /1618 11103 21182 37555 48370 57001 333 91126 91220;
0096067500999992010010716004+46650+008617FM-12+228499999V0201601N010319999999N9999999N1-01081-01531999999ADDMA1999999075661ME1313839REMSYN060AAXX  07164 06750 43/// /1620 11108 21153 37566 48383 5/011;
0137067500999992010010717004+46650+008617FM-12+228499999V0201701N009819999999N9999999N1-01101-01571999999ADDMA1999999075701MD1219999+9999ME1313889OA149901541REMSYN076AAXX  07174 06750 33/// /1719 11110 21157 37570 48388 52/// 333 91130 91220;
0156067500999992010010718004+46650+008617FM-12+228499999V0201501N010319999999N9999999N1-01111-01651999999ADDKA1120M-00961MA1999999075731MD1219999+9999ME1313919OA149901901REMSYN082AAXX  07184 06750 33/// /1520 11111 21165 37573 48391 52/// 333 11096 91137 91226;
0137067500999992010010719004+46650+008617FM-12+228499999V0201601N008219999999N9999999N1-01131-01571999999ADDMA1999999075731MD1210071+9999ME1313929OA149901901REMSYN076AAXX  07194 06750 33/// /1616 11113 21157 37573 48392 52007 333 91137 91226;
0137067500999992010010720004+46650+008617FM-12+228499999V0201701N007719999999N9999999N1-01121-01541999999ADDMA1999999075731MD1010031+9999ME1313919OA149901491REMSYN076AAXX  07204 06750 33/// /1715 11112 21154 37573 48391 50003 333 91129 91218;
0137067500999992010010721004+46650+008617FM-12+228499999V0201601N005719999999N9999999N1-01151-01451999999ADDMA1999999075741MD1210011+9999ME1313939OA149901901REMSYN076AAXX  07214 06750 33/// /1611 11115 21145 37574 48393 52001 333 91137 91226;
0137067500999992010010722004+46650+008617FM-12+228499999V0201501N006219999999N9999999N1-01131-01401999999ADDMA1999999075721MD1810011+9999ME1313919OA149901241REMSYN076AAXX  07224 06750 33/// /1512 11113 21140 37572 48391 58001 333 91124 91218;
0154067500999992010010723004+46650+008617FM-12+228499999V0201701N007719999999N9999999N1-01151-01231999999ADDAA101000021MA1999999075691MD1710041+9999ME1313889OA149901181REMSYN082AAXX  07234 06750 23/// /1715 11115 21123 37569 48388 57004 333 69915 91123 91215;
0179067500999992010010800004+46650+008617FM-12+228499999V0201901N006719999999N9999999N1-01121-01251999999ADDAA106000091MA1999999075661MD1710081+9999ME1313849OA149901901REMSYN088AAXX  08004 06750 03/// /1913 11112 21125 37566 48384 57008 69911 333 60005 91137 91226;EQDQ01  00002PRCP06
0137067500999992010010801004+46650+008617FM-12+228499999V0201601N004619999999N9999999N1-01131-01231999999ADDMA1999999075601MD1810121+9999ME1313789OA149901081REMSYN076AAXX  08014 06750 33/// /1609 11113 21123 37560 48378 58012 333 91121 91215;
0154067500999992010010802004+46650+008617FM-12+228499999V0201601N005119999999N9999999N1-01101-01181999999ADDAA101000021MA1999999075591MD1719999+9999ME1313769OA149900981REMSYN082AAXX  08024 06750 23/// /1610 11110 21118 37559 48376 57/// 333 69915 91119 91214;
0154067500999992010010803004+46650+008617FM-12+228499999V0201801N005119999999N9999999N1-01071-01181999999ADDAA101000021MA1999999075551MD1719999+9999ME1313719OA149901181REMSYN082AAXX  08034 06750 23/// /1810 11107 21118 37555 48371 57/// 333 69915 91123 91215;
0154067500999992010010804004+46650+008617FM-12+228499999V0201501N005719999999N9999999N1-00991-01101999999ADDAA101000021MA1999999075511MD1710091+9999ME1313649OA149900981REMSYN082AAXX  08044 06750 23/// /1511 11099 21110 37551 48364 57009 333 69925 91119 91213;
0154067500999992010010805004+46650+008617FM-12+228499999V0201501N006719999999N9999999N1-00891-01011999999ADDAA101000021MA1999999075461MD1810131+9999ME1313559OA149901241REMSYN082AAXX  08054 06750 23/// /1513 11089 21101 37546 48355 58013 333 69915 91124 91213;
0220067500999992010010806004+46650+008617FM-12+228499999V0201301N007719999999N9999999N1-00841-00891999999ADDAA112000891AA224000891AL14200091GJ102949KA1999N-01171MA1999999075421MD1610131+9999ME1313499OA149901491REMSYN106AAXX  08064 06750 03/// /1315 11084 21089 37542 48349 56013 69982 333 21117 55049 69925 70007 91129 91218;
0154067500999992010010807004+46650+008617FM-12+228499999V0201301N007219999999N9999999N1-00761-00801999999ADDAA101000391MA1999999075401MD1610111+9999ME1313449OA149901241REMSYN082AAXX  08074 06750 23/// /1314 11076 21080 37540 48344 56011 333 69935 91124 91215;
0137067500999992010010808004+46650+008617FM-12+228499999V0201401N007719999999N9999999N1-00681-00811999999ADDMA1999999075391MD1610071+9999ME1313409OA149901241REMSYN076AAXX  08084 06750 33/// /1415 11068 21081 37539 48340 56007 333 91124 91215;
0154067500999992010010809004+46650+008617FM-12+228499999V0201801N007719999999N9999999N1-00661-00721999999ADDAA101000021MA1999999075381MD1710041+9999ME1313389OA149901241REMSYN082AAXX  08094 06750 23/// /1815 11066 21072 37538 48338 57004 333 69915 91124 91215;
0154067500999992010010810004+46650+008617FM-12+228499999V0201501N005119999999N9999999N1-00531-00631999999ADDAA101000021MA1999999075351MD1710051+9999ME1313309OA149901181REMSYN082AAXX  08104 06750 23/// /1510 11053 21063 37535 48330 57005 333 69915 91123 91216;
0137067500999992010010811004+46650+008617FM-12+228499999V0201801N006719999999N9999999N1-00481-00591999999ADDMA1999999075291MD1810101+9999ME1313229OA149901241REMSYN076AAXX  08114 06750 33/// /1813 11048 21059 37529 48322 58010 333 91124 91216;
0160067500999992010010812004+46650+008617FM-12+228499999V0201901N005719999999N9999999N1-00481-00551999999ADDAA106000591MA1999999075211MD1810171+9999ME1313149OA149901241REMSYN088AAXX  08124 06750 03/// /1911 11048 21055 37521 48314 58017 69961 333 69915 91124 91216;
0154067500999992010010813004+46650+008617FM-12+228499999V0201701N004119999999N9999999N1-00521-00521999999ADDAA101000391MA1999999075171MD1610181+9999ME1313119OA149901181REMSYN082AAXX  08134 06750 23/// /1708 11052 21052 37517 48311 56018 333 69935 91123 91215;
0154067500999992010010814004+46650+008617FM-12+228499999V0201601N005119999999N9999999N1-00431-00511999999ADDAA101000391MA1999999075141MD1619999+9999ME1313049OA149900881REMSYN082AAXX  08144 06750 23/// /1610 11043 21051 37514 48304 56/// 333 69935 91117 91211;
0154067500999992010010815004+46650+008617FM-12+228499999V0201901N004619999999N9999999N1-00431-00491999999ADDAA101000391MA1999999075131MD1610081+9999ME1313039OA149901241REMSYN082AAXX  08154 06750 23/// /1909 11043 21049 37513 48303 56008 333 69935 91124 91216;
0154067500999992010010816004+46650+008617FM-12+228499999V0201901N006219999999N9999999N1-00441-00501999999ADDAA101000021MA1999999075131MD1710041+9999ME1313049OA149901031REMSYN082AAXX  08164 06750 23/// /1912 11044 21050 37513 48304 57004 333 69915 91120 91212;
0154067500999992010010817004+46650+008617FM-12+228499999V0201801N006219999999N9999999N1-00401-00481999999ADDAA101000591MA1999999075131MD1410001+9999ME1313029OA149901031REMSYN082AAXX  08174 06750 23/// /1812 11040 21048 37513 48302 54/// 333 69965 91120 91212;
0179067500999992010010818004+46650+008617FM-12+228499999V0201701N006219999999N9999999N1-00421-00511999999ADDAA112003091KA1120M-00401MA1999999075151MD1210021+9999ME1313059OA149901241REMSYN094AAXX  08184 06750 03/// /1712 11042 21051 37515 48305 52002 60032 333 11040 69985 91124 91216;
0154067500999992010010819004+46650+008617FM-12+228499999V0201401N005719999999N9999999N1-00411-00521999999ADDAA101000391MA1999999075171MD1110041+9999ME1313079OA149900981REMSYN082AAXX  08194 06750 23/// /1411 11041 21052 37517 48307 51004 333 69935 91119 91213;
0154067500999992010010820004+46650+008617FM-12+228499999V0201701N006719999999N9999999N1-00381-00521999999ADDAA101000021MA1999999075181MD1110051+9999ME1313079OA149900981REMSYN082AAXX  08204 06750 23/// /1713 11038 21052 37518 48307 51005 333 69925 91119 91213;
0137067500999992010010821004+46650+008617FM-12+228499999V0201501N007719999999N9999999N1-00391-00581999999ADDMA1999999075201MD1210051+9999ME1313099OA149901081REMSYN076AAXX  08214 06750 33/// /1515 11039 21058 37520 48309 52005 333 91121 91215;
0137067500999992010010822004+46650+008617FM-12+228499999V0201901N006219999999N9999999N1-00491-00571999999ADDMA1999999075221MD1210051+9999ME1313159OA149901081REMSYN076AAXX  08224 06750 33/// /1912 11049 21057 37522 48315 52005 333 91121 91215;
0137067500999992010010823004+46650+008617FM-12+228499999V0201901N006719999999N9999999N1-00481-00571999999ADDMA1999999075231MD1210051+9999ME1313169OA149901081REMSYN076AAXX  08234 06750 33/// /1913 11048 21057 37523 48316 52005 333 91121 91214;
0160067500999992010010900004+46650+008617FM-12+228499999V0201601N004619999999N9999999N1-00431-00631999999ADDAA106000591MA1999999075211MD1010011+9999ME1313129OA149901081REMSYN088AAXX  09004 06750 03/// /1609 11043 21063 37521 48312 50001 69951 333 60005 91121 91215;
0137067500999992010010901004+46650+008617FM-12+228499999V0201501N005119999999N9999999N1-00461-00721999999ADDMA1999999075211MD1810011+9999ME1313139OA149900981REMSYN076AAXX  09014 06750 33/// /1510 11046 21072 37521 48313 58001 333 91119 91214;
0137067500999992010010902004+46650+008617FM-12+228499999V0201601N004119999999N9999999N1-00451-00721999999ADDMA1999999075251MD1319999+9999ME1313179OA149901031REMSYN076AAXX  09024 06750 33/// /1608 11045 21072 37525 48317 53/// 333 91120 91213;
0137067500999992010010903004+46650+008617FM-12+228499999V0201501N005719999999N9999999N1-00461-00761999999ADDMA1999999075251MD1219999+9999ME1313179OA149901181REMSYN076AAXX  09034 06750 33/// /1511 11046 21076 37525 48317 52/// 333 91123 91217;
0137067500999992010010904004+46650+008617FM-12+228499999V0201101N003119999999N9999999N1-00511-00821999999ADDMA1999999075201MD1010011+9999ME1313149OA149901181REMSYN076AAXX  09044 06750 33/// /1106 11051 21082 37520 48314 50001 333 91123 91217;
0137067500999992010010905004+46650+008617FM-12+228499999V0200801N005119999999N9999999N1-00591-00891999999ADDMA1999999075151MD1710101+9999ME1313119OA149900881REMSYN076AAXX  09054 06750 33/// /0810 11059 21089 37515 48311 57010 333 91117 91210;
0220067500999992010010906004+46650+008617FM-12+228499999V0200501N005719999999N9999999N1-00611-00831999999ADDAA112000591AA224003891AL14200391GJ100009KA1999N-00621MA1999999075081MD1710171+9999ME1313059OA149901181REMSYN106AAXX  09064 06750 03/// /0511 11061 21083 37508 48305 57017 69952 333 21062 55000 60005 70037 91123 91217;
0137067500999992010010907004+46650+008617FM-12+228499999V0200901N006219999999N9999999N1-00561-00891999999ADDMA1999999075091MD1710111+9999ME1313049OA149900821REMSYN076AAXX  09074 06750 33/// /0912 11056 21089 37509 48304 57011 333 91116 91213;
0137067500999992010010908004+46650+008617FM-12+228499999V0200601N006719999999N9999999N1-00541-00871999999ADDMA1999999075081MD1710071+9999ME1313029OA149900821REMSYN076AAXX  09084 06750 33/// /0613 11054 21087 37508 48302 57007 333 91116 91213;
0137067500999992010010909004+46650+008617FM-12+228499999V0200701N005119999999N9999999N1-00501-00861999999ADDMA1999999075101MD1210021+9999ME1313039OA149901031REMSYN076AAXX  09094 06750 33/// /0710 11050 21086 37510 48303 52002 333 91120 91216;
0137067500999992010010910004+46650+008617FM-12+228499999V0200601N004619999999N9999999N1-00431-00871999999ADDMA1999999075041MD1710051+9999ME1312939OA149901031REMSYN076AAXX  09104 06750 33/// /0609 11043 21087 37504 48293 57005 333 91120 91216;
0137067500999992010010911004+46650+008617FM-12+228499999V0200601N006219999999N9999999N1-00371-00871999999ADDMA1999999075011MD1710071+9999ME1312889OA149900771REMSYN076AAXX  09114 06750 33/// /0612 11037 21087 37501 48288 57007 333 91115 91212;
0137067500999992010010912004+46650+008617FM-12+228499999V0200301N003619999999N9999999N1-00351-00911999999ADDMA1999999074951MD1810151+9999ME1312819OA149901181REMSYN076AAXX  09124 06750 33/// /0307 11035 21091 37495 48281 58015 333 91123 91217;
0137067500999992010010913004+46650+008617FM-12+228499999V0203601N002619999999N9999999N1-00551-00921999999ADDMA1999999074901MD1810141+9999ME1312839OA149900721REMSYN076AAXX  09134 06750 33/// /3605 11055 21092 37490 48283 58014 333 91114 91211;
0137067500999992010010914004+46650+008617FM-12+228499999V0203501N005119999999N9999999N1-00681-00951999999ADDMA1999999074911MD1710101+9999ME1312899OA149900621REMSYN076AAXX  09144 06750 33/// /3510 11068 21095 37491 48289 57010 333 91112 91210;
0137067500999992010010915004+46650+008617FM-12+228499999V0203501N003119999999N9999999N1-00761-00931999999ADDMA1999999074941MD1510011+9999ME1312959OA149900771REMSYN076AAXX  09154 06750 33/// /3506 11076 21093 37494 48295 55001 333 91115 91212;
0154067500999992010010916004+46650+008617FM-12+228499999V0203501N004119999999N9999999N1-00661-00801999999ADDAA101000021MA1999999074921MD1210021+9999ME1312899OA149900571REMSYN082AAXX  09164 06750 23/// /3508 11066 21080 37492 48289 52002 333 69925 91111 91209;
0137067500999992010010917004+46650+008617FM-12+228499999V0201201N001519999999N9999999N1-00821-00911999999ADDMA1999999074931MD1010021+9999ME1312969OA149900511REMSYN076AAXX  09174 06750 33/// /1203 11082 21091 37493 48296 50002 333 91110 91209;
0198067500999992010010918004+46650+008617FM-12+228499999V0200801N004119999999N9999999N1-00741-00941999999ADDAA112000091KA1120M-00331MA1999999074971MD1310031+9999ME1312989OA149901031REMSYN094AAXX  09184 06750 03/// /0808 11074 21094 37497 48298 53003 69922 333 11033 60005 91120 91216;EQDQ01  00002PRCP12
0137067500999992010010919004+46650+008617FM-12+228499999V0201001N004119999999N9999999N1-00731-00911999999ADDMA1999999075021MD1310101+9999ME1313039OA149900771REMSYN076AAXX  09194 06750 33/// /1008 11073 21091 37502 48303 53010 333 91115 91210;
0154067500999992010010920004+46650+008617FM-12+228499999V0201701N003119999999N9999999N1-00671-00761999999ADDAA101000021MA1999999075051MD1310121+9999ME1313049OA149900721REMSYN082AAXX  09204 06750 23/// /1706 11067 21076 37505 48304 53012 333 69915 91114 91210;
0137067500999992010010921004+46650+008617FM-12+228499999V0201901N004119999999N9999999N1-00661-00721999999ADDMA1999999075091MD1110121+9999ME1313079OA149900771REMSYN076AAXX  09214 06750 33/// /1908 11066 21072 37509 48307 51012 333 91115 91210;
0154067500999992010010922004+46650+008617FM-12+228499999V0201901N005119999999N9999999N1-00681-00761999999ADDAA101000021MA1999999075111MD1110091+9999ME1313109OA149900881REMSYN082AAXX  09224 06750 23/// /1910 11068 21076 37511 48310 51009 333 69915 91117 91210;
0154067500999992010010923004+46650+008617FM-12+228499999V0201601N007719999999N9999999N1-00641-00741999999ADDAA101000021MA1999999075171MD1310121+9999ME1313159OA149901031REMSYN082AAXX  09234 06750 23/// /1615 11064 21074 37517 48315 53012 333 69915 91120 91215;
0160067500999992010011000004+46650+008617FM-12+228499999V0201801N005719999999N9999999N1-00701-00771999999ADDAA106000391MA1999999075211MD1110121+9999ME1313229OA149901031REMSYN088AAXX  10004 06750 03/// /1811 11070 21077 37521 48322 51012 69931 333 60005 91120 91215;
0137067500999992010011001004+46650+008617FM-12+228499999V0201901N006719999999N9999999N1-00671-00821999999ADDMA1999999075231MD1110121+9999ME1313239OA149900981REMSYN076AAXX  10014 06750 33/// /1913 11067 21082 37523 48323 51012 333 91119 91214;
0096067500999992010011002004+46650+008617FM-12+228499999V0202001N005119999999N9999999N1-00691-00851999999ADDMA1999999075281ME1313299REMSYN060AAXX  10024 06750 33/// /2010 11069 21085 37528 48329 5////;
0096067500999992010011003004+46650+008617FM-12+228499999V0201701N004619999999N9999999N1-00731-00831999999ADDMA1999999075301ME1313329REMSYN060AAXX  10034 06750 43/// /1709 11073 21083 37530 48332 5////;
0154067500999992010011004004+46650+008617FM-12+228499999V0201801N004119999999N9999999N1-00761-00801999999ADDAA101000021MA1999999075341MD1210111+9999ME1313389OA149900881REMSYN082AAXX  10044 06750 23/// /1808 11076 21080 37534 48338 52011 333 69925 91117 91212;
0154067500999992010011005004+46650+008617FM-12+228499999V0201301N006219999999N9999999N1-00691-00921999999ADDAA101000021MA1999999075371MD1210091+9999ME1313389OA149901031REMSYN082AAXX  10054 06750 23/// /1312 11069 21092 37537 48338 52009 333 69915 91120 91212;
0220067500999992010011006004+46650+008617FM-12+228499999V0201401N010819999999N9999999N1-00711-00921999999ADDAA112000591AA224000891AL14800091GJ100009KA1999N-00841MA1999999075421MD1110121+9999ME1313449OA149901541REMSYN106AAXX  10064 06750 03/// /1421 11071 21092 37542 48344 51012 69962 333 21084 55000 60005 70008 91130 91223;
0137067500999992010011007004+46650+008617FM-12+228499999V0201701N004619999999N9999999N1-00751-00901999999ADDMA1999999075491MD1310151+9999ME1313539OA149901541REMSYN076AAXX  10074 06750 33/// /1709 11075 21090 37549 48353 53015 333 91130 91223;
0137067500999992010011008004+46650+008617FM-12+228499999V0201601N005719999999N9999999N1-00751-00971999999ADDMA1999999075551MD1219999+9999ME1313609OA149901441REMSYN076AAXX  10084 06750 33/// /1611 11075 21097 37555 48360 52/// 333 91128 91221;
0137067500999992010011009004+46650+008617FM-12+228499999V0201401N005719999999N9999999N1-00731-01071999999ADDMA1999999075631MD1210211+9999ME1313679OA149901541REMSYN076AAXX  10094 06750 33/// /1411 11073 21107 37563 48367 52021 333 91130 91223;
0137067500999992010011010004+46650+008617FM-12+228499999V0201601N005719999999N9999999N1-00711-01031999999ADDMA1999999075671MD1110181+9999ME1313719OA149901131REMSYN076AAXX  10104 06750 33/// /1611 11071 21103 37567 48371 51018 333 91122 91219;
0137067500999992010011011004+46650+008617FM-12+228499999V0201501N009319999999N9999999N1-00721-01071999999ADDMA1999999075701MD1110151+9999ME1313749OA149901131REMSYN076AAXX  10114 06750 33/// /1518 11072 21107 37570 48374 51015 333 91122 91219;
0137067500999992010011012004+46650+008617FM-12+228499999V0201601N007219999999N9999999N1-00721-01051999999ADDMA1999999075721MD1110091+9999ME1313769OA149901541REMSYN076AAXX  10124 06750 33/// /1614 11072 21105 37572 48376 51009 333 91130 91223;
0137067500999992010011013004+46650+008617FM-12+228499999V0201701N005719999999N9999999N1-00711-01071999999ADDMA1999999075731MD1210061+9999ME1313779OA149901081REMSYN076AAXX  10134 06750 33/// /1711 11071 21107 37573 48377 52006 333 91121 91218;
0137067500999992010011014004+46650+008617FM-12+228499999V0201401N003119999999N9999999N1-00831-01121999999ADDMA1999999075761MD1219999+9999ME1313859OA149900821REMSYN076AAXX  10144 06750 33/// /1406 11083 21112 37576 48385 52/// 333 91116 91213;
0137067500999992010011015004+46650+008617FM-12+228499999V0200601N004119999999N9999999N1-00861-01241999999ADDMA1999999075791MD1210071+9999ME1313899OA149901131REMSYN076AAXX  10154 06750 33/// /0608 11086 21124 37579 48389 52007 333 91122 91219;
0137067500999992010011016004+46650+008617FM-12+228499999V0200901N001019999999N9999999N1-00921-01081999999ADDMA1999999075831MD1310101+9999ME1313959OA149900511REMSYN076AAXX  10164 06750 33/// /0902 11092 21108 37583 48395 53010 333 91110 91208;
0137067500999992010011017004+46650+008617FM-12+228499999V0202201N000519999999N9999999N1-00881-01221999999ADDMA1999999075861MD1310101+9999ME1313979OA149900511REMSYN076AAXX  10174 06750 33/// /2201 11088 21122 37586 48397 53010 333 91110 91208;
0156067500999992010011018004+46650+008617FM-12+228499999V0203501N003119999999N9999999N1-00791-01281999999ADDKA1120M-00681MA1999999075911MD1310121+9999ME1313999OA149901441REMSYN082AAXX  10184 06750 33/// /3506 11079 21128 37591 48399 53012 333 11068 91128 91221;
0137067500999992010011019004+46650+008617FM-12+228499999V0200501N001519999999N9999999N1-00821-01381999999ADDMA1999999075941MD1310111+9999ME1314039OA149900461REMSYN076AAXX  10194 06750 33/// /0503 11082 21138 37594 48403 53011 333 91109 91206;
0137067500999992010011020004+46650+008617FM-12+228499999V0202201N001519999999N9999999N1-00851-01281999999ADDMA1999999075971MD1110111+9999ME1314079OA149900411REMSYN076AAXX  10204 06750 33/// /2203 11085 21128 37597 48407 51011 333 91108 91205;
0137067500999992010011021004+46650+008617FM-12+228499999V0201801N000519999999N9999999N1-00861-01711999999ADDMA1999999076001MD1110091+9999ME1314119OA149900511REMSYN076AAXX  10214 06750 33/// /1801 11086 21171 37600 48411 51009 333 91110 91208;
0137067500999992010011022004+46650+008617FM-12+228499999V0202101N001519999999N9999999N1-00781-01741999999ADDMA1999999076011MD1110071+9999ME1314099OA149900261REMSYN076AAXX  10224 06750 33/// /2103 11078 21174 37601 48409 51007 333 91105 91203;
0137067500999992010011023004+46650+008617FM-12+228499999V0202101N001519999999N9999999N1-00771-01801999999ADDMA1999999076011MD1110041+9999ME1314099OA149900211REMSYN076AAXX  10234 06750 33/// /2103 11077 21180 37601 48409 51004 333 91104 91203;
0137067500999992010011100004+46650+008617FM-12+228499999V0202901N000519999999N9999999N1-00741-01531999999ADDMA1999999076011MD1110011+9999ME1314089OA149900821REMSYN076AAXX  11004 06750 33/// /2901 11074 21153 37601 48408 51001 333 91116 91213;
0137067500999992010011101004+46650+008617FM-12+228499999V0203401N000519999999N9999999N1-00741-01751999999ADDMA1999999076021MD1310011+9999ME1314099OA149900151REMSYN076AAXX  11014 06750 33/// /3401 11074 21175 37602 48409 53001 333 91103 91202;
0137067500999992010011102004+46650+008617FM-12+228499999V0203401N002119999999N9999999N1-00751-01731999999ADDMA1999999076031MD1119999+9999ME1314109OA149900261REMSYN076AAXX  11024 06750 33/// /3404 11075 21173 37603 48410 51/// 333 91105 91204;
0137067500999992010011103004+46650+008617FM-12+228499999V0203601N002619999999N9999999N1-00771-01771999999ADDMA1999999076031MD1219999+9999ME1314119OA149900571REMSYN076AAXX  11034 06750 33/// /3605 11077 21177 37603 48411 52/// 333 91111 91208;
0137067500999992010011104004+46650+008617FM-12+228499999V0203501N002619999999N9999999N1-00781-01741999999ADDMA1999999076031MD1210011+9999ME1314119OA149900571REMSYN076AAXX  11044 06750 33/// /3505 11078 21174 37603 48411 52001 333 91111 91208;
0137067500999992010011105004+46650+008617FM-12+228499999V0203601N003619999999N9999999N1-00851-01921999999ADDMA1999999076031MD1010001+9999ME1314139OA149900461REMSYN076AAXX  11054 06750 33/// /3607 11085 21192 37603 48413 50000 333 91109 91207;
0216067500999992010011106004+46650+008617FM-12+228499999V0200201N001519999999N9999999N1-00811-01881999999ADDAA124000091AL19900091GJ104209KA1999N-00911MA1999999076031MD1010001+9999ME1314129OA149900571REMSYN094AAXX  11064 06750 33/// /0203 11081 21188 37603 48412 50000 333 21091 55070 70000 91111 91208;EQDQ01  00002PRCP24
0137067500999992010011107004+46650+008617FM-12+228499999V0203601N001519999999N9999999N1-00861-01341999999ADDMA1999999076051MD1210021+9999ME1314169OA149900511REMSYN076AAXX  11074 06750 33/// /3603 11086 21134 37605 48416 52002 333 91110 91207;
0137067500999992010011108004+46650+008617FM-12+228499999V0203501N002619999999N9999999N1-00851-01201999999ADDMA1999999076071MD1219999+9999ME1314189OA149900461REMSYN076AAXX  11084 06750 33/// /3505 11085 21120 37607 48418 52/// 333 91109 91206;
0137067500999992010011109004+46650+008617FM-12+228499999V0203301N001519999999N9999999N1-00771-01391999999ADDMA1999999076091MD1210061+9999ME1314179OA149900511REMSYN076AAXX  11094 06750 33/// /3303 11077 21139 37609 48417 52006 333 91110 91207;
0137067500999992010011110004+46650+008617FM-12+228499999V0203201N001519999999N9999999N1-00631-01381999999ADDMA1999999076101MD1119999+9999ME1314139OA149900361REMSYN076AAXX  11104 06750 33/// /3203 11063 21138 37610 48413 51/// 333 91107 91205;
0137067500999992010011111004+46650+008617FM-12+228499999V0203501N003119999999N9999999N1-00681-01341999999ADDMA1999999076101MD1110031+9999ME1314159OA149900311REMSYN076AAXX  11114 06750 33/// /3506 11068 21134 37610 48415 51003 333 91106 91206;
0137067500999992010011112004+46650+008617FM-12+228499999V0203101N002119999999N9999999N1-00701-01341999999ADDMA1999999076081MD1810011+9999ME1314149OA149900571REMSYN076AAXX  11124 06750 33/// /3104 11070 21134 37608 48414 58001 333 91111 91208;
0137067500999992010011113004+46650+008617FM-12+228499999V0202401N001519999999N9999999N1-00641-01391999999ADDMA1999999076061MD1810041+9999ME1314109OA149900411REMSYN076AAXX  11134 06750 33/// /2403 11064 21139 37606 48410 58004 333 91108 91206;
0096067500999992010011114004+46650+008617FM-12+228499999V0203301N003619999999N9999999N1-00731-01301999999ADDMA1999999076061ME1314139REMSYN060AAXX  11144 06750 33/// /3307 11073 21130 37606 48413 5////;
0137067500999992010011115004+46650+008617FM-12+228499999V0203501N003119999999N9999999N1-00751-01261999999ADDMA1999999076071MD1510011+9999ME1314149OA149900411REMSYN076AAXX  11154 06750 33/// /3506 11075 21126 37607 48414 55001 333 91108 91207;
0137067500999992010011116004+46650+008617FM-12+228499999V0203501N002119999999N9999999N1-00911-01651999999ADDMA1999999076091MD1210031+9999ME1314229OA149900461REMSYN076AAXX  11164 06750 33/// /3504 11091 21165 37609 48422 52003 333 91109 91207;
0137067500999992010011117004+46650+008617FM-12+228499999V0203501N002119999999N9999999N1-00911-01301999999ADDMA1999999076101MD1310041+9999ME1314239OA149900511REMSYN076AAXX  11174 06750 33/// /3504 11091 21130 37610 48423 53004 333 91110 91207;
0156067500999992010011118004+46650+008617FM-12+228499999V0200101N001519999999N9999999N1-00961-01301999999ADDKA1120M-00611MA1999999076141MD1310071+9999ME1314299OA149900571REMSYN082AAXX  11184 06750 33/// /0103 11096 21130 37614 48429 53007 333 11061 91111 91207;
0137067500999992010011119004+46650+008617FM-12+228499999V0209999C003119999999N9999999N1-00921-01181999999ADDMA1999999076171MD1310081+9999ME1314309OA149900571REMSYN076AAXX  11194 06750 33/// /0006 11092 21118 37617 48430 53008 333 91111 91206;
0137067500999992010011120004+46650+008617FM-12+228499999V0200101N001519999999N9999999N1-00931-01141999999ADDMA1999999076191MD1110091+9999ME1314339OA149900461REMSYN076AAXX  11204 06750 33/// /0103 11093 21114 37619 48433 51009 333 91109 91206;
0137067500999992010011121004+46650+008617FM-12+228499999V0209999C003119999999N9999999N1-00891-01111999999ADDMA1999999076211MD1210071+9999ME1314349OA149900721REMSYN076AAXX  11214 06750 33/// /0006 11089 21111 37621 48434 52007 333 91114 91209;
0137067500999992010011122004+46650+008617FM-12+228499999V0201601N001519999999N9999999N1-00931-01081999999ADDMA1999999076211MD1210041+9999ME1314359OA149900721REMSYN076AAXX  11224 06750 33/// /1603 11093 21108 37621 48435 52004 333 91114 91209;
0137067500999992010011123004+46650+008617FM-12+228499999V0201901N001019999999N9999999N1-00891-01111999999ADDMA1999999076211MD1210021+9999ME1314349OA149900571REMSYN076AAXX  11234 06750 33/// /1902 11089 21111 37621 48434 52002 333 91111 91207;
0137067500999992010011200004+46650+008617FM-12+228499999V0200101N004119999999N9999999N1-00771-01161999999ADDMA1999999076201MD1810011+9999ME1314299OA149900721REMSYN076AAXX  12004 06750 33/// /0108 11077 21116 37620 48429 58001 333 91114 91209;
0137067500999992010011201004+46650+008617FM-12+228499999V0200101N003619999999N9999999N1-00781-01171999999ADDMA1999999076201MD1710011+9999ME1314299OA149900671REMSYN076AAXX  12014 06750 33/// /0107 11078 21117 37620 48429 57001 333 91113 91209;
0137067500999992010011202004+46650+008617FM-12+228499999V0203401N001019999999N9999999N1-00881-01121999999ADDMA1999999076201MD1719999+9999ME1314329OA149900671REMSYN076AAXX  12024 06750 33/// /3402 11088 21112 37620 48432 57/// 333 91113 91209;
0137067500999992010011203004+46650+008617FM-12+228499999V0200501N000519999999N9999999N1-00831-01091999999ADDMA1999999076201MD1410001+9999ME1314319OA149900671REMSYN076AAXX  12034 06750 33/// /0501 11083 21109 37620 48431 54000 333 91113 91209;
0137067500999992010011204004+46650+008617FM-12+228499999V0203401N000519999999N9999999N1-00851-01101999999ADDMA1999999076191MD1710011+9999ME1314309OA149900211REMSYN076AAXX  12044 06750 33/// /3401 11085 21110 37619 48430 57001 333 91104 91203;
0137067500999992010011205004+46650+008617FM-12+228499999V0203301N001019999999N9999999N1-00841-01081999999ADDMA1999999076191MD1510011+9999ME1314309OA149900511REMSYN076AAXX  12054 06750 33/// /3302 11084 21108 37619 48430 55001 333 91110 91205;
0216067500999992010011206004+46650+008617FM-12+228499999V0202001N001519999999N9999999N1-00911-01081999999ADDAA124000091AL19900091GJ103249KA1999N-01031MA1999999076181MD1710021+9999ME1314319OA149900721REMSYN094AAXX  12064 06750 33/// /2003 11091 21108 37618 48431 57002 333 21103 55054 70000 91114 91209;EQDQ01  00002PRCP24
0137067500999992010011207004+46650+008617FM-12+228499999V0202101N002119999999N9999999N1-00851-01121999999ADDMA1999999076171MD1710021+9999ME1314289OA149900311REMSYN076AAXX  12074 06750 33/// /2104 11085 21112 37617 48428 57002 333 91106 91204;
0137067500999992010011208004+46650+008617FM-12+228499999V0201601N002619999999N9999999N1-00921-01161999999ADDMA1999999076161MD1619999+9999ME1314299OA149900311REMSYN076AAXX  12084 06750 33/// /1605 11092 21116 37616 48429 56/// 333 91106 91205;
0137067500999992010011209004+46650+008617FM-12+228499999V0201601N003619999999N9999999N1-00781-01131999999ADDMA1999999076141MD1710041+9999ME1314239OA149900511REMSYN076AAXX  12094 06750 33/// /1607 11078 21113 37614 48423 57004 333 91110 91207;
0137067500999992010011210004+46650+008617FM-12+228499999V0201501N008219999999N9999999N1-00731-01161999999ADDMA1999999076111MD1710061+9999ME1314189OA149901081REMSYN076AAXX  12104 06750 33/// /1516 11073 21116 37611 48418 57006 333 91121 91216;
0137067500999992010011211004+46650+008617FM-12+228499999V0201501N010819999999N9999999N1-00711-01181999999ADDMA1999999076051MD1710111+9999ME1314119OA149901541REMSYN076AAXX  12114 06750 33/// /1521 11071 21118 37605 48411 57011 333 91130 91221;
0137067500999992010011212004+46650+008617FM-12+228499999V0201601N014419999999N9999999N1-00831-01171999999ADDMA1999999076001MD1810141+9999ME1314109OA149902061REMSYN076AAXX  12124 06750 33/// /1628 11083 21117 37600 48410 58014 333 91140 91228;
0137067500999992010011213004+46650+008617FM-12+228499999V0201601N014419999999N9999999N1-00851-01141999999ADDMA1999999075981MD1610131+9999ME1314089OA149902161REMSYN076AAXX  12134 06750 33/// /1628 11085 21114 37598 48408 56013 333 91142 91230;
0096067500999992010011214004+46650+008617FM-12+228499999V0201501N014419999999N9999999N1-00931-01231999999ADDMA1999999075981ME1314119REMSYN060AAXX  12144 06750 33/// /1528 11093 21123 37598 48411 5////;
0137067500999992010011215004+46650+008617FM-12+228499999V0201501N014419999999N9999999N1-00961-01261999999ADDMA1999999075941MD1810061+9999ME1314089OA149902471REMSYN076AAXX  12154 06750 33/// /1528 11096 21126 37594 48408 58006 333 91148 91230;
0137067500999992010011216004+46650+008617FM-12+228499999V0201501N015919999999N9999999N1-01001-01251999999ADDMA1999999075901MD1710081+9999ME1314059OA149902011REMSYN076AAXX  12164 06750 33/// /1531 11100 21125 37590 48405 57008 333 91139 91231;
0137067500999992010011217004+46650+008617FM-12+228499999V0201501N015919999999N9999999N1-01021-01271999999ADDMA1999999075881MD1710101+9999ME1314049OA149901961REMSYN076AAXX  12174 06750 33/// /1531 11102 21127 37588 48404 57010 333 91138 91231;
0156067500999992010011218004+46650+008617FM-12+228499999V0201501N015419999999N9999999N1-01031-01231999999ADDKA1120M-00711MA1999999075881MD1710061+9999ME1314049OA149902471REMSYN082AAXX  12184 06750 33/// /1530 11103 21123 37588 48404 57006 333 11071 91148 91233;
0137067500999992010011219004+46650+008617FM-12+228499999V0201401N016419999999N9999999N1-01041-01251999999ADDMA1999999075871MD1710031+9999ME1314039OA149902111REMSYN076AAXX  12194 06750 33/// /1432 11104 21125 37587 48403 57003 333 91141 91234;
0137067500999992010011220004+46650+008617FM-12+228499999V0201501N015919999999N9999999N1-01051-01311999999ADDMA1999999075871MD1710011+9999ME1314049OA149902261REMSYN076AAXX  12204 06750 33/// /1531 11105 21131 37587 48404 57001 333 91144 91235;
0137067500999992010011221004+46650+008617FM-12+228499999V0201501N017019999999N9999999N1-01051-01371999999ADDMA1999999075861MD1710021+9999ME1314039OA149902261REMSYN076AAXX  12214 06750 33/// /1533 11105 21137 37586 48403 57002 333 91144 91235;
0137067500999992010011222004+46650+008617FM-12+228499999V0201501N016419999999N9999999N1-01031-01351999999ADDMA1999999075821MD1710051+9999ME1313989OA149902261REMSYN076AAXX  12224 06750 33/// /1532 11103 21135 37582 48398 57005 333 91144 91234;
0137067500999992010011223004+46650+008617FM-12+228499999V0201501N013919999999N9999999N1-01011-01291999999ADDMA1999999075771MD1710101+9999ME1313929OA149902261REMSYN076AAXX  12234 06750 33/// /1527 11101 21129 37577 48392 57010 333 91144 91234;
0137067500999992010011300004+46650+008617FM-12+228499999V0202001N010319999999N9999999N1-01041-01191999999ADDMA1999999075781MD1710081+9999ME1313949OA149902471REMSYN076AAXX  13004 06750 33/// /2020 11104 21119 37578 48394 57008 333 91148 91235;
0137067500999992010011301004+46650+008617FM-12+228499999V0201701N010819999999N9999999N1-00991-01241999999ADDMA1999999075781MD1510041+9999ME1313929OA149902061REMSYN076AAXX  13014 06750 33/// /1721 11099 21124 37578 48392 55004 333 91140 91231;
0137067500999992010011302004+46650+008617FM-12+228499999V0201501N010819999999N9999999N1-00951-01301999999ADDMA1999999075741MD1019999+9999ME1313879OA149901751REMSYN076AAXX  13024 06750 33/// /1521 11095 21130 37574 48387 50/// 333 91134 91224;
0137067500999992010011303004+46650+008617FM-12+228499999V0201501N012319999999N9999999N1-00961-01321999999ADDMA1999999075701MD1719999+9999ME1313839OA149902261REMSYN076AAXX  13034 06750 33/// /1524 11096 21132 37570 48383 57/// 333 91144 91234;
0137067500999992010011304004+46650+008617FM-12+228499999V0201501N013419999999N9999999N1-00951-01291999999ADDMA1999999075671MD1610111+9999ME1313799OA149901751REMSYN076AAXX  13044 06750 33/// /1526 11095 21129 37567 48379 56011 333 91134 91226;
0137067500999992010011305004+46650+008617FM-12+228499999V0201701N011319999999N9999999N1-00941-01271999999ADDMA1999999075651MD1710091+9999ME1313779OA149901801REMSYN076AAXX  13054 06750 33/// /1722 11094 21127 37565 48377 57009 333 91135 91227;
0216067500999992010011306004+46650+008617FM-12+228499999V0201601N008719999999N9999999N1-00941-01291999999ADDAA124000091AL19900091GJ103669KA1999N-01071MA1999999075671MD1510031+9999ME1313799OA149902261REMSYN094AAXX  13064 06750 33/// /1617 11094 21129 37567 48379 55003 333 21107 55061 70000 91144 91235;EQDQ01  00002PRCP24
0137067500999992010011307004+46650+008617FM-12+228499999V0201601N009319999999N9999999N1-00921-01271999999ADDMA1999999075721MD1310051+9999ME1313839OA149901651REMSYN076AAXX  13074 06750 33/// /1618 11092 21127 37572 48383 53005 333 91132 91224;
0137067500999992010011308004+46650+008617FM-12+228499999V0201601N007719999999N9999999N1-00921-01241999999ADDMA1999999075741MD1210091+9999ME1313869OA149901491REMSYN076AAXX  13084 06750 33/// /1615 11092 21124 37574 48386 52009 333 91129 91223;
0137067500999992010011309004+46650+008617FM-12+228499999V0201501N008219999999N9999999N1-00901-01191999999ADDMA1999999075781MD1210111+9999ME1313899OA149901801REMSYN076AAXX  13094 06750 33/// /1516 11090 21119 37578 48389 52011 333 91135 91227;
0137067500999992010011310004+46650+008617FM-12+228499999V0201401N007219999999N9999999N1-00871-01131999999ADDMA1999999075811MD1210091+9999ME1313919OA149901291REMSYN076AAXX  13104 06750 33/// /1414 11087 21113 37581 48391 52009 333 91125 91219;
0137067500999992010011311004+46650+008617FM-12+228499999V0201301N005719999999N9999999N1-00831-01181999999ADDMA1999999075801MD1210061+9999ME1313899OA149901291REMSYN076AAXX  13114 06750 33/// /1311 11083 21118 37580 48389 52006 333 91125 91218;
0137067500999992010011312004+46650+008617FM-12+228499999V0201501N006219999999N9999999N1-00771-01201999999ADDMA1999999075781MD1010001+9999ME1313859OA149901801REMSYN076AAXX  13124 06750 33/// /1512 11077 21120 37578 48385 50000 333 91135 91227;
0137067500999992010011313004+46650+008617FM-12+228499999V0201101N004619999999N9999999N1-00771-01141999999ADDMA1999999075771MD1710041+9999ME1313839OA149900981REMSYN076AAXX  13134 06750 33/// /1109 11077 21114 37577 48383 57004 333 91119 91213;
0137067500999992010011314004+46650+008617FM-12+228499999V0200901N005119999999N9999999N1-00721-01121999999ADDMA1999999075781MD1519999+9999ME1313839OA149900881REMSYN076AAXX  13144 06750 33/// /0910 11072 21112 37578 48383 55/// 333 91117 91213;
0137067500999992010011315004+46650+008617FM-12+228499999V0200901N003619999999N9999999N1-00761-01041999999ADDMA1999999075791MD1310011+9999ME1313859OA149901291REMSYN076AAXX  13154 06750 33/// /0907 11076 21104 37579 48385 53001 333 91125 91218;
0137067500999992010011316004+46650+008617FM-12+228499999V0201401N001519999999N9999999N1-00761-00921999999ADDMA1999999075821MD1210051+9999ME1313889OA149900671REMSYN076AAXX  13164 06750 33/// /1403 11076 21092 37582 48388 52005 333 91113 91210;
0137067500999992010011317004+46650+008617FM-12+228499999V0201801N001019999999N9999999N1-00761-00911999999ADDMA1999999075861MD1310081+9999ME1313939OA149900461REMSYN076AAXX  13174 06750 33/// /1802 11076 21091 37586 48393 53008 333 91109 91205;
0156067500999992010011318004+46650+008617FM-12+228499999V0203301N001519999999N9999999N1-00711-00861999999ADDKA1120M-00691MA1999999075891MD1310101+9999ME1313949OA149901491REMSYN082AAXX  13184 06750 33/// /3303 11071 21086 37589 48394 53010 333 11069 91129 91223;
0154067500999992010011319004+46650+008617FM-12+228499999V0209999C002619999999N9999999N1-00711-00801999999ADDAA101000021MA1999999075911MD1210091+9999ME1313969OA149900721REMSYN082AAXX  13194 06750 23/// /0005 11071 21080 37591 48396 52009 333 69915 91114 91205;
0137067500999992010011320004+46650+008617FM-12+228499999V0203601N003619999999N9999999N1-00691-00811999999ADDMA1999999075931MD1210071+9999ME1313989OA149900721REMSYN076AAXX  13204 06750 33/// /3607 11069 21081 37593 48398 52007 333 91114 91209;
0137067500999992010011321004+46650+008617FM-12+228499999V0203501N001019999999N9999999N1-00731-00861999999ADDMA1999999075941MD1210051+9999ME1314009OA149900721REMSYN076AAXX  13214 06750 33/// /3502 11073 21086 37594 48400 52005 333 91114 91209;
0137067500999992010011322004+46650+008617FM-12+228499999V0202201N001519999999N9999999N1-00761-00911999999ADDMA1999999075941MD1210031+9999ME1314019OA149900361REMSYN076AAXX  13224 06750 33/// /2203 11076 21091 37594 48401 52003 333 91107 91205;
0137067500999992010011323004+46650+008617FM-12+228499999V0201901N002119999999N9999999N1-00801-00991999999ADDMA1999999075901MD1710031+9999ME1313989OA149900311REMSYN076AAXX  13234 06750 33/// /1904 11080 21099 37590 48398 57003 333 91106 91204;
0179067500999992010011400004+46650+008617FM-12+228499999V0201601N002619999999N9999999N1-00961-01061999999ADDAA106000091MA1999999075861MD1710081+9999ME1313999OA149900881REMSYN088AAXX  14004 06750 03/// /1605 11096 21106 37586 48399 57008 69911 333 60005 91117 91213;EQDQ01  00002PRCP06
0137067500999992010011401004+46650+008617FM-12+228499999V0201001N006219999999N9999999N1-00691-00971999999ADDMA1999999075821MD1710121+9999ME1313869OA149900821REMSYN076AAXX  14014 06750 33/// /1012 11069 21097 37582 48386 57012 333 91116 91212;
0137067500999992010011402004+46650+008617FM-12+228499999V0201201N006719999999N9999999N1-00661-00991999999ADDMA1999999075821MD1719999+9999ME1313859OA149901081REMSYN076AAXX  14024 06750 33/// /1213 11066 21099 37582 48385 57/// 333 91121 91213;
0096067500999992010011403004+46650+008617FM-12+228499999V0201501N008719999999N9999999N1-00711-00971999999ADDMA1999999075801ME1313859REMSYN060AAXX  14034 06750 33/// /1517 11071 21097 37580 48385 5////;
0137067500999992010011404004+46650+008617FM-12+228499999V0201501N007719999999N9999999N1-00751-01011999999ADDMA1999999075791MD1710031+9999ME1313859OA149901291REMSYN076AAXX  14044 06750 33/// /1515 11075 21101 37579 48385 57003 333 91125 91220;
0137067500999992010011405004+46650+008617FM-12+228499999V0201501N008219999999N9999999N1-00701-01001999999ADDMA1999999075791MD1510031+9999ME1313839OA149901291REMSYN076AAXX  14054 06750 33/// /1516 11070 21100 37579 48383 55003 333 91125 91220;
0255067500999992010011406004+46650+008617FM-12+228499999V0201501N010819999999N9999999N1-00731-01101999999ADDAA112000091AA224000091AL10600091GJ100009KA1999N-00961MA1999999075771MD1710031+9999ME1313829OA149901391REMSYN106AAXX  14064 06750 03/// /1521 11073 21110 37577 48382 57003 69912 333 21096 55000 60005 70001 91127 91222;EQDQ01  00002PRCP24Q02  00002PRCP12
0137067500999992010011407004+46650+008617FM-12+228499999V0201501N011319999999N9999999N1-00771-01101999999ADDMA1999999075781MD1710011+9999ME1313859OA149901651REMSYN076AAXX  14074 06750 33/// /1522 11077 21110 37578 48385 57001 333 91132 91222;
0137067500999992010011408004+46650+008617FM-12+228499999V0201501N013919999999N9999999N1-00781-01361999999ADDMA1999999075791MD1519999+9999ME1313869OA149901851REMSYN076AAXX  14084 06750 33/// /1527 11078 21136 37579 48386 55/// 333 91136 91227;
0137067500999992010011409004+46650+008617FM-12+228499999V0201501N013919999999N9999999N1-00741-01151999999ADDMA1999999075811MD1110041+9999ME1313879OA149901961REMSYN076AAXX  14094 06750 33/// /1527 11074 21115 37581 48387 51004 333 91138 91230;
0137067500999992010011410004+46650+008617FM-12+228499999V0201501N015419999999N9999999N1-00771-01111999999ADDMA1999999075831MD1310051+9999ME1313909OA149902011REMSYN076AAXX  14104 06750 33/// /1530 11077 21111 37583 48390 53005 333 91139 91231;
0137067500999992010011411004+46650+008617FM-12+228499999V0201501N012319999999N9999999N1-00751-01221999999ADDMA1999999075821MD1210031+9999ME1313889OA149902061REMSYN076AAXX  14114 06750 33/// /1524 11075 21122 37582 48388 52003 333 91140 91231;
0137067500999992010011412004+46650+008617FM-12+228499999V0201501N015419999999N9999999N1-00751-01131999999ADDMA1999999075781MD1810031+9999ME1313849OA149902061REMSYN076AAXX  14124 06750 33/// /1530 11075 21113 37578 48384 58003 333 91140 91231;
0137067500999992010011413004+46650+008617FM-12+228499999V0201501N013419999999N9999999N1-00771-01111999999ADDMA1999999075781MD1710051+9999ME1313859OA149902161REMSYN076AAXX  14134 06750 33/// /1526 11077 21111 37578 48385 57005 333 91142 91234;
0137067500999992010011414004+46650+008617FM-12+228499999V0201501N012319999999N9999999N1-00771-01091999999ADDMA1999999075781MD1710041+9999ME1313859OA149902161REMSYN076AAXX  14144 06750 33/// /1524 11077 21109 37578 48385 57004 333 91142 91234;
0137067500999992010011415004+46650+008617FM-12+228499999V0201401N013419999999N9999999N1-00781-01121999999ADDMA1999999075801MD1210021+9999ME1313879OA149902161REMSYN076AAXX  14154 06750 33/// /1426 11078 21112 37580 48387 52002 333 91142 91234;
0137067500999992010011416004+46650+008617FM-12+228499999V0201501N010819999999N9999999N1-00831-01091999999ADDMA1999999075811MD1210031+9999ME1313909OA149902371REMSYN076AAXX  14164 06750 33/// /1521 11083 21109 37581 48390 52003 333 91146 91228;
0137067500999992010011417004+46650+008617FM-12+228499999V0201601N011819999999N9999999N1-00791-01091999999ADDMA1999999075841MD1210061+9999ME1313929OA149902371REMSYN076AAXX  14174 06750 33/// /1623 11079 21109 37584 48392 52006 333 91146 91228;
0156067500999992010011418004+46650+008617FM-12+228499999V0201401N010319999999N9999999N1-00791-01161999999ADDKA1120M-00731MA1999999075871MD1310071+9999ME1313959OA149902371REMSYN082AAXX  14184 06750 33/// /1420 11079 21116 37587 48395 53007 333 11073 91146 91234;
0137067500999992010011419004+46650+008617FM-12+228499999V0201601N009819999999N9999999N1-00761-01161999999ADDMA1999999075941MD1310131+9999ME1314019OA149901491REMSYN076AAXX  14194 06750 33/// /1619 11076 21116 37594 48401 53013 333 91129 91224;
0137067500999992010011420004+46650+008617FM-12+228499999V0201501N010319999999N9999999N1-00801-01131999999ADDMA1999999075981MD1310141+9999ME1314079OA149901441REMSYN076AAXX  14204 06750 33/// /1520 11080 21113 37598 48407 53014 333 91128 91222;
0137067500999992010011421004+46650+008617FM-12+228499999V0201601N009319999999N9999999N1-00801-01111999999ADDMA1999999076031MD1210161+9999ME1314129OA149902371REMSYN076AAXX  14214 06750 33/// /1618 11080 21111 37603 48412 52016 333 91146 91228;
0137067500999992010011422004+46650+008617FM-12+228499999V0201601N006219999999N9999999N1-00801-01091999999ADDMA1999999076091MD1210151+9999ME1314189OA149901341REMSYN076AAXX  14224 06750 33/// /1612 11080 21109 37609 48418 52015 333 91126 91220;
0137067500999992010011423004+46650+008617FM-12+228499999V0201501N004119999999N9999999N1-00811-01111999999ADDMA1999999076121MD1210141+9999ME1314229OA149901341REMSYN076AAXX  14234 06750 33/// /1508 11081 21111 37612 48422 52014 333 91126 91220;
0137067500999992010011500004+46650+008617FM-12+228499999V0200801N003619999999N9999999N1-00591-01201999999ADDMA1999999076141MD1110111+9999ME1314169OA149902371REMSYN076AAXX  15004 06750 33/// /0807 11059 21120 37614 48416 51011 333 91146 91234;
0137067500999992010011501004+46650+008617FM-12+228499999V0209999C002619999999N9999999N1-00461-01231999999ADDMA1999999076161MD1110071+9999ME1314149OA149900511REMSYN076AAXX  15014 06750 33/// /0005 11046 21123 37616 48414 51007 333 91110 91208;
0137067500999992010011502004+46650+008617FM-12+228499999V0200201N004119999999N9999999N1-00431-01811999999ADDMA1999999076201MD1310081+9999ME1314179OA149900621REMSYN076AAXX  15024 06750 33/// /0208 11043 21181 37620 48417 53008 333 91112 91208;
0096067500999992010011503004+46650+008617FM-12+228499999V0200101N004119999999N9999999N1-00531-01361999999ADDMA1999999076271ME1314289REMSYN060AAXX  15034 06750 33/// /0108 11053 21136 37627 48428 5////;
0137067500999992010011504004+46650+008617FM-12+228499999V0200201N004119999999N9999999N1-00501-01541999999ADDMA1999999076311MD1310151+9999ME1314319OA149900771REMSYN076AAXX  15044 06750 33/// /0208 11050 21154 37631 48431 53015 333 91115 91208;
0137067500999992010011505004+46650+008617FM-12+228499999V0200101N004619999999N9999999N1-00631-01711999999ADDMA1999999076381MD1210181+9999ME1314439OA149900771REMSYN076AAXX  15054 06750 33/// /0109 11063 21171 37638 48443 52018 333 91115 91210;
0216067500999992010011506004+46650+008617FM-12+228499999V0200101N005119999999N9999999N1-00551-01831999999ADDAA124000091AL19900091GJ102169KA1999N-00861MA1999999076461MD1310191+9999ME1314499OA149901441REMSYN094AAXX  15064 06750 33/// /0110 11055 21183 37646 48449 53019 333 21086 55036 70000 91128 91222;EQDQ01  00002PRCP24
0137067500999992010011507004+46650+008617FM-12+228499999V0200101N004119999999N9999999N1-00531-02011999999ADDMA1999999076551MD1310241+9999ME1314579OA149900821REMSYN076AAXX  15074 06750 33/// /0108 11053 21201 37655 48457 53024 333 91116 91210;
0137067500999992010011508004+46650+008617FM-12+228499999V0200101N003619999999N9999999N1-00541-01751999999ADDMA1999999076611MD1119999+9999ME1314649OA149900671REMSYN076AAXX  15084 06750 33/// /0107 11054 21175 37661 48464 51/// 333 91113 91208;
0137067500999992010011509004+46650+008617FM-12+228499999V0200101N003619999999N9999999N1-00471-02021999999ADDMA1999999076691MD1110231+9999ME1314709OA149900821REMSYN076AAXX  15094 06750 33/// /0107 11047 21202 37669 48470 51023 333 91116 91210;
0137067500999992010011510004+46650+008617FM-12+228499999V0200101N003119999999N9999999N1-00441-01841999999ADDMA1999999076751MD1210201+9999ME1314769OA149900621REMSYN076AAXX  15104 06750 33/// /0106 11044 21184 37675 48476 52020 333 91112 91209;
0137067500999992010011511004+46650+008617FM-12+228499999V0200101N003119999999N9999999N1-00391-02081999999ADDMA1999999076791MD1110181+9999ME1314789OA149900621REMSYN076AAXX  15114 06750 33/// /0106 11039 21208 37679 48478 51018 333 91112 91209;
0137067500999992010011512004+46650+008617FM-12+228499999V0209999C003619999999N9999999N1-00491-01491999999ADDMA1999999076811MD1110121+9999ME1314839OA149900821REMSYN076AAXX  15124 06750 33/// /0007 11049 21149 37681 48483 51012 333 91116 91210;
0137067500999992010011513004+46650+008617FM-12+228499999V0203601N004619999999N9999999N1-00431-01571999999ADDMA1999999076851MD1310101+9999ME1314869OA149900721REMSYN076AAXX  15134 06750 33/// /3609 11043 21157 37685 48486 53010 333 91114 91210;
0137067500999992010011514004+46650+008617FM-12+228499999V0209999C004119999999N9999999N1-00571-01331999999ADDMA1999999076881MD1310091+9999ME1314939OA149900821REMSYN076AAXX  15144 06750 33/// /0008 11057 21133 37688 48493 53009 333 91116 91210;
0137067500999992010011515004+46650+008617FM-12+228499999V0203601N005719999999N9999999N1-00651-01291999999ADDMA1999999076941MD1310131+9999ME1315029OA149900821REMSYN076AAXX  15154 06750 33/// /3611 11065 21129 37694 48502 53013 333 91116 91211;
0137067500999992010011516004+46650+008617FM-12+228499999V0203601N005119999999N9999999N1-00681-01271999999ADDMA1999999077001MD1210151+9999ME1315099OA149900821REMSYN076AAXX  15164 06750 33/// /3610 11068 21127 37700 48509 52015 333 91116 91211;
0137067500999992010011517004+46650+008617FM-12+228499999V0200101N004119999999N9999999N1-00641-01431999999ADDMA1999999077051MD1110171+9999ME1315139OA149900821REMSYN076AAXX  15174 06750 33/// /0108 11064 21143 37705 48513 51017 333 91116 91211;
0156067500999992010011518004+46650+008617FM-12+228499999V0200501N002119999999N9999999N1-00701-01511999999ADDKA1120M-00311MA1999999077081MD1110141+9999ME1315189OA149900821REMSYN082AAXX  15184 06750 33/// /0504 11070 21151 37708 48518 51014 333 11031 91116 91211;
0137067500999992010011519004+46650+008617FM-12+228499999V0200301N001519999999N9999999N1-00661-01801999999ADDMA1999999077111MD1110111+9999ME1315209OA149900671REMSYN076AAXX  15194 06750 33/// /0303 11066 21180 37711 48520 51011 333 91113 91207;
0137067500999992010011520004+46650+008617FM-12+228499999V0200601N005119999999N9999999N1-00661-01671999999ADDMA1999999077111MD1210061+9999ME1315209OA149900621REMSYN076AAXX  15204 06750 33/// /0610 11066 21167 37711 48520 52006 333 91112 91210;
0137067500999992010011521004+46650+008617FM-12+228499999V0200601N005119999999N9999999N1-00591-01981999999ADDMA1999999077111MD1010031+9999ME1315189OA149900821REMSYN076AAXX  15214 06750 33/// /0610 11059 21198 37711 48518 50003 333 91116 91211;
0137067500999992010011522004+46650+008617FM-12+228499999V0200701N004619999999N9999999N1-00491-02551999999ADDMA1999999077131MD1210021+9999ME1315179OA149900771REMSYN076AAXX  15224 06750 33/// /0709 11049 21255 37713 48517 52002 333 91115 91211;
0137067500999992010011523004+46650+008617FM-12+228499999V0200601N004119999999N9999999N1-00461-02741999999ADDMA1999999077141MD1310031+9999ME1315179OA149900771REMSYN076AAXX  15234 06750 33/// /0608 11046 21274 37714 48517 53003 333 91115 91210;
0137067500999992010011600004+46650+008617FM-12+228499999V0200701N003619999999N9999999N1-00411-02841999999ADDMA1999999077131MD1010021+9999ME1315149OA149900821REMSYN076AAXX  16004 06750 33/// /0707 11041 21284 37713 48514 50002 333 91116 91211;
0137067500999992010011601004+46650+008617FM-12+228499999V0200601N005119999999N9999999N1-00431-02791999999ADDMA1999999077101MD1810031+9999ME1315129OA149900621REMSYN076AAXX  16014 06750 33/// /0610 11043 21279 37710 48512 58003 333 91112 91210;
0137067500999992010011602004+46650+008617FM-12+228499999V0200901N002119999999N9999999N1-00421-02831999999ADDMA1999999077111MD1710031+9999ME1315139OA149900621REMSYN076AAXX  16024 06750 33/// /0904 11042 21283 37711 48513 57003 333 91112 91210;
0137067500999992010011603004+46650+008617FM-12+228499999V0200601N001519999999N9999999N1-00441-02681999999ADDMA1999999077091MD1719999+9999ME1315119OA149900771REMSYN076AAXX  16034 06750 33/// /0603 11044 21268 37709 48511 57/// 333 91115 91210;
0137067500999992010011604004+46650+008617FM-12+228499999V0201501N001519999999N9999999N1-00481-02351999999ADDMA1999999077091MD1710011+9999ME1315129OA149900511REMSYN076AAXX  16044 06750 33/// /1503 11048 21235 37709 48512 57001 333 91110 91208;
0137067500999992010011605004+46650+008617FM-12+228499999V0201001N001019999999N9999999N1-00381-02121999999ADDMA1999999077051MD1710061+9999ME1315059OA149900361REMSYN076AAXX  16054 06750 33/// /1002 11038 21212 37705 48505 57006 333 91107 91206;
0216067500999992010011606004+46650+008617FM-12+228499999V0201301N002619999999N9999999N1-00531-02371999999ADDAA124000091AL19900091GJ103069KA1999N-00701MA1999999077051MD1710041+9999ME1315109OA149900771REMSYN094AAXX  16064 06750 33/// /1305 11053 21237 37705 48510 57004 333 21070 55051 70000 91115 91211;EQDQ01  00002PRCP24
0137067500999992010011607004+46650+008617FM-12+228499999V0201501N004619999999N9999999N1-00421-01921999999ADDMA1999999077061MD1510031+9999ME1315079OA149900571REMSYN076AAXX  16074 06750 33/// /1509 11042 21192 37706 48507 55003 333 91111 91209;
0137067500999992010011608004+46650+008617FM-12+228499999V0201401N005119999999N9999999N1-00471-02251999999ADDMA1999999077041MD1710011+9999ME1315079OA149900671REMSYN076AAXX  16084 06750 33/// /1410 11047 21225 37704 48507 57001 333 91113 91210;
0137067500999992010011609004+46650+008617FM-12+228499999V0201401N006219999999N9999999N1-00301-01971999999ADDMA1999999077041MD1010011+9999ME1315029OA149900931REMSYN076AAXX  16094 06750 33/// /1412 11030 21197 37704 48502 50001 333 91118 91214;
0137067500999992010011610004+46650+008617FM-12+228499999V0201401N007219999999N9999999N1-00151-02321999999ADDMA1999999077021MD1710041+9999ME1314959OA149900981REMSYN076AAXX  16104 06750 33/// /1414 11015 21232 37702 48495 57004 333 91119 91214;
0137067500999992010011611004+46650+008617FM-12+228499999V0201501N006719999999N9999999N1-00151-02061999999ADDMA1999999077001MD1710041+9999ME1314939OA149900981REMSYN076AAXX  16114 06750 33/// /1513 11015 21206 37700 48493 57004 333 91119 91214;
0137067500999992010011612004+46650+008617FM-12+228499999V0201501N007219999999N9999999N1-00181-01951999999ADDMA1999999076971MD1710071+9999ME1314919OA149900981REMSYN076AAXX  16124 06750 33/// /1514 11018 21195 37697 48491 57007 333 91119 91214;
0137067500999992010011613004+46650+008617FM-12+228499999V0201501N005719999999N9999999N1-00211-01781999999ADDMA1999999076921MD1710101+9999ME1314869OA149900981REMSYN076AAXX  16134 06750 33/// /1511 11021 21178 37692 48486 57010 333 91119 91214;
0137067500999992010011614004+46650+008617FM-12+228499999V0201501N006719999999N9999999N1-00211-01811999999ADDMA1999999076901MD1719999+9999ME1314849OA149900881REMSYN076AAXX  16144 06750 33/// /1513 11021 21181 37690 48484 57/// 333 91117 91213;
0137067500999992010011615004+46650+008617FM-12+228499999V0201501N007219999999N9999999N1-00241-01761999999ADDMA1999999076891MD1710081+9999ME1314849OA149901081REMSYN076AAXX  16154 06750 33/// /1514 11024 21176 37689 48484 57008 333 91121 91215;
0137067500999992010011616004+46650+008617FM-12+228499999V0201101N006719999999N9999999N1-00211-01811999999ADDMA1999999076881MD1710041+9999ME1314829OA149901081REMSYN076AAXX  16164 06750 33/// /1113 11021 21181 37688 48482 57004 333 91121 91215;
0137067500999992010011617004+46650+008617FM-12+228499999V0201601N010819999999N9999999N1-00351-01491999999ADDMA1999999076871MD1710031+9999ME1314859OA149901291REMSYN076AAXX  16174 06750 33/// /1621 11035 21149 37687 48485 57003 333 91125 91221;
0156067500999992010011618004+46650+008617FM-12+228499999V0201501N010319999999N9999999N1-00411-01411999999ADDKA1120M-00111MA1999999076871MD1710021+9999ME1314879OA149901491REMSYN082AAXX  16184 06750 33/// /1520 11041 21141 37687 48487 57002 333 11011 91129 91221;
0137067500999992010011619004+46650+008617FM-12+228499999V0201601N013919999999N9999999N1-00521-01301999999ADDMA1999999076851MD1710031+9999ME1314899OA149901851REMSYN076AAXX  16194 06750 33/// /1627 11052 21130 37685 48489 57003 333 91136 91228;
0137067500999992010011620004+46650+008617FM-12+228499999V0201501N015919999999N9999999N1-00461-01401999999ADDMA1999999076811MD1710061+9999ME1314839OA149902011REMSYN076AAXX  16204 06750 33/// /1531 11046 21140 37681 48483 57006 333 91139 91231;
0137067500999992010011621004+46650+008617FM-12+228499999V0201501N015419999999N9999999N1-00501-01391999999ADDMA1999999076761MD1710111+9999ME1314799OA149902211REMSYN076AAXX  16214 06750 33/// /1530 11050 21139 37676 48479 57011 333 91143 91233;
0137067500999992010011622004+46650+008617FM-12+228499999V0201501N015419999999N9999999N1-00581-01311999999ADDMA1999999076751MD1710101+9999ME1314809OA149902211REMSYN076AAXX  16224 06750 33/// /1530 11058 21131 37675 48480 57010 333 91143 91233;
0137067500999992010011623004+46650+008617FM-12+228499999V0201801N010819999999N9999999N1-00681-01271999999ADDMA1999999076721MD1710091+9999ME1314809OA149902161REMSYN076AAXX  16234 06750 33/// /1821 11068 21127 37672 48480 57009 333 91142 91231;
0137067500999992010011700004+46650+008617FM-12+228499999V0201701N009819999999N9999999N1-00731-01201999999ADDMA1999999076741MD1710021+9999ME1314849OA149902211REMSYN076AAXX  17004 06750 33/// /1719 11073 21120 37674 48484 57002 333 91143 91233;
0154067500999992010011701004+46650+008617FM-12+228499999V0201501N007219999999N9999999N1-00731-00881999999ADDAA101000391MA1999999076761MD1310011+9999ME1314869OA149901901REMSYN082AAXX  17014 06750 23/// /1514 11073 21088 37676 48486 53001 333 69935 91137 91223;
0154067500999992010011702004+46650+008617FM-12+228499999V0201601N005119999999N9999999N1-00691-00921999999ADDAA101000591MA1999999076731MD1019999+9999ME1314819OA149901391REMSYN082AAXX  17024 06750 23/// /1610 11069 21092 37673 48481 50/// 333 69945 91127 91218;
0096067500999992010011703004+46650+008617FM-12+228499999V0201801N003119999999N9999999N1-00501-00871999999ADDMA1999999076681ME1314709REMSYN060AAXX  17034 06750 43/// /1806 11050 21087 37668 48470 5////;
0137067500999992010011704004+46650+008617FM-12+228499999V0201901N003619999999N9999999N1-00451-00781999999ADDMA1999999076661MD1710101+9999ME1314669OA149900671REMSYN076AAXX  17044 06750 33/// /1907 11045 21078 37666 48466 57010 333 91113 91209;
0154067500999992010011705004+46650+008617FM-12+228499999V0201701N002119999999N9999999N1-00551-00581999999ADDAA101000021MA1999999076661MD1519999+9999ME1314709OA149900981REMSYN082AAXX  17054 06750 23/// /1704 11055 21058 37666 48470 55/// 333 69925 91119 91213;
0220067500999992010011706004+46650+008617FM-12+228499999V0201801N001519999999N9999999N1-00401-00581999999ADDAA112001091AA224001091AL19900191GJ102769KA1999N-00821MA1999999076641MD1810041+9999ME1314639OA149902211REMSYN106AAXX  17064 06750 03/// /1803 11040 21058 37664 48463 58004 60012 333 21082 55046 69935 70010 91143 91233;
0154067500999992010011707004+46650+008617FM-12+228499999V0202001N000519999999N9999999N1-00411-00601999999ADDAA101000021MA1999999076721MD1310061+9999ME1314729OA149900571REMSYN082AAXX  17074 06750 23/// /2001 11041 21060 37672 48472 53006 333 69925 91111 91207;
0154067500999992010011708004+46650+008617FM-12+228499999V0203101N004119999999N9999999N1-00461-00601999999ADDAA101000021MA1999999076721MD1219999+9999ME1314739OA149900771REMSYN082AAXX  17084 06750 23/// /3108 11046 21060 37672 48473 52/// 333 69915 91115 91209;
0154067500999992010011709004+46650+008617FM-12+228499999V0200401N003119999999N9999999N1-00371-00791999999ADDAA101002091MA1999999076751MD1210111+9999ME1314739OA149901291REMSYN082AAXX  17094 06750 23/// /0406 11037 21079 37675 48473 52011 333 60025 91125 91216;
0137067500999992010011710004+46650+008617FM-12+228499999V0203601N007219999999N9999999N1-00421-00591999999ADDMA1999999076771MD1210051+9999ME1314779OA149901291REMSYN076AAXX  17104 06750 33/// /3614 11042 21059 37677 48477 52005 333 91125 91216;
0154067500999992010011711004+46650+008617FM-12+228499999V0203501N009319999999N9999999N1-00421-00671999999ADDAA101000021MA1999999076791MD1210071+9999ME1314799OA149901491REMSYN082AAXX  17114 06750 23/// /3518 11042 21067 37679 48479 52007 333 69925 91129 91218;
0160067500999992010011712004+46650+008617FM-12+228499999V0203501N009319999999N9999999N1-00481-00681999999ADDAA106002091MA1999999076811MD1210061+9999ME1314839OA149901651REMSYN088AAXX  17124 06750 03/// /3518 11048 21068 37681 48483 52006 60021 333 60005 91132 91218;
0137067500999992010011713004+46650+008617FM-12+228499999V0203401N011319999999N9999999N1-00501-00781999999ADDMA1999999076811MD1210041+9999ME1314849OA149901701REMSYN076AAXX  17134 06750 33/// /3422 11050 21078 37681 48484 52004 333 91133 91222;
0137067500999992010011714004+46650+008617FM-12+228499999V0200101N008219999999N9999999N1-00531-00921999999ADDMA1999999076861MD1219999+9999ME1314909OA149901701REMSYN076AAXX  17144 06750 33/// /0116 11053 21092 37686 48490 52/// 333 91133 91222;
0137067500999992010011715004+46650+008617FM-12+228499999V0200201N007219999999N9999999N1-00591-00981999999ADDMA1999999076931MD1210121+9999ME1314999OA149902011REMSYN076AAXX  17154 06750 33/// /0214 11059 21098 37693 48499 52012 333 91139 91222;
0137067500999992010011716004+46650+008617FM-12+228499999V0200401N007219999999N9999999N1-00681-00981999999ADDMA1999999076981MD1210171+9999ME1315079OA149902011REMSYN076AAXX  17164 06750 33/// /0414 11068 21098 37698 48507 52017 333 91139 91220;
0137067500999992010011717004+46650+008617FM-12+228499999V0200501N005719999999N9999999N1-00721-01081999999ADDMA1999999077051MD1310191+9999ME1315159OA149901901REMSYN076AAXX  17174 06750 33/// /0511 11072 21108 37705 48515 53019 333 91137 91216;
0179067500999992010011718004+46650+008617FM-12+228499999V0200301N006219999999N9999999N1-00781-01101999999ADDAA112002091KA1120M-00281MA1999999077071MD1210141+9999ME1315199OA149902011REMSYN094AAXX  17184 06750 03/// /0312 11078 21110 37707 48519 52014 60022 333 11028 60005 91139 91222;
0137067500999992010011719004+46650+008617FM-12+228499999V0200201N006719999999N9999999N1-00811-01051999999ADDMA1999999077131MD1210151+9999ME1315269OA149901651REMSYN076AAXX  17194 06750 33/// /0213 11081 21105 37713 48526 52015 333 91132 91217;
