0128067560999992010010100004+46467+008933FM-12+055299999V0203501N002119999999N9999999N1+00061+00061099491ADDMA1999999092651MD1810071+9999OA149900461REMSYN076AAXX  01004 06756 33/// /3504 10006 20006 39265 49949 58007 333 91109 91207;
0128067560999992010010101004+46467+008933FM-12+055299999V0203301N002619999999N9999999N1+00061+00061099441ADDMA1999999092611MD1810131+9999OA149900311REMSYN076AAXX  01014 06756 33/// /3305 10006 20006 39261 49944 58013 333 91106 91205;
0128067560999992010010102004+46467+008933FM-12+055299999V0203301N002119999999N9999999N1+00041-00021099411ADDMA1999999092571MD1619999+9999OA149900311REMSYN076AAXX  01024 06756 33/// /3304 10004 21002 39257 49941 56/// 333 91106 91205;
0087067560999992010010103004+46467+008933FM-12+055299999V0203301N001519999999N9999999N1+00061-00031099341ADDMA1999999092511REMSYN060AAXX  01034 06756 43/// /3303 10006 21003 39251 49934 5////;
0087067560999992010010104004+46467+008933FM-12+055299999V0203301N002119999999N9999999N1+00061-00061099281ADDMA1999999092461REMSYN060AAXX  01044 06756 33/// /3304 10006 21006 39246 49928 5////;
0128067560999992010010105004+46467+008933FM-12+055299999V0209999C001519999999N9999999N1+00021-00101099191ADDMA1999999092361MD1810211+9999OA149900311REMSYN076AAXX  01054 06756 33/// /0003 10002 21010 39236 49919 58021 333 91106 91204;
0206067560999992010010106004+46467+008933FM-12+055299999V0203001N001519999999N9999999N1+00111-00081099091ADDAA124002391AL11800291GJ100009IA2999-00209KA1999N-00021MA1999999092291MD1810221+9999OA149900311REMSYN100AAXX  01064 06756 33/// /3003 10011 21008 39229 49909 58022 333 21002 3/102 55000 70023 91106 91205;
0128067560999992010010107004+46467+008933FM-12+055299999V0203101N001019999999N9999999N1+00121-00111099131ADDMA1999999092331MD1510131+9999OA149900311REMSYN076AAXX  01074 06756 33/// /3102 10012 21011 39233 49913 55013 333 91106 91204;
0128067560999992010010108004+46467+008933FM-12+055299999V0203501N001519999999N9999999N1+00071-00131099241ADDMA1999999092421MD1310061+9999OA149900361REMSYN076AAXX  01084 06756 33/// /3503 10007 21013 39242 49924 53006 333 91107 91205;
0128067560999992010010109004+46467+008933FM-12+055299999V0203501N002119999999N9999999N1+00261-00121099231ADDMA1999999092461MD1310171+9999OA149900361REMSYN076AAXX  01094 06756 33/// /3504 10026 21012 39246 49923 53017 333 91107 91205;
0128067560999992010010110004+46467+008933FM-12+055299999V0200201N001519999999N9999999N1+00391-00031099191ADDMA1999999092451MD1010121+9999OA149900311REMSYN076AAXX  01104 06756 33/// /0203 10039 21003 39245 49919 50012 333 91106 91205;
0128067560999992010010111004+46467+008933FM-12+055299999V0209999C000019999999N9999999N1+00561+00011099071ADDMA1999999092381MD1810041+9999OA149900311REMSYN076AAXX  01114 06756 33/// /0000 10056 20001 39238 49907 58004 333 91106 91204;
0128067560999992010010112004+46467+008933FM-12+055299999V0203401N001019999999N9999999N1+00481+00081099071ADDMA1999999092361MD1610101+9999OA149900361REMSYN076AAXX  01124 06756 33/// /3402 10048 20008 39236 49907 56010 333 91107 91205;
0128067560999992010010113004+46467+008933FM-12+055299999V0203301N001019999999N9999999N1+00501+00101099021ADDMA1999999092321MD1610131+9999OA149900211REMSYN076AAXX  01134 06756 33/// /3302 10050 20010 39232 49902 56013 333 91104 91203;
0128067560999992010010114004+46467+008933FM-12+055299999V0209999C001019999999N9999999N1+00481+00061099031ADDMA1999999092331MD1719999+9999OA149900211REMSYN076AAXX  01144 06756 33/// /0002 10048 20006 39233 49903 57/// 333 91104 91203;
0128067560999992010010115004+46467+008933FM-12+055299999V0203101N001519999999N9999999N1+00421+00071099141ADDMA1999999092411MD1310051+9999OA149900311REMSYN076AAXX  01154 06756 33/// /3103 10042 20007 39241 49914 53005 333 91106 91204;
0128067560999992010010116004+46467+008933FM-12+055299999V0203301N001519999999N9999999N1+00401+00041099231ADDMA1999999092491MD1310171+9999OA149900261REMSYN076AAXX  01164 06756 33/// /3303 10040 20004 39249 49923 53017 333 91105 91203;
0128067560999992010010117004+46467+008933FM-12+055299999V0203401N001019999999N9999999N1+00311+00041099311ADDMA1999999092551MD1310221+9999OA149900261REMSYN076AAXX  01174 06756 33/// /3402 10031 20004 39255 49931 53022 333 91105 91203;
0147067560999992010010118004+46467+008933FM-12+055299999V0203201N001519999999N9999999N1+00281+00031099411ADDKA1120M+00561MA1999999092631MD1110221+9999OA149900361REMSYN082AAXX  01184 06756 33/// /3203 10028 20003 39263 49941 51022 333 10056 91107 91205;
0128067560999992010010119004+46467+008933FM-12+055299999V0202901N000519999999N9999999N1+00251+00001099571ADDMA1999999092771MD1310281+9999OA149900261REMSYN076AAXX  01194 06756 33/// /2901 10025 20000 39277 49957 53028 333 91105 91203;
0128067560999992010010120004+46467+008933FM-12+055299999V0202701N001519999999N9999999N1+00311-00011099611ADDMA1999999092831MD1210281+9999OA149900361REMSYN076AAXX  01204 06756 33/// /2703 10031 21001 39283 49961 52028 333 91107 91204;
0128067560999992010010121004+46467+008933FM-12+055299999V0203501N002619999999N9999999N1+00231-00051099741ADDMA1999999092931MD1110301+9999OA149900361REMSYN076AAXX  01214 06756 33/// /3505 10023 21005 39293 49974 51030 333 91107 91205;
0128067560999992010010122004+46467+008933FM-12+055299999V0203201N001519999999N9999999N1+00261-00181099801ADDMA1999999092991MD1210221+9999OA149900361REMSYN076AAXX  01224 06756 33/// /3203 10026 21018 39299 49980 52022 333 91107 91205;
0128067560999992010010123004+46467+008933FM-12+055299999V0203301N002119999999N9999999N1+00401-00271099861ADDMA1999999093081MD1210251+9999OA149900361REMSYN076AAXX  01234 06756 33/// /3304 10040 21027 39308 49986 52025 333 91107 91204;
0128067560999992010010200004+46467+008933FM-12+055299999V0203601N004619999999N9999999N1+00571-00591099881ADDMA1999999093141MD1210211+9999OA149900621REMSYN076AAXX  02004 06756 33/// /3609 10057 21059 39314 49988 52021 333 91112 91209;
0128067560999992010010201004+46467+008933FM-12+055299999V0203501N003619999999N9999999N1+00531-00631099971ADDMA1999999093211MD1110221+9999OA149900671REMSYN076AAXX  02014 06756 33/// /3507 10053 21063 39321 49997 51022 333 91113 91209;
0087067560999992010010202004+46467+008933FM-12+055299999V0203401N001019999999N9999999N1+00491-00621100081ADDMA1999999093311REMSYN060AAXX  02024 06756 33/// /3402 10049 21062 39331 40008 5////;
0128067560999992010010203004+46467+008933FM-12+055299999V0203501N004119999999N9999999N1+00471-00681100161ADDMA1999999093381MD1110241+9999OA149900721REMSYN076AAXX  02034 06756 33/// /3508 10047 21068 39338 40016 51024 333 91114 91209;
0128067560999992010010204004+46467+008933FM-12+055299999V0203201N005719999999N9999999N1+00611-00941100231ADDMA1999999093481MD1210271+9999OA149901181REMSYN076AAXX  02044 06756 33/// /3211 10061 21094 39348 40023 52027 333 91123 91212;
0128067560999992010010205004+46467+008933FM-12+055299999V0203201N007219999999N9999999N1+00521-01101100381ADDMA1999999093591MD1310281+9999OA149901441REMSYN076AAXX  02054 06756 33/// /3214 10052 21110 39359 40038 53028 333 91128 91215;
0225067560999992010010206004+46467+008933FM-12+055299999V0203301N005719999999N9999999N1+00421-01201100531ADDAA124000091AL19900091GJ101029IA2999+00009KA1999N+00191MA1999999093711MD1310331+9999OA149901441REMSYN100AAXX  02064 06756 33/// /3311 10042 21120 39371 40053 53033 333 20019 3/100 55017 70000 91128 91215;EQDQ01  00002PRCP24
0128067560999992010010207004+46467+008933FM-12+055299999V0203201N006719999999N9999999N1+00341-01221100681ADDMA1999999093831MD1210351+9999OA149901491REMSYN076AAXX  02074 06756 33/// /3213 10034 21122 39383 40068 52035 333 91129 91216;
0087067560999992010010208004+46467+008933FM-12+055299999V0203201N006719999999N9999999N1+00301-01291100821ADDMA1999999093951REMSYN060AAXX  02084 06756 33/// /3213 10030 21129 39395 40082 5////;
0128067560999992010010209004+46467+008933FM-12+055299999V0203401N007719999999N9999999N1+00311-01281100981ADDMA1999999094101MD1310391+9999OA149901491REMSYN076AAXX  02094 06756 33/// /3415 10031 21128 39410 40098 53039 333 91129 91217;
0128067560999992010010210004+46467+008933FM-12+055299999V0203101N008219999999N9999999N1+00361-01261101061ADDMA1999999094191MD1110361+9999OA149901441REMSYN076AAXX  02104 06756 33/// /3116 10036 21126 39419 40106 51036 333 91128 91217;
0128067560999992010010211004+46467+008933FM-12+055299999V0203301N006719999999N9999999N1+00331-01341101121ADDMA1999999094241MD1210291+9999OA149901441REMSYN076AAXX  02114 06756 33/// /3313 10033 21134 39424 40112 52029 333 91128 91216;
0128067560999992010010212004+46467+008933FM-12+055299999V0203201N007219999999N9999999N1+00311-01471101241ADDMA1999999094341MD1210241+9999OA149901491REMSYN076AAXX  02124 06756 33/// /3214 10031 21147 39434 40124 52024 333 91129 91217;
0128067560999992010010213004+46467+008933FM-12+055299999V0203301N005119999999N9999999N1+00201-01451101331ADDMA1999999094401MD1210211+9999OA149901491REMSYN076AAXX  02134 06756 33/// /3310 10020 21145 39440 40133 52021 333 91129 91216;
0128067560999992010010214004+46467+008933FM-12+055299999V0203401N009819999999N9999999N1+00091-01391101461ADDMA1999999094491MD1219999+9999OA149901601REMSYN076AAXX  02144 06756 33/// /3419 10009 21139 39449 40146 52/// 333 91131 91219;
0128067560999992010010215004+46467+008933FM-12+055299999V0203301N008719999999N9999999N1+00051-01491101531ADDMA1999999094551MD1310211+9999OA149901651REMSYN076AAXX  02154 06756 33/// /3317 10005 21149 39455 40153 53021 333 91132 91219;
0128067560999992010010216004+46467+008933FM-12+055299999V0203401N008719999999N9999999N1+00051-01641101631ADDMA1999999094641MD1310241+9999OA149901751REMSYN076AAXX  02164 06756 33/// /3417 10005 21164 39464 40163 53024 333 91134 91217;
0128067560999992010010217004+46467+008933FM-12+055299999V0203301N008719999999N9999999N1+00031-01631101691ADDMA1999999094691MD1310201+9999OA149901751REMSYN076AAXX  02174 06756 33/// /3317 10003 21163 39469 40169 53020 333 91134 91218;
0147067560999992010010218004+46467+008933FM-12+055299999V0203201N007719999999N9999999N1+00021-01631101771ADDKA1120M+00451MA1999999094771MD1110221+9999OA149901851REMSYN082AAXX  02184 06756 33/// /3215 10002 21163 39477 40177 51022 333 10045 91136 91219;
0128067560999992010010219004+46467+008933FM-12+055299999V0203301N006719999999N9999999N1+00001-01541101891ADDMA1999999094871MD1310231+9999OA149901851REMSYN076AAXX  02194 06756 33/// /3313 10000 21154 39487 40189 53023 333 91136 91218;
0128067560999992010010220004+46467+008933FM-12+055299999V0203001N006719999999N9999999N1+00001-01661101881ADDMA1999999094861MD1210171+9999OA149901601REMSYN076AAXX  02204 06756 33/// /3013 10000 21166 39486 40188 52017 333 91131 91216;
0128067560999992010010221004+46467+008933FM-12+055299999V0203301N007219999999N9999999N1-00011-01721101901ADDMA1999999094881MD1010111+9999OA149901851REMSYN076AAXX  02214 06756 33/// /3314 11001 21172 39488 40190 50011 333 91136 91218;
0128067560999992010010222004+46467+008933FM-12+055299999V0203401N007219999999N9999999N1-00051-01661101931ADDMA1999999094901MD1210031+9999OA149901291REMSYN076AAXX  02224 06756 33/// /3414 11005 21166 39490 40193 52003 333 91125 91214;
0128067560999992010010223004+46467+008933FM-12+055299999V0203301N005119999999N9999999N1-00011-01771101941ADDMA1999999094921MD1210061+9999OA149901391REMSYN076AAXX  02234 06756 33/// /3310 11001 21177 39492 40194 52006 333 91127 91215;
0128067560999992010010300004+46467+008933FM-12+055299999V0203401N003119999999N9999999N1-00111-01631102041ADDMA1999999094981MD1210101+9999OA149901851REMSYN076AAXX  03004 06756 33/// /3406 11011 21163 39498 40204 52010 333 91136 91219;
0128067560999992010010301004+46467+008933FM-12+055299999V0203501N001519999999N9999999N1-00181-01641102061ADDMA1999999094981MD1210081+9999OA149901081REMSYN076AAXX  03014 06756 33/// /3503 11018 21164 39498 40206 52008 333 91121 91209;
0087067560999992010010302004+46467+008933FM-12+055299999V0201901N001519999999N9999999N1-00281-01511102141ADDMA1999999095031REMSYN060AAXX  03024 06756 33/// /1903 11028 21151 39503 40214 5////;
0087067560999992010010303004+46467+008933FM-12+055299999V0203401N000519999999N9999999N1-00511-01311102231ADDMA1999999095061REMSYN060AAXX  03034 06756 33/// /3401 11051 21131 39506 40223 5////;
0128067560999992010010304004+46467+008933FM-12+055299999V0203301N001019999999N9999999N1-00521-01341102201ADDMA1999999095031MD1010051+9999OA149900261REMSYN076AAXX  03044 06756 33/// /3302 11052 21134 39503 40220 50005 333 91105 91203;
0128067560999992010010305004+46467+008933FM-12+055299999V0203201N001519999999N9999999N1-00511-01251102291ADDMA1999999095111MD1219999+9999OA149900361REMSYN076AAXX  03054 06756 33/// /3203 11051 21125 39511 40229 52/// 333 91107 91205;
0225067560999992010010306004+46467+008933FM-12+055299999V0203501N002119999999N9999999N1-00511-01421102221ADDAA124000091AL19900091GJ102589IA2999-00909KA1999N-00601MA1999999095051MD1810011+9999OA149901601REMSYN100AAXX  03064 06756 33/// /3504 11051 21142 39505 40222 58001 333 21060 3/109 55043 70000 91131 91216;EQDQ01  00002PRCP24
0128067560999992010010307004+46467+008933FM-12+055299999V0202801N001519999999N9999999N1-00491-01291102271ADDMA1999999095101MD1210071+9999OA149900361REMSYN076AAXX  03074 06756 33/// /2803 11049 21129 39510 40227 52007 333 91107 91204;
0128067560999992010010308004+46467+008933FM-12+055299999V0200101N000519999999N9999999N1-00531-01311102351ADDMA1999999095161MD1319999+9999OA149900311REMSYN076AAXX  03084 06756 33/// /0101 11053 21131 39516 40235 53/// 333 91106 91204;
0128067560999992010010309004+46467+008933FM-12+055299999V0203301N003119999999N9999999N1-00321-01411102341ADDMA1999999095211MD1210161+9999OA149900411REMSYN076AAXX  03094 06756 33/// /3306 11032 21141 39521 40234 52016 333 91108 91206;
0128067560999992010010310004+46467+008933FM-12+055299999V0203501N001519999999N9999999N1-00171-01291102281ADDMA1999999095191MD1010091+9999OA149900461REMSYN076AAXX  03104 06756 33/// /3503 11017 21129 39519 40228 50009 333 91109 91206;
0128067560999992010010311004+46467+008933FM-12+055299999V0200801N000519999999N9999999N1+00041-01481102101ADDMA1999999095081MD1810081+9999OA149900461REMSYN076AAXX  03114 06756 33/// /0801 10004 21148 39508 40210 58008 333 91109 91205;
0128067560999992010010312004+46467+008933FM-12+055299999V0201401N001019999999N9999999N1+00081-01661102061ADDMA1999999095051MD1710161+9999OA149901081REMSYN076AAXX  03124 06756 33/// /1402 10008 21166 39505 40206 57016 333 91121 91208;
0128067560999992010010313004+46467+008933FM-12+055299999V0201701N001519999999N9999999N1+00041-01521102051ADDMA1999999095031MD1710161+9999OA149900311REMSYN076AAXX  03134 06756 33/// /1703 10004 21152 39503 40205 57016 333 91106 91203;
0128067560999992010010314004+46467+008933FM-12+055299999V0203601N000519999999N9999999N1-00211-01011102141ADDMA1999999095051MD1510031+9999OA149900461REMSYN076AAXX  03144 06756 33/// /3601 11021 21101 39505 40214 55003 333 91109 91206;
0128067560999992010010315004+46467+008933FM-12+055299999V0202901N001019999999N9999999N1-00321-01111102201ADDMA1999999095081MD1310031+9999OA149900461REMSYN076AAXX  03154 06756 33/// /2902 11032 21111 39508 40220 53003 333 91109 91206;
0128067560999992010010316004+46467+008933FM-12+055299999V0203301N001519999999N9999999N1-00391-01171102231ADDMA1999999095091MD1210061+9999OA149900261REMSYN076AAXX  03164 06756 33/// /3303 11039 21117 39509 40223 52006 333 91105 91203;
0147067560999992010010317004+46467+008933FM-12+055299999V0203001N001519999999N9999999N1-00411-01141102191ADDMA1999999095051MD1810051+9999OA149900261REMSYN076AAXX  03174 06756 33/// /3003 11041 21114 39505 40219 58000 333 91105 91203;EQDQ01+000002APC3  
0147067560999992010010318004+46467+008933FM-12+055299999V0203301N001519999999N9999999N1-00421-01311102211ADDKA1120M+00081MA1999999095061MD1710021+9999OA149900461REMSYN082AAXX  03184 06756 33/// /3303 11042 21131 39506 40221 57002 333 10008 91109 91206;
0128067560999992010010319004+46467+008933FM-12+055299999V0203201N002619999999N9999999N1-00381-01321102211ADDMA1999999095071MD1510021+9999OA149900361REMSYN076AAXX  03194 06756 33/// /3205 11038 21132 39507 40221 55002 333 91107 91205;
0128067560999992010010320004+46467+008933FM-12+055299999V0203301N002119999999N9999999N1-00461-01291102221ADDMA1999999095061MD1010011+9999OA149900361REMSYN076AAXX  03204 06756 33/// /3304 11046 21129 39506 40222 50001 333 91107 91206;
0128067560999992010010321004+46467+008933FM-12+055299999V0203101N001019999999N9999999N1-00531-01301102231ADDMA1999999095051MD1510011+9999OA149900361REMSYN076AAXX  03214 06756 33/// /3102 11053 21130 39505 40223 55001 333 91107 91206;
0128067560999992010010322004+46467+008933FM-12+055299999V0203301N002119999999N9999999N1-00581-01281102301ADDMA1999999095101MD1210031+9999OA149900361REMSYN076AAXX  03224 06756 33/// /3304 11058 21128 39510 40230 52003 333 91107 91204;
0128067560999992010010323004+46467+008933FM-12+055299999V0203101N002119999999N9999999N1-00511-01401102281ADDMA1999999095101MD1210041+9999OA149900311REMSYN076AAXX  03234 06756 33/// /3104 11051 21140 39510 40228 52004 333 91106 91204;
0128067560999992010010400004+46467+008933FM-12+055299999V0203201N001519999999N9999999N1-00631-01261102281ADDMA1999999095071MD1010021+9999OA149900461REMSYN076AAXX  04004 06756 33/// /3203 11063 21126 39507 40228 50002 333 91109 91206;
0128067560999992010010401004+46467+008933FM-12+055299999V0203301N002119999999N9999999N1-00521-01391102161ADDMA1999999094991MD1810111+9999OA149900361REMSYN076AAXX  04014 06756 33/// /3304 11052 21139 39499 40216 58011 333 91107 91205;
0128067560999992010010402004+46467+008933FM-12+055299999V0203301N001519999999N9999999N1-00561-01271102141ADDMA1999999094961MD1710141+9999OA149900361REMSYN076AAXX  04024 06756 33/// /3303 11056 21127 39496 40214 57014 333 91107 91205;
0128067560999992010010403004+46467+008933FM-12+055299999V0203101N002119999999N9999999N1-00491-01291102081ADDMA1999999094921MD1719999+9999OA149900361REMSYN076AAXX  04034 06756 33/// /3104 11049 21129 39492 40208 57/// 333 91107 91205;
0128067560999992010010404004+46467+008933FM-12+055299999V0203201N001519999999N9999999N1-00461-01191102041ADDMA1999999094891MD1710101+9999OA149900411REMSYN076AAXX  04044 06756 33/// /3203 11046 21119 39489 40204 57010 333 91108 91205;
0128067560999992010010405004+46467+008933FM-12+055299999V0203301N001519999999N9999999N1-00551-01181102011ADDMA1999999094841MD1710121+9999OA149900411REMSYN076AAXX  04054 06756 33/// /3303 11055 21118 39484 40201 57012 333 91108 91205;
0225067560999992010010406004+46467+008933FM-12+055299999V0202601N000519999999N9999999N1-00491-01241101981ADDAA124000091AL19900091GJ102589IA2999-00909KA1999N-00651MA1999999094831MD1710091+9999OA149900411REMSYN100AAXX  04064 06756 33/// /2601 11049 21124 39483 40198 57009 333 21065 3/109 55043 70000 91108 91206;EQDQ01  00002PRCP24
0128067560999992010010407004+46467+008933FM-12+055299999V0203301N001519999999N9999999N1-00431-01221101971ADDMA1999999094841MD1510051+9999OA149900311REMSYN076AAXX  04074 06756 33/// /3303 11043 21122 39484 40197 55005 333 91106 91204;
0128067560999992010010408004+46467+008933FM-12+055299999V0203401N001019999999N9999999N1-00461-01141102001ADDMA1999999094861MD1210021+9999OA149900311REMSYN076AAXX  04084 06756 33/// /3402 11046 21114 39486 40200 52002 333 91106 91204;
0128067560999992010010409004+46467+008933FM-12+055299999V0203401N001519999999N9999999N1-00281-01161101981ADDMA1999999094881MD1210051+9999OA149900411REMSYN076AAXX  04094 06756 33/// /3403 11028 21116 39488 40198 52005 333 91108 91205;
0128067560999992010010410004+46467+008933FM-12+055299999V0200101N001019999999N9999999N1-00071-01411101891ADDMA1999999094851MD1010011+9999OA149900211REMSYN076AAXX  04104 06756 33/// /0102 11007 21141 39485 40189 50001 333 91104 91203;
0128067560999992010010411004+46467+008933FM-12+055299999V0201501N001519999999N9999999N1-00141-01351101821ADDMA1999999094771MD1710091+9999OA149900311REMSYN076AAXX  04114 06756 33/// /1503 11014 21135 39477 40182 57009 333 91106 91204;
0128067560999992010010412004+46467+008933FM-12+055299999V0209999C000019999999N9999999N1-00111-01381101751ADDMA1999999094711MD1810171+9999OA149900411REMSYN076AAXX  04124 06756 33/// /0000 11011 21138 39471 40175 58017 333 91108 91205;
0128067560999992010010413004+46467+008933FM-12+055299999V0200201N001019999999N9999999N1-00051-01351101601ADDMA1999999094591MD1810261+9999OA149900311REMSYN076AAXX  04134 06756 33/// /0202 11005 21135 39459 40160 58026 333 91106 91203;
0128067560999992010010414004+46467+008933FM-12+055299999V0201601N002619999999N9999999N1-00111-01291101541ADDMA1999999094521MD1819999+9999OA149900361REMSYN076AAXX  04144 06756 33/// /1605 11011 21129 39452 40154 58/// 333 91107 91205;
0128067560999992010010415004+46467+008933FM-12+055299999V0201601N001519999999N9999999N1-00161-01281101541ADDMA1999999094511MD1610201+9999OA149900461REMSYN076AAXX  04154 06756 33/// /1603 11016 21128 39451 40154 56020 333 91109 91205;
0128067560999992010010416004+46467+008933FM-12+055299999V0209999C000019999999N9999999N1-00271-00951101611ADDMA1999999094541MD1510051+9999OA149900361REMSYN076AAXX  04164 06756 33/// /0000 11027 21095 39454 40161 55005 333 91107 91204;
0128067560999992010010417004+46467+008933FM-12+055299999V0203301N001019999999N9999999N1-00401-00941101601ADDMA1999999094501MD1819999+9999OA149900211REMSYN076AAXX  04174 06756 33/// /3302 11040 21094 39450 40160 58/// 333 91104 91203;
0147067560999992010010418004+46467+008933FM-12+055299999V0203301N000519999999N9999999N1-00451-01021101601ADDKA1120M-00051MA1999999094491MD1710021+9999OA149900461REMSYN082AAXX  04184 06756 33/// /3301 11045 21102 39449 40160 57002 333 11005 91109 91205;
0128067560999992010010419004+46467+008933FM-12+055299999V0203401N001519999999N9999999N1-00451-01031101571ADDMA1999999094461MD1610081+9999OA149900311REMSYN076AAXX  04194 06756 33/// /3403 11045 21103 39446 40157 56008 333 91106 91205;
0128067560999992010010420004+46467+008933FM-12+055299999V0203301N001019999999N9999999N1-00471-01101101531ADDMA1999999094421MD1810081+9999OA149900311REMSYN076AAXX  04204 06756 33/// /3302 11047 21110 39442 40153 58008 333 91106 91205;
0128067560999992010010421004+46467+008933FM-12+055299999V0203501N001019999999N9999999N1-00561-01071101531ADDMA1999999094391MD1810101+9999OA149900311REMSYN076AAXX  04214 06756 33/// /3502 11056 21107 39439 40153 58010 333 91106 91205;
0128067560999992010010422004+46467+008933FM-12+055299999V0203301N001519999999N9999999N1-00511-01081101491ADDMA1999999094371MD1610091+9999OA149900261REMSYN076AAXX  04224 06756 33/// /3303 11051 21108 39437 40149 56009 333 91105 91204;
0128067560999992010010423004+46467+008933FM-12+055299999V0203401N002119999999N9999999N1-00461-01111101481ADDMA1999999094371MD1710051+9999OA149900261REMSYN076AAXX  04234 06756 33/// /3404 11046 21111 39437 40148 57005 333 91105 91204;
0128067560999992010010500004+46467+008933FM-12+055299999V0203401N001519999999N9999999N1-00511-00971101451ADDMA1999999094331MD1710061+9999OA149900461REMSYN076AAXX  05004 06756 33/// /3403 11051 21097 39433 40145 57006 333 91109 91205;
0128067560999992010010501004+46467+008933FM-12+055299999V0203201N002119999999N9999999N1-00481-01041101341ADDMA1999999094241MD1710131+9999OA149900261REMSYN076AAXX  05014 06756 33/// /3204 11048 21104 39424 40134 57013 333 91105 91204;
0128067560999992010010502004+46467+008933FM-12+055299999V0203401N001519999999N9999999N1-00531-01061101311ADDMA1999999094201MD1810171+9999OA149900311REMSYN076AAXX  05024 06756 33/// /3403 11053 21106 39420 40131 58017 333 91106 91204;
0128067560999992010010503004+46467+008933FM-12+055299999V0203301N002619999999N9999999N1-00491-01101101241ADDMA1999999094141MD1610191+9999OA149900311REMSYN076AAXX  05034 06756 33/// /3305 11049 21110 39414 40124 56019 333 91106 91205;
0128067560999992010010504004+46467+008933FM-12+055299999V0203401N002119999999N9999999N1-00551-01071101171ADDMA1999999094061MD1810181+9999OA149900311REMSYN076AAXX  05044 06756 33/// /3404 11055 21107 39406 40117 58018 333 91106 91205;
0128067560999992010010505004+46467+008933FM-12+055299999V0203401N001519999999N9999999N1-00641-01041101151ADDMA1999999094021MD1610181+9999OA149900311REMSYN076AAXX  05054 06756 33/// /3403 11064 21104 39402 40115 56018 333 91106 91204;
0225067560999992010010506004+46467+008933FM-12+055299999V0203401N002619999999N9999999N1-00541-01071101111ADDAA124000091AL19900091GJ100909IA2999-00909KA1999N-00641MA1999999094011MD1710131+9999OA149900311REMSYN100AAXX  05064 06756 33/// /3405 11054 21107 39401 40111 57013 333 21064 3/109 55015 70000 91106 91205;EQDQ01  00002PRCP24
0128067560999992010010507004+46467+008933FM-12+055299999V0203301N002119999999N9999999N1-00571-01071101111ADDMA1999999094001MD1710061+9999OA149900361REMSYN076AAXX  05074 06756 33/// /3304 11057 21107 39400 40111 57006 333 91107 91205;
0128067560999992010010508004+46467+008933FM-12+055299999V0203301N002619999999N9999999N1-00501-01091101091ADDMA1999999094001MD1710021+9999OA149900361REMSYN076AAXX  05084 06756 33/// /3305 11050 21109 39400 40109 57002 333 91107 91205;
0128067560999992010010509004+46467+008933FM-12+055299999V0203401N001519999999N9999999N1-00461-01021101031ADDMA1999999093951MD1810061+9999OA149900361REMSYN076AAXX  05094 06756 33/// /3403 11046 21102 39395 40103 58006 333 91107 91205;
0128067560999992010010510004+46467+008933FM-12+055299999V0203401N001519999999N9999999N1-00291-00991100921ADDMA1999999093901MD1810101+9999OA149900311REMSYN076AAXX  05104 06756 33/// /3403 11029 21099 39390 40092 58010 333 91106 91205;
0128067560999992010010511004+46467+008933FM-12+055299999V0203501N001019999999N9999999N1-00061-00961100771ADDMA1999999093811MD1810191+9999OA149900261REMSYN076AAXX  05114 06756 33/// /3502 11006 21096 39381 40077 58019 333 91105 91204;
0128067560999992010010512004+46467+008933FM-12+055299999V0209999C000019999999N9999999N1+00081-01001100611ADDMA1999999093701MD1810251+9999OA149900361REMSYN076AAXX  05124 06756 33/// /0000 10008 21100 39370 40061 58025 333 91107 91205;
0128067560999992010010513004+46467+008933FM-12+055299999V0201601N003119999999N9999999N1+00051-00941100511ADDMA1999999093601MD1710301+9999OA149900411REMSYN076AAXX  05134 06756 33/// /1606 10005 21094 39360 40051 57030 333 91108 91206;
0087067560999992010010514004+46467+008933FM-12+055299999V0201501N001019999999N9999999N1-00011-00921100481ADDMA1999999093561REMSYN060AAXX  05144 06756 33/// /1502 11001 21092 39356 40048 5////;
0128067560999992010010515004+46467+008933FM-12+055299999V0203201N000519999999N9999999N1-00101-00681100501ADDMA1999999093551MD1710151+9999OA149900411REMSYN076AAXX  05154 06756 33/// /3201 11010 21068 39355 40050 57015 333 91108 91206;
0128067560999992010010516004+46467+008933FM-12+055299999V0203101N001519999999N9999999N1-00171-00731100451ADDMA1999999093491MD1710111+9999OA149900211REMSYN076AAXX  05164 06756 33/// /3103 11017 21073 39349 40045 57011 333 91104 91203;
0128067560999992010010517004+46467+008933FM-12+055299999V0203101N001519999999N9999999N1-00161-00761100431ADDMA1999999093471MD1710091+9999OA149900311REMSYN076AAXX  05174 06756 33/// /3103 11016 21076 39347 40043 57009 333 91106 91203;
0147067560999992010010518004+46467+008933FM-12+055299999V0203201N002119999999N9999999N1-00151-00761100381ADDKA1120M+00151MA1999999093431MD1710121+9999OA149900411REMSYN082AAXX  05184 06756 33/// /3204 11015 21076 39343 40038 57012 333 10015 91108 91206;
0128067560999992010010519004+46467+008933FM-12+055299999V0203001N001519999999N9999999N1-00221-00741100381ADDMA1999999093411MD1710081+9999OA149900361REMSYN076AAXX  05194 06756 33/// /3003 11022 21074 39341 40038 57008 333 91107 91205;
0128067560999992010010520004+46467+008933FM-12+055299999V0203401N002119999999N9999999N1-00161-00801100291ADDMA1999999093341MD1810131+9999OA149900361REMSYN076AAXX  05204 06756 33/// /3404 11016 21080 39334 40029 58013 333 91107 91205;
0128067560999992010010521004+46467+008933FM-12+055299999V0203401N001519999999N9999999N1-00151-00741100231ADDMA1999999093291MD1810141+9999OA149900361REMSYN076AAXX  05214 06756 33/// /3403 11015 21074 39329 40023 58014 333 91107 91205;
0128067560999992010010522004+46467+008933FM-12+055299999V0203401N002119999999N9999999N1-00131-00751100161ADDMA1999999093231MD1710181+9999OA149900311REMSYN076AAXX  05224 06756 33/// /3404 11013 21075 39323 40016 57018 333 91106 91204;
0128067560999992010010523004+46467+008933FM-12+055299999V0203201N001519999999N9999999N1-00231-00691100161ADDMA1999999093201MD1610141+9999OA149900311REMSYN076AAXX  05234 06756 33/// /3203 11023 21069 39320 40016 56014 333 91106 91204;
0128067560999992010010600004+46467+008933FM-12+055299999V0203201N002619999999N9999999N1-00131-00721100051ADDMA1999999093131MD1710161+9999OA149900411REMSYN076AAXX  06004 06756 33/// /3205 11013 21072 39313 40005 57016 333 91108 91206;
0128067560999992010010601004+46467+008933FM-12+055299999V0203401N001019999999N9999999N1-00301-00721100071ADDMA1999999093101MD1710131+9999OA149900361REMSYN076AAXX  06014 06756 33/// /3402 11030 21072 39310 40007 57013 333 91107 91205;
0128067560999992010010602004+46467+008933FM-12+055299999V0203101N001519999999N9999999N1-00231-00691100041ADDMA1999999093091MD1710111+9999OA149900411REMSYN076AAXX  06024 06756 33/// /3103 11023 21069 39309 40004 57011 333 91108 91205;
0128067560999992010010603004+46467+008933FM-12+055299999V0203101N001519999999N9999999N1-00301-00711100001ADDMA1999999093041MD1710091+9999OA149900411REMSYN076AAXX  06034 06756 33/// /3103 11030 21071 39304 40000 57009 333 91108 91205;
0128067560999992010010604004+46467+008933FM-12+055299999V0203101N002619999999N9999999N1-00231-00741099941ADDMA1999999093001MD1810101+9999OA149900361REMSYN076AAXX  06044 06756 33/// /3105 11023 21074 39300 49994 58010 333 91107 91205;
0128067560999992010010605004+46467+008933FM-12+055299999V0203101N002619999999N9999999N1-00221-00771099951ADDMA1999999093011MD1710081+9999OA149900411REMSYN076AAXX  06054 06756 33/// /3105 11022 21077 39301 49995 57008 333 91108 91205;
0225067560999992010010606004+46467+008933FM-12+055299999V0203001N002119999999N9999999N1-00201-00681099911ADDAA124000091AL19900091GJ102229IA2999-00609KA1999N-00341MA1999999092981MD1710061+9999OA149900411REMSYN100AAXX  06064 06756 33/// /3004 11020 21068 39298 49991 57006 333 21034 3/106 55037 70000 91108 91206;EQDQ01  00002PRCP24
0128067560999992010010607004+46467+008933FM-12+055299999V0203201N001019999999N9999999N1-00311-00751099951ADDMA1999999092991MD1710011+9999OA149900411REMSYN076AAXX  06074 06756 33/// /3202 11031 21075 39299 49995 57001 333 91108 91206;
0128067560999992010010608004+46467+008933FM-12+055299999V0203601N001019999999N9999999N1-00291-00741099961ADDMA1999999093001MD1510011+9999OA149900361REMSYN076AAXX  06084 06756 33/// /3602 11029 21074 39300 49996 55001 333 91107 91205;
0128067560999992010010609004+46467+008933FM-12+055299999V0203401N001519999999N9999999N1-00201-00761100001ADDMA1999999093061MD1310081+9999OA149900411REMSYN076AAXX  06094 06756 33/// /3403 11020 21076 39306 40000 53008 333 91108 91206;
0128067560999992010010610004+46467+008933FM-12+055299999V0203301N001519999999N9999999N1+00171-00741099941ADDMA1999999093101MD1310111+9999OA149900361REMSYN076AAXX  06104 06756 33/// /3303 10017 21074 39310 49994 53011 333 91107 91205;
0128067560999992010010611004+46467+008933FM-12+055299999V0201401N001519999999N9999999N1+00221-00661099901ADDMA1999999093071MD1019999+9999OA149900361REMSYN076AAXX  06114 06756 33/// /1403 10022 21066 39307 49990 50/// 333 91107 91205;
0128067560999992010010612004+46467+008933FM-12+055299999V0201701N001519999999N9999999N1+00191-00671099901ADDMA1999999093071MD1010011+9999OA149900461REMSYN076AAXX  06124 06756 33/// /1703 10019 21067 39307 49990 50001 333 91109 91206;
0128067560999992010010613004+46467+008933FM-12+055299999V0203301N000519999999N9999999N1+00301-00571099861ADDMA1999999093061MD1710041+9999OA149900411REMSYN076AAXX  06134 06756 33/// /3301 10030 21057 39306 49986 57004 333 91108 91205;
0128067560999992010010614004+46467+008933FM-12+055299999V0209999C000019999999N9999999N1+00121-00461099921ADDMA1999999093071MD1519999+9999OA149900261REMSYN076AAXX  06144 06756 33/// /0000 10012 21046 39307 49992 55/// 333 91105 91203;
0128067560999992010010615004+46467+008933FM-12+055299999V0209999C000019999999N9999999N1+00021-00501100011ADDMA1999999093131MD1219999+9999OA149900461REMSYN076AAXX  06154 06756 33/// /0000 10002 21050 39313 40001 52/// 333 91109 91206;
0128067560999992010010616004+46467+008933FM-12+055299999V0203401N001019999999N9999999N1-00051-00471100121ADDMA1999999093211MD1310151+9999OA149900151REMSYN076AAXX  06164 06756 33/// /3402 11005 21047 39321 40012 53015 333 91103 91202;
0128067560999992010010617004+46467+008933FM-12+055299999V0203201N001019999999N9999999N1-00091-00521100171ADDMA1999999093251MD1110181+9999OA149900151REMSYN076AAXX  06174 06756 33/// /3202 11009 21052 39325 40017 51018 333 91103 91202;
0147067560999992010010618004+46467+008933FM-12+055299999V0203301N001519999999N9999999N1-00151-00571100241ADDKA1120M+00301MA1999999093301MD1119999+9999OA149900461REMSYN082AAXX  06184 06756 33/// /3303 11015 21057 39330 40024 51/// 333 10030 91109 91206;
0128067560999992010010619004+46467+008933FM-12+055299999V0203201N002119999999N9999999N1-00091-00541100291ADDMA1999999093361MD1310151+9999OA149900311REMSYN076AAXX  06194 06756 33/// /3204 11009 21054 39336 40029 53015 333 91106 91204;
0128067560999992010010620004+46467+008933FM-12+055299999V0203301N001519999999N9999999N1-00061-00551100301ADDMA1999999093381MD1110131+9999OA149900311REMSYN076AAXX  06204 06756 33/// /3303 11006 21055 39338 40030 51013 333 91106 91204;
0128067560999992010010621004+46467+008933FM-12+055299999V0209999C000019999999N9999999N1-00021-00481100341ADDMA1999999093421MD1110121+9999OA149900311REMSYN076AAXX  06214 06756 33/// /0000 11002 21048 39342 40034 51012 333 91106 91204;
0128067560999992010010622004+46467+008933FM-12+055299999V0203201N002119999999N9999999N1+00011-00491100351ADDMA1999999093441MD1110081+9999OA149900261REMSYN076AAXX  06224 06756 33/// /3204 10001 21049 39344 40035 51008 333 91105 91204;
0128067560999992010010623004+46467+008933FM-12+055299999V0203401N001519999999N9999999N1-00041-00441100371ADDMA1999999093451MD1210071+9999OA149900261REMSYN076AAXX  06234 06756 33/// /3403 11004 21044 39345 40037 52007 333 91105 91204;
0128067560999992010010700004+46467+008933FM-12+055299999V0203601N000519999999N9999999N1-00031-00431100371ADDMA1999999093451MD1210031+9999OA149900311REMSYN076AAXX  07004 06756 33/// /3601 11003 21043 39345 40037 52003 333 91106 91204;
0128067560999992010010701004+46467+008933FM-12+055299999V0200401N000519999999N9999999N1-00081-00421100431ADDMA1999999093491MD1310051+9999OA149900211REMSYN076AAXX  07014 06756 33/// /0401 11008 21042 39349 40043 53005 333 91104 91203;
0128067560999992010010702004+46467+008933FM-12+055299999V0203501N001519999999N9999999N1-00081-00411100501ADDMA1999999093561MD1219999+9999OA149900311REMSYN076AAXX  07024 06756 33/// /3503 11008 21041 39356 40050 52/// 333 91106 91204;
0128067560999992010010703004+46467+008933FM-12+055299999V0203301N001019999999N9999999N1-00041-00401100561ADDMA1999999093621MD1210171+9999OA149900311REMSYN076AAXX  07034 06756 33/// /3302 11004 21040 39362 40056 52017 333 91106 91204;
0145067560999992010010704004+46467+008933FM-12+055299999V0203101N001519999999N9999999N1-00111-00161100641ADDAA101000391MA1999999093681MD1110191+9999OA149900311REMSYN082AAXX  07044 06756 23/// /3103 11011 21016 39368 40064 51019 333 69935 91106 91204;
0128067560999992010010705004+46467+008933FM-12+055299999V0200201N000519999999N9999999N1-00231-00311100691ADDMA1999999093701MD1210141+9999OA149900311REMSYN076AAXX  07054 06756 33/// /0201 11023 21031 39370 40069 52014 333 91106 91204;
0229067560999992010010706004+46467+008933FM-12+055299999V0203601N001519999999N9999999N1-00171-00321100741ADDAA112000391AA224000391AL11800091GJ102409IA2999-00509KA1999N-00251MA1999999093761MD1210141+9999OA149900311REMSYN112AAXX  07064 06756 03/// /3603 11017 21032 39376 40074 52014 69932 333 21025 3/105 55040 60005 70003 91106 91204;
0128067560999992010010707004+46467+008933FM-12+055299999V0203601N001019999999N9999999N1-00211-00371100831ADDMA1999999093831MD1310151+9999OA149900311REMSYN076AAXX  07074 06756 33/// /3602 11021 21037 39383 40083 53015 333 91106 91204;
0128067560999992010010708004+46467+008933FM-12+055299999V0203201N001019999999N9999999N1-00131-00371100891ADDMA1999999093911MD1319999+9999OA149900211REMSYN076AAXX  07084 06756 33/// /3202 11013 21037 39391 40089 53/// 333 91104 91202;
0128067560999992010010709004+46467+008933FM-12+055299999V0200101N000519999999N9999999N1-00021-00441100921ADDMA1999999093961MD1110201+9999OA149900311REMSYN076AAXX  07094 06756 33/// /0101 11002 21044 39396 40092 51020 333 91106 91204;
0128067560999992010010710004+46467+008933FM-12+055299999V0203301N002119999999N9999999N1+00171-00571100921ADDMA1999999094011MD1110181+9999OA149900311REMSYN076AAXX  07104 06756 33/// /3304 10017 21057 39401 40092 51018 333 91106 91204;
0128067560999992010010711004+46467+008933FM-12+055299999V0200101N000519999999N9999999N1+00331-00561100841ADDMA1999999093981MD1010071+9999OA149900311REMSYN076AAXX  07114 06756 33/// /0101 10033 21056 39398 40084 50007 333 91106 91204;
0128067560999992010010712004+46467+008933FM-12+055299999V0201501N001519999999N9999999N1+00311-00541100781ADDMA1999999093921MD1810041+9999OA149900311REMSYN076AAXX  07124 06756 33/// /1503 10031 21054 39392 40078 58004 333 91106 91204;
0128067560999992010010713004+46467+008933FM-12+055299999V0201501N001519999999N9999999N1+00351-00531100781ADDMA1999999093931MD1710081+9999OA149900361REMSYN076AAXX  07134 06756 33/// /1503 10035 21053 39393 40078 57008 333 91107 91205;
0087067560999992010010715004+46467+008933FM-12+055299999V0201401N000519999999N9999999N1+00201-00521100931ADDMA1999999094031REMSYN060AAXX  07154 06756 43/// /1401 10020 21052 39403 40093 5////;
0128067560999992010010716004+46467+008933FM-12+055299999V0203601N000519999999N9999999N1+00071-00421101041ADDMA1999999094101MD1310171+9999OA149900511REMSYN076AAXX  07164 06756 33/// /3601 10007 21042 39410 40104 53017 333 91110 91206;
0128067560999992010010717004+46467+008933FM-12+055299999V0203001N001019999999N9999999N1+00001-00391101131ADDMA1999999094161MD1119999+9999OA149900151REMSYN076AAXX  07174 06756 33/// /3002 10000 21039 39416 40113 51/// 333 91103 91202;
0147067560999992010010718004+46467+008933FM-12+055299999V0203201N001019999999N9999999N1-00041-00421101161ADDKA1120M+00351MA1999999094181MD1219999+9999OA149900511REMSYN082AAXX  07184 06756 33/// /3202 11004 21042 39418 40116 52/// 333 10035 91110 91206;
0128067560999992010010719004+46467+008933FM-12+055299999V0203101N001019999999N9999999N1+00021-00391101131ADDMA1999999094171MD1210071+9999OA149900261REMSYN076AAXX  07194 06756 33/// /3102 10002 21039 39417 40113 52007 333 91105 91204;
0128067560999992010010720004+46467+008933FM-12+055299999V0209999C000019999999N9999999N1-00011-00351101141ADDMA1999999094171MD1210011+9999OA149900261REMSYN076AAXX  07204 06756 33/// /0000 11001 21035 39417 40114 52001 333 91105 91204;
0128067560999992010010721004+46467+008933FM-12+055299999V0202801N000519999999N9999999N1+00061-00371101181ADDMA1999999094231MD1310051+9999OA149900261REMSYN076AAXX  07214 06756 33/// /2801 10006 21037 39423 40118 53005 333 91105 91204;
0145067560999992010010722004+46467+008933FM-12+055299999V0203301N000519999999N9999999N1-00041-00141101231ADDAA101000021MA1999999094251MD1210081+9999OA149900211REMSYN082AAXX  07224 06756 23/// /3301 11004 21014 39425 40123 52008 333 69915 91104 91203;
0145067560999992010010723004+46467+008933FM-12+055299999V0203301N001019999999N9999999N1-00041-00081101201ADDAA101000591MA1999999094221MD1010051+9999OA149900211REMSYN082AAXX  07234 06756 23/// /3302 11004 21008 39422 40120 50005 333 69945 91104 91203;
0151067560999992010010800004+46467+008933FM-12+055299999V0203501N000519999999N9999999N1-00061-00071101121ADDAA106001091MA1999999094141MD1710091+9999OA149900511REMSYN088AAXX  08004 06756 03/// /3501 11006 21007 39414 40112 57009 69991 333 69945 91110 91206;
0145067560999992010010801004+46467+008933FM-12+055299999V0203201N001019999999N9999999N1-00051-00051101041ADDAA101000591MA1999999094071MD1710181+9999OA149900151REMSYN082AAXX  08014 06756 23/// /3202 11005 21005 39407 40104 57018 333 69945 91103 91202;
0145067560999992010010802004+46467+008933FM-12+055299999V0203501N001019999999N9999999N1-00061-00071101001ADDAA101000391MA1999999094031MD1619999+9999OA149900151REMSYN082AAXX  08024 06756 23/// /3502 11006 21007 39403 40100 56/// 333 69935 91103 91202;
0145067560999992010010803004+46467+008933FM-12+055299999V0203501N001019999999N9999999N1-00041-00041100931ADDAA101000891MA1999999093971MD1619999+9999OA149900211REMSYN082AAXX  08034 06756 23/// /3502 11004 21004 39397 40093 56/// 333 69975 91104 91203;
0145067560999992010010804004+46467+008933FM-12+055299999V0200301N000519999999N9999999N1-00041-00041100851ADDAA101001091MA1999999093891MD1810181+9999OA149900151REMSYN082AAXX  08044 06756 23/// /0301 11004 21004 39389 40085 58018 333 60015 91103 91203;
0145067560999992010010805004+46467+008933FM-12+055299999V0209999C000019999999N9999999N1-00041-00041100791ADDAA101001091MA1999999093841MD1710191+9999OA149900151REMSYN082AAXX  08054 06756 23/// /0000 11004 21004 39384 40079 57019 333 69995 91103 91203;
0229067560999992010010806004+46467+008933FM-12+055299999V0209999C000019999999N9999999N1-00031-00031100711ADDAA112005192AA224004892AL14800491GJ102409IA2999-00209KA1999N-00061MA1999999093771MD1610201+9999OA149900261REMSYN112AAXX  08064 06756 03/// /0000 11003 21003 39377 40071 56020 60052 333 21006 3/102 55040 60015 70049 91105 91204;
0145067560999992010010807004+46467+008933FM-12+055299999V0209999C000019999999N9999999N1-00031-00031100661ADDAA101001091MA1999999093721MD1710171+9999OA149900001REMSYN082AAXX  08074 06756 23/// /0000 11003 21003 39372 40066 57017 333 60015 91100 91200;
0145067560999992010010808004+46467+008933FM-12+055299999V0209999C000019999999N9999999N1-00031-00031100631ADDAA101001091MA1999999093691MD1610151+9999OA149900001REMSYN082AAXX  08084 06756 23/// /0000 11003 21003 39369 40063 56015 333 60015 91100 91200;
0145067560999992010010809004+46467+008933FM-12+055299999V0209999C000019999999N9999999N1+00011+00011100551ADDAA101002091MA1999999093631MD1710141+9999OA149900151REMSYN082AAXX  08094 06756 23/// /0000 10001 20001 39363 40055 57014 333 60025 91103 91203;
0145067560999992010010810004+46467+008933FM-12+055299999V0209999C000019999999N9999999N1+00031+00031100461ADDAA101000591MA1999999093551MD1810171+9999OA149900101REMSYN082AAXX  08104 06756 23/// /0000 10003 20003 39355 40046 58017 333 69965 91102 91201;
0145067560999992010010811004+46467+008933FM-12+055299999V0209999C000019999999N9999999N1+00051+00051100361ADDAA101000391MA1999999093461MD1810231+9999OA149900001REMSYN082AAXX  08114 06756 23/// /0000 10005 20005 39346 40036 58023 333 69935 91100 91200;
0151067560999992010010812004+46467+008933FM-12+055299999V0209999C000019999999N9999999N1+00071+00061100211ADDAA106005191MA1999999093331MD1810301+9999OA149900151REMSYN088AAXX  08124 06756 03/// /0000 10007 20006 39333 40021 58030 60051 333 69925 91103 91203;
0145067560999992010010813004+46467+008933FM-12+055299999V0209999C000019999999N9999999N1+00071+00071100121ADDAA101000891MA1999999093241MD1710311+9999OA149900151REMSYN082AAXX  08134 06756 23/// /0000 10007 20007 39324 40012 57031 333 69985 91103 91202;
0145067560999992010010814004+46467+008933FM-12+055299999V0209999C000019999999N9999999N1+00081+00081100041ADDAA101000391MA1999999093171MD1619999+9999OA149900051REMSYN082AAXX  08144 06756 23/// /0000 10008 20008 39317 40004 56/// 333 69935 91101 91201;
0145067560999992010010815004+46467+008933FM-12+055299999V0203601N000519999999N9999999N1+00091+00091099961ADDAA101000021MA1999999093101MD1610231+9999OA149900151REMSYN082AAXX  08154 06756 23/// /3601 10009 20009 39310 49996 56023 333 69915 91103 91202;
0145067560999992010010816004+46467+008933FM-12+055299999V0203301N000519999999N9999999N1+00071+00071099961ADDAA101000891MA1999999093091MD1610151+9999OA149900101REMSYN082AAXX  08164 06756 23/// /3301 10007 20007 39309 49996 56015 333 69975 91102 91202;
0145067560999992010010817004+46467+008933FM-12+055299999V0201601N001519999999N9999999N1+00021+00021100001ADDAA101001091MA1999999093121MD1519999+9999OA149900311REMSYN082AAXX  08174 06756 23/// /1603 10002 20002 39312 40000 55/// 333 60015 91106 91204;
0170067560999992010010818004+46467+008933FM-12+055299999V0209999C000019999999N9999999N1+00011+00011100081ADDAA112009991KA1120M+00091MA1999999093191MD1210091+9999OA149900311REMSYN094AAXX  08184 06756 03/// /0000 10001 20001 39319 40008 52009 60102 333 10009 60025 91106 91204;
0145067560999992010010819004+46467+008933FM-12+055299999V0209999C000019999999N9999999N1+00061+00061100101ADDAA101002091MA1999999093221MD1210131+9999OA149900101REMSYN082AAXX  08194 06756 23/// /0000 10006 20006 39322 40010 52013 333 60025 91102 91201;
0145067560999992010010820004+46467+008933FM-12+055299999V0209999C000019999999N9999999N1+00051+00051100101ADDAA101001091MA1999999093221MD1210101+9999OA149900001REMSYN082AAXX  08204 06756 23/// /0000 10005 20005 39322 40010 52010 333 69995 91100 91200;
0145067560999992010010821004+46467+008933FM-12+055299999V0209999C000019999999N9999999N1+00031+00031100161ADDAA101000591MA1999999093271MD1210081+9999OA149900311REMSYN082AAXX  08214 06756 23/// /0000 10003 20003 39327 40016 52008 333 69965 91106 91204;
0145067560999992010010822004+46467+008933FM-12+055299999V0209999C000019999999N9999999N1+00051+00051100171ADDAA101000591MA1999999093281MD1210061+9999OA149900001REMSYN082AAXX  08224 06756 23/// /0000 10005 20005 39328 40017 52006 333 69945 91100 91200;
0145067560999992010010823004+46467+008933FM-12+055299999V0209999C000019999999N9999999N1+00061+00061100141ADDAA101000021MA1999999093261MD1010041+9999OA149900001REMSYN082AAXX  08234 06756 23/// /0000 10006 20006 39326 40014 50004 333 69915 91100 91200;
0151067560999992010010900004+46467+008933FM-12+055299999V0209999C000019999999N9999999N1+00061+00061100081ADDAA106004191MA1999999093201MD1710071+9999OA149900311REMSYN088AAXX  09004 06756 03/// /0000 10006 20006 39320 40008 57007 60041 333 60005 91106 91204;
0128067560999992010010901004+46467+008933FM-12+055299999V0209999C000019999999N9999999N1+00061+00061100081ADDMA1999999093201MD1710081+9999OA149900001REMSYN076AAXX  09014 06756 33/// /0000 10006 20006 39320 40008 57008 333 91100 91200;
0128067560999992010010902004+46467+008933FM-12+055299999V0209999C000019999999N9999999N1+00071+00071100121ADDMA1999999093241MD1519999+9999OA149900001REMSYN076AAXX  09024 06756 33/// /0000 10007 20007 39324 40012 55/// 333 91100 91200;
0128067560999992010010903004+46467+008933FM-12+055299999V0209999C000019999999N9999999N1+00061+00061100061ADDMA1999999093181MD1819999+9999OA149900001REMSYN076AAXX  09034 06756 33/// /0000 10006 20006 39318 40006 58/// 333 91100 91200;
0128067560999992010010904004+46467+008933FM-12+055299999V0202701N001019999999N9999999N1+00031+00031099971ADDMA1999999093091MD1810111+9999OA149900261REMSYN076AAXX  09044 06756 33/// /2702 10003 20003 39309 49997 58011 333 91105 91203;
0128067560999992010010905004+46467+008933FM-12+055299999V0203101N002619999999N9999999N1+00021+00021099861ADDMA1999999092991MD1710251+9999OA149900361REMSYN076AAXX  09054 06756 33/// /3105 10002 20002 39299 49986 57025 333 91107 91205;
0229067560999992010010906004+46467+008933FM-12+055299999V0203501N002119999999N9999999N1-00021-00021099761ADDAA112004191AA224014291AL10601491GJ100009IA2999-00309KA1999N-00031MA1999999092881MD1710301+9999OA149900361REMSYN112AAXX  09064 06756 03/// /3504 11002 21002 39288 49976 57030 60042 333 21003 3/103 55000 60005 70141 91107 91205;
0128067560999992010010907004+46467+008933FM-12+055299999V0203301N001519999999N9999999N1+00041+00041099711ADDMA1999999092851MD1710241+9999OA149900361REMSYN076AAXX  09074 06756 33/// /3303 10004 20004 39285 49971 57024 333 91107 91205;
0128067560999992010010908004+46467+008933FM-12+055299999V0201401N000519999999N9999999N1+00011+00011099811ADDMA1999999092941MD1510051+9999OA149900361REMSYN076AAXX  09084 06756 33/// /1401 10001 20001 39294 49981 55005 333 91107 91205;
0128067560999992010010909004+46467+008933FM-12+055299999V0203401N001019999999N9999999N1+00041+00041099751ADDMA1999999092891MD1210011+9999OA149900361REMSYN076AAXX  09094 06756 33/// /3402 10004 20004 39289 49975 52001 333 91107 91205;
0128067560999992010010910004+46467+008933FM-12+055299999V0203301N001519999999N9999999N1+00151+00151099621ADDMA1999999092801MD1810051+9999OA149900261REMSYN076AAXX  09104 06756 33/// /3303 10015 20015 39280 49962 58005 333 91105 91204;
0128067560999992010010911004+46467+008933FM-12+055299999V0203401N001019999999N9999999N1+00321+00211099451ADDMA1999999092681MD1810261+9999OA149900261REMSYN076AAXX  09114 06756 33/// /3402 10032 20021 39268 49945 58026 333 91105 91204;
0128067560999992010010912004+46467+008933FM-12+055299999V0203501N000519999999N9999999N1+00321+00271099331ADDMA1999999092571MD1810321+9999OA149900361REMSYN076AAXX  09124 06756 33/// /3501 10032 20027 39257 49933 58032 333 91107 91205;
0128067560999992010010913004+46467+008933FM-12+055299999V0203501N001519999999N9999999N1+00371+00251099171ADDMA1999999092431MD1710371+9999OA149900261REMSYN076AAXX  09134 06756 33/// /3503 10037 20025 39243 49917 57037 333 91105 91203;
0128067560999992010010914004+46467+008933FM-12+055299999V0203601N001019999999N9999999N1+00271+00271099281ADDMA1999999092511MD1510171+9999OA149900461REMSYN076AAXX  09144 06756 33/// /3602 10027 20027 39251 49928 55017 333 91109 91206;
0128067560999992010010915004+46467+008933FM-12+055299999V0201701N000519999999N9999999N1+00301+00281099361ADDMA1999999092591MD1310021+9999OA149900461REMSYN076AAXX  09154 06756 33/// /1701 10030 20028 39259 49936 53002 333 91109 91206;
0128067560999992010010916004+46467+008933FM-12+055299999V0201601N000519999999N9999999N1+00221+00221099541ADDMA1999999092741MD1310311+9999OA149900511REMSYN076AAXX  09164 06756 33/// /1601 10022 20022 39274 49954 53031 333 91110 91205;
0128067560999992010010917004+46467+008933FM-12+055299999V0203201N001019999999N9999999N1+00191+00191099711ADDMA1999999092891MD1310381+9999OA149900511REMSYN076AAXX  09174 06756 33/// /3202 10019 20019 39289 49971 53038 333 91110 91205;
0147067560999992010010918004+46467+008933FM-12+055299999V0201301N000519999999N9999999N1+00211+00021099761ADDKA1120M+00371MA1999999092941MD1110351+9999OA149900511REMSYN082AAXX  09184 06756 33/// /1301 10021 20002 39294 49976 51035 333 10037 91110 91206;
0128067560999992010010919004+46467+008933FM-12+055299999V0203401N001019999999N9999999N1+00141+00111099871ADDMA1999999093031MD1110291+9999OA149900461REMSYN076AAXX  09194 06756 33/// /3402 10014 20011 39303 49987 51029 333 91109 91206;
0128067560999992010010920004+46467+008933FM-12+055299999V0203101N001519999999N9999999N1+00131+00101099961ADDMA1999999093111MD1210221+9999OA149900151REMSYN076AAXX  09204 06756 33/// /3103 10013 20010 39311 49996 52022 333 91103 91203;
0128067560999992010010921004+46467+008933FM-12+055299999V0201101N000519999999N9999999N1+00131+00081100031ADDMA1999999093171MD1110231+9999OA149900511REMSYN076AAXX  09214 06756 33/// /1101 10013 20008 39317 40003 51023 333 91110 91206;
0145067560999992010010922004+46467+008933FM-12+055299999V0203301N001519999999N9999999N1+00081+00081100161ADDAA101000891MA1999999093281MD1310251+9999OA149900211REMSYN082AAXX  09224 06756 23/// /3303 10008 20008 39328 40016 53025 333 69975 91104 91203;
0145067560999992010010923004+46467+008933FM-12+055299999V0203101N001519999999N9999999N1+00071+00071100211ADDAA101002091MA1999999093331MD1210221+9999OA149900261REMSYN082AAXX  09234 06756 23/// /3103 10007 20007 39333 40021 52022 333 60025 91105 91203;
0151067560999992010011000004+46467+008933FM-12+055299999V0200101N000519999999N9999999N1+00061+00061100241ADDAA106002091MA1999999093351MD1210181+9999OA149900511REMSYN088AAXX  10004 06756 03/// /0101 10006 20006 39335 40024 52018 60021 333 69925 91110 91206;
0145067560999992010011001004+46467+008933FM-12+055299999V0209999C000019999999N9999999N1+00051+00051100281ADDAA101000591MA1999999093391MD1210111+9999OA149900211REMSYN082AAXX  10014 06756 23/// /0000 10005 20005 39339 40028 52011 333 69945 91104 91202;
0108067560999992010011002004+46467+008933FM-12+055299999V0209999C000019999999N9999999N1+00051+00051100351ADDAA101000891MA1999999093451REMSYN070AAXX  10024 06756 23/// /0000 10005 20005 39345 40035 5//// 333 69975;
0087067560999992010011003004+46467+008933FM-12+055299999V0209999C000019999999N9999999N1+00051+00051100401ADDMA1999999093501REMSYN060AAXX  10034 06756 43/// /0000 10005 20005 39350 40040 5////;
0145067560999992010011004004+46467+008933FM-12+055299999V0209999C000019999999N9999999N1+00041+00041100471ADDAA101000391MA1999999093561MD1310171+9999OA149900001REMSYN082AAXX  10044 06756 23/// /0000 10004 20004 39356 40047 53017 333 69935 91100 91200;
0128067560999992010011005004+46467+008933FM-12+055299999V0209999C000019999999N9999999N1+00031+00031100541ADDMA1999999093621MD1310171+9999OA149900001REMSYN076AAXX  10054 06756 33/// /0000 10003 20003 39362 40054 53017 333 91100 91200;
0229067560999992010011006004+46467+008933FM-12+055299999V0209999C000019999999N9999999N1+00051+00051100591ADDAA112005192AA224004892AL14200491GJ100009IA2999+00009KA1999N+00031MA1999999093671MD1110171+9999OA149900261REMSYN112AAXX  10064 06756 03/// /0000 10005 20005 39367 40059 51017 60052 333 20003 3/000 55000 69935 70047 91105 91203;
0128067560999992010011007004+46467+008933FM-12+055299999V0209999C000019999999N9999999N1+00061+00061100671ADDMA1999999093751MD1310191+9999OA149900001REMSYN076AAXX  10074 06756 33/// /0000 10006 20006 39375 40067 53019 333 91100 91200;
0128067560999992010011008004+46467+008933FM-12+055299999V0209999C000019999999N9999999N1+00061+00061100751ADDMA1999999093831MD1319999+9999OA149900001REMSYN076AAXX  10084 06756 33/// /0000 10006 20006 39383 40075 53/// 333 91100 91200;
0128067560999992010011009004+46467+008933FM-12+055299999V0209999C000019999999N9999999N1+00071+00071100861ADDMA1999999093931MD1310261+9999OA149900001REMSYN076AAXX  10094 06756 33/// /0000 10007 20007 39393 40086 53026 333 91100 91200;
0128067560999992010011010004+46467+008933FM-12+055299999V0209999C000019999999N9999999N1+00101+00101100921ADDMA1999999093991MD1110241+9999OA149900101REMSYN076AAXX  10104 06756 33/// /0000 10010 20010 39399 40092 51024 333 91102 91201;
0128067560999992010011011004+46467+008933FM-12+055299999V0203601N000519999999N9999999N1+00131+00131100941ADDMA1999999094021MD1110191+9999OA149900101REMSYN076AAXX  10114 06756 33/// /3601 10013 20013 39402 40094 51019 333 91102 91202;
0128067560999992010011012004+46467+008933FM-12+055299999V0209999C000019999999N9999999N1+00241+00151100911ADDMA1999999094021MD1210091+9999OA149900151REMSYN076AAXX  10124 06756 33/// /0000 10024 20015 39402 40091 52009 333 91103 91203;
0128067560999992010011013004+46467+008933FM-12+055299999V0209999C000019999999N9999999N1+00281+00141100851ADDMA1999999093971MD1810021+9999OA149900151REMSYN076AAXX  10134 06756 33/// /0000 10028 20014 39397 40085 58002 333 91103 91203;
0128067560999992010011014004+46467+008933FM-12+055299999V0209999C000019999999N9999999N1+00151+00081100881ADDMA1999999093971MD1719999+9999OA149900151REMSYN076AAXX  10144 06756 33/// /0000 10015 20008 39397 40088 57/// 333 91103 91202;
0128067560999992010011015004+46467+008933FM-12+055299999V0203101N001019999999N9999999N1+00061-00021100951ADDMA1999999094011MD1510011+9999OA149900151REMSYN076AAXX  10154 06756 33/// /3102 10006 21002 39401 40095 55001 333 91103 91203;
0128067560999992010011016004+46467+008933FM-12+055299999V0202901N000519999999N9999999N1+00041-00031101011ADDMA1999999094061MD1210091+9999OA149900211REMSYN076AAXX  10164 06756 33/// /2901 10004 21003 39406 40101 52009 333 91104 91202;
0128067560999992010011017004+46467+008933FM-12+055299999V0203401N001019999999N9999999N1+00081-00041101081ADDMA1999999094141MD1310171+9999OA149900211REMSYN076AAXX  10174 06756 33/// /3402 10008 21004 39414 40108 53017 333 91104 91202;
0147067560999992010011018004+46467+008933FM-12+055299999V0203201N002619999999N9999999N1+00151-00081101131ADDKA1120M+00351MA1999999094201MD1310191+9999OA149900361REMSYN082AAXX  10184 06756 33/// /3205 10015 21008 39420 40113 53019 333 10035 91107 91205;
0128067560999992010011019004+46467+008933FM-12+055299999V0203201N002619999999N9999999N1+00141-00501101191ADDMA1999999094261MD1210201+9999OA149900511REMSYN076AAXX  10194 06756 33/// /3205 10014 21050 39426 40119 52020 333 91110 91206;
0128067560999992010011020004+46467+008933FM-12+055299999V0203101N003119999999N9999999N1+00071-00521101251ADDMA1999999094291MD1110151+9999OA149900511REMSYN076AAXX  10204 06756 33/// /3106 10007 21052 39429 40125 51015 333 91110 91206;
0128067560999992010011021004+46467+008933FM-12+055299999V0203201N002619999999N9999999N1+00081-00471101301ADDMA1999999094341MD1110141+9999OA149900571REMSYN076AAXX  10214 06756 33/// /3205 10008 21047 39434 40130 51014 333 91111 91206;
0128067560999992010011022004+46467+008933FM-12+055299999V0203201N003119999999N9999999N1+00091-00521101321ADDMA1999999094361MD1110101+9999OA149900571REMSYN076AAXX  10224 06756 33/// /3206 10009 21052 39436 40132 51010 333 91111 91206;
0128067560999992010011023004+46467+008933FM-12+055299999V0203201N002619999999N9999999N1+00031-00561101351ADDMA1999999094381MD1110091+9999OA149900571REMSYN076AAXX  10234 06756 33/// /3205 10003 21056 39438 40135 51009 333 91111 91206;
0128067560999992010011100004+46467+008933FM-12+055299999V0203201N002619999999N9999999N1-00021-00561101381ADDMA1999999094391MD1210051+9999OA149900571REMSYN076AAXX  11004 06756 33/// /3205 11002 21056 39439 40138 52005 333 91111 91207;
0128067560999992010011101004+46467+008933FM-12+055299999V0203101N002119999999N9999999N1-00081-00561101391ADDMA1999999094391MD1210031+9999OA149900511REMSYN076AAXX  11014 06756 33/// /3104 11008 21056 39439 40139 52003 333 91110 91207;
0128067560999992010011102004+46467+008933FM-12+055299999V0203201N002119999999N9999999N1-00141-00541101431ADDMA1999999094411MD1219999+9999OA149900511REMSYN076AAXX  11024 06756 33/// /3204 11014 21054 39441 40143 52/// 333 91110 91206;
0128067560999992010011103004+46467+008933FM-12+055299999V0203201N003119999999N9999999N1-00141-00571101431ADDMA1999999094411MD1219999+9999OA149900571REMSYN076AAXX  11034 06756 33/// /3206 11014 21057 39441 40143 52/// 333 91111 91207;
0128067560999992010011104004+46467+008933FM-12+055299999V0203301N001519999999N9999999N1-00211-00641101431ADDMA1999999094391MD1010001+9999OA149900411REMSYN076AAXX  11044 06756 33/// /3303 11021 21064 39439 40143 50000 333 91108 91206;
0128067560999992010011105004+46467+008933FM-12+055299999V0203101N002619999999N9999999N1-00251-00631101471ADDMA1999999094421MD1310011+9999OA149900411REMSYN076AAXX  11054 06756 33/// /3105 11025 21063 39442 40147 53001 333 91108 91205;
0225067560999992010011106004+46467+008933FM-12+055299999V0203401N001519999999N9999999N1-00381-00681101531ADDAA124000091AL19900091GJ100249IA2999-00709KA1999N-00361MA1999999094441MD1210031+9999OA149900571REMSYN100AAXX  11064 06756 33/// /3403 11038 21068 39444 40153 52003 333 21036 3/107 55004 70000 91111 91207;EQDQ01  00002PRCP24
0128067560999992010011107004+46467+008933FM-12+055299999V0203401N001519999999N9999999N1-00381-00691101571ADDMA1999999094481MD1310091+9999OA149900411REMSYN076AAXX  11074 06756 33/// /3403 11038 21069 39448 40157 53009 333 91108 91205;
0128067560999992010011108004+46467+008933FM-12+055299999V0203401N001019999999N9999999N1-00401-00711101591ADDMA1999999094491MD1219999+9999OA149900361REMSYN076AAXX  11084 06756 33/// /3402 11040 21071 39449 40159 52/// 333 91107 91205;
0128067560999992010011109004+46467+008933FM-12+055299999V0203401N002619999999N9999999N1-00241-00691101581ADDMA1999999094521MD1210081+9999OA149900411REMSYN076AAXX  11094 06756 33/// /3405 11024 21069 39452 40158 52008 333 91108 91205;
0128067560999992010011110004+46467+008933FM-12+055299999V0203401N002619999999N9999999N1+00031-00661101531ADDMA1999999094541MD1219999+9999OA149900361REMSYN076AAXX  11104 06756 33/// /3405 10003 21066 39454 40153 52/// 333 91107 91206;
0128067560999992010011111004+46467+008933FM-12+055299999V0203501N001019999999N9999999N1+00281-00571101431ADDMA1999999094511MD1010021+9999OA149900361REMSYN076AAXX  11114 06756 33/// /3502 10028 21057 39451 40143 50002 333 91107 91206;
0128067560999992010011112004+46467+008933FM-12+055299999V0201501N001519999999N9999999N1+00311-00441101371ADDMA1999999094471MD1810051+9999OA149900511REMSYN076AAXX  11124 06756 33/// /1503 10031 21044 39447 40137 58005 333 91110 91206;
0128067560999992010011113004+46467+008933FM-12+055299999V0201601N001019999999N9999999N1+00331-00461101311ADDMA1999999094411MD1810131+9999OA149900361REMSYN076AAXX  11134 06756 33/// /1602 10033 21046 39441 40131 58013 333 91107 91205;
0087067560999992010011114004+46467+008933FM-12+055299999V0201601N000519999999N9999999N1+00331-00371101261ADDMA1999999094371REMSYN060AAXX  11144 06756 33/// /1601 10033 21037 39437 40126 5////;
0128067560999992010011115004+46467+008933FM-12+055299999V0203401N001019999999N9999999N1+00141-00201101311ADDMA1999999094371MD1710101+9999OA149900361REMSYN076AAXX  11154 06756 33/// /3402 10014 21020 39437 40131 57010 333 91107 91206;
0128067560999992010011116004+46467+008933FM-12+055299999V0203401N001019999999N9999999N1-00021-00291101371ADDMA1999999094381MD1510031+9999OA149900211REMSYN076AAXX  11164 06756 33/// /3402 11002 21029 39438 40137 55003 333 91104 91202;
0128067560999992010011117004+46467+008933FM-12+055299999V0202901N001019999999N9999999N1-00081-00411101421ADDMA1999999094411MD1310041+9999OA149900151REMSYN076AAXX  11174 06756 33/// /2902 11008 21041 39441 40142 53004 333 91103 91202;
0147067560999992010011118004+46467+008933FM-12+055299999V0203401N001519999999N9999999N1-00071-00411101461ADDKA1120M+00351MA1999999094451MD1210081+9999OA149900361REMSYN082AAXX  11184 06756 33/// /3403 11007 21041 39445 40146 52008 333 10035 91107 91206;
0128067560999992010011119004+46467+008933FM-12+055299999V0209999C000019999999N9999999N1-00071-00371101501ADDMA1999999094491MD1310111+9999OA149900261REMSYN076AAXX  11194 06756 33/// /0000 11007 21037 39449 40150 53011 333 91105 91203;
0128067560999992010011120004+46467+008933FM-12+055299999V0203401N001519999999N9999999N1-00101-00371101561ADDMA1999999094541MD1310131+9999OA149900211REMSYN076AAXX  11204 06756 33/// /3403 11010 21037 39454 40156 53013 333 91104 91203;
0128067560999992010011121004+46467+008933FM-12+055299999V0203101N001519999999N9999999N1-00151-00421101621ADDMA1999999094581MD1110131+9999OA149900261REMSYN076AAXX  11214 06756 33/// /3103 11015 21042 39458 40162 51013 333 91105 91203;
0128067560999992010011122004+46467+008933FM-12+055299999V0203501N001019999999N9999999N1-00091-00371101611ADDMA1999999094591MD1210101+9999OA149900261REMSYN076AAXX  11224 06756 33/// /3502 11009 21037 39459 40161 52010 333 91105 91203;
0128067560999992010011123004+46467+008933FM-12+055299999V0203301N001019999999N9999999N1-00101-00341101621ADDMA1999999094601MD1210061+9999OA149900211REMSYN076AAXX  11234 06756 33/// /3302 11010 21034 39460 40162 52006 333 91104 91203;
0128067560999992010011200004+46467+008933FM-12+055299999V0203201N002119999999N9999999N1-00021-00361101611ADDMA1999999094611MD1210031+9999OA149900361REMSYN076AAXX  12004 06756 33/// /3204 11002 21036 39461 40161 52003 333 91107 91205;
0128067560999992010011201004+46467+008933FM-12+055299999V0203201N001019999999N9999999N1-00061-00351101641ADDMA1999999094621MD1210031+9999OA149900261REMSYN076AAXX  12014 06756 33/// /3202 11006 21035 39462 40164 52003 333 91105 91204;
0128067560999992010011202004+46467+008933FM-12+055299999V0202901N001519999999N9999999N1-00101-00401101651ADDMA1999999094621MD1219999+9999OA149900311REMSYN076AAXX  12024 06756 33/// /2903 11010 21040 39462 40165 52/// 333 91106 91204;
0128067560999992010011203004+46467+008933FM-12+055299999V0203301N001019999999N9999999N1-00111-00411101651ADDMA1999999094621MD1210011+9999OA149900311REMSYN076AAXX  12034 06756 33/// /3302 11011 21041 39462 40165 52001 333 91106 91204;
0128067560999992010011204004+46467+008933FM-12+055299999V0203101N000519999999N9999999N1-00101-00371101621ADDMA1999999094601MD1710021+9999OA149900311REMSYN076AAXX  12044 06756 33/// /3101 11010 21037 39460 40162 57002 333 91106 91204;
0128067560999992010011205004+46467+008933FM-12+055299999V0203101N001519999999N9999999N1-00041-00391101621ADDMA1999999094611MD1710011+9999OA149900261REMSYN076AAXX  12054 06756 33/// /3103 11004 21039 39461 40162 57001 333 91105 91203;
0225067560999992010011206004+46467+008933FM-12+055299999V0200101N001019999999N9999999N1-00121-00401101641ADDAA124000091AL19900091GJ102469IA2999-00409KA1999N-00151MA1999999094611MD1710011+9999OA149900311REMSYN100AAXX  12064 06756 33/// /0102 11012 21040 39461 40164 57001 333 21015 3/104 55041 70000 91106 91204;EQDQ01  00002PRCP24
0128067560999992010011207004+46467+008933FM-12+055299999V0203501N002119999999N9999999N1-00091-00461101671ADDMA1999999094641MD1210041+9999OA149900361REMSYN076AAXX  12074 06756 33/// /3504 11009 21046 39464 40167 52004 333 91107 91204;
0128067560999992010011208004+46467+008933FM-12+055299999V0203101N000519999999N9999999N1-00241-00561101731ADDMA1999999094661MD1219999+9999OA149900361REMSYN076AAXX  12084 06756 33/// /3101 11024 21056 39466 40173 52/// 333 91107 91204;
0128067560999992010011209004+46467+008933FM-12+055299999V0203501N001519999999N9999999N1-00091-00531101721ADDMA1999999094691MD1210081+9999OA149900361REMSYN076AAXX  12094 06756 33/// /3503 11009 21053 39469 40172 52008 333 91107 91204;
0128067560999992010011210004+46467+008933FM-12+055299999V0209999C000019999999N9999999N1+00221-00431101621ADDMA1999999094681MD1210041+9999OA149900311REMSYN076AAXX  12104 06756 33/// /0000 10022 21043 39468 40162 52004 333 91106 91204;
0128067560999992010011211004+46467+008933FM-12+055299999V0201801N000519999999N9999999N1+00221-00341101591ADDMA1999999094651MD1810011+9999OA149900211REMSYN076AAXX  12114 06756 33/// /1801 10022 21034 39465 40159 58001 333 91104 91203;
0128067560999992010011212004+46467+008933FM-12+055299999V0200101N000519999999N9999999N1+00251-00351101521ADDMA1999999094591MD1710101+9999OA149900361REMSYN076AAXX  12124 06756 33/// /0101 10025 21035 39459 40152 57010 333 91107 91204;
0128067560999992010011213004+46467+008933FM-12+055299999V0201601N001519999999N9999999N1+00231-00311101501ADDMA1999999094571MD1710111+9999OA149900211REMSYN076AAXX  12134 06756 33/// /1603 10023 21031 39457 40150 57011 333 91104 91203;
0087067560999992010011214004+46467+008933FM-12+055299999V0209999C000019999999N9999999N1+00221-00301101471ADDMA1999999094541REMSYN060AAXX  12144 06756 33/// /0000 10022 21030 39454 40147 5////;
0128067560999992010011215004+46467+008933FM-12+055299999V0200101N000519999999N9999999N1+00191-00261101421ADDMA1999999094481MD1710111+9999OA149900211REMSYN076AAXX  12154 06756 33/// /0101 10019 21026 39448 40142 57011 333 91104 91203;
0128067560999992010011216004+46467+008933FM-12+055299999V0209999C000019999999N9999999N1+00091-00221101421ADDMA1999999094461MD1710111+9999OA149900311REMSYN076AAXX  12164 06756 33/// /0000 10009 21022 39446 40142 57011 333 91106 91204;
0128067560999992010011217004+46467+008933FM-12+055299999V0203401N001519999999N9999999N1+00071-00251101401ADDMA1999999094431MD1710111+9999OA149900311REMSYN076AAXX  12174 06756 33/// /3403 10007 21025 39443 40140 57011 333 91106 91204;
0147067560999992010011218004+46467+008933FM-12+055299999V0209999C000019999999N9999999N1+00031-00231101441ADDKA1120M+00261MA1999999094461MD1510021+9999OA149900361REMSYN082AAXX  12184 06756 33/// /0000 10003 21023 39446 40144 55002 333 10026 91107 91204;
0128067560999992010011219004+46467+008933FM-12+055299999V0200401N000519999999N9999999N1+00001-00221101451ADDMA1999999094461MD1510001+9999OA149900211REMSYN076AAXX  12194 06756 33/// /0401 10000 21022 39446 40145 55000 333 91104 91204;
0128067560999992010011220004+46467+008933FM-12+055299999V0209999C000019999999N9999999N1-00031-00201101491ADDMA1999999094491MD1210061+9999OA149900211REMSYN076AAXX  12204 06756 33/// /0000 11003 21020 39449 40149 52006 333 91104 91204;
0128067560999992010011221004+46467+008933FM-12+055299999V0203101N001019999999N9999999N1-00021-00231101461ADDMA1999999094471MD1310011+9999OA149900311REMSYN076AAXX  12214 06756 33/// /3102 11002 21023 39447 40146 53001 333 91106 91204;
0128067560999992010011222004+46467+008933FM-12+055299999V0209999C000019999999N9999999N1-00021-00211101411ADDMA1999999094421MD1810041+9999OA149900151REMSYN076AAXX  12224 06756 33/// /0000 11002 21021 39442 40141 58004 333 91103 91202;
0128067560999992010011223004+46467+008933FM-12+055299999V0203001N000519999999N9999999N1-00021-00221101321ADDMA1999999094341MD1710151+9999OA149900151REMSYN076AAXX  12234 06756 33/// /3001 11002 21022 39434 40132 57015 333 91103 91202;
0128067560999992010011300004+46467+008933FM-12+055299999V0209999C000019999999N9999999N1-00031-00231101311ADDMA1999999094321MD1710151+9999OA149900311REMSYN076AAXX  13004 06756 33/// /0000 11003 21023 39432 40131 57015 333 91106 91204;
0128067560999992010011301004+46467+008933FM-12+055299999V0203001N001019999999N9999999N1-00021-00211101281ADDMA1999999094301MD1710121+9999OA149900151REMSYN076AAXX  13014 06756 33/// /3002 11002 21021 39430 40128 57012 333 91103 91202;
0128067560999992010011302004+46467+008933FM-12+055299999V0209999C000019999999N9999999N1-00021-00211101221ADDMA1999999094241MD1719999+9999OA149900211REMSYN076AAXX  13024 06756 33/// /0000 11002 21021 39424 40122 57/// 333 91104 91203;
0128067560999992010011303004+46467+008933FM-12+055299999V0203601N001019999999N9999999N1-00061-00151101181ADDMA1999999094201MD1719999+9999OA149900311REMSYN076AAXX  13034 06756 33/// /3602 11006 21015 39420 40118 57/// 333 91106 91203;
0128067560999992010011304004+46467+008933FM-12+055299999V0203501N001019999999N9999999N1-00061-00121101161ADDMA1999999094181MD1610121+9999OA149900311REMSYN076AAXX  13044 06756 33/// /3502 11006 21012 39418 40116 56012 333 91106 91203;
0128067560999992010011305004+46467+008933FM-12+055299999V0209999C001019999999N9999999N1-00061-00081101121ADDMA1999999094141MD1610101+9999OA149900151REMSYN076AAXX  13054 06756 33/// /0002 11006 21008 39414 40112 56010 333 91103 91203;
0264067560999992010011306004+46467+008933FM-12+055299999V0203101N000519999999N9999999N1-00061-00071101121ADDAA112000091AA224000091AL10600091GJ101089IA2999-00209KA1999N-00071MA1999999094141MD1610061+9999OA149900311REMSYN112AAXX  13064 06756 03/// /3101 11006 21007 39414 40112 56006 69912 333 21007 3/102 55018 69915 70001 91106 91204;EQDQ01  00002PRCP24Q02  00002PRCP12
0147067560999992010011307004+46467+008933FM-12+055299999V0203301N001019999999N9999999N1-00081-00081101171ADDMA1999999094181MD1310011+9999OA149900151REMSYN076AAXX  13074 06756 33/// /3302 11008 21008 39418 40117 53000 333 91103 91202;EQDQ01+000002APC3  
0128067560999992010011308004+46467+008933FM-12+055299999V0203501N001519999999N9999999N1-00041-00111101171ADDMA1999999094191MD1210051+9999OA149900151REMSYN076AAXX  13084 06756 33/// /3503 11004 21011 39419 40117 52005 333 91103 91203;
0128067560999992010011309004+46467+008933FM-12+055299999V0203201N001519999999N9999999N1+00001-00141101201ADDMA1999999094231MD1210091+9999OA149900211REMSYN076AAXX  13094 06756 33/// /3203 10000 21014 39423 40120 52009 333 91104 91203;
0128067560999992010011310004+46467+008933FM-12+055299999V0202101N000519999999N9999999N1+00141-00191101161ADDMA1999999094231MD1210051+9999OA149900211REMSYN076AAXX  13104 06756 33/// /2101 10014 21019 39423 40116 52005 333 91104 91203;
0128067560999992010011311004+46467+008933FM-12+055299999V0203601N000519999999N9999999N1+00241-00171101131ADDMA1999999094221MD1010031+9999OA149900211REMSYN076AAXX  13114 06756 33/// /3601 10024 21017 39422 40113 50003 333 91104 91203;
0128067560999992010011312004+46467+008933FM-12+055299999V0201601N001019999999N9999999N1+00231-00091101071ADDMA1999999094171MD1810061+9999OA149900311REMSYN076AAXX  13124 06756 33/// /1602 10023 21009 39417 40107 58006 333 91106 91203;
0128067560999992010011313004+46467+008933FM-12+055299999V0201601N002619999999N9999999N1+00241-00101101041ADDMA1999999094141MD1710091+9999OA149900361REMSYN076AAXX  13134 06756 33/// /1605 10024 21010 39414 40104 57009 333 91107 91205;
0128067560999992010011314004+46467+008933FM-12+055299999V0201501N001519999999N9999999N1+00221-00141101041ADDMA1999999094141MD1719999+9999OA149900361REMSYN076AAXX  13144 06756 33/// /1503 10022 21014 39414 40104 57/// 333 91107 91205;
0128067560999992010011315004+46467+008933FM-12+055299999V0203601N001019999999N9999999N1+00201-00151101041ADDMA1999999094131MD1710041+9999OA149900361REMSYN076AAXX  13154 06756 33/// /3602 10020 21015 39413 40104 57004 333 91107 91205;
0128067560999992010011316004+46467+008933FM-12+055299999V0209999C000019999999N9999999N1+00121-00131101091ADDMA1999999094161MD1310021+9999OA149900211REMSYN076AAXX  13164 06756 33/// /0000 10012 21013 39416 40109 53002 333 91104 91203;
0128067560999992010011317004+46467+008933FM-12+055299999V0209999C000019999999N9999999N1+00061-00151101151ADDMA1999999094201MD1210061+9999OA149900101REMSYN076AAXX  13174 06756 33/// /0000 10006 21015 39420 40115 52006 333 91102 91201;
0147067560999992010011318004+46467+008933FM-12+055299999V0203501N001519999999N9999999N1+00021-00171101221ADDKA1120M+00261MA1999999094251MD1310121+9999OA149900361REMSYN082AAXX  13184 06756 33/// /3503 10002 21017 39425 40122 53012 333 10026 91107 91205;
0128067560999992010011319004+46467+008933FM-12+055299999V0203101N001519999999N9999999N1+00031-00171101241ADDMA1999999094271MD1210111+9999OA149900211REMSYN076AAXX  13194 06756 33/// /3103 10003 21017 39427 40124 52011 333 91104 91203;
0087067560999992010011400004+46467+008933FM-12+055299999V0203401N002619999999N9999999N1-00111-00411101221ADDMA1999999094221REMSYN060AAXX  14004 06756 43/// /3405 11011 21041 39422 40122 5////;
0128067560999992010011401004+46467+008933FM-12+055299999V0203501N001019999999N9999999N1-00221-00451101271ADDMA1999999094241MD1019999+9999OA149900311REMSYN076AAXX  14014 06756 33/// /3502 11022 21045 39424 40127 50/// 333 91106 91205;
0128067560999992010011402004+46467+008933FM-12+055299999V0203601N001519999999N9999999N1-00291-00511101301ADDMA1999999094251MD1519999+9999OA149900311REMSYN076AAXX  14024 06756 33/// /3603 11029 21051 39425 40130 55/// 333 91106 91205;
0087067560999992010011403004+46467+008933FM-12+055299999V0203401N002119999999N9999999N1-00201-00521101251ADDMA1999999094231REMSYN060AAXX  14034 06756 33/// /3404 11020 21052 39423 40125 5////;
0128067560999992010011404004+46467+008933FM-12+055299999V0203201N000519999999N9999999N1-00231-00471101261ADDMA1999999094231MD1710011+9999OA149900311REMSYN076AAXX  14044 06756 33/// /3201 11023 21047 39423 40126 57001 333 91106 91204;
0128067560999992010011405004+46467+008933FM-12+055299999V0203301N001519999999N9999999N1-00081-00411101231ADDMA1999999094241MD1510011+9999OA149900311REMSYN076AAXX  14054 06756 33/// /3303 11008 21041 39424 40123 55001 333 91106 91205;
0225067560999992010011406004+46467+008933FM-12+055299999V0203401N001519999999N9999999N1-00091-00381101201ADDAA124000091AL19900091GJ100009IA2999-00609KA1999N-00291MA1999999094211MD1810021+9999OA149900311REMSYN100AAXX  14064 06756 33/// /3403 11009 21038 39421 40120 58002 333 21029 3/106 55000 70000 91106 91205;EQDQ01  00002PRCP24
0163067560999992010011407004+46467+008933FM-12+055299999V0203201N000519999999N9999999N1-00101-00371101231ADDMA1999999094231MD1710031+9999OA149900261REMSYN076AAXX  14074 06756 33/// /3201 11010 21037 39423 40123 57000 333 91105 91203;EQDQ01+000072APCTENQ02+000002APC3  
0128067560999992010011408004+46467+008933FM-12+055299999V0203101N001019999999N9999999N1-00061-00341101251ADDMA1999999094261MD1319999+9999OA149900311REMSYN076AAXX  14084 06756 33/// /3102 11006 21034 39426 40125 53/// 333 91106 91204;
0128067560999992010011409004+46467+008933FM-12+055299999V0203301N001019999999N9999999N1+00071-00381101211ADDMA1999999094261MD1210051+9999OA149900311REMSYN076AAXX  14094 06756 33/// /3302 10007 21038 39426 40121 52005 333 91106 91205;
0128067560999992010011410004+46467+008933FM-12+055299999V0201501N001019999999N9999999N1+00141-00331101221ADDMA1999999094281MD1210051+9999OA149900211REMSYN076AAXX  14104 06756 33/// /1502 10014 21033 39428 40122 52005 333 91104 91204;
0128067560999992010011411004+46467+008933FM-12+055299999V0202401N000519999999N9999999N1+00151-00321101191ADDMA1999999094261MD1010001+9999OA149900211REMSYN076AAXX  14114 06756 33/// /2401 10015 21032 39426 40119 50000 333 91104 91203;
0128067560999992010011412004+46467+008933FM-12+055299999V0201501N001019999999N9999999N1+00211-00271101131ADDMA1999999094221MD1810041+9999OA149900311REMSYN076AAXX  14124 06756 33/// /1502 10021 21027 39422 40113 58004 333 91106 91205;
0128067560999992010011413004+46467+008933FM-12+055299999V0201401N001519999999N9999999N1+00231-00281101081ADDMA1999999094181MD1610101+9999OA149900211REMSYN076AAXX  14134 06756 33/// /1403 10023 21028 39418 40108 56010 333 91104 91203;
0128067560999992010011414004+46467+008933FM-12+055299999V0209999C000019999999N9999999N1+00221-00341101131ADDMA1999999094221MD1510041+9999OA149900211REMSYN076AAXX  14144 06756 33/// /0000 10022 21034 39422 40113 55004 333 91104 91203;
0128067560999992010011415004+46467+008933FM-12+055299999V0201601N000519999999N9999999N1+00241-00321101141ADDMA1999999094231MD1310011+9999OA149900211REMSYN076AAXX  14154 06756 33/// /1601 10024 21032 39423 40114 53001 333 91104 91203;
0128067560999992010011416004+46467+008933FM-12+055299999V0203101N000519999999N9999999N1+00131-00181101121ADDMA1999999094191MD1010011+9999OA149900151REMSYN076AAXX  14164 06756 33/// /3101 10013 21018 39419 40112 50001 333 91103 91203;
0128067560999992010011417004+46467+008933FM-12+055299999V0203001N000519999999N9999999N1+00041-00251101191ADDMA1999999094231MD1210011+9999OA149900151REMSYN076AAXX  14174 06756 33/// /3001 10004 21025 39423 40119 52001 333 91103 91203;
0147067560999992010011418004+46467+008933FM-12+055299999V0203401N001019999999N9999999N1-00061-00341101271ADDKA1120M+00251MA1999999094281MD1310051+9999OA149900311REMSYN082AAXX  14184 06756 33/// /3402 11006 21034 39428 40127 53005 333 10025 91106 91204;
0128067560999992010011419004+46467+008933FM-12+055299999V0203301N000519999999N9999999N1-00101-00381101381ADDMA1999999094371MD1310181+9999OA149900211REMSYN076AAXX  14194 06756 33/// /3301 11010 21038 39437 40138 53018 333 91104 91203;
0128067560999992010011420004+46467+008933FM-12+055299999V0209999C000019999999N9999999N1-00131-00371101481ADDMA1999999094461MD1310231+9999OA149900211REMSYN076AAXX  14204 06756 33/// /0000 11013 21037 39446 40148 53023 333 91104 91203;
0128067560999992010011421004+46467+008933FM-12+055299999V0203401N001019999999N9999999N1-00181-00421101571ADDMA1999999094531MD1210251+9999OA149900211REMSYN076AAXX  14214 06756 33/// /3402 11018 21042 39453 40157 52025 333 91104 91203;
0128067560999992010011422004+46467+008933FM-12+055299999V0203401N001519999999N9999999N1-00201-00451101641ADDMA1999999094591MD1110221+9999OA149900211REMSYN076AAXX  14224 06756 33/// /3403 11020 21045 39459 40164 51022 333 91104 91203;
0128067560999992010011423004+46467+008933FM-12+055299999V0203401N001019999999N9999999N1-00201-00441101661ADDMA1999999094611MD1210151+9999OA149900211REMSYN076AAXX  14234 06756 33/// /3402 11020 21044 39461 40166 52015 333 91104 91203;
0128067560999992010011500004+46467+008933FM-12+055299999V0203101N001519999999N9999999N1-00231-00471101651ADDMA1999999094591MD1010061+9999OA149900211REMSYN076AAXX  15004 06756 33/// /3103 11023 21047 39459 40165 50006 333 91104 91203;
0128067560999992010011501004+46467+008933FM-12+055299999V0203401N002119999999N9999999N1-00211-00491101631ADDMA1999999094581MD1710011+9999OA149900361REMSYN076AAXX  15014 06756 33/// /3404 11021 21049 39458 40163 57001 333 91107 91205;
0128067560999992010011502004+46467+008933FM-12+055299999V0203301N002619999999N9999999N1-00171-00531101641ADDMA1999999094601MD1010011+9999OA149900361REMSYN076AAXX  15024 06756 33/// /3305 11017 21053 39460 40164 50001 333 91107 91205;
0087067560999992010011503004+46467+008933FM-12+055299999V0203401N002619999999N9999999N1-00251-00591101731ADDMA1999999094661REMSYN060AAXX  15034 06756 33/// /3405 11025 21059 39466 40173 5////;
0128067560999992010011504004+46467+008933FM-12+055299999V0203301N002119999999N9999999N1-00221-00611101781ADDMA1999999094711MD1210131+9999OA149900311REMSYN076AAXX  15044 06756 33/// /3304 11022 21061 39471 40178 52013 333 91106 91205;
0128067560999992010011505004+46467+008933FM-12+055299999V0203501N001519999999N9999999N1-00291-00641101801ADDMA1999999094711MD1210111+9999OA149900361REMSYN076AAXX  15054 06756 33/// /3503 11029 21064 39471 40180 52011 333 91107 91205;
0225067560999992010011506004+46467+008933FM-12+055299999V0203201N001519999999N9999999N1-00291-00651101841ADDAA124000091AL19900091GJ100009IA2999-00709KA1999N-00381MA1999999094751MD1210091+9999OA149900361REMSYN100AAXX  15064 06756 33/// /3203 11029 21065 39475 40184 52009 333 21038 3/107 55000 70000 91107 91205;EQDQ01  00002PRCP24
0128067560999992010011507004+46467+008933FM-12+055299999V0203001N000519999999N9999999N1-00341-00651101941ADDMA1999999094831MD1210121+9999OA149900361REMSYN076AAXX  15074 06756 33/// /3001 11034 21065 39483 40194 52012 333 91107 91205;
0128067560999992010011508004+46467+008933FM-12+055299999V0203301N001519999999N9999999N1-00201-00621102021ADDMA1999999094941MD1319999+9999OA149900311REMSYN076AAXX  15084 06756 33/// /3303 11020 21062 39494 40202 53/// 333 91106 91205;
0128067560999992010011509004+46467+008933FM-12+055299999V0203301N002119999999N9999999N1-00121-00581102101ADDMA1999999095041MD1210291+9999OA149900361REMSYN076AAXX  15094 06756 33/// /3304 11012 21058 39504 40210 52029 333 91107 91205;
0128067560999992010011510004+46467+008933FM-12+055299999V0203401N001019999999N9999999N1+00081-00521102061ADDMA1999999095051MD1110221+9999OA149900311REMSYN076AAXX  15104 06756 33/// /3402 10008 21052 39505 40206 51022 333 91106 91205;
0128067560999992010011511004+46467+008933FM-12+055299999V0200301N001019999999N9999999N1+00201-00481102031ADDMA1999999095051MD1110111+9999OA149900261REMSYN076AAXX  15114 06756 33/// /0302 10020 21048 39505 40203 51011 333 91105 91204;
0128067560999992010011512004+46467+008933FM-12+055299999V0203101N001019999999N9999999N1+00401-00531101911ADDMA1999999094991MD1810051+9999OA149900361REMSYN076AAXX  15124 06756 33/// /3102 10040 21053 39499 40191 58005 333 91107 91205;
0128067560999992010011513004+46467+008933FM-12+055299999V0201501N002119999999N9999999N1+00331-00441101941ADDMA1999999095001MD1710051+9999OA149900511REMSYN076AAXX  15134 06756 33/// /1504 10033 21044 39500 40194 57005 333 91110 91207;
0128067560999992010011514004+46467+008933FM-12+055299999V0209999C000019999999N9999999N1+00201-00291102021ADDMA1999999095041MD1510011+9999OA149900511REMSYN076AAXX  15144 06756 33/// /0000 10020 21029 39504 40202 55001 333 91110 91207;
0128067560999992010011515004+46467+008933FM-12+055299999V0201401N001019999999N9999999N1+00181-00341102111ADDMA1999999095121MD1310131+9999OA149900511REMSYN076AAXX  15154 06756 33/// /1402 10018 21034 39512 40211 53013 333 91110 91207;
0128067560999992010011516004+46467+008933FM-12+055299999V0203301N001019999999N9999999N1+00011-00381102261ADDMA1999999095221MD1310221+9999OA149900261REMSYN076AAXX  15164 06756 33/// /3302 10001 21038 39522 40226 53022 333 91105 91202;
0128067560999992010011517004+46467+008933FM-12+055299999V0203401N002119999999N9999999N1-00031-00431102331ADDMA1999999095271MD1110231+9999OA149900311REMSYN076AAXX  15174 06756 33/// /3404 11003 21043 39527 40233 51023 333 91106 91204;
0147067560999992010011518004+46467+008933FM-12+055299999V0203101N002119999999N9999999N1-00081-00461102381ADDKA1120M+00451MA1999999095311MD1110191+9999OA149900511REMSYN082AAXX  15184 06756 33/// /3104 11008 21046 39531 40238 51019 333 10045 91110 91207;
0128067560999992010011519004+46467+008933FM-12+055299999V0203301N001019999999N9999999N1-00131-00521102441ADDMA1999999095351MD1110131+9999OA149900361REMSYN076AAXX  15194 06756 33/// /3302 11013 21052 39535 40244 51013 333 91107 91205;
0128067560999992010011520004+46467+008933FM-12+055299999V0203501N001519999999N9999999N1-00191-00591102481ADDMA1999999095371MD1110101+9999OA149900361REMSYN076AAXX  15204 06756 33/// /3503 11019 21059 39537 40248 51010 333 91107 91205;
0128067560999992010011521004+46467+008933FM-12+055299999V0203201N000519999999N9999999N1-00221-00581102561ADDMA1999999095441MD1310131+9999OA149900361REMSYN076AAXX  15214 06756 33/// /3201 11022 21058 39544 40256 53013 333 91107 91205;
0128067560999992010011522004+46467+008933FM-12+055299999V0203201N001019999999N9999999N1-00291-00611102671ADDMA1999999095521MD1310171+9999OA149900261REMSYN076AAXX  15224 06756 33/// /3202 11029 21061 39552 40267 53017 333 91105 91204;
0128067560999992010011523004+46467+008933FM-12+055299999V0203501N001519999999N9999999N1-00301-00611102731ADDMA1999999095581MD1310211+9999OA149900261REMSYN076AAXX  15234 06756 33/// /3503 11030 21061 39558 40273 53021 333 91105 91204;
0128067560999992010011600004+46467+008933FM-12+055299999V0203401N002119999999N9999999N1-00231-00611102741ADDMA1999999095601MD1210161+9999OA149900511REMSYN076AAXX  16004 06756 33/// /3404 11023 21061 39560 40274 52016 333 91110 91207;
0128067560999992010011601004+46467+008933FM-12+055299999V0203401N002119999999N9999999N1-00331-00681102731ADDMA1999999095571MD1010051+9999OA149900361REMSYN076AAXX  16014 06756 33/// /3404 11033 21068 39557 40273 50005 333 91107 91205;
0163067560999992010011602004+46467+008933FM-12+055299999V0203301N002619999999N9999999N1-00221-00691102711ADDMA1999999095581MD1710021+9999OA149900361REMSYN076AAXX  16024 06756 33/// /3305 11022 21069 39558 40271 57000 333 91107 91205;EQDQ01+000072APCTENQ02+000002APC3  
0128067560999992010011603004+46467+008933FM-12+055299999V0203301N002119999999N9999999N1-00271-00711102711ADDMA1999999095571MD1719999+9999OA149900361REMSYN076AAXX  16034 06756 33/// /3304 11027 21071 39557 40271 57/// 333 91107 91206;
0128067560999992010011604004+46467+008933FM-12+055299999V0203301N002619999999N9999999N1-00271-00741102761ADDMA1999999095611MD1210041+9999OA149900461REMSYN076AAXX  16044 06756 33/// /3305 11027 21074 39561 40276 52004 333 91109 91206;
0128067560999992010011605004+46467+008933FM-12+055299999V0203301N002119999999N9999999N1-00341-00771102731ADDMA1999999095571MD1710011+9999OA149900461REMSYN076AAXX  16054 06756 33/// /3304 11034 21077 39557 40273 57001 333 91109 91205;
0241067560999992010011606004+46467+008933FM-12+055299999V0203301N002119999999N9999999N1-00351-00831102741ADDAA124000091AL19900091GJ101809IA2999-00809KA1999N-00391MA1999999095571MD1810031+9999OA149900461REMSYN100AAXX  16064 06756 33/// /3304 11035 21083 39557 40274 58000 333 21039 3/108 55030 70000 91109 91206;EQDQ01+000002APC3  Q02  00002PRCP24
0128067560999992010011607004+46467+008933FM-12+055299999V0203201N002619999999N9999999N1-00351-00861102771ADDMA1999999095601MD1510011+9999OA149900411REMSYN076AAXX  16074 06756 33/// /3205 11035 21086 39560 40277 55001 333 91108 91206;
0128067560999992010011608004+46467+008933FM-12+055299999V0203301N002619999999N9999999N1-00371-00891102831ADDMA1999999095651MD1210081+9999OA149900411REMSYN076AAXX  16084 06756 33/// /3305 11037 21089 39565 40283 52008 333 91108 91206;
0128067560999992010011609004+46467+008933FM-12+055299999V0203601N002119999999N9999999N1-00311-00861102821ADDMA1999999095661MD1210091+9999OA149900461REMSYN076AAXX  16094 06756 33/// /3604 11031 21086 39566 40282 52009 333 91109 91206;
0128067560999992010011610004+46467+008933FM-12+055299999V0203501N002119999999N9999999N1+00061-00791102671ADDMA1999999095611MD1010011+9999OA149900411REMSYN076AAXX  16104 06756 33/// /3504 10006 21079 39561 40267 50001 333 91108 91205;
0128067560999992010011611004+46467+008933FM-12+055299999V0203401N000519999999N9999999N1+00261-00811102591ADDMA1999999095591MD1710061+9999OA149900411REMSYN076AAXX  16114 06756 33/// /3401 10026 21081 39559 40259 57006 333 91108 91205;
0128067560999992010011612004+46467+008933FM-12+055299999V0201501N002119999999N9999999N1+00231-00601102561ADDMA1999999095551MD1710111+9999OA149900461REMSYN076AAXX  16124 06756 33/// /1504 10023 21060 39555 40256 57011 333 91109 91206;
0128067560999992010011613004+46467+008933FM-12+055299999V0201501N002619999999N9999999N1+00231-00621102511ADDMA1999999095511MD1710101+9999OA149900461REMSYN076AAXX  16134 06756 33/// /1505 10023 21062 39551 40251 57010 333 91109 91206;
0128067560999992010011614004+46467+008933FM-12+055299999V0201501N001519999999N9999999N1+00181-00561102531ADDMA1999999095511MD1719999+9999OA149900461REMSYN076AAXX  16144 06756 33/// /1503 10018 21056 39551 40253 57/// 333 91109 91206;
0128067560999992010011615004+46467+008933FM-12+055299999V0201901N001019999999N9999999N1+00121-00521102511ADDMA1999999095481MD1710071+9999OA149900461REMSYN076AAXX  16154 06756 33/// /1902 10012 21052 39548 40251 57007 333 91109 91206;
0128067560999992010011616004+46467+008933FM-12+055299999V0209999C000019999999N9999999N1+00031-00421102581ADDMA1999999095521MD1310011+9999OA149900361REMSYN076AAXX  16164 06756 33/// /0000 10003 21042 39552 40258 53001 333 91107 91205;
0128067560999992010011617004+46467+008933FM-12+055299999V0203001N001019999999N9999999N1-00021-00431102551ADDMA1999999095481MD1710031+9999OA149900361REMSYN076AAXX  16174 06756 33/// /3002 11002 21043 39548 40255 57003 333 91107 91205;
0147067560999992010011618004+46467+008933FM-12+055299999V0203101N000519999999N9999999N1-00061-00411102591ADDKA1120M+00271MA1999999095511MD1210031+9999OA149900461REMSYN082AAXX  16184 06756 33/// /3101 11006 21041 39551 40259 52003 333 10027 91109 91206;
0128067560999992010011619004+46467+008933FM-12+055299999V0209999C000019999999N9999999N1-00011-00411102531ADDMA1999999095471MD1710051+9999OA149900311REMSYN076AAXX  16194 06756 33/// /0000 11001 21041 39547 40253 57005 333 91106 91204;
0128067560999992010011620004+46467+008933FM-12+055299999V0209999C000019999999N9999999N1+00011-00371102491ADDMA1999999095431MD1710051+9999OA149900311REMSYN076AAXX  16204 06756 33/// /0000 10001 21037 39543 40249 57005 333 91106 91204;
0128067560999992010011621004+46467+008933FM-12+055299999V0201601N001519999999N9999999N1+00001-00371102491ADDMA1999999095431MD1710081+9999OA149900361REMSYN076AAXX  16214 06756 33/// /1603 10000 21037 39543 40249 57008 333 91107 91205;
0128067560999992010011622004+46467+008933FM-12+055299999V0203001N001019999999N9999999N1-00031-00401102541ADDMA1999999095471MD1310011+9999OA149900211REMSYN076AAXX  16224 06756 33/// /3002 11003 21040 39547 40254 53000 333 91104 91203;
0128067560999992010011623004+46467+008933FM-12+055299999V0209999C000019999999N9999999N1-00051-00381102491ADDMA1999999095421MD1710011+9999OA149900211REMSYN076AAXX  16234 06756 33/// /0000 11005 21038 39542 40249 57001 333 91104 91203;
0128067560999992010011700004+46467+008933FM-12+055299999V0203501N000519999999N9999999N1-00081-00361102471ADDMA1999999095391MD1810041+9999OA149900461REMSYN076AAXX  17004 06756 33/// /3501 11008 21036 39539 40247 58004 333 91109 91206;
0128067560999992010011701004+46467+008933FM-12+055299999V0203001N001519999999N9999999N1+00001-00331102471ADDMA1999999095411MD1510061+9999OA149900211REMSYN076AAXX  17014 06756 33/// /3003 10000 21033 39541 40247 55006 333 91104 91203;
0128067560999992010011702004+46467+008933FM-12+055299999V0200101N000519999999N9999999N1-00051-00331102421ADDMA1999999095351MD1819999+9999OA149900211REMSYN076AAXX  17024 06756 33/// /0101 11005 21033 39535 40242 58/// 333 91104 91203;
0087067560999992010011703004+46467+008933FM-12+055299999V0203301N001019999999N9999999N1-00171-00441102351ADDMA1999999095261REMSYN060AAXX  17034 06756 43/// /3302 11017 21044 39526 40235 5////;
0128067560999992010011704004+46467+008933FM-12+055299999V0203501N001519999999N9999999N1-00241-00541102321ADDMA1999999095211MD1710201+9999OA149900361REMSYN076AAXX  17044 06756 33/// /3503 11024 21054 39521 40232 57020 333 91107 91204;
0128067560999992010011705004+46467+008933FM-12+055299999V0203401N001019999999N9999999N1-00341-00591102391ADDMA1999999095251MD1719999+9999OA149900361REMSYN076AAXX  17054 06756 33/// /3402 11034 21059 39525 40239 57/// 333 91107 91204;
0225067560999992010011706004+46467+008933FM-12+055299999V0203401N001519999999N9999999N1-00391-00661102371ADDAA124000091AL19900091GJ102469IA2999-00609KA1999N-00351MA1999999095221MD1710041+9999OA149900361REMSYN100AAXX  17064 06756 33/// /3403 11039 21066 39522 40237 57004 333 21035 3/106 55041 70000 91107 91204;EQDQ01  00002PRCP24
0128067560999992010011707004+46467+008933FM-12+055299999V0203101N001519999999N9999999N1-00291-00621102361ADDMA1999999095241MD1010031+9999OA149900361REMSYN076AAXX  17074 06756 33/// /3103 11029 21062 39524 40236 50003 333 91107 91205;
0128067560999992010011708004+46467+008933FM-12+055299999V0209999C000019999999N9999999N1-00351-00641102321ADDMA1999999095181MD1719999+9999OA149900361REMSYN076AAXX  17084 06756 33/// /0000 11035 21064 39518 40232 57/// 333 91107 91205;
0128067560999992010011709004+46467+008933FM-12+055299999V0203301N002619999999N9999999N1-00131-00591102331ADDMA1999999095251MD1310031+9999OA149900361REMSYN076AAXX  17094 06756 33/// /3305 11013 21059 39525 40233 53003 333 91107 91205;
0128067560999992010011710004+46467+008933FM-12+055299999V0203601N002119999999N9999999N1+00091-00501102271ADDMA1999999095251MD1210011+9999OA149900361REMSYN076AAXX  17104 06756 33/// /3604 10009 21050 39525 40227 52001 333 91107 91205;
0128067560999992010011711004+46467+008933FM-12+055299999V0201501N001519999999N9999999N1+00251-00371102171ADDMA1999999095201MD1010021+9999OA149900361REMSYN076AAXX  17114 06756 33/// /1503 10025 21037 39520 40217 50002 333 91107 91204;
0128067560999992010011712004+46467+008933FM-12+055299999V0201601N002119999999N9999999N1+00241-00301102181ADDMA1999999095201MD1710051+9999OA149900461REMSYN076AAXX  17124 06756 33/// /1604 10024 21030 39520 40218 57005 333 91109 91206;
0128067560999992010011713004+46467+008933FM-12+055299999V0201701N001519999999N9999999N1+00301-00321102101ADDMA1999999095141MD1710111+9999OA149900461REMSYN076AAXX  17134 06756 33/// /1703 10030 21032 39514 40210 57011 333 91109 91206;
0128067560999992010011714004+46467+008933FM-12+055299999V0201901N001019999999N9999999N1+00121-00331102121ADDMA1999999095121MD1719999+9999OA149900361REMSYN076AAXX  17144 06756 33/// /1902 10012 21033 39512 40212 57/// 333 91107 91205;
0128067560999992010011715004+46467+008933FM-12+055299999V0209999C000019999999N9999999N1+00001-00381102161ADDMA1999999095121MD1710081+9999OA149900461REMSYN076AAXX  17154 06756 33/// /0000 10000 21038 39512 40216 57008 333 91109 91206;
0128067560999992010011716004+46467+008933FM-12+055299999V0202901N001519999999N9999999N1-00081-00391102231ADDMA1999999095171MD1310031+9999OA149900261REMSYN076AAXX  17164 06756 33/// /2903 11008 21039 39517 40223 53003 333 91105 91203;
0128067560999992010011717004+46467+008933FM-12+055299999V0203201N000519999999N9999999N1-00171-00451102341ADDMA1999999095251MD1210131+9999OA149900361REMSYN076AAXX  17174 06756 33/// /3201 11017 21045 39525 40234 52013 333 91107 91203;
0147067560999992010011718004+46467+008933FM-12+055299999V0203101N001519999999N9999999N1-00131-00441102361ADDKA1120M+00301MA1999999095281MD1110161+9999OA149900461REMSYN082AAXX  17184 06756 33/// /3103 11013 21044 39528 40236 51016 333 10030 91109 91206;
0128067560999992010011719004+46467+008933FM-12+055299999V0203301N002119999999N9999999N1-00221-00481102431ADDMA1999999095321MD1110151+9999OA149900361REMSYN076AAXX  17194 06756 33/// /3304 11022 21048 39532 40243 51015 333 91107 91205;
0128067560999992010011720004+46467+008933FM-12+055299999V0203301N002619999999N9999999N1+00021-00571102351ADDMA1999999095311MD1210061+9999OA149900511REMSYN076AAXX  17204 06756 33/// /3305 10002 21057 39531 40235 52006 333 91110 91206;
0128067560999992010011721004+46467+008933FM-12+055299999V0203301N003119999999N9999999N1+00511-00701102241ADDMA1999999095331MD1010051+9999OA149900721REMSYN076AAXX  17214 06756 33/// /3306 10051 21070 39533 40224 50005 333 91114 91209;
0128067560999992010011722004+46467+008933FM-12+055299999V0203501N000519999999N9999999N1+00381-00651102321ADDMA1999999095371MD1210051+9999OA149900721REMSYN076AAXX  17224 06756 33/// /3501 10038 21065 39537 40232 52005 333 91114 91209;
0128067560999992010011723004+46467+008933FM-12+055299999V0203201N000519999999N9999999N1+00251-00601102401ADDMA1999999095411MD1210101+9999OA149900571REMSYN076AAXX  17234 06756 33/// /3201 10025 21060 39541 40240 52010 333 91111 91208;
0128067560999992010011800004+46467+008933FM-12+055299999V0203401N002119999999N9999999N1+00341-00641102391ADDMA1999999095421MD1210091+9999OA149900721REMSYN076AAXX  18004 06756 33/// /3404 10034 21064 39542 40239 52009 333 91114 91209;
0128067560999992010011801004+46467+008933FM-12+055299999V0201601N000519999999N9999999N1+00221-00591102451ADDMA1999999095451MD1210081+9999OA149900621REMSYN076AAXX  18014 06756 33/// /1601 10022 21059 39545 40245 52008 333 91112 91204;
0087067560999992010011802004+46467+008933FM-12+055299999V0203001N001019999999N9999999N1+00071-00541102551ADDMA1999999095501REMSYN060AAXX  18024 06756 33/// /3002 10007 21054 39550 40255 5////;
0087067560999992010011803004+46467+008933FM-12+055299999V0203201N001019999999N9999999N1-00021-00621102581ADDMA1999999095511REMSYN060AAXX  18034 06756 33/// /3202 11002 21062 39551 40258 5////;
0128067560999992010011804004+46467+008933FM-12+055299999V0203401N001019999999N9999999N1-00031-00591102601ADDMA1999999095531MD1210081+9999OA149900261REMSYN076AAXX  18044 06756 33/// /3402 11003 21059 39553 40260 52008 333 91105 91203;
0128067560999992010011805004+46467+008933FM-12+055299999V0203301N001019999999N9999999N1-00051-00631102621ADDMA1999999095541MD1210041+9999OA149900311REMSYN076AAXX  18054 06756 33/// /3302 11005 21063 39554 40262 52004 333 91106 91203;
0225067560999992010011806004+46467+008933FM-12+055299999V0203501N001519999999N9999999N1-00111-00691102651ADDAA124000091AL19900091GJ102649IA2999-00509KA1999N-00231MA1999999095551MD1210041+9999OA149900721REMSYN100AAXX  18064 06756 33/// /3503 11011 21069 39555 40265 52004 333 21023 3/105 55044 70000 91114 91209;EQDQ01  00002PRCP24
0128067560999992010011807004+46467+008933FM-12+055299999V0200101N001019999999N9999999N1-00021-00701102661ADDMA1999999095581MD1210051+9999OA149900411REMSYN076AAXX  18074 06756 33/// /0102 11002 21070 39558 40266 52005 333 91108 91205;
0128067560999992010011808004+46467+008933FM-12+055299999V0203201N001019999999N9999999N1-00091-00691102731ADDMA1999999095631MD1219999+9999OA149900411REMSYN076AAXX  18084 06756 33/// /3202 11009 21069 39563 40273 52/// 333 91108 91205;
0128067560999992010011809004+46467+008933FM-12+055299999V0203101N000519999999N9999999N1+00231-00671102631ADDMA1999999095621MD1210071+9999OA149900411REMSYN076AAXX  18094 06756 33/// /3101 10023 21067 39562 40263 52007 333 91108 91205;
0128067560999992010011810004+46467+008933FM-12+055299999V0201801N000519999999N9999999N1+00431-00541102571ADDMA1999999095611MD1010031+9999OA149900261REMSYN076AAXX  18104 06756 33/// /1801 10043 21054 39561 40257 50003 333 91105 91203;
0128067560999992010011811004+46467+008933FM-12+055299999V0203001N001519999999N9999999N1+00681-00471102441ADDMA1999999095551MD1810081+9999OA149900361REMSYN076AAXX  18114 06756 33/// /3003 10068 21047 39555 40244 58008 333 91107 91203;
0128067560999992010011812004+46467+008933FM-12+055299999V0200301N004619999999N9999999N1+00901-00851102331ADDMA1999999095501MD1810121+9999OA149900821REMSYN076AAXX  18124 06756 33/// /0309 10090 21085 39550 40233 58012 333 91116 91209;
0128067560999992010011813004+46467+008933FM-12+055299999V0203601N003119999999N9999999N1+00881-00771102241ADDMA1999999095421MD1810191+9999OA149900821REMSYN076AAXX  18134 06756 33/// /3606 10088 21077 39542 40224 58019 333 91116 91209;
0128067560999992010011814004+46467+008933FM-12+055299999V0202601N002619999999N9999999N1+00441-00531102341ADDMA1999999095401MD1619999+9999OA149900771REMSYN076AAXX  18144 06756 33/// /2605 10044 21053 39540 40234 56/// 333 91115 91209;
