0137067590999992010010100004+46200+008800FM-12+164899999V0201001N001019999999N9999999N1-00071-00281999999ADDMA1999999080951MD1810111+9999ME1312709OA149900411REMSYN076AAXX  01004 06759 33/// /1002 11007 21028 38095 48270 58011 333 91108 91205;
0137067590999992010010101004+46200+008800FM-12+164899999V0200601N001519999999N9999999N1-00071-00331999999ADDMA1999999080921MD1610121+9999ME1312679OA149900311REMSYN076AAXX  01014 06759 33/// /0603 11007 21033 38092 48267 56012 333 91106 91204;
0137067590999992010010102004+46200+008800FM-12+164899999V0200401N001519999999N9999999N1-00091-00321999999ADDMA1999999080891MD1619999+9999ME1312649OA149900411REMSYN076AAXX  01024 06759 33/// /0403 11009 21032 38089 48264 56/// 333 91108 91206;
0096067590999992010010103004+46200+008800FM-12+164899999V0203401N000519999999N9999999N1-00061-00351999999ADDMA1999999080851ME1312609REMSYN060AAXX  01034 06759 43/// /3401 11006 21035 38085 48260 5////;
0096067590999992010010104004+46200+008800FM-12+164899999V0209999C001519999999N9999999N1-00091-00361999999ADDMA1999999080771ME1312529REMSYN060AAXX  01044 06759 33/// /0003 11009 21036 38077 48252 5////;
0137067590999992010010105004+46200+008800FM-12+164899999V0200501N002119999999N9999999N1-00151-00411999999ADDMA1999999080681MD1810211+9999ME1312449OA149900261REMSYN076AAXX  01054 06759 33/// /0504 11015 21041 38068 48244 58021 333 91105 91204;
0197067590999992010010106004+46200+008800FM-12+164899999V0201401N001519999999N9999999N1-00151-00381999999ADDAA124001091AL19900191GJ100009KA1999N-00201MA1999999080681MD1710171+9999ME1312449OA149900411REMSYN094AAXX  01064 06759 33/// /1403 11015 21038 38068 48244 57017 333 21020 55000 70010 91108 91206;
0137067590999992010010107004+46200+008800FM-12+164899999V0201401N001519999999N9999999N1-00141-00391999999ADDMA1999999080701MD1510071+9999ME1312469OA149900361REMSYN076AAXX  01074 06759 33/// /1403 11014 21039 38070 48246 55007 333 91107 91205;
0137067590999992010010108004+46200+008800FM-12+164899999V0201601N000519999999N9999999N1-00111-00381999999ADDMA1999999080761MD1210081+9999ME1312529OA149900311REMSYN076AAXX  01084 06759 33/// /1601 11011 21038 38076 48252 52008 333 91106 91203;
0137067590999992010010109004+46200+008800FM-12+164899999V0209999C000019999999N9999999N1-00081-00391999999ADDMA1999999080801MD1310121+9999ME1312559OA149900361REMSYN076AAXX  01094 06759 33/// /0000 11008 21039 38080 48255 53012 333 91107 91205;
0137067590999992010010110004+46200+008800FM-12+164899999V0202501N000519999999N9999999N1-00071-00381999999ADDMA1999999080811MD1110111+9999ME1312569OA149900151REMSYN076AAXX  01104 06759 33/// /2501 11007 21038 38081 48256 51011 333 91103 91202;
0137067590999992010010111004+46200+008800FM-12+164899999V0203301N001019999999N9999999N1-00041-00441999999ADDMA1999999080771MD1010011+9999ME1312529OA149900151REMSYN076AAXX  01114 06759 33/// /3302 11004 21044 38077 48252 50001 333 91103 91202;
0137067590999992010010112004+46200+008800FM-12+164899999V0203001N001019999999N9999999N1-00031-00421999999ADDMA1999999080741MD1710061+9999ME1312499OA149900411REMSYN076AAXX  01124 06759 33/// /3002 11003 21042 38074 48249 57006 333 91108 91206;
0137067590999992010010113004+46200+008800FM-12+164899999V0203101N000519999999N9999999N1+00001-00421999999ADDMA1999999080741MD1610071+9999ME1312489OA149900151REMSYN076AAXX  01134 06759 33/// /3101 10000 21042 38074 48248 56007 333 91103 91202;
0137067590999992010010114004+46200+008800FM-12+164899999V0202601N001019999999N9999999N1+00001-00451999999ADDMA1999999080771MD1319999+9999ME1312519OA149900211REMSYN076AAXX  01144 06759 33/// /2602 10000 21045 38077 48251 53/// 333 91104 91202;
0137067590999992010010115004+46200+008800FM-12+164899999V0203301N002119999999N9999999N1-00041-00401999999ADDMA1999999080841MD1310101+9999ME1312599OA149900261REMSYN076AAXX  01154 06759 33/// /3304 11004 21040 38084 48259 53010 333 91105 91204;
0137067590999992010010116004+46200+008800FM-12+164899999V0203401N002119999999N9999999N1-00031-00491999999ADDMA1999999080891MD1110151+9999ME1312649OA149900311REMSYN076AAXX  01164 06759 33/// /3404 11003 21049 38089 48264 51015 333 91106 91204;
0137067590999992010010117004+46200+008800FM-12+164899999V0203401N002619999999N9999999N1+00021-00561999999ADDMA1999999080941MD1110171+9999ME1312689OA149900411REMSYN076AAXX  01174 06759 33/// /3405 10002 21056 38094 48268 51017 333 91108 91206;
0156067590999992010010118004+46200+008800FM-12+164899999V0203201N002619999999N9999999N1+00001-00541999999ADDKA1120M+00031MA1999999080991MD1319999+9999ME1312739OA149900461REMSYN082AAXX  01184 06759 33/// /3205 10000 21054 38099 48273 53/// 333 10003 91109 91206;
0137067590999992010010119004+46200+008800FM-12+164899999V0200101N001019999999N9999999N1-00021-00581999999ADDMA1999999081071MD1319999+9999ME1312819OA149900771REMSYN076AAXX  01194 06759 33/// /0102 11002 21058 38107 48281 53/// 333 91115 91208;
0137067590999992010010120004+46200+008800FM-12+164899999V0203201N004119999999N9999999N1-00031-00591999999ADDMA1999999081151MD1210211+9999ME1312909OA149900981REMSYN076AAXX  01204 06759 33/// /3208 11003 21059 38115 48290 52021 333 91119 91208;
0137067590999992010010121004+46200+008800FM-12+164899999V0203401N002619999999N9999999N1-00041-00781999999ADDMA1999999081251MD1219999+9999ME1313009OA149901181REMSYN076AAXX  01214 06759 33/// /3405 11004 21078 38125 48300 52/// 333 91123 91208;
0137067590999992010010122004+46200+008800FM-12+164899999V0203501N004119999999N9999999N1-00111-00891999999ADDMA1999999081301MD1319999+9999ME1313069OA149901181REMSYN076AAXX  01224 06759 33/// /3508 11011 21089 38130 48306 53/// 333 91123 91208;
0137067590999992010010123004+46200+008800FM-12+164899999V0203401N005719999999N9999999N1-00141-00951999999ADDMA1999999081361MD1210211+9999ME1313129OA149901131REMSYN076AAXX  01234 06759 33/// /3411 11014 21095 38136 48312 52021 333 91122 91212;
0137067590999992010010200004+46200+008800FM-12+164899999V0203401N004619999999N9999999N1-00191-00981999999ADDMA1999999081401MD1210151+9999ME1313169OA149901181REMSYN076AAXX  02004 06759 33/// /3409 11019 21098 38140 48316 52015 333 91123 91212;
0137067590999992010010201004+46200+008800FM-12+164899999V0209999C006219999999N9999999N1-00261-00981999999ADDMA1999999081431MD1219999+9999ME1313209OA149901181REMSYN076AAXX  02014 06759 33/// /0012 11026 21098 38143 48320 52/// 333 91123 91212;
0096067590999992010010202004+46200+008800FM-12+164899999V0203501N005119999999N9999999N1-00291-01091999999ADDMA1999999081501ME1313289REMSYN060AAXX  02024 06759 33/// /3510 11029 21109 38150 48328 5////;
0137067590999992010010203004+46200+008800FM-12+164899999V0203501N005119999999N9999999N1-00351-01091999999ADDMA1999999081551MD1210151+9999ME1313339OA149901181REMSYN076AAXX  02034 06759 33/// /3510 11035 21109 38155 48333 52015 333 91123 91212;
0137067590999992010010204004+46200+008800FM-12+164899999V0203601N005719999999N9999999N1-00431-01111999999ADDMA1999999081551MD1210121+9999ME1313349OA149901441REMSYN076AAXX  02044 06759 33/// /3611 11043 21111 38155 48334 52012 333 91128 91214;
0137067590999992010010205004+46200+008800FM-12+164899999V0203201N007719999999N9999999N1-00451-01281999999ADDMA1999999081621MD1210121+9999ME1313419OA149901541REMSYN076AAXX  02054 06759 33/// /3215 11045 21128 38162 48341 52012 333 91130 91215;
0216067590999992010010206004+46200+008800FM-12+164899999V0200101N001519999999N9999999N1-00481-01651999999ADDAA124000091AL19900091GJ100729KA1999N-00511MA1999999081671MD1210121+9999ME1313479OA149901541REMSYN094AAXX  02064 06759 33/// /0103 11048 21165 38167 48347 52012 333 21051 55012 70000 91130 91215;EQDQ01  00002PRCP24
0137067590999992010010207004+46200+008800FM-12+164899999V0201801N000519999999N9999999N1-00631-02021999999ADDMA1999999081721MD1210171+9999ME1313539OA149901241REMSYN076AAXX  02074 06759 33/// /1801 11063 21202 38172 48353 52017 333 91124 91209;
0096067590999992010010208004+46200+008800FM-12+164899999V0209999C003119999999N9999999N1-00711-02081999999ADDMA1999999081801ME1313629REMSYN060AAXX  02084 06759 33/// /0006 11071 21208 38180 48362 5////;
0137067590999992010010209004+46200+008800FM-12+164899999V0202301N001019999999N9999999N1-00661-02381999999ADDMA1999999081911MD1210241+9999ME1313729OA149901541REMSYN076AAXX  02094 06759 33/// /2302 11066 21238 38191 48372 52024 333 91130 91215;
0137067590999992010010210004+46200+008800FM-12+164899999V0203001N002119999999N9999999N1-00711-02461999999ADDMA1999999082011MD1210291+9999ME1313829OA149901601REMSYN076AAXX  02104 06759 33/// /3004 11071 21246 38201 48382 52029 333 91131 91212;
0137067590999992010010211004+46200+008800FM-12+164899999V0203101N001519999999N9999999N1-00681-02581999999ADDMA1999999082021MD1210221+9999ME1313839OA149901601REMSYN076AAXX  02114 06759 33/// /3103 11068 21258 38202 48383 52022 333 91131 91212;
0137067590999992010010212004+46200+008800FM-12+164899999V0202401N002119999999N9999999N1-00661-02361999999ADDMA1999999082021MD1210111+9999ME1313829OA149901601REMSYN076AAXX  02124 06759 33/// /2404 11066 21236 38202 48382 52011 333 91131 91215;
0122067590999992010010213004+46200+008800FM-12+164899999V0202701N003619999999N9999999N1+99999+99999999999ADDMA1999999082051MD1210041+9999OA149901851REMSYN070AAXX  02134 06759 33/// /2707 1//// 2//// 38205 52004 333 91136 91207;
0122067590999992010010214004+46200+008800FM-12+164899999V0202501N005719999999N9999999N1+99999+99999999999ADDMA1999999082061MD1219999+9999OA149901901REMSYN070AAXX  02144 06759 33/// /2511 1//// 2//// 38206 52/// 333 91137 91211;
0122067590999992010010215004+46200+008800FM-12+164899999V0202701N002119999999N9999999N1+99999+99999999999ADDMA1999999082141MD1210121+9999OA149901901REMSYN070AAXX  02154 06759 33/// /2704 1//// 2//// 38214 52012 333 91137 91212;
0122067590999992010010216004+46200+008800FM-12+164899999V0202501N003119999999N9999999N1+99999+99999999999ADDMA1999999082191MD1210141+9999OA149901851REMSYN070AAXX  02164 06759 33/// /2506 1//// 2//// 38219 52014 333 91136 91208;
0137067590999992010010217004+46200+008800FM-12+164899999V0203501N002619999999N9999999N1-00991-02071999999ADDMA1999999082291MD1210231+9999ME1314119OA149901901REMSYN076AAXX  02174 06759 33/// /3505 11099 21207 38229 48411 52023 333 91137 91211;
0137067590999992010010218004+46200+008800FM-12+164899999V0200101N004619999999N9999999N1-00991-02001999999ADDMA1999999082351MD1210211+9999ME1314179OA149901901REMSYN076AAXX  02184 06759 33/// /0109 11099 21200 38235 48417 52021 333 91137 91212;
0137067590999992010010219004+46200+008800FM-12+164899999V0202601N003619999999N9999999N1-00981-02051999999ADDMA1999999082461MD1310271+9999ME1314279OA149901901REMSYN076AAXX  02194 06759 33/// /2607 11098 21205 38246 48427 53027 333 91137 91211;
0137067590999992010010220004+46200+008800FM-12+164899999V0203101N003119999999N9999999N1-00991-02081999999ADDMA1999999082481MD1210191+9999ME1314299OA149901801REMSYN076AAXX  02204 06759 33/// /3106 11099 21208 38248 48429 52019 333 91135 91209;
0137067590999992010010221004+46200+008800FM-12+164899999V0203601N003119999999N9999999N1-01021-02081999999ADDMA1999999082521MD1210171+9999ME1314339OA149901901REMSYN076AAXX  02214 06759 33/// /3606 11102 21208 38252 48433 52017 333 91137 91211;
0137067590999992010010222004+46200+008800FM-12+164899999V0200301N002119999999N9999999N1-00971-02191999999ADDMA1999999082521MD1210061+9999ME1314339OA149901131REMSYN076AAXX  02224 06759 33/// /0304 11097 21219 38252 48433 52006 333 91122 91208;
0137067590999992010010223004+46200+008800FM-12+164899999V0200101N002619999999N9999999N1-00991-02221999999ADDMA1999999082611MD1210131+9999ME1314429OA149900931REMSYN076AAXX  02234 06759 33/// /0105 11099 21222 38261 48442 52013 333 91118 91208;
0137067590999992010010300004+46200+008800FM-12+164899999V0200301N002619999999N9999999N1-00991-02231999999ADDMA1999999082641MD1210121+9999ME1314449OA149901901REMSYN076AAXX  03004 06759 33/// /0305 11099 21223 38264 48444 52012 333 91137 91211;
0137067590999992010010301004+46200+008800FM-12+164899999V0209999C002619999999N9999999N1-00901-02441999999ADDMA1999999082651MD1210131+9999ME1314459OA149900721REMSYN076AAXX  03014 06759 33/// /0005 11090 21244 38265 48445 52013 333 91114 91208;
0096067590999992010010302004+46200+008800FM-12+164899999V0202901N002619999999N9999999N1-00901-02351999999ADDMA1999999082701ME1314499REMSYN060AAXX  03024 06759 33/// /2905 11090 21235 38270 48449 5////;
0096067590999992010010303004+46200+008800FM-12+164899999V0203101N003619999999N9999999N1-00911-02291999999ADDMA1999999082741ME1314539REMSYN060AAXX  03034 06759 33/// /3107 11091 21229 38274 48453 5////;
0137067590999992010010304004+46200+008800FM-12+164899999V0203301N004119999999N9999999N1-00901-02361999999ADDMA1999999082721MD1210071+9999ME1314519OA149900621REMSYN076AAXX  03044 06759 33/// /3308 11090 21236 38272 48451 52007 333 91112 91210;
0137067590999992010010305004+46200+008800FM-12+164899999V0202001N001019999999N9999999N1-00941-02361999999ADDMA1999999082761MD1219999+9999ME1314559OA149900571REMSYN076AAXX  03054 06759 33/// /2002 11094 21236 38276 48455 52/// 333 91111 91208;
0216067590999992010010306004+46200+008800FM-12+164899999V0203001N002119999999N9999999N1-00881-02421999999ADDAA124000091AL19900091GJ104629KA1999N-01021MA1999999082741MD1010001+9999ME1314539OA149901801REMSYN094AAXX  03064 06759 33/// /3004 11088 21242 38274 48453 50000 333 21102 55077 70000 91135 91210;EQDQ01  00002PRCP24
0137067590999992010010307004+46200+008800FM-12+164899999V0200101N000519999999N9999999N1-00891-02441999999ADDMA1999999082791MD1210071+9999ME1314589OA149900311REMSYN076AAXX  03074 06759 33/// /0101 11089 21244 38279 48458 52007 333 91106 91204;
0137067590999992010010308004+46200+008800FM-12+164899999V0203001N001019999999N9999999N1-00801-02511999999ADDMA1999999082851MD1219999+9999ME1314639OA149900311REMSYN076AAXX  03084 06759 33/// /3002 11080 21251 38285 48463 52/// 333 91106 91203;
0137067590999992010010309004+46200+008800FM-12+164899999V0200201N001019999999N9999999N1-00751-02511999999ADDMA1999999082871MD1110131+9999ME1314649OA149900571REMSYN076AAXX  03094 06759 33/// /0202 11075 21251 38287 48464 51013 333 91111 91208;
0137067590999992010010310004+46200+008800FM-12+164899999V0200501N001019999999N9999999N1-00741-02561999999ADDMA1999999082911MD1110121+9999ME1314689OA149900211REMSYN076AAXX  03104 06759 33/// /0502 11074 21256 38291 48468 51012 333 91104 91202;
0137067590999992010010311004+46200+008800FM-12+164899999V0201501N000519999999N9999999N1-00751-02211999999ADDMA1999999082841MD1810011+9999ME1314619OA149900151REMSYN076AAXX  03114 06759 33/// /1501 11075 21221 38284 48461 58001 333 91103 91202;
0137067590999992010010312004+46200+008800FM-12+164899999V0202001N002119999999N9999999N1-00781-02431999999ADDMA1999999082821MD1810051+9999ME1314609OA149900721REMSYN076AAXX  03124 06759 33/// /2004 11078 21243 38282 48460 58005 333 91114 91210;
0137067590999992010010313004+46200+008800FM-12+164899999V0200501N001019999999N9999999N1-00751-02251999999ADDMA1999999082791MD1610121+9999ME1314579OA149900311REMSYN076AAXX  03134 06759 33/// /0502 11075 21225 38279 48457 56012 333 91106 91204;
0137067590999992010010314004+46200+008800FM-12+164899999V0201301N000519999999N9999999N1-00791-02381999999ADDMA1999999082801MD1710041+9999ME1314589OA149900261REMSYN076AAXX  03144 06759 33/// /1301 11079 21238 38280 48458 57004 333 91105 91203;
0137067590999992010010315004+46200+008800FM-12+164899999V0200501N002119999999N9999999N1-00781-02241999999ADDMA1999999082801MD1510021+9999ME1314589OA149900361REMSYN076AAXX  03154 06759 33/// /0504 11078 21224 38280 48458 55002 333 91107 91206;
0137067590999992010010316004+46200+008800FM-12+164899999V0202901N001519999999N9999999N1-00721-02621999999ADDMA1999999082791MD1010001+9999ME1314569OA149900361REMSYN076AAXX  03164 06759 33/// /2903 11072 21262 38279 48456 50000 333 91107 91206;
0137067590999992010010317004+46200+008800FM-12+164899999V0203101N000519999999N9999999N1-00741-02431999999ADDMA1999999082761MD1710041+9999ME1314549OA149900211REMSYN076AAXX  03174 06759 33/// /3101 11074 21243 38276 48454 57004 333 91104 91203;
0156067590999992010010318004+46200+008800FM-12+164899999V0201001N001519999999N9999999N1-00751-02431999999ADDKA1120M-00701MA1999999082771MD1710031+9999ME1314559OA149900361REMSYN082AAXX  03184 06759 33/// /1003 11075 21243 38277 48455 57003 333 11070 91107 91206;
0137067590999992010010319004+46200+008800FM-12+164899999V0200901N001519999999N9999999N1-00731-02511999999ADDMA1999999082791MD1510001+9999ME1314569OA149900261REMSYN076AAXX  03194 06759 33/// /0903 11073 21251 38279 48456 55000 333 91105 91204;
0137067590999992010010320004+46200+008800FM-12+164899999V0200701N002619999999N9999999N1-00771-02441999999ADDMA1999999082761MD1010001+9999ME1314549OA149900361REMSYN076AAXX  03204 06759 33/// /0705 11077 21244 38276 48454 50000 333 91107 91205;
0137067590999992010010321004+46200+008800FM-12+164899999V0200901N002119999999N9999999N1-00821-02351999999ADDMA1999999082771MD1410001+9999ME1314559OA149900361REMSYN076AAXX  03214 06759 33/// /0904 11082 21235 38277 48455 57000 333 91107 91205;
0137067590999992010010322004+46200+008800FM-12+164899999V0200501N001519999999N9999999N1-00841-02361999999ADDMA1999999082801MD1310011+9999ME1314589OA149900361REMSYN076AAXX  03224 06759 33/// /0503 11084 21236 38280 48458 53001 333 91107 91205;
0137067590999992010010323004+46200+008800FM-12+164899999V0200601N001519999999N9999999N1-00851-02381999999ADDMA1999999082781MD1210021+9999ME1314569OA149900261REMSYN076AAXX  03234 06759 33/// /0603 11085 21238 38278 48456 52002 333 91105 91205;
0137067590999992010010400004+46200+008800FM-12+164899999V0200601N002119999999N9999999N1-00871-02441999999ADDMA1999999082731MD1810041+9999ME1314529OA149900361REMSYN076AAXX  04004 06759 33/// /0604 11087 21244 38273 48452 58004 333 91107 91206;
0137067590999992010010401004+46200+008800FM-12+164899999V0200601N004119999999N9999999N1-00861-02441999999ADDMA1999999082661MD1710141+9999ME1314459OA149900461REMSYN076AAXX  04014 06759 33/// /0608 11086 21244 38266 48445 57014 333 91109 91208;
0137067590999992010010402004+46200+008800FM-12+164899999V0200601N004119999999N9999999N1-00861-02431999999ADDMA1999999082651MD1710131+9999ME1314449OA149900461REMSYN076AAXX  04024 06759 33/// /0608 11086 21243 38265 48444 57013 333 91109 91208;
0137067590999992010010403004+46200+008800FM-12+164899999V0200701N002619999999N9999999N1-00851-02481999999ADDMA1999999082641MD1719999+9999ME1314439OA149900461REMSYN076AAXX  04034 06759 33/// /0705 11085 21248 38264 48443 57/// 333 91109 91208;
0137067590999992010010404004+46200+008800FM-12+164899999V0200601N002119999999N9999999N1-00871-02421999999ADDMA1999999082601MD1710061+9999ME1314409OA149900411REMSYN076AAXX  04044 06759 33/// /0604 11087 21242 38260 48440 57006 333 91108 91206;
0137067590999992010010405004+46200+008800FM-12+164899999V0200601N002619999999N9999999N1-00891-02341999999ADDMA1999999082551MD1710101+9999ME1314359OA149900361REMSYN076AAXX  04054 06759 33/// /0605 11089 21234 38255 48435 57010 333 91107 91206;
0216067590999992010010406004+46200+008800FM-12+164899999V0209999C000019999999N9999999N1-00911-02331999999ADDAA124000091AL19900091GJ100009KA1999N-00901MA1999999082551MD1710091+9999ME1314359OA149900461REMSYN094AAXX  04064 06759 33/// /0000 11091 21233 38255 48435 57009 333 21090 55000 70000 91109 91208;EQDQ01  00002PRCP24
0137067590999992010010407004+46200+008800FM-12+164899999V0203301N000519999999N9999999N1-00891-02331999999ADDMA1999999082541MD1710061+9999ME1314349OA149900311REMSYN076AAXX  04074 06759 33/// /3301 11089 21233 38254 48434 57006 333 91106 91204;
0137067590999992010010408004+46200+008800FM-12+164899999V0200101N002119999999N9999999N1-00911-01771999999ADDMA1999999082561MD1210011+9999ME1314369OA149900411REMSYN076AAXX  04084 06759 33/// /0104 11091 21177 38256 48436 52001 333 91108 91205;
0137067590999992010010409004+46200+008800FM-12+164899999V0203401N000519999999N9999999N1-00911-01861999999ADDMA1999999082561MD1210011+9999ME1314369OA149900411REMSYN076AAXX  04094 06759 33/// /3401 11091 21186 38256 48436 52001 333 91108 91206;
0137067590999992010010410004+46200+008800FM-12+164899999V0202701N000519999999N9999999N1-01001-01821999999ADDMA1999999082571MD1210031+9999ME1314389OA149900311REMSYN076AAXX  04104 06759 33/// /2701 11100 21182 38257 48438 52003 333 91106 91204;
0137067590999992010010411004+46200+008800FM-12+164899999V0200801N000519999999N9999999N1-01011-01581999999ADDMA1999999082491MD1810071+9999ME1314319OA149900211REMSYN076AAXX  04114 06759 33/// /0801 11101 21158 38249 48431 58007 333 91104 91202;
0137067590999992010010412004+46200+008800FM-12+164899999V0203601N000519999999N9999999N1-00961-01581999999ADDMA1999999082411MD1710151+9999ME1314239OA149900461REMSYN076AAXX  04124 06759 33/// /3601 11096 21158 38241 48423 57015 333 91109 91208;
0137067590999992010010413004+46200+008800FM-12+164899999V0202601N001019999999N9999999N1-00971-01581999999ADDMA1999999082321MD1810251+9999ME1314149OA149900311REMSYN076AAXX  04134 06759 33/// /2602 11097 21158 38232 48414 58025 333 91106 91203;
0137067590999992010010414004+46200+008800FM-12+164899999V0202701N001019999999N9999999N1-00911-01261999999ADDMA1999999082291MD1619999+9999ME1314119OA149900361REMSYN076AAXX  04144 06759 33/// /2702 11091 21126 38229 48411 56/// 333 91107 91204;
0137067590999992010010415004+46200+008800FM-12+164899999V0202601N001519999999N9999999N1-00911-01351999999ADDMA1999999082281MD1710131+9999ME1314109OA149900361REMSYN076AAXX  04154 06759 33/// /2603 11091 21135 38228 48410 57013 333 91107 91204;
0137067590999992010010416004+46200+008800FM-12+164899999V0203201N001019999999N9999999N1-00941-01361999999ADDMA1999999082271MD1710051+9999ME1314099OA149900361REMSYN076AAXX  04164 06759 33/// /3202 11094 21136 38227 48409 57005 333 91107 91203;
0137067590999992010010417004+46200+008800FM-12+164899999V0203101N002619999999N9999999N1-00951-01581999999ADDMA1999999082241MD1710051+9999ME1314069OA149900411REMSYN076AAXX  04174 06759 33/// /3105 11095 21158 38224 48406 57005 333 91108 91205;
0156067590999992010010418004+46200+008800FM-12+164899999V0203101N002619999999N9999999N1-00961-01631999999ADDKA1120M-00861MA1999999082231MD1710051+9999ME1314069OA149900461REMSYN082AAXX  04184 06759 33/// /3105 11096 21163 38223 48406 57005 333 11086 91109 91207;
0137067590999992010010419004+46200+008800FM-12+164899999V0203301N001519999999N9999999N1-00871-01441999999ADDMA1999999082211MD1710061+9999ME1314039OA149900461REMSYN076AAXX  04194 06759 33/// /3303 11087 21144 38221 48403 57006 333 91109 91207;
0137067590999992010010420004+46200+008800FM-12+164899999V0202901N000519999999N9999999N1-00791-01451999999ADDMA1999999082171MD1710071+9999ME1313989OA149900311REMSYN076AAXX  04204 06759 33/// /2901 11079 21145 38217 48398 57007 333 91106 91204;
0137067590999992010010421004+46200+008800FM-12+164899999V0203201N001519999999N9999999N1-00841-01421999999ADDMA1999999082171MD1710061+9999ME1313999OA149900461REMSYN076AAXX  04214 06759 33/// /3203 11084 21142 38217 48399 57006 333 91109 91207;
0137067590999992010010422004+46200+008800FM-12+164899999V0203201N000519999999N9999999N1-00811-01391999999ADDMA1999999082161MD1710051+9999ME1313979OA149900261REMSYN076AAXX  04224 06759 33/// /3201 11081 21139 38216 48397 57005 333 91105 91203;
0137067590999992010010423004+46200+008800FM-12+164899999V0202801N000519999999N9999999N1-00831-01521999999ADDMA1999999082151MD1710021+9999ME1313979OA149900211REMSYN076AAXX  04234 06759 33/// /2801 11083 21152 38215 48397 57002 333 91104 91203;
0137067590999992010010500004+46200+008800FM-12+164899999V0203301N001519999999N9999999N1-00791-01331999999ADDMA1999999082091MD1710081+9999ME1313909OA149900461REMSYN076AAXX  05004 06759 33/// /3303 11079 21133 38209 48390 57008 333 91109 91207;
0137067590999992010010501004+46200+008800FM-12+164899999V0200501N001519999999N9999999N1-00861-01481999999ADDMA1999999082031MD1810131+9999ME1313859OA149900211REMSYN076AAXX  05014 06759 33/// /0503 11086 21148 38203 48385 58013 333 91104 91203;
0137067590999992010010502004+46200+008800FM-12+164899999V0201001N000519999999N9999999N1-00811-01381999999ADDMA1999999081991MD1610161+9999ME1313819OA149900211REMSYN076AAXX  05024 06759 33/// /1001 11081 21138 38199 48381 56016 333 91104 91203;
0122067590999992010010503004+46200+008800FM-12+164899999V0201601N000519999999N9999999N1+99999+99999999999ADDMA1999999081951MD1610141+9999OA149900211REMSYN070AAXX  05034 06759 33/// /1601 1//// 2//// 38195 56014 333 91104 91203;
0122067590999992010010504004+46200+008800FM-12+164899999V0200801N001019999999N9999999N1+99999+99999999999ADDMA1999999081891MD1810141+9999OA149900151REMSYN070AAXX  05044 06759 33/// /0802 1//// 2//// 38189 58014 333 91103 91202;
0122067590999992010010505004+46200+008800FM-12+164899999V0200801N001019999999N9999999N1+99999+99999999999ADDMA1999999081851MD1610141+9999OA149900151REMSYN070AAXX  05054 06759 33/// /0802 1//// 2//// 38185 56014 333 91103 91202;
0182067590999992010010506004+46200+008800FM-12+164899999V0201201N000519999999N9999999N1+99999+99999999999ADDAA124000091AL19900091GJ101029MA1999999081841MD1610111+9999OA149900311REMSYN082AAXX  05064 06759 33/// /1201 1//// 2//// 38184 56011 333 55017 70000 91106 91204;EQDQ01  00002PRCP24
0122067590999992010010507004+46200+008800FM-12+164899999V0201701N000519999999N9999999N1+99999+99999999999ADDMA1999999081821MD1710071+9999OA149900151REMSYN070AAXX  05074 06759 33/// /1701 1//// 2//// 38182 57007 333 91103 91203;
0122067590999992010010508004+46200+008800FM-12+164899999V0209999C000019999999N9999999N1+99999+99999999999ADDMA1999999081811MD1710041+9999OA149900151REMSYN070AAXX  05084 06759 33/// /0000 1//// 2//// 38181 57004 333 91103 91202;
0122067590999992010010509004+46200+008800FM-12+164899999V0200701N001519999999N9999999N1+99999+99999999999ADDMA1999999081781MD1710061+9999OA149900151REMSYN070AAXX  05094 06759 33/// /0703 1//// 2//// 38178 57006 333 91103 91203;
0137067590999992010010510004+46200+008800FM-12+164899999V0200901N001019999999N9999999N1-00851-01141999999ADDMA1999999081771MD1610051+9999ME1313619OA149900261REMSYN076AAXX  05104 06759 33/// /0902 11085 21114 38177 48361 56005 333 91105 91204;
0137067590999992010010511004+46200+008800FM-12+164899999V0200801N003119999999N9999999N1-00771-01061999999ADDMA1999999081701MD1810111+9999ME1313539OA149900411REMSYN076AAXX  05114 06759 33/// /0806 11077 21106 38170 48353 58011 333 91108 91206;
0137067590999992010010512004+46200+008800FM-12+164899999V0200801N003119999999N9999999N1-00771-00971999999ADDMA1999999081621MD1810161+9999ME1313459OA149900721REMSYN076AAXX  05124 06759 33/// /0806 11077 21097 38162 48345 58016 333 91114 91210;
0137067590999992010010513004+46200+008800FM-12+164899999V0200801N002619999999N9999999N1-00721-00891999999ADDMA1999999081571MD1610201+9999ME1313409OA149900721REMSYN076AAXX  05134 06759 33/// /0805 11072 21089 38157 48340 56020 333 91114 91210;
0096067590999992010010514004+46200+008800FM-12+164899999V0200701N002119999999N9999999N1-00731-00901999999ADDMA1999999081531ME1313369REMSYN060AAXX  05144 06759 33/// /0704 11073 21090 38153 48336 5////;
0137067590999992010010515004+46200+008800FM-12+164899999V0200401N004119999999N9999999N1-00701-01021999999ADDMA1999999081511MD1610111+9999ME1313349OA149900721REMSYN076AAXX  05154 06759 33/// /0408 11070 21102 38151 48334 56011 333 91114 91210;
0137067590999992010010516004+46200+008800FM-12+164899999V0202201N000519999999N9999999N1-00631-00791999999ADDMA1999999081491MD1610081+9999ME1313319OA149900511REMSYN076AAXX  05164 06759 33/// /2201 11063 21079 38149 48331 56008 333 91110 91208;
0137067590999992010010517004+46200+008800FM-12+164899999V0203301N000519999999N9999999N1-00611-00741999999ADDMA1999999081471MD1610061+9999ME1313299OA149900461REMSYN076AAXX  05174 06759 33/// /3301 11061 21074 38147 48329 56006 333 91109 91205;
0137067590999992010010518004+46200+008800FM-12+164899999V0203001N001519999999N9999999N1-00621-00811999999ADDMA1999999081441MD1810071+9999ME1313269OA149900721REMSYN076AAXX  05184 06759 33/// /3003 11062 21081 38144 48326 58007 333 91114 91210;
0137067590999992010010519004+46200+008800FM-12+164899999V0203001N002619999999N9999999N1-00581-00771999999ADDMA1999999081421MD1810071+9999ME1313239OA149900411REMSYN076AAXX  05194 06759 33/// /3005 11058 21077 38142 48323 58007 333 91108 91206;
0137067590999992010010520004+46200+008800FM-12+164899999V0203101N002619999999N9999999N1-00561-00741999999ADDMA1999999081371MD1810101+9999ME1313189OA149900411REMSYN076AAXX  05204 06759 33/// /3105 11056 21074 38137 48318 58010 333 91108 91206;
0137067590999992010010521004+46200+008800FM-12+164899999V0203201N002619999999N9999999N1-00531-00751999999ADDMA1999999081331MD1810111+9999ME1313149OA149900461REMSYN076AAXX  05214 06759 33/// /3205 11053 21075 38133 48314 58011 333 91109 91206;
0137067590999992010010522004+46200+008800FM-12+164899999V0202001N000519999999N9999999N1-00521-00761999999ADDMA1999999081271MD1610151+9999ME1313089OA149900361REMSYN076AAXX  05224 06759 33/// /2001 11052 21076 38127 48308 56015 333 91107 91205;
0137067590999992010010523004+46200+008800FM-12+164899999V0203401N001019999999N9999999N1-00481-00781999999ADDMA1999999081251MD1710121+9999ME1313069OA149900211REMSYN076AAXX  05234 06759 33/// /3402 11048 21078 38125 48306 57012 333 91104 91203;
0137067590999992010010600004+46200+008800FM-12+164899999V0202601N000519999999N9999999N1-00421-00871999999ADDMA1999999081201MD1710131+9999ME1313009OA149900571REMSYN076AAXX  06004 06759 33/// /2601 11042 21087 38120 48300 57013 333 91111 91208;
0137067590999992010010601004+46200+008800FM-12+164899999V0200201N002119999999N9999999N1-00461-00851999999ADDMA1999999081181MD1710091+9999ME1312989OA149900311REMSYN076AAXX  06014 06759 33/// /0204 11046 21085 38118 48298 57009 333 91106 91204;
0137067590999992010010602004+46200+008800FM-12+164899999V0209999C000019999999N9999999N1-00431-00891999999ADDMA1999999081171MD1710081+9999ME1312979OA149900411REMSYN076AAXX  06024 06759 33/// /0000 11043 21089 38117 48297 57008 333 91108 91204;
0137067590999992010010603004+46200+008800FM-12+164899999V0200501N002119999999N9999999N1-00431-00891999999ADDMA1999999081131MD1710071+9999ME1312939OA149900411REMSYN076AAXX  06034 06759 33/// /0504 11043 21089 38113 48293 57007 333 91108 91204;
0137067590999992010010604004+46200+008800FM-12+164899999V0200201N000519999999N9999999N1-00421-00901999999ADDMA1999999081101MD1710081+9999ME1312909OA149900261REMSYN076AAXX  06044 06759 33/// /0201 11042 21090 38110 48290 57008 333 91105 91204;
0137067590999992010010605004+46200+008800FM-12+164899999V0203001N000519999999N9999999N1-00361-00941999999ADDMA1999999081101MD1710071+9999ME1312899OA149900261REMSYN076AAXX  06054 06759 33/// /3001 11036 21094 38110 48289 57007 333 91105 91203;
0216067590999992010010606004+46200+008800FM-12+164899999V0203201N002119999999N9999999N1-00421-00961999999ADDAA124000091AL19900091GJ100849KA1999N-00631MA1999999081101MD1710031+9999ME1312909OA149900411REMSYN094AAXX  06064 06759 33/// /3204 11042 21096 38110 48290 57003 333 21063 55014 70000 91108 91206;EQDQ01  00002PRCP24
0137067590999992010010607004+46200+008800FM-12+164899999V0203601N001519999999N9999999N1-00411-01051999999ADDMA1999999081111MD1210011+9999ME1312919OA149900411REMSYN076AAXX  06074 06759 33/// /3603 11041 21105 38111 48291 52001 333 91108 91205;
0137067590999992010010608004+46200+008800FM-12+164899999V0203101N002119999999N9999999N1-00411-01181999999ADDMA1999999081121MD1210021+9999ME1312929OA149900411REMSYN076AAXX  06084 06759 33/// /3104 11041 21118 38112 48292 52002 333 91108 91205;
0137067590999992010010609004+46200+008800FM-12+164899999V0202701N001519999999N9999999N1-00371-01241999999ADDMA1999999081191MD1310091+9999ME1312989OA149900411REMSYN076AAXX  06094 06759 33/// /2703 11037 21124 38119 48298 53009 333 91108 91205;
0137067590999992010010610004+46200+008800FM-12+164899999V0202701N003119999999N9999999N1-00341-01121999999ADDMA1999999081241MD1310131+9999ME1313039OA149900461REMSYN076AAXX  06104 06759 33/// /2706 11034 21112 38124 48303 53013 333 91109 91207;
0137067590999992010010611004+46200+008800FM-12+164899999V0202401N002119999999N9999999N1-00311-00931999999ADDMA1999999081231MD1219999+9999ME1313019OA149900461REMSYN076AAXX  06114 06759 33/// /2404 11031 21093 38123 48301 52/// 333 91109 91207;
0137067590999992010010612004+46200+008800FM-12+164899999V0202001N002119999999N9999999N1-00321-00811999999ADDMA1999999081231MD1210041+9999ME1313019OA149900461REMSYN076AAXX  06124 06759 33/// /2004 11032 21081 38123 48301 52004 333 91109 91207;
0137067590999992010010613004+46200+008800FM-12+164899999V0202001N001519999999N9999999N1-00321-00751999999ADDMA1999999081231MD1710011+9999ME1313019OA149900411REMSYN076AAXX  06134 06759 33/// /2003 11032 21075 38123 48301 57001 333 91108 91205;
0137067590999992010010614004+46200+008800FM-12+164899999V0202001N002619999999N9999999N1-00361-00801999999ADDMA1999999081241MD1319999+9999ME1313039OA149900511REMSYN076AAXX  06144 06759 33/// /2005 11036 21080 38124 48303 53/// 333 91110 91205;
0143067590999992010010615004+46200+008800FM-12+164899999V0202101N003119999999N9999999N1-00401-00791999999ADDMA1999999081281MD1319999+9999ME1313079OA149900511REMSYN082AAXX  06154 06759 43/// /2106 11040 21079 38128 48307 53/// 91440 333 91110 91207;
0137067590999992010010616004+46200+008800FM-12+164899999V0202001N002119999999N9999999N1-00531-00711999999ADDMA1999999081341MD1310111+9999ME1313159OA149900461REMSYN076AAXX  06164 06759 33/// /2004 11053 21071 38134 48315 53011 333 91109 91206;
0137067590999992010010617004+46200+008800FM-12+164899999V0202101N001519999999N9999999N1-00551-00601999999ADDMA1999999081351MD1110111+9999ME1313169OA149900411REMSYN076AAXX  06174 06759 33/// /2103 11055 21060 38135 48316 51011 333 91108 91206;
0156067590999992010010618004+46200+008800FM-12+164899999V0202101N002119999999N9999999N1-00561-00651999999ADDKA1120M-00291MA1999999081401MD1310101+9999ME1313219OA149900511REMSYN082AAXX  06184 06759 33/// /2104 11056 21065 38140 48321 53010 333 11029 91110 91207;
0137067590999992010010619004+46200+008800FM-12+164899999V0202501N002119999999N9999999N1-00551-00611999999ADDMA1999999081431MD1310091+9999ME1313249OA149900361REMSYN076AAXX  06194 06759 33/// /2504 11055 21061 38143 48324 53009 333 91107 91206;
0137067590999992010010620004+46200+008800FM-12+164899999V0202401N001019999999N9999999N1-00531-00621999999ADDMA1999999081461MD1110111+9999ME1313279OA149900361REMSYN076AAXX  06204 06759 33/// /2402 11053 21062 38146 48327 51011 333 91107 91206;
0137067590999992010010621004+46200+008800FM-12+164899999V0202101N001519999999N9999999N1-00561-00571999999ADDMA1999999081501MD1110101+9999ME1313319OA149900411REMSYN076AAXX  06214 06759 33/// /2103 11056 21057 38150 48331 51010 333 91108 91206;
0137067590999992010010622004+46200+008800FM-12+164899999V0201601N001519999999N9999999N1-00571-00631999999ADDMA1999999081511MD1210081+9999ME1313329OA149900211REMSYN076AAXX  06224 06759 33/// /1603 11057 21063 38151 48332 52008 333 91104 91204;
0137067590999992010010623004+46200+008800FM-12+164899999V0201301N001519999999N9999999N1-00601-00621999999ADDMA1999999081531MD1210071+9999ME1313349OA149900261REMSYN076AAXX  06234 06759 33/// /1303 11060 21062 38153 48334 52007 333 91105 91204;
0137067590999992010010700004+46200+008800FM-12+164899999V0202101N001519999999N9999999N1-00661-00691999999ADDMA1999999081521MD1210021+9999ME1313349OA149900511REMSYN076AAXX  07004 06759 33/// /2103 11066 21069 38152 48334 52002 333 91110 91206;
0137067590999992010010701004+46200+008800FM-12+164899999V0202101N003619999999N9999999N1-00671-00721999999ADDMA1999999081561MD1210051+9999ME1313389OA149900461REMSYN076AAXX  07014 06759 33/// /2107 11067 21072 38156 48338 52005 333 91109 91207;
0137067590999992010010702004+46200+008800FM-12+164899999V0202201N002119999999N9999999N1-00701-00711999999ADDMA1999999081591MD1219999+9999ME1313419OA149900461REMSYN076AAXX  07024 06759 33/// /2204 11070 21071 38159 48341 52/// 333 91109 91207;
0137067590999992010010703004+46200+008800FM-12+164899999V0202101N001519999999N9999999N1-00691-00711999999ADDMA1999999081611MD1210091+9999ME1313439OA149900461REMSYN076AAXX  07034 06759 33/// /2103 11069 21071 38161 48343 52009 333 91109 91207;
0137067590999992010010704004+46200+008800FM-12+164899999V0202201N001019999999N9999999N1-00711-00711999999ADDMA1999999081641MD1210081+9999ME1313469OA149900311REMSYN076AAXX  07044 06759 33/// /2202 11071 21071 38164 48346 52008 333 91106 91204;
0137067590999992010010705004+46200+008800FM-12+164899999V0200801N000519999999N9999999N1-00721-00741999999ADDMA1999999081661MD1310071+9999ME1313489OA149900311REMSYN076AAXX  07054 06759 33/// /0801 11072 21074 38166 48348 53007 333 91106 91203;
0216067590999992010010706004+46200+008800FM-12+164899999V0202601N000519999999N9999999N1-00681-00801999999ADDAA124000091AL19900091GJ104749KA1999N-00751MA1999999081711MD1219999+9999ME1313539OA149900461REMSYN094AAXX  07064 06759 33/// /2601 11068 21080 38171 48353 52/// 333 21075 55079 70000 91109 91207;EQDQ01  00002PRCP24
0137067590999992010010707004+46200+008800FM-12+164899999V0200701N001019999999N9999999N1-00741-00811999999ADDMA1999999081771MD1310131+9999ME1313599OA149900211REMSYN076AAXX  07074 06759 33/// /0702 11074 21081 38177 48359 53013 333 91104 91202;
0137067590999992010010708004+46200+008800FM-12+164899999V0200401N001019999999N9999999N1-00731-00881999999ADDMA1999999081831MD1319999+9999ME1313659OA149900261REMSYN076AAXX  07084 06759 33/// /0402 11073 21088 38183 48365 53/// 333 91105 91204;
0137067590999992010010709004+46200+008800FM-12+164899999V0200801N001019999999N9999999N1-00731-00831999999ADDMA1999999081871MD1119999+9999ME1313699OA149900311REMSYN076AAXX  07094 06759 33/// /0802 11073 21083 38187 48369 51/// 333 91106 91204;
0137067590999992010010710004+46200+008800FM-12+164899999V0200901N001019999999N9999999N1-00651-00691999999ADDMA1999999081961MD1310191+9999ME1313779OA149900361REMSYN076AAXX  07104 06759 33/// /0902 11065 21069 38196 48377 53019 333 91107 91202;
0137067590999992010010711004+46200+008800FM-12+164899999V0200801N001519999999N9999999N1-00571-00871999999ADDMA1999999081971MD1110141+9999ME1313779OA149900361REMSYN076AAXX  07114 06759 33/// /0803 11057 21087 38197 48377 51014 333 91107 91204;
0137067590999992010010712004+46200+008800FM-12+164899999V0200801N001519999999N9999999N1-00611-00871999999ADDMA1999999081931MD1019999+9999ME1313739OA149900461REMSYN076AAXX  07124 06759 33/// /0803 11061 21087 38193 48373 50/// 333 91109 91207;
0137067590999992010010713004+46200+008800FM-12+164899999V0209999C000019999999N9999999N1-00561-00741999999ADDMA1999999081951MD1519999+9999ME1313759OA149900361REMSYN076AAXX  07134 06759 33/// /0000 11056 21074 38195 48375 55/// 333 91107 91204;
0096067590999992010010715004+46200+008800FM-12+164899999V0200501N002119999999N9999999N1-00621-00821999999ADDMA1999999082031ME1313839REMSYN060AAXX  07154 06759 43/// /0504 11062 21082 38203 48383 5////;
0137067590999992010010716004+46200+008800FM-12+164899999V0200601N004619999999N9999999N1-00621-00851999999ADDMA1999999082061MD1219999+9999ME1313869OA149900511REMSYN076AAXX  07164 06759 33/// /0609 11062 21085 38206 48386 52/// 333 91110 91209;
0137067590999992010010717004+46200+008800FM-12+164899999V0200801N003619999999N9999999N1-00611-00801999999ADDMA1999999082111MD1219999+9999ME1313919OA149900571REMSYN076AAXX  07174 06759 33/// /0807 11061 21080 38211 48391 52/// 333 91111 91210;
0156067590999992010010718004+46200+008800FM-12+164899999V0200501N004619999999N9999999N1-00611-00971999999ADDKA1120M-00531MA1999999082111MD1219999+9999ME1313919OA149900571REMSYN082AAXX  07184 06759 33/// /0509 11061 21097 38211 48391 52/// 333 11053 91111 91210;
0137067590999992010010719004+46200+008800FM-12+164899999V0200801N002619999999N9999999N1-00601-01001999999ADDMA1999999082121MD1219999+9999ME1313919OA149900571REMSYN076AAXX  07194 06759 33/// /0805 11060 21100 38212 48391 52/// 333 91111 91209;
0137067590999992010010720004+46200+008800FM-12+164899999V0200601N001019999999N9999999N1-00731-00761999999ADDMA1999999082131MD1310021+9999ME1313949OA149900461REMSYN076AAXX  07204 06759 33/// /0602 11073 21076 38213 48394 53002 333 91109 91208;
0154067590999992010010721004+46200+008800FM-12+164899999V0200601N000519999999N9999999N1-00741-00751999999ADDAA101000021MA1999999082141MD1210031+9999ME1313959OA149900571REMSYN082AAXX  07214 06759 23/// /0601 11074 21075 38214 48395 52003 333 69925 91111 91210;
0139067590999992010010722004+46200+008800FM-12+164899999V0201001N000519999999N9999999N1+99999+99999999999ADDAA101000591MA1999999082131MD1019999+9999OA149900211REMSYN076AAXX  07224 06759 23/// /1001 1//// 2//// 38213 50/// 333 69965 91104 91203;
0139067590999992010010723004+46200+008800FM-12+164899999V0200301N001019999999N9999999N1+99999+99999999999ADDAA101000591MA1999999082091MD1710041+9999OA149900151REMSYN076AAXX  07234 06759 23/// /0302 1//// 2//// 38209 57004 333 69955 91103 91202;
0145067590999992010010800004+46200+008800FM-12+164899999V0200601N002119999999N9999999N1+99999+99999999999ADDAA106002091MA1999999082031MD1710111+9999OA149900571REMSYN082AAXX  08004 06759 03/// /0604 1//// 2//// 38203 57011 60021 333 69935 91111 91210;
0139067590999992010010801004+46200+008800FM-12+164899999V0200501N002119999999N9999999N1+99999+99999999999ADDAA101000021MA1999999081961MD1810171+9999OA149900411REMSYN076AAXX  08014 06759 23/// /0504 1//// 2//// 38196 58017 333 69925 91108 91206;
0139067590999992010010802004+46200+008800FM-12+164899999V0200201N002119999999N9999999N1+99999+99999999999ADDAA101000591MA1999999081921MD1619999+9999OA149900411REMSYN076AAXX  08024 06759 23/// /0204 1//// 2//// 38192 56/// 333 69945 91108 91206;
0139067590999992010010803004+46200+008800FM-12+164899999V0203201N002619999999N9999999N1+99999+99999999999ADDAA101001091MA1999999081871MD1619999+9999OA149900411REMSYN076AAXX  08034 06759 23/// /3205 1//// 2//// 38187 56/// 333 69995 91108 91206;
0139067590999992010010804004+46200+008800FM-12+164899999V0203201N004119999999N9999999N1+99999+99999999999ADDAA101001091MA1999999081821MD1810141+9999OA149900571REMSYN076AAXX  08044 06759 23/// /3208 1//// 2//// 38182 58014 333 60015 91111 91208;
0139067590999992010010805004+46200+008800FM-12+164899999V0203201N004619999999N9999999N1+99999+99999999999ADDAA101001091MA1999999081761MD1710161+9999OA149900671REMSYN076AAXX  08054 06759 23/// /3209 1//// 2//// 38176 57016 333 60015 91113 91209;
0186067590999992010010806004+46200+008800FM-12+164899999V0203301N005719999999N9999999N1+99999+99999999999ADDAA112007192AA224006492AL11800691GJ102169MA1999999081711MD1710161+9999OA149900771REMSYN094AAXX  08064 06759 03/// /3311 1//// 2//// 38171 57016 60072 333 55036 60025 70063 91115 91212;
0139067590999992010010807004+46200+008800FM-12+164899999V0203201N005119999999N9999999N1+99999+99999999999ADDAA101000591MA1999999081691MD1610131+9999OA149900821REMSYN076AAXX  08074 06759 23/// /3210 1//// 2//// 38169 56013 333 69965 91116 91212;
0154067590999992010010808004+46200+008800FM-12+164899999V0203201N005119999999N9999999N1-00381-00431999999ADDAA101001091MA1999999081671MD1610091+9999ME1313459OA149900821REMSYN082AAXX  08084 06759 23/// /3210 11038 21043 38167 48345 56009 333 60015 91116 91212;
0154067590999992010010809004+46200+008800FM-12+164899999V0203401N005719999999N9999999N1-00331-00371999999ADDAA101001091MA1999999081621MD1810091+9999ME1313409OA149900821REMSYN082AAXX  08094 06759 23/// /3411 11033 21037 38162 48340 58009 333 60015 91116 91212;
0154067590999992010010810004+46200+008800FM-12+164899999V0203301N004619999999N9999999N1-00291-00331999999ADDAA101000891MA1999999081601MD1810091+9999ME1313379OA149900821REMSYN082AAXX  08104 06759 23/// /3309 11029 21033 38160 48337 58009 333 69975 91116 91211;
0154067590999992010010811004+46200+008800FM-12+164899999V0203401N002619999999N9999999N1-00241-00271999999ADDAA101001091MA1999999081531MD1810141+9999ME1313309OA149900771REMSYN082AAXX  08114 06759 23/// /3405 11024 21027 38153 48330 58014 333 60015 91115 91210;
0160067590999992010010812004+46200+008800FM-12+164899999V0203201N002619999999N9999999N1-00211-00241999999ADDAA106006191MA1999999081451MD1810171+9999ME1313229OA149900821REMSYN088AAXX  08124 06759 03/// /3205 11021 21024 38145 48322 58017 60061 333 60025 91116 91212;
0154067590999992010010813004+46200+008800FM-12+164899999V0209999C001519999999N9999999N1-00171-00191999999ADDAA101002091MA1999999081381MD1710221+9999ME1313149OA149900411REMSYN082AAXX  08134 06759 23/// /0003 11017 21019 38138 48314 57022 333 60025 91108 91205;
0154067590999992010010814004+46200+008800FM-12+164899999V0203601N001519999999N9999999N1-00161-00181999999ADDAA101002091MA1999999081331MD1619999+9999ME1313099OA149900411REMSYN082AAXX  08144 06759 23/// /3603 11016 21018 38133 48309 56/// 333 60025 91108 91205;
0154067590999992010010815004+46200+008800FM-12+164899999V0203101N004619999999N9999999N1-00151-00171999999ADDAA101002091MA1999999081291MD1610161+9999ME1313059OA149900771REMSYN082AAXX  08154 06759 23/// /3109 11015 21017 38129 48305 56016 333 60025 91115 91210;
0154067590999992010010816004+46200+008800FM-12+164899999V0203201N005719999999N9999999N1-00131-00151999999ADDAA101004191MA1999999081291MD1710091+9999ME1313059OA149900721REMSYN082AAXX  08164 06759 23/// /3211 11013 21015 38129 48305 57009 333 60045 91114 91211;
0154067590999992010010817004+46200+008800FM-12+164899999V0203101N004119999999N9999999N1-00151-00181999999ADDAA101004191MA1999999081301MD1519999+9999ME1313069OA149900721REMSYN082AAXX  08174 06759 23/// /3108 11015 21018 38130 48306 55/// 333 60045 91114 91211;
0160067590999992010010818004+46200+008800FM-12+164899999V0202901N002119999999N9999999N1-00221-00251999999ADDAA112022191MA1999999081341MD1310051+9999ME1313119OA149900821REMSYN088AAXX  08184 06759 03/// /2904 11022 21025 38134 48311 53005 60222 333 60025 91116 91212;
0154067590999992010010819004+46200+008800FM-12+164899999V0202601N005119999999N9999999N1-00181-00231999999ADDAA101001091MA1999999081361MD1210071+9999ME1313129OA149900771REMSYN082AAXX  08194 06759 23/// /2610 11018 21023 38136 48312 52007 333 60015 91115 91212;
0154067590999992010010820004+46200+008800FM-12+164899999V0202301N002619999999N9999999N1-00251-00251999999ADDAA101000591MA1999999081391MD1210091+9999ME1313169OA149900771REMSYN082AAXX  08204 06759 23/// /2305 11025 21025 38139 48316 52009 333 69965 91115 91212;
0154067590999992010010821004+46200+008800FM-12+164899999V0202401N002119999999N9999999N1-00241-00271999999ADDAA101000391MA1999999081411MD1210071+9999ME1313189OA149900771REMSYN082AAXX  08214 06759 23/// /2404 11024 21027 38141 48318 52007 333 69935 91115 91212;
0137067590999992010010822004+46200+008800FM-12+164899999V0203001N001519999999N9999999N1-00191-00221999999ADDMA1999999081411MD1210051+9999ME1313179OA149900511REMSYN076AAXX  08224 06759 33/// /3003 11019 21022 38141 48317 52005 333 91110 91207;
0154067590999992010010823004+46200+008800FM-12+164899999V0203301N001019999999N9999999N1-00091-00251999999ADDAA101000021MA1999999081421MD1210031+9999ME1313179OA149900311REMSYN082AAXX  08234 06759 23/// /3302 11009 21025 38142 48317 52003 333 69915 91106 91205;
0160067590999992010010900004+46200+008800FM-12+164899999V0200901N002119999999N9999999N1-00121-00181999999ADDAA106002091MA1999999081401MD1810011+9999ME1313169OA149900771REMSYN088AAXX  09004 06759 03/// /0904 11012 21018 38140 48316 58001 60021 333 60005 91115 91212;
0154067590999992010010901004+46200+008800FM-12+164899999V0200901N001519999999N9999999N1-00161-00161999999ADDAA101000021MA1999999081401MD1510011+9999ME1313169OA149900361REMSYN082AAXX  09014 06759 23/// /0903 11016 21016 38140 48316 55001 333 69915 91107 91205;
0137067590999992010010902004+46200+008800FM-12+164899999V0202201N001019999999N9999999N1-00121-00171999999ADDMA1999999081431MD1319999+9999ME1313199OA149900261REMSYN076AAXX  09024 06759 33/// /2202 11012 21017 38143 48319 53/// 333 91105 91204;
0137067590999992010010903004+46200+008800FM-12+164899999V0209999C000019999999N9999999N1-00091-00231999999ADDMA1999999081361MD1819999+9999ME1313119OA149900361REMSYN076AAXX  09034 06759 33/// /0000 11009 21023 38136 48311 58/// 333 91107 91205;
0137067590999992010010904004+46200+008800FM-12+164899999V0209999C000519999999N9999999N1-00151-00281999999ADDMA1999999081291MD1710111+9999ME1313059OA149900261REMSYN076AAXX  09044 06759 33/// /0001 11015 21028 38129 48305 57011 333 91105 91203;
0137067590999992010010905004+46200+008800FM-12+164899999V0203401N004119999999N9999999N1-00101-00311999999ADDMA1999999081171MD1810261+9999ME1312929OA149900621REMSYN076AAXX  09054 06759 33/// /3408 11010 21031 38117 48292 58026 333 91112 91210;
0220067590999992010010906004+46200+008800FM-12+164899999V0203401N005119999999N9999999N1-00121-00351999999ADDAA112002091AA224024491AL13002491GJ100009KA1999N-00271MA1999999081121MD1710241+9999ME1312889OA149900771REMSYN106AAXX  09064 06759 03/// /3410 11012 21035 38112 48288 57024 60022 333 21027 55000 60005 70245 91115 91212;
0137067590999992010010907004+46200+008800FM-12+164899999V0203201N004119999999N9999999N1-00101-00411999999ADDMA1999999081141MD1510151+9999ME1312909OA149900671REMSYN076AAXX  09074 06759 33/// /3208 11010 21041 38114 48290 55015 333 91113 91210;
0137067590999992010010908004+46200+008800FM-12+164899999V0202801N003619999999N9999999N1-00181-00281999999ADDMA1999999081181MD1310011+9999ME1312959OA149900621REMSYN076AAXX  09084 06759 33/// /2807 11018 21028 38118 48295 53001 333 91112 91208;
0137067590999992010010909004+46200+008800FM-12+164899999V0203601N002119999999N9999999N1-00141-00391999999ADDMA1999999081101MD1810021+9999ME1312869OA149900671REMSYN076AAXX  09094 06759 33/// /3604 11014 21039 38110 48286 58002 333 91113 91210;
0137067590999992010010910004+46200+008800FM-12+164899999V0203601N004619999999N9999999N1-00041-00431999999ADDMA1999999081031MD1710111+9999ME1312789OA149900771REMSYN076AAXX  09104 06759 33/// /3609 11004 21043 38103 48278 57011 333 91115 91209;
0137067590999992010010911004+46200+008800FM-12+164899999V0203201N003619999999N9999999N1-00021-00551999999ADDMA1999999080991MD1710191+9999ME1312739OA149900771REMSYN076AAXX  09114 06759 33/// /3207 11002 21055 38099 48273 57019 333 91115 91209;
0137067590999992010010912004+46200+008800FM-12+164899999V0203301N002619999999N9999999N1+00191-00691999999ADDMA1999999080911MD1710191+9999ME1312629OA149900771REMSYN076AAXX  09124 06759 33/// /3305 10019 21069 38091 48262 57019 333 91115 91210;
0137067590999992010010913004+46200+008800FM-12+164899999V0200601N003619999999N9999999N1-00021-00481999999ADDMA1999999080861MD1710171+9999ME1312609OA149900571REMSYN076AAXX  09134 06759 33/// /0607 11002 21048 38086 48260 57017 333 91111 91208;
0137067590999992010010914004+46200+008800FM-12+164899999V0201801N003619999999N9999999N1+00001-00671999999ADDMA1999999080901MD1510091+9999ME1312649OA149900511REMSYN076AAXX  09144 06759 33/// /1807 10000 21067 38090 48264 55009 333 91110 91207;
0137067590999992010010915004+46200+008800FM-12+164899999V0201701N001519999999N9999999N1-00291-00291999999ADDMA1999999080961MD1210051+9999ME1312749OA149900771REMSYN076AAXX  09154 06759 33/// /1703 11029 21029 38096 48274 52005 333 91115 91209;
0137067590999992010010916004+46200+008800FM-12+164899999V0202201N006219999999N9999999N1-00291-00291999999ADDMA1999999081041MD1310181+9999ME1312829OA149901031REMSYN076AAXX  09164 06759 33/// /2212 11029 21029 38104 48282 53018 333 91120 91216;
0154067590999992010010917004+46200+008800FM-12+164899999V0202201N004119999999N9999999N1-00321-00321999999ADDAA101000591MA1999999081101MD1310201+9999ME1312899OA149901031REMSYN082AAXX  09174 06759 23/// /2208 11032 21032 38110 48289 53020 333 69965 91120 91216;
0179067590999992010010918004+46200+008800FM-12+164899999V0202201N003119999999N9999999N1-00341-00341999999ADDAA112001091KA1120M+00191MA1999999081151MD1110191+9999ME1312949OA149901031REMSYN094AAXX  09184 06759 03/// /2206 11034 21034 38115 48294 51019 60012 333 10019 69975 91120 91216;
0154067590999992010010919004+46200+008800FM-12+164899999V0202501N004119999999N9999999N1-00331-00331999999ADDAA101000591MA1999999081201MD1110161+9999ME1312999OA149900621REMSYN082AAXX  09194 06759 23/// /2508 11033 21033 38120 48299 51016 333 69955 91112 91208;
0154067590999992010010920004+46200+008800FM-12+164899999V0202301N003119999999N9999999N1-00371-00381999999ADDAA101000391MA1999999081271MD1310171+9999ME1313069OA149900621REMSYN082AAXX  09204 06759 23/// /2306 11037 21038 38127 48306 53017 333 69935 91112 91208;
0154067590999992010010921004+46200+008800FM-12+164899999V0202201N003119999999N9999999N1-00391-00411999999ADDAA101001091MA1999999081341MD1310191+9999ME1313139OA149901031REMSYN082AAXX  09214 06759 23/// /2206 11039 21041 38134 48313 53019 333 69995 91120 91216;
0154067590999992010010922004+46200+008800FM-12+164899999V0202501N002619999999N9999999N1-00351-00371999999ADDAA101000021MA1999999081391MD1110191+9999ME1313189OA149900511REMSYN082AAXX  09224 06759 23/// /2505 11035 21037 38139 48318 51019 333 69925 91110 91209;
0154067590999992010010923004+46200+008800FM-12+164899999V0201501N001019999999N9999999N1-00361-00381999999ADDAA101000021MA1999999081461MD1310191+9999ME1313259OA149900511REMSYN082AAXX  09234 06759 23/// /1502 11036 21038 38146 48325 53019 333 69925 91110 91209;
0160067590999992010011000004+46200+008800FM-12+164899999V0201101N001519999999N9999999N1-00351-00421999999ADDAA106002091MA1999999081481MD1110141+9999ME1313269OA149901031REMSYN088AAXX  10004 06759 03/// /1103 11035 21042 38148 48326 51014 60021 333 69935 91120 91216;
0154067590999992010011001004+46200+008800FM-12+164899999V0200901N002119999999N9999999N1-00361-00361999999ADDAA101000591MA1999999081501MD1210111+9999ME1313289OA149900411REMSYN082AAXX  10014 06759 23/// /0904 11036 21036 38150 48328 52011 333 69945 91108 91204;
0117067590999992010011002004+46200+008800FM-12+164899999V0200701N003619999999N9999999N1-00371-00371999999ADDAA101000391MA1999999081541ME1313339REMSYN070AAXX  10024 06759 23/// /0707 11037 21037 38154 48333 5//// 333 69935;
0096067590999992010011003004+46200+008800FM-12+164899999V0200701N002619999999N9999999N1-00381-00381999999ADDMA1999999081601ME1313399REMSYN060AAXX  10034 06759 43/// /0705 11038 21038 38160 48339 5////;
0154067590999992010011004004+46200+008800FM-12+164899999V0202001N003619999999N9999999N1-00421-00431999999ADDAA101001091MA1999999081671MD1310171+9999ME1313469OA149900511REMSYN082AAXX  10044 06759 23/// /2007 11042 21043 38167 48346 53017 333 69995 91110 91208;
0154067590999992010011005004+46200+008800FM-12+164899999V0202001N002119999999N9999999N1-00461-00461999999ADDAA101000021MA1999999081711MD1110171+9999ME1313509OA149900461REMSYN082AAXX  10054 06759 23/// /2004 11046 21046 38171 48350 51017 333 69915 91109 91207;
0220067590999992010011006004+46200+008800FM-12+164899999V0202001N001519999999N9999999N1-00501-00501999999ADDAA112005191AA224006491AL11800691GJ100009KA1999N-00461MA1999999081731MD1110131+9999ME1313539OA149900621REMSYN106AAXX  10064 06759 03/// /2003 11050 21050 38173 48353 51013 60052 333 21046 55000 60005 70063 91112 91209;
0137067590999992010011007004+46200+008800FM-12+164899999V0202101N001519999999N9999999N1-00491-00491999999ADDMA1999999081791MD1310121+9999ME1313589OA149900261REMSYN076AAXX  10074 06759 33/// /2103 11049 21049 38179 48358 53012 333 91105 91204;
0137067590999992010011008004+46200+008800FM-12+164899999V0202101N001519999999N9999999N1-00541-00571999999ADDMA1999999081861MD1319999+9999ME1313669OA149900261REMSYN076AAXX  10084 06759 33/// /2103 11054 21057 38186 48366 53/// 333 91105 91203;
0137067590999992010011009004+46200+008800FM-12+164899999V0202001N001519999999N9999999N1-00501-00511999999ADDMA1999999081941MD1310211+9999ME1313739OA149900461REMSYN076AAXX  10094 06759 33/// /2003 11050 21051 38194 48373 53021 333 91109 91207;
0137067590999992010011010004+46200+008800FM-12+164899999V0201901N001019999999N9999999N1-00501-00531999999ADDMA1999999082001MD1310211+9999ME1313799OA149900261REMSYN076AAXX  10104 06759 33/// /1902 11050 21053 38200 48379 53021 333 91105 91204;
0137067590999992010011011004+46200+008800FM-12+164899999V0200701N000519999999N9999999N1-00421-00431999999ADDMA1999999082011MD1110151+9999ME1313799OA149900151REMSYN076AAXX  10114 06759 33/// /0701 11042 21043 38201 48379 51015 333 91103 91202;
0137067590999992010011012004+46200+008800FM-12+164899999V0200701N001019999999N9999999N1-00421-00481999999ADDMA1999999082011MD1110071+9999ME1313799OA149900511REMSYN076AAXX  10124 06759 33/// /0702 11042 21048 38201 48379 51007 333 91110 91208;
0137067590999992010011013004+46200+008800FM-12+164899999V0202801N000519999999N9999999N1-00401-00501999999ADDMA1999999082011MD1210011+9999ME1313799OA149900151REMSYN076AAXX  10134 06759 33/// /2801 11040 21050 38201 48379 52001 333 91103 91202;
0137067590999992010011014004+46200+008800FM-12+164899999V0202701N000519999999N9999999N1-00301-00591999999ADDMA1999999082031MD1219999+9999ME1313809OA149900151REMSYN076AAXX  10144 06759 33/// /2701 11030 21059 38203 48380 52/// 333 91103 91202;
0137067590999992010011015004+46200+008800FM-12+164899999V0200701N000519999999N9999999N1-00511-00511999999ADDMA1999999082061MD1210051+9999ME1313859OA149900151REMSYN076AAXX  10154 06759 33/// /0701 11051 21051 38206 48385 52005 333 91103 91202;
0137067590999992010011016004+46200+008800FM-12+164899999V0209999C000019999999N9999999N1-00531-00531999999ADDMA1999999082091MD1310081+9999ME1313889OA149900151REMSYN076AAXX  10164 06759 33/// /0000 11053 21053 38209 48388 53008 333 91103 91202;
0137067590999992010011017004+46200+008800FM-12+164899999V0209999C000019999999N9999999N1-00501-00501999999ADDMA1999999082131MD1110101+9999ME1313919OA149900101REMSYN076AAXX  10174 06759 33/// /0000 11050 21050 38213 48391 51010 333 91102 91201;
0156067590999992010011018004+46200+008800FM-12+164899999V0209999C000019999999N9999999N1-00611-00611999999ADDKA1120M-00151MA1999999082181MD1310121+9999ME1313979OA149900261REMSYN082AAXX  10184 06759 33/// /0000 11061 21061 38218 48397 53012 333 11015 91105 91204;
0137067590999992010011019004+46200+008800FM-12+164899999V0200901N000519999999N9999999N1-00581-00581999999ADDMA1999999082221MD1210131+9999ME1314019OA149900101REMSYN076AAXX  10194 06759 33/// /0901 11058 21058 38222 48401 52013 333 91102 91201;
0137067590999992010011020004+46200+008800FM-12+164899999V0209999C000019999999N9999999N1-00551-00651999999ADDMA1999999082261MD1110131+9999ME1314049OA149900151REMSYN076AAXX  10204 06759 33/// /0000 11055 21065 38226 48404 51013 333 91103 91202;
0137067590999992010011021004+46200+008800FM-12+164899999V0209999C000019999999N9999999N1-00541-00641999999ADDMA1999999082291MD1110111+9999ME1314079OA149900151REMSYN076AAXX  10214 06759 33/// /0000 11054 21064 38229 48407 51011 333 91103 91202;
0137067590999992010011022004+46200+008800FM-12+164899999V0201501N000519999999N9999999N1-00581-00661999999ADDMA1999999082301MD1210081+9999ME1314089OA149900151REMSYN076AAXX  10224 06759 33/// /1501 11058 21066 38230 48408 52008 333 91103 91201;
0137067590999992010011023004+46200+008800FM-12+164899999V0201201N000519999999N9999999N1-00581-00641999999ADDMA1999999082311MD1210051+9999ME1314099OA149900151REMSYN076AAXX  10234 06759 33/// /1201 11058 21064 38231 48409 52005 333 91103 91202;
0137067590999992010011100004+46200+008800FM-12+164899999V0209999C000019999999N9999999N1-00601-00661999999ADDMA1999999082311MD1210021+9999ME1314109OA149900151REMSYN076AAXX  11004 06759 33/// /0000 11060 21066 38231 48410 52002 333 91103 91202;
0156067590999992010011101004+46200+008800FM-12+164899999V0201601N000519999999N9999999N1-00631-00671999999ADDMA1999999082301MD1410001+9999ME1314099OA149900151REMSYN076AAXX  11014 06759 33/// /1601 11063 21067 38230 48409 58000 333 91103 91201;EQDQ01+000082APCTEN
0137067590999992010011102004+46200+008800FM-12+164899999V0201501N000519999999N9999999N1-00671-00681999999ADDMA1999999082311MD1519999+9999ME1314109OA149900151REMSYN076AAXX  11024 06759 33/// /1501 11067 21068 38231 48410 55/// 333 91103 91201;
0137067590999992010011103004+46200+008800FM-12+164899999V0200701N001019999999N9999999N1-00691-00751999999ADDMA1999999082301MD1719999+9999ME1314109OA149900151REMSYN076AAXX  11034 06759 33/// /0702 11069 21075 38230 48410 57/// 333 91103 91202;
0156067590999992010011104004+46200+008800FM-12+164899999V0200701N000519999999N9999999N1-00691-00741999999ADDMA1999999082301MD1410001+9999ME1314109OA149900101REMSYN076AAXX  11044 06759 33/// /0701 11069 21074 38230 48410 57000 333 91102 91202;EQDQ01+000072APCTEN
0137067590999992010011105004+46200+008800FM-12+164899999V0200901N000519999999N9999999N1-00671-00751999999ADDMA1999999082321MD1310011+9999ME1314119OA149900151REMSYN076AAXX  11054 06759 33/// /0901 11067 21075 38232 48411 53001 333 91103 91202;
0216067590999992010011106004+46200+008800FM-12+164899999V0201101N000519999999N9999999N1-00691-00731999999ADDAA124000091AL19900091GJ101449KA1999N-00701MA1999999082321MD1210021+9999ME1314119OA149900151REMSYN094AAXX  11064 06759 33/// /1101 11069 21073 38232 48411 52002 333 21070 55024 70000 91103 91202;EQDQ01  00002PRCP24
0137067590999992010011107004+46200+008800FM-12+164899999V0200701N001019999999N9999999N1-00681-00761999999ADDMA1999999082321MD1210021+9999ME1314119OA149900211REMSYN076AAXX  11074 06759 33/// /0702 11068 21076 38232 48411 52002 333 91104 91203;
0137067590999992010011108004+46200+008800FM-12+164899999V0200701N001519999999N9999999N1-00611-00711999999ADDMA1999999082361MD1219999+9999ME1314149OA149900211REMSYN076AAXX  11084 06759 33/// /0703 11061 21071 38236 48414 52/// 333 91104 91203;
0137067590999992010011109004+46200+008800FM-12+164899999V0200601N001019999999N9999999N1-00521-00691999999ADDMA1999999082411MD1210091+9999ME1314189OA149900211REMSYN076AAXX  11094 06759 33/// /0602 11052 21069 38241 48418 52009 333 91104 91203;
0137067590999992010011110004+46200+008800FM-12+164899999V0200801N001019999999N9999999N1-00481-00681999999ADDMA1999999082441MD1219999+9999ME1314219OA149900211REMSYN076AAXX  11104 06759 33/// /0802 11048 21068 38244 48421 52/// 333 91104 91203;
0122067590999992010011111004+46200+008800FM-12+164899999V0200901N001019999999N9999999N1+99999+99999999999ADDMA1999999082431MD1210071+9999OA149900211REMSYN070AAXX  11114 06759 33/// /0902 1//// 2//// 38243 52007 333 91104 91203;
0137067590999992010011112004+46200+008800FM-12+164899999V0200801N001019999999N9999999N1-00401-00481999999ADDMA1999999082401MD1810011+9999ME1314169OA149900211REMSYN076AAXX  11124 06759 33/// /0802 11040 21048 38240 48416 58001 333 91104 91203;
0137067590999992010011113004+46200+008800FM-12+164899999V0200801N001019999999N9999999N1-00431-00521999999ADDMA1999999082371MD1710071+9999ME1314149OA149900211REMSYN076AAXX  11134 06759 33/// /0802 11043 21052 38237 48414 57007 333 91104 91203;
0096067590999992010011114004+46200+008800FM-12+164899999V0201201N000519999999N9999999N1-00451-00541999999ADDMA1999999082371ME1314149REMSYN060AAXX  11144 06759 33/// /1201 11045 21054 38237 48414 5////;
0137067590999992010011115004+46200+008800FM-12+164899999V0209999C000019999999N9999999N1-00521-00601999999ADDMA1999999082351MD1710051+9999ME1314139OA149900211REMSYN076AAXX  11154 06759 33/// /0000 11052 21060 38235 48413 57005 333 91104 91203;
0137067590999992010011116004+46200+008800FM-12+164899999V0200801N000519999999N9999999N1-00551-00641999999ADDMA1999999082351MD1710021+9999ME1314139OA149900101REMSYN076AAXX  11164 06759 33/// /0801 11055 21064 38235 48413 57002 333 91102 91201;
0137067590999992010011117004+46200+008800FM-12+164899999V0200601N001019999999N9999999N1-00581-00681999999ADDMA1999999082371MD1510001+9999ME1314159OA149900151REMSYN076AAXX  11174 06759 33/// /0602 11058 21068 38237 48415 55000 333 91103 91202;
0137067590999992010011118004+46200+008800FM-12+164899999V0200701N001019999999N9999999N1-00551-00631999999ADDMA1999999082401MD1310051+9999ME1314189OA149900211REMSYN076AAXX  11184 06759 33/// /0702 11055 21063 38240 48418 53005 333 91104 91203;
0137067590999992010011119004+46200+008800FM-12+164899999V0200901N000519999999N9999999N1-00541-00601999999ADDMA1999999082451MD1310101+9999ME1314229OA149900151REMSYN076AAXX  11194 06759 33/// /0901 11054 21060 38245 48422 53010 333 91103 91203;
0137067590999992010011120004+46200+008800FM-12+164899999V0209999C000019999999N9999999N1-00571-00661999999ADDMA1999999082481MD1110111+9999ME1314269OA149900151REMSYN076AAXX  11204 06759 33/// /0000 11057 21066 38248 48426 51011 333 91103 91203;
0137067590999992010011121004+46200+008800FM-12+164899999V0209999C000019999999N9999999N1-00591-00671999999ADDMA1999999082491MD1210091+9999ME1314279OA149900151REMSYN076AAXX  11214 06759 33/// /0000 11059 21067 38249 48427 52009 333 91103 91203;
0137067590999992010011122004+46200+008800FM-12+164899999V0200701N000519999999N9999999N1-00561-00651999999ADDMA1999999082501MD1210051+9999ME1314279OA149900151REMSYN076AAXX  11224 06759 33/// /0701 11056 21065 38250 48427 52005 333 91103 91203;
0137067590999992010011123004+46200+008800FM-12+164899999V0209999C000019999999N9999999N1-00551-00641999999ADDMA1999999082521MD1210041+9999ME1314299OA149900101REMSYN076AAXX  11234 06759 33/// /0000 11055 21064 38252 48429 52004 333 91102 91202;
0137067590999992010011200004+46200+008800FM-12+164899999V0200601N002119999999N9999999N1-00571-00651999999ADDMA1999999082501MD1010011+9999ME1314289OA149900211REMSYN076AAXX  12004 06759 33/// /0604 11057 21065 38250 48428 50001 333 91104 91204;
0137067590999992010011201004+46200+008800FM-12+164899999V0200701N001519999999N9999999N1-00581-00651999999ADDMA1999999082521MD1210021+9999ME1314309OA149900211REMSYN076AAXX  12014 06759 33/// /0703 11058 21065 38252 48430 52002 333 91104 91204;
0137067590999992010011202004+46200+008800FM-12+164899999V0200901N000519999999N9999999N1-00561-00641999999ADDMA1999999082531MD1219999+9999ME1314309OA149900211REMSYN076AAXX  12024 06759 33/// /0901 11056 21064 38253 48430 52/// 333 91104 91204;
0137067590999992010011203004+46200+008800FM-12+164899999V0200701N001019999999N9999999N1-00581-00671999999ADDMA1999999082531MD1210031+9999ME1314309OA149900211REMSYN076AAXX  12034 06759 33/// /0702 11058 21067 38253 48430 52003 333 91104 91204;
0156067590999992010011204004+46200+008800FM-12+164899999V0200701N001019999999N9999999N1-00581-00681999999ADDMA1999999082521MD1410001+9999ME1314309OA149900151REMSYN076AAXX  12044 06759 33/// /0702 11058 21068 38252 48430 57000 333 91103 91202;EQDQ01+000072APCTEN
0137067590999992010011205004+46200+008800FM-12+164899999V0200501N001519999999N9999999N1-00601-00711999999ADDMA1999999082501MD1710031+9999ME1314289OA149900211REMSYN076AAXX  12054 06759 33/// /0503 11060 21071 38250 48428 57003 333 91104 91203;
0232067590999992010011206004+46200+008800FM-12+164899999V0200701N001019999999N9999999N1-00581-00671999999ADDAA124000091AL19900091GJ103009KA1999N-00631MA1999999082531MD1410001+9999ME1314309OA149900211REMSYN094AAXX  12064 06759 33/// /0702 11058 21067 38253 48430 53000 333 21063 55050 70000 91104 91204;EQDQ01+000032APCTENQ02  00002PRCP24
0137067590999992010011207004+46200+008800FM-12+164899999V0200601N001519999999N9999999N1-00621-00731999999ADDMA1999999082531MD1210011+9999ME1314319OA149900261REMSYN076AAXX  12074 06759 33/// /0603 11062 21073 38253 48431 52001 333 91105 91204;
0137067590999992010011208004+46200+008800FM-12+164899999V0200601N001519999999N9999999N1-00581-00721999999ADDMA1999999082551MD1219999+9999ME1314329OA149900261REMSYN076AAXX  12084 06759 33/// /0603 11058 21072 38255 48432 52/// 333 91105 91204;
0137067590999992010011209004+46200+008800FM-12+164899999V0200601N001519999999N9999999N1-00591-00731999999ADDMA1999999082561MD1110031+9999ME1314339OA149900261REMSYN076AAXX  12094 06759 33/// /0603 11059 21073 38256 48433 51003 333 91105 91204;
0137067590999992010011210004+46200+008800FM-12+164899999V0200601N002119999999N9999999N1-00511-00621999999ADDMA1999999082561MD1210031+9999ME1314339OA149900261REMSYN076AAXX  12104 06759 33/// /0604 11051 21062 38256 48433 52003 333 91105 91205;
0137067590999992010011211004+46200+008800FM-12+164899999V0200701N002119999999N9999999N1-00541-00611999999ADDMA1999999082561MD1010011+9999ME1314339OA149900361REMSYN076AAXX  12114 06759 33/// /0704 11054 21061 38256 48433 50001 333 91107 91205;
0137067590999992010011212004+46200+008800FM-12+164899999V0200701N001019999999N9999999N1-00561-00671999999ADDMA1999999082521MD1710041+9999ME1314299OA149900361REMSYN076AAXX  12124 06759 33/// /0702 11056 21067 38252 48429 57004 333 91107 91205;
0137067590999992010011213004+46200+008800FM-12+164899999V0200701N001019999999N9999999N1-00551-00661999999ADDMA1999999082491MD1810071+9999ME1314269OA149900261REMSYN076AAXX  12134 06759 33/// /0702 11055 21066 38249 48426 58007 333 91105 91203;
0096067590999992010011214004+46200+008800FM-12+164899999V0200901N000519999999N9999999N1-00571-00771999999ADDMA1999999082471ME1314259REMSYN060AAXX  12144 06759 33/// /0901 11057 21077 38247 48425 5////;
0137067590999992010011215004+46200+008800FM-12+164899999V0200701N001519999999N9999999N1-00561-00691999999ADDMA1999999082421MD1810101+9999ME1314209OA149900361REMSYN076AAXX  12154 06759 33/// /0703 11056 21069 38242 48420 58010 333 91107 91205;
0137067590999992010011216004+46200+008800FM-12+164899999V0200801N000519999999N9999999N1-00581-00861999999ADDMA1999999082401MD1610091+9999ME1314189OA149900211REMSYN076AAXX  12164 06759 33/// /0801 11058 21086 38240 48418 56009 333 91104 91203;
0137067590999992010011217004+46200+008800FM-12+164899999V0200801N001019999999N9999999N1-00601-00841999999ADDMA1999999082391MD1710081+9999ME1314179OA149900211REMSYN076AAXX  12174 06759 33/// /0802 11060 21084 38239 48417 57008 333 91104 91203;
0156067590999992010011218004+46200+008800FM-12+164899999V0200601N002619999999N9999999N1-00611-00831999999ADDKA1120M-00491MA1999999082371MD1710051+9999ME1314159OA149900361REMSYN082AAXX  12184 06759 33/// /0605 11061 21083 38237 48415 57005 333 11049 91107 91205;
0137067590999992010011219004+46200+008800FM-12+164899999V0200701N002119999999N9999999N1-00631-00801999999ADDMA1999999082391MD1510011+9999ME1314189OA149900361REMSYN076AAXX  12194 06759 33/// /0704 11063 21080 38239 48418 55001 333 91107 91205;
0137067590999992010011220004+46200+008800FM-12+164899999V0200801N001019999999N9999999N1-00661-00761999999ADDMA1999999082401MD1310011+9999ME1314199OA149900361REMSYN076AAXX  12204 06759 33/// /0802 11066 21076 38240 48419 53001 333 91107 91205;
0137067590999992010011221004+46200+008800FM-12+164899999V0200601N001019999999N9999999N1-00661-00731999999ADDMA1999999082371MD1010001+9999ME1314169OA149900361REMSYN076AAXX  12214 06759 33/// /0602 11066 21073 38237 48416 50000 333 91107 91205;
0137067590999992010011222004+46200+008800FM-12+164899999V0200501N001519999999N9999999N1-00681-00791999999ADDMA1999999082321MD1710071+9999ME1314119OA149900211REMSYN076AAXX  12224 06759 33/// /0503 11068 21079 38232 48411 57007 333 91104 91203;
0137067590999992010011223004+46200+008800FM-12+164899999V0200601N002619999999N9999999N1-00681-00741999999ADDMA1999999082241MD1810161+9999ME1314049OA149900361REMSYN076AAXX  12234 06759 33/// /0605 11068 21074 38224 48404 58016 333 91107 91205;
0137067590999992010011300004+46200+008800FM-12+164899999V0209999C000019999999N9999999N1-00681-00731999999ADDMA1999999082251MD1710121+9999ME1314059OA149900361REMSYN076AAXX  13004 06759 33/// /0000 11068 21073 38225 48405 57012 333 91107 91205;
0154067590999992010011301004+46200+008800FM-12+164899999V0200501N002119999999N9999999N1-00661-00701999999ADDAA101000021MA1999999082191MD1710131+9999ME1313999OA149900311REMSYN082AAXX  13014 06759 23/// /0504 11066 21070 38219 48399 57013 333 69925 91106 91204;
0154067590999992010011302004+46200+008800FM-12+164899999V0200601N001519999999N9999999N1-00661-00701999999ADDAA101000591MA1999999082151MD1719999+9999ME1313959OA149900311REMSYN082AAXX  13024 06759 23/// /0603 11066 21070 38215 48395 57/// 333 69965 91106 91205;
0154067590999992010011303004+46200+008800FM-12+164899999V0200901N001019999999N9999999N1-00681-00691999999ADDAA101000391MA1999999082111MD1619999+9999ME1313919OA149900361REMSYN082AAXX  13034 06759 23/// /0902 11068 21069 38211 48391 56/// 333 69935 91107 91205;
0137067590999992010011304004+46200+008800FM-12+164899999V0201201N000519999999N9999999N1-00651-00771999999ADDMA1999999082091MD1810101+9999ME1313899OA149900151REMSYN076AAXX  13044 06759 33/// /1201 11065 21077 38209 48389 58010 333 91103 91203;
0154067590999992010011305004+46200+008800FM-12+164899999V0201401N000519999999N9999999N1-00631-00761999999ADDAA101000021MA1999999082061MD1610091+9999ME1313869OA149900151REMSYN082AAXX  13054 06759 23/// /1401 11063 21076 38206 48386 56009 333 69915 91103 91202;
0220067590999992010011306004+46200+008800FM-12+164899999V0203501N001019999999N9999999N1-00641-00771999999ADDAA112001091AA224001391AL11800191GJ100489KA1999N-00711MA1999999082071MD1510041+9999ME1313879OA149900361REMSYN106AAXX  13064 06759 03/// /3502 11064 21077 38207 48387 55004 60012 333 21071 55008 69915 70013 91107 91205;
0173067590999992010011307004+46200+008800FM-12+164899999V0200701N000519999999N9999999N1-00611-00741999999ADDAA101000021MA1999999082091MD1410001+9999ME1313899OA149900101REMSYN082AAXX  13074 06759 23/// /0701 11061 21074 38209 48389 53000 333 69915 91102 91202;EQDQ01+000032APCTEN
0154067590999992010011308004+46200+008800FM-12+164899999V0200801N000519999999N9999999N1-00611-00741999999ADDAA101000021MA1999999082121MD1210061+9999ME1313919OA149900101REMSYN082AAXX  13084 06759 23/// /0801 11061 21074 38212 48391 52006 333 69925 91102 91201;
0137067590999992010011309004+46200+008800FM-12+164899999V0209999C000019999999N9999999N1-00601-00731999999ADDMA1999999082151MD1219999+9999ME1313949OA149900151REMSYN076AAXX  13094 06759 33/// /0000 11060 21073 38215 48394 52/// 333 91103 91202;
0137067590999992010011310004+46200+008800FM-12+164899999V0209999C000019999999N9999999N1-00621-00691999999ADDMA1999999082171MD1110081+9999ME1313969OA149900051REMSYN076AAXX  13104 06759 33/// /0000 11062 21069 38217 48396 51008 333 91101 91201;
0137067590999992010011311004+46200+008800FM-12+164899999V0209999C000019999999N9999999N1-00581-00611999999ADDMA1999999082181MD1119999+9999ME1313979OA149900051REMSYN076AAXX  13114 06759 33/// /0000 11058 21061 38218 48397 51/// 333 91101 91201;
0160067590999992010011312004+46200+008800FM-12+164899999V0209999C000019999999N9999999N1-00551-00631999999ADDAA106000391MA1999999082151MD1819999+9999ME1313949OA149900311REMSYN088AAXX  13124 06759 03/// /0000 11055 21063 38215 48394 58/// 69931 333 60005 91106 91205;
0137067590999992010011313004+46200+008800FM-12+164899999V0209999C000019999999N9999999N1-00541-00551999999ADDMA1999999082121MD1810051+9999ME1313919OA149900101REMSYN076AAXX  13134 06759 33/// /0000 11054 21055 38212 48391 58005 333 91102 91200;
0137067590999992010011314004+46200+008800FM-12+164899999V0209999C000019999999N9999999N1-00551-00551999999ADDMA1999999082121MD1719999+9999ME1313919OA149900101REMSYN076AAXX  13144 06759 33/// /0000 11055 21055 38212 48391 57/// 333 91102 91200;
0137067590999992010011315004+46200+008800FM-12+164899999V0201301N000519999999N9999999N1-00531-00551999999ADDMA1999999082131MD1510021+9999ME1313929OA149900101REMSYN076AAXX  13154 06759 33/// /1301 11053 21055 38213 48392 55002 333 91102 91201;
0137067590999992010011316004+46200+008800FM-12+164899999V0200401N001019999999N9999999N1-00511-00671999999ADDMA1999999082151MD1210031+9999ME1313939OA149900101REMSYN076AAXX  13164 06759 33/// /0402 11051 21067 38215 48393 52003 333 91102 91202;
0137067590999992010011317004+46200+008800FM-12+164899999V0203501N001019999999N9999999N1-00561-00651999999ADDMA1999999082181MD1310061+9999ME1313979OA149900151REMSYN076AAXX  13174 06759 33/// /3502 11056 21065 38218 48397 53006 333 91103 91202;
0179067590999992010011318004+46200+008800FM-12+164899999V0209999C000019999999N9999999N1-00491-00681999999ADDAA112000391KA1120M-00501MA1999999082201MD1310071+9999ME1313989OA149900151REMSYN094AAXX  13184 06759 03/// /0000 11049 21068 38220 48398 53007 69932 333 11050 60005 91103 91202;
0137067590999992010011319004+46200+008800FM-12+164899999V0200201N001019999999N9999999N1-00521-00711999999ADDMA1999999082211MD1210061+9999ME1313999OA149900151REMSYN076AAXX  13194 06759 33/// /0202 11052 21071 38221 48399 52006 333 91103 91202;
0096067590999992010011400004+46200+008800FM-12+164899999V0201101N000519999999N9999999N1-00571-00691999999ADDMA1999999082181ME1313979REMSYN060AAXX  14004 06759 43/// /1101 11057 21069 38218 48397 5////;
0137067590999992010011401004+46200+008800FM-12+164899999V0201301N000519999999N9999999N1-00571-00681999999ADDMA1999999082171MD1619999+9999ME1313969OA149900101REMSYN076AAXX  14014 06759 33/// /1301 11057 21068 38217 48396 56/// 333 91102 91201;
0137067590999992010011402004+46200+008800FM-12+164899999V0200601N001019999999N9999999N1-00601-00701999999ADDMA1999999082151MD1619999+9999ME1313949OA149900151REMSYN076AAXX  14024 06759 33/// /0602 11060 21070 38215 48394 56/// 333 91103 91202;
0096067590999992010011403004+46200+008800FM-12+164899999V0209999C000019999999N9999999N1-00621-00641999999ADDMA1999999082161ME1313959REMSYN060AAXX  14034 06759 33/// /0000 11062 21064 38216 48395 5////;
0137067590999992010011404004+46200+008800FM-12+164899999V0201001N000519999999N9999999N1-00601-00671999999ADDMA1999999082161MD1510011+9999ME1313959OA149900151REMSYN076AAXX  14044 06759 33/// /1001 11060 21067 38216 48395 55001 333 91103 91202;
0137067590999992010011405004+46200+008800FM-12+164899999V0200501N001519999999N9999999N1-00601-00661999999ADDMA1999999082151MD1010001+9999ME1313949OA149900211REMSYN076AAXX  14054 06759 33/// /0503 11060 21066 38215 48394 50000 333 91104 91203;
0197067590999992010011406004+46200+008800FM-12+164899999V0200901N001019999999N9999999N1-00531-00711999999ADDAA124000391AL11800091GJ100009KA1999N-00651MA1999999082151MD1710011+9999ME1313949OA149900211REMSYN094AAXX  14064 06759 33/// /0902 11053 21071 38215 48394 57001 333 21065 55000 70003 91104 91203;
0137067590999992010011407004+46200+008800FM-12+164899999V0200601N001519999999N9999999N1-00541-00701999999ADDMA1999999082171MD1310011+9999ME1313969OA149900211REMSYN076AAXX  14074 06759 33/// /0603 11054 21070 38217 48396 53001 333 91104 91203;
0137067590999992010011408004+46200+008800FM-12+164899999V0200701N000519999999N9999999N1-00541-00681999999ADDMA1999999082221MD1319999+9999ME1314009OA149900211REMSYN076AAXX  14084 06759 33/// /0701 11054 21068 38222 48400 53/// 333 91104 91204;
0137067590999992010011409004+46200+008800FM-12+164899999V0200501N001519999999N9999999N1-00561-00671999999ADDMA1999999082211MD1210061+9999ME1314009OA149900211REMSYN076AAXX  14094 06759 33/// /0503 11056 21067 38221 48400 52006 333 91104 91204;
0137067590999992010011410004+46200+008800FM-12+164899999V0200501N001019999999N9999999N1-00531-00651999999ADDMA1999999082251MD1210081+9999ME1314039OA149900211REMSYN076AAXX  14104 06759 33/// /0502 11053 21065 38225 48403 52008 333 91104 91203;
0137067590999992010011411004+46200+008800FM-12+164899999V0209999C000019999999N9999999N1-00541-00581999999ADDMA1999999082221MD1010001+9999ME1314009OA149900151REMSYN076AAXX  14114 06759 33/// /0000 11054 21058 38222 48400 50000 333 91103 91203;
0137067590999992010011412004+46200+008800FM-12+164899999V0200701N001019999999N9999999N1-00501-00621999999ADDMA1999999082201MD1810011+9999ME1313989OA149900211REMSYN076AAXX  14124 06759 33/// /0702 11050 21062 38220 48398 58001 333 91104 91204;
0137067590999992010011413004+46200+008800FM-12+164899999V0201201N000519999999N9999999N1-00541-00571999999ADDMA1999999082181MD1710071+9999ME1313979OA149900151REMSYN076AAXX  14134 06759 33/// /1201 11054 21057 38218 48397 57007 333 91103 91202;
0137067590999992010011414004+46200+008800FM-12+164899999V0201301N000519999999N9999999N1-00541-00551999999ADDMA1999999082201MD1510021+9999ME1313989OA149900151REMSYN076AAXX  14144 06759 33/// /1301 11054 21055 38220 48398 55002 333 91103 91202;
0137067590999992010011415004+46200+008800FM-12+164899999V0200601N001019999999N9999999N1-00461-00641999999ADDMA1999999082191MD1010011+9999ME1313979OA149900151REMSYN076AAXX  14154 06759 33/// /0602 11046 21064 38219 48397 50001 333 91103 91203;
0156067590999992010011416004+46200+008800FM-12+164899999V0200501N002119999999N9999999N1-00461-00701999999ADDMA1999999082181MD1410001+9999ME1313969OA149900261REMSYN076AAXX  14164 06759 33/// /0504 11046 21070 38218 48396 58000 333 91105 91204;EQDQ01+000082APCTEN
0137067590999992010011417004+46200+008800FM-12+164899999V0200801N000519999999N9999999N1-00511-00621999999ADDMA1999999082231MD1310031+9999ME1314019OA149900261REMSYN076AAXX  14174 06759 33/// /0801 11051 21062 38223 48401 53003 333 91105 91204;
0141067590999992010011418004+46200+008800FM-12+164899999V0200601N000519999999N9999999N1+99999+99999999999ADDKA1120M-00451MA1999999082281MD1210091+9999OA149900261REMSYN076AAXX  14184 06759 33/// /0601 1//// 2//// 38228 52009 333 11045 91105 91204;
0122067590999992010011419004+46200+008800FM-12+164899999V0200601N000519999999N9999999N1+99999+99999999999ADDMA1999999082341MD1310161+9999OA149900151REMSYN070AAXX  14194 06759 33/// /0601 1//// 2//// 38234 53016 333 91103 91203;
0122067590999992010011420004+46200+008800FM-12+164899999V0200801N000519999999N9999999N1+99999+99999999999ADDMA1999999082391MD1310161+9999OA149900151REMSYN070AAXX  14204 06759 33/// /0801 1//// 2//// 38239 53016 333 91103 91203;
0122067590999992010011421004+46200+008800FM-12+164899999V0201301N000519999999N9999999N1+99999+99999999999ADDMA1999999082441MD1110161+9999OA149900261REMSYN070AAXX  14214 06759 33/// /1301 1//// 2//// 38244 51016 333 91105 91204;
0122067590999992010011422004+46200+008800FM-12+164899999V0203301N001019999999N9999999N1+99999+99999999999ADDMA1999999082481MD1110141+9999OA149900211REMSYN070AAXX  14224 06759 33/// /3302 1//// 2//// 38248 51014 333 91104 91202;
0122067590999992010011423004+46200+008800FM-12+164899999V0203301N001019999999N9999999N1+99999+99999999999ADDMA1999999082501MD1110111+9999OA149900211REMSYN070AAXX  14234 06759 33/// /3302 1//// 2//// 38250 51011 333 91104 91203;
0122067590999992010011500004+46200+008800FM-12+164899999V0203101N001519999999N9999999N1+99999+99999999999ADDMA1999999082481MD1010041+9999OA149900261REMSYN070AAXX  15004 06759 33/// /3103 1//// 2//// 38248 50004 333 91105 91204;
0122067590999992010011501004+46200+008800FM-12+164899999V0203201N001519999999N9999999N1+99999+99999999999ADDMA1999999082481MD1010001+9999OA149900211REMSYN070AAXX  15014 06759 33/// /3203 1//// 2//// 38248 50000 333 91104 91204;
0122067590999992010011502004+46200+008800FM-12+164899999V0202901N001019999999N9999999N1+99999+99999999999ADDMA1999999082521MD1310021+9999OA149900211REMSYN070AAXX  15024 06759 33/// /2902 1//// 2//// 38252 53002 333 91104 91204;
0081067590999992010011503004+46200+008800FM-12+164899999V0203201N002119999999N9999999N1+99999+99999999999ADDMA1999999082551REMSYN054AAXX  15034 06759 33/// /3204 1//// 2//// 38255 5////;
0122067590999992010011504004+46200+008800FM-12+164899999V0203101N002119999999N9999999N1+99999+99999999999ADDMA1999999082561MD1210081+9999OA149900311REMSYN070AAXX  15044 06759 33/// /3104 1//// 2//// 38256 52008 333 91106 91204;
0122067590999992010011505004+46200+008800FM-12+164899999V0203301N001519999999N9999999N1+99999+99999999999ADDMA1999999082581MD1210061+9999OA149900311REMSYN070AAXX  15054 06759 33/// /3303 1//// 2//// 38258 52006 333 91106 91204;
0182067590999992010011506004+46200+008800FM-12+164899999V0203601N001019999999N9999999N1+99999+99999999999ADDAA124000091AL19900091GJ100009MA1999999082631MD1210081+9999OA149900311REMSYN082AAXX  15064 06759 33/// /3602 1//// 2//// 38263 52008 333 55000 70000 91106 91204;EQDQ01  00002PRCP24
0122067590999992010011507004+46200+008800FM-12+164899999V0203001N002119999999N9999999N1+99999+99999999999ADDMA1999999082721MD1310161+9999OA149900261REMSYN070AAXX  15074 06759 33/// /3004 1//// 2//// 38272 53016 333 91105 91204;
0137067590999992010011508004+46200+008800FM-12+164899999V0202501N002619999999N9999999N1-00421-00721999999ADDMA1999999082791MD1319999+9999ME1314549OA149900261REMSYN076AAXX  15084 06759 33/// /2505 11042 21072 38279 48454 53/// 333 91105 91205;
0137067590999992010011509004+46200+008800FM-12+164899999V0203001N001019999999N9999999N1-00391-00831999999ADDMA1999999082861MD1110231+9999ME1314609OA149900311REMSYN076AAXX  15094 06759 33/// /3002 11039 21083 38286 48460 51023 333 91106 91205;
0137067590999992010011510004+46200+008800FM-12+164899999V0203201N001019999999N9999999N1-00271-00781999999ADDMA1999999082921MD1110201+9999ME1314659OA149900311REMSYN076AAXX  15104 06759 33/// /3202 11027 21078 38292 48465 51020 333 91106 91204;
0137067590999992010011511004+46200+008800FM-12+164899999V0202301N001019999999N9999999N1-00261-00511999999ADDMA1999999082951MD1110161+9999ME1314689OA149900211REMSYN076AAXX  15114 06759 33/// /2302 11026 21051 38295 48468 51016 333 91104 91203;
0137067590999992010011512004+46200+008800FM-12+164899999V0203101N001519999999N9999999N1+00111-01091999999ADDMA1999999082931MD1210071+9999ME1314639OA149900511REMSYN076AAXX  15124 06759 33/// /3103 10011 21109 38293 48463 52007 333 91110 91205;
0137067590999992010011513004+46200+008800FM-12+164899999V0203301N002619999999N9999999N1+00091-00921999999ADDMA1999999082961MD1210041+9999ME1314679OA149900511REMSYN076AAXX  15134 06759 33/// /3305 10009 21092 38296 48467 52004 333 91110 91205;
0137067590999992010011514004+46200+008800FM-12+164899999V0203201N003119999999N9999999N1+00091-01201999999ADDMA1999999083001MD1310051+9999ME1314709OA149900511REMSYN076AAXX  15144 06759 33/// /3206 10009 21120 38300 48470 53005 333 91110 91207;
0137067590999992010011515004+46200+008800FM-12+164899999V0203201N003619999999N9999999N1+00021-01191999999ADDMA1999999083051MD1310121+9999ME1314769OA149900511REMSYN076AAXX  15154 06759 33/// /3207 10002 21119 38305 48476 53012 333 91110 91207;
0137067590999992010011516004+46200+008800FM-12+164899999V0203101N003119999999N9999999N1+00101-01441999999ADDMA1999999083131MD1310171+9999ME1314839OA149900571REMSYN076AAXX  15164 06759 33/// /3106 10010 21144 38313 48483 53017 333 91111 91207;
0137067590999992010011517004+46200+008800FM-12+164899999V0203501N004119999999N9999999N1+00081-01611999999ADDMA1999999083171MD1110171+9999ME1314879OA149900771REMSYN076AAXX  15174 06759 33/// /3508 10008 21161 38317 48487 51017 333 91115 91210;
0137067590999992010011518004+46200+008800FM-12+164899999V0200201N004619999999N9999999N1+00121-01861999999ADDMA1999999083211MD1110161+9999ME1314919OA149900881REMSYN076AAXX  15184 06759 33/// /0209 10012 21186 38321 48491 51016 333 91117 91211;
0137067590999992010011519004+46200+008800FM-12+164899999V0203501N005119999999N9999999N1+00071-01771999999ADDMA1999999083271MD1210141+9999ME1314979OA149900881REMSYN076AAXX  15194 06759 33/// /3510 10007 21177 38327 48497 52014 333 91117 91211;
0137067590999992010011520004+46200+008800FM-12+164899999V0203401N003119999999N9999999N1-00021-01591999999ADDMA1999999083291MD1110121+9999ME1314999OA149900771REMSYN076AAXX  15204 06759 33/// /3406 11002 21159 38329 48499 51012 333 91115 91210;
0137067590999992010011521004+46200+008800FM-12+164899999V0200101N001019999999N9999999N1-00031-01601999999ADDMA1999999083321MD1110111+9999ME1315029OA149900881REMSYN076AAXX  15214 06759 33/// /0102 11003 21160 38332 48502 51011 333 91117 91211;
0137067590999992010011522004+46200+008800FM-12+164899999V0200501N001019999999N9999999N1-00191-01241999999ADDMA1999999083361MD1310091+9999ME1315079OA149900511REMSYN076AAXX  15224 06759 33/// /0502 11019 21124 38336 48507 53009 333 91110 91208;
0137067590999992010011523004+46200+008800FM-12+164899999V0203201N001519999999N9999999N1-00151-01411999999ADDMA1999999083411MD1310121+9999ME1315129OA149900311REMSYN076AAXX  15234 06759 33/// /3203 11015 21141 38341 48512 53012 333 91106 91203;
0137067590999992010011600004+46200+008800FM-12+164899999V0202401N002119999999N9999999N1-00191-01251999999ADDMA1999999083401MD1210081+9999ME1315119OA149900881REMSYN076AAXX  16004 06759 33/// /2404 11019 21125 38340 48511 52008 333 91117 91211;
0137067590999992010011601004+46200+008800FM-12+164899999V0202501N001519999999N9999999N1-00151-01201999999ADDMA1999999083391MD1010031+9999ME1315109OA149900261REMSYN076AAXX  16014 06759 33/// /2503 11015 21120 38339 48510 50003 333 91105 91204;
0137067590999992010011602004+46200+008800FM-12+164899999V0201901N001019999999N9999999N1-00181-01171999999ADDMA1999999083401MD1710011+9999ME1315119OA149900311REMSYN076AAXX  16024 06759 33/// /1902 11018 21117 38340 48511 57001 333 91106 91204;
0137067590999992010011603004+46200+008800FM-12+164899999V0202801N001019999999N9999999N1-00321-01041999999ADDMA1999999083401MD1219999+9999ME1315129OA149900311REMSYN076AAXX  16034 06759 33/// /2802 11032 21104 38340 48512 52/// 333 91106 91204;
0137067590999992010011604004+46200+008800FM-12+164899999V0200301N001019999999N9999999N1-00171-01311999999ADDMA1999999083381MD1810011+9999ME1315099OA149900261REMSYN076AAXX  16044 06759 33/// /0302 11017 21131 38338 48509 58001 333 91105 91203;
0137067590999992010011605004+46200+008800FM-12+164899999V0201201N001019999999N9999999N1-00201-01281999999ADDMA1999999083361MD1710041+9999ME1315079OA149900211REMSYN076AAXX  16054 06759 33/// /1202 11020 21128 38336 48507 57004 333 91104 91203;
0216067590999992010011606004+46200+008800FM-12+164899999V0201801N000519999999N9999999N1-00191-01271999999ADDAA124000091AL19900091GJ103489KA1999N-00321MA1999999083381MD1710021+9999ME1315099OA149900771REMSYN094AAXX  16064 06759 33/// /1801 11019 21127 38338 48509 57002 333 21032 55058 70000 91115 91210;EQDQ01  00002PRCP24
0137067590999992010011607004+46200+008800FM-12+164899999V0203401N000519999999N9999999N1-00281-01281999999ADDMA1999999083411MD1310031+9999ME1315129OA149900211REMSYN076AAXX  16074 06759 33/// /3401 11028 21128 38341 48512 53003 333 91104 91203;
0137067590999992010011608004+46200+008800FM-12+164899999V0202501N000519999999N9999999N1-00311-01261999999ADDMA1999999083411MD1210051+9999ME1315139OA149900261REMSYN076AAXX  16084 06759 33/// /2501 11031 21126 38341 48513 52005 333 91105 91203;
0137067590999992010011609004+46200+008800FM-12+164899999V0202301N000519999999N9999999N1-00371-00801999999ADDMA1999999083421MD1210041+9999ME1315149OA149900261REMSYN076AAXX  16094 06759 33/// /2301 11037 21080 38342 48514 52004 333 91105 91203;
0137067590999992010011610004+46200+008800FM-12+164899999V0202301N000519999999N9999999N1-00311-00861999999ADDMA1999999083431MD1210021+9999ME1315149OA149900211REMSYN076AAXX  16104 06759 33/// /2301 11031 21086 38343 48514 52002 333 91104 91202;
0156067590999992010011611004+46200+008800FM-12+164899999V0209999C000019999999N9999999N1-00211-00701999999ADDMA1999999083411MD1410001+9999ME1315129OA149900211REMSYN076AAXX  16114 06759 33/// /0000 11021 21070 38341 48512 57000 333 91104 91202;EQDQ01+000072APCTEN
0137067590999992010011612004+46200+008800FM-12+164899999V0200701N000519999999N9999999N1-00271-01391999999ADDMA1999999083361MD1710061+9999ME1315089OA149900311REMSYN076AAXX  16124 06759 33/// /0701 11027 21139 38336 48508 57006 333 91106 91204;
0137067590999992010011613004+46200+008800FM-12+164899999V0200601N001019999999N9999999N1-00241-01341999999ADDMA1999999083331MD1710101+9999ME1315049OA149900151REMSYN076AAXX  16134 06759 33/// /0602 11024 21134 38333 48504 57010 333 91103 91202;
0137067590999992010011614004+46200+008800FM-12+164899999V0200401N000519999999N9999999N1-00311-00641999999ADDMA1999999083311MD1619999+9999ME1315039OA149900151REMSYN076AAXX  16144 06759 33/// /0401 11031 21064 38331 48503 56/// 333 91103 91202;
0137067590999992010011615004+46200+008800FM-12+164899999V0200601N000519999999N9999999N1-00301-01121999999ADDMA1999999083291MD1710071+9999ME1315019OA149900211REMSYN076AAXX  16154 06759 33/// /0601 11030 21112 38329 48501 57007 333 91104 91203;
0137067590999992010011616004+46200+008800FM-12+164899999V0200501N002619999999N9999999N1-00331-01001999999ADDMA1999999083301MD1510031+9999ME1315029OA149900261REMSYN076AAXX  16164 06759 33/// /0505 11033 21100 38330 48502 55003 333 91105 91205;
0137067590999992010011617004+46200+008800FM-12+164899999V0200701N002619999999N9999999N1-00301-01091999999ADDMA1999999083281MD1810031+9999ME1315009OA149900361REMSYN076AAXX  16174 06759 33/// /0705 11030 21109 38328 48500 58003 333 91107 91205;
0156067590999992010011618004+46200+008800FM-12+164899999V0200601N004119999999N9999999N1-00221-01161999999ADDKA1120M-00191MA1999999083311MD1310021+9999ME1315029OA149900571REMSYN082AAXX  16184 06759 33/// /0608 11022 21116 38331 48502 53002 333 11019 91111 91208;
0137067590999992010011619004+46200+008800FM-12+164899999V0200601N003119999999N9999999N1-00201-01141999999ADDMA1999999083301MD1010001+9999ME1315019OA149900621REMSYN076AAXX  16194 06759 33/// /0606 11020 21114 38330 48501 50000 333 91112 91210;
0137067590999992010011620004+46200+008800FM-12+164899999V0201501N000519999999N9999999N1-00191-01211999999ADDMA1999999083301MD1210021+9999ME1315019OA149900621REMSYN076AAXX  16204 06759 33/// /1501 11019 21121 38330 48501 52002 333 91112 91210;
0137067590999992010011621004+46200+008800FM-12+164899999V0202401N001019999999N9999999N1-00281-01231999999ADDMA1999999083261MD1710051+9999ME1314989OA149900621REMSYN076AAXX  16214 06759 33/// /2402 11028 21123 38326 48498 57005 333 91112 91210;
0137067590999992010011622004+46200+008800FM-12+164899999V0202901N002119999999N9999999N1-00351-01161999999ADDMA1999999083211MD1710091+9999ME1314949OA149900361REMSYN076AAXX  16224 06759 33/// /2904 11035 21116 38321 48494 57009 333 91107 91205;
0137067590999992010011623004+46200+008800FM-12+164899999V0200801N000519999999N9999999N1-00491-00871999999ADDMA1999999083161MD1710141+9999ME1314909OA149900361REMSYN076AAXX  16234 06759 33/// /0801 11049 21087 38316 48490 57014 333 91107 91205;
0137067590999992010011700004+46200+008800FM-12+164899999V0200501N000519999999N9999999N1-00411-01101999999ADDMA1999999083131MD1710131+9999ME1314869OA149900621REMSYN076AAXX  17004 06759 33/// /0501 11041 21110 38313 48486 57013 333 91112 91210;
0137067590999992010011701004+46200+008800FM-12+164899999V0203401N000519999999N9999999N1-00421-01041999999ADDMA1999999083161MD1710051+9999ME1314899OA149900261REMSYN076AAXX  17014 06759 33/// /3401 11042 21104 38316 48489 57005 333 91105 91203;
0137067590999992010011702004+46200+008800FM-12+164899999V0203101N003119999999N9999999N1-00511-00881999999ADDMA1999999083131MD1719999+9999ME1314879OA149900411REMSYN076AAXX  17024 06759 33/// /3106 11051 21088 38313 48487 57/// 333 91108 91206;
0096067590999992010011703004+46200+008800FM-12+164899999V0200301N003119999999N9999999N1-00581-00931999999ADDMA1999999083071ME1314829REMSYN060AAXX  17034 06759 43/// /0306 11058 21093 38307 48482 5////;
0137067590999992010011704004+46200+008800FM-12+164899999V0202101N001519999999N9999999N1-00521-00931999999ADDMA1999999083011MD1710151+9999ME1314769OA149900571REMSYN076AAXX  17044 06759 33/// /2103 11052 21093 38301 48476 57015 333 91111 91208;
0137067590999992010011705004+46200+008800FM-12+164899999V0203101N003119999999N9999999N1-00421-00991999999ADDMA1999999083001MD1719999+9999ME1314749OA149900571REMSYN076AAXX  17054 06759 33/// /3106 11042 21099 38300 48474 57/// 333 91111 91208;
0216067590999992010011706004+46200+008800FM-12+164899999V0203301N001019999999N9999999N1-00611-00951999999ADDAA124000091AL19900091GJ103069KA1999N-00691MA1999999082971MD1710101+9999ME1314739OA149900621REMSYN094AAXX  17064 06759 33/// /3302 11061 21095 38297 48473 57010 333 21069 55051 70000 91112 91210;EQDQ01  00002PRCP24
0137067590999992010011707004+46200+008800FM-12+164899999V0203101N001019999999N9999999N1-00481-00981999999ADDMA1999999082971MD1710041+9999ME1314729OA149900461REMSYN076AAXX  17074 06759 33/// /3102 11048 21098 38297 48472 57004 333 91109 91206;
0137067590999992010011708004+46200+008800FM-12+164899999V0203101N004619999999N9999999N1-00451-00931999999ADDMA1999999082981MD1519999+9999ME1314729OA149900621REMSYN076AAXX  17084 06759 33/// /3109 11045 21093 38298 48472 55/// 333 91112 91209;
0137067590999992010011709004+46200+008800FM-12+164899999V0203301N002619999999N9999999N1-00321-00961999999ADDMA1999999083021MD1210051+9999ME1314759OA149900621REMSYN076AAXX  17094 06759 33/// /3305 11032 21096 38302 48475 52005 333 91112 91209;
0137067590999992010011710004+46200+008800FM-12+164899999V0200501N001019999999N9999999N1-00401-01011999999ADDMA1999999083031MD1210061+9999ME1314779OA149900511REMSYN076AAXX  17104 06759 33/// /0502 11040 21101 38303 48477 52006 333 91110 91208;
0137067590999992010011711004+46200+008800FM-12+164899999V0209999C000019999999N9999999N1-00261-00841999999ADDMA1999999083031MD1210051+9999ME1314769OA149900361REMSYN076AAXX  17114 06759 33/// /0000 11026 21084 38303 48476 52005 333 91107 91203;
0156067590999992010011712004+46200+008800FM-12+164899999V0209999C000019999999N9999999N1-00281-00811999999ADDMA1999999083021MD1410001+9999ME1314759OA149900621REMSYN076AAXX  17124 06759 33/// /0000 11028 21081 38302 48475 58000 333 91112 91209;EQDQ01+000082APCTEN
0137067590999992010011713004+46200+008800FM-12+164899999V0203401N002119999999N9999999N1-00061-00661999999ADDMA1999999082991MD1710041+9999ME1314719OA149900461REMSYN076AAXX  17134 06759 33/// /3404 11006 21066 38299 48471 57004 333 91109 91204;
0137067590999992010011714004+46200+008800FM-12+164899999V0203501N002619999999N9999999N1+00061-00731999999ADDMA1999999083001MD1719999+9999ME1314719OA149900671REMSYN076AAXX  17144 06759 33/// /3505 10006 21073 38300 48471 57/// 333 91113 91205;
0137067590999992010011715004+46200+008800FM-12+164899999V0203201N003119999999N9999999N1+00131-00971999999ADDMA1999999083051MD1310031+9999ME1314759OA149900671REMSYN076AAXX  17154 06759 33/// /3206 10013 21097 38305 48475 53003 333 91113 91206;
0137067590999992010011716004+46200+008800FM-12+164899999V0200201N005119999999N9999999N1-00081-00901999999ADDMA1999999083091MD1210101+9999ME1314809OA149901031REMSYN076AAXX  17164 06759 33/// /0210 11008 21090 38309 48480 52010 333 91120 91210;
0137067590999992010011717004+46200+008800FM-12+164899999V0203501N003619999999N9999999N1+00021-01081999999ADDMA1999999083181MD1310181+9999ME1314889OA149901031REMSYN076AAXX  17174 06759 33/// /3507 10002 21108 38318 48488 53018 333 91120 91211;
0156067590999992010011718004+46200+008800FM-12+164899999V0200501N002619999999N9999999N1-00081-01251999999ADDKA1120M+00131MA1999999083211MD1110161+9999ME1314929OA149901031REMSYN082AAXX  17184 06759 33/// /0505 11008 21125 38321 48492 51016 333 10013 91120 91211;
0137067590999992010011719004+46200+008800FM-12+164899999V0200201N004619999999N9999999N1-00101-01381999999ADDMA1999999083251MD1210161+9999ME1314969OA149901031REMSYN076AAXX  17194 06759 33/// /0209 11010 21138 38325 48496 52016 333 91120 91213;
0137067590999992010011720004+46200+008800FM-12+164899999V0200301N004119999999N9999999N1-00081-01441999999ADDMA1999999083271MD1210091+9999ME1314989OA149901131REMSYN076AAXX  17204 06759 33/// /0308 11008 21144 38327 48498 52009 333 91122 91213;
0137067590999992010011721004+46200+008800FM-12+164899999V0200301N003619999999N9999999N1-00271-01291999999ADDMA1999999083281MD1210071+9999ME1315009OA149901131REMSYN076AAXX  17214 06759 33/// /0307 11027 21129 38328 48500 52007 333 91122 91213;
0137067590999992010011722004+46200+008800FM-12+164899999V0203601N003619999999N9999999N1-00241-01291999999ADDMA1999999083301MD1210051+9999ME1315029OA149900981REMSYN076AAXX  17224 06759 33/// /3607 11024 21129 38330 48502 52005 333 91119 91208;
0137067590999992010011723004+46200+008800FM-12+164899999V0200301N006219999999N9999999N1-00151-01401999999ADDMA1999999083321MD1210051+9999ME1315039OA149901031REMSYN076AAXX  17234 06759 33/// /0312 11015 21140 38332 48503 52005 333 91120 91212;
0137067590999992010011800004+46200+008800FM-12+164899999V0209999C003619999999N9999999N1-00191-01361999999ADDMA1999999083331MD1210051+9999ME1315049OA149901181REMSYN076AAXX  18004 06759 33/// /0007 11019 21136 38333 48504 52005 333 91123 91213;
0137067590999992010011801004+46200+008800FM-12+164899999V0200101N004619999999N9999999N1-00251-01381999999ADDMA1999999083341MD1210041+9999ME1315059OA149901181REMSYN076AAXX  18014 06759 33/// /0109 11025 21138 38334 48505 52004 333 91123 91211;
0096067590999992010011802004+46200+008800FM-12+164899999V0203501N006219999999N9999999N1-00251-01381999999ADDMA1999999083351ME1315069REMSYN060AAXX  18024 06759 33/// /3512 11025 21138 38335 48506 5////;
