0149067510999992011010100004+46450+008517FM-12+189899999V0200401N000519999999N9999999N1-00421-01731999999ADDMA1999999080821MD1810021+9999ME1314969OA149900511REMSYN088AAXX  01004 06751 33/// /0401 11042 21173 38082 48496 58002 333 55300 20000 91110 91204;
0149067510999992011010101004+46450+008517FM-12+189899999V0203601N000519999999N9999999N1-00211-01951999999ADDMA1999999080781MD1710071+9999ME1314899OA149900311REMSYN088AAXX  01014 06751 33/// /3601 11021 21195 38078 48489 57007 333 55300 20000 91106 91202;
0149067510999992011010102004+46450+008517FM-12+189899999V0200101N000519999999N9999999N1-00361-01841999999ADDMA1999999080791MD1710061+9999ME1314939OA149900411REMSYN088AAXX  01024 06751 33/// /0101 11036 21184 38079 48493 57006 333 55300 20000 91108 91202;
0149067510999992011010103004+46450+008517FM-12+189899999V0201901N000519999999N9999999N1-00421-01751999999ADDMA1999999080781MD1710041+9999ME1314939OA149900621REMSYN088AAXX  01034 06751 33/// /1901 11042 21175 38078 48493 57004 333 55300 20000 91112 91204;
0149067510999992011010104004+46450+008517FM-12+189899999V0202501N001519999999N9999999N1-00311-02101999999ADDMA1999999080741MD1810041+9999ME1314879OA149900621REMSYN088AAXX  01044 06751 33/// /2503 11031 21210 38074 48487 58004 333 55300 20000 91112 91204;
0149067510999992011010105004+46450+008517FM-12+189899999V0202701N002119999999N9999999N1-00381-01791999999ADDMA1999999080711MD1810081+9999ME1314859OA149900621REMSYN088AAXX  01054 06751 33/// /2704 11038 21179 38071 48485 58008 333 55300 20000 91112 91205;
0216067510999992011010106004+46450+008517FM-12+189899999V0202901N001019999999N9999999N1-00371-01461999999ADDAL19900091GJ102949IA2999+00009KA1999N-00421MA1999999080691MD1610091+9999ME1314839OA149900621REMSYN112AAXX  01064 06751 33/// /2902 11037 21146 38069 48483 56009 333 21042 3/100 55049 55300 20000 70000 91112 91205;
0149067510999992011010107004+46450+008517FM-12+189899999V0203401N000519999999N9999999N1-00241-01811999999ADDMA1999999080681MD1610061+9999ME1314809OA149900571REMSYN088AAXX  01074 06751 33/// /3401 11024 21181 38068 48480 56006 333 55300 20000 91111 91204;
0149067510999992011010108004+46450+008517FM-12+189899999V0202901N001519999999N9999999N1-00271-02241999999ADDMA1999999080671MD1719999+9999ME1314799OA149900571REMSYN088AAXX  01084 06751 33/// /2903 11027 21224 38067 48479 57/// 333 55300 20029 91111 91203;
0096067510999992011010109004+46450+008517FM-12+189899999V0203001N001519999999N9999999N1-00161-01751999999ADDMA1999999080671ME1314789REMSYN060AAXX  01094 06751 43/// /3003 11016 21175 38067 48478 5////;
0096067510999992011010110004+46450+008517FM-12+189899999V0203601N000519999999N9999999N1+00071-01681999999ADDMA1999999080641ME1314719REMSYN060AAXX  01104 06751 43/// /3601 10007 21168 38064 48471 5////;
0149067510999992011010111004+46450+008517FM-12+189899999V0203101N000519999999N9999999N1+00101-01691999999ADDMA1999999080601MD1810071+9999ME1314669OA149900461REMSYN088AAXX  01114 06751 33/// /3101 10010 21169 38060 48466 58007 333 553// 2//// 91109 91202;
0096067510999992011010112004+46450+008517FM-12+189899999V0202501N001019999999N9999999N1+00081-01561999999ADDMA1999999080561ME1314639REMSYN060AAXX  01124 06751 43/// /2502 10008 21156 38056 48463 5////;
0096067510999992011010113004+46450+008517FM-12+189899999V0203301N005719999999N9999999N1+00311-01881999999ADDMA1999999080531ME1314569REMSYN060AAXX  01134 06751 43/// /3311 10031 21188 38053 48456 5////;
0096067510999992011010114004+46450+008517FM-12+189899999V0200101N005719999999N9999999N1+00241-01771999999ADDMA1999999080501ME1314549REMSYN060AAXX  01144 06751 43/// /0111 10024 21177 38050 48454 5////;
0096067510999992011010115004+46450+008517FM-12+189899999V0200101N006719999999N9999999N1+00181-01761999999ADDMA1999999080501ME1314559REMSYN060AAXX  01154 06751 43/// /0113 10018 21176 38050 48455 5////;
0096067510999992011010116004+46450+008517FM-12+189899999V0200301N005119999999N9999999N1+00161-01581999999ADDMA1999999080481ME1314539REMSYN060AAXX  01164 06751 43/// /0310 10016 21158 38048 48453 5////;
0096067510999992011010117004+46450+008517FM-12+189899999V0200301N001519999999N9999999N1+00131-01481999999ADDMA1999999080441ME1314509REMSYN060AAXX  01174 06751 43/// /0303 10013 21148 38044 48450 5////;
0096067510999992011010118004+46450+008517FM-12+189899999V0203301N002119999999N9999999N1+00151-01311999999ADDMA1999999080411ME1314469REMSYN060AAXX  01184 06751 43/// /3304 10015 21131 38041 48446 5////;
0112067510999992011010119004+46450+008517FM-12+189899999V0200301N006219999999N9999999N1+00121-01401999999ADDMA1999999080411ME1314479REMSYN076AAXX  01194 06751 33/// /0312 10012 21140 38041 48447 5//// 333 553// 20000;
0149067510999992011010120004+46450+008517FM-12+189899999V0202901N001519999999N9999999N1+00001-01271999999ADDMA1999999080381MD1710061+9999ME1314469OA149901081REMSYN088AAXX  01204 06751 33/// /2903 10000 21127 38038 48446 57006 333 55300 20000 91121 91213;
0149067510999992011010121004+46450+008517FM-12+189899999V0200301N004619999999N9999999N1+00151-01331999999ADDMA1999999080371MD1710041+9999ME1314429OA149901081REMSYN088AAXX  01214 06751 33/// /0309 10015 21133 38037 48442 57004 333 55300 20000 91121 91213;
0149067510999992011010122004+46450+008517FM-12+189899999V0200201N004619999999N9999999N1+00101-01341999999ADDMA1999999080361MD1710051+9999ME1314429OA149901031REMSYN088AAXX  01224 06751 33/// /0209 10010 21134 38036 48442 57005 333 55300 20000 91120 91211;
0149067510999992011010123004+46450+008517FM-12+189899999V0203301N001519999999N9999999N1+00011-01301999999ADDMA1999999080331MD1710051+9999ME1314419OA149901031REMSYN088AAXX  01234 06751 33/// /3303 10001 21130 38033 48441 57005 333 55300 20000 91120 91211;
0149067510999992011010200004+46450+008517FM-12+189899999V0203301N001519999999N9999999N1-00071-01221999999ADDMA1999999080281MD1710091+9999ME1314379OA149901131REMSYN088AAXX  02004 06751 33/// /3303 11007 21122 38028 48437 57009 333 55300 20000 91122 91213;
0149067510999992011010201004+46450+008517FM-12+189899999V0202901N001019999999N9999999N1+00071-01251999999ADDMA1999999080231MD1810131+9999ME1314299OA149900821REMSYN088AAXX  02014 06751 33/// /2902 10007 21125 38023 48429 58013 333 55300 20000 91116 91207;
0096067510999992011010202004+46450+008517FM-12+189899999V0203401N002119999999N9999999N1+00081-01311999999ADDMA1999999080231ME1314299REMSYN060AAXX  02024 06751 43/// /3404 10008 21131 38023 48429 5////;
0096067510999992011010203004+46450+008517FM-12+189899999V0203201N002619999999N9999999N1-00011-01331999999ADDMA1999999080211ME1314299REMSYN060AAXX  02034 06751 43/// /3205 11001 21133 38021 48429 5////;
0096067510999992011010204004+46450+008517FM-12+189899999V0202301N000519999999N9999999N1+00051-01401999999ADDMA1999999080161ME1314239REMSYN060AAXX  02044 06751 43/// /2301 10005 21140 38016 48423 5////;
0096067510999992011010205004+46450+008517FM-12+189899999V0202901N001019999999N9999999N1-00081-01501999999ADDMA1999999080141ME1314239REMSYN060AAXX  02054 06751 43/// /2902 11008 21150 38014 48423 5////;
0143067510999992011010206004+46450+008517FM-12+189899999V0200201N001019999999N9999999N1+00051-01461999999ADDIA2999+00009KA1999N-00161MA1999999080151ME1314229REMSYN082AAXX  02064 06751 43/// /0202 10005 21146 38015 48422 5//// 333 21016 3/100 55049;
0149067510999992011010207004+46450+008517FM-12+189899999V0209999C004619999999N9999999N1+00041-01431999999ADDMA1999999080131MD1710031+9999ME1314209OA149901391REMSYN088AAXX  02074 06751 33/// /0009 10004 21143 38013 48420 57003 333 55300 20000 91127 91209;
0149067510999992011010208004+46450+008517FM-12+189899999V0209999C006719999999N9999999N1+00101-01501999999ADDMA1999999080151MD1210011+9999ME1314219OA149901541REMSYN088AAXX  02084 06751 33/// /0013 10010 21150 38015 48421 52001 333 55300 20025 91130 91214;
0149067510999992011010209004+46450+008517FM-12+189899999V0203501N007219999999N9999999N1+00101-01491999999ADDMA1999999080191MD1210041+9999ME1314259OA149901541REMSYN088AAXX  02094 06751 33/// /3514 10010 21149 38019 48425 52004 333 55302 20277 91130 91214;
0149067510999992011010210004+46450+008517FM-12+189899999V0203501N004619999999N9999999N1+00181-01581999999ADDMA1999999080211MD1210081+9999ME1314269OA149901441REMSYN088AAXX  02104 06751 33/// /3509 10018 21158 38021 48426 52008 333 553// 2//// 91128 91214;
0149067510999992011010211004+46450+008517FM-12+189899999V0203301N001519999999N9999999N1+00231-01731999999ADDMA1999999080171MD1010021+9999ME1314219OA149901441REMSYN088AAXX  02114 06751 33/// /3303 10023 21173 38017 48421 50002 333 553// 2//// 91128 91214;
0149067510999992011010212004+46450+008517FM-12+189899999V0201901N001019999999N9999999N1-00031-01141999999ADDMA1999999080121MD1710071+9999ME1314209OA149901541REMSYN088AAXX  02124 06751 33/// /1902 11003 21114 38012 48420 57007 333 553// 2//// 91130 91214;
0149067510999992011010213004+46450+008517FM-12+189899999V0200101N003619999999N9999999N1+00171-01921999999ADDMA1999999080111MD1710101+9999ME1314159OA149900881REMSYN088AAXX  02134 06751 33/// /0107 10017 21192 38011 48415 57010 333 553// 2//// 91117 91209;
0112067510999992011010214004+46450+008517FM-12+189899999V0200101N005719999999N9999999N1+00021-01781999999ADDMA1999999080121ME1314199REMSYN076AAXX  02144 06751 33/// /0111 10002 21178 38012 48419 5//// 333 553// 20817;
0149067510999992011010215004+46450+008517FM-12+189899999V0200101N005119999999N9999999N1-00121-01761999999ADDMA1999999080161MD1310041+9999ME1314269OA149901441REMSYN088AAXX  02154 06751 33/// /0110 11012 21176 38016 48426 53004 333 55300 20090 91128 91214;
0149067510999992011010216004+46450+008517FM-12+189899999V0209999C004119999999N9999999N1-00161-01781999999ADDMA1999999080191MD1310081+9999ME1314299OA149900981REMSYN088AAXX  02164 06751 33/// /0008 11016 21178 38019 48429 53008 333 55300 20018 91119 91212;
0149067510999992011010217004+46450+008517FM-12+189899999V0209999C007719999999N9999999N1-00371-01611999999ADDMA1999999080251MD1310131+9999ME1314399OA149901341REMSYN088AAXX  02174 06751 33/// /0015 11037 21161 38025 48439 53013 333 55300 20000 91126 91215;
0168067510999992011010218004+46450+008517FM-12+189899999V0203501N005719999999N9999999N1-00371-01801999999ADDKA1120M+00241MA1999999080271MD1210111+9999ME1314419OA149901541REMSYN094AAXX  02184 06751 33/// /3511 11037 21180 38027 48441 52011 333 10024 55300 20000 91130 91215;
0149067510999992011010219004+46450+008517FM-12+189899999V0203601N004619999999N9999999N1-00341-02221999999ADDMA1999999080291MD1210101+9999ME1314439OA149901181REMSYN088AAXX  02194 06751 33/// /3609 11034 21222 38029 48443 52010 333 55300 20000 91123 91214;
0149067510999992011010220004+46450+008517FM-12+189899999V0203301N000519999999N9999999N1-00841-01182999999ADDMA1999999080321MD1210071+9999ME1314549OA149901081REMSYN088AAXX  02204 06751 33/// /3301 11084 21118 38032 48454 52007 333 55300 20000 91121 91214;
0149067510999992011010221004+46450+008517FM-12+189899999V0202901N000519999999N9999999N1-00741-01881999999ADDMA1999999080381MD1210111+9999ME1314589OA149901341REMSYN088AAXX  02214 06751 33/// /2901 11074 21188 38038 48458 52011 333 55300 20000 91126 91215;
0149067510999992011010222004+46450+008517FM-12+189899999V0202801N000519999999N9999999N1-00811-01171999999ADDMA1999999080361MD1210071+9999ME1314589OA149900261REMSYN088AAXX  02224 06751 33/// /2801 11081 21117 38036 48458 52007 333 55300 20000 91105 91201;
0149067510999992011010223004+46450+008517FM-12+189899999V0200101N000519999999N9999999N1-00841-01301999999ADDMA1999999080391MD1210071+9999ME1314619OA149900361REMSYN088AAXX  02234 06751 33/// /0101 11084 21130 38039 48461 52007 333 55300 20000 91107 91201;
0149067510999992011010300004+46450+008517FM-12+189899999V0203601N000519999999N9999999N1-00901-01811999999ADDMA1999999080371MD1810011+9999ME1314609OA149901341REMSYN088AAXX  03004 06751 33/// /3601 11090 21181 38037 48460 58001 333 55300 20000 91126 91215;
0149067510999992011010301004+46450+008517FM-12+189899999V0209999C000019999999N9999999N1-00801-01501999999ADDMA1999999080351MD1710011+9999ME1314569OA149900261REMSYN088AAXX  03014 06751 33/// /0000 11080 21150 38035 48456 57001 333 55300 20000 91105 91201;
0149067510999992011010302004+46450+008517FM-12+189899999V0203301N000519999999N9999999N1-00991-02091999999ADDMA1999999080361MD1719999+9999ME1314619OA149900261REMSYN088AAXX  03024 06751 33/// /3301 11099 21209 38036 48461 57/// 333 55300 20000 91105 91201;
0096067510999992011010303004+46450+008517FM-12+189899999V0203401N000519999999N9999999N1-01011-02071999999ADDMA1999999080351ME1314609REMSYN060AAXX  03034 06751 43/// /3401 11101 21207 38035 48460 5////;
0184067510999992011010304004+46450+008517FM-12+189899999V0203401N003119999999N9999999N1-00431+99999999999ADDMA1999999080351MD1410001+9999ME1314509OA149900571REMSYN088AAXX  03044 06751 33/// /3406 11043 21371 38035 48450 54000 333 55300 20000 91111 91208;EQDQ01-003713ATOD  Q02 -03713ATOD  
0149067510999992011010305004+46450+008517FM-12+189899999V0201301N000519999999N9999999N1-00821-02311999999ADDMA1999999080351MD1710011+9999ME1314579OA149900571REMSYN088AAXX  03054 06751 33/// /1301 11082 21231 38035 48457 57001 333 55300 20000 91111 91208;
0216067510999992011010306004+46450+008517FM-12+189899999V0203601N001019999999N9999999N1-00631-02881999999ADDAL19900091GJ103009IA2999+00009KA1999N-01081MA1999999080391MD1210041+9999ME1314579OA149901081REMSYN112AAXX  03064 06751 33/// /3602 11063 21288 38039 48457 52004 333 21108 3/100 55050 55300 20000 70000 91121 91214;
0149067510999992011010307004+46450+008517FM-12+189899999V0209999C000019999999N9999999N1-00901-02951999999ADDMA1999999080401MD1210051+9999ME1314639OA149900461REMSYN088AAXX  03074 06751 33/// /0000 11090 21295 38040 48463 52005 333 55300 20000 91109 91203;
0149067510999992011010308004+46450+008517FM-12+189899999V0203301N000519999999N9999999N1-00901-01931999999ADDMA1999999080461MD1219999+9999ME1314699OA149900461REMSYN088AAXX  03084 06751 33/// /3301 11090 21193 38046 48469 52/// 333 55300 20029 91109 91203;
0112067510999992011010309004+46450+008517FM-12+189899999V0202901N000519999999N9999999N1-01031-01511999999ADDMA1999999080491ME1314749REMSYN076AAXX  03094 06751 33/// /2901 11103 21151 38049 48474 5//// 333 553// 20299;
0149067510999992011010310004+46450+008517FM-12+189899999V0202501N000519999999N9999999N1-00991-01271999999ADDMA1999999080561MD1210161+9999ME1314809OA149900151REMSYN088AAXX  03104 06751 33/// /2501 11099 21127 38056 48480 52016 333 55306 20914 91103 91201;
0149067510999992011010311004+46450+008517FM-12+189899999V0203001N000519999999N9999999N1-00951-01191999999ADDMA1999999080571MD1110111+9999ME1314809OA149900211REMSYN088AAXX  03114 06751 33/// /3001 11095 21119 38057 48480 51011 333 55300 20774 91104 91202;
0149067510999992011010312004+46450+008517FM-12+189899999V0203301N000519999999N9999999N1-00891-01221999999ADDMA1999999080541MD1010051+9999ME1314769OA149900571REMSYN088AAXX  03124 06751 33/// /3301 11089 21122 38054 48476 50005 333 55300 20781 91111 91208;
0149067510999992011010313004+46450+008517FM-12+189899999V0202501N002619999999N9999999N1-00941-01291999999ADDMA1999999080491MD1710071+9999ME1314729OA149900461REMSYN088AAXX  03134 06751 33/// /2505 11094 21129 38049 48472 57007 333 55305 2//// 91109 91206;
0112067510999992011010314004+46450+008517FM-12+189899999V0202601N002119999999N9999999N1-00961-01351999999ADDMA1999999080481ME1314729REMSYN076AAXX  03144 06751 33/// /2604 11096 21135 38048 48472 5//// 333 553// 20860;
0112067510999992011010315004+46450+008517FM-12+189899999V0202801N001519999999N9999999N1-01051-01811999999ADDMA1999999080491ME1314749REMSYN076AAXX  03154 06751 33/// /2803 11105 21181 38049 48474 5//// 333 553// 20104;
0149067510999992011010316004+46450+008517FM-12+189899999V0202701N002119999999N9999999N1-01071-01521999999ADDMA1999999080481MD1010011+9999ME1314749OA149900571REMSYN088AAXX  03164 06751 33/// /2704 11107 21152 38048 48474 50001 333 55300 20025 91111 91206;
0149067510999992011010317004+46450+008517FM-12+189899999V0202801N001019999999N9999999N1-01131-01421999999ADDMA1999999080501MD1210021+9999ME1314769OA149900571REMSYN088AAXX  03174 06751 33/// /2802 11113 21142 38050 48476 52002 333 55300 20000 91111 91206;
0168067510999992011010318004+46450+008517FM-12+189899999V0202901N000519999999N9999999N1-01191-01501999999ADDKA1120M-00511MA1999999080521MD1210031+9999ME1314799OA149900571REMSYN094AAXX  03184 06751 33/// /2901 11119 21150 38052 48479 52003 333 11051 55300 20000 91111 91206;
0149067510999992011010319004+46450+008517FM-12+189899999V0202901N000519999999N9999999N1-01191-01841999999ADDMA1999999080541MD1210061+9999ME1314819OA149900411REMSYN088AAXX  03194 06751 33/// /2901 11119 21184 38054 48481 52006 333 55300 20000 91108 91203;
0149067510999992011010320004+46450+008517FM-12+189899999V0202901N002119999999N9999999N1-01161-01281999999ADDMA1999999080541MD1210041+9999ME1314819OA149900511REMSYN088AAXX  03204 06751 33/// /2904 11116 21128 38054 48481 52004 333 55300 20000 91110 91205;
0149067510999992011010321004+46450+008517FM-12+189899999V0202601N003119999999N9999999N1-01171-01321999999ADDMA1999999080561MD1210041+9999ME1314839OA149900571REMSYN088AAXX  03214 06751 33/// /2606 11117 21132 38056 48483 52004 333 55300 20000 91111 91207;
0149067510999992011010322004+46450+008517FM-12+189899999V0202801N002119999999N9999999N1-01191-01361999999ADDMA1999999080571MD1210031+9999ME1314849OA149900571REMSYN088AAXX  03224 06751 33/// /2804 11119 21136 38057 48484 52003 333 55300 20000 91111 91207;
0149067510999992011010323004+46450+008517FM-12+189899999V0202501N003119999999N9999999N1-01211-01421999999ADDMA1999999080561MD1010021+9999ME1314839OA149900511REMSYN088AAXX  03234 06751 33/// /2506 11121 21142 38056 48483 50002 333 55300 20000 91110 91207;
0149067510999992011010400004+46450+008517FM-12+189899999V0202501N003119999999N9999999N1-01211-01841999999ADDMA1999999080541MD1710021+9999ME1314829OA149900571REMSYN088AAXX  04004 06751 33/// /2506 11121 21184 38054 48482 57002 333 55300 20000 91111 91207;
0149067510999992011010401004+46450+008517FM-12+189899999V0203101N001519999999N9999999N1-01231-01881999999ADDMA1999999080521MD1710051+9999ME1314809OA149900571REMSYN088AAXX  04014 06751 33/// /3103 11123 21188 38052 48480 57005 333 55300 20000 91111 91207;
0149067510999992011010402004+46450+008517FM-12+189899999V0202901N000519999999N9999999N1-01231-01421999999ADDMA1999999080481MD1719999+9999ME1314769OA149900461REMSYN088AAXX  04024 06751 33/// /2901 11123 21142 38048 48476 57/// 333 55300 20000 91109 91206;
0149067510999992011010403004+46450+008517FM-12+189899999V0202501N002119999999N9999999N1-01231-02041999999ADDMA1999999080451MD1710091+9999ME1314739OA149900571REMSYN088AAXX  04034 06751 33/// /2504 11123 21204 38045 48473 57009 333 55300 20000 91111 91207;
0149067510999992011010404004+46450+008517FM-12+189899999V0202501N002619999999N9999999N1-01221-01421999999ADDMA1999999080391MD1710131+9999ME1314679OA149900461REMSYN088AAXX  04044 06751 33/// /2505 11122 21142 38039 48467 57013 333 55300 20000 91109 91206;
0149067510999992011010405004+46450+008517FM-12+189899999V0202601N001519999999N9999999N1-01181-01401999999ADDMA1999999080351MD1710131+9999ME1314639OA149900461REMSYN088AAXX  04054 06751 33/// /2603 11118 21140 38035 48463 57013 333 55300 20000 91109 91205;
0216067510999992011010406004+46450+008517FM-12+189899999V0202501N002119999999N9999999N1-01211-01431999999ADDAL19900091GJ101329IA2999+00009KA1999N-01281MA1999999080321MD1710131+9999ME1314609OA149900571REMSYN112AAXX  04064 06751 33/// /2504 11121 21143 38032 48460 57013 333 21128 3/100 55022 55300 20000 70000 91111 91207;
0149067510999992011010407004+46450+008517FM-12+189899999V0202501N002119999999N9999999N1-01231-02181999999ADDMA1999999080321MD1710071+9999ME1314619OA149900571REMSYN088AAXX  04074 06751 33/// /2504 11123 21218 38032 48461 57007 333 55300 20000 91111 91205;
0149067510999992011010408004+46450+008517FM-12+189899999V0202501N001519999999N9999999N1-01191-01421999999ADDMA1999999080351MD1519999+9999ME1314639OA149900461REMSYN088AAXX  04084 06751 33/// /2503 11119 21142 38035 48463 55/// 333 55300 20018 91109 91205;
0112067510999992011010409004+46450+008517FM-12+189899999V0202601N001019999999N9999999N1-01151-01851999999ADDMA1999999080361ME1314639REMSYN076AAXX  04094 06751 33/// /2602 11115 21185 38036 48463 5//// 333 553// 20115;
0149067510999992011010410004+46450+008517FM-12+189899999V0202501N001519999999N9999999N1-01161-01861999999ADDMA1999999080381MD1210061+9999ME1314659OA149900311REMSYN088AAXX  04104 06751 33/// /2503 11116 21186 38038 48465 52006 333 55300 20504 91106 91204;
0168067510999992011010411004+46450+008517FM-12+189899999V0203101N001019999999N9999999N1-01121-01411999999ADDMA1999999080351MD1410001+9999ME1314629OA149900311REMSYN088AAXX  04114 06751 33/// /3102 11112 21141 38035 48462 58000 333 55300 20554 91106 91203;EQDQ01+000082APCTEN
0149067510999992011010412004+46450+008517FM-12+189899999V0202601N001019999999N9999999N1-01121-02041999999ADDMA1999999080291MD1810071+9999ME1314569OA149900571REMSYN088AAXX  04124 06751 33/// /2602 11112 21204 38029 48456 58007 333 55300 20475 91111 91206;
0149067510999992011010413004+46450+008517FM-12+189899999V0202501N001519999999N9999999N1-01131-01991999999ADDMA1999999080251MD1710131+9999ME1314529OA149900361REMSYN088AAXX  04134 06751 33/// /2503 11113 21199 38025 48452 57013 333 55300 20652 91107 91204;
0112067510999992011010414004+46450+008517FM-12+189899999V0202401N000519999999N9999999N1-01151-01441999999ADDMA1999999080231ME1314519REMSYN076AAXX  04144 06751 33/// /2401 11115 21144 38023 48451 5//// 333 553// 20551;
0096067510999992011010415004+46450+008517FM-12+189899999V0202501N003619999999N9999999N1-01211-01801999999ADDMA1999999080221ME1314519REMSYN060AAXX  04154 06751 43/// /2507 11121 21180 38022 48451 5////;
0149067510999992011010416004+46450+008517FM-12+189899999V0202801N001519999999N9999999N1-01271-02061999999ADDMA1999999080241MD1510011+9999ME1314549OA149900571REMSYN088AAXX  04164 06751 33/// /2803 11127 21206 38024 48454 55001 333 55300 20029 91111 91207;
0149067510999992011010417004+46450+008517FM-12+189899999V0202601N001519999999N9999999N1-01311-01621999999ADDMA1999999080231MD1010001+9999ME1314539OA149900511REMSYN088AAXX  04174 06751 33/// /2603 11131 21162 38023 48453 50000 333 55300 20000 91110 91207;
0168067510999992011010418004+46450+008517FM-12+189899999V0203201N001019999999N9999999N1-01211-02051999999ADDKA1120M-01101MA1999999080241MD1010021+9999ME1314539OA149900571REMSYN094AAXX  04184 06751 33/// /3202 11121 21205 38024 48453 50002 333 11110 55300 20000 91111 91207;
0149067510999992011010419004+46450+008517FM-12+189899999V0202401N002119999999N9999999N1-01261-01641999999ADDMA1999999080281MD1310041+9999ME1314579OA149900571REMSYN088AAXX  04194 06751 33/// /2404 11126 21164 38028 48457 53004 333 55300 20000 91111 91205;
0149067510999992011010420004+46450+008517FM-12+189899999V0202901N001519999999N9999999N1-01261-01621999999ADDMA1999999080291MD1210061+9999ME1314589OA149900571REMSYN088AAXX  04204 06751 33/// /2903 11126 21162 38029 48458 52006 333 55300 20000 91111 91207;
0149067510999992011010421004+46450+008517FM-12+189899999V0202701N002119999999N9999999N1-01251-01291999999ADDMA1999999080281MD1210041+9999ME1314579OA149900571REMSYN088AAXX  04214 06751 33/// /2704 11125 21129 38028 48457 52004 333 55300 20000 91111 91207;
0149067510999992011010422004+46450+008517FM-12+189899999V0203101N001519999999N9999999N1-01231-01841999999ADDMA1999999080281MD1010001+9999ME1314579OA149900571REMSYN088AAXX  04224 06751 33/// /3103 11123 21184 38028 48457 50000 333 55300 20000 91111 91207;
0149067510999992011010423004+46450+008517FM-12+189899999V0202701N002119999999N9999999N1-01261-02031999999ADDMA1999999080291MD1510001+9999ME1314589OA149900411REMSYN088AAXX  04234 06751 33/// /2704 11126 21203 38029 48458 55000 333 55300 20000 91108 91205;
0149067510999992011010500004+46450+008517FM-12+189899999V0202601N002619999999N9999999N1-01261-01391999999ADDMA1999999080261MD1710021+9999ME1314559OA149900571REMSYN088AAXX  05004 06751 33/// /2605 11126 21139 38026 48455 57002 333 55300 20000 91111 91207;
0149067510999992011010501004+46450+008517FM-12+189899999V0202501N002619999999N9999999N1-01281-01881999999ADDMA1999999080241MD1710041+9999ME1314549OA149900461REMSYN088AAXX  05014 06751 33/// /2505 11128 21188 38024 48454 57004 333 55300 20000 91109 91206;
0149067510999992011010502004+46450+008517FM-12+189899999V0202601N002619999999N9999999N1-01311-01451999999ADDMA1999999080251MD1710041+9999ME1314559OA149900461REMSYN088AAXX  05024 06751 33/// /2605 11131 21145 38025 48455 57004 333 55300 20000 91109 91206;
0096067510999992011010503004+46450+008517FM-12+189899999V0202701N002119999999N9999999N1-01371-01921999999ADDMA1999999080221ME1314549REMSYN060AAXX  05034 06751 43/// /2704 11137 21192 38022 48454 5////;
0149067510999992011010504004+46450+008517FM-12+189899999V0202501N002119999999N9999999N1-01341-01741999999ADDMA1999999080211MD1710031+9999ME1314529OA149900511REMSYN088AAXX  05044 06751 33/// /2504 11134 21174 38021 48452 57003 333 55300 20000 91110 91206;
0149067510999992011010505004+46450+008517FM-12+189899999V0202501N002619999999N9999999N1-01371-01881999999ADDMA1999999080211MD1710041+9999ME1314539OA149900511REMSYN088AAXX  05054 06751 33/// /2505 11137 21188 38021 48453 57004 333 55300 20000 91110 91206;
0235067510999992011010506004+46450+008517FM-12+189899999V0202501N003119999999N9999999N1-01381-02151999999ADDAL19900091GJ100009IA2999+00009KA1999N-01411MA1999999080221MD1410001+9999ME1314549OA149900571REMSYN112AAXX  05064 06751 33/// /2506 11138 21215 38022 48454 52000 333 21141 3/100 55000 55300 20000 70000 91111 91207;EQDQ01+000022APCTEN
0149067510999992011010507004+46450+008517FM-12+189899999V0202801N001019999999N9999999N1-01361-02051999999ADDMA1999999080261MD1210051+9999ME1314579OA149900511REMSYN088AAXX  05074 06751 33/// /2802 11136 21205 38026 48457 52005 333 55300 20000 91110 91207;
0149067510999992011010508004+46450+008517FM-12+189899999V0202501N002619999999N9999999N1-01401-02141999999ADDMA1999999080281MD1219999+9999ME1314609OA149900511REMSYN088AAXX  05084 06751 33/// /2505 11140 21214 38028 48460 52/// 333 55300 20032 91110 91207;
0149067510999992011010509004+46450+008517FM-12+189899999V0200201N000519999999N9999999N1-01401-01591999999ADDMA1999999080311MD1210091+9999ME1314639OA149900511REMSYN088AAXX  05094 06751 33/// /0201 11140 21159 38031 48463 52009 333 55300 20313 91110 91207;
0149067510999992011010510004+46450+008517FM-12+189899999V0209999C000019999999N9999999N1-01381-01561999999ADDMA1999999080301MD1210041+9999ME1314619OA149900511REMSYN088AAXX  05104 06751 33/// /0000 11138 21156 38030 48461 52004 333 55301 20745 91110 91203;
0149067510999992011010511004+46450+008517FM-12+189899999V0209999C000019999999N9999999N1-01271-01491999999ADDMA1999999080301MD1010021+9999ME1314599OA149900101REMSYN088AAXX  05114 06751 33/// /0000 11127 21149 38030 48459 50002 333 55308 2//// 91102 91201;
0112067510999992011010512004+46450+008517FM-12+189899999V0202601N000519999999N9999999N1-01131-01501999999ADDMA1999999080241ME1314519REMSYN076AAXX  05124 06751 33/// /2601 11113 21150 38024 48451 5//// 333 553// 2////;
0149067510999992011010513004+46450+008517FM-12+189899999V0202701N000519999999N9999999N1-01121-01471999999ADDMA1999999080201MD1710101+9999ME1314479OA149900211REMSYN088AAXX  05134 06751 33/// /2701 11112 21147 38020 48447 57010 333 553// 2//// 91104 91201;
0096067510999992011010514004+46450+008517FM-12+189899999V0202601N000519999999N9999999N1-01151-01451999999ADDMA1999999080211ME1314499REMSYN060AAXX  05144 06751 43/// /2601 11115 21145 38021 48449 5////;
0096067510999992011010515004+46450+008517FM-12+189899999V0203001N000519999999N9999999N1-01201-01501999999ADDMA1999999080261ME1314549REMSYN060AAXX  05154 06751 43/// /3001 11120 21150 38026 48454 5////;
0149067510999992011010516004+46450+008517FM-12+189899999V0200301N001019999999N9999999N1-01141-01391999999ADDMA1999999080241MD1210041+9999ME1314519OA149900261REMSYN088AAXX  05164 06751 33/// /0302 11114 21139 38024 48451 52004 333 55300 20036 91105 91202;
0149067510999992011010517004+46450+008517FM-12+189899999V0203601N000519999999N9999999N1-00921-01631999999ADDMA1999999080251MD1010041+9999ME1314499OA149900411REMSYN088AAXX  05174 06751 33/// /3601 11092 21163 38025 48449 50004 333 55300 20000 91108 91202;
0168067510999992011010518004+46450+008517FM-12+189899999V0200301N000519999999N9999999N1-01021-01871999999ADDKA1120M-00921MA1999999080311MD1319999+9999ME1314569OA149900511REMSYN094AAXX  05184 06751 33/// /0301 11102 21187 38031 48456 53/// 333 11092 55300 20000 91110 91207;
0149067510999992011010519004+46450+008517FM-12+189899999V0202901N001519999999N9999999N1-00901-02171999999ADDMA1999999080361MD1210121+9999ME1314599OA149900511REMSYN088AAXX  05194 06751 33/// /2903 11090 21217 38036 48459 52012 333 55300 20000 91110 91203;
0149067510999992011010520004+46450+008517FM-12+189899999V0202601N001019999999N9999999N1-00991-01851999999ADDMA1999999080331MD1019999+9999ME1314589OA149900571REMSYN088AAXX  05204 06751 33/// /2602 11099 21185 38033 48458 50/// 333 55300 20000 91111 91203;
0112067510999992011010521004+46450+008517FM-12+189899999V0202801N001019999999N9999999N1-00911-01921999999ADDMA1999999080351ME1314589REMSYN076AAXX  05214 06751 33/// /2802 11091 21192 38035 48458 5//// 333 553// 20000;
0149067510999992011010522004+46450+008517FM-12+189899999V0202801N001019999999N9999999N1-01011-01891999999ADDMA1999999080371MD1310011+9999ME1314629OA149900461REMSYN088AAXX  05224 06751 33/// /2802 11101 21189 38037 48462 53001 333 55300 20000 91109 91203;
0149067510999992011010523004+46450+008517FM-12+189899999V0202601N001019999999N9999999N1-01051-02271999999ADDMA1999999080411MD1319999+9999ME1314669OA149900461REMSYN088AAXX  05234 06751 33/// /2602 11105 21227 38041 48466 53/// 333 55300 20000 91109 91203;
0096067510999992011010600004+46450+008517FM-12+189899999V0203301N001019999999N9999999N1-00931-02171999999ADDMA1999999080401ME1314639REMSYN060AAXX  06004 06751 43/// /3302 11093 21217 38040 48463 5////;
0096067510999992011010601004+46450+008517FM-12+189899999V0209999C000019999999N9999999N1-00871-01801999999ADDMA1999999080371ME1314609REMSYN060AAXX  06014 06751 43/// /0000 11087 21180 38037 48460 5////;
0096067510999992011010602004+46450+008517FM-12+189899999V0202601N000519999999N9999999N1-00871-02101999999ADDMA1999999080371ME1314609REMSYN060AAXX  06024 06751 43/// /2601 11087 21210 38037 48460 5////;
0096067510999992011010603004+46450+008517FM-12+189899999V0201801N000519999999N9999999N1-01121-01461999999ADDMA1999999080381ME1314659REMSYN060AAXX  06034 06751 43/// /1801 11112 21146 38038 48465 5////;
0096067510999992011010604004+46450+008517FM-12+189899999V0209999C000019999999N9999999N1-00981-01541999999ADDMA1999999080361ME1314609REMSYN060AAXX  06044 06751 43/// /0000 11098 21154 38036 48460 5////;
0096067510999992011010605004+46450+008517FM-12+189899999V0203601N000519999999N9999999N1-00981-01861999999ADDMA1999999080361ME1314609REMSYN060AAXX  06054 06751 43/// /3601 11098 21186 38036 48460 5////;
0143067510999992011010606004+46450+008517FM-12+189899999V0209999C000019999999N9999999N1-00901-01511999999ADDIA2999+00009KA1999N-01191MA1999999080351ME1314589REMSYN082AAXX  06064 06751 43/// /0000 11090 21151 38035 48458 5//// 333 21119 3/100 55036;
0096067510999992011010607004+46450+008517FM-12+189899999V0209999C000019999999N9999999N1-00841-01521999999ADDMA1999999080411ME1314639REMSYN060AAXX  06074 06751 43/// /0000 11084 21152 38041 48463 5////;
0112067510999992011010608004+46450+008517FM-12+189899999V0209999C000019999999N9999999N1-00871-01521999999ADDMA1999999080491ME1314719REMSYN076AAXX  06084 06751 33/// /0000 11087 21152 38049 48471 5//// 333 553// 20050;
0096067510999992011010609004+46450+008517FM-12+189899999V0209999C000019999999N9999999N1-00761-01561999999ADDMA1999999080541ME1314749REMSYN060AAXX  06094 06751 43/// /0000 11076 21156 38054 48474 5////;
0149067510999992011010610004+46450+008517FM-12+189899999V0203301N000519999999N9999999N1-00701-01291999999ADDMA1999999080561MD1210151+9999ME1314759OA149900151REMSYN088AAXX  06104 06751 33/// /3301 11070 21129 38056 48475 52015 333 55300 20436 91103 91202;
0149067510999992011010611004+46450+008517FM-12+189899999V0202701N000519999999N9999999N1-00721-01011999999ADDMA1999999080561MD1210071+9999ME1314769OA149900151REMSYN088AAXX  06114 06751 33/// /2701 11072 21101 38056 48476 52007 333 55300 20425 91103 91202;
0149067510999992011010612004+46450+008517FM-12+189899999V0209999C000019999999N9999999N1-00701-00871999999ADDMA1999999080521MD1810021+9999ME1314719OA149900461REMSYN088AAXX  06124 06751 33/// /0000 11070 21087 38052 48471 58002 333 55300 20508 91109 91203;
0149067510999992011010613004+46450+008517FM-12+189899999V0209999C000019999999N9999999N1-00681-00841999999ADDMA1999999080481MD1710081+9999ME1314679OA149900101REMSYN088AAXX  06134 06751 33/// /0000 11068 21084 38048 48467 57008 333 55300 20299 91102 91201;
0096067510999992011010614004+46450+008517FM-12+189899999V0209999C000019999999N9999999N1-00631-00801999999ADDMA1999999080501ME1314689REMSYN060AAXX  06144 06751 43/// /0000 11063 21080 38050 48468 5////;
0096067510999992011010615004+46450+008517FM-12+189899999V0209999C000019999999N9999999N1-00581-00771999999ADDMA1999999080511ME1314689REMSYN060AAXX  06154 06751 43/// /0000 11058 21077 38051 48468 5////;
0149067510999992011010616004+46450+008517FM-12+189899999V0202501N000519999999N9999999N1-00551-00771999999ADDMA1999999080541MD1310061+9999ME1314719OA149900211REMSYN088AAXX  06164 06751 33/// /2501 11055 21077 38054 48471 53006 333 55300 20032 91104 91202;
0149067510999992011010617004+46450+008517FM-12+189899999V0202801N000519999999N9999999N1-00501-00781999999ADDMA1999999080531MD1210031+9999ME1314699OA149900211REMSYN088AAXX  06174 06751 33/// /2801 11050 21078 38053 48469 52003 333 55300 20000 91104 91202;
0168067510999992011010618004+46450+008517FM-12+189899999V0203301N000519999999N9999999N1-00481-00711999999ADDKA1120M-00471MA1999999080541MD1210031+9999ME1314709OA149900211REMSYN094AAXX  06184 06751 33/// /3301 11048 21071 38054 48470 52003 333 11047 55300 20000 91104 91202;
0155067510999992011010619004+46450+008517FM-12+189899999V0209999C000019999999N9999999N1-00491-00591999999ADDMA1999999080561MD1210021+9999ME1314729OA149900151REMSYN094AAXX  06194 06751 23/// /0000 11049 21059 38056 48472 52002 333 55300 20000 69955 91103 91201;
0155067510999992011010620004+46450+008517FM-12+189899999V0209999C000019999999N9999999N1-00471-00551999999ADDMA1999999080621MD1219999+9999ME1314789OA149900151REMSYN094AAXX  06204 06751 23/// /0000 11047 21055 38062 48478 52/// 333 55300 20000 69955 91103 91201;
0155067510999992011010621004+46450+008517FM-12+189899999V0203501N000519999999N9999999N1-00441-00541999999ADDMA1999999080631MD1219999+9999ME1314789OA149900211REMSYN094AAXX  06214 06751 23/// /3501 11044 21054 38063 48478 52/// 333 55300 20000 69975 91104 91202;
0155067510999992011010622004+46450+008517FM-12+189899999V0209999C000019999999N9999999N1-00441-00531999999ADDMA1999999080671MD1219999+9999ME1314829OA149900051REMSYN094AAXX  06224 06751 23/// /0000 11044 21053 38067 48482 52/// 333 55300 20000 69955 91101 91201;
0118067510999992011010623004+46450+008517FM-12+189899999V0203201N000519999999N9999999N1-00401-00501999999ADDMA1999999080711ME1314859REMSYN082AAXX  06234 06751 23/// /3201 11040 21050 38071 48485 5//// 333 553// 20000 69975;
0096067510999992011010700004+46450+008517FM-12+189899999V0200101N000519999999N9999999N1-00341-00501999999ADDMA1999999080701ME1314839REMSYN060AAXX  07004 06751 43/// /0101 11034 21050 38070 48483 5////;
0096067510999992011010701004+46450+008517FM-12+189899999V0209999C000019999999N9999999N1-00381-00441999999ADDMA1999999080721ME1314869REMSYN060AAXX  07014 06751 43/// /0000 11038 21044 38072 48486 5////;
0096067510999992011010702004+46450+008517FM-12+189899999V0209999C000019999999N9999999N1-00361-00441999999ADDMA1999999080781ME1314929REMSYN060AAXX  07024 06751 43/// /0000 11036 21044 38078 48492 5////;
0096067510999992011010703004+46450+008517FM-12+189899999V0203501N000519999999N9999999N1-00321-00401999999ADDMA1999999080801ME1314939REMSYN060AAXX  07034 06751 43/// /3501 11032 21040 38080 48493 5////;
0155067510999992011010704004+46450+008517FM-12+189899999V0209999C000019999999N9999999N1-00311-00381999999ADDMA1999999080781MD1010061+9999ME1314919OA149900101REMSYN094AAXX  07044 06751 23/// /0000 11031 21038 38078 48491 50006 333 55300 20000 69975 91102 91201;
0155067510999992011010705004+46450+008517FM-12+189899999V0203401N000519999999N9999999N1-00271-00391999999ADDMA1999999080821MD1310041+9999ME1314949OA149900101REMSYN094AAXX  07054 06751 23/// /3401 11027 21039 38082 48494 53004 333 55300 20000 69935 91102 91201;
0239067510999992011010706004+46450+008517FM-12+189899999V0209999C000019999999N9999999N1-00291-00341999999ADDAA112006191AL11200591GJ100009IA2999+00009KA1999N-00511MA1999999080851MD1210051+9999ME1314979OA149900151REMSYN124AAXX  07064 06751 03/// /0000 11029 21034 38085 48497 52005 60062 333 21051 3/100 55000 55300 20000 69965 70052 91103 91201;
0155067510999992011010707004+46450+008517FM-12+189899999V0203301N000519999999N9999999N1-00231-00341999999ADDMA1999999080881MD1310101+9999ME1315009OA149900101REMSYN094AAXX  07074 06751 23/// /3301 11023 21034 38088 48500 53010 333 55300 20000 69935 91102 91201;
0112067510999992011010708004+46450+008517FM-12+189899999V0209999C000019999999N9999999N1-00231-00331999999ADDMA1999999080911ME1315039REMSYN076AAXX  07084 06751 33/// /0000 11023 21033 38091 48503 5//// 333 553// 20058;
0096067510999992011010709004+46450+008517FM-12+189899999V0209999C000019999999N9999999N1-00241-00301999999ADDMA1999999080981ME1315109REMSYN060AAXX  07094 06751 43/// /0000 11024 21030 38098 48510 5////;
0155067510999992011010710004+46450+008517FM-12+189899999V0200301N000519999999N9999999N1-00181-00281999999ADDMA1999999081001MD1210121+9999ME1315119OA149900101REMSYN094AAXX  07104 06751 23/// /0301 11018 21028 38100 48511 52012 333 55300 20310 69965 91102 91201;
0155067510999992011010711004+46450+008517FM-12+189899999V0209999C000019999999N9999999N1-00181-00231999999ADDMA1999999080981MD1010071+9999ME1315099OA149900101REMSYN094AAXX  07114 06751 23/// /0000 11018 21023 38098 48509 50007 333 55300 20479 69995 91102 91201;
0172067510999992011010712004+46450+008517FM-12+189899999V0209999C000019999999N9999999N1-00121-00191999999ADDAA106003091MA1999999080961MD1810021+9999ME1315069OA149900101REMSYN100AAXX  07124 06751 03/// /0000 11012 21019 38096 48506 58002 60031 333 55300 20511 60015 91102 91201;
0155067510999992011010713004+46450+008517FM-12+189899999V0201801N000519999999N9999999N1-00171-00191999999ADDMA1999999080951MD1710051+9999ME1315069OA149900101REMSYN094AAXX  07134 06751 23/// /1801 11017 21019 38095 48506 57005 333 55300 20533 60015 91102 91201;
0096067510999992011010714004+46450+008517FM-12+189899999V0201501N000519999999N9999999N1-00181-00191999999ADDMA1999999080961ME1315079REMSYN060AAXX  07144 06751 43/// /1501 11018 21019 38096 48507 5////;
0096067510999992011010715004+46450+008517FM-12+189899999V0209999C000019999999N9999999N1-00191-00221999999ADDMA1999999080991ME1315109REMSYN060AAXX  07154 06751 43/// /0000 11019 21022 38099 48510 5////;
0155067510999992011010716004+46450+008517FM-12+189899999V0203501N000519999999N9999999N1-00141-00201999999ADDMA1999999081011MD1210061+9999ME1315119OA149900101REMSYN094AAXX  07164 06751 23/// /3501 11014 21020 38101 48511 52006 333 55300 20043 69965 91102 91201;
0155067510999992011010717004+46450+008517FM-12+189899999V0209999C000019999999N9999999N1-00151-00201999999ADDMA1999999081011MD1210051+9999ME1315119OA149900101REMSYN094AAXX  07174 06751 23/// /0000 11015 21020 38101 48511 52005 333 55300 20000 69965 91102 91201;
0154067510999992011010718004+46450+008517FM-12+189899999V0209999C000019999999N9999999N1-00161-00191999999ADDAA112007191KA1120M-00121MA1999999081011ME1315119REMSYN094AAXX  07184 06751 03/// /0000 11016 21019 38101 48511 5//// 60072 333 11012 553// 20000 69925;
0155067510999992011010719004+46450+008517FM-12+189899999V0209999C000019999999N9999999N1-00181-00191999999ADDMA1999999081001MD1019999+9999ME1315119OA149900051REMSYN094AAXX  07194 06751 23/// /0000 11018 21019 38100 48511 50/// 333 55300 20000 69975 91101 91201;
0096067510999992011010720004+46450+008517FM-12+189899999V0209999C000019999999N9999999N1-00171-00181999999ADDMA1999999080991ME1315109REMSYN060AAXX  07204 06751 43/// /0000 11017 21018 38099 48510 5////;
0096067510999992011010721004+46450+008517FM-12+189899999V0209999C000019999999N9999999N1-00161-00161999999ADDMA1999999080991ME1315099REMSYN060AAXX  07214 06751 43/// /0000 11016 21016 38099 48509 5////;
0155067510999992011010722004+46450+008517FM-12+189899999V0209999C000019999999N9999999N1-00141-00161999999ADDMA1999999080981MD1710021+9999ME1315089OA149900051REMSYN094AAXX  07224 06751 23/// /0000 11014 21016 38098 48508 57002 333 55300 20000 60025 91101 91201;
0118067510999992011010723004+46450+008517FM-12+189899999V0209999C000019999999N9999999N1-00141-00171999999ADDMA1999999080991ME1315099REMSYN082AAXX  07234 06751 23/// /0000 11014 21017 38099 48509 5//// 333 553// 20000 60025;
0135067510999992011010800004+46450+008517FM-12+189899999V0203101N000519999999N9999999N1-00141-00171999999ADDAA106007991MA1999999080981ME1315089REMSYN088AAXX  08004 06751 03/// /3101 11014 21017 38098 48508 5//// 60081 333 553// 20000 60025;
0096067510999992011010801004+46450+008517FM-12+189899999V0209999C000019999999N9999999N1-00151-00181999999ADDMA1999999080951ME1315059REMSYN060AAXX  08014 06751 43/// /0000 11015 21018 38095 48505 5////;
0096067510999992011010802004+46450+008517FM-12+189899999V0209999C000019999999N9999999N1-00101-00161999999ADDMA1999999080941ME1315049REMSYN060AAXX  08024 06751 43/// /0000 11010 21016 38094 48504 5////;
0096067510999992011010803004+46450+008517FM-12+189899999V0209999C000019999999N9999999N1-00181-00181999999ADDMA1999999080931ME1315049REMSYN060AAXX  08034 06751 43/// /0000 11018 21018 38093 48504 5////;
0096067510999992011010804004+46450+008517FM-12+189899999V0209999C000019999999N9999999N1-00171-00191999999ADDMA1999999080901ME1315019REMSYN060AAXX  08044 06751 43/// /0000 11017 21019 38090 48501 5////;
0096067510999992011010805004+46450+008517FM-12+189899999V0209999C000019999999N9999999N1-00171-00191999999ADDMA1999999080851ME1314969REMSYN060AAXX  08054 06751 43/// /0000 11017 21019 38085 48496 5////;
0143067510999992011010806004+46450+008517FM-12+189899999V0209999C000019999999N9999999N1-00211-00211999999ADDIA2999+00009KA1999N-00201MA1999999080861ME1314979REMSYN082AAXX  08064 06751 43/// /0000 11021 21021 38086 48497 5//// 333 21020 3/100 55000;
0096067510999992011010807004+46450+008517FM-12+189899999V0201901N000519999999N9999999N1-00211-00211999999ADDMA1999999080901ME1315019REMSYN060AAXX  08074 06751 43/// /1901 11021 21021 38090 48501 5////;
0118067510999992011010808004+46450+008517FM-12+189899999V0209999C000019999999N9999999N1-00201-00241999999ADDMA1999999080941ME1315059REMSYN082AAXX  08084 06751 23/// /0000 11020 21024 38094 48505 5//// 333 553// 20014 69995;
0096067510999992011010809004+46450+008517FM-12+189899999V0209999C000019999999N9999999N1-00151-00261999999ADDMA1999999080931ME1315039REMSYN060AAXX  08094 06751 43/// /0000 11015 21026 38093 48503 5////;
0096067510999992011010810004+46450+008517FM-12+189899999V0209999C000019999999N9999999N1-00201-00201999999ADDMA1999999080961ME1315079REMSYN060AAXX  08104 06751 43/// /0000 11020 21020 38096 48507 5////;
0096067510999992011010811004+46450+008517FM-12+189899999V0209999C000019999999N9999999N1-00141-00221999999ADDMA1999999080951ME1315059REMSYN060AAXX  08114 06751 43/// /0000 11014 21022 38095 48505 5////;
0096067510999992011010812004+46450+008517FM-12+189899999V0209999C000019999999N9999999N1-00141-00191999999ADDMA1999999080931ME1315039REMSYN060AAXX  08124 06751 43/// /0000 11014 21019 38093 48503 5////;
0096067510999992011010813004+46450+008517FM-12+189899999V0209999C000019999999N9999999N1-00161-00201999999ADDMA1999999080901ME1315009REMSYN060AAXX  08134 06751 43/// /0000 11016 21020 38090 48500 5////;
0096067510999992011010814004+46450+008517FM-12+189899999V0209999C000019999999N9999999N1-00131-00161999999ADDMA1999999080921ME1315029REMSYN060AAXX  08144 06751 43/// /0000 11013 21016 38092 48502 5////;
0096067510999992011010815004+46450+008517FM-12+189899999V0209999C000019999999N9999999N1-00161-00161999999ADDMA1999999080931ME1315039REMSYN060AAXX  08154 06751 43/// /0000 11016 21016 38093 48503 5////;
0096067510999992011010816004+46450+008517FM-12+189899999V0209999C000019999999N9999999N1-00141-00141999999ADDMA1999999080971ME1315079REMSYN060AAXX  08164 06751 43/// /0000 11014 21014 38097 48507 5////;
0096067510999992011010817004+46450+008517FM-12+189899999V0209999C000019999999N9999999N1-00121-00141999999ADDMA1999999080971ME1315079REMSYN060AAXX  08174 06751 43/// /0000 11012 21014 38097 48507 5////;
0096067510999992011010818004+46450+008517FM-12+189899999V0201801N000519999999N9999999N1-00091-00101999999ADDMA1999999080971ME1315069REMSYN060AAXX  08184 06751 43/// /1801 11009 21010 38097 48506 5////;
0096067510999992011010819004+46450+008517FM-12+189899999V0209999C000019999999N9999999N1-00131-00131999999ADDMA1999999080971ME1315079REMSYN060AAXX  08194 06751 43/// /0000 11013 21013 38097 48507 5////;
0096067510999992011010820004+46450+008517FM-12+189899999V0209999C000019999999N9999999N1-00121-00121999999ADDMA1999999080971ME1315079REMSYN060AAXX  08204 06751 43/// /0000 11012 21012 38097 48507 5////;
0096067510999992011010821004+46450+008517FM-12+189899999V0209999C000019999999N9999999N1-00151-00151999999ADDMA1999999080961ME1315069REMSYN060AAXX  08214 06751 43/// /0000 11015 21015 38096 48506 5////;
0096067510999992011010822004+46450+008517FM-12+189899999V0201901N000519999999N9999999N1-00131-00131999999ADDMA1999999080961ME1315069REMSYN060AAXX  08224 06751 43/// /1901 11013 21013 38096 48506 5////;
0096067510999992011010823004+46450+008517FM-12+189899999V0201301N000519999999N9999999N1-00161-00161999999ADDMA1999999080981ME1315089REMSYN060AAXX  08234 06751 43/// /1301 11016 21016 38098 48508 5////;
0096067510999992011010900004+46450+008517FM-12+189899999V0209999C000019999999N9999999N1-00151-00151999999ADDMA1999999080961ME1315069REMSYN060AAXX  09004 06751 43/// /0000 11015 21015 38096 48506 5////;
0096067510999992011010901004+46450+008517FM-12+189899999V0201401N000519999999N9999999N1-00081-00091999999ADDMA1999999080961ME1315059REMSYN060AAXX  09014 06751 43/// /1401 11008 21009 38096 48505 5////;
0096067510999992011010902004+46450+008517FM-12+189899999V0201901N000519999999N9999999N1-00071-00071999999ADDMA1999999080961ME1315059REMSYN060AAXX  09024 06751 43/// /1901 11007 21007 38096 48505 5////;
0096067510999992011010903004+46450+008517FM-12+189899999V0209999C000019999999N9999999N1-00181-00181999999ADDMA1999999080921ME1315039REMSYN060AAXX  09034 06751 43/// /0000 11018 21018 38092 48503 5////;
0096067510999992011010904004+46450+008517FM-12+189899999V0202201N000519999999N9999999N1-00141-00141999999ADDMA1999999080881ME1314989REMSYN060AAXX  09044 06751 43/// /2201 11014 21014 38088 48498 5////;
0096067510999992011010905004+46450+008517FM-12+189899999V0202101N000519999999N9999999N1-00131-00131999999ADDMA1999999080871ME1314979REMSYN060AAXX  09054 06751 43/// /2101 11013 21013 38087 48497 5////;
0106067510999992011010906004+46450+008517FM-12+189899999V0201901N000519999999N9999999N1-00181-00181999999ADDMA1999999080861ME1314979REMSYN070AAXX  09064 06751 43/// /1901 11018 21018 38086 48497 5//// 333 55000;
0096067510999992011010907004+46450+008517FM-12+189899999V0202201N000519999999N9999999N1-00151-00151999999ADDMA1999999080861ME1314969REMSYN060AAXX  09074 06751 43/// /2201 11015 21015 38086 48496 5////;
0118067510999992011010908004+46450+008517FM-12+189899999V0201901N001519999999N9999999N1-00171-00171999999ADDMA1999999080911ME1315029REMSYN082AAXX  09084 06751 23/// /1903 11017 21017 38091 48502 5//// 333 553// 20014 69975;
0118067510999992011010909004+46450+008517FM-12+189899999V0201901N001019999999N9999999N1-00161-00161999999ADDMA1999999080911ME1315019REMSYN082AAXX  09094 06751 23/// /1902 11016 21016 38091 48501 5//// 333 553// 20090 69965;
0155067510999992011010910004+46450+008517FM-12+189899999V0201801N001519999999N9999999N1-00151-00151999999ADDMA1999999080941MD1210081+9999ME1315049OA149900511REMSYN094AAXX  09104 06751 23/// /1803 11015 21015 38094 48504 52008 333 55300 20191 69975 91110 91204;
0155067510999992011010911004+46450+008517FM-12+189899999V0201901N001019999999N9999999N1-00181-00181999999ADDMA1999999080911MD1010001+9999ME1315029OA149900511REMSYN094AAXX  09114 06751 23/// /1902 11018 21018 38091 48502 50000 333 55300 20302 69995 91110 91204;
0172067510999992011010912004+46450+008517FM-12+189899999V0201801N001019999999N9999999N1-00151-00151999999ADDAA106005191MA1999999080851MD1810061+9999ME1314959OA149900511REMSYN100AAXX  09124 06751 03/// /1802 11015 21015 38085 48495 58006 60051 333 55300 20338 69965 91110 91204;
0155067510999992011010913004+46450+008517FM-12+189899999V0201801N001519999999N9999999N1-00181-00191999999ADDMA1999999080831MD1710111+9999ME1314949OA149900361REMSYN094AAXX  09134 06751 23/// /1803 11018 21019 38083 48494 57011 333 55300 20295 60015 91107 91203;
0096067510999992011010914004+46450+008517FM-12+189899999V0201701N001519999999N9999999N1-00191-00191999999ADDMA1999999080811ME1314929REMSYN060AAXX  09144 06751 43/// /1703 11019 21019 38081 48492 5////;
0096067510999992011010915004+46450+008517FM-12+189899999V0202001N001019999999N9999999N1-00211-00221999999ADDMA1999999080821ME1314939REMSYN060AAXX  09154 06751 43/// /2002 11021 21022 38082 48493 5////;
0155067510999992011010916004+46450+008517FM-12+189899999V0209999C000019999999N9999999N1-00201-00201999999ADDMA1999999080811MD1710021+9999ME1314929OA149900361REMSYN094AAXX  09164 06751 23/// /0000 11020 21020 38081 48492 57002 333 55300 20011 60015 91107 91202;
0155067510999992011010917004+46450+008517FM-12+189899999V0209999C000019999999N9999999N1-00221-00231999999ADDMA1999999080791MD1710021+9999ME1314909OA149900361REMSYN094AAXX  09174 06751 23/// /0000 11022 21023 38079 48490 57002 333 55300 20000 60025 91107 91202;
0191067510999992011010918004+46450+008517FM-12+189899999V0202001N001019999999N9999999N1-00181-00211999999ADDAA112014091KA1120M-00131MA1999999080811MD1510011+9999ME1314929OA149900511REMSYN106AAXX  09184 06751 03/// /2002 11018 21021 38081 48492 55001 60142 333 11013 55300 20000 60025 91110 91204;
0155067510999992011010919004+46450+008517FM-12+189899999V0201901N000519999999N9999999N1-00251-00251999999ADDMA1999999080801MD1410001+9999ME1314929OA149900311REMSYN094AAXX  09194 06751 23/// /1901 11025 21025 38080 48492 54001 333 55300 20000 60025 91106 91202;
0155067510999992011010920004+46450+008517FM-12+189899999V0202201N000519999999N9999999N1-00181-00231999999ADDMA1999999080821MD1210031+9999ME1314939OA149900211REMSYN094AAXX  09204 06751 23/// /2201 11018 21023 38082 48493 52003 333 55300 20000 60015 91104 91202;
0155067510999992011010921004+46450+008517FM-12+189899999V0202101N000519999999N9999999N1-00231-00251999999ADDMA1999999080821MD1210011+9999ME1314949OA149900361REMSYN094AAXX  09214 06751 23/// /2101 11023 21025 38082 48494 52001 333 55300 20000 60025 91107 91202;
0155067510999992011010922004+46450+008517FM-12+189899999V0209999C000019999999N9999999N1-00241-00251999999ADDMA1999999080811MD1010011+9999ME1314939OA149900151REMSYN094AAXX  09224 06751 23/// /0000 11024 21025 38081 48493 50001 333 55300 20000 60015 91103 91201;
0155067510999992011010923004+46450+008517FM-12+189899999V0209999C000019999999N9999999N1-00211-00251999999ADDMA1999999080791MD1710031+9999ME1314909OA149900101REMSYN094AAXX  09234 06751 23/// /0000 11021 21025 38079 48490 57003 333 55300 20000 60015 91102 91201;
0172067510999992011011000004+46450+008517FM-12+189899999V0209999C000019999999N9999999N1-00221-00241999999ADDAA106007991MA1999999080781MD1710041+9999ME1314899OA149900461REMSYN100AAXX  10004 06751 03/// /0000 11022 21024 38078 48489 57004 60081 333 55300 20000 69985 91109 91204;
0155067510999992011011001004+46450+008517FM-12+189899999V0209999C000019999999N9999999N1-00211-00231999999ADDMA1999999080771MD1710041+9999ME1314889OA149900101REMSYN094AAXX  10014 06751 23/// /0000 11021 21023 38077 48488 57004 333 55300 20000 69985 91102 91200;
0118067510999992011011002004+46450+008517FM-12+189899999V0209999C000019999999N9999999N1-00111-00191999999ADDMA1999999080771ME1314879REMSYN082AAXX  10024 06751 23/// /0000 11011 21019 38077 48487 5//// 333 553// 20000 60015;
0096067510999992011011003004+46450+008517FM-12+189899999V0202501N000519999999N9999999N1-00201-00261999999ADDMA1999999080771ME1314889REMSYN060AAXX  10034 06751 43/// /2501 11020 21026 38077 48488 5////;
0118067510999992011011004004+46450+008517FM-12+189899999V0209999C000019999999N9999999N1-00131-00211999999ADDMA1999999080761ME1314869REMSYN082AAXX  10044 06751 23/// /0000 11013 21021 38076 48486 5//// 333 553// 20000 69955;
0155067510999992011011005004+46450+008517FM-12+189899999V0209999C000019999999N9999999N1-00111-00211999999ADDMA1999999080741MD1719999+9999ME1314849OA149900051REMSYN094AAXX  10054 06751 23/// /0000 11011 21021 38074 48484 57/// 333 55300 20000 69925 91101 91201;
0168067510999992011011006004+46450+008517FM-12+189899999V0209999C000019999999N9999999N1-00171-00241999999ADDAA124025991GJ100009IA2999+00009KA1999N-00251MA1999999080741ME1314859REMSYN088AAXX  10064 06751 43/// /0000 11017 21024 38074 48485 5//// 333 21025 3/100 55000 70259;
0168067510999992011011007004+46450+008517FM-12+189899999V0203201N000519999999N9999999N1-00211-00211999999ADDMA1999999080761MD1410001+9999ME1314879OA149900101REMSYN088AAXX  10074 06751 33/// /3201 11021 21021 38076 48487 52000 333 55300 20000 91102 91201;EQDQ01+000022APCTEN
0096067510999992011011008004+46450+008517FM-12+189899999V0209999C000019999999N9999999N1-00241-00241999999ADDMA1999999080771ME1314899REMSYN060AAXX  10084 06751 43/// /0000 11024 21024 38077 48489 5////;
0096067510999992011011009004+46450+008517FM-12+189899999V0209999C000019999999N9999999N1-00221-00221999999ADDMA1999999080801ME1314919REMSYN060AAXX  10094 06751 43/// /0000 11022 21022 38080 48491 5////;
0149067510999992011011010004+46450+008517FM-12+189899999V0202301N000519999999N9999999N1-00191-00191999999ADDMA1999999080801MD1210041+9999ME1314919OA149900151REMSYN088AAXX  10104 06751 33/// /2301 11019 21019 38080 48491 52004 333 55300 20335 91103 91201;
0155067510999992011011011004+46450+008517FM-12+189899999V0209999C000019999999N9999999N1-00181-00201999999ADDMA1999999080771MD1019999+9999ME1314889OA149900151REMSYN094AAXX  10114 06751 23/// /0000 11018 21020 38077 48488 50/// 333 55300 20634 60095 91103 91201;
0135067510999992011011012004+46450+008517FM-12+189899999V0209999C000019999999N9999999N1-00201-00201999999ADDAA106008991MA1999999080751ME1314869REMSYN088AAXX  10124 06751 03/// /0000 11020 21020 38075 48486 5//// 60091 333 553// 20565 60005;
0096067510999992011011013004+46450+008517FM-12+189899999V0209999C000019999999N9999999N1-00181-00191999999ADDMA1999999080691ME1314809REMSYN060AAXX  10134 06751 43/// /0000 11018 21019 38069 48480 5////;
0096067510999992011011014004+46450+008517FM-12+189899999V0209999C000019999999N9999999N1-00191-00191999999ADDMA1999999080671ME1314789REMSYN060AAXX  10144 06751 43/// /0000 11019 21019 38067 48478 5////;
0096067510999992011011015004+46450+008517FM-12+189899999V0209999C000019999999N9999999N1-00221-00221999999ADDMA1999999080681ME1314809REMSYN060AAXX  10154 06751 43/// /0000 11022 21022 38068 48480 5////;
0096067510999992011011016004+46450+008517FM-12+189899999V0209999C000019999999N9999999N1-00181-00221999999ADDMA1999999080681ME1314799REMSYN060AAXX  10164 06751 43/// /0000 11018 21022 38068 48479 5////;
0096067510999992011011017004+46450+008517FM-12+189899999V0203001N000519999999N9999999N1-00201-00201999999ADDMA1999999080671ME1314789REMSYN060AAXX  10174 06751 43/// /3001 11020 21020 38067 48478 5////;
0119067510999992011011018004+46450+008517FM-12+189899999V0209999C000019999999N9999999N1-00221-00221999999ADDKA1999M-00051MA1999999080661ME1314789REMSYN070AAXX  10184 06751 43/// /0000 11022 21022 38066 48478 5//// 333 11005;
0096067510999992011011019004+46450+008517FM-12+189899999V0209999C000019999999N9999999N1-00231-00261999999ADDMA1999999080651ME1314779REMSYN060AAXX  10194 06751 43/// /0000 11023 21026 38065 48477 5////;
0096067510999992011011020004+46450+008517FM-12+189899999V0209999C000019999999N9999999N1-00201-00201999999ADDMA1999999080631ME1314749REMSYN060AAXX  10204 06751 43/// /0000 11020 21020 38063 48474 5////;
0096067510999992011011021004+46450+008517FM-12+189899999V0201701N001519999999N9999999N1-00111-00111999999ADDMA1999999080621ME1314729REMSYN060AAXX  10214 06751 43/// /1703 11011 21011 38062 48472 5////;
0096067510999992011011022004+46450+008517FM-12+189899999V0209999C000019999999N9999999N1-00051-00231999999ADDMA1999999080621ME1314719REMSYN060AAXX  10224 06751 43/// /0000 11005 21023 38062 48471 5////;
0096067510999992011011023004+46450+008517FM-12+189899999V0209999C000019999999N9999999N1-00061-00261999999ADDMA1999999080601ME1314699REMSYN060AAXX  10234 06751 43/// /0000 11006 21026 38060 48469 5////;
0096067510999992011011100004+46450+008517FM-12+189899999V0209999C000019999999N9999999N1-00261-00291999999ADDMA1999999080551ME1314679REMSYN060AAXX  11004 06751 43/// /0000 11026 21029 38055 48467 5////;
0096067510999992011011101004+46450+008517FM-12+189899999V0209999C000019999999N9999999N1-00261-00331999999ADDMA1999999080501ME1314629REMSYN060AAXX  11014 06751 43/// /0000 11026 21033 38050 48462 5////;
0096067510999992011011102004+46450+008517FM-12+189899999V0200601N000519999999N9999999N1-00231-00541999999ADDMA1999999080491ME1314619REMSYN060AAXX  11024 06751 43/// /0601 11023 21054 38049 48461 5////;
0096067510999992011011103004+46450+008517FM-12+189899999V0203401N001519999999N9999999N1-00211-00571999999ADDMA1999999080471ME1314589REMSYN060AAXX  11034 06751 43/// /3403 11021 21057 38047 48458 5////;
0096067510999992011011104004+46450+008517FM-12+189899999V0200901N000519999999N9999999N1-00211-00611999999ADDMA1999999080411ME1314529REMSYN060AAXX  11044 06751 43/// /0901 11021 21061 38041 48452 5////;
0096067510999992011011105004+46450+008517FM-12+189899999V0202501N002119999999N9999999N1-00231-00681999999ADDMA1999999080381ME1314509REMSYN060AAXX  11054 06751 43/// /2504 11023 21068 38038 48450 5////;
0106067510999992011011106004+46450+008517FM-12+189899999V0202501N000519999999N9999999N1-00221-00651999999ADDMA1999999080391ME1314519REMSYN070AAXX  11064 06751 43/// /2501 11022 21065 38039 48451 5//// 333 55000;
0149067510999992011011107004+46450+008517FM-12+189899999V0209999C000019999999N9999999N1-00251-00621999999ADDMA1999999080371MD1719999+9999ME1314499OA149900411REMSYN088AAXX  11074 06751 33/// /0000 11025 21062 38037 48449 57/// 333 55300 20000 91108 91205;
0112067510999992011011108004+46450+008517FM-12+189899999V0201801N000519999999N9999999N1-00191-00661999999ADDMA1999999080381ME1314499REMSYN076AAXX  11084 06751 33/// /1801 11019 21066 38038 48449 5//// 333 553// 20061;
0096067510999992011011109004+46450+008517FM-12+189899999V0202901N000519999999N9999999N1-00211-00601999999ADDMA1999999080361ME1314479REMSYN060AAXX  11094 06751 43/// /2901 11021 21060 38036 48447 5////;
0149067510999992011011110004+46450+008517FM-12+189899999V0209999C000019999999N9999999N1-00131-00601999999ADDMA1999999080361MD1710011+9999ME1314469OA149900211REMSYN088AAXX  11104 06751 33/// /0000 11013 21060 38036 48446 57001 333 55300 20659 91104 91202;
0149067510999992011011111004+46450+008517FM-12+189899999V0209999C000019999999N9999999N1-00121-00531999999ADDMA1999999080301MD1710081+9999ME1314409OA149900151REMSYN088AAXX  11114 06751 33/// /0000 11012 21053 38030 48440 57008 333 55300 20972 91103 91201;
0112067510999992011011112004+46450+008517FM-12+189899999V0209999C000019999999N9999999N1-00151-00611999999ADDMA1999999080201ME1314309REMSYN076AAXX  11124 06751 33/// /0000 11015 21061 38020 48430 5//// 333 553// 2////;
0149067510999992011011113004+46450+008517FM-12+189899999V0209999C000019999999N9999999N1-00301-00301999999ADDMA1999999080141MD1710221+9999ME1314279OA149900151REMSYN088AAXX  11134 06751 33/// /0000 11030 21030 38014 48427 57022 333 55300 20677 91103 91201;
0096067510999992011011114004+46450+008517FM-12+189899999V0201501N001019999999N9999999N1-00291-00291999999ADDMA1999999080141ME1314279REMSYN060AAXX  11144 06751 43/// /1502 11029 21029 38014 48427 5////;
0096067510999992011011115004+46450+008517FM-12+189899999V0202001N000519999999N9999999N1-00281-00281999999ADDMA1999999080141ME1314279REMSYN060AAXX  11154 06751 43/// /2001 11028 21028 38014 48427 5////;
0155067510999992011011116004+46450+008517FM-12+189899999V0200101N000519999999N9999999N1-00271-00361999999ADDMA1999999080161MD1310021+9999ME1314289OA149900151REMSYN094AAXX  11164 06751 23/// /0101 11027 21036 38016 48428 53002 333 55300 20083 69915 91103 91201;
0149067510999992011011117004+46450+008517FM-12+189899999V0203201N000519999999N9999999N1-00271-00521999999ADDMA1999999080161MD1210021+9999ME1314289OA149900151REMSYN088AAXX  11174 06751 33/// /3201 11027 21052 38016 48428 52002 333 55300 20000 91103 91201;
0210067510999992011011118004+46450+008517FM-12+189899999V0203101N001019999999N9999999N1-00241-00701999999ADDAA112000091KA1120M-00101MA1999999080191MD1210051+9999ME1314319OA149900461REMSYN106AAXX  11184 06751 03/// /3102 11024 21070 38019 48431 52005 69912 333 11010 55300 20000 60005 91109 91204;EQDQ01  00002PRCP12
0149067510999992011011119004+46450+008517FM-12+189899999V0203501N005719999999N9999999N1-00101-00861999999ADDMA1999999080251MD1310091+9999ME1314349OA149901181REMSYN088AAXX  11194 06751 33/// /3511 11010 21086 38025 48434 53009 333 55300 20000 91123 91211;
0149067510999992011011120004+46450+008517FM-12+189899999V0203101N002619999999N9999999N1-00141-00911999999ADDMA1999999080271MD1210111+9999ME1314379OA149901181REMSYN088AAXX  11204 06751 33/// /3105 11014 21091 38027 48437 52011 333 55300 20000 91123 91211;
0149067510999992011011121004+46450+008517FM-12+189899999V0203401N004619999999N9999999N1-00141-00851999999ADDMA1999999080341MD1210151+9999ME1314449OA149901181REMSYN088AAXX  11214 06751 33/// /3409 11014 21085 38034 48444 52015 333 55300 20000 91123 91211;
0149067510999992011011122004+46450+008517FM-12+189899999V0203601N003619999999N9999999N1-00111-00831999999ADDMA1999999080351MD1210101+9999ME1314459OA149901181REMSYN088AAXX  11224 06751 33/// /3607 11011 21083 38035 48445 52010 333 55300 20000 91123 91209;
0149067510999992011011123004+46450+008517FM-12+189899999V0203301N006219999999N9999999N1-00141-00741999999ADDMA1999999080411MD1310141+9999ME1314519OA149901341REMSYN088AAXX  11234 06751 33/// /3312 11014 21074 38041 48451 53014 333 55300 20000 91126 91212;
0149067510999992011011200004+46450+008517FM-12+189899999V0203401N003619999999N9999999N1-00131-00811999999ADDMA1999999080431MD1110091+9999ME1314539OA149901441REMSYN088AAXX  12004 06751 33/// /3407 11013 21081 38043 48453 51009 333 55300 20000 91128 91216;
0149067510999992011011201004+46450+008517FM-12+189899999V0203601N005119999999N9999999N1-00191-00851999999ADDMA1999999080481MD1210131+9999ME1314599OA149901601REMSYN088AAXX  12014 06751 33/// /3610 11019 21085 38048 48459 52013 333 55300 20000 91131 91216;
0112067510999992011011202004+46450+008517FM-12+189899999V0203301N005719999999N9999999N1-00201-00951999999ADDMA1999999080591ME1314709REMSYN076AAXX  12024 06751 33/// /3311 11020 21095 38059 48470 5//// 333 553// 20000;
0096067510999992011011203004+46450+008517FM-12+189899999V0203301N002619999999N9999999N1-00171-00951999999ADDMA1999999080621ME1314739REMSYN060AAXX  12034 06751 43/// /3305 11017 21095 38062 48473 5////;
0096067510999992011011204004+46450+008517FM-12+189899999V0203401N002619999999N9999999N1-00151-00901999999ADDMA1999999080651ME1314759REMSYN060AAXX  12044 06751 43/// /3405 11015 21090 38065 48475 5////;
0112067510999992011011205004+46450+008517FM-12+189899999V0209999C001519999999N9999999N1-00171-00951999999ADDMA1999999080641ME1314759REMSYN076AAXX  12054 06751 33/// /0003 11017 21095 38064 48475 5//// 333 553// 20000;
0187067510999992011011206004+46450+008517FM-12+189899999V0200501N003619999999N9999999N1-00141-01081999999ADDAA124000091GJ100009IA2999+00009KA1999N-00261MA1999999080701ME1314809REMSYN088AAXX  12064 06751 43/// /0507 11014 21108 38070 48480 5//// 333 21026 3/100 55000 70001;EQDQ01  00002PRCP24
0149067510999992011011207004+46450+008517FM-12+189899999V0200101N002619999999N9999999N1-00101-01251999999ADDMA1999999080761MD1210111+9999ME1314869OA149900931REMSYN088AAXX  12074 06751 33/// /0105 11010 21125 38076 48486 52011 333 55300 20000 91118 91208;
0096067510999992011011208004+46450+008517FM-12+189899999V0200301N003119999999N9999999N1-00011-01481999999ADDMA1999999080821ME1314909REMSYN060AAXX  12084 06751 43/// /0306 11001 21148 38082 48490 5////;
0096067510999992011011209004+46450+008517FM-12+189899999V0200401N002619999999N9999999N1+00161-02011999999ADDMA1999999080831ME1314899REMSYN060AAXX  12094 06751 43/// /0405 10016 21201 38083 48489 5////;
0149067510999992011011210004+46450+008517FM-12+189899999V0200301N003119999999N9999999N1+00231-01821999999ADDMA1999999080871MD1219999+9999ME1314929OA149901241REMSYN088AAXX  12104 06751 33/// /0306 10023 21182 38087 48492 52/// 333 55308 20976 91124 91209;
0149067510999992011011211004+46450+008517FM-12+189899999V0202401N001019999999N9999999N1+00271-01091999999ADDMA1999999080911MD1210091+9999ME1314959OA149901241REMSYN088AAXX  12114 06751 33/// /2402 10027 21109 38091 48495 52009 333 55306 2//// 91124 91209;
0096067510999992011011212004+46450+008517FM-12+189899999V0203401N001519999999N9999999N1+00271-00731999999ADDMA1999999080911ME1314959REMSYN060AAXX  12124 06751 43/// /3403 10027 21073 38091 48495 5////;
0096067510999992011011213004+46450+008517FM-12+189899999V0203501N003619999999N9999999N1+00051-00571999999ADDMA1999999080931ME1315009REMSYN060AAXX  12134 06751 43/// /3507 10005 21057 38093 48500 5////;
0096067510999992011011214004+46450+008517FM-12+189899999V0203601N002619999999N9999999N1+00121-00541999999ADDMA1999999080941ME1315009REMSYN060AAXX  12144 06751 43/// /3605 10012 21054 38094 48500 5////;
0096067510999992011011215004+46450+008517FM-12+189899999V0209999C002119999999N9999999N1+00081-00331999999ADDMA1999999080961ME1315039REMSYN060AAXX  12154 06751 43/// /0004 10008 21033 38096 48503 5////;
0155067510999992011011216004+46450+008517FM-12+189899999V0203201N000519999999N9999999N1+00041-00101999999ADDMA1999999080981MD1210051+9999ME1315069OA149900571REMSYN094AAXX  12164 06751 23/// /3201 10004 21010 38098 48506 52005 333 55300 20076 69935 91111 91206;
0155067510999992011011217004+46450+008517FM-12+189899999V0203601N004119999999N9999999N1+00211-00311999999ADDMA1999999081021MD1310081+9999ME1315079OA149900721REMSYN094AAXX  12174 06751 23/// /3608 10021 21031 38102 48507 53008 333 55300 20000 69945 91114 91208;
0191067510999992011011218004+46450+008517FM-12+189899999V0200301N000519999999N9999999N1+00151-00211999999ADDAA112002091KA1120M+00281MA1999999081001MD1010041+9999ME1315069OA149901241REMSYN106AAXX  12184 06751 03/// /0301 10015 21021 38100 48506 50004 60022 333 10028 55300 20000 69915 91124 91209;
0149067510999992011011219004+46450+008517FM-12+189899999V0200301N001519999999N9999999N1+00181-00211999999ADDMA1999999081031MD1210051+9999ME1315089OA149900721REMSYN088AAXX  12194 06751 33/// /0303 10018 21021 38103 48508 52005 333 55300 20000 91114 91207;
0155067510999992011011220004+46450+008517FM-12+189899999V0203501N005119999999N9999999N1+00231-00201999999ADDMA1999999081071MD1210051+9999ME1315129OA149900881REMSYN094AAXX  12204 06751 23/// /3510 10023 21020 38107 48512 52005 333 55300 20000 69915 91117 91210;
0155067510999992011011221004+46450+008517FM-12+189899999V0203401N003119999999N9999999N1+00291-00181999999ADDMA1999999081051MD1210051+9999ME1315099OA149900881REMSYN094AAXX  12214 06751 23/// /3406 10029 21018 38105 48509 52005 333 55300 20000 69925 91117 91210;
0155067510999992011011222004+46450+008517FM-12+189899999V0203601N003119999999N9999999N1+00281-00151999999ADDMA1999999081041MD1010011+9999ME1315089OA149900881REMSYN094AAXX  12224 06751 23/// /3606 10028 21015 38104 48508 50001 333 55300 20000 69935 91117 91208;
0155067510999992011011223004+46450+008517FM-12+189899999V0203501N003119999999N9999999N1+00301-00101999999ADDMA1999999081041MD1710031+9999ME1315089OA149900981REMSYN094AAXX  12234 06751 23/// /3506 10030 21010 38104 48508 57003 333 55300 20000 69945 91119 91208;
0172067510999992011011300004+46450+008517FM-12+189899999V0203501N003619999999N9999999N1+00321-00141999999ADDAA106001091MA1999999081011MD1710041+9999ME1315049OA149901131REMSYN100AAXX  13004 06751 03/// /3507 10032 21014 38101 48504 57004 60011 333 55300 20000 69925 91122 91210;
0149067510999992011011301004+46450+008517FM-12+189899999V0203301N004119999999N9999999N1+00401-00151999999ADDMA1999999081001MD1810041+9999ME1315029OA149901341REMSYN088AAXX  13014 06751 33/// /3308 10040 21015 38100 48502 58004 333 55300 20000 91126 91209;
0155067510999992011011302004+46450+008517FM-12+189899999V0200401N000519999999N9999999N1+00321-00071999999ADDMA1999999081001MD1519999+9999ME1315039OA149901341REMSYN094AAXX  13024 06751 23/// /0401 10032 21007 38100 48503 55/// 333 55300 20000 69965 91126 91208;
0096067510999992011011303004+46450+008517FM-12+189899999V0203101N001019999999N9999999N1+00391-00081999999ADDMA1999999080971ME1314999REMSYN060AAXX  13034 06751 43/// /3102 10039 21008 38097 48499 5////;
0155067510999992011011304004+46450+008517FM-12+189899999V0201401N001019999999N9999999N1+00481-00071999999ADDMA1999999080901MD1719999+9999ME1314919OA149900981REMSYN094AAXX  13044 06751 23/// /1402 10048 21007 38090 48491 57/// 333 55300 20000 69965 91119 91205;
0118067510999992011011305004+46450+008517FM-12+189899999V0201501N001519999999N9999999N1+00491-00121999999ADDMA1999999080911ME1314929REMSYN082AAXX  13054 06751 23/// /1503 10049 21012 38091 48492 5//// 333 553// 20000 69935;
0239067510999992011011306004+46450+008517FM-12+189899999V0201801N001519999999N9999999N1+00451-00101999999ADDAA112004191AL10600591GJ101989IA2999+00009KA1999N-00141MA1999999080931MD1510041+9999ME1314949OA149901341REMSYN124AAXX  13064 06751 03/// /1803 10045 21010 38093 48494 55004 60042 333 21014 3/100 55033 55300 20000 69915 70051 91126 91210;
0096067510999992011011307004+46450+008517FM-12+189899999V0200601N000519999999N9999999N1+00411-00091999999ADDMA1999999080951ME1314979REMSYN060AAXX  13074 06751 43/// /0601 10041 21009 38095 48497 5////;
0096067510999992011011308004+46450+008517FM-12+189899999V0209999C002619999999N9999999N1+00481-00181999999ADDMA1999999081031ME1315049REMSYN060AAXX  13084 06751 43/// /0005 10048 21018 38103 48504 5////;
0096067510999992011011309004+46450+008517FM-12+189899999V0200501N002119999999N9999999N1+00431-00151999999ADDMA1999999081041ME1315069REMSYN060AAXX  13094 06751 43/// /0504 10043 21015 38104 48506 5////;
0096067510999992011011310004+46450+008517FM-12+189899999V0203401N001019999999N9999999N1+00471-00111999999ADDMA1999999081071ME1315089REMSYN060AAXX  13104 06751 43/// /3402 10047 21011 38107 48508 5////;
0096067510999992011011311004+46450+008517FM-12+189899999V0203301N001019999999N9999999N1+00591-00191999999ADDMA1999999081041ME1315049REMSYN060AAXX  13114 06751 43/// /3302 10059 21019 38104 48504 5////;
0096067510999992011011312004+46450+008517FM-12+189899999V0203601N001019999999N9999999N1+00731-00461999999ADDMA1999999080981ME1314959REMSYN060AAXX  13124 06751 43/// /3602 10073 21046 38098 48495 5////;
0096067510999992011011313004+46450+008517FM-12+189899999V0203501N005719999999N9999999N1+00651-00531999999ADDMA1999999080991ME1314989REMSYN060AAXX  13134 06751 43/// /3511 10065 21053 38099 48498 5////;
0096067510999992011011314004+46450+008517FM-12+189899999V0203201N002619999999N9999999N1+00601-00501999999ADDMA1999999081001ME1314999REMSYN060AAXX  13144 06751 43/// /3205 10060 21050 38100 48499 5////;
0096067510999992011011315004+46450+008517FM-12+189899999V0202301N003619999999N9999999N1+00571-00421999999ADDMA1999999081001ME1315009REMSYN060AAXX  13154 06751 43/// /2307 10057 21042 38100 48500 5////;
0096067510999992011011316004+46450+008517FM-12+189899999V0203401N001519999999N9999999N1+00531-00401999999ADDMA1999999081061ME1315069REMSYN060AAXX  13164 06751 43/// /3403 10053 21040 38106 48506 5////;
0149067510999992011011317004+46450+008517FM-12+189899999V0202501N001519999999N9999999N1+00561-00331999999ADDMA1999999081061MD1210061+9999ME1315069OA149900931REMSYN088AAXX  13174 06751 33/// /2503 10056 21033 38106 48506 52006 333 55300 20000 91118 91205;
0191067510999992011011318004+46450+008517FM-12+189899999V0203401N003119999999N9999999N1+00591-00291999999ADDAA112000891KA1120M+00731MA1999999081101MD1210091+9999ME1315109OA149901961REMSYN106AAXX  13184 06751 03/// /3406 10059 21029 38110 48510 52009 69972 333 10073 55300 20000 60005 91138 91211;
0149067510999992011011319004+46450+008517FM-12+189899999V0202801N002619999999N9999999N1+00551-00251999999ADDMA1999999081091MD1210031+9999ME1315099OA149901081REMSYN088AAXX  13194 06751 33/// /2805 10055 21025 38109 48509 52003 333 55300 20000 91121 91207;
0149067510999992011011320004+46450+008517FM-12+189899999V0202701N003619999999N9999999N1+00541-00231999999ADDMA1999999081111MD1210051+9999ME1315119OA149901081REMSYN088AAXX  13204 06751 33/// /2707 10054 21023 38111 48511 52005 333 55300 20000 91121 91207;
0149067510999992011011321004+46450+008517FM-12+189899999V0202801N001519999999N9999999N1+00401-00261999999ADDMA1999999081141MD1210041+9999ME1315169OA149901081REMSYN088AAXX  13214 06751 33/// /2803 10040 21026 38114 48516 52004 333 55300 20000 91121 91208;
0149067510999992011011322004+46450+008517FM-12+189899999V0200201N002619999999N9999999N1+00561-00301999999ADDMA1999999081161MD1210071+9999ME1315169OA149900881REMSYN088AAXX  13224 06751 33/// /0205 10056 21030 38116 48516 52007 333 55300 20000 91117 91208;
0149067510999992011011323004+46450+008517FM-12+189899999V0200101N001519999999N9999999N1+00601-00281999999ADDMA1999999081131MD1010021+9999ME1315139OA149900771REMSYN088AAXX  13234 06751 33/// /0103 10060 21028 38113 48513 50002 333 55300 20000 91115 91205;
0149067510999992011011400004+46450+008517FM-12+189899999V0203601N003119999999N9999999N1+00661-00301999999ADDMA1999999081121MD1810021+9999ME1315119OA149901441REMSYN088AAXX  14004 06751 33/// /3606 10066 21030 38112 48511 58002 333 55300 20000 91128 91211;
0149067510999992011011401004+46450+008517FM-12+189899999V0203301N004119999999N9999999N1+00641-00351999999ADDMA1999999081121MD1710041+9999ME1315119OA149900621REMSYN088AAXX  14014 06751 33/// /3308 10064 21035 38112 48511 57004 333 55300 20000 91112 91208;
0112067510999992011011402004+46450+008517FM-12+189899999V0203401N003619999999N9999999N1+00561-00381999999ADDMA1999999081161ME1315169REMSYN076AAXX  14024 06751 33/// /3407 10056 21038 38116 48516 5//// 333 553// 20000;
0149067510999992011011403004+46450+008517FM-12+189899999V0203401N003619999999N9999999N1+00451-00371999999ADDMA1999999081151MD1210031+9999ME1315179OA149900771REMSYN088AAXX  14034 06751 33/// /3407 10045 21037 38115 48517 52003 333 55300 20000 91115 91209;
0149067510999992011011404004+46450+008517FM-12+189899999V0203501N003619999999N9999999N1+00591-00421999999ADDMA1999999081121MD1010001+9999ME1315129OA149900671REMSYN088AAXX  14044 06751 33/// /3507 10059 21042 38112 48512 50000 333 55300 20000 91113 91209;
0149067510999992011011405004+46450+008517FM-12+189899999V0203101N004619999999N9999999N1+00701-00551999999ADDMA1999999081121MD1710041+9999ME1315109OA149900771REMSYN088AAXX  14054 06751 33/// /3109 10070 21055 38112 48510 57004 333 55300 20000 91115 91210;
0216067510999992011011406004+46450+008517FM-12+189899999V0202701N001519999999N9999999N1+00511-00621999999ADDAL14200091GJ101689IA2999+00009KA1999N+00381MA1999999081111MD1710041+9999ME1315129OA149901081REMSYN112AAXX  14064 06751 33/// /2703 10051 21062 38111 48512 57004 333 20038 3/100 55028 55300 20000 70007 91121 91210;
0149067510999992011011407004+46450+008517FM-12+189899999V0202501N002619999999N9999999N1+00441-00741999999ADDMA1999999081131MD1210011+9999ME1315159OA149900881REMSYN088AAXX  14074 06751 33/// /2505 10044 21074 38113 48515 52001 333 55300 20000 91117 91210;
0096067510999992011011408004+46450+008517FM-12+189899999V0200301N000519999999N9999999N1+00531-00811999999ADDMA1999999081161ME1315179REMSYN060AAXX  14084 06751 43/// /0301 10053 21081 38116 48517 5////;
0096067510999992011011409004+46450+008517FM-12+189899999V0202901N000519999999N9999999N1+00471-00741999999ADDMA1999999081171ME1315189REMSYN060AAXX  14094 06751 43/// /2901 10047 21074 38117 48518 5////;
0096067510999992011011410004+46450+008517FM-12+189899999V0202701N001519999999N9999999N1+00531-00791999999ADDMA1999999081201ME1315219REMSYN060AAXX  14104 06751 43/// /2703 10053 21079 38120 48521 5////;
0149067510999992011011411004+46450+008517FM-12+189899999V0202701N002619999999N9999999N1+00471-00731999999ADDMA1999999081211MD1210051+9999ME1315239OA149900621REMSYN088AAXX  14114 06751 33/// /2705 10047 21073 38121 48523 52005 333 553// 2//// 91112 91205;
0149067510999992011011412004+46450+008517FM-12+189899999V0202601N003119999999N9999999N1+00441-00661999999ADDMA1999999081181MD1010011+9999ME1315209OA149900881REMSYN088AAXX  14124 06751 33/// /2606 10044 21066 38118 48520 50001 333 553// 2//// 91117 91210;
0149067510999992011011413004+46450+008517FM-12+189899999V0202801N001519999999N9999999N1+00471-00641999999ADDMA1999999081141MD1710061+9999ME1315159OA149900721REMSYN088AAXX  14134 06751 33/// /2803 10047 21064 38114 48515 57006 333 553// 2//// 91114 91207;
0112067510999992011011414004+46450+008517FM-12+189899999V0202501N003619999999N9999999N1+00471-00801999999ADDMA1999999081121ME1315139REMSYN076AAXX  14144 06751 33/// /2507 10047 21080 38112 48513 5//// 333 553// 2////;
0149067510999992011011415004+46450+008517FM-12+189899999V0202901N001019999999N9999999N1+00381-00631999999ADDMA1999999081131MD1710051+9999ME1315169OA149900721REMSYN088AAXX  14154 06751 33/// /2902 10038 21063 38113 48516 57005 333 55301 20324 91114 91208;
0149067510999992011011416004+46450+008517FM-12+189899999V0202801N002119999999N9999999N1+00331-00831999999ADDMA1999999081121MD1710021+9999ME1315159OA149900671REMSYN088AAXX  14164 06751 33/// /2804 10033 21083 38112 48515 57002 333 55300 20101 91113 91207;
0149067510999992011011417004+46450+008517FM-12+189899999V0200401N000519999999N9999999N1+00301-00721999999ADDMA1999999081141MD1310021+9999ME1315189OA149900721REMSYN088AAXX  14174 06751 33/// /0401 10030 21072 38114 48518 53002 333 55300 20000 91114 91207;
0168067510999992011011418004+46450+008517FM-12+189899999V0202601N002119999999N9999999N1+00221-00911999999ADDKA1120M+00631MA1999999081131MD1010001+9999ME1315189OA149900721REMSYN094AAXX  14184 06751 33/// /2604 10022 21091 38113 48518 50000 333 10063 55300 20000 91114 91208;
0149067510999992011011419004+46450+008517FM-12+189899999V0203601N000519999999N9999999N1+00371-00841999999ADDMA1999999081101MD1810021+9999ME1315139OA149900621REMSYN088AAXX  14194 06751 33/// /3601 10037 21084 38110 48513 58002 333 55300 20000 91112 91204;
0149067510999992011011420004+46450+008517FM-12+189899999V0203001N001019999999N9999999N1+00221-00901999999ADDMA1999999081071MD1710071+9999ME1315129OA149900571REMSYN088AAXX  14204 06751 33/// /3002 10022 21090 38107 48512 57007 333 55300 20000 91111 91204;
0149067510999992011011421004+46450+008517FM-12+189899999V0203301N001019999999N9999999N1+00301-00841999999ADDMA1999999081051MD1710081+9999ME1315099OA149900771REMSYN088AAXX  14214 06751 33/// /3302 10030 21084 38105 48509 57008 333 55300 20000 91115 91207;
0149067510999992011011422004+46450+008517FM-12+189899999V0200401N001019999999N9999999N1+00291-00861999999ADDMA1999999081021MD1710081+9999ME1315069OA149900981REMSYN088AAXX  14224 06751 33/// /0402 10029 21086 38102 48506 57008 333 55300 20000 91119 91204;
0149067510999992011011423004+46450+008517FM-12+189899999V0203401N001019999999N9999999N1+00301-01151999999ADDMA1999999080981MD1710091+9999ME1315029OA149900981REMSYN088AAXX  14234 06751 33/// /3402 10030 21115 38098 48502 57009 333 55300 20000 91119 91204;
0149067510999992011011500004+46450+008517FM-12+189899999V0203401N004619999999N9999999N1+00351-01351999999ADDMA1999999080941MD1710111+9999ME1314979OA149901031REMSYN088AAXX  15004 06751 33/// /3409 10035 21135 38094 48497 57011 333 55300 20000 91120 91212;
0149067510999992011011501004+46450+008517FM-12+189899999V0203401N007219999999N9999999N1+00181-00871999999ADDMA1999999081111MD1310091+9999ME1315179OA149901701REMSYN088AAXX  15014 06751 33/// /3414 10018 21087 38111 48517 53009 333 55300 20000 91133 91223;
0149067510999992011011502004+46450+008517FM-12+189899999V0200201N004619999999N9999999N1+00151-00761999999ADDMA1999999081081MD1219999+9999ME1315149OA149901701REMSYN088AAXX  15024 06751 33/// /0209 10015 21076 38108 48514 52/// 333 55300 20000 91133 91223;
0112067510999992011011503004+46450+008517FM-12+189899999V0200701N000519999999N9999999N1+00061-00561999999ADDMA1999999081101ME1315179REMSYN076AAXX  15034 06751 33/// /0701 10006 21056 38110 48517 5//// 333 553// 20000;
0149067510999992011011504004+46450+008517FM-12+189899999V0201801N000519999999N9999999N1+00041-00491999999ADDMA1999999081151MD1210041+9999ME1315239OA149900931REMSYN088AAXX  15044 06751 33/// /1801 10004 21049 38115 48523 52004 333 55300 20000 91118 91209;
0149067510999992011011505004+46450+008517FM-12+189899999V0202601N001519999999N9999999N1+00101-00701999999ADDMA1999999081231MD1210151+9999ME1315309OA149901541REMSYN088AAXX  15054 06751 33/// /2603 10010 21070 38123 48530 52015 333 55300 20000 91130 91206;
0216067510999992011011506004+46450+008517FM-12+189899999V0203101N003119999999N9999999N1+00081-00921999999ADDAL19900091GJ103249IA2999+00009KA1999N+00031MA1999999081261MD1110161+9999ME1315339OA149901701REMSYN112AAXX  15064 06751 33/// /3106 10008 21092 38126 48533 51016 333 20003 3/100 55054 55300 20000 70000 91133 91223;
0149067510999992011011507004+46450+008517FM-12+189899999V0203101N005119999999N9999999N1+00071-00791999999ADDMA1999999081311MD1110161+9999ME1315389OA149901651REMSYN088AAXX  15074 06751 33/// /3110 10007 21079 38131 48538 51016 333 55300 20000 91132 91213;
0149067510999992011011508004+46450+008517FM-12+189899999V0203101N004119999999N9999999N1+00081-01011999999ADDMA1999999081371MD1319999+9999ME1315449OA149901651REMSYN088AAXX  15084 06751 33/// /3108 10008 21101 38137 48544 53/// 333 55300 20032 91132 91213;
0149067510999992011011509004+46450+008517FM-12+189899999V0203301N006719999999N9999999N1+00151-00971999999ADDMA1999999081481MD1310221+9999ME1315549OA149901651REMSYN088AAXX  15094 06751 33/// /3313 10015 21097 38148 48554 53022 333 55303 20338 91132 91213;
0149067510999992011011510004+46450+008517FM-12+189899999V0209999C003619999999N9999999N1+00231-01071999999ADDMA1999999081471MD1210161+9999ME1315529OA149901391REMSYN088AAXX  15104 06751 33/// /0007 10023 21107 38147 48552 52016 333 553// 2//// 91127 91213;
0149067510999992011011511004+46450+008517FM-12+189899999V0200301N005119999999N9999999N1+00501-01671999999ADDMA1999999081451MD1010081+9999ME1315469OA149901181REMSYN088AAXX  15114 06751 33/// /0310 10050 21167 38145 48546 50008 333 553// 2//// 91123 91211;
0149067510999992011011512004+46450+008517FM-12+189899999V0200201N004119999999N9999999N1+00651-01861999999ADDMA1999999081421MD1710061+9999ME1315419OA149901701REMSYN088AAXX  15124 06751 33/// /0208 10065 21186 38142 48541 57006 333 553// 2//// 91133 91223;
0112067510999992011011513004+46450+008517FM-12+189899999V0202601N001519999999N9999999N1+00431-01311999999ADDMA1999999081411ME1315439REMSYN076AAXX  15134 06751 33/// /2603 10043 21131 38141 48543 5//// 333 553// 2////;
0096067510999992011011514004+46450+008517FM-12+189899999V0202601N001019999999N9999999N1+00301-01001999999ADDMA1999999081471ME1315519REMSYN060AAXX  15144 06751 43/// /2602 10030 21100 38147 48551 5////;
0096067510999992011011515004+46450+008517FM-12+189899999V0200401N000519999999N9999999N1+00271-00901999999ADDMA1999999081511ME1315559REMSYN060AAXX  15154 06751 43/// /0401 10027 21090 38151 48555 5////;
0096067510999992011011516004+46450+008517FM-12+189899999V0203301N000519999999N9999999N1+00241-01081999999ADDMA1999999081591ME1315649REMSYN060AAXX  15164 06751 43/// /3301 10024 21108 38159 48564 5////;
0112067510999992011011517004+46450+008517FM-12+189899999V0203601N000519999999N9999999N1+00201-01051999999ADDMA1999999081611ME1315669REMSYN076AAXX  15174 06751 33/// /3601 10020 21105 38161 48566 5//// 333 553// 20000;
0119067510999992011011518004+46450+008517FM-12+189899999V0200401N001019999999N9999999N1+00371-00971999999ADDKA1999M+00701MA1999999081661ME1315699REMSYN070AAXX  15184 06751 43/// /0402 10037 21097 38166 48569 5//// 333 10070;
0096067510999992011011519004+46450+008517FM-12+189899999V0209999C000019999999N9999999N1+00351-00851999999ADDMA1999999081691ME1315729REMSYN060AAXX  15194 06751 43/// /0000 10035 21085 38169 48572 5////;
0096067510999992011011520004+46450+008517FM-12+189899999V0203501N000519999999N9999999N1+00331-00781999999ADDMA1999999081721ME1315769REMSYN060AAXX  15204 06751 43/// /3501 10033 21078 38172 48576 5////;
0149067510999992011011521004+46450+008517FM-12+189899999V0202401N001519999999N9999999N1+00571-00621999999ADDMA1999999081741MD1110081+9999ME1315759OA149900671REMSYN088AAXX  15214 06751 33/// /2403 10057 21062 38174 48575 51008 333 55300 20000 91113 91207;
0149067510999992011011522004+46450+008517FM-12+189899999V0202701N001019999999N9999999N1+00481-00561999999ADDMA1999999081751MD1210061+9999ME1315779OA149900671REMSYN088AAXX  15224 06751 33/// /2702 10048 21056 38175 48577 52006 333 55300 20000 91113 91207;
0149067510999992011011523004+46450+008517FM-12+189899999V0202901N002619999999N9999999N1+00471-00571999999ADDMA1999999081751MD1210031+9999ME1315779OA149900571REMSYN088AAXX  15234 06751 33/// /2905 10047 21057 38175 48577 52003 333 55300 20000 91111 91205;
0149067510999992011011600004+46450+008517FM-12+189899999V0202601N001519999999N9999999N1+00471-00581999999ADDMA1999999081731MD1810011+9999ME1315759OA149900821REMSYN088AAXX  16004 06751 33/// /2603 10047 21058 38173 48575 58001 333 55300 20000 91116 91209;
0149067510999992011011601004+46450+008517FM-12+189899999V0202601N001519999999N9999999N1+00411-00591999999ADDMA1999999081741MD1710011+9999ME1315779OA149900671REMSYN088AAXX  16014 06751 33/// /2603 10041 21059 38174 48577 57001 333 55300 20000 91113 91207;
0149067510999992011011602004+46450+008517FM-12+189899999V0203001N001019999999N9999999N1+00321-00511999999ADDMA1999999081771MD1319999+9999ME1315819OA149900511REMSYN088AAXX  16024 06751 33/// /3002 10032 21051 38177 48581 53/// 333 55300 20000 91110 91204;
0096067510999992011011603004+46450+008517FM-12+189899999V0200501N000519999999N9999999N1+00301-00551999999ADDMA1999999081771ME1315819REMSYN060AAXX  16034 06751 43/// /0501 10030 21055 38177 48581 5////;
0149067510999992011011604004+46450+008517FM-12+189899999V0203301N000519999999N9999999N1+00261-00531999999ADDMA1999999081781MD1210041+9999ME1315839OA149900571REMSYN088AAXX  16044 06751 33/// /3301 10026 21053 38178 48583 52004 333 55300 20000 91111 91204;
0149067510999992011011605004+46450+008517FM-12+189899999V0200201N000519999999N9999999N1+00201-00611999999ADDMA1999999081811MD1210041+9999ME1315869OA149900721REMSYN088AAXX  16054 06751 33/// /0201 10020 21061 38181 48586 52004 333 55300 20000 91114 91206;
0216067510999992011011606004+46450+008517FM-12+189899999V0202701N002119999999N9999999N1+00261-00661999999ADDAL19900091GJ103249IA2999+00009KA1999N+00201MA1999999081841MD1210071+9999ME1315899OA149900721REMSYN112AAXX  16064 06751 33/// /2704 10026 21066 38184 48589 52007 333 20020 3/100 55054 55300 20000 70000 91114 91207;
0149067510999992011011607004+46450+008517FM-12+189899999V0202901N001019999999N9999999N1+00311-00651999999ADDMA1999999081851MD1210071+9999ME1315899OA149900621REMSYN088AAXX  16074 06751 33/// /2902 10031 21065 38185 48589 52007 333 55300 20000 91112 91204;
0149067510999992011011608004+46450+008517FM-12+189899999V0209999C000519999999N9999999N1+00311-00661999999ADDMA1999999081871MD1219999+9999ME1315919OA149900621REMSYN088AAXX  16084 06751 33/// /0001 10031 21066 38187 48591 52/// 333 55300 20036 91112 91204;
0149067510999992011011609004+46450+008517FM-12+189899999V0202601N003619999999N9999999N1+00401-00651999999ADDMA1999999081901MD1210061+9999ME1315939OA149900721REMSYN088AAXX  16094 06751 33/// /2607 10040 21065 38190 48593 52006 333 55303 20356 91114 91207;
0149067510999992011011610004+46450+008517FM-12+189899999V0202601N003619999999N9999999N1+00531-00621999999ADDMA1999999081921MD1210071+9999ME1315939OA149900671REMSYN088AAXX  16104 06751 33/// /2607 10053 21062 38192 48593 52007 333 553// 2//// 91113 91207;
0149067510999992011011611004+46450+008517FM-12+189899999V0202701N002619999999N9999999N1+00491-00521999999ADDMA1999999081931MD1110061+9999ME1315959OA149900671REMSYN088AAXX  16114 06751 33/// /2705 10049 21052 38193 48595 51006 333 553// 2//// 91113 91207;
0149067510999992011011612004+46450+008517FM-12+189899999V0203601N000519999999N9999999N1+00531-00431999999ADDMA1999999081911MD1010011+9999ME1315929OA149900721REMSYN088AAXX  16124 06751 33/// /3601 10053 21043 38191 48592 50001 333 553// 2//// 91114 91207;
0149067510999992011011613004+46450+008517FM-12+189899999V0202601N003619999999N9999999N1+00521-00601999999ADDMA1999999081891MD1710031+9999ME1315919OA149900671REMSYN088AAXX  16134 06751 33/// /2607 10052 21060 38189 48591 57003 333 553// 2//// 91113 91207;
0149067510999992011011614004+46450+008517FM-12+189899999V0202601N003119999999N9999999N1+00471-00551999999ADDMA1999999081881MD1619999+9999ME1315909OA149900721REMSYN088AAXX  16144 06751 33/// /2606 10047 21055 38188 48590 56/// 333 553// 2//// 91114 91208;
0149067510999992011011615004+46450+008517FM-12+189899999V0202601N003619999999N9999999N1+00341-00721999999ADDMA1999999081881MD1710031+9999ME1315929OA149900721REMSYN088AAXX  16154 06751 33/// /2607 10034 21072 38188 48592 57003 333 55302 20274 91114 91208;
0149067510999992011011616004+46450+008517FM-12+189899999V0202801N001519999999N9999999N1+00281-00681999999ADDMA1999999081891MD1010001+9999ME1315939OA149900671REMSYN088AAXX  16164 06751 33/// /2803 10028 21068 38189 48593 50000 333 55300 20043 91113 91207;
0149067510999992011011617004+46450+008517FM-12+189899999V0202801N002119999999N9999999N1+00311-00841999999ADDMA1999999081911MD1210031+9999ME1315959OA149900721REMSYN088AAXX  16174 06751 33/// /2804 10031 21084 38191 48595 52003 333 55300 20000 91114 91207;
0168067510999992011011618004+46450+008517FM-12+189899999V0203001N001019999999N9999999N1+00211-00831999999ADDKA1120M+00581MA1999999081931MD1310051+9999ME1315989OA149900721REMSYN094AAXX  16184 06751 33/// /3002 10021 21083 38193 48598 53005 333 10058 55300 20000 91114 91208;
0149067510999992011011619004+46450+008517FM-12+189899999V0202701N002119999999N9999999N1+00211-00881999999ADDMA1999999081941MD1110051+9999ME1315999OA149900721REMSYN088AAXX  16194 06751 33/// /2704 10021 21088 38194 48599 51005 333 55300 20000 91114 91205;
0149067510999992011011620004+46450+008517FM-12+189899999V0202701N001519999999N9999999N1+00131-00811999999ADDMA1999999081931MD1210021+9999ME1315999OA149900671REMSYN088AAXX  16204 06751 33/// /2703 10013 21081 38193 48599 52002 333 55300 20000 91113 91204;
0149067510999992011011621004+46450+008517FM-12+189899999V0202901N001519999999N9999999N1+00091-00831999999ADDMA1999999081921MD1810011+9999ME1315989OA149900721REMSYN088AAXX  16214 06751 33/// /2903 10009 21083 38192 48598 58001 333 55300 20000 91114 91207;
0149067510999992011011622004+46450+008517FM-12+189899999V0203201N001019999999N9999999N1+00131-00841999999ADDMA1999999081901MD1810041+9999ME1315969OA149900671REMSYN088AAXX  16224 06751 33/// /3202 10013 21084 38190 48596 58004 333 55300 20000 91113 91206;
0149067510999992011011623004+46450+008517FM-12+189899999V0202701N002119999999N9999999N1+00091-01071999999ADDMA1999999081881MD1810051+9999ME1315949OA149900671REMSYN088AAXX  16234 06751 33/// /2704 10009 21107 38188 48594 58005 333 55300 20000 91113 91206;
0149067510999992011011700004+46450+008517FM-12+189899999V0200101N000519999999N9999999N1-00011-00961999999ADDMA1999999081861MD1810061+9999ME1315949OA149900721REMSYN088AAXX  17004 06751 33/// /0101 11001 21096 38186 48594 58006 333 55300 20000 91114 91208;
0149067510999992011011701004+46450+008517FM-12+189899999V0203001N001519999999N9999999N1+00081-01091999999ADDMA1999999081821MD1810081+9999ME1315899OA149900671REMSYN088AAXX  17014 06751 33/// /3003 10008 21109 38182 48589 58008 333 55300 20000 91113 91206;
0149067510999992011011702004+46450+008517FM-12+189899999V0202901N001519999999N9999999N1+00011-01171999999ADDMA1999999081801MD1619999+9999ME1315879OA149900721REMSYN088AAXX  17024 06751 33/// /2903 10001 21117 38180 48587 56/// 333 55300 20000 91114 91206;
0112067510999992011011703004+46450+008517FM-12+189899999V0202901N001519999999N9999999N1+00011-01171999999ADDMA1999999081781ME1315859REMSYN076AAXX  17034 06751 33/// /2903 10001 21117 38178 48585 5//// 333 553// 20000;
0149067510999992011011704004+46450+008517FM-12+189899999V0203001N001519999999N9999999N1+00011-01231999999ADDMA1999999081761MD1610061+9999ME1315849OA149900721REMSYN088AAXX  17044 06751 33/// /3003 10001 21123 38176 48584 56006 333 55300 20000 91114 91207;
0149067510999992011011705004+46450+008517FM-12+189899999V0202701N002619999999N9999999N1-00061-01251999999ADDMA1999999081711MD1810091+9999ME1315799OA149900721REMSYN088AAXX  17054 06751 33/// /2705 11006 21125 38171 48579 58009 333 55300 20000 91114 91206;
0216067510999992011011706004+46450+008517FM-12+189899999V0202801N001519999999N9999999N1+00001-01321999999ADDAL19900091GJ103309IA2999+00009KA1999N-00091MA1999999081701MD1610081+9999ME1315789OA149900721REMSYN112AAXX  17064 06751 33/// /2803 10000 21132 38170 48578 56008 333 21009 3/100 55055 55300 20000 70000 91114 91207;
0149067510999992011011707004+46450+008517FM-12+189899999V0202701N003119999999N9999999N1-00071-01361999999ADDMA1999999081691MD1610071+9999ME1315789OA149900771REMSYN088AAXX  17074 06751 33/// /2706 11007 21136 38169 48578 56007 333 55300 20000 91115 91206;
0096067510999992011011708004+46450+008517FM-12+189899999V0202901N001519999999N9999999N1-00061-01461999999ADDMA1999999081701ME1315789REMSYN060AAXX  17084 06751 43/// /2903 11006 21146 38170 48578 5////;
0096067510999992011011709004+46450+008517FM-12+189899999V0202901N001519999999N9999999N1+00021-01341999999ADDMA1999999081691ME1315769REMSYN060AAXX  17094 06751 43/// /2903 10002 21134 38169 48576 5////;
0168067510999992011011710004+46450+008517FM-12+189899999V0202701N003119999999N9999999N1+00171-01271999999ADDMA1999999081691MD1410001+9999ME1315759OA149900671REMSYN088AAXX  17104 06751 33/// /2706 10017 21127 38169 48575 52000 333 553// 2//// 91113 91207;EQDQ01+000022APCTEN
0149067510999992011011711004+46450+008517FM-12+189899999V0202601N002619999999N9999999N1+00231-01251999999ADDMA1999999081661MD1710041+9999ME1315719OA149900671REMSYN088AAXX  17114 06751 33/// /2605 10023 21125 38166 48571 57004 333 553// 2//// 91113 91207;
0149067510999992011011712004+46450+008517FM-12+189899999V0202601N003119999999N9999999N1+00251-01251999999ADDMA1999999081621MD1710071+9999ME1315679OA149900771REMSYN088AAXX  17124 06751 33/// /2606 10025 21125 38162 48567 57007 333 553// 2//// 91115 91208;
0149067510999992011011713004+46450+008517FM-12+189899999V0202601N003619999999N9999999N1+00261-01221999999ADDMA1999999081581MD1810111+9999ME1315639OA149900671REMSYN088AAXX  17134 06751 33/// /2607 10026 21122 38158 48563 58011 333 553// 2//// 91113 91208;
0096067510999992011011714004+46450+008517FM-12+189899999V0202601N004619999999N9999999N1+00211-01271999999ADDMA1999999081561ME1315619REMSYN060AAXX  17144 06751 43/// /2609 10021 21127 38156 48561 5////;
0096067510999992011011715004+46450+008517FM-12+189899999V0203101N001019999999N9999999N1+00121-01181999999ADDMA1999999081561ME1315629REMSYN060AAXX  17154 06751 43/// /3102 10012 21118 38156 48562 5////;
0149067510999992011011716004+46450+008517FM-12+189899999V0203201N001019999999N9999999N1+00181-01141999999ADDMA1999999081541MD1710041+9999ME1315609OA149900771REMSYN088AAXX  17164 06751 33/// /3202 10018 21114 38154 48560 57004 333 55300 20047 91115 91208;
0149067510999992011011717004+46450+008517FM-12+189899999V0209999C000019999999N9999999N1+00221-01161999999ADDMA1999999081531MD1710031+9999ME1315589OA149900771REMSYN088AAXX  17174 06751 33/// /0000 10022 21116 38153 48558 57003 333 55300 20000 91115 91207;
0168067510999992011011718004+46450+008517FM-12+189899999V0202801N003119999999N9999999N1+00251-01111999999ADDKA1120M+00381MA1999999081541MD1510021+9999ME1315599OA149900821REMSYN094AAXX  17184 06751 33/// /2806 10025 21111 38154 48559 55002 333 10038 55300 20000 91116 91209;
0149067510999992011011719004+46450+008517FM-12+189899999V0203401N003119999999N9999999N1+00411-01241999999ADDMA1999999081551MD1210011+9999ME1315589OA149900821REMSYN088AAXX  17194 06751 33/// /3406 10041 21124 38155 48558 52001 333 55300 20000 91116 91209;
0149067510999992011011720004+46450+008517FM-12+189899999V0202601N002119999999N9999999N1+00231-01211999999ADDMA1999999081531MD1010001+9999ME1315589OA149900621REMSYN088AAXX  17204 06751 33/// /2604 10023 21121 38153 48558 50000 333 55300 20000 91112 91208;
0149067510999992011011721004+46450+008517FM-12+189899999V0202801N002119999999N9999999N1+00241-01291999999ADDMA1999999081521MD1710021+9999ME1315579OA149900821REMSYN088AAXX  17214 06751 33/// /2804 10024 21129 38152 48557 57002 333 55300 20000 91116 91209;
0149067510999992011011722004+46450+008517FM-12+189899999V0202701N002619999999N9999999N1+00151-01311999999ADDMA1999999081521MD1710031+9999ME1315589OA149900721REMSYN088AAXX  17224 06751 33/// /2705 10015 21131 38152 48558 57003 333 55300 20000 91114 91207;
0149067510999992011011723004+46450+008517FM-12+189899999V0209999C003619999999N9999999N1+00381-01381999999ADDMA1999999081531MD1510001+9999ME1315569OA149900771REMSYN088AAXX  17234 06751 33/// /0007 10038 21138 38153 48556 55000 333 55300 20000 91115 91207;
0149067510999992011011800004+46450+008517FM-12+189899999V0200101N003619999999N9999999N1+00321-01321999999ADDMA1999999081511MD1710011+9999ME1315559OA149900821REMSYN088AAXX  18004 06751 33/// /0107 10032 21132 38151 48555 57001 333 55300 20000 91116 91209;
0149067510999992011011801004+46450+008517FM-12+189899999V0200101N003619999999N9999999N1+00351-01311999999ADDMA1999999081481MD1819999+9999ME1315519OA149900821REMSYN088AAXX  18014 06751 33/// /0107 10035 21131 38148 48551 58/// 333 55300 20000 91116 91208;
0096067510999992011011802004+46450+008517FM-12+189899999V0203501N002119999999N9999999N1+00291-01171999999ADDMA1999999081471ME1315519REMSYN060AAXX  18024 06751 43/// /3504 10029 21117 38147 48551 5////;
0096067510999992011011803004+46450+008517FM-12+189899999V0203201N006219999999N9999999N1+00331-01121999999ADDMA1999999081461ME1315509REMSYN060AAXX  18034 06751 43/// /3212 10033 21112 38146 48550 5////;
0112067510999992011011804004+46450+008517FM-12+189899999V0202801N001519999999N9999999N1+00151-01111999999ADDMA1999999081421ME1315489REMSYN076AAXX  18044 06751 33/// /2803 10015 21111 38142 48548 5//// 333 553// 20000;
0149067510999992011011805004+46450+008517FM-12+189899999V0202701N002119999999N9999999N1+00121-01291999999ADDMA1999999081381MD1710091+9999ME1315449OA149900931REMSYN088AAXX  18054 06751 33/// /2704 10012 21129 38138 48544 57009 333 55300 20000 91118 91211;
0216067510999992011011806004+46450+008517FM-12+189899999V0202601N002619999999N9999999N1+00051-01311999999ADDAL19900091GJ103369IA2999+00009KA1999N+00011MA1999999081381MD1710081+9999ME1315459OA149901031REMSYN112AAXX  18064 06751 33/// /2605 10005 21131 38138 48545 57008 333 20001 3/100 55056 55300 20000 70000 91120 91213;
0149067510999992011011807004+46450+008517FM-12+189899999V0202501N003619999999N9999999N1+00031-01281999999ADDMA1999999081371MD1710051+9999ME1315459OA149900621REMSYN088AAXX  18074 06751 33/// /2507 10003 21128 38137 48545 57005 333 55300 20000 91112 91207;
