0140067560999992011010100004+46467+008933FM-12+055299999V0203301N002119999999N9999999N1-00191-00581102451ADDMA1999999095341MD1010021+9999OA149900361REMSYN088AAXX  01004 06756 33/// /3304 11019 21058 39534 40245 50002 333 55300 20011 91107 91205;
0140067560999992011010101004+46467+008933FM-12+055299999V0203301N002119999999N9999999N1-00151-00621102361ADDMA1999999095271MD1810091+9999OA149900361REMSYN088AAXX  01014 06756 33/// /3304 11015 21062 39527 40236 58009 333 55300 20011 91107 91205;
0140067560999992011010102004+46467+008933FM-12+055299999V0203301N002119999999N9999999N1-00301-00601102421ADDMA1999999095281MD1710091+9999OA149900361REMSYN088AAXX  01024 06756 33/// /3304 11030 21060 39528 40242 57009 333 55300 20011 91107 91205;
0140067560999992011010103004+46467+008933FM-12+055299999V0203201N001019999999N9999999N1-00291-00611102421ADDMA1999999095291MD1510051+9999OA149900361REMSYN088AAXX  01034 06756 33/// /3202 11029 21061 39529 40242 55005 333 55300 20011 91107 91205;
0140067560999992011010104004+46467+008933FM-12+055299999V0203301N001519999999N9999999N1-00281-00661102401ADDMA1999999095271MD1010001+9999OA149900311REMSYN088AAXX  01044 06756 33/// /3303 11028 21066 39527 40240 50000 333 55300 20011 91106 91204;
0140067560999992011010105004+46467+008933FM-12+055299999V0203401N002119999999N9999999N1-00271-00681102361ADDMA1999999095241MD1710041+9999OA149900311REMSYN088AAXX  01054 06756 33/// /3404 11027 21068 39524 40236 57004 333 55300 20011 91106 91204;
0207067560999992011010106004+46467+008933FM-12+055299999V0203401N002119999999N9999999N1-00301-00701102341ADDAL19900091GJ102649IA2999-00609KA1999N-00351MA1999999095211MD1710081+9999OA149900361REMSYN112AAXX  01064 06756 33/// /3404 11030 21070 39521 40234 57008 333 21035 3/106 55044 55300 20011 70000 91107 91205;
0140067560999992011010107004+46467+008933FM-12+055299999V0203401N002619999999N9999999N1-00291-00731102311ADDMA1999999095181MD1610091+9999OA149900311REMSYN088AAXX  01074 06756 33/// /3405 11029 21073 39518 40231 56009 333 55300 20011 91106 91205;
0140067560999992011010108004+46467+008933FM-12+055299999V0203301N000519999999N9999999N1-00341-00681102311ADDMA1999999095171MD1619999+9999OA149900311REMSYN088AAXX  01084 06756 33/// /3301 11034 21068 39517 40231 56/// 333 55300 20032 91106 91205;
0087067560999992011010109004+46467+008933FM-12+055299999V0203401N002119999999N9999999N1-00131-00731102211ADDMA1999999095131REMSYN060AAXX  01094 06756 43/// /3404 11013 21073 39513 40221 5////;
0087067560999992011010110004+46467+008933FM-12+055299999V0203501N001019999999N9999999N1+00081-00601102111ADDMA1999999095091REMSYN060AAXX  01104 06756 43/// /3502 10008 21060 39509 40211 5////;
0140067560999992011010111004+46467+008933FM-12+055299999V0201401N001519999999N9999999N1+00201-00621102011ADDMA1999999095031MD1810141+9999OA149900261REMSYN088AAXX  01114 06756 33/// /1403 10020 21062 39503 40201 58014 333 553// 2//// 91105 91203;
0087067560999992011010112004+46467+008933FM-12+055299999V0201701N001519999999N9999999N1+00221-00611101931ADDMA1999999094961REMSYN060AAXX  01124 06756 43/// /1703 10022 21061 39496 40193 5////;
0087067560999992011010113004+46467+008933FM-12+055299999V0201701N000519999999N9999999N1+00221-00661101871ADDMA1999999094901REMSYN060AAXX  01134 06756 43/// /1701 10022 21066 39490 40187 5////;
0087067560999992011010114004+46467+008933FM-12+055299999V0203401N001019999999N9999999N1+00011-00451101861ADDMA1999999094841REMSYN060AAXX  01144 06756 43/// /3402 10001 21045 39484 40186 5////;
0087067560999992011010115004+46467+008933FM-12+055299999V0203601N000519999999N9999999N1-00061-00531101881ADDMA1999999094841REMSYN060AAXX  01154 06756 43/// /3601 11006 21053 39484 40188 5////;
0087067560999992011010116004+46467+008933FM-12+055299999V0203201N001019999999N9999999N1-00111-00561101881ADDMA1999999094831REMSYN060AAXX  01164 06756 43/// /3202 11011 21056 39483 40188 5////;
0087067560999992011010117004+46467+008933FM-12+055299999V0203301N001519999999N9999999N1-00101-00621101851ADDMA1999999094801REMSYN060AAXX  01174 06756 43/// /3303 11010 21062 39480 40185 5////;
0087067560999992011010118004+46467+008933FM-12+055299999V0203401N001519999999N9999999N1-00161-00611101851ADDMA1999999094791REMSYN060AAXX  01184 06756 43/// /3403 11016 21061 39479 40185 5////;
0103067560999992011010119004+46467+008933FM-12+055299999V0203301N001019999999N9999999N1-00251-00611101851ADDMA1999999094771REMSYN076AAXX  01194 06756 33/// /3302 11025 21061 39477 40185 5//// 333 553// 20011;
0140067560999992011010120004+46467+008933FM-12+055299999V0203301N001519999999N9999999N1-00261-00631101861ADDMA1999999094771MD1710031+9999OA149900311REMSYN088AAXX  01204 06756 33/// /3303 11026 21063 39477 40186 57003 333 55300 20011 91106 91203;
0140067560999992011010121004+46467+008933FM-12+055299999V0203501N001519999999N9999999N1-00251-00601101821ADDMA1999999094741MD1710051+9999OA149900311REMSYN088AAXX  01214 06756 33/// /3503 11025 21060 39474 40182 57005 333 55300 20011 91106 91204;
0140067560999992011010122004+46467+008933FM-12+055299999V0203201N001519999999N9999999N1-00211-00651101801ADDMA1999999094731MD1710041+9999OA149900361REMSYN088AAXX  01224 06756 33/// /3203 11021 21065 39473 40180 57004 333 55300 20011 91107 91204;
0140067560999992011010123004+46467+008933FM-12+055299999V0203401N001519999999N9999999N1-00301-00611101771ADDMA1999999094681MD1810091+9999OA149900361REMSYN088AAXX  01234 06756 33/// /3403 11030 21061 39468 40177 58009 333 55300 20011 91107 91204;
0140067560999992011010200004+46467+008933FM-12+055299999V0203601N001019999999N9999999N1-00371-00641101721ADDMA1999999094611MD1810131+9999OA149900361REMSYN088AAXX  02004 06756 33/// /3602 11037 21064 39461 40172 58013 333 55300 20011 91107 91204;
0140067560999992011010201004+46467+008933FM-12+055299999V0209999C000019999999N9999999N1-00311-00641101661ADDMA1999999094571MD1710161+9999OA149900311REMSYN088AAXX  02014 06756 33/// /0000 11031 21064 39457 40166 57016 333 55300 20011 91106 91203;
0087067560999992011010202004+46467+008933FM-12+055299999V0203201N000519999999N9999999N1-00351-00641101701ADDMA1999999094601REMSYN060AAXX  02024 06756 43/// /3201 11035 21064 39460 40170 5////;
0087067560999992011010203004+46467+008933FM-12+055299999V0203201N002119999999N9999999N1-00291-00661101631ADDMA1999999094551REMSYN060AAXX  02034 06756 43/// /3204 11029 21066 39455 40163 5////;
0087067560999992011010204004+46467+008933FM-12+055299999V0203501N001519999999N9999999N1-00391-00651101601ADDMA1999999094501REMSYN060AAXX  02044 06756 43/// /3503 11039 21065 39450 40160 5////;
0087067560999992011010205004+46467+008933FM-12+055299999V0201901N000519999999N9999999N1-00391-00651101591ADDMA1999999094491REMSYN060AAXX  02054 06756 43/// /1901 11039 21065 39449 40159 5////;
0134067560999992011010206004+46467+008933FM-12+055299999V0203401N001519999999N9999999N1-00381-00651101591ADDIA2999-00609KA1999N-00421MA1999999094491REMSYN082AAXX  02064 06756 43/// /3403 11038 21065 39449 40159 5//// 333 21042 3/106 55044;
0140067560999992011010207004+46467+008933FM-12+055299999V0203401N002119999999N9999999N1-00341-00651101561ADDMA1999999094471MD1710031+9999OA149900311REMSYN088AAXX  02074 06756 33/// /3404 11034 21065 39447 40156 57003 333 55300 20011 91106 91204;
0140067560999992011010208004+46467+008933FM-12+055299999V0200401N000519999999N9999999N1-00391-00651101631ADDMA1999999094531MD1210041+9999OA149900311REMSYN088AAXX  02084 06756 33/// /0401 11039 21065 39453 40163 52004 333 55300 20036 91106 91204;
0140067560999992011010209004+46467+008933FM-12+055299999V0203401N001019999999N9999999N1-00201-00591101641ADDMA1999999094581MD1210091+9999OA149900311REMSYN088AAXX  02094 06756 33/// /3402 11020 21059 39458 40164 52009 333 55305 20288 91106 91204;
0140067560999992011010210004+46467+008933FM-12+055299999V0200801N000519999999N9999999N1-00021-00521101591ADDMA1999999094581MD1210111+9999OA149900211REMSYN088AAXX  02104 06756 33/// /0801 11002 21052 39458 40159 52011 333 553// 20871 91104 91202;
0140067560999992011010211004+46467+008933FM-12+055299999V0201501N003119999999N9999999N1+00101-00551101521ADDMA1999999094551MD1010021+9999OA149900461REMSYN088AAXX  02114 06756 33/// /1506 10010 21055 39455 40152 50002 333 553// 2//// 91109 91206;
0140067560999992011010212004+46467+008933FM-12+055299999V0201601N002619999999N9999999N1+00161-00521101451ADDMA1999999094501MD1710081+9999OA149900511REMSYN088AAXX  02124 06756 33/// /1605 10016 21052 39450 40145 57008 333 553// 2//// 91110 91206;
0140067560999992011010213004+46467+008933FM-12+055299999V0201701N002119999999N9999999N1+00161-00461101431ADDMA1999999094481MD1610101+9999OA149900511REMSYN088AAXX  02134 06756 33/// /1704 10016 21046 39448 40143 56010 333 55309 2//// 91110 91206;
0103067560999992011010214004+46467+008933FM-12+055299999V0203301N000519999999N9999999N1-00021-00431101511ADDMA1999999094511REMSYN076AAXX  02144 06756 33/// /3301 11002 21043 39451 40151 5//// 333 553// 20101;
0140067560999992011010215004+46467+008933FM-12+055299999V0203601N000519999999N9999999N1-00131-00411101611ADDMA1999999094571MD1310071+9999OA149900511REMSYN088AAXX  02154 06756 33/// /3601 11013 21041 39457 40161 53007 333 55300 20072 91110 91206;
0140067560999992011010216004+46467+008933FM-12+055299999V0201901N001019999999N9999999N1-00091-00451101641ADDMA1999999094611MD1210131+9999OA149900311REMSYN088AAXX  02164 06756 33/// /1902 11009 21045 39461 40164 52013 333 55300 20036 91106 91202;
0140067560999992011010217004+46467+008933FM-12+055299999V0203501N002619999999N9999999N1+00311-00941101621ADDMA1999999094691MD1310181+9999OA149900931REMSYN088AAXX  02174 06756 33/// /3505 10031 21094 39469 40162 53018 333 55300 20011 91118 91207;
0159067560999992011010218004+46467+008933FM-12+055299999V0203501N002619999999N9999999N1+00171-00961101751ADDKA1120M+00341MA1999999094781MD1310211+9999OA149900931REMSYN094AAXX  02184 06756 33/// /3505 10017 21096 39478 40175 53021 333 10034 55300 20014 91118 91207;
0140067560999992011010219004+46467+008933FM-12+055299999V0203201N002119999999N9999999N1+00141-01011101821ADDMA1999999094841MD1110231+9999OA149900931REMSYN088AAXX  02194 06756 33/// /3204 10014 21101 39484 40182 51023 333 55300 20011 91118 91205;
0140067560999992011010220004+46467+008933FM-12+055299999V0203101N001019999999N9999999N1+00071-01031101931ADDMA1999999094921MD1110231+9999OA149900771REMSYN088AAXX  02204 06756 33/// /3102 10007 21103 39492 40193 51023 333 55300 20011 91115 91205;
0140067560999992011010221004+46467+008933FM-12+055299999V0202801N003119999999N9999999N1+00001-01061102011ADDMA1999999094981MD1110201+9999OA149900931REMSYN088AAXX  02214 06756 33/// /2806 10000 21106 39498 40201 51020 333 55300 20014 91118 91207;
0140067560999992011010222004+46467+008933FM-12+055299999V0202901N002619999999N9999999N1-00021-01041102041ADDMA1999999095001MD1110161+9999OA149900621REMSYN088AAXX  02224 06756 33/// /2905 11002 21104 39500 40204 51016 333 55300 20011 91112 91206;
0140067560999992011010223004+46467+008933FM-12+055299999V0202701N001019999999N9999999N1-00191-01021102101ADDMA1999999095011MD1210091+9999OA149900621REMSYN088AAXX  02234 06756 33/// /2702 11019 21102 39501 40210 52009 333 55300 20011 91112 91206;
0140067560999992011010300004+46467+008933FM-12+055299999V0203501N000519999999N9999999N1-00281-01011102121ADDMA1999999095011MD1010031+9999OA149900931REMSYN088AAXX  03004 06756 33/// /3501 11028 21101 39501 40212 50003 333 55300 20011 91118 91207;
0140067560999992011010301004+46467+008933FM-12+055299999V0203001N001019999999N9999999N1-00291-01061102101ADDMA1999999094991MD1710011+9999OA149900361REMSYN088AAXX  03014 06756 33/// /3002 11029 21106 39499 40210 57001 333 55300 20011 91107 91204;
0140067560999992011010302004+46467+008933FM-12+055299999V0209999C000019999999N9999999N1-00361-01081102141ADDMA1999999095011MD1019999+9999OA149900261REMSYN088AAXX  03024 06756 33/// /0000 11036 21108 39501 40214 50/// 333 55300 20011 91105 91204;
0087067560999992011010303004+46467+008933FM-12+055299999V0201301N000519999999N9999999N1-00431-01041102161ADDMA1999999095011REMSYN060AAXX  03034 06756 43/// /1301 11043 21104 39501 40216 5////;
0140067560999992011010304004+46467+008933FM-12+055299999V0203401N002119999999N9999999N1-00431-01131102181ADDMA1999999095031MD1210041+9999OA149900311REMSYN088AAXX  03044 06756 33/// /3404 11043 21113 39503 40218 52004 333 55300 20011 91106 91204;
0140067560999992011010305004+46467+008933FM-12+055299999V0203301N000519999999N9999999N1-00501-01121102201ADDMA1999999095031MD1210021+9999OA149900311REMSYN088AAXX  03054 06756 33/// /3301 11050 21112 39503 40220 52002 333 55300 20011 91106 91204;
0207067560999992011010306004+46467+008933FM-12+055299999V0203001N001019999999N9999999N1-00481-01151102231ADDAL19900091GJ102649IA2999-00709KA1999N-00501MA1999999095061MD1210051+9999OA149900771REMSYN112AAXX  03064 06756 33/// /3002 11048 21115 39506 40223 52005 333 21050 3/107 55044 55300 20011 70000 91115 91206;
0140067560999992011010307004+46467+008933FM-12+055299999V0203301N001519999999N9999999N1-00521-01161102281ADDMA1999999095101MD1210071+9999OA149900211REMSYN088AAXX  03074 06756 33/// /3303 11052 21116 39510 40228 52007 333 55300 20011 91104 91203;
0140067560999992011010308004+46467+008933FM-12+055299999V0203401N001019999999N9999999N1-00511-01121102351ADDMA1999999095161MD1319999+9999OA149900261REMSYN088AAXX  03084 06756 33/// /3402 11051 21112 39516 40235 53/// 333 55300 20032 91105 91203;
0103067560999992011010309004+46467+008933FM-12+055299999V0203501N001019999999N9999999N1-00331-01081102341ADDMA1999999095201REMSYN076AAXX  03094 06756 33/// /3502 11033 21108 39520 40234 5//// 333 553// 20299;
0140067560999992011010310004+46467+008933FM-12+055299999V0203301N001519999999N9999999N1-00011-01111102281ADDMA1999999095231MD1110131+9999OA149900311REMSYN088AAXX  03104 06756 33/// /3303 11001 21111 39523 40228 51013 333 553// 20911 91106 91204;
0140067560999992011010311004+46467+008933FM-12+055299999V0201101N000519999999N9999999N1+00181-01451102231ADDMA1999999095231MD1210071+9999OA149900311REMSYN088AAXX  03114 06756 33/// /1101 10018 21145 39523 40223 52007 333 553// 2//// 91106 91204;
0140067560999992011010312004+46467+008933FM-12+055299999V0201601N003119999999N9999999N1+00121-01321102201ADDMA1999999095191MD1810011+9999OA149900411REMSYN088AAXX  03124 06756 33/// /1606 10012 21132 39519 40220 58001 333 553// 2//// 91108 91206;
0140067560999992011010313004+46467+008933FM-12+055299999V0201701N003119999999N9999999N1+00121-01301102161ADDMA1999999095151MD1710081+9999OA149900461REMSYN088AAXX  03134 06756 33/// /1706 10012 21130 39515 40216 57008 333 55309 2//// 91109 91207;
0103067560999992011010314004+46467+008933FM-12+055299999V0201901N001019999999N9999999N1-00041-01081102191ADDMA1999999095141REMSYN076AAXX  03144 06756 33/// /1902 11004 21108 39514 40219 5//// 333 553// 20108;
0103067560999992011010315004+46467+008933FM-12+055299999V0209999C000019999999N9999999N1-00171-00881102251ADDMA1999999095161REMSYN076AAXX  03154 06756 33/// /0000 11017 21088 39516 40225 5//// 333 553// 20076;
0140067560999992011010316004+46467+008933FM-12+055299999V0203201N000519999999N9999999N1-00271-00851102311ADDMA1999999095191MD1210041+9999OA149900211REMSYN088AAXX  03164 06756 33/// /3201 11027 21085 39519 40231 52004 333 55300 20036 91104 91201;
0140067560999992011010317004+46467+008933FM-12+055299999V0203301N000519999999N9999999N1-00341-00901102381ADDMA1999999095241MD1310101+9999OA149900211REMSYN088AAXX  03174 06756 33/// /3301 11034 21090 39524 40238 53010 333 55300 20011 91104 91202;
0159067560999992011010318004+46467+008933FM-12+055299999V0203201N001519999999N9999999N1-00281-00961102411ADDKA1120M+00181MA1999999095281MD1310121+9999OA149900511REMSYN094AAXX  03184 06756 33/// /3203 11028 21096 39528 40241 53012 333 10018 55300 20011 91110 91207;
0140067560999992011010319004+46467+008933FM-12+055299999V0203201N002119999999N9999999N1-00281-01011102441ADDMA1999999095311MD1110121+9999OA149900361REMSYN088AAXX  03194 06756 33/// /3204 11028 21101 39531 40244 51012 333 55300 20011 91107 91205;
0140067560999992011010320004+46467+008933FM-12+055299999V0203201N002619999999N9999999N1-00271-01101102451ADDMA1999999095321MD1110081+9999OA149900361REMSYN088AAXX  03204 06756 33/// /3205 11027 21110 39532 40245 51008 333 55300 20011 91107 91205;
0140067560999992011010321004+46467+008933FM-12+055299999V0203101N002619999999N9999999N1-00231-01031102461ADDMA1999999095341MD1210061+9999OA149900411REMSYN088AAXX  03214 06756 33/// /3105 11023 21103 39534 40246 52006 333 55300 20011 91108 91205;
0140067560999992011010322004+46467+008933FM-12+055299999V0203101N001519999999N9999999N1-00171-01041102471ADDMA1999999095361MD1210051+9999OA149900411REMSYN088AAXX  03224 06756 33/// /3103 11017 21104 39536 40247 52005 333 55300 20011 91108 91205;
0140067560999992011010323004+46467+008933FM-12+055299999V0203001N001519999999N9999999N1-00191-00861102461ADDMA1999999095351MD1210031+9999OA149900411REMSYN088AAXX  03234 06756 33/// /3003 11019 21086 39535 40246 52003 333 55300 20011 91108 91205;
0140067560999992011010400004+46467+008933FM-12+055299999V0203001N001519999999N9999999N1-00191-00761102421ADDMA1999999095311MD1810031+9999OA149900511REMSYN088AAXX  04004 06756 33/// /3003 11019 21076 39531 40242 58003 333 55300 20011 91110 91207;
0140067560999992011010401004+46467+008933FM-12+055299999V0202901N001019999999N9999999N1-00131-00831102361ADDMA1999999095271MD1810091+9999OA149900261REMSYN088AAXX  04014 06756 33/// /2902 11013 21083 39527 40236 58009 333 55300 20011 91105 91203;
0140067560999992011010402004+46467+008933FM-12+055299999V0203001N000519999999N9999999N1-00141-00821102341ADDMA1999999095251MD1819999+9999OA149900261REMSYN088AAXX  04024 06756 33/// /3001 11014 21082 39525 40234 58/// 333 55300 20011 91105 91203;
0140067560999992011010403004+46467+008933FM-12+055299999V0203001N001019999999N9999999N1-00121-00811102291ADDMA1999999095211MD1810101+9999OA149900411REMSYN088AAXX  04034 06756 33/// /3002 11012 21081 39521 40229 58010 333 55300 20011 91108 91205;
0140067560999992011010404004+46467+008933FM-12+055299999V0202901N001019999999N9999999N1-00141-00771102221ADDMA1999999095141MD1810131+9999OA149900211REMSYN088AAXX  04044 06756 33/// /2902 11014 21077 39514 40222 58013 333 55300 20011 91104 91202;
0140067560999992011010405004+46467+008933FM-12+055299999V0201701N000519999999N9999999N1-00171-00791102201ADDMA1999999095111MD1710141+9999OA149900211REMSYN088AAXX  04054 06756 33/// /1701 11017 21079 39511 40220 57014 333 55300 20011 91104 91202;
0207067560999992011010406004+46467+008933FM-12+055299999V0201801N001019999999N9999999N1-00161-00831102161ADDAL19900091GJ102649IA2999-00609KA1999N-00371MA1999999095081MD1710131+9999OA149900411REMSYN112AAXX  04064 06756 33/// /1802 11016 21083 39508 40216 57013 333 21037 3/106 55044 55300 20011 70000 91108 91205;
0140067560999992011010407004+46467+008933FM-12+055299999V0203301N000519999999N9999999N1-00211-00751102191ADDMA1999999095091MD1510051+9999OA149900261REMSYN088AAXX  04074 06756 33/// /3301 11021 21075 39509 40219 55005 333 55300 20011 91105 91203;
0140067560999992011010408004+46467+008933FM-12+055299999V0209999C000019999999N9999999N1-00221-00751102241ADDMA1999999095141MD1319999+9999OA149900151REMSYN088AAXX  04084 06756 33/// /0000 11022 21075 39514 40224 53/// 333 55300 20022 91103 91202;
0103067560999992011010409004+46467+008933FM-12+055299999V0200401N000519999999N9999999N1-00221-00641102221ADDMA1999999095121REMSYN076AAXX  04094 06756 33/// /0401 11022 21064 39512 40222 5//// 333 553// 20068;
0140067560999992011010410004+46467+008933FM-12+055299999V0203401N000519999999N9999999N1-00131-00741102221ADDMA1999999095141MD1210051+9999OA149900151REMSYN088AAXX  04104 06756 33/// /3401 11013 21074 39514 40222 52005 333 55300 20209 91103 91202;
0140067560999992011010411004+46467+008933FM-12+055299999V0201701N002119999999N9999999N1-00091-00911102161ADDMA1999999095101MD1710041+9999OA149900261REMSYN088AAXX  04114 06756 33/// /1704 11009 21091 39510 40216 57004 333 55300 20281 91105 91204;
0140067560999992011010412004+46467+008933FM-12+055299999V0209999C000019999999N9999999N1-00061-00971102091ADDMA1999999095041MD1810081+9999OA149900261REMSYN088AAXX  04124 06756 33/// /0000 11006 21097 39504 40209 58008 333 55300 20389 91105 91204;
0140067560999992011010413004+46467+008933FM-12+055299999V0201601N001019999999N9999999N1-00041-00961102031ADDMA1999999094991MD1710151+9999OA149900211REMSYN088AAXX  04134 06756 33/// /1602 11004 21096 39499 40203 57015 333 55300 20418 91104 91202;
0103067560999992011010414004+46467+008933FM-12+055299999V0201601N001519999999N9999999N1-00051-00911102011ADDMA1999999094971REMSYN076AAXX  04144 06756 33/// /1603 11005 21091 39497 40201 5//// 333 553// 20292;
0087067560999992011010415004+46467+008933FM-12+055299999V0201501N001519999999N9999999N1-00081-00921102001ADDMA1999999094951REMSYN060AAXX  04154 06756 43/// /1503 11008 21092 39495 40200 5////;
0140067560999992011010416004+46467+008933FM-12+055299999V0209999C000019999999N9999999N1-00141-00811102041ADDMA1999999094971MD1510021+9999OA149900361REMSYN088AAXX  04164 06756 33/// /0000 11014 21081 39497 40204 55002 333 55300 20054 91107 91205;
0140067560999992011010417004+46467+008933FM-12+055299999V0202301N000519999999N9999999N1-00171-00781102071ADDMA1999999094991MD1310021+9999OA149900361REMSYN088AAXX  04174 06756 33/// /2301 11017 21078 39499 40207 53002 333 55300 20011 91107 91205;
0159067560999992011010418004+46467+008933FM-12+055299999V0203401N001019999999N9999999N1-00251-00691102101ADDKA1120M-00031MA1999999095001MD1210051+9999OA149900361REMSYN094AAXX  04184 06756 33/// /3402 11025 21069 39500 40210 52005 333 11003 55300 20011 91107 91205;
0140067560999992011010419004+46467+008933FM-12+055299999V0203201N000519999999N9999999N1-00271-00611102161ADDMA1999999095051MD1210081+9999OA149900151REMSYN088AAXX  04194 06756 33/// /3201 11027 21061 39505 40216 52008 333 55300 20011 91103 91202;
0140067560999992011010420004+46467+008933FM-12+055299999V0203201N001519999999N9999999N1-00241-00691102161ADDMA1999999095061MD1210071+9999OA149900151REMSYN088AAXX  04204 06756 33/// /3203 11024 21069 39506 40216 52007 333 55300 20011 91103 91203;
0140067560999992011010421004+46467+008933FM-12+055299999V0203301N000519999999N9999999N1-00251-00651102171ADDMA1999999095061MD1210061+9999OA149900361REMSYN088AAXX  04214 06756 33/// /3301 11025 21065 39506 40217 52006 333 55300 20011 91107 91205;
0140067560999992011010422004+46467+008933FM-12+055299999V0203301N001019999999N9999999N1-00241-00641102161ADDMA1999999095061MD1010011+9999OA149900211REMSYN088AAXX  04224 06756 33/// /3302 11024 21064 39506 40216 50001 333 55300 20011 91104 91203;
0140067560999992011010423004+46467+008933FM-12+055299999V0203301N001519999999N9999999N1-00241-00661102181ADDMA1999999095081MD1210021+9999OA149900211REMSYN088AAXX  04234 06756 33/// /3303 11024 21066 39508 40218 52002 333 55300 20011 91104 91203;
0140067560999992011010500004+46467+008933FM-12+055299999V0202901N001019999999N9999999N1-00181-00831102121ADDMA1999999095041MD1810021+9999OA149900361REMSYN088AAXX  05004 06756 33/// /2902 11018 21083 39504 40212 58002 333 55300 20011 91107 91205;
0140067560999992011010501004+46467+008933FM-12+055299999V0203201N001019999999N9999999N1-00171-00891102111ADDMA1999999095031MD1710031+9999OA149900311REMSYN088AAXX  05014 06756 33/// /3202 11017 21089 39503 40211 57003 333 55300 20011 91106 91203;
0140067560999992011010502004+46467+008933FM-12+055299999V0203301N001519999999N9999999N1-00171-01041102101ADDMA1999999095021MD1710061+9999OA149900511REMSYN088AAXX  05024 06756 33/// /3303 11017 21104 39502 40210 57006 333 55300 20011 91110 91204;
0087067560999992011010503004+46467+008933FM-12+055299999V0203601N002619999999N9999999N1-00171-01091102091ADDMA1999999095011REMSYN060AAXX  05034 06756 43/// /3605 11017 21109 39501 40209 5////;
0140067560999992011010504004+46467+008933FM-12+055299999V0203301N001019999999N9999999N1-00191-01061102071ADDMA1999999094991MD1710041+9999OA149900511REMSYN088AAXX  05044 06756 33/// /3302 11019 21106 39499 40207 57004 333 55300 20011 91110 91205;
0140067560999992011010505004+46467+008933FM-12+055299999V0203501N001519999999N9999999N1-00191-01061102081ADDMA1999999095001MD1710021+9999OA149900411REMSYN088AAXX  05054 06756 33/// /3503 11019 21106 39500 40208 57002 333 55300 20011 91108 91203;
0207067560999992011010506004+46467+008933FM-12+055299999V0203301N001519999999N9999999N1-00191-01071102121ADDAL19900091GJ100009IA2999-00409KA1999N-00281MA1999999095031MD1310021+9999OA149900621REMSYN112AAXX  05064 06756 33/// /3303 11019 21107 39503 40212 53002 333 21028 3/104 55000 55300 20011 70000 91112 91208;
0140067560999992011010507004+46467+008933FM-12+055299999V0203501N002119999999N9999999N1-00201-01081102151ADDMA1999999095061MD1210071+9999OA149900621REMSYN088AAXX  05074 06756 33/// /3504 11020 21108 39506 40215 52007 333 55300 20011 91112 91208;
0140067560999992011010508004+46467+008933FM-12+055299999V0203601N002619999999N9999999N1-00191-01091102171ADDMA1999999095081MD1219999+9999OA149900571REMSYN088AAXX  05084 06756 33/// /3605 11019 21109 39508 40217 52/// 333 55300 20036 91111 91205;
0140067560999992011010509004+46467+008933FM-12+055299999V0209999C002619999999N9999999N1-00171-01091102211ADDMA1999999095121MD1210091+9999OA149900621REMSYN088AAXX  05094 06756 33/// /0005 11017 21109 39512 40221 52009 333 55300 20151 91112 91208;
0140067560999992011010510004+46467+008933FM-12+055299999V0200101N003119999999N9999999N1-00121-01071102181ADDMA1999999095111MD1210051+9999OA149900571REMSYN088AAXX  05104 06756 33/// /0106 11012 21107 39511 40218 52005 333 55300 20313 91111 91207;
0140067560999992011010511004+46467+008933FM-12+055299999V0203501N002119999999N9999999N1-00041-01041102151ADDMA1999999095101MD1010021+9999OA149900511REMSYN088AAXX  05114 06756 33/// /3504 11004 21104 39510 40215 50002 333 55300 20526 91110 91207;
0103067560999992011010512004+46467+008933FM-12+055299999V0203101N000519999999N9999999N1-00041-01071102051ADDMA1999999095011REMSYN076AAXX  05124 06756 33/// /3101 11004 21107 39501 40205 5//// 333 553// 20677;
0140067560999992011010513004+46467+008933FM-12+055299999V0201501N000519999999N9999999N1+00001-01061101991ADDMA1999999094961MD1810151+9999OA149900311REMSYN088AAXX  05134 06756 33/// /1501 10000 21106 39496 40199 58015 333 55308 20738 91106 91204;
0087067560999992011010514004+46467+008933FM-12+055299999V0202001N001519999999N9999999N1-00151-00901102021ADDMA1999999094951REMSYN060AAXX  05144 06756 43/// /2003 11015 21090 39495 40202 5////;
0087067560999992011010515004+46467+008933FM-12+055299999V0203501N000519999999N9999999N1-00251-00871102091ADDMA1999999094991REMSYN060AAXX  05154 06756 43/// /3501 11025 21087 39499 40209 5////;
0140067560999992011010516004+46467+008933FM-12+055299999V0203201N001019999999N9999999N1-00351-00911102181ADDMA1999999095051MD1210091+9999OA149900211REMSYN088AAXX  05164 06756 33/// /3202 11035 21091 39505 40218 52009 333 55300 20040 91104 91203;
0140067560999992011010517004+46467+008933FM-12+055299999V0202901N001019999999N9999999N1-00411-00941102201ADDMA1999999095051MD1210101+9999OA149900211REMSYN088AAXX  05174 06756 33/// /2902 11041 21094 39505 40220 52010 333 55300 20011 91104 91203;
0159067560999992011010518004+46467+008933FM-12+055299999V0203401N002119999999N9999999N1-00471-00991102261ADDKA1120M+00001MA1999999095091MD1219999+9999OA149900571REMSYN094AAXX  05184 06756 33/// /3404 11047 21099 39509 40226 52/// 333 10000 55300 20011 91111 91207;
0140067560999992011010519004+46467+008933FM-12+055299999V0203301N001019999999N9999999N1-00531-00931102391ADDMA1999999095201MD1210151+9999OA149900311REMSYN088AAXX  05194 06756 33/// /3302 11053 21093 39520 40239 52015 333 55300 20011 91106 91204;
0140067560999992011010520004+46467+008933FM-12+055299999V0203201N002619999999N9999999N1-00461-01031102371ADDMA1999999095201MD1219999+9999OA149900311REMSYN088AAXX  05204 06756 33/// /3205 11046 21103 39520 40237 52/// 333 55300 20011 91106 91205;
0103067560999992011010521004+46467+008933FM-12+055299999V0203201N001519999999N9999999N1-00541-00981102371ADDMA1999999095171REMSYN076AAXX  05214 06756 33/// /3203 11054 21098 39517 40237 5//// 333 553// 20011;
0140067560999992011010522004+46467+008933FM-12+055299999V0203001N001519999999N9999999N1-00541-00971102391ADDMA1999999095191MD1510011+9999OA149900311REMSYN088AAXX  05224 06756 33/// /3003 11054 21097 39519 40239 55001 333 55300 20011 91106 91204;
0140067560999992011010523004+46467+008933FM-12+055299999V0200301N000519999999N9999999N1-00601-00951102501ADDMA1999999095281MD1319999+9999OA149900311REMSYN088AAXX  05234 06756 33/// /0301 11060 21095 39528 40250 53/// 333 55300 20011 91106 91204;
0087067560999992011010600004+46467+008933FM-12+055299999V0200201N000519999999N9999999N1-00611-00971102451ADDMA1999999095231REMSYN060AAXX  06004 06756 43/// /0201 11061 21097 39523 40245 5////;
0087067560999992011010601004+46467+008933FM-12+055299999V0203501N001519999999N9999999N1-00491-00881102371ADDMA1999999095191REMSYN060AAXX  06014 06756 43/// /3503 11049 21088 39519 40237 5////;
0087067560999992011010602004+46467+008933FM-12+055299999V0203301N001019999999N9999999N1-00551-00911102411ADDMA1999999095211REMSYN060AAXX  06024 06756 43/// /3302 11055 21091 39521 40241 5////;
0087067560999992011010603004+46467+008933FM-12+055299999V0202501N000519999999N9999999N1-00531-00931102391ADDMA1999999095201REMSYN060AAXX  06034 06756 43/// /2501 11053 21093 39520 40239 5////;
0087067560999992011010604004+46467+008933FM-12+055299999V0203201N001519999999N9999999N1-00501-00901102361ADDMA1999999095181REMSYN060AAXX  06044 06756 43/// /3203 11050 21090 39518 40236 5////;
0087067560999992011010605004+46467+008933FM-12+055299999V0203201N001019999999N9999999N1-00451-00871102361ADDMA1999999095191REMSYN060AAXX  06054 06756 43/// /3202 11045 21087 39519 40236 5////;
0134067560999992011010606004+46467+008933FM-12+055299999V0200201N002119999999N9999999N1-00431-00791102291ADDIA2999-00809KA1999N-00611MA1999999095131REMSYN082AAXX  06064 06756 43/// /0204 11043 21079 39513 40229 5//// 333 21061 3/108 55009;
0087067560999992011010607004+46467+008933FM-12+055299999V0203301N001019999999N9999999N1-00361-00811102281ADDMA1999999095141REMSYN060AAXX  06074 06756 43/// /3302 11036 21081 39514 40228 5////;
0103067560999992011010608004+46467+008933FM-12+055299999V0200101N001519999999N9999999N1-00341-00731102331ADDMA1999999095191REMSYN076AAXX  06084 06756 33/// /0103 11034 21073 39519 40233 5//// 333 553// 20022;
0087067560999992011010609004+46467+008933FM-12+055299999V0201901N000519999999N9999999N1-00261-00741102321ADDMA1999999095201REMSYN060AAXX  06094 06756 43/// /1901 11026 21074 39520 40232 5////;
0140067560999992011010610004+46467+008933FM-12+055299999V0203501N000519999999N9999999N1-00281-00771102391ADDMA1999999095261MD1210121+9999OA149900411REMSYN088AAXX  06104 06756 33/// /3501 11028 21077 39526 40239 52012 333 55300 20112 91108 91205;
0140067560999992011010611004+46467+008933FM-12+055299999V0200301N000519999999N9999999N1-00231-00751102341ADDMA1999999095231MD1010041+9999OA149900411REMSYN088AAXX  06114 06756 33/// /0301 11023 21075 39523 40234 50004 333 55300 20155 91108 91205;
0140067560999992011010612004+46467+008933FM-12+055299999V0203401N000519999999N9999999N1-00181-00821102251ADDMA1999999095161MD1810041+9999OA149900411REMSYN088AAXX  06124 06756 33/// /3401 11018 21082 39516 40225 58004 333 55300 20191 91108 91205;
0140067560999992011010613004+46467+008933FM-12+055299999V0200801N000519999999N9999999N1-00141-00751102171ADDMA1999999095091MD1810171+9999OA149900211REMSYN088AAXX  06134 06756 33/// /0801 11014 21075 39509 40217 58017 333 55300 20155 91104 91202;
0087067560999992011010614004+46467+008933FM-12+055299999V0203201N001019999999N9999999N1-00121-00731102151ADDMA1999999095081REMSYN060AAXX  06144 06756 43/// /3202 11012 21073 39508 40215 5////;
0087067560999992011010615004+46467+008933FM-12+055299999V0209999C000019999999N9999999N1-00111-00711102131ADDMA1999999095061REMSYN060AAXX  06154 06756 43/// /0000 11011 21071 39506 40213 5////;
0140067560999992011010616004+46467+008933FM-12+055299999V0203501N001019999999N9999999N1-00121-00631102191ADDMA1999999095121MD1310031+9999OA149900211REMSYN088AAXX  06164 06756 33/// /3502 11012 21063 39512 40219 53003 333 55300 20022 91104 91203;
0140067560999992011010617004+46467+008933FM-12+055299999V0202801N001019999999N9999999N1-00101-00631102141ADDMA1999999095071MD1010011+9999OA149900211REMSYN088AAXX  06174 06756 33/// /2802 11010 21063 39507 40214 50001 333 55300 20011 91104 91202;
0159067560999992011010618004+46467+008933FM-12+055299999V0201301N000519999999N9999999N1-00101-00601102161ADDKA1120M-00071MA1999999095091MD1010031+9999OA149900411REMSYN094AAXX  06184 06756 33/// /1301 11010 21060 39509 40216 50003 333 11007 55300 20011 91108 91205;
0140067560999992011010619004+46467+008933FM-12+055299999V0200101N000519999999N9999999N1-00131-00601102211ADDMA1999999095131MD1310011+9999OA149900311REMSYN088AAXX  06194 06756 33/// /0101 11013 21060 39513 40221 53001 333 55300 20011 91106 91203;
0140067560999992011010620004+46467+008933FM-12+055299999V0201601N002119999999N9999999N1-00121-00611102291ADDMA1999999095211MD1219999+9999OA149900361REMSYN088AAXX  06204 06756 33/// /1604 11012 21061 39521 40229 52/// 333 55300 20011 91107 91204;
0140067560999992011010621004+46467+008933FM-12+055299999V0202601N001019999999N9999999N1-00131-00601102291ADDMA1999999095211MD1219999+9999OA149900361REMSYN088AAXX  06214 06756 33/// /2602 11013 21060 39521 40229 52/// 333 55300 20011 91107 91204;
0140067560999992011010622004+46467+008933FM-12+055299999V0201101N000519999999N9999999N1-00121-00501102321ADDMA1999999095241MD1210111+9999OA149900311REMSYN088AAXX  06224 06756 33/// /1101 11012 21050 39524 40232 52011 333 55300 20011 91106 91204;
0103067560999992011010623004+46467+008933FM-12+055299999V0203501N001019999999N9999999N1-00091-00451102321ADDMA1999999095241REMSYN076AAXX  06234 06756 33/// /3502 11009 21045 39524 40232 5//// 333 553// 20011;
0087067560999992011010700004+46467+008933FM-12+055299999V0200601N001019999999N9999999N1-00101-00401102321ADDMA1999999095241REMSYN060AAXX  07004 06756 43/// /0602 11010 21040 39524 40232 5////;
0087067560999992011010701004+46467+008933FM-12+055299999V0209999C000019999999N9999999N1-00041-00351102291ADDMA1999999095231REMSYN060AAXX  07014 06756 43/// /0000 11004 21035 39523 40229 5////;
0087067560999992011010702004+46467+008933FM-12+055299999V0200201N000519999999N9999999N1-00071-00361102351ADDMA1999999095281REMSYN060AAXX  07024 06756 43/// /0201 11007 21036 39528 40235 5////;
0087067560999992011010703004+46467+008933FM-12+055299999V0200301N000519999999N9999999N1-00081-00331102381ADDMA1999999095301REMSYN060AAXX  07034 06756 43/// /0301 11008 21033 39530 40238 5////;
0140067560999992011010704004+46467+008933FM-12+055299999V0203501N001019999999N9999999N1-00081-00341102361ADDMA1999999095281MD1010051+9999OA149900261REMSYN088AAXX  07044 06756 33/// /3502 11008 21034 39528 40236 50005 333 55300 20011 91105 91202;
0140067560999992011010705004+46467+008933FM-12+055299999V0202401N001019999999N9999999N1-00071-00271102401ADDMA1999999095321MD1210041+9999OA149900261REMSYN088AAXX  07054 06756 33/// /2402 11007 21027 39532 40240 52004 333 55300 20011 91105 91203;
0207067560999992011010706004+46467+008933FM-12+055299999V0200401N001019999999N9999999N1-00111-00281102471ADDAL19900091GJ100009IA2999-00209KA1999N-00151MA1999999095381MD1210081+9999OA149900361REMSYN112AAXX  07064 06756 33/// /0402 11011 21028 39538 40247 52008 333 21015 3/102 55000 55300 20011 70000 91107 91204;
0146067560999992011010707004+46467+008933FM-12+055299999V0203101N001019999999N9999999N1-00111-00241102491ADDMA1999999095401MD1210121+9999OA149900311REMSYN094AAXX  07074 06756 23/// /3102 11011 21024 39540 40249 52012 333 55300 20011 69915 91106 91204;
0103067560999992011010708004+46467+008933FM-12+055299999V0209999C000019999999N9999999N1-00081-00161102501ADDMA1999999095411REMSYN076AAXX  07084 06756 33/// /0000 11008 21016 39541 40250 5//// 333 553// 20029;
0087067560999992011010709004+46467+008933FM-12+055299999V0203401N001019999999N9999999N1-00061-00151102561ADDMA1999999095481REMSYN060AAXX  07094 06756 43/// /3402 11006 21015 39548 40256 5////;
0140067560999992011010710004+46467+008933FM-12+055299999V0201601N001019999999N9999999N1-00031-00131102561ADDMA1999999095481MD1210081+9999OA149900211REMSYN088AAXX  07104 06756 33/// /1602 11003 21013 39548 40256 52008 333 55300 20065 91104 91203;
0140067560999992011010711004+46467+008933FM-12+055299999V0209999C000019999999N9999999N1-00021-00131102581ADDMA1999999095501MD1210091+9999OA149900261REMSYN088AAXX  07114 06756 33/// /0000 11002 21013 39550 40258 52009 333 55300 20101 91105 91203;
0182067560999992011010712004+46467+008933FM-12+055299999V0209999C000019999999N9999999N1-00011-00031102541ADDAA106000091MA1999999095471MD1810011+9999OA149900311REMSYN100AAXX  07124 06756 03/// /0000 11001 21003 39547 40254 58001 69911 333 55300 20151 60005 91106 91204;EQDQ01  00002PRCP06
0146067560999992011010713004+46467+008933FM-12+055299999V0203501N000519999999N9999999N1+00021+00011102491ADDMA1999999095431MD1810051+9999OA149900151REMSYN094AAXX  07134 06756 23/// /3501 10002 20001 39543 40249 58005 333 55300 20144 69915 91103 91202;
0087067560999992011010714004+46467+008933FM-12+055299999V0201501N000519999999N9999999N1-00071-00071102511ADDMA1999999095431REMSYN060AAXX  07144 06756 43/// /1501 11007 21007 39543 40251 5////;
0087067560999992011010715004+46467+008933FM-12+055299999V0209999C000019999999N9999999N1+00001+00001102521ADDMA1999999095451REMSYN060AAXX  07154 06756 43/// /0000 10000 20000 39545 40252 5////;
0146067560999992011010716004+46467+008933FM-12+055299999V0203101N001519999999N9999999N1-00021-00021102531ADDMA1999999095461MD1210031+9999OA149900211REMSYN094AAXX  07164 06756 23/// /3103 11002 21002 39546 40253 52003 333 55300 20018 69915 91104 91203;
0146067560999992011010717004+46467+008933FM-12+055299999V0202901N001019999999N9999999N1+00021+00021102521ADDMA1999999095461MD1010031+9999OA149900211REMSYN094AAXX  07174 06756 23/// /2902 10002 20002 39546 40252 50003 333 55300 20011 69935 91104 91203;
0145067560999992011010718004+46467+008933FM-12+055299999V0209999C000019999999N9999999N1+00041+00041102531ADDAA112001091KA1120M+00031MA1999999095471REMSYN094AAXX  07184 06756 03/// /0000 10004 20004 39547 40253 5//// 60012 333 10003 553// 20011 69925;
0146067560999992011010719004+46467+008933FM-12+055299999V0203301N001019999999N9999999N1+00041+00041102531ADDMA1999999095471MD1219999+9999OA149900151REMSYN094AAXX  07194 06756 23/// /3302 10004 20004 39547 40253 52/// 333 55300 20011 69955 91103 91203;
0087067560999992011010720004+46467+008933FM-12+055299999V0202001N001019999999N9999999N1+00051+00051102501ADDMA1999999095451REMSYN060AAXX  07204 06756 43/// /2002 10005 20005 39545 40250 5////;
0087067560999992011010721004+46467+008933FM-12+055299999V0203001N000519999999N9999999N1+00011+00011102501ADDMA1999999095441REMSYN060AAXX  07214 06756 43/// /3001 10001 20001 39544 40250 5////;
0146067560999992011010722004+46467+008933FM-12+055299999V0203401N000519999999N9999999N1+00031+00031102501ADDMA1999999095441MD1510031+9999OA149900261REMSYN094AAXX  07224 06756 23/// /3401 10003 20003 39544 40250 55003 333 55300 20011 69935 91105 91202;
0109067560999992011010723004+46467+008933FM-12+055299999V0201201N000519999999N9999999N1+00011+00011102531ADDMA1999999095471REMSYN082AAXX  07234 06756 23/// /1201 10001 20001 39547 40253 5//// 333 553// 20011 69965;
0126067560999992011010800004+46467+008933FM-12+055299999V0201501N001519999999N9999999N1-00021-00021102541ADDAA106002091MA1999999095471REMSYN088AAXX  08004 06756 03/// /1503 11002 21002 39547 40254 5//// 60021 333 553// 20011 69985;
0087067560999992011010801004+46467+008933FM-12+055299999V0200101N000519999999N9999999N1-00041-00041102531ADDMA1999999095451REMSYN060AAXX  08014 06756 43/// /0101 11004 21004 39545 40253 5////;
0087067560999992011010802004+46467+008933FM-12+055299999V0200101N000519999999N9999999N1-00021-00021102491ADDMA1999999095421REMSYN060AAXX  08024 06756 43/// /0101 11002 21002 39542 40249 5////;
0087067560999992011010803004+46467+008933FM-12+055299999V0200101N001019999999N9999999N1-00011-00011102471ADDMA1999999095401REMSYN060AAXX  08034 06756 43/// /0102 11001 21001 39540 40247 5////;
0087067560999992011010804004+46467+008933FM-12+055299999V0209999C000019999999N9999999N1+00011+00011102411ADDMA1999999095351REMSYN060AAXX  08044 06756 43/// /0000 10001 20001 39535 40241 5////;
0087067560999992011010805004+46467+008933FM-12+055299999V0203101N000519999999N9999999N1+00021+00021102341ADDMA1999999095291REMSYN060AAXX  08054 06756 43/// /3101 10002 20002 39529 40234 5////;
0134067560999992011010806004+46467+008933FM-12+055299999V0202901N000519999999N9999999N1+00041+00041102331ADDIA2999+00009KA1999N-00041MA1999999095291REMSYN082AAXX  08064 06756 43/// /2901 10004 20004 39529 40233 5//// 333 21004 3/000 55000;
0087067560999992011010807004+46467+008933FM-12+055299999V0203001N001519999999N9999999N1+00061+00061102371ADDMA1999999095331REMSYN060AAXX  08074 06756 43/// /3003 10006 20006 39533 40237 5////;
0109067560999992011010808004+46467+008933FM-12+055299999V0209999C000019999999N9999999N1+00071+00071102411ADDMA1999999095371REMSYN082AAXX  08084 06756 23/// /0000 10007 20007 39537 40241 5//// 333 553// 20018 69915;
0087067560999992011010809004+46467+008933FM-12+055299999V0203501N000519999999N9999999N1+00111+00111102391ADDMA1999999095361REMSYN060AAXX  08094 06756 43/// /3501 10011 20011 39536 40239 5////;
0087067560999992011010810004+46467+008933FM-12+055299999V0203001N001019999999N9999999N1+00151+00151102421ADDMA1999999095401REMSYN060AAXX  08104 06756 43/// /3002 10015 20015 39540 40242 5////;
0087067560999992011010811004+46467+008933FM-12+055299999V0203301N001519999999N9999999N1+00171+00171102371ADDMA1999999095361REMSYN060AAXX  08114 06756 43/// /3303 10017 20017 39536 40237 5////;
0087067560999992011010812004+46467+008933FM-12+055299999V0200901N000519999999N9999999N1+00201+00201102331ADDMA1999999095331REMSYN060AAXX  08124 06756 43/// /0901 10020 20020 39533 40233 5////;
0087067560999992011010813004+46467+008933FM-12+055299999V0203401N001019999999N9999999N1+00231+00231102261ADDMA1999999095271REMSYN060AAXX  08134 06756 43/// /3402 10023 20023 39527 40226 5////;
0087067560999992011010814004+46467+008933FM-12+055299999V0203501N001019999999N9999999N1+00241+00241102271ADDMA1999999095281REMSYN060AAXX  08144 06756 43/// /3502 10024 20024 39528 40227 5////;
0087067560999992011010815004+46467+008933FM-12+055299999V0203101N001019999999N9999999N1+00261+00261102301ADDMA1999999095311REMSYN060AAXX  08154 06756 43/// /3102 10026 20026 39531 40230 5////;
0087067560999992011010816004+46467+008933FM-12+055299999V0203501N000519999999N9999999N1+00221+00221102331ADDMA1999999095331REMSYN060AAXX  08164 06756 43/// /3501 10022 20022 39533 40233 5////;
0087067560999992011010817004+46467+008933FM-12+055299999V0200201N001519999999N9999999N1+00201+00201102351ADDMA1999999095351REMSYN060AAXX  08174 06756 43/// /0203 10020 20020 39535 40235 5////;
0087067560999992011010818004+46467+008933FM-12+055299999V0203501N000519999999N9999999N1+00201+00201102371ADDMA1999999095361REMSYN060AAXX  08184 06756 43/// /3501 10020 20020 39536 40237 5////;
0087067560999992011010819004+46467+008933FM-12+055299999V0203001N001019999999N9999999N1+00241+00241102311ADDMA1999999095321REMSYN060AAXX  08194 06756 43/// /3002 10024 20024 39532 40231 5////;
0087067560999992011010820004+46467+008933FM-12+055299999V0203001N000519999999N9999999N1+00231+00231102341ADDMA1999999095341REMSYN060AAXX  08204 06756 43/// /3001 10023 20023 39534 40234 5////;
0087067560999992011010821004+46467+008933FM-12+055299999V0203001N001519999999N9999999N1+00211+00211102361ADDMA1999999095361REMSYN060AAXX  08214 06756 43/// /3003 10021 20021 39536 40236 5////;
0087067560999992011010822004+46467+008933FM-12+055299999V0203401N001019999999N9999999N1+00181+00181102351ADDMA1999999095341REMSYN060AAXX  08224 06756 43/// /3402 10018 20018 39534 40235 5////;
0087067560999992011010823004+46467+008933FM-12+055299999V0203401N001519999999N9999999N1+00221+00221102381ADDMA1999999095381REMSYN060AAXX  08234 06756 43/// /3403 10022 20022 39538 40238 5////;
0087067560999992011010900004+46467+008933FM-12+055299999V0201601N000519999999N9999999N1+00201+00201102391ADDMA1999999095381REMSYN060AAXX  09004 06756 43/// /1601 10020 20020 39538 40239 5////;
0087067560999992011010901004+46467+008933FM-12+055299999V0202901N001019999999N9999999N1+00211+00211102341ADDMA1999999095341REMSYN060AAXX  09014 06756 43/// /2902 10021 20021 39534 40234 5////;
0087067560999992011010902004+46467+008933FM-12+055299999V0202901N000519999999N9999999N1+00221+00221102331ADDMA1999999095331REMSYN060AAXX  09024 06756 43/// /2901 10022 20022 39533 40233 5////;
0087067560999992011010903004+46467+008933FM-12+055299999V0209999C000019999999N9999999N1+00211+00211102311ADDMA1999999095311REMSYN060AAXX  09034 06756 43/// /0000 10021 20021 39531 40231 5////;
0087067560999992011010904004+46467+008933FM-12+055299999V0200101N000519999999N9999999N1+00201+00201102261ADDMA1999999095261REMSYN060AAXX  09044 06756 43/// /0101 10020 20020 39526 40226 5////;
0087067560999992011010905004+46467+008933FM-12+055299999V0201901N000519999999N9999999N1+00231+00231102241ADDMA1999999095251REMSYN060AAXX  09054 06756 43/// /1901 10023 20023 39525 40224 5////;
0097067560999992011010906004+46467+008933FM-12+055299999V0202001N001019999999N9999999N1+00231+00231102251ADDMA1999999095261REMSYN070AAXX  09064 06756 43/// /2002 10023 20023 39526 40225 5//// 333 55000;
0087067560999992011010907004+46467+008933FM-12+055299999V0209999C000519999999N9999999N1+00201+00201102271ADDMA1999999095271REMSYN060AAXX  09074 06756 43/// /0001 10020 20020 39527 40227 5////;
0103067560999992011010908004+46467+008933FM-12+055299999V0200801N000519999999N9999999N1+00201+00201102311ADDMA1999999095311REMSYN076AAXX  09084 06756 33/// /0801 10020 20020 39531 40231 5//// 333 553// 20014;
0103067560999992011010909004+46467+008933FM-12+055299999V0203301N001019999999N9999999N1+00201+00201102341ADDMA1999999095341REMSYN076AAXX  09094 06756 33/// /3302 10020 20020 39534 40234 5//// 333 553// 20029;
0146067560999992011010910004+46467+008933FM-12+055299999V0209999C000019999999N9999999N1+00201+00201102381ADDMA1999999095371MD1210101+9999OA149900151REMSYN094AAXX  09104 06756 23/// /0000 10020 20020 39537 40238 52010 333 55300 20043 69915 91103 91203;
0140067560999992011010911004+46467+008933FM-12+055299999V0203401N001019999999N9999999N1+00201+00201102331ADDMA1999999095331MD1010021+9999OA149900211REMSYN088AAXX  09114 06756 33/// /3402 10020 20020 39533 40233 50002 333 55300 20047 91104 91202;
0182067560999992011010912004+46467+008933FM-12+055299999V0201601N002619999999N9999999N1+00221+00221102281ADDAA106000091MA1999999095291MD1710051+9999OA149900461REMSYN100AAXX  09124 06756 03/// /1605 10022 20022 39529 40228 57005 69911 333 55300 20054 60005 91109 91205;EQDQ01  00002PRCP06
0140067560999992011010913004+46467+008933FM-12+055299999V0209999C000019999999N9999999N1+00181+00181102221ADDMA1999999095221MD1810151+9999OA149900461REMSYN088AAXX  09134 06756 33/// /0000 10018 20018 39522 40222 58015 333 55300 20040 91109 91205;
0087067560999992011010914004+46467+008933FM-12+055299999V0202201N001019999999N9999999N1+00201+00201102181ADDMA1999999095191REMSYN060AAXX  09144 06756 43/// /2202 10020 20020 39519 40218 5////;
0087067560999992011010915004+46467+008933FM-12+055299999V0201601N001519999999N9999999N1+00201+00201102191ADDMA1999999095201REMSYN060AAXX  09154 06756 43/// /1603 10020 20020 39520 40219 5////;
0146067560999992011010916004+46467+008933FM-12+055299999V0203401N001019999999N9999999N1+00161+00161102201ADDMA1999999095201MD1510021+9999OA149900261REMSYN094AAXX  09164 06756 23/// /3402 10016 20016 39520 40220 55002 333 55300 20014 69915 91105 91203;
0146067560999992011010917004+46467+008933FM-12+055299999V0203301N001019999999N9999999N1+00161+00161102171ADDMA1999999095171MD1810021+9999OA149900261REMSYN094AAXX  09174 06756 23/// /3302 10016 20016 39517 40217 58002 333 55300 20011 69955 91105 91202;
0182067560999992011010918004+46467+008933FM-12+055299999V0209999C000019999999N9999999N1+00161+00161102211ADDAA112002091KA1120M+00231MA1999999095211MD1310011+9999OA149900461REMSYN106AAXX  09184 06756 03/// /0000 10016 20016 39521 40221 53001 60022 333 10023 55300 20011 69985 91109 91205;
0146067560999992011010919004+46467+008933FM-12+055299999V0203201N000519999999N9999999N1+00181+00181102231ADDMA1999999095231MD1310031+9999OA149900151REMSYN094AAXX  09194 06756 23/// /3201 10018 20018 39523 40223 53003 333 55300 20011 69975 91103 91201;
0146067560999992011010920004+46467+008933FM-12+055299999V0200101N000519999999N9999999N1+00161+00161102241ADDMA1999999095231MD1210061+9999OA149900211REMSYN094AAXX  09204 06756 23/// /0101 10016 20016 39523 40224 52006 333 55300 20011 69955 91104 91203;
0146067560999992011010921004+46467+008933FM-12+055299999V0201801N000519999999N9999999N1+00171+00171102261ADDMA1999999095251MD1210041+9999OA149900261REMSYN094AAXX  09214 06756 23/// /1801 10017 20017 39525 40226 52004 333 55300 20011 60015 91105 91203;
0146067560999992011010922004+46467+008933FM-12+055299999V0203401N000519999999N9999999N1+00161+00161102251ADDMA1999999095241MD1010011+9999OA149900211REMSYN094AAXX  09224 06756 23/// /3401 10016 20016 39524 40225 50001 333 55300 20011 69975 91104 91203;
0146067560999992011010923004+46467+008933FM-12+055299999V0203001N000519999999N9999999N1+00141+00141102241ADDMA1999999095231MD1410001+9999OA149900211REMSYN094AAXX  09234 06756 23/// /3001 10014 20014 39523 40224 58000 333 55300 20011 69945 91104 91203;
0163067560999992011011000004+46467+008933FM-12+055299999V0203301N001519999999N9999999N1+00151+00151102231ADDAA106004191MA1999999095221MD1710031+9999OA149900261REMSYN100AAXX  10004 06756 03/// /3303 10015 20015 39522 40223 57003 60041 333 55300 20011 69975 91105 91203;
0146067560999992011011001004+46467+008933FM-12+055299999V0203301N000519999999N9999999N1+00151+00151102211ADDMA1999999095201MD1710041+9999OA149900261REMSYN094AAXX  10014 06756 23/// /3301 10015 20015 39520 40221 57004 333 55300 20011 69975 91105 91204;
0109067560999992011011002004+46467+008933FM-12+055299999V0209999C000019999999N9999999N1+00141+00141102221ADDMA1999999095211REMSYN082AAXX  10024 06756 23/// /0000 10014 20014 39521 40222 5//// 333 553// 20011 60025;
0087067560999992011011003004+46467+008933FM-12+055299999V0209999C000019999999N9999999N1+00131+00131102211ADDMA1999999095201REMSYN060AAXX  10034 06756 43/// /0000 10013 20013 39520 40221 5////;
0109067560999992011011004004+46467+008933FM-12+055299999V0203201N001019999999N9999999N1+00121+00121102201ADDMA1999999095191REMSYN082AAXX  10044 06756 23/// /3202 10012 20012 39519 40220 5//// 333 553// 20011 69975;
0146067560999992011011005004+46467+008933FM-12+055299999V0202901N001019999999N9999999N1+00131+00131102171ADDMA1999999095161MD1819999+9999OA149900151REMSYN094AAXX  10054 06756 23/// /2902 10013 20013 39516 40217 58/// 333 55300 20011 69915 91103 91203;
0159067560999992011011006004+46467+008933FM-12+055299999V0203301N001019999999N9999999N1+00121+00121102181ADDAA124009991GJ100009IA2999+00109KA1999N+00101MA1999999095171REMSYN088AAXX  10064 06756 43/// /3302 10012 20012 39517 40218 5//// 333 20010 3/001 55000 70100;
0146067560999992011011007004+46467+008933FM-12+055299999V0203201N000519999999N9999999N1+00131+00131102191ADDMA1999999095181MD1510011+9999OA149900151REMSYN094AAXX  10074 06756 23/// /3201 10013 20013 39518 40219 55001 333 55300 20011 69925 91103 91203;
0087067560999992011011008004+46467+008933FM-12+055299999V0203301N001019999999N9999999N1+00151+00151102191ADDMA1999999095181REMSYN060AAXX  10084 06756 43/// /3302 10015 20015 39518 40219 5////;
0087067560999992011011009004+46467+008933FM-12+055299999V0203301N001019999999N9999999N1+00171+00171102191ADDMA1999999095191REMSYN060AAXX  10094 06756 43/// /3302 10017 20017 39519 40219 5////;
0140067560999992011011010004+46467+008933FM-12+055299999V0203401N001519999999N9999999N1+00211+00211102201ADDMA1999999095211MD1210031+9999OA149900261REMSYN088AAXX  10104 06756 33/// /3403 10021 20021 39521 40220 52003 333 55300 20137 91105 91203;
0140067560999992011011011004+46467+008933FM-12+055299999V0209999C000019999999N9999999N1+00281+00281102141ADDMA1999999095171MD1819999+9999OA149900211REMSYN088AAXX  10114 06756 33/// /0000 10028 20028 39517 40214 58/// 333 55300 20212 91104 91203;
0145067560999992011011012004+46467+008933FM-12+055299999V0203301N001019999999N9999999N1+00321+00321102081ADDAA106000091MA1999999095121REMSYN088AAXX  10124 06756 03/// /3302 10032 20032 39512 40208 5//// 69921 333 553// 20313 60005;EQDQ01  00002PRCP06
0087067560999992011011013004+46467+008933FM-12+055299999V0209999C000019999999N9999999N1+00341+00341102011ADDMA1999999095061REMSYN060AAXX  10134 06756 43/// /0000 10034 20034 39506 40201 5////;
0087067560999992011011014004+46467+008933FM-12+055299999V0209999C000019999999N9999999N1+00291+00291102021ADDMA1999999095061REMSYN060AAXX  10144 06756 43/// /0000 10029 20029 39506 40202 5////;
0087067560999992011011015004+46467+008933FM-12+055299999V0201501N001019999999N9999999N1+00251+00251102061ADDMA1999999095091REMSYN060AAXX  10154 06756 43/// /1502 10025 20025 39509 40206 5////;
0087067560999992011011016004+46467+008933FM-12+055299999V0203301N001019999999N9999999N1+00221+00221102061ADDMA1999999095081REMSYN060AAXX  10164 06756 43/// /3302 10022 20022 39508 40206 5////;
0087067560999992011011017004+46467+008933FM-12+055299999V0203401N001519999999N9999999N1+00241+00241102021ADDMA1999999095051REMSYN060AAXX  10174 06756 43/// /3403 10024 20024 39505 40202 5////;
0110067560999992011011018004+46467+008933FM-12+055299999V0203501N000519999999N9999999N1+00201+00201102021ADDKA1999M+00341MA1999999095041REMSYN070AAXX  10184 06756 43/// /3501 10020 20020 39504 40202 5//// 333 10034;
0087067560999992011011019004+46467+008933FM-12+055299999V0209999C000519999999N9999999N1+00201+00201102001ADDMA1999999095021REMSYN060AAXX  10194 06756 43/// /0001 10020 20020 39502 40200 5////;
0087067560999992011011020004+46467+008933FM-12+055299999V0203201N001519999999N9999999N1+00231+00231101981ADDMA1999999095011REMSYN060AAXX  10204 06756 43/// /3203 10023 20023 39501 40198 5////;
0087067560999992011011021004+46467+008933FM-12+055299999V0201501N000519999999N9999999N1+00231+00231101981ADDMA1999999095011REMSYN060AAXX  10214 06756 43/// /1501 10023 20023 39501 40198 5////;
0087067560999992011011022004+46467+008933FM-12+055299999V0203301N001019999999N9999999N1+00221+00221101991ADDMA1999999095021REMSYN060AAXX  10224 06756 43/// /3302 10022 20022 39502 40199 5////;
0087067560999992011011023004+46467+008933FM-12+055299999V0203401N001019999999N9999999N1+00221+00221101971ADDMA1999999095001REMSYN060AAXX  10234 06756 43/// /3402 10022 20022 39500 40197 5////;
0087067560999992011011100004+46467+008933FM-12+055299999V0203201N000519999999N9999999N1+00201+00201101901ADDMA1999999094931REMSYN060AAXX  11004 06756 43/// /3201 10020 20020 39493 40190 5////;
0087067560999992011011101004+46467+008933FM-12+055299999V0203301N001019999999N9999999N1+00201+00201101861ADDMA1999999094891REMSYN060AAXX  11014 06756 43/// /3302 10020 20020 39489 40186 5////;
0087067560999992011011102004+46467+008933FM-12+055299999V0203101N001019999999N9999999N1+00201+00201101831ADDMA1999999094861REMSYN060AAXX  11024 06756 43/// /3102 10020 20020 39486 40183 5////;
0087067560999992011011103004+46467+008933FM-12+055299999V0203201N001519999999N9999999N1+00211+00211101781ADDMA1999999094821REMSYN060AAXX  11034 06756 43/// /3203 10021 20021 39482 40178 5////;
0087067560999992011011104004+46467+008933FM-12+055299999V0203401N001519999999N9999999N1+00221+00221101721ADDMA1999999094761REMSYN060AAXX  11044 06756 43/// /3403 10022 20022 39476 40172 5////;
0087067560999992011011105004+46467+008933FM-12+055299999V0203301N001019999999N9999999N1+00191+00191101681ADDMA1999999094721REMSYN060AAXX  11054 06756 43/// /3302 10019 20019 39472 40168 5////;
0097067560999992011011106004+46467+008933FM-12+055299999V0209999C001019999999N9999999N1+00191+00191101671ADDMA1999999094711REMSYN070AAXX  11064 06756 43/// /0002 10019 20019 39471 40167 5//// 333 55000;
0140067560999992011011107004+46467+008933FM-12+055299999V0203101N000519999999N9999999N1+00201+00201101651ADDMA1999999094691MD1719999+9999OA149900211REMSYN088AAXX  11074 06756 33/// /3101 10020 20020 39469 40165 57/// 333 55300 20011 91104 91203;
0103067560999992011011108004+46467+008933FM-12+055299999V0203401N001019999999N9999999N1+00201+00201101671ADDMA1999999094711REMSYN076AAXX  11084 06756 33/// /3402 10020 20020 39471 40167 5//// 333 553// 20036;
0087067560999992011011109004+46467+008933FM-12+055299999V0203301N000519999999N9999999N1+00241+00241101621ADDMA1999999094681REMSYN060AAXX  11094 06756 43/// /3301 10024 20024 39468 40162 5////;
0140067560999992011011110004+46467+008933FM-12+055299999V0200101N001019999999N9999999N1+00291+00291101611ADDMA1999999094681MD1710011+9999OA149900151REMSYN088AAXX  11104 06756 33/// /0102 10029 20029 39468 40161 57001 333 55300 20241 91103 91202;
0140067560999992011011111004+46467+008933FM-12+055299999V0200301N001519999999N9999999N1+00381+00381101521ADDMA1999999094621MD1710091+9999OA149900211REMSYN088AAXX  11114 06756 33/// /0303 10038 20038 39462 40152 57009 333 55300 20374 91104 91203;
0103067560999992011011112004+46467+008933FM-12+055299999V0202901N000519999999N9999999N1+00481+00481101371ADDMA1999999094501REMSYN076AAXX  11124 06756 33/// /2901 10048 20048 39450 40137 5//// 333 553// 20486;
0140067560999992011011113004+46467+008933FM-12+055299999V0209999C000019999999N9999999N1+00491+00491101271ADDMA1999999094411MD1810271+9999OA149900151REMSYN088AAXX  11134 06756 33/// /0000 10049 20049 39441 40127 58027 333 55300 20396 91103 91201;
0087067560999992011011114004+46467+008933FM-12+055299999V0201601N002619999999N9999999N1+00441+00441101261ADDMA1999999094391REMSYN060AAXX  11144 06756 43/// /1605 10044 20044 39439 40126 5////;
0087067560999992011011115004+46467+008933FM-12+055299999V0201501N000519999999N9999999N1+00371+00371101321ADDMA1999999094431REMSYN060AAXX  11154 06756 43/// /1501 10037 20037 39443 40132 5////;
0140067560999992011011116004+46467+008933FM-12+055299999V0203501N001019999999N9999999N1+00301+00301101371ADDMA1999999094461MD1210051+9999OA149900361REMSYN088AAXX  11164 06756 33/// /3502 10030 20030 39446 40137 52005 333 55300 20025 91107 91203;
0146067560999992011011117004+46467+008933FM-12+055299999V0202801N001019999999N9999999N1+00281+00281101401ADDMA1999999094481MD1110091+9999OA149900151REMSYN094AAXX  11174 06756 23/// /2802 10028 20028 39448 40140 51009 333 55300 20014 69935 91103 91202;
0182067560999992011011118004+46467+008933FM-12+055299999V0203201N001019999999N9999999N1+00231+00231101441ADDAA112000591KA1120M+00501MA1999999094511MD1210081+9999OA149900361REMSYN106AAXX  11184 06756 03/// /3202 10023 20023 39451 40144 52008 69952 333 10050 55300 20011 69925 91107 91205;
0140067560999992011011119004+46467+008933FM-12+055299999V0203201N001019999999N9999999N1+00151+00151101511ADDMA1999999094551MD1210091+9999OA149900261REMSYN088AAXX  11194 06756 33/// /3202 10015 20015 39455 40151 52009 333 55300 20011 91105 91203;
0140067560999992011011120004+46467+008933FM-12+055299999V0203101N002119999999N9999999N1+00131+00131101521ADDMA1999999094561MD1210081+9999OA149900311REMSYN088AAXX  11204 06756 33/// /3104 10013 20013 39456 40152 52008 333 55300 20011 91106 91204;
0140067560999992011011121004+46467+008933FM-12+055299999V0203201N001519999999N9999999N1+00101+00101101551ADDMA1999999094581MD1210071+9999OA149900311REMSYN088AAXX  11214 06756 33/// /3203 10010 20010 39458 40155 52007 333 55300 20011 91106 91204;
0140067560999992011011122004+46467+008933FM-12+055299999V0203601N001519999999N9999999N1+00051+00051101621ADDMA1999999094631MD1210081+9999OA149900361REMSYN088AAXX  11224 06756 33/// /3603 10005 20005 39463 40162 52008 333 55300 20014 91107 91205;
0140067560999992011011123004+46467+008933FM-12+055299999V0203301N002119999999N9999999N1+00101+00101101651ADDMA1999999094671MD1310111+9999OA149900361REMSYN088AAXX  11234 06756 33/// /3304 10010 20010 39467 40165 53011 333 55300 20011 91107 91205;
0140067560999992011011200004+46467+008933FM-12+055299999V0203301N001519999999N9999999N1+00041+00041101661ADDMA1999999094661MD1210081+9999OA149900361REMSYN088AAXX  12004 06756 33/// /3303 10004 20004 39466 40166 52008 333 55300 20011 91107 91205;
0140067560999992011011201004+46467+008933FM-12+055299999V0203401N001519999999N9999999N1+00041+00041101701ADDMA1999999094701MD1210071+9999OA149900311REMSYN088AAXX  12014 06756 33/// /3403 10004 20004 39470 40170 52007 333 55300 20011 91106 91204;
0103067560999992011011202004+46467+008933FM-12+055299999V0203201N001519999999N9999999N1+00031+00031101821ADDMA1999999094811REMSYN076AAXX  12024 06756 33/// /3203 10003 20003 39481 40182 5//// 333 553// 20014;
0087067560999992011011203004+46467+008933FM-12+055299999V0203401N001519999999N9999999N1+00031+00031101881ADDMA1999999094871REMSYN060AAXX  12034 06756 43/// /3403 10003 20003 39487 40188 5////;
0087067560999992011011204004+46467+008933FM-12+055299999V0203201N001019999999N9999999N1+00051+00051101931ADDMA1999999094921REMSYN060AAXX  12044 06756 43/// /3202 10005 20005 39492 40193 5////;
0103067560999992011011205004+46467+008933FM-12+055299999V0203101N001519999999N9999999N1+00071+00061101931ADDMA1999999094921REMSYN076AAXX  12054 06756 33/// /3103 10007 20006 39492 40193 5//// 333 553// 20014;
0159067560999992011011206004+46467+008933FM-12+055299999V0203401N000519999999N9999999N1+00051+00041102011ADDAA124000591GJ100009IA2999-00109KA1999N+00001MA1999999094991REMSYN088AAXX  12064 06756 43/// /3401 10005 20004 39499 40201 5//// 333 20000 3/101 55000 70005;
0140067560999992011011207004+46467+008933FM-12+055299999V0203301N001019999999N9999999N1+00041+00021102091ADDMA1999999095061MD1310141+9999OA149900261REMSYN088AAXX  12074 06756 33/// /3302 10004 20002 39506 40209 53014 333 55300 20014 91105 91203;
0087067560999992011011208004+46467+008933FM-12+055299999V0203201N001019999999N9999999N1+00061+00051102131ADDMA1999999095111REMSYN060AAXX  12084 06756 43/// /3202 10006 20005 39511 40213 5////;
0087067560999992011011209004+46467+008933FM-12+055299999V0203601N000519999999N9999999N1+00241+00101102081ADDMA1999999095101REMSYN060AAXX  12094 06756 43/// /3601 10024 20010 39510 40208 5////;
0140067560999992011011210004+46467+008933FM-12+055299999V0203301N001519999999N9999999N1+00471+00201102091ADDMA1999999095171MD1219999+9999OA149900311REMSYN088AAXX  12104 06756 33/// /3303 10047 20020 39517 40209 52/// 333 55303 20745 91106 91204;
0117067560999992011011211004+46467+008933FM-12+055299999V0200401N000519999999N9999999N1+00691+00251102041ADDMA1999999095181MD1210071+9999REMSYN076AAXX  12114 06756 33/// /0401 10069 20025 39518 40204 52007 333 55306 2////;
0087067560999992011011212004+46467+008933FM-12+055299999V0201501N000519999999N9999999N1+00821+00111101981ADDMA1999999095151REMSYN060AAXX  12124 06756 43/// /1501 10082 20011 39515 40198 5////;
0087067560999992011011213004+46467+008933FM-12+055299999V0201601N000519999999N9999999N1+00801+00151101951ADDMA1999999095121REMSYN060AAXX  12134 06756 43/// /1601 10080 20015 39512 40195 5////;
0087067560999992011011214004+46467+008933FM-12+055299999V0201801N001019999999N9999999N1+00721+00201101981ADDMA1999999095131REMSYN060AAXX  12144 06756 43/// /1802 10072 20020 39513 40198 5////;
0087067560999992011011215004+46467+008933FM-12+055299999V0203401N001019999999N9999999N1+00611+00211102041ADDMA1999999095161REMSYN060AAXX  12154 06756 43/// /3402 10061 20021 39516 40204 5////;
0140067560999992011011216004+46467+008933FM-12+055299999V0203301N001019999999N9999999N1+00571+00131102091ADDMA1999999095201MD1310081+9999OA149900211REMSYN088AAXX  12164 06756 33/// /3302 10057 20013 39520 40209 53008 333 55300 20115 91104 91203;
0140067560999992011011217004+46467+008933FM-12+055299999V0203101N001519999999N9999999N1+00571+00181102181ADDMA1999999095281MD1310151+9999OA149900361REMSYN088AAXX  12174 06756 33/// /3103 10057 20018 39528 40218 53015 333 55300 20011 91107 91203;
0159067560999992011011218004+46467+008933FM-12+055299999V0203001N003119999999N9999999N1+00641+00251102161ADDKA1120M+00851MA1999999095281MD1210121+9999OA149900621REMSYN094AAXX  12184 06756 33/// /3006 10064 20025 39528 40216 52012 333 10085 55300 20011 91112 91206;
0140067560999992011011219004+46467+008933FM-12+055299999V0203001N001519999999N9999999N1+00411+00241102241ADDMA1999999095301MD1210101+9999OA149900621REMSYN088AAXX  12194 06756 33/// /3003 10041 20024 39530 40224 52010 333 55300 20011 91112 91206;
0140067560999992011011220004+46467+008933FM-12+055299999V0202901N001019999999N9999999N1+00371+00221102291ADDMA1999999095331MD1210051+9999OA149900511REMSYN088AAXX  12204 06756 33/// /2902 10037 20022 39533 40229 52005 333 55300 20011 91110 91205;
0140067560999992011011221004+46467+008933FM-12+055299999V0203401N001519999999N9999999N1+00401+00231102251ADDMA1999999095301MD1010021+9999OA149900621REMSYN088AAXX  12214 06756 33/// /3403 10040 20023 39530 40225 50002 333 55300 20011 91112 91206;
0140067560999992011011222004+46467+008933FM-12+055299999V0203101N001019999999N9999999N1+00311+00221102261ADDMA1999999095291MD1810011+9999OA149900261REMSYN088AAXX  12224 06756 33/// /3102 10031 20022 39529 40226 58001 333 55300 20011 91105 91203;
0140067560999992011011223004+46467+008933FM-12+055299999V0203501N000519999999N9999999N1+00271+00221102281ADDMA1999999095301MD1510031+9999OA149900211REMSYN088AAXX  12234 06756 33/// /3501 10027 20022 39530 40228 55003 333 55300 20014 91104 91203;
0140067560999992011011300004+46467+008933FM-12+055299999V0203401N000519999999N9999999N1+00251+00211102241ADDMA1999999095261MD1810041+9999OA149900621REMSYN088AAXX  13004 06756 33/// /3401 10025 20021 39526 40224 58004 333 55300 20011 91112 91206;
0140067560999992011011301004+46467+008933FM-12+055299999V0203301N001519999999N9999999N1+00251+00221102201ADDMA1999999095221MD1710071+9999OA149900261REMSYN088AAXX  13014 06756 33/// /3303 10025 20022 39522 40220 57007 333 55300 20014 91105 91204;
0140067560999992011011302004+46467+008933FM-12+055299999V0203301N000519999999N9999999N1+00251+00251102211ADDMA1999999095231MD1719999+9999OA149900361REMSYN088AAXX  13024 06756 33/// /3301 10025 20025 39523 40221 57/// 333 55300 20014 91107 91204;
0087067560999992011011303004+46467+008933FM-12+055299999V0203301N001019999999N9999999N1+00261+00261102111ADDMA1999999095141REMSYN060AAXX  13034 06756 43/// /3302 10026 20026 39514 40211 5////;
0140067560999992011011304004+46467+008933FM-12+055299999V0203501N001519999999N9999999N1+00251+00251102051ADDMA1999999095081MD1719999+9999OA149900311REMSYN088AAXX  13044 06756 33/// /3503 10025 20025 39508 40205 57/// 333 55300 20011 91106 91203;
0103067560999992011011305004+46467+008933FM-12+055299999V0202801N000519999999N9999999N1+00261+00261102031ADDMA1999999095061REMSYN076AAXX  13054 06756 33/// /2801 10026 20026 39506 40203 5//// 333 553// 20011;
0207067560999992011011306004+46467+008933FM-12+055299999V0203001N001019999999N9999999N1+00271+00271102031ADDAL19900091GJ102109IA2999+00109KA1999N+00191MA1999999095071MD1510071+9999OA149900511REMSYN112AAXX  13064 06756 33/// /3002 10027 20027 39507 40203 55007 333 20019 3/001 55035 55300 20011 70000 91110 91205;
0087067560999992011011307004+46467+008933FM-12+055299999V0202901N001019999999N9999999N1+00231+00231102051ADDMA1999999095071REMSYN060AAXX  13074 06756 43/// /2902 10023 20023 39507 40205 5////;
0087067560999992011011308004+46467+008933FM-12+055299999V0203001N001019999999N9999999N1+00251+00251102091ADDMA1999999095121REMSYN060AAXX  13084 06756 43/// /3002 10025 20025 39512 40209 5////;
0087067560999992011011309004+46467+008933FM-12+055299999V0203401N001519999999N9999999N1+00451+00441102001ADDMA1999999095081REMSYN060AAXX  13094 06756 43/// /3403 10045 20044 39508 40200 5////;
0087067560999992011011310004+46467+008933FM-12+055299999V0201201N000519999999N9999999N1+00721+00521101941ADDMA1999999095091REMSYN060AAXX  13104 06756 43/// /1201 10072 20052 39509 40194 5////;
0087067560999992011011311004+46467+008933FM-12+055299999V0203301N000519999999N9999999N1+00851+00531101801ADDMA1999999094991REMSYN060AAXX  13114 06756 43/// /3301 10085 20053 39499 40180 5////;
0087067560999992011011312004+46467+008933FM-12+055299999V0200101N000519999999N9999999N1+01041+00451101621ADDMA1999999094871REMSYN060AAXX  13124 06756 43/// /0101 10104 20045 39487 40162 5////;
0087067560999992011011313004+46467+008933FM-12+055299999V0201701N002119999999N9999999N1+00921+00491101611ADDMA1999999094831REMSYN060AAXX  13134 06756 43/// /1704 10092 20049 39483 40161 5////;
0087067560999992011011314004+46467+008933FM-12+055299999V0201901N000519999999N9999999N1+00771+00501101611ADDMA1999999094801REMSYN060AAXX  13144 06756 43/// /1901 10077 20050 39480 40161 5////;
0087067560999992011011315004+46467+008933FM-12+055299999V0201601N000519999999N9999999N1+00681+00481101691ADDMA1999999094851REMSYN060AAXX  13154 06756 43/// /1601 10068 20048 39485 40169 5////;
0087067560999992011011316004+46467+008933FM-12+055299999V0203201N001019999999N9999999N1+00531+00421101811ADDMA1999999094921REMSYN060AAXX  13164 06756 43/// /3202 10053 20042 39492 40181 5////;
0140067560999992011011317004+46467+008933FM-12+055299999V0203401N000519999999N9999999N1+00491+00371101881ADDMA1999999094981MD1110181+9999OA149900461REMSYN088AAXX  13174 06756 33/// /3401 10049 20037 39498 40188 51018 333 55300 20014 91109 91203;
0159067560999992011011318004+46467+008933FM-12+055299999V0203201N001519999999N9999999N1+00571+00331101871ADDKA1120M+01061MA1999999094991MD1210121+9999OA149900511REMSYN094AAXX  13184 06756 33/// /3203 10057 20033 39499 40187 52012 333 10106 55300 20011 91110 91205;
0140067560999992011011319004+46467+008933FM-12+055299999V0203101N000519999999N9999999N1+00631+00301101881ADDMA1999999095011MD1210091+9999OA149900511REMSYN088AAXX  13194 06756 33/// /3101 10063 20030 39501 40188 52009 333 55300 20011 91110 91204;
0140067560999992011011320004+46467+008933FM-12+055299999V0203501N001519999999N9999999N1+00641+00291101931ADDMA1999999095061MD1210081+9999OA149900411REMSYN088AAXX  13204 06756 33/// /3503 10064 20029 39506 40193 52008 333 55300 20011 91108 91204;
0140067560999992011011321004+46467+008933FM-12+055299999V0203301N001519999999N9999999N1+00591+00281101971ADDMA1999999095091MD1210101+9999OA149900511REMSYN088AAXX  13214 06756 33/// /3303 10059 20028 39509 40197 52010 333 55300 20011 91110 91205;
0140067560999992011011322004+46467+008933FM-12+055299999V0203401N001019999999N9999999N1+00611+00301101991ADDMA1999999095111MD1210101+9999OA149900311REMSYN088AAXX  13224 06756 33/// /3402 10061 20030 39511 40199 52010 333 55300 20011 91106 91205;
0140067560999992011011323004+46467+008933FM-12+055299999V0203301N001519999999N9999999N1+00611+00291101991ADDMA1999999095111MD1210051+9999OA149900311REMSYN088AAXX  13234 06756 33/// /3303 10061 20029 39511 40199 52005 333 55300 20011 91106 91204;
0140067560999992011011400004+46467+008933FM-12+055299999V0203401N001019999999N9999999N1+00541+00271101981ADDMA1999999095091MD1010001+9999OA149900511REMSYN088AAXX  14004 06756 33/// /3402 10054 20027 39509 40198 50000 333 55300 20014 91110 91205;
0140067560999992011011401004+46467+008933FM-12+055299999V0203001N001019999999N9999999N1+00581+00281101961ADDMA1999999095081MD1710031+9999OA149900311REMSYN088AAXX  14014 06756 33/// /3002 10058 20028 39508 40196 57003 333 55300 20011 91106 91205;
0103067560999992011011402004+46467+008933FM-12+055299999V0203501N001019999999N9999999N1+00531+00271102021ADDMA1999999095121REMSYN076AAXX  14024 06756 33/// /3502 10053 20027 39512 40202 5//// 333 553// 20011;
0140067560999992011011403004+46467+008933FM-12+055299999V0203201N001519999999N9999999N1+00571+00301102021ADDMA1999999095131MD1210041+9999OA149900311REMSYN088AAXX  14034 06756 33/// /3203 10057 20030 39513 40202 52004 333 55300 20011 91106 91205;
0140067560999992011011404004+46467+008933FM-12+055299999V0203201N001519999999N9999999N1+00501+00281102031ADDMA1999999095121MD1010041+9999OA149900361REMSYN088AAXX  14044 06756 33/// /3203 10050 20028 39512 40203 50004 333 55300 20014 91107 91205;
0140067560999992011011405004+46467+008933FM-12+055299999V0203201N002119999999N9999999N1+00591+00281101991ADDMA1999999095111MD1710011+9999OA149900361REMSYN088AAXX  14054 06756 33/// /3204 10059 20028 39511 40199 57001 333 55300 20011 91107 91205;
0226067560999992011011406004+46467+008933FM-12+055299999V0203301N001519999999N9999999N1+00551+00251102031ADDAL19900091GJ101989IA2999+00309KA1999N+00501MA1999999095131MD1310011+9999OA149900411REMSYN112AAXX  14064 06756 33/// /3303 10055 20025 39513 40203 53000 333 20050 3/003 55033 55300 20011 70000 91108 91205;EQDQ01+000002APC3  
0140067560999992011011407004+46467+008933FM-12+055299999V0203401N002119999999N9999999N1+00631+00221102031ADDMA1999999095151MD1210031+9999OA149900311REMSYN088AAXX  14074 06756 33/// /3404 10063 20022 39515 40203 52003 333 55300 20014 91106 91205;
0087067560999992011011408004+46467+008933FM-12+055299999V0203301N002119999999N9999999N1+00651+00251102051ADDMA1999999095181REMSYN060AAXX  14084 06756 43/// /3304 10065 20025 39518 40205 5////;
0087067560999992011011409004+46467+008933FM-12+055299999V0203401N000519999999N9999999N1+00651+00291102081ADDMA1999999095211REMSYN060AAXX  14094 06756 43/// /3401 10065 20029 39521 40208 5////;
0087067560999992011011410004+46467+008933FM-12+055299999V0209999C000519999999N9999999N1+01001+00431102001ADDMA1999999095221REMSYN060AAXX  14104 06756 43/// /0001 10100 20043 39522 40200 5////;
0140067560999992011011411004+46467+008933FM-12+055299999V0209999C000019999999N9999999N1+01091+00401101971ADDMA1999999095211MD1210031+9999OA149900211REMSYN088AAXX  14114 06756 33/// /0000 10109 20040 39521 40197 52003 333 553// 2//// 91104 91202;
0140067560999992011011412004+46467+008933FM-12+055299999V0209999C000019999999N9999999N1+01101+00491101881ADDMA1999999095131MD1810081+9999OA149900361REMSYN088AAXX  14124 06756 33/// /0000 10110 20049 39513 40188 58008 333 553// 20979 91107 91205;
0140067560999992011011413004+46467+008933FM-12+055299999V0201601N001519999999N9999999N1+01061+00431101841ADDMA1999999095081MD1710141+9999OA149900311REMSYN088AAXX  14134 06756 33/// /1603 10106 20043 39508 40184 57014 333 55307 20857 91106 91204;
0103067560999992011011414004+46467+008933FM-12+055299999V0203001N001019999999N9999999N1+00801+00431101911ADDMA1999999095081REMSYN076AAXX  14144 06756 33/// /3002 10080 20043 39508 40191 5//// 333 553// 20382;
0140067560999992011011415004+46467+008933FM-12+055299999V0201601N001519999999N9999999N1+00731+00431101961ADDMA1999999095111MD1510021+9999OA149900411REMSYN088AAXX  14154 06756 33/// /1603 10073 20043 39511 40196 55002 333 55300 20223 91108 91205;
0140067560999992011011416004+46467+008933FM-12+055299999V0201601N002119999999N9999999N1+00491+00471102051ADDMA1999999095141MD1210061+9999OA149900361REMSYN088AAXX  14164 06756 33/// /1604 10049 20047 39514 40205 52006 333 55300 20108 91107 91204;
0140067560999992011011417004+46467+008933FM-12+055299999V0203201N001519999999N9999999N1+00341+00341102151ADDMA1999999095191MD1310111+9999OA149900311REMSYN088AAXX  14174 06756 33/// /3203 10034 20034 39519 40215 53011 333 55300 20014 91106 91204;
0159067560999992011011418004+46467+008933FM-12+055299999V0203201N000519999999N9999999N1+00241+00241102211ADDKA1120M+01141MA1999999095231MD1110121+9999OA149900411REMSYN094AAXX  14184 06756 33/// /3201 10024 20024 39523 40221 51012 333 10114 55300 20011 91108 91205;
0140067560999992011011419004+46467+008933FM-12+055299999V0200701N000519999999N9999999N1+00211+00211102211ADDMA1999999095221MD1210081+9999OA149900261REMSYN088AAXX  14194 06756 33/// /0701 10021 20021 39522 40221 52008 333 55300 20014 91105 91203;
0140067560999992011011420004+46467+008933FM-12+055299999V0203601N001519999999N9999999N1+00231+00191102161ADDMA1999999095181MD1810011+9999OA149900261REMSYN088AAXX  14204 06756 33/// /3603 10023 20019 39518 40216 58001 333 55300 20014 91105 91203;
0140067560999992011011421004+46467+008933FM-12+055299999V0209999C000019999999N9999999N1+00221+00201102171ADDMA1999999095181MD1710051+9999OA149900311REMSYN088AAXX  14214 06756 33/// /0000 10022 20020 39518 40217 57005 333 55300 20014 91106 91204;
0140067560999992011011422004+46467+008933FM-12+055299999V0201501N001019999999N9999999N1+00231+00211102201ADDMA1999999095211MD1510011+9999OA149900261REMSYN088AAXX  14224 06756 33/// /1502 10023 20021 39521 40220 55001 333 55300 20011 91105 91203;
0140067560999992011011423004+46467+008933FM-12+055299999V0209999C000019999999N9999999N1+00111+00111102211ADDMA1999999095191MD1010011+9999OA149900261REMSYN088AAXX  14234 06756 33/// /0000 10011 20011 39519 40221 50001 333 55300 20014 91105 91203;
0140067560999992011011500004+46467+008933FM-12+055299999V0203301N002119999999N9999999N1+00101+00101102191ADDMA1999999095171MD1710011+9999OA149900411REMSYN088AAXX  15004 06756 33/// /3304 10010 20010 39517 40219 57001 333 55300 20014 91108 91205;
0140067560999992011011501004+46467+008933FM-12+055299999V0202801N003119999999N9999999N1+00181+00121102241ADDMA1999999095241MD1310031+9999OA149900411REMSYN088AAXX  15014 06756 33/// /2806 10018 20012 39524 40224 53003 333 55300 20011 91108 91206;
0140067560999992011011502004+46467+008933FM-12+055299999V0203201N001519999999N9999999N1+00181+00131102251ADDMA1999999095251MD1219999+9999OA149900411REMSYN088AAXX  15024 06756 33/// /3203 10018 20013 39525 40225 52/// 333 55300 20011 91108 91206;
0103067560999992011011503004+46467+008933FM-12+055299999V0201801N001519999999N9999999N1+00171+00111102291ADDMA1999999095281REMSYN076AAXX  15034 06756 33/// /1803 10017 20011 39528 40229 5//// 333 553// 20014;
0140067560999992011011504004+46467+008933FM-12+055299999V0203201N002619999999N9999999N1+00491+00061102211ADDMA1999999095291MD1010051+9999OA149900571REMSYN088AAXX  15044 06756 33/// /3205 10049 20006 39529 40221 50005 333 55300 20011 91111 91205;
0140067560999992011011505004+46467+008933FM-12+055299999V0203201N003119999999N9999999N1+00751+00041102211ADDMA1999999095351MD1210101+9999OA149900671REMSYN088AAXX  15054 06756 33/// /3206 10075 20004 39535 40221 52010 333 55300 20011 91113 91208;
0207067560999992011011506004+46467+008933FM-12+055299999V0203401N001519999999N9999999N1+00561-00031102321ADDAL19900091GJ102529IA2999+00009KA1999N+00061MA1999999095411MD1210131+9999OA149900671REMSYN112AAXX  15064 06756 33/// /3403 10056 21003 39541 40232 52013 333 20006 3/100 55042 55300 20014 70000 91113 91208;
0140067560999992011011507004+46467+008933FM-12+055299999V0203201N005719999999N9999999N1+01011-00551102221ADDMA1999999095421MD1210131+9999OA149901081REMSYN088AAXX  15074 06756 33/// /3211 10101 21055 39542 40222 52013 333 55300 20011 91121 91212;
0140067560999992011011508004+46467+008933FM-12+055299999V0203101N002119999999N9999999N1+00861-00441102301ADDMA1999999095461MD1219999+9999OA149901081REMSYN088AAXX  15084 06756 33/// /3104 10086 21044 39546 40230 52/// 333 55300 20040 91121 91212;
0140067560999992011011509004+46467+008933FM-12+055299999V0202301N001019999999N9999999N1+01031-00461102321ADDMA1999999095521MD1210111+9999OA149901081REMSYN088AAXX  15094 06756 33/// /2302 10103 21046 39552 40232 52011 333 55304 20302 91121 91212;
0140067560999992011011510004+46467+008933FM-12+055299999V0202201N000519999999N9999999N1+01151-00261102321ADDMA1999999095551MD1210131+9999OA149900571REMSYN088AAXX  15104 06756 33/// /2201 10115 21026 39555 40232 52013 333 553// 20968 91111 91206;
0140067560999992011011511004+46467+008933FM-12+055299999V0201601N002619999999N9999999N1+01291-00381102231ADDMA1999999095501MD1010041+9999OA149900571REMSYN088AAXX  15114 06756 33/// /1605 10129 21038 39550 40223 50004 333 553// 2//// 91111 91205;
0140067560999992011011512004+46467+008933FM-12+055299999V0201601N002119999999N9999999N1+01361-00521102201ADDMA1999999095491MD1710031+9999OA149901081REMSYN088AAXX  15124 06756 33/// /1604 10136 21052 39549 40220 57003 333 553// 2//// 91121 91212;
0103067560999992011011513004+46467+008933FM-12+055299999V0203501N003119999999N9999999N1+01441-00381102191ADDMA1999999095501REMSYN076AAXX  15134 06756 33/// /3506 10144 21038 39550 40219 5//// 333 553// 2////;
0087067560999992011011514004+46467+008933FM-12+055299999V0201701N002619999999N9999999N1+01101-00111102331ADDMA1999999095551REMSYN060AAXX  15144 06756 43/// /1705 10110 21011 39555 40233 5////;
0087067560999992011011515004+46467+008933FM-12+055299999V0201701N001519999999N9999999N1+00851+00011102501ADDMA1999999095651REMSYN060AAXX  15154 06756 43/// /1703 10085 20001 39565 40250 5////;
0087067560999992011011516004+46467+008933FM-12+055299999V0203301N001519999999N9999999N1+00671-00101102631ADDMA1999999095721REMSYN060AAXX  15164 06756 43/// /3303 10067 21010 39572 40263 5////;
0103067560999992011011517004+46467+008933FM-12+055299999V0203001N002619999999N9999999N1+00621-00161102731ADDMA1999999095801REMSYN076AAXX  15174 06756 33/// /3005 10062 21016 39580 40273 5//// 333 553// 20014;
0110067560999992011011518004+46467+008933FM-12+055299999V0203501N001019999999N9999999N1+00531-00181102811ADDKA1999M+01441MA1999999095861REMSYN070AAXX  15184 06756 43/// /3502 10053 21018 39586 40281 5//// 333 10144;
0087067560999992011011519004+46467+008933FM-12+055299999V0203101N001019999999N9999999N1+00491-00211102861ADDMA1999999095891REMSYN060AAXX  15194 06756 43/// /3102 10049 21021 39589 40286 5////;
0087067560999992011011520004+46467+008933FM-12+055299999V0200101N001519999999N9999999N1+00381-00221102921ADDMA1999999095921REMSYN060AAXX  15204 06756 43/// /0103 10038 21022 39592 40292 5////;
0140067560999992011011521004+46467+008933FM-12+055299999V0203301N001519999999N9999999N1+00401-00161102971ADDMA1999999095971MD1310111+9999OA149900461REMSYN088AAXX  15214 06756 33/// /3303 10040 21016 39597 40297 53011 333 55300 20014 91109 91206;
0140067560999992011011522004+46467+008933FM-12+055299999V0203201N001519999999N9999999N1+00391-00151103001ADDMA1999999096001MD1210111+9999OA149900261REMSYN088AAXX  15224 06756 33/// /3203 10039 21015 39600 40300 52011 333 55300 20011 91105 91203;
0140067560999992011011523004+46467+008933FM-12+055299999V0203201N002619999999N9999999N1+00491-00321103011ADDMA1999999096031MD1210111+9999OA149900411REMSYN088AAXX  15234 06756 33/// /3205 10049 21032 39603 40301 52011 333 55300 20011 91108 91205;
0140067560999992011011600004+46467+008933FM-12+055299999V0203301N003119999999N9999999N1+00511-00371102931ADDMA1999999095961MD1810011+9999OA149900821REMSYN088AAXX  16004 06756 33/// /3306 10051 21037 39596 40293 58001 333 55300 20011 91116 91209;
0140067560999992011011601004+46467+008933FM-12+055299999V0203201N001019999999N9999999N1+00321-00201102991ADDMA1999999095971MD1710031+9999OA149900411REMSYN088AAXX  16014 06756 33/// /3202 10032 21020 39597 40299 57003 333 55300 20014 91108 91206;
0140067560999992011011602004+46467+008933FM-12+055299999V0203401N002119999999N9999999N1+00411-00291103001ADDMA1999999096001MD1519999+9999OA149900311REMSYN088AAXX  16024 06756 33/// /3404 10041 21029 39600 40300 55/// 333 55300 20011 91106 91204;
0087067560999992011011603004+46467+008933FM-12+055299999V0203201N001519999999N9999999N1+00341-00201103051ADDMA1999999096031REMSYN060AAXX  16034 06756 43/// /3203 10034 21020 39603 40305 5////;
0140067560999992011011604004+46467+008933FM-12+055299999V0203101N001019999999N9999999N1+00281-00121103081ADDMA1999999096051MD1110081+9999OA149900361REMSYN088AAXX  16044 06756 33/// /3102 10028 21012 39605 40308 51008 333 55300 20011 91107 91205;
0140067560999992011011605004+46467+008933FM-12+055299999V0203301N002119999999N9999999N1+00361-00251103111ADDMA1999999096091MD1210091+9999OA149900361REMSYN088AAXX  16054 06756 33/// /3304 10036 21025 39609 40311 52009 333 55300 20014 91107 91205;
0207067560999992011011606004+46467+008933FM-12+055299999V0203401N001019999999N9999999N1+00231-00141103191ADDAL19900091GJ102769IA2999+00009KA1999N+00231MA1999999096141MD1210111+9999OA149900411REMSYN112AAXX  16064 06756 33/// /3402 10023 21014 39614 40319 52011 333 20023 3/000 55046 55300 20011 70000 91108 91206;
0140067560999992011011607004+46467+008933FM-12+055299999V0203401N002619999999N9999999N1+00371-00261103121ADDMA1999999096111MD1210061+9999OA149900361REMSYN088AAXX  16074 06756 33/// /3405 10037 21026 39611 40312 52006 333 55300 20011 91107 91205;
0140067560999992011011608004+46467+008933FM-12+055299999V0203301N002619999999N9999999N1+00281-00191103221ADDMA1999999096181MD1219999+9999OA149900361REMSYN088AAXX  16084 06756 33/// /3305 10028 21019 39618 40322 52/// 333 55300 20040 91107 91205;
0175067560999992011011609004+46467+008933FM-12+055299999V0203401N002619999999N9999999N1+00521-00091103121ADDMA1999999096141MD1710071+9999OA149900411REMSYN088AAXX  16094 06756 33/// /3405 10052 21009 39614 40312 57000 333 55304 20299 91108 91206;EQDQ01+000072APCTENQ02+000002APC3  
0140067560999992011011610004+46467+008933FM-12+055299999V0200201N000519999999N9999999N1+00681+00051103111ADDMA1999999096171MD1210061+9999OA149900411REMSYN088AAXX  16104 06756 33/// /0201 10068 20005 39617 40311 52006 333 553// 20943 91108 91206;
0140067560999992011011611004+46467+008933FM-12+055299999V0203301N000519999999N9999999N1+00971-00021102991ADDMA1999999096131MD1710051+9999OA149900311REMSYN088AAXX  16114 06756 33/// /3301 10097 21002 39613 40299 57005 333 553// 2//// 91106 91202;
0140067560999992011011612004+46467+008933FM-12+055299999V0201601N002619999999N9999999N1+01041-00031102921ADDMA1999999096081MD1810061+9999OA149900411REMSYN088AAXX  16124 06756 33/// /1605 10104 21003 39608 40292 58006 333 553// 2//// 91108 91206;
0140067560999992011011613004+46467+008933FM-12+055299999V0201701N001019999999N9999999N1+01021-00091102901ADDMA1999999096061MD1610111+9999OA149900411REMSYN088AAXX  16134 06756 33/// /1702 10102 21009 39606 40290 56011 333 553// 2//// 91108 91205;
0140067560999992011011614004+46467+008933FM-12+055299999V0209999C000019999999N9999999N1+00681+00161102991ADDMA1999999096061MD1619999+9999OA149900411REMSYN088AAXX  16144 06756 33/// /0000 10068 20016 39606 40299 56/// 333 55302 20331 91108 91204;
0140067560999992011011615004+46467+008933FM-12+055299999V0203301N001019999999N9999999N1+00541+00121103031ADDMA1999999096061MD1710021+9999OA149900411REMSYN088AAXX  16154 06756 33/// /3302 10054 20012 39606 40303 57002 333 55300 20079 91108 91205;
0140067560999992011011616004+46467+008933FM-12+055299999V0203301N001519999999N9999999N1+00481+00081103071ADDMA1999999096091MD1310031+9999OA149900211REMSYN088AAXX  16164 06756 33/// /3303 10048 20008 39609 40307 53003 333 55300 20047 91104 91203;
0140067560999992011011617004+46467+008933FM-12+055299999V0203401N001519999999N9999999N1+00411+00041103141ADDMA1999999096131MD1310071+9999OA149900261REMSYN088AAXX  16174 06756 33/// /3403 10041 20004 39613 40314 53007 333 55300 20014 91105 91203;
0159067560999992011011618004+46467+008933FM-12+055299999V0203201N001519999999N9999999N1+00391+00081103181ADDKA1120M+01071MA1999999096171MD1310111+9999OA149900411REMSYN094AAXX  16184 06756 33/// /3203 10039 20008 39617 40318 53011 333 10107 55300 20011 91108 91206;
0140067560999992011011619004+46467+008933FM-12+055299999V0203301N002119999999N9999999N1+00431+00021103231ADDMA1999999096221MD1210131+9999OA149900311REMSYN088AAXX  16194 06756 33/// /3304 10043 20002 39622 40323 52013 333 55300 20011 91106 91204;
0140067560999992011011620004+46467+008933FM-12+055299999V0203501N001519999999N9999999N1+00381+00021103221ADDMA1999999096201MD1210071+9999OA149900311REMSYN088AAXX  16204 06756 33/// /3503 10038 20002 39620 40322 52007 333 55300 20011 91106 91205;
0140067560999992011011621004+46467+008933FM-12+055299999V0203301N001519999999N9999999N1+00381+00001103221ADDMA1999999096201MD1010031+9999OA149900311REMSYN088AAXX  16214 06756 33/// /3303 10038 20000 39620 40322 50003 333 55300 20011 91106 91205;
0140067560999992011011622004+46467+008933FM-12+055299999V0203301N002619999999N9999999N1+00411-00041103211ADDMA1999999096201MD1710021+9999OA149900311REMSYN088AAXX  16224 06756 33/// /3305 10041 21004 39620 40321 57002 333 55300 20011 91106 91205;
0140067560999992011011623004+46467+008933FM-12+055299999V0203401N002619999999N9999999N1+00441-00131103181ADDMA1999999096181MD1810021+9999OA149900361REMSYN088AAXX  16234 06756 33/// /3405 10044 21013 39618 40318 58002 333 55300 20011 91107 91205;
0140067560999992011011700004+46467+008933FM-12+055299999V0203201N002619999999N9999999N1+00411-00091103161ADDMA1999999096151MD1810051+9999OA149900411REMSYN088AAXX  17004 06756 33/// /3205 10041 21009 39615 40316 58005 333 55300 20011 91108 91205;
0140067560999992011011701004+46467+008933FM-12+055299999V0203301N001519999999N9999999N1+00341-00051103141ADDMA1999999096121MD1810081+9999OA149900361REMSYN088AAXX  17014 06756 33/// /3303 10034 21005 39612 40314 58008 333 55300 20011 91107 91205;
0140067560999992011011702004+46467+008933FM-12+055299999V0203401N002119999999N9999999N1+00321-00081103121ADDMA1999999096091MD1619999+9999OA149900361REMSYN088AAXX  17024 06756 33/// /3404 10032 21008 39609 40312 56/// 333 55300 20011 91107 91204;
0103067560999992011011703004+46467+008933FM-12+055299999V0203401N002119999999N9999999N1+00281-00091103111ADDMA1999999096071REMSYN076AAXX  17034 06756 33/// /3404 10028 21009 39607 40311 5//// 333 553// 20011;
0140067560999992011011704004+46467+008933FM-12+055299999V0203401N001019999999N9999999N1+00261-00081103091ADDMA1999999096051MD1610071+9999OA149900361REMSYN088AAXX  17044 06756 33/// /3402 10026 21008 39605 40309 56007 333 55300 20011 91107 91205;
0140067560999992011011705004+46467+008933FM-12+055299999V0203401N002119999999N9999999N1+00371-00231103001ADDMA1999999095991MD1810101+9999OA149900311REMSYN088AAXX  17054 06756 33/// /3404 10037 21023 39599 40300 58010 333 55300 20011 91106 91205;
0207067560999992011011706004+46467+008933FM-12+055299999V0203301N002619999999N9999999N1+00311-00241103011ADDAL19900091GJ102829IA2999+00009KA1999N+00201MA1999999095991MD1710081+9999OA149900361REMSYN112AAXX  17064 06756 33/// /3305 10031 21024 39599 40301 57008 333 20020 3/100 55047 55300 20011 70000 91107 91205;
0140067560999992011011707004+46467+008933FM-12+055299999V0203401N001019999999N9999999N1+00251-00131103021ADDMA1999999095981MD1710071+9999OA149900361REMSYN088AAXX  17074 06756 33/// /3402 10025 21013 39598 40302 57007 333 55300 20011 91107 91205;
0087067560999992011011708004+46467+008933FM-12+055299999V0203301N001519999999N9999999N1+00221-00191103051ADDMA1999999096001REMSYN060AAXX  17084 06756 43/// /3303 10022 21019 39600 40305 5////;
0087067560999992011011709004+46467+008933FM-12+055299999V0203401N003119999999N9999999N1+00561-00271102931ADDMA1999999095981REMSYN060AAXX  17094 06756 43/// /3406 10056 21027 39598 40293 5////;
0140067560999992011011710004+46467+008933FM-12+055299999V0203401N001019999999N9999999N1+00761-00151102851ADDMA1999999095951MD1710031+9999OA149900411REMSYN088AAXX  17104 06756 33/// /3402 10076 21015 39595 40285 57003 333 553// 20961 91108 91206;
0140067560999992011011711004+46467+008933FM-12+055299999V0209999C000019999999N9999999N1+00941-00231102751ADDMA1999999095901MD1810101+9999OA149900361REMSYN088AAXX  17114 06756 33/// /0000 10094 21023 39590 40275 58010 333 553// 2//// 91107 91205;
0140067560999992011011712004+46467+008933FM-12+055299999V0201601N002119999999N9999999N1+01081-00201102621ADDMA1999999095811MD1810171+9999OA149900411REMSYN088AAXX  17124 06756 33/// /1604 10108 21020 39581 40262 58017 333 553// 2//// 91108 91206;
0140067560999992011011713004+46467+008933FM-12+055299999V0201701N001519999999N9999999N1+01021-00201102581ADDMA1999999095761MD1610191+9999OA149900361REMSYN088AAXX  17134 06756 33/// /1703 10102 21020 39576 40258 56019 333 553// 2//// 91107 91205;
0087067560999992011011714004+46467+008933FM-12+055299999V0201701N001019999999N9999999N1+00661-00051102661ADDMA1999999095751REMSYN060AAXX  17144 06756 43/// /1702 10066 21005 39575 40266 5////;
0087067560999992011011715004+46467+008933FM-12+055299999V0203201N001019999999N9999999N1+00491-00061102721ADDMA1999999095761REMSYN060AAXX  17154 06756 43/// /3202 10049 21006 39576 40272 5////;
0140067560999992011011716004+46467+008933FM-12+055299999V0209999C000019999999N9999999N1+00481-00141102741ADDMA1999999095781MD1210021+9999OA149900211REMSYN088AAXX  17164 06756 33/// /0000 10048 21014 39578 40274 52002 333 55300 20050 91104 91203;
0140067560999992011011717004+46467+008933FM-12+055299999V0203301N001519999999N9999999N1+00421-00161102751ADDMA1999999095771MD1210021+9999OA149900311REMSYN088AAXX  17174 06756 33/// /3303 10042 21016 39577 40275 52002 333 55300 20014 91106 91204;
0159067560999992011011718004+46467+008933FM-12+055299999V0203201N001019999999N9999999N1+00381-00231102781ADDKA1120M+01081MA1999999095791MD1210031+9999OA149900411REMSYN094AAXX  17184 06756 33/// /3202 10038 21023 39579 40278 52003 333 10108 55300 20014 91108 91206;
0140067560999992011011719004+46467+008933FM-12+055299999V0203301N002119999999N9999999N1+00331-00241102781ADDMA1999999095781MD1510001+9999OA149900361REMSYN088AAXX  17194 06756 33/// /3304 10033 21024 39578 40278 55000 333 55300 20014 91107 91205;
0140067560999992011011720004+46467+008933FM-12+055299999V0203301N001519999999N9999999N1+00301-00261102771ADDMA1999999095761MD1010011+9999OA149900361REMSYN088AAXX  17204 06756 33/// /3303 10030 21026 39576 40277 50001 333 55300 20011 91107 91204;
0140067560999992011011721004+46467+008933FM-12+055299999V0203201N002119999999N9999999N1+00291-00221102771ADDMA1999999095761MD1710031+9999OA149900361REMSYN088AAXX  17214 06756 33/// /3204 10029 21022 39576 40277 57003 333 55300 20014 91107 91205;
0140067560999992011011722004+46467+008933FM-12+055299999V0203401N001519999999N9999999N1+00281-00221102751ADDMA1999999095741MD1710041+9999OA149900261REMSYN088AAXX  17224 06756 33/// /3403 10028 21022 39574 40275 57004 333 55300 20011 91105 91204;
0140067560999992011011723004+46467+008933FM-12+055299999V0203401N002119999999N9999999N1+00261-00311102761ADDMA1999999095741MD1810021+9999OA149900311REMSYN088AAXX  17234 06756 33/// /3404 10026 21031 39574 40276 58002 333 55300 20011 91106 91204;
0140067560999992011011800004+46467+008933FM-12+055299999V0203401N002619999999N9999999N1+00341-00401102711ADDMA1999999095721MD1610041+9999OA149900361REMSYN088AAXX  18004 06756 33/// /3405 10034 21040 39572 40271 56004 333 55300 20014 91107 91205;
0140067560999992011011801004+46467+008933FM-12+055299999V0203301N001519999999N9999999N1+00221-00301102711ADDMA1999999095691MD1819999+9999OA149900361REMSYN088AAXX  18014 06756 33/// /3303 10022 21030 39569 40271 58/// 333 55300 20014 91107 91205;
0087067560999992011011802004+46467+008933FM-12+055299999V0203401N002619999999N9999999N1+00261-00371102701ADDMA1999999095691REMSYN060AAXX  18024 06756 43/// /3405 10026 21037 39569 40270 5////;
0087067560999992011011803004+46467+008933FM-12+055299999V0203201N002119999999N9999999N1+00311-00221102671ADDMA1999999095671REMSYN060AAXX  18034 06756 43/// /3204 10031 21022 39567 40267 5////;
0103067560999992011011804004+46467+008933FM-12+055299999V0203201N001519999999N9999999N1+00281-00201102671ADDMA1999999095661REMSYN076AAXX  18044 06756 33/// /3203 10028 21020 39566 40267 5//// 333 553// 20011;
0140067560999992011011805004+46467+008933FM-12+055299999V0203301N002119999999N9999999N1+00271-00301102631ADDMA1999999095621MD1710071+9999OA149900311REMSYN088AAXX  18054 06756 33/// /3304 10027 21030 39562 40263 57007 333 55300 20014 91106 91204;
0207067560999992011011806004+46467+008933FM-12+055299999V0203401N002119999999N9999999N1+00301-00291102611ADDAL19900091GJ102829IA2999+00009KA1999N+00201MA1999999095611MD1710061+9999OA149900361REMSYN112AAXX  18064 06756 33/// /3404 10030 21029 39561 40261 57006 333 20020 3/100 55047 55300 20014 70000 91107 91205;
0140067560999992011011807004+46467+008933FM-12+055299999V0201701N000519999999N9999999N1+00321-00271102611ADDMA1999999095621MD1510041+9999OA149900361REMSYN088AAXX  18074 06756 33/// /1701 10032 21027 39562 40261 55004 333 55300 20014 91107 91204;
0087067560999992011011808004+46467+008933FM-12+055299999V0203401N000519999999N9999999N1+00301-00191102661ADDMA1999999095661REMSYN060AAXX  18084 06756 43/// /3401 10030 21019 39566 40266 5////;
0087067560999992011011809004+46467+008933FM-12+055299999V0201401N001019999999N9999999N1+00421-00241102661ADDMA1999999095691REMSYN060AAXX  18094 06756 43/// /1402 10042 21024 39569 40266 5////;
0140067560999992011011810004+46467+008933FM-12+055299999V0201501N000519999999N9999999N1+00721-00261102541ADDMA1999999095651MD1010031+9999OA149900261REMSYN088AAXX  18104 06756 33/// /1501 10072 21026 39565 40254 50003 333 553// 2//// 91105 91203;
0140067560999992011011811004+46467+008933FM-12+055299999V0201401N002119999999N9999999N1+00751-00131102491ADDMA1999999095611MD1810051+9999OA149900361REMSYN088AAXX  18114 06756 33/// /1404 10075 21013 39561 40249 58005 333 553// 2//// 91107 91204;
0140067560999992011011812004+46467+008933FM-12+055299999V0201501N003119999999N9999999N1+00651-00251102481ADDMA1999999095581MD1719999+9999OA149900461REMSYN088AAXX  18124 06756 33/// /1506 10065 21025 39558 40248 57/// 333 553// 2//// 91109 91206;
0103067560999992011011813004+46467+008933FM-12+055299999V0201501N001019999999N9999999N1+00661-00241102411ADDMA1999999095521REMSYN076AAXX  18134 06756 33/// /1502 10066 21024 39552 40241 5//// 333 553// 20950;
0087067560999992011011814004+46467+008933FM-12+055299999V0209999C000019999999N9999999N1+00651+00021102381ADDMA1999999095491REMSYN060AAXX  18144 06756 43/// /0000 10065 20002 39549 40238 5////;
0087067560999992011011815004+46467+008933FM-12+055299999V0201701N001019999999N9999999N1+00551-00031102411ADDMA1999999095491REMSYN060AAXX  18154 06756 43/// /1702 10055 21003 39549 40241 5////;
0140067560999992011011816004+46467+008933FM-12+055299999V0202701N000519999999N9999999N1+00431+00001102491ADDMA1999999095531MD1310011+9999OA149900151REMSYN088AAXX  18164 06756 33/// /2701 10043 20000 39553 40249 53001 333 55300 20144 91103 91202;
0140067560999992011011817004+46467+008933FM-12+055299999V0203401N000519999999N9999999N1+00311-00041102561ADDMA1999999095571MD1210081+9999OA149900261REMSYN088AAXX  18174 06756 33/// /3401 10031 21004 39557 40256 52008 333 55300 20018 91105 91203;
0159067560999992011011818004+46467+008933FM-12+055299999V0203301N002619999999N9999999N1+00421-00141102531ADDKA1120M+00751MA1999999095571MD1210081+9999OA149900461REMSYN094AAXX  18184 06756 33/// /3305 10042 21014 39557 40253 52008 333 10075 55300 20011 91109 91207;
0140067560999992011011819004+46467+008933FM-12+055299999V0203301N001519999999N9999999N1+00231-00111102561ADDMA1999999095551MD1010021+9999OA149900311REMSYN088AAXX  18194 06756 33/// /3303 10023 21011 39555 40256 50002 333 55300 20014 91106 91205;
0140067560999992011011820004+46467+008933FM-12+055299999V0203301N001519999999N9999999N1+00271-00071102521ADDMA1999999095521MD1710051+9999OA149900311REMSYN088AAXX  18204 06756 33/// /3303 10027 21007 39552 40252 57005 333 55300 20014 91106 91204;
0140067560999992011011821004+46467+008933FM-12+055299999V0203301N001519999999N9999999N1+00311-00131102481ADDMA1999999095491MD1710081+9999OA149900361REMSYN088AAXX  18214 06756 33/// /3303 10031 21013 39549 40248 57008 333 55300 20011 91107 91205;
0140067560999992011011822004+46467+008933FM-12+055299999V0203201N001019999999N9999999N1+00281-00171102521ADDMA1999999095521MD1710031+9999OA149900361REMSYN088AAXX  18224 06756 33/// /3202 10028 21017 39552 40252 57003 333 55300 20011 91107 91205;
0140067560999992011011823004+46467+008933FM-12+055299999V0203301N002119999999N9999999N1+00281-00201102521ADDMA1999999095521MD1510001+9999OA149900311REMSYN088AAXX  18234 06756 33/// /3304 10028 21020 39552 40252 55000 333 55300 20014 91106 91204;
0159067560999992011011900004+46467+008933FM-12+055299999V0202601N000519999999N9999999N1+00291-00131102481ADDMA1999999095491MD1410001+9999OA149900461REMSYN088AAXX  19004 06756 33/// /2601 10029 21013 39549 40248 58000 333 55300 20014 91109 91207;EQDQ01+000082APCTEN
