0191067530999992011010100004+46517+008683FM-12+101699999V0209999C000012200019N0300001N1-00761-00821999999ADDGA1001+999999999GF100991001001999999001001MA1999999090571MD1010031+9999ME1314829OA149900151REMSYN088AAXX  01004 06753 32/80 00000 11076 21082 39057 48482 50003 333 55300 20000 91103 91201;
0149067530999992011010101004+46517+008683FM-12+101699999V0209999C000019999999N9999999N1-00961-00971999999ADDMA1999999090511MD1710071+9999ME1314739OA149900101REMSYN088AAXX  01014 06753 33/// /0000 11096 21097 39051 48473 57007 333 55300 20000 91102 91200;
0149067530999992011010102004+46517+008683FM-12+101699999V0209999C000019999999N9999999N1-00841-00861999999ADDMA1999999090501MD1710091+9999ME1314759OA149900101REMSYN088AAXX  01024 06753 33/// /0000 11084 21086 39050 48475 57009 333 55300 20000 91102 91201;
0149067530999992011010103004+46517+008683FM-12+101699999V0209999C000019999999N9999999N1-00841-00901999999ADDMA1999999090491MD1710081+9999ME1314749OA149900151REMSYN088AAXX  01034 06753 33/// /0000 11084 21090 39049 48474 57008 333 55300 20000 91103 91201;
0149067530999992011010104004+46517+008683FM-12+101699999V0202901N000519999999N9999999N1-00841-00871999999ADDMA1999999090471MD1710041+9999ME1314729OA149900101REMSYN088AAXX  01044 06753 33/// /2901 11084 21087 39047 48472 57004 333 55300 20000 91102 91201;
0149067530999992011010105004+46517+008683FM-12+101699999V0202901N000519999999N9999999N1-00831-00941999999ADDMA1999999090441MD1710061+9999ME1314709OA149900101REMSYN088AAXX  01054 06753 33/// /2901 11083 21094 39044 48470 57006 333 55300 20000 91102 91201;
0276067530999992011010106004+46517+008683FM-12+101699999V0209999C000012200019N0300001N1-00911-00931999999ADDAL19900091GA1001+999999999GF100991001001999999001001GJ100009IA1019IA2999-01509KA1999N-01131MA1999999090421MD1610071+9999ME1314679OA149900151REMSYN124AAXX  01064 06753 32/80 00000 11091 21093 39042 48467 56007 333 21113 30115 55000 55300 20000 70000 90768 93100 91103 91201;
0149067530999992011010107004+46517+008683FM-12+101699999V0209999C000019999999N9999999N1-00941-01001999999ADDMA1999999090401MD1610071+9999ME1314649OA149900151REMSYN088AAXX  01074 06753 33/// /0000 11094 21100 39040 48464 56007 333 55300 20000 91103 91200;
0149067530999992011010108004+46517+008683FM-12+101699999V0209999C000019999999N9999999N1-00771-00871999999ADDMA1999999090391MD1619999+9999ME1314679OA149900151REMSYN088AAXX  01084 06753 33/// /0000 11077 21087 39039 48467 56/// 333 55300 20029 91103 91200;
0138067530999992011010109004+46517+008683FM-12+101699999V0209999C000012200019N0300001N1-00961-01101999999ADDGA1001+999999999GF100991001001999999001001MA1999999090351ME1314609REMSYN060AAXX  01094 06753 42/80 00000 11096 21110 39035 48460 5////;
0096067530999992011010110004+46517+008683FM-12+101699999V0209999C000019999999N9999999N1-00851-00941999999ADDMA1999999090301ME1314589REMSYN060AAXX  01104 06753 43/// /0000 11085 21094 39030 48458 5////;
0149067530999992011010111004+46517+008683FM-12+101699999V0209999C000019999999N9999999N1-00731-00881999999ADDMA1999999090251MD1610141+9999ME1314559OA149900151REMSYN088AAXX  01114 06753 33/// /0000 11073 21088 39025 48455 56014 333 55300 20122 91103 91201;
0138067530999992011010112004+46517+008683FM-12+101699999V0209999C000012200019N0300001N1-00631-00791999999ADDGA1001+999999999GF100991001001999999001001MA1999999090191ME1314529REMSYN060AAXX  01124 06753 42/80 00000 11063 21079 39019 48452 5////;
0096067530999992011010113004+46517+008683FM-12+101699999V0202901N000519999999N9999999N1-00581-00761999999ADDMA1999999090151ME1314509REMSYN060AAXX  01134 06753 43/// /2901 11058 21076 39015 48450 5////;
0096067530999992011010114004+46517+008683FM-12+101699999V0203301N000519999999N9999999N1-00641-00851999999ADDMA1999999090111ME1314459REMSYN060AAXX  01144 06753 43/// /3301 11064 21085 39011 48445 5////;
0138067530999992011010115004+46517+008683FM-12+101699999V0209999C000012200019N0300001N1-00701-00901999999ADDGA1001+999999999GF100991001001999999001001MA1999999090081ME1314419REMSYN060AAXX  01154 06753 42/80 00000 11070 21090 39008 48441 5////;
0096067530999992011010116004+46517+008683FM-12+101699999V0203301N000519999999N9999999N1-00581-00801999999ADDMA1999999090081ME1314439REMSYN060AAXX  01164 06753 43/// /3301 11058 21080 39008 48443 5////;
0096067530999992011010117004+46517+008683FM-12+101699999V0209999C000019999999N9999999N1-00761-00901999999ADDMA1999999090041ME1314379REMSYN060AAXX  01174 06753 43/// /0000 11076 21090 39004 48437 5////;
0193067530999992011010118004+46517+008683FM-12+101699999V0209999C000012200019N0300001N1-00861-00921999999ADDAJ100159199999999AL10600091GA1001+999999999GF100991001001999999001001IA1239MA1999999090011ME1314339REMSYN082AAXX  01184 06753 42/80 00000 11086 21092 39001 48433 5//// 333 47015 90766 93100;
0112067530999992011010119004+46517+008683FM-12+101699999V0200901N000519999999N9999999N1-00811-00911999999ADDMA1999999090021ME1314349REMSYN076AAXX  01194 06753 33/// /0901 11081 21091 39002 48434 5//// 333 553// 20000;
0149067530999992011010120004+46517+008683FM-12+101699999V0200701N000519999999N9999999N1-00881-00951999999ADDMA1999999089971MD1710071+9999ME1314299OA149900211REMSYN088AAXX  01204 06753 33/// /0701 11088 21095 38997 48429 57007 333 55300 20000 91104 91201;
0191067530999992011010121004+46517+008683FM-12+101699999V0202801N005712200019N0300001N1+00091-00731999999ADDGA1001+999999999GF100991001001999999001001MA1999999089961MD1710051+9999ME1314459OA149901131REMSYN088AAXX  01214 06753 32/80 02811 10009 21073 38996 48445 57005 333 55300 20000 91122 91212;
0149067530999992011010122004+46517+008683FM-12+101699999V0202801N005719999999N9999999N1+00121-00791999999ADDMA1999999089941MD1610081+9999ME1314439OA149901131REMSYN088AAXX  01224 06753 33/// /2811 10012 21079 38994 48443 56008 333 55300 20000 91122 91212;
0149067530999992011010123004+46517+008683FM-12+101699999V0203001N002119999999N9999999N1+00251-00891999999ADDMA1999999089911MD1810061+9999ME1314439OA149900931REMSYN088AAXX  01234 06753 33/// /3004 10025 21089 38991 48443 58006 333 55300 20000 91118 91212;
0191067530999992011010200004+46517+008683FM-12+101699999V0202901N004112200019N0300001N1+00241-00841999999ADDGA1001+999999999GF100991001001999999001001MA1999999089821MD1810141+9999ME1314359OA149901131REMSYN088AAXX  02004 06753 32/80 02908 10024 21084 38982 48435 58014 333 55300 20000 91122 91212;
0149067530999992011010201004+46517+008683FM-12+101699999V0200901N001019999999N9999999N1-00151-00821999999ADDMA1999999089811MD1710131+9999ME1314279OA149900821REMSYN088AAXX  02014 06753 33/// /0902 11015 21082 38981 48427 57013 333 55300 20000 91116 91208;
0096067530999992011010202004+46517+008683FM-12+101699999V0201301N000519999999N9999999N1-00391-00781999999ADDMA1999999089821ME1314249REMSYN060AAXX  02024 06753 43/// /1301 11039 21078 38982 48424 5////;
0096067530999992011010203004+46517+008683FM-12+101699999V0202501N000519999999N9999999N1-00421-00771999999ADDMA1999999089791ME1314219REMSYN060AAXX  02034 06753 43/// /2501 11042 21077 38979 48421 5////;
0096067530999992011010204004+46517+008683FM-12+101699999V0202601N000519999999N9999999N1-00531-00791999999ADDMA1999999089741ME1314159REMSYN060AAXX  02044 06753 43/// /2601 11053 21079 38974 48415 5////;
0096067530999992011010205004+46517+008683FM-12+101699999V0202901N003619999999N9999999N1+00311-00911999999ADDMA1999999089721ME1314279REMSYN060AAXX  02054 06753 43/// /2907 10031 21091 38972 48427 5////;
0244067530999992011010206004+46517+008683FM-12+101699999V0202901N006212200019N0300001N1+00341-00861999999ADDAJ100159199999999AL10600091GA1001+999999999GF100991001001999999001001GJ100009IA1179IA2999-01409KA1999N-00941MA1999999089751ME1314309REMSYN100AAXX  02064 06753 42/80 02912 10034 21086 38975 48430 5//// 333 21094 3/114 40015 55000 90768 93100;
0168067530999992011010207004+46517+008683FM-12+101699999V0202801N005119999999N9999999N1+00221-00941999999ADDMA1999999089741MD1410001+9999ME1314279OA149901241REMSYN088AAXX  02074 06753 33/// /2810 10022 21094 38974 48427 52000 333 55300 20000 91124 91213;EQDQ01+000022APCTEN
0149067530999992011010208004+46517+008683FM-12+101699999V0202901N006219999999N9999999N1+00311-00981999999ADDMA1999999089761MD1210041+9999ME1314309OA149901181REMSYN088AAXX  02084 06753 33/// /2912 10031 21098 38976 48430 52004 333 55300 20025 91123 91214;
0191067530999992011010209004+46517+008683FM-12+101699999V0202901N006212200019N0300001N1+00201-00821999999ADDGA1001+999999999GF100991001001999999001001MA1999999089801MD1310051+9999ME1314329OA149901291REMSYN088AAXX  02094 06753 32/80 02912 10020 21082 38980 48432 53005 333 55300 20079 91125 91214;
0149067530999992011010210004+46517+008683FM-12+101699999V0202801N008219999999N9999999N1+00201-00781999999ADDMA1999999089831MD1310091+9999ME1314359OA149901441REMSYN088AAXX  02104 06753 33/// /2816 10020 21078 38983 48435 53009 333 55300 20104 91128 91216;
0149067530999992011010211004+46517+008683FM-12+101699999V0202801N009319999999N9999999N1+00151-00781999999ADDMA1999999089781MD1010021+9999ME1314309OA149901541REMSYN088AAXX  02114 06753 33/// /2818 10015 21078 38978 48430 50002 333 55300 20115 91130 91219;
0191067530999992011010212004+46517+008683FM-12+101699999V0202801N008212200019N0300001N1+00131-00891999999ADDGA1001+999999999GF100991001001999999001001MA1999999089741MD1710061+9999ME1314269OA149901541REMSYN088AAXX  02124 06753 32/80 02816 10013 21089 38974 48426 57006 333 55300 20137 91130 91220;
0149067530999992011010213004+46517+008683FM-12+101699999V0202801N008219999999N9999999N1+00101-00811999999ADDMA1999999089731MD1710101+9999ME1314249OA149901541REMSYN088AAXX  02134 06753 33/// /2816 10010 21081 38973 48424 57010 333 55300 20126 91130 91220;
0112067530999992011010214004+46517+008683FM-12+101699999V0202901N007719999999N9999999N1+00041-00791999999ADDMA1999999089821ME1314319REMSYN076AAXX  02144 06753 33/// /2915 10004 21079 38982 48431 5//// 333 553// 20097;
0219067530999992011010215004+46517+008683FM-12+101699999V0202801N007712200019N0300001N1-00061-00771999999ADDAY131031AY201031GA1001+999999999GF100991001001999999001001MA1999999089931MD1210191+9999ME1314399MW1371OA149901651REMSYN094AAXX  02154 06753 31/80 02815 11006 21077 38993 48439 52019 73730 333 55300 20065 91132 91220;
0149067530999992011010216004+46517+008683FM-12+101699999V0202701N008219999999N9999999N1-00081-00901999999ADDMA1999999089991MD1110261+9999ME1314449OA149901341REMSYN088AAXX  02164 06753 33/// /2716 11008 21090 38999 48444 51026 333 55300 20014 91126 91218;
0149067530999992011010217004+46517+008683FM-12+101699999V0202801N006719999999N9999999N1-00111-00821999999ADDMA1999999090091MD1210271+9999ME1314539OA149901341REMSYN088AAXX  02174 06753 33/// /2813 11011 21082 39009 48453 52027 333 55300 20000 91126 91218;
0289067530999992011010218004+46517+008683FM-12+101699999V0202801N007212200019N0300001N1-00171-00871999999ADDAJ100159199999999AL19900091AY131061AY201061GA1001+999999999GF100991001001999999001001IA1239KA1120M+00341MA1999999090141MD1110211+9999ME1314569MW1021OA149901651REMSYN118AAXX  02184 06753 31/80 02814 11017 21087 39014 48456 51021 70230 333 10034 47015 55300 20000 90766 93100 91132 91220;
0149067530999992011010219004+46517+008683FM-12+101699999V0202901N003619999999N9999999N1-00141-00891999999ADDMA1999999090201MD1210211+9999ME1314629OA149901241REMSYN088AAXX  02194 06753 33/// /2907 11014 21089 39020 48462 52021 333 55300 20000 91124 91217;
0149067530999992011010220004+46517+008683FM-12+101699999V0202801N003619999999N9999999N1-00171-01001999999ADDMA1999999090251MD1210161+9999ME1314659OA149901131REMSYN088AAXX  02204 06753 33/// /2807 11017 21100 39025 48465 52016 333 55300 20000 91122 91215;
0191067530999992011010221004+46517+008683FM-12+101699999V0202901N003612200019N0300001N1-00201-01001999999ADDGA1001+999999999GF100991001001999999001001MA1999999090301MD1210161+9999ME1314699OA149901341REMSYN088AAXX  02214 06753 32/80 02907 11020 21100 39030 48469 52016 333 55300 20000 91126 91218;
0149067530999992011010222004+46517+008683FM-12+101699999V0202601N007219999999N9999999N1-00321-01021999999ADDMA1999999090261MD1010061+9999ME1314649OA149901241REMSYN088AAXX  02224 06753 33/// /2614 11032 21102 39026 48464 50006 333 55300 20000 91124 91214;
0149067530999992011010223004+46517+008683FM-12+101699999V0202701N006719999999N9999999N1-00331-01061999999ADDMA1999999090241MD1810011+9999ME1314629OA149901391REMSYN088AAXX  02234 06753 33/// /2713 11033 21106 39024 48462 58001 333 55300 20000 91127 91215;
0191067530999992011010300004+46517+008683FM-12+101699999V0202801N005112200019N0300001N1-00341-01121999999ADDGA1001+999999999GF100991001001999999001001MA1999999090201MD1810101+9999ME1314589OA149901651REMSYN088AAXX  03004 06753 32/80 02810 11034 21112 39020 48458 58010 333 55300 20000 91132 91219;
0149067530999992011010301004+46517+008683FM-12+101699999V0202501N001019999999N9999999N1-00411-01211999999ADDMA1999999090191MD1710071+9999ME1314569OA149901031REMSYN088AAXX  03014 06753 33/// /2502 11041 21121 39019 48456 57007 333 55300 20000 91120 91214;
0149067530999992011010302004+46517+008683FM-12+101699999V0201401N000519999999N9999999N1-00681-01151999999ADDMA1999999090201MD1519999+9999ME1314529OA149900721REMSYN088AAXX  03024 06753 33/// /1401 11068 21115 39020 48452 55/// 333 55300 20000 91114 91207;
0138067530999992011010303004+46517+008683FM-12+101699999V0201301N000512200019N0300001N1-00751-01171999999ADDGA1001+999999999GF100991001001999999001001MA1999999090211ME1314529REMSYN060AAXX  03034 06753 42/80 01301 11075 21117 39021 48452 5////;
0149067530999992011010304004+46517+008683FM-12+101699999V0200901N000519999999N9999999N1-00761-01131999999ADDMA1999999090211MD1110021+9999ME1314519OA149900211REMSYN088AAXX  03044 06753 33/// /0901 11076 21113 39021 48451 51002 333 55300 20000 91104 91201;
0149067530999992011010305004+46517+008683FM-12+101699999V0202701N000519999999N9999999N1-00901-01211999999ADDMA1999999090221MD1110021+9999ME1314509OA149900211REMSYN088AAXX  03054 06753 33/// /2701 11090 21121 39022 48450 51002 333 55300 20000 91104 91201;
0299067530999992011010306004+46517+008683FM-12+101699999V0209999C000012200019N0300001N1-00911-01151999999ADDAJ100159199999999AL19900091GA1001+999999999GF100991001001999999001001GJ100009IA1279IA2999-01609KA1999N-01041MA1999999090251MD1310041+9999ME1314529OA149901391REMSYN130AAXX  03064 06753 32/80 00000 11091 21115 39025 48452 53004 333 21104 3/116 43015 55000 55300 20000 70000 90768 93100 91127 91215;
0149067530999992011010307004+46517+008683FM-12+101699999V0209999C000019999999N9999999N1-01021-01221999999ADDMA1999999090271MD1110061+9999ME1314529OA149900101REMSYN088AAXX  03074 06753 33/// /0000 11102 21122 39027 48452 51006 333 55300 20000 91102 91201;
0149067530999992011010308004+46517+008683FM-12+101699999V0209999C000019999999N9999999N1-01101-01321999999ADDMA1999999090331MD1319999+9999ME1314569OA149900101REMSYN088AAXX  03084 06753 33/// /0000 11110 21132 39033 48456 53/// 333 55300 20029 91102 91201;
0154067530999992011010309004+46517+008683FM-12+101699999V0209999C000012200019N0300001N1-01021-01291999999ADDGA1001+999999999GF100991001001999999001001MA1999999090381ME1314619REMSYN076AAXX  03094 06753 32/80 00000 11102 21129 39038 48461 5//// 333 553// 20090;
0149067530999992011010310004+46517+008683FM-12+101699999V0202601N000519999999N9999999N1-01091-01381999999ADDMA1999999090411MD1110141+9999ME1314629OA149900151REMSYN088AAXX  03104 06753 33/// /2601 11109 21138 39041 48462 51014 333 55300 20115 91103 91201;
0149067530999992011010311004+46517+008683FM-12+101699999V0200401N000519999999N9999999N1-01111-01411999999ADDMA1999999090421MD1210091+9999ME1314639OA149900151REMSYN088AAXX  03114 06753 33/// /0401 11111 21141 39042 48463 52009 333 55300 20130 91103 91201;
0191067530999992011010312004+46517+008683FM-12+101699999V0209999C000012200019N0300001N1-00921-01311999999ADDGA1001+999999999GF100991001001999999001001MA1999999090401MD1010021+9999ME1314659OA149900721REMSYN088AAXX  03124 06753 32/80 00000 11092 21131 39040 48465 50002 333 55300 20151 91114 91207;
0149067530999992011010313004+46517+008683FM-12+101699999V0203001N000519999999N9999999N1-00961-01391999999ADDMA1999999090361MD1710051+9999ME1314619OA149900151REMSYN088AAXX  03134 06753 33/// /3001 11096 21139 39036 48461 57005 333 55300 20140 91103 91201;
0112067530999992011010314004+46517+008683FM-12+101699999V0209999C000019999999N9999999N1-00781-01331999999ADDMA1999999090351ME1314639REMSYN076AAXX  03144 06753 33/// /0000 11078 21133 39035 48463 5//// 333 553// 20108;
0154067530999992011010315004+46517+008683FM-12+101699999V0209999C000012200019N0300001N1-00961-01291999999ADDGA1001+999999999GF100991001001999999001001MA1999999090361ME1314619REMSYN076AAXX  03154 06753 32/80 00000 11096 21129 39036 48461 5//// 333 553// 20076;
0149067530999992011010316004+46517+008683FM-12+101699999V0200701N000519999999N9999999N1-00941-01241999999ADDMA1999999090371MD1310011+9999ME1314629OA149900101REMSYN088AAXX  03164 06753 33/// /0701 11094 21124 39037 48462 53001 333 55300 20025 91102 91201;
0149067530999992011010317004+46517+008683FM-12+101699999V0209999C000019999999N9999999N1-00961-01261999999ADDMA1999999090411MD1310061+9999ME1314659OA149900151REMSYN088AAXX  03174 06753 33/// /0000 11096 21126 39041 48465 53006 333 55300 20000 91103 91201;
0261067530999992011010318004+46517+008683FM-12+101699999V0209999C000012200019N0300001N1-00931-01171999999ADDAJ100159199999999AL19900091GA1001+999999999GF100991001001999999001001IA1239KA1120M-00651MA1999999090471MD1310111+9999ME1314709OA149900211REMSYN112AAXX  03184 06753 32/80 00000 11093 21117 39047 48470 53011 333 11065 47015 55300 20000 90766 93100 91104 91201;
0149067530999992011010319004+46517+008683FM-12+101699999V0209999C000019999999N9999999N1-00911-01281999999ADDMA1999999090491MD1110121+9999ME1314739OA149900151REMSYN088AAXX  03194 06753 33/// /0000 11091 21128 39049 48473 51012 333 55300 20000 91103 91202;
0149067530999992011010320004+46517+008683FM-12+101699999V0203001N001019999999N9999999N1-00781-01241999999ADDMA1999999090491MD1210081+9999ME1314759OA149900311REMSYN088AAXX  03204 06753 33/// /3002 11078 21124 39049 48475 52008 333 55300 20000 91106 91203;
0191067530999992011010321004+46517+008683FM-12+101699999V0202801N002612200019N0300001N1-00731-01281999999ADDGA1001+999999999GF100991001001999999001001MA1999999090501MD1010031+9999ME1314779OA149900571REMSYN088AAXX  03214 06753 32/80 02805 11073 21128 39050 48477 50003 333 55300 20000 91111 91207;
0149067530999992011010322004+46517+008683FM-12+101699999V0202701N004619999999N9999999N1-00741-01201999999ADDMA1999999090531MD1210041+9999ME1314799OA149900621REMSYN088AAXX  03224 06753 33/// /2709 11074 21120 39053 48479 52004 333 55300 20000 91112 91209;
0149067530999992011010323004+46517+008683FM-12+101699999V0202701N004119999999N9999999N1-00691-01151999999ADDMA1999999090531MD1210041+9999ME1314809OA149900621REMSYN088AAXX  03234 06753 33/// /2708 11069 21115 39053 48480 52004 333 55300 20000 91112 91209;
0210067530999992011010400004+46517+008683FM-12+101699999V0202701N005112200019N0300001N1-00601-01181999999ADDGA1001+999999999GF100991001001999999001001MA1999999090501MD1410001+9999ME1314799OA149900771REMSYN088AAXX  04004 06753 32/80 02710 11060 21118 39050 48479 58000 333 55300 20000 91115 91210;EQDQ01+000082APCTEN
0149067530999992011010401004+46517+008683FM-12+101699999V0202701N005719999999N9999999N1-00571-01181999999ADDMA1999999090471MD1810061+9999ME1314779OA149900771REMSYN088AAXX  04014 06753 33/// /2711 11057 21118 39047 48477 58006 333 55300 20000 91115 91211;
0149067530999992011010402004+46517+008683FM-12+101699999V0202801N004619999999N9999999N1-00611-01211999999ADDMA1999999090441MD1819999+9999ME1314749OA149900771REMSYN088AAXX  04024 06753 33/// /2809 11061 21121 39044 48474 58/// 333 55300 20000 91115 91211;
0197067530999992011010403004+46517+008683FM-12+101699999V0202801N004112200019N0300001N1-00631-01111999999ADDGA1041+024001061GF104991999999022501999999MA1999999090411MD1810091+9999ME1314719OA149900771REMSYN094AAXX  04034 06753 32880 42808 11063 21111 39041 48471 58009 333 55300 20000 84658 91115 91212;
0149067530999992011010404004+46517+008683FM-12+101699999V0203001N003619999999N9999999N1-00601-01211999999ADDMA1999999090361MD1710111+9999ME1314679OA149900771REMSYN088AAXX  04044 06753 33/// /3007 11060 21121 39036 48467 57011 333 55300 20000 91115 91212;
0149067530999992011010405004+46517+008683FM-12+101699999V0202901N003119999999N9999999N1-00581-01161999999ADDMA1999999090321MD1710121+9999ME1314649OA149900771REMSYN088AAXX  04054 06753 33/// /2906 11058 21116 39032 48464 57012 333 55300 20000 91115 91211;
0305067530999992011010406004+46517+008683FM-12+101699999V0202801N005112200019N0300001N1-00591-01181999999ADDAJ100159199999999AL19900091GA1041+021001061GF104991999999022501999999GJ100009IA1279IA2999-01609KA1999N-01261MA1999999090271MD1710141+9999ME1314609OA149900821REMSYN136AAXX  04064 06753 32880 42810 11059 21118 39027 48460 57014 333 21126 3/116 43015 55000 55300 20000 70000 84657 90768 93100 91116 91212;
0149067530999992011010407004+46517+008683FM-12+101699999V0202801N004119999999N9999999N1-00591-01181999999ADDMA1999999090271MD1710091+9999ME1314609OA149900821REMSYN088AAXX  04074 06753 33/// /2808 11059 21118 39027 48460 57009 333 55300 20000 91116 91211;
0149067530999992011010408004+46517+008683FM-12+101699999V0202801N004119999999N9999999N1-00591-01131999999ADDMA1999999090311MD1519999+9999ME1314639OA149900721REMSYN088AAXX  04084 06753 33/// /2808 11059 21113 39031 48463 55/// 333 55300 20007 91114 91210;
0144067530999992011010409004+46517+008683FM-12+101699999V0202901N002119999999N0200001N1-00501-01111999999ADDGF108991999999008001999999MA1999999090311ME1314659REMSYN082AAXX  04094 06753 32570 82904 11050 21111 39031 48465 5//// 333 553// 20058 88722;
0149067530999992011010410004+46517+008683FM-12+101699999V0202901N002119999999N9999999N1-00381-01031999999ADDMA1999999090301MD1010031+9999ME1314669OA149900571REMSYN088AAXX  04104 06753 33/// /2904 11038 21103 39030 48466 50003 333 55300 20310 91111 91206;
0149067530999992011010411004+46517+008683FM-12+101699999V0201101N001019999999N9999999N1-00411-01031999999ADDMA1999999090251MD1710061+9999ME1314619OA149900571REMSYN088AAXX  04114 06753 33/// /1102 11041 21103 39025 48461 57006 333 55300 20464 91111 91206;
0197067530999992011010412004+46517+008683FM-12+101699999V0201201N00051006601CN0200001N1-00351-00931999999ADDGA1081+006601071GF108991999999008001999999MA1999999090191MD1810121+9999ME1314579OA149900821REMSYN094AAXX  04124 06753 32570 81201 11035 21093 39019 48457 58012 333 55300 20688 88722 91116 91212;
0149067530999992011010413004+46517+008683FM-12+101699999V0201201N001019999999N9999999N1-00311-00931999999ADDMA1999999090151MD1610151+9999ME1314549OA149900151REMSYN088AAXX  04134 06753 33/// /1202 11031 21093 39015 48454 56015 333 55300 20529 91103 91202;
0112067530999992011010414004+46517+008683FM-12+101699999V0201101N001519999999N9999999N1-00331-00981999999ADDMA1999999090121ME1314519REMSYN076AAXX  04144 06753 33/// /1103 11033 21098 39012 48451 5//// 333 553// 20288;
0148067530999992011010415004+46517+008683FM-12+101699999V0201201N001010135019N0300001N1-00451-01011999999ADDGA1051+013501061GF105991999999012501999999MA1999999090111ME1314489REMSYN070AAXX  04154 06753 42680 51202 11045 21101 39011 48448 5//// 333 85645;
0149067530999992011010416004+46517+008683FM-12+101699999V0209999C000019999999N9999999N1-00481-01061999999ADDMA1999999090131MD1510021+9999ME1314509OA149900361REMSYN088AAXX  04164 06753 33/// /0000 11048 21106 39013 48450 55002 333 55300 20040 91107 91205;
0149067530999992011010417004+46517+008683FM-12+101699999V0202901N001019999999N9999999N1-00591-01051999999ADDMA1999999090151MD1210031+9999ME1314499OA149900211REMSYN088AAXX  04174 06753 33/// /2902 11059 21105 39015 48449 52003 333 55300 20000 91104 91202;
0261067530999992011010418004+46517+008683FM-12+101699999V0202901N001512200019N0300001N1-00621-01051999999ADDAJ100159199999999AL19900091GA1001+999999999GF100991001001999999001001IA1239KA1120M-00291MA1999999090171MD1210061+9999ME1314519OA149900721REMSYN112AAXX  04184 06753 32/80 02903 11062 21105 39017 48451 52006 333 11029 47015 55300 20000 90766 93100 91114 91210;
0149067530999992011010419004+46517+008683FM-12+101699999V0202801N002619999999N9999999N1-00691-01081999999ADDMA1999999090221MD1219999+9999ME1314549OA149900511REMSYN088AAXX  04194 06753 33/// /2805 11069 21108 39022 48454 52/// 333 55300 20000 91110 91208;
0149067530999992011010420004+46517+008683FM-12+101699999V0202701N002619999999N9999999N1-00691-01151999999ADDMA1999999090241MD1310091+9999ME1314559OA149900511REMSYN088AAXX  04204 06753 33/// /2705 11069 21115 39024 48455 53009 333 55300 20000 91110 91208;
0197067530999992011010421004+46517+008683FM-12+101699999V0202601N001512200019N0300001N1-00651-01031999999ADDGA1041+024001061GF104991999999022501999999MA1999999090221MD1010051+9999ME1314549OA149900511REMSYN094AAXX  04214 06753 32880 42603 11065 21103 39022 48454 50005 333 55300 20000 84658 91110 91208;
0149067530999992011010422004+46517+008683FM-12+101699999V0202701N001519999999N9999999N1-00641-00981999999ADDMA1999999090231MD1019999+9999ME1314559OA149900311REMSYN088AAXX  04224 06753 33/// /2703 11064 21098 39023 48455 50/// 333 55300 20000 91106 91203;
0149067530999992011010423004+46517+008683FM-12+101699999V0202801N000519999999N9999999N1-00611-01061999999ADDMA1999999090241MD1510001+9999ME1314579OA149900311REMSYN088AAXX  04234 06753 33/// /2801 11061 21106 39024 48457 55000 333 55300 20000 91106 91203;
0149067530999992011010500004+46517+008683FM-12+101699999V0203201N000519999999N9999999N1-00551-01061999999ADDMA1999999090221MD1010001+9999ME1314569OA149900511REMSYN088AAXX  05004 06753 33/// /3201 11055 21106 39022 48456 50000 333 55300 20000 91110 91208;
0149067530999992011010501004+46517+008683FM-12+101699999V0203401N002119999999N9999999N1-00491-01251999999ADDMA1999999090201MD1710031+9999ME1314559OA149900461REMSYN088AAXX  05014 06753 33/// /3404 11049 21125 39020 48455 57003 333 55300 20000 91109 91205;
0149067530999992011010502004+46517+008683FM-12+101699999V0203201N002619999999N9999999N1-00531-01251999999ADDMA1999999090201MD1710041+9999ME1314559OA149900461REMSYN088AAXX  05024 06753 33/// /3205 11053 21125 39020 48455 57004 333 55300 20000 91109 91205;
0148067530999992011010503004+46517+008683FM-12+101699999V0203201N002112200019N0300001N1-00561-01171999999ADDGA1041+018001061GF104991999999017501999999MA1999999090201ME1314549REMSYN070AAXX  05034 06753 42780 43204 11056 21117 39020 48454 5//// 333 84656;
0149067530999992011010504004+46517+008683FM-12+101699999V0202901N003119999999N9999999N1-00611-01151999999ADDMA1999999090191MD1810011+9999ME1314529OA149900721REMSYN088AAXX  05044 06753 33/// /2906 11061 21115 39019 48452 58001 333 55300 20000 91114 91210;
0149067530999992011010505004+46517+008683FM-12+101699999V0202701N004619999999N9999999N1-00671-01141999999ADDMA1999999090181MD1710021+9999ME1314509OA149900721REMSYN088AAXX  05054 06753 33/// /2709 11067 21114 39018 48450 57002 333 55300 20000 91114 91210;
0305067530999992011010506004+46517+008683FM-12+101699999V0202801N00511021001CN0200001N1-00681-01201999999ADDAJ100159199999999AL19900091GA1051+021001061GF105991999999022501999999GJ100009IA1239IA2999-00809KA1999N-00701MA1999999090221MD1310021+9999ME1314549OA149900721REMSYN136AAXX  05064 06753 32870 52810 11068 21120 39022 48454 53002 333 21070 3/108 47015 55000 55300 20000 70000 85657 90768 93100 91114 91210;
0149067530999992011010507004+46517+008683FM-12+101699999V0202801N004119999999N9999999N1-00691-01291999999ADDMA1999999090241MD1210051+9999ME1314559OA149900721REMSYN088AAXX  05074 06753 33/// /2808 11069 21129 39024 48455 52005 333 55300 20000 91114 91210;
0149067530999992011010508004+46517+008683FM-12+101699999V0202701N005119999999N9999999N1-00751-01321999999ADDMA1999999090271MD1219999+9999ME1314579OA149900721REMSYN088AAXX  05084 06753 33/// /2710 11075 21132 39027 48457 52/// 333 55300 20029 91114 91210;
0197067530999992011010509004+46517+008683FM-12+101699999V0202701N00461015001CN0150001N1-00731-01201999999ADDGA1051+015001061GF105991999999017501999999MA1999999090311MD1210091+9999ME1314619OA149900721REMSYN094AAXX  05094 06753 32765 52709 11073 21120 39031 48461 52009 333 55300 20184 85650 91114 91211;
0149067530999992011010510004+46517+008683FM-12+101699999V0202801N004619999999N9999999N1-00791-01241999999ADDMA1999999090291MD1210051+9999ME1314589OA149900721REMSYN088AAXX  05104 06753 33/// /2809 11079 21124 39029 48458 52005 333 55300 20346 91114 91211;
0149067530999992011010511004+46517+008683FM-12+101699999V0202901N002119999999N9999999N1-00731-01221999999ADDMA1999999090261MD1810011+9999ME1314569OA149900571REMSYN088AAXX  05114 06753 33/// /2904 11073 21122 39026 48456 58001 333 55300 20166 91111 91210;
0144067530999992011010512004+46517+008683FM-12+101699999V0202801N002112200019N0300001N1-00711-01191999999ADDGF103991999999012501999999MA1999999090191ME1314519REMSYN082AAXX  05124 06753 32680 32804 11071 21119 39019 48451 5//// 333 553// 20187 83645;
0149067530999992011010513004+46517+008683FM-12+101699999V0202701N003119999999N9999999N1-00821-01211999999ADDMA1999999090151MD1710141+9999ME1314459OA149900461REMSYN088AAXX  05134 06753 33/// /2706 11082 21121 39015 48445 57014 333 55300 20169 91109 91206;
0096067530999992011010514004+46517+008683FM-12+101699999V0202801N001519999999N9999999N1-00841-01191999999ADDMA1999999090151ME1314459REMSYN060AAXX  05144 06753 43/// /2803 11084 21119 39015 48445 5////;
0138067530999992011010515004+46517+008683FM-12+101699999V0202901N001012200019N0300001N1-00831-01271999999ADDGA1001+999999999GF100991001001999999001001MA1999999090171ME1314479REMSYN060AAXX  05154 06753 42/80 02902 11083 21127 39017 48447 5////;
0149067530999992011010516004+46517+008683FM-12+101699999V0209999C000019999999N9999999N1-00891-01091999999ADDMA1999999090211MD1210061+9999ME1314499OA149900211REMSYN088AAXX  05164 06753 33/// /0000 11089 21109 39021 48449 52006 333 55300 20029 91104 91202;
0149067530999992011010517004+46517+008683FM-12+101699999V0209999C000019999999N9999999N1-01051-01181999999ADDMA1999999090251MD1210101+9999ME1314509OA149900101REMSYN088AAXX  05174 06753 33/// /0000 11105 21118 39025 48450 52010 333 55300 20000 91102 91201;
0261067530999992011010518004+46517+008683FM-12+101699999V0201001N001012200019N0300001N1-01041-01171999999ADDAJ100159199999999AL19900091GA1001+999999999GF100991001001999999001001IA1239KA1120M-00671MA1999999090251MD1219999+9999ME1314509OA149900721REMSYN112AAXX  05184 06753 32/80 01002 11104 21117 39025 48450 52/// 333 11067 47015 55300 20000 90766 93100 91114 91211;
0149067530999992011010519004+46517+008683FM-12+101699999V0203301N000519999999N9999999N1-00881-01141999999ADDMA1999999090341MD1210131+9999ME1314609OA149900261REMSYN088AAXX  05194 06753 33/// /3301 11088 21114 39034 48460 52013 333 55300 20000 91105 91202;
0149067530999992011010520004+46517+008683FM-12+101699999V0209999C000019999999N9999999N1-01011-01191999999ADDMA1999999090341MD1219999+9999ME1314589OA149900261REMSYN088AAXX  05204 06753 33/// /0000 11101 21119 39034 48458 52/// 333 55300 20000 91105 91203;
0154067530999992011010521004+46517+008683FM-12+101699999V0202701N001012200019N0300001N1-00991-01211999999ADDGA1001+999999999GF100991001001999999001001MA1999999090321ME1314579REMSYN076AAXX  05214 06753 32/80 02702 11099 21121 39032 48457 5//// 333 553// 20000;
0149067530999992011010522004+46517+008683FM-12+101699999V0209999C000019999999N9999999N1-01021-01231999999ADDMA1999999090321MD1810021+9999ME1314569OA149900311REMSYN088AAXX  05224 06753 33/// /0000 11102 21123 39032 48456 58002 333 55300 20000 91106 91203;
0149067530999992011010523004+46517+008683FM-12+101699999V0209999C000019999999N9999999N1-01081-01151999999ADDMA1999999090391MD1319999+9999ME1314619OA149900311REMSYN088AAXX  05234 06753 33/// /0000 11108 21115 39039 48461 53/// 333 55300 20000 91106 91203;
0138067530999992011010600004+46517+008683FM-12+101699999V0201001N000512200019N0300001N1-01071-01171999999ADDGA1001+999999999GF100991001001999999001001MA1999999090391ME1314619REMSYN060AAXX  06004 06753 42/80 01001 11107 21117 39039 48461 5////;
0096067530999992011010601004+46517+008683FM-12+101699999V0209999C000019999999N9999999N1-00951-01101999999ADDMA1999999090331ME1314589REMSYN060AAXX  06014 06753 43/// /0000 11095 21110 39033 48458 5////;
0096067530999992011010602004+46517+008683FM-12+101699999V0203301N000519999999N9999999N1-01131-01221999999ADDMA1999999090331ME1314559REMSYN060AAXX  06024 06753 43/// /3301 11113 21122 39033 48455 5////;
0138067530999992011010603004+46517+008683FM-12+101699999V0209999C000012200019N0300001N1-00921-01161999999ADDGA1001+999999999GF100991001001999999001001MA1999999090341ME1314609REMSYN060AAXX  06034 06753 42/80 00000 11092 21116 39034 48460 5////;
0096067530999992011010604004+46517+008683FM-12+101699999V0203201N000519999999N9999999N1-00941-01041999999ADDMA1999999090351ME1314609REMSYN060AAXX  06044 06753 43/// /3201 11094 21104 39035 48460 5////;
0096067530999992011010605004+46517+008683FM-12+101699999V0209999C000019999999N9999999N1-00911-01051999999ADDMA1999999090341ME1314609REMSYN060AAXX  06054 06753 43/// /0000 11091 21105 39034 48460 5////;
0143067530999992011010606004+46517+008683FM-12+101699999V0200501N000519999999N9999999N1-00771-00961999999ADDIA2999-01609KA1999N-01201MA1999999090321ME1314619REMSYN082AAXX  06064 06753 43/// /0501 11077 21096 39032 48461 5//// 333 21120 3/116 55000;
0096067530999992011010607004+46517+008683FM-12+101699999V0201101N001019999999N9999999N1-00731-00951999999ADDMA1999999090321ME1314619REMSYN060AAXX  06074 06753 43/// /1102 11073 21095 39032 48461 5////;
0112067530999992011010608004+46517+008683FM-12+101699999V0201101N001019999999N9999999N1-00631-01001999999ADDMA1999999090321ME1314639REMSYN076AAXX  06084 06753 33/// /1102 11063 21100 39032 48463 5//// 333 553// 20018;
0148067530999992011010609004+46517+008683FM-12+101699999V0209999C000010180019N0200001N1-00561-00861999999ADDGA1081+018001041GF108991999999017501999999MA1999999090351ME1314679REMSYN070AAXX  06094 06753 42770 80000 11056 21086 39035 48467 5//// 333 88456;
0149067530999992011010610004+46517+008683FM-12+101699999V0202901N000519999999N9999999N1-00421-00821999999ADDMA1999999090371MD1210051+9999ME1314719OA149900151REMSYN088AAXX  06104 06753 33/// /2901 11042 21082 39037 48471 52005 333 55300 20421 91103 91201;
0149067530999992011010611004+46517+008683FM-12+101699999V0209999C000019999999N9999999N1-00311-00971999999ADDMA1999999090371MD1210051+9999ME1314739OA149900151REMSYN088AAXX  06114 06753 33/// /0000 11031 21097 39037 48473 52005 333 55300 20389 91103 91201;
0197067530999992011010612004+46517+008683FM-12+101699999V0209999C00001018001CN0200001N1-00271-00941999999ADDGA1081+018001041GF108991999999017501999999MA1999999090331MD1810021+9999ME1314719OA149900211REMSYN094AAXX  06124 06753 32770 80000 11027 21094 39033 48471 58002 333 55300 20306 88456 91104 91202;
0149067530999992011010613004+46517+008683FM-12+101699999V0201101N000519999999N9999999N1-00271-00871999999ADDMA1999999090281MD1710091+9999ME1314669OA149900151REMSYN088AAXX  06134 06753 33/// /1101 11027 21087 39028 48466 57009 333 55300 20180 91103 91202;
0096067530999992011010614004+46517+008683FM-12+101699999V0209999C000019999999N9999999N1-00271-00761999999ADDMA1999999090271ME1314659REMSYN060AAXX  06144 06753 43/// /0000 11027 21076 39027 48465 5////;
0148067530999992011010615004+46517+008683FM-12+101699999V0209999C000010180019N0200001N1-00221-00781999999ADDGA1081+018001041GF108991999999017501999999MA1999999090261ME1314659REMSYN070AAXX  06154 06753 42770 80000 11022 21078 39026 48465 5//// 333 88456;
0149067530999992011010616004+46517+008683FM-12+101699999V0209999C000019999999N9999999N1-00201-00691999999ADDMA1999999090291MD1310011+9999ME1314689OA149900151REMSYN088AAXX  06164 06753 33/// /0000 11020 21069 39029 48468 53001 333 55300 20011 91103 91201;
0149067530999992011010617004+46517+008683FM-12+101699999V0209999C000019999999N9999999N1-00231-00581999999ADDMA1999999090271MD1010001+9999ME1314669OA149900151REMSYN088AAXX  06174 06753 33/// /0000 11023 21058 39027 48466 50000 333 55300 20000 91103 91201;
0267067530999992011010618004+46517+008683FM-12+101699999V0200101N00051013501CN0200001N1-00281-00531999999ADDAJ100109199999999AL19900091GA1081+013501061GF108991999999012501999999IA1279KA1120M-00191MA1999999090281MD1010021+9999ME1314669OA149900151REMSYN118AAXX  06184 06753 32670 80101 11028 21053 39028 48466 50002 333 11019 43010 55300 20000 88645 90766 93100 91103 91202;
0149067530999992011010619004+46517+008683FM-12+101699999V0209999C000019999999N9999999N1-00261-00491999999ADDMA1999999090321MD1310031+9999ME1314709OA149900101REMSYN088AAXX  06194 06753 33/// /0000 11026 21049 39032 48470 53003 333 55300 20000 91102 91201;
0155067530999992011010620004+46517+008683FM-12+101699999V0209999C000019999999N9999999N1-00231-00381999999ADDMA1999999090381MD1219999+9999ME1314769OA149900101REMSYN094AAXX  06204 06753 23/// /0000 11023 21038 39038 48476 52/// 333 55300 20000 69915 91102 91201;
0231067530999992011010621004+46517+008683FM-12+101699999V0209999C00001024001CN0050001N1-00271-00361999999ADDAY171031AY221031GA1081+024001051GF108991999999022501999999MA1999999090381MD1219999+9999ME1314759MW1771OA149900151REMSYN106AAXX  06214 06753 21850 80000 11027 21036 39038 48475 52/// 77772 333 55300 20000 69915 88558 91103 91201;
0155067530999992011010622004+46517+008683FM-12+101699999V0202801N000519999999N9999999N1-00221-00331999999ADDMA1999999090431MD1210111+9999ME1314809OA149900101REMSYN094AAXX  06224 06753 23/// /2801 11022 21033 39043 48480 52011 333 55300 20000 69945 91102 91201;
0112067530999992011010623004+46517+008683FM-12+101699999V0201001N000519999999N9999999N1-00191-00291999999ADDMA1999999090431ME1314819REMSYN076AAXX  06234 06753 33/// /1001 11019 21029 39043 48481 5//// 333 553// 20000;
0176067530999992011010700004+46517+008683FM-12+101699999V0202401N000510027019N0020001N1-00201-00291999999ADDAY171061AY271061GA1081+002701051GF108991999999002501999999MA1999999090431ME1314819MW1771REMSYN076AAXX  07004 06753 41320 82401 11020 21029 39043 48481 5//// 77777 333 88509;
0096067530999992011010701004+46517+008683FM-12+101699999V0201001N000519999999N9999999N1-00171-00281999999ADDMA1999999090441ME1314829REMSYN060AAXX  07014 06753 43/// /1001 11017 21028 39044 48482 5////;
0096067530999992011010702004+46517+008683FM-12+101699999V0209999C000019999999N9999999N1-00171-00261999999ADDMA1999999090481ME1314859REMSYN060AAXX  07024 06753 43/// /0000 11017 21026 39048 48485 5////;
0176067530999992011010703004+46517+008683FM-12+101699999V0202801N000510066019N0070001N1-00141-00261999999ADDAY171031AY251031GA1081+006601071GF108991999999008001999999MA1999999090501ME1314889MW1681REMSYN076AAXX  07034 06753 41557 82801 11014 21026 39050 48488 5//// 76875 333 88722;
0149067530999992011010704004+46517+008683FM-12+101699999V0202601N000519999999N9999999N1-00131-00231999999ADDMA1999999090481MD1010041+9999ME1314869OA149900101REMSYN088AAXX  07044 06753 33/// /2601 11013 21023 39048 48486 50004 333 55300 20000 91102 91201;
0155067530999992011010705004+46517+008683FM-12+101699999V0209999C000019999999N9999999N1-00121-00211999999ADDMA1999999090511MD1310031+9999ME1314899OA149900101REMSYN094AAXX  07054 06753 23/// /0000 11012 21021 39051 48489 53003 333 55300 20000 69925 91102 91201;
0356067530999992011010706004+46517+008683FM-12+101699999V0209999C00001005701CN0050001N1-00111-00201999999ADDAA112001091AJ100109199999999AL19900091AY171061AY221061GA1081+005701051GF108991999999004501999999GJ100009IA1239IA2999-00309KA1999N-00281MA1999999090561MD1210061+9999ME1314949MW1231OA149900101REMSYN154AAXX  07064 06753 01450 80000 11011 21020 39056 48494 52006 69992 72372 333 21028 3/103 47010 55000 55300 20000 60005 70009 88519 90768 93100 91102 91201;
0149067530999992011010707004+46517+008683FM-12+101699999V0209999C000019999999N9999999N1-00121-00201999999ADDMA1999999090581MD1310101+9999ME1314959OA149900101REMSYN088AAXX  07074 06753 33/// /0000 11012 21020 39058 48495 53010 333 55300 20000 91102 91201;
0118067530999992011010708004+46517+008683FM-12+101699999V0209999C000019999999N9999999N1-00131-00201999999ADDMA1999999090611ME1314989REMSYN082AAXX  07084 06753 23/// /0000 11013 21020 39061 48498 5//// 333 553// 20032 69915;
0176067530999992011010709004+46517+008683FM-12+101699999V0209999C000010075019N0100001N1-00031-00141999999ADDAY171031AY221031GA1081+007501071GF108991999999008001999999MA1999999090661ME1315049MW1231REMSYN076AAXX  07094 06753 41560 80000 11003 21014 39066 48504 5//// 72372 333 88725;
0155067530999992011010710004+46517+008683FM-12+101699999V0209999C000019999999N9999999N1+00001-00101999999ADDMA1999999090681MD1210101+9999ME1315069OA149900051REMSYN094AAXX  07104 06753 23/// /0000 10000 21010 39068 48506 52010 333 55300 20115 69915 91101 91201;
0155067530999992011010711004+46517+008683FM-12+101699999V0209999C000019999999N9999999N1+00071-00031999999ADDMA1999999090671MD1210061+9999ME1315079OA149900051REMSYN094AAXX  07114 06753 23/// /0000 10007 21003 39067 48507 52006 333 55300 20173 69935 91101 91201;
0248067530999992011010712004+46517+008683FM-12+101699999V0201101N00101000601CN0050001N1+00071-00021999999ADDAA106001091AY171061AY221061GA1081+000601051GF108991999999000751999999MA1999999090651MD1710011+9999ME1315059MW1711OA149900101REMSYN112AAXX  07124 06753 01150 81102 10007 21002 39065 48505 57001 60011 77172 333 55300 20194 69965 88502 91102 91202;
0155067530999992011010713004+46517+008683FM-12+101699999V0209999C000019999999N9999999N1+00061-00041999999ADDMA1999999090631MD1710051+9999ME1315039OA149900151REMSYN094AAXX  07134 06753 23/// /0000 10006 21004 39063 48503 57005 333 55300 20194 69975 91103 91202;
0096067530999992011010714004+46517+008683FM-12+101699999V0209999C000019999999N9999999N1+00071-00021999999ADDMA1999999090631ME1315039REMSYN060AAXX  07144 06753 43/// /0000 10007 21002 39063 48503 5////;
0176067530999992011010715004+46517+008683FM-12+101699999V0209999C000010006019N0050001N1+00071-00011999999ADDAY171031AY221031GA1081+000601051GF108991999999000751999999MA1999999090661ME1315069MW1711REMSYN076AAXX  07154 06753 41150 80000 10007 21001 39066 48506 5//// 77172 333 88502;
0155067530999992011010716004+46517+008683FM-12+101699999V0209999C000019999999N9999999N1+00091+00011999999ADDMA1999999090671MD1210041+9999ME1315079OA149900101REMSYN094AAXX  07164 06753 23/// /0000 10009 20001 39067 48507 52004 333 55300 20018 69945 91102 91201;
0155067530999992011010717004+46517+008683FM-12+101699999V0209999C000019999999N9999999N1+00081+00001999999ADDMA1999999090671MD1210041+9999ME1315079OA149900051REMSYN094AAXX  07174 06753 23/// /0000 10008 20000 39067 48507 52004 333 55300 20000 69965 91101 91201;
0271067530999992011010718004+46517+008683FM-12+101699999V0209999C00001000601CN0050001N1+00081+00011999999ADDAA112004191AJ100109199999999AY171061AY221061GA1081+000601051GF108991999999000751999999IA1279KA1120M+00101MA1999999090681ME1315089MW1711REMSYN124AAXX  07184 06753 01150 80000 10008 20001 39068 48508 5//// 60042 77172 333 10010 43010 553// 20000 69965 88502 90766 93100;
0155067530999992011010719004+46517+008683FM-12+101699999V0201101N000519999999N9999999N1+00081+00001999999ADDMA1999999090681MD1219999+9999ME1315089OA149900101REMSYN094AAXX  07194 06753 23/// /1101 10008 20000 39068 48508 52/// 333 55300 20000 69945 91102 91201;
0096067530999992011010720004+46517+008683FM-12+101699999V0209999C000019999999N9999999N1+00081+00001999999ADDMA1999999090681ME1315089REMSYN060AAXX  07204 06753 43/// /0000 10008 20000 39068 48508 5////;
0176067530999992011010721004+46517+008683FM-12+101699999V0202801N001010030019N0050001N1+00061-00021999999ADDAY171031AY251031GA1081+003001051GF108991999999004501999999MA1999999090661ME1315069MW1511REMSYN076AAXX  07214 06753 41450 82802 10006 21002 39066 48506 5//// 75175 333 88510;
0155067530999992011010722004+46517+008683FM-12+101699999V0200301N000519999999N9999999N1+00061-00011999999ADDMA1999999090661MD1710021+9999ME1315069OA149900101REMSYN094AAXX  07224 06753 23/// /0301 10006 21001 39066 48506 57002 333 55300 20000 69975 91102 91202;
0118067530999992011010723004+46517+008683FM-12+101699999V0209999C000019999999N9999999N1+00061-00011999999ADDMA1999999090661ME1315069REMSYN082AAXX  07234 06753 23/// /0000 10006 21001 39066 48506 5//// 333 553// 20000 69975;
0195067530999992011010800004+46517+008683FM-12+101699999V0209999C000019999999N0000001N1+00041-00011999999ADDAA106004191AY171061AY271061GF108991999999002501999999MA1999999090661ME1315059MW1691REMSYN100AAXX  08004 06753 01300 80000 10004 21001 39066 48505 5//// 60041 76977 333 553// 20000 69985 88509;
0096067530999992011010801004+46517+008683FM-12+101699999V0200301N000519999999N9999999N1+00061-00011999999ADDMA1999999090631ME1315039REMSYN060AAXX  08014 06753 43/// /0301 10006 21001 39063 48503 5////;
0096067530999992011010802004+46517+008683FM-12+101699999V0209999C000019999999N9999999N1+00051-00021999999ADDMA1999999090611ME1315019REMSYN060AAXX  08024 06753 43/// /0000 10005 21002 39061 48501 5////;
0176067530999992011010803004+46517+008683FM-12+101699999V0209999C000010030019N0010001N1+00071-00011999999ADDAY171031AY271031GA1081+003001051GF108991999999004501999999MA1999999090611ME1315019MW1771REMSYN076AAXX  08034 06753 41410 80000 10007 21001 39061 48501 5//// 77777 333 88510;
0096067530999992011010804004+46517+008683FM-12+101699999V0201001N001019999999N9999999N1+00061-00011999999ADDMA1999999090571ME1314989REMSYN060AAXX  08044 06753 43/// /1002 10006 21001 39057 48498 5////;
0096067530999992011010805004+46517+008683FM-12+101699999V0209999C000019999999N9999999N1+00061-00011999999ADDMA1999999090511ME1314929REMSYN060AAXX  08054 06753 43/// /0000 10006 21001 39051 48492 5////;
0278067530999992011010806004+46517+008683FM-12+101699999V0209999C000010036019N0050001N1+00101+00011999999ADDAJ100109199999999AL10600191AY171061AY221061GA1081+003601051GF108991999999004501999999GJ100009IA1239IA2999+00009KA1999N+00041MA1999999090501ME1314929MW1681REMSYN112AAXX  08064 06753 41450 80000 10010 20001 39050 48492 5//// 76872 333 20004 3/000 47010 55000 88512 90768 93101;
0096067530999992011010807004+46517+008683FM-12+101699999V0202301N000519999999N9999999N1+00081+00001999999ADDMA1999999090561ME1314979REMSYN060AAXX  08074 06753 43/// /2301 10008 20000 39056 48497 5////;
0118067530999992011010808004+46517+008683FM-12+101699999V0209999C000019999999N9999999N1+00081+00021999999ADDMA1999999090591ME1315009REMSYN082AAXX  08084 06753 23/// /0000 10008 20002 39059 48500 5//// 333 553// 20000 69935;
0176067530999992011010809004+46517+008683FM-12+101699999V0202301N000510027019N0050001N1+00091+00021999999ADDAY171031AY221031GA1081+002701051GF108991999999002501999999MA1999999090611ME1315029MW1231REMSYN076AAXX  08094 06753 41350 82301 10009 20002 39061 48502 5//// 72372 333 88509;
0096067530999992011010810004+46517+008683FM-12+101699999V0202401N000519999999N9999999N1+00081+00011999999ADDMA1999999090631ME1315039REMSYN060AAXX  08104 06753 43/// /2401 10008 20001 39063 48503 5////;
0096067530999992011010811004+46517+008683FM-12+101699999V0202401N000519999999N9999999N1+00111+00021999999ADDMA1999999090621ME1315039REMSYN060AAXX  08114 06753 43/// /2401 10011 20002 39062 48503 5////;
0148067530999992011010812004+46517+008683FM-12+101699999V0209999C000010015019N0100001N1+00131+00041999999ADDGA1081+001501071GF108991999999001501999999MA1999999090571ME1314999REMSYN070AAXX  08124 06753 42260 80000 10013 20004 39057 48499 5//// 333 88705;
0096067530999992011010813004+46517+008683FM-12+101699999V0209999C000019999999N9999999N1+00171+00071999999ADDMA1999999090551ME1314989REMSYN060AAXX  08134 06753 43/// /0000 10017 20007 39055 48498 5////;
0096067530999992011010814004+46517+008683FM-12+101699999V0209999C000019999999N9999999N1+00191+00101999999ADDMA1999999090541ME1314989REMSYN060AAXX  08144 06753 43/// /0000 10019 20010 39054 48498 5////;
0148067530999992011010815004+46517+008683FM-12+101699999V0203401N000510006019N0100001N1+00221+00141999999ADDGA1081+000601071GF108991999999000751999999MA1999999090571ME1315019REMSYN070AAXX  08154 06753 42160 83401 10022 20014 39057 48501 5//// 333 88702;
0096067530999992011010816004+46517+008683FM-12+101699999V0209999C000019999999N9999999N1+00201+00121999999ADDMA1999999090591ME1315029REMSYN060AAXX  08164 06753 43/// /0000 10020 20012 39059 48502 5////;
0096067530999992011010817004+46517+008683FM-12+101699999V0209999C000019999999N9999999N1+00151+00071999999ADDMA1999999090611ME1315039REMSYN060AAXX  08174 06753 43/// /0000 10015 20007 39061 48503 5////;
0199067530999992011010818004+46517+008683FM-12+101699999V0209999C000010006019N0100001N1+00161+00081999999ADDAJ100109199999999AL10600091GA1081+000601071GF108991999999000751999999IA1279MA1999999090621ME1315049REMSYN088AAXX  08184 06753 42160 80000 10016 20008 39062 48504 5//// 333 43010 88702 90766 93100;
0096067530999992011010819004+46517+008683FM-12+101699999V0209999C000019999999N9999999N1+00151+00071999999ADDMA1999999090591ME1315019REMSYN060AAXX  08194 06753 43/// /0000 10015 20007 39059 48501 5////;
0096067530999992011010820004+46517+008683FM-12+101699999V0209999C000019999999N9999999N1+00111+00051999999ADDMA1999999090611ME1315029REMSYN060AAXX  08204 06753 43/// /0000 10011 20005 39061 48502 5////;
0096067530999992011010821004+46517+008683FM-12+101699999V0200701N000519999999N9999999N1+00151+00081999999ADDMA1999999090601ME1315029REMSYN060AAXX  08214 06753 43/// /0701 10015 20008 39060 48502 5////;
0096067530999992011010822004+46517+008683FM-12+101699999V0200201N000519999999N9999999N1+00161+00081999999ADDMA1999999090591ME1315019REMSYN060AAXX  08224 06753 43/// /0201 10016 20008 39059 48501 5////;
0096067530999992011010823004+46517+008683FM-12+101699999V0200601N000519999999N9999999N1+00201+00111999999ADDMA1999999090631ME1315069REMSYN060AAXX  08234 06753 43/// /0601 10020 20011 39063 48506 5////;
0176067530999992011010900004+46517+008683FM-12+101699999V0209999C000010045019N0050001N1+00171+00081999999ADDAY171061AY261061GA1081+004501051GF108991999999004501999999MA1999999090621ME1315049MW1511REMSYN076AAXX  09004 06753 41450 80000 10017 20008 39062 48504 5//// 75176 333 88515;
0096067530999992011010901004+46517+008683FM-12+101699999V0202101N000519999999N9999999N1+00141+00061999999ADDMA1999999090601ME1315029REMSYN060AAXX  09014 06753 43/// /2101 10014 20006 39060 48502 5////;
0096067530999992011010902004+46517+008683FM-12+101699999V0200501N000519999999N9999999N1+00141+00071999999ADDMA1999999090591ME1315019REMSYN060AAXX  09024 06753 43/// /0501 10014 20007 39059 48501 5////;
0176067530999992011010903004+46517+008683FM-12+101699999V0203001N000510027019N0050001N1+00131+00061999999ADDAY161031AY251031GA1081+002701051GF108991999999002501999999MA1999999090561ME1314989MW1581REMSYN076AAXX  09034 06753 41350 83001 10013 20006 39056 48498 5//// 75865 333 88509;
0096067530999992011010904004+46517+008683FM-12+101699999V0202901N000519999999N9999999N1+00171+00091999999ADDMA1999999090521ME1314959REMSYN060AAXX  09044 06753 43/// /2901 10017 20009 39052 48495 5////;
0096067530999992011010905004+46517+008683FM-12+101699999V0209999C000019999999N9999999N1+00131+00081999999ADDMA1999999090491ME1314929REMSYN060AAXX  09054 06753 43/// /0000 10013 20008 39049 48492 5////;
0241067530999992011010906004+46517+008683FM-12+101699999V0209999C000010027019N0050001N1+00141+00081999999ADDAJ100109199999999AL10600091AY151061AY221061GA1081+002701051GF108991999999002501999999GJ100009IA1279MA1999999090491ME1314929MW1511REMSYN100AAXX  09064 06753 41350 80000 10014 20008 39049 48492 5//// 75152 333 43010 55000 88509 90768 93100;
0096067530999992011010907004+46517+008683FM-12+101699999V0202801N000519999999N9999999N1+00151+00061999999ADDMA1999999090491ME1314929REMSYN060AAXX  09074 06753 43/// /2801 10015 20006 39049 48492 5////;
0118067530999992011010908004+46517+008683FM-12+101699999V0202901N000519999999N9999999N1+00191+00081999999ADDMA1999999090501ME1314949REMSYN082AAXX  09084 06753 23/// /2901 10019 20008 39050 48494 5//// 333 553// 20004 69925;
0178067530999992011010909004+46517+008683FM-12+101699999V0200801N001519999999N0050001N1+00321+00181999999ADDAY151031AY221031GF108991999999002501999999MA1999999090541ME1315009MW1531REMSYN094AAXX  09094 06753 21350 80803 10032 20018 39054 48500 5//// 75352 333 553// 20079 69925 88509;
0149067530999992011010910004+46517+008683FM-12+101699999V0200801N002619999999N9999999N1+00311+00171999999ADDMA1999999090561MD1210071+9999ME1315029OA149900771REMSYN088AAXX  09104 06753 33/// /0805 10031 20017 39056 48502 52007 333 55300 20155 91115 91205;
0155067530999992011010911004+46517+008683FM-12+101699999V0201001N002119999999N9999999N1+00321+00151999999ADDMA1999999090531MD1010031+9999ME1314999OA149900571REMSYN094AAXX  09114 06753 23/// /1004 10032 20015 39053 48499 50003 333 55300 20230 69935 91111 91206;
0248067530999992011010912004+46517+008683FM-12+101699999V0200801N00311000601CN0050001N1+00411+00221999999ADDAA106001091AY161061AY221061GA1081+000601051GF108991999999000751999999MA1999999090471MD1810071+9999ME1314969MW1611OA149900771REMSYN112AAXX  09124 06753 01150 80806 10041 20022 39047 48496 58007 60011 76162 333 55300 20328 69935 88502 91115 91207;
0155067530999992011010913004+46517+008683FM-12+101699999V0209999C000019999999N9999999N1+00251+00131999999ADDMA1999999090431MD1610131+9999ME1314899OA149900671REMSYN094AAXX  09134 06753 23/// /0000 10025 20013 39043 48489 56013 333 55300 20184 69935 91113 91209;
0096067530999992011010914004+46517+008683FM-12+101699999V0202701N000519999999N9999999N1+00291+00141999999ADDMA1999999090421ME1314899REMSYN060AAXX  09144 06753 43/// /2701 10029 20014 39042 48489 5////;
0176067530999992011010915004+46517+008683FM-12+101699999V0203101N001510006019N0050001N1+00281+00151999999ADDAY161031AY221031GA1081+000601051GF108991999999000751999999MA1999999090421ME1314899MW1611REMSYN076AAXX  09154 06753 41150 83103 10028 20015 39042 48489 5//// 76162 333 88502;
0174067530999992011010916004+46517+008683FM-12+101699999V0209999C000019999999N9999999N1+00181+00111999999ADDMA1999999090431MD1410001+9999ME1314889OA149900261REMSYN094AAXX  09164 06753 23/// /0000 10018 20011 39043 48488 52000 333 55300 20004 69925 91105 91203;EQDQ01+000022APCTEN
0155067530999992011010917004+46517+008683FM-12+101699999V0202301N000519999999N9999999N1+00181+00111999999ADDMA1999999090401MD1810021+9999ME1314859OA149900151REMSYN094AAXX  09174 06753 23/// /2301 10018 20011 39040 48485 58002 333 55300 20000 69965 91103 91202;
0318067530999992011010918004+46517+008683FM-12+101699999V0201101N00051000601CN0050001N1+00161+00081999999ADDAA112004191AJ100109199999999AL19900091AY161061AY221061GA1081+000601051GF108991999999000751999999IA1279KA1120M+00421MA1999999090431MD1510011+9999ME1314879MW1631OA149900771REMSYN136AAXX  09184 06753 01150 81101 10016 20008 39043 48487 55001 60042 76362 333 10042 43010 55300 20000 60015 88502 90766 93100 91115 91209;
0155067530999992011010919004+46517+008683FM-12+101699999V0201901N000519999999N9999999N1+00151+00061999999ADDMA1999999090461MD1210031+9999ME1314909OA149900151REMSYN094AAXX  09194 06753 23/// /1901 10015 20006 39046 48490 52003 333 55300 20000 69965 91103 91201;
0155067530999992011010920004+46517+008683FM-12+101699999V0200901N000519999999N9999999N1+00141+00071999999ADDMA1999999090471MD1210071+9999ME1314909OA149900151REMSYN094AAXX  09204 06753 23/// /0901 10014 20007 39047 48490 52007 333 55300 20000 69925 91103 91201;
0231067530999992011010921004+46517+008683FM-12+101699999V0201001N00051002701CN0050001N1+00121+00031999999ADDAY171031AY251031GA1081+002701051GF108991999999002501999999MA1999999090471MD1210041+9999ME1314909MW1681OA149900151REMSYN106AAXX  09214 06753 21350 81001 10012 20003 39047 48490 52004 76875 333 55300 20000 69945 88509 91103 91202;
0155067530999992011010922004+46517+008683FM-12+101699999V0209999C000019999999N9999999N1+00091+00021999999ADDMA1999999090481MD1210021+9999ME1314909OA149900101REMSYN094AAXX  09224 06753 23/// /0000 10009 20002 39048 48490 52002 333 55300 20000 69965 91102 91201;
0155067530999992011010923004+46517+008683FM-12+101699999V0201001N001019999999N9999999N1+00111+00011999999ADDMA1999999090461MD1710011+9999ME1314899OA149900211REMSYN094AAXX  09234 06753 23/// /1002 10011 20001 39046 48489 57001 333 55300 20000 69945 91104 91202;
0248067530999992011011000004+46517+008683FM-12+101699999V0202801N00101003001CN0050001N1+00101-00011999999ADDAA106003091AY171061AY271061GA1081+003001051GF108991999999004501999999MA1999999090451MD1710021+9999ME1314889MW1681OA149900671REMSYN112AAXX  10004 06753 01450 82802 10010 21001 39045 48488 57002 60031 76877 333 55300 20000 69935 88510 91113 91209;
0155067530999992011011001004+46517+008683FM-12+101699999V0203101N000519999999N9999999N1+00071-00011999999ADDMA1999999090451MD1710031+9999ME1314879OA149900211REMSYN094AAXX  10014 06753 23/// /3101 10007 21001 39045 48487 57003 333 55300 20000 69915 91104 91202;
0118067530999992011011002004+46517+008683FM-12+101699999V0201501N000519999999N9999999N1+00081+00011999999ADDMA1999999090441ME1314879REMSYN082AAXX  10024 06753 23/// /1501 10008 20001 39044 48487 5//// 333 553// 20000 69965;
0096067530999992011011003004+46517+008683FM-12+101699999V0209999C000019999999N9999999N1+00071-00011999999ADDMA1999999090421ME1314859REMSYN060AAXX  10034 06753 43/// /0000 10007 21001 39042 48485 5////;
0118067530999992011011004004+46517+008683FM-12+101699999V0209999C000019999999N9999999N1+00071+00001999999ADDMA1999999090421ME1314859REMSYN082AAXX  10044 06753 23/// /0000 10007 20000 39042 48485 5//// 333 553// 20000 69955;
0155067530999992011011005004+46517+008683FM-12+101699999V0209999C000019999999N9999999N1+00061+00001999999ADDMA1999999090401MD1619999+9999ME1314839OA149900151REMSYN094AAXX  10054 06753 23/// /0000 10006 20000 39040 48483 56/// 333 55300 20000 69925 91103 91200;
0168067530999992011011006004+46517+008683FM-12+101699999V0209999C000019999999N9999999N1+00071+00001999999ADDAA124008491GJ100009IA2999+00009KA1999N+00051MA1999999090411ME1314849REMSYN088AAXX  10064 06753 43/// /0000 10007 20000 39041 48484 5//// 333 20005 3/000 55000 70083;
0149067530999992011011007004+46517+008683FM-12+101699999V0202801N000519999999N9999999N1+00081+00011999999ADDMA1999999090421MD1510001+9999ME1314859OA149900051REMSYN088AAXX  10074 06753 33/// /2801 10008 20001 39042 48485 55000 333 55300 20000 91101 91201;
0096067530999992011011008004+46517+008683FM-12+101699999V0209999C000019999999N9999999N1+00091+00021999999ADDMA1999999090441ME1314879REMSYN060AAXX  10084 06753 43/// /0000 10009 20002 39044 48487 5////;
0176067530999992011011009004+46517+008683FM-12+101699999V0209999C000010087019N0050001N1+00091+00021999999ADDAY171031AY221031GA1081+008701071GF108991999999008001999999MA1999999090461ME1314899MW1011REMSYN076AAXX  10094 06753 41550 80000 10009 20002 39046 48489 5//// 70172 333 88729;
0149067530999992011011010004+46517+008683FM-12+101699999V0209999C000019999999N9999999N1+00131+00041999999ADDMA1999999090461MD1210041+9999ME1314899OA149900101REMSYN088AAXX  10104 06753 33/// /0000 10013 20004 39046 48489 52004 333 55300 20144 91102 91202;
0149067530999992011011011004+46517+008683FM-12+101699999V0201301N001019999999N9999999N1+00151+00061999999ADDMA1999999090431MD1019999+9999ME1314879OA149900151REMSYN088AAXX  10114 06753 33/// /1302 10015 20006 39043 48487 50/// 333 55300 20382 91103 91202;
0172067530999992011011012004+46517+008683FM-12+101699999V0209999C000019999999N0050001N1+00211+00101999999ADDAY151061AY221061GF108991999999004501999999MA1999999090391ME1314859MW1021REMSYN088AAXX  10124 06753 31450 80000 10021 20010 39039 48485 5//// 70252 333 553// 20374 88715;
0096067530999992011011013004+46517+008683FM-12+101699999V0200601N000519999999N9999999N1+00301+00171999999ADDMA1999999090331ME1314819REMSYN060AAXX  10134 06753 43/// /0601 10030 20017 39033 48481 5////;
0096067530999992011011014004+46517+008683FM-12+101699999V0201101N000519999999N9999999N1+00241+00121999999ADDMA1999999090311ME1314789REMSYN060AAXX  10144 06753 43/// /1101 10024 20012 39031 48478 5////;
0148067530999992011011015004+46517+008683FM-12+101699999V0202801N000510036019N0050001N1+00241+00141999999ADDGA1081+003601071GF108991999999004501999999MA1999999090331ME1314809REMSYN070AAXX  10154 06753 42450 82801 10024 20014 39033 48480 5//// 333 88712;
0096067530999992011011016004+46517+008683FM-12+101699999V0209999C000019999999N9999999N1+00211+00131999999ADDMA1999999090331ME1314799REMSYN060AAXX  10164 06753 43/// /0000 10021 20013 39033 48479 5////;
0096067530999992011011017004+46517+008683FM-12+101699999V0209999C000019999999N9999999N1+00221+00131999999ADDMA1999999090321ME1314799REMSYN060AAXX  10174 06753 43/// /0000 10022 20013 39032 48479 5////;
0246067530999992011011018004+46517+008683FM-12+101699999V0209999C000010036019N0050001N1+00211+00131999999ADDAJ100109199999999AL10600091AY151061AY221061GA1081+003601051GF108991999999004501999999IA1239KA1120M+00321MA1999999090311ME1314789MW1511REMSYN100AAXX  10184 06753 41450 80000 10021 20013 39031 48478 5//// 75152 333 10032 47010 88512 90766 93100;
0096067530999992011011019004+46517+008683FM-12+101699999V0202701N000519999999N9999999N1+00161+00071999999ADDMA1999999090301ME1314769REMSYN060AAXX  10194 06753 43/// /2701 10016 20007 39030 48476 5////;
0096067530999992011011020004+46517+008683FM-12+101699999V0201001N001019999999N9999999N1+00131+00071999999ADDMA1999999090281ME1314749REMSYN060AAXX  10204 06753 43/// /1002 10013 20007 39028 48474 5////;
0176067530999992011011021004+46517+008683FM-12+101699999V0203401N000510036019N0100001N1+00171+00101999999ADDAY121031AY221031GA1081+003601051GF108991999999004501999999MA1999999090251ME1314729MW1511REMSYN076AAXX  10214 06753 41460 83401 10017 20010 39025 48472 5//// 75122 333 88512;
0096067530999992011011022004+46517+008683FM-12+101699999V0209999C000019999999N9999999N1+00171+00101999999ADDMA1999999090271ME1314739REMSYN060AAXX  10224 06753 43/// /0000 10017 20010 39027 48473 5////;
0096067530999992011011023004+46517+008683FM-12+101699999V0209999C000019999999N9999999N1+00181+00101999999ADDMA1999999090251ME1314729REMSYN060AAXX  10234 06753 43/// /0000 10018 20010 39025 48472 5////;
0176067530999992011011100004+46517+008683FM-12+101699999V0209999C000010036019N0100001N1+00151+00051999999ADDAY121061AY221061GA1081+003601051GF108991999999004501999999MA1999999090211ME1314689MW1531REMSYN076AAXX  11004 06753 41460 80000 10015 20005 39021 48468 5//// 75322 333 88512;
0096067530999992011011101004+46517+008683FM-12+101699999V0209999C000019999999N9999999N1+00101+00031999999ADDMA1999999090161ME1314629REMSYN060AAXX  11014 06753 43/// /0000 10010 20003 39016 48462 5////;
0096067530999992011011102004+46517+008683FM-12+101699999V0209999C000019999999N9999999N1+00121+00051999999ADDMA1999999090141ME1314619REMSYN060AAXX  11024 06753 43/// /0000 10012 20005 39014 48461 5////;
0176067530999992011011103004+46517+008683FM-12+101699999V0209999C000010036019N0100001N1+00151+00061999999ADDAY151031AY251031GA1081+003601051GF108991999999004501999999MA1999999090101ME1314589MW1531REMSYN076AAXX  11034 06753 41460 80000 10015 20006 39010 48458 5//// 75355 333 88512;
0096067530999992011011104004+46517+008683FM-12+101699999V0202601N000519999999N9999999N1+00121+00041999999ADDMA1999999090061ME1314549REMSYN060AAXX  11044 06753 43/// /2601 10012 20004 39006 48454 5////;
0096067530999992011011105004+46517+008683FM-12+101699999V0201001N000519999999N9999999N1+00071+00021999999ADDMA1999999090001ME1314489REMSYN060AAXX  11054 06753 43/// /1001 10007 20002 39000 48448 5////;
0241067530999992011011106004+46517+008683FM-12+101699999V0209999C000010045019N0100001N1+00091+00001999999ADDAJ100109199999999AL10600091AY151061AY221061GA1081+004501071GF108991999999004501999999GJ100009IA1239MA1999999089991ME1314479MW1021REMSYN100AAXX  11064 06753 41460 80000 10009 20000 38999 48447 5//// 70252 333 47010 55000 88715 90768 93100;
0149067530999992011011107004+46517+008683FM-12+101699999V0203201N000519999999N9999999N1+00061-00031999999ADDMA1999999089991MD1619999+9999ME1314479OA149900151REMSYN088AAXX  11074 06753 33/// /3201 10006 21003 38999 48447 56/// 333 55300 20000 91103 91202;
0112067530999992011011108004+46517+008683FM-12+101699999V0203201N000519999999N9999999N1+00121-00011999999ADDMA1999999089991ME1314489REMSYN076AAXX  11084 06753 33/// /3201 10012 21001 38999 48448 5//// 333 553// 20036;
0148067530999992011011109004+46517+008683FM-12+101699999V0200901N000512200019N0250001N1+00151+00001999999ADDGA1041+013501061GF104991999999012501999999MA1999999089991ME1314489REMSYN070AAXX  11094 06753 42675 40901 10015 20000 38999 48448 5//// 333 84645;
0149067530999992011011110004+46517+008683FM-12+101699999V0209999C000019999999N9999999N1+00151+00011999999ADDMA1999999089981MD1710011+9999ME1314479OA149900151REMSYN088AAXX  11104 06753 33/// /0000 10015 20001 38998 48447 57001 333 55300 20374 91103 91202;
0149067530999992011011111004+46517+008683FM-12+101699999V0201301N000519999999N9999999N1+00161+00031999999ADDMA1999999089911MD1710081+9999ME1314419OA149900151REMSYN088AAXX  11114 06753 33/// /1301 10016 20003 38991 48441 57008 333 55300 20526 91103 91201;
0144067530999992011011112004+46517+008683FM-12+101699999V0209999C000019999999N0200001N1+00271+00081999999ADDGF107991999999012501999999MA1999999089821ME1314359REMSYN082AAXX  11124 06753 32670 70000 10027 20008 38982 48435 5//// 333 553// 20608 87639;
0149067530999992011011113004+46517+008683FM-12+101699999V0202301N000519999999N9999999N1+00261+00041999999ADDMA1999999089741MD1710241+9999ME1314289OA149900151REMSYN088AAXX  11134 06753 33/// /2301 10026 20004 38974 48428 57024 333 55300 20468 91103 91201;
0096067530999992011011114004+46517+008683FM-12+101699999V0202201N000519999999N9999999N1+00241+00071999999ADDMA1999999089701ME1314249REMSYN060AAXX  11144 06753 43/// /2201 10024 20007 38970 48424 5////;
0148067530999992011011115004+46517+008683FM-12+101699999V0200901N001510105019N0150001N1+00311+00101999999ADDGA1081+010501071GF108991999999012501999999MA1999999089711ME1314269REMSYN070AAXX  11154 06753 42665 80903 10031 20010 38971 48426 5//// 333 88735;
0149067530999992011011116004+46517+008683FM-12+101699999V0209999C000019999999N9999999N1+00221+00121999999ADDMA1999999089751MD1310011+9999ME1314289OA149900211REMSYN088AAXX  11164 06753 33/// /0000 10022 20012 38975 48428 53001 333 55300 20065 91104 91203;
0149067530999992011011117004+46517+008683FM-12+101699999V0209999C000019999999N9999999N1+00231+00111999999ADDMA1999999089771MD1110061+9999ME1314309OA149900151REMSYN088AAXX  11174 06753 33/// /0000 10023 20011 38977 48430 51006 333 55300 20000 91103 91202;
0267067530999992011011118004+46517+008683FM-12+101699999V0209999C00001010501CN0150001N1+00121+00051999999ADDAJ100109199999999AL19900091GA1081+010501071GF108991999999012501999999IA1239KA1120M+00331MA1999999089801MD1110091+9999ME1314319OA149900211REMSYN118AAXX  11184 06753 32665 80000 10012 20005 38980 48431 51009 333 10033 47010 55300 20000 88735 90766 93100 91104 91203;
0149067530999992011011119004+46517+008683FM-12+101699999V0200501N000519999999N9999999N1+00141+00041999999ADDMA1999999089841MD1310091+9999ME1314359OA149900051REMSYN088AAXX  11194 06753 33/// /0501 10014 20004 38984 48435 53009 333 55300 20000 91101 91201;
0149067530999992011011120004+46517+008683FM-12+101699999V0200901N001019999999N9999999N1+00051-00041999999ADDMA1999999089871MD1110101+9999ME1314369OA149900151REMSYN088AAXX  11204 06753 33/// /0902 10005 21004 38987 48436 51010 333 55300 20000 91103 91202;
0197067530999992011011121004+46517+008683FM-12+101699999V0209999C00001010501CN0150001N1-00011-00091999999ADDGA1081+010501071GF108991999999012501999999MA1999999089901MD1310101+9999ME1314389OA149900151REMSYN094AAXX  11214 06753 32665 80000 11001 21009 38990 48438 53010 333 55300 20000 88735 91103 91202;
0149067530999992011011122004+46517+008683FM-12+101699999V0203001N001519999999N9999999N1+00181-00061999999ADDMA1999999089941MD1310101+9999ME1314449OA149900621REMSYN088AAXX  11224 06753 33/// /3003 10018 21006 38994 48444 53010 333 55300 20000 91112 91206;
0149067530999992011011123004+46517+008683FM-12+101699999V0202901N002619999999N9999999N1+00181-00081999999ADDMA1999999089991MD1310121+9999ME1314499OA149900621REMSYN088AAXX  11234 06753 33/// /2905 10018 21008 38999 48449 53012 333 55300 20000 91112 91206;
0197067530999992011011200004+46517+008683FM-12+101699999V0202801N003612200019N0300001N1+00211-00111999999ADDGA1041+013501061GF104991999999012501999999MA1999999090011MD1110111+9999ME1314519OA149900721REMSYN094AAXX  12004 06753 32680 42807 10021 21011 39001 48451 51011 333 55300 20000 84645 91114 91207;
0149067530999992011011201004+46517+008683FM-12+101699999V0202901N003119999999N9999999N1+00261-00171999999ADDMA1999999090061MD1110121+9999ME1314569OA149900721REMSYN088AAXX  12014 06753 33/// /2906 10026 21017 39006 48456 51012 333 55300 20000 91114 91209;
0112067530999992011011202004+46517+008683FM-12+101699999V0203101N001519999999N9999999N1+00241-00101999999ADDMA1999999090151ME1314649REMSYN076AAXX  12024 06753 33/// /3103 10024 21010 39015 48464 5//// 333 553// 20000;
0148067530999992011011203004+46517+008683FM-12+101699999V0203001N002112200019N0300001N1+00261-00181999999ADDGA1041+013501061GF104991999999012501999999MA1999999090201ME1314699REMSYN070AAXX  12034 06753 42680 43004 10026 21018 39020 48469 5//// 333 84645;
0096067530999992011011204004+46517+008683FM-12+101699999V0203001N002119999999N9999999N1+00271-00291999999ADDMA1999999090271ME1314759REMSYN060AAXX  12044 06753 43/// /3004 10027 21029 39027 48475 5////;
0112067530999992011011205004+46517+008683FM-12+101699999V0202601N002119999999N9999999N1+00111-00251999999ADDMA1999999090271ME1314729REMSYN076AAXX  12054 06753 33/// /2604 10011 21025 39027 48472 5//// 333 553// 20000;
0286067530999992011011206004+46517+008683FM-12+101699999V0209999C000012200019N0300001N1+00151-00241999999ADDAA124000091AJ100109199999999AL19900091GA1031+013501061GF103991999999012501999999GJ100009IA1239IA2999-00209KA1999N-00021MA1999999090331ME1314789REMSYN112AAXX  12064 06753 42680 30000 10015 21024 39033 48478 5//// 333 21002 3/102 47010 55000 70000 83645 90768 93100;EQDQ01  00002PRCP24
0149067530999992011011207004+46517+008683FM-12+101699999V0209999C000019999999N9999999N1+00031-00191999999ADDMA1999999090421MD1210151+9999ME1314849OA149900461REMSYN088AAXX  12074 06753 33/// /0000 10003 21019 39042 48484 52015 333 55300 20000 91109 91202;
0096067530999992011011208004+46517+008683FM-12+101699999V0209999C000019999999N9999999N1+00031-00251999999ADDMA1999999090471ME1314889REMSYN060AAXX  12084 06753 43/// /0000 10003 21025 39047 48488 5////;
0148067530999992011011209004+46517+008683FM-12+101699999V0201301N000512200019N0300001N1+00151-00211999999ADDGA1031+013501061GF103991999999012501999999MA1999999090441ME1314889REMSYN070AAXX  12094 06753 42680 31301 10015 21021 39044 48488 5//// 333 83645;
0149067530999992011011210004+46517+008683FM-12+101699999V0201101N000519999999N9999999N1+00241-00201999999ADDMA1999999090481MD1219999+9999ME1314939OA149900261REMSYN088AAXX  12104 06753 33/// /1101 10024 21020 39048 48493 52/// 333 55300 20432 91105 91201;
0149067530999992011011211004+46517+008683FM-12+101699999V0202501N001019999999N9999999N1+00511-00361999999ADDMA1999999090481MD1310011+9999ME1314989OA149900411REMSYN088AAXX  12114 06753 33/// /2502 10051 21036 39048 48498 53001 333 55300 20616 91108 91202;
0148067530999992011011212004+46517+008683FM-12+101699999V0201501N000512200019N0300001N1+00261-00191999999ADDGA1041+018001061GF104991999999017501999999MA1999999090451ME1314919REMSYN070AAXX  12124 06753 42780 41501 10026 21019 39045 48491 5//// 333 84656;
0096067530999992011011213004+46517+008683FM-12+101699999V0202701N000519999999N9999999N1+00351-00121999999ADDMA1999999090441ME1314929REMSYN060AAXX  12134 06753 43/// /2701 10035 21012 39044 48492 5////;
0096067530999992011011214004+46517+008683FM-12+101699999V0202801N005119999999N9999999N1+00701-00311999999ADDMA1999999090471ME1315019REMSYN060AAXX  12144 06753 43/// /2810 10070 21031 39047 48501 5////;
0148067530999992011011215004+46517+008683FM-12+101699999V0202901N002612200019N0300001N1+00721-00231999999ADDGA1041+012601061GF104991999999012501999999MA1999999090491ME1315039REMSYN070AAXX  12154 06753 42680 42905 10072 21023 39049 48503 5//// 333 84642;
0149067530999992011011216004+46517+008683FM-12+101699999V0202801N002619999999N9999999N1+00561-00081999999ADDMA1999999090531MD1310091+9999ME1315049OA149900771REMSYN088AAXX  12164 06753 33/// /2805 10056 21008 39053 48504 53009 333 55300 20101 91115 91210;
0155067530999992011011217004+46517+008683FM-12+101699999V0209999C000019999999N9999999N1+00351+00151999999ADDMA1999999090611MD1310141+9999ME1315079OA149900511REMSYN094AAXX  12174 06753 23/// /0000 10035 20015 39061 48507 53014 333 55300 20000 69935 91110 91205;
0290067530999992011011218004+46517+008683FM-12+101699999V0209999C000012200019N0300001N1+00321+00201999999ADDAA112000591AJ100109199999999AL19900091GA1041+012601061GF104991999999012501999999IA1239KA1120M+00761MA1999999090601MD1210111+9999ME1315059OA149900821REMSYN130AAXX  12184 06753 02680 40000 10032 20020 39060 48505 52011 69952 333 10076 47010 55300 20000 69925 84642 90766 93100 91116 91210;
0149067530999992011011219004+46517+008683FM-12+101699999V0209999C000019999999N9999999N1+00281+00161999999ADDMA1999999090631MD1210101+9999ME1315079OA149900151REMSYN088AAXX  12194 06753 33/// /0000 10028 20016 39063 48507 52010 333 55300 20000 91103 91201;
0149067530999992011011220004+46517+008683FM-12+101699999V0209999C000019999999N9999999N1+00211+00111999999ADDMA1999999090641MD1210031+9999ME1315079OA149900151REMSYN088AAXX  12204 06753 33/// /0000 10021 20011 39064 48507 52003 333 55300 20000 91103 91201;
0197067530999992011011221004+46517+008683FM-12+101699999V0209999C000012200019N0300001N1+00201+00101999999ADDGA1041+012601061GF104991999999012501999999MA1999999090621MD1010021+9999ME1315059OA149900511REMSYN094AAXX  12214 06753 32680 40000 10020 20010 39062 48505 50002 333 55300 20000 84642 91110 91205;
0149067530999992011011222004+46517+008683FM-12+101699999V0209999C000019999999N9999999N1+00201+00111999999ADDMA1999999090611MD1810021+9999ME1315049OA149900211REMSYN088AAXX  12224 06753 33/// /0000 10020 20011 39061 48504 58002 333 55300 20000 91104 91201;
0149067530999992011011223004+46517+008683FM-12+101699999V0200601N000519999999N9999999N1+00201+00101999999ADDMA1999999090591MD1710051+9999ME1315029OA149900211REMSYN088AAXX  12234 06753 33/// /0601 10020 20010 39059 48502 57005 333 55300 20000 91104 91201;
0197067530999992011011300004+46517+008683FM-12+101699999V0209999C000012200019N0300001N1+00161+00081999999ADDGA1041+012601061GF104991999999012501999999MA1999999090561MD1710061+9999ME1314999OA149900821REMSYN094AAXX  13004 06753 32680 40000 10016 20008 39056 48499 57006 333 55300 20000 84642 91116 91210;
0149067530999992011011301004+46517+008683FM-12+101699999V0203101N000519999999N9999999N1+00111+00011999999ADDMA1999999090511MD1710101+9999ME1314939OA149900101REMSYN088AAXX  13014 06753 33/// /3101 10011 20001 39051 48493 57010 333 55300 20000 91102 91201;
0155067530999992011011302004+46517+008683FM-12+101699999V0209999C000019999999N9999999N1+00161+00061999999ADDMA1999999090541MD1519999+9999ME1314979OA149900101REMSYN094AAXX  13024 06753 23/// /0000 10016 20006 39054 48497 55/// 333 55300 20000 69935 91102 91201;
0148067530999992011011303004+46517+008683FM-12+101699999V0203101N000512200019N0300001N1+00161+00051999999ADDGA1041+013501061GF104991999999012501999999MA1999999090501ME1314939REMSYN070AAXX  13034 06753 42680 43101 10016 20005 39050 48493 5//// 333 84645;
0155067530999992011011304004+46517+008683FM-12+101699999V0201001N002119999999N9999999N1+00281+00161999999ADDMA1999999090391MD1819999+9999ME1314869OA149900311REMSYN094AAXX  13044 06753 23/// /1004 10028 20016 39039 48486 58/// 333 55300 20000 69925 91106 91204;
0112067530999992011011305004+46517+008683FM-12+101699999V0202801N003619999999N9999999N1+00621+00291999999ADDMA1999999090361ME1314909REMSYN076AAXX  13054 06753 33/// /2807 10062 20029 39036 48490 5//// 333 553// 20000;
0366067530999992011011306004+46517+008683FM-12+101699999V0202801N00311008701CN0100001N1+00701+00271999999ADDAA112000891AJ100089199999999AL11200191AL29900091AY151061AY201061GA1081+008701051GF108991999999008001999999GJ100009IA1239IA2999-00109KA1999N+00111MA1999999090361MD1710141+9999ME1314919MW1501OA149900821REMSYN154AAXX  13064 06753 01560 82806 10070 20027 39036 48491 57014 69972 75050 333 20011 3/101 47008 55000 55300 20000 60005 70012 88529 90768 93100 91116 91208;
0096067530999992011011307004+46517+008683FM-12+101699999V0202701N004619999999N9999999N1+00691+00221999999ADDMA1999999090361ME1314919REMSYN060AAXX  13074 06753 43/// /2709 10069 20022 39036 48491 5////;
0096067530999992011011308004+46517+008683FM-12+101699999V0203501N000519999999N9999999N1+00661+00281999999ADDMA1999999090431ME1314979REMSYN060AAXX  13084 06753 43/// /3501 10066 20028 39043 48497 5////;
0148067530999992011011309004+46517+008683FM-12+101699999V0202801N004110180019N0300001N1+00551+00131999999ADDGA1051+018001061GF105991999999017501999999MA1999999090431ME1314959REMSYN070AAXX  13094 06753 42780 52808 10055 20013 39043 48495 5//// 333 85656;
0096067530999992011011310004+46517+008683FM-12+101699999V0202701N005119999999N9999999N1+01051+00121999999ADDMA1999999090471ME1315089REMSYN060AAXX  13104 06753 43/// /2710 10105 20012 39047 48508 5////;
0096067530999992011011311004+46517+008683FM-12+101699999V0203101N000519999999N9999999N1+00681+00161999999ADDMA1999999090431ME1314979REMSYN060AAXX  13114 06753 43/// /3101 10068 20016 39043 48497 5////;
0148067530999992011011312004+46517+008683FM-12+101699999V0202701N003112200019N0300001N1+00531+00081999999ADDGA1041+018001061GF104991999999017501999999MA1999999090321ME1314849REMSYN070AAXX  13124 06753 42780 42706 10053 20008 39032 48484 5//// 333 84656;
0096067530999992011011313004+46517+008683FM-12+101699999V0202701N005119999999N9999999N1+00621+00001999999ADDMA1999999090281ME1314829REMSYN060AAXX  13134 06753 43/// /2710 10062 20000 39028 48482 5////;
0096067530999992011011314004+46517+008683FM-12+101699999V0202801N002619999999N9999999N1+00731-00051999999ADDMA1999999090271ME1314849REMSYN060AAXX  13144 06753 43/// /2805 10073 21005 39027 48484 5////;
0148067530999992011011315004+46517+008683FM-12+101699999V0202701N004110240019N0200001N1+00891-00091999999ADDGA1051+024001061GF105991999999022501999999MA1999999090311ME1314909REMSYN070AAXX  13154 06753 42870 52708 10089 21009 39031 48490 5//// 333 85658;
0096067530999992011011316004+46517+008683FM-12+101699999V0203001N001519999999N9999999N1+00651+00001999999ADDMA1999999090411ME1314959REMSYN060AAXX  13164 06753 43/// /3003 10065 20000 39041 48495 5////;
0149067530999992011011317004+46517+008683FM-12+101699999V0202801N002619999999N9999999N1+00681+00021999999ADDMA1999999090451MD1210181+9999ME1314999OA149900621REMSYN088AAXX  13174 06753 33/// /2805 10068 20002 39045 48499 52018 333 55300 20000 91112 91207;
0267067530999992011011318004+46517+008683FM-12+101699999V0202801N004612200019N0300001N1+00521+00021999999ADDAJ100089199999999AL19900091GA1031+024001061GF103991999999022501999999IA1239KA1120M+01191MA1999999090461MD1110131+9999ME1314979OA149901131REMSYN118AAXX  13184 06753 32880 32809 10052 20002 39046 48497 51013 333 10119 47008 55300 20000 83658 90766 93100 91122 91212;
0149067530999992011011319004+46517+008683FM-12+101699999V0202801N003619999999N9999999N1+00501+00051999999ADDMA1999999090461MD1210051+9999ME1314969OA149900771REMSYN088AAXX  13194 06753 33/// /2807 10050 20005 39046 48496 52005 333 55300 20000 91115 91209;
0149067530999992011011320004+46517+008683FM-12+101699999V0202801N004619999999N9999999N1+00461+00041999999ADDMA1999999090501MD1210051+9999ME1314999OA149900721REMSYN088AAXX  13204 06753 33/// /2809 10046 20004 39050 48499 52005 333 55300 20000 91114 91209;
0197067530999992011011321004+46517+008683FM-12+101699999V0202801N002612200019N0300001N1+00491+00061999999ADDGA1031+024001061GF103991999999022501999999MA1999999090541MD1210081+9999ME1315039OA149900771REMSYN094AAXX  13214 06753 32880 32805 10049 20006 39054 48503 52008 333 55300 20000 83658 91115 91211;
0149067530999992011011322004+46517+008683FM-12+101699999V0202801N003119999999N9999999N1+00641+00101999999ADDMA1999999090561MD1210101+9999ME1315089OA149900721REMSYN088AAXX  13224 06753 33/// /2806 10064 20010 39056 48508 52010 333 55300 20000 91114 91211;
0149067530999992011011323004+46517+008683FM-12+101699999V0202901N001019999999N9999999N1+00581+00091999999ADDMA1999999090571MD1210071+9999ME1315089OA149900671REMSYN088AAXX  13234 06753 33/// /2902 10058 20009 39057 48508 52007 333 55300 20000 91113 91208;
0197067530999992011011400004+46517+008683FM-12+101699999V0202901N001012200019N0300001N1+00581+00071999999ADDGA1031+024001061GF103991999999022501999999MA1999999090541MD1010001+9999ME1315059OA149901131REMSYN094AAXX  14004 06753 32880 32902 10058 20007 39054 48505 50000 333 55300 20000 83658 91122 91211;
0149067530999992011011401004+46517+008683FM-12+101699999V0202801N005119999999N9999999N1+00551+00051999999ADDMA1999999090531MD1710031+9999ME1315049OA149900771REMSYN088AAXX  14014 06753 33/// /2810 10055 20005 39053 48504 57003 333 55300 20000 91115 91211;
0112067530999992011011402004+46517+008683FM-12+101699999V0202901N003619999999N9999999N1+00761+00081999999ADDMA1999999090571ME1315119REMSYN076AAXX  14024 06753 33/// /2907 10076 20008 39057 48511 5//// 333 553// 20000;
0197067530999992011011403004+46517+008683FM-12+101699999V0202901N004612200019N0300001N1+00811+00101999999ADDGA1031+024001061GF103991999999022501999999MA1999999090561MD1210021+9999ME1315119OA149900881REMSYN094AAXX  14034 06753 32880 32909 10081 20010 39056 48511 52002 333 55300 20000 83658 91117 91212;
0149067530999992011011404004+46517+008683FM-12+101699999V0202901N003619999999N9999999N1+00761+00041999999ADDMA1999999090541MD1010011+9999ME1315089OA149900881REMSYN088AAXX  14044 06753 33/// /2907 10076 20004 39054 48508 50001 333 55300 20000 91117 91210;
0149067530999992011011405004+46517+008683FM-12+101699999V0202901N003119999999N9999999N1+00791+00001999999ADDMA1999999090551MD1710021+9999ME1315109OA149900981REMSYN088AAXX  14054 06753 33/// /2906 10079 20000 39055 48510 57002 333 55300 20000 91119 91210;
0305067530999992011011406004+46517+008683FM-12+101699999V0202801N005112200019N0300001N1+00391-00041999999ADDAJ100089199999999AL19900091GA1031+024001061GF103991999999022501999999GJ100009IA1279IA2999+00209KA1999N+00441MA1999999090551MD1510011+9999ME1315029OA149900981REMSYN136AAXX  14064 06753 32880 32810 10039 21004 39055 48502 55001 333 20044 3/002 43008 55000 55300 20000 70000 83658 90768 93100 91119 91212;
0149067530999992011011407004+46517+008683FM-12+101699999V0202901N002619999999N9999999N1+00521-00051999999ADDMA1999999090591MD1210051+9999ME1315089OA149900821REMSYN088AAXX  14074 06753 33/// /2905 10052 21005 39059 48508 52005 333 55300 20000 91116 91212;
0096067530999992011011408004+46517+008683FM-12+101699999V0202801N002119999999N9999999N1+00491-00081999999ADDMA1999999090611ME1315099REMSYN060AAXX  14084 06753 43/// /2804 10049 21008 39061 48509 5////;
0154067530999992011011409004+46517+008683FM-12+101699999V0202701N001012200019N0300001N1+00461-00101999999ADDGA1031+024001061GF103991999999022501999999MA1999999090621ME1315109REMSYN076AAXX  14094 06753 42880 32702 10046 21010 39062 48510 5//// 333 83658 83658;
0096067530999992011011410004+46517+008683FM-12+101699999V0202901N001519999999N9999999N1+00541-00111999999ADDMA1999999090621ME1315119REMSYN060AAXX  14104 06753 43/// /2903 10054 21011 39062 48511 5////;
0149067530999992011011411004+46517+008683FM-12+101699999V0202201N000519999999N9999999N1+00481-00061999999ADDMA1999999090601MD1710011+9999ME1315089OA149900461REMSYN088AAXX  14114 06753 33/// /2201 10048 21006 39060 48508 57001 333 55300 20274 91109 91205;
0197067530999992011011412004+46517+008683FM-12+101699999V0202501N00051030001CN0300001N1+00371-00051999999ADDGA1051+030001041GF105991999999999999999999MA1999999090561MD1710061+9999ME1315039OA149900981REMSYN094AAXX  14124 06753 32980 52501 10037 21005 39056 48503 57006 333 55300 20443 85460 91119 91212;
0149067530999992011011413004+46517+008683FM-12+101699999V0202401N000519999999N9999999N1+00351-00041999999ADDMA1999999090531MD1810091+9999ME1315009OA149900261REMSYN088AAXX  14134 06753 33/// /2401 10035 21004 39053 48500 58009 333 55300 20392 91105 91203;
0112067530999992011011414004+46517+008683FM-12+101699999V0202701N001019999999N9999999N1+00261-00121999999ADDMA1999999090511ME1314969REMSYN076AAXX  14144 06753 33/// /2702 10026 21012 39051 48496 5//// 333 553// 20256;
0197067530999992011011415004+46517+008683FM-12+101699999V0202901N00101030001CN0300001N1+00451-00101999999ADDGA1051+030001041GF105991999999999999999999MA1999999090531MD1510031+9999ME1315029OA149900461REMSYN094AAXX  14154 06753 32980 52902 10045 21010 39053 48502 55003 333 55300 20176 85460 91109 91205;
0149067530999992011011416004+46517+008683FM-12+101699999V0203201N000519999999N9999999N1+00221-00121999999ADDMA1999999090541MD1210011+9999ME1314989OA149900261REMSYN088AAXX  14164 06753 33/// /3201 10022 21012 39054 48498 52001 333 55300 20086 91105 91202;
0149067530999992011011417004+46517+008683FM-12+101699999V0209999C000019999999N9999999N1+00371-00101999999ADDMA1999999090571MD1210061+9999ME1315049OA149900261REMSYN088AAXX  14174 06753 33/// /0000 10037 21010 39057 48504 52006 333 55300 20000 91105 91202;
0267067530999992011011418004+46517+008683FM-12+101699999V0203401N00051030001CN0300001N1+00361-00171999999ADDAJ100059199999999AL19900091GA1051+030001041GF105991999999999999999999IA1309KA1120M+00551MA1999999090581MD1210051+9999ME1315049OA149900821REMSYN118AAXX  14184 06753 32980 53401 10036 21017 39058 48504 52005 333 10055 42005 55300 20000 85460 90766 93100 91116 91212;
0149067530999992011011419004+46517+008683FM-12+101699999V0202901N000519999999N9999999N1+00251-00191999999ADDMA1999999090561MD1010021+9999ME1315009OA149900361REMSYN088AAXX  14194 06753 33/// /2901 10025 21019 39056 48500 50002 333 55300 20000 91107 91202;
0149067530999992011011420004+46517+008683FM-12+101699999V0209999C000019999999N9999999N1+00111-00201999999ADDMA1999999090541MD1710031+9999ME1314969OA149900151REMSYN088AAXX  14204 06753 33/// /0000 10011 21020 39054 48496 57003 333 55300 20000 91103 91201;
0197067530999992011011421004+46517+008683FM-12+101699999V0201101N00051030001CN0300001N1+00101-00201999999ADDGA1051+030001041GF105991999999999999999999MA1999999090511MD1710071+9999ME1314939OA149900361REMSYN094AAXX  14214 06753 32980 51101 10010 21020 39051 48493 57007 333 55300 20000 85460 91107 91202;
0149067530999992011011422004+46517+008683FM-12+101699999V0202601N000519999999N9999999N1+00131-00221999999ADDMA1999999090521MD1710041+9999ME1314959OA149900151REMSYN088AAXX  14224 06753 33/// /2601 10013 21022 39052 48495 57004 333 55300 20000 91103 91201;
0149067530999992011011423004+46517+008683FM-12+101699999V0201801N000519999999N9999999N1+00051-00251999999ADDMA1999999090501MD1710041+9999ME1314919OA149900211REMSYN088AAXX  14234 06753 33/// /1801 10005 21025 39050 48491 57004 333 55300 20000 91104 91202;
0197067530999992011011500004+46517+008683FM-12+101699999V0209999C00001024001CN0300001N1+00041-00221999999ADDGA1051+024001041GF105991999999022501999999MA1999999090481MD1710031+9999ME1314899OA149900361REMSYN094AAXX  15004 06753 32880 50000 10004 21022 39048 48489 57003 333 55300 20000 85458 91107 91203;
0168067530999992011011501004+46517+008683FM-12+101699999V0202701N004119999999N9999999N1+00421-00261999999ADDMA1999999090521MD1410001+9999ME1315009OA149900981REMSYN088AAXX  15014 06753 33/// /2708 10042 21026 39052 48500 53000 333 55300 20000 91119 91208;EQDQ01+000032APCTEN
0149067530999992011011502004+46517+008683FM-12+101699999V0202801N004619999999N9999999N1+00701-00321999999ADDMA1999999090571MD1319999+9999ME1315109OA149900981REMSYN088AAXX  15024 06753 33/// /2809 10070 21032 39057 48510 53/// 333 55300 20000 91119 91212;
0144067530999992011011503004+46517+008683FM-12+101699999V0202801N003112200019N0300001N1+00581-00161999999ADDGF102991999999999999999999MA1999999090671ME1315179REMSYN082AAXX  15034 06753 32980 22806 10058 21016 39067 48517 5//// 333 553// 20000 82660;
0149067530999992011011504004+46517+008683FM-12+101699999V0202801N004619999999N9999999N1+00381-00101999999ADDMA1999999090721MD1210201+9999ME1315179OA149900721REMSYN088AAXX  15044 06753 33/// /2809 10038 21010 39072 48517 52020 333 55300 20000 91114 91209;
0149067530999992011011505004+46517+008683FM-12+101699999V0202801N004619999999N9999999N1+00531-00131999999ADDMA1999999090801MD1210231+9999ME1315279OA149900821REMSYN088AAXX  15054 06753 33/// /2809 10053 21013 39080 48527 52023 333 55300 20000 91116 91212;
0216067530999992011011506004+46517+008683FM-12+101699999V0202601N008219999999N9999999N1+00571-00201999999ADDAL19900091GJ100009IA2999-00509KA1999N-00111MA1999999090811MD1210141+9999ME1315299OA149901391REMSYN112AAXX  15064 06753 33/// /2616 10057 21020 39081 48529 52014 333 21011 3/105 55000 55300 20000 70000 91127 91220;
0149067530999992011011507004+46517+008683FM-12+101699999V0203101N002619999999N9999999N1+00651-00311999999ADDMA1999999090901MD1210181+9999ME1315389OA149901391REMSYN088AAXX  15074 06753 33/// /3105 10065 21031 39090 48538 52018 333 55300 20000 91127 91220;
0149067530999992011011508004+46517+008683FM-12+101699999V0203001N005119999999N9999999N1+00731-00361999999ADDMA1999999090931MD1219999+9999ME1315439OA149901241REMSYN088AAXX  15084 06753 33/// /3010 10073 21036 39093 48543 52/// 333 55300 20036 91124 91211;
0191067530999992011011509004+46517+008683FM-12+101699999V0202901N007212200019N0300001N1+00711-00351999999ADDGA1001+999999999GF100991001001999999001001MA1999999090971MD1210161+9999ME1315469OA149901391REMSYN088AAXX  15094 06753 32/80 02914 10071 21035 39097 48546 52016 333 55300 20094 91127 91220;
0149067530999992011011510004+46517+008683FM-12+101699999V0202801N004619999999N9999999N1+00681-00431999999ADDMA1999999090951MD1010051+9999ME1315449OA149901291REMSYN088AAXX  15104 06753 33/// /2809 10068 21043 39095 48544 50005 333 55300 20119 91125 91214;
0168067530999992011011511004+46517+008683FM-12+101699999V0200801N000519999999N9999999N1+00621-00511999999ADDMA1999999090931MD1410001+9999ME1315419OA149901291REMSYN088AAXX  15114 06753 33/// /0801 10062 21051 39093 48541 58000 333 55300 20155 91125 91213;EQDQ01+000082APCTEN
0191067530999992011011512004+46517+008683FM-12+101699999V0209999C000012200019N0300001N1+00531-00471999999ADDGA1001+999999999GF100991001001999999001001MA1999999090911MD1710061+9999ME1315379OA149901391REMSYN088AAXX  15124 06753 32/80 00000 10053 21047 39091 48537 57006 333 55300 20248 91127 91220;
0112067530999992011011513004+46517+008683FM-12+101699999V0203001N000519999999N9999999N1+00331-00391999999ADDMA1999999090891ME1315319REMSYN076AAXX  15134 06753 33/// /3001 10033 21039 39089 48531 5//// 333 553// 20158;
0096067530999992011011514004+46517+008683FM-12+101699999V0200801N000519999999N9999999N1+00321-00331999999ADDMA1999999090931ME1315349REMSYN060AAXX  15144 06753 43/// /0801 10032 21033 39093 48534 5////;
0148067530999992011011515004+46517+008683FM-12+101699999V0202701N000512200019N0300001N1+00411-00351999999ADDGA1021+024001061GF102991999999022501999999MA1999999091011ME1315439REMSYN070AAXX  15154 06753 42880 22701 10041 21035 39101 48543 5//// 333 82658;
0096067530999992011011516004+46517+008683FM-12+101699999V0203101N000519999999N9999999N1+00251-00271999999ADDMA1999999091101ME1315489REMSYN060AAXX  15164 06753 43/// /3101 10025 21027 39110 48548 5////;
0112067530999992011011517004+46517+008683FM-12+101699999V0203001N001519999999N9999999N1+00211-00411999999ADDMA1999999091181ME1315549REMSYN076AAXX  15174 06753 33/// /3003 10021 21041 39118 48554 5//// 333 553// 20000;
0218067530999992011011518004+46517+008683FM-12+101699999V0203201N000512200019N0300001N1+00351-00431999999ADDAJ100059199999999AL10600091GA1021+024001061GF102991999999022501999999IA1309KA1120M+00791MA1999999091241ME1315629REMSYN094AAXX  15184 06753 42880 23201 10035 21043 39124 48562 5//// 333 10079 42005 82658 90766 93100;
0096067530999992011011519004+46517+008683FM-12+101699999V0200801N000519999999N9999999N1+00041-00401999999ADDMA1999999091261ME1315579REMSYN060AAXX  15194 06753 43/// /0801 10004 21040 39126 48557 5////;
0096067530999992011011520004+46517+008683FM-12+101699999V0202601N000519999999N9999999N1+00171-00451999999ADDMA1999999091291ME1315639REMSYN060AAXX  15204 06753 43/// /2601 10017 21045 39129 48563 5////;
0197067530999992011011521004+46517+008683FM-12+101699999V0200801N000512200019N0300001N1+00071-00361999999ADDGA1021+024001061GF102991999999022501999999MA1999999091291MD1210051+9999ME1315619OA149900311REMSYN094AAXX  15214 06753 32880 20801 10007 21036 39129 48561 52005 333 55300 20000 82658 91106 91203;
0149067530999992011011522004+46517+008683FM-12+101699999V0202501N000519999999N9999999N1+00091-00401999999ADDMA1999999091311MD1210051+9999ME1315639OA149900151REMSYN088AAXX  15224 06753 33/// /2501 10009 21040 39131 48563 52005 333 55300 20000 91103 91201;
0149067530999992011011523004+46517+008683FM-12+101699999V0202901N000519999999N9999999N1+00131-00351999999ADDMA1999999091331MD1210041+9999ME1315659OA149900151REMSYN088AAXX  15234 06753 33/// /2901 10013 21035 39133 48565 52004 333 55300 20000 91103 91202;
0197067530999992011011600004+46517+008683FM-12+101699999V0209999C000012200019N0300001N1-00101-00411999999ADDGA1021+024001061GF102991999999022501999999MA1999999091321MD1010031+9999ME1315609OA149900311REMSYN094AAXX  16004 06753 32880 20000 11010 21041 39132 48560 50003 333 55300 20000 82658 91106 91203;
0149067530999992011011601004+46517+008683FM-12+101699999V0200701N000519999999N9999999N1-00081-00361999999ADDMA1999999091311MD1010001+9999ME1315599OA149900211REMSYN088AAXX  16014 06753 33/// /0701 11008 21036 39131 48559 50000 333 55300 20000 91104 91201;
0149067530999992011011602004+46517+008683FM-12+101699999V0209999C000019999999N9999999N1-00061-00361999999ADDMA1999999091321MD1719999+9999ME1315609OA149900151REMSYN088AAXX  16024 06753 33/// /0000 11006 21036 39132 48560 57/// 333 55300 20000 91103 91201;
0096067530999992011011603004+46517+008683FM-12+101699999V0209999C000019999999N9999999N1+00021-00291999999ADDMA1999999091321ME1315629REMSYN060AAXX  16034 06753 43/// /0000 10002 21029 39132 48562 5////;
0149067530999992011011604004+46517+008683FM-12+101699999V0203101N000519999999N9999999N1+00001-00271999999ADDMA1999999091351MD1210041+9999ME1315649OA149900211REMSYN088AAXX  16044 06753 33/// /3101 10000 21027 39135 48564 52004 333 55300 20000 91104 91201;
0149067530999992011011605004+46517+008683FM-12+101699999V0209999C000019999999N9999999N1-00101-00321999999ADDMA1999999091401MD1210081+9999ME1315669OA149900101REMSYN088AAXX  16054 06753 33/// /0000 11010 21032 39140 48566 52008 333 55300 20000 91102 91201;
0299067530999992011011606004+46517+008683FM-12+101699999V0209999C000012200019N0300001N1-00031-00311999999ADDAJ100059199999999AL19900091GA1001+999999999GF100991001001999999001001GJ100009IA1279IA2999-00509KA1999N-00231MA1999999091451MD1310131+9999ME1315729OA149900311REMSYN130AAXX  16064 06753 32/80 00000 11003 21031 39145 48572 53013 333 21023 3/105 43005 55000 55300 20000 70000 90768 93100 91106 91202;
0149067530999992011011607004+46517+008683FM-12+101699999V0200401N000519999999N9999999N1-00041-00271999999ADDMA1999999091441MD1210091+9999ME1315719OA149900151REMSYN088AAXX  16074 06753 33/// /0401 11004 21027 39144 48571 52009 333 55300 20000 91103 91201;
0149067530999992011011608004+46517+008683FM-12+101699999V0209999C000019999999N9999999N1-00071-00301999999ADDMA1999999091451MD1219999+9999ME1315719OA149900151REMSYN088AAXX  16084 06753 33/// /0000 11007 21030 39145 48571 52/// 333 55300 20040 91103 91201;
0191067530999992011011609004+46517+008683FM-12+101699999V0201301N000512200019N0300001N1+00021-00311999999ADDGA1001+999999999GF100991001001999999001001MA1999999091471MD1210021+9999ME1315759OA149900151REMSYN088AAXX  16094 06753 32/80 01301 10002 21031 39147 48575 52002 333 55300 20097 91103 91201;
0149067530999992011011610004+46517+008683FM-12+101699999V0209999C000019999999N9999999N1+00101-00251999999ADDMA1999999091461MD1210021+9999ME1315769OA149900151REMSYN088AAXX  16104 06753 33/// /0000 10010 21025 39146 48576 52002 333 55300 20126 91103 91202;
0149067530999992011011611004+46517+008683FM-12+101699999V0209999C000019999999N9999999N1+00011-00271999999ADDMA1999999091451MD1010001+9999ME1315739OA149900151REMSYN088AAXX  16114 06753 33/// /0000 10001 21027 39145 48573 50000 333 55300 20133 91103 91202;
0191067530999992011011612004+46517+008683FM-12+101699999V0201201N001012200019N0300001N1+00121-00201999999ADDGA1001+999999999GF100991001001999999001001MA1999999091411MD1710061+9999ME1315729OA149900211REMSYN088AAXX  16124 06753 32/80 01202 10012 21020 39141 48572 57006 333 55300 20155 91104 91202;
0149067530999992011011613004+46517+008683FM-12+101699999V0202601N001019999999N9999999N1+00091-00221999999ADDMA1999999091391MD1710071+9999ME1315709OA149900211REMSYN088AAXX  16134 06753 33/// /2602 10009 21022 39139 48570 57007 333 55300 20144 91104 91203;
0149067530999992011011614004+46517+008683FM-12+101699999V0202601N001019999999N9999999N1-00071-00271999999ADDMA1999999091401MD1719999+9999ME1315679OA149900211REMSYN088AAXX  16144 06753 33/// /2602 11007 21027 39140 48567 57/// 333 55300 20119 91104 91203;
0191067530999992011011615004+46517+008683FM-12+101699999V0202801N000512200019N0300001N1+00101-00201999999ADDGA1001+999999999GF100991001001999999001001MA1999999091411MD1510001+9999ME1315729OA149900211REMSYN088AAXX  16154 06753 32/80 02801 10010 21020 39141 48572 55000 333 55300 20086 91104 91203;
0149067530999992011011616004+46517+008683FM-12+101699999V0202901N000519999999N9999999N1+00111-00191999999ADDMA1999999091431MD1110041+9999ME1315749OA149900151REMSYN088AAXX  16164 06753 33/// /2901 10011 21019 39143 48574 51004 333 55300 20040 91103 91201;
0149067530999992011011617004+46517+008683FM-12+101699999V0209999C000019999999N9999999N1+00061-00231999999ADDMA1999999091471MD1310071+9999ME1315769OA149900151REMSYN088AAXX  16174 06753 33/// /0000 10006 21023 39147 48576 53007 333 55300 20000 91103 91201;
0261067530999992011011618004+46517+008683FM-12+101699999V0209999C000012200019N0250001N1+00061-00161999999ADDAJ100049199999999AL19900091GA1001+999999999GF100991001001999999001001IA1309KA1120M+00311MA1999999091501MD1110091+9999ME1315799OA149900211REMSYN112AAXX  16184 06753 32/75 00000 10006 21016 39150 48579 51009 333 10031 42004 55300 20000 90766 93100 91104 91203;
0149067530999992011011619004+46517+008683FM-12+101699999V0209999C000019999999N9999999N1+00031-00221999999ADDMA1999999091531MD1310101+9999ME1315819OA149900151REMSYN088AAXX  16194 06753 33/// /0000 10003 21022 39153 48581 53010 333 55300 20000 91103 91201;
0149067530999992011011620004+46517+008683FM-12+101699999V0209999C000019999999N9999999N1-00171-00311999999ADDMA1999999091531MD1210061+9999ME1315769OA149900151REMSYN088AAXX  16204 06753 33/// /0000 11017 21031 39153 48576 52006 333 55300 20000 91103 91201;
0191067530999992011011621004+46517+008683FM-12+101699999V0209999C000012200019N0300001N1-00011-00221999999ADDGA1001+999999999GF100991001001999999001001MA1999999091531MD1010031+9999ME1315809OA149900151REMSYN088AAXX  16214 06753 32/80 00000 11001 21022 39153 48580 50003 333 55300 20000 91103 91201;
0149067530999992011011622004+46517+008683FM-12+101699999V0200501N000519999999N9999999N1-00041-00271999999ADDMA1999999091511MD1810021+9999ME1315779OA149900101REMSYN088AAXX  16224 06753 33/// /0501 11004 21027 39151 48577 58002 333 55300 20000 91102 91201;
0149067530999992011011623004+46517+008683FM-12+101699999V0209999C000019999999N9999999N1-00091-00291999999ADDMA1999999091501MD1710031+9999ME1315759OA149900101REMSYN088AAXX  16234 06753 33/// /0000 11009 21029 39150 48575 57003 333 55300 20000 91102 91201;
0191067530999992011011700004+46517+008683FM-12+101699999V0200901N000512200019N0300001N1-00111-00341999999ADDGA1001+999999999GF100991001001999999001001MA1999999091471MD1810061+9999ME1315729OA149900211REMSYN088AAXX  17004 06753 32/80 00901 11011 21034 39147 48572 58006 333 55300 20000 91104 91203;
