0159067620999992011010100004+46167+008883FM-12+0198LSZL V0201201N000519999999N9999999N1-00451-00531102451ADDMA1999999099831MD1810011+9999OA149900151REMSYN088AAXX  01004 06762 33/// /1201 11045 21053 39983 40245 58000 333 55300 20000 91103 91202;EQDQ01+000002APC3  
0140067620999992011010101004+46167+008883FM-12+0198LSZL V0209999C000019999999N9999999N1-00491-00561102421ADDMA1999999099801MD1810041+9999OA149900151REMSYN088AAXX  01014 06762 33/// /0000 11049 21056 39980 40242 58004 333 55300 20000 91103 91202;
0140067620999992011010102004+46167+008883FM-12+0198LSZL V0209999C000019999999N9999999N1-00481-00561102441ADDMA1999999099821MD1510041+9999OA149900101REMSYN088AAXX  01024 06762 33/// /0000 11048 21056 39982 40244 55004 333 55300 20000 91102 91202;
0140067620999992011010103004+46167+008883FM-12+0198LSZL V0200901N001019999999N9999999N1-00491-00571102431ADDMA1999999099811MD1710021+9999OA149900151REMSYN088AAXX  01034 06762 33/// /0902 11049 21057 39981 40243 57002 333 55300 20000 91103 91202;
0140067620999992011010104004+46167+008883FM-12+0198LSZL V0201101N000519999999N9999999N1-00521-00611102411ADDMA1999999099781MD1810021+9999OA149900151REMSYN088AAXX  01044 06762 33/// /1101 11052 21061 39978 40241 58002 333 55300 20000 91103 91202;
0140067620999992011010105004+46167+008883FM-12+0198LSZL V0201101N001519999999N9999999N1-00511-00621102371ADDMA1999999099751MD1810071+9999OA149900151REMSYN088AAXX  01054 06762 33/// /1103 11051 21062 39975 40237 58007 333 55300 20000 91103 91203;
0207067620999992011010106004+46167+008883FM-12+0198LSZL V0200901N000519999999N9999999N1-00471-00571102341ADDAL19900091GJ102769IA2999-00909KA1999N-00621MA1999999099721MD1610091+9999OA149900151REMSYN112AAXX  01064 06762 33/// /0901 11047 21057 39972 40234 56009 333 21062 3/109 55046 55300 20000 70000 91103 91203;
0140067620999992011010107004+46167+008883FM-12+0198LSZL V0200601N000519999999N9999999N1-00561-00631102351ADDMA1999999099721MD1710061+9999OA149900151REMSYN088AAXX  01074 06762 33/// /0601 11056 21063 39972 40235 57006 333 55300 20000 91103 91203;
0140067620999992011010108004+46167+008883FM-12+0198LSZL V0200901N001019999999N9999999N1-00541-00631102331ADDMA1999999099701MD1719999+9999OA149900151REMSYN088AAXX  01084 06762 33/// /0902 11054 21063 39970 40233 57/// 333 55300 20032 91103 91202;
0087067620999992011010109004+46167+008883FM-12+0198LSZL V0209999C000019999999N9999999N1-00481-00601102291ADDMA1999999099671REMSYN060AAXX  01094 06762 43/// /0000 11048 21060 39967 40229 5////;
0087067620999992011010110004+46167+008883FM-12+0198LSZL V0201101N000519999999N9999999N1-00171-00351102201ADDMA1999999099611REMSYN060AAXX  01104 06762 43/// /1101 11017 21035 39961 40220 5////;
0140067620999992011010111004+46167+008883FM-12+0198LSZL V0201401N000519999999N9999999N1+00081-00241102091ADDMA1999999099531MD1810171+9999OA149900151REMSYN088AAXX  01114 06762 33/// /1401 10008 21024 39953 40209 58017 333 553// 2//// 91103 91202;
0087067620999992011010112004+46167+008883FM-12+0198LSZL V0209999C000019999999N9999999N1+00231-00321101991ADDMA1999999099451REMSYN060AAXX  01124 06762 43/// /0000 10023 21032 39945 40199 5////;
0087067620999992011010113004+46167+008883FM-12+0198LSZL V0201201N001019999999N9999999N1+00311-00361101881ADDMA1999999099351REMSYN060AAXX  01134 06762 43/// /1202 10031 21036 39935 40188 5////;
0087067620999992011010114004+46167+008883FM-12+0198LSZL V0202101N001019999999N9999999N1+00111-00271101841ADDMA1999999099291REMSYN060AAXX  01144 06762 43/// /2102 10011 21027 39929 40184 5////;
0087067620999992011010115004+46167+008883FM-12+0198LSZL V0209999C000019999999N9999999N1+00031-00281101841ADDMA1999999099281REMSYN060AAXX  01154 06762 43/// /0000 10003 21028 39928 40184 5////;
0087067620999992011010116004+46167+008883FM-12+0198LSZL V0201201N000519999999N9999999N1-00121-00351101851ADDMA1999999099281REMSYN060AAXX  01164 06762 43/// /1201 11012 21035 39928 40185 5////;
0087067620999992011010117004+46167+008883FM-12+0198LSZL V0209999C000019999999N9999999N1-00281-00361101851ADDMA1999999099261REMSYN060AAXX  01174 06762 43/// /0000 11028 21036 39926 40185 5////;
0087067620999992011010118004+46167+008883FM-12+0198LSZL V0200701N001019999999N9999999N1-00241-00371101821ADDMA1999999099241REMSYN060AAXX  01184 06762 43/// /0702 11024 21037 39924 40182 5////;
0103067620999992011010119004+46167+008883FM-12+0198LSZL V0201101N000519999999N9999999N1-00281-00391101831ADDMA1999999099241REMSYN076AAXX  01194 06762 33/// /1101 11028 21039 39924 40183 5//// 333 553// 20000;
0140067620999992011010120004+46167+008883FM-12+0198LSZL V0209999C000019999999N9999999N1-00361-00451101831ADDMA1999999099231MD1710031+9999OA149900151REMSYN088AAXX  01204 06762 33/// /0000 11036 21045 39923 40183 57003 333 55300 20000 91103 91203;
0140067620999992011010121004+46167+008883FM-12+0198LSZL V0200801N000519999999N9999999N1-00411-00481101821ADDMA1999999099221MD1710021+9999OA149900151REMSYN088AAXX  01214 06762 33/// /0801 11041 21048 39922 40182 57002 333 55300 20000 91103 91203;
0140067620999992011010122004+46167+008883FM-12+0198LSZL V0201001N000519999999N9999999N1-00351-00461101801ADDMA1999999099211MD1810031+9999OA149900151REMSYN088AAXX  01224 06762 33/// /1001 11035 21046 39921 40180 58003 333 55300 20000 91103 91202;
0140067620999992011010123004+46167+008883FM-12+0198LSZL V0201101N000519999999N9999999N1-00431-00531101751ADDMA1999999099151MD1810081+9999OA149900151REMSYN088AAXX  01234 06762 33/// /1101 11043 21053 39915 40175 58008 333 55300 20000 91103 91202;
0140067620999992011010200004+46167+008883FM-12+0198LSZL V0209999C000019999999N9999999N1-00421-00511101701ADDMA1999999099101MD1810121+9999OA149900151REMSYN088AAXX  02004 06762 33/// /0000 11042 21051 39910 40170 58012 333 55300 20000 91103 91203;
0140067620999992011010201004+46167+008883FM-12+0198LSZL V0209999C000019999999N9999999N1-00561-00641101681ADDMA1999999099071MD1610141+9999OA149900151REMSYN088AAXX  02014 06762 33/// /0000 11056 21064 39907 40168 56014 333 55300 20000 91103 91202;
0087067620999992011010202004+46167+008883FM-12+0198LSZL V0200501N000519999999N9999999N1-00551-00651101691ADDMA1999999099081REMSYN060AAXX  02024 06762 43/// /0501 11055 21065 39908 40169 5////;
0087067620999992011010203004+46167+008883FM-12+0198LSZL V0200801N000519999999N9999999N1-00521-00631101661ADDMA1999999099051REMSYN060AAXX  02034 06762 43/// /0801 11052 21063 39905 40166 5////;
0087067620999992011010204004+46167+008883FM-12+0198LSZL V0200601N000519999999N9999999N1-00561-00651101611ADDMA1999999099001REMSYN060AAXX  02044 06762 43/// /0601 11056 21065 39900 40161 5////;
0087067620999992011010205004+46167+008883FM-12+0198LSZL V0200801N000519999999N9999999N1-00581-00681101581ADDMA1999999098971REMSYN060AAXX  02054 06762 43/// /0801 11058 21068 39897 40158 5////;
0134067620999992011010206004+46167+008883FM-12+0198LSZL V0209999C000019999999N9999999N1-00601-00671101591ADDIA2999-00909KA1999N-00631MA1999999098981REMSYN082AAXX  02064 06762 43/// /0000 11060 21067 39898 40159 5//// 333 21063 3/109 55047;
0159067620999992011010207004+46167+008883FM-12+0198LSZL V0209999C000019999999N9999999N1-00641-00721101621ADDMA1999999099001MD1310011+9999OA149900151REMSYN088AAXX  02074 06762 33/// /0000 11064 21072 39900 40162 53000 333 55300 20000 91103 91202;EQDQ01+000002APC3  
0140067620999992011010208004+46167+008883FM-12+0198LSZL V0200701N001019999999N9999999N1-00581-00681101651ADDMA1999999099041MD1210071+9999OA149900151REMSYN088AAXX  02084 06762 33/// /0702 11058 21068 39904 40165 52007 333 55300 20032 91103 91202;
0140067620999992011010209004+46167+008883FM-12+0198LSZL V0201101N000519999999N9999999N1-00531-00651101691ADDMA1999999099081MD1310101+9999OA149900151REMSYN088AAXX  02094 06762 33/// /1101 11053 21065 39908 40169 53010 333 55300 20104 91103 91202;
0140067620999992011010210004+46167+008883FM-12+0198LSZL V0209999C000019999999N9999999N1-00201-00341101681ADDMA1999999099101MD1110101+9999OA149900151REMSYN088AAXX  02104 06762 33/// /0000 11020 21034 39910 40168 51010 333 55308 20767 91103 91202;
0140067620999992011010211004+46167+008883FM-12+0198LSZL V0201701N000519999999N9999999N1+00081-00221101591ADDMA1999999099041MD1010001+9999OA149900151REMSYN088AAXX  02114 06762 33/// /1701 10008 21022 39904 40159 50000 333 553// 2//// 91103 91201;
0140067620999992011010212004+46167+008883FM-12+0198LSZL V0201701N000519999999N9999999N1+00201-00281101511ADDMA1999999098981MD1710101+9999OA149900151REMSYN088AAXX  02124 06762 33/// /1701 10020 21028 39898 40151 57010 333 553// 2//// 91103 91202;
0140067620999992011010213004+46167+008883FM-12+0198LSZL V0201401N000519999999N9999999N1+00291-00241101471ADDMA1999999098941MD1610161+9999OA149900151REMSYN088AAXX  02134 06762 33/// /1401 10029 21024 39894 40147 56016 333 553// 2//// 91103 91202;
0103067620999992011010214004+46167+008883FM-12+0198LSZL V0202101N000519999999N9999999N1+00231-00251101481ADDMA1999999098951REMSYN076AAXX  02144 06762 33/// /2101 10023 21025 39895 40148 5//// 333 553// 20749;
0140067620999992011010215004+46167+008883FM-12+0198LSZL V0201001N000519999999N9999999N1+00111-00261101551ADDMA1999999099011MD1310031+9999OA149900151REMSYN088AAXX  02154 06762 33/// /1001 10011 21026 39901 40155 53003 333 55300 20140 91103 91202;
0140067620999992011010216004+46167+008883FM-12+0198LSZL V0201001N001519999999N9999999N1+00031-00231101631ADDMA1999999099081MD1210141+9999OA149900151REMSYN088AAXX  02164 06762 33/// /1003 10003 21023 39908 40163 52014 333 55300 20032 91103 91203;
0140067620999992011010217004+46167+008883FM-12+0198LSZL V0200901N000519999999N9999999N1-00101-00251101721ADDMA1999999099151MD1310201+9999OA149900211REMSYN088AAXX  02174 06762 33/// /0901 11010 21025 39915 40172 53020 333 55300 20000 91104 91203;
0159067620999992011010218004+46167+008883FM-12+0198LSZL V0200901N001019999999N9999999N1-00231-00301101811ADDKA1120M+00321MA1999999099231MD1310221+9999OA149900211REMSYN094AAXX  02184 06762 33/// /0902 11023 21030 39923 40181 53022 333 10032 55300 20000 91104 91203;
0140067620999992011010219004+46167+008883FM-12+0198LSZL V0209999C000019999999N9999999N1-00131-00291101891ADDMA1999999099311MD1210231+9999OA149900151REMSYN088AAXX  02194 06762 33/// /0000 11013 21029 39931 40189 52023 333 55300 20000 91103 91202;
0140067620999992011010220004+46167+008883FM-12+0198LSZL V0201801N000519999999N9999999N1-00341-00411101981ADDMA1999999099381MD1210231+9999OA149900151REMSYN088AAXX  02204 06762 33/// /1801 11034 21041 39938 40198 52023 333 55300 20000 91103 91202;
0140067620999992011010221004+46167+008883FM-12+0198LSZL V0200901N001019999999N9999999N1-00351-00421102041ADDMA1999999099441MD1110211+9999OA149900211REMSYN088AAXX  02214 06762 33/// /0902 11035 21042 39944 40204 51021 333 55300 20000 91104 91203;
0140067620999992011010222004+46167+008883FM-12+0198LSZL V0200701N000519999999N9999999N1-00291-00441102081ADDMA1999999099481MD1210171+9999OA149900151REMSYN088AAXX  02224 06762 33/// /0701 11029 21044 39948 40208 52017 333 55300 20000 91103 91202;
0140067620999992011010223004+46167+008883FM-12+0198LSZL V0201701N000519999999N9999999N1-00271-00421102081ADDMA1999999099491MD1210111+9999OA149900311REMSYN088AAXX  02234 06762 33/// /1701 11027 21042 39949 40208 52011 333 55300 20000 91106 91204;
0140067620999992011010300004+46167+008883FM-12+0198LSZL V0200701N001019999999N9999999N1-00421-00531102111ADDMA1999999099501MD1210061+9999OA149900311REMSYN088AAXX  03004 06762 33/// /0702 11042 21053 39950 40211 52006 333 55300 20000 91106 91204;
0159067620999992011010301004+46167+008883FM-12+0198LSZL V0200801N001019999999N9999999N1-00491-00571102101ADDMA1999999099481MD1810021+9999OA149900211REMSYN088AAXX  03014 06762 33/// /0802 11049 21057 39948 40210 58000 333 55300 20000 91104 91203;EQDQ01+000002APC3  
0140067620999992011010302004+46167+008883FM-12+0198LSZL V0201001N001019999999N9999999N1-00351-00541102091ADDMA1999999099491MD1519999+9999OA149900311REMSYN088AAXX  03024 06762 33/// /1002 11035 21054 39949 40209 55/// 333 55300 20000 91106 91204;
0087067620999992011010303004+46167+008883FM-12+0198LSZL V0200901N001519999999N9999999N1-00331-00561102091ADDMA1999999099491REMSYN060AAXX  03034 06762 43/// /0903 11033 21056 39949 40209 5////;
0140067620999992011010304004+46167+008883FM-12+0198LSZL V0200701N001019999999N9999999N1-00501-00631102121ADDMA1999999099501MD1110021+9999OA149900311REMSYN088AAXX  03044 06762 33/// /0702 11050 21063 39950 40212 51002 333 55300 20000 91106 91204;
0140067620999992011010305004+46167+008883FM-12+0198LSZL V0201201N000519999999N9999999N1-00551-00681102141ADDMA1999999099521MD1310031+9999OA149900261REMSYN088AAXX  03054 06762 33/// /1201 11055 21068 39952 40214 53003 333 55300 20000 91105 91203;
0207067620999992011010306004+46167+008883FM-12+0198LSZL V0202701N000519999999N9999999N1-00571-00701102181ADDAL19900091GJ102829IA2999-01009KA1999N-00641MA1999999099551MD1310061+9999OA149900311REMSYN112AAXX  03064 06762 33/// /2701 11057 21070 39955 40218 53006 333 21064 3/110 55047 55300 20000 70000 91106 91204;
0140067620999992011010307004+46167+008883FM-12+0198LSZL V0203201N000519999999N9999999N1-00591-00721102241ADDMA1999999099611MD1310111+9999OA149900151REMSYN088AAXX  03074 06762 33/// /3201 11059 21072 39961 40224 53011 333 55300 20000 91103 91202;
0140067620999992011010308004+46167+008883FM-12+0198LSZL V0200501N000519999999N9999999N1-00551-00661102311ADDMA1999999099681MD1319999+9999OA149900101REMSYN088AAXX  03084 06762 33/// /0501 11055 21066 39968 40231 53/// 333 55300 20072 91102 91201;
0103067620999992011010309004+46167+008883FM-12+0198LSZL V0209999C000019999999N9999999N1-00311-00561102321ADDMA1999999099721REMSYN076AAXX  03094 06762 33/// /0000 11031 21056 39972 40232 5//// 333 553// 20259;
0140067620999992011010310004+46167+008883FM-12+0198LSZL V0200701N001019999999N9999999N1-00111-00551102361ADDMA1999999099771MD1110161+9999OA149900151REMSYN088AAXX  03104 06762 33/// /0702 11011 21055 39977 40236 51016 333 55301 20500 91103 91202;
0140067620999992011010311004+46167+008883FM-12+0198LSZL V0201501N000519999999N9999999N1-00021-00491102371ADDMA1999999099791MD1110111+9999OA149900151REMSYN088AAXX  03114 06762 33/// /1501 11002 21049 39979 40237 51011 333 55300 20544 91103 91202;
0175067620999992011010312004+46167+008883FM-12+0198LSZL V0209999C000019999999N9999999N1+00061-00461102291ADDMA1999999099721MD1710031+9999OA149900311REMSYN088AAXX  03124 06762 33/// /0000 10006 21046 39972 40229 58000 333 55300 20565 91106 91204;EQDQ01+000082APCTENQ02+000002APC3  
0140067620999992011010313004+46167+008883FM-12+0198LSZL V0209999C000019999999N9999999N1+00161-00631102231ADDMA1999999099671MD1710101+9999OA149900151REMSYN088AAXX  03134 06762 33/// /0000 10016 21063 39967 40223 57010 333 55303 20558 91103 91202;
0103067620999992011010314004+46167+008883FM-12+0198LSZL V0202201N000519999999N9999999N1+00201-00551102211ADDMA1999999099661REMSYN076AAXX  03144 06762 33/// /2201 10020 21055 39966 40221 5//// 333 553// 20814;
0103067620999992011010315004+46167+008883FM-12+0198LSZL V0200601N000519999999N9999999N1+00041-00431102221ADDMA1999999099651REMSYN076AAXX  03154 06762 33/// /0601 10004 21043 39965 40222 5//// 333 553// 20169;
0159067620999992011010316004+46167+008883FM-12+0198LSZL V0201101N001019999999N9999999N1+00001-00471102241ADDMA1999999099671MD1310011+9999OA149900311REMSYN088AAXX  03164 06762 33/// /1102 10000 21047 39967 40224 53000 333 55300 20050 91106 91202;EQDQ01+000002APC3  
0140067620999992011010317004+46167+008883FM-12+0198LSZL V0200901N001019999999N9999999N1-00081-00351102291ADDMA1999999099711MD1210051+9999OA149900311REMSYN088AAXX  03174 06762 33/// /0902 11008 21035 39971 40229 52005 333 55300 20000 91106 91202;
0159067620999992011010318004+46167+008883FM-12+0198LSZL V0200901N001019999999N9999999N1-00011-00461102341ADDKA1120M+00271MA1999999099761MD1310111+9999OA149900311REMSYN094AAXX  03184 06762 33/// /0902 11001 21046 39976 40234 53011 333 10027 55300 20000 91106 91203;
0140067620999992011010319004+46167+008883FM-12+0198LSZL V0200901N001519999999N9999999N1+00041-00571102351ADDMA1999999099781MD1110111+9999OA149900311REMSYN088AAXX  03194 06762 33/// /0903 10004 21057 39978 40235 51011 333 55300 20000 91106 91204;
0140067620999992011010320004+46167+008883FM-12+0198LSZL V0200901N002619999999N9999999N1+00091-00601102371ADDMA1999999099801MD1110091+9999OA149900411REMSYN088AAXX  03204 06762 33/// /0905 10009 21060 39980 40237 51009 333 55300 20000 91108 91205;
0140067620999992011010321004+46167+008883FM-12+0198LSZL V0200801N002119999999N9999999N1+00071-00671102381ADDMA1999999099811MD1210051+9999OA149900411REMSYN088AAXX  03214 06762 33/// /0804 10007 21067 39981 40238 52005 333 55300 20000 91108 91205;
0140067620999992011010322004+46167+008883FM-12+0198LSZL V0201001N001519999999N9999999N1+00071-00661102401ADDMA1999999099831MD1210051+9999OA149900361REMSYN088AAXX  03224 06762 33/// /1003 10007 21066 39983 40240 52005 333 55300 20000 91107 91205;
0140067620999992011010323004+46167+008883FM-12+0198LSZL V0201001N001519999999N9999999N1+00051-00671102411ADDMA1999999099841MD1210041+9999OA149900361REMSYN088AAXX  03234 06762 33/// /1003 10005 21067 39984 40241 52004 333 55300 20000 91107 91205;
0140067620999992011010400004+46167+008883FM-12+0198LSZL V0201301N000519999999N9999999N1+00031-00581102391ADDMA1999999099821MD1010011+9999OA149900411REMSYN088AAXX  04004 06762 33/// /1301 10003 21058 39982 40239 50001 333 55300 20000 91108 91205;
0140067620999992011010401004+46167+008883FM-12+0198LSZL V0200401N001019999999N9999999N1-00081-00411102361ADDMA1999999099781MD1710051+9999OA149900261REMSYN088AAXX  04014 06762 33/// /0402 11008 21041 39978 40236 57005 333 55300 20000 91105 91203;
0140067620999992011010402004+46167+008883FM-12+0198LSZL V0200301N000519999999N9999999N1-00081-00391102341ADDMA1999999099761MD1619999+9999OA149900151REMSYN088AAXX  04024 06762 33/// /0301 11008 21039 39976 40234 56/// 333 55300 20000 91103 91202;
0140067620999992011010403004+46167+008883FM-12+0198LSZL V0200401N001019999999N9999999N1-00111-00321102291ADDMA1999999099711MD1810111+9999OA149900361REMSYN088AAXX  04034 06762 33/// /0402 11011 21032 39971 40229 58011 333 55300 20000 91107 91205;
0140067620999992011010404004+46167+008883FM-12+0198LSZL V0209999C000019999999N9999999N1-00091-00411102251ADDMA1999999099671MD1810111+9999OA149900101REMSYN088AAXX  04044 06762 33/// /0000 11009 21041 39967 40225 58011 333 55300 20000 91102 91202;
0140067620999992011010405004+46167+008883FM-12+0198LSZL V0201301N000519999999N9999999N1-00121-00351102211ADDMA1999999099631MD1610131+9999OA149900101REMSYN088AAXX  04054 06762 33/// /1301 11012 21035 39963 40221 56013 333 55300 20000 91102 91202;
0207067620999992011010406004+46167+008883FM-12+0198LSZL V0200301N000519999999N9999999N1-00111-00331102181ADDAL19900091GJ100849IA2999-00209KA1999N-00131MA1999999099601MD1810111+9999OA149900411REMSYN112AAXX  04064 06762 33/// /0301 11011 21033 39960 40218 58011 333 21013 3/102 55014 55300 20000 70000 91108 91205;
0140067620999992011010407004+46167+008883FM-12+0198LSZL V0200701N000519999999N9999999N1-00101-00351102181ADDMA1999999099601MD1710071+9999OA149900101REMSYN088AAXX  04074 06762 33/// /0701 11010 21035 39960 40218 57007 333 55300 20000 91102 91201;
0140067620999992011010408004+46167+008883FM-12+0198LSZL V0209999C000019999999N9999999N1-00081-00301102211ADDMA1999999099631MD1319999+9999OA149900101REMSYN088AAXX  04084 06762 33/// /0000 11008 21030 39963 40221 53/// 333 55300 20004 91102 91201;
0103067620999992011010409004+46167+008883FM-12+0198LSZL V0200901N000519999999N9999999N1-00031-00371102221ADDMA1999999099651REMSYN076AAXX  04094 06762 33/// /0901 11003 21037 39965 40222 5//// 333 553// 20029;
0140067620999992011010410004+46167+008883FM-12+0198LSZL V0209999C000019999999N9999999N1+00001-00281102241ADDMA1999999099671MD1210071+9999OA149900101REMSYN088AAXX  04104 06762 33/// /0000 10000 21028 39967 40224 52007 333 55300 20126 91102 91201;
0140067620999992011010411004+46167+008883FM-12+0198LSZL V0209999C000019999999N9999999N1+00091-00341102181ADDMA1999999099621MD1810011+9999OA149900101REMSYN088AAXX  04114 06762 33/// /0000 10009 21034 39962 40218 58001 333 55300 20230 91102 91201;
0140067620999992011010412004+46167+008883FM-12+0198LSZL V0201401N000519999999N9999999N1+00151-00421102091ADDMA1999999099541MD1710111+9999OA149900151REMSYN088AAXX  04124 06762 33/// /1401 10015 21042 39954 40209 57011 333 55300 20299 91103 91202;
0140067620999992011010413004+46167+008883FM-12+0198LSZL V0201001N000519999999N9999999N1+00231-00431102051ADDMA1999999099501MD1610171+9999OA149900101REMSYN088AAXX  04134 06762 33/// /1001 10023 21043 39950 40205 56017 333 55300 20425 91102 91201;
0103067620999992011010414004+46167+008883FM-12+0198LSZL V0202701N000519999999N9999999N1+00251-00341102021ADDMA1999999099481REMSYN076AAXX  04144 06762 33/// /2701 10025 21034 39948 40202 5//// 333 553// 20216;
0087067620999992011010415004+46167+008883FM-12+0198LSZL V0203001N000519999999N9999999N1+00251-00311102001ADDMA1999999099461REMSYN060AAXX  04154 06762 43/// /3001 10025 21031 39946 40200 5////;
0140067620999992011010416004+46167+008883FM-12+0198LSZL V0202301N003119999999N9999999N1+00221-00371102011ADDMA1999999099461MD1710041+9999OA149900511REMSYN088AAXX  04164 06762 33/// /2306 10022 21037 39946 40201 57004 333 55300 20032 91110 91206;
0140067620999992011010417004+46167+008883FM-12+0198LSZL V0209999C000019999999N9999999N1+00181-00361102021ADDMA1999999099471MD1510011+9999OA149900511REMSYN088AAXX  04174 06762 33/// /0000 10018 21036 39947 40202 55001 333 55300 20000 91110 91206;
0159067620999992011010418004+46167+008883FM-12+0198LSZL V0201401N000519999999N9999999N1+00161-00331102041ADDKA1120M+00271MA1999999099491MD1210031+9999OA149900511REMSYN094AAXX  04184 06762 33/// /1401 10016 21033 39949 40204 52003 333 10027 55300 20000 91110 91206;
0140067620999992011010419004+46167+008883FM-12+0198LSZL V0201501N000519999999N9999999N1+00111-00291102091ADDMA1999999099531MD1310071+9999OA149900361REMSYN088AAXX  04194 06762 33/// /1501 10011 21029 39953 40209 53007 333 55300 20000 91107 91202;
0140067620999992011010420004+46167+008883FM-12+0198LSZL V0201101N001019999999N9999999N1+00091-00291102121ADDMA1999999099561MD1210091+9999OA149900361REMSYN088AAXX  04204 06762 33/// /1102 10009 21029 39956 40212 52009 333 55300 20000 91107 91202;
0140067620999992011010421004+46167+008883FM-12+0198LSZL V0201001N001019999999N9999999N1+00071-00281102111ADDMA1999999099551MD1210061+9999OA149900511REMSYN088AAXX  04214 06762 33/// /1002 10007 21028 39955 40211 52006 333 55300 20000 91110 91206;
0140067620999992011010422004+46167+008883FM-12+0198LSZL V0200301N001019999999N9999999N1+00011-00261102131ADDMA1999999099561MD1210031+9999OA149900151REMSYN088AAXX  04224 06762 33/// /0302 10001 21026 39956 40213 52003 333 55300 20000 91103 91202;
0140067620999992011010423004+46167+008883FM-12+0198LSZL V0201101N000519999999N9999999N1-00031-00261102141ADDMA1999999099571MD1310011+9999OA149900151REMSYN088AAXX  04234 06762 33/// /1101 11003 21026 39957 40214 53001 333 55300 20000 91103 91202;
0140067620999992011010500004+46167+008883FM-12+0198LSZL V0200901N000519999999N9999999N1-00031-00291102111ADDMA1999999099541MD1810011+9999OA149900511REMSYN088AAXX  05004 06762 33/// /0901 11003 21029 39954 40211 58001 333 55300 20000 91110 91206;
0140067620999992011010501004+46167+008883FM-12+0198LSZL V0200901N000519999999N9999999N1-00021-00281102091ADDMA1999999099521MD1710041+9999OA149900151REMSYN088AAXX  05014 06762 33/// /0901 11002 21028 39952 40209 57004 333 55300 20000 91103 91202;
0140067620999992011010502004+46167+008883FM-12+0198LSZL V0200801N001019999999N9999999N1-00051-00271102091ADDMA1999999099521MD1710051+9999OA149900151REMSYN088AAXX  05024 06762 33/// /0802 11005 21027 39952 40209 57005 333 55300 20000 91103 91202;
0087067620999992011010503004+46167+008883FM-12+0198LSZL V0200701N000519999999N9999999N1-00061-00261102081ADDMA1999999099511REMSYN060AAXX  05034 06762 43/// /0701 11006 21026 39951 40208 5////;
0140067620999992011010504004+46167+008883FM-12+0198LSZL V0201301N000519999999N9999999N1-00031-00271102061ADDMA1999999099491MD1710031+9999OA149900151REMSYN088AAXX  05044 06762 33/// /1301 11003 21027 39949 40206 57003 333 55300 20000 91103 91202;
0140067620999992011010505004+46167+008883FM-12+0198LSZL V0201201N000519999999N9999999N1-00071-00251102051ADDMA1999999099481MD1710041+9999OA149900151REMSYN088AAXX  05054 06762 33/// /1201 11007 21025 39948 40205 57004 333 55300 20000 91103 91202;
0207067620999992011010506004+46167+008883FM-12+0198LSZL V0201501N000519999999N9999999N1-00051-00231102091ADDAL19900091GJ100009IA2999-00209KA1999N-00081MA1999999099521MD1310011+9999OA149900361REMSYN112AAXX  05064 06762 33/// /1501 11005 21023 39952 40209 53001 333 21008 3/102 55000 55300 20000 70000 91107 91202;
0140067620999992011010507004+46167+008883FM-12+0198LSZL V0209999C000019999999N9999999N1-00031-00261102121ADDMA1999999099551MD1210061+9999OA149900151REMSYN088AAXX  05074 06762 33/// /0000 11003 21026 39955 40212 52006 333 55300 20000 91103 91202;
0140067620999992011010508004+46167+008883FM-12+0198LSZL V0200401N000519999999N9999999N1-00051-00221102161ADDMA1999999099591MD1119999+9999OA149900151REMSYN088AAXX  05084 06762 33/// /0401 11005 21022 39959 40216 51/// 333 55300 20007 91103 91203;
0140067620999992011010509004+46167+008883FM-12+0198LSZL V0200601N000519999999N9999999N1-00041-00211102191ADDMA1999999099621MD1310101+9999OA149900151REMSYN088AAXX  05094 06762 33/// /0601 11004 21021 39962 40219 53010 333 55300 20054 91103 91203;
0140067620999992011010510004+46167+008883FM-12+0198LSZL V0200801N001019999999N9999999N1+00051-00291102191ADDMA1999999099621MD1210071+9999OA149900151REMSYN088AAXX  05104 06762 33/// /0802 10005 21029 39962 40219 52007 333 55300 20119 91103 91202;
0140067620999992011010511004+46167+008883FM-12+0198LSZL V0209999C000019999999N9999999N1+00121-00421102161ADDMA1999999099601MD1010011+9999OA149900151REMSYN088AAXX  05114 06762 33/// /0000 10012 21042 39960 40216 50001 333 55300 20184 91103 91202;
0103067620999992011010512004+46167+008883FM-12+0198LSZL V0202401N000519999999N9999999N1+00141-00411102081ADDMA1999999099531REMSYN076AAXX  05124 06762 33/// /2401 10014 21041 39953 40208 5//// 333 553// 20220;
0140067620999992011010513004+46167+008883FM-12+0198LSZL V0209999C000019999999N9999999N1+00171-00611102041ADDMA1999999099491MD1810131+9999OA149900101REMSYN088AAXX  05134 06762 33/// /0000 10017 21061 39949 40204 58013 333 55300 20238 91102 91201;
0087067620999992011010514004+46167+008883FM-12+0198LSZL V0203301N000519999999N9999999N1+00191-00601102041ADDMA1999999099491REMSYN060AAXX  05144 06762 43/// /3301 10019 21060 39949 40204 5////;
0087067620999992011010515004+46167+008883FM-12+0198LSZL V0202401N001019999999N9999999N1+00091-00621102071ADDMA1999999099511REMSYN060AAXX  05154 06762 43/// /2402 10009 21062 39951 40207 5////;
0140067620999992011010516004+46167+008883FM-12+0198LSZL V0200501N001519999999N9999999N1-00161-00471102121ADDMA1999999099541MD1210051+9999OA149900211REMSYN088AAXX  05164 06762 33/// /0503 11016 21047 39954 40212 52005 333 55300 20040 91104 91203;
0140067620999992011010517004+46167+008883FM-12+0198LSZL V0209999C000019999999N9999999N1-00261-00531102161ADDMA1999999099571MD1210081+9999OA149900211REMSYN088AAXX  05174 06762 33/// /0000 11026 21053 39957 40216 52008 333 55300 20000 91104 91203;
0159067620999992011010518004+46167+008883FM-12+0198LSZL V0201101N000519999999N9999999N1-00331-00561102221ADDKA1120M+00191MA1999999099621MD1219999+9999OA149900211REMSYN094AAXX  05184 06762 33/// /1101 11033 21056 39962 40222 52/// 333 10019 55300 20000 91104 91203;
0140067620999992011010519004+46167+008883FM-12+0198LSZL V0201201N000519999999N9999999N1-00351-00581102301ADDMA1999999099691MD1210151+9999OA149900211REMSYN088AAXX  05194 06762 33/// /1201 11035 21058 39969 40230 52015 333 55300 20000 91104 91203;
0140067620999992011010520004+46167+008883FM-12+0198LSZL V0200901N002619999999N9999999N1-00201-00631102251ADDMA1999999099661MD1219999+9999OA149900411REMSYN088AAXX  05204 06762 33/// /0905 11020 21063 39966 40225 52/// 333 55300 20000 91108 91205;
0103067620999992011010521004+46167+008883FM-12+0198LSZL V0200201N002119999999N9999999N1-00351-00601102301ADDMA1999999099691REMSYN076AAXX  05214 06762 33/// /0204 11035 21060 39969 40230 5//// 333 553// 20000;
0140067620999992011010522004+46167+008883FM-12+0198LSZL V0200301N000519999999N9999999N1-00491-00651102351ADDMA1999999099731MD1310041+9999OA149900461REMSYN088AAXX  05224 06762 33/// /0301 11049 21065 39973 40235 53004 333 55300 20000 91109 91205;
0140067620999992011010523004+46167+008883FM-12+0198LSZL V0201201N001519999999N9999999N1-00301-00701102371ADDMA1999999099771MD1219999+9999OA149900261REMSYN088AAXX  05234 06762 33/// /1203 11030 21070 39977 40237 52/// 333 55300 20000 91105 91203;
0087067620999992011010600004+46167+008883FM-12+0198LSZL V0200701N001019999999N9999999N1-00511-00681102381ADDMA1999999099761REMSYN060AAXX  06004 06762 43/// /0702 11051 21068 39976 40238 5////;
0087067620999992011010601004+46167+008883FM-12+0198LSZL V0200901N000519999999N9999999N1-00311-00641102321ADDMA1999999099721REMSYN060AAXX  06014 06762 43/// /0901 11031 21064 39972 40232 5////;
0087067620999992011010602004+46167+008883FM-12+0198LSZL V0202101N000519999999N9999999N1-00281-00681102351ADDMA1999999099751REMSYN060AAXX  06024 06762 43/// /2101 11028 21068 39975 40235 5////;
0087067620999992011010603004+46167+008883FM-12+0198LSZL V0200101N000519999999N9999999N1-00451-00651102361ADDMA1999999099741REMSYN060AAXX  06034 06762 43/// /0101 11045 21065 39974 40236 5////;
0087067620999992011010604004+46167+008883FM-12+0198LSZL V0202001N000519999999N9999999N1-00361-00611102321ADDMA1999999099711REMSYN060AAXX  06044 06762 43/// /2001 11036 21061 39971 40232 5////;
0087067620999992011010605004+46167+008883FM-12+0198LSZL V0200701N001519999999N9999999N1-00271-00551102291ADDMA1999999099691REMSYN060AAXX  06054 06762 43/// /0703 11027 21055 39969 40229 5////;
0211067620999992011010606004+46167+008883FM-12+0198LSZL V0203101N000519999999N9999999N1-00221-00451102251ADDAA124000091AL19900091GJ100009IA2999-00809KA1999N-00531MA1999999099661OA149900461REMSYN100AAXX  06064 06762 33/// /3101 11022 21045 39966 40225 5//// 333 21053 3/108 55000 70000 91109 91205;EQDQ01  00002PRCP24
0087067620999992011010607004+46167+008883FM-12+0198LSZL V0209999C000019999999N9999999N1-00191-00551102271ADDMA1999999099681REMSYN060AAXX  06074 06762 43/// /0000 11019 21055 39968 40227 5////;
0103067620999992011010608004+46167+008883FM-12+0198LSZL V0201001N001519999999N9999999N1-00141-00561102321ADDMA1999999099731REMSYN076AAXX  06084 06762 33/// /1003 11014 21056 39973 40232 5//// 333 553// 20007;
0087067620999992011010609004+46167+008883FM-12+0198LSZL V0200701N000519999999N9999999N1-00141-00421102331ADDMA1999999099741REMSYN060AAXX  06094 06762 43/// /0701 11014 21042 39974 40233 5////;
0140067620999992011010610004+46167+008883FM-12+0198LSZL V0200501N000519999999N9999999N1-00051-00411102341ADDMA1999999099761MD1210081+9999OA149900211REMSYN088AAXX  06104 06762 33/// /0501 11005 21041 39976 40234 52008 333 55300 20140 91104 91203;
0140067620999992011010611004+46167+008883FM-12+0198LSZL V0200601N000519999999N9999999N1+00021-00581102311ADDMA1999999099741MD1010011+9999OA149900211REMSYN088AAXX  06114 06762 33/// /0601 10002 21058 39974 40231 50001 333 55300 20252 91104 91203;
0140067620999992011010612004+46167+008883FM-12+0198LSZL V0200901N001519999999N9999999N1+00061-00491102221ADDMA1999999099651MD1810091+9999OA149900411REMSYN088AAXX  06124 06762 33/// /0903 10006 21049 39965 40222 58009 333 55300 20155 91108 91205;
0140067620999992011010613004+46167+008883FM-12+0198LSZL V0209999C000019999999N9999999N1+00071-00561102151ADDMA1999999099591MD1710171+9999OA149900361REMSYN088AAXX  06134 06762 33/// /0000 10007 21056 39959 40215 57017 333 55300 20094 91107 91204;
0087067620999992011010614004+46167+008883FM-12+0198LSZL V0203501N000519999999N9999999N1+00081-00491102141ADDMA1999999099581REMSYN060AAXX  06144 06762 43/// /3501 10008 21049 39958 40214 5////;
0087067620999992011010615004+46167+008883FM-12+0198LSZL V0202901N000519999999N9999999N1+00061-00421102141ADDMA1999999099581REMSYN060AAXX  06154 06762 43/// /2901 10006 21042 39958 40214 5////;
0140067620999992011010616004+46167+008883FM-12+0198LSZL V0200501N000519999999N9999999N1+00031-00341102181ADDMA1999999099611MD1310021+9999OA149900151REMSYN088AAXX  06164 06762 33/// /0501 10003 21034 39961 40218 53002 333 55300 20011 91103 91202;
0140067620999992011010617004+46167+008883FM-12+0198LSZL V0209999C000019999999N9999999N1+00071-00461102151ADDMA1999999099591MD1010011+9999OA149900151REMSYN088AAXX  06174 06762 33/// /0000 10007 21046 39959 40215 50001 333 55300 20000 91103 91202;
0159067620999992011010618004+46167+008883FM-12+0198LSZL V0200501N001019999999N9999999N1+00021-00341102171ADDKA1120M+00101MA1999999099601MD1210021+9999OA149900361REMSYN094AAXX  06184 06762 33/// /0502 10002 21034 39960 40217 52002 333 10010 55300 20000 91107 91204;
0140067620999992011010619004+46167+008883FM-12+0198LSZL V0200901N001019999999N9999999N1+00021-00351102231ADDMA1999999099661MD1210051+9999OA149900151REMSYN088AAXX  06194 06762 33/// /0902 10002 21035 39966 40223 52005 333 55300 20000 91103 91202;
0140067620999992011010620004+46167+008883FM-12+0198LSZL V0209999C000019999999N9999999N1+00021-00321102271ADDMA1999999099701MD1219999+9999OA149900151REMSYN088AAXX  06204 06762 33/// /0000 10002 21032 39970 40227 52/// 333 55300 20000 91103 91203;
0140067620999992011010621004+46167+008883FM-12+0198LSZL V0200701N000519999999N9999999N1+00021-00301102281ADDMA1999999099711MD1219999+9999OA149900151REMSYN088AAXX  06214 06762 33/// /0701 10002 21030 39971 40228 52/// 333 55300 20000 91103 91203;
0140067620999992011010622004+46167+008883FM-12+0198LSZL V0202401N000519999999N9999999N1+00021-00221102321ADDMA1999999099751MD1210091+9999OA149900151REMSYN088AAXX  06224 06762 33/// /2401 10002 21022 39975 40232 52009 333 55300 20000 91103 91202;
0103067620999992011010623004+46167+008883FM-12+0198LSZL V0200501N000519999999N9999999N1+00031-00301102331ADDMA1999999099761REMSYN076AAXX  06234 06762 33/// /0501 10003 21030 39976 40233 5//// 333 553// 20000;
0087067620999992011010700004+46167+008883FM-12+0198LSZL V0209999C000019999999N9999999N1+00061-00321102311ADDMA1999999099741REMSYN060AAXX  07004 06762 43/// /0000 10006 21032 39974 40231 5////;
0087067620999992011010701004+46167+008883FM-12+0198LSZL V0209999C000019999999N9999999N1+00061-00331102341ADDMA1999999099771REMSYN060AAXX  07014 06762 43/// /0000 10006 21033 39977 40234 5////;
0087067620999992011010702004+46167+008883FM-12+0198LSZL V0209999C000019999999N9999999N1+00051-00271102371ADDMA1999999099801REMSYN060AAXX  07024 06762 43/// /0000 10005 21027 39980 40237 5////;
0087067620999992011010703004+46167+008883FM-12+0198LSZL V0200901N000519999999N9999999N1+00071-00321102391ADDMA1999999099821REMSYN060AAXX  07034 06762 43/// /0901 10007 21032 39982 40239 5////;
0140067620999992011010704004+46167+008883FM-12+0198LSZL V0201401N000519999999N9999999N1+00051-00291102381ADDMA1999999099811MD1210041+9999OA149900151REMSYN088AAXX  07044 06762 33/// /1401 10005 21029 39981 40238 52004 333 55300 20000 91103 91202;
0140067620999992011010705004+46167+008883FM-12+0198LSZL V0209999C000019999999N9999999N1+00051-00231102421ADDMA1999999099851MD1310051+9999OA149900101REMSYN088AAXX  07054 06762 33/// /0000 10005 21023 39985 40242 53005 333 55300 20000 91102 91201;
0207067620999992011010706004+46167+008883FM-12+0198LSZL V0200901N000519999999N9999999N1+00041-00241102461ADDAL19900091GJ100009IA2999-00109KA1999N-00011MA1999999099891MD1210071+9999OA149900151REMSYN112AAXX  07064 06762 33/// /0901 10004 21024 39989 40246 52007 333 21001 3/101 55000 55300 20000 70000 91103 91203;
0140067620999992011010707004+46167+008883FM-12+0198LSZL V0200901N001519999999N9999999N1+00121-00321102471ADDMA1999999099901MD1210091+9999OA149900261REMSYN088AAXX  07074 06762 33/// /0903 10012 21032 39990 40247 52009 333 55300 20000 91105 91203;
0103067620999992011010708004+46167+008883FM-12+0198LSZL V0201101N000519999999N9999999N1+00151-00341102501ADDMA1999999099941REMSYN076AAXX  07084 06762 33/// /1101 10015 21034 39994 40250 5//// 333 553// 20014;
0087067620999992011010709004+46167+008883FM-12+0198LSZL V0209999C000019999999N9999999N1+00171-00281102551ADDMA1999999099991REMSYN060AAXX  07094 06762 43/// /0000 10017 21028 39999 40255 5////;
0140067620999992011010710004+46167+008883FM-12+0198LSZL V0209999C000019999999N9999999N1+00171-00271102561ADDMA1999999100001MD1110101+9999OA149900151REMSYN088AAXX  07104 06762 33/// /0000 10017 21027 30000 40256 51010 333 55300 20065 91103 91202;
0146067620999992011010711004+46167+008883FM-12+0198LSZL V0200901N000519999999N9999999N1+00131-00141102581ADDMA1999999100011MD1210071+9999OA149900101REMSYN094AAXX  07114 06762 23/// /0901 10013 21014 30001 40258 52007 333 55300 20115 69915 91102 91202;
0198067620999992011010712004+46167+008883FM-12+0198LSZL V0209999C000019999999N9999999N1+00091-00071102561ADDAA106000091MA1999999099991MD1810011+9999OA149900361REMSYN100AAXX  07124 06762 03/// /0000 10009 21007 39999 40256 58000 69921 333 55300 20094 69915 91107 91205;EQDQ01+000002APC3  Q02  00002PRCP06
0146067620999992011010713004+46167+008883FM-12+0198LSZL V0200701N000519999999N9999999N1+00071+00001102531ADDMA1999999099961MD1710041+9999OA149900151REMSYN094AAXX  07134 06762 23/// /0701 10007 20000 39996 40253 57004 333 55300 20061 69935 91103 91201;
0087067620999992011010714004+46167+008883FM-12+0198LSZL V0200601N000519999999N9999999N1+00071+00041102511ADDMA1999999099941REMSYN060AAXX  07144 06762 43/// /0601 10007 20004 39994 40251 5////;
0087067620999992011010715004+46167+008883FM-12+0198LSZL V0200601N000519999999N9999999N1+00081+00041102551ADDMA1999999099981REMSYN060AAXX  07154 06762 43/// /0601 10008 20004 39998 40255 5////;
0146067620999992011010716004+46167+008883FM-12+0198LSZL V0200201N000519999999N9999999N1+00091+00051102551ADDMA1999999099981MD1210021+9999OA149900101REMSYN094AAXX  07164 06762 23/// /0201 10009 20005 39998 40255 52002 333 55300 20000 69935 91102 91202;
0146067620999992011010717004+46167+008883FM-12+0198LSZL V0209999C000019999999N9999999N1+00101+00041102551ADDMA1999999099981MD1210041+9999OA149900261REMSYN094AAXX  07174 06762 23/// /0000 10010 20004 39998 40255 52004 333 55300 20000 69955 91105 91202;
0145067620999992011010718004+46167+008883FM-12+0198LSZL V0200701N000519999999N9999999N1+00111+00081102551ADDAA112002091KA1120M+00191MA1999999099981REMSYN094AAXX  07184 06762 03/// /0701 10011 20008 39998 40255 5//// 60022 333 10019 553// 20000 69935;
0146067620999992011010719004+46167+008883FM-12+0198LSZL V0209999C000019999999N9999999N1+00091+00081102551ADDMA1999999099981MD1019999+9999OA149900101REMSYN094AAXX  07194 06762 23/// /0000 10009 20008 39998 40255 50/// 333 55300 20000 69925 91102 91201;
0087067620999992011010720004+46167+008883FM-12+0198LSZL V0209999C000019999999N9999999N1+00101+00061102541ADDMA1999999099971REMSYN060AAXX  07204 06762 43/// /0000 10010 20006 39997 40254 5////;
0087067620999992011010721004+46167+008883FM-12+0198LSZL V0209999C000019999999N9999999N1+00111+00081102531ADDMA1999999099961REMSYN060AAXX  07214 06762 43/// /0000 10011 20008 39996 40253 5////;
0146067620999992011010722004+46167+008883FM-12+0198LSZL V0202001N000519999999N9999999N1+00131+00091102541ADDMA1999999099971MD1510011+9999OA149900151REMSYN094AAXX  07224 06762 23/// /2001 10013 20009 39997 40254 55001 333 55300 20000 69955 91103 91202;
0109067620999992011010723004+46167+008883FM-12+0198LSZL V0201001N001019999999N9999999N1+00141+00111102561ADDMA1999999099991REMSYN082AAXX  07234 06762 23/// /1002 10014 20011 39999 40256 5//// 333 553// 20000 69935;
0126067620999992011010800004+46167+008883FM-12+0198LSZL V0200701N000519999999N9999999N1+00131+00081102541ADDAA106002091MA1999999099971REMSYN088AAXX  08004 06762 03/// /0701 10013 20008 39997 40254 5//// 60021 333 553// 20000 69955;
0087067620999992011010801004+46167+008883FM-12+0198LSZL V0200701N001019999999N9999999N1+00141+00121102491ADDMA1999999099931REMSYN060AAXX  08014 06762 43/// /0702 10014 20012 39993 40249 5////;
0087067620999992011010802004+46167+008883FM-12+0198LSZL V0201001N001519999999N9999999N1+00191+00131102471ADDMA1999999099911REMSYN060AAXX  08024 06762 43/// /1003 10019 20013 39991 40247 5////;
0087067620999992011010803004+46167+008883FM-12+0198LSZL V0201001N000519999999N9999999N1+00181+00121102441ADDMA1999999099881REMSYN060AAXX  08034 06762 43/// /1001 10018 20012 39988 40244 5////;
0087067620999992011010804004+46167+008883FM-12+0198LSZL V0200601N001019999999N9999999N1+00161+00121102391ADDMA1999999099831REMSYN060AAXX  08044 06762 43/// /0602 10016 20012 39983 40239 5////;
0087067620999992011010805004+46167+008883FM-12+0198LSZL V0201101N001519999999N9999999N1+00201+00141102321ADDMA1999999099771REMSYN060AAXX  08054 06762 43/// /1103 10020 20014 39977 40232 5////;
0134067620999992011010806004+46167+008883FM-12+0198LSZL V0209999C000019999999N9999999N1+00181+00141102341ADDIA2999+00109KA1999N+00081MA1999999099781REMSYN082AAXX  08064 06762 43/// /0000 10018 20014 39978 40234 5//// 333 20008 3/001 55000;
0087067620999992011010807004+46167+008883FM-12+0198LSZL V0202401N000519999999N9999999N1+00171+00141102361ADDMA1999999099801REMSYN060AAXX  08074 06762 43/// /2401 10017 20014 39980 40236 5////;
0109067620999992011010808004+46167+008883FM-12+0198LSZL V0201101N001019999999N9999999N1+00201+00161102391ADDMA1999999099831REMSYN082AAXX  08084 06762 23/// /1102 10020 20016 39983 40239 5//// 333 553// 20000 69955;
0087067620999992011010809004+46167+008883FM-12+0198LSZL V0202601N000519999999N9999999N1+00251+00201102391ADDMA1999999099841REMSYN060AAXX  08094 06762 43/// /2601 10025 20020 39984 40239 5////;
0087067620999992011010810004+46167+008883FM-12+0198LSZL V0200601N000519999999N9999999N1+00271+00231102421ADDMA1999999099871REMSYN060AAXX  08104 06762 43/// /0601 10027 20023 39987 40242 5////;
0087067620999992011010811004+46167+008883FM-12+0198LSZL V0201201N000519999999N9999999N1+00321+00271102351ADDMA1999999099811REMSYN060AAXX  08114 06762 43/// /1201 10032 20027 39981 40235 5////;
0087067620999992011010812004+46167+008883FM-12+0198LSZL V0200201N000519999999N9999999N1+00351+00291102321ADDMA1999999099781REMSYN060AAXX  08124 06762 43/// /0201 10035 20029 39978 40232 5////;
0087067620999992011010813004+46167+008883FM-12+0198LSZL V0200801N000519999999N9999999N1+00411+00351102251ADDMA1999999099721REMSYN060AAXX  08134 06762 43/// /0801 10041 20035 39972 40225 5////;
0087067620999992011010814004+46167+008883FM-12+0198LSZL V0209999C000019999999N9999999N1+00411+00371102251ADDMA1999999099721REMSYN060AAXX  08144 06762 43/// /0000 10041 20037 39972 40225 5////;
0087067620999992011010815004+46167+008883FM-12+0198LSZL V0209999C000019999999N9999999N1+00321+00321102291ADDMA1999999099751REMSYN060AAXX  08154 06762 43/// /0000 10032 20032 39975 40229 5////;
0087067620999992011010816004+46167+008883FM-12+0198LSZL V0203601N000519999999N9999999N1+00341+00311102321ADDMA1999999099781REMSYN060AAXX  08164 06762 43/// /3601 10034 20031 39978 40232 5////;
0087067620999992011010817004+46167+008883FM-12+0198LSZL V0209999C000019999999N9999999N1+00281+00261102341ADDMA1999999099791REMSYN060AAXX  08174 06762 43/// /0000 10028 20026 39979 40234 5////;
0087067620999992011010818004+46167+008883FM-12+0198LSZL V0201101N000519999999N9999999N1+00291+00291102331ADDMA1999999099781REMSYN060AAXX  08184 06762 43/// /1101 10029 20029 39978 40233 5////;
0087067620999992011010819004+46167+008883FM-12+0198LSZL V0200101N001019999999N9999999N1+00281+00261102321ADDMA1999999099771REMSYN060AAXX  08194 06762 43/// /0102 10028 20026 39977 40232 5////;
0087067620999992011010820004+46167+008883FM-12+0198LSZL V0202001N001519999999N9999999N1+00321+00301102341ADDMA1999999099801REMSYN060AAXX  08204 06762 43/// /2003 10032 20030 39980 40234 5////;
0087067620999992011010821004+46167+008883FM-12+0198LSZL V0209999C000019999999N9999999N1+00311+00261102351ADDMA1999999099801REMSYN060AAXX  08214 06762 43/// /0000 10031 20026 39980 40235 5////;
0087067620999992011010822004+46167+008883FM-12+0198LSZL V0202401N001019999999N9999999N1+00331+00211102331ADDMA1999999099791REMSYN060AAXX  08224 06762 43/// /2402 10033 20021 39979 40233 5////;
0087067620999992011010823004+46167+008883FM-12+0198LSZL V0201901N000519999999N9999999N1+00321+00291102371ADDMA1999999099831REMSYN060AAXX  08234 06762 43/// /1901 10032 20029 39983 40237 5////;
0087067620999992011010900004+46167+008883FM-12+0198LSZL V0201101N000519999999N9999999N1+00311+00301102351ADDMA1999999099801REMSYN060AAXX  09004 06762 43/// /1101 10031 20030 39980 40235 5////;
0087067620999992011010901004+46167+008883FM-12+0198LSZL V0209999C000019999999N9999999N1+00291+00281102331ADDMA1999999099781REMSYN060AAXX  09014 06762 43/// /0000 10029 20028 39978 40233 5////;
0087067620999992011010902004+46167+008883FM-12+0198LSZL V0209999C000019999999N9999999N1+00311+00281102331ADDMA1999999099791REMSYN060AAXX  09024 06762 43/// /0000 10031 20028 39979 40233 5////;
0087067620999992011010903004+46167+008883FM-12+0198LSZL V0200601N000519999999N9999999N1+00251+00251102291ADDMA1999999099741REMSYN060AAXX  09034 06762 43/// /0601 10025 20025 39974 40229 5////;
0087067620999992011010904004+46167+008883FM-12+0198LSZL V0200801N000519999999N9999999N1+00271+00251102251ADDMA1999999099701REMSYN060AAXX  09044 06762 43/// /0801 10027 20025 39970 40225 5////;
0087067620999992011010905004+46167+008883FM-12+0198LSZL V0200101N000519999999N9999999N1+00271+00251102271ADDMA1999999099721REMSYN060AAXX  09054 06762 43/// /0101 10027 20025 39972 40227 5////;
0097067620999992011010906004+46167+008883FM-12+0198LSZL V0209999C000019999999N9999999N1+00321+00301102261ADDMA1999999099721REMSYN070AAXX  09064 06762 43/// /0000 10032 20030 39972 40226 5//// 333 55000;
0087067620999992011010907004+46167+008883FM-12+0198LSZL V0200501N001019999999N9999999N1+00281+00281102291ADDMA1999999099741REMSYN060AAXX  09074 06762 43/// /0502 10028 20028 39974 40229 5////;
0109067620999992011010908004+46167+008883FM-12+0198LSZL V0202801N000519999999N9999999N1+00331+00301102331ADDMA1999999099791REMSYN082AAXX  09084 06762 23/// /2801 10033 20030 39979 40233 5//// 333 553// 20011 69915;
0109067620999992011010909004+46167+008883FM-12+0198LSZL V0201601N000519999999N9999999N1+00461+00441102321ADDMA1999999099791REMSYN082AAXX  09094 06762 23/// /1601 10046 20044 39979 40232 5//// 333 553// 20047 69945;
0146067620999992011010910004+46167+008883FM-12+0198LSZL V0201201N000519999999N9999999N1+00471+00441102351ADDMA1999999099821MD1210081+9999OA149900261REMSYN094AAXX  09104 06762 23/// /1201 10047 20044 39982 40235 52008 333 55300 20104 69915 91105 91202;
0146067620999992011010911004+46167+008883FM-12+0198LSZL V0200801N000519999999N9999999N1+00491+00461102321ADDMA1999999099791MD1010001+9999OA149900261REMSYN094AAXX  09114 06762 23/// /0801 10049 20046 39979 40232 50000 333 55300 20140 69975 91105 91202;
0163067620999992011010912004+46167+008883FM-12+0198LSZL V0201101N000519999999N9999999N1+00501+00471102231ADDAA106002091MA1999999099711MD1710081+9999OA149900261REMSYN100AAXX  09124 06762 03/// /1101 10050 20047 39971 40223 57008 60021 333 55300 20137 69995 91105 91202;
0146067620999992011010913004+46167+008883FM-12+0198LSZL V0201101N000519999999N9999999N1+00511+00491102181ADDMA1999999099661MD1810161+9999OA149900101REMSYN094AAXX  09134 06762 23/// /1101 10051 20049 39966 40218 58016 333 55300 20140 69965 91102 91202;
0087067620999992011010914004+46167+008883FM-12+0198LSZL V0209999C000019999999N9999999N1+00491+00471102181ADDMA1999999099661REMSYN060AAXX  09144 06762 43/// /0000 10049 20047 39966 40218 5////;
0087067620999992011010915004+46167+008883FM-12+0198LSZL V0209999C000019999999N9999999N1+00461+00421102191ADDMA1999999099661REMSYN060AAXX  09154 06762 43/// /0000 10046 20042 39966 40219 5////;
0146067620999992011010916004+46167+008883FM-12+0198LSZL V0200601N000519999999N9999999N1+00411+00401102181ADDMA1999999099651MD1010011+9999OA149900101REMSYN094AAXX  09164 06762 23/// /0601 10041 20040 39965 40218 50001 333 55300 20000 69955 91102 91201;
0146067620999992011010917004+46167+008883FM-12+0198LSZL V0209999C000019999999N9999999N1+00411+00411102171ADDMA1999999099641MD1710021+9999OA149900101REMSYN094AAXX  09174 06762 23/// /0000 10041 20041 39964 40217 57002 333 55300 20000 60015 91102 91201;
0182067620999992011010918004+46167+008883FM-12+0198LSZL V0201601N000519999999N9999999N1+00451+00431102201ADDAA112007991KA1120M+00531MA1999999099671MD1310011+9999OA149900261REMSYN106AAXX  09184 06762 03/// /1601 10045 20043 39967 40220 53001 60082 333 10053 55300 20000 60025 91105 91202;
0146067620999992011010919004+46167+008883FM-12+0198LSZL V0201801N000519999999N9999999N1+00441+00411102201ADDMA1999999099671MD1210021+9999OA149900151REMSYN094AAXX  09194 06762 23/// /1801 10044 20041 39967 40220 52002 333 55300 20000 60025 91103 91202;
0146067620999992011010920004+46167+008883FM-12+0198LSZL V0201801N000519999999N9999999N1+00481+00441102211ADDMA1999999099681MD1210041+9999OA149900151REMSYN094AAXX  09204 06762 23/// /1801 10048 20044 39968 40221 52004 333 55300 20000 60035 91103 91202;
0146067620999992011010921004+46167+008883FM-12+0198LSZL V0200901N001019999999N9999999N1+00421+00411102201ADDMA1999999099671MD1010001+9999OA149900211REMSYN094AAXX  09214 06762 23/// /0902 10042 20041 39967 40220 50000 333 55300 20000 60025 91104 91203;
0146067620999992011010922004+46167+008883FM-12+0198LSZL V0200801N000519999999N9999999N1+00421+00391102221ADDMA1999999099691MD1210021+9999OA149900211REMSYN094AAXX  09224 06762 23/// /0801 10042 20039 39969 40222 52002 333 55300 20000 60025 91104 91203;
0146067620999992011010923004+46167+008883FM-12+0198LSZL V0201201N001019999999N9999999N1+00481+00451102191ADDMA1999999099661MD1710021+9999OA149900211REMSYN094AAXX  09234 06762 23/// /1202 10048 20045 39966 40219 57002 333 55300 20000 69985 91104 91202;
0163067620999992011011000004+46167+008883FM-12+0198LSZL V0201001N001519999999N9999999N1+00431+00401102161ADDAA106009991MA1999999099631MD1710041+9999OA149900211REMSYN100AAXX  10004 06762 03/// /1003 10043 20040 39963 40216 57004 60101 333 55300 20000 69965 91104 91203;
0146067620999992011011001004+46167+008883FM-12+0198LSZL V0200901N001019999999N9999999N1+00441+00411102151ADDMA1999999099621MD1710071+9999OA149900261REMSYN094AAXX  10014 06762 23/// /0902 10044 20041 39962 40215 57007 333 55300 20000 60015 91105 91203;
0109067620999992011011002004+46167+008883FM-12+0198LSZL V0209999C000019999999N9999999N1+00401+00361102161ADDMA1999999099631REMSYN082AAXX  10024 06762 23/// /0000 10040 20036 39963 40216 5//// 333 553// 20000 60025;
0087067620999992011011003004+46167+008883FM-12+0198LSZL V0200801N000519999999N9999999N1+00381+00311102141ADDMA1999999099611REMSYN060AAXX  10034 06762 43/// /0801 10038 20031 39961 40214 5////;
0103067620999992011011004004+46167+008883FM-12+0198LSZL V0201101N001519999999N9999999N1+00441+00341102141ADDMA1999999099611REMSYN076AAXX  10044 06762 33/// /1103 10044 20034 39961 40214 5//// 333 553// 20000;
0146067620999992011011005004+46167+008883FM-12+0198LSZL V0201401N001019999999N9999999N1+00441+00341102121ADDMA1999999099591MD1719999+9999OA149900511REMSYN094AAXX  10054 06762 23/// /1402 10044 20034 39959 40212 57/// 333 55300 20000 69915 91110 91206;
0159067620999992011011006004+46167+008883FM-12+0198LSZL V0200601N000519999999N9999999N1+00351+00301102131ADDAA124022491GJ100009IA2999+00309KA1999N+00311MA1999999099591REMSYN088AAXX  10064 06762 43/// /0601 10035 20030 39959 40213 5//// 333 20031 3/003 55000 70223;
0140067620999992011011007004+46167+008883FM-12+0198LSZL V0200701N001019999999N9999999N1+00411+00331102131ADDMA1999999099601MD1710011+9999OA149900361REMSYN088AAXX  10074 06762 33/// /0702 10041 20033 39960 40213 57001 333 55300 20000 91107 91204;
0087067620999992011011008004+46167+008883FM-12+0198LSZL V0200901N001519999999N9999999N1+00401+00321102151ADDMA1999999099621REMSYN060AAXX  10084 06762 43/// /0903 10040 20032 39962 40215 5////;
0087067620999992011011009004+46167+008883FM-12+0198LSZL V0209999C000019999999N9999999N1+00391+00341102151ADDMA1999999099621REMSYN060AAXX  10094 06762 43/// /0000 10039 20034 39962 40215 5////;
0140067620999992011011010004+46167+008883FM-12+0198LSZL V0200801N001019999999N9999999N1+00431+00351102191ADDMA1999999099661MD1310061+9999OA149900211REMSYN088AAXX  10104 06762 33/// /0802 10043 20035 39966 40219 53006 333 55300 20097 91104 91202;
0140067620999992011011011004+46167+008883FM-12+0198LSZL V0209999C000019999999N9999999N1+00451+00401102141ADDMA1999999099611MD1819999+9999OA149900151REMSYN088AAXX  10114 06762 33/// /0000 10045 20040 39961 40214 58/// 333 55300 20155 91103 91202;
0126067620999992011011012004+46167+008883FM-12+0198LSZL V0203601N000519999999N9999999N1+00451+00401102091ADDAA106000391MA1999999099561REMSYN088AAXX  10124 06762 03/// /3601 10045 20040 39956 40209 5//// 69931 333 553// 20162 60005;
0087067620999992011011013004+46167+008883FM-12+0198LSZL V0203001N000519999999N9999999N1+00481+00411102031ADDMA1999999099511REMSYN060AAXX  10134 06762 43/// /3001 10048 20041 39951 40203 5////;
0087067620999992011011014004+46167+008883FM-12+0198LSZL V0201701N000519999999N9999999N1+00471+00421102021ADDMA1999999099501REMSYN060AAXX  10144 06762 43/// /1701 10047 20042 39950 40202 5////;
0087067620999992011011015004+46167+008883FM-12+0198LSZL V0200101N000519999999N9999999N1+00431+00381102031ADDMA1999999099501REMSYN060AAXX  10154 06762 43/// /0101 10043 20038 39950 40203 5////;
0087067620999992011011016004+46167+008883FM-12+0198LSZL V0200401N000519999999N9999999N1+00321+00301102021ADDMA1999999099481REMSYN060AAXX  10164 06762 43/// /0401 10032 20030 39948 40202 5////;
0087067620999992011011017004+46167+008883FM-12+0198LSZL V0209999C000019999999N9999999N1+00381+00351102001ADDMA1999999099471REMSYN060AAXX  10174 06762 43/// /0000 10038 20035 39947 40200 5////;
0110067620999992011011018004+46167+008883FM-12+0198LSZL V0209999C000019999999N9999999N1+00301+00271102011ADDKA1999M+00491MA1999999099471REMSYN070AAXX  10184 06762 43/// /0000 10030 20027 39947 40201 5//// 333 10049;
0087067620999992011011019004+46167+008883FM-12+0198LSZL V0209999C000019999999N9999999N1+00341+00341101981ADDMA1999999099451REMSYN060AAXX  10194 06762 43/// /0000 10034 20034 39945 40198 5////;
0087067620999992011011020004+46167+008883FM-12+0198LSZL V0209999C000019999999N9999999N1+00351+00331101981ADDMA1999999099451REMSYN060AAXX  10204 06762 43/// /0000 10035 20033 39945 40198 5////;
0087067620999992011011021004+46167+008883FM-12+0198LSZL V0201901N000519999999N9999999N1+00381+00351101981ADDMA1999999099451REMSYN060AAXX  10214 06762 43/// /1901 10038 20035 39945 40198 5////;
0087067620999992011011022004+46167+008883FM-12+0198LSZL V0200601N000519999999N9999999N1+00311+00291101971ADDMA1999999099431REMSYN060AAXX  10224 06762 43/// /0601 10031 20029 39943 40197 5////;
0087067620999992011011023004+46167+008883FM-12+0198LSZL V0201101N000519999999N9999999N1+00311+00301101951ADDMA1999999099411REMSYN060AAXX  10234 06762 43/// /1101 10031 20030 39941 40195 5////;
0087067620999992011011100004+46167+008883FM-12+0198LSZL V0200801N000519999999N9999999N1+00231+00211101881ADDMA1999999099341REMSYN060AAXX  11004 06762 43/// /0801 10023 20021 39934 40188 5////;
0087067620999992011011101004+46167+008883FM-12+0198LSZL V0201801N000519999999N9999999N1+00331+00301101821ADDMA1999999099291REMSYN060AAXX  11014 06762 43/// /1801 10033 20030 39929 40182 5////;
0087067620999992011011102004+46167+008883FM-12+0198LSZL V0200601N000519999999N9999999N1+00311+00271101801ADDMA1999999099271REMSYN060AAXX  11024 06762 43/// /0601 10031 20027 39927 40180 5////;
0087067620999992011011103004+46167+008883FM-12+0198LSZL V0201001N000519999999N9999999N1+00391+00331101731ADDMA1999999099211REMSYN060AAXX  11034 06762 43/// /1001 10039 20033 39921 40173 5////;
0087067620999992011011104004+46167+008883FM-12+0198LSZL V0201301N000519999999N9999999N1+00261+00231101691ADDMA1999999099161REMSYN060AAXX  11044 06762 43/// /1301 10026 20023 39916 40169 5////;
0087067620999992011011105004+46167+008883FM-12+0198LSZL V0202501N001019999999N9999999N1+00281+00281101651ADDMA1999999099121REMSYN060AAXX  11054 06762 43/// /2502 10028 20028 39912 40165 5////;
0097067620999992011011106004+46167+008883FM-12+0198LSZL V0209999C000019999999N9999999N1+00281+00251101671ADDMA1999999099141REMSYN070AAXX  11064 06762 43/// /0000 10028 20025 39914 40167 5//// 333 55000;
0146067620999992011011107004+46167+008883FM-12+0198LSZL V0201401N001019999999N9999999N1+00371+00341101621ADDMA1999999099101MD1719999+9999OA149900211REMSYN094AAXX  11074 06762 23/// /1402 10037 20034 39910 40162 57/// 333 55300 20000 69915 91104 91202;
0103067620999992011011108004+46167+008883FM-12+0198LSZL V0209999C000019999999N9999999N1+00371+00311101631ADDMA1999999099111REMSYN076AAXX  11084 06762 33/// /0000 10037 20031 39911 40163 5//// 333 553// 20036;
0087067620999992011011109004+46167+008883FM-12+0198LSZL V0209999C000019999999N9999999N1+00411+00361101621ADDMA1999999099101REMSYN060AAXX  11094 06762 43/// /0000 10041 20036 39910 40162 5////;
0140067620999992011011110004+46167+008883FM-12+0198LSZL V0202301N000519999999N9999999N1+00491+00391101601ADDMA1999999099091MD1710011+9999OA149900101REMSYN088AAXX  11104 06762 33/// /2301 10049 20039 39909 40160 57001 333 55300 20234 91102 91201;
0140067620999992011011111004+46167+008883FM-12+0198LSZL V0200101N000519999999N9999999N1+00571+00461101511ADDMA1999999099011MD1710101+9999OA149900101REMSYN088AAXX  11114 06762 33/// /0101 10057 20046 39901 40151 57010 333 55300 20382 91102 91201;
0145067620999992011011112004+46167+008883FM-12+0198LSZL V0200501N000519999999N9999999N1+00661+00501101391ADDAA106000091MA1999999098901REMSYN088AAXX  11124 06762 03/// /0501 10066 20050 39890 40139 5//// 69911 333 553// 20590 60005;EQDQ01  00002PRCP06
0140067620999992011011113004+46167+008883FM-12+0198LSZL V0202601N001519999999N9999999N1+00661+00491101321ADDMA1999999098831MD1610261+9999OA149900311REMSYN088AAXX  11134 06762 33/// /2603 10066 20049 39883 40132 56026 333 55300 20414 91106 91203;
0087067620999992011011114004+46167+008883FM-12+0198LSZL V0209999C000019999999N9999999N1+00641+00481101291ADDMA1999999098801REMSYN060AAXX  11144 06762 43/// /0000 10064 20048 39880 40129 5////;
0087067620999992011011115004+46167+008883FM-12+0198LSZL V0209999C000019999999N9999999N1+00601+00471101291ADDMA1999999098801REMSYN060AAXX  11154 06762 43/// /0000 10060 20047 39880 40129 5////;
0140067620999992011011116004+46167+008883FM-12+0198LSZL V0202701N000519999999N9999999N1+00521+00461101341ADDMA1999999098841MD1310011+9999OA149900101REMSYN088AAXX  11164 06762 33/// /2701 10052 20046 39884 40134 53001 333 55300 20032 91102 91202;
0140067620999992011011117004+46167+008883FM-12+0198LSZL V0209999C000019999999N9999999N1+00481+00401101341ADDMA1999999098841MD1210041+9999OA149900151REMSYN088AAXX  11174 06762 33/// /0000 10048 20040 39884 40134 52004 333 55300 20000 91103 91202;
0201067620999992011011118004+46167+008883FM-12+0198LSZL V0209999C000019999999N9999999N1+00461+00401101391ADDAA112000091KA1120M+00691MA1999999098881MD1210081+9999OA149900311REMSYN106AAXX  11184 06762 03/// /0000 10046 20040 39888 40139 52008 69912 333 10069 55300 20000 60005 91106 91203;EQDQ01  00002PRCP12
0140067620999992011011119004+46167+008883FM-12+0198LSZL V0201201N000519999999N9999999N1+00471+00421101411ADDMA1999999098901MD1210061+9999OA149900101REMSYN088AAXX  11194 06762 33/// /1201 10047 20042 39890 40141 52006 333 55300 20000 91102 91201;
0140067620999992011011120004+46167+008883FM-12+0198LSZL V0203501N000519999999N9999999N1+00341+00321101451ADDMA1999999098931MD1210091+9999OA149900211REMSYN088AAXX  11204 06762 33/// /3501 10034 20032 39893 40145 52009 333 55300 20000 91104 91203;
0140067620999992011011121004+46167+008883FM-12+0198LSZL V0203601N001019999999N9999999N1+00141+00141101491ADDMA1999999098951MD1210071+9999OA149900211REMSYN088AAXX  11214 06762 33/// /3602 10014 20014 39895 40149 52007 333 55300 20000 91104 91203;
0140067620999992011011122004+46167+008883FM-12+0198LSZL V0201101N001019999999N9999999N1+00001+00001101541ADDMA1999999098991MD1210091+9999OA149900211REMSYN088AAXX  11224 06762 33/// /1102 10000 20000 39899 40154 52009 333 55300 20000 91104 91203;
0140067620999992011011123004+46167+008883FM-12+0198LSZL V0200501N000519999999N9999999N1+00081+00031101561ADDMA1999999099011MD1210081+9999OA149900151REMSYN088AAXX  11234 06762 33/// /0501 10008 20003 39901 40156 52008 333 55300 20000 91103 91202;
0140067620999992011011200004+46167+008883FM-12+0198LSZL V0200601N002119999999N9999999N1+00091+00011101581ADDMA1999999099031MD1210081+9999OA149900361REMSYN088AAXX  12004 06762 33/// /0604 10009 20001 39903 40158 52008 333 55300 20000 91107 91204;
0140067620999992011011201004+46167+008883FM-12+0198LSZL V0209999C000019999999N9999999N1+00211+00121101621ADDMA1999999099081MD1210091+9999OA149900361REMSYN088AAXX  12014 06762 33/// /0000 10021 20012 39908 40162 52009 333 55300 20000 91107 91204;
0103067620999992011011202004+46167+008883FM-12+0198LSZL V0201001N000519999999N9999999N1+00031-00011101731ADDMA1999999099171REMSYN076AAXX  12024 06762 33/// /1001 10003 21001 39917 40173 5//// 333 553// 20000;
0087067620999992011011203004+46167+008883FM-12+0198LSZL V0200701N000519999999N9999999N1+00001-00061101781ADDMA1999999099221REMSYN060AAXX  12034 06762 43/// /0701 10000 21006 39922 40178 5////;
0087067620999992011011204004+46167+008883FM-12+0198LSZL V0202801N000519999999N9999999N1+00011-00081101851ADDMA1999999099291REMSYN060AAXX  12044 06762 43/// /2801 10001 21008 39929 40185 5////;
0103067620999992011011205004+46167+008883FM-12+0198LSZL V0203101N000519999999N9999999N1-00031-00061101841ADDMA1999999099281REMSYN076AAXX  12054 06762 33/// /3101 11003 21006 39928 40184 5//// 333 553// 20000;
0178067620999992011011206004+46167+008883FM-12+0198LSZL V0202101N001019999999N9999999N1-00041-00101101931ADDAA124000091GJ100009IA2999-00409KA1999N-00131MA1999999099361REMSYN088AAXX  12064 06762 43/// /2102 11004 21010 39936 40193 5//// 333 21013 3/104 55000 70001;EQDQ01  00002PRCP24
0140067620999992011011207004+46167+008883FM-12+0198LSZL V0201001N000519999999N9999999N1-00091-00121102041ADDMA1999999099461MD1210171+9999OA149900261REMSYN088AAXX  12074 06762 33/// /1001 11009 21012 39946 40204 52017 333 55300 20000 91105 91203;
0087067620999992011011208004+46167+008883FM-12+0198LSZL V0202401N000519999999N9999999N1-00121-00161102091ADDMA1999999099511REMSYN060AAXX  12084 06762 43/// /2401 11012 21016 39951 40209 5////;
0087067620999992011011209004+46167+008883FM-12+0198LSZL V0200701N000519999999N9999999N1+00041-00011102091ADDMA1999999099531REMSYN060AAXX  12094 06762 43/// /0701 10004 21001 39953 40209 5////;
0140067620999992011011210004+46167+008883FM-12+0198LSZL V0209999C000019999999N9999999N1+00181+00101102141ADDMA1999999099591MD1219999+9999OA149900211REMSYN088AAXX  12104 06762 33/// /0000 10018 20010 39959 40214 52/// 333 55305 20680 91104 91202;
0140067620999992011011211004+46167+008883FM-12+0198LSZL V0201301N000519999999N9999999N1+00461+00231102121ADDMA1999999099591MD1210081+9999OA149900151REMSYN088AAXX  12114 06762 33/// /1301 10046 20023 39959 40212 52008 333 55303 20835 91103 91202;
0087067620999992011011212004+46167+008883FM-12+0198LSZL V0200701N001019999999N9999999N1+00661+00311102041ADDMA1999999099531REMSYN060AAXX  12124 06762 43/// /0702 10066 20031 39953 40204 5////;
0087067620999992011011213004+46167+008883FM-12+0198LSZL V0201201N000519999999N9999999N1+00781+00301101981ADDMA1999999099491REMSYN060AAXX  12134 06762 43/// /1201 10078 20030 39949 40198 5////;
0087067620999992011011214004+46167+008883FM-12+0198LSZL V0202201N001019999999N9999999N1+00891+00421101961ADDMA1999999099481REMSYN060AAXX  12144 06762 43/// /2202 10089 20042 39948 40196 5////;
0087067620999992011011215004+46167+008883FM-12+0198LSZL V0202801N000519999999N9999999N1+00471+00211102031ADDMA1999999099511REMSYN060AAXX  12154 06762 43/// /2801 10047 20021 39951 40203 5////;
0140067620999992011011216004+46167+008883FM-12+0198LSZL V0209999C000019999999N9999999N1+00431+00231102111ADDMA1999999099581MD1210091+9999OA149900211REMSYN088AAXX  12164 06762 33/// /0000 10043 20023 39958 40211 52009 333 55300 20094 91104 91203;
0140067620999992011011217004+46167+008883FM-12+0198LSZL V0201001N000519999999N9999999N1+00311+00181102201ADDMA1999999099661MD1310181+9999OA149900151REMSYN088AAXX  12174 06762 33/// /1001 10031 20018 39966 40220 53018 333 55300 20000 91103 91202;
0159067620999992011011218004+46167+008883FM-12+0198LSZL V0200701N000519999999N9999999N1+00221+00131102201ADDKA1120M+00891MA1999999099651MD1210141+9999OA149900211REMSYN094AAXX  12184 06762 33/// /0701 10022 20013 39965 40220 52014 333 10089 55300 20000 91104 91203;
0140067620999992011011219004+46167+008883FM-12+0198LSZL V0200801N000519999999N9999999N1+00151+00071102251ADDMA1999999099691MD1210111+9999OA149900151REMSYN088AAXX  12194 06762 33/// /0801 10015 20007 39969 40225 52011 333 55300 20000 91103 91202;
0140067620999992011011220004+46167+008883FM-12+0198LSZL V0209999C000019999999N9999999N1+00051+00011102281ADDMA1999999099711MD1210051+9999OA149900151REMSYN088AAXX  12204 06762 33/// /0000 10005 20001 39971 40228 52005 333 55300 20000 91103 91202;
0140067620999992011011221004+46167+008883FM-12+0198LSZL V0209999C000019999999N9999999N1+00021-00011102281ADDMA1999999099711MD1210061+9999OA149900151REMSYN088AAXX  12214 06762 33/// /0000 10002 21001 39971 40228 52006 333 55300 20000 91103 91202;
0140067620999992011011222004+46167+008883FM-12+0198LSZL V0200801N000519999999N9999999N1+00151+00041102281ADDMA1999999099721MD1210031+9999OA149900101REMSYN088AAXX  12224 06762 33/// /0801 10015 20004 39972 40228 52003 333 55300 20000 91102 91201;
0140067620999992011011223004+46167+008883FM-12+0198LSZL V0201001N001019999999N9999999N1+00061+00021102281ADDMA1999999099711MD1410001+9999OA149900151REMSYN088AAXX  12234 06762 33/// /1002 10006 20002 39971 40228 58000 333 55300 20000 91103 91202;
0140067620999992011011300004+46167+008883FM-12+0198LSZL V0202001N000519999999N9999999N1-00081-00111102261ADDMA1999999099681MD1810031+9999OA149900211REMSYN088AAXX  13004 06762 33/// /2001 11008 21011 39968 40226 58003 333 55300 20000 91104 91203;
0140067620999992011011301004+46167+008883FM-12+0198LSZL V0200801N000519999999N9999999N1+00011-00031102191ADDMA1999999099621MD1710101+9999OA149900151REMSYN088AAXX  13014 06762 33/// /0801 10001 21003 39962 40219 57010 333 55300 20000 91103 91202;
0140067620999992011011302004+46167+008883FM-12+0198LSZL V0200901N000519999999N9999999N1-00091-00151102211ADDMA1999999099631MD1719999+9999OA149900151REMSYN088AAXX  13024 06762 33/// /0901 11009 21015 39963 40221 57/// 333 55300 20000 91103 91202;
0087067620999992011011303004+46167+008883FM-12+0198LSZL V0202801N000519999999N9999999N1-00091-00121102161ADDMA1999999099581REMSYN060AAXX  13034 06762 43/// /2801 11009 21012 39958 40216 5////;
0140067620999992011011304004+46167+008883FM-12+0198LSZL V0209999C000019999999N9999999N1-00061-00101102091ADDMA1999999099521MD1719999+9999OA149900151REMSYN088AAXX  13044 06762 33/// /0000 11006 21010 39952 40209 57/// 333 55300 20000 91103 91202;
0103067620999992011011305004+46167+008883FM-12+0198LSZL V0200701N000519999999N9999999N1-00121-00161102081ADDMA1999999099501REMSYN076AAXX  13054 06762 33/// /0701 11012 21016 39950 40208 5//// 333 553// 20000;
0207067620999992011011306004+46167+008883FM-12+0198LSZL V0209999C000019999999N9999999N1-00071-00141102071ADDAL19900091GJ102349IA2999-00409KA1999N-00161MA1999999099501MD1510081+9999OA149900151REMSYN112AAXX  13064 06762 33/// /0000 11007 21014 39950 40207 55008 333 21016 3/104 55039 55300 20000 70000 91103 91202;
0087067620999992011011307004+46167+008883FM-12+0198LSZL V0200701N000519999999N9999999N1-00111-00161102101ADDMA1999999099521REMSYN060AAXX  13074 06762 43/// /0701 11011 21016 39952 40210 5////;
0087067620999992011011308004+46167+008883FM-12+0198LSZL V0200601N000519999999N9999999N1-00101-00151102101ADDMA1999999099521REMSYN060AAXX  13084 06762 43/// /0601 11010 21015 39952 40210 5////;
0087067620999992011011309004+46167+008883FM-12+0198LSZL V0200301N000519999999N9999999N1+00061-00031102071ADDMA1999999099511REMSYN060AAXX  13094 06762 43/// /0301 10006 21003 39951 40207 5////;
0087067620999992011011310004+46167+008883FM-12+0198LSZL V0200801N000519999999N9999999N1+00421+00261102021ADDMA1999999099491REMSYN060AAXX  13104 06762 43/// /0801 10042 20026 39949 40202 5////;
0087067620999992011011311004+46167+008883FM-12+0198LSZL V0201901N001019999999N9999999N1+00491+00261101911ADDMA1999999099391REMSYN060AAXX  13114 06762 43/// /1902 10049 20026 39939 40191 5////;
0087067620999992011011312004+46167+008883FM-12+0198LSZL V0202501N001019999999N9999999N1+00791+00421101741ADDMA1999999099251REMSYN060AAXX  13124 06762 43/// /2502 10079 20042 39925 40174 5////;
0087067620999992011011313004+46167+008883FM-12+0198LSZL V0201401N000519999999N9999999N1+00821+00331101671ADDMA1999999099191REMSYN060AAXX  13134 06762 43/// /1401 10082 20033 39919 40167 5////;
0087067620999992011011314004+46167+008883FM-12+0198LSZL V0202301N000519999999N9999999N1+00891+00361101681ADDMA1999999099201REMSYN060AAXX  13144 06762 43/// /2301 10089 20036 39920 40168 5////;
0087067620999992011011315004+46167+008883FM-12+0198LSZL V0202501N001019999999N9999999N1+00641+00371101691ADDMA1999999099191REMSYN060AAXX  13154 06762 43/// /2502 10064 20037 39919 40169 5////;
0087067620999992011011316004+46167+008883FM-12+0198LSZL V0201001N000519999999N9999999N1+00331+00261101781ADDMA1999999099251REMSYN060AAXX  13164 06762 43/// /1001 10033 20026 39925 40178 5////;
0140067620999992011011317004+46167+008883FM-12+0198LSZL V0201201N000519999999N9999999N1+00281+00171101851ADDMA1999999099311MD1210111+9999OA149900311REMSYN088AAXX  13174 06762 33/// /1201 10028 20017 39931 40185 52011 333 55300 20000 91106 91203;
0159067620999992011011318004+46167+008883FM-12+0198LSZL V0203401N000519999999N9999999N1+00181+00101101861ADDKA1120M+00901MA1999999099311MD1210121+9999OA149900311REMSYN094AAXX  13184 06762 33/// /3401 10018 20010 39931 40186 52012 333 10090 55300 20000 91106 91203;
0140067620999992011011319004+46167+008883FM-12+0198LSZL V0200801N001019999999N9999999N1+00191+00101101881ADDMA1999999099341MD1210091+9999OA149900211REMSYN088AAXX  13194 06762 33/// /0802 10019 20010 39934 40188 52009 333 55300 20000 91104 91202;
0140067620999992011011320004+46167+008883FM-12+0198LSZL V0200401N000519999999N9999999N1+00061+00011101921ADDMA1999999099361MD1210051+9999OA149900211REMSYN088AAXX  13204 06762 33/// /0401 10006 20001 39936 40192 52005 333 55300 20000 91104 91202;
0140067620999992011011321004+46167+008883FM-12+0198LSZL V0201001N001019999999N9999999N1+00101+00061101921ADDMA1999999099371MD1210061+9999OA149900311REMSYN088AAXX  13214 06762 33/// /1002 10010 20006 39937 40192 52006 333 55300 20000 91106 91203;
0140067620999992011011322004+46167+008883FM-12+0198LSZL V0201401N001019999999N9999999N1+00421+00271101891ADDMA1999999099371MD1010031+9999OA149900361REMSYN088AAXX  13224 06762 33/// /1402 10042 20027 39937 40189 50003 333 55300 20000 91107 91203;
0140067620999992011011323004+46167+008883FM-12+0198LSZL V0202601N001019999999N9999999N1+00221+00081101911ADDMA1999999099371MD1010011+9999OA149900361REMSYN088AAXX  13234 06762 33/// /2602 10022 20008 39937 40191 50001 333 55300 20000 91107 91203;
0140067620999992011011400004+46167+008883FM-12+0198LSZL V0200801N001019999999N9999999N1+00181+00101101921ADDMA1999999099371MD1010001+9999OA149900361REMSYN088AAXX  14004 06762 33/// /0802 10018 20010 39937 40192 50000 333 55300 20000 91107 91203;
0159067620999992011011401004+46167+008883FM-12+0198LSZL V0209999C000019999999N9999999N1+00091+00071101931ADDMA1999999099371MD1710041+9999OA149900261REMSYN088AAXX  14014 06762 33/// /0000 10009 20007 39937 40193 57000 333 55300 20000 91105 91204;EQDQ01+000002APC3  
0103067620999992011011402004+46167+008883FM-12+0198LSZL V0200401N000519999999N9999999N1-00031-00081101981ADDMA1999999099411REMSYN076AAXX  14024 06762 33/// /0401 11003 21008 39941 40198 5//// 333 553// 20000;
0140067620999992011011403004+46167+008883FM-12+0198LSZL V0209999C000019999999N9999999N1-00011-00061101991ADDMA1999999099421MD1210051+9999OA149900361REMSYN088AAXX  14034 06762 33/// /0000 11001 21006 39942 40199 52005 333 55300 20000 91107 91204;
0140067620999992011011404004+46167+008883FM-12+0198LSZL V0200401N000519999999N9999999N1-00041-00111101971ADDMA1999999099401MD1010031+9999OA149900151REMSYN088AAXX  14044 06762 33/// /0401 11004 21011 39940 40197 50003 333 55300 20000 91103 91201;
0140067620999992011011405004+46167+008883FM-12+0198LSZL V0200801N000519999999N9999999N1+00001-00061101991ADDMA1999999099421MD1210011+9999OA149900211REMSYN088AAXX  14054 06762 33/// /0801 10000 21006 39942 40199 52001 333 55300 20000 91104 91202;
0207067620999992011011406004+46167+008883FM-12+0198LSZL V0200901N001019999999N9999999N1-00031-00111102031ADDAL19900091GJ103489IA2999-00309KA1999N-00071MA1999999099461MD1310041+9999OA149900361REMSYN112AAXX  14064 06762 33/// /0902 11003 21011 39946 40203 53004 333 21007 3/103 55058 55300 20000 70000 91107 91204;
0140067620999992011011407004+46167+008883FM-12+0198LSZL V0201601N000519999999N9999999N1-00061-00101102071ADDMA1999999099501MD1310101+9999OA149900211REMSYN088AAXX  14074 06762 33/// /1601 11006 21010 39950 40207 53010 333 55300 20000 91104 91202;
0087067620999992011011408004+46167+008883FM-12+0198LSZL V0202701N000519999999N9999999N1-00041-00081102131ADDMA1999999099561REMSYN060AAXX  14084 06762 43/// /2701 11004 21008 39956 40213 5////;
0087067620999992011011409004+46167+008883FM-12+0198LSZL V0209999C000019999999N9999999N1+00071+00011102161ADDMA1999999099601REMSYN060AAXX  14094 06762 43/// /0000 10007 20001 39960 40216 5////;
0087067620999992011011410004+46167+008883FM-12+0198LSZL V0202201N000519999999N9999999N1+00271+00271102171ADDMA1999999099631REMSYN060AAXX  14104 06762 43/// /2201 10027 20027 39963 40217 5////;
0140067620999992011011411004+46167+008883FM-12+0198LSZL V0202501N001019999999N9999999N1+00461+00381102141ADDMA1999999099611MD1010051+9999OA149900211REMSYN088AAXX  14114 06762 33/// /2502 10046 20038 39961 40214 50005 333 55300 20504 91104 91202;
0140067620999992011011412004+46167+008883FM-12+0198LSZL V0202601N001519999999N9999999N1+00441+00341102091ADDMA1999999099561MD1710041+9999OA149900261REMSYN088AAXX  14124 06762 33/// /2603 10044 20034 39956 40209 57004 333 55300 20461 91105 91204;
0140067620999992011011413004+46167+008883FM-12+0198LSZL V0202401N001519999999N9999999N1+00421+00361102061ADDMA1999999099531MD1810101+9999OA149900311REMSYN088AAXX  14134 06762 33/// /2403 10042 20036 39953 40206 58010 333 55300 20400 91106 91204;
0103067620999992011011414004+46167+008883FM-12+0198LSZL V0202001N000519999999N9999999N1+00381+00321102051ADDMA1999999099521REMSYN076AAXX  14144 06762 33/// /2001 10038 20032 39952 40205 5//// 333 553// 20295;
0140067620999992011011415004+46167+008883FM-12+0198LSZL V0202501N000519999999N9999999N1+00381+00331102101ADDMA1999999099571MD1310011+9999OA149900311REMSYN088AAXX  14154 06762 33/// /2501 10038 20033 39957 40210 53001 333 55300 20148 91106 91204;
0140067620999992011011416004+46167+008883FM-12+0198LSZL V0202601N001019999999N9999999N1+00351+00281102121ADDMA1999999099581MD1210051+9999OA149900151REMSYN088AAXX  14164 06762 33/// /2602 10035 20028 39958 40212 52005 333 55300 20043 91103 91203;
0140067620999992011011417004+46167+008883FM-12+0198LSZL V0209999C000019999999N9999999N1+00301+00271102191ADDMA1999999099651MD1210131+9999OA149900151REMSYN088AAXX  14174 06762 33/// /0000 10030 20027 39965 40219 52013 333 55300 20000 91103 91202;
0159067620999992011011418004+46167+008883FM-12+0198LSZL V0201101N001019999999N9999999N1+00261+00261102241ADDKA1120M+00461MA1999999099691MD1210121+9999OA149900311REMSYN094AAXX  14184 06762 33/// /1102 10026 20026 39969 40224 52012 333 10046 55300 20000 91106 91204;
0140067620999992011011419004+46167+008883FM-12+0198LSZL V0202301N000519999999N9999999N1+00241+00241102221ADDMA1999999099671MD1010091+9999OA149900151REMSYN088AAXX  14194 06762 33/// /2301 10024 20024 39967 40222 50009 333 55300 20000 91103 91202;
0140067620999992011011420004+46167+008883FM-12+0198LSZL V0209999C000019999999N9999999N1+00201+00201102211ADDMA1999999099661MD1010011+9999OA149900151REMSYN088AAXX  14204 06762 33/// /0000 10020 20020 39966 40221 50001 333 55300 20000 91103 91202;
0140067620999992011011421004+46167+008883FM-12+0198LSZL V0209999C000019999999N9999999N1+00201+00171102221ADDMA1999999099671MD1710021+9999OA149900151REMSYN088AAXX  14214 06762 33/// /0000 10020 20017 39967 40222 57002 333 55300 20000 91103 91202;
0140067620999992011011422004+46167+008883FM-12+0198LSZL V0200901N001019999999N9999999N1+00191+00191102231ADDMA1999999099681MD1310011+9999OA149900151REMSYN088AAXX  14224 06762 33/// /0902 10019 20019 39968 40223 53001 333 55300 20000 91103 91202;
0140067620999992011011423004+46167+008883FM-12+0198LSZL V0209999C000019999999N9999999N1+00191+00161102211ADDMA1999999099661MD1010001+9999OA149900151REMSYN088AAXX  14234 06762 33/// /0000 10019 20016 39966 40221 50000 333 55300 20000 91103 91202;
0140067620999992011011500004+46167+008883FM-12+0198LSZL V0201101N000519999999N9999999N1+00181+00181102161ADDMA1999999099611MD1710061+9999OA149900311REMSYN088AAXX  15004 06762 33/// /1101 10018 20018 39961 40216 57006 333 55300 20000 91106 91204;
0140067620999992011011501004+46167+008883FM-12+0198LSZL V0200101N000519999999N9999999N1+00151+00151102251ADDMA1999999099691MD1210011+9999OA149900151REMSYN088AAXX  15014 06762 33/// /0101 10015 20015 39969 40225 52001 333 55300 20000 91103 91202;
0140067620999992011011502004+46167+008883FM-12+0198LSZL V0201401N001019999999N9999999N1+00221+00201102231ADDMA1999999099681MD1219999+9999OA149900311REMSYN088AAXX  15024 06762 33/// /1402 10022 20020 39968 40223 52/// 333 55300 20000 91106 91204;
0103067620999992011011503004+46167+008883FM-12+0198LSZL V0201901N000519999999N9999999N1+00171+00131102221ADDMA1999999099661REMSYN076AAXX  15034 06762 33/// /1901 10017 20013 39966 40222 5//// 333 553// 20000;
0140067620999992011011504004+46167+008883FM-12+0198LSZL V0202401N001019999999N9999999N1+00141+00091102251ADDMA1999999099691MD1510001+9999OA149900461REMSYN088AAXX  15044 06762 33/// /2402 10014 20009 39969 40225 55000 333 55300 20000 91109 91204;
0140067620999992011011505004+46167+008883FM-12+0198LSZL V0202601N001019999999N9999999N1-00011-00021102271ADDMA1999999099701MD1210021+9999OA149900261REMSYN088AAXX  15054 06762 33/// /2602 11001 21002 39970 40227 52002 333 55300 20000 91105 91202;
0207067620999992011011506004+46167+008883FM-12+0198LSZL V0200401N000519999999N9999999N1-00061-00061102271ADDAL19900091GJ100249IA2999-00209KA1999N-00041MA1999999099691MD1210031+9999OA149900461REMSYN112AAXX  15064 06762 33/// /0401 11006 21006 39969 40227 52003 333 21004 3/102 55004 55300 20000 70000 91109 91204;
0140067620999992011011507004+46167+008883FM-12+0198LSZL V0202601N001519999999N9999999N1-00021-00081102351ADDMA1999999099771MD1210081+9999OA149900361REMSYN088AAXX  15074 06762 33/// /2603 11002 21008 39977 40235 52008 333 55300 20000 91107 91203;
0140067620999992011011508004+46167+008883FM-12+0198LSZL V0203001N001019999999N9999999N1-00071-00111102421ADDMA1999999099841MD1319999+9999OA149900311REMSYN088AAXX  15084 06762 33/// /3002 11007 21011 39984 40242 53/// 333 55300 20032 91106 91203;
0140067620999992011011509004+46167+008883FM-12+0198LSZL V0200801N001519999999N9999999N1+00071+00031102461ADDMA1999999099891MD1110201+9999OA149900361REMSYN088AAXX  15094 06762 33/// /0803 10007 20003 39989 40246 51020 333 55303 20256 91107 91203;
0140067620999992011011510004+46167+008883FM-12+0198LSZL V0209999C000019999999N9999999N1+00381+00281102451ADDMA1999999099911MD1210141+9999OA149900261REMSYN088AAXX  15104 06762 33/// /0000 10038 20028 39991 40245 52014 333 553// 20983 91105 91203;
0140067620999992011011511004+46167+008883FM-12+0198LSZL V0201801N001019999999N9999999N1+00661+00371102411ADDMA1999999099901MD1010061+9999OA149900261REMSYN088AAXX  15114 06762 33/// /1802 10066 20037 39990 40241 50006 333 553// 2//// 91105 91202;
0140067620999992011011512004+46167+008883FM-12+0198LSZL V0202101N001019999999N9999999N1+00831+00401102391ADDMA1999999099891MD1010001+9999OA149900461REMSYN088AAXX  15124 06762 33/// /2102 10083 20040 39989 40239 50000 333 553// 2//// 91109 91204;
0103067620999992011011513004+46167+008883FM-12+0198LSZL V0202001N001519999999N9999999N1+00891+00331102381ADDMA1999999099891REMSYN076AAXX  15134 06762 33/// /2003 10089 20033 39989 40238 5//// 333 553// 2////;
0087067620999992011011514004+46167+008883FM-12+0198LSZL V0202401N001519999999N9999999N1+00921+00311102421ADDMA1999999099931REMSYN060AAXX  15144 06762 43/// /2403 10092 20031 39993 40242 5////;
0087067620999992011011515004+46167+008883FM-12+0198LSZL V0201601N000519999999N9999999N1+00661+00321102521ADDMA1999999100001REMSYN060AAXX  15154 06762 43/// /1601 10066 20032 30000 40252 5////;
0087067620999992011011516004+46167+008883FM-12+0198LSZL V0203201N000519999999N9999999N1+00381+00201102621ADDMA1999999100071REMSYN060AAXX  15164 06762 43/// /3201 10038 20020 30007 40262 5////;
0103067620999992011011517004+46167+008883FM-12+0198LSZL V0201201N000519999999N9999999N1+00231+00071102701ADDMA1999999100141REMSYN076AAXX  15174 06762 33/// /1201 10023 20007 30014 40270 5//// 333 553// 20000;
0110067620999992011011518004+46167+008883FM-12+0198LSZL V0202501N000519999999N9999999N1+00121+00031102771ADDKA1999M+00961MA1999999100201REMSYN070AAXX  15184 06762 43/// /2501 10012 20003 30020 40277 5//// 333 10096;
0087067620999992011011519004+46167+008883FM-12+0198LSZL V0201801N000519999999N9999999N1+00081+00011102871ADDMA1999999100291REMSYN060AAXX  15194 06762 43/// /1801 10008 20001 30029 40287 5////;
0087067620999992011011520004+46167+008883FM-12+0198LSZL V0201001N001019999999N9999999N1+00131+00031102921ADDMA1999999100341REMSYN060AAXX  15204 06762 43/// /1002 10013 20003 30034 40292 5////;
0140067620999992011011521004+46167+008883FM-12+0198LSZL V0209999C000019999999N9999999N1-00061-00141102991ADDMA1999999100391MD1110191+9999OA149900211REMSYN088AAXX  15214 06762 33/// /0000 11006 21014 30039 40299 51019 333 55300 20000 91104 91202;
0140067620999992011011522004+46167+008883FM-12+0198LSZL V0202501N000519999999N9999999N1-00051-00081103031ADDMA1999999100431MD1110141+9999OA149900151REMSYN088AAXX  15224 06762 33/// /2501 11005 21008 30043 40303 51014 333 55300 20000 91103 91202;
0140067620999992011011523004+46167+008883FM-12+0198LSZL V0201601N000519999999N9999999N1+00031+00031103031ADDMA1999999100441MD1210101+9999OA149900151REMSYN088AAXX  15234 06762 33/// /1601 10003 20003 30044 40303 52010 333 55300 20000 91103 91202;
0140067620999992011011600004+46167+008883FM-12+0198LSZL V0200101N000519999999N9999999N1+00071+00051103001ADDMA1999999100421MD1010031+9999OA149900261REMSYN088AAXX  16004 06762 33/// /0101 10007 20005 30042 40300 50003 333 55300 20000 91105 91204;
0140067620999992011011601004+46167+008883FM-12+0198LSZL V0203501N000519999999N9999999N1-00021-00021103031ADDMA1999999100441MD1510011+9999OA149900211REMSYN088AAXX  16014 06762 33/// /3501 11002 21002 30044 40303 55001 333 55300 20000 91104 91203;
0140067620999992011011602004+46167+008883FM-12+0198LSZL V0202101N000519999999N9999999N1-00121-00121103071ADDMA1999999100471MD1319999+9999OA149900151REMSYN088AAXX  16024 06762 33/// /2101 11012 21012 30047 40307 53/// 333 55300 20000 91103 91203;
0087067620999992011011603004+46167+008883FM-12+0198LSZL V0209999C000019999999N9999999N1-00161-00161103111ADDMA1999999100501REMSYN060AAXX  16034 06762 43/// /0000 11016 21016 30050 40311 5////;
0140067620999992011011604004+46167+008883FM-12+0198LSZL V0201801N000519999999N9999999N1-00101-00101103131ADDMA1999999100531MD1210091+9999OA149900151REMSYN088AAXX  16044 06762 33/// /1801 11010 21010 30053 40313 52009 333 55300 20000 91103 91202;
0140067620999992011011605004+46167+008883FM-12+0198LSZL V0200801N000519999999N9999999N1-00041-00041103191ADDMA1999999100591MD1310121+9999OA149900151REMSYN088AAXX  16054 06762 33/// /0801 11004 21004 30059 40319 53012 333 55300 20000 91103 91202;
0207067620999992011011606004+46167+008883FM-12+0198LSZL V0201101N001019999999N9999999N1-00061-00061103221ADDAL19900091GJ103549IA2999-00409KA1999N-00201MA1999999100621MD1310121+9999OA149900211REMSYN112AAXX  16064 06762 33/// /1102 11006 21006 30062 40322 53012 333 21020 3/104 55059 55300 20000 70000 91104 91203;
0140067620999992011011607004+46167+008883FM-12+0198LSZL V0209999C000019999999N9999999N1-00131-00131103241ADDMA1999999100631MD1110101+9999OA149900151REMSYN088AAXX  16074 06762 33/// /0000 11013 21013 30063 40324 51010 333 55300 20000 91103 91203;
0140067620999992011011608004+46167+008883FM-12+0198LSZL V0200901N001519999999N9999999N1-00161-00161103261ADDMA1999999100651MD1319999+9999OA149900211REMSYN088AAXX  16084 06762 33/// /0903 11016 21016 30065 40326 53/// 333 55300 20032 91104 91203;
0140067620999992011011609004+46167+008883FM-12+0198LSZL V0200901N001519999999N9999999N1-00051-00121103251ADDMA1999999100651MD1210031+9999OA149900261REMSYN088AAXX  16094 06762 33/// /0903 11005 21012 30065 40325 52003 333 55303 20274 91105 91203;
0140067620999992011011610004+46167+008883FM-12+0198LSZL V0202101N001019999999N9999999N1+00201+00051103201ADDMA1999999100621MD1810011+9999OA149900261REMSYN088AAXX  16104 06762 33/// /2102 10020 20005 30062 40320 58001 333 553// 20997 91105 91203;
0140067620999992011011611004+46167+008883FM-12+0198LSZL V0201501N000519999999N9999999N1+00431+00181103141ADDMA1999999100591MD1710061+9999OA149900261REMSYN088AAXX  16114 06762 33/// /1501 10043 20018 30059 40314 57006 333 553// 2//// 91105 91203;
0140067620999992011011612004+46167+008883FM-12+0198LSZL V0201901N000519999999N9999999N1+00721+00271103051ADDMA1999999100531MD1810121+9999OA149900261REMSYN088AAXX  16124 06762 33/// /1901 10072 20027 30053 40305 58012 333 553// 2//// 91105 91203;
0140067620999992011011613004+46167+008883FM-12+0198LSZL V0202001N001019999999N9999999N1+00821+00181102991ADDMA1999999100481MD1810141+9999OA149900151REMSYN088AAXX  16134 06762 33/// /2002 10082 20018 30048 40299 58014 333 553// 2//// 91103 91202;
0140067620999992011011614004+46167+008883FM-12+0198LSZL V0202301N001519999999N9999999N1+00801+00251102981ADDMA1999999100461MD1619999+9999OA149900211REMSYN088AAXX  16144 06762 33/// /2303 10080 20025 30046 40298 56/// 333 553// 2//// 91104 91203;
0140067620999992011011615004+46167+008883FM-12+0198LSZL V0202401N001519999999N9999999N1+00421+00041103031ADDMA1999999100481MD1510051+9999OA149900261REMSYN088AAXX  16154 06762 33/// /2403 10042 20004 30048 40303 55005 333 55306 20490 91105 91203;
0140067620999992011011616004+46167+008883FM-12+0198LSZL V0209999C000019999999N9999999N1+00281+00051103071ADDMA1999999100501MD1310021+9999OA149900211REMSYN088AAXX  16164 06762 33/// /0000 10028 20005 30050 40307 53002 333 55300 20050 91104 91203;
0140067620999992011011617004+46167+008883FM-12+0198LSZL V0200601N000519999999N9999999N1+00131+00011103141ADDMA1999999100561MD1310101+9999OA149900151REMSYN088AAXX  16174 06762 33/// /0601 10013 20001 30056 40314 53010 333 55300 20000 91103 91202;
0159067620999992011011618004+46167+008883FM-12+0198LSZL V0200901N000519999999N9999999N1+00091-00021103201ADDKA1120M+00861MA1999999100611MD1310131+9999OA149900261REMSYN094AAXX  16184 06762 33/// /0901 10009 21002 30061 40320 53013 333 10086 55300 20000 91105 91203;
0140067620999992011011619004+46167+008883FM-12+0198LSZL V0200801N001019999999N9999999N1-00011-00091103251ADDMA1999999100651MD1110151+9999OA149900151REMSYN088AAXX  16194 06762 33/// /0802 11001 21009 30065 40325 51015 333 55300 20000 91103 91202;
0140067620999992011011620004+46167+008883FM-12+0198LSZL V0200701N000519999999N9999999N1-00031-00101103241ADDMA1999999100641MD1210081+9999OA149900151REMSYN088AAXX  16204 06762 33/// /0701 11003 21010 30064 40324 52008 333 55300 20000 91103 91202;
0140067620999992011011621004+46167+008883FM-12+0198LSZL V0200301N000519999999N9999999N1-00081-00141103251ADDMA1999999100651MD1210041+9999OA149900151REMSYN088AAXX  16214 06762 33/// /0301 11008 21014 30065 40325 52004 333 55300 20000 91103 91202;
0140067620999992011011622004+46167+008883FM-12+0198LSZL V0200901N001019999999N9999999N1-00031-00101103231ADDMA1999999100631MD1810021+9999OA149900151REMSYN088AAXX  16224 06762 33/// /0902 11003 21010 30063 40323 58002 333 55300 20000 91103 91202;
0140067620999992011011623004+46167+008883FM-12+0198LSZL V0209999C000019999999N9999999N1-00111-00161103231ADDMA1999999100621MD1810021+9999OA149900211REMSYN088AAXX  16234 06762 33/// /0000 11011 21016 30062 40323 58002 333 55300 20000 91104 91203;
0140067620999992011011700004+46167+008883FM-12+0198LSZL V0201001N000519999999N9999999N1-00161-00211103201ADDMA1999999100591MD1710061+9999OA149900211REMSYN088AAXX  17004 06762 33/// /1001 11016 21021 30059 40320 57006 333 55300 20000 91104 91203;
0140067620999992011011701004+46167+008883FM-12+0198LSZL V0201001N000519999999N9999999N1-00141-00201103161ADDMA1999999100551MD1810081+9999OA149900101REMSYN088AAXX  17014 06762 33/// /1001 11014 21020 30055 40316 58008 333 55300 20000 91102 91202;
0140067620999992011011702004+46167+008883FM-12+0198LSZL V0200701N000519999999N9999999N1-00111-00161103131ADDMA1999999100531MD1719999+9999OA149900151REMSYN088AAXX  17024 06762 33/// /0701 11011 21016 30053 40313 57/// 333 55300 20000 91103 91202;
0103067620999992011011703004+46167+008883FM-12+0198LSZL V0200701N001019999999N9999999N1-00181-00221103111ADDMA1999999100501REMSYN076AAXX  17034 06762 33/// /0702 11018 21022 30050 40311 5//// 333 553// 20000;
0140067620999992011011704004+46167+008883FM-12+0198LSZL V0200601N001019999999N9999999N1-00211-00251103081ADDMA1999999100471MD1710081+9999OA149900151REMSYN088AAXX  17044 06762 33/// /0602 11021 21025 30047 40308 57008 333 55300 20000 91103 91202;
0140067620999992011011705004+46167+008883FM-12+0198LSZL V0209999C000019999999N9999999N1-00191-00251103051ADDMA1999999100441MD1710091+9999OA149900151REMSYN088AAXX  17054 06762 33/// /0000 11019 21025 30044 40305 57009 333 55300 20000 91103 91202;
0207067620999992011011706004+46167+008883FM-12+0198LSZL V0201801N000519999999N9999999N1-00221-00281103031ADDAL19900091GJ103609IA2999-00609KA1999N-00261MA1999999100421MD1710081+9999OA149900211REMSYN112AAXX  17064 06762 33/// /1801 11022 21028 30042 40303 57008 333 21026 3/106 55060 55300 20000 70000 91104 91203;
0140067620999992011011707004+46167+008883FM-12+0198LSZL V0209999C000019999999N9999999N1-00231-00281103041ADDMA1999999100431MD1710041+9999OA149900151REMSYN088AAXX  17074 06762 33/// /0000 11023 21028 30043 40304 57004 333 55300 20000 91103 91202;
0087067620999992011011708004+46167+008883FM-12+0198LSZL V0200701N000519999999N9999999N1-00181-00251103041ADDMA1999999100431REMSYN060AAXX  17084 06762 43/// /0701 11018 21025 30043 40304 5////;
0087067620999992011011709004+46167+008883FM-12+0198LSZL V0201301N000519999999N9999999N1-00061-00131103031ADDMA1999999100431REMSYN060AAXX  17094 06762 43/// /1301 11006 21013 30043 40303 5////;
0140067620999992011011710004+46167+008883FM-12+0198LSZL V0209999C000019999999N9999999N1+00331+00151102971ADDMA1999999100411MD1710021+9999OA149900151REMSYN088AAXX  17104 06762 33/// /0000 10033 20015 30041 40297 57002 333 553// 20749 91103 91202;
0140067620999992011011711004+46167+008883FM-12+0198LSZL V0201001N000519999999N9999999N1+00611+00101102871ADDMA1999999100341MD1710091+9999OA149900151REMSYN088AAXX  17114 06762 33/// /1001 10061 20010 30034 40287 57009 333 553// 2//// 91103 91202;
0140067620999992011011712004+46167+008883FM-12+0198LSZL V0202001N000519999999N9999999N1+00761+00081102751ADDMA1999999100241MD1810191+9999OA149900151REMSYN088AAXX  17124 06762 33/// /2001 10076 20008 30024 40275 58019 333 553// 2//// 91103 91202;
0140067620999992011011713004+46167+008883FM-12+0198LSZL V0202001N001019999999N9999999N1+00891+00021102671ADDMA1999999100171MD1710241+9999OA149900151REMSYN088AAXX  17134 06762 33/// /2002 10089 20002 30017 40267 57024 333 553// 2//// 91103 91202;
0087067620999992011011714004+46167+008883FM-12+0198LSZL V0202301N001019999999N9999999N1+00901+00121102641ADDMA1999999100141REMSYN060AAXX  17144 06762 43/// /2302 10090 20012 30014 40264 5////;
0087067620999992011011715004+46167+008883FM-12+0198LSZL V0202501N000519999999N9999999N1+00641-00031102651ADDMA1999999100131REMSYN060AAXX  17154 06762 43/// /2501 10064 21003 30013 40265 5////;
0140067620999992011011716004+46167+008883FM-12+0198LSZL V0202001N000519999999N9999999N1+00431+00021102701ADDMA1999999100161MD1210011+9999OA149900151REMSYN088AAXX  17164 06762 33/// /2001 10043 20002 30016 40270 52001 333 55300 20054 91103 91203;
0140067620999992011011717004+46167+008883FM-12+0198LSZL V0209999C000019999999N9999999N1+00171-00071102721ADDMA1999999100151MD1210011+9999OA149900151REMSYN088AAXX  17174 06762 33/// /0000 10017 21007 30015 40272 52001 333 55300 20000 91103 91202;
0159067620999992011011718004+46167+008883FM-12+0198LSZL V0200901N001019999999N9999999N1+00111-00061102761ADDKA1120M+00991MA1999999100191MD1210061+9999OA149900311REMSYN094AAXX  17184 06762 33/// /0902 10011 21006 30019 40276 52006 333 10099 55300 20000 91106 91204;
0140067620999992011011719004+46167+008883FM-12+0198LSZL V0202301N001019999999N9999999N1+00061-00141102761ADDMA1999999100181MD1210021+9999OA149900261REMSYN088AAXX  17194 06762 33/// /2302 10006 21014 30018 40276 52002 333 55300 20000 91105 91203;
0140067620999992011011720004+46167+008883FM-12+0198LSZL V0200601N001019999999N9999999N1-00071-00201102791ADDMA1999999100201MD1210051+9999OA149900261REMSYN088AAXX  17204 06762 33/// /0602 11007 21020 30020 40279 52005 333 55300 20000 91105 91203;
0140067620999992011011721004+46167+008883FM-12+0198LSZL V0202501N000519999999N9999999N1-00071-00211102761ADDMA1999999100171MD1710021+9999OA149900261REMSYN088AAXX  17214 06762 33/// /2501 11007 21021 30017 40276 57002 333 55300 20000 91105 91203;
0140067620999992011011722004+46167+008883FM-12+0198LSZL V0201001N001019999999N9999999N1-00071-00171102761ADDMA1999999100171MD1710011+9999OA149900211REMSYN088AAXX  17224 06762 33/// /1002 11007 21017 30017 40276 57001 333 55300 20000 91104 91202;
0140067620999992011011723004+46167+008883FM-12+0198LSZL V0200401N000519999999N9999999N1-00151-00211102771ADDMA1999999100171MD1710031+9999OA149900211REMSYN088AAXX  17234 06762 33/// /0401 11015 21021 30017 40277 57003 333 55300 20000 91104 91202;
0140067620999992011011800004+46167+008883FM-12+0198LSZL V0209999C000019999999N9999999N1-00161-00241102751ADDMA1999999100151MD1710021+9999OA149900311REMSYN088AAXX  18004 06762 33/// /0000 11016 21024 30015 40275 57002 333 55300 20000 91106 91204;
0140067620999992011011801004+46167+008883FM-12+0198LSZL V0209999C000019999999N9999999N1-00261-00321102741ADDMA1999999100131MD1719999+9999OA149900151REMSYN088AAXX  18014 06762 33/// /0000 11026 21032 30013 40274 57/// 333 55300 20000 91103 91202;
0087067620999992011011802004+46167+008883FM-12+0198LSZL V0201101N000519999999N9999999N1-00191-00271102731ADDMA1999999100131REMSYN060AAXX  18024 06762 43/// /1101 11019 21027 30013 40273 5////;
0087067620999992011011803004+46167+008883FM-12+0198LSZL V0200701N001019999999N9999999N1-00211-00281102711ADDMA1999999100111REMSYN060AAXX  18034 06762 43/// /0702 11021 21028 30011 40271 5////;
0103067620999992011011804004+46167+008883FM-12+0198LSZL V0200501N000519999999N9999999N1-00221-00311102701ADDMA1999999100101REMSYN076AAXX  18044 06762 33/// /0501 11022 21031 30010 40270 5//// 333 553// 20000;
0140067620999992011011805004+46167+008883FM-12+0198LSZL V0209999C000019999999N9999999N1-00271-00351102671ADDMA1999999100061MD1710071+9999OA149900151REMSYN088AAXX  18054 06762 33/// /0000 11027 21035 30006 40267 57007 333 55300 20000 91103 91201;
0207067620999992011011806004+46167+008883FM-12+0198LSZL V0200301N001519999999N9999999N1-00271-00351102661ADDAL19900091GJ103609IA2999-00609KA1999N-00271MA1999999100051MD1710061+9999OA149900261REMSYN112AAXX  18064 06762 33/// /0303 11027 21035 30005 40266 57006 333 21027 3/106 55060 55300 20000 70000 91105 91203;
0140067620999992011011807004+46167+008883FM-12+0198LSZL V0200901N001019999999N9999999N1-00351-00431102711ADDMA1999999100091MD1510011+9999OA149900311REMSYN088AAXX  18074 06762 33/// /0902 11035 21043 30009 40271 55001 333 55300 20000 91106 91203;
0087067620999992011011808004+46167+008883FM-12+0198LSZL V0209999C000019999999N9999999N1-00241-00341102741ADDMA1999999100131REMSYN060AAXX  18084 06762 43/// /0000 11024 21034 30013 40274 5////;
0087067620999992011011809004+46167+008883FM-12+0198LSZL V0200701N001019999999N9999999N1-00011-00141102761ADDMA1999999100171REMSYN060AAXX  18094 06762 43/// /0702 11001 21014 30017 40276 5////;
0140067620999992011011810004+46167+008883FM-12+0198LSZL V0201301N001019999999N9999999N1+00241-00041102701ADDMA1999999100141MD1010051+9999OA149900151REMSYN088AAXX  18104 06762 33/// /1302 10024 21004 30014 40270 50005 333 553// 2//// 91103 91202;
0140067620999992011011811004+46167+008883FM-12+0198LSZL V0201901N001019999999N9999999N1+00461-00011102651ADDMA1999999100111MD1710021+9999OA149900151REMSYN088AAXX  18114 06762 33/// /1902 10046 21001 30011 40265 57002 333 553// 2//// 91103 91202;
0140067620999992011011812004+46167+008883FM-12+0198LSZL V0202101N001019999999N9999999N1+00641+00041102541ADDMA1999999100021MD1719999+9999OA149900311REMSYN088AAXX  18124 06762 33/// /2102 10064 20004 30002 40254 57/// 333 553// 2//// 91106 91203;
0103067620999992011011813004+46167+008883FM-12+0198LSZL V0202001N001519999999N9999999N1+00711-00051102431ADDMA1999999099921REMSYN076AAXX  18134 06762 33/// /2003 10071 21005 39992 40243 5//// 333 553// 2////;
0087067620999992011011814004+46167+008883FM-12+0198LSZL V0202001N001019999999N9999999N1+00791-00091102401ADDMA1999999099901REMSYN060AAXX  18144 06762 43/// /2002 10079 21009 39990 40240 5////;
0087067620999992011011815004+46167+008883FM-12+0198LSZL V0201501N000519999999N9999999N1+00561-00021102411ADDMA1999999099891REMSYN060AAXX  18154 06762 43/// /1501 10056 21002 39989 40241 5////;
0140067620999992011011816004+46167+008883FM-12+0198LSZL V0209999C000019999999N9999999N1+00351+00001102451ADDMA1999999099911MD1510011+9999OA149900151REMSYN088AAXX  18164 06762 33/// /0000 10035 20000 39991 40245 55001 333 55300 20094 91103 91202;
0140067620999992011011817004+46167+008883FM-12+0198LSZL V0209999C000019999999N9999999N1+00181-00021102521ADDMA1999999099961MD1310061+9999OA149900101REMSYN088AAXX  18174 06762 33/// /0000 10018 21002 39996 40252 53006 333 55300 20004 91102 91201;
0159067620999992011011818004+46167+008883FM-12+0198LSZL V0201001N000519999999N9999999N1+00101-00071102531ADDKA1120M+00821MA1999999099961MD1210071+9999OA149900311REMSYN094AAXX  18184 06762 33/// /1001 10010 21007 39996 40253 52007 333 10082 55300 20000 91106 91203;
0140067620999992011011819004+46167+008883FM-12+0198LSZL V0200701N000519999999N9999999N1+00041-00071102531ADDMA1999999099951MD1010041+9999OA149900151REMSYN088AAXX  18194 06762 33/// /0701 10004 21007 39995 40253 50004 333 55300 20000 91103 91201;
0140067620999992011011820004+46167+008883FM-12+0198LSZL V0201001N000519999999N9999999N1+00091-00101102491ADDMA1999999099921MD1810041+9999OA149900101REMSYN088AAXX  18204 06762 33/// /1001 10009 21010 39992 40249 58004 333 55300 20000 91102 91201;
0140067620999992011011821004+46167+008883FM-12+0198LSZL V0209999C000019999999N9999999N1-00081-00151102521ADDMA1999999099931MD1710031+9999OA149900151REMSYN088AAXX  18214 06762 33/// /0000 11008 21015 39993 40252 57003 333 55300 20000 91103 91201;
0140067620999992011011822004+46167+008883FM-12+0198LSZL V0201701N000519999999N9999999N1-00111-00201102551ADDMA1999999099961MD1510011+9999OA149900151REMSYN088AAXX  18224 06762 33/// /1701 11011 21020 39996 40255 55001 333 55300 20000 91103 91202;
0140067620999992011011823004+46167+008883FM-12+0198LSZL V0202901N000519999999N9999999N1-00101-00211102551ADDMA1999999099961MD1210041+9999OA149900151REMSYN088AAXX  18234 06762 33/// /2901 11010 21021 39996 40255 52004 333 55300 20000 91103 91202;
