0204067620999992010010100004+46167+008883FM-12+0198LSZL V0201201N002610009019N0010001N1+00251+00201099431ADDAY141061AY241061GA1081+000901071GF108991999999000751999999MA1999999096951MD1710141+9999MW1021OA149900411REMSYN088AAXX  01004 06762 31110 81205 10025 20020 39695 49943 57014 70244 333 88703 91108 91205;
0128067620999992010010101004+46167+008883FM-12+0198LSZL V0209999C000019999999N9999999N1+00151+00141099411ADDMA1999999096921MD1610151+9999OA149900411REMSYN076AAXX  01014 06762 33/// /0000 10015 20014 39692 49941 56015 333 91108 91205;
0128067620999992010010102004+46167+008883FM-12+0198LSZL V0200701N000519999999N9999999N1+00151+00131099371ADDMA1999999096881MD1619999+9999OA149900261REMSYN076AAXX  01024 06762 33/// /0701 10015 20013 39688 49937 56/// 333 91105 91203;
0139067620999992010010103004+46167+008883FM-12+0198LSZL V0203501N000510240019N0150001N1+00131+00131099301ADDGA1081+024001041GF108991999999022501999999MA1999999096811REMSYN070AAXX  01034 06762 42865 83501 10013 20013 39681 49930 5//// 333 88458;
0087067620999992010010104004+46167+008883FM-12+0198LSZL V0200601N001019999999N9999999N1+00211+00171099191ADDMA1999999096711REMSYN060AAXX  01044 06762 33/// /0602 10021 20017 39671 49919 5////;
0128067620999992010010105004+46167+008883FM-12+0198LSZL V0209999C000019999999N9999999N1+00191+00121099081ADDMA1999999096601MD1710281+9999OA149900211REMSYN076AAXX  01054 06762 33/// /0000 10019 20012 39660 49908 57028 333 91104 91202;
0305067620999992010010106004+46167+008883FM-12+0198LSZL V0209999C000010240019N0150001N1+00101+00061099081ADDAA124002091AJ100059199999999AL19900291AL29900091GA1071+024001041GF107991999999022501999999GJ100009IA1309IA2999-00109KA1999N+00081MA1999999096601MD1710211+9999OA149900411REMSYN124AAXX  01064 06762 32865 70000 10010 20006 39660 49908 57021 333 20008 3/101 42005 55000 70020 87458 90768 93100 91108 91205;
0128067620999992010010107004+46167+008883FM-12+0198LSZL V0200401N000519999999N9999999N1-00021-00031099131ADDMA1999999096631MD1510081+9999OA149900151REMSYN076AAXX  01074 06762 33/// /0401 11002 21003 39663 49913 55008 333 91103 91201;
0128067620999992010010108004+46167+008883FM-12+0198LSZL V0201201N000519999999N9999999N1+00181+00121099191ADDMA1999999096711MD1210111+9999OA149900151REMSYN076AAXX  01084 06762 33/// /1201 10018 20012 39671 49919 52011 333 91103 91202;
0176067620999992010010109004+46167+008883FM-12+0198LSZL V0201101N001510240019N0200001N1+00251+00151099221ADDGA1081+024001041GF108991999999022501999999MA1999999096751MD1110151+9999OA149900211REMSYN082AAXX  01094 06762 32870 81103 10025 20015 39675 49922 51015 333 88458 91104 91203;
0128067620999992010010110004+46167+008883FM-12+0198LSZL V0201001N001019999999N9999999N1+00201+00151099221ADDMA1999999096741MD1210111+9999OA149900211REMSYN076AAXX  01104 06762 33/// /1002 10020 20015 39674 49922 52011 333 91104 91203;
0128067620999992010010111004+46167+008883FM-12+0198LSZL V0209999C000019999999N9999999N1+00341+00251099131ADDMA1999999096671MD1810041+9999OA149900151REMSYN076AAXX  01114 06762 33/// /0000 10034 20025 39667 49913 58004 333 91103 91202;
0198067620999992010010112004+46167+008883FM-12+0198LSZL V0200301N000510240019N0200001N1+00361+00201099071ADDGA1031+015001061GA2041+024001031GF106991999999017501999999MA1999999096611MD1710141+9999OA149900261REMSYN088AAXX  01124 06762 32770 60301 10036 20020 39661 49907 57014 333 83650 84358 91105 91203;
0128067620999992010010113004+46167+008883FM-12+0198LSZL V0209999C000019999999N9999999N1+00561+00211099021ADDMA1999999096581MD1610161+9999OA149900101REMSYN076AAXX  01134 06762 33/// /0000 10056 20021 39658 49902 56016 333 91102 91201;
0128067620999992010010114004+46167+008883FM-12+0198LSZL V0202401N001019999999N9999999N1+00421+00201099061ADDMA1999999096611MD1519999+9999OA149900151REMSYN076AAXX  01144 06762 33/// /2402 10042 20020 39661 49906 55/// 333 91103 91202;
0198067620999992010010115004+46167+008883FM-12+0198LSZL V0202201N001019999999N0200001N1+00461+00241099141ADDGA1011+014101071GA2041+027001041GF107991999999012501999999MA1999999096691MD1310081+9999OA149900151REMSYN088AAXX  01154 06762 32670 72202 10046 20024 39669 49914 53008 333 81747 84459 91103 91202;
0128067620999992010010116004+46167+008883FM-12+0198LSZL V0209999C000019999999N9999999N1+00321+00221099241ADDMA1999999096771MD1310191+9999OA149900151REMSYN076AAXX  01164 06762 33/// /0000 10032 20022 39677 49924 53019 333 91103 91202;
0128067620999992010010117004+46167+008883FM-12+0198LSZL V0200901N001019999999N9999999N1+00291+00181099321ADDMA1999999096851MD1210241+9999OA149900261REMSYN076AAXX  01174 06762 33/// /0902 10029 20018 39685 49932 52024 333 91105 91203;
0265067620999992010010118004+46167+008883FM-12+0198LSZL V0209999C000010240019N0200001N1+00241+00131099411ADDAJ199992999999999AL19900091GA1081+024001041GF108991999999022501999999IA1309KA1120M+00591MA1999999096931MD1110241+9999OA149900261REMSYN106AAXX  01184 06762 32870 80000 10024 20013 39693 49941 51024 333 10059 42998 88458 90766 93100 91105 91203;EQDQ01  09982SNDP  
0128067620999992010010119004+46167+008883FM-12+0198LSZL V0209999C000019999999N9999999N1+00161+00121099521ADDMA1999999097031MD1310261+9999OA149900151REMSYN076AAXX  01194 06762 33/// /0000 10016 20012 39703 49952 53026 333 91103 91202;
0128067620999992010010120004+46167+008883FM-12+0198LSZL V0201301N000519999999N9999999N1+00211+00121099611ADDMA1999999097121MD1210271+9999OA149900261REMSYN076AAXX  01204 06762 33/// /1301 10021 20012 39712 49961 52027 333 91105 91203;
0176067620999992010010121004+46167+008883FM-12+0198LSZL V0200401N001010180019N0250001N1+00101+00061099711ADDGA1071+018001061GF107991999999017501999999MA1999999097211MD1210281+9999OA149900261REMSYN082AAXX  01214 06762 32775 70402 10010 20006 39721 49971 52028 333 87656 91105 91203;
0128067620999992010010122004+46167+008883FM-12+0198LSZL V0200701N000519999999N9999999N1+00021+00021099781ADDMA1999999097271MD1210241+9999OA149900261REMSYN076AAXX  01224 06762 33/// /0701 10002 20002 39727 49978 52024 333 91105 91203;
0128067620999992010010123004+46167+008883FM-12+0198LSZL V0201701N001019999999N9999999N1+00061-00021099851ADDMA1999999097341MD1210221+9999OA149900261REMSYN076AAXX  01234 06762 33/// /1702 10006 21002 39734 49985 52022 333 91105 91203;
0176067620999992010010200004+46167+008883FM-12+0198LSZL V0201001N000512200019N0250001N1-00061-00091099901ADDGA1031+018001061GF103991999999017501999999MA1999999097381MD1210171+9999OA149900261REMSYN082AAXX  02004 06762 32775 31001 11006 21009 39738 49990 52017 333 83656 91105 91203;
0128067620999992010010201004+46167+008883FM-12+0198LSZL V0201901N000519999999N9999999N1-00101-00131099981ADDMA1999999097451MD1210181+9999OA149900211REMSYN076AAXX  02014 06762 33/// /1901 11010 21013 39745 49998 52018 333 91104 91202;
0087067620999992010010202004+46167+008883FM-12+0198LSZL V0203501N001519999999N9999999N1-00201-00221100071ADDMA1999999097531REMSYN060AAXX  02024 06762 33/// /3503 11020 21022 39753 40007 5////;
0176067620999992010010203004+46167+008883FM-12+0198LSZL V0202201N000512200019N0250001N1-00141-00251100141ADDGA1031+069001021GF103991999999999999999999MA1999999097611MD1210231+9999OA149900261REMSYN082AAXX  02034 06762 32975 32201 11014 21025 39761 40014 52023 333 83273 91105 91203;
0128067620999992010010204004+46167+008883FM-12+0198LSZL V0209999C000019999999N9999999N1-00091-00181100171ADDMA1999999097641MD1110191+9999OA149900261REMSYN076AAXX  02044 06762 33/// /0000 11009 21018 39764 40017 51019 333 91105 91202;
0128067620999992010010205004+46167+008883FM-12+0198LSZL V0202101N000519999999N9999999N1-00021-00311100281ADDMA1999999097751MD1310221+9999OA149900311REMSYN076AAXX  02054 06762 33/// /2101 11002 21031 39775 40028 53022 333 91106 91203;
0291067620999992010010206004+46167+008883FM-12+0198LSZL V0202201N001510570019N0150001N1-00021-00321100381ADDAA124000091AL19900091GA1051+057001011GF105991999999999999999999GJ100669IA1149IA2999-00509KA1999N-00251MA1999999097851MD1310241+9999OA149900411REMSYN118AAXX  02064 06762 32965 52203 11002 21032 39785 40038 53024 333 21025 34105 55011 70000 85169 90768 93100 91108 91203;EQDQ01  00002PRCP24
0128067620999992010010207004+46167+008883FM-12+0198LSZL V0202201N001519999999N9999999N1+00271-00671100461ADDMA1999999097961MD1210321+9999OA149900461REMSYN076AAXX  02074 06762 33/// /2203 10027 21067 39796 40046 52032 333 91109 91203;
0087067620999992010010208004+46167+008883FM-12+0198LSZL V0203301N000519999999N9999999N1+00701-01361100591ADDMA1999999098121REMSYN060AAXX  02084 06762 33/// /3301 10070 21136 39812 40059 5////;
0128067620999992010010209004+46167+008883FM-12+0198LSZL V0203101N000519999999N9999999N1+00531-01211100771ADDMA1999999098281MD1310431+9999OA149900881REMSYN076AAXX  02094 06762 33/// /3101 10053 21121 39828 40077 53043 333 91117 91206;
0128067620999992010010210004+46167+008883FM-12+0198LSZL V0200401N001519999999N9999999N1+00681-01481100891ADDMA1999999098411MD1210451+9999OA149901031REMSYN076AAXX  02104 06762 33/// /0403 10068 21148 39841 40089 52045 333 91120 91210;
0128067620999992010010211004+46167+008883FM-12+0198LSZL V0202201N002119999999N9999999N1+00701-01651100951ADDMA1999999098471MD1210351+9999OA149901031REMSYN076AAXX  02114 06762 33/// /2204 10070 21165 39847 40095 52035 333 91120 91210;
0176067620999992010010212004+46167+008883FM-12+0198LSZL V0202801N001012200019N0400001N1+00661-01791100981ADDGA1011+018001061GF101991999999017501999999MA1999999098501MD1210221+9999OA149901031REMSYN082AAXX  02124 06762 32782 12802 10066 21179 39850 40098 52022 333 81656 91120 91210;
0128067620999992010010213004+46167+008883FM-12+0198LSZL V0200601N004119999999N9999999N1+00601-01631101071ADDMA1999999098581MD1210171+9999OA149901851REMSYN076AAXX  02134 06762 33/// /0608 10060 21163 39858 40107 52017 333 91136 91212;
0128067620999992010010214004+46167+008883FM-12+0198LSZL V0200601N006719999999N9999999N1+00511-01671101101ADDMA1999999098601MD1219999+9999OA149902211REMSYN076AAXX  02144 06762 33/// /0613 10051 21167 39860 40110 52/// 333 91143 91219;
0176067620999992010010215004+46167+008883FM-12+0198LSZL V0201001N006212200019N0300001N1+00461-01731101211ADDGA1011+015001061GF102991999999017501999999MA1999999098711MD1210211+9999OA149902211REMSYN082AAXX  02154 06762 32780 21012 10046 21173 39871 40121 52021 333 81650 91143 91219;
0128067620999992010010216004+46167+008883FM-12+0198LSZL V0200701N006719999999N9999999N1+00391-01661101331ADDMA1999999098821MD1210241+9999OA149902371REMSYN076AAXX  02164 06762 33/// /0713 10039 21166 39882 40133 52024 333 91146 91217;
0128067620999992010010217004+46167+008883FM-12+0198LSZL V0200801N007219999999N9999999N1+00401-01751101471ADDMA1999999098951MD1210351+9999OA149902371REMSYN076AAXX  02174 06762 33/// /0814 10040 21175 39895 40147 52035 333 91146 91214;
0265067620999992010010218004+46167+008883FM-12+0198LSZL V0200801N005112200019N0200001N1+00341-01591101551ADDAJ199992999999999AL19900091GA1011+027001031GF101991999999999999999999IA1309KA1120M+00701MA1999999099031MD1110321+9999OA149902371REMSYN106AAXX  02184 06762 32970 10810 10034 21159 39903 40155 51032 333 10070 42998 81359 90766 93100 91146 91219;EQDQ01  09982SNDP  
0128067620999992010010219004+46167+008883FM-12+0198LSZL V0200901N005719999999N9999999N1+00371-01671101661ADDMA1999999099141MD1210321+9999OA149901701REMSYN076AAXX  02194 06762 33/// /0911 10037 21167 39914 40166 52032 333 91133 91215;
0128067620999992010010220004+46167+008883FM-12+0198LSZL V0200801N008219999999N9999999N1+00291-01551101701ADDMA1999999099171MD1210221+9999OA149901751REMSYN076AAXX  02204 06762 33/// /0816 10029 21155 39917 40170 52022 333 91134 91216;
0170067620999992010010221004+46167+008883FM-12+0198LSZL V0200801N007712200019N0250001N1+00251-01481101751ADDGA1001+999999999GF100991001001999999001001MA1999999099211MD1210181+9999OA149902371REMSYN076AAXX  02214 06762 32/75 00815 10025 21148 39921 40175 52018 333 91146 91216;
0128067620999992010010222004+46167+008883FM-12+0198LSZL V0200901N008219999999N9999999N1+00261-01541101741ADDMA1999999099201MD1210061+9999OA149901601REMSYN076AAXX  02224 06762 33/// /0916 10026 21154 39920 40174 52006 333 91131 91217;
0128067620999992010010223004+46167+008883FM-12+0198LSZL V0200801N007219999999N9999999N1+00231-01521101841ADDMA1999999099301MD1210131+9999OA149901601REMSYN076AAXX  02234 06762 33/// /0814 10023 21152 39930 40184 52013 333 91131 91217;
0170067620999992010010300004+46167+008883FM-12+0198LSZL V0200901N004112200019N0250001N1+00161-01471101891ADDGA1001+999999999GF100991001001999999001001MA1999999099341MD1210131+9999OA149902371REMSYN076AAXX  03004 06762 32/75 00908 10016 21147 39934 40189 52013 333 91146 91219;
0128067620999992010010301004+46167+008883FM-12+0198LSZL V0200901N001519999999N9999999N1+00141-01531101921ADDMA1999999099371MD1110171+9999OA149901081REMSYN076AAXX  03014 06762 33/// /0903 10014 21153 39937 40192 51017 333 91121 91212;
0087067620999992010010302004+46167+008883FM-12+0198LSZL V0201401N001519999999N9999999N1+00181-01651101991ADDMA1999999099441REMSYN060AAXX  03024 06762 33/// /1403 10018 21165 39944 40199 5////;
0129067620999992010010303004+46167+008883FM-12+0198LSZL V0201301N002612200019N0250001N1+00211-01721102041ADDGA1001+999999999GF100991001001999999001001MA1999999099491REMSYN060AAXX  03034 06762 32/75 01305 10021 21172 39949 40204 5////;
0128067620999992010010304004+46167+008883FM-12+0198LSZL V0201101N003619999999N9999999N1+00131-01631102031ADDMA1999999099471MD1210101+9999OA149900671REMSYN076AAXX  03044 06762 33/// /1107 10013 21163 39947 40203 52010 333 91113 91208;
0128067620999992010010305004+46167+008883FM-12+0198LSZL V0200901N002119999999N9999999N1-00081-01341102111ADDMA1999999099531MD1219999+9999OA149900671REMSYN076AAXX  03054 06762 33/// /0904 11008 21134 39953 40211 52/// 333 91113 91208;
0324067620999992010010306004+46167+008883FM-12+0198LSZL V0200601N001012200019N0200001N1-00391-01131102141ADDAA124000091AJ100029199999999AL19900091GA1001+999999999GF100991001001999999001001GJ102829IA1259IA2999-00709KA1999N+99999MA1999999099531MD1210041+9999OA149901751REMSYN118AAXX  03064 06762 32/70 00602 11039 21113 39953 40214 52004 333 21022 3/107 41002 55047 70000 90768 93100 91134 91217;EQDQ01  00002PRCP24Q02 -00222ATMN  
0128067620999992010010307004+46167+008883FM-12+0198LSZL V0202401N000519999999N9999999N1-00301-01121102211ADDMA1999999099611MD1210141+9999OA149900211REMSYN076AAXX  03074 06762 33/// /2401 11030 21112 39961 40221 52014 333 91104 91202;
0128067620999992010010308004+46167+008883FM-12+0198LSZL V0201001N000519999999N9999999N1-00431-00841102291ADDMA1999999099671MD1219999+9999OA149900211REMSYN076AAXX  03084 06762 33/// /1001 11043 21084 39967 40229 52/// 333 91104 91202;
0176067620999992010010309004+46167+008883FM-12+0198LSZL V0200201N000510240019N0250001N1-00241-00801102291ADDGA1071+024001061GF107991999999022501999999MA1999999099691MD1210161+9999OA149900671REMSYN082AAXX  03094 06762 32875 70201 11024 21080 39969 40229 52016 333 87658 91113 91208;
0128067620999992010010310004+46167+008883FM-12+0198LSZL V0202301N001019999999N9999999N1-00151-00861102311ADDMA1999999099721MD1210111+9999OA149900211REMSYN076AAXX  03104 06762 33/// /2302 11015 21086 39972 40231 52011 333 91104 91203;
0128067620999992010010311004+46167+008883FM-12+0198LSZL V0203001N000519999999N9999999N1+00001-01011102201ADDMA1999999099631MD1810041+9999OA149900211REMSYN076AAXX  03114 06762 33/// /3001 10000 21101 39963 40220 58004 333 91104 91203;
0128067620999992010010312004+46167+008883FM-12+0198LSZL V0203101N001019999999N9999999N1+00031-00861102151ADDMA1999999099581MD1710111+9999OA149900671REMSYN076AAXX  03124 06762 33/// /3102 10003 21086 39958 40215 57011 333 91113 91208;
0128067620999992010010313004+46167+008883FM-12+0198LSZL V0201401N000519999999N9999999N1+00061-01061102091ADDMA1999999099531MD1710191+9999OA149900101REMSYN076AAXX  03134 06762 33/// /1401 10006 21106 39953 40209 57019 333 91102 91202;
0128067620999992010010314004+46167+008883FM-12+0198LSZL V0209999C000019999999N9999999N1+00061-00901102111ADDMA1999999099551MD1710081+9999OA149900101REMSYN076AAXX  03144 06762 33/// /0000 10006 21090 39955 40211 57008 333 91102 91202;
0128067620999992010010315004+46167+008883FM-12+0198LSZL V0200901N001019999999N9999999N1-00021-00701102121ADDMA1999999099551MD1510031+9999OA149900211REMSYN076AAXX  03154 06762 33/// /0902 11002 21070 39955 40212 55003 333 91104 91203;
0128067620999992010010316004+46167+008883FM-12+0198LSZL V0201101N001519999999N9999999N1-00031-00921102131ADDMA1999999099561MD1010031+9999OA149900311REMSYN076AAXX  03164 06762 33/// /1103 11003 21092 39956 40213 50003 333 91106 91204;
0128067620999992010010317004+46167+008883FM-12+0198LSZL V0200101N001519999999N9999999N1-00311-00761102101ADDMA1999999099501MD1710051+9999OA149900311REMSYN076AAXX  03174 06762 33/// /0103 11031 21076 39950 40210 57005 333 91106 91204;
0246067620999992010010318004+46167+008883FM-12+0198LSZL V0202101N000510240019N0250001N1-00141-00881102121ADDAJ100029199999999AL19900091GA1071+024001061GF107991999999022501999999IA1259KA1120M+00081MA1999999099541MD1710011+9999OA149900311REMSYN106AAXX  03184 06762 32875 72101 11014 21088 39954 40212 57001 333 10008 41002 87658 90766 93100 91106 91204;
0128067620999992010010319004+46167+008883FM-12+0198LSZL V0200901N001019999999N9999999N1-00221-00811102161ADDMA1999999099571MD1310011+9999OA149900151REMSYN076AAXX  03194 06762 33/// /0902 11022 21081 39957 40216 53001 333 91103 91202;
0128067620999992010010320004+46167+008883FM-12+0198LSZL V0209999C000019999999N9999999N1-00451-00621102151ADDMA1999999099541MD1010041+9999OA149900151REMSYN076AAXX  03204 06762 33/// /0000 11045 21062 39954 40215 50004 333 91103 91202;
0188067620999992010010321004+46167+008883FM-12+0198LSZL V0201001N001010210019N0150001N1-00491-00821102191ADDGA1071+021001061GF107991999999022501999999MA1999999099571MD1210031+9999MW1031OA149900311REMSYN088AAXX  03214 06762 31865 71002 11049 21082 39957 40219 52003 703// 333 87657 91106 91204;
0128067620999992010010322004+46167+008883FM-12+0198LSZL V0203101N000519999999N9999999N1-00481-00801102231ADDMA1999999099611MD1210041+9999OA149900151REMSYN076AAXX  03224 06762 33/// /3101 11048 21080 39961 40223 52004 333 91103 91202;
0128067620999992010010323004+46167+008883FM-12+0198LSZL V0209999C000019999999N9999999N1-00631-00721102251ADDMA1999999099621MD1210081+9999OA149900151REMSYN076AAXX  03234 06762 33/// /0000 11063 21072 39962 40225 52008 333 91103 91202;
0207067620999992010010400004+46167+008883FM-12+0198LSZL V0201101N001012200019N0150001N1-00621-00781102191ADDGA1031+021001061GF199999999999022501999999MA1999999099561MD1810011+9999MW1011OA149900311REMSYN088AAXX  04004 06762 31865 21102 11062 21078 39956 40219 58001 701// 333 83657 91106 91204;EQDQ01+000022SCOTCV
0128067620999992010010401004+46167+008883FM-12+0198LSZL V0200401N000519999999N9999999N1-00581-00811102131ADDMA1999999099501MD1710111+9999OA149900311REMSYN076AAXX  04014 06762 33/// /0401 11058 21081 39950 40213 57011 333 91106 91203;
0128067620999992010010402004+46167+008883FM-12+0198LSZL V0203201N001019999999N9999999N1-00611-00821102111ADDMA1999999099481MD1710141+9999OA149900311REMSYN076AAXX  04024 06762 33/// /3202 11061 21082 39948 40211 57014 333 91106 91202;
0188067620999992010010403004+46167+008883FM-12+0198LSZL V0209999C000012200019N0150001N1-00471-00801102081ADDGA1021+024001061GF102991999999022501999999MA1999999099471MD1719999+9999MW1021OA149900311REMSYN088AAXX  04034 06762 31865 20000 11047 21080 39947 40208 57/// 702// 333 82658 91106 91203;
0128067620999992010010404004+46167+008883FM-12+0198LSZL V0209999C000019999999N9999999N1-00381-00831102011ADDMA1999999099411MD1710091+9999OA149900151REMSYN076AAXX  04044 06762 33/// /0000 11038 21083 39941 40201 57009 333 91103 91201;
0128067620999992010010405004+46167+008883FM-12+0198LSZL V0203601N000519999999N9999999N1-00391-00591101961ADDMA1999999099361MD1710121+9999OA149900151REMSYN076AAXX  04054 06762 33/// /3601 11039 21059 39936 40196 57012 333 91103 91202;
0291067620999992010010406004+46167+008883FM-12+0198LSZL V0200301N001010270019N0300001N1-00351-00661101971ADDAA124000091AL19900091GA1081+027001041GF108991999999999999999999GJ100009IA1149IA2999-01009KA1999N-00681MA1999999099371MD1710101+9999OA149900311REMSYN118AAXX  04064 06762 32980 80302 11035 21066 39937 40197 57010 333 21068 34110 55000 70000 88459 90768 93100 91106 91203;EQDQ01  00002PRCP24
0128067620999992010010407004+46167+008883FM-12+0198LSZL V0200601N001019999999N9999999N1-00311-00561101971ADDMA1999999099371MD1710041+9999OA149900261REMSYN076AAXX  04074 06762 33/// /0602 11031 21056 39937 40197 57004 333 91105 91203;
0128067620999992010010408004+46167+008883FM-12+0198LSZL V0209999C000019999999N9999999N1-00311-00551102001ADDMA1999999099401MD1210041+9999OA149900211REMSYN076AAXX  04084 06762 33/// /0000 11031 21055 39940 40200 52004 333 91104 91202;
0128067620999992010010409004+46167+008883FM-12+0198LSZL V0201001N001019999999N9999999N1-00231-00661102001ADDMA1999999099411MD1210041+9999OA149900261REMSYN076AAXX  04094 06762 33/// /1002 11023 21066 39941 40200 52004 333 91105 91203;
0128067620999992010010410004+46167+008883FM-12+0198LSZL V0209999C000019999999N9999999N1-00101-00651101981ADDMA1999999099401MD1010031+9999OA149900211REMSYN076AAXX  04104 06762 33/// /0000 11010 21065 39940 40198 50003 333 91104 91203;
0128067620999992010010411004+46167+008883FM-12+0198LSZL V0200601N000519999999N9999999N1-00011-00891101871ADDMA1999999099311MD1810091+9999OA149900101REMSYN076AAXX  04114 06762 33/// /0601 11001 21089 39931 40187 58009 333 91102 91202;
0128067620999992010010412004+46167+008883FM-12+0198LSZL V0200901N000519999999N9999999N1+00091-00831101751ADDMA1999999099201MD1710211+9999OA149900311REMSYN076AAXX  04124 06762 33/// /0901 10009 21083 39920 40175 57021 333 91106 91203;
0128067620999992010010413004+46167+008883FM-12+0198LSZL V0200601N001019999999N9999999N1+00111-00731101631ADDMA1999999099081MD1810321+9999OA149900151REMSYN076AAXX  04134 06762 33/// /0602 10011 21073 39908 40163 58032 333 91103 91202;
0128067620999992010010414004+46167+008883FM-12+0198LSZL V0200901N001019999999N9999999N1+00111-00801101581ADDMA1999999099031MD1619999+9999OA149900211REMSYN076AAXX  04144 06762 33/// /0902 10011 21080 39903 40158 56/// 333 91104 91202;
0128067620999992010010415004+46167+008883FM-12+0198LSZL V0209999C000019999999N9999999N1+00071-00801101571ADDMA1999999099021MD1710181+9999OA149900211REMSYN076AAXX  04154 06762 33/// /0000 10007 21080 39902 40157 57018 333 91104 91203;
0128067620999992010010416004+46167+008883FM-12+0198LSZL V0201001N001519999999N9999999N1+00021-00881101551ADDMA1999999099001MD1710081+9999OA149900211REMSYN076AAXX  04164 06762 33/// /1003 10002 21088 39900 40155 57008 333 91104 91203;
0128067620999992010010417004+46167+008883FM-12+0198LSZL V0200901N001019999999N9999999N1-00151-00661101541ADDMA1999999098971MD1710061+9999OA149900211REMSYN076AAXX  04174 06762 33/// /0902 11015 21066 39897 40154 57006 333 91104 91203;
0246067620999992010010418004+46167+008883FM-12+0198LSZL V0200801N001510240019N0200001N1-00161-00771101531ADDAJ100029199999999AL19900091GA1051+024001061GF105991999999022501999999IA1179KA1120M+00121MA1999999098961MD1710061+9999OA149900411REMSYN106AAXX  04184 06762 32870 50803 11016 21077 39896 40153 57006 333 10012 40002 85658 90766 93100 91108 91205;
0128067620999992010010419004+46167+008883FM-12+0198LSZL V0200801N002119999999N9999999N1-00101-00831101491ADDMA1999999098931MD1710071+9999OA149900411REMSYN076AAXX  04194 06762 33/// /0804 11010 21083 39893 40149 57007 333 91108 91205;
0128067620999992010010420004+46167+008883FM-12+0198LSZL V0201101N001519999999N9999999N1-00151-00811101451ADDMA1999999098881MD1710091+9999OA149900261REMSYN076AAXX  04204 06762 33/// /1103 11015 21081 39888 40145 57009 333 91105 91204;
0188067620999992010010421004+46167+008883FM-12+0198LSZL V0201201N000510240019N0150001N1-00121-00801101441ADDGA1051+024001061GF105991999999022501999999MA1999999098881MD1710081+9999MW1031OA149900411REMSYN088AAXX  04214 06762 31865 51201 11012 21080 39888 40144 57008 703// 333 85658 91108 91205;
0128067620999992010010422004+46167+008883FM-12+0198LSZL V0200301N000519999999N9999999N1-00281-00611101451ADDMA1999999098871MD1710061+9999OA149900311REMSYN076AAXX  04224 06762 33/// /0301 11028 21061 39887 40145 57006 333 91106 91204;
0128067620999992010010423004+46167+008883FM-12+0198LSZL V0209999C000019999999N9999999N1-00281-00641101441ADDMA1999999098861MD1710021+9999OA149900211REMSYN076AAXX  04234 06762 33/// /0000 11028 21064 39886 40144 57002 333 91104 91203;
0128067620999992010010500004+46167+008883FM-12+0198LSZL V0200801N000519999999N9999999N1-00481-00611101391ADDMA1999999098791MD1710091+9999OA149900411REMSYN076AAXX  05004 06762 33/// /0801 11048 21061 39879 40139 57009 333 91108 91205;
0128067620999992010010501004+46167+008883FM-12+0198LSZL V0209999C000019999999N9999999N1-00391-00731101321ADDMA1999999098731MD1810141+9999OA149900151REMSYN076AAXX  05014 06762 33/// /0000 11039 21073 39873 40132 58014 333 91103 91203;
0128067620999992010010502004+46167+008883FM-12+0198LSZL V0200501N000519999999N9999999N1-00601-00741101281ADDMA1999999098671MD1610191+9999OA149900151REMSYN076AAXX  05024 06762 33/// /0501 11060 21074 39867 40128 56019 333 91103 91203;
0188067620999992010010503004+46167+008883FM-12+0198LSZL V0209999C000012200019N0150001N1-00621-00761101231ADDGA1021+024001061GF102991999999022501999999MA1999999098621MD1610171+9999MW1011OA149900211REMSYN088AAXX  05034 06762 31865 20000 11062 21076 39862 40123 56017 701// 333 82658 91104 91203;
0128067620999992010010504004+46167+008883FM-12+0198LSZL V0209999C000019999999N9999999N1-00561-00691101151ADDMA1999999098551MD1810181+9999OA149900151REMSYN076AAXX  05044 06762 33/// /0000 11056 21069 39855 40115 58018 333 91103 91201;
0128067620999992010010505004+46167+008883FM-12+0198LSZL V0209999C000019999999N9999999N1-00641-00711101121ADDMA1999999098511MD1610161+9999OA149900101REMSYN076AAXX  05054 06762 33/// /0000 11064 21071 39851 40112 56016 333 91102 91201;
0314067620999992010010506004+46167+008883FM-12+0198LSZL V0200501N001012200019N0200001N1-00631-00711101091ADDAA124000091AJ100029199999999AL19900091GA1011+024001061GF101991999999022501999999GJ100249IA1259IA2999-01009KA1999N-00681MA1999999098491MD1710131+9999OA149900311REMSYN124AAXX  05064 06762 32870 10502 11063 21071 39849 40109 57013 333 21068 3/110 41002 55004 70000 81658 90768 93100 91106 91204;EQDQ01  00002PRCP24
0128067620999992010010507004+46167+008883FM-12+0198LSZL V0201201N001019999999N9999999N1-00591-00751101081ADDMA1999999098481MD1710071+9999OA149900211REMSYN076AAXX  05074 06762 33/// /1202 11059 21075 39848 40108 57007 333 91104 91202;
0128067620999992010010508004+46167+008883FM-12+0198LSZL V0201201N000519999999N9999999N1-00571-00671101071ADDMA1999999098471MD1710041+9999OA149900211REMSYN076AAXX  05084 06762 33/// /1201 11057 21067 39847 40107 57004 333 91104 91202;
0198067620999992010010509004+46167+008883FM-12+0198LSZL V0209999C000010330019N0300001N1-00481-00671101011ADDGA1031+018001061GA2071+033001041GF107991999999017501999999MA1999999098421MD1710071+9999OA149900211REMSYN088AAXX  05094 06762 32780 70000 11048 21067 39842 40101 57007 333 83656 87461 91104 91202;
0128067620999992010010510004+46167+008883FM-12+0198LSZL V0209999C000019999999N9999999N1-00261-00691100951ADDMA1999999098381MD1810101+9999OA149900211REMSYN076AAXX  05104 06762 33/// /0000 11026 21069 39838 40095 58010 333 91104 91202;
0128067620999992010010511004+46167+008883FM-12+0198LSZL V0201601N000519999999N9999999N1-00191-00711100841ADDMA1999999098281MD1810191+9999OA149900151REMSYN076AAXX  05114 06762 33/// /1601 11019 21071 39828 40084 58019 333 91103 91201;
0176067620999992010010512004+46167+008883FM-12+0198LSZL V0209999C000010300019N0300001N1-00131-00641100711ADDGA1071+030001031GF107991999999999999999999MA1999999098161MD1810261+9999OA149900211REMSYN082AAXX  05124 06762 32980 70000 11013 21064 39816 40071 58026 333 87360 91104 91203;
0128067620999992010010513004+46167+008883FM-12+0198LSZL V0209999C000019999999N9999999N1-00071-00611100601ADDMA1999999098061MD1610321+9999OA149900151REMSYN076AAXX  05134 06762 33/// /0000 11007 21061 39806 40060 56032 333 91103 91202;
0087067620999992010010514004+46167+008883FM-12+0198LSZL V0200301N000519999999N9999999N1+00001-00551100511ADDMA1999999097981REMSYN060AAXX  05144 06762 33/// /0301 10000 21055 39798 40051 5////;
0176067620999992010010515004+46167+008883FM-12+0198LSZL V0201501N000510300019N0300001N1+00011-00561100461ADDGA1071+030001031GF107991999999999999999999MA1999999097931MD1610231+9999OA149900151REMSYN082AAXX  05154 06762 32980 71501 10001 21056 39793 40046 56023 333 87360 91103 91202;
0128067620999992010010516004+46167+008883FM-12+0198LSZL V0209999C000019999999N9999999N1-00011-00531100421ADDMA1999999097891MD1610171+9999OA149900101REMSYN076AAXX  05164 06762 33/// /0000 11001 21053 39789 40042 56017 333 91102 91201;
0128067620999992010010517004+46167+008883FM-12+0198LSZL V0201101N000519999999N9999999N1+00021-00541100381ADDMA1999999097861MD1610121+9999OA149900101REMSYN076AAXX  05174 06762 33/// /1101 10002 21054 39786 40038 56012 333 91102 91201;
0147067620999992010010518004+46167+008883FM-12+0198LSZL V0201101N001019999999N9999999N1+00001-00491100351ADDKA1120M+00021MA1999999097821MD1810111+9999OA149900211REMSYN082AAXX  05184 06762 33/// /1102 10000 21049 39782 40035 58011 333 10002 91104 91202;
0128067620999992010010519004+46167+008883FM-12+0198LSZL V0209999C000019999999N9999999N1-00021-00401100311ADDMA1999999097781MD1810111+9999OA149900151REMSYN076AAXX  05194 06762 33/// /0000 11002 21040 39778 40031 58011 333 91103 91202;
0128067620999992010010520004+46167+008883FM-12+0198LSZL V0201201N001019999999N9999999N1+00081-00591100241ADDMA1999999097721MD1810141+9999OA149900151REMSYN076AAXX  05204 06762 33/// /1202 10008 21059 39772 40024 58014 333 91103 91202;
0188067620999992010010521004+46167+008883FM-12+0198LSZL V0201001N001510270019N0150001N1+00111-00511100161ADDGA1071+027001031GF107991999999999999999999MA1999999097651MD1810171+9999MW1021OA149900311REMSYN088AAXX  05214 06762 31965 71003 10011 21051 39765 40016 58017 702// 333 87359 91106 91204;
0128067620999992010010522004+46167+008883FM-12+0198LSZL V0200901N002119999999N9999999N1+00101-00531100091ADDMA1999999097581MD1610201+9999OA149900361REMSYN076AAXX  05224 06762 33/// /0904 10010 21053 39758 40009 56020 333 91107 91205;
0128067620999992010010523004+46167+008883FM-12+0198LSZL V0200601N001019999999N9999999N1+00031-00451100071ADDMA1999999097551MD1610171+9999OA149900361REMSYN076AAXX  05234 06762 33/// /0602 10003 21045 39755 40007 56017 333 91107 91205;
0188067620999992010010600004+46167+008883FM-12+0198LSZL V0200501N001010240019N0150001N1+00071-00441099981ADDGA1071+024001031GF107991999999022501999999MA1999999097471MD1710181+9999MW1021OA149900361REMSYN088AAXX  06004 06762 31865 70502 10007 21044 39747 49998 57018 702// 333 87358 91107 91205;
0128067620999992010010601004+46167+008883FM-12+0198LSZL V0200801N001019999999N9999999N1+00091-00481099961ADDMA1999999097451MD1710131+9999OA149900361REMSYN076AAXX  06014 06762 33/// /0802 10009 21048 39745 49996 57013 333 91107 91204;
0128067620999992010010602004+46167+008883FM-12+0198LSZL V0200901N001519999999N9999999N1+00131-00531099931ADDMA1999999097431MD1710121+9999OA149900411REMSYN076AAXX  06024 06762 33/// /0903 10013 21053 39743 49993 57012 333 91108 91205;
0176067620999992010010603004+46167+008883FM-12+0198LSZL V0200101N001010240019N0150001N1-00091-00471099901ADDGA1051+024001031GF105991999999022501999999MA1999999097381MD1710091+9999OA149900411REMSYN082AAXX  06034 06762 32865 50102 11009 21047 39738 49990 57009 333 85358 91108 91205;
0128067620999992010010604004+46167+008883FM-12+0198LSZL V0200501N001019999999N9999999N1-00161-00431099881ADDMA1999999097351MD1710101+9999OA149900261REMSYN076AAXX  06044 06762 33/// /0502 11016 21043 39735 49988 57010 333 91105 91204;
0128067620999992010010605004+46167+008883FM-12+0198LSZL V0202701N000519999999N9999999N1-00101-00421099881ADDMA1999999097361MD1710071+9999OA149900151REMSYN076AAXX  06054 06762 33/// /2701 11010 21042 39736 49988 57007 333 91103 91202;
0330067620999992010010606004+46167+008883FM-12+0198LSZL V0200601N000510240019N0200001N1-00121-00401099891ADDAA124000091AJ199992999999999AL19900091GA1081+024001031GF108991999999022501999999GJ100009IA1309IA2999-00409KA1999N-00201MA1999999097361MD1510021+9999OA149900411REMSYN124AAXX  06064 06762 32870 80601 11012 21040 39736 49989 55002 333 21020 3/104 42998 55000 70000 88358 90768 93100 91108 91205;EQDQ01  00002PRCP24Q02  09982SNDP  
0128067620999992010010607004+46167+008883FM-12+0198LSZL V0202901N000519999999N9999999N1-00221-00451099921ADDMA1999999097381MD1210031+9999OA149900151REMSYN076AAXX  06074 06762 33/// /2901 11022 21045 39738 49992 52003 333 91103 91202;
0128067620999992010010608004+46167+008883FM-12+0198LSZL V0200401N001019999999N9999999N1-00331-00511099941ADDMA1999999097391MD1210031+9999OA149900151REMSYN076AAXX  06084 06762 33/// /0402 11033 21051 39739 49994 52003 333 91103 91202;
0176067620999992010010609004+46167+008883FM-12+0198LSZL V0201001N000512200019N0250001N1-00341-00541100031ADDGA1011+018001061GF101991999999017501999999MA1999999097481MD1210121+9999OA149900151REMSYN082AAXX  06094 06762 32775 11001 11034 21054 39748 40003 52012 333 81656 91103 91202;
0128067620999992010010610004+46167+008883FM-12+0198LSZL V0200801N001019999999N9999999N1-00071-00371100051ADDMA1999999097531MD1210151+9999OA149900101REMSYN076AAXX  06104 06762 33/// /0802 11007 21037 39753 40005 52015 333 91102 91202;
0128067620999992010010611004+46167+008883FM-12+0198LSZL V0201701N000519999999N9999999N1+00131-00381099981ADDMA1999999097481MD1019999+9999OA149900151REMSYN076AAXX  06114 06762 33/// /1701 10013 21038 39748 49998 50/// 333 91103 91202;
0176067620999992010010612004+46167+008883FM-12+0198LSZL V0201901N000512200019N0300001N1+00201-00411099951ADDGA1021+021001061GF102991999999022501999999MA1999999097451MD1710031+9999OA149900411REMSYN082AAXX  06124 06762 32880 21901 10020 21041 39745 49995 57003 333 82657 91108 91205;
0128067620999992010010613004+46167+008883FM-12+0198LSZL V0201601N000519999999N9999999N1+00301-00431099931ADDMA1999999097441MD1710091+9999OA149900151REMSYN076AAXX  06134 06762 33/// /1601 10030 21043 39744 49993 57009 333 91103 91203;
0128067620999992010010614004+46167+008883FM-12+0198LSZL V0201301N000519999999N9999999N1+00361-00481099921ADDMA1999999097441MD1519999+9999OA149900151REMSYN076AAXX  06144 06762 33/// /1301 10036 21048 39744 49992 55/// 333 91103 91203;
0176067620999992010010615004+46167+008883FM-12+0198LSZL V0203201N000512200019N0300001N1+00301-00531099981ADDGA1021+021001061GF102991999999022501999999MA1999999097491MD1319999+9999OA149900151REMSYN082AAXX  06154 06762 32880 23201 10030 21053 39749 49998 53/// 333 82657 91103 91203;
0128067620999992010010616004+46167+008883FM-12+0198LSZL V0201401N001019999999N9999999N1+00161-00431100071ADDMA1999999097571MD1210131+9999OA149900211REMSYN076AAXX  06164 06762 33/// /1402 10016 21043 39757 40007 52013 333 91104 91203;
0128067620999992010010617004+46167+008883FM-12+0198LSZL V0201201N000519999999N9999999N1-00161-00381100151ADDMA1999999097611MD1110171+9999OA149900211REMSYN076AAXX  06174 06762 33/// /1201 11016 21038 39761 40015 51017 333 91104 91203;
0223067620999992010010618004+46167+008883FM-12+0198LSZL V0203401N001012200019N0300001N1-00221-00431100221ADDAL19900091GA1001+999999999GF100991001001999999001001IA1149KA1120M+00411MA1999999097681MD1119999+9999OA149900211REMSYN100AAXX  06184 06762 32/80 03402 11022 21043 39768 40022 51/// 333 10041 34/// 90766 93100 91104 91203;
0128067620999992010010619004+46167+008883FM-12+0198LSZL V0201101N000519999999N9999999N1-00181-00401100281ADDMA1999999097741MD1310171+9999OA149900211REMSYN076AAXX  06194 06762 33/// /1101 11018 21040 39774 40028 53017 333 91104 91203;
0128067620999992010010620004+46167+008883FM-12+0198LSZL V0209999C000019999999N9999999N1-00111-00361100301ADDMA1999999097771MD1110161+9999OA149900211REMSYN076AAXX  06204 06762 33/// /0000 11011 21036 39777 40030 51016 333 91104 91203;
0188067620999992010010621004+46167+008883FM-12+0198LSZL V0201201N000519999999N0150001N1-00111-00301100351ADDGA1031+021001061GF105991999999022501999999MA1999999097811MD1110131+9999MW1031OA149900211REMSYN088AAXX  06214 06762 31865 51201 11011 21030 39781 40035 51013 703// 333 83657 91104 91203;
0128067620999992010010622004+46167+008883FM-12+0198LSZL V0200501N001019999999N9999999N1-00101-00281100361ADDMA1999999097821MD1110081+9999OA149900261REMSYN076AAXX  06224 06762 33/// /0502 11010 21028 39782 40036 51008 333 91105 91203;
0128067620999992010010623004+46167+008883FM-12+0198LSZL V0209999C000019999999N9999999N1-00041-00321100391ADDMA1999999097861MD1310091+9999OA149900261REMSYN076AAXX  06234 06762 33/// /0000 11004 21032 39786 40039 53009 333 91105 91203;
0176067620999992010010700004+46167+008883FM-12+0198LSZL V0201901N001010210019N0150001N1-00021-00311100411ADDGA1051+021001061GF105991999999022501999999MA1999999097881MD1310071+9999OA149900261REMSYN082AAXX  07004 06762 32865 51902 11002 21031 39788 40041 53007 333 85657 91105 91203;
0128067620999992010010701004+46167+008883FM-12+0198LSZL V0202401N001019999999N9999999N1-00021-00261100461ADDMA1999999097931MD1310111+9999OA149900261REMSYN076AAXX  07014 06762 33/// /2402 11002 21026 39793 40046 53011 333 91105 91203;
0128067620999992010010702004+46167+008883FM-12+0198LSZL V0202101N001519999999N9999999N1-00071-00301100521ADDMA1999999097981MD1219999+9999OA149900211REMSYN076AAXX  07024 06762 33/// /2103 11007 21030 39798 40052 52/// 333 91104 91203;
0188067620999992010010703004+46167+008883FM-12+0198LSZL V0201301N000512200019N0150001N1-00011-00271100531ADDGA1041+021001061GF104991999999022501999999MA1999999098001MD1210121+9999MW1021OA149900261REMSYN088AAXX  07034 06762 31865 41301 11001 21027 39800 40053 52012 702// 333 84657 91105 91203;
0128067620999992010010704004+46167+008883FM-12+0198LSZL V0200901N001519999999N9999999N1+00031-00291100581ADDMA1999999098051MD1210121+9999OA149900261REMSYN076AAXX  07044 06762 33/// /0903 10003 21029 39805 40058 52012 333 91105 91203;
0128067620999992010010705004+46167+008883FM-12+0198LSZL V0200601N000519999999N9999999N1-00061-00221100651ADDMA1999999098111MD1210131+9999OA149900211REMSYN076AAXX  07054 06762 33/// /0601 11006 21022 39811 40065 52013 333 91104 91203;
0330067620999992010010706004+46167+008883FM-12+0198LSZL V0209999C001010240019N0200001N1-00111-00291100731ADDAA124000091AJ199992999999999AL19900091GA1051+024001031GF105991999999022501999999GJ102409IA1309IA2999-00609KA1999N-00281MA1999999098181MD1310181+9999OA149900261REMSYN124AAXX  07064 06762 32870 50002 11011 21029 39818 40073 53018 333 21028 3/106 42998 55040 70000 85358 90768 93100 91105 91203;EQDQ01  00002PRCP24Q02  09982SNDP  
0128067620999992010010707004+46167+008883FM-12+0198LSZL V0200501N000519999999N9999999N1-00241-00391100801ADDMA1999999098241MD1310191+9999OA149900151REMSYN076AAXX  07074 06762 33/// /0501 11024 21039 39824 40080 53019 333 91103 91202;
0128067620999992010010708004+46167+008883FM-12+0198LSZL V0209999C000019999999N9999999N1-00341-00441100901ADDMA1999999098331MD1219999+9999OA149900151REMSYN076AAXX  07084 06762 33/// /0000 11034 21044 39833 40090 52/// 333 91103 91202;
0128067620999992010010709004+46167+008883FM-12+0198LSZL V0200501N000519999999N9999999N1-00381-00451100971ADDMA1999999098391MD1110211+9999OA149900211REMSYN076AAXX  07094 06762 33/// /0501 11038 21045 39839 40097 51021 333 91104 91203;
0128067620999992010010710004+46167+008883FM-12+0198LSZL V0202401N000519999999N9999999N1+00031-00331100991ADDMA1999999098451MD1110211+9999OA149900151REMSYN076AAXX  07104 06762 33/// /2401 10003 21033 39845 40099 51021 333 91103 91202;
0128067620999992010010711004+46167+008883FM-12+0198LSZL V0209999C000019999999N9999999N1+00231-00331100951ADDMA1999999098431MD1210101+9999OA149900151REMSYN076AAXX  07114 06762 33/// /0000 10023 21033 39843 40095 52010 333 91103 91202;
0198067620999992010010712004+46167+008883FM-12+0198LSZL V0202001N000512200019N0200001N1+00371-00281100851ADDGA1031+018001061GA2011+087001001GF103991999999017501999999MA1999999098351MD1810041+9999OA149900261REMSYN088AAXX  07124 06762 32770 32001 10037 21028 39835 40085 58004 333 83656 81079 91105 91203;
0128067620999992010010713004+46167+008883FM-12+0198LSZL V0202601N000519999999N9999999N1+00431-00411100851ADDMA1999999098351MD1710101+9999OA149900151REMSYN076AAXX  07134 06762 33/// /2601 10043 21041 39835 40085 57010 333 91103 91202;
0118067620999992010010715004+46167+008883FM-12+0198LSZL V02099999999990270019N0200001N1+99999+99999999999ADDGA1081+027001041GF108991999999999999999999REMSYN064AAXX  07154 06762 42970 8//// 1//// 2//// 3//// 5//// 333 88459;
0101067620999992010010716004+46167+008883FM-12+0198LSZL V0201901N000519999999N9999999N1+00211-00241101021ADDMA1999999098501MD1210151+9999REMSYN060AAXX  07164 06762 43/// /1901 10021 21024 39850 40102 52015;
0128067620999992010010717004+46167+008883FM-12+0198LSZL V0209999C000019999999N9999999N1+00111-00221101091ADDMA1999999098561MD1219999+9999OA149900211REMSYN076AAXX  07174 06762 33/// /0000 10011 21022 39856 40109 52/// 333 91104 91202;
0229067620999992010010718004+46167+008883FM-12+0198LSZL V0201001N001010270019N0150001N1+00101-00221101111ADDAL19900091GA1081+027001041GF108991999999999999999999IA1149KA1120M+00461MA1999999098571MD1119999+9999OA149900211REMSYN106AAXX  07184 06762 32965 81002 10010 21022 39857 40111 51/// 333 10046 34/// 88459 90766 93100 91104 91203;
0128067620999992010010719004+46167+008883FM-12+0198LSZL V0200601N001519999999N9999999N1+00041-00171101121ADDMA1999999098581MD1210081+9999OA149900211REMSYN076AAXX  07194 06762 33/// /0603 10004 21017 39858 40112 52008 333 91104 91203;
0128067620999992010010720004+46167+008883FM-12+0198LSZL V0201201N000519999999N9999999N1+00221-00251101121ADDMA1999999098601MD1210041+9999OA149900211REMSYN076AAXX  07204 06762 33/// /1201 10022 21025 39860 40112 52004 333 91104 91203;
0204067620999992010010721004+46167+008883FM-12+0198LSZL V0203101N000510030019N0030001N1+00101-00091101221ADDAY121031AY221031GA1081+003001051GF108991999999004501999999MA1999999098681MD1210111+9999MW1831OA149900211REMSYN088AAXX  07214 06762 31430 83101 10010 21009 39868 40122 52011 78322 333 88510 91104 91203;
0145067620999992010010722004+46167+008883FM-12+0198LSZL V0202601N000519999999N9999999N1+00121-00021101231ADDAA101000891MA1999999098691MD1210111+9999OA149900151REMSYN082AAXX  07224 06762 23/// /2601 10012 21002 39869 40123 52011 333 69985 91103 91202;
0145067620999992010010723004+46167+008883FM-12+0198LSZL V0209999C000019999999N9999999N1+00041+00011101191ADDAA101001091MA1999999098651MD1010051+9999OA149900151REMSYN082AAXX  07234 06762 23/// /0000 10004 20001 39865 40119 50005 333 69995 91103 91202;
0227067620999992010010800004+46167+008883FM-12+0198LSZL V0209999C000010030019N0010001N1+00031-00011101131ADDAA106002091AY171061AY271061GA1081+003001051GF108991999999004501999999MA1999999098591MD1710091+9999MW1731OA149900211REMSYN100AAXX  08004 06762 01410 80000 10003 21001 39859 40113 57009 60021 77377 333 69965 88510 91104 91203;
0145067620999992010010801004+46167+008883FM-12+0198LSZL V0209999C000019999999N9999999N1+00031-00011101061ADDAA101000591MA1999999098521MD1810171+9999OA149900101REMSYN082AAXX  08014 06762 23/// /0000 10003 21001 39852 40106 58017 333 69965 91102 91201;
0145067620999992010010802004+46167+008883FM-12+0198LSZL V0209999C000019999999N9999999N1+00021-00011101011ADDAA101000891MA1999999098471MD1619999+9999OA149900051REMSYN082AAXX  08024 06762 23/// /0000 10002 21001 39847 40101 56/// 333 69985 91101 91201;
0221067620999992010010803004+46167+008883FM-12+0198LSZL V0200901N000510009019N0010001N1+00021+00011100941ADDAA101001091AY171031AY271031GA1081+000901051GF108991999999000751999999MA1999999098401MD1619999+9999MW1731OA149900151REMSYN094AAXX  08034 06762 21110 80901 10002 20001 39840 40094 56/// 77377 333 60015 88503 91103 91202;
0145067620999992010010804004+46167+008883FM-12+0198LSZL V0201101N000519999999N9999999N1+00041+00001100881ADDAA101002091MA1999999098341MD1810181+9999OA149900051REMSYN082AAXX  08044 06762 23/// /1101 10004 20000 39834 40088 58018 333 60025 91101 91201;
0145067620999992010010805004+46167+008883FM-12+0198LSZL V0201101N000519999999N9999999N1+00041+00011100791ADDAA101002091MA1999999098261MD1610211+9999OA149900101REMSYN082AAXX  08054 06762 23/// /1101 10004 20001 39826 40079 56021 333 60025 91102 91201;
0356067620999992010010806004+46167+008883FM-12+0198LSZL V0200601N000510009019N0005001N1+00031+00021100721ADDAA112009991AA224009991AJ100049199999999AL14800991AL29900491AY171061AY271061GA1081+000901051GF108991999999000751999999GJ102469IA1239IA2999-00109KA1999N+00021MA1999999098191MD1810211+9999MW1731OA149900211REMSYN142AAXX  08064 06762 01105 80601 10003 20002 39819 40072 58021 60102 77377 333 20002 3/101 47004 55041 60025 70098 88503 90768 93104 91104 91203;
0145067620999992010010807004+46167+008883FM-12+0198LSZL V0200901N000519999999N9999999N1+00041+00021100681ADDAA101000891MA1999999098151MD1610191+9999OA149900151REMSYN082AAXX  08074 06762 23/// /0901 10004 20002 39815 40068 56019 333 69985 91103 91202;
0145067620999992010010808004+46167+008883FM-12+0198LSZL V0200901N001019999999N9999999N1+00051+00011100631ADDAA101002091MA1999999098101MD1610161+9999OA149900211REMSYN082AAXX  08084 06762 23/// /0902 10005 20001 39810 40063 56016 333 60025 91104 91203;
0145067620999992010010809004+46167+008883FM-12+0198LSZL V0200901N002119999999N9999999N1+00111+00021100551ADDAA101001091MA1999999098031MD1810161+9999OA149900311REMSYN082AAXX  08094 06762 23/// /0904 10011 20002 39803 40055 58016 333 60015 91106 91204;
0145067620999992010010810004+46167+008883FM-12+0198LSZL V0200701N001519999999N9999999N1+00111+00021100481ADDAA101000021MA1999999097961MD1810191+9999OA149900311REMSYN082AAXX  08104 06762 23/// /0703 10011 20002 39796 40048 58019 333 69925 91106 91204;
0145067620999992010010811004+46167+008883FM-12+0198LSZL V0200901N002119999999N9999999N1+00131+00051100351ADDAA101000891MA1999999097841MD1810261+9999OA149900361REMSYN082AAXX  08114 06762 23/// /0904 10013 20005 39784 40035 58026 333 69975 91107 91205;
0221067620999992010010812004+46167+008883FM-12+0198LSZL V0200801N001510001519N0000001N1+00091+00021100241ADDAA106007191AY171061AY271061GA1091+999999999GF109991091999999999999999MA1999999097731MD1810301+9999MW1711OA149900361REMSYN094AAXX  08124 06762 01/00 90803 10009 20002 39773 40024 58030 60071 77177 333 60025 91107 91205;
0145067620999992010010813004+46167+008883FM-12+0198LSZL V0200201N000519999999N9999999N1+00061+00011100131ADDAA101002091MA1999999097621MD1710341+9999OA149900311REMSYN082AAXX  08134 06762 23/// /0201 10006 20001 39762 40013 57034 333 60025 91106 91204;
0151067620999992010010814004+46167+008883FM-12+0198LSZL V0200501N000519999999N9999999N1+00091+00031100081ADDAA101000891MA1999999097571MD1719999+9999OA149900261REMSYN088AAXX  08144 06762 23/// /0501 10009 20003 39757 40008 57/// 91340 333 69975 91105 91203;
0145067620999992010010815004+46167+008883FM-12+0198LSZL V0200901N000519999999N9999999N1+00101+00061100011ADDAA101002091MA1999999097501MD1610231+9999OA149900361REMSYN082AAXX  08154 06762 23/// /0901 10010 20006 39750 40001 56023 333 60025 91107 91205;
0145067620999992010010816004+46167+008883FM-12+0198LSZL V0200901N001019999999N9999999N1+00111+00051100011ADDAA101003091MA1999999097501MD1710121+9999OA149900151REMSYN082AAXX  08164 06762 23/// /0902 10011 20005 39750 40001 57012 333 60035 91103 91202;
0145067620999992010010817004+46167+008883FM-12+0198LSZL V0200601N000519999999N9999999N1+00081+00041100041ADDAA101004191MA1999999097531MD1510011+9999OA149900151REMSYN082AAXX  08174 06762 23/// /0601 10008 20004 39753 40004 55001 333 60045 91103 91202;
0297067620999992010010818004+46167+008883FM-12+0198LSZL V0201101N001010099019N0010001N1+00071+00041100091ADDAA112021191AJ100059199999999AL11200591AY161061AY261061GA1081+009901051GF108991999999008001999999IA1279KA1120M+00181MA1999999097581MD1310081+9999MW1611OA149900361REMSYN124AAXX  08184 06762 01510 81102 10007 20004 39758 40009 53008 60212 76166 333 10018 43005 60025 88533 90766 93105 91107 91205;
0145067620999992010010819004+46167+008883FM-12+0198LSZL V0201001N000519999999N9999999N1+00081+00021100131ADDAA101002091MA1999999097621MD1310121+9999OA149900151REMSYN082AAXX  08194 06762 23/// /1001 10008 20002 39762 40013 53012 333 60025 91103 91202;
0145067620999992010010820004+46167+008883FM-12+0198LSZL V0200901N000519999999N9999999N1+00061+00041100161ADDAA101001091MA1999999097641MD1210111+9999OA149900151REMSYN082AAXX  08204 06762 23/// /0901 10006 20004 39764 40016 52011 333 60015 91103 91202;
0221067620999992010010821004+46167+008883FM-12+0198LSZL V0201101N000510039019N0010001N1+00081+00041100161ADDAA101000591AY151031AY251031GA1081+003901051GF108991999999004501999999MA1999999097651MD1210071+9999MW1511OA149900151REMSYN094AAXX  08214 06762 21410 81101 10008 20004 39765 40016 52007 75155 333 69945 88513 91103 91202;
0145067620999992010010822004+46167+008883FM-12+0198LSZL V0200701N000519999999N9999999N1+00101+00031100151ADDAA101000021MA1999999097641MD1010021+9999OA149900151REMSYN082AAXX  08224 06762 23/// /0701 10010 20003 39764 40015 50002 333 69915 91103 91202;
0128067620999992010010823004+46167+008883FM-12+0198LSZL V0200801N000519999999N9999999N1+00071+00031100131ADDMA1999999097621MD1710021+9999OA149900151REMSYN076AAXX  08234 06762 33/// /0801 10007 20003 39762 40013 57002 333 91103 91202;
0249067620999992010010900004+46167+008883FM-12+0198LSZL V0209999C000010129019N0100001N1+00111+00081100111ADDAA106004191AY121061AY221061GA1041+000901071GA2081+012901051GF108991999999000751999999MA1999999097601MD1710051+9999MW1101OA149900261REMSYN106AAXX  09004 06762 01160 80000 10011 20008 39760 40011 57005 60041 71022 333 60005 84703 88543 91105 91203;
0145067620999992010010901004+46167+008883FM-12+0198LSZL V0202301N000519999999N9999999N1+00091+00041100111ADDAA101000021MA1999999097601MD1510041+9999OA149900261REMSYN082AAXX  09014 06762 23/// /2301 10009 20004 39760 40011 55004 333 69915 91105 91203;
0145067620999992010010902004+46167+008883FM-12+0198LSZL V0200301N001019999999N9999999N1+00111+00061100151ADDAA101000591MA1999999097641MD1319999+9999OA149900151REMSYN082AAXX  09024 06762 23/// /0302 10011 20006 39764 40015 53/// 333 69955 91103 91202;
0221067620999992010010903004+46167+008883FM-12+0198LSZL V0200901N001010021019N0080001N1+00081+00041100041ADDAA101000021AY121031AY221031GA1071+002101071GF107991999999002501999999MA1999999097531MD1819999+9999MW1581OA149900261REMSYN094AAXX  09034 06762 21358 70902 10008 20004 39753 40004 58/// 75822 333 69915 87707 91105 91203;
0128067620999992010010904004+46167+008883FM-12+0198LSZL V0202201N000519999999N9999999N1+00101+00041099931ADDMA1999999097421MD1710181+9999OA149900211REMSYN076AAXX  09044 06762 33/// /2201 10010 20004 39742 49993 57018 333 91104 91203;
0128067620999992010010905004+46167+008883FM-12+0198LSZL V0200801N001519999999N9999999N1+00111+00051099791ADDMA1999999097291MD1810351+9999OA149900261REMSYN076AAXX  09054 06762 33/// /0803 10011 20005 39729 49979 58035 333 91105 91203;
0229067620999992010010906004+46167+008883FM-12+0198LSZL V0202001N000519999999N9999999N1-00051-00061099711ADDAA112005191AA224025791AL14202591GJ100009IA2999-00209KA1999N-00021MA1999999097201MD1710331+9999OA149900261REMSYN112AAXX  09064 06762 03/// /2001 11005 21006 39720 49971 57033 60052 333 21002 3/102 55000 60005 70257 91105 91203;
0128067620999992010010907004+46167+008883FM-12+0198LSZL V0203601N001019999999N9999999N1-00071-00091099771ADDMA1999999097251MD1510171+9999OA149900151REMSYN076AAXX  09074 06762 33/// /3602 11007 21009 39725 49977 55017 333 91103 91202;
0128067620999992010010908004+46167+008883FM-12+0198LSZL V0201401N001019999999N9999999N1+00041+00001099811ADDMA1999999097301MD1310011+9999OA149900211REMSYN076AAXX  09084 06762 33/// /1402 10004 20000 39730 49981 53001 333 91104 91202;
0176067620999992010010909004+46167+008883FM-12+0198LSZL V0201001N001510180019N0200001N1+00081+00031099721ADDGA1081+018001041GF108991999999017501999999MA1999999097221MD1010021+9999OA149900261REMSYN082AAXX  09094 06762 32770 81003 10008 20003 39722 49972 50002 333 88456 91105 91204;
0128067620999992010010910004+46167+008883FM-12+0198LSZL V0200901N000519999999N9999999N1+00251+00111099591ADDMA1999999097111MD1710141+9999OA149900261REMSYN076AAXX  09104 06762 33/// /0901 10025 20011 39711 49959 57014 333 91105 91204;
0128067620999992010010911004+46167+008883FM-12+0198LSZL V0200701N000519999999N9999999N1+00251+00121099461ADDMA1999999096981MD1810321+9999OA149900261REMSYN076AAXX  09114 06762 33/// /0701 10025 20012 39698 49946 58032 333 91105 91203;
0176067620999992010010912004+46167+008883FM-12+0198LSZL V0209999C000010180019N0250001N1+00321+00141099321ADDGA1081+018001041GF108991999999017501999999MA1999999096851MD1810371+9999OA149900261REMSYN082AAXX  09124 06762 32775 80000 10032 20014 39685 49932 58037 333 88456 91105 91204;
0128067620999992010010913004+46167+008883FM-12+0198LSZL V0202101N000519999999N9999999N1+00291+00171099241ADDMA1999999096771MD1710341+9999OA149900261REMSYN076AAXX  09134 06762 33/// /2101 10029 20017 39677 49924 57034 333 91105 91202;
0128067620999992010010914004+46167+008883FM-12+0198LSZL V0202701N001019999999N9999999N1+00311+00181099311ADDMA1999999096841MD1510141+9999OA149900211REMSYN076AAXX  09144 06762 33/// /2702 10031 20018 39684 49931 55014 333 91104 91203;
0176067620999992010010915004+46167+008883FM-12+0198LSZL V0202701N003610180019N0200001N1+00431+00231099431ADDGA1081+018001041GF108991999999017501999999MA1999999096971MD1310121+9999OA149900571REMSYN082AAXX  09154 06762 32770 82707 10043 20023 39697 49943 53012 333 88456 91111 91207;
0145067620999992010010916004+46167+008883FM-12+0198LSZL V0202701N003619999999N9999999N1+00551+00301099561ADDAA101000391MA1999999097101MD1310331+9999OA149900671REMSYN082AAXX  09164 06762 23/// /2707 10055 20030 39710 49956 53033 333 69935 91113 91207;
0145067620999992010010917004+46167+008883FM-12+0198LSZL V0202701N002119999999N9999999N1+00491+00391099671ADDAA101002091MA1999999097211MD1210371+9999OA149901081REMSYN082AAXX  09174 06762 23/// /2704 10049 20039 39721 49967 52037 333 60025 91121 91214;
0170067620999992010010918004+46167+008883FM-12+0198LSZL V0202301N001019999999N9999999N1+00311+00271099781ADDAA112003091KA1120M+00581MA1999999097301MD1110331+9999OA149901081REMSYN094AAXX  09184 06762 03/// /2302 10031 20027 39730 49978 51033 60032 333 10058 60015 91121 91214;
0145067620999992010010919004+46167+008883FM-12+0198LSZL V0201001N001519999999N9999999N1+00301+00261099881ADDAA101000891MA1999999097391MD1110291+9999OA149900411REMSYN082AAXX  09194 06762 23/// /1003 10030 20026 39739 49988 51029 333 69985 91108 91204;
0145067620999992010010920004+46167+008883FM-12+0198LSZL V0209999C000019999999N9999999N1+00211+00211099981ADDAA101000591MA1999999097481MD1310271+9999OA149900211REMSYN082AAXX  09204 06762 23/// /0000 10021 20021 39748 49998 53027 333 69945 91104 91203;
0205067620999992010010921004+46167+008883FM-12+0198LSZL V0202001N000510030019N0030001N1+00261+00251100041ADDAA101002091GA1081+003001051GF108991999999004501999999MA1999999097551MD1210251+9999MW1631OA149901081REMSYN094AAXX  09214 06762 21430 82001 10026 20025 39755 40004 52025 763// 333 60025 88510 91121 91214;
0145067620999992010010922004+46167+008883FM-12+0198LSZL V0201401N001019999999N9999999N1+00231+00221100131ADDAA101000591MA1999999097631MD1110241+9999OA149900151REMSYN082AAXX  09224 06762 23/// /1402 10023 20022 39763 40013 51024 333 69955 91103 91203;
0145067620999992010010923004+46167+008883FM-12+0198LSZL V0209999C000019999999N9999999N1+00251+00231100201ADDAA101001091MA1999999097701MD1310221+9999OA149900151REMSYN082AAXX  09234 06762 23/// /0000 10025 20023 39770 40020 53022 333 60015 91103 91203;
0249067620999992010011000004+46167+008883FM-12+0198LSZL V0201101N001010060019N0030001N1+00261+00191100231ADDAA106005191AY161061AY261061GA1031+000901071GA2081+006001051GF108991999999000751999999MA1999999097731MD1110181+9999MW1631OA149901081REMSYN106AAXX  10004 06762 01130 81102 10026 20019 39773 40023 51018 60051 76366 333 69965 83703 88520 91121 91214;
0145067620999992010011001004+46167+008883FM-12+0198LSZL V0200901N001019999999N9999999N1+00221+00151100281ADDAA101000891MA1999999097781MD1110151+9999OA149900261REMSYN082AAXX  10014 06762 23/// /0902 10022 20015 39778 40028 51015 333 69975 91105 91203;
0108067620999992010011002004+46167+008883FM-12+0198LSZL V0200901N001019999999N9999999N1+00201+00131100371ADDAA101000891MA1999999097861REMSYN070AAXX  10024 06762 23/// /0902 10020 20013 39786 40037 5//// 333 69975;
0167067620999992010011003004+46167+008883FM-12+0198LSZL V0200601N000510021019N0030001N1+00161+00131100431ADDAY161031AY261031GA1081+002101051GF108991999999002501999999MA1999999097921MW1631REMSYN076AAXX  10034 06762 41330 80601 10016 20013 39792 40043 5//// 76366 333 88507;
0145067620999992010011004004+46167+008883FM-12+0198LSZL V0209999C000019999999N9999999N1+00111+00101100511ADDAA101000391MA1999999097991MD1110211+9999OA149900151REMSYN082AAXX  10044 06762 23/// /0000 10011 20010 39799 40051 51021 333 69935 91103 91202;
0128067620999992010011005004+46167+008883FM-12+0198LSZL V0202901N001019999999N9999999N1+00211+00141100551ADDMA1999999098041MD1210181+9999OA149900261REMSYN076AAXX  10054 06762 33/// /2902 10021 20014 39804 40055 52018 333 91105 91203;
0356067620999992010011006004+46167+008883FM-12+0198LSZL V0201601N000510081019N0100001N1+00181+00131100591ADDAA112007191AA224010491AJ100059199999999AL12401091AL29900091AY161061AY221061GA1081+008101051GF108991999999008001999999GJ100009IA1309IA2999+00009KA1999N+00111MA1999999098081MD1110161+9999MW1611OA149900261REMSYN142AAXX  10064 06762 01560 81601 10018 20013 39808 40059 51016 60072 76162 333 20011 3/000 42005 55000 60005 70104 88527 90768 93100 91105 91203;
0128067620999992010011007004+46167+008883FM-12+0198LSZL V0209999C000019999999N9999999N1+00221+00161100661ADDMA1999999098151MD1310161+9999OA149900261REMSYN076AAXX  10074 06762 33/// /0000 10022 20016 39815 40066 53016 333 91105 91202;
0128067620999992010011008004+46167+008883FM-12+0198LSZL V0200601N001019999999N9999999N1+00161+00111100771ADDMA1999999098251MD1319999+9999OA149900261REMSYN076AAXX  10084 06762 33/// /0602 10016 20011 39825 40077 53/// 333 91105 91203;
0204067620999992010011009004+46167+008883FM-12+0198LSZL V0200901N001010081019N0200001N1+00231+00151100861ADDAY161031AY221031GA1081+008101071GF108991999999008001999999MA1999999098341MD1310261+9999MW1021OA149900261REMSYN088AAXX  10094 06762 31570 80902 10023 20015 39834 40086 53026 70262 333 88727 91105 91203;
0128067620999992010011010004+46167+008883FM-12+0198LSZL V0200401N000519999999N9999999N1+00261+00181100911ADDMA1999999098391MD1110241+9999OA149900151REMSYN076AAXX  10104 06762 33/// /0401 10026 20018 39839 40091 51024 333 91103 91203;
0128067620999992010011011004+46167+008883FM-12+0198LSZL V0201101N001019999999N9999999N1+00381+00201100911ADDMA1999999098411MD1210161+9999OA149900151REMSYN076AAXX  10114 06762 33/// /1102 10038 20020 39841 40091 52016 333 91103 91202;
0226067620999992010011012004+46167+008883FM-12+0198LSZL V0201101N001510081019N0300001N1+00511+00221100881ADDAY161061AY221061GA1021+003001071GA2061+008101061GF106991999999004501999999MA1999999098391MD1010051+9999MW1011OA149900311REMSYN094AAXX  10124 06762 31480 61103 10051 20022 39839 40088 50005 70162 333 82710 86627 91106 91204;
0128067620999992010011013004+46167+008883FM-12+0198LSZL V0201001N002119999999N9999999N1+00551+00201100851ADDMA1999999098361MD1710031+9999OA149900361REMSYN076AAXX  10134 06762 33/// /1004 10055 20020 39836 40085 57003 333 91107 91205;
0128067620999992010011014004+46167+008883FM-12+0198LSZL V0202201N001019999999N9999999N1+00531+00191100861ADDMA1999999098371MD1719999+9999OA149900361REMSYN076AAXX  10144 06762 33/// /2202 10053 20019 39837 40086 57/// 333 91107 91205;
0176067620999992010011015004+46167+008883FM-12+0198LSZL V0202101N001012200019N0250001N1+00341+00141100911ADDGA1031+006001071GF103991999999008001999999MA1999999098401MD1310011+9999OA149900361REMSYN082AAXX  10154 06762 32575 32102 10034 20014 39840 40091 53001 333 83720 91107 91205;
0128067620999992010011016004+46167+008883FM-12+0198LSZL V0201701N000519999999N9999999N1+00261+00121100981ADDMA1999999098461MD1310101+9999OA149900151REMSYN076AAXX  10164 06762 33/// /1701 10026 20012 39846 40098 53010 333 91103 91202;
0128067620999992010011017004+46167+008883FM-12+0198LSZL V0201401N000519999999N9999999N1+00301+00141101021ADDMA1999999098511MD1310141+9999OA149900151REMSYN076AAXX  10174 06762 33/// /1401 10030 20014 39851 40102 53014 333 91103 91202;
0147067620999992010011018004+46167+008883FM-12+0198LSZL V0200801N001019999999N9999999N1+00181+00111101111ADDKA1120M+00571MA1999999098581MD1310181+9999OA149900361REMSYN082AAXX  10184 06762 33/// /0802 10018 20011 39858 40111 53018 333 10057 91107 91205;
0128067620999992010011019004+46167+008883FM-12+0198LSZL V0200701N001019999999N9999999N1+00261+00141101151ADDMA1999999098631MD1110171+9999OA149900151REMSYN076AAXX  10194 06762 33/// /0702 10026 20014 39863 40115 51017 333 91103 91202;
0128067620999992010011020004+46167+008883FM-12+0198LSZL V0201101N001019999999N9999999N1+00321+00111101201ADDMA1999999098681MD1110171+9999OA149900261REMSYN076AAXX  10204 06762 33/// /1102 10032 20011 39868 40120 51017 333 91105 91203;
0188067620999992010011021004+46167+008883FM-12+0198LSZL V0203401N000510081019N0150001N1+00221+00111101251ADDGA1081+008101071GF108991999999008001999999MA1999999098721MD1210141+9999MW1001OA149900261REMSYN088AAXX  10214 06762 31565 83401 10022 20011 39872 40125 52014 700// 333 88727 91105 91203;
0128067620999992010011022004+46167+008883FM-12+0198LSZL V0201001N001519999999N9999999N1+00311+00021101261ADDMA1999999098741MD1210111+9999OA149900261REMSYN076AAXX  10224 06762 33/// /1003 10031 20002 39874 40126 52011 333 91105 91203;
0128067620999992010011023004+46167+008883FM-12+0198LSZL V0200901N001019999999N9999999N1+00301+00031101291ADDMA1999999098771MD1210091+9999OA149900261REMSYN076AAXX  10234 06762 33/// /0902 10030 20003 39877 40129 52009 333 91105 91203;
0226067620999992010011100004+46167+008883FM-12+0198LSZL V0200801N001510150019N0100001N1+00281-00071101291ADDAY121061AY221061GA1041+000901071GA2071+015001061GF107991999999000751999999MA1999999098771MD1210051+9999MW1101OA149900361REMSYN094AAXX  11004 06762 31160 70803 10028 21007 39877 40129 52005 71022 333 84703 87650 91107 91205;
0128067620999992010011101004+46167+008883FM-12+0198LSZL V0200901N002119999999N9999999N1+00311-00181101291ADDMA1999999098771MD1010031+9999OA149900411REMSYN076AAXX  11014 06762 33/// /0904 10031 21018 39877 40129 50003 333 91108 91205;
0128067620999992010011102004+46167+008883FM-12+0198LSZL V0201101N001519999999N9999999N1+00231-00211101321ADDMA1999999098791MD1319999+9999OA149900411REMSYN076AAXX  11024 06762 33/// /1103 10023 21021 39879 40132 53/// 333 91108 91205;
0198067620999992010011103004+46167+008883FM-12+0198LSZL V0200901N002112200019N0150001N1+00181-00191101331ADDGA1011+009901071GA2041+024001031GF104991999999008001999999MA1999999098801MD1219999+9999OA149900411REMSYN088AAXX  11034 06762 32565 40904 10018 21019 39880 40133 52/// 333 81733 84358 91108 91205;
0128067620999992010011104004+46167+008883FM-12+0198LSZL V0201301N001019999999N9999999N1+00121-00231101351ADDMA1999999098811MD1110041+9999OA149900411REMSYN076AAXX  11044 06762 33/// /1302 10012 21023 39881 40135 51004 333 91108 91205;
0128067620999992010011105004+46167+008883FM-12+0198LSZL V0200601N001019999999N9999999N1+00001-00291101391ADDMA1999999098841MD1310051+9999OA149900411REMSYN076AAXX  11054 06762 33/// /0602 10000 21029 39884 40139 53005 333 91108 91205;
0206067620999992010011106004+46167+008883FM-12+0198LSZL V0200801N002119999999N9999999N1+00001-00291101411ADDAA124000021AL19900091GJ101869IA2999-00409KA1999N-00091MA1999999098861MD1310061+9999OA149900411REMSYN100AAXX  11064 06762 33/// /0804 10000 21029 39886 40141 53006 333 21009 3/104 55031 70000 91108 91205;
0128067620999992010011107004+46167+008883FM-12+0198LSZL V0200901N002119999999N9999999N1+00021-00331101431ADDMA1999999098881MD1110071+9999OA149900361REMSYN076AAXX  11074 06762 33/// /0904 10002 21033 39888 40143 51007 333 91107 91205;
0128067620999992010011108004+46167+008883FM-12+0198LSZL V0200801N002119999999N9999999N1+00011-00381101481ADDMA1999999098931MD1319999+9999OA149900411REMSYN076AAXX  11084 06762 33/// /0804 10001 21038 39893 40148 53/// 333 91108 91206;
0128067620999992010011109004+46167+008883FM-12+0198LSZL V0200801N002119999999N9999999N1+00031-00381101521ADDMA1999999098971MD1310111+9999OA149900411REMSYN076AAXX  11094 06762 33/// /0804 10003 21038 39897 40152 53011 333 91108 91206;
0128067620999992010011110004+46167+008883FM-12+0198LSZL V0201301N001019999999N9999999N1+00181-00321101521ADDMA1999999098981MD1219999+9999OA149900411REMSYN076AAXX  11104 06762 33/// /1302 10018 21032 39898 40152 52/// 333 91108 91205;
0128067620999992010011111004+46167+008883FM-12+0198LSZL V0201301N001019999999N9999999N1+00291-00231101481ADDMA1999999098951MD1010021+9999OA149900411REMSYN076AAXX  11114 06762 33/// /1302 10029 21023 39895 40148 50002 333 91108 91205;
0128067620999992010011112004+46167+008883FM-12+0198LSZL V0201801N000519999999N9999999N1+00421-00211101401ADDMA1999999098891MD1710081+9999OA149900411REMSYN076AAXX  11124 06762 33/// /1801 10042 21021 39889 40140 57008 333 91108 91206;
0128067620999992010011113004+46167+008883FM-12+0198LSZL V0202201N001019999999N9999999N1+00391-00151101331ADDMA1999999098821MD1810161+9999OA149900261REMSYN076AAXX  11134 06762 33/// /2202 10039 21015 39882 40133 58016 333 91105 91203;
0087067620999992010011114004+46167+008883FM-12+0198LSZL V0202301N001019999999N9999999N1+00321-00181101321ADDMA1999999098801REMSYN060AAXX  11144 06762 33/// /2302 10032 21018 39880 40132 5////;
0176067620999992010011115004+46167+008883FM-12+0198LSZL V0209999C000012200019N0350001N1+00151-00141101321ADDGA1011+015001081GF101991999999017501999999MA1999999098781MD1610111+9999OA149900411REMSYN082AAXX  11154 06762 32781 10000 10015 21014 39878 40132 56011 333 81850 91108 91205;
0128067620999992010011116004+46167+008883FM-12+0198LSZL V0200701N000519999999N9999999N1+00071-00141101321ADDMA1999999098781MD1610041+9999OA149900151REMSYN076AAXX  11164 06762 33/// /0701 10007 21014 39878 40132 56004 333 91103 91202;
0128067620999992010011117004+46167+008883FM-12+0198LSZL V0201001N000519999999N9999999N1-00051-00181101381ADDMA1999999098821MD1310021+9999OA149900101REMSYN076AAXX  11174 06762 33/// /1001 11005 21018 39882 40138 53002 333 91102 91202;
0147067620999992010011118004+46167+008883FM-12+0198LSZL V0202201N000519999999N9999999N1-00031-00171101431ADDKA1120M+00431MA1999999098871MD1310091+9999OA149900411REMSYN082AAXX  11184 06762 33/// /2201 11003 21017 39887 40143 53009 333 10043 91108 91206;
0128067620999992010011119004+46167+008883FM-12+0198LSZL V0201301N000519999999N9999999N1-00081-00201101491ADDMA1999999098931MD1310151+9999OA149900151REMSYN076AAXX  11194 06762 33/// /1301 11008 21020 39893 40149 53015 333 91103 91201;
0128067620999992010011120004+46167+008883FM-12+0198LSZL V0201401N000519999999N9999999N1-00071-00201101541ADDMA1999999098981MD1110161+9999OA149900151REMSYN076AAXX  11204 06762 33/// /1401 11007 21020 39898 40154 51016 333 91103 91201;
0176067620999992010011121004+46167+008883FM-12+0198LSZL V0200601N000512200019N0150001N1-00191-00261101601ADDGA1011+024001031GF103991999999022501999999MA1999999099021MD1210151+9999OA149900151REMSYN082AAXX  11214 06762 32865 30601 11019 21026 39902 40160 52015 333 81358 91103 91202;
0128067620999992010011122004+46167+008883FM-12+0198LSZL V0200301N001019999999N9999999N1-00231-00271101621ADDMA1999999099041MD1210111+9999OA149900151REMSYN076AAXX  11224 06762 33/// /0302 11023 21027 39904 40162 52011 333 91103 91202;
0128067620999992010011123004+46167+008883FM-12+0198LSZL V0209999C000019999999N9999999N1-00111-00171101631ADDMA1999999099061MD1210081+9999OA149900151REMSYN076AAXX  11234 06762 33/// /0000 11011 21017 39906 40163 52008 333 91103 91202;
0204067620999992010011200004+46167+008883FM-12+0198LSZL V0209999C000010240019N0100001N1-00071-00161101601ADDAY101061AY201061GA1071+024001031GF107991999999022501999999MA1999999099041MD1010021+9999MW1101OA149900151REMSYN088AAXX  12004 06762 31860 70000 11007 21016 39904 40160 50002 71000 333 87358 91103 91203;
0128067620999992010011201004+46167+008883FM-12+0198LSZL V0201201N000519999999N9999999N1-00081-00161101641ADDMA1999999099071MD1210031+9999OA149900211REMSYN076AAXX  12014 06762 33/// /1201 11008 21016 39907 40164 52003 333 91104 91203;
0128067620999992010011202004+46167+008883FM-12+0198LSZL V0200701N001019999999N9999999N1-00141-00191101631ADDMA1999999099061MD1219999+9999OA149900211REMSYN076AAXX  12024 06762 33/// /0702 11014 21019 39906 40163 52/// 333 91104 91203;
0204067620999992010011203004+46167+008883FM-12+0198LSZL V0201001N000510240019N0100001N1-00041-00131101631ADDAY121031AY221031GA1071+024001031GF107991999999022501999999MA1999999099071MD1210031+9999MW1101OA149900211REMSYN088AAXX  12034 06762 31860 71001 11004 21013 39907 40163 52003 71022 333 87358 91104 91203;
0128067620999992010011204004+46167+008883FM-12+0198LSZL V0200301N000519999999N9999999N1-00091-00131101631ADDMA1999999099061MD1710011+9999OA149900151REMSYN076AAXX  12044 06762 33/// /0301 11009 21013 39906 40163 57001 333 91103 91202;
0128067620999992010011205004+46167+008883FM-12+0198LSZL V0201201N000519999999N9999999N1-00141-00181101631ADDMA1999999099061MD1010001+9999OA149900151REMSYN076AAXX  12054 06762 33/// /1201 11014 21018 39906 40163 50000 333 91103 91201;
0291067620999992010011206004+46167+008883FM-12+0198LSZL V0209999C000012200019N0150001N1-00161-00161101661ADDAA124000091AL19900091GA1031+021001061GF103991999999022501999999GJ103009IA1019IA2999-00509KA1999N-00311MA1999999099091MD1310021+9999OA149900211REMSYN118AAXX  12064 06762 32865 30000 11016 21016 39909 40166 53002 333 21031 30105 55050 70000 83657 90768 93100 91104 91203;EQDQ01  00002PRCP24
0128067620999992010011207004+46167+008883FM-12+0198LSZL V0209999C000019999999N9999999N1-00281-00301101701ADDMA1999999099111MD1210051+9999OA149900101REMSYN076AAXX  12074 06762 33/// /0000 11028 21030 39911 40170 52005 333 91102 91202;
0128067620999992010011208004+46167+008883FM-12+0198LSZL V0200901N000519999999N9999999N1-00371-00381101741ADDMA1999999099141MD1219999+9999OA149900101REMSYN076AAXX  12084 06762 33/// /0901 11037 21038 39914 40174 52/// 333 91102 91201;
0128067620999992010011209004+46167+008883FM-12+0198LSZL V0201201N001019999999N9999999N1-00191-00251101731ADDMA1999999099151MD1210061+9999OA149900151REMSYN076AAXX  12094 06762 33/// /1202 11019 21025 39915 40173 52006 333 91103 91202;
0128067620999992010011210004+46167+008883FM-12+0198LSZL V0201201N001019999999N9999999N1+00131-00131101691ADDMA1999999099141MD1010031+9999OA149900211REMSYN076AAXX  12104 06762 33/// /1202 10013 21013 39914 40169 50003 333 91104 91203;
0128067620999992010011211004+46167+008883FM-12+0198LSZL V0200801N000519999999N9999999N1+00111-00121101661ADDMA1999999099111MD1810031+9999OA149900211REMSYN076AAXX  12114 06762 33/// /0801 10011 21012 39911 40166 58003 333 91104 91203;
0198067620999992010011212004+46167+008883FM-12+0198LSZL V0209999C000010480019N0200001N1+00161-00081101591ADDGA1041+015001061GA2081+048001041GF108991999999017501999999MA1999999099051MD1710101+9999OA149900211REMSYN088AAXX  12124 06762 32770 80000 10016 21008 39905 40159 57010 333 84650 88466 91104 91203;
0128067620999992010011213004+46167+008883FM-12+0198LSZL V0209999C000019999999N9999999N1+00211-00111101551ADDMA1999999099011MD1810131+9999OA149900101REMSYN076AAXX  12134 06762 33/// /0000 10021 21011 39901 40155 58013 333 91102 91201;
0087067620999992010011214004+46167+008883FM-12+0198LSZL V0209999C000019999999N9999999N1+00151-00051101521ADDMA1999999098981REMSYN060AAXX  12144 06762 33/// /0000 10015 21005 39898 40152 5////;
0128067620999992010011215004+46167+008883FM-12+0198LSZL V0209999C000019999999N9999999N1+00171-00061101461ADDMA1999999098921MD1810131+9999OA149900211REMSYN076AAXX  12154 06762 33/// /0000 10017 21006 39892 40146 58013 333 91104 91203;
0128067620999992010011216004+46167+008883FM-12+0198LSZL V0209999C000019999999N9999999N1+00171-00051101451ADDMA1999999098911MD1610101+9999OA149900151REMSYN076AAXX  12164 06762 33/// /0000 10017 21005 39891 40145 56010 333 91103 91202;
0128067620999992010011217004+46167+008883FM-12+0198LSZL V0200901N000519999999N9999999N1+00121-00071101421ADDMA1999999098881MD1710101+9999OA149900151REMSYN076AAXX  12174 06762 33/// /0901 10012 21007 39888 40142 57010 333 91103 91202;
0265067620999992010011218004+46167+008883FM-12+0198LSZL V0200101N000510270019N0150001N1+00091-00051101431ADDAJ199992999999999AL19900091GA1081+027001041GF108991999999999999999999IA1309KA1120M+00241MA1999999098891MD1710031+9999OA149900211REMSYN106AAXX  12184 06762 32965 80101 10009 21005 39889 40143 57003 333 10024 42998 88459 90766 93100 91104 91203;EQDQ01  09982SNDP  
0128067620999992010011219004+46167+008883FM-12+0198LSZL V0209999C000019999999N9999999N1+00081-00061101471ADDMA1999999098921MD1310011+9999OA149900211REMSYN076AAXX  12194 06762 33/// /0000 10008 21006 39892 40147 53001 333 91104 91202;
0128067620999992010011220004+46167+008883FM-12+0198LSZL V0202001N000519999999N9999999N1+00081-00041101481ADDMA1999999098931MD1210051+9999OA149900151REMSYN076AAXX  12204 06762 33/// /2001 10008 21004 39893 40148 52005 333 91103 91202;
0176067620999992010011221004+46167+008883FM-12+0198LSZL V0200901N000510270019N0150001N1+00061-00041101451ADDGA1081+027001041GF108991999999999999999999MA1999999098901MD1010011+9999OA149900211REMSYN082AAXX  12214 06762 32965 80901 10006 21004 39890 40145 50001 333 88459 91104 91202;
0128067620999992010011222004+46167+008883FM-12+0198LSZL V0200901N001019999999N9999999N1+00091-00031101391ADDMA1999999098851MD1710071+9999OA149900151REMSYN076AAXX  12224 06762 33/// /0902 10009 21003 39885 40139 57007 333 91103 91202;
0128067620999992010011223004+46167+008883FM-12+0198LSZL V0201001N001519999999N9999999N1+00161-00071101291ADDMA1999999098761MD1810171+9999OA149900211REMSYN076AAXX  12234 06762 33/// /1003 10016 21007 39876 40129 58017 333 91104 91203;
0176067620999992010011300004+46167+008883FM-12+0198LSZL V0203001N000510270019N0150001N1+00061-00071101301ADDGA1081+027001041GF108991999999999999999999MA1999999098761MD1710141+9999OA149900211REMSYN082AAXX  13004 06762 32965 83001 10006 21007 39876 40130 57014 333 88459 91104 91203;
0128067620999992010011301004+46167+008883FM-12+0198LSZL V0201101N001019999999N9999999N1+00111-00071101251ADDMA1999999098711MD1710141+9999OA149900211REMSYN076AAXX  13014 06762 33/// /1102 10011 21007 39871 40125 57014 333 91104 91202;
0128067620999992010011302004+46167+008883FM-12+0198LSZL V0202401N001019999999N9999999N1+00071-00041101231ADDMA1999999098691MD1719999+9999OA149900211REMSYN076AAXX  13024 06762 33/// /2402 10007 21004 39869 40123 57/// 333 91104 91202;
0221067620999992010011303004+46167+008883FM-12+0198LSZL V0200701N000510270019N0150001N1+00061+00021101191ADDAA101000021AY121031AY221031GA1081+027001041GF108991999999999999999999MA1999999098651MD1619999+9999MW1661OA149900211REMSYN094AAXX  13034 06762 21965 80701 10006 20002 39865 40119 56/// 76622 333 69915 88459 91104 91203;
0145067620999992010011304004+46167+008883FM-12+0198LSZL V0200401N000519999999N9999999N1+00061+00021101171ADDAA101000021MA1999999098631MD1810081+9999OA149900151REMSYN082AAXX  13044 06762 23/// /0401 10006 20002 39863 40117 58008 333 69915 91103 91202;
0128067620999992010011305004+46167+008883FM-12+0198LSZL V0200801N000519999999N9999999N1+00051+00011101131ADDMA1999999098591MD1610101+9999OA149900101REMSYN076AAXX  13054 06762 33/// /0801 10005 20001 39859 40113 56010 333 91102 91202;
0307067620999992010011306004+46167+008883FM-12+0198LSZL V0202301N000510270019N0150001N1+00071+00011101131ADDAA112000021AA224000391AL19900091GA1081+027001041GF108991999999999999999999GJ100849IA1119IA2999-00109KA1999N+00001MA1999999098591MD1710061+9999MW1501OA149900211REMSYN136AAXX  13064 06762 01965 82301 10007 20001 39859 40113 57006 69922 750// 333 20000 32101 55014 60005 70002 88459 90768 93100 91104 91203;
0128067620999992010011307004+46167+008883FM-12+0198LSZL V0209999C000019999999N9999999N1+00041+00031101151ADDMA1999999098611MD1510021+9999OA149900051REMSYN076AAXX  13074 06762 33/// /0000 10004 20003 39861 40115 55002 333 91101 91201;
0128067620999992010011308004+46167+008883FM-12+0198LSZL V0203501N000519999999N9999999N1+00051+00031101181ADDMA1999999098641MD1310051+9999OA149900101REMSYN076AAXX  13084 06762 33/// /3501 10005 20003 39864 40118 53005 333 91102 91201;
0128067620999992010011309004+46167+008883FM-12+0198LSZL V0200601N001019999999N9999999N1+00131+00071101201ADDMA1999999098671MD1310081+9999OA149900151REMSYN076AAXX  13094 06762 33/// /0602 10013 20007 39867 40120 53008 333 91103 91202;
0128067620999992010011310004+46167+008883FM-12+0198LSZL V0209999C000019999999N9999999N1+00171+00091101221ADDMA1999999098691MD1210081+9999OA149900151REMSYN076AAXX  13104 06762 33/// /0000 10017 20009 39869 40122 52008 333 91103 91202;
0128067620999992010011311004+46167+008883FM-12+0198LSZL V0200201N001019999999N9999999N1+00251+00091101191ADDMA1999999098671MD1010031+9999OA149900101REMSYN076AAXX  13114 06762 33/// /0202 10025 20009 39867 40119 50003 333 91102 91202;
0128067620999992010011312004+46167+008883FM-12+0198LSZL V0202501N000519999999N9999999N1+00311+00101101131ADDMA1999999098611MD1710061+9999OA149900211REMSYN076AAXX  13124 06762 33/// /2501 10031 20010 39861 40113 57006 333 91104 91202;
0128067620999992010011313004+46167+008883FM-12+0198LSZL V0209999C000019999999N9999999N1+00301+00101101091ADDMA1999999098571MD1710121+9999OA149900151REMSYN076AAXX  13134 06762 33/// /0000 10030 20010 39857 40109 57012 333 91103 91202;
0128067620999992010011314004+46167+008883FM-12+0198LSZL V0209999C000019999999N9999999N1+00341+00051101071ADDMA1999999098561MD1619999+9999OA149900101REMSYN076AAXX  13144 06762 33/// /0000 10034 20005 39856 40107 56/// 333 91102 91202;
0128067620999992010011315004+46167+008883FM-12+0198LSZL V0202401N000519999999N9999999N1+00351+00071101071ADDMA1999999098561MD1710051+9999OA149900151REMSYN076AAXX  13154 06762 33/// /2401 10035 20007 39856 40107 57005 333 91103 91202;
0128067620999992010011316004+46167+008883FM-12+0198LSZL V0209999C000019999999N9999999N1+00211+00081101121ADDMA1999999098591MD1310021+9999OA149900101REMSYN076AAXX  13164 06762 33/// /0000 10021 20008 39859 40112 53002 333 91102 91202;
0128067620999992010011317004+46167+008883FM-12+0198LSZL V0209999C000019999999N9999999N1+00171+00091101171ADDMA1999999098641MD1210081+9999OA149900101REMSYN076AAXX  13174 06762 33/// /0000 10017 20009 39864 40117 52008 333 91102 91202;
0147067620999992010011318004+46167+008883FM-12+0198LSZL V0201301N001019999999N9999999N1+00141+00061101201ADDKA1120M+00361MA1999999098671MD1310111+9999OA149900151REMSYN082AAXX  13184 06762 33/// /1302 10014 20006 39867 40120 53011 333 10036 91103 91202;
0128067620999992010011319004+46167+008883FM-12+0198LSZL V0200801N001019999999N9999999N1+00101+00051101221ADDMA1999999098681MD1210091+9999OA149900151REMSYN076AAXX  13194 06762 33/// /0802 10010 20005 39868 40122 52009 333 91103 91202;
0128067620999992010011320004+46167+008883FM-12+0198LSZL V0201101N001019999999N9999999N1+00171+00051101211ADDMA1999999098681MD1010041+9999OA149900151REMSYN076AAXX  13204 06762 33/// /1102 10017 20005 39868 40121 50004 333 91103 91202;
0128067620999992010011321004+46167+008883FM-12+0198LSZL V0200901N000519999999N9999999N1+00171+00051101221ADDMA1999999098691MD1210021+9999OA149900151REMSYN076AAXX  13214 06762 33/// /0901 10017 20005 39869 40122 52002 333 91103 91202;
0128067620999992010011322004+46167+008883FM-12+0198LSZL V0203301N000519999999N9999999N1+00091+00041101231ADDMA1999999098691MD1210011+9999OA149900151REMSYN076AAXX  13224 06762 33/// /3301 10009 20004 39869 40123 52001 333 91103 91202;
0128067620999992010011323004+46167+008883FM-12+0198LSZL V0209999C000019999999N9999999N1+00091+00021101221ADDMA1999999098681MD1710011+9999OA149900101REMSYN076AAXX  13234 06762 33/// /0000 10009 20002 39868 40122 57000 333 91102 91201;
0128067620999992010011400004+46167+008883FM-12+0198LSZL V0209999C000019999999N9999999N1-00101-00101101231ADDMA1999999098671MD1710021+9999OA149900151REMSYN076AAXX  14004 06762 33/// /0000 11010 21010 39867 40123 57002 333 91103 91202;
0128067620999992010011401004+46167+008883FM-12+0198LSZL V0201001N001019999999N9999999N1-00061-00091101221ADDMA1999999098671MD1510021+9999OA149900151REMSYN076AAXX  14014 06762 33/// /1002 11006 21009 39867 40122 55002 333 91103 91202;
0128067620999992010011402004+46167+008883FM-12+0198LSZL V0200901N001519999999N9999999N1-00051-00101101211ADDMA1999999098661MD1719999+9999OA149900261REMSYN076AAXX  14024 06762 33/// /0903 11005 21010 39866 40121 57/// 333 91105 91204;
0139067620999992010011403004+46167+008883FM-12+0198LSZL V0209999C000010099019N0100001N1+00091+00011101211ADDGA1081+009901071GF108991999999008001999999MA1999999098671REMSYN070AAXX  14034 06762 32560 80000 10009 20001 39867 40121 5//// 333 88733;
0128067620999992010011404004+46167+008883FM-12+0198LSZL V0200901N001019999999N9999999N1+00051-00021101211ADDMA1999999098671MD1010001+9999OA149900151REMSYN076AAXX  14044 06762 33/// /0902 10005 21002 39867 40121 50000 333 91103 91202;
0128067620999992010011405004+46167+008883FM-12+0198LSZL V0200901N001019999999N9999999N1+00021-00051101211ADDMA1999999098661MD1010001+9999OA149900151REMSYN076AAXX  14054 06762 33/// /0902 10002 21005 39866 40121 50000 333 91103 91202;
0342067620999992010011406004+46167+008883FM-12+0198LSZL V0209999C000010150019N0100001N1+00031-00071101201ADDAA124000021AJ199992999999999AL19900091AY121061AY221061GA1081+015001071GF108991999999017501999999GJ100009IA1259IA2999-00409KA1999N-00171MA1999999098661MD1710011+9999MW1101OA149900311REMSYN130AAXX  14064 06762 31760 80000 10003 21007 39866 40120 57001 71022 333 21017 3/104 41998 55000 70000 88750 90768 93100 91106 91204;EQDQ01  09982SNDP  
0128067620999992010011407004+46167+008883FM-12+0198LSZL V0200901N000519999999N9999999N1-00021-00061101211ADDMA1999999098661MD1510011+9999OA149900311REMSYN076AAXX  14074 06762 33/// /0901 11002 21006 39866 40121 55001 333 91106 91203;
0128067620999992010011408004+46167+008883FM-12+0198LSZL V0209999C000019999999N9999999N1+00031-00041101261ADDMA1999999098711MD1219999+9999OA149900151REMSYN076AAXX  14084 06762 33/// /0000 10003 21004 39871 40126 52/// 333 91103 91202;
0128067620999992010011409004+46167+008883FM-12+0198LSZL V0200401N000519999999N9999999N1+00101-00021101251ADDMA1999999098711MD1210051+9999OA149900311REMSYN076AAXX  14094 06762 33/// /0401 10010 21002 39871 40125 52005 333 91106 91203;
0128067620999992010011410004+46167+008883FM-12+0198LSZL V0209999C000019999999N9999999N1+00161-00021101271ADDMA1999999098741MD1210081+9999OA149900101REMSYN076AAXX  14104 06762 33/// /0000 10016 21002 39874 40127 52008 333 91102 91201;
0128067620999992010011411004+46167+008883FM-12+0198LSZL V0209999C000019999999N9999999N1+00211-00041101231ADDMA1999999098701MD1710011+9999OA149900101REMSYN076AAXX  14114 06762 33/// /0000 10021 21004 39870 40123 57001 333 91102 91201;
0198067620999992010011412004+46167+008883FM-12+0198LSZL V0209999C000010150019N0250001N1+00271-00051101181ADDGA1051+015001061GA2081+027001041GF108991999999017501999999MA1999999098661MD1710051+9999OA149900311REMSYN088AAXX  14124 06762 32775 80000 10027 21005 39866 40118 57005 333 85650 88459 91106 91204;
0128067620999992010011413004+46167+008883FM-12+0198LSZL V0209999C000019999999N9999999N1+00251-00051101131ADDMA1999999098611MD1810131+9999OA149900101REMSYN076AAXX  14134 06762 33/// /0000 10025 21005 39861 40113 58013 333 91102 91202;
0128067620999992010011414004+46167+008883FM-12+0198LSZL V0209999C000019999999N9999999N1+00261-00051101151ADDMA1999999098631MD1710071+9999OA149900101REMSYN076AAXX  14144 06762 33/// /0000 10026 21005 39863 40115 57007 333 91102 91202;
0128067620999992010011415004+46167+008883FM-12+0198LSZL V0201101N001019999999N9999999N1+00301-00091101131ADDMA1999999098611MD1710051+9999OA149900151REMSYN076AAXX  14154 06762 33/// /1102 10030 21009 39861 40113 57005 333 91103 91202;
0128067620999992010011416004+46167+008883FM-12+0198LSZL V0203301N000519999999N9999999N1+00221-00061101121ADDMA1999999098601MD1810011+9999OA149900151REMSYN076AAXX  14164 06762 33/// /3301 10022 21006 39860 40112 58001 333 91103 91202;
0128067620999992010011417004+46167+008883FM-12+0198LSZL V0202501N000519999999N9999999N1+00161-00051101191ADDMA1999999098661MD1310031+9999OA149900151REMSYN076AAXX  14174 06762 33/// /2501 10016 21005 39866 40119 53003 333 91103 91202;
0265067620999992010011418004+46167+008883FM-12+0198LSZL V0209999C000010390019N0180001N1+00061-00091101271ADDAJ199992999999999AL19900091GA1081+039001041GF108991999999999999999999IA1309KA1120M+00311MA1999999098731MD1210121+9999OA149900211REMSYN106AAXX  14184 06762 32968 80000 10006 21009 39873 40127 52012 333 10031 42998 88463 90766 93100 91104 91203;EQDQ01  09982SNDP  
0128067620999992010011419004+46167+008883FM-12+0198LSZL V0200601N000519999999N9999999N1-00051-00101101371ADDMA1999999098811MD1310211+9999OA149900211REMSYN076AAXX  14194 06762 33/// /0601 11005 21010 39881 40137 53021 333 91104 91203;
0128067620999992010011420004+46167+008883FM-12+0198LSZL V0201301N001019999999N9999999N1+00021-00091101431ADDMA1999999098881MD1310221+9999OA149900151REMSYN076AAXX  14204 06762 33/// /1302 10002 21009 39888 40143 53022 333 91103 91202;
0128067620999992010011421004+46167+008883FM-12+0198LSZL V0200101N000519999999N9999999N1-00081-00131101541ADDMA1999999098981MD1210251+9999OA149900211REMSYN076AAXX  14214 06762 33/// /0101 11008 21013 39898 40154 52025 333 91104 91203;
0128067620999992010011422004+46167+008883FM-12+0198LSZL V0200901N001519999999N9999999N1-00061-00161101571ADDMA1999999099011MD1110201+9999OA149900261REMSYN076AAXX  14224 06762 33/// /0903 11006 21016 39901 40157 51020 333 91105 91203;
0128067620999992010011423004+46167+008883FM-12+0198LSZL V0200801N000519999999N9999999N1-00051-00171101601ADDMA1999999099041MD1210161+9999OA149900261REMSYN076AAXX  14234 06762 33/// /0801 11005 21017 39904 40160 52016 333 91105 91203;
0176067620999992010011500004+46167+008883FM-12+0198LSZL V0200801N000512200019N0100001N1-00161-00271101591ADDGA1041+014101071GF104991999999012501999999MA1999999099021MD1010041+9999OA149900261REMSYN082AAXX  15004 06762 32660 40801 11016 21027 39902 40159 50004 333 84747 91105 91203;
0128067620999992010011501004+46167+008883FM-12+0198LSZL V0201101N000519999999N9999999N1-00221-00261101601ADDMA1999999099021MD1010011+9999OA149900151REMSYN076AAXX  15014 06762 33/// /1101 11022 21026 39902 40160 50001 333 91103 91202;
0128067620999992010011502004+46167+008883FM-12+0198LSZL V0203601N001019999999N9999999N1-00321-00331101661ADDMA1999999099071MD1310031+9999OA149900151REMSYN076AAXX  15024 06762 33/// /3602 11032 21033 39907 40166 53003 333 91103 91202;
0129067620999992010011503004+46167+008883FM-12+0198LSZL V0201701N000512200019N0200001N1-00291-00311101711ADDGA1001+999999999GF100991001001999999001001MA1999999099121REMSYN060AAXX  15034 06762 32/70 01701 11029 21031 39912 40171 5////;
0128067620999992010011504004+46167+008883FM-12+0198LSZL V0200801N000519999999N9999999N1-00411-00431101751ADDMA1999999099151MD1210131+9999OA149900101REMSYN076AAXX  15044 06762 33/// /0801 11041 21043 39915 40175 52013 333 91102 91201;
0128067620999992010011505004+46167+008883FM-12+0198LSZL V0200301N000519999999N9999999N1-00471-00501101771ADDMA1999999099161MD1210091+9999OA149900151REMSYN076AAXX  15054 06762 33/// /0301 11047 21050 39916 40177 52009 333 91103 91202;
0308067620999992010011506004+46167+008883FM-12+0198LSZL V0202301N000512200019N0200001N1-00391-00441101831ADDAA124000091AJ100039199999999AL19900091GA1001+999999999GF100991001001999999001001GJ100009IA1259IA2999-00709KA1999N-00481MA1999999099231MD1210111+9999OA149900261REMSYN118AAXX  15064 06762 32/70 02301 11039 21044 39923 40183 52011 333 21048 3/107 41003 55000 70000 90768 93100 91105 91203;EQDQ01  00002PRCP24
0128067620999992010011507004+46167+008883FM-12+0198LSZL V0200701N001019999999N9999999N1-00481-00511101961ADDMA1999999099351MD1210201+9999OA149900151REMSYN076AAXX  15074 06762 33/// /0702 11048 21051 39935 40196 52020 333 91103 91202;
0128067620999992010011508004+46167+008883FM-12+0198LSZL V0200401N000519999999N9999999N1-00431-00471102041ADDMA1999999099431MD1219999+9999OA149900151REMSYN076AAXX  15084 06762 33/// /0401 11043 21047 39943 40204 52/// 333 91103 91202;
0128067620999992010011509004+46167+008883FM-12+0198LSZL V0209999C000019999999N9999999N1-00211-00281102101ADDMA1999999099511MD1110281+9999OA149900151REMSYN076AAXX  15094 06762 33/// /0000 11021 21028 39951 40210 51028 333 91103 91202;
0128067620999992010011510004+46167+008883FM-12+0198LSZL V0200801N000519999999N9999999N1+00041-00201102121ADDMA1999999099551MD1110201+9999OA149900211REMSYN076AAXX  15104 06762 33/// /0801 10004 21020 39955 40212 51020 333 91104 91203;
0128067620999992010011511004+46167+008883FM-12+0198LSZL V0201201N000519999999N9999999N1+00221-00151102081ADDMA1999999099531MD1210101+9999OA149900211REMSYN076AAXX  15114 06762 33/// /1201 10022 21015 39953 40208 52010 333 91104 91203;
0176067620999992010011512004+46167+008883FM-12+0198LSZL V0201601N000512200019N0300001N1+00351-00201102001ADDGA1031+057001001GF103991999999999999999999MA1999999099471MD1810041+9999OA149900211REMSYN082AAXX  15124 06762 32980 31601 10035 21020 39947 40200 58004 333 83069 91104 91203;
0128067620999992010011513004+46167+008883FM-12+0198LSZL V0202201N001519999999N9999999N1+00391-00181102001ADDMA1999999099471MD1710081+9999OA149900151REMSYN076AAXX  15134 06762 33/// /2203 10039 21018 39947 40200 57008 333 91103 91203;
0128067620999992010011514004+46167+008883FM-12+0198LSZL V0201801N000519999999N9999999N1+00451-00231102031ADDMA1999999099501MD1510031+9999OA149900151REMSYN076AAXX  15144 06762 33/// /1801 10045 21023 39950 40203 55003 333 91103 91203;
0128067620999992010011515004+46167+008883FM-12+0198LSZL V0201301N000519999999N9999999N1+00311-00161102091ADDMA1999999099551MD1210081+9999OA149900211REMSYN076AAXX  15154 06762 33/// /1301 10031 21016 39955 40209 52008 333 91104 91203;
0128067620999992010011516004+46167+008883FM-12+0198LSZL V0200601N000519999999N9999999N1+00161-00151102211ADDMA1999999099651MD1310181+9999OA149900151REMSYN076AAXX  15164 06762 33/// /0601 10016 21015 39965 40221 53018 333 91103 91201;
0128067620999992010011517004+46167+008883FM-12+0198LSZL V0200701N000519999999N9999999N1-00071-00251102281ADDMA1999999099701MD1110201+9999OA149900211REMSYN076AAXX  15174 06762 33/// /0701 11007 21025 39970 40228 51020 333 91104 91203;
0147067620999992010011518004+46167+008883FM-12+0198LSZL V0202101N000519999999N9999999N1+00001-00221102351ADDKA1120M+00471MA1999999099771MD1110221+9999OA149900211REMSYN082AAXX  15184 06762 33/// /2101 10000 21022 39977 40235 51022 333 10047 91104 91203;
0128067620999992010011519004+46167+008883FM-12+0198LSZL V0202201N000519999999N9999999N1-00131-00301102421ADDMA1999999099831MD1110181+9999OA149900151REMSYN076AAXX  15194 06762 33/// /2201 11013 21030 39983 40242 51018 333 91103 91201;
0128067620999992010011520004+46167+008883FM-12+0198LSZL V0209999C000019999999N9999999N1-00171-00291102481ADDMA1999999099881MD1110181+9999OA149900151REMSYN076AAXX  15204 06762 33/// /0000 11017 21029 39988 40248 51018 333 91103 91202;
0170067620999992010011521004+46167+008883FM-12+0198LSZL V0200701N001012200019N0150001N1-00321-00391102541ADDGA1001+999999999GF100991001001999999001001MA1999999099931MD1110161+9999OA149900211REMSYN076AAXX  15214 06762 32/65 00702 11032 21039 39993 40254 51016 333 91104 91203;
0128067620999992010011522004+46167+008883FM-12+0198LSZL V0200601N000519999999N9999999N1-00351-00431102621ADDMA1999999100001MD1310171+9999OA149900151REMSYN076AAXX  15224 06762 33/// /0601 11035 21043 30000 40262 53017 333 91103 91202;
0128067620999992010011523004+46167+008883FM-12+0198LSZL V0201101N001019999999N9999999N1-00351-00421102691ADDMA1999999100071MD1310191+9999OA149900151REMSYN076AAXX  15234 06762 33/// /1102 11035 21042 30007 40269 53019 333 91103 91202;
0170067620999992010011600004+46167+008883FM-12+0198LSZL V0200901N001012200019N0150001N1-00471-00531102701ADDGA1001+999999999GF100991001001999999001001MA1999999100071MD1210141+9999OA149900261REMSYN076AAXX  16004 06762 32/65 00902 11047 21053 30007 40270 52014 333 91105 91203;
0128067620999992010011601004+46167+008883FM-12+0198LSZL V0209999C000019999999N9999999N1-00491-00521102701ADDMA1999999100071MD1210071+9999OA149900261REMSYN076AAXX  16014 06762 33/// /0000 11049 21052 30007 40270 52007 333 91105 91203;
0128067620999992010011602004+46167+008883FM-12+0198LSZL V0209999C000019999999N9999999N1-00381-00451102701ADDMA1999999100081MD1210011+9999OA149900211REMSYN076AAXX  16024 06762 33/// /0000 11038 21045 30008 40270 52001 333 91104 91202;
0170067620999992010011603004+46167+008883FM-12+0198LSZL V0209999C000012200019N0150001N1-00451-00471102721ADDGA1001+999999999GF100991001001999999001001MA1999999100091MD1219999+9999OA149900261REMSYN076AAXX  16034 06762 32/65 00000 11045 21047 30009 40272 52/// 333 91105 91203;
0128067620999992010011604004+46167+008883FM-12+0198LSZL V0200901N001519999999N9999999N1-00531-00591102721ADDMA1999999100081MD1010011+9999OA149900211REMSYN076AAXX  16044 06762 33/// /0903 11053 21059 30008 40272 50001 333 91104 91203;
0128067620999992010011605004+46167+008883FM-12+0198LSZL V0202001N000519999999N9999999N1-00531-00541102701ADDMA1999999100061MD1710021+9999OA149900211REMSYN076AAXX  16054 06762 33/// /2001 11053 21054 30006 40270 57002 333 91104 91203;
0320067620999992010011606004+46167+008883FM-12+0198LSZL V0209999C000012200019N0150001N1-00451-00561102731ADDAA124000091AJ100039199999999AL19900091GA1001+999999999GF100991001001999999001001GJ102529IA1259IA2999-00909KA1999N-00631MA1999999100101MD1510011+9999MW1021OA149900261REMSYN124AAXX  16064 06762 31/65 00000 11045 21056 30010 40273 55001 702// 333 21063 3/109 41003 55042 70000 90768 93100 91105 91203;EQDQ01  00002PRCP24
0128067620999992010011607004+46167+008883FM-12+0198LSZL V0202101N000519999999N9999999N1-00441-00501102801ADDMA1999999100171MD1310091+9999OA149900211REMSYN076AAXX  16074 06762 33/// /2101 11044 21050 30017 40280 53009 333 91104 91202;
0128067620999992010011608004+46167+008883FM-12+0198LSZL V0200701N000519999999N9999999N1-00471-00561102801ADDMA1999999100171MD1210111+9999OA149900361REMSYN076AAXX  16084 06762 33/// /0701 11047 21056 30017 40280 52011 333 91107 91205;
0182067620999992010011609004+46167+008883FM-12+0198LSZL V0200701N000512200019N0300001N1-00381-00481102801ADDGA1001+999999999GF100991001001999999001001MA1999999100181MD1210081+9999MW1021OA149900361REMSYN082AAXX  16094 06762 31/80 00701 11038 21048 30018 40280 52008 702// 333 91107 91205;
0128067620999992010011610004+46167+008883FM-12+0198LSZL V0202001N001019999999N9999999N1-00201-00381102791ADDMA1999999100181MD1210011+9999OA149900151REMSYN076AAXX  16104 06762 33/// /2002 11020 21038 30018 40279 52001 333 91103 91202;
0128067620999992010011611004+46167+008883FM-12+0198LSZL V0202501N000519999999N9999999N1+00031-00271102721ADDMA1999999100141MD1710031+9999OA149900151REMSYN076AAXX  16114 06762 33/// /2501 10003 21027 30014 40272 57003 333 91103 91202;
0188067620999992010011612004+46167+008883FM-12+0198LSZL V0201901N000512200019N0200001N1+00221-00271102621ADDGA1031+057001001GF103991999999999999999999MA1999999100061MD1710121+9999MW1011OA149900361REMSYN088AAXX  16124 06762 31970 31901 10022 21027 30006 40262 57012 701// 333 83069 91107 91205;
0128067620999992010011613004+46167+008883FM-12+0198LSZL V0200801N000519999999N9999999N1+00281-00371102581ADDMA1999999100021MD1710161+9999OA149900151REMSYN076AAXX  16134 06762 33/// /0801 10028 21037 30002 40258 57016 333 91103 91201;
0128067620999992010011614004+46167+008883FM-12+0198LSZL V0209999C000019999999N9999999N1+00191-00181102551ADDMA1999999099991MD1719999+9999OA149900101REMSYN076AAXX  16144 06762 33/// /0000 10019 21018 39999 40255 57/// 333 91102 91202;
0128067620999992010011615004+46167+008883FM-12+0198LSZL V0209999C000019999999N9999999N1+00241-00231102541ADDMA1999999099981MD1710081+9999OA149900151REMSYN076AAXX  16154 06762 33/// /0000 10024 21023 39998 40254 57008 333 91103 91202;
0128067620999992010011616004+46167+008883FM-12+0198LSZL V0200801N001019999999N9999999N1+00141-00261102561ADDMA1999999099991MD1510031+9999OA149900151REMSYN076AAXX  16164 06762 33/// /0802 10014 21026 39999 40256 55003 333 91103 91202;
0128067620999992010011617004+46167+008883FM-12+0198LSZL V0200901N000519999999N9999999N1+00021-00201102531ADDMA1999999099951MD1810041+9999OA149900151REMSYN076AAXX  16174 06762 33/// /0901 10002 21020 39995 40253 58004 333 91103 91203;
0147067620999992010011618004+46167+008883FM-12+0198LSZL V0209999C000019999999N9999999N1+00031-00161102561ADDKA1120M+00311MA1999999099981MD1510001+9999OA149900361REMSYN082AAXX  16184 06762 33/// /0000 10003 21016 39998 40256 55000 333 10031 91107 91205;
0128067620999992010011619004+46167+008883FM-12+0198LSZL V0209999C000019999999N9999999N1+00001-00151102561ADDMA1999999099981MD1510011+9999OA149900151REMSYN076AAXX  16194 06762 33/// /0000 10000 21015 39998 40256 55001 333 91103 91203;
0128067620999992010011620004+46167+008883FM-12+0198LSZL V0202701N001019999999N9999999N1+00101-00181102551ADDMA1999999099981MD1210031+9999OA149900151REMSYN076AAXX  16204 06762 33/// /2702 10010 21018 39998 40255 52003 333 91103 91202;
0128067620999992010011621004+46167+008883FM-12+0198LSZL V0202601N003119999999N9999999N1+00281-00051102491ADDMA1999999099941MD1710041+9999OA149900821REMSYN076AAXX  16214 06762 33/// /2606 10028 21005 39994 40249 57004 333 91116 91206;
0128067620999992010011622004+46167+008883FM-12+0198LSZL V0203001N000519999999N9999999N1+00221-00031102481ADDMA1999999099921MD1710061+9999OA149900821REMSYN076AAXX  16224 06762 33/// /3001 10022 21003 39992 40248 57006 333 91116 91209;
0128067620999992010011623004+46167+008883FM-12+0198LSZL V0200901N001019999999N9999999N1+00171-00031102451ADDMA1999999099891MD1710091+9999OA149900721REMSYN076AAXX  16234 06762 33/// /0902 10017 21003 39989 40245 57009 333 91114 91209;
0128067620999992010011700004+46167+008883FM-12+0198LSZL V0200701N002119999999N9999999N1+00201-00101102401ADDMA1999999099841MD1710101+9999OA149900821REMSYN076AAXX  17004 06762 33/// /0704 10020 21010 39984 40240 57010 333 91116 91209;
0128067620999992010011701004+46167+008883FM-12+0198LSZL V0200901N001019999999N9999999N1+00221-00101102451ADDMA1999999099891MD1510031+9999OA149900311REMSYN076AAXX  17014 06762 33/// /0902 10022 21010 39989 40245 55003 333 91106 91204;
0128067620999992010011702004+46167+008883FM-12+0198LSZL V0200401N000519999999N9999999N1+00181-00101102431ADDMA1999999099871MD1019999+9999OA149900261REMSYN076AAXX  17024 06762 33/// /0401 10018 21010 39987 40243 50/// 333 91105 91203;
0087067620999992010011703004+46167+008883FM-12+0198LSZL V0202201N000519999999N9999999N1+00131-00071102351ADDMA1999999099791REMSYN060AAXX  17034 06762 43/// /2201 10013 21007 39979 40235 5////;
0128067620999992010011704004+46167+008883FM-12+0198LSZL V0201601N000519999999N9999999N1+00161-00081102281ADDMA1999999099721MD1710171+9999OA149900151REMSYN076AAXX  17044 06762 33/// /1601 10016 21008 39972 40228 57017 333 91103 91203;
0128067620999992010011705004+46167+008883FM-12+0198LSZL V0201001N001019999999N9999999N1+00121-00061102281ADDMA1999999099721MD1719999+9999OA149900211REMSYN076AAXX  17054 06762 33/// /1002 10012 21006 39972 40228 57/// 333 91104 91203;
0314067620999992010011706004+46167+008883FM-12+0198LSZL V0201001N002610081019N0100001N1+00131-00111102251ADDAA124000091AJ100039199999999AL19900091GA1081+008101071GF108991999999008001999999GJ102409IA1259IA2999-00109KA1999N-00031MA1999999099691MD1710101+9999OA149900821REMSYN124AAXX  17064 06762 32560 81005 10013 21011 39969 40225 57010 333 21003 3/101 41003 55040 70000 88727 90768 93100 91116 91209;EQDQ01  00002PRCP24
