0140067600999992011010100004+46167+008783FM-12+038099999V0209999C000519999999N9999999N1+00001-00321102411ADDMA1999999097761MD1010011+9999OA149900361REMSYN088AAXX  01004 06760 33/// /0001 10000 21032 39776 40241 50001 333 55300 20000 91107 91203;
0140067600999992011010101004+46167+008783FM-12+038099999V0209999C000019999999N9999999N1+00021-00341102371ADDMA1999999097721MD1710061+9999OA149900101REMSYN088AAXX  01014 06760 33/// /0000 10002 21034 39772 40237 57006 333 55300 20000 91102 91202;
0140067600999992011010102004+46167+008783FM-12+038099999V0203201N000519999999N9999999N1+00021-00361102391ADDMA1999999097741MD1510041+9999OA149900101REMSYN088AAXX  01024 06760 33/// /3201 10002 21036 39774 40239 55004 333 55300 20000 91102 91201;
0140067600999992011010103004+46167+008783FM-12+038099999V0209999C000019999999N9999999N1-00021-00381102371ADDMA1999999097721MD1710041+9999OA149900151REMSYN088AAXX  01034 06760 33/// /0000 11002 21038 39772 40237 57004 333 55300 20000 91103 91202;
0140067600999992011010104004+46167+008783FM-12+038099999V0200501N000519999999N9999999N1-00031-00381102341ADDMA1999999097691MD1710031+9999OA149900151REMSYN088AAXX  01044 06760 33/// /0501 11003 21038 39769 40234 57003 333 55300 20000 91103 91202;
0140067600999992011010105004+46167+008783FM-12+038099999V0200201N000519999999N9999999N1-00041-00361102321ADDMA1999999097671MD1710071+9999OA149900151REMSYN088AAXX  01054 06760 33/// /0201 11004 21036 39767 40232 57007 333 55300 20000 91103 91202;
0267067600999992011010106004+46167+008783FM-12+038099999V0203601N000512200019N0200001N1-00151-00411102311ADDAL19900091GA1001+999999999GF100991001001999999001001GJ104149IA1099IA2999-00509KA1999N-00171MA1999999097641MD1610081+9999OA149900151REMSYN124AAXX  01064 06760 32970 03601 11015 21041 39764 40231 56008 333 21017 31105 55069 55300 20000 70000 90768 93100 91103 91202;
0140067600999992011010107004+46167+008783FM-12+038099999V0209999C000019999999N9999999N1-00091-00401102291ADDMA1999999097631MD1710061+9999OA149900101REMSYN088AAXX  01074 06760 33/// /0000 11009 21040 39763 40229 57006 333 55300 20000 91102 91202;
0140067600999992011010108004+46167+008783FM-12+038099999V0203401N000519999999N9999999N1-00091-00391102271ADDMA1999999097611MD1719999+9999OA149900211REMSYN088AAXX  01084 06760 33/// /3401 11009 21039 39761 40227 57/// 333 55300 20040 91104 91202;
0129067600999992011010109004+46167+008783FM-12+038099999V0201201N001012200019N0170001N1+00071-00251102211ADDGA1001+999999999GF100991001001999999001001MA1999999097581REMSYN060AAXX  01094 06760 42967 01202 10007 21025 39758 40221 5////;
0087067600999992011010110004+46167+008783FM-12+038099999V0201601N000519999999N9999999N1+00171-00301102141ADDMA1999999097531REMSYN060AAXX  01104 06760 43/// /1601 10017 21030 39753 40214 5////;
0140067600999992011010111004+46167+008783FM-12+038099999V0201601N001019999999N9999999N1+00211-00261102061ADDMA1999999097461MD1810151+9999OA149900261REMSYN088AAXX  01114 06760 33/// /1602 10021 21026 39746 40206 58015 333 553// 2//// 91105 91202;
0129067600999992011010112004+46167+008783FM-12+038099999V0201701N001012200019N0200001N1+00321-00301101971ADDGA1001+999999999GF100991001001999999001001MA1999999097391REMSYN060AAXX  01124 06760 42970 01702 10032 21030 39739 40197 5////;
0087067600999992011010113004+46167+008783FM-12+038099999V0201501N001019999999N9999999N1+00401-00281101851ADDMA1999999097291REMSYN060AAXX  01134 06760 43/// /1502 10040 21028 39729 40185 5////;
0087067600999992011010114004+46167+008783FM-12+038099999V0201301N001019999999N9999999N1+00391-00341101811ADDMA1999999097251REMSYN060AAXX  01144 06760 43/// /1302 10039 21034 39725 40181 5////;
0129067600999992011010115004+46167+008783FM-12+038099999V0201501N000512200019N0170001N1+00351-00351101801ADDGA1001+999999999GF100991001001999999001001MA1999999097241REMSYN060AAXX  01154 06760 42967 01501 10035 21035 39724 40180 5////;
0087067600999992011010116004+46167+008783FM-12+038099999V0203401N000519999999N9999999N1+00271-00271101811ADDMA1999999097231REMSYN060AAXX  01164 06760 43/// /3401 10027 21027 39723 40181 5////;
0087067600999992011010117004+46167+008783FM-12+038099999V0200301N001019999999N9999999N1+00171-00311101801ADDMA1999999097211REMSYN060AAXX  01174 06760 43/// /0302 10017 21031 39721 40180 5////;
0167067600999992011010118004+46167+008783FM-12+038099999V0203601N000512200019N0200001N1+00191-00331101771ADDAL10600091GA1001+999999999GF100991001001999999001001IA1099MA1999999097181REMSYN082AAXX  01184 06760 42970 03601 10019 21033 39718 40177 5//// 333 31/// 90766 93100;
0103067600999992011010119004+46167+008783FM-12+038099999V0200501N001019999999N9999999N1+00111-00241101791ADDMA1999999097191REMSYN076AAXX  01194 06760 33/// /0502 10011 21024 39719 40179 5//// 333 553// 20000;
0140067600999992011010120004+46167+008783FM-12+038099999V0200101N000519999999N9999999N1+00091-00321101781ADDMA1999999097171MD1710041+9999OA149900151REMSYN088AAXX  01204 06760 33/// /0101 10009 21032 39717 40178 57004 333 55300 20000 91103 91202;
0140067600999992011010121004+46167+008783FM-12+038099999V0203201N000519999999N9999999N1+00021-00351101781ADDMA1999999097161MD1810021+9999OA149900151REMSYN088AAXX  01214 06760 33/// /3201 10002 21035 39716 40178 58002 333 55300 20000 91103 91202;
0140067600999992011010122004+46167+008783FM-12+038099999V0200201N000519999999N9999999N1-00011-00361101761ADDMA1999999097141MD1710051+9999OA149900101REMSYN088AAXX  01224 06760 33/// /0201 11001 21036 39714 40176 57005 333 55300 20000 91102 91201;
0140067600999992011010123004+46167+008783FM-12+038099999V0209999C000019999999N9999999N1-00041-00371101711ADDMA1999999097081MD1710091+9999OA149900101REMSYN088AAXX  01234 06760 33/// /0000 11004 21037 39708 40171 57009 333 55300 20000 91102 91201;
0140067600999992011010200004+46167+008783FM-12+038099999V0200401N000519999999N9999999N1-00031-00361101671ADDMA1999999097051MD1810111+9999OA149900261REMSYN088AAXX  02004 06760 33/// /0401 11003 21036 39705 40167 58011 333 55300 20000 91105 91203;
0140067600999992011010201004+46167+008783FM-12+038099999V0209999C000019999999N9999999N1+00001-00401101631ADDMA1999999097011MD1610131+9999OA149900151REMSYN088AAXX  02014 06760 33/// /0000 10000 21040 39701 40163 56013 333 55300 20000 91103 91202;
0087067600999992011010202004+46167+008783FM-12+038099999V0209999C000019999999N9999999N1-00041-00421101631ADDMA1999999097011REMSYN060AAXX  02024 06760 43/// /0000 11004 21042 39701 40163 5////;
0087067600999992011010203004+46167+008783FM-12+038099999V0200301N000519999999N9999999N1-00081-00441101601ADDMA1999999096971REMSYN060AAXX  02034 06760 43/// /0301 11008 21044 39697 40160 5////;
0087067600999992011010204004+46167+008783FM-12+038099999V0200201N000519999999N9999999N1-00121-00441101571ADDMA1999999096941REMSYN060AAXX  02044 06760 43/// /0201 11012 21044 39694 40157 5////;
0087067600999992011010205004+46167+008783FM-12+038099999V0203401N000519999999N9999999N1-00091-00451101531ADDMA1999999096901REMSYN060AAXX  02054 06760 43/// /3401 11009 21045 39690 40153 5////;
0212067600999992011010206004+46167+008783FM-12+038099999V0209999C000012200019N0300001N1-00151-00451101551ADDAL10600091GA1001+999999999GF100991001001999999001001GJ104149IA1149IA2999-00509KA1999N-00161MA1999999096911REMSYN094AAXX  02064 06760 42980 00000 11015 21045 39691 40155 5//// 333 21016 34105 55069 90768 93100;
0140067600999992011010207004+46167+008783FM-12+038099999V0200101N000519999999N9999999N1-00121-00441101561ADDMA1999999096931MD1310011+9999OA149900101REMSYN088AAXX  02074 06760 33/// /0101 11012 21044 39693 40156 53001 333 55300 20000 91102 91201;
0140067600999992011010208004+46167+008783FM-12+038099999V0203101N000519999999N9999999N1-00111-00451101591ADDMA1999999096961MD1310061+9999OA149900101REMSYN088AAXX  02084 06760 33/// /3101 11011 21045 39696 40159 53006 333 55300 20040 91102 91201;
0194067600999992011010209004+46167+008783FM-12+038099999V0201501N001012200019N0250001N1+00031-00291101621ADDGA1011+066001001GF101991001001999999001011MA1999999097011MD1310101+9999OA149900151REMSYN100AAXX  02094 06760 32975 11502 10003 21029 39701 40162 53010 80001 333 55307 20450 81072 91103 91202;
0140067600999992011010210004+46167+008783FM-12+038099999V0201701N000519999999N9999999N1+00151-00251101621ADDMA1999999097031MD1310101+9999OA149900211REMSYN088AAXX  02104 06760 33/// /1701 10015 21025 39703 40162 53010 333 553// 20940 91104 91202;
0140067600999992011010211004+46167+008783FM-12+038099999V0201801N001019999999N9999999N1+00201-00321101561ADDMA1999999096981MD1010021+9999OA149900261REMSYN088AAXX  02114 06760 33/// /1802 10020 21032 39698 40156 50002 333 553// 2//// 91105 91202;
0194067600999992011010212004+46167+008783FM-12+038099999V0201701N001012200019N0150001N1+00321-00211101501ADDGA1011+066001001GF101991001001999999001011MA1999999096941MD1710071+9999OA149900311REMSYN100AAXX  02124 06760 32965 11702 10032 21021 39694 40150 57007 80001 333 553// 2//// 81072 91106 91203;
0140067600999992011010213004+46167+008783FM-12+038099999V0202301N001519999999N9999999N1+00411-00241101441ADDMA1999999096901MD1610131+9999OA149900411REMSYN088AAXX  02134 06760 33/// /2303 10041 21024 39690 40144 56013 333 553// 2//// 91108 91203;
0103067600999992011010214004+46167+008783FM-12+038099999V0202301N001519999999N9999999N1+00401-00161101451ADDMA1999999096911REMSYN076AAXX  02144 06760 33/// /2303 10040 21016 39691 40145 5//// 333 553// 20871;
0222067600999992011010215004+46167+008783FM-12+038099999V0203001N001512200019N0100001N1+00321-00041101531ADDAY101031AY201031GA1011+036001031GF101991011001999999031011MA1999999096971MD1310031+9999MW1101OA149900461REMSYN106AAXX  02154 06760 31960 13003 10032 21004 39697 40153 53003 71000 81031 333 55308 20425 81362 91109 91205;
0140067600999992011010216004+46167+008783FM-12+038099999V0203001N000519999999N9999999N1+00271-00041101601ADDMA1999999097031MD1210131+9999OA149900461REMSYN088AAXX  02164 06760 33/// /3001 10027 21004 39703 40160 52013 333 55300 20054 91109 91203;
0140067600999992011010217004+46167+008783FM-12+038099999V0209999C000019999999N9999999N1+00221-00141101681ADDMA1999999097101MD1310191+9999OA149900411REMSYN088AAXX  02174 06760 33/// /0000 10022 21014 39710 40168 53019 333 55300 20000 91108 91203;
0275067600999992011010218004+46167+008783FM-12+038099999V0202901N00051008401CN0120001N1+00171-00181101771ADDAL19900091AY111061AY211061GA1061+008401061GF106991061051008001999999IA1099KA1120M+00441MA1999999097181MD1310211+9999MW1051OA149900461REMSYN130AAXX  02184 06760 31562 62901 10017 21018 39718 40177 53021 70511 865// 333 10044 31/// 55300 20000 86628 90766 93100 91109 91205;
0140067600999992011010219004+46167+008783FM-12+038099999V0201301N000519999999N9999999N1+00151-00231101861ADDMA1999999097261MD1210231+9999OA149900151REMSYN088AAXX  02194 06760 33/// /1301 10015 21023 39726 40186 52023 333 55300 20000 91103 91201;
0140067600999992011010220004+46167+008783FM-12+038099999V0200601N000519999999N9999999N1+00151-00211101921ADDMA1999999097321MD1110221+9999OA149900151REMSYN088AAXX  02204 06760 33/// /0601 10015 21021 39732 40192 51022 333 55300 20000 91103 91202;
0140067600999992011010221004+46167+008783FM-12+038099999V0209999C000019999999N9999999N1+00011-00191102011ADDMA1999999097381MD1310201+9999OA149900411REMSYN088AAXX  02214 06760 33/// /0000 10001 21019 39738 40201 53020 333 55300 20000 91108 91203;
0140067600999992011010222004+46167+008783FM-12+038099999V0200401N000519999999N9999999N1+00051-00241102041ADDMA1999999097411MD1210151+9999OA149900151REMSYN088AAXX  02224 06760 33/// /0401 10005 21024 39741 40204 52015 333 55300 20000 91103 91202;
0140067600999992011010223004+46167+008783FM-12+038099999V0200401N001019999999N9999999N1+00061-00261102051ADDMA1999999097431MD1210111+9999OA149900151REMSYN088AAXX  02234 06760 33/// /0402 10006 21026 39743 40205 52011 333 55300 20000 91103 91202;
0140067600999992011010300004+46167+008783FM-12+038099999V0200101N000519999999N9999999N1+00051-00291102061ADDMA1999999097431MD1210051+9999OA149900461REMSYN088AAXX  03004 06760 33/// /0101 10005 21029 39743 40206 52005 333 55300 20000 91109 91205;
0159067600999992011010301004+46167+008783FM-12+038099999V0203501N000519999999N9999999N1+00011-00341102041ADDMA1999999097411MD1410001+9999OA149900151REMSYN088AAXX  03014 06760 33/// /3501 10001 21034 39741 40204 57000 333 55300 20000 91103 91202;EQDQ01+000072APCTEN
0140067600999992011010302004+46167+008783FM-12+038099999V0203201N000519999999N9999999N1-00041-00311102061ADDMA1999999097421MD1519999+9999OA149900151REMSYN088AAXX  03024 06760 33/// /3201 11004 21031 39742 40206 55/// 333 55300 20000 91103 91202;
0087067600999992011010303004+46167+008783FM-12+038099999V0200101N000519999999N9999999N1+00041-00411102051ADDMA1999999097421REMSYN060AAXX  03034 06760 43/// /0101 10004 21041 39742 40205 5////;
0140067600999992011010304004+46167+008783FM-12+038099999V0202801N001519999999N9999999N1-00011-00481102061ADDMA1999999097421MD1210011+9999OA149900211REMSYN088AAXX  03044 06760 33/// /2803 11001 21048 39742 40206 52001 333 55300 20000 91104 91203;
0140067600999992011010305004+46167+008783FM-12+038099999V0209999C000019999999N9999999N1-00041-00511102081ADDMA1999999097441MD1210021+9999OA149900211REMSYN088AAXX  03054 06760 33/// /0000 11004 21051 39744 40208 52002 333 55300 20000 91104 91203;
0267067600999992011010306004+46167+008783FM-12+038099999V0202801N001012200019N0200001N1-00111-00561102141ADDAL19900091GA1001+999999999GF100991001001999999001001GJ103909IA1149IA2999-00509KA1999N-00081MA1999999097481MD1210061+9999OA149900211REMSYN124AAXX  03064 06760 32970 02802 11011 21056 39748 40214 52006 333 21008 34105 55065 55300 20000 70000 90768 93100 91104 91203;
0140067600999992011010307004+46167+008783FM-12+038099999V0203101N001019999999N9999999N1-00071-00621102171ADDMA1999999097521MD1310101+9999OA149900151REMSYN088AAXX  03074 06760 33/// /3102 11007 21062 39752 40217 53010 333 55300 20000 91103 91202;
0140067600999992011010308004+46167+008783FM-12+038099999V0209999C000019999999N9999999N1-00051-00541102251ADDMA1999999097601MD1319999+9999OA149900211REMSYN088AAXX  03084 06760 33/// /0000 11005 21054 39760 40225 53/// 333 55300 20065 91104 91202;
0103067600999992011010309004+46167+008783FM-12+038099999V0201001N000519999999N9999999N1-00061-00541102301ADDMA1999999097641REMSYN076AAXX  03094 06760 33/// /1001 11006 21054 39764 40230 5//// 333 553// 20292;
0140067600999992011010310004+46167+008783FM-12+038099999V0201501N000519999999N9999999N1+00011-00481102351ADDMA1999999097701MD1110181+9999OA149900151REMSYN088AAXX  03104 06760 33/// /1501 10001 21048 39770 40235 51018 333 55302 20482 91103 91202;
0140067600999992011010311004+46167+008783FM-12+038099999V0201601N000519999999N9999999N1+00091-00441102331ADDMA1999999097701MD1210101+9999OA149900151REMSYN088AAXX  03114 06760 33/// /1601 10009 21044 39770 40233 52010 333 55300 20529 91103 91202;
0194067600999992011010312004+46167+008783FM-12+038099999V0202201N00101013201CN0220001N1+00161-00481102271ADDGA1071+013201061GF107991071051012501999999MA1999999097651MD1010011+9999OA149900211REMSYN100AAXX  03124 06760 32672 72202 10016 21048 39765 40227 50001 875// 333 55300 20569 87644 91104 91203;
0140067600999992011010313004+46167+008783FM-12+038099999V0202101N000519999999N9999999N1+00261-00461102211ADDMA1999999097611MD1810091+9999OA149900211REMSYN088AAXX  03134 06760 33/// /2101 10026 21046 39761 40221 58009 333 55301 20608 91104 91202;
0103067600999992011010314004+46167+008783FM-12+038099999V0202101N001019999999N9999999N1+00321-00371102191ADDMA1999999097601REMSYN076AAXX  03144 06760 33/// /2102 10032 21037 39760 40219 5//// 333 553// 20842;
0169067600999992011010315004+46167+008783FM-12+038099999V0202301N002112200019N0130001N1+00291-00341102191ADDAY111031AY211031GF102991021051012501031001MA1999999097601MW1051REMSYN094AAXX  03154 06760 31663 22304 10029 21034 39760 40219 5//// 70511 82530 333 553// 20302 82638;
0159067600999992011010316004+46167+008783FM-12+038099999V0203001N002119999999N9999999N1+00251-00461102211ADDMA1999999097611MD1410001+9999OA149900511REMSYN088AAXX  03164 06760 33/// /3004 10025 21046 39761 40221 52000 333 55301 20079 91110 91205;EQDQ01+000022APCTEN
0140067600999992011010317004+46167+008783FM-12+038099999V0202701N001519999999N9999999N1+00231-00441102261ADDMA1999999097651MD1210051+9999OA149900461REMSYN088AAXX  03174 06760 33/// /2703 10023 21044 39765 40226 52005 333 55300 20000 91109 91205;
0247067600999992011010318004+46167+008783FM-12+038099999V0202901N00101009301CN0180001N1+00231-00411102301ADDAL19900091GA1061+009301061GF106991061051008001999999IA1099KA1120M+00391MA1999999097691MD1110091+9999OA149900511REMSYN124AAXX  03184 06760 32568 62902 10023 21041 39769 40230 51009 865// 333 10039 31/// 55300 20000 86631 90766 93100 91110 91205;
0140067600999992011010319004+46167+008783FM-12+038099999V0200601N001019999999N9999999N1+00111-00431102341ADDMA1999999097711MD1210101+9999OA149900311REMSYN088AAXX  03194 06760 33/// /0602 10011 21043 39771 40234 52010 333 55300 20000 91106 91204;
0140067600999992011010320004+46167+008783FM-12+038099999V0209999C000019999999N9999999N1+00091-00431102361ADDMA1999999097731MD1210081+9999OA149900151REMSYN088AAXX  03204 06760 33/// /0000 10009 21043 39773 40236 52008 333 55300 20000 91103 91202;
0140067600999992011010321004+46167+008783FM-12+038099999V0200801N001019999999N9999999N1+00081-00591102391ADDMA1999999097751MD1210061+9999OA149900461REMSYN088AAXX  03214 06760 33/// /0802 10008 21059 39775 40239 52006 333 55300 20000 91109 91205;
0140067600999992011010322004+46167+008783FM-12+038099999V0200701N001019999999N9999999N1+00091-00661102411ADDMA1999999097771MD1310061+9999OA149900211REMSYN088AAXX  03224 06760 33/// /0702 10009 21066 39777 40241 53006 333 55300 20000 91104 91202;
0140067600999992011010323004+46167+008783FM-12+038099999V0200601N001019999999N9999999N1+00101-00711102401ADDMA1999999097771MD1110041+9999OA149900261REMSYN088AAXX  03234 06760 33/// /0602 10010 21071 39777 40240 51004 333 55300 20000 91105 91203;
0140067600999992011010400004+46167+008783FM-12+038099999V0200801N001019999999N9999999N1+00071-00851102391ADDMA1999999097751MD1010001+9999OA149900511REMSYN088AAXX  04004 06760 33/// /0802 10007 21085 39775 40239 50000 333 55300 20000 91110 91205;
0140067600999992011010401004+46167+008783FM-12+038099999V0200601N001519999999N9999999N1+00071-00891102351ADDMA1999999097711MD1810061+9999OA149900311REMSYN088AAXX  04014 06760 33/// /0603 10007 21089 39771 40235 58006 333 55300 20000 91106 91203;
0140067600999992011010402004+46167+008783FM-12+038099999V0200601N000519999999N9999999N1+00081-00781102331ADDMA1999999097701MD1719999+9999OA149900261REMSYN088AAXX  04024 06760 33/// /0601 10008 21078 39770 40233 57/// 333 55300 20000 91105 91203;
0140067600999992011010403004+46167+008783FM-12+038099999V0200401N000519999999N9999999N1+00051-00771102291ADDMA1999999097651MD1710101+9999OA149900311REMSYN088AAXX  04034 06760 33/// /0401 10005 21077 39765 40229 57010 333 55300 20000 91106 91203;
0140067600999992011010404004+46167+008783FM-12+038099999V0200301N000519999999N9999999N1+00071-00711102221ADDMA1999999097591MD1710121+9999OA149900151REMSYN088AAXX  04044 06760 33/// /0301 10007 21071 39759 40222 57012 333 55300 20000 91103 91202;
0140067600999992011010405004+46167+008783FM-12+038099999V0200801N000519999999N9999999N1+00031-00671102201ADDMA1999999097561MD1610141+9999OA149900101REMSYN088AAXX  04054 06760 33/// /0801 10003 21067 39756 40220 56014 333 55300 20000 91102 91201;
0279067600999992011010406004+46167+008783FM-12+038099999V0209999C00001013201CN0130001N1+00011-00651102171ADDAL19900091GA1081+013201061GF108991081051012501999999GJ101029IA1099IA2999-00209KA1999N+00011MA1999999097531MD1810121+9999OA149900311REMSYN136AAXX  04064 06760 32663 80000 10001 21065 39753 40217 58012 885// 333 20001 31102 55017 55300 20000 70000 88644 90768 93100 91106 91203;
0140067600999992011010407004+46167+008783FM-12+038099999V0209999C000019999999N9999999N1+00041-00681102161ADDMA1999999097531MD1610061+9999OA149900101REMSYN088AAXX  04074 06760 33/// /0000 10004 21068 39753 40216 56006 333 55300 20000 91102 91201;
0140067600999992011010408004+46167+008783FM-12+038099999V0209999C000019999999N9999999N1+00041-00621102191ADDMA1999999097561MD1519999+9999OA149900101REMSYN088AAXX  04084 06760 33/// /0000 10004 21062 39756 40219 55/// 333 55300 20007 91102 91201;
0191067600999992011010409004+46167+008783FM-12+038099999V0200901N000510075019N0130001N1+00031-00481102211ADDAY121031AY221031GA1011+009301071GF108991081051008001999999MA1999999097571MW1051REMSYN100AAXX  04094 06760 31563 80901 10003 21048 39757 40221 5//// 70522 885// 333 553// 20029 81731 88644;
0140067600999992011010410004+46167+008783FM-12+038099999V0201101N000519999999N9999999N1+00061-00421102231ADDMA1999999097601MD1310071+9999OA149900101REMSYN088AAXX  04104 06760 33/// /1101 10006 21042 39760 40223 53007 333 55300 20119 91102 91201;
0140067600999992011010411004+46167+008783FM-12+038099999V0201201N000519999999N9999999N1+00111-00421102181ADDMA1999999097561MD1010001+9999OA149900101REMSYN088AAXX  04114 06760 33/// /1201 10011 21042 39756 40218 50000 333 55300 20252 91102 91201;
0266067600999992011010412004+46167+008783FM-12+038099999V0202201N00051021001CN0080001N1+00131-00311102111ADDAY171061AY221061GA1021+008401071GA2041+013201061GA3081+021001041GF108991041061008001021999MA1999999097491MD1710081+9999MW1701OA149900261REMSYN118AAXX  04124 06760 31558 82201 10013 21031 39749 40211 57008 77072 8462/ 333 55300 20324 82728 84644 88457 91105 91203;
0140067600999992011010413004+46167+008783FM-12+038099999V0202401N001019999999N9999999N1+00141-00271102061ADDMA1999999097451MD1610151+9999OA149900261REMSYN088AAXX  04134 06760 33/// /2402 10014 21027 39745 40206 56015 333 55300 20360 91105 91202;
0103067600999992011010414004+46167+008783FM-12+038099999V0202501N001019999999N9999999N1+00131-00341102041ADDMA1999999097431REMSYN076AAXX  04144 06760 33/// /2502 10013 21034 39743 40204 5//// 333 553// 20205;
0201067600999992011010415004+46167+008783FM-12+038099999V0202701N00051013201CN0080001N1+00111-00391102021ADDAY171031AY221031GA1021+008401071GA2031+013201061GF108991041051008001021999MA1999999097411MW1051REMSYN094AAXX  04154 06760 41558 82701 10011 21039 39741 40202 5//// 70572 8452/ 333 82728 83644 88457;
0140067600999992011010416004+46167+008783FM-12+038099999V0202701N001019999999N9999999N1+00101-00411102031ADDMA1999999097411MD1610041+9999OA149900311REMSYN088AAXX  04164 06760 33/// /2702 10010 21041 39741 40203 56004 333 55300 20011 91106 91203;
0140067600999992011010417004+46167+008783FM-12+038099999V0202701N001019999999N9999999N1+00101-00451102031ADDMA1999999097411MD1610021+9999OA149900311REMSYN088AAXX  04174 06760 33/// /2702 10010 21045 39741 40203 56002 333 55300 20000 91106 91203;
0297067600999992011010418004+46167+008783FM-12+038099999V0202801N00101021001CN0160001N1+00101-00511102051ADDAL19900091AY171061AY221061GA1021+013201061GA2081+021001041GF108991021051012501021999IA1099KA1120M+00141MA1999999097431MD1310021+9999MW1021OA149900361REMSYN136AAXX  04184 06760 31666 82802 10010 21051 39743 40205 53002 70272 8252/ 333 10014 31/// 55300 20000 82644 88457 90766 93100 91107 91203;
0140067600999992011010419004+46167+008783FM-12+038099999V0202701N001019999999N9999999N1+00091-00521102091ADDMA1999999097471MD1310061+9999OA149900411REMSYN088AAXX  04194 06760 33/// /2702 10009 21052 39747 40209 53006 333 55300 20000 91108 91203;
0140067600999992011010420004+46167+008783FM-12+038099999V0202701N001019999999N9999999N1+00101-00541102111ADDMA1999999097491MD1219999+9999OA149900411REMSYN088AAXX  04204 06760 33/// /2702 10010 21054 39749 40211 52/// 333 55300 20000 91108 91203;
0140067600999992011010421004+46167+008783FM-12+038099999V0202701N001019999999N9999999N1+00091-00531102111ADDMA1999999097491MD1210061+9999OA149900411REMSYN088AAXX  04214 06760 33/// /2702 10009 21053 39749 40211 52006 333 55300 20000 91108 91203;
0140067600999992011010422004+46167+008783FM-12+038099999V0203501N000519999999N9999999N1+00081-00461102111ADDMA1999999097491MD1210021+9999OA149900151REMSYN088AAXX  04224 06760 33/// /3501 10008 21046 39749 40211 52002 333 55300 20000 91103 91202;
0140067600999992011010423004+46167+008783FM-12+038099999V0200501N001019999999N9999999N1+00061-00461102141ADDMA1999999097511MD1319999+9999OA149900211REMSYN088AAXX  04234 06760 33/// /0502 10006 21046 39751 40214 53/// 333 55300 20000 91104 91202;
0159067600999992011010500004+46167+008783FM-12+038099999V0200701N001019999999N9999999N1+00051-00451102121ADDMA1999999097491MD1210011+9999OA149900411REMSYN088AAXX  05004 06760 33/// /0702 10005 21045 39749 40212 52000 333 55300 20000 91108 91203;EQDQ01+000002APC3  
0140067600999992011010501004+46167+008783FM-12+038099999V0200501N000519999999N9999999N1+00051-00471102091ADDMA1999999097461MD1810031+9999OA149900151REMSYN088AAXX  05014 06760 33/// /0501 10005 21047 39746 40209 58003 333 55300 20000 91103 91202;
0140067600999992011010502004+46167+008783FM-12+038099999V0201001N000519999999N9999999N1+00051-00441102091ADDMA1999999097461MD1710051+9999OA149900151REMSYN088AAXX  05024 06760 33/// /1001 10005 21044 39746 40209 57005 333 55300 20000 91103 91202;
0087067600999992011010503004+46167+008783FM-12+038099999V0200601N000519999999N9999999N1+00031-00391102071ADDMA1999999097441REMSYN060AAXX  05034 06760 43/// /0601 10003 21039 39744 40207 5////;
0140067600999992011010504004+46167+008783FM-12+038099999V0203001N000519999999N9999999N1+00051-00421102051ADDMA1999999097421MD1710041+9999OA149900101REMSYN088AAXX  05044 06760 33/// /3001 10005 21042 39742 40205 57004 333 55300 20000 91102 91201;
0140067600999992011010505004+46167+008783FM-12+038099999V0201101N000519999999N9999999N1+00021-00381102051ADDMA1999999097421MD1710041+9999OA149900151REMSYN088AAXX  05054 06760 33/// /1101 10002 21038 39742 40205 57004 333 55300 20000 91103 91202;
0307067600999992011010506004+46167+008783FM-12+038099999V0200901N00051013201CN0110001N1+00021-00361102071ADDAL19900091AY121061AY221061GA1081+013201061GF108991081051012501999999GJ100009IA1099IA2999-00109KA1999N+00001MA1999999097441MD1510001+9999MW1101OA149900411REMSYN142AAXX  05064 06760 31661 80901 10002 21036 39744 40207 55000 71022 885// 333 20000 31101 55000 55300 20000 70000 88644 90768 93100 91108 91203;
0140067600999992011010507004+46167+008783FM-12+038099999V0200901N000519999999N9999999N1+00001-00391102121ADDMA1999999097481MD1210061+9999OA149900101REMSYN088AAXX  05074 06760 33/// /0901 10000 21039 39748 40212 52006 333 55300 20000 91102 91201;
0140067600999992011010508004+46167+008783FM-12+038099999V0200601N000519999999N9999999N1+00041-00461102141ADDMA1999999097511MD1119999+9999OA149900101REMSYN088AAXX  05084 06760 33/// /0601 10004 21046 39751 40214 51/// 333 55300 20011 91102 91201;
0257067600999992011010509004+46167+008783FM-12+038099999V0201001N00051014401CN0100001N1+00031-00371102181ADDAY171031AY221031GA1011+010201071GA2081+014401061GF108991081051012501999999MA1999999097541MD1110101+9999OA149900151REMSYN112AAXX  05094 06760 31660 81001 10003 21037 39754 40218 51010 77872 885// 333 55300 20058 81734 88648 91103 91202;EQDQ01+000782PRSWM1
0140067600999992011010510004+46167+008783FM-12+038099999V0200701N000519999999N9999999N1+00031-00471102201ADDMA1999999097561MD1210081+9999OA149900151REMSYN088AAXX  05104 06760 33/// /0701 10003 21047 39756 40220 52008 333 55300 20122 91103 91202;
0140067600999992011010511004+46167+008783FM-12+038099999V0201001N000519999999N9999999N1+00081-00601102171ADDMA1999999097541MD1010031+9999OA149900151REMSYN088AAXX  05114 06760 33/// /1001 10008 21060 39754 40217 50003 333 55300 20202 91103 91202;
0191067600999992011010512004+46167+008783FM-12+038099999V0200901N001010075019N0090001N1+00081-00751102101ADDAY171061AY221061GA1021+006301071GF108991081051008001999999MA1999999097481MW1101REMSYN100AAXX  05124 06760 31559 80902 10008 21075 39748 40210 5//// 71072 885// 333 553// 20292 82721 88648;
0140067600999992011010513004+46167+008783FM-12+038099999V0201301N000519999999N9999999N1+00091-00701102051ADDMA1999999097431MD1810131+9999OA149900211REMSYN088AAXX  05134 06760 33/// /1301 10009 21070 39743 40205 58013 333 55300 20277 91104 91202;
0087067600999992011010514004+46167+008783FM-12+038099999V0200901N000519999999N9999999N1+00131-00631102031ADDMA1999999097421REMSYN060AAXX  05144 06760 43/// /0901 10013 21063 39742 40203 5////;
0179067600999992011010515004+46167+008783FM-12+038099999V0202501N00051007501CN0090001N1+00091-00511102071ADDAY121031AY221031GA1011+008401071GF107991071051008001001001MA1999999097451MW1051REMSYN088AAXX  05154 06760 41559 72501 10009 21051 39745 40207 5//// 70522 87500 333 81728 87648;
0140067600999992011010516004+46167+008783FM-12+038099999V0203301N001019999999N9999999N1+00041-00471102111ADDMA1999999097481MD1310051+9999OA149900151REMSYN088AAXX  05164 06760 33/// /3302 10004 21047 39748 40211 53005 333 55300 20040 91103 91202;
0140067600999992011010517004+46167+008783FM-12+038099999V0203201N001519999999N9999999N1-00011-00491102111ADDMA1999999097471MD1210051+9999OA149900261REMSYN088AAXX  05174 06760 33/// /3203 11001 21049 39747 40211 52005 333 55300 20000 91105 91203;
0247067600999992011010518004+46167+008783FM-12+038099999V0203401N001012200019N0160001N1-00081-00541102191ADDAL19900091GA1011+014401061GF101991011051012501001001IA1099KA1120M+00131MA1999999097541MD1319999+9999OA149900261REMSYN124AAXX  05184 06760 32666 13402 11008 21054 39754 40219 53/// 81500 333 10013 31/// 55300 20000 81648 90766 93100 91105 91203;
0140067600999992011010519004+46167+008783FM-12+038099999V0209999C000019999999N9999999N1-00031-00521102251ADDMA1999999097601MD1210121+9999OA149900261REMSYN088AAXX  05194 06760 33/// /0000 11003 21052 39760 40225 52012 333 55300 20000 91105 91203;
0140067600999992011010520004+46167+008783FM-12+038099999V0200401N001519999999N9999999N1-00081-00581102241ADDMA1999999097581MD1219999+9999OA149900311REMSYN088AAXX  05204 06760 33/// /0403 11008 21058 39758 40224 52/// 333 55300 20000 91106 91203;
0103067600999992011010521004+46167+008783FM-12+038099999V0203201N000519999999N9999999N1-00101-00581102281ADDMA1999999097621REMSYN076AAXX  05214 06760 33/// /3201 11010 21058 39762 40228 5//// 333 553// 20000;
0140067600999992011010522004+46167+008783FM-12+038099999V0200401N001019999999N9999999N1-00091-00701102301ADDMA1999999097641MD1210041+9999OA149900261REMSYN088AAXX  05224 06760 33/// /0402 11009 21070 39764 40230 52004 333 55300 20000 91105 91203;
0140067600999992011010523004+46167+008783FM-12+038099999V0200501N001519999999N9999999N1-00151-00621102361ADDMA1999999097691MD1319999+9999OA149900211REMSYN088AAXX  05234 06760 33/// /0503 11015 21062 39769 40236 53/// 333 55300 20000 91104 91203;
0087067600999992011010600004+46167+008783FM-12+038099999V0200201N001519999999N9999999N1-00181-00671102361ADDMA1999999097681REMSYN060AAXX  06004 06760 43/// /0203 11018 21067 39768 40236 5////;
0087067600999992011010601004+46167+008783FM-12+038099999V0203301N002119999999N9999999N1-00181-00671102311ADDMA1999999097631REMSYN060AAXX  06014 06760 43/// /3304 11018 21067 39763 40231 5////;
0087067600999992011010602004+46167+008783FM-12+038099999V0209999C000019999999N9999999N1-00161-00731102321ADDMA1999999097651REMSYN060AAXX  06024 06760 43/// /0000 11016 21073 39765 40232 5////;
0087067600999992011010603004+46167+008783FM-12+038099999V0203401N001019999999N9999999N1-00191-00761102331ADDMA1999999097651REMSYN060AAXX  06034 06760 43/// /3402 11019 21076 39765 40233 5////;
0087067600999992011010604004+46167+008783FM-12+038099999V0209999C000519999999N9999999N1-00201-00721102311ADDMA1999999097631REMSYN060AAXX  06044 06760 43/// /0001 11020 21072 39763 40231 5////;
0087067600999992011010605004+46167+008783FM-12+038099999V0200601N000519999999N9999999N1-00141-00741102281ADDMA1999999097611REMSYN060AAXX  06054 06760 43/// /0601 11014 21074 39761 40228 5////;
0260067600999992011010606004+46167+008783FM-12+038099999V0200201N001010093019N0150001N1-00161-00741102261ADDAA124000091AL19900091GA1081+009301061GF108991081051008001999999GJ100009IA1149IA2999-00609KA1999N-00231MA1999999097591REMSYN112AAXX  06064 06760 42565 80202 11016 21074 39759 40226 5//// 885// 333 21023 34106 55000 70000 88631 90768 93100;EQDQ01  00002PRCP24
0087067600999992011010607004+46167+008783FM-12+038099999V0203201N000519999999N9999999N1-00131-00721102271ADDMA1999999097601REMSYN060AAXX  06074 06760 43/// /3201 11013 21072 39760 40227 5////;
0103067600999992011010608004+46167+008783FM-12+038099999V0209999C000019999999N9999999N1-00101-00711102301ADDMA1999999097641REMSYN076AAXX  06084 06760 33/// /0000 11010 21071 39764 40230 5//// 333 553// 20007;
0145067600999992011010609004+46167+008783FM-12+038099999V0201001N000510150019N0160001N1-00091-00681102311ADDGA1081+015001061GF108991081051017501999999MA1999999097651REMSYN076AAXX  06094 06760 42766 81001 11009 21068 39765 40231 5//// 885// 333 88650;
0140067600999992011010610004+46167+008783FM-12+038099999V0200901N001519999999N9999999N1-00071-00561102341ADDMA1999999097681MD1210081+9999OA149900211REMSYN088AAXX  06104 06760 33/// /0903 11007 21056 39768 40234 52008 333 55300 20119 91104 91203;
0140067600999992011010611004+46167+008783FM-12+038099999V0200701N001019999999N9999999N1-00011-00581102301ADDMA1999999097651MD1010011+9999OA149900261REMSYN088AAXX  06114 06760 33/// /0702 11001 21058 39765 40230 50001 333 55300 20256 91105 91204;
0222067600999992011010612004+46167+008783FM-12+038099999V0201101N000510150019N0140001N1+00001-00691102231ADDAY121061AY221061GA1081+015001061GF108991081051017501999999MA1999999097591MD1810061+9999MW1051OA149900261REMSYN106AAXX  06124 06760 31764 81101 10000 21069 39759 40223 58006 70522 885// 333 55300 20230 88650 91105 91204;
0140067600999992011010613004+46167+008783FM-12+038099999V0200401N001519999999N9999999N1+00031-00701102151ADDMA1999999097521MD1710161+9999OA149900211REMSYN088AAXX  06134 06760 33/// /0403 10003 21070 39752 40215 57016 333 55300 20119 91104 91203;
0087067600999992011010614004+46167+008783FM-12+038099999V0200501N000519999999N9999999N1+00041-00661102141ADDMA1999999097511REMSYN060AAXX  06144 06760 43/// /0501 10004 21066 39751 40214 5////;
0179067600999992011010615004+46167+008783FM-12+038099999V0200401N00051036001CN0080001N1+00071-00771102141ADDAY121031AY221031GA1041+015001061GF108991041051017501021999MA1999999097511MW1151REMSYN088AAXX  06154 06760 41758 80401 10007 21077 39751 40214 5//// 71522 8452/ 333 84650 88459;
0140067600999992011010616004+46167+008783FM-12+038099999V0201001N000519999999N9999999N1+00041-00681102161ADDMA1999999097531MD1310011+9999OA149900101REMSYN088AAXX  06164 06760 33/// /1001 10004 21068 39753 40216 53001 333 55300 20011 91102 91201;
0140067600999992011010617004+46167+008783FM-12+038099999V0209999C000019999999N9999999N1+00051-00641102161ADDMA1999999097531MD1010021+9999OA149900101REMSYN088AAXX  06174 06760 33/// /0000 10005 21064 39753 40216 50002 333 55300 20000 91102 91201;
0297067600999992011010618004+46167+008783FM-12+038099999V0209999C00001027001CN0120001N1+00081-00631102161ADDAL19900091AY121061AY221061GA1041+012301061GA2081+027001041GF108991041051012501021999IA1099KA1120M+00091MA1999999097531MD1210021+9999MW1051OA149900261REMSYN136AAXX  06184 06760 31662 80000 10008 21063 39753 40216 52002 70522 8452/ 333 10009 31/// 55300 20000 84641 88459 90766 93100 91105 91204;
0140067600999992011010619004+46167+008783FM-12+038099999V0203301N000519999999N9999999N1+00081-00581102211ADDMA1999999097581MD1210051+9999OA149900151REMSYN088AAXX  06194 06760 33/// /3301 10008 21058 39758 40221 52005 333 55300 20000 91103 91202;
0140067600999992011010620004+46167+008783FM-12+038099999V0209999C000019999999N9999999N1+00061-00461102261ADDMA1999999097631MD1219999+9999OA149900101REMSYN088AAXX  06204 06760 33/// /0000 10006 21046 39763 40226 52/// 333 55300 20000 91102 91201;
0140067600999992011010621004+46167+008783FM-12+038099999V0200701N000519999999N9999999N1+00071-00441102261ADDMA1999999097631MD1219999+9999OA149900151REMSYN088AAXX  06214 06760 33/// /0701 10007 21044 39763 40226 52/// 333 55300 20000 91103 91202;
0140067600999992011010622004+46167+008783FM-12+038099999V0209999C000019999999N9999999N1+00041-00451102311ADDMA1999999097671MD1210091+9999OA149900211REMSYN088AAXX  06224 06760 33/// /0000 10004 21045 39767 40231 52009 333 55300 20000 91104 91202;
0103067600999992011010623004+46167+008783FM-12+038099999V0201101N000519999999N9999999N1+00051-00421102331ADDMA1999999097691REMSYN076AAXX  06234 06760 33/// /1101 10005 21042 39769 40233 5//// 333 553// 20000;
0087067600999992011010700004+46167+008783FM-12+038099999V0209999C000019999999N9999999N1+00081-00431102301ADDMA1999999097671REMSYN060AAXX  07004 06760 43/// /0000 10008 21043 39767 40230 5////;
0087067600999992011010701004+46167+008783FM-12+038099999V0200601N000519999999N9999999N1+00081-00441102321ADDMA1999999097691REMSYN060AAXX  07014 06760 43/// /0601 10008 21044 39769 40232 5////;
0087067600999992011010702004+46167+008783FM-12+038099999V0202501N000519999999N9999999N1+00071-00441102371ADDMA1999999097731REMSYN060AAXX  07024 06760 43/// /2501 10007 21044 39773 40237 5////;
0087067600999992011010703004+46167+008783FM-12+038099999V0209999C000019999999N9999999N1+00081-00491102391ADDMA1999999097751REMSYN060AAXX  07034 06760 43/// /0000 10008 21049 39775 40239 5////;
0140067600999992011010704004+46167+008783FM-12+038099999V0202501N001019999999N9999999N1+00111-00411102381ADDMA1999999097751MD1210061+9999OA149900151REMSYN088AAXX  07044 06760 33/// /2502 10011 21041 39775 40238 52006 333 55300 20000 91103 91202;
0140067600999992011010705004+46167+008783FM-12+038099999V0202701N001019999999N9999999N1+00101-00291102411ADDMA1999999097781MD1210051+9999OA149900211REMSYN088AAXX  07054 06760 33/// /2702 10010 21029 39778 40241 52005 333 55300 20000 91104 91202;
0307067600999992011010706004+46167+008783FM-12+038099999V0209999C000010042019N0060001N1+00091-00261102461ADDAL19900091AY121061AY221061GA1081+004201071GF108991081061004501999999GJ100009IA1019IA2999+00009KA1999N+00041MA1999999097821MD1210071+9999MW1051OA149900211REMSYN142AAXX  07064 06760 31456 80000 10009 21026 39782 40246 52007 70522 886// 333 20004 30100 55000 55300 20000 70000 88714 90768 93100 91104 91202;
0140067600999992011010707004+46167+008783FM-12+038099999V0200401N000519999999N9999999N1+00091-00271102461ADDMA1999999097821MD1210071+9999OA149900151REMSYN088AAXX  07074 06760 33/// /0401 10009 21027 39782 40246 52007 333 55300 20000 91103 91202;
0103067600999992011010708004+46167+008783FM-12+038099999V0209999C000019999999N9999999N1+00111-00371102521ADDMA1999999097881REMSYN076AAXX  07084 06760 33/// /0000 10011 21037 39788 40252 5//// 333 553// 20014;
0173067600999992011010709004+46167+008783FM-12+038099999V0209999C000010063019N0070001N1+00121-00281102571ADDAY121031AY221031GA1081+006301071GF108991081061008001999999MA1999999097931MW1051REMSYN082AAXX  07094 06760 41557 80000 10012 21028 39793 40257 5//// 70522 886// 333 88721;
0140067600999992011010710004+46167+008783FM-12+038099999V0209999C000019999999N9999999N1+00131-00301102571ADDMA1999999097931MD1210111+9999OA149900101REMSYN088AAXX  07104 06760 33/// /0000 10013 21030 39793 40257 52011 333 55300 20083 91102 91201;
0146067600999992011010711004+46167+008783FM-12+038099999V0201001N000519999999N9999999N1+00061-00081102571ADDMA1999999097921MD1010041+9999OA149900151REMSYN094AAXX  07114 06760 23/// /1001 10006 21008 39792 40257 50004 333 55300 20119 69915 91103 91202;
0233067600999992011010712004+46167+008783FM-12+038099999V0201801N000510003019N0005001N1+00011-00011102571ADDAA106000391AY151061AY241061GA1091+999999999GF109991091999999999999999MA1999999097911MD1810021+9999MW1501OA149900211REMSYN106AAXX  07124 06760 01/05 91801 10001 21001 39791 40257 58002 69931 75054 333 55300 20104 69925 91104 91202;
0146067600999992011010713004+46167+008783FM-12+038099999V0201401N000519999999N9999999N1+00001-00011102541ADDMA1999999097881MD1710051+9999OA149900101REMSYN094AAXX  07134 06760 23/// /1401 10000 21001 39788 40254 57005 333 55300 20040 69965 91102 91201;
0087067600999992011010714004+46167+008783FM-12+038099999V0200701N000519999999N9999999N1+00011+00011102531ADDMA1999999097881REMSYN060AAXX  07144 06760 43/// /0701 10001 20001 39788 40253 5////;
0157067600999992011010715004+46167+008783FM-12+038099999V0201001N000510001519N0001001N1+00011+00011102561ADDAY151031AY241031GA1091+999999999GF109991091999999999999999MA1999999097901MW1531REMSYN066AAXX  07154 06760 41/01 91001 10001 20001 39790 40256 5//// 75354;
0146067600999992011010716004+46167+008783FM-12+038099999V0209999C000019999999N9999999N1+00031+00031102561ADDMA1999999097911MD1310031+9999OA149900151REMSYN094AAXX  07164 06760 23/// /0000 10003 20003 39791 40256 53003 333 55300 20004 69955 91103 91202;
0146067600999992011010717004+46167+008783FM-12+038099999V0202501N000519999999N9999999N1+00061+00051102561ADDMA1999999097911MD1210031+9999OA149900101REMSYN094AAXX  07174 06760 23/// /2501 10006 20005 39791 40256 52003 333 55300 20000 69945 91102 91201;
0239067600999992011010718004+46167+008783FM-12+038099999V0201401N000510001519N0001001N1+00071+00061102561ADDAA112003091AY151061AY241061GA1091+999999999GF109991091999999999999999IA1099KA1120M+00151MA1999999097911MW1531REMSYN118AAXX  07184 06760 01/01 91401 10007 20006 39791 40256 5//// 60032 75354 333 10015 31/// 553// 20000 69975 90766 93100;
0146067600999992011010719004+46167+008783FM-12+038099999V0201001N000519999999N9999999N1+00081+00081102541ADDMA1999999097901MD1019999+9999OA149900101REMSYN094AAXX  07194 06760 23/// /1001 10008 20008 39790 40254 50/// 333 55300 20000 69925 91102 91202;
0087067600999992011010720004+46167+008783FM-12+038099999V0203401N000519999999N9999999N1+00101+00091102531ADDMA1999999097891REMSYN060AAXX  07204 06760 43/// /3401 10010 20009 39789 40253 5////;
0087067600999992011010721004+46167+008783FM-12+038099999V0202401N000519999999N9999999N1+00081+00071102541ADDMA1999999097901REMSYN060AAXX  07214 06760 43/// /2401 10008 20007 39790 40254 5////;
0146067600999992011010722004+46167+008783FM-12+038099999V0202601N000519999999N9999999N1+00151+00091102541ADDMA1999999097911MD1310011+9999OA149900151REMSYN094AAXX  07224 06760 23/// /2601 10015 20009 39791 40254 53001 333 55300 20000 69975 91103 91202;
0109067600999992011010723004+46167+008783FM-12+038099999V0202701N000519999999N9999999N1+00151+00131102541ADDMA1999999097911REMSYN082AAXX  07234 06760 23/// /2701 10015 20013 39791 40254 5//// 333 553// 20000 69955;
0126067600999992011010800004+46167+008783FM-12+038099999V0202401N000519999999N9999999N1+00161+00141102521ADDAA106002091MA1999999097891REMSYN088AAXX  08004 06760 03/// /2401 10016 20014 39789 40252 5//// 60021 333 553// 20000 69955;
0087067600999992011010801004+46167+008783FM-12+038099999V0209999C000019999999N9999999N1+00151+00131102481ADDMA1999999097851REMSYN060AAXX  08014 06760 43/// /0000 10015 20013 39785 40248 5////;
0087067600999992011010802004+46167+008783FM-12+038099999V0200401N000519999999N9999999N1+00131+00121102461ADDMA1999999097831REMSYN060AAXX  08024 06760 43/// /0401 10013 20012 39783 40246 5////;
0087067600999992011010803004+46167+008783FM-12+038099999V0202701N000519999999N9999999N1+00131+00131102441ADDMA1999999097811REMSYN060AAXX  08034 06760 43/// /2701 10013 20013 39781 40244 5////;
0087067600999992011010804004+46167+008783FM-12+038099999V0200701N001019999999N9999999N1+00171+00141102391ADDMA1999999097771REMSYN060AAXX  08044 06760 43/// /0702 10017 20014 39777 40239 5////;
0087067600999992011010805004+46167+008783FM-12+038099999V0201501N000519999999N9999999N1+00141+00131102351ADDMA1999999097731REMSYN060AAXX  08054 06760 43/// /1501 10014 20013 39773 40235 5////;
0280067600999992011010806004+46167+008783FM-12+038099999V0201201N000510012019N0010001N1+00171+00121102341ADDAL19900091AY161061AY251061GA1081+001201071GF108991081071001501999999GG1079039009009999GJ100009IA1119IA2999+00109KA1999N+00061MA1999999097721MW1611REMSYN122AAXX  08064 06760 41210 81201 10017 20012 39772 40234 5//// 76165 887// 333 20006 32001 55000 88704 90768 93100 444 27039;
0087067600999992011010807004+46167+008783FM-12+038099999V0200501N000519999999N9999999N1+00211+00161102341ADDMA1999999097731REMSYN060AAXX  08074 06760 43/// /0501 10021 20016 39773 40234 5////;
0109067600999992011010808004+46167+008783FM-12+038099999V0200701N000519999999N9999999N1+00191+00171102391ADDMA1999999097771REMSYN082AAXX  08084 06760 23/// /0701 10019 20017 39777 40239 5//// 333 553// 20004 69995;
0157067600999992011010809004+46167+008783FM-12+038099999V0201101N000510003019N0002001N1+00231+00211102401ADDAY161031AY241031GA1091+999999999GF109991091999999999999999MA1999999097791MW1631REMSYN066AAXX  08094 06760 41/02 91101 10023 20021 39779 40240 5//// 76364;
0087067600999992011010810004+46167+008783FM-12+038099999V0200501N000519999999N9999999N1+00321+00271102411ADDMA1999999097811REMSYN060AAXX  08104 06760 43/// /0501 10032 20027 39781 40241 5////;
0087067600999992011010811004+46167+008783FM-12+038099999V0200401N001019999999N9999999N1+00351+00321102351ADDMA1999999097761REMSYN060AAXX  08114 06760 43/// /0402 10035 20032 39776 40235 5////;
0183067600999992011010812004+46167+008783FM-12+038099999V0209999C000010003019N0002001N1+00331+00331102321ADDAY161061AY241061GA1081+000301071GF108991081071000251999999MA1999999097731MW1531REMSYN092AAXX  08124 06760 41002 80000 10033 20033 39773 40232 5//// 75364 887// 333 88701 444 37049;
0087067600999992011010813004+46167+008783FM-12+038099999V0201001N000519999999N9999999N1+00341+00321102271ADDMA1999999097681REMSYN060AAXX  08134 06760 43/// /1001 10034 20032 39768 40227 5////;
0087067600999992011010814004+46167+008783FM-12+038099999V0200901N000519999999N9999999N1+00381+00361102261ADDMA1999999097681REMSYN060AAXX  08144 06760 43/// /0901 10038 20036 39768 40226 5////;
0227067600999992011010815004+46167+008783FM-12+038099999V0200101N000510123019N0120001N1+00451+00391102281ADDAY161031AY251031GA1011+000301071GA2061+012301061GA3081+021001041GF108991041061000251021999MA1999999097711MW1101REMSYN104AAXX  08154 06760 41062 80101 10045 20039 39771 40228 5//// 71065 8462/ 333 81701 86641 88457 444 17039;
0087067600999992011010816004+46167+008783FM-12+038099999V0200701N000519999999N9999999N1+00411+00351102331ADDMA1999999097751REMSYN060AAXX  08164 06760 43/// /0701 10041 20035 39775 40233 5////;
0087067600999992011010817004+46167+008783FM-12+038099999V0200801N000519999999N9999999N1+00431+00361102321ADDMA1999999097751REMSYN060AAXX  08174 06760 43/// /0801 10043 20036 39775 40232 5////;
0239067600999992011010818004+46167+008783FM-12+038099999V0200601N001010123019N0060001N1+00431+00361102291ADDAL19900091AY161061AY251061GA1051+012301061GA2081+024001051GF108991051051012501021999IA1099MA1999999097721MW1501REMSYN116AAXX  08184 06760 41656 80602 10043 20036 39772 40229 5//// 75065 8552/ 333 31/// 85641 88558 90766 93100 444 17030;
0087067600999992011010819004+46167+008783FM-12+038099999V0202701N001019999999N9999999N1+00441+00391102311ADDMA1999999097741REMSYN060AAXX  08194 06760 43/// /2702 10044 20039 39774 40231 5////;
0087067600999992011010820004+46167+008783FM-12+038099999V0202501N000519999999N9999999N1+00461+00391102321ADDMA1999999097751REMSYN060AAXX  08204 06760 43/// /2501 10046 20039 39775 40232 5////;
0087067600999992011010821004+46167+008783FM-12+038099999V0203301N000519999999N9999999N1+00451+00401102341ADDMA1999999097771REMSYN060AAXX  08214 06760 43/// /3301 10045 20040 39777 40234 5////;
0087067600999992011010822004+46167+008783FM-12+038099999V0203101N000519999999N9999999N1+00411+00401102321ADDMA1999999097741REMSYN060AAXX  08224 06760 43/// /3101 10041 20040 39774 40232 5////;
0087067600999992011010823004+46167+008783FM-12+038099999V0200701N001019999999N9999999N1+00421+00391102351ADDMA1999999097771REMSYN060AAXX  08234 06760 43/// /0702 10042 20039 39777 40235 5////;
0087067600999992011010900004+46167+008783FM-12+038099999V0202701N000519999999N9999999N1+00391+00391102341ADDMA1999999097761REMSYN060AAXX  09004 06760 43/// /2701 10039 20039 39776 40234 5////;
0087067600999992011010901004+46167+008783FM-12+038099999V0200301N001019999999N9999999N1+00441+00391102321ADDMA1999999097751REMSYN060AAXX  09014 06760 43/// /0302 10044 20039 39775 40232 5////;
0087067600999992011010902004+46167+008783FM-12+038099999V0209999C000019999999N9999999N1+00401+00381102321ADDMA1999999097741REMSYN060AAXX  09024 06760 43/// /0000 10040 20038 39774 40232 5////;
0087067600999992011010903004+46167+008783FM-12+038099999V0200101N000519999999N9999999N1+00421+00391102301ADDMA1999999097721REMSYN060AAXX  09034 06760 43/// /0101 10042 20039 39772 40230 5////;
0087067600999992011010904004+46167+008783FM-12+038099999V0209999C000019999999N9999999N1+00401+00381102251ADDMA1999999097671REMSYN060AAXX  09044 06760 43/// /0000 10040 20038 39767 40225 5////;
0087067600999992011010905004+46167+008783FM-12+038099999V0202601N000519999999N9999999N1+00401+00381102251ADDMA1999999097671REMSYN060AAXX  09054 06760 43/// /2601 10040 20038 39767 40225 5////;
0221067600999992011010906004+46167+008783FM-12+038099999V0202601N001510003019N0005001N1+00431+00391102241ADDAL10600091AY151061AY221061GA1081+000301071GF108991081071000251999999GJ100009IA1119MA1999999097671MW1501REMSYN106AAXX  09064 06760 41005 82603 10043 20039 39767 40224 5//// 75052 887// 333 32/// 55000 88701 90768 93100;
0087067600999992011010907004+46167+008783FM-12+038099999V0202701N001019999999N9999999N1+00431+00421102271ADDMA1999999097701REMSYN060AAXX  09074 06760 43/// /2702 10043 20042 39770 40227 5////;
0103067600999992011010908004+46167+008783FM-12+038099999V0202701N001019999999N9999999N1+00431+00411102321ADDMA1999999097751REMSYN076AAXX  09084 06760 33/// /2702 10043 20041 39775 40232 5//// 333 553// 20007;
0179067600999992011010909004+46167+008783FM-12+038099999V0202401N000510001519N0001001N1+00461+00421102331ADDAY161031AY251031GA1091+999999999GF109991091999999999999999MA1999999097761MW1621REMSYN088AAXX  09094 06760 21/01 92401 10046 20042 39776 40233 5//// 76265 333 553// 20043 69975;
0146067600999992011010910004+46167+008783FM-12+038099999V0202601N001519999999N9999999N1+00481+00411102341ADDMA1999999097771MD1210071+9999OA149900461REMSYN094AAXX  09104 06760 23/// /2603 10048 20041 39777 40234 52007 333 55300 20122 69955 91109 91206;
0146067600999992011010911004+46167+008783FM-12+038099999V0202601N000519999999N9999999N1+00451+00411102321ADDMA1999999097751MD1010001+9999OA149900361REMSYN094AAXX  09114 06760 23/// /2601 10045 20041 39775 40232 50000 333 55300 20108 69995 91107 91203;
0163067600999992011010912004+46167+008783FM-12+038099999V0209999C000019999999N9999999N1+00451+00431102241ADDAA106003091MA1999999097671MD1710091+9999OA149900461REMSYN100AAXX  09124 06760 03/// /0000 10045 20043 39767 40224 57009 60031 333 55300 20097 69995 91109 91206;
0146067600999992011010913004+46167+008783FM-12+038099999V0200901N000519999999N9999999N1+00491+00461102171ADDMA1999999097611MD1710161+9999OA149900211REMSYN094AAXX  09134 06760 23/// /0901 10049 20046 39761 40217 57016 333 55300 20144 60015 91104 91202;
0087067600999992011010914004+46167+008783FM-12+038099999V0201901N000519999999N9999999N1+00461+00441102181ADDMA1999999097621REMSYN060AAXX  09144 06760 43/// /1901 10046 20044 39762 40218 5////;
0157067600999992011010915004+46167+008783FM-12+038099999V0209999C000010001519N0000001N1+00451+00431102201ADDAY161031AY241031GA1091+999999999GF109991091999999999999999MA1999999097631MW1621REMSYN066AAXX  09154 06760 41/00 90000 10045 20043 39763 40220 5//// 76264;
0146067600999992011010916004+46167+008783FM-12+038099999V0202901N000519999999N9999999N1+00461+00421102181ADDMA1999999097621MD1210011+9999OA149900101REMSYN094AAXX  09164 06760 23/// /2901 10046 20042 39762 40218 52001 333 55300 20004 69925 91102 91201;
0146067600999992011010917004+46167+008783FM-12+038099999V0202501N001019999999N9999999N1+00461+00441102161ADDMA1999999097601MD1710021+9999OA149900151REMSYN094AAXX  09174 06760 23/// /2502 10046 20044 39760 40216 57002 333 55300 20000 69995 91103 91202;
0320067600999992011010918004+46167+008783FM-12+038099999V0202701N00051006301CN0020001N1+00441+00401102201ADDAA112009991AL19900091AY161061AY241061GA1011+000301071GA2081+006301051GF108991011071000251021999IA1119KA1120M+00491MA1999999097631MD1510001+9999MW1631OA149900461REMSYN148AAXX  09184 06760 01020 82701 10044 20040 39763 40220 55000 60102 76364 8172/ 333 10049 32/// 55300 20000 60025 81701 88521 90766 93100 91109 91206;
0146067600999992011010919004+46167+008783FM-12+038099999V0202801N001019999999N9999999N1+00471+00431102201ADDMA1999999097641MD1210021+9999OA149900211REMSYN094AAXX  09194 06760 23/// /2802 10047 20043 39764 40220 52002 333 55300 20000 60025 91104 91202;
0146067600999992011010920004+46167+008783FM-12+038099999V0209999C000019999999N9999999N1+00471+00441102201ADDMA1999999097641MD1210041+9999OA149900211REMSYN094AAXX  09204 06760 23/// /0000 10047 20044 39764 40220 52004 333 55300 20000 60025 91104 91202;
0146067600999992011010921004+46167+008783FM-12+038099999V0202701N000519999999N9999999N1+00441+00411102201ADDMA1999999097631MD1010001+9999OA149900211REMSYN094AAXX  09214 06760 23/// /2701 10044 20041 39763 40220 50000 333 55300 20000 60025 91104 91202;
0146067600999992011010922004+46167+008783FM-12+038099999V0209999C000019999999N9999999N1+00481+00421102211ADDMA1999999097651MD1010011+9999OA149900151REMSYN094AAXX  09224 06760 23/// /0000 10048 20042 39765 40221 50001 333 55300 20000 69995 91103 91202;
0146067600999992011010923004+46167+008783FM-12+038099999V0201001N000519999999N9999999N1+00431+00431102191ADDMA1999999097621MD1710021+9999OA149900151REMSYN094AAXX  09234 06760 23/// /1001 10043 20043 39762 40219 57002 333 55300 20000 69995 91103 91202;
0163067600999992011011000004+46167+008783FM-12+038099999V0202501N000519999999N9999999N1+00421+00411102171ADDAA106008991MA1999999097601MD1810031+9999OA149900211REMSYN100AAXX  10004 06760 03/// /2501 10042 20041 39760 40217 58003 60091 333 55300 20000 60025 91104 91202;
0146067600999992011011001004+46167+008783FM-12+038099999V0203201N000519999999N9999999N1+00461+00401102141ADDMA1999999097581MD1710071+9999OA149900151REMSYN094AAXX  10014 06760 23/// /3201 10046 20040 39758 40214 57007 333 55300 20000 60035 91103 91202;
0109067600999992011011002004+46167+008783FM-12+038099999V0200601N001019999999N9999999N1+00421+00421102161ADDMA1999999097591REMSYN082AAXX  10024 06760 23/// /0602 10042 20042 39759 40216 5//// 333 553// 20000 60025;
0087067600999992011011003004+46167+008783FM-12+038099999V0209999C000019999999N9999999N1+00441+00401102151ADDMA1999999097581REMSYN060AAXX  10034 06760 43/// /0000 10044 20040 39758 40215 5////;
0109067600999992011011004004+46167+008783FM-12+038099999V0200701N000519999999N9999999N1+00431+00371102141ADDMA1999999097571REMSYN082AAXX  10044 06760 23/// /0701 10043 20037 39757 40214 5//// 333 553// 20000 69985;
0146067600999992011011005004+46167+008783FM-12+038099999V0201201N000519999999N9999999N1+00381+00371102131ADDMA1999999097561MD1719999+9999OA149900211REMSYN094AAXX  10054 06760 23/// /1201 10038 20037 39756 40213 57/// 333 55300 20000 69925 91104 91203;
0291067600999992011011006004+46167+008783FM-12+038099999V0201101N001010084019N0200001N1+00391+00361102121ADDAA124025191AL10602591AY161061AY251061GA1021+000301061GA2081+008401051GF108991021051000251021999GJ100009IA1119IA2999+00409KA1999N+00381MA1999999097551MW1201REMSYN124AAXX  10064 06760 41070 81102 10039 20036 39755 40212 5//// 72065 8252/ 333 20038 32004 55000 70251 82601 88528 90768 93100;
0140067600999992011011007004+46167+008783FM-12+038099999V0200901N000519999999N9999999N1+00371+00351102151ADDMA1999999097571MD1510001+9999OA149900151REMSYN088AAXX  10074 06760 33/// /0901 10037 20035 39757 40215 55000 333 55300 20000 91103 91203;
0087067600999992011011008004+46167+008783FM-12+038099999V0201901N000519999999N9999999N1+00371+00351102171ADDMA1999999097591REMSYN060AAXX  10084 06760 43/// /1901 10037 20035 39759 40217 5////;
0201067600999992011011009004+46167+008783FM-12+038099999V0209999C00001036001CN0130001N1+00411+00381102151ADDAY161031AY251031GA1021+000301071GA2041+007201071GF108991041071000251021999MA1999999097581MW1501REMSYN094AAXX  10094 06760 41063 80000 10041 20038 39758 40215 5//// 75065 8472/ 333 82701 84724 88534;
0140067600999992011011010004+46167+008783FM-12+038099999V0200501N000519999999N9999999N1+00441+00381102191ADDMA1999999097621MD1210051+9999OA149900151REMSYN088AAXX  10104 06760 33/// /0501 10044 20038 39762 40219 52005 333 55300 20094 91103 91202;
0146067600999992011011011004+46167+008783FM-12+038099999V0202501N001019999999N9999999N1+00431+00411102151ADDMA1999999097581MD1019999+9999OA149900151REMSYN094AAXX  10114 06760 23/// /2502 10043 20041 39758 40215 50/// 333 55300 20140 69915 91103 91202;
0214067600999992011011012004+46167+008783FM-12+038099999V0202701N000510360019N0130001N1+00441+00411102081ADDAA106000021AY161061AY251061GA1031+000301071GF108991031071000251021999MA1999999097521MW1201REMSYN112AAXX  10124 06760 01063 82701 10044 20041 39752 40208 5//// 69911 72065 8372/ 333 553// 20173 60005 83701 88528;
0087067600999992011011013004+46167+008783FM-12+038099999V0201501N000519999999N9999999N1+00421+00381102041ADDMA1999999097481REMSYN060AAXX  10134 06760 43/// /1501 10042 20038 39748 40204 5////;
0087067600999992011011014004+46167+008783FM-12+038099999V0209999C000019999999N9999999N1+00441+00401102011ADDMA1999999097451REMSYN060AAXX  10144 06760 43/// /0000 10044 20040 39745 40201 5////;
0157067600999992011011015004+46167+008783FM-12+038099999V0209999C000010003019N0005001N1+00431+00411102031ADDAY151031AY241031GA1091+999999999GF109991091999999999999999MA1999999097471MW1501REMSYN066AAXX  10154 06760 41/05 90000 10043 20041 39747 40203 5//// 75054;
0087067600999992011011016004+46167+008783FM-12+038099999V0209999C000019999999N9999999N1+00421+00421102011ADDMA1999999097451REMSYN060AAXX  10164 06760 43/// /0000 10042 20042 39745 40201 5////;
0087067600999992011011017004+46167+008783FM-12+038099999V0200901N000519999999N9999999N1+00431+00411102011ADDMA1999999097451REMSYN060AAXX  10174 06760 43/// /0901 10043 20041 39745 40201 5////;
0248067600999992011011018004+46167+008783FM-12+038099999V0200601N001010063019N0050001N1+00441+00351102001ADDAL10600091AY161061AY241061GA1021+000301071GA2081+006301071GF108991081071000251999999IA1099KA1120M+00471MA1999999097441MW1601REMSYN112AAXX  10184 06760 41050 80602 10044 20035 39744 40200 5//// 76064 887// 333 10047 31/// 82701 88721 90766 93100;
0087067600999992011011019004+46167+008783FM-12+038099999V0209999C000019999999N9999999N1+00441+00371101981ADDMA1999999097421REMSYN060AAXX  10194 06760 43/// /0000 10044 20037 39742 40198 5////;
0087067600999992011011020004+46167+008783FM-12+038099999V0209999C000019999999N9999999N1+00421+00401101981ADDMA1999999097421REMSYN060AAXX  10204 06760 43/// /0000 10042 20040 39742 40198 5////;
0087067600999992011011021004+46167+008783FM-12+038099999V0209999C000019999999N9999999N1+00431+00371101971ADDMA1999999097411REMSYN060AAXX  10214 06760 43/// /0000 10043 20037 39741 40197 5////;
0087067600999992011011022004+46167+008783FM-12+038099999V0209999C000019999999N9999999N1+00421+00381101961ADDMA1999999097401REMSYN060AAXX  10224 06760 43/// /0000 10042 20038 39740 40196 5////;
0087067600999992011011023004+46167+008783FM-12+038099999V0203101N000519999999N9999999N1+00401+00391101931ADDMA1999999097371REMSYN060AAXX  10234 06760 43/// /3101 10040 20039 39737 40193 5////;
0087067600999992011011100004+46167+008783FM-12+038099999V0200501N001019999999N9999999N1+00441+00381101861ADDMA1999999097311REMSYN060AAXX  11004 06760 43/// /0502 10044 20038 39731 40186 5////;
0087067600999992011011101004+46167+008783FM-12+038099999V0209999C000019999999N9999999N1+00411+00401101831ADDMA1999999097271REMSYN060AAXX  11014 06760 43/// /0000 10041 20040 39727 40183 5////;
0087067600999992011011102004+46167+008783FM-12+038099999V0200501N001019999999N9999999N1+00471+00401101771ADDMA1999999097231REMSYN060AAXX  11024 06760 43/// /0502 10047 20040 39723 40177 5////;
0087067600999992011011103004+46167+008783FM-12+038099999V0200501N000519999999N9999999N1+00431+00391101731ADDMA1999999097181REMSYN060AAXX  11034 06760 43/// /0501 10043 20039 39718 40173 5////;
0087067600999992011011104004+46167+008783FM-12+038099999V0203401N000519999999N9999999N1+00471+00391101681ADDMA1999999097141REMSYN060AAXX  11044 06760 43/// /3401 10047 20039 39714 40168 5////;
0087067600999992011011105004+46167+008783FM-12+038099999V0201001N000519999999N9999999N1+00391+00381101651ADDMA1999999097101REMSYN060AAXX  11054 06760 43/// /1001 10039 20038 39710 40165 5////;
0271067600999992011011106004+46167+008783FM-12+038099999V0200501N000510123019N0200001N1+00461+00361101641ADDAL19900091AY161061AY251061GA1011+006301071GA2081+012301061GF108991081051008001999999GG1079039009009999GJ100009IA1099MA1999999097101MW1021REMSYN122AAXX  11064 06760 41570 80501 10046 20036 39710 40164 5//// 70265 885// 333 31/// 55000 81721 88641 90768 93100 444 17039;
0140067600999992011011107004+46167+008783FM-12+038099999V0200401N001519999999N9999999N1+00441+00361101621ADDMA1999999097081MD1719999+9999OA149900151REMSYN088AAXX  11074 06760 33/// /0403 10044 20036 39708 40162 57/// 333 55300 20000 91103 91203;
0103067600999992011011108004+46167+008783FM-12+038099999V0203301N000519999999N9999999N1+00421+00411101641ADDMA1999999097091REMSYN076AAXX  11084 06760 33/// /3301 10042 20041 39709 40164 5//// 333 553// 20058;
0179067600999992011011109004+46167+008783FM-12+038099999V0209999C00001000301CN0100001N1+00451+00431101621ADDAY141031AY221031GA1011+000301071GF107991071051000251999999MA1999999097081MW1101REMSYN088AAXX  11094 06760 41060 70000 10045 20043 39708 40162 5//// 71042 875// 333 81701 87641;
0140067600999992011011110004+46167+008783FM-12+038099999V0209999C000019999999N9999999N1+00471+00441101611ADDMA1999999097071MD1710011+9999OA149900151REMSYN088AAXX  11104 06760 33/// /0000 10047 20044 39707 40161 57001 333 55300 20241 91103 91202;
0140067600999992011011111004+46167+008783FM-12+038099999V0209999C000019999999N9999999N1+00511+00481101521ADDMA1999999096991MD1710101+9999OA149900101REMSYN088AAXX  11114 06760 33/// /0000 10051 20048 39699 40152 57010 333 55300 20364 91102 91201;
0191067600999992011011112004+46167+008783FM-12+038099999V0201301N000510003019N0025001N1+00541+00491101401ADDAY141061AY221061GA1011+000301071GF107991071051000251999999MA1999999096881MW1101REMSYN100AAXX  11124 06760 31025 71301 10054 20049 39688 40140 5//// 71042 875// 333 553// 20443 81701 87641;
0140067600999992011011113004+46167+008783FM-12+038099999V0202401N000519999999N9999999N1+00561+00501101331ADDMA1999999096821MD1710251+9999OA149900151REMSYN088AAXX  11134 06760 33/// /2401 10056 20050 39682 40133 57025 333 55300 20374 91103 91201;
0087067600999992011011114004+46167+008783FM-12+038099999V0202801N001019999999N9999999N1+00541+00471101301ADDMA1999999096791REMSYN060AAXX  11144 06760 43/// /2802 10054 20047 39679 40130 5////;
0201067600999992011011115004+46167+008783FM-12+038099999V0202701N000510084019N0080001N1+00581+00431101291ADDAY121031AY221031GA1021+000901071GA2051+008401061GF108991051051000751021999MA1999999096791MW1101REMSYN094AAXX  11154 06760 41158 82701 10058 20043 39679 40129 5//// 71022 8552/ 333 82703 85628 88457;
0159067600999992011011116004+46167+008783FM-12+038099999V0201101N000519999999N9999999N1+00521+00451101341ADDMA1999999096821MD1310011+9999OA149900101REMSYN088AAXX  11164 06760 33/// /1101 10052 20045 39682 40134 53000 333 55300 20036 91102 91201;EQDQ01+000002APC3  
0140067600999992011011117004+46167+008783FM-12+038099999V0200401N001019999999N9999999N1+00501+00461101351ADDMA1999999096831MD1210041+9999OA149900151REMSYN088AAXX  11174 06760 33/// /0402 10050 20046 39683 40135 52004 333 55300 20000 91103 91202;
0319067600999992011011118004+46167+008783FM-12+038099999V0200501N00101008401CN0050001N1+00471+00391101391ADDAL19900091AY121061AY221061GA1031+000901071GA2031+008401061GA3051+024001041GF106991061051000751011999IA1099KA1120M+00581MA1999999096861MD1210071+9999MW1101OA149900151REMSYN142AAXX  11184 06760 31150 60502 10047 20039 39686 40139 52007 71022 8651/ 333 10058 31/// 55300 20000 83703 83628 85458 90766 93100 91103 91203;
0140067600999992011011119004+46167+008783FM-12+038099999V0200301N001519999999N9999999N1+00511+00361101411ADDMA1999999096891MD1210071+9999OA149900211REMSYN088AAXX  11194 06760 33/// /0303 10051 20036 39689 40141 52007 333 55300 20000 91104 91203;
0140067600999992011011120004+46167+008783FM-12+038099999V0203201N001019999999N9999999N1+00461+00311101431ADDMA1999999096901MD1210071+9999OA149900211REMSYN088AAXX  11204 06760 33/// /3202 10046 20031 39690 40143 52007 333 55300 20000 91104 91203;
0140067600999992011011121004+46167+008783FM-12+038099999V0203301N001019999999N9999999N1+00391+00271101471ADDMA1999999096931MD1210071+9999OA149900211REMSYN088AAXX  11214 06760 33/// /3302 10039 20027 39693 40147 52007 333 55300 20000 91104 91203;
0140067600999992011011122004+46167+008783FM-12+038099999V0200201N001519999999N9999999N1+00451+00271101491ADDMA1999999096961MD1210071+9999OA149900211REMSYN088AAXX  11224 06760 33/// /0203 10045 20027 39696 40149 52007 333 55300 20000 91104 91203;
0140067600999992011011123004+46167+008783FM-12+038099999V0202901N001019999999N9999999N1+00411+00261101531ADDMA1999999096991MD1110091+9999OA149900211REMSYN088AAXX  11234 06760 33/// /2902 10041 20026 39699 40153 51009 333 55300 20000 91104 91203;
0140067600999992011011200004+46167+008783FM-12+038099999V0200201N001019999999N9999999N1+00351+00191101561ADDMA1999999097011MD1210081+9999OA149900261REMSYN088AAXX  12004 06760 33/// /0202 10035 20019 39701 40156 52008 333 55300 20000 91105 91203;
0140067600999992011011201004+46167+008783FM-12+038099999V0203301N000519999999N9999999N1+00311+00181101601ADDMA1999999097041MD1210081+9999OA149900261REMSYN088AAXX  12014 06760 33/// /3301 10031 20018 39704 40160 52008 333 55300 20000 91105 91203;
0103067600999992011011202004+46167+008783FM-12+038099999V0202801N001519999999N9999999N1+00371+00171101691ADDMA1999999097131REMSYN076AAXX  12024 06760 33/// /2803 10037 20017 39713 40169 5//// 333 553// 20000;
0087067600999992011011203004+46167+008783FM-12+038099999V0200301N001019999999N9999999N1+00321+00141101751ADDMA1999999097181REMSYN060AAXX  12034 06760 43/// /0302 10032 20014 39718 40175 5////;
0087067600999992011011204004+46167+008783FM-12+038099999V0200501N000519999999N9999999N1+00331+00141101821ADDMA1999999097251REMSYN060AAXX  12044 06760 43/// /0501 10033 20014 39725 40182 5////;
0103067600999992011011205004+46167+008783FM-12+038099999V0200401N001019999999N9999999N1+00301+00081101821ADDMA1999999097251REMSYN076AAXX  12054 06760 33/// /0402 10030 20008 39725 40182 5//// 333 553// 20000;
0260067600999992011011206004+46167+008783FM-12+038099999V0203101N001012200019N0400001N1+00311+00041101891ADDAA124000091AL19900091GA1011+030001031GF101991011001999999031001GJ100009IA1099IA2999+00009KA1999N+00271MA1999999097311REMSYN112AAXX  12064 06760 42982 13102 10031 20004 39731 40189 5//// 81030 333 20027 31100 55000 70000 81360 90768 93100;EQDQ01  00002PRCP24
0140067600999992011011207004+46167+008783FM-12+038099999V0203301N000519999999N9999999N1+00311+00011101991ADDMA1999999097411MD1210161+9999OA149900151REMSYN088AAXX  12074 06760 33/// /3301 10031 20001 39741 40199 52016 333 55300 20000 91103 91202;
0087067600999992011011208004+46167+008783FM-12+038099999V0209999C000019999999N9999999N1+00281+00081102061ADDMA1999999097471REMSYN060AAXX  12084 06760 43/// /0000 10028 20008 39747 40206 5////;
0151067600999992011011209004+46167+008783FM-12+038099999V0209999C000019999999N0400001N1+00531+00151102031ADDGA1011+030001031GF106991011001999999031091MA1999999097481REMSYN082AAXX  12094 06760 42982 60000 10053 20015 39748 40203 5//// 81039 333 81360 85272;
0140067600999992011011210004+46167+008783FM-12+038099999V0202401N000519999999N9999999N1+00601+00211102091ADDMA1999999097551MD1219999+9999OA149900151REMSYN088AAXX  12104 06760 33/// /2401 10060 20021 39755 40209 52/// 333 55307 20702 91103 91202;
0117067600999992011011211004+46167+008783FM-12+038099999V0200801N000519999999N9999999N1+00631+00281102091ADDMA1999999097561MD1210091+9999REMSYN076AAXX  12114 06760 33/// /0801 10063 20028 39756 40209 52009 333 55300 20767;
0151067600999992011011212004+46167+008783FM-12+038099999V0201301N001019999999N0400001N1+00771+00271102011ADDGA1011+030001031GF105991011001999999031081MA1999999097501REMSYN082AAXX  12124 06760 42982 51302 10077 20027 39750 40201 5//// 81038 333 81360 85272;
0087067600999992011011213004+46167+008783FM-12+038099999V0201601N001019999999N9999999N1+00951+00311101941ADDMA1999999097471REMSYN060AAXX  12134 06760 43/// /1602 10095 20031 39747 40194 5////;
0087067600999992011011214004+46167+008783FM-12+038099999V0201801N000519999999N9999999N1+00921+00231101971ADDMA1999999097491REMSYN060AAXX  12144 06760 43/// /1801 10092 20023 39749 40197 5////;
0151067600999992011011215004+46167+008783FM-12+038099999V0202401N000512200019N0400001N1+00861+00211102001ADDGA1021+030001031GF104991021001999999031081MA1999999097511REMSYN082AAXX  12154 06760 42982 42401 10086 20021 39751 40200 5//// 82038 333 82360 84272;
0140067600999992011011216004+46167+008783FM-12+038099999V0200501N000519999999N9999999N1+00811+00191102061ADDMA1999999097561MD1210091+9999OA149900211REMSYN088AAXX  12164 06760 33/// /0501 10081 20019 39756 40206 52009 333 55302 20144 91104 91202;
0140067600999992011011217004+46167+008783FM-12+038099999V0200501N000519999999N9999999N1+00711+00171102151ADDMA1999999097631MD1210141+9999OA149900101REMSYN088AAXX  12174 06760 33/// /0501 10071 20017 39763 40215 52014 333 55300 20000 91102 91201;
0269067600999992011011218004+46167+008783FM-12+038099999V0200201N00101060001CN0400001N1+00651+00121102161ADDAL19900091GA1021+015001061GA2051+060001021GF105991021051017501001061IA1099KA1120M+00991MA1999999097631MD1210121+9999OA149900261REMSYN130AAXX  12184 06760 32782 50202 10065 20012 39763 40216 52012 82506 333 10099 31/// 55300 20000 82650 85270 90766 93100 91105 91203;
0140067600999992011011219004+46167+008783FM-12+038099999V0203001N000519999999N9999999N1+00551+00081102211ADDMA1999999097661MD1210101+9999OA149900151REMSYN088AAXX  12194 06760 33/// /3001 10055 20008 39766 40221 52010 333 55300 20000 91103 91202;
0140067600999992011011220004+46167+008783FM-12+038099999V0203001N000519999999N9999999N1+00531+00051102241ADDMA1999999097691MD1210061+9999OA149900151REMSYN088AAXX  12204 06760 33/// /3001 10053 20005 39769 40224 52006 333 55300 20000 91103 91202;
0140067600999992011011221004+46167+008783FM-12+038099999V0200201N000519999999N9999999N1+00551+00011102231ADDMA1999999097681MD1210051+9999OA149900151REMSYN088AAXX  12214 06760 33/// /0201 10055 20001 39768 40223 52005 333 55300 20000 91103 91202;
0140067600999992011011222004+46167+008783FM-12+038099999V0200401N001019999999N9999999N1+00481+00041102241ADDMA1999999097681MD1010021+9999OA149900211REMSYN088AAXX  12224 06760 33/// /0402 10048 20004 39768 40224 50002 333 55300 20000 91104 91203;
0140067600999992011011223004+46167+008783FM-12+038099999V0202801N000519999999N9999999N1+00461+00021102241ADDMA1999999097671MD1810021+9999OA149900211REMSYN088AAXX  12234 06760 33/// /2801 10046 20002 39767 40224 58002 333 55300 20000 91104 91203;
0140067600999992011011300004+46167+008783FM-12+038099999V0200501N000519999999N9999999N1+00491+00011102181ADDMA1999999097621MD1810061+9999OA149900211REMSYN088AAXX  13004 06760 33/// /0501 10049 20001 39762 40218 58006 333 55300 20000 91104 91203;
0140067600999992011011301004+46167+008783FM-12+038099999V0200401N000519999999N9999999N1+00431+00011102151ADDMA1999999097581MD1810101+9999OA149900151REMSYN088AAXX  13014 06760 33/// /0401 10043 20001 39758 40215 58010 333 55300 20000 91103 91202;
0140067600999992011011302004+46167+008783FM-12+038099999V0203501N000519999999N9999999N1+00431+00021102171ADDMA1999999097601MD1519999+9999OA149900151REMSYN088AAXX  13024 06760 33/// /3501 10043 20002 39760 40217 55/// 333 55300 20000 91103 91201;
0087067600999992011011303004+46167+008783FM-12+038099999V0203101N000519999999N9999999N1+00391+00031102101ADDMA1999999097531REMSYN060AAXX  13034 06760 43/// /3101 10039 20003 39753 40210 5////;
0140067600999992011011304004+46167+008783FM-12+038099999V0200601N000519999999N9999999N1+00391+00051102041ADDMA1999999097471MD1719999+9999OA149900151REMSYN088AAXX  13044 06760 33/// /0601 10039 20005 39747 40204 57/// 333 55300 20000 91103 91202;
0103067600999992011011305004+46167+008783FM-12+038099999V0200201N000519999999N9999999N1+00431+00051102021ADDMA1999999097461REMSYN076AAXX  13054 06760 33/// /0201 10043 20005 39746 40202 5//// 333 553// 20000;
0279067600999992011011306004+46167+008783FM-12+038099999V0202901N000512200019N0150001N1+00341+00051102031ADDAL19900091GA1021+018001061GF102991021051017501001999GJ103069IA1099IA2999+00109KA1999N+00351MA1999999097451MD1710081+9999OA149900211REMSYN136AAXX  13064 06760 32765 22901 10034 20005 39745 40203 57008 8250/ 333 20035 31001 55051 55300 20000 70000 82656 90768 93100 91104 91203;
0087067600999992011011307004+46167+008783FM-12+038099999V0200601N000519999999N9999999N1+00381+00061102041ADDMA1999999097471REMSYN060AAXX  13074 06760 43/// /0601 10038 20006 39747 40204 5////;
0087067600999992011011308004+46167+008783FM-12+038099999V0200201N000519999999N9999999N1+00371+00081102051ADDMA1999999097481REMSYN060AAXX  13084 06760 43/// /0201 10037 20008 39748 40205 5////;
0151067600999992011011309004+46167+008783FM-12+038099999V0209999C000012200019N0300001N1+00491+00181102021ADDGA1011+018001061GF104991011051017501001081MA1999999097471REMSYN082AAXX  13094 06760 42780 40000 10049 20018 39747 40202 5//// 81508 333 81656 84273;
0087067600999992011011310004+46167+008783FM-12+038099999V0201701N000519999999N9999999N1+00721+00251101961ADDMA1999999097451REMSYN060AAXX  13104 06760 43/// /1701 10072 20025 39745 40196 5////;
0087067600999992011011311004+46167+008783FM-12+038099999V0201701N000519999999N9999999N1+00741+00321101871ADDMA1999999097371REMSYN060AAXX  13114 06760 43/// /1701 10074 20032 39737 40187 5////;
0151067600999992011011312004+46167+008783FM-12+038099999V0201601N001012200019N0250001N1+00971+00371101711ADDGA1011+018001061GF104991011051017501041081MA1999999097251REMSYN082AAXX  13124 06760 42775 41602 10097 20037 39725 40171 5//// 81548 333 81656 84273;
0087067600999992011011313004+46167+008783FM-12+038099999V0201501N001019999999N9999999N1+00981+00371101651ADDMA1999999097191REMSYN060AAXX  13134 06760 43/// /1502 10098 20037 39719 40165 5////;
0087067600999992011011314004+46167+008783FM-12+038099999V0201801N000519999999N9999999N1+00881+00321101671ADDMA1999999097201REMSYN060AAXX  13144 06760 43/// /1801 10088 20032 39720 40167 5////;
0151067600999992011011315004+46167+008783FM-12+038099999V0201701N000512200019N0300001N1+00901+00281101661ADDGA1041+018001061GF104991011051017501041091MA1999999097191REMSYN082AAXX  13154 06760 42780 41701 10090 20028 39719 40166 5//// 81549 333 84656 84272;
0087067600999992011011316004+46167+008783FM-12+038099999V0200601N000519999999N9999999N1+00871+00341101731ADDMA1999999097251REMSYN060AAXX  13164 06760 43/// /0601 10087 20034 39725 40173 5////;
0140067600999992011011317004+46167+008783FM-12+038099999V0200401N001519999999N9999999N1+00841+00371101781ADDMA1999999097301MD1210101+9999OA149900211REMSYN088AAXX  13174 06760 33/// /0403 10084 20037 39730 40178 52010 333 55300 20000 91104 91203;
0247067600999992011011318004+46167+008783FM-12+038099999V0200401N001012200019N0400001N1+00861+00301101801ADDAL19900091GA1011+018001061GF101991011051017501001001IA1099KA1120M+01031MA1999999097321MD1210131+9999OA149900621REMSYN124AAXX  13184 06760 32782 10402 10086 20030 39732 40180 52013 81500 333 10103 31/// 55300 20000 81656 90766 93100 91112 91204;
0140067600999992011011319004+46167+008783FM-12+038099999V0200201N000519999999N9999999N1+00881+00301101811ADDMA1999999097331MD1210081+9999OA149900361REMSYN088AAXX  13194 06760 33/// /0201 10088 20030 39733 40181 52008 333 55300 20000 91107 91204;
0140067600999992011011320004+46167+008783FM-12+038099999V0203501N001019999999N9999999N1+00931+00271101831ADDMA1999999097361MD1210061+9999OA149900311REMSYN088AAXX  13204 06760 33/// /3502 10093 20027 39736 40183 52006 333 55300 20000 91106 91203;
0140067600999992011011321004+46167+008783FM-12+038099999V0209999C000019999999N9999999N1+00991+00211101831ADDMA1999999097371MD1210051+9999OA149900361REMSYN088AAXX  13214 06760 33/// /0000 10099 20021 39737 40183 52005 333 55300 20000 91107 91204;
0140067600999992011011322004+46167+008783FM-12+038099999V0203001N000519999999N9999999N1+00871+00231101861ADDMA1999999097381MD1210051+9999OA149900151REMSYN088AAXX  13224 06760 33/// /3001 10087 20023 39738 40186 52005 333 55300 20000 91103 91202;
0140067600999992011011323004+46167+008783FM-12+038099999V0200401N001019999999N9999999N1+00941+00221101851ADDMA1999999097381MD1210021+9999OA149900211REMSYN088AAXX  13234 06760 33/// /0402 10094 20022 39738 40185 52002 333 55300 20000 91104 91202;
0140067600999992011011400004+46167+008783FM-12+038099999V0200401N001019999999N9999999N1+00951+00211101831ADDMA1999999097361MD1010011+9999OA149900361REMSYN088AAXX  14004 06760 33/// /0402 10095 20021 39736 40183 50001 333 55300 20000 91107 91204;
0140067600999992011011401004+46167+008783FM-12+038099999V0202801N000519999999N9999999N1+00891+00221101851ADDMA1999999097371MD1710011+9999OA149900261REMSYN088AAXX  14014 06760 33/// /2801 10089 20022 39737 40185 57001 333 55300 20000 91105 91203;
0103067600999992011011402004+46167+008783FM-12+038099999V0200101N001019999999N9999999N1+00901+00221101881ADDMA1999999097401REMSYN076AAXX  14024 06760 33/// /0102 10090 20022 39740 40188 5//// 333 553// 20000;
0140067600999992011011403004+46167+008783FM-12+038099999V0200201N000519999999N9999999N1+00801+00251101921ADDMA1999999097421MD1210061+9999OA149900261REMSYN088AAXX  14034 06760 33/// /0201 10080 20025 39742 40192 52006 333 55300 20000 91105 91203;
0140067600999992011011404004+46167+008783FM-12+038099999V0200501N000519999999N9999999N1+00831+00241101881ADDMA1999999097391MD1010021+9999OA149900211REMSYN088AAXX  14044 06760 33/// /0501 10083 20024 39739 40188 50002 333 55300 20000 91104 91203;
0140067600999992011011405004+46167+008783FM-12+038099999V0209999C000019999999N9999999N1+00841+00231101901ADDMA1999999097411MD1510011+9999OA149900211REMSYN088AAXX  14054 06760 33/// /0000 10084 20023 39741 40190 55001 333 55300 20000 91104 91202;
0267067600999992011011406004+46167+008783FM-12+038099999V0209999C000012200019N0250001N1+00791+00221101951ADDAL19900091GA1001+999999999GF100991001001999999001001GJ104209IA1099IA2999+00409KA1999N+00781MA1999999097451MD1310031+9999OA149900311REMSYN124AAXX  14064 06760 32975 00000 10079 20022 39745 40195 53003 333 20078 31004 55070 55300 20000 70000 90768 93100 91106 91203;
0140067600999992011011407004+46167+008783FM-12+038099999V0209999C000019999999N9999999N1+00811+00231101981ADDMA1999999097481MD1310091+9999OA149900211REMSYN088AAXX  14074 06760 33/// /0000 10081 20023 39748 40198 53009 333 55300 20000 91104 91202;
0087067600999992011011408004+46167+008783FM-12+038099999V0209999C000019999999N9999999N1+00671+00281102051ADDMA1999999097531REMSYN060AAXX  14084 06760 43/// /0000 10067 20028 39753 40205 5////;
0173067600999992011011409004+46167+008783FM-12+038099999V0209999C000010720019N0250001N1+00711+00381102091ADDGA1051+072001001GF105991001001999999001021GG1079031009009999MA1999999097571REMSYN086AAXX  14094 06760 42975 50000 10071 20038 39757 40209 5//// 80002 333 85074 444 67031;
0087067600999992011011410004+46167+008783FM-12+038099999V0202101N000519999999N9999999N1+00741+00391102091ADDMA1999999097581REMSYN060AAXX  14104 06760 43/// /2101 10074 20039 39758 40209 5////;
0140067600999992011011411004+46167+008783FM-12+038099999V0201901N000519999999N9999999N1+00381+00311102151ADDMA1999999097571MD1010041+9999OA149900151REMSYN088AAXX  14114 06760 33/// /1901 10038 20031 39757 40215 50004 333 55307 2//// 91103 91201;
0210067600999992011011412004+46167+008783FM-12+038099999V0202201N001010001519N0001001N1+00321+00271102111ADDAY141061AY211061GA1091+999999999GF109991091999999999999999MA1999999097531MD1710041+9999MW1451OA149900261REMSYN094AAXX  14124 06760 31/01 92202 10032 20027 39753 40211 57004 74541 333 55300 20626 91105 91203;
0140067600999992011011413004+46167+008783FM-12+038099999V0201901N000519999999N9999999N1+00291+00251102081ADDMA1999999097491MD1810091+9999OA149900261REMSYN088AAXX  14134 06760 33/// /1901 10029 20025 39749 40208 58009 333 55300 20745 91105 91202;
0103067600999992011011414004+46167+008783FM-12+038099999V0202101N000519999999N9999999N1+00261+00251102071ADDMA1999999097481REMSYN076AAXX  14144 06760 33/// /2101 10026 20025 39748 40207 5//// 333 553// 20655;
0229067600999992011011415004+46167+008783FM-12+038099999V0202301N001010001519N0000001N1+00251+00251102131ADDAY141031AY241031GA1091+999999999GF109991091999999999999999MA1999999097531MD1310021+9999MW1471OA149900261REMSYN094AAXX  14154 06760 31/00 92302 10025 20025 39753 40213 53000 74744 333 55300 20263 91105 91202;EQDQ01+000002APC3  
0140067600999992011011416004+46167+008783FM-12+038099999V0209999C000019999999N9999999N1+00201+00201102131ADDMA1999999097531MD1210041+9999OA149900151REMSYN088AAXX  14164 06760 33/// /0000 10020 20020 39753 40213 52004 333 55300 20065 91103 91202;
0140067600999992011011417004+46167+008783FM-12+038099999V0200401N000519999999N9999999N1+00231+00231102201ADDMA1999999097601MD1210121+9999OA149900151REMSYN088AAXX  14174 06760 33/// /0401 10023 20023 39760 40220 52012 333 55300 20000 91103 91202;
0263067600999992011011418004+46167+008783FM-12+038099999V0200601N000510001519N0000001N1+00221+00221102231ADDAL19900091AY141061AY241061GA1091+999999999GF109991091999999999999999IA1099KA1120M+00831MA1999999097621MD1210091+9999MW1451OA149900261REMSYN118AAXX  14184 06760 31/00 90601 10022 20022 39762 40223 52009 74544 333 10083 31/// 55300 20000 90766 93100 91105 91202;
0140067600999992011011419004+46167+008783FM-12+038099999V0202401N000519999999N9999999N1+00251+00251102221ADDMA1999999097621MD1010091+9999OA149900151REMSYN088AAXX  14194 06760 33/// /2401 10025 20025 39762 40222 50009 333 55300 20000 91103 91201;
0159067600999992011011420004+46167+008783FM-12+038099999V0201501N000519999999N9999999N1+00231+00231102201ADDMA1999999097601MD1410001+9999OA149900151REMSYN088AAXX  14204 06760 33/// /1501 10023 20023 39760 40220 58000 333 55300 20000 91103 91202;EQDQ01+000082APCTEN
0140067600999992011011421004+46167+008783FM-12+038099999V0202601N000519999999N9999999N1+00201+00191102221ADDMA1999999097611MD1710011+9999OA149900151REMSYN088AAXX  14214 06760 33/// /2601 10020 20019 39761 40222 57001 333 55300 20000 91103 91202;
0140067600999992011011422004+46167+008783FM-12+038099999V0209999C000019999999N9999999N1+00211+00211102221ADDMA1999999097611MD1510011+9999OA149900151REMSYN088AAXX  14224 06760 33/// /0000 10021 20021 39761 40222 55001 333 55300 20000 91103 91201;
0140067600999992011011423004+46167+008783FM-12+038099999V0209999C000019999999N9999999N1+00161+00161102211ADDMA1999999097601MD1010001+9999OA149900151REMSYN088AAXX  14234 06760 33/// /0000 10016 20016 39760 40221 50000 333 55300 20000 91103 91201;
0140067600999992011011500004+46167+008783FM-12+038099999V0202401N001019999999N9999999N1+00181+00181102191ADDMA1999999097581MD1710031+9999OA149900261REMSYN088AAXX  15004 06760 33/// /2402 10018 20018 39758 40219 57003 333 55300 20000 91105 91202;
0140067600999992011011501004+46167+008783FM-12+038099999V0200901N001019999999N9999999N1+00161+00161102241ADDMA1999999097621MD1210011+9999OA149900261REMSYN088AAXX  15014 06760 33/// /0902 10016 20016 39762 40224 52001 333 55300 20000 91105 91202;
0140067600999992011011502004+46167+008783FM-12+038099999V0201001N000519999999N9999999N1+00071+00071102241ADDMA1999999097611MD1219999+9999OA149900511REMSYN088AAXX  15024 06760 33/// /1001 10007 20007 39761 40224 52/// 333 55300 20000 91110 91205;
0103067600999992011011503004+46167+008783FM-12+038099999V0203301N001019999999N9999999N1+00371+00201102191ADDMA1999999097611REMSYN076AAXX  15034 06760 33/// /3302 10037 20020 39761 40219 5//// 333 553// 20000;
0140067600999992011011504004+46167+008783FM-12+038099999V0200201N000519999999N9999999N1+00421+00211102191ADDMA1999999097621MD1010001+9999OA149900361REMSYN088AAXX  15044 06760 33/// /0201 10042 20021 39762 40219 50000 333 55300 20000 91107 91205;
0140067600999992011011505004+46167+008783FM-12+038099999V0203501N000519999999N9999999N1+00321+00171102241ADDMA1999999097651MD1210041+9999OA149900261REMSYN088AAXX  15054 06760 33/// /3501 10032 20017 39765 40224 52004 333 55300 20000 91105 91203;
0305067600999992011011506004+46167+008783FM-12+038099999V0200201N001012200019N0400001N1+00561+00131102191ADDAL19900091AY141061AY201061GA1001+999999999GF100991001001999999001001GJ101509IA1099IA2999+00109KA1999N+00071MA1999999097641MD1210031+9999MW1021OA149900511REMSYN140AAXX  15064 06760 31982 00202 10056 20013 39764 40219 52003 70240 333 20007 31001 55025 55300 20000 70000 90768 93100 91110 91205 444 17033;
0140067600999992011011507004+46167+008783FM-12+038099999V0200601N001519999999N9999999N1+00351+00141102321ADDMA1999999097731MD1210111+9999OA149900311REMSYN088AAXX  15074 06760 33/// /0603 10035 20014 39773 40232 52011 333 55300 20000 91106 91203;
0140067600999992011011508004+46167+008783FM-12+038099999V0200101N000519999999N9999999N1+00551+00051102361ADDMA1999999097801MD1219999+9999OA149900311REMSYN088AAXX  15084 06760 33/// /0101 10055 20005 39780 40236 52/// 333 55300 20047 91106 91203;
0222067600999992011011509004+46167+008783FM-12+038099999V0201201N001012200019N0400001N1+00741+00361102371ADDGA1011+066001001GF101991001001999999001011GG1079024009009999MA1999999097841MD1210201+9999OA149900311REMSYN110AAXX  15094 06760 32982 11202 10074 20036 39784 40237 52020 80001 333 55308 20558 81072 91106 91203 444 37024;
0140067600999992011011510004+46167+008783FM-12+038099999V0202201N001019999999N9999999N1+00841+00281102391ADDMA1999999097881MD1210151+9999OA149900311REMSYN088AAXX  15104 06760 33/// /2202 10084 20028 39788 40239 52015 333 553// 2//// 91106 91203;
0140067600999992011011511004+46167+008783FM-12+038099999V0201001N000519999999N9999999N1+00881+00361102381ADDMA1999999097881MD1210081+9999OA149900311REMSYN088AAXX  15114 06760 33/// /1001 10088 20036 39788 40238 52008 333 553// 2//// 91106 91202;
0194067600999992011011512004+46167+008783FM-12+038099999V0201901N000512200019N0300001N1+00991+00221102361ADDGA1021+066001001GF102991001001999999001011MA1999999097871MD1010031+9999OA149900511REMSYN100AAXX  15124 06760 32980 21901 10099 20022 39787 40236 50003 80001 333 553// 2//// 82072 91110 91205;
0103067600999992011011513004+46167+008783FM-12+038099999V0201501N000519999999N9999999N1+00931+00371102371ADDMA1999999097871REMSYN076AAXX  15134 06760 33/// /1501 10093 20037 39787 40237 5//// 333 553// 2////;
0087067600999992011011514004+46167+008783FM-12+038099999V0201701N000519999999N9999999N1+00981+00421102411ADDMA1999999097921REMSYN060AAXX  15144 06760 43/// /1701 10098 20042 39792 40241 5////;
0173067600999992011011515004+46167+008783FM-12+038099999V0201101N000510600019N0100001N1+00901+00431102491ADDAY111031AY211031GA1061+060001001GF106991001001999999001021MA1999999097981MW1051REMSYN082AAXX  15154 06760 41960 61101 10090 20043 39798 40249 5//// 70511 80002 333 86070;
0087067600999992011011516004+46167+008783FM-12+038099999V0200601N000519999999N9999999N1+00851+00391102571ADDMA1999999098051REMSYN060AAXX  15164 06760 43/// /0601 10085 20039 39805 40257 5////;
0103067600999992011011517004+46167+008783FM-12+038099999V0200101N000519999999N9999999N1+00901+00101102631ADDMA1999999098121REMSYN076AAXX  15174 06760 33/// /0101 10090 20010 39812 40263 5//// 333 553// 20000;
0198067600999992011011518004+46167+008783FM-12+038099999V0203001N000512200019N0400001N1+00851-00071102701ADDAL10600091GA1021+066001001GF102991001001999999001011IA1099KA1120M+01091MA1999999098181REMSYN100AAXX  15184 06760 42982 23001 10085 21007 39818 40270 5//// 80001 333 10109 31/// 82072 90766 93100;
0087067600999992011011519004+46167+008783FM-12+038099999V0203201N000519999999N9999999N1+00791+00071102801ADDMA1999999098261REMSYN060AAXX  15194 06760 43/// /3201 10079 20007 39826 40280 5////;
0087067600999992011011520004+46167+008783FM-12+038099999V0203501N000519999999N9999999N1+00741+00001102851ADDMA1999999098301REMSYN060AAXX  15204 06760 43/// /3501 10074 20000 39830 40285 5////;
0140067600999992011011521004+46167+008783FM-12+038099999V0209999C000019999999N9999999N1+00671+00101102911ADDMA1999999098351MD1110171+9999OA149900261REMSYN088AAXX  15214 06760 33/// /0000 10067 20010 39835 40291 51017 333 55300 20000 91105 91203;
0140067600999992011011522004+46167+008783FM-12+038099999V0200301N000519999999N9999999N1+00431+00181102971ADDMA1999999098371MD1110111+9999OA149900211REMSYN088AAXX  15224 06760 33/// /0301 10043 20018 39837 40297 51011 333 55300 20000 91104 91202;
0140067600999992011011523004+46167+008783FM-12+038099999V0209999C000019999999N9999999N1+00471-00011102971ADDMA1999999098371MD1210071+9999OA149900211REMSYN088AAXX  15234 06760 33/// /0000 10047 21001 39837 40297 52007 333 55300 20000 91104 91202;
0140067600999992011011600004+46167+008783FM-12+038099999V0209999C000019999999N9999999N1+00521-00031102951ADDMA1999999098361MD1010011+9999OA149900261REMSYN088AAXX  16004 06760 33/// /0000 10052 21003 39836 40295 50001 333 55300 20000 91105 91203;
0140067600999992011011601004+46167+008783FM-12+038099999V0203001N000519999999N9999999N1+00581-00131102951ADDMA1999999098371MD1010001+9999OA149900151REMSYN088AAXX  16014 06760 33/// /3001 10058 21013 39837 40295 50000 333 55300 20000 91103 91202;
0140067600999992011011602004+46167+008783FM-12+038099999V0200401N000519999999N9999999N1+00521-00111102991ADDMA1999999098401MD1319999+9999OA149900151REMSYN088AAXX  16024 06760 33/// /0401 10052 21011 39840 40299 53/// 333 55300 20000 91103 91201;
0087067600999992011011603004+46167+008783FM-12+038099999V0200701N000519999999N9999999N1+00151+00021103091ADDMA1999999098431REMSYN060AAXX  16034 06760 43/// /0701 10015 20002 39843 40309 5////;
0140067600999992011011604004+46167+008783FM-12+038099999V0202601N000519999999N9999999N1+00191-00031103101ADDMA1999999098451MD1210081+9999OA149900101REMSYN088AAXX  16044 06760 33/// /2601 10019 21003 39845 40310 52008 333 55300 20000 91102 91201;
0140067600999992011011605004+46167+008783FM-12+038099999V0209999C000019999999N9999999N1+00121+00121103161ADDMA1999999098501MD1310101+9999OA149900151REMSYN088AAXX  16054 06760 33/// /0000 10012 20012 39850 40316 53010 333 55300 20000 91103 91202;
0295067600999992011011606004+46167+008783FM-12+038099999V0209999C000012200019N0002001N1+00061+00061103211ADDAL19900091AY141061AY201061GA1001+999999999GF100991001001999999001001GJ104329IA1099IA2999-00209KA1999N+00091MA1999999098531MD1310101+9999MW1461OA149900211REMSYN130AAXX  16064 06760 31902 00000 10006 20006 39853 40321 53010 74640 333 20009 31102 55072 55300 20000 70000 90768 93100 91104 91202;
0140067600999992011011607004+46167+008783FM-12+038099999V0209999C000019999999N9999999N1+00231-00081103191ADDMA1999999098541MD1110091+9999OA149900211REMSYN088AAXX  16074 06760 33/// /0000 10023 21008 39854 40319 51009 333 55300 20000 91104 91202;
0140067600999992011011608004+46167+008783FM-12+038099999V0200301N000519999999N9999999N1+00431-00131103151ADDMA1999999098541MD1219999+9999OA149900211REMSYN088AAXX  16084 06760 33/// /0301 10043 21013 39854 40315 52/// 333 55300 20047 91104 91202;
0232067600999992011011609004+46167+008783FM-12+038099999V0200701N000512200019N0250001N1+00531+00221103171ADDAY141031AY201031GA1011+066001001GF101991001001999999001011MA1999999098571MD1210041+9999MW1021OA149900211REMSYN116AAXX  16094 06760 31975 10701 10053 20022 39857 40317 52004 70240 80001 333 55308 20572 81072 91104 91202 444 67024;
0140067600999992011011610004+46167+008783FM-12+038099999V0201601N000519999999N9999999N1+00631+00151103141ADDMA1999999098561MD1210021+9999OA149900151REMSYN088AAXX  16104 06760 33/// /1601 10063 20015 39856 40314 52002 333 553// 2//// 91103 91202;
0175067600999992011011611004+46167+008783FM-12+038099999V0201801N000519999999N9999999N1+00811+00141103091ADDMA1999999098541MD1710061+9999OA149900211REMSYN088AAXX  16114 06760 33/// /1801 10081 20014 39854 40309 58000 333 553// 2//// 91104 91201;EQDQ01+000082APCTENQ02+000002APC3  
0210067600999992011011612004+46167+008783FM-12+038099999V0201601N000512200019N0200001N1+00921+00211103031ADDAY141061AY201061GA1001+999999999GF100991001001999999001001MA1999999098501MD1810071+9999MW1021OA149900211REMSYN094AAXX  16124 06760 31970 01601 10092 20021 39850 40303 58007 70240 333 553// 2//// 91104 91202;
0140067600999992011011613004+46167+008783FM-12+038099999V0201701N001019999999N9999999N1+00791+00141103001ADDMA1999999098451MD1810111+9999OA149900151REMSYN088AAXX  16134 06760 33/// /1702 10079 20014 39845 40300 58011 333 553// 2//// 91103 91202;
0140067600999992011011614004+46167+008783FM-12+038099999V0201801N000519999999N9999999N1+00871+00251102961ADDMA1999999098431MD1619999+9999OA149900151REMSYN088AAXX  16144 06760 33/// /1801 10087 20025 39843 40296 56/// 333 553// 2//// 91103 91202;
0210067600999992011011615004+46167+008783FM-12+038099999V0201801N000512200019N0140001N1+00801+00321102991ADDAY101031AY201031GA1001+999999999GF100991001001999999001001MA1999999098451MD1510051+9999MW1051OA149900211REMSYN094AAXX  16154 06760 31964 01801 10080 20032 39845 40299 55005 70500 333 553// 20684 91104 91202;
0140067600999992011011616004+46167+008783FM-12+038099999V0209999C000019999999N9999999N1+00741+00201103011ADDMA1999999098461MD1310011+9999OA149900101REMSYN088AAXX  16164 06760 33/// /0000 10074 20020 39846 40301 53001 333 55304 20151 91102 91201;
0140067600999992011011617004+46167+008783FM-12+038099999V0200501N000519999999N9999999N1+00741+00051103071ADDMA1999999098511MD1210081+9999OA149900101REMSYN088AAXX  16174 06760 33/// /0501 10074 20005 39851 40307 52008 333 55300 20004 91102 91201;
0235067600999992011011618004+46167+008783FM-12+038099999V0209999C000012200019N0300001N1+00621+00031103141ADDAL19900091GA1001+999999999GF100991001001999999001001IA1099KA1120M+00921MA1999999098561MD1310111+9999OA149900211REMSYN112AAXX  16184 06760 32980 00000 10062 20003 39856 40314 53011 333 10092 31/// 55300 20000 90766 93100 91104 91202;
0140067600999992011011619004+46167+008783FM-12+038099999V0209999C000019999999N9999999N1+00591+00011103171ADDMA1999999098581MD1210121+9999OA149900101REMSYN088AAXX  16194 06760 33/// /0000 10059 20001 39858 40317 52012 333 55300 20000 91102 91201;
0140067600999992011011620004+46167+008783FM-12+038099999V0200401N000519999999N9999999N1+00551+00041103181ADDMA1999999098591MD1210081+9999OA149900151REMSYN088AAXX  16204 06760 33/// /0401 10055 20004 39859 40318 52008 333 55300 20000 91103 91202;
0140067600999992011011621004+46167+008783FM-12+038099999V0209999C000019999999N9999999N1+00641+00011103171ADDMA1999999098591MD1010031+9999OA149900151REMSYN088AAXX  16214 06760 33/// /0000 10064 20001 39859 40317 50003 333 55300 20000 91103 91202;
0140067600999992011011622004+46167+008783FM-12+038099999V0209999C000019999999N9999999N1+00491-00041103181ADDMA1999999098581MD1710011+9999OA149900151REMSYN088AAXX  16224 06760 33/// /0000 10049 21004 39858 40318 57000 333 55300 20000 91103 91202;
0140067600999992011011623004+46167+008783FM-12+038099999V0209999C000019999999N9999999N1+00631-00051103141ADDMA1999999098561MD1810031+9999OA149900151REMSYN088AAXX  16234 06760 33/// /0000 10063 21005 39856 40314 58003 333 55300 20000 91103 91202;
0140067600999992011011700004+46167+008783FM-12+038099999V0209999C000019999999N9999999N1+00611-00041103111ADDMA1999999098531MD1810061+9999OA149900151REMSYN088AAXX  17004 06760 33/// /0000 10061 21004 39853 40311 58006 333 55300 20000 91103 91202;
0140067600999992011011701004+46167+008783FM-12+038099999V0200401N001019999999N9999999N1+00471-00071103101ADDMA1999999098501MD1810081+9999OA149900151REMSYN088AAXX  17014 06760 33/// /0402 10047 21007 39850 40310 58008 333 55300 20000 91103 91202;
0140067600999992011011702004+46167+008783FM-12+038099999V0203101N000519999999N9999999N1+00501-00091103081ADDMA1999999098481MD1619999+9999OA149900151REMSYN088AAXX  17024 06760 33/// /3101 10050 21009 39848 40308 56/// 333 55300 20000 91103 91202;
0103067600999992011011703004+46167+008783FM-12+038099999V0203401N001019999999N9999999N1+00521-00091103031ADDMA1999999098441REMSYN076AAXX  17034 06760 33/// /3402 10052 21009 39844 40303 5//// 333 553// 20000;
0140067600999992011011704004+46167+008783FM-12+038099999V0209999C000019999999N9999999N1+00611-00131102981ADDMA1999999098411MD1710091+9999OA149900151REMSYN088AAXX  17044 06760 33/// /0000 10061 21013 39841 40298 57009 333 55300 20000 91103 91202;
0140067600999992011011705004+46167+008783FM-12+038099999V0200501N000519999999N9999999N1+00551-00151102961ADDMA1999999098381MD1710101+9999OA149900101REMSYN088AAXX  17054 06760 33/// /0501 10055 21015 39838 40296 57010 333 55300 20000 91102 91201;
0267067600999992011011706004+46167+008783FM-12+038099999V0203001N001012200019N0500001N1+00471-00161102961ADDAL19900091GA1001+999999999GF100991001001999999001001GJ104329IA1099IA2999+00009KA1999N+00471MA1999999098361MD1710081+9999OA149900211REMSYN124AAXX  17064 06760 32984 03002 10047 21016 39836 40296 57008 333 20047 31000 55072 55300 20000 70000 90768 93100 91104 91202;
0140067600999992011011707004+46167+008783FM-12+038099999V0200101N000519999999N9999999N1+00471-00151102981ADDMA1999999098381MD1510031+9999OA149900211REMSYN088AAXX  17074 06760 33/// /0101 10047 21015 39838 40298 55003 333 55300 20000 91104 91202;
0087067600999992011011708004+46167+008783FM-12+038099999V0200601N000519999999N9999999N1+00561-00161102951ADDMA1999999098371REMSYN060AAXX  17084 06760 43/// /0601 10056 21016 39837 40295 5////;
0145067600999992011011709004+46167+008783FM-12+038099999V0201001N001012200019N0300001N1+00711+00101102921ADDGA1021+057001001GF102991001001999999001011MA1999999098361REMSYN076AAXX  17094 06760 42980 21002 10071 20010 39836 40292 5//// 80001 333 82069;
0140067600999992011011710004+46167+008783FM-12+038099999V0201601N000519999999N9999999N1+00811+00161102901ADDMA1999999098361MD1710021+9999OA149900261REMSYN088AAXX  17104 06760 33/// /1601 10081 20016 39836 40290 57002 333 553// 20860 91105 91203;
0140067600999992011011711004+46167+008783FM-12+038099999V0201801N001019999999N9999999N1+00931+00151102831ADDMA1999999098311MD1710061+9999OA149900211REMSYN088AAXX  17114 06760 33/// /1802 10093 20015 39831 40283 57006 333 553// 2//// 91104 91203;
0194067600999992011011712004+46167+008783FM-12+038099999V0201601N001012200019N0300001N1+01021+00001102711ADDGA1011+057001021GF101991001001999999001081MA1999999098211MD1710151+9999OA149900261REMSYN100AAXX  17124 06760 32980 11602 10102 20000 39821 40271 57015 80008 333 553// 2//// 81269 91105 91203;
0140067600999992011011713004+46167+008783FM-12+038099999V0201701N000519999999N9999999N1+00981+00101102651ADDMA1999999098151MD1610211+9999OA149900211REMSYN088AAXX  17134 06760 33/// /1701 10098 20010 39815 40265 56021 333 553// 2//// 91104 91202;
0087067600999992011011714004+46167+008783FM-12+038099999V0201801N001019999999N9999999N1+00951-00071102621ADDMA1999999098121REMSYN060AAXX  17144 06760 43/// /1802 10095 21007 39812 40262 5////;
0129067600999992011011715004+46167+008783FM-12+038099999V0201201N001012200019N0300001N1+00891+00091102621ADDGA1001+999999999GF100991001001999999001001MA1999999098111REMSYN060AAXX  17154 06760 42980 01202 10089 20009 39811 40262 5////;
0140067600999992011011716004+46167+008783FM-12+038099999V0209999C000019999999N9999999N1+00831+00041102651ADDMA1999999098131MD1510021+9999OA149900151REMSYN088AAXX  17164 06760 33/// /0000 10083 20004 39813 40265 55002 333 55304 20162 91103 91202;
0140067600999992011011717004+46167+008783FM-12+038099999V0203301N000519999999N9999999N1+00691-00071102681ADDMA1999999098131MD1210011+9999OA149900151REMSYN088AAXX  17174 06760 33/// /3301 10069 21007 39813 40268 52001 333 55300 20004 91103 91202;
