0128067600999992010010100004+46167+008783FM-12+038099999V0209999C000019999999N9999999N1+00251+00251099421ADDMA1999999094961MD1810141+9999OA149900261REMSYN076AAXX  01004 06760 33/// /0000 10025 20025 39496 49942 58014 333 91105 91203;
0128067600999992010010101004+46167+008783FM-12+038099999V0201001N000519999999N9999999N1+00211+00211099381ADDMA1999999094921MD1710141+9999OA149900261REMSYN076AAXX  01014 06760 33/// /1001 10021 20021 39492 49938 57014 333 91105 91203;
0128067600999992010010102004+46167+008783FM-12+038099999V0200601N001019999999N9999999N1+00281+00231099341ADDMA1999999094891MD1619999+9999OA149900311REMSYN076AAXX  01024 06760 33/// /0602 10028 20023 39489 49934 56/// 333 91106 91204;
0087067600999992010010103004+46167+008783FM-12+038099999V0200401N001019999999N9999999N1+00351+00251099251ADDMA1999999094821REMSYN060AAXX  01034 06760 43/// /0402 10035 20025 39482 49925 5////;
0087067600999992010010104004+46167+008783FM-12+038099999V0200201N000519999999N9999999N1+00301+00251099171ADDMA1999999094731REMSYN060AAXX  01044 06760 33/// /0201 10030 20025 39473 49917 5////;
0128067600999992010010105004+46167+008783FM-12+038099999V0200501N002619999999N9999999N1+00461+00121099051ADDMA1999999094641MD1810251+9999OA149900461REMSYN076AAXX  01054 06760 33/// /0505 10046 20012 39464 49905 58025 333 91109 91205;
0323067600999992010010106004+46167+008783FM-12+038099999V0202701N000510570019N0180001N1+00381+00181099041ADDAA124000591AJ100019199999999AL19900091GA1031+021001031GA2061+057001001GF106991031001022501031021GJ100009IA1259IA2999+00109KA1999N+00211MA1999999094621MD1610201+9999OA149900461REMSYN136AAXX  01064 06760 32868 62701 10038 20018 39462 49904 56020 83032 333 20021 3/001 41001 55000 70006 83357 86069 90768 93100 91109 91205;
0128067600999992010010107004+46167+008783FM-12+038099999V0209999C000019999999N9999999N1+00281+00131099091ADDMA1999999094651MD1510081+9999OA149900261REMSYN076AAXX  01074 06760 33/// /0000 10028 20013 39465 49909 55008 333 91105 91202;
0128067600999992010010108004+46167+008783FM-12+038099999V0203201N000519999999N9999999N1+00401+00141099131ADDMA1999999094711MD1310071+9999OA149900211REMSYN076AAXX  01084 06760 33/// /3201 10040 20014 39471 49913 53007 333 91104 91201;
0204067600999992010010109004+46167+008783FM-12+038099999V0200501N001010180019N0250001N1+00461+00241099171ADDGA1011+000301071GA2081+018001061GF108991081051000251999999MA1999999094761MD1210141+9999OA149900461REMSYN094AAXX  01094 06760 32075 80502 10046 20024 39476 49917 52014 885// 333 81701 88656 91109 91205;
0128067600999992010010110004+46167+008783FM-12+038099999V0203001N000519999999N9999999N1+00491+00291099171ADDMA1999999094761MD1210111+9999OA149900261REMSYN076AAXX  01104 06760 33/// /3001 10049 20029 39476 49917 52011 333 91105 91203;
0128067600999992010010111004+46167+008783FM-12+038099999V0201001N000519999999N9999999N1+00541+00361099101ADDMA1999999094701MD1810011+9999OA149900211REMSYN076AAXX  01114 06760 33/// /1001 10054 20036 39470 49910 58001 333 91104 91202;
0226067600999992010010112004+46167+008783FM-12+038099999V0201201N000510450019N0250001N1+00661+00291099011ADDGA1011+018001061GA2031+027001031GA3061+045001001GF107991011051017501031021MA1999999094641MD1710121+9999OA149900461REMSYN100AAXX  01124 06760 32775 71201 10066 20029 39464 49901 57012 81532 333 81656 83359 86065 91109 91205;
0128067600999992010010113004+46167+008783FM-12+038099999V0209999C000019999999N9999999N1+00681+00231098991ADDMA1999999094621MD1610141+9999OA149900261REMSYN076AAXX  01134 06760 33/// /0000 10068 20023 39462 49899 56014 333 91105 91202;
0128067600999992010010114004+46167+008783FM-12+038099999V0201901N000519999999N9999999N1+00711+00291099001ADDMA1999999094641MD1519999+9999OA149900261REMSYN076AAXX  01144 06760 33/// /1901 10071 20029 39464 49900 55/// 333 91105 91202;
0226067600999992010010115004+46167+008783FM-12+038099999V0201601N000510570019N0300001N1+00571+00251099121ADDGA1011+015001061GA2031+033001041GA3061+057001001GF107991011051017501011021MA1999999094731MD1310091+9999OA149900261REMSYN100AAXX  01154 06760 32780 71601 10057 20025 39473 49912 53009 81512 333 81650 83461 86069 91105 91202;
0128067600999992010010116004+46167+008783FM-12+038099999V0203101N001019999999N9999999N1+00631+00081099191ADDMA1999999094801MD1210181+9999OA149900211REMSYN076AAXX  01164 06760 33/// /3102 10063 20008 39480 49919 52018 333 91104 91202;
0128067600999992010010117004+46167+008783FM-12+038099999V0203501N001019999999N9999999N1+00611+00161099251ADDMA1999999094861MD1119999+9999OA149900211REMSYN076AAXX  01174 06760 33/// /3502 10061 20016 39486 49925 51/// 333 91104 91203;
0257067600999992010010118004+46167+008783FM-12+038099999V0203101N000510570019N0250001N1+00551+00151099371ADDAL19900091GA1031+027001041GA2071+057001001GF107991031001999999011021IA1099KA1120M+00791MA1999999094961MD1310231+9999OA149900261REMSYN118AAXX  01184 06760 32975 73101 10055 20015 39496 49937 53023 83012 333 10079 31/// 83459 87069 90766 93100 91105 91203;
0128067600999992010010119004+46167+008783FM-12+038099999V0200501N001019999999N9999999N1+00531+00151099451ADDMA1999999095041MD1310241+9999OA149900151REMSYN076AAXX  01194 06760 33/// /0502 10053 20015 39504 49945 53024 333 91103 91202;
0128067600999992010010120004+46167+008783FM-12+038099999V0203501N001519999999N9999999N1+00451+00121099561ADDMA1999999095131MD1219999+9999OA149900211REMSYN076AAXX  01204 06760 33/// /3503 10045 20012 39513 49956 52/// 333 91104 91203;
0128067600999992010010121004+46167+008783FM-12+038099999V0203501N000519999999N9999999N1+00381+00061099681ADDMA1999999095231MD1310271+9999OA149900211REMSYN076AAXX  01214 06760 33/// /3501 10038 20006 39523 49968 53027 333 91104 91203;
0128067600999992010010122004+46167+008783FM-12+038099999V0200401N001019999999N9999999N1+00471+00071099711ADDMA1999999095281MD1110241+9999OA149900211REMSYN076AAXX  01224 06760 33/// /0402 10047 20007 39528 49971 51024 333 91104 91203;
0128067600999992010010123004+46167+008783FM-12+038099999V0203501N000519999999N9999999N1+00511-00011099771ADDMA1999999095341MD1210211+9999OA149900261REMSYN076AAXX  01234 06760 33/// /3501 10051 21001 39534 49977 52021 333 91105 91202;
0128067600999992010010200004+46167+008783FM-12+038099999V0200401N001519999999N9999999N1+00561-00141099811ADDMA1999999095391MD1210161+9999OA149900311REMSYN076AAXX  02004 06760 33/// /0403 10056 21014 39539 49981 52016 333 91106 91203;
0128067600999992010010201004+46167+008783FM-12+038099999V0203201N001019999999N9999999N1+00691-00351099871ADDMA1999999095461MD1210181+9999OA149900411REMSYN076AAXX  02014 06760 33/// /3202 10069 21035 39546 49987 52018 333 91108 91203;
0087067600999992010010202004+46167+008783FM-12+038099999V0200201N003119999999N9999999N1+00911-00711099911ADDMA1999999095541REMSYN060AAXX  02024 06760 33/// /0206 10091 21071 39554 49991 5////;
0128067600999992010010203004+46167+008783FM-12+038099999V0200201N005119999999N9999999N1+00911-00861099991ADDMA1999999095611MD1210221+9999OA149901181REMSYN076AAXX  02034 06760 33/// /0210 10091 21086 39561 49999 52022 333 91123 91210;
0128067600999992010010204004+46167+008783FM-12+038099999V0200201N004619999999N9999999N1+00871-00911100051ADDMA1999999095661MD1110201+9999OA149901241REMSYN076AAXX  02044 06760 33/// /0209 10087 21091 39566 40005 51020 333 91124 91210;
0128067600999992010010205004+46167+008783FM-12+038099999V0200101N002619999999N9999999N1+00781-01021100191ADDMA1999999095781MD1310241+9999OA149901241REMSYN076AAXX  02054 06760 33/// /0105 10078 21102 39578 40019 53024 333 91124 91210;
0297067600999992010010206004+46167+008783FM-12+038099999V0203101N002112200019N0600001N1+00721-01271100311ADDAA124000091AL19900091GA1021+030001031GF102991021001999999041001GJ100849IA1099IA2999+00209KA1999N+00381MA1999999095891MD1310281+9999OA149901241REMSYN124AAXX  02064 06760 32986 23104 10072 21127 39589 40031 53028 82040 333 20038 31002 55014 70000 82360 90768 93100 91124 91210;EQDQ01  00002PRCP24
0128067600999992010010207004+46167+008783FM-12+038099999V0202801N002619999999N9999999N1+00631-01381100421ADDMA1999999095981MD1110321+9999OA149900671REMSYN076AAXX  02074 06760 33/// /2805 10063 21138 39598 40042 51032 333 91113 91207;
0087067600999992010010208004+46167+008783FM-12+038099999V0203601N002119999999N9999999N1+00561-01561100601ADDMA1999999096141REMSYN060AAXX  02084 06760 33/// /3604 10056 21156 39614 40060 5////;
0182067600999992010010209004+46167+008783FM-12+038099999V0202501N002112200019N0600001N1+00631-01521100741ADDGA1011+021001081GF102991011011022501041001MA1999999096291MD1310401+9999OA149901241REMSYN088AAXX  02094 06760 32886 22504 10063 21152 39629 40074 53040 81140 333 81857 91124 91210;
0128067600999992010010210004+46167+008783FM-12+038099999V0202601N004119999999N9999999N1+00651-01511100901ADDMA1999999096441MD1210461+9999OA149901031REMSYN076AAXX  02104 06760 33/// /2608 10065 21151 39644 40090 52046 333 91120 91208;
0128067600999992010010211004+46167+008783FM-12+038099999V0202601N003119999999N9999999N1+00671-01591100921ADDMA1999999096461MD1210321+9999OA149901651REMSYN076AAXX  02114 06760 33/// /2606 10067 21159 39646 40092 52032 333 91132 91208;
0182067600999992010010212004+46167+008783FM-12+038099999V0201601N003112200019N0600001N1+00681-01551100921ADDGA1011+021001081GF101991011011022501001001MA1999999096471MD1210181+9999OA149901651REMSYN088AAXX  02124 06760 32886 11606 10068 21155 39647 40092 52018 81100 333 81857 91132 91210;
0128067600999992010010213004+46167+008783FM-12+038099999V0201901N002119999999N9999999N1+00521-01971101011ADDMA1999999096531MD1210091+9999OA149901601REMSYN076AAXX  02134 06760 33/// /1904 10052 21197 39653 40101 52009 333 91131 91207;
0128067600999992010010214004+46167+008783FM-12+038099999V0202101N002119999999N9999999N1+00561-01771101071ADDMA1999999096591MD1219999+9999OA149901541REMSYN076AAXX  02144 06760 33/// /2104 10056 21177 39659 40107 52/// 333 91130 91211;
0182067600999992010010215004+46167+008783FM-12+038099999V0201501N001012200019N0600001N1+00371-01871101231ADDGA1011+021001081GF102991011011022501011001MA1999999096711MD1210241+9999OA149901651REMSYN088AAXX  02154 06760 32886 21502 10037 21187 39671 40123 52024 81110 333 81857 91132 91211;
0128067600999992010010216004+46167+008783FM-12+038099999V0202101N000519999999N9999999N1+00301-02061101331ADDMA1999999096801MD1210271+9999OA149901601REMSYN076AAXX  02164 06760 33/// /2101 10030 21206 39680 40133 52027 333 91131 91210;
0128067600999992010010217004+46167+008783FM-12+038099999V0201801N002619999999N9999999N1+00231-01941101451ADDMA1999999096901MD1110311+9999OA149901341REMSYN076AAXX  02174 06760 33/// /1805 10023 21194 39690 40145 51031 333 91126 91208;
0235067600999992010010218004+46167+008783FM-12+038099999V0202501N000512200019N0600001N1+00231-01941101531ADDAL19900091GA1011+021001081GF101991011011022501001001IA1099KA1120M+00741MA1999999096981MD1210271+9999OA149901651REMSYN112AAXX  02184 06760 32886 12501 10023 21194 39698 40153 52027 81100 333 10074 31/// 81857 90766 93100 91132 91211;
0128067600999992010010219004+46167+008783FM-12+038099999V0202001N001019999999N9999999N1+00251-01941101661ADDMA1999999097101MD1310301+9999OA149901031REMSYN076AAXX  02194 06760 33/// /2002 10025 21194 39710 40166 53030 333 91120 91206;
0128067600999992010010220004+46167+008783FM-12+038099999V0200501N003119999999N9999999N1+00281-02041101681ADDMA1999999097131MD1110231+9999OA149901031REMSYN076AAXX  02204 06760 33/// /0506 10028 21204 39713 40168 51023 333 91120 91207;
0128067600999992010010221004+46167+008783FM-12+038099999V0200401N004119999999N9999999N1+00271-02041101721ADDMA1999999097161MD1210181+9999OA149901341REMSYN076AAXX  02214 06760 33/// /0408 10027 21204 39716 40172 52018 333 91126 91209;
0128067600999992010010222004+46167+008783FM-12+038099999V0200501N003119999999N9999999N1+00221-01961101721ADDMA1999999097161MD1210061+9999OA149901031REMSYN076AAXX  02224 06760 33/// /0506 10022 21196 39716 40172 52006 333 91120 91209;
0128067600999992010010223004+46167+008783FM-12+038099999V0200401N002119999999N9999999N1+00101-01651101841ADDMA1999999097251MD1210121+9999OA149900771REMSYN076AAXX  02234 06760 33/// /0404 10010 21165 39725 40184 52012 333 91115 91208;
0128067600999992010010300004+46167+008783FM-12+038099999V0200501N002119999999N9999999N1+00061-01631101901ADDMA1999999097301MD1210141+9999OA149901601REMSYN076AAXX  03004 06760 33/// /0504 10006 21163 39730 40190 52014 333 91131 91211;
0128067600999992010010301004+46167+008783FM-12+038099999V0200401N002619999999N9999999N1+00071-01701101921ADDMA1999999097321MD1210161+9999OA149900461REMSYN076AAXX  03014 06760 33/// /0405 10007 21170 39732 40192 52016 333 91109 91205;
0087067600999992010010302004+46167+008783FM-12+038099999V0200201N001519999999N9999999N1-00021-01611102001ADDMA1999999097381REMSYN060AAXX  03024 06760 33/// /0203 11002 21161 39738 40200 5////;
0087067600999992010010303004+46167+008783FM-12+038099999V0200201N002619999999N9999999N1+00011-01991102041ADDMA1999999097431REMSYN060AAXX  03034 06760 33/// /0205 10001 21199 39743 40204 5////;
0128067600999992010010304004+46167+008783FM-12+038099999V0200201N002119999999N9999999N1+00031-01761102031ADDMA1999999097421MD1210101+9999OA149900461REMSYN076AAXX  03044 06760 33/// /0204 10003 21176 39742 40203 52010 333 91109 91205;
0128067600999992010010305004+46167+008783FM-12+038099999V0200201N001519999999N9999999N1-00081-01661102101ADDMA1999999097471MD1219999+9999OA149900411REMSYN076AAXX  03054 06760 33/// /0203 11008 21166 39747 40210 52/// 333 91108 91205;
0297067600999992010010306004+46167+008783FM-12+038099999V0200401N001012200019N0500001N1-00091-01561102091ADDAA124000091AL19900091GA1021+066001021GF102991001001999999001051GJ104149IA1099IA2999-00409KA1999N-00081MA1999999097461MD1210031+9999OA149901031REMSYN124AAXX  03064 06760 32984 20402 11009 21156 39746 40209 52003 80005 333 21008 31104 55069 70000 82272 90768 93100 91120 91209;EQDQ01  00002PRCP24
0128067600999992010010307004+46167+008783FM-12+038099999V0200401N001019999999N9999999N1-00101-01511102171ADDMA1999999097531MD1210111+9999OA149900361REMSYN076AAXX  03074 06760 33/// /0402 11010 21151 39753 40217 52011 333 91107 91204;
0128067600999992010010308004+46167+008783FM-12+038099999V0200101N000519999999N9999999N1-00041-01561102221ADDMA1999999097591MD1219999+9999OA149900151REMSYN076AAXX  03084 06760 33/// /0101 11004 21156 39759 40222 52/// 333 91103 91202;
0204067600999992010010309004+46167+008783FM-12+038099999V0201301N000510390019N0500001N1-00021-01231102241ADDGA1041+030001031GA2031+039001041GF106991061001999999071001MA1999999097611MD1210151+9999OA149900411REMSYN094AAXX  03094 06760 32984 61301 11002 21123 39761 40224 52015 86070 333 84360 83463 91108 91205;
0128067600999992010010310004+46167+008783FM-12+038099999V0200701N001019999999N9999999N1+00001-01101102271ADDMA1999999097641MD1210111+9999OA149900211REMSYN076AAXX  03104 06760 33/// /0702 10000 21110 39764 40227 52011 333 91104 91203;
0128067600999992010010311004+46167+008783FM-12+038099999V0201301N000519999999N9999999N1+00071-01141102161ADDMA1999999097551MD1810041+9999OA149900211REMSYN076AAXX  03114 06760 33/// /1301 10007 21114 39755 40216 58004 333 91104 91202;
0182067600999992010010312004+46167+008783FM-12+038099999V0201101N000510360019N0500001N1+00041-01181102121ADDGA1061+036001041GF106991061001999999021011MA1999999097511MD1710101+9999OA149900461REMSYN088AAXX  03124 06760 32984 61101 10004 21118 39751 40212 57010 86021 333 86462 91109 91205;
0128067600999992010010313004+46167+008783FM-12+038099999V0201301N000519999999N9999999N1+00081-01141102071ADDMA1999999097471MD1610171+9999OA149900151REMSYN076AAXX  03134 06760 33/// /1301 10008 21114 39747 40207 56017 333 91103 91201;
0128067600999992010010314004+46167+008783FM-12+038099999V0209999C000019999999N9999999N1+00061-01151102101ADDMA1999999097491MD1510061+9999OA149900151REMSYN076AAXX  03144 06760 33/// /0000 10006 21115 39749 40210 55006 333 91103 91202;
0204067600999992010010315004+46167+008783FM-12+038099999V0209999C000010390019N0400001N1+00071-01111102091ADDGA1041+030001031GA2071+039001041GF107991071001999999071999MA1999999097481MD1510031+9999OA149900211REMSYN094AAXX  03154 06760 32982 70000 10007 21111 39748 40209 55003 8707/ 333 84360 87463 91104 91202;
0128067600999992010010316004+46167+008783FM-12+038099999V0200501N002119999999N9999999N1-00031-01191102101ADDMA1999999097481MD1010011+9999OA149900261REMSYN076AAXX  03164 06760 33/// /0504 11003 21119 39748 40210 50001 333 91105 91204;
0128067600999992010010317004+46167+008783FM-12+038099999V0200101N001019999999N9999999N1-00031-01301102071ADDMA1999999097451MD1710041+9999OA149900261REMSYN076AAXX  03174 06760 33/// /0102 11003 21130 39745 40207 57004 333 91105 91204;
0235067600999992010010318004+46167+008783FM-12+038099999V0200401N000519999999N0300001N1+00001-01291102081ADDAL19900091GA1041+030001031GF105991051001999999071001IA1149KA1120M+00081MA1999999097461MD1710021+9999OA149900261REMSYN112AAXX  03184 06760 32980 50401 10000 21129 39746 40208 57002 85070 333 10008 34/// 84360 90766 93100 91105 91204;
0128067600999992010010319004+46167+008783FM-12+038099999V0200401N001019999999N9999999N1-00041-01201102121ADDMA1999999097491MD1310011+9999OA149900211REMSYN076AAXX  03194 06760 33/// /0402 11004 21120 39749 40212 53001 333 91104 91203;
0128067600999992010010320004+46167+008783FM-12+038099999V0209999C000019999999N9999999N1-00141-01161102111ADDMA1999999097471MD1210021+9999OA149900211REMSYN076AAXX  03204 06760 33/// /0000 11014 21116 39747 40211 52002 333 91104 91202;
0128067600999992010010321004+46167+008783FM-12+038099999V0200401N001019999999N9999999N1-00111-01271102131ADDMA1999999097491MD1210031+9999OA149900261REMSYN076AAXX  03214 06760 33/// /0402 11011 21127 39749 40213 52003 333 91105 91204;
0128067600999992010010322004+46167+008783FM-12+038099999V0203601N000519999999N9999999N1-00151-01291102171ADDMA1999999097521MD1210031+9999OA149900211REMSYN076AAXX  03224 06760 33/// /3601 11015 21129 39752 40217 52003 333 91104 91202;
0128067600999992010010323004+46167+008783FM-12+038099999V0200701N000519999999N9999999N1-00211-01251102191ADDMA1999999097531MD1110061+9999OA149900151REMSYN076AAXX  03234 06760 33/// /0701 11021 21125 39753 40219 51006 333 91103 91202;
0128067600999992010010400004+46167+008783FM-12+038099999V0200101N001019999999N9999999N1-00221-01281102141ADDMA1999999097481MD1810011+9999OA149900261REMSYN076AAXX  04004 06760 33/// /0102 11022 21128 39748 40214 58001 333 91105 91204;
0128067600999992010010401004+46167+008783FM-12+038099999V0200701N001019999999N9999999N1-00201-01271102071ADDMA1999999097421MD1710101+9999OA149900211REMSYN076AAXX  04014 06760 33/// /0702 11020 21127 39742 40207 57010 333 91104 91202;
0128067600999992010010402004+46167+008783FM-12+038099999V0200501N001019999999N9999999N1-00201-01311102041ADDMA1999999097391MD1710141+9999OA149900361REMSYN076AAXX  04024 06760 33/// /0502 11020 21131 39739 40204 57014 333 91107 91203;
0128067600999992010010403004+46167+008783FM-12+038099999V0200501N001519999999N9999999N1-00191-01371102031ADDMA1999999097381MD1719999+9999OA149900361REMSYN076AAXX  04034 06760 33/// /0503 11019 21137 39738 40203 57/// 333 91107 91203;
0128067600999992010010404004+46167+008783FM-12+038099999V0209999C000019999999N9999999N1-00201-01281101981ADDMA1999999097331MD1710091+9999OA149900211REMSYN076AAXX  04044 06760 33/// /0000 11020 21128 39733 40198 57009 333 91104 91203;
0128067600999992010010405004+46167+008783FM-12+038099999V0209999C000019999999N9999999N1-00221-01081101941ADDMA1999999097291MD1810101+9999OA149900211REMSYN076AAXX  04054 06760 33/// /0000 11022 21108 39729 40194 58010 333 91104 91203;
0319067600999992010010406004+46167+008783FM-12+038099999V0200701N000510360019N0300001N1-00181-01211101931ADDAA124000091AL19900091GA1031+027001031GA2081+036001041GF108991081001999999071999GJ100009IA1149IA2999-00609KA1999N-00281MA1999999097291MD1710091+9999OA149900361REMSYN130AAXX  04064 06760 32980 80701 11018 21121 39729 40193 57009 8807/ 333 21028 34106 55000 70000 83359 88462 90768 93100 91107 91203;EQDQ01  00002PRCP24
0128067600999992010010407004+46167+008783FM-12+038099999V0209999C000019999999N9999999N1-00171-01401101931ADDMA1999999097291MD1710041+9999OA149900101REMSYN076AAXX  04074 06760 33/// /0000 11017 21140 39729 40193 57004 333 91102 91201;
0128067600999992010010408004+46167+008783FM-12+038099999V0209999C000019999999N9999999N1-00161-01181101951ADDMA1999999097311MD1210021+9999OA149900101REMSYN076AAXX  04084 06760 33/// /0000 11016 21118 39731 40195 52002 333 91102 91202;
0204067600999992010010409004+46167+008783FM-12+038099999V0209999C000010360019N0250001N1-00111-01041101961ADDGA1021+027001031GA2071+036001041GF107991071001999999071999MA1999999097331MD1310041+9999OA149900211REMSYN094AAXX  04094 06760 32975 70000 11011 21104 39733 40196 53004 8707/ 333 82359 87462 91104 91203;
0128067600999992010010410004+46167+008783FM-12+038099999V0202101N001019999999N9999999N1-00041-01071101951ADDMA1999999097331MD1210041+9999OA149900311REMSYN076AAXX  04104 06760 33/// /2102 11004 21107 39733 40195 52004 333 91106 91203;
0128067600999992010010411004+46167+008783FM-12+038099999V0201801N001019999999N9999999N1+00101-00861101831ADDMA1999999097241MD1810071+9999OA149900311REMSYN076AAXX  04114 06760 33/// /1802 10010 21086 39724 40183 58007 333 91106 91203;
0182067600999992010010412004+46167+008783FM-12+038099999V0202601N001010180019N0250001N1+00091-00891101721ADDGA1071+018001061GF107991071051017501999999MA1999999097131MD1710201+9999OA149900361REMSYN088AAXX  04124 06760 32775 72602 10009 21089 39713 40172 57020 875// 333 87656 91107 91205;
0128067600999992010010413004+46167+008783FM-12+038099999V0202201N001519999999N9999999N1+00141-00881101591ADDMA1999999097021MD1810311+9999OA149900411REMSYN076AAXX  04134 06760 33/// /2203 10014 21088 39702 40159 58031 333 91108 91205;
0101067600999992010010414004+46167+008783FM-12+038099999V02099999999999999999N9999999N1+00151-00791101541ADDMA1999999096971MD1619999+9999REMSYN060AAXX  04144 06760 33/// ///// 10015 21079 39697 40154 56///;
0182067600999992010010415004+46167+008783FM-12+038099999V0202301N002110210019N0200001N1+00081-00781101541ADDGA1051+021001031GF105991051001022501031001MA1999999096961MD1610171+9999OA149900411REMSYN088AAXX  04154 06760 32870 52304 10008 21078 39696 40154 56017 85030 333 85357 91108 91205;
0128067600999992010010416004+46167+008783FM-12+038099999V0203001N001019999999N9999999N1+00021-00831101531ADDMA1999999096941MD1610081+9999OA149900411REMSYN076AAXX  04164 06760 33/// /3002 10002 21083 39694 40153 56008 333 91108 91204;
0128067600999992010010417004+46167+008783FM-12+038099999V0200301N000519999999N9999999N1-00041-00891101511ADDMA1999999096911MD1810061+9999OA149900311REMSYN076AAXX  04174 06760 33/// /0301 11004 21089 39691 40151 58006 333 91106 91203;
0235067600999992010010418004+46167+008783FM-12+038099999V0200301N001012200019N0200001N1-00111-00881101511ADDAL19900091GA1041+024001031GF104991041001022501031001IA1149KA1120M+00201MA1999999096901MD1710061+9999OA149900411REMSYN112AAXX  04184 06760 32870 40302 11011 21088 39690 40151 57006 84030 333 10020 34/// 84358 90766 93100 91108 91205;
0128067600999992010010419004+46167+008783FM-12+038099999V0200201N001019999999N9999999N1-00071-00961101471ADDMA1999999096871MD1710071+9999OA149900211REMSYN076AAXX  04194 06760 33/// /0202 11007 21096 39687 40147 57007 333 91104 91203;
0128067600999992010010420004+46167+008783FM-12+038099999V0203501N000519999999N9999999N1-00051-00901101421ADDMA1999999096821MD1710091+9999OA149900211REMSYN076AAXX  04204 06760 33/// /3501 11005 21090 39682 40142 57009 333 91104 91202;
0128067600999992010010421004+46167+008783FM-12+038099999V0202601N000519999999N9999999N1-00081-00931101431ADDMA1999999096831MD1710071+9999OA149900311REMSYN076AAXX  04214 06760 33/// /2601 11008 21093 39683 40143 57007 333 91106 91203;
0128067600999992010010422004+46167+008783FM-12+038099999V0200401N001019999999N9999999N1-00131-00931101411ADDMA1999999096801MD1710071+9999OA149900101REMSYN076AAXX  04224 06760 33/// /0402 11013 21093 39680 40141 57007 333 91102 91202;
0128067600999992010010423004+46167+008783FM-12+038099999V0200501N000519999999N9999999N1-00161-00971101401ADDMA1999999096791MD1710031+9999OA149900211REMSYN076AAXX  04234 06760 33/// /0501 11016 21097 39679 40140 57003 333 91104 91203;
0128067600999992010010500004+46167+008783FM-12+038099999V0203501N000519999999N9999999N1-00191-01041101341ADDMA1999999096721MD1710111+9999OA149900411REMSYN076AAXX  05004 06760 33/// /3501 11019 21104 39672 40134 57011 333 91108 91204;
0128067600999992010010501004+46167+008783FM-12+038099999V0209999C000019999999N9999999N1-00201-01041101271ADDMA1999999096661MD1810141+9999OA149900151REMSYN076AAXX  05014 06760 33/// /0000 11020 21104 39666 40127 58014 333 91103 91202;
0128067600999992010010502004+46167+008783FM-12+038099999V0200501N001519999999N9999999N1-00251-01001101221ADDMA1999999096601MD1610191+9999OA149900211REMSYN076AAXX  05024 06760 33/// /0503 11025 21100 39660 40122 56019 333 91104 91203;
0128067600999992010010503004+46167+008783FM-12+038099999V0200401N000519999999N9999999N1-00211-01021101161ADDMA1999999096551MD1610171+9999OA149900211REMSYN076AAXX  05034 06760 33/// /0401 11021 21102 39655 40116 56017 333 91104 91203;
0128067600999992010010504004+46167+008783FM-12+038099999V0200301N001019999999N9999999N1-00301-00961101111ADDMA1999999096491MD1810171+9999OA149900211REMSYN076AAXX  05044 06760 33/// /0302 11030 21096 39649 40111 58017 333 91104 91203;
0128067600999992010010505004+46167+008783FM-12+038099999V0200401N000519999999N9999999N1-00341-00981101071ADDMA1999999096441MD1610161+9999OA149900151REMSYN076AAXX  05054 06760 33/// /0401 11034 21098 39644 40107 56016 333 91103 91202;
0297067600999992010010506004+46167+008783FM-12+038099999V0209999C000012200019N0400001N1-00271-01001101041ADDAA124000091AL19900091GA1041+066001001GF104991001001999999001061GJ100729IA1149IA2999-00609KA1999N-00341MA1999999096421MD1610131+9999OA149900211REMSYN124AAXX  05064 06760 32982 40000 11027 21100 39642 40104 56013 80006 333 21034 34106 55012 70000 84072 90768 93100 91104 91203;EQDQ01  00002PRCP24
0128067600999992010010507004+46167+008783FM-12+038099999V0200101N000519999999N9999999N1-00301-00961101031ADDMA1999999096411MD1710081+9999OA149900101REMSYN076AAXX  05074 06760 33/// /0101 11030 21096 39641 40103 57008 333 91102 91201;
0128067600999992010010508004+46167+008783FM-12+038099999V0200401N001019999999N9999999N1-00211-00941100991ADDMA1999999096391MD1710051+9999OA149900151REMSYN076AAXX  05084 06760 33/// /0402 11021 21094 39639 40099 57005 333 91103 91202;
0204067600999992010010509004+46167+008783FM-12+038099999V0201301N000510570019N0350001N1-00231-00741100971ADDGA1011+015001061GA2061+057001021GF106991011051017501001061MA1999999096361MD1710061+9999OA149900151REMSYN094AAXX  05094 06760 32781 61301 11023 21074 39636 40097 57006 81506 333 81650 86269 91103 91202;
0128067600999992010010510004+46167+008783FM-12+038099999V0201201N000519999999N9999999N1-00091-00721100901ADDMA1999999096321MD1810091+9999OA149900151REMSYN076AAXX  05104 06760 33/// /1201 11009 21072 39632 40090 58009 333 91103 91201;
0128067600999992010010511004+46167+008783FM-12+038099999V0201501N000519999999N9999999N1-00061-00661100791ADDMA1999999096221MD1810171+9999OA149900151REMSYN076AAXX  05114 06760 33/// /1501 11006 21066 39622 40079 58017 333 91103 91201;
0182067600999992010010512004+46167+008783FM-12+038099999V0200801N00151036001CN0350001N1-00051-00911100671ADDGA1041+015001061GF106991041051017501071081MA1999999096111MD1810251+9999OA149900261REMSYN088AAXX  05124 06760 32781 60803 11005 21091 39611 40067 58025 84578 333 84650 91105 91203;
0128067600999992010010513004+46167+008783FM-12+038099999V0209999C000019999999N9999999N1-00031-00701100571ADDMA1999999096021MD1610301+9999OA149900261REMSYN076AAXX  05134 06760 33/// /0000 11003 21070 39602 40057 56030 333 91105 91203;
0087067600999992010010514004+46167+008783FM-12+038099999V0209999C000019999999N9999999N1+00031-00791100481ADDMA1999999095941REMSYN060AAXX  05144 06760 33/// /0000 10003 21079 39594 40048 5////;
0204067600999992010010515004+46167+008783FM-12+038099999V0200401N001010270019N0300001N1+00061-00771100431ADDGA1031+015001061GA2031+027001031GF107991031051017501031081MA1999999095901MD1610211+9999OA149900261REMSYN094AAXX  05154 06760 32780 70402 10006 21077 39590 40043 56021 83538 333 83650 83359 91105 91203;
0128067600999992010010516004+46167+008783FM-12+038099999V0200501N001519999999N9999999N1+00101-00931100381ADDMA1999999095861MD1610161+9999OA149900261REMSYN076AAXX  05164 06760 33/// /0503 10010 21093 39586 40038 56016 333 91105 91203;
0128067600999992010010517004+46167+008783FM-12+038099999V0209999C000019999999N9999999N1+00071-00831100361ADDMA1999999095831MD1610111+9999OA149900261REMSYN076AAXX  05174 06760 33/// /0000 10007 21083 39583 40036 56011 333 91105 91203;
0235067600999992010010518004+46167+008783FM-12+038099999V0200401N00051036001CN0250001N1+00171-00871100301ADDAL19900091GA1041+015001061GF108991041051017501071999IA1149KA1120M+00151MA1999999095791MD1810111+9999OA149900261REMSYN112AAXX  05184 06760 32775 80401 10017 21087 39579 40030 58011 8457/ 333 10015 34/// 84650 90766 93100 91105 91203;
0128067600999992010010519004+46167+008783FM-12+038099999V0203601N000519999999N9999999N1+00171-00781100271ADDMA1999999095761MD1810101+9999OA149900151REMSYN076AAXX  05194 06760 33/// /3601 10017 21078 39576 40027 58010 333 91103 91201;
0128067600999992010010520004+46167+008783FM-12+038099999V0200501N001019999999N9999999N1+00181-00731100191ADDMA1999999095691MD1810141+9999OA149900261REMSYN076AAXX  05204 06760 33/// /0502 10018 21073 39569 40019 58014 333 91105 91203;
0128067600999992010010521004+46167+008783FM-12+038099999V0203101N001519999999N9999999N1+00191-00791100131ADDMA1999999095631MD1810161+9999OA149900261REMSYN076AAXX  05214 06760 33/// /3103 10019 21079 39563 40013 58016 333 91105 91203;
0128067600999992010010522004+46167+008783FM-12+038099999V0209999C000019999999N9999999N1+00131-00721100081ADDMA1999999095571MD1610191+9999OA149900211REMSYN076AAXX  05224 06760 33/// /0000 10013 21072 39557 40008 56019 333 91104 91203;
0128067600999992010010523004+46167+008783FM-12+038099999V0200601N000519999999N9999999N1+00161-00701100031ADDMA1999999095531MD1710161+9999OA149900211REMSYN076AAXX  05234 06760 33/// /0601 10016 21070 39553 40003 57016 333 91104 91203;
0128067600999992010010600004+46167+008783FM-12+038099999V0200301N001519999999N9999999N1+00201-00721099961ADDMA1999999095471MD1710161+9999OA149900261REMSYN076AAXX  06004 06760 33/// /0303 10020 21072 39547 49996 57016 333 91105 91203;
0128067600999992010010601004+46167+008783FM-12+038099999V0200501N001519999999N9999999N1+00081-00561099951ADDMA1999999095441MD1710131+9999OA149900261REMSYN076AAXX  06014 06760 33/// /0503 10008 21056 39544 49995 57013 333 91105 91203;
0128067600999992010010602004+46167+008783FM-12+038099999V0200101N001019999999N9999999N1+00101-00711099921ADDMA1999999095421MD1710111+9999OA149900261REMSYN076AAXX  06024 06760 33/// /0102 10010 21071 39542 49992 57011 333 91105 91204;
0128067600999992010010603004+46167+008783FM-12+038099999V0209999C000519999999N9999999N1+00081-00711099871ADDMA1999999095371MD1710101+9999OA149900261REMSYN076AAXX  06034 06760 33/// /0001 10008 21071 39537 49987 57010 333 91105 91204;
0128067600999992010010604004+46167+008783FM-12+038099999V0200101N000519999999N9999999N1+00061-00651099851ADDMA1999999095341MD1710101+9999OA149900151REMSYN076AAXX  06044 06760 33/// /0101 10006 21065 39534 49985 57010 333 91103 91202;
0128067600999992010010605004+46167+008783FM-12+038099999V0203601N000519999999N9999999N1+00031-00661099851ADDMA1999999095341MD1710081+9999OA149900151REMSYN076AAXX  06054 06760 33/// /3601 10003 21066 39534 49985 57008 333 91103 91202;
0297067600999992010010606004+46167+008783FM-12+038099999V0203601N001010240019N0300001N1+00031-00651099851ADDAA124000091AL19900091GA1051+024001031GF105991051001022501051001GJ100129IA1149IA2999-00309KA1999N+00011MA1999999095341MD1710031+9999OA149900261REMSYN124AAXX  06064 06760 32880 53602 10003 21065 39534 49985 57003 85050 333 20001 34103 55002 70000 85358 90768 93100 91105 91204;EQDQ01  00002PRCP24
0128067600999992010010607004+46167+008783FM-12+038099999V0200301N000519999999N9999999N1+00011-00621099871ADDMA1999999095351MD1210011+9999OA149900151REMSYN076AAXX  06074 06760 33/// /0301 10001 21062 39535 49987 52001 333 91103 91202;
0128067600999992010010608004+46167+008783FM-12+038099999V0203301N000519999999N9999999N1+00001-00601099891ADDMA1999999095371MD1210031+9999OA149900151REMSYN076AAXX  06084 06760 33/// /3301 10000 21060 39537 49989 52003 333 91103 91202;
0182067600999992010010609004+46167+008783FM-12+038099999V0201601N001012200019N0400001N1+00161-00411099941ADDGA1011+027001031GF101991011001999999031001MA1999999095451MD1210111+9999OA149900151REMSYN088AAXX  06094 06760 32982 11602 10016 21041 39545 49994 52011 81030 333 81359 91103 91202;
0128067600999992010010610004+46167+008783FM-12+038099999V0201501N001019999999N9999999N1+00261-00411099981ADDMA1999999095501MD1210151+9999OA149900261REMSYN076AAXX  06104 06760 33/// /1502 10026 21041 39550 49998 52015 333 91105 91202;
0128067600999992010010611004+46167+008783FM-12+038099999V0201601N001519999999N9999999N1+00331-00371099941ADDMA1999999095471MD1019999+9999OA149900361REMSYN076AAXX  06114 06760 33/// /1603 10033 21037 39547 49994 50/// 333 91107 91204;
0205067600999992010010612004+46167+008783FM-12+038099999V0201601N001512200019N0500001N1+00441-00401099901ADDGA1001+999999999GF100991001001999999001001MA1999999095451MD1710041+9999OA149900361REMSYN076AAXX  06124 06760 32984 01603 10044 21040 39545 49990 58000 333 91107 91204;EQDQ01+000082APCTENQ02+000002APC3  
0128067600999992010010613004+46167+008783FM-12+038099999V0201801N001519999999N9999999N1+00431-00431099881ADDMA1999999095431MD1710071+9999OA149900361REMSYN076AAXX  06134 06760 33/// /1803 10043 21043 39543 49988 57007 333 91107 91203;
0128067600999992010010614004+46167+008783FM-12+038099999V0202001N001519999999N9999999N1+00551-00401099861ADDMA1999999095431MD1719999+9999OA149900361REMSYN076AAXX  06144 06760 33/// /2003 10055 21040 39543 49986 57/// 333 91107 91203;
0182067600999992010010615004+46167+008783FM-12+038099999V0202201N001012200019N0400001N1+00451-00331099941ADDGA1021+018001061GF102991021051017501001001MA1999999095491MD1219999+9999OA149900361REMSYN088AAXX  06154 06760 32782 22202 10045 21033 39549 49994 52/// 82500 333 82656 91107 91204;
0128067600999992010010616004+46167+008783FM-12+038099999V0201001N000519999999N9999999N1+00301-00321100041ADDMA1999999095561MD1210131+9999OA149900311REMSYN076AAXX  06164 06760 33/// /1001 10030 21032 39556 40004 52013 333 91106 91204;
0128067600999992010010617004+46167+008783FM-12+038099999V0200401N000519999999N9999999N1+00141-00411100111ADDMA1999999095601MD1110171+9999OA149900211REMSYN076AAXX  06174 06760 33/// /0401 10014 21041 39560 40011 51017 333 91104 91203;
0235067600999992010010618004+46167+008783FM-12+038099999V0203001N001012200019N0300001N1+00161-00451100181ADDAL19900091GA1011+024001031GF101991011001022501031001IA1149KA1120M+00571MA1999999095671MD1219999+9999OA149900361REMSYN112AAXX  06184 06760 32880 13002 10016 21045 39567 40018 52/// 81030 333 10057 34/// 81358 90766 93100 91107 91204;
0128067600999992010010619004+46167+008783FM-12+038099999V0200501N000519999999N9999999N1+00171-00451100221ADDMA1999999095711MD1110151+9999OA149900261REMSYN076AAXX  06194 06760 33/// /0501 10017 21045 39571 40022 51015 333 91105 91203;
0128067600999992010010620004+46167+008783FM-12+038099999V0203501N001019999999N9999999N1+00161-00421100271ADDMA1999999095761MD1110161+9999OA149900151REMSYN076AAXX  06204 06760 33/// /3502 10016 21042 39576 40027 51016 333 91103 91203;
0128067600999992010010621004+46167+008783FM-12+038099999V0203401N000519999999N9999999N1+00221-00411100291ADDMA1999999095791MD1310121+9999OA149900261REMSYN076AAXX  06214 06760 33/// /3401 10022 21041 39579 40029 53012 333 91105 91203;
0128067600999992010010622004+46167+008783FM-12+038099999V0203601N000519999999N9999999N1+00231-00411100311ADDMA1999999095811MD1210101+9999OA149900151REMSYN076AAXX  06224 06760 33/// /3601 10023 21041 39581 40031 52010 333 91103 91202;
0128067600999992010010623004+46167+008783FM-12+038099999V0200301N000519999999N9999999N1+00191-00421100351ADDMA1999999095841MD1210081+9999OA149900151REMSYN076AAXX  06234 06760 33/// /0301 10019 21042 39584 40035 52008 333 91103 91202;
0128067600999992010010700004+46167+008783FM-12+038099999V0209999C000019999999N9999999N1+00211-00441100351ADDMA1999999095851MD1210061+9999OA149900361REMSYN076AAXX  07004 06760 33/// /0000 10021 21044 39585 40035 52006 333 91107 91204;
0128067600999992010010701004+46167+008783FM-12+038099999V0202601N001019999999N9999999N1+00211-00461100421ADDMA1999999095911MD1210101+9999OA149900151REMSYN076AAXX  07014 06760 33/// /2602 10021 21046 39591 40042 52010 333 91103 91202;
0128067600999992010010702004+46167+008783FM-12+038099999V0200401N000519999999N9999999N1+00191-00401100461ADDMA1999999095951MD1219999+9999OA149900211REMSYN076AAXX  07024 06760 33/// /0401 10019 21040 39595 40046 52/// 333 91104 91203;
0128067600999992010010703004+46167+008783FM-12+038099999V0203201N000519999999N9999999N1+00211-00431100481ADDMA1999999095971MD1210121+9999OA149900211REMSYN076AAXX  07034 06760 33/// /3201 10021 21043 39597 40048 52012 333 91104 91203;
0128067600999992010010704004+46167+008783FM-12+038099999V0200401N000519999999N9999999N1+00101-00321100561ADDMA1999999096031MD1210121+9999OA149900211REMSYN076AAXX  07044 06760 33/// /0401 10010 21032 39603 40056 52012 333 91104 91203;
0128067600999992010010705004+46167+008783FM-12+038099999V0200201N001019999999N9999999N1+00041-00311100611ADDMA1999999096071MD1310121+9999OA149900211REMSYN076AAXX  07054 06760 33/// /0202 10004 21031 39607 40061 53012 333 91104 91203;
0336067600999992010010706004+46167+008783FM-12+038099999V0200301N001510240019N0150001N1+00091-00361100681ADDAA124000091AJ199992999999999AL19900091GA1051+024001061GF105991051051022501001999GJ104149IA1259IA2999-00309KA1999N+00001MA1999999096141MD1110171+9999OA149900211REMSYN130AAXX  07064 06760 32865 50303 10009 21036 39614 40068 51017 8550/ 333 20000 3/103 41998 55069 70000 85658 90768 93100 91104 91203;EQDQ01  00002PRCP24Q02  09982SNDP  
0128067600999992010010707004+46167+008783FM-12+038099999V0200301N000519999999N9999999N1+00021-00361100761ADDMA1999999096211MD1310181+9999OA149900211REMSYN076AAXX  07074 06760 33/// /0301 10002 21036 39621 40076 53018 333 91104 91203;
0128067600999992010010708004+46167+008783FM-12+038099999V0203301N000519999999N9999999N1+00081-00361100841ADDMA1999999096291MD1319999+9999OA149900211REMSYN076AAXX  07084 06760 33/// /3301 10008 21036 39629 40084 53/// 333 91104 91203;
0210067600999992010010709004+46167+008783FM-12+038099999V0201001N001512200019N0130001N1+00211-00281100881ADDAY111031AY211031GA1011+014401061GF102991011051012501031011MA1999999096351MD1110211+9999MW1101OA149900261REMSYN094AAXX  07094 06760 31663 21003 10021 21028 39635 40088 51021 71011 81531 333 81648 91105 91203;
0128067600999992010010710004+46167+008783FM-12+038099999V0201401N001019999999N9999999N1+00241-00281100951ADDMA1999999096421MD1210211+9999OA149900261REMSYN076AAXX  07104 06760 33/// /1402 10024 21028 39642 40095 52021 333 91105 91203;
0128067600999992010010711004+46167+008783FM-12+038099999V0201301N001519999999N9999999N1+00341-00251100911ADDMA1999999096401MD1210111+9999OA149900311REMSYN076AAXX  07114 06760 33/// /1303 10034 21025 39640 40091 52011 333 91106 91203;
0232067600999992010010712004+46167+008783FM-12+038099999V0201401N000510660019N0130001N1+00341-00431100841ADDAY111061AY211061GA1021+015001081GA2061+066001021GF106991021021017501001061MA1999999096331MD1810021+9999MW1051OA149900311REMSYN100AAXX  07124 06760 31763 61401 10034 21043 39633 40084 58002 70511 82206 333 82850 86272 91106 91203;
0128067600999992010010713004+46167+008783FM-12+038099999V0201801N001019999999N9999999N1+00471-00321100811ADDMA1999999096331MD1719999+9999OA149900311REMSYN076AAXX  07134 06760 33/// /1802 10047 21032 39633 40081 57/// 333 91106 91203;
0063067600999992010010714004+46167+008783FM-12+038099999V0201201N000519999999N9999999N1+99999+99999999999REMSYN054AAXX  07144 06760 43/// /1201 1//// 2//// 3//// 5////;
0158067600999992010010715004+46167+008783FM-12+038099999V0209999C00001036001CN0120001N1+99999+99999999999ADDAY121031AY221031GA1011+014401061GF108991011051012501011999MW1051REMSYN082AAXX  07154 06760 41662 80000 1//// 2//// 3//// 5//// 70522 8151/ 333 81648 88464;
0128067600999992010010716004+46167+008783FM-12+038099999V0202601N000519999999N9999999N1+00351-00391100981ADDMA1999999096471MD1219999+9999OA149900211REMSYN076AAXX  07164 06760 33/// /2601 10035 21039 39647 40098 52/// 333 91104 91202;
0128067600999992010010717004+46167+008783FM-12+038099999V0202601N000519999999N9999999N1+00281-00241101051ADDMA1999999096531MD1219999+9999OA149900211REMSYN076AAXX  07174 06760 33/// /2601 10028 21024 39653 40105 52/// 333 91104 91202;
0263067600999992010010718004+46167+008783FM-12+038099999V0200501N001010300019N0120001N1+00291-00271101051ADDAL19900091AY121061AY221061GA1081+030001041GF108991081001999999021999IA1019KA1120M+00471MA1999999096531MD1219999+9999MW1051OA149900311REMSYN118AAXX  07184 06760 31962 80502 10029 21027 39653 40105 52/// 70522 8802/ 333 10047 30/// 88460 90766 93100 91106 91203;
0128067600999992010010719004+46167+008783FM-12+038099999V0200601N001019999999N9999999N1+00231-00291101081ADDMA1999999096551MD1210081+9999OA149900211REMSYN076AAXX  07194 06760 33/// /0602 10023 21029 39655 40108 52008 333 91104 91203;
0128067600999992010010720004+46167+008783FM-12+038099999V0200401N001019999999N9999999N1+00281-00321101111ADDMA1999999096581MD1210051+9999OA149900211REMSYN076AAXX  07204 06760 33/// /0402 10028 21032 39658 40111 52005 333 91104 91203;
0128067600999992010010721004+46167+008783FM-12+038099999V0209999C000019999999N9999999N1+00211-00251101191ADDMA1999999096651MD1210121+9999OA149900211REMSYN076AAXX  07214 06760 33/// /0000 10021 21025 39665 40119 52012 333 91104 91203;
0145067600999992010010722004+46167+008783FM-12+038099999V0209999C000019999999N9999999N1+00051-00031101221ADDAA101000591MA1999999096651MD1210101+9999OA149900151REMSYN082AAXX  07224 06760 23/// /0000 10005 21003 39665 40122 52010 333 69955 91103 91202;
0145067600999992010010723004+46167+008783FM-12+038099999V0200501N000519999999N9999999N1+00031-00011101171ADDAA101000591MA1999999096601MD1010021+9999OA149900211REMSYN082AAXX  07234 06760 23/// /0501 10003 21001 39660 40117 50002 333 69965 91104 91203;
0151067600999992010010800004+46167+008783FM-12+038099999V0209999C000019999999N9999999N1-00021-00021101131ADDAA106002091MA1999999096551MD1710101+9999OA149900311REMSYN088AAXX  08004 06760 03/// /0000 11002 21002 39655 40113 57010 60021 333 69965 91106 91203;
0145067600999992010010801004+46167+008783FM-12+038099999V0200601N001019999999N9999999N1+00011-00011101031ADDAA101000591MA1999999096461MD1810191+9999OA149900211REMSYN082AAXX  08014 06760 23/// /0602 10001 21001 39646 40103 58019 333 69965 91104 91202;
0145067600999992010010802004+46167+008783FM-12+038099999V0200601N000519999999N9999999N1+00011-00021100991ADDAA101000591MA1999999096421MD1619999+9999OA149900261REMSYN082AAXX  08024 06760 23/// /0601 10001 21002 39642 40099 56/// 333 69965 91105 91203;
0145067600999992010010803004+46167+008783FM-12+038099999V0200601N000519999999N9999999N1+00011-00031100911ADDAA101001091MA1999999096351MD1619999+9999OA149900261REMSYN082AAXX  08034 06760 23/// /0601 10001 21003 39635 40091 56/// 333 69995 91105 91203;
0145067600999992010010804004+46167+008783FM-12+038099999V0200601N000519999999N9999999N1+00021-00021100851ADDAA101001091MA1999999096291MD1810171+9999OA149900151REMSYN082AAXX  08044 06760 23/// /0601 10002 21002 39629 40085 58017 333 60015 91103 91202;
0145067600999992010010805004+46167+008783FM-12+038099999V0200601N000519999999N9999999N1+00011-00011100781ADDAA101001091MA1999999096221MD1610201+9999OA149900151REMSYN082AAXX  08054 06760 23/// /0601 10001 21001 39622 40078 56020 333 60015 91103 91201;
0362067600999992010010806004+46167+008783FM-12+038099999V0209999C000010012019N0750001N1-00031-00031100711ADDAA112008992AA224007992AJ100109199999999AL14800791AL29901091AY171061AY221061GA1081+001201071GF108991081071001501999999GJ102529IA1239IA2999+00009KA1999N-00021MA1999999096151MD1710201+9999MW1731OA149900261REMSYN148AAXX  08064 06760 01289 80000 11003 21003 39615 40071 57020 60092 77372 887// 333 21002 3/100 47010 55042 60025 70078 88704 90768 93110 91105 91203;
0145067600999992010010807004+46167+008783FM-12+038099999V0200601N001019999999N9999999N1+00011-00021100651ADDAA101001091MA1999999096101MD1610191+9999OA149900151REMSYN082AAXX  08074 06760 23/// /0602 10001 21002 39610 40065 56019 333 60015 91103 91202;
0145067600999992010010808004+46167+008783FM-12+038099999V0200501N001019999999N9999999N1+00001-00021100611ADDAA101001091MA1999999096061MD1610161+9999OA149900151REMSYN082AAXX  08084 06760 23/// /0502 10000 21002 39606 40061 56016 333 60015 91103 91202;
0215067600999992010010809004+46167+008783FM-12+038099999V0200501N001010003019N0003001N1+00011-00031100541ADDAA101002091AY171031AY241031GA1091+999999999GF109991091999999999999999MA1999999095991MD1810161+9999MW1751OA149900211REMSYN088AAXX  08094 06760 21/03 90502 10001 21003 39599 40054 58016 77574 333 60025 91104 91202;
0145067600999992010010810004+46167+008783FM-12+038099999V0200601N000519999999N9999999N1+00031+00001100471ADDAA101001091MA1999999095931MD1810171+9999OA149900211REMSYN082AAXX  08104 06760 23/// /0601 10003 20000 39593 40047 58017 333 60015 91104 91202;
0145067600999992010010811004+46167+008783FM-12+038099999V0200501N000519999999N9999999N1+00051+00001100351ADDAA101001091MA1999999095821MD1810241+9999OA149900151REMSYN082AAXX  08114 06760 23/// /0501 10005 20000 39582 40035 58024 333 60015 91103 91202;
0233067600999992010010812004+46167+008783FM-12+038099999V0209999C000010003019N0040001N1+00041+00001100241ADDAA106007991AY171061AY241061GA1081+000301071GF108991081071000251999999MA1999999095711MD1810281+9999MW1731OA149900261REMSYN106AAXX  08124 06760 01040 80000 10004 20000 39571 40024 58028 60081 77374 887// 333 60025 88701 91105 91203;
0145067600999992010010813004+46167+008783FM-12+038099999V0209999C000019999999N9999999N1+00001+00001100131ADDAA101002091MA1999999095601MD1710331+9999OA149900101REMSYN082AAXX  08134 06760 23/// /0000 10000 20000 39560 40013 57033 333 60025 91102 91202;
0151067600999992010010814004+46167+008783FM-12+038099999V0200701N000519999999N9999999N1+00031+00011100061ADDAA101001091MA1999999095541MD1719999+9999OA149900101REMSYN088AAXX  08144 06760 23/// /0701 10003 20001 39554 40006 57/// 91340 333 60015 91102 91201;
0249067600999992010010815004+46167+008783FM-12+038099999V0200401N000510084019N0040001N1+00041+00011100001ADDAA101001091AY171031AY261031GA1021+000301071GA2081+008401051GF108991021071000251021999MA1999999095481MD1610231+9999MW1631OA149900151REMSYN106AAXX  08154 06760 21040 80401 10004 20001 39548 40000 56023 76376 8272/ 333 60015 82701 88528 91103 91202;
0145067600999992010010816004+46167+008783FM-12+038099999V0200701N001019999999N9999999N1+00061+00021099991ADDAA101003091MA1999999095481MD1710121+9999OA149900101REMSYN082AAXX  08164 06760 23/// /0702 10006 20002 39548 49999 57012 333 60035 91102 91202;
0145067600999992010010817004+46167+008783FM-12+038099999V0209999C000019999999N9999999N1+00051+00021100031ADDAA101004191MA1999999095511MD1310011+9999OA149900101REMSYN082AAXX  08174 06760 23/// /0000 10005 20002 39551 40003 53001 333 60045 91102 91202;
0353067600999992010010818004+46167+008783FM-12+038099999V0200601N001010063019N0030001N1+00051+00001100071ADDAA112022191AJ100129199999999AL11200591AY171061AY261061GA1021+001201071GA2081+006301051GF108991021071001501021999GG1079039009009999IA1279KA1120M+00101MA1999999095551MD1210071+9999MW1691OA149900211REMSYN146AAXX  08184 06760 01230 80602 10005 20000 39555 40007 52007 60222 76976 8272/ 333 10010 43012 60025 82704 88521 90766 93105 91104 91202 444 27039;
0145067600999992010010819004+46167+008783FM-12+038099999V0200801N000519999999N9999999N1+00021+00001100121ADDAA101002091MA1999999095591MD1310111+9999OA149900151REMSYN082AAXX  08194 06760 23/// /0801 10002 20000 39559 40012 53011 333 60025 91103 91202;
0145067600999992010010820004+46167+008783FM-12+038099999V0200801N001019999999N9999999N1+00031+00011100131ADDAA101001091MA1999999095611MD1110101+9999OA149900151REMSYN082AAXX  08204 06760 23/// /0802 10003 20001 39561 40013 51010 333 60015 91103 91202;
0145067600999992010010821004+46167+008783FM-12+038099999V0200901N000519999999N9999999N1+00041+00011100141ADDAA101000591MA1999999095621MD1210071+9999OA149900151REMSYN082AAXX  08214 06760 23/// /0901 10004 20001 39562 40014 52007 333 69965 91103 91202;
0128067600999992010010822004+46167+008783FM-12+038099999V0200601N001019999999N9999999N1+00091+00031100151ADDMA1999999095631MD1210041+9999OA149900151REMSYN076AAXX  08224 06760 33/// /0602 10009 20003 39563 40015 52004 333 91103 91202;
0145067600999992010010823004+46167+008783FM-12+038099999V0200401N001519999999N9999999N1+00111+00041100111ADDAA101000021MA1999999095601MD1710011+9999OA149900261REMSYN082AAXX  08234 06760 23/// /0403 10011 20004 39560 40011 57001 333 69915 91105 91203;
0151067600999992010010900004+46167+008783FM-12+038099999V0200201N001019999999N9999999N1+00171+00061100091ADDAA106005191MA1999999095591MD1710031+9999OA149900261REMSYN088AAXX  09004 06760 03/// /0202 10017 20006 39559 40009 57003 60051 333 60005 91105 91203;
0145067600999992010010901004+46167+008783FM-12+038099999V0200701N000519999999N9999999N1+00121+00041100091ADDAA101000021MA1999999095581MD1710051+9999OA149900261REMSYN082AAXX  09014 06760 23/// /0701 10012 20004 39558 40009 57005 333 69915 91105 91202;
0128067600999992010010902004+46167+008783FM-12+038099999V0200401N000519999999N9999999N1+00151+00061100111ADDMA1999999095611MD1319999+9999OA149900151REMSYN076AAXX  09024 06760 33/// /0401 10015 20006 39561 40011 53/// 333 91103 91202;
0128067600999992010010903004+46167+008783FM-12+038099999V0200501N002119999999N9999999N1+00161+00071100011ADDMA1999999095511MD1819999+9999OA149900311REMSYN076AAXX  09034 06760 33/// /0504 10016 20007 39551 40001 58/// 333 91106 91204;
0128067600999992010010904004+46167+008783FM-12+038099999V0200601N001019999999N9999999N1+00181+00081099901ADDMA1999999095411MD1710171+9999OA149900311REMSYN076AAXX  09044 06760 33/// /0602 10018 20008 39541 49990 57017 333 91106 91204;
0128067600999992010010905004+46167+008783FM-12+038099999V0200301N001519999999N9999999N1+00171+00081099751ADDMA1999999095271MD1710341+9999OA149900311REMSYN076AAXX  09054 06760 33/// /0303 10017 20008 39527 49975 57034 333 91106 91203;
0384067600999992010010906004+46167+008783FM-12+038099999V0200801N001012200019N0150001N1+00061+00051099711ADDAA112005191AA224027291AJ100119199999999AL11802791AL29900491AY171061AY211061GA1011+000301071GA2041+021001061GF104991041051000251999999GJ100009IA1279IA2999+00009KA1999N+00001MA1999999095211MD1710301+9999MW1011OA149900311REMSYN154AAXX  09064 06760 01065 40802 10006 20005 39521 49971 57030 60052 70171 845// 333 20000 3/100 43011 55000 60005 70273 81701 84657 90768 93104 91106 91204;
0128067600999992010010907004+46167+008783FM-12+038099999V0203201N000519999999N9999999N1+00121+00061099731ADDMA1999999095241MD1510171+9999OA149900311REMSYN076AAXX  09074 06760 33/// /3201 10012 20006 39524 49973 55017 333 91106 91204;
0128067600999992010010908004+46167+008783FM-12+038099999V0203101N001019999999N9999999N1+00171+00091099781ADDMA1999999095291MD1310021+9999OA149900311REMSYN076AAXX  09084 06760 33/// /3102 10017 20009 39529 49978 53002 333 91106 91204;
0260067600999992010010909004+46167+008783FM-12+038099999V0200501N002610360019N0025001N1+00151+00101099661ADDAY121031AY221031GA1021+000301071GA2081+036001041GF108991021061000251021999GG1079039009009999MA1999999095181MD1810031+9999MW1401OA149900361REMSYN110AAXX  09094 06760 31025 80505 10015 20010 39518 49966 58003 74022 8262/ 333 82701 88462 91107 91205 444 37039;
0128067600999992010010910004+46167+008783FM-12+038099999V0200501N000519999999N9999999N1+00291+00181099561ADDMA1999999095101MD1710141+9999OA149900361REMSYN076AAXX  09104 06760 33/// /0501 10029 20018 39510 49956 57014 333 91107 91205;
0128067600999992010010911004+46167+008783FM-12+038099999V0200801N000519999999N9999999N1+00291+00171099431ADDMA1999999094981MD1810311+9999OA149900361REMSYN076AAXX  09114 06760 33/// /0801 10029 20017 39498 49943 58031 333 91107 91205;
0232067600999992010010912004+46167+008783FM-12+038099999V0201701N000510360019N0050001N1+00321+00201099291ADDAY121061AY221061GA1011+002401071GA2081+036001041GF108991011061002501071999MA1999999094851MD1810331+9999MW1101OA149900361REMSYN100AAXX  09124 06760 31350 81701 10032 20020 39485 49929 58033 71022 8167/ 333 81708 88462 91107 91205;
0128067600999992010010913004+46167+008783FM-12+038099999V0203001N001019999999N9999999N1+00371+00221099241ADDMA1999999094811MD1710291+9999OA149900361REMSYN076AAXX  09134 06760 33/// /3002 10037 20022 39481 49924 57029 333 91107 91205;
0128067600999992010010914004+46167+008783FM-12+038099999V0202901N001019999999N9999999N1+00381+00201099291ADDMA1999999094861MD1510121+9999OA149900311REMSYN076AAXX  09144 06760 33/// /2902 10038 20020 39486 49929 55012 333 91106 91204;
0204067600999992010010915004+46167+008783FM-12+038099999V0202701N003610270019N0160001N1+00521+00201099421ADDGA1011+005401071GA2081+027001041GF108991011061004501021999MA1999999095011MD1210161+9999OA149900721REMSYN094AAXX  09154 06760 32466 82707 10052 20020 39501 49942 52016 8162/ 333 81718 88459 91114 91207;
0128067600999992010010916004+46167+008783FM-12+038099999V0202501N003619999999N9999999N1+00461+00301099571ADDMA1999999095141MD1210331+9999OA149900881REMSYN076AAXX  09164 06760 33/// /2507 10046 20030 39514 49957 52033 333 91117 91208;
0145067600999992010010917004+46167+008783FM-12+038099999V0202801N003119999999N9999999N1+00411+00181099681ADDAA101002091MA1999999095241MD1210381+9999OA149900981REMSYN082AAXX  09174 06760 23/// /2806 10041 20018 39524 49968 52038 333 60025 91119 91210;
0347067600999992010010918004+46167+008783FM-12+038099999V0203001N001510042019N0060001N1+00381+00201099761ADDAA112003091AJ100089199999999AL19900091AY161061AY221061GA1021+001201071GA2031+004201071GA3081+009301051GF108991051071001501021999IA1279KA1120M+00521MA1999999095311MD1110301+9999MW1631OA149900981REMSYN142AAXX  09184 06760 01256 83003 10038 20020 39531 49976 51030 60032 76362 8572/ 333 10052 43008 60015 82704 83714 88531 90766 93100 91119 91210;
0145067600999992010010919004+46167+008783FM-12+038099999V0209999C000019999999N9999999N1+00331+00221099851ADDAA101000591MA1999999095391MD1210251+9999OA149900461REMSYN082AAXX  09194 06760 23/// /0000 10033 20022 39539 49985 52025 333 69965 91109 91205;
0145067600999992010010920004+46167+008783FM-12+038099999V0200701N001519999999N9999999N1+00291+00251099931ADDAA101000021MA1999999095461MD1210221+9999OA149900261REMSYN082AAXX  09204 06760 23/// /0703 10029 20025 39546 49993 52022 333 69915 91105 91203;
0145067600999992010010921004+46167+008783FM-12+038099999V0202801N001519999999N9999999N1+00361+00191100031ADDAA101002091MA1999999095561MD1210251+9999OA149900981REMSYN082AAXX  09214 06760 23/// /2803 10036 20019 39556 40003 52025 333 60025 91119 91210;
0145067600999992010010922004+46167+008783FM-12+038099999V0203001N001019999999N9999999N1+00321+00171100101ADDAA101000591MA1999999095621MD1110231+9999OA149900411REMSYN082AAXX  09224 06760 23/// /3002 10032 20017 39562 40010 51023 333 69965 91108 91203;
0145067600999992010010923004+46167+008783FM-12+038099999V0200301N000519999999N9999999N1+00261+00241100181ADDAA101000891MA1999999095691MD1310231+9999OA149900311REMSYN082AAXX  09234 06760 23/// /0301 10026 20024 39569 40018 53023 333 69975 91106 91204;
0151067600999992010011000004+46167+008783FM-12+038099999V0200301N000519999999N9999999N1+00251+00231100201ADDAA106004191MA1999999095711MD1210151+9999OA149900981REMSYN088AAXX  10004 06760 03/// /0301 10025 20023 39571 40020 52015 60041 333 69975 91119 91210;
0145067600999992010011001004+46167+008783FM-12+038099999V0200301N001019999999N9999999N1+00201+00191100261ADDAA101001091MA1999999095761MD1210141+9999OA149900211REMSYN082AAXX  10014 06760 23/// /0302 10020 20019 39576 40026 52014 333 60015 91104 91202;
0108067600999992010011002004+46167+008783FM-12+038099999V0200501N001019999999N9999999N1+00191+00151100361ADDAA101002091MA1999999095851REMSYN070AAXX  10024 06760 23/// /0502 10019 20015 39585 40036 5//// 333 60025;
0087067600999992010011003004+46167+008783FM-12+038099999V0200401N000519999999N9999999N1+00161+00081100431ADDMA1999999095911REMSYN060AAXX  10034 06760 43/// /0401 10016 20008 39591 40043 5////;
0145067600999992010011004004+46167+008783FM-12+038099999V0202801N000519999999N9999999N1+00181+00081100501ADDAA101000591MA1999999095981MD1110221+9999OA149900211REMSYN082AAXX  10044 06760 23/// /2801 10018 20008 39598 40050 51022 333 69945 91104 91203;
0128067600999992010011005004+46167+008783FM-12+038099999V0200401N001019999999N9999999N1+00201+00121100531ADDMA1999999096021MD1110171+9999OA149900151REMSYN076AAXX  10054 06760 33/// /0402 10020 20012 39602 40053 51017 333 91103 91202;
0384067600999992010011006004+46167+008783FM-12+038099999V0200401N000510024019N0030001N1+00221+00141100581ADDAA112008991AA224011491AJ100079199999999AL12401191AL29900091AY161061AY221061GA1011+000301071GA2081+002401071GF108991081071000251999999GJ100009IA1279IA2999+00109KA1999N+00151MA1999999096071MD1110161+9999MW1511OA149900411REMSYN154AAXX  10064 06760 01030 80401 10022 20014 39607 40058 51016 60092 75162 887// 333 20015 3/001 43007 55000 60005 70114 81701 88708 90768 93100 91108 91204;
0145067600999992010011007004+46167+008783FM-12+038099999V0202901N001019999999N9999999N1+00241+00151100651ADDAA101000021MA1999999096141MD1310161+9999OA149900151REMSYN082AAXX  10074 06760 23/// /2902 10024 20015 39614 40065 53016 333 69915 91103 91202;
0128067600999992010011008004+46167+008783FM-12+038099999V0203001N001019999999N9999999N1+00301+00111100731ADDMA1999999096221MD1319999+9999OA149900311REMSYN076AAXX  10084 06760 33/// /3002 10030 20011 39622 40073 53/// 333 91106 91203;
0264067600999992010011009004+46167+008783FM-12+038099999V0200401N000510042019N0070001N1+00251+00211100831ADDAY121031AY221031GA1041+000301071GA2031+004201071GA3081+009301061GF108991081051000251999999MA1999999096311MD1310241+9999MW1401OA149900311REMSYN116AAXX  10094 06760 31057 80401 10025 20021 39631 40083 53024 74022 885// 333 84701 83714 88631 91106 91203 444 27039;
0128067600999992010011010004+46167+008783FM-12+038099999V0209999C000019999999N9999999N1+00281+00241100901ADDMA1999999096381MD1110241+9999OA149900211REMSYN076AAXX  10104 06760 33/// /0000 10028 20024 39638 40090 51024 333 91104 91202;
0128067600999992010011011004+46167+008783FM-12+038099999V0201601N000519999999N9999999N1+00391+00301100881ADDMA1999999096381MD1210161+9999OA149900211REMSYN076AAXX  10114 06760 33/// /1601 10039 20030 39638 40088 52016 333 91104 91201;
0255067600999992010011012004+46167+008783FM-12+038099999V0201101N001510042019N0050001N1+00491+00331100841ADDAA106000021AY141061AY221061GA1031+000301071GA2051+004201061GF106991061051000251001999MA1999999096361MD1010051+9999MW1101OA149900311REMSYN112AAXX  10124 06760 01050 61103 10049 20033 39636 40084 50005 69911 71042 8650/ 333 60005 83701 85614 91106 91203;
0128067600999992010011013004+46167+008783FM-12+038099999V0201101N002119999999N9999999N1+00481+00201100831ADDMA1999999096351MD1710031+9999OA149900361REMSYN076AAXX  10134 06760 33/// /1104 10048 20020 39635 40083 57003 333 91107 91205;
0128067600999992010011014004+46167+008783FM-12+038099999V0201301N001519999999N9999999N1+00571+00221100831ADDMA1999999096361MD1519999+9999OA149900361REMSYN076AAXX  10144 06760 33/// /1303 10057 20022 39636 40083 55/// 333 91107 91205;
0182067600999992010011015004+46167+008783FM-12+038099999V0201101N000512200019N0150001N1+00461+00071100891ADDGA1031+008401061GF103991031051008001001001MA1999999096401MD1310041+9999OA149900361REMSYN088AAXX  10154 06760 32565 31101 10046 20007 39640 40089 53004 83500 333 83628 91107 91205;
0128067600999992010011016004+46167+008783FM-12+038099999V0202701N000519999999N9999999N1+00441+00161100931ADDMA1999999096441MD1310091+9999OA149900261REMSYN076AAXX  10164 06760 33/// /2701 10044 20016 39644 40093 53009 333 91105 91203;
0128067600999992010011017004+46167+008783FM-12+038099999V0209999C000519999999N9999999N1+00421+00141100991ADDMA1999999096491MD1310131+9999OA149900151REMSYN076AAXX  10174 06760 33/// /0001 10042 20014 39649 40099 53013 333 91103 91201;
0275067600999992010011018004+46167+008783FM-12+038099999V0200701N000510084019N0150001N1+00361+00211101071ADDAA112000021AJ100039199999999AL19900091GA1081+008401061GF108991081051008001999999IA1309KA1120M+00571MA1999999096561MD1310161+9999OA149900361REMSYN124AAXX  10184 06760 02565 80701 10036 20021 39656 40107 53016 69912 885// 333 10057 42003 60005 88628 90766 93100 91107 91205;
0128067600999992010011019004+46167+008783FM-12+038099999V0200501N001019999999N9999999N1+00321+00151101131ADDMA1999999096611MD1210171+9999OA149900151REMSYN076AAXX  10194 06760 33/// /0502 10032 20015 39661 40113 52017 333 91103 91202;
0128067600999992010011020004+46167+008783FM-12+038099999V0209999C000019999999N9999999N1+00331+00131101181ADDMA1999999096661MD1110171+9999OA149900151REMSYN076AAXX  10204 06760 33/// /0000 10033 20013 39666 40118 51017 333 91103 91202;
0128067600999992010011021004+46167+008783FM-12+038099999V0200601N000519999999N9999999N1+00321+00141101231ADDMA1999999096701MD1110141+9999OA149900151REMSYN076AAXX  10214 06760 33/// /0601 10032 20014 39670 40123 51014 333 91103 91202;
0128067600999992010011022004+46167+008783FM-12+038099999V0200201N001019999999N9999999N1+00351+00101101241ADDMA1999999096721MD1110111+9999OA149900151REMSYN076AAXX  10224 06760 33/// /0202 10035 20010 39672 40124 51011 333 91103 91202;
0128067600999992010011023004+46167+008783FM-12+038099999V0202201N000519999999N9999999N1+00321+00111101271ADDMA1999999096741MD1110081+9999OA149900151REMSYN076AAXX  10234 06760 33/// /2201 10032 20011 39674 40127 51008 333 91103 91202;
0128067600999992010011100004+46167+008783FM-12+038099999V0202701N000519999999N9999999N1+00291+00061101271ADDMA1999999096741MD1210041+9999OA149900361REMSYN076AAXX  11004 06760 33/// /2701 10029 20006 39674 40127 52004 333 91107 91205;
0128067600999992010011101004+46167+008783FM-12+038099999V0209999C000019999999N9999999N1+00241+00041101291ADDMA1999999096751MD1210031+9999OA149900151REMSYN076AAXX  11014 06760 33/// /0000 10024 20004 39675 40129 52003 333 91103 91202;
0128067600999992010011102004+46167+008783FM-12+038099999V0200101N001019999999N9999999N1+00241-00031101301ADDMA1999999096761MD1519999+9999OA149900261REMSYN076AAXX  11024 06760 33/// /0102 10024 21003 39676 40130 55/// 333 91105 91204;
0128067600999992010011103004+46167+008783FM-12+038099999V0200301N001519999999N9999999N1+00221-00141101321ADDMA1999999096771MD1219999+9999OA149900261REMSYN076AAXX  11034 06760 33/// /0303 10022 21014 39677 40132 52/// 333 91105 91204;
0128067600999992010011104004+46167+008783FM-12+038099999V0202901N001019999999N9999999N1+00151-00181101331ADDMA1999999096771MD1210021+9999OA149900411REMSYN076AAXX  11044 06760 33/// /2902 10015 21018 39677 40133 52002 333 91108 91203;
0128067600999992010011105004+46167+008783FM-12+038099999V0209999C000519999999N9999999N1+00081-00191101371ADDMA1999999096801MD1210041+9999OA149900411REMSYN076AAXX  11054 06760 33/// /0001 10008 21019 39680 40137 52004 333 91108 91203;
0301067600999992010011106004+46167+008783FM-12+038099999V0200901N000510270019N0250001N1+00141-00221101371ADDAA124000021AJ100039199999999AL19900091GA1051+027001031GF105991051001999999031001GJ101869IA1309IA2999-00209KA1999N+00061MA1999999096811MD1310041+9999OA149900411REMSYN130AAXX  11064 06760 32975 50901 10014 21022 39681 40137 53004 85030 333 20006 3/102 42003 55031 70001 85359 90768 93100 91108 91204;
0128067600999992010011107004+46167+008783FM-12+038099999V0200601N001519999999N9999999N1+00071-00261101411ADDMA1999999096831MD1210061+9999OA149900211REMSYN076AAXX  11074 06760 33/// /0603 10007 21026 39683 40141 52006 333 91104 91203;
0128067600999992010011108004+46167+008783FM-12+038099999V0202601N001019999999N9999999N1+00081-00271101461ADDMA1999999096881MD1219999+9999OA149900311REMSYN076AAXX  11084 06760 33/// /2602 10008 21027 39688 40146 52/// 333 91106 91204;
0182067600999992010011109004+46167+008783FM-12+038099999V0202101N001012200019N0200001N1+00231-00231101481ADDGA1011+015001071GF101991011061017501001001MA1999999096931MD1210121+9999OA149900411REMSYN088AAXX  11094 06760 32770 12102 10023 21023 39693 40148 52012 81600 333 81750 91108 91204;
0128067600999992010011110004+46167+008783FM-12+038099999V0201101N002119999999N9999999N1+00231-00301101491ADDMA1999999096941MD1119999+9999OA149900411REMSYN076AAXX  11104 06760 33/// /1104 10023 21030 39694 40149 51/// 333 91108 91205;
0128067600999992010011111004+46167+008783FM-12+038099999V0201401N001519999999N9999999N1+00371-00271101441ADDMA1999999096911MD1010031+9999OA149900411REMSYN076AAXX  11114 06760 33/// /1403 10037 21027 39691 40144 50003 333 91108 91205;
0182067600999992010011112004+46167+008783FM-12+038099999V0201201N002612200019N0300001N1+00401-00271101371ADDGA1011+013201081GF101991011011012501001051MA1999999096851MD1710081+9999OA149900411REMSYN088AAXX  11124 06760 32680 11205 10040 21027 39685 40137 57008 81105 333 81844 91108 91205;
0128067600999992010011113004+46167+008783FM-12+038099999V0201401N001519999999N9999999N1+00541-00291101291ADDMA1999999096801MD1810141+9999OA149900461REMSYN076AAXX  11134 06760 33/// /1403 10054 21029 39680 40129 58014 333 91109 91205;
0087067600999992010011114004+46167+008783FM-12+038099999V0201301N001019999999N9999999N1+00481-00321101281ADDMA1999999096781REMSYN060AAXX  11144 06760 33/// /1302 10048 21032 39678 40128 5////;
0182067600999992010011115004+46167+008783FM-12+038099999V0201901N001012200019N0300001N1+00481-00251101251ADDGA1011+012301081GF102991011011012501031051MA1999999096751MD1710101+9999OA149900461REMSYN088AAXX  11154 06760 32680 21902 10048 21025 39675 40125 57010 81135 333 81841 91109 91205;
0128067600999992010011116004+46167+008783FM-12+038099999V0200601N000519999999N9999999N1+00361-00231101281ADDMA1999999096761MD1710041+9999OA149900261REMSYN076AAXX  11164 06760 33/// /0601 10036 21023 39676 40128 57004 333 91105 91203;
0147067600999992010011117004+46167+008783FM-12+038099999V0209999C000019999999N9999999N1+00331-00201101311ADDMA1999999096781MD1310031+9999OA149900211REMSYN076AAXX  11174 06760 33/// /0000 10033 21020 39678 40131 53000 333 91104 91202;EQDQ01+000002APC3  
0252067600999992010011118004+46167+008783FM-12+038099999V0200501N000510570019N0250001N1+00321-00151101371ADDAJ100039199999999AL19900091GA1051+057001021GF105991001001999999001061IA1259KA1120M+00541MA1999999096841MD1210091+9999OA149900461REMSYN112AAXX  11184 06760 32975 50501 10032 21015 39684 40137 52009 80006 333 10054 41003 85269 90766 93100 91109 91205;
0128067600999992010011119004+46167+008783FM-12+038099999V0209999C000519999999N9999999N1+00261-00191101441ADDMA1999999096891MD1310131+9999OA149900151REMSYN076AAXX  11194 06760 33/// /0001 10026 21019 39689 40144 53013 333 91103 91203;
0128067600999992010011120004+46167+008783FM-12+038099999V0209999C000019999999N9999999N1+00241-00191101491ADDMA1999999096941MD1110161+9999OA149900101REMSYN076AAXX  11204 06760 33/// /0000 10024 21019 39694 40149 51016 333 91102 91201;
0128067600999992010011121004+46167+008783FM-12+038099999V0200301N000519999999N9999999N1+00141-00171101551ADDMA1999999096981MD1210141+9999OA149900211REMSYN076AAXX  11214 06760 33/// /0301 10014 21017 39698 40155 52014 333 91104 91203;
0128067600999992010011122004+46167+008783FM-12+038099999V0200601N001019999999N9999999N1+00181-00181101551ADDMA1999999096991MD1210101+9999OA149900151REMSYN076AAXX  11224 06760 33/// /0602 10018 21018 39699 40155 52010 333 91103 91202;
0128067600999992010011123004+46167+008783FM-12+038099999V0200301N000519999999N9999999N1+00141-00161101581ADDMA1999999097011MD1210071+9999OA149900151REMSYN076AAXX  11234 06760 33/// /0301 10014 21016 39701 40158 52007 333 91103 91202;
0128067600999992010011200004+46167+008783FM-12+038099999V0202901N000519999999N9999999N1+00141-00151101571ADDMA1999999097001MD1010021+9999OA149900461REMSYN076AAXX  12004 06760 33/// /2901 10014 21015 39700 40157 50002 333 91109 91205;
0128067600999992010011201004+46167+008783FM-12+038099999V0209999C000019999999N9999999N1+00141-00161101581ADDMA1999999097011MD1210021+9999OA149900151REMSYN076AAXX  12014 06760 33/// /0000 10014 21016 39701 40158 52002 333 91103 91202;
0128067600999992010011202004+46167+008783FM-12+038099999V0200601N000519999999N9999999N1+00161-00151101591ADDMA1999999097021MD1219999+9999OA149900151REMSYN076AAXX  12024 06760 33/// /0601 10016 21015 39702 40159 52/// 333 91103 91203;
0128067600999992010011203004+46167+008783FM-12+038099999V0200401N000519999999N9999999N1+00181-00191101601ADDMA1999999097031MD1210031+9999OA149900151REMSYN076AAXX  12034 06760 33/// /0401 10018 21019 39703 40160 52003 333 91103 91203;
0147067600999992010011204004+46167+008783FM-12+038099999V0203301N000519999999N9999999N1+00161-00201101581ADDMA1999999097011MD1410001+9999OA149900101REMSYN076AAXX  12044 06760 33/// /3301 10016 21020 39701 40158 57000 333 91102 91202;EQDQ01+000072APCTEN
0128067600999992010011205004+46167+008783FM-12+038099999V0200401N000519999999N9999999N1+00091-00211101601ADDMA1999999097021MD1010001+9999OA149900101REMSYN076AAXX  12054 06760 33/// /0401 10009 21021 39702 40160 50000 333 91102 91202;
0348067600999992010011206004+46167+008783FM-12+038099999V0200301N000510330019N0140001N1+00091-00231101621ADDAA124000091AJ100039199999999AL19900091AY111061AY211061GA1051+033001031GF105991051001999999031999GJ104029IA1259IA2999-00209KA1999N+00051MA1999999097041MD1310011+9999MW1101OA149900151REMSYN136AAXX  12064 06760 31964 50301 10009 21023 39704 40162 53001 71011 8503/ 333 20005 3/102 41003 55067 70000 85361 90768 93100 91103 91203;EQDQ01  00002PRCP24
0128067600999992010011207004+46167+008783FM-12+038099999V0203101N000519999999N9999999N1+00031-00251101651ADDMA1999999097061MD1210051+9999OA149900101REMSYN076AAXX  12074 06760 33/// /3101 10003 21025 39706 40165 52005 333 91102 91201;
0128067600999992010011208004+46167+008783FM-12+038099999V0200301N000519999999N9999999N1+00081-00241101671ADDMA1999999097081MD1219999+9999OA149900151REMSYN076AAXX  12084 06760 33/// /0301 10008 21024 39708 40167 52/// 333 91103 91202;
0232067600999992010011209004+46167+008783FM-12+038099999V0201601N001012200019N0130001N1+00191-00041101661ADDAY121031AY221031GA1011+012301081GA2031+024001031GF105991021081012501031091MA1999999097091MD1210051+9999MW1101OA149900211REMSYN100AAXX  12094 06760 31663 51602 10019 21004 39709 40166 52005 71022 82839 333 81841 83358 91104 91202;
0128067600999992010011210004+46167+008783FM-12+038099999V0201101N001519999999N9999999N1+00191-00101101661ADDMA1999999097091MD1210031+9999OA149900311REMSYN076AAXX  12104 06760 33/// /1103 10019 21010 39709 40166 52003 333 91106 91203;
0128067600999992010011211004+46167+008783FM-12+038099999V0201401N000519999999N9999999N1+00251-00101101631ADDMA1999999097071MD1810011+9999OA149900311REMSYN076AAXX  12114 06760 33/// /1401 10025 21010 39707 40163 58001 333 91106 91203;
0204067600999992010011212004+46167+008783FM-12+038099999V0201001N001010240019N0200001N1+00291-00091101561ADDGA1011+012301081GA2071+024001031GF107991011021012501051999MA1999999097011MD1710081+9999OA149900311REMSYN094AAXX  12124 06760 32670 71002 10029 21009 39701 40156 57008 8125/ 333 81841 87358 91106 91203;
0128067600999992010011213004+46167+008783FM-12+038099999V0201101N000519999999N9999999N1+00281-00081101511ADDMA1999999096961MD1710131+9999OA149900261REMSYN076AAXX  12134 06760 33/// /1101 10028 21008 39696 40151 57013 333 91105 91203;
0087067600999992010011214004+46167+008783FM-12+038099999V0201001N000519999999N9999999N1+00271-00081101491ADDMA1999999096941REMSYN060AAXX  12144 06760 33/// /1001 10027 21008 39694 40149 5////;
0182067600999992010011215004+46167+008783FM-12+038099999V0200901N000510150019N0200001N1+00231-00121101441ADDGA1081+015001061GF108991081051017501999999MA1999999096891MD1710121+9999OA149900311REMSYN088AAXX  12154 06760 32770 80901 10023 21012 39689 40144 57012 885// 333 88650 91106 91203;
0128067600999992010011216004+46167+008783FM-12+038099999V0202801N000519999999N9999999N1+00241-00091101421ADDMA1999999096871MD1710091+9999OA149900151REMSYN076AAXX  12164 06760 33/// /2801 10024 21009 39687 40142 57009 333 91103 91201;
0128067600999992010011217004+46167+008783FM-12+038099999V0202601N000519999999N9999999N1+00231-00101101411ADDMA1999999096861MD1710081+9999OA149900101REMSYN076AAXX  12174 06760 33/// /2601 10023 21010 39686 40141 57008 333 91102 91201;
0252067600999992010011218004+46167+008783FM-12+038099999V0209999C000010150019N0200001N1+00251-00171101401ADDAJ100029199999999AL19900091GA1081+015001061GF108991081051017501999999IA1259KA1120M+00331MA1999999096851MD1710041+9999OA149900311REMSYN112AAXX  12184 06760 32770 80000 10025 21017 39685 40140 57004 885// 333 10033 41002 88650 90766 93100 91106 91203;
0128067600999992010011219004+46167+008783FM-12+038099999V0201601N000519999999N9999999N1+00211-00071101431ADDMA1999999096881MD1210011+9999OA149900151REMSYN076AAXX  12194 06760 33/// /1601 10021 21007 39688 40143 52001 333 91103 91202;
0128067600999992010011220004+46167+008783FM-12+038099999V0209999C000019999999N9999999N1+00201-00051101451ADDMA1999999096891MD1210031+9999OA149900151REMSYN076AAXX  12204 06760 33/// /0000 10020 21005 39689 40145 52003 333 91103 91201;
0128067600999992010011221004+46167+008783FM-12+038099999V0200301N000519999999N9999999N1+00221-00051101411ADDMA1999999096861MD1810011+9999OA149900151REMSYN076AAXX  12214 06760 33/// /0301 10022 21005 39686 40141 58001 333 91103 91202;
0128067600999992010011222004+46167+008783FM-12+038099999V0209999C000019999999N9999999N1+00161-00011101371ADDMA1999999096811MD1810071+9999OA149900101REMSYN076AAXX  12224 06760 33/// /0000 10016 21001 39681 40137 58007 333 91102 91201;
0128067600999992010011223004+46167+008783FM-12+038099999V0200501N001519999999N9999999N1+00141-00041101291ADDMA1999999096731MD1810161+9999OA149900211REMSYN076AAXX  12234 06760 33/// /0503 10014 21004 39673 40129 58016 333 91104 91203;
0128067600999992010011300004+46167+008783FM-12+038099999V0209999C000019999999N9999999N1+00181-00091101271ADDMA1999999096721MD1710141+9999OA149900211REMSYN076AAXX  13004 06760 33/// /0000 10018 21009 39672 40127 57014 333 91104 91203;
0128067600999992010011301004+46167+008783FM-12+038099999V0200701N000519999999N9999999N1+00171-00081101221ADDMA1999999096671MD1710141+9999OA149900211REMSYN076AAXX  13014 06760 33/// /0701 10017 21008 39667 40122 57014 333 91104 91203;
0145067600999992010011302004+46167+008783FM-12+038099999V0200601N001019999999N9999999N1+00071-00031101221ADDAA101000021MA1999999096651MD1719999+9999OA149900151REMSYN082AAXX  13024 06760 23/// /0602 10007 21003 39665 40122 57/// 333 69925 91103 91202;
0145067600999992010011303004+46167+008783FM-12+038099999V0200701N000519999999N9999999N1+00041-00011101181ADDAA101000391MA1999999096611MD1819999+9999OA149900211REMSYN082AAXX  13034 06760 23/// /0701 10004 21001 39661 40118 58/// 333 69935 91104 91203;
0145067600999992010011304004+46167+008783FM-12+038099999V0200901N000519999999N9999999N1+00041+00001101151ADDAA101000021MA1999999096581MD1810091+9999OA149900211REMSYN082AAXX  13044 06760 23/// /0901 10004 20000 39658 40115 58009 333 69915 91104 91202;
0128067600999992010011305004+46167+008783FM-12+038099999V0200401N001019999999N9999999N1+00071+00011101101ADDMA1999999096541MD1610111+9999OA149900151REMSYN076AAXX  13054 06760 33/// /0402 10007 20001 39654 40110 56011 333 91103 91202;
0362067600999992010011306004+46167+008783FM-12+038099999V0201801N000510003019N0005001N1+00031+00031101121ADDAA112000892AA224000592AJ100039199999999AL13600091AL29900191AY171061AY241061GA1081+000301071GF108991081071000251999999GJ101209IA1229IA2999+00009KA1999N+00031MA1999999096551MD1510061+9999MW1771OA149900211REMSYN148AAXX  13064 06760 01005 81801 10003 20003 39655 40112 55006 69972 77774 887// 333 20003 3/000 46003 55020 69915 70006 88701 90768 93101 91104 91203;
0128067600999992010011307004+46167+008783FM-12+038099999V0200401N000519999999N9999999N1+00091+00041101131ADDMA1999999096571MD1310011+9999OA149900211REMSYN076AAXX  13074 06760 33/// /0401 10009 20004 39657 40113 53001 333 91104 91203;
0145067600999992010011308004+46167+008783FM-12+038099999V0200701N000519999999N9999999N1+00091+00051101161ADDAA101000021MA1999999096601MD1310061+9999OA149900101REMSYN082AAXX  13084 06760 23/// /0701 10009 20005 39660 40116 53006 333 69925 91102 91201;
0215067600999992010011309004+46167+008783FM-12+038099999V0201101N000510003019N0005001N1+00111+00051101191ADDAA101000021AY171031AY241031GA1091+999999999GF109991091999999999999999MA1999999096631MD1110081+9999MW1501OA149900211REMSYN088AAXX  13094 06760 21/05 91101 10011 20005 39663 40119 51008 75074 333 69915 91104 91203;
0128067600999992010011310004+46167+008783FM-12+038099999V0201301N000519999999N9999999N1+00161+00121101201ADDMA1999999096651MD1110081+9999OA149900101REMSYN076AAXX  13104 06760 33/// /1301 10016 20012 39665 40120 51008 333 91102 91201;
0128067600999992010011311004+46167+008783FM-12+038099999V0202101N000519999999N9999999N1+00221+00171101181ADDMA1999999096641MD1210041+9999OA149900151REMSYN076AAXX  13114 06760 33/// /2101 10022 20017 39664 40118 52004 333 91103 91202;
0255067600999992010011312004+46167+008783FM-12+038099999V0201601N000510084019N0050001N1+00251+00181101111ADDAA106000391AY171061AY241061GA1031+000301071GA2081+008401071GF108991081061000251999999MA1999999096581MD1810051+9999MW1101OA149900211REMSYN112AAXX  13124 06760 01050 81601 10025 20018 39658 40111 58005 69931 71074 886// 333 60005 83701 88728 91104 91203;
0128067600999992010011313004+46167+008783FM-12+038099999V0201501N000519999999N9999999N1+00291+00181101061ADDMA1999999096541MD1810111+9999OA149900151REMSYN076AAXX  13134 06760 33/// /1501 10029 20018 39654 40106 58011 333 91103 91201;
0128067600999992010011314004+46167+008783FM-12+038099999V0201901N000519999999N9999999N1+00281+00121101051ADDMA1999999096531MD1619999+9999OA149900151REMSYN076AAXX  13144 06760 33/// /1901 10028 20012 39653 40105 56/// 333 91103 91201;
0232067600999992010011315004+46167+008783FM-12+038099999V0201801N000510360019N0080001N1+00281+00051101071ADDAY121031AY221031GA1021+002401071GA2081+036001041GF108991021061002501011999MA1999999096541MD1710041+9999MW1101OA149900151REMSYN100AAXX  13154 06760 31358 81801 10028 20005 39654 40107 57004 71022 8261/ 333 82708 88462 91103 91202;
0128067600999992010011316004+46167+008783FM-12+038099999V0203101N000519999999N9999999N1+00261+00021101091ADDMA1999999096561MD1310021+9999OA149900101REMSYN076AAXX  13164 06760 33/// /3101 10026 20002 39656 40109 53002 333 91102 91201;
0128067600999992010011317004+46167+008783FM-12+038099999V0203201N001519999999N9999999N1+00261+00041101131ADDMA1999999096601MD1310071+9999OA149900211REMSYN076AAXX  13174 06760 33/// /3203 10026 20004 39660 40113 53007 333 91104 91203;
0325067600999992010011318004+46167+008783FM-12+038099999V0203101N000510360019N0100001N1+00231+00101101181ADDAA112000391AJ100019199999999AL19900091AY121061AY221061GA1031+003301071GA2081+036001041GF108991031061004501011999IA1259KA1120M+00311MA1999999096641MD1310101+9999MW1101OA149900211REMSYN136AAXX  13184 06760 01460 83101 10023 20010 39664 40118 53010 69932 71022 8361/ 333 10031 41001 60005 83711 88462 90766 93100 91104 91203;
0128067600999992010011319004+46167+008783FM-12+038099999V0203501N000519999999N9999999N1+00181+00071101201ADDMA1999999096651MD1110091+9999OA149900151REMSYN076AAXX  13194 06760 33/// /3501 10018 20007 39665 40120 51009 333 91103 91202;
0128067600999992010011320004+46167+008783FM-12+038099999V0200401N001019999999N9999999N1+00201+00061101191ADDMA1999999096651MD1210051+9999OA149900101REMSYN076AAXX  13204 06760 33/// /0402 10020 20006 39665 40119 52005 333 91102 91202;
0128067600999992010011321004+46167+008783FM-12+038099999V0209999C000019999999N9999999N1+00211+00091101201ADDMA1999999096661MD1210021+9999OA149900211REMSYN076AAXX  13214 06760 33/// /0000 10021 20009 39666 40120 52002 333 91104 91203;
0128067600999992010011322004+46167+008783FM-12+038099999V0200401N000519999999N9999999N1+00221+00051101201ADDMA1999999096661MD1210011+9999OA149900151REMSYN076AAXX  13224 06760 33/// /0401 10022 20005 39666 40120 52001 333 91103 91202;
0128067600999992010011323004+46167+008783FM-12+038099999V0203201N000519999999N9999999N1+00171+00021101201ADDMA1999999096651MD1710011+9999OA149900101REMSYN076AAXX  13234 06760 33/// /3201 10017 20002 39665 40120 57000 333 91102 91202;
0128067600999992010011400004+46167+008783FM-12+038099999V0203401N000519999999N9999999N1+00101-00011101201ADDMA1999999096641MD1710021+9999OA149900211REMSYN076AAXX  14004 06760 33/// /3401 10010 21001 39664 40120 57002 333 91104 91203;
0128067600999992010011401004+46167+008783FM-12+038099999V0209999C000019999999N9999999N1+00171-00011101181ADDMA1999999096631MD1710031+9999OA149900151REMSYN076AAXX  14014 06760 33/// /0000 10017 21001 39663 40118 57003 333 91103 91202;
0128067600999992010011402004+46167+008783FM-12+038099999V0209999C000019999999N9999999N1+00151+00081101181ADDMA1999999096631MD1719999+9999OA149900151REMSYN076AAXX  14024 06760 33/// /0000 10015 20008 39663 40118 57/// 333 91103 91202;
0087067600999992010011403004+46167+008783FM-12+038099999V0200101N000519999999N9999999N1+00131+00041101191ADDMA1999999096631REMSYN060AAXX  14034 06760 33/// /0101 10013 20004 39663 40119 5////;
0128067600999992010011404004+46167+008783FM-12+038099999V0201301N000519999999N9999999N1+00101+00031101191ADDMA1999999096631MD1010001+9999OA149900101REMSYN076AAXX  14044 06760 33/// /1301 10010 20003 39663 40119 50000 333 91102 91201;
0128067600999992010011405004+46167+008783FM-12+038099999V0209999C000019999999N9999999N1+00101-00021101181ADDMA1999999096621MD1010011+9999OA149900101REMSYN076AAXX  14054 06760 33/// /0000 10010 21002 39662 40118 50001 333 91102 91201;
0328067600999992010011406004+46167+008783FM-12+038099999V0202501N000510132019N0080001N1+00101-00031101181ADDAA124000591AL19900091AY121061AY221061GA1021+006301071GA2081+013201061GF108991081051008001999999GJ100009IA1099IA2999-00109KA1999N+00071MA1999999096621MD1710011+9999MW1101OA149900151REMSYN136AAXX  14064 06760 31558 82501 10010 21003 39662 40118 57001 71022 885// 333 20007 31101 55000 70004 82721 88644 90768 93100 91103 91202;
0128067600999992010011407004+46167+008783FM-12+038099999V0201201N000519999999N9999999N1+00141-00051101181ADDMA1999999096631MD1510001+9999OA149900151REMSYN076AAXX  14074 06760 33/// /1201 10014 21005 39663 40118 55000 333 91103 91202;
0128067600999992010011408004+46167+008783FM-12+038099999V0200501N000519999999N9999999N1+00141-00021101231ADDMA1999999096671MD1219999+9999OA149900101REMSYN076AAXX  14084 06760 33/// /0501 10014 21002 39667 40123 52/// 333 91102 91201;
0210067600999992010011409004+46167+008783FM-12+038099999V0201301N000510144019N0090001N1+00121+00021101231ADDAY121031AY221031GA1081+014401061GF108991081051012501999999MA1999999096671MD1210051+9999MW1101OA149900151REMSYN094AAXX  14094 06760 31659 81301 10012 20002 39667 40123 52005 71022 885// 333 88648 91103 91202;
0128067600999992010011410004+46167+008783FM-12+038099999V0209999C000019999999N9999999N1+00201+00051101251ADDMA1999999096701MD1210071+9999OA149900101REMSYN076AAXX  14104 06760 33/// /0000 10020 20005 39670 40125 52007 333 91102 91202;
0128067600999992010011411004+46167+008783FM-12+038099999V0201101N000519999999N9999999N1+00211-00031101201ADDMA1999999096661MD1810011+9999OA149900101REMSYN076AAXX  14114 06760 33/// /1101 10021 21003 39666 40120 58001 333 91102 91202;
0210067600999992010011412004+46167+008783FM-12+038099999V0209999C000010150019N0040001N1+00231+00021101151ADDAY121061AY221061GA1081+015001061GF108991081051017501999999MA1999999096611MD1710061+9999MW1101OA149900151REMSYN094AAXX  14124 06760 31740 80000 10023 20002 39661 40115 57006 71022 885// 333 88650 91103 91202;
0128067600999992010011413004+46167+008783FM-12+038099999V0200301N000519999999N9999999N1+00271+00031101121ADDMA1999999096591MD1710111+9999OA149900151REMSYN076AAXX  14134 06760 33/// /0301 10027 20003 39659 40112 57011 333 91103 91201;
0128067600999992010011414004+46167+008783FM-12+038099999V0201801N000519999999N9999999N1+00291-00021101131ADDMA1999999096601MD1710061+9999OA149900151REMSYN076AAXX  14144 06760 33/// /1801 10029 21002 39660 40113 57006 333 91103 91201;
0210067600999992010011415004+46167+008783FM-12+038099999V0201101N000510180019N0120001N1+00281-00011101111ADDAY111031AY211031GA1071+018001061GF107991071051017501031999MA1999999096581MD1710031+9999MW1101OA149900151REMSYN094AAXX  14154 06760 31762 71101 10028 21001 39658 40111 57003 71011 8753/ 333 87656 91103 91202;
0128067600999992010011416004+46167+008783FM-12+038099999V0200601N001519999999N9999999N1+00261-00041101111ADDMA1999999096581MD1810011+9999OA149900151REMSYN076AAXX  14164 06760 33/// /0603 10026 21004 39658 40111 58001 333 91103 91203;
0128067600999992010011417004+46167+008783FM-12+038099999V0203201N000519999999N9999999N1+00191-00081101191ADDMA1999999096641MD1310041+9999OA149900151REMSYN076AAXX  14174 06760 33/// /3201 10019 21008 39664 40119 53004 333 91103 91203;
0263067600999992010011418004+46167+008783FM-12+038099999V0202901N000512200019N0140001N1+00221-00151101241ADDAL19900091AY111061AY211061GA1041+027001031GF104991041001999999031999IA1099KA1120M+00291MA1999999096701MD1210121+9999MW1101OA149900151REMSYN118AAXX  14184 06760 31964 42901 10022 21015 39670 40124 52012 71011 8403/ 333 10029 31/// 84359 90766 93100 91103 91203;
0128067600999992010011419004+46167+008783FM-12+038099999V0202901N000519999999N9999999N1+00211-00151101331ADDMA1999999096781MD1310201+9999OA149900151REMSYN076AAXX  14194 06760 33/// /2901 10021 21015 39678 40133 53020 333 91103 91202;
0128067600999992010011420004+46167+008783FM-12+038099999V0200501N000519999999N9999999N1+00141-00121101401ADDMA1999999096841MD1310201+9999OA149900101REMSYN076AAXX  14204 06760 33/// /0501 10014 21012 39684 40140 53020 333 91102 91202;
0128067600999992010011421004+46167+008783FM-12+038099999V0209999C000019999999N9999999N1+00201-00091101491ADDMA1999999096931MD1210231+9999OA149900151REMSYN076AAXX  14214 06760 33/// /0000 10020 21009 39693 40149 52023 333 91103 91203;
0128067600999992010011422004+46167+008783FM-12+038099999V0200501N000519999999N9999999N1+00151-00061101541ADDMA1999999096971MD1110191+9999OA149900101REMSYN076AAXX  14224 06760 33/// /0501 10015 21006 39697 40154 51019 333 91102 91201;
0128067600999992010011423004+46167+008783FM-12+038099999V0200401N001019999999N9999999N1+00111-00111101581ADDMA1999999097001MD1110161+9999OA149900211REMSYN076AAXX  14234 06760 33/// /0402 10011 21011 39700 40158 51016 333 91104 91203;
0128067600999992010011500004+46167+008783FM-12+038099999V0209999C000019999999N9999999N1+00101-00121101561ADDMA1999999096981MD1010051+9999OA149900211REMSYN076AAXX  15004 06760 33/// /0000 10010 21012 39698 40156 50005 333 91104 91203;
0147067600999992010011501004+46167+008783FM-12+038099999V0203101N001019999999N9999999N1+00071-00181101551ADDMA1999999096971MD1810011+9999OA149900151REMSYN076AAXX  15014 06760 33/// /3102 10007 21018 39697 40155 58000 333 91103 91202;EQDQ01+000002APC3  
0128067600999992010011502004+46167+008783FM-12+038099999V0203601N000519999999N9999999N1+00041-00221101611ADDMA1999999097021MD1310021+9999OA149900211REMSYN076AAXX  15024 06760 33/// /3601 10004 21022 39702 40161 53002 333 91104 91203;
0087067600999992010011503004+46167+008783FM-12+038099999V0200401N000519999999N9999999N1+00031-00221101651ADDMA1999999097061REMSYN060AAXX  15034 06760 33/// /0401 10003 21022 39706 40165 5////;
0128067600999992010011504004+46167+008783FM-12+038099999V0200601N001019999999N9999999N1+00011-00221101681ADDMA1999999097081MD1110111+9999OA149900151REMSYN076AAXX  15044 06760 33/// /0602 10001 21022 39708 40168 51011 333 91103 91202;
0128067600999992010011505004+46167+008783FM-12+038099999V0209999C000019999999N9999999N1+00001-00261101711ADDMA1999999097111MD1310091+9999OA149900211REMSYN076AAXX  15054 06760 33/// /0000 10000 21026 39711 40171 53009 333 91104 91203;
0308067600999992010011506004+46167+008783FM-12+038099999V0200301N000512200019N0500001N1-00041-00271101781ADDAA124000091AJ100019199999999AL19900091GA1001+999999999GF100991001001999999001001GJ100009IA1259IA2999-00409KA1999N-00041MA1999999097171MD1310111+9999OA149900211REMSYN118AAXX  15064 06760 32984 00301 11004 21027 39717 40178 53011 333 21004 3/104 41001 55000 70000 90768 93100 91104 91203;EQDQ01  00002PRCP24
0128067600999992010011507004+46167+008783FM-12+038099999V0209999C000019999999N9999999N1-00031-00281101891ADDMA1999999097281MD1310201+9999OA149900101REMSYN076AAXX  15074 06760 33/// /0000 11003 21028 39728 40189 53020 333 91102 91201;
0128067600999992010011508004+46167+008783FM-12+038099999V0209999C000019999999N9999999N1+00041-00261101971ADDMA1999999097361MD1319999+9999OA149900101REMSYN076AAXX  15084 06760 33/// /0000 10004 21026 39736 40197 53/// 333 91102 91201;
0254067600999992010011509004+46167+008783FM-12+038099999V0201001N001010570019N0120001N1+00051-00131102041ADDAY111031AY211031GA1011+024001031GA2031+027001041GA3051+057001021GF107991041001022501071061MA1999999097431MD1110261+9999MW1101OA149900211REMSYN106AAXX  15094 06760 31862 71002 10005 21013 39743 40204 51026 71011 84076 333 81358 83459 85269 91104 91203;
0128067600999992010011510004+46167+008783FM-12+038099999V0200801N001019999999N9999999N1+00121-00171102081ADDMA1999999097481MD1110201+9999OA149900151REMSYN076AAXX  15104 06760 33/// /0802 10012 21017 39748 40208 51020 333 91103 91202;
0128067600999992010011511004+46167+008783FM-12+038099999V0201401N001519999999N9999999N1+00331-00171102041ADDMA1999999097481MD1210121+9999OA149900261REMSYN076AAXX  15114 06760 33/// /1403 10033 21017 39748 40204 52012 333 91105 91203;
0267067600999992010011512004+46167+008783FM-12+038099999V0201401N001512200019N0120001N1+00441-00151101971ADDAY111061AY211061GA1011+007201061GA2031+045001041GF103991011051008001011021MA1999999097431MD1710071+9999MW1101OA149900311REMSYN100AAXX  15124 06760 31562 31403 10044 21015 39743 40197 58000 71011 81512 333 81624 83465 91106 91203;EQDQ01+000082APCTENQ02+000002APC3  
0128067600999992010011513004+46167+008783FM-12+038099999V0201701N001019999999N9999999N1+00471-00281101961ADDMA1999999097431MD1710051+9999OA149900311REMSYN076AAXX  15134 06760 33/// /1702 10047 21028 39743 40196 57005 333 91106 91203;
0128067600999992010011514004+46167+008783FM-12+038099999V0201301N001019999999N9999999N1+00541-00221101971ADDMA1999999097451MD1510031+9999OA149900311REMSYN076AAXX  15144 06760 33/// /1302 10054 21022 39745 40197 55003 333 91106 91203;
0204067600999992010011515004+46167+008783FM-12+038099999V0201401N000512200019N0250001N1+00491-00281102041ADDGA1011+039001031GA2031+057001001GF103991011001999999041021MA1999999097511MD1310081+9999OA149900311REMSYN094AAXX  15154 06760 32975 31401 10049 21028 39751 40204 53008 81042 333 81363 83069 91106 91203;
0128067600999992010011516004+46167+008783FM-12+038099999V0200601N001019999999N9999999N1+00371-00191102161ADDMA1999999097601MD1310171+9999OA149900211REMSYN076AAXX  15164 06760 33/// /0602 10037 21019 39760 40216 53017 333 91104 91203;
0128067600999992010011517004+46167+008783FM-12+038099999V0203201N000519999999N9999999N1+00291-00191102251ADDMA1999999097671MD1110221+9999OA149900151REMSYN076AAXX  15174 06760 33/// /3201 10029 21019 39767 40225 51022 333 91103 91203;
0235067600999992010011518004+46167+008783FM-12+038099999V0200301N001012200019N0350001N1+00251-00231102301ADDAL19900091GA1021+066001001GF102991001001999999001011IA1019KA1120M+00581MA1999999097711MD1110201+9999OA149900311REMSYN112AAXX  15184 06760 32981 20302 10025 21023 39771 40230 51020 80001 333 10058 30/// 82072 90766 93100 91106 91203;
0128067600999992010011519004+46167+008783FM-12+038099999V0200301N001019999999N9999999N1+00231-00271102361ADDMA1999999097771MD1110171+9999OA149900151REMSYN076AAXX  15194 06760 33/// /0302 10023 21027 39777 40236 51017 333 91103 91202;
0128067600999992010011520004+46167+008783FM-12+038099999V0209999C000019999999N9999999N1+00171-00271102411ADDMA1999999097811MD1110141+9999OA149900151REMSYN076AAXX  15204 06760 33/// /0000 10017 21027 39781 40241 51014 333 91103 91202;
0128067600999992010011521004+46167+008783FM-12+038099999V0203201N000519999999N9999999N1+00101-00261102481ADDMA1999999097861MD1110151+9999OA149900151REMSYN076AAXX  15214 06760 33/// /3201 10010 21026 39786 40248 51015 333 91103 91203;
0128067600999992010011522004+46167+008783FM-12+038099999V0200401N000519999999N9999999N1+00111-00231102551ADDMA1999999097931MD1310161+9999OA149900151REMSYN076AAXX  15224 06760 33/// /0401 10011 21023 39793 40255 53016 333 91103 91201;
0128067600999992010011523004+46167+008783FM-12+038099999V0209999C000019999999N9999999N1+00081-00251102621ADDMA1999999097991MD1310181+9999OA149900101REMSYN076AAXX  15234 06760 33/// /0000 10008 21025 39799 40262 53018 333 91102 91201;
0128067600999992010011600004+46167+008783FM-12+038099999V0200301N001019999999N9999999N1-00041-00261102641ADDMA1999999097991MD1210131+9999OA149900311REMSYN076AAXX  16004 06760 33/// /0302 11004 21026 39799 40264 52013 333 91106 91203;
0128067600999992010011601004+46167+008783FM-12+038099999V0200501N000519999999N9999999N1+00041-00281102631ADDMA1999999097991MD1010061+9999OA149900151REMSYN076AAXX  16014 06760 33/// /0501 10004 21028 39799 40263 50006 333 91103 91202;
0128067600999992010011602004+46167+008783FM-12+038099999V0203001N001019999999N9999999N1+00041-00311102641ADDMA1999999098001MD1210011+9999OA149900151REMSYN076AAXX  16024 06760 33/// /3002 10004 21031 39800 40264 52001 333 91103 91202;
0128067600999992010011603004+46167+008783FM-12+038099999V0203601N001019999999N9999999N1+00041-00321102661ADDMA1999999098021MD1219999+9999OA149900211REMSYN076AAXX  16034 06760 33/// /3602 10004 21032 39802 40266 52/// 333 91104 91203;
0128067600999992010011604004+46167+008783FM-12+038099999V0200301N001019999999N9999999N1-00031-00331102641ADDMA1999999097991MD1010001+9999OA149900211REMSYN076AAXX  16044 06760 33/// /0302 11003 21033 39799 40264 50000 333 91104 91203;
0128067600999992010011605004+46167+008783FM-12+038099999V0203201N001019999999N9999999N1+00001-00351102631ADDMA1999999097991MD1710011+9999OA149900211REMSYN076AAXX  16054 06760 33/// /3202 10000 21035 39799 40263 57001 333 91104 91203;
0285067600999992010011606004+46167+008783FM-12+038099999V0209999C000012200019N0550001N1-00071-00381102671ADDAA124000091AL19900091GA1001+999999999GF100991001001999999001001GJ103309IA1149IA2999-00409KA1999N-00061MA1999999098011MD1010011+9999OA149900211REMSYN112AAXX  16064 06760 32985 00000 11007 21038 39801 40267 50001 333 21006 34104 55055 70000 90768 93100 91104 91203;EQDQ01  00002PRCP24
0128067600999992010011607004+46167+008783FM-12+038099999V0200501N000519999999N9999999N1-00031-00391102721ADDMA1999999098071MD1310081+9999OA149900211REMSYN076AAXX  16074 06760 33/// /0501 11003 21039 39807 40272 53008 333 91104 91203;
0128067600999992010011608004+46167+008783FM-12+038099999V0202601N000519999999N9999999N1-00091-00361102741ADDMA1999999098081MD1210091+9999OA149900211REMSYN076AAXX  16084 06760 33/// /2601 11009 21036 39808 40274 52009 333 91104 91203;
0170067600999992010011609004+46167+008783FM-12+038099999V0201701N000512200019N0250001N1+00051-00291102731ADDGA1001+999999999GF100991001001999999001001MA1999999098091MD1210081+9999OA149900211REMSYN076AAXX  16094 06760 32975 01701 10005 21029 39809 40273 52008 333 91104 91203;
0128067600999992010011610004+46167+008783FM-12+038099999V0201601N001519999999N9999999N1+00271-00261102691ADDMA1999999098091MD1010021+9999OA149900261REMSYN076AAXX  16104 06760 33/// /1603 10027 21026 39809 40269 50002 333 91105 91203;
0128067600999992010011611004+46167+008783FM-12+038099999V0201701N001019999999N9999999N1+00301-00241102661ADDMA1999999098071MD1710011+9999OA149900311REMSYN076AAXX  16114 06760 33/// /1702 10030 21024 39807 40266 57001 333 91106 91203;
0182067600999992010011612004+46167+008783FM-12+038099999V0201601N001012200019N0200001N1+00421-00191102561ADDGA1011+021001061GF102991011051022501001051MA1999999097991MD1710101+9999OA149900361REMSYN088AAXX  16124 06760 32870 21602 10042 21019 39799 40256 57010 81505 333 81657 91107 91203;
0128067600999992010011613004+46167+008783FM-12+038099999V0201901N001019999999N9999999N1+00351-00221102531ADDMA1999999097951MD1710141+9999OA149900361REMSYN076AAXX  16134 06760 33/// /1902 10035 21022 39795 40253 57014 333 91107 91203;
0128067600999992010011614004+46167+008783FM-12+038099999V0202501N001519999999N9999999N1+00311-00031102521ADDMA1999999097931MD1719999+9999OA149900361REMSYN076AAXX  16144 06760 33/// /2503 10031 21003 39793 40252 57/// 333 91107 91204;
0232067600999992010011615004+46167+008783FM-12+038099999V0202501N002110270019N0100001N1+00301+00031102501ADDAY111031AY211031GA1021+004201071GA2081+027001041GF108991021061004501021999MA1999999097911MD1710081+9999MW1101OA149900411REMSYN100AAXX  16154 06760 31460 82504 10030 20003 39791 40250 57008 71011 8262/ 333 82714 88459 91108 91205;
0128067600999992010011616004+46167+008783FM-12+038099999V0209999C000019999999N9999999N1+00251-00041102521ADDMA1999999097921MD1510031+9999OA149900411REMSYN076AAXX  16164 06760 33/// /0000 10025 21004 39792 40252 55003 333 91108 91205;
0128067600999992010011617004+46167+008783FM-12+038099999V0200501N000519999999N9999999N1+00221-00091102491ADDMA1999999097891MD1710041+9999OA149900261REMSYN076AAXX  16174 06760 33/// /0501 10022 21009 39789 40249 57004 333 91105 91203;
0263067600999992010011618004+46167+008783FM-12+038099999V0200601N001010072019N0090001N1+00201-00181102521ADDAL19900091AY111061AY211061GA1081+007201061GF108991081051008001999999IA1019KA1120M+00421MA1999999097921MD1510011+9999MW1101OA149900411REMSYN118AAXX  16184 06760 31559 80602 10020 21018 39792 40252 55001 71011 885// 333 10042 30/// 88624 90766 93100 91108 91205;
0128067600999992010011619004+46167+008783FM-12+038099999V0200501N000519999999N9999999N1+00231-00161102511ADDMA1999999097911MD1010011+9999OA149900151REMSYN076AAXX  16194 06760 33/// /0501 10023 21016 39791 40251 50001 333 91103 91202;
0128067600999992010011620004+46167+008783FM-12+038099999V0203001N000519999999N9999999N1+00221-00181102531ADDMA1999999097931MD1210041+9999OA149900151REMSYN076AAXX  16204 06760 33/// /3001 10022 21018 39793 40253 52004 333 91103 91202;
0128067600999992010011621004+46167+008783FM-12+038099999V0202801N000519999999N9999999N1+00241-00011102501ADDMA1999999097901MD1710021+9999OA149900261REMSYN076AAXX  16214 06760 33/// /2801 10024 21001 39790 40250 57002 333 91105 91203;
0128067600999992010011622004+46167+008783FM-12+038099999V0202701N001519999999N9999999N1+00261+00021102451ADDMA1999999097861MD1810051+9999OA149900511REMSYN076AAXX  16224 06760 33/// /2703 10026 20002 39786 40245 58005 333 91110 91204;
0128067600999992010011623004+46167+008783FM-12+038099999V0202601N002619999999N9999999N1+00241+00061102411ADDMA1999999097821MD1710111+9999OA149900511REMSYN076AAXX  16234 06760 33/// /2605 10024 20006 39782 40241 57011 333 91110 91205;
0128067600999992010011700004+46167+008783FM-12+038099999V0202701N001519999999N9999999N1+00251+00031102371ADDMA1999999097781MD1710121+9999OA149900511REMSYN076AAXX  17004 06760 33/// /2703 10025 20003 39778 40237 57012 333 91110 91205;
0128067600999992010011701004+46167+008783FM-12+038099999V0200601N001019999999N9999999N1+00191-00021102431ADDMA1999999097831MD1510031+9999OA149900511REMSYN076AAXX  17014 06760 33/// /0602 10019 21002 39783 40243 55003 333 91110 91205;
0128067600999992010011702004+46167+008783FM-12+038099999V0200501N001519999999N9999999N1+00201-00091102401ADDMA1999999097801MD1219999+9999OA149900361REMSYN076AAXX  17024 06760 33/// /0503 10020 21009 39780 40240 52/// 333 91107 91203;
