0140067710999992011010100004+45833+008917FM-12+035699999V0209999C000019999999N9999999N1-00231-00291102431ADDMA1999999098001MD1810011+9999OA149900151REMSYN088AAXX  01004 06771 33/// /0000 11023 21029 39800 40243 58001 333 55300 20000 91103 91202;
0140067710999992011010101004+45833+008917FM-12+035699999V0209999C000019999999N9999999N1-00251-00301102401ADDMA1999999097971MD1710051+9999OA149900101REMSYN088AAXX  01014 06771 33/// /0000 11025 21030 39797 40240 57005 333 55300 20000 91102 91202;
0140067710999992011010102004+45833+008917FM-12+035699999V0202301N000519999999N9999999N1-00201-00271102421ADDMA1999999097991MD1510041+9999OA149900101REMSYN088AAXX  01024 06771 33/// /2301 11020 21027 39799 40242 55004 333 55300 20000 91102 91202;
0140067710999992011010103004+45833+008917FM-12+035699999V0202401N000519999999N9999999N1-00161-00231102401ADDMA1999999097981MD1710021+9999OA149900101REMSYN088AAXX  01034 06771 33/// /2401 11016 21023 39798 40240 57002 333 55300 20000 91102 91202;
0140067710999992011010104004+45833+008917FM-12+035699999V0202401N000519999999N9999999N1-00131-00201102331ADDMA1999999097921MD1710051+9999OA149900101REMSYN088AAXX  01044 06771 33/// /2401 11013 21020 39792 40233 57005 333 55300 20000 91102 91201;
0140067710999992011010105004+45833+008917FM-12+035699999V0202401N000519999999N9999999N1-00081-00171102291ADDMA1999999097891MD1810101+9999OA149900151REMSYN088AAXX  01054 06771 33/// /2401 11008 21017 39789 40229 58010 333 55300 20000 91103 91202;
0207067710999992011010106004+45833+008917FM-12+035699999V0202401N000519999999N9999999N1-00141-00201102261ADDAL19900091GJ103849IA2999-00609KA1999N-00371MA1999999097851MD1610131+9999OA149900151REMSYN112AAXX  01064 06771 33/// /2401 11014 21020 39785 40226 56013 333 21037 3/106 55064 55300 20000 70000 91103 91202;
0140067710999992011010107004+45833+008917FM-12+035699999V0202401N001019999999N9999999N1-00321-00401102291ADDMA1999999097851MD1610071+9999OA149900151REMSYN088AAXX  01074 06771 33/// /2402 11032 21040 39785 40229 56007 333 55300 20000 91103 91202;
0140067710999992011010108004+45833+008917FM-12+035699999V0202301N000519999999N9999999N1-00351-00431102281ADDMA1999999097841MD1719999+9999OA149900151REMSYN088AAXX  01084 06771 33/// /2301 11035 21043 39784 40228 57/// 333 55300 20043 91103 91202;
0087067710999992011010109004+45833+008917FM-12+035699999V0202201N000519999999N9999999N1-00151-00231102231ADDMA1999999097821REMSYN060AAXX  01094 06771 43/// /2201 11015 21023 39782 40223 5////;
0087067710999992011010110004+45833+008917FM-12+035699999V0200801N000519999999N9999999N1+00141-00061102141ADDMA1999999097781REMSYN060AAXX  01104 06771 43/// /0801 10014 21006 39778 40214 5////;
0140067710999992011010111004+45833+008917FM-12+035699999V0200801N001019999999N9999999N1+00321-00061102061ADDMA1999999097731MD1810111+9999OA149900151REMSYN088AAXX  01114 06771 33/// /0802 10032 21006 39773 40206 58011 333 553// 2//// 91103 91202;
0087067710999992011010112004+45833+008917FM-12+035699999V0202101N000519999999N9999999N1+00531-00131101921ADDMA1999999097631REMSYN060AAXX  01124 06771 43/// /2101 10053 21013 39763 40192 5////;
0087067710999992011010113004+45833+008917FM-12+035699999V0202401N002119999999N9999999N1+00601-00101101801ADDMA1999999097531REMSYN060AAXX  01134 06771 43/// /2404 10060 21010 39753 40180 5////;
0087067710999992011010114004+45833+008917FM-12+035699999V0202501N001519999999N9999999N1+00591-00091101761ADDMA1999999097491REMSYN060AAXX  01144 06771 43/// /2503 10059 21009 39749 40176 5////;
0087067710999992011010115004+45833+008917FM-12+035699999V0202501N001519999999N9999999N1+00431-00101101781ADDMA1999999097481REMSYN060AAXX  01154 06771 43/// /2503 10043 21010 39748 40178 5////;
0087067710999992011010116004+45833+008917FM-12+035699999V0202401N001019999999N9999999N1+00021-00171101831ADDMA1999999097471REMSYN060AAXX  01164 06771 43/// /2402 10002 21017 39747 40183 5////;
0087067710999992011010117004+45833+008917FM-12+035699999V0209999C000019999999N9999999N1-00151-00251101861ADDMA1999999097471REMSYN060AAXX  01174 06771 43/// /0000 11015 21025 39747 40186 5////;
0087067710999992011010118004+45833+008917FM-12+035699999V0202401N000519999999N9999999N1-00211-00281101831ADDMA1999999097431REMSYN060AAXX  01184 06771 43/// /2401 11021 21028 39743 40183 5////;
0103067710999992011010119004+45833+008917FM-12+035699999V0202101N000519999999N9999999N1-00261-00341101841ADDMA1999999097431REMSYN076AAXX  01194 06771 33/// /2101 11026 21034 39743 40184 5//// 333 553// 20000;
0140067710999992011010120004+45833+008917FM-12+035699999V0202301N000519999999N9999999N1-00281-00351101821ADDMA1999999097411MD1710061+9999OA149900151REMSYN088AAXX  01204 06771 33/// /2301 11028 21035 39741 40182 57006 333 55300 20000 91103 91202;
0140067710999992011010121004+45833+008917FM-12+035699999V0202401N000519999999N9999999N1-00331-00401101821ADDMA1999999097401MD1710031+9999OA149900151REMSYN088AAXX  01214 06771 33/// /2401 11033 21040 39740 40182 57003 333 55300 20000 91103 91202;
0140067710999992011010122004+45833+008917FM-12+035699999V0202301N000519999999N9999999N1-00391-00471101811ADDMA1999999097381MD1710051+9999OA149900101REMSYN088AAXX  01224 06771 33/// /2301 11039 21047 39738 40181 57005 333 55300 20000 91102 91201;
0140067710999992011010123004+45833+008917FM-12+035699999V0202301N000519999999N9999999N1-00431-00491101761ADDMA1999999097331MD1710081+9999OA149900101REMSYN088AAXX  01234 06771 33/// /2301 11043 21049 39733 40176 57008 333 55300 20000 91102 91202;
0140067710999992011010200004+45833+008917FM-12+035699999V0202401N000519999999N9999999N1-00441-00511101721ADDMA1999999097291MD1810111+9999OA149900361REMSYN088AAXX  02004 06771 33/// /2401 11044 21051 39729 40172 58011 333 55300 20000 91107 91204;
0140067710999992011010201004+45833+008917FM-12+035699999V0202801N000519999999N9999999N1-00431-00491101691ADDMA1999999097261MD1810121+9999OA149900101REMSYN088AAXX  02014 06771 33/// /2801 11043 21049 39726 40169 58012 333 55300 20000 91102 91202;
0087067710999992011010202004+45833+008917FM-12+035699999V0202401N000519999999N9999999N1-00521-00611101701ADDMA1999999097251REMSYN060AAXX  02024 06771 43/// /2401 11052 21061 39725 40170 5////;
0087067710999992011010203004+45833+008917FM-12+035699999V0202501N000519999999N9999999N1-00551-00631101661ADDMA1999999097211REMSYN060AAXX  02034 06771 43/// /2501 11055 21063 39721 40166 5////;
0087067710999992011010204004+45833+008917FM-12+035699999V0202301N000519999999N9999999N1-00441-00441101611ADDMA1999999097181REMSYN060AAXX  02044 06771 43/// /2301 11044 21044 39718 40161 5////;
0087067710999992011010205004+45833+008917FM-12+035699999V0202301N000519999999N9999999N1-00531-00581101601ADDMA1999999097161REMSYN060AAXX  02054 06771 43/// /2301 11053 21058 39716 40160 5////;
0134067710999992011010206004+45833+008917FM-12+035699999V0202201N000519999999N9999999N1-00481-00591101601ADDIA2999-00709KA1999N-00551MA1999999097161REMSYN082AAXX  02064 06771 43/// /2201 11048 21059 39716 40160 5//// 333 21055 3/107 55064;
0140067710999992011010207004+45833+008917FM-12+035699999V0209999C000019999999N9999999N1-00431-00431101621ADDMA1999999097191MD1310011+9999OA149900101REMSYN088AAXX  02074 06771 33/// /0000 11043 21043 39719 40162 53001 333 55300 20000 91102 91201;
0140067710999992011010208004+45833+008917FM-12+035699999V0209999C000019999999N9999999N1-00371-00371101651ADDMA1999999097231MD1310071+9999OA149900101REMSYN088AAXX  02084 06771 33/// /0000 11037 21037 39723 40165 53007 333 55300 20036 91102 91201;
0140067710999992011010209004+45833+008917FM-12+035699999V0202101N000519999999N9999999N1-00351-00351101681ADDMA1999999097261MD1310101+9999OA149900151REMSYN088AAXX  02094 06771 33/// /2101 11035 21035 39726 40168 53010 333 55300 20248 91103 91201;
0140067710999992011010210004+45833+008917FM-12+035699999V0200701N001019999999N9999999N1-00091-00151101671ADDMA1999999097291MD1110101+9999OA149900151REMSYN088AAXX  02104 06771 33/// /0702 11009 21015 39729 40167 51010 333 55308 20752 91103 91202;
0140067710999992011010211004+45833+008917FM-12+035699999V0201001N000519999999N9999999N1+00131-00021101601ADDMA1999999097261MD1010031+9999OA149900151REMSYN088AAXX  02114 06771 33/// /1001 10013 21002 39726 40160 50003 333 553// 2//// 91103 91202;
0140067710999992011010212004+45833+008917FM-12+035699999V0200601N001019999999N9999999N1+00321+00031101521ADDMA1999999097221MD1710041+9999OA149900151REMSYN088AAXX  02124 06771 33/// /0602 10032 20003 39722 40152 57004 333 55309 2//// 91103 91202;
0140067710999992011010213004+45833+008917FM-12+035699999V0201901N001019999999N9999999N1+00381+00001101461ADDMA1999999097171MD1710121+9999OA149900151REMSYN088AAXX  02134 06771 33/// /1902 10038 20000 39717 40146 57012 333 55301 20490 91103 91202;
0103067710999992011010214004+45833+008917FM-12+035699999V0202101N001019999999N9999999N1+00361-00061101491ADDMA1999999097191REMSYN076AAXX  02144 06771 33/// /2102 10036 21006 39719 40149 5//// 333 553// 20356;
0140067710999992011010215004+45833+008917FM-12+035699999V0201501N000519999999N9999999N1+00321-00041101541ADDMA1999999097241MD1310021+9999OA149900311REMSYN088AAXX  02154 06771 33/// /1501 10032 21004 39724 40154 53002 333 55300 20140 91106 91204;
0140067710999992011010216004+45833+008917FM-12+035699999V0209999C000019999999N9999999N1+00181+00011101631ADDMA1999999097301MD1210131+9999OA149900151REMSYN088AAXX  02164 06771 33/// /0000 10018 20001 39730 40163 52013 333 55300 20032 91103 91202;
0140067710999992011010217004+45833+008917FM-12+035699999V0202301N000519999999N9999999N1+00141-00021101691ADDMA1999999097351MD1310161+9999OA149900101REMSYN088AAXX  02174 06771 33/// /2301 10014 21002 39735 40169 53016 333 55300 20000 91102 91201;
0159067710999992011010218004+45833+008917FM-12+035699999V0202201N001019999999N9999999N1+00071-00041101771ADDKA1120M+00391MA1999999097421MD1210181+9999OA149900311REMSYN094AAXX  02184 06771 33/// /2202 10007 21004 39742 40177 52018 333 10039 55300 20000 91106 91204;
0140067710999992011010219004+45833+008917FM-12+035699999V0202201N000519999999N9999999N1+00071-00041101841ADDMA1999999097481MD1210181+9999OA149900101REMSYN088AAXX  02194 06771 33/// /2201 10007 21004 39748 40184 52018 333 55300 20000 91102 91202;
0140067710999992011010220004+45833+008917FM-12+035699999V0202401N000519999999N9999999N1-00051-00151101911ADDMA1999999097531MD1110181+9999OA149900101REMSYN088AAXX  02204 06771 33/// /2401 11005 21015 39753 40191 51018 333 55300 20000 91102 91202;
0140067710999992011010221004+45833+008917FM-12+035699999V0202201N001019999999N9999999N1-00221-00281101981ADDMA1999999097571MD1210151+9999OA149900151REMSYN088AAXX  02214 06771 33/// /2202 11022 21028 39757 40198 52015 333 55300 20000 91103 91202;
0140067710999992011010222004+45833+008917FM-12+035699999V0202401N001019999999N9999999N1-00291-00361102021ADDMA1999999097601MD1110121+9999OA149900151REMSYN088AAXX  02224 06771 33/// /2402 11029 21036 39760 40202 51012 333 55300 20000 91103 91202;
0140067710999992011010223004+45833+008917FM-12+035699999V0202501N001019999999N9999999N1-00281-00371102021ADDMA1999999097601MD1210071+9999OA149900151REMSYN088AAXX  02234 06771 33/// /2502 11028 21037 39760 40202 52007 333 55300 20000 91103 91203;
0140067710999992011010300004+45833+008917FM-12+035699999V0202301N000519999999N9999999N1-00351-00411102011ADDMA1999999097581MD1010011+9999OA149900311REMSYN088AAXX  03004 06771 33/// /2301 11035 21041 39758 40201 50001 333 55300 20000 91106 91204;
0140067710999992011010301004+45833+008917FM-12+035699999V0202401N001019999999N9999999N1-00381-00451102021ADDMA1999999097581MD1710021+9999OA149900151REMSYN088AAXX  03014 06771 33/// /2402 11038 21045 39758 40202 57002 333 55300 20000 91103 91203;
0140067710999992011010302004+45833+008917FM-12+035699999V0202401N001019999999N9999999N1-00411-00481102031ADDMA1999999097591MD1519999+9999OA149900151REMSYN088AAXX  03024 06771 33/// /2402 11041 21048 39759 40203 55/// 333 55300 20000 91103 91202;
0087067710999992011010303004+45833+008917FM-12+035699999V0202401N001019999999N9999999N1-00431-00531102051ADDMA1999999097601REMSYN060AAXX  03034 06771 43/// /2402 11043 21053 39760 40205 5////;
0140067710999992011010304004+45833+008917FM-12+035699999V0202101N000519999999N9999999N1-00331-00401102051ADDMA1999999097621MD1310041+9999OA149900151REMSYN088AAXX  03044 06771 33/// /2101 11033 21040 39762 40205 53004 333 55300 20000 91103 91203;
0140067710999992011010305004+45833+008917FM-12+035699999V0202201N000519999999N9999999N1-00441-00511102081ADDMA1999999097631MD1110041+9999OA149900151REMSYN088AAXX  03054 06771 33/// /2201 11044 21051 39763 40208 51004 333 55300 20000 91103 91202;
0207067710999992011010306004+45833+008917FM-12+035699999V0202301N000519999999N9999999N1-00421-00521102121ADDAL19900091GJ101749IA2999-00709KA1999N-00461MA1999999097671MD1310071+9999OA149900151REMSYN112AAXX  03064 06771 33/// /2301 11042 21052 39767 40212 53007 333 21046 3/107 55029 55300 20000 70000 91103 91203;
0140067710999992011010307004+45833+008917FM-12+035699999V0209999C000019999999N9999999N1-00331-00451102161ADDMA1999999097721MD1310101+9999OA149900151REMSYN088AAXX  03074 06771 33/// /0000 11033 21045 39772 40216 53010 333 55300 20000 91103 91202;
0140067710999992011010308004+45833+008917FM-12+035699999V0209999C000019999999N9999999N1-00281-00371102261ADDMA1999999097831MD1319999+9999OA149900151REMSYN088AAXX  03084 06771 33/// /0000 11028 21037 39783 40226 53/// 333 55300 20047 91103 91202;
0103067710999992011010309004+45833+008917FM-12+035699999V0209999C000019999999N9999999N1-00121-00261102291ADDMA1999999097881REMSYN076AAXX  03094 06771 33/// /0000 11012 21026 39788 40229 5//// 333 553// 20227;
0140067710999992011010310004+45833+008917FM-12+035699999V0202001N000519999999N9999999N1+00041-00091102331ADDMA1999999097951MD1110231+9999OA149900101REMSYN088AAXX  03104 06771 33/// /2001 10004 21009 39795 40233 51023 333 55300 20360 91102 91201;
0140067710999992011010311004+45833+008917FM-12+035699999V0201101N000519999999N9999999N1+00221-00131102311ADDMA1999999097961MD1210131+9999OA149900051REMSYN088AAXX  03114 06771 33/// /1101 10022 21013 39796 40231 52013 333 55300 20569 91101 91201;
0140067710999992011010312004+45833+008917FM-12+035699999V0202401N000519999999N9999999N1+00301-00271102251ADDMA1999999097911MD1010031+9999OA149900151REMSYN088AAXX  03124 06771 33/// /2401 10030 21027 39791 40225 50003 333 55300 20522 91103 91203;
0140067710999992011010313004+45833+008917FM-12+035699999V0202701N001019999999N9999999N1+00321-00371102201ADDMA1999999097871MD1710081+9999OA149900261REMSYN088AAXX  03134 06771 33/// /2702 10032 21037 39787 40220 57008 333 55300 20299 91105 91203;
0103067710999992011010314004+45833+008917FM-12+035699999V0202601N001019999999N9999999N1+00301-00361102201ADDMA1999999097861REMSYN076AAXX  03144 06771 33/// /2602 10030 21036 39786 40220 5//// 333 553// 20310;
0103067710999992011010315004+45833+008917FM-12+035699999V0202301N000519999999N9999999N1+00171-00291102221ADDMA1999999097861REMSYN076AAXX  03154 06771 33/// /2301 10017 21029 39786 40222 5//// 333 553// 20205;
0140067710999992011010316004+45833+008917FM-12+035699999V0202101N000519999999N9999999N1-00091-00281102291ADDMA1999999097891MD1310021+9999OA149900211REMSYN088AAXX  03164 06771 33/// /2101 11009 21028 39789 40229 53002 333 55300 20047 91104 91202;
0140067710999992011010317004+45833+008917FM-12+035699999V0202301N001019999999N9999999N1-00071-00301102311ADDMA1999999097911MD1310051+9999OA149900151REMSYN088AAXX  03174 06771 33/// /2302 11007 21030 39791 40231 53005 333 55300 20000 91103 91202;
0159067710999992011010318004+45833+008917FM-12+035699999V0202401N000519999999N9999999N1-00061-00241102351ADDKA1120M+00321MA1999999097951MD1310091+9999OA149900261REMSYN094AAXX  03184 06771 33/// /2401 11006 21024 39795 40235 53009 333 10032 55300 20000 91105 91203;
0140067710999992011010319004+45833+008917FM-12+035699999V0202101N000519999999N9999999N1-00061-00261102371ADDMA1999999097971MD1110081+9999OA149900151REMSYN088AAXX  03194 06771 33/// /2101 11006 21026 39797 40237 51008 333 55300 20000 91103 91202;
0140067710999992011010320004+45833+008917FM-12+035699999V0202301N001019999999N9999999N1-00081-00271102381ADDMA1999999097981MD1110071+9999OA149900151REMSYN088AAXX  03204 06771 33/// /2302 11008 21027 39798 40238 51007 333 55300 20000 91103 91202;
0140067710999992011010321004+45833+008917FM-12+035699999V0202201N000519999999N9999999N1-00091-00271102401ADDMA1999999097991MD1210041+9999OA149900151REMSYN088AAXX  03214 06771 33/// /2201 11009 21027 39799 40240 52004 333 55300 20000 91103 91202;
0140067710999992011010322004+45833+008917FM-12+035699999V0202301N000519999999N9999999N1-00081-00271102431ADDMA1999999098021MD1210051+9999OA149900101REMSYN088AAXX  03224 06771 33/// /2301 11008 21027 39802 40243 52005 333 55300 20000 91102 91202;
0140067710999992011010323004+45833+008917FM-12+035699999V0202201N000519999999N9999999N1-00111-00271102431ADDMA1999999098021MD1210041+9999OA149900151REMSYN088AAXX  03234 06771 33/// /2201 11011 21027 39802 40243 52004 333 55300 20000 91103 91202;
0140067710999992011010400004+45833+008917FM-12+035699999V0202301N000519999999N9999999N1-00121-00321102411ADDMA1999999098001MD1010011+9999OA149900261REMSYN088AAXX  04004 06771 33/// /2301 11012 21032 39800 40241 50001 333 55300 20000 91105 91203;
0140067710999992011010401004+45833+008917FM-12+035699999V0202001N000519999999N9999999N1-00111-00331102381ADDMA1999999097971MD1710051+9999OA149900151REMSYN088AAXX  04014 06771 33/// /2001 11011 21033 39797 40238 57005 333 55300 20000 91103 91202;
0140067710999992011010402004+45833+008917FM-12+035699999V0202401N001019999999N9999999N1-00141-00341102371ADDMA1999999097961MD1719999+9999OA149900151REMSYN088AAXX  04024 06771 33/// /2402 11014 21034 39796 40237 57/// 333 55300 20000 91103 91202;
0140067710999992011010403004+45833+008917FM-12+035699999V0202501N001019999999N9999999N1-00121-00431102321ADDMA1999999097911MD1719999+9999OA149900151REMSYN088AAXX  04034 06771 33/// /2502 11012 21043 39791 40232 57/// 333 55300 20000 91103 91202;
0140067710999992011010404004+45833+008917FM-12+035699999V0202101N000519999999N9999999N1-00131-00361102271ADDMA1999999097861MD1710111+9999OA149900151REMSYN088AAXX  04044 06771 33/// /2101 11013 21036 39786 40227 57011 333 55300 20000 91103 91202;
0140067710999992011010405004+45833+008917FM-12+035699999V0202301N000519999999N9999999N1-00161-00321102221ADDMA1999999097811MD1610151+9999OA149900101REMSYN088AAXX  04054 06771 33/// /2301 11016 21032 39781 40222 56015 333 55300 20000 91102 91202;
0207067710999992011010406004+45833+008917FM-12+035699999V0202101N000519999999N9999999N1-00171-00351102191ADDAL19900091GJ100009IA2999-00209KA1999N-00171MA1999999097781MD1619999+9999OA149900151REMSYN112AAXX  04064 06771 33/// /2101 11017 21035 39778 40219 56/// 333 21017 3/102 55000 55300 20000 70000 91103 91202;
0140067710999992011010407004+45833+008917FM-12+035699999V0209999C000019999999N9999999N1-00151-00351102201ADDMA1999999097791MD1710071+9999OA149900101REMSYN088AAXX  04074 06771 33/// /0000 11015 21035 39779 40220 57007 333 55300 20000 91102 91202;
0140067710999992011010408004+45833+008917FM-12+035699999V0202401N001019999999N9999999N1-00151-00411102231ADDMA1999999097821MD1319999+9999OA149900101REMSYN088AAXX  04084 06771 33/// /2402 11015 21041 39782 40223 53/// 333 55300 20014 91102 91202;
0103067710999992011010409004+45833+008917FM-12+035699999V0202401N000519999999N9999999N1-00111-00371102241ADDMA1999999097841REMSYN076AAXX  04094 06771 33/// /2401 11011 21037 39784 40224 5//// 333 553// 20036;
0140067710999992011010410004+45833+008917FM-12+035699999V0202401N000519999999N9999999N1+00011-00341102251ADDMA1999999097871MD1310081+9999OA149900101REMSYN088AAXX  04104 06771 33/// /2401 10001 21034 39787 40225 53008 333 55300 20140 91102 91202;
0140067710999992011010411004+45833+008917FM-12+035699999V0202101N000519999999N9999999N1+00101-00451102201ADDMA1999999097831MD1010011+9999OA149900101REMSYN088AAXX  04114 06771 33/// /2101 10010 21045 39783 40220 50001 333 55300 20234 91102 91202;
0140067710999992011010412004+45833+008917FM-12+035699999V0202001N000519999999N9999999N1+00121-00551102111ADDMA1999999097751MD1810091+9999OA149900151REMSYN088AAXX  04124 06771 33/// /2001 10012 21055 39775 40211 58009 333 55300 20252 91103 91202;
0140067710999992011010413004+45833+008917FM-12+035699999V0209999C000019999999N9999999N1+00121-00641102091ADDMA1999999097731MD1610141+9999OA149900101REMSYN088AAXX  04134 06771 33/// /0000 10012 21064 39773 40209 56014 333 55300 20284 91102 91201;
0103067710999992011010414004+45833+008917FM-12+035699999V0209999C000019999999N9999999N1+00111-00611102051ADDMA1999999097691REMSYN076AAXX  04144 06771 33/// /0000 10011 21061 39769 40205 5//// 333 553// 20227;
0087067710999992011010415004+45833+008917FM-12+035699999V0202301N000519999999N9999999N1+00091-00581102041ADDMA1999999097681REMSYN060AAXX  04154 06771 43/// /2301 10009 21058 39768 40204 5////;
0140067710999992011010416004+45833+008917FM-12+035699999V0202001N000519999999N9999999N1+00011-00451102061ADDMA1999999097681MD1710051+9999OA149900101REMSYN088AAXX  04164 06771 33/// /2001 10001 21045 39768 40206 57005 333 55300 20029 91102 91202;
0140067710999992011010417004+45833+008917FM-12+035699999V0202301N000519999999N9999999N1-00021-00511102071ADDMA1999999097691MD1510001+9999OA149900101REMSYN088AAXX  04174 06771 33/// /2301 11002 21051 39769 40207 55000 333 55300 20000 91102 91202;
0159067710999992011010418004+45833+008917FM-12+035699999V0202401N000519999999N9999999N1-00071-00431102091ADDKA1120M+00131MA1999999097701MD1310021+9999OA149900101REMSYN094AAXX  04184 06771 33/// /2401 11007 21043 39770 40209 53002 333 10013 55300 20000 91102 91202;
0140067710999992011010419004+45833+008917FM-12+035699999V0202001N000519999999N9999999N1-00081-00441102131ADDMA1999999097741MD1310061+9999OA149900101REMSYN088AAXX  04194 06771 33/// /2001 11008 21044 39774 40213 53006 333 55300 20000 91102 91201;
0140067710999992011010420004+45833+008917FM-12+035699999V0209999C000019999999N9999999N1-00071-00561102151ADDMA1999999097761MD1210071+9999OA149900101REMSYN088AAXX  04204 06771 33/// /0000 11007 21056 39776 40215 52007 333 55300 20000 91102 91202;
0140067710999992011010421004+45833+008917FM-12+035699999V0202201N000519999999N9999999N1-00131-00411102151ADDMA1999999097751MD1210051+9999OA149900101REMSYN088AAXX  04214 06771 33/// /2201 11013 21041 39775 40215 52005 333 55300 20000 91102 91202;
0140067710999992011010422004+45833+008917FM-12+035699999V0202101N000519999999N9999999N1-00131-00461102161ADDMA1999999097761MD1210021+9999OA149900101REMSYN088AAXX  04224 06771 33/// /2101 11013 21046 39776 40216 52002 333 55300 20000 91102 91201;
0140067710999992011010423004+45833+008917FM-12+035699999V0202101N000519999999N9999999N1-00141-00421102161ADDMA1999999097761MD1510001+9999OA149900151REMSYN088AAXX  04234 06771 33/// /2101 11014 21042 39776 40216 55000 333 55300 20000 91103 91202;
0140067710999992011010500004+45833+008917FM-12+035699999V0202301N000519999999N9999999N1-00141-00421102151ADDMA1999999097751MD1010001+9999OA149900151REMSYN088AAXX  05004 06771 33/// /2301 11014 21042 39775 40215 50000 333 55300 20000 91103 91202;
0140067710999992011010501004+45833+008917FM-12+035699999V0202301N000519999999N9999999N1-00171-00391102131ADDMA1999999097721MD1810041+9999OA149900101REMSYN088AAXX  05014 06771 33/// /2301 11017 21039 39772 40213 58004 333 55300 20000 91102 91201;
0140067710999992011010502004+45833+008917FM-12+035699999V0202201N000519999999N9999999N1-00151-00441102121ADDMA1999999097721MD1610041+9999OA149900101REMSYN088AAXX  05024 06771 33/// /2201 11015 21044 39772 40212 56004 333 55300 20000 91102 91201;
0087067710999992011010503004+45833+008917FM-12+035699999V0202101N000519999999N9999999N1-00181-00401102121ADDMA1999999097711REMSYN060AAXX  05034 06771 43/// /2101 11018 21040 39771 40212 5////;
0140067710999992011010504004+45833+008917FM-12+035699999V0201901N000519999999N9999999N1-00171-00421102101ADDMA1999999097691MD1810031+9999OA149900151REMSYN088AAXX  05044 06771 33/// /1901 11017 21042 39769 40210 58003 333 55300 20000 91103 91201;
0140067710999992011010505004+45833+008917FM-12+035699999V0202401N000519999999N9999999N1-00191-00421102101ADDMA1999999097691MD1710031+9999OA149900151REMSYN088AAXX  05054 06771 33/// /2401 11019 21042 39769 40210 57003 333 55300 20000 91103 91201;
0207067710999992011010506004+45833+008917FM-12+035699999V0209999C000019999999N9999999N1-00171-00501102131ADDAL19900091GJ100009IA2999-00309KA1999N-00201MA1999999097721MD1310011+9999OA149900151REMSYN112AAXX  05064 06771 33/// /0000 11017 21050 39772 40213 53001 333 21020 3/103 55000 55300 20000 70000 91103 91202;
0140067710999992011010507004+45833+008917FM-12+035699999V0202401N000519999999N9999999N1-00181-00461102161ADDMA1999999097751MD1210061+9999OA149900101REMSYN088AAXX  05074 06771 33/// /2401 11018 21046 39775 40216 52006 333 55300 20000 91102 91202;
0140067710999992011010508004+45833+008917FM-12+035699999V0202001N000519999999N9999999N1-00191-00411102201ADDMA1999999097791MD1119999+9999OA149900101REMSYN088AAXX  05084 06771 33/// /2001 11019 21041 39779 40220 51/// 333 55300 20011 91102 91201;
0140067710999992011010509004+45833+008917FM-12+035699999V0209999C000019999999N9999999N1-00111-00421102201ADDMA1999999097801MD1110081+9999OA149900151REMSYN088AAXX  05094 06771 33/// /0000 11011 21042 39780 40220 51008 333 55300 20076 91103 91202;
0140067710999992011010510004+45833+008917FM-12+035699999V0202001N000519999999N9999999N1-00031-00351102211ADDMA1999999097821MD1210071+9999OA149900101REMSYN088AAXX  05104 06771 33/// /2001 11003 21035 39782 40221 52007 333 55300 20162 91102 91201;
0140067710999992011010511004+45833+008917FM-12+035699999V0202201N000519999999N9999999N1+00071-00631102161ADDMA1999999097791MD1010001+9999OA149900101REMSYN088AAXX  05114 06771 33/// /2201 10007 21063 39779 40216 50000 333 55300 20299 91102 91202;
0103067710999992011010512004+45833+008917FM-12+035699999V0201901N001019999999N9999999N1+00111-00591102091ADDMA1999999097731REMSYN076AAXX  05124 06771 33/// /1902 10011 21059 39773 40209 5//// 333 553// 20346;
0140067710999992011010513004+45833+008917FM-12+035699999V0201801N000519999999N9999999N1+00101-00571102041ADDMA1999999097681MD1810141+9999OA149900211REMSYN088AAXX  05134 06771 33/// /1801 10010 21057 39768 40204 58014 333 55300 20306 91104 91202;
0087067710999992011010514004+45833+008917FM-12+035699999V0202501N001019999999N9999999N1+00101-00551102051ADDMA1999999097691REMSYN060AAXX  05144 06771 43/// /2502 10010 21055 39769 40205 5////;
0087067710999992011010515004+45833+008917FM-12+035699999V0202201N000519999999N9999999N1+00071-00501102091ADDMA1999999097721REMSYN060AAXX  05154 06771 43/// /2201 10007 21050 39772 40209 5////;
0140067710999992011010516004+45833+008917FM-12+035699999V0202201N000519999999N9999999N1+00001-00371102131ADDMA1999999097751MD1210071+9999OA149900151REMSYN088AAXX  05164 06771 33/// /2201 10000 21037 39775 40213 52007 333 55300 20029 91103 91202;
0140067710999992011010517004+45833+008917FM-12+035699999V0202201N000519999999N9999999N1-00161-00451102171ADDMA1999999097761MD1210071+9999OA149900101REMSYN088AAXX  05174 06771 33/// /2201 11016 21045 39776 40217 52007 333 55300 20000 91102 91202;
0159067710999992011010518004+45833+008917FM-12+035699999V0209999C000019999999N9999999N1-00291-00481102241ADDKA1120M+00111MA1999999097811MD1319999+9999OA149900211REMSYN094AAXX  05184 06771 33/// /0000 11029 21048 39781 40224 53/// 333 10011 55300 20000 91104 91203;
0140067710999992011010519004+45833+008917FM-12+035699999V0202301N000519999999N9999999N1-00421-00561102321ADDMA1999999097861MD1210111+9999OA149900151REMSYN088AAXX  05194 06771 33/// /2301 11042 21056 39786 40232 52011 333 55300 20000 91103 91202;
0140067710999992011010520004+45833+008917FM-12+035699999V0202301N000519999999N9999999N1-00491-00611102301ADDMA1999999097831MD1019999+9999OA149900151REMSYN088AAXX  05204 06771 33/// /2301 11049 21061 39783 40230 50/// 333 55300 20000 91103 91202;
0103067710999992011010521004+45833+008917FM-12+035699999V0202501N000519999999N9999999N1-00511-00621102341ADDMA1999999097871REMSYN076AAXX  05214 06771 33/// /2501 11051 21062 39787 40234 5//// 333 553// 20000;
0140067710999992011010522004+45833+008917FM-12+035699999V0202301N001019999999N9999999N1-00561-00661102391ADDMA1999999097911MD1210051+9999OA149900151REMSYN088AAXX  05224 06771 33/// /2302 11056 21066 39791 40239 52005 333 55300 20000 91103 91202;
0140067710999992011010523004+45833+008917FM-12+035699999V0209999C000019999999N9999999N1-00551-00661102391ADDMA1999999097911MD1219999+9999OA149900151REMSYN088AAXX  05234 06771 33/// /0000 11055 21066 39791 40239 52/// 333 55300 20000 91103 91202;
0087067710999992011010600004+45833+008917FM-12+035699999V0202301N000519999999N9999999N1-00571-00661102381ADDMA1999999097901REMSYN060AAXX  06004 06771 43/// /2301 11057 21066 39790 40238 5////;
0087067710999992011010601004+45833+008917FM-12+035699999V0202301N000519999999N9999999N1-00511-00641102341ADDMA1999999097871REMSYN060AAXX  06014 06771 43/// /2301 11051 21064 39787 40234 5////;
0087067710999992011010602004+45833+008917FM-12+035699999V0202201N000519999999N9999999N1-00441-00551102351ADDMA1999999097891REMSYN060AAXX  06024 06771 43/// /2201 11044 21055 39789 40235 5////;
0087067710999992011010603004+45833+008917FM-12+035699999V0209999C000019999999N9999999N1-00351-00471102331ADDMA1999999097881REMSYN060AAXX  06034 06771 43/// /0000 11035 21047 39788 40233 5////;
0087067710999992011010604004+45833+008917FM-12+035699999V0202001N000519999999N9999999N1-00321-00431102281ADDMA1999999097841REMSYN060AAXX  06044 06771 43/// /2001 11032 21043 39784 40228 5////;
0087067710999992011010605004+45833+008917FM-12+035699999V0202201N000519999999N9999999N1-00281-00401102231ADDMA1999999097801REMSYN060AAXX  06054 06771 43/// /2201 11028 21040 39780 40223 5////;
0134067710999992011010606004+45833+008917FM-12+035699999V0202201N001019999999N9999999N1-00251-00371102211ADDIA2999-00809KA1999N-00631MA1999999097791REMSYN082AAXX  06064 06771 43/// /2202 11025 21037 39779 40221 5//// 333 21063 3/108 55000;
0087067710999992011010607004+45833+008917FM-12+035699999V0202201N001019999999N9999999N1-00201-00391102231ADDMA1999999097811REMSYN060AAXX  06074 06771 43/// /2202 11020 21039 39781 40223 5////;
0103067710999992011010608004+45833+008917FM-12+035699999V0201901N000519999999N9999999N1-00181-00331102271ADDMA1999999097851REMSYN076AAXX  06084 06771 33/// /1901 11018 21033 39785 40227 5//// 333 553// 20014;
0087067710999992011010609004+45833+008917FM-12+035699999V0202201N000519999999N9999999N1-00141-00291102271ADDMA1999999097861REMSYN060AAXX  06094 06771 43/// /2201 11014 21029 39786 40227 5////;
0140067710999992011010610004+45833+008917FM-12+035699999V0202401N001019999999N9999999N1-00021-00421102301ADDMA1999999097911MD1310101+9999OA149900151REMSYN088AAXX  06104 06771 33/// /2402 11002 21042 39791 40230 53010 333 55300 20140 91103 91202;
0140067710999992011010611004+45833+008917FM-12+035699999V0209999C000019999999N9999999N1+00021-00481102271ADDMA1999999097891MD1010041+9999OA149900151REMSYN088AAXX  06114 06771 33/// /0000 10002 21048 39789 40227 50004 333 55300 20148 91103 91202;
0140067710999992011010612004+45833+008917FM-12+035699999V0209999C000019999999N9999999N1+00021-00431102201ADDMA1999999097821MD1810041+9999OA149900151REMSYN088AAXX  06124 06771 33/// /0000 10002 21043 39782 40220 58004 333 55300 20115 91103 91202;
0140067710999992011010613004+45833+008917FM-12+035699999V0202501N000519999999N9999999N1+00051-00461102141ADDMA1999999097771MD1710141+9999OA149900101REMSYN088AAXX  06134 06771 33/// /2501 10005 21046 39777 40214 57014 333 55300 20108 91102 91201;
0087067710999992011010614004+45833+008917FM-12+035699999V0202401N000519999999N9999999N1+00061-00301102141ADDMA1999999097771REMSYN060AAXX  06144 06771 43/// /2401 10006 21030 39777 40214 5////;
0087067710999992011010615004+45833+008917FM-12+035699999V0201901N000519999999N9999999N1+00061-00431102151ADDMA1999999097781REMSYN060AAXX  06154 06771 43/// /1901 10006 21043 39778 40215 5////;
0140067710999992011010616004+45833+008917FM-12+035699999V0209999C000019999999N9999999N1+00041-00411102171ADDMA1999999097791MD1210021+9999OA149900151REMSYN088AAXX  06164 06771 33/// /0000 10004 21041 39779 40217 52002 333 55300 20018 91103 91202;
0140067710999992011010617004+45833+008917FM-12+035699999V0202001N000519999999N9999999N1+00001-00331102171ADDMA1999999097791MD1210021+9999OA149900151REMSYN088AAXX  06174 06771 33/// /2001 10000 21033 39779 40217 52002 333 55300 20000 91103 91202;
0159067710999992011010618004+45833+008917FM-12+035699999V0202001N000519999999N9999999N1+00011-00371102201ADDKA1120M+00071MA1999999097821MD1210041+9999OA149900151REMSYN094AAXX  06184 06771 33/// /2001 10001 21037 39782 40220 52004 333 10007 55300 20000 91103 91202;
0140067710999992011010619004+45833+008917FM-12+035699999V0202001N000519999999N9999999N1+00001-00301102251ADDMA1999999097861MD1210071+9999OA149900151REMSYN088AAXX  06194 06771 33/// /2001 10000 21030 39786 40225 52007 333 55300 20000 91103 91202;
0140067710999992011010620004+45833+008917FM-12+035699999V0202001N000519999999N9999999N1-00021-00271102261ADDMA1999999097881MD1219999+9999OA149900151REMSYN088AAXX  06204 06771 33/// /2001 11002 21027 39788 40226 52/// 333 55300 20000 91103 91202;
0140067710999992011010621004+45833+008917FM-12+035699999V0201901N000519999999N9999999N1-00021-00341102271ADDMA1999999097881MD1219999+9999OA149900151REMSYN088AAXX  06214 06771 33/// /1901 11002 21034 39788 40227 52/// 333 55300 20000 91103 91202;
0140067710999992011010622004+45833+008917FM-12+035699999V0202001N000519999999N9999999N1-00011-00341102271ADDMA1999999097881MD1210021+9999OA149900151REMSYN088AAXX  06224 06771 33/// /2001 11001 21034 39788 40227 52002 333 55300 20000 91103 91202;
0103067710999992011010623004+45833+008917FM-12+035699999V0202101N000519999999N9999999N1-00021-00281102341ADDMA1999999097951REMSYN076AAXX  06234 06771 33/// /2101 11002 21028 39795 40234 5//// 333 553// 20000;
0087067710999992011010700004+45833+008917FM-12+035699999V0202201N000519999999N9999999N1-00031-00231102311ADDMA1999999097921REMSYN060AAXX  07004 06771 43/// /2201 11003 21023 39792 40231 5////;
0087067710999992011010701004+45833+008917FM-12+035699999V0202301N001019999999N9999999N1-00031-00241102361ADDMA1999999097961REMSYN060AAXX  07014 06771 43/// /2302 11003 21024 39796 40236 5////;
0087067710999992011010702004+45833+008917FM-12+035699999V0202101N000519999999N9999999N1-00011-00241102381ADDMA1999999097991REMSYN060AAXX  07024 06771 43/// /2101 11001 21024 39799 40238 5////;
0087067710999992011010703004+45833+008917FM-12+035699999V0202301N000519999999N9999999N1+00001-00231102411ADDMA1999999098021REMSYN060AAXX  07034 06771 43/// /2301 10000 21023 39802 40241 5////;
0140067710999992011010704004+45833+008917FM-12+035699999V0209999C000019999999N9999999N1+00001-00221102391ADDMA1999999098001MD1210041+9999OA149900151REMSYN088AAXX  07044 06771 33/// /0000 10000 21022 39800 40239 52004 333 55300 20000 91103 91202;
0140067710999992011010705004+45833+008917FM-12+035699999V0201401N000519999999N9999999N1+00011-00231102411ADDMA1999999098021MD1210031+9999OA149900151REMSYN088AAXX  07054 06771 33/// /1401 10001 21023 39802 40241 52003 333 55300 20000 91103 91202;
0207067710999992011010706004+45833+008917FM-12+035699999V0201401N000519999999N9999999N1+00021-00211102421ADDAL19900091GJ100009IA2999-00109KA1999N-00041MA1999999098031MD1210011+9999OA149900151REMSYN112AAXX  07064 06771 33/// /1401 10002 21021 39803 40242 52001 333 21004 3/101 55000 55300 20000 70000 91103 91202;
0140067710999992011010707004+45833+008917FM-12+035699999V0209999C000019999999N9999999N1+00011-00181102451ADDMA1999999098061MD1210061+9999OA149900101REMSYN088AAXX  07074 06771 33/// /0000 10001 21018 39806 40245 52006 333 55300 20000 91102 91201;
0103067710999992011010708004+45833+008917FM-12+035699999V0201801N000519999999N9999999N1+00031-00161102531ADDMA1999999098141REMSYN076AAXX  07084 06771 33/// /1801 10003 21016 39814 40253 5//// 333 553// 20011;
0087067710999992011010709004+45833+008917FM-12+035699999V0209999C000019999999N9999999N1+00061-00121102551ADDMA1999999098161REMSYN060AAXX  07094 06771 43/// /0000 10006 21012 39816 40255 5////;
0146067710999992011010710004+45833+008917FM-12+035699999V0209999C000019999999N9999999N1+00031-00021102601ADDMA1999999098201MD1110141+9999OA149900101REMSYN094AAXX  07104 06771 23/// /0000 10003 21002 39820 40260 51014 333 55300 20058 69925 91102 91201;
0146067710999992011010711004+45833+008917FM-12+035699999V0202001N000519999999N9999999N1+00081+00031102571ADDMA1999999098181MD1210041+9999OA149900051REMSYN094AAXX  07114 06771 23/// /2001 10008 20003 39818 40257 52004 333 55300 20061 69935 91101 91201;
0163067710999992011010712004+45833+008917FM-12+035699999V0209999C000019999999N9999999N1+00091+00051102541ADDAA106000891MA1999999098161MD1010001+9999OA149900151REMSYN100AAXX  07124 06771 03/// /0000 10009 20005 39816 40254 50000 69971 333 55300 20058 69925 91103 91202;
0146067710999992011010713004+45833+008917FM-12+035699999V0209999C000019999999N9999999N1+00101+00061102491ADDMA1999999098111MD1710091+9999OA149900101REMSYN094AAXX  07134 06771 23/// /0000 10010 20006 39811 40249 57009 333 55300 20061 69925 91102 91201;
0087067710999992011010714004+45833+008917FM-12+035699999V0201301N000519999999N9999999N1+00131+00091102491ADDMA1999999098111REMSYN060AAXX  07144 06771 43/// /1301 10013 20009 39811 40249 5////;
0087067710999992011010715004+45833+008917FM-12+035699999V0209999C000019999999N9999999N1+00111+00081102511ADDMA1999999098131REMSYN060AAXX  07154 06771 43/// /0000 10011 20008 39813 40251 5////;
0146067710999992011010716004+45833+008917FM-12+035699999V0209999C000019999999N9999999N1+00111+00091102541ADDMA1999999098161MD1210051+9999OA149900101REMSYN094AAXX  07164 06771 23/// /0000 10011 20009 39816 40254 52005 333 55300 20000 69945 91102 91201;
0146067710999992011010717004+45833+008917FM-12+035699999V0201801N000519999999N9999999N1+00101+00081102541ADDMA1999999098161MD1210051+9999OA149900101REMSYN094AAXX  07174 06771 23/// /1801 10010 20008 39816 40254 52005 333 55300 20000 69945 91102 91201;
0145067710999992011010718004+45833+008917FM-12+035699999V0209999C000019999999N9999999N1+00091+00071102551ADDAA112003091KA1120M+00131MA1999999098171REMSYN094AAXX  07184 06771 03/// /0000 10009 20007 39817 40255 5//// 60032 333 10013 553// 20000 69935;
0146067710999992011010719004+45833+008917FM-12+035699999V0209999C000019999999N9999999N1+00091+00081102531ADDMA1999999098151MD1819999+9999OA149900101REMSYN094AAXX  07194 06771 23/// /0000 10009 20008 39815 40253 58/// 333 55300 20000 69945 91102 91201;
0087067710999992011010720004+45833+008917FM-12+035699999V0201301N000519999999N9999999N1+00101+00081102551ADDMA1999999098171REMSYN060AAXX  07204 06771 43/// /1301 10010 20008 39817 40255 5////;
0087067710999992011010721004+45833+008917FM-12+035699999V0202101N001019999999N9999999N1+00101+00081102561ADDMA1999999098181REMSYN060AAXX  07214 06771 43/// /2102 10010 20008 39818 40256 5////;
0146067710999992011010722004+45833+008917FM-12+035699999V0201801N000519999999N9999999N1+00111+00071102551ADDMA1999999098171MD1310021+9999OA149900101REMSYN094AAXX  07224 06771 23/// /1801 10011 20007 39817 40255 53002 333 55300 20000 69955 91102 91202;
0109067710999992011010723004+45833+008917FM-12+035699999V0201901N000519999999N9999999N1+00111+00091102551ADDMA1999999098171REMSYN082AAXX  07234 06771 23/// /1901 10011 20009 39817 40255 5//// 333 553// 20000 69935;
0126067710999992011010800004+45833+008917FM-12+035699999V0201501N000519999999N9999999N1+00121+00101102511ADDAA106002091MA1999999098131REMSYN088AAXX  08004 06771 03/// /1501 10012 20010 39813 40251 5//// 60021 333 553// 20000 69915;
0087067710999992011010801004+45833+008917FM-12+035699999V0201901N000519999999N9999999N1+00131+00101102451ADDMA1999999098081REMSYN060AAXX  08014 06771 43/// /1901 10013 20010 39808 40245 5////;
0087067710999992011010802004+45833+008917FM-12+035699999V0202001N000519999999N9999999N1+00121+00101102461ADDMA1999999098081REMSYN060AAXX  08024 06771 43/// /2001 10012 20010 39808 40246 5////;
0087067710999992011010803004+45833+008917FM-12+035699999V0202201N001019999999N9999999N1+00151+00111102411ADDMA1999999098041REMSYN060AAXX  08034 06771 43/// /2202 10015 20011 39804 40241 5////;
0087067710999992011010804004+45833+008917FM-12+035699999V0209999C000019999999N9999999N1+00151+00121102371ADDMA1999999098001REMSYN060AAXX  08044 06771 43/// /0000 10015 20012 39800 40237 5////;
0087067710999992011010805004+45833+008917FM-12+035699999V0200201N000519999999N9999999N1+00201+00171102311ADDMA1999999097951REMSYN060AAXX  08054 06771 43/// /0201 10020 20017 39795 40231 5////;
0134067710999992011010806004+45833+008917FM-12+035699999V0209999C000019999999N9999999N1+00171+00141102321ADDIA2999+00009KA1999N+00091MA1999999097961REMSYN082AAXX  08064 06771 43/// /0000 10017 20014 39796 40232 5//// 333 20009 3/000 55000;
0087067710999992011010807004+45833+008917FM-12+035699999V0209999C000019999999N9999999N1+00231+00191102321ADDMA1999999097971REMSYN060AAXX  08074 06771 43/// /0000 10023 20019 39797 40232 5////;
0109067710999992011010808004+45833+008917FM-12+035699999V0202501N000519999999N9999999N1+00181+00171102361ADDMA1999999098001REMSYN082AAXX  08084 06771 23/// /2501 10018 20017 39800 40236 5//// 333 553// 20000 69965;
0087067710999992011010809004+45833+008917FM-12+035699999V0209999C000019999999N9999999N1+00261+00221102351ADDMA1999999098001REMSYN060AAXX  08094 06771 43/// /0000 10026 20022 39800 40235 5////;
0087067710999992011010810004+45833+008917FM-12+035699999V0209999C000019999999N9999999N1+00281+00261102381ADDMA1999999098031REMSYN060AAXX  08104 06771 43/// /0000 10028 20026 39803 40238 5////;
0087067710999992011010811004+45833+008917FM-12+035699999V0201201N000519999999N9999999N1+00331+00291102341ADDMA1999999098001REMSYN060AAXX  08114 06771 43/// /1201 10033 20029 39800 40234 5////;
0087067710999992011010812004+45833+008917FM-12+035699999V0202501N000519999999N9999999N1+00361+00311102271ADDMA1999999097941REMSYN060AAXX  08124 06771 43/// /2501 10036 20031 39794 40227 5////;
0087067710999992011010813004+45833+008917FM-12+035699999V0209999C000019999999N9999999N1+00371+00331102251ADDMA1999999097921REMSYN060AAXX  08134 06771 43/// /0000 10037 20033 39792 40225 5////;
0087067710999992011010814004+45833+008917FM-12+035699999V0209999C000019999999N9999999N1+00371+00341102261ADDMA1999999097931REMSYN060AAXX  08144 06771 43/// /0000 10037 20034 39793 40226 5////;
0087067710999992011010815004+45833+008917FM-12+035699999V0209999C000019999999N9999999N1+00371+00341102281ADDMA1999999097951REMSYN060AAXX  08154 06771 43/// /0000 10037 20034 39795 40228 5////;
0087067710999992011010816004+45833+008917FM-12+035699999V0209999C000019999999N9999999N1+00351+00321102301ADDMA1999999097971REMSYN060AAXX  08164 06771 43/// /0000 10035 20032 39797 40230 5////;
0087067710999992011010817004+45833+008917FM-12+035699999V0202301N002119999999N9999999N1+00381+00321102291ADDMA1999999097961REMSYN060AAXX  08174 06771 43/// /2304 10038 20032 39796 40229 5////;
0087067710999992011010818004+45833+008917FM-12+035699999V0202001N000519999999N9999999N1+00351+00311102301ADDMA1999999097971REMSYN060AAXX  08184 06771 43/// /2001 10035 20031 39797 40230 5////;
0087067710999992011010819004+45833+008917FM-12+035699999V0202801N000519999999N9999999N1+00301+00281102331ADDMA1999999097991REMSYN060AAXX  08194 06771 43/// /2801 10030 20028 39799 40233 5////;
0087067710999992011010820004+45833+008917FM-12+035699999V0201301N000519999999N9999999N1+00331+00311102361ADDMA1999999098021REMSYN060AAXX  08204 06771 43/// /1301 10033 20031 39802 40236 5////;
0087067710999992011010821004+45833+008917FM-12+035699999V0209999C000019999999N9999999N1+00331+00311102341ADDMA1999999098001REMSYN060AAXX  08214 06771 43/// /0000 10033 20031 39800 40234 5////;
0087067710999992011010822004+45833+008917FM-12+035699999V0209999C000019999999N9999999N1+00271+00261102361ADDMA1999999098011REMSYN060AAXX  08224 06771 43/// /0000 10027 20026 39801 40236 5////;
0087067710999992011010823004+45833+008917FM-12+035699999V0209999C000019999999N9999999N1+00311+00291102361ADDMA1999999098021REMSYN060AAXX  08234 06771 43/// /0000 10031 20029 39802 40236 5////;
0087067710999992011010900004+45833+008917FM-12+035699999V0202601N000519999999N9999999N1+00361+00311102341ADDMA1999999098011REMSYN060AAXX  09004 06771 43/// /2601 10036 20031 39801 40234 5////;
0087067710999992011010901004+45833+008917FM-12+035699999V0209999C000019999999N9999999N1+00341+00311102321ADDMA1999999097991REMSYN060AAXX  09014 06771 43/// /0000 10034 20031 39799 40232 5////;
0087067710999992011010902004+45833+008917FM-12+035699999V0209999C000019999999N9999999N1+00341+00321102341ADDMA1999999098001REMSYN060AAXX  09024 06771 43/// /0000 10034 20032 39800 40234 5////;
0087067710999992011010903004+45833+008917FM-12+035699999V0209999C000019999999N9999999N1+00321+00301102311ADDMA1999999097971REMSYN060AAXX  09034 06771 43/// /0000 10032 20030 39797 40231 5////;
0087067710999992011010904004+45833+008917FM-12+035699999V0202501N000519999999N9999999N1+00351+00311102271ADDMA1999999097941REMSYN060AAXX  09044 06771 43/// /2501 10035 20031 39794 40227 5////;
0087067710999992011010905004+45833+008917FM-12+035699999V0202201N001019999999N9999999N1+00301+00281102291ADDMA1999999097951REMSYN060AAXX  09054 06771 43/// /2202 10030 20028 39795 40229 5////;
0097067710999992011010906004+45833+008917FM-12+035699999V0202401N001019999999N9999999N1+00341+00291102271ADDMA1999999097941REMSYN070AAXX  09064 06771 43/// /2402 10034 20029 39794 40227 5//// 333 55000;
0087067710999992011010907004+45833+008917FM-12+035699999V0202501N000519999999N9999999N1+00371+00331102301ADDMA1999999097971REMSYN060AAXX  09074 06771 43/// /2501 10037 20033 39797 40230 5////;
0109067710999992011010908004+45833+008917FM-12+035699999V0200401N001519999999N9999999N1+00381+00341102321ADDMA1999999097991REMSYN082AAXX  09084 06771 23/// /0403 10038 20034 39799 40232 5//// 333 553// 20000 69965;
0103067710999992011010909004+45833+008917FM-12+035699999V0200501N000519999999N9999999N1+00351+00321102341ADDMA1999999098011REMSYN076AAXX  09094 06771 33/// /0501 10035 20032 39801 40234 5//// 333 553// 20007;
0146067710999992011010910004+45833+008917FM-12+035699999V0209999C000019999999N9999999N1+00431+00371102351ADDMA1999999098031MD1210061+9999OA149900211REMSYN094AAXX  09104 06771 23/// /0000 10043 20037 39803 40235 52006 333 55300 20040 69925 91104 91203;
0146067710999992011010911004+45833+008917FM-12+035699999V0200601N001019999999N9999999N1+00461+00421102321ADDMA1999999098001MD1810011+9999OA149900211REMSYN094AAXX  09114 06771 23/// /0602 10046 20042 39800 40232 58001 333 55300 20086 69975 91104 91203;
0163067710999992011010912004+45833+008917FM-12+035699999V0200501N001019999999N9999999N1+00481+00431102221ADDAA106002091MA1999999097911MD1810101+9999OA149900211REMSYN100AAXX  09124 06771 03/// /0502 10048 20043 39791 40222 58010 60021 333 55300 20112 60005 91104 91203;
0146067710999992011010913004+45833+008917FM-12+035699999V0202201N001519999999N9999999N1+00481+00421102201ADDMA1999999097891MD1710141+9999OA149900261REMSYN094AAXX  09134 06771 23/// /2203 10048 20042 39789 40220 57014 333 55300 20083 69935 91105 91203;
0087067710999992011010914004+45833+008917FM-12+035699999V0200301N000519999999N9999999N1+00471+00451102181ADDMA1999999097871REMSYN060AAXX  09144 06771 43/// /0301 10047 20045 39787 40218 5////;
0087067710999992011010915004+45833+008917FM-12+035699999V0202001N000519999999N9999999N1+00411+00391102191ADDMA1999999097871REMSYN060AAXX  09154 06771 43/// /2001 10041 20039 39787 40219 5////;
0146067710999992011010916004+45833+008917FM-12+035699999V0202301N000519999999N9999999N1+00421+00381102211ADDMA1999999097891MD1510001+9999OA149900211REMSYN094AAXX  09164 06771 23/// /2301 10042 20038 39789 40221 55000 333 55300 20000 69965 91104 91202;
0165067710999992011010917004+45833+008917FM-12+035699999V0202101N000519999999N9999999N1+00421+00381102191ADDMA1999999097871MD1710011+9999OA149900211REMSYN094AAXX  09174 06771 23/// /2101 10042 20038 39787 40219 57000 333 55300 20000 69985 91104 91202;EQDQ01+000002APC3  
0182067710999992011010918004+45833+008917FM-12+035699999V0202801N000519999999N9999999N1+00431+00391102231ADDAA112006191KA1120M+00481MA1999999097911MD1310041+9999OA149900261REMSYN106AAXX  09184 06771 03/// /2801 10043 20039 39791 40223 53004 60062 333 10048 55300 20000 60015 91105 91203;
0146067710999992011010919004+45833+008917FM-12+035699999V0209999C000019999999N9999999N1+00361+00351102231ADDMA1999999097901MD1210011+9999OA149900151REMSYN094AAXX  09194 06771 23/// /0000 10036 20035 39790 40223 52001 333 55300 20000 60015 91103 91202;
0146067710999992011010920004+45833+008917FM-12+035699999V0209999C000019999999N9999999N1+00381+00361102201ADDMA1999999097881MD1010011+9999OA149900151REMSYN094AAXX  09204 06771 23/// /0000 10038 20036 39788 40220 50001 333 55300 20000 69935 91103 91201;
0146067710999992011010921004+45833+008917FM-12+035699999V0202401N000519999999N9999999N1+00371+00341102211ADDMA1999999097881MD1510031+9999OA149900211REMSYN094AAXX  09214 06771 23/// /2401 10037 20034 39788 40221 55003 333 55300 20000 60015 91104 91202;
0146067710999992011010922004+45833+008917FM-12+035699999V0201001N000519999999N9999999N1+00361+00331102201ADDMA1999999097871MD1810031+9999OA149900211REMSYN094AAXX  09224 06771 23/// /1001 10036 20033 39787 40220 58003 333 55300 20000 69985 91104 91202;
0146067710999992011010923004+45833+008917FM-12+035699999V0202201N001019999999N9999999N1+00331+00311102191ADDMA1999999097861MD1810021+9999OA149900151REMSYN094AAXX  09234 06771 23/// /2202 10033 20031 39786 40219 58002 333 55300 20000 60015 91103 91202;
0163067710999992011011000004+45833+008917FM-12+035699999V0202501N001019999999N9999999N1+00391+00351102171ADDAA106005191MA1999999097851MD1710031+9999OA149900261REMSYN100AAXX  10004 06771 03/// /2502 10039 20035 39785 40217 57003 60051 333 55300 20000 69945 91105 91203;
0146067710999992011011001004+45833+008917FM-12+035699999V0202501N001019999999N9999999N1+00381+00341102161ADDMA1999999097841MD1710031+9999OA149900151REMSYN094AAXX  10014 06771 23/// /2502 10038 20034 39784 40216 57003 333 55300 20000 69935 91103 91203;
0109067710999992011011002004+45833+008917FM-12+035699999V0202001N001019999999N9999999N1+00381+00341102151ADDMA1999999097831REMSYN082AAXX  10024 06771 23/// /2002 10038 20034 39783 40215 5//// 333 553// 20000 69995;
0087067710999992011011003004+45833+008917FM-12+035699999V0202101N000519999999N9999999N1+00361+00351102131ADDMA1999999097811REMSYN060AAXX  10034 06771 43/// /2101 10036 20035 39781 40213 5////;
0109067710999992011011004004+45833+008917FM-12+035699999V0209999C000019999999N9999999N1+00321+00311102131ADDMA1999999097801REMSYN082AAXX  10044 06771 23/// /0000 10032 20031 39780 40213 5//// 333 553// 20000 69945;
0146067710999992011011005004+45833+008917FM-12+035699999V0202101N000519999999N9999999N1+00301+00291102111ADDMA1999999097781MD1719999+9999OA149900151REMSYN094AAXX  10054 06771 23/// /2101 10030 20029 39778 40211 57/// 333 55300 20000 60015 91103 91202;
0159067710999992011011006004+45833+008917FM-12+035699999V0202301N000519999999N9999999N1+00351+00321102121ADDAA124016091GJ100009IA2999+00209KA1999N+00291MA1999999097801REMSYN088AAXX  10064 06771 43/// /2301 10035 20032 39780 40212 5//// 333 20029 3/002 55000 70161;
0146067710999992011011007004+45833+008917FM-12+035699999V0209999C000019999999N9999999N1+00341+00321102141ADDMA1999999097811MD1310011+9999OA149900151REMSYN094AAXX  10074 06771 23/// /0000 10034 20032 39781 40214 53001 333 55300 20000 60015 91103 91202;
0087067710999992011011008004+45833+008917FM-12+035699999V0209999C000019999999N9999999N1+00361+00331102141ADDMA1999999097821REMSYN060AAXX  10084 06771 43/// /0000 10036 20033 39782 40214 5////;
0087067710999992011011009004+45833+008917FM-12+035699999V0209999C000019999999N9999999N1+00371+00351102151ADDMA1999999097831REMSYN060AAXX  10094 06771 43/// /0000 10037 20035 39783 40215 5////;
0140067710999992011011010004+45833+008917FM-12+035699999V0209999C000019999999N9999999N1+00411+00381102181ADDMA1999999097861MD1210051+9999OA149900051REMSYN088AAXX  10104 06771 33/// /0000 10041 20038 39786 40218 52005 333 55300 20036 91101 91201;
0140067710999992011011011004+45833+008917FM-12+035699999V0209999C000019999999N9999999N1+00441+00401102141ADDMA1999999097831MD1019999+9999OA149900101REMSYN088AAXX  10114 06771 33/// /0000 10044 20040 39783 40214 50/// 333 55300 20054 91102 91201;
0126067710999992011011012004+45833+008917FM-12+035699999V0202101N000519999999N9999999N1+00491+00431102061ADDAA106002091MA1999999097761REMSYN088AAXX  10124 06771 03/// /2101 10049 20043 39776 40206 5//// 60021 333 553// 20162 60005;
0087067710999992011011013004+45833+008917FM-12+035699999V0202001N000519999999N9999999N1+00501+00461102001ADDMA1999999097701REMSYN060AAXX  10134 06771 43/// /2001 10050 20046 39770 40200 5////;
0087067710999992011011014004+45833+008917FM-12+035699999V0202501N001019999999N9999999N1+00491+00451101991ADDMA1999999097691REMSYN060AAXX  10144 06771 43/// /2502 10049 20045 39769 40199 5////;
0087067710999992011011015004+45833+008917FM-12+035699999V0203101N000519999999N9999999N1+00521+00481101981ADDMA1999999097691REMSYN060AAXX  10154 06771 43/// /3101 10052 20048 39769 40198 5////;
0087067710999992011011016004+45833+008917FM-12+035699999V0209999C000019999999N9999999N1+00501+00471101961ADDMA1999999097671REMSYN060AAXX  10164 06771 43/// /0000 10050 20047 39767 40196 5////;
0087067710999992011011017004+45833+008917FM-12+035699999V0209999C000019999999N9999999N1+00441+00421101971ADDMA1999999097671REMSYN060AAXX  10174 06771 43/// /0000 10044 20042 39767 40197 5////;
0110067710999992011011018004+45833+008917FM-12+035699999V0209999C000019999999N9999999N1+00461+00441101971ADDKA1999M+00521MA1999999097671REMSYN070AAXX  10184 06771 43/// /0000 10046 20044 39767 40197 5//// 333 10052;
0087067710999992011011019004+45833+008917FM-12+035699999V0201001N000519999999N9999999N1+00471+00441101951ADDMA1999999097651REMSYN060AAXX  10194 06771 43/// /1001 10047 20044 39765 40195 5////;
0087067710999992011011020004+45833+008917FM-12+035699999V0202201N000519999999N9999999N1+00431+00411101941ADDMA1999999097641REMSYN060AAXX  10204 06771 43/// /2201 10043 20041 39764 40194 5////;
0087067710999992011011021004+45833+008917FM-12+035699999V0202401N000519999999N9999999N1+00411+00381101951ADDMA1999999097641REMSYN060AAXX  10214 06771 43/// /2401 10041 20038 39764 40195 5////;
0087067710999992011011022004+45833+008917FM-12+035699999V0202301N000519999999N9999999N1+00431+00391101931ADDMA1999999097631REMSYN060AAXX  10224 06771 43/// /2301 10043 20039 39763 40193 5////;
0087067710999992011011023004+45833+008917FM-12+035699999V0209999C000019999999N9999999N1+00391+00371101911ADDMA1999999097601REMSYN060AAXX  10234 06771 43/// /0000 10039 20037 39760 40191 5////;
0087067710999992011011100004+45833+008917FM-12+035699999V0200501N000519999999N9999999N1+00491+00451101831ADDMA1999999097541REMSYN060AAXX  11004 06771 43/// /0501 10049 20045 39754 40183 5////;
0087067710999992011011101004+45833+008917FM-12+035699999V0209999C000019999999N9999999N1+00451+00421101771ADDMA1999999097481REMSYN060AAXX  11014 06771 43/// /0000 10045 20042 39748 40177 5////;
0087067710999992011011102004+45833+008917FM-12+035699999V0202501N000519999999N9999999N1+00401+00361101741ADDMA1999999097441REMSYN060AAXX  11024 06771 43/// /2501 10040 20036 39744 40174 5////;
0087067710999992011011103004+45833+008917FM-12+035699999V0209999C000019999999N9999999N1+00361+00341101701ADDMA1999999097391REMSYN060AAXX  11034 06771 43/// /0000 10036 20034 39739 40170 5////;
0087067710999992011011104004+45833+008917FM-12+035699999V0202501N000519999999N9999999N1+00371+00341101651ADDMA1999999097351REMSYN060AAXX  11044 06771 43/// /2501 10037 20034 39735 40165 5////;
0087067710999992011011105004+45833+008917FM-12+035699999V0202201N000519999999N9999999N1+00381+00351101621ADDMA1999999097321REMSYN060AAXX  11054 06771 43/// /2201 10038 20035 39732 40162 5////;
0097067710999992011011106004+45833+008917FM-12+035699999V0202101N000519999999N9999999N1+00381+00341101631ADDMA1999999097331REMSYN070AAXX  11064 06771 43/// /2101 10038 20034 39733 40163 5//// 333 55000;
0140067710999992011011107004+45833+008917FM-12+035699999V0202701N000519999999N9999999N1+00371+00321101611ADDMA1999999097311MD1719999+9999OA149900101REMSYN088AAXX  11074 06771 33/// /2701 10037 20032 39731 40161 57/// 333 55300 20000 91102 91202;
0103067710999992011011108004+45833+008917FM-12+035699999V0202501N001019999999N9999999N1+00411+00361101611ADDMA1999999097321REMSYN076AAXX  11084 06771 33/// /2502 10041 20036 39732 40161 5//// 333 553// 20014;
0087067710999992011011109004+45833+008917FM-12+035699999V0202401N001519999999N9999999N1+00531+00451101591ADDMA1999999097321REMSYN060AAXX  11094 06771 43/// /2403 10053 20045 39732 40159 5////;
0140067710999992011011110004+45833+008917FM-12+035699999V0202401N000519999999N9999999N1+00611+00491101561ADDMA1999999097301MD1810011+9999OA149900211REMSYN088AAXX  11104 06771 33/// /2401 10061 20049 39730 40156 58001 333 55300 20490 91104 91203;
0140067710999992011011111004+45833+008917FM-12+035699999V0202301N000519999999N9999999N1+00701+00511101481ADDMA1999999097241MD1710081+9999OA149900151REMSYN088AAXX  11114 06771 33/// /2301 10070 20051 39724 40148 57008 333 55300 20612 91103 91202;
0103067710999992011011112004+45833+008917FM-12+035699999V0202201N000519999999N9999999N1+00731+00541101371ADDMA1999999097141REMSYN076AAXX  11124 06771 33/// /2201 10073 20054 39714 40137 5//// 333 553// 20500;
0140067710999992011011113004+45833+008917FM-12+035699999V0202301N001519999999N9999999N1+00751+00531101281ADDMA1999999097051MD1810251+9999OA149900211REMSYN088AAXX  11134 06771 33/// /2303 10075 20053 39705 40128 58025 333 55300 20497 91104 91203;
0087067710999992011011114004+45833+008917FM-12+035699999V0202401N001519999999N9999999N1+00721+00541101271ADDMA1999999097041REMSYN060AAXX  11144 06771 43/// /2403 10072 20054 39704 40127 5////;
0087067710999992011011115004+45833+008917FM-12+035699999V0202401N001519999999N9999999N1+00661+00471101281ADDMA1999999097041REMSYN060AAXX  11154 06771 43/// /2403 10066 20047 39704 40128 5////;
0140067710999992011011116004+45833+008917FM-12+035699999V0202201N001019999999N9999999N1+00581+00441101331ADDMA1999999097071MD1310021+9999OA149900261REMSYN088AAXX  11164 06771 33/// /2202 10058 20044 39707 40133 53002 333 55300 20036 91105 91204;
0140067710999992011011117004+45833+008917FM-12+035699999V0202101N000519999999N9999999N1+00501+00431101321ADDMA1999999097051MD1010011+9999OA149900261REMSYN088AAXX  11174 06771 33/// /2101 10050 20043 39705 40132 50001 333 55300 20000 91105 91204;
0159067710999992011011118004+45833+008917FM-12+035699999V0202301N001019999999N9999999N1+00271+00251101381ADDKA1120M+00771MA1999999097071MD1210031+9999OA149900261REMSYN094AAXX  11184 06771 33/// /2302 10027 20025 39707 40138 52003 333 10077 55300 20000 91105 91204;
0140067710999992011011119004+45833+008917FM-12+035699999V0202401N001019999999N9999999N1+00231+00201101411ADDMA1999999097101MD1310031+9999OA149900151REMSYN088AAXX  11194 06771 33/// /2402 10023 20020 39710 40141 53003 333 55300 20000 91103 91202;
0140067710999992011011120004+45833+008917FM-12+035699999V0202001N001019999999N9999999N1+00091+00071101441ADDMA1999999097101MD1210051+9999OA149900151REMSYN088AAXX  11204 06771 33/// /2002 10009 20007 39710 40144 52005 333 55300 20000 91103 91203;
0140067710999992011011121004+45833+008917FM-12+035699999V0202301N000519999999N9999999N1+00111+00091101441ADDMA1999999097111MD1210041+9999OA149900261REMSYN088AAXX  11214 06771 33/// /2301 10011 20009 39711 40144 52004 333 55300 20000 91105 91204;
0140067710999992011011122004+45833+008917FM-12+035699999V0202101N001019999999N9999999N1+00131+00111101481ADDMA1999999097151MD1310051+9999OA149900261REMSYN088AAXX  11224 06771 33/// /2102 10013 20011 39715 40148 53005 333 55300 20000 91105 91203;
0140067710999992011011123004+45833+008917FM-12+035699999V0209999C000019999999N9999999N1+00101+00081101521ADDMA1999999097181MD1210081+9999OA149900211REMSYN088AAXX  11234 06771 33/// /0000 10010 20008 39718 40152 52008 333 55300 20000 91104 91202;
0140067710999992011011200004+45833+008917FM-12+035699999V0202301N001019999999N9999999N1+00091+00091101541ADDMA1999999097201MD1110091+9999OA149900261REMSYN088AAXX  12004 06771 33/// /2302 10009 20009 39720 40154 51009 333 55300 20000 91105 91204;
0140067710999992011011201004+45833+008917FM-12+035699999V0202201N000519999999N9999999N1+00001-00041101591ADDMA1999999097231MD1110081+9999OA149900211REMSYN088AAXX  12014 06771 33/// /2201 10000 21004 39723 40159 51008 333 55300 20000 91104 91202;
0103067710999992011011202004+45833+008917FM-12+035699999V0202101N001019999999N9999999N1-00041-00041101691ADDMA1999999097321REMSYN076AAXX  12024 06771 33/// /2102 11004 21004 39732 40169 5//// 333 553// 20000;
0087067710999992011011203004+45833+008917FM-12+035699999V0202201N001019999999N9999999N1-00031-00041101731ADDMA1999999097361REMSYN060AAXX  12034 06771 43/// /2202 11003 21004 39736 40173 5////;
0087067710999992011011204004+45833+008917FM-12+035699999V0202301N001019999999N9999999N1-00111-00131101801ADDMA1999999097421REMSYN060AAXX  12044 06771 43/// /2302 11011 21013 39742 40180 5////;
0103067710999992011011205004+45833+008917FM-12+035699999V0202501N000519999999N9999999N1-00081-00131101801ADDMA1999999097421REMSYN076AAXX  12054 06771 33/// /2501 11008 21013 39742 40180 5//// 333 553// 20000;
0178067710999992011011206004+45833+008917FM-12+035699999V0202101N000519999999N9999999N1-00121-00181101861ADDAA124000091GJ100009IA2999-00309KA1999N-00111MA1999999097471REMSYN088AAXX  12064 06771 43/// /2101 11012 21018 39747 40186 5//// 333 21011 3/103 55000 70000;EQDQ01  00002PRCP24
0140067710999992011011207004+45833+008917FM-12+035699999V0202001N000519999999N9999999N1-00121-00161101951ADDMA1999999097561MD1210141+9999OA149900211REMSYN088AAXX  12074 06771 33/// /2001 11012 21016 39756 40195 52014 333 55300 20000 91104 91202;
0087067710999992011011208004+45833+008917FM-12+035699999V0203601N000519999999N9999999N1-00041-00081102011ADDMA1999999097631REMSYN060AAXX  12084 06771 43/// /3601 11004 21008 39763 40201 5////;
0087067710999992011011209004+45833+008917FM-12+035699999V0202301N001019999999N9999999N1+00071+00051102051ADDMA1999999097681REMSYN060AAXX  12094 06771 43/// /2302 10007 20005 39768 40205 5////;
0140067710999992011011210004+45833+008917FM-12+035699999V0209999C000019999999N9999999N1+00281+00221102081ADDMA1999999097751MD1319999+9999OA149900211REMSYN088AAXX  12104 06771 33/// /0000 10028 20022 39775 40208 53/// 333 55301 20500 91104 91203;
0140067710999992011011211004+45833+008917FM-12+035699999V0200401N001519999999N9999999N1+00591+00341102051ADDMA1999999097771MD1310141+9999OA149900211REMSYN088AAXX  12114 06771 33/// /0403 10059 20034 39777 40205 53014 333 55300 20774 91104 91203;
0087067710999992011011212004+45833+008917FM-12+035699999V0203401N000519999999N9999999N1+00731+00411101991ADDMA1999999097731REMSYN060AAXX  12124 06771 43/// /3401 10073 20041 39773 40199 5////;
0087067710999992011011213004+45833+008917FM-12+035699999V0202001N000519999999N9999999N1+00861+00461101951ADDMA1999999097711REMSYN060AAXX  12134 06771 43/// /2001 10086 20046 39771 40195 5////;
0087067710999992011011214004+45833+008917FM-12+035699999V0200901N001019999999N9999999N1+00911+00511101961ADDMA1999999097731REMSYN060AAXX  12144 06771 43/// /0902 10091 20051 39773 40196 5////;
0087067710999992011011215004+45833+008917FM-12+035699999V0202001N001019999999N9999999N1+00861+00441102021ADDMA1999999097781REMSYN060AAXX  12154 06771 43/// /2002 10086 20044 39778 40202 5////;
0140067710999992011011216004+45833+008917FM-12+035699999V0202201N000519999999N9999999N1+00441+00361102121ADDMA1999999097811MD1210101+9999OA149900211REMSYN088AAXX  12164 06771 33/// /2201 10044 20036 39781 40212 52010 333 55301 20112 91104 91202;
0140067710999992011011217004+45833+008917FM-12+035699999V0202301N000519999999N9999999N1+00301+00261102211ADDMA1999999097871MD1210141+9999OA149900151REMSYN088AAXX  12174 06771 33/// /2301 10030 20026 39787 40221 52014 333 55300 20000 91103 91202;
0159067710999992011011218004+45833+008917FM-12+035699999V0202401N000519999999N9999999N1+00181+00151102221ADDKA1120M+00951MA1999999097861MD1210081+9999OA149900261REMSYN094AAXX  12184 06771 33/// /2401 10018 20015 39786 40222 52008 333 10095 55300 20000 91105 91203;
0140067710999992011011219004+45833+008917FM-12+035699999V0202301N001019999999N9999999N1+00201+00131102261ADDMA1999999097911MD1210101+9999OA149900151REMSYN088AAXX  12194 06771 33/// /2302 10020 20013 39791 40226 52010 333 55300 20000 91103 91202;
0140067710999992011011220004+45833+008917FM-12+035699999V0202401N000519999999N9999999N1+00061+00031102321ADDMA1999999097941MD1210071+9999OA149900151REMSYN088AAXX  12204 06771 33/// /2401 10006 20003 39794 40232 52007 333 55300 20000 91103 91202;
0140067710999992011011221004+45833+008917FM-12+035699999V0202301N001019999999N9999999N1+00001-00031102331ADDMA1999999097941MD1210081+9999OA149900151REMSYN088AAXX  12214 06771 33/// /2302 10000 21003 39794 40233 52008 333 55300 20000 91103 91202;
0140067710999992011011222004+45833+008917FM-12+035699999V0209999C000019999999N9999999N1-00031-00071102311ADDMA1999999097921MD1010011+9999OA149900151REMSYN088AAXX  12224 06771 33/// /0000 11003 21007 39792 40231 50001 333 55300 20000 91103 91202;
0140067710999992011011223004+45833+008917FM-12+035699999V0209999C000019999999N9999999N1-00051-00081102311ADDMA1999999097911MD1710031+9999OA149900151REMSYN088AAXX  12234 06771 33/// /0000 11005 21008 39791 40231 57003 333 55300 20000 91103 91202;
0140067710999992011011300004+45833+008917FM-12+035699999V0202201N000519999999N9999999N1-00121-00141102271ADDMA1999999097861MD1719999+9999OA149900211REMSYN088AAXX  13004 06771 33/// /2201 11012 21014 39786 40227 57/// 333 55300 20000 91104 91202;
0140067710999992011011301004+45833+008917FM-12+035699999V0202501N000519999999N9999999N1-00141-00181102221ADDMA1999999097811MD1710111+9999OA149900151REMSYN088AAXX  13014 06771 33/// /2501 11014 21018 39781 40222 57011 333 55300 20000 91103 91202;
0140067710999992011011302004+45833+008917FM-12+035699999V0202301N000519999999N9999999N1-00121-00151102201ADDMA1999999097801MD1719999+9999OA149900151REMSYN088AAXX  13024 06771 33/// /2301 11012 21015 39780 40220 57/// 333 55300 20000 91103 91202;
0087067710999992011011303004+45833+008917FM-12+035699999V0202301N000519999999N9999999N1-00151-00191102181ADDMA1999999097771REMSYN060AAXX  13034 06771 43/// /2301 11015 21019 39777 40218 5////;
0140067710999992011011304004+45833+008917FM-12+035699999V0202401N001019999999N9999999N1-00231-00281102141ADDMA1999999097721MD1719999+9999OA149900151REMSYN088AAXX  13044 06771 33/// /2402 11023 21028 39772 40214 57/// 333 55300 20000 91103 91202;
0103067710999992011011305004+45833+008917FM-12+035699999V0202301N000519999999N9999999N1-00181-00241102101ADDMA1999999097691REMSYN076AAXX  13054 06771 33/// /2301 11018 21024 39769 40210 5//// 333 553// 20000;
0207067710999992011011306004+45833+008917FM-12+035699999V0202201N000519999999N9999999N1-00151-00201102081ADDAL19900091GJ102289IA2999-00409KA1999N-00231MA1999999097681MD1710091+9999OA149900151REMSYN112AAXX  13064 06771 33/// /2201 11015 21020 39768 40208 57009 333 21023 3/104 55038 55300 20000 70000 91103 91202;
0087067710999992011011307004+45833+008917FM-12+035699999V0202301N001019999999N9999999N1-00181-00231102101ADDMA1999999097691REMSYN060AAXX  13074 06771 43/// /2302 11018 21023 39769 40210 5////;
0087067710999992011011308004+45833+008917FM-12+035699999V0202101N000519999999N9999999N1-00131-00181102101ADDMA1999999097701REMSYN060AAXX  13084 06771 43/// /2101 11013 21018 39770 40210 5////;
0087067710999992011011309004+45833+008917FM-12+035699999V0202301N000519999999N9999999N1+00121+00071102041ADDMA1999999097681REMSYN060AAXX  13094 06771 43/// /2301 10012 20007 39768 40204 5////;
0087067710999992011011310004+45833+008917FM-12+035699999V0200801N001019999999N9999999N1+00481+00241101971ADDMA1999999097671REMSYN060AAXX  13104 06771 43/// /0802 10048 20024 39767 40197 5////;
0087067710999992011011311004+45833+008917FM-12+035699999V0200701N001019999999N9999999N1+00731+00211101851ADDMA1999999097601REMSYN060AAXX  13114 06771 43/// /0702 10073 20021 39760 40185 5////;
0087067710999992011011312004+45833+008917FM-12+035699999V0201101N000519999999N9999999N1+00881+00231101711ADDMA1999999097481REMSYN060AAXX  13124 06771 43/// /1101 10088 20023 39748 40171 5////;
0087067710999992011011313004+45833+008917FM-12+035699999V0202401N000519999999N9999999N1+01111+00201101631ADDMA1999999097441REMSYN060AAXX  13134 06771 43/// /2401 10111 20020 39744 40163 5////;
0087067710999992011011314004+45833+008917FM-12+035699999V0202301N001519999999N9999999N1+01081+00181101611ADDMA1999999097421REMSYN060AAXX  13144 06771 43/// /2303 10108 20018 39742 40161 5////;
0087067710999992011011315004+45833+008917FM-12+035699999V0202201N001019999999N9999999N1+00901+00391101631ADDMA1999999097411REMSYN060AAXX  13154 06771 43/// /2202 10090 20039 39741 40163 5////;
0087067710999992011011316004+45833+008917FM-12+035699999V0202301N000519999999N9999999N1+00591+00331101721ADDMA1999999097451REMSYN060AAXX  13164 06771 43/// /2301 10059 20033 39745 40172 5////;
0140067710999992011011317004+45833+008917FM-12+035699999V0202501N001019999999N9999999N1+00361+00221101801ADDMA1999999097491MD1210071+9999OA149900211REMSYN088AAXX  13174 06771 33/// /2502 10036 20022 39749 40180 52007 333 55300 20000 91104 91203;
0159067710999992011011318004+45833+008917FM-12+035699999V0202801N000519999999N9999999N1+00251+00151101861ADDKA1120M+01111MA1999999097531MD1110111+9999OA149900211REMSYN094AAXX  13184 06771 33/// /2801 10025 20015 39753 40186 51011 333 10111 55300 20000 91104 91203;
0140067710999992011011319004+45833+008917FM-12+035699999V0201901N000519999999N9999999N1+00121+00071101901ADDMA1999999097551MD1210101+9999OA149900151REMSYN088AAXX  13194 06771 33/// /1901 10012 20007 39755 40190 52010 333 55300 20000 91103 91202;
0140067710999992011011320004+45833+008917FM-12+035699999V0202301N000519999999N9999999N1+00071+00031101951ADDMA1999999097591MD1210101+9999OA149900211REMSYN088AAXX  13204 06771 33/// /2301 10007 20003 39759 40195 52010 333 55300 20000 91104 91203;
0140067710999992011011321004+45833+008917FM-12+035699999V0202401N001019999999N9999999N1+00031-00021101961ADDMA1999999097591MD1210061+9999OA149900211REMSYN088AAXX  13214 06771 33/// /2402 10003 21002 39759 40196 52006 333 55300 20000 91104 91203;
0140067710999992011011322004+45833+008917FM-12+035699999V0202601N000519999999N9999999N1+00041-00021101981ADDMA1999999097611MD1210061+9999OA149900211REMSYN088AAXX  13224 06771 33/// /2601 10004 21002 39761 40198 52006 333 55300 20000 91104 91202;
0140067710999992011011323004+45833+008917FM-12+035699999V0202501N001019999999N9999999N1+00031-00021101951ADDMA1999999097581MD1010011+9999OA149900211REMSYN088AAXX  13234 06771 33/// /2502 10003 21002 39758 40195 50001 333 55300 20000 91104 91203;
0140067710999992011011400004+45833+008917FM-12+035699999V0202301N000519999999N9999999N1+00001-00041101971ADDMA1999999097601MD1210011+9999OA149900211REMSYN088AAXX  14004 06771 33/// /2301 10000 21004 39760 40197 52001 333 55300 20000 91104 91203;
0140067710999992011011401004+45833+008917FM-12+035699999V0202301N000519999999N9999999N1-00071-00101101961ADDMA1999999097581MD1710031+9999OA149900151REMSYN088AAXX  14014 06771 33/// /2301 11007 21010 39758 40196 57003 333 55300 20000 91103 91202;
0103067710999992011011402004+45833+008917FM-12+035699999V0202201N000519999999N9999999N1-00051-00071102001ADDMA1999999097621REMSYN076AAXX  14024 06771 33/// /2201 11005 21007 39762 40200 5//// 333 553// 20000;
0140067710999992011011403004+45833+008917FM-12+035699999V0202301N001019999999N9999999N1-00081-00131102011ADDMA1999999097621MD1210021+9999OA149900211REMSYN088AAXX  14034 06771 33/// /2302 11008 21013 39762 40201 52002 333 55300 20000 91104 91203;
0140067710999992011011404004+45833+008917FM-12+035699999V0202401N001519999999N9999999N1-00101-00161102001ADDMA1999999097611MD1010031+9999OA149900211REMSYN088AAXX  14044 06771 33/// /2403 11010 21016 39761 40200 50003 333 55300 20000 91104 91203;
0140067710999992011011405004+45833+008917FM-12+035699999V0209999C000019999999N9999999N1-00131-00161102041ADDMA1999999097641MD1310021+9999OA149900211REMSYN088AAXX  14054 06771 33/// /0000 11013 21016 39764 40204 53002 333 55300 20000 91104 91203;
0207067710999992011011406004+45833+008917FM-12+035699999V0209999C000019999999N9999999N1-00161-00191102091ADDAL19900091GJ103729IA2999-00409KA1999N-00191MA1999999097691MD1210071+9999OA149900211REMSYN112AAXX  14064 06771 33/// /0000 11016 21019 39769 40209 52007 333 21019 3/104 55062 55300 20000 70000 91104 91203;
0140067710999992011011407004+45833+008917FM-12+035699999V0202301N001019999999N9999999N1-00211-00261102161ADDMA1999999097741MD1310131+9999OA149900101REMSYN088AAXX  14074 06771 33/// /2302 11021 21026 39774 40216 53013 333 55300 20000 91102 91202;
0087067710999992011011408004+45833+008917FM-12+035699999V0202301N001019999999N9999999N1-00061-00111102161ADDMA1999999097771REMSYN060AAXX  14084 06771 43/// /2302 11006 21011 39777 40216 5////;
0087067710999992011011409004+45833+008917FM-12+035699999V0201301N000519999999N9999999N1+00011-00041102211ADDMA1999999097831REMSYN060AAXX  14094 06771 43/// /1301 10001 21004 39783 40221 5////;
0087067710999992011011410004+45833+008917FM-12+035699999V0201901N000519999999N9999999N1+00201+00111102201ADDMA1999999097851REMSYN060AAXX  14104 06771 43/// /1901 10020 20011 39785 40220 5////;
0140067710999992011011411004+45833+008917FM-12+035699999V0200801N001019999999N9999999N1+00421+00241102161ADDMA1999999097841MD1010071+9999OA149900151REMSYN088AAXX  14114 06771 33/// /0802 10042 20024 39784 40216 50007 333 553// 2//// 91103 91202;
0140067710999992011011412004+45833+008917FM-12+035699999V0201001N000519999999N9999999N1+00571+00311102101ADDMA1999999097811MD1810021+9999OA149900211REMSYN088AAXX  14124 06771 33/// /1001 10057 20031 39781 40210 58002 333 553// 2//// 91104 91203;
0140067710999992011011413004+45833+008917FM-12+035699999V0201101N000519999999N9999999N1+00791+00381101981ADDMA1999999097731MD1710121+9999OA149900151REMSYN088AAXX  14134 06771 33/// /1101 10079 20038 39773 40198 57012 333 553// 20976 91103 91203;
0103067710999992011011414004+45833+008917FM-12+035699999V0202001N001519999999N9999999N1+00881+00361101971ADDMA1999999097731REMSYN076AAXX  14144 06771 33/// /2003 10088 20036 39773 40197 5//// 333 553// 20770;
0140067710999992011011415004+45833+008917FM-12+035699999V0202001N000519999999N9999999N1+00741+00381102021ADDMA1999999097761MD1510051+9999OA149900261REMSYN088AAXX  14154 06771 33/// /2001 10074 20038 39776 40202 55005 333 55300 20454 91105 91203;
0140067710999992011011416004+45833+008917FM-12+035699999V0202201N000519999999N9999999N1+00481+00361102061ADDMA1999999097761MD1210031+9999OA149900211REMSYN088AAXX  14164 06771 33/// /2201 10048 20036 39776 40206 52003 333 55300 20144 91104 91203;
0140067710999992011011417004+45833+008917FM-12+035699999V0202101N000519999999N9999999N1+00231+00161102181ADDMA1999999097831MD1210101+9999OA149900151REMSYN088AAXX  14174 06771 33/// /2101 10023 20016 39783 40218 52010 333 55300 20000 91103 91202;
0159067710999992011011418004+45833+008917FM-12+035699999V0202101N000519999999N9999999N1+00081+00041102241ADDKA1120M+00911MA1999999097871MD1310111+9999OA149900261REMSYN094AAXX  14184 06771 33/// /2101 10008 20004 39787 40224 53011 333 10091 55300 20000 91105 91203;
0140067710999992011011419004+45833+008917FM-12+035699999V0202201N000519999999N9999999N1-00031-00051102261ADDMA1999999097871MD1210111+9999OA149900101REMSYN088AAXX  14194 06771 33/// /2201 11003 21005 39787 40226 52011 333 55300 20000 91102 91202;
0140067710999992011011420004+45833+008917FM-12+035699999V0201101N000519999999N9999999N1+00131+00071102221ADDMA1999999097861MD1210031+9999OA149900101REMSYN088AAXX  14204 06771 33/// /1101 10013 20007 39786 40222 52003 333 55300 20000 91102 91202;
0140067710999992011011421004+45833+008917FM-12+035699999V0202401N000519999999N9999999N1+00151+00101102231ADDMA1999999097871MD1010001+9999OA149900151REMSYN088AAXX  14214 06771 33/// /2401 10015 20010 39787 40223 50000 333 55300 20000 91103 91202;
0140067710999992011011422004+45833+008917FM-12+035699999V0209999C000019999999N9999999N1+00261+00211102211ADDMA1999999097871MD1010001+9999OA149900101REMSYN088AAXX  14224 06771 33/// /0000 10026 20021 39787 40221 50000 333 55300 20000 91102 91201;
0140067710999992011011423004+45833+008917FM-12+035699999V0202001N000519999999N9999999N1+00321+00261102161ADDMA1999999097831MD1810031+9999OA149900151REMSYN088AAXX  14234 06771 33/// /2001 10032 20026 39783 40216 58003 333 55300 20000 91103 91201;
0140067710999992011011500004+45833+008917FM-12+035699999V0200801N000519999999N9999999N1+00381+00321102121ADDMA1999999097801MD1710071+9999OA149900261REMSYN088AAXX  15004 06771 33/// /0801 10038 20032 39780 40212 57007 333 55300 20000 91105 91203;
0140067710999992011011501004+45833+008917FM-12+035699999V0209999C000019999999N9999999N1+00381+00331102111ADDMA1999999097791MD1710081+9999OA149900151REMSYN088AAXX  15014 06771 33/// /0000 10038 20033 39779 40211 57008 333 55300 20000 91103 91201;
0140067710999992011011502004+45833+008917FM-12+035699999V0202501N001019999999N9999999N1+00341+00291102101ADDMA1999999097771MD1719999+9999OA149900151REMSYN088AAXX  15024 06771 33/// /2502 10034 20029 39777 40210 57/// 333 55300 20000 91103 91202;
0103067710999992011011503004+45833+008917FM-12+035699999V0202601N001019999999N9999999N1+00121+00081102121ADDMA1999999097761REMSYN076AAXX  15034 06771 33/// /2602 10012 20008 39776 40212 5//// 333 553// 20000;
0140067710999992011011504004+45833+008917FM-12+035699999V0209999C000019999999N9999999N1+00151+00141102171ADDMA1999999097811MD1310021+9999OA149900261REMSYN088AAXX  15044 06771 33/// /0000 10015 20014 39781 40217 53002 333 55300 20000 91105 91202;
0140067710999992011011505004+45833+008917FM-12+035699999V0202301N000519999999N9999999N1+00151+00151102191ADDMA1999999097831MD1210061+9999OA149900211REMSYN088AAXX  15054 06771 33/// /2301 10015 20015 39783 40219 52006 333 55300 20000 91104 91203;
0207067710999992011011506004+45833+008917FM-12+035699999V0202101N000519999999N9999999N1+00101+00081102221ADDAL19900091GJ102829IA2999-00209KA1999N-00041MA1999999097851MD1210091+9999OA149900261REMSYN112AAXX  15064 06771 33/// /2101 10010 20008 39785 40222 52009 333 21004 3/102 55047 55300 20000 70000 91105 91203;
0140067710999992011011507004+45833+008917FM-12+035699999V0209999C000019999999N9999999N1+00051+00051102351ADDMA1999999097971MD1210161+9999OA149900511REMSYN088AAXX  15074 06771 33/// /0000 10005 20005 39797 40235 52016 333 55300 20000 91110 91204;
0140067710999992011011508004+45833+008917FM-12+035699999V0209999C000019999999N9999999N1-00051-00101102441ADDMA1999999098041MD1219999+9999OA149900511REMSYN088AAXX  15084 06771 33/// /0000 11005 21010 39804 40244 52/// 333 55300 20040 91110 91204;
0140067710999992011011509004+45833+008917FM-12+035699999V0202501N001019999999N9999999N1+00301+00231102441ADDMA1999999098091MD1210241+9999OA149900511REMSYN088AAXX  15094 06771 33/// /2502 10030 20023 39809 40244 52024 333 55305 20400 91110 91204;
0140067710999992011011510004+45833+008917FM-12+035699999V0201401N000519999999N9999999N1+00711+00431102401ADDMA1999999098121MD1210151+9999OA149900211REMSYN088AAXX  15104 06771 33/// /1401 10071 20043 39812 40240 52015 333 553// 2//// 91104 91202;
0140067710999992011011511004+45833+008917FM-12+035699999V0200901N001019999999N9999999N1+01021+00491102351ADDMA1999999098121MD1210081+9999OA149900211REMSYN088AAXX  15114 06771 33/// /0902 10102 20049 39812 40235 52008 333 553// 2//// 91104 91202;
0140067710999992011011512004+45833+008917FM-12+035699999V0201301N002119999999N9999999N1+01051+00551102371ADDMA1999999098141MD1210051+9999OA149900511REMSYN088AAXX  15124 06771 33/// /1304 10105 20055 39814 40237 52005 333 553// 2//// 91110 91204;
0103067710999992011011513004+45833+008917FM-12+035699999V0209999C000019999999N9999999N1+01111+00561102361ADDMA1999999098141REMSYN076AAXX  15134 06771 33/// /0000 10111 20056 39814 40236 5//// 333 553// 2////;
0087067710999992011011514004+45833+008917FM-12+035699999V0200201N000519999999N9999999N1+01071+00531102411ADDMA1999999098181REMSYN060AAXX  15144 06771 43/// /0201 10107 20053 39818 40241 5////;
0087067710999992011011515004+45833+008917FM-12+035699999V0200801N001019999999N9999999N1+01021+00491102421ADDMA1999999098191REMSYN060AAXX  15154 06771 43/// /0802 10102 20049 39819 40242 5////;
0087067710999992011011516004+45833+008917FM-12+035699999V0202501N001019999999N9999999N1+00681+00451102551ADDMA1999999098261REMSYN060AAXX  15164 06771 43/// /2502 10068 20045 39826 40255 5////;
0103067710999992011011517004+45833+008917FM-12+035699999V0202401N003119999999N9999999N1+00571+00401102661ADDMA1999999098351REMSYN076AAXX  15174 06771 33/// /2406 10057 20040 39835 40266 5//// 333 553// 20000;
0110067710999992011011518004+45833+008917FM-12+035699999V0202201N000519999999N9999999N1+00171+00151102811ADDKA1999M+01281MA1999999098431REMSYN070AAXX  15184 06771 43/// /2201 10017 20015 39843 40281 5//// 333 10128;
0087067710999992011011519004+45833+008917FM-12+035699999V0202401N001019999999N9999999N1+00121+00111102901ADDMA1999999098511REMSYN060AAXX  15194 06771 43/// /2402 10012 20011 39851 40290 5////;
0087067710999992011011520004+45833+008917FM-12+035699999V0200601N000519999999N9999999N1+00161+00161102961ADDMA1999999098571REMSYN060AAXX  15204 06771 43/// /0601 10016 20016 39857 40296 5////;
0140067710999992011011521004+45833+008917FM-12+035699999V0209999C000019999999N9999999N1+00191+00191102981ADDMA1999999098591MD1110161+9999OA149900361REMSYN088AAXX  15214 06771 33/// /0000 10019 20019 39859 40298 51016 333 55300 20000 91107 91206;
0140067710999992011011522004+45833+008917FM-12+035699999V0202501N001019999999N9999999N1+00101+00081103011ADDMA1999999098611MD1110101+9999OA149900211REMSYN088AAXX  15224 06771 33/// /2502 10010 20008 39861 40301 51010 333 55300 20000 91104 91203;
0140067710999992011011523004+45833+008917FM-12+035699999V0202301N001019999999N9999999N1+00021+00011103021ADDMA1999999098601MD1210031+9999OA149900211REMSYN088AAXX  15234 06771 33/// /2302 10002 20001 39860 40302 52003 333 55300 20000 91104 91203;
0140067710999992011011600004+45833+008917FM-12+035699999V0209999C000019999999N9999999N1-00021-00021103011ADDMA1999999098591MD1010001+9999OA149900571REMSYN088AAXX  16004 06771 33/// /0000 11002 21002 39859 40301 50000 333 55300 20000 91111 91206;
0140067710999992011011601004+45833+008917FM-12+035699999V0202401N001019999999N9999999N1-00051-00061103071ADDMA1999999098641MD1310031+9999OA149900151REMSYN088AAXX  16014 06771 33/// /2402 11005 21006 39864 40307 53003 333 55300 20000 91103 91202;
0140067710999992011011602004+45833+008917FM-12+035699999V0202301N000519999999N9999999N1+00001+00001103101ADDMA1999999098681MD1219999+9999OA149900151REMSYN088AAXX  16024 06771 33/// /2301 10000 20000 39868 40310 52/// 333 55300 20000 91103 91202;
0087067710999992011011603004+45833+008917FM-12+035699999V0209999C000019999999N9999999N1+00031+00031103121ADDMA1999999098701REMSYN060AAXX  16034 06771 43/// /0000 10003 20003 39870 40312 5////;
0140067710999992011011604004+45833+008917FM-12+035699999V0201301N000519999999N9999999N1+00031+00031103131ADDMA1999999098711MD1210071+9999OA149900211REMSYN088AAXX  16044 06771 33/// /1301 10003 20003 39871 40313 52007 333 55300 20000 91104 91202;
0140067710999992011011605004+45833+008917FM-12+035699999V0209999C000019999999N9999999N1-00071-00071103151ADDMA1999999098711MD1210031+9999OA149900151REMSYN088AAXX  16054 06771 33/// /0000 11007 21007 39871 40315 52003 333 55300 20000 91103 91201;
0207067710999992011011606004+45833+008917FM-12+035699999V0202301N000519999999N9999999N1-00091-00131103181ADDAL19900091GJ104089IA2999-00209KA1999N-00121MA1999999098741MD1210041+9999OA149900211REMSYN112AAXX  16064 06771 33/// /2301 11009 21013 39874 40318 52004 333 21012 3/102 55068 55300 20000 70000 91104 91203;
0140067710999992011011607004+45833+008917FM-12+035699999V0202301N001519999999N9999999N1-00051-00071103191ADDMA1999999098761MD1210051+9999OA149900211REMSYN088AAXX  16074 06771 33/// /2303 11005 21007 39876 40319 52005 333 55300 20000 91104 91203;
0140067710999992011011608004+45833+008917FM-12+035699999V0209999C000019999999N9999999N1+00021+00021103191ADDMA1999999098771MD1219999+9999OA149900261REMSYN088AAXX  16084 06771 33/// /0000 10002 20002 39877 40319 52/// 333 55300 20047 91105 91203;
0140067710999992011011609004+45833+008917FM-12+035699999V0209999C000019999999N9999999N1+00091+00091103231ADDMA1999999098821MD1210081+9999OA149900261REMSYN088AAXX  16094 06771 33/// /0000 10009 20009 39882 40323 52008 333 55300 20252 91105 91203;
0140067710999992011011610004+45833+008917FM-12+035699999V0201101N000519999999N9999999N1+00191+00181103221ADDMA1999999098821MD1210061+9999OA149900151REMSYN088AAXX  16104 06771 33/// /1101 10019 20018 39882 40322 52006 333 55300 20500 91103 91202;
0140067710999992011011611004+45833+008917FM-12+035699999V0201101N000519999999N9999999N1+00521+00311103141ADDMA1999999098801MD1010031+9999OA149900151REMSYN088AAXX  16114 06771 33/// /1101 10052 20031 39880 40314 50003 333 55307 2//// 91103 91202;
0140067710999992011011612004+45833+008917FM-12+035699999V0201301N000519999999N9999999N1+00841+00381103031ADDMA1999999098741MD1810081+9999OA149900261REMSYN088AAXX  16124 06771 33/// /1301 10084 20038 39874 40303 58008 333 553// 2//// 91105 91203;
0140067710999992011011613004+45833+008917FM-12+035699999V0201101N000519999999N9999999N1+01061+00381102931ADDMA1999999098681MD1810141+9999OA149900151REMSYN088AAXX  16134 06771 33/// /1101 10106 20038 39868 40293 58014 333 553// 2//// 91103 91202;
0140067710999992011011614004+45833+008917FM-12+035699999V0200801N001019999999N9999999N1+01111+00421102891ADDMA1999999098651MD1619999+9999OA149900211REMSYN088AAXX  16144 06771 33/// /0802 10111 20042 39865 40289 56/// 333 553// 2//// 91104 91203;
0140067710999992011011615004+45833+008917FM-12+035699999V0202201N001019999999N9999999N1+01061+00491102931ADDMA1999999098681MD1510061+9999OA149900211REMSYN088AAXX  16154 06771 33/// /2202 10106 20049 39868 40293 55006 333 553// 20598 91104 91203;
0140067710999992011011616004+45833+008917FM-12+035699999V0202301N001519999999N9999999N1+00581+00371103031ADDMA1999999098701MD1310021+9999OA149900211REMSYN088AAXX  16164 06771 33/// /2303 10058 20037 39870 40303 53002 333 55304 20126 91104 91203;
0140067710999992011011617004+45833+008917FM-12+035699999V0202101N001019999999N9999999N1+00261+00191103141ADDMA1999999098761MD1310111+9999OA149900211REMSYN088AAXX  16174 06771 33/// /2102 10026 20019 39876 40314 53011 333 55300 20000 91104 91203;
0159067710999992011011618004+45833+008917FM-12+035699999V0202501N000519999999N9999999N1+00141+00091103201ADDKA1120M+01131MA1999999098801MD1310121+9999OA149900261REMSYN094AAXX  16184 06771 33/// /2501 10014 20009 39880 40320 53012 333 10113 55300 20000 91105 91203;
0140067710999992011011619004+45833+008917FM-12+035699999V0202401N000519999999N9999999N1+00051+00011103241ADDMA1999999098821MD1110121+9999OA149900101REMSYN088AAXX  16194 06771 33/// /2401 10005 20001 39882 40324 51012 333 55300 20000 91102 91201;
0140067710999992011011620004+45833+008917FM-12+035699999V0202401N001019999999N9999999N1-00021-00071103241ADDMA1999999098811MD1010051+9999OA149900101REMSYN088AAXX  16204 06771 33/// /2402 11002 21007 39881 40324 50005 333 55300 20000 91102 91202;
0140067710999992011011621004+45833+008917FM-12+035699999V0202501N000519999999N9999999N1-00071-00111103251ADDMA1999999098811MD1010011+9999OA149900211REMSYN088AAXX  16214 06771 33/// /2501 11007 21011 39881 40325 50001 333 55300 20000 91104 91203;
0140067710999992011011622004+45833+008917FM-12+035699999V0202601N000519999999N9999999N1-00101-00141103231ADDMA1999999098791MD1710031+9999OA149900101REMSYN088AAXX  16224 06771 33/// /2601 11010 21014 39879 40323 57003 333 55300 20000 91102 91202;
0140067710999992011011623004+45833+008917FM-12+035699999V0202601N000519999999N9999999N1-00151-00171103221ADDMA1999999098771MD1710041+9999OA149900101REMSYN088AAXX  16234 06771 33/// /2601 11015 21017 39877 40322 57004 333 55300 20000 91102 91202;
0140067710999992011011700004+45833+008917FM-12+035699999V0202401N000519999999N9999999N1-00201-00251103211ADDMA1999999098751MD1710061+9999OA149900211REMSYN088AAXX  17004 06771 33/// /2401 11020 21025 39875 40321 57006 333 55300 20000 91104 91203;
0140067710999992011011701004+45833+008917FM-12+035699999V0202501N000519999999N9999999N1-00191-00241103161ADDMA1999999098701MD1710091+9999OA149900101REMSYN088AAXX  17014 06771 33/// /2501 11019 21024 39870 40316 57009 333 55300 20000 91102 91202;
0140067710999992011011702004+45833+008917FM-12+035699999V0202401N000519999999N9999999N1-00201-00271103141ADDMA1999999098681MD1719999+9999OA149900101REMSYN088AAXX  17024 06771 33/// /2401 11020 21027 39868 40314 57/// 333 55300 20000 91102 91202;
0103067710999992011011703004+45833+008917FM-12+035699999V0202401N000519999999N9999999N1-00241-00321103111ADDMA1999999098651REMSYN076AAXX  17034 06771 33/// /2401 11024 21032 39865 40311 5//// 333 553// 20000;
0140067710999992011011704004+45833+008917FM-12+035699999V0209999C000019999999N9999999N1-00231-00301103081ADDMA1999999098621MD1810081+9999OA149900151REMSYN088AAXX  17044 06771 33/// /0000 11023 21030 39862 40308 58008 333 55300 20000 91103 91202;
0140067710999992011011705004+45833+008917FM-12+035699999V0202201N000519999999N9999999N1-00321-00371103081ADDMA1999999098611MD1710071+9999OA149900151REMSYN088AAXX  17054 06771 33/// /2201 11032 21037 39861 40308 57007 333 55300 20000 91103 91202;
0207067710999992011011706004+45833+008917FM-12+035699999V0202401N001019999999N9999999N1-00261-00331103051ADDAL19900091GJ103069IA2999-00509KA1999N-00321MA1999999098591MD1710061+9999OA149900151REMSYN112AAXX  17064 06771 33/// /2402 11026 21033 39859 40305 57006 333 21032 3/105 55051 55300 20000 70000 91103 91202;
0140067710999992011011707004+45833+008917FM-12+035699999V0209999C000019999999N9999999N1-00271-00341103061ADDMA1999999098601MD1710021+9999OA149900101REMSYN088AAXX  17074 06771 33/// /0000 11027 21034 39860 40306 57002 333 55300 20000 91102 91202;
0087067710999992011011708004+45833+008917FM-12+035699999V0202501N000519999999N9999999N1-00211-00271103041ADDMA1999999098591REMSYN060AAXX  17084 06771 43/// /2501 11021 21027 39859 40304 5////;
0087067710999992011011709004+45833+008917FM-12+035699999V0202101N000519999999N9999999N1+00031-00061103001ADDMA1999999098591REMSYN060AAXX  17094 06771 43/// /2101 10003 21006 39859 40300 5////;
0140067710999992011011710004+45833+008917FM-12+035699999V0201201N000519999999N9999999N1+00371+00161102961ADDMA1999999098601MD1410001+9999OA149900101REMSYN088AAXX  17104 06771 33/// /1201 10037 20016 39860 40296 54000 333 553// 20907 91102 91201;
0140067710999992011011711004+45833+008917FM-12+035699999V0201101N000519999999N9999999N1+00691+00321102861ADDMA1999999098561MD1810031+9999OA149900101REMSYN088AAXX  17114 06771 33/// /1101 10069 20032 39856 40286 58003 333 553// 2//// 91102 91201;
0140067710999992011011712004+45833+008917FM-12+035699999V0200901N001019999999N9999999N1+01011+00191102721ADDMA1999999098471MD1710121+9999OA149900151REMSYN088AAXX  17124 06771 33/// /0902 10101 20019 39847 40272 57012 333 553// 2//// 91103 91202;
0140067710999992011011713004+45833+008917FM-12+035699999V0200801N001019999999N9999999N1+01161+00101102611ADDMA1999999098391MD1810211+9999OA149900151REMSYN088AAXX  17134 06771 33/// /0802 10116 20010 39839 40261 58021 333 553// 2//// 91103 91202;
0087067710999992011011714004+45833+008917FM-12+035699999V0201301N000519999999N9999999N1+01201+00131102561ADDMA1999999098351REMSYN060AAXX  17144 06771 43/// /1301 10120 20013 39835 40256 5////;
0087067710999992011011715004+45833+008917FM-12+035699999V0202301N001019999999N9999999N1+01001+00401102581ADDMA1999999098341REMSYN060AAXX  17154 06771 43/// /2302 10100 20040 39834 40258 5////;
0140067710999992011011716004+45833+008917FM-12+035699999V0202101N000519999999N9999999N1+00501+00281102661ADDMA1999999098341MD1710051+9999OA149900261REMSYN088AAXX  17164 06771 33/// /2101 10050 20028 39834 40266 57005 333 55305 20133 91105 91204;
0140067710999992011011717004+45833+008917FM-12+035699999V0202101N000519999999N9999999N1+00331+00201102711ADDMA1999999098361MD1210011+9999OA149900211REMSYN088AAXX  17174 06771 33/// /2101 10033 20020 39836 40271 52001 333 55300 20000 91104 91203;
0159067710999992011011718004+45833+008917FM-12+035699999V0202201N000519999999N9999999N1+00101+00051102781ADDKA1120M+01221MA1999999098391MD1210051+9999OA149900261REMSYN094AAXX  17184 06771 33/// /2201 10010 20005 39839 40278 52005 333 10122 55300 20000 91105 91204;
0140067710999992011011719004+45833+008917FM-12+035699999V0202501N001019999999N9999999N1+00081+00001102791ADDMA1999999098391MD1210051+9999OA149900151REMSYN088AAXX  17194 06771 33/// /2502 10008 20000 39839 40279 52005 333 55300 20000 91103 91202;
0140067710999992011011720004+45833+008917FM-12+035699999V0202301N000519999999N9999999N1-00011-00061102811ADDMA1999999098401MD1210041+9999OA149900151REMSYN088AAXX  17204 06771 33/// /2301 11001 21006 39840 40281 52004 333 55300 20000 91103 91202;
0140067710999992011011721004+45833+008917FM-12+035699999V0202301N000519999999N9999999N1-00101-00131102801ADDMA1999999098371MD1710021+9999OA149900211REMSYN088AAXX  17214 06771 33/// /2301 11010 21013 39837 40280 57002 333 55300 20000 91104 91203;
0140067710999992011011722004+45833+008917FM-12+035699999V0202301N001019999999N9999999N1-00151-00201102791ADDMA1999999098361MD1710031+9999OA149900151REMSYN088AAXX  17224 06771 33/// /2302 11015 21020 39836 40279 57003 333 55300 20000 91103 91202;
0140067710999992011011723004+45833+008917FM-12+035699999V0202501N001019999999N9999999N1-00151-00221102781ADDMA1999999098351MD1710051+9999OA149900151REMSYN088AAXX  17234 06771 33/// /2502 11015 21022 39835 40278 57005 333 55300 20000 91103 91202;
0140067710999992011011800004+45833+008917FM-12+035699999V0202601N000519999999N9999999N1-00191-00261102781ADDMA1999999098341MD1710031+9999OA149900261REMSYN088AAXX  18004 06771 33/// /2601 11019 21026 39834 40278 57003 333 55300 20000 91105 91204;
0140067710999992011011801004+45833+008917FM-12+035699999V0209999C000019999999N9999999N1-00181-00221102761ADDMA1999999098321MD1719999+9999OA149900151REMSYN088AAXX  18014 06771 33/// /0000 11018 21022 39832 40276 57/// 333 55300 20000 91103 91202;
0087067710999992011011802004+45833+008917FM-12+035699999V0202301N001019999999N9999999N1-00251-00291102771ADDMA1999999098321REMSYN060AAXX  18024 06771 43/// /2302 11025 21029 39832 40277 5////;
0087067710999992011011803004+45833+008917FM-12+035699999V0202301N000519999999N9999999N1-00261-00301102761ADDMA1999999098311REMSYN060AAXX  18034 06771 43/// /2301 11026 21030 39831 40276 5////;
0103067710999992011011804004+45833+008917FM-12+035699999V0209999C000019999999N9999999N1-00251-00311102741ADDMA1999999098291REMSYN076AAXX  18044 06771 33/// /0000 11025 21031 39829 40274 5//// 333 553// 20000;
0140067710999992011011805004+45833+008917FM-12+035699999V0202301N001019999999N9999999N1-00331-00421102731ADDMA1999999098271MD1710051+9999OA149900151REMSYN088AAXX  18054 06771 33/// /2302 11033 21042 39827 40273 57005 333 55300 20000 91103 91202;
0207067710999992011011806004+45833+008917FM-12+035699999V0202401N000519999999N9999999N1-00341-00411102731ADDAL19900091GJ104209IA2999-00509KA1999N-00331MA1999999098271MD1710041+9999OA149900151REMSYN112AAXX  18064 06771 33/// /2401 11034 21041 39827 40273 57004 333 21033 3/105 55070 55300 20000 70000 91103 91202;
0140067710999992011011807004+45833+008917FM-12+035699999V0209999C000019999999N9999999N1-00261-00341102751ADDMA1999999098301MD1310011+9999OA149900151REMSYN088AAXX  18074 06771 33/// /0000 11026 21034 39830 40275 53001 333 55300 20000 91103 91202;
0087067710999992011011808004+45833+008917FM-12+035699999V0202601N000519999999N9999999N1-00271-00321102771ADDMA1999999098321REMSYN060AAXX  18084 06771 43/// /2601 11027 21032 39832 40277 5////;
0087067710999992011011809004+45833+008917FM-12+035699999V0202001N000519999999N9999999N1+00031-00031102771ADDMA1999999098371REMSYN060AAXX  18094 06771 43/// /2001 10003 21003 39837 40277 5////;
0140067710999992011011810004+45833+008917FM-12+035699999V0201001N000519999999N9999999N1+00431+00141102701ADDMA1999999098361MD1210061+9999OA149900101REMSYN088AAXX  18104 06771 33/// /1001 10043 20014 39836 40270 52006 333 553// 20990 91102 91201;
0140067710999992011011811004+45833+008917FM-12+035699999V0201101N000519999999N9999999N1+00771+00081102581ADDMA1999999098301MD1810021+9999OA149900151REMSYN088AAXX  18114 06771 33/// /1101 10077 20008 39830 40258 58002 333 553// 2//// 91103 91202;
0140067710999992011011812004+45833+008917FM-12+035699999V0200601N000519999999N9999999N1+00911+00121102471ADDMA1999999098221MD1719999+9999OA149900151REMSYN088AAXX  18124 06771 33/// /0601 10091 20012 39822 40247 57/// 333 553// 2//// 91103 91202;
0103067710999992011011813004+45833+008917FM-12+035699999V0200801N000519999999N9999999N1+01101+00131102351ADDMA1999999098131REMSYN076AAXX  18134 06771 33/// /0801 10110 20013 39813 40235 5//// 333 553// 2////;
0087067710999992011011814004+45833+008917FM-12+035699999V0200901N000519999999N9999999N1+01091+00141102311ADDMA1999999098091REMSYN060AAXX  18144 06771 43/// /0901 10109 20014 39809 40231 5////;
0087067710999992011011815004+45833+008917FM-12+035699999V0202001N001519999999N9999999N1+00971+00211102331ADDMA1999999098091REMSYN060AAXX  18154 06771 43/// /2003 10097 20021 39809 40233 5////;
0140067710999992011011816004+45833+008917FM-12+035699999V0202401N001019999999N9999999N1+00461+00201102431ADDMA1999999098111MD1510021+9999OA149900261REMSYN088AAXX  18164 06771 33/// /2402 10046 20020 39811 40243 55002 333 55305 20137 91105 91203;
0140067710999992011011817004+45833+008917FM-12+035699999V0209999C000019999999N9999999N1+00271+00131102491ADDMA1999999098141MD1210051+9999OA149900211REMSYN088AAXX  18174 06771 33/// /0000 10027 20013 39814 40249 52005 333 55300 20004 91104 91203;
0159067710999992011011818004+45833+008917FM-12+035699999V0202201N000519999999N9999999N1+00151+00041102521ADDKA1120M+01101MA1999999098151MD1310061+9999OA149900261REMSYN094AAXX  18184 06771 33/// /2201 10015 20004 39815 40252 53006 333 10110 55300 20000 91105 91203;
0140067710999992011011819004+45833+008917FM-12+035699999V0202501N001519999999N9999999N1+00071-00041102551ADDMA1999999098161MD1110051+9999OA149900211REMSYN088AAXX  18194 06771 33/// /2503 10007 21004 39816 40255 51005 333 55300 20000 91104 91203;
0140067710999992011011820004+45833+008917FM-12+035699999V0202301N000519999999N9999999N1+00011-00071102551ADDMA1999999098151MD1010011+9999OA149900211REMSYN088AAXX  18204 06771 33/// /2301 10001 21007 39815 40255 50001 333 55300 20000 91104 91203;
0140067710999992011011821004+45833+008917FM-12+035699999V0202501N000519999999N9999999N1-00031-00091102551ADDMA1999999098151MD1010001+9999OA149900211REMSYN088AAXX  18214 06771 33/// /2501 11003 21009 39815 40255 50000 333 55300 20000 91104 91203;
0140067710999992011011822004+45833+008917FM-12+035699999V0202401N000519999999N9999999N1-00091-00131102571ADDMA1999999098161MD1510001+9999OA149900101REMSYN088AAXX  18224 06771 33/// /2401 11009 21013 39816 40257 55000 333 55300 20000 91102 91202;
0140067710999992011011823004+45833+008917FM-12+035699999V0202401N000519999999N9999999N1-00071-00121102551ADDMA1999999098141MD1810011+9999OA149900101REMSYN088AAXX  18234 06771 33/// /2401 11007 21012 39814 40255 58001 333 55300 20000 91102 91202;
0140067710999992011011900004+45833+008917FM-12+035699999V0202401N000519999999N9999999N1-00041-00111102521ADDMA1999999098121MD1710031+9999OA149900261REMSYN088AAXX  19004 06771 33/// /2401 11004 21011 39812 40252 57003 333 55300 20000 91105 91203;
