0128067710999992010010100004+45850+008933FM-12+035699999V0202301N001019999999N9999999N1+00211+00181099391ADDMA1999999095141MD1810161+9999OA149900151REMSYN076AAXX  01004 06771 33/// /2302 10021 20018 39514 49939 58016 333 91103 91202;
0128067710999992010010101004+45850+008933FM-12+035699999V0202001N000519999999N9999999N1+00331+00271099331ADDMA1999999095101MD1710201+9999OA149900211REMSYN076AAXX  01014 06771 33/// /2001 10033 20027 39510 49933 57020 333 91104 91203;
0128067710999992010010102004+45850+008933FM-12+035699999V0202101N000519999999N9999999N1+00231+00201099331ADDMA1999999095091MD1719999+9999OA149900211REMSYN076AAXX  01024 06771 33/// /2101 10023 20020 39509 49933 57/// 333 91104 91203;
0087067710999992010010103004+45850+008933FM-12+035699999V0202701N000519999999N9999999N1+00181+00151099291ADDMA1999999095041REMSYN060AAXX  01034 06771 43/// /2701 10018 20015 39504 49929 5////;
0087067710999992010010104004+45850+008933FM-12+035699999V0201801N000519999999N9999999N1+00231+00191099171ADDMA1999999094931REMSYN060AAXX  01044 06771 33/// /1801 10023 20019 39493 49917 5////;
0128067710999992010010105004+45850+008933FM-12+035699999V0202001N001019999999N9999999N1+00201+00201099101ADDMA1999999094861MD1710231+9999OA149900211REMSYN076AAXX  01054 06771 33/// /2002 10020 20020 39486 49910 57023 333 91104 91202;
0206067710999992010010106004+45850+008933FM-12+035699999V0202201N001019999999N9999999N1+00201+00161099081ADDAA124003391AL11800391GJ100009IA2999+00109KA1999N+00161MA1999999094841MD1710201+9999OA149900211REMSYN100AAXX  01064 06771 33/// /2202 10020 20016 39484 49908 57020 333 20016 3/001 55000 70033 91104 91203;
0128067710999992010010107004+45850+008933FM-12+035699999V0202101N001019999999N9999999N1+00171+00131099151ADDMA1999999094901MD1510031+9999OA149900311REMSYN076AAXX  01074 06771 33/// /2102 10017 20013 39490 49915 55003 333 91106 91203;
0128067710999992010010108004+45850+008933FM-12+035699999V0201801N000519999999N9999999N1+00161+00131099171ADDMA1999999094921MD1210061+9999OA149900311REMSYN076AAXX  01084 06771 33/// /1801 10016 20013 39492 49917 52006 333 91106 91203;
0128067710999992010010109004+45850+008933FM-12+035699999V0209999C000019999999N9999999N1+00401+00321099161ADDMA1999999094951MD1110111+9999OA149900311REMSYN076AAXX  01094 06771 33/// /0000 10040 20032 39495 49916 51011 333 91106 91203;
0128067710999992010010110004+45850+008933FM-12+035699999V0202401N000519999999N9999999N1+00431+00361099181ADDMA1999999094971MD1210071+9999OA149900261REMSYN076AAXX  01104 06771 33/// /2401 10043 20036 39497 49918 52007 333 91105 91202;
0128067710999992010010111004+45850+008933FM-12+035699999V0200301N000519999999N9999999N1+00541+00421099121ADDMA1999999094931MD1010011+9999OA149900151REMSYN076AAXX  01114 06771 33/// /0301 10054 20042 39493 49912 50001 333 91103 91202;
0128067710999992010010112004+45850+008933FM-12+035699999V0209999C000019999999N9999999N1+00601+00441099051ADDMA1999999094871MD1710081+9999OA149900311REMSYN076AAXX  01124 06771 33/// /0000 10060 20044 39487 49905 57008 333 91106 91203;
0128067710999992010010113004+45850+008933FM-12+035699999V0200801N000519999999N9999999N1+00721+00401099031ADDMA1999999094871MD1710101+9999OA149900151REMSYN076AAXX  01134 06771 33/// /0801 10072 20040 39487 49903 57010 333 91103 91202;
0128067710999992010010114004+45850+008933FM-12+035699999V0200601N001019999999N9999999N1+00741+00441099061ADDMA1999999094911MD1519999+9999OA149900151REMSYN076AAXX  01144 06771 33/// /0602 10074 20044 39491 49906 55/// 333 91103 91202;
0128067710999992010010115004+45850+008933FM-12+035699999V0202301N001019999999N9999999N1+00461+00371099191ADDMA1999999094991MD1210121+9999OA149900151REMSYN076AAXX  01154 06771 33/// /2302 10046 20037 39499 49919 52012 333 91103 91202;
0128067710999992010010116004+45850+008933FM-12+035699999V0202401N001019999999N9999999N1+00311+00271099271ADDMA1999999095041MD1210171+9999OA149900211REMSYN076AAXX  01164 06771 33/// /2402 10031 20027 39504 49927 52017 333 91104 91203;
0128067710999992010010117004+45850+008933FM-12+035699999V0201901N000519999999N9999999N1+00351+00351099351ADDMA1999999095121MD1210211+9999OA149900211REMSYN076AAXX  01174 06771 33/// /1901 10035 20035 39512 49935 52021 333 91104 91203;
0147067710999992010010118004+45850+008933FM-12+035699999V0202401N001519999999N9999999N1+00291+00261099431ADDKA1120M+00791MA1999999095191MD1210201+9999OA149900311REMSYN082AAXX  01184 06771 33/// /2403 10029 20026 39519 49943 52020 333 10079 91106 91203;
0128067710999992010010119004+45850+008933FM-12+035699999V0202401N001019999999N9999999N1+00131+00111099541ADDMA1999999095271MD1310231+9999OA149900261REMSYN076AAXX  01194 06771 33/// /2402 10013 20011 39527 49954 53023 333 91105 91203;
0128067710999992010010120004+45850+008933FM-12+035699999V0202001N001019999999N9999999N1+00131+00111099591ADDMA1999999095321MD1210201+9999OA149900211REMSYN076AAXX  01204 06771 33/// /2002 10013 20011 39532 49959 52020 333 91104 91203;
0128067710999992010010121004+45850+008933FM-12+035699999V0202001N000519999999N9999999N1-00021-00051099701ADDMA1999999095401MD1210211+9999OA149900261REMSYN076AAXX  01214 06771 33/// /2001 11002 21005 39540 49970 52021 333 91105 91203;
0128067710999992010010122004+45850+008933FM-12+035699999V0202201N000519999999N9999999N1+00091+00041099741ADDMA1999999095461MD1210191+9999OA149900361REMSYN076AAXX  01224 06771 33/// /2201 10009 20004 39546 49974 52019 333 91107 91204;
0128067710999992010010123004+45850+008933FM-12+035699999V0202601N000519999999N9999999N1-00011-00051099811ADDMA1999999095511MD1210191+9999OA149900361REMSYN076AAXX  01234 06771 33/// /2601 11001 21005 39551 49981 52019 333 91107 91204;
0128067710999992010010200004+45850+008933FM-12+035699999V0202401N001019999999N9999999N1+00031-00021099821ADDMA1999999095521MD1219999+9999OA149900361REMSYN076AAXX  02004 06771 33/// /2402 10003 21002 39552 49982 52/// 333 91107 91204;
0128067710999992010010201004+45850+008933FM-12+035699999V0202201N000519999999N9999999N1+00101+00021099851ADDMA1999999095561MD1210101+9999OA149900311REMSYN076AAXX  02014 06771 33/// /2201 10010 20002 39556 49985 52010 333 91106 91204;
0087067710999992010010202004+45850+008933FM-12+035699999V0202801N000519999999N9999999N1+00421-00181099871ADDMA1999999095631REMSYN060AAXX  02024 06771 33/// /2801 10042 21018 39563 49987 5////;
0128067710999992010010203004+45850+008933FM-12+035699999V0200201N001519999999N9999999N1+00891-00661099881ADDMA1999999095711MD1319999+9999OA149900721REMSYN076AAXX  02034 06771 33/// /0203 10089 21066 39571 49988 53/// 333 91114 91206;
0128067710999992010010204004+45850+008933FM-12+035699999V0200201N001519999999N9999999N1+00921-00801099901ADDMA1999999095741MD1210181+9999OA149900881REMSYN076AAXX  02044 06771 33/// /0203 10092 21080 39574 49990 52018 333 91117 91207;
0128067710999992010010205004+45850+008933FM-12+035699999V0200201N003119999999N9999999N1+00861-00801100011ADDMA1999999095831MD1210201+9999OA149900931REMSYN076AAXX  02054 06771 33/// /0206 10086 21080 39583 40001 52020 333 91118 91207;
0225067710999992010010206004+45850+008933FM-12+035699999V0200101N002119999999N9999999N1+00791-01051100111ADDAA124000091AL19900091GJ100909IA2999-00209KA1999N-00061MA1999999095921MD1310211+9999OA149901031REMSYN100AAXX  02064 06771 33/// /0104 10079 21105 39592 40011 53021 333 21006 3/102 55015 70000 91120 91209;EQDQ01  00002PRCP24
0128067710999992010010207004+45850+008933FM-12+035699999V0200201N003619999999N9999999N1+00731-01331100191ADDMA1999999095991MD1310251+9999OA149901241REMSYN076AAXX  02074 06771 33/// /0207 10073 21133 39599 40019 53025 333 91124 91209;
0087067710999992010010208004+45850+008933FM-12+035699999V0200301N006219999999N9999999N1+00631-01341100281ADDMA1999999096061REMSYN060AAXX  02084 06771 33/// /0312 10063 21134 39606 40028 5////;
0128067710999992010010209004+45850+008933FM-12+035699999V0200301N007719999999N9999999N1+00631-01451100401ADDMA1999999096171MD1310251+9999OA149901851REMSYN076AAXX  02094 06771 33/// /0315 10063 21145 39617 40040 53025 333 91136 91215;
0128067710999992010010210004+45850+008933FM-12+035699999V0203601N002119999999N9999999N1+00641-01581100521ADDMA1999999096291MD1210301+9999OA149901901REMSYN076AAXX  02104 06771 33/// /3604 10064 21158 39629 40052 52030 333 91137 91215;
0128067710999992010010211004+45850+008933FM-12+035699999V0200201N004619999999N9999999N1+00621-01471100591ADDMA1999999096351MD1210291+9999OA149901901REMSYN076AAXX  02114 06771 33/// /0209 10062 21147 39635 40059 52029 333 91137 91213;
0128067710999992010010212004+45850+008933FM-12+035699999V0200101N004119999999N9999999N1+00561-01881100661ADDMA1999999096411MD1210241+9999OA149901901REMSYN076AAXX  02124 06771 33/// /0108 10056 21188 39641 40066 52024 333 91137 91215;
0128067710999992010010213004+45850+008933FM-12+035699999V0200201N004619999999N9999999N1+00571-01931100731ADDMA1999999096481MD1210191+9999OA149901851REMSYN076AAXX  02134 06771 33/// /0209 10057 21193 39648 40073 52019 333 91136 91211;
0128067710999992010010214004+45850+008933FM-12+035699999V0200201N003619999999N9999999N1+00481-02031100881ADDMA1999999096611MD1219999+9999OA149902011REMSYN076AAXX  02144 06771 33/// /0207 10048 21203 39661 40088 52/// 333 91139 91211;
0128067710999992010010215004+45850+008933FM-12+035699999V0200201N003619999999N9999999N1+00411-01821101031ADDMA1999999096741MD1310331+9999OA149902011REMSYN076AAXX  02154 06771 33/// /0207 10041 21182 39674 40103 53033 333 91139 91213;
0128067710999992010010216004+45850+008933FM-12+035699999V0200201N005719999999N9999999N1+00321-01821101181ADDMA1999999096871MD1310391+9999OA149901651REMSYN076AAXX  02164 06771 33/// /0211 10032 21182 39687 40118 53039 333 91132 91212;
0128067710999992010010217004+45850+008933FM-12+035699999V0200301N004619999999N9999999N1+00261-01721101321ADDMA1999999097001MD1210391+9999OA149901651REMSYN076AAXX  02174 06771 33/// /0309 10026 21172 39700 40132 52039 333 91132 91212;
0147067710999992010010218004+45850+008933FM-12+035699999V0200201N004119999999N9999999N1+00271-01761101421ADDKA1120M+00831MA1999999097091MD1210351+9999OA149902011REMSYN082AAXX  02184 06771 33/// /0208 10027 21176 39709 40142 52035 333 10083 91139 91215;
0128067710999992010010219004+45850+008933FM-12+035699999V0200301N004119999999N9999999N1+00261-02021101601ADDMA1999999097261MD1310391+9999OA149901601REMSYN076AAXX  02194 06771 33/// /0308 10026 21202 39726 40160 53039 333 91131 91211;
0128067710999992010010220004+45850+008933FM-12+035699999V0200201N003619999999N9999999N1+00231-01711101661ADDMA1999999097321MD1210321+9999OA149901391REMSYN076AAXX  02204 06771 33/// /0207 10023 21171 39732 40166 52032 333 91127 91210;
0128067710999992010010221004+45850+008933FM-12+035699999V0200201N002619999999N9999999N1+00221-01761101751ADDMA1999999097401MD1110311+9999OA149901651REMSYN076AAXX  02214 06771 33/// /0205 10022 21176 39740 40175 51031 333 91132 91212;
0128067710999992010010222004+45850+008933FM-12+035699999V0200301N003119999999N9999999N1+00191-01961101731ADDMA1999999097381MD1210121+9999OA149901081REMSYN076AAXX  02224 06771 33/// /0306 10019 21196 39738 40173 52012 333 91121 91206;
0128067710999992010010223004+45850+008933FM-12+035699999V0200101N001019999999N9999999N1+00201-01841101861ADDMA1999999097501MD1210181+9999OA149900981REMSYN076AAXX  02234 06771 33/// /0102 10020 21184 39750 40186 52018 333 91119 91206;
0128067710999992010010300004+45850+008933FM-12+035699999V0200201N002119999999N9999999N1+00241-01901101881ADDMA1999999097531MD1210131+9999OA149902011REMSYN076AAXX  03004 06771 33/// /0204 10024 21190 39753 40188 52013 333 91139 91212;
0128067710999992010010301004+45850+008933FM-12+035699999V0209999C000019999999N9999999N1+00041-01931101941ADDMA1999999097551MD1210171+9999OA149900721REMSYN076AAXX  03014 06771 33/// /0000 10004 21193 39755 40194 52017 333 91114 91206;
0087067710999992010010302004+45850+008933FM-12+035699999V0209999C000019999999N9999999N1-00221-01371102031ADDMA1999999097601REMSYN060AAXX  03024 06771 33/// /0000 11022 21137 39760 40203 5////;
0087067710999992010010303004+45850+008933FM-12+035699999V0202301N001019999999N9999999N1-00431-01461102111ADDMA1999999097641REMSYN060AAXX  03034 06771 33/// /2302 11043 21146 39764 40211 5////;
0128067710999992010010304004+45850+008933FM-12+035699999V0202301N000519999999N9999999N1-00471-01271102071ADDMA1999999097601MD1010051+9999OA149900151REMSYN076AAXX  03044 06771 33/// /2301 11047 21127 39760 40207 50005 333 91103 91202;
0128067710999992010010305004+45850+008933FM-12+035699999V0209999C000019999999N9999999N1-00581-01251102141ADDMA1999999097641MD1219999+9999OA149900151REMSYN076AAXX  03054 06771 33/// /0000 11058 21125 39764 40214 52/// 333 91103 91202;
0225067710999992010010306004+45850+008933FM-12+035699999V0202401N001519999999N9999999N1-00481-01251102111ADDAA124000091AL19900091GJ103789IA2999-00809KA1999N-00631MA1999999097631MD1010011+9999OA149901391REMSYN100AAXX  03064 06771 33/// /2403 11048 21125 39763 40211 50001 333 21063 3/108 55063 70000 91127 91210;EQDQ01  00002PRCP24
0128067710999992010010307004+45850+008933FM-12+035699999V0202601N000519999999N9999999N1-00491-01221102191ADDMA1999999097711MD1210111+9999OA149900311REMSYN076AAXX  03074 06771 33/// /2601 11049 21122 39771 40219 52011 333 91106 91203;
0128067710999992010010308004+45850+008933FM-12+035699999V0202701N000519999999N9999999N1-00411-00961102261ADDMA1999999097791MD1319999+9999OA149900211REMSYN076AAXX  03084 06771 33/// /2701 11041 21096 39779 40226 53/// 333 91104 91203;
0128067710999992010010309004+45850+008933FM-12+035699999V0201401N000519999999N9999999N1-00211-00951102261ADDMA1999999097821MD1110191+9999OA149900311REMSYN076AAXX  03094 06771 33/// /1401 11021 21095 39782 40226 51019 333 91106 91203;
0128067710999992010010310004+45850+008933FM-12+035699999V0202101N000519999999N9999999N1-00091-00691102281ADDMA1999999097861MD1110151+9999OA149900151REMSYN076AAXX  03104 06771 33/// /2101 11009 21069 39786 40228 51015 333 91103 91202;
0128067710999992010010311004+45850+008933FM-12+035699999V0209999C000019999999N9999999N1+00091-01131102191ADDMA1999999097801MD1010011+9999OA149900101REMSYN076AAXX  03114 06771 33/// /0000 10009 21113 39780 40219 50001 333 91102 91201;
0128067710999992010010312004+45850+008933FM-12+035699999V0200301N000519999999N9999999N1+00161-01141102121ADDMA1999999097751MD1810071+9999OA149900461REMSYN076AAXX  03124 06771 33/// /0301 10016 21114 39775 40212 58007 333 91109 91203;
0128067710999992010010313004+45850+008933FM-12+035699999V0209999C000019999999N9999999N1+00151-00981102111ADDMA1999999097731MD1710131+9999OA149900101REMSYN076AAXX  03134 06771 33/// /0000 10015 21098 39773 40211 57013 333 91102 91201;
0128067710999992010010314004+45850+008933FM-12+035699999V0209999C000019999999N9999999N1+00161-01011102101ADDMA1999999097731MD1710071+9999OA149900101REMSYN076AAXX  03144 06771 33/// /0000 10016 21101 39773 40210 57007 333 91102 91201;
0128067710999992010010315004+45850+008933FM-12+035699999V0200701N001019999999N9999999N1+00171-01291102071ADDMA1999999097701MD1710051+9999OA149900101REMSYN076AAXX  03154 06771 33/// /0702 10017 21129 39770 40207 57005 333 91102 91202;
0128067710999992010010316004+45850+008933FM-12+035699999V0201901N001019999999N9999999N1-00081-00671102091ADDMA1999999097681MD1810051+9999OA149900151REMSYN076AAXX  03164 06771 33/// /1902 11008 21067 39768 40209 58005 333 91103 91202;
0128067710999992010010317004+45850+008933FM-12+035699999V0202301N001019999999N9999999N1-00271-00731102091ADDMA1999999097651MD1610081+9999OA149900151REMSYN076AAXX  03174 06771 33/// /2302 11027 21073 39765 40209 56008 333 91103 91202;
0147067710999992010010318004+45850+008933FM-12+035699999V0202501N001519999999N9999999N1-00251-00831102131ADDKA1120M+00191MA1999999097691MD1510011+9999OA149900211REMSYN082AAXX  03184 06771 33/// /2503 11025 21083 39769 40213 55001 333 10019 91104 91203;
0128067710999992010010319004+45850+008933FM-12+035699999V0201501N000519999999N9999999N1-00301-00811102181ADDMA1999999097731MD1310051+9999OA149900211REMSYN076AAXX  03194 06771 33/// /1501 11030 21081 39773 40218 53005 333 91104 91203;
0128067710999992010010320004+45850+008933FM-12+035699999V0202401N000519999999N9999999N1-00381-00861102161ADDMA1999999097701MD1010051+9999OA149900151REMSYN076AAXX  03204 06771 33/// /2401 11038 21086 39770 40216 50005 333 91103 91202;
0128067710999992010010321004+45850+008933FM-12+035699999V0202501N001019999999N9999999N1-00481-00861102201ADDMA1999999097721MD1310031+9999OA149900211REMSYN076AAXX  03214 06771 33/// /2502 11048 21086 39772 40220 53003 333 91104 91203;
0128067710999992010010322004+45850+008933FM-12+035699999V0202201N000519999999N9999999N1-00551-00931102241ADDMA1999999097741MD1310011+9999OA149900151REMSYN076AAXX  03224 06771 33/// /2201 11055 21093 39774 40224 53001 333 91103 91202;
0128067710999992010010323004+45850+008933FM-12+035699999V0202301N001019999999N9999999N1-00681-00891102251ADDMA1999999097731MD1210031+9999OA149900151REMSYN076AAXX  03234 06771 33/// /2302 11068 21089 39773 40225 52003 333 91103 91202;
0128067710999992010010400004+45850+008933FM-12+035699999V0202301N001019999999N9999999N1-00481-00841102151ADDMA1999999097671MD1810051+9999OA149900211REMSYN076AAXX  04004 06771 33/// /2302 11048 21084 39767 40215 58005 333 91104 91203;
0128067710999992010010401004+45850+008933FM-12+035699999V0201901N000519999999N9999999N1-00401-00781102071ADDMA1999999097611MD1810131+9999OA149900151REMSYN076AAXX  04014 06771 33/// /1901 11040 21078 39761 40207 58013 333 91103 91202;
0128067710999992010010402004+45850+008933FM-12+035699999V0202201N001019999999N9999999N1-00401-00701102091ADDMA1999999097631MD1710101+9999OA149900151REMSYN076AAXX  04024 06771 33/// /2202 11040 21070 39763 40209 57010 333 91103 91202;
0128067710999992010010403004+45850+008933FM-12+035699999V0202401N001019999999N9999999N1-00411-00761102091ADDMA1999999097621MD1719999+9999OA149900151REMSYN076AAXX  04034 06771 33/// /2402 11041 21076 39762 40209 57/// 333 91103 91202;
0128067710999992010010404004+45850+008933FM-12+035699999V0202201N000519999999N9999999N1-00371-00721102031ADDMA1999999097571MD1810041+9999OA149900151REMSYN076AAXX  04044 06771 33/// /2201 11037 21072 39757 40203 58004 333 91103 91202;
0128067710999992010010405004+45850+008933FM-12+035699999V0209999C000019999999N9999999N1-00321-00711102001ADDMA1999999097551MD1810081+9999OA149900151REMSYN076AAXX  04054 06771 33/// /0000 11032 21071 39755 40200 58008 333 91103 91202;
0225067710999992010010406004+45850+008933FM-12+035699999V0202401N000519999999N9999999N1-00371-00631101991ADDAA124000091AL19900091GJ100009IA2999-00809KA1999N-00681MA1999999097541MD1710081+9999OA149900151REMSYN100AAXX  04064 06771 33/// /2401 11037 21063 39754 40199 57008 333 21068 3/108 55000 70000 91103 91202;EQDQ01  00002PRCP24
0128067710999992010010407004+45850+008933FM-12+035699999V0202301N000519999999N9999999N1-00331-00731102011ADDMA1999999097561MD1510011+9999OA149900101REMSYN076AAXX  04074 06771 33/// /2301 11033 21073 39756 40201 55001 333 91102 91201;
0128067710999992010010408004+45850+008933FM-12+035699999V0202401N000519999999N9999999N1-00301-00611102021ADDMA1999999097581MD1210031+9999OA149900101REMSYN076AAXX  04084 06771 33/// /2401 11030 21061 39758 40202 52003 333 91102 91201;
0128067710999992010010409004+45850+008933FM-12+035699999V0202401N001019999999N9999999N1-00181-00701102021ADDMA1999999097601MD1210061+9999OA149900151REMSYN076AAXX  04094 06771 33/// /2402 11018 21070 39760 40202 52006 333 91103 91202;
0128067710999992010010410004+45850+008933FM-12+035699999V0201801N001019999999N9999999N1-00051-00831102001ADDMA1999999097601MD1210041+9999OA149900211REMSYN076AAXX  04104 06771 33/// /1802 11005 21083 39760 40200 52004 333 91104 91203;
0128067710999992010010411004+45850+008933FM-12+035699999V0202301N001519999999N9999999N1-00051-00721101931ADDMA1999999097531MD1810051+9999OA149900261REMSYN076AAXX  04114 06771 33/// /2303 11005 21072 39753 40193 58005 333 91105 91203;
0128067710999992010010412004+45850+008933FM-12+035699999V0202301N001519999999N9999999N1-00071-00611101811ADDMA1999999097411MD1810191+9999OA149900311REMSYN076AAXX  04124 06771 33/// /2303 11007 21061 39741 40181 58019 333 91106 91204;
0128067710999992010010413004+45850+008933FM-12+035699999V0202501N001519999999N9999999N1-00061-00791101691ADDMA1999999097301MD1810301+9999OA149900311REMSYN076AAXX  04134 06771 33/// /2503 11006 21079 39730 40169 58030 333 91106 91204;
0128067710999992010010414004+45850+008933FM-12+035699999V0202401N001519999999N9999999N1-00011-00751101621ADDMA1999999097241MD1619999+9999OA149900211REMSYN076AAXX  04144 06771 33/// /2403 11001 21075 39724 40162 56/// 333 91104 91203;
0128067710999992010010415004+45850+008933FM-12+035699999V0202301N001019999999N9999999N1-00011-00721101581ADDMA1999999097201MD1710211+9999OA149900311REMSYN076AAXX  04154 06771 33/// /2302 11001 21072 39720 40158 57021 333 91106 91204;
0128067710999992010010416004+45850+008933FM-12+035699999V0202101N001019999999N9999999N1-00051-00731101571ADDMA1999999097191MD1710111+9999OA149900211REMSYN076AAXX  04164 06771 33/// /2102 11005 21073 39719 40157 57011 333 91104 91203;
0128067710999992010010417004+45850+008933FM-12+035699999V0202101N001019999999N9999999N1-00101-00661101531ADDMA1999999097141MD1719999+9999OA149900211REMSYN076AAXX  04174 06771 33/// /2102 11010 21066 39714 40153 57/// 333 91104 91203;
0147067710999992010010418004+45850+008933FM-12+035699999V0202401N000519999999N9999999N1-00181-00631101521ADDKA1120M+00001MA1999999097121MD1710081+9999OA149900311REMSYN082AAXX  04184 06771 33/// /2401 11018 21063 39712 40152 57008 333 10000 91106 91204;
0128067710999992010010419004+45850+008933FM-12+035699999V0202301N000519999999N9999999N1-00201-00641101511ADDMA1999999097101MD1710091+9999OA149900151REMSYN076AAXX  04194 06771 33/// /2301 11020 21064 39710 40151 57009 333 91103 91202;
0128067710999992010010420004+45850+008933FM-12+035699999V0202101N000519999999N9999999N1-00241-00611101471ADDMA1999999097061MD1710081+9999OA149900101REMSYN076AAXX  04204 06771 33/// /2101 11024 21061 39706 40147 57008 333 91102 91202;
0128067710999992010010421004+45850+008933FM-12+035699999V0202201N000519999999N9999999N1-00241-00581101471ADDMA1999999097061MD1710061+9999OA149900211REMSYN076AAXX  04214 06771 33/// /2201 11024 21058 39706 40147 57006 333 91104 91203;
0128067710999992010010422004+45850+008933FM-12+035699999V0202401N000519999999N9999999N1-00371-00651101461ADDMA1999999097031MD1710071+9999OA149900101REMSYN076AAXX  04224 06771 33/// /2401 11037 21065 39703 40146 57007 333 91102 91201;
0128067710999992010010423004+45850+008933FM-12+035699999V0202701N001019999999N9999999N1-00271-00551101421ADDMA1999999097011MD1710051+9999OA149900151REMSYN076AAXX  04234 06771 33/// /2702 11027 21055 39701 40142 57005 333 91103 91202;
0128067710999992010010500004+45850+008933FM-12+035699999V0209999C000019999999N9999999N1-00251-00621101351ADDMA1999999096941MD1710121+9999OA149900211REMSYN076AAXX  05004 06771 33/// /0000 11025 21062 39694 40135 57012 333 91104 91203;
0128067710999992010010501004+45850+008933FM-12+035699999V0202301N001019999999N9999999N1-00231-00591101261ADDMA1999999096861MD1710171+9999OA149900151REMSYN076AAXX  05014 06771 33/// /2302 11023 21059 39686 40126 57017 333 91103 91202;
0128067710999992010010502004+45850+008933FM-12+035699999V0202401N000519999999N9999999N1-00241-00581101211ADDMA1999999096811MD1710201+9999OA149900151REMSYN076AAXX  05024 06771 33/// /2401 11024 21058 39681 40121 57020 333 91103 91202;
0128067710999992010010503004+45850+008933FM-12+035699999V0202701N000519999999N9999999N1-00271-00551101151ADDMA1999999096751MD1810191+9999OA149900151REMSYN076AAXX  05034 06771 33/// /2701 11027 21055 39675 40115 58019 333 91103 91202;
0128067710999992010010504004+45850+008933FM-12+035699999V0209999C000019999999N9999999N1-00231-00541101091ADDMA1999999096701MD1710161+9999OA149900151REMSYN076AAXX  05044 06771 33/// /0000 11023 21054 39670 40109 57016 333 91103 91202;
0128067710999992010010505004+45850+008933FM-12+035699999V0202501N000519999999N9999999N1-00231-00551101051ADDMA1999999096661MD1710151+9999OA149900151REMSYN076AAXX  05054 06771 33/// /2501 11023 21055 39666 40105 57015 333 91103 91202;
0225067710999992010010506004+45850+008933FM-12+035699999V0202201N000519999999N9999999N1-00221-00561101011ADDAA124000091AL19900091GJ100009IA2999-00509KA1999N-00371MA1999999096621MD1710131+9999OA149900151REMSYN100AAXX  05064 06771 33/// /2201 11022 21056 39662 40101 57013 333 21037 3/105 55000 70000 91103 91202;EQDQ01  00002PRCP24
0128067710999992010010507004+45850+008933FM-12+035699999V0202401N000519999999N9999999N1-00221-00531100981ADDMA1999999096591MD1810111+9999OA149900101REMSYN076AAXX  05074 06771 33/// /2401 11022 21053 39659 40098 58011 333 91102 91201;
0128067710999992010010508004+45850+008933FM-12+035699999V0202301N000519999999N9999999N1-00171-00601100941ADDMA1999999096561MD1610101+9999OA149900101REMSYN076AAXX  05084 06771 33/// /2301 11017 21060 39656 40094 56010 333 91102 91201;
0128067710999992010010509004+45850+008933FM-12+035699999V0202201N000519999999N9999999N1-00081-00581100901ADDMA1999999096541MD1610081+9999OA149900211REMSYN076AAXX  05094 06771 33/// /2201 11008 21058 39654 40090 56008 333 91104 91203;
0128067710999992010010510004+45850+008933FM-12+035699999V0202301N000519999999N9999999N1+00021-00631100871ADDMA1999999096531MD1710061+9999OA149900211REMSYN076AAXX  05104 06771 33/// /2301 10002 21063 39653 40087 57006 333 91104 91203;
0128067710999992010010511004+45850+008933FM-12+035699999V0200901N000519999999N9999999N1+00031-00691100761ADDMA1999999096421MD1710141+9999OA149900101REMSYN076AAXX  05114 06771 33/// /0901 10003 21069 39642 40076 57014 333 91102 91202;
0128067710999992010010512004+45850+008933FM-12+035699999V0202401N001519999999N9999999N1+00081-00551100621ADDMA1999999096301MD1710241+9999OA149900211REMSYN076AAXX  05124 06771 33/// /2403 10008 21055 39630 40062 57024 333 91104 91203;
0128067710999992010010513004+45850+008933FM-12+035699999V0202201N001519999999N9999999N1+00101-00671100541ADDMA1999999096221MD1610311+9999OA149900211REMSYN076AAXX  05134 06771 33/// /2203 10010 21067 39622 40054 56031 333 91104 91204;
0087067710999992010010514004+45850+008933FM-12+035699999V0209999C000019999999N9999999N1+00151-00711100451ADDMA1999999096151REMSYN060AAXX  05144 06771 33/// /0000 10015 21071 39615 40045 5////;
0128067710999992010010515004+45850+008933FM-12+035699999V0209999C000019999999N9999999N1+00171-00651100401ADDMA1999999096101MD1610201+9999OA149900211REMSYN076AAXX  05154 06771 33/// /0000 10017 21065 39610 40040 56020 333 91104 91204;
0128067710999992010010516004+45850+008933FM-12+035699999V0202101N000519999999N9999999N1+00091-00581100381ADDMA1999999096071MD1610151+9999OA149900151REMSYN076AAXX  05164 06771 33/// /2101 10009 21058 39607 40038 56015 333 91103 91202;
0128067710999992010010517004+45850+008933FM-12+035699999V0202101N000519999999N9999999N1+00031-00461100361ADDMA1999999096041MD1610111+9999OA149900151REMSYN076AAXX  05174 06771 33/// /2101 10003 21046 39604 40036 56011 333 91103 91202;
0147067710999992010010518004+45850+008933FM-12+035699999V0202201N000519999999N9999999N1+00001-00451100321ADDKA1120M+00171MA1999999096001MD1810101+9999OA149900211REMSYN082AAXX  05184 06771 33/// /2201 10000 21045 39600 40032 58010 333 10017 91104 91204;
0128067710999992010010519004+45850+008933FM-12+035699999V0209999C000019999999N9999999N1+00021-00491100281ADDMA1999999095961MD1810111+9999OA149900151REMSYN076AAXX  05194 06771 33/// /0000 10002 21049 39596 40028 58011 333 91103 91201;
0128067710999992010010520004+45850+008933FM-12+035699999V0202201N000519999999N9999999N1+00001-00471100211ADDMA1999999095891MD1810151+9999OA149900151REMSYN076AAXX  05204 06771 33/// /2201 10000 21047 39589 40021 58015 333 91103 91202;
0128067710999992010010521004+45850+008933FM-12+035699999V0201901N001019999999N9999999N1+00031-00471100141ADDMA1999999095831MD1810171+9999OA149900151REMSYN076AAXX  05214 06771 33/// /1902 10003 21047 39583 40014 58017 333 91103 91202;
0128067710999992010010522004+45850+008933FM-12+035699999V0202001N000519999999N9999999N1-00021-00351100091ADDMA1999999095771MD1610191+9999OA149900151REMSYN076AAXX  05224 06771 33/// /2001 11002 21035 39577 40009 56019 333 91103 91202;
0128067710999992010010523004+45850+008933FM-12+035699999V0202001N000519999999N9999999N1-00011-00381100041ADDMA1999999095731MD1610161+9999OA149900151REMSYN076AAXX  05234 06771 33/// /2001 11001 21038 39573 40004 56016 333 91103 91202;
0128067710999992010010600004+45850+008933FM-12+035699999V0202401N000519999999N9999999N1-00011-00371099981ADDMA1999999095671MD1710161+9999OA149900211REMSYN076AAXX  06004 06771 33/// /2401 11001 21037 39567 49998 57016 333 91104 91204;
0128067710999992010010601004+45850+008933FM-12+035699999V0209999C000019999999N9999999N1+00001-00411099951ADDMA1999999095641MD1610131+9999OA149900101REMSYN076AAXX  06014 06771 33/// /0000 10000 21041 39564 49995 56013 333 91102 91202;
0128067710999992010010602004+45850+008933FM-12+035699999V0202101N000519999999N9999999N1-00011-00381099951ADDMA1999999095641MD1710091+9999OA149900101REMSYN076AAXX  06024 06771 33/// /2101 11001 21038 39564 49995 57009 333 91102 91201;
0128067710999992010010603004+45850+008933FM-12+035699999V0201901N000519999999N9999999N1+00001-00441099901ADDMA1999999095601MD1710071+9999OA149900151REMSYN076AAXX  06034 06771 33/// /1901 10000 21044 39560 49990 57007 333 91103 91202;
0128067710999992010010604004+45850+008933FM-12+035699999V0209999C000019999999N9999999N1-00071-00381099911ADDMA1999999095591MD1710051+9999OA149900151REMSYN076AAXX  06044 06771 33/// /0000 11007 21038 39559 49991 57005 333 91103 91202;
0128067710999992010010605004+45850+008933FM-12+035699999V0202601N001019999999N9999999N1-00081-00391099911ADDMA1999999095591MD1710051+9999OA149900151REMSYN076AAXX  06054 06771 33/// /2602 11008 21039 39559 49991 57005 333 91103 91202;
0225067710999992010010606004+45850+008933FM-12+035699999V0209999C000019999999N9999999N1-00141-00341099921ADDAA124000091AL19900091GJ100009IA2999-00209KA1999N-00131MA1999999095591MD1510011+9999OA149900151REMSYN100AAXX  06064 06771 33/// /0000 11014 21034 39559 49992 55001 333 21013 3/102 55000 70000 91103 91202;EQDQ01  00002PRCP24
0128067710999992010010607004+45850+008933FM-12+035699999V0202301N000519999999N9999999N1-00161-00361099921ADDMA1999999095591MD1010001+9999OA149900101REMSYN076AAXX  06074 06771 33/// /2301 11016 21036 39559 49992 50000 333 91102 91202;
0128067710999992010010608004+45850+008933FM-12+035699999V0202101N000519999999N9999999N1-00171-00371099961ADDMA1999999095631MD1310041+9999OA149900101REMSYN076AAXX  06084 06771 33/// /2101 11017 21037 39563 49996 53004 333 91102 91202;
0128067710999992010010609004+45850+008933FM-12+035699999V0202001N000519999999N9999999N1-00141-00441100041ADDMA1999999095711MD1210121+9999OA149900151REMSYN076AAXX  06094 06771 33/// /2001 11014 21044 39571 40004 52012 333 91103 91202;
0128067710999992010010610004+45850+008933FM-12+035699999V0209999C000019999999N9999999N1-00011-00371100071ADDMA1999999095761MD1210171+9999OA149900101REMSYN076AAXX  06104 06771 33/// /0000 11001 21037 39576 40007 52017 333 91102 91202;
0128067710999992010010611004+45850+008933FM-12+035699999V0200701N001019999999N9999999N1+00281-00301099991ADDMA1999999095731MD1019999+9999OA149900151REMSYN076AAXX  06114 06771 33/// /0702 10028 21030 39573 49999 50/// 333 91103 91202;
0128067710999992010010612004+45850+008933FM-12+035699999V0200801N000519999999N9999999N1+00461-00501099921ADDMA1999999095691MD1810021+9999OA149900151REMSYN076AAXX  06124 06771 33/// /0801 10046 21050 39569 49992 58002 333 91103 91202;
0128067710999992010010613004+45850+008933FM-12+035699999V0202401N001019999999N9999999N1+00561-00531099901ADDMA1999999095681MD1610081+9999OA149900211REMSYN076AAXX  06134 06771 33/// /2402 10056 21053 39568 49990 56008 333 91104 91202;
0128067710999992010010614004+45850+008933FM-12+035699999V0202301N001019999999N9999999N1+00611-00451099901ADDMA1999999095691MD1519999+9999OA149900211REMSYN076AAXX  06144 06771 33/// /2302 10061 21045 39569 49990 55/// 333 91104 91202;
0128067710999992010010615004+45850+008933FM-12+035699999V0201901N001019999999N9999999N1+00551-00371099971ADDMA1999999095751MD1319999+9999OA149900211REMSYN076AAXX  06154 06771 33/// /1902 10055 21037 39575 49997 53/// 333 91104 91203;
0128067710999992010010616004+45850+008933FM-12+035699999V0209999C000019999999N9999999N1+00041-00371100111ADDMA1999999095801MD1310121+9999OA149900311REMSYN076AAXX  06164 06771 33/// /0000 10004 21037 39580 40011 53012 333 91106 91203;
0128067710999992010010617004+45850+008933FM-12+035699999V0202401N000519999999N9999999N1-00101-00401100161ADDMA1999999095831MD1110141+9999OA149900311REMSYN076AAXX  06174 06771 33/// /2401 11010 21040 39583 40016 51014 333 91106 91202;
0147067710999992010010618004+45850+008933FM-12+035699999V0202201N001019999999N9999999N1-00111-00381100221ADDKA1120M+00611MA1999999095881MD1119999+9999OA149900311REMSYN082AAXX  06184 06771 33/// /2202 11011 21038 39588 40022 51/// 333 10061 91106 91203;
0128067710999992010010619004+45850+008933FM-12+035699999V0202401N001019999999N9999999N1-00201-00401100271ADDMA1999999095921MD1310121+9999OA149900151REMSYN076AAXX  06194 06771 33/// /2402 11020 21040 39592 40027 53012 333 91103 91202;
0128067710999992010010620004+45850+008933FM-12+035699999V0202201N001019999999N9999999N1-00071-00351100311ADDMA1999999095981MD1210151+9999OA149900461REMSYN076AAXX  06204 06771 33/// /2202 11007 21035 39598 40031 52015 333 91109 91202;
0128067710999992010010621004+45850+008933FM-12+035699999V0209999C000019999999N9999999N1-00031-00271100371ADDMA1999999096041MD1310161+9999OA149900461REMSYN076AAXX  06214 06771 33/// /0000 11003 21027 39604 40037 53016 333 91109 91203;
0128067710999992010010622004+45850+008933FM-12+035699999V0209999C000019999999N9999999N1-00011-00251100401ADDMA1999999096071MD1210151+9999OA149900261REMSYN076AAXX  06224 06771 33/// /0000 11001 21025 39607 40040 52015 333 91105 91203;
0128067710999992010010623004+45850+008933FM-12+035699999V0202701N000519999999N9999999N1+00021-00251100421ADDMA1999999096101MD1210121+9999OA149900101REMSYN076AAXX  06234 06771 33/// /2701 10002 21025 39610 40042 52012 333 91102 91201;
0128067710999992010010700004+45850+008933FM-12+035699999V0202501N001019999999N9999999N1-00041-00221100441ADDMA1999999096111MD1210071+9999OA149900461REMSYN076AAXX  07004 06771 33/// /2502 11004 21022 39611 40044 52007 333 91109 91203;
0128067710999992010010701004+45850+008933FM-12+035699999V0202301N001019999999N9999999N1-00021-00201100491ADDMA1999999096161MD1210091+9999OA149900151REMSYN076AAXX  07014 06771 33/// /2302 11002 21020 39616 40049 52009 333 91103 91202;
0128067710999992010010702004+45850+008933FM-12+035699999V0200701N000519999999N9999999N1+00041-00201100511ADDMA1999999096191MD1219999+9999OA149900151REMSYN076AAXX  07024 06771 33/// /0701 10004 21020 39619 40051 52/// 333 91103 91202;
0128067710999992010010703004+45850+008933FM-12+035699999V0202501N000519999999N9999999N1+00131-00231100541ADDMA1999999096231MD1210121+9999OA149900151REMSYN076AAXX  07034 06771 33/// /2501 10013 21023 39623 40054 52012 333 91103 91202;
0128067710999992010010704004+45850+008933FM-12+035699999V0202001N000519999999N9999999N1-00111-00251100621ADDMA1999999096271MD1210111+9999OA149900151REMSYN076AAXX  07044 06771 33/// /2001 11011 21025 39627 40062 52011 333 91103 91202;
0128067710999992010010705004+45850+008933FM-12+035699999V0202501N000519999999N9999999N1-00281-00361100691ADDMA1999999096311MD1210121+9999OA149900151REMSYN076AAXX  07054 06771 33/// /2501 11028 21036 39631 40069 52012 333 91103 91202;
0225067710999992010010706004+45850+008933FM-12+035699999V0202301N000519999999N9999999N1-00311-00421100771ADDAA124000091AL19900091GJ103309IA2999-00509KA1999N-00281MA1999999096381MD1210151+9999OA149900461REMSYN100AAXX  07064 06771 33/// /2301 11031 21042 39638 40077 52015 333 21028 3/105 55055 70000 91109 91203;EQDQ01  00002PRCP24
0128067710999992010010707004+45850+008933FM-12+035699999V0202401N001019999999N9999999N1-00361-00461100841ADDMA1999999096441MD1310171+9999OA149900151REMSYN076AAXX  07074 06771 33/// /2402 11036 21046 39644 40084 53017 333 91103 91203;
0128067710999992010010708004+45850+008933FM-12+035699999V0202401N001519999999N9999999N1-00381-00481100931ADDMA1999999096521MD1219999+9999OA149900151REMSYN076AAXX  07084 06771 33/// /2403 11038 21048 39652 40093 52/// 333 91103 91203;
0128067710999992010010709004+45850+008933FM-12+035699999V0202401N000519999999N9999999N1-00151-00281100931ADDMA1999999096561MD1210181+9999OA149900151REMSYN076AAXX  07094 06771 33/// /2401 11015 21028 39656 40093 52018 333 91103 91203;
0128067710999992010010710004+45850+008933FM-12+035699999V0209999C000019999999N9999999N1+00231-00151100951ADDMA1999999096641MD1310201+9999OA149900151REMSYN076AAXX  07104 06771 33/// /0000 10023 21015 39664 40095 53020 333 91103 91202;
0128067710999992010010711004+45850+008933FM-12+035699999V0200401N001519999999N9999999N1+00391-00111100921ADDMA1999999096631MD1210111+9999OA149900261REMSYN076AAXX  07114 06771 33/// /0403 10039 21011 39663 40092 52011 333 91105 91203;
0128067710999992010010712004+45850+008933FM-12+035699999V0200601N000519999999N9999999N1+00411-00151100861ADDMA1999999096581MD1010021+9999OA149900261REMSYN076AAXX  07124 06771 33/// /0601 10041 21015 39658 40086 50002 333 91105 91203;
0128067710999992010010713004+45850+008933FM-12+035699999V0200801N001019999999N9999999N1+00451-00101100871ADDMA1999999096591MD1719999+9999OA149900211REMSYN076AAXX  07134 06771 33/// /0802 10045 21010 39659 40087 57/// 333 91104 91203;
0128067710999992010010716004+45850+008933FM-12+035699999V0209999C000019999999N9999999N1+00181-00121101041ADDMA1999999096721MD1219999+9999OA149900151REMSYN076AAXX  07164 06771 33/// /0000 10018 21012 39672 40104 52/// 333 91103 91202;
0128067710999992010010717004+45850+008933FM-12+035699999V0209999C000019999999N9999999N1+00121-00121101101ADDMA1999999096761MD1219999+9999OA149900101REMSYN076AAXX  07174 06771 33/// /0000 10012 21012 39676 40110 52/// 333 91102 91201;
0147067710999992010010718004+45850+008933FM-12+035699999V0202201N000519999999N9999999N1+00091-00121101111ADDKA1120M+00461MA1999999096771MD1219999+9999OA149900261REMSYN082AAXX  07184 06771 33/// /2201 10009 21012 39677 40111 52/// 333 10046 91105 91203;
0128067710999992010010719004+45850+008933FM-12+035699999V0202201N000519999999N9999999N1+00161-00131101131ADDMA1999999096801MD1110081+9999OA149900101REMSYN076AAXX  07194 06771 33/// /2201 10016 21013 39680 40113 51008 333 91102 91201;
0145067710999992010010720004+45850+008933FM-12+035699999V0202401N000519999999N9999999N1+00111-00051101191ADDAA101000021MA1999999096851MD1210091+9999OA149900101REMSYN082AAXX  07204 06771 23/// /2401 10011 21005 39685 40119 52009 333 69925 91102 91201;
0145067710999992010010721004+45850+008933FM-12+035699999V0201901N000519999999N9999999N1+00091+00031101221ADDAA101001091MA1999999096871MD1210101+9999OA149900101REMSYN082AAXX  07214 06771 23/// /1901 10009 20003 39687 40122 52010 333 69995 91102 91201;
0145067710999992010010722004+45850+008933FM-12+035699999V0209999C000019999999N9999999N1+00081+00021101181ADDAA101000591MA1999999096831MD1010031+9999OA149900101REMSYN082AAXX  07224 06771 23/// /0000 10008 20002 39683 40118 50003 333 69955 91102 91201;
0145067710999992010010723004+45850+008933FM-12+035699999V0201901N000519999999N9999999N1+00051+00021101151ADDAA101001091MA1999999096801MD1710051+9999OA149900151REMSYN082AAXX  07234 06771 23/// /1901 10005 20002 39680 40115 57005 333 60015 91103 91202;
0151067710999992010010800004+45850+008933FM-12+035699999V0202601N000519999999N9999999N1+00051+00001101041ADDAA106003091MA1999999096691MD1810181+9999OA149900151REMSYN088AAXX  08004 06771 03/// /2601 10005 20000 39669 40104 58018 60031 333 69965 91103 91202;
0145067710999992010010801004+45850+008933FM-12+035699999V0201901N000519999999N9999999N1+00061+00021100951ADDAA101000021MA1999999096611MD1810221+9999OA149900101REMSYN082AAXX  08014 06771 23/// /1901 10006 20002 39661 40095 58022 333 69925 91102 91201;
0145067710999992010010802004+45850+008933FM-12+035699999V0202201N000519999999N9999999N1+00071+00021100901ADDAA101000021MA1999999096561MD1619999+9999OA149900101REMSYN082AAXX  08024 06771 23/// /2201 10007 20002 39656 40090 56/// 333 69915 91102 91201;
0145067710999992010010803004+45850+008933FM-12+035699999V0202001N000519999999N9999999N1+00081+00031100771ADDAA101000391MA1999999096441MD1819999+9999OA149900151REMSYN082AAXX  08034 06771 23/// /2001 10008 20003 39644 40077 58/// 333 69935 91103 91202;
0145067710999992010010804004+45850+008933FM-12+035699999V0202501N000519999999N9999999N1+00061-00011100701ADDAA101000891MA1999999096371MD1710241+9999OA149900151REMSYN082AAXX  08044 06771 23/// /2501 10006 21001 39637 40070 57024 333 69975 91103 91202;
0145067710999992010010805004+45850+008933FM-12+035699999V0202601N001019999999N9999999N1+00091+00011100611ADDAA101000891MA1999999096291MD1710271+9999OA149900211REMSYN082AAXX  08054 06771 23/// /2602 10009 20001 39629 40061 57027 333 69975 91104 91202;
0229067710999992010010806004+45850+008933FM-12+035699999V0202001N000519999999N9999999N1+00071+00011100571ADDAA112006192AA224005692AL14200591GJ101929IA2999+00009KA1999N+00031MA1999999096251MD1610191+9999OA149900261REMSYN112AAXX  08064 06771 03/// /2001 10007 20001 39625 40057 56019 60062 333 20003 3/100 55032 69955 70057 91105 91202;
0145067710999992010010807004+45850+008933FM-12+035699999V0202301N001019999999N9999999N1+00041+00011100551ADDAA101000891MA1999999096221MD1710151+9999OA149900261REMSYN082AAXX  08074 06771 23/// /2302 10004 20001 39622 40055 57015 333 69975 91105 91202;
0145067710999992010010808004+45850+008933FM-12+035699999V0202001N001019999999N9999999N1+00071+00021100501ADDAA101001091MA1999999096181MD1710111+9999OA149900151REMSYN082AAXX  08084 06771 23/// /2002 10007 20002 39618 40050 57011 333 69995 91103 91202;
0145067710999992010010809004+45850+008933FM-12+035699999V0202301N001519999999N9999999N1+00091+00021100411ADDAA101000591MA1999999096101MD1710151+9999OA149900261REMSYN082AAXX  08094 06771 23/// /2303 10009 20002 39610 40041 57015 333 69955 91105 91203;
0145067710999992010010810004+45850+008933FM-12+035699999V0202201N000519999999N9999999N1+00111+00051100361ADDAA101000591MA1999999096051MD1710171+9999OA149900261REMSYN082AAXX  08104 06771 23/// /2201 10011 20005 39605 40036 57017 333 69945 91105 91203;
0145067710999992010010811004+45850+008933FM-12+035699999V0202201N001019999999N9999999N1+00141+00081100251ADDAA101001091MA1999999095951MD1810231+9999OA149900261REMSYN082AAXX  08114 06771 23/// /2202 10014 20008 39595 40025 58023 333 60015 91105 91203;
0151067710999992010010812004+45850+008933FM-12+035699999V0202501N001019999999N9999999N1+00161+00101100141ADDAA106005191MA1999999095851MD1810251+9999OA149900261REMSYN088AAXX  08124 06771 03/// /2502 10016 20010 39585 40014 58025 60051 333 60015 91105 91203;
0145067710999992010010813004+45850+008933FM-12+035699999V0202401N002119999999N9999999N1+00151+00091100011ADDAA101001091MA1999999095721MD1710331+9999OA149900261REMSYN082AAXX  08134 06771 23/// /2404 10015 20009 39572 40001 57033 333 69995 91105 91204;
0151067710999992010010814004+45850+008933FM-12+035699999V0202201N001519999999N9999999N1+00181+00111099921ADDAA101000891MA1999999095641MD1719999+9999OA149900261REMSYN088AAXX  08144 06771 23/// /2203 10018 20011 39564 49992 57/// 91340 333 69985 91105 91204;
0145067710999992010010815004+45850+008933FM-12+035699999V0202101N001019999999N9999999N1+00221+00141099921ADDAA101002091MA1999999095651MD1710201+9999OA149900311REMSYN082AAXX  08154 06771 23/// /2102 10022 20014 39565 49992 57020 333 60025 91106 91204;
0145067710999992010010816004+45850+008933FM-12+035699999V0209999C000019999999N9999999N1+00181+00141100011ADDAA101004191MA1999999095731MD1310011+9999OA149900311REMSYN082AAXX  08164 06771 23/// /0000 10018 20014 39573 40001 53001 333 60045 91106 91203;
0145067710999992010010817004+45850+008933FM-12+035699999V0200601N000519999999N9999999N1+00201+00151100021ADDAA101003091MA1999999095741MD1110121+9999OA149900151REMSYN082AAXX  08174 06771 23/// /0601 10020 20015 39574 40002 51012 333 60035 91103 91202;
0170067710999992010010818004+45850+008933FM-12+035699999V0209999C000019999999N9999999N1+00141+00111100071ADDAA112018091KA1120M+00231MA1999999095781MD1110131+9999OA149900311REMSYN094AAXX  08184 06771 03/// /0000 10014 20011 39578 40007 51013 60182 333 10023 60025 91106 91204;
0145067710999992010010819004+45850+008933FM-12+035699999V0200401N000519999999N9999999N1+00211+00151100091ADDAA101002091MA1999999095811MD1210081+9999OA149900051REMSYN082AAXX  08194 06771 23/// /0401 10021 20015 39581 40009 52008 333 60025 91101 91201;
0145067710999992010010820004+45850+008933FM-12+035699999V0200101N000519999999N9999999N1+00221+00161100101ADDAA101000891MA1999999095821MD1210081+9999OA149900151REMSYN082AAXX  08204 06771 23/// /0101 10022 20016 39582 40010 52008 333 69975 91103 91201;
0145067710999992010010821004+45850+008933FM-12+035699999V0209999C000019999999N9999999N1+00211+00161100091ADDAA101000391MA1999999095811MD1210031+9999OA149900151REMSYN082AAXX  08214 06771 23/// /0000 10021 20016 39581 40009 52003 333 69935 91103 91202;
0145067710999992010010822004+45850+008933FM-12+035699999V0200501N001519999999N9999999N1+00251+00181100061ADDAA101000021MA1999999095791MD1710021+9999OA149900211REMSYN082AAXX  08224 06771 23/// /0503 10025 20018 39579 40006 57002 333 69915 91104 91203;
0128067710999992010010823004+45850+008933FM-12+035699999V0209999C000019999999N9999999N1+00211+00151100081ADDMA1999999095801MD1710021+9999OA149900211REMSYN076AAXX  08234 06771 33/// /0000 10021 20015 39580 40008 57002 333 91104 91203;
0151067710999992010010900004+45850+008933FM-12+035699999V0200601N001019999999N9999999N1+00241+00191100051ADDAA106003091MA1999999095781MD1710031+9999OA149900311REMSYN088AAXX  09004 06771 03/// /0602 10024 20019 39578 40005 57003 60031 333 69915 91106 91204;
0145067710999992010010901004+45850+008933FM-12+035699999V0200101N000519999999N9999999N1+00251+00201100081ADDAA101000591MA1999999095811MD1010021+9999OA149900151REMSYN082AAXX  09014 06771 23/// /0101 10025 20020 39581 40008 50002 333 69945 91103 91202;
0145067710999992010010902004+45850+008933FM-12+035699999V0200301N000519999999N9999999N1+00221+00181100041ADDAA101000021MA1999999095761MD1819999+9999OA149900151REMSYN082AAXX  09024 06771 23/// /0301 10022 20018 39576 40004 58/// 333 69915 91103 91202;
0128067710999992010010903004+45850+008933FM-12+035699999V0202301N001019999999N9999999N1+00211+00151099941ADDMA1999999095671MD1819999+9999OA149900211REMSYN076AAXX  09034 06771 33/// /2302 10021 20015 39567 49994 58/// 333 91104 91203;
0128067710999992010010904004+45850+008933FM-12+035699999V0202601N000519999999N9999999N1+00171+00121099851ADDMA1999999095571MD1810241+9999OA149900211REMSYN076AAXX  09044 06771 33/// /2601 10017 20012 39557 49985 58024 333 91104 91203;
0128067710999992010010905004+45850+008933FM-12+035699999V0202701N000519999999N9999999N1+00191+00141099731ADDMA1999999095461MD1710301+9999OA149900151REMSYN076AAXX  09054 06771 33/// /2701 10019 20014 39546 49973 57030 333 91103 91202;
0229067710999992010010906004+45850+008933FM-12+035699999V0201601N000519999999N9999999N1+00091+00041099701ADDAA112004191AA224021191AL11202191GJ100009IA2999+00009KA1999N+00101MA1999999095421MD1710251+9999OA149900211REMSYN112AAXX  09064 06771 03/// /1601 10009 20004 39542 49970 57025 60042 333 20010 3/100 55000 60005 70212 91104 91203;
0128067710999992010010907004+45850+008933FM-12+035699999V0209999C000019999999N9999999N1+00101+00061099771ADDMA1999999095491MD1510081+9999OA149900101REMSYN076AAXX  09074 06771 33/// /0000 10010 20006 39549 49977 55008 333 91102 91201;
0128067710999992010010908004+45850+008933FM-12+035699999V0202501N001519999999N9999999N1+00131+00101099751ADDMA1999999095471MD1010011+9999OA149900151REMSYN076AAXX  09084 06771 33/// /2503 10013 20010 39547 49975 50001 333 91103 91203;
0128067710999992010010909004+45850+008933FM-12+035699999V0202201N001519999999N9999999N1+00221+00151099601ADDMA1999999095341MD1810081+9999OA149900261REMSYN076AAXX  09094 06771 33/// /2203 10022 20015 39534 49960 58008 333 91105 91203;
0128067710999992010010910004+45850+008933FM-12+035699999V0202901N000519999999N9999999N1+00371+00241099441ADDMA1999999095211MD1710281+9999OA149900261REMSYN076AAXX  09104 06771 33/// /2901 10037 20024 39521 49944 57028 333 91105 91203;
0128067710999992010010911004+45850+008933FM-12+035699999V0202101N001019999999N9999999N1+00501+00361099321ADDMA1999999095121MD1710351+9999OA149900261REMSYN076AAXX  09114 06771 33/// /2102 10050 20036 39512 49932 57035 333 91105 91203;
0128067710999992010010912004+45850+008933FM-12+035699999V0201501N001019999999N9999999N1+00581+00261099191ADDMA1999999095011MD1710331+9999OA149900361REMSYN076AAXX  09124 06771 33/// /1502 10058 20026 39501 49919 57033 333 91107 91204;
0128067710999992010010913004+45850+008933FM-12+035699999V0200901N001519999999N9999999N1+00531+00321099301ADDMA1999999095101MD1510111+9999OA149900511REMSYN076AAXX  09134 06771 33/// /0903 10053 20032 39510 49930 55011 333 91110 91204;
0128067710999992010010914004+45850+008933FM-12+035699999V0200801N001519999999N9999999N1+00501+00361099411ADDMA1999999095201MD1310081+9999OA149900511REMSYN076AAXX  09144 06771 33/// /0803 10050 20036 39520 49941 53008 333 91110 91205;
0145067710999992010010915004+45850+008933FM-12+035699999V0202401N000519999999N9999999N1+00431+00351099541ADDAA101000891MA1999999095321MD1210311+9999OA149900511REMSYN082AAXX  09154 06771 23/// /2401 10043 20035 39532 49954 52031 333 69985 91110 91205;
0145067710999992010010916004+45850+008933FM-12+035699999V0209999C000019999999N9999999N1+00371+00321099651ADDAA101002091MA1999999095411MD1210311+9999OA149900361REMSYN082AAXX  09164 06771 23/// /0000 10037 20032 39541 49965 52031 333 60025 91107 91202;
0145067710999992010010917004+45850+008933FM-12+035699999V0202001N000519999999N9999999N1+00361+00301099701ADDAA101000021MA1999999095461MD1110261+9999OA149900361REMSYN082AAXX  09174 06771 23/// /2001 10036 20030 39546 49970 51026 333 69925 91107 91202;
0170067710999992010010918004+45850+008933FM-12+035699999V0200801N001019999999N9999999N1+00441+00311099781ADDAA112005191KA1120M+00581MA1999999095551MD1310231+9999OA149900511REMSYN094AAXX  09184 06771 03/// /0802 10044 20031 39555 49978 53023 60052 333 10058 60015 91110 91205;
0145067710999992010010919004+45850+008933FM-12+035699999V0201301N002619999999N9999999N1+00431+00211099881ADDAA101000021MA1999999095641MD1210231+9999OA149900571REMSYN082AAXX  09194 06771 23/// /1305 10043 20021 39564 49988 52023 333 69925 91111 91205;
0145067710999992010010920004+45850+008933FM-12+035699999V0202301N000519999999N9999999N1+00331+00261100001ADDAA101001091MA1999999095741MD1310281+9999OA149900571REMSYN082AAXX  09204 06771 23/// /2301 10033 20026 39574 40000 53028 333 60015 91111 91205;
0145067710999992010010921004+45850+008933FM-12+035699999V0202901N000519999999N9999999N1+00301+00231100061ADDAA101002091MA1999999095801MD1110251+9999OA149900571REMSYN082AAXX  09214 06771 23/// /2901 10030 20023 39580 40006 51025 333 60025 91111 91205;
0145067710999992010010922004+45850+008933FM-12+035699999V0200701N000519999999N9999999N1+00301+00241100141ADDAA101002091MA1999999095871MD1110231+9999OA149900311REMSYN082AAXX  09224 06771 23/// /0701 10030 20024 39587 40014 51023 333 60025 91106 91203;
0145067710999992010010923004+45850+008933FM-12+035699999V0209999C000019999999N9999999N1+00271+00221100201ADDAA101002091MA1999999095931MD1310191+9999OA149900151REMSYN082AAXX  09234 06771 23/// /0000 10027 20022 39593 40020 53019 333 60025 91103 91202;
0151067710999992010011000004+45850+008933FM-12+035699999V0209999C000019999999N9999999N1+00241+00181100231ADDAA106008991MA1999999095951MD1210151+9999OA149900571REMSYN088AAXX  10004 06771 03/// /0000 10024 20018 39595 40023 52015 60091 333 60025 91111 91205;
0145067710999992010011001004+45850+008933FM-12+035699999V0209999C000019999999N9999999N1+00251+00201100281ADDAA101001091MA1999999096001MD1210131+9999OA149900151REMSYN082AAXX  10014 06771 23/// /0000 10025 20020 39600 40028 52013 333 60015 91103 91201;
0108067710999992010011002004+45850+008933FM-12+035699999V0200501N001519999999N9999999N1+00291+00221100371ADDAA101001091MA1999999096091REMSYN070AAXX  10024 06771 23/// /0503 10029 20022 39609 40037 5//// 333 60015;
0087067710999992010011003004+45850+008933FM-12+035699999V0200501N000519999999N9999999N1+00411+00281100421ADDMA1999999096161REMSYN060AAXX  10034 06771 43/// /0501 10041 20028 39616 40042 5////;
0128067710999992010011004004+45850+008933FM-12+035699999V0209999C000019999999N9999999N1+00331+00261100511ADDMA1999999096231MD1110231+9999OA149900511REMSYN076AAXX  10044 06771 33/// /0000 10033 20026 39623 40051 51023 333 91110 91205;
0128067710999992010011005004+45850+008933FM-12+035699999V0209999C000019999999N9999999N1+00271+00201100581ADDMA1999999096291MD1210201+9999OA149900211REMSYN076AAXX  10054 06771 33/// /0000 10027 20020 39629 40058 52020 333 91104 91203;
0248067710999992010011006004+45850+008933FM-12+035699999V0202101N000519999999N9999999N1+00151+00121100631ADDAA112010991AA224015791AL14801591GJ100009IA2999+00109KA1999N+99999MA1999999096321MD1110161+9999OA149900571REMSYN112AAXX  10064 06771 03/// /2101 10015 20012 39632 40063 51016 60112 333 20021 3/001 55000 60005 70158 91111 91205;EQDQ01 +00212ATMN  
0128067710999992010011007004+45850+008933FM-12+035699999V0202101N001019999999N9999999N1+00151+00091100721ADDMA1999999096401MD1310171+9999OA149900151REMSYN076AAXX  10074 06771 33/// /2102 10015 20009 39640 40072 53017 333 91103 91202;
0128067710999992010011008004+45850+008933FM-12+035699999V0209999C000019999999N9999999N1+00151+00091100801ADDMA1999999096481MD1319999+9999OA149900151REMSYN076AAXX  10084 06771 33/// /0000 10015 20009 39648 40080 53/// 333 91103 91202;
0128067710999992010011009004+45850+008933FM-12+035699999V0202601N000519999999N9999999N1+00221+00171100881ADDMA1999999096571MD1210251+9999OA149900211REMSYN076AAXX  10094 06771 33/// /2601 10022 20017 39657 40088 52025 333 91104 91203;
0128067710999992010011010004+45850+008933FM-12+035699999V0201801N000519999999N9999999N1+00271+00201100901ADDMA1999999096601MD1210201+9999OA149900101REMSYN076AAXX  10104 06771 33/// /1801 10027 20020 39660 40090 52020 333 91102 91201;
0128067710999992010011011004+45850+008933FM-12+035699999V0202701N001519999999N9999999N1+00571-00091100851ADDMA1999999096591MD1010111+9999OA149900311REMSYN076AAXX  10114 06771 33/// /2703 10057 21009 39659 40085 50011 333 91106 91203;
0128067710999992010011012004+45850+008933FM-12+035699999V0202401N002619999999N9999999N1+00641-00061100821ADDMA1999999096581MD1010011+9999OA149900511REMSYN076AAXX  10124 06771 33/// /2405 10064 21006 39658 40082 50001 333 91110 91206;
0128067710999992010011013004+45850+008933FM-12+035699999V0202301N002619999999N9999999N1+00571+00001100841ADDMA1999999096581MD1710021+9999OA149900511REMSYN076AAXX  10134 06771 33/// /2305 10057 20000 39658 40084 57002 333 91110 91207;
0128067710999992010011014004+45850+008933FM-12+035699999V0202301N001519999999N9999999N1+00541+00111100881ADDMA1999999096621MD1319999+9999OA149900511REMSYN076AAXX  10144 06771 33/// /2303 10054 20011 39662 40088 53/// 333 91110 91207;
0128067710999992010011015004+45850+008933FM-12+035699999V0202401N001519999999N9999999N1+00501+00031100931ADDMA1999999096661MD1210081+9999OA149900511REMSYN076AAXX  10154 06771 33/// /2403 10050 20003 39666 40093 52008 333 91110 91207;
0128067710999992010011016004+45850+008933FM-12+035699999V0202001N000519999999N9999999N1+00371+00141100991ADDMA1999999096701MD1310121+9999OA149900261REMSYN076AAXX  10164 06771 33/// /2001 10037 20014 39670 40099 53012 333 91105 91204;
0128067710999992010011017004+45850+008933FM-12+035699999V0202101N000519999999N9999999N1+00251+00141101061ADDMA1999999096751MD1310131+9999OA149900261REMSYN076AAXX  10174 06771 33/// /2101 10025 20014 39675 40106 53013 333 91105 91204;
0147067710999992010011018004+45850+008933FM-12+035699999V0209999C000019999999N9999999N1+00261+00131101121ADDKA1120M+00671MA1999999096801MD1310141+9999OA149900511REMSYN082AAXX  10184 06771 33/// /0000 10026 20013 39680 40112 53014 333 10067 91110 91207;
0128067710999992010011019004+45850+008933FM-12+035699999V0202101N000519999999N9999999N1+00201+00101101181ADDMA1999999096851MD1210151+9999OA149900101REMSYN076AAXX  10194 06771 33/// /2101 10020 20010 39685 40118 52015 333 91102 91202;
0128067710999992010011020004+45850+008933FM-12+035699999V0202401N000519999999N9999999N1+00241+00091101211ADDMA1999999096891MD1110141+9999OA149900151REMSYN076AAXX  10204 06771 33/// /2401 10024 20009 39689 40121 51014 333 91103 91202;
0128067710999992010011021004+45850+008933FM-12+035699999V0202501N000519999999N9999999N1+00131+00051101251ADDMA1999999096911MD1210111+9999OA149900261REMSYN076AAXX  10214 06771 33/// /2501 10013 20005 39691 40125 52011 333 91105 91204;
0128067710999992010011022004+45850+008933FM-12+035699999V0202401N001519999999N9999999N1-00051-00121101321ADDMA1999999096951MD1210101+9999OA149900261REMSYN076AAXX  10224 06771 33/// /2403 11005 21012 39695 40132 52010 333 91105 91204;
0128067710999992010011023004+45850+008933FM-12+035699999V0202401N001019999999N9999999N1-00091-00161101361ADDMA1999999096981MD1210091+9999OA149900261REMSYN076AAXX  10234 06771 33/// /2402 11009 21016 39698 40136 52009 333 91105 91204;
0128067710999992010011100004+45850+008933FM-12+035699999V0202401N001019999999N9999999N1-00151-00201101351ADDMA1999999096961MD1210051+9999OA149900511REMSYN076AAXX  11004 06771 33/// /2402 11015 21020 39696 40135 52005 333 91110 91207;
0128067710999992010011101004+45850+008933FM-12+035699999V0202301N000519999999N9999999N1-00181-00241101361ADDMA1999999096961MD1010011+9999OA149900151REMSYN076AAXX  11014 06771 33/// /2301 11018 21024 39696 40136 50001 333 91103 91202;
0128067710999992010011102004+45850+008933FM-12+035699999V0202301N001019999999N9999999N1-00211-00261101391ADDMA1999999096991MD1319999+9999OA149900151REMSYN076AAXX  11024 06771 33/// /2302 11021 21026 39699 40139 53/// 333 91103 91202;
0128067710999992010011103004+45850+008933FM-12+035699999V0202301N000519999999N9999999N1-00261-00331101401ADDMA1999999096991MD1219999+9999OA149900261REMSYN076AAXX  11034 06771 33/// /2301 11026 21033 39699 40140 52/// 333 91105 91204;
0128067710999992010011104004+45850+008933FM-12+035699999V0202401N000519999999N9999999N1-00251-00311101411ADDMA1999999097001MD1210041+9999OA149900151REMSYN076AAXX  11044 06771 33/// /2401 11025 21031 39700 40141 52004 333 91103 91202;
0128067710999992010011105004+45850+008933FM-12+035699999V0202501N000519999999N9999999N1-00281-00361101441ADDMA1999999097021MD1210031+9999OA149900151REMSYN076AAXX  11054 06771 33/// /2501 11028 21036 39702 40144 52003 333 91103 91202;
0225067710999992010011106004+45850+008933FM-12+035699999V0202401N000519999999N9999999N1-00321-00391101411ADDAA124000091AL19900091GJ101569IA2999-00509KA1999N-00311MA1999999096991MD1010001+9999OA149900261REMSYN100AAXX  11064 06771 33/// /2401 11032 21039 39699 40141 50000 333 21031 3/105 55026 70000 91105 91204;EQDQ01  00002PRCP24
0128067710999992010011107004+45850+008933FM-12+035699999V0202401N001019999999N9999999N1-00341-00431101451ADDMA1999999097021MD1210021+9999OA149900151REMSYN076AAXX  11074 06771 33/// /2402 11034 21043 39702 40145 52002 333 91103 91202;
0128067710999992010011108004+45850+008933FM-12+035699999V0202101N000519999999N9999999N1-00291-00371101501ADDMA1999999097081MD1319999+9999OA149900151REMSYN076AAXX  11084 06771 33/// /2101 11029 21037 39708 40150 53/// 333 91103 91203;
0128067710999992010011109004+45850+008933FM-12+035699999V0202001N000519999999N9999999N1-00051-00111101511ADDMA1999999097131MD1310141+9999OA149900151REMSYN076AAXX  11094 06771 33/// /2001 11005 21011 39713 40151 53014 333 91103 91203;
0128067710999992010011110004+45850+008933FM-12+035699999V0209999C000019999999N9999999N1+00291+00081101471ADDMA1999999097141MD1119999+9999OA149900101REMSYN076AAXX  11104 06771 33/// /0000 10029 20008 39714 40147 51/// 333 91102 91202;
0128067710999992010011111004+45850+008933FM-12+035699999V0200801N001519999999N9999999N1+00461-00031101411ADDMA1999999097111MD1010031+9999OA149900211REMSYN076AAXX  11114 06771 33/// /0803 10046 21003 39711 40141 50003 333 91104 91203;
0128067710999992010011112004+45850+008933FM-12+035699999V0201201N000519999999N9999999N1+00561-00061101341ADDMA1999999097061MD1810071+9999OA149900211REMSYN076AAXX  11124 06771 33/// /1201 10056 21006 39706 40134 58007 333 91104 91203;
0128067710999992010011113004+45850+008933FM-12+035699999V0201001N000519999999N9999999N1+00621-00071101291ADDMA1999999097021MD1810121+9999OA149900151REMSYN076AAXX  11134 06771 33/// /1001 10062 21007 39702 40129 58012 333 91103 91203;
0087067710999992010011114004+45850+008933FM-12+035699999V0200401N001519999999N9999999N1+00631-00031101251ADDMA1999999096991REMSYN060AAXX  11144 06771 33/// /0403 10063 21003 39699 40125 5////;
0128067710999992010011115004+45850+008933FM-12+035699999V0201901N000519999999N9999999N1+00471+00081101261ADDMA1999999096971MD1610091+9999OA149900211REMSYN076AAXX  11154 06771 33/// /1901 10047 20008 39697 40126 56009 333 91104 91203;
0128067710999992010011116004+45850+008933FM-12+035699999V0202101N000519999999N9999999N1+00091-00051101341ADDMA1999999096991MD1510031+9999OA149900151REMSYN076AAXX  11164 06771 33/// /2101 10009 21005 39699 40134 55003 333 91103 91202;
0128067710999992010011117004+45850+008933FM-12+035699999V0202001N000519999999N9999999N1+00031-00081101391ADDMA1999999097031MD1210041+9999OA149900101REMSYN076AAXX  11174 06771 33/// /2001 10003 21008 39703 40139 52004 333 91102 91201;
0147067710999992010011118004+45850+008933FM-12+035699999V0202001N000519999999N9999999N1-00031-00111101471ADDKA1120M+00651MA1999999097091MD1310121+9999OA149900211REMSYN082AAXX  11184 06771 33/// /2001 11003 21011 39709 40147 53012 333 10065 91104 91203;
0128067710999992010011119004+45850+008933FM-12+035699999V0202301N000519999999N9999999N1-00041-00091101531ADDMA1999999097151MD1210161+9999OA149900151REMSYN076AAXX  11194 06771 33/// /2301 11004 21009 39715 40153 52016 333 91103 91202;
0128067710999992010011120004+45850+008933FM-12+035699999V0202301N000519999999N9999999N1-00071-00141101571ADDMA1999999097181MD1110151+9999OA149900151REMSYN076AAXX  11204 06771 33/// /2301 11007 21014 39718 40157 51015 333 91103 91202;
0128067710999992010011121004+45850+008933FM-12+035699999V0202301N001019999999N9999999N1-00111-00181101611ADDMA1999999097211MD1110121+9999OA149900151REMSYN076AAXX  11214 06771 33/// /2302 11011 21018 39721 40161 51012 333 91103 91202;
0128067710999992010011122004+45850+008933FM-12+035699999V0202401N000519999999N9999999N1-00221-00271101631ADDMA1999999097221MD1110071+9999OA149900151REMSYN076AAXX  11224 06771 33/// /2401 11022 21027 39722 40163 51007 333 91103 91202;
0128067710999992010011123004+45850+008933FM-12+035699999V0202401N000519999999N9999999N1-00141-00211101631ADDMA1999999097231MD1210051+9999OA149900151REMSYN076AAXX  11234 06771 33/// /2401 11014 21021 39723 40163 52005 333 91103 91202;
0128067710999992010011200004+45850+008933FM-12+035699999V0202301N001019999999N9999999N1-00141-00201101641ADDMA1999999097241MD1210031+9999OA149900211REMSYN076AAXX  12004 06771 33/// /2302 11014 21020 39724 40164 52003 333 91104 91203;
0128067710999992010011201004+45850+008933FM-12+035699999V0202301N000519999999N9999999N1-00121-00181101641ADDMA1999999097241MD1210021+9999OA149900151REMSYN076AAXX  12014 06771 33/// /2301 11012 21018 39724 40164 52002 333 91103 91202;
0128067710999992010011202004+45850+008933FM-12+035699999V0202301N000519999999N9999999N1-00181-00241101661ADDMA1999999097251MD1219999+9999OA149900101REMSYN076AAXX  12024 06771 33/// /2301 11018 21024 39725 40166 52/// 333 91102 91202;
0128067710999992010011203004+45850+008933FM-12+035699999V0202301N000519999999N9999999N1-00271-00341101681ADDMA1999999097261MD1210021+9999OA149900151REMSYN076AAXX  12034 06771 33/// /2301 11027 21034 39726 40168 52002 333 91103 91202;
0128067710999992010011204004+45850+008933FM-12+035699999V0202201N001019999999N9999999N1-00311-00371101681ADDMA1999999097251MD1410001+9999OA149900151REMSYN076AAXX  12044 06771 33/// /2202 11031 21037 39725 40168 54001 333 91103 91202;
0147067710999992010011205004+45850+008933FM-12+035699999V0202301N000519999999N9999999N1-00341-00411101691ADDMA1999999097251MD1710031+9999OA149900151REMSYN076AAXX  12054 06771 33/// /2301 11034 21041 39725 40169 57000 333 91103 91202;EQDQ01+000002APC3  
0225067710999992010011206004+45850+008933FM-12+035699999V0202501N000519999999N9999999N1-00381-00461101731ADDAA124000091AL19900091GJ104149IA2999-00509KA1999N-00351MA1999999097291MD1310031+9999OA149900151REMSYN100AAXX  12064 06771 33/// /2501 11038 21046 39729 40173 53003 333 21035 3/105 55069 70000 91103 91202;EQDQ01  00002PRCP24
0128067710999992010011207004+45850+008933FM-12+035699999V0202401N000519999999N9999999N1-00411-00471101761ADDMA1999999097311MD1210061+9999OA149900151REMSYN076AAXX  12074 06771 33/// /2401 11041 21047 39731 40176 52006 333 91103 91202;
0145067710999992010011208004+45850+008933FM-12+035699999V0202301N000519999999N9999999N1-00331-00421101751ADDAA101000021MA1999999097311MD1219999+9999OA149900151REMSYN082AAXX  12084 06771 23/// /2301 11033 21042 39731 40175 52/// 333 69925 91103 91202;
0128067710999992010011209004+45850+008933FM-12+035699999V0202301N000519999999N9999999N1-00111-00181101731ADDMA1999999097331MD1210041+9999OA149900151REMSYN076AAXX  12094 06771 33/// /2301 11011 21018 39733 40173 52004 333 91103 91202;
0128067710999992010011210004+45850+008933FM-12+035699999V0209999C000019999999N9999999N1+00041-00041101711ADDMA1999999097331MD1210021+9999OA149900101REMSYN076AAXX  12104 06771 33/// /0000 10004 21004 39733 40171 52002 333 91102 91202;
0128067710999992010011211004+45850+008933FM-12+035699999V0209999C000019999999N9999999N1+00121+00031101681ADDMA1999999097321MD1010011+9999OA149900101REMSYN076AAXX  12114 06771 33/// /0000 10012 20003 39732 40168 50001 333 91102 91201;
0170067710999992010011212004+45850+008933FM-12+035699999V0200501N000519999999N9999999N1+00231+00001101611ADDAA106000091MA1999999097271MD1710061+9999OA149900151REMSYN088AAXX  12124 06771 03/// /0501 10023 20000 39727 40161 57006 69921 333 60005 91103 91202;EQDQ01  00002PRCP06
0128067710999992010011213004+45850+008933FM-12+035699999V0202101N000519999999N9999999N1+00231+00041101571ADDMA1999999097231MD1810101+9999OA149900151REMSYN076AAXX  12134 06771 33/// /2101 10023 20004 39723 40157 58010 333 91103 91202;
0087067710999992010011214004+45850+008933FM-12+035699999V0201801N000519999999N9999999N1+00221+00081101531ADDMA1999999097191REMSYN060AAXX  12144 06771 33/// /1801 10022 20008 39719 40153 5////;
0128067710999992010011215004+45850+008933FM-12+035699999V0209999C000019999999N9999999N1+00161+00091101501ADDMA1999999097151MD1710121+9999OA149900151REMSYN076AAXX  12154 06771 33/// /0000 10016 20009 39715 40150 57012 333 91103 91202;
0128067710999992010011216004+45850+008933FM-12+035699999V0201101N000519999999N9999999N1+00131+00021101461ADDMA1999999097111MD1710121+9999OA149900151REMSYN076AAXX  12164 06771 33/// /1101 10013 20002 39711 40146 57012 333 91103 91202;
0128067710999992010011217004+45850+008933FM-12+035699999V0202301N000519999999N9999999N1+00071+00001101471ADDMA1999999097111MD1710081+9999OA149900151REMSYN076AAXX  12174 06771 33/// /2301 10007 20000 39711 40147 57008 333 91103 91202;
0189067710999992010011218004+45850+008933FM-12+035699999V0201801N000519999999N9999999N1+00071-00011101461ADDAA112000091KA1120M+00241MA1999999097101MD1710051+9999OA149900151REMSYN094AAXX  12184 06771 03/// /1801 10007 21001 39710 40146 57005 69922 333 10024 60005 91103 91202;EQDQ01  00002PRCP12
0128067710999992010011219004+45850+008933FM-12+035699999V0202501N000519999999N9999999N1+00041-00031101501ADDMA1999999097131MD1210021+9999OA149900151REMSYN076AAXX  12194 06771 33/// /2501 10004 21003 39713 40150 52002 333 91103 91202;
0128067710999992010011220004+45850+008933FM-12+035699999V0202401N001019999999N9999999N1+00031-00041101491ADDMA1999999097121MD1010011+9999OA149900151REMSYN076AAXX  12204 06771 33/// /2402 10003 21004 39712 40149 50001 333 91103 91202;
0128067710999992010011221004+45850+008933FM-12+035699999V0202201N000519999999N9999999N1+00031-00031101461ADDMA1999999097091MD1810011+9999OA149900151REMSYN076AAXX  12214 06771 33/// /2201 10003 21003 39709 40146 58001 333 91103 91202;
0128067710999992010011222004+45850+008933FM-12+035699999V0209999C000019999999N9999999N1+00051-00031101401ADDMA1999999097041MD1710091+9999OA149900151REMSYN076AAXX  12224 06771 33/// /0000 10005 21003 39704 40140 57009 333 91103 91202;
0128067710999992010011223004+45850+008933FM-12+035699999V0202401N001019999999N9999999N1+00021-00041101331ADDMA1999999096971MD1810151+9999OA149900151REMSYN076AAXX  12234 06771 33/// /2402 10002 21004 39697 40133 58015 333 91103 91202;
0128067710999992010011300004+45850+008933FM-12+035699999V0202101N000519999999N9999999N1+00071-00011101311ADDMA1999999096961MD1610131+9999OA149900151REMSYN076AAXX  13004 06771 33/// /2101 10007 21001 39696 40131 56013 333 91103 91202;
0128067710999992010011301004+45850+008933FM-12+035699999V0209999C000019999999N9999999N1+00091+00011101231ADDMA1999999096881MD1810161+9999OA149900151REMSYN076AAXX  13014 06771 33/// /0000 10009 20001 39688 40123 58016 333 91103 91202;
0145067710999992010011302004+45850+008933FM-12+035699999V0201901N000519999999N9999999N1+00091+00011101221ADDAA101000021MA1999999096871MD1619999+9999OA149900151REMSYN082AAXX  13024 06771 23/// /1901 10009 20001 39687 40122 56/// 333 69925 91103 91202;
0145067710999992010011303004+45850+008933FM-12+035699999V0202201N000519999999N9999999N1+00051+00021101181ADDAA101000591MA1999999096831MD1619999+9999OA149900151REMSYN082AAXX  13034 06771 23/// /2201 10005 20002 39683 40118 56/// 333 69945 91103 91202;
0145067710999992010011304004+45850+008933FM-12+035699999V0209999C000019999999N9999999N1+00061+00011101141ADDAA101000021MA1999999096791MD1810091+9999OA149900101REMSYN082AAXX  13044 06771 23/// /0000 10006 20001 39679 40114 58009 333 69925 91102 91201;
0145067710999992010011305004+45850+008933FM-12+035699999V0202201N000519999999N9999999N1+00051+00001101091ADDAA101000021MA1999999096741MD1610131+9999OA149900101REMSYN082AAXX  13054 06771 23/// /2201 10005 20000 39674 40109 56013 333 69925 91102 91201;
0229067710999992010011306004+45850+008933FM-12+035699999V0202201N000519999999N9999999N1+00041+00011101091ADDAA112001091AA224001391AL11800191GJ100009IA2999-00109KA1999N+00021MA1999999096741MD1710091+9999OA149900151REMSYN112AAXX  13064 06771 03/// /2201 10004 20001 39674 40109 57009 60012 333 20002 3/101 55000 69925 70013 91103 91202;
0180067710999992010011307004+45850+008933FM-12+035699999V0202301N001019999999N9999999N1+00091+00031101131ADDAA101000021MA1999999096791MD1710011+9999OA149900151REMSYN082AAXX  13074 06771 23/// /2302 10009 20003 39679 40113 53000 333 69915 91103 91202;EQDQ01+000032APCTENQ02+000002APC3  
0145067710999992010011308004+45850+008933FM-12+035699999V0202101N000519999999N9999999N1+00061+00021101161ADDAA101000021MA1999999096811MD1210071+9999OA149900151REMSYN082AAXX  13084 06771 23/// /2101 10006 20002 39681 40116 52007 333 69925 91103 91202;
0128067710999992010011309004+45850+008933FM-12+035699999V0202201N000519999999N9999999N1+00101+00061101191ADDMA1999999096851MD1110111+9999OA149900151REMSYN076AAXX  13094 06771 33/// /2201 10010 20006 39685 40119 51011 333 91103 91202;
0128067710999992010011310004+45850+008933FM-12+035699999V0202401N001019999999N9999999N1+00171+00101101211ADDMA1999999096881MD1210091+9999OA149900101REMSYN076AAXX  13104 06771 33/// /2402 10017 20010 39688 40121 52009 333 91102 91202;
0128067710999992010011311004+45850+008933FM-12+035699999V0209999C000019999999N9999999N1+00271+00131101191ADDMA1999999096871MD1210061+9999OA149900101REMSYN076AAXX  13114 06771 33/// /0000 10027 20013 39687 40119 52006 333 91102 91202;
0151067710999992010011312004+45850+008933FM-12+035699999V0202101N000519999999N9999999N1+00301+00141101141ADDAA106000391MA1999999096831MD1810021+9999OA149900151REMSYN088AAXX  13124 06771 03/// /2101 10030 20014 39683 40114 58002 69931 333 60005 91103 91202;
0128067710999992010011313004+45850+008933FM-12+035699999V0202101N000519999999N9999999N1+00321+00161101111ADDMA1999999096801MD1810081+9999OA149900151REMSYN076AAXX  13134 06771 33/// /2101 10032 20016 39680 40111 58008 333 91103 91202;
0145067710999992010011314004+45850+008933FM-12+035699999V0202101N000519999999N9999999N1+00331+00141101081ADDAA101000021MA1999999096781MD1619999+9999OA149900151REMSYN082AAXX  13144 06771 23/// /2101 10033 20014 39678 40108 56/// 333 69915 91103 91202;
0128067710999992010011315004+45850+008933FM-12+035699999V0202301N001019999999N9999999N1+00351+00151101101ADDMA1999999096801MD1510031+9999OA149900151REMSYN076AAXX  13154 06771 33/// /2302 10035 20015 39680 40110 55003 333 91103 91202;
0128067710999992010011316004+45850+008933FM-12+035699999V0202101N000519999999N9999999N1+00281+00191101131ADDMA1999999096821MD1210021+9999OA149900101REMSYN076AAXX  13164 06771 33/// /2101 10028 20019 39682 40113 52002 333 91102 91202;
0128067710999992010011317004+45850+008933FM-12+035699999V0202201N000519999999N9999999N1+00171+00111101181ADDMA1999999096851MD1310071+9999OA149900101REMSYN076AAXX  13174 06771 33/// /2201 10017 20011 39685 40118 53007 333 91102 91202;
0170067710999992010011318004+45850+008933FM-12+035699999V0202301N000519999999N9999999N1+00181+00131101211ADDAA112000591KA1120M+00351MA1999999096881MD1310081+9999OA149900151REMSYN094AAXX  13184 06771 03/// /2301 10018 20013 39688 40121 53008 69942 333 10035 60005 91103 91202;
0128067710999992010011319004+45850+008933FM-12+035699999V0202201N001019999999N9999999N1+00161+00111101221ADDMA1999999096881MD1219999+9999OA149900101REMSYN076AAXX  13194 06771 33/// /2202 10016 20011 39688 40122 52/// 333 91102 91202;
0087067710999992010011400004+45850+008933FM-12+035699999V0209999C000019999999N9999999N1+00161+00121101221ADDMA1999999096881REMSYN060AAXX  14004 06771 43/// /0000 10016 20012 39688 40122 5////;
0128067710999992010011401004+45850+008933FM-12+035699999V0202201N000519999999N9999999N1+00141+00101101201ADDMA1999999096861MD1819999+9999OA149900101REMSYN076AAXX  14014 06771 33/// /2201 10014 20010 39686 40120 58/// 333 91102 91201;
0128067710999992010011402004+45850+008933FM-12+035699999V0202201N001019999999N9999999N1+00111+00061101191ADDMA1999999096851MD1619999+9999OA149900151REMSYN076AAXX  14024 06771 33/// /2202 10011 20006 39685 40119 56/// 333 91103 91202;
0087067710999992010011403004+45850+008933FM-12+035699999V0202401N001019999999N9999999N1+00161+00091101231ADDMA1999999096891REMSYN060AAXX  14034 06771 33/// /2402 10016 20009 39689 40123 5////;
0128067710999992010011404004+45850+008933FM-12+035699999V0209999C000019999999N9999999N1+00171+00121101191ADDMA1999999096861MD1010001+9999OA149900261REMSYN076AAXX  14044 06771 33/// /0000 10017 20012 39686 40119 50000 333 91105 91204;
0128067710999992010011405004+45850+008933FM-12+035699999V0200601N000519999999N9999999N1+00161+00101101141ADDMA1999999096811MD1810041+9999OA149900151REMSYN076AAXX  14054 06771 33/// /0601 10016 20010 39681 40114 58004 333 91103 91202;
0206067710999992010011406004+45850+008933FM-12+035699999V0209999C000019999999N9999999N1+00141+00081101161ADDAA124000591AL13000091GJ100009IA2999+00009KA1999N+00071MA1999999096821MD1710071+9999OA149900261REMSYN100AAXX  14064 06771 33/// /0000 10014 20008 39682 40116 57007 333 20007 3/000 55000 70005 91105 91204;
0128067710999992010011407004+45850+008933FM-12+035699999V0202301N000519999999N9999999N1+00101+00051101191ADDMA1999999096851MD1510011+9999OA149900211REMSYN076AAXX  14074 06771 33/// /2301 10010 20005 39685 40119 55001 333 91104 91203;
0128067710999992010011408004+45850+008933FM-12+035699999V0209999C000019999999N9999999N1+00171+00091101251ADDMA1999999096911MD1319999+9999OA149900151REMSYN076AAXX  14084 06771 33/// /0000 10017 20009 39691 40125 53/// 333 91103 91202;
0128067710999992010011409004+45850+008933FM-12+035699999V0209999C000019999999N9999999N1+00231+00121101211ADDMA1999999096891MD1210071+9999OA149900211REMSYN076AAXX  14094 06771 33/// /0000 10023 20012 39689 40121 52007 333 91104 91203;
0128067710999992010011410004+45850+008933FM-12+035699999V0209999C000019999999N9999999N1+00311+00121101221ADDMA1999999096911MD1210061+9999OA149900101REMSYN076AAXX  14104 06771 33/// /0000 10031 20012 39691 40122 52006 333 91102 91201;
0128067710999992010011411004+45850+008933FM-12+035699999V0202401N000519999999N9999999N1+00321+00141101211ADDMA1999999096901MD1710011+9999OA149900151REMSYN076AAXX  14114 06771 33/// /2401 10032 20014 39690 40121 57001 333 91103 91202;
0128067710999992010011412004+45850+008933FM-12+035699999V0202301N000519999999N9999999N1+00351+00141101161ADDMA1999999096861MD1710031+9999OA149900261REMSYN076AAXX  14124 06771 33/// /2301 10035 20014 39686 40116 57003 333 91105 91204;
0128067710999992010011413004+45850+008933FM-12+035699999V0201101N000519999999N9999999N1+00371+00121101141ADDMA1999999096841MD1710071+9999OA149900151REMSYN076AAXX  14134 06771 33/// /1101 10037 20012 39684 40114 57007 333 91103 91202;
0128067710999992010011414004+45850+008933FM-12+035699999V0202301N000519999999N9999999N1+00391+00141101151ADDMA1999999096851MD1710051+9999OA149900101REMSYN076AAXX  14144 06771 33/// /2301 10039 20014 39685 40115 57005 333 91102 91201;
0128067710999992010011415004+45850+008933FM-12+035699999V0200501N000519999999N9999999N1+00401+00111101101ADDMA1999999096811MD1710051+9999OA149900151REMSYN076AAXX  14154 06771 33/// /0501 10040 20011 39681 40110 57005 333 91103 91202;
0128067710999992010011416004+45850+008933FM-12+035699999V0209999C000019999999N9999999N1+00351+00141101141ADDMA1999999096841MD1510001+9999OA149900101REMSYN076AAXX  14164 06771 33/// /0000 10035 20014 39684 40114 55000 333 91102 91201;
0128067710999992010011417004+45850+008933FM-12+035699999V0202101N000519999999N9999999N1+00191+00131101221ADDMA1999999096891MD1310041+9999OA149900101REMSYN076AAXX  14174 06771 33/// /2101 10019 20013 39689 40122 53004 333 91102 91201;
0147067710999992010011418004+45850+008933FM-12+035699999V0202101N000519999999N9999999N1+00201+00141101281ADDKA1120M+00411MA1999999096951MD1310141+9999OA149900151REMSYN082AAXX  14184 06771 33/// /2101 10020 20014 39695 40128 53014 333 10041 91103 91202;
0128067710999992010011419004+45850+008933FM-12+035699999V0202401N001019999999N9999999N1+00161+00101101381ADDMA1999999097041MD1210201+9999OA149900151REMSYN076AAXX  14194 06771 33/// /2402 10016 20010 39704 40138 52020 333 91103 91202;
0128067710999992010011420004+45850+008933FM-12+035699999V0202201N000519999999N9999999N1+00171+00111101441ADDMA1999999097101MD1210211+9999OA149900151REMSYN076AAXX  14204 06771 33/// /2201 10017 20011 39710 40144 52021 333 91103 91202;
0128067710999992010011421004+45850+008933FM-12+035699999V0201701N000519999999N9999999N1+00131+00101101521ADDMA1999999097171MD1210221+9999OA149900151REMSYN076AAXX  14214 06771 33/// /1701 10013 20010 39717 40152 52022 333 91103 91202;
0128067710999992010011422004+45850+008933FM-12+035699999V0202301N000519999999N9999999N1+00131+00071101541ADDMA1999999097191MD1110151+9999OA149900101REMSYN076AAXX  14224 06771 33/// /2301 10013 20007 39719 40154 51015 333 91102 91201;
0128067710999992010011423004+45850+008933FM-12+035699999V0209999C000019999999N9999999N1+00111+00051101571ADDMA1999999097211MD1110111+9999OA149900101REMSYN076AAXX  14234 06771 33/// /0000 10011 20005 39721 40157 51011 333 91102 91202;
0128067710999992010011500004+45850+008933FM-12+035699999V0202101N000519999999N9999999N1-00061-00101101581ADDMA1999999097191MD1010021+9999OA149900151REMSYN076AAXX  15004 06771 33/// /2101 11006 21010 39719 40158 50002 333 91103 91202;
0128067710999992010011501004+45850+008933FM-12+035699999V0202201N001019999999N9999999N1-00031-00091101591ADDMA1999999097211MD1210021+9999OA149900151REMSYN076AAXX  15014 06771 33/// /2202 11003 21009 39721 40159 52002 333 91103 91202;
0128067710999992010011502004+45850+008933FM-12+035699999V0202301N000519999999N9999999N1-00101-00141101661ADDMA1999999097261MD1210051+9999OA149900151REMSYN076AAXX  15024 06771 33/// /2301 11010 21014 39726 40166 52005 333 91103 91202;
0087067710999992010011503004+45850+008933FM-12+035699999V0202401N001019999999N9999999N1-00091-00181101691ADDMA1999999097291REMSYN060AAXX  15034 06771 33/// /2402 11009 21018 39729 40169 5////;
0128067710999992010011504004+45850+008933FM-12+035699999V0202001N000519999999N9999999N1-00191-00241101721ADDMA1999999097311MD1210101+9999OA149900151REMSYN076AAXX  15044 06771 33/// /2001 11019 21024 39731 40172 52010 333 91103 91202;
0128067710999992010011505004+45850+008933FM-12+035699999V0202001N000519999999N9999999N1-00211-00271101761ADDMA1999999097341MD1210081+9999OA149900101REMSYN076AAXX  15054 06771 33/// /2001 11021 21027 39734 40176 52008 333 91102 91202;
0225067710999992010011506004+45850+008933FM-12+035699999V0202401N001019999999N9999999N1-00191-00291101831ADDAA124000091AL19900091GJ100009IA2999-00409KA1999N-00241MA1999999097411MD1210121+9999OA149900151REMSYN100AAXX  15064 06771 33/// /2402 11019 21029 39741 40183 52012 333 21024 3/104 55000 70000 91103 91202;EQDQ01  00002PRCP24
0128067710999992010011507004+45850+008933FM-12+035699999V0202101N000519999999N9999999N1-00271-00331101951ADDMA1999999097511MD1310201+9999OA149900151REMSYN076AAXX  15074 06771 33/// /2101 11027 21033 39751 40195 53020 333 91103 91202;
0128067710999992010011508004+45850+008933FM-12+035699999V0202101N000519999999N9999999N1-00251-00331102021ADDMA1999999097581MD1219999+9999OA149900151REMSYN076AAXX  15084 06771 33/// /2101 11025 21033 39758 40202 52/// 333 91103 91202;
0128067710999992010011509004+45850+008933FM-12+035699999V0209999C000019999999N9999999N1-00011-00081102051ADDMA1999999097651MD1110241+9999OA149900151REMSYN076AAXX  15094 06771 33/// /0000 11001 21008 39765 40205 51024 333 91103 91202;
0128067710999992010011510004+45850+008933FM-12+035699999V0201201N000519999999N9999999N1+00321+00031102051ADDMA1999999097701MD1110191+9999OA149900151REMSYN076AAXX  15104 06771 33/// /1201 10032 20003 39770 40205 51019 333 91103 91202;
0128067710999992010011511004+45850+008933FM-12+035699999V0201201N000519999999N9999999N1+00431-00041102041ADDMA1999999097711MD1210131+9999OA149900151REMSYN076AAXX  15114 06771 33/// /1201 10043 21004 39771 40204 52013 333 91103 91202;
0128067710999992010011512004+45850+008933FM-12+035699999V0202401N000519999999N9999999N1+00551-00051101971ADDMA1999999097661MD1010011+9999OA149900151REMSYN076AAXX  15124 06771 33/// /2401 10055 21005 39766 40197 50001 333 91103 91202;
0128067710999992010011513004+45850+008933FM-12+035699999V0202501N001519999999N9999999N1+00631-00031101951ADDMA1999999097661MD1710041+9999OA149900261REMSYN076AAXX  15134 06771 33/// /2503 10063 21003 39766 40195 57004 333 91105 91203;
0128067710999992010011514004+45850+008933FM-12+035699999V0201401N001019999999N9999999N1+00691-00021101971ADDMA1999999097691MD1510021+9999OA149900261REMSYN076AAXX  15144 06771 33/// /1402 10069 21002 39769 40197 55002 333 91105 91203;
0128067710999992010011515004+45850+008933FM-12+035699999V0202501N001519999999N9999999N1+00641+00021102051ADDMA1999999097751MD1210091+9999OA149900261REMSYN076AAXX  15154 06771 33/// /2503 10064 20002 39775 40205 52009 333 91105 91203;
0128067710999992010011516004+45850+008933FM-12+035699999V0202301N000519999999N9999999N1+00261+00061102191ADDMA1999999097831MD1310171+9999OA149900211REMSYN076AAXX  15164 06771 33/// /2301 10026 20006 39783 40219 53017 333 91104 91203;
0128067710999992010011517004+45850+008933FM-12+035699999V0202201N000519999999N9999999N1+00091-00031102281ADDMA1999999097891MD1210201+9999OA149900211REMSYN076AAXX  15174 06771 33/// /2201 10009 21003 39789 40228 52020 333 91104 91203;
0147067710999992010011518004+45850+008933FM-12+035699999V0209999C000019999999N9999999N1-00041-00121102371ADDKA1120M+00691MA1999999097951MD1110201+9999OA149900261REMSYN082AAXX  15184 06771 33/// /0000 11004 21012 39795 40237 51020 333 10069 91105 91203;
0128067710999992010011519004+45850+008933FM-12+035699999V0202201N000519999999N9999999N1-00101-00171102451ADDMA1999999098021MD1310191+9999OA149900151REMSYN076AAXX  15194 06771 33/// /2201 11010 21017 39802 40245 53019 333 91103 91202;
0128067710999992010011520004+45850+008933FM-12+035699999V0202101N000519999999N9999999N1-00121-00161102501ADDMA1999999098061MD1110171+9999OA149900151REMSYN076AAXX  15204 06771 33/// /2101 11012 21016 39806 40250 51017 333 91103 91202;
0128067710999992010011521004+45850+008933FM-12+035699999V0202101N000519999999N9999999N1-00191-00261102551ADDMA1999999098101MD1110151+9999OA149900211REMSYN076AAXX  15214 06771 33/// /2101 11019 21026 39810 40255 51015 333 91104 91203;
0128067710999992010011522004+45850+008933FM-12+035699999V0202401N001019999999N9999999N1-00201-00281102601ADDMA1999999098151MD1310131+9999OA149900151REMSYN076AAXX  15224 06771 33/// /2402 11020 21028 39815 40260 53013 333 91103 91202;
0128067710999992010011523004+45850+008933FM-12+035699999V0209999C000019999999N9999999N1-00221-00291102661ADDMA1999999098201MD1310141+9999OA149900151REMSYN076AAXX  15234 06771 33/// /0000 11022 21029 39820 40266 53014 333 91103 91202;
0128067710999992010011600004+45850+008933FM-12+035699999V0202401N001019999999N9999999N1-00281-00351102671ADDMA1999999098201MD1210101+9999OA149900261REMSYN076AAXX  16004 06771 33/// /2402 11028 21035 39820 40267 52010 333 91105 91203;
0128067710999992010011601004+45850+008933FM-12+035699999V0202201N000519999999N9999999N1-00301-00381102671ADDMA1999999098201MD1210051+9999OA149900151REMSYN076AAXX  16014 06771 33/// /2201 11030 21038 39820 40267 52005 333 91103 91202;
0128067710999992010011602004+45850+008933FM-12+035699999V0202401N000519999999N9999999N1-00361-00431102701ADDMA1999999098221MD1210021+9999OA149900151REMSYN076AAXX  16024 06771 33/// /2401 11036 21043 39822 40270 52002 333 91103 91202;
0128067710999992010011603004+45850+008933FM-12+035699999V0209999C000019999999N9999999N1-00351-00431102721ADDMA1999999098241MD1219999+9999OA149900151REMSYN076AAXX  16034 06771 33/// /0000 11035 21043 39824 40272 52/// 333 91103 91202;
0128067710999992010011604004+45850+008933FM-12+035699999V0202201N000519999999N9999999N1-00401-00491102711ADDMA1999999098221MD1010021+9999OA149900151REMSYN076AAXX  16044 06771 33/// /2201 11040 21049 39822 40271 50002 333 91103 91202;
0147067710999992010011605004+45850+008933FM-12+035699999V0202301N000519999999N9999999N1-00431-00491102721ADDMA1999999098221MD1710021+9999OA149900151REMSYN076AAXX  16054 06771 33/// /2301 11043 21049 39822 40272 57000 333 91103 91202;EQDQ01+000002APC3  
0225067710999992010011606004+45850+008933FM-12+035699999V0202501N000519999999N9999999N1-00401-00491102761ADDAA124000091AL19900091GJ104209IA2999-00609KA1999N-00481MA1999999098271MD1210031+9999OA149900151REMSYN100AAXX  16064 06771 33/// /2501 11040 21049 39827 40276 52003 333 21048 3/106 55070 70000 91103 91202;EQDQ01  00002PRCP24
0128067710999992010011607004+45850+008933FM-12+035699999V0201801N000519999999N9999999N1-00371-00441102821ADDMA1999999098331MD1210111+9999OA149900151REMSYN076AAXX  16074 06771 33/// /1801 11037 21044 39833 40282 52011 333 91103 91202;
0128067710999992010011608004+45850+008933FM-12+035699999V0202401N000519999999N9999999N1-00141-00221102781ADDMA1999999098331MD1210111+9999OA149900151REMSYN076AAXX  16084 06771 33/// /2401 11014 21022 39833 40278 52011 333 91103 91202;
0128067710999992010011609004+45850+008933FM-12+035699999V0209999C000019999999N9999999N1-00041-00121102791ADDMA1999999098351MD1210081+9999OA149900151REMSYN076AAXX  16094 06771 33/// /0000 11004 21012 39835 40279 52008 333 91103 91202;
0128067710999992010011610004+45850+008933FM-12+035699999V0209999C000019999999N9999999N1+00041-00071102791ADDMA1999999098371MD1210041+9999OA149900101REMSYN076AAXX  16104 06771 33/// /0000 10004 21007 39837 40279 52004 333 91102 91201;
0128067710999992010011611004+45850+008933FM-12+035699999V0202201N000519999999N9999999N1+00071-00011102751ADDMA1999999098331MD1010001+9999OA149900051REMSYN076AAXX  16114 06771 33/// /2201 10007 21001 39833 40275 50000 333 91101 91201;
0128067710999992010011612004+45850+008933FM-12+035699999V0202501N001019999999N9999999N1+00131+00051102671ADDMA1999999098271MD1810081+9999OA149900151REMSYN076AAXX  16124 06771 33/// /2502 10013 20005 39827 40267 58008 333 91103 91202;
0128067710999992010011613004+45850+008933FM-12+035699999V0202501N000519999999N9999999N1+00201+00101102631ADDMA1999999098241MD1710131+9999OA149900101REMSYN076AAXX  16134 06771 33/// /2501 10020 20010 39824 40263 57013 333 91102 91202;
0128067710999992010011614004+45850+008933FM-12+035699999V0202101N001019999999N9999999N1+00241+00121102601ADDMA1999999098221MD1719999+9999OA149900151REMSYN076AAXX  16144 06771 33/// /2102 10024 20012 39822 40260 57/// 333 91103 91202;
0128067710999992010011615004+45850+008933FM-12+035699999V0202101N000519999999N9999999N1+00231+00121102571ADDMA1999999098191MD1710081+9999OA149900151REMSYN076AAXX  16154 06771 33/// /2101 10023 20012 39819 40257 57008 333 91103 91202;
0128067710999992010011616004+45850+008933FM-12+035699999V0202001N000519999999N9999999N1+00151+00101102561ADDMA1999999098171MD1710071+9999OA149900151REMSYN076AAXX  16164 06771 33/// /2001 10015 20010 39817 40256 57007 333 91103 91202;
0128067710999992010011617004+45850+008933FM-12+035699999V0202101N000519999999N9999999N1+00151+00081102531ADDMA1999999098141MD1710081+9999OA149900101REMSYN076AAXX  16174 06771 33/// /2101 10015 20008 39814 40253 57008 333 91102 91201;
0166067710999992010011618004+45850+008933FM-12+035699999V0202101N000519999999N9999999N1+00141+00081102591ADDKA1120M+00251MA1999999098191MD1310021+9999OA149900151REMSYN082AAXX  16184 06771 33/// /2101 10014 20008 39819 40259 53000 333 10025 91103 91202;EQDQ01+000002APC3  
0128067710999992010011619004+45850+008933FM-12+035699999V0202301N001019999999N9999999N1+00161+00071102611ADDMA1999999098211MD1310041+9999OA149900151REMSYN076AAXX  16194 06771 33/// /2302 10016 20007 39821 40261 53004 333 91103 91202;
0128067710999992010011620004+45850+008933FM-12+035699999V0202101N000519999999N9999999N1+00141+00071102621ADDMA1999999098221MD1210081+9999OA149900151REMSYN076AAXX  16204 06771 33/// /2101 10014 20007 39822 40262 52008 333 91103 91202;
0128067710999992010011621004+45850+008933FM-12+035699999V0202501N001019999999N9999999N1+00141+00061102601ADDMA1999999098201MD1210011+9999OA149900151REMSYN076AAXX  16214 06771 33/// /2502 10014 20006 39820 40260 52001 333 91103 91202;
0128067710999992010011622004+45850+008933FM-12+035699999V0202601N000519999999N9999999N1+00151+00091102531ADDMA1999999098141MD1810071+9999OA149900151REMSYN076AAXX  16224 06771 33/// /2601 10015 20009 39814 40253 58007 333 91103 91202;
0128067710999992010011623004+45850+008933FM-12+035699999V0209999C000019999999N9999999N1+00091+00051102521ADDMA1999999098121MD1710101+9999OA149900151REMSYN076AAXX  16234 06771 33/// /0000 10009 20005 39812 40252 57010 333 91103 91201;
0128067710999992010011700004+45850+008933FM-12+035699999V0201301N000519999999N9999999N1+00111+00051102461ADDMA1999999098061MD1710141+9999OA149900151REMSYN076AAXX  17004 06771 33/// /1301 10011 20005 39806 40246 57014 333 91103 91202;
0128067710999992010011701004+45850+008933FM-12+035699999V0202301N000519999999N9999999N1+00121+00041102481ADDMA1999999098081MD1510061+9999OA149900151REMSYN076AAXX  17014 06771 33/// /2301 10012 20004 39808 40248 55006 333 91103 91202;
0128067710999992010011702004+45850+008933FM-12+035699999V0201401N000519999999N9999999N1+00091+00041102451ADDMA1999999098051MD1719999+9999OA149900151REMSYN076AAXX  17024 06771 33/// /1401 10009 20004 39805 40245 57/// 333 91103 91201;
0087067710999992010011703004+45850+008933FM-12+035699999V0202101N000519999999N9999999N1+00091+00021102381ADDMA1999999097981REMSYN060AAXX  17034 06771 43/// /2101 10009 20002 39798 40238 5////;
0128067710999992010011704004+45850+008933FM-12+035699999V0202501N000519999999N9999999N1+00061-00011102351ADDMA1999999097951MD1710131+9999OA149900101REMSYN076AAXX  17044 06771 33/// /2501 10006 21001 39795 40235 57013 333 91102 91202;
0128067710999992010011705004+45850+008933FM-12+035699999V0209999C000019999999N9999999N1+00061+00001102311ADDMA1999999097911MD1719999+9999OA149900101REMSYN076AAXX  17054 06771 33/// /0000 10006 20000 39791 40231 57/// 333 91102 91201;
0225067710999992010011706004+45850+008933FM-12+035699999V0202201N000519999999N9999999N1+00041+00001102271ADDAA124000091AL19900091GJ100009IA2999+00009KA1999N+00031MA1999999097871MD1710111+9999OA149900151REMSYN100AAXX  17064 06771 33/// /2201 10004 20000 39787 40227 57011 333 20003 3/100 55000 70000 91103 91202;EQDQ01  00002PRCP24
0128067710999992010011707004+45850+008933FM-12+035699999V0202101N000519999999N9999999N1+00051-00021102281ADDMA1999999097881MD1710071+9999OA149900151REMSYN076AAXX  17074 06771 33/// /2101 10005 21002 39788 40228 57007 333 91103 91202;
0128067710999992010011708004+45850+008933FM-12+035699999V0202201N000519999999N9999999N1+00101+00011102281ADDMA1999999097891MD1519999+9999OA149900151REMSYN076AAXX  17084 06771 33/// /2201 10010 20001 39789 40228 55/// 333 91103 91202;
0128067710999992010011709004+45850+008933FM-12+035699999V0201901N000519999999N9999999N1+00151-00011102301ADDMA1999999097921MD1210051+9999OA149900151REMSYN076AAXX  17094 06771 33/// /1901 10015 21001 39792 40230 52005 333 91103 91202;
0128067710999992010011710004+45850+008933FM-12+035699999V0202301N000519999999N9999999N1+00161+00031102331ADDMA1999999097951MD1210071+9999OA149900151REMSYN076AAXX  17104 06771 33/// /2301 10016 20003 39795 40233 52007 333 91103 91202;
0128067710999992010011711004+45850+008933FM-12+035699999V0202301N001019999999N9999999N1+00211-00011102301ADDMA1999999097931MD1010041+9999OA149900151REMSYN076AAXX  17114 06771 33/// /2302 10021 21001 39793 40230 50004 333 91103 91202;
0128067710999992010011712004+45850+008933FM-12+035699999V0202301N001019999999N9999999N1+00281+00031102241ADDMA1999999097881MD1810041+9999OA149900211REMSYN076AAXX  17124 06771 33/// /2302 10028 20003 39788 40224 58004 333 91104 91202;
0128067710999992010011713004+45850+008933FM-12+035699999V0202401N001019999999N9999999N1+00331-00071102141ADDMA1999999097791MD1710161+9999OA149900211REMSYN076AAXX  17134 06771 33/// /2402 10033 21007 39779 40214 57016 333 91104 91202;
0128067710999992010011714004+45850+008933FM-12+035699999V0202301N001019999999N9999999N1+00351-00091102121ADDMA1999999097781MD1719999+9999OA149900261REMSYN076AAXX  17144 06771 33/// /2302 10035 21009 39778 40212 57/// 333 91105 91203;
0128067710999992010011715004+45850+008933FM-12+035699999V0202501N002119999999N9999999N1+00341-00021102161ADDMA1999999097811MD1510071+9999OA149900261REMSYN076AAXX  17154 06771 33/// /2504 10034 21002 39781 40216 55007 333 91105 91204;
0128067710999992010011716004+45850+008933FM-12+035699999V0202301N001519999999N9999999N1+00261-00061102201ADDMA1999999097841MD1210051+9999OA149900311REMSYN076AAXX  17164 06771 33/// /2303 10026 21006 39784 40220 52005 333 91106 91204;
0128067710999992010011717004+45850+008933FM-12+035699999V0209999C000019999999N9999999N1+00141-00071102281ADDMA1999999097901MD1310121+9999OA149900311REMSYN076AAXX  17174 06771 33/// /0000 10014 21007 39790 40228 53012 333 91106 91204;
0147067710999992010011718004+45850+008933FM-12+035699999V0202301N001519999999N9999999N1-00061-00171102331ADDKA1120M+00351MA1999999097911MD1210101+9999OA149900311REMSYN082AAXX  17184 06771 33/// /2303 11006 21017 39791 40233 52010 333 10035 91106 91204;
0128067710999992010011719004+45850+008933FM-12+035699999V0202401N001019999999N9999999N1-00121-00221102391ADDMA1999999097961MD1210121+9999OA149900151REMSYN076AAXX  17194 06771 33/// /2402 11012 21022 39796 40239 52012 333 91103 91203;
0128067710999992010011720004+45850+008933FM-12+035699999V0202201N000519999999N9999999N1-00191-00261102391ADDMA1999999097951MD1210051+9999OA149900151REMSYN076AAXX  17204 06771 33/// /2201 11019 21026 39795 40239 52005 333 91103 91202;
0128067710999992010011721004+45850+008933FM-12+035699999V0202201N001019999999N9999999N1-00191-00271102401ADDMA1999999097961MD1210051+9999OA149900311REMSYN076AAXX  17214 06771 33/// /2202 11019 21027 39796 40240 52005 333 91106 91204;
0128067710999992010011722004+45850+008933FM-12+035699999V0202101N000519999999N9999999N1-00271-00341102431ADDMA1999999097971MD1210011+9999OA149900211REMSYN076AAXX  17224 06771 33/// /2101 11027 21034 39797 40243 52001 333 91104 91203;
0128067710999992010011723004+45850+008933FM-12+035699999V0202401N000519999999N9999999N1-00301-00381102451ADDMA1999999097991MD1210041+9999OA149900151REMSYN076AAXX  17234 06771 33/// /2401 11030 21038 39799 40245 52004 333 91103 91202;
0128067710999992010011800004+45850+008933FM-12+035699999V0202601N000519999999N9999999N1-00331-00411102451ADDMA1999999097981MD1010021+9999OA149900311REMSYN076AAXX  18004 06771 33/// /2601 11033 21041 39798 40245 50002 333 91106 91204;
0128067710999992010011801004+45850+008933FM-12+035699999V0202301N000519999999N9999999N1-00401-00481102461ADDMA1999999097981MD1010011+9999OA149900151REMSYN076AAXX  18014 06771 33/// /2301 11040 21048 39798 40246 50001 333 91103 91202;
0087067710999992010011802004+45850+008933FM-12+035699999V0202401N000519999999N9999999N1-00431-00501102491ADDMA1999999098001REMSYN060AAXX  18024 06771 33/// /2401 11043 21050 39800 40249 5////;
0087067710999992010011803004+45850+008933FM-12+035699999V0202401N001019999999N9999999N1-00431-00541102471ADDMA1999999097981REMSYN060AAXX  18034 06771 33/// /2402 11043 21054 39798 40247 5////;
0128067710999992010011804004+45850+008933FM-12+035699999V0209999C000019999999N9999999N1-00501-00611102491ADDMA1999999097991MD1010011+9999OA149900151REMSYN076AAXX  18044 06771 33/// /0000 11050 21061 39799 40249 50001 333 91103 91202;
0128067710999992010011805004+45850+008933FM-12+035699999V0202601N000519999999N9999999N1-00491-00581102491ADDMA1999999097991MD1510011+9999OA149900151REMSYN076AAXX  18054 06771 33/// /2601 11049 21058 39799 40249 55001 333 91103 91202;
0225067710999992010011806004+45850+008933FM-12+035699999V0202101N000519999999N9999999N1-00531-00641102561ADDAA124000091AL19900091GJ100009IA2999-00709KA1999N-00581MA1999999098051MD1210071+9999OA149900211REMSYN100AAXX  18064 06771 33/// /2101 11053 21064 39805 40256 52007 333 21058 3/107 55000 70000 91104 91203;EQDQ01  00002PRCP24
0128067710999992010011807004+45850+008933FM-12+035699999V0202601N001019999999N9999999N1-00431-00551102611ADDMA1999999098121MD1310131+9999OA149900151REMSYN076AAXX  18074 06771 33/// /2602 11043 21055 39812 40261 53013 333 91103 91202;
0128067710999992010011808004+45850+008933FM-12+035699999V0202201N000519999999N9999999N1-00341-00461102681ADDMA1999999098201MD1319999+9999OA149900151REMSYN076AAXX  18084 06771 33/// /2201 11034 21046 39820 40268 53/// 333 91103 91202;
0128067710999992010011809004+45850+008933FM-12+035699999V0209999C000019999999N9999999N1-00181-00281102691ADDMA1999999098241MD1110191+9999OA149900151REMSYN076AAXX  18094 06771 33/// /0000 11018 21028 39824 40269 51019 333 91103 91202;
0128067710999992010011810004+45850+008933FM-12+035699999V0201001N000519999999N9999999N1+00151-00051102641ADDMA1999999098241MD1210121+9999OA149900151REMSYN076AAXX  18104 06771 33/// /1001 10015 21005 39824 40264 52012 333 91103 91201;
0163067710999992010011811004+45850+008933FM-12+035699999V0201301N000519999999N9999999N1+00351+00031102561ADDMA1999999098201MD1710121+9999OA149900151REMSYN076AAXX  18114 06771 33/// /1301 10035 20003 39820 40256 58000 333 91103 91201;EQDQ01+000082APCTENQ02+000002APC3  
0128067710999992010011812004+45850+008933FM-12+035699999V0201801N000519999999N9999999N1+00571+00071102471ADDMA1999999098151MD1710091+9999OA149900151REMSYN076AAXX  18124 06771 33/// /1801 10057 20007 39815 40247 57009 333 91103 91202;
0128067710999992010011813004+45850+008933FM-12+035699999V0201901N000519999999N9999999N1+00721-00141102391ADDMA1999999098091MD1610151+9999OA149900151REMSYN076AAXX  18134 06771 33/// /1901 10072 21014 39809 40239 56015 333 91103 91201;
