0235067860999992011010100004+46867+009533FM-12+055699999V0202001N000512200019N0020001N1-00361-00481102621ADDAY111061AY211061GA1031+018001031GF199999999999017501999999MA1999999095681MD1810121+9999MW1101OA149900771REMSYN100AAXX  01004 06786 31720 22001 11036 21048 39568 40262 58012 71011 333 55300 20000 83356 91115 91210;EQDQ01+000022SCOTCV
0140067860999992011010101004+46867+009533FM-12+055699999V0209999C000019999999N9999999N1-00401-00521102561ADDMA1999999095621MD1810161+9999OA149900211REMSYN088AAXX  01014 06786 33/// /0000 11040 21052 39562 40256 58016 333 55300 20000 91104 91202;
0140067860999992011010102004+46867+009533FM-12+055699999V0202201N000519999999N9999999N1-00471-00601102561ADDMA1999999095601MD1610141+9999OA149900151REMSYN088AAXX  01024 06786 33/// /2201 11047 21060 39560 40256 56014 333 55300 20000 91103 91202;
0216067860999992011010103004+46867+009533FM-12+055699999V0201401N000512200019N0100001N1-00401-00561102511ADDAY101031AY201031GA1011+018001031GF101991999999017501999999MA1999999095571MD1610111+9999MW1101OA149900261REMSYN100AAXX  01034 06786 31760 11401 11040 21056 39557 40251 56011 71000 333 55300 20000 81356 91105 91203;
0140067860999992011010104004+46867+009533FM-12+055699999V0209999C000019999999N9999999N1-00451-00601102491ADDMA1999999095541MD1710081+9999OA149900151REMSYN088AAXX  01044 06786 33/// /0000 11045 21060 39554 40249 57008 333 55300 20000 91103 91202;
0140067860999992011010105004+46867+009533FM-12+055699999V0202301N000519999999N9999999N1-00531-00691102501ADDMA1999999095531MD1710071+9999OA149900151REMSYN088AAXX  01054 06786 33/// /2301 11053 21069 39553 40250 57007 333 55300 20000 91103 91202;
0318067860999992011010106004+46867+009533FM-12+055699999V0200101N001512200019N0100001N1-00501-00651102561ADDAJ100029199999999AL19900091AY101061AY201061GA1001+999999999GF100991001001999999001001GJ103309IA1279IA2999-00809KA1999N-00591MA1999999095591MD1310021+9999MW1101OA149900311REMSYN136AAXX  01064 06786 31/60 00103 11050 21065 39559 40256 53002 71000 333 21059 3/108 43002 55055 55300 20000 70000 90768 93100 91106 91204;
0140067860999992011010107004+46867+009533FM-12+055699999V0200101N000519999999N9999999N1-00581-00721102621ADDMA1999999095631MD1310091+9999OA149900261REMSYN088AAXX  01074 06786 33/// /0101 11058 21072 39563 40262 53009 333 55300 20000 91105 91204;
0140067860999992011010108004+46867+009533FM-12+055699999V0209999C000019999999N9999999N1-00651-00781102671ADDMA1999999095661MD1119999+9999OA149900261REMSYN088AAXX  01084 06786 33/// /0000 11065 21078 39566 40267 51/// 333 55300 20029 91105 91204;
0157067860999992011010109004+46867+009533FM-12+055699999V0209999C000012200019N0150001N1-00501-00671102631ADDAY101031AY201031GA1001+999999999GF100991001001999999001001MA1999999095661MW1101REMSYN066AAXX  01094 06786 41/65 00000 11050 21067 39566 40263 5//// 71000;
0087067860999992011010110004+46867+009533FM-12+055699999V0201601N000519999999N9999999N1-00311-00581102541ADDMA1999999095621REMSYN060AAXX  01104 06786 43/// /1601 11031 21058 39562 40254 5////;
0140067860999992011010111004+46867+009533FM-12+055699999V0202301N001019999999N9999999N1-00081-00501102381ADDMA1999999095531MD1710131+9999OA149900151REMSYN088AAXX  01114 06786 33/// /2302 11008 21050 39553 40238 57013 333 553// 2//// 91103 91202;
0129067860999992011010112004+46867+009533FM-12+055699999V0200301N002612200019N0250001N1-00021-00501102291ADDGA1001+999999999GF100991001001999999001001MA1999999095461REMSYN060AAXX  01124 06786 42/75 00305 11002 21050 39546 40229 5////;
0087067860999992011010113004+46867+009533FM-12+055699999V0200201N002619999999N9999999N1+00071-00461102171ADDMA1999999095371REMSYN060AAXX  01134 06786 43/// /0205 10007 21046 39537 40217 5////;
0087067860999992011010114004+46867+009533FM-12+055699999V0200201N002119999999N9999999N1+00091-00491102131ADDMA1999999095341REMSYN060AAXX  01144 06786 43/// /0204 10009 21049 39534 40213 5////;
0129067860999992011010115004+46867+009533FM-12+055699999V0200201N001512200019N0250001N1+00081-00391102171ADDGA1001+999999999GF100991001001999999001001MA1999999095371REMSYN060AAXX  01154 06786 42/75 00203 10008 21039 39537 40217 5////;
0087067860999992011010116004+46867+009533FM-12+055699999V0200201N001019999999N9999999N1-00081-00401102221ADDMA1999999095381REMSYN060AAXX  01164 06786 43/// /0202 11008 21040 39538 40222 5////;
0087067860999992011010117004+46867+009533FM-12+055699999V0203601N000519999999N9999999N1-00161-00411102271ADDMA1999999095411REMSYN060AAXX  01174 06786 43/// /3601 11016 21041 39541 40227 5////;
0190067860999992011010118004+46867+009533FM-12+055699999V0203601N000512200019N0200001N1-00251-00431102311ADDAJ100029199999999AL10600091GA1011+004201061GF101991999999004501999999IA1279MA1999999095421REMSYN088AAXX  01184 06786 42470 13601 11025 21043 39542 40231 5//// 333 43002 81614 90766 93100;
0103067860999992011010119004+46867+009533FM-12+055699999V0209999C000019999999N9999999N1-00321-00451102361ADDMA1999999095451REMSYN076AAXX  01194 06786 33/// /0000 11032 21045 39545 40236 5//// 333 553// 20000;
0140067860999992011010120004+46867+009533FM-12+055699999V0202601N000519999999N9999999N1-00201-00401102351ADDMA1999999095471MD1210061+9999OA149900151REMSYN088AAXX  01204 06786 33/// /2601 11020 21040 39547 40235 52006 333 55300 20000 91103 91201;
0216067860999992011010121004+46867+009533FM-12+055699999V0201801N00101001201CN0030001N1-00131-00381102341ADDAY111031AY211031GA1081+001201071GF108991999999001501999999MA1999999095481MD1210061+9999MW1101OA149900311REMSYN100AAXX  01214 06786 31230 81802 11013 21038 39548 40234 52006 71011 333 55300 20000 88704 91106 91204;
0140067860999992011010122004+46867+009533FM-12+055699999V0202301N000519999999N9999999N1-00141-00371102321ADDMA1999999095461MD1010011+9999OA149900311REMSYN088AAXX  01224 06786 33/// /2301 11014 21037 39546 40232 50001 333 55300 20000 91106 91204;
0140067860999992011010123004+46867+009533FM-12+055699999V0201901N003619999999N9999999N1-00111-00401102231ADDMA1999999095381MD1710091+9999OA149900571REMSYN088AAXX  01234 06786 33/// /1907 11011 21040 39538 40223 57009 333 55300 20000 91111 91207;
0216067860999992011010200004+46867+009533FM-12+055699999V0201801N001512200019N0030001N1-00201-00521102201ADDAY121061AY221061GA1041+001201071GF104991999999001501999999MA1999999095331MD1810151+9999MW1101OA149900571REMSYN100AAXX  02004 06786 31230 41803 11020 21052 39533 40220 58015 71022 333 55300 20000 84704 91111 91207;
0140067860999992011010201004+46867+009533FM-12+055699999V0200501N001019999999N9999999N1-00291-00521102211ADDMA1999999095321MD1710141+9999OA149900511REMSYN088AAXX  02014 06786 33/// /0502 11029 21052 39532 40221 57014 333 55300 20000 91110 91205;
0087067860999992011010202004+46867+009533FM-12+055699999V0202101N000519999999N9999999N1-00291-00571102211ADDMA1999999095321REMSYN060AAXX  02024 06786 43/// /2101 11029 21057 39532 40221 5////;
0167067860999992011010203004+46867+009533FM-12+055699999V0202501N000510012019N0040001N1-00291-00541102211ADDAY111031AY211031GA1081+001201071GF108991999999001501999999MA1999999095321MW1101REMSYN076AAXX  02034 06786 41240 82501 11029 21054 39532 40221 5//// 71011 333 88704;
0087067860999992011010204004+46867+009533FM-12+055699999V0202501N000519999999N9999999N1-00261-00481102221ADDMA1999999095341REMSYN060AAXX  02044 06786 43/// /2501 11026 21048 39534 40222 5////;
0087067860999992011010205004+46867+009533FM-12+055699999V0209999C000019999999N9999999N1-00221-00481102221ADDMA1999999095351REMSYN060AAXX  02054 06786 43/// /0000 11022 21048 39535 40222 5////;
0269067860999992011010206004+46867+009533FM-12+055699999V0202001N001510012019N0080001N1-00231-00481102251ADDAJ100029199999999AL10600091AY111061AY211061GA1081+001201071GF108991999999001501999999GJ103549IA1279IA2999-00609KA1999N-00341MA1999999095371MW1101REMSYN112AAXX  02064 06786 41258 82003 11023 21048 39537 40225 5//// 71011 333 21034 3/106 43002 55059 88704 90768 93100;
0140067860999992011010207004+46867+009533FM-12+055699999V0201801N001519999999N9999999N1-00241-00551102281ADDMA1999999095401MD1210061+9999OA149900361REMSYN088AAXX  02074 06786 33/// /1803 11024 21055 39540 40228 52006 333 55300 20000 91107 91205;
0140067860999992011010208004+46867+009533FM-12+055699999V0201801N002119999999N9999999N1-00221-00541102321ADDMA1999999095441MD1310091+9999OA149900411REMSYN088AAXX  02084 06786 33/// /1804 11022 21054 39544 40232 53009 333 55300 20007 91108 91205;
0216067860999992011010209004+46867+009533FM-12+055699999V0201901N00151000601CN0080001N1-00211-00531102371ADDAY121031AY221031GA1081+000601071GF108991999999000751999999MA1999999095491MD1310121+9999MW1101OA149900411REMSYN100AAXX  02094 06786 31158 81903 11021 21053 39549 40237 53012 71022 333 55300 20065 88702 91108 91205;
0140067860999992011010210004+46867+009533FM-12+055699999V0202001N001019999999N9999999N1-00181-00561102391ADDMA1999999095511MD1210111+9999OA149900311REMSYN088AAXX  02104 06786 33/// /2002 11018 21056 39551 40239 52011 333 55300 20166 91106 91203;
0140067860999992011010211004+46867+009533FM-12+055699999V0201901N001519999999N9999999N1-00151-00581102331ADDMA1999999095471MD1010031+9999OA149900411REMSYN088AAXX  02114 06786 33/// /1903 11015 21058 39547 40233 50003 333 55300 20245 91108 91203;
0216067860999992011010212004+46867+009533FM-12+055699999V0201801N00101004201CN0100001N1-00111-00571102261ADDAY121061AY221061GA1081+004201071GF108991999999004501999999MA1999999095411MD1710081+9999MW1101OA149900411REMSYN100AAXX  02124 06786 31460 81802 11011 21057 39541 40226 57008 71022 333 55300 20259 88714 91108 91205;
0140067860999992011010213004+46867+009533FM-12+055699999V0203301N001019999999N9999999N1-00101-00491102261ADDMA1999999095411MD1710101+9999OA149900211REMSYN088AAXX  02134 06786 33/// /3302 11010 21049 39541 40226 57010 333 55300 20223 91104 91202;
0103067860999992011010214004+46867+009533FM-12+055699999V0200101N001519999999N9999999N1-00111-00361102271ADDMA1999999095421REMSYN076AAXX  02144 06786 33/// /0103 11011 21036 39542 40227 5//// 333 553// 20126;
0216067860999992011010215004+46867+009533FM-12+055699999V0209999C00001002101CN0080001N1-00051-00281102301ADDAY131031AY231031GA1081+002101071GF108991999999002501999999MA1999999095461MD1210051+9999MW1711OA149900411REMSYN100AAXX  02154 06786 31358 80000 11005 21028 39546 40230 52005 77133 333 55300 20090 88707 91108 91205;
0140067860999992011010216004+46867+009533FM-12+055699999V0200201N003619999999N9999999N1-00011-00311102321ADDMA1999999095491MD1210081+9999OA149900721REMSYN088AAXX  02164 06786 33/// /0207 11001 21031 39549 40232 52008 333 55300 20018 91114 91208;
0140067860999992011010217004+46867+009533FM-12+055699999V0209999C002119999999N9999999N1-00031-00461102371ADDMA1999999095531MD1210111+9999OA149900721REMSYN088AAXX  02174 06786 33/// /0004 11003 21046 39553 40237 52011 333 55300 20000 91114 91208;
0286067860999992011010218004+46867+009533FM-12+055699999V0203601N00311004201CN0100001N1-00031-00551102401ADDAJ100029199999999AL19900091AY121061AY221061GA1051+004201061GF105991999999004501999999IA1279KA1120M-00011MA1999999095561MD1210101+9999MW1101OA149900721REMSYN124AAXX  02184 06786 31460 53606 11003 21055 39556 40240 52010 71022 333 11001 43002 55300 20000 85614 90766 93100 91114 91208;
0140067860999992011010219004+46867+009533FM-12+055699999V0200201N002119999999N9999999N1-00081-00521102441ADDMA1999999095591MD1210101+9999OA149900671REMSYN088AAXX  02194 06786 33/// /0204 11008 21052 39559 40244 52010 333 55300 20000 91113 91207;
0140067860999992011010220004+46867+009533FM-12+055699999V0200301N000519999999N9999999N1-00141-00561102501ADDMA1999999095631MD1210101+9999OA149900621REMSYN088AAXX  02204 06786 33/// /0301 11014 21056 39563 40250 52010 333 55300 20000 91112 91205;
0216067860999992011010221004+46867+009533FM-12+055699999V0202601N00051002701CN0100001N1-00201-00501102551ADDAY121031AY221031GA1051+002701061GF105991999999002501999999MA1999999095661MD1110101+9999MW1101OA149900721REMSYN100AAXX  02214 06786 31360 52601 11020 21050 39566 40255 51010 71022 333 55300 20000 85609 91114 91208;
0140067860999992011010222004+46867+009533FM-12+055699999V0203501N000519999999N9999999N1-00221-00451102591ADDMA1999999095691MD1210101+9999OA149900101REMSYN088AAXX  02224 06786 33/// /3501 11022 21045 39569 40259 52010 333 55300 20000 91102 91201;
0140067860999992011010223004+46867+009533FM-12+055699999V0200301N000519999999N9999999N1-00181-00441102571ADDMA1999999095681MD1210051+9999OA149900101REMSYN088AAXX  02234 06786 33/// /0301 11018 21044 39568 40257 52005 333 55300 20000 91102 91201;
0216067860999992011010300004+46867+009533FM-12+055699999V0200401N00151002101CN0050001N1-00131-00441102551ADDAY121061AY221061GA1071+002101061GF107991999999002501999999MA1999999095681MD1010021+9999MW1101OA149900721REMSYN100AAXX  03004 06786 31350 70403 11013 21044 39568 40255 50002 71022 333 55300 20000 87607 91114 91208;
0140067860999992011010301004+46867+009533FM-12+055699999V0200701N001019999999N9999999N1-00131-00441102551ADDMA1999999095681MD1710011+9999OA149900311REMSYN088AAXX  03014 06786 33/// /0702 11013 21044 39568 40255 57001 333 55300 20000 91106 91204;
0140067860999992011010302004+46867+009533FM-12+055699999V0200201N000519999999N9999999N1-00171-00411102591ADDMA1999999095701MD1219999+9999OA149900311REMSYN088AAXX  03024 06786 33/// /0201 11017 21041 39570 40259 52/// 333 55300 20000 91106 91204;
0167067860999992011010303004+46867+009533FM-12+055699999V0200501N000510021019N0040001N1-00181-00421102581ADDAY121031AY221031GA1071+002101061GF107991999999002501999999MA1999999095691MW1101REMSYN076AAXX  03034 06786 41340 70501 11018 21042 39569 40258 5//// 71022 333 87607;
0140067860999992011010304004+46867+009533FM-12+055699999V0200201N000519999999N9999999N1-00231-00431102581ADDMA1999999095681MD1010001+9999OA149900101REMSYN088AAXX  03044 06786 33/// /0201 11023 21043 39568 40258 50000 333 55300 20000 91102 91202;
0159067860999992011010305004+46867+009533FM-12+055699999V0209999C000019999999N9999999N1-00251-00461102611ADDMA1999999095701MD1210021+9999OA149900101REMSYN088AAXX  03054 06786 33/// /0000 11025 21046 39570 40261 52000 333 55300 20000 91102 91202;EQDQ01+000002APC3  
0296067860999992011010306004+46867+009533FM-12+055699999V0202301N00151018001CN0170001N1-00251-00881102621ADDAJ100029199999999AL19900091GA1071+018001061GF107991999999017501999999GJ100009IA1279IA2999-00509KA1999N-00291MA1999999095711MD1210021+9999OA149900621REMSYN136AAXX  03064 06786 32767 72303 11025 21088 39571 40262 52002 333 21029 3/105 43002 55000 55300 20000 70000 87656 90768 93100 91112 91205;
0140067860999992011010307004+46867+009533FM-12+055699999V0201501N001519999999N9999999N1-00321-01141102651ADDMA1999999095721MD1310041+9999OA149900571REMSYN088AAXX  03074 06786 33/// /1503 11032 21114 39572 40265 53004 333 55300 20000 91111 91204;
0140067860999992011010308004+46867+009533FM-12+055699999V0201701N002619999999N9999999N1-00341-01201102701ADDMA1999999095761MD1319999+9999OA149900721REMSYN088AAXX  03084 06786 33/// /1705 11034 21120 39576 40270 53/// 333 55300 20079 91114 91205;
0135067860999992011010309004+46867+009533FM-12+055699999V0201801N003112200019N0250001N1-00341-01211102691ADDGF103991999999017501999999MA1999999095751REMSYN082AAXX  03094 06786 32775 31806 11034 21121 39575 40269 5//// 333 553// 20234 83656;
0140067860999992011010310004+46867+009533FM-12+055699999V0201701N003619999999N9999999N1-00211-01161102641ADDMA1999999095741MD1010021+9999OA149900771REMSYN088AAXX  03104 06786 33/// /1707 11021 21116 39574 40264 50002 333 55309 20968 91115 91208;
0140067860999992011010311004+46867+009533FM-12+055699999V0201801N002119999999N9999999N1-00031-01051102521ADDMA1999999095671MD1710091+9999OA149900721REMSYN088AAXX  03114 06786 33/// /1804 11003 21105 39567 40252 57009 333 553// 2//// 91114 91208;
0182067860999992011010312004+46867+009533FM-12+055699999V0201601N002612200019N0400001N1+00031-01091102421ADDGA1001+999999999GF100991001001999999001001MA1999999095591MD1710161+9999OA149900771REMSYN088AAXX  03124 06786 32/82 01605 10003 21109 39559 40242 57016 333 553// 2//// 91115 91208;
0140067860999992011010313004+46867+009533FM-12+055699999V0201701N001519999999N9999999N1+00091-01061102341ADDMA1999999095531MD1610211+9999OA149900511REMSYN088AAXX  03134 06786 33/// /1703 10009 21106 39553 40234 56021 333 553// 2//// 91110 91206;
0103067860999992011010314004+46867+009533FM-12+055699999V0201901N001019999999N9999999N1+00111-01051102311ADDMA1999999095511REMSYN076AAXX  03144 06786 33/// /1902 10011 21105 39551 40231 5//// 333 553// 20904;
0145067860999992011010315004+46867+009533FM-12+055699999V0200301N001012200019N0400001N1-00021-00891102351ADDGA1001+999999999GF100991001001999999001001MA1999999095521REMSYN076AAXX  03154 06786 32/82 00302 11002 21089 39552 40235 5//// 333 553// 20497;
0140067860999992011010316004+46867+009533FM-12+055699999V0200501N001019999999N9999999N1-00201-00881102431ADDMA1999999095551MD1310021+9999OA149900461REMSYN088AAXX  03164 06786 33/// /0502 11020 21088 39555 40243 53002 333 55301 20036 91109 91205;
0140067860999992011010317004+46867+009533FM-12+055699999V0202401N000519999999N9999999N1-00311-00871102511ADDMA1999999095591MD1310081+9999OA149900461REMSYN088AAXX  03174 06786 33/// /2401 11031 21087 39559 40251 53008 333 55300 20000 91109 91205;
0252067860999992011010318004+46867+009533FM-12+055699999V0201801N000512200019N0400001N1-00421-00971102561ADDAJ100029199999999AL19900091GA1001+999999999GF100991001001999999001001IA1239KA1120M+00121MA1999999095611MD1110091+9999OA149900771REMSYN112AAXX  03184 06786 32/82 01801 11042 21097 39561 40256 51009 333 10012 47002 55300 20000 90766 93100 91115 91208;
0140067860999992011010319004+46867+009533FM-12+055699999V0202101N001019999999N9999999N1-00481-01021102541ADDMA1999999095581MD1010031+9999OA149900211REMSYN088AAXX  03194 06786 33/// /2102 11048 21102 39558 40254 50003 333 55300 20000 91104 91202;
0140067860999992011010320004+46867+009533FM-12+055699999V0202001N002619999999N9999999N1-00501-01021102531ADDMA1999999095561MD1710031+9999OA149900461REMSYN088AAXX  03204 06786 33/// /2005 11050 21102 39556 40253 57003 333 55300 20000 91109 91205;
0182067860999992011010321004+46867+009533FM-12+055699999V0202201N001512200019N0250001N1-00541-01091102491ADDGA1001+999999999GF100991001001999999001001MA1999999095521MD1810091+9999OA149900461REMSYN088AAXX  03214 06786 32/75 02203 11054 21109 39552 40249 58009 333 55300 20000 91109 91205;
0140067860999992011010322004+46867+009533FM-12+055699999V0201901N002619999999N9999999N1-00491-01191102461ADDMA1999999095501MD1710081+9999OA149900511REMSYN088AAXX  03224 06786 33/// /1905 11049 21119 39550 40246 57008 333 55300 20000 91110 91205;
0140067860999992011010323004+46867+009533FM-12+055699999V0201901N003119999999N9999999N1-00541-01211102441ADDMA1999999095471MD1710091+9999OA149900621REMSYN088AAXX  03234 06786 33/// /1906 11054 21121 39547 40244 57009 333 55300 20000 91112 91206;
0182067860999992011010400004+46867+009533FM-12+055699999V0201901N003612200019N0250001N1-00551-01281102411ADDGA1001+999999999GF100991001001999999001001MA1999999095441MD1710081+9999OA149900671REMSYN088AAXX  04004 06786 32/75 01907 11055 21128 39544 40241 57008 333 55300 20000 91113 91207;
0140067860999992011010401004+46867+009533FM-12+055699999V0203501N000519999999N9999999N1-00681-01201102441ADDMA1999999095431MD1610071+9999OA149900671REMSYN088AAXX  04014 06786 33/// /3501 11068 21120 39543 40244 56007 333 55300 20000 91113 91207;
0140067860999992011010402004+46867+009533FM-12+055699999V0200101N001019999999N9999999N1-00721-01191102441ADDMA1999999095421MD1619999+9999OA149900411REMSYN088AAXX  04024 06786 33/// /0102 11072 21119 39542 40244 56/// 333 55300 20000 91108 91204;
0182067860999992011010403004+46867+009533FM-12+055699999V0200301N001012200019N0250001N1-00711-01191102421ADDGA1001+999999999GF100991001001999999001001MA1999999095411MD1610031+9999OA149900671REMSYN088AAXX  04034 06786 32/75 00302 11071 21119 39541 40242 56003 333 55300 20000 91113 91207;
0140067860999992011010404004+46867+009533FM-12+055699999V0203501N000519999999N9999999N1-00711-01091102431ADDMA1999999095421MD1010011+9999OA149900211REMSYN088AAXX  04044 06786 33/// /3501 11071 21109 39542 40243 50001 333 55300 20000 91104 91202;
0140067860999992011010405004+46867+009533FM-12+055699999V0201801N001019999999N9999999N1-00691-01081102421ADDMA1999999095411MD1510011+9999OA149900211REMSYN088AAXX  04054 06786 33/// /1802 11069 21108 39541 40242 55001 333 55300 20000 91104 91202;
0290067860999992011010406004+46867+009533FM-12+055699999V0201901N002112200019N0300001N1-00671-01151102391ADDAJ100029199999999AL19900091GA1001+999999999GF100991001001999999001001GJ103549IA1239IA2999-01009KA1999N-00741MA1999999095391MD1810021+9999OA149900671REMSYN130AAXX  04064 06786 32/80 01904 11067 21115 39539 40239 58002 333 21074 3/110 47002 55059 55300 20000 70000 90768 93100 91113 91207;
0140067860999992011010407004+46867+009533FM-12+055699999V0201901N003619999999N9999999N1-00661-01201102351ADDMA1999999095361MD1810061+9999OA149900571REMSYN088AAXX  04074 06786 33/// /1907 11066 21120 39536 40235 58006 333 55300 20000 91111 91207;
0140067860999992011010408004+46867+009533FM-12+055699999V0201901N003119999999N9999999N1-00621-01211102371ADDMA1999999095381MD1719999+9999OA149900671REMSYN088AAXX  04084 06786 33/// /1906 11062 21121 39538 40237 57/// 333 55300 20032 91113 91207;
0135067860999992011010409004+46867+009533FM-12+055699999V0201901N002619999999N0250001N1-00531-01201102321ADDGF108991999999999999999999MA1999999095361REMSYN082AAXX  04094 06786 32975 81905 11053 21120 39536 40232 5//// 333 553// 20108 88461;
0140067860999992011010410004+46867+009533FM-12+055699999V0201801N002119999999N9999999N1-00411-01241102241ADDMA1999999095321MD1710041+9999OA149900571REMSYN088AAXX  04104 06786 33/// /1804 11041 21124 39532 40224 57004 333 55300 20468 91111 91206;
0140067860999992011010411004+46867+009533FM-12+055699999V0201801N002119999999N9999999N1-00251-01231102111ADDMA1999999095241MD1810141+9999OA149900571REMSYN088AAXX  04114 06786 33/// /1804 11025 21123 39524 40211 58014 333 55302 20936 91111 91206;
0188067860999992011010412004+46867+009533FM-12+055699999V0201801N00211054001CN0300001N1-00091-01231101961ADDGA1061+054001001GF106991999999999999999999MA1999999095141MD1810221+9999OA149900671REMSYN094AAXX  04124 06786 32980 61804 11009 21123 39514 40196 58022 333 55307 2//// 86068 91113 91207;
0140067860999992011010413004+46867+009533FM-12+055699999V0201801N002119999999N9999999N1+00031-01291101851ADDMA1999999095061MD1610261+9999OA149900511REMSYN088AAXX  04134 06786 33/// /1804 10003 21129 39506 40185 56026 333 553// 2//// 91110 91205;
0103067860999992011010414004+46867+009533FM-12+055699999V0201701N001019999999N9999999N1+00141-01211101791ADDMA1999999095031REMSYN076AAXX  04144 06786 33/// /1702 10014 21121 39503 40179 5//// 333 553// 20983;
0139067860999992011010415004+46867+009533FM-12+055699999V0200201N002610630019N0300001N1-00101-01011101861ADDGA1061+063001001GF106991999999999999999999MA1999999095041REMSYN070AAXX  04154 06786 42980 60205 11010 21101 39504 40186 5//// 333 86071;
0159067860999992011010416004+46867+009533FM-12+055699999V0203601N001519999999N9999999N1-00281-00971101931ADDMA1999999095061MD1310081+9999OA149900571REMSYN088AAXX  04164 06786 33/// /3603 11028 21097 39506 40193 53000 333 55301 20040 91111 91207;EQDQ01+000002APC3  
0140067860999992011010417004+46867+009533FM-12+055699999V0203401N001019999999N9999999N1-00381-00981101991ADDMA1999999095091MD1210061+9999OA149900511REMSYN088AAXX  04174 06786 33/// /3402 11038 21098 39509 40199 52006 333 55300 20000 91110 91207;
0241067860999992011010418004+46867+009533FM-12+055699999V0209999C00001054001CN0200001N1-00441-00921101981ADDAL19900091GA1061+054001031GF106991999999999999999999IA1019KA1120M+00141MA1999999095071MD1010031+9999OA149900671REMSYN118AAXX  04184 06786 32970 60000 11044 21092 39507 40198 50003 333 10014 30/// 55300 20000 86368 90766 93100 91113 91207;
0140067860999992011010419004+46867+009533FM-12+055699999V0209999C000019999999N9999999N1-00521-00891102021ADDMA1999999095081MD1210021+9999OA149900151REMSYN088AAXX  04194 06786 33/// /0000 11052 21089 39508 40202 52002 333 55300 20000 91103 91201;
0140067860999992011010420004+46867+009533FM-12+055699999V0201201N000519999999N9999999N1-00581-00971102051ADDMA1999999095101MD1210011+9999OA149900151REMSYN088AAXX  04204 06786 33/// /1201 11058 21097 39510 40205 52001 333 55300 20000 91103 91201;
0182067860999992011010421004+46867+009533FM-12+055699999V0209999C000012200019N0150001N1-00701-01021102071ADDGA1001+999999999GF100991001001999999001001MA1999999095081MD1010011+9999OA149900511REMSYN088AAXX  04214 06786 32/65 00000 11070 21102 39508 40207 50001 333 55300 20000 91110 91207;
0140067860999992011010422004+46867+009533FM-12+055699999V0201801N002119999999N9999999N1-00551-01101101991ADDMA1999999095051MD1710031+9999OA149900361REMSYN088AAXX  04224 06786 33/// /1804 11055 21110 39505 40199 57003 333 55300 20000 91107 91204;
0140067860999992011010423004+46867+009533FM-12+055699999V0201901N001019999999N9999999N1-00541-01161101991ADDMA1999999095051MD1710051+9999OA149900361REMSYN088AAXX  04234 06786 33/// /1902 11054 21116 39505 40199 57005 333 55300 20000 91107 91204;
0182067860999992011010500004+46867+009533FM-12+055699999V0201901N000512200019N0400001N1-00531-01051101981ADDGA1001+999999999GF100991001001999999001001MA1999999095041MD1710041+9999OA149900571REMSYN088AAXX  05004 06786 32/82 01901 11053 21105 39504 40198 57004 333 55300 20000 91111 91207;
0140067860999992011010501004+46867+009533FM-12+055699999V0201501N001019999999N9999999N1-00571-01171101981ADDMA1999999095031MD1710021+9999OA149900211REMSYN088AAXX  05014 06786 33/// /1502 11057 21117 39503 40198 57002 333 55300 20000 91104 91202;
0140067860999992011010502004+46867+009533FM-12+055699999V0209999C000019999999N9999999N1-00721-01141102041ADDMA1999999095051MD1510001+9999OA149900311REMSYN088AAXX  05024 06786 33/// /0000 11072 21114 39505 40204 55000 333 55300 20000 91106 91204;
0129067860999992011010503004+46867+009533FM-12+055699999V0209999C000012200019N0200001N1-00791-01191102091ADDGA1001+999999999GF100991001001999999001001MA1999999095081REMSYN060AAXX  05034 06786 42/70 00000 11079 21119 39508 40209 5////;
0140067860999992011010504004+46867+009533FM-12+055699999V0202201N001519999999N9999999N1-00841-01191102101ADDMA1999999095081MD1210051+9999OA149900211REMSYN088AAXX  05044 06786 33/// /2203 11084 21119 39508 40210 52005 333 55300 20000 91104 91203;
0140067860999992011010505004+46867+009533FM-12+055699999V0201801N002119999999N9999999N1-00741-01221102071ADDMA1999999095071MD1010021+9999OA149900461REMSYN088AAXX  05054 06786 33/// /1804 11074 21122 39507 40207 50002 333 55300 20000 91109 91205;
0290067860999992011010506004+46867+009533FM-12+055699999V0201601N002112200019N0200001N1-00731-01261102091ADDAJ100029199999999AL19900091GA1001+999999999GF100991001001999999001001GJ102409IA1279IA2999-01109KA1999N-00901MA1999999095101MD1310021+9999OA149900461REMSYN130AAXX  05064 06786 32/70 01604 11073 21126 39510 40209 53002 333 21090 3/111 43002 55040 55300 20000 70000 90768 93100 91109 91205;
0140067860999992011010507004+46867+009533FM-12+055699999V0201901N002119999999N9999999N1-00771-01281102141ADDMA1999999095131MD1210051+9999OA149900411REMSYN088AAXX  05074 06786 33/// /1904 11077 21128 39513 40214 52005 333 55300 20000 91108 91206;
0140067860999992011010508004+46867+009533FM-12+055699999V0201901N001019999999N9999999N1-00731-01271102151ADDMA1999999095151MD1219999+9999OA149900411REMSYN088AAXX  05084 06786 33/// /1902 11073 21127 39515 40215 52/// 333 55300 20032 91108 91206;
0182067860999992011010509004+46867+009533FM-12+055699999V0202001N001512200019N0300001N1-00651-01231102131ADDGA1001+999999999GF100991001001999999001001MA1999999095151MD1210051+9999OA149900461REMSYN088AAXX  05094 06786 32/80 02003 11065 21123 39515 40213 52005 333 55300 20104 91109 91206;
0140067860999992011010510004+46867+009533FM-12+055699999V0201901N002619999999N9999999N1-00331-01211101961ADDMA1999999095081MD1710051+9999OA149900671REMSYN088AAXX  05104 06786 33/// /1905 11033 21121 39508 40196 57005 333 55309 20983 91113 91207;
0140067860999992011010511004+46867+009533FM-12+055699999V0201901N004119999999N9999999N1-00021-01351101761ADDMA1999999094971MD1710181+9999OA149900821REMSYN088AAXX  05114 06786 33/// /1908 11002 21135 39497 40176 57018 333 553// 2//// 91116 91208;
0135067860999992011010512004+46867+009533FM-12+055699999V0201901N003612200019N0300001N1+00151-01281101611ADDGF101991999999999999999999MA1999999094871REMSYN082AAXX  05124 06786 32980 11907 10015 21128 39487 40161 5//// 333 553// 2//// 81080;
0140067860999992011010513004+46867+009533FM-12+055699999V0201901N002619999999N9999999N1+00261-01271101521ADDMA1999999094811MD1610271+9999OA149900881REMSYN088AAXX  05134 06786 33/// /1905 10026 21127 39481 40152 56027 333 553// 2//// 91117 91209;
0087067860999992011010514004+46867+009533FM-12+055699999V0201801N002619999999N9999999N1+00301-01191101481ADDMA1999999094781REMSYN060AAXX  05144 06786 43/// /1805 10030 21119 39478 40148 5////;
0139067860999992011010515004+46867+009533FM-12+055699999V0201801N004112200019N0250001N1+00231-01171101521ADDGA1031+090001001GF103991999999999999999999MA1999999094801REMSYN070AAXX  05154 06786 42975 31808 10023 21117 39480 40152 5//// 333 83080;
0140067860999992011010516004+46867+009533FM-12+055699999V0202001N004119999999N9999999N1+00051-01151101551ADDMA1999999094791MD1710021+9999OA149900771REMSYN088AAXX  05164 06786 33/// /2008 10005 21115 39479 40155 57002 333 55301 20043 91115 91208;
0140067860999992011010517004+46867+009533FM-12+055699999V0202001N003119999999N9999999N1-00081-01061101581ADDMA1999999094781MD1010001+9999OA149900771REMSYN088AAXX  05174 06786 33/// /2006 11008 21106 39478 40158 50000 333 55300 20000 91115 91208;
0258067860999992011010518004+46867+009533FM-12+055699999V0202101N003112200019N0250001N1-00051-01061101581ADDAJ100029199999999AL19900091GA1031+090001001GF103991999999999999999999IA1279KA1120M+00301MA1999999094791MD1719999+9999OA149900881REMSYN118AAXX  05184 06786 32975 32106 11005 21106 39479 40158 57/// 333 10030 43002 55300 20000 83080 90766 93100 91117 91209;
0140067860999992011010519004+46867+009533FM-12+055699999V0202201N002619999999N9999999N1-00091-01071101581ADDMA1999999094781MD1710011+9999OA149900771REMSYN088AAXX  05194 06786 33/// /2205 11009 21107 39478 40158 57001 333 55300 20000 91115 91210;
0140067860999992011010520004+46867+009533FM-12+055699999V0202201N004119999999N9999999N1-00091-01051101571ADDMA1999999094771MD1019999+9999OA149900821REMSYN088AAXX  05204 06786 33/// /2208 11009 21105 39477 40157 50/// 333 55300 20000 91116 91210;
0145067860999992011010521004+46867+009533FM-12+055699999V0202001N004112200019N0200001N1-00091-01081101541ADDGA1001+999999999GF100991001001999999001001MA1999999094741REMSYN076AAXX  05214 06786 32/70 02008 11009 21108 39474 40154 5//// 333 553// 20000;
0140067860999992011010522004+46867+009533FM-12+055699999V0202101N005119999999N9999999N1+00071-01161101491ADDMA1999999094741MD1710041+9999OA149901181REMSYN088AAXX  05224 06786 33/// /2110 10007 21116 39474 40149 57004 333 55300 20000 91123 91212;
0140067860999992011010523004+46867+009533FM-12+055699999V0202101N006219999999N9999999N1+00111-01181101471ADDMA1999999094731MD1719999+9999OA149901241REMSYN088AAXX  05234 06786 33/// /2112 10011 21118 39473 40147 57/// 333 55300 20000 91124 91212;
0129067860999992011010600004+46867+009533FM-12+055699999V0202101N005712200019N0200001N1+00081-01191101451ADDGA1001+999999999GF100991001001999999001001MA1999999094701REMSYN060AAXX  06004 06786 42/70 02111 10008 21119 39470 40145 5////;
0087067860999992011010601004+46867+009533FM-12+055699999V0202001N006719999999N9999999N1+00101-01141101421ADDMA1999999094681REMSYN060AAXX  06014 06786 43/// /2013 10010 21114 39468 40142 5////;
0087067860999992011010602004+46867+009533FM-12+055699999V0201801N005719999999N9999999N1+00111-01161101401ADDMA1999999094661REMSYN060AAXX  06024 06786 43/// /1811 10011 21116 39466 40140 5////;
0139067860999992011010603004+46867+009533FM-12+055699999V0201801N008712200019N0200001N1+00151-01151101321ADDGA1041+030001041GF104991999999999999999999MA1999999094601REMSYN070AAXX  06034 06786 42970 41817 10015 21115 39460 40132 5//// 333 84460;
0087067860999992011010604004+46867+009533FM-12+055699999V0201801N005719999999N9999999N1+00191-01111101271ADDMA1999999094561REMSYN060AAXX  06044 06786 43/// /1811 10019 21111 39456 40127 5////;
0087067860999992011010605004+46867+009533FM-12+055699999V0201801N007219999999N9999999N1+00251-01021101241ADDMA1999999094551REMSYN060AAXX  06054 06786 43/// /1814 10025 21102 39455 40124 5////;
0218067860999992011010606004+46867+009533FM-12+055699999V0201901N005710150019N0180001N1+00281-00941101281ADDAL10600091GA1081+015001041GF108991999999017501999999GJ103609IA1019IA2999-00309KA1999N-00131MA1999999094591REMSYN100AAXX  06064 06786 42768 81911 10028 21094 39459 40128 5//// 333 21013 30103 55060 88450 90768 93100;
0087067860999992011010607004+46867+009533FM-12+055699999V0201701N005719999999N9999999N1+00491-00791101241ADDMA1999999094601REMSYN060AAXX  06074 06786 43/// /1711 10049 21079 39460 40124 5////;
0103067860999992011010608004+46867+009533FM-12+055699999V0201701N006219999999N9999999N1+00571-00681101251ADDMA1999999094631REMSYN076AAXX  06084 06786 33/// /1712 10057 21068 39463 40125 5//// 333 553// 20047;
0167067860999992011010609004+46867+009533FM-12+055699999V0201701N005110390019N0200001N1+00621-00631101221ADDGA1031+018001061GA2051+039001031GF108991999999017501999999MA1999999094621REMSYN082AAXX  06094 06786 42770 81710 10062 21063 39462 40122 5//// 333 83656 85363 86078;
0140067860999992011010610004+46867+009533FM-12+055699999V0201901N006219999999N9999999N1+00651-00651101231ADDMA1999999094631MD1210031+9999OA149901491REMSYN088AAXX  06104 06786 33/// /1912 10065 21065 39463 40123 52003 333 55305 20695 91129 91214;
0140067860999992011010611004+46867+009533FM-12+055699999V0202101N006719999999N9999999N1+00821-00531101121ADDMA1999999094571MD1710061+9999OA149901701REMSYN088AAXX  06114 06786 33/// /2113 10082 21053 39457 40112 57006 333 553// 2//// 91133 91215;
0188067860999992011010612004+46867+009533FM-12+055699999V0202201N00871027001CN0200001N1+00961-00471101111ADDGA1071+027001031GF107991999999999999999999MA1999999094591MD1710031+9999OA149901801REMSYN094AAXX  06124 06786 32970 72217 10096 21047 39459 40111 57003 333 55309 2//// 87359 91135 91221;
0140067860999992011010613004+46867+009533FM-12+055699999V0201401N002119999999N9999999N1+00931-00371101121ADDMA1999999094591MD1510041+9999OA149901801REMSYN088AAXX  06134 06786 33/// /1404 10093 21037 39459 40112 55004 333 55300 20688 91135 91221;
0087067860999992011010614004+46867+009533FM-12+055699999V0200801N002119999999N9999999N1+00931-00331101151ADDMA1999999094621REMSYN060AAXX  06144 06786 43/// /0804 10093 21033 39462 40115 5////;
0145067860999992011010615004+46867+009533FM-12+055699999V0201001N003119999999N0180001N1+00931-00381101161ADDGA1011+018001061GF107991999999017501999999MA1999999094631REMSYN076AAXX  06154 06786 42768 71006 10093 21038 39463 40116 5//// 333 81656 87457;
0140067860999992011010616004+46867+009533FM-12+055699999V0200701N001519999999N9999999N1+00891-00301101191ADDMA1999999094651MD1110061+9999OA149901391REMSYN088AAXX  06164 06786 33/// /0703 10089 21030 39465 40119 51006 333 55300 20061 91127 91209;
0140067860999992011010617004+46867+009533FM-12+055699999V0200501N001519999999N9999999N1+00791-00261101201ADDMA1999999094641MD1210021+9999OA149901441REMSYN088AAXX  06174 06786 33/// /0503 10079 21026 39464 40120 52002 333 55300 20000 91128 91210;
0241067860999992011010618004+46867+009533FM-12+055699999V0201501N00211014101CN0160001N1+00841-00211101201ADDAL19900091GA1061+014101061GF106991999999012501999999IA1019KA1120M+01021MA1999999094651MD1210021+9999OA149901801REMSYN118AAXX  06184 06786 32666 61504 10084 21021 39465 40120 52002 333 10102 30/// 55300 20000 86647 90766 93100 91135 91221;
0140067860999992011010619004+46867+009533FM-12+055699999V0201701N005719999999N9999999N1+00841-00221101221ADDMA1999999094671MD1310021+9999OA149901341REMSYN088AAXX  06194 06786 33/// /1711 10084 21022 39467 40122 53002 333 55300 20000 91126 91211;
0140067860999992011010620004+46867+009533FM-12+055699999V0201801N006219999999N9999999N1+00761-00191101321ADDMA1999999094741MD1219999+9999OA149901441REMSYN088AAXX  06204 06786 33/// /1812 10076 21019 39474 40132 52/// 333 55300 20000 91128 91214;
0188067860999992011010621004+46867+009533FM-12+055699999V0201901N00461024001CN0250001N1+00741-00141101371ADDGA1081+024001041GF108991999999022501999999MA1999999094781MD1219999+9999OA149901441REMSYN094AAXX  06214 06786 32875 81909 10074 21014 39478 40137 52/// 333 55300 20000 88458 91128 91214;
0140067860999992011010622004+46867+009533FM-12+055699999V0201801N005719999999N9999999N1+00871-00081101391ADDMA1999999094831MD1210161+9999OA149901181REMSYN088AAXX  06224 06786 33/// /1811 10087 21008 39483 40139 52016 333 55300 20000 91123 91213;
0103067860999992011010623004+46867+009533FM-12+055699999V0201801N006719999999N9999999N1+00791-00111101421ADDMA1999999094841REMSYN076AAXX  06234 06786 33/// /1813 10079 21011 39484 40142 5//// 333 553// 20000;
0139067860999992011010700004+46867+009533FM-12+055699999V0201801N005710240019N0250001N1+00851-00111101401ADDGA1081+024001041GF108991999999022501999999MA1999999094841REMSYN070AAXX  07004 06786 42875 81811 10085 21011 39484 40140 5//// 333 88458;
0087067860999992011010701004+46867+009533FM-12+055699999V0201801N005119999999N9999999N1+00851-00071101431ADDMA1999999094871REMSYN060AAXX  07014 06786 43/// /1810 10085 21007 39487 40143 5////;
0087067860999992011010702004+46867+009533FM-12+055699999V0201701N006719999999N9999999N1+00821-00071101451ADDMA1999999094881REMSYN060AAXX  07024 06786 43/// /1713 10082 21007 39488 40145 5////;
0139067860999992011010703004+46867+009533FM-12+055699999V0201801N006712200019N0250001N1+00761-00071101521ADDGA1031+054001001GF103991999999999999999999MA1999999094931REMSYN070AAXX  07034 06786 42975 31813 10076 21007 39493 40152 5//// 333 83068;
0140067860999992011010704004+46867+009533FM-12+055699999V0201901N006719999999N9999999N1+00861-00071101451ADDMA1999999094891MD1010021+9999OA149901441REMSYN088AAXX  07044 06786 33/// /1913 10086 21007 39489 40145 50002 333 55300 20000 91128 91215;
0140067860999992011010705004+46867+009533FM-12+055699999V0202001N005719999999N9999999N1+00801-00041101471ADDMA1999999094891MD1010011+9999OA149901441REMSYN088AAXX  07054 06786 33/// /2011 10080 21004 39489 40147 50001 333 55300 20000 91128 91215;
0273067860999992011010706004+46867+009533FM-12+055699999V0201801N00671054001CN0250001N1+00841-00041101521ADDAL19900091GA1061+054001001GF106991999999999999999999GJ101449IA1019IA2999+00609KA1999N+00741MA1999999094951MD1310021+9999OA149901441REMSYN130AAXX  07064 06786 32975 61813 10084 21004 39495 40152 53002 333 20074 30006 55024 55300 20000 70000 86068 90768 93100 91128 91215;
0140067860999992011010707004+46867+009533FM-12+055699999V0201801N005119999999N9999999N1+00851-00021101571ADDMA1999999095001MD1210111+9999OA149901391REMSYN088AAXX  07074 06786 33/// /1810 10085 21002 39500 40157 52011 333 55300 20000 91127 91214;
0103067860999992011010708004+46867+009533FM-12+055699999V0202101N004119999999N9999999N1+00821+00021101601ADDMA1999999095021REMSYN076AAXX  07084 06786 33/// /2108 10082 20002 39502 40160 5//// 333 553// 20054;
0167067860999992011010709004+46867+009533FM-12+055699999V0202001N005719999999N0300001N1+00901+00041101571ADDGA1011+014101061GA2041+027001031GF106991999999012501999999MA1999999095011REMSYN082AAXX  07094 06786 42680 62011 10090 20004 39501 40157 5//// 333 81647 84359 85068;
0140067860999992011010710004+46867+009533FM-12+055699999V0201901N007719999999N9999999N1+01021+00061101531ADDMA1999999095001MD1510001+9999OA149901391REMSYN088AAXX  07104 06786 33/// /1915 10102 20006 39500 40153 55000 333 55301 20468 91127 91216;
0140067860999992011010711004+46867+009533FM-12+055699999V0202001N006719999999N9999999N1+01181+00061101461ADDMA1999999094971MD1810051+9999OA149901391REMSYN088AAXX  07114 06786 33/// /2013 10118 20006 39497 40146 58005 333 55303 20731 91127 91216;
0210067860999992011010712004+46867+009533FM-12+055699999V0202001N00721018001CN0200001N1+01321+00121101351ADDGA1071+018001061GA2051+060001001GF107991999999017501999999MA1999999094901MD1710111+9999OA149901441REMSYN100AAXX  07124 06786 32770 72014 10132 20012 39490 40135 57011 333 55305 20875 87656 85070 91128 91216;
0140067860999992011010713004+46867+009533FM-12+055699999V0201901N005719999999N9999999N1+01311+00141101381ADDMA1999999094921MD1710081+9999OA149901241REMSYN088AAXX  07134 06786 33/// /1911 10131 20014 39492 40138 57008 333 55300 20497 91124 91214;
0087067860999992011010714004+46867+009533FM-12+055699999V0202001N004119999999N9999999N1+01321+00151101411ADDMA1999999094951REMSYN060AAXX  07144 06786 43/// /2008 10132 20015 39495 40141 5////;
0145067860999992011010715004+46867+009533FM-12+055699999V0202201N003610180019N0200001N1+01311+00151101461ADDGA1061+018001061GF108991999999017501999999MA1999999095001REMSYN076AAXX  07154 06786 42770 82207 10131 20015 39500 40146 5//// 333 86656 88071;
0140067860999992011010716004+46867+009533FM-12+055699999V0202301N006219999999N9999999N1+01401+00121101471ADDMA1999999095031MD1310111+9999OA149901241REMSYN088AAXX  07164 06786 33/// /2312 10140 20012 39503 40147 53011 333 55300 20043 91124 91213;
0140067860999992011010717004+46867+009533FM-12+055699999V0201901N003619999999N9999999N1+01201+00191101541ADDMA1999999095051MD1210101+9999OA149901241REMSYN088AAXX  07174 06786 33/// /1907 10120 20019 39505 40154 52010 333 55300 20000 91124 91212;
0194067860999992011010718004+46867+009533FM-12+055699999V0201801N00411014101CN0180001N1+01131+00191101581ADDGA1081+014101061GF108991999999012501999999IA1019KA1120M+01401MA1999999095071REMSYN106AAXX  07184 06786 32668 81808 10113 20019 39507 40158 5//// 333 10140 30/// 553// 20000 88647 90766 93100;
0140067860999992011010719004+46867+009533FM-12+055699999V0202301N006219999999N9999999N1+01281+00201101571ADDMA1999999095101MD1219999+9999OA149901341REMSYN088AAXX  07194 06786 33/// /2312 10128 20020 39510 40157 52/// 333 55300 20000 91126 91212;
0087067860999992011010720004+46867+009533FM-12+055699999V0201901N004619999999N9999999N1+01111+00201101611ADDMA1999999095091REMSYN060AAXX  07204 06786 43/// /1909 10111 20020 39509 40161 5////;
0139067860999992011010721004+46867+009533FM-12+055699999V0201801N006710180019N0200001N1+01221+00161101531ADDGA1081+018001061GF108991999999017501999999MA1999999095041REMSYN070AAXX  07214 06786 42770 81813 10122 20016 39504 40153 5//// 333 88656;
0140067860999992011010722004+46867+009533FM-12+055699999V0201801N004619999999N9999999N1+01061+00191101591ADDMA1999999095061MD1710041+9999OA149901241REMSYN088AAXX  07224 06786 33/// /1809 10106 20019 39506 40159 57004 333 55300 20000 91124 91213;
0103067860999992011010723004+46867+009533FM-12+055699999V0201601N005719999999N9999999N1+01081+00251101551ADDMA1999999095031REMSYN076AAXX  07234 06786 33/// /1611 10108 20025 39503 40155 5//// 333 553// 20000;
0103067860999992011010800004+46867+009533FM-12+055699999V0201701N003619999999N9999999N1+01081+00211101531ADDMA1999999095011REMSYN076AAXX  08004 06786 33/// /1707 10108 20021 39501 40153 5//// 333 553// 20000;
0087067860999992011010801004+46867+009533FM-12+055699999V0202001N003119999999N9999999N1+01041+00211101531ADDMA1999999095001REMSYN060AAXX  08014 06786 43/// /2006 10104 20021 39500 40153 5////;
0087067860999992011010802004+46867+009533FM-12+055699999V0202101N003119999999N9999999N1+01071+00181101521ADDMA1999999095001REMSYN060AAXX  08024 06786 43/// /2106 10107 20018 39500 40152 5////;
0139067860999992011010803004+46867+009533FM-12+055699999V0202101N005710180019N0200001N1+01101+00171101501ADDGA1081+018001061GF108991999999017501999999MA1999999094991REMSYN070AAXX  08034 06786 42770 82111 10110 20017 39499 40150 5//// 333 88656;
0087067860999992011010804004+46867+009533FM-12+055699999V0201801N004619999999N9999999N1+01121+00141101491ADDMA1999999094981REMSYN060AAXX  08044 06786 43/// /1809 10112 20014 39498 40149 5////;
0087067860999992011010805004+46867+009533FM-12+055699999V0202201N006219999999N9999999N1+01211+00161101461ADDMA1999999094981REMSYN060AAXX  08054 06786 43/// /2212 10121 20016 39498 40146 5////;
0218067860999992011010806004+46867+009533FM-12+055699999V0202001N005110141019N0200001N1+01101+00171101481ADDAL10600091GA1081+014101061GF108991999999012501999999GJ100549IA1099IA2999+00909KA1999N+00991MA1999999094971REMSYN100AAXX  08064 06786 42670 82010 10110 20017 39497 40148 5//// 333 20099 31009 55009 88647 90768 93100;
0087067860999992011010807004+46867+009533FM-12+055699999V0202101N003119999999N9999999N1+00971+00171101541ADDMA1999999095001REMSYN060AAXX  08074 06786 43/// /2106 10097 20017 39500 40154 5////;
0103067860999992011010808004+46867+009533FM-12+055699999V0202001N005119999999N9999999N1+00911+00171101621ADDMA1999999095061REMSYN076AAXX  08084 06786 33/// /2010 10091 20017 39506 40162 5//// 333 553// 20047;
0139067860999992011010809004+46867+009533FM-12+055699999V0201601N004610300019N0250001N1+01111+00121101601ADDGA1061+030001031GF106991999999999999999999MA1999999095081REMSYN070AAXX  08094 06786 42975 61609 10111 20012 39508 40160 5//// 333 86360;
0087067860999992011010810004+46867+009533FM-12+055699999V0201701N004619999999N9999999N1+01191+00151101561ADDMA1999999095071REMSYN060AAXX  08104 06786 43/// /1709 10119 20015 39507 40156 5////;
0087067860999992011010811004+46867+009533FM-12+055699999V0201801N005719999999N9999999N1+01171+00171101551ADDMA1999999095051REMSYN060AAXX  08114 06786 43/// /1811 10117 20017 39505 40155 5////;
0139067860999992011010812004+46867+009533FM-12+055699999V0202001N005710210019N0250001N1+01431+00211101441ADDGA1051+021001031GF105991999999022501999999MA1999999095011REMSYN070AAXX  08124 06786 42875 52011 10143 20021 39501 40144 5//// 333 85357;
0087067860999992011010813004+46867+009533FM-12+055699999V0202001N005119999999N9999999N1+01441+00111101381ADDMA1999999094951REMSYN060AAXX  08134 06786 43/// /2010 10144 20011 39495 40138 5////;
0087067860999992011010814004+46867+009533FM-12+055699999V0202101N004619999999N9999999N1+01451+00161101371ADDMA1999999094951REMSYN060AAXX  08144 06786 43/// /2109 10145 20016 39495 40137 5////;
0145067860999992011010815004+46867+009533FM-12+055699999V0202001N005712200019N0300001N1+01381+00011101471ADDGA1041+021001031GF104991999999022501999999MA1999999095021REMSYN076AAXX  08154 06786 42880 42011 10138 20001 39502 40147 5//// 333 84357 84075;
0087067860999992011010816004+46867+009533FM-12+055699999V0202101N004619999999N9999999N1+01281-00011101531ADDMA1999999095061REMSYN060AAXX  08164 06786 43/// /2109 10128 21001 39506 40153 5////;
0087067860999992011010817004+46867+009533FM-12+055699999V0202101N003119999999N9999999N1+01061+00061101641ADDMA1999999095111REMSYN060AAXX  08174 06786 43/// /2106 10106 20006 39511 40164 5////;
0173067860999992011010818004+46867+009533FM-12+055699999V0202001N004612200019N0300001N1+01031+00011101651ADDAL10600091GA1041+021001031GF104991999999022501999999IA1019MA1999999095111REMSYN088AAXX  08184 06786 42880 42009 10103 20001 39511 40165 5//// 333 30/// 84357 90766 93100;
0087067860999992011010819004+46867+009533FM-12+055699999V0202101N004619999999N9999999N1+00831+00031101681ADDMA1999999095091REMSYN060AAXX  08194 06786 43/// /2109 10083 20003 39509 40168 5////;
0087067860999992011010820004+46867+009533FM-12+055699999V0202101N003619999999N9999999N1+00851+00001101701ADDMA1999999095121REMSYN060AAXX  08204 06786 43/// /2107 10085 20000 39512 40170 5////;
0139067860999992011010821004+46867+009533FM-12+055699999V0202001N003112200019N0160001N1+00861-00021101681ADDGA1041+027001031GF104991999999999999999999MA1999999095101REMSYN070AAXX  08214 06786 42966 42006 10086 21002 39510 40168 5//// 333 84359;
0087067860999992011010822004+46867+009533FM-12+055699999V0202101N003119999999N9999999N1+00781-00021101711ADDMA1999999095111REMSYN060AAXX  08224 06786 43/// /2106 10078 21002 39511 40171 5////;
0087067860999992011010823004+46867+009533FM-12+055699999V0202101N003619999999N9999999N1+00791+00001101701ADDMA1999999095101REMSYN060AAXX  08234 06786 43/// /2107 10079 20000 39510 40170 5////;
0139067860999992011010900004+46867+009533FM-12+055699999V0201901N003612200019N0160001N1+00881+00021101671ADDGA1041+027001031GF104991999999999999999999MA1999999095101REMSYN070AAXX  09004 06786 42966 41907 10088 20002 39510 40167 5//// 333 84359;
0087067860999992011010901004+46867+009533FM-12+055699999V0201901N005119999999N9999999N1+00951+00021101651ADDMA1999999095091REMSYN060AAXX  09014 06786 43/// /1910 10095 20002 39509 40165 5////;
0087067860999992011010902004+46867+009533FM-12+055699999V0202201N004619999999N9999999N1+00731+00021101721ADDMA1999999095111REMSYN060AAXX  09024 06786 43/// /2209 10073 20002 39511 40172 5////;
0139067860999992011010903004+46867+009533FM-12+055699999V0202001N003612200019N0180001N1+00701+00021101701ADDGA1041+027001031GF104991999999999999999999MA1999999095081REMSYN070AAXX  09034 06786 42968 42007 10070 20002 39508 40170 5//// 333 84359;
0087067860999992011010904004+46867+009533FM-12+055699999V0201901N004119999999N9999999N1+00791+00001101641ADDMA1999999095051REMSYN060AAXX  09044 06786 43/// /1908 10079 20000 39505 40164 5////;
0087067860999992011010905004+46867+009533FM-12+055699999V0201901N003119999999N9999999N1+00761+00001101611ADDMA1999999095011REMSYN060AAXX  09054 06786 43/// /1906 10076 20000 39501 40161 5////;
0209067860999992011010906004+46867+009533FM-12+055699999V0201701N004110750019N0180001N1+00851+00011101581ADDAL10600091GA1041+021001031GA2061+075001001GF107991999999022501999999GJ102109IA1099MA1999999095011REMSYN100AAXX  09064 06786 42868 71708 10085 20001 39501 40158 5//// 333 31/// 55035 84357 86075 90768 93100;
0087067860999992011010907004+46867+009533FM-12+055699999V0201801N003619999999N9999999N1+00871-00051101581ADDMA1999999095011REMSYN060AAXX  09074 06786 43/// /1807 10087 21005 39501 40158 5////;
0103067860999992011010908004+46867+009533FM-12+055699999V0201901N004119999999N9999999N1+00891+00011101571ADDMA1999999095011REMSYN076AAXX  09084 06786 33/// /1908 10089 20001 39501 40157 5//// 333 553// 20079;
0157067860999992011010909004+46867+009533FM-12+055699999V0202201N00411021001CN0300001N1+00971+00021101601ADDGA1051+021001031GF106991999999022501999999MA1999999095051REMSYN088AAXX  09094 06786 32880 62208 10097 20002 39505 40160 5//// 333 553// 20284 85357 86075;
0140067860999992011010910004+46867+009533FM-12+055699999V0202001N005119999999N9999999N1+01131+00071101521ADDMA1999999095011MD1010001+9999OA149901081REMSYN088AAXX  09104 06786 33/// /2010 10113 20007 39501 40152 50000 333 55303 20691 91121 91211;
0140067860999992011010911004+46867+009533FM-12+055699999V0202201N005719999999N9999999N1+01371+00071101401ADDMA1999999094961MD1810051+9999OA149901241REMSYN088AAXX  09114 06786 33/// /2211 10137 20007 39496 40140 58005 333 55303 20850 91124 91211;
0188067860999992011010912004+46867+009533FM-12+055699999V0202101N00511021001CN0300001N1+01461+00051101321ADDGA1061+021001031GF106991999999022501999999MA1999999094901MD1710151+9999OA149901441REMSYN094AAXX  09124 06786 32880 62110 10146 20005 39490 40132 57015 333 55308 2//// 86357 91128 91214;
0140067860999992011010913004+46867+009533FM-12+055699999V0202201N006719999999N9999999N1+01411+00011101281ADDMA1999999094851MD1710161+9999OA149901441REMSYN088AAXX  09134 06786 33/// /2213 10141 20001 39485 40128 57016 333 55305 20997 91128 91214;
0087067860999992011010914004+46867+009533FM-12+055699999V0202201N005719999999N9999999N1+01381+00021101311ADDMA1999999094871REMSYN060AAXX  09144 06786 43/// /2211 10138 20002 39487 40131 5////;
0145067860999992011010915004+46867+009533FM-12+055699999V0202201N006710210019N0300001N1+01361-00031101311ADDGA1061+021001031GF108991999999022501999999MA1999999094871REMSYN076AAXX  09154 06786 42880 82213 10136 21003 39487 40131 5//// 333 86357 87463;
0140067860999992011010916004+46867+009533FM-12+055699999V0202101N003119999999N9999999N1+01231+00031101341ADDMA1999999094871MD1210021+9999OA149901341REMSYN088AAXX  09164 06786 33/// /2106 10123 20003 39487 40134 52002 333 55300 20029 91126 91215;
0140067860999992011010917004+46867+009533FM-12+055699999V0202201N003119999999N9999999N1+01281+00021101351ADDMA1999999094891MD1310021+9999OA149901241REMSYN088AAXX  09174 06786 33/// /2206 10128 20002 39489 40135 53002 333 55300 20000 91124 91211;
0241067860999992011010918004+46867+009533FM-12+055699999V0200301N00511039001CN0300001N1+00961+00261101561ADDAL19900091GA1081+039001041GF108991999999999999999999IA1019KA1120M+01491MA1999999095011MD1210141+9999OA149901441REMSYN118AAXX  09184 06786 32980 80310 10096 20026 39501 40156 52014 333 10149 30/// 55300 20000 88463 90766 93100 91128 91215;
0140067860999992011010919004+46867+009533FM-12+055699999V0200201N002119999999N9999999N1+00871+00291101621ADDMA1999999095051MD1210181+9999OA149900981REMSYN088AAXX  09194 06786 33/// /0204 10087 20029 39505 40162 52018 333 55300 20000 91119 91212;
0140067860999992011010920004+46867+009533FM-12+055699999V0200201N001019999999N9999999N1+00811+00291101661ADDMA1999999095071MD1210181+9999OA149900721REMSYN088AAXX  09204 06786 33/// /0202 10081 20029 39507 40166 52018 333 55300 20000 91114 91208;
0216067860999992011010921004+46867+009533FM-12+055699999V0200301N00211015001CN0100001N1+00821+00331101731ADDAY121031AY221031GA1081+015001071GF108991999999017501999999MA1999999095141MD1210131+9999MW1101OA149901241REMSYN100AAXX  09214 06786 31760 80304 10082 20033 39514 40173 52013 71022 333 55300 20000 88750 91124 91212;
0140067860999992011010922004+46867+009533FM-12+055699999V0200401N002119999999N9999999N1+00801+00411101791ADDMA1999999095191MD1210141+9999OA149900511REMSYN088AAXX  09224 06786 33/// /0404 10080 20041 39519 40179 52014 333 55300 20000 91110 91206;
0140067860999992011010923004+46867+009533FM-12+055699999V0200301N001019999999N9999999N1+00761+00451101831ADDMA1999999095221MD1210151+9999OA149900511REMSYN088AAXX  09234 06786 33/// /0302 10076 20045 39522 40183 52015 333 55300 20000 91110 91206;
0216067860999992011011000004+46867+009533FM-12+055699999V0200501N00151006301CN0080001N1+00731+00461101851ADDAY151061AY221061GA1081+006301071GF108991999999008001999999MA1999999095231MD1210091+9999MW1201OA149901341REMSYN100AAXX  10004 06786 31558 80503 10073 20046 39523 40185 52009 72052 333 55300 20000 88721 91126 91215;
0146067860999992011011001004+46867+009533FM-12+055699999V0200501N002619999999N9999999N1+00691+00471101901ADDMA1999999095271MD1110081+9999OA149900461REMSYN094AAXX  10014 06786 23/// /0505 10069 20047 39527 40190 51008 333 55300 20000 69915 91109 91205;
0109067860999992011011002004+46867+009533FM-12+055699999V0200201N001519999999N9999999N1+00641+00481101951ADDMA1999999095301REMSYN082AAXX  10024 06786 23/// /0203 10064 20048 39530 40195 5//// 333 553// 20000 69915;
0167067860999992011011003004+46867+009533FM-12+055699999V0200401N002110063019N0050001N1+00611+00481101981ADDAY151031AY251031GA1081+006301071GF108991999999008001999999MA1999999095321MW1611REMSYN076AAXX  10034 06786 41550 80404 10061 20048 39532 40198 5//// 76155 333 88721;
0109067860999992011011004004+46867+009533FM-12+055699999V0200301N002619999999N9999999N1+00591+00451102001ADDMA1999999095341REMSYN082AAXX  10044 06786 23/// /0305 10059 20045 39534 40200 5//// 333 553// 20000 60035;
0146067860999992011011005004+46867+009533FM-12+055699999V0200301N003119999999N9999999N1+00531+00401102041ADDMA1999999095361MD1219999+9999OA149900671REMSYN094AAXX  10054 06786 23/// /0306 10053 20040 39536 40204 52/// 333 55300 20000 60025 91113 91208;
0263067860999992011011006004+46867+009533FM-12+055699999V0200501N002610042019N0040001N1+00491+00331102091ADDAA124006491AL12400691AY161061AY261061GA1081+004201051GF108991999999004501999999GJ101149IA1119IA2999+00409KA1999N+00511MA1999999095401MW1631REMSYN112AAXX  10064 06786 41440 80505 10049 20033 39540 40209 5//// 76366 333 20051 32004 55019 70064 88514 90768 93100;
0146067860999992011011007004+46867+009533FM-12+055699999V0200701N002619999999N9999999N1+00451+00291102161ADDMA1999999095451MD1210111+9999OA149900671REMSYN094AAXX  10074 06786 23/// /0705 10045 20029 39545 40216 52011 333 55300 20000 69925 91113 91207;
0087067860999992011011008004+46867+009533FM-12+055699999V0200501N002619999999N9999999N1+00441+00281102201ADDMA1999999095491REMSYN060AAXX  10084 06786 43/// /0505 10044 20028 39549 40220 5////;
0167067860999992011011009004+46867+009533FM-12+055699999V0200501N002110001519N0050001N1+00441+00291102221ADDAY161031AY251031GA1081+000151071GF108991999999000251999999MA1999999095511MW1501REMSYN076AAXX  10094 06786 41050 80504 10044 20029 39551 40222 5//// 75065 333 88700;
0140067860999992011011010004+46867+009533FM-12+055699999V0203501N001019999999N9999999N1+00481+00331102221ADDMA1999999095521MD1210071+9999OA149900411REMSYN088AAXX  10104 06786 33/// /3502 10048 20033 39552 40222 52007 333 55300 20310 91108 91204;
0140067860999992011011011004+46867+009533FM-12+055699999V0203501N001019999999N9999999N1+00501+00331102181ADDMA1999999095481MD1819999+9999OA149900311REMSYN088AAXX  10114 06786 33/// /3502 10050 20033 39548 40218 58/// 333 55300 20461 91106 91203;
0186067860999992011011012004+46867+009533FM-12+055699999V0200201N001519999999N0100001N1+00521+00301102121ADDAA106000891AY151061AY221061GF108991999999000751999999MA1999999095431MW1501REMSYN100AAXX  10124 06786 01160 80203 10052 20030 39543 40212 5//// 69971 75052 333 553// 20461 60005 88602;
0087067860999992011011013004+46867+009533FM-12+055699999V0200201N002119999999N9999999N1+00531+00311102051ADDMA1999999095371REMSYN060AAXX  10134 06786 43/// /0204 10053 20031 39537 40205 5////;
0087067860999992011011014004+46867+009533FM-12+055699999V0200201N001519999999N9999999N1+00541+00311102021ADDMA1999999095341REMSYN060AAXX  10144 06786 43/// /0203 10054 20031 39534 40202 5////;
0167067860999992011011015004+46867+009533FM-12+055699999V0203601N001510012019N0100001N1+00531+00321102011ADDAY151031AY221031GA1071+001201061GF107991999999001501999999MA1999999095331MW1011REMSYN076AAXX  10154 06786 41260 73603 10053 20032 39533 40201 5//// 70152 333 87604;
0087067860999992011011016004+46867+009533FM-12+055699999V0203501N000519999999N9999999N1+00521+00311101981ADDMA1999999095301REMSYN060AAXX  10164 06786 43/// /3501 10052 20031 39530 40198 5////;
0087067860999992011011017004+46867+009533FM-12+055699999V0203401N000519999999N9999999N1+00491+00311101951ADDMA1999999095271REMSYN060AAXX  10174 06786 43/// /3401 10049 20031 39527 40195 5////;
0220067860999992011011018004+46867+009533FM-12+055699999V0202501N000510012019N0100001N1+00461+00311101931ADDAL10600091AY151061AY221061GA1061+001201061GF106991999999001501999999IA1119KA1120M+00561MA1999999095241MW1011REMSYN100AAXX  10184 06786 41260 62501 10046 20031 39524 40193 5//// 70152 333 10056 32/// 86604 90766 93100;
0087067860999992011011019004+46867+009533FM-12+055699999V0202401N000519999999N9999999N1+00461+00291101911ADDMA1999999095221REMSYN060AAXX  10194 06786 43/// /2401 10046 20029 39522 40191 5////;
0087067860999992011011020004+46867+009533FM-12+055699999V0202201N000519999999N9999999N1+00431+00281101891ADDMA1999999095201REMSYN060AAXX  10204 06786 43/// /2201 10043 20028 39520 40189 5////;
0167067860999992011011021004+46867+009533FM-12+055699999V0201901N002110018019N0100001N1+00391+00231101851ADDAY121031AY221031GA1061+001801061GF106991999999001501999999MA1999999095151MW1101REMSYN076AAXX  10214 06786 41260 61904 10039 20023 39515 40185 5//// 71022 333 86606;
0087067860999992011011022004+46867+009533FM-12+055699999V0203301N000519999999N9999999N1+00331+00211101861ADDMA1999999095141REMSYN060AAXX  10224 06786 43/// /3301 10033 20021 39514 40186 5////;
0087067860999992011011023004+46867+009533FM-12+055699999V0209999C000019999999N9999999N1+00361+00221101851ADDMA1999999095141REMSYN060AAXX  10234 06786 43/// /0000 10036 20022 39514 40185 5////;
0167067860999992011011100004+46867+009533FM-12+055699999V0200101N000510021019N0080001N1+00351+00251101801ADDAY121061AY221061GA1061+002101061GF106991999999002501999999MA1999999095091MW1101REMSYN076AAXX  11004 06786 41358 60101 10035 20025 39509 40180 5//// 71022 333 86607;
0087067860999992011011101004+46867+009533FM-12+055699999V0202701N000519999999N9999999N1+00301+00201101751ADDMA1999999095031REMSYN060AAXX  11014 06786 43/// /2701 10030 20020 39503 40175 5////;
0087067860999992011011102004+46867+009533FM-12+055699999V0202301N000519999999N9999999N1+00311+00211101731ADDMA1999999095021REMSYN060AAXX  11024 06786 43/// /2301 10031 20021 39502 40173 5////;
0167067860999992011011103004+46867+009533FM-12+055699999V0202401N000510021019N0080001N1+00331+00201101671ADDAY121031AY221031GA1061+002101061GF106991999999002501999999MA1999999094971MW1101REMSYN076AAXX  11034 06786 41358 62401 10033 20020 39497 40167 5//// 71022 333 86607;
0087067860999992011011104004+46867+009533FM-12+055699999V0209999C000019999999N9999999N1+00331+00221101641ADDMA1999999094941REMSYN060AAXX  11044 06786 43/// /0000 10033 20022 39494 40164 5////;
0087067860999992011011105004+46867+009533FM-12+055699999V0209999C000019999999N9999999N1+00331+00211101601ADDMA1999999094901REMSYN060AAXX  11054 06786 43/// /0000 10033 20021 39490 40160 5////;
0232067860999992011011106004+46867+009533FM-12+055699999V0202401N000510033019N0080001N1+00301+00161101601ADDAA124000891AL14800091AY121061AY221061GA1081+003301041GF108991999999004501999999GJ100009IA1099MA1999999094891MW1101REMSYN106AAXX  11064 06786 41458 82401 10030 20016 39489 40160 5//// 71022 333 31/// 55000 70008 88411 90768 93100;
0140067860999992011011107004+46867+009533FM-12+055699999V0202101N001019999999N9999999N1+00301+00171101561ADDMA1999999094861MD1719999+9999OA149900211REMSYN088AAXX  11074 06786 33/// /2102 10030 20017 39486 40156 57/// 333 55300 20000 91104 91202;
0103067860999992011011108004+46867+009533FM-12+055699999V0201801N002619999999N9999999N1+00281+00131101541ADDMA1999999094831REMSYN076AAXX  11084 06786 33/// /1805 10028 20013 39483 40154 5//// 333 553// 20029;
0139067860999992011011109004+46867+009533FM-12+055699999V0201801N001012200019N0400001N1+00271+00111101471ADDGA1021+000301071GF102991999999000251999999MA1999999094771REMSYN070AAXX  11094 06786 42082 21802 10027 20011 39477 40147 5//// 333 82701;
0140067860999992011011110004+46867+009533FM-12+055699999V0202101N001519999999N9999999N1+00521+00231101331ADDMA1999999094691MD1810171+9999OA149900511REMSYN088AAXX  11104 06786 33/// /2103 10052 20023 39469 40133 58017 333 55309 20950 91110 91206;
0140067860999992011011111004+46867+009533FM-12+055699999V0201801N004619999999N9999999N1+00841+00271101131ADDMA1999999094581MD1810251+9999OA149900881REMSYN088AAXX  11114 06786 33/// /1809 10084 20027 39458 40113 58025 333 553// 2//// 91117 91210;
0135067860999992011011112004+46867+009533FM-12+055699999V0201901N003612200019N0350001N1+00991+00221100951ADDGF101991999999999999999999MA1999999094451REMSYN082AAXX  11124 06786 32981 11907 10099 20022 39445 40095 5//// 333 553// 2//// 81360;
0140067860999992011011113004+46867+009533FM-12+055699999V0201801N003119999999N9999999N1+01081+00231100801ADDMA1999999094331MD1710361+9999OA149900821REMSYN088AAXX  11134 06786 33/// /1806 10108 20023 39433 40080 57036 333 553// 2//// 91116 91209;
0087067860999992011011114004+46867+009533FM-12+055699999V0201701N002619999999N9999999N1+00941+00211100801ADDMA1999999094301REMSYN060AAXX  11144 06786 43/// /1705 10094 20021 39430 40080 5////;
0145067860999992011011115004+46867+009533FM-12+055699999V0200301N005719999999N0200001N1+00541+00241101071ADDGA1021+000601061GF107991999999000751999999MA1999999094461REMSYN076AAXX  11154 06786 42170 70311 10054 20024 39446 40107 5//// 333 82602 86360;
0140067860999992011011116004+46867+009533FM-12+055699999V0200301N004619999999N9999999N1+00481+00231101221ADDMA1999999094581MD1210251+9999OA149900981REMSYN088AAXX  11164 06786 33/// /0309 10048 20023 39458 40122 52025 333 55300 20047 91119 91213;
0140067860999992011011117004+46867+009533FM-12+055699999V0200401N002119999999N9999999N1+00481+00171101351ADDMA1999999094701MD1210381+9999OA149900981REMSYN088AAXX  11174 06786 33/// /0404 10048 20017 39470 40135 52038 333 55300 20000 91119 91211;
0241067860999992011011118004+46867+009533FM-12+055699999V0200901N00211000601CN0100001N1+00491+00141101441ADDAL19900091GA1081+000601061GF108991999999000751999999IA1099KA1120M+01101MA1999999094791MD1210331+9999OA149900981REMSYN118AAXX  11184 06786 32160 80904 10049 20014 39479 40144 52033 333 10110 31/// 55300 20000 88602 90766 93100 91119 91213;
0140067860999992011011119004+46867+009533FM-12+055699999V0200601N002619999999N9999999N1+00481+00111101541ADDMA1999999094881MD1210301+9999OA149900621REMSYN088AAXX  11194 06786 33/// /0605 10048 20011 39488 40154 52030 333 55300 20000 91112 91207;
0146067860999992011011120004+46867+009533FM-12+055699999V0200401N002119999999N9999999N1+00411+00211101661ADDMA1999999094981MD1210281+9999OA149900511REMSYN094AAXX  11204 06786 23/// /0404 10041 20021 39498 40166 52028 333 55300 20000 69925 91110 91205;
0222067860999992011011121004+46867+009533FM-12+055699999V0200401N00101000601CN0080001N1+00411+00231101731ADDAY151031AY221031GA1081+000601061GF108991999999000751999999MA1999999095041MD1210251+9999MW1101OA149900981REMSYN106AAXX  11214 06786 21158 80402 10041 20023 39504 40173 52025 71052 333 55300 20000 69935 88602 91119 91211;
0146067860999992011011122004+46867+009533FM-12+055699999V0203501N001019999999N9999999N1+00391+00261101831ADDMA1999999095131MD1210251+9999OA149900361REMSYN094AAXX  11224 06786 23/// /3502 10039 20026 39513 40183 52025 333 55300 20000 69915 91107 91204;
0140067860999992011011123004+46867+009533FM-12+055699999V0200201N000519999999N9999999N1+00381+00241101921ADDMA1999999095211MD1310231+9999OA149900261REMSYN088AAXX  11234 06786 33/// /0201 10038 20024 39521 40192 53023 333 55300 20000 91105 91203;
0211067860999992011011200004+46867+009533FM-12+055699999V0203301N00051001201CN0050001N1+00401+00281101941ADDAA106000591GA1081+001201071GF108991999999001501999999MA1999999095241MD1210201+9999OA149900981REMSYN106AAXX  12004 06786 02250 83301 10040 20028 39524 40194 52020 69961 333 55300 20000 60005 88704 91119 91213;
0140067860999992011011201004+46867+009533FM-12+055699999V0202501N000519999999N9999999N1+00371+00241101981ADDMA1999999095271MD1210141+9999OA149900311REMSYN088AAXX  12014 06786 33/// /2501 10037 20024 39527 40198 52014 333 55300 20000 91106 91202;
0103067860999992011011202004+46867+009533FM-12+055699999V0202301N001019999999N9999999N1+00351+00231102101ADDMA1999999095371REMSYN076AAXX  12024 06786 33/// /2302 10035 20023 39537 40210 5//// 333 553// 20000;
0167067860999992011011203004+46867+009533FM-12+055699999V0202301N001510009019N0050001N1+00311+00181102161ADDAY121031AY221031GA1081+000901071GF108991999999000751999999MA1999999095421MW1101REMSYN076AAXX  12034 06786 41150 82303 10031 20018 39542 40216 5//// 71022 333 88703;
0087067860999992011011204004+46867+009533FM-12+055699999V0201301N000519999999N9999999N1+00321+00201102211ADDMA1999999095471REMSYN060AAXX  12044 06786 43/// /1301 10032 20020 39547 40221 5////;
0103067860999992011011205004+46867+009533FM-12+055699999V0201901N001019999999N9999999N1+00331+00191102251ADDMA1999999095511REMSYN076AAXX  12054 06786 33/// /1902 10033 20019 39551 40225 5//// 333 553// 20000;
0263067860999992011011206004+46867+009533FM-12+055699999V0202101N000510006019N0050001N1+00301+00171102341ADDAA124000591AL13600091AY121061AY221061GA1081+000601071GF108991999999000751999999GJ102649IA1119IA2999+00109KA1999N+00301MA1999999095591MW1511REMSYN112AAXX  12064 06786 41150 82101 10030 20017 39559 40234 5//// 75122 333 20030 32001 55044 70006 88702 90768 93100;
0140067860999992011011207004+46867+009533FM-12+055699999V0201801N001519999999N9999999N1+00371+00211102411ADDMA1999999095671MD1210201+9999OA149900261REMSYN088AAXX  12074 06786 33/// /1803 10037 20021 39567 40241 52020 333 55300 20000 91105 91203;
0087067860999992011011208004+46867+009533FM-12+055699999V0202201N001019999999N9999999N1+00351+00211102451ADDMA1999999095701REMSYN060AAXX  12084 06786 43/// /2202 10035 20021 39570 40245 5////;
0173067860999992011011209004+46867+009533FM-12+055699999V0202101N001019999999N0100001N1+00431+00221102451ADDAY151031AY221031GA1031+001201061GF108991999999001501999999MA1999999095721MW1101REMSYN082AAXX  12094 06786 41260 82102 10043 20022 39572 40245 5//// 71052 333 83604 88359;
0140067860999992011011210004+46867+009533FM-12+055699999V0201901N001019999999N9999999N1+00521+00271102461ADDMA1999999095751MD1219999+9999OA149900311REMSYN088AAXX  12104 06786 33/// /1902 10052 20027 39575 40246 52/// 333 55300 20497 91106 91203;
0117067860999992011011211004+46867+009533FM-12+055699999V0201801N002119999999N9999999N1+00621+00291102391ADDMA1999999095711MD1010011+9999REMSYN076AAXX  12114 06786 33/// /1804 10062 20029 39571 40239 50001 333 55301 20846;
0173067860999992011011212004+46867+009533FM-12+055699999V0202301N001519999999N0200001N1+00691+00291102321ADDAY151061AY221061GA1011+003301071GF107991999999004501999999MA1999999095661MW1011REMSYN082AAXX  12124 06786 41470 72303 10069 20029 39566 40232 5//// 70152 333 81711 87458;
0087067860999992011011213004+46867+009533FM-12+055699999V0201801N001519999999N9999999N1+00811+00251102261ADDMA1999999095631REMSYN060AAXX  12134 06786 43/// /1803 10081 20025 39563 40226 5////;
0087067860999992011011214004+46867+009533FM-12+055699999V0201701N001019999999N9999999N1+00801+00191102281ADDMA1999999095651REMSYN060AAXX  12144 06786 43/// /1702 10080 20019 39565 40228 5////;
0145067860999992011011215004+46867+009533FM-12+055699999V0202901N000519999999N0150001N1+00781+00271102311ADDGA1011+003301071GF108991999999004501999999MA1999999095671REMSYN076AAXX  12154 06786 42465 82901 10078 20027 39567 40231 5//// 333 81711 88457;
0140067860999992011011216004+46867+009533FM-12+055699999V0200401N000519999999N9999999N1+00691+00391102371ADDMA1999999095711MD1310081+9999OA149900151REMSYN088AAXX  12164 06786 33/// /0401 10069 20039 39571 40237 53008 333 55300 20014 91103 91202;
0146067860999992011011217004+46867+009533FM-12+055699999V0202401N000519999999N9999999N1+00621+00481102431ADDMA1999999095751MD1310101+9999OA149900151REMSYN094AAXX  12174 06786 23/// /2401 10062 20048 39575 40243 53010 333 55300 20000 69995 91103 91201;
0292067860999992011011218004+46867+009533FM-12+055699999V0201901N00051012301CN0160001N1+00561+00361102471ADDAA112002091AL19900091AY161061AY221061GA1081+012301071GF108991999999012501999999IA1119KA1120M+00831MA1999999095771MD1210101+9999MW1631OA149900311REMSYN136AAXX  12184 06786 01666 81901 10056 20036 39577 40247 52010 60022 76362 333 10083 32/// 55300 20000 60015 88741 90766 93100 91106 91204;
0146067860999992011011219004+46867+009533FM-12+055699999V0202101N001519999999N9999999N1+00531+00361102471ADDMA1999999095761MD1010051+9999OA149900411REMSYN094AAXX  12194 06786 23/// /2103 10053 20036 39576 40247 50005 333 55300 20000 69945 91108 91204;
0146067860999992011011220004+46867+009533FM-12+055699999V0202201N001019999999N9999999N1+00491+00341102481ADDMA1999999095761MD1510011+9999OA149900411REMSYN094AAXX  12204 06786 23/// /2202 10049 20034 39576 40248 55001 333 55300 20000 69935 91108 91204;
0222067860999992011011221004+46867+009533FM-12+055699999V0202001N00211001201CN0080001N1+00481+00311102491ADDAY161031AY221031GA1081+001201071GF108991999999001501999999MA1999999095771MD1310021+9999MW1631OA149900411REMSYN106AAXX  12214 06786 21258 82004 10048 20031 39577 40249 53000 76362 333 55300 20000 69965 88704 91108 91204;
0146067860999992011011222004+46867+009533FM-12+055699999V0202301N003119999999N9999999N1+00431+00281102491ADDMA1999999095761MD1010001+9999OA149900461REMSYN094AAXX  12224 06786 23/// /2306 10043 20028 39576 40249 50000 333 55300 20000 60015 91109 91206;
0146067860999992011011223004+46867+009533FM-12+055699999V0202001N001519999999N9999999N1+00411+00261102481ADDMA1999999095741MD1710021+9999OA149900511REMSYN094AAXX  12234 06786 23/// /2003 10041 20026 39574 40248 57002 333 55300 20000 69985 91110 91206;
0163067860999992011011300004+46867+009533FM-12+055699999V0202201N001519999999N9999999N1+00391+00261102441ADDAA106004191MA1999999095701MD1810071+9999OA149900511REMSYN100AAXX  13004 06786 03/// /2203 10039 20026 39570 40244 58007 60041 333 55300 20000 69985 91110 91206;
0146067860999992011011301004+46867+009533FM-12+055699999V0202001N001519999999N9999999N1+00391+00271102451ADDMA1999999095711MD1710051+9999OA149900361REMSYN094AAXX  13014 06786 23/// /2003 10039 20027 39571 40245 57005 333 55300 20000 69955 91107 91204;
0146067860999992011011302004+46867+009533FM-12+055699999V0202101N001019999999N9999999N1+00391+00281102481ADDMA1999999095741MD1519999+9999OA149900361REMSYN094AAXX  13024 06786 23/// /2102 10039 20028 39574 40248 55/// 333 55300 20000 60025 91107 91205;
0167067860999992011011303004+46867+009533FM-12+055699999V0201801N001510021019N0060001N1+00461+00271102411ADDAY161031AY261031GA1081+002101071GF108991999999002501999999MA1999999095691MW1611REMSYN076AAXX  13034 06786 41356 81803 10046 20027 39569 40241 5//// 76166 333 88707;
0146067860999992011011304004+46867+009533FM-12+055699999V0202301N001519999999N9999999N1+00431+00271102391ADDMA1999999095661MD1719999+9999OA149900411REMSYN094AAXX  13044 06786 23/// /2303 10043 20027 39566 40239 57/// 333 55300 20000 69935 91108 91206;
0109067860999992011011305004+46867+009533FM-12+055699999V0202101N001019999999N9999999N1+00431+00291102361ADDMA1999999095641REMSYN082AAXX  13054 06786 23/// /2102 10043 20029 39564 40236 5//// 333 553// 20000 69935;
0334067860999992011011306004+46867+009533FM-12+055699999V0202001N00101021001CN0130001N1+00431+00291102361ADDAA112007991AL13600991AL29900091AY161061AY221061GA1081+021001041GF108991999999022501999999GJ100849IA1119IA2999+00309KA1999N+00391MA1999999095641MD1510051+9999MW1101OA149900511REMSYN148AAXX  13064 06786 01863 82002 10043 20029 39564 40236 55005 60082 71062 333 20039 32003 55014 55300 20000 69925 70096 88457 90768 93100 91110 91206;
0087067860999992011011307004+46867+009533FM-12+055699999V0202001N001019999999N9999999N1+00431+00311102381ADDMA1999999095651REMSYN060AAXX  13074 06786 43/// /2002 10043 20031 39565 40238 5////;
0087067860999992011011308004+46867+009533FM-12+055699999V0202101N001019999999N9999999N1+00461+00341102401ADDMA1999999095681REMSYN060AAXX  13084 06786 43/// /2102 10046 20034 39568 40240 5////;
0195067860999992011011309004+46867+009533FM-12+055699999V0201901N001510210019N0110001N1+00561+00391102351ADDAY161031AY221031GA1031+003301061GA2051+021001031GF108991999999004501999999MA1999999095661MW1101REMSYN088AAXX  13094 06786 41461 81903 10056 20039 39566 40235 5//// 71062 333 83611 85357 88463;
0087067860999992011011310004+46867+009533FM-12+055699999V0202001N001519999999N9999999N1+00621+00421102371ADDMA1999999095691REMSYN060AAXX  13104 06786 43/// /2003 10062 20042 39569 40237 5////;
0087067860999992011011311004+46867+009533FM-12+055699999V0202501N001019999999N9999999N1+00711+00501102301ADDMA1999999095651REMSYN060AAXX  13114 06786 43/// /2502 10071 20050 39565 40230 5////;
0173067860999992011011312004+46867+009533FM-12+055699999V0201901N002619999999N0100001N1+00861+00591102191ADDAY161061AY221061GA1011+002101061GF107991999999002501999999MA1999999095581MW1101REMSYN082AAXX  13124 06786 41360 71905 10086 20059 39558 40219 5//// 71062 333 81607 87656;
0087067860999992011011313004+46867+009533FM-12+055699999V0202001N001519999999N9999999N1+00941+00581102101ADDMA1999999095511REMSYN060AAXX  13134 06786 43/// /2003 10094 20058 39551 40210 5////;
0087067860999992011011314004+46867+009533FM-12+055699999V0202301N000519999999N9999999N1+01001+00651102071ADDMA1999999095501REMSYN060AAXX  13144 06786 43/// /2301 10100 20065 39550 40207 5////;
0167067860999992011011315004+46867+009533FM-12+055699999V0202601N001019999999N0200001N1+00981+00641102091ADDGA1011+003301061GA2031+024001031GF106991999999004501999999MA1999999095511REMSYN082AAXX  13154 06786 42470 62602 10098 20064 39551 40209 5//// 333 81611 83358 86078;
0087067860999992011011316004+46867+009533FM-12+055699999V0200401N000519999999N9999999N1+00851+00671102171ADDMA1999999095561REMSYN060AAXX  13164 06786 43/// /0401 10085 20067 39556 40217 5////;
0140067860999992011011317004+46867+009533FM-12+055699999V0202001N001519999999N9999999N1+00751+00611102211ADDMA1999999095571MD1210071+9999OA149900261REMSYN088AAXX  13174 06786 33/// /2003 10075 20061 39557 40221 52007 333 55300 20000 91105 91203;
0314067860999992011011318004+46867+009533FM-12+055699999V0201801N00211024001CN0140001N1+00841+00621102201ADDAA112001091AL19900091AY121061AY221061GA1011+004201061GA2071+024001031GF107991999999004501999999IA1119KA1120M+01021MA1999999095581MD1210061+9999MW1101OA149900461REMSYN142AAXX  13184 06786 01464 71804 10084 20062 39558 40220 52006 60012 71022 333 10102 32/// 55300 20000 60005 81614 87358 90766 93100 91109 91205;
0140067860999992011011319004+46867+009533FM-12+055699999V0201901N001519999999N9999999N1+00801+00601102241ADDMA1999999095611MD1210051+9999OA149900461REMSYN088AAXX  13194 06786 33/// /1903 10080 20060 39561 40224 52005 333 55300 20000 91109 91205;
0146067860999992011011320004+46867+009533FM-12+055699999V0201901N001519999999N9999999N1+00771+00601102291ADDMA1999999095651MD1210081+9999OA149900361REMSYN094AAXX  13204 06786 23/// /1903 10077 20060 39565 40229 52008 333 55300 20000 69915 91107 91204;
0216067860999992011011321004+46867+009533FM-12+055699999V0202001N00101024001CN0140001N1+00741+00601102321ADDAY121031AY221031GA1071+024001031GF107991999999022501999999MA1999999095671MD1210091+9999MW1101OA149900461REMSYN100AAXX  13214 06786 31864 72002 10074 20060 39567 40232 52009 71022 333 55300 20000 87358 91109 91205;
0146067860999992011011322004+46867+009533FM-12+055699999V0202101N001519999999N9999999N1+00731+00601102331ADDMA1999999095681MD1210071+9999OA149900311REMSYN094AAXX  13224 06786 23/// /2103 10073 20060 39568 40233 52007 333 55300 20000 69925 91106 91203;
0140067860999992011011323004+46867+009533FM-12+055699999V0202701N001519999999N9999999N1+00751+00581102331ADDMA1999999095681MD1210031+9999OA149900311REMSYN088AAXX  13234 06786 33/// /2703 10075 20058 39568 40233 52003 333 55300 20000 91106 91203;
0239067860999992011011400004+46867+009533FM-12+055699999V0201801N00101024001CN0080001N1+00721+00561102331ADDAA106000391AY121061AY221061GA1081+024001031GF108991999999022501999999MA1999999095681MD1210011+9999MW1101OA149900461REMSYN112AAXX  14004 06786 01858 81802 10072 20056 39568 40233 52001 69931 71022 333 55300 20000 60005 88358 91109 91205;
0146067860999992011011401004+46867+009533FM-12+055699999V0202101N001019999999N9999999N1+00681+00561102371ADDMA1999999095701MD1210021+9999OA149900211REMSYN094AAXX  14014 06786 23/// /2102 10068 20056 39570 40237 52002 333 55300 20000 69915 91104 91203;
0103067860999992011011402004+46867+009533FM-12+055699999V0202001N001519999999N9999999N1+00701+00551102391ADDMA1999999095731REMSYN076AAXX  14024 06786 33/// /2003 10070 20055 39573 40239 5//// 333 553// 20000;
0216067860999992011011403004+46867+009533FM-12+055699999V0201701N00151024001CN0080001N1+00711+00531102411ADDAY121031AY221031GA1081+024001031GF108991999999022501999999MA1999999095751MD1210071+9999MW1101OA149900361REMSYN100AAXX  14034 06786 31858 81703 10071 20053 39575 40241 52007 71022 333 55300 20000 88358 91107 91205;
0140067860999992011011404004+46867+009533FM-12+055699999V0201801N002619999999N9999999N1+00641+00491102391ADDMA1999999095711MD1010011+9999OA149900411REMSYN088AAXX  14044 06786 33/// /1805 10064 20049 39571 40239 50001 333 55300 20000 91108 91205;
0140067860999992011011405004+46867+009533FM-12+055699999V0202001N002119999999N9999999N1+00631+00471102391ADDMA1999999095711MD1710021+9999OA149900411REMSYN088AAXX  14054 06786 33/// /2004 10063 20047 39571 40239 57002 333 55300 20000 91108 91205;
0334067860999992011011406004+46867+009533FM-12+055699999V0201901N002612200019N0100001N1+00581+00411102381ADDAA112000591AL13600191AL29900091AY111061AY211061GA1041+024001031GF104991999999022501999999GJ100909IA1099IA2999+00409KA1999N+00581MA1999999095691MD1710061+9999MW1101OA149900571REMSYN148AAXX  14064 06786 01860 41905 10058 20041 39569 40238 57006 69942 71011 333 20058 31004 55015 55300 20000 60005 70016 84358 90768 93100 91111 91205;
0140067860999992011011407004+46867+009533FM-12+055699999V0202201N001519999999N9999999N1+00481+00321102441ADDMA1999999095721MD1210011+9999OA149900571REMSYN088AAXX  14074 06786 33/// /2203 10048 20032 39572 40244 52001 333 55300 20000 91111 91206;
0087067860999992011011408004+46867+009533FM-12+055699999V0201901N003119999999N9999999N1+00621+00371102441ADDMA1999999095761REMSYN060AAXX  14084 06786 43/// /1906 10062 20037 39576 40244 5////;
0145067860999992011011409004+46867+009533FM-12+055699999V0201901N003112200019N0300001N1+00631+00361102401ADDGA1011+000901061GF103991999999000751999999MA1999999095721REMSYN076AAXX  14094 06786 42180 31906 10063 20036 39572 40240 5//// 333 81603 83075;
0087067860999992011011410004+46867+009533FM-12+055699999V0202001N002119999999N9999999N1+00811+00431102311ADDMA1999999095681REMSYN060AAXX  14104 06786 43/// /2004 10081 20043 39568 40231 5////;
0140067860999992011011411004+46867+009533FM-12+055699999V0201801N002619999999N9999999N1+01011+00501102181ADDMA1999999095601MD1810161+9999OA149900621REMSYN088AAXX  14114 06786 33/// /1805 10101 20050 39560 40218 58016 333 553// 2//// 91112 91208;
0188067860999992011011412004+46867+009533FM-12+055699999V0201901N00051084001CN0300001N1+01151+00511102041ADDGA1061+084001001GF106991999999999999999999MA1999999095511MD1810211+9999OA149900621REMSYN094AAXX  14124 06786 32980 61901 10115 20051 39551 40204 58021 333 553// 2//// 86078 91112 91208;
0140067860999992011011413004+46867+009533FM-12+055699999V0202401N000519999999N9999999N1+01161+00561101991ADDMA1999999095461MD1710221+9999OA149900571REMSYN088AAXX  14134 06786 33/// /2401 10116 20056 39546 40199 57022 333 553// 2//// 91111 91206;
0103067860999992011011414004+46867+009533FM-12+055699999V0200301N002619999999N9999999N1+01151+00661101981ADDMA1999999095451REMSYN076AAXX  14144 06786 33/// /0305 10115 20066 39545 40198 5//// 333 553// 20684;
0210067860999992011011415004+46867+009533FM-12+055699999V0200201N002612200019N0300001N1+01031+00671102041ADDGA1021+002101061GA2041+027001031GF104991999999002501999999MA1999999095481MD1510031+9999OA149900621REMSYN100AAXX  14154 06786 32380 40205 10103 20067 39548 40204 55003 333 553// 20468 82607 84359 91112 91208;
0140067860999992011011416004+46867+009533FM-12+055699999V0200501N001019999999N9999999N1+00921+00611102121ADDMA1999999095531MD1210071+9999OA149900621REMSYN088AAXX  14164 06786 33/// /0502 10092 20061 39553 40212 52007 333 55300 20072 91112 91207;
0140067860999992011011417004+46867+009533FM-12+055699999V0209999C000019999999N9999999N1+00671+00511102211ADDMA1999999095551MD1210101+9999OA149900361REMSYN088AAXX  14174 06786 33/// /0000 10067 20051 39555 40221 52010 333 55300 20000 91107 91203;
0263067860999992011011418004+46867+009533FM-12+055699999V0202201N00151078001CN0160001N1+00671+00511102201ADDAL19900091GA1031+009301061GA2041+078001001GF105991999999008001999999IA1019KA1120M+01161MA1999999095541MD1210061+9999OA149900621REMSYN124AAXX  14184 06786 32566 52203 10067 20051 39554 40220 52006 333 10116 30/// 55300 20000 83631 84076 90766 93100 91112 91208;
0140067860999992011011419004+46867+009533FM-12+055699999V0201901N002619999999N9999999N1+00711+00451102111ADDMA1999999095471MD1810061+9999OA149900621REMSYN088AAXX  14194 06786 33/// /1905 10071 20045 39547 40211 58006 333 55300 20000 91112 91206;
0140067860999992011011420004+46867+009533FM-12+055699999V0201801N002119999999N9999999N1+00671+00421102051ADDMA1999999095401MD1710151+9999OA149900621REMSYN088AAXX  14204 06786 33/// /1804 10067 20042 39540 40205 57015 333 55300 20000 91112 91206;
0140067860999992011011421004+46867+009533FM-12+055699999V0202501N000519999999N9999999N1+00601+00401102061ADDMA1999999095401MD1710141+9999OA149900621REMSYN088AAXX  14214 06786 33/// /2501 10060 20040 39540 40206 57014 333 55300 20000 91112 91206;
0140067860999992011011422004+46867+009533FM-12+055699999V0200401N001019999999N9999999N1+00591+00401102131ADDMA1999999095461MD1510011+9999OA149900411REMSYN088AAXX  14224 06786 33/// /0402 10059 20040 39546 40213 55001 333 55300 20000 91108 91206;
0140067860999992011011423004+46867+009533FM-12+055699999V0202701N001519999999N9999999N1+00491+00361102161ADDMA1999999095461MD1310061+9999OA149900211REMSYN088AAXX  14234 06786 33/// /2703 10049 20036 39546 40216 53006 333 55300 20000 91104 91203;
0216067860999992011011500004+46867+009533FM-12+055699999V0209999C00001039001CN0100001N1+00501+00361102201ADDAY121061AY221061GA1071+039001031GF108991999999999999999999MA1999999095501MD1210101+9999MW1101OA149900621REMSYN100AAXX  15004 06786 31960 80000 10050 20036 39550 40220 52010 71022 333 55300 20000 87363 91112 91207;
0140067860999992011011501004+46867+009533FM-12+055699999V0202101N001519999999N9999999N1+00531+00341102351ADDMA1999999095651MD1210191+9999OA149900621REMSYN088AAXX  15014 06786 33/// /2103 10053 20034 39565 40235 52019 333 55300 20000 91112 91203;
0140067860999992011011502004+46867+009533FM-12+055699999V0201701N001019999999N9999999N1+00591+00351102431ADDMA1999999095741MD1219999+9999OA149900621REMSYN088AAXX  15024 06786 33/// /1702 10059 20035 39574 40243 52/// 333 55300 20000 91112 91205;
0169067860999992011011503004+46867+009533FM-12+055699999V0203401N001019999999N0080001N1+00551+00411102621ADDAY121031AY221031GF107991999999017501999999MA1999999095911MW1101REMSYN094AAXX  15034 06786 21758 73402 10055 20041 39591 40262 5//// 71022 333 553// 20000 69945 87656;
0146067860999992011011504004+46867+009533FM-12+055699999V0200401N001019999999N9999999N1+00601+00461102611ADDMA1999999095911MD1210261+9999OA149900511REMSYN094AAXX  15044 06786 23/// /0402 10060 20046 39591 40261 52026 333 55300 20000 69965 91110 91206;
0146067860999992011011505004+46867+009533FM-12+055699999V0201701N001019999999N9999999N1+00571+00441102671ADDMA1999999095961MD1210221+9999OA149900311REMSYN094AAXX  15054 06786 23/// /1702 10057 20044 39596 40267 52022 333 55300 20000 69915 91106 91204;
0334067860999992011011506004+46867+009533FM-12+055699999V0201301N00211000601CN0080001N1+00631+00441102821ADDAA112001091AL10600191AL29900091AY161061AY221061GA1081+000601061GF108991999999000751999999GJ103249IA1119IA2999+00209KA1999N+00451MA1999999096111MD1210201+9999MW1211OA149900621REMSYN148AAXX  15064 06786 01158 81304 10063 20044 39611 40282 52020 60012 72162 333 20045 32002 55054 55300 20000 60005 70011 88602 90768 93100 91112 91206;
0140067860999992011011507004+46867+009533FM-12+055699999V0201701N000519999999N9999999N1+00591+00431102941ADDMA1999999096221MD1310311+9999OA149900361REMSYN088AAXX  15074 06786 33/// /1701 10059 20043 39622 40294 53031 333 55300 20000 91107 91204;
0140067860999992011011508004+46867+009533FM-12+055699999V0201801N001019999999N9999999N1+00561+00431103011ADDMA1999999096271MD1119999+9999OA149900361REMSYN088AAXX  15084 06786 33/// /1802 10056 20043 39627 40301 51/// 333 55300 20047 91107 91204;
0216067860999992011011509004+46867+009533FM-12+055699999V0202101N001012200019N0120001N1+00541+00401103051ADDAY161031AY211031GA1041+002101061GF104991999999002501999999MA1999999096311MD1110201+9999MW1101OA149900361REMSYN100AAXX  15094 06786 31362 42102 10054 20040 39631 40305 51020 71061 333 55300 20252 84607 91107 91204;
0140067860999992011011510004+46867+009533FM-12+055699999V0201901N002119999999N9999999N1+00701+00411103061ADDMA1999999096351MD1210131+9999OA149900361REMSYN088AAXX  15104 06786 33/// /1904 10070 20041 39635 40306 52013 333 55308 20943 91107 91204;
0140067860999992011011511004+46867+009533FM-12+055699999V0201901N001519999999N9999999N1+00901+00481102921ADDMA1999999096271MD1010001+9999OA149900511REMSYN088AAXX  15114 06786 33/// /1903 10090 20048 39627 40292 50000 333 553// 2//// 91110 91205;
0210067860999992011011512004+46867+009533FM-12+055699999V0201601N00151039001CN0180001N1+00961+00331102811ADDGA1021+002101061GA2041+039001031GF105991999999002501999999MA1999999096181MD1710131+9999OA149900621REMSYN100AAXX  15124 06786 32368 51603 10096 20033 39618 40281 57013 333 553// 2//// 82607 84363 91112 91206;
0103067860999992011011513004+46867+009533FM-12+055699999V0201501N002619999999N9999999N1+01081+00231102761ADDMA1999999096161REMSYN076AAXX  15134 06786 33/// /1505 10108 20023 39616 40276 5//// 333 553// 2////;
0087067860999992011011514004+46867+009533FM-12+055699999V0202001N001019999999N9999999N1+01101+00201102791ADDMA1999999096201REMSYN060AAXX  15144 06786 43/// /2002 10110 20020 39620 40279 5////;
0145067860999992011011515004+46867+009533FM-12+055699999V0201701N001519999999N0200001N1+01081+00231102831ADDGA1011+004201061GF105991999999004501999999MA1999999096231REMSYN076AAXX  15154 06786 42470 51703 10108 20023 39623 40283 5//// 333 81614 85360;
0087067860999992011011516004+46867+009533FM-12+055699999V0202401N001019999999N9999999N1+00831+00291102951ADDMA1999999096281REMSYN060AAXX  15164 06786 43/// /2402 10083 20029 39628 40295 5////;
0103067860999992011011517004+46867+009533FM-12+055699999V0202001N002119999999N9999999N1+00581+00201103091ADDMA1999999096351REMSYN076AAXX  15174 06786 33/// /2004 10058 20020 39635 40309 5//// 333 553// 20004;
0192067860999992011011518004+46867+009533FM-12+055699999V0202001N003112200019N0200001N1+00531+00281103171ADDAL10600091GA1011+004201061GF101991999999004501999999IA1099KA1120M+01111MA1999999096421REMSYN094AAXX  15184 06786 42470 12006 10053 20028 39642 40317 5//// 333 10111 31/// 81614 90766 93100;
0087067860999992011011519004+46867+009533FM-12+055699999V0202001N002619999999N9999999N1+00461+00191103211ADDMA1999999096441REMSYN060AAXX  15194 06786 43/// /2005 10046 20019 39644 40321 5////;
0087067860999992011011520004+46867+009533FM-12+055699999V0202101N002619999999N9999999N1+00491+00171103241ADDMA1999999096471REMSYN060AAXX  15204 06786 43/// /2105 10049 20017 39647 40324 5////;
0182067860999992011011521004+46867+009533FM-12+055699999V0202001N003112200019N0200001N1+00481+00091103231ADDGA1001+999999999GF100991001001999999001001MA1999999096461MD1210041+9999OA149900671REMSYN088AAXX  15214 06786 32/70 02006 10048 20009 39646 40323 52004 333 55300 20000 91113 91208;
0140067860999992011011522004+46867+009533FM-12+055699999V0202101N003119999999N9999999N1+00511+00031103211ADDMA1999999096451MD1010011+9999OA149900821REMSYN088AAXX  15224 06786 33/// /2106 10051 20003 39645 40321 50001 333 55300 20000 91116 91208;
0140067860999992011011523004+46867+009533FM-12+055699999V0202301N002619999999N9999999N1+00421-00011103221ADDMA1999999096441MD1710031+9999OA149900821REMSYN088AAXX  15234 06786 33/// /2305 10042 21001 39644 40322 57003 333 55300 20000 91116 91208;
0182067860999992011011600004+46867+009533FM-12+055699999V0202001N002612200019N0200001N1+00331-00071103251ADDGA1001+999999999GF100991001001999999001001MA1999999096441MD1710021+9999OA149900821REMSYN088AAXX  16004 06786 32/70 02005 10033 21007 39644 40325 57002 333 55300 20000 91116 91208;
0140067860999992011011601004+46867+009533FM-12+055699999V0202201N002119999999N9999999N1+00311-00071103241ADDMA1999999096431MD1710021+9999OA149900621REMSYN088AAXX  16014 06786 33/// /2204 10031 21007 39643 40324 57002 333 55300 20000 91112 91206;
0140067860999992011011602004+46867+009533FM-12+055699999V0202101N002119999999N9999999N1+00391-00141103211ADDMA1999999096421MD1719999+9999OA149900621REMSYN088AAXX  16024 06786 33/// /2104 10039 21014 39642 40321 57/// 333 55300 20000 91112 91206;
0129067860999992011011603004+46867+009533FM-12+055699999V0202001N002112200019N0140001N1+00301-00151103231ADDGA1001+999999999GF100991001001999999001001MA1999999096421REMSYN060AAXX  16034 06786 42/64 02004 10030 21015 39642 40323 5////;
0140067860999992011011604004+46867+009533FM-12+055699999V0202101N002119999999N9999999N1+00281-00191103171ADDMA1999999096361MD1710071+9999OA149900571REMSYN088AAXX  16044 06786 33/// /2104 10028 21019 39636 40317 57007 333 55300 20000 91111 91206;
0140067860999992011011605004+46867+009533FM-12+055699999V0202101N002119999999N9999999N1+00311-00241103161ADDMA1999999096351MD1710071+9999OA149900671REMSYN088AAXX  16054 06786 33/// /2104 10031 21024 39635 40316 57007 333 55300 20000 91113 91206;
0267067860999992011011606004+46867+009533FM-12+055699999V0202101N002612200019N0150001N1+00321-00261103161ADDAL19900091GA1001+999999999GF100991001001999999001001GJ103309IA1019IA2999+00009KA1999N+00261MA1999999096361MD1510061+9999OA149900821REMSYN124AAXX  16064 06786 32/65 02105 10032 21026 39636 40316 55006 333 20026 30000 55055 55300 20000 70000 90768 93100 91116 91208;
0140067860999992011011607004+46867+009533FM-12+055699999V0202001N003119999999N9999999N1+00321-00271103151ADDMA1999999096351MD1810011+9999OA149900671REMSYN088AAXX  16074 06786 33/// /2006 10032 21027 39635 40315 58001 333 55300 20000 91113 91207;
0140067860999992011011608004+46867+009533FM-12+055699999V0202101N002119999999N9999999N1+00361-00271103131ADDMA1999999096341MD1719999+9999OA149900621REMSYN088AAXX  16084 06786 33/// /2104 10036 21027 39634 40313 57/// 333 55300 20043 91112 91207;
0188067860999992011011609004+46867+009533FM-12+055699999V0202101N002112200019N0200001N1+00451-00241103091ADDGA1011+066001001GF101991999999999999999999MA1999999096321MD1710041+9999OA149900771REMSYN094AAXX  16094 06786 32970 12104 10045 21024 39632 40309 57004 333 55300 20112 81072 91115 91207;
0140067860999992011011610004+46867+009533FM-12+055699999V0201901N001519999999N9999999N1+00761-00241102991ADDMA1999999096301MD1710051+9999OA149900771REMSYN088AAXX  16104 06786 33/// /1903 10076 21024 39630 40299 57005 333 55309 2//// 91115 91206;
0140067860999992011011611004+46867+009533FM-12+055699999V0202001N001519999999N9999999N1+00941-00191102881ADDMA1999999096241MD1810101+9999OA149900721REMSYN088AAXX  16114 06786 33/// /2003 10094 21019 39624 40288 58010 333 553// 2//// 91114 91206;
0182067860999992011011612004+46867+009533FM-12+055699999V0202201N001012200019N0300001N1+01121-00111102761ADDGA1001+999999999GF100991001001999999001001MA1999999096171MD1810151+9999OA149900771REMSYN088AAXX  16124 06786 32/80 02202 10112 21011 39617 40276 58015 333 553// 2//// 91115 91207;
0140067860999992011011613004+46867+009533FM-12+055699999V0200201N002619999999N9999999N1+01141+00131102691ADDMA1999999096111MD1610191+9999OA149900511REMSYN088AAXX  16134 06786 33/// /0205 10114 20013 39611 40269 56019 333 553// 2//// 91110 91205;
0140067860999992011011614004+46867+009533FM-12+055699999V0200201N004119999999N9999999N1+01051-00041102711ADDMA1999999096111MD1719999+9999OA149900671REMSYN088AAXX  16144 06786 33/// /0208 10105 21004 39611 40271 57/// 333 553// 2//// 91113 91209;
0182067860999992011011615004+46867+009533FM-12+055699999V0200101N002112200019N0300001N1+00991+00041102751ADDGA1001+999999999GF100991001001999999001001MA1999999096131MD1510041+9999OA149900721REMSYN088AAXX  16154 06786 32/80 00104 10099 20004 39613 40275 55004 333 553// 20673 91114 91209;
0140067860999992011011616004+46867+009533FM-12+055699999V0202501N000519999999N9999999N1+00641+00071102851ADDMA1999999096141MD1210031+9999OA149900571REMSYN088AAXX  16164 06786 33/// /2501 10064 20007 39614 40285 52003 333 55303 20122 91111 91207;
0140067860999992011011617004+46867+009533FM-12+055699999V0202601N000519999999N9999999N1+00581+00131102881ADDMA1999999096161MD1210051+9999OA149900361REMSYN088AAXX  16174 06786 33/// /2601 10058 20013 39616 40288 52005 333 55300 20000 91107 91203;
0235067860999992011011618004+46867+009533FM-12+055699999V0209999C000012200019N0300001N1+00461+00101102911ADDAL19900091GA1001+999999999GF100991001001999999001001IA1019KA1120M+01201MA1999999096161MD1110031+9999OA149900771REMSYN112AAXX  16184 06786 32/80 00000 10046 20010 39616 40291 51003 333 10120 30/// 55300 20000 90766 93100 91115 91209;
0140067860999992011011619004+46867+009533FM-12+055699999V0200501N000519999999N9999999N1+00401+00111102961ADDMA1999999096191MD1210051+9999OA149900211REMSYN088AAXX  16194 06786 33/// /0501 10040 20011 39619 40296 52005 333 55300 20000 91104 91202;
0140067860999992011011620004+46867+009533FM-12+055699999V0203001N000519999999N9999999N1+00211+00041103021ADDMA1999999096201MD1210041+9999OA149900151REMSYN088AAXX  16204 06786 33/// /3001 10021 20004 39620 40302 52004 333 55300 20000 91103 91201;
0182067860999992011011621004+46867+009533FM-12+055699999V0200801N000512200019N0200001N1+00141-00021103061ADDGA1001+999999999GF100991001001999999001001MA1999999096221MD1210061+9999OA149900361REMSYN088AAXX  16214 06786 32/70 00801 10014 21002 39622 40306 52006 333 55300 20000 91107 91203;
0140067860999992011011622004+46867+009533FM-12+055699999V0201901N001019999999N9999999N1+00201+00021103061ADDMA1999999096231MD1110041+9999OA149900151REMSYN088AAXX  16224 06786 33/// /1902 10020 20002 39623 40306 51004 333 55300 20000 91103 91202;
0140067860999992011011623004+46867+009533FM-12+055699999V0202301N000519999999N9999999N1+00151-00011103071ADDMA1999999096231MD1210031+9999OA149900151REMSYN088AAXX  16234 06786 33/// /2301 10015 21001 39623 40307 52003 333 55300 20000 91103 91202;
0182067860999992011011700004+46867+009533FM-12+055699999V0203001N000512200019N0250001N1+00081-00051103071ADDGA1001+999999999GF100991001001999999001001MA1999999096211MD1810011+9999OA149900671REMSYN088AAXX  17004 06786 32/75 03001 10008 21005 39621 40307 58001 333 55300 20000 91113 91209;
0140067860999992011011701004+46867+009533FM-12+055699999V0202401N000519999999N9999999N1+00121-00031103051ADDMA1999999096201MD1710031+9999OA149900151REMSYN088AAXX  17014 06786 33/// /2401 10012 21003 39620 40305 57003 333 55300 20000 91103 91201;
0140067860999992011011702004+46867+009533FM-12+055699999V0201901N001019999999N9999999N1+00031-00111103101ADDMA1999999096231MD1519999+9999OA149900151REMSYN088AAXX  17024 06786 33/// /1902 10003 21011 39623 40310 55/// 333 55300 20000 91103 91202;
0145067860999992011011703004+46867+009533FM-12+055699999V0202301N000512200019N0200001N1+00141-00081103061ADDGA1001+999999999GF100991001001999999001001MA1999999096221REMSYN076AAXX  17034 06786 32/70 02301 10014 21008 39622 40306 5//// 333 553// 20000;
0140067860999992011011704004+46867+009533FM-12+055699999V0201901N001019999999N9999999N1+00071-00141103081ADDMA1999999096221MD1210021+9999OA149900211REMSYN088AAXX  17044 06786 33/// /1902 10007 21014 39622 40308 52002 333 55300 20000 91104 91202;
0140067860999992011011705004+46867+009533FM-12+055699999V0202401N001019999999N9999999N1+00091-00151103051ADDMA1999999096201MD1810031+9999OA149900261REMSYN088AAXX  17054 06786 33/// /2402 10009 21015 39620 40305 58003 333 55300 20000 91105 91203;
0267067860999992011011706004+46867+009533FM-12+055699999V0202101N000512200019N0200001N1+00091-00181103011ADDAL19900091GA1001+999999999GF100991001001999999001001GJ103729IA1099IA2999-00309KA1999N-00031MA1999999096161MD1710061+9999OA149900261REMSYN124AAXX  17064 06786 32/70 02101 10009 21018 39616 40301 57006 333 21003 31103 55062 55300 20000 70000 90768 93100 91105 91203;
0140067860999992011011707004+46867+009533FM-12+055699999V0201601N002619999999N9999999N1+00291-00161102961ADDMA1999999096161MD1710061+9999OA149900411REMSYN088AAXX  17074 06786 33/// /1605 10029 21016 39616 40296 57006 333 55300 20000 91108 91205;
0087067860999992011011708004+46867+009533FM-12+055699999V0201701N002619999999N9999999N1+00281-00171102941ADDMA1999999096141REMSYN060AAXX  17084 06786 43/// /1705 10028 21017 39614 40294 5////;
0139067860999992011011709004+46867+009533FM-12+055699999V0201601N001012200019N0350001N1+00431-00241102881ADDGA1021+084001001GF102991999999999999999999MA1999999096121REMSYN070AAXX  17094 06786 42981 21602 10043 21024 39612 40288 5//// 333 82078;
0140067860999992011011710004+46867+009533FM-12+055699999V0201901N001519999999N9999999N1+00641-00171102781ADDMA1999999096081MD1810081+9999OA149900411REMSYN088AAXX  17104 06786 33/// /1903 10064 21017 39608 40278 58008 333 55309 2//// 91108 91205;
0140067860999992011011711004+46867+009533FM-12+055699999V0201901N003119999999N9999999N1+00961-00101102571ADDMA1999999095961MD1810181+9999OA149900571REMSYN088AAXX  17114 06786 33/// /1906 10096 21010 39596 40257 58018 333 553// 2//// 91111 91207;
