0149067840999992011010100004+46817+009850FM-12+159099999V0200301N000519999999N9999999N1-00831-01751999999ADDMA1999999084001MD1810091+9999ME1315069OA149900211REMSYN088AAXX  01004 06784 33/// /0301 11083 21175 38400 48506 58009 333 55300 20000 91104 91202;
0149067840999992011010101004+46817+009850FM-12+159099999V0200101N000519999999N9999999N1-00801-01891999999ADDMA1999999083951MD1810121+9999ME1315019OA149900101REMSYN088AAXX  01014 06784 33/// /0101 11080 21189 38395 48501 58012 333 55300 20000 91102 91201;
0149067840999992011010102004+46817+009850FM-12+159099999V0203601N000519999999N9999999N1-00881-01901999999ADDMA1999999083941MD1710101+9999ME1315019OA149900101REMSYN088AAXX  01024 06784 33/// /3601 11088 21190 38394 48501 57010 333 55300 20000 91102 91201;
0149067840999992011010103004+46817+009850FM-12+159099999V0203601N000519999999N9999999N1-00931-01861999999ADDMA1999999083911MD1710091+9999ME1314989OA149900101REMSYN088AAXX  01034 06784 33/// /3601 11093 21186 38391 48498 57009 333 55300 20000 91102 91201;
0149067840999992011010104004+46817+009850FM-12+159099999V0209999C000519999999N9999999N1-00841-02031999999ADDMA1999999083881MD1710071+9999ME1314969OA149900101REMSYN088AAXX  01044 06784 33/// /0001 11084 21203 38388 48496 57007 333 55300 20000 91102 91201;
0149067840999992011010105004+46817+009850FM-12+159099999V0200301N000519999999N9999999N1-00811-02141999999ADDMA1999999083851MD1610091+9999ME1314939OA149900101REMSYN088AAXX  01054 06784 33/// /0301 11081 21214 38385 48493 56009 333 55300 20000 91102 91201;
0216067840999992011010106004+46817+009850FM-12+159099999V0209999C000519999999N9999999N1-00861-02061999999ADDAL19900091GJ103789IA2999-01409KA1999N-00931MA1999999083861MD1710051+9999ME1314949OA149900101REMSYN112AAXX  01064 06784 33/// /0001 11086 21206 38386 48494 57005 333 21093 3/114 55063 55300 20000 70000 91102 91201;
0168067840999992011010107004+46817+009850FM-12+159099999V0200101N000519999999N9999999N1-00821-02031999999ADDMA1999999083881MD1410001+9999ME1314959OA149900101REMSYN088AAXX  01074 06784 33/// /0101 11082 21203 38388 48495 53000 333 55300 20000 91102 91201;EQDQ01+000032APCTEN
0149067840999992011010108004+46817+009850FM-12+159099999V0200101N000519999999N9999999N1-00831-02001999999ADDMA1999999083901MD1119999+9999ME1314979OA149900101REMSYN088AAXX  01084 06784 33/// /0101 11083 21200 38390 48497 51/// 333 55300 20032 91102 91201;
0096067840999992011010109004+46817+009850FM-12+159099999V0200201N000519999999N9999999N1-00641-02161999999ADDMA1999999083891ME1314979REMSYN060AAXX  01094 06784 43/// /0201 11064 21216 38389 48497 5////;
0096067840999992011010110004+46817+009850FM-12+159099999V0200301N000519999999N9999999N1-00431-02121999999ADDMA1999999083871ME1314949REMSYN060AAXX  01104 06784 43/// /0301 11043 21212 38387 48494 5////;
0149067840999992011010111004+46817+009850FM-12+159099999V0209999C000019999999N9999999N1-00411-01721999999ADDMA1999999083831MD1810071+9999ME1314899OA149900101REMSYN088AAXX  01114 06784 33/// /0000 11041 21172 38383 48489 58007 333 553// 2//// 91102 91202;
0096067840999992011010112004+46817+009850FM-12+159099999V0202001N000519999999N9999999N1-00191-01841999999ADDMA1999999083781ME1314849REMSYN060AAXX  01124 06784 43/// /2001 11019 21184 38378 48484 5////;
0096067840999992011010113004+46817+009850FM-12+159099999V0201901N001019999999N9999999N1-00121-01321999999ADDMA1999999083741ME1314779REMSYN060AAXX  01134 06784 43/// /1902 11012 21132 38374 48477 5////;
0096067840999992011010114004+46817+009850FM-12+159099999V0201301N001519999999N9999999N1-00191-01431999999ADDMA1999999083721ME1314759REMSYN060AAXX  01144 06784 43/// /1303 11019 21143 38372 48475 5////;
0096067840999992011010115004+46817+009850FM-12+159099999V0201301N001019999999N9999999N1-00281-01521999999ADDMA1999999083741ME1314789REMSYN060AAXX  01154 06784 43/// /1302 11028 21152 38374 48478 5////;
0096067840999992011010116004+46817+009850FM-12+159099999V0209999C000019999999N9999999N1-00281-01591999999ADDMA1999999083731ME1314789REMSYN060AAXX  01164 06784 43/// /0000 11028 21159 38373 48478 5////;
0096067840999992011010117004+46817+009850FM-12+159099999V0200101N000519999999N9999999N1-00611-01551999999ADDMA1999999083711ME1314779REMSYN060AAXX  01174 06784 43/// /0101 11061 21155 38371 48477 5////;
0096067840999992011010118004+46817+009850FM-12+159099999V0200201N000519999999N9999999N1-00561-01751999999ADDMA1999999083701ME1314779REMSYN060AAXX  01184 06784 43/// /0201 11056 21175 38370 48477 5////;
0112067840999992011010119004+46817+009850FM-12+159099999V0200201N000519999999N9999999N1-00721-01821999999ADDMA1999999083681ME1314779REMSYN076AAXX  01194 06784 33/// /0201 11072 21182 38368 48477 5//// 333 553// 20000;
0149067840999992011010120004+46817+009850FM-12+159099999V0200301N000519999999N9999999N1-00711-01741999999ADDMA1999999083701MD1510011+9999ME1314789OA149900101REMSYN088AAXX  01204 06784 33/// /0301 11071 21174 38370 48478 55001 333 55300 20000 91102 91201;
0149067840999992011010121004+46817+009850FM-12+159099999V0209999C000019999999N9999999N1-00831-01881999999ADDMA1999999083711MD1210011+9999ME1314809OA149900151REMSYN088AAXX  01214 06784 33/// /0000 11083 21188 38371 48480 52001 333 55300 20000 91103 91201;
0149067840999992011010122004+46817+009850FM-12+159099999V0200301N000519999999N9999999N1-00931-01711999999ADDMA1999999083681MD1010001+9999ME1314779OA149900101REMSYN088AAXX  01224 06784 33/// /0301 11093 21171 38368 48477 50000 333 55300 20000 91102 91201;
0149067840999992011010123004+46817+009850FM-12+159099999V0209999C000019999999N9999999N1-00951-01621999999ADDMA1999999083631MD1710071+9999ME1314729OA149900101REMSYN088AAXX  01234 06784 33/// /0000 11095 21162 38363 48472 57007 333 55300 20000 91102 91201;
0149067840999992011010200004+46817+009850FM-12+159099999V0209999C000019999999N9999999N1-00911-01661999999ADDMA1999999083571MD1810141+9999ME1314669OA149900361REMSYN088AAXX  02004 06784 33/// /0000 11091 21166 38357 48466 58014 333 55300 20000 91107 91203;
0149067840999992011010201004+46817+009850FM-12+159099999V0209999C000519999999N9999999N1-00931-01871999999ADDMA1999999083521MD1710161+9999ME1314639OA149900101REMSYN088AAXX  02014 06784 33/// /0001 11093 21187 38352 48463 57016 333 55300 20000 91102 91202;
0096067840999992011010202004+46817+009850FM-12+159099999V0209999C000019999999N9999999N1-00911-01871999999ADDMA1999999083531ME1314649REMSYN060AAXX  02024 06784 43/// /0000 11091 21187 38353 48464 5////;
0096067840999992011010203004+46817+009850FM-12+159099999V0209999C000019999999N9999999N1-01021-01831999999ADDMA1999999083481ME1314599REMSYN060AAXX  02034 06784 43/// /0000 11102 21183 38348 48459 5////;
0096067840999992011010204004+46817+009850FM-12+159099999V0200701N000519999999N9999999N1-01001-01771999999ADDMA1999999083501ME1314619REMSYN060AAXX  02044 06784 43/// /0701 11100 21177 38350 48461 5////;
0096067840999992011010205004+46817+009850FM-12+159099999V0202201N001019999999N9999999N1-00921-01631999999ADDMA1999999083501ME1314609REMSYN060AAXX  02054 06784 43/// /2202 11092 21163 38350 48460 5////;
0143067840999992011010206004+46817+009850FM-12+159099999V0203501N000519999999N9999999N1-01081-01971999999ADDIA2999-01509KA1999N-01091MA1999999083501ME1314629REMSYN082AAXX  02064 06784 43/// /3501 11108 21197 38350 48462 5//// 333 21109 3/115 55063;
0149067840999992011010207004+46817+009850FM-12+159099999V0203601N000519999999N9999999N1-01071-01731999999ADDMA1999999083521MD1210021+9999ME1314639OA149900101REMSYN088AAXX  02074 06784 33/// /3601 11107 21173 38352 48463 52002 333 55300 20000 91102 91201;
0149067840999992011010208004+46817+009850FM-12+159099999V0203501N000519999999N9999999N1-01151-01701999999ADDMA1999999083581MD1210081+9999ME1314699OA149900101REMSYN088AAXX  02084 06784 33/// /3501 11115 21170 38358 48469 52008 333 55300 20036 91102 91201;
0149067840999992011010209004+46817+009850FM-12+159099999V0202001N000519999999N9999999N1-01031-01371999999ADDMA1999999083611MD1110111+9999ME1314699OA149900151REMSYN088AAXX  02094 06784 33/// /2001 11103 21137 38361 48469 51011 333 55300 20407 91103 91202;
0149067840999992011010210004+46817+009850FM-12+159099999V0203501N000519999999N9999999N1-00781-00881999999ADDMA1999999083641MD1110121+9999ME1314709OA149900261REMSYN088AAXX  02104 06784 33/// /3501 11078 21088 38364 48470 51012 333 55300 20727 91105 91202;
0149067840999992011010211004+46817+009850FM-12+159099999V0200301N002619999999N9999999N1-00601-00891999999ADDMA1999999083601MD1010021+9999ME1314659OA149900461REMSYN088AAXX  02114 06784 33/// /0305 11060 21089 38360 48465 50002 333 55300 20706 91109 91207;
0149067840999992011010212004+46817+009850FM-12+159099999V0200301N003119999999N9999999N1-00621-00861999999ADDMA1999999083571MD1710041+9999ME1314629OA149900461REMSYN088AAXX  02124 06784 33/// /0306 11062 21086 38357 48462 57004 333 55300 20554 91109 91207;
0149067840999992011010213004+46817+009850FM-12+159099999V0200301N003619999999N9999999N1-00611-00821999999ADDMA1999999083561MD1610081+9999ME1314619OA149900511REMSYN088AAXX  02134 06784 33/// /0307 11061 21082 38356 48461 56008 333 55300 20580 91110 91207;
0112067840999992011010214004+46817+009850FM-12+159099999V0209999C003119999999N9999999N1-00681-00771999999ADDMA1999999083581ME1314639REMSYN076AAXX  02144 06784 33/// /0006 11068 21077 38358 48463 5//// 333 553// 20335;
0149067840999992011010215004+46817+009850FM-12+159099999V0200201N005719999999N9999999N1-00731-00831999999ADDMA1999999083611MD1310041+9999ME1314679OA149900671REMSYN088AAXX  02154 06784 33/// /0211 11073 21083 38361 48467 53004 333 55300 20187 91113 91211;
0149067840999992011010216004+46817+009850FM-12+159099999V0200201N004619999999N9999999N1-00791-00811999999ADDMA1999999083651MD1310091+9999ME1314719OA149900671REMSYN088AAXX  02164 06784 33/// /0209 11079 21081 38365 48471 53009 333 55300 20032 91113 91211;
0149067840999992011010217004+46817+009850FM-12+159099999V0200101N004119999999N9999999N1-00791-00831999999ADDMA1999999083681MD1110101+9999ME1314739OA149900621REMSYN088AAXX  02174 06784 33/// /0108 11079 21083 38368 48473 51010 333 55300 20000 91112 91210;
0168067840999992011010218004+46817+009850FM-12+159099999V0200101N004119999999N9999999N1-00821-00821999999ADDKA1120M-00591MA1999999083711MD1110101+9999ME1314769OA149900671REMSYN094AAXX  02184 06784 33/// /0108 11082 21082 38371 48476 51010 333 11059 55300 20000 91113 91211;
0149067840999992011010219004+46817+009850FM-12+159099999V0200101N003619999999N9999999N1-00821+99999999999ADDMA1999999083731MD1110081+9999ME1314789OA149900571REMSYN088AAXX  02194 06784 33/// /0107 11082 21074 38373 48478 51008 333 55300 20000 91111 91209;
0149067840999992011010220004+46817+009850FM-12+159099999V0200101N003119999999N9999999N1-00891+99999999999ADDMA1999999083761MD1310081+9999ME1314819OA149900511REMSYN088AAXX  02204 06784 33/// /0106 11089 21080 38376 48481 53008 333 55300 20000 91110 91208;
0149067840999992011010221004+46817+009850FM-12+159099999V0203001N000519999999N9999999N1-01061-01121999999ADDMA1999999083791MD1110081+9999ME1314859OA149900621REMSYN088AAXX  02214 06784 33/// /3001 11106 21112 38379 48485 51008 333 55300 20000 91112 91210;
0149067840999992011010222004+46817+009850FM-12+159099999V0201001N001519999999N9999999N1-01051-01261999999ADDMA1999999083821MD1110091+9999ME1314889OA149900411REMSYN088AAXX  02224 06784 33/// /1003 11105 21126 38382 48488 51009 333 55300 20000 91108 91206;
0149067840999992011010223004+46817+009850FM-12+159099999V0201301N003619999999N9999999N1-01061-01441999999ADDMA1999999083821MD1210061+9999ME1314889OA149900511REMSYN088AAXX  02234 06784 33/// /1307 11106 21144 38382 48488 52006 333 55300 20000 91110 91207;
0149067840999992011010300004+46817+009850FM-12+159099999V0201001N001519999999N9999999N1-01121-01461999999ADDMA1999999083811MD1010021+9999ME1314879OA149900671REMSYN088AAXX  03004 06784 33/// /1003 11112 21146 38381 48487 50002 333 55300 20000 91113 91211;
0149067840999992011010301004+46817+009850FM-12+159099999V0201501N002619999999N9999999N1-01131-01441999999ADDMA1999999083811MD1510011+9999ME1314879OA149900571REMSYN088AAXX  03014 06784 33/// /1505 11113 21144 38381 48487 55001 333 55300 20000 91111 91208;
0149067840999992011010302004+46817+009850FM-12+159099999V0201301N002119999999N9999999N1-01131-01511999999ADDMA1999999083821MD1319999+9999ME1314889OA149900571REMSYN088AAXX  03024 06784 33/// /1304 11113 21151 38382 48488 53/// 333 55300 20000 91111 91208;
0096067840999992011010303004+46817+009850FM-12+159099999V0201301N002119999999N9999999N1-01321-01531999999ADDMA1999999083821ME1314899REMSYN060AAXX  03034 06784 43/// /1304 11132 21153 38382 48489 5////;
0149067840999992011010304004+46817+009850FM-12+159099999V0201901N001019999999N9999999N1-01481-01581999999ADDMA1999999083811MD1010001+9999ME1314889OA149900411REMSYN088AAXX  03044 06784 33/// /1902 11148 21158 38381 48488 50000 333 55300 20000 91108 91205;
0149067840999992011010305004+46817+009850FM-12+159099999V0201601N001519999999N9999999N1-01511-01621999999ADDMA1999999083831MD1210011+9999ME1314909OA149900311REMSYN088AAXX  03054 06784 33/// /1603 11151 21162 38383 48490 52001 333 55300 20000 91106 91204;
0216067840999992011010306004+46817+009850FM-12+159099999V0201801N001019999999N9999999N1-01581-01711999999ADDAL19900091GJ100009IA2999-01909KA1999N-01571MA1999999083831MD1210011+9999ME1314919OA149900571REMSYN112AAXX  03064 06784 33/// /1802 11158 21171 38383 48491 52001 333 21157 3/119 55000 55300 20000 70000 91111 91208;
0149067840999992011010307004+46817+009850FM-12+159099999V0201701N001019999999N9999999N1-01671-01821999999ADDMA1999999083831MD1210021+9999ME1314929OA149900311REMSYN088AAXX  03074 06784 33/// /1702 11167 21182 38383 48492 52002 333 55300 20000 91106 91203;
0149067840999992011010308004+46817+009850FM-12+159099999V0201601N000519999999N9999999N1-01691-02361999999ADDMA1999999083851MD1219999+9999ME1314949OA149900151REMSYN088AAXX  03084 06784 33/// /1601 11169 21236 38385 48494 52/// 333 55300 20036 91103 91202;
0112067840999992011010309004+46817+009850FM-12+159099999V0209999C000019999999N9999999N1-01591-02101999999ADDMA1999999083841ME1314939REMSYN076AAXX  03094 06784 33/// /0000 11159 21210 38384 48493 5//// 333 553// 20328;
0149067840999992011010310004+46817+009850FM-12+159099999V0209999C000019999999N9999999N1-01471-02091999999ADDMA1999999083841MD1210011+9999ME1314939OA149900101REMSYN088AAXX  03104 06784 33/// /0000 11147 21209 38384 48493 52001 333 553// 2//// 91102 91201;
0149067840999992011010311004+46817+009850FM-12+159099999V0200201N000519999999N9999999N1-01201-02241999999ADDMA1999999083791MD1710061+9999ME1314899OA149900101REMSYN088AAXX  03114 06784 33/// /0201 11120 21224 38379 48489 57006 333 553// 2//// 91102 91201;
0149067840999992011010312004+46817+009850FM-12+159099999V0200101N000519999999N9999999N1-01041-02121999999ADDMA1999999083731MD1810111+9999ME1314829OA149900571REMSYN088AAXX  03124 06784 33/// /0101 11104 21212 38373 48482 58011 333 553// 2//// 91111 91208;
0149067840999992011010313004+46817+009850FM-12+159099999V0201701N001019999999N9999999N1-00841-01691999999ADDMA1999999083691MD1710151+9999ME1314769OA149900211REMSYN088AAXX  03134 06784 33/// /1702 11084 21169 38369 48476 57015 333 553// 2//// 91104 91203;
0112067840999992011010314004+46817+009850FM-12+159099999V0201601N001019999999N9999999N1-00931-02001999999ADDMA1999999083691ME1314779REMSYN076AAXX  03144 06784 33/// /1602 11093 21200 38369 48477 5//// 333 553// 20983;
0112067840999992011010315004+46817+009850FM-12+159099999V0201801N001019999999N9999999N1-01091-02041999999ADDMA1999999083691ME1314779REMSYN076AAXX  03154 06784 33/// /1802 11109 21204 38369 48477 5//// 333 553// 20515;
0149067840999992011010316004+46817+009850FM-12+159099999V0209999C000019999999N9999999N1-01221-02311999999ADDMA1999999083711MD1310021+9999ME1314809OA149900151REMSYN088AAXX  03164 06784 33/// /0000 11122 21231 38371 48480 53002 333 55300 20022 91103 91202;
0149067840999992011010317004+46817+009850FM-12+159099999V0201901N000519999999N9999999N1-01341-02041999999ADDMA1999999083721MD1210031+9999ME1314819OA149900101REMSYN088AAXX  03174 06784 33/// /1901 11134 21204 38372 48481 52003 333 55300 20000 91102 91201;
0168067840999992011010318004+46817+009850FM-12+159099999V0209999C000019999999N9999999N1-01411-02351999999ADDKA1120M-00841MA1999999083731MD1110041+9999ME1314839OA149900211REMSYN094AAXX  03184 06784 33/// /0000 11141 21235 38373 48483 51004 333 11084 55300 20000 91104 91203;
0149067840999992011010319004+46817+009850FM-12+159099999V0200201N000519999999N9999999N1-01471-02401999999ADDMA1999999083701MD1810011+9999ME1314819OA149900101REMSYN088AAXX  03194 06784 33/// /0201 11147 21240 38370 48481 58001 333 55300 20000 91102 91201;
0149067840999992011010320004+46817+009850FM-12+159099999V0200301N000519999999N9999999N1-01531-02371999999ADDMA1999999083681MD1710041+9999ME1314799OA149900051REMSYN088AAXX  03204 06784 33/// /0301 11153 21237 38368 48479 57004 333 55300 20000 91101 91201;
0149067840999992011010321004+46817+009850FM-12+159099999V0209999C000019999999N9999999N1-01521-02511999999ADDMA1999999083671MD1610061+9999ME1314799OA149900101REMSYN088AAXX  03214 06784 33/// /0000 11152 21251 38367 48479 56006 333 55300 20000 91102 91201;
0149067840999992011010322004+46817+009850FM-12+159099999V0200101N000519999999N9999999N1-01511-02501999999ADDMA1999999083641MD1810061+9999ME1314769OA149900101REMSYN088AAXX  03224 06784 33/// /0101 11151 21250 38364 48476 58006 333 55300 20000 91102 91201;
0149067840999992011010323004+46817+009850FM-12+159099999V0209999C000519999999N9999999N1-01491-02481999999ADDMA1999999083601MD1610081+9999ME1314729OA149900101REMSYN088AAXX  03234 06784 33/// /0001 11149 21248 38360 48472 56008 333 55300 20000 91102 91201;
0149067840999992011010400004+46817+009850FM-12+159099999V0209999C000519999999N9999999N1-01441-02941999999ADDMA1999999083561MD1810111+9999ME1314699OA149900211REMSYN088AAXX  04004 06784 33/// /0001 11144 21294 38356 48469 58011 333 55300 20000 91104 91203;
0149067840999992011010401004+46817+009850FM-12+159099999V0200301N000519999999N9999999N1-01351-02621999999ADDMA1999999083521MD1610121+9999ME1314659OA149900101REMSYN088AAXX  04014 06784 33/// /0301 11135 21262 38352 48465 56012 333 55300 20000 91102 91201;
0149067840999992011010402004+46817+009850FM-12+159099999V0200301N000519999999N9999999N1-01311-02971999999ADDMA1999999083491MD1619999+9999ME1314629OA149900101REMSYN088AAXX  04024 06784 33/// /0301 11131 21297 38349 48462 56/// 333 55300 20000 91102 91201;
0149067840999992011010403004+46817+009850FM-12+159099999V0200201N000519999999N9999999N1-01241-02891999999ADDMA1999999083471MD1610091+9999ME1314609OA149900101REMSYN088AAXX  04034 06784 33/// /0201 11124 21289 38347 48460 56009 333 55300 20000 91102 91201;
0149067840999992011010404004+46817+009850FM-12+159099999V0209999C000519999999N9999999N1-01171-02721999999ADDMA1999999083441MD1610081+9999ME1314579OA149900151REMSYN088AAXX  04044 06784 33/// /0001 11117 21272 38344 48457 56008 333 55300 20000 91103 91201;
0149067840999992011010405004+46817+009850FM-12+159099999V0200101N000519999999N9999999N1-01081-02851999999ADDMA1999999083441MD1710051+9999ME1314569OA149900151REMSYN088AAXX  04054 06784 33/// /0101 11108 21285 38344 48456 57005 333 55300 20000 91103 91201;
0216067840999992011010406004+46817+009850FM-12+159099999V0209999C000519999999N9999999N1-01061-03031999999ADDAL19900091GJ103789IA2999-02009KA1999N-01581MA1999999083451MD1710021+9999ME1314569OA149900151REMSYN112AAXX  04064 06784 33/// /0001 11106 21303 38345 48456 57002 333 21158 3/120 55063 55300 20000 70000 91103 91201;
0149067840999992011010407004+46817+009850FM-12+159099999V0200301N000519999999N9999999N1-01191-02491999999ADDMA1999999083471MD1210031+9999ME1314589OA149900151REMSYN088AAXX  04074 06784 33/// /0301 11119 21249 38347 48458 52003 333 55300 20000 91103 91201;
0149067840999992011010408004+46817+009850FM-12+159099999V0203601N000519999999N9999999N1-01201-02731999999ADDMA1999999083471MD1219999+9999ME1314609OA149900151REMSYN088AAXX  04084 06784 33/// /3601 11120 21273 38347 48460 52/// 333 55300 20047 91103 91202;
0112067840999992011010409004+46817+009850FM-12+159099999V0209999C000519999999N9999999N1-01161-02511999999ADDMA1999999083471ME1314589REMSYN076AAXX  04094 06784 33/// /0001 11116 21251 38347 48458 5//// 333 553// 20137;
0149067840999992011010410004+46817+009850FM-12+159099999V0209999C000019999999N9999999N1-01011-02031999999ADDMA1999999083491MD1210021+9999ME1314589OA149900101REMSYN088AAXX  04104 06784 33/// /0000 11101 21203 38349 48458 52002 333 55300 20504 91102 91202;
0149067840999992011010411004+46817+009850FM-12+159099999V0200801N000519999999N9999999N1-00811-02081999999ADDMA1999999083421MD1810051+9999ME1314519OA149900101REMSYN088AAXX  04114 06784 33/// /0801 11081 21208 38342 48451 58005 333 55307 2//// 91102 91202;
0149067840999992011010412004+46817+009850FM-12+159099999V0200201N001019999999N9999999N1-00581-01941999999ADDMA1999999083361MD1710111+9999ME1314449OA149900211REMSYN088AAXX  04124 06784 33/// /0202 11058 21194 38336 48444 57011 333 55309 2//// 91104 91203;
0149067840999992011010413004+46817+009850FM-12+159099999V0201401N002619999999N9999999N1-00571-01721999999ADDMA1999999083341MD1610151+9999ME1314419OA149900311REMSYN088AAXX  04134 06784 33/// /1405 11057 21172 38334 48441 56015 333 553// 2//// 91106 91205;
0112067840999992011010414004+46817+009850FM-12+159099999V0201401N003119999999N9999999N1-00621-01971999999ADDMA1999999083341ME1314419REMSYN076AAXX  04144 06784 33/// /1406 11062 21197 38334 48441 5//// 333 553// 20979;
0096067840999992011010415004+46817+009850FM-12+159099999V0201601N001019999999N9999999N1-00651-02561999999ADDMA1999999083341ME1314439REMSYN060AAXX  04154 06784 43/// /1602 11065 21256 38334 48443 5////;
0149067840999992011010416004+46817+009850FM-12+159099999V0201701N001519999999N9999999N1-00961-02351999999ADDMA1999999083361MD1210021+9999ME1314459OA149900511REMSYN088AAXX  04164 06784 33/// /1703 11096 21235 38336 48445 52002 333 55300 20025 91110 91207;
0149067840999992011010417004+46817+009850FM-12+159099999V0202201N001519999999N9999999N1-01011-02371999999ADDMA1999999083361MD1210021+9999ME1314469OA149900311REMSYN088AAXX  04174 06784 33/// /2203 11101 21237 38336 48446 52002 333 55300 20000 91106 91203;
0168067840999992011010418004+46817+009850FM-12+159099999V0202201N002119999999N9999999N1-01161-02531999999ADDKA1120M-00481MA1999999083371MD1210031+9999ME1314479OA149900511REMSYN094AAXX  04184 06784 33/// /2204 11116 21253 38337 48447 52003 333 11048 55300 20000 91110 91207;
0149067840999992011010419004+46817+009850FM-12+159099999V0202101N001519999999N9999999N1-01241-02111999999ADDMA1999999083361MD1010001+9999ME1314469OA149900311REMSYN088AAXX  04194 06784 33/// /2103 11124 21211 38336 48446 50000 333 55300 20000 91106 91204;
0149067840999992011010420004+46817+009850FM-12+159099999V0201701N000519999999N9999999N1-01161-02651999999ADDMA1999999083341MD1710021+9999ME1314479OA149900261REMSYN088AAXX  04204 06784 33/// /1701 11116 21265 38334 48447 57002 333 55300 20000 91105 91204;
0149067840999992011010421004+46817+009850FM-12+159099999V0209999C000019999999N9999999N1-01301-02561999999ADDMA1999999083331MD1810041+9999ME1314469OA149900311REMSYN088AAXX  04214 06784 33/// /0000 11130 21256 38333 48446 58004 333 55300 20000 91106 91204;
0149067840999992011010422004+46817+009850FM-12+159099999V0200201N000519999999N9999999N1-01361-02611999999ADDMA1999999083321MD1610041+9999ME1314469OA149900151REMSYN088AAXX  04224 06784 33/// /0201 11136 21261 38332 48446 56004 333 55300 20000 91103 91202;
0149067840999992011010423004+46817+009850FM-12+159099999V0200101N000519999999N9999999N1-01361-02241999999ADDMA1999999083311MD1710031+9999ME1314459OA149900101REMSYN088AAXX  04234 06784 33/// /0101 11136 21224 38331 48445 57003 333 55300 20000 91102 91201;
0149067840999992011010500004+46817+009850FM-12+159099999V0200101N000519999999N9999999N1-01391-02421999999ADDMA1999999083261MD1710071+9999ME1314409OA149900511REMSYN088AAXX  05004 06784 33/// /0101 11139 21242 38326 48440 57007 333 55300 20000 91110 91207;
0149067840999992011010501004+46817+009850FM-12+159099999V0209999C000019999999N9999999N1-01451-02441999999ADDMA1999999083271MD1710051+9999ME1314419OA149900101REMSYN088AAXX  05014 06784 33/// /0000 11145 21244 38327 48441 57005 333 55300 20000 91102 91201;
0149067840999992011010502004+46817+009850FM-12+159099999V0200101N000519999999N9999999N1-01341-02511999999ADDMA1999999083271MD1510041+9999ME1314439OA149900101REMSYN088AAXX  05024 06784 33/// /0101 11134 21251 38327 48443 55004 333 55300 20000 91102 91201;
0096067840999992011010503004+46817+009850FM-12+159099999V0209999C000019999999N9999999N1-01431-02151999999ADDMA1999999083241ME1314399REMSYN060AAXX  05034 06784 43/// /0000 11143 21215 38324 48439 5////;
0149067840999992011010504004+46817+009850FM-12+159099999V0200101N000519999999N9999999N1-01431-02341999999ADDMA1999999083241MD1710031+9999ME1314409OA149900101REMSYN088AAXX  05044 06784 33/// /0101 11143 21234 38324 48440 57003 333 55300 20000 91102 91202;
0149067840999992011010505004+46817+009850FM-12+159099999V0209999C000519999999N9999999N1-01331-02471999999ADDMA1999999083241MD1710031+9999ME1314409OA149900101REMSYN088AAXX  05054 06784 33/// /0001 11133 21247 38324 48440 57003 333 55300 20000 91102 91202;
0216067840999992011010506004+46817+009850FM-12+159099999V0209999C000019999999N9999999N1-01331-02381999999ADDAL19900091GJ102709IA2999-02009KA1999N-01491MA1999999083271MD1210031+9999ME1314429OA149900261REMSYN112AAXX  05064 06784 33/// /0000 11133 21238 38327 48442 52003 333 21149 3/120 55045 55300 20000 70000 91105 91204;
0149067840999992011010507004+46817+009850FM-12+159099999V0209999C000019999999N9999999N1-01361-02441999999ADDMA1999999083311MD1210071+9999ME1314459OA149900101REMSYN088AAXX  05074 06784 33/// /0000 11136 21244 38331 48445 52007 333 55300 20000 91102 91201;
0149067840999992011010508004+46817+009850FM-12+159099999V0209999C000019999999N9999999N1-01371-02571999999ADDMA1999999083331MD1219999+9999ME1314489OA149900101REMSYN088AAXX  05084 06784 33/// /0000 11137 21257 38333 48448 52/// 333 55300 20036 91102 91201;
0149067840999992011010509004+46817+009850FM-12+159099999V0203501N000519999999N9999999N1-01261-02501999999ADDMA1999999083351MD1210081+9999ME1314499OA149900101REMSYN088AAXX  05094 06784 33/// /3501 11126 21250 38335 48449 52008 333 55303 20328 91102 91202;
0149067840999992011010510004+46817+009850FM-12+159099999V0209999C000019999999N9999999N1-01061-02201999999ADDMA1999999083351MD1210041+9999ME1314489OA149900101REMSYN088AAXX  05104 06784 33/// /0000 11106 21220 38335 48448 52004 333 553// 2//// 91102 91201;
0149067840999992011010511004+46817+009850FM-12+159099999V0209999C000019999999N9999999N1-00891-01621999999ADDMA1999999083311MD1810021+9999ME1314419OA149900101REMSYN088AAXX  05114 06784 33/// /0000 11089 21162 38331 48441 58002 333 553// 2//// 91102 91201;
0112067840999992011010512004+46817+009850FM-12+159099999V0209999C000019999999N9999999N1-00611-02121999999ADDMA1999999083241ME1314359REMSYN076AAXX  05124 06784 33/// /0000 11061 21212 38324 48435 5//// 333 553// 2////;
0149067840999992011010513004+46817+009850FM-12+159099999V0203501N000519999999N9999999N1-00471-02331999999ADDMA1999999083231MD1710121+9999ME1314349OA149900151REMSYN088AAXX  05134 06784 33/// /3501 11047 21233 38323 48434 57012 333 553// 2//// 91103 91201;
0096067840999992011010514004+46817+009850FM-12+159099999V0202001N001019999999N9999999N1-00511-01701999999ADDMA1999999083251ME1314339REMSYN060AAXX  05144 06784 43/// /2002 11051 21170 38325 48433 5////;
0096067840999992011010515004+46817+009850FM-12+159099999V0202001N001019999999N9999999N1-00531-01731999999ADDMA1999999083301ME1314379REMSYN060AAXX  05154 06784 43/// /2002 11053 21173 38330 48437 5////;
0149067840999992011010516004+46817+009850FM-12+159099999V0202101N001519999999N9999999N1-00611-02001999999ADDMA1999999083341MD1310111+9999ME1314429OA149900261REMSYN088AAXX  05164 06784 33/// /2103 11061 21200 38334 48442 53011 333 55300 20032 91105 91203;
0149067840999992011010517004+46817+009850FM-12+159099999V0202101N002119999999N9999999N1-00701-01631999999ADDMA1999999083361MD1210111+9999ME1314459OA149900261REMSYN088AAXX  05174 06784 33/// /2104 11070 21163 38336 48445 52011 333 55300 20000 91105 91204;
0168067840999992011010518004+46817+009850FM-12+159099999V0202101N001519999999N9999999N1-00681-01791999999ADDKA1120M-00371MA1999999083301MD1819999+9999ME1314399OA149900261REMSYN094AAXX  05184 06784 33/// /2103 11068 21179 38330 48439 58/// 333 11037 55300 20000 91105 91204;
0149067840999992011010519004+46817+009850FM-12+159099999V0201901N002119999999N9999999N1-00821-01931999999ADDMA1999999083291MD1710051+9999ME1314399OA149900311REMSYN088AAXX  05194 06784 33/// /1904 11082 21193 38329 48439 57005 333 55300 20000 91106 91204;
0149067840999992011010520004+46817+009850FM-12+159099999V0201901N000519999999N9999999N1-00901-02141999999ADDMA1999999083331MD1519999+9999ME1314459OA149900311REMSYN088AAXX  05204 06784 33/// /1901 11090 21214 38333 48445 55/// 333 55300 20000 91106 91204;
0112067840999992011010521004+46817+009850FM-12+159099999V0202201N001519999999N9999999N1-00761-01791999999ADDMA1999999083311ME1314419REMSYN076AAXX  05214 06784 33/// /2203 11076 21179 38331 48441 5//// 333 553// 20000;
0149067840999992011010522004+46817+009850FM-12+159099999V0201701N000519999999N9999999N1-00761-02001999999ADDMA1999999083301MD1010011+9999ME1314419OA149900311REMSYN088AAXX  05224 06784 33/// /1701 11076 21200 38330 48441 50001 333 55300 20000 91106 91204;
0149067840999992011010523004+46817+009850FM-12+159099999V0202301N002619999999N9999999N1-00811-02131999999ADDMA1999999083291MD1719999+9999ME1314389OA149900411REMSYN088AAXX  05234 06784 33/// /2305 11081 21213 38329 48438 57/// 333 55300 20000 91108 91205;
0096067840999992011010600004+46817+009850FM-12+159099999V0202701N000519999999N9999999N1-00851-02261999999ADDMA1999999083301ME1314419REMSYN060AAXX  06004 06784 43/// /2701 11085 21226 38330 48441 5////;
0096067840999992011010601004+46817+009850FM-12+159099999V0200301N000519999999N9999999N1-00761-01801999999ADDMA1999999083291ME1314409REMSYN060AAXX  06014 06784 43/// /0301 11076 21180 38329 48440 5////;
0096067840999992011010602004+46817+009850FM-12+159099999V0202201N002619999999N9999999N1-00841-01371999999ADDMA1999999083281ME1314379REMSYN060AAXX  06024 06784 43/// /2205 11084 21137 38328 48437 5////;
0096067840999992011010603004+46817+009850FM-12+159099999V0202301N002119999999N9999999N1-00741-01241999999ADDMA1999999083251ME1314339REMSYN060AAXX  06034 06784 43/// /2304 11074 21124 38325 48433 5////;
0096067840999992011010604004+46817+009850FM-12+159099999V0202301N002119999999N9999999N1-00491-01561999999ADDMA1999999083211ME1314309REMSYN060AAXX  06044 06784 43/// /2304 11049 21156 38321 48430 5////;
0096067840999992011010605004+46817+009850FM-12+159099999V0201901N000519999999N9999999N1-00461-01491999999ADDMA1999999083221ME1314319REMSYN060AAXX  06054 06784 43/// /1901 11046 21149 38322 48431 5////;
0143067840999992011010606004+46817+009850FM-12+159099999V0202401N003119999999N9999999N1-00371-01211999999ADDIA2999-01209KA1999N-01001MA1999999083261ME1314329REMSYN082AAXX  06064 06784 43/// /2406 11037 21121 38326 48432 5//// 333 21100 3/112 55063;
0096067840999992011010607004+46817+009850FM-12+159099999V0202101N001019999999N9999999N1-00281-01441999999ADDMA1999999083291ME1314369REMSYN060AAXX  06074 06784 43/// /2102 11028 21144 38329 48436 5////;
0112067840999992011010608004+46817+009850FM-12+159099999V0202301N003619999999N9999999N1-00281-01061999999ADDMA1999999083321ME1314379REMSYN076AAXX  06084 06784 33/// /2307 11028 21106 38332 48437 5//// 333 553// 20054;
0096067840999992011010609004+46817+009850FM-12+159099999V0202301N003119999999N9999999N1-00231-01111999999ADDMA1999999083321ME1314379REMSYN060AAXX  06094 06784 43/// /2306 11023 21111 38332 48437 5////;
0149067840999992011010610004+46817+009850FM-12+159099999V0202201N002119999999N9999999N1-00131-01041999999ADDMA1999999083321MD1210031+9999ME1314369OA149900411REMSYN088AAXX  06104 06784 33/// /2204 11013 21104 38332 48436 52003 333 55303 20605 91108 91207;
0149067840999992011010611004+46817+009850FM-12+159099999V0201801N003619999999N9999999N1+00131-00961999999ADDMA1999999083301MD1810021+9999ME1314339OA149900571REMSYN088AAXX  06114 06784 33/// /1807 10013 21096 38330 48433 58002 333 553// 2//// 91111 91208;
0149067840999992011010612004+46817+009850FM-12+159099999V0202001N003119999999N9999999N1+00271-00871999999ADDMA1999999083301MD1710021+9999ME1314329OA149900671REMSYN088AAXX  06124 06784 33/// /2006 10027 21087 38330 48432 57002 333 553// 2//// 91113 91208;
0149067840999992011010613004+46817+009850FM-12+159099999V0201901N002619999999N9999999N1+00311-00651999999ADDMA1999999083311MD1510011+9999ME1314339OA149900671REMSYN088AAXX  06134 06784 33/// /1905 10031 21065 38331 48433 55001 333 55302 20911 91113 91208;
0096067840999992011010614004+46817+009850FM-12+159099999V0201601N003119999999N9999999N1+00381-00531999999ADDMA1999999083331ME1314349REMSYN060AAXX  06144 06784 43/// /1606 10038 21053 38333 48434 5////;
0096067840999992011010615004+46817+009850FM-12+159099999V0201901N002119999999N9999999N1+00291-00421999999ADDMA1999999083361ME1314379REMSYN060AAXX  06154 06784 43/// /1904 10029 21042 38336 48437 5////;
0149067840999992011010616004+46817+009850FM-12+159099999V0201901N002119999999N9999999N1+00161-00391999999ADDMA1999999083381MD1210071+9999ME1314409OA149900571REMSYN088AAXX  06164 06784 33/// /1904 10016 21039 38338 48440 52007 333 55300 20032 91111 91207;
0149067840999992011010617004+46817+009850FM-12+159099999V0201601N002619999999N9999999N1+00121-00421999999ADDMA1999999083391MD1210061+9999ME1314429OA149900511REMSYN088AAXX  06174 06784 33/// /1605 10012 21042 38339 48442 52006 333 55300 20000 91110 91205;
0187067840999992011010618004+46817+009850FM-12+159099999V0201701N002619999999N9999999N1+00071-00401999999ADDKA1120M+00381MA1999999083361MD1410001+9999ME1314399OA149900671REMSYN094AAXX  06184 06784 33/// /1705 10007 21040 38336 48439 58000 333 10038 55300 20000 91113 91208;EQDQ01+000082APCTEN
0149067840999992011010619004+46817+009850FM-12+159099999V0201601N002619999999N9999999N1+00111-00321999999ADDMA1999999083401MD1310021+9999ME1314429OA149900571REMSYN088AAXX  06194 06784 33/// /1605 10011 21032 38340 48442 53002 333 55300 20000 91111 91208;
0149067840999992011010620004+46817+009850FM-12+159099999V0209999C000019999999N9999999N1+00111-00331999999ADDMA1999999083491MD1219999+9999ME1314519OA149900511REMSYN088AAXX  06204 06784 33/// /0000 10011 21033 38349 48451 52/// 333 55300 20000 91110 91206;
0149067840999992011010621004+46817+009850FM-12+159099999V0203501N000519999999N9999999N1+00051-00361999999ADDMA1999999083531MD1219999+9999ME1314559OA149900571REMSYN088AAXX  06214 06784 33/// /3501 10005 21036 38353 48455 52/// 333 55300 20000 91111 91208;
0149067840999992011010622004+46817+009850FM-12+159099999V0202101N001519999999N9999999N1+00131-00181999999ADDMA1999999083551MD1110151+9999ME1314579OA149900261REMSYN088AAXX  06224 06784 33/// /2103 10013 21018 38355 48457 51015 333 55300 20000 91105 91203;
0112067840999992011010623004+46817+009850FM-12+159099999V0209999C000019999999N9999999N1+00081-00171999999ADDMA1999999083611ME1314639REMSYN076AAXX  06234 06784 33/// /0000 10008 21017 38361 48463 5//// 333 553// 20000;
0096067840999992011010700004+46817+009850FM-12+159099999V0202101N002119999999N9999999N1+00151-00211999999ADDMA1999999083601ME1314629REMSYN060AAXX  07004 06784 43/// /2104 10015 21021 38360 48462 5////;
0096067840999992011010701004+46817+009850FM-12+159099999V0202201N001519999999N9999999N1+00051-00141999999ADDMA1999999083611ME1314639REMSYN060AAXX  07014 06784 43/// /2203 10005 21014 38361 48463 5////;
0096067840999992011010702004+46817+009850FM-12+159099999V0202501N001019999999N9999999N1+00101-00281999999ADDMA1999999083641ME1314669REMSYN060AAXX  07024 06784 43/// /2502 10010 21028 38364 48466 5////;
0096067840999992011010703004+46817+009850FM-12+159099999V0202201N002119999999N9999999N1+00071-00261999999ADDMA1999999083681ME1314709REMSYN060AAXX  07034 06784 43/// /2204 10007 21026 38368 48470 5////;
0149067840999992011010704004+46817+009850FM-12+159099999V0202401N001519999999N9999999N1-00011-00241999999ADDMA1999999083661MD1210051+9999ME1314689OA149900361REMSYN088AAXX  07044 06784 33/// /2403 11001 21024 38366 48468 52005 333 55300 20000 91107 91204;
0149067840999992011010705004+46817+009850FM-12+159099999V0209999C000019999999N9999999N1-00041-00381999999ADDMA1999999083651MD1010011+9999ME1314689OA149900261REMSYN088AAXX  07054 06784 33/// /0000 11004 21038 38365 48468 50001 333 55300 20000 91105 91204;
0216067840999992011010706004+46817+009850FM-12+159099999V0200101N000519999999N9999999N1+00011-00371999999ADDAL19900091GJ101689IA2999-00209KA1999N-00081MA1999999083701MD1310021+9999ME1314729OA149900511REMSYN112AAXX  07064 06784 33/// /0101 10001 21037 38370 48472 53002 333 21008 3/102 55028 55300 20000 70000 91110 91206;
0149067840999992011010707004+46817+009850FM-12+159099999V0209999C000019999999N9999999N1-00041-00331999999ADDMA1999999083781MD1210121+9999ME1314809OA149900211REMSYN088AAXX  07074 06784 33/// /0000 11004 21033 38378 48480 52012 333 55300 20000 91104 91203;
0112067840999992011010708004+46817+009850FM-12+159099999V0201301N000519999999N9999999N1+00101-00321999999ADDMA1999999083801ME1314829REMSYN076AAXX  07084 06784 33/// /1301 10010 21032 38380 48482 5//// 333 553// 20076;
0096067840999992011010709004+46817+009850FM-12+159099999V0209999C000019999999N9999999N1+00151-00401999999ADDMA1999999083801ME1314829REMSYN060AAXX  07094 06784 43/// /0000 10015 21040 38380 48482 5////;
0149067840999992011010710004+46817+009850FM-12+159099999V0202101N001519999999N9999999N1+00331-00061999999ADDMA1999999083811MD1210031+9999ME1314819OA149900311REMSYN088AAXX  07104 06784 33/// /2103 10033 21006 38381 48481 52003 333 553// 2//// 91106 91204;
0149067840999992011010711004+46817+009850FM-12+159099999V0202201N001519999999N9999999N1+00551-00171999999ADDMA1999999083791MD1810011+9999ME1314789OA149900361REMSYN088AAXX  07114 06784 33/// /2203 10055 21017 38379 48478 58001 333 55303 20817 91107 91204;
0149067840999992011010712004+46817+009850FM-12+159099999V0202101N002619999999N9999999N1+00621-00091999999ADDMA1999999083771MD1810031+9999ME1314769OA149900511REMSYN088AAXX  07124 06784 33/// /2105 10062 21009 38377 48476 58003 333 55300 20695 91110 91206;
0149067840999992011010713004+46817+009850FM-12+159099999V0202001N003119999999N9999999N1+00681-00091999999ADDMA1999999083771MD1710041+9999ME1314769OA149900671REMSYN088AAXX  07134 06784 33/// /2006 10068 21009 38377 48476 57004 333 55301 20806 91113 91207;
0096067840999992011010714004+46817+009850FM-12+159099999V0201901N002619999999N9999999N1+00621-00071999999ADDMA1999999083781ME1314779REMSYN060AAXX  07144 06784 43/// /1905 10062 21007 38378 48477 5////;
0096067840999992011010715004+46817+009850FM-12+159099999V0202201N001019999999N9999999N1+00601-00061999999ADDMA1999999083821ME1314819REMSYN060AAXX  07154 06784 43/// /2202 10060 21006 38382 48481 5////;
0149067840999992011010716004+46817+009850FM-12+159099999V0201901N001019999999N9999999N1+00541-00101999999ADDMA1999999083861MD1210091+9999ME1314859OA149900411REMSYN088AAXX  07164 06784 33/// /1902 10054 21010 38386 48485 52009 333 55300 20047 91108 91204;
0149067840999992011010717004+46817+009850FM-12+159099999V0202001N002619999999N9999999N1+00451-00021999999ADDMA1999999083861MD1210081+9999ME1314859OA149900461REMSYN088AAXX  07174 06784 33/// /2005 10045 21002 38386 48485 52008 333 55300 20000 91109 91205;
0131067840999992011010718004+46817+009850FM-12+159099999V0202301N003119999999N9999999N1+00431-00031999999ADDKA1120M+00731MA1999999083881ME1314879REMSYN082AAXX  07184 06784 33/// /2306 10043 21003 38388 48487 5//// 333 10073 553// 20000;
0149067840999992011010719004+46817+009850FM-12+159099999V0202301N002119999999N9999999N1+00421-00041999999ADDMA1999999083891MD1319999+9999ME1314889OA149900671REMSYN088AAXX  07194 06784 33/// /2304 10042 21004 38389 48488 53/// 333 55300 20000 91113 91207;
0096067840999992011010720004+46817+009850FM-12+159099999V0202101N002619999999N9999999N1+00411-00041999999ADDMA1999999083901ME1314909REMSYN060AAXX  07204 06784 43/// /2105 10041 21004 38390 48490 5////;
0096067840999992011010721004+46817+009850FM-12+159099999V0201701N002119999999N9999999N1+00321+00021999999ADDMA1999999083881ME1314889REMSYN060AAXX  07214 06784 43/// /1704 10032 20002 38388 48488 5////;
0149067840999992011010722004+46817+009850FM-12+159099999V0201801N002119999999N9999999N1+00371-00091999999ADDMA1999999083861MD1710031+9999ME1314869OA149900461REMSYN088AAXX  07224 06784 33/// /1804 10037 21009 38386 48486 57003 333 55300 20000 91109 91205;
0112067840999992011010723004+46817+009850FM-12+159099999V0201701N001019999999N9999999N1+00371-00071999999ADDMA1999999083841ME1314849REMSYN076AAXX  07234 06784 33/// /1702 10037 21007 38384 48484 5//// 333 553// 20000;
0112067840999992011010800004+46817+009850FM-12+159099999V0202301N002119999999N9999999N1+00361-00041999999ADDMA1999999083811ME1314819REMSYN076AAXX  08004 06784 33/// /2304 10036 21004 38381 48481 5//// 333 553// 20000;
0096067840999992011010801004+46817+009850FM-12+159099999V0202101N003619999999N9999999N1+00421-00041999999ADDMA1999999083791ME1314789REMSYN060AAXX  08014 06784 43/// /2107 10042 21004 38379 48478 5////;
0096067840999992011010802004+46817+009850FM-12+159099999V0200601N000519999999N9999999N1+00441-00291999999ADDMA1999999083801ME1314809REMSYN060AAXX  08024 06784 43/// /0601 10044 21029 38380 48480 5////;
0096067840999992011010803004+46817+009850FM-12+159099999V0201901N001519999999N9999999N1+00431-00341999999ADDMA1999999083791ME1314799REMSYN060AAXX  08034 06784 43/// /1903 10043 21034 38379 48479 5////;
0096067840999992011010804004+46817+009850FM-12+159099999V0202301N002119999999N9999999N1+00441-00181999999ADDMA1999999083801ME1314809REMSYN060AAXX  08044 06784 43/// /2304 10044 21018 38380 48480 5////;
0096067840999992011010805004+46817+009850FM-12+159099999V0202001N002619999999N9999999N1+00371-00111999999ADDMA1999999083801ME1314809REMSYN060AAXX  08054 06784 43/// /2005 10037 21011 38380 48480 5////;
0143067840999992011010806004+46817+009850FM-12+159099999V0201701N001019999999N9999999N1+00331-00191999999ADDIA2999+00209KA1999N+00271MA1999999083781ME1314789REMSYN082AAXX  08064 06784 43/// /1702 10033 21019 38378 48478 5//// 333 20027 3/002 55017;
0096067840999992011010807004+46817+009850FM-12+159099999V0202201N001519999999N9999999N1+00271-00161999999ADDMA1999999083801ME1314809REMSYN060AAXX  08074 06784 43/// /2203 10027 21016 38380 48480 5////;
0112067840999992011010808004+46817+009850FM-12+159099999V0209999C000019999999N9999999N1+00271-00231999999ADDMA1999999083841ME1314859REMSYN076AAXX  08084 06784 33/// /0000 10027 21023 38384 48485 5//// 333 553// 20040;
0096067840999992011010809004+46817+009850FM-12+159099999V0203301N000519999999N9999999N1+00371-00271999999ADDMA1999999083881ME1314889REMSYN060AAXX  08094 06784 43/// /3301 10037 21027 38388 48488 5////;
0096067840999992011010810004+46817+009850FM-12+159099999V0202801N000519999999N9999999N1+00441-00151999999ADDMA1999999083871ME1314879REMSYN060AAXX  08104 06784 43/// /2801 10044 21015 38387 48487 5////;
0096067840999992011010811004+46817+009850FM-12+159099999V0202001N002619999999N9999999N1+00581-00221999999ADDMA1999999083821ME1314819REMSYN060AAXX  08114 06784 43/// /2005 10058 21022 38382 48481 5////;
0096067840999992011010812004+46817+009850FM-12+159099999V0202001N003119999999N9999999N1+00591-00241999999ADDMA1999999083811ME1314809REMSYN060AAXX  08124 06784 43/// /2006 10059 21024 38381 48480 5////;
0096067840999992011010813004+46817+009850FM-12+159099999V0202101N003119999999N9999999N1+00661-00271999999ADDMA1999999083791ME1314789REMSYN060AAXX  08134 06784 43/// /2106 10066 21027 38379 48478 5////;
0096067840999992011010814004+46817+009850FM-12+159099999V0202101N002619999999N9999999N1+00621-00301999999ADDMA1999999083801ME1314799REMSYN060AAXX  08144 06784 43/// /2105 10062 21030 38380 48479 5////;
0096067840999992011010815004+46817+009850FM-12+159099999V0202301N002119999999N9999999N1+00411-00241999999ADDMA1999999083851ME1314849REMSYN060AAXX  08154 06784 43/// /2304 10041 21024 38385 48484 5////;
0096067840999992011010816004+46817+009850FM-12+159099999V0202201N002119999999N9999999N1+00291-00351999999ADDMA1999999083881ME1314889REMSYN060AAXX  08164 06784 43/// /2204 10029 21035 38388 48488 5////;
0096067840999992011010817004+46817+009850FM-12+159099999V0202001N002619999999N9999999N1+00121-00331999999ADDMA1999999083921ME1314929REMSYN060AAXX  08174 06784 43/// /2005 10012 21033 38392 48492 5////;
0096067840999992011010818004+46817+009850FM-12+159099999V0202101N003119999999N9999999N1+00101-00391999999ADDMA1999999083921ME1314939REMSYN060AAXX  08184 06784 43/// /2106 10010 21039 38392 48493 5////;
0096067840999992011010819004+46817+009850FM-12+159099999V0202201N002619999999N9999999N1+00031-00411999999ADDMA1999999083881ME1314899REMSYN060AAXX  08194 06784 43/// /2205 10003 21041 38388 48489 5////;
0096067840999992011010820004+46817+009850FM-12+159099999V0201901N004119999999N9999999N1-00041-00361999999ADDMA1999999083901ME1314919REMSYN060AAXX  08204 06784 43/// /1908 11004 21036 38390 48491 5////;
0096067840999992011010821004+46817+009850FM-12+159099999V0202201N002619999999N9999999N1+00071-00531999999ADDMA1999999083901ME1314919REMSYN060AAXX  08214 06784 43/// /2205 10007 21053 38390 48491 5////;
0096067840999992011010822004+46817+009850FM-12+159099999V0202301N002119999999N9999999N1-00061-00421999999ADDMA1999999083911ME1314929REMSYN060AAXX  08224 06784 43/// /2304 11006 21042 38391 48492 5////;
0096067840999992011010823004+46817+009850FM-12+159099999V0202201N001519999999N9999999N1-00101-00321999999ADDMA1999999083901ME1314919REMSYN060AAXX  08234 06784 43/// /2203 11010 21032 38390 48491 5////;
0096067840999992011010900004+46817+009850FM-12+159099999V0202201N002119999999N9999999N1-00131-00431999999ADDMA1999999083901ME1314929REMSYN060AAXX  09004 06784 43/// /2204 11013 21043 38390 48492 5////;
0096067840999992011010901004+46817+009850FM-12+159099999V0202201N002119999999N9999999N1+00021-00511999999ADDMA1999999083881ME1314899REMSYN060AAXX  09014 06784 43/// /2204 10002 21051 38388 48489 5////;
0096067840999992011010902004+46817+009850FM-12+159099999V0202001N002619999999N9999999N1-00071-00401999999ADDMA1999999083881ME1314899REMSYN060AAXX  09024 06784 43/// /2005 11007 21040 38388 48489 5////;
0096067840999992011010903004+46817+009850FM-12+159099999V0202201N001519999999N9999999N1-00201-00401999999ADDMA1999999083871ME1314899REMSYN060AAXX  09034 06784 43/// /2203 11020 21040 38387 48489 5////;
0096067840999992011010904004+46817+009850FM-12+159099999V0201801N001019999999N9999999N1-00161-00621999999ADDMA1999999083841ME1314869REMSYN060AAXX  09044 06784 43/// /1802 11016 21062 38384 48486 5////;
0096067840999992011010905004+46817+009850FM-12+159099999V0202701N000519999999N9999999N1-00191-00671999999ADDMA1999999083791ME1314829REMSYN060AAXX  09054 06784 43/// /2701 11019 21067 38379 48482 5////;
0106067840999992011010906004+46817+009850FM-12+159099999V0209999C000519999999N9999999N1-00271-00661999999ADDMA1999999083801ME1314839REMSYN070AAXX  09064 06784 43/// /0001 11027 21066 38380 48483 5//// 333 55026;
0096067840999992011010907004+46817+009850FM-12+159099999V0203501N000519999999N9999999N1-00151-00821999999ADDMA1999999083801ME1314849REMSYN060AAXX  09074 06784 43/// /3501 11015 21082 38380 48484 5////;
0112067840999992011010908004+46817+009850FM-12+159099999V0202001N003119999999N9999999N1+00021-00381999999ADDMA1999999083791ME1314809REMSYN076AAXX  09084 06784 33/// /2006 10002 21038 38379 48480 5//// 333 553// 20094;
0112067840999992011010909004+46817+009850FM-12+159099999V0202101N002619999999N9999999N1+00271-00441999999ADDMA1999999083821ME1314829REMSYN076AAXX  09094 06784 33/// /2105 10027 21044 38382 48482 5//// 333 553// 20446;
0149067840999992011010910004+46817+009850FM-12+159099999V0201801N004619999999N9999999N1+00581-00421999999ADDMA1999999083811MD1210011+9999ME1314809OA149900721REMSYN088AAXX  09104 06784 33/// /1809 10058 21042 38381 48480 52001 333 55306 2//// 91114 91209;
0149067840999992011010911004+46817+009850FM-12+159099999V0202301N003119999999N9999999N1+00611-00441999999ADDMA1999999083771MD1810021+9999ME1314769OA149900881REMSYN088AAXX  09114 06784 33/// /2306 10061 21044 38377 48476 58002 333 55307 2//// 91117 91209;
0149067840999992011010912004+46817+009850FM-12+159099999V0202101N004119999999N9999999N1+00571-00451999999ADDMA1999999083741MD1710081+9999ME1314739OA149900931REMSYN088AAXX  09124 06784 33/// /2108 10057 21045 38374 48473 57008 333 55301 20594 91118 91210;
0149067840999992011010913004+46817+009850FM-12+159099999V0202201N003619999999N9999999N1+00611-00411999999ADDMA1999999083691MD1710121+9999ME1314689OA149900931REMSYN088AAXX  09134 06784 33/// /2207 10061 21041 38369 48468 57012 333 55301 20515 91118 91210;
0096067840999992011010914004+46817+009850FM-12+159099999V0202101N002119999999N9999999N1+00571-00351999999ADDMA1999999083701ME1314699REMSYN060AAXX  09144 06784 43/// /2104 10057 21035 38370 48469 5////;
0096067840999992011010915004+46817+009850FM-12+159099999V0202101N003619999999N9999999N1+00471-00231999999ADDMA1999999083711ME1314709REMSYN060AAXX  09154 06784 43/// /2107 10047 21023 38371 48470 5////;
0149067840999992011010916004+46817+009850FM-12+159099999V0202101N002619999999N9999999N1+00481-00331999999ADDMA1999999083701MD1010011+9999ME1314709OA149900621REMSYN088AAXX  09164 06784 33/// /2105 10048 21033 38370 48470 50001 333 55300 20040 91112 91207;
0149067840999992011010917004+46817+009850FM-12+159099999V0201601N002619999999N9999999N1+00401-00311999999ADDMA1999999083711MD1510011+9999ME1314719OA149900621REMSYN088AAXX  09174 06784 33/// /1605 10040 21031 38371 48471 55001 333 55300 20000 91112 91207;
0187067840999992011010918004+46817+009850FM-12+159099999V0201801N002119999999N9999999N1+00301-00211999999ADDKA1120M+00631MA1999999083711MD1410001+9999ME1314719OA149900931REMSYN094AAXX  09184 06784 33/// /1804 10030 21021 38371 48471 52000 333 10063 55300 20000 91118 91210;EQDQ01+000022APCTEN
0149067840999992011010919004+46817+009850FM-12+159099999V0201701N001519999999N9999999N1+00351-00391999999ADDMA1999999083741MD1210041+9999ME1314759OA149900411REMSYN088AAXX  09194 06784 33/// /1703 10035 21039 38374 48475 52004 333 55300 20000 91108 91204;
0149067840999992011010920004+46817+009850FM-12+159099999V0201701N002119999999N9999999N1+00361-00291999999ADDMA1999999083751MD1210041+9999ME1314769OA149900461REMSYN088AAXX  09204 06784 33/// /1704 10036 21029 38375 48476 52004 333 55300 20000 91109 91204;
0149067840999992011010921004+46817+009850FM-12+159099999V0201401N001519999999N9999999N1+00281-00161999999ADDMA1999999083751MD1210041+9999ME1314759OA149900621REMSYN088AAXX  09214 06784 33/// /1403 10028 21016 38375 48475 52004 333 55300 20000 91112 91207;
0149067840999992011010922004+46817+009850FM-12+159099999V0200301N002619999999N9999999N1+00141-00161999999ADDMA1999999083771MD1210031+9999ME1314789OA149900511REMSYN088AAXX  09224 06784 33/// /0305 10014 21016 38377 48478 52003 333 55300 20000 91110 91206;
0149067840999992011010923004+46817+009850FM-12+159099999V0200301N001519999999N9999999N1+00091-00121999999ADDMA1999999083801MD1210051+9999ME1314819OA149900571REMSYN088AAXX  09234 06784 33/// /0303 10009 21012 38380 48481 52005 333 55300 20000 91111 91209;
0149067840999992011011000004+46817+009850FM-12+159099999V0200301N002619999999N9999999N1+00071-00071999999ADDMA1999999083781MD1210031+9999ME1314799OA149900821REMSYN088AAXX  10004 06784 33/// /0305 10007 21007 38378 48479 52003 333 55300 20000 91116 91209;
0149067840999992011011001004+46817+009850FM-12+159099999V0209999C000019999999N9999999N1+00031-00061999999ADDMA1999999083821MD1210051+9999ME1314839OA149900361REMSYN088AAXX  10014 06784 33/// /0000 10003 21006 38382 48483 52005 333 55300 20000 91107 91205;
0118067840999992011011002004+46817+009850FM-12+159099999V0209999C000019999999N9999999N1+00011-00051999999ADDMA1999999083821ME1314839REMSYN082AAXX  10024 06784 23/// /0000 10001 21005 38382 48483 5//// 333 553// 20000 69935;
0096067840999992011011003004+46817+009850FM-12+159099999V0209999C000019999999N9999999N1-00021+99999999999ADDMA1999999083811ME1314829REMSYN060AAXX  10034 06784 43/// /0000 11002 20001 38381 48482 5////;
0118067840999992011011004004+46817+009850FM-12+159099999V0200301N001519999999N9999999N1-00041+99999999999ADDMA1999999083801ME1314819REMSYN082AAXX  10044 06784 23/// /0303 11004 20005 38380 48481 5//// 333 553// 20000 69945;
0155067840999992011011005004+46817+009850FM-12+159099999V0200201N003619999999N9999999N1-00061-00091999999ADDMA1999999083821MD1519999+9999ME1314839OA149900461REMSYN094AAXX  10054 06784 23/// /0207 11006 21009 38382 48483 55/// 333 55300 20000 69945 91109 91207;
0168067840999992011011006004+46817+009850FM-12+159099999V0200201N003119999999N9999999N1-00081-00101999999ADDAA124001891GJ101029IA2999-00109KA1999N-00121MA1999999083841ME1314859REMSYN088AAXX  10064 06784 43/// /0206 11008 21010 38384 48485 5//// 333 21012 3/101 55017 70017;
0155067840999992011011007004+46817+009850FM-12+159099999V0200401N003119999999N9999999N1-00091-00091999999ADDMA1999999083851MD1210051+9999ME1314869OA149900411REMSYN094AAXX  10074 06784 23/// /0406 11009 21009 38385 48486 52005 333 55300 20000 69955 91108 91207;
0096067840999992011011008004+46817+009850FM-12+159099999V0200601N001519999999N9999999N1-00091+99999999999ADDMA1999999083891ME1314909REMSYN060AAXX  10084 06784 43/// /0603 11009 21008 38389 48490 5////;
0096067840999992011011009004+46817+009850FM-12+159099999V0209999C000019999999N9999999N1-00111+99999999999ADDMA1999999083901ME1314919REMSYN060AAXX  10094 06784 43/// /0000 11011 21009 38390 48491 5////;
0155067840999992011011010004+46817+009850FM-12+159099999V0200401N001519999999N9999999N1-00091-00121999999ADDMA1999999083911MD1110061+9999ME1314929OA149900261REMSYN094AAXX  10104 06784 23/// /0403 11009 21012 38391 48492 51006 333 55300 20241 69985 91105 91204;
0149067840999992011011011004+46817+009850FM-12+159099999V0202401N000519999999N9999999N1-00031-00131999999ADDMA1999999083891MD1019999+9999ME1314909OA149900261REMSYN088AAXX  10114 06784 33/// /2401 11003 21013 38389 48490 50/// 333 55300 20400 91105 91204;
0135067840999992011011012004+46817+009850FM-12+159099999V0201901N000519999999N9999999N1-00021-00061999999ADDAA106002091MA1999999083831ME1314849REMSYN088AAXX  10124 06784 03/// /1901 11002 21006 38383 48484 5//// 60021 333 553// 20767 60005;
0096067840999992011011013004+46817+009850FM-12+159099999V0200201N003119999999N9999999N1-00031-00071999999ADDMA1999999083791ME1314809REMSYN060AAXX  10134 06784 43/// /0206 11003 21007 38379 48480 5////;
0096067840999992011011014004+46817+009850FM-12+159099999V0200501N002119999999N9999999N1+00021-00071999999ADDMA1999999083771ME1314789REMSYN060AAXX  10144 06784 43/// /0504 10002 21007 38377 48478 5////;
0096067840999992011011015004+46817+009850FM-12+159099999V0200201N001519999999N9999999N1-00011-00061999999ADDMA1999999083771ME1314789REMSYN060AAXX  10154 06784 43/// /0203 11001 21006 38377 48478 5////;
0096067840999992011011016004+46817+009850FM-12+159099999V0202001N001019999999N9999999N1+00001-00061999999ADDMA1999999083751ME1314779REMSYN060AAXX  10164 06784 43/// /2002 10000 21006 38375 48477 5////;
0096067840999992011011017004+46817+009850FM-12+159099999V0201901N001519999999N9999999N1-00031-00111999999ADDMA1999999083731ME1314759REMSYN060AAXX  10174 06784 43/// /1903 11003 21011 38373 48475 5////;
0119067840999992011011018004+46817+009850FM-12+159099999V0201901N001019999999N9999999N1-00131+99999999999ADDKA1999M+00051MA1999999083741ME1314769REMSYN070AAXX  10184 06784 43/// /1902 11013 21011 38374 48476 5//// 333 10005;
0096067840999992011011019004+46817+009850FM-12+159099999V0201601N001019999999N9999999N1-00221-00251999999ADDMA1999999083711ME1314749REMSYN060AAXX  10194 06784 43/// /1602 11022 21025 38371 48474 5////;
0096067840999992011011020004+46817+009850FM-12+159099999V0202201N001519999999N9999999N1-00211-00371999999ADDMA1999999083681ME1314719REMSYN060AAXX  10204 06784 43/// /2203 11021 21037 38368 48471 5////;
0096067840999992011011021004+46817+009850FM-12+159099999V0201901N000519999999N9999999N1-00231-00291999999ADDMA1999999083671ME1314709REMSYN060AAXX  10214 06784 43/// /1901 11023 21029 38367 48470 5////;
0096067840999992011011022004+46817+009850FM-12+159099999V0202301N001019999999N9999999N1-00191-00321999999ADDMA1999999083641ME1314679REMSYN060AAXX  10224 06784 43/// /2302 11019 21032 38364 48467 5////;
0096067840999992011011023004+46817+009850FM-12+159099999V0201801N001019999999N9999999N1-00261-00281999999ADDMA1999999083621ME1314659REMSYN060AAXX  10234 06784 43/// /1802 11026 21028 38362 48465 5////;
0096067840999992011011100004+46817+009850FM-12+159099999V0209999C000019999999N9999999N1-00181-00401999999ADDMA1999999083591ME1314639REMSYN060AAXX  11004 06784 43/// /0000 11018 21040 38359 48463 5////;
0096067840999992011011101004+46817+009850FM-12+159099999V0202101N000519999999N9999999N1-00201-00251999999ADDMA1999999083541ME1314579REMSYN060AAXX  11014 06784 43/// /2101 11020 21025 38354 48457 5////;
0096067840999992011011102004+46817+009850FM-12+159099999V0202001N001019999999N9999999N1-00251+99999999999ADDMA1999999083521ME1314559REMSYN060AAXX  11024 06784 43/// /2002 11025 21023 38352 48455 5////;
0096067840999992011011103004+46817+009850FM-12+159099999V0203301N000519999999N9999999N1-00191-00371999999ADDMA1999999083501ME1314549REMSYN060AAXX  11034 06784 43/// /3301 11019 21037 38350 48454 5////;
0096067840999992011011104004+46817+009850FM-12+159099999V0209999C000019999999N9999999N1-00231-00571999999ADDMA1999999083461ME1314529REMSYN060AAXX  11044 06784 43/// /0000 11023 21057 38346 48452 5////;
0096067840999992011011105004+46817+009850FM-12+159099999V0202301N001519999999N9999999N1-00161-00281999999ADDMA1999999083441ME1314489REMSYN060AAXX  11054 06784 43/// /2303 11016 21028 38344 48448 5////;
0106067840999992011011106004+46817+009850FM-12+159099999V0202101N001019999999N9999999N1-00201-00211999999ADDMA1999999083411ME1314459REMSYN070AAXX  11064 06784 43/// /2102 11020 21021 38341 48445 5//// 333 55000;
0149067840999992011011107004+46817+009850FM-12+159099999V0202401N001019999999N9999999N1-00191-00241999999ADDMA1999999083381MD1619999+9999ME1314429OA149900211REMSYN088AAXX  11074 06784 33/// /2402 11019 21024 38338 48442 56/// 333 55300 20000 91104 91203;
0112067840999992011011108004+46817+009850FM-12+159099999V0202201N001519999999N9999999N1-00161-00221999999ADDMA1999999083381ME1314429REMSYN076AAXX  11084 06784 33/// /2203 11016 21022 38338 48442 5//// 333 553// 20079;
0096067840999992011011109004+46817+009850FM-12+159099999V0202201N001519999999N9999999N1-00071-00281999999ADDMA1999999083361ME1314409REMSYN060AAXX  11094 06784 43/// /2203 11007 21028 38336 48440 5////;
0149067840999992011011110004+46817+009850FM-12+159099999V0201701N001519999999N9999999N1+00031-00271999999ADDMA1999999083351MD1710031+9999ME1314389OA149900311REMSYN088AAXX  11104 06784 33/// /1703 10003 21027 38335 48438 57003 333 553// 2//// 91106 91203;
0149067840999992011011111004+46817+009850FM-12+159099999V0201601N001519999999N9999999N1+00081-00301999999ADDMA1999999083281MD1810101+9999ME1314319OA149900311REMSYN088AAXX  11114 06784 33/// /1603 10008 21030 38328 48431 58010 333 553// 2//// 91106 91204;
0112067840999992011011112004+46817+009850FM-12+159099999V0201401N001519999999N9999999N1+00081-00241999999ADDMA1999999083201ME1314249REMSYN076AAXX  11124 06784 33/// /1403 10008 21024 38320 48424 5//// 333 553// 2////;
0149067840999992011011113004+46817+009850FM-12+159099999V0201301N002119999999N9999999N1+00091-00381999999ADDMA1999999083131MD1710221+9999ME1314179OA149900411REMSYN088AAXX  11134 06784 33/// /1304 10009 21038 38313 48417 57022 333 553// 2//// 91108 91205;
0096067840999992011011114004+46817+009850FM-12+159099999V0201601N002119999999N9999999N1+00111-00471999999ADDMA1999999083091ME1314139REMSYN060AAXX  11144 06784 43/// /1604 10011 21047 38309 48413 5////;
0096067840999992011011115004+46817+009850FM-12+159099999V0201801N001019999999N9999999N1-00111-00371999999ADDMA1999999083131ME1314189REMSYN060AAXX  11154 06784 43/// /1802 11011 21037 38313 48418 5////;
0149067840999992011011116004+46817+009850FM-12+159099999V0209999C000019999999N9999999N1-00171-00641999999ADDMA1999999083161MD1210031+9999ME1314239OA149900311REMSYN088AAXX  11164 06784 33/// /0000 11017 21064 38316 48423 52003 333 55300 20065 91106 91203;
0149067840999992011011117004+46817+009850FM-12+159099999V0209999C000019999999N9999999N1-00161-00391999999ADDMA1999999083231MD1210131+9999ME1314289OA149900151REMSYN088AAXX  11174 06784 33/// /0000 11016 21039 38323 48428 52013 333 55300 20000 91103 91202;
0168067840999992011011118004+46817+009850FM-12+159099999V0203301N000519999999N9999999N1-00151-00431999999ADDKA1120M+00211MA1999999083291MD1210161+9999ME1314349OA149900411REMSYN094AAXX  11184 06784 33/// /3301 11015 21043 38329 48434 52016 333 10021 55300 20000 91108 91205;
0155067840999992011011119004+46817+009850FM-12+159099999V0200101N003619999999N9999999N1-00131-00141999999ADDMA1999999083371MD1310211+9999ME1314409OA149900511REMSYN094AAXX  11194 06784 23/// /0107 11013 21014 38337 48440 53021 333 55300 20000 69915 91110 91207;
0155067840999992011011120004+46817+009850FM-12+159099999V0200601N002119999999N9999999N1-00171+99999999999ADDMA1999999083431MD1110201+9999ME1314469OA149900511REMSYN094AAXX  11204 06784 23/// /0604 11017 21014 38343 48446 51020 333 55300 20000 69935 91110 91207;
0155067840999992011011121004+46817+009850FM-12+159099999V0200301N002619999999N9999999N1-00111-00111999999ADDMA1999999083501MD1210211+9999ME1314539OA149900511REMSYN094AAXX  11214 06784 23/// /0305 11011 21011 38350 48453 52021 333 55300 20000 69945 91110 91207;
0149067840999992011011122004+46817+009850FM-12+159099999V0200201N002119999999N9999999N1-00081-00231999999ADDMA1999999083561MD1310191+9999ME1314599OA149900621REMSYN088AAXX  11224 06784 33/// /0204 11008 21023 38356 48459 53019 333 55300 20000 91112 91207;
0149067840999992011011123004+46817+009850FM-12+159099999V0200101N003619999999N9999999N1-00141-00241999999ADDMA1999999083621MD1110191+9999ME1314659OA149900621REMSYN088AAXX  11234 06784 33/// /0107 11014 21024 38362 48465 51019 333 55300 20000 91112 91207;
0172067840999992011011200004+46817+009850FM-12+159099999V0200101N004119999999N9999999N1-00141-00211999999ADDAA106000891MA1999999083681MD1110181+9999ME1314709OA149900721REMSYN100AAXX  12004 06784 03/// /0108 11014 21021 38368 48470 51018 69981 333 55300 20000 60005 91114 91209;
0149067840999992011011201004+46817+009850FM-12+159099999V0203601N003119999999N9999999N1-00151-00271999999ADDMA1999999083721MD1110161+9999ME1314749OA149900721REMSYN088AAXX  12014 06784 33/// /3606 11015 21027 38372 48474 51016 333 55300 20000 91114 91209;
0112067840999992011011202004+46817+009850FM-12+159099999V0200601N002619999999N9999999N1-00151-00321999999ADDMA1999999083801ME1314829REMSYN076AAXX  12024 06784 33/// /0605 11015 21032 38380 48482 5//// 333 553// 20000;
0096067840999992011011203004+46817+009850FM-12+159099999V0200601N001019999999N9999999N1-00171-00371999999ADDMA1999999083861ME1314889REMSYN060AAXX  12034 06784 43/// /0602 11017 21037 38386 48488 5////;
0096067840999992011011204004+46817+009850FM-12+159099999V0202001N000519999999N9999999N1-00221-00421999999ADDMA1999999083881ME1314909REMSYN060AAXX  12044 06784 43/// /2001 11022 21042 38388 48490 5////;
0118067840999992011011205004+46817+009850FM-12+159099999V0200601N001519999999N9999999N1-00241-00271999999ADDMA1999999083921ME1314949REMSYN082AAXX  12054 06784 23/// /0603 11024 21027 38392 48494 5//// 333 553// 20000 69915;
0168067840999992011011206004+46817+009850FM-12+159099999V0203501N000519999999N9999999N1-00201-00301999999ADDAA124001091GJ103189IA2999-00409KA1999N-00251MA1999999083991ME1315009REMSYN088AAXX  12064 06784 43/// /3501 11020 21030 38399 48500 5//// 333 21025 3/104 55053 70009;
0149067840999992011011207004+46817+009850FM-12+159099999V0209999C000019999999N9999999N1-00201-00341999999ADDMA1999999084061MD1310181+9999ME1315079OA149900361REMSYN088AAXX  12074 06784 33/// /0000 11020 21034 38406 48507 53018 333 55300 20000 91107 91205;
0096067840999992011011208004+46817+009850FM-12+159099999V0209999C000019999999N9999999N1-00161-00381999999ADDMA1999999084091ME1315109REMSYN060AAXX  12084 06784 43/// /0000 11016 21038 38409 48510 5////;
0096067840999992011011209004+46817+009850FM-12+159099999V0202301N000519999999N9999999N1-00111-00331999999ADDMA1999999084101ME1315109REMSYN060AAXX  12094 06784 43/// /2301 11011 21033 38410 48510 5////;
0149067840999992011011210004+46817+009850FM-12+159099999V0200301N003119999999N9999999N1+00001-00431999999ADDMA1999999084131MD1219999+9999ME1315139OA149900411REMSYN088AAXX  12104 06784 33/// /0306 10000 21043 38413 48513 52/// 333 55302 20796 91108 91206;
0126067840999992011011211004+46817+009850FM-12+159099999V0203601N000519999999N9999999N1+00031-00381999999ADDMA1999999084111MD1210021+9999ME1315119REMSYN076AAXX  12114 06784 33/// /3601 10003 21038 38411 48511 52002 333 55301 2////;
0096067840999992011011212004+46817+009850FM-12+159099999V0203501N000519999999N9999999N1+00141-00661999999ADDMA1999999084091ME1315099REMSYN060AAXX  12124 06784 43/// /3501 10014 21066 38409 48509 5////;
0096067840999992011011213004+46817+009850FM-12+159099999V0200101N000519999999N9999999N1+00201-00721999999ADDMA1999999084081ME1315089REMSYN060AAXX  12134 06784 43/// /0101 10020 21072 38408 48508 5////;
0096067840999992011011214004+46817+009850FM-12+159099999V0200501N001519999999N9999999N1+00121-00311999999ADDMA1999999084111ME1315119REMSYN060AAXX  12144 06784 43/// /0503 10012 21031 38411 48511 5////;
0096067840999992011011215004+46817+009850FM-12+159099999V0200301N003119999999N9999999N1+00051-00381999999ADDMA1999999084151ME1315159REMSYN060AAXX  12154 06784 43/// /0306 10005 21038 38415 48515 5////;
0155067840999992011011216004+46817+009850FM-12+159099999V0202201N000519999999N9999999N1-00101-00211999999ADDMA1999999084211MD1310131+9999ME1315219OA149900461REMSYN094AAXX  12164 06784 23/// /2201 11010 21021 38421 48521 53013 333 55300 20032 69925 91109 91207;
0155067840999992011011217004+46817+009850FM-12+159099999V0202501N001519999999N9999999N1-00171-00301999999ADDMA1999999084211MD1210101+9999ME1315219OA149900461REMSYN094AAXX  12174 06784 23/// /2503 11017 21030 38421 48521 52010 333 55300 20000 69985 91109 91206;
0191067840999992011011218004+46817+009850FM-12+159099999V0202401N001019999999N9999999N1-00191-00241999999ADDAA112002091KA1120M+00201MA1999999084211MD1210061+9999ME1315219OA149900461REMSYN106AAXX  12184 06784 03/// /2402 11019 21024 38421 48521 52006 60022 333 10020 55300 20000 60015 91109 91207;
0155067840999992011011219004+46817+009850FM-12+159099999V0202301N001519999999N9999999N1-00171-00211999999ADDMA1999999084211MD1510001+9999ME1315219OA149900261REMSYN094AAXX  12194 06784 23/// /2303 11017 21021 38421 48521 55000 333 55300 20000 69965 91105 91203;
0155067840999992011011220004+46817+009850FM-12+159099999V0202101N001019999999N9999999N1-00151-00191999999ADDMA1999999084191MD1710021+9999ME1315199OA149900261REMSYN094AAXX  12204 06784 23/// /2102 11015 21019 38419 48519 57002 333 55300 20000 69985 91105 91203;
0155067840999992011011221004+46817+009850FM-12+159099999V0209999C000019999999N9999999N1-00141-00151999999ADDMA1999999084201MD1510011+9999ME1315209OA149900461REMSYN094AAXX  12214 06784 23/// /0000 11014 21015 38420 48520 55001 333 55300 20000 60015 91109 91206;
0155067840999992011011222004+46817+009850FM-12+159099999V0209999C000019999999N9999999N1-00121+99999999999ADDMA1999999084191MD1710021+9999ME1315199OA149900101REMSYN094AAXX  12224 06784 23/// /0000 11012 21011 38419 48519 57002 333 55300 20000 60025 91102 91202;
0155067840999992011011223004+46817+009850FM-12+159099999V0209999C000019999999N9999999N1-00031-00071999999ADDMA1999999084181MD1810011+9999ME1315189OA149900101REMSYN094AAXX  12234 06784 23/// /0000 11003 21007 38418 48518 58001 333 55300 20000 60015 91102 91201;
0172067840999992011011300004+46817+009850FM-12+159099999V0200101N000519999999N9999999N1+00011-00031999999ADDAA106007191MA1999999084151MD1810051+9999ME1315159OA149900461REMSYN100AAXX  13004 06784 03/// /0101 10001 21003 38415 48515 58005 60071 333 55300 20000 60015 91109 91207;
0155067840999992011011301004+46817+009850FM-12+159099999V0200201N000519999999N9999999N1+00011-00011999999ADDMA1999999084161MD1710031+9999ME1315169OA149900101REMSYN094AAXX  13014 06784 23/// /0201 10001 21001 38416 48516 57003 333 55300 20000 69995 91102 91201;
0155067840999992011011302004+46817+009850FM-12+159099999V0209999C000019999999N9999999N1+00021+99999999999ADDMA1999999084201MD1319999+9999ME1315209OA149900101REMSYN094AAXX  13024 06784 23/// /0000 10002 20005 38420 48520 53/// 333 55300 20000 60025 91102 91201;
0096067840999992011011303004+46817+009850FM-12+159099999V0209999C000019999999N9999999N1+00011+99999999999ADDMA1999999084171ME1315179REMSYN060AAXX  13034 06784 43/// /0000 10001 20002 38417 48517 5////;
0155067840999992011011304004+46817+009850FM-12+159099999V0209999C000019999999N9999999N1+00021+00001999999ADDMA1999999084161MD1019999+9999ME1315169OA149900151REMSYN094AAXX  13044 06784 23/// /0000 10002 20000 38416 48516 50/// 333 55300 20000 60015 91103 91201;
0118067840999992011011305004+46817+009850FM-12+159099999V0209999C000019999999N9999999N1+00031+00011999999ADDMA1999999084161ME1315169REMSYN082AAXX  13054 06784 23/// /0000 10003 20001 38416 48516 5//// 333 553// 20000 60015;
0239067840999992011011306004+46817+009850FM-12+159099999V0209999C000019999999N9999999N1+00051+00031999999ADDAA112017091AL11201891GJ100489IA2999-00209KA1999N-00191MA1999999084161MD1010011+9999ME1315169OA149900261REMSYN124AAXX  13064 06784 03/// /0000 10005 20003 38416 48516 50001 60172 333 21019 3/102 55008 55300 20000 60015 70182 91105 91203;
0096067840999992011011307004+46817+009850FM-12+159099999V0200101N000519999999N9999999N1+00061+00001999999ADDMA1999999084171ME1315179REMSYN060AAXX  13074 06784 43/// /0101 10006 20000 38417 48517 5////;
0096067840999992011011308004+46817+009850FM-12+159099999V0200401N000519999999N9999999N1+00061+00011999999ADDMA1999999084221ME1315229REMSYN060AAXX  13084 06784 43/// /0401 10006 20001 38422 48522 5////;
0096067840999992011011309004+46817+009850FM-12+159099999V0200401N000519999999N9999999N1+00091+00011999999ADDMA1999999084221ME1315219REMSYN060AAXX  13094 06784 43/// /0401 10009 20001 38422 48521 5////;
0096067840999992011011310004+46817+009850FM-12+159099999V0200201N000519999999N9999999N1+00101+00061999999ADDMA1999999084241ME1315239REMSYN060AAXX  13104 06784 43/// /0201 10010 20006 38424 48523 5////;
0096067840999992011011311004+46817+009850FM-12+159099999V0200601N000519999999N9999999N1+00231+00211999999ADDMA1999999084251ME1315249REMSYN060AAXX  13114 06784 43/// /0601 10023 20021 38425 48524 5////;
0096067840999992011011312004+46817+009850FM-12+159099999V0203401N000519999999N9999999N1+00261+00191999999ADDMA1999999084201ME1315199REMSYN060AAXX  13124 06784 43/// /3401 10026 20019 38420 48519 5////;
0096067840999992011011313004+46817+009850FM-12+159099999V0201501N000519999999N9999999N1+00291+00231999999ADDMA1999999084181ME1315179REMSYN060AAXX  13134 06784 43/// /1501 10029 20023 38418 48517 5////;
0096067840999992011011314004+46817+009850FM-12+159099999V0202601N000519999999N9999999N1+00331+00271999999ADDMA1999999084151ME1315149REMSYN060AAXX  13144 06784 43/// /2601 10033 20027 38415 48514 5////;
0096067840999992011011315004+46817+009850FM-12+159099999V0209999C000019999999N9999999N1+00361+00181999999ADDMA1999999084161ME1315159REMSYN060AAXX  13154 06784 43/// /0000 10036 20018 38416 48515 5////;
0096067840999992011011316004+46817+009850FM-12+159099999V0200101N000519999999N9999999N1+00181+00101999999ADDMA1999999084201ME1315199REMSYN060AAXX  13164 06784 43/// /0101 10018 20010 38420 48519 5////;
0149067840999992011011317004+46817+009850FM-12+159099999V0209999C000519999999N9999999N1+00151+00061999999ADDMA1999999084221MD1210071+9999ME1315219OA149900211REMSYN088AAXX  13174 06784 33/// /0001 10015 20006 38422 48521 52007 333 55300 20000 91104 91201;
0191067840999992011011318004+46817+009850FM-12+159099999V0203101N000519999999N9999999N1+00121+00121999999ADDAA112004191KA1120M+00401MA1999999084241MD1210071+9999ME1315239OA149900211REMSYN106AAXX  13184 06784 03/// /3101 10012 20012 38424 48523 52007 60042 333 10040 55300 20000 60005 91104 91203;
0155067840999992011011319004+46817+009850FM-12+159099999V0209999C000519999999N9999999N1+00141+00091999999ADDMA1999999084251MD1210051+9999ME1315249OA149900211REMSYN094AAXX  13194 06784 23/// /0001 10014 20009 38425 48524 52005 333 55300 20000 69915 91104 91202;
0155067840999992011011320004+46817+009850FM-12+159099999V0209999C000019999999N9999999N1+00181+00081999999ADDMA1999999084251MD1010031+9999ME1315249OA149900151REMSYN094AAXX  13204 06784 23/// /0000 10018 20008 38425 48524 50003 333 55300 20000 69935 91103 91202;
0155067840999992011011321004+46817+009850FM-12+159099999V0200101N000519999999N9999999N1+00171+00051999999ADDMA1999999084271MD1210031+9999ME1315269OA149900211REMSYN094AAXX  13214 06784 23/// /0101 10017 20005 38427 48526 52003 333 55300 20000 69975 91104 91202;
0155067840999992011011322004+46817+009850FM-12+159099999V0209999C000019999999N9999999N1+00161+00061999999ADDMA1999999084291MD1210041+9999ME1315289OA149900051REMSYN094AAXX  13224 06784 23/// /0000 10016 20006 38429 48528 52004 333 55300 20000 69925 91101 91201;
0149067840999992011011323004+46817+009850FM-12+159099999V0202001N000519999999N9999999N1+00191+00111999999ADDMA1999999084271MD1210021+9999ME1315269OA149900101REMSYN088AAXX  13234 06784 33/// /2001 10019 20011 38427 48526 52002 333 55300 20000 91102 91201;
0172067840999992011011400004+46817+009850FM-12+159099999V0209999C000019999999N9999999N1+00111+00031999999ADDAA106001091MA1999999084261MD1810011+9999ME1315259OA149900211REMSYN100AAXX  14004 06784 03/// /0000 10011 20003 38426 48525 58001 60011 333 55300 20000 69915 91104 91202;
0155067840999992011011401004+46817+009850FM-12+159099999V0209999C000519999999N9999999N1+00121+00041999999ADDMA1999999084281MD1510011+9999ME1315279OA149900151REMSYN094AAXX  14014 06784 23/// /0001 10012 20004 38428 48527 55001 333 55300 20000 69915 91103 91202;
0118067840999992011011402004+46817+009850FM-12+159099999V0200101N000519999999N9999999N1+00141+00061999999ADDMA1999999084311ME1315309REMSYN082AAXX  14024 06784 23/// /0101 10014 20006 38431 48530 5//// 333 553// 20000 69955;
0149067840999992011011403004+46817+009850FM-12+159099999V0209999C000019999999N9999999N1+00171+00051999999ADDMA1999999084311MD1210051+9999ME1315309OA149900151REMSYN088AAXX  14034 06784 33/// /0000 10017 20005 38431 48530 52005 333 55300 20000 91103 91202;
0149067840999992011011404004+46817+009850FM-12+159099999V0202001N000519999999N9999999N1+00201+00121999999ADDMA1999999084301MD1210021+9999ME1315299OA149900101REMSYN088AAXX  14044 06784 33/// /2001 10020 20012 38430 48529 52002 333 55300 20000 91102 91201;
0149067840999992011011405004+46817+009850FM-12+159099999V0200401N000519999999N9999999N1+00171+00031999999ADDMA1999999084291MD1710021+9999ME1315289OA149900101REMSYN088AAXX  14054 06784 33/// /0401 10017 20003 38429 48528 57002 333 55300 20000 91102 91201;
0239067840999992011011406004+46817+009850FM-12+159099999V0202101N001019999999N9999999N1+00121+00111999999ADDAA112002091AL14800691GJ100789IA2999+00009KA1999N+00091MA1999999084311MD1510001+9999ME1315309OA149900151REMSYN124AAXX  14064 06784 03/// /2102 10012 20011 38431 48530 55000 60022 333 20009 3/000 55013 55300 20000 60005 70068 91103 91202;
0149067840999992011011407004+46817+009850FM-12+159099999V0202101N001019999999N9999999N1+00161+00091999999ADDMA1999999084321MD1210021+9999ME1315319OA149900211REMSYN088AAXX  14074 06784 33/// /2102 10016 20009 38432 48531 52002 333 55300 20000 91104 91202;
0096067840999992011011408004+46817+009850FM-12+159099999V0202201N001019999999N9999999N1+00051-00011999999ADDMA1999999084341ME1315339REMSYN060AAXX  14084 06784 43/// /2202 10005 21001 38434 48533 5////;
0096067840999992011011409004+46817+009850FM-12+159099999V0201701N000519999999N9999999N1+00081-00071999999ADDMA1999999084331ME1315329REMSYN060AAXX  14094 06784 43/// /1701 10008 21007 38433 48532 5////;
0096067840999992011011410004+46817+009850FM-12+159099999V0201601N001019999999N9999999N1+00181-00111999999ADDMA1999999084311ME1315309REMSYN060AAXX  14104 06784 43/// /1602 10018 21011 38431 48530 5////;
0149067840999992011011411004+46817+009850FM-12+159099999V0209999C000019999999N9999999N1+00321-00171999999ADDMA1999999084261MD1710081+9999ME1315269OA149900151REMSYN088AAXX  14114 06784 33/// /0000 10032 21017 38426 48526 57008 333 553// 2//// 91103 91202;
0149067840999992011011412004+46817+009850FM-12+159099999V0201701N001019999999N9999999N1+00421+00181999999ADDMA1999999084201MD1710131+9999ME1315199OA149900211REMSYN088AAXX  14124 06784 33/// /1702 10042 20018 38420 48519 57013 333 553// 2//// 91104 91203;
0149067840999992011011413004+46817+009850FM-12+159099999V0209999C000019999999N9999999N1+00391+00001999999ADDMA1999999084151MD1810161+9999ME1315149OA149900151REMSYN088AAXX  14134 06784 33/// /0000 10039 20000 38415 48514 58016 333 553// 2//// 91103 91202;
0112067840999992011011414004+46817+009850FM-12+159099999V0201601N000519999999N9999999N1+00321+00091999999ADDMA1999999084131ME1315129REMSYN076AAXX  14144 06784 33/// /1601 10032 20009 38413 48512 5//// 333 553// 20623;
0149067840999992011011415004+46817+009850FM-12+159099999V0209999C000019999999N9999999N1+00231-00021999999ADDMA1999999084161MD1510041+9999ME1315169OA149900211REMSYN088AAXX  14154 06784 33/// /0000 10023 21002 38416 48516 55004 333 553// 20425 91104 91203;
0149067840999992011011416004+46817+009850FM-12+159099999V0209999C000019999999N9999999N1+00061-00141999999ADDMA1999999084161MD1210011+9999ME1315169OA149900151REMSYN088AAXX  14164 06784 33/// /0000 10006 21014 38416 48516 52001 333 55300 20040 91103 91202;
0149067840999992011011417004+46817+009850FM-12+159099999V0202301N000519999999N9999999N1-00011-00151999999ADDMA1999999084191MD1210061+9999ME1315199OA149900151REMSYN088AAXX  14174 06784 33/// /2301 11001 21015 38419 48519 52006 333 55300 20000 91103 91202;
0168067840999992011011418004+46817+009850FM-12+159099999V0202001N001519999999N9999999N1-00011-00271999999ADDKA1120M+00501MA1999999084181MD1210021+9999ME1315189OA149900211REMSYN094AAXX  14184 06784 33/// /2003 11001 21027 38418 48518 52002 333 10050 55300 20000 91104 91203;
0149067840999992011011419004+46817+009850FM-12+159099999V0202201N001019999999N9999999N1-00041-00211999999ADDMA1999999084161MD1010001+9999ME1315169OA149900261REMSYN088AAXX  14194 06784 33/// /2202 11004 21021 38416 48516 50000 333 55300 20000 91105 91203;
0149067840999992011011420004+46817+009850FM-12+159099999V0202001N001519999999N9999999N1-00121-00281999999ADDMA1999999084111MD1810081+9999ME1315129OA149900261REMSYN088AAXX  14204 06784 33/// /2003 11012 21028 38411 48512 58008 333 55300 20000 91105 91204;
0149067840999992011011421004+46817+009850FM-12+159099999V0209999C000019999999N9999999N1-00121-00451999999ADDMA1999999084041MD1810141+9999ME1315069OA149900261REMSYN088AAXX  14214 06784 33/// /0000 11012 21045 38404 48506 58014 333 55300 20000 91105 91204;
0149067840999992011011422004+46817+009850FM-12+159099999V0203601N000519999999N9999999N1-00191-00371999999ADDMA1999999084031MD1710131+9999ME1315049OA149900211REMSYN088AAXX  14224 06784 33/// /3601 11019 21037 38403 48504 57013 333 55300 20000 91104 91203;
0149067840999992011011423004+46817+009850FM-12+159099999V0200501N000519999999N9999999N1-00181-00281999999ADDMA1999999084021MD1710091+9999ME1315039OA149900151REMSYN088AAXX  14234 06784 33/// /0501 11018 21028 38402 48503 57009 333 55300 20000 91103 91202;
0149067840999992011011500004+46817+009850FM-12+159099999V0203601N006219999999N9999999N1+00181-00111999999ADDMA1999999084041MD1510001+9999ME1315049OA149900881REMSYN088AAXX  15004 06784 33/// /3612 10018 21011 38404 48504 55000 333 55300 20000 91117 91212;
0149067840999992011011501004+46817+009850FM-12+159099999V0200601N007219999999N9999999N1+00181-00191999999ADDMA1999999084141MD1210111+9999ME1315139OA149901291REMSYN088AAXX  15014 06784 33/// /0614 10018 21019 38414 48513 52011 333 55300 20000 91125 91216;
0149067840999992011011502004+46817+009850FM-12+159099999V0203501N002619999999N9999999N1+00161-00171999999ADDMA1999999084291MD1219999+9999ME1315289OA149901291REMSYN088AAXX  15024 06784 33/// /3505 10016 21017 38429 48528 52/// 333 55300 20000 91125 91216;
0112067840999992011011503004+46817+009850FM-12+159099999V0200401N002619999999N9999999N1+00031+00011999999ADDMA1999999084361ME1315359REMSYN076AAXX  15034 06784 33/// /0405 10003 20001 38436 48535 5//// 333 553// 20000;
0155067840999992011011504004+46817+009850FM-12+159099999V0200101N003619999999N9999999N1+00051+00021999999ADDMA1999999084371MD1210231+9999ME1315369OA149900721REMSYN094AAXX  15044 06784 23/// /0107 10005 20002 38437 48536 52023 333 55300 20000 69955 91114 91209;
0155067840999992011011505004+46817+009850FM-12+159099999V0200401N005119999999N9999999N1+00101-00121999999ADDMA1999999084421MD1110131+9999ME1315409OA149901081REMSYN094AAXX  15054 06784 23/// /0410 10010 21012 38442 48540 51013 333 55300 20000 69935 91121 91212;
0239067840999992011011506004+46817+009850FM-12+159099999V0200401N007219999999N9999999N1+00131-00211999999ADDAA112001091AL14800091GJ103549IA2999-00409KA1999N-00191MA1999999084541MD1310181+9999ME1315529OA149901341REMSYN124AAXX  15064 06784 03/// /0414 10013 21021 38454 48552 53018 69992 333 21019 3/104 55059 55300 20000 69915 70008 91126 91216;
0155067840999992011011507004+46817+009850FM-12+159099999V0200301N002119999999N9999999N1-00041-00091999999ADDMA1999999084671MD1310301+9999ME1315649OA149901341REMSYN094AAXX  15074 06784 23/// /0304 11004 21009 38467 48564 53030 333 55300 20000 69915 91126 91215;
0149067840999992011011508004+46817+009850FM-12+159099999V0200101N001019999999N9999999N1+00011-00151999999ADDMA1999999084691MD1219999+9999ME1315669OA149901341REMSYN088AAXX  15084 06784 33/// /0102 10001 21015 38469 48566 52/// 333 55300 20079 91126 91215;
0149067840999992011011509004+46817+009850FM-12+159099999V0200201N001019999999N9999999N1+00081-00271999999ADDMA1999999084751MD1210211+9999ME1315729OA149901341REMSYN088AAXX  15094 06784 33/// /0202 10008 21027 38475 48572 52021 333 55302 20428 91126 91215;
0149067840999992011011510004+46817+009850FM-12+159099999V0209999C000019999999N9999999N1+00141-00351999999ADDMA1999999084771MD1210101+9999ME1315749OA149900151REMSYN088AAXX  15104 06784 33/// /0000 10014 21035 38477 48574 52010 333 553// 2//// 91103 91202;
0149067840999992011011511004+46817+009850FM-12+159099999V0209999C000019999999N9999999N1+00161-00501999999ADDMA1999999084731MD1010041+9999ME1315709OA149900151REMSYN088AAXX  15114 06784 33/// /0000 10016 21050 38473 48570 50004 333 553// 2//// 91103 91202;
0191067840999992011011512004+46817+009850FM-12+159099999V0209999C000019999999N9999999N1+00201-00651999999ADDAA106000091MA1999999084661MD1810091+9999ME1315649OA149901341REMSYN100AAXX  15124 06784 03/// /0000 10020 21065 38466 48564 58009 69911 333 553// 2//// 60005 91126 91216;EQDQ01  00002PRCP06
0112067840999992011011513004+46817+009850FM-12+159099999V0200801N000519999999N9999999N1+00271-01021999999ADDMA1999999084671ME1315659REMSYN076AAXX  15134 06784 33/// /0801 10027 21102 38467 48565 5//// 333 553// 2////;
0096067840999992011011514004+46817+009850FM-12+159099999V0201601N000519999999N9999999N1+00251-00841999999ADDMA1999999084701ME1315679REMSYN060AAXX  15144 06784 43/// /1601 10025 21084 38470 48567 5////;
0096067840999992011011515004+46817+009850FM-12+159099999V0200101N001019999999N9999999N1+00151-00791999999ADDMA1999999084761ME1315739REMSYN060AAXX  15154 06784 43/// /0102 10015 21079 38476 48573 5////;
0096067840999992011011516004+46817+009850FM-12+159099999V0201701N001019999999N9999999N1-00061-00841999999ADDMA1999999084781ME1315759REMSYN060AAXX  15164 06784 43/// /1702 11006 21084 38478 48575 5////;
0112067840999992011011517004+46817+009850FM-12+159099999V0200201N000519999999N9999999N1-00241-00761999999ADDMA1999999084831ME1315809REMSYN076AAXX  15174 06784 33/// /0201 11024 21076 38483 48580 5//// 333 553// 20000;
0119067840999992011011518004+46817+009850FM-12+159099999V0209999C000019999999N9999999N1-00301-00751999999ADDKA1999M+00331MA1999999084911ME1315879REMSYN070AAXX  15184 06784 43/// /0000 11030 21075 38491 48587 5//// 333 10033;
0096067840999992011011519004+46817+009850FM-12+159099999V0202001N001019999999N9999999N1-00311-00741999999ADDMA1999999084941ME1315909REMSYN060AAXX  15194 06784 43/// /2002 11031 21074 38494 48590 5////;
0096067840999992011011520004+46817+009850FM-12+159099999V0201901N001519999999N9999999N1-00271-00971999999ADDMA1999999084951ME1315919REMSYN060AAXX  15204 06784 43/// /1903 11027 21097 38495 48591 5////;
0149067840999992011011521004+46817+009850FM-12+159099999V0201601N000519999999N9999999N1-00351-00991999999ADDMA1999999084941MD1210031+9999ME1315909OA149900261REMSYN088AAXX  15214 06784 33/// /1601 11035 21099 38494 48590 52003 333 55300 20000 91105 91203;
0149067840999992011011522004+46817+009850FM-12+159099999V0202101N001019999999N9999999N1-00201-01181999999ADDMA1999999084951MD1210011+9999ME1315919OA149900211REMSYN088AAXX  15224 06784 33/// /2102 11020 21118 38495 48591 52001 333 55300 20000 91104 91203;
0149067840999992011011523004+46817+009850FM-12+159099999V0201901N000519999999N9999999N1-00371-01041999999ADDMA1999999084931MD1710021+9999ME1315899OA149900211REMSYN088AAXX  15234 06784 33/// /1901 11037 21104 38493 48589 57002 333 55300 20000 91104 91203;
0149067840999992011011600004+46817+009850FM-12+159099999V0200201N000519999999N9999999N1-00341-01201999999ADDMA1999999084931MD1710011+9999ME1315899OA149900361REMSYN088AAXX  16004 06784 33/// /0201 11034 21120 38493 48589 57001 333 55300 20000 91107 91205;
0149067840999992011011601004+46817+009850FM-12+159099999V0202201N000519999999N9999999N1-00301-01361999999ADDMA1999999084941MD1710011+9999ME1315909OA149900101REMSYN088AAXX  16014 06784 33/// /2201 11030 21136 38494 48590 57001 333 55300 20000 91102 91201;
0149067840999992011011602004+46817+009850FM-12+159099999V0200101N000519999999N9999999N1-00321-01181999999ADDMA1999999084941MD1219999+9999ME1315909OA149900101REMSYN088AAXX  16024 06784 33/// /0101 11032 21118 38494 48590 52/// 333 55300 20000 91102 91201;
0096067840999992011011603004+46817+009850FM-12+159099999V0209999C000019999999N9999999N1-00301-01121999999ADDMA1999999084931ME1315899REMSYN060AAXX  16034 06784 43/// /0000 11030 21112 38493 48589 5////;
0149067840999992011011604004+46817+009850FM-12+159099999V0200201N000519999999N9999999N1-00301-01161999999ADDMA1999999084901MD1710041+9999ME1315869OA149900101REMSYN088AAXX  16044 06784 33/// /0201 11030 21116 38490 48586 57004 333 55300 20000 91102 91201;
0149067840999992011011605004+46817+009850FM-12+159099999V0209999C000019999999N9999999N1-00271-00971999999ADDMA1999999084881MD1710061+9999ME1315859OA149900101REMSYN088AAXX  16054 06784 33/// /0000 11027 21097 38488 48585 57006 333 55300 20000 91102 91201;
0216067840999992011011606004+46817+009850FM-12+159099999V0209999C000019999999N9999999N1-00301-00811999999ADDAL11200091GJ103069IA2999-00809KA1999N-00441MA1999999084901MD1510031+9999ME1315869OA149900211REMSYN112AAXX  16064 06784 33/// /0000 11030 21081 38490 48586 55003 333 21044 3/108 55051 55300 20000 70002 91104 91203;
0149067840999992011011607004+46817+009850FM-12+159099999V0200201N000519999999N9999999N1-00231-00951999999ADDMA1999999084911MD1310011+9999ME1315879OA149900101REMSYN088AAXX  16074 06784 33/// /0201 11023 21095 38491 48587 53001 333 55300 20000 91102 91202;
0149067840999992011011608004+46817+009850FM-12+159099999V0201701N000519999999N9999999N1-00131-00931999999ADDMA1999999084941MD1219999+9999ME1315909OA149900101REMSYN088AAXX  16084 06784 33/// /1701 11013 21093 38494 48590 52/// 333 55300 20054 91102 91201;
0149067840999992011011609004+46817+009850FM-12+159099999V0201601N000519999999N9999999N1+00041-01111999999ADDMA1999999084931MD1010031+9999ME1315899OA149900101REMSYN088AAXX  16094 06784 33/// /1601 10004 21111 38493 48589 50003 333 55304 20396 91102 91202;
0168067840999992011011610004+46817+009850FM-12+159099999V0200401N000519999999N9999999N1+00151-00891999999ADDMA1999999084911MD1410001+9999ME1315879OA149900101REMSYN088AAXX  16104 06784 33/// /0401 10015 21089 38491 48587 58000 333 553// 2//// 91102 91201;EQDQ01+000082APCTEN
0149067840999992011011611004+46817+009850FM-12+159099999V0209999C000019999999N9999999N1+00461-01001999999ADDMA1999999084891MD1810051+9999ME1315859OA149900101REMSYN088AAXX  16114 06784 33/// /0000 10046 21100 38489 48585 58005 333 553// 2//// 91102 91201;
0149067840999992011011612004+46817+009850FM-12+159099999V0209999C000019999999N9999999N1+00541-00751999999ADDMA1999999084851MD1810081+9999ME1315829OA149900101REMSYN088AAXX  16124 06784 33/// /0000 10054 21075 38485 48582 58008 333 553// 2//// 91102 91202;
0149067840999992011011613004+46817+009850FM-12+159099999V0209999C000019999999N9999999N1+00571-00611999999ADDMA1999999084811MD1810101+9999ME1315789OA149900101REMSYN088AAXX  16134 06784 33/// /0000 10057 21061 38481 48578 58010 333 553// 2//// 91102 91201;
0149067840999992011011614004+46817+009850FM-12+159099999V0209999C000019999999N9999999N1+00681-00711999999ADDMA1999999084821MD1719999+9999ME1315799OA149900151REMSYN088AAXX  16144 06784 33/// /0000 10068 21071 38482 48579 57/// 333 553// 2//// 91103 91201;
0149067840999992011011615004+46817+009850FM-12+159099999V0209999C000019999999N9999999N1+00511-00661999999ADDMA1999999084851MD1510001+9999ME1315819OA149900151REMSYN088AAXX  16154 06784 33/// /0000 10051 21066 38485 48581 55000 333 553// 20648 91103 91201;
0149067840999992011011616004+46817+009850FM-12+159099999V0201701N000519999999N9999999N1+00381-00921999999ADDMA1999999084861MD1110051+9999ME1315839OA149900211REMSYN088AAXX  16164 06784 33/// /1701 10038 21092 38486 48583 51005 333 55301 20083 91104 91202;
0149067840999992011011617004+46817+009850FM-12+159099999V0209999C000019999999N9999999N1+00151-00531999999ADDMA1999999084891MD1310071+9999ME1315859OA149900211REMSYN088AAXX  16174 06784 33/// /0000 10015 21053 38489 48585 53007 333 55300 20000 91104 91202;
0168067840999992011011618004+46817+009850FM-12+159099999V0202301N000519999999N9999999N1+00221-00841999999ADDKA1120M+00751MA1999999084891MD1210041+9999ME1315859OA149900211REMSYN094AAXX  16184 06784 33/// /2301 10022 21084 38489 48585 52004 333 10075 55300 20000 91104 91202;
0149067840999992011011619004+46817+009850FM-12+159099999V0201401N000519999999N9999999N1+00081-00821999999ADDMA1999999084891MD1010031+9999ME1315859OA149900211REMSYN088AAXX  16194 06784 33/// /1401 10008 21082 38489 48585 50003 333 55300 20000 91104 91203;
0149067840999992011011620004+46817+009850FM-12+159099999V0209999C000019999999N9999999N1-00021-00721999999ADDMA1999999084901MD1210011+9999ME1315869OA149900211REMSYN088AAXX  16204 06784 33/// /0000 11002 21072 38490 48586 52001 333 55300 20000 91104 91203;
0149067840999992011011621004+46817+009850FM-12+159099999V0209999C000019999999N9999999N1+00031-00941999999ADDMA1999999084901MD1210011+9999ME1315869OA149900211REMSYN088AAXX  16214 06784 33/// /0000 10003 21094 38490 48586 52001 333 55300 20000 91104 91203;
0149067840999992011011622004+46817+009850FM-12+159099999V0203601N000519999999N9999999N1-00051-00951999999ADDMA1999999084901MD1010011+9999ME1315869OA149900101REMSYN088AAXX  16224 06784 33/// /3601 11005 21095 38490 48586 50001 333 55300 20000 91102 91201;
0149067840999992011011623004+46817+009850FM-12+159099999V0203501N000519999999N9999999N1-00091-00961999999ADDMA1999999084901MD1410001+9999ME1315869OA149900101REMSYN088AAXX  16234 06784 33/// /3501 11009 21096 38490 48586 54000 333 55300 20000 91102 91201;
0149067840999992011011700004+46817+009850FM-12+159099999V0209999C000019999999N9999999N1-00091-01111999999ADDMA1999999084871MD1810031+9999ME1315849OA149900211REMSYN088AAXX  17004 06784 33/// /0000 11009 21111 38487 48584 58003 333 55300 20000 91104 91203;
0149067840999992011011701004+46817+009850FM-12+159099999V0203501N000519999999N9999999N1-00181-01171999999ADDMA1999999084841MD1810061+9999ME1315819OA149900101REMSYN088AAXX  17014 06784 33/// /3501 11018 21117 38484 48581 58006 333 55300 20000 91102 91201;
0149067840999992011011702004+46817+009850FM-12+159099999V0209999C000519999999N9999999N1-00101-01291999999ADDMA1999999084831MD1619999+9999ME1315809OA149900101REMSYN088AAXX  17024 06784 33/// /0001 11010 21129 38483 48580 56/// 333 55300 20000 91102 91201;
0112067840999992011011703004+46817+009850FM-12+159099999V0200101N000519999999N9999999N1-00191-01271999999ADDMA1999999084811ME1315789REMSYN076AAXX  17034 06784 33/// /0101 11019 21127 38481 48578 5//// 333 553// 20000;
0149067840999992011011704004+46817+009850FM-12+159099999V0209999C000519999999N9999999N1-00261-01441999999ADDMA1999999084781MD1810061+9999ME1315769OA149900101REMSYN088AAXX  17044 06784 33/// /0001 11026 21144 38478 48576 58006 333 55300 20000 91102 91201;
0149067840999992011011705004+46817+009850FM-12+159099999V0203501N000519999999N9999999N1-00241-01211999999ADDMA1999999084781MD1710051+9999ME1315759OA149900101REMSYN088AAXX  17054 06784 33/// /3501 11024 21121 38478 48575 57005 333 55300 20000 91102 91201;
0216067840999992011011706004+46817+009850FM-12+159099999V0203601N000519999999N9999999N1-00201-01301999999ADDAL19900091GJ103969IA2999-00809KA1999N-00271MA1999999084721MD1710091+9999ME1315709OA149900211REMSYN112AAXX  17064 06784 33/// /3601 11020 21130 38472 48570 57009 333 21027 3/108 55066 55300 20000 70000 91104 91203;
0149067840999992011011707004+46817+009850FM-12+159099999V0200101N000519999999N9999999N1-00251-01591999999ADDMA1999999084721MD1710061+9999ME1315709OA149900101REMSYN088AAXX  17074 06784 33/// /0101 11025 21159 38472 48570 57006 333 55300 20000 91102 91201;
0096067840999992011011708004+46817+009850FM-12+159099999V0209999C000019999999N9999999N1-00271-01331999999ADDMA1999999084711ME1315699REMSYN060AAXX  17084 06784 43/// /0000 11027 21133 38471 48569 5////;
0096067840999992011011709004+46817+009850FM-12+159099999V0203601N000519999999N9999999N1-00141-01331999999ADDMA1999999084691ME1315679REMSYN060AAXX  17094 06784 43/// /3601 11014 21133 38469 48567 5////;
0149067840999992011011710004+46817+009850FM-12+159099999V0209999C000519999999N9999999N1+00011-01331999999ADDMA1999999084681MD1810041+9999ME1315669OA149900101REMSYN088AAXX  17104 06784 33/// /0001 10001 21133 38468 48566 58004 333 553// 20972 91102 91201;
0149067840999992011011711004+46817+009850FM-12+159099999V0209999C000019999999N9999999N1+00201-01371999999ADDMA1999999084661MD1810051+9999ME1315649OA149900101REMSYN088AAXX  17114 06784 33/// /0000 10020 21137 38466 48564 58005 333 553// 2//// 91102 91201;
0149067840999992011011712004+46817+009850FM-12+159099999V0209999C000019999999N9999999N1+00461-01111999999ADDMA1999999084621MD1810071+9999ME1315609OA149900101REMSYN088AAXX  17124 06784 33/// /0000 10046 21111 38462 48560 58007 333 553// 2//// 91102 91201;
0149067840999992011011713004+46817+009850FM-12+159099999V0201501N002119999999N9999999N1+00531-00881999999ADDMA1999999084561MD1810121+9999ME1315539OA149900411REMSYN088AAXX  17134 06784 33/// /1504 10053 21088 38456 48553 58012 333 553// 2//// 91108 91204;
0096067840999992011011714004+46817+009850FM-12+159099999V0201601N001519999999N9999999N1+00381-00601999999ADDMA1999999084551ME1315529REMSYN060AAXX  17144 06784 43/// /1603 10038 21060 38455 48552 5////;
0096067840999992011011715004+46817+009850FM-12+159099999V0201801N001019999999N9999999N1+00431-01251999999ADDMA1999999084601ME1315589REMSYN060AAXX  17154 06784 43/// /1802 10043 21125 38460 48558 5////;
0149067840999992011011716004+46817+009850FM-12+159099999V0203101N000519999999N9999999N1+00151-00951999999ADDMA1999999084641MD1210081+9999ME1315629OA149900411REMSYN088AAXX  17164 06784 33/// /3101 10015 21095 38464 48562 52008 333 55302 20090 91108 91203;
0149067840999992011011717004+46817+009850FM-12+159099999V0200101N000519999999N9999999N1+00231-01311999999ADDMA1999999084681MD1110131+9999ME1315669OA149900311REMSYN088AAXX  17174 06784 33/// /0101 10023 21131 38468 48566 51013 333 55300 20000 91106 91203;
0168067840999992011011718004+46817+009850FM-12+159099999V0209999C000019999999N9999999N1-00111-01001999999ADDKA1120M+00621MA1999999084701MD1110101+9999ME1315689OA149900511REMSYN094AAXX  17184 06784 33/// /0000 11011 21100 38470 48568 51010 333 10062 55300 20000 91110 91205;
0149067840999992011011719004+46817+009850FM-12+159099999V0209999C000019999999N9999999N1-00191-01041999999ADDMA1999999084721MD1110081+9999ME1315709OA149900101REMSYN088AAXX  17194 06784 33/// /0000 11019 21104 38472 48570 51008 333 55300 20000 91102 91201;
0149067840999992011011720004+46817+009850FM-12+159099999V0209999C000019999999N9999999N1-00261-01171999999ADDMA1999999084731MD1110051+9999ME1315719OA149900101REMSYN088AAXX  17204 06784 33/// /0000 11026 21117 38473 48571 51005 333 55300 20000 91102 91201;
0149067840999992011011721004+46817+009850FM-12+159099999V0200101N000519999999N9999999N1-00271-01261999999ADDMA1999999084731MD1110031+9999ME1315719OA149900311REMSYN088AAXX  17214 06784 33/// /0101 11027 21126 38473 48571 51003 333 55300 20000 91106 91203;
0149067840999992011011722004+46817+009850FM-12+159099999V0203601N000519999999N9999999N1-00291-01331999999ADDMA1999999084731MD1110011+9999ME1315719OA149900101REMSYN088AAXX  17224 06784 33/// /3601 11029 21133 38473 48571 51001 333 55300 20000 91102 91201;
0149067840999992011011723004+46817+009850FM-12+159099999V0209999C000019999999N9999999N1-00351-01261999999ADDMA1999999084761MD1310031+9999ME1315749OA149900101REMSYN088AAXX  17234 06784 33/// /0000 11035 21126 38476 48574 53003 333 55300 20000 91102 91201;
0149067840999992011011800004+46817+009850FM-12+159099999V0209999C000019999999N9999999N1-00401-01331999999ADDMA1999999084741MD1010011+9999ME1315729OA149900511REMSYN088AAXX  18004 06784 33/// /0000 11040 21133 38474 48572 50001 333 55300 20000 91110 91205;
0149067840999992011011801004+46817+009850FM-12+159099999V0209999C000019999999N9999999N1-00391-01311999999ADDMA1999999084721MD1719999+9999ME1315709OA149900101REMSYN088AAXX  18014 06784 33/// /0000 11039 21131 38472 48570 57/// 333 55300 20000 91102 91201;
0096067840999992011011802004+46817+009850FM-12+159099999V0203601N000519999999N9999999N1-00481-01451999999ADDMA1999999084691ME1315679REMSYN060AAXX  18024 06784 43/// /3601 11048 21145 38469 48567 5////;
0096067840999992011011803004+46817+009850FM-12+159099999V0200201N000519999999N9999999N1-00441-01311999999ADDMA1999999084671ME1315659REMSYN060AAXX  18034 06784 43/// /0201 11044 21131 38467 48565 5////;
0112067840999992011011804004+46817+009850FM-12+159099999V0209999C000019999999N9999999N1-00431-01261999999ADDMA1999999084671ME1315659REMSYN076AAXX  18044 06784 33/// /0000 11043 21126 38467 48565 5//// 333 553// 20000;
0149067840999992011011805004+46817+009850FM-12+159099999V0200201N000519999999N9999999N1-00421-01371999999ADDMA1999999084621MD1810071+9999ME1315619OA149900101REMSYN088AAXX  18054 06784 33/// /0201 11042 21137 38462 48561 58007 333 55300 20000 91102 91201;
0216067840999992011011806004+46817+009850FM-12+159099999V0209999C000019999999N9999999N1-00521-01271999999ADDAL19900091GJ103969IA2999-01009KA1999N-00571MA1999999084601MD1710071+9999ME1315599OA149900101REMSYN112AAXX  18064 06784 33/// /0000 11052 21127 38460 48559 57007 333 21057 3/110 55066 55300 20000 70000 91102 91201;
0149067840999992011011807004+46817+009850FM-12+159099999V0209999C000019999999N9999999N1-00461-01201999999ADDMA1999999084601MD1710071+9999ME1315599OA149900101REMSYN088AAXX  18074 06784 33/// /0000 11046 21120 38460 48559 57007 333 55300 20000 91102 91201;
0096067840999992011011808004+46817+009850FM-12+159099999V0209999C000019999999N9999999N1-00421-01251999999ADDMA1999999084601ME1315599REMSYN060AAXX  18084 06784 43/// /0000 11042 21125 38460 48559 5////;
