0149067870999992011010100004+46617+009433FM-12+098999999V0202201N000519999999N9999999N1-00591-00811999999ADDMA1999999090671MD1710071+9999ME1314919OA149900211REMSYN088AAXX  01004 06787 33/// /2201 11059 21081 39067 48491 57007 333 55300 20000 91104 91202;
0149067870999992011010101004+46617+009433FM-12+098999999V0209999C000019999999N9999999N1-00701-00891999999ADDMA1999999090631MD1810121+9999ME1314869OA149900151REMSYN088AAXX  01014 06787 33/// /0000 11070 21089 39063 48486 58012 333 55300 20000 91103 91201;
0149067870999992011010102004+46617+009433FM-12+098999999V0209999C000019999999N9999999N1-00841-00941999999ADDMA1999999090611MD1610101+9999ME1314819OA149900151REMSYN088AAXX  01024 06787 33/// /0000 11084 21094 39061 48481 56010 333 55300 20000 91103 91201;
0149067870999992011010103004+46617+009433FM-12+098999999V0200201N000519999999N9999999N1-00651-00911999999ADDMA1999999090571MD1610101+9999ME1314829OA149900151REMSYN088AAXX  01034 06787 33/// /0201 11065 21091 39057 48482 56010 333 55300 20000 91103 91202;
0149067870999992011010104004+46617+009433FM-12+098999999V0209999C000019999999N9999999N1-00661-00881999999ADDMA1999999090531MD1810101+9999ME1314789OA149900151REMSYN088AAXX  01044 06787 33/// /0000 11066 21088 39053 48478 58010 333 55300 20000 91103 91201;
0149067870999992011010105004+46617+009433FM-12+098999999V0209999C000019999999N9999999N1-00691-00931999999ADDMA1999999090521MD1610091+9999ME1314779OA149900101REMSYN088AAXX  01054 06787 33/// /0000 11069 21093 39052 48477 56009 333 55300 20000 91102 91201;
0198067870999992011010106004+46617+009433FM-12+098999999V0202301N000519999999N9999999N1-00881-00941999999ADDAL19900091GJ102289KA1999N-00841MA1999999090521MD1710051+9999ME1314739OA149900151REMSYN106AAXX  01064 06787 33/// /2301 11088 21094 39052 48473 57005 333 21084 55038 55300 20000 70000 91103 91202;
0149067870999992011010107004+46617+009433FM-12+098999999V0209999C000019999999N9999999N1-00781-00991999999ADDMA1999999090571MD1310041+9999ME1314799OA149900151REMSYN088AAXX  01074 06787 33/// /0000 11078 21099 39057 48479 53004 333 55300 20000 91103 91202;
0149067870999992011010108004+46617+009433FM-12+098999999V0209999C000019999999N9999999N1-00651-00931999999ADDMA1999999090581MD1219999+9999ME1314829OA149900151REMSYN088AAXX  01084 06787 33/// /0000 11065 21093 39058 48482 52/// 333 55300 20022 91103 91201;
0096067870999992011010109004+46617+009433FM-12+098999999V0209999C000019999999N9999999N1-00711-00941999999ADDMA1999999090581ME1314819REMSYN060AAXX  01094 06787 43/// /0000 11071 21094 39058 48481 5////;
0096067870999992011010110004+46617+009433FM-12+098999999V0200401N000519999999N9999999N1-00611-00931999999ADDMA1999999090551ME1314819REMSYN060AAXX  01104 06787 43/// /0401 11061 21093 39055 48481 5////;
0149067870999992011010111004+46617+009433FM-12+098999999V0201301N000519999999N9999999N1-00351-00671999999ADDMA1999999090491MD1710091+9999ME1314809OA149900101REMSYN088AAXX  01114 06787 33/// /1301 11035 21067 39049 48480 57009 333 553// 2//// 91102 91201;
0096067870999992011010112004+46617+009433FM-12+098999999V0201301N000519999999N9999999N1-00221-00611999999ADDMA1999999090411ME1314769REMSYN060AAXX  01124 06787 43/// /1301 11022 21061 39041 48476 5////;
0096067870999992011010113004+46617+009433FM-12+098999999V0201401N000519999999N9999999N1-00041-00571999999ADDMA1999999090341ME1314739REMSYN060AAXX  01134 06787 43/// /1401 11004 21057 39034 48473 5////;
0096067870999992011010114004+46617+009433FM-12+098999999V0201801N001519999999N9999999N1-00221-00741999999ADDMA1999999090311ME1314679REMSYN060AAXX  01144 06787 43/// /1803 11022 21074 39031 48467 5////;
0096067870999992011010115004+46617+009433FM-12+098999999V0209999C000019999999N9999999N1-00251-00681999999ADDMA1999999090341ME1314699REMSYN060AAXX  01154 06787 43/// /0000 11025 21068 39034 48469 5////;
0096067870999992011010116004+46617+009433FM-12+098999999V0201801N000519999999N9999999N1-00291-00681999999ADDMA1999999090341ME1314689REMSYN060AAXX  01164 06787 43/// /1801 11029 21068 39034 48468 5////;
0096067870999992011010117004+46617+009433FM-12+098999999V0209999C000019999999N9999999N1-00391-00731999999ADDMA1999999090331ME1314669REMSYN060AAXX  01174 06787 43/// /0000 11039 21073 39033 48466 5////;
0096067870999992011010118004+46617+009433FM-12+098999999V0209999C000019999999N9999999N1-00441-00751999999ADDMA1999999090351ME1314679REMSYN060AAXX  01184 06787 43/// /0000 11044 21075 39035 48467 5////;
0112067870999992011010119004+46617+009433FM-12+098999999V0209999C000019999999N9999999N1-00561-00811999999ADDMA1999999090351ME1314649REMSYN076AAXX  01194 06787 33/// /0000 11056 21081 39035 48464 5//// 333 553// 20000;
0149067870999992011010120004+46617+009433FM-12+098999999V0201301N000519999999N9999999N1-00601-00851999999ADDMA1999999090411MD1210081+9999ME1314699OA149900101REMSYN088AAXX  01204 06787 33/// /1301 11060 21085 39041 48469 52008 333 55300 20000 91102 91201;
0149067870999992011010121004+46617+009433FM-12+098999999V0201901N000519999999N9999999N1-00641-00881999999ADDMA1999999090421MD1210071+9999ME1314699OA149900101REMSYN088AAXX  01214 06787 33/// /1901 11064 21088 39042 48469 52007 333 55300 20000 91102 91201;
0149067870999992011010122004+46617+009433FM-12+098999999V0209999C000019999999N9999999N1-00791-00961999999ADDMA1999999090411MD1210061+9999ME1314659OA149900101REMSYN088AAXX  01224 06787 33/// /0000 11079 21096 39041 48465 52006 333 55300 20000 91102 91201;
0149067870999992011010123004+46617+009433FM-12+098999999V0209999C000019999999N9999999N1-00751-00941999999ADDMA1999999090361MD1810051+9999ME1314629OA149900101REMSYN088AAXX  01234 06787 33/// /0000 11075 21094 39036 48462 58005 333 55300 20000 91102 91201;
0149067870999992011010200004+46617+009433FM-12+098999999V0209999C000019999999N9999999N1-00861-01021999999ADDMA1999999090291MD1810131+9999ME1314549OA149900211REMSYN088AAXX  02004 06787 33/// /0000 11086 21102 39029 48454 58013 333 55300 20000 91104 91203;
0149067870999992011010201004+46617+009433FM-12+098999999V0209999C000019999999N9999999N1-00911-01041999999ADDMA1999999090231MD1710181+9999ME1314489OA149900101REMSYN088AAXX  02014 06787 33/// /0000 11091 21104 39023 48448 57018 333 55300 20000 91102 91201;
0096067870999992011010202004+46617+009433FM-12+098999999V0209999C000019999999N9999999N1-00821-01041999999ADDMA1999999090241ME1314509REMSYN060AAXX  02024 06787 43/// /0000 11082 21104 39024 48450 5////;
0096067870999992011010203004+46617+009433FM-12+098999999V0209999C000019999999N9999999N1-00871-01051999999ADDMA1999999090211ME1314479REMSYN060AAXX  02034 06787 43/// /0000 11087 21105 39021 48447 5////;
0096067870999992011010204004+46617+009433FM-12+098999999V0203301N000519999999N9999999N1-00891-01081999999ADDMA1999999090231ME1314489REMSYN060AAXX  02044 06787 43/// /3301 11089 21108 39023 48448 5////;
0096067870999992011010205004+46617+009433FM-12+098999999V0209999C000019999999N9999999N1-00961-01131999999ADDMA1999999090271ME1314509REMSYN060AAXX  02054 06787 43/// /0000 11096 21113 39027 48450 5////;
0144067870999992011010206004+46617+009433FM-12+098999999V0209999C000019999999N9999999N1-01081-01211999999ADDKA1999N+99999MA1999999090291ME1314509REMSYN076AAXX  02064 06787 43/// /0000 11108 21121 39029 48450 5//// 333 21101 55038;EQDQ01 -01012ATMN  
0149067870999992011010207004+46617+009433FM-12+098999999V0201701N001519999999N9999999N1-00891-01061999999ADDMA1999999090331MD1310101+9999ME1314579OA149900151REMSYN088AAXX  02074 06787 33/// /1703 11089 21106 39033 48457 53010 333 55300 20000 91103 91203;
0149067870999992011010208004+46617+009433FM-12+098999999V0202101N001019999999N9999999N1-00841-01021999999ADDMA1999999090391MD1310121+9999ME1314639OA149900151REMSYN088AAXX  02084 06787 33/// /2102 11084 21102 39039 48463 53012 333 55300 20018 91103 91203;
0149067870999992011010209004+46617+009433FM-12+098999999V0202401N000519999999N9999999N1-00671-00871999999ADDMA1999999090421MD1210131+9999ME1314689OA149900151REMSYN088AAXX  02094 06787 33/// /2401 11067 21087 39042 48468 52013 333 55300 20101 91103 91203;
0149067870999992011010210004+46617+009433FM-12+098999999V0202101N000519999999N9999999N1-00531-00791999999ADDMA1999999090431MD1110101+9999ME1314729OA149900151REMSYN088AAXX  02104 06787 33/// /2101 11053 21079 39043 48472 51010 333 55300 20414 91103 91202;
0149067870999992011010211004+46617+009433FM-12+098999999V0202201N000519999999N9999999N1-00491-00831999999ADDMA1999999090371MD1810021+9999ME1314679OA149900151REMSYN088AAXX  02114 06787 33/// /2201 11049 21083 39037 48467 58002 333 55300 20580 91103 91202;
0149067870999992011010212004+46617+009433FM-12+098999999V0209999C000019999999N9999999N1-00421-00771999999ADDMA1999999090321MD1710101+9999ME1314649OA149900151REMSYN088AAXX  02124 06787 33/// /0000 11042 21077 39032 48464 57010 333 55300 20414 91103 91203;
0149067870999992011010213004+46617+009433FM-12+098999999V0209999C000019999999N9999999N1-00381-00721999999ADDMA1999999090311MD1610121+9999ME1314649OA149900051REMSYN088AAXX  02134 06787 33/// /0000 11038 21072 39031 48464 56012 333 55300 20270 91101 91201;
0112067870999992011010214004+46617+009433FM-12+098999999V0200101N001019999999N9999999N1-00301-00641999999ADDMA1999999090311ME1314669REMSYN076AAXX  02144 06787 33/// /0102 11030 21064 39031 48466 5//// 333 553// 20202;
0149067870999992011010215004+46617+009433FM-12+098999999V0203401N001019999999N9999999N1-00331-00631999999ADDMA1999999090361MD1319999+9999ME1314699OA149900211REMSYN088AAXX  02154 06787 33/// /3402 11033 21063 39036 48469 53/// 333 55300 20097 91104 91203;
0149067870999992011010216004+46617+009433FM-12+098999999V0203401N001019999999N9999999N1-00331-00591999999ADDMA1999999090391MD1210081+9999ME1314729OA149900211REMSYN088AAXX  02164 06787 33/// /3402 11033 21059 39039 48472 52008 333 55300 20011 91104 91203;
0149067870999992011010217004+46617+009433FM-12+098999999V0202601N000519999999N9999999N1-00341-00581999999ADDMA1999999090431MD1310121+9999ME1314759OA149900211REMSYN088AAXX  02174 06787 33/// /2601 11034 21058 39043 48475 53012 333 55300 20000 91104 91202;
0168067870999992011010218004+46617+009433FM-12+098999999V0209999C000019999999N9999999N1-00341-00571999999ADDKA1120M-00301MA1999999090461MD1319999+9999ME1314789OA149900211REMSYN094AAXX  02184 06787 33/// /0000 11034 21057 39046 48478 53/// 333 11030 55300 20000 91104 91203;
0149067870999992011010219004+46617+009433FM-12+098999999V0203201N000519999999N9999999N1-00361-00591999999ADDMA1999999090501MD1110111+9999ME1314819OA149900211REMSYN088AAXX  02194 06787 33/// /3201 11036 21059 39050 48481 51011 333 55300 20000 91104 91202;
0149067870999992011010220004+46617+009433FM-12+098999999V0209999C000019999999N9999999N1-00341-00601999999ADDMA1999999090541MD1310111+9999ME1314859OA149900211REMSYN088AAXX  02204 06787 33/// /0000 11034 21060 39054 48485 53011 333 55300 20000 91104 91202;
0149067870999992011010221004+46617+009433FM-12+098999999V0209999C000019999999N9999999N1-00431-00581999999ADDMA1999999090571MD1110111+9999ME1314869OA149900211REMSYN088AAXX  02214 06787 33/// /0000 11043 21058 39057 48486 51011 333 55300 20000 91104 91202;
0149067870999992011010222004+46617+009433FM-12+098999999V0201001N000519999999N9999999N1-00451-00691999999ADDMA1999999090591MD1210091+9999ME1314879OA149900101REMSYN088AAXX  02224 06787 33/// /1001 11045 21069 39059 48487 52009 333 55300 20000 91102 91202;
0149067870999992011010223004+46617+009433FM-12+098999999V0200801N000519999999N9999999N1-00461-00731999999ADDMA1999999090591MD1210051+9999ME1314879OA149900101REMSYN088AAXX  02234 06787 33/// /0801 11046 21073 39059 48487 52005 333 55300 20000 91102 91202;
0149067870999992011010300004+46617+009433FM-12+098999999V0201101N000519999999N9999999N1-00431-00671999999ADDMA1999999090581MD1010011+9999ME1314879OA149900211REMSYN088AAXX  03004 06787 33/// /1101 11043 21067 39058 48487 50001 333 55300 20000 91104 91203;
0149067870999992011010301004+46617+009433FM-12+098999999V0209999C000019999999N9999999N1-00451-00671999999ADDMA1999999090581MD1710011+9999ME1314869OA149900101REMSYN088AAXX  03014 06787 33/// /0000 11045 21067 39058 48486 57001 333 55300 20000 91102 91201;
0149067870999992011010302004+46617+009433FM-12+098999999V0209999C000019999999N9999999N1-00491-00801999999ADDMA1999999090601MD1319999+9999ME1314879OA149900101REMSYN088AAXX  03024 06787 33/// /0000 11049 21080 39060 48487 53/// 333 55300 20000 91102 91201;
0096067870999992011010303004+46617+009433FM-12+098999999V0201701N000519999999N9999999N1-00491-01041999999ADDMA1999999090591ME1314869REMSYN060AAXX  03034 06787 43/// /1701 11049 21104 39059 48486 5////;
0149067870999992011010304004+46617+009433FM-12+098999999V0201301N000519999999N9999999N1-00521-00861999999ADDMA1999999090591MD1210011+9999ME1314869OA149900151REMSYN088AAXX  03044 06787 33/// /1301 11052 21086 39059 48486 52001 333 55300 20000 91103 91202;
0149067870999992011010305004+46617+009433FM-12+098999999V0200901N000519999999N9999999N1-00541-00901999999ADDMA1999999090591MD1710011+9999ME1314859OA149900151REMSYN088AAXX  03054 06787 33/// /0901 11054 21090 39059 48485 57001 333 55300 20000 91103 91202;
0198067870999992011010306004+46617+009433FM-12+098999999V0201901N000519999999N9999999N1-00531-01101999999ADDAL19900091GJ100009KA1999N-00551MA1999999090611MD1210021+9999ME1314879OA149900211REMSYN106AAXX  03064 06787 33/// /1901 11053 21110 39061 48487 52002 333 21055 55000 55300 20000 70000 91104 91202;
0149067870999992011010307004+46617+009433FM-12+098999999V0201901N002619999999N9999999N1-00621-01151999999ADDMA1999999090631MD1310041+9999ME1314879OA149900461REMSYN088AAXX  03074 06787 33/// /1905 11062 21115 39063 48487 53004 333 55300 20000 91109 91206;
0149067870999992011010308004+46617+009433FM-12+098999999V0202001N003119999999N9999999N1-00691-01221999999ADDMA1999999090671MD1319999+9999ME1314899OA149900511REMSYN088AAXX  03084 06787 33/// /2006 11069 21122 39067 48489 53/// 333 55300 20022 91110 91206;
0112067870999992011010309004+46617+009433FM-12+098999999V0201901N003119999999N9999999N1-00761-01341999999ADDMA1999999090691ME1314909REMSYN076AAXX  03094 06787 33/// /1906 11076 21134 39069 48490 5//// 333 553// 20133;
0149067870999992011010310004+46617+009433FM-12+098999999V0200901N001019999999N9999999N1-00941-01231999999ADDMA1999999090681MD1210051+9999ME1314859OA149900511REMSYN088AAXX  03104 06787 33/// /0902 11094 21123 39068 48485 52005 333 55301 20176 91110 91207;
0149067870999992011010311004+46617+009433FM-12+098999999V0201301N000519999999N9999999N1-00651-01061999999ADDMA1999999090621MD1810051+9999ME1314869OA149900361REMSYN088AAXX  03114 06787 33/// /1301 11065 21106 39062 48486 58005 333 553// 2//// 91107 91204;
0149067870999992011010312004+46617+009433FM-12+098999999V0201101N000519999999N9999999N1-00541-01031999999ADDMA1999999090531MD1810161+9999ME1314809OA149900511REMSYN088AAXX  03124 06787 33/// /1101 11054 21103 39053 48480 58016 333 553// 2//// 91110 91207;
0149067870999992011010313004+46617+009433FM-12+098999999V0201401N000519999999N9999999N1-00441-01111999999ADDMA1999999090461MD1710221+9999ME1314769OA149900101REMSYN088AAXX  03134 06787 33/// /1401 11044 21111 39046 48476 57022 333 553// 2//// 91102 91201;
0112067870999992011010314004+46617+009433FM-12+098999999V0201701N002119999999N9999999N1-00481-01081999999ADDMA1999999090451ME1314749REMSYN076AAXX  03144 06787 33/// /1704 11048 21108 39045 48474 5//// 333 553// 20767;
0112067870999992011010315004+46617+009433FM-12+098999999V0201701N001019999999N9999999N1-00651-01071999999ADDMA1999999090461ME1314729REMSYN076AAXX  03154 06787 33/// /1702 11065 21107 39046 48472 5//// 333 553// 20083;
0149067870999992011010316004+46617+009433FM-12+098999999V0201801N001019999999N9999999N1-00771-01161999999ADDMA1999999090481MD1310021+9999ME1314729OA149900311REMSYN088AAXX  03164 06787 33/// /1802 11077 21116 39048 48472 53002 333 55300 20018 91106 91205;
0149067870999992011010317004+46617+009433FM-12+098999999V0209999C000019999999N9999999N1-00771-01091999999ADDMA1999999090521MD1110071+9999ME1314759OA149900311REMSYN088AAXX  03174 06787 33/// /0000 11077 21109 39052 48475 51007 333 55300 20000 91106 91204;
0168067870999992011010318004+46617+009433FM-12+098999999V0201801N001019999999N9999999N1-00891-01221999999ADDKA1120M-00311MA1999999090531MD1110071+9999ME1314749OA149900511REMSYN094AAXX  03184 06787 33/// /1802 11089 21122 39053 48474 51007 333 11031 55300 20000 91110 91207;
0149067870999992011010319004+46617+009433FM-12+098999999V0201001N000519999999N9999999N1-00951-01421999999ADDMA1999999090521MD1010041+9999ME1314729OA149900151REMSYN088AAXX  03194 06787 33/// /1001 11095 21142 39052 48472 50004 333 55300 20000 91103 91202;
0149067870999992011010320004+46617+009433FM-12+098999999V0201401N000519999999N9999999N1-01011-01231999999ADDMA1999999090511MD1810011+9999ME1314709OA149900151REMSYN088AAXX  03204 06787 33/// /1401 11101 21123 39051 48470 58001 333 55300 20000 91103 91201;
0149067870999992011010321004+46617+009433FM-12+098999999V0209999C000019999999N9999999N1-01151-01281999999ADDMA1999999090481MD1810051+9999ME1314659OA149900311REMSYN088AAXX  03214 06787 33/// /0000 11115 21128 39048 48465 58005 333 55300 20000 91106 91204;
0149067870999992011010322004+46617+009433FM-12+098999999V0200801N000519999999N9999999N1-01061-01331999999ADDMA1999999090461MD1810061+9999ME1314659OA149900151REMSYN088AAXX  03224 06787 33/// /0801 11106 21133 39046 48465 58006 333 55300 20000 91103 91201;
0149067870999992011010323004+46617+009433FM-12+098999999V0201101N000519999999N9999999N1-01051-01321999999ADDMA1999999090431MD1610081+9999ME1314629OA149900151REMSYN088AAXX  03234 06787 33/// /1101 11105 21132 39043 48462 56008 333 55300 20000 91103 91201;
0149067870999992011010400004+46617+009433FM-12+098999999V0209999C000019999999N9999999N1-01191-01361999999ADDMA1999999090371MD1810111+9999ME1314559OA149900311REMSYN088AAXX  04004 06787 33/// /0000 11119 21136 39037 48455 58011 333 55300 20000 91106 91205;
0149067870999992011010401004+46617+009433FM-12+098999999V0209999C000019999999N9999999N1-01171-01311999999ADDMA1999999090331MD1610131+9999ME1314529OA149900151REMSYN088AAXX  04014 06787 33/// /0000 11117 21131 39033 48452 56013 333 55300 20000 91103 91201;
0149067870999992011010402004+46617+009433FM-12+098999999V0201801N000519999999N9999999N1-01051-01271999999ADDMA1999999090281MD1619999+9999ME1314509OA149900151REMSYN088AAXX  04024 06787 33/// /1801 11105 21127 39028 48450 56/// 333 55300 20000 91103 91201;
0149067870999992011010403004+46617+009433FM-12+098999999V0201301N000519999999N9999999N1-01011-01201999999ADDMA1999999090241MD1610131+9999ME1314479OA149900151REMSYN088AAXX  04034 06787 33/// /1301 11101 21120 39024 48447 56013 333 55300 20000 91103 91201;
0149067870999992011010404004+46617+009433FM-12+098999999V0209999C000019999999N9999999N1-01061-01331999999ADDMA1999999090221MD1710111+9999ME1314449OA149900151REMSYN088AAXX  04044 06787 33/// /0000 11106 21133 39022 48444 57011 333 55300 20000 91103 91201;
0149067870999992011010405004+46617+009433FM-12+098999999V0203501N000519999999N9999999N1-00991-01161999999ADDMA1999999090241MD1510041+9999ME1314479OA149900151REMSYN088AAXX  04054 06787 33/// /3501 11099 21116 39024 48447 55004 333 55300 20000 91103 91201;
0198067870999992011010406004+46617+009433FM-12+098999999V0209999C000019999999N9999999N1-01001-01131999999ADDAL19900091GJ102349KA1999N-01271MA1999999090251MD1210011+9999ME1314489OA149900151REMSYN106AAXX  04064 06787 33/// /0000 11100 21113 39025 48448 52001 333 21127 55039 55300 20000 70000 91103 91201;
0149067870999992011010407004+46617+009433FM-12+098999999V0202101N000519999999N9999999N1-00991-01241999999ADDMA1999999090271MD1210051+9999ME1314509OA149900151REMSYN088AAXX  04074 06787 33/// /2101 11099 21124 39027 48450 52005 333 55300 20000 91103 91201;
0149067870999992011010408004+46617+009433FM-12+098999999V0209999C000019999999N9999999N1-00961-01151999999ADDMA1999999090271MD1219999+9999ME1314509OA149900101REMSYN088AAXX  04084 06787 33/// /0000 11096 21115 39027 48450 52/// 333 55300 20025 91102 91201;
0112067870999992011010409004+46617+009433FM-12+098999999V0209999C000019999999N9999999N1-00921-01131999999ADDMA1999999090281ME1314529REMSYN076AAXX  04094 06787 33/// /0000 11092 21113 39028 48452 5//// 333 553// 20122;
0149067870999992011010410004+46617+009433FM-12+098999999V0201601N000519999999N9999999N1-00781-01151999999ADDMA1999999090251MD1710021+9999ME1314529OA149900101REMSYN088AAXX  04104 06787 33/// /1601 11078 21115 39025 48452 57002 333 55300 20522 91102 91201;
0149067870999992011010411004+46617+009433FM-12+098999999V0209999C000019999999N9999999N1-00651-01241999999ADDMA1999999090181MD1710091+9999ME1314489OA149900211REMSYN088AAXX  04114 06787 33/// /0000 11065 21124 39018 48448 57009 333 55300 20677 91104 91201;
0149067870999992011010412004+46617+009433FM-12+098999999V0202901N000519999999N9999999N1-00521-01191999999ADDMA1999999090101MD1810181+9999ME1314449OA149900211REMSYN088AAXX  04124 06787 33/// /2901 11052 21119 39010 48444 58018 333 55300 20788 91104 91201;
0149067870999992011010413004+46617+009433FM-12+098999999V0201501N000519999999N9999999N1-00511-01141999999ADDMA1999999090051MD1610201+9999ME1314399OA149900211REMSYN088AAXX  04134 06787 33/// /1501 11051 21114 39005 48439 56020 333 55307 20630 91104 91202;
0112067870999992011010414004+46617+009433FM-12+098999999V0201901N001019999999N9999999N1-00511-01121999999ADDMA1999999090041ME1314399REMSYN076AAXX  04144 06787 33/// /1902 11051 21112 39004 48439 5//// 333 553// 20716;
0096067870999992011010415004+46617+009433FM-12+098999999V0201501N000519999999N9999999N1-00481-01101999999ADDMA1999999090051ME1314409REMSYN060AAXX  04154 06787 43/// /1501 11048 21110 39005 48440 5////;
0149067870999992011010416004+46617+009433FM-12+098999999V0201401N000519999999N9999999N1-00671-01191999999ADDMA1999999090061MD1519999+9999ME1314389OA149900261REMSYN088AAXX  04164 06787 33/// /1401 11067 21119 39006 48438 55/// 333 55300 20022 91105 91202;
0149067870999992011010417004+46617+009433FM-12+098999999V0200601N001019999999N9999999N1-00631-01211999999ADDMA1999999090081MD1110041+9999ME1314409OA149900261REMSYN088AAXX  04174 06787 33/// /0602 11063 21121 39008 48440 51004 333 55300 20000 91105 91202;
0168067870999992011010418004+46617+009433FM-12+098999999V0209999C000019999999N9999999N1-00711-01091999999ADDKA1120M-00381MA1999999090081MD1210031+9999ME1314399OA149900261REMSYN094AAXX  04184 06787 33/// /0000 11071 21109 39008 48439 52003 333 11038 55300 20000 91105 91202;
0149067870999992011010419004+46617+009433FM-12+098999999V0200901N001019999999N9999999N1-00691-01261999999ADDMA1999999090091MD1219999+9999ME1314409OA149900261REMSYN088AAXX  04194 06787 33/// /0902 11069 21126 39009 48440 52/// 333 55300 20000 91105 91203;
0149067870999992011010420004+46617+009433FM-12+098999999V0203301N000519999999N9999999N1-00891-01111999999ADDMA1999999090101MD1310021+9999ME1314379OA149900261REMSYN088AAXX  04204 06787 33/// /3301 11089 21111 39010 48437 53002 333 55300 20000 91105 91203;
0149067870999992011010421004+46617+009433FM-12+098999999V0201501N000519999999N9999999N1-00951-01231999999ADDMA1999999090091MD1010011+9999ME1314359OA149900261REMSYN088AAXX  04214 06787 33/// /1501 11095 21123 39009 48435 50001 333 55300 20000 91105 91203;
0149067870999992011010422004+46617+009433FM-12+098999999V0201901N000519999999N9999999N1-00971-01211999999ADDMA1999999090081MD1610011+9999ME1314349OA149900151REMSYN088AAXX  04224 06787 33/// /1901 11097 21121 39008 48434 56001 333 55300 20000 91103 91201;
0149067870999992011010423004+46617+009433FM-12+098999999V0201001N000519999999N9999999N1-00901-01341999999ADDMA1999999090061MD1710041+9999ME1314349OA149900151REMSYN088AAXX  04234 06787 33/// /1001 11090 21134 39006 48434 57004 333 55300 20000 91103 91202;
0149067870999992011010500004+46617+009433FM-12+098999999V0201901N000519999999N9999999N1-01031-01241999999ADDMA1999999090021MD1710071+9999ME1314289OA149900261REMSYN088AAXX  05004 06787 33/// /1901 11103 21124 39002 48428 57007 333 55300 20000 91105 91203;
0149067870999992011010501004+46617+009433FM-12+098999999V0209999C000019999999N9999999N1-00931-01351999999ADDMA1999999090011MD1710071+9999ME1314299OA149900211REMSYN088AAXX  05014 06787 33/// /0000 11093 21135 39001 48429 57007 333 55300 20000 91104 91201;
0149067870999992011010502004+46617+009433FM-12+098999999V0202101N000519999999N9999999N1-01161-01221999999ADDMA1999999089991MD1610071+9999ME1314239OA149900211REMSYN088AAXX  05024 06787 33/// /2101 11116 21122 38999 48423 56007 333 55300 20000 91104 91201;
0096067870999992011010503004+46617+009433FM-12+098999999V0209999C000019999999N9999999N1-01181-01261999999ADDMA1999999089981ME1314229REMSYN060AAXX  05034 06787 43/// /0000 11118 21126 38998 48422 5////;
0149067870999992011010504004+46617+009433FM-12+098999999V0209999C000019999999N9999999N1-01121-01441999999ADDMA1999999090001MD1710011+9999ME1314259OA149900211REMSYN088AAXX  05044 06787 33/// /0000 11112 21144 39000 48425 57001 333 55300 20000 91104 91201;
0149067870999992011010505004+46617+009433FM-12+098999999V0209999C000019999999N9999999N1-01131-01271999999ADDMA1999999089991MD1010001+9999ME1314249OA149900211REMSYN088AAXX  05054 06787 33/// /0000 11113 21127 38999 48424 50000 333 55300 20000 91104 91201;
0198067870999992011010506004+46617+009433FM-12+098999999V0209999C000019999999N9999999N1-01091-01371999999ADDAL19900091GJ100909KA1999N-01231MA1999999090021MD1210041+9999ME1314279OA149900261REMSYN106AAXX  05064 06787 33/// /0000 11109 21137 39002 48427 52004 333 21123 55015 55300 20000 70000 91105 91203;
0149067870999992011010507004+46617+009433FM-12+098999999V0209999C000019999999N9999999N1-01051-01201999999ADDMA1999999090061MD1310061+9999ME1314319OA149900151REMSYN088AAXX  05074 06787 33/// /0000 11105 21120 39006 48431 53006 333 55300 20000 91103 91201;
0149067870999992011010508004+46617+009433FM-12+098999999V0200501N000519999999N9999999N1-00961-01301999999ADDMA1999999090091MD1219999+9999ME1314359OA149900151REMSYN088AAXX  05084 06787 33/// /0501 11096 21130 39009 48435 52/// 333 55300 20022 91103 91201;
0149067870999992011010509004+46617+009433FM-12+098999999V0209999C000019999999N9999999N1-01061-01231999999ADDMA1999999090111MD1210091+9999ME1314359OA149900211REMSYN088AAXX  05094 06787 33/// /0000 11106 21123 39011 48435 52009 333 55300 20079 91104 91201;
0149067870999992011010510004+46617+009433FM-12+098999999V0201401N000519999999N9999999N1-00891-01291999999ADDMA1999999090081MD1010021+9999ME1314359OA149900101REMSYN088AAXX  05104 06787 33/// /1401 11089 21129 39008 48435 50002 333 55301 20180 91102 91202;
0149067870999992011010511004+46617+009433FM-12+098999999V0201201N000519999999N9999999N1-00611-01241999999ADDMA1999999090011MD1810081+9999ME1314349OA149900101REMSYN088AAXX  05114 06787 33/// /1201 11061 21124 39001 48434 58008 333 553// 2//// 91102 91202;
0112067870999992011010512004+46617+009433FM-12+098999999V0201301N000519999999N9999999N1-00401-01021999999ADDMA1999999089901ME1314289REMSYN076AAXX  05124 06787 33/// /1301 11040 21102 38990 48428 5//// 333 553// 2////;
0149067870999992011010513004+46617+009433FM-12+098999999V0201301N000519999999N9999999N1-00261-01011999999ADDMA1999999089861MD1610221+9999ME1314279OA149900151REMSYN088AAXX  05134 06787 33/// /1301 11026 21101 38986 48427 56022 333 553// 2//// 91103 91202;
0096067870999992011010514004+46617+009433FM-12+098999999V0201701N000519999999N9999999N1-00251-00991999999ADDMA1999999089861ME1314279REMSYN060AAXX  05144 06787 43/// /1701 11025 21099 38986 48427 5////;
0096067870999992011010515004+46617+009433FM-12+098999999V0203301N000519999999N9999999N1-00351-00991999999ADDMA1999999089921ME1314319REMSYN060AAXX  05154 06787 43/// /3301 11035 21099 38992 48431 5////;
0149067870999992011010516004+46617+009433FM-12+098999999V0200701N000519999999N9999999N1-00541-01021999999ADDMA1999999089931MD1210071+9999ME1314299OA149900211REMSYN088AAXX  05164 06787 33/// /0701 11054 21102 38993 48429 52007 333 55300 20022 91104 91202;
0149067870999992011010517004+46617+009433FM-12+098999999V0202301N000519999999N9999999N1-00711-01061999999ADDMA1999999089911MD1010051+9999ME1314249OA149900311REMSYN088AAXX  05174 06787 33/// /2301 11071 21106 38991 48424 50005 333 55300 20000 91106 91203;
0168067870999992011010518004+46617+009433FM-12+098999999V0209999C000019999999N9999999N1-00621-01061999999ADDKA1120M-00231MA1999999089931MD1219999+9999ME1314279OA149900311REMSYN094AAXX  05184 06787 33/// /0000 11062 21106 38993 48427 52/// 333 11023 55300 20000 91106 91203;
0168067870999992011010519004+46617+009433FM-12+098999999V0201001N001019999999N9999999N1-00541-01101999999ADDMA1999999089931MD1410001+9999ME1314299OA149900311REMSYN088AAXX  05194 06787 33/// /1002 11054 21110 38993 48429 52000 333 55300 20000 91106 91203;EQDQ01+000022APCTEN
0149067870999992011010520004+46617+009433FM-12+098999999V0201501N000519999999N9999999N1-00591-01091999999ADDMA1999999089931MD1219999+9999ME1314289OA149900311REMSYN088AAXX  05204 06787 33/// /1501 11059 21109 38993 48428 52/// 333 55300 20000 91106 91202;
0112067870999992011010521004+46617+009433FM-12+098999999V0203501N000519999999N9999999N1-00791-01061999999ADDMA1999999089891ME1314219REMSYN076AAXX  05214 06787 33/// /3501 11079 21106 38989 48421 5//// 333 553// 20000;
0149067870999992011010522004+46617+009433FM-12+098999999V0200701N001019999999N9999999N1-00291-01241999999ADDMA1999999089881MD1710051+9999ME1314289OA149900361REMSYN088AAXX  05224 06787 33/// /0702 11029 21124 38988 48428 57005 333 55300 20000 91107 91203;
0149067870999992011010523004+46617+009433FM-12+098999999V0201501N005119999999N9999999N1+00251-01361999999ADDMA1999999089881MD1719999+9999ME1314389OA149901131REMSYN088AAXX  05234 06787 33/// /1510 10025 21136 38988 48438 57/// 333 55300 20000 91122 91210;
0096067870999992011010600004+46617+009433FM-12+098999999V0201401N005119999999N9999999N1+00261-01331999999ADDMA1999999089871ME1314379REMSYN060AAXX  06004 06787 43/// /1410 10026 21133 38987 48437 5////;
0096067870999992011010601004+46617+009433FM-12+098999999V0201601N004619999999N9999999N1+00281-01191999999ADDMA1999999089831ME1314349REMSYN060AAXX  06014 06787 43/// /1609 10028 21119 38983 48434 5////;
0096067870999992011010602004+46617+009433FM-12+098999999V0201401N006219999999N9999999N1+00301-01241999999ADDMA1999999089841ME1314359REMSYN060AAXX  06024 06787 43/// /1412 10030 21124 38984 48435 5////;
0096067870999992011010603004+46617+009433FM-12+098999999V0201401N005719999999N9999999N1+00341-01211999999ADDMA1999999089801ME1314329REMSYN060AAXX  06034 06787 43/// /1411 10034 21121 38980 48432 5////;
0096067870999992011010604004+46617+009433FM-12+098999999V0201501N007719999999N9999999N1+00331-01101999999ADDMA1999999089791ME1314319REMSYN060AAXX  06044 06787 43/// /1515 10033 21110 38979 48431 5////;
0096067870999992011010605004+46617+009433FM-12+098999999V0201701N007719999999N9999999N1+00261-00921999999ADDMA1999999089851ME1314359REMSYN060AAXX  06054 06787 43/// /1715 10026 21092 38985 48435 5////;
0125067870999992011010606004+46617+009433FM-12+098999999V0201901N007219999999N9999999N1+00291-00711999999ADDKA1999N-00801MA1999999089911ME1314419REMSYN076AAXX  06064 06787 43/// /1914 10029 21071 38991 48441 5//// 333 21080 55039;
0096067870999992011010607004+46617+009433FM-12+098999999V0201801N006219999999N9999999N1+00261-00631999999ADDMA1999999089931ME1314429REMSYN060AAXX  06074 06787 43/// /1812 10026 21063 38993 48442 5////;
0112067870999992011010608004+46617+009433FM-12+098999999V0201901N008719999999N9999999N1+00311-00581999999ADDMA1999999089971ME1314479REMSYN076AAXX  06084 06787 33/// /1917 10031 21058 38997 48447 5//// 333 553// 20050;
0096067870999992011010609004+46617+009433FM-12+098999999V0201801N008219999999N9999999N1+00411-00541999999ADDMA1999999089961ME1314479REMSYN060AAXX  06094 06787 43/// /1816 10041 21054 38996 48447 5////;
0149067870999992011010610004+46617+009433FM-12+098999999V0201901N008219999999N9999999N1+00441-00521999999ADDMA1999999089981MD1210051+9999ME1314509OA149901651REMSYN088AAXX  06104 06787 33/// /1916 10044 21052 38998 48450 52005 333 55300 20353 91132 91217;
0149067870999992011010611004+46617+009433FM-12+098999999V0201901N005719999999N9999999N1+00481-00451999999ADDMA1999999089961MD1510011+9999ME1314499OA149901651REMSYN088AAXX  06114 06787 33/// /1911 10048 21045 38996 48449 55001 333 55303 20439 91132 91216;
0149067870999992011010612004+46617+009433FM-12+098999999V0202001N007219999999N9999999N1+00531-00421999999ADDMA1999999089951MD1010011+9999ME1314499OA149901851REMSYN088AAXX  06124 06787 33/// /2014 10053 21042 38995 48449 50001 333 55301 20533 91136 91220;
0149067870999992011010613004+46617+009433FM-12+098999999V0201801N006719999999N9999999N1+00541-00311999999ADDMA1999999089931MD1610051+9999ME1314479OA149901441REMSYN088AAXX  06134 06787 33/// /1813 10054 21031 38993 48447 56005 333 55300 20490 91128 91216;
0096067870999992011010614004+46617+009433FM-12+098999999V0201701N006219999999N9999999N1+00531-00311999999ADDMA1999999089951ME1314499REMSYN060AAXX  06144 06787 43/// /1712 10053 21031 38995 48449 5////;
0096067870999992011010615004+46617+009433FM-12+098999999V0201801N006219999999N9999999N1+00561-00241999999ADDMA1999999089951ME1314499REMSYN060AAXX  06154 06787 43/// /1812 10056 21024 38995 48449 5////;
0149067870999992011010616004+46617+009433FM-12+098999999V0201701N005119999999N9999999N1+00561-00201999999ADDMA1999999089961MD1010031+9999ME1314509OA149900981REMSYN088AAXX  06164 06787 33/// /1710 10056 21020 38996 48450 50003 333 55300 20036 91119 91213;
0149067870999992011010617004+46617+009433FM-12+098999999V0201801N005719999999N9999999N1+00631-00191999999ADDMA1999999089931MD1719999+9999ME1314489OA149900981REMSYN088AAXX  06174 06787 33/// /1811 10063 21019 38993 48448 57/// 333 55300 20000 91119 91213;
0168067870999992011010618004+46617+009433FM-12+098999999V0201801N005719999999N9999999N1+00661-00141999999ADDKA1120M+00681MA1999999089931MD1710021+9999ME1314499OA149901651REMSYN094AAXX  06184 06787 33/// /1811 10066 21014 38993 48449 57002 333 10068 55300 20000 91132 91218;
0149067870999992011010619004+46617+009433FM-12+098999999V0201701N003619999999N9999999N1+00661-00161999999ADDMA1999999089971MD1310011+9999ME1314539OA149901081REMSYN088AAXX  06194 06787 33/// /1707 10066 21016 38997 48453 53001 333 55300 20000 91121 91213;
0149067870999992011010620004+46617+009433FM-12+098999999V0201801N005719999999N9999999N1+00671-00121999999ADDMA1999999090011MD1219999+9999ME1314569OA149901031REMSYN088AAXX  06204 06787 33/// /1811 10067 21012 39001 48456 52/// 333 55300 20000 91120 91212;
0149067870999992011010621004+46617+009433FM-12+098999999V0201701N004119999999N9999999N1+00651-00121999999ADDMA1999999090011MD1219999+9999ME1314569OA149901391REMSYN088AAXX  06214 06787 33/// /1708 10065 21012 39001 48456 52/// 333 55300 20000 91127 91214;
0149067870999992011010622004+46617+009433FM-12+098999999V0201901N005719999999N9999999N1+00691-00101999999ADDMA1999999090061MD1210091+9999ME1314619OA149901391REMSYN088AAXX  06224 06787 33/// /1911 10069 21010 39006 48461 52009 333 55300 20000 91127 91214;
0112067870999992011010623004+46617+009433FM-12+098999999V0201801N004619999999N9999999N1+00691-00091999999ADDMA1999999090101ME1314659REMSYN076AAXX  06234 06787 33/// /1809 10069 21009 39010 48465 5//// 333 553// 20000;
0096067870999992011010700004+46617+009433FM-12+098999999V0201801N005119999999N9999999N1+00751-00091999999ADDMA1999999090101ME1314669REMSYN060AAXX  07004 06787 43/// /1810 10075 21009 39010 48466 5////;
0096067870999992011010701004+46617+009433FM-12+098999999V0201701N003119999999N9999999N1+00741-00091999999ADDMA1999999090081ME1314649REMSYN060AAXX  07014 06787 43/// /1706 10074 21009 39008 48464 5////;
0096067870999992011010702004+46617+009433FM-12+098999999V0201901N004619999999N9999999N1+00781-00071999999ADDMA1999999090151ME1314719REMSYN060AAXX  07024 06787 43/// /1909 10078 21007 39015 48471 5////;
0096067870999992011010703004+46617+009433FM-12+098999999V0201501N002119999999N9999999N1+00691-00051999999ADDMA1999999090171ME1314719REMSYN060AAXX  07034 06787 43/// /1504 10069 21005 39017 48471 5////;
0149067870999992011010704004+46617+009433FM-12+098999999V0202101N007719999999N9999999N1+00861-00041999999ADDMA1999999090141MD1010061+9999ME1314719OA149901391REMSYN088AAXX  07044 06787 33/// /2115 10086 21004 39014 48471 50006 333 55300 20000 91127 91215;
0149067870999992011010705004+46617+009433FM-12+098999999V0202001N007719999999N9999999N1+00841+00001999999ADDMA1999999090141MD1010011+9999ME1314719OA149901391REMSYN088AAXX  07054 06787 33/// /2015 10084 20000 39014 48471 50001 333 55300 20000 91127 91215;
0198067870999992011010706004+46617+009433FM-12+098999999V0201701N004119999999N9999999N1+00761+00011999999ADDAL19900091GJ100249KA1999N+00531MA1999999090191MD1310021+9999ME1314749OA149901651REMSYN106AAXX  07064 06787 33/// /1708 10076 20001 39019 48474 53002 333 20053 55004 55300 20000 70000 91132 91215;
0149067870999992011010707004+46617+009433FM-12+098999999V0201601N003119999999N9999999N1+00831-00011999999ADDMA1999999090261MD1210121+9999ME1314829OA149901491REMSYN088AAXX  07074 06787 33/// /1606 10083 21001 39026 48482 52012 333 55300 20000 91129 91212;
0112067870999992011010708004+46617+009433FM-12+098999999V0201701N004619999999N9999999N1+00861+00021999999ADDMA1999999090281ME1314849REMSYN076AAXX  07084 06787 33/// /1709 10086 20002 39028 48484 5//// 333 553// 20076;
0096067870999992011010709004+46617+009433FM-12+098999999V0201701N004619999999N9999999N1+00891+00061999999ADDMA1999999090301ME1314879REMSYN060AAXX  07094 06787 43/// /1709 10089 20006 39030 48487 5////;
0149067870999992011010710004+46617+009433FM-12+098999999V0201901N005119999999N9999999N1+00961+00081999999ADDMA1999999090341MD1210081+9999ME1314919OA149901131REMSYN088AAXX  07104 06787 33/// /1910 10096 20008 39034 48491 52008 333 55300 20324 91122 91214;
0149067870999992011010711004+46617+009433FM-12+098999999V0201601N004619999999N9999999N1+00911+00131999999ADDMA1999999090331MD1210051+9999ME1314909OA149901131REMSYN088AAXX  07114 06787 33/// /1609 10091 20013 39033 48490 52005 333 55300 20385 91122 91214;
0149067870999992011010712004+46617+009433FM-12+098999999V0201801N005719999999N9999999N1+01041+00111999999ADDMA1999999090291MD1810011+9999ME1314889OA149901651REMSYN088AAXX  07124 06787 33/// /1811 10104 20011 39029 48488 58001 333 55301 20540 91132 91215;
0149067870999992011010713004+46617+009433FM-12+098999999V0201501N007719999999N9999999N1+01011+00131999999ADDMA1999999090281MD1710061+9999ME1314879OA149901291REMSYN088AAXX  07134 06787 33/// /1515 10101 20013 39028 48487 57006 333 55304 20763 91125 91215;
0096067870999992011010714004+46617+009433FM-12+098999999V0201701N006219999999N9999999N1+00941+00171999999ADDMA1999999090321ME1314899REMSYN060AAXX  07144 06787 43/// /1712 10094 20017 39032 48489 5////;
0096067870999992011010715004+46617+009433FM-12+098999999V0201701N004119999999N9999999N1+00851+00181999999ADDMA1999999090371ME1314929REMSYN060AAXX  07154 06787 43/// /1708 10085 20018 39037 48492 5////;
0149067870999992011010716004+46617+009433FM-12+098999999V0201601N003119999999N9999999N1+00821+00171999999ADDMA1999999090411MD1210131+9999ME1314959OA149901031REMSYN088AAXX  07164 06787 33/// /1606 10082 20017 39041 48495 52013 333 55300 20029 91120 91210;
0149067870999992011010717004+46617+009433FM-12+098999999V0201401N003119999999N9999999N1+00721+00251999999ADDMA1999999090421MD1110101+9999ME1314949OA149900821REMSYN088AAXX  07174 06787 33/// /1406 10072 20025 39042 48494 51010 333 55300 20000 91116 91209;
0131067870999992011010718004+46617+009433FM-12+098999999V0201401N003119999999N9999999N1+00691+00291999999ADDKA1120M+01051MA1999999090451ME1314969REMSYN082AAXX  07184 06787 33/// /1406 10069 20029 39045 48496 5//// 333 10105 553// 20000;
0155067870999992011010719004+46617+009433FM-12+098999999V0201401N003619999999N9999999N1+00721+00271999999ADDMA1999999090451MD1219999+9999ME1314979OA149900671REMSYN094AAXX  07194 06787 23/// /1407 10072 20027 39045 48497 52/// 333 55300 20000 69915 91113 91208;
0096067870999992011010720004+46617+009433FM-12+098999999V0201401N003619999999N9999999N1+00681+00271999999ADDMA1999999090441ME1314959REMSYN060AAXX  07204 06787 43/// /1407 10068 20027 39044 48495 5////;
0096067870999992011010721004+46617+009433FM-12+098999999V0201401N002619999999N9999999N1+00741+00251999999ADDMA1999999090381ME1314919REMSYN060AAXX  07214 06787 43/// /1405 10074 20025 39038 48491 5////;
0149067870999992011010722004+46617+009433FM-12+098999999V0201401N003619999999N9999999N1+00781+00261999999ADDMA1999999090381MD1710071+9999ME1314929OA149900721REMSYN088AAXX  07224 06787 33/// /1407 10078 20026 39038 48492 57007 333 55300 20000 91114 91207;
0112067870999992011010723004+46617+009433FM-12+098999999V0201701N002619999999N9999999N1+00721+00231999999ADDMA1999999090381ME1314919REMSYN076AAXX  07234 06787 33/// /1705 10072 20023 39038 48491 5//// 333 553// 20000;
0154067870999992011010800004+46617+009433FM-12+098999999V0201701N004619999999N9999999N1+00821+00201999999ADDAA106000091MA1999999090361ME1314919REMSYN088AAXX  08004 06787 03/// /1709 10082 20020 39036 48491 5//// 69911 333 553// 20000 60005;EQDQ01  00002PRCP06
0096067870999992011010801004+46617+009433FM-12+098999999V0201801N005119999999N9999999N1+00891+00141999999ADDMA1999999090351ME1314919REMSYN060AAXX  08014 06787 43/// /1810 10089 20014 39035 48491 5////;
0096067870999992011010802004+46617+009433FM-12+098999999V0201601N004119999999N9999999N1+00691+00231999999ADDMA1999999090381ME1314909REMSYN060AAXX  08024 06787 43/// /1608 10069 20023 39038 48490 5////;
0096067870999992011010803004+46617+009433FM-12+098999999V0201401N003119999999N9999999N1+00661+00281999999ADDMA1999999090371ME1314899REMSYN060AAXX  08034 06787 43/// /1406 10066 20028 39037 48489 5////;
0096067870999992011010804004+46617+009433FM-12+098999999V0201601N004119999999N9999999N1+00631+00281999999ADDMA1999999090331ME1314849REMSYN060AAXX  08044 06787 43/// /1608 10063 20028 39033 48484 5////;
0096067870999992011010805004+46617+009433FM-12+098999999V0201501N003119999999N9999999N1+00581+00301999999ADDMA1999999090331ME1314849REMSYN060AAXX  08054 06787 43/// /1506 10058 20030 39033 48484 5////;
0125067870999992011010806004+46617+009433FM-12+098999999V0200801N001019999999N9999999N1+00441+00251999999ADDKA1999N+00481MA1999999090301ME1314789REMSYN076AAXX  08064 06787 43/// /0802 10044 20025 39030 48478 5//// 333 20048 55005;
0096067870999992011010807004+46617+009433FM-12+098999999V0203601N000519999999N9999999N1+00561+00231999999ADDMA1999999090301ME1314809REMSYN060AAXX  08074 06787 43/// /3601 10056 20023 39030 48480 5////;
0112067870999992011010808004+46617+009433FM-12+098999999V0201701N004619999999N9999999N1+00751+00091999999ADDMA1999999090361ME1314899REMSYN076AAXX  08084 06787 33/// /1709 10075 20009 39036 48489 5//// 333 553// 20054;
0096067870999992011010809004+46617+009433FM-12+098999999V0201901N000519999999N9999999N1+00581+00181999999ADDMA1999999090361ME1314869REMSYN060AAXX  08094 06787 43/// /1901 10058 20018 39036 48486 5////;
0096067870999992011010810004+46617+009433FM-12+098999999V0200601N000519999999N9999999N1+00701+00201999999ADDMA1999999090371ME1314899REMSYN060AAXX  08104 06787 43/// /0601 10070 20020 39037 48489 5////;
0096067870999992011010811004+46617+009433FM-12+098999999V0201901N004619999999N9999999N1+00901+00101999999ADDMA1999999090341ME1314909REMSYN060AAXX  08114 06787 43/// /1909 10090 20010 39034 48490 5////;
0096067870999992011010812004+46617+009433FM-12+098999999V0200101N000519999999N9999999N1+00941+00101999999ADDMA1999999090331ME1314909REMSYN060AAXX  08124 06787 43/// /0101 10094 20010 39033 48490 5////;
0096067870999992011010813004+46617+009433FM-12+098999999V0201801N005119999999N9999999N1+01011+00081999999ADDMA1999999090291ME1314889REMSYN060AAXX  08134 06787 43/// /1810 10101 20008 39029 48488 5////;
0096067870999992011010814004+46617+009433FM-12+098999999V0201801N006719999999N9999999N1+00961-00021999999ADDMA1999999090291ME1314879REMSYN060AAXX  08144 06787 43/// /1813 10096 21002 39029 48487 5////;
0096067870999992011010815004+46617+009433FM-12+098999999V0201801N005119999999N9999999N1+00991-00041999999ADDMA1999999090351ME1314939REMSYN060AAXX  08154 06787 43/// /1810 10099 21004 39035 48493 5////;
0096067870999992011010816004+46617+009433FM-12+098999999V0201601N003619999999N9999999N1+00771+00021999999ADDMA1999999090381ME1314929REMSYN060AAXX  08164 06787 43/// /1607 10077 20002 39038 48492 5////;
0096067870999992011010817004+46617+009433FM-12+098999999V0201601N002119999999N9999999N1+00611+00051999999ADDMA1999999090411ME1314919REMSYN060AAXX  08174 06787 43/// /1604 10061 20005 39041 48491 5////;
0096067870999992011010818004+46617+009433FM-12+098999999V0201401N001519999999N9999999N1+00561+00071999999ADDMA1999999090411ME1314909REMSYN060AAXX  08184 06787 43/// /1403 10056 20007 39041 48490 5////;
0096067870999992011010819004+46617+009433FM-12+098999999V0202001N003119999999N9999999N1+00761+00091999999ADDMA1999999090381ME1314919REMSYN060AAXX  08194 06787 43/// /2006 10076 20009 39038 48491 5////;
0096067870999992011010820004+46617+009433FM-12+098999999V0200401N001019999999N9999999N1+00621+00061999999ADDMA1999999090401ME1314919REMSYN060AAXX  08204 06787 43/// /0402 10062 20006 39040 48491 5////;
0096067870999992011010821004+46617+009433FM-12+098999999V0209999C000019999999N9999999N1+00511+00051999999ADDMA1999999090371ME1314869REMSYN060AAXX  08214 06787 43/// /0000 10051 20005 39037 48486 5////;
0096067870999992011010822004+46617+009433FM-12+098999999V0201801N002119999999N9999999N1+00541+00061999999ADDMA1999999090381ME1314879REMSYN060AAXX  08224 06787 43/// /1804 10054 20006 39038 48487 5////;
0096067870999992011010823004+46617+009433FM-12+098999999V0209999C000019999999N9999999N1+00411+00061999999ADDMA1999999090401ME1314879REMSYN060AAXX  08234 06787 43/// /0000 10041 20006 39040 48487 5////;
0096067870999992011010900004+46617+009433FM-12+098999999V0202301N001519999999N9999999N1+00711+00041999999ADDMA1999999090401ME1314929REMSYN060AAXX  09004 06787 43/// /2303 10071 20004 39040 48492 5////;
0096067870999992011010901004+46617+009433FM-12+098999999V0200901N000519999999N9999999N1+00631+00001999999ADDMA1999999090401ME1314919REMSYN060AAXX  09014 06787 43/// /0901 10063 20000 39040 48491 5////;
0096067870999992011010902004+46617+009433FM-12+098999999V0200501N000519999999N9999999N1+00521+00001999999ADDMA1999999090401ME1314899REMSYN060AAXX  09024 06787 43/// /0501 10052 20000 39040 48489 5////;
0096067870999992011010903004+46617+009433FM-12+098999999V0209999C000019999999N9999999N1+00331-00011999999ADDMA1999999090361ME1314829REMSYN060AAXX  09034 06787 43/// /0000 10033 21001 39036 48482 5////;
0096067870999992011010904004+46617+009433FM-12+098999999V0201001N000519999999N9999999N1+00491+00031999999ADDMA1999999090311ME1314809REMSYN060AAXX  09044 06787 43/// /1001 10049 20003 39031 48480 5////;
0096067870999992011010905004+46617+009433FM-12+098999999V0201801N003619999999N9999999N1+00651+00001999999ADDMA1999999090301ME1314829REMSYN060AAXX  09054 06787 43/// /1807 10065 20000 39030 48482 5////;
0106067870999992011010906004+46617+009433FM-12+098999999V0201601N004119999999N9999999N1+00841-00051999999ADDMA1999999090301ME1314869REMSYN070AAXX  09064 06787 43/// /1608 10084 21005 39030 48486 5//// 333 55008;
0096067870999992011010907004+46617+009433FM-12+098999999V0202201N000519999999N9999999N1+00751-00061999999ADDMA1999999090321ME1314869REMSYN060AAXX  09074 06787 43/// /2201 10075 21006 39032 48486 5////;
0112067870999992011010908004+46617+009433FM-12+098999999V0201601N005119999999N9999999N1+00851-00051999999ADDMA1999999090311ME1314879REMSYN076AAXX  09084 06787 33/// /1610 10085 21005 39031 48487 5//// 333 553// 20054;
0112067870999992011010909004+46617+009433FM-12+098999999V0201701N006219999999N9999999N1+00891-00051999999ADDMA1999999090311ME1314879REMSYN076AAXX  09094 06787 33/// /1712 10089 21005 39031 48487 5//// 333 553// 20234;
0149067870999992011010910004+46617+009433FM-12+098999999V0201701N005719999999N9999999N1+00931-00041999999ADDMA1999999090311MD1710011+9999ME1314889OA149900981REMSYN088AAXX  09104 06787 33/// /1711 10093 21004 39031 48488 57001 333 55300 20396 91119 91212;
0149067870999992011010911004+46617+009433FM-12+098999999V0201701N007219999999N9999999N1+00931-00051999999ADDMA1999999090281MD1810031+9999ME1314859OA149901241REMSYN088AAXX  09114 06787 33/// /1714 10093 21005 39028 48485 58003 333 55301 20616 91124 91216;
0149067870999992011010912004+46617+009433FM-12+098999999V0201701N006219999999N9999999N1+00981+00071999999ADDMA1999999090231MD1810081+9999ME1314829OA149901241REMSYN088AAXX  09124 06787 33/// /1712 10098 20007 39023 48482 58008 333 55303 20911 91124 91216;
0149067870999992011010913004+46617+009433FM-12+098999999V0201801N008219999999N9999999N1+00921-00011999999ADDMA1999999090181MD1810131+9999ME1314769OA149901291REMSYN088AAXX  09134 06787 33/// /1816 10092 21001 39018 48476 58013 333 55301 20414 91125 91216;
0096067870999992011010914004+46617+009433FM-12+098999999V0201701N005719999999N9999999N1+00921-00031999999ADDMA1999999090191ME1314779REMSYN060AAXX  09144 06787 43/// /1711 10092 21003 39019 48477 5////;
0096067870999992011010915004+46617+009433FM-12+098999999V0201701N005719999999N9999999N1+00911-00041999999ADDMA1999999090191ME1314779REMSYN060AAXX  09154 06787 43/// /1711 10091 21004 39019 48477 5////;
0149067870999992011010916004+46617+009433FM-12+098999999V0201501N005719999999N9999999N1+00831+00061999999ADDMA1999999090191MD1210011+9999ME1314759OA149901241REMSYN088AAXX  09164 06787 33/// /1511 10083 20006 39019 48475 52001 333 55300 20036 91124 91213;
0149067870999992011010917004+46617+009433FM-12+098999999V0201401N005719999999N9999999N1+00721+00171999999ADDMA1999999090221MD1310031+9999ME1314769OA149901181REMSYN088AAXX  09174 06787 33/// /1411 10072 20017 39022 48476 53003 333 55300 20000 91123 91213;
0168067870999992011010918004+46617+009433FM-12+098999999V0201401N005119999999N9999999N1+00671+00211999999ADDKA1120M+00991MA1999999090261MD1210071+9999ME1314799OA149901291REMSYN094AAXX  09184 06787 33/// /1410 10067 20021 39026 48479 52007 333 10099 55300 20000 91125 91216;
0149067870999992011010919004+46617+009433FM-12+098999999V0201401N004119999999N9999999N1+00631+00231999999ADDMA1999999090271MD1210081+9999ME1314799OA149900981REMSYN088AAXX  09194 06787 33/// /1408 10063 20023 39027 48479 52008 333 55300 20000 91119 91211;
0155067870999992011010920004+46617+009433FM-12+098999999V0201901N001519999999N9999999N1+00561+00251999999ADDMA1999999090251MD1010031+9999ME1314769OA149900821REMSYN094AAXX  09204 06787 23/// /1903 10056 20025 39025 48476 50003 333 55300 20000 69915 91116 91210;
0149067870999992011010921004+46617+009433FM-12+098999999V0201301N004119999999N9999999N1+00661+00161999999ADDMA1999999090261MD1010001+9999ME1314799OA149901181REMSYN088AAXX  09214 06787 33/// /1308 10066 20016 39026 48479 50000 333 55300 20000 91123 91213;
0155067870999992011010922004+46617+009433FM-12+098999999V0201501N002619999999N9999999N1+00581+00221999999ADDMA1999999090271MD1510001+9999ME1314789OA149901031REMSYN094AAXX  09224 06787 23/// /1505 10058 20022 39027 48478 55000 333 55300 20000 69915 91120 91211;
0149067870999992011010923004+46617+009433FM-12+098999999V0200701N001019999999N9999999N1+00501+00291999999ADDMA1999999090301MD1210051+9999ME1314799OA149900931REMSYN088AAXX  09234 06787 33/// /0702 10050 20029 39030 48479 52005 333 55300 20000 91118 91211;
0172067870999992011011000004+46617+009433FM-12+098999999V0201401N000519999999N9999999N1+00431+00261999999ADDAA106000591MA1999999090301MD1210041+9999ME1314789OA149901291REMSYN100AAXX  10004 06787 03/// /1401 10043 20026 39030 48478 52004 69941 333 55300 20000 69925 91125 91216;
0149067870999992011011001004+46617+009433FM-12+098999999V0201501N001019999999N9999999N1+00441+00251999999ADDMA1999999090321MD1210051+9999ME1314809OA149900261REMSYN088AAXX  10014 06787 33/// /1502 10044 20025 39032 48480 52005 333 55300 20000 91105 91203;
0118067870999992011011002004+46617+009433FM-12+098999999V0209999C000019999999N9999999N1+00381+00241999999ADDMA1999999090361ME1314839REMSYN082AAXX  10024 06787 23/// /0000 10038 20024 39036 48483 5//// 333 553// 20000 69935;
0096067870999992011011003004+46617+009433FM-12+098999999V0203101N000519999999N9999999N1+00371+00251999999ADDMA1999999090361ME1314829REMSYN060AAXX  10034 06787 43/// /3101 10037 20025 39036 48482 5////;
0118067870999992011011004004+46617+009433FM-12+098999999V0209999C000019999999N9999999N1+00411+00271999999ADDMA1999999090371ME1314849REMSYN082AAXX  10044 06787 23/// /0000 10041 20027 39037 48484 5//// 333 553// 20000 69925;
0155067870999992011011005004+46617+009433FM-12+098999999V0201301N000519999999N9999999N1+00381+00251999999ADDMA1999999090371MD1219999+9999ME1314839OA149900101REMSYN094AAXX  10054 06787 23/// /1301 10038 20025 39037 48483 52/// 333 55300 20000 69915 91102 91201;
0150067870999992011011006004+46617+009433FM-12+098999999V0203401N000519999999N9999999N1+00381+00211999999ADDAA124001891GJ100249KA1999N+00321MA1999999090401ME1314869REMSYN082AAXX  10064 06787 43/// /3401 10038 20021 39040 48486 5//// 333 20032 55004 70019;
0155067870999992011011007004+46617+009433FM-12+098999999V0209999C001019999999N9999999N1+00331+00161999999ADDMA1999999090441MD1210071+9999ME1314899OA149900261REMSYN094AAXX  10074 06787 23/// /0002 10033 20016 39044 48489 52007 333 55300 20000 69925 91105 91202;
0096067870999992011011008004+46617+009433FM-12+098999999V0203301N001019999999N9999999N1+00291+00141999999ADDMA1999999090471ME1314919REMSYN060AAXX  10084 06787 43/// /3302 10029 20014 39047 48491 5////;
0096067870999992011011009004+46617+009433FM-12+098999999V0203401N001019999999N9999999N1+00271+00141999999ADDMA1999999090501ME1314939REMSYN060AAXX  10094 06787 43/// /3402 10027 20014 39050 48493 5////;
0149067870999992011011010004+46617+009433FM-12+098999999V0200101N000519999999N9999999N1+00301+00131999999ADDMA1999999090531MD1110091+9999ME1314969OA149900211REMSYN088AAXX  10104 06787 33/// /0101 10030 20013 39053 48496 51009 333 55300 20104 91104 91203;
0155067870999992011011011004+46617+009433FM-12+098999999V0203401N000519999999N9999999N1+00311+00131999999ADDMA1999999090491MD1019999+9999ME1314939OA149900211REMSYN094AAXX  10114 06787 23/// /3401 10031 20013 39049 48493 50/// 333 55300 20241 69925 91104 91203;
0135067870999992011011012004+46617+009433FM-12+098999999V0203301N000519999999N9999999N1+00311+00121999999ADDAA106000591MA1999999090441ME1314889REMSYN088AAXX  10124 06787 03/// /3301 10031 20012 39044 48488 5//// 69961 333 553// 20443 60005;
0096067870999992011011013004+46617+009433FM-12+098999999V0209999C000019999999N9999999N1+00351+00141999999ADDMA1999999090381ME1314849REMSYN060AAXX  10134 06787 43/// /0000 10035 20014 39038 48484 5////;
0096067870999992011011014004+46617+009433FM-12+098999999V0203501N001519999999N9999999N1+00361+00181999999ADDMA1999999090361ME1314829REMSYN060AAXX  10144 06787 43/// /3503 10036 20018 39036 48482 5////;
0096067870999992011011015004+46617+009433FM-12+098999999V0203501N001519999999N9999999N1+00331+00131999999ADDMA1999999090361ME1314829REMSYN060AAXX  10154 06787 43/// /3503 10033 20013 39036 48482 5////;
0096067870999992011011016004+46617+009433FM-12+098999999V0203401N001019999999N9999999N1+00291+00131999999ADDMA1999999090341ME1314799REMSYN060AAXX  10164 06787 43/// /3402 10029 20013 39034 48479 5////;
0096067870999992011011017004+46617+009433FM-12+098999999V0203201N000519999999N9999999N1+00241+00101999999ADDMA1999999090311ME1314769REMSYN060AAXX  10174 06787 43/// /3201 10024 20010 39031 48476 5////;
0119067870999992011011018004+46617+009433FM-12+098999999V0209999C000019999999N9999999N1+00261+00121999999ADDKA1999M+00391MA1999999090311ME1314769REMSYN070AAXX  10184 06787 43/// /0000 10026 20012 39031 48476 5//// 333 10039;
0096067870999992011011019004+46617+009433FM-12+098999999V0200601N000519999999N9999999N1+00261+00131999999ADDMA1999999090281ME1314739REMSYN060AAXX  10194 06787 43/// /0601 10026 20013 39028 48473 5////;
0096067870999992011011020004+46617+009433FM-12+098999999V0209999C000019999999N9999999N1+00241+00111999999ADDMA1999999090251ME1314709REMSYN060AAXX  10204 06787 43/// /0000 10024 20011 39025 48470 5////;
0096067870999992011011021004+46617+009433FM-12+098999999V0200801N000519999999N9999999N1+00221+00081999999ADDMA1999999090221ME1314679REMSYN060AAXX  10214 06787 43/// /0801 10022 20008 39022 48467 5////;
0096067870999992011011022004+46617+009433FM-12+098999999V0209999C000019999999N9999999N1+00201+00061999999ADDMA1999999090211ME1314669REMSYN060AAXX  10224 06787 43/// /0000 10020 20006 39021 48466 5////;
0096067870999992011011023004+46617+009433FM-12+098999999V0209999C000019999999N9999999N1+00201+00091999999ADDMA1999999090191ME1314649REMSYN060AAXX  10234 06787 43/// /0000 10020 20009 39019 48464 5////;
0096067870999992011011100004+46617+009433FM-12+098999999V0209999C000019999999N9999999N1+00171+00101999999ADDMA1999999090141ME1314599REMSYN060AAXX  11004 06787 43/// /0000 10017 20010 39014 48459 5////;
0096067870999992011011101004+46617+009433FM-12+098999999V0202101N000519999999N9999999N1+00131+00061999999ADDMA1999999090091ME1314549REMSYN060AAXX  11014 06787 43/// /2101 10013 20006 39009 48454 5////;
0096067870999992011011102004+46617+009433FM-12+098999999V0203101N000519999999N9999999N1+00151+00041999999ADDMA1999999090091ME1314549REMSYN060AAXX  11024 06787 43/// /3101 10015 20004 39009 48454 5////;
0096067870999992011011103004+46617+009433FM-12+098999999V0200801N000519999999N9999999N1+00131+00011999999ADDMA1999999090041ME1314509REMSYN060AAXX  11034 06787 43/// /0801 10013 20001 39004 48450 5////;
0096067870999992011011104004+46617+009433FM-12+098999999V0209999C000019999999N9999999N1+00131-00021999999ADDMA1999999090001ME1314469REMSYN060AAXX  11044 06787 43/// /0000 10013 21002 39000 48446 5////;
0096067870999992011011105004+46617+009433FM-12+098999999V0201101N000519999999N9999999N1+00161+00021999999ADDMA1999999089941ME1314419REMSYN060AAXX  11054 06787 43/// /1101 10016 20002 38994 48441 5////;
0106067870999992011011106004+46617+009433FM-12+098999999V0200101N000519999999N9999999N1+00051-00061999999ADDMA1999999089941ME1314399REMSYN070AAXX  11064 06787 43/// /0101 10005 21006 38994 48439 5//// 333 55000;
0149067870999992011011107004+46617+009433FM-12+098999999V0202701N000519999999N9999999N1+00131-00011999999ADDMA1999999089921MD1719999+9999ME1314399OA149900151REMSYN088AAXX  11074 06787 33/// /2701 10013 21001 38992 48439 57/// 333 55300 20000 91103 91202;
0112067870999992011011108004+46617+009433FM-12+098999999V0209999C000019999999N9999999N1+00121+00001999999ADDMA1999999089931ME1314409REMSYN076AAXX  11084 06787 33/// /0000 10012 20000 38993 48440 5//// 333 553// 20050;
0096067870999992011011109004+46617+009433FM-12+098999999V0202801N000519999999N9999999N1+00091+00011999999ADDMA1999999089891ME1314369REMSYN060AAXX  11094 06787 43/// /2801 10009 20001 38989 48436 5////;
0149067870999992011011110004+46617+009433FM-12+098999999V0201101N001019999999N9999999N1+00161+00011999999ADDMA1999999089861MD1710061+9999ME1314349OA149900261REMSYN088AAXX  11104 06787 33/// /1102 10016 20001 38986 48434 57006 333 55301 20284 91105 91202;
0149067870999992011011111004+46617+009433FM-12+098999999V0209999C000019999999N9999999N1+00401+00211999999ADDMA1999999089791MD1810141+9999ME1314329OA149900261REMSYN088AAXX  11114 06787 33/// /0000 10040 20021 38979 48432 58014 333 55308 20900 91105 91202;
0112067870999992011011112004+46617+009433FM-12+098999999V0209999C000019999999N9999999N1+00621+00621999999ADDMA1999999089671ME1314259REMSYN076AAXX  11124 06787 33/// /0000 10062 20062 38967 48425 5//// 333 553// 2////;
0149067870999992011011113004+46617+009433FM-12+098999999V0201901N003119999999N9999999N1+00871-00031999999ADDMA1999999089571MD1810291+9999ME1314209OA149900621REMSYN088AAXX  11134 06787 33/// /1906 10087 21003 38957 48420 58029 333 553// 2//// 91112 91206;
0096067870999992011011114004+46617+009433FM-12+098999999V0201501N002119999999N9999999N1+00611-00041999999ADDMA1999999089571ME1314169REMSYN060AAXX  11144 06787 43/// /1504 10061 21004 38957 48416 5////;
0096067870999992011011115004+46617+009433FM-12+098999999V0201501N002119999999N9999999N1+00581-00081999999ADDMA1999999089571ME1314159REMSYN060AAXX  11154 06787 43/// /1504 10058 21008 38957 48415 5////;
0149067870999992011011116004+46617+009433FM-12+098999999V0201901N001019999999N9999999N1+00501-00061999999ADDMA1999999089631MD1210061+9999ME1314199OA149900671REMSYN088AAXX  11164 06787 33/// /1902 10050 21006 38963 48419 52006 333 55300 20050 91113 91207;
0149067870999992011011117004+46617+009433FM-12+098999999V0200401N000519999999N9999999N1+00391-00021999999ADDMA1999999089701MD1210131+9999ME1314249OA149900671REMSYN088AAXX  11174 06787 33/// /0401 10039 21002 38970 48424 52013 333 55300 20000 91113 91206;
0168067870999992011011118004+46617+009433FM-12+098999999V0203401N000519999999N9999999N1+00361+00121999999ADDKA1120M+00871MA1999999089811MD1310241+9999ME1314339OA149900671REMSYN094AAXX  11184 06787 33/// /3401 10036 20012 38981 48433 53024 333 10087 55300 20000 91113 91207;
0149067870999992011011119004+46617+009433FM-12+098999999V0203401N001519999999N9999999N1+00301+00141999999ADDMA1999999089891MD1310261+9999ME1314399OA149900361REMSYN088AAXX  11194 06787 33/// /3403 10030 20014 38989 48439 53026 333 55300 20000 91107 91204;
0155067870999992011011120004+46617+009433FM-12+098999999V0203401N001519999999N9999999N1+00251+00081999999ADDMA1999999089981MD1110281+9999ME1314469OA149900211REMSYN094AAXX  11204 06787 23/// /3403 10025 20008 38998 48446 51028 333 55300 20000 69945 91104 91203;
0155067870999992011011121004+46617+009433FM-12+098999999V0203501N000519999999N9999999N1+00231+00041999999ADDMA1999999090051MD1110241+9999ME1314529OA149900671REMSYN094AAXX  11214 06787 23/// /3501 10023 20004 39005 48452 51024 333 55300 20000 69925 91113 91206;
0149067870999992011011122004+46617+009433FM-12+098999999V0203601N001019999999N9999999N1+00201+00051999999ADDMA1999999090131MD1110241+9999ME1314599OA149900311REMSYN088AAXX  11224 06787 33/// /3602 10020 20005 39013 48459 51024 333 55300 20000 91106 91203;
0149067870999992011011123004+46617+009433FM-12+098999999V0202801N000519999999N9999999N1+00171+00041999999ADDMA1999999090221MD1310241+9999ME1314669OA149900211REMSYN088AAXX  11234 06787 33/// /2801 10017 20004 39022 48466 53024 333 55300 20000 91104 91202;
0172067870999992011011200004+46617+009433FM-12+098999999V0209999C000019999999N9999999N1+00181+00041999999ADDAA106000591MA1999999090251MD1110201+9999ME1314699OA149900671REMSYN100AAXX  12004 06787 03/// /0000 10018 20004 39025 48469 51020 69961 333 55300 20000 60005 91113 91207;
0149067870999992011011201004+46617+009433FM-12+098999999V0200301N000519999999N9999999N1+00171+00041999999ADDMA1999999090301MD1110171+9999ME1314739OA149900151REMSYN088AAXX  12014 06787 33/// /0301 10017 20004 39030 48473 51017 333 55300 20000 91103 91202;
0112067870999992011011202004+46617+009433FM-12+098999999V0200301N000519999999N9999999N1+00161+00061999999ADDMA1999999090401ME1314829REMSYN076AAXX  12024 06787 33/// /0301 10016 20006 39040 48482 5//// 333 553// 20000;
0096067870999992011011203004+46617+009433FM-12+098999999V0209999C000019999999N9999999N1+00151+00031999999ADDMA1999999090461ME1314879REMSYN060AAXX  12034 06787 43/// /0000 10015 20003 39046 48487 5////;
0096067870999992011011204004+46617+009433FM-12+098999999V0202101N000519999999N9999999N1+00131+00031999999ADDMA1999999090501ME1314909REMSYN060AAXX  12044 06787 43/// /2101 10013 20003 39050 48490 5////;
0112067870999992011011205004+46617+009433FM-12+098999999V0209999C000519999999N9999999N1+00151+00011999999ADDMA1999999090521ME1314929REMSYN076AAXX  12054 06787 33/// /0001 10015 20001 39052 48492 5//// 333 553// 20000;
0150067870999992011011206004+46617+009433FM-12+098999999V0203201N001019999999N9999999N1+00121+00011999999ADDAA124000591GJ101869KA1999N+00101MA1999999090591ME1314989REMSYN082AAXX  12064 06787 43/// /3202 10012 20001 39059 48498 5//// 333 20010 55031 70006;
0149067870999992011011207004+46617+009433FM-12+098999999V0201101N000519999999N9999999N1+00111+00021999999ADDMA1999999090691MD1210191+9999ME1315079OA149900151REMSYN088AAXX  12074 06787 33/// /1101 10011 20002 39069 48507 52019 333 55300 20000 91103 91202;
0096067870999992011011208004+46617+009433FM-12+098999999V0200401N000519999999N9999999N1+00131+00011999999ADDMA1999999090731ME1315109REMSYN060AAXX  12084 06787 43/// /0401 10013 20001 39073 48510 5////;
0096067870999992011011209004+46617+009433FM-12+098999999V0209999C000019999999N9999999N1+00141+00001999999ADDMA1999999090731ME1315119REMSYN060AAXX  12094 06787 43/// /0000 10014 20000 39073 48511 5////;
0149067870999992011011210004+46617+009433FM-12+098999999V0200801N000519999999N9999999N1+00241+00061999999ADDMA1999999090781MD1219999+9999ME1315179OA149900101REMSYN088AAXX  12104 06787 33/// /0801 10024 20006 39078 48517 52/// 333 55300 20425 91102 91201;
0126067870999992011011211004+46617+009433FM-12+098999999V0201301N000519999999N9999999N1+00291-00011999999ADDMA1999999090751MD1210021+9999ME1315159REMSYN076AAXX  12114 06787 33/// /1301 10029 21001 39075 48515 52002 333 55301 20770;
0096067870999992011011212004+46617+009433FM-12+098999999V0200501N000519999999N9999999N1+00391+00061999999ADDMA1999999090691ME1315129REMSYN060AAXX  12124 06787 43/// /0501 10039 20006 39069 48512 5////;
0096067870999992011011213004+46617+009433FM-12+098999999V0201401N000519999999N9999999N1+00451+00031999999ADDMA1999999090701ME1315149REMSYN060AAXX  12134 06787 43/// /1401 10045 20003 39070 48514 5////;
0096067870999992011011214004+46617+009433FM-12+098999999V0201901N001019999999N9999999N1+00501+00021999999ADDMA1999999090711ME1315169REMSYN060AAXX  12144 06787 43/// /1902 10050 20002 39071 48516 5////;
0096067870999992011011215004+46617+009433FM-12+098999999V0202501N000519999999N9999999N1+00471+00061999999ADDMA1999999090731ME1315179REMSYN060AAXX  12154 06787 43/// /2501 10047 20006 39073 48517 5////;
0149067870999992011011216004+46617+009433FM-12+098999999V0209999C000019999999N9999999N1+00421+00111999999ADDMA1999999090761MD1210061+9999ME1315199OA149900151REMSYN088AAXX  12164 06787 33/// /0000 10042 20011 39076 48519 52006 333 55300 20047 91103 91202;
0155067870999992011011217004+46617+009433FM-12+098999999V0201101N000519999999N9999999N1+00341+00141999999ADDMA1999999090811MD1310101+9999ME1315229OA149900151REMSYN094AAXX  12174 06787 23/// /1101 10034 20014 39081 48522 53010 333 55300 20000 69945 91103 91201;
0191067870999992011011218004+46617+009433FM-12+098999999V0209999C000519999999N9999999N1+00271+00141999999ADDAA112001091KA1120M+00511MA1999999090811MD1210081+9999ME1315209OA149900261REMSYN106AAXX  12184 06787 03/// /0001 10027 20014 39081 48520 52008 69992 333 10051 55300 20000 69955 91105 91202;
0155067870999992011011219004+46617+009433FM-12+098999999V0209999C000019999999N9999999N1+00281+00141999999ADDMA1999999090811MD1210051+9999ME1315209OA149900151REMSYN094AAXX  12194 06787 23/// /0000 10028 20014 39081 48520 52005 333 55300 20000 69915 91103 91202;
0149067870999992011011220004+46617+009433FM-12+098999999V0209999C000019999999N9999999N1+00201+00081999999ADDMA1999999090801MD1719999+9999ME1315189OA149900101REMSYN088AAXX  12204 06787 33/// /0000 10020 20008 39080 48518 57/// 333 55300 20000 91102 91201;
0149067870999992011011221004+46617+009433FM-12+098999999V0209999C000019999999N9999999N1+00211+00111999999ADDMA1999999090811MD1510001+9999ME1315199OA149900151REMSYN088AAXX  12214 06787 33/// /0000 10021 20011 39081 48519 55000 333 55300 20000 91103 91202;
0149067870999992011011222004+46617+009433FM-12+098999999V0201101N000519999999N9999999N1+00201+00101999999ADDMA1999999090801MD1410001+9999ME1315189OA149900101REMSYN088AAXX  12224 06787 33/// /1101 10020 20010 39080 48518 54001 333 55300 20000 91102 91201;
0155067870999992011011223004+46617+009433FM-12+098999999V0200601N000519999999N9999999N1+00201+00081999999ADDMA1999999090791MD1719999+9999ME1315179OA149900101REMSYN094AAXX  12234 06787 23/// /0601 10020 20008 39079 48517 57/// 333 55300 20000 69925 91102 91201;
0172067870999992011011300004+46617+009433FM-12+098999999V0209999C000019999999N9999999N1+00201+00091999999ADDAA106000391MA1999999090741MD1710071+9999ME1315139OA149900261REMSYN100AAXX  13004 06787 03/// /0000 10020 20009 39074 48513 57007 69931 333 55300 20000 60005 91105 91202;
0149067870999992011011301004+46617+009433FM-12+098999999V0202901N000519999999N9999999N1+00121+00061999999ADDMA1999999090751MD1710051+9999ME1315129OA149900151REMSYN088AAXX  13014 06787 33/// /2901 10012 20006 39075 48512 57005 333 55300 20000 91103 91201;
0155067870999992011011302004+46617+009433FM-12+098999999V0209999C000019999999N9999999N1+00161+00041999999ADDMA1999999090801MD1319999+9999ME1315179OA149900151REMSYN094AAXX  13024 06787 23/// /0000 10016 20004 39080 48517 53/// 333 55300 20000 69935 91103 91202;
0096067870999992011011303004+46617+009433FM-12+098999999V0201401N000519999999N9999999N1+00171+00071999999ADDMA1999999090751ME1315139REMSYN060AAXX  13034 06787 43/// /1401 10017 20007 39075 48513 5////;
0155067870999992011011304004+46617+009433FM-12+098999999V0200201N000519999999N9999999N1+00161+00081999999ADDMA1999999090721MD1819999+9999ME1315109OA149900151REMSYN094AAXX  13044 06787 23/// /0201 10016 20008 39072 48510 58/// 333 55300 20000 69915 91103 91202;
0112067870999992011011305004+46617+009433FM-12+098999999V0201001N000519999999N9999999N1+00181+00081999999ADDMA1999999090711ME1315109REMSYN076AAXX  13054 06787 33/// /1001 10018 20008 39071 48510 5//// 333 553// 20000;
0221067870999992011011306004+46617+009433FM-12+098999999V0202201N000519999999N9999999N1+00121+00031999999ADDAA112000891AL14200191GJ100969KA1999N+00121MA1999999090681MD1710071+9999ME1315069OA149900151REMSYN118AAXX  13064 06787 03/// /2201 10012 20003 39068 48506 57007 69982 333 20012 55016 55300 20000 60005 70017 91103 91202;
0096067870999992011011307004+46617+009433FM-12+098999999V0201601N000519999999N9999999N1+00141+00091999999ADDMA1999999090741ME1315119REMSYN060AAXX  13074 06787 43/// /1601 10014 20009 39074 48511 5////;
0096067870999992011011308004+46617+009433FM-12+098999999V0201701N001019999999N9999999N1+00221+00121999999ADDMA1999999090761ME1315159REMSYN060AAXX  13084 06787 43/// /1702 10022 20012 39076 48515 5////;
0096067870999992011011309004+46617+009433FM-12+098999999V0203201N000519999999N9999999N1+00251+00151999999ADDMA1999999090751ME1315159REMSYN060AAXX  13094 06787 43/// /3201 10025 20015 39075 48515 5////;
0096067870999992011011310004+46617+009433FM-12+098999999V0209999C000019999999N9999999N1+00341+00181999999ADDMA1999999090751ME1315169REMSYN060AAXX  13104 06787 43/// /0000 10034 20018 39075 48516 5////;
0096067870999992011011311004+46617+009433FM-12+098999999V0202701N001019999999N9999999N1+00391+00241999999ADDMA1999999090741ME1315169REMSYN060AAXX  13114 06787 43/// /2702 10039 20024 39074 48516 5////;
0096067870999992011011312004+46617+009433FM-12+098999999V0201801N001019999999N9999999N1+00501+00291999999ADDMA1999999090671ME1315129REMSYN060AAXX  13124 06787 43/// /1802 10050 20029 39067 48512 5////;
0096067870999992011011313004+46617+009433FM-12+098999999V0209999C000019999999N9999999N1+00561+00341999999ADDMA1999999090631ME1315109REMSYN060AAXX  13134 06787 43/// /0000 10056 20034 39063 48510 5////;
0096067870999992011011314004+46617+009433FM-12+098999999V0201701N000519999999N9999999N1+00641+00421999999ADDMA1999999090591ME1315089REMSYN060AAXX  13144 06787 43/// /1701 10064 20042 39059 48508 5////;
0096067870999992011011315004+46617+009433FM-12+098999999V0202201N000519999999N9999999N1+00531+00401999999ADDMA1999999090621ME1315089REMSYN060AAXX  13154 06787 43/// /2201 10053 20040 39062 48508 5////;
0096067870999992011011316004+46617+009433FM-12+098999999V0200601N001019999999N9999999N1+00531+00371999999ADDMA1999999090661ME1315129REMSYN060AAXX  13164 06787 43/// /0602 10053 20037 39066 48512 5////;
0149067870999992011011317004+46617+009433FM-12+098999999V0203201N000519999999N9999999N1+00411+00331999999ADDMA1999999090731MD1310141+9999ME1315169OA149900261REMSYN088AAXX  13174 06787 33/// /3201 10041 20033 39073 48516 53014 333 55300 20000 91105 91203;
0210067870999992011011318004+46617+009433FM-12+098999999V0209999C000019999999N9999999N1+00411+00311999999ADDAA112000091KA1120M+00641MA1999999090741MD1210111+9999ME1315179OA149900261REMSYN106AAXX  13184 06787 03/// /0000 10041 20031 39074 48517 52011 69922 333 10064 55300 20000 60005 91105 91203;EQDQ01  00002PRCP12
0149067870999992011011319004+46617+009433FM-12+098999999V0209999C000019999999N9999999N1+00421+00321999999ADDMA1999999090741MD1210081+9999ME1315179OA149900151REMSYN088AAXX  13194 06787 33/// /0000 10042 20032 39074 48517 52008 333 55300 20000 91103 91202;
0149067870999992011011320004+46617+009433FM-12+098999999V0200901N000519999999N9999999N1+00371+00291999999ADDMA1999999090771MD1210041+9999ME1315199OA149900211REMSYN088AAXX  13204 06787 33/// /0901 10037 20029 39077 48519 52004 333 55300 20000 91104 91203;
0149067870999992011011321004+46617+009433FM-12+098999999V0201901N001019999999N9999999N1+00421+00291999999ADDMA1999999090801MD1310061+9999ME1315229OA149900261REMSYN088AAXX  13214 06787 33/// /1902 10042 20029 39080 48522 53006 333 55300 20000 91105 91203;
0149067870999992011011322004+46617+009433FM-12+098999999V0201601N000519999999N9999999N1+00371+00261999999ADDMA1999999090821MD1210081+9999ME1315239OA149900211REMSYN088AAXX  13224 06787 33/// /1601 10037 20026 39082 48523 52008 333 55300 20000 91104 91202;
0149067870999992011011323004+46617+009433FM-12+098999999V0203201N000519999999N9999999N1+00221+00151999999ADDMA1999999090811MD1210041+9999ME1315199OA149900211REMSYN088AAXX  13234 06787 33/// /3201 10022 20015 39081 48519 52004 333 55300 20000 91104 91201;
0149067870999992011011400004+46617+009433FM-12+098999999V0201001N000519999999N9999999N1+00241+00171999999ADDMA1999999090801MD1010001+9999ME1315199OA149900261REMSYN088AAXX  14004 06787 33/// /1001 10024 20017 39080 48519 50000 333 55300 20000 91105 91203;
0149067870999992011011401004+46617+009433FM-12+098999999V0201001N000519999999N9999999N1+00201+00141999999ADDMA1999999090811MD1710011+9999ME1315199OA149900211REMSYN088AAXX  14014 06787 33/// /1001 10020 20014 39081 48519 57001 333 55300 20000 91104 91202;
0112067870999992011011402004+46617+009433FM-12+098999999V0201901N000519999999N9999999N1+00231+00121999999ADDMA1999999090841ME1315229REMSYN076AAXX  14024 06787 33/// /1901 10023 20012 39084 48522 5//// 333 553// 20000;
0149067870999992011011403004+46617+009433FM-12+098999999V0200701N000519999999N9999999N1+00131+00041999999ADDMA1999999090861MD1210061+9999ME1315229OA149900211REMSYN088AAXX  14034 06787 33/// /0701 10013 20004 39086 48522 52006 333 55300 20000 91104 91202;
0149067870999992011011404004+46617+009433FM-12+098999999V0200101N000519999999N9999999N1+00061+00051999999ADDMA1999999090861MD1010051+9999ME1315209OA149900211REMSYN088AAXX  14044 06787 33/// /0101 10006 20005 39086 48520 50005 333 55300 20000 91104 91202;
0149067870999992011011405004+46617+009433FM-12+098999999V0201401N000519999999N9999999N1-00011-00071999999ADDMA1999999090871MD1210031+9999ME1315209OA149900261REMSYN088AAXX  14054 06787 33/// /1401 11001 21007 39087 48520 52003 333 55300 20000 91105 91201;
0198067870999992011011406004+46617+009433FM-12+098999999V0201101N000519999999N9999999N1+00171+00061999999ADDAL11200091GJ100429KA1999N-00011MA1999999090881MD1310021+9999ME1315249OA149900261REMSYN106AAXX  14064 06787 33/// /1101 10017 20006 39088 48524 53002 333 21001 55007 55300 20000 70002 91105 91203;
0149067870999992011011407004+46617+009433FM-12+098999999V0201401N000519999999N9999999N1+00141+00031999999ADDMA1999999090881MD1210021+9999ME1315249OA149900151REMSYN088AAXX  14074 06787 33/// /1401 10014 20003 39088 48524 52002 333 55300 20000 91103 91202;
0096067870999992011011408004+46617+009433FM-12+098999999V0209999C000019999999N9999999N1+00061-00041999999ADDMA1999999090901ME1315249REMSYN060AAXX  14084 06787 43/// /0000 10006 21004 39090 48524 5////;
0096067870999992011011409004+46617+009433FM-12+098999999V0201801N000519999999N9999999N1+00081-00021999999ADDMA1999999090891ME1315239REMSYN060AAXX  14094 06787 43/// /1801 10008 21002 39089 48523 5////;
0096067870999992011011410004+46617+009433FM-12+098999999V0209999C000019999999N9999999N1+00221+00141999999ADDMA1999999090831ME1315219REMSYN060AAXX  14104 06787 43/// /0000 10022 20014 39083 48521 5////;
0149067870999992011011411004+46617+009433FM-12+098999999V0201001N000519999999N9999999N1+00571+00391999999ADDMA1999999090761MD1710141+9999ME1315229OA149900151REMSYN088AAXX  14114 06787 33/// /1001 10057 20039 39076 48522 57014 333 553// 2//// 91103 91201;
0149067870999992011011412004+46617+009433FM-12+098999999V0201401N000519999999N9999999N1+00641+00471999999ADDMA1999999090671MD1710221+9999ME1315159OA149900261REMSYN088AAXX  14124 06787 33/// /1401 10064 20047 39067 48515 57022 333 553// 2//// 91105 91202;
0149067870999992011011413004+46617+009433FM-12+098999999V0201601N000519999999N9999999N1+00731+00451999999ADDMA1999999090601MD1710231+9999ME1315119OA149900151REMSYN088AAXX  14134 06787 33/// /1601 10073 20045 39060 48511 57023 333 55309 20896 91103 91202;
0112067870999992011011414004+46617+009433FM-12+098999999V0201101N000519999999N9999999N1+00781+00461999999ADDMA1999999090571ME1315099REMSYN076AAXX  14144 06787 33/// /1101 10078 20046 39057 48509 5//// 333 553// 20835;
0149067870999992011011415004+46617+009433FM-12+098999999V0201301N000519999999N9999999N1+00591+00371999999ADDMA1999999090601MD1510071+9999ME1315089OA149900211REMSYN088AAXX  14154 06787 33/// /1301 10059 20037 39060 48508 55007 333 55300 20212 91104 91202;
0149067870999992011011416004+46617+009433FM-12+098999999V0200201N000519999999N9999999N1+00221+00151999999ADDMA1999999090631MD1310031+9999ME1315039OA149900211REMSYN088AAXX  14164 06787 33/// /0201 10022 20015 39063 48503 53003 333 55300 20072 91104 91202;
0149067870999992011011417004+46617+009433FM-12+098999999V0209999C000019999999N9999999N1+00321+00161999999ADDMA1999999090691MD1310121+9999ME1315119OA149900211REMSYN088AAXX  14174 06787 33/// /0000 10032 20016 39069 48511 53012 333 55300 20000 91104 91201;
0168067870999992011011418004+46617+009433FM-12+098999999V0201801N000519999999N9999999N1+00261+00081999999ADDKA1120M+00831MA1999999090701MD1110101+9999ME1315109OA149900211REMSYN094AAXX  14184 06787 33/// /1801 10026 20008 39070 48510 51010 333 10083 55300 20000 91104 91202;
0149067870999992011011419004+46617+009433FM-12+098999999V0201401N000519999999N9999999N1+00151+00031999999ADDMA1999999090641MD1810011+9999ME1315039OA149900151REMSYN088AAXX  14194 06787 33/// /1401 10015 20003 39064 48503 58001 333 55300 20000 91103 91201;
0149067870999992011011420004+46617+009433FM-12+098999999V0203301N000519999999N9999999N1+00141-00031999999ADDMA1999999090611MD1710081+9999ME1315009OA149900151REMSYN088AAXX  14204 06787 33/// /3301 10014 21003 39061 48500 57008 333 55300 20000 91103 91201;
0149067870999992011011421004+46617+009433FM-12+098999999V0202001N000519999999N9999999N1+00041-00081999999ADDMA1999999090551MD1819999+9999ME1314939OA149900211REMSYN088AAXX  14214 06787 33/// /2001 10004 21008 39055 48493 58/// 333 55300 20000 91104 91202;
0149067870999992011011422004+46617+009433FM-12+098999999V0200901N000519999999N9999999N1+00141-00041999999ADDMA1999999090511MD1610131+9999ME1314919OA149900261REMSYN088AAXX  14224 06787 33/// /0901 10014 21004 39051 48491 56013 333 55300 20000 91105 91202;
0149067870999992011011423004+46617+009433FM-12+098999999V0203201N000519999999N9999999N1+00031-00071999999ADDMA1999999090541MD1510071+9999ME1314929OA149900261REMSYN088AAXX  14234 06787 33/// /3201 10003 21007 39054 48492 55007 333 55300 20000 91105 91202;
0149067870999992011011500004+46617+009433FM-12+098999999V0201401N000519999999N9999999N1+00021-00091999999ADDMA1999999090551MD1219999+9999ME1314939OA149900261REMSYN088AAXX  15004 06787 33/// /1401 10002 21009 39055 48493 52/// 333 55300 20000 91105 91202;
0149067870999992011011501004+46617+009433FM-12+098999999V0201801N001019999999N9999999N1+00071-00081999999ADDMA1999999090731MD1210221+9999ME1315099OA149900311REMSYN088AAXX  15014 06787 33/// /1802 10007 21008 39073 48509 52022 333 55300 20000 91106 91203;
0149067870999992011011502004+46617+009433FM-12+098999999V0201601N000519999999N9999999N1+00071-00071999999ADDMA1999999090851MD1219999+9999ME1315209OA149900411REMSYN088AAXX  15024 06787 33/// /1601 10007 21007 39085 48520 52/// 333 55300 20000 91108 91205;
0112067870999992011011503004+46617+009433FM-12+098999999V0201901N001519999999N9999999N1+00091-00021999999ADDMA1999999090931ME1315279REMSYN076AAXX  15034 06787 33/// /1903 10009 21002 39093 48527 5//// 333 553// 20000;
0149067870999992011011504004+46617+009433FM-12+098999999V0200101N001519999999N9999999N1+00191+00031999999ADDMA1999999090941MD1210211+9999ME1315309OA149900361REMSYN088AAXX  15044 06787 33/// /0103 10019 20003 39094 48530 52021 333 55300 20000 91107 91203;
0155067870999992011011505004+46617+009433FM-12+098999999V0203001N000519999999N9999999N1+00101+00041999999ADDMA1999999091001MD1210151+9999ME1315339OA149900311REMSYN094AAXX  15054 06787 23/// /3001 10010 20004 39100 48533 52015 333 55300 20000 69925 91106 91203;
0240067870999992011011506004+46617+009433FM-12+098999999V0201001N001519999999N9999999N1+00211+00091999999ADDAA112000091AL11200091GJ102349KA1999N-00021MA1999999091121MD1210191+9999ME1315469OA149900411REMSYN118AAXX  15064 06787 03/// /1003 10021 20009 39112 48546 52019 69922 333 21002 55039 55300 20000 60005 70002 91108 91205;EQDQ01  00002PRCP12
0149067870999992011011507004+46617+009433FM-12+098999999V0202001N000519999999N9999999N1+00241+00111999999ADDMA1999999091251MD1210311+9999ME1315589OA149900211REMSYN088AAXX  15074 06787 33/// /2001 10024 20011 39125 48558 52031 333 55300 20000 91104 91203;
0149067870999992011011508004+46617+009433FM-12+098999999V0209999C000019999999N9999999N1+00221+00111999999ADDMA1999999091261MD1219999+9999ME1315599OA149900211REMSYN088AAXX  15084 06787 33/// /0000 10022 20011 39126 48559 52/// 333 55300 20004 91104 91203;
0149067870999992011011509004+46617+009433FM-12+098999999V0209999C000019999999N9999999N1+00231+00161999999ADDMA1999999091341MD1210221+9999ME1315669OA149900311REMSYN088AAXX  15094 06787 33/// /0000 10023 20016 39134 48566 52022 333 55300 20061 91106 91203;
0149067870999992011011510004+46617+009433FM-12+098999999V0202701N000519999999N9999999N1+00321+00221999999ADDMA1999999091401MD1210151+9999ME1315739OA149900151REMSYN088AAXX  15104 06787 33/// /2701 10032 20022 39140 48573 52015 333 55300 20320 91103 91201;
0149067870999992011011511004+46617+009433FM-12+098999999V0201401N000519999999N9999999N1+00441+00261999999ADDMA1999999091341MD1010081+9999ME1315709OA149900101REMSYN088AAXX  15114 06787 33/// /1401 10044 20026 39134 48570 50008 333 55303 20637 91102 91201;
0149067870999992011011512004+46617+009433FM-12+098999999V0201901N001519999999N9999999N1+00621+00231999999ADDMA1999999091271MD1810071+9999ME1315689OA149900411REMSYN088AAXX  15124 06787 33/// /1903 10062 20023 39127 48568 58007 333 553// 2//// 91108 91205;
0112067870999992011011513004+46617+009433FM-12+098999999V0202001N000519999999N9999999N1+00631+00161999999ADDMA1999999091251ME1315679REMSYN076AAXX  15134 06787 33/// /2001 10063 20016 39125 48567 5//// 333 553// 20994;
0096067870999992011011514004+46617+009433FM-12+098999999V0201901N001019999999N9999999N1+00691+00271999999ADDMA1999999091261ME1315699REMSYN060AAXX  15144 06787 43/// /1902 10069 20027 39126 48569 5////;
0096067870999992011011515004+46617+009433FM-12+098999999V0201301N001019999999N9999999N1+00441+00231999999ADDMA1999999091311ME1315689REMSYN060AAXX  15154 06787 43/// /1302 10044 20023 39131 48568 5////;
0096067870999992011011516004+46617+009433FM-12+098999999V0202101N000519999999N9999999N1+00371+00141999999ADDMA1999999091371ME1315719REMSYN060AAXX  15164 06787 43/// /2101 10037 20014 39137 48571 5////;
0112067870999992011011517004+46617+009433FM-12+098999999V0201201N000519999999N9999999N1+00181+00011999999ADDMA1999999091451ME1315749REMSYN076AAXX  15174 06787 33/// /1201 10018 20001 39145 48574 5//// 333 553// 20004;
0119067870999992011011518004+46617+009433FM-12+098999999V0209999C000019999999N9999999N1+00081-00111999999ADDKA1999M+00711MA1999999091531ME1315799REMSYN070AAXX  15184 06787 43/// /0000 10008 21011 39153 48579 5//// 333 10071;
0096067870999992011011519004+46617+009433FM-12+098999999V0201401N000519999999N9999999N1+00111-00101999999ADDMA1999999091551ME1315819REMSYN060AAXX  15194 06787 43/// /1401 10011 21010 39155 48581 5////;
0096067870999992011011520004+46617+009433FM-12+098999999V0209999C000019999999N9999999N1-00011-00171999999ADDMA1999999091591ME1315829REMSYN060AAXX  15204 06787 43/// /0000 11001 21017 39159 48582 5////;
0149067870999992011011521004+46617+009433FM-12+098999999V0201701N000519999999N9999999N1+00021-00161999999ADDMA1999999091591MD1210061+9999ME1315839OA149900151REMSYN088AAXX  15214 06787 33/// /1701 10002 21016 39159 48583 52006 333 55300 20000 91103 91201;
0149067870999992011011522004+46617+009433FM-12+098999999V0201901N000519999999N9999999N1-00051-00191999999ADDMA1999999091591MD1210041+9999ME1315819OA149900151REMSYN088AAXX  15224 06787 33/// /1901 11005 21019 39159 48581 52004 333 55300 20000 91103 91201;
0149067870999992011011523004+46617+009433FM-12+098999999V0201801N000519999999N9999999N1-00131-00271999999ADDMA1999999091551MD1810041+9999ME1315769OA149900151REMSYN088AAXX  15234 06787 33/// /1801 11013 21027 39155 48576 58004 333 55300 20000 91103 91201;
0149067870999992011011600004+46617+009433FM-12+098999999V0209999C000019999999N9999999N1-00161-00301999999ADDMA1999999091561MD1710031+9999ME1315769OA149900211REMSYN088AAXX  16004 06787 33/// /0000 11016 21030 39156 48576 57003 333 55300 20000 91104 91203;
0149067870999992011011601004+46617+009433FM-12+098999999V0209999C000019999999N9999999N1-00131-00301999999ADDMA1999999091551MD1710041+9999ME1315769OA149900151REMSYN088AAXX  16014 06787 33/// /0000 11013 21030 39155 48576 57004 333 55300 20000 91103 91202;
0149067870999992011011602004+46617+009433FM-12+098999999V0209999C000019999999N9999999N1-00201-00321999999ADDMA1999999091541MD1719999+9999ME1315749OA149900101REMSYN088AAXX  16024 06787 33/// /0000 11020 21032 39154 48574 57/// 333 55300 20000 91102 91201;
0096067870999992011011603004+46617+009433FM-12+098999999V0209999C000019999999N9999999N1-00091-00391999999ADDMA1999999091521ME1315749REMSYN060AAXX  16034 06787 43/// /0000 11009 21039 39152 48574 5////;
0149067870999992011011604004+46617+009433FM-12+098999999V0200301N000519999999N9999999N1-00061-00381999999ADDMA1999999091491MD1710061+9999ME1315729OA149900151REMSYN088AAXX  16044 06787 33/// /0301 11006 21038 39149 48572 57006 333 55300 20000 91103 91201;
0149067870999992011011605004+46617+009433FM-12+098999999V0200801N000519999999N9999999N1-00261-00411999999ADDMA1999999091481MD1710061+9999ME1315679OA149900151REMSYN088AAXX  16054 06787 33/// /0801 11026 21041 39148 48567 57006 333 55300 20000 91103 91202;
0198067870999992011011606004+46617+009433FM-12+098999999V0209999C000019999999N9999999N1-00211-00401999999ADDAL19900091GJ101809KA1999N-00261MA1999999091511MD1510011+9999ME1315719OA149900151REMSYN106AAXX  16064 06787 33/// /0000 11021 21040 39151 48571 55001 333 21026 55030 55300 20000 70000 91103 91202;
0149067870999992011011607004+46617+009433FM-12+098999999V0209999C000019999999N9999999N1-00241-00411999999ADDMA1999999091521MD1110031+9999ME1315719OA149900151REMSYN088AAXX  16074 06787 33/// /0000 11024 21041 39152 48571 51003 333 55300 20000 91103 91201;
0149067870999992011011608004+46617+009433FM-12+098999999V0202201N000519999999N9999999N1-00231-00341999999ADDMA1999999091501MD1019999+9999ME1315709OA149900151REMSYN088AAXX  16084 06787 33/// /2201 11023 21034 39150 48570 50/// 333 55300 20029 91103 91201;
0149067870999992011011609004+46617+009433FM-12+098999999V0201701N000519999999N9999999N1-00081-00291999999ADDMA1999999091491MD1710021+9999ME1315729OA149900151REMSYN088AAXX  16094 06787 33/// /1701 11008 21029 39149 48572 57002 333 55300 20086 91103 91202;
0149067870999992011011610004+46617+009433FM-12+098999999V0200901N000519999999N9999999N1+00201-00221999999ADDMA1999999091461MD1710061+9999ME1315769OA149900151REMSYN088AAXX  16104 06787 33/// /0901 10020 21022 39146 48576 57006 333 55302 20263 91103 91201;
0149067870999992011011611004+46617+009433FM-12+098999999V0201301N000519999999N9999999N1+00521+00071999999ADDMA1999999091391MD1810111+9999ME1315779OA149900211REMSYN088AAXX  16114 06787 33/// /1301 10052 20007 39139 48577 58011 333 553// 2//// 91104 91202;
0149067870999992011011612004+46617+009433FM-12+098999999V0201001N000519999999N9999999N1+00791+00131999999ADDMA1999999091311MD1810181+9999ME1315759OA149900211REMSYN088AAXX  16124 06787 33/// /1001 10079 20013 39131 48575 58018 333 553// 2//// 91104 91202;
0149067870999992011011613004+46617+009433FM-12+098999999V0201801N000519999999N9999999N1+00951+00111999999ADDMA1999999091231MD1710231+9999ME1315729OA149900151REMSYN088AAXX  16134 06787 33/// /1801 10095 20011 39123 48572 57023 333 553// 2//// 91103 91201;
0149067870999992011011614004+46617+009433FM-12+098999999V0202501N000519999999N9999999N1+00911+00261999999ADDMA1999999091221MD1719999+9999ME1315709OA149900311REMSYN088AAXX  16144 06787 33/// /2501 10091 20026 39122 48570 57/// 333 553// 2//// 91106 91203;
0149067870999992011011615004+46617+009433FM-12+098999999V0209999C000519999999N9999999N1+00861+00061999999ADDMA1999999091231MD1510081+9999ME1315709OA149900311REMSYN088AAXX  16154 06787 33/// /0001 10086 20006 39123 48570 55008 333 55301 20130 91106 91203;
0149067870999992011011616004+46617+009433FM-12+098999999V0200701N000519999999N9999999N1+00711+00011999999ADDMA1999999091271MD1310041+9999ME1315709OA149900361REMSYN088AAXX  16164 06787 33/// /0701 10071 20001 39127 48570 53004 333 55300 20040 91107 91203;
0149067870999992011011617004+46617+009433FM-12+098999999V0201201N001019999999N9999999N1+00511-00041999999ADDMA1999999091311MD1310091+9999ME1315699OA149900361REMSYN088AAXX  16174 06787 33/// /1202 10051 21004 39131 48569 53009 333 55300 20000 91107 91203;
0168067870999992011011618004+46617+009433FM-12+098999999V0203501N000519999999N9999999N1+00461-00061999999ADDKA1120M+01021MA1999999091341MD1310111+9999ME1315719OA149900361REMSYN094AAXX  16184 06787 33/// /3501 10046 21006 39134 48571 53011 333 10102 55300 20000 91107 91203;
0149067870999992011011619004+46617+009433FM-12+098999999V0201601N000519999999N9999999N1+00391-00101999999ADDMA1999999091361MD1210091+9999ME1315719OA149900261REMSYN088AAXX  16194 06787 33/// /1601 10039 21010 39136 48571 52009 333 55300 20000 91105 91202;
0149067870999992011011620004+46617+009433FM-12+098999999V0200901N000519999999N9999999N1+00331-00131999999ADDMA1999999091371MD1210061+9999ME1315719OA149900261REMSYN088AAXX  16204 06787 33/// /0901 10033 21013 39137 48571 52006 333 55300 20000 91105 91201;
0149067870999992011011621004+46617+009433FM-12+098999999V0201601N000519999999N9999999N1+00291-00151999999ADDMA1999999091351MD1010011+9999ME1315689OA149900361REMSYN088AAXX  16214 06787 33/// /1601 10029 21015 39135 48568 50001 333 55300 20000 91107 91203;
0149067870999992011011622004+46617+009433FM-12+098999999V0200801N000519999999N9999999N1+00201-00151999999ADDMA1999999091391MD1219999+9999ME1315709OA149900311REMSYN088AAXX  16224 06787 33/// /0801 10020 21015 39139 48570 52/// 333 55300 20000 91106 91202;
0149067870999992011011623004+46617+009433FM-12+098999999V0201801N000519999999N9999999N1+00041-00211999999ADDMA1999999091391MD1210021+9999ME1315669OA149900261REMSYN088AAXX  16234 06787 33/// /1801 10004 21021 39139 48566 52002 333 55300 20000 91105 91202;
0149067870999992011011700004+46617+009433FM-12+098999999V0200501N000519999999N9999999N1-00091-00231999999ADDMA1999999091361MD1810011+9999ME1315619OA149900361REMSYN088AAXX  17004 06787 33/// /0501 11009 21023 39136 48561 58001 333 55300 20000 91107 91203;
0149067870999992011011701004+46617+009433FM-12+098999999V0201201N001019999999N9999999N1+00221-00201999999ADDMA1999999091341MD1719999+9999ME1315669OA149900211REMSYN088AAXX  17014 06787 33/// /1202 10022 21020 39134 48566 57/// 333 55300 20000 91104 91202;
0149067870999992011011702004+46617+009433FM-12+098999999V0209999C000019999999N9999999N1+00071-00231999999ADDMA1999999091341MD1619999+9999ME1315629OA149900211REMSYN088AAXX  17024 06787 33/// /0000 10007 21023 39134 48562 56/// 333 55300 20000 91104 91202;
0112067870999992011011703004+46617+009433FM-12+098999999V0209999C000019999999N9999999N1-00031-00251999999ADDMA1999999091331ME1315599REMSYN076AAXX  17034 06787 33/// /0000 11003 21025 39133 48559 5//// 333 553// 20000;
0149067870999992011011704004+46617+009433FM-12+098999999V0202101N000519999999N9999999N1-00041-00291999999ADDMA1999999091311MD1710031+9999ME1315579OA149900211REMSYN088AAXX  17044 06787 33/// /2101 11004 21029 39131 48557 57003 333 55300 20000 91104 91202;
0149067870999992011011705004+46617+009433FM-12+098999999V0201201N000519999999N9999999N1+00061-00311999999ADDMA1999999091301MD1710041+9999ME1315599OA149900151REMSYN088AAXX  17054 06787 33/// /1201 10006 21031 39130 48559 57004 333 55300 20000 91103 91201;
0217067870999992011011706004+46617+009433FM-12+098999999V0203501N000519999999N9999999N1-00171-00321999999ADDAL19900091GJ102529KA1999N+99999MA1999999091261MD1710071+9999ME1315509OA149900311REMSYN106AAXX  17064 06787 33/// /3501 11017 21032 39126 48550 57007 333 21010 55042 55300 20000 70000 91106 91202;EQDQ01 -00102ATMN  
0149067870999992011011707004+46617+009433FM-12+098999999V0201601N000519999999N9999999N1+00021-00351999999ADDMA1999999091271MD1710041+9999ME1315559OA149900151REMSYN088AAXX  17074 06787 33/// /1601 10002 21035 39127 48555 57004 333 55300 20000 91103 91201;
0096067870999992011011708004+46617+009433FM-12+098999999V0202301N000519999999N9999999N1-00161-00381999999ADDMA1999999091271ME1315519REMSYN060AAXX  17084 06787 43/// /2301 11016 21038 39127 48551 5////;
0096067870999992011011709004+46617+009433FM-12+098999999V0209999C000519999999N9999999N1+00051-00371999999ADDMA1999999091251ME1315549REMSYN060AAXX  17094 06787 43/// /0001 10005 21037 39125 48554 5////;
0149067870999992011011710004+46617+009433FM-12+098999999V0201601N000519999999N9999999N1+00121-00351999999ADDMA1999999091241MD1710031+9999ME1315559OA149900151REMSYN088AAXX  17104 06787 33/// /1601 10012 21035 39124 48555 57003 333 55302 20248 91103 91202;
0149067870999992011011711004+46617+009433FM-12+098999999V0201901N000519999999N9999999N1+00551-00261999999ADDMA1999999091161MD1710111+9999ME1315579OA149900151REMSYN088AAXX  17114 06787 33/// /1901 10055 21026 39116 48557 57011 333 553// 2//// 91103 91202;
0149067870999992011011712004+46617+009433FM-12+098999999V0200701N000519999999N9999999N1+00811-00461999999ADDMA1999999091051MD1710201+9999ME1315539OA149900211REMSYN088AAXX  17124 06787 33/// /0701 10081 21046 39105 48553 57020 333 553// 2//// 91104 91202;
0149067870999992011011713004+46617+009433FM-12+098999999V0201301N001019999999N9999999N1+00871+00011999999ADDMA1999999090991MD1810251+9999ME1315489OA149900211REMSYN088AAXX  17134 06787 33/// /1302 10087 20001 39099 48548 58025 333 553// 2//// 91104 91203;
0096067870999992011011714004+46617+009433FM-12+098999999V0201201N000519999999N9999999N1+00801-00071999999ADDMA1999999090981ME1315469REMSYN060AAXX  17144 06787 43/// /1201 10080 21007 39098 48546 5////;
0096067870999992011011715004+46617+009433FM-12+098999999V0201101N000519999999N9999999N1+00701-00241999999ADDMA1999999091031ME1315489REMSYN060AAXX  17154 06787 43/// /1101 10070 21024 39103 48548 5////;
0149067870999992011011716004+46617+009433FM-12+098999999V0209999C000019999999N9999999N1+00351-00231999999ADDMA1999999091121MD1210131+9999ME1315499OA149900151REMSYN088AAXX  17164 06787 33/// /0000 10035 21023 39112 48549 52013 333 55300 20043 91103 91201;
0149067870999992011011717004+46617+009433FM-12+098999999V0200501N000519999999N9999999N1+00161-00291999999ADDMA1999999091171MD1110191+9999ME1315499OA149900151REMSYN088AAXX  17174 06787 33/// /0501 10016 21029 39117 48549 51019 333 55300 20000 91103 91202;
0168067870999992011011718004+46617+009433FM-12+098999999V0200701N000519999999N9999999N1+00241-00341999999ADDKA1120M+00981MA1999999091251MD1110221+9999ME1315589OA149900211REMSYN094AAXX  17184 06787 33/// /0701 10024 21034 39125 48558 51022 333 10098 55300 20000 91104 91203;
0149067870999992011011719004+46617+009433FM-12+098999999V0203601N000519999999N9999999N1-00091-00331999999ADDMA1999999091291MD1110171+9999ME1315559OA149900151REMSYN088AAXX  17194 06787 33/// /3601 11009 21033 39129 48555 51017 333 55300 20000 91103 91201;
0149067870999992011011720004+46617+009433FM-12+098999999V0201401N000519999999N9999999N1-00041-00371999999ADDMA1999999091321MD1110151+9999ME1315589OA149900101REMSYN088AAXX  17204 06787 33/// /1401 11004 21037 39132 48558 51015 333 55300 20000 91102 91201;
0149067870999992011011721004+46617+009433FM-12+098999999V0209999C000019999999N9999999N1-00101-00431999999ADDMA1999999091331MD1210081+9999ME1315589OA149900151REMSYN088AAXX  17214 06787 33/// /0000 11010 21043 39133 48558 52008 333 55300 20000 91103 91202;
0149067870999992011011722004+46617+009433FM-12+098999999V0209999C000019999999N9999999N1-00031-00431999999ADDMA1999999091351MD1210061+9999ME1315619OA149900151REMSYN088AAXX  17224 06787 33/// /0000 11003 21043 39135 48561 52006 333 55300 20000 91103 91201;
0149067870999992011011723004+46617+009433FM-12+098999999V0201701N000519999999N9999999N1-00081-00451999999ADDMA1999999091351MD1210031+9999ME1315609OA149900151REMSYN088AAXX  17234 06787 33/// /1701 11008 21045 39135 48560 52003 333 55300 20000 91103 91201;
0149067870999992011011800004+46617+009433FM-12+098999999V0201901N000519999999N9999999N1-00261-00481999999ADDMA1999999091351MD1210021+9999ME1315569OA149900211REMSYN088AAXX  18004 06787 33/// /1901 11026 21048 39135 48556 52002 333 55300 20000 91104 91203;
0149067870999992011011801004+46617+009433FM-12+098999999V0200901N001019999999N9999999N1-00131-00511999999ADDMA1999999091331MD1819999+9999ME1315579OA149900211REMSYN088AAXX  18014 06787 33/// /0902 11013 21051 39133 48557 58/// 333 55300 20000 91104 91202;
0096067870999992011011802004+46617+009433FM-12+098999999V0203601N000519999999N9999999N1-00251-00501999999ADDMA1999999091321ME1315549REMSYN060AAXX  18024 06787 43/// /3601 11025 21050 39132 48554 5////;
0096067870999992011011803004+46617+009433FM-12+098999999V0209999C000019999999N9999999N1-00231-00521999999ADDMA1999999091311ME1315539REMSYN060AAXX  18034 06787 43/// /0000 11023 21052 39131 48553 5////;
0112067870999992011011804004+46617+009433FM-12+098999999V0209999C000019999999N9999999N1-00331-00571999999ADDMA1999999091301ME1315509REMSYN076AAXX  18044 06787 33/// /0000 11033 21057 39130 48550 5//// 333 553// 20000;
0149067870999992011011805004+46617+009433FM-12+098999999V0209999C000019999999N9999999N1-00221-00541999999ADDMA1999999091251MD1710071+9999ME1315489OA149900211REMSYN088AAXX  18054 06787 33/// /0000 11022 21054 39125 48548 57007 333 55300 20000 91104 91201;
0198067870999992011011806004+46617+009433FM-12+098999999V0202001N000519999999N9999999N1-00261-00551999999ADDAL19900091GJ102589KA1999N-00411MA1999999091251MD1710061+9999ME1315489OA149900211REMSYN106AAXX  18064 06787 33/// /2001 11026 21055 39125 48548 57006 333 21041 55043 55300 20000 70000 91104 91202;
0149067870999992011011807004+46617+009433FM-12+098999999V0201601N000519999999N9999999N1-00361-00541999999ADDMA1999999091251MD1510051+9999ME1315459OA149900151REMSYN088AAXX  18074 06787 33/// /1601 11036 21054 39125 48545 55005 333 55300 20000 91103 91202;
0096067870999992011011808004+46617+009433FM-12+098999999V0209999C000019999999N9999999N1-00271-00521999999ADDMA1999999091241ME1315469REMSYN060AAXX  18084 06787 43/// /0000 11027 21052 39124 48546 5////;
0096067870999992011011809004+46617+009433FM-12+098999999V0201501N000519999999N9999999N1-00111-00491999999ADDMA1999999091231ME1315499REMSYN060AAXX  18094 06787 43/// /1501 11011 21049 39123 48549 5////;
0149067870999992011011810004+46617+009433FM-12+098999999V0209999C000019999999N9999999N1-00051-00361999999ADDMA1999999091211MD1710041+9999ME1315499OA149900151REMSYN088AAXX  18104 06787 33/// /0000 11005 21036 39121 48549 57004 333 55302 20317 91103 91201;
