0137067820999992010010100004+46700+008850FM-12+118099999V0203101N000519999999N9999999N1-00101-00301999999ADDMA1999999085841MD1810121+9999ME1312779OA149900261REMSYN076AAXX  01004 06782 33/// /3101 11010 21030 38584 48277 58012 333 91105 91202;
0137067820999992010010101004+46700+008850FM-12+118099999V0202901N000519999999N9999999N1-00111-00351999999ADDMA1999999085791MD1810141+9999ME1312729OA149900151REMSYN076AAXX  01014 06782 33/// /2901 11011 21035 38579 48272 58014 333 91103 91201;
0137067820999992010010102004+46700+008850FM-12+118099999V0209999C000019999999N9999999N1-00171-00401999999ADDMA1999999085771MD1719999+9999ME1312709OA149900151REMSYN076AAXX  01024 06782 33/// /0000 11017 21040 38577 48270 57/// 333 91103 91201;
0096067820999992010010103004+46700+008850FM-12+118099999V0203101N000519999999N9999999N1-00221-00461999999ADDMA1999999085711ME1312659REMSYN060AAXX  01034 06782 43/// /3101 11022 21046 38571 48265 5////;
0096067820999992010010104004+46700+008850FM-12+118099999V0203101N000519999999N9999999N1-00141-00491999999ADDMA1999999085671ME1312619REMSYN060AAXX  01044 06782 33/// /3101 11014 21049 38567 48261 5////;
0137067820999992010010105004+46700+008850FM-12+118099999V0203101N000519999999N9999999N1-00151-00531999999ADDMA1999999085621MD1610151+9999ME1312569OA149900211REMSYN076AAXX  01054 06782 33/// /3101 11015 21053 38562 48256 56015 333 91104 91202;
0215067820999992010010106004+46700+008850FM-12+118099999V0202601N000519999999N9999999N1-00121-00591999999ADDAA124000891AL14200091GJ100849IA2999-00509KA1999N-00221MA1999999085571MD1710141+9999ME1312529OA149900211REMSYN100AAXX  01064 06782 33/// /2601 11012 21059 38557 48252 57014 333 21022 3/105 55014 70007 91104 91202;
0137067820999992010010107004+46700+008850FM-12+118099999V0209999C000519999999N9999999N1-00111-00561999999ADDMA1999999085571MD1710101+9999ME1312529OA149900151REMSYN076AAXX  01074 06782 33/// /0001 11011 21056 38557 48252 57010 333 91103 91201;
0137067820999992010010108004+46700+008850FM-12+118099999V0209999C000019999999N9999999N1-00141-00481999999ADDMA1999999085611MD1510011+9999ME1312569OA149900151REMSYN076AAXX  01084 06782 33/// /0000 11014 21048 38561 48256 55001 333 91103 91201;
0137067820999992010010109004+46700+008850FM-12+118099999V0202701N000519999999N9999999N1-00041-00571999999ADDMA1999999085641MD1210071+9999ME1312599OA149900211REMSYN076AAXX  01094 06782 33/// /2701 11004 21057 38564 48259 52007 333 91104 91202;
0137067820999992010010110004+46700+008850FM-12+118099999V0209999C000019999999N9999999N1-00011-00471999999ADDMA1999999085661MD1210091+9999ME1312609OA149900151REMSYN076AAXX  01104 06782 33/// /0000 11001 21047 38566 48260 52009 333 91103 91201;
0137067820999992010010111004+46700+008850FM-12+118099999V0209999C000019999999N9999999N1+00121-00511999999ADDMA1999999085621MD1010011+9999ME1312579OA149900151REMSYN076AAXX  01114 06782 33/// /0000 10012 21051 38562 48257 50001 333 91103 91201;
0137067820999992010010112004+46700+008850FM-12+118099999V0209999C000019999999N9999999N1+00131-00341999999ADDMA1999999085611MD1710031+9999ME1312569OA149900211REMSYN076AAXX  01124 06782 33/// /0000 10013 21034 38561 48256 57003 333 91104 91202;
0137067820999992010010113004+46700+008850FM-12+118099999V0209999C000019999999N9999999N1+00181-00291999999ADDMA1999999085601MD1610061+9999ME1312559OA149900101REMSYN076AAXX  01134 06782 33/// /0000 10018 21029 38560 48255 56006 333 91102 91201;
0137067820999992010010114004+46700+008850FM-12+118099999V0209999C000019999999N9999999N1+00091-00361999999ADDMA1999999085661MD1319999+9999ME1312619OA149900101REMSYN076AAXX  01144 06782 33/// /0000 10009 21036 38566 48261 53/// 333 91102 91201;
0137067820999992010010115004+46700+008850FM-12+118099999V0209999C000019999999N9999999N1+00121-00301999999ADDMA1999999085751MD1210141+9999ME1312699OA149900151REMSYN076AAXX  01154 06782 33/// /0000 10012 21030 38575 48269 52014 333 91103 91201;
0137067820999992010010116004+46700+008850FM-12+118099999V0200301N000519999999N9999999N1+00091-00371999999ADDMA1999999085851MD1310251+9999ME1312799OA149900101REMSYN076AAXX  01164 06782 33/// /0301 10009 21037 38585 48279 53025 333 91102 91201;
0137067820999992010010117004+46700+008850FM-12+118099999V0209999C000019999999N9999999N1-00021-00281999999ADDMA1999999085931MD1210271+9999ME1312869OA149900151REMSYN076AAXX  01174 06782 33/// /0000 11002 21028 38593 48286 52027 333 91103 91201;
0156067820999992010010118004+46700+008850FM-12+118099999V0209999C000019999999N9999999N1-00041-00271999999ADDKA1120M+00211MA1999999086021MD1210271+9999ME1312949OA149900151REMSYN082AAXX  01184 06782 33/// /0000 11004 21027 38602 48294 52027 333 10021 91103 91202;
0154067820999992010010119004+46700+008850FM-12+118099999V0202701N000519999999N9999999N1+00001-00181999999ADDAA101000021MA1999999086141MD1310291+9999ME1313059OA149900151REMSYN082AAXX  01194 06782 23/// /2701 10000 21018 38614 48305 53029 333 69915 91103 91202;
0137067820999992010010120004+46700+008850FM-12+118099999V0200601N000519999999N9999999N1-00071-00201999999ADDMA1999999086221MD1110291+9999ME1313129OA149900151REMSYN076AAXX  01204 06782 33/// /0601 11007 21020 38622 48312 51029 333 91103 91202;
0137067820999992010010121004+46700+008850FM-12+118099999V0203101N000519999999N9999999N1+00051-00261999999ADDMA1999999086311MD1110291+9999ME1313219OA149900151REMSYN076AAXX  01214 06782 33/// /3101 10005 21026 38631 48321 51029 333 91103 91202;
0137067820999992010010122004+46700+008850FM-12+118099999V0200701N002119999999N9999999N1-00081-00131999999ADDMA1999999086421MD1310281+9999ME1313319OA149900461REMSYN076AAXX  01224 06782 33/// /0704 11008 21013 38642 48331 53028 333 91109 91204;
0137067820999992010010123004+46700+008850FM-12+118099999V0200801N001519999999N9999999N1-00091-00141999999ADDMA1999999086501MD1210281+9999ME1313389OA149900671REMSYN076AAXX  01234 06782 33/// /0803 11009 21014 38650 48338 52028 333 91113 91205;
0179067820999992010010200004+46700+008850FM-12+118099999V0200701N002619999999N9999999N1-00111-00201999999ADDAA106000091MA1999999086551MD1110241+9999ME1313439OA149900671REMSYN088AAXX  02004 06782 03/// /0705 11011 21020 38655 48343 51024 69911 333 60005 91113 91205;EQDQ01  00002PRCP06
0154067820999992010010201004+46700+008850FM-12+118099999V0200601N001519999999N9999999N1-00181-00271999999ADDAA101000021MA1999999086591MD1110171+9999ME1313469OA149900621REMSYN082AAXX  02014 06782 23/// /0603 11018 21027 38659 48346 51017 333 69915 91112 91206;
0117067820999992010010202004+46700+008850FM-12+118099999V0200201N001019999999N9999999N1-00201-00331999999ADDAA101000021MA1999999086681ME1313549REMSYN070AAXX  02024 06782 23/// /0202 11020 21033 38668 48354 5//// 333 69915;
0137067820999992010010203004+46700+008850FM-12+118099999V0200301N002119999999N9999999N1-00221-00401999999ADDMA1999999086771MD1310221+9999ME1313629OA149900671REMSYN076AAXX  02034 06782 33/// /0304 11022 21040 38677 48362 53022 333 91113 91206;
0154067820999992010010204004+46700+008850FM-12+118099999V0200701N001519999999N9999999N1-00221-00511999999ADDAA101000021MA1999999086841MD1110251+9999ME1313689OA149900511REMSYN082AAXX  02044 06782 23/// /0703 11022 21051 38684 48368 51025 333 69915 91110 91205;
0154067820999992010010205004+46700+008850FM-12+118099999V0200701N003119999999N9999999N1-00351-00661999999ADDAA101000021MA1999999086921MD1310241+9999ME1313759OA149900621REMSYN082AAXX  02054 06782 23/// /0706 11035 21066 38692 48375 53024 333 69915 91112 91206;
0238067820999992010010206004+46700+008850FM-12+118099999V0201701N001019999999N9999999N1-00431-00781999999ADDAA112000591AA224000591AL13000091GJ100729IA2999-00409KA1999N-00391MA1999999087001MD1310231+9999ME1313829OA149900671REMSYN112AAXX  02064 06782 03/// /1702 11043 21078 38700 48382 53023 69952 333 21039 3/104 55012 60005 70005 91113 91206;
0137067820999992010010207004+46700+008850FM-12+118099999V0200901N002119999999N9999999N1-00451-00851999999ADDMA1999999087081MD1210241+9999ME1313899OA149900571REMSYN076AAXX  02074 06782 33/// /0904 11045 21085 38708 48389 52024 333 91111 91205;
0096067820999992010010208004+46700+008850FM-12+118099999V0200701N003619999999N9999999N1-00511-00891999999ADDMA1999999087141ME1313949REMSYN060AAXX  02084 06782 33/// /0707 11051 21089 38714 48394 5////;
0137067820999992010010209004+46700+008850FM-12+118099999V0200701N002619999999N9999999N1-00531-00921999999ADDMA1999999087241MD1310241+9999ME1314029OA149900821REMSYN076AAXX  02094 06782 33/// /0705 11053 21092 38724 48402 53024 333 91116 91208;
0137067820999992010010210004+46700+008850FM-12+118099999V0200501N000519999999N9999999N1-00491-01091999999ADDMA1999999087331MD1210251+9999ME1314119OA149900721REMSYN076AAXX  02104 06782 33/// /0501 11049 21109 38733 48411 52025 333 91114 91206;
0137067820999992010010211004+46700+008850FM-12+118099999V0201901N001019999999N9999999N1-00521-01151999999ADDMA1999999087371MD1210231+9999ME1314149OA149900721REMSYN076AAXX  02114 06782 33/// /1902 11052 21115 38737 48414 52023 333 91114 91206;
0137067820999992010010212004+46700+008850FM-12+118099999V0200801N002119999999N9999999N1-00521-01911999999ADDMA1999999087441MD1210201+9999ME1314209OA149900821REMSYN076AAXX  02124 06782 33/// /0804 11052 21191 38744 48420 52020 333 91116 91208;
0137067820999992010010213004+46700+008850FM-12+118099999V0200701N002119999999N9999999N1-00531-01841999999ADDMA1999999087501MD1310171+9999ME1314269OA149900821REMSYN076AAXX  02134 06782 33/// /0704 11053 21184 38750 48426 53017 333 91116 91205;
0137067820999992010010214004+46700+008850FM-12+118099999V0200801N003119999999N9999999N1-00581-01911999999ADDMA1999999087611MD1319999+9999ME1314359OA149900881REMSYN076AAXX  02144 06782 33/// /0806 11058 21191 38761 48435 53/// 333 91117 91207;
0137067820999992010010215004+46700+008850FM-12+118099999V0200701N002119999999N9999999N1-00561-01941999999ADDMA1999999087681MD1310241+9999ME1314419OA149900931REMSYN076AAXX  02154 06782 33/// /0704 11056 21194 38768 48441 53024 333 91118 91207;
0137067820999992010010216004+46700+008850FM-12+118099999V0200401N000519999999N9999999N1-00691-01661999999ADDMA1999999087771MD1210271+9999ME1314489OA149900931REMSYN076AAXX  02164 06782 33/// /0401 11069 21166 38777 48448 52027 333 91118 91206;
0137067820999992010010217004+46700+008850FM-12+118099999V0200201N001019999999N9999999N1-00701-01691999999ADDMA1999999087811MD1210201+9999ME1314529OA149900261REMSYN076AAXX  02174 06782 33/// /0202 11070 21169 38781 48452 52020 333 91105 91202;
0156067820999992010010218004+46700+008850FM-12+118099999V0200201N001019999999N9999999N1-00691-02071999999ADDKA1120M-00411MA1999999087871MD1110191+9999ME1314579OA149900931REMSYN082AAXX  02184 06782 33/// /0202 11069 21207 38787 48457 51019 333 11041 91118 91208;
0137067820999992010010219004+46700+008850FM-12+118099999V0209999C002119999999N9999999N1-00681-02071999999ADDMA1999999087951MD1310181+9999ME1314649OA149900621REMSYN076AAXX  02194 06782 33/// /0004 11068 21207 38795 48464 53018 333 91112 91204;
0137067820999992010010220004+46700+008850FM-12+118099999V0203501N001019999999N9999999N1-00761-01981999999ADDMA1999999087971MD1110161+9999ME1314659OA149900461REMSYN076AAXX  02204 06782 33/// /3502 11076 21198 38797 48465 51016 333 91109 91204;
0137067820999992010010221004+46700+008850FM-12+118099999V0209999C001519999999N9999999N1-00801-01851999999ADDMA1999999088001MD1210131+9999ME1314679OA149900621REMSYN076AAXX  02214 06782 33/// /0003 11080 21185 38800 48467 52013 333 91112 91204;
0137067820999992010010222004+46700+008850FM-12+118099999V0200101N001019999999N9999999N1-00921-01701999999ADDMA1999999088031MD1210081+9999ME1314699OA149900311REMSYN076AAXX  02224 06782 33/// /0102 11092 21170 38803 48469 52008 333 91106 91203;
0137067820999992010010223004+46700+008850FM-12+118099999V0203001N000519999999N9999999N1-00951-01671999999ADDMA1999999088091MD1210121+9999ME1314749OA149900311REMSYN076AAXX  02234 06782 33/// /3001 11095 21167 38809 48474 52012 333 91106 91203;
0137067820999992010010300004+46700+008850FM-12+118099999V0202601N000519999999N9999999N1-01011-01921999999ADDMA1999999088101MD1210101+9999ME1314749OA149900931REMSYN076AAXX  03004 06782 33/// /2601 11101 21192 38810 48474 52010 333 91118 91207;
0137067820999992010010301004+46700+008850FM-12+118099999V0200201N000519999999N9999999N1-01021-01781999999ADDMA1999999088121MD1210091+9999ME1314759OA149900211REMSYN076AAXX  03014 06782 33/// /0201 11102 21178 38812 48475 52009 333 91104 91202;
0096067820999992010010302004+46700+008850FM-12+118099999V0202601N000519999999N9999999N1-01121-02051999999ADDMA1999999088151ME1314779REMSYN060AAXX  03024 06782 33/// /2601 11112 21205 38815 48477 5////;
0096067820999992010010303004+46700+008850FM-12+118099999V0202501N001019999999N9999999N1-01191-02221999999ADDMA1999999088171ME1314789REMSYN060AAXX  03034 06782 33/// /2502 11119 21222 38817 48478 5////;
0137067820999992010010304004+46700+008850FM-12+118099999V0202801N000519999999N9999999N1-01201-02111999999ADDMA1999999088121MD1010001+9999ME1314749OA149900311REMSYN076AAXX  03044 06782 33/// /2801 11120 21211 38812 48474 50000 333 91106 91202;
0137067820999992010010305004+46700+008850FM-12+118099999V0203501N000519999999N9999999N1-01161-02091999999ADDMA1999999088161MD1519999+9999ME1314779OA149900211REMSYN076AAXX  03054 06782 33/// /3501 11116 21209 38816 48477 55/// 333 91104 91202;
0234067820999992010010306004+46700+008850FM-12+118099999V0202501N000519999999N9999999N1-01221-01981999999ADDAA124000091AL19900091GJ100009IA2999-01609KA1999N-01231MA1999999088121MD1710051+9999ME1314739OA149900461REMSYN100AAXX  03064 06782 33/// /2501 11122 21198 38812 48473 57005 333 21123 3/116 55000 70000 91109 91204;EQDQ01  00002PRCP24
0137067820999992010010307004+46700+008850FM-12+118099999V0202801N000519999999N9999999N1-01201-02081999999ADDMA1999999088131MD1010011+9999ME1314749OA149900151REMSYN076AAXX  03074 06782 33/// /2801 11120 21208 38813 48474 50001 333 91103 91202;
0137067820999992010010308004+46700+008850FM-12+118099999V0203301N000519999999N9999999N1-01141-02171999999ADDMA1999999088141MD1519999+9999ME1314769OA149900151REMSYN076AAXX  03084 06782 33/// /3301 11114 21217 38814 48476 55/// 333 91103 91202;
0137067820999992010010309004+46700+008850FM-12+118099999V0203601N001019999999N9999999N1-01091-02081999999ADDMA1999999088141MD1210021+9999ME1314769OA149900211REMSYN076AAXX  03094 06782 33/// /3602 11109 21208 38814 48476 52002 333 91104 91202;
0137067820999992010010310004+46700+008850FM-12+118099999V0201601N000519999999N9999999N1-00981-01901999999ADDMA1999999088141MD1210011+9999ME1314789OA149900151REMSYN076AAXX  03104 06782 33/// /1601 11098 21190 38814 48478 52001 333 91103 91202;
0137067820999992010010311004+46700+008850FM-12+118099999V0201601N001019999999N9999999N1-00861-01721999999ADDMA1999999088031MD1810111+9999ME1314699OA149900261REMSYN076AAXX  03114 06782 33/// /1602 11086 21172 38803 48469 58011 333 91105 91203;
0137067820999992010010312004+46700+008850FM-12+118099999V0201901N000519999999N9999999N1-00661-01761999999ADDMA1999999087971MD1710171+9999ME1314669OA149900311REMSYN076AAXX  03124 06782 33/// /1901 11066 21176 38797 48466 57017 333 91106 91203;
0137067820999992010010313004+46700+008850FM-12+118099999V0201801N000519999999N9999999N1-00621-01711999999ADDMA1999999087911MD1610231+9999ME1314619OA149900311REMSYN076AAXX  03134 06782 33/// /1801 11062 21171 38791 48461 56023 333 91106 91203;
0137067820999992010010314004+46700+008850FM-12+118099999V0202301N000519999999N9999999N1-00581-01741999999ADDMA1999999087891MD1710141+9999ME1314609OA149900261REMSYN076AAXX  03144 06782 33/// /2301 11058 21174 38789 48460 57014 333 91105 91202;
0137067820999992010010315004+46700+008850FM-12+118099999V0209999C000019999999N9999999N1-00741-02121999999ADDMA1999999087901MD1510071+9999ME1314599OA149900311REMSYN076AAXX  03154 06782 33/// /0000 11074 21212 38790 48459 55007 333 91106 91203;
0137067820999992010010316004+46700+008850FM-12+118099999V0203501N000519999999N9999999N1-00771-02031999999ADDMA1999999087901MD1710011+9999ME1314599OA149900151REMSYN076AAXX  03164 06782 33/// /3501 11077 21203 38790 48459 57001 333 91103 91201;
0137067820999992010010317004+46700+008850FM-12+118099999V0203501N000519999999N9999999N1-00831-01581999999ADDMA1999999087861MD1810031+9999ME1314559OA149900151REMSYN076AAXX  03174 06782 33/// /3501 11083 21158 38786 48455 58003 333 91103 91202;
0156067820999992010010318004+46700+008850FM-12+118099999V0203401N000519999999N9999999N1-00831-01841999999ADDKA1120M-00581MA1999999087871MD1710031+9999ME1314569OA149900311REMSYN082AAXX  03184 06782 33/// /3401 11083 21184 38787 48456 57003 333 11058 91106 91203;
0137067820999992010010319004+46700+008850FM-12+118099999V0209999C000019999999N9999999N1-00881-01891999999ADDMA1999999087911MD1310011+9999ME1314599OA149900151REMSYN076AAXX  03194 06782 33/// /0000 11088 21189 38791 48459 53001 333 91103 91202;
0137067820999992010010320004+46700+008850FM-12+118099999V0203301N000519999999N9999999N1-00911-02101999999ADDMA1999999087891MD1010031+9999ME1314579OA149900151REMSYN076AAXX  03204 06782 33/// /3301 11091 21210 38789 48457 50003 333 91103 91202;
0137067820999992010010321004+46700+008850FM-12+118099999V0203201N000519999999N9999999N1-00931-01871999999ADDMA1999999087881MD1210011+9999ME1314559OA149900211REMSYN076AAXX  03214 06782 33/// /3201 11093 21187 38788 48455 52001 333 91104 91202;
0137067820999992010010322004+46700+008850FM-12+118099999V0202701N000519999999N9999999N1-00951-01731999999ADDMA1999999087881MD1710031+9999ME1314559OA149900211REMSYN076AAXX  03224 06782 33/// /2701 11095 21173 38788 48455 57003 333 91104 91201;
0137067820999992010010323004+46700+008850FM-12+118099999V0209999C000019999999N9999999N1-00921-01911999999ADDMA1999999087851MD1710041+9999ME1314539OA149900211REMSYN076AAXX  03234 06782 33/// /0000 11092 21191 38785 48453 57004 333 91104 91201;
0137067820999992010010400004+46700+008850FM-12+118099999V0202701N000519999999N9999999N1-00931-01691999999ADDMA1999999087801MD1710081+9999ME1314489OA149900261REMSYN076AAXX  04004 06782 33/// /2701 11093 21169 38780 48448 57008 333 91105 91202;
0137067820999992010010401004+46700+008850FM-12+118099999V0200401N001019999999N9999999N1-00931-01741999999ADDMA1999999087751MD1710131+9999ME1314449OA149900211REMSYN076AAXX  04014 06782 33/// /0402 11093 21174 38775 48444 57013 333 91104 91202;
0137067820999992010010402004+46700+008850FM-12+118099999V0203601N000519999999N9999999N1-00861-02121999999ADDMA1999999087701MD1810151+9999ME1314409OA149900211REMSYN076AAXX  04024 06782 33/// /3601 11086 21212 38770 48440 58015 333 91104 91202;
0137067820999992010010403004+46700+008850FM-12+118099999V0202901N000519999999N9999999N1-00691-01991999999ADDMA1999999087621MD1819999+9999ME1314359OA149900211REMSYN076AAXX  04034 06782 33/// /2901 11069 21199 38762 48435 58/// 333 91104 91202;
0137067820999992010010404004+46700+008850FM-12+118099999V0203101N000519999999N9999999N1-00631-01911999999ADDMA1999999087571MD1810181+9999ME1314319OA149900151REMSYN076AAXX  04044 06782 33/// /3101 11063 21191 38757 48431 58018 333 91103 91201;
0137067820999992010010405004+46700+008850FM-12+118099999V0203401N000519999999N9999999N1-00711-01531999999ADDMA1999999087511MD1610191+9999ME1314259OA149900261REMSYN076AAXX  04054 06782 33/// /3401 11071 21153 38751 48425 56019 333 91105 91202;
0234067820999992010010406004+46700+008850FM-12+118099999V0209999C000019999999N9999999N1-00591-01571999999ADDAA124000091AL19900091GJ102529IA2999-01509KA1999N-00991MA1999999087511MD1710111+9999ME1314269OA149900361REMSYN100AAXX  04064 06782 33/// /0000 11059 21157 38751 48426 57011 333 21099 3/115 55042 70000 91107 91203;EQDQ01  00002PRCP24
0137067820999992010010407004+46700+008850FM-12+118099999V0203301N000519999999N9999999N1-00531-01581999999ADDMA1999999087491MD1710081+9999ME1314259OA149900461REMSYN076AAXX  04074 06782 33/// /3301 11053 21158 38749 48425 57008 333 91109 91203;
0137067820999992010010408004+46700+008850FM-12+118099999V0200501N001019999999N9999999N1-00351-01771999999ADDMA1999999087491MD1710021+9999ME1314269OA149900461REMSYN076AAXX  04084 06782 33/// /0502 11035 21177 38749 48426 57002 333 91109 91204;
0137067820999992010010409004+46700+008850FM-12+118099999V0209999C000019999999N9999999N1-00381-01481999999ADDMA1999999087471MD1710041+9999ME1314249OA149900511REMSYN076AAXX  04094 06782 33/// /0000 11038 21148 38747 48424 57004 333 91110 91204;
0137067820999992010010410004+46700+008850FM-12+118099999V0200501N001019999999N9999999N1-00301-01481999999ADDMA1999999087441MD1710051+9999ME1314229OA149900511REMSYN076AAXX  04104 06782 33/// /0502 11030 21148 38744 48422 57005 333 91110 91202;
0137067820999992010010411004+46700+008850FM-12+118099999V0201501N000519999999N9999999N1-00271-01421999999ADDMA1999999087371MD1710121+9999ME1314169OA149900411REMSYN076AAXX  04114 06782 33/// /1501 11027 21142 38737 48416 57012 333 91108 91202;
0137067820999992010010412004+46700+008850FM-12+118099999V0201601N000519999999N9999999N1-00251-01361999999ADDMA1999999087321MD1710151+9999ME1314129OA149900571REMSYN076AAXX  04124 06782 33/// /1601 11025 21136 38732 48412 57015 333 91111 91204;
0137067820999992010010413004+46700+008850FM-12+118099999V0201901N001019999999N9999999N1-00221-01421999999ADDMA1999999087261MD1610181+9999ME1314079OA149900571REMSYN076AAXX  04134 06782 33/// /1902 11022 21142 38726 48407 56018 333 91111 91203;
0137067820999992010010414004+46700+008850FM-12+118099999V0202001N001019999999N9999999N1-00271-01281999999ADDMA1999999087231MD1619999+9999ME1314049OA149900511REMSYN076AAXX  04144 06782 33/// /2002 11027 21128 38723 48404 56/// 333 91110 91202;
0137067820999992010010415004+46700+008850FM-12+118099999V0202201N000519999999N9999999N1-00261-01191999999ADDMA1999999087221MD1610101+9999ME1314039OA149900571REMSYN076AAXX  04154 06782 33/// /2201 11026 21119 38722 48403 56010 333 91111 91203;
0137067820999992010010416004+46700+008850FM-12+118099999V0209999C000019999999N9999999N1-00311-01241999999ADDMA1999999087231MD1510031+9999ME1314039OA149900361REMSYN076AAXX  04164 06782 33/// /0000 11031 21124 38723 48403 55003 333 91107 91202;
0137067820999992010010417004+46700+008850FM-12+118099999V0202601N000519999999N9999999N1-00331-01191999999ADDMA1999999087231MD1410001+9999ME1314039OA149900311REMSYN076AAXX  04174 06782 33/// /2601 11033 21119 38723 48403 54000 333 91106 91201;
0156067820999992010010418004+46700+008850FM-12+118099999V0202701N000519999999N9999999N1-00381-00891999999ADDKA1120M-00191MA1999999087211MD1710011+9999ME1314019OA149900571REMSYN082AAXX  04184 06782 33/// /2701 11038 21089 38721 48401 57001 333 11019 91111 91204;
0137067820999992010010419004+46700+008850FM-12+118099999V0202701N001019999999N9999999N1-00411-00791999999ADDMA1999999087211MD1710021+9999ME1314019OA149900151REMSYN076AAXX  04194 06782 33/// /2702 11041 21079 38721 48401 57002 333 91103 91202;
0137067820999992010010420004+46700+008850FM-12+118099999V0202401N000519999999N9999999N1-00421-00791999999ADDMA1999999087181MD1710051+9999ME1313989OA149900151REMSYN076AAXX  04204 06782 33/// /2401 11042 21079 38718 48398 57005 333 91103 91202;
0137067820999992010010421004+46700+008850FM-12+118099999V0202501N000519999999N9999999N1-00441-00781999999ADDMA1999999087161MD1710051+9999ME1313969OA149900311REMSYN076AAXX  04214 06782 33/// /2501 11044 21078 38716 48396 57005 333 91106 91202;
0137067820999992010010422004+46700+008850FM-12+118099999V0209999C000019999999N9999999N1-00471-00781999999ADDMA1999999087151MD1610061+9999ME1313959OA149900211REMSYN076AAXX  04224 06782 33/// /0000 11047 21078 38715 48395 56006 333 91104 91202;
0137067820999992010010423004+46700+008850FM-12+118099999V0202301N000519999999N9999999N1-00491-00841999999ADDMA1999999087121MD1810061+9999ME1313929OA149900211REMSYN076AAXX  04234 06782 33/// /2301 11049 21084 38712 48392 58006 333 91104 91202;
0137067820999992010010500004+46700+008850FM-12+118099999V0203001N000519999999N9999999N1-00481-00911999999ADDMA1999999087051MD1810111+9999ME1313869OA149900511REMSYN076AAXX  05004 06782 33/// /3001 11048 21091 38705 48386 58011 333 91110 91202;
0137067820999992010010501004+46700+008850FM-12+118099999V0202601N001519999999N9999999N1-00481-00961999999ADDMA1999999086991MD1810161+9999ME1313809OA149900261REMSYN076AAXX  05014 06782 33/// /2603 11048 21096 38699 48380 58016 333 91105 91203;
0137067820999992010010502004+46700+008850FM-12+118099999V0201001N000519999999N9999999N1-00621-01001999999ADDMA1999999086951MD1610171+9999ME1313769OA149900261REMSYN076AAXX  05024 06782 33/// /1001 11062 21100 38695 48376 56017 333 91105 91203;
0137067820999992010010503004+46700+008850FM-12+118099999V0200201N000519999999N9999999N1-00581-01021999999ADDMA1999999086911MD1610141+9999ME1313729OA149900261REMSYN076AAXX  05034 06782 33/// /0201 11058 21102 38691 48372 56014 333 91105 91203;
0137067820999992010010504004+46700+008850FM-12+118099999V0203401N000519999999N9999999N1-00631-01011999999ADDMA1999999086871MD1810121+9999ME1313689OA149900151REMSYN076AAXX  05044 06782 33/// /3401 11063 21101 38687 48368 58012 333 91103 91201;
0137067820999992010010505004+46700+008850FM-12+118099999V0209999C000019999999N9999999N1-00671-01031999999ADDMA1999999086841MD1610111+9999ME1313669OA149900151REMSYN076AAXX  05054 06782 33/// /0000 11067 21103 38684 48366 56011 333 91103 91201;
0220067820999992010010506004+46700+008850FM-12+118099999V0203101N001019999999N9999999N1-00681-01041999999ADDAA124000091AL19900091IA2999-01109KA1999N-00701MA1999999086801MD1610111+9999ME1313629OA149900261REMSYN094AAXX  05064 06782 33/// /3102 11068 21104 38680 48362 56011 333 21070 3/111 70000 91105 91203;EQDQ01  00002PRCP24
0137067820999992010010507004+46700+008850FM-12+118099999V0209999C000019999999N9999999N1-00711-01071999999ADDMA1999999086761MD1810111+9999ME1313589OA149900151REMSYN076AAXX  05074 06782 33/// /0000 11071 21107 38676 48358 58011 333 91103 91202;
0137067820999992010010508004+46700+008850FM-12+118099999V0203201N001019999999N9999999N1-00571-01081999999ADDMA1999999086731MD1610111+9999ME1313569OA149900151REMSYN076AAXX  05084 06782 33/// /3202 11057 21108 38673 48356 56011 333 91103 91202;
0137067820999992010010509004+46700+008850FM-12+118099999V0209999C000519999999N9999999N1-00591-01231999999ADDMA1999999086691MD1610111+9999ME1313539OA149900151REMSYN076AAXX  05094 06782 33/// /0001 11059 21123 38669 48353 56011 333 91103 91202;
0137067820999992010010510004+46700+008850FM-12+118099999V0202201N000519999999N9999999N1-00411-01071999999ADDMA1999999086651MD1810111+9999ME1313509OA149900211REMSYN076AAXX  05104 06782 33/// /2201 11041 21107 38665 48350 58011 333 91104 91202;
0137067820999992010010511004+46700+008850FM-12+118099999V0209999C000019999999N9999999N1-00331-01001999999ADDMA1999999086561MD1810171+9999ME1313429OA149900211REMSYN076AAXX  05114 06782 33/// /0000 11033 21100 38656 48342 58017 333 91104 91202;
0137067820999992010010512004+46700+008850FM-12+118099999V0209999C000019999999N9999999N1-00141-00951999999ADDMA1999999086451MD1810241+9999ME1313339OA149900261REMSYN076AAXX  05124 06782 33/// /0000 11014 21095 38645 48333 58024 333 91105 91203;
0137067820999992010010513004+46700+008850FM-12+118099999V0209999C000019999999N9999999N1+00011-00891999999ADDMA1999999086401MD1610251+9999ME1313299OA149900151REMSYN076AAXX  05134 06782 33/// /0000 10001 21089 38640 48329 56025 333 91103 91201;
0096067820999992010010514004+46700+008850FM-12+118099999V0200101N000519999999N9999999N1+00011-00941999999ADDMA1999999086351ME1313259REMSYN060AAXX  05144 06782 33/// /0101 10001 21094 38635 48325 5////;
0137067820999992010010515004+46700+008850FM-12+118099999V0203501N000519999999N9999999N1+00001-00981999999ADDMA1999999086361MD1710091+9999ME1313269OA149900361REMSYN076AAXX  05154 06782 33/// /3501 10000 21098 38636 48326 57009 333 91107 91202;
0137067820999992010010516004+46700+008850FM-12+118099999V0203201N000519999999N9999999N1-00101-01011999999ADDMA1999999086351MD1710051+9999ME1313249OA149900361REMSYN076AAXX  05164 06782 33/// /3201 11010 21101 38635 48324 57005 333 91107 91202;
0137067820999992010010517004+46700+008850FM-12+118099999V0202301N000519999999N9999999N1-00231-01011999999ADDMA1999999086361MD1510011+9999ME1313249OA149900361REMSYN076AAXX  05174 06782 33/// /2301 11023 21101 38636 48324 55001 333 91107 91202;
0156067820999992010010518004+46700+008850FM-12+118099999V0202401N000519999999N9999999N1-00361-00971999999ADDKA1120M+00061MA1999999086341MD1710021+9999ME1313229OA149900361REMSYN082AAXX  05184 06782 33/// /2401 11036 21097 38634 48322 57002 333 10006 91107 91202;
0137067820999992010010519004+46700+008850FM-12+118099999V0209999C000019999999N9999999N1-00371-00951999999ADDMA1999999086311MD1810041+9999ME1313199OA149900101REMSYN076AAXX  05194 06782 33/// /0000 11037 21095 38631 48319 58004 333 91102 91201;
0137067820999992010010520004+46700+008850FM-12+118099999V0202701N000519999999N9999999N1-00331-00971999999ADDMA1999999086271MD1710091+9999ME1313169OA149900151REMSYN076AAXX  05204 06782 33/// /2701 11033 21097 38627 48316 57009 333 91103 91201;
0137067820999992010010521004+46700+008850FM-12+118099999V0202701N001019999999N9999999N1-00481-01091999999ADDMA1999999086251MD1610091+9999ME1313139OA149900361REMSYN076AAXX  05214 06782 33/// /2702 11048 21109 38625 48313 56009 333 91107 91202;
0137067820999992010010522004+46700+008850FM-12+118099999V0209999C000019999999N9999999N1-00401-01021999999ADDMA1999999086221MD1610091+9999ME1313119OA149900261REMSYN076AAXX  05224 06782 33/// /0000 11040 21102 38622 48311 56009 333 91105 91202;
0137067820999992010010523004+46700+008850FM-12+118099999V0203001N000519999999N9999999N1-00311-01041999999ADDMA1999999086181MD1710091+9999ME1313089OA149900151REMSYN076AAXX  05234 06782 33/// /3001 11031 21104 38618 48308 57009 333 91103 91202;
0137067820999992010010600004+46700+008850FM-12+118099999V0202301N000519999999N9999999N1-00411-01041999999ADDMA1999999086161MD1710091+9999ME1313059OA149900361REMSYN076AAXX  06004 06782 33/// /2301 11041 21104 38616 48305 57009 333 91107 91202;
0137067820999992010010601004+46700+008850FM-12+118099999V0209999C000019999999N9999999N1-00441-01071999999ADDMA1999999086151MD1710071+9999ME1313049OA149900151REMSYN076AAXX  06014 06782 33/// /0000 11044 21107 38615 48304 57007 333 91103 91202;
0137067820999992010010602004+46700+008850FM-12+118099999V0203601N000519999999N9999999N1-00461-01041999999ADDMA1999999086181MD1510001+9999ME1313079OA149900151REMSYN076AAXX  06024 06782 33/// /3601 11046 21104 38618 48307 55000 333 91103 91202;
0137067820999992010010603004+46700+008850FM-12+118099999V0200301N000519999999N9999999N1-00511-01071999999ADDMA1999999086171MD1210011+9999ME1313069OA149900151REMSYN076AAXX  06034 06782 33/// /0301 11051 21107 38617 48306 52001 333 91103 91202;
0137067820999992010010604004+46700+008850FM-12+118099999V0202601N000519999999N9999999N1-00491-01101999999ADDMA1999999086141MD1010011+9999ME1313039OA149900151REMSYN076AAXX  06044 06782 33/// /2601 11049 21110 38614 48303 50001 333 91103 91201;
0137067820999992010010605004+46700+008850FM-12+118099999V0200201N000519999999N9999999N1-00431-01041999999ADDMA1999999086141MD1710041+9999ME1313039OA149900151REMSYN076AAXX  06054 06782 33/// /0201 11043 21104 38614 48303 57004 333 91103 91202;
0234067820999992010010606004+46700+008850FM-12+118099999V0203401N000519999999N9999999N1-00431-01061999999ADDAA124000091AL19900091GJ102169IA2999-01009KA1999N-00541MA1999999086131MD1710041+9999ME1313039OA149900261REMSYN100AAXX  06064 06782 33/// /3401 11043 21106 38613 48303 57004 333 21054 3/110 55036 70000 91105 91202;EQDQ01  00002PRCP24
0137067820999992010010607004+46700+008850FM-12+118099999V0202801N000519999999N9999999N1-00431-01091999999ADDMA1999999086161MD1210021+9999ME1313059OA149900151REMSYN076AAXX  06074 06782 33/// /2801 11043 21109 38616 48305 52002 333 91103 91202;
0137067820999992010010608004+46700+008850FM-12+118099999V0203201N000519999999N9999999N1-00541-01051999999ADDMA1999999086181MD1210041+9999ME1313079OA149900151REMSYN076AAXX  06084 06782 33/// /3201 11054 21105 38618 48307 52004 333 91103 91201;
0137067820999992010010609004+46700+008850FM-12+118099999V0202401N000519999999N9999999N1-00521-01241999999ADDMA1999999086241MD1210111+9999ME1313129OA149900151REMSYN076AAXX  06094 06782 33/// /2401 11052 21124 38624 48312 52011 333 91103 91202;
0137067820999992010010610004+46700+008850FM-12+118099999V0201301N000519999999N9999999N1-00481-01151999999ADDMA1999999086281MD1310121+9999ME1313169OA149900151REMSYN076AAXX  06104 06782 33/// /1301 11048 21115 38628 48316 53012 333 91103 91202;
0137067820999992010010611004+46700+008850FM-12+118099999V0201901N000519999999N9999999N1-00391-01051999999ADDMA1999999086251MD1019999+9999ME1313149OA149900151REMSYN076AAXX  06114 06782 33/// /1901 11039 21105 38625 48314 50/// 333 91103 91202;
0137067820999992010010612004+46700+008850FM-12+118099999V0201401N000519999999N9999999N1-00351-01001999999ADDMA1999999086231MD1810011+9999ME1313129OA149900211REMSYN076AAXX  06124 06782 33/// /1401 11035 21100 38623 48312 58001 333 91104 91202;
0137067820999992010010613004+46700+008850FM-12+118099999V0209999C000019999999N9999999N1-00321-00951999999ADDMA1999999086221MD1610061+9999ME1313119OA149900211REMSYN076AAXX  06134 06782 33/// /0000 11032 21095 38622 48311 56006 333 91104 91202;
0137067820999992010010614004+46700+008850FM-12+118099999V0209999C000019999999N9999999N1-00291-00991999999ADDMA1999999086231MD1719999+9999ME1313129OA149900211REMSYN076AAXX  06144 06782 33/// /0000 11029 21099 38623 48312 57/// 333 91104 91202;
0137067820999992010010615004+46700+008850FM-12+118099999V0201501N000519999999N9999999N1-00391-00951999999ADDMA1999999086281MD1319999+9999ME1313169OA149900211REMSYN076AAXX  06154 06782 33/// /1501 11039 21095 38628 48316 53/// 333 91104 91202;
0137067820999992010010616004+46700+008850FM-12+118099999V0200901N001519999999N9999999N1-00531-00821999999ADDMA1999999086351MD1210131+9999ME1313229OA149900311REMSYN076AAXX  06164 06782 33/// /0903 11053 21082 38635 48322 52013 333 91106 91203;
0137067820999992010010617004+46700+008850FM-12+118099999V0201101N000519999999N9999999N1-00681-00761999999ADDMA1999999086421MD1310191+9999ME1313289OA149900311REMSYN076AAXX  06174 06782 33/// /1101 11068 21076 38642 48328 53019 333 91106 91203;
0156067820999992010010618004+46700+008850FM-12+118099999V0200801N000519999999N9999999N1-00671-00711999999ADDKA1120M-00281MA1999999086481MD1319999+9999ME1313339OA149900311REMSYN082AAXX  06184 06782 33/// /0801 11067 21071 38648 48333 53/// 333 11028 91106 91203;
0137067820999992010010619004+46700+008850FM-12+118099999V0202501N000519999999N9999999N1-00651-00751999999ADDMA1999999086521MD1110171+9999ME1313379OA149900151REMSYN076AAXX  06194 06782 33/// /2501 11065 21075 38652 48337 51017 333 91103 91202;
0137067820999992010010620004+46700+008850FM-12+118099999V0202401N000519999999N9999999N1-00621-00861999999ADDMA1999999086541MD1110121+9999ME1313399OA149900151REMSYN076AAXX  06204 06782 33/// /2401 11062 21086 38654 48339 51012 333 91103 91201;
0179067820999992010010621004+46700+008850FM-12+118099999V0209999C000012200019N0100001N1-00641-00891999999ADDGA1001+999999999GF100991001001999999001001MA1999999086561MD1110081+9999ME1313419OA149900311REMSYN076AAXX  06214 06782 32/60 00000 11064 21089 38656 48341 51008 333 91106 91203;
0137067820999992010010622004+46700+008850FM-12+118099999V0202001N000519999999N9999999N1-00661-00891999999ADDMA1999999086571MD1110051+9999ME1313419OA149900261REMSYN076AAXX  06224 06782 33/// /2001 11066 21089 38657 48341 51005 333 91105 91202;
0137067820999992010010623004+46700+008850FM-12+118099999V0200301N000519999999N9999999N1-00671-00871999999ADDMA1999999086561MD1010021+9999ME1313409OA149900261REMSYN076AAXX  06234 06782 33/// /0301 11067 21087 38656 48340 50002 333 91105 91202;
0230067820999992010010700004+46700+008850FM-12+118099999V0202201N000510006019N0009001N1-00681-00801999999ADDAA106000591AY171061AY211061GA1091+999999999GF109991091999999999999999MA1999999086571MD1010011+9999ME1313419MW1721OA149900311REMSYN094AAXX  07004 06782 01/09 92201 11068 21080 38657 48341 50001 69941 77271 333 69945 91106 91203;
0154067820999992010010701004+46700+008850FM-12+118099999V0202701N000519999999N9999999N1-00701-00821999999ADDAA101001091MA1999999086601MD1310031+9999ME1313449OA149900151REMSYN082AAXX  07014 06782 23/// /2701 11070 21082 38660 48344 53003 333 69995 91103 91201;
0154067820999992010010702004+46700+008850FM-12+118099999V0209999C000019999999N9999999N1-00681-00771999999ADDAA101001091MA1999999086651MD1319999+9999ME1313489OA149900151REMSYN082AAXX  07024 06782 23/// /0000 11068 21077 38665 48348 53/// 333 60015 91103 91201;
0185067820999992010010703004+46700+008850FM-12+118099999V0203101N000512200019N0100001N1-00721-00881999999ADDGA1001+999999999GF100991001001999999001001MA1999999086671MD1310101+9999ME1313509OA149900261REMSYN082AAXX  07034 06782 31/60 03101 11072 21088 38667 48350 53010 7//71 333 91105 91202;
0137067820999992010010704004+46700+008850FM-12+118099999V0209999C000019999999N9999999N1-00711-00971999999ADDMA1999999086721MD1310121+9999ME1313559OA149900101REMSYN076AAXX  07044 06782 33/// /0000 11071 21097 38672 48355 53012 333 91102 91201;
0137067820999992010010705004+46700+008850FM-12+118099999V0209999C000019999999N9999999N1-00691-00891999999ADDMA1999999086761MD1210111+9999ME1313589OA149900101REMSYN076AAXX  07054 06782 33/// /0000 11069 21089 38676 48358 52011 333 91102 91201;
0238067820999992010010706004+46700+008850FM-12+118099999V0202901N000519999999N9999999N1-00651-00841999999ADDAA112003092AA224002592AL13000291GJ102529IA2999-01209KA1999N-00801MA1999999086811MD1210141+9999ME1313639OA149900261REMSYN112AAXX  07064 06782 03/// /2901 11065 21084 38681 48363 52014 60032 333 21080 3/112 55042 60005 70025 91105 91202;
0137067820999992010010707004+46700+008850FM-12+118099999V0200401N000519999999N9999999N1-00641-00851999999ADDMA1999999086861MD1210141+9999ME1313689OA149900101REMSYN076AAXX  07074 06782 33/// /0401 11064 21085 38686 48368 52014 333 91102 91201;
0137067820999992010010708004+46700+008850FM-12+118099999V0202601N000519999999N9999999N1-00741-01091999999ADDMA1999999086931MD1319999+9999ME1313739OA149900151REMSYN076AAXX  07084 06782 33/// /2601 11074 21109 38693 48373 53/// 333 91103 91201;
0137067820999992010010709004+46700+008850FM-12+118099999V0209999C000019999999N9999999N1-00841-01171999999ADDMA1999999086971MD1110161+9999ME1313769OA149900211REMSYN076AAXX  07094 06782 33/// /0000 11084 21117 38697 48376 51016 333 91104 91202;
0137067820999992010010710004+46700+008850FM-12+118099999V0201601N000519999999N9999999N1-00711-01141999999ADDMA1999999087011MD1110151+9999ME1313809OA149900261REMSYN076AAXX  07104 06782 33/// /1601 11071 21114 38701 48380 51015 333 91105 91202;
0137067820999992010010711004+46700+008850FM-12+118099999V0209999C000019999999N9999999N1-00561-01091999999ADDMA1999999086981MD1010051+9999ME1313799OA149900261REMSYN076AAXX  07114 06782 33/// /0000 11056 21109 38698 48379 50005 333 91105 91202;
0229067820999992010010712004+46700+008850FM-12+118099999V0201501N001012200019N0100001N1-00451-00991999999ADDGA1021+011101001GA2021+014101001GA3021+015001001GF102991999999012501999999MA1999999086911MD1810061+9999ME1313739OA149900261REMSYN094AAXX  07124 06782 32660 21502 11045 21099 38691 48373 58006 333 82037 82047 82050 91105 91202;
0137067820999992010010713004+46700+008850FM-12+118099999V0201101N000519999999N9999999N1-00461-00951999999ADDMA1999999086901MD1710111+9999ME1313729OA149900211REMSYN076AAXX  07134 06782 33/// /1101 11046 21095 38690 48372 57011 333 91104 91202;
0096067820999992010010715004+46700+008850FM-12+118099999V0203201N000519999999N9999999N1-00341-00911999999ADDMA1999999086941ME1313779REMSYN060AAXX  07154 06782 43/// /3201 11034 21091 38694 48377 5////;
0137067820999992010010716004+46700+008850FM-12+118099999V0202901N000519999999N9999999N1-00341-01011999999ADDMA1999999086991MD1210091+9999ME1313819OA149900361REMSYN076AAXX  07164 06782 33/// /2901 11034 21101 38699 48381 52009 333 91107 91202;
0137067820999992010010717004+46700+008850FM-12+118099999V0202601N000519999999N9999999N1-00301-01001999999ADDMA1999999087031MD1119999+9999ME1313859OA149900361REMSYN076AAXX  07174 06782 33/// /2601 11030 21100 38703 48385 51/// 333 91107 91202;
0255067820999992010010718004+46700+008850FM-12+118099999V0203201N000510111019N0100001N1-00381-01061999999ADDAJ100359199999999AL19900091GA1081+011101061GF108991999999012501999999IA1239KA1120M-00291MA1999999087061MD1119999+9999ME1313879OA149900511REMSYN106AAXX  07184 06782 32660 83201 11038 21106 38706 48387 51/// 333 11029 47035 88637 90766 93100 91110 91202;
0137067820999992010010719004+46700+008850FM-12+118099999V0203001N000519999999N9999999N1-00421-00961999999ADDMA1999999087081MD1110091+9999ME1313899OA149900511REMSYN076AAXX  07194 06782 33/// /3001 11042 21096 38708 48389 51009 333 91110 91202;
0137067820999992010010720004+46700+008850FM-12+118099999V0202501N001019999999N9999999N1-00491-00921999999ADDMA1999999087081MD1210051+9999ME1313889OA149900261REMSYN076AAXX  07204 06782 33/// /2502 11049 21092 38708 48388 52005 333 91105 91202;
0213067820999992010010721004+46700+008850FM-12+118099999V0209999C000510111019N0080001N1-00401-00971999999ADDAY121031AY221031GA1081+011101071GF108991999999012501999999MA1999999087091MD1210031+9999ME1313909MW1101OA149900511REMSYN088AAXX  07214 06782 31658 80001 11040 21097 38709 48390 52003 71022 333 88737 91110 91202;
0137067820999992010010722004+46700+008850FM-12+118099999V0203001N000519999999N9999999N1-00261-00831999999ADDMA1999999087081MD1410001+9999ME1313909OA149900261REMSYN076AAXX  07224 06782 33/// /3001 11026 21083 38708 48390 57000 333 91105 91202;
0137067820999992010010723004+46700+008850FM-12+118099999V0202201N000519999999N9999999N1-00331-00721999999ADDMA1999999087071MD1710011+9999ME1313899OA149900261REMSYN076AAXX  07234 06782 33/// /2201 11033 21072 38707 48389 57001 333 91105 91202;
0213067820999992010010800004+46700+008850FM-12+118099999V0202301N000510111019N0050001N1-00381-00731999999ADDAY171061AY221061GA1081+011101071GF108991999999012501999999MA1999999087021MD1710071+9999ME1313849MW1731OA149900511REMSYN088AAXX  08004 06782 31650 82301 11038 21073 38702 48384 57007 77372 333 88737 91110 91202;
0137067820999992010010801004+46700+008850FM-12+118099999V0200201N000519999999N9999999N1-00431-00671999999ADDMA1999999086961MD1810121+9999ME1313789OA149900151REMSYN076AAXX  08014 06782 33/// /0201 11043 21067 38696 48378 58012 333 91103 91201;
0154067820999992010010802004+46700+008850FM-12+118099999V0200801N000519999999N9999999N1-00481-00591999999ADDAA101000021MA1999999086951MD1619999+9999ME1313779OA149900151REMSYN082AAXX  08024 06782 23/// /0801 11048 21059 38695 48377 56/// 333 69915 91103 91201;
0224067820999992010010803004+46700+008850FM-12+118099999V0209999C000010006019N0009001N1-00511-00581999999ADDAA101000591AY171031AY221031GA1091+999999999GF109991091999999999999999MA1999999086911MD1719999+9999ME1313739MW1731OA149900261REMSYN088AAXX  08034 06782 21/09 90000 11051 21058 38691 48373 57/// 77372 333 69955 91105 91202;
0154067820999992010010804004+46700+008850FM-12+118099999V0209999C000019999999N9999999N1-00511-00551999999ADDAA101000891MA1999999086861MD1710101+9999ME1313689OA149900051REMSYN082AAXX  08044 06782 23/// /0000 11051 21055 38686 48368 57010 333 69985 91101 91201;
0154067820999992010010805004+46700+008850FM-12+118099999V0209999C000019999999N9999999N1-00511-00541999999ADDAA101000891MA1999999086821MD1710131+9999ME1313659OA149900051REMSYN082AAXX  08054 06782 23/// /0000 11051 21054 38682 48365 57013 333 69975 91101 91201;
0238067820999992010010806004+46700+008850FM-12+118099999V0202001N000519999999N9999999N1-00611-00661999999ADDAA112003092AA224002892AL14800291GJ101929IA2999-00709KA1999N-00591MA1999999086811MD1610101+9999ME1313639OA149900261REMSYN112AAXX  08064 06782 03/// /2001 11061 21066 38681 48363 56010 60032 333 21059 3/107 55032 60015 70028 91105 91202;
0154067820999992010010807004+46700+008850FM-12+118099999V0209999C000019999999N9999999N1-00621-00661999999ADDAA101000891MA1999999086791MD1710071+9999ME1313619OA149900101REMSYN082AAXX  08074 06782 23/// /0000 11062 21066 38679 48361 57007 333 69985 91102 91201;
0154067820999992010010808004+46700+008850FM-12+118099999V0202001N000519999999N9999999N1-00611-00681999999ADDAA101000591MA1999999086781MD1710041+9999ME1313619OA149900101REMSYN082AAXX  08084 06782 23/// /2001 11061 21068 38678 48361 57004 333 69965 91102 91201;
0154067820999992010010809004+46700+008850FM-12+118099999V0209999C000019999999N9999999N1-00541-00641999999ADDAA101000591MA1999999086721MD1710091+9999ME1313569OA149900101REMSYN082AAXX  08094 06782 23/// /0000 11054 21064 38672 48356 57009 333 69965 91102 91201;
0154067820999992010010810004+46700+008850FM-12+118099999V0209999C000019999999N9999999N1-00481-00581999999ADDAA101000021MA1999999086641MD1810151+9999ME1313499OA149900051REMSYN082AAXX  08104 06782 23/// /0000 11048 21058 38664 48349 58015 333 69925 91101 91201;
0154067820999992010010811004+46700+008850FM-12+118099999V0209999C000019999999N9999999N1-00421-00521999999ADDAA101000591MA1999999086551MD1810231+9999ME1313419OA149900051REMSYN082AAXX  08114 06782 23/// /0000 11042 21052 38655 48341 58023 333 69945 91101 91200;
0230067820999992010010812004+46700+008850FM-12+118099999V0209999C000010003019N0004001N1-00431-00471999999ADDAA106003091AY131061AY231061GA1091+999999999GF109991091999999999999999MA1999999086451MD1810271+9999ME1313329MW1751OA149900151REMSYN094AAXX  08124 06782 01/04 90000 11043 21047 38645 48332 58027 60031 77533 333 69945 91103 91201;
0154067820999992010010813004+46700+008850FM-12+118099999V0209999C000019999999N9999999N1-00381-00461999999ADDAA101000021MA1999999086371MD1610271+9999ME1313259OA149900051REMSYN082AAXX  08134 06782 23/// /0000 11038 21046 38637 48325 56027 333 69925 91101 91200;
0154067820999992010010814004+46700+008850FM-12+118099999V0209999C000019999999N9999999N1-00371-00441999999ADDAA101000391MA1999999086331MD1619999+9999ME1313219OA149900051REMSYN082AAXX  08144 06782 23/// /0000 11037 21044 38633 48321 56/// 333 69935 91101 91200;
0154067820999992010010815004+46700+008850FM-12+118099999V0209999C000019999999N9999999N1-00431-00481999999ADDAA101000021MA1999999086331MD1710121+9999ME1313219OA149900101REMSYN082AAXX  08154 06782 23/// /0000 11043 21048 38633 48321 57012 333 69925 91102 91201;
0173067820999992010010816004+46700+008850FM-12+118099999V0201001N000519999999N9999999N1-00501-00531999999ADDAA101000391MA1999999086371MD1410001+9999ME1313249OA149900151REMSYN082AAXX  08164 06782 23/// /1001 11050 21053 38637 48324 53000 333 69935 91103 91201;EQDQ01+000032APCTEN
0154067820999992010010817004+46700+008850FM-12+118099999V0201201N000519999999N9999999N1-00521-00551999999ADDAA101001091MA1999999086391MD1319999+9999ME1313269OA149900151REMSYN082AAXX  08174 06782 23/// /1201 11052 21055 38639 48326 53/// 333 60015 91103 91201;
0300067820999992010010818004+46700+008850FM-12+118099999V0201001N000510006019N0009001N1-00571-00621999999ADDAA112006191AJ100509199999999AL11202091AY171061AY221061GA1091+999999999GF109991091999999999999999IA1239KA1120M-00371MA1999999086411MD1110081+9999ME1313279MW1731OA149900151REMSYN118AAXX  08184 06782 01/09 91001 11057 21062 38641 48327 51008 60062 77372 333 11037 47050 60015 90766 93120 91103 91201;
0154067820999992010010819004+46700+008850FM-12+118099999V0200801N001519999999N9999999N1-00591-00691999999ADDAA101000891MA1999999086461MD1310091+9999ME1313329OA149900261REMSYN082AAXX  08194 06782 23/// /0803 11059 21069 38646 48332 53009 333 69975 91105 91203;
0154067820999992010010820004+46700+008850FM-12+118099999V0200801N001019999999N9999999N1-00631-00701999999ADDAA101000591MA1999999086481MD1310091+9999ME1313339OA149900261REMSYN082AAXX  08204 06782 23/// /0802 11063 21070 38648 48333 53009 333 69945 91105 91203;
0224067820999992010010821004+46700+008850FM-12+118099999V0200701N000510006019N0009001N1-00651-00721999999ADDAA101000391AY171031AY221031GA1091+999999999GF109991091999999999999999MA1999999086521MD1110111+9999ME1313379MW1731OA149900261REMSYN088AAXX  08214 06782 21/09 90701 11065 21072 38652 48337 51011 77372 333 69935 91105 91203;
0154067820999992010010822004+46700+008850FM-12+118099999V0209999C000019999999N9999999N1-00641-00701999999ADDAA101000391MA1999999086521MD1210061+9999ME1313379OA149900211REMSYN082AAXX  08224 06782 23/// /0000 11064 21070 38652 48337 52006 333 69935 91104 91202;
0154067820999992010010823004+46700+008850FM-12+118099999V0209999C000019999999N9999999N1-00661-00701999999ADDAA101000021MA1999999086521MD1210041+9999ME1313379OA149900101REMSYN082AAXX  08234 06782 23/// /0000 11066 21070 38652 48337 52004 333 69925 91102 91200;
0230067820999992010010900004+46700+008850FM-12+118099999V0209999C000010006019N0009001N1-00651-00701999999ADDAA106002091AY171061AY221061GA1091+999999999GF109991091999999999999999MA1999999086481MD1810041+9999ME1313339MW1731OA149900261REMSYN094AAXX  09004 06782 01/09 90000 11065 21070 38648 48333 58004 60021 77372 333 60005 91105 91203;
0137067820999992010010901004+46700+008850FM-12+118099999V0209999C000019999999N9999999N1-00751-00791999999ADDMA1999999086471MD1710051+9999ME1313329OA149900101REMSYN076AAXX  09014 06782 33/// /0000 11075 21079 38647 48332 57005 333 91102 91201;
0137067820999992010010902004+46700+008850FM-12+118099999V0209999C000019999999N9999999N1-00721-00721999999ADDMA1999999086551MD1319999+9999ME1313399OA149900101REMSYN076AAXX  09024 06782 33/// /0000 11072 21072 38655 48339 53/// 333 91102 91201;
0213067820999992010010903004+46700+008850FM-12+118099999V0209999C000010099019N0080001N1-00721-00721999999ADDAY171031AY221031GA1081+009901071GF108991999999008001999999MA1999999086531MD1219999+9999ME1313379MW1051OA149900101REMSYN088AAXX  09034 06782 31558 80000 11072 21072 38653 48337 52/// 70572 333 88733 91102 91201;
0137067820999992010010904004+46700+008850FM-12+118099999V0202701N000519999999N9999999N1-00691-00781999999ADDMA1999999086481MD1810011+9999ME1313339OA149900101REMSYN076AAXX  09044 06782 33/// /2701 11069 21078 38648 48333 58001 333 91102 91201;
0137067820999992010010905004+46700+008850FM-12+118099999V0209999C000019999999N9999999N1-00751-00771999999ADDMA1999999086451MD1710101+9999ME1313309OA149900151REMSYN076AAXX  09054 06782 33/// /0000 11075 21077 38645 48330 57010 333 91103 91201;
0238067820999992010010906004+46700+008850FM-12+118099999V0202001N000519999999N9999999N1-00741-00831999999ADDAA112002091AA224008491AL13000891GJ100009IA2999-00409KA1999N-00771MA1999999086351MD1710181+9999ME1313219OA149900261REMSYN112AAXX  09064 06782 03/// /2001 11074 21083 38635 48321 57018 60022 333 21077 3/104 55000 60005 70085 91105 91203;
0137067820999992010010907004+46700+008850FM-12+118099999V0209999C000019999999N9999999N1-00781-00831999999ADDMA1999999086381MD1710101+9999ME1313249OA149900151REMSYN076AAXX  09074 06782 33/// /0000 11078 21083 38638 48324 57010 333 91103 91201;
0137067820999992010010908004+46700+008850FM-12+118099999V0209999C000019999999N9999999N1-00781-00881999999ADDMA1999999086411MD1510041+9999ME1313269OA149900151REMSYN076AAXX  09084 06782 33/// /0000 11078 21088 38641 48326 55004 333 91103 91201;
0137067820999992010010909004+46700+008850FM-12+118099999V0209999C000019999999N9999999N1-00751-00831999999ADDMA1999999086421MD1210071+9999ME1313279OA149900151REMSYN076AAXX  09094 06782 33/// /0000 11075 21083 38642 48327 52007 333 91103 91201;
0137067820999992010010910004+46700+008850FM-12+118099999V0201801N000519999999N9999999N1-00731-00831999999ADDMA1999999086351MD1810031+9999ME1313219OA149900101REMSYN076AAXX  09104 06782 33/// /1801 11073 21083 38635 48321 58003 333 91102 91201;
0137067820999992010010911004+46700+008850FM-12+118099999V0200801N001519999999N9999999N1-00691-00811999999ADDMA1999999086351MD1710061+9999ME1313219OA149900311REMSYN076AAXX  09114 06782 33/// /0803 11069 21081 38635 48321 57006 333 91106 91203;
0137067820999992010010912004+46700+008850FM-12+118099999V0209999C000019999999N9999999N1-00701-00841999999ADDMA1999999086281MD1710141+9999ME1313159OA149900311REMSYN076AAXX  09124 06782 33/// /0000 11070 21084 38628 48315 57014 333 91106 91203;
0137067820999992010010913004+46700+008850FM-12+118099999V0200701N001519999999N9999999N1-00681-00861999999ADDMA1999999086181MD1710171+9999ME1313069OA149900311REMSYN076AAXX  09134 06782 33/// /0703 11068 21086 38618 48306 57017 333 91106 91203;
0137067820999992010010914004+46700+008850FM-12+118099999V0200801N001519999999N9999999N1-00681-00861999999ADDMA1999999086231MD1510121+9999ME1313119OA149900361REMSYN076AAXX  09144 06782 33/// /0803 11068 21086 38623 48311 55012 333 91107 91203;
0137067820999992010010915004+46700+008850FM-12+118099999V0200401N000519999999N9999999N1-00701-00771999999ADDMA1999999086321MD1310041+9999ME1313199OA149900361REMSYN076AAXX  09154 06782 33/// /0401 11070 21077 38632 48319 53004 333 91107 91203;
0137067820999992010010916004+46700+008850FM-12+118099999V0200701N002119999999N9999999N1-00701-00771999999ADDMA1999999086301MD1210121+9999ME1313179OA149900361REMSYN076AAXX  09164 06782 33/// /0704 11070 21077 38630 48317 52012 333 91107 91204;
0137067820999992010010917004+46700+008850FM-12+118099999V0200701N002119999999N9999999N1-00711-00821999999ADDMA1999999086351MD1210121+9999ME1313219OA149900361REMSYN076AAXX  09174 06782 33/// /0704 11071 21082 38635 48321 52012 333 91107 91204;
0300067820999992010010918004+46700+008850FM-12+118099999V0202501N000510006019N0009001N1-00751-00821999999ADDAA112000021AJ100609199999999AL11201091AY171061AY221061GA1091+999999999GF109991091999999999999999IA1239KA1120M-00661MA1999999086381MD1310061+9999ME1313249MW1731OA149900361REMSYN118AAXX  09184 06782 01/09 92501 11075 21082 38638 48324 53006 69922 77372 333 11066 47060 69925 90766 93110 91107 91204;
0137067820999992010010919004+46700+008850FM-12+118099999V0200501N000519999999N9999999N1-00761-00851999999ADDMA1999999086441MD1210141+9999ME1313299OA149900311REMSYN076AAXX  09194 06782 33/// /0501 11076 21085 38644 48329 52014 333 91106 91203;
0154067820999992010010920004+46700+008850FM-12+118099999V0209999C000019999999N9999999N1-00771-00841999999ADDAA101000591MA1999999086441MD1210091+9999ME1313299OA149900151REMSYN082AAXX  09204 06782 23/// /0000 11077 21084 38644 48329 52009 333 69945 91103 91202;
0224067820999992010010921004+46700+008850FM-12+118099999V0209999C000010006019N0009001N1-00741-00851999999ADDAA101000021AY171031AY221031GA1091+999999999GF109991091999999999999999MA1999999086471MD1210091+9999ME1313329MW1731OA149900361REMSYN088AAXX  09214 06782 21/09 90000 11074 21085 38647 48332 52009 77372 333 69915 91107 91204;
0137067820999992010010922004+46700+008850FM-12+118099999V0209999C000019999999N9999999N1-00821-00891999999ADDMA1999999086531MD1210091+9999ME1313379OA149900101REMSYN076AAXX  09224 06782 33/// /0000 11082 21089 38653 48337 52009 333 91102 91201;
0154067820999992010010923004+46700+008850FM-12+118099999V0209999C000019999999N9999999N1-00811-00861999999ADDAA101000391MA1999999086561MD1210121+9999ME1313409OA149900101REMSYN082AAXX  09234 06782 23/// /0000 11081 21086 38656 48340 52012 333 69935 91102 91201;
0230067820999992010011000004+46700+008850FM-12+118099999V0202301N000510006019N0009001N1-00811-00901999999ADDAA106001091AY171061AY221061GA1091+999999999GF109991091999999999999999MA1999999086571MD1210101+9999ME1313419MW1731OA149900361REMSYN094AAXX  10004 06782 01/09 92301 11081 21090 38657 48341 52010 60011 77372 333 69925 91107 91204;
0137067820999992010011001004+46700+008850FM-12+118099999V0200901N000519999999N9999999N1-00811-00851999999ADDMA1999999086611MD1210081+9999ME1313449OA149900151REMSYN076AAXX  10014 06782 33/// /0901 11081 21085 38661 48344 52008 333 91103 91201;
0096067820999992010011002004+46700+008850FM-12+118099999V0202901N000519999999N9999999N1-00761-00921999999ADDMA1999999086671ME1313509REMSYN060AAXX  10024 06782 33/// /2901 11076 21092 38667 48350 5////;
0166067820999992010011003004+46700+008850FM-12+118099999V0209999C000010006019N0009001N1-00771-00911999999ADDAY171031AY221031GA1091+999999999GF109991091999999999999999MA1999999086671ME1313509MW1731REMSYN066AAXX  10034 06782 41/09 90000 11077 21091 38667 48350 5//// 77372;
0154067820999992010011004004+46700+008850FM-12+118099999V0209999C000019999999N9999999N1-00771-00891999999ADDAA101000021MA1999999086711MD1110101+9999ME1313539OA149900051REMSYN082AAXX  10044 06782 23/// /0000 11077 21089 38671 48353 51010 333 69915 91101 91200;
0137067820999992010011005004+46700+008850FM-12+118099999V0209999C000019999999N9999999N1-00801-00891999999ADDMA1999999086731MD1310061+9999ME1313559OA149900101REMSYN076AAXX  10054 06782 33/// /0000 11080 21089 38673 48355 53006 333 91102 91201;
0359067820999992010011006004+46700+008850FM-12+118099999V0209999C000010006019N0009001N1-00831-00871999999ADDAA112001091AA224001391AJ100609199999999AL11800191AL29900291AY171061AY221061GA1091+999999999GF109991091999999999999999GJ100009IA1239IA2999-01009KA1999N-00841MA1999999086811MD1310141+9999ME1313629MW1711OA149900211REMSYN136AAXX  10064 06782 01/09 90000 11083 21087 38681 48362 53014 60012 77172 333 21084 3/110 47060 55000 60005 70013 90768 93102 91104 91202;
0137067820999992010011007004+46700+008850FM-12+118099999V0209999C000019999999N9999999N1-00861-00911999999ADDMA1999999086881MD1310171+9999ME1313689OA149900211REMSYN076AAXX  10074 06782 33/// /0000 11086 21091 38688 48368 53017 333 91104 91202;
0137067820999992010011008004+46700+008850FM-12+118099999V0201601N000519999999N9999999N1-00891-00941999999ADDMA1999999086971MD1119999+9999ME1313769OA149900261REMSYN076AAXX  10084 06782 33/// /1601 11089 21094 38697 48376 51/// 333 91105 91202;
0137067820999992010011009004+46700+008850FM-12+118099999V0209999C000019999999N9999999N1-00861-00981999999ADDMA1999999087031MD1110221+9999ME1313819OA149900261REMSYN076AAXX  10094 06782 33/// /0000 11086 21098 38703 48381 51022 333 91105 91202;
0137067820999992010011010004+46700+008850FM-12+118099999V0201401N000519999999N9999999N1-00801-00941999999ADDMA1999999087041MD1110161+9999ME1313839OA149900151REMSYN076AAXX  10104 06782 33/// /1401 11080 21094 38704 48383 51016 333 91103 91201;
0137067820999992010011011004+46700+008850FM-12+118099999V0200801N001019999999N9999999N1-00761-00921999999ADDMA1999999087091MD1110121+9999ME1313879OA149900211REMSYN076AAXX  10114 06782 33/// /0802 11076 21092 38709 48387 51012 333 91104 91202;
0185067820999992010011012004+46700+008850FM-12+118099999V0200901N001010270019N0100001N1-00691-00881999999ADDGA1061+027001031GF106991999999999999999999MA1999999087121MD1310091+9999ME1313909OA149900261REMSYN082AAXX  10124 06782 32960 60902 11069 21088 38712 48390 53009 333 86359 91105 91203;
0137067820999992010011013004+46700+008850FM-12+118099999V0201001N000519999999N9999999N1-00621-00811999999ADDMA1999999087121MD1110081+9999ME1313919OA149900261REMSYN076AAXX  10134 06782 33/// /1001 11062 21081 38712 48391 51008 333 91105 91203;
0137067820999992010011014004+46700+008850FM-12+118099999V0200801N001519999999N9999999N1-00641-00821999999ADDMA1999999087151MD1119999+9999ME1313939OA149900211REMSYN076AAXX  10144 06782 33/// /0803 11064 21082 38715 48393 51/// 333 91104 91203;
0137067820999992010011015004+46700+008850FM-12+118099999V0200701N001519999999N9999999N1-00661-00841999999ADDMA1999999087201MD1310081+9999ME1313989OA149900261REMSYN076AAXX  10154 06782 33/// /0703 11066 21084 38720 48398 53008 333 91105 91203;
0137067820999992010011016004+46700+008850FM-12+118099999V0200701N002119999999N9999999N1-00691-00821999999ADDMA1999999087291MD1310171+9999ME1314069OA149900361REMSYN076AAXX  10164 06782 33/// /0704 11069 21082 38729 48406 53017 333 91107 91205;
0137067820999992010011017004+46700+008850FM-12+118099999V0200501N001019999999N9999999N1-00721-00871999999ADDMA1999999087371MD1310221+9999ME1314129OA149900361REMSYN076AAXX  10174 06782 33/// /0502 11072 21087 38737 48412 53022 333 91107 91205;
0283067820999992010011018004+46700+008850FM-12+118099999V0209999C000010240019N0090001N1-00711-00851999999ADDAJ100629199999999AL11200291AY121061AY221061GA1071+024001041GF107991999999022501999999IA1239KA1120M-00621MA1999999087431MD1110231+9999ME1314189MW1731OA149900361REMSYN112AAXX  10184 06782 31859 70000 11071 21085 38743 48418 51023 77322 333 11062 47062 87458 90766 93102 91107 91205;
0137067820999992010011019004+46700+008850FM-12+118099999V0202101N000519999999N9999999N1-00721-00901999999ADDMA1999999087451MD1110161+9999ME1314209OA149900261REMSYN076AAXX  10194 06782 33/// /2101 11072 21090 38745 48420 51016 333 91105 91203;
0137067820999992010011020004+46700+008850FM-12+118099999V0209999C000019999999N9999999N1-00701-00941999999ADDMA1999999087451MD1210081+9999ME1314209OA149900101REMSYN076AAXX  10204 06782 33/// /0000 11070 21094 38745 48420 52008 333 91102 91201;
0137067820999992010011021004+46700+008850FM-12+118099999V0202401N000519999999N9999999N1-00781-01051999999ADDMA1999999087471MD1210041+9999ME1314219OA149900361REMSYN076AAXX  10214 06782 33/// /2401 11078 21105 38747 48421 52004 333 91107 91205;
0137067820999992010011022004+46700+008850FM-12+118099999V0202301N001019999999N9999999N1-00841-01271999999ADDMA1999999087471MD1110021+9999ME1314209OA149900261REMSYN076AAXX  10224 06782 33/// /2302 11084 21127 38747 48420 51002 333 91105 91202;
0137067820999992010011023004+46700+008850FM-12+118099999V0203001N000519999999N9999999N1-00961-01201999999ADDMA1999999087461MD1010011+9999ME1314189OA149900261REMSYN076AAXX  10234 06782 33/// /3001 11096 21120 38746 48418 50001 333 91105 91202;
0207067820999992010011100004+46700+008850FM-12+118099999V0209999C000012200019N0100001N1-01001-01261999999ADDAY171061AY211061GA1001+999999999GF100991001001999999001001MA1999999087461MD1710011+9999ME1314189MW1101OA149900361REMSYN082AAXX  11004 06782 31/60 00000 11100 21126 38746 48418 57001 71071 333 91107 91205;
0137067820999992010011101004+46700+008850FM-12+118099999V0200101N000519999999N9999999N1-01041-01341999999ADDMA1999999087471MD1010001+9999ME1314199OA149900101REMSYN076AAXX  11014 06782 33/// /0101 11104 21134 38747 48419 50000 333 91102 91201;
0137067820999992010011102004+46700+008850FM-12+118099999V0209999C000019999999N9999999N1-01101-01711999999ADDMA1999999087451MD1719999+9999ME1314169OA149900101REMSYN076AAXX  11024 06782 33/// /0000 11110 21171 38745 48416 57/// 333 91102 91201;
0207067820999992010011103004+46700+008850FM-12+118099999V0202701N000512200019N0100001N1-01011-01221999999ADDAY101031AY201031GA1001+999999999GF100991001001999999001001MA1999999087421MD1819999+9999ME1314149MW1101OA149900261REMSYN082AAXX  11034 06782 31/60 02701 11101 21122 38742 48414 58/// 71000 333 91105 91202;
0137067820999992010011104004+46700+008850FM-12+118099999V0209999C000019999999N9999999N1-01031-01181999999ADDMA1999999087391MD1710081+9999ME1314129OA149900211REMSYN076AAXX  11044 06782 33/// /0000 11103 21118 38739 48412 57008 333 91104 91202;
0137067820999992010011105004+46700+008850FM-12+118099999V0202801N000519999999N9999999N1-00931-01401999999ADDMA1999999087411MD1710041+9999ME1314149OA149900101REMSYN076AAXX  11054 06782 33/// /2801 11093 21140 38741 48414 57004 333 91102 91201;
0298067820999992010011106004+46700+008850FM-12+118099999V0209999C000012200019N0100001N1-00971-01411999999ADDAA124000021AJ100629199999999AL19900091GA1001+999999999GF100991001001999999001001GJ101209IA1239IA2999-01709KA1999N-01111MA1999999087411MD1510011+9999ME1314149OA149900261REMSYN118AAXX  11064 06782 32/60 00000 11097 21141 38741 48414 55001 333 21111 3/117 47062 55020 70000 90768 93100 91105 91202;
0137067820999992010011107004+46700+008850FM-12+118099999V0209999C000019999999N9999999N1-01011-01231999999ADDMA1999999087441MD1210051+9999ME1314169OA149900101REMSYN076AAXX  11074 06782 33/// /0000 11101 21123 38744 48416 52005 333 91102 91201;
0137067820999992010011108004+46700+008850FM-12+118099999V0209999C000019999999N9999999N1-00841-00991999999ADDMA1999999087441MD1219999+9999ME1314189OA149900101REMSYN076AAXX  11084 06782 33/// /0000 11084 21099 38744 48418 52/// 333 91102 91201;
0137067820999992010011109004+46700+008850FM-12+118099999V0209999C000019999999N9999999N1-00831-01181999999ADDMA1999999087441MD1010031+9999ME1314189OA149900101REMSYN076AAXX  11094 06782 33/// /0000 11083 21118 38744 48418 50003 333 91102 91201;
0137067820999992010011110004+46700+008850FM-12+118099999V0209999C000019999999N9999999N1-00631-00951999999ADDMA1999999087441MD1519999+9999ME1314199OA149900101REMSYN076AAXX  11104 06782 33/// /0000 11063 21095 38744 48419 55/// 333 91102 91201;
0137067820999992010011111004+46700+008850FM-12+118099999V0209999C000019999999N9999999N1-00511-00861999999ADDMA1999999087411MD1810031+9999ME1314189OA149900101REMSYN076AAXX  11114 06782 33/// /0000 11051 21086 38741 48418 58003 333 91102 91201;
0213067820999992010011112004+46700+008850FM-12+118099999V0209999C000010111019N0100001N1-00291-00721999999ADDAY111061AY211061GA1071+011101061GF107991999999012501999999MA1999999087351MD1810091+9999ME1314149MW1101OA149900211REMSYN088AAXX  11124 06782 31660 70000 11029 21072 38735 48414 58009 71011 333 87637 91104 91202;
0137067820999992010011113004+46700+008850FM-12+118099999V0209999C000019999999N9999999N1-00361-00681999999ADDMA1999999087291MD1810151+9999ME1314089OA149900101REMSYN076AAXX  11134 06782 33/// /0000 11036 21068 38729 48408 58015 333 91102 91200;
0096067820999992010011114004+46700+008850FM-12+118099999V0201801N000519999999N9999999N1-00341-00691999999ADDMA1999999087281ME1314079REMSYN060AAXX  11144 06782 33/// /1801 11034 21069 38728 48407 5////;
0137067820999992010011115004+46700+008850FM-12+118099999V0201401N000519999999N9999999N1-00521-00831999999ADDMA1999999087361MD1310011+9999ME1314139OA149900211REMSYN076AAXX  11154 06782 33/// /1401 11052 21083 38736 48413 53001 333 91104 91202;
0137067820999992010011116004+46700+008850FM-12+118099999V0200701N001019999999N9999999N1-00711-00851999999ADDMA1999999087441MD1210151+9999ME1314199OA149900211REMSYN076AAXX  11164 06782 33/// /0702 11071 21085 38744 48419 52015 333 91104 91202;
0137067820999992010011117004+46700+008850FM-12+118099999V0200601N000519999999N9999999N1-00701-00821999999ADDMA1999999087521MD1210241+9999ME1314269OA149900211REMSYN076AAXX  11174 06782 33/// /0601 11070 21082 38752 48426 52024 333 91104 91202;
0283067820999992010011118004+46700+008850FM-12+118099999V0203201N000510021019N0050001N1-00691-00821999999ADDAJ100589199999999AL19900091AY121061AY221061GA1081+002101071GF108991999999002501999999IA1239KA1120M-00211MA1999999087591MD1110231+9999ME1314329MW1101OA149900211REMSYN112AAXX  11184 06782 31350 83201 11069 21082 38759 48432 51023 71022 333 11021 47058 88707 90766 93100 91104 91202;
0137067820999992010011119004+46700+008850FM-12+118099999V0203201N000519999999N9999999N1-00621-00831999999ADDMA1999999087621MD1110181+9999ME1314369OA149900211REMSYN076AAXX  11194 06782 33/// /3201 11062 21083 38762 48436 51018 333 91104 91202;
0137067820999992010011120004+46700+008850FM-12+118099999V0209999C000019999999N9999999N1-00641-00811999999ADDMA1999999087621MD1210101+9999ME1314359OA149900211REMSYN076AAXX  11204 06782 33/// /0000 11064 21081 38762 48435 52010 333 91104 91202;
0213067820999992010011121004+46700+008850FM-12+118099999V0202701N000510021019N0050001N1-00651-00801999999ADDAY121031AY221031GA1081+002101071GF108991999999002501999999MA1999999087611MD1210021+9999ME1314349MW1101OA149900211REMSYN088AAXX  11214 06782 31350 82701 11065 21080 38761 48434 52002 71022 333 88707 91104 91202;
0137067820999992010011122004+46700+008850FM-12+118099999V0209999C000019999999N9999999N1-00621-00791999999ADDMA1999999087591MD1810031+9999ME1314339OA149900151REMSYN076AAXX  11224 06782 33/// /0000 11062 21079 38759 48433 58003 333 91103 91201;
0137067820999992010011123004+46700+008850FM-12+118099999V0209999C000019999999N9999999N1-00611-00781999999ADDMA1999999087581MD1710041+9999ME1314329OA149900151REMSYN076AAXX  11234 06782 33/// /0000 11061 21078 38758 48432 57004 333 91103 91201;
0185067820999992010011200004+46700+008850FM-12+118099999V0200201N000510090019N0100001N1-00731-00811999999ADDGA1061+009001061GF106991999999008001999999MA1999999087601MD1510011+9999ME1314339OA149900211REMSYN082AAXX  12004 06782 32560 60201 11073 21081 38760 48433 55001 333 86630 91104 91202;
0137067820999992010011201004+46700+008850FM-12+118099999V0202401N000519999999N9999999N1-00631-00781999999ADDMA1999999087621MD1210031+9999ME1314359OA149900101REMSYN076AAXX  12014 06782 33/// /2401 11063 21078 38762 48435 52003 333 91102 91201;
0137067820999992010011202004+46700+008850FM-12+118099999V0202501N000519999999N9999999N1-00621-00781999999ADDMA1999999087601MD1019999+9999ME1314349OA149900101REMSYN076AAXX  12024 06782 33/// /2501 11062 21078 38760 48434 50/// 333 91102 91201;
0206067820999992010011203004+46700+008850FM-12+118099999V0209999C000010111019N0100001N1-00661-00771999999ADDGA1051+011101061GF105991999999012501999999MA1999999087601ME1314339OA149900151REMSYN082AAXX  12034 06782 32660 50000 11066 21077 38760 48433 57000 333 85637 91103 91201;EQDQ01+000072APCTENQ02+000002APC3  
0137067820999992010011204004+46700+008850FM-12+118099999V0201801N000519999999N9999999N1-00731-00791999999ADDMA1999999087611MD1510011+9999ME1314349OA149900101REMSYN076AAXX  12044 06782 33/// /1801 11073 21079 38761 48434 55001 333 91102 91201;
0137067820999992010011205004+46700+008850FM-12+118099999V0203001N000519999999N9999999N1-00731-00861999999ADDMA1999999087611MD1210011+9999ME1314349OA149900101REMSYN076AAXX  12054 06782 33/// /3001 11073 21086 38761 48434 52001 333 91102 91201;
0323067820999992010011206004+46700+008850FM-12+118099999V0209999C000010111019N0100001N1-00741-00861999999ADDAA124000091AJ100559199999999AL19900091GA1081+011101061GF108991999999012501999999GJ101149IA1239IA2999-00909KA1999N-00811MA1999999087601MD1010001+9999ME1314339OA149900211REMSYN124AAXX  12064 06782 32660 80000 11074 21086 38760 48433 50000 333 21081 3/109 47055 55019 70000 88637 90768 93100 91104 91202;EQDQ01  00002PRCP24
0137067820999992010011207004+46700+008850FM-12+118099999V0209999C000019999999N9999999N1-00671-00791999999ADDMA1999999087591MD1710021+9999ME1314329OA149900101REMSYN076AAXX  12074 06782 33/// /0000 11067 21079 38759 48432 57002 333 91102 91201;
0137067820999992010011208004+46700+008850FM-12+118099999V0203301N000519999999N9999999N1-00571-00721999999ADDMA1999999087561MD1719999+9999ME1314319OA149900101REMSYN076AAXX  12084 06782 33/// /3301 11057 21072 38756 48431 57/// 333 91102 91201;
0137067820999992010011209004+46700+008850FM-12+118099999V0209999C000019999999N9999999N1-00561-00751999999ADDMA1999999087531MD1710071+9999ME1314289OA149900101REMSYN076AAXX  12094 06782 33/// /0000 11056 21075 38753 48428 57007 333 91102 91201;
0137067820999992010011210004+46700+008850FM-12+118099999V0209999C000019999999N9999999N1-00401-00751999999ADDMA1999999087481MD1810111+9999ME1314259OA149900211REMSYN076AAXX  12104 06782 33/// /0000 11040 21075 38748 48425 58011 333 91104 91201;
0137067820999992010011211004+46700+008850FM-12+118099999V0200401N000519999999N9999999N1-00151-00661999999ADDMA1999999087391MD1810171+9999ME1314199OA149900211REMSYN076AAXX  12114 06782 33/// /0401 11015 21066 38739 48419 58017 333 91104 91202;
0179067820999992010011212004+46700+008850FM-12+118099999V0201001N000512200019N0100001N1-00051-00631999999ADDGA1001+999999999GF100991001001999999001001MA1999999087301MD1710231+9999ME1314129OA149900461REMSYN076AAXX  12124 06782 32/60 01001 11005 21063 38730 48412 57023 333 91109 91203;
0137067820999992010011213004+46700+008850FM-12+118099999V0201601N001519999999N9999999N1+00091-00711999999ADDMA1999999087291MD1710191+9999ME1314129OA149900671REMSYN076AAXX  12134 06782 33/// /1603 10009 21071 38729 48412 57019 333 91113 91203;
0096067820999992010011214004+46700+008850FM-12+118099999V0201801N001519999999N9999999N1+00101-00921999999ADDMA1999999087291ME1314129REMSYN060AAXX  12144 06782 33/// /1803 10010 21092 38729 48412 5////;
0137067820999992010011215004+46700+008850FM-12+118099999V0201801N001019999999N9999999N1+00001-00961999999ADDMA1999999087271MD1710031+9999ME1314099OA149900881REMSYN076AAXX  12154 06782 33/// /1802 10000 21096 38727 48409 57003 333 91117 91203;
0137067820999992010011216004+46700+008850FM-12+118099999V0201901N001519999999N9999999N1-00171-00791999999ADDMA1999999087241MD1710051+9999ME1314059OA149900881REMSYN076AAXX  12164 06782 33/// /1903 11017 21079 38724 48405 57005 333 91117 91203;
0137067820999992010011217004+46700+008850FM-12+118099999V0202701N000519999999N9999999N1-00171-00881999999ADDMA1999999087221MD1710071+9999ME1314039OA149900721REMSYN076AAXX  12174 06782 33/// /2701 11017 21088 38722 48403 57007 333 91114 91203;
0277067820999992010011218004+46700+008850FM-12+118099999V0203501N000512200019N0100001N1-00271-00861999999ADDAJ100539199999999AL19900091AY101061AY201061GA1001+999999999GF100991001001999999001001IA1239KA1120M+00101MA1999999087241MD1510031+9999ME1314049MW1101OA149900881REMSYN106AAXX  12184 06782 31/60 03501 11027 21086 38724 48404 55003 71000 333 10010 47053 90766 93100 91117 91203;
0137067820999992010011219004+46700+008850FM-12+118099999V0203001N001019999999N9999999N1-00321-00911999999ADDMA1999999087241MD1510001+9999ME1314049OA149900571REMSYN076AAXX  12194 06782 33/// /3002 11032 21091 38724 48404 55000 333 91111 91203;
0137067820999992010011220004+46700+008850FM-12+118099999V0203101N001019999999N9999999N1-00291-00851999999ADDMA1999999087261MD1210041+9999ME1314069OA149900461REMSYN076AAXX  12204 06782 33/// /3102 11029 21085 38726 48406 52004 333 91109 91202;
0179067820999992010011221004+46700+008850FM-12+118099999V0202901N001512200019N0100001N1-00181-00951999999ADDGA1001+999999999GF100991001001999999001001MA1999999087231MD1710011+9999ME1314049OA149900721REMSYN076AAXX  12214 06782 32/60 02903 11018 21095 38723 48404 57001 333 91114 91203;
0137067820999992010011222004+46700+008850FM-12+118099999V0203101N000519999999N9999999N1-00261-00831999999ADDMA1999999087211MD1710031+9999ME1314029OA149900671REMSYN076AAXX  12224 06782 33/// /3101 11026 21083 38721 48402 57003 333 91113 91203;
0137067820999992010011223004+46700+008850FM-12+118099999V0201101N000519999999N9999999N1-00251-00851999999ADDMA1999999087131MD1810131+9999ME1313959OA149900461REMSYN076AAXX  12234 06782 33/// /1101 11025 21085 38713 48395 58013 333 91109 91203;
0137067820999992010011300004+46700+008850FM-12+118099999V0202401N000519999999N9999999N1-00261-00851999999ADDMA1999999087121MD1710111+9999ME1313949OA149900881REMSYN076AAXX  13004 06782 33/// /2401 11026 21085 38712 48394 57011 333 91117 91203;
0137067820999992010011301004+46700+008850FM-12+118099999V0203201N001019999999N9999999N1-00141-00861999999ADDMA1999999087101MD1510111+9999ME1313939OA149900461REMSYN076AAXX  13014 06782 33/// /3202 11014 21086 38710 48393 55011 333 91109 91203;
0137067820999992010011302004+46700+008850FM-12+118099999V0203101N001019999999N9999999N1-00181-00771999999ADDMA1999999087071MD1819999+9999ME1313909OA149900571REMSYN076AAXX  13024 06782 33/// /3102 11018 21077 38707 48390 58/// 333 91111 91203;
0179067820999992010011303004+46700+008850FM-12+118099999V0200601N000512200019N0100001N1-00341-00721999999ADDGA1001+999999999GF100991001001999999001001MA1999999087011MD1819999+9999ME1313839OA149900571REMSYN076AAXX  13034 06782 32/60 00601 11034 21072 38701 48383 58/// 333 91111 91203;
0137067820999992010011304004+46700+008850FM-12+118099999V0209999C000019999999N9999999N1-00351-00721999999ADDMA1999999086991MD1610111+9999ME1313819OA149900261REMSYN076AAXX  13044 06782 33/// /0000 11035 21072 38699 48381 56011 333 91105 91203;
0137067820999992010011305004+46700+008850FM-12+118099999V0202801N000519999999N9999999N1-00271-00731999999ADDMA1999999086951MD1610121+9999ME1313789OA149900151REMSYN076AAXX  13054 06782 33/// /2801 11027 21073 38695 48378 56012 333 91103 91201;
0323067820999992010011306004+46700+008850FM-12+118099999V0202801N001010111019N0100001N1-00201-00711999999ADDAA124000091AJ100509199999999AL19900091GA1061+011101061GF106991999999012501999999GJ103189IA1239IA2999-00609KA1999N-00371MA1999999086951MD1710061+9999ME1313799OA149900671REMSYN124AAXX  13064 06782 32660 62802 11020 21071 38695 48379 57006 333 21037 3/106 47050 55053 70000 86637 90768 93100 91113 91203;EQDQ01  00002PRCP24
0137067820999992010011307004+46700+008850FM-12+118099999V0202701N000519999999N9999999N1-00211-00701999999ADDMA1999999086981MD1510011+9999ME1313819OA149900151REMSYN076AAXX  13074 06782 33/// /2701 11021 21070 38698 48381 55001 333 91103 91202;
0137067820999992010011308004+46700+008850FM-12+118099999V0203301N000519999999N9999999N1-00181-00761999999ADDMA1999999087001MD1210051+9999ME1313839OA149900261REMSYN076AAXX  13084 06782 33/// /3301 11018 21076 38700 48383 52005 333 91105 91202;
0137067820999992010011309004+46700+008850FM-12+118099999V0202601N001019999999N9999999N1-00061-00721999999ADDMA1999999087041MD1210091+9999ME1313889OA149900261REMSYN076AAXX  13094 06782 33/// /2602 11006 21072 38704 48388 52009 333 91105 91202;
0137067820999992010011310004+46700+008850FM-12+118099999V0202501N000519999999N9999999N1+00061-00841999999ADDMA1999999087061MD1110081+9999ME1313909OA149900261REMSYN076AAXX  13104 06782 33/// /2501 10006 21084 38706 48390 51008 333 91105 91202;
0137067820999992010011311004+46700+008850FM-12+118099999V0202701N000519999999N9999999N1+00041-00691999999ADDMA1999999087051MD1210051+9999ME1313899OA149900261REMSYN076AAXX  13114 06782 33/// /2701 10004 21069 38705 48389 52005 333 91105 91202;
0185067820999992010011312004+46700+008850FM-12+118099999V0200101N001010090019N0100001N1+00151-00871999999ADDGA1081+009001061GF108991999999008001999999MA1999999087001MD1810041+9999ME1313869OA149900571REMSYN082AAXX  13124 06782 32560 80102 10015 21087 38700 48386 58004 333 88630 91111 91203;
0137067820999992010011313004+46700+008850FM-12+118099999V0200501N000519999999N9999999N1+00141-00671999999ADDMA1999999086981MD1810081+9999ME1313849OA149900151REMSYN076AAXX  13134 06782 33/// /0501 10014 21067 38698 48384 58008 333 91103 91202;
0137067820999992010011314004+46700+008850FM-12+118099999V0200501N000519999999N9999999N1+00121-00711999999ADDMA1999999086991MD1519999+9999ME1313849OA149900151REMSYN076AAXX  13144 06782 33/// /0501 10012 21071 38699 48384 55/// 333 91103 91201;
0137067820999992010011315004+46700+008850FM-12+118099999V0203401N000519999999N9999999N1+00091-00661999999ADDMA1999999087011MD1310011+9999ME1313869OA149900311REMSYN076AAXX  13154 06782 33/// /3401 10009 21066 38701 48386 53001 333 91106 91202;
0137067820999992010011316004+46700+008850FM-12+118099999V0202401N000519999999N9999999N1+00081-00761999999ADDMA1999999087051MD1310071+9999ME1313909OA149900311REMSYN076AAXX  13164 06782 33/// /2401 10008 21076 38705 48390 53007 333 91106 91202;
0137067820999992010011317004+46700+008850FM-12+118099999V0202901N000519999999N9999999N1-00011-00591999999ADDMA1999999087101MD1310111+9999ME1313949OA149900211REMSYN076AAXX  13174 06782 33/// /2901 11001 21059 38710 48394 53011 333 91104 91201;
0283067820999992010011318004+46700+008850FM-12+118099999V0203401N000510060019N0080001N1-00051-00471999999ADDAJ100479199999999AL19900091AY121061AY221061GA1081+006001071GF108991999999008001999999IA1279KA1120M+00201MA1999999087151MD1310141+9999ME1313989MW1101OA149900311REMSYN112AAXX  13184 06782 31558 83401 11005 21047 38715 48398 53014 71022 333 10020 43047 88720 90766 93100 91106 91202;
0137067820999992010011319004+46700+008850FM-12+118099999V0200301N000519999999N9999999N1-00061-00481999999ADDMA1999999087181MD1110131+9999ME1314019OA149900151REMSYN076AAXX  13194 06782 33/// /0301 11006 21048 38718 48401 51013 333 91103 91201;
0137067820999992010011320004+46700+008850FM-12+118099999V0203601N000519999999N9999999N1-00091-00471999999ADDMA1999999087201MD1110101+9999ME1314029OA149900101REMSYN076AAXX  13204 06782 33/// /3601 11009 21047 38720 48402 51010 333 91102 91201;
0213067820999992010011321004+46700+008850FM-12+118099999V0209999C000019999999N0080001N1-00151-00461999999ADDAY171031AY221031GA1021+006001071GF108991999999008001999999MA1999999087211MD1110061+9999ME1314039MW1781OA149900211REMSYN088AAXX  13214 06782 31558 80000 11015 21046 38721 48403 51006 77872 333 82720 91104 91201;
0137067820999992010011322004+46700+008850FM-12+118099999V0209999C000019999999N9999999N1-00171-00481999999ADDMA1999999087201MD1210021+9999ME1314029OA149900101REMSYN076AAXX  13224 06782 33/// /0000 11017 21048 38720 48402 52002 333 91102 91201;
0137067820999992010011323004+46700+008850FM-12+118099999V0203201N000519999999N9999999N1-00211-00521999999ADDMA1999999087181MD1810021+9999ME1313999OA149900211REMSYN076AAXX  13234 06782 33/// /3201 11021 21052 38718 48399 58002 333 91104 91202;
0185067820999992010011400004+46700+008850FM-12+118099999V0202301N000510060019N0100001N1-00331-00631999999ADDGA1081+006001071GF108991999999008001999999MA1999999087141MD1810071+9999ME1313959OA149900311REMSYN082AAXX  14004 06782 32560 82301 11033 21063 38714 48395 58007 333 88720 91106 91202;
0137067820999992010011401004+46700+008850FM-12+118099999V0203401N000519999999N9999999N1-00381-00681999999ADDMA1999999087131MD1710071+9999ME1313949OA149900211REMSYN076AAXX  14014 06782 33/// /3401 11038 21068 38713 48394 57007 333 91104 91201;
0137067820999992010011402004+46700+008850FM-12+118099999V0202701N000519999999N9999999N1-00421-00681999999ADDMA1999999087121MD1719999+9999ME1313929OA149900151REMSYN076AAXX  14024 06782 33/// /2701 11042 21068 38712 48392 57/// 333 91103 91201;
0138067820999992010011403004+46700+008850FM-12+118099999V0203101N001012200019N0100001N1-00371-00661999999ADDGA1001+999999999GF100991001001999999001001MA1999999087061ME1313879REMSYN060AAXX  14034 06782 32/60 03102 11037 21066 38706 48387 5////;
0137067820999992010011404004+46700+008850FM-12+118099999V0202801N001019999999N9999999N1-00331-00701999999ADDMA1999999087011MD1710121+9999ME1313839OA149900211REMSYN076AAXX  14044 06782 33/// /2802 11033 21070 38701 48383 57012 333 91104 91202;
0137067820999992010011405004+46700+008850FM-12+118099999V0200201N000519999999N9999999N1-00341-00701999999ADDMA1999999087001MD1710121+9999ME1313829OA149900361REMSYN076AAXX  14054 06782 33/// /0201 11034 21070 38700 48382 57012 333 91107 91203;
0326067820999992010011406004+46700+008850FM-12+118099999V0203101N001012200019N0120001N1-00201-00671999999ADDAA124000021AJ100479199999999AL19900091AY101061AY201061GA1001+999999999GF100991001001999999001001GJ100009IA1279IA2999-01009KA1999N-00481MA1999999086981MD1710081+9999ME1313819MW1101OA149900361REMSYN124AAXX  14064 06782 31/62 03102 11020 21067 38698 48381 57008 71000 333 21048 3/110 43047 55000 70000 90768 93100 91107 91203;
0137067820999992010011407004+46700+008850FM-12+118099999V0202701N000519999999N9999999N1-00421-00781999999ADDMA1999999087021MD1310011+9999ME1313839OA149900311REMSYN076AAXX  14074 06782 33/// /2701 11042 21078 38702 48383 53001 333 91106 91203;
0137067820999992010011408004+46700+008850FM-12+118099999V0202701N000519999999N9999999N1-00391-00751999999ADDMA1999999087041MD1319999+9999ME1313859OA149900311REMSYN076AAXX  14084 06782 33/// /2701 11039 21075 38704 48385 53/// 333 91106 91202;
0137067820999992010011409004+46700+008850FM-12+118099999V0202901N001019999999N9999999N1-00201-00741999999ADDMA1999999087061MD1210081+9999ME1313899OA149900361REMSYN076AAXX  14094 06782 33/// /2902 11020 21074 38706 48389 52008 333 91107 91203;
0137067820999992010011410004+46700+008850FM-12+118099999V0209999C000019999999N9999999N1+00201-00831999999ADDMA1999999087061MD1210041+9999ME1313919OA149900311REMSYN076AAXX  14104 06782 33/// /0000 10020 21083 38706 48391 52004 333 91106 91202;
0137067820999992010011411004+46700+008850FM-12+118099999V0201801N002119999999N9999999N1+00151-00731999999ADDMA1999999087041MD1010001+9999ME1313899OA149900721REMSYN076AAXX  14114 06782 33/// /1804 10015 21073 38704 48389 50000 333 91114 91204;
0213067820999992010011412004+46700+008850FM-12+118099999V0202101N002110450019N0120001N1+00321-00891999999ADDAY111061AY211061GA1061+045001001GF106991999999999999999999MA1999999087001MD1810061+9999ME1313879MW1101OA149900721REMSYN088AAXX  14124 06782 31962 62104 10032 21089 38700 48387 58006 71011 333 86065 91114 91204;
0137067820999992010011413004+46700+008850FM-12+118099999V0202001N001019999999N9999999N1+00221-00771999999ADDMA1999999086971MD1810091+9999ME1313839OA149900771REMSYN076AAXX  14134 06782 33/// /2002 10022 21077 38697 48383 58009 333 91115 91204;
0137067820999992010011414004+46700+008850FM-12+118099999V0201801N001019999999N9999999N1+00211-00781999999ADDMA1999999087001MD1510041+9999ME1313869OA149901031REMSYN076AAXX  14144 06782 33/// /1802 10021 21078 38700 48386 55004 333 91120 91204;
0137067820999992010011415004+46700+008850FM-12+118099999V0201501N001019999999N9999999N1+00171-00821999999ADDMA1999999087021MD1210021+9999ME1313889OA149901031REMSYN076AAXX  14154 06782 33/// /1502 10017 21082 38702 48388 52002 333 91120 91204;
0137067820999992010011416004+46700+008850FM-12+118099999V0202101N001519999999N9999999N1+00071-00781999999ADDMA1999999087031MD1210061+9999ME1313889OA149900821REMSYN076AAXX  14164 06782 33/// /2103 10007 21078 38703 48388 52006 333 91116 91203;
0137067820999992010011417004+46700+008850FM-12+118099999V0203401N001519999999N9999999N1-00021-00721999999ADDMA1999999087061MD1210061+9999ME1313909OA149900671REMSYN076AAXX  14174 06782 33/// /3403 11002 21072 38706 48390 52006 333 91113 91203;
0255067820999992010011418004+46700+008850FM-12+118099999V0209999C000012200019N0120001N1-00061-00711999999ADDAJ100449199999999AL19900091GA1041+057001001GF104991999999999999999999IA1279KA1120M+00371MA1999999087091MD1210071+9999ME1313929OA149901031REMSYN106AAXX  14184 06782 32962 40000 11006 21071 38709 48392 52007 333 10037 43044 84069 90766 93100 91120 91204;
0137067820999992010011419004+46700+008850FM-12+118099999V0203401N000519999999N9999999N1+00011-00761999999ADDMA1999999087151MD1310121+9999ME1313989OA149900261REMSYN076AAXX  14194 06782 33/// /3401 10001 21076 38715 48398 53012 333 91105 91202;
0137067820999992010011420004+46700+008850FM-12+118099999V0203201N000519999999N9999999N1-00111-00781999999ADDMA1999999087201MD1310141+9999ME1314029OA149900361REMSYN076AAXX  14204 06782 33/// /3201 11011 21078 38720 48402 53014 333 91107 91202;
0137067820999992010011421004+46700+008850FM-12+118099999V0202801N001019999999N9999999N1-00031-00801999999ADDMA1999999087251MD1310161+9999ME1314079OA149900671REMSYN076AAXX  14214 06782 33/// /2802 11003 21080 38725 48407 53016 333 91113 91203;
0137067820999992010011422004+46700+008850FM-12+118099999V0203201N001519999999N9999999N1+00051-00801999999ADDMA1999999087311MD1110161+9999ME1314139OA149900621REMSYN076AAXX  14224 06782 33/// /3203 10005 21080 38731 48413 51016 333 91112 91203;
0137067820999992010011423004+46700+008850FM-12+118099999V0202601N001519999999N9999999N1+00001-00821999999ADDMA1999999087351MD1110151+9999ME1314179OA149900621REMSYN076AAXX  14234 06782 33/// /2603 10000 21082 38735 48417 51015 333 91112 91203;
0191067820999992010011500004+46700+008850FM-12+118099999V0202601N001012200019N0100001N1-00141-00761999999ADDGA1001+999999999GF100991001001999999001001MA1999999087381MD1110131+9999ME1314189MW1001OA149901031REMSYN082AAXX  15004 06782 31/60 02602 11014 21076 38738 48418 51013 700// 333 91120 91204;
0137067820999992010011501004+46700+008850FM-12+118099999V0203401N000519999999N9999999N1-00231-00841999999ADDMA1999999087411MD1110101+9999ME1314209OA149900511REMSYN076AAXX  15014 06782 33/// /3401 11023 21084 38741 48420 51010 333 91110 91203;
0137067820999992010011502004+46700+008850FM-12+118099999V0200201N000519999999N9999999N1-00241-00821999999ADDMA1999999087451MD1310101+9999ME1314249OA149900151REMSYN076AAXX  15024 06782 33/// /0201 11024 21082 38745 48424 53010 333 91103 91202;
0150067820999992010011503004+46700+008850FM-12+118099999V0203501N000512200019N0100001N1-00261-00841999999ADDGA1001+999999999GF100991001001999999001001MA1999999087521ME1314309MW1001REMSYN066AAXX  15034 06782 31/60 03501 11026 21084 38752 48430 5//// 700//;
0137067820999992010011504004+46700+008850FM-12+118099999V0200501N001019999999N9999999N1-00411-00891999999ADDMA1999999087591MD1310181+9999ME1314359OA149900211REMSYN076AAXX  15044 06782 33/// /0502 11041 21089 38759 48435 53018 333 91104 91202;
0137067820999992010011505004+46700+008850FM-12+118099999V0200301N000519999999N9999999N1-00311-00921999999ADDMA1999999087681MD1310231+9999ME1314449OA149900211REMSYN076AAXX  15054 06782 33/// /0301 11031 21092 38768 48444 53023 333 91104 91202;
0345067820999992010011506004+46700+008850FM-12+118099999V0209999C000012200019N0100001N1-00391-00901999999ADDAA124000091AJ100449199999999AL19900091AY101061AY201061GA1001+999999999GF100991001001999999001001GJ101989IA1279IA2999-01009KA1999N-00431MA1999999087791MD1310271+9999ME1314539MW1101OA149900621REMSYN124AAXX  15064 06782 31/60 00000 11039 21090 38779 48453 53027 71000 333 21043 3/110 43044 55033 70000 90768 93100 91112 91203;EQDQ01  00002PRCP24
0137067820999992010011507004+46700+008850FM-12+118099999V0209999C000019999999N9999999N1-00411-00891999999ADDMA1999999087891MD1210301+9999ME1314629OA149900101REMSYN076AAXX  15074 06782 33/// /0000 11041 21089 38789 48462 52030 333 91102 91201;
0137067820999992010011508004+46700+008850FM-12+118099999V0203501N000519999999N9999999N1-00401-00901999999ADDMA1999999087981MD1219999+9999ME1314709OA149900151REMSYN076AAXX  15084 06782 33/// /3501 11040 21090 38798 48470 52/// 333 91103 91202;
0137067820999992010011509004+46700+008850FM-12+118099999V0209999C000019999999N9999999N1-00401-00931999999ADDMA1999999088061MD1110271+9999ME1314779OA149900211REMSYN076AAXX  15094 06782 33/// /0000 11040 21093 38806 48477 51027 333 91104 91202;
0137067820999992010011510004+46700+008850FM-12+118099999V0209999C000019999999N9999999N1-00251-00901999999ADDMA1999999088101MD1110211+9999ME1314829OA149900151REMSYN076AAXX  15104 06782 33/// /0000 11025 21090 38810 48482 51021 333 91103 91201;
0137067820999992010011511004+46700+008850FM-12+118099999V0209999C000019999999N9999999N1-00071-00951999999ADDMA1999999088091MD1210111+9999ME1314839OA149900151REMSYN076AAXX  15114 06782 33/// /0000 11007 21095 38809 48483 52011 333 91103 91201;
0213067820999992010011512004+46700+008850FM-12+118099999V0209999C000010660019N0120001N1+00091-00921999999ADDAY111061AY211061GA1051+066001001GF105991999999999999999999MA1999999088091MD1010031+9999ME1314859MW1101OA149900211REMSYN088AAXX  15124 06782 31962 50000 10009 21092 38809 48485 50003 71011 333 85072 91104 91202;
0137067820999992010011513004+46700+008850FM-12+118099999V0209999C000019999999N9999999N1+00061-00761999999ADDMA1999999088101MD1510001+9999ME1314859OA149900151REMSYN076AAXX  15134 06782 33/// /0000 10006 21076 38810 48485 55000 333 91103 91201;
0137067820999992010011514004+46700+008850FM-12+118099999V0209999C000019999999N9999999N1+00031-00761999999ADDMA1999999088151MD1310061+9999ME1314909OA149900151REMSYN076AAXX  15144 06782 33/// /0000 10003 21076 38815 48490 53006 333 91103 91201;
0137067820999992010011515004+46700+008850FM-12+118099999V0201201N000519999999N9999999N1-00021-00831999999ADDMA1999999088241MD1210151+9999ME1314979OA149900151REMSYN076AAXX  15154 06782 33/// /1201 11002 21083 38824 48497 52015 333 91103 91201;
0137067820999992010011516004+46700+008850FM-12+118099999V0200401N001019999999N9999999N1-00101-00831999999ADDMA1999999088351MD1310251+9999ME1315069OA149900151REMSYN076AAXX  15164 06782 33/// /0402 11010 21083 38835 48506 53025 333 91103 91202;
0137067820999992010011517004+46700+008850FM-12+118099999V0202801N000519999999N9999999N1-00221-00761999999ADDMA1999999088441MD1110291+9999ME1315139OA149900151REMSYN076AAXX  15174 06782 33/// /2801 11022 21076 38844 48513 51029 333 91103 91202;
0255067820999992010011518004+46700+008850FM-12+118099999V0203401N000512200019N0100001N1-00211-00811999999ADDAJ100409199999999AL19900091GA1041+066001001GF104991999999999999999999IA1279KA1120M+00121MA1999999088501MD1110261+9999ME1315189OA149900151REMSYN106AAXX  15184 06782 32960 43401 11021 21081 38850 48518 51026 333 10012 43040 84072 90766 93100 91103 91202;
0137067820999992010011519004+46700+008850FM-12+118099999V0203601N000519999999N9999999N1-00291-00811999999ADDMA1999999088551MD1110201+9999ME1315229OA149900151REMSYN076AAXX  15194 06782 33/// /3601 11029 21081 38855 48522 51020 333 91103 91201;
0137067820999992010011520004+46700+008850FM-12+118099999V0209999C000019999999N9999999N1-00331-00861999999ADDMA1999999088541MD1210101+9999ME1315209OA149900151REMSYN076AAXX  15204 06782 33/// /0000 11033 21086 38854 48520 52010 333 91103 91201;
0229067820999992010011521004+46700+008850FM-12+118099999V0203001N000512200019N0060001N1-00301-00941999999ADDGA1041+002101041GA2031+003901041GA3041+006001041GF104991999999002501999999MA1999999088541MD1010041+9999ME1315219OA149900151REMSYN094AAXX  15214 06782 32356 43001 11030 21094 38854 48521 50004 333 84407 83413 84420 91103 91202;
0137067820999992010011522004+46700+008850FM-12+118099999V0202201N000519999999N9999999N1-00321-00931999999ADDMA1999999088541MD1710011+9999ME1315209OA149900151REMSYN076AAXX  15224 06782 33/// /2201 11032 21093 38854 48520 57001 333 91103 91201;
0137067820999992010011523004+46700+008850FM-12+118099999V0202901N000519999999N9999999N1-00321-00971999999ADDMA1999999088541MD1410001+9999ME1315209OA149900151REMSYN076AAXX  15234 06782 33/// /2901 11032 21097 38854 48520 57000 333 91103 91201;
0229067820999992010011600004+46700+008850FM-12+118099999V0200101N000512200019N0060001N1-00381-01021999999ADDGA1041+002101041GA2041+003901041GA3041+006001041GF104991999999002501999999MA1999999088531MD1810011+9999ME1315199OA149900151REMSYN094AAXX  16004 06782 32356 40101 11038 21102 38853 48519 58001 333 84407 84413 84420 91103 91202;
0137067820999992010011601004+46700+008850FM-12+118099999V0209999C000019999999N9999999N1-00401-01131999999ADDMA1999999088491MD1710051+9999ME1315159OA149900211REMSYN076AAXX  16014 06782 33/// /0000 11040 21113 38849 48515 57005 333 91104 91202;
0137067820999992010011602004+46700+008850FM-12+118099999V0203201N000519999999N9999999N1-00391-01191999999ADDMA1999999088511MD1710031+9999ME1315179OA149900261REMSYN076AAXX  16024 06782 33/// /3201 11039 21119 38851 48517 57003 333 91105 91202;
0137067820999992010011603004+46700+008850FM-12+118099999V0203101N001019999999N9999999N1-00461-01411999999ADDMA1999999088471MD1719999+9999ME1315129OA149900261REMSYN076AAXX  16034 06782 33/// /3102 11046 21141 38847 48512 57/// 333 91105 91202;
0137067820999992010011604004+46700+008850FM-12+118099999V0203401N000519999999N9999999N1-00411-01221999999ADDMA1999999088461MD1710031+9999ME1315129OA149900151REMSYN076AAXX  16044 06782 33/// /3401 11041 21122 38846 48512 57003 333 91103 91202;
0137067820999992010011605004+46700+008850FM-12+118099999V0200201N000519999999N9999999N1-00431-01281999999ADDMA1999999088421MD1710091+9999ME1315089OA149900151REMSYN076AAXX  16054 06782 33/// /0201 11043 21128 38842 48508 57009 333 91103 91201;
0234067820999992010011606004+46700+008850FM-12+118099999V0203201N000519999999N9999999N1-00401-01411999999ADDAA124000091AL19900091GJ101089IA2999-01209KA1999N-00481MA1999999088411MD1710061+9999ME1315089OA149900261REMSYN100AAXX  16064 06782 33/// /3201 11040 21141 38841 48508 57006 333 21048 3/112 55018 70000 91105 91202;EQDQ01  00002PRCP24
0137067820999992010011607004+46700+008850FM-12+118099999V0203001N000519999999N9999999N1-00431-01591999999ADDMA1999999088421MD1710041+9999ME1315089OA149900211REMSYN076AAXX  16074 06782 33/// /3001 11043 21159 38842 48508 57004 333 91104 91202;
0137067820999992010011608004+46700+008850FM-12+118099999V0202801N000519999999N9999999N1-00371-01321999999ADDMA1999999088401MD1710021+9999ME1315079OA149900151REMSYN076AAXX  16084 06782 33/// /2801 11037 21132 38840 48507 57002 333 91103 91202;
0137067820999992010011609004+46700+008850FM-12+118099999V0200301N000519999999N9999999N1-00331-01291999999ADDMA1999999088371MD1710041+9999ME1315059OA149900211REMSYN076AAXX  16094 06782 33/// /0301 11033 21129 38837 48505 57004 333 91104 91202;
0137067820999992010011610004+46700+008850FM-12+118099999V0200801N000519999999N9999999N1-00221-01241999999ADDMA1999999088311MD1710111+9999ME1315019OA149900211REMSYN076AAXX  16104 06782 33/// /0801 11022 21124 38831 48501 57011 333 91104 91202;
0137067820999992010011611004+46700+008850FM-12+118099999V0209999C000019999999N9999999N1+00051-01171999999ADDMA1999999088231MD1810171+9999ME1314979OA149900261REMSYN076AAXX  16114 06782 33/// /0000 10005 21117 38823 48497 58017 333 91105 91201;
0213067820999992010011612004+46700+008850FM-12+118099999V0202201N000512200019N0120001N1+00221-01131999999ADDAY111061AY211061GA1041+087001001GF104991999999999999999999MA1999999088161MD1810211+9999ME1314939MW1101OA149900261REMSYN088AAXX  16124 06782 31962 42201 10022 21113 38816 48493 58021 71011 333 84079 91105 91202;
0137067820999992010011613004+46700+008850FM-12+118099999V0200301N000519999999N9999999N1+00471-01251999999ADDMA1999999088111MD1610201+9999ME1314919OA149900261REMSYN076AAXX  16134 06782 33/// /0301 10047 21125 38811 48491 56020 333 91105 91201;
0137067820999992010011614004+46700+008850FM-12+118099999V0200501N001519999999N9999999N1+00501-01351999999ADDMA1999999088081MD1719999+9999ME1314889OA149900621REMSYN076AAXX  16144 06782 33/// /0503 10050 21135 38808 48488 57/// 333 91112 91203;
0137067820999992010011615004+46700+008850FM-12+118099999V0200101N001519999999N9999999N1+00401-01101999999ADDMA1999999088081MD1710081+9999ME1314879OA149900621REMSYN076AAXX  16154 06782 33/// /0103 10040 21110 38808 48487 57008 333 91112 91203;
0137067820999992010011616004+46700+008850FM-12+118099999V0203001N001019999999N9999999N1+00271-00941999999ADDMA1999999088091MD1510021+9999ME1314879OA149900671REMSYN076AAXX  16164 06782 33/// /3002 10027 21094 38809 48487 55002 333 91113 91203;
0137067820999992010011617004+46700+008850FM-12+118099999V0202501N001519999999N9999999N1+00261-01011999999ADDMA1999999088071MD1010011+9999ME1314859OA149900671REMSYN076AAXX  16174 06782 33/// /2503 10026 21101 38807 48485 50001 333 91113 91203;
0255067820999992010011618004+46700+008850FM-12+118099999V0203201N001012200019N0100001N1+00271-00971999999ADDAJ100349199999999AL19900091GA1031+087001001GF103991999999999999999999IA1279KA1120M+00501MA1999999088081MD1510001+9999ME1314869OA149900671REMSYN106AAXX  16184 06782 32960 33202 10027 21097 38808 48486 55000 333 10050 43034 83079 90766 93100 91113 91203;
0137067820999992010011619004+46700+008850FM-12+118099999V0200501N000519999999N9999999N1+00371-01041999999ADDMA1999999088071MD1710021+9999ME1314869OA149900571REMSYN076AAXX  16194 06782 33/// /0501 10037 21104 38807 48486 57002 333 91111 91204;
0137067820999992010011620004+46700+008850FM-12+118099999V0202401N001019999999N9999999N1+00321-00881999999ADDMA1999999088031MD1810041+9999ME1314829OA149900621REMSYN076AAXX  16204 06782 33/// /2402 10032 21088 38803 48482 58004 333 91112 91204;
0137067820999992010011621004+46700+008850FM-12+118099999V0201001N000519999999N9999999N1+00331-00981999999ADDMA1999999087991MD1710091+9999ME1314789OA149900881REMSYN076AAXX  16214 06782 33/// /1001 10033 21098 38799 48478 57009 333 91117 91204;
0137067820999992010011622004+46700+008850FM-12+118099999V0202401N000519999999N9999999N1+00341-00951999999ADDMA1999999087971MD1710101+9999ME1314769OA149900881REMSYN076AAXX  16224 06782 33/// /2401 10034 21095 38797 48476 57010 333 91117 91204;
0137067820999992010011623004+46700+008850FM-12+118099999V0202101N001019999999N9999999N1+00391-01061999999ADDMA1999999087931MD1710101+9999ME1314739OA149900931REMSYN076AAXX  16234 06782 33/// /2102 10039 21106 38793 48473 57010 333 91118 91203;
0137067820999992010011700004+46700+008850FM-12+118099999V0203001N001519999999N9999999N1+00331-00691999999ADDMA1999999087951MD1510041+9999ME1314759OA149900931REMSYN076AAXX  17004 06782 33/// /3003 10033 21069 38795 48475 55004 333 91118 91204;
0137067820999992010011701004+46700+008850FM-12+118099999V0203001N001019999999N9999999N1+00181-00441999999ADDMA1999999088061MD1310091+9999ME1314839OA149900571REMSYN076AAXX  17014 06782 33/// /3002 10018 21044 38806 48483 53009 333 91111 91204;
0137067820999992010011702004+46700+008850FM-12+118099999V0202001N000519999999N9999999N1-00021-00271999999ADDMA1999999088031MD1219999+9999ME1314789OA149900571REMSYN076AAXX  17024 06782 33/// /2001 11002 21027 38803 48478 52/// 333 91111 91204;
0096067820999992010011703004+46700+008850FM-12+118099999V0202301N000519999999N9999999N1-00011-00461999999ADDMA1999999088011ME1314769REMSYN060AAXX  17034 06782 43/// /2301 11001 21046 38801 48476 5////;
