0137067880999992010010100004+46517+009183FM-12+161199999V0202601N002119999999N9999999N1-00981-01281999999ADDMA1999999081471MD1710121+9999ME1312909OA149901131REMSYN076AAXX  01004 06788 33/// /2604 11098 21128 38147 48290 57012 333 91122 91213;
0137067880999992010010101004+46517+009183FM-12+161199999V0202401N003619999999N9999999N1-00871-01281999999ADDMA1999999081441MD1710131+9999ME1312859OA149900411REMSYN076AAXX  01014 06788 33/// /2407 11087 21128 38144 48285 57013 333 91108 91207;
0137067880999992010010102004+46517+009183FM-12+161199999V0202601N000519999999N9999999N1-01151-01341999999ADDMA1999999081421MD1719999+9999ME1312879OA149900411REMSYN076AAXX  01024 06788 33/// /2601 11115 21134 38142 48287 57/// 333 91108 91207;
0096067880999992010010103004+46517+009183FM-12+161199999V0200901N000519999999N9999999N1-01041-01331999999ADDMA1999999081351ME1312799REMSYN060AAXX  01034 06788 43/// /0901 11104 21133 38135 48279 5////;
0096067880999992010010104004+46517+009183FM-12+161199999V0202601N000519999999N9999999N1-00991-01331999999ADDMA1999999081311ME1312749REMSYN060AAXX  01044 06788 33/// /2601 11099 21133 38131 48274 5////;
0137067880999992010010105004+46517+009183FM-12+161199999V0202601N001019999999N9999999N1-00831-01181999999ADDMA1999999081251MD1810171+9999ME1312679OA149900361REMSYN076AAXX  01054 06788 33/// /2602 11083 21118 38125 48267 58017 333 91107 91205;
0215067880999992010010106004+46517+009183FM-12+161199999V0202501N001519999999N9999999N1-00751-01101999999ADDAA124001891AL14800191GJ100009IA2999+00009KA1999N-01201MA1999999081231MD1710121+9999ME1312649OA149900411REMSYN100AAXX  01064 06788 33/// /2503 11075 21110 38123 48264 57012 333 21120 3/100 55000 70018 91108 91207;
0137067880999992010010107004+46517+009183FM-12+161199999V0209999C000019999999N9999999N1-00951-01241999999ADDMA1999999081221MD1710091+9999ME1312659OA149900311REMSYN076AAXX  01074 06788 33/// /0000 11095 21124 38122 48265 57009 333 91106 91204;
0137067880999992010010108004+46517+009183FM-12+161199999V0202701N000519999999N9999999N1-00991-01271999999ADDMA1999999081281MD1310031+9999ME1312729OA149900311REMSYN076AAXX  01084 06788 33/// /2701 11099 21127 38128 48272 53003 333 91106 91204;
0137067880999992010010109004+46517+009183FM-12+161199999V0202501N003119999999N9999999N1-00571-01081999999ADDMA1999999081321MD1210091+9999ME1312709OA149900411REMSYN076AAXX  01094 06788 33/// /2506 11057 21108 38132 48270 52009 333 91108 91206;
0137067880999992010010110004+46517+009183FM-12+161199999V0202401N001519999999N9999999N1-00631-00991999999ADDMA1999999081331MD1210111+9999ME1312729OA149900511REMSYN076AAXX  01104 06788 33/// /2403 11063 21099 38133 48272 52011 333 91110 91206;
0137067880999992010010111004+46517+009183FM-12+161199999V0202601N000519999999N9999999N1-00531-00931999999ADDMA1999999081271MD1010011+9999ME1312649OA149900511REMSYN076AAXX  01114 06788 33/// /2601 11053 21093 38127 48264 50001 333 91110 91205;
0137067880999992010010112004+46517+009183FM-12+161199999V0202301N001519999999N9999999N1-00531-00941999999ADDMA1999999081261MD1710061+9999ME1312639OA149900511REMSYN076AAXX  01124 06788 33/// /2303 11053 21094 38126 48263 57006 333 91110 91207;
0137067880999992010010113004+46517+009183FM-12+161199999V0202401N001519999999N9999999N1-00511-00911999999ADDMA1999999081281MD1510051+9999ME1312659OA149900261REMSYN076AAXX  01134 06788 33/// /2403 11051 21091 38128 48265 55005 333 91105 91203;
0137067880999992010010114004+46517+009183FM-12+161199999V0209999C000019999999N9999999N1-00461-00861999999ADDMA1999999081341MD1219999+9999ME1312709OA149900311REMSYN076AAXX  01144 06788 33/// /0000 11046 21086 38134 48270 52/// 333 91106 91205;
0137067880999992010010115004+46517+009183FM-12+161199999V0209999C000019999999N9999999N1-00381-00821999999ADDMA1999999081401MD1210141+9999ME1312759OA149900511REMSYN076AAXX  01154 06788 33/// /0000 11038 21082 38140 48275 52014 333 91110 91205;
0137067880999992010010116004+46517+009183FM-12+161199999V0202301N000519999999N9999999N1-00351-00781999999ADDMA1999999081461MD1210181+9999ME1312819OA149900151REMSYN076AAXX  01164 06788 33/// /2301 11035 21078 38146 48281 52018 333 91103 91202;
0137067880999992010010117004+46517+009183FM-12+161199999V0209999C000019999999N9999999N1-00431-00721999999ADDMA1999999081521MD1210181+9999ME1312889OA149900211REMSYN076AAXX  01174 06788 33/// /0000 11043 21072 38152 48288 52018 333 91104 91203;
0156067880999992010010118004+46517+009183FM-12+161199999V0202401N001019999999N9999999N1-00311-00671999999ADDKA1120M-00341MA1999999081611MD1210211+9999ME1312959OA149900511REMSYN082AAXX  01184 06788 33/// /2402 11031 21067 38161 48295 52021 333 11034 91110 91206;
0137067880999992010010119004+46517+009183FM-12+161199999V0202501N001019999999N9999999N1-00431-00621999999ADDMA1999999081691MD1310231+9999ME1313049OA149900151REMSYN076AAXX  01194 06788 33/// /2502 11043 21062 38169 48304 53023 333 91103 91202;
0154067880999992010010120004+46517+009183FM-12+161199999V0203601N000519999999N9999999N1-00431-00581999999ADDAA101000021MA1999999081771MD1210251+9999ME1313129OA149900211REMSYN082AAXX  01204 06788 23/// /3601 11043 21058 38177 48312 52025 333 69915 91104 91202;
0137067880999992010010121004+46517+009183FM-12+161199999V0200701N001519999999N9999999N1-00361-00531999999ADDMA1999999081871MD1210261+9999ME1313219OA149900411REMSYN076AAXX  01214 06788 33/// /0703 11036 21053 38187 48321 52026 333 91108 91203;
0137067880999992010010122004+46517+009183FM-12+161199999V0200701N005119999999N9999999N1-00181-00521999999ADDMA1999999081941MD1210251+9999ME1313269OA149900981REMSYN076AAXX  01224 06788 33/// /0710 11018 21052 38194 48326 52025 333 91119 91211;
0137067880999992010010123004+46517+009183FM-12+161199999V0200801N004619999999N9999999N1-00231-00531999999ADDMA1999999082011MD1210241+9999ME1313339OA149900981REMSYN076AAXX  01234 06788 33/// /0809 11023 21053 38201 48333 52024 333 91119 91211;
0179067880999992010010200004+46517+009183FM-12+161199999V0200301N003119999999N9999999N1-00251-00581999999ADDAA106000091MA1999999082051MD1210181+9999ME1313379OA149900981REMSYN088AAXX  02004 06788 03/// /0306 11025 21058 38205 48337 52018 69911 333 60005 91119 91211;EQDQ01  00002PRCP06
0137067880999992010010201004+46517+009183FM-12+161199999V0200401N004119999999N9999999N1-00301-00691999999ADDMA1999999082091MD1210151+9999ME1313429OA149900821REMSYN076AAXX  02014 06788 33/// /0408 11030 21069 38209 48342 52015 333 91116 91209;
0096067880999992010010202004+46517+009183FM-12+161199999V0200501N004119999999N9999999N1-00351-00631999999ADDMA1999999082151ME1313489REMSYN060AAXX  02024 06788 33/// /0508 11035 21063 38215 48348 5////;
0137067880999992010010203004+46517+009183FM-12+161199999V0200401N004619999999N9999999N1-00361-00711999999ADDMA1999999082211MD1210161+9999ME1313549OA149900981REMSYN076AAXX  02034 06788 33/// /0409 11036 21071 38221 48354 52016 333 91119 91211;
0137067880999992010010204004+46517+009183FM-12+161199999V0200301N005119999999N9999999N1-00431-00881999999ADDMA1999999082261MD1210171+9999ME1313599OA149901131REMSYN076AAXX  02044 06788 33/// /0310 11043 21088 38226 48359 52017 333 91122 91212;
0137067880999992010010205004+46517+009183FM-12+161199999V0209999C004119999999N9999999N1-00521-01081999999ADDMA1999999082321MD1310171+9999ME1313669OA149901131REMSYN076AAXX  02054 06788 33/// /0008 11052 21108 38232 48366 53017 333 91122 91212;
0273067880999992010010206004+46517+009183FM-12+161199999V0200101N003619999999N9999999N1-00611-01391999999ADDAA112000091AA224000091AL10600091GJ100309IA2999+00009KA1999N-00581MA1999999082391MD1310181+9999ME1313749OA149901241REMSYN112AAXX  02064 06788 03/// /0107 11061 21139 38239 48374 53018 69912 333 21058 3/100 55005 60005 70001 91124 91212;EQDQ01  00002PRCP24Q02  00002PRCP12
0137067880999992010010207004+46517+009183FM-12+161199999V0200301N003119999999N9999999N1-00691-01411999999ADDMA1999999082471MD1210211+9999ME1313829OA149901241REMSYN076AAXX  02074 06788 33/// /0306 11069 21141 38247 48382 52021 333 91124 91211;
0096067880999992010010208004+46517+009183FM-12+161199999V0200301N005719999999N9999999N1-00771-01391999999ADDMA1999999082541ME1313899REMSYN060AAXX  02084 06788 33/// /0311 11077 21139 38254 48389 5////;
0137067880999992010010209004+46517+009183FM-12+161199999V0200501N004119999999N9999999N1-00801-01421999999ADDMA1999999082631MD1210241+9999ME1313989OA149901241REMSYN076AAXX  02094 06788 33/// /0508 11080 21142 38263 48398 52024 333 91124 91212;
0137067880999992010010210004+46517+009183FM-12+161199999V0200301N003619999999N9999999N1-00821-01601999999ADDMA1999999082681MD1210211+9999ME1314039OA149901081REMSYN076AAXX  02104 06788 33/// /0307 11082 21160 38268 48403 52021 333 91121 91212;
0137067880999992010010211004+46517+009183FM-12+161199999V0200301N004119999999N9999999N1-00801-01781999999ADDMA1999999082771MD1210231+9999ME1314119OA149901291REMSYN076AAXX  02114 06788 33/// /0308 11080 21178 38277 48411 52023 333 91125 91209;
0137067880999992010010212004+46517+009183FM-12+161199999V0203601N006219999999N9999999N1-00821-02311999999ADDMA1999999082841MD1210211+9999ME1314189OA149901701REMSYN076AAXX  02124 06788 33/// /3612 11082 21231 38284 48418 52021 333 91133 91212;
0137067880999992010010213004+46517+009183FM-12+161199999V0200801N008719999999N9999999N1-00871-02381999999ADDMA1999999082821MD1210141+9999ME1314179OA149901751REMSYN076AAXX  02134 06788 33/// /0817 11087 21238 38282 48417 52014 333 91134 91217;
0137067880999992010010214004+46517+009183FM-12+161199999V0200201N004619999999N9999999N1-00941-02301999999ADDMA1999999082921MD1219999+9999ME1314279OA149901851REMSYN076AAXX  02144 06788 33/// /0209 11094 21230 38292 48427 52/// 333 91136 91217;
0137067880999992010010215004+46517+009183FM-12+161199999V0200401N004619999999N9999999N1-01001-02611999999ADDMA1999999082991MD1210151+9999ME1314349OA149901851REMSYN076AAXX  02154 06788 33/// /0409 11100 21261 38299 48434 52015 333 91136 91217;
0137067880999992010010216004+46517+009183FM-12+161199999V0200501N005719999999N9999999N1-01031-01911999999ADDMA1999999083061MD1210241+9999ME1314409OA149901541REMSYN076AAXX  02164 06788 33/// /0511 11103 21191 38306 48440 52024 333 91130 91214;
0137067880999992010010217004+46517+009183FM-12+161199999V0200401N004119999999N9999999N1-01041-01851999999ADDMA1999999083151MD1210231+9999ME1314499OA149901601REMSYN076AAXX  02174 06788 33/// /0408 11104 21185 38315 48449 52023 333 91131 91214;
0156067880999992010010218004+46517+009183FM-12+161199999V0200301N006719999999N9999999N1-01081-02141999999ADDKA1120M-00611MA1999999083161MD1210171+9999ME1314509OA149901851REMSYN082AAXX  02184 06788 33/// /0313 11108 21214 38316 48450 52017 333 11061 91136 91217;
0137067880999992010010219004+46517+009183FM-12+161199999V0200401N006219999999N9999999N1-01091-02231999999ADDMA1999999083221MD1210161+9999ME1314569OA149901801REMSYN076AAXX  02194 06788 33/// /0412 11109 21223 38322 48456 52016 333 91135 91213;
0137067880999992010010220004+46517+009183FM-12+161199999V0200401N005119999999N9999999N1-01121-01851999999ADDMA1999999083261MD1210111+9999ME1314599OA149901701REMSYN076AAXX  02204 06788 33/// /0410 11112 21185 38326 48459 52011 333 91133 91212;
0137067880999992010010221004+46517+009183FM-12+161199999V0200201N005119999999N9999999N1-01161-02451999999ADDMA1999999083271MD1210111+9999ME1314619OA149901801REMSYN076AAXX  02214 06788 33/// /0210 11116 21245 38327 48461 52011 333 91135 91214;
0137067880999992010010222004+46517+009183FM-12+161199999V0200401N006219999999N9999999N1-01171-02391999999ADDMA1999999083301MD1210081+9999ME1314639OA149901291REMSYN076AAXX  02224 06788 33/// /0412 11117 21239 38330 48463 52008 333 91125 91213;
0137067880999992010010223004+46517+009183FM-12+161199999V0200301N006719999999N9999999N1-01211-02621999999ADDMA1999999083341MD1210081+9999ME1314679OA149901291REMSYN076AAXX  02234 06788 33/// /0313 11121 21262 38334 48467 52008 333 91125 91213;
0137067880999992010010300004+46517+009183FM-12+161199999V0200501N003619999999N9999999N1-01361-02591999999ADDMA1999999083351MD1210081+9999ME1314699OA149901851REMSYN076AAXX  03004 06788 33/// /0507 11136 21259 38335 48469 52008 333 91136 91217;
0137067880999992010010301004+46517+009183FM-12+161199999V0200901N003619999999N9999999N1-01341-02311999999ADDMA1999999083381MD1210081+9999ME1314729OA149900931REMSYN076AAXX  03014 06788 33/// /0907 11134 21231 38338 48472 52008 333 91118 91213;
0096067880999992010010302004+46517+009183FM-12+161199999V0202501N002119999999N9999999N1-01451-02071999999ADDMA1999999083431ME1314779REMSYN060AAXX  03024 06788 33/// /2504 11145 21207 38343 48477 5////;
0096067880999992010010303004+46517+009183FM-12+161199999V0202101N000519999999N9999999N1-01651-02071999999ADDMA1999999083451ME1314809REMSYN060AAXX  03034 06788 33/// /2101 11165 21207 38345 48480 5////;
0137067880999992010010304004+46517+009183FM-12+161199999V0202501N001019999999N9999999N1-01671-02171999999ADDMA1999999083431MD1210051+9999ME1314789OA149900411REMSYN076AAXX  03044 06788 33/// /2502 11167 21217 38343 48478 52005 333 91108 91205;
0137067880999992010010305004+46517+009183FM-12+161199999V0202601N000519999999N9999999N1-01921-02131999999ADDMA1999999083461MD1319999+9999ME1314829OA149900411REMSYN076AAXX  03054 06788 33/// /2601 11192 21213 38346 48482 53/// 333 91108 91205;
0234067880999992010010306004+46517+009183FM-12+161199999V0209999C000019999999N9999999N1-01941-02221999999ADDAA124000091AL19900091GJ101089IA2999+00009KA1999N-01961MA1999999083441MD1710011+9999ME1314819OA149901701REMSYN100AAXX  03064 06788 33/// /0000 11194 21222 38344 48481 57001 333 21196 3/100 55018 70000 91133 91213;EQDQ01  00002PRCP24
0172067880999992010010307004+46517+009183FM-12+161199999V0202401N000519999999N9999999N1-01771+99999999999ADDMA1999999083481MD1210051+9999ME1314839OA149900311REMSYN076AAXX  03074 06788 33/// /2401 11177 21361 38348 48483 52005 333 91106 91204;EQDQ01-003613ATOD  Q02 -03613ATOD  
0137067880999992010010308004+46517+009183FM-12+161199999V0202501N000519999999N9999999N1-02051-02341999999ADDMA1999999083491MD1219999+9999ME1314869OA149900261REMSYN076AAXX  03084 06788 33/// /2501 11205 21234 38349 48486 52/// 333 91105 91203;
0137067880999992010010309004+46517+009183FM-12+161199999V0209999C000019999999N9999999N1-01961-02271999999ADDMA1999999083501MD1210061+9999ME1314869OA149900411REMSYN076AAXX  03094 06788 33/// /0000 11196 21227 38350 48486 52006 333 91108 91205;
0137067880999992010010310004+46517+009183FM-12+161199999V0202801N001019999999N9999999N1-02071-02371999999ADDMA1999999083501MD1210021+9999ME1314879OA149900311REMSYN076AAXX  03104 06788 33/// /2802 11207 21237 38350 48487 52002 333 91106 91202;
0137067880999992010010311004+46517+009183FM-12+161199999V0200601N000519999999N9999999N1-01521-02291999999ADDMA1999999083401MD1710091+9999ME1314759OA149900411REMSYN076AAXX  03114 06788 33/// /0601 11152 21229 38340 48475 57009 333 91108 91205;
0137067880999992010010312004+46517+009183FM-12+161199999V0202401N001019999999N9999999N1-01481-02271999999ADDMA1999999083361MD1710141+9999ME1314719OA149900721REMSYN076AAXX  03124 06788 33/// /2402 11148 21227 38336 48471 57014 333 91114 91208;
0137067880999992010010313004+46517+009183FM-12+161199999V0202501N001519999999N9999999N1-01461-02231999999ADDMA1999999083311MD1710191+9999ME1314669OA149900461REMSYN076AAXX  03134 06788 33/// /2503 11146 21223 38331 48466 57019 333 91109 91205;
0137067880999992010010314004+46517+009183FM-12+161199999V0202701N001519999999N9999999N1-01471-02221999999ADDMA1999999083311MD1710091+9999ME1314669OA149900461REMSYN076AAXX  03144 06788 33/// /2703 11147 21222 38331 48466 57009 333 91109 91205;
0137067880999992010010315004+46517+009183FM-12+161199999V0202301N000519999999N9999999N1-01221-02281999999ADDMA1999999083321MD1510041+9999ME1314669OA149900511REMSYN076AAXX  03154 06788 33/// /2301 11122 21228 38332 48466 55004 333 91110 91205;
0137067880999992010010316004+46517+009183FM-12+161199999V0202201N002119999999N9999999N1-01461-02271999999ADDMA1999999083341MD1210031+9999ME1314699OA149900511REMSYN076AAXX  03164 06788 33/// /2204 11146 21227 38334 48469 52003 333 91110 91204;
0137067880999992010010317004+46517+009183FM-12+161199999V0202601N002119999999N9999999N1-01561-02091999999ADDMA1999999083321MD1810011+9999ME1314689OA149900571REMSYN076AAXX  03174 06788 33/// /2604 11156 21209 38332 48468 58001 333 91111 91206;
0156067880999992010010318004+46517+009183FM-12+161199999V0202501N000519999999N9999999N1-01651-02231999999ADDKA1120M-01111MA1999999083351MD1210031+9999ME1314719OA149900571REMSYN082AAXX  03184 06788 33/// /2501 11165 21223 38335 48471 52003 333 11111 91111 91206;
0137067880999992010010319004+46517+009183FM-12+161199999V0202901N000519999999N9999999N1-01601-02151999999ADDMA1999999083341MD1510001+9999ME1314709OA149900361REMSYN076AAXX  03194 06788 33/// /2901 11160 21215 38334 48470 55000 333 91107 91205;
0137067880999992010010320004+46517+009183FM-12+161199999V0202501N000519999999N9999999N1-01781-02261999999ADDMA1999999083321MD1010001+9999ME1314699OA149900361REMSYN076AAXX  03204 06788 33/// /2501 11178 21226 38332 48469 50000 333 91107 91205;
0137067880999992010010321004+46517+009183FM-12+161199999V0202501N001519999999N9999999N1-01771-02321999999ADDMA1999999083321MD1710031+9999ME1314699OA149900571REMSYN076AAXX  03214 06788 33/// /2503 11177 21232 38332 48469 57003 333 91111 91206;
0137067880999992010010322004+46517+009183FM-12+161199999V0202701N001019999999N9999999N1-01921-02371999999ADDMA1999999083321MD1510021+9999ME1314709OA149900361REMSYN076AAXX  03224 06788 33/// /2702 11192 21237 38332 48470 55002 333 91107 91205;
0137067880999992010010323004+46517+009183FM-12+161199999V0202601N001019999999N9999999N1-01831-02261999999ADDMA1999999083291MD1710031+9999ME1314679OA149900311REMSYN076AAXX  03234 06788 33/// /2602 11183 21226 38329 48467 57003 333 91106 91203;
0137067880999992010010400004+46517+009183FM-12+161199999V0201901N003619999999N9999999N1-01221-02331999999ADDMA1999999083271MD1810051+9999ME1314619OA149900721REMSYN076AAXX  04004 06788 33/// /1907 11122 21233 38327 48461 58005 333 91114 91207;
0137067880999992010010401004+46517+009183FM-12+161199999V0202701N001019999999N9999999N1-01631-02311999999ADDMA1999999083211MD1710111+9999ME1314589OA149900721REMSYN076AAXX  04014 06788 33/// /2702 11163 21231 38321 48458 57011 333 91114 91207;
0137067880999992010010402004+46517+009183FM-12+161199999V0209999C000019999999N9999999N1-01701-02131999999ADDMA1999999083171MD1710121+9999ME1314559OA149900511REMSYN076AAXX  04024 06788 33/// /0000 11170 21213 38317 48455 57012 333 91110 91205;
0137067880999992010010403004+46517+009183FM-12+161199999V0202201N004619999999N9999999N1-00941-02461999999ADDMA1999999083111MD1719999+9999ME1314449OA149900821REMSYN076AAXX  04034 06788 33/// /2209 11094 21246 38311 48444 57/// 333 91116 91209;
0137067880999992010010404004+46517+009183FM-12+161199999V0202201N005719999999N9999999N1-00931-02301999999ADDMA1999999083081MD1710131+9999ME1314419OA149900981REMSYN076AAXX  04044 06788 33/// /2211 11093 21230 38308 48441 57013 333 91119 91212;
0137067880999992010010405004+46517+009183FM-12+161199999V0202301N006719999999N9999999N1-00981-02321999999ADDMA1999999083031MD1710141+9999ME1314379OA149901131REMSYN076AAXX  04054 06788 33/// /2313 11098 21232 38303 48437 57014 333 91122 91215;
0234067880999992010010406004+46517+009183FM-12+161199999V0202601N004619999999N9999999N1-00991-02141999999ADDAA124000091AL19900091GJ101629IA2999-00109KA1999N-01981MA1999999083021MD1710091+9999ME1314369OA149901131REMSYN100AAXX  04064 06788 33/// /2609 11099 21214 38302 48436 57009 333 21198 3/101 55027 70000 91122 91215;EQDQ01  00002PRCP24
0137067880999992010010407004+46517+009183FM-12+161199999V0202201N006719999999N9999999N1-00961-02301999999ADDMA1999999083041MD1510041+9999ME1314389OA149900981REMSYN076AAXX  04074 06788 33/// /2213 11096 21230 38304 48438 55004 333 91119 91213;
0137067880999992010010408004+46517+009183FM-12+161199999V0202301N005119999999N9999999N1-00931-02011999999ADDMA1999999083021MD1710011+9999ME1314369OA149900981REMSYN076AAXX  04084 06788 33/// /2310 11093 21201 38302 48436 57001 333 91119 91213;
0137067880999992010010409004+46517+009183FM-12+161199999V0202401N006719999999N9999999N1-00851-01981999999ADDMA1999999083011MD1010011+9999ME1314349OA149901341REMSYN076AAXX  04094 06788 33/// /2413 11085 21198 38301 48434 50001 333 91126 91216;
0137067880999992010010410004+46517+009183FM-12+161199999V0202301N007219999999N9999999N1-00861-01951999999ADDMA1999999082991MD1710051+9999ME1314339OA149901341REMSYN076AAXX  04104 06788 33/// /2314 11086 21195 38299 48433 57005 333 91126 91216;
0137067880999992010010411004+46517+009183FM-12+161199999V0202201N007719999999N9999999N1-00831-02862999999ADDMA1999999082931MD1710091+9999ME1314279OA149901181REMSYN076AAXX  04114 06788 33/// /2215 11083 21286 38293 48427 57009 333 91123 91215;
0137067880999992010010412004+46517+009183FM-12+161199999V0202301N007219999999N9999999N1-00871-02571999999ADDMA1999999082901MD1710111+9999ME1314249OA149901341REMSYN076AAXX  04124 06788 33/// /2314 11087 21257 38290 48424 57011 333 91126 91217;
0137067880999992010010413004+46517+009183FM-12+161199999V0201901N006219999999N9999999N1-00831-02601999999ADDMA1999999082811MD1710181+9999ME1314159OA149901241REMSYN076AAXX  04134 06788 33/// /1912 11083 21260 38281 48415 57018 333 91124 91217;
0137067880999992010010414004+46517+009183FM-12+161199999V0202101N004119999999N9999999N1-00761-02001999999ADDMA1999999082761MD1719999+9999ME1314109OA149901031REMSYN076AAXX  04144 06788 33/// /2108 11076 21200 38276 48410 57/// 333 91120 91214;
0137067880999992010010415004+46517+009183FM-12+161199999V0201901N004619999999N9999999N1-00741-02011999999ADDMA1999999082741MD1710161+9999ME1314089OA149901241REMSYN076AAXX  04154 06788 33/// /1909 11074 21201 38274 48408 57016 333 91124 91217;
0137067880999992010010416004+46517+009183FM-12+161199999V0201901N006219999999N9999999N1-00811-02391999999ADDMA1999999082751MD1710061+9999ME1314109OA149900931REMSYN076AAXX  04164 06788 33/// /1912 11081 21239 38275 48410 57006 333 91118 91213;
0137067880999992010010417004+46517+009183FM-12+161199999V0201801N004619999999N9999999N1-00821-02351999999ADDMA1999999082711MD1710051+9999ME1314069OA149900931REMSYN076AAXX  04174 06788 33/// /1809 11082 21235 38271 48406 57005 333 91118 91213;
0156067880999992010010418004+46517+009183FM-12+161199999V0202101N003619999999N9999999N1-00971-02291999999ADDKA1120M-00701MA1999999082701MD1710041+9999ME1314069OA149901341REMSYN082AAXX  04184 06788 33/// /2107 11097 21229 38270 48406 57004 333 11070 91126 91217;
0137067880999992010010419004+46517+009183FM-12+161199999V0201801N005119999999N9999999N1-00821-02351999999ADDMA1999999082681MD1710071+9999ME1314039OA149900931REMSYN076AAXX  04194 06788 33/// /1810 11082 21235 38268 48403 57007 333 91118 91210;
0137067880999992010010420004+46517+009183FM-12+161199999V0202001N005119999999N9999999N1-00801-01731999999ADDMA1999999082671MD1710041+9999ME1314029OA149901031REMSYN076AAXX  04204 06788 33/// /2010 11080 21173 38267 48402 57004 333 91120 91212;
0137067880999992010010421004+46517+009183FM-12+161199999V0202601N003119999999N9999999N1-01171-02471999999ADDMA1999999082641MD1710061+9999ME1314029OA149901031REMSYN076AAXX  04214 06788 33/// /2606 11117 21247 38264 48402 57006 333 91120 91213;
0137067880999992010010422004+46517+009183FM-12+161199999V0202201N005719999999N9999999N1-00851-01691999999ADDMA1999999082651MD1510031+9999ME1314009OA149900931REMSYN076AAXX  04224 06788 33/// /2211 11085 21169 38265 48400 55003 333 91118 91211;
0137067880999992010010423004+46517+009183FM-12+161199999V0202201N005119999999N9999999N1-00741-01871999999ADDMA1999999082601MD1710071+9999ME1313959OA149900981REMSYN076AAXX  04234 06788 33/// /2210 11074 21187 38260 48395 57007 333 91119 91211;
0137067880999992010010500004+46517+009183FM-12+161199999V0202001N006719999999N9999999N1-00771-01551999999ADDMA1999999082551MD1810091+9999ME1313909OA149901031REMSYN076AAXX  05004 06788 33/// /2013 11077 21155 38255 48390 58009 333 91120 91214;
0137067880999992010010501004+46517+009183FM-12+161199999V0202301N005119999999N9999999N1-00741-01591999999ADDMA1999999082491MD1710161+9999ME1313849OA149901031REMSYN076AAXX  05014 06788 33/// /2310 11074 21159 38249 48384 57016 333 91120 91215;
0137067880999992010010502004+46517+009183FM-12+161199999V0202001N005119999999N9999999N1-00701-01741999999ADDMA1999999082451MD1810151+9999ME1313809OA149901031REMSYN076AAXX  05024 06788 33/// /2010 11070 21174 38245 48380 58015 333 91120 91215;
0137067880999992010010503004+46517+009183FM-12+161199999V0202401N002619999999N9999999N1-01041-01821999999ADDMA1999999082411MD1710141+9999ME1313799OA149901031REMSYN076AAXX  05034 06788 33/// /2405 11104 21182 38241 48379 57014 333 91120 91215;
0137067880999992010010504004+46517+009183FM-12+161199999V0202401N001019999999N9999999N1-01281-02501999999ADDMA1999999082371MD1710121+9999ME1313789OA149901031REMSYN076AAXX  05044 06788 33/// /2402 11128 21250 38237 48378 57012 333 91120 91212;
0137067880999992010010505004+46517+009183FM-12+161199999V0202701N000519999999N9999999N1-01371-02461999999ADDMA1999999082311MD1710141+9999ME1313739OA149900361REMSYN076AAXX  05054 06788 33/// /2701 11137 21246 38231 48373 57014 333 91107 91205;
0234067880999992010010506004+46517+009183FM-12+161199999V0202301N001019999999N9999999N1-01291-02961999999ADDAA124000091AL19900091GJ101569IA2999-01909KA1999N-01501MA1999999082301MD1710111+9999ME1313729OA149901031REMSYN100AAXX  05064 06788 33/// /2302 11129 21296 38230 48372 57011 333 21150 3/119 55026 70000 91120 91215;EQDQ01  00002PRCP24
0137067880999992010010507004+46517+009183FM-12+161199999V0202001N005119999999N9999999N1-00771-01781999999ADDMA1999999082271MD1710101+9999ME1313649OA149900931REMSYN076AAXX  05074 06788 33/// /2010 11077 21178 38227 48364 57010 333 91118 91211;
0137067880999992010010508004+46517+009183FM-12+161199999V0201801N006719999999N9999999N1-00751-01491999999ADDMA1999999082291MD1510021+9999ME1313659OA149901241REMSYN076AAXX  05084 06788 33/// /1813 11075 21149 38229 48365 55002 333 91124 91213;
0137067880999992010010509004+46517+009183FM-12+161199999V0202701N002119999999N9999999N1-00921-01981999999ADDMA1999999082231MD1710071+9999ME1313619OA149901241REMSYN076AAXX  05094 06788 33/// /2704 11092 21198 38223 48361 57007 333 91124 91214;
0137067880999992010010510004+46517+009183FM-12+161199999V0202401N000519999999N9999999N1-01011-01561999999ADDMA1999999082201MD1710071+9999ME1313599OA149901131REMSYN076AAXX  05104 06788 33/// /2401 11101 21156 38220 48359 57007 333 91122 91214;
0137067880999992010010511004+46517+009183FM-12+161199999V0202001N007219999999N9999999N1-00521-01361999999ADDMA1999999082121MD1710171+9999ME1313479OA149900981REMSYN076AAXX  05114 06788 33/// /2014 11052 21136 38212 48347 57017 333 91119 91214;
0137067880999992010010512004+46517+009183FM-12+161199999V0201801N008219999999N9999999N1-00581-01381999999ADDMA1999999082071MD1710161+9999ME1313439OA149901341REMSYN076AAXX  05124 06788 33/// /1816 11058 21138 38207 48343 57016 333 91126 91219;
0137067880999992010010513004+46517+009183FM-12+161199999V0202001N008719999999N9999999N1-00531-01341999999ADDMA1999999082011MD1710191+9999ME1313369OA149901341REMSYN076AAXX  05134 06788 33/// /2017 11053 21134 38201 48336 57019 333 91126 91219;
0096067880999992010010514004+46517+009183FM-12+161199999V0202001N008719999999N9999999N1-00571-01371999999ADDMA1999999081971ME1313339REMSYN060AAXX  05144 06788 33/// /2017 11057 21137 38197 48333 5////;
0137067880999992010010515004+46517+009183FM-12+161199999V0201901N007219999999N9999999N1-00551-01321999999ADDMA1999999081971MD1710101+9999ME1313339OA149901341REMSYN076AAXX  05154 06788 33/// /1914 11055 21132 38197 48333 57010 333 91126 91219;
0137067880999992010010516004+46517+009183FM-12+161199999V0202301N002119999999N9999999N1-00651-01261999999ADDMA1999999081931MD1710081+9999ME1313309OA149901131REMSYN076AAXX  05164 06788 33/// /2304 11065 21126 38193 48330 57008 333 91122 91217;
0137067880999992010010517004+46517+009183FM-12+161199999V0202201N001019999999N9999999N1-00661-01261999999ADDMA1999999081921MD1710051+9999ME1313299OA149901031REMSYN076AAXX  05174 06788 33/// /2202 11066 21126 38192 48329 57005 333 91120 91214;
0156067880999992010010518004+46517+009183FM-12+161199999V0202001N006219999999N9999999N1-00571-01261999999ADDKA1120M-00471MA1999999081901MD1710071+9999ME1313269OA149901341REMSYN082AAXX  05184 06788 33/// /2012 11057 21126 38190 48326 57007 333 11047 91126 91219;
0137067880999992010010519004+46517+009183FM-12+161199999V0201801N006219999999N9999999N1-00551-01171999999ADDMA1999999081891MD1710041+9999ME1313259OA149901031REMSYN076AAXX  05194 06788 33/// /1812 11055 21117 38189 48325 57004 333 91120 91214;
0137067880999992010010520004+46517+009183FM-12+161199999V0201901N001519999999N9999999N1-00551-01031999999ADDMA1999999081871MD1710051+9999ME1313239OA149901031REMSYN076AAXX  05204 06788 33/// /1903 11055 21103 38187 48323 57005 333 91120 91214;
0137067880999992010010521004+46517+009183FM-12+161199999V0202501N001519999999N9999999N1-00881-01341999999ADDMA1999999081831MD1710071+9999ME1313239OA149901031REMSYN076AAXX  05214 06788 33/// /2503 11088 21134 38183 48323 57007 333 91120 91214;
0137067880999992010010522004+46517+009183FM-12+161199999V0202301N001519999999N9999999N1-00971-01461999999ADDMA1999999081791MD1710101+9999ME1313209OA149900621REMSYN076AAXX  05224 06788 33/// /2303 11097 21146 38179 48320 57010 333 91112 91208;
0137067880999992010010523004+46517+009183FM-12+161199999V0202601N000519999999N9999999N1-01051-01531999999ADDMA1999999081761MD1710111+9999ME1313189OA149900311REMSYN076AAXX  05234 06788 33/// /2601 11105 21153 38176 48318 57011 333 91106 91205;
0137067880999992010010600004+46517+009183FM-12+161199999V0202501N001019999999N9999999N1-01101-01711999999ADDMA1999999081741MD1710091+9999ME1313179OA149901131REMSYN076AAXX  06004 06788 33/// /2502 11110 21171 38174 48317 57009 333 91122 91217;
0137067880999992010010601004+46517+009183FM-12+161199999V0203201N000519999999N9999999N1-01221-01871999999ADDMA1999999081741MD1710051+9999ME1313189OA149900311REMSYN076AAXX  06014 06788 33/// /3201 11122 21187 38174 48318 57005 333 91106 91204;
0137067880999992010010602004+46517+009183FM-12+161199999V0202701N001019999999N9999999N1-01301-02171999999ADDMA1999999081751MD1510011+9999ME1313209OA149900311REMSYN076AAXX  06024 06788 33/// /2702 11130 21217 38175 48320 55001 333 91106 91204;
0137067880999992010010603004+46517+009183FM-12+161199999V0202601N000519999999N9999999N1-01291-02311999999ADDMA1999999081711MD1810031+9999ME1313169OA149900311REMSYN076AAXX  06034 06788 33/// /2601 11129 21231 38171 48316 58003 333 91106 91205;
0137067880999992010010604004+46517+009183FM-12+161199999V0202801N001019999999N9999999N1-01301-02561999999ADDMA1999999081681MD1710061+9999ME1313149OA149900311REMSYN076AAXX  06044 06788 33/// /2802 11130 21256 38168 48314 57006 333 91106 91203;
0137067880999992010010605004+46517+009183FM-12+161199999V0202501N001519999999N9999999N1-01251-02591999999ADDMA1999999081721MD1510031+9999ME1313179OA149900311REMSYN076AAXX  06054 06788 33/// /2503 11125 21259 38172 48317 55003 333 91106 91204;
0234067880999992010010606004+46517+009183FM-12+161199999V0202601N001019999999N9999999N1-01241-02291999999ADDAA124000091AL19900091GJ101629IA2999-01809KA1999N-01471MA1999999081721MD1310011+9999ME1313179OA149901031REMSYN100AAXX  06064 06788 33/// /2602 11124 21229 38172 48317 53001 333 21147 3/118 55027 70000 91120 91214;EQDQ01  00002PRCP24
0137067880999992010010607004+46517+009183FM-12+161199999V0209999C000019999999N9999999N1-01201-01861999999ADDMA1999999081731MD1210051+9999ME1313179OA149900261REMSYN076AAXX  06074 06788 33/// /0000 11120 21186 38173 48317 52005 333 91105 91203;
0137067880999992010010608004+46517+009183FM-12+161199999V0202401N001019999999N9999999N1-01341-02181999999ADDMA1999999081731MD1010011+9999ME1313199OA149900261REMSYN076AAXX  06084 06788 33/// /2402 11134 21218 38173 48319 50001 333 91105 91203;
0137067880999992010010609004+46517+009183FM-12+161199999V0202401N000519999999N9999999N1-01351-02391999999ADDMA1999999081771MD1210051+9999ME1313239OA149900311REMSYN076AAXX  06094 06788 33/// /2401 11135 21239 38177 48323 52005 333 91106 91204;
0137067880999992010010610004+46517+009183FM-12+161199999V0202501N001519999999N9999999N1-01501-02891999999ADDMA1999999081811MD1210081+9999ME1313289OA149900261REMSYN076AAXX  06104 06788 33/// /2503 11150 21289 38181 48328 52008 333 91105 91203;
0137067880999992010010611004+46517+009183FM-12+161199999V0202801N000519999999N9999999N1-01211-02001999999ADDMA1999999081781MD1010051+9999ME1313229OA149900211REMSYN076AAXX  06114 06788 33/// /2801 11121 21200 38178 48322 50005 333 91104 91203;
0137067880999992010010612004+46517+009183FM-12+161199999V0202401N001019999999N9999999N1-01161-01881999999ADDMA1999999081761MD1710011+9999ME1313199OA149900311REMSYN076AAXX  06124 06788 33/// /2402 11116 21188 38176 48319 57001 333 91106 91204;
0137067880999992010010613004+46517+009183FM-12+161199999V0202601N001019999999N9999999N1-00991-01831999999ADDMA1999999081761MD1710051+9999ME1313179OA149900211REMSYN076AAXX  06134 06788 33/// /2602 11099 21183 38176 48317 57005 333 91104 91202;
0137067880999992010010614004+46517+009183FM-12+161199999V0209999C000019999999N9999999N1-01051-01791999999ADDMA1999999081771MD1519999+9999ME1313199OA149900361REMSYN076AAXX  06144 06788 33/// /0000 11105 21179 38177 48319 55/// 333 91107 91203;
0137067880999992010010615004+46517+009183FM-12+161199999V0209999C000019999999N9999999N1-01091-02151999999ADDMA1999999081821MD1210061+9999ME1313249OA149900361REMSYN076AAXX  06154 06788 33/// /0000 11109 21215 38182 48324 52006 333 91107 91203;
0137067880999992010010616004+46517+009183FM-12+161199999V0202401N001519999999N9999999N1-01181-02541999999ADDMA1999999081881MD1210121+9999ME1313319OA149900261REMSYN076AAXX  06164 06788 33/// /2403 11118 21254 38188 48331 52012 333 91105 91203;
0137067880999992010010617004+46517+009183FM-12+161199999V0202601N001519999999N9999999N1-01291-02521999999ADDMA1999999081901MD1210131+9999ME1313349OA149900261REMSYN076AAXX  06174 06788 33/// /2603 11129 21252 38190 48334 52013 333 91105 91203;
0156067880999992010010618004+46517+009183FM-12+161199999V0202601N000519999999N9999999N1-01161-02131999999ADDKA1120M-00861MA1999999081931MD1210111+9999ME1313359OA149900361REMSYN082AAXX  06184 06788 33/// /2601 11116 21213 38193 48335 52011 333 11086 91107 91203;
0137067880999992010010619004+46517+009183FM-12+161199999V0202901N000519999999N9999999N1-01251-02071999999ADDMA1999999081981MD1210101+9999ME1313419OA149900311REMSYN076AAXX  06194 06788 33/// /2901 11125 21207 38198 48341 52010 333 91106 91203;
0137067880999992010010620004+46517+009183FM-12+161199999V0202501N000519999999N9999999N1-01311-02411999999ADDMA1999999081991MD1210091+9999ME1313439OA149900261REMSYN076AAXX  06204 06788 33/// /2501 11131 21241 38199 48343 52009 333 91105 91203;
0137067880999992010010621004+46517+009183FM-12+161199999V0209999C000019999999N9999999N1-01121-02071999999ADDMA1999999082011MD1210081+9999ME1313439OA149900311REMSYN076AAXX  06214 06788 33/// /0000 11112 21207 38201 48343 52008 333 91106 91203;
0137067880999992010010622004+46517+009183FM-12+161199999V0201801N000519999999N9999999N1-01091-01701999999ADDMA1999999082041MD1210061+9999ME1313459OA149900261REMSYN076AAXX  06224 06788 33/// /1801 11109 21170 38204 48345 52006 333 91105 91203;
0154067880999992010010623004+46517+009183FM-12+161199999V0200901N000519999999N9999999N1-01021-01551999999ADDAA101000021MA1999999082041MD1210051+9999ME1313449OA149900211REMSYN082AAXX  06234 06788 23/// /0901 11102 21155 38204 48344 52005 333 69925 91104 91203;
0160067880999992010010700004+46517+009183FM-12+161199999V0202701N000519999999N9999999N1-01071-01601999999ADDAA106000391MA1999999082051MD1210041+9999ME1313469OA149900361REMSYN088AAXX  07004 06788 03/// /2701 11107 21160 38205 48346 52004 69931 333 69915 91107 91203;
0154067880999992010010701004+46517+009183FM-12+161199999V0200601N001019999999N9999999N1-01051-01431999999ADDAA101000021MA1999999082051MD1310011+9999ME1313469OA149900211REMSYN082AAXX  07014 06788 23/// /0602 11105 21143 38205 48346 53001 333 69915 91104 91202;
0137067880999992010010702004+46517+009183FM-12+161199999V0209999C000019999999N9999999N1-00971-01181999999ADDMA1999999082091MD1319999+9999ME1313499OA149900151REMSYN076AAXX  07024 06788 33/// /0000 11097 21118 38209 48349 53/// 333 91103 91202;
0154067880999992010010703004+46517+009183FM-12+161199999V0209999C000019999999N9999999N1-01011-01301999999ADDAA101000591MA1999999082111MD1210061+9999ME1313519OA149900261REMSYN082AAXX  07034 06788 23/// /0000 11101 21130 38211 48351 52006 333 69955 91105 91203;
0154067880999992010010704004+46517+009183FM-12+161199999V0209999C000019999999N9999999N1-00991-01201999999ADDAA101000391MA1999999082161MD1110111+9999ME1313559OA149900261REMSYN082AAXX  07044 06788 23/// /0000 11099 21120 38216 48355 51011 333 69935 91105 91203;
0154067880999992010010705004+46517+009183FM-12+161199999V0200501N001019999999N9999999N1-00981-01201999999ADDAA101000891MA1999999082211MD1210121+9999ME1313609OA149900151REMSYN082AAXX  07054 06788 23/// /0502 11098 21120 38221 48360 52012 333 69985 91103 91202;
0238067880999992010010706004+46517+009183FM-12+161199999V0202401N000519999999N9999999N1-00971-01241999999ADDAA112002091AA224002091AL10600291GJ101689IA2999-01609KA1999N-01381MA1999999082261MD1210151+9999ME1313659OA149900261REMSYN112AAXX  07064 06788 03/// /2401 11097 21124 38226 48365 52015 60022 333 21138 3/116 55028 69915 70021 91105 91203;
0137067880999992010010707004+46517+009183FM-12+161199999V0202401N001519999999N9999999N1-01131-01761999999ADDMA1999999082321MD1210161+9999ME1313729OA149900261REMSYN076AAXX  07074 06788 33/// /2403 11113 21176 38232 48372 52016 333 91105 91204;
0137067880999992010010708004+46517+009183FM-12+161199999V0209999C000019999999N9999999N1-01231-01951999999ADDMA1999999082391MD1219999+9999ME1313799OA149900261REMSYN076AAXX  07084 06788 33/// /0000 11123 21195 38239 48379 52/// 333 91105 91204;
0137067880999992010010709004+46517+009183FM-12+161199999V0202501N002619999999N9999999N1-01461-02842999999ADDMA1999999082431MD1210171+9999ME1313859OA149900411REMSYN076AAXX  07094 06788 33/// /2505 11146 21284 38243 48385 52017 333 91108 91205;
0137067880999992010010710004+46517+009183FM-12+161199999V0209999C000019999999N9999999N1-01531-02521999999ADDMA1999999082491MD1210171+9999ME1313919OA149900411REMSYN076AAXX  07104 06788 33/// /0000 11153 21252 38249 48391 52017 333 91108 91205;
0137067880999992010010711004+46517+009183FM-12+161199999V0202301N001019999999N9999999N1-01211-02311999999ADDMA1999999082461MD1010071+9999ME1313869OA149900411REMSYN076AAXX  07114 06788 33/// /2302 11121 21231 38246 48386 50007 333 91108 91203;
0137067880999992010010712004+46517+009183FM-12+161199999V0202801N001019999999N9999999N1-00861-02111999999ADDMA1999999082411MD1810021+9999ME1313789OA149900411REMSYN076AAXX  07124 06788 33/// /2802 11086 21211 38241 48378 58002 333 91108 91205;
0137067880999992010010713004+46517+009183FM-12+161199999V0202401N004619999999N9999999N1-00471-01361999999ADDMA1999999082411MD1710081+9999ME1313749OA149900621REMSYN076AAXX  07134 06788 33/// /2409 11047 21136 38241 48374 57008 333 91112 91209;
0137067880999992010010714004+46517+009183FM-12+161199999V0202401N005119999999N9999999N1-00501-01241999999ADDMA1999999082441MD1519999+9999ME1313779OA149900771REMSYN076AAXX  07144 06788 33/// /2410 11050 21124 38244 48377 55/// 333 91115 91210;
0096067880999992010010715004+46517+009183FM-12+161199999V0202301N004119999999N9999999N1-00591-01061999999ADDMA1999999082531ME1313879REMSYN060AAXX  07154 06788 43/// /2308 11059 21106 38253 48387 5////;
0137067880999992010010716004+46517+009183FM-12+161199999V0202201N005719999999N9999999N1-00601-00941999999ADDMA1999999082561MD1210151+9999ME1313909OA149900881REMSYN076AAXX  07164 06788 33/// /2211 11060 21094 38256 48390 52015 333 91117 91212;
0137067880999992010010717004+46517+009183FM-12+161199999V0202401N005119999999N9999999N1-00591-00931999999ADDMA1999999082601MD1210161+9999ME1313939OA149900881REMSYN076AAXX  07174 06788 33/// /2410 11059 21093 38260 48393 52016 333 91117 91212;
0156067880999992010010718004+46517+009183FM-12+161199999V0202101N003119999999N9999999N1-00571-01141999999ADDKA1120M-00441MA1999999082631MD1210101+9999ME1313969OA149900881REMSYN082AAXX  07184 06788 33/// /2106 11057 21114 38263 48396 52010 333 11044 91117 91212;
0137067880999992010010719004+46517+009183FM-12+161199999V0202501N003119999999N9999999N1-00571-01121999999ADDMA1999999082631MD1210071+9999ME1313969OA149900771REMSYN076AAXX  07194 06788 33/// /2506 11057 21112 38263 48396 52007 333 91115 91211;
0137067880999992010010720004+46517+009183FM-12+161199999V0202301N003619999999N9999999N1-00591-01061999999ADDMA1999999082621MD1010021+9999ME1313959OA149900621REMSYN076AAXX  07204 06788 33/// /2307 11059 21106 38262 48395 50002 333 91112 91208;
0137067880999992010010721004+46517+009183FM-12+161199999V0202301N002619999999N9999999N1-00661-00951999999ADDMA1999999082631MD1510001+9999ME1313979OA149900881REMSYN076AAXX  07214 06788 33/// /2305 11066 21095 38263 48397 55000 333 91117 91212;
0154067880999992010010722004+46517+009183FM-12+161199999V0202501N003619999999N9999999N1-00611-00961999999ADDAA101000021MA1999999082601MD1710031+9999ME1313949OA149900571REMSYN082AAXX  07224 06788 23/// /2507 11061 21096 38260 48394 57003 333 69915 91111 91207;
0137067880999992010010723004+46517+009183FM-12+161199999V0202501N003119999999N9999999N1-00561-00971999999ADDMA1999999082571MD1710051+9999ME1313909OA149900771REMSYN076AAXX  07234 06788 33/// /2506 11056 21097 38257 48390 57005 333 91115 91208;
0179067880999992010010800004+46517+009183FM-12+161199999V0202701N003619999999N9999999N1-00571-00921999999ADDAA106000091MA1999999082501MD1710131+9999ME1313849OA149900881REMSYN088AAXX  08004 06788 03/// /2707 11057 21092 38250 48384 57013 69921 333 69915 91117 91212;EQDQ01  00002PRCP06
0154067880999992010010801004+46517+009183FM-12+161199999V0202601N004619999999N9999999N1-00541-00911999999ADDAA101000021MA1999999082431MD1710171+9999ME1313779OA149900721REMSYN082AAXX  08014 06788 23/// /2609 11054 21091 38243 48377 57017 333 69915 91114 91210;
0154067880999992010010802004+46517+009183FM-12+161199999V0202701N006219999999N9999999N1-00601-00871999999ADDAA101000021MA1999999082381MD1719999+9999ME1313739OA149900931REMSYN082AAXX  08024 06788 23/// /2712 11060 21087 38238 48373 57/// 333 69915 91118 91212;
0154067880999992010010803004+46517+009183FM-12+161199999V0200601N003619999999N9999999N1-00661-00811999999ADDAA101000021MA1999999082371MD1719999+9999ME1313729OA149900931REMSYN082AAXX  08034 06788 23/// /0607 11066 21081 38237 48372 57/// 333 69925 91118 91212;
0154067880999992010010804004+46517+009183FM-12+161199999V0200301N001019999999N9999999N1-00701-00841999999ADDAA101001091MA1999999082351MD1710081+9999ME1313719OA149900771REMSYN082AAXX  08044 06788 23/// /0302 11070 21084 38235 48371 57008 333 60015 91115 91211;
0154067880999992010010805004+46517+009183FM-12+161199999V0200701N001019999999N9999999N1-00711-00831999999ADDAA101001091MA1999999082321MD1710061+9999ME1313689OA149900411REMSYN082AAXX  08054 06788 23/// /0702 11071 21083 38232 48368 57006 333 60015 91108 91205;
0238067880999992010010806004+46517+009183FM-12+161199999V0209999C000019999999N9999999N1-00721-00841999999ADDAA112005192AA224004392AL11200491GJ101269IA2999-00809KA1999N-00741MA1999999082281MD1710091+9999ME1313649OA149900931REMSYN112AAXX  08064 06788 03/// /0000 11072 21084 38228 48364 57009 60052 333 21074 3/108 55021 60025 70042 91118 91212;
0154067880999992010010807004+46517+009183FM-12+161199999V0200901N000519999999N9999999N1-00741-00861999999ADDAA101002091MA1999999082261MD1710091+9999ME1313629OA149900151REMSYN082AAXX  08074 06788 23/// /0901 11074 21086 38226 48362 57009 333 60025 91103 91201;
0154067880999992010010808004+46517+009183FM-12+161199999V0209999C000019999999N9999999N1-00721-00861999999ADDAA101002091MA1999999082241MD1710081+9999ME1313609OA149900101REMSYN082AAXX  08084 06788 23/// /0000 11072 21086 38224 48360 57008 333 60025 91102 91201;
0154067880999992010010809004+46517+009183FM-12+161199999V0209999C000019999999N9999999N1-00731-00871999999ADDAA101002091MA1999999082191MD1710091+9999ME1313569OA149900411REMSYN082AAXX  08094 06788 23/// /0000 11073 21087 38219 48356 57009 333 60025 91108 91205;
0154067880999992010010810004+46517+009183FM-12+161199999V0209999C000019999999N9999999N1-00671-00841999999ADDAA101000591MA1999999082121MD1710141+9999ME1313489OA149900101REMSYN082AAXX  08104 06788 23/// /0000 11067 21084 38212 48348 57014 333 69945 91102 91201;
0154067880999992010010811004+46517+009183FM-12+161199999V0209999C000019999999N9999999N1-00621-00811999999ADDAA101000591MA1999999082061MD1710181+9999ME1313429OA149900101REMSYN082AAXX  08114 06788 23/// /0000 11062 21081 38206 48342 57018 333 69955 91102 91201;
0160067880999992010010812004+46517+009183FM-12+161199999V0209999C000019999999N9999999N1-00641-00771999999ADDAA106007191MA1999999081941MD1810251+9999ME1313319OA149900931REMSYN088AAXX  08124 06788 03/// /0000 11064 21077 38194 48331 58025 60071 333 60015 91118 91212;
0154067880999992010010813004+46517+009183FM-12+161199999V0200501N001019999999N9999999N1-00571-00721999999ADDAA101000891MA1999999081841MD1810281+9999ME1313209OA149900211REMSYN082AAXX  08134 06788 23/// /0502 11057 21072 38184 48320 58028 333 69985 91104 91202;
0154067880999992010010814004+46517+009183FM-12+161199999V0200601N002619999999N9999999N1-00501-00651999999ADDAA101000391MA1999999081821MD1719999+9999ME1313189OA149900511REMSYN082AAXX  08144 06788 23/// /0605 11050 21065 38182 48318 57/// 333 69935 91110 91207;
0154067880999992010010815004+46517+009183FM-12+161199999V0200301N001519999999N9999999N1-00561-00691999999ADDAA101000021MA1999999081851MD1510091+9999ME1313219OA149900511REMSYN082AAXX  08154 06788 23/// /0303 11056 21069 38185 48321 55009 333 69915 91110 91207;
0154067880999992010010816004+46517+009183FM-12+161199999V0200701N001019999999N9999999N1-00581-00701999999ADDAA101000591MA1999999081871MD1310031+9999ME1313239OA149900511REMSYN082AAXX  08164 06788 23/// /0702 11058 21070 38187 48323 53003 333 69945 91110 91206;
0154067880999992010010817004+46517+009183FM-12+161199999V0200501N000519999999N9999999N1-00611-00721999999ADDAA101001091MA1999999081881MD1210061+9999ME1313259OA149900311REMSYN082AAXX  08174 06788 23/// /0501 11061 21072 38188 48325 52006 333 60015 91106 91204;
0179067880999992010010818004+46517+009183FM-12+161199999V0209999C000019999999N9999999N1-00611-00751999999ADDAA112011991KA1120M-00491MA1999999081911MD1210061+9999ME1313279OA149900511REMSYN094AAXX  08184 06788 03/// /0000 11061 21075 38191 48327 52006 60122 333 11049 60025 91110 91207;
0154067880999992010010819004+46517+009183FM-12+161199999V0200401N000519999999N9999999N1-00611-00721999999ADDAA101002091MA1999999081921MD1110051+9999ME1313289OA149900101REMSYN082AAXX  08194 06788 23/// /0401 11061 21072 38192 48328 51005 333 60025 91102 91201;
0154067880999992010010820004+46517+009183FM-12+161199999V0200601N001019999999N9999999N1-00611-00721999999ADDAA101001091MA1999999081931MD1210051+9999ME1313299OA149900211REMSYN082AAXX  08204 06788 23/// /0602 11061 21072 38193 48329 52005 333 69995 91104 91203;
0154067880999992010010821004+46517+009183FM-12+161199999V0200801N001519999999N9999999N1-00671-00801999999ADDAA101001091MA1999999081961MD1210051+9999ME1313339OA149900311REMSYN082AAXX  08214 06788 23/// /0803 11067 21080 38196 48333 52005 333 69995 91106 91204;
0154067880999992010010822004+46517+009183FM-12+161199999V0200601N001519999999N9999999N1-00691-00831999999ADDAA101000591MA1999999081981MD1210061+9999ME1313359OA149900311REMSYN082AAXX  08224 06788 23/// /0603 11069 21083 38198 48335 52006 333 69945 91106 91204;
0154067880999992010010823004+46517+009183FM-12+161199999V0200601N001019999999N9999999N1-00721-00841999999ADDAA101000021MA1999999081971MD1210041+9999ME1313349OA149900261REMSYN082AAXX  08234 06788 23/// /0602 11072 21084 38197 48334 52004 333 69915 91105 91204;
0160067880999992010010900004+46517+009183FM-12+161199999V0200701N001519999999N9999999N1-00771-00921999999ADDAA106004191MA1999999081941MD1810021+9999ME1313329OA149900511REMSYN088AAXX  09004 06788 03/// /0703 11077 21092 38194 48332 58002 60041 333 60005 91110 91207;
0137067880999992010010901004+46517+009183FM-12+161199999V0203501N000519999999N9999999N1-00831-00961999999ADDMA1999999081971MD1710011+9999ME1313369OA149900261REMSYN076AAXX  09014 06788 33/// /3501 11083 21096 38197 48336 57001 333 91105 91203;
0137067880999992010010902004+46517+009183FM-12+161199999V0209999C000019999999N9999999N1-00811-00931999999ADDMA1999999081981MD1319999+9999ME1313369OA149900151REMSYN076AAXX  09024 06788 33/// /0000 11081 21093 38198 48336 53/// 333 91103 91202;
0137067880999992010010903004+46517+009183FM-12+161199999V0200401N001019999999N9999999N1-00791-00931999999ADDMA1999999081971MD1019999+9999ME1313359OA149900261REMSYN076AAXX  09034 06788 33/// /0402 11079 21093 38197 48335 50/// 333 91105 91204;
0137067880999992010010904004+46517+009183FM-12+161199999V0202301N001519999999N9999999N1-00991-01151999999ADDMA1999999081941MD1810031+9999ME1313359OA149900211REMSYN076AAXX  09044 06788 33/// /2303 11099 21115 38194 48335 58003 333 91104 91203;
0137067880999992010010905004+46517+009183FM-12+161199999V0209999C000019999999N9999999N1-01061-01201999999ADDMA1999999081901MD1710081+9999ME1313329OA149900211REMSYN076AAXX  09054 06788 33/// /0000 11106 21120 38190 48332 57008 333 91104 91203;
0238067880999992010010906004+46517+009183FM-12+161199999V0201701N000519999999N9999999N1-01081-01281999999ADDAA112004191AA224017091AL14801691GJ100009IA2999-01509KA1999N-01241MA1999999081851MD1710121+9999ME1313279OA149900311REMSYN112AAXX  09064 06788 03/// /1701 11108 21128 38185 48327 57012 60042 333 21124 3/115 55000 60005 70169 91106 91204;
0137067880999992010010907004+46517+009183FM-12+161199999V0201501N000519999999N9999999N1-01001-01191999999ADDMA1999999081801MD1710141+9999ME1313219OA149900211REMSYN076AAXX  09074 06788 33/// /1501 11100 21119 38180 48321 57014 333 91104 91202;
0137067880999992010010908004+46517+009183FM-12+161199999V0200601N001519999999N9999999N1-01041-01171999999ADDMA1999999081851MD1510051+9999ME1313279OA149900211REMSYN076AAXX  09084 06788 33/// /0603 11104 21117 38185 48327 55005 333 91104 91203;
0137067880999992010010909004+46517+009183FM-12+161199999V0200901N000519999999N9999999N1-01001-01171999999ADDMA1999999081841MD1710011+9999ME1313259OA149900211REMSYN076AAXX  09094 06788 33/// /0901 11100 21117 38184 48325 57001 333 91104 91203;
0156067880999992010010910004+46517+009183FM-12+161199999V0200301N000519999999N9999999N1-00941-01161999999ADDMA1999999081801MD1410001+9999ME1313219OA149900211REMSYN076AAXX  09104 06788 33/// /0301 11094 21116 38180 48321 58000 333 91104 91203;EQDQ01+000082APCTEN
0137067880999992010010911004+46517+009183FM-12+161199999V0209999C000019999999N9999999N1-00891-01101999999ADDMA1999999081741MD1710111+9999ME1313149OA149900211REMSYN076AAXX  09114 06788 33/// /0000 11089 21110 38174 48314 57011 333 91104 91203;
0137067880999992010010912004+46517+009183FM-12+161199999V0202001N000519999999N9999999N1-00831-01031999999ADDMA1999999081681MD1710161+9999ME1313089OA149900261REMSYN076AAXX  09124 06788 33/// /2001 11083 21103 38168 48308 57016 333 91105 91204;
0137067880999992010010913004+46517+009183FM-12+161199999V0200701N002119999999N9999999N1-00791-00981999999ADDMA1999999081651MD1710151+9999ME1313059OA149900311REMSYN076AAXX  09134 06788 33/// /0704 11079 21098 38165 48305 57015 333 91106 91204;
0137067880999992010010914004+46517+009183FM-12+161199999V0200401N001519999999N9999999N1-00871-01001999999ADDMA1999999081691MD1510051+9999ME1313099OA149900571REMSYN076AAXX  09144 06788 33/// /0403 11087 21100 38169 48309 55005 333 91111 91207;
0137067880999992010010915004+46517+009183FM-12+161199999V0200501N001519999999N9999999N1-00871-01031999999ADDMA1999999081721MD1210041+9999ME1313129OA149900571REMSYN076AAXX  09154 06788 33/// /0503 11087 21103 38172 48312 52004 333 91111 91207;
0137067880999992010010916004+46517+009183FM-12+161199999V0200801N002619999999N9999999N1-00901-01041999999ADDMA1999999081771MD1210121+9999ME1313179OA149900461REMSYN076AAXX  09164 06788 33/// /0805 11090 21104 38177 48317 52012 333 91109 91206;
0154067880999992010010917004+46517+009183FM-12+161199999V0209999C000019999999N9999999N1-00941-01101999999ADDAA101000021MA1999999081781MD1210091+9999ME1313199OA149900461REMSYN082AAXX  09174 06788 23/// /0000 11094 21110 38178 48319 52009 333 69925 91109 91206;
0179067880999992010010918004+46517+009183FM-12+161199999V0200301N002119999999N9999999N1-00961-01091999999ADDAA112000391KA1120M-00761MA1999999081841MD1210121+9999ME1313259OA149900571REMSYN094AAXX  09184 06788 03/// /0304 11096 21109 38184 48325 52012 69932 333 11076 69915 91111 91207;
0154067880999992010010919004+46517+009183FM-12+161199999V0200601N001019999999N9999999N1-00961-01111999999ADDAA101000021MA1999999081891MD1210121+9999ME1313299OA149900361REMSYN082AAXX  09194 06788 23/// /0602 11096 21111 38189 48329 52012 333 69915 91107 91204;
0154067880999992010010920004+46517+009183FM-12+161199999V0200801N001519999999N9999999N1-00951-01151999999ADDAA101001091MA1999999081891MD1210111+9999ME1313299OA149900211REMSYN082AAXX  09204 06788 23/// /0803 11095 21115 38189 48329 52011 333 69995 91104 91203;
0137067880999992010010921004+46517+009183FM-12+161199999V0200201N001019999999N9999999N1-00981-01131999999ADDMA1999999081921MD1210081+9999ME1313339OA149900461REMSYN076AAXX  09214 06788 33/// /0202 11098 21113 38192 48333 52008 333 91109 91206;
0137067880999992010010922004+46517+009183FM-12+161199999V0201801N000519999999N9999999N1-00981-01191999999ADDMA1999999081961MD1210071+9999ME1313369OA149900311REMSYN076AAXX  09224 06788 33/// /1801 11098 21119 38196 48336 52007 333 91106 91204;
0154067880999992010010923004+46517+009183FM-12+161199999V0202001N000519999999N9999999N1-01011-01231999999ADDAA101000591MA1999999081971MD1210081+9999ME1313389OA149900311REMSYN082AAXX  09234 06788 23/// /2001 11101 21123 38197 48338 52008 333 69945 91106 91204;
0160067880999992010011000004+46517+009183FM-12+161199999V0200701N000519999999N9999999N1-01011-01191999999ADDAA106002091MA1999999082011MD1210091+9999ME1313419OA149900571REMSYN088AAXX  10004 06788 03/// /0701 11101 21119 38201 48341 52009 60021 333 69945 91111 91207;
0154067880999992010011001004+46517+009183FM-12+161199999V0200601N001019999999N9999999N1-01011-01181999999ADDAA101000891MA1999999082081MD1210121+9999ME1313489OA149900261REMSYN082AAXX  10014 06788 23/// /0602 11101 21118 38208 48348 52012 333 69975 91105 91203;
0117067880999992010011002004+46517+009183FM-12+161199999V0209999C000019999999N9999999N1-01011-01201999999ADDAA101000891MA1999999082101ME1313509REMSYN070AAXX  10024 06788 23/// /0000 11101 21120 38210 48350 5//// 333 69985;
0096067880999992010011003004+46517+009183FM-12+161199999V0209999C000019999999N9999999N1-00971-01161999999ADDMA1999999082121ME1313519REMSYN060AAXX  10034 06788 43/// /0000 11097 21116 38212 48351 5////;
0154067880999992010011004004+46517+009183FM-12+161199999V0202401N000519999999N9999999N1-00921-01141999999ADDAA101000391MA1999999082121MD1210041+9999ME1313519OA149900151REMSYN082AAXX  10044 06788 23/// /2401 11092 21114 38212 48351 52004 333 69935 91103 91201;
0137067880999992010011005004+46517+009183FM-12+161199999V0200201N001019999999N9999999N1-00861-01011999999ADDMA1999999082161MD1210061+9999ME1313549OA149900361REMSYN076AAXX  10054 06788 33/// /0202 11086 21101 38216 48354 52006 333 91107 91203;
0238067880999992010011006004+46517+009183FM-12+161199999V0200701N003119999999N9999999N1-00931-01091999999ADDAA112004191AA224004391AL12400491GJ100009IA2999-01109KA1999N-01031MA1999999082231MD1210111+9999ME1313619OA149900511REMSYN112AAXX  10064 06788 03/// /0706 11093 21109 38223 48361 52011 60042 333 21103 3/111 55000 69915 70044 91110 91206;
0137067880999992010011007004+46517+009183FM-12+161199999V0200601N001519999999N9999999N1-00931-01101999999ADDMA1999999082301MD1210181+9999ME1313689OA149900511REMSYN076AAXX  10074 06788 33/// /0603 11093 21110 38230 48368 52018 333 91110 91207;
0137067880999992010011008004+46517+009183FM-12+161199999V0202401N000519999999N9999999N1-00841-01041999999ADDMA1999999082371MD1319999+9999ME1313749OA149900511REMSYN076AAXX  10084 06788 33/// /2401 11084 21104 38237 48374 53/// 333 91110 91207;
0137067880999992010011009004+46517+009183FM-12+161199999V0200501N000519999999N9999999N1-00921-01081999999ADDMA1999999082451MD1310221+9999ME1313829OA149900511REMSYN076AAXX  10094 06788 33/// /0501 11092 21108 38245 48382 53022 333 91110 91207;
0137067880999992010011010004+46517+009183FM-12+161199999V0202801N000519999999N9999999N1-00801-01011999999ADDMA1999999082461MD1210161+9999ME1313829OA149900361REMSYN076AAXX  10104 06788 33/// /2801 11080 21101 38246 48382 52016 333 91107 91205;
0137067880999992010011011004+46517+009183FM-12+161199999V0202501N002619999999N9999999N1-00341-00761999999ADDMA1999999082521MD1210151+9999ME1313849OA149900461REMSYN076AAXX  10114 06788 33/// /2505 11034 21076 38252 48384 52015 333 91109 91205;
0137067880999992010011012004+46517+009183FM-12+161199999V0200501N000519999999N9999999N1-00521-00781999999ADDMA1999999082531MD1210081+9999ME1313869OA149900511REMSYN076AAXX  10124 06788 33/// /0501 11052 21078 38253 48386 52008 333 91110 91207;
0137067880999992010011013004+46517+009183FM-12+161199999V0202401N003119999999N9999999N1-00381-00991999999ADDMA1999999082511MD1010051+9999ME1313839OA149900411REMSYN076AAXX  10134 06788 33/// /2406 11038 21099 38251 48383 50005 333 91108 91206;
0137067880999992010011014004+46517+009183FM-12+161199999V0200501N001519999999N9999999N1-00921-01071999999ADDMA1999999082561MD1319999+9999ME1313939OA149900511REMSYN076AAXX  10144 06788 33/// /0503 11092 21107 38256 48393 53/// 333 91110 91206;
0137067880999992010011015004+46517+009183FM-12+161199999V0202501N000519999999N9999999N1-01391-01711999999ADDMA1999999082601MD1210071+9999ME1314009OA149900511REMSYN076AAXX  10154 06788 33/// /2501 11139 21171 38260 48400 52007 333 91110 91206;
0137067880999992010011016004+46517+009183FM-12+161199999V0202501N001019999999N9999999N1-01101-01681999999ADDMA1999999082681MD1310171+9999ME1314059OA149900211REMSYN076AAXX  10164 06788 33/// /2502 11110 21168 38268 48405 53017 333 91104 91203;
0137067880999992010011017004+46517+009183FM-12+161199999V0201901N001519999999N9999999N1-01051-01141999999ADDMA1999999082761MD1310201+9999ME1314129OA149900311REMSYN076AAXX  10174 06788 33/// /1903 11105 21114 38276 48412 53020 333 91106 91204;
0156067880999992010011018004+46517+009183FM-12+161199999V0202001N001519999999N9999999N1-01111-01311999999ADDKA1120M-00301MA1999999082841MD1110241+9999ME1314209OA149900511REMSYN082AAXX  10184 06788 33/// /2003 11111 21131 38284 48420 51024 333 11030 91110 91207;
0137067880999992010011019004+46517+009183FM-12+161199999V0201401N000519999999N9999999N1-01181-01341999999ADDMA1999999082861MD1210181+9999ME1314239OA149900311REMSYN076AAXX  10194 06788 33/// /1401 11118 21134 38286 48423 52018 333 91106 91204;
0137067880999992010011020004+46517+009183FM-12+161199999V0202501N002119999999N9999999N1-01251-01521999999ADDMA1999999082871MD1210111+9999ME1314249OA149900311REMSYN076AAXX  10204 06788 33/// /2504 11125 21152 38287 48424 52011 333 91106 91204;
0137067880999992010011021004+46517+009183FM-12+161199999V0202501N002119999999N9999999N1-01431-02561999999ADDMA1999999082881MD1210041+9999ME1314269OA149900311REMSYN076AAXX  10214 06788 33/// /2504 11143 21256 38288 48426 52004 333 91106 91205;
0137067880999992010011022004+46517+009183FM-12+161199999V0202601N000519999999N9999999N1-01991-02941999999ADDMA1999999082891MD1210031+9999ME1314329OA149900311REMSYN076AAXX  10224 06788 33/// /2601 11199 21294 38289 48432 52003 333 91106 91205;
0137067880999992010011023004+46517+009183FM-12+161199999V0209999C000019999999N9999999N1-02131-03441999999ADDMA1999999082871MD1010001+9999ME1314319OA149900211REMSYN076AAXX  10234 06788 33/// /0000 11213 21344 38287 48431 50000 333 91104 91202;
0137067880999992010011100004+46517+009183FM-12+161199999V0209999C000019999999N9999999N1-01911-03071999999ADDMA1999999082861MD1710021+9999ME1314289OA149900511REMSYN076AAXX  11004 06788 33/// /0000 11191 21307 38286 48428 57002 333 91110 91206;
0156067880999992010011101004+46517+009183FM-12+161199999V0202501N000519999999N9999999N1-01731-01912999999ADDMA1999999082851MD1710041+9999ME1314269OA149900211REMSYN076AAXX  11014 06788 33/// /2501 11173 21191 38285 48426 57004 333 91104 91202;EQDQ01-001913ATOD  
0137067880999992010011102004+46517+009183FM-12+161199999V0202501N001519999999N9999999N1-01781-02021999999ADDMA1999999082871MD1519999+9999ME1314289OA149900211REMSYN076AAXX  11024 06788 33/// /2503 11178 21202 38287 48428 55/// 333 91104 91203;
0137067880999992010011103004+46517+009183FM-12+161199999V0202501N001019999999N9999999N1-01731-02631999999ADDMA1999999082861MD1019999+9999ME1314279OA149900261REMSYN076AAXX  11034 06788 33/// /2502 11173 21263 38286 48427 50/// 333 91105 91203;
0156067880999992010011104004+46517+009183FM-12+161199999V0202501N001519999999N9999999N1-01991-02131999999ADDMA1999999082851MD1410001+9999ME1314289OA149900261REMSYN076AAXX  11044 06788 33/// /2503 11199 21213 38285 48428 57000 333 91105 91203;EQDQ01+000072APCTEN
0137067880999992010011105004+46517+009183FM-12+161199999V0202501N001019999999N9999999N1-01811-02121999999ADDMA1999999082851MD1710021+9999ME1314279OA149900261REMSYN076AAXX  11054 06788 33/// /2502 11181 21212 38285 48427 57002 333 91105 91203;
0266067880999992010011106004+46517+009183FM-12+161199999V0202601N001019999999N9999999N1-01751+99999999999ADDAA124000091AL10600091GJ100669IA2999-02009KA1999N-02131MA1999999082851MD1710011+9999ME1314269OA149900311REMSYN100AAXX  11064 06788 33/// /2602 11175 21299 38285 48426 57001 333 21213 3/120 55011 70001 91106 91205;EQDQ01-002993ATOD  Q02  00002PRCP24Q03 -02993ATOD  
0137067880999992010011107004+46517+009183FM-12+161199999V0202301N000519999999N9999999N1-01631-01781999999ADDMA1999999082881MD1210031+9999ME1314289OA149900211REMSYN076AAXX  11074 06788 33/// /2301 11163 21178 38288 48428 52003 333 91104 91203;
0137067880999992010011108004+46517+009183FM-12+161199999V0202501N001519999999N9999999N1-01801-01931999999ADDMA1999999082901MD1219999+9999ME1314319OA149900261REMSYN076AAXX  11084 06788 33/// /2503 11180 21193 38290 48431 52/// 333 91105 91203;
0137067880999992010011109004+46517+009183FM-12+161199999V0202401N000519999999N9999999N1-01641-01921999999ADDMA1999999082911MD1210061+9999ME1314319OA149900261REMSYN076AAXX  11094 06788 33/// /2401 11164 21192 38291 48431 52006 333 91105 91203;
0137067880999992010011110004+46517+009183FM-12+161199999V0202501N001519999999N9999999N1-01301-02591999999ADDMA1999999082931MD1219999+9999ME1314309OA149900261REMSYN076AAXX  11104 06788 33/// /2503 11130 21259 38293 48430 52/// 333 91105 91203;
0172067880999992010011111004+46517+009183FM-12+161199999V0201801N005719999999N9999999N1-00361-01162999999ADDMA1999999082901MD1410001+9999ME1314209OA149900881REMSYN076AAXX  11114 06788 33/// /1811 11036 21116 38290 48420 58000 333 91117 91211;EQDQ01-001163ATOD  Q02+000082APCTEN
0137067880999992010011112004+46517+009183FM-12+161199999V0202001N005119999999N9999999N1-00341-00911999999ADDMA1999999082891MD1710021+9999ME1314199OA149900881REMSYN076AAXX  11124 06788 33/// /2010 11034 21091 38289 48419 57002 333 91117 91211;
0137067880999992010011113004+46517+009183FM-12+161199999V0202301N005119999999N9999999N1-00331-00951999999ADDMA1999999082861MD1710071+9999ME1314169OA149900931REMSYN076AAXX  11134 06788 33/// /2310 11033 21095 38286 48416 57007 333 91118 91211;
0096067880999992010011114004+46517+009183FM-12+161199999V0202101N004119999999N9999999N1-00411-00971999999ADDMA1999999082841ME1314159REMSYN060AAXX  11144 06788 33/// /2108 11041 21097 38284 48415 5////;
0137067880999992010011115004+46517+009183FM-12+161199999V0202101N002619999999N9999999N1-00571-01211999999ADDMA1999999082851MD1510041+9999ME1314179OA149900931REMSYN076AAXX  11154 06788 33/// /2105 11057 21121 38285 48417 55004 333 91118 91211;
0137067880999992010011116004+46517+009183FM-12+161199999V0202101N004619999999N9999999N1-00451-01021999999ADDMA1999999082851MD1410001+9999ME1314169OA149900821REMSYN076AAXX  11164 06788 33/// /2109 11045 21102 38285 48416 54001 333 91116 91210;
0137067880999992010011117004+46517+009183FM-12+161199999V0209999C000019999999N9999999N1-00981-01341999999ADDMA1999999082901MD1210061+9999ME1314259OA149900771REMSYN076AAXX  11174 06788 33/// /0000 11098 21134 38290 48425 52006 333 91115 91209;
0156067880999992010011118004+46517+009183FM-12+161199999V0202401N000519999999N9999999N1-01011-01461999999ADDKA1120M-00331MA1999999082971MD1210121+9999ME1314329OA149900931REMSYN082AAXX  11184 06788 33/// /2401 11101 21146 38297 48432 52012 333 11033 91118 91211;
0137067880999992010011119004+46517+009183FM-12+161199999V0202601N001019999999N9999999N1-00931-01241999999ADDMA1999999083021MD1210171+9999ME1314369OA149900261REMSYN076AAXX  11194 06788 33/// /2602 11093 21124 38302 48436 52017 333 91105 91204;
0137067880999992010011120004+46517+009183FM-12+161199999V0209999C000019999999N9999999N1-00941-01161999999ADDMA1999999083041MD1210141+9999ME1314389OA149900261REMSYN076AAXX  11204 06788 33/// /0000 11094 21116 38304 48438 52014 333 91105 91202;
0137067880999992010011121004+46517+009183FM-12+161199999V0202501N001519999999N9999999N1-01031-01441999999ADDMA1999999083051MD1210081+9999ME1314399OA149900771REMSYN076AAXX  11214 06788 33/// /2503 11103 21144 38305 48439 52008 333 91115 91209;
0137067880999992010011122004+46517+009183FM-12+161199999V0202501N000519999999N9999999N1-00981-01281999999ADDMA1999999083051MD1210031+9999ME1314399OA149900311REMSYN076AAXX  11224 06788 33/// /2501 11098 21128 38305 48439 52003 333 91106 91204;
0137067880999992010011123004+46517+009183FM-12+161199999V0209999C000019999999N9999999N1-00951-01221999999ADDMA1999999083041MD1010001+9999ME1314389OA149900211REMSYN076AAXX  11234 06788 33/// /0000 11095 21122 38304 48438 50000 333 91104 91202;
0137067880999992010011200004+46517+009183FM-12+161199999V0202701N000519999999N9999999N1-00901-01151999999ADDMA1999999083041MD1810011+9999ME1314389OA149900931REMSYN076AAXX  12004 06788 33/// /2701 11090 21115 38304 48438 58001 333 91118 91211;
0137067880999992010011201004+46517+009183FM-12+161199999V0202601N001019999999N9999999N1-00951-01181999999ADDMA1999999083041MD1710011+9999ME1314389OA149900261REMSYN076AAXX  12014 06788 33/// /2602 11095 21118 38304 48438 57001 333 91105 91202;
0137067880999992010011202004+46517+009183FM-12+161199999V0203101N000519999999N9999999N1-00881-01151999999ADDMA1999999083041MD1719999+9999ME1314379OA149900411REMSYN076AAXX  12024 06788 33/// /3101 11088 21115 38304 48437 57/// 333 91108 91206;
0137067880999992010011203004+46517+009183FM-12+161199999V0209999C000019999999N9999999N1-01081-01381999999ADDMA1999999083051MD1210011+9999ME1314409OA149900411REMSYN076AAXX  12034 06788 33/// /0000 11108 21138 38305 48440 52001 333 91108 91206;
0156067880999992010011204004+46517+009183FM-12+161199999V0209999C000019999999N9999999N1-00981-01261999999ADDMA1999999083041MD1410001+9999ME1314389OA149900311REMSYN076AAXX  12044 06788 33/// /0000 11098 21126 38304 48438 57000 333 91106 91203;EQDQ01+000072APCTEN
0137067880999992010011205004+46517+009183FM-12+161199999V0209999C000019999999N9999999N1-00981-01241999999ADDMA1999999083041MD1510001+9999ME1314389OA149900311REMSYN076AAXX  12054 06788 33/// /0000 11098 21124 38304 48438 55000 333 91106 91204;
0234067880999992010011206004+46517+009183FM-12+161199999V0202101N001019999999N9999999N1-00971-01271999999ADDAA124000091AL19900091GJ100189IA2999-01509KA1999N-01181MA1999999083031MD1710021+9999ME1314379OA149900411REMSYN100AAXX  12064 06788 33/// /2102 11097 21127 38303 48437 57002 333 21118 3/115 55003 70000 91108 91206;EQDQ01  00002PRCP24
0137067880999992010011207004+46517+009183FM-12+161199999V0209999C000019999999N9999999N1-01041-01341999999ADDMA1999999083041MD1010001+9999ME1314389OA149900261REMSYN076AAXX  12074 06788 33/// /0000 11104 21134 38304 48438 50000 333 91105 91202;
0137067880999992010011208004+46517+009183FM-12+161199999V0202601N001519999999N9999999N1-00961-01371999999ADDMA1999999083031MD1819999+9999ME1314379OA149900311REMSYN076AAXX  12084 06788 33/// /2603 11096 21137 38303 48437 58/// 333 91106 91203;
0137067880999992010011209004+46517+009183FM-12+161199999V0202001N005119999999N9999999N1-00541-00951999999ADDMA1999999083041MD1510011+9999ME1314359OA149900931REMSYN076AAXX  12094 06788 33/// /2010 11054 21095 38304 48435 55001 333 91118 91211;
0137067880999992010011210004+46517+009183FM-12+161199999V0202501N005719999999N9999999N1-00491-00991999999ADDMA1999999083021MD1710021+9999ME1314339OA149900931REMSYN076AAXX  12104 06788 33/// /2511 11049 21099 38302 48433 57002 333 91118 91212;
0137067880999992010011211004+46517+009183FM-12+161199999V0202401N006719999999N9999999N1-00441-00861999999ADDMA1999999082991MD1819999+9999ME1314309OA149901181REMSYN076AAXX  12114 06788 33/// /2413 11044 21086 38299 48430 58/// 333 91123 91215;
0137067880999992010011212004+46517+009183FM-12+161199999V0202401N006219999999N9999999N1-00481-00841999999ADDMA1999999082961MD1710081+9999ME1314279OA149901181REMSYN076AAXX  12124 06788 33/// /2412 11048 21084 38296 48427 57008 333 91123 91215;
0137067880999992010011213004+46517+009183FM-12+161199999V0202501N006719999999N9999999N1-00451-00841999999ADDMA1999999082931MD1710091+9999ME1314249OA149901181REMSYN076AAXX  12134 06788 33/// /2513 11045 21084 38293 48424 57009 333 91123 91215;
0096067880999992010011214004+46517+009183FM-12+161199999V0202401N006219999999N9999999N1-00491-00841999999ADDMA1999999082921ME1314239REMSYN060AAXX  12144 06788 33/// /2412 11049 21084 38292 48423 5////;
0137067880999992010011215004+46517+009183FM-12+161199999V0202401N005719999999N9999999N1-00491-00851999999ADDMA1999999082891MD1710071+9999ME1314209OA149901441REMSYN076AAXX  12154 06788 33/// /2411 11049 21085 38289 48420 57007 333 91128 91215;
0137067880999992010011216004+46517+009183FM-12+161199999V0202501N006219999999N9999999N1-00511-00871999999ADDMA1999999082861MD1710071+9999ME1314189OA149901341REMSYN076AAXX  12164 06788 33/// /2512 11051 21087 38286 48418 57007 333 91126 91213;
0137067880999992010011217004+46517+009183FM-12+161199999V0202501N005119999999N9999999N1-00511-00901999999ADDMA1999999082841MD1710081+9999ME1314169OA149901081REMSYN076AAXX  12174 06788 33/// /2510 11051 21090 38284 48416 57008 333 91121 91213;
0156067880999992010011218004+46517+009183FM-12+161199999V0202401N005119999999N9999999N1-00521-00941999999ADDKA1120M-00421MA1999999082841MD1710051+9999ME1314169OA149901441REMSYN082AAXX  12184 06788 33/// /2410 11052 21094 38284 48416 57005 333 11042 91128 91215;
0137067880999992010011219004+46517+009183FM-12+161199999V0202501N006219999999N9999999N1-00521-00921999999ADDMA1999999082841MD1810021+9999ME1314169OA149901341REMSYN076AAXX  12194 06788 33/// /2512 11052 21092 38284 48416 58002 333 91126 91214;
0137067880999992010011220004+46517+009183FM-12+161199999V0202601N006719999999N9999999N1-00531-00961999999ADDMA1999999082851MD1210011+9999ME1314179OA149901341REMSYN076AAXX  12204 06788 33/// /2613 11053 21096 38285 48417 52001 333 91126 91214;
0137067880999992010011221004+46517+009183FM-12+161199999V0202601N005119999999N9999999N1-00521-00981999999ADDMA1999999082811MD1810031+9999ME1314139OA149901341REMSYN076AAXX  12214 06788 33/// /2610 11052 21098 38281 48413 58003 333 91126 91214;
0137067880999992010011222004+46517+009183FM-12+161199999V0202501N005119999999N9999999N1-00571-00851999999ADDMA1999999082781MD1710061+9999ME1314109OA149901291REMSYN076AAXX  12224 06788 33/// /2510 11057 21085 38278 48410 57006 333 91125 91212;
0137067880999992010011223004+46517+009183FM-12+161199999V0202501N005119999999N9999999N1-00541-00941999999ADDMA1999999082731MD1710121+9999ME1314059OA149901291REMSYN076AAXX  12234 06788 33/// /2510 11054 21094 38273 48405 57012 333 91125 91214;
0137067880999992010011300004+46517+009183FM-12+161199999V0202701N005119999999N9999999N1-00531-00941999999ADDMA1999999082661MD1710151+9999ME1313999OA149901441REMSYN076AAXX  13004 06788 33/// /2710 11053 21094 38266 48399 57015 333 91128 91215;
0137067880999992010011301004+46517+009183FM-12+161199999V0202501N007719999999N9999999N1-00591-00851999999ADDMA1999999082661MD1710121+9999ME1313999OA149901291REMSYN076AAXX  13014 06788 33/// /2515 11059 21085 38266 48399 57012 333 91125 91215;
0137067880999992010011302004+46517+009183FM-12+161199999V0202501N005719999999N9999999N1-00551-00921999999ADDMA1999999082621MD1719999+9999ME1313959OA149901291REMSYN076AAXX  13024 06788 33/// /2511 11055 21092 38262 48395 57/// 333 91125 91215;
0137067880999992010011303004+46517+009183FM-12+161199999V0202301N003619999999N9999999N1-00531-00951999999ADDMA1999999082591MD1719999+9999ME1313929OA149901291REMSYN076AAXX  13034 06788 33/// /2307 11053 21095 38259 48392 57/// 333 91125 91215;
0137067880999992010011304004+46517+009183FM-12+161199999V0202401N005119999999N9999999N1-00521-00961999999ADDMA1999999082561MD1710101+9999ME1313899OA149900821REMSYN076AAXX  13044 06788 33/// /2410 11052 21096 38256 48389 57010 333 91116 91210;
0137067880999992010011305004+46517+009183FM-12+161199999V0202401N004619999999N9999999N1-00521-00921999999ADDMA1999999082521MD1710101+9999ME1313859OA149900821REMSYN076AAXX  13054 06788 33/// /2409 11052 21092 38252 48385 57010 333 91116 91210;
0234067880999992010011306004+46517+009183FM-12+161199999V0202601N004619999999N9999999N1-00601-00961999999ADDAA124000091AL19900091GJ100009IA2999-00709KA1999N-00591MA1999999082531MD1710061+9999ME1313879OA149901341REMSYN100AAXX  13064 06788 33/// /2609 11060 21096 38253 48387 57006 333 21059 3/107 55000 70000 91126 91215;EQDQ01  00002PRCP24
0137067880999992010011307004+46517+009183FM-12+161199999V0202301N005119999999N9999999N1-00551-00941999999ADDMA1999999082571MD1310011+9999ME1313909OA149900981REMSYN076AAXX  13074 06788 33/// /2310 11055 21094 38257 48390 53001 333 91119 91212;
0137067880999992010011308004+46517+009183FM-12+161199999V0202201N004619999999N9999999N1-00531-00971999999ADDMA1999999082581MD1210061+9999ME1313919OA149900981REMSYN076AAXX  13084 06788 33/// /2209 11053 21097 38258 48391 52006 333 91119 91213;
0137067880999992010011309004+46517+009183FM-12+161199999V0202301N005719999999N9999999N1-00511-00961999999ADDMA1999999082631MD1210101+9999ME1313969OA149900981REMSYN076AAXX  13094 06788 33/// /2311 11051 21096 38263 48396 52010 333 91119 91213;
0137067880999992010011310004+46517+009183FM-12+161199999V0202301N004619999999N9999999N1-00431-01011999999ADDMA1999999082661MD1210091+9999ME1313989OA149900881REMSYN076AAXX  13104 06788 33/// /2309 11043 21101 38266 48398 52009 333 91117 91211;
0137067880999992010011311004+46517+009183FM-12+161199999V0202201N004619999999N9999999N1-00371-00931999999ADDMA1999999082641MD1210061+9999ME1313959OA149900881REMSYN076AAXX  13114 06788 33/// /2209 11037 21093 38264 48395 52006 333 91117 91212;
0137067880999992010011312004+46517+009183FM-12+161199999V0202301N006219999999N9999999N1-00381-00841999999ADDMA1999999082621MD1810011+9999ME1313949OA149901291REMSYN076AAXX  13124 06788 33/// /2312 11038 21084 38262 48394 58001 333 91125 91215;
0137067880999992010011313004+46517+009183FM-12+161199999V0202301N006219999999N9999999N1-00351-00831999999ADDMA1999999082611MD1710051+9999ME1313929OA149900881REMSYN076AAXX  13134 06788 33/// /2312 11035 21083 38261 48392 57005 333 91117 91212;
0137067880999992010011314004+46517+009183FM-12+161199999V0202101N004619999999N9999999N1-00361-00811999999ADDMA1999999082611MD1519999+9999ME1313929OA149900771REMSYN076AAXX  13144 06788 33/// /2109 11036 21081 38261 48392 55/// 333 91115 91212;
0137067880999992010011315004+46517+009183FM-12+161199999V0201801N003619999999N9999999N1-00401-00801999999ADDMA1999999082611MD1010011+9999ME1313939OA149900881REMSYN076AAXX  13154 06788 33/// /1807 11040 21080 38261 48393 50001 333 91117 91212;
0137067880999992010011316004+46517+009183FM-12+161199999V0202001N003119999999N9999999N1-00461-00871999999ADDMA1999999082621MD1510011+9999ME1313949OA149900721REMSYN076AAXX  13164 06788 33/// /2006 11046 21087 38262 48394 55001 333 91114 91209;
0137067880999992010011317004+46517+009183FM-12+161199999V0202201N003119999999N9999999N1-00411-00861999999ADDMA1999999082661MD1210051+9999ME1313989OA149900671REMSYN076AAXX  13174 06788 33/// /2206 11041 21086 38266 48398 52005 333 91113 91208;
0156067880999992010011318004+46517+009183FM-12+161199999V0202101N003119999999N9999999N1-00431-00901999999ADDKA1120M-00351MA1999999082691MD1210081+9999ME1314019OA149900981REMSYN082AAXX  13184 06788 33/// /2106 11043 21090 38269 48401 52008 333 11035 91119 91213;
0137067880999992010011319004+46517+009183FM-12+161199999V0202401N001519999999N9999999N1-00601-00961999999ADDMA1999999082711MD1210091+9999ME1314049OA149900671REMSYN076AAXX  13194 06788 33/// /2403 11060 21096 38271 48404 52009 333 91113 91208;
0137067880999992010011320004+46517+009183FM-12+161199999V0209999C000019999999N9999999N1-00581-00851999999ADDMA1999999082731MD1210071+9999ME1314069OA149900461REMSYN076AAXX  13204 06788 33/// /0000 11058 21085 38273 48406 52007 333 91109 91205;
0137067880999992010011321004+46517+009183FM-12+161199999V0209999C000019999999N9999999N1-00631-00881999999ADDMA1999999082741MD1210051+9999ME1314079OA149900671REMSYN076AAXX  13214 06788 33/// /0000 11063 21088 38274 48407 52005 333 91113 91208;
0137067880999992010011322004+46517+009183FM-12+161199999V0202501N001519999999N9999999N1-00651-00861999999ADDMA1999999082741MD1210031+9999ME1314079OA149900211REMSYN076AAXX  13224 06788 33/// /2503 11065 21086 38274 48407 52003 333 91104 91203;
0137067880999992010011323004+46517+009183FM-12+161199999V0202701N000519999999N9999999N1-00721-00891999999ADDMA1999999082731MD1010001+9999ME1314079OA149900211REMSYN076AAXX  13234 06788 33/// /2701 11072 21089 38273 48407 50000 333 91104 91203;
0137067880999992010011400004+46517+009183FM-12+161199999V0202501N001519999999N9999999N1-00941-01161999999ADDMA1999999082661MD1710081+9999ME1314029OA149900771REMSYN076AAXX  14004 06788 33/// /2503 11094 21116 38266 48402 57008 333 91115 91212;
0137067880999992010011401004+46517+009183FM-12+161199999V0209999C000019999999N9999999N1-00971-01161999999ADDMA1999999082651MD1710091+9999ME1314019OA149900311REMSYN076AAXX  14014 06788 33/// /0000 11097 21116 38265 48401 57009 333 91106 91203;
0137067880999992010011402004+46517+009183FM-12+161199999V0201801N006219999999N9999999N1-00461-00831999999ADDMA1999999082631MD1719999+9999ME1313959OA149900931REMSYN076AAXX  14024 06788 33/// /1812 11046 21083 38263 48395 57/// 333 91118 91212;
0096067880999992010011403004+46517+009183FM-12+161199999V0201901N005719999999N9999999N1-00481-00881999999ADDMA1999999082591ME1313929REMSYN060AAXX  14034 06788 33/// /1911 11048 21088 38259 48392 5////;
0137067880999992010011404004+46517+009183FM-12+161199999V0201901N005119999999N9999999N1-00471-00811999999ADDMA1999999082591MD1710061+9999ME1313919OA149901031REMSYN076AAXX  14044 06788 33/// /1910 11047 21081 38259 48391 57006 333 91120 91213;
0156067880999992010011405004+46517+009183FM-12+161199999V0202201N006719999999N9999999N1-00461-00821999999ADDMA1999999082631MD1410001+9999ME1313959OA149901291REMSYN076AAXX  14054 06788 33/// /2213 11046 21082 38263 48395 53000 333 91125 91218;EQDQ01+000032APCTEN
0234067880999992010011406004+46517+009183FM-12+161199999V0202301N003119999999N9999999N1-00531-00931999999ADDAA124000091AL19900091GJ100009IA2999-01309KA1999N-01081MA1999999082621MD1210031+9999ME1313959OA149901291REMSYN100AAXX  14064 06788 33/// /2306 11053 21093 38262 48395 52003 333 21108 3/113 55000 70000 91125 91218;EQDQ01  00002PRCP24
0137067880999992010011407004+46517+009183FM-12+161199999V0202201N006219999999N9999999N1-00441-00841999999ADDMA1999999082641MD1210051+9999ME1313969OA149901131REMSYN076AAXX  14074 06788 33/// /2212 11044 21084 38264 48396 52005 333 91122 91214;
0137067880999992010011408004+46517+009183FM-12+161199999V0202301N006719999999N9999999N1-00451-00821999999ADDMA1999999082661MD1319999+9999ME1313989OA149901081REMSYN076AAXX  14084 06788 33/// /2313 11045 21082 38266 48398 53/// 333 91121 91214;
0137067880999992010011409004+46517+009183FM-12+161199999V0202501N006219999999N9999999N1-00421-00851999999ADDMA1999999082691MD1210071+9999ME1314019OA149901291REMSYN076AAXX  14094 06788 33/// /2512 11042 21085 38269 48401 52007 333 91125 91218;
0137067880999992010011410004+46517+009183FM-12+161199999V0202301N006219999999N9999999N1-00411-00801999999ADDMA1999999082691MD1210051+9999ME1314019OA149901031REMSYN076AAXX  14104 06788 33/// /2312 11041 21080 38269 48401 52005 333 91120 91214;
0137067880999992010011411004+46517+009183FM-12+161199999V0202501N005719999999N9999999N1-00381-00771999999ADDMA1999999082671MD1010011+9999ME1313989OA149901031REMSYN076AAXX  14114 06788 33/// /2511 11038 21077 38267 48398 50001 333 91120 91213;
0137067880999992010011412004+46517+009183FM-12+161199999V0202401N005719999999N9999999N1-00361-00741999999ADDMA1999999082661MD1810031+9999ME1313979OA149901291REMSYN076AAXX  14124 06788 33/// /2411 11036 21074 38266 48397 58003 333 91125 91218;
0137067880999992010011413004+46517+009183FM-12+161199999V0202501N006219999999N9999999N1-00371-00731999999ADDMA1999999082651MD1710041+9999ME1313969OA149901081REMSYN076AAXX  14134 06788 33/// /2512 11037 21073 38265 48396 57004 333 91121 91213;
0137067880999992010011414004+46517+009183FM-12+161199999V0202601N005719999999N9999999N1-00351-00711999999ADDMA1999999082661MD1510011+9999ME1313979OA149901081REMSYN076AAXX  14144 06788 33/// /2611 11035 21071 38266 48397 55001 333 91121 91212;
0137067880999992010011415004+46517+009183FM-12+161199999V0202601N005719999999N9999999N1-00391-00711999999ADDMA1999999082671MD1310011+9999ME1313989OA149901441REMSYN076AAXX  14154 06788 33/// /2611 11039 21071 38267 48398 53001 333 91128 91214;
0137067880999992010011416004+46517+009183FM-12+161199999V0202301N006219999999N9999999N1-00431-00691999999ADDMA1999999082681MD1210031+9999ME1314009OA149901441REMSYN076AAXX  14164 06788 33/// /2312 11043 21069 38268 48400 52003 333 91128 91214;
0137067880999992010011417004+46517+009183FM-12+161199999V0202301N004619999999N9999999N1-00451-00801999999ADDMA1999999082691MD1210031+9999ME1314019OA149901131REMSYN076AAXX  14174 06788 33/// /2309 11045 21080 38269 48401 52003 333 91122 91213;
0156067880999992010011418004+46517+009183FM-12+161199999V0202201N005719999999N9999999N1-00381-00811999999ADDKA1120M-00341MA1999999082721MD1210051+9999ME1314039OA149901441REMSYN082AAXX  14184 06788 33/// /2211 11038 21081 38272 48403 52005 333 11034 91128 91214;
0137067880999992010011419004+46517+009183FM-12+161199999V0202301N006219999999N9999999N1-00411-00841999999ADDMA1999999082781MD1210101+9999ME1314099OA149901081REMSYN076AAXX  14194 06788 33/// /2312 11041 21084 38278 48409 52010 333 91121 91214;
0137067880999992010011420004+46517+009183FM-12+161199999V0202301N007719999999N9999999N1-00441-00741999999ADDMA1999999082841MD1210151+9999ME1314159OA149901131REMSYN076AAXX  14204 06788 33/// /2315 11044 21074 38284 48415 52015 333 91122 91215;
0137067880999992010011421004+46517+009183FM-12+161199999V0202501N006719999999N9999999N1-00421-00871999999ADDMA1999999082891MD1210171+9999ME1314209OA149901181REMSYN076AAXX  14214 06788 33/// /2513 11042 21087 38289 48420 52017 333 91123 91215;
0137067880999992010011422004+46517+009183FM-12+161199999V0202301N006219999999N9999999N1-00451-00851999999ADDMA1999999082941MD1210161+9999ME1314259OA149901181REMSYN076AAXX  14224 06788 33/// /2312 11045 21085 38294 48425 52016 333 91123 91215;
0137067880999992010011423004+46517+009183FM-12+161199999V0202401N003119999999N9999999N1-00601-01071999999ADDMA1999999082991MD1210151+9999ME1314319OA149901081REMSYN076AAXX  14234 06788 33/// /2406 11060 21107 38299 48431 52015 333 91121 91213;
0137067880999992010011500004+46517+009183FM-12+161199999V0202401N002119999999N9999999N1-00641-01131999999ADDMA1999999082981MD1210091+9999ME1314309OA149901441REMSYN076AAXX  15004 06788 33/// /2404 11064 21113 38298 48430 52009 333 91128 91215;
0137067880999992010011501004+46517+009183FM-12+161199999V0202301N003619999999N9999999N1-00871-01301999999ADDMA1999999082981MD1010041+9999ME1314329OA149900621REMSYN076AAXX  15014 06788 33/// /2307 11087 21130 38298 48432 50004 333 91112 91207;
0137067880999992010011502004+46517+009183FM-12+161199999V0202401N002619999999N9999999N1-01051-01541999999ADDMA1999999083001MD1510011+9999ME1314359OA149900771REMSYN076AAXX  15024 06788 33/// /2405 11105 21154 38300 48435 55001 333 91115 91208;
0096067880999992010011503004+46517+009183FM-12+161199999V0202501N001519999999N9999999N1-01201-01791999999ADDMA1999999083051ME1314419REMSYN060AAXX  15034 06788 33/// /2503 11120 21179 38305 48441 5////;
0137067880999992010011504004+46517+009183FM-12+161199999V0202401N002119999999N9999999N1-01311-02261999999ADDMA1999999083121MD1210141+9999ME1314489OA149900411REMSYN076AAXX  15044 06788 33/// /2404 11131 21226 38312 48448 52014 333 91108 91206;
0137067880999992010011505004+46517+009183FM-12+161199999V0202501N001019999999N9999999N1-01451-02381999999ADDMA1999999083191MD1210191+9999ME1314559OA149900311REMSYN076AAXX  15054 06788 33/// /2502 11145 21238 38319 48455 52019 333 91106 91204;
0234067880999992010011506004+46517+009183FM-12+161199999V0202401N001519999999N9999999N1-01301-02521999999ADDAA124000091AL19900091GJ100069IA2999-01909KA1999N-01471MA1999999083271MD1210221+9999ME1314619OA149901181REMSYN100AAXX  15064 06788 33/// /2403 11130 21252 38327 48461 52022 333 21147 3/119 55001 70000 91123 91215;EQDQ01  00002PRCP24
0137067880999992010011507004+46517+009183FM-12+161199999V0209999C000019999999N9999999N1-01441-02721999999ADDMA1999999083371MD1210251+9999ME1314719OA149900311REMSYN076AAXX  15074 06788 33/// /0000 11144 21272 38337 48471 52025 333 91106 91204;
0137067880999992010011508004+46517+009183FM-12+161199999V0202501N002619999999N9999999N1-01191-01881999999ADDMA1999999083461MD1219999+9999ME1314789OA149900361REMSYN076AAXX  15084 06788 33/// /2505 11119 21188 38346 48478 52/// 333 91107 91205;
0137067880999992010011509004+46517+009183FM-12+161199999V0202701N001019999999N9999999N1-01291-01661999999ADDMA1999999083531MD1110261+9999ME1314859OA149900361REMSYN076AAXX  15094 06788 33/// /2702 11129 21166 38353 48485 51026 333 91107 91205;
0137067880999992010011510004+46517+009183FM-12+161199999V0202601N000519999999N9999999N1-01141-01621999999ADDMA1999999083581MD1210211+9999ME1314899OA149900151REMSYN076AAXX  15104 06788 33/// /2601 11114 21162 38358 48489 52021 333 91103 91202;
0137067880999992010011511004+46517+009183FM-12+161199999V0200701N001019999999N9999999N1-00921-01421999999ADDMA1999999083591MD1210131+9999ME1314899OA149900211REMSYN076AAXX  15114 06788 33/// /0702 11092 21142 38359 48489 52013 333 91104 91202;
0137067880999992010011512004+46517+009183FM-12+161199999V0202701N001019999999N9999999N1-00691-01261999999ADDMA1999999083591MD1210061+9999ME1314889OA149900771REMSYN076AAXX  15124 06788 33/// /2702 11069 21126 38359 48488 52006 333 91115 91208;
0137067880999992010011513004+46517+009183FM-12+161199999V0209999C000019999999N9999999N1-00661-01111999999ADDMA1999999083611MD1210031+9999ME1314909OA149900211REMSYN076AAXX  15134 06788 33/// /0000 11066 21111 38361 48490 52003 333 91104 91203;
0137067880999992010011514004+46517+009183FM-12+161199999V0201801N000519999999N9999999N1-00671-01261999999ADDMA1999999083681MD1210091+9999ME1314969OA149900211REMSYN076AAXX  15144 06788 33/// /1801 11067 21126 38368 48496 52009 333 91104 91203;
0137067880999992010011515004+46517+009183FM-12+161199999V0202701N000519999999N9999999N1-00891-01391999999ADDMA1999999083751MD1310161+9999ME1315049OA149900211REMSYN076AAXX  15154 06788 33/// /2701 11089 21139 38375 48504 53016 333 91104 91203;
0137067880999992010011516004+46517+009183FM-12+161199999V0202401N000519999999N9999999N1-00951-01671999999ADDMA1999999083821MD1310211+9999ME1315109OA149900211REMSYN076AAXX  15164 06788 33/// /2401 11095 21167 38382 48510 53021 333 91104 91203;
0137067880999992010011517004+46517+009183FM-12+161199999V0202401N000519999999N9999999N1-00981-01471999999ADDMA1999999083881MD1110201+9999ME1315169OA149900261REMSYN076AAXX  15174 06788 33/// /2401 11098 21147 38388 48516 51020 333 91105 91203;
0156067880999992010011518004+46517+009183FM-12+161199999V0202401N001519999999N9999999N1-00991-01631999999ADDKA1120M-00411MA1999999083971MD1210221+9999ME1315249OA149900361REMSYN082AAXX  15184 06788 33/// /2403 11099 21163 38397 48524 52022 333 11041 91107 91205;
0137067880999992010011519004+46517+009183FM-12+161199999V0202301N000519999999N9999999N1-01151-01561999999ADDMA1999999084001MD1210181+9999ME1315289OA149900261REMSYN076AAXX  15194 06788 33/// /2301 11115 21156 38400 48528 52018 333 91105 91203;
0137067880999992010011520004+46517+009183FM-12+161199999V0202401N002119999999N9999999N1-01151-01721999999ADDMA1999999084001MD1210121+9999ME1315289OA149900261REMSYN076AAXX  15204 06788 33/// /2404 11115 21172 38400 48528 52012 333 91105 91204;
0137067880999992010011521004+46517+009183FM-12+161199999V0209999C000019999999N9999999N1-01191-01891999999ADDMA1999999083991MD1210021+9999ME1315279OA149900311REMSYN076AAXX  15214 06788 33/// /0000 11119 21189 38399 48527 52002 333 91106 91204;
0137067880999992010011522004+46517+009183FM-12+161199999V0202501N001019999999N9999999N1-01361-02451999999ADDMA1999999084021MD1310021+9999ME1315309OA149900311REMSYN076AAXX  15224 06788 33/// /2502 11136 21245 38402 48530 53002 333 91106 91205;
0137067880999992010011523004+46517+009183FM-12+161199999V0202401N001019999999N9999999N1-01481-01951999999ADDMA1999999084041MD1210041+9999ME1315339OA149900311REMSYN076AAXX  15234 06788 33/// /2402 11148 21195 38404 48533 52004 333 91106 91205;
0137067880999992010011600004+46517+009183FM-12+161199999V0200601N000519999999N9999999N1-01441-02962999999ADDMA1999999084031MD1210041+9999ME1315319OA149900311REMSYN076AAXX  16004 06788 33/// /0601 11144 21296 38403 48531 52004 333 91106 91205;
0137067880999992010011601004+46517+009183FM-12+161199999V0209999C000019999999N9999999N1-01731-02811999999ADDMA1999999084001MD1710021+9999ME1315309OA149900361REMSYN076AAXX  16014 06788 33/// /0000 11173 21281 38400 48530 57002 333 91107 91205;
0137067880999992010011602004+46517+009183FM-12+161199999V0202701N000519999999N9999999N1-01551-02891999999ADDMA1999999083991MD1710051+9999ME1315289OA149900361REMSYN076AAXX  16024 06788 33/// /2701 11155 21289 38399 48528 57005 333 91107 91205;
0137067880999992010011603004+46517+009183FM-12+161199999V0202501N002119999999N9999999N1-01511-03041999999ADDMA1999999083971MD1719999+9999ME1315269OA149900361REMSYN076AAXX  16034 06788 33/// /2504 11151 21304 38397 48526 57/// 333 91107 91205;
0137067880999992010011604004+46517+009183FM-12+161199999V0202501N001519999999N9999999N1-01411-02991999999ADDMA1999999083961MD1710041+9999ME1315259OA149900311REMSYN076AAXX  16044 06788 33/// /2503 11141 21299 38396 48525 57004 333 91106 91204;
0137067880999992010011605004+46517+009183FM-12+161199999V0209999C000019999999N9999999N1-01521-02221999999ADDMA1999999083941MD1710051+9999ME1315249OA149900311REMSYN076AAXX  16054 06788 33/// /0000 11152 21222 38394 48524 57005 333 91106 91203;
0234067880999992010011606004+46517+009183FM-12+161199999V0209999C000019999999N9999999N1-01541-02661999999ADDAA124000091AL19900091GJ101149IA2999-02109KA1999N-01731MA1999999083921MD1710051+9999ME1315229OA149900361REMSYN100AAXX  16064 06788 33/// /0000 11154 21266 38392 48522 57005 333 21173 3/121 55019 70000 91107 91205;EQDQ01  00002PRCP24
0137067880999992010011607004+46517+009183FM-12+161199999V0203601N000519999999N9999999N1-01571-02741999999ADDMA1999999083931MD1710031+9999ME1315239OA149900361REMSYN076AAXX  16074 06788 33/// /3601 11157 21274 38393 48523 57003 333 91107 91204;
0137067880999992010011608004+46517+009183FM-12+161199999V0202501N003119999999N9999999N1-01021-02571999999ADDMA1999999083921MD1710021+9999ME1315209OA149900571REMSYN076AAXX  16084 06788 33/// /2506 11102 21257 38392 48520 57002 333 91111 91206;
0137067880999992010011609004+46517+009183FM-12+161199999V0202301N001519999999N9999999N1-00951-02731999999ADDMA1999999083931MD1210011+9999ME1315219OA149900671REMSYN076AAXX  16094 06788 33/// /2303 11095 21273 38393 48521 52001 333 91113 91206;
0137067880999992010011610004+46517+009183FM-12+161199999V0201801N003619999999N9999999N1-00311-01721999999ADDMA1999999083901MD1710031+9999ME1315159OA149900671REMSYN076AAXX  16104 06788 33/// /1807 11031 21172 38390 48515 57003 333 91113 91207;
0137067880999992010011611004+46517+009183FM-12+161199999V0202201N006719999999N9999999N1-00131-01541999999ADDMA1999999083861MD1710061+9999ME1315119OA149900931REMSYN076AAXX  16114 06788 33/// /2213 11013 21154 38386 48511 57006 333 91118 91213;
0137067880999992010011612004+46517+009183FM-12+161199999V0202401N007219999999N9999999N1-00051-01421999999ADDMA1999999083831MD1710101+9999ME1315089OA149901031REMSYN076AAXX  16124 06788 33/// /2414 11005 21142 38383 48508 57010 333 91120 91215;
0137067880999992010011613004+46517+009183FM-12+161199999V0202201N007219999999N9999999N1-00121-01391999999ADDMA1999999083801MD1710101+9999ME1315059OA149901031REMSYN076AAXX  16134 06788 33/// /2214 11012 21139 38380 48505 57010 333 91120 91215;
0137067880999992010011614004+46517+009183FM-12+161199999V0202101N007219999999N9999999N1-00111-01301999999ADDMA1999999083781MD1719999+9999ME1315039OA149901031REMSYN076AAXX  16144 06788 33/// /2114 11011 21130 38378 48503 57/// 333 91120 91214;
0137067880999992010011615004+46517+009183FM-12+161199999V0202101N006719999999N9999999N1-00121-01301999999ADDMA1999999083741MD1710091+9999ME1314999OA149901031REMSYN076AAXX  16154 06788 33/// /2113 11012 21130 38374 48499 57009 333 91120 91215;
0137067880999992010011616004+46517+009183FM-12+161199999V0202201N008719999999N9999999N1-00161-01261999999ADDMA1999999083761MD1510041+9999ME1315019OA149901081REMSYN076AAXX  16164 06788 33/// /2217 11016 21126 38376 48501 55004 333 91121 91217;
0137067880999992010011617004+46517+009183FM-12+161199999V0202201N007719999999N9999999N1-00151-01341999999ADDMA1999999083741MD1710041+9999ME1314999OA149901131REMSYN076AAXX  16174 06788 33/// /2215 11015 21134 38374 48499 57004 333 91122 91217;
0156067880999992010011618004+46517+009183FM-12+161199999V0202301N006219999999N9999999N1-00051-01231999999ADDKA1120M-00021MA1999999083771MD1210031+9999ME1315029OA149901131REMSYN082AAXX  16184 06788 33/// /2312 11005 21123 38377 48502 52003 333 11002 91122 91217;
0137067880999992010011619004+46517+009183FM-12+161199999V0202401N008219999999N9999999N1-00071-01231999999ADDMA1999999083761MD1510001+9999ME1315019OA149901391REMSYN076AAXX  16194 06788 33/// /2416 11007 21123 38376 48501 55000 333 91127 91216;
0137067880999992010011620004+46517+009183FM-12+161199999V0202301N007219999999N9999999N1-00111-01171999999ADDMA1999999083721MD1810021+9999ME1314979OA149901391REMSYN076AAXX  16204 06788 33/// /2314 11011 21117 38372 48497 58002 333 91127 91216;
0137067880999992010011621004+46517+009183FM-12+161199999V0202101N005719999999N9999999N1-00181-01151999999ADDMA1999999083711MD1710061+9999ME1314979OA149901391REMSYN076AAXX  16214 06788 33/// /2111 11018 21115 38371 48497 57006 333 91127 91218;
0137067880999992010011622004+46517+009183FM-12+161199999V0202101N007219999999N9999999N1-00311-01121999999ADDMA1999999083671MD1710091+9999ME1314949OA149901241REMSYN076AAXX  16224 06788 33/// /2114 11031 21112 38367 48494 57009 333 91124 91218;
0137067880999992010011623004+46517+009183FM-12+161199999V0202401N008219999999N9999999N1-00391-01041999999ADDMA1999999083621MD1710101+9999ME1314899OA149901391REMSYN076AAXX  16234 06788 33/// /2416 11039 21104 38362 48489 57010 333 91127 91217;
0137067880999992010011700004+46517+009183FM-12+161199999V0202401N008719999999N9999999N1-00281-01121999999ADDMA1999999083581MD1710131+9999ME1314859OA149901441REMSYN076AAXX  17004 06788 33/// /2417 11028 21112 38358 48485 57013 333 91128 91218;
0156067880999992010011701004+46517+009183FM-12+161199999V0202201N006719999999N9999999N1-00351-01021999999ADDMA1999999083671MD1410001+9999ME1314949OA149901441REMSYN076AAXX  17014 06788 33/// /2213 11035 21102 38367 48494 53000 333 91128 91217;EQDQ01+000032APCTEN
0137067880999992010011702004+46517+009183FM-12+161199999V0202301N002619999999N9999999N1-00451-00691999999ADDMA1999999083621MD1219999+9999ME1314899OA149901241REMSYN076AAXX  17024 06788 33/// /2305 11045 21069 38362 48489 52/// 333 91124 91216;
0096067880999992010011703004+46517+009183FM-12+161199999V0202001N002119999999N9999999N1-00391-00831999999ADDMA1999999083571ME1314849REMSYN060AAXX  17034 06788 43/// /2004 11039 21083 38357 48484 5////;
0137067880999992010011704004+46517+009183FM-12+161199999V0202401N003119999999N9999999N1-00641-01111999999ADDMA1999999083501MD1710171+9999ME1314799OA149900671REMSYN076AAXX  17044 06788 33/// /2406 11064 21111 38350 48479 57017 333 91113 91208;
0137067880999992010011705004+46517+009183FM-12+161199999V0202201N003619999999N9999999N1-00421-00981999999ADDMA1999999083481MD1719999+9999ME1314769OA149900721REMSYN076AAXX  17054 06788 33/// /2207 11042 21098 38348 48476 57/// 333 91114 91208;
0234067880999992010011706004+46517+009183FM-12+161199999V0202001N006719999999N9999999N1-00391-00951999999ADDAA124000091AL19900091GJ101569IA2999-00809KA1999N-00731MA1999999083441MD1710131+9999ME1314729OA149901441REMSYN100AAXX  17064 06788 33/// /2013 11039 21095 38344 48472 57013 333 21073 3/108 55026 70000 91128 91218;EQDQ01  00002PRCP24
0137067880999992010011707004+46517+009183FM-12+161199999V0201801N002619999999N9999999N1-00341-01011999999ADDMA1999999083471MD1710031+9999ME1314759OA149901031REMSYN076AAXX  17074 06788 33/// /1805 11034 21101 38347 48475 57003 333 91120 91213;
0137067880999992010011708004+46517+009183FM-12+161199999V0201901N000519999999N9999999N1-00821-01201999999ADDMA1999999083491MD1319999+9999ME1314799OA149900931REMSYN076AAXX  17084 06788 33/// /1901 11082 21120 38349 48479 53/// 333 91118 91210;
0137067880999992010011709004+46517+009183FM-12+161199999V0200601N000519999999N9999999N1-00591-01101999999ADDMA1999999083521MD1210081+9999ME1314819OA149901031REMSYN076AAXX  17094 06788 33/// /0601 11059 21110 38352 48481 52008 333 91120 91213;
0137067880999992010011710004+46517+009183FM-12+161199999V0201101N001019999999N9999999N1-00611-01071999999ADDMA1999999083551MD1210081+9999ME1314849OA149900411REMSYN076AAXX  17104 06788 33/// /1102 11061 21107 38355 48484 52008 333 91108 91204;
0137067880999992010011711004+46517+009183FM-12+161199999V0202401N001019999999N9999999N1-00531-00981999999ADDMA1999999083531MD1010041+9999ME1314819OA149900411REMSYN076AAXX  17114 06788 33/// /2402 11053 21098 38353 48481 50004 333 91108 91203;
0137067880999992010011712004+46517+009183FM-12+161199999V0200801N001519999999N9999999N1-00141-00781999999ADDMA1999999083541MD1510021+9999ME1314809OA149901241REMSYN076AAXX  17124 06788 33/// /0803 11014 21078 38354 48480 55002 333 91124 91216;
0137067880999992010011713004+46517+009183FM-12+161199999V0200501N001519999999N9999999N1-00081-00751999999ADDMA1999999083531MD1710021+9999ME1314799OA149900411REMSYN076AAXX  17134 06788 33/// /0503 11008 21075 38353 48479 57002 333 91108 91204;
0137067880999992010011714004+46517+009183FM-12+161199999V0200801N003119999999N9999999N1+00001-00691999999ADDMA1999999083561MD1319999+9999ME1314819OA149900721REMSYN076AAXX  17144 06788 33/// /0806 10000 21069 38356 48481 53/// 333 91114 91206;
0137067880999992010011715004+46517+009183FM-12+161199999V0200401N003619999999N9999999N1-00051-00561999999ADDMA1999999083651MD1210111+9999ME1314909OA149900931REMSYN076AAXX  17154 06788 33/// /0407 11005 21056 38365 48490 52011 333 91118 91208;
0137067880999992010011716004+46517+009183FM-12+161199999V0200401N003119999999N9999999N1-00111-00551999999ADDMA1999999083741MD1210211+9999ME1314999OA149900981REMSYN076AAXX  17164 06788 33/// /0406 11011 21055 38374 48499 52021 333 91119 91208;
