0137067830999992010010100004+46467+009183FM-12+163899999V0209999C000019999999N9999999N1-00651-00791999999ADDMA1999999081191MD1810101+9999ME1312809OA149900311REMSYN076AAXX  01004 06783 33/// /0000 11065 21079 38119 48280 58010 333 91106 91202;
0137067830999992010010101004+46467+009183FM-12+163899999V0209999C000019999999N9999999N1-00661-00791999999ADDMA1999999081171MD1710121+9999ME1312789OA149900101REMSYN076AAXX  01014 06783 33/// /0000 11066 21079 38117 48278 57012 333 91102 91201;
0137067830999992010010102004+46467+009183FM-12+163899999V0209999C000019999999N9999999N1-00731-00861999999ADDMA1999999081161MD1719999+9999ME1312789OA149900101REMSYN076AAXX  01024 06783 33/// /0000 11073 21086 38116 48278 57/// 333 91102 91201;
0096067830999992010010103004+46467+009183FM-12+163899999V0209999C000019999999N9999999N1-00681-00821999999ADDMA1999999081101ME1312719REMSYN060AAXX  01034 06783 43/// /0000 11068 21082 38110 48271 5////;
0096067830999992010010104004+46467+009183FM-12+163899999V0202501N000519999999N9999999N1-00681-00861999999ADDMA1999999081061ME1312689REMSYN060AAXX  01044 06783 33/// /2501 11068 21086 38106 48268 5////;
0137067830999992010010105004+46467+009183FM-12+163899999V0209999C000019999999N9999999N1-00631-00771999999ADDMA1999999080941MD1710221+9999ME1312559OA149900361REMSYN076AAXX  01054 06783 33/// /0000 11063 21077 38094 48255 57022 333 91107 91205;
0215067830999992010010106004+46467+009183FM-12+163899999V0202601N000519999999N9999999N1-00561-00741999999ADDAA124005691AL13000591GJ100009IA2999-01209KA1999N-00811MA1999999080891MD1710211+9999ME1312499OA149900361REMSYN100AAXX  01064 06783 33/// /2601 11056 21074 38089 48249 57021 333 21081 3/112 55000 70055 91107 91205;
0137067830999992010010107004+46467+009183FM-12+163899999V0209999C000019999999N9999999N1-00581-00701999999ADDMA1999999080941MD1510121+9999ME1312549OA149900411REMSYN076AAXX  01074 06783 33/// /0000 11058 21070 38094 48254 55012 333 91108 91202;
0137067830999992010010108004+46467+009183FM-12+163899999V0209999C000019999999N9999999N1-00611-00771999999ADDMA1999999081011MD1310071+9999ME1312629OA149900411REMSYN076AAXX  01084 06783 33/// /0000 11061 21077 38101 48262 53007 333 91108 91202;
0137067830999992010010109004+46467+009183FM-12+163899999V0202601N000519999999N9999999N1-00441-00631999999ADDMA1999999081081MD1310191+9999ME1312669OA149900411REMSYN076AAXX  01094 06783 33/// /2601 11044 21063 38108 48266 53019 333 91108 91205;
0137067830999992010010110004+46467+009183FM-12+163899999V0200201N001519999999N9999999N1-00151-00501999999ADDMA1999999081061MD1210121+9999ME1312609OA149900261REMSYN076AAXX  01104 06783 33/// /0203 11015 21050 38106 48260 52012 333 91105 91203;
0137067830999992010010111004+46467+009183FM-12+163899999V0209999C000019999999N9999999N1-00111-00551999999ADDMA1999999081021MD1810011+9999ME1312559OA149900261REMSYN076AAXX  01114 06783 33/// /0000 11011 21055 38102 48255 58001 333 91105 91204;
0137067830999992010010112004+46467+009183FM-12+163899999V0203601N000519999999N9999999N1-00081-00611999999ADDMA1999999080991MD1610091+9999ME1312529OA149900411REMSYN076AAXX  01124 06783 33/// /3601 11008 21061 38099 48252 56009 333 91108 91205;
0137067830999992010010113004+46467+009183FM-12+163899999V0201101N000519999999N9999999N1-00061-00541999999ADDMA1999999080991MD1710071+9999ME1312529OA149900311REMSYN076AAXX  01134 06783 33/// /1101 11006 21054 38099 48252 57007 333 91106 91204;
0137067830999992010010114004+46467+009183FM-12+163899999V0203201N003619999999N9999999N1+00001-00661999999ADDMA1999999081031MD1319999+9999ME1312559OA149900771REMSYN076AAXX  01144 06783 33/// /3207 10000 21066 38103 48255 53/// 333 91115 91209;
0137067830999992010010115004+46467+009183FM-12+163899999V0203301N006219999999N9999999N1-00051-00621999999ADDMA1999999081101MD1210111+9999ME1312639OA149900931REMSYN076AAXX  01154 06783 33/// /3312 11005 21062 38110 48263 52011 333 91118 91212;
0137067830999992010010116004+46467+009183FM-12+163899999V0203101N003119999999N9999999N1-00111-00521999999ADDMA1999999081151MD1110161+9999ME1312689OA149900931REMSYN076AAXX  01164 06783 33/// /3106 11011 21052 38115 48268 51016 333 91118 91212;
0137067830999992010010117004+46467+009183FM-12+163899999V0203201N005119999999N9999999N1-00041-00581999999ADDMA1999999081221MD1110191+9999ME1312749OA149900821REMSYN076AAXX  01174 06783 33/// /3210 11004 21058 38122 48274 51019 333 91116 91211;
0156067830999992010010118004+46467+009183FM-12+163899999V0203201N005719999999N9999999N1-00061-00521999999ADDKA1120M+00061MA1999999081281MD1310181+9999ME1312819OA149901081REMSYN082AAXX  01184 06783 33/// /3211 11006 21052 38128 48281 53018 333 10006 91121 91212;
0137067830999992010010119004+46467+009183FM-12+163899999V0203201N005719999999N9999999N1-00121-00521999999ADDMA1999999081361MD1210211+9999ME1312899OA149901081REMSYN076AAXX  01194 06783 33/// /3211 11012 21052 38136 48289 52021 333 91121 91213;
0137067830999992010010120004+46467+009183FM-12+163899999V0203201N005119999999N9999999N1-00081-00541999999ADDMA1999999081441MD1310221+9999ME1312979OA149901031REMSYN076AAXX  01204 06783 33/// /3210 11008 21054 38144 48297 53022 333 91120 91213;
0185067830999992010010121004+46467+009183FM-12+163899999V0203201N003610240019N0350001N1-00121-00691999999ADDGA1061+024001061GF106991999999022501999999MA1999999081551MD1310271+9999ME1313089OA149901241REMSYN082AAXX  01214 06783 32881 63207 11012 21069 38155 48308 53027 333 86658 91124 91213;
0137067830999992010010122004+46467+009183FM-12+163899999V0203201N002119999999N9999999N1-00101-00861999999ADDMA1999999081631MD1210271+9999ME1313169OA149901241REMSYN076AAXX  01224 06783 33/// /3204 11010 21086 38163 48316 52027 333 91124 91213;
0137067830999992010010123004+46467+009183FM-12+163899999V0203301N005119999999N9999999N1-00231-00631999999ADDMA1999999081701MD1110261+9999ME1313249OA149900981REMSYN076AAXX  01234 06783 33/// /3310 11023 21063 38170 48324 51026 333 91119 91210;
0137067830999992010010200004+46467+009183FM-12+163899999V0203201N006219999999N9999999N1-00271-00671999999ADDMA1999999081741MD1210191+9999ME1313299OA149901241REMSYN076AAXX  02004 06783 33/// /3212 11027 21067 38174 48329 52019 333 91124 91213;
0137067830999992010010201004+46467+009183FM-12+163899999V0203201N006719999999N9999999N1-00311-00681999999ADDMA1999999081771MD1210141+9999ME1313329OA149901241REMSYN076AAXX  02014 06783 33/// /3213 11031 21068 38177 48332 52014 333 91124 91213;
0096067830999992010010202004+46467+009183FM-12+163899999V0203301N004619999999N9999999N1-00291-00981999999ADDMA1999999081831ME1313389REMSYN060AAXX  02024 06783 33/// /3309 11029 21098 38183 48338 5////;
0137067830999992010010203004+46467+009183FM-12+163899999V0203201N004619999999N9999999N1-00351-00871999999ADDMA1999999081861MD1210121+9999ME1313419OA149901241REMSYN076AAXX  02034 06783 33/// /3209 11035 21087 38186 48341 52012 333 91124 91213;
0137067830999992010010204004+46467+009183FM-12+163899999V0203301N006219999999N9999999N1-00431-00841999999ADDMA1999999081921MD1210151+9999ME1313489OA149901241REMSYN076AAXX  02044 06783 33/// /3312 11043 21084 38192 48348 52015 333 91124 91212;
0137067830999992010010205004+46467+009183FM-12+163899999V0203301N005119999999N9999999N1-00501-01021999999ADDMA1999999081981MD1210151+9999ME1313559OA149901391REMSYN076AAXX  02054 06783 33/// /3310 11050 21102 38198 48355 52015 333 91127 91213;
0234067830999992010010206004+46467+009183FM-12+163899999V0203301N004119999999N9999999N1-00621-01191999999ADDAA124000091AL19900091GJ100789IA2999-00709KA1999N-00591MA1999999082071MD1310211+9999ME1313659OA149901391REMSYN100AAXX  02064 06783 33/// /3308 11062 21119 38207 48365 53021 333 21059 3/107 55013 70000 91127 91213;EQDQ01  00002PRCP24
0137067830999992010010207004+46467+009183FM-12+163899999V0203301N003119999999N9999999N1-00701-01541999999ADDMA1999999082141MD1210221+9999ME1313729OA149901181REMSYN076AAXX  02074 06783 33/// /3306 11070 21154 38214 48372 52022 333 91123 91213;
0096067830999992010010208004+46467+009183FM-12+163899999V0203501N003119999999N9999999N1-00711-01701999999ADDMA1999999082221ME1313809REMSYN060AAXX  02084 06783 33/// /3506 11071 21170 38222 48380 5////;
0137067830999992010010209004+46467+009183FM-12+163899999V0203301N003619999999N9999999N1-00811-01601999999ADDMA1999999082301MD1210231+9999ME1313889OA149901391REMSYN076AAXX  02094 06783 33/// /3307 11081 21160 38230 48388 52023 333 91127 91213;
0137067830999992010010210004+46467+009183FM-12+163899999V0203501N004119999999N9999999N1-00771-01701999999ADDMA1999999082371MD1110231+9999ME1313959OA149901081REMSYN076AAXX  02104 06783 33/// /3508 11077 21170 38237 48395 51023 333 91121 91209;
0137067830999992010010211004+46467+009183FM-12+163899999V0203501N004119999999N9999999N1-00731-01941999999ADDMA1999999082391MD1210171+9999ME1313969OA149901131REMSYN076AAXX  02114 06783 33/// /3508 11073 21194 38239 48396 52017 333 91122 91208;
0137067830999992010010212004+46467+009183FM-12+163899999V0203501N004119999999N9999999N1-00761-01821999999ADDMA1999999082481MD1210181+9999ME1314059OA149901491REMSYN076AAXX  02124 06783 33/// /3508 11076 21182 38248 48405 52018 333 91129 91213;
0137067830999992010010213004+46467+009183FM-12+163899999V0203401N005119999999N9999999N1-00851-02021999999ADDMA1999999082511MD1210141+9999ME1314099OA149901541REMSYN076AAXX  02134 06783 33/// /3410 11085 21202 38251 48409 52014 333 91130 91210;
0137067830999992010010214004+46467+009183FM-12+163899999V0203601N005119999999N9999999N1-00931-02281999999ADDMA1999999082571MD1219999+9999ME1314159OA149901651REMSYN076AAXX  02144 06783 33/// /3610 11093 21228 38257 48415 52/// 333 91132 91212;
0213067830999992010010215004+46467+009183FM-12+163899999V0203401N004110027019N0120001N1-01021-02221999999ADDAY111031AY211031GA1051+002701061GF105991999999002501999999MA1999999082641MD1210161+9999ME1314229MW1361OA149901651REMSYN088AAXX  02154 06783 31362 53408 11102 21222 38264 48422 52016 73611 333 85609 91132 91212;
0137067830999992010010216004+46467+009183FM-12+163899999V0203401N005119999999N9999999N1-01041-01961999999ADDMA1999999082711MD1210201+9999ME1314299OA149901601REMSYN076AAXX  02164 06783 33/// /3410 11104 21196 38271 48429 52020 333 91131 91211;
0137067830999992010010217004+46467+009183FM-12+163899999V0203501N005719999999N9999999N1-01081-01811999999ADDMA1999999082771MD1210201+9999ME1314359OA149901601REMSYN076AAXX  02174 06783 33/// /3511 11108 21181 38277 48435 52020 333 91131 91212;
0244067830999992010010218004+46467+009183FM-12+163899999V0203401N004610015019N0009001N1-01091-01831999999ADDAY171061AY221061GA1081+001501071GF108991999999001501999999IA1239KA1120M-00591MA1999999082831MD1310191+9999ME1314419MW1701OA149901651REMSYN100AAXX  02184 06783 31209 83409 11109 21183 38283 48441 53019 77072 333 11059 47/// 88705 91132 91212;
0137067830999992010010219004+46467+009183FM-12+163899999V0203401N003619999999N9999999N1-01091-01831999999ADDMA1999999082901MD1210191+9999ME1314479OA149901341REMSYN076AAXX  02194 06783 33/// /3407 11109 21183 38290 48447 52019 333 91126 91210;
0137067830999992010010220004+46467+009183FM-12+163899999V0203401N005119999999N9999999N1-01091-02031999999ADDMA1999999082931MD1210161+9999ME1314509OA149901291REMSYN076AAXX  02204 06783 33/// /3410 11109 21203 38293 48450 52016 333 91125 91210;
0185067830999992010010221004+46467+009183FM-12+163899999V0203501N004112200019N0150001N1-01111-02121999999ADDGA1031+002701031GF103991999999002501999999MA1999999082941MD1210111+9999ME1314519OA149901601REMSYN082AAXX  02214 06783 32365 33508 11111 21212 38294 48451 52011 333 83309 91131 91212;
0137067830999992010010222004+46467+009183FM-12+163899999V0203401N005119999999N9999999N1-01171-02151999999ADDMA1999999082951MD1210051+9999ME1314539OA149901441REMSYN076AAXX  02224 06783 33/// /3410 11117 21215 38295 48453 52005 333 91128 91210;
0137067830999992010010223004+46467+009183FM-12+163899999V0203301N006219999999N9999999N1-01211-02171999999ADDMA1999999082991MD1210061+9999ME1314579OA149901441REMSYN076AAXX  02234 06783 33/// /3312 11121 21217 38299 48457 52006 333 91128 91212;
0137067830999992010010300004+46467+009183FM-12+163899999V0203301N004619999999N9999999N1-01251-02751999999ADDMA1999999083011MD1210071+9999ME1314599OA149901651REMSYN076AAXX  03004 06783 33/// /3309 11125 21275 38301 48459 52007 333 91132 91213;
0137067830999992010010301004+46467+009183FM-12+163899999V0203201N004619999999N9999999N1-01251-02731999999ADDMA1999999083021MD1210071+9999ME1314609OA149901491REMSYN076AAXX  03014 06783 33/// /3209 11125 21273 38302 48460 52007 333 91129 91213;
0096067830999992010010302004+46467+009183FM-12+163899999V0203201N004619999999N9999999N1-01251-02641999999ADDMA1999999083071ME1314649REMSYN060AAXX  03024 06783 33/// /3209 11125 21264 38307 48464 5////;
0096067830999992010010303004+46467+009183FM-12+163899999V0203201N006719999999N9999999N1-01211-02581999999ADDMA1999999083071ME1314649REMSYN060AAXX  03034 06783 33/// /3213 11121 21258 38307 48464 5////;
0137067830999992010010304004+46467+009183FM-12+163899999V0203301N006219999999N9999999N1-01201-02681999999ADDMA1999999083041MD1010021+9999ME1314619OA149901491REMSYN076AAXX  03044 06783 33/// /3312 11120 21268 38304 48461 50002 333 91129 91215;
0137067830999992010010305004+46467+009183FM-12+163899999V0203201N009319999999N9999999N1-01191-02761999999ADDMA1999999083061MD1719999+9999ME1314639OA149901441REMSYN076AAXX  03054 06783 33/// /3218 11119 21276 38306 48463 57/// 333 91128 91218;
0215067830999992010010306004+46467+009183FM-12+163899999V0203101N003619999999N9999999N1-01111-03101999999ADDAA124000021AL19900091GJ101989IA2999-01409KA1999N-01271MA1999999083011MD1710061+9999ME1314589OA149901491REMSYN100AAXX  03064 06783 33/// /3107 11111 21310 38301 48458 57006 333 21127 3/114 55033 70000 91129 91218;
0137067830999992010010307004+46467+009183FM-12+163899999V0203301N002619999999N9999999N1-01091-03101999999ADDMA1999999083051MD1310011+9999ME1314619OA149901391REMSYN076AAXX  03074 06783 33/// /3305 11109 21310 38305 48461 53001 333 91127 91215;
0137067830999992010010308004+46467+009183FM-12+163899999V0203301N003619999999N9999999N1-01081-02801999999ADDMA1999999083091MD1319999+9999ME1314659OA149901291REMSYN076AAXX  03084 06783 33/// /3307 11108 21280 38309 48465 53/// 333 91125 91212;
0137067830999992010010309004+46467+009183FM-12+163899999V0203501N002119999999N9999999N1-00871-02841999999ADDMA1999999083151MD1210141+9999ME1314699OA149901441REMSYN076AAXX  03094 06783 33/// /3504 11087 21284 38315 48469 52014 333 91128 91218;
0137067830999992010010310004+46467+009183FM-12+163899999V0200201N001519999999N9999999N1-00681-03011999999ADDMA1999999083171MD1210121+9999ME1314709OA149900721REMSYN076AAXX  03104 06783 33/// /0203 11068 21301 38317 48470 52012 333 91114 91206;
0137067830999992010010311004+46467+009183FM-12+163899999V0200301N001519999999N9999999N1-00641-02801999999ADDMA1999999083081MD1810011+9999ME1314619OA149900411REMSYN076AAXX  03114 06783 33/// /0303 11064 21280 38308 48461 58001 333 91108 91204;
0137067830999992010010312004+46467+009183FM-12+163899999V0203301N001519999999N9999999N1-00571-02471999999ADDMA1999999083061MD1810091+9999ME1314599OA149901491REMSYN076AAXX  03124 06783 33/// /3303 11057 21247 38306 48459 58009 333 91129 91218;
0137067830999992010010313004+46467+009183FM-12+163899999V0202501N002119999999N9999999N1-00701-02201999999ADDMA1999999083051MD1710121+9999ME1314599OA149900361REMSYN076AAXX  03134 06783 33/// /2504 11070 21220 38305 48459 57012 333 91107 91204;
0137067830999992010010314004+46467+009183FM-12+163899999V0203201N001519999999N9999999N1-01051-01971999999ADDMA1999999083051MD1710031+9999ME1314619OA149900361REMSYN076AAXX  03144 06783 33/// /3203 11105 21197 38305 48461 57003 333 91107 91204;
0185067830999992010010315004+46467+009183FM-12+163899999V0203101N000512200019N0240001N1-01261-02661999999ADDGA1011+006601001GF101991999999008001999999MA1999999083081MD1310021+9999ME1314659OA149900411REMSYN082AAXX  03154 06783 32574 13101 11126 21266 38308 48465 53002 333 81022 91108 91204;
0137067830999992010010316004+46467+009183FM-12+163899999V0203001N000519999999N9999999N1-01291-03171999999ADDMA1999999083101MD1210051+9999ME1314679OA149900311REMSYN076AAXX  03164 06783 33/// /3001 11129 21317 38310 48467 52005 333 91106 91203;
0137067830999992010010317004+46467+009183FM-12+163899999V0202901N000519999999N9999999N1-01361-02871999999ADDMA1999999083041MD1810011+9999ME1314629OA149900311REMSYN076AAXX  03174 06783 33/// /2901 11136 21287 38304 48462 58001 333 91106 91202;
0216067830999992010010318004+46467+009183FM-12+163899999V0203301N000512200019N0220001N1-01301-02551999999ADDGA1021+005701001GF102991999999004501999999IA1239KA1120M-00541MA1999999083051MD1710031+9999ME1314639OA149901291REMSYN094AAXX  03184 06783 32472 23301 11130 21255 38305 48463 57003 333 11054 47/// 82019 91125 91212;
0137067830999992010010319004+46467+009183FM-12+163899999V0203301N000519999999N9999999N1-01371-02741999999ADDMA1999999083061MD1510041+9999ME1314649OA149900151REMSYN076AAXX  03194 06783 33/// /3301 11137 21274 38306 48464 55004 333 91103 91201;
0137067830999992010010320004+46467+009183FM-12+163899999V0203001N000519999999N9999999N1-01411-02931999999ADDMA1999999083041MD1010001+9999ME1314639OA149900151REMSYN076AAXX  03204 06783 33/// /3001 11141 21293 38304 48463 50000 333 91103 91201;
0185067830999992010010321004+46467+009183FM-12+163899999V0203301N000512200019N0210001N1-01411-02941999999ADDGA1011+004501001GF101991999999004501999999MA1999999083041MD1710011+9999ME1314639OA149900311REMSYN082AAXX  03214 06783 32471 13301 11141 21294 38304 48463 57001 333 81015 91106 91202;
0137067830999992010010322004+46467+009183FM-12+163899999V0209999C000019999999N9999999N1-01541-02791999999ADDMA1999999083051MD1510011+9999ME1314649OA149900151REMSYN076AAXX  03224 06783 33/// /0000 11154 21279 38305 48464 55001 333 91103 91202;
0137067830999992010010323004+46467+009183FM-12+163899999V0209999C000019999999N9999999N1-01581-02921999999ADDMA1999999083051MD1310011+9999ME1314659OA149900151REMSYN076AAXX  03234 06783 33/// /0000 11158 21292 38305 48465 53001 333 91103 91202;
0137067830999992010010400004+46467+009183FM-12+163899999V0209999C000019999999N9999999N1-01621-02691999999ADDMA1999999083021MD1810021+9999ME1314629OA149900361REMSYN076AAXX  04004 06783 33/// /0000 11162 21269 38302 48462 58002 333 91107 91204;
0137067830999992010010401004+46467+009183FM-12+163899999V0209999C000019999999N9999999N1-01481-02441999999ADDMA1999999082971MD1710081+9999ME1314579OA149900101REMSYN076AAXX  04014 06783 33/// /0000 11148 21244 38297 48457 57008 333 91102 91201;
0137067830999992010010402004+46467+009183FM-12+163899999V0209999C000019999999N9999999N1-01491-02171999999ADDMA1999999082911MD1810141+9999ME1314519OA149900151REMSYN076AAXX  04024 06783 33/// /0000 11149 21217 38291 48451 58014 333 91103 91201;
0137067830999992010010403004+46467+009183FM-12+163899999V0209999C000019999999N9999999N1-01511-02481999999ADDMA1999999082901MD1619999+9999ME1314509OA149900151REMSYN076AAXX  04034 06783 33/// /0000 11151 21248 38290 48450 56/// 333 91103 91202;
0137067830999992010010404004+46467+009183FM-12+163899999V0209999C000019999999N9999999N1-01321-02051999999ADDMA1999999082861MD1710111+9999ME1314459OA149900101REMSYN076AAXX  04044 06783 33/// /0000 11132 21205 38286 48445 57011 333 91102 91201;
0137067830999992010010405004+46467+009183FM-12+163899999V0209999C000019999999N9999999N1-01351-01931999999ADDMA1999999082821MD1710091+9999ME1314429OA149900101REMSYN076AAXX  04054 06783 33/// /0000 11135 21193 38282 48442 57009 333 91102 91201;
0234067830999992010010406004+46467+009183FM-12+163899999V0209999C000019999999N9999999N1-01351-01961999999ADDAA124000091AL19900091GJ102589IA2999-02109KA1999N-01621MA1999999082801MD1710101+9999ME1314409OA149900151REMSYN100AAXX  04064 06783 33/// /0000 11135 21196 38280 48440 57010 333 21162 3/121 55043 70000 91103 91202;EQDQ01  00002PRCP24
0137067830999992010010407004+46467+009183FM-12+163899999V0209999C000019999999N9999999N1-01341-01961999999ADDMA1999999082801MD1710061+9999ME1314409OA149900101REMSYN076AAXX  04074 06783 33/// /0000 11134 21196 38280 48440 57006 333 91102 91201;
0137067830999992010010408004+46467+009183FM-12+163899999V0209999C000019999999N9999999N1-01241-01901999999ADDMA1999999082811MD1210011+9999ME1314409OA149900101REMSYN076AAXX  04084 06783 33/// /0000 11124 21190 38281 48440 52001 333 91102 91201;
0185067830999992010010409004+46467+009183FM-12+163899999V0209999C000010087019N0200001N1-01101-01951999999ADDGA1071+008701041GF107991999999008001999999MA1999999082811MD1210011+9999ME1314399OA149900101REMSYN082AAXX  04094 06783 32570 70000 11110 21195 38281 48439 52001 333 87429 91102 91201;
0137067830999992010010410004+46467+009183FM-12+163899999V0201301N003119999999N9999999N1-00831-02151999999ADDMA1999999082791MD1810011+9999ME1314359OA149900461REMSYN076AAXX  04104 06783 33/// /1306 11083 21215 38279 48435 58001 333 91109 91206;
0137067830999992010010411004+46467+009183FM-12+163899999V0201301N004119999999N9999999N1-00891-02021999999ADDMA1999999082741MD1710071+9999ME1314319OA149900621REMSYN076AAXX  04114 06783 33/// /1308 11089 21202 38274 48431 57007 333 91112 91208;
0137067830999992010010412004+46467+009183FM-12+163899999V0201301N003119999999N9999999N1-00891-02061999999ADDMA1999999082691MD1810121+9999ME1314269OA149900621REMSYN076AAXX  04124 06783 33/// /1306 11089 21206 38269 48426 58012 333 91112 91208;
0137067830999992010010413004+46467+009183FM-12+163899999V0209999C000019999999N9999999N1-00861-02071999999ADDMA1999999082591MD1810201+9999ME1314169OA149900511REMSYN076AAXX  04134 06783 33/// /0000 11086 21207 38259 48416 58020 333 91110 91207;
0137067830999992010010414004+46467+009183FM-12+163899999V0202501N000519999999N9999999N1-00781-01871999999ADDMA1999999082541MD1819999+9999ME1314119OA149900411REMSYN076AAXX  04144 06783 33/// /2501 11078 21187 38254 48411 58/// 333 91108 91206;
0185067830999992010010415004+46467+009183FM-12+163899999V0201901N000512200019N0220001N1-00901-01901999999ADDGA1021+005701031GF104991999999004501999999MA1999999082541MD1710151+9999ME1314129OA149900621REMSYN082AAXX  04154 06783 32472 41901 11090 21190 38254 48412 57015 333 82319 91112 91208;
0137067830999992010010416004+46467+009183FM-12+163899999V0209999C000019999999N9999999N1-00991-01791999999ADDMA1999999082531MD1710061+9999ME1314129OA149900261REMSYN076AAXX  04164 06783 33/// /0000 11099 21179 38253 48412 57006 333 91105 91202;
0137067830999992010010417004+46467+009183FM-12+163899999V0209999C000019999999N9999999N1-01071-01721999999ADDMA1999999082491MD1810051+9999ME1314099OA149900211REMSYN076AAXX  04174 06783 33/// /0000 11107 21172 38249 48409 58005 333 91104 91201;
0216067830999992010010418004+46467+009183FM-12+163899999V0203001N000510036019N0200001N1-01191-01701999999ADDGA1051+003601061GF105991999999004501999999IA1239KA1120M-00741MA1999999082481MD1810061+9999ME1314099OA149900621REMSYN094AAXX  04184 06783 32470 53001 11119 21170 38248 48409 58006 333 11074 47/// 85612 91112 91208;
0137067830999992010010419004+46467+009183FM-12+163899999V0202701N000519999999N9999999N1-01181-01661999999ADDMA1999999082471MD1710061+9999ME1314089OA149900151REMSYN076AAXX  04194 06783 33/// /2701 11118 21166 38247 48408 57006 333 91103 91201;
0137067830999992010010420004+46467+009183FM-12+163899999V0202901N000519999999N9999999N1-01271-01721999999ADDMA1999999082451MD1810041+9999ME1314079OA149900151REMSYN076AAXX  04204 06783 33/// /2901 11127 21172 38245 48407 58004 333 91103 91201;
0185067830999992010010421004+46467+009183FM-12+163899999V0209999C000012200019N0220001N1-01351-01721999999ADDGA1021+005701031GF102991999999004501999999MA1999999082421MD1710061+9999ME1314059OA149900211REMSYN082AAXX  04214 06783 32472 20000 11135 21172 38242 48405 57006 333 82319 91104 91201;
0137067830999992010010422004+46467+009183FM-12+163899999V0209999C000019999999N9999999N1-01341-01771999999ADDMA1999999082411MD1710061+9999ME1314049OA149900101REMSYN076AAXX  04224 06783 33/// /0000 11134 21177 38241 48404 57006 333 91102 91201;
0137067830999992010010423004+46467+009183FM-12+163899999V0209999C000019999999N9999999N1-01341-01641999999ADDMA1999999082401MD1710051+9999ME1314039OA149900101REMSYN076AAXX  04234 06783 33/// /0000 11134 21164 38240 48403 57005 333 91102 91201;
0137067830999992010010500004+46467+009183FM-12+163899999V0209999C000019999999N9999999N1-01291-01551999999ADDMA1999999082371MD1710051+9999ME1314009OA149900411REMSYN076AAXX  05004 06783 33/// /0000 11129 21155 38237 48400 57005 333 91108 91206;
0137067830999992010010501004+46467+009183FM-12+163899999V0209999C000019999999N9999999N1-01311-01581999999ADDMA1999999082291MD1710121+9999ME1313929OA149900051REMSYN076AAXX  05014 06783 33/// /0000 11131 21158 38229 48392 57012 333 91101 91201;
0137067830999992010010502004+46467+009183FM-12+163899999V0209999C000019999999N9999999N1-01321-01641999999ADDMA1999999082261MD1710141+9999ME1313909OA149900101REMSYN076AAXX  05024 06783 33/// /0000 11132 21164 38226 48390 57014 333 91102 91201;
0137067830999992010010503004+46467+009183FM-12+163899999V0209999C000019999999N9999999N1-01401-01731999999ADDMA1999999082221MD1710151+9999ME1313879OA149900101REMSYN076AAXX  05034 06783 33/// /0000 11140 21173 38222 48387 57015 333 91102 91201;
0137067830999992010010504004+46467+009183FM-12+163899999V0209999C000019999999N9999999N1-01381-01701999999ADDMA1999999082141MD1710151+9999ME1313799OA149900051REMSYN076AAXX  05044 06783 33/// /0000 11138 21170 38214 48379 57015 333 91101 91201;
0137067830999992010010505004+46467+009183FM-12+163899999V0209999C000019999999N9999999N1-01471-01721999999ADDMA1999999082101MD1610161+9999ME1313769OA149900051REMSYN076AAXX  05054 06783 33/// /0000 11147 21172 38210 48376 56016 333 91101 91201;
0234067830999992010010506004+46467+009183FM-12+163899999V0209999C000019999999N9999999N1-01421-01721999999ADDAA124000091AL19900091GJ102109IA2999-01909KA1999N-01471MA1999999082091MD1710131+9999ME1313759OA149900151REMSYN100AAXX  05064 06783 33/// /0000 11142 21172 38209 48375 57013 333 21147 3/119 55035 70000 91103 91201;EQDQ01  00002PRCP24
0137067830999992010010507004+46467+009183FM-12+163899999V0209999C000019999999N9999999N1-01441-01711999999ADDMA1999999082071MD1710071+9999ME1313739OA149900051REMSYN076AAXX  05074 06783 33/// /0000 11144 21171 38207 48373 57007 333 91101 91201;
0137067830999992010010508004+46467+009183FM-12+163899999V0209999C000019999999N9999999N1-01311-01541999999ADDMA1999999082091MD1510011+9999ME1313749OA149900101REMSYN076AAXX  05084 06783 33/// /0000 11131 21154 38209 48374 55001 333 91102 91201;
0185067830999992010010509004+46467+009183FM-12+163899999V0209999C000010135019N0300001N1-01041-01391999999ADDGA1061+013501061GF106991999999012501999999MA1999999082031MD1710061+9999ME1313659OA149900151REMSYN082AAXX  05094 06783 32680 60000 11104 21139 38203 48365 57006 333 86645 91103 91201;
0137067830999992010010510004+46467+009183FM-12+163899999V0201301N000519999999N9999999N1-00871-01341999999ADDMA1999999082011MD1710061+9999ME1313619OA149900151REMSYN076AAXX  05104 06783 33/// /1301 11087 21134 38201 48361 57006 333 91103 91202;
0137067830999992010010511004+46467+009183FM-12+163899999V0201301N000519999999N9999999N1-00711-01331999999ADDMA1999999081961MD1810131+9999ME1313559OA149900151REMSYN076AAXX  05114 06783 33/// /1301 11071 21133 38196 48355 58013 333 91103 91202;
0137067830999992010010512004+46467+009183FM-12+163899999V0203301N001019999999N9999999N1-00521-01331999999ADDMA1999999081871MD1810161+9999ME1313449OA149900261REMSYN076AAXX  05124 06783 33/// /3302 11052 21133 38187 48344 58016 333 91105 91202;
0137067830999992010010513004+46467+009183FM-12+163899999V0203201N000519999999N9999999N1-00471-01321999999ADDMA1999999081821MD1610191+9999ME1313399OA149900311REMSYN076AAXX  05134 06783 33/// /3201 11047 21132 38182 48339 56019 333 91106 91204;
0096067830999992010010514004+46467+009183FM-12+163899999V0201901N000519999999N9999999N1-00641-01371999999ADDMA1999999081791ME1313389REMSYN060AAXX  05144 06783 33/// /1901 11064 21137 38179 48338 5////;
0137067830999992010010515004+46467+009183FM-12+163899999V0203101N000519999999N9999999N1-00771-01381999999ADDMA1999999081781MD1710091+9999ME1313389OA149900311REMSYN076AAXX  05154 06783 33/// /3101 11077 21138 38178 48338 57009 333 91106 91204;
0137067830999992010010516004+46467+009183FM-12+163899999V0209999C000019999999N9999999N1-00851-01361999999ADDMA1999999081731MD1710091+9999ME1313349OA149900211REMSYN076AAXX  05164 06783 33/// /0000 11085 21136 38173 48334 57009 333 91104 91202;
0137067830999992010010517004+46467+009183FM-12+163899999V0209999C000019999999N9999999N1-01001-01391999999ADDMA1999999081741MD1710051+9999ME1313379OA149900151REMSYN076AAXX  05174 06783 33/// /0000 11100 21139 38174 48337 57005 333 91103 91202;
0210067830999992010010518004+46467+009183FM-12+163899999V0209999C000012200019N0350001N1-01051-01411999999ADDGA1001+999999999GF100991001001999999001001IA1279KA1120M-00471MA1999999081701MD1710081+9999ME1313349OA149900311REMSYN088AAXX  05184 06783 32/81 00000 11105 21141 38170 48334 57008 333 11047 43/// 91106 91204;
0137067830999992010010519004+46467+009183FM-12+163899999V0209999C000019999999N9999999N1-01081-01371999999ADDMA1999999081691MD1710041+9999ME1313339OA149900051REMSYN076AAXX  05194 06783 33/// /0000 11108 21137 38169 48333 57004 333 91101 91201;
0137067830999992010010520004+46467+009183FM-12+163899999V0209999C000019999999N9999999N1-01001-01261999999ADDMA1999999081631MD1810111+9999ME1313279OA149900101REMSYN076AAXX  05204 06783 33/// /0000 11100 21126 38163 48327 58011 333 91102 91201;
0179067830999992010010521004+46467+009183FM-12+163899999V0203301N000512200019N0350001N1-00981-01211999999ADDGA1001+999999999GF100991001001999999001001MA1999999081591MD1810111+9999ME1313239OA149900151REMSYN076AAXX  05214 06783 32/81 03301 11098 21121 38159 48323 58011 333 91103 91202;
0137067830999992010010522004+46467+009183FM-12+163899999V0209999C000019999999N9999999N1-01051-01241999999ADDMA1999999081551MD1710141+9999ME1313209OA149900101REMSYN076AAXX  05224 06783 33/// /0000 11105 21124 38155 48320 57014 333 91102 91201;
0137067830999992010010523004+46467+009183FM-12+163899999V0209999C000019999999N9999999N1-01051-01231999999ADDMA1999999081511MD1610121+9999ME1313169OA149900101REMSYN076AAXX  05234 06783 33/// /0000 11105 21123 38151 48316 56012 333 91102 91201;
0137067830999992010010600004+46467+009183FM-12+163899999V0203301N000519999999N9999999N1-01031-01231999999ADDMA1999999081461MD1810131+9999ME1313119OA149900311REMSYN076AAXX  06004 06783 33/// /3301 11103 21123 38146 48311 58013 333 91106 91204;
0137067830999992010010601004+46467+009183FM-12+163899999V0202801N000519999999N9999999N1-01031-01241999999ADDMA1999999081461MD1710091+9999ME1313119OA149900101REMSYN076AAXX  06014 06783 33/// /2801 11103 21124 38146 48311 57009 333 91102 91201;
0137067830999992010010602004+46467+009183FM-12+163899999V0203201N001019999999N9999999N1-00791-01141999999ADDMA1999999081441MD1710071+9999ME1313069OA149900361REMSYN076AAXX  06024 06783 33/// /3202 11079 21114 38144 48306 57007 333 91107 91202;
0137067830999992010010603004+46467+009183FM-12+163899999V0209999C001519999999N9999999N1-00901-01201999999ADDMA1999999081401MD1710061+9999ME1313039OA149900461REMSYN076AAXX  06034 06783 33/// /0003 11090 21120 38140 48303 57006 333 91109 91204;
0137067830999992010010604004+46467+009183FM-12+163899999V0203501N001519999999N9999999N1-00671-01231999999ADDMA1999999081361MD1810101+9999ME1312979OA149900571REMSYN076AAXX  06044 06783 33/// /3503 11067 21123 38136 48297 58010 333 91111 91205;
0137067830999992010010605004+46467+009183FM-12+163899999V0203201N004119999999N9999999N1-00651-01251999999ADDMA1999999081381MD1710061+9999ME1312989OA149900721REMSYN076AAXX  06054 06783 33/// /3208 11065 21125 38138 48298 57006 333 91114 91208;
0294067830999992010010606004+46467+009183FM-12+163899999V0203201N004612200019N0250001N1-00741-01251999999ADDAA124000091AL19900091GA1021+015001061GF102991999999017501999999GJ101749IA1279IA2999-01609KA1999N-01131MA1999999081391MD1510011+9999ME1313009OA149900721REMSYN112AAXX  06064 06783 32775 23209 11074 21125 38139 48300 55001 333 21113 3/116 43/// 55029 70000 82650 91114 91209;EQDQ01  00002PRCP24
0137067830999992010010607004+46467+009183FM-12+163899999V0203201N004619999999N9999999N1-00651-01221999999ADDMA1999999081401MD1210041+9999ME1313009OA149900721REMSYN076AAXX  06074 06783 33/// /3209 11065 21122 38140 48300 52004 333 91114 91210;
0137067830999992010010608004+46467+009183FM-12+163899999V0203301N003619999999N9999999N1-00621-01281999999ADDMA1999999081411MD1210031+9999ME1313019OA149900721REMSYN076AAXX  06084 06783 33/// /3307 11062 21128 38141 48301 52003 333 91114 91210;
0179067830999992010010609004+46467+009183FM-12+163899999V0203201N003112200019N0300001N1-00331-01281999999ADDGA1001+999999999GF100991001001999999001001MA1999999081441MD1210051+9999ME1313009OA149900721REMSYN076AAXX  06094 06783 32/80 03206 11033 21128 38144 48300 52005 333 91114 91210;
0137067830999992010010610004+46467+009183FM-12+163899999V0203201N002119999999N9999999N1-00231-01321999999ADDMA1999999081491MD1310091+9999ME1313049OA149900721REMSYN076AAXX  06104 06783 33/// /3204 11023 21132 38149 48304 53009 333 91114 91209;
0137067830999992010010611004+46467+009183FM-12+163899999V0203301N002619999999N9999999N1-00271-01261999999ADDMA1999999081471MD1019999+9999ME1313029OA149900721REMSYN076AAXX  06114 06783 33/// /3305 11027 21126 38147 48302 50/// 333 91114 91209;
0137067830999992010010612004+46467+009183FM-12+163899999V0203201N003619999999N9999999N1-00231-01191999999ADDMA1999999081471MD1010031+9999ME1313029OA149900721REMSYN076AAXX  06124 06783 33/// /3207 11023 21119 38147 48302 50003 333 91114 91210;
0137067830999992010010613004+46467+009183FM-12+163899999V0203301N002619999999N9999999N1-00241-01231999999ADDMA1999999081471MD1710021+9999ME1313029OA149900721REMSYN076AAXX  06134 06783 33/// /3305 11024 21123 38147 48302 57002 333 91114 91208;
0137067830999992010010614004+46467+009183FM-12+163899999V0203301N003119999999N9999999N1-00381-01251999999ADDMA1999999081481MD1319999+9999ME1313059OA149900621REMSYN076AAXX  06144 06783 33/// /3306 11038 21125 38148 48305 53/// 333 91112 91207;
0137067830999992010010615004+46467+009183FM-12+163899999V0203201N001019999999N9999999N1-00521-01231999999ADDMA1999999081531MD1219999+9999ME1313119OA149900721REMSYN076AAXX  06154 06783 33/// /3202 11052 21123 38153 48311 52/// 333 91114 91209;
0137067830999992010010616004+46467+009183FM-12+163899999V0203101N000519999999N9999999N1-00571-01161999999ADDMA1999999081591MD1210121+9999ME1313189OA149900361REMSYN076AAXX  06164 06783 33/// /3101 11057 21116 38159 48318 52012 333 91107 91204;
0137067830999992010010617004+46467+009183FM-12+163899999V0203401N002119999999N9999999N1-00711-01211999999ADDMA1999999081621MD1210141+9999ME1313229OA149900361REMSYN076AAXX  06174 06783 33/// /3404 11071 21121 38162 48322 52014 333 91107 91204;
0156067830999992010010618004+46467+009183FM-12+163899999V0202301N000519999999N9999999N1-00811-01211999999ADDKA1120M-00191MA1999999081651MD1219999+9999ME1313269OA149900721REMSYN082AAXX  06184 06783 33/// /2301 11081 21121 38165 48326 52/// 333 11019 91114 91210;
0137067830999992010010619004+46467+009183FM-12+163899999V0203001N000519999999N9999999N1-00751-01161999999ADDMA1999999081681MD1210091+9999ME1313289OA149900311REMSYN076AAXX  06194 06783 33/// /3001 11075 21116 38168 48328 52009 333 91106 91203;
0137067830999992010010620004+46467+009183FM-12+163899999V0209999C000019999999N9999999N1-00781-01111999999ADDMA1999999081711MD1210091+9999ME1313329OA149900261REMSYN076AAXX  06204 06783 33/// /0000 11078 21111 38171 48332 52009 333 91105 91203;
0201067830999992010010621004+46467+009183FM-12+163899999V0203101N000519999999N0350001N1-00761-01071999999ADDGA1999+009901031GA2061+012601061GF106991999999012501999999MA1999999081731MD1210081+9999ME1313339OA149900361REMSYN082AAXX  06214 06783 32681 63101 11076 21107 38173 48333 52008 333 86642 91107 91204;
0137067830999992010010622004+46467+009183FM-12+163899999V0209999C000019999999N9999999N1-00761-01041999999ADDMA1999999081741MD1210061+9999ME1313349OA149900211REMSYN076AAXX  06224 06783 33/// /0000 11076 21104 38174 48334 52006 333 91104 91201;
0137067830999992010010623004+46467+009183FM-12+163899999V0209999C000019999999N9999999N1-00731-00961999999ADDMA1999999081771MD1210061+9999ME1313379OA149900101REMSYN076AAXX  06234 06783 33/// /0000 11073 21096 38177 48337 52006 333 91102 91201;
0137067830999992010010700004+46467+009183FM-12+163899999V0209999C000019999999N9999999N1-00751-00951999999ADDMA1999999081761MD1210031+9999ME1313369OA149900621REMSYN076AAXX  07004 06783 33/// /0000 11075 21095 38176 48336 52003 333 91112 91207;
0137067830999992010010701004+46467+009183FM-12+163899999V0202001N001019999999N9999999N1-00651-00871999999ADDMA1999999081771MD1210031+9999ME1313369OA149900211REMSYN076AAXX  07014 06783 33/// /2002 11065 21087 38177 48336 52003 333 91104 91202;
0137067830999992010010702004+46467+009183FM-12+163899999V0202201N000519999999N9999999N1-00611-00801999999ADDMA1999999081821MD1219999+9999ME1313409OA149900211REMSYN076AAXX  07024 06783 33/// /2201 11061 21080 38182 48340 52/// 333 91104 91202;
0154067830999992010010703004+46467+009183FM-12+163899999V0201601N000519999999N9999999N1-00671-00811999999ADDAA101000891MA1999999081841MD1110081+9999ME1313439OA149900261REMSYN082AAXX  07034 06783 23/// /1601 11067 21081 38184 48343 51008 333 69975 91105 91202;
0137067830999992010010704004+46467+009183FM-12+163899999V0201601N001019999999N9999999N1-00661-00781999999ADDMA1999999081871MD1110101+9999ME1313469OA149900261REMSYN076AAXX  07044 06783 33/// /1602 11066 21078 38187 48346 51010 333 91105 91202;
0154067830999992010010705004+46467+009183FM-12+163899999V0201501N000519999999N9999999N1-00671-00781999999ADDAA101000391MA1999999081911MD1310091+9999ME1313509OA149900211REMSYN082AAXX  07054 06783 23/// /1501 11067 21078 38191 48350 53009 333 69935 91104 91202;
0238067830999992010010706004+46467+009183FM-12+163899999V0201701N000519999999N9999999N1-00681-00841999999ADDAA112001091AA224001091AL19900191GJ103129IA2999-01209KA1999N-00811MA1999999081971MD1310131+9999ME1313569OA149900261REMSYN112AAXX  07064 06783 03/// /1701 11068 21084 38197 48356 53013 60012 333 21081 3/112 55052 60005 70010 91105 91203;
0154067830999992010010707004+46467+009183FM-12+163899999V0202401N000519999999N9999999N1-00801-01041999999ADDAA101000021MA1999999082031MD1110161+9999ME1313639OA149900151REMSYN082AAXX  07074 06783 23/// /2401 11080 21104 38203 48363 51016 333 69925 91103 91202;
0137067830999992010010708004+46467+009183FM-12+163899999V0203401N001019999999N9999999N1-00871-01061999999ADDMA1999999082111MD1319999+9999ME1313719OA149900311REMSYN076AAXX  07084 06783 33/// /3402 11087 21106 38211 48371 53/// 333 91106 91203;
0137067830999992010010709004+46467+009183FM-12+163899999V0200301N001519999999N9999999N1-00661-01311999999ADDMA1999999082131MD1110161+9999ME1313719OA149900311REMSYN076AAXX  07094 06783 33/// /0303 11066 21131 38213 48371 51016 333 91106 91203;
0137067830999992010010710004+46467+009183FM-12+163899999V0203501N001019999999N9999999N1-00531-01311999999ADDMA1999999082201MD1110171+9999ME1313769OA149900311REMSYN076AAXX  07104 06783 33/// /3502 11053 21131 38220 48376 51017 333 91106 91203;
0137067830999992010010711004+46467+009183FM-12+163899999V0200801N000519999999N9999999N1-00451-01091999999ADDMA1999999082201MD1110091+9999ME1313759OA149900311REMSYN076AAXX  07114 06783 33/// /0801 11045 21109 38220 48375 51009 333 91106 91203;
0179067830999992010010712004+46467+009183FM-12+163899999V0201201N001519999999N9999999N1-00401-01121999999ADDAA106000091MA1999999082161MD1010031+9999ME1313719OA149900311REMSYN088AAXX  07124 06783 03/// /1203 11040 21112 38216 48371 50003 69921 333 60005 91106 91203;EQDQ01  00002PRCP06
0137067830999992010010713004+46467+009183FM-12+163899999V0201301N002119999999N9999999N1-00381-01141999999ADDMA1999999082181MD1719999+9999ME1313739OA149900411REMSYN076AAXX  07134 06783 33/// /1304 11038 21114 38218 48373 57/// 333 91108 91204;
0118067830999992010010715004+46467+009183FM-12+163899999V02099999999990126019N0350001N1+99999+99999999999ADDGA1081+012601041GF108991999999012501999999REMSYN064AAXX  07154 06783 42681 8//// 1//// 2//// 3//// 5//// 333 88442;
0137067830999992010010716004+46467+009183FM-12+163899999V0209999C000019999999N9999999N1-00671-00921999999ADDMA1999999082331MD1119999+9999ME1313909OA149900461REMSYN076AAXX  07164 06783 33/// /0000 11067 21092 38233 48390 51/// 333 91109 91205;
0137067830999992010010717004+46467+009183FM-12+163899999V0209999C000019999999N9999999N1-00721-00971999999ADDMA1999999082371MD1119999+9999ME1313949OA149900211REMSYN076AAXX  07174 06783 33/// /0000 11072 21097 38237 48394 51/// 333 91104 91202;
0198067830999992010010718004+46467+009183FM-12+163899999V0202401N000519999999N9999999N1-00781-01001999999ADDAA112000091KA1120M-00371MA1999999082391MD1119999+9999ME1313979OA149900461REMSYN094AAXX  07184 06783 03/// /2401 11078 21100 38239 48397 51/// 69922 333 11037 60005 91109 91205;EQDQ01  00002PRCP12
0137067830999992010010719004+46467+009183FM-12+163899999V0209999C000019999999N9999999N1-00801-01001999999ADDMA1999999082391MD1210061+9999ME1313979OA149900051REMSYN076AAXX  07194 06783 33/// /0000 11080 21100 38239 48397 52006 333 91101 91201;
0137067830999992010010720004+46467+009183FM-12+163899999V0209999C000019999999N9999999N1-00751-00931999999ADDMA1999999082381MD1010011+9999ME1313959OA149900051REMSYN076AAXX  07204 06783 33/// /0000 11075 21093 38238 48395 50001 333 91101 91201;
0154067830999992010010721004+46467+009183FM-12+163899999V0209999C000019999999N9999999N1-00731-00881999999ADDAA101000021MA1999999082401MD1310011+9999ME1313979OA149900211REMSYN082AAXX  07214 06783 23/// /0000 11073 21088 38240 48397 53001 333 69925 91104 91202;
0154067830999992010010722004+46467+009183FM-12+163899999V0209999C000019999999N9999999N1-00741-00901999999ADDAA101000391MA1999999082381MD1710011+9999ME1313959OA149900051REMSYN082AAXX  07224 06783 23/// /0000 11074 21090 38238 48395 57001 333 69935 91101 91200;
0154067830999992010010723004+46467+009183FM-12+163899999V0209999C000019999999N9999999N1-00721-00881999999ADDAA101000591MA1999999082341MD1810041+9999ME1313919OA149900051REMSYN082AAXX  07234 06783 23/// /0000 11072 21088 38234 48391 58004 333 69945 91101 91200;
0160067830999992010010800004+46467+009183FM-12+163899999V0209999C000019999999N9999999N1-00711-00861999999ADDAA106001091MA1999999082281MD1810121+9999ME1313869OA149900461REMSYN088AAXX  08004 06783 03/// /0000 11071 21086 38228 48386 58012 60011 333 69935 91109 91205;
0154067830999992010010801004+46467+009183FM-12+163899999V0209999C000019999999N9999999N1-00711-00861999999ADDAA101000591MA1999999082221MD1610161+9999ME1313809OA149900101REMSYN082AAXX  08014 06783 23/// /0000 11071 21086 38222 48380 56016 333 69955 91102 91201;
0154067830999992010010802004+46467+009183FM-12+163899999V0209999C000019999999N9999999N1-00711-00841999999ADDAA101000591MA1999999082171MD1619999+9999ME1313759OA149900101REMSYN082AAXX  08024 06783 23/// /0000 11071 21084 38217 48375 56/// 333 69965 91102 91201;
0154067830999992010010803004+46467+009183FM-12+163899999V0209999C000019999999N9999999N1-00691-00831999999ADDAA101000891MA1999999082121MD1819999+9999ME1313709OA149900101REMSYN082AAXX  08034 06783 23/// /0000 11069 21083 38212 48370 58/// 333 69985 91102 91201;
0154067830999992010010804004+46467+009183FM-12+163899999V0209999C000019999999N9999999N1-00661-00801999999ADDAA101000891MA1999999082071MD1710151+9999ME1313659OA149900101REMSYN082AAXX  08044 06783 23/// /0000 11066 21080 38207 48365 57015 333 69985 91102 91200;
0154067830999992010010805004+46467+009183FM-12+163899999V0209999C000019999999N9999999N1-00641-00791999999ADDAA101001091MA1999999082021MD1610151+9999ME1313609OA149900101REMSYN082AAXX  08054 06783 23/// /0000 11064 21079 38202 48360 56015 333 69995 91102 91200;
0320067830999992010010806004+46467+009183FM-12+163899999V0209999C000010006019N0010001N1-00621-00751999999ADDAA112006192AA224005692AL13600591AY171061AY271061GA1091+999999999GF109991091999999999999999GJ102649IA1239IA2999-01009KA1999N-00841MA1999999081961MD1710161+9999ME1313549MW1731OA149900101REMSYN124AAXX  08064 06783 01/10 90000 11062 21075 38196 48354 57016 60062 77377 333 21084 3/110 47/// 55044 69995 70056 91102 91201;
0154067830999992010010807004+46467+009183FM-12+163899999V0209999C000019999999N9999999N1-00591-00721999999ADDAA101001091MA1999999081931MD1610141+9999ME1313519OA149900101REMSYN082AAXX  08074 06783 23/// /0000 11059 21072 38193 48351 56014 333 60015 91102 91201;
0154067830999992010010808004+46467+009183FM-12+163899999V0209999C000019999999N9999999N1-00501-00671999999ADDAA101001091MA1999999081911MD1610111+9999ME1313489OA149900101REMSYN082AAXX  08084 06783 23/// /0000 11050 21067 38191 48348 56011 333 60015 91102 91201;
0224067830999992010010809004+46467+009183FM-12+163899999V0209999C000010006019N0010001N1-00421-00551999999ADDAA101000891AY171031AY271031GA1091+999999999GF109991091999999999999999MA1999999081871MD1810091+9999ME1313439MW1731OA149900101REMSYN088AAXX  08094 06783 21/10 90000 11042 21055 38187 48343 58009 77377 333 69985 91102 91201;
0154067830999992010010810004+46467+009183FM-12+163899999V0209999C000019999999N9999999N1-00371-00501999999ADDAA101000021MA1999999081831MD1810101+9999ME1313399OA149900101REMSYN082AAXX  08104 06783 23/// /0000 11037 21050 38183 48339 58010 333 69915 91102 91201;
0154067830999992010010811004+46467+009183FM-12+163899999V0209999C000019999999N9999999N1-00241-00361999999ADDAA101000021MA1999999081781MD1810131+9999ME1313329OA149900101REMSYN082AAXX  08114 06783 23/// /0000 11024 21036 38178 48332 58013 333 69915 91102 91201;
0160067830999992010010812004+46467+009183FM-12+163899999V0209999C000019999999N9999999N1-00141-00251999999ADDAA106004191MA1999999081681MD1810191+9999ME1313219OA149900101REMSYN088AAXX  08124 06783 03/// /0000 11014 21025 38168 48321 58019 60041 333 69945 91102 91201;
0154067830999992010010813004+46467+009183FM-12+163899999V0200901N000519999999N9999999N1-00061-00171999999ADDAA101000591MA1999999081601MD1710231+9999ME1313129OA149900051REMSYN082AAXX  08134 06783 23/// /0901 11006 21017 38160 48312 57023 333 69955 91101 91201;
0160067830999992010010814004+46467+009183FM-12+163899999V0200901N000519999999N9999999N1-00011-00121999999ADDAA101000391MA1999999081561MD1619999+9999ME1313089OA149900101REMSYN088AAXX  08144 06783 23/// /0901 11001 21012 38156 48308 56/// 91340 333 69935 91102 91201;
0230067830999992010010815004+46467+009183FM-12+163899999V0209999C000010027019N0100001N1+00021-00081999999ADDAA101000021AY171031AY221031GA1081+002701071GF108991999999002501999999MA1999999081511MD1610171+9999ME1313029MW1011OA149900101REMSYN094AAXX  08154 06783 21360 80000 10002 21008 38151 48302 56017 70172 333 69915 88709 91102 91201;
0154067830999992010010816004+46467+009183FM-12+163899999V0209999C000019999999N9999999N1-00051-00141999999ADDAA101000591MA1999999081501MD1610101+9999ME1313029OA149900101REMSYN082AAXX  08164 06783 23/// /0000 11005 21014 38150 48302 56010 333 69955 91102 91201;
0154067830999992010010817004+46467+009183FM-12+163899999V0201601N000519999999N9999999N1-00201-00331999999ADDAA101001091MA1999999081531MD1510011+9999ME1313079OA149900151REMSYN082AAXX  08174 06783 23/// /1601 11020 21033 38153 48307 55001 333 60015 91103 91202;
0267067830999992010010818004+46467+009183FM-12+163899999V0209999C000010015019N0050001N1-00281-00391999999ADDAA112008991AY171061AY271061GA1081+001501051GF108991999999001501999999IA1279KA1120M+00021MA1999999081601MD1210091+9999ME1313159MW1731OA149900151REMSYN112AAXX  08184 06783 01250 80000 11028 21039 38160 48315 52009 60092 77377 333 10002 43/// 60025 88505 91103 91202;
0154067830999992010010819004+46467+009183FM-12+163899999V0209999C000019999999N9999999N1-00231-00341999999ADDAA101002091MA1999999081621MD1110121+9999ME1313169OA149900151REMSYN082AAXX  08194 06783 23/// /0000 11023 21034 38162 48316 51012 333 60025 91103 91201;
0154067830999992010010820004+46467+009183FM-12+163899999V0209999C000019999999N9999999N1-00231-00331999999ADDAA101001091MA1999999081621MD1210091+9999ME1313169OA149900051REMSYN082AAXX  08204 06783 23/// /0000 11023 21033 38162 48316 52009 333 60015 91101 91200;
0230067830999992010010821004+46467+009183FM-12+163899999V0209999C000010015019N0050001N1-00231-00321999999ADDAA101001091AY171031AY271031GA1081+001501051GF108991999999001501999999MA1999999081651MD1210051+9999ME1313199MW1731OA149900151REMSYN094AAXX  08214 06783 21250 80000 11023 21032 38165 48319 52005 77377 333 69995 88505 91103 91202;
0154067830999992010010822004+46467+009183FM-12+163899999V0209999C000019999999N9999999N1-00201-00301999999ADDAA101000591MA1999999081671MD1210051+9999ME1313219OA149900051REMSYN082AAXX  08224 06783 23/// /0000 11020 21030 38167 48321 52005 333 69945 91101 91200;
0154067830999992010010823004+46467+009183FM-12+163899999V0209999C000019999999N9999999N1-00211-00301999999ADDAA101000021MA1999999081661MD1210041+9999ME1313209OA149900101REMSYN082AAXX  08234 06783 23/// /0000 11021 21030 38166 48320 52004 333 69915 91102 91201;
0160067830999992010010900004+46467+009183FM-12+163899999V0203101N000519999999N9999999N1-00181-00311999999ADDAA106004191MA1999999081611MD1710041+9999ME1313159OA149900151REMSYN088AAXX  09004 06783 03/// /3101 11018 21031 38161 48315 57004 60041 333 60005 91103 91202;
0137067830999992010010901004+46467+009183FM-12+163899999V0209999C000019999999N9999999N1-00211-00311999999ADDMA1999999081641MD1710031+9999ME1313189OA149900151REMSYN076AAXX  09014 06783 33/// /0000 11021 21031 38164 48318 57003 333 91103 91201;
0137067830999992010010902004+46467+009183FM-12+163899999V0209999C000019999999N9999999N1-00191-00321999999ADDMA1999999081681MD1319999+9999ME1313229OA149900151REMSYN076AAXX  09024 06783 33/// /0000 11019 21032 38168 48322 53/// 333 91103 91201;
0137067830999992010010903004+46467+009183FM-12+163899999V0209999C000019999999N9999999N1-00241-00331999999ADDMA1999999081641MD1019999+9999ME1313189OA149900151REMSYN076AAXX  09034 06783 33/// /0000 11024 21033 38164 48318 50/// 333 91103 91201;
0137067830999992010010904004+46467+009183FM-12+163899999V0203301N002119999999N9999999N1-00201-00481999999ADDMA1999999081551MD1810091+9999ME1313099OA149900361REMSYN076AAXX  09044 06783 33/// /3304 11020 21048 38155 48309 58009 333 91107 91204;
0137067830999992010010905004+46467+009183FM-12+163899999V0203201N002119999999N9999999N1-00111-00591999999ADDMA1999999081471MD1710211+9999ME1313009OA149900571REMSYN076AAXX  09054 06783 33/// /3204 11011 21059 38147 48300 57021 333 91111 91205;
0326067830999992010010906004+46467+009183FM-12+163899999V0203301N004112200019N0300001N1-00151-00561999999ADDAA112004191AA224013091AL19901391AY171061AY201061GA1031+011701061GF103991999999012501999999GJ100009IA1239IA2999-00709KA1999N-00301MA1999999081421MD1710221+9999ME1312969MW1021OA149900981REMSYN130AAXX  09064 06783 01680 33308 11015 21056 38142 48296 57022 60042 70270 333 21030 3/107 47/// 55000 60005 70130 83639 91119 91210;
0154067830999992010010907004+46467+009183FM-12+163899999V0203201N006219999999N9999999N1-00111-00581999999ADDAA101000391MA1999999081381MD1710171+9999ME1312919OA149901181REMSYN082AAXX  09074 06783 23/// /3212 11011 21058 38138 48291 57017 333 69935 91123 91214;
0137067830999992010010908004+46467+009183FM-12+163899999V0203301N003619999999N9999999N1-00111-00591999999ADDMA1999999081431MD1510041+9999ME1312969OA149901181REMSYN076AAXX  09084 06783 33/// /3307 11011 21059 38143 48296 55004 333 91123 91214;
0137067830999992010010909004+46467+009183FM-12+163899999V0203201N007219999999N9999999N1-00121-00621999999ADDMA1999999081371MD1710051+9999ME1312909OA149901181REMSYN076AAXX  09094 06783 33/// /3214 11012 21062 38137 48290 57005 333 91123 91214;
0137067830999992010010910004+46467+009183FM-12+163899999V0203201N007719999999N9999999N1-00051-00581999999ADDMA1999999081331MD1810051+9999ME1312859OA149901391REMSYN076AAXX  09104 06783 33/// /3215 11005 21058 38133 48285 58005 333 91127 91215;
0137067830999992010010911004+46467+009183FM-12+163899999V0203301N009319999999N9999999N1-00031-00551999999ADDMA1999999081281MD1710151+9999ME1312809OA149901491REMSYN076AAXX  09114 06783 33/// /3318 11003 21055 38128 48280 57015 333 91129 91218;
0160067830999992010010912004+46467+009183FM-12+163899999V0203201N005719999999N9999999N1-00111-00621999999ADDAA106000391MA1999999081251MD1719999+9999ME1312789OA149901491REMSYN088AAXX  09124 06783 03/// /3211 11011 21062 38125 48278 57/// 69931 333 60005 91129 91218;
0137067830999992010010913004+46467+009183FM-12+163899999V0203001N006219999999N9999999N1-00171-00671999999ADDMA1999999081171MD1710161+9999ME1312719OA149901291REMSYN076AAXX  09134 06783 33/// /3012 11017 21067 38117 48271 57016 333 91125 91214;
0137067830999992010010914004+46467+009183FM-12+163899999V0203201N005119999999N9999999N1-00271-00741999999ADDMA1999999081201MD1510081+9999ME1312769OA149901291REMSYN076AAXX  09144 06783 33/// /3210 11027 21074 38120 48276 55008 333 91125 91215;
0137067830999992010010915004+46467+009183FM-12+163899999V0203101N005719999999N9999999N1-00311-00761999999ADDMA1999999081231MD1319999+9999ME1312799OA149901491REMSYN076AAXX  09154 06783 33/// /3111 11031 21076 38123 48279 53/// 333 91129 91218;
0137067830999992010010916004+46467+009183FM-12+163899999V0203001N008219999999N9999999N1-00511-00911999999ADDMA1999999081301MD1210131+9999ME1312899OA149901541REMSYN076AAXX  09164 06783 33/// /3016 11051 21091 38130 48289 52013 333 91130 91218;
0137067830999992010010917004+46467+009183FM-12+163899999V0203201N004119999999N9999999N1-00461-00921999999ADDMA1999999081351MD1210151+9999ME1312939OA149901541REMSYN076AAXX  09174 06783 33/// /3208 11046 21092 38135 48293 52015 333 91130 91217;
0261067830999992010010918004+46467+009183FM-12+163899999V0203401N004612200019N0150001N1-00551-01011999999ADDAA112000391AY131061AY231061GA1001+999999999GF100991001001999999001001IA1279KA1120M+00011MA1999999081411MD1210181+9999ME1313009MW1381OA149901541REMSYN106AAXX  09184 06783 01/65 03409 11055 21101 38141 48300 52018 69932 73833 333 10001 43/// 60005 91130 91218;
0154067830999992010010919004+46467+009183FM-12+163899999V0203301N004619999999N9999999N1-00561-00791999999ADDAA101000591MA1999999081481MD1210181+9999ME1313079OA149901081REMSYN082AAXX  09194 06783 23/// /3309 11056 21079 38148 48307 52018 333 69955 91121 91212;
0154067830999992010010920004+46467+009183FM-12+163899999V0209999C000019999999N9999999N1-00601-00781999999ADDAA101000021MA1999999081511MD1210161+9999ME1313109OA149901031REMSYN082AAXX  09204 06783 23/// /0000 11060 21078 38151 48310 52016 333 69915 91120 91212;
0213067830999992010010921004+46467+009183FM-12+163899999V0209999C000010027019N0150001N1-00521-00681999999ADDAY171031AY231031GA1081+002701051GF108991999999002501999999MA1999999081561MD1210151+9999ME1313149MW1711OA149901541REMSYN088AAXX  09214 06783 31365 80000 11052 21068 38156 48314 52015 77173 333 88509 91130 91217;
0154067830999992010010922004+46467+009183FM-12+163899999V0209999C000019999999N9999999N1-00501-00631999999ADDAA101000391MA1999999081631MD1210151+9999ME1313219OA149900101REMSYN082AAXX  09224 06783 23/// /0000 11050 21063 38163 48321 52015 333 69935 91102 91201;
0154067830999992010010923004+46467+009183FM-12+163899999V0209999C000019999999N9999999N1-00471-00591999999ADDAA101000891MA1999999081681MD1210171+9999ME1313259OA149900101REMSYN082AAXX  09234 06783 23/// /0000 11047 21059 38168 48325 52017 333 69985 91102 91201;
0160067830999992010011000004+46467+009183FM-12+163899999V0209999C000019999999N9999999N1-00451-00571999999ADDAA106003091MA1999999081691MD1210131+9999ME1313269OA149901541REMSYN088AAXX  10004 06783 03/// /0000 11045 21057 38169 48326 52013 60031 333 69985 91130 91218;
0154067830999992010011001004+46467+009183FM-12+163899999V0209999C000019999999N9999999N1-00421-00541999999ADDAA101000591MA1999999081741MD1210111+9999ME1313309OA149900051REMSYN082AAXX  10014 06783 23/// /0000 11042 21054 38174 48330 52011 333 69965 91101 91200;
0117067830999992010011002004+46467+009183FM-12+163899999V0201401N000519999999N9999999N1-00391-00501999999ADDAA101000591MA1999999081801ME1313369REMSYN070AAXX  10024 06783 23/// /1401 11039 21050 38180 48336 5//// 333 69955;
0096067830999992010011003004+46467+009183FM-12+163899999V0209999C000019999999N9999999N1-00341-00471999999ADDMA1999999081831ME1313389REMSYN060AAXX  10034 06783 43/// /0000 11034 21047 38183 48338 5////;
0154067830999992010011004004+46467+009183FM-12+163899999V0202101N000519999999N9999999N1-00311-00461999999ADDAA101000591MA1999999081871MD1110131+9999ME1313429OA149900151REMSYN082AAXX  10044 06783 23/// /2101 11031 21046 38187 48342 51013 333 69945 91103 91201;
0154067830999992010011005004+46467+009183FM-12+163899999V0201501N000519999999N9999999N1-00301-00481999999ADDAA101000391MA1999999081921MD1310121+9999ME1313479OA149900211REMSYN082AAXX  10054 06783 23/// /1501 11030 21048 38192 48347 53012 333 69935 91104 91203;
0320067830999992010011006004+46467+009183FM-12+163899999V0201601N000510003019N0003001N1-00381-00511999999ADDAA112005191AA224005691AL13600591AY171061AY221061GA1091+999999999GF109991091999999999999999GJ100669IA1239IA2999-00709KA1999N-00601MA1999999081971MD1210141+9999ME1313529MW1731OA149901031REMSYN124AAXX  10064 06783 01/03 91601 11038 21051 38197 48352 52014 60052 77372 333 21060 3/107 47/// 55011 69945 70056 91120 91212;
0154067830999992010011007004+46467+009183FM-12+163899999V0201401N001019999999N9999999N1-00401-00521999999ADDAA101000391MA1999999082031MD1210161+9999ME1313589OA149900261REMSYN082AAXX  10074 06783 23/// /1402 11040 21052 38203 48358 52016 333 69935 91105 91203;
0137067830999992010011008004+46467+009183FM-12+163899999V0201501N000519999999N9999999N1-00381-00491999999ADDMA1999999082111MD1319999+9999ME1313669OA149900211REMSYN076AAXX  10084 06783 33/// /1501 11038 21049 38211 48366 53/// 333 91104 91203;
0137067830999992010011009004+46467+009183FM-12+163899999V0209999C000019999999N9999999N1-00421-00481999999ADDMA1999999082181MD1210211+9999ME1313739OA149900261REMSYN076AAXX  10094 06783 33/// /0000 11042 21048 38218 48373 52021 333 91105 91203;
0137067830999992010011010004+46467+009183FM-12+163899999V0201501N000519999999N9999999N1-00371-00501999999ADDMA1999999082221MD1110191+9999ME1313769OA149900151REMSYN076AAXX  10104 06783 33/// /1501 11037 21050 38222 48376 51019 333 91103 91201;
0137067830999992010011011004+46467+009183FM-12+163899999V0201501N001019999999N9999999N1-00381-00431999999ADDMA1999999082271MD1110161+9999ME1313819OA149900211REMSYN076AAXX  10114 06783 33/// /1502 11038 21043 38227 48381 51016 333 91104 91203;
0230067830999992010011012004+46467+009183FM-12+163899999V0209999C000010003019N0002001N1-00341-00511999999ADDAA106000391AY171061AY221061GA1091+999999999GF109991091999999999999999MA1999999082271MD1210091+9999ME1313819MW1471OA149900261REMSYN094AAXX  10124 06783 01/02 90000 11034 21051 38227 48381 52009 69931 74772 333 60005 91105 91203;
0137067830999992010011013004+46467+009183FM-12+163899999V0203501N000519999999N9999999N1-00261-00711999999ADDMA1999999082251MD1010031+9999ME1313789OA149900151REMSYN076AAXX  10134 06783 33/// /3501 11026 21071 38225 48378 50003 333 91103 91202;
0137067830999992010011014004+46467+009183FM-12+163899999V0202801N000519999999N9999999N1-00551-00801999999ADDMA1999999082291MD1319999+9999ME1313859OA149900261REMSYN076AAXX  10144 06783 33/// /2801 11055 21080 38229 48385 53/// 333 91105 91203;
0185067830999992010011015004+46467+009183FM-12+163899999V0202901N000512200019N0350001N1-00711-00891999999ADDGA1031+003601061GF103991999999004501999999MA1999999082301MD1310031+9999ME1313879OA149900261REMSYN082AAXX  10154 06783 32481 32901 11071 21089 38230 48387 53003 333 83612 91105 91203;
0137067830999992010011016004+46467+009183FM-12+163899999V0202801N000519999999N9999999N1-00781-01011999999ADDMA1999999082341MD1210091+9999ME1313929OA149900151REMSYN076AAXX  10164 06783 33/// /2801 11078 21101 38234 48392 52009 333 91103 91202;
0137067830999992010011017004+46467+009183FM-12+163899999V0202801N000519999999N9999999N1-00911-01101999999ADDMA1999999082381MD1210091+9999ME1313979OA149900101REMSYN076AAXX  10174 06783 33/// /2801 11091 21110 38238 48397 52009 333 91102 91201;
0179067830999992010011018004+46467+009183FM-12+163899999V0202701N000519999999N9999999N1-01001-01211999999ADDAA112000391KA1120M-00231MA1999999082451MD1210151+9999ME1314049OA149900261REMSYN094AAXX  10184 06783 03/// /2701 11100 21121 38245 48404 52015 69932 333 11023 60005 91105 91203;
0137067830999992010011019004+46467+009183FM-12+163899999V0202401N000519999999N9999999N1-00991-01201999999ADDMA1999999082461MD1210121+9999ME1314059OA149900151REMSYN076AAXX  10194 06783 33/// /2401 11099 21120 38246 48405 52012 333 91103 91201;
0137067830999992010011020004+46467+009183FM-12+163899999V0209999C000019999999N9999999N1-01051-01231999999ADDMA1999999082491MD1210111+9999ME1314099OA149900511REMSYN076AAXX  10204 06783 33/// /0000 11105 21123 38249 48409 52011 333 91110 91203;
0185067830999992010011021004+46467+009183FM-12+163899999V0203001N000512200019N0350001N1-01111-01281999999ADDGA1031+003601061GF103991999999004501999999MA1999999082551MD1210101+9999ME1314159OA149900511REMSYN082AAXX  10214 06783 32481 33001 11111 21128 38255 48415 52010 333 83612 91110 91203;
0137067830999992010011022004+46467+009183FM-12+163899999V0209999C000019999999N9999999N1-01141-01351999999ADDMA1999999082561MD1210101+9999ME1314169OA149900211REMSYN076AAXX  10224 06783 33/// /0000 11114 21135 38256 48416 52010 333 91104 91202;
0137067830999992010011023004+46467+009183FM-12+163899999V0209999C000019999999N9999999N1-01221-01401999999ADDMA1999999082561MD1210071+9999ME1314179OA149900101REMSYN076AAXX  10234 06783 33/// /0000 11122 21140 38256 48417 52007 333 91102 91201;
0137067830999992010011100004+46467+009183FM-12+163899999V0209999C000019999999N9999999N1-01231-01421999999ADDMA1999999082581MD1210031+9999ME1314199OA149900511REMSYN076AAXX  11004 06783 33/// /0000 11123 21142 38258 48419 52003 333 91110 91203;
0156067830999992010011101004+46467+009183FM-12+163899999V0203001N000519999999N9999999N1-01201-01401999999ADDMA1999999082561MD1410001+9999ME1314169OA149900101REMSYN076AAXX  11014 06783 33/// /3001 11120 21140 38256 48416 58000 333 91102 91201;EQDQ01+000082APCTEN
0137067830999992010011102004+46467+009183FM-12+163899999V0209999C000019999999N9999999N1-01381-01571999999ADDMA1999999082581MD1219999+9999ME1314209OA149900051REMSYN076AAXX  11024 06783 33/// /0000 11138 21157 38258 48420 52/// 333 91101 91201;
0137067830999992010011103004+46467+009183FM-12+163899999V0209999C000019999999N9999999N1-01261-01501999999ADDMA1999999082561MD1719999+9999ME1314179OA149900101REMSYN076AAXX  11034 06783 33/// /0000 11126 21150 38256 48417 57/// 333 91102 91201;
0137067830999992010011104004+46467+009183FM-12+163899999V0203201N000519999999N9999999N1-01271-01551999999ADDMA1999999082551MD1010011+9999ME1314169OA149900101REMSYN076AAXX  11044 06783 33/// /3201 11127 21155 38255 48416 50001 333 91102 91201;
0137067830999992010011105004+46467+009183FM-12+163899999V0203101N000519999999N9999999N1-01341-01561999999ADDMA1999999082571MD1510011+9999ME1314199OA149900101REMSYN076AAXX  11054 06783 33/// /3101 11134 21156 38257 48419 55001 333 91102 91201;
0269067830999992010011106004+46467+009183FM-12+163899999V0209999C000012200019N0300001N1-01291-01491999999ADDAA124000591AL12400091GA1001+999999999GF100991001001999999001001GJ100909IA1239IA2999-01709KA1999N-01381MA1999999082581MD1210021+9999ME1314199OA149900511REMSYN106AAXX  11064 06783 32/80 00000 11129 21149 38258 48419 52002 333 21138 3/117 47/// 55015 70004 91110 91203;
0137067830999992010011107004+46467+009183FM-12+163899999V0209999C000019999999N9999999N1-01261-01501999999ADDMA1999999082611MD1310061+9999ME1314229OA149900051REMSYN076AAXX  11074 06783 33/// /0000 11126 21150 38261 48422 53006 333 91101 91201;
0137067830999992010011108004+46467+009183FM-12+163899999V0209999C000019999999N9999999N1-01221-01421999999ADDMA1999999082621MD1219999+9999ME1314229OA149900051REMSYN076AAXX  11084 06783 33/// /0000 11122 21142 38262 48422 52/// 333 91101 91200;
0179067830999992010011109004+46467+009183FM-12+163899999V0209999C000012200019N0300001N1-00961-01241999999ADDGA1001+999999999GF100991001001999999001001MA1999999082641MD1210061+9999ME1314229OA149900101REMSYN076AAXX  11094 06783 32/80 00000 11096 21124 38264 48422 52006 333 91102 91201;
0137067830999992010011110004+46467+009183FM-12+163899999V0201101N000519999999N9999999N1-00661-01031999999ADDMA1999999082681MD1219999+9999ME1314239OA149900051REMSYN076AAXX  11104 06783 33/// /1101 11066 21103 38268 48423 52/// 333 91101 91201;
0137067830999992010011111004+46467+009183FM-12+163899999V0201401N001519999999N9999999N1-00421-00861999999ADDMA1999999082681MD1210061+9999ME1314219OA149900261REMSYN076AAXX  11114 06783 33/// /1403 11042 21086 38268 48421 52006 333 91105 91203;
0137067830999992010011112004+46467+009183FM-12+163899999V0201201N002119999999N9999999N1-00341-00891999999ADDMA1999999082671MD1010031+9999ME1314209OA149900311REMSYN076AAXX  11124 06783 33/// /1204 11034 21089 38267 48420 50003 333 91106 91204;
0137067830999992010011113004+46467+009183FM-12+163899999V0201301N002119999999N9999999N1-00341-00881999999ADDMA1999999082631MD1810051+9999ME1314169OA149900311REMSYN076AAXX  11134 06783 33/// /1304 11034 21088 38263 48416 58005 333 91106 91204;
0096067830999992010011114004+46467+009183FM-12+163899999V0209999C000019999999N9999999N1-00401-00841999999ADDMA1999999082611ME1314149REMSYN060AAXX  11144 06783 33/// /0000 11040 21084 38261 48414 5////;
0137067830999992010011115004+46467+009183FM-12+163899999V0203101N001019999999N9999999N1-00641-00951999999ADDMA1999999082621MD1510051+9999ME1314179OA149900311REMSYN076AAXX  11154 06783 33/// /3102 11064 21095 38262 48417 55005 333 91106 91204;
0137067830999992010011116004+46467+009183FM-12+163899999V0203301N000519999999N9999999N1-00681-00981999999ADDMA1999999082611MD1710021+9999ME1314179OA149900311REMSYN076AAXX  11164 06783 33/// /3301 11068 21098 38261 48417 57002 333 91106 91204;
0137067830999992010011117004+46467+009183FM-12+163899999V0209999C000019999999N9999999N1-00771-01041999999ADDMA1999999082621MD1210011+9999ME1314189OA149900211REMSYN076AAXX  11174 06783 33/// /0000 11077 21104 38262 48418 52001 333 91104 91201;
0156067830999992010011118004+46467+009183FM-12+163899999V0209999C000019999999N9999999N1-00801-01001999999ADDKA1120M-00301MA1999999082651MD1310031+9999ME1314229OA149900311REMSYN082AAXX  11184 06783 33/// /0000 11080 21100 38265 48422 53003 333 11030 91106 91204;
0137067830999992010011119004+46467+009183FM-12+163899999V0202401N000519999999N9999999N1-00641-00891999999ADDMA1999999082681MD1310071+9999ME1314239OA149900411REMSYN076AAXX  11194 06783 33/// /2401 11064 21089 38268 48423 53007 333 91108 91201;
0137067830999992010011120004+46467+009183FM-12+163899999V0201001N000519999999N9999999N1-00611-00941999999ADDMA1999999082711MD1110091+9999ME1314269OA149900461REMSYN076AAXX  11204 06783 33/// /1001 11061 21094 38271 48426 51009 333 91109 91202;
0185067830999992010011121004+46467+009183FM-12+163899999V0209999C000012200019N0220001N1-00831-01061999999ADDGA1011+006601031GF101991999999008001999999MA1999999082751MD1310101+9999ME1314319OA149900461REMSYN082AAXX  11214 06783 32572 10000 11083 21106 38275 48431 53010 333 81322 91109 91202;
0137067830999992010011122004+46467+009183FM-12+163899999V0201101N000519999999N9999999N1-00821-01051999999ADDMA1999999082771MD1210091+9999ME1314339OA149900361REMSYN076AAXX  11224 06783 33/// /1101 11082 21105 38277 48433 52009 333 91107 91202;
0137067830999992010011123004+46467+009183FM-12+163899999V0209999C000019999999N9999999N1-00781-00981999999ADDMA1999999082751MD1210041+9999ME1314319OA149900151REMSYN076AAXX  11234 06783 33/// /0000 11078 21098 38275 48431 52004 333 91103 91201;
0137067830999992010011200004+46467+009183FM-12+163899999V0202601N000519999999N9999999N1-00771-00951999999ADDMA1999999082761MD1010011+9999ME1314329OA149900461REMSYN076AAXX  12004 06783 33/// /2601 11077 21095 38276 48432 50001 333 91109 91204;
0137067830999992010011201004+46467+009183FM-12+163899999V0209999C000019999999N9999999N1-00781-00971999999ADDMA1999999082771MD1510001+9999ME1314339OA149900101REMSYN076AAXX  12014 06783 33/// /0000 11078 21097 38277 48433 55000 333 91102 91201;
0137067830999992010011202004+46467+009183FM-12+163899999V0209999C000019999999N9999999N1-00821-01031999999ADDMA1999999082791MD1219999+9999ME1314359OA149900101REMSYN076AAXX  12024 06783 33/// /0000 11082 21103 38279 48435 52/// 333 91102 91201;
0137067830999992010011203004+46467+009183FM-12+163899999V0209999C000019999999N9999999N1-00911-01101999999ADDMA1999999082781MD1010021+9999ME1314359OA149900151REMSYN076AAXX  12034 06783 33/// /0000 11091 21110 38278 48435 50002 333 91103 91201;
0137067830999992010011204004+46467+009183FM-12+163899999V0209999C000019999999N9999999N1-00891-01081999999ADDMA1999999082771MD1010001+9999ME1314349OA149900051REMSYN076AAXX  12044 06783 33/// /0000 11089 21108 38277 48434 50000 333 91101 91200;
0137067830999992010011205004+46467+009183FM-12+163899999V0202801N000519999999N9999999N1-00901-01071999999ADDMA1999999082781MD1510011+9999ME1314359OA149900051REMSYN076AAXX  12054 06783 33/// /2801 11090 21107 38278 48435 55001 333 91101 91201;
0272067830999992010011206004+46467+009183FM-12+163899999V0209999C000012200019N0250001N1-00891-01081999999ADDAA124000091AL19900091GF103991999999999999999999GJ102049IA1279IA2999-01109KA1999N-00921MA1999999082771MD1710011+9999ME1314349OA149900461REMSYN106AAXX  12064 06783 32/75 30000 11089 21108 38277 48434 57001 333 21092 3/111 43/// 55034 70000 91109 91202;EQDQ01  00002PRCP24
0137067830999992010011207004+46467+009183FM-12+163899999V0209999C000019999999N9999999N1-00891-01081999999ADDMA1999999082791MD1210021+9999ME1314359OA149900051REMSYN076AAXX  12074 06783 33/// /0000 11089 21108 38279 48435 52002 333 91101 91201;
0137067830999992010011208004+46467+009183FM-12+163899999V0209999C000019999999N9999999N1-00871-01091999999ADDMA1999999082791MD1219999+9999ME1314359OA149900101REMSYN076AAXX  12084 06783 33/// /0000 11087 21109 38279 48435 52/// 333 91102 91201;
0137067830999992010011209004+46467+009183FM-12+163899999V0209999C000019999999N9999999N1-00711-01041999999ADDMA1999999082811MD1210041+9999ME1314369OA149900101REMSYN076AAXX  12094 06783 33/// /0000 11071 21104 38281 48436 52004 333 91102 91201;
0137067830999992010011210004+46467+009183FM-12+163899999V0201601N000519999999N9999999N1-00501-00831999999ADDMA1999999082801MD1010011+9999ME1314339OA149900151REMSYN076AAXX  12104 06783 33/// /1601 11050 21083 38280 48433 50001 333 91103 91201;
0137067830999992010011211004+46467+009183FM-12+163899999V0201301N002119999999N9999999N1-00451-00751999999ADDMA1999999082781MD1810011+9999ME1314319OA149900361REMSYN076AAXX  12114 06783 33/// /1304 11045 21075 38278 48431 58001 333 91107 91204;
0137067830999992010011212004+46467+009183FM-12+163899999V0201401N001519999999N9999999N1-00491-00771999999ADDMA1999999082751MD1810061+9999ME1314289OA149900411REMSYN076AAXX  12124 06783 33/// /1403 11049 21077 38275 48428 58006 333 91108 91205;
0137067830999992010011213004+46467+009183FM-12+163899999V0201801N001019999999N9999999N1-00511-00751999999ADDMA1999999082731MD1810071+9999ME1314279OA149900411REMSYN076AAXX  12134 06783 33/// /1802 11051 21075 38273 48427 58007 333 91108 91205;
0096067830999992010011214004+46467+009183FM-12+163899999V0201501N001019999999N9999999N1-00521-00731999999ADDMA1999999082711ME1314259REMSYN060AAXX  12144 06783 33/// /1502 11052 21073 38271 48425 5////;
0207067830999992010011215004+46467+009183FM-12+163899999V0201501N000510006019N0008001N1-00541-00731999999ADDAY171031AY211031GA1091+999999999GF109991091999999999999999MA1999999082681MD1710071+9999ME1314229MW1771OA149900411REMSYN082AAXX  12154 06783 31/08 91501 11054 21073 38268 48422 57007 77771 333 91108 91205;
0137067830999992010011216004+46467+009183FM-12+163899999V0201601N001019999999N9999999N1-00541-00761999999ADDMA1999999082641MD1710091+9999ME1314189OA149900311REMSYN076AAXX  12164 06783 33/// /1602 11054 21076 38264 48418 57009 333 91106 91203;
0137067830999992010011217004+46467+009183FM-12+163899999V0201501N001019999999N9999999N1-00571-00751999999ADDMA1999999082611MD1610101+9999ME1314169OA149900311REMSYN076AAXX  12174 06783 33/// /1502 11057 21075 38261 48416 56010 333 91106 91202;
0238067830999992010011218004+46467+009183FM-12+163899999V0201601N000510006019N0006001N1-00571-00781999999ADDAY171061AY221061GA1091+999999999GF109991091999999999999999IA1239KA1120M-00431MA1999999082631MD1710051+9999ME1314189MW1731OA149900411REMSYN094AAXX  12184 06783 31/06 91601 11057 21078 38263 48418 57005 77372 333 11043 47/// 91108 91205;
0137067830999992010011219004+46467+009183FM-12+163899999V0201601N000519999999N9999999N1-00601-00791999999ADDMA1999999082631MD1710011+9999ME1314189OA149900261REMSYN076AAXX  12194 06783 33/// /1601 11060 21079 38263 48418 57001 333 91105 91202;
0137067830999992010011220004+46467+009183FM-12+163899999V0201901N000519999999N9999999N1-00571-00851999999ADDMA1999999082631MD1210021+9999ME1314189OA149900461REMSYN076AAXX  12204 06783 33/// /1901 11057 21085 38263 48418 52002 333 91109 91203;
0207067830999992010011221004+46467+009183FM-12+163899999V0201701N001010006019N0007001N1-00581-00761999999ADDAY171031AY271031GA1091+999999999GF109991091999999999999999MA1999999082601MD1710031+9999ME1314159MW1731OA149900461REMSYN082AAXX  12214 06783 31/07 91702 11058 21076 38260 48415 57003 77377 333 91109 91204;
0137067830999992010011222004+46467+009183FM-12+163899999V0202001N001019999999N9999999N1-00581-00801999999ADDMA1999999082561MD1710071+9999ME1314119OA149900411REMSYN076AAXX  12224 06783 33/// /2002 11058 21080 38256 48411 57007 333 91108 91204;
0137067830999992010011223004+46467+009183FM-12+163899999V0201501N001019999999N9999999N1-00621-00771999999ADDMA1999999082501MD1810131+9999ME1314069OA149900361REMSYN076AAXX  12234 06783 33/// /1502 11062 21077 38250 48406 58013 333 91107 91203;
0137067830999992010011300004+46467+009183FM-12+163899999V0201901N000519999999N9999999N1-00651-00831999999ADDMA1999999082451MD1810151+9999ME1314019OA149900461REMSYN076AAXX  13004 06783 33/// /1901 11065 21083 38245 48401 58015 333 91109 91204;
0137067830999992010011301004+46467+009183FM-12+163899999V0201601N001019999999N9999999N1-00621-00751999999ADDMA1999999082461MD1710101+9999ME1314029OA149900311REMSYN076AAXX  13014 06783 33/// /1602 11062 21075 38246 48402 57010 333 91106 91202;
0137067830999992010011302004+46467+009183FM-12+163899999V0201301N001019999999N9999999N1-00631-00771999999ADDMA1999999082411MD1719999+9999ME1313979OA149900311REMSYN076AAXX  13024 06783 33/// /1302 11063 21077 38241 48397 57/// 333 91106 91202;
0137067830999992010011303004+46467+009183FM-12+163899999V0203101N000519999999N9999999N1-00661-00811999999ADDMA1999999082361MD1719999+9999ME1313939OA149900361REMSYN076AAXX  13034 06783 33/// /3101 11066 21081 38236 48393 57/// 333 91107 91203;
0154067830999992010011304004+46467+009183FM-12+163899999V0209999C000019999999N9999999N1-00691-00841999999ADDAA101000021MA1999999082321MD1610141+9999ME1313899OA149900101REMSYN082AAXX  13044 06783 23/// /0000 11069 21084 38232 48389 56014 333 69925 91102 91201;
0137067830999992010011305004+46467+009183FM-12+163899999V0209999C000019999999N9999999N1-00711-00861999999ADDMA1999999082301MD1610111+9999ME1313879OA149900101REMSYN076AAXX  13054 06783 33/// /0000 11071 21086 38230 48387 56011 333 91102 91201;
0238067830999992010011306004+46467+009183FM-12+163899999V0209999C000019999999N9999999N1-00721-00871999999ADDAA112000021AA224000391AL11200091GJ100009IA2999-00809KA1999N-00721MA1999999082301MD1610061+9999ME1313889OA149900461REMSYN112AAXX  13064 06783 03/// /0000 11072 21087 38230 48388 56006 69922 333 21072 3/108 55000 60005 70002 91109 91204;
0137067830999992010011307004+46467+009183FM-12+163899999V0202801N000519999999N9999999N1-00821-00981999999ADDMA1999999082351MD1310031+9999ME1313939OA149900051REMSYN076AAXX  13074 06783 33/// /2801 11082 21098 38235 48393 53003 333 91101 91201;
0137067830999992010011308004+46467+009183FM-12+163899999V0209999C000019999999N9999999N1-00811-00971999999ADDMA1999999082351MD1210051+9999ME1313939OA149900051REMSYN076AAXX  13084 06783 33/// /0000 11081 21097 38235 48393 52005 333 91101 91201;
0137067830999992010011309004+46467+009183FM-12+163899999V0202701N000519999999N9999999N1-00681-00891999999ADDMA1999999082411MD1210111+9999ME1313989OA149900101REMSYN076AAXX  13094 06783 33/// /2701 11068 21089 38241 48398 52011 333 91102 91201;
0137067830999992010011310004+46467+009183FM-12+163899999V0209999C000019999999N9999999N1-00551-00851999999ADDMA1999999082421MD1210071+9999ME1313979OA149900151REMSYN076AAXX  13104 06783 33/// /0000 11055 21085 38242 48397 52007 333 91103 91202;
0137067830999992010011311004+46467+009183FM-12+163899999V0201201N000519999999N9999999N1-00461-00811999999ADDMA1999999082411MD1210061+9999ME1313969OA149900151REMSYN076AAXX  13114 06783 33/// /1201 11046 21081 38241 48396 52006 333 91103 91202;
0137067830999992010011312004+46467+009183FM-12+163899999V0201201N000519999999N9999999N1-00411-00771999999ADDMA1999999082391MD1810021+9999ME1313939OA149900311REMSYN076AAXX  13124 06783 33/// /1201 11041 21077 38239 48393 58002 333 91106 91202;
0137067830999992010011313004+46467+009183FM-12+163899999V0201401N001519999999N9999999N1-00371-00751999999ADDMA1999999082381MD1710041+9999ME1313929OA149900211REMSYN076AAXX  13134 06783 33/// /1403 11037 21075 38238 48392 57004 333 91104 91203;
0137067830999992010011314004+46467+009183FM-12+163899999V0201201N000519999999N9999999N1-00411-00751999999ADDMA1999999082381MD1519999+9999ME1313929OA149900211REMSYN076AAXX  13144 06783 33/// /1201 11041 21075 38238 48392 55/// 333 91104 91203;
0137067830999992010011315004+46467+009183FM-12+163899999V0200201N000519999999N9999999N1-00421-00741999999ADDMA1999999082381MD1410001+9999ME1313929OA149900211REMSYN076AAXX  13154 06783 33/// /0201 11042 21074 38238 48392 54001 333 91104 91203;
0137067830999992010011316004+46467+009183FM-12+163899999V0203201N000519999999N9999999N1-00551-00781999999ADDMA1999999082381MD1410001+9999ME1313949OA149900101REMSYN076AAXX  13164 06783 33/// /3201 11055 21078 38238 48394 54000 333 91102 91201;
0137067830999992010011317004+46467+009183FM-12+163899999V0209999C000019999999N9999999N1-00591-00821999999ADDMA1999999082431MD1210051+9999ME1313999OA149900101REMSYN076AAXX  13174 06783 33/// /0000 11059 21082 38243 48399 52005 333 91102 91201;
0216067830999992010011318004+46467+009183FM-12+163899999V0209999C000010087019N0350001N1-00641-00831999999ADDGA1081+008701041GF108991999999008001999999IA1279KA1120M-00371MA1999999082461MD1210081+9999ME1314029OA149900211REMSYN094AAXX  13184 06783 32581 80000 11064 21083 38246 48402 52008 333 11037 43/// 88429 91104 91203;
0137067830999992010011319004+46467+009183FM-12+163899999V0209999C000019999999N9999999N1-00651-00811999999ADDMA1999999082471MD1110091+9999ME1314039OA149900051REMSYN076AAXX  13194 06783 33/// /0000 11065 21081 38247 48403 51009 333 91101 91200;
0137067830999992010011320004+46467+009183FM-12+163899999V0209999C000019999999N9999999N1-00641-00801999999ADDMA1999999082471MD1110041+9999ME1314039OA149900051REMSYN076AAXX  13204 06783 33/// /0000 11064 21080 38247 48403 51004 333 91101 91200;
0137067830999992010011321004+46467+009183FM-12+163899999V0209999C000019999999N9999999N1-00651-00811999999ADDMA1999999082471MD1110011+9999ME1314039OA149900101REMSYN076AAXX  13214 06783 33/// /0000 11065 21081 38247 48403 51001 333 91102 91201;
0137067830999992010011322004+46467+009183FM-12+163899999V0209999C000019999999N9999999N1-00651-00831999999ADDMA1999999082481MD1310011+9999ME1314049OA149900051REMSYN076AAXX  13224 06783 33/// /0000 11065 21083 38248 48404 53001 333 91101 91200;
0137067830999992010011323004+46467+009183FM-12+163899999V0209999C000019999999N9999999N1-00671-00831999999ADDMA1999999082451MD1810021+9999ME1314019OA149900051REMSYN076AAXX  13234 06783 33/// /0000 11067 21083 38245 48401 58002 333 91101 91200;
0137067830999992010011400004+46467+009183FM-12+163899999V0209999C000019999999N9999999N1-00781-00931999999ADDMA1999999082411MD1710061+9999ME1313999OA149900211REMSYN076AAXX  14004 06783 33/// /0000 11078 21093 38241 48399 57006 333 91104 91203;
0137067830999992010011401004+46467+009183FM-12+163899999V0209999C000019999999N9999999N1-00871-01031999999ADDMA1999999082431MD1710051+9999ME1314019OA149900051REMSYN076AAXX  14014 06783 33/// /0000 11087 21103 38243 48401 57005 333 91101 91201;
0137067830999992010011402004+46467+009183FM-12+163899999V0209999C000019999999N9999999N1-00851-01001999999ADDMA1999999082411MD1719999+9999ME1313999OA149900051REMSYN076AAXX  14024 06783 33/// /0000 11085 21100 38241 48399 57/// 333 91101 91201;
0096067830999992010011403004+46467+009183FM-12+163899999V0209999C000019999999N9999999N1-00991-01141999999ADDMA1999999082401ME1314009REMSYN060AAXX  14034 06783 33/// /0000 11099 21114 38240 48400 5////;
0137067830999992010011404004+46467+009183FM-12+163899999V0209999C000019999999N9999999N1-00911-01071999999ADDMA1999999082401MD1510031+9999ME1313999OA149900051REMSYN076AAXX  14044 06783 33/// /0000 11091 21107 38240 48399 55003 333 91101 91200;
0137067830999992010011405004+46467+009183FM-12+163899999V0209999C000019999999N9999999N1-00791-00981999999ADDMA1999999082421MD1310011+9999ME1314009OA149900101REMSYN076AAXX  14054 06783 33/// /0000 11079 21098 38242 48400 53001 333 91102 91201;
0234067830999992010011406004+46467+009183FM-12+163899999V0209999C000019999999N9999999N1-00741-00901999999ADDAA124000091AL19900091GJ100009IA2999-01309KA1999N-01011MA1999999082401MD1010001+9999ME1313979OA149900101REMSYN100AAXX  14064 06783 33/// /0000 11074 21090 38240 48397 50000 333 21101 3/113 55000 70000 91102 91201;EQDQ01  00002PRCP24
0137067830999992010011407004+46467+009183FM-12+163899999V0202401N000519999999N9999999N1-00721-00861999999ADDMA1999999082411MD1010011+9999ME1313989OA149900101REMSYN076AAXX  14074 06783 33/// /2401 11072 21086 38241 48398 50001 333 91102 91201;
0137067830999992010011408004+46467+009183FM-12+163899999V0209999C000019999999N9999999N1-00621-00791999999ADDMA1999999082451MD1319999+9999ME1314019OA149900101REMSYN076AAXX  14084 06783 33/// /0000 11062 21079 38245 48401 53/// 333 91102 91201;
0137067830999992010011409004+46467+009183FM-12+163899999V0209999C000019999999N9999999N1-00481-00721999999ADDMA1999999082461MD1110061+9999ME1314019OA149900151REMSYN076AAXX  14094 06783 33/// /0000 11048 21072 38246 48401 51006 333 91103 91201;
0137067830999992010011410004+46467+009183FM-12+163899999V0201401N001519999999N9999999N1-00411-00661999999ADDMA1999999082471MD1110061+9999ME1314019OA149900311REMSYN076AAXX  14104 06783 33/// /1403 11041 21066 38247 48401 51006 333 91106 91203;
0137067830999992010011411004+46467+009183FM-12+163899999V0201401N001519999999N9999999N1-00381-00681999999ADDMA1999999082461MD1210011+9999ME1314009OA149900311REMSYN076AAXX  14114 06783 33/// /1403 11038 21068 38246 48400 52001 333 91106 91203;
0185067830999992010011412004+46467+009183FM-12+163899999V0201301N002110066019N0150001N1-00381-00661999999ADDGA1081+006601071GF108991999999008001999999MA1999999082441MD1810021+9999ME1313989OA149900461REMSYN082AAXX  14124 06783 32565 81304 11038 21066 38244 48398 58002 333 88722 91109 91204;
0137067830999992010011413004+46467+009183FM-12+163899999V0201301N002119999999N9999999N1-00411-00631999999ADDMA1999999082421MD1810051+9999ME1313969OA149900461REMSYN076AAXX  14134 06783 33/// /1304 11041 21063 38242 48396 58005 333 91109 91205;
0137067830999992010011414004+46467+009183FM-12+163899999V0201401N002619999999N9999999N1-00401-00641999999ADDMA1999999082431MD1710031+9999ME1313979OA149900411REMSYN076AAXX  14144 06783 33/// /1405 11040 21064 38243 48397 57003 333 91108 91205;
0137067830999992010011415004+46467+009183FM-12+163899999V0201401N001519999999N9999999N1-00461-00641999999ADDMA1999999082451MD1310011+9999ME1313999OA149900461REMSYN076AAXX  14154 06783 33/// /1403 11046 21064 38245 48399 53001 333 91109 91205;
0137067830999992010011416004+46467+009183FM-12+163899999V0201101N000519999999N9999999N1-00481-00641999999ADDMA1999999082451MD1210031+9999ME1314009OA149900361REMSYN076AAXX  14164 06783 33/// /1101 11048 21064 38245 48400 52003 333 91107 91204;
0137067830999992010011417004+46467+009183FM-12+163899999V0203101N001019999999N9999999N1-00581-00741999999ADDMA1999999082471MD1210041+9999ME1314029OA149900311REMSYN076AAXX  14174 06783 33/// /3102 11058 21074 38247 48402 52004 333 91106 91204;
0156067830999992010011418004+46467+009183FM-12+163899999V0209999C000019999999N9999999N1-00651-00811999999ADDKA1120M-00371MA1999999082501MD1310051+9999ME1314069OA149900461REMSYN082AAXX  14184 06783 33/// /0000 11065 21081 38250 48406 53005 333 11037 91109 91205;
0137067830999992010011419004+46467+009183FM-12+163899999V0209999C000019999999N9999999N1-00791-00941999999ADDMA1999999082571MD1310121+9999ME1314149OA149900051REMSYN076AAXX  14194 06783 33/// /0000 11079 21094 38257 48414 53012 333 91101 91200;
0137067830999992010011420004+46467+009183FM-12+163899999V0209999C000019999999N9999999N1-00711-00881999999ADDMA1999999082631MD1310161+9999ME1314199OA149900051REMSYN076AAXX  14204 06783 33/// /0000 11071 21088 38263 48419 53016 333 91101 91201;
0185067830999992010011421004+46467+009183FM-12+163899999V0209999C000010027019N0250001N1-00711-00861999999ADDGA1081+002701071GF108991999999002501999999MA1999999082691MD1110191+9999ME1314259OA149900311REMSYN082AAXX  14214 06783 32375 80000 11071 21086 38269 48425 51019 333 88709 91106 91204;
0137067830999992010011422004+46467+009183FM-12+163899999V0209999C000019999999N9999999N1-00661-00831999999ADDMA1999999082741MD1210171+9999ME1314299OA149900101REMSYN076AAXX  14224 06783 33/// /0000 11066 21083 38274 48429 52017 333 91102 91201;
0137067830999992010011423004+46467+009183FM-12+163899999V0209999C000019999999N9999999N1-00621-00771999999ADDMA1999999082771MD1110141+9999ME1314319OA149900051REMSYN076AAXX  14234 06783 33/// /0000 11062 21077 38277 48431 51014 333 91101 91200;
0137067830999992010011500004+46467+009183FM-12+163899999V0209999C000019999999N9999999N1-00771-00941999999ADDMA1999999082741MD1010051+9999ME1314309OA149900411REMSYN076AAXX  15004 06783 33/// /0000 11077 21094 38274 48430 50005 333 91108 91205;
0137067830999992010011501004+46467+009183FM-12+163899999V0209999C000019999999N9999999N1-00921-01091999999ADDMA1999999082741MD1010001+9999ME1314319OA149900151REMSYN076AAXX  15014 06783 33/// /0000 11092 21109 38274 48431 50000 333 91103 91201;
0137067830999992010011502004+46467+009183FM-12+163899999V0209999C000019999999N9999999N1-01001-01151999999ADDMA1999999082761MD1510011+9999ME1314349OA149900151REMSYN076AAXX  15024 06783 33/// /0000 11100 21115 38276 48434 55001 333 91103 91201;
0096067830999992010011503004+46467+009183FM-12+163899999V0209999C000019999999N9999999N1-01051-01201999999ADDMA1999999082811ME1314399REMSYN060AAXX  15034 06783 33/// /0000 11105 21120 38281 48439 5////;
0137067830999992010011504004+46467+009183FM-12+163899999V0209999C000019999999N9999999N1-01131-01281999999ADDMA1999999082851MD1310111+9999ME1314439OA149900051REMSYN076AAXX  15044 06783 33/// /0000 11113 21128 38285 48443 53011 333 91101 91201;
0137067830999992010011505004+46467+009183FM-12+163899999V0209999C000019999999N9999999N1-01141-01331999999ADDMA1999999082841MD1210081+9999ME1314429OA149900101REMSYN076AAXX  15054 06783 33/// /0000 11114 21133 38284 48442 52008 333 91102 91200;
0288067830999992010011506004+46467+009183FM-12+163899999V0203201N005712200019N0230001N1-00401-01061999999ADDAA124000091AL19900091GA1001+999999999GF100991001001999999001001GJ100009IA1279IA2999-01509KA1999N-01141MA1999999082881MD1210071+9999ME1314409OA149900931REMSYN106AAXX  15064 06783 32/73 03211 11040 21106 38288 48440 52007 333 21114 3/115 43/// 55000 70000 91118 91211;EQDQ01  00002PRCP24
0137067830999992010011507004+46467+009183FM-12+163899999V0203201N007719999999N9999999N1-00261-01091999999ADDMA1999999082971MD1310121+9999ME1314489OA149901181REMSYN076AAXX  15074 06783 33/// /3215 11026 21109 38297 48448 53012 333 91123 91215;
0137067830999992010011508004+46467+009183FM-12+163899999V0203301N005119999999N9999999N1-00201-01121999999ADDMA1999999083071MD1319999+9999ME1314579OA149901181REMSYN076AAXX  15084 06783 33/// /3310 11020 21112 38307 48457 53/// 333 91123 91215;
0185067830999992010011509004+46467+009183FM-12+163899999V0203301N006212200019N0230001N1-00151-01181999999ADDGA1041+005701001GF104991999999004501999999MA1999999083151MD1110271+9999ME1314649OA149901181REMSYN082AAXX  15094 06783 32473 43312 11015 21118 38315 48464 51027 333 84019 91123 91215;
0137067830999992010011510004+46467+009183FM-12+163899999V0203301N006719999999N9999999N1-00091-01191999999ADDMA1999999083211MD1110241+9999ME1314709OA149901081REMSYN076AAXX  15104 06783 33/// /3313 11009 21119 38321 48470 51024 333 91121 91213;
0137067830999992010011511004+46467+009183FM-12+163899999V0203201N007219999999N9999999N1+00001-01231999999ADDMA1999999083231MD1110161+9999ME1314719OA149901131REMSYN076AAXX  15114 06783 33/// /3214 10000 21123 38323 48471 51016 333 91122 91214;
0185067830999992010011512004+46467+009183FM-12+163899999V0203201N005110057019N0230001N1+00071-01181999999ADDGA1051+005701011GF105991999999004501999999MA1999999083251MD1210101+9999ME1314739OA149901181REMSYN082AAXX  15124 06783 32473 53210 10007 21118 38325 48473 52010 333 85119 91123 91215;
0137067830999992010011513004+46467+009183FM-12+163899999V0203301N006719999999N9999999N1-00021-01121999999ADDMA1999999083271MD1210061+9999ME1314759OA149901081REMSYN076AAXX  15134 06783 33/// /3313 11002 21112 38327 48475 52006 333 91121 91215;
0137067830999992010011514004+46467+009183FM-12+163899999V0203201N007219999999N9999999N1-00141-01151999999ADDMA1999999083341MD1210111+9999ME1314839OA149901081REMSYN076AAXX  15144 06783 33/// /3214 11014 21115 38334 48483 52011 333 91121 91214;
0137067830999992010011515004+46467+009183FM-12+163899999V0203301N006219999999N9999999N1-00181-01151999999ADDMA1999999083431MD1210181+9999ME1314919OA149901131REMSYN076AAXX  15154 06783 33/// /3312 11018 21115 38343 48491 52018 333 91122 91215;
0137067830999992010011516004+46467+009183FM-12+163899999V0203301N006219999999N9999999N1-00241-01171999999ADDMA1999999083501MD1310231+9999ME1314989OA149901081REMSYN076AAXX  15164 06783 33/// /3312 11024 21117 38350 48498 53023 333 91121 91215;
0137067830999992010011517004+46467+009183FM-12+163899999V0203301N005719999999N9999999N1-00241-01211999999ADDMA1999999083551MD1110211+9999ME1315039OA149900981REMSYN076AAXX  15174 06783 33/// /3311 11024 21121 38355 48503 51021 333 91119 91213;
0210067830999992010011518004+46467+009183FM-12+163899999V0203201N006712200019N0350001N1-00271-01201999999ADDGA1001+999999999GF100991001001999999001001IA1279KA1120M+00111MA1999999083601MD1110171+9999ME1315089OA149901181REMSYN088AAXX  15184 06783 32/81 03213 11027 21120 38360 48508 51017 333 10011 43/// 91123 91215;
0137067830999992010011519004+46467+009183FM-12+163899999V0203301N006719999999N9999999N1-00231-01191999999ADDMA1999999083621MD1110121+9999ME1315109OA149901131REMSYN076AAXX  15194 06783 33/// /3313 11023 21119 38362 48510 51012 333 91122 91215;
0137067830999992010011520004+46467+009183FM-12+163899999V0203201N006719999999N9999999N1-00231-01221999999ADDMA1999999083631MD1110081+9999ME1315119OA149901131REMSYN076AAXX  15204 06783 33/// /3213 11023 21122 38363 48511 51008 333 91122 91215;
0179067830999992010011521004+46467+009183FM-12+163899999V0203101N005112200019N0350001N1-00241-01341999999ADDGA1001+999999999GF100991001001999999001001MA1999999083621MD1010021+9999ME1315109OA149901181REMSYN076AAXX  15214 06783 32/81 03110 11024 21134 38362 48510 50002 333 91123 91215;
0137067830999992010011522004+46467+009183FM-12+163899999V0203101N005119999999N9999999N1-00261-01341999999ADDMA1999999083641MD1310021+9999ME1315129OA149901181REMSYN076AAXX  15224 06783 33/// /3110 11026 21134 38364 48512 53002 333 91123 91212;
0137067830999992010011523004+46467+009183FM-12+163899999V0203101N003119999999N9999999N1-00331-01391999999ADDMA1999999083651MD1210021+9999ME1315139OA149901031REMSYN076AAXX  15234 06783 33/// /3106 11033 21139 38365 48513 52002 333 91120 91212;
0137067830999992010011600004+46467+009183FM-12+163899999V0200601N001019999999N9999999N1-00381-01321999999ADDMA1999999083661MD1210041+9999ME1315149OA149901181REMSYN076AAXX  16004 06783 33/// /0602 11038 21132 38366 48514 52004 333 91123 91215;
0137067830999992010011601004+46467+009183FM-12+163899999V0200301N001019999999N9999999N1-00521-01271999999ADDMA1999999083631MD1810011+9999ME1315129OA149900771REMSYN076AAXX  16014 06783 33/// /0302 11052 21127 38363 48512 58001 333 91115 91205;
0137067830999992010011602004+46467+009183FM-12+163899999V0203401N003119999999N9999999N1-00561-01351999999ADDMA1999999083631MD1710021+9999ME1315129OA149900771REMSYN076AAXX  16024 06783 33/// /3406 11056 21135 38363 48512 57002 333 91115 91206;
0137067830999992010011603004+46467+009183FM-12+163899999V0202601N000519999999N9999999N1-00751-01411999999ADDMA1999999083641MD1519999+9999ME1315149OA149901031REMSYN076AAXX  16034 06783 33/// /2601 11075 21141 38364 48514 55/// 333 91120 91212;
0137067830999992010011604004+46467+009183FM-12+163899999V0209999C000019999999N9999999N1-00911-01461999999ADDMA1999999083671MD1210041+9999ME1315189OA149900411REMSYN076AAXX  16044 06783 33/// /0000 11091 21146 38367 48518 52004 333 91108 91201;
0137067830999992010011605004+46467+009183FM-12+163899999V0209999C000019999999N9999999N1-01011-01541999999ADDMA1999999083671MD1210041+9999ME1315189OA149900101REMSYN076AAXX  16054 06783 33/// /0000 11101 21154 38367 48518 52004 333 91102 91201;
0234067830999992010011606004+46467+009183FM-12+163899999V0209999C000019999999N9999999N1-01011-01571999999ADDAA124000091AL19900091GJ100909IA2999-01409KA1999N-01081MA1999999083611MD1810031+9999ME1315139OA149901181REMSYN100AAXX  16064 06783 33/// /0000 11101 21157 38361 48513 58003 333 21108 3/114 55015 70000 91123 91215;EQDQ01  00002PRCP24
0156067830999992010011607004+46467+009183FM-12+163899999V0209999C000019999999N9999999N1-01081-01561999999ADDMA1999999083671MD1410001+9999ME1315199OA149900151REMSYN076AAXX  16074 06783 33/// /0000 11108 21156 38367 48519 53000 333 91103 91202;EQDQ01+000032APCTEN
0137067830999992010011608004+46467+009183FM-12+163899999V0209999C000019999999N9999999N1-01021-01541999999ADDMA1999999083701MD1310031+9999ME1315219OA149900151REMSYN076AAXX  16084 06783 33/// /0000 11102 21154 38370 48521 53003 333 91103 91202;
0137067830999992010011609004+46467+009183FM-12+163899999V0201301N000519999999N9999999N1-00681-01451999999ADDMA1999999083681MD1210071+9999ME1315189OA149900151REMSYN076AAXX  16094 06783 33/// /1301 11068 21145 38368 48518 52007 333 91103 91202;
0137067830999992010011610004+46467+009183FM-12+163899999V0203301N001519999999N9999999N1-00061-01631999999ADDMA1999999083661MD1810011+9999ME1315139OA149900361REMSYN076AAXX  16104 06783 33/// /3303 11006 21163 38366 48513 58001 333 91107 91203;
0137067830999992010011611004+46467+009183FM-12+163899999V0201901N001019999999N9999999N1-00051-01391999999ADDMA1999999083641MD1710061+9999ME1315119OA149900361REMSYN076AAXX  16114 06783 33/// /1902 11005 21139 38364 48511 57006 333 91107 91203;
0137067830999992010011612004+46467+009183FM-12+163899999V0201801N001019999999N9999999N1-00051-01341999999ADDMA1999999083641MD1710041+9999ME1315119OA149900771REMSYN076AAXX  16124 06783 33/// /1802 11005 21134 38364 48511 57004 333 91115 91206;
0137067830999992010011613004+46467+009183FM-12+163899999V0209999C000019999999N9999999N1-00101-01311999999ADDMA1999999083591MD1710071+9999ME1315069OA149900411REMSYN076AAXX  16134 06783 33/// /0000 11010 21131 38359 48506 57007 333 91108 91203;
0137067830999992010011614004+46467+009183FM-12+163899999V0201601N000519999999N9999999N1-00211-01181999999ADDMA1999999083571MD1719999+9999ME1315059OA149900261REMSYN076AAXX  16144 06783 33/// /1601 11021 21118 38357 48505 57/// 333 91105 91202;
0185067830999992010011615004+46467+009183FM-12+163899999V0202901N001010057019N0230001N1-00271-00971999999ADDGA1081+005701041GF108991999999004501999999MA1999999083541MD1710101+9999ME1315029OA149900411REMSYN082AAXX  16154 06783 32473 82902 11027 21097 38354 48502 57010 333 88419 91108 91203;
0137067830999992010011616004+46467+009183FM-12+163899999V0202301N001019999999N9999999N1-00301-00941999999ADDMA1999999083551MD1710041+9999ME1315049OA149900151REMSYN076AAXX  16164 06783 33/// /2302 11030 21094 38355 48504 57004 333 91103 91202;
0137067830999992010011617004+46467+009183FM-12+163899999V0201901N000519999999N9999999N1-00401-00951999999ADDMA1999999083531MD1710041+9999ME1315029OA149900211REMSYN076AAXX  16174 06783 33/// /1901 11040 21095 38353 48502 57004 333 91104 91202;
0216067830999992010011618004+46467+009183FM-12+163899999V0202601N000510036019N0200001N1-00421-00941999999ADDGA1081+003601041GF108991999999004501999999IA1279KA1120M+00031MA1999999083561MD1210021+9999ME1315059OA149900411REMSYN094AAXX  16184 06783 32470 82601 11042 21094 38356 48505 52002 333 10003 43/// 88412 91108 91203;
0137067830999992010011619004+46467+009183FM-12+163899999V0209999C000019999999N9999999N1-00431-00911999999ADDMA1999999083571MD1310021+9999ME1315069OA149900151REMSYN076AAXX  16194 06783 33/// /0000 11043 21091 38357 48506 53002 333 91103 91201;
0137067830999992010011620004+46467+009183FM-12+163899999V0209999C000019999999N9999999N1-00451-00921999999ADDMA1999999083521MD1810011+9999ME1315029OA149900151REMSYN076AAXX  16204 06783 33/// /0000 11045 21092 38352 48502 58001 333 91103 91201;
0185067830999992010011621004+46467+009183FM-12+163899999V0200601N000510027019N0200001N1-00461-00891999999ADDGA1081+002701041GF108991999999002501999999MA1999999083491MD1710071+9999ME1314999OA149900211REMSYN082AAXX  16214 06783 32370 80601 11046 21089 38349 48499 57007 333 88409 91104 91202;
0137067830999992010011622004+46467+009183FM-12+163899999V0202401N000519999999N9999999N1-00531-00921999999ADDMA1999999083471MD1710101+9999ME1314979OA149900211REMSYN076AAXX  16224 06783 33/// /2401 11053 21092 38347 48497 57010 333 91104 91202;
0137067830999992010011623004+46467+009183FM-12+163899999V0202101N000519999999N9999999N1-00541-00881999999ADDMA1999999083441MD1710081+9999ME1314949OA149900211REMSYN076AAXX  16234 06783 33/// /2101 11054 21088 38344 48494 57008 333 91104 91202;
0137067830999992010011700004+46467+009183FM-12+163899999V0209999C000019999999N9999999N1-00581-00901999999ADDMA1999999083381MD1710111+9999ME1314899OA149900261REMSYN076AAXX  17004 06783 33/// /0000 11058 21090 38338 48489 57011 333 91105 91202;
0137067830999992010011701004+46467+009183FM-12+163899999V0209999C000019999999N9999999N1-00561-00871999999ADDMA1999999083441MD1510031+9999ME1314959OA149900211REMSYN076AAXX  17014 06783 33/// /0000 11056 21087 38344 48495 55003 333 91104 91202;
0137067830999992010011702004+46467+009183FM-12+163899999V0209999C000019999999N9999999N1-00531-00721999999ADDMA1999999083421MD1019999+9999ME1314929OA149900211REMSYN076AAXX  17024 06783 33/// /0000 11053 21072 38342 48492 50/// 333 91104 91202;
0096067830999992010011703004+46467+009183FM-12+163899999V0209999C000019999999N9999999N1-00721-00921999999ADDMA1999999083321ME1314849REMSYN060AAXX  17034 06783 43/// /0000 11072 21092 38332 48484 5////;
0137067830999992010011704004+46467+009183FM-12+163899999V0209999C000019999999N9999999N1-00891-01081999999ADDMA1999999083281MD1810161+9999ME1314819OA149900211REMSYN076AAXX  17044 06783 33/// /0000 11089 21108 38328 48481 58016 333 91104 91201;
0137067830999992010011705004+46467+009183FM-12+163899999V0209999C000019999999N9999999N1-00921-01131999999ADDMA1999999083261MD1719999+9999ME1314809OA149900101REMSYN076AAXX  17054 06783 33/// /0000 11092 21113 38326 48480 57/// 333 91102 91201;
0234067830999992010011706004+46467+009183FM-12+163899999V0201901N000519999999N9999999N1-01041-01241999999ADDAA124000091AL19900091GJ102589IA2999-01209KA1999N-01011MA1999999083261MD1710061+9999ME1314809OA149900211REMSYN100AAXX  17064 06783 33/// /1901 11104 21124 38326 48480 57006 333 21101 3/112 55043 70000 91104 91202;EQDQ01  00002PRCP24
