0137067870999992010010100004+46617+009433FM-12+098999999V0209999C000019999999N9999999N1+00021-00101999999ADDMA1999999088121MD1810101+9999ME1312779OA149900311REMSYN076AAXX  01004 06787 33/// /0000 10002 21010 38812 48277 58010 333 91106 91203;
0137067870999992010010101004+46617+009433FM-12+098999999V0201301N000519999999N9999999N1-00081-00171999999ADDMA1999999088071MD1810131+9999ME1312719OA149900151REMSYN076AAXX  01014 06787 33/// /1301 11008 21017 38807 48271 58013 333 91103 91202;
0137067870999992010010102004+46617+009433FM-12+098999999V0201901N000519999999N9999999N1-00111-00181999999ADDMA1999999088061MD1719999+9999ME1312709OA149900151REMSYN076AAXX  01024 06787 33/// /1901 11011 21018 38806 48270 57/// 333 91103 91202;
0096067870999992010010103004+46617+009433FM-12+098999999V0201201N000519999999N9999999N1-00251-00251999999ADDMA1999999087991ME1312629REMSYN060AAXX  01034 06787 43/// /1201 11025 21025 38799 48262 5////;
0096067870999992010010104004+46617+009433FM-12+098999999V0201801N000519999999N9999999N1-00251-00311999999ADDMA1999999087951ME1312599REMSYN060AAXX  01044 06787 33/// /1801 11025 21031 38795 48259 5////;
0137067870999992010010105004+46617+009433FM-12+098999999V0209999C000019999999N9999999N1-00261-00351999999ADDMA1999999087911MD1610151+9999ME1312559OA149900151REMSYN076AAXX  01054 06787 33/// /0000 11026 21035 38791 48255 56015 333 91103 91201;
0197067870999992010010106004+46617+009433FM-12+098999999V0209999C000019999999N9999999N1-00301-00381999999ADDAA124002391AL11200291GJ100009KA1999N-00341MA1999999087881MD1610111+9999ME1312529OA149900261REMSYN094AAXX  01064 06787 33/// /0000 11030 21038 38788 48252 56011 333 21034 55000 70022 91105 91203;
0137067870999992010010107004+46617+009433FM-12+098999999V0203401N001019999999N9999999N1-00281-00401999999ADDMA1999999087861MD1710091+9999ME1312509OA149900151REMSYN076AAXX  01074 06787 33/// /3402 11028 21040 38786 48250 57009 333 91103 91202;
0137067870999992010010108004+46617+009433FM-12+098999999V0200401N000519999999N9999999N1-00241-00381999999ADDMA1999999087911MD1510001+9999ME1312559OA149900261REMSYN076AAXX  01084 06787 33/// /0401 11024 21038 38791 48255 55000 333 91105 91203;
0137067870999992010010109004+46617+009433FM-12+098999999V0201701N000519999999N9999999N1-00231-00351999999ADDMA1999999087951MD1210071+9999ME1312599OA149900261REMSYN076AAXX  01094 06787 33/// /1701 11023 21035 38795 48259 52007 333 91105 91203;
0137067870999992010010110004+46617+009433FM-12+098999999V0201701N000519999999N9999999N1-00121-00271999999ADDMA1999999087961MD1110101+9999ME1312619OA149900151REMSYN076AAXX  01104 06787 33/// /1701 11012 21027 38796 48261 51010 333 91103 91202;
0137067870999992010010111004+46617+009433FM-12+098999999V0201801N000519999999N9999999N1-00041-00261999999ADDMA1999999087891MD1810021+9999ME1312559OA149900101REMSYN076AAXX  01114 06787 33/// /1801 11004 21026 38789 48255 58002 333 91102 91202;
0137067870999992010010112004+46617+009433FM-12+098999999V0209999C000019999999N9999999N1+00071-00161999999ADDMA1999999087861MD1710091+9999ME1312549OA149900261REMSYN076AAXX  01124 06787 33/// /0000 10007 21016 38786 48254 57009 333 91105 91203;
0137067870999992010010113004+46617+009433FM-12+098999999V0201201N000519999999N9999999N1+00141-00161999999ADDMA1999999087861MD1610101+9999ME1312549OA149900101REMSYN076AAXX  01134 06787 33/// /1201 10014 21016 38786 48254 56010 333 91102 91201;
0137067870999992010010114004+46617+009433FM-12+098999999V0202201N000519999999N9999999N1+00141-00161999999ADDMA1999999087931MD1319999+9999ME1312619OA149900101REMSYN076AAXX  01144 06787 33/// /2201 10014 21016 38793 48261 53/// 333 91102 91201;
0137067870999992010010115004+46617+009433FM-12+098999999V0209999C000019999999N9999999N1+00161-00041999999ADDMA1999999088021MD1310161+9999ME1312699OA149900101REMSYN076AAXX  01154 06787 33/// /0000 10016 21004 38802 48269 53016 333 91102 91202;
0137067870999992010010116004+46617+009433FM-12+098999999V0201501N000519999999N9999999N1+00121+00001999999ADDMA1999999088081MD1110221+9999ME1312749OA149900101REMSYN076AAXX  01164 06787 33/// /1501 10012 20000 38808 48274 51022 333 91102 91201;
0137067870999992010010117004+46617+009433FM-12+098999999V0201801N001019999999N9999999N1+00091-00031999999ADDMA1999999088191MD1310261+9999ME1312849OA149900151REMSYN076AAXX  01174 06787 33/// /1802 10009 21003 38819 48284 53026 333 91103 91202;
0156067870999992010010118004+46617+009433FM-12+098999999V0209999C000019999999N9999999N1+00061-00041999999ADDKA1120M+00211MA1999999088281MD1310261+9999ME1312929OA149900261REMSYN082AAXX  01184 06787 33/// /0000 10006 21004 38828 48292 53026 333 10021 91105 91203;
0154067870999992010010119004+46617+009433FM-12+098999999V0209999C000019999999N9999999N1+00061-00011999999ADDAA101000391MA1999999088371MD1110291+9999ME1313009OA149900151REMSYN082AAXX  01194 06787 23/// /0000 10006 21001 38837 48300 51029 333 69935 91103 91202;
0137067870999992010010120004+46617+009433FM-12+098999999V0201901N000519999999N9999999N1+00101+00001999999ADDMA1999999088491MD1210301+9999ME1313119OA149900211REMSYN076AAXX  01204 06787 33/// /1901 10010 20000 38849 48311 52030 333 91104 91201;
0154067870999992010010121004+46617+009433FM-12+098999999V0200401N000519999999N9999999N1+00121-00031999999ADDAA101000021MA1999999088591MD1210311+9999ME1313209OA149900211REMSYN082AAXX  01214 06787 23/// /0401 10012 21003 38859 48320 52031 333 69915 91104 91203;
0137067870999992010010122004+46617+009433FM-12+098999999V0202501N001019999999N9999999N1+00071-00011999999ADDMA1999999088701MD1210331+9999ME1313309OA149900261REMSYN076AAXX  01224 06787 33/// /2502 10007 21001 38870 48330 52033 333 91105 91203;
0137067870999992010010123004+46617+009433FM-12+098999999V0200501N001019999999N9999999N1+00111-00071999999ADDMA1999999088761MD1110271+9999ME1313369OA149900261REMSYN076AAXX  01234 06787 33/// /0502 10011 21007 38876 48336 51027 333 91105 91202;
0160067870999992010010200004+46617+009433FM-12+098999999V0203001N001019999999N9999999N1-00011-00081999999ADDAA106000591MA1999999088821MD1110231+9999ME1313399OA149900261REMSYN088AAXX  02004 06787 03/// /3002 11001 21008 38882 48339 51023 69941 333 60005 91105 91203;
0137067870999992010010201004+46617+009433FM-12+098999999V0203301N001519999999N9999999N1+00031-00161999999ADDMA1999999088861MD1110161+9999ME1313439OA149900361REMSYN076AAXX  02014 06787 33/// /3303 10003 21016 38886 48343 51016 333 91107 91203;
0096067870999992010010202004+46617+009433FM-12+098999999V0203101N001519999999N9999999N1+00001-00231999999ADDMA1999999088971ME1313539REMSYN060AAXX  02024 06787 33/// /3103 10000 21023 38897 48353 5////;
0137067870999992010010203004+46617+009433FM-12+098999999V0203501N001019999999N9999999N1-00011-00301999999ADDMA1999999089031MD1210211+9999ME1313589OA149900511REMSYN076AAXX  02034 06787 33/// /3502 11001 21030 38903 48358 52021 333 91110 91205;
0137067870999992010010204004+46617+009433FM-12+098999999V0209999C002619999999N9999999N1-00051-00471999999ADDMA1999999089101MD1110241+9999ME1313649OA149900671REMSYN076AAXX  02044 06787 33/// /0005 11005 21047 38910 48364 51024 333 91113 91207;
0137067870999992010010205004+46617+009433FM-12+098999999V0209999C003619999999N9999999N1-00171-00631999999ADDMA1999999089201MD1310231+9999ME1313719OA149900821REMSYN076AAXX  02054 06787 33/// /0007 11017 21063 38920 48371 53023 333 91116 91209;
0220067870999992010010206004+46617+009433FM-12+098999999V0203601N002619999999N9999999N1-00201-00751999999ADDAA112000591AA224000591AL12400091GJ100669KA1999N-00221MA1999999089291MD1310261+9999ME1313789OA149900821REMSYN106AAXX  02064 06787 03/// /3605 11020 21075 38929 48378 53026 69942 333 21022 55011 60005 70004 91116 91209;
0137067870999992010010207004+46617+009433FM-12+098999999V0200201N003619999999N9999999N1-00271-00821999999ADDMA1999999089411MD1310311+9999ME1313889OA149900771REMSYN076AAXX  02074 06787 33/// /0207 11027 21082 38941 48388 53031 333 91115 91209;
0096067870999992010010208004+46617+009433FM-12+098999999V0200101N003119999999N9999999N1-00341-00931999999ADDMA1999999089501ME1313959REMSYN060AAXX  02084 06787 33/// /0106 11034 21093 38950 48395 5////;
0137067870999992010010209004+46617+009433FM-12+098999999V0200301N003119999999N9999999N1-00381-00921999999ADDMA1999999089601MD1110311+9999ME1314039OA149900821REMSYN076AAXX  02094 06787 33/// /0306 11038 21092 38960 48403 51031 333 91116 91209;
0137067870999992010010210004+46617+009433FM-12+098999999V0200401N004619999999N9999999N1-00371-00941999999ADDMA1999999089661MD1210251+9999ME1314089OA149900671REMSYN076AAXX  02104 06787 33/// /0409 11037 21094 38966 48408 52025 333 91113 91209;
0137067870999992010010211004+46617+009433FM-12+098999999V0200201N005119999999N9999999N1-00301-00871999999ADDMA1999999089701MD1210201+9999ME1314139OA149900771REMSYN076AAXX  02114 06787 33/// /0210 11030 21087 38970 48413 52020 333 91115 91210;
0137067870999992010010212004+46617+009433FM-12+098999999V0200201N004619999999N9999999N1-00291-00981999999ADDMA1999999089791MD1210191+9999ME1314219OA149900981REMSYN076AAXX  02124 06787 33/// /0209 11029 21098 38979 48421 52019 333 91119 91211;
0137067870999992010010213004+46617+009433FM-12+098999999V0203601N004119999999N9999999N1-00361-01141999999ADDMA1999999089871MD1210211+9999ME1314279OA149900981REMSYN076AAXX  02134 06787 33/// /3608 11036 21114 38987 48427 52021 333 91119 91211;
0137067870999992010010214004+46617+009433FM-12+098999999V0200101N004619999999N9999999N1-00331-01191999999ADDMA1999999089941MD1119999+9999ME1314339OA149900981REMSYN076AAXX  02144 06787 33/// /0109 11033 21119 38994 48433 51/// 333 91119 91210;
0137067870999992010010215004+46617+009433FM-12+098999999V0200101N004119999999N9999999N1-00431-01251999999ADDMA1999999090031MD1310241+9999ME1314399OA149900981REMSYN076AAXX  02154 06787 33/// /0108 11043 21125 39003 48439 53024 333 91119 91211;
0137067870999992010010216004+46617+009433FM-12+098999999V0203601N003119999999N9999999N1-00471-01201999999ADDMA1999999090141MD1310271+9999ME1314489OA149900821REMSYN076AAXX  02164 06787 33/// /3606 11047 21120 39014 48448 53027 333 91116 91209;
0137067870999992010010217004+46617+009433FM-12+098999999V0200201N004119999999N9999999N1-00501-01221999999ADDMA1999999090201MD1110261+9999ME1314539OA149900771REMSYN076AAXX  02174 06787 33/// /0208 11050 21122 39020 48453 51026 333 91115 91210;
0156067870999992010010218004+46617+009433FM-12+098999999V0209999C002619999999N9999999N1-00521-01241999999ADDKA1120M-00191MA1999999090251MD1110221+9999ME1314579OA149900981REMSYN082AAXX  02184 06787 33/// /0005 11052 21124 39025 48457 51022 333 11019 91119 91211;
0137067870999992010010219004+46617+009433FM-12+098999999V0200101N002619999999N9999999N1-00551-01301999999ADDMA1999999090321MD1210181+9999ME1314629OA149900771REMSYN076AAXX  02194 06787 33/// /0105 11055 21130 39032 48462 52018 333 91115 91209;
0137067870999992010010220004+46617+009433FM-12+098999999V0200101N002119999999N9999999N1-00581-01301999999ADDMA1999999090371MD1210171+9999ME1314669OA149900671REMSYN076AAXX  02204 06787 33/// /0104 11058 21130 39037 48466 52017 333 91113 91207;
0137067870999992010010221004+46617+009433FM-12+098999999V0200301N001519999999N9999999N1-00631-01261999999ADDMA1999999090391MD1210141+9999ME1314679OA149900771REMSYN076AAXX  02214 06787 33/// /0303 11063 21126 39039 48467 52014 333 91115 91210;
0137067870999992010010222004+46617+009433FM-12+098999999V0200501N002619999999N9999999N1-00641-01261999999ADDMA1999999090391MD1210071+9999ME1314679OA149900571REMSYN076AAXX  02224 06787 33/// /0505 11064 21126 39039 48467 52007 333 91111 91206;
0137067870999992010010223004+46617+009433FM-12+098999999V0201701N000519999999N9999999N1-00781-01201999999ADDMA1999999090441MD1210071+9999ME1314689OA149900411REMSYN076AAXX  02234 06787 33/// /1701 11078 21120 39044 48468 52007 333 91108 91205;
0137067870999992010010300004+46617+009433FM-12+098999999V0201301N001019999999N9999999N1-00771-01181999999ADDMA1999999090451MD1210061+9999ME1314699OA149900981REMSYN076AAXX  03004 06787 33/// /1302 11077 21118 39045 48469 52006 333 91119 91210;
0137067870999992010010301004+46617+009433FM-12+098999999V0200101N000519999999N9999999N1-00851-01111999999ADDMA1999999090501MD1210111+9999ME1314729OA149900151REMSYN076AAXX  03014 06787 33/// /0101 11085 21111 39050 48472 52011 333 91103 91202;
0096067870999992010010302004+46617+009433FM-12+098999999V0200701N000519999999N9999999N1-00931-01131999999ADDMA1999999090541ME1314749REMSYN060AAXX  03024 06787 33/// /0701 11093 21113 39054 48474 5////;
0096067870999992010010303004+46617+009433FM-12+098999999V0200401N001519999999N9999999N1-00881-01201999999ADDMA1999999090551ME1314769REMSYN060AAXX  03034 06787 33/// /0403 11088 21120 39055 48476 5////;
0137067870999992010010304004+46617+009433FM-12+098999999V0202001N000519999999N9999999N1-01001-01261999999ADDMA1999999090541MD1010041+9999ME1314739OA149900211REMSYN076AAXX  03044 06787 33/// /2001 11100 21126 39054 48473 50004 333 91104 91203;
0137067870999992010010305004+46617+009433FM-12+098999999V0209999C000019999999N9999999N1-01051-01291999999ADDMA1999999090591MD1219999+9999ME1314769OA149900151REMSYN076AAXX  03054 06787 33/// /0000 11105 21129 39059 48476 52/// 333 91103 91202;
0216067870999992010010306004+46617+009433FM-12+098999999V0203301N000519999999N9999999N1-01061-01121999999ADDAA124000091AL19900091GJ101449KA1999N-01071MA1999999090551MD1010001+9999ME1314729OA149900671REMSYN094AAXX  03064 06787 33/// /3301 11106 21112 39055 48472 50000 333 21107 55024 70000 91113 91207;EQDQ01  00002PRCP24
0137067870999992010010307004+46617+009433FM-12+098999999V0200201N000519999999N9999999N1-01041-01241999999ADDMA1999999090551MD1010011+9999ME1314739OA149900151REMSYN076AAXX  03074 06787 33/// /0201 11104 21124 39055 48473 50001 333 91103 91202;
0137067870999992010010308004+46617+009433FM-12+098999999V0201001N001519999999N9999999N1-01011-01491999999ADDMA1999999090571MD1519999+9999ME1314759OA149900311REMSYN076AAXX  03084 06787 33/// /1003 11101 21149 39057 48475 55/// 333 91106 91203;
0137067870999992010010309004+46617+009433FM-12+098999999V0209999C000019999999N9999999N1-01061-01391999999ADDMA1999999090591MD1210041+9999ME1314769OA149900311REMSYN076AAXX  03094 06787 33/// /0000 11106 21139 39059 48476 52004 333 91106 91203;
0137067870999992010010310004+46617+009433FM-12+098999999V0201601N000519999999N9999999N1-00991-01471999999ADDMA1999999090591MD1210041+9999ME1314779OA149900211REMSYN076AAXX  03104 06787 33/// /1601 11099 21147 39059 48477 52004 333 91104 91202;
0137067870999992010010311004+46617+009433FM-12+098999999V0209999C000019999999N9999999N1-00841-01341999999ADDMA1999999090451MD1710121+9999ME1314689OA149900151REMSYN076AAXX  03114 06787 33/// /0000 11084 21134 39045 48468 57012 333 91103 91202;
0137067870999992010010312004+46617+009433FM-12+098999999V0209999C000019999999N9999999N1-00681-01531999999ADDMA1999999090341MD1710251+9999ME1314629OA149900311REMSYN076AAXX  03124 06787 33/// /0000 11068 21153 39034 48462 57025 333 91106 91203;
0137067870999992010010313004+46617+009433FM-12+098999999V0201301N000519999999N9999999N1-00541-01571999999ADDMA1999999090271MD1610321+9999ME1314589OA149900101REMSYN076AAXX  03134 06787 33/// /1301 11054 21157 39027 48458 56032 333 91102 91201;
0137067870999992010010314004+46617+009433FM-12+098999999V0201801N001519999999N9999999N1-00521-01381999999ADDMA1999999090241MD1710211+9999ME1314569OA149900151REMSYN076AAXX  03144 06787 33/// /1803 11052 21138 39024 48456 57021 333 91103 91203;
0137067870999992010010315004+46617+009433FM-12+098999999V0201401N000519999999N9999999N1-00611-01231999999ADDMA1999999090271MD1510071+9999ME1314579OA149900211REMSYN076AAXX  03154 06787 33/// /1401 11061 21123 39027 48457 55007 333 91104 91203;
0137067870999992010010316004+46617+009433FM-12+098999999V0201601N000519999999N9999999N1-00701-01331999999ADDMA1999999090291MD1310021+9999ME1314579OA149900211REMSYN076AAXX  03164 06787 33/// /1601 11070 21133 39029 48457 53002 333 91104 91203;
0137067870999992010010317004+46617+009433FM-12+098999999V0209999C000019999999N9999999N1-00791-01281999999ADDMA1999999090251MD1010011+9999ME1314529OA149900151REMSYN076AAXX  03174 06787 33/// /0000 11079 21128 39025 48452 50001 333 91103 91201;
0156067870999992010010318004+46617+009433FM-12+098999999V0200701N000519999999N9999999N1-00861-01301999999ADDKA1120M-00471MA1999999090281MD1210011+9999ME1314539OA149900311REMSYN082AAXX  03184 06787 33/// /0701 11086 21130 39028 48453 52001 333 11047 91106 91203;
0137067870999992010010319004+46617+009433FM-12+098999999V0201501N000519999999N9999999N1-00871-01411999999ADDMA1999999090301MD1310011+9999ME1314559OA149900151REMSYN076AAXX  03194 06787 33/// /1501 11087 21141 39030 48455 53001 333 91103 91202;
0137067870999992010010320004+46617+009433FM-12+098999999V0209999C000019999999N9999999N1-00991-01341999999ADDMA1999999090281MD1010031+9999ME1314519OA149900151REMSYN076AAXX  03204 06787 33/// /0000 11099 21134 39028 48451 50003 333 91103 91201;
0137067870999992010010321004+46617+009433FM-12+098999999V0201801N000519999999N9999999N1-00981-01421999999ADDMA1999999090271MD1710011+9999ME1314509OA149900151REMSYN076AAXX  03214 06787 33/// /1801 11098 21142 39027 48450 57001 333 91103 91202;
0137067870999992010010322004+46617+009433FM-12+098999999V0201301N000519999999N9999999N1-01031-01431999999ADDMA1999999090261MD1710041+9999ME1314499OA149900151REMSYN076AAXX  03224 06787 33/// /1301 11103 21143 39026 48449 57004 333 91103 91201;
0137067870999992010010323004+46617+009433FM-12+098999999V0209999C000019999999N9999999N1-01081-01301999999ADDMA1999999090241MD1710041+9999ME1314469OA149900151REMSYN076AAXX  03234 06787 33/// /0000 11108 21130 39024 48446 57004 333 91103 91201;
0137067870999992010010400004+46617+009433FM-12+098999999V0209999C000019999999N9999999N1-01041-01321999999ADDMA1999999090191MD1810081+9999ME1314429OA149900211REMSYN076AAXX  04004 06787 33/// /0000 11104 21132 39019 48442 58008 333 91104 91203;
0137067870999992010010401004+46617+009433FM-12+098999999V0209999C000019999999N9999999N1-01031-01511999999ADDMA1999999090141MD1810121+9999ME1314389OA149900151REMSYN076AAXX  04014 06787 33/// /0000 11103 21151 39014 48438 58012 333 91103 91201;
0137067870999992010010402004+46617+009433FM-12+098999999V0201401N000519999999N9999999N1-01051-01501999999ADDMA1999999090101MD1710141+9999ME1314359OA149900101REMSYN076AAXX  04024 06787 33/// /1401 11105 21150 39010 48435 57014 333 91102 91201;
0137067870999992010010403004+46617+009433FM-12+098999999V0200201N001019999999N9999999N1-00991-01421999999ADDMA1999999090011MD1819999+9999ME1314289OA149900211REMSYN076AAXX  04034 06787 33/// /0202 11099 21142 39001 48428 58/// 333 91104 91202;
0137067870999992010010404004+46617+009433FM-12+098999999V0200701N000519999999N9999999N1-00941-01451999999ADDMA1999999089951MD1710191+9999ME1314249OA149900261REMSYN076AAXX  04044 06787 33/// /0701 11094 21145 38995 48424 57019 333 91105 91202;
0137067870999992010010405004+46617+009433FM-12+098999999V0209999C000019999999N9999999N1-00861-01251999999ADDMA1999999089881MD1610221+9999ME1314199OA149900311REMSYN076AAXX  04054 06787 33/// /0000 11086 21125 38988 48419 56022 333 91106 91202;
0216067870999992010010406004+46617+009433FM-12+098999999V0209999C000019999999N9999999N1-00771-01261999999ADDAA124000091AL19900091GJ102349KA1999N-01151MA1999999089861MD1610151+9999ME1314199OA149900311REMSYN094AAXX  04064 06787 33/// /0000 11077 21126 38986 48419 56015 333 21115 55039 70000 91106 91202;EQDQ01  00002PRCP24
0137067870999992010010407004+46617+009433FM-12+098999999V0203401N000519999999N9999999N1-00721-01221999999ADDMA1999999089841MD1710111+9999ME1314189OA149900311REMSYN076AAXX  04074 06787 33/// /3401 11072 21122 38984 48418 57011 333 91106 91202;
0137067870999992010010408004+46617+009433FM-12+098999999V0201501N002619999999N9999999N1-00291-01591999999ADDMA1999999089811MD1710071+9999ME1314239OA149900721REMSYN076AAXX  04084 06787 33/// /1505 11029 21159 38981 48423 57007 333 91114 91205;
0137067870999992010010409004+46617+009433FM-12+098999999V0201801N007719999999N9999999N1-00111-01571999999ADDMA1999999089781MD1710081+9999ME1314239OA149901291REMSYN076AAXX  04094 06787 33/// /1815 11011 21157 38978 48423 57008 333 91125 91215;
0137067870999992010010410004+46617+009433FM-12+098999999V0201501N004619999999N9999999N1-00071-01401999999ADDMA1999999089751MD1710091+9999ME1314219OA149901291REMSYN076AAXX  04104 06787 33/// /1509 11007 21140 38975 48421 57009 333 91125 91215;
0137067870999992010010411004+46617+009433FM-12+098999999V0201701N005719999999N9999999N1+00031-01411999999ADDMA1999999089671MD1710141+9999ME1314169OA149901131REMSYN076AAXX  04114 06787 33/// /1711 10003 21141 38967 48416 57014 333 91122 91212;
0137067870999992010010412004+46617+009433FM-12+098999999V0201701N005719999999N9999999N1+00091-01261999999ADDMA1999999089601MD1710181+9999ME1314109OA149901291REMSYN076AAXX  04124 06787 33/// /1711 10009 21126 38960 48410 57018 333 91125 91215;
0137067870999992010010413004+46617+009433FM-12+098999999V0201701N007219999999N9999999N1+00041-01291999999ADDMA1999999089531MD1610221+9999ME1314039OA149901241REMSYN076AAXX  04134 06787 33/// /1714 10004 21129 38953 48403 56022 333 91124 91214;
0137067870999992010010414004+46617+009433FM-12+098999999V0201601N004619999999N9999999N1+00081-01201999999ADDMA1999999089491MD1619999+9999ME1314009OA149901241REMSYN076AAXX  04144 06787 33/// /1609 10008 21120 38949 48400 56/// 333 91124 91214;
0137067870999992010010415004+46617+009433FM-12+098999999V0201401N003619999999N9999999N1+00001-01191999999ADDMA1999999089491MD1710111+9999ME1313999OA149901241REMSYN076AAXX  04154 06787 33/// /1407 10000 21119 38949 48399 57011 333 91124 91214;
0137067870999992010010416004+46617+009433FM-12+098999999V0201601N002619999999N9999999N1-00021-01191999999ADDMA1999999089501MD1710031+9999ME1314009OA149900721REMSYN076AAXX  04164 06787 33/// /1605 11002 21119 38950 48400 57003 333 91114 91209;
0156067870999992010010417004+46617+009433FM-12+098999999V0202101N001519999999N9999999N1-00101-01051999999ADDMA1999999089491MD1410001+9999ME1313989OA149900771REMSYN076AAXX  04174 06787 33/// /2103 11010 21105 38949 48398 57000 333 91115 91207;EQDQ01+000072APCTEN
0156067870999992010010418004+46617+009433FM-12+098999999V0203301N001519999999N9999999N1-00201-01031999999ADDKA1120M+00131MA1999999089501MD1010011+9999ME1313979OA149901291REMSYN082AAXX  04184 06787 33/// /3303 11020 21103 38950 48397 50001 333 10013 91125 91215;
0137067870999992010010419004+46617+009433FM-12+098999999V0200801N001019999999N9999999N1-00301-00791999999ADDMA1999999089491MD1710011+9999ME1313949OA149900311REMSYN076AAXX  04194 06787 33/// /0802 11030 21079 38949 48394 57001 333 91106 91203;
0137067870999992010010420004+46617+009433FM-12+098999999V0200601N001019999999N9999999N1-00311-00811999999ADDMA1999999089491MD1010001+9999ME1313949OA149900311REMSYN076AAXX  04204 06787 33/// /0602 11031 21081 38949 48394 50000 333 91106 91204;
0137067870999992010010421004+46617+009433FM-12+098999999V0209999C000019999999N9999999N1-00381-00801999999ADDMA1999999089491MD1710011+9999ME1313939OA149900771REMSYN076AAXX  04214 06787 33/// /0000 11038 21080 38949 48393 57001 333 91115 91207;
0137067870999992010010422004+46617+009433FM-12+098999999V0209999C000519999999N9999999N1-00431-00811999999ADDMA1999999089461MD1810031+9999ME1313909OA149900211REMSYN076AAXX  04224 06787 33/// /0001 11043 21081 38946 48390 58003 333 91104 91202;
0137067870999992010010423004+46617+009433FM-12+098999999V0201801N000519999999N9999999N1-00421-00781999999ADDMA1999999089441MD1710051+9999ME1313889OA149900211REMSYN076AAXX  04234 06787 33/// /1801 11042 21078 38944 48388 57005 333 91104 91203;
0137067870999992010010500004+46617+009433FM-12+098999999V0209999C000019999999N9999999N1-00461-00841999999ADDMA1999999089381MD1710111+9999ME1313829OA149901241REMSYN076AAXX  05004 06787 33/// /0000 11046 21084 38938 48382 57011 333 91124 91214;
0137067870999992010010501004+46617+009433FM-12+098999999V0203001N000519999999N9999999N1-00531-00781999999ADDMA1999999089351MD1710111+9999ME1313799OA149900151REMSYN076AAXX  05014 06787 33/// /3001 11053 21078 38935 48379 57011 333 91103 91201;
0137067870999992010010502004+46617+009433FM-12+098999999V0201001N000519999999N9999999N1-00521-00981999999ADDMA1999999089311MD1610131+9999ME1313759OA149900151REMSYN076AAXX  05024 06787 33/// /1001 11052 21098 38931 48375 56013 333 91103 91202;
0137067870999992010010503004+46617+009433FM-12+098999999V0209999C000019999999N9999999N1-00611-00981999999ADDMA1999999089271MD1810111+9999ME1313719OA149900211REMSYN076AAXX  05034 06787 33/// /0000 11061 21098 38927 48371 58011 333 91104 91203;
0137067870999992010010504004+46617+009433FM-12+098999999V0200801N000519999999N9999999N1-00641-00991999999ADDMA1999999089231MD1810121+9999ME1313679OA149900101REMSYN076AAXX  05044 06787 33/// /0801 11064 21099 38923 48367 58012 333 91102 91201;
0137067870999992010010505004+46617+009433FM-12+098999999V0203301N000519999999N9999999N1-00771-01011999999ADDMA1999999089191MD1610121+9999ME1313619OA149900101REMSYN076AAXX  05054 06787 33/// /3301 11077 21101 38919 48361 56012 333 91102 91201;
0216067870999992010010506004+46617+009433FM-12+098999999V0209999C000019999999N9999999N1-00721-01031999999ADDAA124000091AL19900091GJ101209KA1999N-00801MA1999999089151MD1610121+9999ME1313599OA149900311REMSYN094AAXX  05064 06787 33/// /0000 11072 21103 38915 48359 56012 333 21080 55020 70000 91106 91204;EQDQ01  00002PRCP24
0137067870999992010010507004+46617+009433FM-12+098999999V0201801N000519999999N9999999N1-00801-01071999999ADDMA1999999089111MD1610121+9999ME1313549OA149900101REMSYN076AAXX  05074 06787 33/// /1801 11080 21107 38911 48354 56012 333 91102 91201;
0137067870999992010010508004+46617+009433FM-12+098999999V0200901N000519999999N9999999N1-00761-01051999999ADDMA1999999089091MD1610101+9999ME1313539OA149900151REMSYN076AAXX  05084 06787 33/// /0901 11076 21105 38909 48353 56010 333 91103 91201;
0137067870999992010010509004+46617+009433FM-12+098999999V0209999C000019999999N9999999N1-00771-01001999999ADDMA1999999089051MD1810101+9999ME1313499OA149900151REMSYN076AAXX  05094 06787 33/// /0000 11077 21100 38905 48349 58010 333 91103 91201;
0137067870999992010010510004+46617+009433FM-12+098999999V0209999C000019999999N9999999N1-00661-01011999999ADDMA1999999089011MD1810101+9999ME1313479OA149900151REMSYN076AAXX  05104 06787 33/// /0000 11066 21101 38901 48347 58010 333 91103 91202;
0137067870999992010010511004+46617+009433FM-12+098999999V0209999C000019999999N9999999N1-00441-00891999999ADDMA1999999088891MD1810201+9999ME1313409OA149900151REMSYN076AAXX  05114 06787 33/// /0000 11044 21089 38889 48340 58020 333 91103 91202;
0137067870999992010010512004+46617+009433FM-12+098999999V0201001N000519999999N9999999N1-00231-00931999999ADDMA1999999088771MD1810281+9999ME1313329OA149900151REMSYN076AAXX  05124 06787 33/// /1001 11023 21093 38877 48332 58028 333 91103 91202;
0137067870999992010010513004+46617+009433FM-12+098999999V0201401N000519999999N9999999N1-00091-00981999999ADDMA1999999088711MD1610301+9999ME1313289OA149900101REMSYN076AAXX  05134 06787 33/// /1401 11009 21098 38871 48328 56030 333 91102 91201;
0096067870999992010010514004+46617+009433FM-12+098999999V0201401N000519999999N9999999N1-00111-00831999999ADDMA1999999088641ME1313229REMSYN060AAXX  05144 06787 33/// /1401 11011 21083 38864 48322 5////;
0137067870999992010010515004+46617+009433FM-12+098999999V0201501N000519999999N9999999N1-00151-00771999999ADDMA1999999088651MD1710121+9999ME1313229OA149900151REMSYN076AAXX  05154 06787 33/// /1501 11015 21077 38865 48322 57012 333 91103 91202;
0137067870999992010010516004+46617+009433FM-12+098999999V0209999C000019999999N9999999N1-00211-00761999999ADDMA1999999088641MD1710071+9999ME1313219OA149900101REMSYN076AAXX  05164 06787 33/// /0000 11021 21076 38864 48321 57007 333 91102 91201;
0137067870999992010010517004+46617+009433FM-12+098999999V0200201N000519999999N9999999N1-00361-00791999999ADDMA1999999088661MD1210021+9999ME1313219OA149900101REMSYN076AAXX  05174 06787 33/// /0201 11036 21079 38866 48321 52002 333 91102 91201;
0175067870999992010010518004+46617+009433FM-12+098999999V0203601N000519999999N9999999N1-00381-00801999999ADDKA1120M-00091MA1999999088651MD1410001+9999ME1313199OA149900151REMSYN082AAXX  05184 06787 33/// /3601 11038 21080 38865 48319 57000 333 11009 91103 91202;EQDQ01+000072APCTEN
0137067870999992010010519004+46617+009433FM-12+098999999V0201501N000519999999N9999999N1-00401-00821999999ADDMA1999999088631MD1810011+9999ME1313179OA149900101REMSYN076AAXX  05194 06787 33/// /1501 11040 21082 38863 48317 58001 333 91102 91201;
0137067870999992010010520004+46617+009433FM-12+098999999V0209999C000019999999N9999999N1-00481-00801999999ADDMA1999999088591MD1810071+9999ME1313139OA149900101REMSYN076AAXX  05204 06787 33/// /0000 11048 21080 38859 48313 58007 333 91102 91201;
0137067870999992010010521004+46617+009433FM-12+098999999V0209999C000019999999N9999999N1-00461-00791999999ADDMA1999999088561MD1810091+9999ME1313109OA149900101REMSYN076AAXX  05214 06787 33/// /0000 11046 21079 38856 48310 58009 333 91102 91201;
0137067870999992010010522004+46617+009433FM-12+098999999V0201301N000519999999N9999999N1-00481-00791999999ADDMA1999999088521MD1810111+9999ME1313079OA149900101REMSYN076AAXX  05224 06787 33/// /1301 11048 21079 38852 48307 58011 333 91102 91201;
0137067870999992010010523004+46617+009433FM-12+098999999V0200901N000519999999N9999999N1-00491-00821999999ADDMA1999999088501MD1710091+9999ME1313059OA149900101REMSYN076AAXX  05234 06787 33/// /0901 11049 21082 38850 48305 57009 333 91102 91201;
0137067870999992010010600004+46617+009433FM-12+098999999V0201701N000519999999N9999999N1-00561-00841999999ADDMA1999999088471MD1710091+9999ME1313019OA149900151REMSYN076AAXX  06004 06787 33/// /1701 11056 21084 38847 48301 57009 333 91103 91201;
0137067870999992010010601004+46617+009433FM-12+098999999V0201101N000519999999N9999999N1-00481-00841999999ADDMA1999999088481MD1710041+9999ME1313039OA149900151REMSYN076AAXX  06014 06787 33/// /1101 11048 21084 38848 48303 57004 333 91103 91202;
0137067870999992010010602004+46617+009433FM-12+098999999V0209999C000019999999N9999999N1-00661-00901999999ADDMA1999999088491MD1510011+9999ME1313029OA149900151REMSYN076AAXX  06024 06787 33/// /0000 11066 21090 38849 48302 55001 333 91103 91202;
0137067870999992010010603004+46617+009433FM-12+098999999V0209999C000019999999N9999999N1-00571-00871999999ADDMA1999999088491MD1210021+9999ME1313039OA149900151REMSYN076AAXX  06034 06787 33/// /0000 11057 21087 38849 48303 52002 333 91103 91202;
0137067870999992010010604004+46617+009433FM-12+098999999V0203201N000519999999N9999999N1-00711-00901999999ADDMA1999999088461MD1810021+9999ME1312999OA149900151REMSYN076AAXX  06044 06787 33/// /3201 11071 21090 38846 48299 58002 333 91103 91202;
0137067870999992010010605004+46617+009433FM-12+098999999V0201801N000519999999N9999999N1-00661-00911999999ADDMA1999999088501MD1310011+9999ME1313039OA149900151REMSYN076AAXX  06054 06787 33/// /1801 11066 21091 38850 48303 53001 333 91103 91202;
0232067870999992010010606004+46617+009433FM-12+098999999V0209999C000019999999N9999999N1-00591-00861999999ADDAA124000091AL19900091GJ102349KA1999N-00831MA1999999088491MD1410001+9999ME1313039OA149900151REMSYN094AAXX  06064 06787 33/// /0000 11059 21086 38849 48303 52000 333 21083 55039 70000 91103 91202;EQDQ01+000022APCTENQ02  00002PRCP24
0137067870999992010010607004+46617+009433FM-12+098999999V0203501N000519999999N9999999N1-00641-00841999999ADDMA1999999088491MD1010031+9999ME1313029OA149900151REMSYN076AAXX  06074 06787 33/// /3501 11064 21084 38849 48302 50003 333 91103 91201;
0137067870999992010010608004+46617+009433FM-12+098999999V0209999C000019999999N9999999N1-00571-00891999999ADDMA1999999088511MD1310011+9999ME1313059OA149900151REMSYN076AAXX  06084 06787 33/// /0000 11057 21089 38851 48305 53001 333 91103 91202;
0137067870999992010010609004+46617+009433FM-12+098999999V0209999C000019999999N9999999N1-00601-00921999999ADDMA1999999088551MD1310061+9999ME1313089OA149900151REMSYN076AAXX  06094 06787 33/// /0000 11060 21092 38855 48308 53006 333 91103 91202;
0137067870999992010010610004+46617+009433FM-12+098999999V0202001N001019999999N9999999N1-00651-00931999999ADDMA1999999088621MD1310131+9999ME1313139OA149900151REMSYN076AAXX  06104 06787 33/// /2002 11065 21093 38862 48313 53013 333 91103 91202;
0137067870999992010010611004+46617+009433FM-12+098999999V0201101N000519999999N9999999N1-00421-00871999999ADDMA1999999088571MD1019999+9999ME1313129OA149900151REMSYN076AAXX  06114 06787 33/// /1101 11042 21087 38857 48312 50/// 333 91103 91202;
0137067870999992010010612004+46617+009433FM-12+098999999V0203401N000519999999N9999999N1-00261-00771999999ADDMA1999999088541MD1810011+9999ME1313119OA149900151REMSYN076AAXX  06124 06787 33/// /3401 11026 21077 38854 48311 58001 333 91103 91202;
0137067870999992010010613004+46617+009433FM-12+098999999V0202301N000519999999N9999999N1-00191-00851999999ADDMA1999999088521MD1710101+9999ME1313109OA149900151REMSYN076AAXX  06134 06787 33/// /2301 11019 21085 38852 48310 57010 333 91103 91201;
0137067870999992010010614004+46617+009433FM-12+098999999V0203301N001019999999N9999999N1-00181-00741999999ADDMA1999999088521MD1719999+9999ME1313109OA149900211REMSYN076AAXX  06144 06787 33/// /3302 11018 21074 38852 48310 57/// 333 91104 91202;
0137067870999992010010615004+46617+009433FM-12+098999999V0200101N001019999999N9999999N1-00271-00731999999ADDMA1999999088571MD1319999+9999ME1313149OA149900261REMSYN076AAXX  06154 06787 33/// /0102 11027 21073 38857 48314 53/// 333 91105 91202;
0137067870999992010010616004+46617+009433FM-12+098999999V0203501N001519999999N9999999N1-00381-00671999999ADDMA1999999088671MD1210151+9999ME1313219OA149900261REMSYN076AAXX  06164 06787 33/// /3503 11038 21067 38867 48321 52015 333 91105 91203;
0137067870999992010010617004+46617+009433FM-12+098999999V0203401N001519999999N9999999N1-00461-00661999999ADDMA1999999088721MD1110201+9999ME1313259OA149900311REMSYN076AAXX  06174 06787 33/// /3403 11046 21066 38872 48325 51020 333 91106 91203;
0156067870999992010010618004+46617+009433FM-12+098999999V0209999C000019999999N9999999N1-00471-00641999999ADDKA1120M-00151MA1999999088791MD1119999+9999ME1313319OA149900311REMSYN082AAXX  06184 06787 33/// /0000 11047 21064 38879 48331 51/// 333 11015 91106 91203;
0137067870999992010010619004+46617+009433FM-12+098999999V0201801N001019999999N9999999N1-00411-00661999999ADDMA1999999088821MD1110151+9999ME1313349OA149900311REMSYN076AAXX  06194 06787 33/// /1802 11041 21066 38882 48334 51015 333 91106 91203;
0137067870999992010010620004+46617+009433FM-12+098999999V0202001N000519999999N9999999N1-00431-00691999999ADDMA1999999088871MD1110151+9999ME1313389OA149900211REMSYN076AAXX  06204 06787 33/// /2001 11043 21069 38887 48338 51015 333 91104 91202;
0137067870999992010010621004+46617+009433FM-12+098999999V0202101N001019999999N9999999N1-00431-00691999999ADDMA1999999088901MD1110111+9999ME1313419OA149900311REMSYN076AAXX  06214 06787 33/// /2102 11043 21069 38890 48341 51011 333 91106 91203;
0137067870999992010010622004+46617+009433FM-12+098999999V0202101N001019999999N9999999N1-00431-00751999999ADDMA1999999088911MD1210091+9999ME1313429OA149900211REMSYN076AAXX  06224 06787 33/// /2102 11043 21075 38891 48342 52009 333 91104 91203;
0137067870999992010010623004+46617+009433FM-12+098999999V0209999C000019999999N9999999N1-00471-00731999999ADDMA1999999088931MD1210061+9999ME1313439OA149900211REMSYN076AAXX  06234 06787 33/// /0000 11047 21073 38893 48343 52006 333 91104 91203;
0137067870999992010010700004+46617+009433FM-12+098999999V0203501N000519999999N9999999N1-00501-00691999999ADDMA1999999088911MD1010011+9999ME1313419OA149900311REMSYN076AAXX  07004 06787 33/// /3501 11050 21069 38891 48341 50001 333 91106 91203;
0154067870999992010010701004+46617+009433FM-12+098999999V0201401N000519999999N9999999N1-00511-00671999999ADDAA101000021MA1999999088921MD1310011+9999ME1313419OA149900151REMSYN082AAXX  07014 06787 23/// /1401 11051 21067 38892 48341 53001 333 69925 91103 91202;
0154067870999992010010702004+46617+009433FM-12+098999999V0209999C000019999999N9999999N1-00531-00661999999ADDAA101000021MA1999999088981MD1219999+9999ME1313469OA149900101REMSYN082AAXX  07024 06787 23/// /0000 11053 21066 38898 48346 52/// 333 69925 91102 91201;
0154067870999992010010703004+46617+009433FM-12+098999999V0209999C000019999999N9999999N1-00521-00621999999ADDAA101001091MA1999999089011MD1310101+9999ME1313499OA149900211REMSYN082AAXX  07034 06787 23/// /0000 11052 21062 38901 48349 53010 333 60015 91104 91203;
0154067870999992010010704004+46617+009433FM-12+098999999V0209999C000019999999N9999999N1-00521-00651999999ADDAA101000891MA1999999089041MD1110121+9999ME1313529OA149900101REMSYN082AAXX  07044 06787 23/// /0000 11052 21065 38904 48352 51012 333 69985 91102 91201;
0154067870999992010010705004+46617+009433FM-12+098999999V0209999C000019999999N9999999N1-00521-00641999999ADDAA101000391MA1999999089091MD1310111+9999ME1313569OA149900101REMSYN082AAXX  07054 06787 23/// /0000 11052 21064 38909 48356 53011 333 69935 91102 91201;
0220067870999992010010706004+46617+009433FM-12+098999999V0200901N000519999999N9999999N1-00551-00691999999ADDAA112003092AA224002892AL14800291GJ102349KA1999N-00541MA1999999089151MD1310141+9999ME1313619OA149900211REMSYN106AAXX  07064 06787 03/// /0901 11055 21069 38915 48361 53014 60032 333 21054 55039 69925 70028 91104 91203;
0154067870999992010010707004+46617+009433FM-12+098999999V0209999C000019999999N9999999N1-00711-00851999999ADDAA101000021MA1999999089231MD1310191+9999ME1313669OA149900101REMSYN082AAXX  07074 06787 23/// /0000 11071 21085 38923 48366 53019 333 69915 91102 91201;
0137067870999992010010708004+46617+009433FM-12+098999999V0209999C000019999999N9999999N1-00701-00841999999ADDMA1999999089311MD1319999+9999ME1313739OA149900101REMSYN076AAXX  07084 06787 33/// /0000 11070 21084 38931 48373 53/// 333 91102 91201;
0137067870999992010010709004+46617+009433FM-12+098999999V0200401N000519999999N9999999N1-00831-00961999999ADDMA1999999089331MD1210181+9999ME1313739OA149900151REMSYN076AAXX  07094 06787 33/// /0401 11083 21096 38933 48373 52018 333 91103 91201;
0137067870999992010010710004+46617+009433FM-12+098999999V0209999C000019999999N9999999N1-00861-01021999999ADDMA1999999089361MD1210131+9999ME1313759OA149900151REMSYN076AAXX  07104 06787 33/// /0000 11086 21102 38936 48375 52013 333 91103 91201;
0137067870999992010010711004+46617+009433FM-12+098999999V0201101N000519999999N9999999N1-00621-00891999999ADDMA1999999089321MD1010011+9999ME1313759OA149900151REMSYN076AAXX  07114 06787 33/// /1101 11062 21089 38932 48375 50001 333 91103 91201;
0179067870999992010010712004+46617+009433FM-12+098999999V0200901N000519999999N9999999N1-00491-00781999999ADDAA106000091MA1999999089251MD1810081+9999ME1313719OA149900151REMSYN088AAXX  07124 06787 03/// /0901 11049 21078 38925 48371 58008 69911 333 60005 91103 91201;EQDQ01  00002PRCP06
0137067870999992010010713004+46617+009433FM-12+098999999V0200901N000519999999N9999999N1-00391-00861999999ADDMA1999999089211MD1810151+9999ME1313699OA149900101REMSYN076AAXX  07134 06787 33/// /0901 11039 21086 38921 48369 58015 333 91102 91201;
0096067870999992010010715004+46617+009433FM-12+098999999V0200101N000519999999N9999999N1-00351-00801999999ADDMA1999999089241ME1313729REMSYN060AAXX  07154 06787 43/// /0101 11035 21080 38924 48372 5////;
0137067870999992010010716004+46617+009433FM-12+098999999V0201401N000519999999N9999999N1-00391-00681999999ADDMA1999999089301MD1210091+9999ME1313769OA149900151REMSYN076AAXX  07164 06787 33/// /1401 11039 21068 38930 48376 52009 333 91103 91201;
0137067870999992010010717004+46617+009433FM-12+098999999V0202001N000519999999N9999999N1-00511-00711999999ADDMA1999999089361MD1219999+9999ME1313809OA149900151REMSYN076AAXX  07174 06787 33/// /2001 11051 21071 38936 48380 52/// 333 91103 91201;
0198067870999992010010718004+46617+009433FM-12+098999999V0209999C000019999999N9999999N1-00531-00711999999ADDAA112000091KA1120M-00321MA1999999089411MD1219999+9999ME1313849OA149900151REMSYN094AAXX  07184 06787 03/// /0000 11053 21071 38941 48384 52/// 69912 333 11032 60005 91103 91201;EQDQ01  00002PRCP12
0137067870999992010010719004+46617+009433FM-12+098999999V0200201N000519999999N9999999N1-00571-00741999999ADDMA1999999089411MD1210111+9999ME1313839OA149900151REMSYN076AAXX  07194 06787 33/// /0201 11057 21074 38941 48383 52011 333 91103 91201;
0137067870999992010010720004+46617+009433FM-12+098999999V0209999C000019999999N9999999N1-00581-00711999999ADDMA1999999089401MD1010041+9999ME1313829OA149900211REMSYN076AAXX  07204 06787 33/// /0000 11058 21071 38940 48382 50004 333 91104 91201;
0137067870999992010010721004+46617+009433FM-12+098999999V0209999C000019999999N9999999N1-00521-00661999999ADDMA1999999089431MD1210021+9999ME1313869OA149900211REMSYN076AAXX  07214 06787 33/// /0000 11052 21066 38943 48386 52002 333 91104 91201;
0137067870999992010010722004+46617+009433FM-12+098999999V0201601N000519999999N9999999N1-00521-00661999999ADDMA1999999089421MD1210011+9999ME1313859OA149900151REMSYN076AAXX  07224 06787 33/// /1601 11052 21066 38942 48385 52001 333 91103 91201;
0137067870999992010010723004+46617+009433FM-12+098999999V0202901N000519999999N9999999N1-00471-00611999999ADDMA1999999089381MD1810021+9999ME1313829OA149900151REMSYN076AAXX  07234 06787 33/// /2901 11047 21061 38938 48382 58002 333 91103 91201;
0137067870999992010010800004+46617+009433FM-12+098999999V0209999C000019999999N9999999N1-00431-00601999999ADDMA1999999089321MD1710111+9999ME1313789OA149900211REMSYN076AAXX  08004 06787 33/// /0000 11043 21060 38932 48378 57011 333 91104 91201;
0137067870999992010010801004+46617+009433FM-12+098999999V0202401N001019999999N9999999N1-00421-00551999999ADDMA1999999089271MD1710151+9999ME1313739OA149900151REMSYN076AAXX  08014 06787 33/// /2402 11042 21055 38927 48373 57015 333 91103 91202;
0154067870999992010010802004+46617+009433FM-12+098999999V0209999C000019999999N9999999N1-00381-00481999999ADDAA101000591MA1999999089261MD1719999+9999ME1313739OA149900151REMSYN082AAXX  08024 06787 23/// /0000 11038 21048 38926 48373 57/// 333 69945 91103 91202;
0154067870999992010010803004+46617+009433FM-12+098999999V0209999C000019999999N9999999N1-00331-00431999999ADDAA101001091MA1999999089251MD1719999+9999ME1313739OA149900151REMSYN082AAXX  08034 06787 23/// /0000 11033 21043 38925 48373 57/// 333 60015 91103 91202;
0154067870999992010010804004+46617+009433FM-12+098999999V0200201N000519999999N9999999N1-00351-00471999999ADDAA101001091MA1999999089211MD1710061+9999ME1313699OA149900101REMSYN082AAXX  08044 06787 23/// /0201 11035 21047 38921 48369 57006 333 60015 91102 91202;
0154067870999992010010805004+46617+009433FM-12+098999999V0203501N001019999999N9999999N1-00411-00541999999ADDAA101001091MA1999999089171MD1710091+9999ME1313659OA149900151REMSYN082AAXX  08054 06787 23/// /3502 11041 21054 38917 48365 57009 333 69995 91103 91202;
0220067870999992010010806004+46617+009433FM-12+098999999V0203401N001019999999N9999999N1-00441-00561999999ADDAA112004191AA224004191AL19900491GJ101329KA1999N-00671MA1999999089141MD1710111+9999ME1313629OA149900211REMSYN106AAXX  08064 06787 03/// /3402 11044 21056 38914 48362 57011 60042 333 21067 55022 69995 70040 91104 91202;
0154067870999992010010807004+46617+009433FM-12+098999999V0203301N000519999999N9999999N1-00441-00571999999ADDAA101000891MA1999999089131MD1610081+9999ME1313619OA149900151REMSYN082AAXX  08074 06787 23/// /3301 11044 21057 38913 48361 56008 333 69985 91103 91202;
0154067870999992010010808004+46617+009433FM-12+098999999V0209999C000019999999N9999999N1-00441-00561999999ADDAA101001091MA1999999089101MD1610071+9999ME1313589OA149900101REMSYN082AAXX  08084 06787 23/// /0000 11044 21056 38910 48358 56007 333 60015 91102 91201;
0154067870999992010010809004+46617+009433FM-12+098999999V0209999C000019999999N9999999N1-00461-00561999999ADDAA101001091MA1999999089041MD1810101+9999ME1313539OA149900151REMSYN082AAXX  08094 06787 23/// /0000 11046 21056 38904 48353 58010 333 60015 91103 91202;
0154067870999992010010810004+46617+009433FM-12+098999999V0209999C000019999999N9999999N1-00431-00561999999ADDAA101000391MA1999999088991MD1810141+9999ME1313499OA149900051REMSYN082AAXX  08104 06787 23/// /0000 11043 21056 38899 48349 58014 333 69935 91101 91201;
0154067870999992010010811004+46617+009433FM-12+098999999V0209999C000019999999N9999999N1-00401-00531999999ADDAA101000021MA1999999088901MD1810201+9999ME1313419OA149900051REMSYN082AAXX  08114 06787 23/// /0000 11040 21053 38890 48341 58020 333 69925 91101 91201;
0160067870999992010010812004+46617+009433FM-12+098999999V0209999C000019999999N9999999N1-00381-00501999999ADDAA106004191MA1999999088761MD1810281+9999ME1313299OA149900151REMSYN088AAXX  08124 06787 03/// /0000 11038 21050 38876 48329 58028 60041 333 69925 91103 91202;
0154067870999992010010813004+46617+009433FM-12+098999999V0209999C000019999999N9999999N1-00331-00461999999ADDAA101000391MA1999999088691MD1710301+9999ME1313249OA149900101REMSYN082AAXX  08134 06787 23/// /0000 11033 21046 38869 48324 57030 333 69935 91102 91201;
0137067870999992010010814004+46617+009433FM-12+098999999V0209999C000019999999N9999999N1-00341-00471999999ADDMA1999999088661MD1619999+9999ME1313219OA149900101REMSYN076AAXX  08144 06787 33/// /0000 11034 21047 38866 48321 56/// 333 91102 91201;
0137067870999992010010815004+46617+009433FM-12+098999999V0209999C000019999999N9999999N1-00341-00471999999ADDMA1999999088661MD1710101+9999ME1313219OA149900101REMSYN076AAXX  08154 06787 33/// /0000 11034 21047 38866 48321 57010 333 91102 91201;
0156067870999992010010816004+46617+009433FM-12+098999999V0209999C000019999999N9999999N1-00451-00571999999ADDMA1999999088691MD1410001+9999ME1313229OA149900151REMSYN076AAXX  08164 06787 33/// /0000 11045 21057 38869 48322 53000 333 91103 91202;EQDQ01+000032APCTEN
0137067870999992010010817004+46617+009433FM-12+098999999V0203301N001019999999N9999999N1-00371-00501999999ADDMA1999999088701MD1119999+9999ME1313249OA149900151REMSYN076AAXX  08174 06787 33/// /3302 11037 21050 38870 48324 51/// 333 91103 91202;
0179067870999992010010818004+46617+009433FM-12+098999999V0203601N000519999999N9999999N1-00381-00511999999ADDAA112005191KA1120M-00281MA1999999088741MD1310081+9999ME1313279OA149900151REMSYN094AAXX  08184 06787 03/// /3601 11038 21051 38874 48327 53008 60052 333 11028 69955 91103 91202;
0154067870999992010010819004+46617+009433FM-12+098999999V0203301N001019999999N9999999N1-00421-00561999999ADDAA101000891MA1999999088781MD1310091+9999ME1313309OA149900151REMSYN082AAXX  08194 06787 23/// /3302 11042 21056 38878 48330 53009 333 69975 91103 91202;
0154067870999992010010820004+46617+009433FM-12+098999999V0200201N000519999999N9999999N1-00441-00521999999ADDAA101000591MA1999999088801MD1210101+9999ME1313329OA149900151REMSYN082AAXX  08204 06787 23/// /0201 11044 21052 38880 48332 52010 333 69945 91103 91202;
0154067870999992010010821004+46617+009433FM-12+098999999V0200401N000519999999N9999999N1-00471-00531999999ADDAA101000391MA1999999088831MD1210091+9999ME1313349OA149900151REMSYN082AAXX  08214 06787 23/// /0401 11047 21053 38883 48334 52009 333 69935 91103 91202;
0154067870999992010010822004+46617+009433FM-12+098999999V0203401N000519999999N9999999N1-00481-00551999999ADDAA101000591MA1999999088851MD1210071+9999ME1313369OA149900101REMSYN082AAXX  08224 06787 23/// /3401 11048 21055 38885 48336 52007 333 69955 91102 91201;
0137067870999992010010823004+46617+009433FM-12+098999999V0209999C000019999999N9999999N1-00531-00581999999ADDMA1999999088851MD1210051+9999ME1313359OA149900101REMSYN076AAXX  08234 06787 33/// /0000 11053 21058 38885 48335 52005 333 91102 91201;
0160067870999992010010900004+46617+009433FM-12+098999999V0200701N001019999999N9999999N1-00571-00711999999ADDAA106002091MA1999999088821MD1019999+9999ME1313329OA149900151REMSYN088AAXX  09004 06787 03/// /0702 11057 21071 38882 48332 50/// 60021 333 60005 91103 91202;
0137067870999992010010901004+46617+009433FM-12+098999999V0201901N000519999999N9999999N1-00671-00811999999ADDMA1999999088841MD1710011+9999ME1313329OA149900151REMSYN076AAXX  09014 06787 33/// /1901 11067 21081 38884 48332 57001 333 91103 91202;
0137067870999992010010902004+46617+009433FM-12+098999999V0209999C000019999999N9999999N1-00601-00751999999ADDMA1999999088871MD1319999+9999ME1313369OA149900151REMSYN076AAXX  09024 06787 33/// /0000 11060 21075 38887 48336 53/// 333 91103 91202;
0137067870999992010010903004+46617+009433FM-12+098999999V0209999C000019999999N9999999N1-00651-00751999999ADDMA1999999088891MD1219999+9999ME1313379OA149900151REMSYN076AAXX  09034 06787 33/// /0000 11065 21075 38889 48337 52/// 333 91103 91202;
0137067870999992010010904004+46617+009433FM-12+098999999V0209999C000019999999N9999999N1-00611-00711999999ADDMA1999999088831MD1810011+9999ME1313329OA149900151REMSYN076AAXX  09044 06787 33/// /0000 11061 21071 38883 48332 58001 333 91103 91202;
0137067870999992010010905004+46617+009433FM-12+098999999V0209999C000019999999N9999999N1-00611-00721999999ADDMA1999999088781MD1710091+9999ME1313289OA149900101REMSYN076AAXX  09054 06787 33/// /0000 11061 21072 38878 48328 57009 333 91102 91201;
0220067870999992010010906004+46617+009433FM-12+098999999V0200101N000519999999N9999999N1-00571-00771999999ADDAA112002091AA224006991AL14800691GJ100009KA1999N-00741MA1999999088731MD1810161+9999ME1313249OA149900151REMSYN106AAXX  09064 06787 03/// /0101 11057 21077 38873 48324 58016 60022 333 21074 55000 60005 70069 91103 91202;
0137067870999992010010907004+46617+009433FM-12+098999999V0209999C000519999999N9999999N1-00591-00801999999ADDMA1999999088731MD1710101+9999ME1313249OA149900211REMSYN076AAXX  09074 06787 33/// /0001 11059 21080 38873 48324 57010 333 91104 91202;
0137067870999992010010908004+46617+009433FM-12+098999999V0200801N000519999999N9999999N1-00591-00811999999ADDMA1999999088761MD1510021+9999ME1313269OA149900211REMSYN076AAXX  09084 06787 33/// /0801 11059 21081 38876 48326 55002 333 91104 91202;
0137067870999992010010909004+46617+009433FM-12+098999999V0202801N000519999999N9999999N1-00571-00811999999ADDMA1999999088741MD1210011+9999ME1313259OA149900211REMSYN076AAXX  09094 06787 33/// /2801 11057 21081 38874 48325 52001 333 91104 91202;
0137067870999992010010910004+46617+009433FM-12+098999999V0203501N000519999999N9999999N1-00531-00771999999ADDMA1999999088721MD1810011+9999ME1313249OA149900101REMSYN076AAXX  09104 06787 33/// /3501 11053 21077 38872 48324 58001 333 91102 91201;
0137067870999992010010911004+46617+009433FM-12+098999999V0209999C000519999999N9999999N1-00501-00751999999ADDMA1999999088651MD1710111+9999ME1313189OA149900151REMSYN076AAXX  09114 06787 33/// /0001 11050 21075 38865 48318 57011 333 91103 91201;
0137067870999992010010912004+46617+009433FM-12+098999999V0203401N000519999999N9999999N1-00511-00781999999ADDMA1999999088581MD1710161+9999ME1313129OA149900211REMSYN076AAXX  09124 06787 33/// /3401 11051 21078 38858 48312 57016 333 91104 91202;
0137067870999992010010913004+46617+009433FM-12+098999999V0203401N001519999999N9999999N1-00491-00741999999ADDMA1999999088561MD1710161+9999ME1313109OA149900261REMSYN076AAXX  09134 06787 33/// /3403 11049 21074 38856 48310 57016 333 91105 91203;
0137067870999992010010914004+46617+009433FM-12+098999999V0203401N001519999999N9999999N1-00491-00721999999ADDMA1999999088581MD1510071+9999ME1313129OA149900311REMSYN076AAXX  09144 06787 33/// /3403 11049 21072 38858 48312 55007 333 91106 91203;
0137067870999992010010915004+46617+009433FM-12+098999999V0203401N001519999999N9999999N1-00511-00731999999ADDMA1999999088611MD1310031+9999ME1313149OA149900311REMSYN076AAXX  09154 06787 33/// /3403 11051 21073 38861 48314 53003 333 91106 91203;
0137067870999992010010916004+46617+009433FM-12+098999999V0203301N001519999999N9999999N1-00541-00761999999ADDMA1999999088651MD1110091+9999ME1313179OA149900311REMSYN076AAXX  09164 06787 33/// /3303 11054 21076 38865 48317 51009 333 91106 91203;
0137067870999992010010917004+46617+009433FM-12+098999999V0203101N000519999999N9999999N1-00561-00781999999ADDMA1999999088681MD1310101+9999ME1313209OA149900261REMSYN076AAXX  09174 06787 33/// /3101 11056 21078 38868 48320 53010 333 91105 91203;
0198067870999992010010918004+46617+009433FM-12+098999999V0200101N000519999999N9999999N1-00581-00761999999ADDAA112000091KA1120M-00481MA1999999088731MD1110121+9999ME1313249OA149900311REMSYN094AAXX  09184 06787 03/// /0101 11058 21076 38873 48324 51012 69912 333 11048 69915 91106 91203;EQDQ01  00002PRCP12
0137067870999992010010919004+46617+009433FM-12+098999999V0203501N000519999999N9999999N1-00581-00751999999ADDMA1999999088771MD1310121+9999ME1313279OA149900151REMSYN076AAXX  09194 06787 33/// /3501 11058 21075 38877 48327 53012 333 91103 91201;
0154067870999992010010920004+46617+009433FM-12+098999999V0202001N000519999999N9999999N1-00581-00751999999ADDAA101000021MA1999999088801MD1210121+9999ME1313309OA149900101REMSYN082AAXX  09204 06787 23/// /2001 11058 21075 38880 48330 52012 333 69915 91102 91201;
0137067870999992010010921004+46617+009433FM-12+098999999V0209999C000019999999N9999999N1-00651-00801999999ADDMA1999999088821MD1210091+9999ME1313319OA149900261REMSYN076AAXX  09214 06787 33/// /0000 11065 21080 38882 48331 52009 333 91105 91203;
0137067870999992010010922004+46617+009433FM-12+098999999V0201701N000519999999N9999999N1-00701-00851999999ADDMA1999999088861MD1210091+9999ME1313349OA149900101REMSYN076AAXX  09224 06787 33/// /1701 11070 21085 38886 48334 52009 333 91102 91201;
0137067870999992010010923004+46617+009433FM-12+098999999V0201001N000519999999N9999999N1-00671-00831999999ADDMA1999999088901MD1210101+9999ME1313389OA149900101REMSYN076AAXX  09234 06787 33/// /1001 11067 21083 38890 48338 52010 333 91102 91201;
0179067870999992010011000004+46617+009433FM-12+098999999V0209999C000019999999N9999999N1-00711-00841999999ADDAA106000091MA1999999088931MD1110111+9999ME1313409OA149900311REMSYN088AAXX  10004 06787 03/// /0000 11071 21084 38893 48340 51011 69921 333 69915 91106 91203;EQDQ01  00002PRCP06
0154067870999992010011001004+46617+009433FM-12+098999999V0209999C000019999999N9999999N1-00711-00841999999ADDAA101000021MA1999999088981MD1310121+9999ME1313449OA149900051REMSYN082AAXX  10014 06787 23/// /0000 11071 21084 38898 48344 53012 333 69915 91101 91200;
0117067870999992010011002004+46617+009433FM-12+098999999V0209999C000019999999N9999999N1-00711-00841999999ADDAA101000021MA1999999089001ME1313469REMSYN070AAXX  10024 06787 23/// /0000 11071 21084 38900 48346 5//// 333 69925;
0096067870999992010011003004+46617+009433FM-12+098999999V0209999C000019999999N9999999N1-00721-00861999999ADDMA1999999089011ME1313469REMSYN060AAXX  10034 06787 43/// /0000 11072 21086 38901 48346 5////;
0137067870999992010011004004+46617+009433FM-12+098999999V0209999C000019999999N9999999N1-00791-00931999999ADDMA1999999089061MD1210081+9999ME1313509OA149900101REMSYN076AAXX  10044 06787 33/// /0000 11079 21093 38906 48350 52008 333 91102 91201;
0137067870999992010011005004+46617+009433FM-12+098999999V0209999C000019999999N9999999N1-00781-00931999999ADDMA1999999089121MD1210121+9999ME1313559OA149900101REMSYN076AAXX  10054 06787 33/// /0000 11078 21093 38912 48355 52012 333 91102 91201;
0220067870999992010011006004+46617+009433FM-12+098999999V0200601N000519999999N9999999N1-00781-00941999999ADDAA112000591AA224000591AL13600091GJ100009KA1999N-00871MA1999999089181MD1310171+9999ME1313609OA149900101REMSYN106AAXX  10064 06787 03/// /0601 11078 21094 38918 48360 53017 69952 333 21087 55000 60005 70006 91102 91201;
0137067870999992010011007004+46617+009433FM-12+098999999V0201201N000519999999N9999999N1-00741-00891999999ADDMA1999999089251MD1110191+9999ME1313679OA149900101REMSYN076AAXX  10074 06787 33/// /1201 11074 21089 38925 48367 51019 333 91102 91201;
0137067870999992010011008004+46617+009433FM-12+098999999V0209999C000019999999N9999999N1-00751-00901999999ADDMA1999999089341MD1319999+9999ME1313759OA149900101REMSYN076AAXX  10084 06787 33/// /0000 11075 21090 38934 48375 53/// 333 91102 91201;
0137067870999992010011009004+46617+009433FM-12+098999999V0200301N000519999999N9999999N1-00661-00931999999ADDMA1999999089401MD1110221+9999ME1313819OA149900101REMSYN076AAXX  10094 06787 33/// /0301 11066 21093 38940 48381 51022 333 91102 91201;
0137067870999992010011010004+46617+009433FM-12+098999999V0200301N000519999999N9999999N1-00631-00951999999ADDMA1999999089441MD1110191+9999ME1313859OA149900151REMSYN076AAXX  10104 06787 33/// /0301 11063 21095 38944 48385 51019 333 91103 91202;
0137067870999992010011011004+46617+009433FM-12+098999999V0200101N000519999999N9999999N1-00591-00931999999ADDMA1999999089481MD1210141+9999ME1313899OA149900151REMSYN076AAXX  10114 06787 33/// /0101 11059 21093 38948 48389 52014 333 91103 91202;
0137067870999992010011012004+46617+009433FM-12+098999999V0209999C000019999999N9999999N1-00621-00911999999ADDMA1999999089471MD1210071+9999ME1313889OA149900151REMSYN076AAXX  10124 06787 33/// /0000 11062 21091 38947 48388 52007 333 91103 91202;
0137067870999992010011013004+46617+009433FM-12+098999999V0201601N000519999999N9999999N1-00571-00891999999ADDMA1999999089481MD1210041+9999ME1313899OA149900101REMSYN076AAXX  10134 06787 33/// /1601 11057 21089 38948 48389 52004 333 91102 91201;
0137067870999992010011014004+46617+009433FM-12+098999999V0200101N001019999999N9999999N1-00531-00751999999ADDMA1999999089531MD1219999+9999ME1313949OA149900261REMSYN076AAXX  10144 06787 33/// /0102 11053 21075 38953 48394 52/// 333 91105 91203;
0137067870999992010011015004+46617+009433FM-12+098999999V0200101N001519999999N9999999N1-00551-00741999999ADDMA1999999089591MD1310121+9999ME1313999OA149900261REMSYN076AAXX  10154 06787 33/// /0103 11055 21074 38959 48399 53012 333 91105 91203;
0137067870999992010011016004+46617+009433FM-12+098999999V0202401N001019999999N9999999N1-00561-00801999999ADDMA1999999089661MD1310181+9999ME1314059OA149900261REMSYN076AAXX  10164 06787 33/// /2402 11056 21080 38966 48405 53018 333 91105 91203;
0137067870999992010011017004+46617+009433FM-12+098999999V0202801N001519999999N9999999N1-00581-00911999999ADDMA1999999089751MD1310221+9999ME1314139OA149900211REMSYN076AAXX  10174 06787 33/// /2803 11058 21091 38975 48413 53022 333 91104 91203;
0156067870999992010011018004+46617+009433FM-12+098999999V0202801N000519999999N9999999N1-00591-00771999999ADDKA1120M-00501MA1999999089781MD1110191+9999ME1314159OA149900261REMSYN082AAXX  10184 06787 33/// /2801 11059 21077 38978 48415 51019 333 11050 91105 91203;
0137067870999992010011019004+46617+009433FM-12+098999999V0200401N000519999999N9999999N1-00581-00771999999ADDMA1999999089811MD1210151+9999ME1314189OA149900261REMSYN076AAXX  10194 06787 33/// /0401 11058 21077 38981 48418 52015 333 91105 91203;
0137067870999992010011020004+46617+009433FM-12+098999999V0201601N000519999999N9999999N1-00631-00771999999ADDMA1999999089831MD1210081+9999ME1314199OA149900151REMSYN076AAXX  10204 06787 33/// /1601 11063 21077 38983 48419 52008 333 91103 91203;
0137067870999992010011021004+46617+009433FM-12+098999999V0209999C000019999999N9999999N1-00681-00821999999ADDMA1999999089841MD1210061+9999ME1314199OA149900261REMSYN076AAXX  10214 06787 33/// /0000 11068 21082 38984 48419 52006 333 91105 91203;
0137067870999992010011022004+46617+009433FM-12+098999999V0200601N000519999999N9999999N1-00801-00931999999ADDMA1999999089851MD1210041+9999ME1314189OA149900151REMSYN076AAXX  10224 06787 33/// /0601 11080 21093 38985 48418 52004 333 91103 91202;
0137067870999992010011023004+46617+009433FM-12+098999999V0209999C000019999999N9999999N1-00971-01071999999ADDMA1999999089861MD1210031+9999ME1314169OA149900151REMSYN076AAXX  10234 06787 33/// /0000 11097 21107 38986 48416 52003 333 91103 91202;
0156067870999992010011100004+46617+009433FM-12+098999999V0209999C000019999999N9999999N1-00941-01051999999ADDMA1999999089841MD1410001+9999ME1314149OA149900261REMSYN076AAXX  11004 06787 33/// /0000 11094 21105 38984 48414 58000 333 91105 91203;EQDQ01+000082APCTEN
0137067870999992010011101004+46617+009433FM-12+098999999V0200801N000519999999N9999999N1-01021-01111999999ADDMA1999999089851MD1410001+9999ME1314149OA149900101REMSYN076AAXX  11014 06787 33/// /0801 11102 21111 38985 48414 54000 333 91102 91201;
0137067870999992010011102004+46617+009433FM-12+098999999V0201101N000519999999N9999999N1-01101-01151999999ADDMA1999999089861MD1519999+9999ME1314149OA149900151REMSYN076AAXX  11024 06787 33/// /1101 11110 21115 38986 48414 55/// 333 91103 91201;
0137067870999992010011103004+46617+009433FM-12+098999999V0209999C000019999999N9999999N1-01301-01301999999ADDMA1999999089841MD1719999+9999ME1314099OA149900151REMSYN076AAXX  11034 06787 33/// /0000 11130 21130 38984 48409 57/// 333 91103 91202;
0137067870999992010011104004+46617+009433FM-12+098999999V0209999C000019999999N9999999N1-01361-01361999999ADDMA1999999089841MD1710011+9999ME1314089OA149900101REMSYN076AAXX  11044 06787 33/// /0000 11136 21136 38984 48408 57001 333 91102 91201;
0137067870999992010011105004+46617+009433FM-12+098999999V0200801N000519999999N9999999N1-01281-01321999999ADDMA1999999089831MD1510031+9999ME1314089OA149900101REMSYN076AAXX  11054 06787 33/// /0801 11128 21132 38983 48408 55003 333 91102 91201;
0216067870999992010011106004+46617+009433FM-12+098999999V0209999C000019999999N9999999N1-01421-01421999999ADDAA124000091AL19900091GJ100009KA1999N-01561MA1999999089821MD1710021+9999ME1314059OA149900151REMSYN094AAXX  11064 06787 33/// /0000 11142 21142 38982 48405 57002 333 21156 55000 70000 91103 91203;EQDQ01  00002PRCP24
0137067870999992010011107004+46617+009433FM-12+098999999V0209999C000019999999N9999999N1-01271-01291999999ADDMA1999999089851MD1310011+9999ME1314109OA149900101REMSYN076AAXX  11074 06787 33/// /0000 11127 21129 38985 48410 53001 333 91102 91201;
0137067870999992010011108004+46617+009433FM-12+098999999V0200101N000519999999N9999999N1-01281-01281999999ADDMA1999999089841MD1219999+9999ME1314099OA149900101REMSYN076AAXX  11084 06787 33/// /0101 11128 21128 38984 48409 52/// 333 91102 91201;
0137067870999992010011109004+46617+009433FM-12+098999999V0209999C000019999999N9999999N1-01281-01291999999ADDMA1999999089861MD1210041+9999ME1314119OA149900101REMSYN076AAXX  11094 06787 33/// /0000 11128 21129 38986 48411 52004 333 91102 91201;
0137067870999992010011110004+46617+009433FM-12+098999999V0209999C000019999999N9999999N1-01081-01171999999ADDMA1999999089831MD1719999+9999ME1314119OA149900101REMSYN076AAXX  11104 06787 33/// /0000 11108 21117 38983 48411 57/// 333 91102 91201;
0137067870999992010011111004+46617+009433FM-12+098999999V0202101N000519999999N9999999N1-00861-00991999999ADDMA1999999089781MD1810061+9999ME1314119OA149900101REMSYN076AAXX  11114 06787 33/// /2101 11086 21099 38978 48411 58006 333 91102 91201;
0137067870999992010011112004+46617+009433FM-12+098999999V0202201N001019999999N9999999N1-00591-00831999999ADDMA1999999089721MD1810141+9999ME1314109OA149900261REMSYN076AAXX  11124 06787 33/// /2202 11059 21083 38972 48410 58014 333 91105 91203;
0137067870999992010011113004+46617+009433FM-12+098999999V0209999C000019999999N9999999N1-00461-00741999999ADDMA1999999089631MD1710201+9999ME1314049OA149900261REMSYN076AAXX  11134 06787 33/// /0000 11046 21074 38963 48404 57020 333 91105 91203;
0096067870999992010011114004+46617+009433FM-12+098999999V0201101N000519999999N9999999N1-00451-00741999999ADDMA1999999089651ME1314069REMSYN060AAXX  11144 06787 33/// /1101 11045 21074 38965 48406 5////;
0137067870999992010011115004+46617+009433FM-12+098999999V0200201N001019999999N9999999N1-00421-00681999999ADDMA1999999089701MD1510021+9999ME1314119OA149900261REMSYN076AAXX  11154 06787 33/// /0202 11042 21068 38970 48411 55002 333 91105 91203;
0137067870999992010011116004+46617+009433FM-12+098999999V0201701N000519999999N9999999N1-00531-00721999999ADDMA1999999089781MD1210151+9999ME1314169OA149900361REMSYN076AAXX  11164 06787 33/// /1701 11053 21072 38978 48416 52015 333 91107 91204;
0137067870999992010011117004+46617+009433FM-12+098999999V0203201N000519999999N9999999N1-00831-00881999999ADDMA1999999089851MD1310201+9999ME1314179OA149900361REMSYN076AAXX  11174 06787 33/// /3201 11083 21088 38985 48417 53020 333 91107 91204;
0156067870999992010011118004+46617+009433FM-12+098999999V0209999C000019999999N9999999N1-00861-00921999999ADDKA1120M-00411MA1999999089941MD1310241+9999ME1314249OA149900361REMSYN082AAXX  11184 06787 33/// /0000 11086 21092 38994 48424 53024 333 11041 91107 91204;
0137067870999992010011119004+46617+009433FM-12+098999999V0209999C000019999999N9999999N1-00781-00831999999ADDMA1999999090001MD1210221+9999ME1314319OA149900101REMSYN076AAXX  11194 06787 33/// /0000 11078 21083 39000 48431 52022 333 91102 91201;
0137067870999992010011120004+46617+009433FM-12+098999999V0201201N000519999999N9999999N1-00851-00881999999ADDMA1999999090011MD1210161+9999ME1314309OA149900151REMSYN076AAXX  11204 06787 33/// /1201 11085 21088 39001 48430 52016 333 91103 91201;
0137067870999992010011121004+46617+009433FM-12+098999999V0200601N000519999999N9999999N1-00801-00861999999ADDMA1999999090001MD1210061+9999ME1314309OA149900361REMSYN076AAXX  11214 06787 33/// /0601 11080 21086 39000 48430 52006 333 91107 91204;
0137067870999992010011122004+46617+009433FM-12+098999999V0203301N000519999999N9999999N1-00801-00861999999ADDMA1999999090011MD1210011+9999ME1314319OA149900151REMSYN076AAXX  11224 06787 33/// /3301 11080 21086 39001 48431 52001 333 91103 91201;
0137067870999992010011123004+46617+009433FM-12+098999999V0203301N000519999999N9999999N1-00821-00861999999ADDMA1999999089981MD1710031+9999ME1314289OA149900151REMSYN076AAXX  11234 06787 33/// /3301 11082 21086 38998 48428 57003 333 91103 91201;
0137067870999992010011200004+46617+009433FM-12+098999999V0209999C000019999999N9999999N1-00741-00821999999ADDMA1999999089981MD1710021+9999ME1314309OA149900361REMSYN076AAXX  12004 06787 33/// /0000 11074 21082 38998 48430 57002 333 91107 91204;
0137067870999992010011201004+46617+009433FM-12+098999999V0201301N000519999999N9999999N1-00771-00821999999ADDMA1999999089981MD1710031+9999ME1314299OA149900151REMSYN076AAXX  12014 06787 33/// /1301 11077 21082 38998 48429 57003 333 91103 91202;
0137067870999992010011202004+46617+009433FM-12+098999999V0209999C000019999999N9999999N1-00771-00811999999ADDMA1999999089991MD1519999+9999ME1314309OA149900151REMSYN076AAXX  12024 06787 33/// /0000 11077 21081 38999 48430 55/// 333 91103 91201;
0137067870999992010011203004+46617+009433FM-12+098999999V0200601N001019999999N9999999N1-00731-00821999999ADDMA1999999090001MD1210021+9999ME1314329OA149900151REMSYN076AAXX  12034 06787 33/// /0602 11073 21082 39000 48432 52002 333 91103 91202;
0156067870999992010011204004+46617+009433FM-12+098999999V0200501N000519999999N9999999N1-00731-00771999999ADDMA1999999089981MD1410001+9999ME1314309OA149900151REMSYN076AAXX  12044 06787 33/// /0501 11073 21077 38998 48430 57000 333 91103 91202;EQDQ01+000072APCTEN
0137067870999992010011205004+46617+009433FM-12+098999999V0209999C000019999999N9999999N1-00891-00911999999ADDMA1999999089991MD1010001+9999ME1314289OA149900151REMSYN076AAXX  12054 06787 33/// /0000 11089 21091 38999 48428 50000 333 91103 91202;
0216067870999992010011206004+46617+009433FM-12+098999999V0200201N000519999999N9999999N1-00771-00851999999ADDAA124000091AL19900091GJ100009KA1999N-00961MA1999999089971MD1710031+9999ME1314289OA149900151REMSYN094AAXX  12064 06787 33/// /0201 11077 21085 38997 48428 57003 333 21096 55000 70000 91103 91202;EQDQ01  00002PRCP24
0137067870999992010011207004+46617+009433FM-12+098999999V0209999C000019999999N9999999N1-00801-00861999999ADDMA1999999089961MD1810021+9999ME1314279OA149900151REMSYN076AAXX  12074 06787 33/// /0000 11080 21086 38996 48427 58002 333 91103 91202;
0137067870999992010011208004+46617+009433FM-12+098999999V0203301N000519999999N9999999N1-00781-00811999999ADDMA1999999089931MD1719999+9999ME1314259OA149900211REMSYN076AAXX  12084 06787 33/// /3301 11078 21081 38993 48425 57/// 333 91104 91202;
0137067870999992010011209004+46617+009433FM-12+098999999V0209999C000019999999N9999999N1-00681-00781999999ADDMA1999999089891MD1810081+9999ME1314239OA149900211REMSYN076AAXX  12094 06787 33/// /0000 11068 21078 38989 48423 58008 333 91104 91202;
0137067870999992010011210004+46617+009433FM-12+098999999V0200601N000519999999N9999999N1-00601-00741999999ADDMA1999999089831MD1810131+9999ME1314199OA149900211REMSYN076AAXX  12104 06787 33/// /0601 11060 21074 38983 48419 58013 333 91104 91202;
0137067870999992010011211004+46617+009433FM-12+098999999V0201401N000519999999N9999999N1-00441-00641999999ADDMA1999999089731MD1810201+9999ME1314139OA149900211REMSYN076AAXX  12114 06787 33/// /1401 11044 21064 38973 48413 58020 333 91104 91202;
0137067870999992010011212004+46617+009433FM-12+098999999V0201501N004619999999N9999999N1+00201-00581999999ADDMA1999999089611MD1810281+9999ME1314139OA149900881REMSYN076AAXX  12124 06787 33/// /1509 10020 21058 38961 48413 58028 333 91117 91209;
0137067870999992010011213004+46617+009433FM-12+098999999V0201501N005719999999N9999999N1+00251-00581999999ADDMA1999999089591MD1710241+9999ME1314129OA149901181REMSYN076AAXX  12134 06787 33/// /1511 10025 21058 38959 48412 57024 333 91123 91211;
0096067870999992010011214004+46617+009433FM-12+098999999V0201701N005719999999N9999999N1+00221-00731999999ADDMA1999999089591ME1314119REMSYN060AAXX  12144 06787 33/// /1711 10022 21073 38959 48411 5////;
0137067870999992010011215004+46617+009433FM-12+098999999V0201601N004119999999N9999999N1+00101-00731999999ADDMA1999999089581MD1510031+9999ME1314099OA149901181REMSYN076AAXX  12154 06787 33/// /1608 10010 21073 38958 48409 55003 333 91123 91213;
0137067870999992010011216004+46617+009433FM-12+098999999V0201601N003119999999N9999999N1+00011-00741999999ADDMA1999999089551MD1810041+9999ME1314059OA149901081REMSYN076AAXX  12164 06787 33/// /1606 10001 21074 38955 48405 58004 333 91121 91212;
0137067870999992010011217004+46617+009433FM-12+098999999V0201301N006219999999N9999999N1+00051-00741999999ADDMA1999999089521MD1710071+9999ME1314039OA149901081REMSYN076AAXX  12174 06787 33/// /1312 10005 21074 38952 48403 57007 333 91121 91212;
0156067870999992010011218004+46617+009433FM-12+098999999V0201501N005719999999N9999999N1+00081-00761999999ADDKA1120M+00271MA1999999089531MD1710051+9999ME1314049OA149901241REMSYN082AAXX  12184 06787 33/// /1511 10008 21076 38953 48404 57005 333 10027 91124 91213;
0156067870999992010011219004+46617+009433FM-12+098999999V0201401N005119999999N9999999N1+00041-00751999999ADDMA1999999089551MD1410001+9999ME1314059OA149901291REMSYN076AAXX  12194 06787 33/// /1410 10004 21075 38955 48405 53000 333 91125 91213;EQDQ01+000032APCTEN
0137067870999992010011220004+46617+009433FM-12+098999999V0201601N004619999999N9999999N1+00021-00801999999ADDMA1999999089561MD1210041+9999ME1314069OA149901291REMSYN076AAXX  12204 06787 33/// /1609 10002 21080 38956 48406 52004 333 91125 91212;
0137067870999992010011221004+46617+009433FM-12+098999999V0201501N002619999999N9999999N1-00071-00771999999ADDMA1999999089531MD1010001+9999ME1314029OA149901291REMSYN076AAXX  12214 06787 33/// /1505 11007 21077 38953 48402 50000 333 91125 91213;
0137067870999992010011222004+46617+009433FM-12+098999999V0201801N003119999999N9999999N1-00101-00731999999ADDMA1999999089491MD1810061+9999ME1313989OA149901031REMSYN076AAXX  12224 06787 33/// /1806 11010 21073 38949 48398 58006 333 91120 91210;
0137067870999992010011223004+46617+009433FM-12+098999999V0201601N003619999999N9999999N1+00061-00831999999ADDMA1999999089421MD1710141+9999ME1313949OA149900721REMSYN076AAXX  12234 06787 33/// /1607 10006 21083 38942 48394 57014 333 91114 91207;
0137067870999992010011300004+46617+009433FM-12+098999999V0201701N002119999999N9999999N1-00071-00681999999ADDMA1999999089371MD1810161+9999ME1313879OA149901291REMSYN076AAXX  13004 06787 33/// /1704 11007 21068 38937 48387 58016 333 91125 91213;
0137067870999992010011301004+46617+009433FM-12+098999999V0201601N001519999999N9999999N1+00001-00691999999ADDMA1999999089381MD1710111+9999ME1313899OA149900671REMSYN076AAXX  13014 06787 33/// /1603 10000 21069 38938 48389 57011 333 91113 91207;
0137067870999992010011302004+46617+009433FM-12+098999999V0201701N001019999999N9999999N1-00071-00621999999ADDMA1999999089371MD1719999+9999ME1313879OA149900461REMSYN076AAXX  13024 06787 33/// /1702 11007 21062 38937 48387 57/// 333 91109 91205;
0137067870999992010011303004+46617+009433FM-12+098999999V0203601N002119999999N9999999N1-00221-00601999999ADDMA1999999089321MD1819999+9999ME1313819OA149900721REMSYN076AAXX  13034 06787 33/// /3604 11022 21060 38932 48381 58/// 333 91114 91207;
0137067870999992010011304004+46617+009433FM-12+098999999V0200101N000519999999N9999999N1-00381-00611999999ADDMA1999999089251MD1810131+9999ME1313729OA149900361REMSYN076AAXX  13044 06787 33/// /0101 11038 21061 38925 48372 58013 333 91107 91204;
0137067870999992010011305004+46617+009433FM-12+098999999V0201601N003119999999N9999999N1+00031-00671999999ADDMA1999999089231MD1710141+9999ME1313769OA149900721REMSYN076AAXX  13054 06787 33/// /1606 10003 21067 38923 48376 57014 333 91114 91206;
0216067870999992010011306004+46617+009433FM-12+098999999V0202201N001019999999N9999999N1-00011-00801999999ADDAA124000091AL19900091GJ102349KA1999N-00381MA1999999089211MD1710111+9999ME1313749OA149901291REMSYN094AAXX  13064 06787 33/// /2202 11001 21080 38921 48374 57011 333 21038 55039 70000 91125 91212;EQDQ01  00002PRCP24
0137067870999992010011307004+46617+009433FM-12+098999999V0203401N001019999999N9999999N1-00301-00711999999ADDMA1999999089251MD1510001+9999ME1313739OA149900771REMSYN076AAXX  13074 06787 33/// /3402 11030 21071 38925 48373 55000 333 91115 91207;
0137067870999992010011308004+46617+009433FM-12+098999999V0200601N001019999999N9999999N1-00191-00621999999ADDMA1999999089291MD1210061+9999ME1313799OA149900571REMSYN076AAXX  13084 06787 33/// /0602 11019 21062 38929 48379 52006 333 91111 91204;
0137067870999992010011309004+46617+009433FM-12+098999999V0201001N001019999999N9999999N1-00201-00601999999ADDMA1999999089341MD1210131+9999ME1313839OA149900771REMSYN076AAXX  13094 06787 33/// /1002 11020 21060 38934 48383 52013 333 91115 91207;
0137067870999992010011310004+46617+009433FM-12+098999999V0200701N001519999999N9999999N1+00081-00661999999ADDMA1999999089351MD1210101+9999ME1313889OA149900311REMSYN076AAXX  13104 06787 33/// /0703 10008 21066 38935 48388 52010 333 91106 91203;
0137067870999992010011311004+46617+009433FM-12+098999999V0200301N002119999999N9999999N1+00121-00581999999ADDMA1999999089331MD1010041+9999ME1313879OA149900411REMSYN076AAXX  13114 06787 33/// /0304 10012 21058 38933 48387 50004 333 91108 91204;
0137067870999992010011312004+46617+009433FM-12+098999999V0201201N000519999999N9999999N1+00141-00561999999ADDMA1999999089281MD1710061+9999ME1313839OA149900771REMSYN076AAXX  13124 06787 33/// /1201 10014 21056 38928 48383 57006 333 91115 91207;
0137067870999992010011313004+46617+009433FM-12+098999999V0201701N003619999999N9999999N1+00371-00731999999ADDMA1999999089251MD1710101+9999ME1313839OA149900671REMSYN076AAXX  13134 06787 33/// /1707 10037 21073 38925 48383 57010 333 91113 91207;
0137067870999992010011314004+46617+009433FM-12+098999999V0201801N003119999999N9999999N1+00341-00741999999ADDMA1999999089281MD1519999+9999ME1313869OA149900821REMSYN076AAXX  13144 06787 33/// /1806 10034 21074 38928 48386 55/// 333 91116 91207;
0137067870999992010011315004+46617+009433FM-12+098999999V0201601N002119999999N9999999N1+00281-00691999999ADDMA1999999089301MD1310021+9999ME1313869OA149900821REMSYN076AAXX  13154 06787 33/// /1604 10028 21069 38930 48386 53002 333 91116 91207;
0137067870999992010011316004+46617+009433FM-12+098999999V0200901N000519999999N9999999N1+00121-00551999999ADDMA1999999089331MD1310081+9999ME1313879OA149900511REMSYN076AAXX  13164 06787 33/// /0901 10012 21055 38933 48387 53008 333 91110 91205;
0137067870999992010011317004+46617+009433FM-12+098999999V0200401N000519999999N9999999N1+00021-00411999999ADDMA1999999089381MD1310101+9999ME1313909OA149900361REMSYN076AAXX  13174 06787 33/// /0401 10002 21041 38938 48390 53010 333 91107 91204;
0156067870999992010011318004+46617+009433FM-12+098999999V0209999C000019999999N9999999N1-00051-00411999999ADDKA1120M+00371MA1999999089441MD1310141+9999ME1313949OA149900821REMSYN082AAXX  13184 06787 33/// /0000 11005 21041 38944 48394 53014 333 10037 91116 91207;
0137067870999992010011319004+46617+009433FM-12+098999999V0209999C000019999999N9999999N1-00021-00411999999ADDMA1999999089481MD1110151+9999ME1313989OA149900101REMSYN076AAXX  13194 06787 33/// /0000 11002 21041 38948 48398 51015 333 91102 91201;
0096067870999992010011400004+46617+009433FM-12+098999999V0201801N000519999999N9999999N1-00171-00441999999ADDMA1999999089451ME1313939REMSYN060AAXX  14004 06787 43/// /1801 11017 21044 38945 48393 5////;
0137067870999992010011401004+46617+009433FM-12+098999999V0201701N000519999999N9999999N1-00241-00491999999ADDMA1999999089431MD1819999+9999ME1313909OA149900101REMSYN076AAXX  14014 06787 33/// /1701 11024 21049 38943 48390 58/// 333 91102 91201;
0137067870999992010011402004+46617+009433FM-12+098999999V0209999C000019999999N9999999N1-00361-00541999999ADDMA1999999089411MD1619999+9999ME1313879OA149900151REMSYN076AAXX  14024 06787 33/// /0000 11036 21054 38941 48387 56/// 333 91103 91202;
0096067870999992010011403004+46617+009433FM-12+098999999V0200601N000519999999N9999999N1-00451-00641999999ADDMA1999999089361ME1313819REMSYN060AAXX  14034 06787 33/// /0601 11045 21064 38936 48381 5////;
0137067870999992010011404004+46617+009433FM-12+098999999V0203501N000519999999N9999999N1-00461-00631999999ADDMA1999999089341MD1710091+9999ME1313799OA149900151REMSYN076AAXX  14044 06787 33/// /3501 11046 21063 38934 48379 57009 333 91103 91201;
0137067870999992010011405004+46617+009433FM-12+098999999V0200801N000519999999N9999999N1-00551-00751999999ADDMA1999999089351MD1710061+9999ME1313789OA149900211REMSYN076AAXX  14054 06787 33/// /0801 11055 21075 38935 48378 57006 333 91104 91202;
0216067870999992010011406004+46617+009433FM-12+098999999V0201901N000519999999N9999999N1-00611-00771999999ADDAA124000091AL19900091GJ100009KA1999N-00631MA1999999089351MD1510011+9999ME1313789OA149900261REMSYN094AAXX  14064 06787 33/// /1901 11061 21077 38935 48378 55001 333 21063 55000 70000 91105 91203;EQDQ01  00002PRCP24
0137067870999992010011407004+46617+009433FM-12+098999999V0200801N000519999999N9999999N1-00701-00831999999ADDMA1999999089351MD1010011+9999ME1313769OA149900261REMSYN076AAXX  14074 06787 33/// /0801 11070 21083 38935 48376 50001 333 91105 91203;
0137067870999992010011408004+46617+009433FM-12+098999999V0202901N000519999999N9999999N1-00631-00811999999ADDMA1999999089371MD1319999+9999ME1313799OA149900361REMSYN076AAXX  14084 06787 33/// /2901 11063 21081 38937 48379 53/// 333 91107 91202;
0137067870999992010011409004+46617+009433FM-12+098999999V0201001N000519999999N9999999N1-00581-00731999999ADDMA1999999089371MD1210021+9999ME1313809OA149900361REMSYN076AAXX  14094 06787 33/// /1001 11058 21073 38937 48380 52002 333 91107 91203;
0137067870999992010011410004+46617+009433FM-12+098999999V0201101N001019999999N9999999N1-00401-00731999999ADDMA1999999089361MD1010011+9999ME1313829OA149900311REMSYN076AAXX  14104 06787 33/// /1102 11040 21073 38936 48382 50001 333 91106 91202;
0137067870999992010011411004+46617+009433FM-12+098999999V0201501N003619999999N9999999N1+00311-00611999999ADDMA1999999089291MD1810081+9999ME1313869OA149900881REMSYN076AAXX  14114 06787 33/// /1507 10031 21061 38929 48386 58008 333 91117 91207;
0137067870999992010011412004+46617+009433FM-12+098999999V0202101N005119999999N9999999N1+00411-00581999999ADDMA1999999089261MD1810111+9999ME1313859OA149901031REMSYN076AAXX  14124 06787 33/// /2110 10041 21058 38926 48385 58011 333 91120 91210;
0137067870999992010011413004+46617+009433FM-12+098999999V0202001N004619999999N9999999N1+00401-00701999999ADDMA1999999089251MD1610111+9999ME1313849OA149901131REMSYN076AAXX  14134 06787 33/// /2009 10040 21070 38925 48384 56011 333 91122 91211;
0137067870999992010011414004+46617+009433FM-12+098999999V0201701N003619999999N9999999N1+00371-00671999999ADDMA1999999089251MD1710041+9999ME1313839OA149901131REMSYN076AAXX  14144 06787 33/// /1707 10037 21067 38925 48383 57004 333 91122 91212;
0137067870999992010011415004+46617+009433FM-12+098999999V0201501N004619999999N9999999N1+00381-00741999999ADDMA1999999089281MD1310021+9999ME1313869OA149901181REMSYN076AAXX  14154 06787 33/// /1509 10038 21074 38928 48386 53002 333 91123 91212;
0137067870999992010011416004+46617+009433FM-12+098999999V0201501N006219999999N9999999N1+00341-00701999999ADDMA1999999089321MD1210071+9999ME1313899OA149901181REMSYN076AAXX  14164 06787 33/// /1512 10034 21070 38932 48389 52007 333 91123 91212;
0137067870999992010011417004+46617+009433FM-12+098999999V0201601N003619999999N9999999N1+00171-00701999999ADDMA1999999089361MD1310111+9999ME1313909OA149901181REMSYN076AAXX  14174 06787 33/// /1607 10017 21070 38936 48390 53011 333 91123 91212;
0156067870999992010011418004+46617+009433FM-12+098999999V0201501N004119999999N9999999N1+00281-00731999999ADDKA1120M+00461MA1999999089391MD1110111+9999ME1313949OA149901181REMSYN082AAXX  14184 06787 33/// /1508 10028 21073 38939 48394 51011 333 10046 91123 91212;
0137067870999992010011419004+46617+009433FM-12+098999999V0201601N003619999999N9999999N1+00291-00751999999ADDMA1999999089431MD1310111+9999ME1313989OA149900881REMSYN076AAXX  14194 06787 33/// /1607 10029 21075 38943 48398 53011 333 91117 91209;
0137067870999992010011420004+46617+009433FM-12+098999999V0201701N004119999999N9999999N1+00251-00661999999ADDMA1999999089481MD1310121+9999ME1314029OA149900931REMSYN076AAXX  14204 06787 33/// /1708 10025 21066 38948 48402 53012 333 91118 91208;
0137067870999992010011421004+46617+009433FM-12+098999999V0201601N006219999999N9999999N1+00241-00731999999ADDMA1999999089551MD1310161+9999ME1314089OA149901181REMSYN076AAXX  14214 06787 33/// /1612 10024 21073 38955 48408 53016 333 91123 91213;
0137067870999992010011422004+46617+009433FM-12+098999999V0201901N004119999999N9999999N1+00231-00731999999ADDMA1999999089611MD1310181+9999ME1314139OA149901341REMSYN076AAXX  14224 06787 33/// /1908 10023 21073 38961 48413 53018 333 91126 91214;
0137067870999992010011423004+46617+009433FM-12+098999999V0201801N004119999999N9999999N1+00191-00731999999ADDMA1999999089671MD1110191+9999ME1314189OA149901341REMSYN076AAXX  14234 06787 33/// /1808 10019 21073 38967 48418 51019 333 91126 91214;
0137067870999992010011500004+46617+009433FM-12+098999999V0200301N001019999999N9999999N1-00011-00701999999ADDMA1999999089711MD1110161+9999ME1314189OA149901341REMSYN076AAXX  15004 06787 33/// /0302 11001 21070 38971 48418 51016 333 91126 91214;
0137067870999992010011501004+46617+009433FM-12+098999999V0209999C000019999999N9999999N1-00521-00891999999ADDMA1999999089731MD1110121+9999ME1314129OA149900671REMSYN076AAXX  15014 06787 33/// /0000 11052 21089 38973 48412 51012 333 91113 91205;
0137067870999992010011502004+46617+009433FM-12+098999999V0209999C000019999999N9999999N1-00361-00791999999ADDMA1999999089791MD1310121+9999ME1314209OA149900211REMSYN076AAXX  15024 06787 33/// /0000 11036 21079 38979 48420 53012 333 91104 91202;
0096067870999992010011503004+46617+009433FM-12+098999999V0201501N000519999999N9999999N1-00421-00891999999ADDMA1999999089861ME1314259REMSYN060AAXX  15034 06787 33/// /1501 11042 21089 38986 48425 5////;
0137067870999992010011504004+46617+009433FM-12+098999999V0201301N000519999999N9999999N1-00441-00911999999ADDMA1999999089941MD1210211+9999ME1314319OA149900151REMSYN076AAXX  15044 06787 33/// /1301 11044 21091 38994 48431 52021 333 91103 91202;
0137067870999992010011505004+46617+009433FM-12+098999999V0209999C000019999999N9999999N1-00571-00821999999ADDMA1999999090021MD1210231+9999ME1314369OA149900151REMSYN076AAXX  15054 06787 33/// /0000 11057 21082 39002 48436 52023 333 91103 91202;
0216067870999992010011506004+46617+009433FM-12+098999999V0209999C000019999999N9999999N1-00711-00901999999ADDAA124000091AL19900091GJ102169KA1999N-00691MA1999999090141MD1310281+9999ME1314449OA149901341REMSYN094AAXX  15064 06787 33/// /0000 11071 21090 39014 48444 53028 333 21069 55036 70000 91126 91214;EQDQ01  00002PRCP24
0137067870999992010011507004+46617+009433FM-12+098999999V0209999C000019999999N9999999N1-00531-00931999999ADDMA1999999090261MD1310321+9999ME1314579OA149900101REMSYN076AAXX  15074 06787 33/// /0000 11053 21093 39026 48457 53032 333 91102 91201;
0137067870999992010011508004+46617+009433FM-12+098999999V0201301N000519999999N9999999N1-00621-00991999999ADDMA1999999090351MD1119999+9999ME1314649OA149900101REMSYN076AAXX  15084 06787 33/// /1301 11062 21099 39035 48464 51/// 333 91102 91201;
0137067870999992010011509004+46617+009433FM-12+098999999V0201201N000519999999N9999999N1-00701-00951999999ADDMA1999999090421MD1110281+9999ME1314689OA149900151REMSYN076AAXX  15094 06787 33/// /1201 11070 21095 39042 48468 51028 333 91103 91202;
0137067870999992010011510004+46617+009433FM-12+098999999V0209999C000019999999N9999999N1-00591-00961999999ADDMA1999999090461MD1210201+9999ME1314749OA149900151REMSYN076AAXX  15104 06787 33/// /0000 11059 21096 39046 48474 52020 333 91103 91201;
0137067870999992010011511004+46617+009433FM-12+098999999V0201801N000519999999N9999999N1-00311-00861999999ADDMA1999999090441MD1010091+9999ME1314779OA149900101REMSYN076AAXX  15114 06787 33/// /1801 11031 21086 39044 48477 50009 333 91102 91201;
0137067870999992010011512004+46617+009433FM-12+098999999V0202801N000519999999N9999999N1-00151-00861999999ADDMA1999999090451MD1210031+9999ME1314819OA149900211REMSYN076AAXX  15124 06787 33/// /2801 11015 21086 39045 48481 52003 333 91104 91202;
0137067870999992010011513004+46617+009433FM-12+098999999V0201701N000519999999N9999999N1-00021-00851999999ADDMA1999999090431MD1710031+9999ME1314829OA149900151REMSYN076AAXX  15134 06787 33/// /1701 11002 21085 39043 48482 57003 333 91103 91201;
0137067870999992010011514004+46617+009433FM-12+098999999V0201601N000519999999N9999999N1-00011-00791999999ADDMA1999999090501MD1310061+9999ME1314889OA149900151REMSYN076AAXX  15144 06787 33/// /1601 11001 21079 39050 48488 53006 333 91103 91202;
0137067870999992010011515004+46617+009433FM-12+098999999V0203001N000519999999N9999999N1-00221-00751999999ADDMA1999999090601MD1210151+9999ME1314939OA149900151REMSYN076AAXX  15154 06787 33/// /3001 11022 21075 39060 48493 52015 333 91103 91202;
0137067870999992010011516004+46617+009433FM-12+098999999V0201801N000519999999N9999999N1-00321-00741999999ADDMA1999999090691MD1310261+9999ME1314989OA149900151REMSYN076AAXX  15164 06787 33/// /1801 11032 21074 39069 48498 53026 333 91103 91202;
0137067870999992010011517004+46617+009433FM-12+098999999V0201801N001019999999N9999999N1-00341-00731999999ADDMA1999999090781MD1310281+9999ME1315069OA149900151REMSYN076AAXX  15174 06787 33/// /1802 11034 21073 39078 48506 53028 333 91103 91202;
0156067870999992010011518004+46617+009433FM-12+098999999V0201401N000519999999N9999999N1-00371-00751999999ADDKA1120M+00061MA1999999090851MD1210251+9999ME1315119OA149900151REMSYN082AAXX  15184 06787 33/// /1401 11037 21075 39085 48511 52025 333 10006 91103 91202;
0137067870999992010011519004+46617+009433FM-12+098999999V0209999C000019999999N9999999N1-00491-00771999999ADDMA1999999090891MD1110201+9999ME1315129OA149900211REMSYN076AAXX  15194 06787 33/// /0000 11049 21077 39089 48512 51020 333 91104 91202;
0137067870999992010011520004+46617+009433FM-12+098999999V0201801N000519999999N9999999N1-00471-00791999999ADDMA1999999090891MD1210111+9999ME1315139OA149900211REMSYN076AAXX  15204 06787 33/// /1801 11047 21079 39089 48513 52011 333 91104 91202;
0137067870999992010011521004+46617+009433FM-12+098999999V0200901N000519999999N9999999N1-00511-00861999999ADDMA1999999090901MD1210051+9999ME1315139OA149900211REMSYN076AAXX  15214 06787 33/// /0901 11051 21086 39090 48513 52005 333 91104 91202;
0137067870999992010011522004+46617+009433FM-12+098999999V0209999C000019999999N9999999N1-00651-00881999999ADDMA1999999090911MD1310021+9999ME1315119OA149900151REMSYN076AAXX  15224 06787 33/// /0000 11065 21088 39091 48511 53002 333 91103 91201;
0137067870999992010011523004+46617+009433FM-12+098999999V0201201N000519999999N9999999N1-00731-00961999999ADDMA1999999090951MD1210061+9999ME1315129OA149900151REMSYN076AAXX  15234 06787 33/// /1201 11073 21096 39095 48512 52006 333 91103 91202;
0137067870999992010011600004+46617+009433FM-12+098999999V0200301N000519999999N9999999N1-00571-00931999999ADDMA1999999090931MD1010031+9999ME1315149OA149900211REMSYN076AAXX  16004 06787 33/// /0301 11057 21093 39093 48514 50003 333 91104 91202;
0137067870999992010011601004+46617+009433FM-12+098999999V0201401N001019999999N9999999N1-00691-00991999999ADDMA1999999090921MD1010011+9999ME1315119OA149900151REMSYN076AAXX  16014 06787 33/// /1402 11069 21099 39092 48511 50001 333 91103 91202;
0137067870999992010011602004+46617+009433FM-12+098999999V0209999C000019999999N9999999N1-00741-01051999999ADDMA1999999090911MD1710041+9999ME1315099OA149900211REMSYN076AAXX  16024 06787 33/// /0000 11074 21105 39091 48509 57004 333 91104 91202;
0137067870999992010011603004+46617+009433FM-12+098999999V0209999C000019999999N9999999N1-00961-01161999999ADDMA1999999090871MD1719999+9999ME1315019OA149900211REMSYN076AAXX  16034 06787 33/// /0000 11096 21116 39087 48501 57/// 333 91104 91202;
0137067870999992010011604004+46617+009433FM-12+098999999V0209999C000019999999N9999999N1-00771-01101999999ADDMA1999999090851MD1710071+9999ME1315039OA149900151REMSYN076AAXX  16044 06787 33/// /0000 11077 21110 39085 48503 57007 333 91103 91202;
0137067870999992010011605004+46617+009433FM-12+098999999V0201101N000519999999N9999999N1-00801-01161999999ADDMA1999999090851MD1710061+9999ME1315039OA149900151REMSYN076AAXX  16054 06787 33/// /1101 11080 21116 39085 48503 57006 333 91103 91202;
0216067870999992010011606004+46617+009433FM-12+098999999V0200701N000519999999N9999999N1-00751-01151999999ADDAA124000091AL19900091GJ101689KA1999N-01071MA1999999090821MD1710051+9999ME1315019OA149900211REMSYN094AAXX  16064 06787 33/// /0701 11075 21115 39082 48501 57005 333 21107 55028 70000 91104 91202;EQDQ01  00002PRCP24
0137067870999992010011607004+46617+009433FM-12+098999999V0202101N000519999999N9999999N1-00841-01211999999ADDMA1999999090821MD1710031+9999ME1314999OA149900211REMSYN076AAXX  16074 06787 33/// /2101 11084 21121 39082 48499 57003 333 91104 91202;
0137067870999992010011608004+46617+009433FM-12+098999999V0201301N001019999999N9999999N1-00861-01281999999ADDMA1999999090791MD1710061+9999ME1314969OA149900211REMSYN076AAXX  16084 06787 33/// /1302 11086 21128 39079 48496 57006 333 91104 91202;
0137067870999992010011609004+46617+009433FM-12+098999999V0200801N000519999999N9999999N1-00741-01131999999ADDMA1999999090771MD1710051+9999ME1314979OA149900211REMSYN076AAXX  16094 06787 33/// /0801 11074 21113 39077 48497 57005 333 91104 91202;
0137067870999992010011610004+46617+009433FM-12+098999999V0200901N000519999999N9999999N1-00561-01231999999ADDMA1999999090691MD1710131+9999ME1314949OA149900151REMSYN076AAXX  16104 06787 33/// /0901 11056 21123 39069 48494 57013 333 91103 91201;
0137067870999992010011611004+46617+009433FM-12+098999999V0201101N001019999999N9999999N1-00341-01091999999ADDMA1999999090581MD1810211+9999ME1314899OA149900211REMSYN076AAXX  16114 06787 33/// /1102 11034 21109 39058 48489 58021 333 91104 91202;
0137067870999992010011612004+46617+009433FM-12+098999999V0200301N000519999999N9999999N1+00021-01091999999ADDMA1999999090491MD1810281+9999ME1314889OA149900211REMSYN076AAXX  16124 06787 33/// /0301 10002 21109 39049 48488 58028 333 91104 91202;
0137067870999992010011613004+46617+009433FM-12+098999999V0201701N006219999999N9999999N1+00691-01251999999ADDMA1999999090391MD1710301+9999ME1314919OA149901131REMSYN076AAXX  16134 06787 33/// /1712 10069 21125 39039 48491 57030 333 91122 91212;
0137067870999992010011614004+46617+009433FM-12+098999999V0201601N005719999999N9999999N1+00681-01271999999ADDMA1999999090371MD1719999+9999ME1314899OA149901131REMSYN076AAXX  16144 06787 33/// /1611 10068 21127 39037 48489 57/// 333 91122 91213;
0137067870999992010011615004+46617+009433FM-12+098999999V0201601N005119999999N9999999N1+00631-01201999999ADDMA1999999090341MD1710151+9999ME1314869OA149901131REMSYN076AAXX  16154 06787 33/// /1610 10063 21120 39034 48486 57015 333 91122 91213;
0137067870999992010011616004+46617+009433FM-12+098999999V0201601N006219999999N9999999N1+00611-01141999999ADDMA1999999090331MD1710061+9999ME1314849OA149901391REMSYN076AAXX  16164 06787 33/// /1612 10061 21114 39033 48484 57006 333 91127 91214;
0137067870999992010011617004+46617+009433FM-12+098999999V0201701N004619999999N9999999N1+00631-01141999999ADDMA1999999090321MD1710051+9999ME1314849OA149901391REMSYN076AAXX  16174 06787 33/// /1709 10063 21114 39032 48484 57005 333 91127 91214;
0156067870999992010011618004+46617+009433FM-12+098999999V0201701N005119999999N9999999N1+00641-01141999999ADDKA1120M+00701MA1999999090331MD1010011+9999ME1314859OA149901391REMSYN082AAXX  16184 06787 33/// /1710 10064 21114 39033 48485 50001 333 10070 91127 91214;
0137067870999992010011619004+46617+009433FM-12+098999999V0201701N007219999999N9999999N1+00601-01021999999ADDMA1999999090301MD1710031+9999ME1314819OA149901391REMSYN076AAXX  16194 06787 33/// /1714 10060 21102 39030 48481 57003 333 91127 91215;
0137067870999992010011620004+46617+009433FM-12+098999999V0201601N004619999999N9999999N1+00651-01131999999ADDMA1999999090271MD1810051+9999ME1314809OA149901391REMSYN076AAXX  16204 06787 33/// /1609 10065 21113 39027 48480 58005 333 91127 91215;
0137067870999992010011621004+46617+009433FM-12+098999999V0201901N004619999999N9999999N1+00621-01021999999ADDMA1999999090241MD1710091+9999ME1314769OA149901391REMSYN076AAXX  16214 06787 33/// /1909 10062 21102 39024 48476 57009 333 91127 91215;
0137067870999992010011622004+46617+009433FM-12+098999999V0202001N002619999999N9999999N1+00591-00981999999ADDMA1999999090221MD1710081+9999ME1314749OA149901601REMSYN076AAXX  16224 06787 33/// /2005 10059 21098 39022 48474 57008 333 91131 91215;
0137067870999992010011623004+46617+009433FM-12+098999999V0201801N005719999999N9999999N1+00591-01141999999ADDMA1999999090211MD1710061+9999ME1314739OA149901601REMSYN076AAXX  16234 06787 33/// /1811 10059 21114 39021 48473 57006 333 91131 91215;
0137067870999992010011700004+46617+009433FM-12+098999999V0202101N006219999999N9999999N1+00571-01061999999ADDMA1999999090181MD1710061+9999ME1314709OA149901601REMSYN076AAXX  17004 06787 33/// /2112 10057 21106 39018 48470 57006 333 91131 91215;
0137067870999992010011701004+46617+009433FM-12+098999999V0202001N005719999999N9999999N1+00501-00881999999ADDMA1999999090301MD1310081+9999ME1314809OA149901291REMSYN076AAXX  17014 06787 33/// /2011 10050 21088 39030 48480 53008 333 91125 91213;
0137067870999992010011702004+46617+009433FM-12+098999999V0201801N006219999999N9999999N1+00301-00541999999ADDMA1999999090371MD1219999+9999ME1314829OA149901181REMSYN076AAXX  17024 06787 33/// /1812 10030 21054 39037 48482 52/// 333 91123 91212;
0096067870999992010011703004+46617+009433FM-12+098999999V0201701N004119999999N9999999N1+00231-00621999999ADDMA1999999090301ME1314759REMSYN060AAXX  17034 06787 43/// /1708 10023 21062 39030 48475 5////;
0137067870999992010011704004+46617+009433FM-12+098999999V0200101N001019999999N9999999N1-00211-00701999999ADDMA1999999090231MD1710071+9999ME1314619OA149900981REMSYN076AAXX  17044 06787 33/// /0102 11021 21070 39023 48461 57007 333 91119 91211;
0137067870999992010011705004+46617+009433FM-12+098999999V0200301N001519999999N9999999N1+00051-00631999999ADDMA1999999090251MD1719999+9999ME1314679OA149900571REMSYN076AAXX  17054 06787 33/// /0303 10005 21063 39025 48467 57/// 333 91111 91205;
0216067870999992010011706004+46617+009433FM-12+098999999V0203401N000519999999N9999999N1-00231-00671999999ADDAA124000091AL19900091GJ102109KA1999N-00211MA1999999090241MD1510061+9999ME1314619OA149901601REMSYN094AAXX  17064 06787 33/// /3401 11023 21067 39024 48461 55006 333 21021 55035 70000 91131 91215;EQDQ01  00002PRCP24
0137067870999992010011707004+46617+009433FM-12+098999999V0200801N001019999999N9999999N1-00201-00681999999ADDMA1999999090271MD1210041+9999ME1314649OA149900261REMSYN076AAXX  17074 06787 33/// /0802 11020 21068 39027 48464 52004 333 91105 91202;
0137067870999992010011708004+46617+009433FM-12+098999999V0201701N000519999999N9999999N1-00201-00691999999ADDMA1999999090301MD1319999+9999ME1314679OA149900261REMSYN076AAXX  17084 06787 33/// /1701 11020 21069 39030 48467 53/// 333 91105 91202;
0137067870999992010011709004+46617+009433FM-12+098999999V0202001N000519999999N9999999N1-00311-00711999999ADDMA1999999090361MD1210121+9999ME1314709OA149900571REMSYN076AAXX  17094 06787 33/// /2001 11031 21071 39036 48470 52012 333 91111 91205;
0137067870999992010011710004+46617+009433FM-12+098999999V0201001N000519999999N9999999N1-00141-00661999999ADDMA1999999090341MD1210071+9999ME1314719OA149900311REMSYN076AAXX  17104 06787 33/// /1001 11014 21066 39034 48471 52007 333 91106 91204;
0137067870999992010011711004+46617+009433FM-12+098999999V0203101N000519999999N9999999N1+00091-00581999999ADDMA1999999090321MD1010021+9999ME1314749OA149900311REMSYN076AAXX  17114 06787 33/// /3101 10009 21058 39032 48474 50002 333 91106 91203;
0137067870999992010011712004+46617+009433FM-12+098999999V0202501N000519999999N9999999N1+00281-00611999999ADDMA1999999090321MD1510041+9999ME1314779OA149901181REMSYN076AAXX  17124 06787 33/// /2501 10028 21061 39032 48477 55004 333 91123 91212;
0156067870999992010011713004+46617+009433FM-12+098999999V0209999C000019999999N9999999N1+00381-00621999999ADDMA1999999090341MD1410001+9999ME1314819OA149900211REMSYN076AAXX  17134 06787 33/// /0000 10038 21062 39034 48481 52000 333 91104 91203;EQDQ01+000022APCTEN
0137067870999992010011714004+46617+009433FM-12+098999999V0203501N002119999999N9999999N1+00371-00321999999ADDMA1999999090411MD1319999+9999ME1314879OA149900511REMSYN076AAXX  17144 06787 33/// /3504 10037 21032 39041 48487 53/// 333 91110 91204;
0137067870999992010011715004+46617+009433FM-12+098999999V0209999C000019999999N9999999N1+00251-00181999999ADDMA1999999090501MD1310181+9999ME1314939OA149900511REMSYN076AAXX  17154 06787 33/// /0000 10025 21018 39050 48493 53018 333 91110 91204;
0137067870999992010011716004+46617+009433FM-12+098999999V0200701N001019999999N9999999N1+00011-00271999999ADDMA1999999090581MD1210241+9999ME1314959OA149900511REMSYN076AAXX  17164 06787 33/// /0702 10001 21027 39058 48495 52024 333 91110 91204;
0137067870999992010011717004+46617+009433FM-12+098999999V0201001N001019999999N9999999N1+00011-00271999999ADDMA1999999090671MD1210261+9999ME1315039OA149900151REMSYN076AAXX  17174 06787 33/// /1002 10001 21027 39067 48503 52026 333 91103 91202;
0156067870999992010011718004+46617+009433FM-12+098999999V0200601N000519999999N9999999N1-00221-00401999999ADDKA1120M+00411MA1999999090741MD1210241+9999ME1315059OA149900511REMSYN082AAXX  17184 06787 33/// /0601 11022 21040 39074 48505 52024 333 10041 91110 91204;
0137067870999992010011719004+46617+009433FM-12+098999999V0209999C000019999999N9999999N1-00331-00501999999ADDMA1999999090821MD1210241+9999ME1315099OA149900261REMSYN076AAXX  17194 06787 33/// /0000 11033 21050 39082 48509 52024 333 91105 91202;
0137067870999992010011720004+46617+009433FM-12+098999999V0201401N000519999999N9999999N1-00231-00421999999ADDMA1999999090871MD1210201+9999ME1315169OA149900261REMSYN076AAXX  17204 06787 33/// /1401 11023 21042 39087 48516 52020 333 91105 91201;
0137067870999992010011721004+46617+009433FM-12+098999999V0209999C000019999999N9999999N1-00191-00391999999ADDMA1999999090921MD1210181+9999ME1315219OA149900261REMSYN076AAXX  17214 06787 33/// /0000 11019 21039 39092 48521 52018 333 91105 91202;
0137067870999992010011722004+46617+009433FM-12+098999999V0201001N001019999999N9999999N1-00211-00411999999ADDMA1999999090921MD1210101+9999ME1315209OA149900151REMSYN076AAXX  17224 06787 33/// /1002 11021 21041 39092 48520 52010 333 91103 91202;
0137067870999992010011723004+46617+009433FM-12+098999999V0201701N000519999999N9999999N1-00251-00431999999ADDMA1999999090951MD1210081+9999ME1315229OA149900151REMSYN076AAXX  17234 06787 33/// /1701 11025 21043 39095 48522 52008 333 91103 91202;
