0137067800999992010010100004+46833+009817FM-12+269099999V0200701N001519999999N9999999N1-00771-00941999999ADDMA1999999071251MD1810121+9999ME1428089OA149900821REMSYN076AAXX  01004 06780 33/// /0703 11077 21094 37125 47808 58012 333 91116 91209;
0137067800999992010010101004+46833+009817FM-12+269099999V0201101N002619999999N9999999N1-00691-00961999999ADDMA1999999071201MD1810131+9999ME1428039OA149900311REMSYN076AAXX  01014 06780 33/// /1105 11069 21096 37120 47803 58013 333 91106 91205;
0137067800999992010010102004+46833+009817FM-12+269099999V0201101N002119999999N9999999N1-00681-01011999999ADDMA1999999071181MD1619999+9999ME1428019OA149900311REMSYN076AAXX  01024 06780 33/// /1104 11068 21101 37118 47801 56/// 333 91106 91205;
0096067800999992010010103004+46833+009817FM-12+269099999V0201701N002619999999N9999999N1-00701-01081999999ADDMA1999999071121ME1427949REMSYN060AAXX  01034 06780 43/// /1705 11070 21108 37112 47794 5////;
0096067800999992010010104004+46833+009817FM-12+269099999V0201901N003119999999N9999999N1-00661-01121999999ADDMA1999999071091ME1427919REMSYN060AAXX  01044 06780 33/// /1906 11066 21112 37109 47791 5////;
0137067800999992010010105004+46833+009817FM-12+269099999V0201701N002119999999N9999999N1-00651-01271999999ADDMA1999999071051MD1610131+9999ME1427879OA149900461REMSYN076AAXX  01054 06780 33/// /1704 11065 21127 37105 47787 56013 333 91109 91206;
0197067800999992010010106004+46833+009817FM-12+269099999V0201501N000519999999N9999999N1-00681-01221999999ADDAA124006491AL11800691GJ100009KA1999N-00811MA1999999071041MD1610081+9999ME1427869OA149900571REMSYN094AAXX  01064 06780 33/// /1501 11068 21122 37104 47786 56008 333 21081 55000 70063 91111 91209;
0137067800999992010010107004+46833+009817FM-12+269099999V0203401N003619999999N9999999N1-00761-01091999999ADDMA1999999071001MD1610091+9999ME1427819OA149900411REMSYN076AAXX  01074 06780 33/// /3407 11076 21109 37100 47781 56009 333 91108 91207;
0137067800999992010010108004+46833+009817FM-12+269099999V0203301N005119999999N9999999N1-00721-01081999999ADDMA1999999071031MD1510021+9999ME1427849OA149900621REMSYN076AAXX  01084 06780 33/// /3310 11072 21108 37103 47784 55002 333 91112 91210;
0137067800999992010010109004+46833+009817FM-12+269099999V0203301N004119999999N9999999N1-00821-01111999999ADDMA1999999071071MD1310031+9999ME1427889OA149900671REMSYN076AAXX  01094 06780 33/// /3308 11082 21111 37107 47788 53003 333 91113 91211;
0137067800999992010010110004+46833+009817FM-12+269099999V0203301N003119999999N9999999N1-00761-01041999999ADDMA1999999071111MD1210111+9999ME1427939OA149900671REMSYN076AAXX  01104 06780 33/// /3306 11076 21104 37111 47793 52011 333 91113 91211;
0137067800999992010010111004+46833+009817FM-12+269099999V0203301N004119999999N9999999N1-00751-01001999999ADDMA1999999071071MD1010041+9999ME1427899OA149900461REMSYN076AAXX  01114 06780 33/// /3308 11075 21100 37107 47789 50004 333 91109 91208;
0137067800999992010010112004+46833+009817FM-12+269099999V0203301N004619999999N9999999N1-00761-00971999999ADDMA1999999071061MD1710011+9999ME1427889OA149900671REMSYN076AAXX  01124 06780 33/// /3309 11076 21097 37106 47788 57001 333 91113 91211;
0137067800999992010010113004+46833+009817FM-12+269099999V0203301N006719999999N9999999N1-00761-00921999999ADDMA1999999071071MD1710041+9999ME1427899OA149900771REMSYN076AAXX  01134 06780 33/// /3313 11076 21092 37107 47789 57004 333 91115 91213;
0137067800999992010010114004+46833+009817FM-12+269099999V0203401N005119999999N9999999N1-00771-00881999999ADDMA1999999071121MD1219999+9999ME1427949OA149900771REMSYN076AAXX  01144 06780 33/// /3410 11077 21088 37112 47794 52/// 333 91115 91214;
0137067800999992010010115004+46833+009817FM-12+269099999V0203401N004119999999N9999999N1-00801-00881999999ADDMA1999999071181MD1310121+9999ME1428009OA149900771REMSYN076AAXX  01154 06780 33/// /3408 11080 21088 37118 47800 53012 333 91115 91214;
0137067800999992010010116004+46833+009817FM-12+269099999V0203301N002619999999N9999999N1-00801-00821999999ADDMA1999999071231MD1110161+9999ME1428069OA149900571REMSYN076AAXX  01164 06780 33/// /3305 11080 21082 37123 47806 51016 333 91111 91209;
0137067800999992010010117004+46833+009817FM-12+269099999V0203401N003119999999N9999999N1-00791-00791999999ADDMA1999999071271MD1110151+9999ME1428109OA149900511REMSYN076AAXX  01174 06780 33/// /3406 11079 21079 37127 47810 51015 333 91110 91209;
0156067800999992010010118004+46833+009817FM-12+269099999V0203301N006719999999N9999999N1-00781-00801999999ADDKA1120M-00651MA1999999071331MD1110151+9999ME1428179OA149900931REMSYN082AAXX  01184 06780 33/// /3313 11078 21080 37133 47817 51015 333 11065 91118 91214;
0137067800999992010010119004+46833+009817FM-12+269099999V0203101N003619999999N9999999N1-00831-00851999999ADDMA1999999071391MD1310161+9999ME1428239OA149901131REMSYN076AAXX  01194 06780 33/// /3107 11083 21085 37139 47823 53016 333 91122 91214;
0137067800999992010010120004+46833+009817FM-12+269099999V0203201N008719999999N9999999N1-00931-00951999999ADDMA1999999071451MD1310181+9999ME1428299OA149901651REMSYN076AAXX  01204 06780 33/// /3217 11093 21095 37145 47829 53018 333 91132 91217;
0137067800999992010010121004+46833+009817FM-12+269099999V0203201N012319999999N9999999N1-00961-00961999999ADDMA1999999071511MD1210181+9999ME1428359OA149901801REMSYN076AAXX  01214 06780 33/// /3224 11096 21096 37151 47835 52018 333 91135 91224;
0137067800999992010010122004+46833+009817FM-12+269099999V0203301N011319999999N9999999N1-01011-01011999999ADDMA1999999071581MD1310191+9999ME1428429OA149901961REMSYN076AAXX  01224 06780 33/// /3322 11101 21101 37158 47842 53019 333 91138 91226;
0137067800999992010010123004+46833+009817FM-12+269099999V0203201N009319999999N9999999N1-01071-01071999999ADDMA1999999071631MD1110181+9999ME1428479OA149901961REMSYN076AAXX  01234 06780 33/// /3218 11107 21107 37163 47847 51018 333 91138 91226;
0137067800999992010010200004+46833+009817FM-12+269099999V0203301N008219999999N9999999N1-01151-01151999999ADDMA1999999071651MD1110141+9999ME1428499OA149901961REMSYN076AAXX  02004 06780 33/// /3316 11115 21115 37165 47849 51014 333 91138 91226;
0137067800999992010010201004+46833+009817FM-12+269099999V0203301N005719999999N9999999N1-01211-01211999999ADDMA1999999071671MD1210091+9999ME1428519OA149901241REMSYN076AAXX  02014 06780 33/// /3311 11121 21121 37167 47851 52009 333 91124 91217;
0096067800999992010010202004+46833+009817FM-12+269099999V0203401N007219999999N9999999N1-01231-01231999999ADDMA1999999071721ME1428569REMSYN060AAXX  02024 06780 33/// /3414 11123 21123 37172 47856 5////;
0137067800999992010010203004+46833+009817FM-12+269099999V0203301N006219999999N9999999N1-01301-01301999999ADDMA1999999071761MD1210111+9999ME1428609OA149901961REMSYN076AAXX  02034 06780 33/// /3312 11130 21130 37176 47860 52011 333 91138 91226;
0137067800999992010010204004+46833+009817FM-12+269099999V0203201N006719999999N9999999N1-01461-01461999999ADDMA1999999071781MD1110111+9999ME1428609OA149900981REMSYN076AAXX  02044 06780 33/// /3213 11146 21146 37178 47860 51011 333 91119 91215;
0137067800999992010010205004+46833+009817FM-12+269099999V0203201N010319999999N9999999N1-01531-01531999999ADDMA1999999071801MD1210081+9999ME1428629OA149901391REMSYN076AAXX  02054 06780 33/// /3220 11153 21153 37180 47862 52008 333 91127 91220;
0216067800999992010010206004+46833+009817FM-12+269099999V0203201N007219999999N9999999N1-01571-01571999999ADDAA124000091AL19900091GJ101029KA1999N-01551MA1999999071831MD1210071+9999ME1428659OA149901961REMSYN094AAXX  02064 06780 33/// /3214 11157 21157 37183 47865 52007 333 21155 55017 70000 91138 91226;EQDQ01  00002PRCP24
0137067800999992010010207004+46833+009817FM-12+269099999V0203101N010319999999N9999999N1-01621-01621999999ADDMA1999999071851MD1210071+9999ME1428679OA149901291REMSYN076AAXX  02074 06780 33/// /3120 11162 21162 37185 47867 52007 333 91125 91220;
0096067800999992010010208004+46833+009817FM-12+269099999V0203301N008719999999N9999999N1-01641-01641999999ADDMA1999999071911ME1428739REMSYN060AAXX  02084 06780 33/// /3317 11164 21164 37191 47873 5////;
0137067800999992010010209004+46833+009817FM-12+269099999V0203301N012919999999N9999999N1-01671-01671999999ADDMA1999999071921MD1210091+9999ME1428739OA149901851REMSYN076AAXX  02094 06780 33/// /3325 11167 21167 37192 47873 52009 333 91136 91225;
0137067800999992010010210004+46833+009817FM-12+269099999V0203301N011819999999N9999999N1-01711-01711999999ADDMA1999999071961MD1210111+9999ME1428779OA149901851REMSYN076AAXX  02104 06780 33/// /3323 11171 21171 37196 47877 52011 333 91136 91227;
0137067800999992010010211004+46833+009817FM-12+269099999V0203201N008719999999N9999999N1-01771-01771999999ADDMA1999999072011MD1210101+9999ME1428829OA149901851REMSYN076AAXX  02114 06780 33/// /3217 11177 21177 37201 47882 52010 333 91136 91227;
0137067800999992010010212004+46833+009817FM-12+269099999V0203201N010319999999N9999999N1-01771-01771999999ADDMA1999999072041MD1210121+9999ME1428859OA149902061REMSYN076AAXX  02124 06780 33/// /3220 11177 21177 37204 47885 52012 333 91140 91227;
0154067800999992010010213004+46833+009817FM-12+269099999V0203201N005119999999N9999999N1-01781-01781999999ADDAA101000021MA1999999072111MD1210151+9999ME1428929OA149902061REMSYN082AAXX  02134 06780 23/// /3210 11178 21178 37211 47892 52015 333 69925 91140 91223;
0154067800999992010010214004+46833+009817FM-12+269099999V0203301N011319999999N9999999N1-01831-01831999999ADDAA101000391MA1999999072121MD1219999+9999ME1428939OA149901851REMSYN082AAXX  02144 06780 23/// /3322 11183 21183 37212 47893 52/// 333 69935 91136 91222;
0154067800999992010010215004+46833+009817FM-12+269099999V0209999C010819999999N9999999N1-01941-01941999999ADDAA101000021MA1999999072191MD1210151+9999ME1428999OA149902061REMSYN082AAXX  02154 06780 23/// /0021 11194 21194 37219 47899 52015 333 69915 91140 91227;
0137067800999992010010216004+46833+009817FM-12+269099999V0203601N012319999999N9999999N1-01931-01931999999ADDMA1999999072241MD1210131+9999ME1429049OA149901801REMSYN076AAXX  02164 06780 33/// /3624 11193 21193 37224 47904 52013 333 91135 91225;
0137067800999992010010217004+46833+009817FM-12+269099999V0203601N010319999999N9999999N1-02001-02001999999ADDMA1999999072311MD1210191+9999ME1429119OA149901601REMSYN076AAXX  02174 06780 33/// /3620 11200 21200 37231 47911 52019 333 91131 91224;
0179067800999992010010218004+46833+009817FM-12+269099999V0203601N008719999999N9999999N1-01971-01971999999ADDAA112000591KA1120M-01551MA1999999072351MD1210161+9999ME1429159OA149902061REMSYN094AAXX  02184 06780 03/// /3617 11197 21197 37235 47915 52016 69962 333 11155 60005 91140 91227;
0137067800999992010010219004+46833+009817FM-12+269099999V0203501N008719999999N9999999N1-02001-02001999999ADDMA1999999072391MD1210151+9999ME1429199OA149901241REMSYN076AAXX  02194 06780 33/// /3517 11200 21200 37239 47919 52015 333 91124 91222;
0137067800999992010010220004+46833+009817FM-12+269099999V0203501N007719999999N9999999N1-01961-01961999999ADDMA1999999072401MD1210091+9999ME1429209OA149901241REMSYN076AAXX  02204 06780 33/// /3515 11196 21196 37240 47920 52009 333 91124 91221;
0137067800999992010010221004+46833+009817FM-12+269099999V0203601N007719999999N9999999N1-02061-02311999999ADDMA1999999072421MD1210071+9999ME1429219OA149901601REMSYN076AAXX  02214 06780 33/// /3615 11206 21231 37242 47921 52007 333 91131 91224;
0137067800999992010010222004+46833+009817FM-12+269099999V0200501N004619999999N9999999N1-02131-02151999999ADDMA1999999072431MD1210041+9999ME1429229OA149900981REMSYN076AAXX  02224 06780 33/// /0509 11213 21215 37243 47922 52004 333 91119 91215;
0137067800999992010010223004+46833+009817FM-12+269099999V0200501N003619999999N9999999N1-02141-02551999999ADDMA1999999072461MD1210061+9999ME1429259OA149900981REMSYN076AAXX  02234 06780 33/// /0507 11214 21255 37246 47925 52006 333 91119 91213;
0137067800999992010010300004+46833+009817FM-12+269099999V0200301N004619999999N9999999N1-02091-02111999999ADDMA1999999072481MD1210061+9999ME1429279OA149901851REMSYN076AAXX  03004 06780 33/// /0309 11209 21211 37248 47927 52006 333 91136 91225;
0137067800999992010010301004+46833+009817FM-12+269099999V0200201N005119999999N9999999N1-02081-02241999999ADDMA1999999072481MD1210051+9999ME1429279OA149900671REMSYN076AAXX  03014 06780 33/// /0210 11208 21224 37248 47927 52005 333 91113 91211;
0096067800999992010010302004+46833+009817FM-12+269099999V0203401N004619999999N9999999N1-02021-02211999999ADDMA1999999072511ME1429319REMSYN060AAXX  03024 06780 33/// /3409 11202 21221 37251 47931 5////;
0096067800999992010010303004+46833+009817FM-12+269099999V0203401N006219999999N9999999N1-02011-02361999999ADDMA1999999072511ME1429319REMSYN060AAXX  03034 06780 33/// /3412 11201 21236 37251 47931 5////;
0137067800999992010010304004+46833+009817FM-12+269099999V0203301N006719999999N9999999N1-01991-02371999999ADDMA1999999072501MD1010021+9999ME1429309OA149900881REMSYN076AAXX  03044 06780 33/// /3313 11199 21237 37250 47930 50002 333 91117 91215;
0137067800999992010010305004+46833+009817FM-12+269099999V0203201N005719999999N9999999N1-01981-02351999999ADDMA1999999072531MD1319999+9999ME1429339OA149900881REMSYN076AAXX  03054 06780 33/// /3211 11198 21235 37253 47933 53/// 333 91117 91215;
0197067800999992010010306004+46833+009817FM-12+269099999V0203201N007219999999N9999999N1-01891-02301999999ADDAA124000591AL13600091GJ100009KA1999N-02151MA1999999072491MD1710021+9999ME1429309OA149901241REMSYN094AAXX  03064 06780 33/// /3214 11189 21230 37249 47930 57002 333 21215 55000 70006 91124 91221;
0137067800999992010010307004+46833+009817FM-12+269099999V0203101N006219999999N9999999N1-01801-02301999999ADDMA1999999072511MD1210011+9999ME1429339OA149901081REMSYN076AAXX  03074 06780 33/// /3112 11180 21230 37251 47933 52001 333 91121 91217;
0137067800999992010010308004+46833+009817FM-12+269099999V0202901N003619999999N9999999N1-01701-02561999999ADDMA1999999072561MD1319999+9999ME1429399OA149901081REMSYN076AAXX  03084 06780 33/// /2907 11170 21256 37256 47939 53/// 333 91121 91217;
0137067800999992010010309004+46833+009817FM-12+269099999V0203001N005119999999N9999999N1-01581-02711999999ADDMA1999999072601MD1310111+9999ME1429459OA149901081REMSYN076AAXX  03094 06780 33/// /3010 11158 21271 37260 47945 53011 333 91121 91217;
0137067800999992010010310004+46833+009817FM-12+269099999V0202401N004619999999N9999999N1-01621-02631999999ADDMA1999999072651MD1110141+9999ME1429499OA149901031REMSYN076AAXX  03104 06780 33/// /2409 11162 21263 37265 47949 51014 333 91120 91211;
0137067800999992010010311004+46833+009817FM-12+269099999V0202201N004119999999N9999999N1-01531-02761999999ADDMA1999999072611MD1210051+9999ME1429469OA149901031REMSYN076AAXX  03114 06780 33/// /2208 11153 21276 37261 47946 52005 333 91120 91211;
0137067800999992010010312004+46833+009817FM-12+269099999V0202801N003119999999N9999999N1-01491-02651999999ADDMA1999999072551MD1810051+9999ME1429419OA149901081REMSYN076AAXX  03124 06780 33/// /2806 11149 21265 37255 47941 58005 333 91121 91217;
0137067800999992010010313004+46833+009817FM-12+269099999V0202101N003119999999N9999999N1-01471-02591999999ADDMA1999999072551MD1710101+9999ME1429419OA149900511REMSYN076AAXX  03134 06780 33/// /2106 11147 21259 37255 47941 57010 333 91110 91207;
0137067800999992010010314004+46833+009817FM-12+269099999V0202201N002619999999N9999999N1-01461-02651999999ADDMA1999999072541MD1710071+9999ME1429409OA149900461REMSYN076AAXX  03144 06780 33/// /2205 11146 21265 37254 47940 57007 333 91109 91206;
0137067800999992010010315004+46833+009817FM-12+269099999V0202201N003619999999N9999999N1-01501-02671999999ADDMA1999999072581MD1310031+9999ME1429449OA149901031REMSYN076AAXX  03154 06780 33/// /2207 11150 21267 37258 47944 53003 333 91120 91211;
0137067800999992010010316004+46833+009817FM-12+269099999V0202201N003119999999N9999999N1-01561-02761999999ADDMA1999999072561MD1210011+9999ME1429419OA149900511REMSYN076AAXX  03164 06780 33/// /2206 11156 21276 37256 47941 52001 333 91110 91207;
0137067800999992010010317004+46833+009817FM-12+269099999V0202201N003619999999N9999999N1-01571-02761999999ADDMA1999999072531MD1810011+9999ME1429389OA149900571REMSYN076AAXX  03174 06780 33/// /2207 11157 21276 37253 47938 58001 333 91111 91207;
0156067800999992010010318004+46833+009817FM-12+269099999V0202201N004119999999N9999999N1-01571-02751999999ADDKA1120M-01451MA1999999072541MD1710041+9999ME1429399OA149901081REMSYN082AAXX  03184 06780 33/// /2208 11157 21275 37254 47939 57004 333 11145 91121 91217;
0137067800999992010010319004+46833+009817FM-12+269099999V0202201N003119999999N9999999N1-01561-02741999999ADDMA1999999072571MD1310011+9999ME1429429OA149900571REMSYN076AAXX  03194 06780 33/// /2206 11156 21274 37257 47942 53001 333 91111 91209;
0137067800999992010010320004+46833+009817FM-12+269099999V0202201N003119999999N9999999N1-01541-02711999999ADDMA1999999072531MD1010001+9999ME1429389OA149900771REMSYN076AAXX  03204 06780 33/// /2206 11154 21271 37253 47938 50000 333 91115 91209;
0137067800999992010010321004+46833+009817FM-12+269099999V0202201N003119999999N9999999N1-01531-02581999999ADDMA1999999072531MD1810011+9999ME1429389OA149900771REMSYN076AAXX  03214 06780 33/// /2206 11153 21258 37253 47938 58001 333 91115 91209;
0137067800999992010010322004+46833+009817FM-12+269099999V0202301N004619999999N9999999N1-01531-02411999999ADDMA1999999072521MD1710051+9999ME1429379OA149900671REMSYN076AAXX  03224 06780 33/// /2309 11153 21241 37252 47937 57005 333 91113 91209;
0137067800999992010010323004+46833+009817FM-12+269099999V0202201N003619999999N9999999N1-01511-02381999999ADDMA1999999072511MD1710021+9999ME1429369OA149900671REMSYN076AAXX  03234 06780 33/// /2207 11151 21238 37251 47936 57002 333 91113 91209;
0137067800999992010010400004+46833+009817FM-12+269099999V0202101N004119999999N9999999N1-01501-02431999999ADDMA1999999072471MD1810061+9999ME1429329OA149900771REMSYN076AAXX  04004 06780 33/// /2108 11150 21243 37247 47932 58006 333 91115 91209;
0137067800999992010010401004+46833+009817FM-12+269099999V0202001N004619999999N9999999N1-01541-02411999999ADDMA1999999072441MD1810081+9999ME1429299OA149900621REMSYN076AAXX  04014 06780 33/// /2009 11154 21241 37244 47929 58008 333 91112 91209;
0137067800999992010010402004+46833+009817FM-12+269099999V0202001N005719999999N9999999N1-01551-02341999999ADDMA1999999072411MD1810101+9999ME1429259OA149900721REMSYN076AAXX  04024 06780 33/// /2011 11155 21234 37241 47925 58010 333 91114 91212;
0137067800999992010010403004+46833+009817FM-12+269099999V0201801N005119999999N9999999N1-01511-02301999999ADDMA1999999072321MD1819999+9999ME1429169OA149900881REMSYN076AAXX  04034 06780 33/// /1810 11151 21230 37232 47916 58/// 333 91117 91213;
0137067800999992010010404004+46833+009817FM-12+269099999V0201801N006219999999N9999999N1-01441-02201999999ADDMA1999999072301MD1810141+9999ME1429159OA149900881REMSYN076AAXX  04044 06780 33/// /1812 11144 21220 37230 47915 58014 333 91117 91213;
0137067800999992010010405004+46833+009817FM-12+269099999V0201701N003619999999N9999999N1-01431-02211999999ADDMA1999999072271MD1610141+9999ME1429129OA149900881REMSYN076AAXX  04054 06780 33/// /1707 11143 21221 37227 47912 56014 333 91117 91212;
0216067800999992010010406004+46833+009817FM-12+269099999V0201801N003119999999N9999999N1-01431-02181999999ADDAA124000091AL19900091GJ104569KA1999N-01581MA1999999072261MD1610061+9999ME1429119OA149900881REMSYN094AAXX  04064 06780 33/// /1806 11143 21218 37226 47911 56006 333 21158 55076 70000 91117 91213;EQDQ01  00002PRCP24
0137067800999992010010407004+46833+009817FM-12+269099999V0201801N003119999999N9999999N1-01491-02261999999ADDMA1999999072251MD1710051+9999ME1429099OA149900571REMSYN076AAXX  04074 06780 33/// /1806 11149 21226 37225 47909 57005 333 91111 91207;
0137067800999992010010408004+46833+009817FM-12+269099999V0201801N005719999999N9999999N1-01491-02171999999ADDMA1999999072241MD1710031+9999ME1429089OA149900821REMSYN076AAXX  04084 06780 33/// /1811 11149 21217 37224 47908 57003 333 91116 91212;
0137067800999992010010409004+46833+009817FM-12+269099999V0201801N005719999999N9999999N1-01411-01891999999ADDMA1999999072241MD1710021+9999ME1429099OA149900881REMSYN076AAXX  04094 06780 33/// /1811 11141 21189 37224 47909 57002 333 91117 91212;
0137067800999992010010410004+46833+009817FM-12+269099999V0201801N004619999999N9999999N1-01321-01621999999ADDMA1999999072231MD1710021+9999ME1429099OA149900881REMSYN076AAXX  04104 06780 33/// /1809 11132 21162 37223 47909 57002 333 91117 91211;
0137067800999992010010411004+46833+009817FM-12+269099999V0201801N004619999999N9999999N1-01371-02011999999ADDMA1999999072201MD1710041+9999ME1429059OA149900771REMSYN076AAXX  04114 06780 33/// /1809 11137 21201 37220 47905 57004 333 91115 91211;
0137067800999992010010412004+46833+009817FM-12+269099999V0201801N005119999999N9999999N1-01351-01651999999ADDMA1999999072151MD1710091+9999ME1429009OA149900881REMSYN076AAXX  04124 06780 33/// /1810 11135 21165 37215 47900 57009 333 91117 91213;
0137067800999992010010413004+46833+009817FM-12+269099999V0201801N004619999999N9999999N1-01311-01481999999ADDMA1999999072111MD1610121+9999ME1428969OA149900771REMSYN076AAXX  04134 06780 33/// /1809 11131 21148 37211 47896 56012 333 91115 91211;
0137067800999992010010414004+46833+009817FM-12+269099999V0202001N004119999999N9999999N1-01321-01481999999ADDMA1999999072101MD1619999+9999ME1428959OA149900671REMSYN076AAXX  04144 06780 33/// /2008 11132 21148 37210 47895 56/// 333 91113 91210;
0137067800999992010010415004+46833+009817FM-12+269099999V0201801N003119999999N9999999N1-01211-01471999999ADDMA1999999072091MD1610061+9999ME1428959OA149900771REMSYN076AAXX  04154 06780 33/// /1806 11121 21147 37209 47895 56006 333 91115 91211;
0137067800999992010010416004+46833+009817FM-12+269099999V0202301N003119999999N9999999N1-01141-01281999999ADDMA1999999072101MD1710011+9999ME1428979OA149900671REMSYN076AAXX  04164 06780 33/// /2306 11114 21128 37210 47897 57001 333 91113 91208;
0137067800999992010010417004+46833+009817FM-12+269099999V0202501N003619999999N9999999N1-01101-01381999999ADDMA1999999072111MD1210011+9999ME1428989OA149900931REMSYN076AAXX  04174 06780 33/// /2507 11110 21138 37211 47898 52001 333 91118 91211;
0175067800999992010010418004+46833+009817FM-12+269099999V0202301N002619999999N9999999N1-01121-01321999999ADDKA1120M-01081MA1999999072091MD1410001+9999ME1428969OA149900931REMSYN082AAXX  04184 06780 33/// /2305 11112 21132 37209 47896 58000 333 11108 91118 91212;EQDQ01+000082APCTEN
0137067800999992010010419004+46833+009817FM-12+269099999V0202201N002119999999N9999999N1-01111-01291999999ADDMA1999999072091MD1710011+9999ME1428969OA149900881REMSYN076AAXX  04194 06780 33/// /2204 11111 21129 37209 47896 57001 333 91117 91208;
0137067800999992010010420004+46833+009817FM-12+269099999V0201701N001519999999N9999999N1-01021-01391999999ADDMA1999999072081MD1710031+9999ME1428969OA149900721REMSYN076AAXX  04204 06780 33/// /1703 11102 21139 37208 47896 57003 333 91114 91207;
0137067800999992010010421004+46833+009817FM-12+269099999V0202201N002119999999N9999999N1-01031-01401999999ADDMA1999999072091MD1010001+9999ME1428979OA149900931REMSYN076AAXX  04214 06780 33/// /2204 11103 21140 37209 47897 50000 333 91118 91211;
0137067800999992010010422004+46833+009817FM-12+269099999V0202201N003619999999N9999999N1-01011-01331999999ADDMA1999999072071MD1710021+9999ME1428959OA149901031REMSYN076AAXX  04224 06780 33/// /2207 11101 21133 37207 47895 57002 333 91120 91209;
0137067800999992010010423004+46833+009817FM-12+269099999V0202601N005119999999N9999999N1-00921-01251999999ADDMA1999999072061MD1710021+9999ME1428959OA149901031REMSYN076AAXX  04234 06780 33/// /2610 11092 21125 37206 47895 57002 333 91120 91210;
0137067800999992010010500004+46833+009817FM-12+269099999V0202501N002119999999N9999999N1-00951-01331999999ADDMA1999999072031MD1710061+9999ME1428919OA149901031REMSYN076AAXX  05004 06780 33/// /2504 11095 21133 37203 47891 57006 333 91120 91211;
0137067800999992010010501004+46833+009817FM-12+269099999V0201601N002119999999N9999999N1-00951-01391999999ADDMA1999999071991MD1710081+9999ME1428879OA149900721REMSYN076AAXX  05014 06780 33/// /1604 11095 21139 37199 47887 57008 333 91114 91209;
0137067800999992010010502004+46833+009817FM-12+269099999V0201501N001519999999N9999999N1-01001-01411999999ADDMA1999999071961MD1810101+9999ME1428839OA149900571REMSYN076AAXX  05024 06780 33/// /1503 11100 21141 37196 47883 58010 333 91111 91205;
0137067800999992010010503004+46833+009817FM-12+269099999V0201701N001519999999N9999999N1-00991-01431999999ADDMA1999999071921MD1810111+9999ME1428799OA149901031REMSYN076AAXX  05034 06780 33/// /1703 11099 21143 37192 47879 58011 333 91120 91210;
0137067800999992010010504004+46833+009817FM-12+269099999V0202001N002619999999N9999999N1-00981-01421999999ADDMA1999999071881MD1810111+9999ME1428759OA149900311REMSYN076AAXX  05044 06780 33/// /2005 11098 21142 37188 47875 58011 333 91106 91205;
0137067800999992010010505004+46833+009817FM-12+269099999V0202001N002119999999N9999999N1-01021-01401999999ADDMA1999999071851MD1610111+9999ME1428719OA149900311REMSYN076AAXX  05054 06780 33/// /2004 11102 21140 37185 47871 56011 333 91106 91205;
0216067800999992010010506004+46833+009817FM-12+269099999V0202301N002119999999N9999999N1-01021-01411999999ADDAA124000091AL19900091GJ100009KA1999N-01151MA1999999071811MD1610111+9999ME1428679OA149901031REMSYN094AAXX  05064 06780 33/// /2304 11102 21141 37181 47867 56011 333 21115 55000 70000 91120 91210;EQDQ01  00002PRCP24
0137067800999992010010507004+46833+009817FM-12+269099999V0202001N002119999999N9999999N1-01011-01321999999ADDMA1999999071781MD1810101+9999ME1428649OA149900411REMSYN076AAXX  05074 06780 33/// /2004 11101 21132 37178 47864 58010 333 91108 91206;
0137067800999992010010508004+46833+009817FM-12+269099999V0201801N002619999999N9999999N1-01011-01351999999ADDMA1999999071771MD1610081+9999ME1428639OA149900361REMSYN076AAXX  05084 06780 33/// /1805 11101 21135 37177 47863 56008 333 91107 91206;
0137067800999992010010509004+46833+009817FM-12+269099999V0201701N003119999999N9999999N1-01021-01381999999ADDMA1999999071761MD1610051+9999ME1428629OA149900461REMSYN076AAXX  05094 06780 33/// /1706 11102 21138 37176 47862 56005 333 91109 91206;
0137067800999992010010510004+46833+009817FM-12+269099999V0201901N003619999999N9999999N1-00951-01441999999ADDMA1999999071741MD1710041+9999ME1428609OA149900511REMSYN076AAXX  05104 06780 33/// /1907 11095 21144 37174 47860 57004 333 91110 91207;
0137067800999992010010511004+46833+009817FM-12+269099999V0201701N003119999999N9999999N1-00891-01411999999ADDMA1999999071691MD1710081+9999ME1428559OA149900511REMSYN076AAXX  05114 06780 33/// /1706 11089 21141 37169 47855 57008 333 91110 91207;
0137067800999992010010512004+46833+009817FM-12+269099999V0201901N002119999999N9999999N1-00901-01411999999ADDMA1999999071641MD1710121+9999ME1428509OA149900571REMSYN076AAXX  05124 06780 33/// /1904 11090 21141 37164 47850 57012 333 91111 91207;
0137067800999992010010513004+46833+009817FM-12+269099999V0201801N002619999999N9999999N1-00881-01391999999ADDMA1999999071591MD1610151+9999ME1428449OA149900461REMSYN076AAXX  05134 06780 33/// /1805 11088 21139 37159 47844 56015 333 91109 91205;
0096067800999992010010514004+46833+009817FM-12+269099999V0201901N002619999999N9999999N1-00981-01421999999ADDMA1999999071551ME1428399REMSYN060AAXX  05144 06780 33/// /1905 11098 21142 37155 47839 5////;
0137067800999992010010515004+46833+009817FM-12+269099999V0202001N001019999999N9999999N1-01031-01301999999ADDMA1999999071561MD1710081+9999ME1428409OA149900511REMSYN076AAXX  05154 06780 33/// /2002 11103 21130 37156 47840 57008 333 91110 91207;
0137067800999992010010516004+46833+009817FM-12+269099999V0202101N002119999999N9999999N1-01041-01411999999ADDMA1999999071531MD1710061+9999ME1428379OA149900311REMSYN076AAXX  05164 06780 33/// /2104 11104 21141 37153 47837 57006 333 91106 91204;
0137067800999992010010517004+46833+009817FM-12+269099999V0202401N001519999999N9999999N1-01061-01431999999ADDMA1999999071531MD1710021+9999ME1428379OA149900261REMSYN076AAXX  05174 06780 33/// /2403 11106 21143 37153 47837 57002 333 91105 91204;
0156067800999992010010518004+46833+009817FM-12+269099999V0202701N000519999999N9999999N1-01101-01411999999ADDKA1120M-00871MA1999999071501MD1710061+9999ME1428339OA149900571REMSYN082AAXX  05184 06780 33/// /2701 11110 21141 37150 47833 57006 333 11087 91111 91207;
0137067800999992010010519004+46833+009817FM-12+269099999V0200901N001519999999N9999999N1-01131-01531999999ADDMA1999999071471MD1710061+9999ME1428309OA149900571REMSYN076AAXX  05194 06780 33/// /0903 11113 21153 37147 47830 57006 333 91111 91203;
0137067800999992010010520004+46833+009817FM-12+269099999V0201501N000519999999N9999999N1-01031-01431999999ADDMA1999999071441MD1710091+9999ME1428279OA149900261REMSYN076AAXX  05204 06780 33/// /1501 11103 21143 37144 47827 57009 333 91105 91203;
0137067800999992010010521004+46833+009817FM-12+269099999V0203601N000519999999N9999999N1-01071-01531999999ADDMA1999999071421MD1710081+9999ME1428259OA149900571REMSYN076AAXX  05214 06780 33/// /3601 11107 21153 37142 47825 57008 333 91111 91204;
0137067800999992010010522004+46833+009817FM-12+269099999V0200101N001519999999N9999999N1-01091-01501999999ADDMA1999999071391MD1610081+9999ME1428229OA149900411REMSYN076AAXX  05224 06780 33/// /0103 11109 21150 37139 47822 56008 333 91108 91203;
0137067800999992010010523004+46833+009817FM-12+269099999V0203401N001019999999N9999999N1-01081-01371999999ADDMA1999999071361MD1610081+9999ME1428189OA149900411REMSYN076AAXX  05234 06780 33/// /3402 11108 21137 37136 47818 56008 333 91108 91203;
0137067800999992010010600004+46833+009817FM-12+269099999V0203501N001519999999N9999999N1-01091-01511999999ADDMA1999999071321MD1810101+9999ME1428149OA149900571REMSYN076AAXX  06004 06780 33/// /3503 11109 21151 37132 47814 58010 333 91111 91206;
0137067800999992010010601004+46833+009817FM-12+269099999V0203201N004119999999N9999999N1-01231-01451999999ADDMA1999999071311MD1710081+9999ME1428129OA149900461REMSYN076AAXX  06014 06780 33/// /3208 11123 21145 37131 47812 57008 333 91109 91208;
0137067800999992010010602004+46833+009817FM-12+269099999V0203401N005719999999N9999999N1-01171-01381999999ADDMA1999999071321MD1510041+9999ME1428149OA149900621REMSYN076AAXX  06024 06780 33/// /3411 11117 21138 37132 47814 55004 333 91112 91211;
0137067800999992010010603004+46833+009817FM-12+269099999V0203501N005119999999N9999999N1-01191-01451999999ADDMA1999999071301MD1710021+9999ME1428119OA149900671REMSYN076AAXX  06034 06780 33/// /3510 11119 21145 37130 47811 57002 333 91113 91211;
0137067800999992010010604004+46833+009817FM-12+269099999V0203601N004119999999N9999999N1-01191-01421999999ADDMA1999999071271MD1710041+9999ME1428089OA149900671REMSYN076AAXX  06044 06780 33/// /3608 11119 21142 37127 47808 57004 333 91113 91211;
0137067800999992010010605004+46833+009817FM-12+269099999V0200101N003619999999N9999999N1-01221-01431999999ADDMA1999999071281MD1710041+9999ME1428099OA149900621REMSYN076AAXX  06054 06780 33/// /0107 11122 21143 37128 47809 57004 333 91112 91210;
0232067800999992010010606004+46833+009817FM-12+269099999V0203501N004119999999N9999999N1-01221-01371999999ADDAA124000091AL19900091GJ103489KA1999N-01251MA1999999071301MD1410001+9999ME1428119OA149900671REMSYN094AAXX  06064 06780 33/// /3508 11122 21137 37130 47811 53000 333 21125 55058 70000 91113 91211;EQDQ01+000032APCTENQ02  00002PRCP24
0137067800999992010010607004+46833+009817FM-12+269099999V0200701N001519999999N9999999N1-01221-01451999999ADDMA1999999071301MD1110031+9999ME1428119OA149900621REMSYN076AAXX  06074 06780 33/// /0703 11122 21145 37130 47811 51003 333 91112 91210;
0137067800999992010010608004+46833+009817FM-12+269099999V0200701N002619999999N9999999N1-01241-01371999999ADDMA1999999071301MD1110021+9999ME1428119OA149900571REMSYN076AAXX  06084 06780 33/// /0705 11124 21137 37130 47811 51002 333 91111 91209;
0137067800999992010010609004+46833+009817FM-12+269099999V0200701N002119999999N9999999N1-01271-01511999999ADDMA1999999071331MD1310031+9999ME1428149OA149900621REMSYN076AAXX  06094 06780 33/// /0704 11127 21151 37133 47814 53003 333 91112 91210;
0137067800999992010010610004+46833+009817FM-12+269099999V0200701N002119999999N9999999N1-01171-01441999999ADDMA1999999071361MD1310061+9999ME1428189OA149900411REMSYN076AAXX  06104 06780 33/// /0704 11117 21144 37136 47818 53006 333 91108 91205;
0137067800999992010010611004+46833+009817FM-12+269099999V0200901N002119999999N9999999N1-01151-01441999999ADDMA1999999071331MD1019999+9999ME1428159OA149900411REMSYN076AAXX  06114 06780 33/// /0904 11115 21144 37133 47815 50/// 333 91108 91205;
0137067800999992010010612004+46833+009817FM-12+269099999V0201601N001519999999N9999999N1-01181-01511999999ADDMA1999999071321MD1810011+9999ME1428149OA149900671REMSYN076AAXX  06124 06780 33/// /1603 11118 21151 37132 47814 58001 333 91113 91211;
0137067800999992010010613004+46833+009817FM-12+269099999V0201901N002119999999N9999999N1-01101-01441999999ADDMA1999999071311MD1610051+9999ME1428139OA149900311REMSYN076AAXX  06134 06780 33/// /1904 11110 21144 37131 47813 56005 333 91106 91205;
0137067800999992010010614004+46833+009817FM-12+269099999V0201801N002619999999N9999999N1-01181-01361999999ADDMA1999999071331MD1519999+9999ME1428159OA149900411REMSYN076AAXX  06144 06780 33/// /1805 11118 21136 37133 47815 55/// 333 91108 91206;
0137067800999992010010615004+46833+009817FM-12+269099999V0202001N003119999999N9999999N1-01181-01511999999ADDMA1999999071351MD1319999+9999ME1428179OA149900461REMSYN076AAXX  06154 06780 33/// /2006 11118 21151 37135 47817 53/// 333 91109 91206;
0137067800999992010010616004+46833+009817FM-12+269099999V0202201N003619999999N9999999N1-01261-01461999999ADDMA1999999071391MD1310081+9999ME1428219OA149900461REMSYN076AAXX  06164 06780 33/// /2207 11126 21146 37139 47821 53008 333 91109 91207;
0137067800999992010010617004+46833+009817FM-12+269099999V0202101N004119999999N9999999N1-01271-01421999999ADDMA1999999071411MD1110081+9999ME1428239OA149900511REMSYN076AAXX  06174 06780 33/// /2108 11127 21142 37141 47823 51008 333 91110 91208;
0156067800999992010010618004+46833+009817FM-12+269099999V0202201N004119999999N9999999N1-01271-01541999999ADDKA1120M-01091MA1999999071441MD1119999+9999ME1428269OA149900671REMSYN082AAXX  06184 06780 33/// /2208 11127 21154 37144 47826 51/// 333 11109 91113 91211;
0137067800999992010010619004+46833+009817FM-12+269099999V0201901N004119999999N9999999N1-01261-01371999999ADDMA1999999071461MD1110071+9999ME1428289OA149900671REMSYN076AAXX  06194 06780 33/// /1908 11126 21137 37146 47828 51007 333 91113 91211;
0137067800999992010010620004+46833+009817FM-12+269099999V0201901N003619999999N9999999N1-01271-01491999999ADDMA1999999071471MD1110061+9999ME1428299OA149900571REMSYN076AAXX  06204 06780 33/// /1907 11127 21149 37147 47829 51006 333 91111 91209;
0137067800999992010010621004+46833+009817FM-12+269099999V0201801N003119999999N9999999N1-01301-01471999999ADDMA1999999071481MD1110041+9999ME1428309OA149900671REMSYN076AAXX  06214 06780 33/// /1806 11130 21147 37148 47830 51004 333 91113 91211;
0137067800999992010010622004+46833+009817FM-12+269099999V0201701N003619999999N9999999N1-01301-01381999999ADDMA1999999071501MD1110041+9999ME1428329OA149900511REMSYN076AAXX  06224 06780 33/// /1707 11130 21138 37150 47832 51004 333 91110 91208;
0137067800999992010010623004+46833+009817FM-12+269099999V0201601N003119999999N9999999N1-01301-01451999999ADDMA1999999071501MD1210031+9999ME1428329OA149900621REMSYN076AAXX  06234 06780 33/// /1606 11130 21145 37150 47832 52003 333 91112 91209;
0137067800999992010010700004+46833+009817FM-12+269099999V0201601N004619999999N9999999N1-01301-01501999999ADDMA1999999071491MD1010011+9999ME1428319OA149900671REMSYN076AAXX  07004 06780 33/// /1609 11130 21150 37149 47831 50001 333 91113 91211;
0137067800999992010010701004+46833+009817FM-12+269099999V0201601N002619999999N9999999N1-01371-01471999999ADDMA1999999071491MD1710011+9999ME1428309OA149900671REMSYN076AAXX  07014 06780 33/// /1605 11137 21147 37149 47830 57001 333 91113 91209;
0137067800999992010010702004+46833+009817FM-12+269099999V0201601N002619999999N9999999N1-01371-01401999999ADDMA1999999071521MD1319999+9999ME1428349OA149900571REMSYN076AAXX  07024 06780 33/// /1605 11137 21140 37152 47834 53/// 333 91111 91209;
0137067800999992010010703004+46833+009817FM-12+269099999V0201801N003119999999N9999999N1-01381-01401999999ADDMA1999999071531MD1210041+9999ME1428359OA149900671REMSYN076AAXX  07034 06780 33/// /1806 11138 21140 37153 47835 52004 333 91113 91209;
0137067800999992010010704004+46833+009817FM-12+269099999V0202001N001519999999N9999999N1-01491-01491999999ADDMA1999999071541MD1210051+9999ME1428359OA149900411REMSYN076AAXX  07044 06780 33/// /2003 11149 21149 37154 47835 52005 333 91108 91206;
0137067800999992010010705004+46833+009817FM-12+269099999V0202001N002619999999N9999999N1-01471-01471999999ADDMA1999999071571MD1210051+9999ME1428389OA149900621REMSYN076AAXX  07054 06780 33/// /2005 11147 21147 37157 47838 52005 333 91112 91206;
0216067800999992010010706004+46833+009817FM-12+269099999V0201801N002619999999N9999999N1-01501-01501999999ADDAA124000091AL19900091GJ104629KA1999N-01521MA1999999071621MD1310091+9999ME1428439OA149900671REMSYN094AAXX  07064 06780 33/// /1805 11150 21150 37162 47843 53009 333 21152 55077 70000 91113 91209;EQDQ01  00002PRCP24
0137067800999992010010707004+46833+009817FM-12+269099999V0201901N003119999999N9999999N1-01481-01671999999ADDMA1999999071681MD1310141+9999ME1428509OA149900671REMSYN076AAXX  07074 06780 33/// /1906 11148 21167 37168 47850 53014 333 91113 91209;
0137067800999992010010708004+46833+009817FM-12+269099999V0201801N006219999999N9999999N1-01421-01801999999ADDMA1999999071741MD1319999+9999ME1428579OA149900881REMSYN076AAXX  07084 06780 33/// /1812 11142 21180 37174 47857 53/// 333 91117 91212;
0137067800999992010010709004+46833+009817FM-12+269099999V0201801N003619999999N9999999N1-01391-01971999999ADDMA1999999071801MD1110181+9999ME1428639OA149900881REMSYN076AAXX  07094 06780 33/// /1807 11139 21197 37180 47863 51018 333 91117 91212;
0137067800999992010010710004+46833+009817FM-12+269099999V0201701N005119999999N9999999N1-01301-02191999999ADDMA1999999071841MD1110161+9999ME1428689OA149900881REMSYN076AAXX  07104 06780 33/// /1710 11130 21219 37184 47868 51016 333 91117 91211;
0137067800999992010010711004+46833+009817FM-12+269099999V0201601N006719999999N9999999N1-01251-02231999999ADDMA1999999071851MD1210111+9999ME1428699OA149901131REMSYN076AAXX  07114 06780 33/// /1613 11125 21223 37185 47869 52011 333 91122 91213;
0137067800999992010010712004+46833+009817FM-12+269099999V0201601N004619999999N9999999N1-01191-02221999999ADDMA1999999071851MD1210051+9999ME1428709OA149901241REMSYN076AAXX  07124 06780 33/// /1609 11119 21222 37185 47870 52005 333 91124 91213;
0137067800999992010010713004+46833+009817FM-12+269099999V0201701N005719999999N9999999N1-01251-02331999999ADDMA1999999071831MD1819999+9999ME1428679OA149901241REMSYN076AAXX  07134 06780 33/// /1711 11125 21233 37183 47867 58/// 333 91124 91212;
0096067800999992010010715004+46833+009817FM-12+269099999V0201701N004619999999N9999999N1-01261-02121999999ADDMA1999999071901ME1428759REMSYN060AAXX  07154 06780 43/// /1709 11126 21212 37190 47875 5////;
0137067800999992010010716004+46833+009817FM-12+269099999V0201801N006219999999N9999999N1-01291-02061999999ADDMA1999999071961MD1319999+9999ME1428819OA149900981REMSYN076AAXX  07164 06780 33/// /1812 11129 21206 37196 47881 53/// 333 91119 91212;
0137067800999992010010717004+46833+009817FM-12+269099999V0201701N007719999999N9999999N1-01281-02031999999ADDMA1999999071971MD1119999+9999ME1428829OA149901181REMSYN076AAXX  07174 06780 33/// /1715 11128 21203 37197 47882 51/// 333 91123 91215;
0156067800999992010010718004+46833+009817FM-12+269099999V0201701N007219999999N9999999N1-01291-01941999999ADDKA1120M-01191MA1999999072001MD1119999+9999ME1428859OA149901241REMSYN082AAXX  07184 06780 33/// /1714 11129 21194 37200 47885 51/// 333 11119 91124 91215;
0137067800999992010010719004+46833+009817FM-12+269099999V0201601N005119999999N9999999N1-01291-01811999999ADDMA1999999072021MD1210061+9999ME1428879OA149901241REMSYN076AAXX  07194 06780 33/// /1610 11129 21181 37202 47887 52006 333 91124 91214;
0137067800999992010010720004+46833+009817FM-12+269099999V0201401N004619999999N9999999N1-01311-01711999999ADDMA1999999072011MD1010041+9999ME1428869OA149901081REMSYN076AAXX  07204 06780 33/// /1409 11131 21171 37201 47886 50004 333 91121 91213;
0137067800999992010010721004+46833+009817FM-12+269099999V0201701N004619999999N9999999N1-01301-01621999999ADDMA1999999072041MD1210041+9999ME1428899OA149901241REMSYN076AAXX  07214 06780 33/// /1709 11130 21162 37204 47889 52004 333 91124 91215;
0137067800999992010010722004+46833+009817FM-12+269099999V0201401N004119999999N9999999N1-01371-01601999999ADDMA1999999072021MD1510001+9999ME1428869OA149900931REMSYN076AAXX  07224 06780 33/// /1408 11137 21160 37202 47886 55000 333 91118 91211;
0137067800999992010010723004+46833+009817FM-12+269099999V0201501N005119999999N9999999N1-01361-01491999999ADDMA1999999072001MD1010011+9999ME1428849OA149900931REMSYN076AAXX  07234 06780 33/// /1510 11136 21149 37200 47884 50001 333 91118 91211;
0137067800999992010010800004+46833+009817FM-12+269099999V0201501N004119999999N9999999N1-01321-01451999999ADDMA1999999071941MD1710101+9999ME1428789OA149901241REMSYN076AAXX  08004 06780 33/// /1508 11132 21145 37194 47878 57010 333 91124 91215;
0137067800999992010010801004+46833+009817FM-12+269099999V0201601N003619999999N9999999N1-01261-01361999999ADDMA1999999071901MD1610121+9999ME1428759OA149900721REMSYN076AAXX  08014 06780 33/// /1607 11126 21136 37190 47875 56012 333 91114 91210;
0137067800999992010010802004+46833+009817FM-12+269099999V0201501N004619999999N9999999N1-01191-01331999999ADDMA1999999071871MD1619999+9999ME1428729OA149900621REMSYN076AAXX  08024 06780 33/// /1509 11119 21133 37187 47872 56/// 333 91112 91210;
0137067800999992010010803004+46833+009817FM-12+269099999V0201601N003619999999N9999999N1-01201-01321999999ADDMA1999999071841MD1619999+9999ME1428699OA149900931REMSYN076AAXX  08034 06780 33/// /1607 11120 21132 37184 47869 56/// 333 91118 91211;
0137067800999992010010804004+46833+009817FM-12+269099999V0201701N003119999999N9999999N1-01061-01191999999ADDMA1999999071821MD1810081+9999ME1428689OA149900671REMSYN076AAXX  08044 06780 33/// /1706 11106 21119 37182 47868 58008 333 91113 91210;
0137067800999992010010805004+46833+009817FM-12+269099999V0201601N005719999999N9999999N1-00981-01121999999ADDMA1999999071781MD1610091+9999ME1428649OA149900671REMSYN076AAXX  08054 06780 33/// /1611 11098 21112 37178 47864 56009 333 91113 91211;
0216067800999992010010806004+46833+009817FM-12+269099999V0201501N004619999999N9999999N1-00941-00961999999ADDAA124000091AL19900091GJ102949KA1999N-01391MA1999999071771MD1710071+9999ME1428639OA149901081REMSYN094AAXX  08064 06780 33/// /1509 11094 21096 37177 47863 57007 333 21139 55049 70000 91121 91213;EQDQ01  00002PRCP24
0154067800999992010010807004+46833+009817FM-12+269099999V0201501N005719999999N9999999N1-00901-00981999999ADDAA101000021MA1999999071761MD1710061+9999ME1428639OA149900771REMSYN082AAXX  08074 06780 23/// /1511 11090 21098 37176 47863 57006 333 69915 91115 91211;
0154067800999992010010808004+46833+009817FM-12+269099999V0201601N005719999999N9999999N1-00831-00831999999ADDAA101000021MA1999999071761MD1710021+9999ME1428639OA149900821REMSYN082AAXX  08084 06780 23/// /1611 11083 21083 37176 47863 57002 333 69915 91116 91211;
0137067800999992010010809004+46833+009817FM-12+269099999V0201601N006719999999N9999999N1-00721-00891999999ADDMA1999999071741MD1710031+9999ME1428629OA149900881REMSYN076AAXX  08094 06780 33/// /1613 11072 21089 37174 47862 57003 333 91117 91213;
0137067800999992010010810004+46833+009817FM-12+269099999V0201601N007219999999N9999999N1-00671-00841999999ADDMA1999999071721MD1710041+9999ME1428609OA149901081REMSYN076AAXX  08104 06780 33/// /1614 11067 21084 37172 47860 57004 333 91121 91214;
0137067800999992010010811004+46833+009817FM-12+269099999V0201601N008719999999N9999999N1-00571-00821999999ADDMA1999999071681MD1810081+9999ME1428569OA149901241REMSYN076AAXX  08114 06780 33/// /1617 11057 21082 37168 47856 58008 333 91124 91217;
0179067800999992010010812004+46833+009817FM-12+269099999V0201501N005719999999N9999999N1-00531-00781999999ADDAA106000091MA1999999071621MD1810121+9999ME1428509OA149901241REMSYN088AAXX  08124 06780 03/// /1511 11053 21078 37162 47850 58012 69921 333 60005 91124 91217;EQDQ01  00002PRCP06
0137067800999992010010813004+46833+009817FM-12+269099999V0201601N006219999999N9999999N1-00471-00771999999ADDMA1999999071591MD1610131+9999ME1428479OA149901241REMSYN076AAXX  08134 06780 33/// /1612 11047 21077 37159 47847 56013 333 91124 91216;
0143067800999992010010814004+46833+009817FM-12+269099999V0201601N004619999999N9999999N1-00531-00761999999ADDMA1999999071561MD1619999+9999ME1428439OA149900931REMSYN082AAXX  08144 06780 33/// /1609 11053 21076 37156 47843 56/// 91340 333 91118 91215;
0137067800999992010010815004+46833+009817FM-12+269099999V0201201N004619999999N9999999N1-00611-00741999999ADDMA1999999071551MD1610071+9999ME1428429OA149901241REMSYN076AAXX  08154 06780 33/// /1209 11061 21074 37155 47842 56007 333 91124 91217;
0137067800999992010010816004+46833+009817FM-12+269099999V0201201N004619999999N9999999N1-00601-00761999999ADDMA1999999071551MD1610041+9999ME1428429OA149900881REMSYN076AAXX  08164 06780 33/// /1209 11060 21076 37155 47842 56004 333 91117 91211;
0137067800999992010010817004+46833+009817FM-12+269099999V0201201N004119999999N9999999N1-00621-00741999999ADDMA1999999071541MD1710021+9999ME1428419OA149900721REMSYN076AAXX  08174 06780 33/// /1208 11062 21074 37154 47841 57002 333 91114 91211;
0198067800999992010010818004+46833+009817FM-12+269099999V0201301N004119999999N9999999N1-00611-00701999999ADDAA112000091KA1120M-00461MA1999999071551MD1010001+9999ME1428429OA149901241REMSYN094AAXX  08184 06780 03/// /1308 11061 21070 37155 47842 50000 69922 333 11046 60005 91124 91217;EQDQ01  00002PRCP12
0137067800999992010010819004+46833+009817FM-12+269099999V0201401N004119999999N9999999N1-00641-00681999999ADDMA1999999071571MD1310021+9999ME1428449OA149900721REMSYN076AAXX  08194 06780 33/// /1408 11064 21068 37157 47844 53002 333 91114 91210;
0154067800999992010010820004+46833+009817FM-12+269099999V0201501N004119999999N9999999N1-00611-00681999999ADDAA101000021MA1999999071571MD1210031+9999ME1428449OA149900621REMSYN082AAXX  08204 06780 23/// /1508 11061 21068 37157 47844 52003 333 69915 91112 91210;
0137067800999992010010821004+46833+009817FM-12+269099999V0201501N003619999999N9999999N1-00671-00741999999ADDMA1999999071591MD1210041+9999ME1428469OA149900721REMSYN076AAXX  08214 06780 33/// /1507 11067 21074 37159 47846 52004 333 91114 91211;
0137067800999992010010822004+46833+009817FM-12+269099999V0201601N003619999999N9999999N1-00621-00741999999ADDMA1999999071601MD1210031+9999ME1428479OA149900511REMSYN076AAXX  08224 06780 33/// /1607 11062 21074 37160 47847 52003 333 91110 91208;
0137067800999992010010823004+46833+009817FM-12+269099999V0201601N003619999999N9999999N1-00601-00731999999ADDMA1999999071631MD1210061+9999ME1428519OA149900511REMSYN076AAXX  08234 06780 33/// /1607 11060 21073 37163 47851 52006 333 91110 91208;
0179067800999992010010900004+46833+009817FM-12+269099999V0201501N002619999999N9999999N1-00601-00721999999ADDAA106000091MA1999999071621MD1210031+9999ME1428509OA149900931REMSYN088AAXX  09004 06780 03/// /1505 11060 21072 37162 47850 52003 69911 333 60005 91118 91215;EQDQ01  00002PRCP06
0137067800999992010010901004+46833+009817FM-12+269099999V0201601N003119999999N9999999N1-00631-00771999999ADDMA1999999071621MD1210021+9999ME1428499OA149900461REMSYN076AAXX  09014 06780 33/// /1606 11063 21077 37162 47849 52002 333 91109 91206;
0137067800999992010010902004+46833+009817FM-12+269099999V0201401N003619999999N9999999N1-00631-00721999999ADDMA1999999071631MD1019999+9999ME1428509OA149900511REMSYN076AAXX  09024 06780 33/// /1407 11063 21072 37163 47850 50/// 333 91110 91207;
0137067800999992010010903004+46833+009817FM-12+269099999V0201501N001519999999N9999999N1-00661-00841999999ADDMA1999999071641MD1219999+9999ME1428519OA149900511REMSYN076AAXX  09034 06780 33/// /1503 11066 21084 37164 47851 52/// 333 91110 91208;
0137067800999992010010904004+46833+009817FM-12+269099999V0201301N004119999999N9999999N1-00681-00861999999ADDMA1999999071611MD1010011+9999ME1428489OA149900571REMSYN076AAXX  09044 06780 33/// /1308 11068 21086 37161 47848 50001 333 91111 91208;
0137067800999992010010905004+46833+009817FM-12+269099999V0201301N005119999999N9999999N1-00661-00981999999ADDMA1999999071571MD1710061+9999ME1428449OA149900621REMSYN076AAXX  09054 06780 33/// /1310 11066 21098 37157 47844 57006 333 91112 91210;
0239067800999992010010906004+46833+009817FM-12+269099999V0201101N003619999999N9999999N1-00741-00911999999ADDAA112000091AA224000391AL11800091GJ102289KA1999N-00721MA1999999071511MD1710131+9999ME1428379OA149900621REMSYN106AAXX  09064 06780 03/// /1107 11074 21091 37151 47837 57013 69912 333 21072 55038 60005 70003 91112 91210;EQDQ01  00002PRCP12
0137067800999992010010907004+46833+009817FM-12+269099999V0201101N003619999999N9999999N1-00751-00961999999ADDMA1999999071501MD1710111+9999ME1428359OA149900721REMSYN076AAXX  09074 06780 33/// /1107 11075 21096 37150 47835 57011 333 91114 91210;
0137067800999992010010908004+46833+009817FM-12+269099999V0201001N004619999999N9999999N1-00681-01101999999ADDMA1999999071511MD1510061+9999ME1428379OA149900721REMSYN076AAXX  09084 06780 33/// /1009 11068 21110 37151 47837 55006 333 91114 91210;
0137067800999992010010909004+46833+009817FM-12+269099999V0201301N004619999999N9999999N1-00671-01071999999ADDMA1999999071501MD1710011+9999ME1428369OA149900721REMSYN076AAXX  09094 06780 33/// /1309 11067 21107 37150 47836 57001 333 91114 91210;
0137067800999992010010910004+46833+009817FM-12+269099999V0201001N003619999999N9999999N1-00541-01181999999ADDMA1999999071461MD1810041+9999ME1428329OA149900821REMSYN076AAXX  09104 06780 33/// /1007 11054 21118 37146 47832 58004 333 91116 91210;
0137067800999992010010911004+46833+009817FM-12+269099999V0200901N005119999999N9999999N1-00571-01001999999ADDMA1999999071421MD1710091+9999ME1428289OA149900931REMSYN076AAXX  09114 06780 33/// /0910 11057 21100 37142 47828 57009 333 91118 91213;
0137067800999992010010912004+46833+009817FM-12+269099999V0200801N003619999999N9999999N1-00501-01001999999ADDMA1999999071351MD1710151+9999ME1428219OA149900931REMSYN076AAXX  09124 06780 33/// /0807 11050 21100 37135 47821 57015 333 91118 91213;
0137067800999992010010913004+46833+009817FM-12+269099999V0200301N004119999999N9999999N1-00461-01091999999ADDMA1999999071301MD1710161+9999ME1428159OA149900881REMSYN076AAXX  09134 06780 33/// /0308 11046 21109 37130 47815 57016 333 91117 91209;
0137067800999992010010914004+46833+009817FM-12+269099999V0200701N004119999999N9999999N1-00631-01071999999ADDMA1999999071301MD1710121+9999ME1428149OA149900621REMSYN076AAXX  09144 06780 33/// /0708 11063 21107 37130 47814 57012 333 91112 91209;
0137067800999992010010915004+46833+009817FM-12+269099999V0200901N004119999999N9999999N1-00631-01001999999ADDMA1999999071311MD1510041+9999ME1428159OA149900931REMSYN076AAXX  09154 06780 33/// /0908 11063 21100 37131 47815 55004 333 91118 91213;
0137067800999992010010916004+46833+009817FM-12+269099999V0201301N003619999999N9999999N1-00701-00821999999ADDMA1999999071321MD1210021+9999ME1428169OA149900671REMSYN076AAXX  09164 06780 33/// /1307 11070 21082 37132 47816 52002 333 91113 91209;
0137067800999992010010917004+46833+009817FM-12+269099999V0201201N005119999999N9999999N1-00731-00771999999ADDMA1999999071341MD1210041+9999ME1428189OA149900721REMSYN076AAXX  09174 06780 33/// /1210 11073 21077 37134 47818 52004 333 91114 91210;
0156067800999992010010918004+46833+009817FM-12+269099999V0201201N007719999999N9999999N1-00761-00891999999ADDKA1120M-00451MA1999999071351MD1210041+9999ME1428199OA149900931REMSYN082AAXX  09184 06780 33/// /1215 11076 21089 37135 47819 52004 333 11045 91118 91215;
0137067800999992010010919004+46833+009817FM-12+269099999V0201301N004619999999N9999999N1-00811-00941999999ADDMA1999999071411MD1210091+9999ME1428259OA149901081REMSYN076AAXX  09194 06780 33/// /1309 11081 21094 37141 47825 52009 333 91121 91216;
0137067800999992010010920004+46833+009817FM-12+269099999V0201301N006719999999N9999999N1-00851-01111999999ADDMA1999999071431MD1310091+9999ME1428279OA149901081REMSYN076AAXX  09204 06780 33/// /1313 11085 21111 37143 47827 53009 333 91121 91216;
0137067800999992010010921004+46833+009817FM-12+269099999V0201301N006219999999N9999999N1-00881-01141999999ADDMA1999999071451MD1110101+9999ME1428299OA149901081REMSYN076AAXX  09214 06780 33/// /1312 11088 21114 37145 47829 51010 333 91121 91216;
0137067800999992010010922004+46833+009817FM-12+269099999V0201501N004619999999N9999999N1-00911-01111999999ADDMA1999999071491MD1310081+9999ME1428339OA149901031REMSYN076AAXX  09224 06780 33/// /1509 11091 21111 37149 47833 53008 333 91120 91216;
0137067800999992010010923004+46833+009817FM-12+269099999V0201601N005719999999N9999999N1-00911-01051999999ADDMA1999999071531MD1310101+9999ME1428389OA149900931REMSYN076AAXX  09234 06780 33/// /1611 11091 21105 37153 47838 53010 333 91118 91211;
0137067800999992010011000004+46833+009817FM-12+269099999V0201501N004119999999N9999999N1-00941-01081999999ADDMA1999999071561MD1110111+9999ME1428419OA149901081REMSYN076AAXX  10004 06780 33/// /1508 11094 21108 37156 47841 51011 333 91121 91216;
0137067800999992010011001004+46833+009817FM-12+269099999V0201501N004119999999N9999999N1-00891-01081999999ADDMA1999999071591MD1110101+9999ME1428449OA149900671REMSYN076AAXX  10014 06780 33/// /1508 11089 21108 37159 47844 51010 333 91113 91210;
0096067800999992010011002004+46833+009817FM-12+269099999V0201601N003119999999N9999999N1-00911-01101999999ADDMA1999999071651ME1428519REMSYN060AAXX  10024 06780 33/// /1606 11091 21110 37165 47851 5////;
0096067800999992010011003004+46833+009817FM-12+269099999V0201601N005119999999N9999999N1-00941-01201999999ADDMA1999999071671ME1428539REMSYN060AAXX  10034 06780 43/// /1610 11094 21120 37167 47853 5////;
0137067800999992010011004004+46833+009817FM-12+269099999V0201501N005119999999N9999999N1-00941-01181999999ADDMA1999999071691MD1210101+9999ME1428559OA149900721REMSYN076AAXX  10044 06780 33/// /1510 11094 21118 37169 47855 52010 333 91114 91211;
0137067800999992010011005004+46833+009817FM-12+269099999V0201701N002619999999N9999999N1-00951-01181999999ADDMA1999999071741MD1210091+9999ME1428609OA149900721REMSYN076AAXX  10054 06780 33/// /1705 11095 21118 37174 47860 52009 333 91114 91211;
0216067800999992010011006004+46833+009817FM-12+269099999V0202001N002119999999N9999999N1-00991-01151999999ADDAA124000091AL19900091GJ100429KA1999N-00991MA1999999071771MD1110101+9999ME1428639OA149901081REMSYN094AAXX  10064 06780 33/// /2004 11099 21115 37177 47863 51010 333 21099 55007 70000 91121 91216;EQDQ01  00002PRCP24
0137067800999992010011007004+46833+009817FM-12+269099999V0201801N002619999999N9999999N1-00971-01141999999ADDMA1999999071831MD1210141+9999ME1428709OA149900411REMSYN076AAXX  10074 06780 33/// /1805 11097 21114 37183 47870 52014 333 91108 91206;
0137067800999992010011008004+46833+009817FM-12+269099999V0201701N002119999999N9999999N1-00961-01201999999ADDMA1999999071881MD1319999+9999ME1428759OA149900461REMSYN076AAXX  10084 06780 33/// /1704 11096 21120 37188 47875 53/// 333 91109 91206;
0137067800999992010011009004+46833+009817FM-12+269099999V0202001N002619999999N9999999N1-00981-01121999999ADDMA1999999071941MD1110171+9999ME1428819OA149900721REMSYN076AAXX  10094 06780 33/// /2005 11098 21112 37194 47881 51017 333 91114 91211;
0137067800999992010011010004+46833+009817FM-12+269099999V0201501N002119999999N9999999N1-00981-01161999999ADDMA1999999071981MD1110151+9999ME1428859OA149900361REMSYN076AAXX  10104 06780 33/// /1504 11098 21116 37198 47885 51015 333 91107 91205;
0137067800999992010011011004+46833+009817FM-12+269099999V0201601N002119999999N9999999N1-00901-01221999999ADDMA1999999072011MD1110131+9999ME1428899OA149900411REMSYN076AAXX  10114 06780 33/// /1604 11090 21122 37201 47889 51013 333 91108 91206;
0137067800999992010011012004+46833+009817FM-12+269099999V0201901N002119999999N9999999N1-00891-01151999999ADDMA1999999072031MD1110091+9999ME1428929OA149900721REMSYN076AAXX  10124 06780 33/// /1904 11089 21115 37203 47892 51009 333 91114 91211;
0137067800999992010011013004+46833+009817FM-12+269099999V0202201N003119999999N9999999N1-00931-01251999999ADDMA1999999072021MD1210041+9999ME1428909OA149900361REMSYN076AAXX  10134 06780 33/// /2206 11093 21125 37202 47890 52004 333 91107 91206;
0137067800999992010011014004+46833+009817FM-12+269099999V0202301N002119999999N9999999N1-00971-01221999999ADDMA1999999072051MD1219999+9999ME1428939OA149900361REMSYN076AAXX  10144 06780 33/// /2304 11097 21122 37205 47893 52/// 333 91107 91206;
0137067800999992010011015004+46833+009817FM-12+269099999V0201801N001519999999N9999999N1-01011-01161999999ADDMA1999999072091MD1210061+9999ME1428979OA149900411REMSYN076AAXX  10154 06780 33/// /1803 11101 21116 37209 47897 52006 333 91108 91206;
0137067800999992010011016004+46833+009817FM-12+269099999V0202501N001519999999N9999999N1-01071-01281999999ADDMA1999999072121MD1310101+9999ME1429009OA149900311REMSYN076AAXX  10164 06780 33/// /2503 11107 21128 37212 47900 53010 333 91106 91205;
0137067800999992010011017004+46833+009817FM-12+269099999V0203201N000519999999N9999999N1-01031-01501999999ADDMA1999999072161MD1110111+9999ME1429049OA149900721REMSYN076AAXX  10174 06780 33/// /3201 11103 21150 37216 47904 51011 333 91114 91205;
0156067800999992010011018004+46833+009817FM-12+269099999V0203301N002619999999N9999999N1-01051-01591999999ADDKA1120M-00841MA1999999072191MD1310101+9999ME1429079OA149900721REMSYN082AAXX  10184 06780 33/// /3305 11105 21159 37219 47907 53010 333 11084 91114 91206;
0137067800999992010011019004+46833+009817FM-12+269099999V0203601N002119999999N9999999N1-01011-01531999999ADDMA1999999072221MD1110101+9999ME1429119OA149900361REMSYN076AAXX  10194 06780 33/// /3604 11101 21153 37222 47911 51010 333 91107 91205;
0137067800999992010011020004+46833+009817FM-12+269099999V0203001N000519999999N9999999N1-01011-01501999999ADDMA1999999072241MD1210081+9999ME1429139OA149900361REMSYN076AAXX  10204 06780 33/// /3001 11101 21150 37224 47913 52008 333 91107 91205;
0137067800999992010011021004+46833+009817FM-12+269099999V0203501N001019999999N9999999N1-00991-01441999999ADDMA1999999072271MD1210081+9999ME1429169OA149900721REMSYN076AAXX  10214 06780 33/// /3502 11099 21144 37227 47916 52008 333 91114 91205;
0137067800999992010011022004+46833+009817FM-12+269099999V0202801N002119999999N9999999N1-01071-01461999999ADDMA1999999072291MD1210071+9999ME1429189OA149900411REMSYN076AAXX  10224 06780 33/// /2804 11107 21146 37229 47918 52007 333 91108 91204;
0137067800999992010011023004+46833+009817FM-12+269099999V0202801N001519999999N9999999N1-01021-01421999999ADDMA1999999072301MD1310061+9999ME1429199OA149900511REMSYN076AAXX  10234 06780 33/// /2803 11102 21142 37230 47919 53006 333 91110 91208;
0137067800999992010011100004+46833+009817FM-12+269099999V0203101N003119999999N9999999N1-01051-01401999999ADDMA1999999072301MD1210031+9999ME1429199OA149900721REMSYN076AAXX  11004 06780 33/// /3106 11105 21140 37230 47919 52003 333 91114 91208;
0137067800999992010011101004+46833+009817FM-12+269099999V0203101N005119999999N9999999N1-01041-01361999999ADDMA1999999072301MD1210011+9999ME1429199OA149900571REMSYN076AAXX  11014 06780 33/// /3110 11104 21136 37230 47919 52001 333 91111 91210;
0137067800999992010011102004+46833+009817FM-12+269099999V0203201N006219999999N9999999N1-01031-01531999999ADDMA1999999072321MD1219999+9999ME1429219OA149900671REMSYN076AAXX  11024 06780 33/// /3212 11103 21153 37232 47921 52/// 333 91113 91212;
0137067800999992010011103004+46833+009817FM-12+269099999V0203101N005719999999N9999999N1-01001-01481999999ADDMA1999999072301MD1019999+9999ME1429199OA149900721REMSYN076AAXX  11034 06780 33/// /3111 11100 21148 37230 47919 50/// 333 91114 91212;
0137067800999992010011104004+46833+009817FM-12+269099999V0203201N006219999999N9999999N1-01001-01431999999ADDMA1999999072311MD1210011+9999ME1429209OA149900821REMSYN076AAXX  11044 06780 33/// /3212 11100 21143 37231 47920 52001 333 91116 91213;
0137067800999992010011105004+46833+009817FM-12+269099999V0203101N005719999999N9999999N1-01021-01431999999ADDMA1999999072311MD1410001+9999ME1429209OA149900821REMSYN076AAXX  11054 06780 33/// /3111 11102 21143 37231 47920 54001 333 91116 91213;
0216067800999992010011106004+46833+009817FM-12+269099999V0203201N005119999999N9999999N1-01071-01481999999ADDAA124000091AL19900091GJ104929KA1999N-01121MA1999999072311MD1410001+9999ME1429209OA149900821REMSYN094AAXX  11064 06780 33/// /3210 11107 21148 37231 47920 54001 333 21112 55082 70000 91116 91213;EQDQ01  00002PRCP24
0137067800999992010011107004+46833+009817FM-12+269099999V0203201N005119999999N9999999N1-01051-01391999999ADDMA1999999072331MD1210021+9999ME1429229OA149900771REMSYN076AAXX  11074 06780 33/// /3210 11105 21139 37233 47922 52002 333 91115 91213;
0137067800999992010011108004+46833+009817FM-12+269099999V0203201N003119999999N9999999N1-01121-01291999999ADDMA1999999072351MD1219999+9999ME1429239OA149900771REMSYN076AAXX  11084 06780 33/// /3206 11112 21129 37235 47923 52/// 333 91115 91213;
0137067800999992010011109004+46833+009817FM-12+269099999V0202601N003119999999N9999999N1-00971-01341999999ADDMA1999999072371MD1110061+9999ME1429279OA149900821REMSYN076AAXX  11094 06780 33/// /2606 11097 21134 37237 47927 51006 333 91116 91213;
0137067800999992010011110004+46833+009817FM-12+269099999V0202901N004119999999N9999999N1-00911-01331999999ADDMA1999999072381MD1319999+9999ME1429299OA149900571REMSYN076AAXX  11104 06780 33/// /2908 11091 21133 37238 47929 53/// 333 91111 91208;
0137067800999992010011111004+46833+009817FM-12+269099999V0202501N002619999999N9999999N1-00941-01421999999ADDMA1999999072381MD1110031+9999ME1429289OA149900571REMSYN076AAXX  11114 06780 33/// /2505 11094 21142 37238 47928 51003 333 91111 91208;
0137067800999992010011112004+46833+009817FM-12+269099999V0202501N004619999999N9999999N1-00961-01421999999ADDMA1999999072351MD1810021+9999ME1429259OA149900821REMSYN076AAXX  11124 06780 33/// /2509 11096 21142 37235 47925 58002 333 91116 91213;
0137067800999992010011113004+46833+009817FM-12+269099999V0202401N003619999999N9999999N1-00941-01511999999ADDMA1999999072311MD1810071+9999ME1429219OA149900571REMSYN076AAXX  11134 06780 33/// /2407 11094 21151 37231 47921 58007 333 91111 91209;
0096067800999992010011114004+46833+009817FM-12+269099999V0202601N003619999999N9999999N1-00981-01441999999ADDMA1999999072321ME1429229REMSYN060AAXX  11144 06780 33/// /2607 11098 21144 37232 47922 5////;
0137067800999992010011115004+46833+009817FM-12+269099999V0202601N004119999999N9999999N1-01041-01311999999ADDMA1999999072341MD1510011+9999ME1429239OA149900721REMSYN076AAXX  11154 06780 33/// /2608 11104 21131 37234 47923 55001 333 91114 91209;
0154067800999992010011116004+46833+009817FM-12+269099999V0202601N002619999999N9999999N1-01081-01251999999ADDAA101000021MA1999999072341MD1210031+9999ME1429239OA149900721REMSYN082AAXX  11164 06780 23/// /2605 11108 21125 37234 47923 52003 333 69915 91114 91209;
0137067800999992010011117004+46833+009817FM-12+269099999V0202501N004119999999N9999999N1-01111-01381999999ADDMA1999999072361MD1210041+9999ME1429259OA149900571REMSYN076AAXX  11174 06780 33/// /2508 11111 21138 37236 47925 52004 333 91111 91208;
0198067800999992010011118004+46833+009817FM-12+269099999V0202401N002619999999N9999999N1-01131-01371999999ADDAA112000091KA1120M-00911MA1999999072391MD1310051+9999ME1429289OA149900771REMSYN094AAXX  11184 06780 03/// /2405 11113 21137 37239 47928 53005 69912 333 11091 60005 91115 91213;EQDQ01  00002PRCP12
0137067800999992010011119004+46833+009817FM-12+269099999V0202301N002619999999N9999999N1-01141-01321999999ADDMA1999999072421MD1110081+9999ME1429319OA149900511REMSYN076AAXX  11194 06780 33/// /2305 11114 21132 37242 47931 51008 333 91110 91208;
0137067800999992010011120004+46833+009817FM-12+269099999V0202301N002619999999N9999999N1-01151-01271999999ADDMA1999999072431MD1110071+9999ME1429329OA149900461REMSYN076AAXX  11204 06780 33/// /2305 11115 21127 37243 47932 51007 333 91109 91206;
0154067800999992010011121004+46833+009817FM-12+269099999V0202601N005119999999N9999999N1-01101-01231999999ADDAA101000021MA1999999072441MD1110051+9999ME1429339OA149900621REMSYN082AAXX  11214 06780 23/// /2610 11110 21123 37244 47933 51005 333 69925 91112 91210;
0137067800999992010011122004+46833+009817FM-12+269099999V0202601N005119999999N9999999N1-01101-01251999999ADDMA1999999072451MD1310031+9999ME1429349OA149900771REMSYN076AAXX  11224 06780 33/// /2610 11110 21125 37245 47934 53003 333 91115 91211;
0154067800999992010011123004+46833+009817FM-12+269099999V0202601N005719999999N9999999N1-01061-01261999999ADDAA101000021MA1999999072461MD1210031+9999ME1429369OA149900771REMSYN082AAXX  11234 06780 23/// /2611 11106 21126 37246 47936 52003 333 69915 91115 91212;
0160067800999992010011200004+46833+009817FM-12+269099999V0202301N004119999999N9999999N1-01101-01221999999ADDAA106000391MA1999999072471MD1210031+9999ME1429369OA149900771REMSYN088AAXX  12004 06780 03/// /2308 11110 21122 37247 47936 52003 69931 333 60005 91115 91212;
0137067800999992010011201004+46833+009817FM-12+269099999V0202601N006219999999N9999999N1-01071-01221999999ADDMA1999999072451MD1010001+9999ME1429349OA149900771REMSYN076AAXX  12014 06780 33/// /2612 11107 21122 37245 47934 50000 333 91115 91212;
0154067800999992010011202004+46833+009817FM-12+269099999V0202601N004619999999N9999999N1-01061-01201999999ADDAA101000021MA1999999072451MD1719999+9999ME1429359OA149900771REMSYN082AAXX  12024 06780 23/// /2609 11106 21120 37245 47935 57/// 333 69915 91115 91212;
0154067800999992010011203004+46833+009817FM-12+269099999V0202601N005719999999N9999999N1-01061-01201999999ADDAA101000021MA1999999072451MD1710021+9999ME1429359OA149900771REMSYN082AAXX  12034 06780 23/// /2611 11106 21120 37245 47935 57002 333 69925 91115 91212;
0154067800999992010011204004+46833+009817FM-12+269099999V0202701N003119999999N9999999N1-01061-01211999999ADDAA101000021MA1999999072451MD1410001+9999ME1429359OA149900771REMSYN082AAXX  12044 06780 23/// /2706 11106 21121 37245 47935 54000 333 69925 91115 91211;
0137067800999992010011205004+46833+009817FM-12+269099999V0202701N003619999999N9999999N1-01051-01181999999ADDMA1999999072451MD1410001+9999ME1429359OA149900721REMSYN076AAXX  12054 06780 33/// /2707 11105 21118 37245 47935 54000 333 91114 91210;
0220067800999992010011206004+46833+009817FM-12+269099999V0202901N002619999999N9999999N1-01081-01161999999ADDAA112000891AA224001091AL14800091GJ100249KA1999N-01161MA1999999072451MD1410001+9999ME1429349OA149900771REMSYN106AAXX  12064 06780 03/// /2905 11108 21116 37245 47934 54000 69982 333 21116 55004 60005 70009 91115 91212;
0137067800999992010011207004+46833+009817FM-12+269099999V0202701N001519999999N9999999N1-01091-01171999999ADDMA1999999072451MD1410001+9999ME1429349OA149900571REMSYN076AAXX  12074 06780 33/// /2703 11109 21117 37245 47934 54000 333 91111 91208;
0137067800999992010011208004+46833+009817FM-12+269099999V0202301N002619999999N9999999N1-01041-01151999999ADDMA1999999072451MD1410001+9999ME1429359OA149900461REMSYN076AAXX  12084 06780 33/// /2305 11104 21115 37245 47935 54/// 333 91109 91206;
0156067800999992010011209004+46833+009817FM-12+269099999V0202001N002119999999N9999999N1-01031-01171999999ADDMA1999999072451MD1410001+9999ME1429359OA149900721REMSYN076AAXX  12094 06780 33/// /2004 11103 21117 37245 47935 57000 333 91114 91210;EQDQ01+000072APCTEN
0137067800999992010011210004+46833+009817FM-12+269099999V0201701N002119999999N9999999N1-00931-01161999999ADDMA1999999072421MD1710031+9999ME1429339OA149900361REMSYN076AAXX  12104 06780 33/// /1704 11093 21116 37242 47933 57003 333 91107 91205;
0137067800999992010011211004+46833+009817FM-12+269099999V0201501N004619999999N9999999N1-00841-01321999999ADDMA1999999072371MD1810081+9999ME1429289OA149900621REMSYN076AAXX  12114 06780 33/// /1509 11084 21132 37237 47928 58008 333 91112 91209;
0137067800999992010011212004+46833+009817FM-12+269099999V0201501N005719999999N9999999N1-00851-01411999999ADDMA1999999072291MD1810161+9999ME1429209OA149900821REMSYN076AAXX  12124 06780 33/// /1511 11085 21141 37229 47920 58016 333 91116 91212;
0137067800999992010011213004+46833+009817FM-12+269099999V0201601N004619999999N9999999N1-00921-01101999999ADDMA1999999072261MD1610161+9999ME1429169OA149900821REMSYN076AAXX  12134 06780 33/// /1609 11092 21110 37226 47916 56016 333 91116 91211;
0096067800999992010011214004+46833+009817FM-12+269099999V0201601N005119999999N9999999N1-00941-01301999999ADDMA1999999072241ME1429149REMSYN060AAXX  12144 06780 33/// /1610 11094 21130 37224 47914 5////;
0137067800999992010011215004+46833+009817FM-12+269099999V0201701N004619999999N9999999N1-01011-01241999999ADDMA1999999072251MD1710041+9999ME1429149OA149900821REMSYN076AAXX  12154 06780 33/// /1709 11101 21124 37225 47914 57004 333 91116 91211;
0137067800999992010011216004+46833+009817FM-12+269099999V0201701N006719999999N9999999N1-01091-01281999999ADDMA1999999072181MD1710081+9999ME1429069OA149900821REMSYN076AAXX  12164 06780 33/// /1713 11109 21128 37218 47906 57008 333 91116 91213;
0137067800999992010011217004+46833+009817FM-12+269099999V0201601N006219999999N9999999N1-01131-01521999999ADDMA1999999072161MD1710081+9999ME1429039OA149900931REMSYN076AAXX  12174 06780 33/// /1612 11113 21152 37216 47903 57008 333 91118 91213;
0156067800999992010011218004+46833+009817FM-12+269099999V0201701N005719999999N9999999N1-01171-01381999999ADDKA1120M-00841MA1999999072141MD1710111+9999ME1429019OA149900931REMSYN082AAXX  12184 06780 33/// /1711 11117 21138 37214 47901 57011 333 11084 91118 91213;
0137067800999992010011219004+46833+009817FM-12+269099999V0201801N005119999999N9999999N1-01241-01561999999ADDMA1999999072151MD1510031+9999ME1429019OA149900881REMSYN076AAXX  12194 06780 33/// /1810 11124 21156 37215 47901 55003 333 91117 91213;
0137067800999992010011220004+46833+009817FM-12+269099999V0201801N005119999999N9999999N1-01111-01751999999ADDMA1999999072151MD1510011+9999ME1429029OA149901031REMSYN076AAXX  12204 06780 33/// /1810 11111 21175 37215 47902 55001 333 91120 91213;
0137067800999992010011221004+46833+009817FM-12+269099999V0201801N007719999999N9999999N1-01191-01801999999ADDMA1999999072131MD1810011+9999ME1429009OA149901181REMSYN076AAXX  12214 06780 33/// /1815 11119 21180 37213 47900 58001 333 91123 91216;
0137067800999992010011222004+46833+009817FM-12+269099999V0202001N007719999999N9999999N1-01281-01691999999ADDMA1999999072081MD1710071+9999ME1428939OA149901181REMSYN076AAXX  12224 06780 33/// /2015 11128 21169 37208 47893 57007 333 91123 91216;
0137067800999992010011223004+46833+009817FM-12+269099999V0202001N007719999999N9999999N1-01291-01631999999ADDMA1999999072051MD1710101+9999ME1428909OA149901391REMSYN076AAXX  12234 06780 33/// /2015 11129 21163 37205 47890 57010 333 91127 91221;
0137067800999992010011300004+46833+009817FM-12+269099999V0201901N006719999999N9999999N1-01301-01641999999ADDMA1999999072001MD1810131+9999ME1428859OA149901391REMSYN076AAXX  13004 06780 33/// /1913 11130 21164 37200 47885 58013 333 91127 91221;
0137067800999992010011301004+46833+009817FM-12+269099999V0201801N007719999999N9999999N1-01261-01631999999ADDMA1999999072001MD1710081+9999ME1428859OA149901181REMSYN076AAXX  13014 06780 33/// /1815 11126 21163 37200 47885 57008 333 91123 91216;
0137067800999992010011302004+46833+009817FM-12+269099999V0201701N007719999999N9999999N1-01281-01551999999ADDMA1999999072011MD1519999+9999ME1428869OA149901241REMSYN076AAXX  13024 06780 33/// /1715 11128 21155 37201 47886 55/// 333 91124 91220;
0137067800999992010011303004+46833+009817FM-12+269099999V0201801N005719999999N9999999N1-01301-01581999999ADDMA1999999072011MD1219999+9999ME1428869OA149901391REMSYN076AAXX  13034 06780 33/// /1811 11130 21158 37201 47886 52/// 333 91127 91221;
0137067800999992010011304004+46833+009817FM-12+269099999V0201801N004619999999N9999999N1-01211-01551999999ADDMA1999999071951MD1810051+9999ME1428809OA149901081REMSYN076AAXX  13044 06780 33/// /1809 11121 21155 37195 47880 58005 333 91121 91215;
0137067800999992010011305004+46833+009817FM-12+269099999V0202001N005119999999N9999999N1-01201-01611999999ADDMA1999999071931MD1710081+9999ME1428789OA149900881REMSYN076AAXX  13054 06780 33/// /2010 11120 21161 37193 47878 57008 333 91117 91211;
0216067800999992010011306004+46833+009817FM-12+269099999V0201901N006219999999N9999999N1-01131-01471999999ADDAA124000091AL19900091GJ103729KA1999N-01341MA1999999071941MD1510071+9999ME1428809OA149901391REMSYN094AAXX  13064 06780 33/// /1912 11113 21147 37194 47880 55007 333 21134 55062 70000 91127 91221;EQDQ01  00002PRCP24
0137067800999992010011307004+46833+009817FM-12+269099999V0202201N004619999999N9999999N1-01131-01491999999ADDMA1999999071991MD1310041+9999ME1428859OA149900981REMSYN076AAXX  13074 06780 33/// /2209 11113 21149 37199 47885 53004 333 91119 91214;
0137067800999992010011308004+46833+009817FM-12+269099999V0202001N004119999999N9999999N1-01101-01491999999ADDMA1999999072031MD1310101+9999ME1428909OA149900821REMSYN076AAXX  13084 06780 33/// /2008 11110 21149 37203 47890 53010 333 91116 91211;
0137067800999992010011309004+46833+009817FM-12+269099999V0201101N001019999999N9999999N1-01091-01341999999ADDMA1999999072061MD1110121+9999ME1428939OA149900981REMSYN076AAXX  13094 06780 33/// /1102 11109 21134 37206 47893 51012 333 91119 91214;
0137067800999992010011310004+46833+009817FM-12+269099999V0202301N002119999999N9999999N1-01061-01471999999ADDMA1999999072091MD1110101+9999ME1428969OA149900461REMSYN076AAXX  13104 06780 33/// /2304 11106 21147 37209 47896 51010 333 91109 91207;
0137067800999992010011311004+46833+009817FM-12+269099999V0201801N002119999999N9999999N1-00991-01301999999ADDMA1999999072091MD1210061+9999ME1428979OA149900311REMSYN076AAXX  13114 06780 33/// /1804 11099 21130 37209 47897 52006 333 91106 91205;
0137067800999992010011312004+46833+009817FM-12+269099999V0202201N003119999999N9999999N1-00991-01201999999ADDMA1999999072081MD1010021+9999ME1428969OA149901241REMSYN076AAXX  13124 06780 33/// /2206 11099 21120 37208 47896 50002 333 91124 91220;
0137067800999992010011313004+46833+009817FM-12+269099999V0201701N001519999999N9999999N1-00941-01121999999ADDMA1999999072071MD1710021+9999ME1428959OA149900411REMSYN076AAXX  13134 06780 33/// /1703 11094 21112 37207 47895 57002 333 91108 91206;
0137067800999992010011314004+46833+009817FM-12+269099999V0202001N001519999999N9999999N1-00941-01081999999ADDMA1999999072091MD1519999+9999ME1428989OA149900311REMSYN076AAXX  13144 06780 33/// /2003 11094 21108 37209 47898 55/// 333 91106 91206;
0137067800999992010011315004+46833+009817FM-12+269099999V0201701N001519999999N9999999N1-00891-01031999999ADDMA1999999072111MD1210031+9999ME1429009OA149900411REMSYN076AAXX  13154 06780 33/// /1703 11089 21103 37211 47900 52003 333 91108 91206;
0137067800999992010011316004+46833+009817FM-12+269099999V0201801N000519999999N9999999N1-00921-01011999999ADDMA1999999072141MD1310071+9999ME1429039OA149900211REMSYN076AAXX  13164 06780 33/// /1801 11092 21101 37214 47903 53007 333 91104 91203;
0137067800999992010011317004+46833+009817FM-12+269099999V0209999C000019999999N9999999N1-00951-00991999999ADDMA1999999072171MD1310081+9999ME1429069OA149900411REMSYN076AAXX  13174 06780 33/// /0000 11095 21099 37217 47906 53008 333 91108 91203;
0198067800999992010011318004+46833+009817FM-12+269099999V0200801N001019999999N9999999N1-00951-00981999999ADDAA112000091KA1120M-00881MA1999999072201MD1110091+9999ME1429099OA149900821REMSYN094AAXX  13184 06780 03/// /0802 11095 21098 37220 47909 51009 69922 333 11088 69925 91116 91211;EQDQ01  00002PRCP12
0154067800999992010011319004+46833+009817FM-12+269099999V0200101N001519999999N9999999N1-00901-00991999999ADDAA101000021MA1999999072221MD1119999+9999ME1429129OA149900411REMSYN082AAXX  13194 06780 23/// /0103 11090 21099 37222 47912 51/// 333 69925 91108 91203;
0096067800999992010011400004+46833+009817FM-12+269099999V0203101N002119999999N9999999N1-00941-01171999999ADDMA1999999072201ME1429099REMSYN060AAXX  14004 06780 43/// /3104 11094 21117 37220 47909 5////;
0137067800999992010011401004+46833+009817FM-12+269099999V0203401N001519999999N9999999N1-00941-01141999999ADDMA1999999072171MD1819999+9999ME1429069OA149900361REMSYN076AAXX  14014 06780 33/// /3403 11094 21114 37217 47906 58/// 333 91107 91206;
0137067800999992010011402004+46833+009817FM-12+269099999V0201701N002119999999N9999999N1-00891-01111999999ADDMA1999999072161MD1619999+9999ME1429059OA149900361REMSYN076AAXX  14024 06780 33/// /1704 11089 21111 37216 47905 56/// 333 91107 91205;
0096067800999992010011403004+46833+009817FM-12+269099999V0201501N003619999999N9999999N1-00901-01161999999ADDMA1999999072121ME1429019REMSYN060AAXX  14034 06780 33/// /1507 11090 21116 37212 47901 5////;
0137067800999992010011404004+46833+009817FM-12+269099999V0201701N003119999999N9999999N1-00891-01181999999ADDMA1999999072091MD1810081+9999ME1428989OA149900411REMSYN076AAXX  14044 06780 33/// /1706 11089 21118 37209 47898 58008 333 91108 91207;
0137067800999992010011405004+46833+009817FM-12+269099999V0201901N003619999999N9999999N1-00911-01221999999ADDMA1999999072081MD1610081+9999ME1428979OA149900511REMSYN076AAXX  14054 06780 33/// /1907 11091 21122 37208 47897 56008 333 91110 91207;
0220067800999992010011406004+46833+009817FM-12+269099999V0201801N004119999999N9999999N1-00951-01221999999ADDAA112000591AA224000891AL14800091GJ100189KA1999N-01001MA1999999072101MD1510021+9999ME1428999OA149900771REMSYN106AAXX  14064 06780 03/// /1808 11095 21122 37210 47899 55002 69962 333 21100 55003 60005 70008 91115 91211;
0137067800999992010011407004+46833+009817FM-12+269099999V0201801N005119999999N9999999N1-00961-01191999999ADDMA1999999072111MD1310021+9999ME1428999OA149900821REMSYN076AAXX  14074 06780 33/// /1810 11096 21119 37211 47899 53002 333 91116 91213;
0137067800999992010011408004+46833+009817FM-12+269099999V0201801N005719999999N9999999N1-00931-01211999999ADDMA1999999072111MD1219999+9999ME1429009OA149900821REMSYN076AAXX  14084 06780 33/// /1811 11093 21121 37211 47900 52/// 333 91116 91213;
0137067800999992010011409004+46833+009817FM-12+269099999V0201801N006219999999N9999999N1-00941-01241999999ADDMA1999999072131MD1210031+9999ME1429029OA149900931REMSYN076AAXX  14094 06780 33/// /1812 11094 21124 37213 47902 52003 333 91118 91213;
0137067800999992010011410004+46833+009817FM-12+269099999V0202001N004619999999N9999999N1-00891-01311999999ADDMA1999999072161MD1210051+9999ME1429059OA149900931REMSYN076AAXX  14104 06780 33/// /2009 11089 21131 37216 47905 52005 333 91118 91213;
0137067800999992010011411004+46833+009817FM-12+269099999V0201801N005119999999N9999999N1-00811-01411999999ADDMA1999999072121MD1010011+9999ME1429029OA149900881REMSYN076AAXX  14114 06780 33/// /1810 11081 21141 37212 47902 50001 333 91117 91213;
0137067800999992010011412004+46833+009817FM-12+269099999V0201701N005119999999N9999999N1-00851-01141999999ADDMA1999999072091MD1810041+9999ME1428989OA149900931REMSYN076AAXX  14124 06780 33/// /1710 11085 21114 37209 47898 58004 333 91118 91213;
0137067800999992010011413004+46833+009817FM-12+269099999V0201701N003119999999N9999999N1-00861-01171999999ADDMA1999999072081MD1710081+9999ME1428979OA149900771REMSYN076AAXX  14134 06780 33/// /1706 11086 21117 37208 47897 57008 333 91115 91210;
0137067800999992010011414004+46833+009817FM-12+269099999V0202101N007219999999N9999999N1-00851-01491999999ADDMA1999999072081MD1710041+9999ME1428979OA149901081REMSYN076AAXX  14144 06780 33/// /2114 11085 21149 37208 47897 57004 333 91121 91214;
0137067800999992010011415004+46833+009817FM-12+269099999V0201901N005719999999N9999999N1-00981-01341999999ADDMA1999999072081MD1710011+9999ME1428969OA149901081REMSYN076AAXX  14154 06780 33/// /1911 11098 21134 37208 47896 57001 333 91121 91214;
0137067800999992010011416004+46833+009817FM-12+269099999V0202001N006219999999N9999999N1-01061-01271999999ADDMA1999999072111MD1210031+9999ME1428999OA149900981REMSYN076AAXX  14164 06780 33/// /2012 11106 21127 37211 47899 52003 333 91119 91213;
0137067800999992010011417004+46833+009817FM-12+269099999V0201801N006719999999N9999999N1-01001-01371999999ADDMA1999999072141MD1210061+9999ME1429029OA149900981REMSYN076AAXX  14174 06780 33/// /1813 11100 21137 37214 47902 52006 333 91119 91213;
0156067800999992010011418004+46833+009817FM-12+269099999V0202001N005719999999N9999999N1-00911-01621999999ADDKA1120M-00761MA1999999072201MD1310121+9999ME1429109OA149901081REMSYN082AAXX  14184 06780 33/// /2011 11091 21162 37220 47910 53012 333 11076 91121 91214;
0137067800999992010011419004+46833+009817FM-12+269099999V0202101N005719999999N9999999N1-00871-01511999999ADDMA1999999072251MD1310141+9999ME1429159OA149900931REMSYN076AAXX  14194 06780 33/// /2111 11087 21151 37225 47915 53014 333 91118 91214;
0137067800999992010011420004+46833+009817FM-12+269099999V0202101N005719999999N9999999N1-00831-01471999999ADDMA1999999072281MD1110141+9999ME1429199OA149900821REMSYN076AAXX  14204 06780 33/// /2111 11083 21147 37228 47919 51014 333 91116 91214;
0137067800999992010011421004+46833+009817FM-12+269099999V0202301N004619999999N9999999N1-00781-01521999999ADDMA1999999072331MD1310131+9999ME1429259OA149900981REMSYN076AAXX  14214 06780 33/// /2309 11078 21152 37233 47925 53013 333 91119 91214;
0137067800999992010011422004+46833+009817FM-12+269099999V0202101N005119999999N9999999N1-00761-01511999999ADDMA1999999072391MD1310141+9999ME1429319OA149900671REMSYN076AAXX  14224 06780 33/// /2110 11076 21151 37239 47931 53014 333 91113 91211;
0137067800999992010011423004+46833+009817FM-12+269099999V0202301N004619999999N9999999N1-00761-01481999999ADDMA1999999072431MD1110151+9999ME1429369OA149900671REMSYN076AAXX  14234 06780 33/// /2309 11076 21148 37243 47936 51015 333 91113 91211;
0137067800999992010011500004+46833+009817FM-12+269099999V0202401N004619999999N9999999N1-00761-01381999999ADDMA1999999072461MD1110131+9999ME1429399OA149901081REMSYN076AAXX  15004 06780 33/// /2409 11076 21138 37246 47939 51013 333 91121 91214;
0137067800999992010011501004+46833+009817FM-12+269099999V0202501N004119999999N9999999N1-00741-01351999999ADDMA1999999072481MD1110091+9999ME1429419OA149900621REMSYN076AAXX  15014 06780 33/// /2508 11074 21135 37248 47941 51009 333 91112 91210;
0137067800999992010011502004+46833+009817FM-12+269099999V0203101N003119999999N9999999N1-00821-01531999999ADDMA1999999072531MD1310101+9999ME1429469OA149900511REMSYN076AAXX  15024 06780 33/// /3106 11082 21153 37253 47946 53010 333 91110 91209;
0096067800999992010011503004+46833+009817FM-12+269099999V0203301N006219999999N9999999N1-00791-01631999999ADDMA1999999072581ME1429519REMSYN060AAXX  15034 06780 33/// /3312 11079 21163 37258 47951 5////;
0137067800999992010011504004+46833+009817FM-12+269099999V0203301N005719999999N9999999N1-00861-01651999999ADDMA1999999072611MD1110131+9999ME1429549OA149900821REMSYN076AAXX  15044 06780 33/// /3311 11086 21165 37261 47954 51013 333 91116 91214;
0137067800999992010011505004+46833+009817FM-12+269099999V0203601N004619999999N9999999N1-00831-01701999999ADDMA1999999072671MD1310141+9999ME1429609OA149900821REMSYN076AAXX  15054 06780 33/// /3609 11083 21170 37267 47960 53014 333 91116 91214;
0216067800999992010011506004+46833+009817FM-12+269099999V0200601N004119999999N9999999N1-00961-01681999999ADDAA124000091AL19900091GJ104569KA1999N-00941MA1999999072761MD1310181+9999ME1429689OA149900821REMSYN094AAXX  15064 06780 33/// /0608 11096 21168 37276 47968 53018 333 21094 55076 70000 91116 91214;EQDQ01  00002PRCP24
0137067800999992010011507004+46833+009817FM-12+269099999V0200301N004119999999N9999999N1-00871-01911999999ADDMA1999999072831MD1210221+9999ME1429779OA149900721REMSYN076AAXX  15074 06780 33/// /0308 11087 21191 37283 47977 52022 333 91114 91210;
0137067800999992010011508004+46833+009817FM-12+269099999V0200101N003619999999N9999999N1-00881-02141999999ADDMA1999999072911MD1119999+9999ME1429859OA149900721REMSYN076AAXX  15084 06780 33/// /0107 11088 21214 37291 47985 51/// 333 91114 91210;
0137067800999992010011509004+46833+009817FM-12+269099999V0200401N004119999999N9999999N1-00841-01631999999ADDMA1999999072971MD1110211+9999ME1429929OA149900821REMSYN076AAXX  15094 06780 33/// /0408 11084 21163 37297 47992 51021 333 91116 91214;
0137067800999992010011510004+46833+009817FM-12+269099999V0200401N003619999999N9999999N1-00791-01691999999ADDMA1999999073041MD1210211+9999ME1430009OA149900671REMSYN076AAXX  15104 06780 33/// /0407 11079 21169 37304 47000 52021 333 91113 91211;
0137067800999992010011511004+46833+009817FM-12+269099999V0200401N003619999999N9999999N1-00711-01811999999ADDMA1999999073051MD1210141+9999ME1430029OA149900671REMSYN076AAXX  15114 06780 33/// /0407 11071 21181 37305 47002 52014 333 91113 91211;
0137067800999992010011512004+46833+009817FM-12+269099999V0200401N004619999999N9999999N1-00761-01871999999ADDMA1999999073071MD1210101+9999ME1430049OA149900821REMSYN076AAXX  15124 06780 33/// /0409 11076 21187 37307 47004 52010 333 91116 91214;
0137067800999992010011513004+46833+009817FM-12+269099999V0200301N003619999999N9999999N1-00801-01661999999ADDMA1999999073091MD1210051+9999ME1430059OA149900571REMSYN076AAXX  15134 06780 33/// /0307 11080 21166 37309 47005 52005 333 91111 91209;
0137067800999992010011514004+46833+009817FM-12+269099999V0203401N005119999999N9999999N1-00861-01551999999ADDMA1999999073141MD1310091+9999ME1430109OA149900671REMSYN076AAXX  15144 06780 33/// /3410 11086 21155 37314 47010 53009 333 91113 91210;
0137067800999992010011515004+46833+009817FM-12+269099999V0203401N004119999999N9999999N1-00901-01541999999ADDMA1999999073221MD1310151+9999ME1430189OA149900671REMSYN076AAXX  15154 06780 33/// /3408 11090 21154 37322 47018 53015 333 91113 91211;
0137067800999992010011516004+46833+009817FM-12+269099999V0200201N002619999999N9999999N1-00951-01571999999ADDMA1999999073261MD1110171+9999ME1430219OA149900671REMSYN076AAXX  15164 06780 33/// /0205 11095 21157 37326 47021 51017 333 91113 91211;
0137067800999992010011517004+46833+009817FM-12+269099999V0200201N003119999999N9999999N1-00971-01381999999ADDMA1999999073301MD1110161+9999ME1430259OA149900511REMSYN076AAXX  15174 06780 33/// /0206 11097 21138 37330 47025 51016 333 91110 91209;
0156067800999992010011518004+46833+009817FM-12+269099999V0200101N004119999999N9999999N1-00971-01351999999ADDKA1120M-00711MA1999999073351MD1310131+9999ME1430309OA149900721REMSYN082AAXX  15184 06780 33/// /0108 11097 21135 37335 47030 53013 333 11071 91114 91211;
0137067800999992010011519004+46833+009817FM-12+269099999V0200701N002619999999N9999999N1-01001-01551999999ADDMA1999999073361MD1110101+9999ME1430319OA149900511REMSYN076AAXX  15194 06780 33/// /0705 11100 21155 37336 47031 51010 333 91110 91209;
0137067800999992010011520004+46833+009817FM-12+269099999V0200501N003619999999N9999999N1-00961-01771999999ADDMA1999999073371MD1110071+9999ME1430329OA149900511REMSYN076AAXX  15204 06780 33/// /0507 11096 21177 37337 47032 51007 333 91110 91209;
0137067800999992010011521004+46833+009817FM-12+269099999V0200701N003119999999N9999999N1-00871-02461999999ADDMA1999999073381MD1110031+9999ME1430359OA149900511REMSYN076AAXX  15214 06780 33/// /0706 11087 21246 37338 47035 51003 333 91110 91209;
0137067800999992010011522004+46833+009817FM-12+269099999V0200801N003119999999N9999999N1-00831-02691999999ADDMA1999999073391MD1310031+9999ME1430369OA149900511REMSYN076AAXX  15224 06780 33/// /0806 11083 21269 37339 47036 53003 333 91110 91208;
0137067800999992010011523004+46833+009817FM-12+269099999V0200801N002619999999N9999999N1-00861-02051999999ADDMA1999999073401MD1310031+9999ME1430379OA149900361REMSYN076AAXX  15234 06780 33/// /0805 11086 21205 37340 47037 53003 333 91107 91206;
0137067800999992010011600004+46833+009817FM-12+269099999V0200401N002119999999N9999999N1-00741-02131999999ADDMA1999999073391MD1010011+9999ME1430389OA149900671REMSYN076AAXX  16004 06780 33/// /0404 11074 21213 37339 47038 50001 333 91113 91211;
0156067800999992010011601004+46833+009817FM-12+269099999V0200601N002619999999N9999999N1-00761-02952999999ADDMA1999999073381MD1810011+9999ME1430369OA149900361REMSYN076AAXX  16014 06780 33/// /0605 11076 21295 37338 47036 58001 333 91107 91206;EQDQ01-002953ATOD  
0137067800999992010011602004+46833+009817FM-12+269099999V0200701N002619999999N9999999N1-00761-02231999999ADDMA1999999073371MD1710031+9999ME1430359OA149900361REMSYN076AAXX  16024 06780 33/// /0705 11076 21223 37337 47035 57003 333 91107 91206;
0137067800999992010011603004+46833+009817FM-12+269099999V0209999C002619999999N9999999N1-00701-02281999999ADDMA1999999073361MD1719999+9999ME1430359OA149900361REMSYN076AAXX  16034 06780 33/// /0005 11070 21228 37336 47035 57/// 333 91107 91206;
0137067800999992010011604004+46833+009817FM-12+269099999V0200601N002119999999N9999999N1-00741-02911999999ADDMA1999999073341MD1710041+9999ME1430329OA149900311REMSYN076AAXX  16044 06780 33/// /0604 11074 21291 37334 47032 57004 333 91106 91206;
0137067800999992010011605004+46833+009817FM-12+269099999V0200101N001519999999N9999999N1-00671-02431999999ADDMA1999999073351MD1710021+9999ME1430349OA149900311REMSYN076AAXX  16054 06780 33/// /0103 11067 21243 37335 47034 57002 333 91106 91205;
0216067800999992010011606004+46833+009817FM-12+269099999V0200101N000519999999N9999999N1-00641-02791999999ADDAA124000091AL19900091GJ104629KA1999N-01011MA1999999073351MD1410001+9999ME1430359OA149900511REMSYN094AAXX  16064 06780 33/// /0101 11064 21279 37335 47035 54001 333 21101 55077 70000 91110 91209;EQDQ01  00002PRCP24
0137067800999992010011607004+46833+009817FM-12+269099999V0201801N001519999999N9999999N1-00681-02531999999ADDMA1999999073341MD1010001+9999ME1430339OA149900461REMSYN076AAXX  16074 06780 33/// /1803 11068 21253 37334 47033 50000 333 91109 91204;
0137067800999992010011608004+46833+009817FM-12+269099999V0202101N004119999999N9999999N1-00661-02011999999ADDMA1999999073331MD1710021+9999ME1430329OA149900571REMSYN076AAXX  16084 06780 33/// /2108 11066 21201 37333 47032 57002 333 91111 91209;
0156067800999992010011609004+46833+009817FM-12+269099999V0202001N004619999999N9999999N1-00601-02011999999ADDMA1999999073351MD1410001+9999ME1430359OA149900671REMSYN076AAXX  16094 06780 33/// /2009 11060 21201 37335 47035 53000 333 91113 91210;EQDQ01+000032APCTEN
0137067800999992010011610004+46833+009817FM-12+269099999V0202501N004619999999N9999999N1-00401-02781999999ADDMA1999999073321MD1810021+9999ME1430359OA149900721REMSYN076AAXX  16104 06780 33/// /2509 11040 21278 37332 47035 58002 333 91114 91211;
0137067800999992010011611004+46833+009817FM-12+269099999V0202401N004619999999N9999999N1-00401-02561999999ADDMA1999999073321MD1810011+9999ME1430359OA149900721REMSYN076AAXX  16114 06780 33/// /2409 11040 21256 37332 47035 58001 333 91114 91211;
0137067800999992010011612004+46833+009817FM-12+269099999V0202401N004619999999N9999999N1-00261-02901999999ADDMA1999999073271MD1710081+9999ME1430329OA149900721REMSYN076AAXX  16124 06780 33/// /2409 11026 21290 37327 47032 57008 333 91114 91211;
0137067800999992010011613004+46833+009817FM-12+269099999V0202201N005119999999N9999999N1-00241-02941999999ADDMA1999999073271MD1710051+9999ME1430329OA149900671REMSYN076AAXX  16134 06780 33/// /2210 11024 21294 37327 47032 57005 333 91113 91211;
0137067800999992010011614004+46833+009817FM-12+269099999V0202301N002619999999N9999999N1-00231-02951999999ADDMA1999999073261MD1719999+9999ME1430319OA149900571REMSYN076AAXX  16144 06780 33/// /2305 11023 21295 37326 47031 57/// 333 91111 91210;
0137067800999992010011615004+46833+009817FM-12+269099999V0202001N001519999999N9999999N1-00291-03081999999ADDMA1999999073241MD1710031+9999ME1430289OA149900721REMSYN076AAXX  16154 06780 33/// /2003 11029 21308 37324 47028 57003 333 91114 91211;
0137067800999992010011616004+46833+009817FM-12+269099999V0202101N004119999999N9999999N1-00321-03091999999ADDMA1999999073211MD1710061+9999ME1430249OA149900571REMSYN076AAXX  16164 06780 33/// /2108 11032 21309 37321 47024 57006 333 91111 91208;
0137067800999992010011617004+46833+009817FM-12+269099999V0201901N002619999999N9999999N1-00271-02801999999ADDMA1999999073231MD1510031+9999ME1430279OA149900571REMSYN076AAXX  16174 06780 33/// /1905 11027 21280 37323 47027 55003 333 91111 91208;
0156067800999992010011618004+46833+009817FM-12+269099999V0202101N004619999999N9999999N1-00321-03091999999ADDKA1120M-00191MA1999999073201MD1710041+9999ME1430239OA149900721REMSYN082AAXX  16184 06780 33/// /2109 11032 21309 37320 47023 57004 333 11019 91114 91211;
0137067800999992010011619004+46833+009817FM-12+269099999V0201801N005719999999N9999999N1-00321-02411999999ADDMA1999999073171MD1710041+9999ME1430209OA149900771REMSYN076AAXX  16194 06780 33/// /1811 11032 21241 37317 47020 57004 333 91115 91211;
0137067800999992010011620004+46833+009817FM-12+269099999V0201601N006719999999N9999999N1-00411-02051999999ADDMA1999999073101MD1710131+9999ME1430119OA149901131REMSYN076AAXX  16204 06780 33/// /1613 11041 21205 37310 47011 57013 333 91122 91215;
0137067800999992010011621004+46833+009817FM-12+269099999V0201701N007719999999N9999999N1-00501-01871999999ADDMA1999999073051MD1710151+9999ME1430059OA149901391REMSYN076AAXX  16214 06780 33/// /1715 11050 21187 37305 47005 57015 333 91127 91215;
0137067800999992010011622004+46833+009817FM-12+269099999V0201701N009319999999N9999999N1-00581-01521999999ADDMA1999999072981MD1710191+9999ME1429969OA149901541REMSYN076AAXX  16224 06780 33/// /1718 11058 21152 37298 47996 57019 333 91130 91218;
0137067800999992010011623004+46833+009817FM-12+269099999V0201801N009819999999N9999999N1-00601-01321999999ADDMA1999999072971MD1710131+9999ME1429959OA149901541REMSYN076AAXX  16234 06780 33/// /1819 11060 21132 37297 47995 57013 333 91130 91219;
0137067800999992010011700004+46833+009817FM-12+269099999V0201801N002619999999N9999999N1-00711-01171999999ADDMA1999999072981MD1710071+9999ME1429959OA149901541REMSYN076AAXX  17004 06780 33/// /1805 11071 21117 37298 47995 57007 333 91130 91219;
0137067800999992010011701004+46833+009817FM-12+269099999V0201901N002119999999N9999999N1-00881-00981999999ADDMA1999999073031MD1310051+9999ME1429989OA149901241REMSYN076AAXX  17014 06780 33/// /1904 11088 21098 37303 47998 53005 333 91124 91218;
0154067800999992010011702004+46833+009817FM-12+269099999V0201901N004119999999N9999999N1-00881-00971999999ADDAA101000391MA1999999073011MD1219999+9999ME1429969OA149900721REMSYN082AAXX  17024 06780 23/// /1908 11088 21097 37301 47996 52/// 333 69935 91114 91209;
0096067800999992010011703004+46833+009817FM-12+269099999V0202401N003119999999N9999999N1-00701-00891999999ADDMA1999999072981ME1429959REMSYN060AAXX  17034 06780 43/// /2406 11070 21089 37298 47995 5////;
0137067800999992010011704004+46833+009817FM-12+269099999V0202301N004119999999N9999999N1-00691-00921999999ADDMA1999999072951MD1610081+9999ME1429929OA149900881REMSYN076AAXX  17044 06780 33/// /2308 11069 21092 37295 47992 56008 333 91117 91209;
0137067800999992010011705004+46833+009817FM-12+269099999V0202601N004119999999N9999999N1-00641-00961999999ADDMA1999999072951MD1719999+9999ME1429929OA149901031REMSYN076AAXX  17054 06780 33/// /2608 11064 21096 37295 47992 57/// 333 91120 91212;
0220067800999992010011706004+46833+009817FM-12+269099999V0202701N003619999999N9999999N1-00671-00881999999ADDAA112000591AA224000591AL12400091GJ104149KA1999N-00921MA1999999072951MD1510031+9999ME1429929OA149901541REMSYN106AAXX  17064 06780 03/// /2707 11067 21088 37295 47992 55003 69942 333 21092 55069 69915 70004 91130 91219;
0137067800999992010011707004+46833+009817FM-12+269099999V0202601N005119999999N9999999N1-00701-00871999999ADDMA1999999072971MD1210021+9999ME1429949OA149901081REMSYN076AAXX  17074 06780 33/// /2610 11070 21087 37297 47994 52002 333 91121 91213;
0137067800999992010011708004+46833+009817FM-12+269099999V0202701N004119999999N9999999N1-00681-00961999999ADDMA1999999073001MD1219999+9999ME1429979OA149901081REMSYN076AAXX  17084 06780 33/// /2708 11068 21096 37300 47997 52/// 333 91121 91212;
0137067800999992010011709004+46833+009817FM-12+269099999V0203001N005719999999N9999999N1-00721-00851999999ADDMA1999999073031MD1210081+9999ME1430009OA149901081REMSYN076AAXX  17094 06780 33/// /3011 11072 21085 37303 47000 52008 333 91121 91213;
0137067800999992010011710004+46833+009817FM-12+269099999V0202401N003119999999N9999999N1-00681-00921999999ADDMA1999999073061MD1210091+9999ME1430049OA149901081REMSYN076AAXX  17104 06780 33/// /2406 11068 21092 37306 47004 52009 333 91121 91211;
0154067800999992010011711004+46833+009817FM-12+269099999V0202501N002119999999N9999999N1-00711-00891999999ADDAA101000021MA1999999073061MD1210061+9999ME1430039OA149901081REMSYN082AAXX  17114 06780 23/// /2504 11071 21089 37306 47003 52006 333 69915 91121 91211;
0160067800999992010011712004+46833+009817FM-12+269099999V0203001N007219999999N9999999N1-00741-00901999999ADDAA106000891MA1999999073061MD1210031+9999ME1430039OA149901341REMSYN088AAXX  17124 06780 03/// /3014 11074 21090 37306 47003 52003 69981 333 69975 91126 91214;
0154067800999992010011713004+46833+009817FM-12+269099999V0203201N006219999999N9999999N1-00801-00851999999ADDAA101000021MA1999999073081MD1210021+9999ME1430049OA149901601REMSYN082AAXX  17134 06780 23/// /3212 11080 21085 37308 47004 52002 333 69925 91131 91219;
0137067800999992010011714004+46833+009817FM-12+269099999V0203301N009319999999N9999999N1-00861-00891999999ADDMA1999999073111MD1219999+9999ME1430069OA149901601REMSYN076AAXX  17144 06780 33/// /3318 11086 21089 37311 47006 52/// 333 91131 91219;
0137067800999992010011715004+46833+009817FM-12+269099999V0203201N007719999999N9999999N1-00971-01051999999ADDMA1999999073171MD1310111+9999ME1430119OA149901601REMSYN076AAXX  17154 06780 33/// /3215 11097 21105 37317 47011 53011 333 91131 91219;
0137067800999992010011716004+46833+009817FM-12+269099999V0203201N004619999999N9999999N1-01001-01031999999ADDMA1999999073211MD1110131+9999ME1430159OA149901441REMSYN076AAXX  17164 06780 33/// /3209 11100 21103 37321 47015 51013 333 91128 91219;
0137067800999992010011717004+46833+009817FM-12+269099999V0203201N007719999999N9999999N1-01071-01071999999ADDMA1999999073241MD1110131+9999ME1430179OA149901491REMSYN076AAXX  17174 06780 33/// /3215 11107 21107 37324 47017 51013 333 91129 91216;
0179067800999992010011718004+46833+009817FM-12+269099999V0203301N009319999999N9999999N1-01091-01151999999ADDAA112001091KA1120M-00671MA1999999073291MD1210121+9999ME1430229OA149901601REMSYN094AAXX  17184 06780 03/// /3318 11109 21115 37329 47022 52012 60012 333 11067 60005 91131 91219;
0137067800999992010011719004+46833+009817FM-12+269099999V0203301N009319999999N9999999N1-01111-01111999999ADDMA1999999073321MD1210111+9999ME1430259OA149901961REMSYN076AAXX  17194 06780 33/// /3318 11111 21111 37332 47025 52011 333 91138 91222;
0137067800999992010011720004+46833+009817FM-12+269099999V0203201N011319999999N9999999N1-01151-01151999999ADDMA1999999073331MD1210091+9999ME1430269OA149901961REMSYN076AAXX  17204 06780 33/// /3222 11115 21115 37333 47026 52009 333 91138 91222;
0137067800999992010011721004+46833+009817FM-12+269099999V0203301N011319999999N9999999N1-01131-01131999999ADDMA1999999073351MD1210061+9999ME1430289OA149901961REMSYN076AAXX  17214 06780 33/// /3322 11113 21113 37335 47028 52006 333 91138 91222;
0137067800999992010011722004+46833+009817FM-12+269099999V0203301N007219999999N9999999N1-01191-01271999999ADDMA1999999073361MD1210041+9999ME1430289OA149901601REMSYN076AAXX  17224 06780 33/// /3314 11119 21127 37336 47028 52004 333 91131 91222;
0137067800999992010011723004+46833+009817FM-12+269099999V0203201N009819999999N9999999N1-01151-01151999999ADDMA1999999073371MD1210041+9999ME1430309OA149901541REMSYN076AAXX  17234 06780 33/// /3219 11115 21115 37337 47030 52004 333 91130 91221;
0137067800999992010011800004+46833+009817FM-12+269099999V0203301N009819999999N9999999N1-01161-01251999999ADDMA1999999073361MD1010011+9999ME1430299OA149901961REMSYN076AAXX  18004 06780 33/// /3319 11116 21125 37336 47029 50001 333 91138 91222;
