0149067820999992011010100004+46700+008850FM-12+118099999V0209999C000519999999N9999999N1-00251-00881999999ADDMA1999999088281MD1710091+9999ME1314989OA149900151REMSYN088AAXX  01004 06782 33/// /0001 11025 21088 38828 48498 57009 333 55300 20000 91103 91202;
0149067820999992011010101004+46700+008850FM-12+118099999V0202901N000519999999N9999999N1-00281-00931999999ADDMA1999999088241MD1610131+9999ME1314949OA149900151REMSYN088AAXX  01014 06782 33/// /2901 11028 21093 38824 48494 56013 333 553// 20000 91103 91201;
0149067820999992011010102004+46700+008850FM-12+118099999V0203501N000519999999N9999999N1-00241-00921999999ADDMA1999999088221MD1610121+9999ME1314939OA149900101REMSYN088AAXX  01024 06782 33/// /3501 11024 21092 38822 48493 56012 333 55300 20000 91102 91201;
0149067820999992011010103004+46700+008850FM-12+118099999V0203001N000519999999N9999999N1-00301-00971999999ADDMA1999999088201MD1610081+9999ME1314909OA149900151REMSYN088AAXX  01034 06782 33/// /3001 11030 21097 38820 48490 56008 333 55300 20000 91103 91201;
0149067820999992011010104004+46700+008850FM-12+118099999V0200101N000519999999N9999999N1-00331-01071999999ADDMA1999999088151MD1810091+9999ME1314869OA149900211REMSYN088AAXX  01044 06782 33/// /0101 11033 21107 38815 48486 58009 333 55300 20000 91104 91202;
0149067820999992011010105004+46700+008850FM-12+118099999V0203101N000519999999N9999999N1-00291-01041999999ADDMA1999999088131MD1610091+9999ME1314849OA149900211REMSYN088AAXX  01054 06782 33/// /3101 11029 21104 38813 48484 56009 333 55300 20000 91104 91202;
0216067820999992011010106004+46700+008850FM-12+118099999V0203301N000519999999N9999999N1-00311-01051999999ADDAL19900091GJ103069IA2999-00909KA1999N-00361MA1999999088151MD1510051+9999ME1314869OA149900211REMSYN112AAXX  01064 06782 33/// /3301 11031 21105 38815 48486 55005 333 21036 3/109 55051 55300 20000 70000 91104 91202;
0149067820999992011010107004+46700+008850FM-12+118099999V0200201N001019999999N9999999N1-00281-01211999999ADDMA1999999088171MD1210021+9999ME1314889OA149900151REMSYN088AAXX  01074 06782 33/// /0202 11028 21121 38817 48488 52002 333 55300 20000 91103 91202;
0149067820999992011010108004+46700+008850FM-12+118099999V0202601N000519999999N9999999N1-00301-01091999999ADDMA1999999088201MD1319999+9999ME1314909OA149900151REMSYN088AAXX  01084 06782 33/// /2601 11030 21109 38820 48490 53/// 333 55300 20029 91103 91202;
0096067820999992011010109004+46700+008850FM-12+118099999V0203001N000519999999N9999999N1-00291-01171999999ADDMA1999999088201ME1314909REMSYN060AAXX  01094 06782 43/// /3001 11029 21117 38820 48490 5////;
0096067820999992011010110004+46700+008850FM-12+118099999V0200101N000519999999N9999999N1-00161-01231999999ADDMA1999999088171ME1314899REMSYN060AAXX  01104 06782 43/// /0101 11016 21123 38817 48489 5////;
0149067820999992011010111004+46700+008850FM-12+118099999V0201601N000519999999N9999999N1-00021-00941999999ADDMA1999999088131MD1810071+9999ME1314879OA149900151REMSYN088AAXX  01114 06782 33/// /1601 11002 21094 38813 48487 58007 333 55307 2//// 91103 91202;
0096067820999992011010112004+46700+008850FM-12+118099999V0201001N000519999999N9999999N1+00061-00881999999ADDMA1999999088071ME1314839REMSYN060AAXX  01124 06782 43/// /1001 10006 21088 38807 48483 5////;
0096067820999992011010113004+46700+008850FM-12+118099999V0209999C000019999999N9999999N1+00081-00861999999ADDMA1999999088021ME1314789REMSYN060AAXX  01134 06782 43/// /0000 10008 21086 38802 48478 5////;
0096067820999992011010114004+46700+008850FM-12+118099999V0209999C000019999999N9999999N1+00061-00831999999ADDMA1999999087991ME1314759REMSYN060AAXX  01144 06782 43/// /0000 10006 21083 38799 48475 5////;
0096067820999992011010115004+46700+008850FM-12+118099999V0209999C000019999999N9999999N1+00031-00821999999ADDMA1999999088001ME1314769REMSYN060AAXX  01154 06782 43/// /0000 10003 21082 38800 48476 5////;
0096067820999992011010116004+46700+008850FM-12+118099999V0202901N000519999999N9999999N1-00071-00891999999ADDMA1999999088011ME1314769REMSYN060AAXX  01164 06782 43/// /2901 11007 21089 38801 48476 5////;
0096067820999992011010117004+46700+008850FM-12+118099999V0200201N000519999999N9999999N1-00101-00931999999ADDMA1999999087971ME1314729REMSYN060AAXX  01174 06782 43/// /0201 11010 21093 38797 48472 5////;
0096067820999992011010118004+46700+008850FM-12+118099999V0202401N000519999999N9999999N1-00241-00951999999ADDMA1999999087991ME1314729REMSYN060AAXX  01184 06782 43/// /2401 11024 21095 38799 48472 5////;
0112067820999992011010119004+46700+008850FM-12+118099999V0200901N000519999999N9999999N1-00461-00941999999ADDMA1999999088001ME1314719REMSYN076AAXX  01194 06782 33/// /0901 11046 21094 38800 48471 5//// 333 553// 20000;
0149067820999992011010120004+46700+008850FM-12+118099999V0209999C000019999999N9999999N1-00541-00841999999ADDMA1999999088041MD1210071+9999ME1314749OA149900151REMSYN088AAXX  01204 06782 33/// /0000 11054 21084 38804 48474 52007 333 55300 20000 91103 91201;
0149067820999992011010121004+46700+008850FM-12+118099999V0209999C000019999999N9999999N1-00571-00861999999ADDMA1999999088061MD1210071+9999ME1314759OA149900151REMSYN088AAXX  01214 06782 33/// /0000 11057 21086 38806 48475 52007 333 55300 20000 91103 91202;
0149067820999992011010122004+46700+008850FM-12+118099999V0209999C000019999999N9999999N1-00571-00911999999ADDMA1999999088041MD1010041+9999ME1314739OA149900151REMSYN088AAXX  01224 06782 33/// /0000 11057 21091 38804 48473 50004 333 55300 20000 91103 91201;
0149067820999992011010123004+46700+008850FM-12+118099999V0203001N000519999999N9999999N1-00551-00891999999ADDMA1999999087971MD1810071+9999ME1314679OA149900151REMSYN088AAXX  01234 06782 33/// /3001 11055 21089 38797 48467 58007 333 55300 20000 91103 91201;
0149067820999992011010200004+46700+008850FM-12+118099999V0209999C000019999999N9999999N1-00491-01001999999ADDMA1999999087891MD1810171+9999ME1314619OA149900151REMSYN088AAXX  02004 06782 33/// /0000 11049 21100 38789 48461 58017 333 55300 20000 91103 91202;
0149067820999992011010201004+46700+008850FM-12+118099999V0203201N000519999999N9999999N1-00481-01011999999ADDMA1999999087831MD1610211+9999ME1314559OA149900151REMSYN088AAXX  02014 06782 33/// /3201 11048 21101 38783 48455 56021 333 55300 20000 91103 91202;
0096067820999992011010202004+46700+008850FM-12+118099999V0202601N000519999999N9999999N1-00461-01121999999ADDMA1999999087851ME1314579REMSYN060AAXX  02024 06782 43/// /2601 11046 21112 38785 48457 5////;
0096067820999992011010203004+46700+008850FM-12+118099999V0200501N000519999999N9999999N1-00671-01101999999ADDMA1999999087831ME1314549REMSYN060AAXX  02034 06782 43/// /0501 11067 21110 38783 48454 5////;
0096067820999992011010204004+46700+008850FM-12+118099999V0209999C000019999999N9999999N1-00621-01091999999ADDMA1999999087801ME1314519REMSYN060AAXX  02044 06782 43/// /0000 11062 21109 38780 48451 5////;
0096067820999992011010205004+46700+008850FM-12+118099999V0200501N000519999999N9999999N1-00931-00981999999ADDMA1999999087901ME1314579REMSYN060AAXX  02054 06782 43/// /0501 11093 21098 38790 48457 5////;
0143067820999992011010206004+46700+008850FM-12+118099999V0209999C000019999999N9999999N1-00931-00971999999ADDIA2999-01209KA1999N-00951MA1999999087931ME1314609REMSYN082AAXX  02064 06782 43/// /0000 11093 21097 38793 48460 5//// 333 21095 3/112 55051;
0149067820999992011010207004+46700+008850FM-12+118099999V0209999C000019999999N9999999N1-00961-00981999999ADDMA1999999087951MD1210151+9999ME1314619OA149900211REMSYN088AAXX  02074 06782 33/// /0000 11096 21098 38795 48461 52015 333 55300 20000 91104 91201;
0149067820999992011010208004+46700+008850FM-12+118099999V0209999C000019999999N9999999N1-00981-01031999999ADDMA1999999088011MD1210111+9999ME1314669OA149900151REMSYN088AAXX  02084 06782 33/// /0000 11098 21103 38801 48466 52011 333 55300 20018 91103 91201;
0149067820999992011010209004+46700+008850FM-12+118099999V0202301N000519999999N9999999N1-01011-01081999999ADDMA1999999088051MD1210121+9999ME1314699OA149900211REMSYN088AAXX  02094 06782 33/// /2301 11101 21108 38805 48469 52012 333 55300 20072 91104 91202;
0149067820999992011010210004+46700+008850FM-12+118099999V0209999C000019999999N9999999N1-00681-00981999999ADDMA1999999088051MD1210101+9999ME1314739OA149900151REMSYN088AAXX  02104 06782 33/// /0000 11068 21098 38805 48473 52010 333 55302 20781 91103 91201;
0149067820999992011010211004+46700+008850FM-12+118099999V0209999C000019999999N9999999N1-00601-01021999999ADDMA1999999088021MD1010011+9999ME1314719OA149900151REMSYN088AAXX  02114 06782 33/// /0000 11060 21102 38802 48471 50001 333 55302 20644 91103 91201;
0149067820999992011010212004+46700+008850FM-12+118099999V0201201N000519999999N9999999N1-00471-00871999999ADDMA1999999087941MD1810111+9999ME1314659OA149900211REMSYN088AAXX  02124 06782 33/// /1201 11047 21087 38794 48465 58011 333 55300 20486 91104 91202;
0149067820999992011010213004+46700+008850FM-12+118099999V0201601N000519999999N9999999N1-00551-00831999999ADDMA1999999087951MD1710101+9999ME1314659OA149900151REMSYN088AAXX  02134 06782 33/// /1601 11055 21083 38795 48465 57010 333 55300 20371 91103 91201;
0112067820999992011010214004+46700+008850FM-12+118099999V0209999C000019999999N9999999N1-00541-00821999999ADDMA1999999087951ME1314669REMSYN076AAXX  02144 06782 33/// /0000 11054 21082 38795 48466 5//// 333 553// 20284;
0149067820999992011010215004+46700+008850FM-12+118099999V0209999C000019999999N9999999N1-00541-00771999999ADDMA1999999088001MD1310061+9999ME1314709OA149900151REMSYN088AAXX  02154 06782 33/// /0000 11054 21077 38800 48470 53006 333 55300 20133 91103 91201;
0149067820999992011010216004+46700+008850FM-12+118099999V0201001N000519999999N9999999N1-00561-00731999999ADDMA1999999088031MD1210081+9999ME1314729OA149900101REMSYN088AAXX  02164 06782 33/// /1001 11056 21073 38803 48472 52008 333 55300 20014 91102 91201;
0149067820999992011010217004+46700+008850FM-12+118099999V0200701N001519999999N9999999N1-00511-00661999999ADDMA1999999088071MD1210121+9999ME1314769OA149900361REMSYN088AAXX  02174 06782 33/// /0703 11051 21066 38807 48476 52012 333 55300 20000 91107 91203;
0168067820999992011010218004+46700+008850FM-12+118099999V0200701N001519999999N9999999N1-00541-00641999999ADDKA1120M-00461MA1999999088101MD1210101+9999ME1314799OA149900411REMSYN094AAXX  02184 06782 33/// /0703 11054 21064 38810 48479 52010 333 11046 55300 20000 91108 91204;
0149067820999992011010219004+46700+008850FM-12+118099999V0200701N001519999999N9999999N1-00521-00651999999ADDMA1999999088131MD1110101+9999ME1314829OA149900411REMSYN088AAXX  02194 06782 33/// /0703 11052 21065 38813 48482 51010 333 55300 20000 91108 91204;
0149067820999992011010220004+46700+008850FM-12+118099999V0200701N002119999999N9999999N1-00541-00681999999ADDMA1999999088161MD1210091+9999ME1314849OA149900461REMSYN088AAXX  02204 06782 33/// /0704 11054 21068 38816 48484 52009 333 55300 20000 91109 91205;
0149067820999992011010221004+46700+008850FM-12+118099999V0200201N001019999999N9999999N1-00531-00721999999ADDMA1999999088191MD1210091+9999ME1314879OA149900461REMSYN088AAXX  02214 06782 33/// /0202 11053 21072 38819 48487 52009 333 55300 20000 91109 91205;
0149067820999992011010222004+46700+008850FM-12+118099999V0200701N000519999999N9999999N1-00601-00741999999ADDMA1999999088211MD1210081+9999ME1314889OA149900411REMSYN088AAXX  02224 06782 33/// /0701 11060 21074 38821 48488 52008 333 55300 20000 91108 91204;
0149067820999992011010223004+46700+008850FM-12+118099999V0200801N001019999999N9999999N1-00611-00751999999ADDMA1999999088201MD1210041+9999ME1314879OA149900311REMSYN088AAXX  02234 06782 33/// /0802 11061 21075 38820 48487 52004 333 55300 20000 91106 91203;
0168067820999992011010300004+46700+008850FM-12+118099999V0200801N001519999999N9999999N1-00621-00771999999ADDMA1999999088191MD1410001+9999ME1314869OA149900461REMSYN088AAXX  03004 06782 33/// /0803 11062 21077 38819 48486 58000 333 55300 20000 91109 91205;EQDQ01+000082APCTEN
0155067820999992011010301004+46700+008850FM-12+118099999V0200601N001519999999N9999999N1-00621-00771999999ADDMA1999999088181MD1710031+9999ME1314859OA149900411REMSYN094AAXX  03014 06782 23/// /0603 11062 21077 38818 48485 57003 333 55300 20000 69915 91108 91203;
0149067820999992011010302004+46700+008850FM-12+118099999V0200501N001019999999N9999999N1-00641-00781999999ADDMA1999999088211MD1319999+9999ME1314879OA149900411REMSYN088AAXX  03024 06782 33/// /0502 11064 21078 38821 48487 53/// 333 55300 20000 91108 91203;
0096067820999992011010303004+46700+008850FM-12+118099999V0203501N000519999999N9999999N1-00631-00811999999ADDMA1999999088201ME1314879REMSYN060AAXX  03034 06782 43/// /3501 11063 21081 38820 48487 5////;
0149067820999992011010304004+46700+008850FM-12+118099999V0203001N000519999999N9999999N1-00641-00781999999ADDMA1999999088201MD1010021+9999ME1314879OA149900361REMSYN088AAXX  03044 06782 33/// /3001 11064 21078 38820 48487 50002 333 55300 20000 91107 91203;
0149067820999992011010305004+46700+008850FM-12+118099999V0209999C000019999999N9999999N1-00691-00911999999ADDMA1999999088181MD1610031+9999ME1314849OA149900211REMSYN088AAXX  03054 06782 33/// /0000 11069 21091 38818 48484 56003 333 55300 20000 91104 91201;
0258067820999992011010306004+46700+008850FM-12+118099999V0201001N001019999999N9999999N1-00691-00711999999ADDAA112000091AL10600091GJ100429IA2999-00809KA1999N-00701MA1999999088221MD1310021+9999ME1314889OA149900461REMSYN124AAXX  03064 06782 03/// /1002 11069 21071 38822 48488 53002 69912 333 21070 3/108 55007 55300 20000 60005 70001 91109 91205;EQDQ01  00002PRCP12
0149067820999992011010307004+46700+008850FM-12+118099999V0202401N000519999999N9999999N1-00731-01101999999ADDMA1999999088231MD1210031+9999ME1314889OA149900261REMSYN088AAXX  03074 06782 33/// /2401 11073 21110 38823 48488 52003 333 55300 20000 91105 91202;
0149067820999992011010308004+46700+008850FM-12+118099999V0209999C000019999999N9999999N1-00741-01181999999ADDMA1999999088261MD1119999+9999ME1314919OA149900261REMSYN088AAXX  03084 06782 33/// /0000 11074 21118 38826 48491 51/// 333 55300 20025 91105 91202;
0112067820999992011010309004+46700+008850FM-12+118099999V0209999C000019999999N9999999N1-00731-01201999999ADDMA1999999088281ME1314939REMSYN076AAXX  03094 06782 33/// /0000 11073 21120 38828 48493 5//// 333 553// 20198;
0149067820999992011010310004+46700+008850FM-12+118099999V0202101N001019999999N9999999N1-00691-01291999999ADDMA1999999088261MD1210031+9999ME1314919OA149900261REMSYN088AAXX  03104 06782 33/// /2102 11069 21129 38826 48491 52003 333 55300 20515 91105 91202;
0149067820999992011010311004+46700+008850FM-12+118099999V0201801N000519999999N9999999N1-00611-01261999999ADDMA1999999088211MD1810051+9999ME1314889OA149900261REMSYN088AAXX  03114 06782 33/// /1801 11061 21126 38821 48488 58005 333 55302 2//// 91105 91202;
0149067820999992011010312004+46700+008850FM-12+118099999V0201701N001019999999N9999999N1-00531-01191999999ADDMA1999999088151MD1810131+9999ME1314839OA149900411REMSYN088AAXX  03124 06782 33/// /1702 11053 21119 38815 48483 58013 333 55308 2//// 91108 91203;
0149067820999992011010313004+46700+008850FM-12+118099999V0201801N000519999999N9999999N1-00561-01181999999ADDMA1999999088121MD1710141+9999ME1314809OA149900311REMSYN088AAXX  03134 06782 33/// /1801 11056 21118 38812 48480 57014 333 55308 2//// 91106 91202;
0112067820999992011010314004+46700+008850FM-12+118099999V0201801N000519999999N9999999N1-00581-01191999999ADDMA1999999088101ME1314789REMSYN076AAXX  03144 06782 33/// /1801 11058 21119 38810 48478 5//// 333 553// 20972;
0112067820999992011010315004+46700+008850FM-12+118099999V0202201N000519999999N9999999N1-00671-01241999999ADDMA1999999088091ME1314779REMSYN076AAXX  03154 06782 33/// /2201 11067 21124 38809 48477 5//// 333 553// 20443;
0149067820999992011010316004+46700+008850FM-12+118099999V0209999C000019999999N9999999N1-00741-01311999999ADDMA1999999088091MD1710031+9999ME1314769OA149900211REMSYN088AAXX  03164 06782 33/// /0000 11074 21131 38809 48476 57003 333 55300 20025 91104 91202;
0149067820999992011010317004+46700+008850FM-12+118099999V0203501N000519999999N9999999N1-00791-01501999999ADDMA1999999088121MD1210021+9999ME1314789OA149900151REMSYN088AAXX  03174 06782 33/// /3501 11079 21150 38812 48478 52002 333 55300 20000 91103 91202;
0168067820999992011010318004+46700+008850FM-12+118099999V0209999C000019999999N9999999N1-00831-01501999999ADDKA1120M-00481MA1999999088131MD1210041+9999ME1314789OA149900311REMSYN094AAXX  03184 06782 33/// /0000 11083 21150 38813 48478 52004 333 11048 55300 20000 91106 91202;
0149067820999992011010319004+46700+008850FM-12+118099999V0203401N000519999999N9999999N1-00861-01641999999ADDMA1999999088111MD1010021+9999ME1314769OA149900151REMSYN088AAXX  03194 06782 33/// /3401 11086 21164 38811 48476 50002 333 55300 20000 91103 91201;
0149067820999992011010320004+46700+008850FM-12+118099999V0203501N000519999999N9999999N1-00921-01671999999ADDMA1999999088071MD1710051+9999ME1314729OA149900151REMSYN088AAXX  03204 06782 33/// /3501 11092 21167 38807 48472 57005 333 55300 20000 91103 91201;
0149067820999992011010321004+46700+008850FM-12+118099999V0202501N000519999999N9999999N1-00921-02181999999ADDMA1999999088061MD1810071+9999ME1314719OA149900151REMSYN088AAXX  03214 06782 33/// /2501 11092 21218 38806 48471 58007 333 55300 20000 91103 91202;
0149067820999992011010322004+46700+008850FM-12+118099999V0202401N000519999999N9999999N1-00961-02401999999ADDMA1999999088041MD1610071+9999ME1314699OA149900151REMSYN088AAXX  03224 06782 33/// /2401 11096 21240 38804 48469 56007 333 55300 20000 91103 91201;
0149067820999992011010323004+46700+008850FM-12+118099999V0200701N001019999999N9999999N1-00991-01801999999ADDMA1999999088001MD1810071+9999ME1314659OA149900261REMSYN088AAXX  03234 06782 33/// /0702 11099 21180 38800 48465 58007 333 55300 20000 91105 91202;
0149067820999992011010400004+46700+008850FM-12+118099999V0202801N000519999999N9999999N1-00861-01881999999ADDMA1999999087941MD1810121+9999ME1314619OA149900311REMSYN088AAXX  04004 06782 33/// /2801 11086 21188 38794 48461 58012 333 55300 20000 91106 91202;
0149067820999992011010401004+46700+008850FM-12+118099999V0203101N000519999999N9999999N1-00901-02111999999ADDMA1999999087901MD1710141+9999ME1314579OA149900311REMSYN088AAXX  04014 06782 33/// /3101 11090 21211 38790 48457 57014 333 55300 20000 91106 91203;
0149067820999992011010402004+46700+008850FM-12+118099999V0209999C000019999999N9999999N1-00851-02171999999ADDMA1999999087871MD1719999+9999ME1314559OA149900311REMSYN088AAXX  04024 06782 33/// /0000 11085 21217 38787 48455 57/// 333 55300 20000 91106 91203;
0149067820999992011010403004+46700+008850FM-12+118099999V0200401N001019999999N9999999N1-00871-01971999999ADDMA1999999087821MD1710121+9999ME1314519OA149900311REMSYN088AAXX  04034 06782 33/// /0402 11087 21197 38782 48451 57012 333 55300 20000 91106 91203;
0149067820999992011010404004+46700+008850FM-12+118099999V0202201N000519999999N9999999N1-00901-02381999999ADDMA1999999087831MD1710071+9999ME1314519OA149900261REMSYN088AAXX  04044 06782 33/// /2201 11090 21238 38783 48451 57007 333 55300 20000 91105 91202;
0149067820999992011010405004+46700+008850FM-12+118099999V0209999C000019999999N9999999N1-00901-01961999999ADDMA1999999087851MD1510021+9999ME1314539OA149900211REMSYN088AAXX  04054 06782 33/// /0000 11090 21196 38785 48453 55002 333 55300 20000 91104 91202;
0216067820999992011010406004+46700+008850FM-12+118099999V0203101N000519999999N9999999N1-00891-01991999999ADDAL19900091GJ102529IA2999-01609KA1999N-00991MA1999999087861MD1210041+9999ME1314549OA149900311REMSYN112AAXX  04064 06782 33/// /3101 11089 21199 38786 48454 52004 333 21099 3/116 55042 55300 20000 70000 91106 91203;
0149067820999992011010407004+46700+008850FM-12+118099999V0209999C000019999999N9999999N1-00891-02041999999ADDMA1999999087861MD1210031+9999ME1314549OA149900101REMSYN088AAXX  04074 06782 33/// /0000 11089 21204 38786 48454 52003 333 55300 20000 91102 91201;
0149067820999992011010408004+46700+008850FM-12+118099999V0200401N000519999999N9999999N1-00871-01751999999ADDMA1999999087871MD1219999+9999ME1314559OA149900101REMSYN088AAXX  04084 06782 33/// /0401 11087 21175 38787 48455 52/// 333 55300 20022 91102 91201;
0112067820999992011010409004+46700+008850FM-12+118099999V0209999C000019999999N9999999N1-00851-01521999999ADDMA1999999087881ME1314569REMSYN076AAXX  04094 06782 33/// /0000 11085 21152 38788 48456 5//// 333 553// 20112;
0149067820999992011010410004+46700+008850FM-12+118099999V0209999C000019999999N9999999N1-00631-01421999999ADDMA1999999087871MD1010011+9999ME1314589OA149900151REMSYN088AAXX  04104 06782 33/// /0000 11063 21142 38787 48458 50001 333 55300 20439 91103 91201;
0149067820999992011010411004+46700+008850FM-12+118099999V0201801N000519999999N9999999N1-00501-01351999999ADDMA1999999087791MD1810081+9999ME1314529OA149900151REMSYN088AAXX  04114 06782 33/// /1801 11050 21135 38779 48452 58008 333 55300 20706 91103 91201;
0149067820999992011010412004+46700+008850FM-12+118099999V0209999C000019999999N9999999N1-00401-01241999999ADDMA1999999087731MD1810151+9999ME1314479OA149900311REMSYN088AAXX  04124 06782 33/// /0000 11040 21124 38773 48447 58015 333 55303 2//// 91106 91203;
0149067820999992011010413004+46700+008850FM-12+118099999V0201501N000519999999N9999999N1-00331-01251999999ADDMA1999999087701MD1610171+9999ME1314459OA149900261REMSYN088AAXX  04134 06782 33/// /1501 11033 21125 38770 48445 56017 333 55305 20922 91105 91201;
0112067820999992011010414004+46700+008850FM-12+118099999V0202301N000519999999N9999999N1-00281-01571999999ADDMA1999999087681ME1314449REMSYN076AAXX  04144 06782 33/// /2301 11028 21157 38768 48444 5//// 333 553// 20986;
0096067820999992011010415004+46700+008850FM-12+118099999V0202101N000519999999N9999999N1-00411-01751999999ADDMA1999999087691ME1314449REMSYN060AAXX  04154 06782 43/// /2101 11041 21175 38769 48444 5////;
0149067820999992011010416004+46700+008850FM-12+118099999V0203401N001019999999N9999999N1-00491-01661999999ADDMA1999999087701MD1510001+9999ME1314449OA149900261REMSYN088AAXX  04164 06782 33/// /3402 11049 21166 38770 48444 55000 333 55300 20032 91105 91202;
0149067820999992011010417004+46700+008850FM-12+118099999V0202901N000519999999N9999999N1-00551-01761999999ADDMA1999999087711MD1210031+9999ME1314449OA149900211REMSYN088AAXX  04174 06782 33/// /2901 11055 21176 38771 48444 52003 333 55300 20000 91104 91202;
0168067820999992011010418004+46700+008850FM-12+118099999V0203201N001019999999N9999999N1-00571-01941999999ADDKA1120M-00271MA1999999087681MD1810011+9999ME1314419OA149900311REMSYN094AAXX  04184 06782 33/// /3202 11057 21194 38768 48441 58001 333 11027 55300 20000 91106 91202;
0149067820999992011010419004+46700+008850FM-12+118099999V0202601N000519999999N9999999N1-00601-02101999999ADDMA1999999087711MD1310011+9999ME1314449OA149900151REMSYN088AAXX  04194 06782 33/// /2601 11060 21210 38771 48444 53001 333 55300 20000 91103 91202;
0149067820999992011010420004+46700+008850FM-12+118099999V0200601N000519999999N9999999N1-00601-01991999999ADDMA1999999087701MD1510011+9999ME1314439OA149900261REMSYN088AAXX  04204 06782 33/// /0601 11060 21199 38770 48443 55001 333 55300 20000 91105 91202;
0149067820999992011010421004+46700+008850FM-12+118099999V0203201N001019999999N9999999N1-00581-01931999999ADDMA1999999087671MD1810011+9999ME1314409OA149900261REMSYN088AAXX  04214 06782 33/// /3202 11058 21193 38767 48440 58001 333 55300 20000 91105 91202;
0149067820999992011010422004+46700+008850FM-12+118099999V0200101N001519999999N9999999N1-00631-01751999999ADDMA1999999087661MD1610051+9999ME1314399OA149900461REMSYN088AAXX  04224 06782 33/// /0103 11063 21175 38766 48439 56005 333 55300 20000 91109 91203;
0149067820999992011010423004+46700+008850FM-12+118099999V0203201N001519999999N9999999N1-00691-01871999999ADDMA1999999087671MD1710031+9999ME1314399OA149900461REMSYN088AAXX  04234 06782 33/// /3203 11069 21187 38767 48439 57003 333 55300 20000 91109 91203;
0149067820999992011010500004+46700+008850FM-12+118099999V0202901N001019999999N9999999N1-00701-02211999999ADDMA1999999087631MD1710041+9999ME1314369OA149900461REMSYN088AAXX  05004 06782 33/// /2902 11070 21221 38763 48436 57004 333 55300 20000 91109 91203;
0149067820999992011010501004+46700+008850FM-12+118099999V0203401N001019999999N9999999N1-00591-02001999999ADDMA1999999087601MD1710061+9999ME1314349OA149900311REMSYN088AAXX  05014 06782 33/// /3402 11059 21200 38760 48434 57006 333 55300 20000 91106 91203;
0149067820999992011010502004+46700+008850FM-12+118099999V0202901N000519999999N9999999N1-00611-02081999999ADDMA1999999087601MD1710071+9999ME1314349OA149900361REMSYN088AAXX  05024 06782 33/// /2901 11061 21208 38760 48434 57007 333 55300 20000 91107 91203;
0096067820999992011010503004+46700+008850FM-12+118099999V0203001N000519999999N9999999N1-00671-01771999999ADDMA1999999087591ME1314329REMSYN060AAXX  05034 06782 43/// /3001 11067 21177 38759 48432 5////;
0149067820999992011010504004+46700+008850FM-12+118099999V0200401N001019999999N9999999N1-00841-01861999999ADDMA1999999087591MD1010011+9999ME1314319OA149900311REMSYN088AAXX  05044 06782 33/// /0402 11084 21186 38759 48431 50001 333 55300 20000 91106 91203;
0149067820999992011010505004+46700+008850FM-12+118099999V0203201N001019999999N9999999N1-00821-01801999999ADDMA1999999087611MD1310011+9999ME1314339OA149900261REMSYN088AAXX  05054 06782 33/// /3202 11082 21180 38761 48433 53001 333 55300 20000 91105 91203;
0216067820999992011010506004+46700+008850FM-12+118099999V0203201N001019999999N9999999N1-00691-01921999999ADDAL19900091GJ101689IA2999-01209KA1999N-00881MA1999999087641MD1210051+9999ME1314379OA149900461REMSYN112AAXX  05064 06782 33/// /3202 11069 21192 38764 48437 52005 333 21088 3/112 55028 55300 20000 70000 91109 91203;
0149067820999992011010507004+46700+008850FM-12+118099999V0202901N000519999999N9999999N1-00771-01911999999ADDMA1999999087661MD1210071+9999ME1314389OA149900311REMSYN088AAXX  05074 06782 33/// /2901 11077 21191 38766 48438 52007 333 55300 20000 91106 91203;
0149067820999992011010508004+46700+008850FM-12+118099999V0202701N000519999999N9999999N1-00751-01951999999ADDMA1999999087691MD1319999+9999ME1314409OA149900261REMSYN088AAXX  05084 06782 33/// /2701 11075 21195 38769 48440 53/// 333 55300 20029 91105 91202;
0149067820999992011010509004+46700+008850FM-12+118099999V0209999C000019999999N9999999N1-00691-01731999999ADDMA1999999087721MD1110081+9999ME1314449OA149900311REMSYN088AAXX  05094 06782 33/// /0000 11069 21173 38772 48444 51008 333 55300 20090 91106 91203;
0149067820999992011010510004+46700+008850FM-12+118099999V0200801N000519999999N9999999N1-00421-01691999999ADDMA1999999087681MD1010021+9999ME1314439OA149900151REMSYN088AAXX  05104 06782 33/// /0801 11042 21169 38768 48443 50002 333 55303 20598 91103 91202;
0149067820999992011010511004+46700+008850FM-12+118099999V0202001N000519999999N9999999N1-00371-01321999999ADDMA1999999087631MD1810061+9999ME1314399OA149900151REMSYN088AAXX  05114 06782 33/// /2001 11037 21132 38763 48439 58006 333 55308 2//// 91103 91202;
0112067820999992011010512004+46700+008850FM-12+118099999V0201801N000519999999N9999999N1-00061-01401999999ADDMA1999999087561ME1314359REMSYN076AAXX  05124 06782 33/// /1801 11006 21140 38756 48435 5//// 333 553// 2////;
0149067820999992011010513004+46700+008850FM-12+118099999V0201001N000519999999N9999999N1-00151-01251999999ADDMA1999999087531MD1710151+9999ME1314329OA149900261REMSYN088AAXX  05134 06782 33/// /1001 11015 21125 38753 48432 57015 333 55308 2//// 91105 91201;
0096067820999992011010514004+46700+008850FM-12+118099999V0200301N000519999999N9999999N1+00011-01641999999ADDMA1999999087541ME1314349REMSYN060AAXX  05144 06782 43/// /0301 10001 21164 38754 48434 5////;
0096067820999992011010515004+46700+008850FM-12+118099999V0200801N000519999999N9999999N1-00071-01411999999ADDMA1999999087561ME1314359REMSYN060AAXX  05154 06782 43/// /0801 11007 21141 38756 48435 5////;
0149067820999992011010516004+46700+008850FM-12+118099999V0203101N000519999999N9999999N1-00251-01321999999ADDMA1999999087581MD1210051+9999ME1314359OA149900461REMSYN088AAXX  05164 06782 33/// /3101 11025 21132 38758 48435 52005 333 55300 20032 91109 91202;
0149067820999992011010517004+46700+008850FM-12+118099999V0202901N000519999999N9999999N1-00291-01471999999ADDMA1999999087601MD1210061+9999ME1314379OA149900261REMSYN088AAXX  05174 06782 33/// /2901 11029 21147 38760 48437 52006 333 55300 20000 91105 91202;
0308067820999992011010518004+46700+008850FM-12+118099999V0203101N001012200019N0100001N1-00231-01301999999ADDAJ199992999999999AL19900091AY121061AY221061GA1001+999999999GF100991001001999999001001IA1239KA1120M+00011MA1999999087601MD1219999+9999ME1314379MW1101OA149900461REMSYN118AAXX  05184 06782 31/60 03102 11023 21130 38760 48437 52/// 71022 333 10001 47998 55300 20000 90766 93100 91109 91202;EQDQ01  09982SNDP  
0149067820999992011010519004+46700+008850FM-12+118099999V0202901N001019999999N9999999N1-00161-01521999999ADDMA1999999087611MD1210031+9999ME1314399OA149900261REMSYN088AAXX  05194 06782 33/// /2902 11016 21152 38761 48439 52003 333 55300 20000 91105 91203;
0149067820999992011010520004+46700+008850FM-12+118099999V0202901N001019999999N9999999N1-00151-01621999999ADDMA1999999087581MD1719999+9999ME1314369OA149900261REMSYN088AAXX  05204 06782 33/// /2902 11015 21162 38758 48436 57/// 333 55300 20000 91105 91203;
0172067820999992011010521004+46700+008850FM-12+118099999V0203001N001512200019N0120001N1+00001-01721999999ADDAY101031AY201031GF101991999999999999999999MA1999999087571ME1314379MW1101REMSYN088AAXX  05214 06782 31962 13003 10000 21172 38757 48437 5//// 71000 333 553// 20000 81072;
0149067820999992011010522004+46700+008850FM-12+118099999V0203201N000519999999N9999999N1-00191-01281999999ADDMA1999999087571MD1710041+9999ME1314359OA149900571REMSYN088AAXX  05224 06782 33/// /3201 11019 21128 38757 48435 57004 333 55300 20000 91111 91204;
0149067820999992011010523004+46700+008850FM-12+118099999V0202801N001019999999N9999999N1-00211-01541999999ADDMA1999999087591MD1219999+9999ME1314379OA149900361REMSYN088AAXX  05234 06782 33/// /2802 11021 21154 38759 48437 52/// 333 55300 20000 91107 91202;
0166067820999992011010600004+46700+008850FM-12+118099999V0203001N001512200019N0120001N1+00001-01691999999ADDAY101061AY201061GA1001+999999999GF100991001001999999001001MA1999999087581ME1314379MW1101REMSYN066AAXX  06004 06782 41/62 03003 10000 21169 38758 48437 5//// 71000;
0096067820999992011010601004+46700+008850FM-12+118099999V0202901N001519999999N9999999N1-00041-01281999999ADDMA1999999087551ME1314349REMSYN060AAXX  06014 06782 43/// /2903 11004 21128 38755 48434 5////;
0096067820999992011010602004+46700+008850FM-12+118099999V0203601N001519999999N9999999N1+00021-01241999999ADDMA1999999087551ME1314359REMSYN060AAXX  06024 06782 43/// /3603 10002 21124 38755 48435 5////;
0176067820999992011010603004+46700+008850FM-12+118099999V0202801N001510270019N0120001N1+00061-01291999999ADDAY111031AY211031GA1071+027001031GF107991999999999999999999MA1999999087541ME1314349MW1101REMSYN076AAXX  06034 06782 41962 72803 10006 21129 38754 48434 5//// 71011 333 87359;
0096067820999992011010604004+46700+008850FM-12+118099999V0202401N001019999999N9999999N1+00091-01271999999ADDMA1999999087531ME1314349REMSYN060AAXX  06044 06782 43/// /2402 10009 21127 38753 48434 5////;
0096067820999992011010605004+46700+008850FM-12+118099999V0203001N001019999999N9999999N1-00011-01071999999ADDMA1999999087551ME1314359REMSYN060AAXX  06054 06782 43/// /3002 11001 21107 38755 48435 5////;
0250067820999992011010606004+46700+008850FM-12+118099999V0200401N002110270019N0100001N1+00081-00941999999ADDAJ100109199999999AL10600091GA1061+027001031GF106991999999999999999999GJ103069IA1239IA2999-00809KA1999N-00321MA1999999087571ME1314379REMSYN106AAXX  06064 06782 42960 60404 10008 21094 38757 48437 5//// 333 21032 3/108 47010 55051 86359 90768 93100;
0096067820999992011010607004+46700+008850FM-12+118099999V0203601N001019999999N9999999N1+00191-00871999999ADDMA1999999087601ME1314419REMSYN060AAXX  06074 06782 43/// /3602 10019 21087 38760 48441 5////;
0112067820999992011010608004+46700+008850FM-12+118099999V0200401N000519999999N9999999N1-00031-00811999999ADDMA1999999087651ME1314449REMSYN076AAXX  06084 06782 33/// /0401 11003 21081 38765 48444 5//// 333 553// 20058;
0096067820999992011010609004+46700+008850FM-12+118099999V0200401N003119999999N9999999N1+00151-00731999999ADDMA1999999087671ME1314479REMSYN060AAXX  06094 06782 43/// /0406 10015 21073 38767 48447 5////;
0149067820999992011010610004+46700+008850FM-12+118099999V0200901N001519999999N9999999N1+00171-00741999999ADDMA1999999087711MD1310111+9999ME1314519OA149900771REMSYN088AAXX  06104 06782 33/// /0903 10017 21074 38771 48451 53011 333 55300 20526 91115 91206;
0149067820999992011010611004+46700+008850FM-12+118099999V0201301N001519999999N9999999N1+00281-00631999999ADDMA1999999087691MD1210041+9999ME1314509OA149900981REMSYN088AAXX  06114 06782 33/// /1303 10028 21063 38769 48450 52004 333 55306 2//// 91119 91205;
0197067820999992011010612004+46700+008850FM-12+118099999V0201601N00151027001CN0100001N1+00311-00521999999ADDGA1071+027001031GF107991999999999999999999MA1999999087711MD1210041+9999ME1314529OA149900981REMSYN094AAXX  06124 06782 32960 71603 10031 21052 38771 48452 52004 333 553// 2//// 87359 91119 91206;
0149067820999992011010613004+46700+008850FM-12+118099999V0202201N001019999999N9999999N1+00411-00591999999ADDMA1999999087671MD1710041+9999ME1314509OA149901031REMSYN088AAXX  06134 06782 33/// /2202 10041 21059 38767 48450 57004 333 55302 20943 91120 91204;
0096067820999992011010614004+46700+008850FM-12+118099999V0202301N002619999999N9999999N1+00441-00451999999ADDMA1999999087671ME1314509REMSYN060AAXX  06144 06782 43/// /2305 10044 21045 38767 48450 5////;
0096067820999992011010615004+46700+008850FM-12+118099999V0201901N002119999999N9999999N1+00401-00411999999ADDMA1999999087681ME1314509REMSYN060AAXX  06154 06782 43/// /1904 10040 21041 38768 48450 5////;
0149067820999992011010616004+46700+008850FM-12+118099999V0209999C000019999999N9999999N1+00331-00471999999ADDMA1999999087711MD1210041+9999ME1314529OA149900931REMSYN088AAXX  06164 06782 33/// /0000 10033 21047 38771 48452 52004 333 55300 20054 91118 91204;
0149067820999992011010617004+46700+008850FM-12+118099999V0200201N000519999999N9999999N1+00251-00401999999ADDMA1999999087661MD1810011+9999ME1314479OA149900931REMSYN088AAXX  06174 06782 33/// /0201 10025 21040 38766 48447 58001 333 55300 20000 91118 91203;
0295067820999992011010618004+46700+008850FM-12+118099999V0200301N00101027001CN0100001N1+00271-00351999999ADDAJ100099199999999AL19900091AY121061AY221061GA1081+027001041GF108991999999999999999999IA1279KA1120M+00461MA1999999087681MD1010001+9999ME1314499MW1101OA149901031REMSYN124AAXX  06184 06782 31960 80302 10027 21035 38768 48449 50000 71022 333 10046 43009 55300 20000 88459 90766 93100 91120 91206;
0168067820999992011010619004+46700+008850FM-12+118099999V0203101N001519999999N9999999N1+00331-00361999999ADDMA1999999087711MD1410001+9999ME1314529OA149900571REMSYN088AAXX  06194 06782 33/// /3103 10033 21036 38771 48452 53000 333 55300 20000 91111 91204;EQDQ01+000032APCTEN
0149067820999992011010620004+46700+008850FM-12+118099999V0202501N000519999999N9999999N1+00411-00351999999ADDMA1999999087761MD1219999+9999ME1314589OA149900571REMSYN088AAXX  06204 06782 33/// /2501 10041 21035 38776 48458 52/// 333 55300 20000 91111 91204;
0197067820999992011010621004+46700+008850FM-12+118099999V0203401N00101027001CN0100001N1+00391-00331999999ADDGA1061+027001041GF106991999999999999999999MA1999999087771MD1219999+9999ME1314599OA149900931REMSYN094AAXX  06214 06782 32960 63402 10039 21033 38777 48459 52/// 333 55300 20000 86459 91118 91204;
0149067820999992011010622004+46700+008850FM-12+118099999V0203301N000519999999N9999999N1+00351-00251999999ADDMA1999999087831MD1210121+9999ME1314649OA149900411REMSYN088AAXX  06224 06782 33/// /3301 10035 21025 38783 48464 52012 333 55300 20000 91108 91203;
0112067820999992011010623004+46700+008850FM-12+118099999V0203301N002119999999N9999999N1+00521-00281999999ADDMA1999999087851ME1314679REMSYN076AAXX  06234 06782 33/// /3304 10052 21028 38785 48467 5//// 333 553// 20000;
0148067820999992011010700004+46700+008850FM-12+118099999V0203101N001010111019N0100001N1+00401-00271999999ADDGA1061+011101061GF106991999999012501999999MA1999999087861ME1314679REMSYN070AAXX  07004 06782 42660 63102 10040 21027 38786 48467 5//// 333 86637;
0096067820999992011010701004+46700+008850FM-12+118099999V0203301N000519999999N9999999N1+00351-00241999999ADDMA1999999087891ME1314699REMSYN060AAXX  07014 06782 43/// /3301 10035 21024 38789 48469 5////;
0096067820999992011010702004+46700+008850FM-12+118099999V0202701N001019999999N9999999N1+00301-00241999999ADDMA1999999087921ME1314719REMSYN060AAXX  07024 06782 43/// /2702 10030 21024 38792 48471 5////;
0148067820999992011010703004+46700+008850FM-12+118099999V0202901N001010111019N0100001N1+00291-00211999999ADDGA1061+011101061GF106991999999012501999999MA1999999087941ME1314739REMSYN070AAXX  07034 06782 42660 62902 10029 21021 38794 48473 5//// 333 86637;
0149067820999992011010704004+46700+008850FM-12+118099999V0202601N001519999999N9999999N1+00401-00211999999ADDMA1999999087921MD1010031+9999ME1314729OA149900571REMSYN088AAXX  07044 06782 33/// /2603 10040 21021 38792 48472 50003 333 55300 20000 91111 91205;
0149067820999992011010705004+46700+008850FM-12+118099999V0203301N001019999999N9999999N1+00391-00181999999ADDMA1999999087941MD1010021+9999ME1314749OA149900361REMSYN088AAXX  07054 06782 33/// /3302 10039 21018 38794 48474 50002 333 55300 20000 91107 91203;
0324067820999992011010706004+46700+008850FM-12+118099999V0203001N00101011101CN0100001N1+00431-00171999999ADDAJ199992999999999AL19900091GA1071+011101061GF107991999999012501999999GJ101869IA1309IA2999+00109KA1999N+00251MA1999999087981MD1310041+9999ME1314789OA149900771REMSYN136AAXX  07064 06782 32660 73002 10043 21017 38798 48478 53004 333 20025 3/001 42998 55031 55300 20000 70000 87637 90768 93100 91115 91205;EQDQ01  09982SNDP  
0149067820999992011010707004+46700+008850FM-12+118099999V0203201N000519999999N9999999N1+00471-00161999999ADDMA1999999088011MD1210091+9999ME1314819OA149900311REMSYN088AAXX  07074 06782 33/// /3201 10047 21016 38801 48481 52009 333 55300 20000 91106 91202;
0112067820999992011010708004+46700+008850FM-12+118099999V0203501N001019999999N9999999N1+00501-00161999999ADDMA1999999088041ME1314859REMSYN076AAXX  07084 06782 33/// /3502 10050 21016 38804 48485 5//// 333 553// 20079;
0096067820999992011010709004+46700+008850FM-12+118099999V0202801N002619999999N9999999N1+00741-00121999999ADDMA1999999088061ME1314899REMSYN060AAXX  07094 06782 43/// /2805 10074 21012 38806 48489 5////;
0149067820999992011010710004+46700+008850FM-12+118099999V0202801N002119999999N9999999N1+00691-00111999999ADDMA1999999088091MD1210081+9999ME1314919OA149900931REMSYN088AAXX  07104 06782 33/// /2804 10069 21011 38809 48491 52008 333 55300 20335 91118 91205;
0149067820999992011010711004+46700+008850FM-12+118099999V0203001N001519999999N9999999N1+00871-00091999999ADDMA1999999088071MD1210031+9999ME1314919OA149900931REMSYN088AAXX  07114 06782 33/// /3003 10087 21009 38807 48491 52003 333 55300 20580 91118 91205;
0197067820999992011010712004+46700+008850FM-12+118099999V0202301N00211011101CN0100001N1+00881-00071999999ADDGA1081+011101061GF108991999999012501999999MA1999999088041MD1810021+9999ME1314899OA149900931REMSYN094AAXX  07124 06782 32660 82304 10088 21007 38804 48489 58002 333 553// 20608 88637 91118 91205;
0149067820999992011010713004+46700+008850FM-12+118099999V0202501N001019999999N9999999N1+00811-00051999999ADDMA1999999088031MD1710061+9999ME1314879OA149900771REMSYN088AAXX  07134 06782 33/// /2502 10081 21005 38803 48487 57006 333 55300 20450 91115 91204;
0096067820999992011010714004+46700+008850FM-12+118099999V0202501N001519999999N9999999N1+00811-00081999999ADDMA1999999088041ME1314889REMSYN060AAXX  07144 06782 43/// /2503 10081 21008 38804 48488 5////;
0096067820999992011010715004+46700+008850FM-12+118099999V0202601N001019999999N9999999N1+00761-00061999999ADDMA1999999088071ME1314909REMSYN060AAXX  07154 06782 43/// /2602 10076 21006 38807 48490 5////;
0149067820999992011010716004+46700+008850FM-12+118099999V0203101N000519999999N9999999N1+00651-00071999999ADDMA1999999088091MD1210061+9999ME1314919OA149900571REMSYN088AAXX  07164 06782 33/// /3101 10065 21007 38809 48491 52006 333 55300 20054 91111 91203;
0149067820999992011010717004+46700+008850FM-12+118099999V0203401N001019999999N9999999N1+00681-00121999999ADDMA1999999088111MD1210071+9999ME1314939OA149900361REMSYN088AAXX  07174 06782 33/// /3402 10068 21012 38811 48493 52007 333 55300 20000 91107 91203;
0248067820999992011010718004+46700+008850FM-12+118099999V0202701N00051011101CN0100001N1+00601-00111999999ADDAJ100049199999999AY121061AY221061GA1071+011101061GF107991999999012501999999IA1279KA1120M+00931MA1999999088111ME1314929MW1101REMSYN112AAXX  07184 06782 31660 72701 10060 21011 38811 48492 5//// 71022 333 10093 43004 553// 20000 87637 90766 93100;
0149067820999992011010719004+46700+008850FM-12+118099999V0203301N001019999999N9999999N1+00611-00071999999ADDMA1999999088111MD1219999+9999ME1314929OA149900511REMSYN088AAXX  07194 06782 33/// /3302 10061 21007 38811 48492 52/// 333 55300 20000 91110 91203;
0096067820999992011010720004+46700+008850FM-12+118099999V0209999C001519999999N9999999N1+00681-00091999999ADDMA1999999088121ME1314949REMSYN060AAXX  07204 06782 43/// /0003 10068 21009 38812 48494 5////;
0148067820999992011010721004+46700+008850FM-12+118099999V0203101N001010111019N0100001N1+00701-00071999999ADDGA1061+011101061GF106991999999012501999999MA1999999088101ME1314929REMSYN070AAXX  07214 06782 42660 63102 10070 21007 38810 48492 5//// 333 86637;
0149067820999992011010722004+46700+008850FM-12+118099999V0202601N002619999999N9999999N1+00801-00021999999ADDMA1999999088091MD1710021+9999ME1314929OA149900671REMSYN088AAXX  07224 06782 33/// /2605 10080 21002 38809 48492 57002 333 55300 20000 91113 91205;
0112067820999992011010723004+46700+008850FM-12+118099999V0202601N003119999999N9999999N1+00781-00041999999ADDMA1999999088081ME1314919REMSYN076AAXX  07234 06782 33/// /2606 10078 21004 38808 48491 5//// 333 553// 20000;
0144067820999992011010800004+46700+008850FM-12+118099999V0202401N002119999999N0100001N1+00751-00051999999ADDGF106991999999012501999999MA1999999088091ME1314929REMSYN082AAXX  08004 06782 32660 62404 10075 21005 38809 48492 5//// 333 553// 20000 86640;
0096067820999992011010801004+46700+008850FM-12+118099999V0202701N001519999999N9999999N1+00731-00071999999ADDMA1999999088081ME1314919REMSYN060AAXX  08014 06782 43/// /2703 10073 21007 38808 48491 5////;
0096067820999992011010802004+46700+008850FM-12+118099999V0202701N001019999999N9999999N1+00721-00081999999ADDMA1999999088061ME1314899REMSYN060AAXX  08024 06782 43/// /2702 10072 21008 38806 48489 5////;
0176067820999992011010803004+46700+008850FM-12+118099999V0202701N002110039019N0100001N1+00691-00081999999ADDAY151031AY221031GA1081+003901071GF108991999999004501999999MA1999999088061ME1314889MW1531REMSYN076AAXX  08034 06782 41460 82704 10069 21008 38806 48488 5//// 75352 333 88713;
0096067820999992011010804004+46700+008850FM-12+118099999V0202801N001519999999N9999999N1+00661-00091999999ADDMA1999999088031ME1314859REMSYN060AAXX  08044 06782 43/// /2803 10066 21009 38803 48485 5////;
0096067820999992011010805004+46700+008850FM-12+118099999V0202901N001019999999N9999999N1+00661-00081999999ADDMA1999999087991ME1314829REMSYN060AAXX  08054 06782 43/// /2902 10066 21008 38799 48482 5////;
0250067820999992011010806004+46700+008850FM-12+118099999V0203001N000510111019N0100001N1+00751-00131999999ADDAJ100059199999999AL10600091GA1061+011101061GF106991999999012501999999GJ100009IA1309IA2999+00309KA1999N+00561MA1999999087991ME1314839REMSYN106AAXX  08064 06782 42660 63001 10075 21013 38799 48483 5//// 333 20056 3/003 42005 55000 86637 90768 93100;
0096067820999992011010807004+46700+008850FM-12+118099999V0202901N001519999999N9999999N1+00681-00081999999ADDMA1999999088031ME1314869REMSYN060AAXX  08074 06782 43/// /2903 10068 21008 38803 48486 5////;
0112067820999992011010808004+46700+008850FM-12+118099999V0203001N001519999999N9999999N1+00691-00101999999ADDMA1999999088061ME1314889REMSYN076AAXX  08084 06782 33/// /3003 10069 21010 38806 48488 5//// 333 553// 20025;
0096067820999992011010809004+46700+008850FM-12+118099999V0202701N001519999999N9999999N1+00661-00061999999ADDMA1999999088081ME1314909REMSYN060AAXX  08094 06782 43/// /2703 10066 21006 38808 48490 5////;
0096067820999992011010810004+46700+008850FM-12+118099999V0203101N001519999999N9999999N1+00841-00181999999ADDMA1999999088091ME1314939REMSYN060AAXX  08104 06782 43/// /3103 10084 21018 38809 48493 5////;
0096067820999992011010811004+46700+008850FM-12+118099999V0202301N001019999999N9999999N1+00791-00081999999ADDMA1999999088091ME1314929REMSYN060AAXX  08114 06782 43/// /2302 10079 21008 38809 48492 5////;
0176067820999992011010812004+46700+008850FM-12+118099999V0202001N001510111019N0100001N1+00831-00081999999ADDAY101061AY201061GA1061+011101061GF106991999999012501999999MA1999999088071ME1314919MW1101REMSYN076AAXX  08124 06782 41660 62003 10083 21008 38807 48491 5//// 71000 333 86637;
0096067820999992011010813004+46700+008850FM-12+118099999V0202001N002619999999N9999999N1+00901-00061999999ADDMA1999999088031ME1314889REMSYN060AAXX  08134 06782 43/// /2005 10090 21006 38803 48488 5////;
0096067820999992011010814004+46700+008850FM-12+118099999V0202101N002619999999N9999999N1+00861-00121999999ADDMA1999999088051ME1314899REMSYN060AAXX  08144 06782 43/// /2105 10086 21012 38805 48489 5////;
0096067820999992011010815004+46700+008850FM-12+118099999V0202101N002619999999N9999999N1+00781-00141999999ADDMA1999999088071ME1314909REMSYN060AAXX  08154 06782 43/// /2105 10078 21014 38807 48490 5////;
0096067820999992011010816004+46700+008850FM-12+118099999V0202501N002119999999N9999999N1+00711-00141999999ADDMA1999999088131ME1314959REMSYN060AAXX  08164 06782 43/// /2504 10071 21014 38813 48495 5////;
0096067820999992011010817004+46700+008850FM-12+118099999V0202501N001019999999N9999999N1+00641-00161999999ADDMA1999999088141ME1314959REMSYN060AAXX  08174 06782 43/// /2502 10064 21016 38814 48495 5////;
0227067820999992011010818004+46700+008850FM-12+118099999V0203101N001012200019N0100001N1+00741-00191999999ADDAJ100049199999999AL10600091AY111061AY211061GA1031+011101061GF103991999999012501999999IA1279MA1999999088141ME1314969MW1101REMSYN094AAXX  08184 06782 41660 33102 10074 21019 38814 48496 5//// 71011 333 43004 83637 90766 93100;
0096067820999992011010819004+46700+008850FM-12+118099999V0202701N001019999999N9999999N1+00591-00211999999ADDMA1999999088111ME1314929REMSYN060AAXX  08194 06782 43/// /2702 10059 21021 38811 48492 5////;
0096067820999992011010820004+46700+008850FM-12+118099999V0202901N001019999999N9999999N1+00651-00201999999ADDMA1999999088131ME1314949REMSYN060AAXX  08204 06782 43/// /2902 10065 21020 38813 48494 5////;
0148067820999992011010821004+46700+008850FM-12+118099999V0202701N001010111019N0100001N1+00661-00121999999ADDGA1051+011101061GF105991999999012501999999MA1999999088131ME1314959REMSYN070AAXX  08214 06782 42660 52702 10066 21012 38813 48495 5//// 333 85637;
0096067820999992011010822004+46700+008850FM-12+118099999V0202801N001019999999N9999999N1+00681-00121999999ADDMA1999999088091ME1314919REMSYN060AAXX  08224 06782 43/// /2802 10068 21012 38809 48491 5////;
0096067820999992011010823004+46700+008850FM-12+118099999V0202601N001519999999N9999999N1+00701-00101999999ADDMA1999999088141ME1314969REMSYN060AAXX  08234 06782 43/// /2603 10070 21010 38814 48496 5////;
0148067820999992011010900004+46700+008850FM-12+118099999V0203101N001010111019N0100001N1+00651-00131999999ADDGA1051+011101061GF105991999999012501999999MA1999999088131ME1314949REMSYN070AAXX  09004 06782 42660 53102 10065 21013 38813 48494 5//// 333 85637;
0096067820999992011010901004+46700+008850FM-12+118099999V0202601N001019999999N9999999N1+00631-00131999999ADDMA1999999088121ME1314939REMSYN060AAXX  09014 06782 43/// /2602 10063 21013 38812 48493 5////;
0096067820999992011010902004+46700+008850FM-12+118099999V0203301N000519999999N9999999N1+00611-00121999999ADDMA1999999088141ME1314959REMSYN060AAXX  09024 06782 43/// /3301 10061 21012 38814 48495 5////;
0096067820999992011010903004+46700+008850FM-12+118099999V0202401N001519999999N9999999N1+00611-00091999999ADDMA1999999088111ME1314929REMSYN060AAXX  09034 06782 43/// /2403 10061 21009 38811 48492 5////;
0096067820999992011010904004+46700+008850FM-12+118099999V0203101N001019999999N9999999N1+00641-00191999999ADDMA1999999088061ME1314889REMSYN060AAXX  09044 06782 43/// /3102 10064 21019 38806 48488 5////;
0096067820999992011010905004+46700+008850FM-12+118099999V0202701N001019999999N9999999N1+00571-00181999999ADDMA1999999088001ME1314829REMSYN060AAXX  09054 06782 43/// /2702 10057 21018 38800 48482 5////;
0227067820999992011010906004+46700+008850FM-12+118099999V0202801N001510270019N0100001N1+00661-00221999999ADDAJ100049199999999AL10600091AY121061AY221061GA1071+027001041GF107991999999999999999999IA1309MA1999999088031ME1314859MW1101REMSYN094AAXX  09064 06782 41960 72803 10066 21022 38803 48485 5//// 71022 333 42004 87459 90768 93100;
0096067820999992011010907004+46700+008850FM-12+118099999V0202501N002119999999N9999999N1+00681-00191999999ADDMA1999999088031ME1314869REMSYN060AAXX  09074 06782 43/// /2504 10068 21019 38803 48486 5////;
0112067820999992011010908004+46700+008850FM-12+118099999V0202901N001519999999N9999999N1+00691-00221999999ADDMA1999999088051ME1314879REMSYN076AAXX  09084 06782 33/// /2903 10069 21022 38805 48487 5//// 333 553// 20040;
0112067820999992011010909004+46700+008850FM-12+118099999V0202501N002119999999N9999999N1+00731-00161999999ADDMA1999999088071ME1314909REMSYN076AAXX  09094 06782 33/// /2504 10073 21016 38807 48490 5//// 333 553// 20227;
0149067820999992011010910004+46700+008850FM-12+118099999V0202901N001519999999N9999999N1+00801-00251999999ADDMA1999999088051MD1010021+9999ME1314899OA149900721REMSYN088AAXX  09104 06782 33/// /2903 10080 21025 38805 48489 50002 333 55300 20371 91114 91206;
0149067820999992011010911004+46700+008850FM-12+118099999V0202201N002619999999N9999999N1+00771-00201999999ADDMA1999999088061MD1710011+9999ME1314899OA149900881REMSYN088AAXX  09114 06782 33/// /2205 10077 21020 38806 48489 57001 333 55300 20544 91117 91206;
0225067820999992011010912004+46700+008850FM-12+118099999V0202601N00101011101CN0120001N1+00811-00221999999ADDAY121061AY221061GA1071+011101061GF107991999999012501999999MA1999999087991MD1710081+9999ME1314839MW1101OA149900881REMSYN100AAXX  09124 06782 31662 72602 10081 21022 38799 48483 57008 71022 333 55300 20648 87637 91117 91207;
0149067820999992011010913004+46700+008850FM-12+118099999V0202601N001519999999N9999999N1+00791-00261999999ADDMA1999999087931MD1710121+9999ME1314779OA149900721REMSYN088AAXX  09134 06782 33/// /2603 10079 21026 38793 48477 57012 333 55300 20356 91114 91207;
0096067820999992011010914004+46700+008850FM-12+118099999V0202501N001019999999N9999999N1+00741-00161999999ADDMA1999999087951ME1314799REMSYN060AAXX  09144 06782 43/// /2502 10074 21016 38795 48479 5////;
0096067820999992011010915004+46700+008850FM-12+118099999V0202801N001019999999N9999999N1+00701-00131999999ADDMA1999999087941ME1314779REMSYN060AAXX  09154 06782 43/// /2802 10070 21013 38794 48477 5////;
0149067820999992011010916004+46700+008850FM-12+118099999V0202501N002119999999N9999999N1+00611-00031999999ADDMA1999999087951MD1510021+9999ME1314779OA149900881REMSYN088AAXX  09164 06782 33/// /2504 10061 21003 38795 48477 55002 333 55300 20022 91117 91204;
0149067820999992011010917004+46700+008850FM-12+118099999V0202601N001519999999N9999999N1+00641-00091999999ADDMA1999999087941MD1010011+9999ME1314779OA149900821REMSYN088AAXX  09174 06782 33/// /2603 10064 21009 38794 48477 50001 333 55300 20000 91116 91204;
0168067820999992011010918004+46700+008850FM-12+118099999V0203301N000519999999N9999999N1+00651-00111999999ADDKA1120M+00841MA1999999087961MD1310021+9999ME1314799OA149900881REMSYN094AAXX  09184 06782 33/// /3301 10065 21011 38796 48479 53002 333 10084 55300 20000 91117 91207;
0149067820999992011010919004+46700+008850FM-12+118099999V0203001N001519999999N9999999N1+00551-00071999999ADDMA1999999087971MD1210021+9999ME1314799OA149900361REMSYN088AAXX  09194 06782 33/// /3003 10055 21007 38797 48479 52002 333 55300 20000 91107 91203;
0149067820999992011010920004+46700+008850FM-12+118099999V0202601N000519999999N9999999N1+00511-00041999999ADDMA1999999087971MD1210031+9999ME1314789OA149900411REMSYN088AAXX  09204 06782 33/// /2601 10051 21004 38797 48478 52003 333 55300 20000 91108 91203;
0197067820999992011010921004+46700+008850FM-12+118099999V0202901N00101027001CN0100001N1+00531-00031999999ADDGA1081+027001041GF108991999999999999999999MA1999999087971MD1510011+9999ME1314789OA149900821REMSYN094AAXX  09214 06782 32960 82902 10053 21003 38797 48478 55001 333 55300 20000 88459 91116 91204;
0149067820999992011010922004+46700+008850FM-12+118099999V0202201N000519999999N9999999N1+00411+00031999999ADDMA1999999087991MD1210021+9999ME1314799OA149900411REMSYN088AAXX  09224 06782 33/// /2201 10041 20003 38799 48479 52002 333 55300 20000 91108 91204;
0149067820999992011010923004+46700+008850FM-12+118099999V0202701N000519999999N9999999N1+00431-00031999999ADDMA1999999087991MD1210021+9999ME1314799OA149900311REMSYN088AAXX  09234 06782 33/// /2701 10043 21003 38799 48479 52002 333 55300 20000 91106 91202;
0197067820999992011011000004+46700+008850FM-12+118099999V0202401N00051027001CN0100001N1+00311+00041999999ADDGA1081+027001041GF108991999999999999999999MA1999999088021MD1210051+9999ME1314819OA149900881REMSYN094AAXX  10004 06782 32960 82401 10031 20004 38802 48481 52005 333 55300 20000 88459 91117 91204;
0149067820999992011011001004+46700+008850FM-12+118099999V0200201N000519999999N9999999N1+00301+00061999999ADDMA1999999088051MD1210061+9999ME1314839OA149900311REMSYN088AAXX  10014 06782 33/// /0201 10030 20006 38805 48483 52006 333 55300 20000 91106 91202;
0112067820999992011011002004+46700+008850FM-12+118099999V0209999C000019999999N9999999N1+00231+00121999999ADDMA1999999088081ME1314859REMSYN076AAXX  10024 06782 33/// /0000 10023 20012 38808 48485 5//// 333 553// 20000;
0148067820999992011011003004+46700+008850FM-12+118099999V0209999C000010270019N0100001N1+00251+00141999999ADDGA1081+027001041GF108991999999999999999999MA1999999088081ME1314869REMSYN070AAXX  10034 06782 42960 80000 10025 20014 38808 48486 5//// 333 88459;
0118067820999992011011004004+46700+008850FM-12+118099999V0209999C000019999999N9999999N1+00221+00151999999ADDMA1999999088091ME1314869REMSYN082AAXX  10044 06782 23/// /0000 10022 20015 38809 48486 5//// 333 553// 20000 69945;
0155067820999992011011005004+46700+008850FM-12+118099999V0209999C000019999999N9999999N1+00191+00141999999ADDMA1999999088071MD1719999+9999ME1314849OA149900051REMSYN094AAXX  10054 06782 23/// /0000 10019 20014 38807 48484 57/// 333 55300 20000 69925 91101 91201;
0295067820999992011011006004+46700+008850FM-12+118099999V0200501N000510060019N0050001N1+00191+00131999999ADDAA124001091AJ100029199999999AL14800091AY171061AY221061GA1081+006001071GF108991999999008001999999GJ100009IA1309IA2999+00109KA1999N+00161MA1999999088101ME1314879MW1231REMSYN118AAXX  10064 06782 41550 80501 10019 20013 38810 48487 5//// 72372 333 20016 3/001 42002 55000 70009 88720 90768 93100;
0149067820999992011011007004+46700+008850FM-12+118099999V0200901N001519999999N9999999N1+00131+00071999999ADDMA1999999088151MD1210061+9999ME1314919OA149900361REMSYN088AAXX  10074 06782 33/// /0903 10013 20007 38815 48491 52006 333 55300 20000 91107 91204;
0096067820999992011011008004+46700+008850FM-12+118099999V0200301N001019999999N9999999N1+00091+00061999999ADDMA1999999088181ME1314939REMSYN060AAXX  10084 06782 43/// /0302 10009 20006 38818 48493 5////;
0096067820999992011011009004+46700+008850FM-12+118099999V0200901N000519999999N9999999N1+00061+00061999999ADDMA1999999088201ME1314949REMSYN060AAXX  10094 06782 43/// /0901 10006 20006 38820 48494 5////;
0155067820999992011011010004+46700+008850FM-12+118099999V0209999C000019999999N9999999N1+00041+00041999999ADDMA1999999088221MD1310071+9999ME1314969OA149900211REMSYN094AAXX  10104 06782 23/// /0000 10004 20004 38822 48496 53007 333 55300 20079 69925 91104 91202;
0155067820999992011011011004+46700+008850FM-12+118099999V0200801N000519999999N9999999N1+00071+00061999999ADDMA1999999088181MD1019999+9999ME1314939OA149900151REMSYN094AAXX  10114 06782 23/// /0801 10007 20006 38818 48493 50/// 333 55300 20238 69915 91103 91201;
0195067820999992011011012004+46700+008850FM-12+118099999V0200401N000519999999N0100001N1+00111+00061999999ADDAA106000591AY171061AY221061GF108991999999000751999999MA1999999088131ME1314899MW1101REMSYN100AAXX  10124 06782 01160 80401 10011 20006 38813 48489 5//// 69941 71072 333 553// 20256 60005 88703;
0096067820999992011011013004+46700+008850FM-12+118099999V0209999C000019999999N9999999N1+00191+00111999999ADDMA1999999088061ME1314839REMSYN060AAXX  10134 06782 43/// /0000 10019 20011 38806 48483 5////;
0096067820999992011011014004+46700+008850FM-12+118099999V0201001N001019999999N9999999N1+00171+00131999999ADDMA1999999088051ME1314829REMSYN060AAXX  10144 06782 43/// /1002 10017 20013 38805 48482 5////;
0096067820999992011011015004+46700+008850FM-12+118099999V0209999C000019999999N9999999N1+00131+00121999999ADDMA1999999088051ME1314829REMSYN060AAXX  10154 06782 43/// /0000 10013 20012 38805 48482 5////;
0096067820999992011011016004+46700+008850FM-12+118099999V0209999C000019999999N9999999N1+00101+00091999999ADDMA1999999088051ME1314819REMSYN060AAXX  10164 06782 43/// /0000 10010 20009 38805 48481 5////;
0096067820999992011011017004+46700+008850FM-12+118099999V0209999C000019999999N9999999N1+00111+00061999999ADDMA1999999088021ME1314799REMSYN060AAXX  10174 06782 43/// /0000 10011 20006 38802 48479 5////;
0240067820999992011011018004+46700+008850FM-12+118099999V0209999C000010006019N0009001N1+00081+00061999999ADDAJ100039199999999AL10600091AY151061AY221061GA1091+999999999GF109991091999999999999999IA1309KA1120M+00211MA1999999087991ME1314769MW1201REMSYN094AAXX  10184 06782 41/09 90000 10008 20006 38799 48476 5//// 72052 333 10021 42003 90766 93100;
0096067820999992011011019004+46700+008850FM-12+118099999V0203001N000519999999N9999999N1+00121+00051999999ADDMA1999999087961ME1314739REMSYN060AAXX  10194 06782 43/// /3001 10012 20005 38796 48473 5////;
0096067820999992011011020004+46700+008850FM-12+118099999V0209999C000019999999N9999999N1+00031+00031999999ADDMA1999999087931ME1314709REMSYN060AAXX  10204 06782 43/// /0000 10003 20003 38793 48470 5////;
0148067820999992011011021004+46700+008850FM-12+118099999V0209999C000012200019N0100001N1+00031+00031999999ADDGA1041+011101061GF104991999999012501999999MA1999999087911ME1314689REMSYN070AAXX  10214 06782 42660 40000 10003 20003 38791 48468 5//// 333 84637;
0096067820999992011011022004+46700+008850FM-12+118099999V0203401N000519999999N9999999N1+00051+00001999999ADDMA1999999087881ME1314659REMSYN060AAXX  10224 06782 43/// /3401 10005 20000 38788 48465 5////;
0096067820999992011011023004+46700+008850FM-12+118099999V0209999C000019999999N9999999N1+00031+00011999999ADDMA1999999087881ME1314659REMSYN060AAXX  10234 06782 43/// /0000 10003 20001 38788 48465 5////;
0148067820999992011011100004+46700+008850FM-12+118099999V0202501N000510111019N0070001N1+00061+00001999999ADDGA1081+011101061GF108991999999012501999999MA1999999087821ME1314609REMSYN070AAXX  11004 06782 42657 82501 10006 20000 38782 48460 5//// 333 88637;
0096067820999992011011101004+46700+008850FM-12+118099999V0203101N000519999999N9999999N1+00091+00011999999ADDMA1999999087781ME1314579REMSYN060AAXX  11014 06782 43/// /3101 10009 20001 38778 48457 5////;
0096067820999992011011102004+46700+008850FM-12+118099999V0203201N000519999999N9999999N1+00091+00011999999ADDMA1999999087771ME1314569REMSYN060AAXX  11024 06782 43/// /3201 10009 20001 38777 48456 5////;
0148067820999992011011103004+46700+008850FM-12+118099999V0203601N000510111019N0100001N1+00081-00011999999ADDGA1061+011101061GF106991999999012501999999MA1999999087741ME1314539REMSYN070AAXX  11034 06782 42660 63601 10008 21001 38774 48453 5//// 333 86637;
0096067820999992011011104004+46700+008850FM-12+118099999V0203001N001019999999N9999999N1+00081-00061999999ADDMA1999999087691ME1314489REMSYN060AAXX  11044 06782 43/// /3002 10008 21006 38769 48448 5////;
0096067820999992011011105004+46700+008850FM-12+118099999V0203501N000519999999N9999999N1+00031-00101999999ADDMA1999999087661ME1314459REMSYN060AAXX  11054 06782 43/// /3501 10003 21010 38766 48445 5////;
0254067820999992011011106004+46700+008850FM-12+118099999V0203101N000512200019N0120001N1+00051-00101999999ADDAJ199992999999999AL10600091AY101061AY201061GA1001+999999999GF100991001001999999001001GJ100009IA1259MA1999999087641ME1314439MW1101REMSYN094AAXX  11064 06782 41/62 03101 10005 21010 38764 48443 5//// 71000 333 41998 55000 90768 93100;EQDQ01  09982SNDP  
0149067820999992011011107004+46700+008850FM-12+118099999V0203101N000519999999N9999999N1+00111-00171999999ADDMA1999999087621MD1619999+9999ME1314429OA149900211REMSYN088AAXX  11074 06782 33/// /3101 10011 21017 38762 48442 56/// 333 55300 20000 91104 91202;
0112067820999992011011108004+46700+008850FM-12+118099999V0202701N000519999999N9999999N1+00081-00171999999ADDMA1999999087621ME1314429REMSYN076AAXX  11084 06782 33/// /2701 10008 21017 38762 48442 5//// 333 553// 20047;
0096067820999992011011109004+46700+008850FM-12+118099999V0202901N001019999999N9999999N1+00201-00301999999ADDMA1999999087581ME1314399REMSYN060AAXX  11094 06782 43/// /2902 10020 21030 38758 48439 5////;
0149067820999992011011110004+46700+008850FM-12+118099999V0202801N001519999999N9999999N1+00331-00241999999ADDMA1999999087571MD1710051+9999ME1314409OA149900261REMSYN088AAXX  11104 06782 33/// /2803 10033 21024 38757 48440 57005 333 55300 20371 91105 91203;
0149067820999992011011111004+46700+008850FM-12+118099999V0202701N001019999999N9999999N1+00581-00371999999ADDMA1999999087491MD1710131+9999ME1314349OA149900311REMSYN088AAXX  11114 06782 33/// /2702 10058 21037 38749 48434 57013 333 55301 20778 91106 91203;
0172067820999992011011112004+46700+008850FM-12+118099999V0201701N000519999999N0120001N1+00631-00311999999ADDAY111061AY211061GF105991999999012501999999MA1999999087391ME1314259MW1101REMSYN088AAXX  11124 06782 31662 51701 10063 21031 38739 48425 5//// 71011 333 553// 2//// 85637;
0149067820999992011011113004+46700+008850FM-12+118099999V0201801N000519999999N9999999N1+00641-00321999999ADDMA1999999087311MD1710261+9999ME1314189OA149900511REMSYN088AAXX  11134 06782 33/// /1801 10064 21032 38731 48418 57026 333 55304 2//// 91110 91203;
0096067820999992011011114004+46700+008850FM-12+118099999V0201801N001019999999N9999999N1+00611-00341999999ADDMA1999999087291ME1314169REMSYN060AAXX  11144 06782 43/// /1802 10061 21034 38729 48416 5////;
0096067820999992011011115004+46700+008850FM-12+118099999V0202401N000519999999N9999999N1+00561-00321999999ADDMA1999999087331ME1314199REMSYN060AAXX  11154 06782 43/// /2401 10056 21032 38733 48419 5////;
0149067820999992011011116004+46700+008850FM-12+118099999V0202401N000519999999N9999999N1+00481-00281999999ADDMA1999999087391MD1210081+9999ME1314249OA149900311REMSYN088AAXX  11164 06782 33/// /2401 10048 21028 38739 48424 52008 333 553// 20040 91106 91202;
0149067820999992011011117004+46700+008850FM-12+118099999V0202701N001019999999N9999999N1+00421-00231999999ADDMA1999999087451MD1310161+9999ME1314299OA149900361REMSYN088AAXX  11174 06782 33/// /2702 10042 21023 38745 48429 53016 333 55300 20000 91107 91202;
0267067820999992011011118004+46700+008850FM-12+118099999V0209999C00001027001CN0120001N1+00321-00181999999ADDAJ100029199999999AL19900091GA1071+027001041GF107991999999999999999999IA1309KA1120M+00781MA1999999087521MD1310191+9999ME1314359OA149900571REMSYN118AAXX  11184 06782 32962 70000 10032 21018 38752 48435 53019 333 10078 42002 55300 20000 87459 90766 93100 91111 91203;
0149067820999992011011119004+46700+008850FM-12+118099999V0200901N001019999999N9999999N1+00101+00061999999ADDMA1999999087621MD1310231+9999ME1314429OA149900261REMSYN088AAXX  11194 06782 33/// /0902 10010 20006 38762 48442 53023 333 55300 20000 91105 91202;
0149067820999992011011120004+46700+008850FM-12+118099999V0200701N001519999999N9999999N1+00031+00011999999ADDMA1999999087701MD1210251+9999ME1314499OA149900361REMSYN088AAXX  11204 06782 33/// /0703 10003 20001 38770 48449 52025 333 55300 20000 91107 91203;
0203067820999992011011121004+46700+008850FM-12+118099999V0201001N000510001519N0001001N1-00021-00021999999ADDGA1091+999999999GF109991091999999999999999MA1999999087761MD1110241+9999ME1314549MW1711OA149900361REMSYN094AAXX  11214 06782 31/01 91001 11002 21002 38776 48454 51024 771// 333 55300 20000 91107 91203;
0155067820999992011011122004+46700+008850FM-12+118099999V0209999C000019999999N9999999N1-00051-00051999999ADDMA1999999087851MD1310231+9999ME1314629OA149900311REMSYN094AAXX  11224 06782 23/// /0000 11005 21005 38785 48462 53023 333 55300 20000 69935 91106 91203;
0155067820999992011011123004+46700+008850FM-12+118099999V0209999C000019999999N9999999N1-00041-00041999999ADDMA1999999087901MD1110201+9999ME1314669OA149900151REMSYN094AAXX  11234 06782 23/// /0000 11004 21004 38790 48466 51020 333 55300 20000 69915 91103 91201;
0226067820999992011011200004+46700+008850FM-12+118099999V0209999C000010003019N0002001N1-00051-00051999999ADDAA106000591GA1091+999999999GF109991091999999999999999MA1999999087941MD1110181+9999ME1314709MW1711OA149900571REMSYN106AAXX  12004 06782 01/02 90000 11005 21005 38794 48470 51018 69951 771// 333 55300 20000 69915 91111 91203;
0155067820999992011011201004+46700+008850FM-12+118099999V0209999C000019999999N9999999N1-00051-00051999999ADDMA1999999087981MD1110131+9999ME1314739OA149900101REMSYN094AAXX  12014 06782 23/// /0000 11005 21005 38798 48473 51013 333 55300 20000 69955 91102 91201;
0118067820999992011011202004+46700+008850FM-12+118099999V0200301N000519999999N9999999N1+00021-00061999999ADDMA1999999088101ME1314859REMSYN082AAXX  12024 06782 23/// /0301 10002 21006 38810 48485 5//// 333 553// 20000 69935;
0166067820999992011011203004+46700+008850FM-12+118099999V0209999C000010006019N0010001N1+00041-00061999999ADDAY121031AY221031GA1091+999999999GF109991091999999999999999MA1999999088131ME1314889MW1731REMSYN066AAXX  12034 06782 41/10 90000 10004 21006 38813 48488 5//// 77322;
0096067820999992011011204004+46700+008850FM-12+118099999V0203301N000519999999N9999999N1+00001-00051999999ADDMA1999999088171ME1314919REMSYN060AAXX  12044 06782 43/// /3301 10000 21005 38817 48491 5////;
0112067820999992011011205004+46700+008850FM-12+118099999V0209999C000019999999N9999999N1-00061-00061999999ADDMA1999999088191ME1314929REMSYN076AAXX  12054 06782 33/// /0000 11006 21006 38819 48492 5//// 333 553// 20000;
0295067820999992011011206004+46700+008850FM-12+118099999V0209999C000010060019N0050001N1-00071-00071999999ADDAA124001591AJ100029199999999AL12400191AY171061AY221061GA1081+006001071GF108991999999008001999999GJ100669IA1279IA2999-00109KA1999N-00081MA1999999088261ME1314989MW1261REMSYN118AAXX  12064 06782 41550 80000 11007 21007 38826 48498 5//// 72672 333 21008 3/101 43002 55011 70014 88720 90768 93102;
0149067820999992011011207004+46700+008850FM-12+118099999V0209999C000019999999N9999999N1-00061-00081999999ADDMA1999999088341MD1310171+9999ME1315069OA149900101REMSYN088AAXX  12074 06782 33/// /0000 11006 21008 38834 48506 53017 333 55300 20000 91102 91201;
0096067820999992011011208004+46700+008850FM-12+118099999V0202601N000519999999N9999999N1-00011-00071999999ADDMA1999999088411ME1315129REMSYN060AAXX  12084 06782 43/// /2601 11001 21007 38841 48512 5////;
0096067820999992011011209004+46700+008850FM-12+118099999V0209999C000019999999N9999999N1+00001-00021999999ADDMA1999999088411ME1315139REMSYN060AAXX  12094 06782 43/// /0000 10000 21002 38841 48513 5////;
0149067820999992011011210004+46700+008850FM-12+118099999V0209999C000019999999N9999999N1+00041-00021999999ADDMA1999999088461MD1219999+9999ME1315189OA149900151REMSYN088AAXX  12104 06782 33/// /0000 10004 21002 38846 48518 52/// 333 55300 20407 91103 91201;
0126067820999992011011211004+46700+008850FM-12+118099999V0209999C000019999999N9999999N1+00121+00031999999ADDMA1999999088441MD1210031+9999ME1315179REMSYN076AAXX  12114 06782 33/// /0000 10012 20003 38844 48517 52003 333 553// 20788;
0176067820999992011011212004+46700+008850FM-12+118099999V0201401N001010111019N0120001N1+00321-00041999999ADDAY171061AY221061GA1071+011101061GF107991999999012501999999MA1999999088401ME1315159MW1101REMSYN076AAXX  12124 06782 41662 71402 10032 21004 38840 48515 5//// 71072 333 87637;
0096067820999992011011213004+46700+008850FM-12+118099999V0200801N001019999999N9999999N1+00281-00111999999ADDMA1999999088381ME1315139REMSYN060AAXX  12134 06782 43/// /0802 10028 21011 38838 48513 5////;
0096067820999992011011214004+46700+008850FM-12+118099999V0201001N000519999999N9999999N1+00321-00011999999ADDMA1999999088411ME1315169REMSYN060AAXX  12144 06782 43/// /1001 10032 21001 38841 48516 5////;
0096067820999992011011215004+46700+008850FM-12+118099999V0200901N001019999999N9999999N1+00191-00061999999ADDMA1999999088441ME1315189REMSYN060AAXX  12154 06782 43/// /0902 10019 21006 38844 48518 5////;
0155067820999992011011216004+46700+008850FM-12+118099999V0209999C000019999999N9999999N1+00031+00011999999ADDMA1999999088461MD1110081+9999ME1315179OA149900261REMSYN094AAXX  12164 06782 23/// /0000 10003 20001 38846 48517 51008 333 55300 20014 69975 91105 91203;
0155067820999992011011217004+46700+008850FM-12+118099999V0209999C000019999999N9999999N1+00011+00011999999ADDMA1999999088501MD1310091+9999ME1315219OA149900211REMSYN094AAXX  12174 06782 23/// /0000 10001 20001 38850 48521 53009 333 55300 20000 60025 91104 91202;
0318067820999992011011218004+46700+008850FM-12+118099999V0209999C00001009901CN0050001N1+00001+00001999999ADDAA112004191AJ100029199999999AL11200191AY121061AY221061GA1081+009901051GF108991999999008001999999IA1279KA1120M+00321MA1999999088481MD1010041+9999ME1315199MW1731OA149900261REMSYN136AAXX  12184 06782 01550 80000 10000 20000 38848 48519 50004 60042 77322 333 10032 43002 55300 20000 60015 88533 90766 93101 91105 91203;
0155067820999992011011219004+46700+008850FM-12+118099999V0209999C000019999999N9999999N1+00031+00011999999ADDMA1999999088481MD1210021+9999ME1315199OA149900101REMSYN094AAXX  12194 06782 23/// /0000 10003 20001 38848 48519 52002 333 55300 20000 69985 91102 91201;
0155067820999992011011220004+46700+008850FM-12+118099999V0209999C000019999999N9999999N1+00031+00001999999ADDMA1999999088491MD1510011+9999ME1315209OA149900051REMSYN094AAXX  12204 06782 23/// /0000 10003 20000 38849 48520 55001 333 55300 20000 69945 91101 91201;
0225067820999992011011221004+46700+008850FM-12+118099999V0209999C000010012019N0020001N1+00001+00001999999ADDAY171031AY271031GA1091+999999999GF109991091999999999999999MA1999999088481MD1010001+9999ME1315199MW1691OA149900211REMSYN100AAXX  12214 06782 21/20 90000 10000 20000 38848 48519 50000 76977 333 55300 20000 69965 91104 91202;
0155067820999992011011222004+46700+008850FM-12+118099999V0209999C000019999999N9999999N1+00061+00011999999ADDMA1999999088461MD1810021+9999ME1315189OA149900051REMSYN094AAXX  12224 06782 23/// /0000 10006 20001 38846 48518 58002 333 55300 20000 69925 91101 91200;
0155067820999992011011223004+46700+008850FM-12+118099999V0209999C000019999999N9999999N1+00081+00001999999ADDMA1999999088451MD1710041+9999ME1315179OA149900101REMSYN094AAXX  12234 06782 23/// /0000 10008 20000 38845 48517 57004 333 55300 20000 69925 91102 91201;
0242067820999992011011300004+46700+008850FM-12+118099999V0203001N000510012019N0020001N1+00061+00021999999ADDAA106002091AY171061AY271061GA1091+999999999GF109991091999999999999999MA1999999088401MD1710081+9999ME1315129MW1581OA149900261REMSYN106AAXX  13004 06782 01/20 93001 10006 20002 38840 48512 57008 60021 75877 333 55300 20000 69915 91105 91203;
0155067820999992011011301004+46700+008850FM-12+118099999V0203101N000519999999N9999999N1+00101+00031999999ADDMA1999999088451MD1510011+9999ME1315179OA149900151REMSYN094AAXX  13014 06782 23/// /3101 10010 20003 38845 48517 55001 333 55300 20000 69935 91103 91201;
0155067820999992011011302004+46700+008850FM-12+118099999V0202801N000519999999N9999999N1+00111+00031999999ADDMA1999999088471MD1319999+9999ME1315199OA149900151REMSYN094AAXX  13024 06782 23/// /2801 10011 20003 38847 48519 53/// 333 55300 20000 60025 91103 91202;
0166067820999992011011303004+46700+008850FM-12+118099999V0203501N000510012019N0020001N1+00111+00051999999ADDAY171031AY271031GA1091+999999999GF109991091999999999999999MA1999999088381ME1315119MW1611REMSYN066AAXX  13034 06782 41/20 93501 10011 20005 38838 48511 5//// 76177;
0155067820999992011011304004+46700+008850FM-12+118099999V0203101N000519999999N9999999N1+00061+00021999999ADDMA1999999088381MD1719999+9999ME1315119OA149900211REMSYN094AAXX  13044 06782 23/// /3101 10006 20002 38838 48511 57/// 333 55300 20000 69955 91104 91202;
0118067820999992011011305004+46700+008850FM-12+118099999V0202501N000519999999N9999999N1+00101+00061999999ADDMA1999999088381ME1315119REMSYN082AAXX  13054 06782 23/// /2501 10010 20006 38838 48511 5//// 333 553// 20000 69975;
0360067820999992011011306004+46700+008850FM-12+118099999V0200401N000510006019N0009001N1+00111+00081999999ADDAA112007191AJ100069199999999AL14801091AL29900491AY161061AY221061GA1091+999999999GF109991091999999999999999GJ100489IA1279IA2999+00009KA1999N-00031MA1999999088381MD1010001+9999ME1315119MW1631OA149900211REMSYN148AAXX  13064 06782 01/09 90401 10011 20008 38838 48511 50000 60072 76362 333 21003 3/000 43006 55008 55300 20000 69955 70108 90768 93104 91104 91202;
0096067820999992011011307004+46700+008850FM-12+118099999V0200201N000519999999N9999999N1+00151+00091999999ADDMA1999999088371ME1315119REMSYN060AAXX  13074 06782 43/// /0201 10015 20009 38837 48511 5////;
0096067820999992011011308004+46700+008850FM-12+118099999V0202301N000519999999N9999999N1+00111+00081999999ADDMA1999999088411ME1315149REMSYN060AAXX  13084 06782 43/// /2301 10011 20008 38841 48514 5////;
0096067820999992011011309004+46700+008850FM-12+118099999V0209999C000019999999N9999999N1+00241+00151999999ADDMA1999999088401ME1315159REMSYN060AAXX  13094 06782 43/// /0000 10024 20015 38840 48515 5////;
0096067820999992011011310004+46700+008850FM-12+118099999V0200201N001019999999N9999999N1+00291+00221999999ADDMA1999999088431ME1315189REMSYN060AAXX  13104 06782 43/// /0202 10029 20022 38843 48518 5////;
0096067820999992011011311004+46700+008850FM-12+118099999V0202501N000519999999N9999999N1+00251+00211999999ADDMA1999999088411ME1315169REMSYN060AAXX  13114 06782 43/// /2501 10025 20021 38841 48516 5////;
0166067820999992011011312004+46700+008850FM-12+118099999V0202901N000510006019N0009001N1+00301+00241999999ADDAY161061AY221061GA1091+999999999GF109991091999999999999999MA1999999088391ME1315149MW1211REMSYN066AAXX  13124 06782 41/09 92901 10030 20024 38839 48514 5//// 72162;
0096067820999992011011313004+46700+008850FM-12+118099999V0200901N000519999999N9999999N1+00421+00351999999ADDMA1999999088341ME1315119REMSYN060AAXX  13134 06782 43/// /0901 10042 20035 38834 48511 5////;
0096067820999992011011314004+46700+008850FM-12+118099999V0209999C000019999999N9999999N1+00571+00401999999ADDMA1999999088311ME1315109REMSYN060AAXX  13144 06782 43/// /0000 10057 20040 38831 48510 5////;
0096067820999992011011315004+46700+008850FM-12+118099999V0203501N000519999999N9999999N1+00471+00421999999ADDMA1999999088341ME1315129REMSYN060AAXX  13154 06782 43/// /3501 10047 20042 38834 48512 5////;
0096067820999992011011316004+46700+008850FM-12+118099999V0209999C000519999999N9999999N1+00421+00391999999ADDMA1999999088381ME1315159REMSYN060AAXX  13164 06782 43/// /0001 10042 20039 38838 48515 5////;
0149067820999992011011317004+46700+008850FM-12+118099999V0203501N000519999999N9999999N1+00431+00361999999ADDMA1999999088411MD1210101+9999ME1315189OA149900261REMSYN088AAXX  13174 06782 33/// /3501 10043 20036 38841 48518 52010 333 553// 20000 91105 91201;
0309067820999992011011318004+46700+008850FM-12+118099999V0209999C00001003901CN0080001N1+00381+00331999999ADDAA112000891AJ199992999999999AL19900091GA1061+003901041GF106991999999004501999999IA1309KA1120M+00581MA1999999088431MD1210081+9999ME1315199OA149900311REMSYN130AAXX  13184 06782 02458 60000 10038 20033 38843 48519 52008 69972 333 10058 42998 55300 20000 60005 86413 90766 93100 91106 91202;EQDQ01  09982SNDP  
0149067820999992011011319004+46700+008850FM-12+118099999V0209999C000019999999N9999999N1+00411+00361999999ADDMA1999999088441MD1210061+9999ME1315209OA149900211REMSYN088AAXX  13194 06782 33/// /0000 10041 20036 38844 48520 52006 333 55300 20000 91104 91201;
0149067820999992011011320004+46700+008850FM-12+118099999V0209999C000019999999N9999999N1+00411+00361999999ADDMA1999999088471MD1210061+9999ME1315239OA149900211REMSYN088AAXX  13204 06782 33/// /0000 10041 20036 38847 48523 52006 333 55300 20000 91104 91201;
0197067820999992011011321004+46700+008850FM-12+118099999V0209999C00001011101CN0100001N1+00401+00351999999ADDGA1081+011101061GF108991999999012501999999MA1999999088501MD1210071+9999ME1315269OA149900261REMSYN094AAXX  13214 06782 32660 80000 10040 20035 38850 48526 52007 333 55300 20000 88637 91105 91201;
0149067820999992011011322004+46700+008850FM-12+118099999V0203001N001019999999N9999999N1+00441+00381999999ADDMA1999999088521MD1110081+9999ME1315289OA149900151REMSYN088AAXX  13224 06782 33/// /3002 10044 20038 38852 48528 51008 333 55300 20000 91103 91202;
0149067820999992011011323004+46700+008850FM-12+118099999V0203301N000519999999N9999999N1+00441+00381999999ADDMA1999999088501MD1010031+9999ME1315269OA149900211REMSYN088AAXX  13234 06782 33/// /3301 10044 20038 38850 48526 50003 333 55300 20000 91104 91202;
0197067820999992011011400004+46700+008850FM-12+118099999V0209999C00001011101CN0100001N1+00451+00391999999ADDGA1081+011101061GF108991999999012501999999MA1999999088491MD1810011+9999ME1315259OA149900261REMSYN094AAXX  14004 06782 32660 80000 10045 20039 38849 48525 58001 333 55300 20000 88637 91105 91202;
0155067820999992011011401004+46700+008850FM-12+118099999V0203101N000519999999N9999999N1+00431+00371999999ADDMA1999999088501MD1710021+9999ME1315269OA149900151REMSYN094AAXX  14014 06782 23/// /3101 10043 20037 38850 48526 57002 333 55300 20000 69915 91103 91201;
0112067820999992011011402004+46700+008850FM-12+118099999V0200101N000519999999N9999999N1+00451+00381999999ADDMA1999999088531ME1315299REMSYN076AAXX  14024 06782 33/// /0101 10045 20038 38853 48529 5//// 333 553// 20000;
0225067820999992011011403004+46700+008850FM-12+118099999V0203001N00051006001CN0080001N1+00411+00331999999ADDAY161031AY221031GA1081+006001071GF108991999999008001999999MA1999999088521MD1210031+9999ME1315279MW1601OA149900211REMSYN100AAXX  14034 06782 31558 83001 10041 20033 38852 48527 52003 76062 333 55300 20000 88720 91104 91202;
0168067820999992011011404004+46700+008850FM-12+118099999V0203301N000519999999N9999999N1+00391+00321999999ADDMA1999999088501MD1410001+9999ME1315259OA149900151REMSYN088AAXX  14044 06782 33/// /3301 10039 20032 38850 48525 58000 333 55300 20000 91103 91201;EQDQ01+000082APCTEN
0149067820999992011011405004+46700+008850FM-12+118099999V0203101N000519999999N9999999N1+00351+00291999999ADDMA1999999088521MD1510011+9999ME1315279OA149900151REMSYN088AAXX  14054 06782 33/// /3101 10035 20029 38852 48527 55001 333 55300 20000 91103 91201;
0356067820999992011011406004+46700+008850FM-12+118099999V0209999C00001011101CN0100001N1+00351+00281999999ADDAA112000021AJ100049199999999AL19900091AY161061AY221061GA1061+011101061GF106991999999012501999999GJ100429IA1309IA2999+00109KA1999N+00321MA1999999088551MD1210031+9999ME1315299MW1011OA149900211REMSYN154AAXX  14064 06782 01660 60000 10035 20028 38855 48529 52003 69912 70162 333 20032 3/001 42004 55007 55300 20000 60005 70009 86637 90768 93100 91104 91202;
0149067820999992011011407004+46700+008850FM-12+118099999V0202801N000519999999N9999999N1+00411+00311999999ADDMA1999999088581MD1110081+9999ME1315339OA149900151REMSYN088AAXX  14074 06782 33/// /2801 10041 20031 38858 48533 51008 333 55300 20000 91103 91202;
0096067820999992011011408004+46700+008850FM-12+118099999V0203401N000519999999N9999999N1+00381+00271999999ADDMA1999999088571ME1315329REMSYN060AAXX  14084 06782 43/// /3401 10038 20027 38857 48532 5////;
0096067820999992011011409004+46700+008850FM-12+118099999V0203201N000519999999N9999999N1+00311+00241999999ADDMA1999999088561ME1315309REMSYN060AAXX  14094 06782 43/// /3201 10031 20024 38856 48530 5////;
0096067820999992011011410004+46700+008850FM-12+118099999V0201301N000519999999N9999999N1+00491+00361999999ADDMA1999999088531ME1315299REMSYN060AAXX  14104 06782 43/// /1301 10049 20036 38853 48529 5////;
0149067820999992011011411004+46700+008850FM-12+118099999V0201401N000519999999N9999999N1+00631+00371999999ADDMA1999999088501MD1810071+9999ME1315289OA149900211REMSYN088AAXX  14114 06782 33/// /1401 10063 20037 38850 48528 58007 333 55308 2//// 91104 91201;
0197067820999992011011412004+46700+008850FM-12+118099999V0201501N000512200019N0100001N1+00791+00351999999ADDGA1031+057001001GF103991999999999999999999MA1999999088401MD1810161+9999ME1315219OA149900211REMSYN094AAXX  14124 06782 33960 31501 10079 20035 38840 48521 58016 333 55306 2//// 83069 91104 91202;
0149067820999992011011413004+46700+008850FM-12+118099999V0201201N000519999999N9999999N1+00861+00471999999ADDMA1999999088341MD1810191+9999ME1315169OA149900211REMSYN088AAXX  14134 06782 33/// /1201 10086 20047 38834 48516 58019 333 55304 2//// 91104 91202;
0112067820999992011011414004+46700+008850FM-12+118099999V0200901N000519999999N9999999N1+00821+00311999999ADDMA1999999088311ME1315139REMSYN076AAXX  14144 06782 33/// /0901 10082 20031 38831 48513 5//// 333 553// 20918;
0149067820999992011011415004+46700+008850FM-12+118099999V0200201N000519999999N9999999N1+00661+00361999999ADDMA1999999088311MD1710091+9999ME1315119OA149900211REMSYN088AAXX  14154 06782 33/// /0201 10066 20036 38831 48511 57009 333 55304 20446 91104 91202;
0149067820999992011011416004+46700+008850FM-12+118099999V0209999C000019999999N9999999N1+00511+00291999999ADDMA1999999088361MD1310021+9999ME1315149OA149900101REMSYN088AAXX  14164 06782 33/// /0000 10051 20029 38836 48514 53002 333 55300 20090 91102 91201;
0149067820999992011011417004+46700+008850FM-12+118099999V0203401N000519999999N9999999N1+00421+00141999999ADDMA1999999088411MD1210101+9999ME1315189OA149900151REMSYN088AAXX  14174 06782 33/// /3401 10042 20014 38841 48518 52010 333 55300 20000 91103 91202;
0280067820999992011011418004+46700+008850FM-12+118099999V0203201N000512200019N0100001N1+00321+00101999999ADDAJ199992999999999AL19900091GA1001+999999999GF100991001001999999001001IA1259KA1120M+00861MA1999999088391MD1210081+9999ME1315159OA149900211REMSYN112AAXX  14184 06782 32/60 03201 10032 20010 38839 48515 52008 333 10086 41998 55300 20000 90766 93100 91104 91202;EQDQ01  09982SNDP  
0149067820999992011011419004+46700+008850FM-12+118099999V0202901N000519999999N9999999N1+00281-00031999999ADDMA1999999088351MD1810011+9999ME1315109OA149900101REMSYN088AAXX  14194 06782 33/// /2901 10028 21003 38835 48510 58001 333 55300 20000 91102 91202;
0149067820999992011011420004+46700+008850FM-12+118099999V0209999C000019999999N9999999N1+00231-00081999999ADDMA1999999088281MD1710131+9999ME1315049OA149900151REMSYN088AAXX  14204 06782 33/// /0000 10023 21008 38828 48504 57013 333 55300 20000 91103 91202;
0197067820999992011011421004+46700+008850FM-12+118099999V0209999C000012200019N0100001N1+00231-00071999999ADDGA1041+011101061GF104991999999012501999999MA1999999088241MD1710151+9999ME1315009OA149900151REMSYN094AAXX  14214 06782 32660 40000 10023 21007 38824 48500 57015 333 55300 20000 84637 91103 91202;
0149067820999992011011422004+46700+008850FM-12+118099999V0203501N000519999999N9999999N1+00291-00221999999ADDMA1999999088221MD1610131+9999ME1314999OA149900151REMSYN088AAXX  14224 06782 33/// /3501 10029 21022 38822 48499 56013 333 55300 20000 91103 91201;
0149067820999992011011423004+46700+008850FM-12+118099999V0203001N000519999999N9999999N1+00251-00271999999ADDMA1999999088211MD1710071+9999ME1314979OA149900151REMSYN088AAXX  14234 06782 33/// /3001 10025 21027 38821 48497 57007 333 55300 20000 91103 91201;
0191067820999992011011500004+46700+008850FM-12+118099999V0209999C000012200019N0100001N1+00051-00211999999ADDGA1001+999999999GF100991001001999999001001MA1999999088291MD1310051+9999ME1315029OA149900151REMSYN088AAXX  15004 06782 32/60 00000 10005 21021 38829 48502 53005 333 55300 20000 91103 91202;
0149067820999992011011501004+46700+008850FM-12+118099999V0203401N000519999999N9999999N1+00171-00231999999ADDMA1999999088471MD1210251+9999ME1315209OA149900261REMSYN088AAXX  15014 06782 33/// /3401 10017 21023 38847 48520 52025 333 55300 20000 91105 91202;
0149067820999992011011502004+46700+008850FM-12+118099999V0200601N000519999999N9999999N1+00081-00161999999ADDMA1999999088511MD1219999+9999ME1315239OA149900311REMSYN088AAXX  15024 06782 33/// /0601 10008 21016 38851 48523 52/// 333 55300 20000 91106 91202;
0178067820999992011011503004+46700+008850FM-12+118099999V0209999C000019999999N0080001N1+00171+00001999999ADDAY161031AY211031GF105991999999008001999999MA1999999088581ME1315309MW1621REMSYN094AAXX  15034 06782 21558 50000 10017 20000 38858 48530 5//// 76261 333 553// 20000 69915 85620;
0155067820999992011011504004+46700+008850FM-12+118099999V0203401N000519999999N9999999N1+00201+00111999999ADDMA1999999088641MD1210171+9999ME1315369OA149900411REMSYN094AAXX  15044 06782 23/// /3401 10020 20011 38864 48536 52017 333 55300 20000 69915 91108 91203;
0149067820999992011011505004+46700+008850FM-12+118099999V0203301N000519999999N9999999N1+00231+00131999999ADDMA1999999088751MD1310241+9999ME1315469OA149900211REMSYN088AAXX  15054 06782 33/// /3301 10023 20013 38875 48546 53024 333 55300 20000 91104 91202;
0356067820999992011011506004+46700+008850FM-12+118099999V0202701N00051003901CN0080001N1+00181+00101999999ADDAA112000591AJ100039199999999AL19900091AY161061AY221061GA1081+003901071GF108991999999004501999999GJ102409IA1309IA2999-00209KA1999N+00051MA1999999088781MD1210201+9999ME1315489MW1611OA149900411REMSYN154AAXX  15064 06782 01458 82701 10018 20010 38878 48548 52020 69942 76162 333 20005 3/102 42003 55040 55300 20000 69925 70004 88713 90768 93100 91108 91203;
0149067820999992011011507004+46700+008850FM-12+118099999V0200201N001019999999N9999999N1+00201+00071999999ADDMA1999999088891MD1210251+9999ME1315589OA149900361REMSYN088AAXX  15074 06782 33/// /0202 10020 20007 38889 48558 52025 333 55300 20000 91107 91203;
0149067820999992011011508004+46700+008850FM-12+118099999V0200601N001019999999N9999999N1+00211+00121999999ADDMA1999999088971MD1219999+9999ME1315669OA149900411REMSYN088AAXX  15084 06782 33/// /0602 10021 20012 38897 48566 52/// 333 55300 20014 91108 91203;
0149067820999992011011509004+46700+008850FM-12+118099999V0201801N000519999999N9999999N1+00221+00141999999ADDMA1999999089051MD1110271+9999ME1315739OA149900411REMSYN088AAXX  15094 06782 33/// /1801 10022 20014 38905 48573 51027 333 55300 20097 91108 91203;
0155067820999992011011510004+46700+008850FM-12+118099999V0201501N000519999999N9999999N1+00301+00231999999ADDMA1999999089081MD1110191+9999ME1315779OA149900311REMSYN094AAXX  15104 06782 23/// /1501 10030 20023 38908 48577 51019 333 55300 20443 69925 91106 91202;
0155067820999992011011511004+46700+008850FM-12+118099999V0202401N000519999999N9999999N1+00391+00171999999ADDMA1999999089031MD1010061+9999ME1315749OA149900151REMSYN094AAXX  15114 06782 23/// /2401 10039 20017 38903 48574 50006 333 55300 20850 69915 91103 91202;
0172067820999992011011512004+46700+008850FM-12+118099999V0201501N001019999999N9999999N1+00481+00041999999ADDAA106000391MA1999999088971MD1810081+9999ME1315699OA149900411REMSYN100AAXX  15124 06782 03/// /1502 10048 20004 38897 48569 58008 69931 333 55307 2//// 60005 91108 91203;
0112067820999992011011513004+46700+008850FM-12+118099999V0200901N001019999999N9999999N1+00481-00071999999ADDMA1999999088951ME1315689REMSYN076AAXX  15134 06782 33/// /0902 10048 21007 38895 48568 5//// 333 553// 2////;
0096067820999992011011514004+46700+008850FM-12+118099999V0201701N000519999999N9999999N1+00541+00021999999ADDMA1999999088991ME1315729REMSYN060AAXX  15144 06782 43/// /1701 10054 20002 38899 48572 5////;
0096067820999992011011515004+46700+008850FM-12+118099999V0209999C000019999999N9999999N1+00501+00021999999ADDMA1999999089031ME1315759REMSYN060AAXX  15154 06782 43/// /0000 10050 20002 38903 48575 5////;
0096067820999992011011516004+46700+008850FM-12+118099999V0209999C000019999999N9999999N1+00321-00021999999ADDMA1999999089081ME1315779REMSYN060AAXX  15164 06782 43/// /0000 10032 21002 38908 48577 5////;
0112067820999992011011517004+46700+008850FM-12+118099999V0209999C000019999999N9999999N1+00201-00081999999ADDMA1999999089141ME1315819REMSYN076AAXX  15174 06782 33/// /0000 10020 21008 38914 48581 5//// 333 553// 20000;
0119067820999992011011518004+46700+008850FM-12+118099999V0209999C000019999999N9999999N1+00151-00121999999ADDKA1999M+00571MA1999999089201ME1315859REMSYN070AAXX  15184 06782 43/// /0000 10015 21012 38920 48585 5//// 333 10057;
0096067820999992011011519004+46700+008850FM-12+118099999V0203101N000519999999N9999999N1+00171-00171999999ADDMA1999999089211ME1315879REMSYN060AAXX  15194 06782 43/// /3101 10017 21017 38921 48587 5////;
0096067820999992011011520004+46700+008850FM-12+118099999V0209999C000019999999N9999999N1+00141-00211999999ADDMA1999999089231ME1315889REMSYN060AAXX  15204 06782 43/// /0000 10014 21021 38923 48588 5////;
0197067820999992011011521004+46700+008850FM-12+118099999V0203201N001012200019N0100001N1+00151-00251999999ADDGA1041+011101061GF104991999999012501999999MA1999999089241MD1210041+9999ME1315899OA149900211REMSYN094AAXX  15214 06782 32660 43202 10015 21025 38924 48589 52004 333 55300 20000 84637 91104 91202;
0149067820999992011011522004+46700+008850FM-12+118099999V0203101N000519999999N9999999N1+00111-00311999999ADDMA1999999089231MD1010021+9999ME1315889OA149900151REMSYN088AAXX  15224 06782 33/// /3101 10011 21031 38923 48588 50002 333 55300 20000 91103 91202;
0149067820999992011011523004+46700+008850FM-12+118099999V0209999C000019999999N9999999N1+00141-00361999999ADDMA1999999089161MD1710071+9999ME1315829OA149900211REMSYN088AAXX  15234 06782 33/// /0000 10014 21036 38916 48582 57007 333 55300 20000 91104 91201;
0191067820999992011011600004+46700+008850FM-12+118099999V0209999C000012200019N0100001N1+00071-00441999999ADDGA1001+999999999GF100991001001999999001001MA1999999089161MD1710081+9999ME1315819OA149900261REMSYN088AAXX  16004 06782 32/60 00000 10007 21044 38916 48581 57008 333 55300 20000 91105 91202;
0149067820999992011011601004+46700+008850FM-12+118099999V0203001N000519999999N9999999N1+00061-00481999999ADDMA1999999089211MD1510021+9999ME1315859OA149900101REMSYN088AAXX  16014 06782 33/// /3001 10006 21048 38921 48585 55002 333 55300 20000 91102 91201;
0149067820999992011011602004+46700+008850FM-12+118099999V0209999C000019999999N9999999N1+00141-00511999999ADDMA1999999089221MD1219999+9999ME1315879OA149900211REMSYN088AAXX  16024 06782 33/// /0000 10014 21051 38922 48587 52/// 333 55300 20000 91104 91202;
0138067820999992011011603004+46700+008850FM-12+118099999V0202801N000512200019N0100001N1+00211-00591999999ADDGA1001+999999999GF100991001001999999001001MA1999999089171ME1315849REMSYN060AAXX  16034 06782 42/60 02801 10021 21059 38917 48584 5////;
0149067820999992011011604004+46700+008850FM-12+118099999V0203301N000519999999N9999999N1+00311-00661999999ADDMA1999999089151MD1710061+9999ME1315839OA149900151REMSYN088AAXX  16044 06782 33/// /3301 10031 21066 38915 48583 57006 333 55300 20000 91103 91201;
0149067820999992011011605004+46700+008850FM-12+118099999V0203501N000519999999N9999999N1+00391-00611999999ADDMA1999999089131MD1610091+9999ME1315839OA149900151REMSYN088AAXX  16054 06782 33/// /3501 10039 21061 38913 48583 56009 333 55300 20000 91103 91202;
0330067820999992011011606004+46700+008850FM-12+118099999V0203601N001012200019N0100001N1+00361-00531999999ADDAJ199992999999999AL19900091GA1001+999999999GF100991001001999999001001GJ101509IA1179IA2999-00309KA1999N+00041MA1999999089151MD1510021+9999ME1315849MW1001OA149900211REMSYN136AAXX  16064 06782 31/60 03602 10036 21053 38915 48584 55002 700// 333 20004 3/103 40998 55025 55300 20000 70003 90768 93100 91104 91202;EQDQ01  09982SNDP  
0149067820999992011011607004+46700+008850FM-12+118099999V0209999C000019999999N9999999N1+00371-00501999999ADDMA1999999089141MD1710011+9999ME1315839OA149900151REMSYN088AAXX  16074 06782 33/// /0000 10037 21050 38914 48583 57001 333 55300 20000 91103 91202;
0149067820999992011011608004+46700+008850FM-12+118099999V0200301N000519999999N9999999N1+00391-00441999999ADDMA1999999089151MD1219999+9999ME1315849OA149900151REMSYN088AAXX  16084 06782 33/// /0301 10039 21044 38915 48584 52/// 333 55300 20032 91103 91202;
0168067820999992011011609004+46700+008850FM-12+118099999V0203301N000519999999N9999999N1+00541-00451999999ADDMA1999999089151MD1410001+9999ME1315879OA149900151REMSYN088AAXX  16094 06782 33/// /3301 10054 21045 38915 48587 52000 333 55300 20094 91103 91202;EQDQ01+000022APCTEN
0149067820999992011011610004+46700+008850FM-12+118099999V0202001N000519999999N9999999N1+00781-00331999999ADDMA1999999089121MD1710021+9999ME1315879OA149900211REMSYN088AAXX  16104 06782 33/// /2001 10078 21033 38912 48587 57002 333 55303 20691 91104 91202;
0149067820999992011011611004+46700+008850FM-12+118099999V0201001N001019999999N9999999N1+00901-00091999999ADDMA1999999089071MD1710081+9999ME1315849OA149900211REMSYN088AAXX  16114 06782 33/// /1002 10090 21009 38907 48584 57008 333 55308 2//// 91104 91202;
0203067820999992011011612004+46700+008850FM-12+118099999V0202001N001012200019N0120001N1+01111-00061999999ADDGA1001+999999999GF100991001001999999001001MA1999999089031MD1810121+9999ME1315849MW1001OA149900261REMSYN094AAXX  16124 06782 31/62 02002 10111 21006 38903 48584 58012 700// 333 55308 2//// 91105 91202;
0149067820999992011011613004+46700+008850FM-12+118099999V0200701N000519999999N9999999N1+01201-00031999999ADDMA1999999088981MD1710141+9999ME1315809OA149900261REMSYN088AAXX  16134 06782 33/// /0701 10120 21003 38898 48580 57014 333 55308 2//// 91105 91202;
0149067820999992011011614004+46700+008850FM-12+118099999V0200401N000519999999N9999999N1+01341-00191999999ADDMA1999999088981MD1719999+9999ME1315829OA149900211REMSYN088AAXX  16144 06782 33/// /0401 10134 21019 38898 48582 57/// 333 55308 2//// 91104 91201;
0149067820999992011011615004+46700+008850FM-12+118099999V0203001N000519999999N9999999N1+01161-00221999999ADDMA1999999089001MD1510031+9999ME1315829OA149900361REMSYN088AAXX  16154 06782 33/// /3001 10116 21022 38900 48582 55003 333 55308 20605 91107 91202;
0149067820999992011011616004+46700+008850FM-12+118099999V0203001N000519999999N9999999N1+01051-00391999999ADDMA1999999089021MD1210041+9999ME1315829OA149900361REMSYN088AAXX  16164 06782 33/// /3001 10105 21039 38902 48582 52004 333 55300 20047 91107 91203;
0149067820999992011011617004+46700+008850FM-12+118099999V0203301N000519999999N9999999N1+00881-00351999999ADDMA1999999089041MD1210061+9999ME1315819OA149900361REMSYN088AAXX  16174 06782 33/// /3301 10088 21035 38904 48581 52006 333 55300 20000 91107 91203;
0280067820999992011011618004+46700+008850FM-12+118099999V0202901N001012200019N0100001N1+00881-00431999999ADDAJ199992999999999AL19900091GA1001+999999999GF100991001001999999001001IA1259KA1120M+01421MA1999999089061MD1210061+9999ME1315839OA149900361REMSYN112AAXX  16184 06782 32/60 02902 10088 21043 38906 48583 52006 333 10142 41998 55300 20000 90766 93100 91107 91203;EQDQ01  09982SNDP  
0149067820999992011011619004+46700+008850FM-12+118099999V0202701N001019999999N9999999N1+00751-00381999999ADDMA1999999089071MD1210051+9999ME1315829OA149900361REMSYN088AAXX  16194 06782 33/// /2702 10075 21038 38907 48582 52005 333 55300 20000 91107 91203;
0149067820999992011011620004+46700+008850FM-12+118099999V0202701N001019999999N9999999N1+00891-00541999999ADDMA1999999089071MD1210031+9999ME1315849OA149900361REMSYN088AAXX  16204 06782 33/// /2702 10089 21054 38907 48584 52003 333 55300 20000 91107 91203;
0191067820999992011011621004+46700+008850FM-12+118099999V0202801N000512200019N0100001N1+00791-00511999999ADDGA1001+999999999GF100991001001999999001001MA1999999089081MD1210021+9999ME1315849OA149900361REMSYN088AAXX  16214 06782 32/60 02801 10079 21051 38908 48584 52002 333 55300 20000 91107 91203;
0149067820999992011011622004+46700+008850FM-12+118099999V0203301N001019999999N9999999N1+00761-00491999999ADDMA1999999089081MD1210011+9999ME1315839OA149900361REMSYN088AAXX  16224 06782 33/// /3302 10076 21049 38908 48583 52001 333 55300 20000 91107 91202;
0149067820999992011011623004+46700+008850FM-12+118099999V0202801N001019999999N9999999N1+00751-00541999999ADDMA1999999089071MD1010001+9999ME1315829OA149900361REMSYN088AAXX  16234 06782 33/// /2802 10075 21054 38907 48582 50000 333 55300 20000 91107 91202;
0191067820999992011011700004+46700+008850FM-12+118099999V0203001N001012200019N0100001N1+00651-00481999999ADDGA1001+999999999GF100991001001999999001001MA1999999089051MD1710031+9999ME1315799OA149900361REMSYN088AAXX  17004 06782 32/60 03002 10065 21048 38905 48579 57003 333 55300 20000 91107 91203;
0149067820999992011011701004+46700+008850FM-12+118099999V0203201N000519999999N9999999N1+00621-00581999999ADDMA1999999089031MD1710051+9999ME1315779OA149900311REMSYN088AAXX  17014 06782 33/// /3201 10062 21058 38903 48577 57005 333 55300 20000 91106 91202;
0149067820999992011011702004+46700+008850FM-12+118099999V0209999C000519999999N9999999N1+00661-00681999999ADDMA1999999089011MD1719999+9999ME1315769OA149900311REMSYN088AAXX  17024 06782 33/// /0001 10066 21068 38901 48576 57/// 333 55300 20000 91106 91202;
0182067820999992011011703004+46700+008850FM-12+118099999V0209999C000012200019N0100001N1+00541-00671999999ADDAY101031AY201031GA1001+999999999GF100991001001999999001001MA1999999089001ME1315739MW1101REMSYN082AAXX  17034 06782 31/60 00000 10054 21067 38900 48573 5//// 71000 333 553// 20000;
0149067820999992011011704004+46700+008850FM-12+118099999V0209999C000019999999N9999999N1+00521-00701999999ADDMA1999999088991MD1710041+9999ME1315729OA149900261REMSYN088AAXX  17044 06782 33/// /0000 10052 21070 38899 48572 57004 333 55300 20000 91105 91202;
0149067820999992011011705004+46700+008850FM-12+118099999V0203201N000519999999N9999999N1+00511-00741999999ADDMA1999999088951MD1710061+9999ME1315689OA149900151REMSYN088AAXX  17054 06782 33/// /3201 10051 21074 38895 48568 57006 333 55300 20000 91103 91201;
0330067820999992011011706004+46700+008850FM-12+118099999V0209999C000012200019N0120001N1+00401-00761999999ADDAJ199992999999999AL19900091GA1001+999999999GF100991001001999999001001GJ103189IA1179IA2999-00109KA1999N+00411MA1999999088941MD1710061+9999ME1315669MW1001OA149900361REMSYN136AAXX  17064 06782 31/62 00000 10040 21076 38894 48566 57006 700// 333 20041 3/101 40998 55053 55300 20000 70000 90768 93100 91107 91203;EQDQ01  09982SNDP  
0149067820999992011011707004+46700+008850FM-12+118099999V0202801N000519999999N9999999N1+00441-00891999999ADDMA1999999088941MD1610051+9999ME1315669OA149900211REMSYN088AAXX  17074 06782 33/// /2801 10044 21089 38894 48566 56005 333 55300 20000 91104 91202;
0096067820999992011011708004+46700+008850FM-12+118099999V0209999C000019999999N9999999N1+00471-00911999999ADDMA1999999088941ME1315679REMSYN060AAXX  17084 06782 43/// /0000 10047 21091 38894 48567 5////;
0096067820999992011011709004+46700+008850FM-12+118099999V0203401N000519999999N9999999N1+00481-00871999999ADDMA1999999088911ME1315649REMSYN060AAXX  17094 06782 43/// /3401 10048 21087 38891 48564 5////;
0149067820999992011011710004+46700+008850FM-12+118099999V0200801N000519999999N9999999N1+00801-00821999999ADDMA1999999088901MD1710041+9999ME1315679OA149900261REMSYN088AAXX  17104 06782 33/// /0801 10080 21082 38890 48567 57004 333 55303 20720 91105 91202;
0149067820999992011011711004+46700+008850FM-12+118099999V0201801N000519999999N9999999N1+00871-00581999999ADDMA1999999088841MD1810101+9999ME1315639OA149900261REMSYN088AAXX  17114 06782 33/// /1801 10087 21058 38884 48563 58010 333 55308 2//// 91105 91202;
