0137067840999992010010100004+46817+009850FM-12+159099999V0209999C000019999999N9999999N1-00671-01341999999ADDMA1999999081681MD1810111+9999ME1312909OA149900361REMSYN076AAXX  01004 06784 33/// /0000 11067 21134 38168 48290 58011 333 91107 91205;
0137067840999992010010101004+46817+009850FM-12+159099999V0209999C000019999999N9999999N1-00611-01651999999ADDMA1999999081631MD1810111+9999ME1312889OA149900101REMSYN076AAXX  01014 06784 33/// /0000 11061 21165 38163 48288 58011 333 91102 91201;
0137067840999992010010102004+46817+009850FM-12+159099999V0201401N000519999999N9999999N1-00701-01411999999ADDMA1999999081611MD1719999+9999ME1312849OA149900101REMSYN076AAXX  01024 06784 33/// /1401 11070 21141 38161 48284 57/// 333 91102 91201;
0096067840999992010010103004+46817+009850FM-12+159099999V0201701N000519999999N9999999N1-00681-01571999999ADDMA1999999081541ME1312799REMSYN060AAXX  01034 06784 43/// /1701 11068 21157 38154 48279 5////;
0096067840999992010010104004+46817+009850FM-12+159099999V0202001N000519999999N9999999N1-00751-01571999999ADDMA1999999081501ME1312749REMSYN060AAXX  01044 06784 33/// /2001 11075 21157 38150 48274 5////;
0137067840999992010010105004+46817+009850FM-12+159099999V0203401N000519999999N9999999N1-00731-01471999999ADDMA1999999081461MD1610151+9999ME1312719OA149900101REMSYN076AAXX  01054 06784 33/// /3401 11073 21147 38146 48271 56015 333 91102 91201;
0215067840999992010010106004+46817+009850FM-12+159099999V0202101N000519999999N9999999N1-00781-01321999999ADDAA124003891AL14800391GJ100009IA2999-01209KA1999N-00771MA1999999081451MD1610091+9999ME1312679OA149900261REMSYN100AAXX  01064 06784 33/// /2101 11078 21132 38145 48267 56009 333 21077 3/112 55000 70039 91105 91203;
0137067840999992010010107004+46817+009850FM-12+159099999V0200301N000519999999N9999999N1-00781-01371999999ADDMA1999999081411MD1610091+9999ME1312649OA149900101REMSYN076AAXX  01074 06784 33/// /0301 11078 21137 38141 48264 56009 333 91102 91201;
0137067840999992010010108004+46817+009850FM-12+159099999V0200201N000519999999N9999999N1-00811-01491999999ADDMA1999999081441MD1510021+9999ME1312699OA149900101REMSYN076AAXX  01084 06784 33/// /0201 11081 21149 38144 48269 55002 333 91102 91202;
0137067840999992010010109004+46817+009850FM-12+159099999V0209999C000019999999N9999999N1-00671-01391999999ADDMA1999999081501MD1310051+9999ME1312739OA149900101REMSYN076AAXX  01094 06784 33/// /0000 11067 21139 38150 48273 53005 333 91102 91202;
0137067840999992010010110004+46817+009850FM-12+159099999V0209999C000019999999N9999999N1-00491-01141999999ADDMA1999999081531MD1210121+9999ME1312729OA149900101REMSYN076AAXX  01104 06784 33/// /0000 11049 21114 38153 48272 52012 333 91102 91201;
0137067840999992010010111004+46817+009850FM-12+159099999V0209999C000019999999N9999999N1-00371-01061999999ADDMA1999999081481MD1010041+9999ME1312669OA149900151REMSYN076AAXX  01114 06784 33/// /0000 11037 21106 38148 48266 50004 333 91103 91201;
0137067840999992010010112004+46817+009850FM-12+159099999V0200301N000519999999N9999999N1-00251-00871999999ADDMA1999999081461MD1710041+9999ME1312619OA149900151REMSYN076AAXX  01124 06784 33/// /0301 11025 21087 38146 48261 57004 333 91103 91202;
0137067840999992010010113004+46817+009850FM-12+159099999V0209999C000019999999N9999999N1-00201-00631999999ADDMA1999999081471MD1710061+9999ME1312599OA149900101REMSYN076AAXX  01134 06784 33/// /0000 11020 21063 38147 48259 57006 333 91102 91201;
0137067840999992010010114004+46817+009850FM-12+159099999V0200201N000519999999N9999999N1-00181-00761999999ADDMA1999999081531MD1319999+9999ME1312669OA149900101REMSYN076AAXX  01144 06784 33/// /0201 11018 21076 38153 48266 53/// 333 91102 91201;
0137067840999992010010115004+46817+009850FM-12+159099999V0200501N002119999999N9999999N1-00171-00391999999ADDMA1999999081601MD1310141+9999ME1312699OA149900311REMSYN076AAXX  01154 06784 33/// /0504 11017 21039 38160 48269 53014 333 91106 91204;
0137067840999992010010116004+46817+009850FM-12+159099999V0200601N002619999999N9999999N1-00181-00381999999ADDMA1999999081671MD1210201+9999ME1312769OA149900461REMSYN076AAXX  01164 06784 33/// /0605 11018 21038 38167 48276 52020 333 91109 91207;
0137067840999992010010117004+46817+009850FM-12+159099999V0209999C000019999999N9999999N1-00221-00401999999ADDMA1999999081731MD1210201+9999ME1312839OA149900461REMSYN076AAXX  01174 06784 33/// /0000 11022 21040 38173 48283 52020 333 91109 91207;
0156067840999992010010118004+46817+009850FM-12+159099999V0200201N002119999999N9999999N1-00221-00341999999ADDKA1120M-00121MA1999999081821MD1310221+9999ME1312919OA149900511REMSYN082AAXX  01184 06784 33/// /0204 11022 21034 38182 48291 53022 333 11012 91110 91208;
0154067840999992010010119004+46817+009850FM-12+159099999V0209999C000019999999N9999999N1-00281+99999999999ADDAA101000591MA1999999081891MD1310221+9999ME1312989OA149900511REMSYN082AAXX  01194 06784 23/// /0000 11028 21027 38189 48298 53022 333 69945 91110 91208;
0154067840999992010010120004+46817+009850FM-12+159099999V0203601N003619999999N9999999N1-00231-00271999999ADDAA101001091MA1999999081991MD1310261+9999ME1313079OA149900571REMSYN082AAXX  01204 06784 23/// /3607 11023 21027 38199 48307 53026 333 60015 91111 91207;
0154067840999992010010121004+46817+009850FM-12+159099999V0200601N005719999999N9999999N1-00201-00521999999ADDAA101000391MA1999999082111MD1310291+9999ME1313199OA149901031REMSYN082AAXX  01214 06784 23/// /0611 11020 21052 38211 48319 53029 333 69935 91120 91213;
0137067840999992010010122004+46817+009850FM-12+159099999V0200301N005119999999N9999999N1-00321-00391999999ADDMA1999999082211MD1310321+9999ME1313309OA149901031REMSYN076AAXX  01224 06784 33/// /0310 11032 21039 38221 48330 53032 333 91120 91213;
0137067840999992010010123004+46817+009850FM-12+159099999V0200101N004119999999N9999999N1-00311-00481999999ADDMA1999999082271MD1110281+9999ME1313369OA149900931REMSYN076AAXX  01234 06784 33/// /0108 11031 21048 38227 48336 51028 333 91118 91210;
0160067840999992010010200004+46817+009850FM-12+159099999V0200501N005119999999N9999999N1-00411-00421999999ADDAA106002091MA1999999082311MD1210201+9999ME1313409OA149901031REMSYN088AAXX  02004 06784 03/// /0510 11041 21042 38231 48340 52020 60021 333 69935 91120 91213;
0137067840999992010010201004+46817+009850FM-12+159099999V0200401N004619999999N9999999N1-00451-00521999999ADDMA1999999082351MD1210141+9999ME1313459OA149900721REMSYN076AAXX  02014 06784 33/// /0409 11045 21052 38235 48345 52014 333 91114 91210;
0096067840999992010010202004+46817+009850FM-12+159099999V0200301N005119999999N9999999N1-00511+99999999999ADDMA1999999082441ME1313549REMSYN060AAXX  02024 06784 33/// /0310 11051 21046 38244 48354 5////;
0137067840999992010010203004+46817+009850FM-12+159099999V0200401N004619999999N9999999N1-00541+99999999999ADDMA1999999082501MD1310191+9999ME1313609OA149900931REMSYN076AAXX  02034 06784 33/// /0409 11054 21053 38250 48360 53019 333 91118 91210;
0154067840999992010010204004+46817+009850FM-12+159099999V0200301N005119999999N9999999N1-00611-00761999999ADDAA101000021MA1999999082551MD1210201+9999ME1313669OA149900771REMSYN082AAXX  02044 06784 23/// /0310 11061 21076 38255 48366 52020 333 69915 91115 91211;
0137067840999992010010205004+46817+009850FM-12+159099999V0200501N005719999999N9999999N1-00721-00921999999ADDMA1999999082641MD1210201+9999ME1313759OA149900931REMSYN076AAXX  02054 06784 33/// /0511 11072 21092 38264 48375 52020 333 91118 91213;
0238067840999992010010206004+46817+009850FM-12+159099999V0200601N004619999999N9999999N1-00771-01081999999ADDAA112002091AA224002391AL11200291GJ100729IA2999-00809KA1999N-00781MA1999999082701MD1210201+9999ME1313819OA149901031REMSYN112AAXX  02064 06784 03/// /0609 11077 21108 38270 48381 52020 60022 333 21078 3/108 55012 60005 70022 91120 91213;
0137067840999992010010207004+46817+009850FM-12+159099999V0200501N005119999999N9999999N1-00851-01101999999ADDMA1999999082771MD1210221+9999ME1313889OA149900881REMSYN076AAXX  02074 06784 33/// /0510 11085 21110 38277 48388 52022 333 91117 91212;
0096067840999992010010208004+46817+009850FM-12+159099999V0200401N004119999999N9999999N1-00921-01151999999ADDMA1999999082851ME1313979REMSYN060AAXX  02084 06784 33/// /0408 11092 21115 38285 48397 5////;
0137067840999992010010209004+46817+009850FM-12+159099999V0200301N005119999999N9999999N1-00861-01431999999ADDMA1999999082931MD1110231+9999ME1314049OA149901031REMSYN076AAXX  02094 06784 33/// /0310 11086 21143 38293 48404 51023 333 91120 91213;
0137067840999992010010210004+46817+009850FM-12+159099999V0200401N006219999999N9999999N1-00861-01421999999ADDMA1999999082971MD1110201+9999ME1314089OA149901031REMSYN076AAXX  02104 06784 33/// /0412 11086 21142 38297 48408 51020 333 91120 91212;
0137067840999992010010211004+46817+009850FM-12+159099999V0200501N007219999999N9999999N1-00891-01741999999ADDMA1999999083031MD1210181+9999ME1314139OA149901031REMSYN076AAXX  02114 06784 33/// /0514 11089 21174 38303 48413 52018 333 91120 91214;
0137067840999992010010212004+46817+009850FM-12+159099999V0203501N002119999999N9999999N1-00851-01591999999ADDMA1999999083101MD1310171+9999ME1314209OA149901031REMSYN076AAXX  02124 06784 33/// /3504 11085 21159 38310 48420 53017 333 91120 91214;
0137067840999992010010213004+46817+009850FM-12+159099999V0209999C001519999999N9999999N1-00971-01621999999ADDMA1999999083161MD1210191+9999ME1314269OA149900981REMSYN076AAXX  02134 06784 33/// /0003 11097 21162 38316 48426 52019 333 91119 91212;
0137067840999992010010214004+46817+009850FM-12+159099999V0200401N006219999999N9999999N1-01001-01561999999ADDMA1999999083221MD1219999+9999ME1314329OA149900981REMSYN076AAXX  02144 06784 33/// /0412 11100 21156 38322 48432 52/// 333 91119 91212;
0154067840999992010010215004+46817+009850FM-12+159099999V0200401N004619999999N9999999N1-01011-01591999999ADDAA101000021MA1999999083321MD1210221+9999ME1314419OA149901031REMSYN082AAXX  02154 06784 23/// /0409 11101 21159 38332 48441 52022 333 69915 91120 91214;
0137067840999992010010216004+46817+009850FM-12+159099999V0200501N004619999999N9999999N1-01081-01431999999ADDMA1999999083391MD1310231+9999ME1314489OA149900881REMSYN076AAXX  02164 06784 33/// /0509 11108 21143 38339 48448 53023 333 91117 91210;
0137067840999992010010217004+46817+009850FM-12+159099999V0200501N004119999999N9999999N1-01111-01211999999ADDMA1999999083471MD1210251+9999ME1314569OA149900821REMSYN076AAXX  02174 06784 33/// /0508 11111 21121 38347 48456 52025 333 91116 91210;
0198067840999992010010218004+46817+009850FM-12+159099999V0200701N002119999999N9999999N1-01211-01881999999ADDAA112000091KA1120M-00771MA1999999083501MD1210181+9999ME1314599OA149901031REMSYN094AAXX  02184 06784 03/// /0704 11121 21188 38350 48459 52018 69912 333 11077 60005 91120 91214;EQDQ01  00002PRCP12
0137067840999992010010219004+46817+009850FM-12+159099999V0200701N002619999999N9999999N1-01151-01541999999ADDMA1999999083541MD1210151+9999ME1314629OA149900571REMSYN076AAXX  02194 06784 33/// /0705 11115 21154 38354 48462 52015 333 91111 91208;
0137067840999992010010220004+46817+009850FM-12+159099999V0203601N001019999999N9999999N1-01231-01601999999ADDMA1999999083571MD1210101+9999ME1314669OA149900571REMSYN076AAXX  02204 06784 33/// /3602 11123 21160 38357 48466 52010 333 91111 91207;
0137067840999992010010221004+46817+009850FM-12+159099999V0209999C000019999999N9999999N1-01221-01991999999ADDMA1999999083601MD1310101+9999ME1314699OA149900821REMSYN076AAXX  02214 06784 33/// /0000 11122 21199 38360 48469 53010 333 91116 91210;
0137067840999992010010222004+46817+009850FM-12+159099999V0209999C000019999999N9999999N1-01331-02021999999ADDMA1999999083611MD1210071+9999ME1314709OA149900211REMSYN076AAXX  02224 06784 33/// /0000 11133 21202 38361 48470 52007 333 91104 91202;
0137067840999992010010223004+46817+009850FM-12+159099999V0201201N000519999999N9999999N1-01471-02321999999ADDMA1999999083641MD1210071+9999ME1314749OA149900211REMSYN076AAXX  02234 06784 33/// /1201 11147 21232 38364 48474 52007 333 91104 91202;
0137067840999992010010300004+46817+009850FM-12+159099999V0209999C000019999999N9999999N1-01501-02471999999ADDMA1999999083661MD1210061+9999ME1314769OA149900981REMSYN076AAXX  03004 06784 33/// /0000 11150 21247 38366 48476 52006 333 91119 91212;
0137067840999992010010301004+46817+009850FM-12+159099999V0209999C000019999999N9999999N1-01641-02741999999ADDMA1999999083671MD1210061+9999ME1314789OA149900151REMSYN076AAXX  03014 06784 33/// /0000 11164 21274 38367 48478 52006 333 91103 91202;
0096067840999992010010302004+46817+009850FM-12+159099999V0209999C000019999999N9999999N1-01631-02821999999ADDMA1999999083701ME1314819REMSYN060AAXX  03024 06784 33/// /0000 11163 21282 38370 48481 5////;
0096067840999992010010303004+46817+009850FM-12+159099999V0209999C000019999999N9999999N1-01701-03141999999ADDMA1999999083711ME1314829REMSYN060AAXX  03034 06784 33/// /0000 11170 21314 38371 48482 5////;
0137067840999992010010304004+46817+009850FM-12+159099999V0201901N001019999999N9999999N1-01751-03011999999ADDMA1999999083691MD1010021+9999ME1314819OA149900151REMSYN076AAXX  03044 06784 33/// /1902 11175 21301 38369 48481 50002 333 91103 91202;
0137067840999992010010305004+46817+009850FM-12+159099999V0201801N001019999999N9999999N1-01721-03231999999ADDMA1999999083701MD1019999+9999ME1314829OA149900261REMSYN076AAXX  03054 06784 33/// /1802 11172 21323 38370 48482 50/// 333 91105 91204;
0234067840999992010010306004+46817+009850FM-12+159099999V0209999C000019999999N9999999N1-01811-03091999999ADDAA124000091AL10600091GJ100549IA2999-02309KA1999N-01781MA1999999083661MD1710051+9999ME1314789OA149900571REMSYN100AAXX  03064 06784 33/// /0000 11181 21309 38366 48478 57005 333 21178 3/123 55009 70001 91111 91207;EQDQ01  00002PRCP24
0137067840999992010010307004+46817+009850FM-12+159099999V0202401N001519999999N9999999N1-01721-02861999999ADDMA1999999083661MD1710031+9999ME1314789OA149900211REMSYN076AAXX  03074 06784 33/// /2403 11172 21286 38366 48478 57003 333 91104 91203;
0137067840999992010010308004+46817+009850FM-12+159099999V0202601N000519999999N9999999N1-01661-03151999999ADDMA1999999083691MD1519999+9999ME1314819OA149900261REMSYN076AAXX  03084 06784 33/// /2601 11166 21315 38369 48481 55/// 333 91105 91203;
0137067840999992010010309004+46817+009850FM-12+159099999V0209999C000019999999N9999999N1-01631-03011999999ADDMA1999999083711MD1210051+9999ME1314839OA149900261REMSYN076AAXX  03094 06784 33/// /0000 11163 21301 38371 48483 52005 333 91105 91204;
0137067840999992010010310004+46817+009850FM-12+159099999V0201801N000519999999N9999999N1-01371-02711999999ADDMA1999999083711MD1210051+9999ME1314829OA149900151REMSYN076AAXX  03104 06784 33/// /1801 11137 21271 38371 48482 52005 333 91103 91202;
0137067840999992010010311004+46817+009850FM-12+159099999V0200201N000519999999N9999999N1-01231-02731999999ADDMA1999999083631MD1710061+9999ME1314749OA149900101REMSYN076AAXX  03114 06784 33/// /0201 11123 21273 38363 48474 57006 333 91102 91201;
0137067840999992010010312004+46817+009850FM-12+159099999V0209999C000519999999N9999999N1-01031-02461999999ADDMA1999999083531MD1710181+9999ME1314639OA149900261REMSYN076AAXX  03124 06784 33/// /0001 11103 21246 38353 48463 57018 333 91105 91204;
0137067840999992010010313004+46817+009850FM-12+159099999V0201601N001519999999N9999999N1-01011-02001999999ADDMA1999999083511MD1610201+9999ME1314599OA149900261REMSYN076AAXX  03134 06784 33/// /1603 11101 21200 38351 48459 56020 333 91105 91203;
0137067840999992010010314004+46817+009850FM-12+159099999V0201601N001519999999N9999999N1-01061-02111999999ADDMA1999999083491MD1610141+9999ME1314589OA149900361REMSYN076AAXX  03144 06784 33/// /1603 11106 21211 38349 48458 56014 333 91107 91204;
0137067840999992010010315004+46817+009850FM-12+159099999V0201701N001519999999N9999999N1-01121-02321999999ADDMA1999999083531MD1510001+9999ME1314629OA149900361REMSYN076AAXX  03154 06784 33/// /1703 11112 21232 38353 48462 55000 333 91107 91204;
0137067840999992010010316004+46817+009850FM-12+159099999V0201701N001019999999N9999999N1-01201-02651999999ADDMA1999999083521MD1210011+9999ME1314629OA149900261REMSYN076AAXX  03164 06784 33/// /1702 11120 21265 38352 48462 52001 333 91105 91203;
0137067840999992010010317004+46817+009850FM-12+159099999V0201801N000519999999N9999999N1-01391-02671999999ADDMA1999999083501MD1010011+9999ME1314619OA149900211REMSYN076AAXX  03174 06784 33/// /1801 11139 21267 38350 48461 50001 333 91104 91203;
0156067840999992010010318004+46817+009850FM-12+159099999V0200201N000519999999N9999999N1-01471-02751999999ADDKA1120M-00921MA1999999083511MD1710021+9999ME1314639OA149900361REMSYN082AAXX  03184 06784 33/// /0201 11147 21275 38351 48463 57002 333 11092 91107 91204;
0137067840999992010010319004+46817+009850FM-12+159099999V0209999C000019999999N9999999N1-01501-02871999999ADDMA1999999083551MD1310031+9999ME1314679OA149900151REMSYN076AAXX  03194 06784 33/// /0000 11150 21287 38355 48467 53003 333 91103 91202;
0137067840999992010010320004+46817+009850FM-12+159099999V0209999C000019999999N9999999N1-01541-02851999999ADDMA1999999083491MD1810011+9999ME1314629OA149900101REMSYN076AAXX  03204 06784 33/// /0000 11154 21285 38349 48462 58001 333 91102 91201;
0137067840999992010010321004+46817+009850FM-12+159099999V0209999C000019999999N9999999N1-01401-03061999999ADDMA1999999083481MD1710031+9999ME1314629OA149900211REMSYN076AAXX  03214 06784 33/// /0000 11140 21306 38348 48462 57003 333 91104 91203;
0137067840999992010010322004+46817+009850FM-12+159099999V0209999C000019999999N9999999N1-01531-02961999999ADDMA1999999083471MD1710081+9999ME1314619OA149900101REMSYN076AAXX  03224 06784 33/// /0000 11153 21296 38347 48461 57008 333 91102 91201;
0137067840999992010010323004+46817+009850FM-12+159099999V0209999C000019999999N9999999N1-01491-03071999999ADDMA1999999083461MD1710031+9999ME1314619OA149900101REMSYN076AAXX  03234 06784 33/// /0000 11149 21307 38346 48461 57003 333 91102 91201;
0137067840999992010010400004+46817+009850FM-12+159099999V0209999C000019999999N9999999N1-01461-03241999999ADDMA1999999083411MD1810071+9999ME1314569OA149900361REMSYN076AAXX  04004 06784 33/// /0000 11146 21324 38341 48456 58007 333 91107 91204;
0137067840999992010010401004+46817+009850FM-12+159099999V0202101N000519999999N9999999N1-01441-02891999999ADDMA1999999083381MD1810091+9999ME1314539OA149900151REMSYN076AAXX  04014 06784 33/// /2101 11144 21289 38338 48453 58009 333 91103 91201;
0137067840999992010010402004+46817+009850FM-12+159099999V0209999C000019999999N9999999N1-01531-02931999999ADDMA1999999083341MD1810121+9999ME1314509OA149900151REMSYN076AAXX  04024 06784 33/// /0000 11153 21293 38334 48450 58012 333 91103 91201;
0137067840999992010010403004+46817+009850FM-12+159099999V0201901N001019999999N9999999N1-01431-02831999999ADDMA1999999083231MD1819999+9999ME1314389OA149900151REMSYN076AAXX  04034 06784 33/// /1902 11143 21283 38323 48438 58/// 333 91103 91202;
0137067840999992010010404004+46817+009850FM-12+159099999V0203201N000519999999N9999999N1-01391-02661999999ADDMA1999999083201MD1710181+9999ME1314359OA149900151REMSYN076AAXX  04044 06784 33/// /3201 11139 21266 38320 48435 57018 333 91103 91202;
0137067840999992010010405004+46817+009850FM-12+159099999V0203601N000519999999N9999999N1-01311-01941999999ADDMA1999999083161MD1710181+9999ME1314309OA149900151REMSYN076AAXX  04054 06784 33/// /3601 11131 21194 38316 48430 57018 333 91103 91202;
0234067840999992010010406004+46817+009850FM-12+159099999V0203601N000519999999N9999999N1-01181-02051999999ADDAA124000091AL19900091GJ103789IA2999-02109KA1999N-01621MA1999999083141MD1710091+9999ME1314279OA149900151REMSYN100AAXX  04064 06784 33/// /3601 11118 21205 38314 48427 57009 333 21162 3/121 55063 70000 91103 91202;EQDQ01  00002PRCP24
0137067840999992010010407004+46817+009850FM-12+159099999V0209999C000019999999N9999999N1-01161-01461999999ADDMA1999999083141MD1710061+9999ME1314269OA149900151REMSYN076AAXX  04074 06784 33/// /0000 11116 21146 38314 48426 57006 333 91103 91202;
0137067840999992010010408004+46817+009850FM-12+159099999V0202001N001019999999N9999999N1-01071-01401999999ADDMA1999999083131MD1710031+9999ME1314249OA149900151REMSYN076AAXX  04084 06784 33/// /2002 11107 21140 38313 48424 57003 333 91103 91202;
0137067840999992010010409004+46817+009850FM-12+159099999V0200201N000519999999N9999999N1-00971-01531999999ADDMA1999999083111MD1810031+9999ME1314229OA149900151REMSYN076AAXX  04094 06784 33/// /0201 11097 21153 38311 48422 58003 333 91103 91202;
0137067840999992010010410004+46817+009850FM-12+159099999V0203501N000519999999N9999999N1-00811-01481999999ADDMA1999999083091MD1710051+9999ME1314209OA149900151REMSYN076AAXX  04104 06784 33/// /3501 11081 21148 38309 48420 57005 333 91103 91201;
0137067840999992010010411004+46817+009850FM-12+159099999V0209999C000519999999N9999999N1-00661-02081999999ADDMA1999999083041MD1710091+9999ME1314149OA149900211REMSYN076AAXX  04114 06784 33/// /0001 11066 21208 38304 48414 57009 333 91104 91202;
0137067840999992010010412004+46817+009850FM-12+159099999V0200101N001019999999N9999999N1-00551-01641999999ADDMA1999999082961MD1810151+9999ME1314059OA149900211REMSYN076AAXX  04124 06784 33/// /0102 11055 21164 38296 48405 58015 333 91104 91202;
0137067840999992010010413004+46817+009850FM-12+159099999V0200401N003119999999N9999999N1-00561-01661999999ADDMA1999999082931MD1610161+9999ME1314029OA149900361REMSYN076AAXX  04134 06784 33/// /0406 11056 21166 38293 48402 56016 333 91107 91206;
0137067840999992010010414004+46817+009850FM-12+159099999V0200401N001519999999N9999999N1-00581-01741999999ADDMA1999999082911MD1619999+9999ME1314009OA149900361REMSYN076AAXX  04144 06784 33/// /0403 11058 21174 38291 48400 56/// 333 91107 91206;
0137067840999992010010415004+46817+009850FM-12+159099999V0203501N000519999999N9999999N1-00571-01581999999ADDMA1999999082891MD1610071+9999ME1313989OA149900361REMSYN076AAXX  04154 06784 33/// /3501 11057 21158 38289 48398 56007 333 91107 91206;
0137067840999992010010416004+46817+009850FM-12+159099999V0200401N001019999999N9999999N1-00641-00881999999ADDMA1999999082881MD1810051+9999ME1313989OA149900311REMSYN076AAXX  04164 06784 33/// /0402 11064 21088 38288 48398 58005 333 91106 91202;
0137067840999992010010417004+46817+009850FM-12+159099999V0200301N001019999999N9999999N1-00731-01131999999ADDMA1999999082901MD1519999+9999ME1314009OA149900311REMSYN076AAXX  04174 06784 33/// /0302 11073 21113 38290 48400 55/// 333 91106 91204;
0156067840999992010010418004+46817+009850FM-12+159099999V0209999C001019999999N9999999N1-00781-00971999999ADDKA1120M-00501MA1999999082871MD1810021+9999ME1313989OA149900361REMSYN082AAXX  04184 06784 33/// /0002 11078 21097 38287 48398 58002 333 11050 91107 91206;
0137067840999992010010419004+46817+009850FM-12+159099999V0200801N000519999999N9999999N1-00771-01041999999ADDMA1999999082861MD1710021+9999ME1313979OA149900151REMSYN076AAXX  04194 06784 33/// /0801 11077 21104 38286 48397 57002 333 91103 91202;
0137067840999992010010420004+46817+009850FM-12+159099999V0200401N000519999999N9999999N1-00841-01051999999ADDMA1999999082851MD1710051+9999ME1313969OA149900211REMSYN076AAXX  04204 06784 33/// /0401 11084 21105 38285 48396 57005 333 91104 91202;
0137067840999992010010421004+46817+009850FM-12+159099999V0200401N001019999999N9999999N1-00841-01061999999ADDMA1999999082851MD1710021+9999ME1313969OA149900311REMSYN076AAXX  04214 06784 33/// /0402 11084 21106 38285 48396 57002 333 91106 91204;
0137067840999992010010422004+46817+009850FM-12+159099999V0202101N001019999999N9999999N1-00761-01181999999ADDMA1999999082811MD1710051+9999ME1313929OA149900151REMSYN076AAXX  04224 06784 33/// /2102 11076 21118 38281 48392 57005 333 91103 91202;
0137067840999992010010423004+46817+009850FM-12+159099999V0200101N001019999999N9999999N1-00801-00961999999ADDMA1999999082771MD1710081+9999ME1313889OA149900361REMSYN076AAXX  04234 06784 33/// /0102 11080 21096 38277 48388 57008 333 91107 91205;
0137067840999992010010500004+46817+009850FM-12+159099999V0202101N001019999999N9999999N1-00791-01091999999ADDMA1999999082751MD1610101+9999ME1313879OA149900361REMSYN076AAXX  05004 06784 33/// /2102 11079 21109 38275 48387 56010 333 91107 91206;
0137067840999992010010501004+46817+009850FM-12+159099999V0202201N002119999999N9999999N1-00771-01071999999ADDMA1999999082681MD1810131+9999ME1313799OA149900411REMSYN076AAXX  05014 06784 33/// /2204 11077 21107 38268 48379 58013 333 91108 91205;
0137067840999992010010502004+46817+009850FM-12+159099999V0202101N000519999999N9999999N1-00891-01221999999ADDMA1999999082651MD1610121+9999ME1313789OA149900411REMSYN076AAXX  05024 06784 33/// /2101 11089 21122 38265 48378 56012 333 91108 91205;
0137067840999992010010503004+46817+009850FM-12+159099999V0201801N000519999999N9999999N1-01031-01581999999ADDMA1999999082631MD1710121+9999ME1313799OA149900411REMSYN076AAXX  05034 06784 33/// /1801 11103 21158 38263 48379 57012 333 91108 91205;
0137067840999992010010504004+46817+009850FM-12+159099999V0202001N000519999999N9999999N1-01131-01331999999ADDMA1999999082581MD1710101+9999ME1313749OA149900151REMSYN076AAXX  05044 06784 33/// /2001 11113 21133 38258 48374 57010 333 91103 91202;
0137067840999992010010505004+46817+009850FM-12+159099999V0209999C000519999999N9999999N1-01211-01331999999ADDMA1999999082541MD1710111+9999ME1313719OA149900151REMSYN076AAXX  05054 06784 33/// /0001 11121 21133 38254 48371 57011 333 91103 91202;
0234067840999992010010506004+46817+009850FM-12+159099999V0209999C000019999999N9999999N1-01231-01771999999ADDAA124000091AL19900091GJ100009IA2999-01709KA1999N-01231MA1999999082491MD1610141+9999ME1313679OA149900411REMSYN100AAXX  05064 06784 33/// /0000 11123 21177 38249 48367 56014 333 21123 3/117 55000 70000 91108 91205;EQDQ01  00002PRCP24
0137067840999992010010507004+46817+009850FM-12+159099999V0209999C000019999999N9999999N1-01161-01511999999ADDMA1999999082441MD1810141+9999ME1313639OA149900101REMSYN076AAXX  05074 06784 33/// /0000 11116 21151 38244 48363 58014 333 91102 91201;
0137067840999992010010508004+46817+009850FM-12+159099999V0200201N000519999999N9999999N1-01151-01531999999ADDMA1999999082421MD1610121+9999ME1313619OA149900151REMSYN076AAXX  05084 06784 33/// /0201 11115 21153 38242 48361 56012 333 91103 91201;
0137067840999992010010509004+46817+009850FM-12+159099999V0200101N000519999999N9999999N1-01051-01731999999ADDMA1999999082421MD1710071+9999ME1313619OA149900151REMSYN076AAXX  05094 06784 33/// /0101 11105 21173 38242 48361 57007 333 91103 91202;
0137067840999992010010510004+46817+009850FM-12+159099999V0200201N000519999999N9999999N1-00931-01711999999ADDMA1999999082391MD1710051+9999ME1313589OA149900101REMSYN076AAXX  05104 06784 33/// /0201 11093 21171 38239 48358 57005 333 91102 91201;
0137067840999992010010511004+46817+009850FM-12+159099999V0200301N000519999999N9999999N1-00781-01451999999ADDMA1999999082301MD1710121+9999ME1313479OA149900151REMSYN076AAXX  05114 06784 33/// /0301 11078 21145 38230 48347 57012 333 91103 91201;
0137067840999992010010512004+46817+009850FM-12+159099999V0209999C000019999999N9999999N1-00521-01471999999ADDMA1999999082221MD1710201+9999ME1313389OA149900411REMSYN076AAXX  05124 06784 33/// /0000 11052 21147 38222 48338 57020 333 91108 91205;
0137067840999992010010513004+46817+009850FM-12+159099999V0209999C000019999999N9999999N1-00461-01151999999ADDMA1999999082171MD1610221+9999ME1313309OA149900101REMSYN076AAXX  05134 06784 33/// /0000 11046 21115 38217 48330 56022 333 91102 91201;
0096067840999992010010514004+46817+009850FM-12+159099999V0209999C000019999999N9999999N1-00341-01491999999ADDMA1999999082121ME1313269REMSYN060AAXX  05144 06784 33/// /0000 11034 21149 38212 48326 5////;
0137067840999992010010515004+46817+009850FM-12+159099999V0209999C000019999999N9999999N1-00521-01301999999ADDMA1999999082151MD1510071+9999ME1313289OA149900151REMSYN076AAXX  05154 06784 33/// /0000 11052 21130 38215 48328 55007 333 91103 91201;
0137067840999992010010516004+46817+009850FM-12+159099999V0209999C000019999999N9999999N1-00591-01411999999ADDMA1999999082121MD1710051+9999ME1313289OA149900101REMSYN076AAXX  05164 06784 33/// /0000 11059 21141 38212 48328 57005 333 91102 91201;
0137067840999992010010517004+46817+009850FM-12+159099999V0209999C000019999999N9999999N1-00751-01211999999ADDMA1999999082121MD1010001+9999ME1313289OA149900211REMSYN076AAXX  05174 06784 33/// /0000 11075 21121 38212 48328 50000 333 91104 91201;
0156067840999992010010518004+46817+009850FM-12+159099999V0200301N000519999999N9999999N1-00761-01401999999ADDKA1120M-00301MA1999999082111MD1710041+9999ME1313289OA149900211REMSYN082AAXX  05184 06784 33/// /0301 11076 21140 38211 48328 57004 333 11030 91104 91201;
0137067840999992010010519004+46817+009850FM-12+159099999V0201001N000519999999N9999999N1-00801-01341999999ADDMA1999999082071MD1710051+9999ME1313249OA149900151REMSYN076AAXX  05194 06784 33/// /1001 11080 21134 38207 48324 57005 333 91103 91201;
0137067840999992010010520004+46817+009850FM-12+159099999V0209999C000019999999N9999999N1-00861-01311999999ADDMA1999999082041MD1710081+9999ME1313229OA149900151REMSYN076AAXX  05204 06784 33/// /0000 11086 21131 38204 48322 57008 333 91103 91201;
0137067840999992010010521004+46817+009850FM-12+159099999V0209999C000019999999N9999999N1-00841-01331999999ADDMA1999999082031MD1610081+9999ME1313219OA149900211REMSYN076AAXX  05214 06784 33/// /0000 11084 21133 38203 48321 56008 333 91104 91201;
0137067840999992010010522004+46817+009850FM-12+159099999V0200201N000519999999N9999999N1-00891-01321999999ADDMA1999999081981MD1810091+9999ME1313179OA149900101REMSYN076AAXX  05224 06784 33/// /0201 11089 21132 38198 48317 58009 333 91102 91201;
0137067840999992010010523004+46817+009850FM-12+159099999V0200501N000519999999N9999999N1-00901-01391999999ADDMA1999999081961MD1610081+9999ME1313159OA149900101REMSYN076AAXX  05234 06784 33/// /0501 11090 21139 38196 48315 56008 333 91102 91201;
0137067840999992010010600004+46817+009850FM-12+159099999V0209999C000019999999N9999999N1-00971-01491999999ADDMA1999999081921MD1610111+9999ME1313129OA149900211REMSYN076AAXX  06004 06784 33/// /0000 11097 21149 38192 48312 56011 333 91104 91201;
0137067840999992010010601004+46817+009850FM-12+159099999V0209999C000519999999N9999999N1-00991-01441999999ADDMA1999999081921MD1710061+9999ME1313129OA149900101REMSYN076AAXX  06014 06784 33/// /0001 11099 21144 38192 48312 57006 333 91102 91201;
0137067840999992010010602004+46817+009850FM-12+159099999V0203401N000519999999N9999999N1-01031-01481999999ADDMA1999999081951MD1510011+9999ME1313159OA149900101REMSYN076AAXX  06024 06784 33/// /3401 11103 21148 38195 48315 55001 333 91102 91201;
0137067840999992010010603004+46817+009850FM-12+159099999V0209999C000019999999N9999999N1-00991-01651999999ADDMA1999999081931MD1010011+9999ME1313159OA149900101REMSYN076AAXX  06034 06784 33/// /0000 11099 21165 38193 48315 50001 333 91102 91201;
0137067840999992010010604004+46817+009850FM-12+159099999V0200101N000519999999N9999999N1-01091-01551999999ADDMA1999999081901MD1810021+9999ME1313129OA149900101REMSYN076AAXX  06044 06784 33/// /0101 11109 21155 38190 48312 58002 333 91102 91201;
0137067840999992010010605004+46817+009850FM-12+159099999V0200201N000519999999N9999999N1-01091-01481999999ADDMA1999999081911MD1710041+9999ME1313129OA149900101REMSYN076AAXX  06054 06784 33/// /0201 11109 21148 38191 48312 57004 333 91102 91201;
0250067840999992010010606004+46817+009850FM-12+159099999V0209999C000019999999N9999999N1-01041-01381999999ADDAA124000091AL19900091GJ103249IA2999-01509KA1999N-01141MA1999999081931MD1410001+9999ME1313129OA149900151REMSYN100AAXX  06064 06784 33/// /0000 11104 21138 38193 48312 53000 333 21114 3/115 55054 70000 91103 91201;EQDQ01+000032APCTENQ02  00002PRCP24
0137067840999992010010607004+46817+009850FM-12+159099999V0209999C000019999999N9999999N1-00951-01401999999ADDMA1999999081921MD1210021+9999ME1313119OA149900101REMSYN076AAXX  06074 06784 33/// /0000 11095 21140 38192 48311 52002 333 91102 91201;
0137067840999992010010608004+46817+009850FM-12+159099999V0200301N000519999999N9999999N1-01041-01391999999ADDMA1999999081931MD1210021+9999ME1313129OA149900101REMSYN076AAXX  06084 06784 33/// /0301 11104 21139 38193 48312 52002 333 91102 91201;
0137067840999992010010609004+46817+009850FM-12+159099999V0200201N000519999999N9999999N1-00781-01461999999ADDMA1999999081961MD1310031+9999ME1313159OA149900151REMSYN076AAXX  06094 06784 33/// /0201 11078 21146 38196 48315 53003 333 91103 91202;
0137067840999992010010610004+46817+009850FM-12+159099999V0200401N002119999999N9999999N1-00581-01341999999ADDMA1999999082001MD1310081+9999ME1313169OA149900411REMSYN076AAXX  06104 06784 33/// /0404 11058 21134 38200 48316 53008 333 91108 91204;
0137067840999992010010611004+46817+009850FM-12+159099999V0200301N004119999999N9999999N1-00431-01211999999ADDMA1999999081961MD1019999+9999ME1313089OA149900621REMSYN076AAXX  06114 06784 33/// /0308 11043 21121 38196 48308 50/// 333 91112 91208;
0137067840999992010010612004+46817+009850FM-12+159099999V0200201N003619999999N9999999N1-00371-01021999999ADDMA1999999081951MD1810011+9999ME1313069OA149900621REMSYN076AAXX  06124 06784 33/// /0207 11037 21102 38195 48306 58001 333 91112 91209;
0137067840999992010010613004+46817+009850FM-12+159099999V0200401N002119999999N9999999N1-00451-00981999999ADDMA1999999081951MD1610051+9999ME1313069OA149900571REMSYN076AAXX  06134 06784 33/// /0404 11045 21098 38195 48306 56005 333 91111 91209;
0137067840999992010010614004+46817+009850FM-12+159099999V0201301N002619999999N9999999N1-00551-01111999999ADDMA1999999081971MD1319999+9999ME1313099OA149900461REMSYN076AAXX  06144 06784 33/// /1305 11055 21111 38197 48309 53/// 333 91109 91206;
0137067840999992010010615004+46817+009850FM-12+159099999V0200801N001019999999N9999999N1-00661-01051999999ADDMA1999999082001MD1319999+9999ME1313139OA149900621REMSYN076AAXX  06154 06784 33/// /0802 11066 21105 38200 48313 53/// 333 91112 91209;
0137067840999992010010616004+46817+009850FM-12+159099999V0203401N000519999999N9999999N1-00761-01391999999ADDMA1999999082081MD1310131+9999ME1313259OA149900311REMSYN076AAXX  06164 06784 33/// /3401 11076 21139 38208 48325 53013 333 91106 91203;
0137067840999992010010617004+46817+009850FM-12+159099999V0201701N001019999999N9999999N1-00941-01411999999ADDMA1999999082121MD1110151+9999ME1313299OA149900261REMSYN076AAXX  06174 06784 33/// /1702 11094 21141 38212 48329 51015 333 91105 91203;
0156067840999992010010618004+46817+009850FM-12+159099999V0209999C000019999999N9999999N1-01081-01371999999ADDKA1120M-00321MA1999999082161MD1119999+9999ME1313339OA149900621REMSYN082AAXX  06184 06784 33/// /0000 11108 21137 38216 48333 51/// 333 11032 91112 91209;
0137067840999992010010619004+46817+009850FM-12+159099999V0203501N000519999999N9999999N1-01091-01361999999ADDMA1999999082171MD1110091+9999ME1313349OA149900211REMSYN076AAXX  06194 06784 33/// /3501 11109 21136 38217 48334 51009 333 91104 91203;
0137067840999992010010620004+46817+009850FM-12+159099999V0209999C000019999999N9999999N1-01201-01381999999ADDMA1999999082201MD1110081+9999ME1313399OA149900151REMSYN076AAXX  06204 06784 33/// /0000 11120 21138 38220 48339 51008 333 91103 91201;
0137067840999992010010621004+46817+009850FM-12+159099999V0201901N001519999999N9999999N1-01021-01321999999ADDMA1999999082241MD1310081+9999ME1313419OA149900261REMSYN076AAXX  06214 06784 33/// /1903 11102 21132 38224 48341 53008 333 91105 91203;
0137067840999992010010622004+46817+009850FM-12+159099999V0202001N001519999999N9999999N1-01111-01511999999ADDMA1999999082271MD1110101+9999ME1313449OA149900311REMSYN076AAXX  06224 06784 33/// /2003 11111 21151 38227 48344 51010 333 91106 91204;
0137067840999992010010623004+46817+009850FM-12+159099999V0209999C000019999999N9999999N1-01041-01411999999ADDMA1999999082271MD1210071+9999ME1313449OA149900311REMSYN076AAXX  06234 06784 33/// /0000 11104 21141 38227 48344 52007 333 91106 91204;
0137067840999992010010700004+46817+009850FM-12+159099999V0202001N000519999999N9999999N1-01061-01361999999ADDMA1999999082251MD1010011+9999ME1313429OA149900461REMSYN076AAXX  07004 06784 33/// /2001 11106 21136 38225 48342 50001 333 91109 91206;
0137067840999992010010701004+46817+009850FM-12+159099999V0200301N002619999999N9999999N1-01041+99999999999ADDMA1999999082271MD1510001+9999ME1313419OA149900571REMSYN076AAXX  07014 06784 33/// /0305 11104 21092 38227 48341 55000 333 91111 91205;
0137067840999992010010702004+46817+009850FM-12+159099999V0202101N001019999999N9999999N1-01001-01171999999ADDMA1999999082331MD1319999+9999ME1313489OA149900571REMSYN076AAXX  07024 06784 33/// /2102 11100 21117 38233 48348 53/// 333 91111 91205;
0137067840999992010010703004+46817+009850FM-12+159099999V0201201N001519999999N9999999N1-00991-01181999999ADDMA1999999082351MD1110101+9999ME1313509OA149900571REMSYN076AAXX  07034 06784 33/// /1203 11099 21118 38235 48350 51010 333 91111 91205;
0137067840999992010010704004+46817+009850FM-12+159099999V0201701N001519999999N9999999N1-01021-01251999999ADDMA1999999082381MD1210111+9999ME1313539OA149900311REMSYN076AAXX  07044 06784 33/// /1703 11102 21125 38238 48353 52011 333 91106 91204;
0137067840999992010010705004+46817+009850FM-12+159099999V0201701N001019999999N9999999N1-01071-01141999999ADDMA1999999082421MD1210091+9999ME1313579OA149900311REMSYN076AAXX  07054 06784 33/// /1702 11107 21114 38242 48357 52009 333 91106 91204;
0234067840999992010010706004+46817+009850FM-12+159099999V0201901N001019999999N9999999N1-01091-01331999999ADDAA124000091AL19900091GJ103849IA2999-01509KA1999N-01201MA1999999082471MD1210121+9999ME1313639OA149900571REMSYN100AAXX  07064 06784 33/// /1902 11109 21133 38247 48363 52012 333 21120 3/115 55064 70000 91111 91205;EQDQ01  00002PRCP24
0137067840999992010010707004+46817+009850FM-12+159099999V0201901N001519999999N9999999N1-01271-01311999999ADDMA1999999082511MD1210131+9999ME1313689OA149900261REMSYN076AAXX  07074 06784 33/// /1903 11127 21131 38251 48368 52013 333 91105 91203;
0137067840999992010010708004+46817+009850FM-12+159099999V0202101N001519999999N9999999N1-01191-01461999999ADDMA1999999082601MD1319999+9999ME1313779OA149900261REMSYN076AAXX  07084 06784 33/// /2103 11119 21146 38260 48377 53/// 333 91105 91203;
0137067840999992010010709004+46817+009850FM-12+159099999V0201701N001519999999N9999999N1-01171-01511999999ADDMA1999999082621MD1110151+9999ME1313799OA149900311REMSYN076AAXX  07094 06784 33/// /1703 11117 21151 38262 48379 51015 333 91106 91204;
0137067840999992010010710004+46817+009850FM-12+159099999V0201701N001019999999N9999999N1-01041-01551999999ADDMA1999999082641MD1110131+9999ME1313809OA149900211REMSYN076AAXX  07104 06784 33/// /1702 11104 21155 38264 48380 51013 333 91104 91203;
0137067840999992010010711004+46817+009850FM-12+159099999V0200801N000519999999N9999999N1-00871-01501999999ADDMA1999999082641MD1110041+9999ME1313799OA149900211REMSYN076AAXX  07114 06784 33/// /0801 11087 21150 38264 48379 51004 333 91104 91203;
0137067840999992010010712004+46817+009850FM-12+159099999V0200101N000519999999N9999999N1-00731-01641999999ADDMA1999999082591MD1810031+9999ME1313749OA149900571REMSYN076AAXX  07124 06784 33/// /0101 11073 21164 38259 48374 58003 333 91111 91205;
0137067840999992010010713004+46817+009850FM-12+159099999V0209999C000019999999N9999999N1-00641-01371999999ADDMA1999999082561MD1810081+9999ME1313689OA149900101REMSYN076AAXX  07134 06784 33/// /0000 11064 21137 38256 48368 58008 333 91102 91201;
0096067840999992010010715004+46817+009850FM-12+159099999V0209999C000019999999N9999999N1-00591-01401999999ADDMA1999999082611ME1313739REMSYN060AAXX  07154 06784 43/// /0000 11059 21140 38261 48373 5////;
0137067840999992010010716004+46817+009850FM-12+159099999V0209999C000019999999N9999999N1-00711-01241999999ADDMA1999999082691MD1210131+9999ME1313809OA149900101REMSYN076AAXX  07164 06784 33/// /0000 11071 21124 38269 48380 52013 333 91102 91201;
0137067840999992010010717004+46817+009850FM-12+159099999V0201501N000519999999N9999999N1-00771-01251999999ADDMA1999999082721MD1119999+9999ME1313849OA149900151REMSYN076AAXX  07174 06784 33/// /1501 11077 21125 38272 48384 51/// 333 91103 91201;
0156067840999992010010718004+46817+009850FM-12+159099999V0203201N000519999999N9999999N1-00851-01201999999ADDKA1120M-00541MA1999999082751MD1119999+9999ME1313879OA149900261REMSYN082AAXX  07184 06784 33/// /3201 11085 21120 38275 48387 51/// 333 11054 91105 91203;
0137067840999992010010719004+46817+009850FM-12+159099999V0209999C000019999999N9999999N1-00831-01221999999ADDMA1999999082781MD1210091+9999ME1313909OA149900151REMSYN076AAXX  07194 06784 33/// /0000 11083 21122 38278 48390 52009 333 91103 91201;
0137067840999992010010720004+46817+009850FM-12+159099999V0209999C000019999999N9999999N1-00871-01111999999ADDMA1999999082761MD1010041+9999ME1313889OA149900101REMSYN076AAXX  07204 06784 33/// /0000 11087 21111 38276 48388 50004 333 91102 91201;
0137067840999992010010721004+46817+009850FM-12+159099999V0209999C000019999999N9999999N1-00841-01231999999ADDMA1999999082801MD1210051+9999ME1313929OA149900151REMSYN076AAXX  07214 06784 33/// /0000 11084 21123 38280 48392 52005 333 91103 91201;
0137067840999992010010722004+46817+009850FM-12+159099999V0200301N000519999999N9999999N1-00841-01231999999ADDMA1999999082791MD1510011+9999ME1313919OA149900101REMSYN076AAXX  07224 06784 33/// /0301 11084 21123 38279 48391 55001 333 91102 91201;
0137067840999992010010723004+46817+009850FM-12+159099999V0209999C000019999999N9999999N1-00851-01361999999ADDMA1999999082771MD1010011+9999ME1313909OA149900101REMSYN076AAXX  07234 06784 33/// /0000 11085 21136 38277 48390 50001 333 91102 91201;
0137067840999992010010800004+46817+009850FM-12+159099999V0209999C000019999999N9999999N1-00881-01191999999ADDMA1999999082691MD1710111+9999ME1313829OA149900151REMSYN076AAXX  08004 06784 33/// /0000 11088 21119 38269 48382 57011 333 91103 91201;
0137067840999992010010801004+46817+009850FM-12+159099999V0200101N000519999999N9999999N1-00871-01071999999ADDMA1999999082641MD1610151+9999ME1313769OA149900151REMSYN076AAXX  08014 06784 33/// /0101 11087 21107 38264 48376 56015 333 91103 91201;
0137067840999992010010802004+46817+009850FM-12+159099999V0209999C000019999999N9999999N1-00821-01101999999ADDMA1999999082631MD1719999+9999ME1313759OA149900101REMSYN076AAXX  08024 06784 33/// /0000 11082 21110 38263 48375 57/// 333 91102 91202;
0137067840999992010010803004+46817+009850FM-12+159099999V0200301N000519999999N9999999N1-00801-01001999999ADDMA1999999082601MD1719999+9999ME1313729OA149900151REMSYN076AAXX  08034 06784 33/// /0301 11080 21100 38260 48372 57/// 333 91103 91202;
0137067840999992010010804004+46817+009850FM-12+159099999V0209999C000019999999N9999999N1-00771-01011999999ADDMA1999999082591MD1710051+9999ME1313719OA149900151REMSYN076AAXX  08044 06784 33/// /0000 11077 21101 38259 48371 57005 333 91103 91201;
0137067840999992010010805004+46817+009850FM-12+159099999V0209999C000019999999N9999999N1-00831-00991999999ADDMA1999999082541MD1710091+9999ME1313679OA149900151REMSYN076AAXX  08054 06784 33/// /0000 11083 21099 38254 48367 57009 333 91103 91201;
0234067840999992010010806004+46817+009850FM-12+159099999V0209999C000019999999N9999999N1-00831-00921999999ADDAA124000091AL19900091GJ102049IA2999-01109KA1999N-00901MA1999999082501MD1710101+9999ME1313639OA149900151REMSYN100AAXX  08064 06784 33/// /0000 11083 21092 38250 48363 57010 333 21090 3/111 55034 70000 91103 91202;EQDQ01  00002PRCP24
0137067840999992010010807004+46817+009850FM-12+159099999V0202001N001019999999N9999999N1-00771-00931999999ADDMA1999999082471MD1610121+9999ME1313609OA149900101REMSYN076AAXX  08074 06784 33/// /2002 11077 21093 38247 48360 56012 333 91102 91202;
0137067840999992010010808004+46817+009850FM-12+159099999V0202401N000519999999N9999999N1-00791-00841999999ADDMA1999999082441MD1710101+9999ME1313569OA149900151REMSYN076AAXX  08084 06784 33/// /2401 11079 21084 38244 48356 57010 333 91103 91202;
0137067840999992010010809004+46817+009850FM-12+159099999V0209999C000019999999N9999999N1-00801-00951999999ADDMA1999999082391MD1710111+9999ME1313529OA149900151REMSYN076AAXX  08094 06784 33/// /0000 11080 21095 38239 48352 57011 333 91103 91202;
0137067840999992010010810004+46817+009850FM-12+159099999V0209999C000019999999N9999999N1-00681-00901999999ADDMA1999999082351MD1710121+9999ME1313489OA149900151REMSYN076AAXX  08104 06784 33/// /0000 11068 21090 38235 48348 57012 333 91103 91202;
0137067840999992010010811004+46817+009850FM-12+159099999V0203601N000519999999N9999999N1-00591-00941999999ADDMA1999999082271MD1810171+9999ME1313409OA149900151REMSYN076AAXX  08114 06784 33/// /3601 11059 21094 38227 48340 58017 333 91103 91201;
0137067840999992010010812004+46817+009850FM-12+159099999V0209999C000019999999N9999999N1-00471-00911999999ADDMA1999999082151MD1810241+9999ME1313279OA149900151REMSYN076AAXX  08124 06784 33/// /0000 11047 21091 38215 48327 58024 333 91103 91202;
0137067840999992010010813004+46817+009850FM-12+159099999V0200301N004619999999N9999999N1-00311-00831999999ADDMA1999999082071MD1610281+9999ME1313179OA149900511REMSYN076AAXX  08134 06784 33/// /0309 11031 21083 38207 48317 56028 333 91110 91209;
0137067840999992010010814004+46817+009850FM-12+159099999V0200401N004619999999N9999999N1-00441-00861999999ADDMA1999999082061MD1719999+9999ME1313179OA149900621REMSYN076AAXX  08144 06784 33/// /0409 11044 21086 38206 48317 57/// 333 91112 91210;
0137067840999992010010815004+46817+009850FM-12+159099999V0200101N003619999999N9999999N1-00531-00841999999ADDMA1999999082051MD1510101+9999ME1313179OA149900621REMSYN076AAXX  08154 06784 33/// /0107 11053 21084 38205 48317 55010 333 91112 91210;
0137067840999992010010816004+46817+009850FM-12+159099999V0200501N002619999999N9999999N1-00641-00811999999ADDMA1999999082081MD1310011+9999ME1313209OA149900621REMSYN076AAXX  08164 06784 33/// /0505 11064 21081 38208 48320 53001 333 91112 91210;
0137067840999992010010817004+46817+009850FM-12+159099999V0200401N001019999999N9999999N1-00721-00781999999ADDMA1999999082081MD1219999+9999ME1313229OA149900461REMSYN076AAXX  08174 06784 33/// /0402 11072 21078 38208 48322 52/// 333 91109 91206;
0156067840999992010010818004+46817+009850FM-12+159099999V0200201N001019999999N9999999N1-00761-00931999999ADDKA1120M-00311MA1999999082111MD1210061+9999ME1313259OA149900621REMSYN082AAXX  08184 06784 33/// /0202 11076 21093 38211 48325 52006 333 11031 91112 91210;
0137067840999992010010819004+46817+009850FM-12+159099999V0200301N005119999999N9999999N1-00871+99999999999ADDMA1999999082161MD1210081+9999ME1313309OA149900621REMSYN076AAXX  08194 06784 33/// /0310 11087 21086 38216 48330 52008 333 91112 91210;
0137067840999992010010820004+46817+009850FM-12+159099999V0200301N002119999999N9999999N1-00911-00931999999ADDMA1999999082161MD1210081+9999ME1313319OA149900621REMSYN076AAXX  08204 06784 33/// /0304 11091 21093 38216 48331 52008 333 91112 91210;
0137067840999992010010821004+46817+009850FM-12+159099999V0200101N000519999999N9999999N1-00941-01031999999ADDMA1999999082181MD1210071+9999ME1313339OA149900621REMSYN076AAXX  08214 06784 33/// /0101 11094 21103 38218 48333 52007 333 91112 91210;
0137067840999992010010822004+46817+009850FM-12+159099999V0200501N000519999999N9999999N1-00991-01191999999ADDMA1999999082191MD1210031+9999ME1313369OA149900211REMSYN076AAXX  08224 06784 33/// /0501 11099 21119 38219 48336 52003 333 91104 91203;
0137067840999992010010823004+46817+009850FM-12+159099999V0200101N000519999999N9999999N1-01011-01151999999ADDMA1999999082201MD1210041+9999ME1313379OA149900151REMSYN076AAXX  08234 06784 33/// /0101 11101 21115 38220 48337 52004 333 91103 91202;
0137067840999992010010900004+46817+009850FM-12+159099999V0202401N001519999999N9999999N1-00941-01121999999ADDMA1999999082171MD1810011+9999ME1313339OA149900621REMSYN076AAXX  09004 06784 33/// /2403 11094 21112 38217 48333 58001 333 91112 91210;
0137067840999992010010901004+46817+009850FM-12+159099999V0203001N000519999999N9999999N1-01001-01221999999ADDMA1999999082191MD1510001+9999ME1313369OA149900261REMSYN076AAXX  09014 06784 33/// /3001 11100 21122 38219 48336 55000 333 91105 91203;
0137067840999992010010902004+46817+009850FM-12+159099999V0202201N001019999999N9999999N1-01061-01241999999ADDMA1999999082171MD1719999+9999ME1313349OA149900151REMSYN076AAXX  09024 06784 33/// /2202 11106 21124 38217 48334 57/// 333 91103 91202;
0137067840999992010010903004+46817+009850FM-12+159099999V0200101N000519999999N9999999N1-01111-01551999999ADDMA1999999082211MD1219999+9999ME1313419OA149900261REMSYN076AAXX  09034 06784 33/// /0101 11111 21155 38221 48341 52/// 333 91105 91203;
0137067840999992010010904004+46817+009850FM-12+159099999V0202201N001519999999N9999999N1-01091-01261999999ADDMA1999999082161MD1810031+9999ME1313349OA149900211REMSYN076AAXX  09044 06784 33/// /2203 11109 21126 38216 48334 58003 333 91104 91203;
0137067840999992010010905004+46817+009850FM-12+159099999V0209999C001019999999N9999999N1-01161-01351999999ADDMA1999999082081MD1810091+9999ME1313279OA149900211REMSYN076AAXX  09054 06784 33/// /0002 11116 21135 38208 48327 58009 333 91104 91203;
0234067840999992010010906004+46817+009850FM-12+159099999V0202601N000519999999N9999999N1-01161-01301999999ADDAA124000091AL19900091GJ101989IA2999-01509KA1999N-01181MA1999999082051MD1710161+9999ME1313249OA149900621REMSYN100AAXX  09064 06784 33/// /2601 11116 21130 38205 48324 57016 333 21118 3/115 55033 70000 91112 91210;EQDQ01  00002PRCP24
0137067840999992010010907004+46817+009850FM-12+159099999V0209999C000519999999N9999999N1-01211-01591999999ADDMA1999999082041MD1710121+9999ME1313259OA149900211REMSYN076AAXX  09074 06784 33/// /0001 11121 21159 38204 48325 57012 333 91104 91203;
0137067840999992010010908004+46817+009850FM-12+159099999V0200301N001519999999N9999999N1-01191-01281999999ADDMA1999999082071MD1510011+9999ME1313269OA149900571REMSYN076AAXX  09084 06784 33/// /0303 11119 21128 38207 48326 55001 333 91111 91207;
0137067840999992010010909004+46817+009850FM-12+159099999V0200301N002119999999N9999999N1-01081-01211999999ADDMA1999999082071MD1210021+9999ME1313259OA149900571REMSYN076AAXX  09094 06784 33/// /0304 11108 21121 38207 48325 52002 333 91111 91207;
0137067840999992010010910004+46817+009850FM-12+159099999V0200301N001519999999N9999999N1-01011-01081999999ADDMA1999999082031MD1810011+9999ME1313199OA149900361REMSYN076AAXX  09104 06784 33/// /0303 11101 21108 38203 48319 58001 333 91107 91205;
0137067840999992010010911004+46817+009850FM-12+159099999V0200101N000519999999N9999999N1-00901-01051999999ADDMA1999999081971MD1710101+9999ME1313139OA149900361REMSYN076AAXX  09114 06784 33/// /0101 11090 21105 38197 48313 57010 333 91107 91205;
0137067840999992010010912004+46817+009850FM-12+159099999V0200301N005119999999N9999999N1-00891-00961999999ADDMA1999999081911MD1710161+9999ME1313079OA149900671REMSYN076AAXX  09124 06784 33/// /0310 11089 21096 38191 48307 57016 333 91113 91210;
0137067840999992010010913004+46817+009850FM-12+159099999V0200301N005719999999N9999999N1-00891-00981999999ADDMA1999999081881MD1710151+9999ME1313049OA149900721REMSYN076AAXX  09134 06784 33/// /0311 11089 21098 38188 48304 57015 333 91114 91211;
0137067840999992010010914004+46817+009850FM-12+159099999V0200301N005119999999N9999999N1-00921-00941999999ADDMA1999999081911MD1510061+9999ME1313079OA149900721REMSYN076AAXX  09144 06784 33/// /0310 11092 21094 38191 48307 55006 333 91114 91211;
0137067840999992010010915004+46817+009850FM-12+159099999V0200301N005719999999N9999999N1-00971+99999999999ADDMA1999999081941MD1310031+9999ME1313109OA149900721REMSYN076AAXX  09154 06784 33/// /0311 11097 21090 38194 48310 53003 333 91114 91211;
0137067840999992010010916004+46817+009850FM-12+159099999V0200301N003619999999N9999999N1-00991+99999999999ADDMA1999999081971MD1210091+9999ME1313139OA149900671REMSYN076AAXX  09164 06784 33/// /0307 11099 21094 38197 48313 52009 333 91113 91211;
0154067840999992010010917004+46817+009850FM-12+159099999V0200301N003119999999N9999999N1-01001-01051999999ADDAA101000391MA1999999082021MD1210111+9999ME1313189OA149900621REMSYN082AAXX  09174 06784 23/// /0306 11100 21105 38202 48318 52011 333 69935 91112 91210;
0179067840999992010010918004+46817+009850FM-12+159099999V0200201N002119999999N9999999N1-01051-01051999999ADDAA112000391KA1120M-00841MA1999999082041MD1210101+9999ME1313219OA149900721REMSYN094AAXX  09184 06784 03/// /0204 11105 21105 38204 48321 52010 69932 333 11084 60005 91114 91211;
0137067840999992010010919004+46817+009850FM-12+159099999V0200301N001519999999N9999999N1-01031-01071999999ADDMA1999999082091MD1210121+9999ME1313259OA149900411REMSYN076AAXX  09194 06784 33/// /0303 11103 21107 38209 48325 52012 333 91108 91207;
0137067840999992010010920004+46817+009850FM-12+159099999V0200501N001019999999N9999999N1-01071-01151999999ADDMA1999999082111MD1210091+9999ME1313289OA149900361REMSYN076AAXX  09204 06784 33/// /0502 11107 21115 38211 48328 52009 333 91107 91205;
0137067840999992010010921004+46817+009850FM-12+159099999V0201701N001019999999N9999999N1-01071-01221999999ADDMA1999999082121MD1210081+9999ME1313299OA149900621REMSYN076AAXX  09214 06784 33/// /1702 11107 21122 38212 48329 52008 333 91112 91210;
0137067840999992010010922004+46817+009850FM-12+159099999V0201601N001019999999N9999999N1-01081-01271999999ADDMA1999999082181MD1210091+9999ME1313359OA149900261REMSYN076AAXX  09224 06784 33/// /1602 11108 21127 38218 48335 52009 333 91105 91203;
0137067840999992010010923004+46817+009850FM-12+159099999V0201601N000519999999N9999999N1-01131-01331999999ADDMA1999999082211MD1210101+9999ME1313399OA149900261REMSYN076AAXX  09234 06784 33/// /1601 11113 21133 38221 48339 52010 333 91105 91203;
0137067840999992010011000004+46817+009850FM-12+159099999V0201601N001019999999N9999999N1-01211-01351999999ADDMA1999999082231MD1110111+9999ME1313419OA149900721REMSYN076AAXX  10004 06784 33/// /1602 11121 21135 38223 48341 51011 333 91114 91211;
0137067840999992010011001004+46817+009850FM-12+159099999V0209999C000019999999N9999999N1-01211-01431999999ADDMA1999999082261MD1310081+9999ME1313449OA149900151REMSYN076AAXX  10014 06784 33/// /0000 11121 21143 38226 48344 53008 333 91103 91202;
0096067840999992010011002004+46817+009850FM-12+159099999V0202401N001019999999N9999999N1-01161-01331999999ADDMA1999999082301ME1313479REMSYN060AAXX  10024 06784 33/// /2402 11116 21133 38230 48347 5////;
0096067840999992010011003004+46817+009850FM-12+159099999V0209999C000019999999N9999999N1-01241-01271999999ADDMA1999999082321ME1313509REMSYN060AAXX  10034 06784 43/// /0000 11124 21127 38232 48350 5////;
0137067840999992010011004004+46817+009850FM-12+159099999V0203001N000519999999N9999999N1-01211-01311999999ADDMA1999999082361MD1310101+9999ME1313539OA149900211REMSYN076AAXX  10044 06784 33/// /3001 11121 21131 38236 48353 53010 333 91104 91203;
0137067840999992010011005004+46817+009850FM-12+159099999V0202001N000519999999N9999999N1-01161-01371999999ADDMA1999999082411MD1310111+9999ME1313589OA149900151REMSYN076AAXX  10054 06784 33/// /2001 11116 21137 38241 48358 53011 333 91103 91202;
0215067840999992010011006004+46817+009850FM-12+159099999V0202001N001019999999N9999999N1-01211-01391999999ADDAA124000391AL11800091GJ100009IA2999-01509KA1999N-01261MA1999999082451MD1110131+9999ME1313629OA149900361REMSYN100AAXX  10064 06784 33/// /2002 11121 21139 38245 48362 51013 333 21126 3/115 55000 70003 91107 91205;
0137067840999992010011007004+46817+009850FM-12+159099999V0203501N000519999999N9999999N1-01301-01471999999ADDMA1999999082511MD1110151+9999ME1313689OA149900211REMSYN076AAXX  10074 06784 33/// /3501 11130 21147 38251 48368 51015 333 91104 91203;
0137067840999992010011008004+46817+009850FM-12+159099999V0201901N000519999999N9999999N1-01301-01561999999ADDMA1999999082571MD1319999+9999ME1313749OA149900151REMSYN076AAXX  10084 06784 33/// /1901 11130 21156 38257 48374 53/// 333 91103 91202;
0137067840999992010011009004+46817+009850FM-12+159099999V0209999C000019999999N9999999N1-01151-01531999999ADDMA1999999082631MD1210181+9999ME1313809OA149900211REMSYN076AAXX  10094 06784 33/// /0000 11115 21153 38263 48380 52018 333 91104 91203;
0137067840999992010011010004+46817+009850FM-12+159099999V0209999C000019999999N9999999N1-01001-01271999999ADDMA1999999082681MD1110171+9999ME1313829OA149900151REMSYN076AAXX  10104 06784 33/// /0000 11100 21127 38268 48382 51017 333 91103 91202;
0137067840999992010011011004+46817+009850FM-12+159099999V0200101N000519999999N9999999N1-00931-01291999999ADDMA1999999082721MD1110151+9999ME1313869OA149900151REMSYN076AAXX  10114 06784 33/// /0101 11093 21129 38272 48386 51015 333 91103 91202;
0137067840999992010011012004+46817+009850FM-12+159099999V0200301N001019999999N9999999N1-00731-01051999999ADDMA1999999082731MD1110101+9999ME1313849OA149900211REMSYN076AAXX  10124 06784 33/// /0302 11073 21105 38273 48384 51010 333 91104 91203;
0137067840999992010011013004+46817+009850FM-12+159099999V0200401N003119999999N9999999N1-00731-01031999999ADDMA1999999082721MD1010041+9999ME1313839OA149900461REMSYN076AAXX  10134 06784 33/// /0406 11073 21103 38272 48383 50004 333 91109 91207;
0137067840999992010011014004+46817+009850FM-12+159099999V0200301N006719999999N9999999N1-00891-01021999999ADDMA1999999082771MD1219999+9999ME1313899OA149900821REMSYN076AAXX  10144 06784 33/// /0313 11089 21102 38277 48389 52/// 333 91116 91213;
0137067840999992010011015004+46817+009850FM-12+159099999V0200301N004119999999N9999999N1-01021+99999999999ADDMA1999999082861MD1210131+9999ME1313989OA149900881REMSYN076AAXX  10154 06784 33/// /0308 11102 21100 38286 48398 52013 333 91117 91213;
0137067840999992010011016004+46817+009850FM-12+159099999V0200301N003119999999N9999999N1-01081-01081999999ADDMA1999999082891MD1110171+9999ME1314019OA149900881REMSYN076AAXX  10164 06784 33/// /0306 11108 21108 38289 48401 51017 333 91117 91212;
0137067840999992010011017004+46817+009850FM-12+159099999V0203501N001519999999N9999999N1-01091-01121999999ADDMA1999999082971MD1110201+9999ME1314099OA149900571REMSYN076AAXX  10174 06784 33/// /3503 11109 21112 38297 48409 51020 333 91111 91209;
0156067840999992010011018004+46817+009850FM-12+159099999V0201501N001519999999N9999999N1-01051-01151999999ADDKA1120M-00701MA1999999083021MD1310161+9999ME1314149OA149900881REMSYN082AAXX  10184 06784 33/// /1503 11105 21115 38302 48414 53016 333 11070 91117 91213;
0137067840999992010011019004+46817+009850FM-12+159099999V0201601N001519999999N9999999N1-01041-01211999999ADDMA1999999083031MD1110141+9999ME1314159OA149900361REMSYN076AAXX  10194 06784 33/// /1603 11104 21121 38303 48415 51014 333 91107 91205;
0137067840999992010011020004+46817+009850FM-12+159099999V0201901N001519999999N9999999N1-01051-01261999999ADDMA1999999083061MD1110091+9999ME1314189OA149900361REMSYN076AAXX  10204 06784 33/// /1903 11105 21126 38306 48418 51009 333 91107 91205;
0137067840999992010011021004+46817+009850FM-12+159099999V0201801N001019999999N9999999N1-01131-01371999999ADDMA1999999083071MD1110051+9999ME1314199OA149900571REMSYN076AAXX  10214 06784 33/// /1802 11113 21137 38307 48419 51005 333 91111 91209;
0137067840999992010011022004+46817+009850FM-12+159099999V0201901N001019999999N9999999N1-01251-01421999999ADDMA1999999083081MD1210051+9999ME1314219OA149900261REMSYN076AAXX  10224 06784 33/// /1902 11125 21142 38308 48421 52005 333 91105 91203;
0137067840999992010011023004+46817+009850FM-12+159099999V0201701N000519999999N9999999N1-01261-01501999999ADDMA1999999083061MD1010001+9999ME1314199OA149900151REMSYN076AAXX  10234 06784 33/// /1701 11126 21150 38306 48419 50000 333 91103 91202;
0137067840999992010011100004+46817+009850FM-12+159099999V0209999C000019999999N9999999N1-01271-01721999999ADDMA1999999083061MD1810011+9999ME1314199OA149900881REMSYN076AAXX  11004 06784 33/// /0000 11127 21172 38306 48419 58001 333 91117 91213;
0137067840999992010011101004+46817+009850FM-12+159099999V0209999C000019999999N9999999N1-01271-01641999999ADDMA1999999083051MD1710031+9999ME1314199OA149900101REMSYN076AAXX  11014 06784 33/// /0000 11127 21164 38305 48419 57003 333 91102 91201;
0137067840999992010011102004+46817+009850FM-12+159099999V0203601N000519999999N9999999N1-01241-01631999999ADDMA1999999083061MD1410001+9999ME1314209OA149900101REMSYN076AAXX  11024 06784 33/// /3601 11124 21163 38306 48420 54/// 333 91102 91201;
0137067840999992010011103004+46817+009850FM-12+159099999V0200201N000519999999N9999999N1-01191-01601999999ADDMA1999999083041MD1719999+9999ME1314189OA149900151REMSYN076AAXX  11034 06784 33/// /0201 11119 21160 38304 48418 57/// 333 91103 91202;
0137067840999992010011104004+46817+009850FM-12+159099999V0209999C000019999999N9999999N1-01221-01661999999ADDMA1999999083061MD1210011+9999ME1314209OA149900101REMSYN076AAXX  11044 06784 33/// /0000 11122 21166 38306 48420 52001 333 91102 91201;
0137067840999992010011105004+46817+009850FM-12+159099999V0200201N000519999999N9999999N1-01121-01361999999ADDMA1999999083041MD1710021+9999ME1314179OA149900151REMSYN076AAXX  11054 06784 33/// /0201 11112 21136 38304 48417 57002 333 91103 91202;
0250067840999992010011106004+46817+009850FM-12+159099999V0200201N000519999999N9999999N1-01171-01501999999ADDAA124000091AL19900091GJ103549IA2999-01709KA1999N-01321MA1999999083041MD1410001+9999ME1314189OA149900361REMSYN100AAXX  11064 06784 33/// /0201 11117 21150 38304 48418 58000 333 21132 3/117 55059 70000 91107 91205;EQDQ01+000082APCTENQ02  00002PRCP24
0137067840999992010011107004+46817+009850FM-12+159099999V0209999C000019999999N9999999N1-01031-01501999999ADDMA1999999083071MD1310011+9999ME1314209OA149900151REMSYN076AAXX  11074 06784 33/// /0000 11103 21150 38307 48420 53001 333 91103 91202;
0137067840999992010011108004+46817+009850FM-12+159099999V0209999C000019999999N9999999N1-01051-01401999999ADDMA1999999083081MD1219999+9999ME1314209OA149900101REMSYN076AAXX  11084 06784 33/// /0000 11105 21140 38308 48420 52/// 333 91102 91201;
0137067840999992010011109004+46817+009850FM-12+159099999V0209999C000019999999N9999999N1-00961-01221999999ADDMA1999999083101MD1110061+9999ME1314219OA149900151REMSYN076AAXX  11094 06784 33/// /0000 11096 21122 38310 48421 51006 333 91103 91202;
0137067840999992010011110004+46817+009850FM-12+159099999V0209999C000019999999N9999999N1-00701-01211999999ADDMA1999999083091MD1219999+9999ME1314199OA149900101REMSYN076AAXX  11104 06784 33/// /0000 11070 21121 38309 48419 52/// 333 91102 91201;
0156067840999992010011111004+46817+009850FM-12+159099999V0209999C000019999999N9999999N1-00581-00991999999ADDMA1999999083081MD1410001+9999ME1314179OA149900101REMSYN076AAXX  11114 06784 33/// /0000 11058 21099 38308 48417 58000 333 91102 91201;EQDQ01+000082APCTEN
0137067840999992010011112004+46817+009850FM-12+159099999V0202401N000519999999N9999999N1-00421-01121999999ADDMA1999999083031MD1810071+9999ME1314119OA149900151REMSYN076AAXX  11124 06784 33/// /2401 11042 21112 38303 48411 58007 333 91103 91202;
0137067840999992010011113004+46817+009850FM-12+159099999V0200201N000519999999N9999999N1-00351-00951999999ADDMA1999999082981MD1810111+9999ME1314059OA149900101REMSYN076AAXX  11134 06784 33/// /0201 11035 21095 38298 48405 58011 333 91102 91201;
0096067840999992010011114004+46817+009850FM-12+159099999V0200201N006219999999N9999999N1-00401-00721999999ADDMA1999999083001ME1314079REMSYN060AAXX  11144 06784 33/// /0212 11040 21072 38300 48407 5////;
0137067840999992010011115004+46817+009850FM-12+159099999V0200401N004619999999N9999999N1-00471-00721999999ADDMA1999999083051MD1310021+9999ME1314129OA149900771REMSYN076AAXX  11154 06784 33/// /0409 11047 21072 38305 48412 53002 333 91115 91212;
0137067840999992010011116004+46817+009850FM-12+159099999V0200401N005719999999N9999999N1-00521-00781999999ADDMA1999999083071MD1210091+9999ME1314159OA149900721REMSYN076AAXX  11164 06784 33/// /0411 11052 21078 38307 48415 52009 333 91114 91211;
0137067840999992010011117004+46817+009850FM-12+159099999V0200401N005719999999N9999999N1-00631-00781999999ADDMA1999999083111MD1210111+9999ME1314199OA149900721REMSYN076AAXX  11174 06784 33/// /0411 11063 21078 38311 48419 52011 333 91114 91213;
0156067840999992010011118004+46817+009850FM-12+159099999V0200301N002619999999N9999999N1-00591-00741999999ADDKA1120M-00331MA1999999083171MD1310121+9999ME1314249OA149900771REMSYN082AAXX  11184 06784 33/// /0305 11059 21074 38317 48424 53012 333 11033 91115 91213;
0137067840999992010011119004+46817+009850FM-12+159099999V0202001N001019999999N9999999N1-00651-00801999999ADDMA1999999083221MD1310151+9999ME1314309OA149900571REMSYN076AAXX  11194 06784 33/// /2002 11065 21080 38322 48430 53015 333 91111 91209;
0137067840999992010011120004+46817+009850FM-12+159099999V0201901N001519999999N9999999N1-00711-00821999999ADDMA1999999083231MD1110121+9999ME1314319OA149900311REMSYN076AAXX  11204 06784 33/// /1903 11071 21082 38323 48431 51012 333 91106 91204;
0137067840999992010011121004+46817+009850FM-12+159099999V0202301N000519999999N9999999N1-00741-00831999999ADDMA1999999083241MD1210071+9999ME1314329OA149900721REMSYN076AAXX  11214 06784 33/// /2301 11074 21083 38324 48432 52007 333 91114 91213;
0137067840999992010011122004+46817+009850FM-12+159099999V0201901N000519999999N9999999N1-00761-00831999999ADDMA1999999083251MD1210031+9999ME1314339OA149900211REMSYN076AAXX  11224 06784 33/// /1901 11076 21083 38325 48433 52003 333 91104 91203;
0137067840999992010011123004+46817+009850FM-12+159099999V0209999C000019999999N9999999N1-00751-00841999999ADDMA1999999083251MD1010021+9999ME1314339OA149900211REMSYN076AAXX  11234 06784 33/// /0000 11075 21084 38325 48433 50002 333 91104 91203;
0137067840999992010011200004+46817+009850FM-12+159099999V0209999C000019999999N9999999N1-00741-00851999999ADDMA1999999083251MD1210011+9999ME1314339OA149900771REMSYN076AAXX  12004 06784 33/// /0000 11074 21085 38325 48433 52001 333 91115 91213;
0137067840999992010011201004+46817+009850FM-12+159099999V0209999C000019999999N9999999N1-00741-00841999999ADDMA1999999083231MD1810021+9999ME1314319OA149900101REMSYN076AAXX  12014 06784 33/// /0000 11074 21084 38323 48431 58002 333 91102 91201;
0137067840999992010011202004+46817+009850FM-12+159099999V0200101N000519999999N9999999N1-00741-00841999999ADDMA1999999083241MD1719999+9999ME1314329OA149900101REMSYN076AAXX  12024 06784 33/// /0101 11074 21084 38324 48432 57/// 333 91102 91201;
0154067840999992010011203004+46817+009850FM-12+159099999V0202101N000519999999N9999999N1-00721-00791999999ADDAA101000021MA1999999083251MD1510001+9999ME1314339OA149900211REMSYN082AAXX  12034 06784 23/// /2101 11072 21079 38325 48433 55000 333 69925 91104 91203;
0154067840999992010011204004+46817+009850FM-12+159099999V0209999C000019999999N9999999N1-00711-00771999999ADDAA101000391MA1999999083251MD1110021+9999ME1314339OA149900101REMSYN082AAXX  12044 06784 23/// /0000 11071 21077 38325 48433 51002 333 69935 91102 91202;
0154067840999992010011205004+46817+009850FM-12+159099999V0201101N000519999999N9999999N1-00701-00781999999ADDAA101000021MA1999999083241MD1010001+9999ME1314329OA149900101REMSYN082AAXX  12054 06784 23/// /1101 11070 21078 38324 48432 50000 333 69915 91102 91201;
0238067840999992010011206004+46817+009850FM-12+159099999V0209999C000019999999N9999999N1-00731-00821999999ADDAA112000591AA224000591AL13600091GJ100309IA2999-00909KA1999N-00771MA1999999083231MD1810021+9999ME1314319OA149900311REMSYN112AAXX  12064 06784 03/// /0000 11073 21082 38323 48431 58002 69962 333 21077 3/109 55005 60005 70006 91106 91204;
0137067840999992010011207004+46817+009850FM-12+159099999V0202001N001019999999N9999999N1-00691-00821999999ADDMA1999999083231MD1710021+9999ME1314319OA149900151REMSYN076AAXX  12074 06784 33/// /2002 11069 21082 38323 48431 57002 333 91103 91203;
0137067840999992010011208004+46817+009850FM-12+159099999V0202101N001019999999N9999999N1-00691-00781999999ADDMA1999999083201MD1719999+9999ME1314289OA149900151REMSYN076AAXX  12084 06784 33/// /2102 11069 21078 38320 48428 57/// 333 91103 91203;
0137067840999992010011209004+46817+009850FM-12+159099999V0202201N001019999999N9999999N1-00601-00751999999ADDMA1999999083191MD1810041+9999ME1314269OA149900151REMSYN076AAXX  12094 06784 33/// /2202 11060 21075 38319 48426 58004 333 91103 91203;
0137067840999992010011210004+46817+009850FM-12+159099999V0202101N000519999999N9999999N1-00481-00781999999ADDMA1999999083121MD1810111+9999ME1314209OA149900151REMSYN076AAXX  12104 06784 33/// /2101 11048 21078 38312 48420 58011 333 91103 91202;
0137067840999992010011211004+46817+009850FM-12+159099999V0202101N001519999999N9999999N1-00311-00651999999ADDMA1999999083051MD1810151+9999ME1314119OA149900151REMSYN076AAXX  12114 06784 33/// /2103 11031 21065 38305 48411 58015 333 91103 91203;
0137067840999992010011212004+46817+009850FM-12+159099999V0201701N002119999999N9999999N1-00291-00651999999ADDMA1999999082971MD1710221+9999ME1314039OA149900361REMSYN076AAXX  12124 06784 33/// /1704 11029 21065 38297 48403 57022 333 91107 91205;
0137067840999992010011213004+46817+009850FM-12+159099999V0201901N001519999999N9999999N1-00171-00771999999ADDMA1999999082931MD1610191+9999ME1313999OA149900411REMSYN076AAXX  12134 06784 33/// /1903 11017 21077 38293 48399 56019 333 91108 91205;
0096067840999992010011214004+46817+009850FM-12+159099999V0202001N001519999999N9999999N1-00191-00751999999ADDMA1999999082921ME1313989REMSYN060AAXX  12144 06784 33/// /2003 11019 21075 38292 48398 5////;
0137067840999992010011215004+46817+009850FM-12+159099999V0201901N002119999999N9999999N1-00341-00721999999ADDMA1999999082961MD1510011+9999ME1314029OA149900411REMSYN076AAXX  12154 06784 33/// /1904 11034 21072 38296 48402 55001 333 91108 91205;
0137067840999992010011216004+46817+009850FM-12+159099999V0202201N002119999999N9999999N1-00471-00961999999ADDMA1999999082911MD1810021+9999ME1314009OA149900461REMSYN076AAXX  12164 06784 33/// /2204 11047 21096 38291 48400 58002 333 91109 91205;
0137067840999992010011217004+46817+009850FM-12+159099999V0202301N002119999999N9999999N1-00591-00941999999ADDMA1999999082891MD1710031+9999ME1313989OA149900461REMSYN076AAXX  12174 06784 33/// /2304 11059 21094 38289 48398 57003 333 91109 91205;
0156067840999992010011218004+46817+009850FM-12+159099999V0202201N002619999999N9999999N1-00741-01001999999ADDKA1120M-00161MA1999999082881MD1710081+9999ME1313999OA149900461REMSYN082AAXX  12184 06784 33/// /2205 11074 21100 38288 48399 57008 333 11016 91109 91205;
0137067840999992010011219004+46817+009850FM-12+159099999V0202101N002119999999N9999999N1-00831-01031999999ADDMA1999999082921MD1310011+9999ME1314029OA149900361REMSYN076AAXX  12194 06784 33/// /2104 11083 21103 38292 48402 53001 333 91107 91206;
0137067840999992010011220004+46817+009850FM-12+159099999V0202001N002119999999N9999999N1-00871-01121999999ADDMA1999999082931MD1210041+9999ME1314049OA149900361REMSYN076AAXX  12204 06784 33/// /2004 11087 21112 38293 48404 52004 333 91107 91206;
0137067840999992010011221004+46817+009850FM-12+159099999V0202101N002119999999N9999999N1-00881-01241999999ADDMA1999999082921MD1010041+9999ME1314049OA149900461REMSYN076AAXX  12214 06784 33/// /2104 11088 21124 38292 48404 50004 333 91109 91206;
0137067840999992010011222004+46817+009850FM-12+159099999V0202101N002119999999N9999999N1-00961-01301999999ADDMA1999999082871MD1810051+9999ME1313999OA149900461REMSYN076AAXX  12224 06784 33/// /2104 11096 21130 38287 48399 58005 333 91109 91205;
0137067840999992010011223004+46817+009850FM-12+159099999V0202101N001519999999N9999999N1-00941-01361999999ADDMA1999999082851MD1710081+9999ME1313989OA149900461REMSYN076AAXX  12234 06784 33/// /2103 11094 21136 38285 48398 57008 333 91109 91205;
0137067840999992010011300004+46817+009850FM-12+159099999V0202401N001519999999N9999999N1-00831-01351999999ADDMA1999999082801MD1710121+9999ME1313929OA149900461REMSYN076AAXX  13004 06784 33/// /2403 11083 21135 38280 48392 57012 333 91109 91206;
0137067840999992010011301004+46817+009850FM-12+159099999V0200701N000519999999N9999999N1-01041-01231999999ADDMA1999999082791MD1710081+9999ME1313939OA149900311REMSYN076AAXX  13014 06784 33/// /0701 11104 21123 38279 48393 57008 333 91106 91203;
0137067840999992010011302004+46817+009850FM-12+159099999V0209999C000019999999N9999999N1-00971-01421999999ADDMA1999999082831MD1519999+9999ME1313969OA149900261REMSYN076AAXX  13024 06784 33/// /0000 11097 21142 38283 48396 55/// 333 91105 91202;
0137067840999992010011303004+46817+009850FM-12+159099999V0200101N000519999999N9999999N1-00961-01431999999ADDMA1999999082791MD1019999+9999ME1313939OA149900461REMSYN076AAXX  13034 06784 33/// /0101 11096 21143 38279 48393 50/// 333 91109 91205;
0137067840999992010011304004+46817+009850FM-12+159099999V0200101N000519999999N9999999N1-00941-01161999999ADDMA1999999082711MD1810081+9999ME1313849OA149900151REMSYN076AAXX  13044 06784 33/// /0101 11094 21116 38271 48384 58008 333 91103 91201;
0137067840999992010011305004+46817+009850FM-12+159099999V0202001N001019999999N9999999N1-00831-01291999999ADDMA1999999082661MD1810171+9999ME1313799OA149900151REMSYN076AAXX  13054 06784 33/// /2002 11083 21129 38266 48379 58017 333 91103 91202;
0234067840999992010011306004+46817+009850FM-12+159099999V0202201N001519999999N9999999N1-00831-01161999999ADDAA124000091AL19900091GJ103309IA2999-01209KA1999N-01041MA1999999082671MD1710121+9999ME1313799OA149900461REMSYN100AAXX  13064 06784 33/// /2203 11083 21116 38267 48379 57012 333 21104 3/112 55055 70000 91109 91206;EQDQ01  00002PRCP24
0137067840999992010011307004+46817+009850FM-12+159099999V0209999C000019999999N9999999N1-00671-01311999999ADDMA1999999082691MD1510021+9999ME1313829OA149900311REMSYN076AAXX  13074 06784 33/// /0000 11067 21131 38269 48382 55002 333 91106 91204;
0137067840999992010011308004+46817+009850FM-12+159099999V0200301N000519999999N9999999N1-00681-01291999999ADDMA1999999082741MD1310081+9999ME1313879OA149900261REMSYN076AAXX  13084 06784 33/// /0301 11068 21129 38274 48387 53008 333 91105 91204;
0137067840999992010011309004+46817+009850FM-12+159099999V0203601N000519999999N9999999N1-00701-01111999999ADDMA1999999082751MD1210081+9999ME1313879OA149900311REMSYN076AAXX  13094 06784 33/// /3601 11070 21111 38275 48387 52008 333 91106 91204;
0137067840999992010011310004+46817+009850FM-12+159099999V0200301N000519999999N9999999N1-00441-01321999999ADDMA1999999082771MD1210081+9999ME1313889OA149900211REMSYN076AAXX  13104 06784 33/// /0301 11044 21132 38277 48388 52008 333 91104 91202;
0137067840999992010011311004+46817+009850FM-12+159099999V0202301N002119999999N9999999N1-00301-01201999999ADDMA1999999082771MD1210031+9999ME1313849OA149900311REMSYN076AAXX  13114 06784 33/// /2304 11030 21120 38277 48384 52003 333 91106 91204;
0137067840999992010011312004+46817+009850FM-12+159099999V0201901N001019999999N9999999N1-00251-01151999999ADDMA1999999082761MD1010011+9999ME1313839OA149900311REMSYN076AAXX  13124 06784 33/// /1902 11025 21115 38276 48383 50001 333 91106 91204;
0137067840999992010011313004+46817+009850FM-12+159099999V0201201N002119999999N9999999N1-00171-00961999999ADDMA1999999082741MD1710031+9999ME1313809OA149900461REMSYN076AAXX  13134 06784 33/// /1204 11017 21096 38274 48380 57003 333 91109 91204;
0137067840999992010011314004+46817+009850FM-12+159099999V0201301N002619999999N9999999N1-00211-00871999999ADDMA1999999082761MD1519999+9999ME1313829OA149900571REMSYN076AAXX  13144 06784 33/// /1305 11021 21087 38276 48382 55/// 333 91111 91207;
0137067840999992010011315004+46817+009850FM-12+159099999V0201301N003119999999N9999999N1-00251-00761999999ADDMA1999999082781MD1210021+9999ME1313859OA149900571REMSYN076AAXX  13154 06784 33/// /1306 11025 21076 38278 48385 52002 333 91111 91207;
0137067840999992010011316004+46817+009850FM-12+159099999V0201201N001519999999N9999999N1-00301-00711999999ADDMA1999999082821MD1310081+9999ME1313899OA149900411REMSYN076AAXX  13164 06784 33/// /1203 11030 21071 38282 48389 53008 333 91108 91206;
0137067840999992010011317004+46817+009850FM-12+159099999V0201601N000519999999N9999999N1-00381-00591999999ADDMA1999999082861MD1310101+9999ME1313939OA149900411REMSYN076AAXX  13174 06784 33/// /1601 11038 21059 38286 48393 53010 333 91108 91205;
0156067840999992010011318004+46817+009850FM-12+159099999V0209999C000019999999N9999999N1-00431-00591999999ADDKA1120M-00171MA1999999082891MD1110111+9999ME1313979OA149900571REMSYN082AAXX  13184 06784 33/// /0000 11043 21059 38289 48397 51011 333 11017 91111 91207;
0154067840999992010011319004+46817+009850FM-12+159099999V0202001N000519999999N9999999N1-00411-00531999999ADDAA101000021MA1999999082911MD1110091+9999ME1313999OA149900101REMSYN082AAXX  13194 06784 23/// /2001 11041 21053 38291 48399 51009 333 69915 91102 91201;
0154067840999992010011320004+46817+009850FM-12+159099999V0202201N001519999999N9999999N1-00421-00471999999ADDAA101000021MA1999999082921MD1110061+9999ME1313999OA149900211REMSYN082AAXX  13204 06784 23/// /2203 11042 21047 38292 48399 51006 333 69915 91104 91203;
0137067840999992010011321004+46817+009850FM-12+159099999V0202001N001519999999N9999999N1-00421-00511999999ADDMA1999999082921MD1210031+9999ME1314009OA149900411REMSYN076AAXX  13214 06784 33/// /2003 11042 21051 38292 48400 52003 333 91108 91205;
0154067840999992010011322004+46817+009850FM-12+159099999V0202001N001019999999N9999999N1-00481-00481999999ADDAA101000021MA1999999082931MD1210021+9999ME1314019OA149900261REMSYN082AAXX  13224 06784 23/// /2002 11048 21048 38293 48401 52002 333 69915 91105 91203;
0137067840999992010011323004+46817+009850FM-12+159099999V0202101N001019999999N9999999N1-00471-00531999999ADDMA1999999082911MD1010011+9999ME1313999OA149900211REMSYN076AAXX  13234 06784 33/// /2102 11047 21053 38291 48399 50001 333 91104 91203;
0160067840999992010011400004+46817+009850FM-12+159099999V0202201N001019999999N9999999N1-00471-00551999999ADDAA106000591MA1999999082881MD1710041+9999ME1313969OA149900571REMSYN088AAXX  14004 06784 03/// /2202 11047 21055 38288 48396 57004 69941 333 69915 91111 91207;
0137067840999992010011401004+46817+009850FM-12+159099999V0202101N001019999999N9999999N1-00531-00611999999ADDMA1999999082841MD1810091+9999ME1313939OA149900211REMSYN076AAXX  14014 06784 33/// /2102 11053 21061 38284 48393 58009 333 91104 91203;
0137067840999992010011402004+46817+009850FM-12+159099999V0202201N001519999999N9999999N1-00601-00601999999ADDMA1999999082801MD1819999+9999ME1313899OA149900261REMSYN076AAXX  14024 06784 33/// /2203 11060 21060 38280 48389 58/// 333 91105 91203;
0096067840999992010011403004+46817+009850FM-12+159099999V0202001N001019999999N9999999N1-00671-00721999999ADDMA1999999082751ME1313859REMSYN060AAXX  14034 06784 33/// /2002 11067 21072 38275 48385 5////;
0137067840999992010011404004+46817+009850FM-12+159099999V0201901N001519999999N9999999N1-00791-00831999999ADDMA1999999082721MD1710121+9999ME1313839OA149900261REMSYN076AAXX  14044 06784 33/// /1903 11079 21083 38272 48383 57012 333 91105 91203;
0137067840999992010011405004+46817+009850FM-12+159099999V0202001N001519999999N9999999N1-00771-00961999999ADDMA1999999082731MD1710071+9999ME1313859OA149900261REMSYN076AAXX  14054 06784 33/// /2003 11077 21096 38273 48385 57007 333 91105 91203;
0238067840999992010011406004+46817+009850FM-12+159099999V0202001N001519999999N9999999N1-00701-01041999999ADDAA112000591AA224000591AL12400091GJ100069IA2999-01109KA1999N-00861MA1999999082761MD1310011+9999ME1313889OA149900261REMSYN112AAXX  14064 06784 03/// /2003 11070 21104 38276 48388 53001 69942 333 21086 3/111 55001 60005 70004 91105 91203;
0137067840999992010011407004+46817+009850FM-12+159099999V0202201N001519999999N9999999N1-00761-01021999999ADDMA1999999082781MD1110061+9999ME1313909OA149900211REMSYN076AAXX  14074 06784 33/// /2203 11076 21102 38278 48390 51006 333 91104 91203;
0137067840999992010011408004+46817+009850FM-12+159099999V0202101N001019999999N9999999N1-00791-01171999999ADDMA1999999082791MD1119999+9999ME1313929OA149900261REMSYN076AAXX  14084 06784 33/// /2102 11079 21117 38279 48392 51/// 333 91105 91204;
0137067840999992010011409004+46817+009850FM-12+159099999V0202101N001519999999N9999999N1-00661-01321999999ADDMA1999999082811MD1110051+9999ME1313959OA149900261REMSYN076AAXX  14094 06784 33/// /2103 11066 21132 38281 48395 51005 333 91105 91204;
0137067840999992010011410004+46817+009850FM-12+159099999V0209999C000019999999N9999999N1-00531-01021999999ADDMA1999999082811MD1210031+9999ME1313929OA149900261REMSYN076AAXX  14104 06784 33/// /0000 11053 21102 38281 48392 52003 333 91105 91204;
0137067840999992010011411004+46817+009850FM-12+159099999V0200301N000519999999N9999999N1-00201-01281999999ADDMA1999999082761MD1810031+9999ME1313869OA149900211REMSYN076AAXX  14114 06784 33/// /0301 11020 21128 38276 48386 58003 333 91104 91202;
0137067840999992010011412004+46817+009850FM-12+159099999V0202101N001019999999N9999999N1-00061-01041999999ADDMA1999999082721MD1710091+9999ME1313789OA149900261REMSYN076AAXX  14124 06784 33/// /2102 11006 21104 38272 48378 57009 333 91105 91204;
0137067840999992010011413004+46817+009850FM-12+159099999V0201401N004619999999N9999999N1-00061-01011999999ADDMA1999999082701MD1610111+9999ME1313769OA149900721REMSYN076AAXX  14134 06784 33/// /1409 11006 21101 38270 48376 56011 333 91114 91209;
0137067840999992010011414004+46817+009850FM-12+159099999V0201501N004119999999N9999999N1-00161-00891999999ADDMA1999999082711MD1710051+9999ME1313779OA149900721REMSYN076AAXX  14144 06784 33/// /1508 11016 21089 38271 48377 57005 333 91114 91210;
0137067840999992010011415004+46817+009850FM-12+159099999V0201601N002619999999N9999999N1-00311-01081999999ADDMA1999999082721MD1510001+9999ME1313809OA149900721REMSYN076AAXX  14154 06784 33/// /1605 11031 21108 38272 48380 55000 333 91114 91210;
0137067840999992010011416004+46817+009850FM-12+159099999V0202201N002119999999N9999999N1-00431-00991999999ADDMA1999999082781MD1210081+9999ME1313869OA149900721REMSYN076AAXX  14164 06784 33/// /2204 11043 21099 38278 48386 52008 333 91114 91209;
0137067840999992010011417004+46817+009850FM-12+159099999V0202301N002119999999N9999999N1-00401-01241999999ADDMA1999999082831MD1310121+9999ME1313929OA149900511REMSYN076AAXX  14174 06784 33/// /2304 11040 21124 38283 48392 53012 333 91110 91205;
0156067840999992010011418004+46817+009850FM-12+159099999V0202101N001519999999N9999999N1-00591-01431999999ADDKA1120M-00051MA1999999082871MD1110151+9999ME1313979OA149900721REMSYN082AAXX  14184 06784 33/// /2103 11059 21143 38287 48397 51015 333 11005 91114 91210;
0137067840999992010011419004+46817+009850FM-12+159099999V0202201N002619999999N9999999N1-00541-01331999999ADDMA1999999082921MD1110141+9999ME1314039OA149900361REMSYN076AAXX  14194 06784 33/// /2205 11054 21133 38292 48403 51014 333 91107 91205;
0137067840999992010011420004+46817+009850FM-12+159099999V0202201N003619999999N9999999N1-00711-01031999999ADDMA1999999082951MD1110121+9999ME1314059OA149900411REMSYN076AAXX  14204 06784 33/// /2207 11071 21103 38295 48405 51012 333 91108 91207;
0137067840999992010011421004+46817+009850FM-12+159099999V0202301N003119999999N9999999N1-00651-01201999999ADDMA1999999082991MD1310121+9999ME1314099OA149900511REMSYN076AAXX  14214 06784 33/// /2306 11065 21120 38299 48409 53012 333 91110 91207;
0137067840999992010011422004+46817+009850FM-12+159099999V0202301N002619999999N9999999N1-00721-01111999999ADDMA1999999083051MD1310131+9999ME1314159OA149900411REMSYN076AAXX  14224 06784 33/// /2305 11072 21111 38305 48415 53013 333 91108 91206;
0137067840999992010011423004+46817+009850FM-12+159099999V0202201N002119999999N9999999N1-00751-01121999999ADDMA1999999083101MD1110151+9999ME1314209OA149900361REMSYN076AAXX  14234 06784 33/// /2204 11075 21112 38310 48420 51015 333 91107 91205;
0137067840999992010011500004+46817+009850FM-12+159099999V0201701N001019999999N9999999N1-00921-01411999999ADDMA1999999083141MD1110151+9999ME1314269OA149900721REMSYN076AAXX  15004 06784 33/// /1702 11092 21141 38314 48426 51015 333 91114 91210;
0137067840999992010011501004+46817+009850FM-12+159099999V0209999C000019999999N9999999N1-00811-01551999999ADDMA1999999083151MD1110101+9999ME1314279OA149900261REMSYN076AAXX  15014 06784 33/// /0000 11081 21155 38315 48427 51010 333 91105 91203;
0137067840999992010011502004+46817+009850FM-12+159099999V0200301N000519999999N9999999N1-00931-01521999999ADDMA1999999083201MD1310101+9999ME1314329OA149900151REMSYN076AAXX  15024 06784 33/// /0301 11093 21152 38320 48432 53010 333 91103 91203;
0096067840999992010011503004+46817+009850FM-12+159099999V0200101N000519999999N9999999N1-00911-01971999999ADDMA1999999083271ME1314399REMSYN060AAXX  15034 06784 33/// /0101 11091 21197 38327 48439 5////;
0137067840999992010011504004+46817+009850FM-12+159099999V0203501N000519999999N9999999N1-00941-01751999999ADDMA1999999083311MD1110161+9999ME1314439OA149900101REMSYN076AAXX  15044 06784 33/// /3501 11094 21175 38331 48443 51016 333 91102 91201;
0137067840999992010011505004+46817+009850FM-12+159099999V0209999C000019999999N9999999N1-01001-01671999999ADDMA1999999083381MD1210181+9999ME1314499OA149900101REMSYN076AAXX  15054 06784 33/// /0000 11100 21167 38338 48449 52018 333 91102 91201;
0234067840999992010011506004+46817+009850FM-12+159099999V0200201N000519999999N9999999N1-00981-01611999999ADDAA124000091AL19900091GJ103489IA2999-01509KA1999N-01081MA1999999083481MD1310211+9999ME1314589OA149900411REMSYN100AAXX  15064 06784 33/// /0201 11098 21161 38348 48458 53021 333 21108 3/115 55058 70000 91108 91207;EQDQ01  00002PRCP24
0137067840999992010011507004+46817+009850FM-12+159099999V0200101N000519999999N9999999N1-00961-01861999999ADDMA1999999083571MD1310261+9999ME1314679OA149900101REMSYN076AAXX  15074 06784 33/// /0101 11096 21186 38357 48467 53026 333 91102 91201;
0137067840999992010011508004+46817+009850FM-12+159099999V0209999C000019999999N9999999N1-00941-01851999999ADDMA1999999083681MD1219999+9999ME1314779OA149900101REMSYN076AAXX  15084 06784 33/// /0000 11094 21185 38368 48477 52/// 333 91102 91201;
0137067840999992010011509004+46817+009850FM-12+159099999V0203601N000519999999N9999999N1-00901-01661999999ADDMA1999999083721MD1110241+9999ME1314809OA149900101REMSYN076AAXX  15094 06784 33/// /3601 11090 21166 38372 48480 51024 333 91102 91201;
0137067840999992010011510004+46817+009850FM-12+159099999V0200401N000519999999N9999999N1-00641-01581999999ADDMA1999999083781MD1110211+9999ME1314849OA149900101REMSYN076AAXX  15104 06784 33/// /0401 11064 21158 38378 48484 51021 333 91102 91201;
0137067840999992010011511004+46817+009850FM-12+159099999V0200601N000519999999N9999999N1-00331-01521999999ADDMA1999999083781MD1110101+9999ME1314839OA149900151REMSYN076AAXX  15114 06784 33/// /0601 11033 21152 38378 48483 51010 333 91103 91202;
0137067840999992010011512004+46817+009850FM-12+159099999V0200301N000519999999N9999999N1-00191-01581999999ADDMA1999999083791MD1210071+9999ME1314849OA149900151REMSYN076AAXX  15124 06784 33/// /0301 11019 21158 38379 48484 52007 333 91103 91203;
0137067840999992010011513004+46817+009850FM-12+159099999V0200401N001519999999N9999999N1-00151-01211999999ADDMA1999999083811MD1210031+9999ME1314849OA149900261REMSYN076AAXX  15134 06784 33/// /0403 11015 21121 38381 48484 52003 333 91105 91203;
0137067840999992010011514004+46817+009850FM-12+159099999V0203601N004119999999N9999999N1-00021-01231999999ADDMA1999999083881MD1210101+9999ME1314899OA149900571REMSYN076AAXX  15144 06784 33/// /3608 11002 21123 38388 48489 52010 333 91111 91209;
0137067840999992010011515004+46817+009850FM-12+159099999V0200401N002619999999N9999999N1-00221-01031999999ADDMA1999999083991MD1210201+9999ME1315009OA149900621REMSYN076AAXX  15154 06784 33/// /0405 11022 21103 38399 48500 52020 333 91112 91209;
0137067840999992010011516004+46817+009850FM-12+159099999V0200101N000519999999N9999999N1-00341-01511999999ADDMA1999999084051MD1210241+9999ME1315089OA149900621REMSYN076AAXX  15164 06784 33/// /0101 11034 21151 38405 48508 52024 333 91112 91208;
0137067840999992010011517004+46817+009850FM-12+159099999V0200301N001019999999N9999999N1-00441-01391999999ADDMA1999999084111MD1110231+9999ME1315139OA149900461REMSYN076AAXX  15174 06784 33/// /0302 11044 21139 38411 48513 51023 333 91109 91205;
0156067840999992010011518004+46817+009850FM-12+159099999V0209999C000019999999N9999999N1-00561-01301999999ADDKA1120M+00001MA1999999084171MD1210181+9999ME1315199OA149900621REMSYN082AAXX  15184 06784 33/// /0000 11056 21130 38417 48519 52018 333 10000 91112 91209;
0137067840999992010011519004+46817+009850FM-12+159099999V0209999C000019999999N9999999N1-00671-01371999999ADDMA1999999084191MD1210141+9999ME1315219OA149900151REMSYN076AAXX  15194 06784 33/// /0000 11067 21137 38419 48521 52014 333 91103 91201;
0137067840999992010011520004+46817+009850FM-12+159099999V0209999C000019999999N9999999N1-00681-01401999999ADDMA1999999084191MD1210081+9999ME1315219OA149900151REMSYN076AAXX  15204 06784 33/// /0000 11068 21140 38419 48521 52008 333 91103 91201;
0137067840999992010011521004+46817+009850FM-12+159099999V0209999C000019999999N9999999N1-00741-01351999999ADDMA1999999084201MD1210031+9999ME1315239OA149900461REMSYN076AAXX  15214 06784 33/// /0000 11074 21135 38420 48523 52003 333 91109 91205;
0137067840999992010011522004+46817+009850FM-12+159099999V0209999C000019999999N9999999N1-00781-01411999999ADDMA1999999084211MD1210021+9999ME1315239OA149900101REMSYN076AAXX  15224 06784 33/// /0000 11078 21141 38421 48523 52002 333 91102 91201;
0137067840999992010011523004+46817+009850FM-12+159099999V0200301N000519999999N9999999N1-00821-01631999999ADDMA1999999084231MD1210041+9999ME1315269OA149900101REMSYN076AAXX  15234 06784 33/// /0301 11082 21163 38423 48526 52004 333 91102 91201;
0137067840999992010011600004+46817+009850FM-12+159099999V0209999C000019999999N9999999N1-00981-01481999999ADDMA1999999084211MD1010011+9999ME1315249OA149900621REMSYN076AAXX  16004 06784 33/// /0000 11098 21148 38421 48524 50001 333 91112 91209;
0137067840999992010011601004+46817+009850FM-12+159099999V0201801N000519999999N9999999N1-00841-01681999999ADDMA1999999084211MD1010001+9999ME1315249OA149900101REMSYN076AAXX  16014 06784 33/// /1801 11084 21168 38421 48524 50000 333 91102 91201;
0137067840999992010011602004+46817+009850FM-12+159099999V0201901N000519999999N9999999N1-00921-01901999999ADDMA1999999084171MD1710061+9999ME1315219OA149900151REMSYN076AAXX  16024 06784 33/// /1901 11092 21190 38417 48521 57006 333 91103 91202;
0137067840999992010011603004+46817+009850FM-12+159099999V0209999C000019999999N9999999N1-01081-01541999999ADDMA1999999084161MD1719999+9999ME1315209OA149900151REMSYN076AAXX  16034 06784 33/// /0000 11108 21154 38416 48520 57/// 333 91103 91202;
0137067840999992010011604004+46817+009850FM-12+159099999V0209999C000019999999N9999999N1-00901-02352999999ADDMA1999999084131MD1710081+9999ME1315189OA149900101REMSYN076AAXX  16044 06784 33/// /0000 11090 21235 38413 48518 57008 333 91102 91201;
0137067840999992010011605004+46817+009850FM-12+159099999V0200701N000519999999N9999999N1-00941-01891999999ADDMA1999999084131MD1710041+9999ME1315189OA149900101REMSYN076AAXX  16054 06784 33/// /0701 11094 21189 38413 48518 57004 333 91102 91201;
0234067840999992010011606004+46817+009850FM-12+159099999V0200101N000519999999N9999999N1-00981-01891999999ADDAA124000091AL19900091GJ103909IA2999-01509KA1999N-01081MA1999999084131MD1510031+9999ME1315189OA149900151REMSYN100AAXX  16064 06784 33/// /0101 11098 21189 38413 48518 55003 333 21108 3/115 55065 70000 91103 91202;EQDQ01  00002PRCP24
0137067840999992010011607004+46817+009850FM-12+159099999V0201901N000519999999N9999999N1-00911-02131999999ADDMA1999999084101MD1810031+9999ME1315159OA149900101REMSYN076AAXX  16074 06784 33/// /1901 11091 21213 38410 48515 58003 333 91102 91201;
0137067840999992010011608004+46817+009850FM-12+159099999V0209999C000019999999N9999999N1-00831-02461999999ADDMA1999999084071MD1610061+9999ME1315139OA149900151REMSYN076AAXX  16084 06784 33/// /0000 11083 21246 38407 48513 56006 333 91103 91202;
0137067840999992010011609004+46817+009850FM-12+159099999V0200301N000519999999N9999999N1-00711-02191999999ADDMA1999999084071MD1710061+9999ME1315129OA149900151REMSYN076AAXX  16094 06784 33/// /0301 11071 21219 38407 48512 57006 333 91103 91202;
0137067840999992010011610004+46817+009850FM-12+159099999V0200301N000519999999N9999999N1-00691-01891999999ADDMA1999999084021MD1710081+9999ME1315079OA149900101REMSYN076AAXX  16104 06784 33/// /0301 11069 21189 38402 48507 57008 333 91102 91201;
0137067840999992010011611004+46817+009850FM-12+159099999V0209999C000019999999N9999999N1-00401-01931999999ADDMA1999999083981MD1710091+9999ME1315039OA149900101REMSYN076AAXX  16114 06784 33/// /0000 11040 21193 38398 48503 57009 333 91102 91201;
0137067840999992010011612004+46817+009850FM-12+159099999V0201701N001019999999N9999999N1-00201-01421999999ADDMA1999999083901MD1810171+9999ME1314949OA149900211REMSYN076AAXX  16124 06784 33/// /1702 11020 21142 38390 48494 58017 333 91104 91202;
0137067840999992010011613004+46817+009850FM-12+159099999V0201701N001519999999N9999999N1-00041-01171999999ADDMA1999999083871MD1610151+9999ME1314899OA149900261REMSYN076AAXX  16134 06784 33/// /1703 11004 21117 38387 48489 56015 333 91105 91203;
0137067840999992010011614004+46817+009850FM-12+159099999V0202101N002619999999N9999999N1+00111-01861999999ADDMA1999999083861MD1619999+9999ME1314889OA149900311REMSYN076AAXX  16144 06784 33/// /2105 10011 21186 38386 48488 56/// 333 91106 91205;
0137067840999992010011615004+46817+009850FM-12+159099999V0202201N002619999999N9999999N1-00041-01791999999ADDMA1999999083841MD1710061+9999ME1314869OA149900461REMSYN076AAXX  16154 06784 33/// /2205 11004 21179 38384 48486 57006 333 91109 91205;
0137067840999992010011616004+46817+009850FM-12+159099999V0202301N002119999999N9999999N1-00131-01401999999ADDMA1999999083801MD1710071+9999ME1314839OA149900461REMSYN076AAXX  16164 06784 33/// /2304 11013 21140 38380 48483 57007 333 91109 91206;
0137067840999992010011617004+46817+009850FM-12+159099999V0209999C000019999999N9999999N1-00271-01191999999ADDMA1999999083831MD1510031+9999ME1314869OA149900461REMSYN076AAXX  16174 06784 33/// /0000 11027 21119 38383 48486 55003 333 91109 91206;
0156067840999992010011618004+46817+009850FM-12+159099999V0202201N003119999999N9999999N1-00241-01021999999ADDKA1120M+00111MA1999999083791MD1710051+9999ME1314829OA149900461REMSYN082AAXX  16184 06784 33/// /2206 11024 21102 38379 48482 57005 333 10011 91109 91206;
0137067840999992010011619004+46817+009850FM-12+159099999V0202201N002119999999N9999999N1-00151-01311999999ADDMA1999999083781MD1710021+9999ME1314819OA149900411REMSYN076AAXX  16194 06784 33/// /2204 11015 21131 38378 48481 57002 333 91108 91207;
0137067840999992010011620004+46817+009850FM-12+159099999V0202101N003119999999N9999999N1-00211-01061999999ADDMA1999999083711MD1710121+9999ME1314749OA149900461REMSYN076AAXX  16204 06784 33/// /2106 11021 21106 38371 48474 57012 333 91109 91207;
0137067840999992010011621004+46817+009850FM-12+159099999V0202101N001519999999N9999999N1-00161-01171999999ADDMA1999999083671MD1710121+9999ME1314709OA149900511REMSYN076AAXX  16214 06784 33/// /2103 11016 21117 38367 48470 57012 333 91110 91207;
0137067840999992010011622004+46817+009850FM-12+159099999V0200201N000519999999N9999999N1-00131-01261999999ADDMA1999999083611MD1810171+9999ME1314659OA149900511REMSYN076AAXX  16224 06784 33/// /0201 11013 21126 38361 48465 58017 333 91110 91207;
0137067840999992010011623004+46817+009850FM-12+159099999V0202301N001519999999N9999999N1-00211-00931999999ADDMA1999999083601MD1710111+9999ME1314649OA149900311REMSYN076AAXX  16234 06784 33/// /2303 11021 21093 38360 48464 57011 333 91106 91204;
0137067840999992010011700004+46817+009850FM-12+159099999V0203601N000519999999N9999999N1-00151-00991999999ADDMA1999999083601MD1710071+9999ME1314639OA149900511REMSYN076AAXX  17004 06784 33/// /3601 11015 21099 38360 48463 57007 333 91110 91207;
0137067840999992010011701004+46817+009850FM-12+159099999V0201001N002119999999N9999999N1-00081-00671999999ADDMA1999999083741MD1310131+9999ME1314769OA149900511REMSYN076AAXX  17014 06784 33/// /1004 11008 21067 38374 48476 53013 333 91110 91204;
0154067840999992010011702004+46817+009850FM-12+159099999V0209999C000019999999N9999999N1-00291-00361999999ADDAA101000021MA1999999083771MD1219999+9999ME1314809OA149900621REMSYN082AAXX  17024 06784 23/// /0000 11029 21036 38377 48480 52/// 333 69925 91112 91205;
0096067840999992010011703004+46817+009850FM-12+159099999V0201901N002119999999N9999999N1-00261-00381999999ADDMA1999999083701ME1314739REMSYN060AAXX  17034 06784 43/// /1904 11026 21038 38370 48473 5////;
0137067840999992010011704004+46817+009850FM-12+159099999V0202101N001519999999N9999999N1-00291-00601999999ADDMA1999999083661MD1710081+9999ME1314709OA149900361REMSYN076AAXX  17044 06784 33/// /2103 11029 21060 38366 48470 57008 333 91107 91205;
0137067840999992010011705004+46817+009850FM-12+159099999V0202001N001519999999N9999999N1-00371-00711999999ADDMA1999999083621MD1719999+9999ME1314669OA149900361REMSYN076AAXX  17054 06784 33/// /2003 11037 21071 38362 48466 57/// 333 91107 91205;
0257067840999992010011706004+46817+009850FM-12+159099999V0200701N001019999999N9999999N1-00511-00811999999ADDAA112000091AA224000391AL11200091GJ103309IA2999-00709KA1999N-00551MA1999999083651MD1510051+9999ME1314709OA149900621REMSYN112AAXX  17064 06784 03/// /0702 11051 21081 38365 48470 55005 69922 333 21055 3/107 55055 60005 70002 91112 91207;EQDQ01  00002PRCP12
0137067840999992010011707004+46817+009850FM-12+159099999V0202001N001519999999N9999999N1-00521-00721999999ADDMA1999999083651MD1510011+9999ME1314709OA149900311REMSYN076AAXX  17074 06784 33/// /2003 11052 21072 38365 48470 55001 333 91106 91204;
0137067840999992010011708004+46817+009850FM-12+159099999V0209999C000019999999N9999999N1-00541-00971999999ADDMA1999999083701MD1219999+9999ME1314769OA149900261REMSYN076AAXX  17084 06784 33/// /0000 11054 21097 38370 48476 52/// 333 91105 91203;
0137067840999992010011709004+46817+009850FM-12+159099999V0203501N000519999999N9999999N1-00521-00851999999ADDMA1999999083721MD1210071+9999ME1314779OA149900361REMSYN076AAXX  17094 06784 33/// /3501 11052 21085 38372 48477 52007 333 91107 91205;
0137067840999992010011710004+46817+009850FM-12+159099999V0209999C000019999999N9999999N1-00321-00691999999ADDMA1999999083741MD1210091+9999ME1314789OA149900151REMSYN076AAXX  17104 06784 33/// /0000 11032 21069 38374 48478 52009 333 91103 91202;
0137067840999992010011711004+46817+009850FM-12+159099999V0200101N001019999999N9999999N1-00121-00801999999ADDMA1999999083731MD1010031+9999ME1314769OA149900211REMSYN076AAXX  17114 06784 33/// /0102 11012 21080 38373 48476 50003 333 91104 91202;
0179067840999992010011712004+46817+009850FM-12+159099999V0200301N005119999999N9999999N1-00061-00341999999ADDAA106000091MA1999999083771MD1210051+9999ME1314799OA149900721REMSYN088AAXX  17124 06784 03/// /0310 11006 21034 38377 48479 52005 69911 333 69915 91114 91211;EQDQ01  00002PRCP06
0154067840999992010011713004+46817+009850FM-12+159099999V0200201N006219999999N9999999N1-00101-00211999999ADDAA101000021MA1999999083791MD1210051+9999ME1314819OA149900881REMSYN082AAXX  17134 06784 23/// /0212 11010 21021 38379 48481 52005 333 69925 91117 91212;
0154067840999992010011714004+46817+009850FM-12+159099999V0200301N007219999999N9999999N1+00001-00421999999ADDAA101000021MA1999999083871MD1319999+9999ME1314889OA149901291REMSYN082AAXX  17144 06784 23/// /0314 10000 21042 38387 48488 53/// 333 69915 91125 91214;
0137067840999992010011715004+46817+009850FM-12+159099999V0200301N006719999999N9999999N1-00131-00531999999ADDMA1999999083961MD1310191+9999ME1314979OA149901291REMSYN076AAXX  17154 06784 33/// /0313 11013 21053 38396 48497 53019 333 91125 91214;
0137067840999992010011716004+46817+009850FM-12+159099999V0200501N005119999999N9999999N1-00151-00451999999ADDMA1999999084011MD1110221+9999ME1315029OA149901081REMSYN076AAXX  17164 06784 33/// /0510 11015 21045 38401 48502 51022 333 91121 91213;
0137067840999992010011717004+46817+009850FM-12+159099999V0200401N005119999999N9999999N1-00151-00731999999ADDMA1999999084081MD1310211+9999ME1315099OA149901031REMSYN076AAXX  17174 06784 33/// /0410 11015 21073 38408 48509 53021 333 91120 91212;
0179067840999992010011718004+46817+009850FM-12+159099999V0200201N003619999999N9999999N1-00271-00491999999ADDAA112000591KA1120M+00021MA1999999084151MD1310191+9999ME1315169OA149901291REMSYN094AAXX  17184 06784 03/// /0207 11027 21049 38415 48516 53019 69942 333 10002 60005 91125 91214;
0137067840999992010011719004+46817+009850FM-12+159099999V0203401N003619999999N9999999N1-00291-00591999999ADDMA1999999084211MD1210201+9999ME1315219OA149901031REMSYN076AAXX  17194 06784 33/// /3407 11029 21059 38421 48521 52020 333 91120 91211;
