0176067860999992010010100004+46867+009533FM-12+055699999V0201901N002612200019N0140001N1+00291+00151099451ADDGA1021+018001061GF102991999999017501999999MA1999999092881MD1710151+9999OA149900461REMSYN082AAXX  01004 06786 32764 21905 10029 20015 39288 49945 57015 333 82656 91109 91206;
0128067860999992010010101004+46867+009533FM-12+055699999V0202301N001519999999N9999999N1+00201+00081099411ADDMA1999999092831MD1810151+9999OA149900411REMSYN076AAXX  01014 06786 33/// /2303 10020 20008 39283 49941 58015 333 91108 91206;
0128067860999992010010102004+46867+009533FM-12+055699999V0202201N001519999999N9999999N1+00191+00061099411ADDMA1999999092821MD1719999+9999OA149900361REMSYN076AAXX  01024 06786 33/// /2203 10019 20006 39282 49941 57/// 333 91107 91203;
0129067860999992010010103004+46867+009533FM-12+055699999V0202101N001512200019N0150001N1+00131+00011099351ADDGA1001+999999999GF100991001001999999001001MA1999999092751REMSYN060AAXX  01034 06786 42/65 02103 10013 20001 39275 49935 5////;
0087067860999992010010104004+46867+009533FM-12+055699999V0202201N002119999999N9999999N1+00161-00021099321ADDMA1999999092731REMSYN060AAXX  01044 06786 33/// /2204 10016 21002 39273 49932 5////;
0128067860999992010010105004+46867+009533FM-12+055699999V0202201N001519999999N9999999N1+00121-00051099281ADDMA1999999092691MD1710131+9999OA149900411REMSYN076AAXX  01054 06786 33/// /2203 10012 21005 39269 49928 57013 333 91108 91204;
0282067860999992010010106004+46867+009533FM-12+055699999V0202001N001510300019N0170001N1+00151-00041099261ADDAA124002391AL11200291AL29900091GA1061+030001031GF106991999999999999999999GJ100069IA1099IA2999-00209KA1999N+00101MA1999999092671MD1710081+9999OA149900411REMSYN118AAXX  01064 06786 32967 62003 10015 21004 39267 49926 57008 333 20010 31102 55001 70022 86360 90768 93100 91108 91206;
0128067860999992010010107004+46867+009533FM-12+055699999V0201201N000519999999N9999999N1+00011-00081099281ADDMA1999999092661MD1710071+9999OA149900311REMSYN076AAXX  01074 06786 33/// /1201 10001 21008 39266 49928 57007 333 91106 91204;
0128067860999992010010108004+46867+009533FM-12+055699999V0201801N002119999999N9999999N1+00151-00061099291ADDMA1999999092701MD1310011+9999OA149900261REMSYN076AAXX  01084 06786 33/// /1804 10015 21006 39270 49929 53001 333 91105 91204;
0198067860999992010010109004+46867+009533FM-12+055699999V0201901N002110600019N0300001N1+00191-00071099311ADDGA1041+033001011GA2061+060001001GF106991999999999999999999MA1999999092731MD1210061+9999OA149900411REMSYN088AAXX  01094 06786 32980 61904 10019 21007 39273 49931 52006 333 84161 86070 91108 91205;
0128067860999992010010110004+46867+009533FM-12+055699999V0202301N000519999999N9999999N1+00301-00081099301ADDMA1999999092751MD1210091+9999OA149900411REMSYN076AAXX  01104 06786 33/// /2301 10030 21008 39275 49930 52009 333 91108 91205;
0128067860999992010010111004+46867+009533FM-12+055699999V0202301N001019999999N9999999N1+00401-00031099211ADDMA1999999092691MD1810011+9999OA149900411REMSYN076AAXX  01114 06786 33/// /2302 10040 21003 39269 49921 58001 333 91108 91205;
0128067860999992010010112004+46867+009533FM-12+055699999V0201901N002119999999N9999999N1+00511+00001099141ADDMA1999999092651MD1710081+9999OA149900411REMSYN076AAXX  01124 06786 33/// /1904 10051 20000 39265 49914 57008 333 91108 91205;
0128067860999992010010113004+46867+009533FM-12+055699999V0200201N001519999999N9999999N1+00561+00071099171ADDMA1999999092691MD1510061+9999OA149900361REMSYN076AAXX  01134 06786 33/// /0203 10056 20007 39269 49917 55006 333 91107 91204;
0128067860999992010010114004+46867+009533FM-12+055699999V0200301N002119999999N9999999N1+00571+00041099251ADDMA1999999092761MD1319999+9999OA149900511REMSYN076AAXX  01144 06786 33/// /0304 10057 20004 39276 49925 53/// 333 91110 91206;
0198067860999992010010115004+46867+009533FM-12+055699999V0200601N001510210019N0250001N1+00541+00061099351ADDGA1071+021001061GA2081+030001041GF108991999999022501999999MA1999999092851MD1310201+9999OA149900511REMSYN088AAXX  01154 06786 32875 80603 10054 20006 39285 49935 53020 333 87657 88460 91110 91206;
0128067860999992010010116004+46867+009533FM-12+055699999V0200601N003619999999N9999999N1+00461+00101099461ADDMA1999999092931MD1210241+9999OA149900571REMSYN076AAXX  01164 06786 33/// /0607 10046 20010 39293 49946 52024 333 91111 91207;
0128067860999992010010117004+46867+009533FM-12+055699999V0200701N002119999999N9999999N1+00421+00221099581ADDMA1999999093041MD1310281+9999OA149900671REMSYN076AAXX  01174 06786 33/// /0704 10042 20022 39304 49958 53028 333 91113 91207;
0280067860999992010010118004+46867+009533FM-12+055699999V0200401N001010021019N0040001N1+00401+00261099711ADDAA112000391AL19900091AY161061AY251061GA1081+002101071GF108991999999002501999999IA1119KA1120M+00571MA1999999093151MD1210301+9999MW1581OA149900671REMSYN124AAXX  01184 06786 01340 80402 10040 20026 39315 49971 52030 69932 75865 333 10057 32/// 69935 88707 90766 93100 91113 91207;
0145067860999992010010119004+46867+009533FM-12+055699999V0200301N001519999999N9999999N1+00371+00251099831ADDAA101001091MA1999999093261MD1210331+9999OA149900411REMSYN082AAXX  01194 06786 23/// /0303 10037 20025 39326 49983 52033 333 60015 91108 91204;
0145067860999992010010120004+46867+009533FM-12+055699999V0202401N000519999999N9999999N1+00361+00231099971ADDAA101000591MA1999999093391MD1210351+9999OA149900461REMSYN082AAXX  01204 06786 23/// /2401 10036 20023 39339 49997 52035 333 69945 91109 91203;
0221067860999992010010121004+46867+009533FM-12+055699999V0200201N004110042019N0070001N1+00401+00081100081ADDAA101000021AY161031AY251031GA1081+004201071GF108991999999004501999999MA1999999093501MD1210351+9999MW1101OA149900771REMSYN094AAXX  01214 06786 21457 80208 10040 20008 39350 40008 52035 71065 333 69915 88714 91115 91208;
0128067860999992010010122004+46867+009533FM-12+055699999V0200201N004119999999N9999999N1+00431-00031100211ADDMA1999999093631MD1210371+9999OA149901081REMSYN076AAXX  01224 06786 33/// /0208 10043 21003 39363 40021 52037 333 91121 91209;
0128067860999992010010123004+46867+009533FM-12+055699999V0200201N002619999999N9999999N1+00361-00081100321ADDMA1999999093711MD1110321+9999OA149901081REMSYN076AAXX  01234 06786 33/// /0205 10036 21008 39371 40032 51032 333 91121 91210;
0227067860999992010010200004+46867+009533FM-12+055699999V0200301N004110051019N0080001N1+00381-00171100391ADDAA106002091AY161061AY251061GA1081+005101071GF108991999999004501999999MA1999999093781MD1110281+9999MW1101OA149901081REMSYN100AAXX  02004 06786 01458 80308 10038 21017 39378 40039 51028 60021 71065 333 60005 88717 91121 91210;
0128067860999992010010201004+46867+009533FM-12+055699999V0200301N005119999999N9999999N1+00321-00201100491ADDMA1999999093861MD1210231+9999OA149900981REMSYN076AAXX  02014 06786 33/// /0310 10032 21020 39386 40049 52023 333 91119 91210;
0087067860999992010010202004+46867+009533FM-12+055699999V0200501N006219999999N9999999N1+00241-00291100641ADDMA1999999093981REMSYN060AAXX  02024 06786 33/// /0512 10024 21029 39398 40064 5////;
0204067860999992010010203004+46867+009533FM-12+055699999V0200501N006210123019N0160001N1+00181-00531100781ADDAY171031AY261031GA1081+012301071GF108991999999012501999999MA1999999094101MD1310321+9999MW1701OA149901491REMSYN088AAXX  02034 06786 31666 80512 10018 21053 39410 40078 53032 77076 333 88741 91129 91217;
0128067860999992010010204004+46867+009533FM-12+055699999V0200401N007219999999N9999999N1+00121-00621100921ADDMA1999999094221MD1210361+9999OA149901491REMSYN076AAXX  02044 06786 33/// /0414 10012 21062 39422 40092 52036 333 91129 91217;
0128067860999992010010205004+46867+009533FM-12+055699999V0200501N006219999999N9999999N1+00081-00711101021ADDMA1999999094301MD1110321+9999OA149901391REMSYN076AAXX  02054 06786 33/// /0512 10008 21071 39430 40102 51032 333 91127 91215;
0305067860999992010010206004+46867+009533FM-12+055699999V0200401N007712200019N0250001N1-00011-00741101161ADDAA112002092AA224001892AL14800191AL29900091GA1041+033001031GF104991999999999999999999GJ100669IA1149IA2999-00109KA1999N+00011MA1999999094411MD1210311+9999OA149901751REMSYN130AAXX  02064 06786 02975 40415 11001 21074 39441 40116 52031 60022 333 20001 34101 55011 60005 70019 84361 90768 93100 91134 91217;
0128067860999992010010207004+46867+009533FM-12+055699999V0200401N007219999999N9999999N1-00011-00781101281ADDMA1999999094521MD1310301+9999OA149901751REMSYN076AAXX  02074 06786 33/// /0414 11001 21078 39452 40128 53030 333 91134 91215;
0087067860999992010010208004+46867+009533FM-12+055699999V0200301N007219999999N9999999N1-00061-00681101391ADDMA1999999094611REMSYN060AAXX  02084 06786 33/// /0314 11006 21068 39461 40139 5////;
0226067860999992010010209004+46867+009533FM-12+055699999V0200301N005110141019N0040001N1-00121-00541101501ADDAY111031AY211031GA1021+000301071GA2041+014101031GF106991999999000251999999MA1999999094701MD1110291+9999MW1101OA149901751REMSYN094AAXX  02094 06786 31040 60310 11012 21054 39470 40150 51029 71011 333 82701 84347 91134 91215;
0128067860999992010010210004+46867+009533FM-12+055699999V0200401N007219999999N9999999N1-00061-00691101581ADDMA1999999094791MD1210271+9999OA149901391REMSYN076AAXX  02104 06786 33/// /0414 11006 21069 39479 40158 52027 333 91127 91214;
0128067860999992010010211004+46867+009533FM-12+055699999V0200501N007219999999N9999999N1-00081-00741101641ADDMA1999999094841MD1110231+9999OA149901441REMSYN076AAXX  02114 06786 33/// /0514 11008 21074 39484 40164 51023 333 91128 91215;
0198067860999992010010212004+46867+009533FM-12+055699999V0200401N006719999999N0250001N1+00031-00871101691ADDGA1031+006301081GA2071+006301061GF107991999999008001999999MA1999999094911MD1310211+9999OA149901751REMSYN088AAXX  02124 06786 32575 70413 10003 21087 39491 40169 53021 333 83821 87621 91134 91217;
0128067860999992010010213004+46867+009533FM-12+055699999V0200401N007219999999N9999999N1-00061-00861101821ADDMA1999999095011MD1310221+9999OA149901391REMSYN076AAXX  02134 06786 33/// /0414 11006 21086 39501 40182 53022 333 91127 91215;
0128067860999992010010214004+46867+009533FM-12+055699999V0200501N007219999999N9999999N1-00051-00781101901ADDMA1999999095091MD1219999+9999OA149901391REMSYN076AAXX  02144 06786 33/// /0514 11005 21078 39509 40190 52/// 333 91127 91215;
0176067860999992010010215004+46867+009533FM-12+055699999V0200501N005119999999N0250001N1-00141-00801102051ADDGA1031+005101081GF106991999999004501999999MA1999999095211MD1310301+9999OA149901441REMSYN082AAXX  02154 06786 32475 60510 11014 21080 39521 40205 53030 333 83817 91128 91215;
0128067860999992010010216004+46867+009533FM-12+055699999V0200701N006219999999N9999999N1-00151-00941102141ADDMA1999999095291MD1210281+9999OA149901131REMSYN076AAXX  02164 06786 33/// /0712 11015 21094 39529 40214 52028 333 91122 91212;
0128067860999992010010217004+46867+009533FM-12+055699999V0200501N003119999999N9999999N1-00171-01001102241ADDMA1999999095381MD1210291+9999OA149901131REMSYN076AAXX  02174 06786 33/// /0506 11017 21100 39538 40224 52029 333 91122 91212;
0229067860999992010010218004+46867+009533FM-12+055699999V0200601N004612200019N0180001N1-00161-01121102281ADDAL19900091GA1031+021001031GF103991999999022501999999IA1019KA1120M+00031MA1999999095421MD1210211+9999OA149901651REMSYN106AAXX  02184 06786 32868 30609 11016 21112 39542 40228 52021 333 10003 30/// 83357 90766 93100 91132 91215;
0128067860999992010010219004+46867+009533FM-12+055699999V0200601N003619999999N9999999N1-00191-01071102341ADDMA1999999095471MD1210181+9999OA149900981REMSYN076AAXX  02194 06786 33/// /0607 11019 21107 39547 40234 52018 333 91119 91210;
0128067860999992010010220004+46867+009533FM-12+055699999V0200201N002119999999N9999999N1-00231-00951102391ADDMA1999999095501MD1210121+9999OA149900981REMSYN076AAXX  02204 06786 33/// /0204 11023 21095 39550 40239 52012 333 91119 91210;
0176067860999992010010221004+46867+009533FM-12+055699999V0200401N001512200019N0250001N1-00311-00921102431ADDGA1011+024001031GF101991999999022501999999MA1999999095521MD1210101+9999OA149901131REMSYN082AAXX  02214 06786 32875 10403 11031 21092 39552 40243 52010 333 81358 91122 91212;
0128067860999992010010222004+46867+009533FM-12+055699999V0200801N001019999999N9999999N1-00341-00911102481ADDMA1999999095561MD1210091+9999OA149900461REMSYN076AAXX  02224 06786 33/// /0802 11034 21091 39556 40248 52009 333 91109 91206;
0128067860999992010010223004+46867+009533FM-12+055699999V0203501N000519999999N9999999N1-00451-00881102541ADDMA1999999095591MD1310091+9999OA149900361REMSYN076AAXX  02234 06786 33/// /3501 11045 21088 39559 40254 53009 333 91107 91205;
0176067860999992010010300004+46867+009533FM-12+055699999V0200501N000512200019N0200001N1-00521-00891102591ADDGA1011+033001031GF101991999999999999999999MA1999999095621MD1110101+9999OA149901391REMSYN082AAXX  03004 06786 32970 10501 11052 21089 39562 40259 51010 333 81361 91127 91215;
0128067860999992010010301004+46867+009533FM-12+055699999V0209999C000019999999N9999999N1-00571-00961102631ADDMA1999999095641MD1210081+9999OA149900151REMSYN076AAXX  03014 06786 33/// /0000 11057 21096 39564 40263 52008 333 91103 91201;
0087067860999992010010302004+46867+009533FM-12+055699999V0202001N002119999999N9999999N1-00551-01151102661ADDMA1999999095671REMSYN060AAXX  03024 06786 33/// /2004 11055 21115 39567 40266 5////;
0139067860999992010010303004+46867+009533FM-12+055699999V0202201N001512200019N0200001N1-00581-01201102691ADDGA1011+033001031GF101991999999999999999999MA1999999095691REMSYN070AAXX  03034 06786 32970 12203 11058 21120 39569 40269 5//// 333 81361;
0128067860999992010010304004+46867+009533FM-12+055699999V0202101N001519999999N9999999N1-00591-01101102681ADDMA1999999095681MD1010041+9999OA149900621REMSYN076AAXX  03044 06786 33/// /2103 11059 21110 39568 40268 50004 333 91112 91206;
0128067860999992010010305004+46867+009533FM-12+055699999V0201901N003619999999N9999999N1-00581-01331102701ADDMA1999999095701MD1219999+9999OA149900571REMSYN076AAXX  03054 06786 33/// /1907 11058 21133 39570 40270 52/// 333 91111 91207;
0291067860999992010010306004+46867+009533FM-12+055699999V0201901N003612200019N0300001N1-00611-01381102651ADDAA124000091AL19900091GA1011+063001001GF101991999999999999999999GJ101209IA1149IA2999-00909KA1999N-00631MA1999999095651MD1710041+9999OA149900981REMSYN118AAXX  03064 06786 32980 11907 11061 21138 39565 40265 57004 333 21063 34109 55020 70000 81071 90768 93100 91119 91210;EQDQ01  00002PRCP24
0128067860999992010010307004+46867+009533FM-12+055699999V0202001N004119999999N9999999N1-00591-01271102641ADDMA1999999095641MD1810041+9999OA149900771REMSYN076AAXX  03074 06786 33/// /2008 11059 21127 39564 40264 58004 333 91115 91208;
0128067860999992010010308004+46867+009533FM-12+055699999V0202001N001519999999N9999999N1-00601-01441102691ADDMA1999999095691MD1519999+9999OA149900771REMSYN076AAXX  03084 06786 33/// /2003 11060 21144 39569 40269 55/// 333 91115 91208;
0176067860999992010010309004+46867+009533FM-12+055699999V0202001N003112200019N0300001N1-00571-01321102691ADDGA1011+075001001GF101991999999999999999999MA1999999095701MD1210051+9999OA149900771REMSYN082AAXX  03094 06786 32980 12006 11057 21132 39570 40269 52005 333 81075 91115 91208;
0128067860999992010010310004+46867+009533FM-12+055699999V0201901N004119999999N9999999N1-00391-01361102611ADDMA1999999095671MD1010031+9999OA149900821REMSYN076AAXX  03104 06786 33/// /1908 11039 21136 39567 40261 50003 333 91116 91210;
0128067860999992010010311004+46867+009533FM-12+055699999V0201801N004119999999N9999999N1-00261-01411102431ADDMA1999999095531MD1710161+9999OA149900821REMSYN076AAXX  03114 06786 33/// /1808 11026 21141 39553 40243 57016 333 91116 91210;
0170067860999992010010312004+46867+009533FM-12+055699999V0201801N002112200019N0300001N1-00141-01431102281ADDGA1001+999999999GF100991001001999999001001MA1999999095421MD1710281+9999OA149900821REMSYN076AAXX  03124 06786 32/80 01804 11014 21143 39542 40228 57028 333 91116 91210;
0128067860999992010010313004+46867+009533FM-12+055699999V0201801N003119999999N9999999N1-00051-01551102171ADDMA1999999095341MD1610331+9999OA149900671REMSYN076AAXX  03134 06786 33/// /1806 11005 21155 39534 40217 56033 333 91113 91207;
0128067860999992010010314004+46867+009533FM-12+055699999V0201701N002619999999N9999999N1+00001-01491102091ADDMA1999999095281MD1610251+9999OA149900671REMSYN076AAXX  03144 06786 33/// /1705 10000 21149 39528 40209 56025 333 91113 91207;
0170067860999992010010315004+46867+009533FM-12+055699999V0201801N002112200019N0400001N1-00141-01311102161ADDGA1001+999999999GF100991001001999999001001MA1999999095311MD1510111+9999OA149900821REMSYN076AAXX  03154 06786 32/82 01804 11014 21131 39531 40216 55011 333 91116 91210;
0128067860999992010010316004+46867+009533FM-12+055699999V0201801N001519999999N9999999N1-00251-01281102211ADDMA1999999095331MD1510011+9999OA149900461REMSYN076AAXX  03164 06786 33/// /1803 11025 21128 39533 40221 55001 333 91109 91205;
0128067860999992010010317004+46867+009533FM-12+055699999V0202501N000519999999N9999999N1-00381-01051102231ADDMA1999999095321MD1210041+9999OA149900411REMSYN076AAXX  03174 06786 33/// /2501 11038 21105 39532 40223 52004 333 91108 91205;
0223067860999992010010318004+46867+009533FM-12+055699999V0209999C000012200019N0400001N1-00421-01141102281ADDAL19900091GA1001+999999999GF100991001001999999001001IA1149KA1120M+00011MA1999999095351MD1210041+9999OA149900821REMSYN100AAXX  03184 06786 32/82 00000 11042 21114 39535 40228 52004 333 10001 34/// 90766 93100 91116 91210;
0128067860999992010010319004+46867+009533FM-12+055699999V0202401N000519999999N9999999N1-00561-01071102361ADDMA1999999095391MD1210061+9999OA149900151REMSYN076AAXX  03194 06786 33/// /2401 11056 21107 39539 40236 52006 333 91103 91202;
0128067860999992010010320004+46867+009533FM-12+055699999V0202001N002619999999N9999999N1-00551-01161102301ADDMA1999999095341MD1010021+9999OA149900411REMSYN076AAXX  03204 06786 33/// /2005 11055 21116 39534 40230 50002 333 91108 91205;
0170067860999992010010321004+46867+009533FM-12+055699999V0202001N001512200019N0400001N1-00611-01161102301ADDGA1001+999999999GF100991001001999999001001MA1999999095321MD1710031+9999OA149900411REMSYN076AAXX  03214 06786 32/82 02003 11061 21116 39532 40230 57003 333 91108 91205;
0128067860999992010010322004+46867+009533FM-12+055699999V0202301N002119999999N9999999N1-00591-01251102281ADDMA1999999095311MD1710081+9999OA149900461REMSYN076AAXX  03224 06786 33/// /2304 11059 21125 39531 40228 57008 333 91109 91205;
0128067860999992010010323004+46867+009533FM-12+055699999V0202001N002619999999N9999999N1-00551-01311102241ADDMA1999999095281MD1710061+9999OA149900511REMSYN076AAXX  03234 06786 33/// /2005 11055 21131 39528 40224 57006 333 91110 91205;
0170067860999992010010400004+46867+009533FM-12+055699999V0202001N003612200019N0400001N1-00551-01351102171ADDGA1001+999999999GF100991001001999999001001MA1999999095221MD1710101+9999OA149900721REMSYN076AAXX  04004 06786 32/82 02007 11055 21135 39522 40217 57010 333 91114 91208;
0128067860999992010010401004+46867+009533FM-12+055699999V0202101N003619999999N9999999N1-00551-01351102101ADDMA1999999095151MD1710161+9999OA149900881REMSYN076AAXX  04014 06786 33/// /2107 11055 21135 39515 40210 57016 333 91117 91209;
0128067860999992010010402004+46867+009533FM-12+055699999V0202001N002619999999N9999999N1-00571-01371102071ADDMA1999999095121MD1610161+9999OA149900881REMSYN076AAXX  04024 06786 33/// /2005 11057 21137 39512 40207 56016 333 91117 91209;
0176067860999992010010403004+46867+009533FM-12+055699999V0201901N004612200019N0200001N1-00471-01501101911ADDGA1041+039001031GF104991999999999999999999MA1999999094991MD1819999+9999OA149900931REMSYN082AAXX  04034 06786 32970 41909 11047 21150 39499 40191 58/// 333 84363 91118 91209;
0128067860999992010010404004+46867+009533FM-12+055699999V0202201N003619999999N9999999N1-00451-01401101841ADDMA1999999094931MD1710221+9999OA149900981REMSYN076AAXX  04044 06786 33/// /2207 11045 21140 39493 40184 57022 333 91119 91209;
0128067860999992010010405004+46867+009533FM-12+055699999V0202101N002619999999N9999999N1-00361-01481101751ADDMA1999999094871MD1710251+9999OA149901031REMSYN076AAXX  04054 06786 33/// /2105 11036 21148 39487 40175 57025 333 91120 91210;
0291067860999992010010406004+46867+009533FM-12+055699999V0202001N004612200019N0200001N1-00291-01461101701ADDAA124000091AL19900091GA1041+039001031GF104991999999999999999999GJ103429IA1149IA2999-00909KA1999N-00621MA1999999094841MD1710151+9999OA149901031REMSYN118AAXX  04064 06786 32970 42009 11029 21146 39484 40170 57015 333 21062 34109 55057 70000 84363 90768 93100 91120 91210;EQDQ01  00002PRCP24
0128067860999992010010407004+46867+009533FM-12+055699999V0202101N004119999999N9999999N1-00261-01431101671ADDMA1999999094821MD1710111+9999OA149900931REMSYN076AAXX  04074 06786 33/// /2108 11026 21143 39482 40167 57011 333 91118 91210;
0128067860999992010010408004+46867+009533FM-12+055699999V0202001N005119999999N9999999N1-00201-01451101621ADDMA1999999094791MD1610081+9999OA149900931REMSYN076AAXX  04084 06786 33/// /2010 11020 21145 39479 40162 56008 333 91118 91210;
0176067860999992010010409004+46867+009533FM-12+055699999V0202701N001010330019N0200001N1-00151-01301101611ADDGA1071+033001031GF107991999999999999999999MA1999999094791MD1710051+9999OA149901031REMSYN082AAXX  04094 06786 32970 72702 11015 21130 39479 40161 57005 333 87361 91120 91210;
0128067860999992010010410004+46867+009533FM-12+055699999V0200201N002619999999N9999999N1-00201-01061101621ADDMA1999999094791MD1510031+9999OA149900981REMSYN076AAXX  04104 06786 33/// /0205 11020 21106 39479 40162 55003 333 91119 91210;
0128067860999992010010411004+46867+009533FM-12+055699999V0200201N002619999999N9999999N1-00171-01031101551ADDMA1999999094731MD1810061+9999OA149900671REMSYN076AAXX  04114 06786 33/// /0205 11017 21103 39473 40155 58006 333 91113 91209;
0176067860999992010010412004+46867+009533FM-12+055699999V0200201N002610210019N0200001N1-00141-01051101421ADDGA1081+021001031GF108991999999022501999999MA1999999094621MD1710171+9999OA149901031REMSYN082AAXX  04124 06786 32870 80205 11014 21105 39462 40142 57017 333 88357 91120 91210;
0128067860999992010010413004+46867+009533FM-12+055699999V0200201N004119999999N9999999N1-00221-01001101401ADDMA1999999094581MD1610211+9999OA149900671REMSYN076AAXX  04134 06786 33/// /0208 11022 21100 39458 40140 56021 333 91113 91209;
0128067860999992010010414004+46867+009533FM-12+055699999V0200201N004619999999N9999999N1-00221-00781101391ADDMA1999999094571MD1719999+9999OA149900671REMSYN076AAXX  04144 06786 33/// /0209 11022 21078 39457 40139 57/// 333 91113 91209;
0176067860999992010010415004+46867+009533FM-12+055699999V0200301N003110210019N0150001N1-00251-00781101401ADDGA1081+021001031GF108991999999022501999999MA1999999094571MD1510051+9999OA149900671REMSYN082AAXX  04154 06786 32865 80306 11025 21078 39457 40140 55005 333 88357 91113 91209;
0128067860999992010010416004+46867+009533FM-12+055699999V0200301N002119999999N9999999N1-00251-00781101411ADDMA1999999094581MD1510001+9999OA149900671REMSYN076AAXX  04164 06786 33/// /0304 11025 21078 39458 40141 55000 333 91113 91209;
0128067860999992010010417004+46867+009533FM-12+055699999V0200301N001519999999N9999999N1-00301-00821101431ADDMA1999999094591MD1310021+9999OA149900511REMSYN076AAXX  04174 06786 33/// /0303 11030 21082 39459 40143 53002 333 91110 91206;
0257067860999992010010418004+46867+009533FM-12+055699999V0200301N001010021019N0120001N1-00271-00741101401ADDAL19900091AY121061AY221061GA1081+002101071GF108991999999002501999999IA1149KA1120M-00141MA1999999094571MD1010001+9999MW1101OA149900981REMSYN112AAXX  04184 06786 31362 80302 11027 21074 39457 40140 50000 71022 333 11014 34/// 88707 90766 93100 91119 91210;
0128067860999992010010419004+46867+009533FM-12+055699999V0200201N001519999999N9999999N1-00321-00801101411ADDMA1999999094571MD1710011+9999OA149900411REMSYN076AAXX  04194 06786 33/// /0203 11032 21080 39457 40141 57001 333 91108 91205;
0128067860999992010010420004+46867+009533FM-12+055699999V0200201N001019999999N9999999N1-00331-00741101401ADDMA1999999094551MD1710041+9999OA149900211REMSYN076AAXX  04204 06786 33/// /0202 11033 21074 39455 40140 57004 333 91104 91203;
0176067860999992010010421004+46867+009533FM-12+055699999V0200201N001010300019N0160001N1-00321-00711101391ADDGA1081+030001031GF108991999999999999999999MA1999999094551MD1710021+9999OA149900511REMSYN082AAXX  04214 06786 32966 80202 11032 21071 39455 40139 57002 333 88360 91110 91206;
0128067860999992010010422004+46867+009533FM-12+055699999V0200201N001019999999N9999999N1-00321-00691101341ADDMA1999999094501MD1710071+9999OA149900261REMSYN076AAXX  04224 06786 33/// /0202 11032 21069 39450 40134 57007 333 91105 91203;
0128067860999992010010423004+46867+009533FM-12+055699999V0201801N001519999999N9999999N1-00311-00711101281ADDMA1999999094451MD1710101+9999OA149900261REMSYN076AAXX  04234 06786 33/// /1803 11031 21071 39445 40128 57010 333 91105 91204;
0176067860999992010010500004+46867+009533FM-12+055699999V0201301N000510300019N0200001N1-00301-00721101191ADDGA1061+030001031GF106991999999999999999999MA1999999094371MD1710181+9999OA149900671REMSYN082AAXX  05004 06786 32970 61301 11030 21072 39437 40119 57018 333 86360 91113 91209;
0128067860999992010010501004+46867+009533FM-12+055699999V0200201N001519999999N9999999N1-00291-00621101151ADDMA1999999094331MD1610171+9999OA149900211REMSYN076AAXX  05014 06786 33/// /0203 11029 21062 39433 40115 56017 333 91104 91203;
0128067860999992010010502004+46867+009533FM-12+055699999V0200201N002619999999N9999999N1-00361-00681101121ADDMA1999999094291MD1710161+9999OA149900411REMSYN076AAXX  05024 06786 33/// /0205 11036 21068 39429 40112 57016 333 91108 91205;
0176067860999992010010503004+46867+009533FM-12+055699999V0200201N001510330019N0160001N1-00461-00751101121ADDGA1081+033001031GF108991999999999999999999MA1999999094261MD1710111+9999OA149900511REMSYN082AAXX  05034 06786 32966 80203 11046 21075 39426 40112 57011 333 88361 91110 91207;
0128067860999992010010504004+46867+009533FM-12+055699999V0200101N001519999999N9999999N1-00531-00801101121ADDMA1999999094241MD1710091+9999OA149900511REMSYN076AAXX  05044 06786 33/// /0103 11053 21080 39424 40112 57009 333 91110 91207;
0128067860999992010010505004+46867+009533FM-12+055699999V0201801N000519999999N9999999N1-00571-00771101061ADDMA1999999094181MD1710111+9999OA149900361REMSYN076AAXX  05054 06786 33/// /1801 11057 21077 39418 40106 57011 333 91107 91205;
0285067860999992010010506004+46867+009533FM-12+055699999V0203301N000512200019N0250001N1-00601-00761101011ADDAA124000091AL19900091GA1001+999999999GF100991001001999999001001GJ100009IA1149IA2999-00909KA1999N-00661MA1999999094121MD1810141+9999OA149900511REMSYN112AAXX  05064 06786 32/75 03301 11060 21076 39412 40101 58014 333 21066 34109 55000 70000 90768 93100 91110 91207;EQDQ01  00002PRCP24
0128067860999992010010507004+46867+009533FM-12+055699999V0202601N000519999999N9999999N1-00641-00811100961ADDMA1999999094071MD1610171+9999OA149900151REMSYN076AAXX  05074 06786 33/// /2601 11064 21081 39407 40096 56017 333 91103 91202;
0128067860999992010010508004+46867+009533FM-12+055699999V0209999C000019999999N9999999N1-00581-00791100921ADDMA1999999094041MD1610141+9999OA149900101REMSYN076AAXX  05084 06786 33/// /0000 11058 21079 39404 40092 56014 333 91102 91201;
0176067860999992010010509004+46867+009533FM-12+055699999V0201801N000512200019N0350001N1-00481-00751100861ADDGA1011+105001001GF101991999999999999999999MA1999999094011MD1610111+9999OA149900361REMSYN082AAXX  05094 06786 32981 11801 11048 21075 39401 40086 56011 333 81081 91107 91205;
0128067860999992010010510004+46867+009533FM-12+055699999V0201901N000519999999N9999999N1-00181-00801100721ADDMA1999999093961MD1810111+9999OA149900211REMSYN076AAXX  05104 06786 33/// /1901 11018 21080 39396 40072 58011 333 91104 91202;
0128067860999992010010511004+46867+009533FM-12+055699999V0202001N001019999999N9999999N1+00031-00851100531ADDMA1999999093831MD1810211+9999OA149900211REMSYN076AAXX  05114 06786 33/// /2002 10003 21085 39383 40053 58021 333 91104 91202;
0176067860999992010010512004+46867+009533FM-12+055699999V0200201N002111050019N0350001N1+00131-00631100401ADDGA1051+105001001GF105991999999999999999999MA1999999093731MD1810281+9999OA149900511REMSYN082AAXX  05124 06786 32981 50204 10013 21063 39373 40040 58028 333 85081 91110 91207;
0128067860999992010010513004+46867+009533FM-12+055699999V0200301N003619999999N9999999N1+00001-00651100331ADDMA1999999093641MD1610321+9999OA149900571REMSYN076AAXX  05134 06786 33/// /0307 10000 21065 39364 40033 56032 333 91111 91208;
0087067860999992010010514004+46867+009533FM-12+055699999V0200301N005119999999N9999999N1-00081-00691100321ADDMA1999999093611REMSYN060AAXX  05144 06786 33/// /0310 11008 21069 39361 40032 5////;
0198067860999992010010515004+46867+009533FM-12+055699999V0200301N004110450019N0180001N1-00221-00641100411ADDGA1051+045001031GA2051+120001001GF107991999999999999999999MA1999999093661MD1510071+9999OA149900881REMSYN088AAXX  05154 06786 32968 70308 11022 21064 39366 40041 55007 333 85365 85082 91117 91210;
0128067860999992010010516004+46867+009533FM-12+055699999V0200301N003119999999N9999999N1-00281-00601100431ADDMA1999999093661MD1210021+9999OA149900881REMSYN076AAXX  05164 06786 33/// /0306 11028 21060 39366 40043 52002 333 91117 91210;
0128067860999992010010517004+46867+009533FM-12+055699999V0200301N001519999999N9999999N1-00331-00611100451ADDMA1999999093671MD1210061+9999OA149900571REMSYN076AAXX  05174 06786 33/// /0303 11033 21061 39367 40045 52006 333 91111 91207;
0229067860999992010010518004+46867+009533FM-12+055699999V0209999C000010450019N0180001N1-00381-00641100421ADDAL19900091GA1081+045001031GF108991999999999999999999IA1149KA1120M+00161MA1999999093631MD1710031+9999OA149900881REMSYN106AAXX  05184 06786 32968 80000 11038 21064 39363 40042 57003 333 10016 34/// 88365 90766 93100 91117 91210;
0128067860999992010010519004+46867+009533FM-12+055699999V0202101N001019999999N9999999N1-00411-00641100391ADDMA1999999093591MD1710071+9999OA149900261REMSYN076AAXX  05194 06786 33/// /2102 11041 21064 39359 40039 57007 333 91105 91203;
0128067860999992010010520004+46867+009533FM-12+055699999V0202401N000519999999N9999999N1-00401-00641100331ADDMA1999999093541MD1810131+9999OA149900261REMSYN076AAXX  05204 06786 33/// /2401 11040 21064 39354 40033 58013 333 91105 91204;
0204067860999992010010521004+46867+009533FM-12+055699999V0200101N000512200019N0080001N1-00391-00621100311ADDAY111031AY211031GA1021+054001001GF102991999999999999999999MA1999999093521MD1610111+9999MW1051OA149900571REMSYN088AAXX  05214 06786 31958 20101 11039 21062 39352 40031 56011 70511 333 82068 91111 91207;
0128067860999992010010522004+46867+009533FM-12+055699999V0200201N002619999999N9999999N1-00441-00621100301ADDMA1999999093501MD1610091+9999OA149900411REMSYN076AAXX  05224 06786 33/// /0205 11044 21062 39350 40030 56009 333 91108 91205;
0128067860999992010010523004+46867+009533FM-12+055699999V0200201N002119999999N9999999N1-00491-00651100301ADDMA1999999093491MD1710051+9999OA149900411REMSYN076AAXX  05234 06786 33/// /0204 11049 21065 39349 40030 57005 333 91108 91205;
0170067860999992010010600004+46867+009533FM-12+055699999V0200301N001512200019N0060001N1-00491-00631100271ADDGA1001+999999999GF100991001001999999001001MA1999999093461MD1710061+9999OA149900881REMSYN076AAXX  06004 06786 32/56 00303 11049 21063 39346 40027 57006 333 91117 91210;
0128067860999992010010601004+46867+009533FM-12+055699999V0200301N002119999999N9999999N1-00511-00651100311ADDMA1999999093491MD1510011+9999OA149900511REMSYN076AAXX  06014 06786 33/// /0304 11051 21065 39349 40031 55001 333 91110 91205;
0128067860999992010010602004+46867+009533FM-12+055699999V0203601N000519999999N9999999N1-00521-00651100331ADDMA1999999093511MD1310021+9999OA149900511REMSYN076AAXX  06024 06786 33/// /3601 11052 21065 39351 40033 53002 333 91110 91205;
0204067860999992010010603004+46867+009533FM-12+055699999V0202001N001510021019N0040001N1-00521-00681100291ADDAY111031AY211031GA1061+002101071GF106991999999002501999999MA1999999093471MD1010011+9999MW1101OA149900511REMSYN088AAXX  06034 06786 31340 62003 11052 21068 39347 40029 50001 71011 333 86707 91110 91205;
0128067860999992010010604004+46867+009533FM-12+055699999V0201601N002619999999N9999999N1-00531-00681100251ADDMA1999999093431MD1710061+9999OA149900411REMSYN076AAXX  06044 06786 33/// /1605 11053 21068 39343 40025 57006 333 91108 91205;
0128067860999992010010605004+46867+009533FM-12+055699999V0202001N001519999999N9999999N1-00471-00691100221ADDMA1999999093421MD1610091+9999OA149900411REMSYN076AAXX  06054 06786 33/// /2003 11047 21069 39342 40022 56009 333 91108 91205;
0319067860999992010010606004+46867+009533FM-12+055699999V0200301N003110210019N0120001N1-00461-00641100251ADDAA124000091AL19900091AY111061AY211061GA1061+021001061GF106991999999022501999999GJ102949IA1149IA2999-00709KA1999N-00531MA1999999093451MD1510021+9999MW1101OA149900511REMSYN124AAXX  06064 06786 31862 60306 11046 21064 39345 40025 55002 71011 333 21053 34107 55049 70000 86657 90768 93100 91110 91207;EQDQ01  00002PRCP24
0128067860999992010010607004+46867+009533FM-12+055699999V0200301N001519999999N9999999N1-00441-00611100291ADDMA1999999093491MD1210061+9999OA149900461REMSYN076AAXX  06074 06786 33/// /0303 11044 21061 39349 40029 52006 333 91109 91207;
0128067860999992010010608004+46867+009533FM-12+055699999V0200201N001519999999N9999999N1-00421-00611100341ADDMA1999999093541MD1210121+9999OA149900361REMSYN076AAXX  06084 06786 33/// /0203 11042 21061 39354 40034 52012 333 91107 91204;
0204067860999992010010609004+46867+009533FM-12+055699999V0200401N000510210019N0040001N1-00351-00571100361ADDAY121031AY221031GA1061+021001031GF106991999999022501999999MA1999999093581MD1210131+9999MW1101OA149900461REMSYN088AAXX  06094 06786 31840 60401 11035 21057 39358 40036 52013 71022 333 86357 91109 91207;
0128067860999992010010610004+46867+009533FM-12+055699999V0203501N001019999999N9999999N1-00281-00521100411ADDMA1999999093641MD1210151+9999OA149900311REMSYN076AAXX  06104 06786 33/// /3502 11028 21052 39364 40041 52015 333 91106 91203;
0128067860999992010010611004+46867+009533FM-12+055699999V0200301N000519999999N9999999N1-00231-00471100361ADDMA1999999093611MD1019999+9999OA149900211REMSYN076AAXX  06114 06786 33/// /0301 11023 21047 39361 40036 50/// 333 91104 91202;
0128067860999992010010612004+46867+009533FM-12+055699999V0200401N002119999999N9999999N1-00151-00441100301ADDMA1999999093571MD1810011+9999OA149900511REMSYN076AAXX  06124 06786 33/// /0404 11015 21044 39357 40030 58001 333 91110 91207;
0128067860999992010010613004+46867+009533FM-12+055699999V0200501N002119999999N9999999N1-00111-00441100271ADDMA1999999093551MD1810091+9999OA149900411REMSYN076AAXX  06134 06786 33/// /0504 11011 21044 39355 40027 58009 333 91108 91205;
0128067860999992010010614004+46867+009533FM-12+055699999V0200401N002619999999N9999999N1-00131-00441100291ADDMA1999999093571MD1519999+9999OA149900511REMSYN076AAXX  06144 06786 33/// /0405 11013 21044 39357 40029 55/// 333 91110 91205;
0204067860999992010010615004+46867+009533FM-12+055699999V0200501N002610021019N0050001N1-00131-00451100331ADDAY121031AY221031GA1081+002101071GF108991999999002501999999MA1999999093611MD1319999+9999MW1101OA149900511REMSYN088AAXX  06154 06786 31350 80505 11013 21045 39361 40033 53/// 71022 333 88707 91110 91206;
0128067860999992010010616004+46867+009533FM-12+055699999V0200701N002119999999N9999999N1-00131-00481100421ADDMA1999999093691MD1310141+9999OA149900511REMSYN076AAXX  06164 06786 33/// /0704 11013 21048 39369 40042 53014 333 91110 91206;
0128067860999992010010617004+46867+009533FM-12+055699999V0200201N000519999999N9999999N1-00111-00441100461ADDMA1999999093731MD1110161+9999OA149900411REMSYN076AAXX  06174 06786 33/// /0201 11011 21044 39373 40046 51016 333 91108 91204;
0257067860999992010010618004+46867+009533FM-12+055699999V0200101N001010021019N0050001N1-00111-00431100511ADDAL19900091AY121061AY221061GA1081+002101071GF108991999999002501999999IA1149KA1120M-00091MA1999999093781MD1119999+9999MW1101OA149900511REMSYN112AAXX  06184 06786 31350 80102 11011 21043 39378 40051 51/// 71022 333 11009 34/// 88707 90766 93100 91110 91206;
0128067860999992010010619004+46867+009533FM-12+055699999V0200601N000519999999N9999999N1-00131-00471100571ADDMA1999999093831MD1310141+9999OA149900211REMSYN076AAXX  06194 06786 33/// /0601 11013 21047 39383 40057 53014 333 91104 91202;
0128067860999992010010620004+46867+009533FM-12+055699999V0200401N000519999999N9999999N1-00151-00451100601ADDMA1999999093851MD1110121+9999OA149900211REMSYN076AAXX  06204 06786 33/// /0401 11015 21045 39385 40060 51012 333 91104 91202;
0204067860999992010010621004+46867+009533FM-12+055699999V0202001N001010021019N0050001N1-00121-00421100611ADDAY121031AY221031GA1081+002101071GF108991999999002501999999MA1999999093871MD1110091+9999MW1101OA149900411REMSYN088AAXX  06214 06786 31350 82002 11012 21042 39387 40061 51009 71022 333 88707 91108 91204;
0128067860999992010010622004+46867+009533FM-12+055699999V0200301N001019999999N9999999N1-00101-00341100641ADDMA1999999093901MD1210071+9999OA149900151REMSYN076AAXX  06224 06786 33/// /0302 11010 21034 39390 40064 52007 333 91103 91202;
0128067860999992010010623004+46867+009533FM-12+055699999V0200101N000519999999N9999999N1-00131-00401100661ADDMA1999999093911MD1210061+9999OA149900151REMSYN076AAXX  06234 06786 33/// /0101 11013 21040 39391 40066 52006 333 91103 91202;
0204067860999992010010700004+46867+009533FM-12+055699999V0200301N001010021019N0050001N1-00131-00361100661ADDAY121061AY221061GA1081+002101071GF108991999999002501999999MA1999999093911MD1210041+9999MW1101OA149900511REMSYN088AAXX  07004 06786 31350 80302 11013 21036 39391 40066 52004 71022 333 88707 91110 91206;
0128067860999992010010701004+46867+009533FM-12+055699999V0203501N001019999999N9999999N1-00171-00311100671ADDMA1999999093911MD1210011+9999OA149900151REMSYN076AAXX  07014 06786 33/// /3502 11017 21031 39391 40067 52001 333 91103 91202;
0128067860999992010010702004+46867+009533FM-12+055699999V0209999C001019999999N9999999N1-00191-00341100761ADDMA1999999093991MD1219999+9999OA149900261REMSYN076AAXX  07024 06786 33/// /0002 11019 21034 39399 40076 52/// 333 91105 91203;
0204067860999992010010703004+46867+009533FM-12+055699999V0200401N000510012019N0040001N1-00191-00351100801ADDAY171031AY211031GA1081+001201071GF108991999999001501999999MA1999999094031MD1210121+9999MW1221OA149900261REMSYN088AAXX  07034 06786 31240 80401 11019 21035 39403 40080 52012 72271 333 88704 91105 91204;
0145067860999992010010704004+46867+009533FM-12+055699999V0203501N000519999999N9999999N1-00201-00301100811ADDAA101000021MA1999999094041MD1210131+9999OA149900261REMSYN082AAXX  07044 06786 23/// /3501 11020 21030 39404 40081 52013 333 69915 91105 91204;
0145067860999992010010705004+46867+009533FM-12+055699999V0200701N000519999999N9999999N1-00211-00301100871ADDAA101000021MA1999999094091MD1210101+9999OA149900101REMSYN082AAXX  07054 06786 23/// /0701 11021 21030 39409 40087 52010 333 69925 91102 91201;
0334067860999992010010706004+46867+009533FM-12+055699999V0201901N001510001519N0040001N1-00231-00331100931ADDAA112000591AA224000591AJ100029199999999AL13000091AL29900291GA1081+000151071GF108991999999000251999999GJ100369IA1239IA2999-00409KA1999N-00341MA1999999094141MD1210111+9999OA149900261REMSYN142AAXX  07064 06786 01040 81903 11023 21033 39414 40093 52011 69952 7//72 333 21034 3/104 47002 55006 69925 70005 88700 90768 93102 91105 91204;
0128067860999992010010707004+46867+009533FM-12+055699999V0202301N001019999999N9999999N1-00351-00501101011ADDMA1999999094191MD1110151+9999OA149900411REMSYN076AAXX  07074 06786 33/// /2302 11035 21050 39419 40101 51015 333 91108 91204;
0128067860999992010010708004+46867+009533FM-12+055699999V0202101N001519999999N9999999N1-00461-00631101121ADDMA1999999094261MD1319999+9999OA149900411REMSYN076AAXX  07084 06786 33/// /2103 11046 21063 39426 40112 53/// 333 91108 91204;
0204067860999992010010709004+46867+009533FM-12+055699999V0202201N001012200019N0120001N1-00391-00661101121ADDAY111031AY211031GA1011+001201061GF101991999999001501999999MA1999999094281MD1110141+9999MW1051OA149900411REMSYN088AAXX  07094 06786 31262 12202 11039 21066 39428 40112 51014 70511 333 81604 91108 91204;
0128067860999992010010710004+46867+009533FM-12+055699999V0202001N001519999999N9999999N1-00141-00601101081ADDMA1999999094301MD1110111+9999OA149900621REMSYN076AAXX  07104 06786 33/// /2003 11014 21060 39430 40108 51011 333 91112 91204;
0128067860999992010010711004+46867+009533FM-12+055699999V0201901N003619999999N9999999N1-00021-00621101001ADDMA1999999094261MD1010001+9999OA149900771REMSYN076AAXX  07114 06786 33/// /1907 11002 21062 39426 40100 50000 333 91115 91208;
0176067860999992010010712004+46867+009533FM-12+055699999V0202101N002111050019N0350001N1+00091-00621100881ADDGA1061+105001001GF106991999999999999999999MA1999999094171MD1710111+9999OA149900771REMSYN082AAXX  07124 06786 32981 62104 10009 21062 39417 40088 57011 333 86081 91115 91208;
0128067860999992010010713004+46867+009533FM-12+055699999V0202001N003119999999N9999999N1+00061-00571100831ADDMA1999999094121MD1810181+9999OA149900671REMSYN076AAXX  07134 06786 33/// /2006 10006 21057 39412 40083 58018 333 91113 91207;
0118067860999992010010715004+46867+009533FM-12+055699999V02099999999990840019N0250001N1+99999+99999999999ADDGA1081+084001001GF108991999999999999999999REMSYN064AAXX  07154 06786 42975 8//// 1//// 2//// 3//// 5//// 333 88078;
0087067860999992010010716004+46867+009533FM-12+055699999V0200301N002619999999N9999999N1-00041-00461101061ADDMA1999999094311REMSYN060AAXX  07164 06786 43/// /0305 11004 21046 39431 40106 5/019;
0128067860999992010010717004+46867+009533FM-12+055699999V0200401N002119999999N9999999N1-00091-00411101131ADDMA1999999094361MD1119999+9999OA149900461REMSYN076AAXX  07174 06786 33/// /0404 11009 21041 39436 40113 51/// 333 91109 91206;
0274067860999992010010718004+46867+009533FM-12+055699999V0202601N000510027019N0080001N1-00191-00461101201ADDAJ100029199999999AL19900091AY121061AY221061GA1081+002701071GF108991999999002501999999IA1219KA1120M+00101MA1999999094401MD1119999+9999MW1101OA149900771REMSYN112AAXX  07184 06786 31358 82601 11019 21046 39440 40120 51/// 71022 333 10010 45002 88709 90766 93100 91115 91208;
0128067860999992010010719004+46867+009533FM-12+055699999V0209999C000019999999N9999999N1-00251-00481101251ADDMA1999999094431MD1110121+9999OA149900261REMSYN076AAXX  07194 06786 33/// /0000 11025 21048 39443 40125 51012 333 91105 91203;
0128067860999992010010720004+46867+009533FM-12+055699999V0202201N000519999999N9999999N1-00161-00431101171ADDMA1999999094381MD1010021+9999OA149900101REMSYN076AAXX  07204 06786 33/// /2201 11016 21043 39438 40117 50002 333 91102 91201;
0128067860999992010010721004+46867+009533FM-12+055699999V0202301N001019999999N9999999N1-00191-00431101221ADDMA1999999094421MD1210021+9999OA149900461REMSYN076AAXX  07214 06786 33/// /2302 11019 21043 39442 40122 52002 333 91109 91206;
0128067860999992010010722004+46867+009533FM-12+055699999V0201801N000519999999N9999999N1-00201-00441101211ADDMA1999999094411MD1710021+9999OA149900211REMSYN076AAXX  07224 06786 33/// /1801 11020 21044 39441 40121 57002 333 91104 91202;
0128067860999992010010723004+46867+009533FM-12+055699999V0202301N000519999999N9999999N1-00221-00461101181ADDMA1999999094381MD1810011+9999OA149900151REMSYN076AAXX  07234 06786 33/// /2301 11022 21046 39438 40118 58000 333 91103 91202;
0204067860999992010010800004+46867+009533FM-12+055699999V0209999C000010027019N0080001N1-00241-00471101131ADDAY121061AY221061GA1081+002701071GF108991999999002501999999MA1999999094321MD1710101+9999MW1101OA149900671REMSYN088AAXX  08004 06786 31358 80000 11024 21047 39432 40113 57010 71022 333 88709 91113 91207;
0128067860999992010010801004+46867+009533FM-12+055699999V0200101N001019999999N9999999N1-00211-00441101061ADDMA1999999094271MD1810141+9999OA149900151REMSYN076AAXX  08014 06786 33/// /0102 11021 21044 39427 40106 58014 333 91103 91202;
0128067860999992010010802004+46867+009533FM-12+055699999V0200201N001519999999N9999999N1-00221-00441101111ADDMA1999999094311MD1719999+9999OA149900211REMSYN076AAXX  08024 06786 33/// /0203 11022 21044 39431 40111 57/// 333 91104 91203;
0204067860999992010010803004+46867+009533FM-12+055699999V0200101N001510027019N0080001N1-00231-00381101091ADDAY121031AY221031GA1081+002701071GF108991999999002501999999MA1999999094291MD1719999+9999MW1101OA149900311REMSYN088AAXX  08034 06786 31358 80103 11023 21038 39429 40109 57/// 71022 333 88709 91106 91204;
0145067860999992010010804004+46867+009533FM-12+055699999V0200201N001519999999N9999999N1-00221-00341101061ADDAA101000391MA1999999094261MD1810011+9999OA149900311REMSYN082AAXX  08044 06786 23/// /0203 11022 21034 39426 40106 58001 333 69935 91106 91204;
0145067860999992010010805004+46867+009533FM-12+055699999V0200201N001519999999N9999999N1-00251-00351101011ADDAA101000391MA1999999094211MD1810101+9999OA149900311REMSYN082AAXX  08054 06786 23/// /0203 11025 21035 39421 40101 58010 333 69935 91106 91203;
0356067860999992010010806004+46867+009533FM-12+055699999V0200201N001510018019N0010001N1-00251-00371100981ADDAA112000891AA224000891AJ100039199999999AL14200091AL29900291AY131061AY221061GA1081+001801071GF108991999999001501999999GJ102109IA1239IA2999-00409KA1999N-00281MA1999999094181MD1610111+9999MW1711OA149900311REMSYN142AAXX  08064 06786 01210 80203 11025 21037 39418 40098 56011 69982 77132 333 21028 3/104 47003 55035 69925 70007 88706 90768 93102 91106 91204;
0145067860999992010010807004+46867+009533FM-12+055699999V0200201N001019999999N9999999N1-00251-00361100951ADDAA101000021MA1999999094151MD1610111+9999OA149900261REMSYN082AAXX  08074 06786 23/// /0202 11025 21036 39415 40095 56011 333 69915 91105 91203;
0145067860999992010010808004+46867+009533FM-12+055699999V0201901N000519999999N9999999N1-00251-00351100901ADDAA101000021MA1999999094111MD1610101+9999OA149900211REMSYN082AAXX  08084 06786 23/// /1901 11025 21035 39411 40090 56010 333 69915 91104 91203;
0221067860999992010010809004+46867+009533FM-12+055699999V0201801N000510001519N0020001N1-00201-00341100841ADDAA101000391AY171031AY231031GA1081+000151071GF108991999999000251999999MA1999999094061MD1810121+9999MW1701OA149900311REMSYN094AAXX  08094 06786 21020 81801 11020 21034 39406 40084 58012 77073 333 69935 88700 91106 91203;
0145067860999992010010810004+46867+009533FM-12+055699999V0203501N000519999999N9999999N1-00181-00331100771ADDAA101000021MA1999999094001MD1610151+9999OA149900151REMSYN082AAXX  08104 06786 23/// /3501 11018 21033 39400 40077 56015 333 69915 91103 91202;
0128067860999992010010811004+46867+009533FM-12+055699999V0200201N001519999999N9999999N1-00151-00311100651ADDMA1999999093901MD1810211+9999OA149900261REMSYN076AAXX  08114 06786 33/// /0203 11015 21031 39390 40065 58021 333 91105 91203;
0227067860999992010010812004+46867+009533FM-12+055699999V0200301N002610021019N0040001N1-00111-00361100501ADDAA106000591AY171061AY221061GA1071+002101071GF107991999999002501999999MA1999999093771MD1810291+9999MW1101OA149900411REMSYN100AAXX  08124 06786 01340 70305 11011 21036 39377 40050 58029 69961 71072 333 60005 87707 91108 91205;
0128067860999992010010813004+46867+009533FM-12+055699999V0200301N003119999999N9999999N1-00071-00351100431ADDMA1999999093711MD1610291+9999OA149900461REMSYN076AAXX  08134 06786 33/// /0306 11007 21035 39371 40043 56029 333 91109 91206;
0128067860999992010010814004+46867+009533FM-12+055699999V0200301N003119999999N9999999N1-00111-00411100401ADDMA1999999093681MD1619999+9999OA149900571REMSYN076AAXX  08144 06786 33/// /0306 11011 21041 39368 40040 56/// 333 91111 91206;
0204067860999992010010815004+46867+009533FM-12+055699999V0200301N003610033019N0050001N1-00111-00441100401ADDAY121031AY221031GA1081+003301071GF108991999999004501999999MA1999999093681MD1710091+9999MW1101OA149900621REMSYN088AAXX  08154 06786 31450 80307 11011 21044 39368 40040 57009 71022 333 88711 91112 91207;
0147067860999992010010816004+46867+009533FM-12+055699999V0200401N001519999999N9999999N1-00131-00431100441ADDMA1999999093711MD1310011+9999OA149900621REMSYN076AAXX  08164 06786 33/// /0403 11013 21043 39371 40044 53000 333 91112 91207;EQDQ01+000002APC3  
0128067860999992010010817004+46867+009533FM-12+055699999V0200301N003119999999N9999999N1-00141-00441100461ADDMA1999999093721MD1219999+9999OA149900571REMSYN076AAXX  08174 06786 33/// /0306 11014 21044 39372 40046 52/// 333 91111 91206;
0297067860999992010010818004+46867+009533FM-12+055699999V0200301N003110021019N0050001N1-00151-00451100521ADDAA112000591AJ100039199999999AL19900091AY121061AY221061GA1081+002101071GF108991999999002501999999IA1239KA1120M-00041MA1999999093781MD1310101+9999MW1101OA149900621REMSYN124AAXX  08184 06786 01350 80306 11015 21045 39378 40052 53010 69962 71022 333 11004 47003 60005 88707 90766 93100 91112 91207;
0128067860999992010010819004+46867+009533FM-12+055699999V0200401N002619999999N9999999N1-00181-00441100561ADDMA1999999093811MD1310101+9999OA149900571REMSYN076AAXX  08194 06786 33/// /0405 11018 21044 39381 40056 53010 333 91111 91206;
0145067860999992010010820004+46867+009533FM-12+055699999V0200301N003119999999N9999999N1-00211-00391100581ADDAA101000021MA1999999093821MD1210101+9999OA149900571REMSYN082AAXX  08204 06786 23/// /0306 11021 21039 39382 40058 52010 333 69915 91111 91206;
0221067860999992010010821004+46867+009533FM-12+055699999V0200501N001510001519N0020001N1-00241-00421100621ADDAA101000021AY171031AY221031GA1081+000151071GF108991999999000251999999MA1999999093851MD1210071+9999MW1701OA149900571REMSYN094AAXX  08214 06786 21020 80503 11024 21042 39385 40062 52007 77072 333 69915 88700 91111 91206;
0128067860999992010010822004+46867+009533FM-12+055699999V0200201N000519999999N9999999N1-00271-00441100641ADDMA1999999093861MD1210051+9999OA149900461REMSYN076AAXX  08224 06786 33/// /0201 11027 21044 39386 40064 52005 333 91109 91206;
0128067860999992010010823004+46867+009533FM-12+055699999V0203601N000519999999N9999999N1-00251-00411100631ADDMA1999999093861MD1210041+9999OA149900211REMSYN076AAXX  08234 06786 33/// /3601 11025 21041 39386 40063 52004 333 91104 91202;
0227067860999992010010900004+46867+009533FM-12+055699999V0200501N000510001519N0020001N1-00271-00411100651ADDAA106000021AY171061AY221061GA1081+000151071GF108991999999000251999999MA1999999093871MD1210021+9999MW1701OA149900621REMSYN100AAXX  09004 06786 01020 80501 11027 21041 39387 40065 52002 69921 77072 333 60005 88700 91112 91207;
0128067860999992010010901004+46867+009533FM-12+055699999V0200301N001019999999N9999999N1-00241-00401100621ADDMA1999999093851MD1710011+9999OA149900211REMSYN076AAXX  09014 06786 33/// /0302 11024 21040 39385 40062 57001 333 91104 91203;
0128067860999992010010902004+46867+009533FM-12+055699999V0200801N000519999999N9999999N1-00251-00451100661ADDMA1999999093881MD1219999+9999OA149900211REMSYN076AAXX  09024 06786 33/// /0801 11025 21045 39388 40066 52/// 333 91104 91203;
0204067860999992010010903004+46867+009533FM-12+055699999V0200201N000510006019N0020001N1-00241-00421100661ADDAY171031AY221031GA1081+000601071GF108991999999000751999999MA1999999093891MD1219999+9999MW1101OA149900211REMSYN088AAXX  09034 06786 31120 80201 11024 21042 39389 40066 52/// 71072 333 88702 91104 91203;
0147067860999992010010904004+46867+009533FM-12+055699999V0200201N000519999999N9999999N1-00241-00451100621ADDMA1999999093851MD1410001+9999OA149900101REMSYN076AAXX  09044 06786 33/// /0201 11024 21045 39385 40062 58000 333 91102 91201;EQDQ01+000082APCTEN
0128067860999992010010905004+46867+009533FM-12+055699999V0209999C000019999999N9999999N1-00251-00421100561ADDMA1999999093791MD1710091+9999OA149900101REMSYN076AAXX  09054 06786 33/// /0000 11025 21042 39379 40056 57009 333 91102 91201;
0356067860999992010010906004+46867+009533FM-12+055699999V0200401N001010006019N0020001N1-00261-00441100491ADDAA112000021AA224001091AJ100029199999999AL14800091AL29900291AY171061AY221061GA1081+000601071GF108991999999000751999999GJ100189IA1239IA2999-00509KA1999N-00311MA1999999093721MD1810171+9999MW1101OA149900571REMSYN142AAXX  09064 06786 01120 80402 11026 21044 39372 40049 58017 69922 71072 333 21031 3/105 47002 55003 60005 70009 88702 90768 93102 91111 91206;
0128067860999992010010907004+46867+009533FM-12+055699999V0200301N001519999999N9999999N1-00231-00441100501ADDMA1999999093741MD1710111+9999OA149900261REMSYN076AAXX  09074 06786 33/// /0303 11023 21044 39374 40050 57011 333 91105 91203;
0128067860999992010010908004+46867+009533FM-12+055699999V0200201N001519999999N9999999N1-00221-00411100541ADDMA1999999093781MD1510011+9999OA149900311REMSYN076AAXX  09084 06786 33/// /0203 11022 21041 39378 40054 55001 333 91106 91203;
0204067860999992010010909004+46867+009533FM-12+055699999V0200401N001510012019N0020001N1-00201-00401100511ADDAY121031AY221031GA1081+001201071GF108991999999001501999999MA1999999093761MD1210041+9999MW1101OA149900361REMSYN088AAXX  09094 06786 31220 80403 11020 21040 39376 40051 52004 71022 333 88704 91107 91203;
0128067860999992010010910004+46867+009533FM-12+055699999V0200301N002119999999N9999999N1-00221-00451100491ADDMA1999999093731MD1810011+9999OA149900361REMSYN076AAXX  09104 06786 33/// /0304 11022 21045 39373 40049 58001 333 91107 91204;
0128067860999992010010911004+46867+009533FM-12+055699999V0200301N003119999999N9999999N1-00221-00481100431ADDMA1999999093681MD1710101+9999OA149900571REMSYN076AAXX  09114 06786 33/// /0306 11022 21048 39368 40043 57010 333 91111 91206;
0204067860999992010010912004+46867+009533FM-12+055699999V0200301N004110012019N0040001N1-00231-00581100371ADDAY121061AY221061GA1081+001201071GF108991999999001501999999MA1999999093621MD1710141+9999MW1101OA149900621REMSYN088AAXX  09124 06786 31240 80308 11023 21058 39362 40037 57014 71022 333 88704 91112 91208;
0128067860999992010010913004+46867+009533FM-12+055699999V0200301N004119999999N9999999N1-00211-00551100331ADDMA1999999093591MD1710141+9999OA149900771REMSYN076AAXX  09134 06786 33/// /0308 11021 21055 39359 40033 57014 333 91115 91209;
0128067860999992010010914004+46867+009533FM-12+055699999V0200201N004119999999N9999999N1-00231-00591100371ADDMA1999999093621MD1510061+9999OA149900771REMSYN076AAXX  09144 06786 33/// /0208 11023 21059 39362 40037 55006 333 91115 91209;
0204067860999992010010915004+46867+009533FM-12+055699999V0200301N003110012019N0030001N1-00231-00571100411ADDAY121031AY221031GA1081+001201071GF108991999999001501999999MA1999999093661MD1310041+9999MW1101OA149900771REMSYN088AAXX  09154 06786 31230 80306 11023 21057 39366 40041 53004 71022 333 88704 91115 91209;
0128067860999992010010916004+46867+009533FM-12+055699999V0200201N003119999999N9999999N1-00251-00581100451ADDMA1999999093691MD1110101+9999OA149900771REMSYN076AAXX  09164 06786 33/// /0206 11025 21058 39369 40045 51010 333 91115 91208;
0128067860999992010010917004+46867+009533FM-12+055699999V0200301N002619999999N9999999N1-00281-00601100511ADDMA1999999093741MD1110121+9999OA149900571REMSYN076AAXX  09174 06786 33/// /0305 11028 21060 39374 40051 51012 333 91111 91206;
0293067860999992010010918004+46867+009533FM-12+055699999V0200501N001010012019N0040001N1-00271-00531100521ADDAJ199992999999999AL19900091AY121061AY221061GA1081+001201071GF108991999999001501999999IA1239KA1120M-00201MA1999999093751MD1210091+9999MW1101OA149900771REMSYN112AAXX  09184 06786 31240 80502 11027 21053 39375 40052 52009 71022 333 11020 47998 88704 90766 93100 91115 91209;EQDQ01  09982SNDP  
0128067860999992010010919004+46867+009533FM-12+055699999V0200201N001019999999N9999999N1-00301-00561100591ADDMA1999999093811MD1210121+9999OA149900511REMSYN076AAXX  09194 06786 33/// /0202 11030 21056 39381 40059 52012 333 91110 91206;
0128067860999992010010920004+46867+009533FM-12+055699999V0200401N001519999999N9999999N1-00321-00561100611ADDMA1999999093821MD1110081+9999OA149900311REMSYN076AAXX  09204 06786 33/// /0403 11032 21056 39382 40061 51008 333 91106 91204;
0204067860999992010010921004+46867+009533FM-12+055699999V0200401N001510021019N0040001N1-00321-00551100651ADDAY121031AY221031GA1081+002101071GF108991999999002501999999MA1999999093861MD1110111+9999MW1101OA149900571REMSYN088AAXX  09214 06786 31340 80403 11032 21055 39386 40065 51011 71022 333 88707 91111 91206;
0128067860999992010010922004+46867+009533FM-12+055699999V0200301N001519999999N9999999N1-00321-00541100701ADDMA1999999093901MD1310091+9999OA149900261REMSYN076AAXX  09224 06786 33/// /0303 11032 21054 39390 40070 53009 333 91105 91203;
0128067860999992010010923004+46867+009533FM-12+055699999V0200401N001019999999N9999999N1-00321-00551100741ADDMA1999999093941MD1310121+9999OA149900261REMSYN076AAXX  09234 06786 33/// /0402 11032 21055 39394 40074 53012 333 91105 91203;
0204067860999992010011000004+46867+009533FM-12+055699999V0200501N001010021019N0040001N1-00331-00571100771ADDAY121061AY221061GA1081+002101071GF108991999999002501999999MA1999999093971MD1210111+9999MW1101OA149900771REMSYN088AAXX  10004 06786 31340 80502 11033 21057 39397 40077 52011 71022 333 88707 91115 91209;
0128067860999992010011001004+46867+009533FM-12+055699999V0200501N001019999999N9999999N1-00341-00561100811ADDMA1999999094001MD1210101+9999OA149900211REMSYN076AAXX  10014 06786 33/// /0502 11034 21056 39400 40081 52010 333 91104 91202;
0087067860999992010011002004+46867+009533FM-12+055699999V0209999C000019999999N9999999N1-00341-00561100851ADDMA1999999094041REMSYN060AAXX  10024 06786 33/// /0000 11034 21056 39404 40085 5////;
0167067860999992010011003004+46867+009533FM-12+055699999V0200401N000510021019N0040001N1-00351-00551100901ADDAY121031AY221031GA1081+002101071GF108991999999002501999999MA1999999094081MW1101REMSYN076AAXX  10034 06786 41340 80401 11035 21055 39408 40090 5//// 71022 333 88707;
0128067860999992010011004004+46867+009533FM-12+055699999V0200401N001519999999N9999999N1-00301-00491100931ADDMA1999999094121MD1110121+9999OA149900211REMSYN076AAXX  10044 06786 33/// /0403 11030 21049 39412 40093 51012 333 91104 91203;
0128067860999992010011005004+46867+009533FM-12+055699999V0200401N001019999999N9999999N1-00361-00541101011ADDMA1999999094181MD1310141+9999OA149900211REMSYN076AAXX  10054 06786 33/// /0402 11036 21054 39418 40101 53014 333 91104 91203;
0342067860999992010011006004+46867+009533FM-12+055699999V0200101N000510021019N0040001N1-00331-00521101051ADDAA124000091AJ100029199999999AL19900091AY121061AY221061GA1081+002101071GF108991999999002501999999GJ100009IA1239IA2999-00509KA1999N-00361MA1999999094231MD1110151+9999MW1101OA149900311REMSYN130AAXX  10064 06786 31340 80101 11033 21052 39423 40105 51015 71022 333 21036 3/105 47002 55000 70000 88707 90768 93100 91106 91204;EQDQ01  00002PRCP24
0128067860999992010011007004+46867+009533FM-12+055699999V0200301N000519999999N9999999N1-00291-00471101131ADDMA1999999094311MD1310191+9999OA149900151REMSYN076AAXX  10074 06786 33/// /0301 11029 21047 39431 40113 53019 333 91103 91202;
0128067860999992010011008004+46867+009533FM-12+055699999V0200401N000519999999N9999999N1-00301-00491101211ADDMA1999999094381MD1319999+9999OA149900151REMSYN076AAXX  10084 06786 33/// /0401 11030 21049 39438 40121 53/// 333 91103 91202;
0204067860999992010011009004+46867+009533FM-12+055699999V0203401N000510001519N0020001N1-00281-00481101291ADDAY121031AY221031GA1081+000151071GF108991999999000251999999MA1999999094461MD1310231+9999MW1101OA149900211REMSYN088AAXX  10094 06786 31020 83401 11028 21048 39446 40129 53023 71022 333 88700 91104 91203;
0128067860999992010011010004+46867+009533FM-12+055699999V0200301N001519999999N9999999N1-00241-00451101321ADDMA1999999094501MD1110191+9999OA149900211REMSYN076AAXX  10104 06786 33/// /0303 11024 21045 39450 40132 51019 333 91104 91203;
0128067860999992010011011004+46867+009533FM-12+055699999V0200301N002119999999N9999999N1-00201-00441101351ADDMA1999999094541MD1110161+9999OA149900311REMSYN076AAXX  10114 06786 33/// /0304 11020 21044 39454 40135 51016 333 91106 91204;
0204067860999992010011012004+46867+009533FM-12+055699999V0200301N002110001519N0030001N1-00231-00551101371ADDAY121061AY221061GA1081+000151071GF108991999999000251999999MA1999999094551MD1110091+9999MW1051OA149900411REMSYN088AAXX  10124 06786 31030 80304 11023 21055 39455 40137 51009 70522 333 88700 91108 91205;
0128067860999992010011013004+46867+009533FM-12+055699999V0200401N002619999999N9999999N1-00201-00521101361ADDMA1999999094551MD1110051+9999OA149900411REMSYN076AAXX  10134 06786 33/// /0405 11020 21052 39455 40136 51005 333 91108 91205;
0128067860999992010011014004+46867+009533FM-12+055699999V0200401N003119999999N9999999N1-00201-00551101411ADDMA1999999094601MD1319999+9999OA149900571REMSYN076AAXX  10144 06786 33/// /0406 11020 21055 39460 40141 53/// 333 91111 91207;
0204067860999992010011015004+46867+009533FM-12+055699999V0200301N004110006019N0030001N1-00211-00541101491ADDAY121031AY221031GA1081+000601071GF108991999999000751999999MA1999999094671MD1310121+9999MW1101OA149900621REMSYN088AAXX  10154 06786 31130 80308 11021 21054 39467 40149 53012 71022 333 88702 91112 91208;
0128067860999992010011016004+46867+009533FM-12+055699999V0200401N002619999999N9999999N1-00241-00531101551ADDMA1999999094721MD1210171+9999OA149900621REMSYN076AAXX  10164 06786 33/// /0405 11024 21053 39472 40155 52017 333 91112 91208;
0128067860999992010011017004+46867+009533FM-12+055699999V0200101N001519999999N9999999N1-00251-00541101631ADDMA1999999094791MD1310191+9999OA149900621REMSYN076AAXX  10174 06786 33/// /0103 11025 21054 39479 40163 53019 333 91112 91207;
0274067860999992010011018004+46867+009533FM-12+055699999V0200601N000510001519N0040001N1-00261-00581101691ADDAJ100029199999999AL19900091AY121061AY221061GA1081+000151071GF108991999999000251999999IA1239KA1120M-00171MA1999999094841MD1110171+9999MW1101OA149900621REMSYN112AAXX  10184 06786 31040 80601 11026 21058 39484 40169 51017 71022 333 11017 47002 88700 90766 93100 91112 91208;
0128067860999992010011019004+46867+009533FM-12+055699999V0202001N000519999999N9999999N1-00261-00571101731ADDMA1999999094881MD1110161+9999OA149900211REMSYN076AAXX  10194 06786 33/// /2001 11026 21057 39488 40173 51016 333 91104 91203;
0128067860999992010011020004+46867+009533FM-12+055699999V0202001N001519999999N9999999N1-00251-00551101721ADDMA1999999094871MD1210081+9999OA149900311REMSYN076AAXX  10204 06786 33/// /2003 11025 21055 39487 40172 52008 333 91106 91203;
0204067860999992010011021004+46867+009533FM-12+055699999V0202101N001010018019N0040001N1-00251-00641101731ADDAY121031AY221031GA1081+001801071GF108991999999001501999999MA1999999094881MD1210041+9999MW1101OA149900621REMSYN088AAXX  10214 06786 31240 82102 11025 21064 39488 40173 52004 71022 333 88706 91112 91207;
0128067860999992010011022004+46867+009533FM-12+055699999V0201901N001519999999N9999999N1-00241-00731101731ADDMA1999999094881MD1410001+9999OA149900261REMSYN076AAXX  10224 06786 33/// /1903 11024 21073 39488 40173 52000 333 91105 91203;
0128067860999992010011023004+46867+009533FM-12+055699999V0202001N002119999999N9999999N1-00271-00741101731ADDMA1999999094881MD1010011+9999OA149900511REMSYN076AAXX  10234 06786 33/// /2004 11027 21074 39488 40173 50001 333 91110 91205;
0204067860999992010011100004+46867+009533FM-12+055699999V0201701N003610021019N0050001N1-00351-00811101741ADDAY121061AY221061GA1081+002101071GF108991999999002501999999MA1999999094871MD1710011+9999MW1101OA149900621REMSYN088AAXX  11004 06786 31350 81707 11035 21081 39487 40174 57001 71022 333 88707 91112 91208;
0128067860999992010011101004+46867+009533FM-12+055699999V0201801N003119999999N9999999N1-00401-00871101741ADDMA1999999094851MD1710031+9999OA149900621REMSYN076AAXX  11014 06786 33/// /1806 11040 21087 39485 40174 57003 333 91112 91208;
0128067860999992010011102004+46867+009533FM-12+055699999V0201801N002619999999N9999999N1-00421-00911101771ADDMA1999999094881MD1519999+9999OA149900621REMSYN076AAXX  11024 06786 33/// /1805 11042 21091 39488 40177 55/// 333 91112 91208;
0198067860999992010011103004+46867+009533FM-12+055699999V0203001N000512200019N0050001N1-00601-00891101821ADDAY111031AY211031GA1001+999999999GF100991001001999999001001MA1999999094881MD1219999+9999MW1101OA149900621REMSYN082AAXX  11034 06786 31/50 03001 11060 21089 39488 40182 52/// 71011 333 91112 91208;
0128067860999992010011104004+46867+009533FM-12+055699999V0200101N000519999999N9999999N1-00621-00891101851ADDMA1999999094901MD1210051+9999OA149900511REMSYN076AAXX  11044 06786 33/// /0101 11062 21089 39490 40185 52005 333 91110 91204;
0128067860999992010011105004+46867+009533FM-12+055699999V0201801N000519999999N9999999N1-00791-00991101901ADDMA1999999094901MD1210021+9999OA149900101REMSYN076AAXX  11054 06786 33/// /1801 11079 21099 39490 40190 52002 333 91102 91201;
0336067860999992010011106004+46867+009533FM-12+055699999V0202601N000512200019N0080001N1-00691-00881101871ADDAA124000091AJ100039199999999AL19900091AY111061AY211061GA1001+999999999GF100991001001999999001001GJ100009IA1239IA2999-01109KA1999N-00891MA1999999094901MD1210021+9999MW1101OA149900621REMSYN124AAXX  11064 06786 31/58 02601 11069 21088 39490 40187 52002 71011 333 21089 3/111 47003 55000 70000 90768 93100 91112 91208;EQDQ01  00002PRCP24
0128067860999992010011107004+46867+009533FM-12+055699999V0202001N001519999999N9999999N1-00781-01001101931ADDMA1999999094931MD1210031+9999OA149900361REMSYN076AAXX  11074 06786 33/// /2003 11078 21100 39493 40193 52003 333 91107 91205;
0128067860999992010011108004+46867+009533FM-12+055699999V0202201N001019999999N9999999N1-00731-01001101921ADDMA1999999094941MD1219999+9999OA149900361REMSYN076AAXX  11084 06786 33/// /2202 11073 21100 39494 40192 52/// 333 91107 91205;
0204067860999992010011109004+46867+009533FM-12+055699999V0201801N001012200019N0080001N1-00671-00991101901ADDAY101031AY201031GA1011+054001001GF101991999999999999999999MA1999999094931MD1210031+9999MW1051OA149900361REMSYN088AAXX  11094 06786 31958 11802 11067 21099 39493 40190 52003 70500 333 81068 91107 91205;
0128067860999992010011110004+46867+009533FM-12+055699999V0202201N001019999999N9999999N1-00501-00931101821ADDMA1999999094901MD1719999+9999OA149900211REMSYN076AAXX  11104 06786 33/// /2202 11050 21093 39490 40182 57/// 333 91104 91203;
0128067860999992010011111004+46867+009533FM-12+055699999V0202001N000519999999N9999999N1-00401-00921101711ADDMA1999999094831MD1810111+9999OA149900211REMSYN076AAXX  11114 06786 33/// /2001 11040 21092 39483 40171 58011 333 91104 91203;
0204067860999992010011112004+46867+009533FM-12+055699999V0201801N000510330019N0080001N1-00291-00851101611ADDAY111061AY211061GA1081+033001031GF108991999999999999999999MA1999999094761MD1810171+9999MW1101OA149900621REMSYN088AAXX  11124 06786 31958 81801 11029 21085 39476 40161 58017 71011 333 88361 91112 91208;
0128067860999992010011113004+46867+009533FM-12+055699999V0200201N004119999999N9999999N1-00221-00721101581ADDMA1999999094751MD1710151+9999OA149900671REMSYN076AAXX  11134 06786 33/// /0208 11022 21072 39475 40158 57015 333 91113 91208;
0087067860999992010011114004+46867+009533FM-12+055699999V0200301N004119999999N9999999N1-00181-00671101591ADDMA1999999094771REMSYN060AAXX  11144 06786 33/// /0308 11018 21067 39477 40159 5////;
0226067860999992010011115004+46867+009533FM-12+055699999V0200301N003610270019N0050001N1-00201-00631101641ADDAY121031AY221031GA1021+002101061GA2071+027001031GF108991999999002501999999MA1999999094811MD1210051+9999MW1101OA149900881REMSYN094AAXX  11154 06786 31350 80307 11020 21063 39481 40164 52005 71022 333 82607 87359 91117 91210;
0128067860999992010011116004+46867+009533FM-12+055699999V0200701N002619999999N9999999N1-00221-00641101711ADDMA1999999094871MD1310121+9999OA149900881REMSYN076AAXX  11164 06786 33/// /0705 11022 21064 39487 40171 53012 333 91117 91210;
0128067860999992010011117004+46867+009533FM-12+055699999V0200401N001519999999N9999999N1-00271-00551101801ADDMA1999999094941MD1310171+9999OA149900621REMSYN076AAXX  11174 06786 33/// /0403 11027 21055 39494 40180 53017 333 91112 91207;
0274067860999992010011118004+46867+009533FM-12+055699999V0200201N000510021019N0050001N1-00281-00521101891ADDAJ100039199999999AL19900091AY121061AY221061GA1081+002101071GF108991999999002501999999IA1239KA1120M-00161MA1999999095021MD1310211+9999MW1101OA149900881REMSYN112AAXX  11184 06786 31350 80201 11028 21052 39502 40189 53021 71022 333 11016 47003 88707 90766 93100 91117 91210;
0145067860999992010011119004+46867+009533FM-12+055699999V0201801N000519999999N9999999N1-00311-00461101931ADDAA101000021MA1999999095051MD1110181+9999OA149900261REMSYN082AAXX  11194 06786 23/// /1801 11031 21046 39505 40193 51018 333 69915 91105 91202;
0145067860999992010011120004+46867+009533FM-12+055699999V0202001N001019999999N9999999N1-00321-00491101941ADDAA101000021MA1999999095061MD1210121+9999OA149900211REMSYN082AAXX  11204 06786 23/// /2002 11032 21049 39506 40194 52012 333 69915 91104 91202;
0204067860999992010011121004+46867+009533FM-12+055699999V0202401N000510021019N0050001N1-00351-00531101951ADDAY121031AY221031GA1081+002101071GF108991999999002501999999MA1999999095061MD1210041+9999MW1101OA149900621REMSYN088AAXX  11214 06786 31350 82401 11035 21053 39506 40195 52004 71022 333 88707 91112 91207;
0128067860999992010011122004+46867+009533FM-12+055699999V0202101N001019999999N9999999N1-00331-00571101931ADDMA1999999095051MD1410001+9999OA149900211REMSYN076AAXX  11224 06786 33/// /2102 11033 21057 39505 40193 58000 333 91104 91202;
0128067860999992010011123004+46867+009533FM-12+055699999V0200401N000519999999N9999999N1-00381-00571101961ADDMA1999999095061MD1710021+9999OA149900211REMSYN076AAXX  11234 06786 33/// /0401 11038 21057 39506 40196 57000 333 91104 91202;
0246067860999992010011200004+46867+009533FM-12+055699999V0200201N001010021019N0050001N1-00371-00581101961ADDAA106000091AY121061AY221061GA1081+002101071GF108991999999002501999999MA1999999095071MD1310011+9999MW1101OA149900881REMSYN100AAXX  12004 06786 01350 80202 11037 21058 39507 40196 53001 69921 71022 333 60005 88707 91117 91210;EQDQ01  00002PRCP06
0128067860999992010011201004+46867+009533FM-12+055699999V0209999C000019999999N9999999N1-00371-00531101961ADDMA1999999095071MD1010021+9999OA149900211REMSYN076AAXX  12014 06786 33/// /0000 11037 21053 39507 40196 50002 333 91104 91202;
0128067860999992010011202004+46867+009533FM-12+055699999V0203301N000519999999N9999999N1-00361-00511101971ADDMA1999999095081MD1319999+9999OA149900211REMSYN076AAXX  12024 06786 33/// /3301 11036 21051 39508 40197 53/// 333 91104 91202;
0204067860999992010011203004+46867+009533FM-12+055699999V0202101N000510012019N0020001N1-00361-00531101961ADDAY101031AY201031GA1081+001201071GF108991999999001501999999MA1999999095071MD1010001+9999MW1101OA149900211REMSYN088AAXX  12034 06786 31220 82101 11036 21053 39507 40196 50000 71000 333 88704 91104 91202;
0163067860999992010011204004+46867+009533FM-12+055699999V0201801N001019999999N9999999N1-00331-00531101951ADDMA1999999095071MD1710011+9999OA149900151REMSYN076AAXX  12044 06786 33/// /1802 11033 21053 39507 40195 57000 333 91103 91202;EQDQ01+000072APCTENQ02+000002APC3  
0128067860999992010011205004+46867+009533FM-12+055699999V0201901N001519999999N9999999N1-00371-00561101941ADDMA1999999095051MD1710031+9999OA149900261REMSYN076AAXX  12054 06786 33/// /1903 11037 21056 39505 40194 57003 333 91105 91203;
0347067860999992010011206004+46867+009533FM-12+055699999V0202001N002112200019N0250001N1-00401-00611101941ADDAA112000091AA224000391AJ100059199999999AL11200091AL29900591GA1021+015001061GF102991999999017501999999GJ100549IA1239IA2999-00609KA1999N-00451MA1999999095041MD1710031+9999OA149900361REMSYN136AAXX  12064 06786 02775 22004 11040 21061 39504 40194 57003 69922 333 21045 3/106 47005 55009 60005 70002 82650 90768 93105 91107 91204;EQDQ01  00002PRCP12
0128067860999992010011207004+46867+009533FM-12+055699999V0202401N001519999999N9999999N1-00411-00621101901ADDMA1999999095001MD1710071+9999OA149900361REMSYN076AAXX  12074 06786 33/// /2403 11041 21062 39500 40190 57007 333 91107 91204;
0128067860999992010011208004+46867+009533FM-12+055699999V0202301N000519999999N9999999N1-00341-00631101851ADDMA1999999094971MD1719999+9999OA149900261REMSYN076AAXX  12084 06786 33/// /2301 11034 21063 39497 40185 57/// 333 91105 91203;
0204067860999992010011209004+46867+009533FM-12+055699999V0202201N001010210019N0080001N1-00281-00591101761ADDAY111031AY211031GA1061+021001031GF106991999999022501999999MA1999999094901MD1710141+9999MW1101OA149900361REMSYN088AAXX  12094 06786 31858 62202 11028 21059 39490 40176 57014 71011 333 86357 91107 91204;
0128067860999992010011210004+46867+009533FM-12+055699999V0202101N001019999999N9999999N1-00161-00611101641ADDMA1999999094821MD1810181+9999OA149900411REMSYN076AAXX  12104 06786 33/// /2102 11016 21061 39482 40164 58018 333 91108 91205;
0128067860999992010011211004+46867+009533FM-12+055699999V0202101N002619999999N9999999N1+00051-00471101431ADDMA1999999094681MD1810291+9999OA149900571REMSYN076AAXX  12114 06786 33/// /2105 10005 21047 39468 40143 58029 333 91111 91205;
0170067860999992010011212004+46867+009533FM-12+055699999V0202201N002112200019N0200001N1+00241-00441101211ADDGA1001+999999999GF100991001001999999001001MA1999999094521MD1810381+9999OA149900771REMSYN076AAXX  12124 06786 32/70 02204 10024 21044 39452 40121 58038 333 91115 91209;
0128067860999992010011213004+46867+009533FM-12+055699999V0202001N001019999999N9999999N1+00381-00451101091ADDMA1999999094441MD1610381+9999OA149900771REMSYN076AAXX  12134 06786 33/// /2002 10038 21045 39444 40109 56038 333 91115 91209;
0087067860999992010011214004+46867+009533FM-12+055699999V0200201N003619999999N9999999N1+00161-00381101131ADDMA1999999094421REMSYN060AAXX  12144 06786 33/// /0207 10016 21038 39442 40113 5////;
0204067860999992010011215004+46867+009533FM-12+055699999V0200201N003112200019N0120001N1-00011-00411101171ADDAY101031AY201031GA1011+024001031GF101991999999022501999999MA1999999094421MD1710101+9999MW1051OA149900771REMSYN088AAXX  12154 06786 31862 10206 11001 21041 39442 40117 57010 70500 333 81358 91115 91209;
0128067860999992010011216004+46867+009533FM-12+055699999V0200201N002119999999N9999999N1-00151-00461101141ADDMA1999999094361MD1810081+9999OA149900621REMSYN076AAXX  12164 06786 33/// /0204 11015 21046 39436 40114 58008 333 91112 91208;
0128067860999992010011217004+46867+009533FM-12+055699999V0202101N002619999999N9999999N1+00161-00421101031ADDMA1999999094331MD1710091+9999OA149900881REMSYN076AAXX  12174 06786 33/// /2105 10016 21042 39433 40103 57009 333 91117 91205;
0246067860999992010011218004+46867+009533FM-12+055699999V0201701N005712200019N0200001N1+00171-00451101021ADDAJ100049199999999AL19900091GA1011+021001031GF101991999999022501999999IA1239KA1120M+00431MA1999999094321MD1710101+9999OA149901031REMSYN106AAXX  12184 06786 32870 11711 10017 21045 39432 40102 57010 333 10043 47004 81357 90766 93100 91120 91212;
0128067860999992010011219004+46867+009533FM-12+055699999V0201801N007219999999N9999999N1+00161-00491101051ADDMA1999999094351MD1510011+9999OA149901241REMSYN076AAXX  12194 06786 33/// /1814 10016 21049 39435 40105 55001 333 91124 91214;
0128067860999992010011220004+46867+009533FM-12+055699999V0201801N005719999999N9999999N1+00121-00541101081ADDMA1999999094371MD1210041+9999OA149901341REMSYN076AAXX  12204 06786 33/// /1811 10012 21054 39437 40108 52004 333 91126 91214;
0204067860999992010011221004+46867+009533FM-12+055699999V0202001N005112200019N0090001N1+00081-00571101081ADDAY101031AY201031GA1011+021001031GF101991999999022501999999MA1999999094361MD1210041+9999MW1101OA149901341REMSYN088AAXX  12214 06786 31859 12010 10008 21057 39436 40108 52004 71000 333 81357 91126 91214;
0128067860999992010011222004+46867+009533FM-12+055699999V0201901N007219999999N9999999N1+00041-00581101071ADDMA1999999094341MD1810011+9999OA149901341REMSYN076AAXX  12224 06786 33/// /1914 10004 21058 39434 40107 58001 333 91126 91214;
0128067860999992010011223004+46867+009533FM-12+055699999V0201901N005719999999N9999999N1+00041-00631101021ADDMA1999999094291MD1710081+9999OA149901341REMSYN076AAXX  12234 06786 33/// /1911 10004 21063 39429 40102 57008 333 91126 91214;
0176067860999992010011300004+46867+009533FM-12+055699999V0201901N006210123019N0120001N1+00101-00661100931ADDGA1081+012301071GF108991999999012501999999MA1999999094221MD1710141+9999OA149901341REMSYN082AAXX  13004 06786 32662 81912 10010 21066 39422 40093 57014 333 88741 91126 91214;
0128067860999992010011301004+46867+009533FM-12+055699999V0202001N006219999999N9999999N1+00051-00611100951ADDMA1999999094231MD1710111+9999OA149901291REMSYN076AAXX  13014 06786 33/// /2012 10005 21061 39423 40095 57011 333 91125 91214;
0128067860999992010011302004+46867+009533FM-12+055699999V0201901N003619999999N9999999N1+00101-00641100941ADDMA1999999094231MD1519999+9999OA149901241REMSYN076AAXX  13024 06786 33/// /1907 10010 21064 39423 40094 55/// 333 91124 91213;
0128067860999992010011303004+46867+009533FM-12+055699999V0202201N003119999999N9999999N1+00021-00591100931ADDMA1999999094201MD1819999+9999OA149901341REMSYN076AAXX  13034 06786 33/// /2206 10002 21059 39420 40093 58/// 333 91126 91214;
0128067860999992010011304004+46867+009533FM-12+055699999V0202201N002619999999N9999999N1+00011-00581100851ADDMA1999999094121MD1710111+9999OA149900721REMSYN076AAXX  13044 06786 33/// /2205 10001 21058 39412 40085 57011 333 91114 91207;
0128067860999992010011305004+46867+009533FM-12+055699999V0202001N004119999999N9999999N1+00091-00581100781ADDMA1999999094081MD1710151+9999OA149900981REMSYN076AAXX  13054 06786 33/// /2008 10009 21058 39408 40078 57015 333 91119 91208;
0342067860999992010011306004+46867+009533FM-12+055699999V0202001N003612200019N0120001N1+00141-00591100761ADDAA124000091AJ100039199999999AL19900091AY111061AY211061GA1041+010201071GF104991999999012501999999GJ103609IA1279IA2999-00109KA1999N-00011MA1999999094071MD1610131+9999MW1051OA149901341REMSYN130AAXX  13064 06786 31662 42007 10014 21059 39407 40076 56013 70511 333 21001 3/101 43003 55060 70000 84734 90768 93100 91126 91214;EQDQ01  00002PRCP24
0128067860999992010011307004+46867+009533FM-12+055699999V0202001N004619999999N9999999N1+00161-00581100801ADDMA1999999094111MD1510011+9999OA149901131REMSYN076AAXX  13074 06786 33/// /2009 10016 21058 39411 40080 55001 333 91122 91212;
0128067860999992010011308004+46867+009533FM-12+055699999V0202001N004119999999N9999999N1+00131-00581100861ADDMA1999999094161MD1310081+9999OA149901131REMSYN076AAXX  13084 06786 33/// /2008 10013 21058 39416 40086 53008 333 91122 91213;
0176067860999992010011309004+46867+009533FM-12+055699999V0202001N005110240019N0250001N1+00161-00551100901ADDGA1071+024001031GF107991999999022501999999MA1999999094211MD1110141+9999OA149901131REMSYN082AAXX  13094 06786 32875 72010 10016 21055 39421 40090 51014 333 87358 91122 91213;
0128067860999992010011310004+46867+009533FM-12+055699999V0201901N005119999999N9999999N1+00281-00551100871ADDMA1999999094211MD1210101+9999OA149901031REMSYN076AAXX  13104 06786 33/// /1910 10028 21055 39421 40087 52010 333 91120 91210;
0128067860999992010011311004+46867+009533FM-12+055699999V0202001N005119999999N9999999N1+00301-00511100851ADDMA1999999094191MD1010031+9999OA149900981REMSYN076AAXX  13114 06786 33/// /2010 10030 21051 39419 40085 50003 333 91119 91210;
0176067860999992010011312004+46867+009533FM-12+055699999V0202201N003110240019N0250001N1+00381-00511100781ADDGA1081+024001041GF108991999999022501999999MA1999999094151MD1710061+9999OA149901241REMSYN082AAXX  13124 06786 32875 82206 10038 21051 39415 40078 57006 333 88458 91124 91213;
0128067860999992010011313004+46867+009533FM-12+055699999V0201801N001019999999N9999999N1+00451-00561100741ADDMA1999999094131MD1810081+9999OA149900931REMSYN076AAXX  13134 06786 33/// /1802 10045 21056 39413 40074 58008 333 91118 91209;
0128067860999992010011314004+46867+009533FM-12+055699999V0201901N001519999999N9999999N1+00461-00501100761ADDMA1999999094151MD1519999+9999OA149900571REMSYN076AAXX  13144 06786 33/// /1903 10046 21050 39415 40076 55/// 333 91111 91206;
0176067860999992010011315004+46867+009533FM-12+055699999V0209999C000010210019N0200001N1+00461-00531100791ADDGA1081+021001041GF108991999999022501999999MA1999999094181MD1210031+9999OA149900981REMSYN082AAXX  13154 06786 32870 80000 10046 21053 39418 40079 52003 333 88457 91119 91210;
0128067860999992010011316004+46867+009533FM-12+055699999V0200101N001519999999N9999999N1+00251-00251100901ADDMA1999999094231MD1310101+9999OA149900261REMSYN076AAXX  13164 06786 33/// /0103 10025 21025 39423 40090 53010 333 91105 91203;
0128067860999992010011317004+46867+009533FM-12+055699999V0200201N002119999999N9999999N1+00151-00231100991ADDMA1999999094291MD1310141+9999OA149900361REMSYN076AAXX  13174 06786 33/// /0204 10015 21023 39429 40099 53014 333 91107 91204;
0257067860999992010011318004+46867+009533FM-12+055699999V0200201N001510141019N0080001N1+00111-00221101081ADDAL19900091AY121061AY221061GA1081+014101071GF108991999999012501999999IA1019KA1120M+00481MA1999999094361MD1310181+9999MW1051OA149901131REMSYN112AAXX  13184 06786 31658 80203 10011 21022 39436 40108 53018 70522 333 10048 30/// 88747 90766 93100 91122 91213;
0128067860999992010011319004+46867+009533FM-12+055699999V0202001N000519999999N9999999N1+00101-00241101121ADDMA1999999094401MD1110171+9999OA149900311REMSYN076AAXX  13194 06786 33/// /2001 10010 21024 39440 40112 51017 333 91106 91204;
0128067860999992010011320004+46867+009533FM-12+055699999V0202301N000519999999N9999999N1+00081-00181101151ADDMA1999999094421MD1110131+9999OA149900151REMSYN076AAXX  13204 06786 33/// /2301 10008 21018 39442 40115 51013 333 91103 91201;
0204067860999992010011321004+46867+009533FM-12+055699999V0202601N000510180019N0020001N1+00071-00221101161ADDAY121031AY221031GA1081+018001071GF108991999999017501999999MA1999999094431MD1110071+9999MW1101OA149900361REMSYN088AAXX  13214 06786 31720 82601 10007 21022 39443 40116 51007 71022 333 88756 91107 91204;
0128067860999992010011322004+46867+009533FM-12+055699999V0202401N000519999999N9999999N1+00071-00211101161ADDMA1999999094431MD1210031+9999OA149900101REMSYN076AAXX  13224 06786 33/// /2401 10007 21021 39443 40116 52003 333 91102 91201;
0128067860999992010011323004+46867+009533FM-12+055699999V0202401N000519999999N9999999N1+00051-00201101161ADDMA1999999094421MD1810011+9999OA149900101REMSYN076AAXX  13234 06786 33/// /2401 10005 21020 39442 40116 58000 333 91102 91201;
0204067860999992010011400004+46867+009533FM-12+055699999V0201601N001010180019N0070001N1+00101-00221101081ADDAY121061AY221061GA1061+018001071GF106991999999017501999999MA1999999094361MD1710071+9999MW1101OA149900571REMSYN088AAXX  14004 06786 31757 61602 10010 21022 39436 40108 57007 71022 333 86756 91111 91206;
0128067860999992010011401004+46867+009533FM-12+055699999V0202301N001019999999N9999999N1-00021-00241101061ADDMA1999999094311MD1810121+9999OA149900311REMSYN076AAXX  14014 06786 33/// /2302 11002 21024 39431 40106 58012 333 91106 91202;
0128067860999992010011402004+46867+009533FM-12+055699999V0202001N002619999999N9999999N1+00121-00221101001ADDMA1999999094291MD1619999+9999OA149900411REMSYN076AAXX  14024 06786 33/// /2005 10012 21022 39429 40100 56/// 333 91108 91205;
0167067860999992010011403004+46867+009533FM-12+055699999V0202101N002612200019N0100001N1+00111-00261100941ADDAY111031AY211031GA1021+030001041GF102991999999999999999999MA1999999094231MW1101REMSYN076AAXX  14034 06786 31960 22105 10011 21026 39423 40094 5//// 71011 333 82460;
0128067860999992010011404004+46867+009533FM-12+055699999V0202001N003619999999N9999999N1+00081-00301100901ADDMA1999999094191MD1810121+9999OA149900821REMSYN076AAXX  14044 06786 33/// /2007 10008 21030 39419 40090 58012 333 91116 91207;
0128067860999992010011405004+46867+009533FM-12+055699999V0202201N002619999999N9999999N1+00001-00371100921ADDMA1999999094191MD1610101+9999OA149900821REMSYN076AAXX  14054 06786 33/// /2205 10000 21037 39419 40092 56010 333 91116 91207;
0324067860999992010011406004+46867+009533FM-12+055699999V0202001N003112200019N0250001N1+00021-00411100931ADDAA124000091AJ100039199999999AL19900091AL29900391GA1011+014101061GF101991999999012501999999GJ100009IA1279IA2999-00209KA1999N-00041MA1999999094201MD1510031+9999OA149900821REMSYN124AAXX  14064 06786 32675 12006 10002 21041 39420 40093 55003 333 21004 3/102 43003 55000 70000 81647 90768 93103 91116 91207;EQDQ01  00002PRCP24
0128067860999992010011407004+46867+009533FM-12+055699999V0201901N002619999999N9999999N1-00021-00421100951ADDMA1999999094211MD1110021+9999OA149900821REMSYN076AAXX  14074 06786 33/// /1905 11002 21042 39421 40095 51002 333 91116 91207;
0128067860999992010011408004+46867+009533FM-12+055699999V0202101N002619999999N9999999N1+00011-00451100951ADDMA1999999094221MD1119999+9999OA149900771REMSYN076AAXX  14084 06786 33/// /2105 10001 21045 39422 40095 51/// 333 91115 91207;
0176067860999992010011409004+46867+009533FM-12+055699999V0202101N005112200019N0350001N1+00181-00471100901ADDGA1011+024001031GF101991999999022501999999MA1999999094211MD1010011+9999OA149900981REMSYN082AAXX  14094 06786 32881 12110 10018 21047 39421 40090 50001 333 81358 91119 91210;
0128067860999992010011410004+46867+009533FM-12+055699999V0202001N005119999999N9999999N1+00321-00431100841ADDMA1999999094191MD1810021+9999OA149900981REMSYN076AAXX  14104 06786 33/// /2010 10032 21043 39419 40084 58002 333 91119 91210;
0128067860999992010011411004+46867+009533FM-12+055699999V0201901N004619999999N9999999N1+00491-00421100701ADDMA1999999094101MD1710121+9999OA149901081REMSYN076AAXX  14114 06786 33/// /1909 10049 21042 39410 40070 57012 333 91121 91211;
0176067860999992010011412004+46867+009533FM-12+055699999V0202001N006212200019N0350001N1+00481-00381100621ADDGA1041+105001001GF104991999999999999999999MA1999999094021MD1810191+9999OA149901181REMSYN082AAXX  14124 06786 32981 42012 10048 21038 39402 40062 58019 333 84081 91123 91212;
0128067860999992010011413004+46867+009533FM-12+055699999V0201901N005719999999N9999999N1+00641-00421100531ADDMA1999999093981MD1610211+9999OA149901181REMSYN076AAXX  14134 06786 33/// /1911 10064 21042 39398 40053 56021 333 91123 91212;
0128067860999992010011414004+46867+009533FM-12+055699999V0202001N005119999999N9999999N1+00661-00441100531ADDMA1999999093981MD1710121+9999OA149901081REMSYN076AAXX  14144 06786 33/// /2010 10066 21044 39398 40053 57012 333 91121 91212;
0176067860999992010011415004+46867+009533FM-12+055699999V0202001N004110390019N0300001N1+00621-00491100571ADDGA1061+039001031GF106991999999999999999999MA1999999094011MD1510011+9999OA149901181REMSYN082AAXX  14154 06786 32980 62008 10062 21049 39401 40057 55001 333 86363 91123 91212;
0128067860999992010011416004+46867+009533FM-12+055699999V0201801N004119999999N9999999N1+00501-00471100641ADDMA1999999094051MD1310071+9999OA149900881REMSYN076AAXX  14164 06786 33/// /1808 10050 21047 39405 40064 53007 333 91117 91211;
0128067860999992010011417004+46867+009533FM-12+055699999V0201701N005719999999N9999999N1+00481-00551100711ADDMA1999999094111MD1310131+9999OA149900981REMSYN076AAXX  14174 06786 33/// /1711 10048 21055 39411 40071 53013 333 91119 91212;
0246067860999992010011418004+46867+009533FM-12+055699999V0201601N004612200019N0250001N1+00411-00571100821ADDAJ100039199999999AL19900091GA1031+090001001GF103991999999999999999999IA1229KA1120M+00721MA1999999094191MD1310181+9999OA149901181REMSYN106AAXX  14184 06786 32975 31609 10041 21057 39419 40082 53018 333 10072 46003 83080 90766 93100 91123 91212;
0128067860999992010011419004+46867+009533FM-12+055699999V0202201N002619999999N9999999N1+00301-00581100911ADDMA1999999094251MD1210201+9999OA149900931REMSYN076AAXX  14194 06786 33/// /2205 10030 21058 39425 40091 52020 333 91118 91212;
0128067860999992010011420004+46867+009533FM-12+055699999V0202201N002119999999N9999999N1+00241-00481101001ADDMA1999999094321MD1110211+9999OA149900881REMSYN076AAXX  14204 06786 33/// /2204 10024 21048 39432 40100 51021 333 91117 91209;
0176067860999992010011421004+46867+009533FM-12+055699999V0202201N002112200019N0250001N1+00131-00451101091ADDGA1041+039001041GF104991999999999999999999MA1999999094381MD1210191+9999OA149900981REMSYN082AAXX  14214 06786 32975 42204 10013 21045 39438 40109 52019 333 84463 91119 91212;
0128067860999992010011422004+46867+009533FM-12+055699999V0202101N001519999999N9999999N1+00091-00491101171ADDMA1999999094441MD1210191+9999OA149900671REMSYN076AAXX  14224 06786 33/// /2103 10009 21049 39444 40117 52019 333 91113 91208;
0128067860999992010011423004+46867+009533FM-12+055699999V0202501N002119999999N9999999N1+00251-00561101211ADDMA1999999094521MD1310201+9999OA149900671REMSYN076AAXX  14234 06786 33/// /2504 10025 21056 39452 40121 53020 333 91113 91208;
0176067860999992010011500004+46867+009533FM-12+055699999V0200601N001012200019N0250001N1-00011-00551101351ADDGA1011+039001031GF101991999999999999999999MA1999999094591MD1310211+9999OA149901081REMSYN082AAXX  15004 06786 32975 10602 11001 21055 39459 40135 53021 333 81363 91121 91212;
0128067860999992010011501004+46867+009533FM-12+055699999V0200201N002119999999N9999999N1-00131-00421101471ADDMA1999999094671MD1210231+9999OA149900311REMSYN076AAXX  15014 06786 33/// /0204 11013 21042 39467 40147 52023 333 91106 91204;
0128067860999992010011502004+46867+009533FM-12+055699999V0200301N003619999999N9999999N1-00181-00251101581ADDMA1999999094761MD1310241+9999OA149900511REMSYN076AAXX  15024 06786 33/// /0307 11018 21025 39476 40158 53024 333 91110 91207;
0167067860999992010011503004+46867+009533FM-12+055699999V0200401N001512200019N0010001N1-00151-00261101691ADDAY101031AY201031GA1011+033001031GF101991999999999999999999MA1999999094871MW1101REMSYN076AAXX  15034 06786 31910 10403 11015 21026 39487 40169 5//// 71000 333 81361;
0128067860999992010011504004+46867+009533FM-12+055699999V0200801N001519999999N9999999N1-00191-00301101801ADDMA1999999094961MD1210291+9999OA149900511REMSYN076AAXX  15044 06786 33/// /0803 11019 21030 39496 40180 52029 333 91110 91207;
0128067860999992010011505004+46867+009533FM-12+055699999V0201701N001019999999N9999999N1-00201-00331101901ADDMA1999999095051MD1210291+9999OA149900261REMSYN076AAXX  15054 06786 33/// /1702 11020 21033 39505 40190 52029 333 91105 91203;
0342067860999992010011506004+46867+009533FM-12+055699999V0201501N001010003019N0030001N1-00211-00331102031ADDAA124000091AJ100029199999999AL19900091AY111061AY211061GA1081+000301071GF108991999999000251999999GJ102829IA1309IA2999-00509KA1999N-00251MA1999999095171MD1210301+9999MW1101OA149900881REMSYN130AAXX  15064 06786 31030 81502 11021 21033 39517 40203 52030 71011 333 21025 3/105 42002 55047 70000 88701 90768 93100 91117 91209;EQDQ01  00002PRCP24
0128067860999992010011507004+46867+009533FM-12+055699999V0202001N001019999999N9999999N1-00281-00361102181ADDMA1999999095291MD1210331+9999OA149900211REMSYN076AAXX  15074 06786 33/// /2002 11028 21036 39529 40218 52033 333 91104 91203;
0128067860999992010011508004+46867+009533FM-12+055699999V0202301N001519999999N9999999N1-00361-00441102281ADDMA1999999095371MD1119999+9999OA149900211REMSYN076AAXX  15084 06786 33/// /2303 11036 21044 39537 40228 51/// 333 91104 91203;
0176067860999992010011509004+46867+009533FM-12+055699999V0201701N001011050019N0300001N1-00271-00511102321ADDGA1051+105001001GF105991999999999999999999MA1999999095431MD1110261+9999OA149900261REMSYN082AAXX  15094 06786 32980 51702 11027 21051 39543 40232 51026 333 85081 91105 91203;
0128067860999992010011510004+46867+009533FM-12+055699999V0201701N001019999999N9999999N1-00061-00521102291ADDMA1999999095451MD1210161+9999OA149900261REMSYN076AAXX  15104 06786 33/// /1702 11006 21052 39545 40229 52016 333 91105 91203;
0128067860999992010011511004+46867+009533FM-12+055699999V0202401N000519999999N9999999N1+00091-00641102241ADDMA1999999095441MD1010071+9999OA149900261REMSYN076AAXX  15114 06786 33/// /2401 10009 21064 39544 40224 50007 333 91105 91203;
0176067860999992010011512004+46867+009533FM-12+055699999V0200301N002611050019N0350001N1+00281-00531102201ADDGA1071+105001001GF107991999999999999999999MA1999999095451MD1210021+9999OA149900511REMSYN082AAXX  15124 06786 32981 70305 10028 21053 39545 40220 52002 333 87081 91110 91207;
0128067860999992010011513004+46867+009533FM-12+055699999V0200301N003119999999N9999999N1+00351-00411102191ADDMA1999999095461MD1310011+9999OA149900511REMSYN076AAXX  15134 06786 33/// /0306 10035 21041 39546 40219 53001 333 91110 91206;
0128067860999992010011514004+46867+009533FM-12+055699999V0200301N004119999999N9999999N1+00281-00401102291ADDMA1999999095531MD1210091+9999OA149900671REMSYN076AAXX  15144 06786 33/// /0308 10028 21040 39553 40229 52009 333 91113 91208;
0176067860999992010011515004+46867+009533FM-12+055699999V0200301N003610900019N0300001N1+00201-00291102421ADDGA1051+090001001GF105991999999999999999999MA1999999095641MD1210191+9999OA149900671REMSYN082AAXX  15154 06786 32980 50307 10020 21029 39564 40242 52019 333 85080 91113 91208;
0128067860999992010011516004+46867+009533FM-12+055699999V0200201N002119999999N9999999N1+00101-00271102551ADDMA1999999095731MD1310271+9999OA149900671REMSYN076AAXX  15164 06786 33/// /0204 10010 21027 39573 40255 53027 333 91113 91208;
0128067860999992010011517004+46867+009533FM-12+055699999V0200101N000519999999N9999999N1+00031-00301102651ADDMA1999999095811MD1210281+9999OA149900571REMSYN076AAXX  15174 06786 33/// /0101 10003 21030 39581 40265 52028 333 91111 91206;
0274067860999992010011518004+46867+009533FM-12+055699999V0202001N001010780019N0120001N1-00041-00311102731ADDAJ100029199999999AL19900091AY121061AY221061GA1051+078001001GF105991999999999999999999IA1259KA1120M+00351MA1999999095871MD1110231+9999MW1101OA149900671REMSYN112AAXX  15184 06786 31962 52002 11004 21031 39587 40273 51023 71022 333 10035 41002 85076 90766 93100 91113 91208;
0128067860999992010011519004+46867+009533FM-12+055699999V0202601N001019999999N9999999N1-00051-00341102761ADDMA1999999095891MD1210161+9999OA149900261REMSYN076AAXX  15194 06786 33/// /2602 11005 21034 39589 40276 52016 333 91105 91203;
0128067860999992010011520004+46867+009533FM-12+055699999V0202001N002119999999N9999999N1-00091-00391102761ADDMA1999999095881MD1210071+9999OA149900411REMSYN076AAXX  15204 06786 33/// /2004 11009 21039 39588 40276 52007 333 91108 91204;
0198067860999992010011521004+46867+009533FM-12+055699999V0202001N002612200019N0120001N1-00071-00451102751ADDAY111031AY211031GA1001+999999999GF100991001001999999001001MA1999999095881MD1010011+9999MW1101OA149900571REMSYN082AAXX  15214 06786 31/62 02005 11007 21045 39588 40275 50001 71011 333 91111 91206;
0128067860999992010011522004+46867+009533FM-12+055699999V0201801N002619999999N9999999N1-00071-00541102751ADDMA1999999095881MD1510011+9999OA149900511REMSYN076AAXX  15224 06786 33/// /1805 11007 21054 39588 40275 55001 333 91110 91206;
0128067860999992010011523004+46867+009533FM-12+055699999V0202001N001519999999N9999999N1-00191-00571102811ADDMA1999999095901MD1310021+9999OA149900511REMSYN076AAXX  15234 06786 33/// /2003 11019 21057 39590 40281 53002 333 91110 91205;
0198067860999992010011600004+46867+009533FM-12+055699999V0201901N002112200019N0120001N1-00141-00601102781ADDAY111061AY211061GA1001+999999999GF100991001001999999001001MA1999999095891MD1010011+9999MW1101OA149900671REMSYN082AAXX  16004 06786 31/62 01904 11014 21060 39589 40278 50001 71011 333 91113 91208;
0128067860999992010011601004+46867+009533FM-12+055699999V0202001N003119999999N9999999N1-00131-00631102751ADDMA1999999095861MD1810021+9999OA149900511REMSYN076AAXX  16014 06786 33/// /2006 11013 21063 39586 40275 58002 333 91110 91206;
0128067860999992010011602004+46867+009533FM-12+055699999V0202201N001019999999N9999999N1-00181-00701102751ADDMA1999999095851MD1710051+9999OA149900511REMSYN076AAXX  16024 06786 33/// /2202 11018 21070 39585 40275 57005 333 91110 91206;
0198067860999992010011603004+46867+009533FM-12+055699999V0201901N002112200019N0120001N1-00191-00731102721ADDAY101031AY201031GA1001+999999999GF100991001001999999001001MA1999999095821MD1719999+9999MW1101OA149900511REMSYN082AAXX  16034 06786 31/62 01904 11019 21073 39582 40272 57/// 71000 333 91110 91206;
0128067860999992010011604004+46867+009533FM-12+055699999V0202001N003119999999N9999999N1-00201-00761102691ADDMA1999999095791MD1710071+9999OA149900621REMSYN076AAXX  16044 06786 33/// /2006 11020 21076 39579 40269 57007 333 91112 91206;
0128067860999992010011605004+46867+009533FM-12+055699999V0202001N002619999999N9999999N1-00231-00801102711ADDMA1999999095801MD1710051+9999OA149900621REMSYN076AAXX  16054 06786 33/// /2005 11023 21080 39580 40271 57005 333 91112 91206;
0308067860999992010011606004+46867+009533FM-12+055699999V0201801N002612200019N0200001N1-00221-00841102651ADDAA124000091AJ100029199999999AL19900091GA1001+999999999GF100991001001999999001001GJ103309IA1259IA2999-00509KA1999N-00251MA1999999095751MD1710071+9999OA149900621REMSYN118AAXX  16064 06786 32/70 01805 11022 21084 39575 40265 57007 333 21025 3/105 41002 55055 70000 90768 93100 91112 91206;EQDQ01  00002PRCP24
0128067860999992010011607004+46867+009533FM-12+055699999V0202201N002119999999N9999999N1-00201-00911102641ADDMA1999999095741MD1710051+9999OA149900621REMSYN076AAXX  16074 06786 33/// /2204 11020 21091 39574 40264 57005 333 91112 91207;
0128067860999992010011608004+46867+009533FM-12+055699999V0202001N003619999999N9999999N1-00161-00981102591ADDMA1999999095711MD1610091+9999OA149900771REMSYN076AAXX  16084 06786 33/// /2007 11016 21098 39571 40259 56009 333 91115 91207;
0170067860999992010011609004+46867+009533FM-12+055699999V0202001N003612200019N0400001N1-00121-01061102551ADDGA1001+999999999GF100991001001999999001001MA1999999095681MD1610071+9999OA149900881REMSYN076AAXX  16094 06786 32/82 02007 11012 21106 39568 40255 56007 333 91117 91207;
0128067860999992010011610004+46867+009533FM-12+055699999V0201901N003619999999N9999999N1+00121-00981102381ADDMA1999999095581MD1810161+9999OA149900881REMSYN076AAXX  16104 06786 33/// /1907 10012 21098 39558 40238 58016 333 91117 91210;
0128067860999992010011611004+46867+009533FM-12+055699999V0201801N005719999999N9999999N1+00361-01031102191ADDMA1999999095461MD1810251+9999OA149901081REMSYN076AAXX  16114 06786 33/// /1811 10036 21103 39546 40219 58025 333 91121 91211;
0176067860999992010011612004+46867+009533FM-12+055699999V0201901N004112200019N0400001N1+00531-00921102031ADDGA1011+105001001GF101991999999999999999999MA1999999095351MD1710331+9999OA149901081REMSYN082AAXX  16124 06786 32982 11908 10053 21092 39535 40203 57033 333 81081 91121 91211;
0128067860999992010011613004+46867+009533FM-12+055699999V0202201N004119999999N9999999N1+00681-01091101871ADDMA1999999095241MD1710341+9999OA149901031REMSYN076AAXX  16134 06786 33/// /2208 10068 21109 39524 40187 57034 333 91120 91210;
0128067860999992010011614004+46867+009533FM-12+055699999V0202101N002619999999N9999999N1+00611-01001101861ADDMA1999999095211MD1619999+9999OA149901031REMSYN076AAXX  16144 06786 33/// /2105 10061 21100 39521 40186 56/// 333 91120 91208;
0176067860999992010011615004+46867+009533FM-12+055699999V0202201N001510900019N0250001N1+00531-00961101901ADDGA1071+090001001GF107991999999999999999999MA1999999095231MD1710121+9999OA149901081REMSYN082AAXX  16154 06786 32975 72203 10053 21096 39523 40190 57012 333 87080 91121 91211;
0147067860999992010011616004+46867+009533FM-12+055699999V0200101N002619999999N9999999N1+00111-00441102021ADDMA1999999095241MD1310151+9999OA149900671REMSYN076AAXX  16164 06786 33/// /0105 10011 21044 39524 40202 53000 333 91113 91208;EQDQ01+000002APC3  
0128067860999992010011617004+46867+009533FM-12+055699999V0202701N000519999999N9999999N1+00061-00391102001ADDMA1999999095211MD1010001+9999OA149900671REMSYN076AAXX  16174 06786 33/// /2701 10006 21039 39521 40200 50000 333 91113 91208;
0229067860999992010011618004+46867+009533FM-12+055699999V0201801N002110900019N0200001N1+00321-00631101891ADDAL19900091GA1081+090001001GF108991999999999999999999IA1019KA1120M+00681MA1999999095171MD1810061+9999OA149901081REMSYN106AAXX  16184 06786 32970 81804 10032 21063 39517 40189 58006 333 10068 30/// 88080 90766 93100 91121 91211;
0128067860999992010011619004+46867+009533FM-12+055699999V0202201N002619999999N9999999N1+00431-00681101811ADDMA1999999095121MD1710121+9999OA149900511REMSYN076AAXX  16194 06786 33/// /2205 10043 21068 39512 40181 57012 333 91110 91205;
0128067860999992010011620004+46867+009533FM-12+055699999V0202101N003619999999N9999999N1+00601-00751101651ADDMA1999999095011MD1710201+9999OA149900881REMSYN076AAXX  16204 06786 33/// /2107 10060 21075 39501 40165 57020 333 91117 91207;
