0149067880999992011010100004+46517+009183FM-12+161199999V0202601N001019999999N9999999N1-01211-01931999999ADDMA1999999083801MD1810081+9999ME1315109OA149900461REMSYN088AAXX  01004 06788 33/// /2602 11121 21193 38380 48510 58008 333 55300 20007 91109 91208;
0149067880999992011010101004+46517+009183FM-12+161199999V0209999C000019999999N9999999N1-01291-02431999999ADDMA1999999083771MD1710111+9999ME1315079OA149900311REMSYN088AAXX  01014 06788 33/// /0000 11129 21243 38377 48507 57011 333 55300 20011 91106 91202;
0149067880999992011010102004+46517+009183FM-12+161199999V0209999C000019999999N9999999N1-01281-02281999999ADDMA1999999083751MD1710101+9999ME1315059OA149900001REMSYN088AAXX  01024 06788 33/// /0000 11128 21228 38375 48505 57010 333 55300 20011 91100 91200;
0149067880999992011010103004+46517+009183FM-12+161199999V0209999C000019999999N9999999N1-01241-02021999999ADDMA1999999083711MD1710091+9999ME1315029OA149900361REMSYN088AAXX  01034 06788 33/// /0000 11124 21202 38371 48502 57009 333 55300 20011 91107 91205;
0149067880999992011010104004+46517+009183FM-12+161199999V0202601N000519999999N9999999N1-01381-02101999999ADDMA1999999083661MD1810111+9999ME1314989OA149900311REMSYN088AAXX  01044 06788 33/// /2601 11138 21210 38366 48498 58011 333 55300 20007 91106 91202;
0149067880999992011010105004+46517+009183FM-12+161199999V0209999C000019999999N9999999N1-01401-02231999999ADDMA1999999083661MD1710091+9999ME1314989OA149900311REMSYN088AAXX  01054 06788 33/// /0000 11140 21223 38366 48498 57009 333 55300 20011 91106 91202;
0216067880999992011010106004+46517+009183FM-12+161199999V0209999C000019999999N9999999N1-01281-02421999999ADDAL19900091GJ101509IA2999-01809KA1999N-01441MA1999999083651MD1710061+9999ME1314969OA149900361REMSYN112AAXX  01064 06788 33/// /0000 11128 21242 38365 48496 57006 333 21144 3/118 55025 55300 20011 70000 91107 91205;
0149067880999992011010107004+46517+009183FM-12+161199999V0202501N001019999999N9999999N1-01291-02571999999ADDMA1999999083671MD1310011+9999ME1314989OA149900311REMSYN088AAXX  01074 06788 33/// /2502 11129 21257 38367 48498 53001 333 55300 20011 91106 91205;
0149067880999992011010108004+46517+009183FM-12+161199999V0209999C000019999999N9999999N1-01231-02521999999ADDMA1999999083701MD1219999+9999ME1315019OA149900311REMSYN088AAXX  01084 06788 33/// /0000 11123 21252 38370 48501 52/// 333 55300 20043 91106 91205;
0096067880999992011010109004+46517+009183FM-12+161199999V0209999C000019999999N9999999N1-01291-02381999999ADDMA1999999083691ME1315009REMSYN060AAXX  01094 06788 43/// /0000 11129 21238 38369 48500 5////;
0096067880999992011010110004+46517+009183FM-12+161199999V0209999C000019999999N9999999N1-01201-02321999999ADDMA1999999083671ME1314989REMSYN060AAXX  01104 06788 43/// /0000 11120 21232 38367 48498 5////;
0149067880999992011010111004+46517+009183FM-12+161199999V0209999C000019999999N9999999N1-00971-01991999999ADDMA1999999083631MD1810071+9999ME1314939OA149900151REMSYN088AAXX  01114 06788 33/// /0000 11097 21199 38363 48493 58007 333 55301 20353 91103 91200;
0096067880999992011010112004+46517+009183FM-12+161199999V0202401N001019999999N9999999N1-00771-01471999999ADDMA1999999083571ME1314869REMSYN060AAXX  01124 06788 43/// /2402 11077 21147 38357 48486 5////;
0096067880999992011010113004+46517+009183FM-12+161199999V0209999C000019999999N9999999N1-00881-01431999999ADDMA1999999083521ME1314829REMSYN060AAXX  01134 06788 43/// /0000 11088 21143 38352 48482 5////;
0096067880999992011010114004+46517+009183FM-12+161199999V0209999C000019999999N9999999N1-00941-01801999999ADDMA1999999083501ME1314819REMSYN060AAXX  01144 06788 43/// /0000 11094 21180 38350 48481 5////;
0096067880999992011010115004+46517+009183FM-12+161199999V0202601N001019999999N9999999N1-01031-01891999999ADDMA1999999083521ME1314839REMSYN060AAXX  01154 06788 43/// /2602 11103 21189 38352 48483 5////;
0096067880999992011010116004+46517+009183FM-12+161199999V0209999C000019999999N9999999N1-01121-02171999999ADDMA1999999083531ME1314849REMSYN060AAXX  01164 06788 43/// /0000 11112 21217 38353 48484 5////;
0096067880999992011010117004+46517+009183FM-12+161199999V0202501N001019999999N9999999N1-01081-02181999999ADDMA1999999083481ME1314809REMSYN060AAXX  01174 06788 43/// /2502 11108 21218 38348 48480 5////;
0096067880999992011010118004+46517+009183FM-12+161199999V0209999C000019999999N9999999N1-01061-02271999999ADDMA1999999083471ME1314799REMSYN060AAXX  01184 06788 43/// /0000 11106 21227 38347 48479 5////;
0112067880999992011010119004+46517+009183FM-12+161199999V0209999C000019999999N9999999N1-01261-02361999999ADDMA1999999083471ME1314809REMSYN076AAXX  01194 06788 33/// /0000 11126 21236 38347 48480 5//// 333 553// 20011;
0149067880999992011010120004+46517+009183FM-12+161199999V0209999C000019999999N9999999N1-01141-01771999999ADDMA1999999083481MD1510001+9999ME1314809OA149900151REMSYN088AAXX  01204 06788 33/// /0000 11114 21177 38348 48480 55000 333 55300 20011 91103 91200;
0149067880999992011010121004+46517+009183FM-12+161199999V0209999C000019999999N9999999N1-01281-02221999999ADDMA1999999083481MD1310011+9999ME1314819OA149900311REMSYN088AAXX  01214 06788 33/// /0000 11128 21222 38348 48481 53001 333 55300 20011 91106 91202;
0149067880999992011010122004+46517+009183FM-12+161199999V0209999C000019999999N9999999N1-01431-01781999999ADDMA1999999083471MD1010001+9999ME1314819OA149900211REMSYN088AAXX  01224 06788 33/// /0000 11143 21178 38347 48481 50000 333 55300 20011 91104 91200;
0149067880999992011010123004+46517+009183FM-12+161199999V0209999C000019999999N9999999N1-01351-02561999999ADDMA1999999083431MD1710051+9999ME1314769OA149900211REMSYN088AAXX  01234 06788 33/// /0000 11135 21256 38343 48476 57005 333 55300 20011 91104 91200;
0149067880999992011010200004+46517+009183FM-12+161199999V0209999C000019999999N9999999N1-01281-01831999999ADDMA1999999083361MD1710121+9999ME1314709OA149900311REMSYN088AAXX  02004 06788 33/// /0000 11128 21183 38336 48470 57012 333 55300 20011 91106 91203;
0149067880999992011010201004+46517+009183FM-12+161199999V0209999C000019999999N9999999N1-01381-01911999999ADDMA1999999083311MD1610161+9999ME1314669OA149900151REMSYN088AAXX  02014 06788 33/// /0000 11138 21191 38331 48466 56016 333 55300 20011 91103 91200;
0096067880999992011010202004+46517+009183FM-12+161199999V0209999C000019999999N9999999N1-01341-02641999999ADDMA1999999083321ME1314669REMSYN060AAXX  02024 06788 43/// /0000 11134 21264 38332 48466 5////;
0096067880999992011010203004+46517+009183FM-12+161199999V0209999C000019999999N9999999N1-01501-02191999999ADDMA1999999083291ME1314659REMSYN060AAXX  02034 06788 43/// /0000 11150 21219 38329 48465 5////;
0096067880999992011010204004+46517+009183FM-12+161199999V0202401N000519999999N9999999N1-01301-01821999999ADDMA1999999083251ME1314609REMSYN060AAXX  02044 06788 43/// /2401 11130 21182 38325 48460 5////;
0096067880999992011010205004+46517+009183FM-12+161199999V0209999C000019999999N9999999N1-01491-01561999999ADDMA1999999083281ME1314649REMSYN060AAXX  02054 06788 43/// /0000 11149 21156 38328 48464 5////;
0143067880999992011010206004+46517+009183FM-12+161199999V0202301N001519999999N9999999N1-01351-02191999999ADDIA2999-01809KA1999N-01521MA1999999083291ME1314649REMSYN082AAXX  02064 06788 43/// /2303 11135 21219 38329 48464 5//// 333 21152 3/118 55026;
0149067880999992011010207004+46517+009183FM-12+161199999V0209999C000019999999N9999999N1-01461-01911999999ADDMA1999999083271MD1010021+9999ME1314629OA149900361REMSYN088AAXX  02074 06788 33/// /0000 11146 21191 38327 48462 50002 333 55300 20011 91107 91204;
0149067880999992011010208004+46517+009183FM-12+161199999V0209999C000019999999N9999999N1-01571-02091999999ADDMA1999999083341MD1210061+9999ME1314709OA149900261REMSYN088AAXX  02084 06788 33/// /0000 11157 21209 38334 48470 52006 333 55300 20043 91105 91201;
0149067880999992011010209004+46517+009183FM-12+161199999V0209999C000019999999N9999999N1-01561-02041999999ADDMA1999999083391MD1210101+9999ME1314749OA149900361REMSYN088AAXX  02094 06788 33/// /0000 11156 21204 38339 48474 52010 333 55300 20108 91107 91204;
0149067880999992011010210004+46517+009183FM-12+161199999V0209999C000019999999N9999999N1-01501-02061999999ADDMA1999999083431MD1210161+9999ME1314779OA149900311REMSYN088AAXX  02104 06788 33/// /0000 11150 21206 38343 48477 52016 333 55300 20191 91106 91203;
0149067880999992011010211004+46517+009183FM-12+161199999V0202401N002619999999N9999999N1-01111-01731999999ADDMA1999999083391MD1010051+9999ME1314719OA149900461REMSYN088AAXX  02114 06788 33/// /2405 11111 21173 38339 48471 50005 333 55300 20583 91109 91205;
0149067880999992011010212004+46517+009183FM-12+161199999V0209999C000019999999N9999999N1-00931-01491999999ADDMA1999999083341MD1710051+9999ME1314669OA149900461REMSYN088AAXX  02124 06788 33/// /0000 11093 21149 38334 48466 57005 333 55300 20763 91109 91205;
0149067880999992011010213004+46517+009183FM-12+161199999V0209999C000019999999N9999999N1-00751-01161999999ADDMA1999999083311MD1710121+9999ME1314629OA149900261REMSYN088AAXX  02134 06788 33/// /0000 11075 21116 38331 48462 57012 333 55300 20619 91105 91200;
0112067880999992011010214004+46517+009183FM-12+161199999V0200201N003119999999N9999999N1-00591-01101999999ADDMA1999999083331ME1314639REMSYN076AAXX  02144 06788 33/// /0206 11059 21110 38333 48463 5//// 333 553// 20414;
0149067880999992011010215004+46517+009183FM-12+161199999V0200401N006719999999N9999999N1-00591-01151999999ADDMA1999999083361MD1310021+9999ME1314669OA149901031REMSYN088AAXX  02154 06788 33/// /0413 11059 21115 38336 48466 53002 333 55300 20198 91120 91213;
0149067880999992011010216004+46517+009183FM-12+161199999V0200501N005719999999N9999999N1-00621-01011999999ADDMA1999999083371MD1210061+9999ME1314679OA149901181REMSYN088AAXX  02164 06788 33/// /0511 11062 21101 38337 48467 52006 333 55300 20054 91123 91213;
0149067880999992011010217004+46517+009183FM-12+161199999V0200701N006219999999N9999999N1-00671-00971999999ADDMA1999999083401MD1210071+9999ME1314709OA149901181REMSYN088AAXX  02174 06788 33/// /0712 11067 21097 38340 48470 52007 333 55300 20011 91123 91213;
0168067880999992011010218004+46517+009183FM-12+161199999V0200601N005119999999N9999999N1-00751-01021999999ADDKA1120M-00581MA1999999083451MD1210091+9999ME1314759OA149901181REMSYN094AAXX  02184 06788 33/// /0610 11075 21102 38345 48475 52009 333 11058 55300 20007 91123 91213;
0149067880999992011010219004+46517+009183FM-12+161199999V0200701N004619999999N9999999N1-00801-01091999999ADDMA1999999083481MD1210111+9999ME1314789OA149900881REMSYN088AAXX  02194 06788 33/// /0709 11080 21109 38348 48478 52011 333 55300 20011 91117 91212;
0149067880999992011010220004+46517+009183FM-12+161199999V0200701N003619999999N9999999N1-00851-01151999999ADDMA1999999083531MD1210131+9999ME1314839OA149900771REMSYN088AAXX  02204 06788 33/// /0707 11085 21115 38353 48483 52013 333 55300 20011 91115 91210;
0149067880999992011010221004+46517+009183FM-12+161199999V0209999C000019999999N9999999N1-01141-01451999999ADDMA1999999083541MD1210091+9999ME1314859OA149901181REMSYN088AAXX  02214 06788 33/// /0000 11114 21145 38354 48485 52009 333 55300 20007 91123 91213;
0149067880999992011010222004+46517+009183FM-12+161199999V0209999C000019999999N9999999N1-01271-01681999999ADDMA1999999083571MD1210091+9999ME1314899OA149900721REMSYN088AAXX  02224 06788 33/// /0000 11127 21168 38357 48489 52009 333 55300 20011 91114 91208;
0149067880999992011010223004+46517+009183FM-12+161199999V0202101N001019999999N9999999N1-01181-02141999999ADDMA1999999083571MD1210041+9999ME1314889OA149900571REMSYN088AAXX  02234 06788 33/// /2102 11118 21214 38357 48488 52004 333 55300 20011 91111 91207;
0149067880999992011010300004+46517+009183FM-12+161199999V0202501N003119999999N9999999N1-01161-01951999999ADDMA1999999083561MD1010021+9999ME1314879OA149901181REMSYN088AAXX  03004 06788 33/// /2506 11116 21195 38356 48487 50002 333 55300 20011 91123 91213;
0149067880999992011010301004+46517+009183FM-12+161199999V0202701N000519999999N9999999N1-01091-02021999999ADDMA1999999083551MD1710021+9999ME1314869OA149900511REMSYN088AAXX  03014 06788 33/// /2701 11109 21202 38355 48486 57002 333 55300 20011 91110 91207;
0149067880999992011010302004+46517+009183FM-12+161199999V0200101N003119999999N9999999N1-00981-01521999999ADDMA1999999083571MD1519999+9999ME1314879OA149900621REMSYN088AAXX  03024 06788 33/// /0106 11098 21152 38357 48487 55/// 333 55300 20011 91112 91206;
0096067880999992011010303004+46517+009183FM-12+161199999V0202801N003119999999N9999999N1-01051-01891999999ADDMA1999999083551ME1314869REMSYN060AAXX  03034 06788 43/// /2806 11105 21189 38355 48486 5////;
0149067880999992011010304004+46517+009183FM-12+161199999V0209999C000019999999N9999999N1-01081-01771999999ADDMA1999999083551MD1010001+9999ME1314869OA149900821REMSYN088AAXX  03044 06788 33/// /0000 11108 21177 38355 48486 50000 333 55300 20007 91116 91209;
0149067880999992011010305004+46517+009183FM-12+161199999V0209999C000019999999N9999999N1-01111-01671999999ADDMA1999999083561MD1510011+9999ME1314879OA149900721REMSYN088AAXX  03054 06788 33/// /0000 11111 21167 38356 48487 55001 333 55300 20007 91114 91209;
0216067880999992011010306004+46517+009183FM-12+161199999V0209999C000019999999N9999999N1-01171-01871999999ADDAL19900091GJ100009IA2999-01609KA1999N-01331MA1999999083571MD1210021+9999ME1314889OA149900821REMSYN112AAXX  03064 06788 33/// /0000 11117 21187 38357 48488 52002 333 21133 3/116 55000 55300 20007 70000 91116 91210;
0149067880999992011010307004+46517+009183FM-12+161199999V0209999C000019999999N9999999N1-01261-01861999999ADDMA1999999083601MD1210051+9999ME1314929OA149900261REMSYN088AAXX  03074 06788 33/// /0000 11126 21186 38360 48492 52005 333 55300 20007 91105 91201;
0149067880999992011010308004+46517+009183FM-12+161199999V0209999C000019999999N9999999N1-01521-01981999999ADDMA1999999083631MD1219999+9999ME1314969OA149900261REMSYN088AAXX  03084 06788 33/// /0000 11152 21198 38363 48496 52/// 333 55300 20040 91105 91201;
0112067880999992011010309004+46517+009183FM-12+161199999V0209999C000019999999N9999999N1-01621-01621999999ADDMA1999999083641ME1314979REMSYN076AAXX  03094 06788 33/// /0000 11162 21162 38364 48497 5//// 333 553// 20108;
0149067880999992011010310004+46517+009183FM-12+161199999V0209999C000019999999N9999999N1-01761-02101999999ADDMA1999999083641MD1210041+9999ME1314989OA149900001REMSYN088AAXX  03104 06788 33/// /0000 11176 21210 38364 48498 52004 333 55300 20184 91100 91200;
0168067880999992011010311004+46517+009183FM-12+161199999V0209999C000019999999N9999999N1-01581-01611999999ADDMA1999999083631MD1410001+9999ME1314969OA149900001REMSYN088AAXX  03114 06788 33/// /0000 11158 21161 38363 48496 58000 333 55302 20407 91100 91200;EQDQ01+000082APCTEN
0149067880999992011010312004+46517+009183FM-12+161199999V0209999C000019999999N9999999N1-01571-01631999999ADDMA1999999083541MD1710101+9999ME1314889OA149900821REMSYN088AAXX  03124 06788 33/// /0000 11157 21163 38354 48488 57010 333 553// 2//// 91116 91209;
0149067880999992011010313004+46517+009183FM-12+161199999V0209999C000019999999N9999999N1-01621-01751999999ADDMA1999999083501MD1710141+9999ME1314849OA149900261REMSYN088AAXX  03134 06788 33/// /0000 11162 21175 38350 48484 57014 333 553// 2//// 91105 91200;
0112067880999992011010314004+46517+009183FM-12+161199999V0209999C000019999999N9999999N1-01641-02021999999ADDMA1999999083481ME1314839REMSYN076AAXX  03144 06788 33/// /0000 11164 21202 38348 48483 5//// 333 553// 20594;
0112067880999992011010315004+46517+009183FM-12+161199999V0209999C000019999999N9999999N1-01661-01891999999ADDMA1999999083491ME1314849REMSYN076AAXX  03154 06788 33/// /0000 11166 21189 38349 48484 5//// 333 553// 20108;
0168067880999992011010316004+46517+009183FM-12+161199999V0202601N001019999999N9999999N1-01581-01881999999ADDMA1999999083501MD1410001+9999ME1314849OA149900311REMSYN088AAXX  03164 06788 33/// /2602 11158 21188 38350 48484 53000 333 55300 20036 91106 91204;EQDQ01+000032APCTEN
0149067880999992011010317004+46517+009183FM-12+161199999V0209999C000019999999N9999999N1-01751-01851999999ADDMA1999999083531MD1210051+9999ME1314889OA149900311REMSYN088AAXX  03174 06788 33/// /0000 11175 21185 38353 48488 52005 333 55300 20007 91106 91204;
0168067880999992011010318004+46517+009183FM-12+161199999V0209999C000019999999N9999999N1-01711-01971999999ADDKA1120M-01171MA1999999083531MD1210041+9999ME1314879OA149900311REMSYN094AAXX  03184 06788 33/// /0000 11171 21197 38353 48487 52004 333 11117 55300 20007 91106 91204;
0149067880999992011010319004+46517+009183FM-12+161199999V0209999C000019999999N9999999N1-01901-01961999999ADDMA1999999083511MD1810011+9999ME1314879OA149900261REMSYN088AAXX  03194 06788 33/// /0000 11190 21196 38351 48487 58001 333 55300 20007 91105 91202;
0149067880999992011010320004+46517+009183FM-12+161199999V0202001N005719999999N9999999N1-01042-01451999999ADDMA1999999083481MD1710051+9999ME1314799OA149901081REMSYN088AAXX  03204 06788 33/// /2011 11104 21145 38348 48479 57005 333 55300 20004 91121 91211;
0149067880999992011010321004+46517+009183FM-12+161199999V0201901N009319999999N9999999N1-01061-01461999999ADDMA1999999083501MD1710031+9999ME1314819OA149901341REMSYN088AAXX  03214 06788 33/// /1918 11106 21146 38350 48481 57003 333 55300 20004 91126 91218;
0149067880999992011010322004+46517+009183FM-12+161199999V0201901N008719999999N9999999N1-00991-01441999999ADDMA1999999083521MD1510011+9999ME1314839OA149901491REMSYN088AAXX  03224 06788 33/// /1917 11099 21144 38352 48483 55001 333 55300 20004 91129 91219;
0149067880999992011010323004+46517+009183FM-12+161199999V0202001N006719999999N9999999N1-00951-01471999999ADDMA1999999083521MD1210041+9999ME1314839OA149901491REMSYN088AAXX  03234 06788 33/// /2013 11095 21147 38352 48483 52004 333 55300 20007 91129 91219;
0149067880999992011010400004+46517+009183FM-12+161199999V0201901N007219999999N9999999N1-00961-01441999999ADDMA1999999083481MD1710021+9999ME1314799OA149901491REMSYN088AAXX  04004 06788 33/// /1914 11096 21144 38348 48479 57002 333 55300 20004 91129 91219;
0149067880999992011010401004+46517+009183FM-12+161199999V0202001N007719999999N9999999N1-00941-01371999999ADDMA1999999083451MD1710071+9999ME1314769OA149901491REMSYN088AAXX  04014 06788 33/// /2015 11094 21137 38345 48476 57007 333 55300 20007 91129 91215;
0149067880999992011010402004+46517+009183FM-12+161199999V0202001N007719999999N9999999N1-00931-01351999999ADDMA1999999083411MD1719999+9999ME1314729OA149901491REMSYN088AAXX  04024 06788 33/// /2015 11093 21135 38341 48472 57/// 333 55300 20004 91129 91215;
0149067880999992011010403004+46517+009183FM-12+161199999V0201801N007219999999N9999999N1-00931-01351999999ADDMA1999999083381MD1710101+9999ME1314699OA149901491REMSYN088AAXX  04034 06788 33/// /1814 11093 21135 38338 48469 57010 333 55300 20007 91129 91219;
0149067880999992011010404004+46517+009183FM-12+161199999V0201801N008219999999N9999999N1-00931-01331999999ADDMA1999999083321MD1710131+9999ME1314649OA149901391REMSYN088AAXX  04044 06788 33/// /1816 11093 21133 38332 48464 57013 333 55300 20011 91127 91216;
0149067880999992011010405004+46517+009183FM-12+161199999V0201901N008719999999N9999999N1-00911-01311999999ADDMA1999999083301MD1710111+9999ME1314629OA149901391REMSYN088AAXX  04054 06788 33/// /1917 11091 21131 38330 48462 57011 333 55300 20007 91127 91217;
0216067880999992011010406004+46517+009183FM-12+161199999V0202001N007219999999N9999999N1-00911-01361999999ADDAL19900091GJ101629IA2999-02309KA1999N-01901MA1999999083261MD1710121+9999ME1314589OA149901491REMSYN112AAXX  04064 06788 33/// /2014 11091 21136 38326 48458 57012 333 21190 3/123 55027 55300 20011 70000 91129 91219;
0149067880999992011010407004+46517+009183FM-12+161199999V0201901N005719999999N9999999N1-00911-01361999999ADDMA1999999083301MD1510021+9999ME1314629OA149901441REMSYN088AAXX  04074 06788 33/// /1911 11091 21136 38330 48462 55002 333 55300 20011 91128 91217;
0149067880999992011010408004+46517+009183FM-12+161199999V0202001N006219999999N9999999N1-00921-01341999999ADDMA1999999083321MD1319999+9999ME1314649OA149901131REMSYN088AAXX  04084 06788 33/// /2012 11092 21134 38332 48464 53/// 333 55300 20043 91122 91215;
0112067880999992011010409004+46517+009183FM-12+161199999V0201901N006219999999N9999999N1-00881-01351999999ADDMA1999999083321ME1314649REMSYN076AAXX  04094 06788 33/// /1912 11088 21135 38332 48464 5//// 333 553// 20169;
0149067880999992011010410004+46517+009183FM-12+161199999V0201901N007219999999N9999999N1-00821-01341999999ADDMA1999999083321MD1210021+9999ME1314639OA149901131REMSYN088AAXX  04104 06788 33/// /1914 11082 21134 38332 48463 52002 333 55300 20540 91122 91214;
0149067880999992011010411004+46517+009183FM-12+161199999V0202101N007219999999N9999999N1-00801-01341999999ADDMA1999999083291MD1710031+9999ME1314609OA149901241REMSYN088AAXX  04114 06788 33/// /2114 11080 21134 38329 48460 57003 333 55300 20720 91124 91216;
0149067880999992011010412004+46517+009183FM-12+161199999V0202001N006719999999N9999999N1-00831-01441999999ADDMA1999999083241MD1710081+9999ME1314569OA149901491REMSYN088AAXX  04124 06788 33/// /2013 11083 21144 38324 48456 57008 333 55300 20655 91129 91217;
0149067880999992011010413004+46517+009183FM-12+161199999V0202001N005719999999N9999999N1-00831-01401999999ADDMA1999999083211MD1710111+9999ME1314539OA149901181REMSYN088AAXX  04134 06788 33/// /2011 11083 21140 38321 48453 57011 333 55301 20515 91123 91214;
0112067880999992011010414004+46517+009183FM-12+161199999V0202001N004119999999N9999999N1-00881-01461999999ADDMA1999999083211ME1314539REMSYN076AAXX  04144 06788 33/// /2008 11088 21146 38321 48453 5//// 333 553// 20443;
0096067880999992011010415004+46517+009183FM-12+161199999V0202001N004619999999N9999999N1-00941-01571999999ADDMA1999999083201ME1314539REMSYN060AAXX  04154 06788 43/// /2009 11094 21157 38320 48453 5////;
0149067880999992011010416004+46517+009183FM-12+161199999V0202501N001519999999N9999999N1-01351-02261999999ADDMA1999999083201MD1810011+9999ME1314559OA149900771REMSYN088AAXX  04164 06788 33/// /2503 11135 21226 38320 48455 58001 333 55300 20054 91115 91210;
0149067880999992011010417004+46517+009183FM-12+161199999V0202001N005119999999N9999999N1-01011-01721999999ADDMA1999999083201MD1510011+9999ME1314539OA149900931REMSYN088AAXX  04174 06788 33/// /2010 11101 21172 38320 48453 55001 333 55300 20007 91118 91210;
0203067880999992011010418004+46517+009183FM-12+161199999V0202401N002619999999N9999999N1-01431+99999999999ADDKA1120M-00801MA1999999083201MD1410001+9999ME1314569OA149901241REMSYN094AAXX  04184 06788 33/// /2405 11143 21272 38320 48456 52000 333 11080 55300 20011 91124 91216;EQDQ01-002723ATOD  Q02+000022APCTEN
0149067880999992011010419004+46517+009183FM-12+161199999V0202001N008219999999N9999999N1-01071-01741999999ADDMA1999999083211MD1210011+9999ME1314559OA149901241REMSYN088AAXX  04194 06788 33/// /2016 11107 21174 38321 48455 52001 333 55300 20007 91124 91217;
0149067880999992011010420004+46517+009183FM-12+161199999V0201901N007219999999N9999999N1-01021-01551999999ADDMA1999999083231MD1210031+9999ME1314569OA149901341REMSYN088AAXX  04204 06788 33/// /1914 11102 21155 38323 48456 52003 333 55300 20007 91126 91217;
0149067880999992011010421004+46517+009183FM-12+161199999V0201901N007219999999N9999999N1-01031-01571999999ADDMA1999999083231MD1010031+9999ME1314569OA149901341REMSYN088AAXX  04214 06788 33/// /1914 11103 21157 38323 48456 50003 333 55300 20011 91126 91217;
0149067880999992011010422004+46517+009183FM-12+161199999V0201901N007719999999N9999999N1-01011-01511999999ADDMA1999999083251MD1210041+9999ME1314589OA149901291REMSYN088AAXX  04224 06788 33/// /1915 11101 21151 38325 48458 52004 333 55300 20007 91125 91216;
0149067880999992011010423004+46517+009183FM-12+161199999V0202001N006719999999N9999999N1-01061-01741999999ADDMA1999999083221MD1710011+9999ME1314559OA149901291REMSYN088AAXX  04234 06788 33/// /2013 11106 21174 38322 48455 57001 333 55300 20011 91125 91215;
0149067880999992011010500004+46517+009183FM-12+161199999V0201901N007219999999N9999999N1-01041-01531999999ADDMA1999999083181MD1710051+9999ME1314529OA149901441REMSYN088AAXX  05004 06788 33/// /1914 11104 21153 38318 48452 57005 333 55300 20007 91128 91217;
0149067880999992011010501004+46517+009183FM-12+161199999V0201901N008719999999N9999999N1-01071-01601999999ADDMA1999999083171MD1810081+9999ME1314519OA149901441REMSYN088AAXX  05014 06788 33/// /1917 11107 21160 38317 48451 58008 333 55300 20007 91128 91217;
0149067880999992011010502004+46517+009183FM-12+161199999V0201901N008719999999N9999999N1-01081-01601999999ADDMA1999999083171MD1710051+9999ME1314519OA149901441REMSYN088AAXX  05024 06788 33/// /1917 11108 21160 38317 48451 57005 333 55300 20011 91128 91217;
0096067880999992011010503004+46517+009183FM-12+161199999V0201801N009819999999N9999999N1-01101-01551999999ADDMA1999999083151ME1314499REMSYN060AAXX  05034 06788 43/// /1819 11110 21155 38315 48449 5////;
0149067880999992011010504004+46517+009183FM-12+161199999V0201801N010319999999N9999999N1-01121-01551999999ADDMA1999999083121MD1710051+9999ME1314469OA149901601REMSYN088AAXX  05044 06788 33/// /1820 11112 21155 38312 48446 57005 333 55300 20011 91131 91220;
0149067880999992011010505004+46517+009183FM-12+161199999V0201901N010319999999N9999999N1-01141-01561999999ADDMA1999999083131MD1710041+9999ME1314489OA149901601REMSYN088AAXX  05054 06788 33/// /1920 11114 21156 38313 48448 57004 333 55300 20007 91131 91222;
0216067880999992011010506004+46517+009183FM-12+161199999V0201901N011319999999N9999999N1-01171-01731999999ADDAL19900091GJ100249IA2999-01609KA1999N-01511MA1999999083141MD1510011+9999ME1314499OA149901601REMSYN112AAXX  05064 06788 33/// /1922 11117 21173 38314 48449 55001 333 21151 3/116 55004 55300 20011 70000 91131 91222;
0149067880999992011010507004+46517+009183FM-12+161199999V0201901N009819999999N9999999N1-01131-01721999999ADDMA1999999083161MD1210041+9999ME1314509OA149901601REMSYN088AAXX  05074 06788 33/// /1919 11113 21172 38316 48450 52004 333 55300 20011 91131 91222;
0149067880999992011010508004+46517+009183FM-12+161199999V0202001N004119999999N9999999N1-01401-02471999999ADDMA1999999083161MD1219999+9999ME1314529OA149901601REMSYN088AAXX  05084 06788 33/// /2008 11140 21247 38316 48452 52/// 333 55300 20043 91131 91222;
0149067880999992011010509004+46517+009183FM-12+161199999V0201801N011819999999N9999999N1-01171-01931999999ADDMA1999999083221MD1210081+9999ME1314569OA149901651REMSYN088AAXX  05094 06788 33/// /1823 11117 21193 38322 48456 52008 333 55300 20119 91132 91223;
0149067880999992011010510004+46517+009183FM-12+161199999V0201901N007219999999N9999999N1-00901-01751999999ADDMA1999999083191MD1210031+9999ME1314529OA149901651REMSYN088AAXX  05104 06788 33/// /1914 11090 21175 38319 48452 52003 333 55300 20191 91132 91223;
0168067880999992011010511004+46517+009183FM-12+161199999V0202001N006219999999N9999999N1-00651-01881999999ADDMA1999999083161MD1410001+9999ME1314479OA149901601REMSYN088AAXX  05114 06788 33/// /2012 11065 21188 38316 48447 58000 333 55302 20461 91131 91222;EQDQ01+000082APCTEN
0112067880999992011010512004+46517+009183FM-12+161199999V0202001N005719999999N9999999N1-00501-02021999999ADDMA1999999083091ME1314399REMSYN076AAXX  05124 06788 33/// /2011 11050 21202 38309 48439 5//// 333 553// 2////;
0149067880999992011010513004+46517+009183FM-12+161199999V0202001N008719999999N9999999N1-00741-01771999999ADDMA1999999083111MD1710081+9999ME1314439OA149901441REMSYN088AAXX  05134 06788 33/// /2017 11074 21177 38311 48443 57008 333 553// 2//// 91128 91222;
0096067880999992011010514004+46517+009183FM-12+161199999V0201901N005719999999N9999999N1-00721-01861999999ADDMA1999999083111ME1314439REMSYN060AAXX  05144 06788 43/// /1911 11072 21186 38311 48443 5////;
0096067880999992011010515004+46517+009183FM-12+161199999V0202501N004119999999N9999999N1-00831-01741999999ADDMA1999999083151ME1314479REMSYN060AAXX  05154 06788 43/// /2508 11083 21174 38315 48447 5////;
0149067880999992011010516004+46517+009183FM-12+161199999V0202401N001019999999N9999999N1-01211-01581999999ADDMA1999999083181MD1210071+9999ME1314539OA149901241REMSYN088AAXX  05164 06788 33/// /2402 11121 21158 38318 48453 52007 333 55300 20047 91124 91215;
0184067880999992011010517004+46517+009183FM-12+161199999V0202601N003119999999N9999999N1-01031+99999999999ADDMA1999999083161MD1010051+9999ME1314509OA149901291REMSYN088AAXX  05174 06788 33/// /2606 11103 21281 38316 48450 50005 333 55300 20011 91125 91218;EQDQ01-002813ATOD  Q02 -02813ATOD  
0168067880999992011010518004+46517+009183FM-12+161199999V0201901N008219999999N9999999N1-00661-01911999999ADDKA1120M-00501MA1999999083181MD1219999+9999ME1314499OA149901651REMSYN094AAXX  05184 06788 33/// /1916 11066 21191 38318 48449 52/// 333 11050 55300 20007 91132 91223;
0149067880999992011010519004+46517+009183FM-12+161199999V0201801N005719999999N9999999N1-00551-01711999999ADDMA1999999083231MD1310051+9999ME1314539OA149901341REMSYN088AAXX  05194 06788 33/// /1811 11055 21171 38323 48453 53005 333 55300 20007 91126 91219;
0149067880999992011010520004+46517+009183FM-12+161199999V0202201N009319999999N9999999N1-00671-01991999999ADDMA1999999083241MD1219999+9999ME1314559OA149901441REMSYN088AAXX  05204 06788 33/// /2218 11067 21199 38324 48455 52/// 333 55300 20007 91128 91219;
0112067880999992011010521004+46517+009183FM-12+161199999V0202101N005719999999N9999999N1-00481-02001999999ADDMA1999999083231ME1314539REMSYN076AAXX  05214 06788 33/// /2111 11048 21200 38323 48453 5//// 333 553// 20007;
0149067880999992011010522004+46517+009183FM-12+161199999V0202201N011319999999N9999999N1-00651-01681999999ADDMA1999999083261MD1210031+9999ME1314579OA149901391REMSYN088AAXX  05224 06788 33/// /2222 11065 21168 38326 48457 52003 333 55300 20011 91127 91222;
0149067880999992011010523004+46517+009183FM-12+161199999V0202301N008719999999N9999999N1-00471-01791999999ADDMA1999999083301MD1319999+9999ME1314599OA149901441REMSYN088AAXX  05234 06788 33/// /2317 11047 21179 38330 48459 53/// 333 55300 20007 91128 91224;
0096067880999992011010600004+46517+009183FM-12+161199999V0202101N005119999999N9999999N1-00651-01771999999ADDMA1999999083261ME1314579REMSYN060AAXX  06004 06788 43/// /2110 11065 21177 38326 48457 5////;
0096067880999992011010601004+46517+009183FM-12+161199999V0202101N008219999999N9999999N1-00691-01761999999ADDMA1999999083221ME1314539REMSYN060AAXX  06014 06788 43/// /2116 11069 21176 38322 48453 5////;
0096067880999992011010602004+46517+009183FM-12+161199999V0202201N010319999999N9999999N1-00641-01711999999ADDMA1999999083251ME1314569REMSYN060AAXX  06024 06788 43/// /2220 11064 21171 38325 48456 5////;
0096067880999992011010603004+46517+009183FM-12+161199999V0202401N006719999999N9999999N1-00411-01801999999ADDMA1999999083211ME1314509REMSYN060AAXX  06034 06788 43/// /2413 11041 21180 38321 48450 5////;
0096067880999992011010604004+46517+009183FM-12+161199999V0202301N008719999999N9999999N1-00591-01711999999ADDMA1999999083241ME1314549REMSYN060AAXX  06044 06788 43/// /2317 11059 21171 38324 48454 5////;
0096067880999992011010605004+46517+009183FM-12+161199999V0202301N007719999999N9999999N1-00511-01421999999ADDMA1999999083321ME1314619REMSYN060AAXX  06054 06788 43/// /2315 11051 21142 38332 48461 5////;
0143067880999992011010606004+46517+009183FM-12+161199999V0202301N008719999999N9999999N1-00441-01051999999ADDIA2999-00909KA1999N-00871MA1999999083321ME1314619REMSYN082AAXX  06064 06788 43/// /2317 11044 21105 38332 48461 5//// 333 21087 3/109 55028;
0096067880999992011010607004+46517+009183FM-12+161199999V0202501N007219999999N9999999N1-00431-01131999999ADDMA1999999083321ME1314619REMSYN060AAXX  06074 06788 43/// /2514 11043 21113 38332 48461 5////;
0112067880999992011010608004+46517+009183FM-12+161199999V0202501N005719999999N9999999N1-00401-00951999999ADDMA1999999083361ME1314659REMSYN076AAXX  06084 06788 33/// /2511 11040 21095 38336 48465 5//// 333 553// 20072;
0096067880999992011010609004+46517+009183FM-12+161199999V0202501N006219999999N9999999N1-00351-00891999999ADDMA1999999083381ME1314669REMSYN060AAXX  06094 06788 43/// /2512 11035 21089 38338 48466 5////;
0149067880999992011010610004+46517+009183FM-12+161199999V0202401N006219999999N9999999N1-00291-00841999999ADDMA1999999083431MD1210111+9999ME1314719OA149901491REMSYN088AAXX  06104 06788 33/// /2412 11029 21084 38343 48471 52011 333 55300 20461 91129 91216;
0149067880999992011010611004+46517+009183FM-12+161199999V0202601N007719999999N9999999N1-00341-00891999999ADDMA1999999083421MD1210061+9999ME1314709OA149901391REMSYN088AAXX  06114 06788 33/// /2615 11034 21089 38342 48470 52006 333 55300 20648 91127 91216;
0149067880999992011010612004+46517+009183FM-12+161199999V0202401N007719999999N9999999N1-00301-00781999999ADDMA1999999083421MD1210041+9999ME1314709OA149901651REMSYN088AAXX  06124 06788 33/// /2415 11030 21078 38342 48470 52004 333 55300 20666 91132 91223;
0149067880999992011010613004+46517+009183FM-12+161199999V0202801N005719999999N9999999N1-00231-00711999999ADDMA1999999083371MD1710061+9999ME1314649OA149901491REMSYN088AAXX  06134 06788 33/// /2811 11023 21071 38337 48464 57006 333 55300 20515 91129 91215;
0096067880999992011010614004+46517+009183FM-12+161199999V0202401N005119999999N9999999N1-00111-00561999999ADDMA1999999083381ME1314659REMSYN060AAXX  06144 06788 43/// /2410 11011 21056 38338 48465 5////;
0096067880999992011010615004+46517+009183FM-12+161199999V0202301N005719999999N9999999N1-00061-00481999999ADDMA1999999083381ME1314649REMSYN060AAXX  06154 06788 43/// /2311 11006 21048 38338 48464 5////;
0155067880999992011010616004+46517+009183FM-12+161199999V0202501N008219999999N9999999N1-00081-00421999999ADDMA1999999083411MD1210041+9999ME1314679OA149901291REMSYN094AAXX  06164 06788 23/// /2516 11008 21042 38341 48467 52004 333 55300 20032 69915 91125 91216;
0155067880999992011010617004+46517+009183FM-12+161199999V0202401N007219999999N9999999N1-00081-00421999999ADDMA1999999083391MD1010011+9999ME1314669OA149901341REMSYN094AAXX  06174 06788 23/// /2414 11008 21042 38339 48466 50001 333 55300 20011 69915 91126 91218;
0191067880999992011010618004+46517+009183FM-12+161199999V0202501N006219999999N9999999N1-00031-00381999999ADDAA112000591KA1120M-00031MA1999999083401MD1210021+9999ME1314669OA149901491REMSYN106AAXX  06184 06788 03/// /2512 11003 21038 38340 48466 52002 69942 333 11003 55300 20011 60005 91129 91218;
0155067880999992011010619004+46517+009183FM-12+161199999V0202501N006719999999N9999999N1-00071-00411999999ADDMA1999999083461MD1310051+9999ME1314729OA149901241REMSYN094AAXX  06194 06788 23/// /2513 11007 21041 38346 48472 53005 333 55300 20011 69915 91124 91215;
0149067880999992011010620004+46517+009183FM-12+161199999V0202401N005119999999N9999999N1-00011-00351999999ADDMA1999999083491MD1219999+9999ME1314759OA149901241REMSYN088AAXX  06204 06788 33/// /2410 11001 21035 38349 48475 52/// 333 55300 20011 91124 91213;
0155067880999992011010621004+46517+009183FM-12+161199999V0202401N006719999999N9999999N1-00011-00341999999ADDMA1999999083481MD1219999+9999ME1314749OA149901341REMSYN094AAXX  06214 06788 23/// /2413 11001 21034 38348 48474 52/// 333 55300 20011 69915 91126 91218;
0149067880999992011010622004+46517+009183FM-12+161199999V0202501N005719999999N9999999N1-00011-00321999999ADDMA1999999083551MD1210091+9999ME1314819OA149901181REMSYN088AAXX  06224 06788 33/// /2511 11001 21032 38355 48481 52009 333 55300 20011 91123 91214;
0112067880999992011010623004+46517+009183FM-12+161199999V0202401N005719999999N9999999N1+00021-00281999999ADDMA1999999083561ME1314819REMSYN076AAXX  06234 06788 33/// /2411 10002 21028 38356 48481 5//// 333 553// 20011;
0096067880999992011010700004+46517+009183FM-12+161199999V0202501N006219999999N9999999N1+00021-00281999999ADDMA1999999083581ME1314839REMSYN060AAXX  07004 06788 43/// /2512 10002 21028 38358 48483 5////;
0096067880999992011010701004+46517+009183FM-12+161199999V0202801N005719999999N9999999N1+00081-00241999999ADDMA1999999083571ME1314829REMSYN060AAXX  07014 06788 43/// /2811 10008 21024 38357 48482 5////;
0096067880999992011010702004+46517+009183FM-12+161199999V0202501N004619999999N9999999N1+00091-00221999999ADDMA1999999083611ME1314869REMSYN060AAXX  07024 06788 43/// /2509 10009 21022 38361 48486 5////;
0096067880999992011010703004+46517+009183FM-12+161199999V0202401N005719999999N9999999N1+00101-00211999999ADDMA1999999083661ME1314919REMSYN060AAXX  07034 06788 43/// /2411 10010 21021 38366 48491 5////;
0149067880999992011010704004+46517+009183FM-12+161199999V0202501N006219999999N9999999N1+00111-00211999999ADDMA1999999083641MD1010071+9999ME1314899OA149901181REMSYN088AAXX  07044 06788 33/// /2512 10011 21021 38364 48489 50007 333 55300 20004 91123 91214;
0149067880999992011010705004+46517+009183FM-12+161199999V0202401N005719999999N9999999N1+00081-00201999999ADDMA1999999083661MD1210051+9999ME1314919OA149901131REMSYN088AAXX  07054 06788 33/// /2411 10008 21020 38366 48491 52005 333 55300 20007 91122 91214;
0239067880999992011010706004+46517+009183FM-12+161199999V0202301N006219999999N9999999N1+00131-00171999999ADDAA112000591AL14800091GJ100009IA2999-00109KA1999N-00111MA1999999083701MD1210041+9999ME1314949OA149901241REMSYN124AAXX  07064 06788 03/// /2312 10013 21017 38370 48494 52004 69942 333 21011 3/101 55000 55300 20007 69915 70008 91124 91214;
0149067880999992011010707004+46517+009183FM-12+161199999V0202501N005119999999N9999999N1+00141-00131999999ADDMA1999999083741MD1210101+9999ME1314989OA149901131REMSYN088AAXX  07074 06788 33/// /2510 10014 21013 38374 48498 52010 333 55300 20004 91122 91213;
0112067880999992011010708004+46517+009183FM-12+161199999V0202501N005119999999N9999999N1+00181-00141999999ADDMA1999999083781ME1315029REMSYN076AAXX  07084 06788 33/// /2510 10018 21014 38378 48502 5//// 333 553// 20086;
0096067880999992011010709004+46517+009183FM-12+161199999V0202401N004119999999N9999999N1+00171-00121999999ADDMA1999999083841ME1315089REMSYN060AAXX  07094 06788 43/// /2408 10017 21012 38384 48508 5////;
0155067880999992011010710004+46517+009183FM-12+161199999V0202701N004619999999N9999999N1+00171-00131999999ADDMA1999999083851MD1210111+9999ME1315099OA149901241REMSYN094AAXX  07104 06788 23/// /2709 10017 21013 38385 48509 52011 333 55300 20292 69915 91124 91213;
0155067880999992011010711004+46517+009183FM-12+161199999V0202601N004619999999N9999999N1+00201-00091999999ADDMA1999999083821MD1010041+9999ME1315069OA149901131REMSYN094AAXX  07114 06788 23/// /2609 10020 21009 38382 48506 50004 333 55300 20392 69945 91122 91210;
0172067880999992011010712004+46517+009183FM-12+161199999V0202501N008219999999N9999999N1+00201-00081999999ADDAA106001091MA1999999083781MD1710061+9999ME1315029OA149901491REMSYN100AAXX  07124 06788 03/// /2516 10020 21008 38378 48502 57006 60011 333 55300 20457 69965 91129 91216;
0155067880999992011010713004+46517+009183FM-12+161199999V0202601N007719999999N9999999N1+00211-00081999999ADDMA1999999083761MD1710091+9999ME1315009OA149901491REMSYN094AAXX  07134 06788 23/// /2615 10021 21008 38376 48500 57009 333 55300 20457 69995 91129 91216;
0096067880999992011010714004+46517+009183FM-12+161199999V0202501N007719999999N9999999N1+00191-00121999999ADDMA1999999083781ME1315029REMSYN060AAXX  07144 06788 43/// /2515 10019 21012 38378 48502 5////;
0096067880999992011010715004+46517+009183FM-12+161199999V0202601N007219999999N9999999N1+00201-00091999999ADDMA1999999083831ME1315079REMSYN060AAXX  07154 06788 43/// /2614 10020 21009 38383 48507 5////;
0155067880999992011010716004+46517+009183FM-12+161199999V0202601N005119999999N9999999N1+00201-00081999999ADDMA1999999083861MD1210101+9999ME1315099OA149901341REMSYN094AAXX  07164 06788 23/// /2610 10020 21008 38386 48509 52010 333 55300 20018 60015 91126 91214;
0155067880999992011010717004+46517+009183FM-12+161199999V0202601N005119999999N9999999N1+00211-00071999999ADDMA1999999083861MD1210081+9999ME1315099OA149901031REMSYN094AAXX  07174 06788 23/// /2610 10021 21007 38386 48509 52008 333 55300 20007 60015 91120 91211;
0154067880999992011010718004+46517+009183FM-12+161199999V0202601N004619999999N9999999N1+00211-00081999999ADDAA112006191KA1120M+00231MA1999999083881ME1315119REMSYN094AAXX  07184 06788 03/// /2609 10021 21008 38388 48511 5//// 60062 333 10023 553// 20007 69985;
0155067880999992011010719004+46517+009183FM-12+161199999V0202701N005119999999N9999999N1+00191-00081999999ADDMA1999999083861MD1019999+9999ME1315099OA149900981REMSYN094AAXX  07194 06788 23/// /2710 10019 21008 38386 48509 50/// 333 55300 20004 69985 91119 91211;
0096067880999992011010720004+46517+009183FM-12+161199999V0202601N005119999999N9999999N1+00201-00081999999ADDMA1999999083861ME1315099REMSYN060AAXX  07204 06788 43/// /2610 10020 21008 38386 48509 5////;
0096067880999992011010721004+46517+009183FM-12+161199999V0202501N007719999999N9999999N1+00231-00031999999ADDMA1999999083811ME1315049REMSYN060AAXX  07214 06788 43/// /2515 10023 21003 38381 48504 5////;
0155067880999992011010722004+46517+009183FM-12+161199999V0202801N006219999999N9999999N1+00231-00041999999ADDMA1999999083841MD1510021+9999ME1315079OA149901341REMSYN094AAXX  07224 06788 23/// /2812 10023 21004 38384 48507 55002 333 55300 20007 69965 91126 91216;
0118067880999992011010723004+46517+009183FM-12+161199999V0202801N007219999999N9999999N1+00211-00071999999ADDMA1999999083821ME1315069REMSYN082AAXX  07234 06788 23/// /2814 10021 21007 38382 48506 5//// 333 553// 20007 69955;
0135067880999992011010800004+46517+009183FM-12+161199999V0202901N006719999999N9999999N1+00241-00061999999ADDAA106005191MA1999999083811ME1315049REMSYN088AAXX  08004 06788 03/// /2913 10024 21006 38381 48504 5//// 60051 333 553// 20007 69955;
0096067880999992011010801004+46517+009183FM-12+161199999V0202701N006219999999N9999999N1+00191-00121999999ADDMA1999999083791ME1315039REMSYN060AAXX  08014 06788 43/// /2712 10019 21012 38379 48503 5////;
0096067880999992011010802004+46517+009183FM-12+161199999V0202601N005119999999N9999999N1+00171-00111999999ADDMA1999999083791ME1315039REMSYN060AAXX  08024 06788 43/// /2610 10017 21011 38379 48503 5////;
0096067880999992011010803004+46517+009183FM-12+161199999V0202801N006219999999N9999999N1+00181-00101999999ADDMA1999999083781ME1315029REMSYN060AAXX  08034 06788 43/// /2812 10018 21010 38378 48502 5////;
0096067880999992011010804004+46517+009183FM-12+161199999V0202501N006219999999N9999999N1+00151-00141999999ADDMA1999999083761ME1315009REMSYN060AAXX  08044 06788 43/// /2512 10015 21014 38376 48500 5////;
0096067880999992011010805004+46517+009183FM-12+161199999V0202601N006219999999N9999999N1+00171-00121999999ADDMA1999999083721ME1314969REMSYN060AAXX  08054 06788 43/// /2612 10017 21012 38372 48496 5////;
0143067880999992011010806004+46517+009183FM-12+161199999V0202401N003619999999N9999999N1+00131-00101999999ADDIA2999+00009KA1999N+00111MA1999999083691ME1314939REMSYN082AAXX  08064 06788 43/// /2407 10013 21010 38369 48493 5//// 333 20011 3/000 55000;
0096067880999992011010807004+46517+009183FM-12+161199999V0202701N006219999999N9999999N1+00121-00151999999ADDMA1999999083751ME1314999REMSYN060AAXX  08074 06788 43/// /2712 10012 21015 38375 48499 5////;
0118067880999992011010808004+46517+009183FM-12+161199999V0202701N005119999999N9999999N1+00151-00131999999ADDMA1999999083821ME1315069REMSYN082AAXX  08084 06788 23/// /2710 10015 21013 38382 48506 5//// 333 553// 20036 69935;
0096067880999992011010809004+46517+009183FM-12+161199999V0202501N005119999999N9999999N1+00151-00161999999ADDMA1999999083801ME1315049REMSYN060AAXX  08094 06788 43/// /2510 10015 21016 38380 48504 5////;
0096067880999992011010810004+46517+009183FM-12+161199999V0202401N006219999999N9999999N1+00211-00091999999ADDMA1999999083821ME1315069REMSYN060AAXX  08104 06788 43/// /2412 10021 21009 38382 48506 5////;
0096067880999992011010811004+46517+009183FM-12+161199999V0202401N006219999999N9999999N1+00161-00101999999ADDMA1999999083811ME1315059REMSYN060AAXX  08114 06788 43/// /2412 10016 21010 38381 48505 5////;
0096067880999992011010812004+46517+009183FM-12+161199999V0202401N003119999999N9999999N1+00231-00091999999ADDMA1999999083781ME1315029REMSYN060AAXX  08124 06788 43/// /2406 10023 21009 38378 48502 5////;
0096067880999992011010813004+46517+009183FM-12+161199999V0202401N005119999999N9999999N1+00171-00071999999ADDMA1999999083751ME1314999REMSYN060AAXX  08134 06788 43/// /2410 10017 21007 38375 48499 5////;
0096067880999992011010814004+46517+009183FM-12+161199999V0202401N003119999999N9999999N1+00231-00061999999ADDMA1999999083771ME1315019REMSYN060AAXX  08144 06788 43/// /2406 10023 21006 38377 48501 5////;
0096067880999992011010815004+46517+009183FM-12+161199999V0202401N006219999999N9999999N1+00211-00071999999ADDMA1999999083821ME1315069REMSYN060AAXX  08154 06788 43/// /2412 10021 21007 38382 48506 5////;
0096067880999992011010816004+46517+009183FM-12+161199999V0202601N006719999999N9999999N1+00201-00091999999ADDMA1999999083841ME1315089REMSYN060AAXX  08164 06788 43/// /2613 10020 21009 38384 48508 5////;
0096067880999992011010817004+46517+009183FM-12+161199999V0202801N006719999999N9999999N1+00211-00081999999ADDMA1999999083841ME1315079REMSYN060AAXX  08174 06788 43/// /2813 10021 21008 38384 48507 5////;
0096067880999992011010818004+46517+009183FM-12+161199999V0202601N005119999999N9999999N1+00191-00071999999ADDMA1999999083861ME1315099REMSYN060AAXX  08184 06788 43/// /2610 10019 21007 38386 48509 5////;
0096067880999992011010819004+46517+009183FM-12+161199999V0202801N004119999999N9999999N1+00201-00021999999ADDMA1999999083851ME1315089REMSYN060AAXX  08194 06788 43/// /2808 10020 21002 38385 48508 5////;
0096067880999992011010820004+46517+009183FM-12+161199999V0202701N005119999999N9999999N1+00201-00061999999ADDMA1999999083821ME1315069REMSYN060AAXX  08204 06788 43/// /2710 10020 21006 38382 48506 5////;
0096067880999992011010821004+46517+009183FM-12+161199999V0202601N006219999999N9999999N1+00211-00051999999ADDMA1999999083821ME1315069REMSYN060AAXX  08214 06788 43/// /2612 10021 21005 38382 48506 5////;
0096067880999992011010822004+46517+009183FM-12+161199999V0202901N007219999999N9999999N1+00191-00071999999ADDMA1999999083801ME1315049REMSYN060AAXX  08224 06788 43/// /2914 10019 21007 38380 48504 5////;
0096067880999992011010823004+46517+009183FM-12+161199999V0202601N007719999999N9999999N1+00171-00101999999ADDMA1999999083821ME1315069REMSYN060AAXX  08234 06788 43/// /2615 10017 21010 38382 48506 5////;
0096067880999992011010900004+46517+009183FM-12+161199999V0202701N006719999999N9999999N1+00171-00091999999ADDMA1999999083831ME1315079REMSYN060AAXX  09004 06788 43/// /2713 10017 21009 38383 48507 5////;
0096067880999992011010901004+46517+009183FM-12+161199999V0202901N006219999999N9999999N1+00171-00101999999ADDMA1999999083831ME1315079REMSYN060AAXX  09014 06788 43/// /2912 10017 21010 38383 48507 5////;
0096067880999992011010902004+46517+009183FM-12+161199999V0202701N006219999999N9999999N1+00171-00101999999ADDMA1999999083821ME1315069REMSYN060AAXX  09024 06788 43/// /2712 10017 21010 38382 48506 5////;
0096067880999992011010903004+46517+009183FM-12+161199999V0202701N005119999999N9999999N1+00161-00101999999ADDMA1999999083781ME1315029REMSYN060AAXX  09034 06788 43/// /2710 10016 21010 38378 48502 5////;
0096067880999992011010904004+46517+009183FM-12+161199999V0202601N007719999999N9999999N1+00161-00101999999ADDMA1999999083731ME1314979REMSYN060AAXX  09044 06788 43/// /2615 10016 21010 38373 48497 5////;
0096067880999992011010905004+46517+009183FM-12+161199999V0202601N007719999999N9999999N1+00161-00111999999ADDMA1999999083721ME1314969REMSYN060AAXX  09054 06788 43/// /2615 10016 21011 38372 48496 5////;
0106067880999992011010906004+46517+009183FM-12+161199999V0202401N007219999999N9999999N1+00131-00151999999ADDMA1999999083721ME1314969REMSYN070AAXX  09064 06788 43/// /2414 10013 21015 38372 48496 5//// 333 55000;
0096067880999992011010907004+46517+009183FM-12+161199999V0202801N006719999999N9999999N1+00161-00131999999ADDMA1999999083741ME1314989REMSYN060AAXX  09074 06788 43/// /2813 10016 21013 38374 48498 5////;
0112067880999992011010908004+46517+009183FM-12+161199999V0202601N008219999999N9999999N1+00161-00131999999ADDMA1999999083741ME1314989REMSYN076AAXX  09084 06788 33/// /2616 10016 21013 38374 48498 5//// 333 553// 20065;
0118067880999992011010909004+46517+009183FM-12+161199999V0202501N008219999999N9999999N1+00151-00111999999ADDMA1999999083761ME1315009REMSYN082AAXX  09094 06788 23/// /2516 10015 21011 38376 48500 5//// 333 553// 20281 69915;
0155067880999992011010910004+46517+009183FM-12+161199999V0202501N008719999999N9999999N1+00151-00131999999ADDMA1999999083771MD1210031+9999ME1315019OA149901541REMSYN094AAXX  09104 06788 23/// /2517 10015 21013 38377 48501 52003 333 55300 20475 69915 91130 91218;
0174067880999992011010911004+46517+009183FM-12+161199999V0202601N007219999999N9999999N1+00151-00141999999ADDMA1999999083741MD1410001+9999ME1314989OA149901751REMSYN094AAXX  09114 06788 23/// /2614 10015 21014 38374 48498 58000 333 55300 20497 69915 91134 91218;EQDQ01+000082APCTEN
0172067880999992011010912004+46517+009183FM-12+161199999V0202501N008219999999N9999999N1+00151-00121999999ADDAA106000591MA1999999083691MD1710071+9999ME1314939OA149901751REMSYN100AAXX  09124 06788 03/// /2516 10015 21012 38369 48493 57007 69941 333 55300 20583 60005 91134 91218;
0155067880999992011010913004+46517+009183FM-12+161199999V0202501N007719999999N9999999N1+00151-00141999999ADDMA1999999083671MD1710101+9999ME1314919OA149901651REMSYN094AAXX  09134 06788 23/// /2515 10015 21014 38367 48491 57010 333 55300 20493 69915 91132 91220;
0096067880999992011010914004+46517+009183FM-12+161199999V0202501N006219999999N9999999N1+00151-00161999999ADDMA1999999083661ME1314909REMSYN060AAXX  09144 06788 43/// /2512 10015 21016 38366 48490 5////;
0096067880999992011010915004+46517+009183FM-12+161199999V0202601N006719999999N9999999N1+00171-00131999999ADDMA1999999083671ME1314919REMSYN060AAXX  09154 06788 43/// /2613 10017 21013 38367 48491 5////;
0174067880999992011010916004+46517+009183FM-12+161199999V0202701N006219999999N9999999N1+00141-00121999999ADDMA1999999083671MD1410001+9999ME1314919OA149901651REMSYN094AAXX  09164 06788 23/// /2712 10014 21012 38367 48491 52000 333 55300 20036 69935 91132 91216;EQDQ01+000022APCTEN
0155067880999992011010917004+46517+009183FM-12+161199999V0202601N005119999999N9999999N1+00121-00141999999ADDMA1999999083631MD1810031+9999ME1314889OA149901241REMSYN094AAXX  09174 06788 23/// /2610 10012 21014 38363 48488 58003 333 55300 20011 69985 91124 91214;
0191067880999992011010918004+46517+009183FM-12+161199999V0202601N004119999999N9999999N1+00111-00121999999ADDAA112003091KA1120M+00181MA1999999083651MD1510021+9999ME1314909OA149901751REMSYN106AAXX  09184 06788 03/// /2608 10011 21012 38365 48490 55002 60032 333 10018 55300 20007 69995 91134 91220;
0155067880999992011010919004+46517+009183FM-12+161199999V0202701N005119999999N9999999N1+00101-00181999999ADDMA1999999083671MD1510001+9999ME1314929OA149901031REMSYN094AAXX  09194 06788 23/// /2710 10010 21018 38367 48492 55000 333 55300 20011 69985 91120 91212;
0155067880999992011010920004+46517+009183FM-12+161199999V0202601N003119999999N9999999N1+00131-00161999999ADDMA1999999083661MD1210031+9999ME1314909OA149900931REMSYN094AAXX  09204 06788 23/// /2606 10013 21016 38366 48490 52003 333 55300 20007 69965 91118 91210;
0155067880999992011010921004+46517+009183FM-12+161199999V0202701N003619999999N9999999N1+00091-00141999999ADDMA1999999083691MD1210041+9999ME1314949OA149901241REMSYN094AAXX  09214 06788 23/// /2707 10009 21014 38369 48494 52004 333 55300 20011 69985 91124 91214;
0155067880999992011010922004+46517+009183FM-12+161199999V0202701N003619999999N9999999N1+00101-00111999999ADDMA1999999083671MD1410001+9999ME1314929OA149900881REMSYN094AAXX  09224 06788 23/// /2707 10010 21011 38367 48492 57000 333 55300 20011 60015 91117 91209;
0155067880999992011010923004+46517+009183FM-12+161199999V0202701N005719999999N9999999N1+00131-00131999999ADDMA1999999083641MD1810021+9999ME1314899OA149900931REMSYN094AAXX  09234 06788 23/// /2711 10013 21013 38364 48489 58002 333 55300 20011 69985 91118 91211;
0172067880999992011011000004+46517+009183FM-12+161199999V0202601N005719999999N9999999N1+00161-00111999999ADDAA106005191MA1999999083611MD1710081+9999ME1314859OA149901651REMSYN100AAXX  10004 06788 03/// /2611 10016 21011 38361 48485 57008 60051 333 55300 20011 69975 91132 91220;
0155067880999992011011001004+46517+009183FM-12+161199999V0202501N004619999999N9999999N1+00151-00121999999ADDMA1999999083621MD1710051+9999ME1314869OA149901081REMSYN094AAXX  10014 06788 23/// /2509 10015 21012 38362 48486 57005 333 55300 20011 69955 91121 91211;
0118067880999992011011002004+46517+009183FM-12+161199999V0202601N002619999999N9999999N1+00111-00091999999ADDMA1999999083621ME1314879REMSYN082AAXX  10024 06788 23/// /2605 10011 21009 38362 48487 5//// 333 553// 20011 60015;
0096067880999992011011003004+46517+009183FM-12+161199999V0202401N004119999999N9999999N1+00081-00191999999ADDMA1999999083611ME1314869REMSYN060AAXX  10034 06788 43/// /2408 10008 21019 38361 48486 5////;
0118067880999992011011004004+46517+009183FM-12+161199999V0202401N003119999999N9999999N1+00061-00171999999ADDMA1999999083611ME1314869REMSYN082AAXX  10044 06788 23/// /2406 10006 21017 38361 48486 5//// 333 553// 20011 69975;
0155067880999992011011005004+46517+009183FM-12+161199999V0202401N003119999999N9999999N1+00131-00151999999ADDMA1999999083601MD1719999+9999ME1314859OA149900621REMSYN094AAXX  10054 06788 23/// /2406 10013 21015 38360 48485 57/// 333 55300 20011 69955 91112 91208;
0168067880999992011011006004+46517+009183FM-12+161199999V0201701N001019999999N9999999N1+00111-00161999999ADDAA124011791GJ100009IA2999+00009KA1999N+00051MA1999999083621ME1314879REMSYN088AAXX  10064 06788 43/// /1702 10011 21016 38362 48487 5//// 333 20005 3/000 55000 70118;
0149067880999992011011007004+46517+009183FM-12+161199999V0202201N002619999999N9999999N1+00101-00161999999ADDMA1999999083641MD1210031+9999ME1314899OA149900671REMSYN088AAXX  10074 06788 33/// /2205 10010 21016 38364 48489 52003 333 55300 20011 91113 91209;
0096067880999992011011008004+46517+009183FM-12+161199999V0200501N001519999999N9999999N1+00001-00081999999ADDMA1999999083671ME1314929REMSYN060AAXX  10084 06788 43/// /0503 10000 21008 38367 48492 5////;
0096067880999992011011009004+46517+009183FM-12+161199999V0200601N001519999999N9999999N1+00011-00081999999ADDMA1999999083681ME1314939REMSYN060AAXX  10094 06788 43/// /0603 10001 21008 38368 48493 5////;
0149067880999992011011010004+46517+009183FM-12+161199999V0200601N001519999999N9999999N1+00021-00101999999ADDMA1999999083711MD1310071+9999ME1314969OA149900311REMSYN088AAXX  10104 06788 33/// /0603 10002 21010 38371 48496 53007 333 55300 20432 91106 91204;
0155067880999992011011011004+46517+009183FM-12+161199999V0200601N002119999999N9999999N1+00001-00091999999ADDMA1999999083681MD1019999+9999ME1314939OA149900311REMSYN094AAXX  10114 06788 23/// /0604 10000 21009 38368 48493 50/// 333 55300 20515 69915 91106 91204;
0154067880999992011011012004+46517+009183FM-12+161199999V0209999C000019999999N9999999N1+00041-00081999999ADDAA106000091MA1999999083621ME1314879REMSYN088AAXX  10124 06788 03/// /0000 10004 21008 38362 48487 5//// 69921 333 553// 20691 60005;EQDQ01  00002PRCP06
0096067880999992011011013004+46517+009183FM-12+161199999V0209999C000019999999N9999999N1+00061-00081999999ADDMA1999999083591ME1314849REMSYN060AAXX  10134 06788 43/// /0000 10006 21008 38359 48484 5////;
0096067880999992011011014004+46517+009183FM-12+161199999V0209999C000019999999N9999999N1+00021-00081999999ADDMA1999999083561ME1314819REMSYN060AAXX  10144 06788 43/// /0000 10002 21008 38356 48481 5////;
0096067880999992011011015004+46517+009183FM-12+161199999V0201601N001019999999N9999999N1+00031-00081999999ADDMA1999999083571ME1314829REMSYN060AAXX  10154 06788 43/// /1602 10003 21008 38357 48482 5////;
0096067880999992011011016004+46517+009183FM-12+161199999V0209999C000019999999N9999999N1-00011-00111999999ADDMA1999999083571ME1314829REMSYN060AAXX  10164 06788 43/// /0000 11001 21011 38357 48482 5////;
0096067880999992011011017004+46517+009183FM-12+161199999V0201801N001019999999N9999999N1+00021-00171999999ADDMA1999999083551ME1314809REMSYN060AAXX  10174 06788 43/// /1802 10002 21017 38355 48480 5////;
0119067880999992011011018004+46517+009183FM-12+161199999V0202401N003119999999N9999999N1+00091-00201999999ADDKA1999M+00151MA1999999083541ME1314799REMSYN070AAXX  10184 06788 43/// /2406 10009 21020 38354 48479 5//// 333 10015;
0096067880999992011011019004+46517+009183FM-12+161199999V0202701N000519999999N9999999N1+00041-00191999999ADDMA1999999083511ME1314769REMSYN060AAXX  10194 06788 43/// /2701 10004 21019 38351 48476 5////;
0096067880999992011011020004+46517+009183FM-12+161199999V0201801N001019999999N9999999N1+00091-00221999999ADDMA1999999083491ME1314749REMSYN060AAXX  10204 06788 43/// /1802 10009 21022 38349 48474 5////;
0096067880999992011011021004+46517+009183FM-12+161199999V0202201N003619999999N9999999N1+00061-00241999999ADDMA1999999083481ME1314739REMSYN060AAXX  10214 06788 43/// /2207 10006 21024 38348 48473 5////;
0096067880999992011011022004+46517+009183FM-12+161199999V0202301N004619999999N9999999N1+00011-00321999999ADDMA1999999083501ME1314769REMSYN060AAXX  10224 06788 43/// /2309 10001 21032 38350 48476 5////;
0096067880999992011011023004+46517+009183FM-12+161199999V0202501N002619999999N9999999N1+00051-00291999999ADDMA1999999083471ME1314739REMSYN060AAXX  10234 06788 43/// /2505 10005 21029 38347 48473 5////;
0096067880999992011011100004+46517+009183FM-12+161199999V0202501N001019999999N9999999N1-00021-00201999999ADDMA1999999083421ME1314689REMSYN060AAXX  11004 06788 43/// /2502 11002 21020 38342 48468 5////;
0096067880999992011011101004+46517+009183FM-12+161199999V0202401N003619999999N9999999N1+00021-00311999999ADDMA1999999083381ME1314649REMSYN060AAXX  11014 06788 43/// /2407 10002 21031 38338 48464 5////;
0096067880999992011011102004+46517+009183FM-12+161199999V0202501N002619999999N9999999N1-00021-00271999999ADDMA1999999083361ME1314629REMSYN060AAXX  11024 06788 43/// /2505 11002 21027 38336 48462 5////;
0096067880999992011011103004+46517+009183FM-12+161199999V0209999C000019999999N9999999N1-00091-00221999999ADDMA1999999083331ME1314609REMSYN060AAXX  11034 06788 43/// /0000 11009 21022 38333 48460 5////;
0096067880999992011011104004+46517+009183FM-12+161199999V0209999C000019999999N9999999N1-00201-00311999999ADDMA1999999083291ME1314579REMSYN060AAXX  11044 06788 43/// /0000 11020 21031 38329 48457 5////;
0096067880999992011011105004+46517+009183FM-12+161199999V0209999C000019999999N9999999N1-00081-00271999999ADDMA1999999083251ME1314529REMSYN060AAXX  11054 06788 43/// /0000 11008 21027 38325 48452 5////;
0106067880999992011011106004+46517+009183FM-12+161199999V0202501N002619999999N9999999N1-00081-00311999999ADDMA1999999083241ME1314519REMSYN070AAXX  11064 06788 43/// /2505 11008 21031 38324 48451 5//// 333 55000;
0149067880999992011011107004+46517+009183FM-12+161199999V0202301N005119999999N9999999N1+00061-00281999999ADDMA1999999083221MD1719999+9999ME1314489OA149900721REMSYN088AAXX  11074 06788 33/// /2310 10006 21028 38322 48448 57/// 333 55300 20007 91114 91210;
0112067880999992011011108004+46517+009183FM-12+161199999V0202001N005719999999N9999999N1+00001-00211999999ADDMA1999999083231ME1314509REMSYN076AAXX  11084 06788 33/// /2011 10000 21021 38323 48450 5//// 333 553// 20079;
0096067880999992011011109004+46517+009183FM-12+161199999V0202201N005719999999N9999999N1+00031-00251999999ADDMA1999999083221ME1314489REMSYN060AAXX  11094 06788 43/// /2211 10003 21025 38322 48448 5////;
0149067880999992011011110004+46517+009183FM-12+161199999V0202201N005119999999N9999999N1+00081-00231999999ADDMA1999999083211MD1010011+9999ME1314479OA149900821REMSYN088AAXX  11104 06788 33/// /2210 10008 21023 38321 48447 50001 333 55300 20608 91116 91211;
0149067880999992011011111004+46517+009183FM-12+161199999V0202001N006719999999N9999999N1+00071-00201999999ADDMA1999999083161MD1710071+9999ME1314429OA149900981REMSYN088AAXX  11114 06788 33/// /2013 10007 21020 38316 48442 57007 333 55300 20814 91119 91213;
0112067880999992011011112004+46517+009183FM-12+161199999V0202401N006219999999N9999999N1+00041-00201999999ADDMA1999999083091ME1314369REMSYN076AAXX  11124 06788 33/// /2412 10004 21020 38309 48436 5//// 333 553// 20997;
0149067880999992011011113004+46517+009183FM-12+161199999V0202301N004619999999N9999999N1+00041-00241999999ADDMA1999999083001MD1810211+9999ME1314279OA149901031REMSYN088AAXX  11134 06788 33/// /2309 10004 21024 38300 48427 58021 333 55300 20601 91120 91213;
0096067880999992011011114004+46517+009183FM-12+161199999V0202401N005119999999N9999999N1+00101-00271999999ADDMA1999999082981ME1314259REMSYN060AAXX  11144 06788 43/// /2410 10010 21027 38298 48425 5////;
0096067880999992011011115004+46517+009183FM-12+161199999V0202401N004619999999N9999999N1+00031-00241999999ADDMA1999999083001ME1314279REMSYN060AAXX  11154 06788 43/// /2409 10003 21024 38300 48427 5////;
0149067880999992011011116004+46517+009183FM-12+161199999V0202101N004619999999N9999999N1+00011-00211999999ADDMA1999999083031MD1310031+9999ME1314309OA149900881REMSYN088AAXX  11164 06788 33/// /2109 10001 21021 38303 48430 53003 333 55300 20058 91117 91211;
0155067880999992011011117004+46517+009183FM-12+161199999V0200401N001019999999N9999999N1-00051-00181999999ADDMA1999999083071MD1219999+9999ME1314349OA149900821REMSYN094AAXX  11174 06788 23/// /0402 11005 21018 38307 48434 52/// 333 55300 20007 69915 91116 91211;
0210067880999992011011118004+46517+009183FM-12+161199999V0209999C000019999999N9999999N1-00081-00221999999ADDAA112000091KA1120M+00101MA1999999083111MD1210111+9999ME1314399OA149901031REMSYN106AAXX  11184 06788 03/// /0000 11008 21022 38311 48439 52011 69912 333 10010 55300 20007 60005 91120 91213;EQDQ01  00002PRCP12
0155067880999992011011119004+46517+009183FM-12+161199999V0209999C000019999999N9999999N1-00201-00331999999ADDMA1999999083151MD1210121+9999ME1314439OA149900101REMSYN094AAXX  11194 06788 23/// /0000 11020 21033 38315 48443 52012 333 55300 20011 69915 91102 91200;
0149067880999992011011120004+46517+009183FM-12+161199999V0209999C000019999999N9999999N1-00151-00361999999ADDMA1999999083211MD1210141+9999ME1314499OA149900001REMSYN088AAXX  11204 06788 33/// /0000 11015 21036 38321 48449 52014 333 55300 20007 91100 91200;
0149067880999992011011121004+46517+009183FM-12+161199999V0209999C000019999999N9999999N1-00151-00301999999ADDMA1999999083261MD1210151+9999ME1314539OA149900821REMSYN088AAXX  11214 06788 33/// /0000 11015 21030 38326 48453 52015 333 55300 20007 91116 91211;
0149067880999992011011122004+46517+009183FM-12+161199999V0200501N001019999999N9999999N1-00041-00251999999ADDMA1999999083311MD1210161+9999ME1314589OA149900411REMSYN088AAXX  11224 06788 33/// /0502 11004 21025 38331 48458 52016 333 55300 20011 91108 91202;
0149067880999992011011123004+46517+009183FM-12+161199999V0200801N002619999999N9999999N1-00041-00311999999ADDMA1999999083381MD1310171+9999ME1314649OA149900671REMSYN088AAXX  11234 06788 33/// /0805 11004 21031 38338 48464 53017 333 55300 20007 91113 91209;
0191067880999992011011200004+46517+009183FM-12+161199999V0200301N004119999999N9999999N1-00061-00331999999ADDAA106000091MA1999999083401MD1110141+9999ME1314669OA149900881REMSYN100AAXX  12004 06788 03/// /0308 11006 21033 38340 48466 51014 69911 333 55300 20007 60005 91117 91212;EQDQ01  00002PRCP06
0149067880999992011011201004+46517+009183FM-12+161199999V0200401N004619999999N9999999N1-00091-00391999999ADDMA1999999083431MD1110121+9999ME1314699OA149900771REMSYN088AAXX  12014 06788 33/// /0409 11009 21039 38343 48469 51012 333 55300 20004 91115 91209;
0112067880999992011011202004+46517+009183FM-12+161199999V0200701N002619999999N9999999N1-00121-00441999999ADDMA1999999083531ME1314799REMSYN076AAXX  12024 06788 33/// /0705 11012 21044 38353 48479 5//// 333 553// 20007;
0096067880999992011011203004+46517+009183FM-12+161199999V0200501N004119999999N9999999N1-00141-00471999999ADDMA1999999083611ME1314879REMSYN060AAXX  12034 06788 43/// /0508 11014 21047 38361 48487 5////;
0096067880999992011011204004+46517+009183FM-12+161199999V0203401N000519999999N9999999N1-00221-00631999999ADDMA1999999083651ME1314919REMSYN060AAXX  12044 06788 43/// /3401 11022 21063 38365 48491 5////;
0112067880999992011011205004+46517+009183FM-12+161199999V0209999C000019999999N9999999N1-00461-00861999999ADDMA1999999083661ME1314939REMSYN076AAXX  12054 06788 33/// /0000 11046 21086 38366 48493 5//// 333 553// 20011;
0168067880999992011011206004+46517+009183FM-12+161199999V0209999C000019999999N9999999N1-00511-00751999999ADDAA124000391GJ100009IA2999-00809KA1999N-00541MA1999999083721ME1314999REMSYN088AAXX  12064 06788 43/// /0000 11051 21075 38372 48499 5//// 333 21054 3/108 55000 70002;
0149067880999992011011207004+46517+009183FM-12+161199999V0209999C000019999999N9999999N1-00531-00801999999ADDMA1999999083811MD1310161+9999ME1315089OA149900411REMSYN088AAXX  12074 06788 33/// /0000 11053 21080 38381 48508 53016 333 55300 20011 91108 91204;
0096067880999992011011208004+46517+009183FM-12+161199999V0209999C000019999999N9999999N1-00431-00721999999ADDMA1999999083861ME1315129REMSYN060AAXX  12084 06788 43/// /0000 11043 21072 38386 48512 5////;
0096067880999992011011209004+46517+009183FM-12+161199999V0200501N002119999999N9999999N1-00351-00611999999ADDMA1999999083851ME1315119REMSYN060AAXX  12094 06788 43/// /0504 11035 21061 38385 48511 5////;
0149067880999992011011210004+46517+009183FM-12+161199999V0200601N005119999999N9999999N1-00171-00421999999ADDMA1999999083881MD1219999+9999ME1315139OA149900771REMSYN088AAXX  12104 06788 33/// /0610 11017 21042 38388 48513 52/// 333 55300 20637 91115 91210;
0149067880999992011011211004+46517+009183FM-12+161199999V0209999C000019999999N9999999N1-00231-00611999999ADDMA1999999083901MD1210041+9999ME1315159OA149900771REMSYN088AAXX  12114 06788 33/// /0000 11023 21061 38390 48515 52004 333 55300 20576 91115 91210;
0096067880999992011011212004+46517+009183FM-12+161199999V0202401N001019999999N9999999N1-00261-00751999999ADDMA1999999083871ME1315129REMSYN060AAXX  12124 06788 43/// /2402 11026 21075 38387 48512 5////;
0096067880999992011011213004+46517+009183FM-12+161199999V0209999C000019999999N9999999N1-00321-00791999999ADDMA1999999083881ME1315139REMSYN060AAXX  12134 06788 43/// /0000 11032 21079 38388 48513 5////;
0096067880999992011011214004+46517+009183FM-12+161199999V0202401N003119999999N9999999N1-00211-00731999999ADDMA1999999083911ME1315169REMSYN060AAXX  12144 06788 43/// /2406 11021 21073 38391 48516 5////;
0096067880999992011011215004+46517+009183FM-12+161199999V0202701N001519999999N9999999N1+00001-00581999999ADDMA1999999083921ME1315169REMSYN060AAXX  12154 06788 43/// /2703 10000 21058 38392 48516 5////;
0149067880999992011011216004+46517+009183FM-12+161199999V0209999C000019999999N9999999N1-00051-00451999999ADDMA1999999083951MD1210071+9999ME1315199OA149900411REMSYN088AAXX  12164 06788 33/// /0000 11005 21045 38395 48519 52007 333 55300 20115 91108 91205;
0155067880999992011011217004+46517+009183FM-12+161199999V0209999C000019999999N9999999N1-00131-00311999999ADDMA1999999084011MD1210101+9999ME1315259OA149900411REMSYN094AAXX  12174 06788 23/// /0000 11013 21031 38401 48525 52010 333 55300 20011 69915 91108 91205;
0197067880999992011011218004+46517+009183FM-12+161199999V0209999C000019999999N9999999N1-00141-00291999999ADDAA112000891KA1120M+00011MA1999999083981MD1219999+9999ME1315229OA149900771REMSYN112AAXX  12184 06788 03/// /0000 11014 21029 38398 48522 52/// 69972 91740 333 10001 55300 20011 69965 91115 91210;
0096067880999992011011219004+46517+009183FM-12+161199999V0209999C000019999999N9999999N1-00171-00321999999ADDMA1999999084001ME1315249REMSYN060AAXX  12194 06788 43/// /0000 11017 21032 38400 48524 5////;
0137067880999992011011220004+46517+009183FM-12+161199999V0209999C000019999999N9999999N1-00191-00351999999ADDMA1999999083991MD1010021+9999ME1315239OA149900001REMSYN076AAXX  12204 06788 43/// /0000 11019 21035 38399 48523 50002 333 91100 91200;
0149067880999992011011221004+46517+009183FM-12+161199999V0209999C000019999999N9999999N1-00221-00361999999ADDMA1999999083981MD1019999+9999ME1315239OA149900411REMSYN088AAXX  12214 06788 33/// /0000 11022 21036 38398 48523 50/// 333 55300 20011 91108 91205;
0149067880999992011011222004+46517+009183FM-12+161199999V0209999C000019999999N9999999N1-00221-00351999999ADDMA1999999083971MD1719999+9999ME1315229OA149900001REMSYN088AAXX  12224 06788 33/// /0000 11022 21035 38397 48522 57/// 333 55300 20011 91100 91200;
0149067880999992011011223004+46517+009183FM-12+161199999V0209999C000019999999N9999999N1-00251-00361999999ADDMA1999999083971MD1710021+9999ME1315229OA149900001REMSYN088AAXX  12234 06788 33/// /0000 11025 21036 38397 48522 57002 333 55300 20011 91100 91200;
0161067880999992011011300004+46517+009183FM-12+161199999V0209999C000019999999N9999999N1-00221-00371999999ADDMA1999999083921MD1719999+9999ME1315179OA149900411REMSYN100AAXX  13004 06788 23/// /0000 11022 21037 38392 48517 57/// 6///1 333 55300 20011 60005 91108 91206;
0149067880999992011011301004+46517+009183FM-12+161199999V0209999C000019999999N9999999N1-00191-00361999999ADDMA1999999083921MD1710051+9999ME1315179OA149900001REMSYN088AAXX  13014 06788 33/// /0000 11019 21036 38392 48517 57005 333 55300 20011 91100 91200;
0155067880999992011011302004+46517+009183FM-12+161199999V0209999C000019999999N9999999N1-00121-00291999999ADDMA1999999083951MD1519999+9999ME1315199OA149900001REMSYN094AAXX  13024 06788 23/// /0000 11012 21029 38395 48519 55/// 333 55300 20011 69935 91100 91200;
0096067880999992011011303004+46517+009183FM-12+161199999V0209999C000019999999N9999999N1-00101-00241999999ADDMA1999999083921ME1315169REMSYN060AAXX  13034 06788 43/// /0000 11010 21024 38392 48516 5////;
0149067880999992011011304004+46517+009183FM-12+161199999V0203301N000519999999N9999999N1-00081-00221999999ADDMA1999999083891MD1819999+9999ME1315139OA149900311REMSYN088AAXX  13044 06788 33/// /3301 11008 21022 38389 48513 58/// 333 55300 20011 91106 91201;
0112067880999992011011305004+46517+009183FM-12+161199999V0209999C000019999999N9999999N1-00041-00171999999ADDMA1999999083871ME1315119REMSYN076AAXX  13054 06788 33/// /0000 11004 21017 38387 48511 5//// 333 553// 20007;
0239067880999992011011306004+46517+009183FM-12+161199999V0209999C000019999999N9999999N1-00031-00151999999ADDAA112000591AL11200191GJ101029IA2999-00309KA1999N-00261MA1999999083861MD1710061+9999ME1315109OA149900311REMSYN124AAXX  13064 06788 03/// /0000 11003 21015 38386 48510 57006 69942 333 21026 3/103 55017 55300 20007 60005 70012 91106 91201;
0126067880999992011011307004+46517+009183FM-12+161199999V0202501N001019999999N9999999N1+00071-00081999999ADDMA1999999083861MD1710031+9999ME1315109REMSYN076AAXX  13074 06788 43/// /2502 10007 21008 38386 48510 57003 333 553// 20004;
0096067880999992011011308004+46517+009183FM-12+161199999V0202601N000519999999N9999999N1+00091-00031999999ADDMA1999999083921ME1315169REMSYN060AAXX  13084 06788 43/// /2601 10009 21003 38392 48516 5////;
0096067880999992011011309004+46517+009183FM-12+161199999V0209999C002119999999N9999999N1+00251+00041999999ADDMA1999999083921ME1315159REMSYN060AAXX  13094 06788 43/// /0004 10025 20004 38392 48515 5////;
0096067880999992011011310004+46517+009183FM-12+161199999V0200301N001519999999N9999999N1+00261+00061999999ADDMA1999999083931ME1315169REMSYN060AAXX  13104 06788 43/// /0303 10026 20006 38393 48516 5////;
0096067880999992011011311004+46517+009183FM-12+161199999V0200701N007219999999N9999999N1+00351+00111999999ADDMA1999999083891ME1315129REMSYN060AAXX  13114 06788 43/// /0714 10035 20011 38389 48512 5////;
0096067880999992011011312004+46517+009183FM-12+161199999V0200101N001519999999N9999999N1+00431+00111999999ADDMA1999999083841ME1315079REMSYN060AAXX  13124 06788 43/// /0103 10043 20011 38384 48507 5////;
0096067880999992011011313004+46517+009183FM-12+161199999V0200401N003119999999N9999999N1+00401+00131999999ADDMA1999999083831ME1315069REMSYN060AAXX  13134 06788 43/// /0406 10040 20013 38383 48506 5////;
0096067880999992011011314004+46517+009183FM-12+161199999V0202701N001019999999N9999999N1+00261+00091999999ADDMA1999999083851ME1315089REMSYN060AAXX  13144 06788 43/// /2702 10026 20009 38385 48508 5////;
0096067880999992011011315004+46517+009183FM-12+161199999V0201401N001019999999N9999999N1+00231+00091999999ADDMA1999999083871ME1315109REMSYN060AAXX  13154 06788 43/// /1402 10023 20009 38387 48510 5////;
0096067880999992011011316004+46517+009183FM-12+161199999V0200101N002119999999N9999999N1+00291+00081999999ADDMA1999999083921ME1315159REMSYN060AAXX  13164 06788 43/// /0104 10029 20008 38392 48515 5////;
0149067880999992011011317004+46517+009183FM-12+161199999V0209999C000019999999N9999999N1+00131+00011999999ADDMA1999999083991MD1210141+9999ME1315229OA149900671REMSYN088AAXX  13174 06788 33/// /0000 10013 20001 38399 48522 52014 333 55300 20007 91113 91206;
0210067880999992011011318004+46517+009183FM-12+161199999V0209999C000019999999N9999999N1+00091+00011999999ADDAA112000091KA1120M+00451MA1999999084011MD1210141+9999ME1315249OA149901391REMSYN106AAXX  13184 06788 03/// /0000 10009 20001 38401 48524 52014 69912 333 10045 55300 20011 60005 91127 91214;EQDQ01  00002PRCP12
0149067880999992011011319004+46517+009183FM-12+161199999V0209999C000019999999N9999999N1+00121+00011999999ADDMA1999999084041MD1210121+9999ME1315279OA149900151REMSYN088AAXX  13194 06788 33/// /0000 10012 20001 38404 48527 52012 333 55300 20011 91103 91200;
0149067880999992011011320004+46517+009183FM-12+161199999V0209999C000019999999N9999999N1+00101+00001999999ADDMA1999999084041MD1210051+9999ME1315279OA149900001REMSYN088AAXX  13204 06788 33/// /0000 10010 20000 38404 48527 52005 333 55300 20007 91100 91200;
0149067880999992011011321004+46517+009183FM-12+161199999V0209999C000019999999N9999999N1+00011-00011999999ADDMA1999999084051MD1210041+9999ME1315289OA149900671REMSYN088AAXX  13214 06788 33/// /0000 10001 21001 38405 48528 52004 333 55300 20011 91113 91206;
0149067880999992011011322004+46517+009183FM-12+161199999V0209999C000019999999N9999999N1-00031-00091999999ADDMA1999999084081MD1210041+9999ME1315319OA149900001REMSYN088AAXX  13224 06788 33/// /0000 11003 21009 38408 48531 52004 333 55300 20011 91100 91200;
0149067880999992011011323004+46517+009183FM-12+161199999V0200901N000519999999N9999999N1-00231-00231999999ADDMA1999999084061MD1210021+9999ME1315309OA149900211REMSYN088AAXX  13234 06788 33/// /0901 11023 21023 38406 48530 52002 333 55300 20007 91104 91201;
0149067880999992011011400004+46517+009183FM-12+161199999V0209999C000019999999N9999999N1-00161-00211999999ADDMA1999999084041MD1010011+9999ME1315289OA149901391REMSYN088AAXX  14004 06788 33/// /0000 11016 21021 38404 48528 50001 333 55300 20007 91127 91212;
0149067880999992011011401004+46517+009183FM-12+161199999V0209999C000019999999N9999999N1-00111-00221999999ADDMA1999999084051MD1710031+9999ME1315299OA149900311REMSYN088AAXX  14014 06788 33/// /0000 11011 21022 38405 48529 57003 333 55300 20007 91106 91203;
0112067880999992011011402004+46517+009183FM-12+161199999V0209999C000019999999N9999999N1-00181-00371999999ADDMA1999999084101ME1315349REMSYN076AAXX  14024 06788 33/// /0000 11018 21037 38410 48534 5//// 333 553// 20007;
0149067880999992011011403004+46517+009183FM-12+161199999V0209999C000019999999N9999999N1-00331-00411999999ADDMA1999999084111MD1210071+9999ME1315359OA149900311REMSYN088AAXX  14034 06788 33/// /0000 11033 21041 38411 48535 52007 333 55300 20007 91106 91203;
0149067880999992011011404004+46517+009183FM-12+161199999V0209999C000019999999N9999999N1-00231-00311999999ADDMA1999999084111MD1010061+9999ME1315359OA149900001REMSYN088AAXX  14044 06788 33/// /0000 11023 21031 38411 48535 50006 333 55300 20011 91100 91200;
0149067880999992011011405004+46517+009183FM-12+161199999V0209999C000019999999N9999999N1-00231-00401999999ADDMA1999999084121MD1010021+9999ME1315369OA149900001REMSYN088AAXX  14054 06788 33/// /0000 11023 21040 38412 48536 50002 333 55300 20011 91100 91200;
0216067880999992011011406004+46517+009183FM-12+161199999V0209999C000019999999N9999999N1-00271-00491999999ADDAL10600091GJ101029IA2999-00509KA1999N-00331MA1999999084151MD1210041+9999ME1315399OA149900311REMSYN112AAXX  14064 06788 33/// /0000 11027 21049 38415 48539 52004 333 21033 3/105 55017 55300 20011 70001 91106 91203;
0149067880999992011011407004+46517+009183FM-12+161199999V0209999C000019999999N9999999N1-00391-00611999999ADDMA1999999084151MD1210041+9999ME1315399OA149900001REMSYN088AAXX  14074 06788 33/// /0000 11039 21061 38415 48539 52004 333 55300 20011 91100 91200;
0096067880999992011011408004+46517+009183FM-12+161199999V0209999C000019999999N9999999N1-00401-00711999999ADDMA1999999084161ME1315409REMSYN060AAXX  14084 06788 43/// /0000 11040 21071 38416 48540 5////;
0096067880999992011011409004+46517+009183FM-12+161199999V0209999C000019999999N9999999N1-00381-00601999999ADDMA1999999084161ME1315409REMSYN060AAXX  14094 06788 43/// /0000 11038 21060 38416 48540 5////;
0096067880999992011011410004+46517+009183FM-12+161199999V0209999C000019999999N9999999N1-00351-00581999999ADDMA1999999084141ME1315389REMSYN060AAXX  14104 06788 43/// /0000 11035 21058 38414 48538 5////;
0149067880999992011011411004+46517+009183FM-12+161199999V0209999C000019999999N9999999N1-00251-00361999999ADDMA1999999084101MD1710061+9999ME1315349OA149900001REMSYN088AAXX  14114 06788 33/// /0000 11025 21036 38410 48534 57006 333 55304 20684 91100 91200;
0149067880999992011011412004+46517+009183FM-12+161199999V0209999C000019999999N9999999N1+00031-00261999999ADDMA1999999084031MD1810131+9999ME1315269OA149900051REMSYN088AAXX  14124 06788 33/// /0000 10003 21026 38403 48526 58013 333 553// 2//// 91101 91200;
0149067880999992011011413004+46517+009183FM-12+161199999V0209999C000019999999N9999999N1+00021-00321999999ADDMA1999999083991MD1810151+9999ME1315239OA149900001REMSYN088AAXX  14134 06788 33/// /0000 10002 21032 38399 48523 58015 333 553// 2//// 91100 91200;
0112067880999992011011414004+46517+009183FM-12+161199999V0209999C000019999999N9999999N1-00101-00321999999ADDMA1999999083971ME1315219REMSYN076AAXX  14144 06788 33/// /0000 11010 21032 38397 48521 5//// 333 553// 20749;
0149067880999992011011415004+46517+009183FM-12+161199999V0209999C000019999999N9999999N1-00011-00381999999ADDMA1999999083991MD1510041+9999ME1315239OA149900001REMSYN088AAXX  14154 06788 33/// /0000 11001 21038 38399 48523 55004 333 55300 20252 91100 91200;
0149067880999992011011416004+46517+009183FM-12+161199999V0209999C000019999999N9999999N1-00041-00431999999ADDMA1999999083981MD1510011+9999ME1315229OA149900001REMSYN088AAXX  14164 06788 33/// /0000 11004 21043 38398 48522 55001 333 55300 20101 91100 91200;
0149067880999992011011417004+46517+009183FM-12+161199999V0209999C000019999999N9999999N1-00181-00531999999ADDMA1999999083991MD1210021+9999ME1315239OA149900001REMSYN088AAXX  14174 06788 33/// /0000 11018 21053 38399 48523 52002 333 55300 20011 91100 91200;
0187067880999992011011418004+46517+009183FM-12+161199999V0209999C000019999999N9999999N1-00281-00621999999ADDKA1120M+00201MA1999999083991MD1410001+9999ME1315249OA149900001REMSYN094AAXX  14184 06788 33/// /0000 11028 21062 38399 48524 52000 333 10020 55300 20011 91100 91200;EQDQ01+000022APCTEN
0149067880999992011011419004+46517+009183FM-12+161199999V0209999C000019999999N9999999N1-00041-00561999999ADDMA1999999083951MD1810031+9999ME1315199OA149900001REMSYN088AAXX  14194 06788 33/// /0000 11004 21056 38395 48519 58003 333 55300 20007 91100 91200;
0149067880999992011011420004+46517+009183FM-12+161199999V0209999C000019999999N9999999N1-00121-00591999999ADDMA1999999083921MD1710071+9999ME1315169OA149900001REMSYN088AAXX  14204 06788 33/// /0000 11012 21059 38392 48516 57007 333 55300 20011 91100 91200;
0149067880999992011011421004+46517+009183FM-12+161199999V0209999C000019999999N9999999N1-00121-00551999999ADDMA1999999083871MD1710121+9999ME1315129OA149900001REMSYN088AAXX  14214 06788 33/// /0000 11012 21055 38387 48512 57012 333 55300 20011 91100 91200;
0149067880999992011011422004+46517+009183FM-12+161199999V0209999C000019999999N9999999N1-00091-00571999999ADDMA1999999083851MD1710101+9999ME1315109OA149900001REMSYN088AAXX  14224 06788 33/// /0000 11009 21057 38385 48510 57010 333 55300 20011 91100 91200;
0149067880999992011011423004+46517+009183FM-12+161199999V0202301N002119999999N9999999N1+00081-00501999999ADDMA1999999083831MD1710091+9999ME1315079OA149900721REMSYN088AAXX  14234 06788 33/// /2304 10008 21050 38383 48507 57009 333 55300 20011 91114 91205;
0149067880999992011011500004+46517+009183FM-12+161199999V0202701N000519999999N9999999N1-00031-00641999999ADDMA1999999083741MD1710131+9999ME1314999OA149900821REMSYN088AAXX  15004 06788 33/// /2701 11003 21064 38374 48499 57013 333 55300 20007 91116 91206;
0149067880999992011011501004+46517+009183FM-12+161199999V0200201N000519999999N9999999N1-00111-00551999999ADDMA1999999083911MD1310061+9999ME1315159OA149900821REMSYN088AAXX  15014 06788 33/// /0201 11011 21055 38391 48515 53006 333 55300 20011 91116 91206;
0149067880999992011011502004+46517+009183FM-12+161199999V0200301N005119999999N9999999N1+00111-00271999999ADDMA1999999084041MD1319999+9999ME1315279OA149900981REMSYN088AAXX  15024 06788 33/// /0310 10011 21027 38404 48527 53/// 333 55300 20007 91119 91210;
0112067880999992011011503004+46517+009183FM-12+161199999V0202301N001519999999N9999999N1-00041-00401999999ADDMA1999999084051ME1315299REMSYN076AAXX  15034 06788 33/// /2303 11004 21040 38405 48529 5//// 333 553// 20007;
0149067880999992011011504004+46517+009183FM-12+161199999V0200401N001519999999N9999999N1+00011-00311999999ADDMA1999999084081MD1210171+9999ME1315319OA149900511REMSYN088AAXX  15044 06788 33/// /0403 10001 21031 38408 48531 52017 333 55300 20011 91110 91205;
0149067880999992011011505004+46517+009183FM-12+161199999V0200401N006719999999N9999999N1+00091-00141999999ADDMA1999999084131MD1210091+9999ME1315369OA149901031REMSYN088AAXX  15054 06788 33/// /0413 10009 21014 38413 48536 52009 333 55300 20011 91120 91214;
0216067880999992011011506004+46517+009183FM-12+161199999V0200701N005119999999N9999999N1+00271-00481999999ADDAL19900091GJ101929IA2999-00509KA1999N-00281MA1999999084191MD1210141+9999ME1315419OA149901491REMSYN112AAXX  15064 06788 33/// /0710 10027 21048 38419 48541 52014 333 21028 3/105 55032 55300 20007 70000 91129 91214;
0149067880999992011011507004+46517+009183FM-12+161199999V0200601N006719999999N9999999N1+00011-00271999999ADDMA1999999084331MD1210251+9999ME1315559OA149901491REMSYN088AAXX  15074 06788 33/// /0613 10001 21027 38433 48555 52025 333 55300 20011 91129 91214;
0149067880999992011011508004+46517+009183FM-12+161199999V0200701N003619999999N9999999N1-00011-00331999999ADDMA1999999084401MD1219999+9999ME1315629OA149901081REMSYN088AAXX  15084 06788 33/// /0707 11001 21033 38440 48562 52/// 333 55300 20050 91121 91213;
0149067880999992011011509004+46517+009183FM-12+161199999V0200301N005719999999N9999999N1+00091-00491999999ADDMA1999999084461MD1210271+9999ME1315679OA149901491REMSYN088AAXX  15094 06788 33/// /0311 10009 21049 38446 48567 52027 333 55300 20119 91129 91214;
0149067880999992011011510004+46517+009183FM-12+161199999V0200601N006719999999N9999999N1-00111-00291999999ADDMA1999999084501MD1210171+9999ME1315729OA149900931REMSYN088AAXX  15104 06788 33/// /0613 11011 21029 38450 48572 52017 333 55300 20191 91118 91213;
0149067880999992011011511004+46517+009183FM-12+161199999V0200301N005719999999N9999999N1-00021-00211999999ADDMA1999999084441MD1010041+9999ME1315669OA149900931REMSYN088AAXX  15114 06788 33/// /0311 11002 21021 38444 48566 50004 333 55303 20634 91118 91213;
0149067880999992011011512004+46517+009183FM-12+161199999V0200501N003119999999N9999999N1+00041-00191999999ADDMA1999999084421MD1710041+9999ME1315649OA149901491REMSYN088AAXX  15124 06788 33/// /0506 10004 21019 38442 48564 57004 333 55309 2//// 91129 91214;
0112067880999992011011513004+46517+009183FM-12+161199999V0209999C000019999999N9999999N1-00031-00431999999ADDMA1999999084461ME1315689REMSYN076AAXX  15134 06788 33/// /0000 11003 21043 38446 48568 5//// 333 553// 2////;
0096067880999992011011514004+46517+009183FM-12+161199999V0202401N003619999999N9999999N1-00231-00701999999ADDMA1999999084491ME1315719REMSYN060AAXX  15144 06788 43/// /2407 11023 21070 38449 48571 5////;
0096067880999992011011515004+46517+009183FM-12+161199999V0202101N001519999999N9999999N1-00121-00591999999ADDMA1999999084541ME1315759REMSYN060AAXX  15154 06788 43/// /2103 11012 21059 38454 48575 5////;
0096067880999992011011516004+46517+009183FM-12+161199999V0209999C000019999999N9999999N1-00301-00791999999ADDMA1999999084591ME1315809REMSYN060AAXX  15164 06788 43/// /0000 11030 21079 38459 48580 5////;
0112067880999992011011517004+46517+009183FM-12+161199999V0209999C000019999999N9999999N1-00431-00821999999ADDMA1999999084661ME1315879REMSYN076AAXX  15174 06788 33/// /0000 11043 21082 38466 48587 5//// 333 553// 20014;
0119067880999992011011518004+46517+009183FM-12+161199999V0209999C000019999999N9999999N1-00561-00931999999ADDKA1999M+00271MA1999999084721ME1315939REMSYN070AAXX  15184 06788 43/// /0000 11056 21093 38472 48593 5//// 333 10027;
0096067880999992011011519004+46517+009183FM-12+161199999V0209999C000019999999N9999999N1-00651-00911999999ADDMA1999999084741ME1315959REMSYN060AAXX  15194 06788 43/// /0000 11065 21091 38474 48595 5////;
0096067880999992011011520004+46517+009183FM-12+161199999V0202501N000519999999N9999999N1-00701-00951999999ADDMA1999999084761ME1315979REMSYN060AAXX  15204 06788 43/// /2501 11070 21095 38476 48597 5////;
0149067880999992011011521004+46517+009183FM-12+161199999V0209999C000019999999N9999999N1-00611-00881999999ADDMA1999999084781MD1210061+9999ME1315989OA149900361REMSYN088AAXX  15214 06788 33/// /0000 11061 21088 38478 48598 52006 333 55300 20007 91107 91205;
0149067880999992011011522004+46517+009183FM-12+161199999V0202501N001519999999N9999999N1-00451-00901999999ADDMA1999999084761MD1010021+9999ME1315969OA149900261REMSYN088AAXX  15224 06788 33/// /2503 11045 21090 38476 48596 50002 333 55300 20011 91105 91203;
0149067880999992011011523004+46517+009183FM-12+161199999V0209999C000019999999N9999999N1-00511-00991999999ADDMA1999999084731MD1810031+9999ME1315949OA149900261REMSYN088AAXX  15234 06788 33/// /0000 11051 21099 38473 48594 58003 333 55300 20011 91105 91203;
0149067880999992011011600004+46517+009183FM-12+161199999V0209999C000019999999N9999999N1-00601-01171999999ADDMA1999999084721MD1710061+9999ME1315939OA149900511REMSYN088AAXX  16004 06788 33/// /0000 11060 21117 38472 48593 57006 333 55300 20011 91110 91207;
0149067880999992011011601004+46517+009183FM-12+161199999V0202501N002119999999N9999999N1-00531-01041999999ADDMA1999999084751MD1510011+9999ME1315969OA149900361REMSYN088AAXX  16014 06788 33/// /2504 11053 21104 38475 48596 55001 333 55300 20011 91107 91204;
0149067880999992011011602004+46517+009183FM-12+161199999V0209999C000019999999N9999999N1-00541-01021999999ADDMA1999999084741MD1219999+9999ME1315959OA149900361REMSYN088AAXX  16024 06788 33/// /0000 11054 21102 38474 48595 52/// 333 55300 20011 91107 91204;
0096067880999992011011603004+46517+009183FM-12+161199999V0209999C000019999999N9999999N1-00641-00991999999ADDMA1999999084731ME1315949REMSYN060AAXX  16034 06788 43/// /0000 11064 21099 38473 48594 5////;
0149067880999992011011604004+46517+009183FM-12+161199999V0209999C000019999999N9999999N1-00521-00981999999ADDMA1999999084721MD1710031+9999ME1315939OA149900311REMSYN088AAXX  16044 06788 33/// /0000 11052 21098 38472 48593 57003 333 55300 20007 91106 91202;
0149067880999992011011605004+46517+009183FM-12+161199999V0209999C000019999999N9999999N1-00551-00901999999ADDMA1999999084711MD1710031+9999ME1315929OA149900261REMSYN088AAXX  16054 06788 33/// /0000 11055 21090 38471 48592 57003 333 55300 20011 91105 91203;
0216067880999992011011606004+46517+009183FM-12+161199999V0209999C000019999999N9999999N1-00611-00901999999ADDAL19900091GJ101869IA2999-00909KA1999N-00701MA1999999084741MD1310011+9999ME1315959OA149900361REMSYN112AAXX  16064 06788 33/// /0000 11061 21090 38474 48595 53001 333 21070 3/109 55031 55300 20011 70000 91107 91204;
0149067880999992011011607004+46517+009183FM-12+161199999V0209999C000019999999N9999999N1-00411-00811999999ADDMA1999999084751MD1210031+9999ME1315959OA149900311REMSYN088AAXX  16074 06788 33/// /0000 11041 21081 38475 48595 52003 333 55300 20011 91106 91202;
0149067880999992011011608004+46517+009183FM-12+161199999V0209999C000019999999N9999999N1-00481-00811999999ADDMA1999999084761MD1219999+9999ME1315969OA149900311REMSYN088AAXX  16084 06788 33/// /0000 11048 21081 38476 48596 52/// 333 55300 20047 91106 91202;
0149067880999992011011609004+46517+009183FM-12+161199999V0209999C000019999999N9999999N1-00351-00691999999ADDMA1999999084771MD1210031+9999ME1315979OA149900311REMSYN088AAXX  16094 06788 33/// /0000 11035 21069 38477 48597 52003 333 55300 20115 91106 91203;
0149067880999992011011610004+46517+009183FM-12+161199999V0209999C000019999999N9999999N1-00151-00631999999ADDMA1999999084781MD1210031+9999ME1315989OA149900311REMSYN088AAXX  16104 06788 33/// /0000 11015 21063 38478 48598 52003 333 55300 20187 91106 91201;
0149067880999992011011611004+46517+009183FM-12+161199999V0202001N003119999999N9999999N1+00712-00341999999ADDMA1999999084761MD1010001+9999ME1315959OA149900721REMSYN088AAXX  16114 06788 33/// /2006 10071 21034 38476 48595 50000 333 55305 20803 91114 91208;
0149067880999992011011612004+46517+009183FM-12+161199999V0202201N005719999999N9999999N1+00711-00321999999ADDMA1999999084741MD1710031+9999ME1315939OA149900881REMSYN088AAXX  16124 06788 33/// /2211 10071 21032 38474 48593 57003 333 553// 2//// 91117 91211;
0149067880999992011011613004+46517+009183FM-12+161199999V0202301N005119999999N9999999N1+00511-00381999999ADDMA1999999084711MD1710071+9999ME1315919OA149900881REMSYN088AAXX  16134 06788 33/// /2310 10051 21038 38471 48591 57007 333 553// 2//// 91117 91212;
0149067880999992011011614004+46517+009183FM-12+161199999V0202401N005119999999N9999999N1+00651-00461999999ADDMA1999999084721MD1719999+9999ME1315929OA149900821REMSYN088AAXX  16144 06788 33/// /2410 10065 21046 38472 48592 57/// 333 55309 2//// 91116 91212;
0149067880999992011011615004+46517+009183FM-12+161199999V0202201N002619999999N9999999N1+00501-00461999999ADDMA1999999084721MD1710021+9999ME1315929OA149900881REMSYN088AAXX  16154 06788 33/// /2205 10050 21046 38472 48592 57002 333 55300 20119 91117 91212;
0149067880999992011011616004+46517+009183FM-12+161199999V0202301N000519999999N9999999N1+00151-00481999999ADDMA1999999084731MD1210021+9999ME1315939OA149900771REMSYN088AAXX  16164 06788 33/// /2301 10015 21048 38473 48593 52002 333 55300 20054 91115 91211;
0149067880999992011011617004+46517+009183FM-12+161199999V0202601N001019999999N9999999N1-00041-00571999999ADDMA1999999084741MD1210021+9999ME1315949OA149900771REMSYN088AAXX  16174 06788 33/// /2602 11004 21057 38474 48594 52002 333 55300 20011 91115 91207;
0168067880999992011011618004+46517+009183FM-12+161199999V0202001N003619999999N9999999N1+00381-00571999999ADDKA1120M+00791MA1999999084761MD1210041+9999ME1315969OA149900881REMSYN094AAXX  16184 06788 33/// /2007 10038 21057 38476 48596 52004 333 10079 55300 20004 91117 91212;
0149067880999992011011619004+46517+009183FM-12+161199999V0202001N006219999999N9999999N1+00511-00611999999ADDMA1999999084781MD1210051+9999ME1315979OA149900931REMSYN088AAXX  16194 06788 33/// /2012 10051 21061 38478 48597 52005 333 55300 20007 91118 91213;
0149067880999992011011620004+46517+009183FM-12+161199999V0202001N007719999999N9999999N1+00431-00741999999ADDMA1999999084781MD1210041+9999ME1315989OA149901081REMSYN088AAXX  16204 06788 33/// /2015 10043 21074 38478 48598 52004 333 55300 20004 91121 91215;
0149067880999992011011621004+46517+009183FM-12+161199999V0202001N004619999999N9999999N1+00331-00731999999ADDMA1999999084761MD1010001+9999ME1315969OA149901081REMSYN088AAXX  16214 06788 33/// /2009 10033 21073 38476 48596 50000 333 55300 20007 91121 91215;
0149067880999992011011622004+46517+009183FM-12+161199999V0202001N006219999999N9999999N1+00431-00781999999ADDMA1999999084751MD1710031+9999ME1315959OA149901031REMSYN088AAXX  16224 06788 33/// /2012 10043 21078 38475 48595 57003 333 55300 20007 91120 91212;
0149067880999992011011623004+46517+009183FM-12+161199999V0202101N005719999999N9999999N1+00421-00771999999ADDMA1999999084741MD1710041+9999ME1315949OA149901131REMSYN088AAXX  16234 06788 33/// /2111 10042 21077 38474 48594 57004 333 55300 20007 91122 91215;
0149067880999992011011700004+46517+009183FM-12+161199999V0202501N001519999999N9999999N1-00211-00791999999ADDMA1999999084711MD1810051+9999ME1315919OA149901131REMSYN088AAXX  17004 06788 33/// /2503 11021 21079 38471 48591 58005 333 55300 20007 91122 91215;
0149067880999992011011701004+46517+009183FM-12+161199999V0202001N006219999999N9999999N1+00411-00811999999ADDMA1999999084671MD1810081+9999ME1315879OA149900881REMSYN088AAXX  17014 06788 33/// /2012 10041 21081 38467 48587 58008 333 55300 20004 91117 91212;
0149067880999992011011702004+46517+009183FM-12+161199999V0202401N003119999999N9999999N1-00131-00871999999ADDMA1999999084661MD1619999+9999ME1315879OA149900881REMSYN088AAXX  17024 06788 33/// /2406 11013 21087 38466 48587 56/// 333 55300 20011 91117 91212;
0112067880999992011011703004+46517+009183FM-12+161199999V0209999C000019999999N9999999N1-00151-00871999999ADDMA1999999084641ME1315859REMSYN076AAXX  17034 06788 33/// /0000 11015 21087 38464 48585 5//// 333 553// 20007;
0149067880999992011011704004+46517+009183FM-12+161199999V0202301N003119999999N9999999N1-00051-01011999999ADDMA1999999084611MD1710061+9999ME1315829OA149900821REMSYN088AAXX  17044 06788 33/// /2306 11005 21101 38461 48582 57006 333 55300 20007 91116 91210;
0149067880999992011011705004+46517+009183FM-12+161199999V0209999C000019999999N9999999N1-00231-01041999999ADDMA1999999084581MD1710081+9999ME1315799OA149900821REMSYN088AAXX  17054 06788 33/// /0000 11023 21104 38458 48579 57008 333 55300 20007 91116 91210;
0216067880999992011011706004+46517+009183FM-12+161199999V0202501N001519999999N9999999N1-00481-01121999999ADDAL19900091GJ102049IA2999-00609KA1999N-00461MA1999999084561MD1710081+9999ME1315789OA149901131REMSYN112AAXX  17064 06788 33/// /2503 11048 21112 38456 48578 57008 333 21046 3/106 55034 55300 20011 70000 91122 91215;
0149067880999992011011707004+46517+009183FM-12+161199999V0202601N001019999999N9999999N1-00241-01151999999ADDMA1999999084551MD1710061+9999ME1315769OA149900621REMSYN088AAXX  17074 06788 33/// /2602 11024 21115 38455 48576 57006 333 55300 20011 91112 91207;
0096067880999992011011708004+46517+009183FM-12+161199999V0202101N000519999999N9999999N1-00301-01191999999ADDMA1999999084551ME1315779REMSYN060AAXX  17084 06788 43/// /2101 11030 21119 38455 48577 5////;
0096067880999992011011709004+46517+009183FM-12+161199999V0202001N002119999999N9999999N1-00011-01131999999ADDMA1999999084541ME1315759REMSYN060AAXX  17094 06788 43/// /2004 11001 21113 38454 48575 5////;
0149067880999992011011710004+46517+009183FM-12+161199999V0202101N003619999999N9999999N1+00311-01081999999ADDMA1999999084551MD1410001+9999ME1315769OA149900771REMSYN088AAXX  17104 06788 33/// /2107 10031 21108 38455 48576 54000 333 55300 20184 91115 91209;
0149067880999992011011711004+46517+009183FM-12+161199999V0202301N006219999999N9999999N1+00401-00941999999ADDMA1999999084511MD1810041+9999ME1315729OA149900981REMSYN088AAXX  17114 06788 33/// /2312 10040 21094 38451 48572 58004 333 55305 20889 91119 91212;
0149067880999992011011712004+46517+009183FM-12+161199999V0202201N006219999999N9999999N1+00491-00811999999ADDMA1999999084461MD1710081+9999ME1315679OA149900981REMSYN088AAXX  17124 06788 33/// /2212 10049 21081 38446 48567 57008 333 553// 2//// 91119 91213;
0149067880999992011011713004+46517+009183FM-12+161199999V0202201N002619999999N9999999N1+00341-00981999999ADDMA1999999084431MD1810121+9999ME1315649OA149900981REMSYN088AAXX  17134 06788 33/// /2205 10034 21098 38443 48564 58012 333 553// 2//// 91119 91213;
0096067880999992011011714004+46517+009183FM-12+161199999V0202401N001019999999N9999999N1+00101-00891999999ADDMA1999999084421ME1315649REMSYN060AAXX  17144 06788 43/// /2402 10010 21089 38442 48564 5////;
0096067880999992011011715004+46517+009183FM-12+161199999V0202101N004119999999N9999999N1+00031-00971999999ADDMA1999999084431ME1315659REMSYN060AAXX  17154 06788 43/// /2108 10003 21097 38443 48565 5////;
0149067880999992011011716004+46517+009183FM-12+161199999V0200201N000519999999N9999999N1-00241-00911999999ADDMA1999999084441MD1310011+9999ME1315669OA149900771REMSYN088AAXX  17164 06788 33/// /0201 11024 21091 38444 48566 53001 333 55300 20065 91115 91208;
0149067880999992011011717004+46517+009183FM-12+161199999V0202501N001019999999N9999999N1-00371-01051999999ADDMA1999999084471MD1210051+9999ME1315699OA149900771REMSYN088AAXX  17174 06788 33/// /2502 11037 21105 38447 48569 52005 333 55300 20011 91115 91208;
0168067880999992011011718004+46517+009183FM-12+161199999V0209999C000019999999N9999999N1-00401-01351999999ADDKA1120M+00521MA1999999084511MD1210081+9999ME1315739OA149900981REMSYN094AAXX  17184 06788 33/// /0000 11040 21135 38451 48573 52008 333 10052 55300 20007 91119 91213;
0149067880999992011011719004+46517+009183FM-12+161199999V0202501N002119999999N9999999N1-00551-01221999999ADDMA1999999084511MD1210071+9999ME1315739OA149900311REMSYN088AAXX  17194 06788 33/// /2504 11055 21122 38451 48573 52007 333 55300 20011 91106 91204;
0149067880999992011011720004+46517+009183FM-12+161199999V0202601N001019999999N9999999N1-00671-01151999999ADDMA1999999084531MD1210061+9999ME1315759OA149900311REMSYN088AAXX  17204 06788 33/// /2602 11067 21115 38453 48575 52006 333 55300 20011 91106 91204;
0149067880999992011011721004+46517+009183FM-12+161199999V0202401N001019999999N9999999N1-00621-01281999999ADDMA1999999084521MD1010011+9999ME1315749OA149900771REMSYN088AAXX  17214 06788 33/// /2402 11062 21128 38452 48574 50001 333 55300 20007 91115 91208;
0149067880999992011011722004+46517+009183FM-12+161199999V0202501N001019999999N9999999N1-00791-01301999999ADDMA1999999084521MD1210011+9999ME1315759OA149900261REMSYN088AAXX  17224 06788 33/// /2502 11079 21130 38452 48575 52001 333 55300 20011 91105 91203;
0149067880999992011011723004+46517+009183FM-12+161199999V0202401N000519999999N9999999N1-00691-01771999999ADDMA1999999084541MD1310011+9999ME1315769OA149900311REMSYN088AAXX  17234 06788 33/// /2401 11069 21177 38454 48576 53001 333 55300 20011 91106 91204;
0149067880999992011011800004+46517+009183FM-12+161199999V0202501N001519999999N9999999N1-00741-01351999999ADDMA1999999084531MD1210011+9999ME1315759OA149900771REMSYN088AAXX  18004 06788 33/// /2503 11074 21135 38453 48575 52001 333 55300 20007 91115 91211;
0149067880999992011011801004+46517+009183FM-12+161199999V0209999C000019999999N9999999N1-00881-01381999999ADDMA1999999084511MD1819999+9999ME1315749OA149900261REMSYN088AAXX  18014 06788 33/// /0000 11088 21138 38451 48574 58/// 333 55300 20011 91105 91204;
0096067880999992011011802004+46517+009183FM-12+161199999V0202401N000519999999N9999999N1-00851-01361999999ADDMA1999999084491ME1315729REMSYN060AAXX  18024 06788 43/// /2401 11085 21136 38449 48572 5////;
0096067880999992011011803004+46517+009183FM-12+161199999V0202501N001019999999N9999999N1-00931-01441999999ADDMA1999999084471ME1315709REMSYN060AAXX  18034 06788 43/// /2502 11093 21144 38447 48570 5////;
0112067880999992011011804004+46517+009183FM-12+161199999V0202401N001519999999N9999999N1-00811-01431999999ADDMA1999999084461ME1315699REMSYN076AAXX  18044 06788 33/// /2403 11081 21143 38446 48569 5//// 333 553// 20011;
0149067880999992011011805004+46517+009183FM-12+161199999V0202501N001519999999N9999999N1-00801-01381999999ADDMA1999999084421MD1810071+9999ME1315659OA149900211REMSYN088AAXX  18054 06788 33/// /2503 11080 21138 38442 48565 58007 333 55300 20011 91104 91203;
0216067880999992011011806004+46517+009183FM-12+161199999V0202501N002119999999N9999999N1-00861-01491999999ADDAL19900091GJ102109IA2999-01109KA1999N-00931MA1999999084401MD1810071+9999ME1315649OA149900311REMSYN112AAXX  18064 06788 33/// /2504 11086 21149 38440 48564 58007 333 21093 3/111 55035 55300 20007 70000 91106 91204;
0149067880999992011011807004+46517+009183FM-12+161199999V0202401N002119999999N9999999N1-00961-01631999999ADDMA1999999084411MD1710051+9999ME1315659OA149900261REMSYN088AAXX  18074 06788 33/// /2404 11096 21163 38441 48565 57005 333 55300 20011 91105 91204;
