0149067830999992011010100004+46467+009183FM-12+163899999V0209999C000019999999N9999999N1-00441-01191999999ADDMA1999999083471MD1710011+9999ME1314979OA149901241REMSYN088AAXX  01004 06783 33/// /0000 11044 21119 38347 48497 57001 333 55300 20000 91124 91214;
0149067830999992011010101004+46467+009183FM-12+163899999V0209999C000019999999N9999999N1-00481-01351999999ADDMA1999999083431MD1810051+9999ME1314939OA149900211REMSYN088AAXX  01014 06783 33/// /0000 11048 21135 38343 48493 58005 333 553// 20000 91104 91201;
0149067830999992011010102004+46467+009183FM-12+163899999V0202701N000519999999N9999999N1-00461-01391999999ADDMA1999999083431MD1710051+9999ME1314939OA149900261REMSYN088AAXX  01024 06783 33/// /2701 11046 21139 38343 48493 57005 333 55300 20000 91105 91201;
0149067830999992011010103004+46467+009183FM-12+163899999V0209999C000019999999N9999999N1-00601-01331999999ADDMA1999999083411MD1710061+9999ME1314929OA149900931REMSYN088AAXX  01034 06783 33/// /0000 11060 21133 38341 48492 57006 333 55300 20000 91118 91209;
0149067830999992011010104004+46467+009183FM-12+163899999V0209999C000019999999N9999999N1-00691-01361999999ADDMA1999999083371MD1710061+9999ME1314899OA149900101REMSYN088AAXX  01044 06783 33/// /0000 11069 21136 38337 48489 57006 333 55300 20000 91102 91201;
0149067830999992011010105004+46467+009183FM-12+163899999V0209999C000019999999N9999999N1-00761-01381999999ADDMA1999999083351MD1610081+9999ME1314879OA149900051REMSYN088AAXX  01054 06783 33/// /0000 11076 21138 38335 48487 56008 333 55300 20000 91101 91200;
0216067830999992011010106004+46467+009183FM-12+163899999V0202701N000519999999N9999999N1-00791-01351999999ADDAL19900091GJ103129IA2999-01309KA1999N-00801MA1999999083321MD1610091+9999ME1314849OA149901131REMSYN112AAXX  01064 06783 33/// /2701 11079 21135 38332 48484 56009 333 21080 3/113 55052 55300 20000 70000 91122 91213;
0149067830999992011010107004+46467+009183FM-12+163899999V0202801N000519999999N9999999N1-00701-01391999999ADDMA1999999083311MD1710061+9999ME1314839OA149900151REMSYN088AAXX  01074 06783 33/// /2801 11070 21139 38331 48483 57006 333 55300 20000 91103 91201;
0149067830999992011010108004+46467+009183FM-12+163899999V0202201N000519999999N9999999N1-00521-01351999999ADDMA1999999083321MD1719999+9999ME1314839OA149900151REMSYN088AAXX  01084 06783 33/// /2201 11052 21135 38332 48483 57/// 333 55300 20029 91103 91201;
0096067830999992011010109004+46467+009183FM-12+163899999V0203301N004619999999N9999999N1+00261-01651999999ADDMA1999999083281ME1314749REMSYN060AAXX  01094 06783 43/// /3309 10026 21165 38328 48474 5////;
0096067830999992011010110004+46467+009183FM-12+163899999V0203401N004619999999N9999999N1+00251-01541999999ADDMA1999999083271ME1314739REMSYN060AAXX  01104 06783 43/// /3409 10025 21154 38327 48473 5////;
0149067830999992011010111004+46467+009183FM-12+163899999V0203401N005719999999N9999999N1+00341-01661999999ADDMA1999999083241MD1710081+9999ME1314709OA149901181REMSYN088AAXX  01114 06783 33/// /3411 10034 21166 38324 48470 57008 333 55307 2//// 91123 91212;
0096067830999992011010112004+46467+009183FM-12+163899999V0203301N006719999999N9999999N1+00271-01451999999ADDMA1999999083191ME1314659REMSYN060AAXX  01124 06783 43/// /3313 10027 21145 38319 48465 5////;
0096067830999992011010113004+46467+009183FM-12+163899999V0203201N004619999999N9999999N1+00241-01531999999ADDMA1999999083161ME1314639REMSYN060AAXX  01134 06783 43/// /3209 10024 21153 38316 48463 5////;
0096067830999992011010114004+46467+009183FM-12+163899999V0203201N006219999999N9999999N1+00071-01471999999ADDMA1999999083141ME1314629REMSYN060AAXX  01144 06783 43/// /3212 10007 21147 38314 48462 5////;
0096067830999992011010115004+46467+009183FM-12+163899999V0203201N008719999999N9999999N1+00001-01401999999ADDMA1999999083141ME1314629REMSYN060AAXX  01154 06783 43/// /3217 10000 21140 38314 48462 5////;
0096067830999992011010116004+46467+009183FM-12+163899999V0203201N009319999999N9999999N1-00031-01411999999ADDMA1999999083151ME1314639REMSYN060AAXX  01164 06783 43/// /3218 11003 21141 38315 48463 5////;
0096067830999992011010117004+46467+009183FM-12+163899999V0203201N007719999999N9999999N1-00031-01421999999ADDMA1999999083101ME1314599REMSYN060AAXX  01174 06783 43/// /3215 11003 21142 38310 48459 5////;
0096067830999992011010118004+46467+009183FM-12+163899999V0203301N006219999999N9999999N1-00061-01421999999ADDMA1999999083081ME1314579REMSYN060AAXX  01184 06783 43/// /3312 11006 21142 38308 48457 5////;
0112067830999992011010119004+46467+009183FM-12+163899999V0203201N007219999999N9999999N1-00141-01361999999ADDMA1999999083081ME1314579REMSYN076AAXX  01194 06783 33/// /3214 11014 21136 38308 48457 5//// 333 553// 20000;
0149067830999992011010120004+46467+009183FM-12+163899999V0203101N006219999999N9999999N1-00151-01381999999ADDMA1999999083071MD1710031+9999ME1314579OA149901441REMSYN088AAXX  01204 06783 33/// /3112 11015 21138 38307 48457 57003 333 55300 20000 91128 91214;
0191067830999992011010121004+46467+009183FM-12+163899999V0203201N004612200019N0250001N1-00171-01341999999ADDGA1001+999999999GF100991001001999999001001MA1999999083051MD1710031+9999ME1314559OA149901491REMSYN088AAXX  01214 06783 32/75 03209 11017 21134 38305 48455 57003 333 55300 20000 91129 91218;
0149067830999992011010122004+46467+009183FM-12+163899999V0203201N009319999999N9999999N1-00221-01361999999ADDMA1999999083041MD1710041+9999ME1314549OA149901491REMSYN088AAXX  01224 06783 33/// /3218 11022 21136 38304 48454 57004 333 55300 20000 91129 91218;
0149067830999992011010123004+46467+009183FM-12+163899999V0203201N009819999999N9999999N1-00231-01301999999ADDMA1999999083001MD1810071+9999ME1314509OA149901541REMSYN088AAXX  01234 06783 33/// /3219 11023 21130 38300 48450 58007 333 55300 20000 91130 91219;
0149067830999992011010200004+46467+009183FM-12+163899999V0203101N007219999999N9999999N1-00231-01291999999ADDMA1999999082941MD1810111+9999ME1314459OA149901701REMSYN088AAXX  02004 06783 33/// /3114 11023 21129 38294 48445 58011 333 55300 20000 91133 91219;
0149067830999992011010201004+46467+009183FM-12+163899999V0203201N005119999999N9999999N1-00151-01281999999ADDMA1999999082891MD1710151+9999ME1314399OA149901701REMSYN088AAXX  02014 06783 33/// /3210 11015 21128 38289 48439 57015 333 55300 20000 91133 91219;
0096067830999992011010202004+46467+009183FM-12+163899999V0203101N005119999999N9999999N1-00191-01241999999ADDMA1999999082901ME1314409REMSYN060AAXX  02024 06783 43/// /3110 11019 21124 38290 48440 5////;
0096067830999992011010203004+46467+009183FM-12+163899999V0203001N004119999999N9999999N1-00171-01271999999ADDMA1999999082861ME1314369REMSYN060AAXX  02034 06783 43/// /3008 11017 21127 38286 48436 5////;
0096067830999992011010204004+46467+009183FM-12+163899999V0203101N003619999999N9999999N1-00141-01231999999ADDMA1999999082821ME1314329REMSYN060AAXX  02044 06783 43/// /3107 11014 21123 38282 48432 5////;
0096067830999992011010205004+46467+009183FM-12+163899999V0203201N008719999999N9999999N1-00301-01251999999ADDMA1999999082841ME1314369REMSYN060AAXX  02054 06783 43/// /3217 11030 21125 38284 48436 5////;
0143067830999992011010206004+46467+009183FM-12+163899999V0203201N009819999999N9999999N1-00331-01251999999ADDIA2999-00509KA1999N-00331MA1999999082861ME1314389REMSYN082AAXX  02064 06783 43/// /3219 11033 21125 38286 48438 5//// 333 21033 3/105 55053;
0149067830999992011010207004+46467+009183FM-12+163899999V0203101N007219999999N9999999N1-00331-01271999999ADDMA1999999082831MD1010011+9999ME1314359OA149901601REMSYN088AAXX  02074 06783 33/// /3114 11033 21127 38283 48435 50001 333 55300 20000 91131 91219;
0149067830999992011010208004+46467+009183FM-12+163899999V0203201N009319999999N9999999N1-00461-01271999999ADDMA1999999082861MD1210021+9999ME1314399OA149901541REMSYN088AAXX  02084 06783 33/// /3218 11046 21127 38286 48439 52002 333 55300 20025 91130 91218;
0149067830999992011010209004+46467+009183FM-12+163899999V0203201N010319999999N9999999N1-00471-01241999999ADDMA1999999082891MD1310031+9999ME1314429OA149901961REMSYN088AAXX  02094 06783 33/// /3220 11047 21124 38289 48442 53003 333 55307 20587 91138 91220;
0149067830999992011010210004+46467+009183FM-12+163899999V0203201N011819999999N9999999N1-00471-01171999999ADDMA1999999082931MD1210101+9999ME1314459OA149901961REMSYN088AAXX  02104 06783 33/// /3223 11047 21117 38293 48445 52010 333 55308 2//// 91138 91223;
0149067830999992011010211004+46467+009183FM-12+163899999V0203101N009819999999N9999999N1-00541-01081999999ADDMA1999999082911MD1010051+9999ME1314449OA149901961REMSYN088AAXX  02114 06783 33/// /3119 11054 21108 38291 48444 50005 333 55308 2//// 91138 91223;
0149067830999992011010212004+46467+009183FM-12+163899999V0203101N008219999999N9999999N1-00551-01051999999ADDMA1999999082871MD1810021+9999ME1314409OA149902061REMSYN088AAXX  02124 06783 33/// /3116 11055 21105 38287 48440 58002 333 55308 2//// 91140 91223;
0149067830999992011010213004+46467+009183FM-12+163899999V0203201N006719999999N9999999N1-00501-01051999999ADDMA1999999082841MD1610091+9999ME1314379OA149902061REMSYN088AAXX  02134 06783 33/// /3213 11050 21105 38284 48437 56009 333 55308 2//// 91140 91220;
0112067830999992011010214004+46467+009183FM-12+163899999V0203201N007219999999N9999999N1-00611-01121999999ADDMA1999999082871ME1314419REMSYN076AAXX  02144 06783 33/// /3214 11061 21112 38287 48441 5//// 333 553// 20580;
0149067830999992011010215004+46467+009183FM-12+163899999V0203001N004619999999N9999999N1-00631-01101999999ADDMA1999999082931MD1210061+9999ME1314479OA149902061REMSYN088AAXX  02154 06783 33/// /3009 11063 21110 38293 48447 52006 333 55300 20101 91140 91223;
0149067830999992011010216004+46467+009183FM-12+163899999V0203201N006719999999N9999999N1-00651-01131999999ADDMA1999999082981MD1210141+9999ME1314529OA149901801REMSYN088AAXX  02164 06783 33/// /3213 11065 21113 38298 48452 52014 333 55300 20022 91135 91213;
0149067830999992011010217004+46467+009183FM-12+163899999V0203201N006219999999N9999999N1-00671-01161999999ADDMA1999999083021MD1210151+9999ME1314559OA149901801REMSYN088AAXX  02174 06783 33/// /3212 11067 21116 38302 48455 52015 333 55300 20000 91135 91217;
0168067830999992011010218004+46467+009183FM-12+163899999V0203201N006219999999N9999999N1-00691-01281999999ADDKA1120M-00311MA1999999083101MD1210171+9999ME1314639OA149902061REMSYN094AAXX  02184 06783 33/// /3212 11069 21128 38310 48463 52017 333 11031 55300 20000 91140 91223;
0149067830999992011010219004+46467+009183FM-12+163899999V0203201N004619999999N9999999N1-00751-01311999999ADDMA1999999083131MD1210151+9999ME1314669OA149901491REMSYN088AAXX  02194 06783 33/// /3209 11075 21131 38313 48466 52015 333 55300 20000 91129 91214;
0149067830999992011010220004+46467+009183FM-12+163899999V0203201N005719999999N9999999N1-00791-01331999999ADDMA1999999083171MD1210151+9999ME1314709OA149901291REMSYN088AAXX  02204 06783 33/// /3211 11079 21133 38317 48470 52015 333 55300 20000 91125 91213;
0149067830999992011010221004+46467+009183FM-12+163899999V0203201N007719999999N9999999N1-00841-01351999999ADDMA1999999083141MD1010041+9999ME1314689OA149901801REMSYN088AAXX  02214 06783 33/// /3215 11084 21135 38314 48468 50004 333 55300 20000 91135 91217;
0149067830999992011010222004+46467+009183FM-12+163899999V0203201N007719999999N9999999N1-00851-01461999999ADDMA1999999083151MD1010021+9999ME1314699OA149901651REMSYN088AAXX  02224 06783 33/// /3215 11085 21146 38315 48469 50002 333 55300 20000 91132 91218;
0149067830999992011010223004+46467+009183FM-12+163899999V0203201N009319999999N9999999N1-00911-01481999999ADDMA1999999083141MD1710031+9999ME1314689OA149901651REMSYN088AAXX  02234 06783 33/// /3218 11091 21148 38314 48468 57003 333 55300 20000 91132 91219;
0149067830999992011010300004+46467+009183FM-12+163899999V0203201N011819999999N9999999N1-00961-01451999999ADDMA1999999083121MD1710021+9999ME1314679OA149901901REMSYN088AAXX  03004 06783 33/// /3223 11096 21145 38312 48467 57002 333 55300 20000 91137 91223;
0149067830999992011010301004+46467+009183FM-12+163899999V0203201N011319999999N9999999N1-01031-01421999999ADDMA1999999083101MD1710051+9999ME1314659OA149901901REMSYN088AAXX  03014 06783 33/// /3222 11103 21142 38310 48465 57005 333 55300 20000 91137 91223;
0149067830999992011010302004+46467+009183FM-12+163899999V0203201N009319999999N9999999N1-01021-01421999999ADDMA1999999083111MD1719999+9999ME1314669OA149901901REMSYN088AAXX  03024 06783 33/// /3218 11102 21142 38311 48466 57/// 333 55300 20000 91137 91223;
0096067830999992011010303004+46467+009183FM-12+163899999V0203201N006719999999N9999999N1-01031-01511999999ADDMA1999999083111ME1314669REMSYN060AAXX  03034 06783 43/// /3213 11103 21151 38311 48466 5////;
0149067830999992011010304004+46467+009183FM-12+163899999V0203201N008219999999N9999999N1-01051-01531999999ADDMA1999999083101MD1410001+9999ME1314669OA149901961REMSYN088AAXX  03044 06783 33/// /3216 11105 21153 38310 48466 54000 333 55300 20000 91138 91218;
0149067830999992011010305004+46467+009183FM-12+163899999V0203201N009819999999N9999999N1-01081-01571999999ADDMA1999999083121MD1310011+9999ME1314689OA149901901REMSYN088AAXX  03054 06783 33/// /3219 11108 21157 38312 48468 53001 333 55300 20000 91137 91220;
0216067830999992011010306004+46467+009183FM-12+163899999V0203101N006719999999N9999999N1-01071-01631999999ADDAL19900091GJ103189IA2999-01209KA1999N-01091MA1999999083121MD1210011+9999ME1314689OA149901961REMSYN112AAXX  03064 06783 33/// /3113 11107 21163 38312 48468 52001 333 21109 3/112 55053 55300 20000 70000 91138 91223;
0149067830999992011010307004+46467+009183FM-12+163899999V0203201N008219999999N9999999N1-01111-01641999999ADDMA1999999083161MD1210061+9999ME1314729OA149901851REMSYN088AAXX  03074 06783 33/// /3216 11111 21164 38316 48472 52006 333 55300 20000 91136 91217;
0149067830999992011010308004+46467+009183FM-12+163899999V0203401N002619999999N9999999N1-01011-01931999999ADDMA1999999083181MD1219999+9999ME1314739OA149901751REMSYN088AAXX  03084 06783 33/// /3405 11101 21193 38318 48473 52/// 333 55300 20029 91134 91220;
0112067830999992011010309004+46467+009183FM-12+163899999V0203301N003619999999N9999999N1-00741-02211999999ADDMA1999999083191ME1314729REMSYN076AAXX  03094 06783 33/// /3307 11074 21221 38319 48472 5//// 333 553// 20612;
0149067830999992011010310004+46467+009183FM-12+163899999V0203501N002619999999N9999999N1-00591-02281999999ADDMA1999999083241MD1210081+9999ME1314769OA149901181REMSYN088AAXX  03104 06783 33/// /3505 11059 21228 38324 48476 52008 333 55308 2//// 91123 91214;
0149067830999992011010311004+46467+009183FM-12+163899999V0201401N001019999999N9999999N1-00561-02091999999ADDMA1999999083281MD1210101+9999ME1314799OA149900821REMSYN088AAXX  03114 06783 33/// /1402 11056 21209 38328 48479 52010 333 55308 2//// 91116 91208;
0149067830999992011010312004+46467+009183FM-12+163899999V0202201N000519999999N9999999N1-00481-01521999999ADDMA1999999083241MD1010051+9999ME1314759OA149901961REMSYN088AAXX  03124 06783 33/// /2201 11048 21152 38324 48475 50005 333 55308 2//// 91138 91223;
0149067830999992011010313004+46467+009183FM-12+163899999V0202701N001019999999N9999999N1-00461-01611999999ADDMA1999999083201MD1710041+9999ME1314719OA149900261REMSYN088AAXX  03134 06783 33/// /2702 11046 21161 38320 48471 57004 333 55308 2//// 91105 91202;
0112067830999992011010314004+46467+009183FM-12+163899999V0203001N001019999999N9999999N1-00761-01511999999ADDMA1999999083191ME1314729REMSYN076AAXX  03144 06783 33/// /3002 11076 21151 38319 48472 5//// 333 553// 20630;
0112067830999992011010315004+46467+009183FM-12+163899999V0202901N000519999999N9999999N1-00971-01671999999ADDMA1999999083191ME1314739REMSYN076AAXX  03154 06783 33/// /2901 11097 21167 38319 48473 5//// 333 553// 20104;
0168067830999992011010316004+46467+009183FM-12+163899999V0209999C000019999999N9999999N1-01141-01761999999ADDMA1999999083201MD1410001+9999ME1314759OA149900151REMSYN088AAXX  03164 06783 33/// /0000 11114 21176 38320 48475 52000 333 55300 20029 91103 91202;EQDQ01+000022APCTEN
0149067830999992011010317004+46467+009183FM-12+163899999V0209999C000019999999N9999999N1-01261-01871999999ADDMA1999999083231MD1210041+9999ME1314799OA149900151REMSYN088AAXX  03174 06783 33/// /0000 11126 21187 38323 48479 52004 333 55300 20000 91103 91201;
0168067830999992011010318004+46467+009183FM-12+163899999V0209999C000019999999N9999999N1-01361-02051999999ADDKA1120M-00461MA1999999083241MD1310051+9999ME1314819OA149901751REMSYN094AAXX  03184 06783 33/// /0000 11136 21205 38324 48481 53005 333 11046 55300 20000 91134 91220;
0149067830999992011010319004+46467+009183FM-12+163899999V0203201N000519999999N9999999N1-01311-01791999999ADDMA1999999083281MD1110081+9999ME1314849OA149900101REMSYN088AAXX  03194 06783 33/// /3201 11131 21179 38328 48484 51008 333 55300 20000 91102 91201;
0149067830999992011010320004+46467+009183FM-12+163899999V0203501N000519999999N9999999N1-01201-01591999999ADDMA1999999083281MD1210051+9999ME1314839OA149900151REMSYN088AAXX  03204 06783 33/// /3501 11120 21159 38328 48483 52005 333 55300 20000 91103 91202;
0149067830999992011010321004+46467+009183FM-12+163899999V0203301N001519999999N9999999N1-01061-01371999999ADDMA1999999083291MD1210051+9999ME1314839OA149900411REMSYN088AAXX  03214 06783 33/// /3303 11106 21137 38329 48483 52005 333 55300 20000 91108 91206;
0149067830999992011010322004+46467+009183FM-12+163899999V0203201N001019999999N9999999N1-00991-01321999999ADDMA1999999083311MD1210031+9999ME1314859OA149900411REMSYN088AAXX  03224 06783 33/// /3202 11099 21132 38331 48485 52003 333 55300 20000 91108 91206;
0149067830999992011010323004+46467+009183FM-12+163899999V0203501N000519999999N9999999N1-01001-01291999999ADDMA1999999083311MD1210031+9999ME1314859OA149900361REMSYN088AAXX  03234 06783 33/// /3501 11100 21129 38331 48485 52003 333 55300 20000 91107 91204;
0149067830999992011010400004+46467+009183FM-12+163899999V0203201N000519999999N9999999N1-01001-01311999999ADDMA1999999083281MD1810011+9999ME1314829OA149900411REMSYN088AAXX  04004 06783 33/// /3201 11100 21131 38328 48482 58001 333 55300 20000 91108 91206;
0149067830999992011010401004+46467+009183FM-12+163899999V0203101N000519999999N9999999N1-01001-01341999999ADDMA1999999083251MD1710061+9999ME1314799OA149900361REMSYN088AAXX  04014 06783 33/// /3101 11100 21134 38325 48479 57006 333 55300 20000 91107 91203;
0149067830999992011010402004+46467+009183FM-12+163899999V0202601N001019999999N9999999N1-00961-01321999999ADDMA1999999083221MD1819999+9999ME1314769OA149900361REMSYN088AAXX  04024 06783 33/// /2602 11096 21132 38322 48476 58/// 333 55300 20000 91107 91203;
0149067830999992011010403004+46467+009183FM-12+163899999V0203301N000519999999N9999999N1-00971-01281999999ADDMA1999999083181MD1610101+9999ME1314729OA149900361REMSYN088AAXX  04034 06783 33/// /3301 11097 21128 38318 48472 56010 333 55300 20000 91107 91204;
0149067830999992011010404004+46467+009183FM-12+163899999V0202901N001019999999N9999999N1-00961-01271999999ADDMA1999999083121MD1810131+9999ME1314679OA149900311REMSYN088AAXX  04044 06783 33/// /2902 11096 21127 38312 48467 58013 333 55300 20000 91106 91204;
0149067830999992011010405004+46467+009183FM-12+163899999V0209999C000019999999N9999999N1-00971-01281999999ADDMA1999999083111MD1710111+9999ME1314669OA149900311REMSYN088AAXX  04054 06783 33/// /0000 11097 21128 38311 48466 57011 333 55300 20000 91106 91204;
0216067830999992011010406004+46467+009183FM-12+163899999V0209999C000019999999N9999999N1-00961-01251999999ADDAL19900091GJ103249IA2999-01909KA1999N-01401MA1999999083041MD1710141+9999ME1314599OA149900411REMSYN112AAXX  04064 06783 33/// /0000 11096 21125 38304 48459 57014 333 21140 3/119 55054 55300 20000 70000 91108 91206;
0149067830999992011010407004+46467+009183FM-12+163899999V0209999C000019999999N9999999N1-00951-01251999999ADDMA1999999083061MD1710061+9999ME1314619OA149900151REMSYN088AAXX  04074 06783 33/// /0000 11095 21125 38306 48461 57006 333 55300 20000 91103 91201;
0149067830999992011010408004+46467+009183FM-12+163899999V0203401N000519999999N9999999N1-00941-01261999999ADDMA1999999083081MD1519999+9999ME1314639OA149900151REMSYN088AAXX  04084 06783 33/// /3401 11094 21126 38308 48463 55/// 333 55300 20014 91103 91202;
0112067830999992011010409004+46467+009183FM-12+163899999V0200401N000519999999N9999999N1-00901-01251999999ADDMA1999999083091ME1314649REMSYN076AAXX  04094 06783 33/// /0401 11090 21125 38309 48464 5//// 333 553// 20086;
0149067830999992011010410004+46467+009183FM-12+163899999V0202101N000519999999N9999999N1-00861-01241999999ADDMA1999999083091MD1210031+9999ME1314639OA149900151REMSYN088AAXX  04104 06783 33/// /2101 11086 21124 38309 48463 52003 333 55300 20292 91103 91201;
0149067830999992011010411004+46467+009183FM-12+163899999V0201701N001019999999N9999999N1-00821-01231999999ADDMA1999999083071MD1810011+9999ME1314619OA149900261REMSYN088AAXX  04114 06783 33/// /1702 11082 21123 38307 48461 58001 333 55300 20407 91105 91202;
0149067830999992011010412004+46467+009183FM-12+163899999V0201001N001019999999N9999999N1-00841-01221999999ADDMA1999999083001MD1710091+9999ME1314559OA149900361REMSYN088AAXX  04124 06783 33/// /1002 11084 21122 38300 48455 57009 333 55300 20439 91107 91204;
0149067830999992011010413004+46467+009183FM-12+163899999V0201001N001519999999N9999999N1-00781-01241999999ADDMA1999999082971MD1710121+9999ME1314529OA149900361REMSYN088AAXX  04134 06783 33/// /1003 11078 21124 38297 48452 57012 333 55300 20576 91107 91203;
0112067830999992011010414004+46467+009183FM-12+163899999V0201201N001519999999N9999999N1-00811-01251999999ADDMA1999999082961ME1314519REMSYN076AAXX  04144 06783 33/// /1203 11081 21125 38296 48451 5//// 333 553// 20468;
0096067830999992011010415004+46467+009183FM-12+163899999V0203501N002119999999N9999999N1-00881-01311999999ADDMA1999999082951ME1314509REMSYN060AAXX  04154 06783 43/// /3504 11088 21131 38295 48450 5////;
0149067830999992011010416004+46467+009183FM-12+163899999V0203301N000519999999N9999999N1-01071-01421999999ADDMA1999999082941MD1710031+9999ME1314519OA149900361REMSYN088AAXX  04164 06783 33/// /3301 11107 21142 38294 48451 57003 333 55300 20058 91107 91204;
0168067830999992011010417004+46467+009183FM-12+163899999V0203201N000519999999N9999999N1-01101-01431999999ADDMA1999999082961MD1410001+9999ME1314539OA149900311REMSYN088AAXX  04174 06783 33/// /3201 11110 21143 38296 48453 53000 333 55300 20000 91106 91204;EQDQ01+000032APCTEN
0168067830999992011010418004+46467+009183FM-12+163899999V0203301N001519999999N9999999N1-01141-01431999999ADDKA1120M-00781MA1999999082961MD1010011+9999ME1314539OA149900361REMSYN094AAXX  04184 06783 33/// /3303 11114 21143 38296 48453 50001 333 11078 55300 20000 91107 91204;
0149067830999992011010419004+46467+009183FM-12+163899999V0203301N000519999999N9999999N1-01151-01431999999ADDMA1999999083001MD1210061+9999ME1314579OA149900311REMSYN088AAXX  04194 06783 33/// /3301 11115 21143 38300 48457 52006 333 55300 20000 91106 91203;
0149067830999992011010420004+46467+009183FM-12+163899999V0202701N001519999999N9999999N1-01031-01361999999ADDMA1999999083021MD1210061+9999ME1314589OA149900311REMSYN088AAXX  04204 06783 33/// /2703 11103 21136 38302 48458 52006 333 55300 20000 91106 91203;
0149067830999992011010421004+46467+009183FM-12+163899999V0202701N001519999999N9999999N1-01041-01381999999ADDMA1999999083011MD1010051+9999ME1314579OA149900311REMSYN088AAXX  04214 06783 33/// /2703 11104 21138 38301 48457 50005 333 55300 20000 91106 91204;
0149067830999992011010422004+46467+009183FM-12+163899999V0203401N000519999999N9999999N1-01051-01381999999ADDMA1999999083021MD1210021+9999ME1314589OA149900361REMSYN088AAXX  04224 06783 33/// /3401 11105 21138 38302 48458 52002 333 55300 20000 91107 91204;
0149067830999992011010423004+46467+009183FM-12+163899999V0202601N001519999999N9999999N1-01031-01371999999ADDMA1999999083011MD1010011+9999ME1314579OA149900411REMSYN088AAXX  04234 06783 33/// /2603 11103 21137 38301 48457 50001 333 55300 20000 91108 91204;
0149067830999992011010500004+46467+009183FM-12+163899999V0202601N002619999999N9999999N1-01051-01391999999ADDMA1999999082991MD1710021+9999ME1314559OA149900411REMSYN088AAXX  05004 06783 33/// /2605 11105 21139 38299 48455 57002 333 55300 20000 91108 91205;
0149067830999992011010501004+46467+009183FM-12+163899999V0202601N002119999999N9999999N1-01081-01421999999ADDMA1999999082971MD1810051+9999ME1314549OA149900411REMSYN088AAXX  05014 06783 33/// /2604 11108 21142 38297 48454 58005 333 55300 20000 91108 91205;
0149067830999992011010502004+46467+009183FM-12+163899999V0202601N002119999999N9999999N1-01071-01411999999ADDMA1999999082971MD1710041+9999ME1314549OA149900461REMSYN088AAXX  05024 06783 33/// /2604 11107 21141 38297 48454 57004 333 55300 20000 91109 91205;
0096067830999992011010503004+46467+009183FM-12+163899999V0202701N001519999999N9999999N1-01081-01401999999ADDMA1999999082951ME1314529REMSYN060AAXX  05034 06783 43/// /2703 11108 21140 38295 48452 5////;
0149067830999992011010504004+46467+009183FM-12+163899999V0202801N001019999999N9999999N1-01121-01431999999ADDMA1999999082941MD1710031+9999ME1314519OA149900361REMSYN088AAXX  05044 06783 33/// /2802 11112 21143 38294 48451 57003 333 55300 20000 91107 91204;
0149067830999992011010505004+46467+009183FM-12+163899999V0202701N001519999999N9999999N1-01131-01381999999ADDMA1999999082951MD1710021+9999ME1314529OA149900361REMSYN088AAXX  05054 06783 33/// /2703 11113 21138 38295 48452 57002 333 55300 20000 91107 91204;
0216067830999992011010506004+46467+009183FM-12+163899999V0203001N000519999999N9999999N1-01151-01401999999ADDAL19900091GJ100009IA2999-01409KA1999N-01191MA1999999082971MD1310021+9999ME1314549OA149900461REMSYN112AAXX  05064 06783 33/// /3001 11115 21140 38297 48454 53002 333 21119 3/114 55000 55300 20000 70000 91109 91205;
0149067830999992011010507004+46467+009183FM-12+163899999V0203201N002119999999N9999999N1-01171-01411999999ADDMA1999999082991MD1210051+9999ME1314569OA149900261REMSYN088AAXX  05074 06783 33/// /3204 11117 21141 38299 48456 52005 333 55300 20000 91105 91204;
0149067830999992011010508004+46467+009183FM-12+163899999V0203301N002619999999N9999999N1-01221-01441999999ADDMA1999999083011MD1219999+9999ME1314589OA149900361REMSYN088AAXX  05084 06783 33/// /3305 11122 21144 38301 48458 52/// 333 55300 20029 91107 91205;
0149067830999992011010509004+46467+009183FM-12+163899999V0203401N002619999999N9999999N1-01201-01441999999ADDMA1999999083061MD1210091+9999ME1314639OA149900411REMSYN088AAXX  05094 06783 33/// /3405 11120 21144 38306 48463 52009 333 55300 20198 91108 91205;
0149067830999992011010510004+46467+009183FM-12+163899999V0203501N001019999999N9999999N1-01121-01411999999ADDMA1999999083051MD1210061+9999ME1314619OA149900411REMSYN088AAXX  05104 06783 33/// /3502 11112 21141 38305 48461 52006 333 55300 20432 91108 91206;
0149067830999992011010511004+46467+009183FM-12+163899999V0203301N002119999999N9999999N1-01111-01441999999ADDMA1999999083041MD1010031+9999ME1314609OA149900411REMSYN088AAXX  05114 06783 33/// /3304 11111 21144 38304 48460 50003 333 55300 20785 91108 91206;
0112067830999992011010512004+46467+009183FM-12+163899999V0209999C000019999999N9999999N1-00951-01421999999ADDMA1999999082961ME1314529REMSYN076AAXX  05124 06783 33/// /0000 11095 21142 38296 48452 5//// 333 553// 2////;
0149067830999992011010513004+46467+009183FM-12+163899999V0203001N000519999999N9999999N1-00801-01381999999ADDMA1999999082941MD1810111+9999ME1314499OA149900361REMSYN088AAXX  05134 06783 33/// /3001 11080 21138 38294 48449 58011 333 55308 2//// 91107 91204;
0096067830999992011010514004+46467+009183FM-12+163899999V0203201N001519999999N9999999N1-00981-01461999999ADDMA1999999082941ME1314509REMSYN060AAXX  05144 06783 43/// /3203 11098 21146 38294 48450 5////;
0096067830999992011010515004+46467+009183FM-12+163899999V0203201N000519999999N9999999N1-01111-01571999999ADDMA1999999082991ME1314569REMSYN060AAXX  05154 06783 43/// /3201 11111 21157 38299 48456 5////;
0149067830999992011010516004+46467+009183FM-12+163899999V0209999C000019999999N9999999N1-01241-01561999999ADDMA1999999083021MD1210081+9999ME1314599OA149900151REMSYN088AAXX  05164 06783 33/// /0000 11124 21156 38302 48459 52008 333 55300 20032 91103 91202;
0149067830999992011010517004+46467+009183FM-12+163899999V0209999C000019999999N9999999N1-01321-01581999999ADDMA1999999082961MD1010021+9999ME1314549OA149900211REMSYN088AAXX  05174 06783 33/// /0000 11132 21158 38296 48454 50002 333 55300 20000 91104 91202;
0168067830999992011010518004+46467+009183FM-12+163899999V0209999C000019999999N9999999N1-01381-01621999999ADDKA1120M-00791MA1999999083051MD1219999+9999ME1314639OA149900411REMSYN094AAXX  05184 06783 33/// /0000 11138 21162 38305 48463 52/// 333 11079 55300 20000 91108 91206;
0149067830999992011010519004+46467+009183FM-12+163899999V0209999C000019999999N9999999N1-01471-01721999999ADDMA1999999083091MD1310071+9999ME1314679OA149900151REMSYN088AAXX  05194 06783 33/// /0000 11147 21172 38309 48467 53007 333 55300 20000 91103 91201;
0149067830999992011010520004+46467+009183FM-12+163899999V0209999C000019999999N9999999N1-01481-01701999999ADDMA1999999083091MD1219999+9999ME1314689OA149900151REMSYN088AAXX  05204 06783 33/// /0000 11148 21170 38309 48468 52/// 333 55300 20000 91103 91201;
0112067830999992011010521004+46467+009183FM-12+163899999V0209999C000019999999N9999999N1-01471-01691999999ADDMA1999999083031ME1314629REMSYN076AAXX  05214 06783 33/// /0000 11147 21169 38303 48462 5//// 333 553// 20000;
0149067830999992011010522004+46467+009183FM-12+163899999V0209999C000019999999N9999999N1-01401-01611999999ADDMA1999999083121MD1310031+9999ME1314709OA149900101REMSYN088AAXX  05224 06783 33/// /0000 11140 21161 38312 48470 53003 333 55300 20000 91102 91201;
0149067830999992011010523004+46467+009183FM-12+163899999V0209999C000019999999N9999999N1-01401-01681999999ADDMA1999999083141MD1319999+9999ME1314729OA149900101REMSYN088AAXX  05234 06783 33/// /0000 11140 21168 38314 48472 53/// 333 55300 20000 91102 91201;
0096067830999992011010600004+46467+009183FM-12+163899999V0202701N000519999999N9999999N1-01391-01591999999ADDMA1999999083071ME1314659REMSYN060AAXX  06004 06783 43/// /2701 11139 21159 38307 48465 5////;
0096067830999992011010601004+46467+009183FM-12+163899999V0203201N001519999999N9999999N1-01181-01401999999ADDMA1999999083061ME1314639REMSYN060AAXX  06014 06783 43/// /3203 11118 21140 38306 48463 5////;
0096067830999992011010602004+46467+009183FM-12+163899999V0209999C000019999999N9999999N1-01281-01521999999ADDMA1999999083111ME1314689REMSYN060AAXX  06024 06783 43/// /0000 11128 21152 38311 48468 5////;
0096067830999992011010603004+46467+009183FM-12+163899999V0209999C000019999999N9999999N1-01331-01551999999ADDMA1999999083081ME1314669REMSYN060AAXX  06034 06783 43/// /0000 11133 21155 38308 48466 5////;
0096067830999992011010604004+46467+009183FM-12+163899999V0209999C000019999999N9999999N1-01311-01531999999ADDMA1999999083101ME1314679REMSYN060AAXX  06044 06783 43/// /0000 11131 21153 38310 48467 5////;
0096067830999992011010605004+46467+009183FM-12+163899999V0209999C000019999999N9999999N1-01211-01461999999ADDMA1999999083141ME1314709REMSYN060AAXX  06054 06783 43/// /0000 11121 21146 38314 48470 5////;
0143067830999992011010606004+46467+009183FM-12+163899999V0209999C000019999999N9999999N1-01111-01341999999ADDIA2999-01909KA1999N-01511MA1999999083121ME1314689REMSYN082AAXX  06064 06783 43/// /0000 11111 21134 38312 48468 5//// 333 21151 3/119 55021;
0096067830999992011010607004+46467+009183FM-12+163899999V0209999C000019999999N9999999N1-00971-01171999999ADDMA1999999083121ME1314679REMSYN060AAXX  06074 06783 43/// /0000 11097 21117 38312 48467 5////;
0112067830999992011010608004+46467+009183FM-12+163899999V0209999C000019999999N9999999N1-00871-01101999999ADDMA1999999083171ME1314719REMSYN076AAXX  06084 06783 33/// /0000 11087 21110 38317 48471 5//// 333 553// 20040;
0096067830999992011010609004+46467+009183FM-12+163899999V0209999C000019999999N9999999N1-00691-00911999999ADDMA1999999083171ME1314709REMSYN060AAXX  06094 06783 43/// /0000 11069 21091 38317 48470 5////;
0149067830999992011010610004+46467+009183FM-12+163899999V0201401N001019999999N9999999N1-00451-00831999999ADDMA1999999083221MD1110101+9999ME1314739OA149900261REMSYN088AAXX  06104 06783 33/// /1402 11045 21083 38322 48473 51010 333 55300 20313 91105 91202;
0149067830999992011010611004+46467+009183FM-12+163899999V0201601N001019999999N9999999N1-00471-00871999999ADDMA1999999083231MD1310061+9999ME1314749OA149900311REMSYN088AAXX  06114 06783 33/// /1602 11047 21087 38323 48474 53006 333 55300 20313 91106 91202;
0149067830999992011010612004+46467+009183FM-12+163899999V0209999C000019999999N9999999N1-00441-00811999999ADDMA1999999083211MD1010041+9999ME1314729OA149900411REMSYN088AAXX  06124 06783 33/// /0000 11044 21081 38321 48472 50004 333 553// 20223 91108 91204;
0149067830999992011010613004+46467+009183FM-12+163899999V0202201N001019999999N9999999N1-00371-00701999999ADDMA1999999083181MD1810041+9999ME1314699OA149900311REMSYN088AAXX  06134 06783 33/// /2202 11037 21070 38318 48469 58004 333 55300 20194 91106 91203;
0096067830999992011010614004+46467+009183FM-12+163899999V0203301N000519999999N9999999N1-00401-00591999999ADDMA1999999083181ME1314699REMSYN060AAXX  06144 06783 43/// /3301 11040 21059 38318 48469 5////;
0096067830999992011010615004+46467+009183FM-12+163899999V0209999C000019999999N9999999N1-00401-00541999999ADDMA1999999083181ME1314699REMSYN060AAXX  06154 06783 43/// /0000 11040 21054 38318 48469 5////;
0155067830999992011010616004+46467+009183FM-12+163899999V0209999C000019999999N9999999N1-00361-00501999999ADDMA1999999083211MD1210031+9999ME1314719OA149900151REMSYN094AAXX  06164 06783 23/// /0000 11036 21050 38321 48471 52003 333 55300 20007 69915 91103 91201;
0155067830999992011010617004+46467+009183FM-12+163899999V0200601N000519999999N9999999N1-00381-00481999999ADDMA1999999083191MD1210011+9999ME1314709OA149900151REMSYN094AAXX  06174 06783 23/// /0601 11038 21048 38319 48470 52001 333 55300 20000 69935 91103 91201;
0210067830999992011010618004+46467+009183FM-12+163899999V0202401N000519999999N9999999N1-00261-00421999999ADDAA112000891KA1120M+99999MA1999999083201MD1010021+9999ME1314709OA149900311REMSYN106AAXX  06184 06783 03/// /2401 11026 21042 38320 48470 50002 69972 333 11035 55300 20000 69915 91106 91203;EQDQ01 -00352ATMX  
0155067830999992011010619004+46467+009183FM-12+163899999V0202501N000519999999N9999999N1-00311-00431999999ADDMA1999999083221MD1310011+9999ME1314729OA149900211REMSYN094AAXX  06194 06783 23/// /2501 11031 21043 38322 48472 53001 333 55300 20000 69915 91104 91202;
0155067830999992011010620004+46467+009183FM-12+163899999V0209999C000019999999N9999999N1-00311-00421999999ADDMA1999999083271MD1219999+9999ME1314779OA149900211REMSYN094AAXX  06204 06783 23/// /0000 11031 21042 38327 48477 52/// 333 55300 20000 69925 91104 91202;
0155067830999992011010621004+46467+009183FM-12+163899999V0209999C000019999999N9999999N1-00321-00441999999ADDMA1999999083291MD1219999+9999ME1314799OA149900211REMSYN094AAXX  06214 06783 23/// /0000 11032 21044 38329 48479 52/// 333 55300 20000 69915 91104 91202;
0155067830999992011010622004+46467+009183FM-12+163899999V0201101N000519999999N9999999N1-00231-00331999999ADDMA1999999083321MD1210101+9999ME1314819OA149900261REMSYN094AAXX  06224 06783 23/// /1101 11023 21033 38332 48481 52010 333 55300 20000 69915 91105 91202;
0112067830999992011010623004+46467+009183FM-12+163899999V0202801N000519999999N9999999N1-00261-00361999999ADDMA1999999083361ME1314859REMSYN076AAXX  06234 06783 33/// /2801 11026 21036 38336 48485 5//// 333 553// 20000;
0096067830999992011010700004+46467+009183FM-12+163899999V0209999C000019999999N9999999N1-00271-00361999999ADDMA1999999083371ME1314869REMSYN060AAXX  07004 06783 43/// /0000 11027 21036 38337 48486 5////;
0096067830999992011010701004+46467+009183FM-12+163899999V0209999C000019999999N9999999N1-00231-00331999999ADDMA1999999083361ME1314859REMSYN060AAXX  07014 06783 43/// /0000 11023 21033 38336 48485 5////;
0096067830999992011010702004+46467+009183FM-12+163899999V0209999C000019999999N9999999N1-00241-00321999999ADDMA1999999083401ME1314899REMSYN060AAXX  07024 06783 43/// /0000 11024 21032 38340 48489 5////;
0096067830999992011010703004+46467+009183FM-12+163899999V0209999C000019999999N9999999N1-00201-00311999999ADDMA1999999083451ME1314939REMSYN060AAXX  07034 06783 43/// /0000 11020 21031 38345 48493 5////;
0155067830999992011010704004+46467+009183FM-12+163899999V0209999C000019999999N9999999N1-00211-00291999999ADDMA1999999083431MD1010071+9999ME1314929OA149900051REMSYN094AAXX  07044 06783 23/// /0000 11021 21029 38343 48492 50007 333 55300 20000 69915 91101 91201;
0149067830999992011010705004+46467+009183FM-12+163899999V0209999C000019999999N9999999N1-00151-00241999999ADDMA1999999083441MD1210041+9999ME1314929OA149900101REMSYN088AAXX  07054 06783 33/// /0000 11015 21024 38344 48492 52004 333 55300 20000 91102 91201;
0239067830999992011010706004+46467+009183FM-12+163899999V0209999C000019999999N9999999N1-00181-00261999999ADDAA112001091AL13600191GJ100009IA2999-00409KA1999N-00381MA1999999083481MD1210031+9999ME1314969OA149900261REMSYN124AAXX  07064 06783 03/// /0000 11018 21026 38348 48496 52003 69992 333 21038 3/104 55000 55300 20000 69925 70016 91105 91202;
0155067830999992011010707004+46467+009183FM-12+163899999V0202701N000519999999N9999999N1-00131-00221999999ADDMA1999999083521MD1210091+9999ME1315009OA149900101REMSYN094AAXX  07074 06783 23/// /2701 11013 21022 38352 48500 52009 333 55300 20000 69925 91102 91201;
0118067830999992011010708004+46467+009183FM-12+163899999V0209999C000019999999N9999999N1-00121-00211999999ADDMA1999999083561ME1315039REMSYN082AAXX  07084 06783 23/// /0000 11012 21021 38356 48503 5//// 333 553// 20036 69915;
0096067830999992011010709004+46467+009183FM-12+163899999V0201901N001019999999N9999999N1+00001-00091999999ADDMA1999999083621ME1315099REMSYN060AAXX  07094 06783 43/// /1902 10000 21009 38362 48509 5////;
0155067830999992011010710004+46467+009183FM-12+163899999V0201701N000519999999N9999999N1+00071-00041999999ADDMA1999999083631MD1210111+9999ME1315099OA149900211REMSYN094AAXX  07104 06783 23/// /1701 10007 21004 38363 48509 52011 333 55300 20151 69935 91104 91203;
0155067830999992011010711004+46467+009183FM-12+163899999V0201601N001019999999N9999999N1+00071-00041999999ADDMA1999999083621MD1010061+9999ME1315089OA149900261REMSYN094AAXX  07114 06783 23/// /1602 10007 21004 38362 48508 50006 333 55300 20245 69935 91105 91203;
0172067830999992011010712004+46467+009183FM-12+163899999V0201501N001019999999N9999999N1+00081-00031999999ADDAA106001091MA1999999083591MD1810031+9999ME1315059OA149900261REMSYN100AAXX  07124 06783 03/// /1502 10008 21003 38359 48505 58003 60011 333 55300 20202 69935 91105 91203;
0155067830999992011010713004+46467+009183FM-12+163899999V0201501N001019999999N9999999N1+00121+00001999999ADDMA1999999083571MD1810061+9999ME1315039OA149900411REMSYN094AAXX  07134 06783 23/// /1502 10012 20000 38357 48503 58006 333 55300 20180 69955 91108 91203;
0096067830999992011010714004+46467+009183FM-12+163899999V0201401N001519999999N9999999N1+00011-00071999999ADDMA1999999083601ME1315079REMSYN060AAXX  07144 06783 43/// /1403 10001 21007 38360 48507 5////;
0096067830999992011010715004+46467+009183FM-12+163899999V0201601N001019999999N9999999N1+00101+00001999999ADDMA1999999083621ME1315089REMSYN060AAXX  07154 06783 43/// /1602 10010 20000 38362 48508 5////;
0155067830999992011010716004+46467+009183FM-12+163899999V0201401N001019999999N9999999N1+00031-00021999999ADDMA1999999083641MD1210071+9999ME1315109OA149900411REMSYN094AAXX  07164 06783 23/// /1402 10003 21002 38364 48510 52007 333 55300 20004 69955 91108 91203;
0155067830999992011010717004+46467+009183FM-12+163899999V0201801N000519999999N9999999N1+00121+00001999999ADDMA1999999083631MD1210031+9999ME1315099OA149900461REMSYN094AAXX  07174 06783 23/// /1801 10012 20000 38363 48509 52003 333 55300 20000 69995 91109 91203;
0154067830999992011010718004+46467+009183FM-12+163899999V0201701N001019999999N9999999N1+00111-00011999999ADDAA112006191KA1120M+00141MA1999999083661ME1315129REMSYN094AAXX  07184 06783 03/// /1702 10011 21001 38366 48512 5//// 60062 333 10014 553// 20000 60015;
0155067830999992011010719004+46467+009183FM-12+163899999V0201401N001019999999N9999999N1+00041-00031999999ADDMA1999999083651MD1219999+9999ME1315119OA149900411REMSYN094AAXX  07194 06783 23/// /1402 10004 21003 38365 48511 52/// 333 55300 20000 60015 91108 91203;
0096067830999992011010720004+46467+009183FM-12+163899999V0201701N000519999999N9999999N1+00061-00011999999ADDMA1999999083641ME1315109REMSYN060AAXX  07204 06783 43/// /1701 10006 21001 38364 48510 5////;
0096067830999992011010721004+46467+009183FM-12+163899999V0201501N001519999999N9999999N1+00111+00031999999ADDMA1999999083621ME1315089REMSYN060AAXX  07214 06783 43/// /1503 10011 20003 38362 48508 5////;
0155067830999992011010722004+46467+009183FM-12+163899999V0201601N001019999999N9999999N1+00121+00031999999ADDMA1999999083631MD1710021+9999ME1315099OA149900311REMSYN094AAXX  07224 06783 23/// /1602 10012 20003 38363 48509 57002 333 55300 20000 69965 91106 91203;
0118067830999992011010723004+46467+009183FM-12+163899999V0201401N001519999999N9999999N1+00071-00021999999ADDMA1999999083641ME1315109REMSYN082AAXX  07234 06783 23/// /1403 10007 21002 38364 48510 5//// 333 553// 20000 69985;
0135067830999992011010800004+46467+009183FM-12+163899999V0201401N001519999999N9999999N1+00071-00011999999ADDAA106005191MA1999999083621ME1315089REMSYN088AAXX  08004 06783 03/// /1403 10007 21001 38362 48508 5//// 60051 333 553// 20000 60015;
0096067830999992011010801004+46467+009183FM-12+163899999V0201501N001519999999N9999999N1+00071-00021999999ADDMA1999999083581ME1315049REMSYN060AAXX  08014 06783 43/// /1503 10007 21002 38358 48504 5////;
0096067830999992011010802004+46467+009183FM-12+163899999V0201801N001019999999N9999999N1+00081-00031999999ADDMA1999999083591ME1315059REMSYN060AAXX  08024 06783 43/// /1802 10008 21003 38359 48505 5////;
0096067830999992011010803004+46467+009183FM-12+163899999V0202101N000519999999N9999999N1+00061-00021999999ADDMA1999999083581ME1315049REMSYN060AAXX  08034 06783 43/// /2101 10006 21002 38358 48504 5////;
0096067830999992011010804004+46467+009183FM-12+163899999V0202001N000519999999N9999999N1+00071-00031999999ADDMA1999999083541ME1315019REMSYN060AAXX  08044 06783 43/// /2001 10007 21003 38354 48501 5////;
0096067830999992011010805004+46467+009183FM-12+163899999V0209999C000019999999N9999999N1+00051-00061999999ADDMA1999999083531ME1315009REMSYN060AAXX  08054 06783 43/// /0000 10005 21006 38353 48500 5////;
0143067830999992011010806004+46467+009183FM-12+163899999V0201401N001019999999N9999999N1+00021-00051999999ADDIA2999+00009KA1999N+00011MA1999999083501ME1314979REMSYN082AAXX  08064 06783 43/// /1402 10002 21005 38350 48497 5//// 333 20001 3/100 55000;
0096067830999992011010807004+46467+009183FM-12+163899999V0201301N001519999999N9999999N1+00031-00051999999ADDMA1999999083531ME1315009REMSYN060AAXX  08074 06783 43/// /1303 10003 21005 38353 48500 5////;
0118067830999992011010808004+46467+009183FM-12+163899999V0209999C000019999999N9999999N1+00031-00061999999ADDMA1999999083581ME1315059REMSYN082AAXX  08084 06783 23/// /0000 10003 21006 38358 48505 5//// 333 553// 20004 69975;
0096067830999992011010809004+46467+009183FM-12+163899999V0201501N000519999999N9999999N1+00021-00071999999ADDMA1999999083571ME1315049REMSYN060AAXX  08094 06783 43/// /1501 10002 21007 38357 48504 5////;
0096067830999992011010810004+46467+009183FM-12+163899999V0201401N001519999999N9999999N1+00041-00051999999ADDMA1999999083621ME1315089REMSYN060AAXX  08104 06783 43/// /1403 10004 21005 38362 48508 5////;
0096067830999992011010811004+46467+009183FM-12+163899999V0201601N001019999999N9999999N1+00071-00031999999ADDMA1999999083591ME1315059REMSYN060AAXX  08114 06783 43/// /1602 10007 21003 38359 48505 5////;
0096067830999992011010812004+46467+009183FM-12+163899999V0201501N001519999999N9999999N1+00081-00011999999ADDMA1999999083561ME1315029REMSYN060AAXX  08124 06783 43/// /1503 10008 21001 38356 48502 5////;
0096067830999992011010813004+46467+009183FM-12+163899999V0201501N000519999999N9999999N1+00131+00001999999ADDMA1999999083541ME1315009REMSYN060AAXX  08134 06783 43/// /1501 10013 20000 38354 48500 5////;
0096067830999992011010814004+46467+009183FM-12+163899999V0201701N000519999999N9999999N1+00111+00011999999ADDMA1999999083541ME1315009REMSYN060AAXX  08144 06783 43/// /1701 10011 20001 38354 48500 5////;
0096067830999992011010815004+46467+009183FM-12+163899999V0201401N001019999999N9999999N1+00091+00011999999ADDMA1999999083601ME1315069REMSYN060AAXX  08154 06783 43/// /1402 10009 20001 38360 48506 5////;
0096067830999992011010816004+46467+009183FM-12+163899999V0201501N000519999999N9999999N1+00101+00001999999ADDMA1999999083601ME1315069REMSYN060AAXX  08164 06783 43/// /1501 10010 20000 38360 48506 5////;
0096067830999992011010817004+46467+009183FM-12+163899999V0201501N001019999999N9999999N1+00111+00001999999ADDMA1999999083621ME1315089REMSYN060AAXX  08174 06783 43/// /1502 10011 20000 38362 48508 5////;
0096067830999992011010818004+46467+009183FM-12+163899999V0201601N001019999999N9999999N1+00101+00001999999ADDMA1999999083631ME1315099REMSYN060AAXX  08184 06783 43/// /1602 10010 20000 38363 48509 5////;
0096067830999992011010819004+46467+009183FM-12+163899999V0201701N001019999999N9999999N1+00121+00001999999ADDMA1999999083611ME1315079REMSYN060AAXX  08194 06783 43/// /1702 10012 20000 38361 48507 5////;
0096067830999992011010820004+46467+009183FM-12+163899999V0201801N000519999999N9999999N1+00091+00001999999ADDMA1999999083611ME1315079REMSYN060AAXX  08204 06783 43/// /1801 10009 20000 38361 48507 5////;
0096067830999992011010821004+46467+009183FM-12+163899999V0201601N001019999999N9999999N1+00101+00011999999ADDMA1999999083601ME1315069REMSYN060AAXX  08214 06783 43/// /1602 10010 20001 38360 48506 5////;
0096067830999992011010822004+46467+009183FM-12+163899999V0201601N001019999999N9999999N1+00071+00001999999ADDMA1999999083601ME1315069REMSYN060AAXX  08224 06783 43/// /1602 10007 20000 38360 48506 5////;
0096067830999992011010823004+46467+009183FM-12+163899999V0201701N001519999999N9999999N1+00061+00001999999ADDMA1999999083611ME1315079REMSYN060AAXX  08234 06783 43/// /1703 10006 20000 38361 48507 5////;
0096067830999992011010900004+46467+009183FM-12+163899999V0201701N001019999999N9999999N1+00061+00001999999ADDMA1999999083631ME1315099REMSYN060AAXX  09004 06783 43/// /1702 10006 20000 38363 48509 5////;
0096067830999992011010901004+46467+009183FM-12+163899999V0201601N001019999999N9999999N1+00081-00021999999ADDMA1999999083621ME1315089REMSYN060AAXX  09014 06783 43/// /1602 10008 21002 38362 48508 5////;
0096067830999992011010902004+46467+009183FM-12+163899999V0201801N001019999999N9999999N1+00081+00001999999ADDMA1999999083611ME1315079REMSYN060AAXX  09024 06783 43/// /1802 10008 20000 38361 48507 5////;
0096067830999992011010903004+46467+009183FM-12+163899999V0201601N001019999999N9999999N1+00071+00001999999ADDMA1999999083581ME1315049REMSYN060AAXX  09034 06783 43/// /1602 10007 20000 38358 48504 5////;
0096067830999992011010904004+46467+009183FM-12+163899999V0201501N002119999999N9999999N1+00091+00011999999ADDMA1999999083521ME1314999REMSYN060AAXX  09044 06783 43/// /1504 10009 20001 38352 48499 5////;
0096067830999992011010905004+46467+009183FM-12+163899999V0201601N001019999999N9999999N1+00081-00011999999ADDMA1999999083521ME1314999REMSYN060AAXX  09054 06783 43/// /1602 10008 21001 38352 48499 5////;
0106067830999992011010906004+46467+009183FM-12+163899999V0201501N002119999999N9999999N1+00061+00011999999ADDMA1999999083521ME1314999REMSYN070AAXX  09064 06783 43/// /1504 10006 20001 38352 48499 5//// 333 55000;
0096067830999992011010907004+46467+009183FM-12+163899999V0201501N001519999999N9999999N1+00031+00001999999ADDMA1999999083541ME1315019REMSYN060AAXX  09074 06783 43/// /1503 10003 20000 38354 48501 5////;
0118067830999992011010908004+46467+009183FM-12+163899999V0202101N002119999999N9999999N1+00061-00021999999ADDMA1999999083551ME1315029REMSYN082AAXX  09084 06783 23/// /2104 10006 21002 38355 48502 5//// 333 553// 20007 69915;
0118067830999992011010909004+46467+009183FM-12+163899999V0201701N001019999999N9999999N1+00071-00021999999ADDMA1999999083581ME1315049REMSYN082AAXX  09094 06783 23/// /1702 10007 21002 38358 48504 5//// 333 553// 20058 69945;
0155067830999992011010910004+46467+009183FM-12+163899999V0201601N002119999999N9999999N1+00061-00011999999ADDMA1999999083581MD1210041+9999ME1315049OA149900621REMSYN094AAXX  09104 06783 23/// /1604 10006 21001 38358 48504 52004 333 55300 20130 69945 91112 91204;
0155067830999992011010911004+46467+009183FM-12+163899999V0201601N001019999999N9999999N1+00071-00021999999ADDMA1999999083561MD1010011+9999ME1315039OA149900621REMSYN094AAXX  09114 06783 23/// /1602 10007 21002 38356 48503 50001 333 55300 20137 69965 91112 91204;
0172067830999992011010912004+46467+009183FM-12+163899999V0201601N001519999999N9999999N1+00081-00021999999ADDAA106003091MA1999999083521MD1810061+9999ME1314999OA149900721REMSYN100AAXX  09124 06783 03/// /1603 10008 21002 38352 48499 58006 60031 333 55300 20144 69945 91114 91206;
0155067830999992011010913004+46467+009183FM-12+163899999V0201401N002119999999N9999999N1+00071-00031999999ADDMA1999999083481MD1810101+9999ME1314959OA149900571REMSYN094AAXX  09134 06783 23/// /1404 10007 21003 38348 48495 58010 333 55300 20130 69955 91111 91205;
0096067830999992011010914004+46467+009183FM-12+163899999V0201701N000519999999N9999999N1+00061-00031999999ADDMA1999999083491ME1314969REMSYN060AAXX  09144 06783 43/// /1701 10006 21003 38349 48496 5////;
0096067830999992011010915004+46467+009183FM-12+163899999V0201601N001519999999N9999999N1+00091-00031999999ADDMA1999999083481ME1314959REMSYN060AAXX  09154 06783 43/// /1603 10009 21003 38348 48495 5////;
0155067830999992011010916004+46467+009183FM-12+163899999V0201401N002619999999N9999999N1+00041-00041999999ADDMA1999999083471MD1710011+9999ME1314949OA149900411REMSYN094AAXX  09164 06783 23/// /1405 10004 21004 38347 48494 57001 333 55300 20000 69995 91108 91205;
0155067830999992011010917004+46467+009183FM-12+163899999V0201501N001019999999N9999999N1+00031-00061999999ADDMA1999999083441MD1710051+9999ME1314919OA149900411REMSYN094AAXX  09174 06783 23/// /1502 10003 21006 38344 48491 57005 333 55300 20000 60025 91108 91205;
0191067830999992011010918004+46467+009183FM-12+163899999V0201501N000519999999N9999999N1+00021-00081999999ADDAA112008991KA1120M+00101MA1999999083451MD1710031+9999ME1314929OA149900721REMSYN106AAXX  09184 06783 03/// /1501 10002 21008 38345 48492 57003 60092 333 10010 55300 20000 60025 91114 91205;
0155067830999992011010919004+46467+009183FM-12+163899999V0201401N000519999999N9999999N1+00001-00111999999ADDMA1999999083471MD1510001+9999ME1314949OA149900261REMSYN094AAXX  09194 06783 23/// /1401 10000 21011 38347 48494 55000 333 55300 20000 60035 91105 91202;
0155067830999992011010920004+46467+009183FM-12+163899999V0209999C000019999999N9999999N1-00031-00101999999ADDMA1999999083451MD1010011+9999ME1314929OA149900151REMSYN094AAXX  09204 06783 23/// /0000 11003 21010 38345 48492 50001 333 55300 20000 60025 91103 91202;
0155067830999992011010921004+46467+009183FM-12+163899999V0201501N000519999999N9999999N1-00031-00121999999ADDMA1999999083471MD1210021+9999ME1314949OA149900411REMSYN094AAXX  09214 06783 23/// /1501 11003 21012 38347 48494 52002 333 55300 20000 60025 91108 91205;
0155067830999992011010922004+46467+009183FM-12+163899999V0201301N000519999999N9999999N1-00041-00121999999ADDMA1999999083451MD1710021+9999ME1314929OA149900211REMSYN094AAXX  09224 06783 23/// /1301 11004 21012 38345 48492 57002 333 55300 20000 60025 91104 91202;
0155067830999992011010923004+46467+009183FM-12+163899999V0201701N000519999999N9999999N1+00041-00051999999ADDMA1999999083441MD1810011+9999ME1314919OA149900211REMSYN094AAXX  09234 06783 23/// /1701 10004 21005 38344 48491 58001 333 55300 20000 60025 91104 91202;
0172067830999992011011000004+46467+009183FM-12+163899999V0201501N001019999999N9999999N1-00011-00131999999ADDAA106010991MA1999999083431MD1610041+9999ME1314909OA149900511REMSYN100AAXX  10004 06783 03/// /1502 11001 21013 38343 48490 56004 60111 333 55300 20000 69975 91110 91205;
0155067830999992011011001004+46467+009183FM-12+163899999V0209999C000019999999N9999999N1-00041-00141999999ADDMA1999999083401MD1810051+9999ME1314889OA149900211REMSYN094AAXX  10014 06783 23/// /0000 11004 21014 38340 48488 58005 333 55300 20000 60015 91104 91202;
0118067830999992011011002004+46467+009183FM-12+163899999V0209999C000019999999N9999999N1-00021-00091999999ADDMA1999999083391ME1314879REMSYN082AAXX  10024 06783 23/// /0000 11002 21009 38339 48487 5//// 333 553// 20000 60035;
0096067830999992011011003004+46467+009183FM-12+163899999V0209999C000019999999N9999999N1-00081-00151999999ADDMA1999999083391ME1314879REMSYN060AAXX  10034 06783 43/// /0000 11008 21015 38339 48487 5////;
0118067830999992011011004004+46467+009183FM-12+163899999V0209999C000019999999N9999999N1-00061-00151999999ADDMA1999999083381ME1314869REMSYN082AAXX  10044 06783 23/// /0000 11006 21015 38338 48486 5//// 333 553// 20000 60025;
0155067830999992011011005004+46467+009183FM-12+163899999V0209999C000019999999N9999999N1-00071-00131999999ADDMA1999999083371MD1719999+9999ME1314859OA149900001REMSYN094AAXX  10054 06783 23/// /0000 11007 21013 38337 48485 57/// 333 55300 20000 69985 91100 91200;
0168067830999992011011006004+46467+009183FM-12+163899999V0209999C000019999999N9999999N1-00041-00131999999ADDAA124029091GJ100009IA2999+00009KA1999N-00091MA1999999083391ME1314879REMSYN088AAXX  10064 06783 43/// /0000 11004 21013 38339 48487 5//// 333 21009 3/100 55000 70290;
0155067830999992011011007004+46467+009183FM-12+163899999V0209999C000019999999N9999999N1-00051-00121999999ADDMA1999999083401MD1210021+9999ME1314889OA149900001REMSYN094AAXX  10074 06783 23/// /0000 11005 21012 38340 48488 52002 333 55300 20000 69925 91100 91200;
0096067830999992011011008004+46467+009183FM-12+163899999V0209999C000019999999N9999999N1-00031-00111999999ADDMA1999999083431ME1314919REMSYN060AAXX  10084 06783 43/// /0000 11003 21011 38343 48491 5////;
0096067830999992011011009004+46467+009183FM-12+163899999V0209999C000019999999N9999999N1+00001-00091999999ADDMA1999999083431ME1314909REMSYN060AAXX  10094 06783 43/// /0000 10000 21009 38343 48490 5////;
0149067830999992011011010004+46467+009183FM-12+163899999V0209999C000019999999N9999999N1+00001-00091999999ADDMA1999999083451MD1110051+9999ME1314929OA149900001REMSYN088AAXX  10104 06783 33/// /0000 10000 21009 38345 48492 51005 333 55300 20230 91100 91200;
0155067830999992011011011004+46467+009183FM-12+163899999V0201601N000519999999N9999999N1+00041-00061999999ADDMA1999999083431MD1019999+9999ME1314909OA149900101REMSYN094AAXX  10114 06783 23/// /1601 10004 21006 38343 48490 50/// 333 55300 20360 69915 91102 91201;
0135067830999992011011012004+46467+009183FM-12+163899999V0203101N000519999999N9999999N1+00021-00051999999ADDAA106000591MA1999999083371ME1314849REMSYN088AAXX  10124 06783 03/// /3101 10002 21005 38337 48484 5//// 69951 333 553// 20356 60005;
0096067830999992011011013004+46467+009183FM-12+163899999V0201401N001019999999N9999999N1+00041-00051999999ADDMA1999999083331ME1314809REMSYN060AAXX  10134 06783 43/// /1402 10004 21005 38333 48480 5////;
0096067830999992011011014004+46467+009183FM-12+163899999V0201701N000519999999N9999999N1+00031-00041999999ADDMA1999999083321ME1314809REMSYN060AAXX  10144 06783 43/// /1701 10003 21004 38332 48480 5////;
0096067830999992011011015004+46467+009183FM-12+163899999V0201401N001019999999N9999999N1+00011-00021999999ADDMA1999999083341ME1314829REMSYN060AAXX  10154 06783 43/// /1402 10001 21002 38334 48482 5////;
0096067830999992011011016004+46467+009183FM-12+163899999V0201401N000519999999N9999999N1+00011-00071999999ADDMA1999999083331ME1314819REMSYN060AAXX  10164 06783 43/// /1401 10001 21007 38333 48481 5////;
0096067830999992011011017004+46467+009183FM-12+163899999V0209999C000019999999N9999999N1-00011-00051999999ADDMA1999999083301ME1314789REMSYN060AAXX  10174 06783 43/// /0000 11001 21005 38330 48478 5////;
0119067830999992011011018004+46467+009183FM-12+163899999V0201601N000519999999N9999999N1-00031-00081999999ADDKA1999M+00071MA1999999083311ME1314799REMSYN070AAXX  10184 06783 43/// /1601 11003 21008 38331 48479 5//// 333 10007;
0096067830999992011011019004+46467+009183FM-12+163899999V0209999C000019999999N9999999N1-00021-00111999999ADDMA1999999083281ME1314769REMSYN060AAXX  10194 06783 43/// /0000 11002 21011 38328 48476 5////;
0096067830999992011011020004+46467+009183FM-12+163899999V0201701N000519999999N9999999N1+00001-00101999999ADDMA1999999083271ME1314759REMSYN060AAXX  10204 06783 43/// /1701 10000 21010 38327 48475 5////;
0096067830999992011011021004+46467+009183FM-12+163899999V0201501N000519999999N9999999N1-00051-00141999999ADDMA1999999083261ME1314749REMSYN060AAXX  10214 06783 43/// /1501 11005 21014 38326 48474 5////;
0096067830999992011011022004+46467+009183FM-12+163899999V0209999C000019999999N9999999N1-00081-00191999999ADDMA1999999083271ME1314759REMSYN060AAXX  10224 06783 43/// /0000 11008 21019 38327 48475 5////;
0096067830999992011011023004+46467+009183FM-12+163899999V0209999C000019999999N9999999N1-00101-00181999999ADDMA1999999083241ME1314739REMSYN060AAXX  10234 06783 43/// /0000 11010 21018 38324 48473 5////;
0096067830999992011011100004+46467+009183FM-12+163899999V0209999C000019999999N9999999N1-00091-00161999999ADDMA1999999083191ME1314689REMSYN060AAXX  11004 06783 43/// /0000 11009 21016 38319 48468 5////;
0096067830999992011011101004+46467+009183FM-12+163899999V0209999C000019999999N9999999N1-00091-00171999999ADDMA1999999083151ME1314649REMSYN060AAXX  11014 06783 43/// /0000 11009 21017 38315 48464 5////;
0096067830999992011011102004+46467+009183FM-12+163899999V0209999C000019999999N9999999N1-00101-00171999999ADDMA1999999083131ME1314629REMSYN060AAXX  11024 06783 43/// /0000 11010 21017 38313 48462 5////;
0096067830999992011011103004+46467+009183FM-12+163899999V0209999C000019999999N9999999N1-00101-00171999999ADDMA1999999083091ME1314589REMSYN060AAXX  11034 06783 43/// /0000 11010 21017 38309 48458 5////;
0096067830999992011011104004+46467+009183FM-12+163899999V0209999C000019999999N9999999N1-00101-00181999999ADDMA1999999083041ME1314539REMSYN060AAXX  11044 06783 43/// /0000 11010 21018 38304 48453 5////;
0096067830999992011011105004+46467+009183FM-12+163899999V0209999C000019999999N9999999N1-00101-00181999999ADDMA1999999083011ME1314509REMSYN060AAXX  11054 06783 43/// /0000 11010 21018 38301 48450 5////;
0106067830999992011011106004+46467+009183FM-12+163899999V0209999C000019999999N9999999N1-00111-00221999999ADDMA1999999083011ME1314519REMSYN070AAXX  11064 06783 43/// /0000 11011 21022 38301 48451 5//// 333 55000;
0149067830999992011011107004+46467+009183FM-12+163899999V0202201N000519999999N9999999N1-00111-00201999999ADDMA1999999083001MD1719999+9999ME1314509OA149900051REMSYN088AAXX  11074 06783 33/// /2201 11011 21020 38300 48450 57/// 333 55300 20000 91101 91201;
0112067830999992011011108004+46467+009183FM-12+163899999V0202901N000519999999N9999999N1-00081-00171999999ADDMA1999999083011ME1314509REMSYN076AAXX  11084 06783 33/// /2901 11008 21017 38301 48450 5//// 333 553// 20018;
0096067830999992011011109004+46467+009183FM-12+163899999V0209999C000019999999N9999999N1-00061-00161999999ADDMA1999999082991ME1314489REMSYN060AAXX  11094 06783 43/// /0000 11006 21016 38299 48448 5////;
0149067830999992011011110004+46467+009183FM-12+163899999V0201501N000519999999N9999999N1+00001-00141999999ADDMA1999999082981MD1710021+9999ME1314479OA149900151REMSYN088AAXX  11104 06783 33/// /1501 10000 21014 38298 48447 57002 333 55300 20374 91103 91201;
0149067830999992011011111004+46467+009183FM-12+163899999V0201401N001519999999N9999999N1-00021-00111999999ADDMA1999999082951MD1810061+9999ME1314449OA149900261REMSYN088AAXX  11114 06783 33/// /1403 11002 21011 38295 48444 58006 333 553// 20436 91105 91203;
0112067830999992011011112004+46467+009183FM-12+163899999V0201301N001519999999N9999999N1+00011-00101999999ADDMA1999999082861ME1314359REMSYN076AAXX  11124 06783 33/// /1303 10001 21010 38286 48435 5//// 333 553// 20536;
0149067830999992011011113004+46467+009183FM-12+163899999V0201601N001019999999N9999999N1+00031-00121999999ADDMA1999999082771MD1810211+9999ME1314269OA149900311REMSYN088AAXX  11134 06783 33/// /1602 10003 21012 38277 48426 58021 333 55300 20666 91106 91203;
0096067830999992011011114004+46467+009183FM-12+163899999V0201701N001019999999N9999999N1+00021-00131999999ADDMA1999999082751ME1314249REMSYN060AAXX  11144 06783 43/// /1702 10002 21013 38275 48424 5////;
0096067830999992011011115004+46467+009183FM-12+163899999V0201301N001519999999N9999999N1-00061-00061999999ADDMA1999999082771ME1314279REMSYN060AAXX  11154 06783 43/// /1303 11006 21006 38277 48427 5////;
0155067830999992011011116004+46467+009183FM-12+163899999V0201101N001519999999N9999999N1-00091-00091999999ADDMA1999999082791MD1310021+9999ME1314299OA149900361REMSYN094AAXX  11164 06783 23/// /1103 11009 21009 38279 48429 53002 333 553// 20014 69915 91107 91204;
0155067830999992011011117004+46467+009183FM-12+163899999V0209999C000019999999N9999999N1-00041-00131999999ADDMA1999999082811MD1319999+9999ME1314319OA149900361REMSYN094AAXX  11174 06783 23/// /0000 11004 21013 38281 48431 53/// 333 55300 20000 69955 91107 91204;
0191067830999992011011118004+46467+009183FM-12+163899999V0209999C000019999999N9999999N1-00051-00141999999ADDAA112000891KA1120M+00041MA1999999082831MD1210061+9999ME1314339OA149900361REMSYN106AAXX  11184 06783 03/// /0000 11005 21014 38283 48433 52006 69982 333 10004 55300 20000 69925 91107 91204;
0149067830999992011011119004+46467+009183FM-12+163899999V0209999C000019999999N9999999N1-00141-00281999999ADDMA1999999082861MD1210071+9999ME1314369OA149900101REMSYN088AAXX  11194 06783 33/// /0000 11014 21028 38286 48436 52007 333 55300 20000 91102 91201;
0149067830999992011011120004+46467+009183FM-12+163899999V0203201N002119999999N9999999N1-00081-00421999999ADDMA1999999082881MD1110071+9999ME1314389OA149900881REMSYN088AAXX  11204 06783 33/// /3204 11008 21042 38288 48438 51007 333 55300 20000 91117 91204;
0149067830999992011011121004+46467+009183FM-12+163899999V0203001N003619999999N9999999N1-00091-00401999999ADDMA1999999082911MD1110081+9999ME1314419OA149900881REMSYN088AAXX  11214 06783 33/// /3007 11009 21040 38291 48441 51008 333 55300 20000 91117 91207;
0149067830999992011011122004+46467+009183FM-12+163899999V0203101N003619999999N9999999N1-00061-00341999999ADDMA1999999082981MD1310121+9999ME1314479OA149900881REMSYN088AAXX  11224 06783 33/// /3107 11006 21034 38298 48447 53012 333 55300 20000 91117 91207;
0149067830999992011011123004+46467+009183FM-12+163899999V0203201N003619999999N9999999N1-00051-00441999999ADDMA1999999083041MD1210161+9999ME1314539OA149901241REMSYN088AAXX  11234 06783 33/// /3207 11005 21044 38304 48453 52016 333 55300 20000 91124 91209;
0149067830999992011011200004+46467+009183FM-12+163899999V0203301N005119999999N9999999N1-00111-00471999999ADDMA1999999083091MD1210181+9999ME1314589OA149901241REMSYN088AAXX  12004 06783 33/// /3310 11011 21047 38309 48458 52018 333 55300 20000 91124 91210;
0149067830999992011011201004+46467+009183FM-12+163899999V0203301N005119999999N9999999N1-00091-00541999999ADDMA1999999083111MD1210131+9999ME1314609OA149901131REMSYN088AAXX  12014 06783 33/// /3310 11009 21054 38311 48460 52013 333 55300 20000 91122 91211;
0112067830999992011011202004+46467+009183FM-12+163899999V0203301N004619999999N9999999N1-00111-00561999999ADDMA1999999083211ME1314709REMSYN076AAXX  12024 06783 33/// /3309 11011 21056 38321 48470 5//// 333 553// 20000;
0096067830999992011011203004+46467+009183FM-12+163899999V0203301N004619999999N9999999N1-00131-00571999999ADDMA1999999083281ME1314779REMSYN060AAXX  12034 06783 43/// /3309 11013 21057 38328 48477 5////;
0096067830999992011011204004+46467+009183FM-12+163899999V0203201N003619999999N9999999N1-00251-00601999999ADDMA1999999083331ME1314829REMSYN060AAXX  12044 06783 43/// /3207 11025 21060 38333 48482 5////;
0112067830999992011011205004+46467+009183FM-12+163899999V0203101N004619999999N9999999N1-00201-00611999999ADDMA1999999083321ME1314819REMSYN076AAXX  12054 06783 33/// /3109 11020 21061 38332 48481 5//// 333 553// 20000;
0168067830999992011011206004+46467+009183FM-12+163899999V0203201N005719999999N9999999N1-00201-00641999999ADDAA124000891GJ100009IA2999-00209KA1999N-00271MA1999999083381ME1314879REMSYN088AAXX  12064 06783 43/// /3211 11020 21064 38338 48487 5//// 333 21027 3/102 55000 70008;
0149067830999992011011207004+46467+009183FM-12+163899999V0203201N005719999999N9999999N1-00131-00661999999ADDMA1999999083471MD1210141+9999ME1314959OA149901241REMSYN088AAXX  12074 06783 33/// /3211 11013 21066 38347 48495 52014 333 55300 20000 91124 91213;
0096067830999992011011208004+46467+009183FM-12+163899999V0203201N007219999999N9999999N1-00201-00601999999ADDMA1999999083521ME1315009REMSYN060AAXX  12084 06783 43/// /3214 11020 21060 38352 48500 5////;
0096067830999992011011209004+46467+009183FM-12+163899999V0203201N007219999999N9999999N1-00101-00651999999ADDMA1999999083481ME1314969REMSYN060AAXX  12094 06783 43/// /3214 11010 21065 38348 48496 5////;
0149067830999992011011210004+46467+009183FM-12+163899999V0203201N006219999999N9999999N1-00031-00581999999ADDMA1999999083541MD1219999+9999ME1315019OA149901441REMSYN088AAXX  12104 06783 33/// /3212 11003 21058 38354 48501 52/// 333 55300 20731 91128 91216;
0149067830999992011011211004+46467+009183FM-12+163899999V0203201N005119999999N9999999N1+00101-00611999999ADDMA1999999083541MD1310021+9999ME1315009OA149901241REMSYN088AAXX  12114 06783 33/// /3210 10010 21061 38354 48500 53002 333 553// 2//// 91124 91216;
0096067830999992011011212004+46467+009183FM-12+163899999V0203101N003619999999N9999999N1+00111-00671999999ADDMA1999999083511ME1314979REMSYN060AAXX  12124 06783 43/// /3107 10011 21067 38351 48497 5////;
0096067830999992011011213004+46467+009183FM-12+163899999V0203001N003119999999N9999999N1+00151-00821999999ADDMA1999999083531ME1314999REMSYN060AAXX  12134 06783 43/// /3006 10015 21082 38353 48499 5////;
0096067830999992011011214004+46467+009183FM-12+163899999V0203101N005119999999N9999999N1+00051-00661999999ADDMA1999999083561ME1315039REMSYN060AAXX  12144 06783 43/// /3110 10005 21066 38356 48503 5////;
0096067830999992011011215004+46467+009183FM-12+163899999V0203201N002119999999N9999999N1+00051-00581999999ADDMA1999999083571ME1315049REMSYN060AAXX  12154 06783 43/// /3204 10005 21058 38357 48504 5////;
0149067830999992011011216004+46467+009183FM-12+163899999V0203001N002619999999N9999999N1-00011-00481999999ADDMA1999999083621MD1210091+9999ME1315099OA149901031REMSYN088AAXX  12164 06783 33/// /3005 11001 21048 38362 48509 52009 333 55302 20126 91120 91207;
0149067830999992011011217004+46467+009183FM-12+163899999V0203001N003119999999N9999999N1-00051-00391999999ADDMA1999999083681MD1310121+9999ME1315159OA149901031REMSYN088AAXX  12174 06783 33/// /3006 11005 21039 38368 48515 53012 333 55300 20000 91120 91211;
0168067830999992011011218004+46467+009183FM-12+163899999V0203301N002619999999N9999999N1-00061-00351999999ADDKA1120M+00171MA1999999083671MD1210101+9999ME1315149OA149901441REMSYN094AAXX  12184 06783 33/// /3305 11006 21035 38367 48514 52010 333 10017 55300 20000 91128 91216;
0149067830999992011011219004+46467+009183FM-12+163899999V0203301N002619999999N9999999N1-00161-00291999999ADDMA1999999083671MD1010051+9999ME1315149OA149900721REMSYN088AAXX  12194 06783 33/// /3305 11016 21029 38367 48514 50005 333 55300 20000 91114 91206;
0155067830999992011011220004+46467+009183FM-12+163899999V0209999C000019999999N9999999N1-00111-00241999999ADDMA1999999083661MD1810021+9999ME1315139OA149900771REMSYN094AAXX  12204 06783 23/// /0000 11011 21024 38366 48513 58002 333 55300 20000 69925 91115 91207;
0149067830999992011011221004+46467+009183FM-12+163899999V0209999C000019999999N9999999N1-00131-00231999999ADDMA1999999083651MD1710021+9999ME1315129OA149901031REMSYN088AAXX  12214 06783 33/// /0000 11013 21023 38365 48512 57002 333 55300 20000 91120 91211;
0149067830999992011011222004+46467+009183FM-12+163899999V0209999C000019999999N9999999N1-00171-00281999999ADDMA1999999083621MD1710051+9999ME1315099OA149900151REMSYN088AAXX  12224 06783 33/// /0000 11017 21028 38362 48509 57005 333 55300 20000 91103 91201;
0149067830999992011011223004+46467+009183FM-12+163899999V0209999C000019999999N9999999N1-00161-00281999999ADDMA1999999083641MD1710021+9999ME1315119OA149900151REMSYN088AAXX  12234 06783 33/// /0000 11016 21028 38364 48511 57002 333 55300 20000 91103 91201;
0191067830999992011011300004+46467+009183FM-12+163899999V0209999C000019999999N9999999N1-00171-00291999999ADDAA106000091MA1999999083581MD1710071+9999ME1315069OA149901241REMSYN100AAXX  13004 06783 03/// /0000 11017 21029 38358 48506 57007 69921 333 55300 20000 60005 91124 91212;EQDQ01  00002PRCP06
0149067830999992011011301004+46467+009183FM-12+163899999V0209999C000019999999N9999999N1-00201-00271999999ADDMA1999999083561MD1710061+9999ME1315049OA149900211REMSYN088AAXX  13014 06783 33/// /0000 11020 21027 38356 48504 57006 333 55300 20000 91104 91201;
0149067830999992011011302004+46467+009183FM-12+163899999V0201101N000519999999N9999999N1-00011-00171999999ADDMA1999999083571MD1719999+9999ME1315049OA149900261REMSYN088AAXX  13024 06783 33/// /1101 11001 21017 38357 48504 57/// 333 55300 20000 91105 91201;
0096067830999992011011303004+46467+009183FM-12+163899999V0203201N006719999999N9999999N1+00311-00031999999ADDMA1999999083511ME1314969REMSYN060AAXX  13034 06783 43/// /3213 10031 21003 38351 48496 5////;
0149067830999992011011304004+46467+009183FM-12+163899999V0203301N004119999999N9999999N1+00341-00011999999ADDMA1999999083471MD1719999+9999ME1314929OA149901491REMSYN088AAXX  13044 06783 33/// /3308 10034 21001 38347 48492 57/// 333 55300 20000 91129 91216;
0112067830999992011011305004+46467+009183FM-12+163899999V0203201N007719999999N9999999N1+00411+00011999999ADDMA1999999083461ME1314919REMSYN076AAXX  13054 06783 33/// /3215 10041 20001 38346 48491 5//// 333 553// 20000;
0258067830999992011011306004+46467+009183FM-12+163899999V0203301N006219999999N9999999N1+00491+00031999999ADDAA112000091AL11200091GJ101689IA2999-00409KA1999N-00201MA1999999083461MD1710051+9999ME1314919OA149901541REMSYN124AAXX  13064 06783 03/// /3312 10049 20003 38346 48491 57005 69922 333 21020 3/104 55028 55300 20000 60005 70002 91130 91217;EQDQ01  00002PRCP12
0096067830999992011011307004+46467+009183FM-12+163899999V0203001N001519999999N9999999N1+00331+00101999999ADDMA1999999083481ME1314939REMSYN060AAXX  13074 06783 43/// /3003 10033 20010 38348 48493 5////;
0096067830999992011011308004+46467+009183FM-12+163899999V0203101N002119999999N9999999N1+00421+00071999999ADDMA1999999083521ME1314979REMSYN060AAXX  13084 06783 43/// /3104 10042 20007 38352 48497 5////;
0096067830999992011011309004+46467+009183FM-12+163899999V0203201N003619999999N9999999N1+00631+00011999999ADDMA1999999083561ME1315009REMSYN060AAXX  13094 06783 43/// /3207 10063 20001 38356 48500 5////;
0096067830999992011011310004+46467+009183FM-12+163899999V0203201N004119999999N9999999N1+00621-00051999999ADDMA1999999083581ME1315029REMSYN060AAXX  13104 06783 43/// /3208 10062 21005 38358 48502 5////;
0096067830999992011011311004+46467+009183FM-12+163899999V0203201N004619999999N9999999N1+00661-00021999999ADDMA1999999083591ME1315029REMSYN060AAXX  13114 06783 43/// /3209 10066 21002 38359 48502 5////;
0096067830999992011011312004+46467+009183FM-12+163899999V0203201N003619999999N9999999N1+00681+00021999999ADDMA1999999083541ME1314979REMSYN060AAXX  13124 06783 43/// /3207 10068 20002 38354 48497 5////;
0096067830999992011011313004+46467+009183FM-12+163899999V0203301N003619999999N9999999N1+00761-00101999999ADDMA1999999083501ME1314939REMSYN060AAXX  13134 06783 43/// /3307 10076 21010 38350 48493 5////;
0096067830999992011011314004+46467+009183FM-12+163899999V0203201N004119999999N9999999N1+00571-00101999999ADDMA1999999083511ME1314959REMSYN060AAXX  13144 06783 43/// /3208 10057 21010 38351 48495 5////;
0096067830999992011011315004+46467+009183FM-12+163899999V0203301N004619999999N9999999N1+00531-00091999999ADDMA1999999083521ME1314969REMSYN060AAXX  13154 06783 43/// /3309 10053 21009 38352 48496 5////;
0096067830999992011011316004+46467+009183FM-12+163899999V0203201N004619999999N9999999N1+00601-00221999999ADDMA1999999083571ME1315019REMSYN060AAXX  13164 06783 43/// /3209 10060 21022 38357 48501 5////;
0149067830999992011011317004+46467+009183FM-12+163899999V0203101N005719999999N9999999N1+00461-00111999999ADDMA1999999083631MD1210121+9999ME1315079OA149901241REMSYN088AAXX  13174 06783 33/// /3111 10046 21011 38363 48507 52012 333 553// 20000 91124 91211;
0168067830999992011011318004+46467+009183FM-12+163899999V0203201N005119999999N9999999N1+00471-00121999999ADDKA1120M+00791MA1999999083651MD1210131+9999ME1315099OA149901441REMSYN094AAXX  13184 06783 33/// /3210 10047 21012 38365 48509 52013 333 10079 55300 20000 91128 91213;
0149067830999992011011319004+46467+009183FM-12+163899999V0203201N004619999999N9999999N1+00451-00121999999ADDMA1999999083681MD1210111+9999ME1315129OA149901181REMSYN088AAXX  13194 06783 33/// /3209 10045 21012 38368 48512 52011 333 55300 20000 91123 91213;
0149067830999992011011320004+46467+009183FM-12+163899999V0203101N002119999999N9999999N1+00381-00061999999ADDMA1999999083691MD1210061+9999ME1315149OA149900981REMSYN088AAXX  13204 06783 33/// /3104 10038 21006 38369 48514 52006 333 55300 20000 91119 91210;
0149067830999992011011321004+46467+009183FM-12+163899999V0202901N002619999999N9999999N1+00491-00081999999ADDMA1999999083711MD1210061+9999ME1315159OA149901241REMSYN088AAXX  13214 06783 33/// /2905 10049 21008 38371 48515 52006 333 55300 20000 91124 91213;
0149067830999992011011322004+46467+009183FM-12+163899999V0203201N004119999999N9999999N1+00491-00031999999ADDMA1999999083711MD1210031+9999ME1315159OA149901031REMSYN088AAXX  13224 06783 33/// /3208 10049 21003 38371 48515 52003 333 55300 20000 91120 91208;
0149067830999992011011323004+46467+009183FM-12+163899999V0203301N005119999999N9999999N1+00501-00041999999ADDMA1999999083701MD1410001+9999ME1315149OA149901241REMSYN088AAXX  13234 06783 33/// /3310 10050 21004 38370 48514 54001 333 55300 20000 91124 91210;
0149067830999992011011400004+46467+009183FM-12+163899999V0203101N003119999999N9999999N1+00481-00061999999ADDMA1999999083671MD1710041+9999ME1315119OA149901241REMSYN088AAXX  14004 06783 33/// /3106 10048 21006 38367 48511 57004 333 55300 20000 91124 91213;
0149067830999992011011401004+46467+009183FM-12+163899999V0203101N003619999999N9999999N1+00481-00061999999ADDMA1999999083671MD1610041+9999ME1315119OA149901131REMSYN088AAXX  14014 06783 33/// /3107 10048 21006 38367 48511 56004 333 55300 20000 91122 91208;
0112067830999992011011402004+46467+009183FM-12+163899999V0203101N005719999999N9999999N1+00501-00051999999ADDMA1999999083711ME1315159REMSYN076AAXX  14024 06783 33/// /3111 10050 21005 38371 48515 5//// 333 553// 20000;
0149067830999992011011403004+46467+009183FM-12+163899999V0203201N004119999999N9999999N1+00491-00051999999ADDMA1999999083721MD1210051+9999ME1315169OA149901391REMSYN088AAXX  14034 06783 33/// /3208 10049 21005 38372 48516 52005 333 55300 20000 91127 91213;
0149067830999992011011404004+46467+009183FM-12+163899999V0203201N004119999999N9999999N1+00431-00041999999ADDMA1999999083711MD1010041+9999ME1315159OA149901391REMSYN088AAXX  14044 06783 33/// /3208 10043 21004 38371 48515 50004 333 55300 20000 91127 91213;
0149067830999992011011405004+46467+009183FM-12+163899999V0203101N003119999999N9999999N1+00481-00041999999ADDMA1999999083721MD1010011+9999ME1315169OA149901241REMSYN088AAXX  14054 06783 33/// /3106 10048 21004 38372 48516 50001 333 55300 20000 91124 91211;
0216067830999992011011406004+46467+009183FM-12+163899999V0203201N004619999999N9999999N1+00491-00051999999ADDAL19900091GJ101989IA2999+00309KA1999N+00381MA1999999083761MD1310041+9999ME1315209OA149901391REMSYN112AAXX  14064 06783 33/// /3209 10049 21005 38376 48520 53004 333 20038 3/003 55033 55300 20000 70000 91127 91213;
0149067830999992011011407004+46467+009183FM-12+163899999V0203201N004119999999N9999999N1+00521-00051999999ADDMA1999999083751MD1210041+9999ME1315199OA149901081REMSYN088AAXX  14074 06783 33/// /3208 10052 21005 38375 48519 52004 333 55300 20000 91121 91212;
0096067830999992011011408004+46467+009183FM-12+163899999V0203201N004619999999N9999999N1+00581-00091999999ADDMA1999999083771ME1315209REMSYN060AAXX  14084 06783 43/// /3209 10058 21009 38377 48520 5////;
0096067830999992011011409004+46467+009183FM-12+163899999V0203301N004619999999N9999999N1+00731-00091999999ADDMA1999999083771ME1315209REMSYN060AAXX  14094 06783 43/// /3309 10073 21009 38377 48520 5////;
0096067830999992011011410004+46467+009183FM-12+163899999V0203301N002119999999N9999999N1+00791-00141999999ADDMA1999999083791ME1315229REMSYN060AAXX  14104 06783 43/// /3304 10079 21014 38379 48522 5////;
0149067830999992011011411004+46467+009183FM-12+163899999V0203401N002619999999N9999999N1+00881-00261999999ADDMA1999999083781MD1210011+9999ME1315209OA149901031REMSYN088AAXX  14114 06783 33/// /3405 10088 21026 38378 48520 52001 333 55308 2//// 91120 91207;
0149067830999992011011412004+46467+009183FM-12+163899999V0203401N001519999999N9999999N1+00851-00371999999ADDMA1999999083751MD1710021+9999ME1315179OA149901391REMSYN088AAXX  14124 06783 33/// /3403 10085 21037 38375 48517 57002 333 55307 2//// 91127 91213;
0149067830999992011011413004+46467+009183FM-12+163899999V0203501N001019999999N9999999N1+00771-00271999999ADDMA1999999083721MD1810071+9999ME1315159OA149900461REMSYN088AAXX  14134 06783 33/// /3502 10077 21027 38372 48515 58007 333 55308 2//// 91109 91205;
0112067830999992011011414004+46467+009183FM-12+163899999V0203101N001019999999N9999999N1+00561-00251999999ADDMA1999999083701ME1315149REMSYN076AAXX  14144 06783 33/// /3102 10056 21025 38370 48514 5//// 333 553// 20659;
0149067830999992011011415004+46467+009183FM-12+163899999V0203101N000519999999N9999999N1+00351-00261999999ADDMA1999999083721MD1510031+9999ME1315179OA149901031REMSYN088AAXX  14154 06783 33/// /3101 10035 21026 38372 48517 55003 333 55300 20256 91120 91207;
0149067830999992011011416004+46467+009183FM-12+163899999V0209999C000019999999N9999999N1+00211-00351999999ADDMA1999999083701MD1710021+9999ME1315159OA149900261REMSYN088AAXX  14164 06783 33/// /0000 10021 21035 38370 48515 57002 333 55300 20094 91105 91202;
0149067830999992011011417004+46467+009183FM-12+163899999V0203501N000519999999N9999999N1+00101-00311999999ADDMA1999999083711MD1010011+9999ME1315179OA149900151REMSYN088AAXX  14174 06783 33/// /3501 10010 21031 38371 48517 50001 333 55300 20000 91103 91201;
0168067830999992011011418004+46467+009183FM-12+163899999V0209999C000019999999N9999999N1+00041-00361999999ADDKA1120M+00881MA1999999083731MD1210011+9999ME1315199OA149901081REMSYN094AAXX  14184 06783 33/// /0000 10004 21036 38373 48519 52001 333 10088 55300 20000 91121 91212;
0149067830999992011011419004+46467+009183FM-12+163899999V0209999C000019999999N9999999N1+00001-00351999999ADDMA1999999083701MD1010001+9999ME1315169OA149900101REMSYN088AAXX  14194 06783 33/// /0000 10000 21035 38370 48516 50000 333 55300 20000 91102 91201;
0149067830999992011011420004+46467+009183FM-12+163899999V0209999C000019999999N9999999N1-00041-00311999999ADDMA1999999083681MD1710031+9999ME1315159OA149900101REMSYN088AAXX  14204 06783 33/// /0000 11004 21031 38368 48515 57003 333 55300 20000 91102 91201;
0149067830999992011011421004+46467+009183FM-12+163899999V0209999C000019999999N9999999N1-00011-00321999999ADDMA1999999083621MD1810111+9999ME1315099OA149900151REMSYN088AAXX  14214 06783 33/// /0000 11001 21032 38362 48509 58011 333 55300 20000 91103 91201;
0149067830999992011011422004+46467+009183FM-12+163899999V0202801N000519999999N9999999N1+00031-00291999999ADDMA1999999083621MD1710081+9999ME1315099OA149900101REMSYN088AAXX  14224 06783 33/// /2801 10003 21029 38362 48509 57008 333 55300 20000 91102 91201;
0149067830999992011011423004+46467+009183FM-12+163899999V0209999C000019999999N9999999N1-00081-00311999999ADDMA1999999083591MD1710091+9999ME1315069OA149900101REMSYN088AAXX  14234 06783 33/// /0000 11008 21031 38359 48506 57009 333 55300 20000 91102 91201;
0149067830999992011011500004+46467+009183FM-12+163899999V0200501N000519999999N9999999N1-00151-00371999999ADDMA1999999083501MD1710121+9999ME1314989OA149900311REMSYN088AAXX  15004 06783 33/// /0501 11015 21037 38350 48498 57012 333 55300 20000 91106 91204;
0149067830999992011011501004+46467+009183FM-12+163899999V0202701N001019999999N9999999N1-00081-00421999999ADDMA1999999083531MD1710091+9999ME1315009OA149900411REMSYN088AAXX  15014 06783 33/// /2702 11008 21042 38353 48500 57009 333 55300 20000 91108 91202;
0149067830999992011011502004+46467+009183FM-12+163899999V0203001N004119999999N9999999N1+00291-00451999999ADDMA1999999083641MD1319999+9999ME1315099OA149901441REMSYN088AAXX  15024 06783 33/// /3008 10029 21045 38364 48509 53/// 333 55300 20000 91128 91213;
0112067830999992011011503004+46467+009183FM-12+163899999V0203301N005119999999N9999999N1+00241-00511999999ADDMA1999999083711ME1315169REMSYN076AAXX  15034 06783 33/// /3310 10024 21051 38371 48516 5//// 333 553// 20000;
0149067830999992011011504004+46467+009183FM-12+163899999V0203201N005119999999N9999999N1+00161-00401999999ADDMA1999999083771MD1110241+9999ME1315229OA149901391REMSYN088AAXX  15044 06783 33/// /3210 10016 21040 38377 48522 51024 333 55300 20000 91127 91215;
0149067830999992011011505004+46467+009183FM-12+163899999V0203001N004119999999N9999999N1+00181-00371999999ADDMA1999999083801MD1110161+9999ME1315259OA149901081REMSYN088AAXX  15054 06783 33/// /3008 10018 21037 38380 48525 51016 333 55300 20000 91121 91212;
0216067830999992011011506004+46467+009183FM-12+163899999V0203201N003119999999N9999999N1+00321-00651999999ADDAL19900091GJ102469IA2999-00309KA1999N-00151MA1999999083881MD1310171+9999ME1315329OA149901441REMSYN112AAXX  15064 06783 33/// /3206 10032 21065 38388 48532 53017 333 21015 3/103 55041 55300 20000 70000 91128 91215;
0149067830999992011011507004+46467+009183FM-12+163899999V0203401N004619999999N9999999N1+00271-00821999999ADDMA1999999083941MD1310171+9999ME1315389OA149901601REMSYN088AAXX  15074 06783 33/// /3409 10027 21082 38394 48538 53017 333 55300 20000 91131 91211;
0149067830999992011011508004+46467+009183FM-12+163899999V0203201N006219999999N9999999N1+00061-00431999999ADDMA1999999084021MD1219999+9999ME1315479OA149901601REMSYN088AAXX  15084 06783 33/// /3212 10006 21043 38402 48547 52/// 333 55300 20032 91131 91212;
0149067830999992011011509004+46467+009183FM-12+163899999V0203201N006219999999N9999999N1+00331-00751999999ADDMA1999999084061MD1210181+9999ME1315509OA149901601REMSYN088AAXX  15094 06783 33/// /3212 10033 21075 38406 48550 52018 333 55306 20634 91131 91216;
0149067830999992011011510004+46467+009183FM-12+163899999V0203301N008219999999N9999999N1+00251-00511999999ADDMA1999999084111MD1210171+9999ME1315559OA149901601REMSYN088AAXX  15104 06783 33/// /3316 10025 21051 38411 48555 52017 333 55308 2//// 91131 91217;
0149067830999992011011511004+46467+009183FM-12+163899999V0203101N007219999999N9999999N1+00371-00661999999ADDMA1999999084071MD1010051+9999ME1315519OA149901601REMSYN088AAXX  15114 06783 33/// /3114 10037 21066 38407 48551 50005 333 55308 2//// 91131 91217;
0149067830999992011011512004+46467+009183FM-12+163899999V0203201N007219999999N9999999N1+00361-00621999999ADDMA1999999084031MD1810031+9999ME1315479OA149901601REMSYN088AAXX  15124 06783 33/// /3214 10036 21062 38403 48547 58003 333 55308 2//// 91131 91217;
0112067830999992011011513004+46467+009183FM-12+163899999V0203301N005119999999N9999999N1+00421-00821999999ADDMA1999999084061ME1315499REMSYN076AAXX  15134 06783 33/// /3310 10042 21082 38406 48549 5//// 333 553// 2////;
0096067830999992011011514004+46467+009183FM-12+163899999V0203201N004619999999N9999999N1+00321-00801999999ADDMA1999999084081ME1315529REMSYN060AAXX  15144 06783 43/// /3209 10032 21080 38408 48552 5////;
0096067830999992011011515004+46467+009183FM-12+163899999V0203201N005719999999N9999999N1+00301-00691999999ADDMA1999999084161ME1315599REMSYN060AAXX  15154 06783 43/// /3211 10030 21069 38416 48559 5////;
0096067830999992011011516004+46467+009183FM-12+163899999V0203301N004619999999N9999999N1+00271-00711999999ADDMA1999999084201ME1315639REMSYN060AAXX  15164 06783 43/// /3309 10027 21071 38420 48563 5////;
0112067830999992011011517004+46467+009183FM-12+163899999V0203101N002119999999N9999999N1+00301-00881999999ADDMA1999999084251ME1315689REMSYN076AAXX  15174 06783 33/// /3104 10030 21088 38425 48568 5//// 333 553// 20000;
0119067830999992011011518004+46467+009183FM-12+163899999V0203201N002619999999N9999999N1+00331-01011999999ADDKA1999M+00441MA1999999084291ME1315729REMSYN070AAXX  15184 06783 43/// /3205 10033 21101 38429 48572 5//// 333 10044;
0096067830999992011011519004+46467+009183FM-12+163899999V0203301N006219999999N9999999N1+00361-01061999999ADDMA1999999084301ME1315739REMSYN060AAXX  15194 06783 43/// /3312 10036 21106 38430 48573 5////;
0096067830999992011011520004+46467+009183FM-12+163899999V0203101N003619999999N9999999N1+00461-01271999999ADDMA1999999084341ME1315769REMSYN060AAXX  15204 06783 43/// /3107 10046 21127 38434 48576 5////;
0149067830999992011011521004+46467+009183FM-12+163899999V0203001N003119999999N9999999N1+00541-01491999999ADDMA1999999084361MD1110071+9999ME1315789OA149901241REMSYN088AAXX  15214 06783 33/// /3006 10054 21149 38436 48578 51007 333 55300 20000 91124 91212;
0149067830999992011011522004+46467+009183FM-12+163899999V0203201N004119999999N9999999N1+00561-01381999999ADDMA1999999084381MD1310081+9999ME1315809OA149901031REMSYN088AAXX  15224 06783 33/// /3208 10056 21138 38438 48580 53008 333 55300 20000 91120 91208;
0149067830999992011011523004+46467+009183FM-12+163899999V0203401N002619999999N9999999N1+00421-01191999999ADDMA1999999084391MD1110051+9999ME1315819OA149901031REMSYN088AAXX  15234 06783 33/// /3405 10042 21119 38439 48581 51005 333 55300 20000 91120 91208;
0149067830999992011011600004+46467+009183FM-12+163899999V0202901N000519999999N9999999N1+00061-00591999999ADDMA1999999084381MD1210021+9999ME1315819OA149901491REMSYN088AAXX  16004 06783 33/// /2901 10006 21059 38438 48581 52002 333 55300 20000 91129 91212;
0149067830999992011011601004+46467+009183FM-12+163899999V0203101N003619999999N9999999N1+00531-00811999999ADDMA1999999084371MD1710011+9999ME1315799OA149900671REMSYN088AAXX  16014 06783 33/// /3107 10053 21081 38437 48579 57001 333 55300 20000 91113 91207;
0149067830999992011011602004+46467+009183FM-12+163899999V0203101N003619999999N9999999N1+00671-00921999999ADDMA1999999084361MD1719999+9999ME1315789OA149900771REMSYN088AAXX  16024 06783 33/// /3107 10067 21092 38436 48578 57/// 333 55300 20000 91115 91209;
0096067830999992011011603004+46467+009183FM-12+163899999V0203401N001519999999N9999999N1+00211-00401999999ADDMA1999999084361ME1315799REMSYN060AAXX  16034 06783 43/// /3403 10021 21040 38436 48579 5////;
0149067830999992011011604004+46467+009183FM-12+163899999V0202601N000519999999N9999999N1+00081-00351999999ADDMA1999999084371MD1510001+9999ME1315809OA149900771REMSYN088AAXX  16044 06783 33/// /2601 10008 21035 38437 48580 55000 333 55300 20000 91115 91207;
0149067830999992011011605004+46467+009183FM-12+163899999V0209999C000019999999N9999999N1-00101-00491999999ADDMA1999999084431MD1210071+9999ME1315869OA149900461REMSYN088AAXX  16054 06783 33/// /0000 11010 21049 38443 48586 52007 333 55300 20000 91109 91202;
0216067830999992011011606004+46467+009183FM-12+163899999V0209999C000019999999N9999999N1-00121-00571999999ADDAL19900091GJ103069IA2999-00609KA1999N-00101MA1999999084471MD1210111+9999ME1315909OA149901241REMSYN112AAXX  16064 06783 33/// /0000 11012 21057 38447 48590 52011 333 21010 3/106 55051 55300 20000 70000 91124 91212;
0149067830999992011011607004+46467+009183FM-12+163899999V0202901N000519999999N9999999N1-00121-00511999999ADDMA1999999084471MD1210101+9999ME1315909OA149900101REMSYN088AAXX  16074 06783 33/// /2901 11012 21051 38447 48590 52010 333 55300 20000 91102 91201;
0149067830999992011011608004+46467+009183FM-12+163899999V0209999C000019999999N9999999N1-00141-00441999999ADDMA1999999084491MD1219999+9999ME1315929OA149900101REMSYN088AAXX  16084 06783 33/// /0000 11014 21044 38449 48592 52/// 333 55300 20036 91102 91201;
0149067830999992011011609004+46467+009183FM-12+163899999V0200101N000519999999N9999999N1+00161-00371999999ADDMA1999999084501MD1310031+9999ME1315929OA149900461REMSYN088AAXX  16094 06783 33/// /0101 10016 21037 38450 48592 53003 333 55306 20634 91109 91202;
0149067830999992011011610004+46467+009183FM-12+163899999V0200101N000519999999N9999999N1+00751-00311999999ADDMA1999999084521MD1210051+9999ME1315939OA149900211REMSYN088AAXX  16104 06783 33/// /0101 10075 21031 38452 48593 52005 333 55308 2//// 91104 91202;
0149067830999992011011611004+46467+009183FM-12+163899999V0209999C000019999999N9999999N1+00891-00401999999ADDMA1999999084531MD1210041+9999ME1315949OA149900211REMSYN088AAXX  16114 06783 33/// /0000 10089 21040 38453 48594 52004 333 55308 2//// 91104 91202;
0168067830999992011011612004+46467+009183FM-12+163899999V0201401N001519999999N9999999N1+00891-00431999999ADDMA1999999084501MD1410001+9999ME1315919OA149900771REMSYN088AAXX  16124 06783 33/// /1403 10089 21043 38450 48591 58000 333 55308 2//// 91115 91209;EQDQ01+000082APCTEN
0149067830999992011011613004+46467+009183FM-12+163899999V0201501N001019999999N9999999N1+00681-00231999999ADDMA1999999084481MD1710041+9999ME1315909OA149900261REMSYN088AAXX  16134 06783 33/// /1502 10068 21023 38448 48590 57004 333 55308 2//// 91105 91203;
0149067830999992011011614004+46467+009183FM-12+163899999V0202301N001519999999N9999999N1+00441-00261999999ADDMA1999999084491MD1719999+9999ME1315919OA149900261REMSYN088AAXX  16144 06783 33/// /2303 10044 21026 38449 48591 57/// 333 55307 20918 91105 91203;
0149067830999992011011615004+46467+009183FM-12+163899999V0202901N000519999999N9999999N1+00341-00381999999ADDMA1999999084481MD1710021+9999ME1315909OA149900261REMSYN088AAXX  16154 06783 33/// /2901 10034 21038 38448 48590 57002 333 55300 20119 91105 91203;
0149067830999992011011616004+46467+009183FM-12+163899999V0209999C000019999999N9999999N1+00151-00411999999ADDMA1999999084501MD1210021+9999ME1315929OA149900101REMSYN088AAXX  16164 06783 33/// /0000 10015 21041 38450 48592 52002 333 55300 20050 91102 91201;
0149067830999992011011617004+46467+009183FM-12+163899999V0209999C000019999999N9999999N1-00041-00421999999ADDMA1999999084521MD1210031+9999ME1315959OA149900101REMSYN088AAXX  16174 06783 33/// /0000 11004 21042 38452 48595 52003 333 55300 20000 91102 91201;
0168067830999992011011618004+46467+009183FM-12+163899999V0209999C000019999999N9999999N1-00101-00471999999ADDKA1120M+00961MA1999999084541MD1310061+9999ME1315979OA149900261REMSYN094AAXX  16184 06783 33/// /0000 11010 21047 38454 48597 53006 333 10096 55300 20000 91105 91203;
0149067830999992011011619004+46467+009183FM-12+163899999V0209999C000019999999N9999999N1-00141-00471999999ADDMA1999999084571MD1310071+9999ME1316009OA149900051REMSYN088AAXX  16194 06783 33/// /0000 11014 21047 38457 48600 53007 333 55300 20000 91101 91201;
0149067830999992011011620004+46467+009183FM-12+163899999V0203301N000519999999N9999999N1-00171-00521999999ADDMA1999999084571MD1110051+9999ME1316009OA149900051REMSYN088AAXX  16204 06783 33/// /3301 11017 21052 38457 48600 51005 333 55300 20000 91101 91201;
0149067830999992011011621004+46467+009183FM-12+163899999V0209999C000019999999N9999999N1-00191-00601999999ADDMA1999999084541MD1010001+9999ME1315979OA149900101REMSYN088AAXX  16214 06783 33/// /0000 11019 21060 38454 48597 50000 333 55300 20000 91102 91201;
0149067830999992011011622004+46467+009183FM-12+163899999V0203101N000519999999N9999999N1-00201-00621999999ADDMA1999999084541MD1710031+9999ME1315979OA149900051REMSYN088AAXX  16224 06783 33/// /3101 11020 21062 38454 48597 57003 333 55300 20000 91101 91201;
0149067830999992011011623004+46467+009183FM-12+163899999V0209999C000019999999N9999999N1-00161-00651999999ADDMA1999999084521MD1710051+9999ME1315959OA149900051REMSYN088AAXX  16234 06783 33/// /0000 11016 21065 38452 48595 57005 333 55300 20000 91101 91201;
0149067830999992011011700004+46467+009183FM-12+163899999V0209999C000019999999N9999999N1-00211-00621999999ADDMA1999999084481MD1810061+9999ME1315919OA149900261REMSYN088AAXX  17004 06783 33/// /0000 11021 21062 38448 48591 58006 333 55300 20000 91105 91203;
0149067830999992011011701004+46467+009183FM-12+163899999V0209999C000019999999N9999999N1-00251-00641999999ADDMA1999999084461MD1610081+9999ME1315899OA149900101REMSYN088AAXX  17014 06783 33/// /0000 11025 21064 38446 48589 56008 333 55300 20000 91102 91201;
0149067830999992011011702004+46467+009183FM-12+163899999V0209999C000019999999N9999999N1-00261-00711999999ADDMA1999999084421MD1819999+9999ME1315869OA149900101REMSYN088AAXX  17024 06783 33/// /0000 11026 21071 38442 48586 58/// 333 55300 20000 91102 91201;
0112067830999992011011703004+46467+009183FM-12+163899999V0209999C000019999999N9999999N1-00251-00771999999ADDMA1999999084411ME1315859REMSYN076AAXX  17034 06783 33/// /0000 11025 21077 38441 48585 5//// 333 553// 20000;
0149067830999992011011704004+46467+009183FM-12+163899999V0209999C000019999999N9999999N1-00231-00841999999ADDMA1999999084371MD1710091+9999ME1315819OA149900051REMSYN088AAXX  17044 06783 33/// /0000 11023 21084 38437 48581 57009 333 55300 20000 91101 91201;
0149067830999992011011705004+46467+009183FM-12+163899999V0203001N000519999999N9999999N1-00271-00911999999ADDMA1999999084321MD1710101+9999ME1315769OA149900051REMSYN088AAXX  17054 06783 33/// /3001 11027 21091 38432 48576 57010 333 55300 20000 91101 91201;
0216067830999992011011706004+46467+009183FM-12+163899999V0203101N000519999999N9999999N1-00271-00871999999ADDAL19900091GJ103249IA2999-00909KA1999N-00301MA1999999084311MD1710101+9999ME1315759OA149900101REMSYN112AAXX  17064 06783 33/// /3101 11027 21087 38431 48575 57010 333 21030 3/109 55054 55300 20000 70000 91102 91201;
0149067830999992011011707004+46467+009183FM-12+163899999V0209999C000019999999N9999999N1-00291-00931999999ADDMA1999999084311MD1710061+9999ME1315759OA149900101REMSYN088AAXX  17074 06783 33/// /0000 11029 21093 38431 48575 57006 333 55300 20000 91102 91201;
0096067830999992011011708004+46467+009183FM-12+163899999V0209999C000019999999N9999999N1-00261-00951999999ADDMA1999999084301ME1315749REMSYN060AAXX  17084 06783 43/// /0000 11026 21095 38430 48574 5////;
0096067830999992011011709004+46467+009183FM-12+163899999V0209999C000019999999N9999999N1-00171-00831999999ADDMA1999999084311ME1315759REMSYN060AAXX  17094 06783 43/// /0000 11017 21083 38431 48575 5////;
0149067830999992011011710004+46467+009183FM-12+163899999V0200701N000519999999N9999999N1+00351-00791999999ADDMA1999999084321MD1310011+9999ME1315759OA149900151REMSYN088AAXX  17104 06783 33/// /0701 10035 21079 38432 48575 53001 333 55308 2//// 91103 91201;
0149067830999992011011711004+46467+009183FM-12+163899999V0203601N001519999999N9999999N1+00611-00951999999ADDMA1999999084291MD1810011+9999ME1315719OA149900361REMSYN088AAXX  17114 06783 33/// /3603 10061 21095 38429 48571 58001 333 55308 2//// 91107 91204;
0149067830999992011011712004+46467+009183FM-12+163899999V0203501N001519999999N9999999N1+00681-00951999999ADDMA1999999084221MD1710091+9999ME1315649OA149900361REMSYN088AAXX  17124 06783 33/// /3503 10068 21095 38422 48564 57009 333 55308 2//// 91107 91204;
0149067830999992011011713004+46467+009183FM-12+163899999V0203301N001519999999N9999999N1+00631-00901999999ADDMA1999999084171MD1810151+9999ME1315599OA149900311REMSYN088AAXX  17134 06783 33/// /3303 10063 21090 38417 48559 58015 333 55308 2//// 91106 91203;
0096067830999992011011714004+46467+009183FM-12+163899999V0202501N001519999999N9999999N1+00201-00481999999ADDMA1999999084171ME1315619REMSYN060AAXX  17144 06783 43/// /2503 10020 21048 38417 48561 5////;
0096067830999992011011715004+46467+009183FM-12+163899999V0203001N000519999999N9999999N1+00131-00821999999ADDMA1999999084191ME1315639REMSYN060AAXX  17154 06783 43/// /3001 10013 21082 38419 48563 5////;
0149067830999992011011716004+46467+009183FM-12+163899999V0203101N000519999999N9999999N1-00041-00821999999ADDMA1999999084161MD1810011+9999ME1315619OA149900211REMSYN088AAXX  17164 06783 33/// /3101 11004 21082 38416 48561 58001 333 55300 20050 91104 91203;
0149067830999992011011717004+46467+009183FM-12+163899999V0209999C000019999999N9999999N1-00191-00761999999ADDMA1999999084161MD1710011+9999ME1315619OA149900101REMSYN088AAXX  17174 06783 33/// /0000 11019 21076 38416 48561 57001 333 55300 20000 91102 91201;
0168067830999992011011718004+46467+009183FM-12+163899999V0203301N005119999999N9999999N1+00271-01001999999ADDKA1120M+00721MA1999999084161MD1710031+9999ME1315609OA149900881REMSYN094AAXX  17184 06783 33/// /3310 10027 21100 38416 48560 57003 333 10072 55300 20000 91117 91210;
0149067830999992011011719004+46467+009183FM-12+163899999V0203201N004119999999N9999999N1+00421-01041999999ADDMA1999999084151MD1710011+9999ME1315589OA149900931REMSYN088AAXX  17194 06783 33/// /3208 10042 21104 38415 48558 57001 333 55300 20000 91118 91210;
0149067830999992011011720004+46467+009183FM-12+163899999V0203201N005719999999N9999999N1+00341-01021999999ADDMA1999999084161MD1410001+9999ME1315599OA149901181REMSYN088AAXX  17204 06783 33/// /3211 10034 21102 38416 48559 54000 333 55300 20000 91123 91211;
0149067830999992011011721004+46467+009183FM-12+163899999V0203301N004619999999N9999999N1+00331-00991999999ADDMA1999999084151MD1710011+9999ME1315589OA149901181REMSYN088AAXX  17214 06783 33/// /3309 10033 21099 38415 48558 57001 333 55300 20000 91123 91211;
0149067830999992011011722004+46467+009183FM-12+163899999V0203301N007719999999N9999999N1+00261-00951999999ADDMA1999999084131MD1710021+9999ME1315579OA149901241REMSYN088AAXX  17224 06783 33/// /3315 10026 21095 38413 48557 57002 333 55300 20000 91124 91216;
0149067830999992011011723004+46467+009183FM-12+163899999V0203201N006219999999N9999999N1+00311-00951999999ADDMA1999999084151MD1510011+9999ME1315589OA149901241REMSYN088AAXX  17234 06783 33/// /3212 10031 21095 38415 48558 55001 333 55300 20000 91124 91216;
0168067830999992011011800004+46467+009183FM-12+163899999V0203201N006219999999N9999999N1+00241-00941999999ADDMA1999999084151MD1410001+9999ME1315599OA149901341REMSYN088AAXX  18004 06783 33/// /3212 10024 21094 38415 48559 52000 333 55300 20000 91126 91217;EQDQ01+000022APCTEN
0149067830999992011011801004+46467+009183FM-12+163899999V0203201N007219999999N9999999N1+00261-00911999999ADDMA1999999084141MD1019999+9999ME1315589OA149901341REMSYN088AAXX  18014 06783 33/// /3214 10026 21091 38414 48558 50/// 333 55300 20000 91126 91217;
0096067830999992011011802004+46467+009183FM-12+163899999V0203301N006719999999N9999999N1+00231-00901999999ADDMA1999999084121ME1315569REMSYN060AAXX  18024 06783 43/// /3313 10023 21090 38412 48556 5////;
0096067830999992011011803004+46467+009183FM-12+163899999V0203101N005119999999N9999999N1+00251-00921999999ADDMA1999999084101ME1315549REMSYN060AAXX  18034 06783 43/// /3110 10025 21092 38410 48554 5////;
0112067830999992011011804004+46467+009183FM-12+163899999V0203101N005119999999N9999999N1+00201-00941999999ADDMA1999999084091ME1315539REMSYN076AAXX  18044 06783 33/// /3110 10020 21094 38409 48553 5//// 333 553// 20000;
0149067830999992011011805004+46467+009183FM-12+163899999V0203201N006719999999N9999999N1+00171-00891999999ADDMA1999999084041MD1810081+9999ME1315489OA149901131REMSYN088AAXX  18054 06783 33/// /3213 10017 21089 38404 48548 58008 333 55300 20000 91122 91213;
0216067830999992011011806004+46467+009183FM-12+163899999V0203201N005119999999N9999999N1+00191-00881999999ADDAL19900091GJ102949IA2999-00509KA1999N+00161MA1999999084021MD1810081+9999ME1315469OA149901341REMSYN112AAXX  18064 06783 33/// /3210 10019 21088 38402 48546 58008 333 20016 3/105 55049 55300 20000 70000 91126 91217;
0149067830999992011011807004+46467+009183FM-12+163899999V0203301N004119999999N9999999N1+00161-00851999999ADDMA1999999084021MD1710071+9999ME1315469OA149901131REMSYN088AAXX  18074 06783 33/// /3308 10016 21085 38402 48546 57007 333 55300 20000 91122 91214;
