0087067930999992011101309004+46750+009550FM-12+156099999V0203601N004619999999N9999999N1+00471+99999999999ADDMA1999999084981REMSYN060AAXX  13094 06793 43/// /3609 10047 2//// 38498 5//// 90920;
0123067930999992011101310004+46750+009550FM-12+156099999V0209999C004119999999N9999999N1+00531+00531999999ADDMA1999999084991ME1315709OA149900671REMSYN076AAXX  13104 06793 33/// /0008 10053 20053 38499 48570 5//// 333 91113 91209;
0135067930999992011101311004+46750+009550FM-12+156099999V0203601N005119999999N9999999N1+00621+00621999999ADDMA1999999084991ME1315709OA149900671REMSYN088AAXX  13114 06793 33/// /3610 10062 20062 38499 48570 5//// 333 553// 21544 91113 91210;
0124067930999992011101312004+46750+009550FM-12+156099999V0209999C005719999999N9999999N1+00681+00651999999ADDMA1999999085001ME1315719REMSYN088AAXX  13124 06793 23/// /0011 10068 20065 38500 48571 5//// 6///1 333 553// 21375 60005;
0112067930999992011101313004+46750+009550FM-12+156099999V0203501N006219999999N9999999N1+00771+00461999999ADDMA1999999084971ME1315689REMSYN076AAXX  13134 06793 33/// /3512 10077 20046 38497 48568 5//// 333 553// 21627;
0112067930999992011101314004+46750+009550FM-12+156099999V0203401N007219999999N9999999N1+00771+00471999999ADDMA1999999084951ME1315669REMSYN076AAXX  13144 06793 33/// /3414 10077 20047 38495 48566 5//// 333 553// 22045;
0132067930999992011101315004+46750+009550FM-12+156099999V0203401N006219999999N9999999N1+00671+00571999999ADDMA1999999084971MD1719999+9999ME1315689REMSYN082AAXX  13154 06793 33/// /3412 10067 20057 38497 48568 57/// 333 55307 21163 91215;
0149067930999992011101316004+46750+009550FM-12+156099999V0203601N005119999999N9999999N1+00601+00531999999ADDMA1999999084981MD1319999+9999ME1315699OA149900931REMSYN088AAXX  13164 06793 33/// /3610 10060 20053 38498 48569 53/// 333 55300 20238 91118 91213;
0155067930999992011101317004+46750+009550FM-12+156099999V0203601N003119999999N9999999N1+00551+00521999999ADDMA1999999085031MD1219999+9999ME1315739OA149900671REMSYN094AAXX  13174 06793 23/// /3606 10055 20052 38503 48573 52/// 333 55300 20029 69925 91113 91209;
0135067930999992011101318004+46750+009550FM-12+156099999V0209999C004119999999N9999999N1+00501+00501999999ADDAA112999999MA1999999085061ME1315769REMSYN088AAXX  13184 06793 23/// /0008 10050 20050 38506 48576 5//// 6///2 333 553// 20000 69925;
0112067930999992011101319004+46750+009550FM-12+156099999V0200201N002619999999N9999999N1+00501+00501999999ADDMA1999999085071ME1315779REMSYN076AAXX  13194 06793 33/// /0205 10050 20050 38507 48577 5//// 333 553// 20000;
0112067930999992011101320004+46750+009550FM-12+156099999V0200201N002119999999N9999999N1+00401+00401999999ADDMA1999999085091ME1315799REMSYN076AAXX  13204 06793 33/// /0204 10040 20040 38509 48579 5//// 333 553// 20000;
0132067930999992011101321004+46750+009550FM-12+156099999V0200301N001519999999N9999999N1+00371+00371999999ADDMA1999999085111MD1210051+9999ME1315819REMSYN082AAXX  13214 06793 33/// /0303 10037 20037 38511 48581 52005 333 55300 20000 91208;
0149067930999992011101322004+46750+009550FM-12+156099999V0200301N003119999999N9999999N1+00441+00441999999ADDMA1999999085111MD1219999+9999ME1315819OA149900411REMSYN088AAXX  13224 06793 33/// /0306 10044 20044 38511 48581 52/// 333 55300 20000 91108 91206;
0149067930999992011101323004+46750+009550FM-12+156099999V0203501N001519999999N9999999N1+00421+00421999999ADDMA1999999085091MD1019999+9999ME1315799OA149900461REMSYN088AAXX  13234 06793 33/// /3503 10042 20042 38509 48579 50/// 333 55300 20000 91109 91206;
0149067930999992011101400004+46750+009550FM-12+156099999V0201701N001519999999N9999999N1+00291+00291999999ADDMA1999999085051MD1710061+9999ME1315759OA149900571REMSYN088AAXX  14004 06793 33/// /1703 10029 20029 38505 48575 57006 333 55300 20000 91111 91208;
0112067930999992011101401004+46750+009550FM-12+156099999V0201601N002119999999N9999999N1+00211+00211999999ADDMA1999999085011ME1315729REMSYN076AAXX  14014 06793 33/// /1604 10021 20021 38501 48572 5//// 333 553// 20000;
0112067930999992011101402004+46750+009550FM-12+156099999V0201801N002119999999N9999999N1+00201+00201999999ADDMA1999999084931ME1315649REMSYN076AAXX  14024 06793 33/// /1804 10020 20020 38493 48564 5//// 333 553// 20000;
0132067930999992011101403004+46750+009550FM-12+156099999V0201901N001519999999N9999999N1+00241+00241999999ADDMA1999999084911MD1610141+9999ME1315629REMSYN082AAXX  14034 06793 33/// /1903 10024 20024 38491 48562 56014 333 55300 20000 91205;
0149067930999992011101404004+46750+009550FM-12+156099999V0202201N000519999999N9999999N1+00241+00201999999ADDMA1999999084891MD1619999+9999ME1315609OA149900211REMSYN088AAXX  14044 06793 33/// /2201 10024 20020 38489 48560 56/// 333 55300 20000 91104 91203;
0149067930999992011101405004+46750+009550FM-12+156099999V0200201N001519999999N9999999N1+00211+00161999999ADDMA1999999084911MD1510021+9999ME1315629OA149900311REMSYN088AAXX  14054 06793 33/// /0203 10021 20016 38491 48562 55002 333 55300 20000 91106 91203;
0168067930999992011101406004+46750+009550FM-12+156099999V0203601N001019999999N9999999N1+00241+00211999999ADDKA1999N+00171MA1999999084931MD1310021+9999ME1315649OA149900361REMSYN094AAXX  14064 06793 33/// /3602 10024 20021 38493 48564 53002 333 20017 55300 20007 91107 91205;
0149067930999992011101407004+46750+009550FM-12+156099999V0200101N001519999999N9999999N1+00251+00251999999ADDMA1999999084981MD1319999+9999ME1315699OA149900261REMSYN088AAXX  14074 06793 33/// /0103 10025 20025 38498 48569 53/// 333 55300 20076 91105 91203;
0112067930999992011101408004+46750+009550FM-12+156099999V0200301N001019999999N9999999N1+00301+00301999999ADDMA1999999085031ME1315739REMSYN076AAXX  14084 06793 33/// /0302 10030 20030 38503 48573 5//// 333 553// 20252;
0149067930999992011101409004+46750+009550FM-12+156099999V0200501N001519999999N9999999N1+00381+00261999999ADDMA1999999085021MD1219999+9999ME1315729OA149900411REMSYN088AAXX  14094 06793 33/// /0503 10038 20026 38502 48572 52/// 333 55300 20598 91108 91204;
0149067930999992011101410004+46750+009550FM-12+156099999V0209999C002119999999N9999999N1+00551+00111999999ADDMA1999999085001MD1019999+9999ME1315719OA149900571REMSYN088AAXX  14104 06793 33/// /0004 10055 20011 38500 48571 50/// 333 55308 22182 91111 91206;
0149067930999992011101411004+46750+009550FM-12+156099999V0200201N004619999999N9999999N1+00581+00171999999ADDMA1999999085021MD1519999+9999ME1315729OA149900571REMSYN088AAXX  14114 06793 33/// /0209 10058 20017 38502 48572 55/// 333 55307 22387 91111 91208;
0149067930999992011101412004+46750+009550FM-12+156099999V0203501N004119999999N9999999N1+00591+00121999999ADDMA1999999085031MD1219999+9999ME1315739OA149900621REMSYN088AAXX  14124 06793 33/// /3508 10059 20012 38503 48573 52/// 333 55308 22412 91112 91209;
0112067930999992011101413004+46750+009550FM-12+156099999V0200101N004619999999N9999999N1+00611+00171999999ADDMA1999999085001ME1315719REMSYN076AAXX  14134 06793 33/// /0109 10061 20017 38500 48571 5//// 333 553// 22135;
0112067930999992011101414004+46750+009550FM-12+156099999V0203601N003619999999N9999999N1+00671+00191999999ADDMA1999999084951ME1315669REMSYN076AAXX  14144 06793 33/// /3607 10067 20019 38495 48566 5//// 333 553// 21732;
0149067930999992011101415004+46750+009550FM-12+156099999V0200101N004619999999N9999999N1+00411+00241999999ADDMA1999999084991MD1510041+9999ME1315709OA149900721REMSYN088AAXX  14154 06793 33/// /0109 10041 20024 38499 48570 55004 333 55307 20958 91114 91210;
0096067930999992011101416004+46750+009550FM-12+156099999V0200201N003119999999N9999999N1+00331+00261999999ADDMA1999999085021ME1315729REMSYN060AAXX  14164 06793 43/// /0206 10033 20026 38502 48572 5////;
0149067930999992011101417004+46750+009550FM-12+156099999V0203601N002119999999N9999999N1+00251+00221999999ADDMA1999999085041MD1119999+9999ME1315749OA149900571REMSYN088AAXX  14174 06793 33/// /3604 10025 20022 38504 48574 51/// 333 553// 20025 91111 91207;
0168067930999992011101418004+46750+009550FM-12+156099999V0203301N002119999999N9999999N1+00241+00221999999ADDKA1120M+00671MA1999999085081MD1319999+9999ME1315789OA149900771REMSYN094AAXX  14184 06793 33/// /3304 10024 20022 38508 48578 53/// 333 10067 55300 20000 91115 91210;
0112067930999992011101419004+46750+009550FM-12+156099999V0201801N001519999999N9999999N1+00191+00181999999ADDMA1999999085081ME1315789REMSYN076AAXX  14194 06793 33/// /1803 10019 20018 38508 48578 5//// 333 553// 20000;
0149067930999992011101420004+46750+009550FM-12+156099999V0202001N003119999999N9999999N1+00211+00161999999ADDMA1999999085071MD1019999+9999ME1315779OA149900461REMSYN088AAXX  14204 06793 33/// /2006 10021 20016 38507 48577 50/// 333 55300 20000 91109 91206;
0149067930999992011101421004+46750+009550FM-12+156099999V0201901N003619999999N9999999N1+00151+00141999999ADDMA1999999085091MD1319999+9999ME1315799OA149900511REMSYN088AAXX  14214 06793 33/// /1907 10015 20014 38509 48579 53/// 333 55300 20000 91110 91207;
0112067930999992011101422004+46750+009550FM-12+156099999V0201901N003119999999N9999999N1+00031+00031999999ADDMA1999999085081ME1315789REMSYN076AAXX  14224 06793 33/// /1906 10003 20003 38508 48578 5//// 333 553// 20000;
0149067930999992011101423004+46750+009550FM-12+156099999V0201801N003119999999N9999999N1-00021-00031999999ADDMA1999999085051MD1819999+9999ME1315759OA149900461REMSYN088AAXX  14234 06793 33/// /1806 11002 21003 38505 48575 58/// 333 55300 20000 91109 91207;
0112067930999992011101500004+46750+009550FM-12+156099999V0201901N003619999999N9999999N1+00081+00061999999ADDMA1999999085011ME1315729REMSYN076AAXX  15004 06793 33/// /1907 10008 20006 38501 48572 5//// 333 553// 20000;
0112067930999992011101501004+46750+009550FM-12+156099999V0201901N003119999999N9999999N1-00031-00041999999ADDMA1999999085001ME1315719REMSYN076AAXX  15014 06793 33/// /1906 11003 21004 38500 48571 5//// 333 553// 20000;
0112067930999992011101502004+46750+009550FM-12+156099999V0201901N002619999999N9999999N1-00041-00041999999ADDMA1999999084961ME1315679REMSYN076AAXX  15024 06793 33/// /1905 11004 21004 38496 48567 5//// 333 553// 20000;
0112067930999992011101503004+46750+009550FM-12+156099999V0201901N003119999999N9999999N1-00061-00071999999ADDMA1999999084941ME1315659REMSYN076AAXX  15034 06793 33/// /1906 11006 21007 38494 48565 5//// 333 553// 20000;
0149067930999992011101504004+46750+009550FM-12+156099999V0201901N004119999999N9999999N1-00061-00111999999ADDMA1999999084921MD1719999+9999ME1315639OA149900571REMSYN088AAXX  15044 06793 33/// /1908 11006 21011 38492 48563 57/// 333 55300 20000 91111 91208;
0149067930999992011101505004+46750+009550FM-12+156099999V0202001N004119999999N9999999N1+00121-00131999999ADDMA1999999084911MD1719999+9999ME1315629OA149900571REMSYN088AAXX  15054 06793 33/// /2008 10012 21013 38491 48562 57/// 333 55300 20000 91111 91208;
0184067930999992011101506004+46750+009550FM-12+156099999V0201801N003119999999N9999999N1-00101-00211999999ADDAL19900091KA1999N-00111MA1999999084931MD1519999+9999ME1315649OA149900571REMSYN100AAXX  15064 06793 33/// /1806 11010 21021 38493 48564 55/// 333 21011 55300 20007 70000 91111 91208;
0112067930999992011101507004+46750+009550FM-12+156099999V0201901N003119999999N9999999N1+00001-00261999999ADDMA1999999084961ME1315679REMSYN076AAXX  15074 06793 33/// /1906 10000 21026 38496 48567 5//// 333 553// 20076;
0112067930999992011101508004+46750+009550FM-12+156099999V0201701N003619999999N9999999N1+00251-00131999999ADDMA1999999084971ME1315689REMSYN076AAXX  15084 06793 33/// /1707 10025 21013 38497 48568 5//// 333 553// 20612;
0112067930999992011101509004+46750+009550FM-12+156099999V0201601N002119999999N9999999N1+00641-00201999999ADDMA1999999084971ME1315689REMSYN076AAXX  15094 06793 33/// /1604 10064 21020 38497 48568 5//// 333 553// 21631;
0112067930999992011101510004+46750+009550FM-12+156099999V0201301N001519999999N9999999N1+00861-00431999999ADDMA1999999084991ME1315709REMSYN076AAXX  15104 06793 33/// /1303 10086 21043 38499 48570 5//// 333 553// 22052;
0112067930999992011101512004+46750+009550FM-12+156099999V0203401N002119999999N9999999N1+00911-00121999999ADDMA1999999084961ME1315679REMSYN076AAXX  15124 06793 33/// /3404 10091 21012 38496 48567 5//// 333 553// 22308;
0112067930999992011101513004+46750+009550FM-12+156099999V0203501N002619999999N9999999N1+00901-00051999999ADDMA1999999084921ME1315639REMSYN076AAXX  15134 06793 33/// /3505 10090 21005 38492 48563 5//// 333 553// 22120;
0112067930999992011101514004+46750+009550FM-12+156099999V0203301N002119999999N9999999N1+00761-00231999999ADDMA1999999084931ME1315649REMSYN076AAXX  15144 06793 33/// /3304 10076 21023 38493 48564 5//// 333 553// 21742;
0112067930999992011101515004+46750+009550FM-12+156099999V0203201N002119999999N9999999N1+00801-00271999999ADDMA1999999084911ME1315629REMSYN076AAXX  15154 06793 33/// /3204 10080 21027 38491 48562 5//// 333 553// 20958;
0149067930999992011101516004+46750+009550FM-12+156099999V0203401N002119999999N9999999N1+00711-00351999999ADDMA1999999084931MD1219999+9999ME1315649OA149900311REMSYN088AAXX  15164 06793 33/// /3404 10071 21035 38493 48564 52/// 333 55300 20104 91106 91204;
0149067930999992011101517004+46750+009550FM-12+156099999V0201901N001519999999N9999999N1+00661-00291999999ADDMA1999999084951MD1310021+9999ME1315669OA149900261REMSYN088AAXX  15174 06793 33/// /1903 10066 21029 38495 48566 53002 333 55300 20025 91105 91203;
0168067930999992011101518004+46750+009550FM-12+156099999V0201701N002119999999N9999999N1+00431-00191999999ADDKA1120M+00931MA1999999084971MD1210061+9999ME1315689OA149900411REMSYN094AAXX  15184 06793 33/// /1704 10043 21019 38497 48568 52006 333 10093 55300 20000 91108 91206;
0149067930999992011101519004+46750+009550FM-12+156099999V0201801N002619999999N9999999N1+00281-00151999999ADDMA1999999084971MD1210041+9999ME1315689OA149900461REMSYN088AAXX  15194 06793 33/// /1805 10028 21015 38497 48568 52004 333 55300 20000 91109 91206;
0112067930999992011101520004+46750+009550FM-12+156099999V0201901N002619999999N9999999N1+00381-00111999999ADDMA1999999084971ME1315689REMSYN076AAXX  15204 06793 33/// /1905 10038 21011 38497 48568 5//// 333 553// 20000;
0149067930999992011101521004+46750+009550FM-12+156099999V0201901N003119999999N9999999N1+00431-00071999999ADDMA1999999084991MD1219999+9999ME1315709OA149900461REMSYN088AAXX  15214 06793 33/// /1906 10043 21007 38499 48570 52/// 333 55300 20000 91109 91206;
0149067930999992011101522004+46750+009550FM-12+156099999V0201901N003119999999N9999999N1+00311-00231999999ADDMA1999999084971MD1010001+9999ME1315689OA149900461REMSYN088AAXX  15224 06793 33/// /1906 10031 21023 38497 48568 50000 333 55300 20000 91109 91206;
0149067930999992011101523004+46750+009550FM-12+156099999V0201901N003619999999N9999999N1+00311-00181999999ADDMA1999999084941MD1819999+9999ME1315659OA149900511REMSYN088AAXX  15234 06793 33/// /1907 10031 21018 38494 48565 58/// 333 55300 20000 91110 91207;
0112067930999992011101600004+46750+009550FM-12+156099999V0201901N002619999999N9999999N1+00401-00311999999ADDMA1999999084931ME1315649REMSYN076AAXX  16004 06793 33/// /1905 10040 21031 38493 48564 5//// 333 553// 20000;
0149067930999992011101601004+46750+009550FM-12+156099999V0201701N002119999999N9999999N1+00321-00341999999ADDMA1999999084941MD1719999+9999ME1315659OA149900361REMSYN088AAXX  16014 06793 33/// /1704 10032 21034 38494 48565 57/// 333 55300 20000 91107 91205;
0112067930999992011101602004+46750+009550FM-12+156099999V0201901N002619999999N9999999N1+00471-00421999999ADDMA1999999084911ME1315629REMSYN076AAXX  16024 06793 33/// /1905 10047 21042 38491 48562 5//// 333 553// 20000;
0112067930999992011101603004+46750+009550FM-12+156099999V0201801N002619999999N9999999N1+00281-00441999999ADDMA1999999084901ME1315619REMSYN076AAXX  16034 06793 33/// /1805 10028 21044 38490 48561 5//// 333 553// 20000;
0112067930999992011101604004+46750+009550FM-12+156099999V0201901N003119999999N9999999N1+00301-00471999999ADDMA1999999084891ME1315609REMSYN076AAXX  16044 06793 33/// /1906 10030 21047 38489 48560 5//// 333 553// 20000;
0149067930999992011101605004+46750+009550FM-12+156099999V0201901N002619999999N9999999N1+00321-00521999999ADDMA1999999084881MD1610031+9999ME1315599OA149900461REMSYN088AAXX  16054 06793 33/// /1905 10032 21052 38488 48559 56003 333 55300 20000 91109 91206;
0217067930999992011101606004+46750+009550FM-12+156099999V0201901N002619999999N9999999N1+00511-00651999999ADDAL19900091GJ104269KA1999N+00211MA1999999084901MD1410001+9999ME1315619OA149900461REMSYN106AAXX  16064 06793 33/// /1905 10051 21065 38490 48561 52000 333 20021 55071 55300 20007 70000 91109 91206;EQDQ01+000022APCTEN
0149067930999992011101607004+46750+009550FM-12+156099999V0201901N002619999999N9999999N1+00331-00551999999ADDMA1999999084931MD1310041+9999ME1315649OA149900411REMSYN088AAXX  16074 06793 33/// /1905 10033 21055 38493 48564 53004 333 55300 20072 91108 91206;
0149067930999992011101608004+46750+009550FM-12+156099999V0201601N002119999999N9999999N1+00601-00431999999ADDMA1999999084961MD1119999+9999ME1315679OA149900311REMSYN088AAXX  16084 06793 33/// /1604 10060 21043 38496 48567 51/// 333 55303 20594 91106 91205;
0149067930999992011101609004+46750+009550FM-12+156099999V0201401N001519999999N9999999N1+00951-00411999999ADDMA1999999084961MD1219999+9999ME1315679OA149900411REMSYN088AAXX  16094 06793 33/// /1403 10095 21041 38496 48567 52/// 333 55308 21595 91108 91206;
0149067930999992011101610004+46750+009550FM-12+156099999V0203501N002119999999N9999999N1+01011-00301999999ADDMA1999999084971MD1210041+9999ME1315689OA149900311REMSYN088AAXX  16104 06793 33/// /3504 10101 21030 38497 48568 52004 333 55308 21991 91106 91204;
0149067930999992011101613004+46750+009550FM-12+156099999V0200201N004619999999N9999999N1+00951-00421999999ADDMA1999999084901MD1810071+9999ME1315619OA149900571REMSYN088AAXX  16134 06793 33/// /0209 10095 21042 38490 48561 58007 333 55308 22084 91111 91209;
0149067930999992011101614004+46750+009550FM-12+156099999V0209999C003619999999N9999999N1+00911-00271999999ADDMA1999999084891MD1619999+9999ME1315609OA149900621REMSYN088AAXX  16144 06793 33/// /0007 10091 21027 38489 48560 56/// 333 55308 21703 91112 91209;
0149067930999992011101615004+46750+009550FM-12+156099999V0200101N004119999999N9999999N1+00851-00261999999ADDMA1999999084901MD1510031+9999ME1315619OA149900621REMSYN088AAXX  16154 06793 33/// /0108 10085 21026 38490 48561 55003 333 55307 20922 91112 91209;
0149067930999992011101616004+46750+009550FM-12+156099999V0203501N002119999999N9999999N1+00721-00241999999ADDMA1999999084901MD1410001+9999ME1315619OA149900461REMSYN088AAXX  16164 06793 33/// /3504 10072 21024 38490 48561 54000 333 55300 20097 91109 91207;
0149067930999992011101617004+46750+009550FM-12+156099999V0203401N001519999999N9999999N1+00651-00181999999ADDMA1999999084931MD1210041+9999ME1315649OA149900311REMSYN088AAXX  16174 06793 33/// /3403 10065 21018 38493 48564 52004 333 55300 20022 91106 91204;
0168067930999992011101618004+46750+009550FM-12+156099999V0201901N001519999999N9999999N1+00521-00071999999ADDKA1120M+01021MA1999999084961MD1319999+9999ME1315679OA149900621REMSYN094AAXX  16184 06793 33/// /1903 10052 21007 38496 48567 53/// 333 10102 55300 20000 91112 91209;
0149067930999992011101619004+46750+009550FM-12+156099999V0201801N001519999999N9999999N1+00531-00061999999ADDMA1999999084961MD1210061+9999ME1315679OA149900211REMSYN088AAXX  16194 06793 33/// /1803 10053 21006 38496 48567 52006 333 55300 20000 91104 91203;
0149067930999992011101620004+46750+009550FM-12+156099999V0201901N002619999999N9999999N1+00421-00121999999ADDMA1999999084961MD1019999+9999ME1315679OA149900311REMSYN088AAXX  16204 06793 33/// /1905 10042 21012 38496 48567 50/// 333 55300 20000 91106 91205;
0149067930999992011101621004+46750+009550FM-12+156099999V0201901N003119999999N9999999N1+00341-00161999999ADDMA1999999084971MD1519999+9999ME1315689OA149900361REMSYN088AAXX  16214 06793 33/// /1906 10034 21016 38497 48568 55/// 333 55300 20000 91107 91206;
0149067930999992011101622004+46750+009550FM-12+156099999V0201901N003619999999N9999999N1+00271-00131999999ADDMA1999999084971MD1210011+9999ME1315689OA149900511REMSYN088AAXX  16224 06793 33/// /1907 10027 21013 38497 48568 52001 333 55300 20000 91110 91208;
0149067930999992011101623004+46750+009550FM-12+156099999V0201901N003619999999N9999999N1+00411-00161999999ADDMA1999999084941MD1810021+9999ME1315659OA149900461REMSYN088AAXX  16234 06793 33/// /1907 10041 21016 38494 48565 58002 333 55300 20000 91109 91207;
0149067930999992011101700004+46750+009550FM-12+156099999V0201901N002619999999N9999999N1+00301-00231999999ADDMA1999999084931MD1810041+9999ME1315649OA149900511REMSYN088AAXX  17004 06793 33/// /1905 10030 21023 38493 48564 58004 333 55300 20000 91110 91208;
0149067930999992011101701004+46750+009550FM-12+156099999V0201801N002119999999N9999999N1+00271-00241999999ADDMA1999999084901MD1819999+9999ME1315619OA149900411REMSYN088AAXX  17014 06793 33/// /1804 10027 21024 38490 48561 58/// 333 55300 20000 91108 91206;
0149067930999992011101702004+46750+009550FM-12+156099999V0201701N002619999999N9999999N1+00241-00251999999ADDMA1999999084861MD1819999+9999ME1315579OA149900461REMSYN088AAXX  17024 06793 33/// /1705 10024 21025 38486 48557 58/// 333 55300 20000 91109 91205;
0149067930999992011101703004+46750+009550FM-12+156099999V0201901N002619999999N9999999N1+00271-00281999999ADDMA1999999084851MD1619999+9999ME1315569OA149900461REMSYN088AAXX  17034 06793 33/// /1905 10027 21028 38485 48556 56/// 333 55300 20000 91109 91206;
0149067930999992011101704004+46750+009550FM-12+156099999V0201901N002619999999N9999999N1+00361-00331999999ADDMA1999999084841MD1619999+9999ME1315559OA149900361REMSYN088AAXX  17044 06793 33/// /1905 10036 21033 38484 48555 56/// 333 55300 20000 91107 91205;
0149067930999992011101705004+46750+009550FM-12+156099999V0201801N002619999999N9999999N1+00261-00341999999ADDMA1999999084841MD1710021+9999ME1315559OA149900311REMSYN088AAXX  17054 06793 33/// /1805 10026 21034 38484 48555 57002 333 55300 20000 91106 91205;
0198067930999992011101706004+46750+009550FM-12+156099999V0202001N001519999999N9999999N1+00381-00381999999ADDAL19900091GJ104329KA1999N+00191MA1999999084861MD1210011+9999ME1315579OA149900461REMSYN106AAXX  17064 06793 33/// /2003 10038 21038 38486 48557 52001 333 20019 55072 55300 20007 70000 91109 91206;
0149067930999992011101707004+46750+009550FM-12+156099999V0201901N002119999999N9999999N1+00451-00371999999ADDMA1999999084871MD1210031+9999ME1315589OA149900361REMSYN088AAXX  17074 06793 33/// /1904 10045 21037 38487 48558 52003 333 55300 20068 91107 91205;
0112067930999992011101708004+46750+009550FM-12+156099999V0203301N000519999999N9999999N1+00591-00281999999ADDMA1999999084891ME1315609REMSYN076AAXX  17084 06793 33/// /3301 10059 21028 38489 48560 5//// 333 553// 20554;
0149067930999992011101709004+46750+009550FM-12+156099999V0203601N002619999999N9999999N1+00751-00281999999ADDMA1999999084881MD1219999+9999ME1315599OA149900411REMSYN088AAXX  17094 06793 33/// /3605 10075 21028 38488 48559 52/// 333 55308 21562 91108 91205;
0168067930999992011101710004+46750+009550FM-12+156099999V0200101N003119999999N9999999N1+00841-00261999999ADDMA1999999084871MD1410001+9999ME1315589OA149900461REMSYN088AAXX  17104 06793 33/// /0106 10084 21026 38487 48558 58000 333 55308 21973 91109 91206;EQDQ01+000082APCTEN
0096067930999992011101712004+46750+009550FM-12+156099999V0200101N004119999999N9999999N1+00941-00011999999ADDMA1999999084781ME1315499REMSYN060AAXX  17124 06793 43/// /0108 10094 21001 38478 48549 5////;
0112067930999992011101713004+46750+009550FM-12+156099999V0203601N003619999999N9999999N1+00921+00011999999ADDMA1999999084751ME1315469REMSYN076AAXX  17134 06793 33/// /3607 10092 20001 38475 48546 5//// 333 553// 22045;
0112067930999992011101714004+46750+009550FM-12+156099999V0200101N004119999999N9999999N1+00891+00081999999ADDMA1999999084731ME1315449REMSYN076AAXX  17144 06793 33/// /0108 10089 20008 38473 48544 5//// 333 553// 21660;
0112067930999992011101715004+46750+009550FM-12+156099999V0203501N003619999999N9999999N1+00741+00041999999ADDMA1999999084721ME1315439REMSYN076AAXX  17154 06793 33/// /3507 10074 20004 38472 48543 5//// 333 553// 20868;
0149067930999992011101716004+46750+009550FM-12+156099999V0200201N003119999999N9999999N1+00631+00001999999ADDMA1999999084721MD1719999+9999ME1315439OA149900461REMSYN088AAXX  17164 06793 33/// /0206 10063 20000 38472 48543 57/// 333 55300 20094 91109 91206;
0149067930999992011101717004+46750+009550FM-12+156099999V0203501N001519999999N9999999N1+00591+00041999999ADDMA1999999084761MD1310031+9999ME1315479OA149900411REMSYN088AAXX  17174 06793 33/// /3503 10059 20004 38476 48547 53003 333 553// 20018 91108 91204;
0168067930999992011101718004+46750+009550FM-12+156099999V0203201N001019999999N9999999N1+00621+00081999999ADDKA1120M+00951MA1999999084781MD1219999+9999ME1315499OA149900621REMSYN094AAXX  17184 06793 33/// /3202 10062 20008 38478 48549 52/// 333 10095 55300 20000 91112 91209;
0112067930999992011101719004+46750+009550FM-12+156099999V0202701N000519999999N9999999N1+00531+00101999999ADDMA1999999084791ME1315509REMSYN076AAXX  17194 06793 33/// /2701 10053 20010 38479 48550 5//// 333 553// 20000;
0112067930999992011101720004+46750+009550FM-12+156099999V0201901N002119999999N9999999N1+00351+00031999999ADDMA1999999084771ME1315499REMSYN076AAXX  17204 06793 33/// /1904 10035 20003 38477 48549 5//// 333 553// 20000;
0149067930999992011101721004+46750+009550FM-12+156099999V0201901N003119999999N9999999N1+00351+00051999999ADDMA1999999084771MD1719999+9999ME1315499OA149900361REMSYN088AAXX  17214 06793 33/// /1906 10035 20005 38477 48549 57/// 333 55300 20000 91107 91206;
0149067930999992011101722004+46750+009550FM-12+156099999V0201901N003119999999N9999999N1+00221+00021999999ADDMA1999999084771MD1710021+9999ME1315499OA149900411REMSYN088AAXX  17224 06793 33/// /1906 10022 20002 38477 48549 57002 333 55300 20000 91108 91206;
0149067930999992011101723004+46750+009550FM-12+156099999V0201801N002619999999N9999999N1+00181+00021999999ADDMA1999999084761MD1719999+9999ME1315489OA149900411REMSYN088AAXX  17234 06793 33/// /1805 10018 20002 38476 48548 57/// 333 55300 20000 91108 91206;
0149067930999992011101800004+46750+009550FM-12+156099999V0201901N003619999999N9999999N1+00271+00081999999ADDMA1999999084751MD1710021+9999ME1315479OA149900461REMSYN088AAXX  18004 06793 33/// /1907 10027 20008 38475 48547 57002 333 55300 20000 91109 91207;
0149067930999992011101801004+46750+009550FM-12+156099999V0201901N003119999999N9999999N1+00141-00041999999ADDMA1999999084721MD1719999+9999ME1315449OA149900511REMSYN088AAXX  18014 06793 33/// /1906 10014 21004 38472 48544 57/// 333 55300 20000 91110 91207;
0112067930999992011101802004+46750+009550FM-12+156099999V0201901N003119999999N9999999N1+00131-00121999999ADDMA1999999084671ME1315399REMSYN076AAXX  18024 06793 33/// /1906 10013 21012 38467 48539 5//// 333 553// 20000;
0112067930999992011101803004+46750+009550FM-12+156099999V0201901N002619999999N9999999N1+00091-00111999999ADDMA1999999084641ME1315369REMSYN076AAXX  18034 06793 33/// /1905 10009 21011 38464 48536 5//// 333 553// 20000;
0149067930999992011101804004+46750+009550FM-12+156099999V0202001N003119999999N9999999N1+00341-00201999999ADDMA1999999084631MD1719999+9999ME1315359OA149900411REMSYN088AAXX  18044 06793 33/// /2006 10034 21020 38463 48535 57/// 333 55300 20000 91108 91206;
0149067930999992011101805004+46750+009550FM-12+156099999V0201801N003119999999N9999999N1+00171-00211999999ADDMA1999999084611MD1710061+9999ME1315339OA149900461REMSYN088AAXX  18054 06793 33/// /1806 10017 21021 38461 48533 57006 333 55300 20000 91109 91206;
0198067930999992011101806004+46750+009550FM-12+156099999V0201801N003119999999N9999999N1+00111-00261999999ADDAL19900091GJ104269KA1999N+00061MA1999999084611MD1710031+9999ME1315349OA149900511REMSYN106AAXX  18064 06793 33/// /1806 10011 21026 38461 48534 57003 333 20006 55071 55300 20007 70000 91110 91207;
0118067930999992011101807004+46750+009550FM-12+156099999V0201901N003119999999N9999999N1+00061-00281999999ADDMA1999999084621ME1315359REMSYN082AAXX  18074 06793 33/// /1906 10006 21028 38462 48535 5//// 90640 333 553// 20058;
0118067930999992011101808004+46750+009550FM-12+156099999V0201801N003619999999N9999999N1+00231-00281999999ADDMA1999999084631ME1315359REMSYN082AAXX  18084 06793 33/// /1807 10023 21028 38463 48535 5//// 90740 333 553// 20216;
0112067930999992011101809004+46750+009550FM-12+156099999V0201801N003619999999N9999999N1+00811-00261999999ADDMA1999999084591ME1315319REMSYN076AAXX  18094 06793 33/// /1807 10081 21026 38459 48531 5//// 333 553// 21552;
0149067930999992011101810004+46750+009550FM-12+156099999V0201701N003119999999N9999999N1+01061-00351999999ADDMA1999999084551MD1719999+9999ME1315269OA149900571REMSYN088AAXX  18104 06793 33/// /1706 10106 21035 38455 48526 57/// 333 55308 21969 91111 91207;
0112067930999992011101813004+46750+009550FM-12+156099999V0203501N002119999999N9999999N1+01281-00451999999ADDMA1999999084401ME1315119REMSYN076AAXX  18134 06793 33/// /3504 10128 21045 38440 48511 5//// 333 553// 22045;
0112067930999992011101814004+46750+009550FM-12+156099999V0203201N001519999999N9999999N1+01191-00531999999ADDMA1999999084381ME1315099REMSYN076AAXX  18144 06793 33/// /3203 10119 21053 38438 48509 5//// 333 553// 21584;
0149067930999992011101815004+46750+009550FM-12+156099999V0203001N002119999999N9999999N1+01131-00551999999ADDMA1999999084391MD1719999+9999ME1315109OA149900361REMSYN088AAXX  18154 06793 33/// /3004 10113 21055 38439 48510 57/// 333 55307 20968 91107 91205;
0149067930999992011101816004+46750+009550FM-12+156099999V0203401N000519999999N9999999N1+01011-00441999999ADDMA1999999084371MD1710031+9999ME1315099OA149900511REMSYN088AAXX  18164 06793 33/// /3401 10101 21044 38437 48509 57003 333 553// 20104 91110 91207;
0149067930999992011101817004+46750+009550FM-12+156099999V0202801N001519999999N9999999N1+00971-00371999999ADDMA1999999084401MD1219999+9999ME1315129OA149900411REMSYN088AAXX  18174 06793 33/// /2803 10097 21037 38440 48512 52/// 333 55300 20014 91108 91204;
0131067930999992011101818004+46750+009550FM-12+156099999V0201801N002119999999N9999999N1+00721-00271999999ADDKA1120M+01301MA1999999084421ME1315149REMSYN082AAXX  18184 06793 33/// /1804 10072 21027 38442 48514 5//// 333 10130 553// 20000;
0112067930999992011101819004+46750+009550FM-12+156099999V0201901N003119999999N9999999N1+00641-00291999999ADDMA1999999084421ME1315149REMSYN076AAXX  18194 06793 33/// /1906 10064 21029 38442 48514 5//// 333 553// 20000;
0112067930999992011101820004+46750+009550FM-12+156099999V0202001N003619999999N9999999N1+00651-00281999999ADDMA1999999084411ME1315139REMSYN076AAXX  18204 06793 33/// /2007 10065 21028 38441 48513 5//// 333 553// 20000;
0149067930999992011101821004+46750+009550FM-12+156099999V0202001N003119999999N9999999N1+00451-00291999999ADDMA1999999084401MD1719999+9999ME1315139OA149900571REMSYN088AAXX  18214 06793 33/// /2006 10045 21029 38440 48513 57/// 333 55300 20000 91111 91207;
0149067930999992011101822004+46750+009550FM-12+156099999V0201901N003119999999N9999999N1+00401-00301999999ADDMA1999999084381MD1719999+9999ME1315119OA149900511REMSYN088AAXX  18224 06793 33/// /1906 10040 21030 38438 48511 57/// 333 55300 20000 91110 91207;
0112067930999992011101823004+46750+009550FM-12+156099999V0201901N003619999999N9999999N1+00481-00281999999ADDMA1999999084371ME1315109REMSYN076AAXX  18234 06793 33/// /1907 10048 21028 38437 48510 5//// 333 553// 20000;
0149067930999992011101900004+46750+009550FM-12+156099999V0202001N004119999999N9999999N1+00531-00251999999ADDMA1999999084361MD1719999+9999ME1315099OA149900621REMSYN088AAXX  19004 06793 33/// /2008 10053 21025 38436 48509 57/// 333 55300 20000 91112 91207;
0149067930999992011101901004+46750+009550FM-12+156099999V0201901N004119999999N9999999N1+00441-00191999999ADDMA1999999084331MD1710051+9999ME1315069OA149900721REMSYN088AAXX  19014 06793 33/// /1908 10044 21019 38433 48506 57005 333 55300 20000 91114 91208;
0112067930999992011101902004+46750+009550FM-12+156099999V0201801N003619999999N9999999N1+00411-00141999999ADDMA1999999084321ME1315059REMSYN076AAXX  19024 06793 33/// /1807 10041 21014 38432 48505 5//// 333 553// 20000;
0112067930999992011101903004+46750+009550FM-12+156099999V0201901N004619999999N9999999N1+00471-00131999999ADDMA1999999084291ME1315029REMSYN076AAXX  19034 06793 33/// /1909 10047 21013 38429 48502 5//// 333 553// 20000;
0149067930999992011101904004+46750+009550FM-12+156099999V0201701N004619999999N9999999N1+00511-00141999999ADDMA1999999084281MD1719999+9999ME1315019OA149901031REMSYN088AAXX  19044 06793 33/// /1709 10051 21014 38428 48501 57/// 333 55300 20000 91120 91210;
0149067930999992011101905004+46750+009550FM-12+156099999V0201601N004119999999N9999999N1+00571-00081999999ADDMA1999999084241MD1710081+9999ME1314979OA149900821REMSYN088AAXX  19054 06793 33/// /1608 10057 21008 38424 48497 57008 333 55300 20000 91116 91208;
0198067930999992011101906004+46750+009550FM-12+156099999V0201701N004119999999N9999999N1+00631-00051999999ADDAL19900091GJ104209KA1999N+00341MA1999999084181MD1719999+9999ME1314919OA149901031REMSYN106AAXX  19064 06793 33/// /1708 10063 21005 38418 48491 57/// 333 20034 55070 55300 20007 70000 91120 91211;
0149067930999992011101907004+46750+009550FM-12+156099999V0201701N004619999999N9999999N1+00751-00021999999ADDMA1999999084171MD1719999+9999ME1314909OA149900881REMSYN088AAXX  19074 06793 33/// /1709 10075 21002 38417 48490 57/// 333 55300 20151 91117 91209;
0112067930999992011101908004+46750+009550FM-12+156099999V0201701N005119999999N9999999N1+00821+00061999999ADDMA1999999084161ME1314889REMSYN076AAXX  19084 06793 33/// /1710 10082 20006 38416 48488 5//// 333 553// 20310;
0149067930999992011101909004+46750+009550FM-12+156099999V0201701N005719999999N9999999N1+00891+00071999999ADDMA1999999084111MD1719999+9999ME1314839OA149901181REMSYN088AAXX  19094 06793 33/// /1711 10089 20007 38411 48483 57/// 333 55300 20720 91123 91211;
0149067930999992011101910004+46750+009550FM-12+156099999V0201801N005719999999N9999999N1+00871+00041999999ADDMA1999999084091MD1719999+9999ME1314819OA149901441REMSYN088AAXX  19104 06793 33/// /1811 10087 20004 38409 48481 57/// 333 55300 20601 91128 91213;
0149067930999992011101911004+46750+009550FM-12+156099999V0202001N005119999999N9999999N1+00841+00081999999ADDMA1999999084071MD1710091+9999ME1314799OA149901241REMSYN088AAXX  19114 06793 33/// /2010 10084 20008 38407 48479 57009 333 55300 20634 91124 91211;
0112067930999992011101912004+46750+009550FM-12+156099999V0201801N005119999999N9999999N1+00841+00051999999ADDMA1999999084051ME1314779REMSYN076AAXX  19124 06793 33/// /1810 10084 20005 38405 48477 5//// 333 553// 20331;
0112067930999992011101913004+46750+009550FM-12+156099999V0201901N004619999999N9999999N1+00821+00081999999ADDMA1999999084001ME1314739REMSYN076AAXX  19134 06793 33/// /1909 10082 20008 38400 48473 5//// 333 553// 20284;
0112067930999992011101914004+46750+009550FM-12+156099999V0201801N004619999999N9999999N1+00821+00061999999ADDMA1999999083971ME1314709REMSYN076AAXX  19144 06793 33/// /1809 10082 20006 38397 48470 5//// 333 553// 20227;
0149067930999992011101915004+46750+009550FM-12+156099999V0200901N002619999999N9999999N1+00561+00151999999ADDMA1999999084021MD1510031+9999ME1314769OA149901181REMSYN088AAXX  19154 06793 33/// /0905 10056 20015 38402 48476 55003 333 553// 20086 91123 91211;
0149067930999992011101916004+46750+009550FM-12+156099999V0203501N006719999999N9999999N1+00151+00151999999ADDMA1999999084111MD1210111+9999ME1314869OA149900981REMSYN088AAXX  19164 06793 33/// /3513 10015 20015 38411 48486 52011 333 55300 20007 91119 91213;
0149067930999992011101917004+46750+009550FM-12+156099999V0209999C006719999999N9999999N1+00011+00011999999ADDMA1999999084121MD1210151+9999ME1314879OA149901131REMSYN088AAXX  19174 06793 33/// /0013 10001 20001 38412 48487 52015 333 55300 20000 91122 91215;
0210067930999992011101918004+46750+009550FM-12+156099999V0203501N008719999999N9999999N1-00061-00061999999ADDAA112000091KA1120M+00891MA1999999084231MD1210211+9999ME1314989OA149901241REMSYN106AAXX  19184 06793 03/// /3517 11006 21006 38423 48498 52021 69912 333 10089 55300 20000 69915 91124 91217;EQDQ01  00002PRCP12
0155067930999992011101919004+46750+009550FM-12+156099999V0203601N008719999999N9999999N1-00111-00111999999ADDMA1999999084231MD1219999+9999ME1314989OA149901241REMSYN094AAXX  19194 06793 23/// /3617 11011 21011 38423 48498 52/// 333 55300 20000 60025 91124 91217;
0118067930999992011101920004+46750+009550FM-12+156099999V0203601N008719999999N9999999N1-00111-00111999999ADDMA1999999084271ME1315029REMSYN082AAXX  19204 06793 23/// /3617 11011 21011 38427 48502 5//// 333 553// 20000 69915;
0155067930999992011101921004+46750+009550FM-12+156099999V0203601N008719999999N9999999N1-00151-00151999999ADDMA1999999084311MD1219999+9999ME1315069OA149901291REMSYN094AAXX  19214 06793 23/// /3617 11015 21015 38431 48506 52/// 333 55300 20000 69915 91125 91218;
0155067930999992011101922004+46750+009550FM-12+156099999V0200101N005719999999N9999999N1-00181-00181999999ADDMA1999999084381MD1210151+9999ME1315129OA149901181REMSYN094AAXX  19224 06793 23/// /0111 11018 21018 38438 48512 52015 333 55300 20000 69915 91123 91215;
0155067930999992011101923004+46750+009550FM-12+156099999V0203601N007719999999N9999999N1-00181-00181999999ADDMA1999999084341MD1019999+9999ME1315089OA149901081REMSYN094AAXX  19234 06793 23/// /3615 11018 21018 38434 48508 50/// 333 55300 20000 69915 91121 91215;
0172067930999992011102000004+46750+009550FM-12+156099999V0203501N007219999999N9999999N1-00191-00191999999ADDAA106002091MA1999999084381MD1210071+9999ME1315129OA149901291REMSYN100AAXX  20004 06793 03/// /3514 11019 21019 38438 48512 52007 60021 333 55300 20000 69915 91125 91218;
0155067930999992011102001004+46750+009550FM-12+156099999V0203601N005719999999N9999999N1-00201-00201999999ADDMA1999999084401MD1319999+9999ME1315149OA149901081REMSYN094AAXX  20014 06793 23/// /3611 11020 21020 38440 48514 53/// 333 55300 20000 69915 91121 91214;
0112067930999992011102002004+46750+009550FM-12+156099999V0200101N006219999999N9999999N1-00211-00211999999ADDMA1999999084401ME1315149REMSYN076AAXX  20024 06793 33/// /0112 11021 21021 38440 48514 5//// 333 553// 20000;
0112067930999992011102003004+46750+009550FM-12+156099999V0203501N007219999999N9999999N1-00231-00231999999ADDMA1999999084381ME1315129REMSYN076AAXX  20034 06793 33/// /3514 11023 21023 38438 48512 5//// 333 553// 20000;
0149067930999992011102004004+46750+009550FM-12+156099999V0209999C004619999999N9999999N1-00271-00281999999ADDMA1999999084451MD1319999+9999ME1315199OA149900981REMSYN088AAXX  20044 06793 33/// /0009 11027 21028 38445 48519 53/// 333 553// 20000 91119 91214;
0149067930999992011102005004+46750+009550FM-12+156099999V0203601N005719999999N9999999N1-00291-00301999999ADDMA1999999084471MD1210071+9999ME1315219OA149900821REMSYN088AAXX  20054 06793 33/// /3611 11029 21030 38447 48521 52007 333 55300 20000 91116 91212;
0174067930999992011102006004+46750+009550FM-12+156099999V0200301N003119999999N9999999N1-00311-00331999999ADDAA112002091GJ100009KA1999N-00301MA1999999084531ME1315279REMSYN106AAXX  20064 06793 03/// /0306 11031 21033 38453 48527 5//// 60022 333 21030 55000 553// 20000 60005 70022;
0149067930999992011102007004+46750+009550FM-12+156099999V0200201N004119999999N9999999N1-00301-00321999999ADDMA1999999084571MD1319999+9999ME1315309OA149900571REMSYN088AAXX  20074 06793 33/// /0208 11030 21032 38457 48530 53/// 333 55300 20126 91111 91208;
0112067930999992011102008004+46750+009550FM-12+156099999V0203501N004619999999N9999999N1-00281-00311999999ADDMA1999999084611ME1315349REMSYN076AAXX  20084 06793 33/// /3509 11028 21031 38461 48534 5//// 333 553// 20324;
0149067930999992011102009004+46750+009550FM-12+156099999V0200101N003619999999N9999999N1-00241-00281999999ADDMA1999999084611MD1219999+9999ME1315349OA149900721REMSYN088AAXX  20094 06793 33/// /0107 11024 21028 38461 48534 52/// 333 55300 20662 91114 91209;
0149067930999992011102010004+46750+009550FM-12+156099999V0203601N005119999999N9999999N1-00211-00251999999ADDMA1999999084621MD1219999+9999ME1315359OA149900771REMSYN088AAXX  20104 06793 33/// /3610 11021 21025 38462 48535 52/// 333 55300 20997 91115 91210;
0149067930999992011102011004+46750+009550FM-12+156099999V0203501N006719999999N9999999N1-00201-00281999999ADDMA1999999084601MD1719999+9999ME1315339OA149900931REMSYN088AAXX  20114 06793 33/// /3513 11020 21028 38460 48533 57/// 333 55300 20990 91118 91213;
0112067930999992011102012004+46750+009550FM-12+156099999V0203501N004619999999N9999999N1-00121-00381999999ADDMA1999999084621ME1315359REMSYN076AAXX  20124 06793 33/// /3509 11012 21038 38462 48535 5//// 333 553// 21433;
0112067930999992011102013004+46750+009550FM-12+156099999V0203601N006219999999N9999999N1-00131-00281999999ADDMA1999999084601ME1315339REMSYN076AAXX  20134 06793 33/// /3612 11013 21028 38460 48533 5//// 333 553// 21393;
0112067930999992011102014004+46750+009550FM-12+156099999V0200101N005119999999N9999999N1-00131-00261999999ADDMA1999999084621ME1315359REMSYN076AAXX  20144 06793 33/// /0110 11013 21026 38462 48535 5//// 333 553// 20943;
0112067930999992011102015004+46750+009550FM-12+156099999V0203601N005119999999N9999999N1-00151-00231999999ADDMA1999999084631ME1315369REMSYN076AAXX  20154 06793 33/// /3610 11015 21023 38463 48536 5//// 333 553// 20612;
0149067930999992011102016004+46750+009550FM-12+156099999V0200101N003619999999N9999999N1-00171-00201999999ADDMA1999999084651MD1319999+9999ME1315389OA149900511REMSYN088AAXX  20164 06793 33/// /0107 11017 21020 38465 48538 53/// 333 55300 20234 91110 91208;
0149067930999992011102017004+46750+009550FM-12+156099999V0200101N002619999999N9999999N1-00201-00241999999ADDMA1999999084691MD1310071+9999ME1315419OA149900511REMSYN088AAXX  20174 06793 33/// /0105 11020 21024 38469 48541 53007 333 55300 20018 91110 91207;
0131067930999992011102018004+46750+009550FM-12+156099999V0200301N002619999999N9999999N1-00231-00261999999ADDKA1120M-00111MA1999999084741ME1315469REMSYN082AAXX  20184 06793 33/// /0305 11023 21026 38474 48546 5//// 333 11011 553// 20000;
0112067930999992011102019004+46750+009550FM-12+156099999V0200301N002119999999N9999999N1-00331-00371999999ADDMA1999999084741ME1315469REMSYN076AAXX  20194 06793 33/// /0304 11033 21037 38474 48546 5//// 333 553// 20000;
0112067930999992011102020004+46750+009550FM-12+156099999V0200201N001519999999N9999999N1-00371-00431999999ADDMA1999999084761ME1315489REMSYN076AAXX  20204 06793 33/// /0203 11037 21043 38476 48548 5//// 333 553// 20000;
0112067930999992011102021004+46750+009550FM-12+156099999V0209999C002619999999N9999999N1-00351-00401999999ADDMA1999999084771ME1315499REMSYN076AAXX  20214 06793 33/// /0005 11035 21040 38477 48549 5//// 333 553// 20000;
0149067930999992011102022004+46750+009550FM-12+156099999V0202401N000519999999N9999999N1-00391-00451999999ADDMA1999999084761MD1019999+9999ME1315489OA149900311REMSYN088AAXX  20224 06793 33/// /2401 11039 21045 38476 48548 50/// 333 55300 20000 91106 91203;
0112067930999992011102023004+46750+009550FM-12+156099999V0201901N002119999999N9999999N1-00451-00511999999ADDMA1999999084761ME1315489REMSYN076AAXX  20234 06793 33/// /1904 11045 21051 38476 48548 5//// 333 553// 20000;
0112067930999992011102100004+46750+009550FM-12+156099999V0201901N002119999999N9999999N1-00421-00511999999ADDMA1999999084751ME1315479REMSYN076AAXX  21004 06793 33/// /1904 11042 21051 38475 48547 5//// 333 553// 20000;
0112067930999992011102101004+46750+009550FM-12+156099999V0201801N001519999999N9999999N1-00431-00501999999ADDMA1999999084741ME1315469REMSYN076AAXX  21014 06793 33/// /1803 11043 21050 38474 48546 5//// 333 553// 20000;
0112067930999992011102102004+46750+009550FM-12+156099999V0202001N002619999999N9999999N1-00461-00521999999ADDMA1999999084741ME1315469REMSYN076AAXX  21024 06793 33/// /2005 11046 21052 38474 48546 5//// 333 553// 20000;
0112067930999992011102103004+46750+009550FM-12+156099999V0201701N002619999999N9999999N1-00491-00531999999ADDMA1999999084721ME1315459REMSYN076AAXX  21034 06793 33/// /1705 11049 21053 38472 48545 5//// 333 553// 20000;
0112067930999992011102104004+46750+009550FM-12+156099999V0201801N002619999999N9999999N1-00501-00541999999ADDMA1999999084691ME1315429REMSYN076AAXX  21044 06793 33/// /1805 11050 21054 38469 48542 5//// 333 553// 20000;
0149067930999992011102105004+46750+009550FM-12+156099999V0201901N003119999999N9999999N1-00611-00691999999ADDMA1999999084681MD1610061+9999ME1315419OA149900461REMSYN088AAXX  21054 06793 33/// /1906 11061 21069 38468 48541 56006 333 55300 20000 91109 91206;
0198067930999992011102106004+46750+009550FM-12+156099999V0201801N002119999999N9999999N1-00681-00761999999ADDAL19900091GJ100309KA1999N-00681MA1999999084691MD1519999+9999ME1315429OA149900511REMSYN106AAXX  21064 06793 33/// /1804 11068 21076 38469 48542 55/// 333 21068 55005 55300 20004 70000 91110 91206;
0112067930999992011102107004+46750+009550FM-12+156099999V0201901N003119999999N9999999N1-00701-00781999999ADDMA1999999084721ME1315459REMSYN076AAXX  21074 06793 33/// /1906 11070 21078 38472 48545 5//// 333 553// 20072;
0112067930999992011102108004+46750+009550FM-12+156099999V0201901N003619999999N9999999N1-00621-00771999999ADDMA1999999084741ME1315479REMSYN076AAXX  21084 06793 33/// /1907 11062 21077 38474 48547 5//// 333 553// 20371;
0112067930999992011102109004+46750+009550FM-12+156099999V0201701N002619999999N9999999N1-00301-00631999999ADDMA1999999084721ME1315449REMSYN076AAXX  21094 06793 33/// /1705 11030 21063 38472 48544 5//// 333 553// 21541;
0149067930999992011102110004+46750+009550FM-12+156099999V0201501N001019999999N9999999N1-00131-00641999999ADDMA1999999084711MD1819999+9999ME1315439OA149900411REMSYN088AAXX  21104 06793 33/// /1502 11013 21064 38471 48543 58/// 333 55308 21973 91108 91205;
0112067930999992011102113004+46750+009550FM-12+156099999V0203601N002619999999N9999999N1-00031-00511999999ADDMA1999999084611ME1315349REMSYN076AAXX  21134 06793 33/// /3605 11003 21051 38461 48534 5//// 333 553// 22030;
0112067930999992011102114004+46750+009550FM-12+156099999V0203501N003619999999N9999999N1+00031-00461999999ADDMA1999999084601ME1315339REMSYN076AAXX  21144 06793 33/// /3507 10003 21046 38460 48533 5//// 333 553// 21642;
0112067930999992011102115004+46750+009550FM-12+156099999V0203301N002119999999N9999999N1-00071-00391999999ADDMA1999999084611ME1315349REMSYN076AAXX  21154 06793 33/// /3304 11007 21039 38461 48534 5//// 333 553// 20684;
0112067930999992011102116004+46750+009550FM-12+156099999V0203201N001519999999N9999999N1-00071-00431999999ADDMA1999999084611ME1315349REMSYN076AAXX  21164 06793 33/// /3203 11007 21043 38461 48534 5//// 333 553// 20097;
0149067930999992011102117004+46750+009550FM-12+156099999V0203201N002119999999N9999999N1-00081-00531999999ADDMA1999999084641MD1219999+9999ME1315379OA149900261REMSYN088AAXX  21174 06793 33/// /3204 11008 21053 38464 48537 52/// 333 55300 20014 91105 91204;
0131067930999992011102118004+46750+009550FM-12+156099999V0201901N002619999999N9999999N1-00221-00471999999ADDKA1120M+00031MA1999999084681ME1315419REMSYN082AAXX  21184 06793 33/// /1905 11022 21047 38468 48541 5//// 333 10003 553// 20000;
0149067930999992011102119004+46750+009550FM-12+156099999V0201901N003119999999N9999999N1-00311-00461999999ADDMA1999999084681MD1219999+9999ME1315419OA149900411REMSYN088AAXX  21194 06793 33/// /1906 11031 21046 38468 48541 52/// 333 55300 20000 91108 91206;
0112067930999992011102120004+46750+009550FM-12+156099999V0201801N002619999999N9999999N1-00411-00521999999ADDMA1999999084671ME1315409REMSYN076AAXX  21204 06793 33/// /1805 11041 21052 38467 48540 5//// 333 553// 20000;
0112067930999992011102121004+46750+009550FM-12+156099999V0201901N003119999999N9999999N1-00391-00541999999ADDMA1999999084661ME1315399REMSYN076AAXX  21214 06793 33/// /1906 11039 21054 38466 48539 5//// 333 553// 20000;
0112067930999992011102122004+46750+009550FM-12+156099999V0201901N003119999999N9999999N1-00471-00561999999ADDMA1999999084641ME1315379REMSYN076AAXX  21224 06793 33/// /1906 11047 21056 38464 48537 5//// 333 553// 20000;
0112067930999992011102123004+46750+009550FM-12+156099999V0201801N003119999999N9999999N1-00561-00651999999ADDMA1999999084621ME1315359REMSYN076AAXX  21234 06793 33/// /1806 11056 21065 38462 48535 5//// 333 553// 20000;
0112067930999992011102200004+46750+009550FM-12+156099999V0201901N004119999999N9999999N1-00511-00651999999ADDMA1999999084571ME1315319REMSYN076AAXX  22004 06793 33/// /1908 11051 21065 38457 48531 5//// 333 553// 20000;
0112067930999992011102201004+46750+009550FM-12+156099999V0201901N004119999999N9999999N1-00521-00681999999ADDMA1999999084531ME1315279REMSYN076AAXX  22014 06793 33/// /1908 11052 21068 38453 48527 5//// 333 553// 20000;
0112067930999992011102202004+46750+009550FM-12+156099999V0201901N003619999999N9999999N1-00601-00761999999ADDMA1999999084491ME1315239REMSYN076AAXX  22024 06793 33/// /1907 11060 21076 38449 48523 5//// 333 553// 20000;
0112067930999992011102203004+46750+009550FM-12+156099999V0201701N003619999999N9999999N1-00561-00741999999ADDMA1999999084471ME1315219REMSYN076AAXX  22034 06793 33/// /1707 11056 21074 38447 48521 5//// 333 553// 20000;
0112067930999992011102204004+46750+009550FM-12+156099999V0201901N004119999999N9999999N1-00501-00911999999ADDMA1999999084451ME1315199REMSYN076AAXX  22044 06793 33/// /1908 11050 21091 38445 48519 5//// 333 553// 20000;
0149067930999992011102205004+46750+009550FM-12+156099999V0201801N003619999999N9999999N1-00501-00891999999ADDMA1999999084451MD1619999+9999ME1315199OA149900511REMSYN088AAXX  22054 06793 33/// /1807 11050 21089 38445 48519 56/// 333 55300 20000 91110 91207;
0151067930999992011102206004+46750+009550FM-12+156099999V0201901N002619999999N9999999N1-00501-00911999999ADDGJ103969KA1999N-00631MA1999999084481ME1315229REMSYN094AAXX  22064 06793 33/// /1905 11050 21091 38448 48522 5//// 333 21063 55066 553// 20004 70000;
0112067930999992011102207004+46750+009550FM-12+156099999V0201801N003119999999N9999999N1-00481-00931999999ADDMA1999999084491ME1315239REMSYN076AAXX  22074 06793 33/// /1806 11048 21093 38449 48523 5//// 333 553// 20068;
0112067930999992011102208004+46750+009550FM-12+156099999V0201801N003119999999N9999999N1-00391-00801999999ADDMA1999999084491ME1315239REMSYN076AAXX  22084 06793 33/// /1806 11039 21080 38449 48523 5//// 333 553// 20486;
0096067930999992011102209004+46750+009550FM-12+156099999V0201701N002119999999N9999999N1-00031-00791999999ADDMA1999999084491ME1315229REMSYN060AAXX  22094 06793 43/// /1704 11003 21079 38449 48522 5////;
0112067930999992011102210004+46750+009550FM-12+156099999V0203401N002119999999N9999999N1+00101-00981999999ADDMA1999999084491ME1315229REMSYN076AAXX  22104 06793 33/// /3404 10010 21098 38449 48522 5//// 333 553// 21958;
0112067930999992011102211004+46750+009550FM-12+156099999V0200101N002119999999N9999999N1+00161-01061999999ADDMA1999999084491ME1315229REMSYN076AAXX  22114 06793 33/// /0104 10016 21106 38449 48522 5//// 333 553// 22182;
0112067930999992011102213004+46750+009550FM-12+156099999V0203501N005719999999N9999999N1+00281-00801999999ADDMA1999999084421ME1315159REMSYN076AAXX  22134 06793 33/// /3511 10028 21080 38442 48515 5//// 333 553// 22009;
0112067930999992011102214004+46750+009550FM-12+156099999V0203501N004619999999N9999999N1+00241-00641999999ADDMA1999999084401ME1315139REMSYN076AAXX  22144 06793 33/// /3509 10024 21064 38440 48513 5//// 333 553// 21613;
0112067930999992011102215004+46750+009550FM-12+156099999V0203501N003619999999N9999999N1+00121-00581999999ADDMA1999999084401ME1315139REMSYN076AAXX  22154 06793 33/// /3507 10012 21058 38440 48513 5//// 333 553// 20558;
0112067930999992011102216004+46750+009550FM-12+156099999V0203601N001519999999N9999999N1+00081-00501999999ADDMA1999999084401ME1315149REMSYN076AAXX  22164 06793 33/// /3603 10008 21050 38440 48514 5//// 333 553// 20094;
0149067930999992011102217004+46750+009550FM-12+156099999V0203401N001019999999N9999999N1+00091-00431999999ADDMA1999999084421MD1219999+9999ME1315159OA149900411REMSYN088AAXX  22174 06793 33/// /3402 10009 21043 38442 48515 52/// 333 55300 20011 91108 91204;
0131067930999992011102218004+46750+009550FM-12+156099999V0201801N001019999999N9999999N1+00031-00471999999ADDKA1120M+00321MA1999999084441ME1315179REMSYN082AAXX  22184 06793 33/// /1802 10003 21047 38444 48517 5//// 333 10032 553// 20000;
0112067930999992011102219004+46750+009550FM-12+156099999V0201901N002619999999N9999999N1-00181-00601999999ADDMA1999999084421ME1315169REMSYN076AAXX  22194 06793 33/// /1905 11018 21060 38442 48516 5//// 333 553// 20000;
0112067930999992011102220004+46750+009550FM-12+156099999V0201901N003119999999N9999999N1-00241-00581999999ADDMA1999999084401ME1315149REMSYN076AAXX  22204 06793 33/// /1906 11024 21058 38440 48514 5//// 333 553// 20000;
0149067930999992011102221004+46750+009550FM-12+156099999V0201801N002619999999N9999999N1-00331-00521999999ADDMA1999999084401MD1719999+9999ME1315149OA149900461REMSYN088AAXX  22214 06793 33/// /1805 11033 21052 38440 48514 57/// 333 55300 20000 91109 91206;
0112067930999992011102222004+46750+009550FM-12+156099999V0201701N002619999999N9999999N1-00271-00651999999ADDMA1999999084371ME1315119REMSYN076AAXX  22224 06793 33/// /1705 11027 21065 38437 48511 5//// 333 553// 20000;
0112067930999992011102223004+46750+009550FM-12+156099999V0201701N002619999999N9999999N1-00181-00781999999ADDMA1999999084351ME1315099REMSYN076AAXX  22234 06793 33/// /1705 11018 21078 38435 48509 5//// 333 553// 20000;
0112067930999992011102300004+46750+009550FM-12+156099999V0202001N002119999999N9999999N1-00161-00801999999ADDMA1999999084361ME1315109REMSYN076AAXX  23004 06793 33/// /2004 11016 21080 38436 48510 5//// 333 553// 20000;
0112067930999992011102301004+46750+009550FM-12+156099999V0201901N002119999999N9999999N1-00101-00811999999ADDMA1999999084361ME1315109REMSYN076AAXX  23014 06793 33/// /1904 11010 21081 38436 48510 5//// 333 553// 20000;
0096067930999992011102302004+46750+009550FM-12+156099999V0201901N001019999999N9999999N1-00151-00831999999ADDMA1999999084351ME1315099REMSYN060AAXX  23024 06793 43/// /1902 11015 21083 38435 48509 5////;
0096067930999992011102303004+46750+009550FM-12+156099999V0203401N001019999999N9999999N1-00081-00831999999ADDMA1999999084341ME1315089REMSYN060AAXX  23034 06793 43/// /3402 11008 21083 38434 48508 5////;
0112067930999992011102304004+46750+009550FM-12+156099999V0202001N002119999999N9999999N1-00141-00781999999ADDMA1999999084361ME1315109REMSYN076AAXX  23044 06793 33/// /2004 11014 21078 38436 48510 5//// 333 553// 20000;
0149067930999992011102305004+46750+009550FM-12+156099999V0201901N002619999999N9999999N1-00151-00741999999ADDMA1999999084351MD1410001+9999ME1315099OA149900361REMSYN088AAXX  23054 06793 33/// /1905 11015 21074 38435 48509 54000 333 55300 20000 91107 91205;
0198067930999992011102306004+46750+009550FM-12+156099999V0202001N003119999999N9999999N1-00181-00701999999ADDAL19900091GJ104029KA1999N-00371MA1999999084331MD1819999+9999ME1315079OA149900361REMSYN106AAXX  23064 06793 33/// /2006 11018 21070 38433 48507 58/// 333 21037 55067 55300 20004 70000 91107 91206;
0149067930999992011102307004+46750+009550FM-12+156099999V0201901N003119999999N9999999N1-00211-00631999999ADDMA1999999084341MD1710021+9999ME1315099OA149900361REMSYN088AAXX  23074 06793 33/// /1906 11021 21063 38434 48509 57002 333 55300 20061 91107 91206;
0112067930999992011102308004+46750+009550FM-12+156099999V0201801N003119999999N9999999N1-00211-00651999999ADDMA1999999084331ME1315089REMSYN076AAXX  23084 06793 33/// /1806 11021 21065 38433 48508 5//// 333 553// 20450;
0149067930999992011102309004+46750+009550FM-12+156099999V0201801N002619999999N9999999N1+00161-00761999999ADDMA1999999084311MD1819999+9999ME1315059OA149900461REMSYN088AAXX  23094 06793 33/// /1805 10016 21076 38431 48505 58/// 333 55308 21476 91109 91206;
0112067930999992011102310004+46750+009550FM-12+156099999V0201701N002619999999N9999999N1+00391-00901999999ADDMA1999999084261ME1314999REMSYN076AAXX  23104 06793 33/// /1705 10039 21090 38426 48499 5//// 333 553// 21904;
0112067930999992011102311004+46750+009550FM-12+156099999V0201701N001519999999N9999999N1+00571-01001999999ADDMA1999999084211ME1314949REMSYN076AAXX  23114 06793 33/// /1703 10057 21100 38421 48494 5//// 333 553// 22138;
0112067930999992011102312004+46750+009550FM-12+156099999V0201701N002119999999N9999999N1+00691-01441999999ADDMA1999999084141ME1314879REMSYN076AAXX  23124 06793 33/// /1704 10069 21144 38414 48487 5//// 333 553// 22167;
0149067930999992011102313004+46750+009550FM-12+156099999V0203301N001519999999N9999999N1+00551-00861999999ADDMA1999999084091MD1719999+9999ME1314829OA149900311REMSYN088AAXX  23134 06793 33/// /3303 10055 21086 38409 48482 57/// 333 55308 21973 91106 91203;
0112067930999992011102314004+46750+009550FM-12+156099999V0203101N001519999999N9999999N1+00591-00801999999ADDMA1999999084031ME1314769REMSYN076AAXX  23144 06793 33/// /3103 10059 21080 38403 48476 5//// 333 553// 21584;
0149067930999992011102315004+46750+009550FM-12+156099999V0203301N001019999999N9999999N1+00531-00951999999ADDMA1999999084001MD1619999+9999ME1314749OA149900311REMSYN088AAXX  23154 06793 33/// /3302 10053 21095 38400 48474 56/// 333 55303 20486 91106 91203;
0149067930999992011102316004+46750+009550FM-12+156099999V0202001N002619999999N9999999N1+00461-00591999999ADDMA1999999083981MD1610111+9999ME1314729OA149900411REMSYN088AAXX  23164 06793 33/// /2005 10046 21059 38398 48472 56011 333 55300 20086 91108 91205;
0149067930999992011102317004+46750+009550FM-12+156099999V0201801N002119999999N9999999N1+00101-00441999999ADDMA1999999083991MD1510041+9999ME1314749OA149900461REMSYN088AAXX  23174 06793 33/// /1804 10010 21044 38399 48474 55004 333 55300 20007 91109 91205;
0168067930999992011102318004+46750+009550FM-12+156099999V0201901N002119999999N9999999N1+00061-00521999999ADDKA1120M+00721MA1999999084011MD1219999+9999ME1314769OA149900461REMSYN094AAXX  23184 06793 33/// /1904 10006 21052 38401 48476 52/// 333 10072 55300 20000 91109 91206;
0149067930999992011102319004+46750+009550FM-12+156099999V0201801N003119999999N9999999N1+00031-00611999999ADDMA1999999084021MD1219999+9999ME1314779OA149900511REMSYN088AAXX  23194 06793 33/// /1806 10003 21061 38402 48477 52/// 333 55300 20000 91110 91206;
0112067930999992011102320004+46750+009550FM-12+156099999V0201801N003619999999N9999999N1+00061-00661999999ADDMA1999999084041ME1314799REMSYN076AAXX  23204 06793 33/// /1807 10006 21066 38404 48479 5//// 333 553// 20000;
0112067930999992011102321004+46750+009550FM-12+156099999V0201801N003619999999N9999999N1-00011-00591999999ADDMA1999999084041ME1314799REMSYN076AAXX  23214 06793 33/// /1807 11001 21059 38404 48479 5//// 333 553// 20000;
0112067930999992011102322004+46750+009550FM-12+156099999V0201701N003119999999N9999999N1-00041-00581999999ADDMA1999999084041ME1314809REMSYN076AAXX  23224 06793 33/// /1706 11004 21058 38404 48480 5//// 333 553// 20000;
0112067930999992011102323004+46750+009550FM-12+156099999V0201801N003119999999N9999999N1-00061-00591999999ADDMA1999999084031ME1314799REMSYN076AAXX  23234 06793 33/// /1806 11006 21059 38403 48479 5//// 333 553// 20000;
0112067930999992011102400004+46750+009550FM-12+156099999V0201801N003619999999N9999999N1-00051-00621999999ADDMA1999999083991ME1314759REMSYN076AAXX  24004 06793 33/// /1807 11005 21062 38399 48475 5//// 333 553// 20000;
0112067930999992011102401004+46750+009550FM-12+156099999V0201901N003119999999N9999999N1-00061-00641999999ADDMA1999999083971ME1314739REMSYN076AAXX  24014 06793 33/// /1906 11006 21064 38397 48473 5//// 333 553// 20000;
0112067930999992011102402004+46750+009550FM-12+156099999V0201801N003619999999N9999999N1-00111-00661999999ADDMA1999999083921ME1314689REMSYN076AAXX  24024 06793 33/// /1807 11011 21066 38392 48468 5//// 333 553// 20000;
0112067930999992011102403004+46750+009550FM-12+156099999V0201901N004119999999N9999999N1-00091-00711999999ADDMA1999999083891ME1314659REMSYN076AAXX  24034 06793 33/// /1908 11009 21071 38389 48465 5//// 333 553// 20000;
0112067930999992011102404004+46750+009550FM-12+156099999V0201801N003119999999N9999999N1-00141-00711999999ADDMA1999999083881ME1314659REMSYN076AAXX  24044 06793 33/// /1806 11014 21071 38388 48465 5//// 333 553// 20000;
0149067930999992011102405004+46750+009550FM-12+156099999V0201801N003619999999N9999999N1-00171-00711999999ADDMA1999999083861MD1619999+9999ME1314639OA149900621REMSYN088AAXX  24054 06793 33/// /1807 11017 21071 38386 48463 56/// 333 55300 20000 91112 91207;
0198067930999992011102406004+46750+009550FM-12+156099999V0201801N003619999999N9999999N1-00171-00681999999ADDAL19900091GJ104029KA1999N-00181MA1999999083871MD1519999+9999ME1314649OA149900671REMSYN106AAXX  24064 06793 33/// /1807 11017 21068 38387 48464 55/// 333 21018 55067 55300 20004 70000 91113 91208;
0112067930999992011102407004+46750+009550FM-12+156099999V0201701N003619999999N9999999N1-00151-00691999999ADDMA1999999083901ME1314679REMSYN076AAXX  24074 06793 33/// /1707 11015 21069 38390 48467 5//// 333 553// 20061;
0112067930999992011102408004+46750+009550FM-12+156099999V0201601N003619999999N9999999N1+00021-00661999999ADDMA1999999083881ME1314649REMSYN076AAXX  24084 06793 33/// /1607 10002 21066 38388 48464 5//// 333 553// 20414;
0112067930999992011102409004+46750+009550FM-12+156099999V0201601N005119999999N9999999N1+00261-00651999999ADDMA1999999083861ME1314619REMSYN076AAXX  24094 06793 33/// /1610 10026 21065 38386 48461 5//// 333 553// 21418;
0112067930999992011102410004+46750+009550FM-12+156099999V0201601N004619999999N9999999N1+00431-00711999999ADDMA1999999083841ME1314589REMSYN076AAXX  24104 06793 33/// /1609 10043 21071 38384 48458 5//// 333 553// 21829;
0112067930999992011102411004+46750+009550FM-12+156099999V0201701N005119999999N9999999N1+00521-00671999999ADDMA1999999083811ME1314559REMSYN076AAXX  24114 06793 33/// /1710 10052 21067 38381 48455 5//// 333 553// 22048;
0112067930999992011102412004+46750+009550FM-12+156099999V0201801N006219999999N9999999N1+00581-00711999999ADDMA1999999083741ME1314489REMSYN076AAXX  24124 06793 33/// /1812 10058 21071 38374 48448 5//// 333 553// 22074;
0112067930999992011102413004+46750+009550FM-12+156099999V0201801N005719999999N9999999N1+00611-00671999999ADDMA1999999083711ME1314459REMSYN076AAXX  24134 06793 33/// /1811 10061 21067 38371 48445 5//// 333 553// 21879;
0112067930999992011102414004+46750+009550FM-12+156099999V0201701N004619999999N9999999N1+00501-00501999999ADDMA1999999083681ME1314439REMSYN076AAXX  24144 06793 33/// /1709 10050 21050 38368 48443 5//// 333 553// 21256;
0149067930999992011102415004+46750+009550FM-12+156099999V0201701N004619999999N9999999N1+00451-00561999999ADDMA1999999083671MD1719999+9999ME1314429OA149901291REMSYN088AAXX  24154 06793 33/// /1709 10045 21056 38367 48442 57/// 333 55300 20256 91125 91212;
0149067930999992011102416004+46750+009550FM-12+156099999V0201701N004119999999N9999999N1+00391-00431999999ADDMA1999999083671MD1719999+9999ME1314429OA149900981REMSYN088AAXX  24164 06793 33/// /1708 10039 21043 38367 48442 57/// 333 553// 20097 91119 91210;
0149067930999992011102417004+46750+009550FM-12+156099999V0201801N004619999999N9999999N1+00411-00361999999ADDMA1999999083691MD1319999+9999ME1314449OA149900881REMSYN088AAXX  24174 06793 33/// /1809 10041 21036 38369 48444 53/// 333 55300 20007 91117 91209;
0131067930999992011102418004+46750+009550FM-12+156099999V0201601N004619999999N9999999N1+00371-00301999999ADDKA1120M+00631MA1999999083721ME1314479REMSYN082AAXX  24184 06793 33/// /1609 10037 21030 38372 48447 5//// 333 10063 553// 20000;
0112067930999992011102419004+46750+009550FM-12+156099999V0201701N004119999999N9999999N1+00351-00291999999ADDMA1999999083711ME1314469REMSYN076AAXX  24194 06793 33/// /1708 10035 21029 38371 48446 5//// 333 553// 20000;
0112067930999992011102420004+46750+009550FM-12+156099999V0201801N003619999999N9999999N1+00301-00251999999ADDMA1999999083721ME1314479REMSYN076AAXX  24204 06793 33/// /1807 10030 21025 38372 48447 5//// 333 553// 20000;
0112067930999992011102421004+46750+009550FM-12+156099999V0201901N004119999999N9999999N1+00361-00201999999ADDMA1999999083691ME1314449REMSYN076AAXX  24214 06793 33/// /1908 10036 21020 38369 48444 5//// 333 553// 20000;
0149067930999992011102422004+46750+009550FM-12+156099999V0201801N004619999999N9999999N1+00401-00161999999ADDMA1999999083691MD1819999+9999ME1314449OA149900881REMSYN088AAXX  24224 06793 33/// /1809 10040 21016 38369 48444 58/// 333 55300 20000 91117 91209;
0149067930999992011102423004+46750+009550FM-12+156099999V0201901N004119999999N9999999N1+00391-00141999999ADDMA1999999083681MD1719999+9999ME1314439OA149900821REMSYN088AAXX  24234 06793 33/// /1908 10039 21014 38368 48443 57/// 333 55300 20000 91116 91208;
0149067930999992011102500004+46750+009550FM-12+156099999V0202001N001519999999N9999999N1+00341-00141999999ADDMA1999999083661MD1819999+9999ME1314419OA149900931REMSYN088AAXX  25004 06793 33/// /2003 10034 21014 38366 48441 58/// 333 55300 20000 91118 91210;
0149067930999992011102501004+46750+009550FM-12+156099999V0201801N002619999999N9999999N1+00431-00061999999ADDMA1999999083641MD1719999+9999ME1314399OA149900571REMSYN088AAXX  25014 06793 33/// /1805 10043 21006 38364 48439 57/// 333 55300 20000 91111 91205;
0112067930999992011102502004+46750+009550FM-12+156099999V0201801N003119999999N9999999N1+00451-00041999999ADDMA1999999083581ME1314339REMSYN076AAXX  25024 06793 33/// /1806 10045 21004 38358 48433 5//// 333 553// 20000;
0112067930999992011102503004+46750+009550FM-12+156099999V0201901N003619999999N9999999N1+00421-00041999999ADDMA1999999083541ME1314299REMSYN076AAXX  25034 06793 33/// /1907 10042 21004 38354 48429 5//// 333 553// 20000;
0112067930999992011102504004+46750+009550FM-12+156099999V0201801N003119999999N9999999N1+00401-00021999999ADDMA1999999083471ME1314229REMSYN076AAXX  25044 06793 33/// /1806 10040 21002 38347 48422 5//// 333 553// 20000;
0149067930999992011102505004+46750+009550FM-12+156099999V0201801N003619999999N9999999N1+00461+00021999999ADDMA1999999083381MD1819999+9999ME1314139OA149900721REMSYN088AAXX  25054 06793 33/// /1807 10046 20002 38338 48413 58/// 333 55300 20000 91114 91207;
0182067930999992011102506004+46750+009550FM-12+156099999V0201701N004119999999N9999999N1+00541+00081999999ADDGJ103669KA1999N+00301MA1999999083361MD1719999+9999ME1314119OA149900721REMSYN100AAXX  25064 06793 33/// /1708 10054 20008 38336 48411 57/// 333 20030 55061 55300 20000 91114 91208;
0112067930999992011102507004+46750+009550FM-12+156099999V0201701N004119999999N9999999N1+00611+00161999999ADDMA1999999083361ME1314109REMSYN076AAXX  25074 06793 33/// /1708 10061 20016 38336 48410 5//// 333 553// 20101;
0112067930999992011102508004+46750+009550FM-12+156099999V0201601N006219999999N9999999N1+00751+00211999999ADDMA1999999083311ME1314059REMSYN076AAXX  25084 06793 33/// /1612 10075 20021 38331 48405 5//// 333 553// 20324;
0112067930999992011102509004+46750+009550FM-12+156099999V0201601N005119999999N9999999N1+00851+00251999999ADDMA1999999083321ME1314059REMSYN076AAXX  25094 06793 33/// /1610 10085 20025 38332 48405 5//// 333 553// 20677;
0112067930999992011102510004+46750+009550FM-12+156099999V0201601N005719999999N9999999N1+00871+00261999999ADDMA1999999083321ME1314059REMSYN076AAXX  25104 06793 33/// /1611 10087 20026 38332 48405 5//// 333 553// 20886;
0112067930999992011102511004+46750+009550FM-12+156099999V0201701N005719999999N9999999N1+00941+00251999999ADDMA1999999083331ME1314059REMSYN076AAXX  25114 06793 33/// /1711 10094 20025 38333 48405 5//// 333 553// 20500;
0112067930999992011102512004+46750+009550FM-12+156099999V0201801N006219999999N9999999N1+00991+00241999999ADDMA1999999083301ME1314029REMSYN076AAXX  25124 06793 33/// /1812 10099 20024 38330 48402 5//// 333 553// 20637;
0112067930999992011102513004+46750+009550FM-12+156099999V0201601N004119999999N9999999N1+00911+00271999999ADDMA1999999083371ME1314109REMSYN076AAXX  25134 06793 33/// /1608 10091 20027 38337 48410 5//// 333 553// 20400;
0118067930999992011102514004+46750+009550FM-12+156099999V0201601N004619999999N9999999N1+00671+00441999999ADDMA1999999083401ME1314149REMSYN082AAXX  25144 06793 23/// /1609 10067 20044 38340 48414 5//// 333 553// 20234 69945;
0118067930999992011102515004+46750+009550FM-12+156099999V0201701N002619999999N9999999N1+00571+00511999999ADDMA1999999083461ME1314219REMSYN082AAXX  25154 06793 23/// /1705 10057 20051 38346 48421 5//// 333 553// 20115 60015;
0155067930999992011102516004+46750+009550FM-12+156099999V0201701N003119999999N9999999N1+00521+00501999999ADDMA1999999083491MD1219999+9999ME1314249OA149900511REMSYN094AAXX  25164 06793 23/// /1706 10052 20050 38349 48424 52/// 333 55300 20043 60015 91110 91206;
0155067930999992011102517004+46750+009550FM-12+156099999V0201701N002619999999N9999999N1+00481+00481999999ADDMA1999999083541MD1219999+9999ME1314299OA149900511REMSYN094AAXX  25174 06793 23/// /1705 10048 20048 38354 48429 52/// 333 55300 20000 60025 91110 91206;
0154067930999992011102518004+46750+009550FM-12+156099999V0201701N002619999999N9999999N1+00451+00441999999ADDAA112005191KA1120M+00991MA1999999083551ME1314309REMSYN094AAXX  25184 06793 03/// /1705 10045 20044 38355 48430 5//// 60052 333 10099 553// 20000 60015;
0096067930999992011102519004+46750+009550FM-12+156099999V0201901N003119999999N9999999N1+00461+00451999999ADDMA1999999083571ME1314329REMSYN060AAXX  25194 06793 43/// /1906 10046 20045 38357 48432 5////;
0118067930999992011102520004+46750+009550FM-12+156099999V0201801N003119999999N9999999N1+00461+00431999999ADDMA1999999083611ME1314369REMSYN082AAXX  25204 06793 23/// /1806 10046 20043 38361 48436 5//// 333 553// 20000 69915;
0118067930999992011102521004+46750+009550FM-12+156099999V0201701N003119999999N9999999N1+00431+00431999999ADDMA1999999083601ME1314359REMSYN082AAXX  25214 06793 23/// /1706 10043 20043 38360 48435 5//// 333 553// 20000 69915;
0118067930999992011102522004+46750+009550FM-12+156099999V0201901N002619999999N9999999N1+00451+00451999999ADDMA1999999083601ME1314359REMSYN082AAXX  25224 06793 23/// /1905 10045 20045 38360 48435 5//// 333 553// 20000 69915;
0112067930999992011102523004+46750+009550FM-12+156099999V0201901N001519999999N9999999N1+00431+00431999999ADDMA1999999083621ME1314379REMSYN076AAXX  25234 06793 33/// /1903 10043 20043 38362 48437 5//// 333 553// 20000;
0135067930999992011102600004+46750+009550FM-12+156099999V0202001N001519999999N9999999N1+00401+00401999999ADDAA106000891MA1999999083671ME1314429REMSYN088AAXX  26004 06793 03/// /2003 10040 20040 38367 48442 5//// 69971 333 553// 20000 60005;
0112067930999992011102601004+46750+009550FM-12+156099999V0203301N001519999999N9999999N1+00381+00371999999ADDMA1999999083711ME1314469REMSYN076AAXX  26014 06793 33/// /3303 10038 20037 38371 48446 5//// 333 553// 20000;
0112067930999992011102602004+46750+009550FM-12+156099999V0200201N003119999999N9999999N1+00331+00331999999ADDMA1999999083741ME1314499REMSYN076AAXX  26024 06793 33/// /0206 10033 20033 38374 48449 5//// 333 553// 20000;
0112067930999992011102603004+46750+009550FM-12+156099999V0203501N004619999999N9999999N1+00351+00351999999ADDMA1999999083761ME1314519REMSYN076AAXX  26034 06793 33/// /3509 10035 20035 38376 48451 5//// 333 553// 20000;
0112067930999992011102604004+46750+009550FM-12+156099999V0209999C004619999999N9999999N1+00351+00351999999ADDMA1999999083781ME1314539REMSYN076AAXX  26044 06793 33/// /0009 10035 20035 38378 48453 5//// 333 553// 20000;
0112067930999992011102605004+46750+009550FM-12+156099999V0203601N004619999999N9999999N1+00331+00331999999ADDMA1999999083821ME1314579REMSYN076AAXX  26054 06793 33/// /3609 10033 20033 38382 48457 5//// 333 553// 20000;
0221067930999992011102606004+46750+009550FM-12+156099999V0203501N003619999999N9999999N1+00311+00311999999ADDAA112000891AL14800591GJ100249KA1999N+00321MA1999999083891MD1319999+9999ME1314649OA149900721REMSYN118AAXX  26064 06793 03/// /3507 10031 20031 38389 48464 53/// 69972 333 20032 55004 55300 20000 60005 70059 91114 91210;
0112067930999992011102607004+46750+009550FM-12+156099999V0209999C002619999999N9999999N1+00301+00301999999ADDMA1999999083971ME1314729REMSYN076AAXX  26074 06793 33/// /0005 10030 20030 38397 48472 5//// 333 553// 20011;
0112067930999992011102608004+46750+009550FM-12+156099999V0203601N001519999999N9999999N1+00311+00311999999ADDMA1999999084041ME1314789REMSYN076AAXX  26084 06793 33/// /3603 10031 20031 38404 48478 5//// 333 553// 20072;
0112067930999992011102609004+46750+009550FM-12+156099999V0209999C003619999999N9999999N1+00311+00311999999ADDMA1999999084071ME1314819REMSYN076AAXX  26094 06793 33/// /0007 10031 20031 38407 48481 5//// 333 553// 20212;
0149067930999992011102610004+46750+009550FM-12+156099999V0203401N001519999999N9999999N1+00351+00351999999ADDMA1999999084101MD1219999+9999ME1314849OA149900411REMSYN088AAXX  26104 06793 33/// /3403 10035 20035 38410 48484 52/// 333 55300 20594 91108 91205;
0149067930999992011102611004+46750+009550FM-12+156099999V0203501N002119999999N9999999N1+00441+00441999999ADDMA1999999084081MD1219999+9999ME1314829OA149900461REMSYN088AAXX  26114 06793 33/// /3504 10044 20044 38408 48482 52/// 333 55302 20965 91109 91206;
0112067930999992011102612004+46750+009550FM-12+156099999V0203501N002119999999N9999999N1+00521+00511999999ADDMA1999999084071ME1314819REMSYN076AAXX  26124 06793 33/// /3504 10052 20051 38407 48481 5//// 333 553// 20943;
0112067930999992011102613004+46750+009550FM-12+156099999V0200101N001019999999N9999999N1+00551+00521999999ADDMA1999999084071ME1314809REMSYN076AAXX  26134 06793 33/// /0102 10055 20052 38407 48480 5//// 333 553// 20824;
0112067930999992011102614004+46750+009550FM-12+156099999V0209999C002119999999N9999999N1+00481+00481999999ADDMA1999999084091ME1314839REMSYN076AAXX  26144 06793 33/// /0004 10048 20048 38409 48483 5//// 333 553// 20511;
0155067930999992011102615004+46750+009550FM-12+156099999V0203201N002119999999N9999999N1+00471+00471999999ADDMA1999999084111MD1319999+9999ME1314859OA149900361REMSYN094AAXX  26154 06793 23/// /3204 10047 20047 38411 48485 53/// 333 55300 20266 69935 91107 91205;
0149067930999992011102616004+46750+009550FM-12+156099999V0200301N000519999999N9999999N1+00421+00421999999ADDMA1999999084121MD1219999+9999ME1314869OA149900411REMSYN088AAXX  26164 06793 33/// /0301 10042 20042 38412 48486 52/// 333 55300 20155 91108 91205;
0112067930999992011102617004+46750+009550FM-12+156099999V0201901N002119999999N9999999N1+00461+00461999999ADDMA1999999084151ME1314899REMSYN076AAXX  26174 06793 33/// /1904 10046 20046 38415 48489 5//// 333 553// 20007;
0154067930999992011102618004+46750+009550FM-12+156099999V0202001N002119999999N9999999N1+00401+00401999999ADDAA112000391KA1120M+00571MA1999999084191ME1314939REMSYN094AAXX  26184 06793 03/// /2004 10040 20040 38419 48493 5//// 69932 333 10057 553// 20000 60005;
0112067930999992011102619004+46750+009550FM-12+156099999V0201901N002619999999N9999999N1+00311+00311999999ADDMA1999999084211ME1314959REMSYN076AAXX  26194 06793 33/// /1905 10031 20031 38421 48495 5//// 333 553// 20000;
0112067930999992011102620004+46750+009550FM-12+156099999V0201801N002619999999N9999999N1+00311+00311999999ADDMA1999999084221ME1314969REMSYN076AAXX  26204 06793 33/// /1805 10031 20031 38422 48496 5//// 333 553// 20000;
0112067930999992011102621004+46750+009550FM-12+156099999V0201801N002119999999N9999999N1+00291+00291999999ADDMA1999999084261ME1315009REMSYN076AAXX  26214 06793 33/// /1804 10029 20029 38426 48500 5//// 333 553// 20000;
0112067930999992011102622004+46750+009550FM-12+156099999V0201701N002119999999N9999999N1+00201+00201999999ADDMA1999999084271ME1315019REMSYN076AAXX  26224 06793 33/// /1704 10020 20020 38427 48501 5//// 333 553// 20000;
0112067930999992011102623004+46750+009550FM-12+156099999V0201601N002119999999N9999999N1+00201+00201999999ADDMA1999999084281ME1315029REMSYN076AAXX  26234 06793 33/// /1604 10020 20020 38428 48502 5//// 333 553// 20000;
0149067930999992011102700004+46750+009550FM-12+156099999V0201801N002619999999N9999999N1+00131+00131999999ADDMA1999999084281MD1219999+9999ME1315029OA149900511REMSYN088AAXX  27004 06793 33/// /1805 10013 20013 38428 48502 52/// 333 55300 20000 91110 91206;
0112067930999992011102701004+46750+009550FM-12+156099999V0201801N003119999999N9999999N1+00061+00061999999ADDMA1999999084271ME1315019REMSYN076AAXX  27014 06793 33/// /1806 10006 20006 38427 48501 5//// 333 553// 20000;
0112067930999992011102702004+46750+009550FM-12+156099999V0201801N003119999999N9999999N1+00031+00031999999ADDMA1999999084241ME1314989REMSYN076AAXX  27024 06793 33/// /1806 10003 20003 38424 48498 5//// 333 553// 20000;
0112067930999992011102703004+46750+009550FM-12+156099999V0201901N003619999999N9999999N1+00081+00081999999ADDMA1999999084191ME1314939REMSYN076AAXX  27034 06793 33/// /1907 10008 20008 38419 48493 5//// 333 553// 20000;
0112067930999992011102704004+46750+009550FM-12+156099999V0201901N004119999999N9999999N1+00061+00061999999ADDMA1999999084181ME1314939REMSYN076AAXX  27044 06793 33/// /1908 10006 20006 38418 48493 5//// 333 553// 20000;
0112067930999992011102705004+46750+009550FM-12+156099999V0202001N005119999999N9999999N1+00161+00151999999ADDMA1999999084171ME1314919REMSYN076AAXX  27054 06793 33/// /2010 10016 20015 38417 48491 5//// 333 553// 20000;
0151067930999992011102706004+46750+009550FM-12+156099999V0202001N004619999999N9999999N1+00141-00061999999ADDGJ100189KA1999N+00011MA1999999084171ME1314919REMSYN094AAXX  27064 06793 33/// /2009 10014 21006 38417 48491 5//// 333 20001 55003 553// 20004 70003;
0112067930999992011102707004+46750+009550FM-12+156099999V0202001N005119999999N9999999N1+00181-00131999999ADDMA1999999084191ME1314939REMSYN076AAXX  27074 06793 33/// /2010 10018 21013 38419 48493 5//// 333 553// 20119;
0112067930999992011102708004+46750+009550FM-12+156099999V0201901N004119999999N9999999N1+00421-00201999999ADDMA1999999084221ME1314959REMSYN076AAXX  27084 06793 33/// /1908 10042 21020 38422 48495 5//// 333 553// 20479;
0149067930999992011102709004+46750+009550FM-12+156099999V0201801N004119999999N9999999N1+00731-00231999999ADDMA1999999084231MD1219999+9999ME1314969OA149900821REMSYN088AAXX  27094 06793 33/// /1808 10073 21023 38423 48496 52/// 333 55308 21375 91116 91211;
0149067930999992011102710004+46750+009550FM-12+156099999V0201701N004619999999N9999999N1+00931-00551999999ADDMA1999999084251MD1219999+9999ME1314979OA149900931REMSYN088AAXX  27104 06793 33/// /1709 10093 21055 38425 48497 52/// 333 55308 21703 91118 91208;
0149067930999992011102711004+46750+009550FM-12+156099999V0201701N004619999999N9999999N1+01071-00491999999ADDMA1999999084251MD1219999+9999ME1314979OA149901081REMSYN088AAXX  27114 06793 33/// /1709 10107 21049 38425 48497 52/// 333 55308 21782 91121 91211;
0112067930999992011102712004+46750+009550FM-12+156099999V0201701N003619999999N9999999N1+01041-00671999999ADDMA1999999084241ME1314969REMSYN076AAXX  27124 06793 33/// /1707 10104 21067 38424 48496 5//// 333 553// 21267;
0112067930999992011102713004+46750+009550FM-12+156099999V0201701N003619999999N9999999N1+00961-00461999999ADDMA1999999084271ME1314999REMSYN076AAXX  27134 06793 33/// /1707 10096 21046 38427 48499 5//// 333 553// 21271;
0112067930999992011102714004+46750+009550FM-12+156099999V0201701N003619999999N9999999N1+01081-00631999999ADDMA1999999084251ME1314979REMSYN076AAXX  27144 06793 33/// /1707 10108 21063 38425 48497 5//// 333 553// 21116;
0112067930999992011102715004+46750+009550FM-12+156099999V0201601N003619999999N9999999N1+00921-00501999999ADDMA1999999084291ME1315019REMSYN076AAXX  27154 06793 33/// /1607 10092 21050 38429 48501 5//// 333 553// 20356;
0149067930999992011102716004+46750+009550FM-12+156099999V0201701N003619999999N9999999N1+00761-00431999999ADDMA1999999084341MD1219999+9999ME1315069OA149900621REMSYN088AAXX  27164 06793 33/// /1707 10076 21043 38434 48506 52/// 333 55300 20115 91112 91207;
0149067930999992011102717004+46750+009550FM-12+156099999V0201801N003119999999N9999999N1+00581-00341999999ADDMA1999999084361MD1310111+9999ME1315099OA149900621REMSYN088AAXX  27174 06793 33/// /1806 10058 21034 38436 48509 53011 333 55300 20007 91112 91207;
0168067930999992011102718004+46750+009550FM-12+156099999V0201801N003619999999N9999999N1+00541-00341999999ADDKA1120M+01091MA1999999084401MD1219999+9999ME1315139OA149900821REMSYN094AAXX  27184 06793 33/// /1807 10054 21034 38440 48513 52/// 333 10109 55300 20000 91116 91209;
0112067930999992011102719004+46750+009550FM-12+156099999V0201901N004619999999N9999999N1+00551-00351999999ADDMA1999999084431ME1315159REMSYN076AAXX  27194 06793 33/// /1909 10055 21035 38443 48515 5//// 333 553// 20000;
0112067930999992011102720004+46750+009550FM-12+156099999V0202001N004619999999N9999999N1+00551-00331999999ADDMA1999999084451ME1315179REMSYN076AAXX  27204 06793 33/// /2009 10055 21033 38445 48517 5//// 333 553// 20000;
0112067930999992011102721004+46750+009550FM-12+156099999V0202001N003619999999N9999999N1+00531-00351999999ADDMA1999999084501ME1315229REMSYN076AAXX  27214 06793 33/// /2007 10053 21035 38450 48522 5//// 333 553// 20000;
0149067930999992011102722004+46750+009550FM-12+156099999V0202101N001519999999N9999999N1+00461-00381999999ADDMA1999999084531MD1319999+9999ME1315259OA149900721REMSYN088AAXX  27224 06793 33/// /2103 10046 21038 38453 48525 53/// 333 55300 20000 91114 91208;
0112067930999992011102723004+46750+009550FM-12+156099999V0202101N002619999999N9999999N1+00421-00401999999ADDMA1999999084581ME1315309REMSYN076AAXX  27234 06793 33/// /2105 10042 21040 38458 48530 5//// 333 553// 20000;
0149067930999992011102800004+46750+009550FM-12+156099999V0201801N002619999999N9999999N1+00191-00381999999ADDMA1999999084601MD1219999+9999ME1315329OA149900721REMSYN088AAXX  28004 06793 33/// /1805 10019 21038 38460 48532 52/// 333 55300 20000 91114 91209;
0112067930999992011102801004+46750+009550FM-12+156099999V0201701N002619999999N9999999N1+00131-00361999999ADDMA1999999084651ME1315379REMSYN076AAXX  28014 06793 33/// /1705 10013 21036 38465 48537 5//// 333 553// 20000;
0112067930999992011102802004+46750+009550FM-12+156099999V0201901N004619999999N9999999N1+00321-00371999999ADDMA1999999084661ME1315389REMSYN076AAXX  28024 06793 33/// /1909 10032 21037 38466 48538 5//// 333 553// 20000;
0112067930999992011102803004+46750+009550FM-12+156099999V0201701N002619999999N9999999N1+00121-00391999999ADDMA1999999084671ME1315399REMSYN076AAXX  28034 06793 33/// /1705 10012 21039 38467 48539 5//// 333 553// 20000;
0112067930999992011102804004+46750+009550FM-12+156099999V0202001N002619999999N9999999N1+00331-00461999999ADDMA1999999084721ME1315449REMSYN076AAXX  28044 06793 33/// /2005 10033 21046 38472 48544 5//// 333 553// 20000;
0149067930999992011102805004+46750+009550FM-12+156099999V0201901N004119999999N9999999N1+00221-00421999999ADDMA1999999084751MD1219999+9999ME1315479OA149900571REMSYN088AAXX  28054 06793 33/// /1908 10022 21042 38475 48547 52/// 333 55300 20000 91111 91208;
0198067930999992011102806004+46750+009550FM-12+156099999V0201901N004119999999N9999999N1+00441-00531999999ADDAL19900091GJ103249KA1999N+00111MA1999999084761MD1219999+9999ME1315489OA149900621REMSYN106AAXX  28064 06793 33/// /1908 10044 21053 38476 48548 52/// 333 20011 55054 55300 20004 70000 91112 91209;
0149067930999992011102807004+46750+009550FM-12+156099999V0201901N003619999999N9999999N1+00351-00521999999ADDMA1999999084821MD1319999+9999ME1315539OA149900511REMSYN088AAXX  28074 06793 33/// /1907 10035 21052 38482 48553 53/// 333 55300 20072 91110 91207;
0112067930999992011102808004+46750+009550FM-12+156099999V0201801N003619999999N9999999N1+00561-00471999999ADDMA1999999084871ME1315589REMSYN076AAXX  28084 06793 33/// /1807 10056 21047 38487 48558 5//// 333 553// 20364;
0149067930999992011102809004+46750+009550FM-12+156099999V0201401N002119999999N9999999N1+00781-00461999999ADDMA1999999084921MD1119999+9999ME1315639OA149900511REMSYN088AAXX  28094 06793 33/// /1404 10078 21046 38492 48563 51/// 333 55308 21220 91110 91208;
0149067930999992011102810004+46750+009550FM-12+156099999V0209999C001519999999N9999999N1+01031-00621999999ADDMA1999999084951MD1119999+9999ME1315669OA149900261REMSYN088AAXX  28104 06793 33/// /0003 10103 21062 38495 48566 51/// 333 55308 21649 91105 91203;
0149067930999992011102811004+46750+009550FM-12+156099999V0203501N002119999999N9999999N1+01121-00731999999ADDMA1999999084921MD1019999+9999ME1315639OA149900311REMSYN088AAXX  28114 06793 33/// /3504 10112 21073 38492 48563 50/// 333 55308 21930 91106 91204;
0112067930999992011102812004+46750+009550FM-12+156099999V0203501N002619999999N9999999N1+01131-00851999999ADDMA1999999084901ME1315619REMSYN076AAXX  28124 06793 33/// /3505 10113 21085 38490 48561 5//// 333 553// 21930;
0112067930999992011102813004+46750+009550FM-12+156099999V0200101N004119999999N9999999N1+01041-00931999999ADDMA1999999084901ME1315619REMSYN076AAXX  28134 06793 33/// /0108 10104 21093 38490 48561 5//// 333 553// 21681;
0112067930999992011102814004+46750+009550FM-12+156099999V0203501N004119999999N9999999N1+00891-00651999999ADDMA1999999084921ME1315639REMSYN076AAXX  28144 06793 33/// /3508 10089 21065 38492 48563 5//// 333 553// 21055;
0149067930999992011102815004+46750+009550FM-12+156099999V0200201N003619999999N9999999N1+00821-00341999999ADDMA1999999084971MD1319999+9999ME1315689OA149900671REMSYN088AAXX  28154 06793 33/// /0207 10082 21034 38497 48568 53/// 333 55302 20403 91113 91210;
0149067930999992011102816004+46750+009550FM-12+156099999V0200201N002619999999N9999999N1+00741+00071999999ADDMA1999999085021MD1319999+9999ME1315739OA149900511REMSYN088AAXX  28164 06793 33/// /0205 10074 20007 38502 48573 53/// 333 55300 20126 91110 91206;
0149067930999992011102817004+46750+009550FM-12+156099999V0200301N002119999999N9999999N1+00651+00231999999ADDMA1999999085091MD1319999+9999ME1315799OA149900411REMSYN088AAXX  28174 06793 33/// /0304 10065 20023 38509 48579 53/// 333 55300 20004 91108 91205;
0168067930999992011102818004+46750+009550FM-12+156099999V0200101N002119999999N9999999N1+00611+00251999999ADDKA1120M+01151MA1999999085151MD1219999+9999ME1315859OA149900671REMSYN094AAXX  28184 06793 33/// /0104 10061 20025 38515 48585 52/// 333 10115 55300 20000 91113 91210;
0112067930999992011102819004+46750+009550FM-12+156099999V0202801N001019999999N9999999N1+00671+00351999999ADDMA1999999085141ME1315849REMSYN076AAXX  28194 06793 33/// /2802 10067 20035 38514 48584 5//// 333 553// 20000;
0112067930999992011102820004+46750+009550FM-12+156099999V0201901N002619999999N9999999N1+00481+00081999999ADDMA1999999085151ME1315859REMSYN076AAXX  28204 06793 33/// /1905 10048 20008 38515 48585 5//// 333 553// 20000;
0112067930999992011102821004+46750+009550FM-12+156099999V0201901N003119999999N9999999N1+00271+00021999999ADDMA1999999085161ME1315869REMSYN076AAXX  28214 06793 33/// /1906 10027 20002 38516 48586 5//// 333 553// 20000;
0112067930999992011102822004+46750+009550FM-12+156099999V0201801N003119999999N9999999N1+00181-00051999999ADDMA1999999085161ME1315869REMSYN076AAXX  28224 06793 33/// /1806 10018 21005 38516 48586 5//// 333 553// 20000;
0112067930999992011102823004+46750+009550FM-12+156099999V0201901N003119999999N9999999N1+00311-00141999999ADDMA1999999085141ME1315849REMSYN076AAXX  28234 06793 33/// /1906 10031 21014 38514 48584 5//// 333 553// 20000;
0112067930999992011102900004+46750+009550FM-12+156099999V0201901N002119999999N9999999N1+00411-00241999999ADDMA1999999085131ME1315839REMSYN076AAXX  29004 06793 33/// /1904 10041 21024 38513 48583 5//// 333 553// 20000;
0112067930999992011102901004+46750+009550FM-12+156099999V0201801N003119999999N9999999N1+00441-00291999999ADDMA1999999085121ME1315829REMSYN076AAXX  29014 06793 33/// /1806 10044 21029 38512 48582 5//// 333 553// 20000;
0112067930999992011102902004+46750+009550FM-12+156099999V0201901N003619999999N9999999N1+00361-00291999999ADDMA1999999085081ME1315789REMSYN076AAXX  29024 06793 33/// /1907 10036 21029 38508 48578 5//// 333 553// 20000;
0112067930999992011102903004+46750+009550FM-12+156099999V0201901N003119999999N9999999N1+00351-00321999999ADDMA1999999085031ME1315739REMSYN076AAXX  29034 06793 33/// /1906 10035 21032 38503 48573 5//// 333 553// 20000;
0112067930999992011102904004+46750+009550FM-12+156099999V0201701N002619999999N9999999N1+00411-00311999999ADDMA1999999085031ME1315739REMSYN076AAXX  29044 06793 33/// /1705 10041 21031 38503 48573 5//// 333 553// 20000;
0112067930999992011102905004+46750+009550FM-12+156099999V0201901N003119999999N9999999N1+00521-00321999999ADDMA1999999085021ME1315729REMSYN076AAXX  29054 06793 33/// /1906 10052 21032 38502 48572 5//// 333 553// 20000;
0151067930999992011102906004+46750+009550FM-12+156099999V0202001N003119999999N9999999N1+00501-00271999999ADDGJ103729KA1999N+00181MA1999999085001ME1315719REMSYN094AAXX  29064 06793 33/// /2006 10050 21027 38500 48571 5//// 333 20018 55062 553// 20000 70000;
0112067930999992011102907004+46750+009550FM-12+156099999V0202001N003119999999N9999999N1+00681-00291999999ADDMA1999999085021ME1315729REMSYN076AAXX  29074 06793 33/// /2006 10068 21029 38502 48572 5//// 333 553// 20054;
0096067930999992011102908004+46750+009550FM-12+156099999V0201901N003119999999N9999999N1+00811-00161999999ADDMA1999999085021ME1315739REMSYN060AAXX  29084 06793 43/// /1906 10081 21016 38502 48573 5////;
0112067930999992011102909004+46750+009550FM-12+156099999V0200501N001019999999N9999999N1+01011+00041999999ADDMA1999999085041ME1315749REMSYN076AAXX  29094 06793 33/// /0502 10101 20004 38504 48574 5//// 333 553// 21242;
0112067930999992011102910004+46750+009550FM-12+156099999V0203501N001519999999N9999999N1+01151+00011999999ADDMA1999999085001ME1315719REMSYN076AAXX  29104 06793 33/// /3503 10115 20001 38500 48571 5//// 333 553// 21656;
0112067930999992011102911004+46750+009550FM-12+156099999V0203601N002619999999N9999999N1+01181-00011999999ADDMA1999999084981ME1315699REMSYN076AAXX  29114 06793 33/// /3605 10118 21001 38498 48569 5//// 333 553// 21886;
0112067930999992011102912004+46750+009550FM-12+156099999V0200201N003619999999N9999999N1+01211-00161999999ADDMA1999999084941ME1315659REMSYN076AAXX  29124 06793 33/// /0207 10121 21016 38494 48565 5//// 333 553// 21901;
0112067930999992011102913004+46750+009550FM-12+156099999V0200101N004119999999N9999999N1+01151-00041999999ADDMA1999999084911ME1315629REMSYN076AAXX  29134 06793 33/// /0108 10115 21004 38491 48562 5//// 333 553// 21642;
0096067930999992011102914004+46750+009550FM-12+156099999V0200101N003619999999N9999999N1+01101-00161999999ADDMA1999999084921ME1315639REMSYN060AAXX  29144 06793 43/// /0107 10110 21016 38492 48563 5////;
0112067930999992011102915004+46750+009550FM-12+156099999V0200101N002619999999N9999999N1+00951-00201999999ADDMA1999999084921ME1315639REMSYN076AAXX  29154 06793 33/// /0105 10095 21020 38492 48563 5//// 333 553// 20392;
0112067930999992011102916004+46750+009550FM-12+156099999V0200201N002619999999N9999999N1+00871-00191999999ADDMA1999999084921ME1315639REMSYN076AAXX  29164 06793 33/// /0205 10087 21019 38492 48563 5//// 333 553// 20144;
0112067930999992011102917004+46750+009550FM-12+156099999V0200101N001519999999N9999999N1+00741-00101999999ADDMA1999999084981ME1315699REMSYN076AAXX  29174 06793 33/// /0103 10074 21010 38498 48569 5//// 333 553// 20007;
0131067930999992011102918004+46750+009550FM-12+156099999V0203501N002619999999N9999999N1+00731-00071999999ADDKA1120M+01221MA1999999085021ME1315739REMSYN082AAXX  29184 06793 33/// /3505 10073 21007 38502 48573 5//// 333 10122 553// 20000;
0112067930999992011102919004+46750+009550FM-12+156099999V0202001N002619999999N9999999N1+00681-00111999999ADDMA1999999085011ME1315729REMSYN076AAXX  29194 06793 33/// /2005 10068 21011 38501 48572 5//// 333 553// 20000;
0112067930999992011102920004+46750+009550FM-12+156099999V0202001N002619999999N9999999N1+00571-00021999999ADDMA1999999085001ME1315719REMSYN076AAXX  29204 06793 33/// /2005 10057 21002 38500 48571 5//// 333 553// 20000;
0112067930999992011102921004+46750+009550FM-12+156099999V0201801N002619999999N9999999N1+00521-00101999999ADDMA1999999085001ME1315719REMSYN076AAXX  29214 06793 33/// /1805 10052 21010 38500 48571 5//// 333 553// 20000;
0112067930999992011102922004+46750+009550FM-12+156099999V0201801N002119999999N9999999N1+00541-00091999999ADDMA1999999084981ME1315699REMSYN076AAXX  29224 06793 33/// /1804 10054 21009 38498 48569 5//// 333 553// 20000;
0112067930999992011102923004+46750+009550FM-12+156099999V0201901N003119999999N9999999N1+00481-00131999999ADDMA1999999084941ME1315659REMSYN076AAXX  29234 06793 33/// /1906 10048 21013 38494 48565 5//// 333 553// 20000;
0149067930999992011103000004+46750+009550FM-12+156099999V0201901N003119999999N9999999N1+00421-00111999999ADDMA1999999084921MD1719999+9999ME1315639OA149900461REMSYN088AAXX  30004 06793 33/// /1906 10042 21011 38492 48563 57/// 333 55300 20000 91109 91207;
0112067930999992011103001004+46750+009550FM-12+156099999V0201901N003119999999N9999999N1+00451-00111999999ADDMA1999999084901ME1315619REMSYN076AAXX  30014 06793 33/// /1906 10045 21011 38490 48561 5//// 333 553// 20000;
0112067930999992011103002004+46750+009550FM-12+156099999V0201701N002119999999N9999999N1+00381-00181999999ADDMA1999999084871ME1315589REMSYN076AAXX  30024 06793 33/// /1704 10038 21018 38487 48558 5//// 333 553// 20000;
0112067930999992011103003004+46750+009550FM-12+156099999V0202001N001519999999N9999999N1+00581-00161999999ADDMA1999999084851ME1315569REMSYN076AAXX  30034 06793 33/// /2003 10058 21016 38485 48556 5//// 333 553// 20000;
0112067930999992011103004004+46750+009550FM-12+156099999V0201701N001019999999N9999999N1+00571-00271999999ADDMA1999999084851ME1315569REMSYN076AAXX  30044 06793 33/// /1702 10057 21027 38485 48556 5//// 333 553// 20000;
0112067930999992011103005004+46750+009550FM-12+156099999V0201701N001519999999N9999999N1+00451-00241999999ADDMA1999999084861ME1315579REMSYN076AAXX  30054 06793 33/// /1703 10045 21024 38486 48557 5//// 333 553// 20000;
0151067930999992011103006004+46750+009550FM-12+156099999V0201901N001519999999N9999999N1+00521-00231999999ADDGJ103609KA1999N+00381MA1999999084871ME1315589REMSYN094AAXX  30064 06793 33/// /1903 10052 21023 38487 48558 5//// 333 20038 55060 553// 20000 70000;
0112067930999992011103007004+46750+009550FM-12+156099999V0201801N002119999999N9999999N1+00481-00211999999ADDMA1999999084901ME1315619REMSYN076AAXX  30074 06793 33/// /1804 10048 21021 38490 48561 5//// 333 553// 20050;
0112067930999992011103008004+46750+009550FM-12+156099999V0201801N002119999999N9999999N1+00521-00171999999ADDMA1999999084901ME1315619REMSYN076AAXX  30084 06793 33/// /1804 10052 21017 38490 48561 5//// 333 553// 20245;
0149067930999992011103009004+46750+009550FM-12+156099999V0201401N000519999999N9999999N1+00941+00011999999ADDMA1999999084881MD1010011+9999ME1315599OA149900361REMSYN088AAXX  30094 06793 33/// /1401 10094 20001 38488 48559 50001 333 55308 21246 91107 91206;
0149067930999992011103010004+46750+009550FM-12+156099999V0200201N003119999999N9999999N1+00891-00091999999ADDMA1999999084891MD1019999+9999ME1315609OA149900461REMSYN088AAXX  30104 06793 33/// /0206 10089 21009 38489 48560 50/// 333 55308 21638 91109 91206;
0149067930999992011103011004+46750+009550FM-12+156099999V0203501N004619999999N9999999N1+00961+00111999999ADDMA1999999084851MD1719999+9999ME1315569OA149900621REMSYN088AAXX  30114 06793 33/// /3509 10096 20011 38485 48556 57/// 333 55308 21865 91112 91210;
0112067930999992011103012004+46750+009550FM-12+156099999V0209999C004619999999N9999999N1+01021+00181999999ADDMA1999999084831ME1315549REMSYN076AAXX  30124 06793 33/// /0009 10102 20018 38483 48554 5//// 333 553// 21879;
0112067930999992011103013004+46750+009550FM-12+156099999V0203501N005719999999N9999999N1+01041+00281999999ADDMA1999999084791ME1315509REMSYN076AAXX  30134 06793 33/// /3511 10104 20028 38479 48550 5//// 333 553// 21645;
0112067930999992011103014004+46750+009550FM-12+156099999V0203501N005719999999N9999999N1+00961+00291999999ADDMA1999999084771ME1315489REMSYN076AAXX  30144 06793 33/// /3511 10096 20029 38477 48548 5//// 333 553// 21073;
0149067930999992011103015004+46750+009550FM-12+156099999V0203601N003619999999N9999999N1+00791+00361999999ADDMA1999999084771MD1610061+9999ME1315489OA149900821REMSYN088AAXX  30154 06793 33/// /3607 10079 20036 38477 48548 56006 333 55302 20392 91116 91212;
0149067930999992011103016004+46750+009550FM-12+156099999V0203501N002119999999N9999999N1+00711+00131999999ADDMA1999999084771MD1619999+9999ME1315489OA149900511REMSYN088AAXX  30164 06793 33/// /3504 10071 20013 38477 48548 56/// 333 55300 20137 91110 91207;
0149067930999992011103017004+46750+009550FM-12+156099999V0203401N001519999999N9999999N1+00661-00061999999ADDMA1999999084781MD1319999+9999ME1315499OA149900311REMSYN088AAXX  30174 06793 33/// /3403 10066 21006 38478 48549 53/// 333 55300 20004 91106 91203;
0168067930999992011103018004+46750+009550FM-12+156099999V0203301N001019999999N9999999N1+00711-00131999999ADDKA1120M+01041MA1999999084811MD1319999+9999ME1315529OA149900821REMSYN094AAXX  30184 06793 33/// /3302 10071 21013 38481 48552 53/// 333 10104 55300 20000 91116 91212;
0149067930999992011103019004+46750+009550FM-12+156099999V0201901N001519999999N9999999N1+00631-00141999999ADDMA1999999084791MD1219999+9999ME1315509OA149900211REMSYN088AAXX  30194 06793 33/// /1903 10063 21014 38479 48550 52/// 333 55300 20000 91104 91203;
0112067930999992011103020004+46750+009550FM-12+156099999V0202001N002119999999N9999999N1+00541-00021999999ADDMA1999999084781ME1315499REMSYN076AAXX  30204 06793 33/// /2004 10054 21002 38478 48549 5//// 333 553// 20000;
0112067930999992011103021004+46750+009550FM-12+156099999V0201901N002619999999N9999999N1+00361+00031999999ADDMA1999999084761ME1315489REMSYN076AAXX  30214 06793 33/// /1905 10036 20003 38476 48548 5//// 333 553// 20000;
0112067930999992011103022004+46750+009550FM-12+156099999V0201901N003119999999N9999999N1+00271+00021999999ADDMA1999999084721ME1315449REMSYN076AAXX  30224 06793 33/// /1906 10027 20002 38472 48544 5//// 333 553// 20000;
0112067930999992011103023004+46750+009550FM-12+156099999V0201901N003119999999N9999999N1+00341+00131999999ADDMA1999999084711ME1315439REMSYN076AAXX  30234 06793 33/// /1906 10034 20013 38471 48543 5//// 333 553// 20000;
0149067930999992011103100004+46750+009550FM-12+156099999V0201801N003119999999N9999999N1+00271+00071999999ADDMA1999999084691MD1719999+9999ME1315419OA149900511REMSYN088AAXX  31004 06793 33/// /1806 10027 20007 38469 48541 57/// 333 55300 20000 91110 91206;
0112067930999992011103101004+46750+009550FM-12+156099999V0201901N003619999999N9999999N1+00321+00101999999ADDMA1999999084671ME1315399REMSYN076AAXX  31014 06793 33/// /1907 10032 20010 38467 48539 5//// 333 553// 20000;
0112067930999992011103102004+46750+009550FM-12+156099999V0201801N002619999999N9999999N1+00271+00031999999ADDMA1999999084631ME1315359REMSYN076AAXX  31024 06793 33/// /1805 10027 20003 38463 48535 5//// 333 553// 20000;
0112067930999992011103103004+46750+009550FM-12+156099999V0201901N003119999999N9999999N1+00371+00051999999ADDMA1999999084581ME1315309REMSYN076AAXX  31034 06793 33/// /1906 10037 20005 38458 48530 5//// 333 553// 20000;
0112067930999992011103104004+46750+009550FM-12+156099999V0202001N003119999999N9999999N1+00421+00031999999ADDMA1999999084581ME1315309REMSYN076AAXX  31044 06793 33/// /2006 10042 20003 38458 48530 5//// 333 553// 20000;
0112067930999992011103105004+46750+009550FM-12+156099999V0201801N002619999999N9999999N1+00381+00011999999ADDMA1999999084561ME1315289REMSYN076AAXX  31054 06793 33/// /1805 10038 20001 38456 48528 5//// 333 553// 20000;
0198067930999992011103106004+46750+009550FM-12+156099999V0202001N002619999999N9999999N1+00391-00021999999ADDAL19900091GJ103729KA1999N+00201MA1999999084561MD1719999+9999ME1315289OA149900511REMSYN106AAXX  31064 06793 33/// /2005 10039 21002 38456 48528 57/// 333 20020 55062 55300 20000 70000 91110 91207;
0112067930999992011103107004+46750+009550FM-12+156099999V0202001N003119999999N9999999N1+00571-00031999999ADDMA1999999084571ME1315299REMSYN076AAXX  31074 06793 33/// /2006 10057 21003 38457 48529 5//// 333 553// 20047;
0112067930999992011103108004+46750+009550FM-12+156099999V0201801N003119999999N9999999N1+00401+00011999999ADDMA1999999084571ME1315299REMSYN076AAXX  31084 06793 33/// /1806 10040 20001 38457 48529 5//// 333 553// 20223;
