0191067940999992011010100004+46350+010067FM-12+107899999V0200501N001012200019N0200001N1-00571-00971999999ADDGA1001+999999999GF100991001001999999001001MA1999999089551MD1810031+9999ME1314869OA149900311REMSYN088AAXX  01004 06794 32970 00502 11057 21097 38955 48486 58003 333 55300 20000 91106 91205;
0149067940999992011010101004+46350+010067FM-12+107899999V0200601N001519999999N9999999N1-00601-01001999999ADDMA1999999089521MD1710061+9999ME1314839OA149900261REMSYN088AAXX  01014 06794 33/// /0603 11060 21100 38952 48483 57006 333 55300 20000 91105 91203;
0149067940999992011010102004+46350+010067FM-12+107899999V0200501N000519999999N9999999N1-00661-01021999999ADDMA1999999089521MD1710051+9999ME1314829OA149900261REMSYN088AAXX  01024 06794 33/// /0501 11066 21102 38952 48482 57005 333 55300 20000 91105 91203;
0191067940999992011010103004+46350+010067FM-12+107899999V0200601N001012200019N0200001N1-00601-01031999999ADDGA1001+999999999GF100991001001999999001001MA1999999089471MD1710081+9999ME1314799OA149900311REMSYN088AAXX  01034 06794 32970 00602 11060 21103 38947 48479 57008 333 55300 20000 91106 91204;
0149067940999992011010104004+46350+010067FM-12+107899999V0200501N001519999999N9999999N1-00651-01001999999ADDMA1999999089451MD1710071+9999ME1314779OA149900311REMSYN088AAXX  01044 06794 33/// /0503 11065 21100 38945 48477 57007 333 55300 20000 91106 91204;
0149067940999992011010105004+46350+010067FM-12+107899999V0200501N001019999999N9999999N1-00591-00981999999ADDMA1999999089441MD1710081+9999ME1314779OA149900211REMSYN088AAXX  01054 06794 33/// /0502 11059 21098 38944 48477 57008 333 55300 20000 91104 91203;
0299067940999992011010106004+46350+010067FM-12+107899999V0200501N001512200019N0200001N1-00691-01011999999ADDAJ100159199999999AL19900091GA1001+999999999GF100991001001999999001001GJ102769IA1279IA2999-01109KA1999N-00901MA1999999089421MD1710051+9999ME1314739OA149900311REMSYN130AAXX  01064 06794 32970 00503 11069 21101 38942 48473 57005 333 21090 3/111 43015 55046 55300 20000 70000 90768 93100 91106 91205;
0149067940999992011010107004+46350+010067FM-12+107899999V0200401N001019999999N9999999N1-00711-01041999999ADDMA1999999089411MD1710041+9999ME1314729OA149900211REMSYN088AAXX  01074 06794 33/// /0402 11071 21104 38941 48472 57004 333 55300 20000 91104 91203;
0149067940999992011010108004+46350+010067FM-12+107899999V0200401N001019999999N9999999N1-00731-01111999999ADDMA1999999089411MD1719999+9999ME1314729OA149900211REMSYN088AAXX  01084 06794 33/// /0402 11073 21111 38941 48472 57/// 333 55300 20029 91104 91203;
0096067940999992011010109004+46350+010067FM-12+107899999V0200501N001519999999N9999999N1-00811-01151999999ADDMA1999999089361ME1314669REMSYN060AAXX  01094 06794 43/// /0503 11081 21115 38936 48466 5////;
0096067940999992011010110004+46350+010067FM-12+107899999V0200701N000519999999N9999999N1-00511-01001999999ADDMA1999999089301ME1314669REMSYN060AAXX  01104 06794 43/// /0701 11051 21100 38930 48466 5////;
0149067940999992011010111004+46350+010067FM-12+107899999V0209999C000019999999N9999999N1+00021-00901999999ADDMA1999999089211MD1810201+9999ME1314659OA149900211REMSYN088AAXX  01114 06794 33/// /0000 10002 21090 38921 48465 58020 333 553// 2//// 91104 91203;
0138067940999992011010112004+46350+010067FM-12+107899999V0202001N000512200019N0250001N1+00151-01081999999ADDGA1001+999999999GF100991001001999999001001MA1999999089171ME1314649REMSYN060AAXX  01124 06794 42975 02001 10015 21108 38917 48464 5////;
0096067940999992011010113004+46350+010067FM-12+107899999V0202401N001019999999N9999999N1+00251-01201999999ADDMA1999999089121ME1314619REMSYN060AAXX  01134 06794 43/// /2402 10025 21120 38912 48461 5////;
0096067940999992011010114004+46350+010067FM-12+107899999V0202101N000519999999N9999999N1+00011-00931999999ADDMA1999999089111ME1314569REMSYN060AAXX  01144 06794 43/// /2101 10001 21093 38911 48456 5////;
0138067940999992011010115004+46350+010067FM-12+107899999V0200401N000512200019N0250001N1-00151-00821999999ADDGA1001+999999999GF100991001001999999001001MA1999999089111ME1314549REMSYN060AAXX  01154 06794 42975 00401 11015 21082 38911 48454 5////;
0096067940999992011010116004+46350+010067FM-12+107899999V0200601N000519999999N9999999N1-00331-00821999999ADDMA1999999089101ME1314519REMSYN060AAXX  01164 06794 43/// /0601 11033 21082 38910 48451 5////;
0096067940999992011010117004+46350+010067FM-12+107899999V0200601N001019999999N9999999N1-00391-00831999999ADDMA1999999089091ME1314499REMSYN060AAXX  01174 06794 43/// /0602 11039 21083 38909 48449 5////;
0205067940999992011010118004+46350+010067FM-12+107899999V0200601N001512200019N0200001N1-00521-00871999999ADDAJ100159199999999AL10600091GA1001+999999999GF100991001001999999001001IA1279MA1999999089051ME1314449MW1021REMSYN088AAXX  01184 06794 41970 00603 11052 21087 38905 48444 5//// 702// 333 43015 90766 93100;
0112067940999992011010119004+46350+010067FM-12+107899999V0200401N000519999999N9999999N1-00501-00881999999ADDMA1999999089011ME1314409REMSYN076AAXX  01194 06794 33/// /0401 11050 21088 38901 48440 5//// 333 553// 20000;
0149067940999992011010120004+46350+010067FM-12+107899999V0200501N001019999999N9999999N1-00511-00881999999ADDMA1999999089011MD1610081+9999ME1314409OA149900211REMSYN088AAXX  01204 06794 33/// /0502 11051 21088 38901 48440 56008 333 55300 20000 91104 91202;
0191067940999992011010121004+46350+010067FM-12+107899999V0200601N001012200019N0200001N1-00471-00881999999ADDGA1001+999999999GF100991001001999999001001MA1999999089001MD1610051+9999ME1314409OA149900261REMSYN088AAXX  01214 06794 32970 00602 11047 21088 38900 48440 56005 333 55300 20000 91105 91203;
0149067940999992011010122004+46350+010067FM-12+107899999V0200301N000519999999N9999999N1-00481-00891999999ADDMA1999999088981MD1810031+9999ME1314389OA149900211REMSYN088AAXX  01224 06794 33/// /0301 11048 21089 38898 48438 58003 333 55300 20000 91104 91203;
0149067940999992011010123004+46350+010067FM-12+107899999V0209999C000019999999N9999999N1-00541-00931999999ADDMA1999999088951MD1610061+9999ME1314359OA149900211REMSYN088AAXX  01234 06794 33/// /0000 11054 21093 38895 48435 56006 333 55300 20000 91104 91202;
0191067940999992011010200004+46350+010067FM-12+107899999V0200501N001012200019N0200001N1-00621-00971999999ADDGA1001+999999999GF100991001001999999001001MA1999999088911MD1810091+9999ME1314309OA149900261REMSYN088AAXX  02004 06794 32970 00502 11062 21097 38891 48430 58009 333 55300 20000 91105 91203;
0149067940999992011010201004+46350+010067FM-12+107899999V0200301N000519999999N9999999N1-00601-00951999999ADDMA1999999088871MD1810111+9999ME1314279OA149900261REMSYN088AAXX  02014 06794 33/// /0301 11060 21095 38887 48427 58011 333 55300 20000 91105 91202;
0096067940999992011010202004+46350+010067FM-12+107899999V0200401N001519999999N9999999N1-00571-00881999999ADDMA1999999088851ME1314259REMSYN060AAXX  02024 06794 43/// /0403 11057 21088 38885 48425 5////;
0138067940999992011010203004+46350+010067FM-12+107899999V0200601N001012200019N0200001N1-00511-00861999999ADDGA1001+999999999GF100991001001999999001001MA1999999088821ME1314249REMSYN060AAXX  02034 06794 42970 00602 11051 21086 38882 48424 5////;
0096067940999992011010204004+46350+010067FM-12+107899999V0200401N001519999999N9999999N1-00561-00851999999ADDMA1999999088781ME1314199REMSYN060AAXX  02044 06794 43/// /0403 11056 21085 38878 48419 5////;
0096067940999992011010205004+46350+010067FM-12+107899999V0200501N000519999999N9999999N1-00541-00861999999ADDMA1999999088751ME1314179REMSYN060AAXX  02054 06794 43/// /0501 11054 21086 38875 48417 5////;
0244067940999992011010206004+46350+010067FM-12+107899999V0200501N001012200019N0200001N1-00401-00831999999ADDAJ100159199999999AL10600091GA1001+999999999GF100991001001999999001001GJ102769IA1279IA2999-01009KA1999N-00871MA1999999088751ME1314199REMSYN100AAXX  02064 06794 42970 00502 11040 21083 38875 48419 5//// 333 21087 3/110 43015 55046 90768 93100;
0149067940999992011010207004+46350+010067FM-12+107899999V0200801N000519999999N9999999N1-00491-00851999999ADDMA1999999088751MD1510031+9999ME1314189OA149900411REMSYN088AAXX  02074 06794 33/// /0801 11049 21085 38875 48418 55003 333 55300 20000 91108 91202;
0149067940999992011010208004+46350+010067FM-12+107899999V0200801N000519999999N9999999N1-00481-00851999999ADDMA1999999088781MD1210031+9999ME1314219OA149900311REMSYN088AAXX  02084 06794 33/// /0801 11048 21085 38878 48421 52003 333 55300 20029 91106 91202;
0191067940999992011010209004+46350+010067FM-12+107899999V0200701N001012200019N0200001N1-00641-00951999999ADDGA1001+999999999GF100991001001999999001001MA1999999088821MD1210071+9999ME1314229OA149900411REMSYN088AAXX  02094 06794 32970 00702 11064 21095 38882 48422 52007 333 55300 20086 91108 91203;
0149067940999992011010210004+46350+010067FM-12+107899999V0200901N000519999999N9999999N1-00281-00801999999ADDMA1999999088811MD1210061+9999ME1314269OA149900311REMSYN088AAXX  02104 06794 33/// /0901 11028 21080 38881 48426 52006 333 55305 20590 91106 91203;
0149067940999992011010211004+46350+010067FM-12+107899999V0209999C000019999999N9999999N1+00081-00781999999ADDMA1999999088761MD1810021+9999ME1314269OA149900311REMSYN088AAXX  02114 06794 33/// /0000 10008 21078 38876 48426 58002 333 553// 2//// 91106 91203;
0191067940999992011010212004+46350+010067FM-12+107899999V0201901N000512200019N0200001N1+00121-00691999999ADDGA1001+999999999GF100991001001999999001001MA1999999088711MD1710111+9999ME1314229OA149900411REMSYN088AAXX  02124 06794 32970 01901 10012 21069 38871 48422 57011 333 553// 2//// 91108 91203;
0149067940999992011010213004+46350+010067FM-12+107899999V0202001N001519999999N9999999N1+00061-00761999999ADDMA1999999088721MD1710091+9999ME1314229OA149900361REMSYN088AAXX  02134 06794 33/// /2003 10006 21076 38872 48422 57009 333 553// 2//// 91107 91203;
0112067940999992011010214004+46350+010067FM-12+107899999V0202201N001519999999N9999999N1-00081-00761999999ADDMA1999999088751ME1314239REMSYN076AAXX  02144 06794 33/// /2203 11008 21076 38875 48423 5//// 333 553// 20904;
0191067940999992011010215004+46350+010067FM-12+107899999V0202201N001012200019N0200001N1-00231-00761999999ADDGA1001+999999999GF100991001001999999001001MA1999999088811MD1310101+9999ME1314269OA149900361REMSYN088AAXX  02154 06794 32970 02202 11023 21076 38881 48426 53010 333 55301 20115 91107 91203;
0149067940999992011010216004+46350+010067FM-12+107899999V0209999C000019999999N9999999N1-00351-00781999999ADDMA1999999088871MD1210151+9999ME1314309OA149900151REMSYN088AAXX  02164 06794 33/// /0000 11035 21078 38887 48430 52015 333 55300 20018 91103 91202;
0149067940999992011010217004+46350+010067FM-12+107899999V0200301N000519999999N9999999N1-00421-00801999999ADDMA1999999088941MD1110191+9999ME1314359OA149900311REMSYN088AAXX  02174 06794 33/// /0301 11042 21080 38894 48435 51019 333 55300 20000 91106 91202;
0168067940999992011010218004+46350+010067FM-12+107899999V0202101N000519999999N9999999N1-00411-00821999999ADDKA1120M+00201MA1999999089021MD1310211+9999ME1314439OA149900361REMSYN094AAXX  02184 06794 33/// /2101 11041 21082 38902 48443 53021 333 10020 55300 20000 91107 91203;
0149067940999992011010219004+46350+010067FM-12+107899999V0209999C000019999999N9999999N1-00531-00871999999ADDMA1999999089061MD1110191+9999ME1314449OA149900361REMSYN088AAXX  02194 06794 33/// /0000 11053 21087 38906 48444 51019 333 55300 20000 91107 91203;
0149067940999992011010220004+46350+010067FM-12+107899999V0202301N001519999999N9999999N1-00311-01251999999ADDMA1999999089101MD1110161+9999ME1314519OA149900621REMSYN088AAXX  02204 06794 33/// /2303 11031 21125 38910 48451 51016 333 55300 20000 91112 91204;
0191067940999992011010221004+46350+010067FM-12+107899999V0201401N001512200019N0200001N1-00521-01261999999ADDGA1001+999999999GF100991001001999999001001MA1999999089161MD1310141+9999ME1314539OA149900771REMSYN088AAXX  02214 06794 32970 01403 11052 21126 38916 48453 53014 333 55300 20000 91115 91204;
0149067940999992011010222004+46350+010067FM-12+107899999V0200401N001519999999N9999999N1-00701-01451999999ADDMA1999999089191MD1110131+9999ME1314539OA149900771REMSYN088AAXX  02224 06794 33/// /0403 11070 21145 38919 48453 51013 333 55300 20000 91115 91204;
0149067940999992011010223004+46350+010067FM-12+107899999V0200401N000519999999N9999999N1-00651-01551999999ADDMA1999999089241MD1110141+9999ME1314589OA149900311REMSYN088AAXX  02234 06794 33/// /0401 11065 21155 38924 48458 51014 333 55300 20000 91106 91204;
0149067940999992011010300004+46350+010067FM-12+107899999V0200601N001019999999N9999999N1-00881-01681999999ADDMA1999999089221MD1210061+9999ME1314539OA149900771REMSYN088AAXX  03004 06794 33/// /0602 11088 21168 38922 48453 52006 333 55300 20000 91115 91204;
0149067940999992011010301004+46350+010067FM-12+107899999V0200601N001019999999N9999999N1-00781-01581999999ADDMA1999999089211MD1010021+9999ME1314549OA149900211REMSYN088AAXX  03014 06794 33/// /0602 11078 21158 38921 48454 50002 333 55300 20000 91104 91203;
0149067940999992011010302004+46350+010067FM-12+107899999V0200101N000519999999N9999999N1-00841-01691999999ADDMA1999999089221MD1519999+9999ME1314549OA149900211REMSYN088AAXX  03024 06794 33/// /0101 11084 21169 38922 48454 55/// 333 55300 20000 91104 91202;
0138067940999992011010303004+46350+010067FM-12+107899999V0201001N000512200019N0200001N1-00901-01591999999ADDGA1001+999999999GF100991001001999999001001MA1999999089211ME1314529REMSYN060AAXX  03034 06794 42970 01001 11090 21159 38921 48452 5////;
0168067940999992011010304004+46350+010067FM-12+107899999V0200601N000519999999N9999999N1-00951-01621999999ADDMA1999999089211MD1410001+9999ME1314519OA149900211REMSYN088AAXX  03044 06794 33/// /0601 11095 21162 38921 48451 57000 333 55300 20000 91104 91202;EQDQ01+000072APCTEN
0149067940999992011010305004+46350+010067FM-12+107899999V0200701N000519999999N9999999N1-00831-01641999999ADDMA1999999089211MD1710011+9999ME1314539OA149900211REMSYN088AAXX  03054 06794 33/// /0701 11083 21164 38921 48453 57001 333 55300 20000 91104 91203;
0299067940999992011010306004+46350+010067FM-12+107899999V0200801N000512200019N0230001N1-01001-01631999999ADDAJ100149199999999AL19900091GA1001+999999999GF100991001001999999001001GJ102769IA1279IA2999-01409KA1999N-01141MA1999999089271MD1210061+9999ME1314569OA149900771REMSYN130AAXX  03064 06794 32973 00801 11100 21163 38927 48456 52006 333 21114 3/114 43014 55046 55300 20000 70000 90768 93100 91115 91204;
0149067940999992011010307004+46350+010067FM-12+107899999V0209999C000019999999N9999999N1-00941-01681999999ADDMA1999999089291MD1210081+9999ME1314589OA149900151REMSYN088AAXX  03074 06794 33/// /0000 11094 21168 38929 48458 52008 333 55300 20000 91103 91202;
0149067940999992011010308004+46350+010067FM-12+107899999V0200701N001019999999N9999999N1-00931-01691999999ADDMA1999999089341MD1119999+9999ME1314639OA149900211REMSYN088AAXX  03084 06794 33/// /0702 11093 21169 38934 48463 51/// 333 55300 20029 91104 91202;
0154067940999992011010309004+46350+010067FM-12+107899999V0209999C000012200019N0220001N1-00861-01631999999ADDGA1001+999999999GF100991001001999999001001MA1999999089371ME1314669REMSYN076AAXX  03094 06794 32972 00000 11086 21163 38937 48466 5//// 333 553// 20090;
0149067940999992011010310004+46350+010067FM-12+107899999V0200901N000519999999N9999999N1-00591-01611999999ADDMA1999999089391MD1110101+9999ME1314729OA149900211REMSYN088AAXX  03104 06794 33/// /0901 11059 21161 38939 48472 51010 333 55305 20608 91104 91202;
0149067940999992011010311004+46350+010067FM-12+107899999V0202101N001019999999N9999999N1-00301-01521999999ADDMA1999999089371MD1010031+9999ME1314759OA149900151REMSYN088AAXX  03114 06794 33/// /2102 11030 21152 38937 48475 50003 333 553// 2//// 91103 91202;
0203067940999992011010312004+46350+010067FM-12+107899999V0209999C000012200019N0220001N1-00241-01211999999ADDGA1001+999999999GF100991001001999999001001MA1999999089321MD1810051+9999ME1314719MW1021OA149900211REMSYN094AAXX  03124 06794 31972 00000 11024 21121 38932 48471 58005 702// 333 553// 2//// 91104 91203;
0149067940999992011010313004+46350+010067FM-12+107899999V0202201N002119999999N9999999N1-00171-01491999999ADDMA1999999089321MD1710071+9999ME1314729OA149900411REMSYN088AAXX  03134 06794 33/// /2204 11017 21149 38932 48472 57007 333 553// 2//// 91108 91205;
0112067940999992011010314004+46350+010067FM-12+107899999V0202001N001519999999N9999999N1-00221-01791999999ADDMA1999999089301ME1314709REMSYN076AAXX  03144 06794 33/// /2003 11022 21179 38930 48470 5//// 333 553// 20950;
0166067940999992011010315004+46350+010067FM-12+107899999V0200901N000512200019N0220001N1-00451-01521999999ADDGA1001+999999999GF100991001001999999001001MA1999999089341ME1314709MW1021REMSYN082AAXX  03154 06794 31972 00901 11045 21152 38934 48470 5//// 702// 333 553// 20133;
0149067940999992011010316004+46350+010067FM-12+107899999V0200601N001019999999N9999999N1-00591-01311999999ADDMA1999999089381MD1210061+9999ME1314719OA149900211REMSYN088AAXX  03164 06794 33/// /0602 11059 21131 38938 48471 52006 333 55300 20022 91104 91203;
0149067940999992011010317004+46350+010067FM-12+107899999V0200501N001019999999N9999999N1-00731-01271999999ADDMA1999999089411MD1210111+9999ME1314729OA149900311REMSYN088AAXX  03174 06794 33/// /0502 11073 21127 38941 48472 52011 333 55300 20000 91106 91203;
0261067940999992011010318004+46350+010067FM-12+107899999V0200601N000512200019N0220001N1-00721-01551999999ADDAJ100159199999999AL19900091GA1001+999999999GF100991001001999999001001IA1279KA1120M-00131MA1999999089461MD1310121+9999ME1314769OA149900411REMSYN112AAXX  03184 06794 32972 00601 11072 21155 38946 48476 53012 333 11013 43015 55300 20000 90766 93100 91108 91205;
0149067940999992011010319004+46350+010067FM-12+107899999V0200401N000519999999N9999999N1-00901-01441999999ADDMA1999999089461MD1110081+9999ME1314749OA149900261REMSYN088AAXX  03194 06794 33/// /0401 11090 21144 38946 48474 51008 333 55300 20000 91105 91203;
0149067940999992011010320004+46350+010067FM-12+107899999V0200501N001519999999N9999999N1-00901-01451999999ADDMA1999999089471MD1110061+9999ME1314749OA149900211REMSYN088AAXX  03204 06794 33/// /0503 11090 21145 38947 48474 51006 333 55300 20000 91104 91203;
0191067940999992011010321004+46350+010067FM-12+107899999V0200401N001012200019N0200001N1-00901-01431999999ADDGA1001+999999999GF100991001001999999001001MA1999999089521MD1310061+9999ME1314799OA149900311REMSYN088AAXX  03214 06794 32970 00402 11090 21143 38952 48479 53006 333 55300 20000 91106 91203;
0149067940999992011010322004+46350+010067FM-12+107899999V0200301N001019999999N9999999N1-00931-01651999999ADDMA1999999089521MD1210061+9999ME1314789OA149900261REMSYN088AAXX  03224 06794 33/// /0302 11093 21165 38952 48478 52006 333 55300 20000 91105 91203;
0149067940999992011010323004+46350+010067FM-12+107899999V0200301N001019999999N9999999N1-00921-01781999999ADDMA1999999089531MD1210061+9999ME1314799OA149900261REMSYN088AAXX  03234 06794 33/// /0302 11092 21178 38953 48479 52006 333 55300 20000 91105 91202;
0191067940999992011010400004+46350+010067FM-12+107899999V0200301N001512200019N0200001N1-00661-01791999999ADDGA1001+999999999GF100991001001999999001001MA1999999089511MD1710011+9999ME1314829OA149900411REMSYN088AAXX  04004 06794 32970 00303 11066 21179 38951 48482 57001 333 55300 20000 91108 91205;
0149067940999992011010401004+46350+010067FM-12+107899999V0200401N001519999999N9999999N1-00641-01781999999ADDMA1999999089471MD1810051+9999ME1314789OA149900261REMSYN088AAXX  04014 06794 33/// /0403 11064 21178 38947 48478 58005 333 55300 20000 91105 91203;
0149067940999992011010402004+46350+010067FM-12+107899999V0200301N002119999999N9999999N1-00631-01621999999ADDMA1999999089451MD1619999+9999ME1314779OA149900361REMSYN088AAXX  04024 06794 33/// /0304 11063 21162 38945 48477 56/// 333 55300 20000 91107 91204;
0191067940999992011010403004+46350+010067FM-12+107899999V0200401N001512200019N0200001N1-00641-01601999999ADDGA1001+999999999GF100991001001999999001001MA1999999089411MD1810101+9999ME1314739OA149900361REMSYN088AAXX  04034 06794 32970 00403 11064 21160 38941 48473 58010 333 55300 20000 91107 91204;
0149067940999992011010404004+46350+010067FM-12+107899999V0200101N001019999999N9999999N1-00651-01531999999ADDMA1999999089341MD1810131+9999ME1314679OA149900361REMSYN088AAXX  04044 06794 33/// /0102 11065 21153 38934 48467 58013 333 55300 20000 91107 91204;
0149067940999992011010405004+46350+010067FM-12+107899999V0200401N000519999999N9999999N1-00761-01421999999ADDMA1999999089271MD1810181+9999ME1314599OA149900361REMSYN088AAXX  04054 06794 33/// /0401 11076 21142 38927 48459 58018 333 55300 20000 91107 91204;
0311067940999992011010406004+46350+010067FM-12+107899999V0200401N00101048001CN0180001N1-00831-01291999999ADDAJ100159199999999AL19900091GA1071+048001021GF107991001001999999001071GJ102769IA1279IA2999-01309KA1999N-00971MA1999999089281MD1710131+9999ME1314599OA149900361REMSYN142AAXX  04064 06794 32968 70402 11083 21129 38928 48459 57013 80007 333 21097 3/113 43015 55046 55300 20000 70000 87266 90768 93100 91107 91204;
0149067940999992011010407004+46350+010067FM-12+107899999V0200401N001519999999N9999999N1-00781-01361999999ADDMA1999999089301MD1510041+9999ME1314629OA149900311REMSYN088AAXX  04074 06794 33/// /0403 11078 21136 38930 48462 55004 333 55300 20000 91106 91203;
0149067940999992011010408004+46350+010067FM-12+107899999V0200501N001019999999N9999999N1-00771-01311999999ADDMA1999999089291MD1019999+9999ME1314619OA149900261REMSYN088AAXX  04084 06794 33/// /0502 11077 21131 38929 48461 50/// 333 55300 20050 91105 91203;
0150067940999992011010409004+46350+010067FM-12+107899999V0209999C000019999999N0180001N1-00671-01291999999ADDGF108991081001999999011999MA1999999089291ME1314629REMSYN088AAXX  04094 06794 32968 80000 11067 21129 38929 48462 5//// 8801/ 333 553// 20144 88461;
0149067940999992011010410004+46350+010067FM-12+107899999V0200501N001019999999N9999999N1-00531-01231999999ADDMA1999999089291MD1010011+9999ME1314649OA149900211REMSYN088AAXX  04104 06794 33/// /0502 11053 21123 38929 48464 50001 333 55302 20630 91104 91203;
0149067940999992011010411004+46350+010067FM-12+107899999V0201801N001019999999N9999999N1-00361-01201999999ADDMA1999999089251MD1710041+9999ME1314639OA149900151REMSYN088AAXX  04114 06794 33/// /1802 11036 21120 38925 48463 57004 333 55309 2//// 91103 91202;
0203067940999992011010412004+46350+010067FM-12+107899999V0202401N00101033001CN0180001N1-00441-01151999999ADDGA1071+033001041GF107991071001999999011001MA1999999089171MD1810121+9999ME1314559OA149900361REMSYN100AAXX  04124 06794 32968 72402 11044 21115 38917 48455 58012 87010 333 55302 20817 87461 91107 91204;
0149067940999992011010413004+46350+010067FM-12+107899999V0202301N002119999999N9999999N1-00391-01181999999ADDMA1999999089141MD1710151+9999ME1314539OA149900311REMSYN088AAXX  04134 06794 33/// /2304 11039 21118 38914 48453 57015 333 55300 20734 91106 91204;
0112067940999992011010414004+46350+010067FM-12+107899999V0202001N001019999999N9999999N1-00361-01121999999ADDMA1999999089131ME1314539REMSYN076AAXX  04144 06794 33/// /2002 11036 21112 38913 48453 5//// 333 553// 20626;
0154067940999992011010415004+46350+010067FM-12+107899999V0201901N000510390019N0200001N1-00511-01081999999ADDGA1051+039001041GF105991051001999999011001MA1999999089131ME1314519REMSYN076AAXX  04154 06794 42970 51901 11051 21108 38913 48451 5//// 85010 333 85463;
0149067940999992011010416004+46350+010067FM-12+107899999V0200501N001019999999N9999999N1-00651-01091999999ADDMA1999999089161MD1310021+9999ME1314519OA149900211REMSYN088AAXX  04164 06794 33/// /0502 11065 21109 38916 48451 53002 333 55300 20022 91104 91203;
0149067940999992011010417004+46350+010067FM-12+107899999V0200501N000519999999N9999999N1-00761-01191999999ADDMA1999999089151MD1210021+9999ME1314499OA149900311REMSYN088AAXX  04174 06794 33/// /0501 11076 21119 38915 48449 52002 333 55300 20000 91106 91203;
0168067940999992011010418004+46350+010067FM-12+107899999V0200501N001019999999N9999999N1-00821-01241999999ADDKA1120M-00361MA1999999089191MD1210061+9999ME1314529OA149900311REMSYN094AAXX  04184 06794 33/// /0502 11082 21124 38919 48452 52006 333 11036 55300 20000 91106 91204;
0149067940999992011010419004+46350+010067FM-12+107899999V0200601N001019999999N9999999N1-00951-01301999999ADDMA1999999089201MD1210041+9999ME1314519OA149900261REMSYN088AAXX  04194 06794 33/// /0602 11095 21130 38920 48451 52004 333 55300 20000 91105 91203;
0149067940999992011010420004+46350+010067FM-12+107899999V0200601N001019999999N9999999N1-01021-01341999999ADDMA1999999089231MD1210081+9999ME1314529OA149900261REMSYN088AAXX  04204 06794 33/// /0602 11102 21134 38923 48452 52008 333 55300 20000 91105 91203;
0203067940999992011010421004+46350+010067FM-12+107899999V0200501N00051033001CN0190001N1-00881-01261999999ADDGA1051+033001041GF105991051001999999011999MA1999999089251MD1210061+9999ME1314569OA149900311REMSYN100AAXX  04214 06794 32969 50501 11088 21126 38925 48456 52006 8501/ 333 55300 20000 85461 91106 91203;
0149067940999992011010422004+46350+010067FM-12+107899999V0200101N000519999999N9999999N1-00801-01201999999ADDMA1999999089251MD1210051+9999ME1314579OA149900211REMSYN088AAXX  04224 06794 33/// /0101 11080 21120 38925 48457 52005 333 55300 20000 91104 91203;
0168067940999992011010423004+46350+010067FM-12+107899999V0200401N001019999999N9999999N1-00771-01131999999ADDMA1999999089231MD1410001+9999ME1314569OA149900151REMSYN088AAXX  04234 06794 33/// /0402 11077 21113 38923 48456 58000 333 55300 20000 91103 91202;EQDQ01+000082APCTEN
0203067940999992011010500004+46350+010067FM-12+107899999V0203401N001012200019N0200001N1-00711-01341999999ADDGA1031+030001041GF103991031001999999011999MA1999999089191MD1810061+9999ME1314539OA149900311REMSYN100AAXX  05004 06794 32970 33402 11071 21134 38919 48453 58006 8301/ 333 55300 20000 83460 91106 91204;
0149067940999992011010501004+46350+010067FM-12+107899999V0200101N001019999999N9999999N1-00731-01411999999ADDMA1999999089221MD1510031+9999ME1314559OA149900311REMSYN088AAXX  05014 06794 33/// /0102 11073 21141 38922 48455 55003 333 55300 20000 91106 91203;
0149067940999992011010502004+46350+010067FM-12+107899999V0200201N000519999999N9999999N1-00731-01291999999ADDMA1999999089211MD1710021+9999ME1314559OA149900211REMSYN088AAXX  05024 06794 33/// /0201 11073 21129 38921 48455 57002 333 55300 20000 91104 91203;
0154067940999992011010503004+46350+010067FM-12+107899999V0209999C000010180019N0180001N1-00731-01621999999ADDGA1061+018001041GF106991061001017501021999MA1999999089191ME1314539REMSYN076AAXX  05034 06794 42768 60000 11073 21162 38919 48453 5//// 8602/ 333 86456;
0149067940999992011010504004+46350+010067FM-12+107899999V0200201N001019999999N9999999N1-00831-01481999999ADDMA1999999089191MD1710031+9999ME1314519OA149900361REMSYN088AAXX  05044 06794 33/// /0202 11083 21148 38919 48451 57003 333 55300 20000 91107 91204;
0149067940999992011010505004+46350+010067FM-12+107899999V0200301N001019999999N9999999N1-00831-01521999999ADDMA1999999089191MD1710021+9999ME1314519OA149900361REMSYN088AAXX  05054 06794 33/// /0302 11083 21152 38919 48451 57002 333 55300 20000 91107 91204;
0318067940999992011010506004+46350+010067FM-12+107899999V0200301N001512200019N0200001N1-01121-01731999999ADDAJ100159199999999AL19900091GA1001+999999999GF100991001001999999001001GJ100969IA1279IA2999-01309KA1999N+99999MA1999999089221MD1310031+9999ME1314509OA149900411REMSYN130AAXX  05064 06794 32970 00303 11112 21173 38922 48450 53003 333 21104 3/113 43015 55016 55300 20000 70000 90768 93100 91108 91204;EQDQ01 -01042ATMN  
0149067940999992011010507004+46350+010067FM-12+107899999V0200201N001019999999N9999999N1-01191-01691999999ADDMA1999999089221MD1310031+9999ME1314499OA149900411REMSYN088AAXX  05074 06794 33/// /0202 11119 21169 38922 48449 53003 333 55300 20000 91108 91203;
0149067940999992011010508004+46350+010067FM-12+107899999V0200501N001519999999N9999999N1-01081-01601999999ADDMA1999999089271MD1219999+9999ME1314559OA149900261REMSYN088AAXX  05084 06794 33/// /0503 11108 21160 38927 48455 52/// 333 55300 20029 91105 91203;
0191067940999992011010509004+46350+010067FM-12+107899999V0209999C000012200019N0200001N1-00991-01641999999ADDGA1001+999999999GF100991001001999999001001MA1999999089281MD1110061+9999ME1314579OA149900411REMSYN088AAXX  05094 06794 32970 00000 11099 21164 38928 48457 51006 333 55300 20101 91108 91204;
0149067940999992011010510004+46350+010067FM-12+107899999V0200701N001019999999N9999999N1-00831-01531999999ADDMA1999999089281MD1210061+9999ME1314599OA149900261REMSYN088AAXX  05104 06794 33/// /0702 11083 21153 38928 48459 52006 333 55305 20601 91105 91204;
0149067940999992011010511004+46350+010067FM-12+107899999V0201901N000519999999N9999999N1-00551-01231999999ADDMA1999999089231MD1810041+9999ME1314599OA149900261REMSYN088AAXX  05114 06794 33/// /1901 11055 21123 38923 48459 58004 333 553// 2//// 91105 91204;
0154067940999992011010512004+46350+010067FM-12+107899999V0202201N001012200019N0200001N1-00461-01161999999ADDGA1001+999999999GF100991001001999999001001MA1999999089151ME1314539REMSYN076AAXX  05124 06794 32970 02202 11046 21116 38915 48453 5//// 333 553// 2////;
0149067940999992011010513004+46350+010067FM-12+107899999V0201901N001519999999N9999999N1-00391-01171999999ADDMA1999999089121MD1610161+9999ME1314529OA149900261REMSYN088AAXX  05134 06794 33/// /1903 11039 21117 38912 48452 56016 333 553// 2//// 91105 91203;
0096067940999992011010514004+46350+010067FM-12+107899999V0202201N001519999999N9999999N1-00481-01231999999ADDMA1999999089141ME1314529REMSYN060AAXX  05144 06794 43/// /2203 11048 21123 38914 48452 5////;
0138067940999992011010515004+46350+010067FM-12+107899999V0209999C000012200019N0200001N1-00671-01291999999ADDGA1001+999999999GF100991001001999999001001MA1999999089151ME1314509REMSYN060AAXX  05154 06794 42970 00000 11067 21129 38915 48450 5////;
0149067940999992011010516004+46350+010067FM-12+107899999V0200701N001019999999N9999999N1-00731-01181999999ADDMA1999999089221MD1210101+9999ME1314559OA149900151REMSYN088AAXX  05164 06794 33/// /0702 11073 21118 38922 48455 52010 333 55300 20029 91103 91202;
0149067940999992011010517004+46350+010067FM-12+107899999V0200601N001019999999N9999999N1-00831-01401999999ADDMA1999999089261MD1210121+9999ME1314579OA149900211REMSYN088AAXX  05174 06794 33/// /0602 11083 21140 38926 48457 52012 333 55300 20000 91104 91203;
0261067940999992011010518004+46350+010067FM-12+107899999V0200401N001512200019N0200001N1-00981-01521999999ADDAJ100159199999999AL19900091GA1001+999999999GF100991001001999999001001IA1279KA1120M-00391MA1999999089241MD1019999+9999ME1314549OA149900311REMSYN112AAXX  05184 06794 32970 00403 11098 21152 38924 48454 50/// 333 11039 43015 55300 20000 90766 93100 91106 91204;
0149067940999992011010519004+46350+010067FM-12+107899999V0200901N000519999999N9999999N1-01031-01351999999ADDMA1999999089251MD1010031+9999ME1314549OA149900261REMSYN088AAXX  05194 06794 33/// /0901 11103 21135 38925 48454 50003 333 55300 20000 91105 91204;
0149067940999992011010520004+46350+010067FM-12+107899999V0200501N000519999999N9999999N1-00971-01261999999ADDMA1999999089331MD1319999+9999ME1314619OA149900311REMSYN088AAXX  05204 06794 33/// /0501 11097 21126 38933 48461 53/// 333 55300 20000 91106 91203;
0154067940999992011010521004+46350+010067FM-12+107899999V0200501N001012200019N0200001N1-01071-01331999999ADDGA1001+999999999GF100991001001999999001001MA1999999089381ME1314649REMSYN076AAXX  05214 06794 32970 00502 11107 21133 38938 48464 5//// 333 553// 20000;
0149067940999992011010522004+46350+010067FM-12+107899999V0200301N000519999999N9999999N1-00921-01311999999ADDMA1999999089351MD1010101+9999ME1314649OA149900261REMSYN088AAXX  05224 06794 33/// /0301 11092 21131 38935 48464 50010 333 55300 20000 91105 91203;
0149067940999992011010523004+46350+010067FM-12+107899999V0200501N001519999999N9999999N1-01011-01341999999ADDMA1999999089341MD1019999+9999ME1314629OA149900261REMSYN088AAXX  05234 06794 33/// /0503 11101 21134 38934 48462 50/// 333 55300 20000 91105 91203;
0138067940999992011010600004+46350+010067FM-12+107899999V0200301N000512200019N0200001N1-01051-01541999999ADDGA1001+999999999GF100991001001999999001001MA1999999089361ME1314639REMSYN060AAXX  06004 06794 42970 00301 11105 21154 38936 48463 5////;
0096067940999992011010601004+46350+010067FM-12+107899999V0200301N000519999999N9999999N1-01031-01651999999ADDMA1999999089311ME1314599REMSYN060AAXX  06014 06794 43/// /0301 11103 21165 38931 48459 5////;
0096067940999992011010602004+46350+010067FM-12+107899999V0209999C000019999999N9999999N1-01201-01501999999ADDMA1999999089341ME1314599REMSYN060AAXX  06024 06794 43/// /0000 11120 21150 38934 48459 5////;
0154067940999992011010603004+46350+010067FM-12+107899999V0200601N001012200019N0180001N1-00951-01341999999ADDGA1031+018001031GF103991031001017501071999MA1999999089331ME1314629REMSYN076AAXX  06034 06794 42768 30602 11095 21134 38933 48462 5//// 8307/ 333 83356;
0096067940999992011010604004+46350+010067FM-12+107899999V0209999C000019999999N9999999N1-00951-01341999999ADDMA1999999089371ME1314659REMSYN060AAXX  06044 06794 43/// /0000 11095 21134 38937 48465 5////;
0096067940999992011010605004+46350+010067FM-12+107899999V0200301N000519999999N9999999N1-00881-01251999999ADDMA1999999089391ME1314689REMSYN060AAXX  06054 06794 43/// /0301 11088 21125 38939 48468 5////;
0256067940999992011010606004+46350+010067FM-12+107899999V0200801N000510390019N0160001N1-00741-01171999999ADDAJ100159199999999AL10600091GA1081+039001041GF108991081001999999011999GJ102769IA1279IA2999-01409KA1999N-01201MA1999999089361ME1314679REMSYN112AAXX  06064 06794 42966 80801 11074 21117 38936 48467 5//// 8801/ 333 21120 3/114 43015 55046 88463 90768 93100;
0096067940999992011010607004+46350+010067FM-12+107899999V0209999C000019999999N9999999N1-00691-01201999999ADDMA1999999089341ME1314669REMSYN060AAXX  06074 06794 43/// /0000 11069 21120 38934 48466 5////;
0112067940999992011010608004+46350+010067FM-12+107899999V0200501N001519999999N9999999N1-00651-01151999999ADDMA1999999089311ME1314649REMSYN076AAXX  06084 06794 33/// /0503 11065 21115 38931 48464 5//// 333 553// 20076;
0154067940999992011010609004+46350+010067FM-12+107899999V0209999C000010210019N0160001N1-00571-01011999999ADDGA1081+021001031GF108991081001022501071999MA1999999089331ME1314679REMSYN076AAXX  06094 06794 42866 80000 11057 21101 38933 48467 5//// 8807/ 333 88357;
0149067940999992011010610004+46350+010067FM-12+107899999V0200301N000519999999N9999999N1-00331-00971999999ADDMA1999999089361MD1310021+9999ME1314749OA149900211REMSYN088AAXX  06104 06794 33/// /0301 11033 21097 38936 48474 53002 333 55300 20486 91104 91203;
0149067940999992011010611004+46350+010067FM-12+107899999V0202001N001019999999N9999999N1-00201-00961999999ADDMA1999999089371MD1210061+9999ME1314769OA149900211REMSYN088AAXX  06114 06794 33/// /2002 11020 21096 38937 48476 52006 333 55300 20439 91104 91202;
0203067940999992011010612004+46350+010067FM-12+107899999V0202101N00051018001CN0160001N1-00231-00921999999ADDGA1081+018001041GF108991081001017501021999MA1999999089301MD1810031+9999ME1314709OA149900361REMSYN100AAXX  06124 06794 32766 82101 11023 21092 38930 48470 58003 8802/ 333 55300 20274 88456 91107 91205;
0149067940999992011010613004+46350+010067FM-12+107899999V0203501N000519999999N9999999N1-00231-00741999999ADDMA1999999089331MD1710031+9999ME1314729OA149900261REMSYN088AAXX  06134 06794 33/// /3501 11023 21074 38933 48472 57003 333 55300 20094 91105 91203;
0096067940999992011010614004+46350+010067FM-12+107899999V0200701N000519999999N9999999N1-00261-00371999999ADDMA1999999089301ME1314699REMSYN060AAXX  06144 06794 43/// /0701 11026 21037 38930 48469 5////;
0182067940999992011010615004+46350+010067FM-12+107899999V0209999C000010021019N0030001N1-00201-00281999999ADDAY171031AY221031GA1081+002101051GF108991081001002501021999MA1999999089291ME1314699MW1711REMSYN082AAXX  06154 06794 41330 80000 11020 21028 38929 48469 5//// 77172 8802/ 333 88507;
0155067940999992011010616004+46350+010067FM-12+107899999V0201701N000519999999N9999999N1-00171-00251999999ADDMA1999999089301MD1710031+9999ME1314719OA149900151REMSYN094AAXX  06164 06794 23/// /1701 11017 21025 38930 48471 57003 333 55300 20007 69915 91103 91203;
0149067940999992011010617004+46350+010067FM-12+107899999V0209999C000019999999N9999999N1-00171-00251999999ADDMA1999999089311MD1510011+9999ME1314729OA149900151REMSYN088AAXX  06174 06794 33/// /0000 11017 21025 38931 48472 55001 333 55300 20000 91103 91201;
0324067940999992011010618004+46350+010067FM-12+107899999V0200901N000510021019N0030001N1-00151-00231999999ADDAA112000591AJ100159199999999AL11200191AY171061AY221061GA1081+002101051GF108991081001002501021999IA1239KA1120M-00141MA1999999089301MD1010011+9999ME1314719MW1711OA149900361REMSYN142AAXX  06184 06794 01330 80901 11015 21023 38930 48471 50001 69952 77172 8802/ 333 11014 47015 55300 20000 60005 88507 90766 93101 91107 91204;
0155067940999992011010619004+46350+010067FM-12+107899999V0200801N000519999999N9999999N1-00141-00221999999ADDMA1999999089311MD1510011+9999ME1314729OA149900211REMSYN094AAXX  06194 06794 23/// /0801 11014 21022 38931 48472 55001 333 55300 20000 69915 91104 91202;
0149067940999992011010620004+46350+010067FM-12+107899999V0200501N000519999999N9999999N1-00121-00191999999ADDMA1999999089351MD1219999+9999ME1314769OA149900211REMSYN088AAXX  06204 06794 33/// /0501 11012 21019 38935 48476 52/// 333 55300 20000 91104 91201;
0237067940999992011010621004+46350+010067FM-12+107899999V0209999C000010021019N0030001N1-00091-00181999999ADDAY171031AY221031GA1081+002101051GF108991081001002501021999MA1999999089371MD1219999+9999ME1314789MW1701OA149900211REMSYN112AAXX  06214 06794 21330 80000 11009 21018 38937 48478 52/// 77072 8802/ 333 55300 20000 69915 88507 91104 91202;
0155067940999992011010622004+46350+010067FM-12+107899999V0209999C000019999999N9999999N1-00091-00151999999ADDMA1999999089421MD1210111+9999ME1314829OA149900211REMSYN094AAXX  06224 06794 23/// /0000 11009 21015 38942 48482 52011 333 55300 20000 69935 91104 91202;
0112067940999992011010623004+46350+010067FM-12+107899999V0209999C000019999999N9999999N1-00121-00161999999ADDMA1999999089441ME1314849REMSYN076AAXX  06234 06794 33/// /0000 11012 21016 38944 48484 5//// 333 553// 20000;
0182067940999992011010700004+46350+010067FM-12+107899999V0209999C000010012019N0030001N1-00081-00151999999ADDAY171061AY221061GA1081+001201051GF108991081001001501021999MA1999999089451ME1314859MW1021REMSYN082AAXX  07004 06794 41230 80000 11008 21015 38945 48485 5//// 70272 8802/ 333 88504;
0096067940999992011010701004+46350+010067FM-12+107899999V0200301N001019999999N9999999N1-00041-00131999999ADDMA1999999089461ME1314879REMSYN060AAXX  07014 06794 43/// /0302 11004 21013 38946 48487 5////;
0096067940999992011010702004+46350+010067FM-12+107899999V0200501N000519999999N9999999N1-00011-00111999999ADDMA1999999089491ME1314909REMSYN060AAXX  07024 06794 43/// /0501 11001 21011 38949 48490 5////;
0182067940999992011010703004+46350+010067FM-12+107899999V0209999C000010021019N0040001N1+00001-00051999999ADDAY171031AY221031GA1081+002101051GF108991081001002501021999MA1999999089511ME1314929MW1701REMSYN082AAXX  07034 06794 41340 80000 10000 21005 38951 48492 5//// 77072 8802/ 333 88507;
0155067940999992011010704004+46350+010067FM-12+107899999V0209999C000019999999N9999999N1+00041-00011999999ADDMA1999999089511MD1210051+9999ME1314929OA149900151REMSYN094AAXX  07044 06794 23/// /0000 10004 21001 38951 48492 52005 333 55300 20000 69925 91103 91201;
0155067940999992011010705004+46350+010067FM-12+107899999V0200101N000519999999N9999999N1+00071+00021999999ADDMA1999999089531MD1210041+9999ME1314959OA149900151REMSYN094AAXX  07054 06794 23/// /0101 10007 20002 38953 48495 52004 333 55300 20000 69915 91103 91201;
0362067940999992011010706004+46350+010067FM-12+107899999V0201701N000510012019N0040001N1+00101+00031999999ADDAA112001091AJ100169199999999AL19900191AY171061AY221061GA1081+001201051GF108991081001001501021999GJ100009IA1239IA2999-00209KA1999N-00181MA1999999089561MD1210051+9999ME1314989MW1711OA149900211REMSYN160AAXX  07064 06794 01240 81701 10010 20003 38956 48498 52005 69992 77172 8802/ 333 21018 3/102 47016 55000 55300 20000 60005 70014 88504 90768 93101 91104 91203;
0155067940999992011010707004+46350+010067FM-12+107899999V0209999C000019999999N9999999N1+00101+00041999999ADDMA1999999089611MD1210101+9999ME1315029OA149900261REMSYN094AAXX  07074 06794 23/// /0000 10010 20004 38961 48502 52010 333 55300 20000 69915 91105 91203;
0118067940999992011010708004+46350+010067FM-12+107899999V0209999C000019999999N9999999N1+00121+00051999999ADDMA1999999089651ME1315069REMSYN082AAXX  07084 06794 23/// /0000 10012 20005 38965 48506 5//// 333 553// 20004 69915;
0182067940999992011010709004+46350+010067FM-12+107899999V0209999C000010021019N0060001N1+00101+00051999999ADDAY161031AY221031GA1081+002101051GF108991081001002501021999MA1999999089691ME1315099MW1611REMSYN082AAXX  07094 06794 41356 80000 10010 20005 38969 48509 5//// 76162 8802/ 333 88507;
0149067940999992011010710004+46350+010067FM-12+107899999V0201001N000519999999N9999999N1+00151+00091999999ADDMA1999999089691MD1210081+9999ME1315109OA149900151REMSYN088AAXX  07104 06794 33/// /1001 10015 20009 38969 48510 52008 333 55300 20090 91103 91201;
0155067940999992011010711004+46350+010067FM-12+107899999V0209999C000019999999N9999999N1+00161+00101999999ADDMA1999999089701MD1010051+9999ME1315119OA149900151REMSYN094AAXX  07114 06794 23/// /0000 10016 20010 38970 48511 50005 333 55300 20104 69945 91103 91201;
0254067940999992011010712004+46350+010067FM-12+107899999V0200701N000510012019N0030001N1+00151+00111999999ADDAA106002091AY161061AY221061GA1081+001201051GF108991081001001501021999MA1999999089661MD1710031+9999ME1315089MW1611OA149900261REMSYN118AAXX  07124 06794 01230 80701 10015 20011 38966 48508 57003 60021 76162 8802/ 333 55300 20130 69995 88504 91105 91203;
0155067940999992011010713004+46350+010067FM-12+107899999V0202101N000519999999N9999999N1+00171+00131999999ADDMA1999999089631MD1710061+9999ME1315059OA149900151REMSYN094AAXX  07134 06794 23/// /2101 10017 20013 38963 48505 57006 333 55300 20122 69975 91103 91201;
0096067940999992011010714004+46350+010067FM-12+107899999V0202701N000519999999N9999999N1+00161+00121999999ADDMA1999999089651ME1315079REMSYN060AAXX  07144 06794 43/// /2701 10016 20012 38965 48507 5////;
0182067940999992011010715004+46350+010067FM-12+107899999V0209999C000010012019N0030001N1+00151+00111999999ADDAY161031AY261031GA1081+001201051GF108991081001001501021999MA1999999089661ME1315089MW1611REMSYN082AAXX  07154 06794 41230 80000 10015 20011 38966 48508 5//// 76166 8802/ 333 88504;
0155067940999992011010716004+46350+010067FM-12+107899999V0209999C000019999999N9999999N1+00151+00101999999ADDMA1999999089691MD1210061+9999ME1315109OA149900151REMSYN094AAXX  07164 06794 23/// /0000 10015 20010 38969 48510 52006 333 55300 20000 60015 91103 91201;
0155067940999992011010717004+46350+010067FM-12+107899999V0209999C000019999999N9999999N1+00131+00091999999ADDMA1999999089701MD1210051+9999ME1315119OA149900151REMSYN094AAXX  07174 06794 23/// /0000 10013 20009 38970 48511 52005 333 55300 20000 60015 91103 91201;
0154067940999992011010718004+46350+010067FM-12+107899999V0202801N000519999999N9999999N1+00151+00101999999ADDAA112007991KA1120M+00191MA1999999089701ME1315119REMSYN094AAXX  07184 06794 03/// /2801 10015 20010 38970 48511 5//// 60082 333 10019 553// 20000 60015;
0155067940999992011010719004+46350+010067FM-12+107899999V0203201N000519999999N9999999N1+00121+00081999999ADDMA1999999089731MD1219999+9999ME1315139OA149900151REMSYN094AAXX  07194 06794 23/// /3201 10012 20008 38973 48513 52/// 333 55300 20000 60015 91103 91201;
0096067940999992011010720004+46350+010067FM-12+107899999V0200401N001019999999N9999999N1+00141+00091999999ADDMA1999999089731ME1315149REMSYN060AAXX  07204 06794 43/// /0402 10014 20009 38973 48514 5////;
0096067940999992011010721004+46350+010067FM-12+107899999V0209999C000019999999N9999999N1+00121+00081999999ADDMA1999999089721ME1315129REMSYN060AAXX  07214 06794 43/// /0000 10012 20008 38972 48512 5////;
0155067940999992011010722004+46350+010067FM-12+107899999V0201801N000519999999N9999999N1+00141+00101999999ADDMA1999999089711MD1710021+9999ME1315129OA149900211REMSYN094AAXX  07224 06794 23/// /1801 10014 20010 38971 48512 57002 333 55300 20000 60015 91104 91202;
0118067940999992011010723004+46350+010067FM-12+107899999V0201901N000519999999N9999999N1+00141+00101999999ADDMA1999999089701ME1315119REMSYN082AAXX  07234 06794 23/// /1901 10014 20010 38970 48511 5//// 333 553// 20000 60015;
0201067940999992011010800004+46350+010067FM-12+107899999V0201101N000510012019N0100001N1+00141+00111999999ADDAA106007191AY171061AY261061GF108991081001001501021999MA1999999089681ME1315099MW1611REMSYN106AAXX  08004 06794 01260 81101 10014 20011 38968 48509 5//// 60071 76176 8802/ 333 553// 20000 69965 88504;
0096067940999992011010801004+46350+010067FM-12+107899999V0202601N000519999999N9999999N1+00141+00101999999ADDMA1999999089681ME1315099REMSYN060AAXX  08014 06794 43/// /2601 10014 20010 38968 48509 5////;
0096067940999992011010802004+46350+010067FM-12+107899999V0200401N001019999999N9999999N1+00131+00091999999ADDMA1999999089661ME1315079REMSYN060AAXX  08024 06794 43/// /0402 10013 20009 38966 48507 5////;
0182067940999992011010803004+46350+010067FM-12+107899999V0201701N000510012019N0100001N1+00131+00091999999ADDAY161031AY261031GA1081+001201051GF108991081001001501021999MA1999999089611ME1315039MW1631REMSYN082AAXX  08034 06794 41260 81701 10013 20009 38961 48503 5//// 76366 8802/ 333 88504;
0096067940999992011010804004+46350+010067FM-12+107899999V0200901N000519999999N9999999N1+00131+00091999999ADDMA1999999089561ME1314989REMSYN060AAXX  08044 06794 43/// /0901 10013 20009 38956 48498 5////;
0096067940999992011010805004+46350+010067FM-12+107899999V0209999C000019999999N9999999N1+00121+00091999999ADDMA1999999089551ME1314979REMSYN060AAXX  08054 06794 43/// /0000 10012 20009 38955 48497 5////;
0284067940999992011010806004+46350+010067FM-12+107899999V0200901N000510012019N0080001N1+00141+00101999999ADDAJ100149199999999AL10600091AY161061AY221061GA1081+001201051GF108991081001001501021999GJ100009IA1279IA2999+00009KA1999N+00081MA1999999089551ME1314989MW1651REMSYN118AAXX  08064 06794 41258 80901 10014 20010 38955 48498 5//// 76562 8802/ 333 20008 3/000 43014 55000 88504 90768 93100;
0096067940999992011010807004+46350+010067FM-12+107899999V0209999C000019999999N9999999N1+00111+00091999999ADDMA1999999089591ME1315019REMSYN060AAXX  08074 06794 43/// /0000 10011 20009 38959 48501 5////;
0118067940999992011010808004+46350+010067FM-12+107899999V0209999C000019999999N9999999N1+00151+00101999999ADDMA1999999089631ME1315059REMSYN082AAXX  08084 06794 23/// /0000 10015 20010 38963 48505 5//// 333 553// 20000 69975;
0182067940999992011010809004+46350+010067FM-12+107899999V0209999C000510051019N0080001N1+00151+00111999999ADDAY161031AY261031GA1081+005101051GF108991081001004501021999MA1999999089641ME1315069MW1631REMSYN082AAXX  08094 06794 41458 80001 10015 20011 38964 48506 5//// 76366 8802/ 333 88517;
0096067940999992011010810004+46350+010067FM-12+107899999V0201601N000519999999N9999999N1+00181+00141999999ADDMA1999999089661ME1315089REMSYN060AAXX  08104 06794 43/// /1601 10018 20014 38966 48508 5////;
0096067940999992011010811004+46350+010067FM-12+107899999V0202101N001019999999N9999999N1+00171+00141999999ADDMA1999999089641ME1315069REMSYN060AAXX  08114 06794 43/// /2102 10017 20014 38964 48506 5////;
0096067940999992011010812004+46350+010067FM-12+107899999V0209999C000019999999N9999999N1+00211+00171999999ADDMA1999999089591ME1315029REMSYN060AAXX  08124 06794 43/// /0000 10021 20017 38959 48502 5////;
0096067940999992011010813004+46350+010067FM-12+107899999V0203401N000519999999N9999999N1+00221+00171999999ADDMA1999999089601ME1315039REMSYN060AAXX  08134 06794 43/// /3401 10022 20017 38960 48503 5////;
0096067940999992011010814004+46350+010067FM-12+107899999V0200601N000519999999N9999999N1+00211+00171999999ADDMA1999999089601ME1315039REMSYN060AAXX  08144 06794 43/// /0601 10021 20017 38960 48503 5////;
0188067940999992011010815004+46350+010067FM-12+107899999V0201801N00051036001CN0050001N1+00251+00191999999ADDAY161031AY221031GA1031+000601071GF108991031071000751021999MA1999999089631ME1315069MW1101REMSYN088AAXX  08154 06794 41150 81801 10025 20019 38963 48506 5//// 71062 8372/ 333 83702 88511;
0096067940999992011010816004+46350+010067FM-12+107899999V0209999C000019999999N9999999N1+00221+00171999999ADDMA1999999089651ME1315089REMSYN060AAXX  08164 06794 43/// /0000 10022 20017 38965 48508 5////;
0096067940999992011010817004+46350+010067FM-12+107899999V0209999C000019999999N9999999N1+00191+00141999999ADDMA1999999089671ME1315099REMSYN060AAXX  08174 06794 43/// /0000 10019 20014 38967 48509 5////;
0274067940999992011010818004+46350+010067FM-12+107899999V0202201N000510033019N0050001N1+00221+00161999999ADDAJ100149199999999AL10600091AY161061AY221061GA1031+001201071GA2081+003301051GF108991081999001501021999IA1279MA1999999089691ME1315119MW1101REMSYN106AAXX  08184 06794 41250 82201 10022 20016 38969 48511 5//// 71062 8802/ 333 43014 83704 88511 90766 93100;EQDQ01+000002SCOLCG
0096067940999992011010819004+46350+010067FM-12+107899999V0200401N000519999999N9999999N1+00171+00111999999ADDMA1999999089671ME1315099REMSYN060AAXX  08194 06794 43/// /0401 10017 20011 38967 48509 5////;
0096067940999992011010820004+46350+010067FM-12+107899999V0201901N000519999999N9999999N1+00211+00141999999ADDMA1999999089661ME1315089REMSYN060AAXX  08204 06794 43/// /1901 10021 20014 38966 48508 5////;
0096067940999992011010821004+46350+010067FM-12+107899999V0200901N000519999999N9999999N1+00221+00151999999ADDMA1999999089671ME1315109REMSYN060AAXX  08214 06794 43/// /0901 10022 20015 38967 48510 5////;
0096067940999992011010822004+46350+010067FM-12+107899999V0200601N000519999999N9999999N1+00181+00131999999ADDMA1999999089651ME1315079REMSYN060AAXX  08224 06794 43/// /0601 10018 20013 38965 48507 5////;
0096067940999992011010823004+46350+010067FM-12+107899999V0209999C000019999999N9999999N1+00191+00131999999ADDMA1999999089651ME1315079REMSYN060AAXX  08234 06794 43/// /0000 10019 20013 38965 48507 5////;
0096067940999992011010900004+46350+010067FM-12+107899999V0200301N001019999999N9999999N1+00181+00131999999ADDMA1999999089671ME1315099REMSYN060AAXX  09004 06794 43/// /0302 10018 20013 38967 48509 5////;
0096067940999992011010901004+46350+010067FM-12+107899999V0200501N001519999999N9999999N1+00181+00131999999ADDMA1999999089661ME1315089REMSYN060AAXX  09014 06794 43/// /0503 10018 20013 38966 48508 5////;
0096067940999992011010902004+46350+010067FM-12+107899999V0200701N000519999999N9999999N1+00191+00131999999ADDMA1999999089661ME1315089REMSYN060AAXX  09024 06794 43/// /0701 10019 20013 38966 48508 5////;
0182067940999992011010903004+46350+010067FM-12+107899999V0209999C000010012019N0080001N1+00181+00131999999ADDAY161031AY261031GA1081+001201051GF108991081001001501021999MA1999999089621ME1315049MW1611REMSYN082AAXX  09034 06794 41258 80000 10018 20013 38962 48504 5//// 76166 8802/ 333 88504;
0096067940999992011010904004+46350+010067FM-12+107899999V0200501N001019999999N9999999N1+00151+00101999999ADDMA1999999089591ME1315019REMSYN060AAXX  09044 06794 43/// /0502 10015 20010 38959 48501 5////;
0096067940999992011010905004+46350+010067FM-12+107899999V0209999C000019999999N9999999N1+00121+00081999999ADDMA1999999089561ME1314989REMSYN060AAXX  09054 06794 43/// /0000 10012 20008 38956 48498 5////;
0219067940999992011010906004+46350+010067FM-12+107899999V0200201N000510051019N0150001N1+00201+00141999999ADDAJ100149199999999AL10600091GA1081+005101051GF108991081001004501021999GJ100009IA1279MA1999999089571ME1315009REMSYN100AAXX  09064 06794 42465 80201 10020 20014 38957 48500 5//// 8802/ 333 43014 55000 88517 90768 93100;
0096067940999992011010907004+46350+010067FM-12+107899999V0200601N001019999999N9999999N1+00131+00091999999ADDMA1999999089581ME1315009REMSYN060AAXX  09074 06794 43/// /0602 10013 20009 38958 48500 5////;
0112067940999992011010908004+46350+010067FM-12+107899999V0200601N000519999999N9999999N1+00181+00121999999ADDMA1999999089611ME1315049REMSYN076AAXX  09084 06794 33/// /0601 10018 20012 38961 48504 5//// 333 553// 20011;
0178067940999992011010909004+46350+010067FM-12+107899999V0200201N000510012019N0060001N1+00171+00131999999ADDAY161031AY221031GF108991081001001501021999MA1999999089621ME1315049MW1601REMSYN094AAXX  09094 06794 31256 80201 10017 20013 38962 48504 5//// 76062 8802/ 333 553// 20036 88504;
0149067940999992011010910004+46350+010067FM-12+107899999V0200201N000519999999N9999999N1+00201+00161999999ADDMA1999999089641MD1210061+9999ME1315079OA149900101REMSYN088AAXX  09104 06794 33/// /0201 10020 20016 38964 48507 52006 333 55300 20065 91102 91201;
0149067940999992011010911004+46350+010067FM-12+107899999V0209999C000019999999N9999999N1+00231+00181999999ADDMA1999999089611MD1010001+9999ME1315049OA149900151REMSYN088AAXX  09114 06794 33/// /0000 10023 20018 38961 48504 50000 333 55300 20112 91103 91201;
0231067940999992011010912004+46350+010067FM-12+107899999V0200501N000510003019N0015001N1+00251+00191999999ADDAY161061AY251061GA1081+000301051GF108991081001000251021999MA1999999089561MD1710061+9999ME1315009MW1601OA149900211REMSYN106AAXX  09124 06794 31015 80501 10025 20019 38956 48500 57006 76065 8802/ 333 55300 20126 88501 91104 91203;
0149067940999992011010913004+46350+010067FM-12+107899999V0200401N001019999999N9999999N1+00221+00171999999ADDMA1999999089521MD1810121+9999ME1314969OA149900151REMSYN088AAXX  09134 06794 33/// /0402 10022 20017 38952 48496 58012 333 55300 20122 91103 91202;
0096067940999992011010914004+46350+010067FM-12+107899999V0201901N000519999999N9999999N1+00271+00211999999ADDMA1999999089521ME1314979REMSYN060AAXX  09144 06794 43/// /1901 10027 20021 38952 48497 5////;
0182067940999992011010915004+46350+010067FM-12+107899999V0200301N001010003019N0015001N1+00221+00171999999ADDAY161031AY251031GA1081+000301051GF108991081001000251021999MA1999999089521ME1314969MW1581REMSYN082AAXX  09154 06794 41015 80302 10022 20017 38952 48496 5//// 75865 8802/ 333 88501;
0155067940999992011010916004+46350+010067FM-12+107899999V0209999C000019999999N9999999N1+00151+00111999999ADDMA1999999089531MD1210011+9999ME1314969OA149900211REMSYN094AAXX  09164 06794 23/// /0000 10015 20011 38953 48496 52001 333 55300 20000 69955 91104 91203;
0155067940999992011010917004+46350+010067FM-12+107899999V0201001N000519999999N9999999N1+00161+00121999999ADDMA1999999089531MD1210011+9999ME1314969OA149900151REMSYN094AAXX  09174 06794 23/// /1001 10016 20012 38953 48496 52001 333 55300 20000 60015 91103 91203;
0324067940999992011010918004+46350+010067FM-12+107899999V0200401N000510003019N0015001N1+00181+00121999999ADDAA112003091AJ100149199999999AL19900091AY161061AY261061GA1081+000301051GF108991081001000251021999IA1279KA1120M+00281MA1999999089531MD1110011+9999ME1314969MW1611OA149900211REMSYN142AAXX  09184 06794 01015 80401 10018 20012 38953 48496 51001 60032 76166 8802/ 333 10028 43014 55300 20000 60015 88501 90766 93100 91104 91203;
0155067940999992011010919004+46350+010067FM-12+107899999V0200201N002119999999N9999999N1+00231+00141999999ADDMA1999999089501MD1810031+9999ME1314959OA149900311REMSYN094AAXX  09194 06794 23/// /0204 10023 20014 38950 48495 58003 333 55300 20000 60015 91106 91204;
0155067940999992011010920004+46350+010067FM-12+107899999V0200401N000519999999N9999999N1+00161+00121999999ADDMA1999999089511MD1710021+9999ME1314949OA149900311REMSYN094AAXX  09204 06794 23/// /0401 10016 20012 38951 48494 57002 333 55300 20000 60025 91106 91204;
0155067940999992011010921004+46350+010067FM-12+107899999V0200701N000519999999N9999999N1+00151+00101999999ADDMA1999999089531MD1410001+9999ME1314969OA149900311REMSYN094AAXX  09214 06794 23/// /0701 10015 20010 38953 48496 53000 333 55300 20000 60025 91106 91204;
0155067940999992011010922004+46350+010067FM-12+107899999V0200101N001019999999N9999999N1+00171+00111999999ADDMA1999999089511MD1010011+9999ME1314949OA149900151REMSYN094AAXX  09224 06794 23/// /0102 10017 20011 38951 48494 50001 333 55300 20000 69995 91103 91202;
0155067940999992011010923004+46350+010067FM-12+107899999V0202801N000519999999N9999999N1+00161+00111999999ADDMA1999999089491MD1710021+9999ME1314939OA149900211REMSYN094AAXX  09234 06794 23/// /2801 10016 20011 38949 48493 57002 333 55300 20000 60025 91104 91203;
0254067940999992011011000004+46350+010067FM-12+107899999V0200301N001510012019N0020001N1+00161+00081999999ADDAA106007991AY161061AY261061GA1081+001201051GF108991081001001501021999MA1999999089481MD1710051+9999ME1314929MW1611OA149900311REMSYN118AAXX  10004 06794 01220 80303 10016 20008 38948 48492 57005 60081 76166 8802/ 333 55300 20000 60015 88504 91106 91204;
0155067940999992011011001004+46350+010067FM-12+107899999V0201001N000519999999N9999999N1+00141+00081999999ADDMA1999999089491MD1710021+9999ME1314929OA149900211REMSYN094AAXX  10014 06794 23/// /1001 10014 20008 38949 48492 57002 333 55300 20000 69915 91104 91203;
0118067940999992011011002004+46350+010067FM-12+107899999V0200301N001019999999N9999999N1+00101+00051999999ADDMA1999999089491ME1314929REMSYN082AAXX  10024 06794 23/// /0302 10010 20005 38949 48492 5//// 333 553// 20000 60015;
0182067940999992011011003004+46350+010067FM-12+107899999V0200201N000510012019N0030001N1+00131+00071999999ADDAY161031AY261031GA1081+001201051GF108991081001001501021999MA1999999089451ME1314889MW1611REMSYN082AAXX  10034 06794 41230 80201 10013 20007 38945 48488 5//// 76166 8802/ 333 88504;
0118067940999992011011004004+46350+010067FM-12+107899999V0200701N000519999999N9999999N1+00091+00061999999ADDMA1999999089421ME1314859REMSYN082AAXX  10044 06794 23/// /0701 10009 20006 38942 48485 5//// 333 553// 20000 69995;
0155067940999992011011005004+46350+010067FM-12+107899999V0200701N000519999999N9999999N1+00161+00101999999ADDMA1999999089401MD1719999+9999ME1314849OA149900211REMSYN094AAXX  10054 06794 23/// /0701 10016 20010 38940 48484 57/// 333 55300 20000 69975 91104 91203;
0301067940999992011011006004+46350+010067FM-12+107899999V0201901N000510021019N0040001N1+00131+00091999999ADDAA124014091AJ100149199999999AL14801391AY161061AY261061GA1081+002101051GF108991081001002501021999GJ100009IA1279IA2999+00009KA1999N+00091MA1999999089431ME1314879MW1611REMSYN124AAXX  10064 06794 41340 81901 10013 20009 38943 48487 5//// 76166 8802/ 333 20009 3/000 43014 55000 70139 88507 90768 93100;
0155067940999992011011007004+46350+010067FM-12+107899999V0200401N000519999999N9999999N1+00061+00021999999ADDMA1999999089451MD1210031+9999ME1314879OA149900151REMSYN094AAXX  10074 06794 23/// /0401 10006 20002 38945 48487 52003 333 55300 20000 60035 91103 91202;
0096067940999992011011008004+46350+010067FM-12+107899999V0200401N000519999999N9999999N1+00061+00011999999ADDMA1999999089471ME1314899REMSYN060AAXX  10084 06794 43/// /0401 10006 20001 38947 48489 5////;
0182067940999992011011009004+46350+010067FM-12+107899999V0200401N001010021019N0060001N1+00071+00011999999ADDAY171031AY261031GA1081+002101051GF108991081001002501021999MA1999999089471ME1314899MW1611REMSYN082AAXX  10094 06794 41356 80402 10007 20001 38947 48489 5//// 76176 8802/ 333 88507;
0155067940999992011011010004+46350+010067FM-12+107899999V0209999C000019999999N9999999N1+00051+00011999999ADDMA1999999089481MD1210031+9999ME1314909OA149900151REMSYN094AAXX  10104 06794 23/// /0000 10005 20001 38948 48490 52003 333 55300 20097 60015 91103 91202;
0155067940999992011011011004+46350+010067FM-12+107899999V0209999C000019999999N9999999N1+00061+00021999999ADDMA1999999089461MD1819999+9999ME1314889OA149900151REMSYN094AAXX  10114 06794 23/// /0000 10006 20002 38946 48488 58/// 333 55300 20180 69965 91103 91201;
0135067940999992011011012004+46350+010067FM-12+107899999V0202801N000519999999N9999999N1+00081+00021999999ADDAA106006191MA1999999089421ME1314859REMSYN088AAXX  10124 06794 03/// /2801 10008 20002 38942 48485 5//// 60061 333 553// 20212 60005;
0096067940999992011011013004+46350+010067FM-12+107899999V0209999C000019999999N9999999N1+00111+00051999999ADDMA1999999089381ME1314829REMSYN060AAXX  10134 06794 43/// /0000 10011 20005 38938 48482 5////;
0096067940999992011011014004+46350+010067FM-12+107899999V0201901N000519999999N9999999N1+00161+00091999999ADDMA1999999089341ME1314799REMSYN060AAXX  10144 06794 43/// /1901 10016 20009 38934 48479 5////;
0096067940999992011011015004+46350+010067FM-12+107899999V0201001N000519999999N9999999N1+00151+00091999999ADDMA1999999089361ME1314819REMSYN060AAXX  10154 06794 43/// /1001 10015 20009 38936 48481 5////;
0096067940999992011011016004+46350+010067FM-12+107899999V0202201N000519999999N9999999N1+00161+00101999999ADDMA1999999089361ME1314819REMSYN060AAXX  10164 06794 43/// /2201 10016 20010 38936 48481 5////;
0096067940999992011011017004+46350+010067FM-12+107899999V0209999C000019999999N9999999N1+00141+00091999999ADDMA1999999089341ME1314799REMSYN060AAXX  10174 06794 43/// /0000 10014 20009 38934 48479 5////;
0246067940999992011011018004+46350+010067FM-12+107899999V0200701N000510081019N0120001N1+00141+00091999999ADDAJ100139199999999AL10600091GA1031+005101071GA2081+008101031GF108991031061004501071999IA1279KA1120M+00191MA1999999089371ME1314829REMSYN106AAXX  10184 06794 42462 80701 10014 20009 38937 48482 5//// 8367/ 333 10019 43013 83717 88327 90766 93100;
0096067940999992011011019004+46350+010067FM-12+107899999V0209999C000019999999N9999999N1+00121+00081999999ADDMA1999999089321ME1314779REMSYN060AAXX  10194 06794 43/// /0000 10012 20008 38932 48477 5////;
0096067940999992011011020004+46350+010067FM-12+107899999V0200701N000519999999N9999999N1+00131+00081999999ADDMA1999999089301ME1314759REMSYN060AAXX  10204 06794 43/// /0701 10013 20008 38930 48475 5////;
0154067940999992011011021004+46350+010067FM-12+107899999V0200501N001010081019N0120001N1+00121+00071999999ADDGA1081+008101031GF108991081001008001071999MA1999999089281ME1314739REMSYN076AAXX  10214 06794 42562 80502 10012 20007 38928 48473 5//// 8807/ 333 88327;
0096067940999992011011022004+46350+010067FM-12+107899999V0200401N001519999999N9999999N1+00141+00081999999ADDMA1999999089281ME1314739REMSYN060AAXX  10224 06794 43/// /0403 10014 20008 38928 48473 5////;
0096067940999992011011023004+46350+010067FM-12+107899999V0209999C000019999999N9999999N1+00141+00081999999ADDMA1999999089231ME1314699REMSYN060AAXX  10234 06794 43/// /0000 10014 20008 38923 48469 5////;
0182067940999992011011100004+46350+010067FM-12+107899999V0200501N001010003019N0080001N1+00111+00081999999ADDAY151061AY221061GA1081+000301051GF108991081001000251021999MA1999999089211ME1314679MW1501REMSYN082AAXX  11004 06794 41058 80502 10011 20008 38921 48467 5//// 75052 8802/ 333 88501;
0096067940999992011011101004+46350+010067FM-12+107899999V0202901N000519999999N9999999N1+00121+00081999999ADDMA1999999089181ME1314649REMSYN060AAXX  11014 06794 43/// /2901 10012 20008 38918 48464 5////;
0096067940999992011011102004+46350+010067FM-12+107899999V0209999C000019999999N9999999N1+00101+00071999999ADDMA1999999089141ME1314609REMSYN060AAXX  11024 06794 43/// /0000 10010 20007 38914 48460 5////;
0182067940999992011011103004+46350+010067FM-12+107899999V0209999C000010003019N0080001N1+00041+00021999999ADDAY151031AY221031GA1081+000301051GF108991081001000251021999MA1999999089101ME1314569MW1101REMSYN082AAXX  11034 06794 41058 80000 10004 20002 38910 48456 5//// 71052 8802/ 333 88501;
0096067940999992011011104004+46350+010067FM-12+107899999V0209999C000019999999N9999999N1+00031+00001999999ADDMA1999999089071ME1314539REMSYN060AAXX  11044 06794 43/// /0000 10003 20000 38907 48453 5////;
0096067940999992011011105004+46350+010067FM-12+107899999V0209999C000019999999N9999999N1+00031+00021999999ADDMA1999999089041ME1314509REMSYN060AAXX  11054 06794 43/// /0000 10003 20002 38904 48450 5////;
0247067940999992011011106004+46350+010067FM-12+107899999V0209999C000010012019N0080001N1+00041+00001999999ADDAJ100169199999999AL10600491AY171061AY221061GA1041+001201051GF108991081001001501021999GJ100009IA1279MA1999999089021ME1314499MW1681REMSYN106AAXX  11064 06794 41258 80000 10004 20000 38902 48449 5//// 76872 8802/ 333 43016 55000 84504 90768 93104;
0155067940999992011011107004+46350+010067FM-12+107899999V0209999C000019999999N9999999N1+00041+00011999999ADDMA1999999089001MD1719999+9999ME1314479OA149900051REMSYN094AAXX  11074 06794 23/// /0000 10004 20001 38900 48447 57/// 333 55300 20000 69985 91101 91201;
0118067940999992011011108004+46350+010067FM-12+107899999V0200301N000519999999N9999999N1+00061+00011999999ADDMA1999999089001ME1314479REMSYN082AAXX  11084 06794 23/// /0301 10006 20001 38900 48447 5//// 333 553// 20022 69955;
0182067940999992011011109004+46350+010067FM-12+107899999V0200401N001010012019N0040001N1+00071+00021999999ADDAY171031AY221031GA1081+001201051GF108991081001001501021999MA1999999088991ME1314479MW1231REMSYN082AAXX  11094 06794 41240 80402 10007 20002 38899 48447 5//// 72372 8802/ 333 88504;
0149067940999992011011110004+46350+010067FM-12+107899999V0201801N001019999999N9999999N1+00061+00031999999ADDMA1999999088991MD1010011+9999ME1314469OA149900311REMSYN088AAXX  11104 06794 33/// /1802 10006 20003 38899 48446 50001 333 55300 20130 91106 91203;
0155067940999992011011111004+46350+010067FM-12+107899999V0202201N000519999999N9999999N1+00101+00031999999ADDMA1999999088941MD1710061+9999ME1314429OA149900311REMSYN094AAXX  11114 06794 23/// /2201 10010 20003 38894 48442 57006 333 55300 20191 69915 91106 91203;
0135067940999992011011112004+46350+010067FM-12+107899999V0202901N000519999999N9999999N1+00071+00041999999ADDAA106002091MA1999999088871ME1314369REMSYN088AAXX  11124 06794 03/// /2901 10007 20004 38887 48436 5//// 60021 333 553// 20230 69925;
0149067940999992011011113004+46350+010067FM-12+107899999V0200501N001019999999N9999999N1+00121+00051999999ADDMA1999999088791MD1810201+9999ME1314299OA149900151REMSYN088AAXX  11134 06794 33/// /0502 10012 20005 38879 48429 58020 333 55300 20277 91103 91202;
0096067940999992011011114004+46350+010067FM-12+107899999V0202301N001019999999N9999999N1+00141+00071999999ADDMA1999999088761ME1314279REMSYN060AAXX  11144 06794 43/// /2302 10014 20007 38876 48427 5////;
0096067940999992011011115004+46350+010067FM-12+107899999V0200301N000519999999N9999999N1+00151+00091999999ADDMA1999999088751ME1314269REMSYN060AAXX  11154 06794 43/// /0301 10015 20009 38875 48426 5////;
0149067940999992011011116004+46350+010067FM-12+107899999V0202601N001019999999N9999999N1+00141+00081999999ADDMA1999999088751MD1510041+9999ME1314269OA149900261REMSYN088AAXX  11164 06794 33/// /2602 10014 20008 38875 48426 55004 333 55300 20032 91105 91204;
0149067940999992011011117004+46350+010067FM-12+107899999V0200101N001019999999N9999999N1+00131+00071999999ADDMA1999999088791MD1310041+9999ME1314299OA149900261REMSYN088AAXX  11174 06794 33/// /0102 10013 20007 38879 48429 53004 333 55300 20000 91105 91204;
0191067940999992011011118004+46350+010067FM-12+107899999V0209999C000019999999N9999999N1+00131+00081999999ADDAA112002091KA1120M+00171MA1999999088821MD1210071+9999ME1314329OA149900311REMSYN106AAXX  11184 06794 03/// /0000 10013 20008 38882 48432 52007 60022 333 10017 55300 20000 69915 91106 91204;
0149067940999992011011119004+46350+010067FM-12+107899999V0200301N001519999999N9999999N1+00131+00061999999ADDMA1999999088841MD1110091+9999ME1314349OA149900211REMSYN088AAXX  11194 06794 33/// /0303 10013 20006 38884 48434 51009 333 55300 20000 91104 91203;
0149067940999992011011120004+46350+010067FM-12+107899999V0209999C000019999999N9999999N1+00111+00081999999ADDMA1999999088881MD1310091+9999ME1314379OA149900211REMSYN088AAXX  11204 06794 33/// /0000 10011 20008 38888 48437 53009 333 55300 20000 91104 91203;
0225067940999992011011121004+46350+010067FM-12+107899999V0200301N00101014101CN0150001N1+00111+00061999999ADDGA1041+004201071GA2081+014101041GF108991041061004501071999MA1999999088891MD1110071+9999ME1314389OA149900261REMSYN106AAXX  11214 06794 32465 80302 10011 20006 38889 48438 51007 8467/ 333 55300 20000 84714 88447 91105 91204;
0149067940999992011011122004+46350+010067FM-12+107899999V0200401N000519999999N9999999N1+00101+00041999999ADDMA1999999088941MD1310101+9999ME1314429OA149900151REMSYN088AAXX  11224 06794 33/// /0401 10010 20004 38894 48442 53010 333 55300 20000 91103 91203;
0149067940999992011011123004+46350+010067FM-12+107899999V0200701N000519999999N9999999N1+00041-00031999999ADDMA1999999088971MD1310091+9999ME1314449OA149900211REMSYN088AAXX  11234 06794 33/// /0701 10004 21003 38897 48444 53009 333 55300 20000 91104 91203;
0191067940999992011011200004+46350+010067FM-12+107899999V0201601N000512200019N0180001N1-00061-00111999999ADDGA1001+999999999GF100991001001999999001001MA1999999088991MD1210101+9999ME1314459OA149900261REMSYN088AAXX  12004 06794 32968 01601 11006 21011 38899 48445 52010 333 55300 20000 91105 91204;
0149067940999992011011201004+46350+010067FM-12+107899999V0200501N001019999999N9999999N1-00161-00191999999ADDMA1999999089021MD1210081+9999ME1314469OA149900211REMSYN088AAXX  12014 06794 33/// /0502 11016 21019 38902 48446 52008 333 55300 20000 91104 91202;
0112067940999992011011202004+46350+010067FM-12+107899999V0202001N001019999999N9999999N1-00051-00151999999ADDMA1999999089071ME1314529REMSYN076AAXX  12024 06794 33/// /2002 11005 21015 38907 48452 5//// 333 553// 20000;
0138067940999992011011203004+46350+010067FM-12+107899999V0200401N007212200019N0180001N1+00511-00661999999ADDGA1001+999999999GF100991001001999999001001MA1999999089171ME1314699REMSYN060AAXX  12034 06794 42968 00414 10051 21066 38917 48469 5////;
0096067940999992011011204004+46350+010067FM-12+107899999V0200101N003619999999N9999999N1+00351-00521999999ADDMA1999999089271ME1314769REMSYN060AAXX  12044 06794 43/// /0107 10035 21052 38927 48476 5////;
0112067940999992011011205004+46350+010067FM-12+107899999V0200301N003119999999N9999999N1+00311-00521999999ADDMA1999999089301ME1314789REMSYN076AAXX  12054 06794 33/// /0306 10031 21052 38930 48478 5//// 333 553// 20000;
0261067940999992011011206004+46350+010067FM-12+107899999V0201501N000512200019N0200001N1-00051-00351999999ADDAA124002091AJ100159199999999AL19900291GA1001+999999999GF100991001001999999001001GJ100009IA1279IA2999-00509KA1999N-00241MA1999999089331ME1314759REMSYN106AAXX  12064 06794 42970 01501 11005 21035 38933 48475 5//// 333 21024 3/105 43015 55000 70020 90768 93100;
0149067940999992011011207004+46350+010067FM-12+107899999V0202301N000519999999N9999999N1-00251-00451999999ADDMA1999999089381MD1210111+9999ME1314779OA149900461REMSYN088AAXX  12074 06794 33/// /2301 11025 21045 38938 48477 52011 333 55300 20000 91109 91205;
0096067940999992011011208004+46350+010067FM-12+107899999V0202001N000519999999N9999999N1-00101-00391999999ADDMA1999999089471ME1314879REMSYN060AAXX  12084 06794 43/// /2001 11010 21039 38947 48487 5////;
0166067940999992011011209004+46350+010067FM-12+107899999V0201601N000510450019N0200001N1-00021-00361999999ADDGA1081+045001011GF108991001001999999001091MA1999999089491ME1314909MW1011REMSYN082AAXX  12094 06794 41970 81601 11002 21036 38949 48490 5//// 701// 80009 333 88165;
0149067940999992011011210004+46350+010067FM-12+107899999V0202101N000519999999N9999999N1+00111-00281999999ADDMA1999999089501MD1119999+9999ME1314939OA149900311REMSYN088AAXX  12104 06794 33/// /2101 10011 21028 38950 48493 51/// 333 55304 20605 91106 91203;
0149067940999992011011211004+46350+010067FM-12+107899999V0202401N000519999999N9999999N1+00371-00271999999ADDMA1999999089521MD1210051+9999ME1314989OA149900151REMSYN088AAXX  12114 06794 33/// /2401 10037 21027 38952 48498 52005 333 55305 2//// 91103 91202;
0154067940999992011011212004+46350+010067FM-12+107899999V0202001N000510480019N0200001N1+00491-00201999999ADDGA1061+048001011GF106991001001999999001061MA1999999089531ME1315019REMSYN076AAXX  12124 06794 42970 62001 10049 21020 38953 48501 5//// 80006 333 86166;
0096067940999992011011213004+46350+010067FM-12+107899999V0202001N000519999999N9999999N1+00511-00211999999ADDMA1999999089491ME1314989REMSYN060AAXX  12134 06794 43/// /2001 10051 21021 38949 48498 5////;
0096067940999992011011214004+46350+010067FM-12+107899999V0200401N001019999999N9999999N1+00351-00071999999ADDMA1999999089531ME1314999REMSYN060AAXX  12144 06794 43/// /0402 10035 21007 38953 48499 5////;
0160067940999992011011215004+46350+010067FM-12+107899999V0200301N001010450019N0180001N1+00331+00001999999ADDGA1051+045001011GF105991001001999999001091MA1999999089551ME1315019REMSYN082AAXX  12154 06794 42968 50302 10033 20000 38955 48501 5//// 80009 333 85165 85165;
0149067940999992011011216004+46350+010067FM-12+107899999V0200501N001519999999N9999999N1+00231-00021999999ADDMA1999999089581MD1210091+9999ME1315029OA149900261REMSYN088AAXX  12164 06794 33/// /0503 10023 21002 38958 48502 52009 333 55300 20065 91105 91203;
0149067940999992011011217004+46350+010067FM-12+107899999V0209999C000019999999N9999999N1+00201-00031999999ADDMA1999999089611MD1110081+9999ME1315049OA149900211REMSYN088AAXX  12174 06794 33/// /0000 10020 21003 38961 48504 51008 333 55300 20000 91104 91203;
0273067940999992011011218004+46350+010067FM-12+107899999V0200601N00101054001CN0180001N1+00221-00031999999ADDAJ100159199999999AL19900091GA1081+054001021GF108991001001999999001071IA1279KA1120M+00571MA1999999089661MD1310111+9999ME1315099OA149900311REMSYN124AAXX  12184 06794 32968 80602 10022 21003 38966 48509 53011 80007 333 10057 43015 55300 20000 88268 90766 93100 91106 91203;
0149067940999992011011219004+46350+010067FM-12+107899999V0200301N001519999999N9999999N1+00201+00031999999ADDMA1999999089701MD1110121+9999ME1315129OA149900261REMSYN088AAXX  12194 06794 33/// /0303 10020 20003 38970 48512 51012 333 55300 20000 91105 91204;
0149067940999992011011220004+46350+010067FM-12+107899999V0200301N001519999999N9999999N1+00211-00011999999ADDMA1999999089651MD1010041+9999ME1315089OA149900261REMSYN088AAXX  12204 06794 33/// /0303 10021 21001 38965 48508 50004 333 55300 20000 91105 91204;
0203067940999992011011221004+46350+010067FM-12+107899999V0200301N00151045001CN0180001N1+00051-00081999999ADDGA1051+045001021GF105991001001999999001071MA1999999089651MD1810011+9999ME1315059OA149900261REMSYN100AAXX  12214 06794 32968 50303 10005 21008 38965 48505 58001 80007 333 55300 20000 85265 91105 91204;
0149067940999992011011222004+46350+010067FM-12+107899999V0200401N000519999999N9999999N1+00061-00081999999ADDMA1999999089641MD1710061+9999ME1315049OA149900261REMSYN088AAXX  12224 06794 33/// /0401 10006 21008 38964 48504 57006 333 55300 20000 91105 91203;
0149067940999992011011223004+46350+010067FM-12+107899999V0200501N001019999999N9999999N1+00021-00091999999ADDMA1999999089631MD1710021+9999ME1315039OA149900211REMSYN088AAXX  12234 06794 33/// /0502 10002 21009 38963 48503 57002 333 55300 20000 91104 91203;
0191067940999992011011300004+46350+010067FM-12+107899999V0200601N000512200019N0180001N1-00021-00151999999ADDGA1001+999999999GF100991001001999999001001MA1999999089591MD1810061+9999ME1314999OA149900261REMSYN088AAXX  13004 06794 32968 00601 11002 21015 38959 48499 58006 333 55300 20000 91105 91204;
0149067940999992011011301004+46350+010067FM-12+107899999V0200601N000519999999N9999999N1-00031-00141999999ADDMA1999999089531MD1710111+9999ME1314939OA149900211REMSYN088AAXX  13014 06794 33/// /0601 11003 21014 38953 48493 57011 333 55300 20000 91104 91202;
0149067940999992011011302004+46350+010067FM-12+107899999V0200501N001019999999N9999999N1-00071-00201999999ADDMA1999999089541MD1719999+9999ME1314939OA149900211REMSYN088AAXX  13024 06794 33/// /0502 11007 21020 38954 48493 57/// 333 55300 20000 91104 91203;
0182067940999992011011303004+46350+010067FM-12+107899999V0200301N001510093019N0150001N1+00101-00041999999ADDAY151031AY211031GA1081+009301071GF108991081071008001999999MA1999999089491ME1314929MW1501REMSYN082AAXX  13034 06794 41565 80303 10010 21004 38949 48492 5//// 75051 887// 333 88731;
0149067940999992011011304004+46350+010067FM-12+107899999V0202101N000519999999N9999999N1+00011-00061999999ADDMA1999999089431MD1819999+9999ME1314859OA149900311REMSYN088AAXX  13044 06794 33/// /2101 10001 21006 38943 48485 58/// 333 55300 20000 91106 91203;
0112067940999992011011305004+46350+010067FM-12+107899999V0200301N001019999999N9999999N1-00041-00111999999ADDMA1999999089371ME1314799REMSYN076AAXX  13054 06794 33/// /0302 11004 21011 38937 48479 5//// 333 553// 20000;
0339067940999992011011306004+46350+010067FM-12+107899999V0209999C000012200019N0170001N1+00031-00081999999ADDAJ100159199999999AL19900091AY151061AY221061GA1041+002101071GF104991041061002501001001GJ102169IA1279IA2999-00309KA1999N-00141MA1999999089381MD1710111+9999ME1314819MW1011OA149900311REMSYN148AAXX  13064 06794 31367 40000 10003 21008 38938 48481 57011 70152 84600 333 21014 3/103 43015 55036 55300 20000 70000 84707 90768 93100 91106 91204;
0096067940999992011011307004+46350+010067FM-12+107899999V0209999C000019999999N9999999N1-00021-00101999999ADDMA1999999089401ME1314829REMSYN060AAXX  13074 06794 43/// /0000 11002 21010 38940 48482 5////;
0096067940999992011011308004+46350+010067FM-12+107899999V0200501N001519999999N9999999N1+00091-00101999999ADDMA1999999089441ME1314879REMSYN060AAXX  13084 06794 43/// /0503 10009 21010 38944 48487 5////;
0160067940999992011011309004+46350+010067FM-12+107899999V0200401N00101090001CN0190001N1+00171-00051999999ADDGA1041+024001061GF106991041041022501001091MA1999999089421ME1314869REMSYN082AAXX  13094 06794 42869 60402 10017 21005 38942 48486 5//// 84409 333 84658 86166;
0096067940999992011011310004+46350+010067FM-12+107899999V0200701N001019999999N9999999N1+00291-00051999999ADDMA1999999089421ME1314889REMSYN060AAXX  13104 06794 43/// /0702 10029 21005 38942 48488 5////;
0096067940999992011011311004+46350+010067FM-12+107899999V0203001N000519999999N9999999N1+00491-00081999999ADDMA1999999089401ME1314909REMSYN060AAXX  13114 06794 43/// /3001 10049 21008 38940 48490 5////;
0160067940999992011011312004+46350+010067FM-12+107899999V0202201N000510240019N0200001N1+00491-00051999999ADDGA1061+024001031GF106991041001999999071061MA1999999089331ME1314839REMSYN082AAXX  13124 06794 42970 62201 10049 21005 38933 48483 5//// 84076 333 86358 84268;
0096067940999992011011313004+46350+010067FM-12+107899999V0200901N000519999999N9999999N1+00391+00001999999ADDMA1999999089261ME1314759REMSYN060AAXX  13134 06794 43/// /0901 10039 20000 38926 48475 5////;
0096067940999992011011314004+46350+010067FM-12+107899999V0200601N009319999999N9999999N1+01352-00161999999ADDMA1999999089181ME1314829REMSYN060AAXX  13144 06794 43/// /0618 10135 21016 38918 48482 5////;
0160067940999992011011315004+46350+010067FM-12+107899999V0200501N005119999999N0200001N1+01231-00151999999ADDGA1041+024001031GF106991041001999999041051MA1999999089231ME1314859REMSYN082AAXX  13154 06794 42970 60510 10123 21015 38923 48485 5//// 84045 333 84358 84266;
0096067940999992011011316004+46350+010067FM-12+107899999V0200601N003619999999N9999999N1+01191-00291999999ADDMA1999999089301ME1314919REMSYN060AAXX  13164 06794 43/// /0607 10119 21029 38930 48491 5////;
0149067940999992011011317004+46350+010067FM-12+107899999V0200401N004619999999N9999999N1+01161-00281999999ADDMA1999999089341MD1210161+9999ME1314949OA149901851REMSYN088AAXX  13174 06794 33/// /0409 10116 21028 38934 48494 52016 333 55300 20000 91136 91212;
0273067940999992011011318004+46350+010067FM-12+107899999V0200501N00621024001CN0200001N1+00981-00201999999ADDAJ100159199999999AL19900091GA1051+024001031GF105991051001022501071001IA1279KA1120M+01381MA1999999089391MD1110161+9999ME1314969OA149902161REMSYN124AAXX  13184 06794 32870 50512 10098 21020 38939 48496 51016 85070 333 10138 43015 55300 20000 85358 90766 93100 91142 91220;
0149067940999992011011319004+46350+010067FM-12+107899999V0200201N003619999999N9999999N1+01031-00161999999ADDMA1999999089411MD1310111+9999ME1314999OA149901291REMSYN088AAXX  13194 06794 33/// /0207 10103 21016 38941 48499 53011 333 55300 20000 91125 91215;
0149067940999992011011320004+46350+010067FM-12+107899999V0209999C000019999999N9999999N1+00631-00011999999ADDMA1999999089481MD1110141+9999ME1314999OA149901181REMSYN088AAXX  13204 06794 33/// /0000 10063 21001 38948 48499 51014 333 55300 20000 91123 91213;
0203067940999992011011321004+46350+010067FM-12+107899999V0200501N00101024001CN0200001N1+00371+00041999999ADDGA1051+024001031GF105991051001022501071999MA1999999089511MD1310121+9999ME1314989OA149901851REMSYN100AAXX  13214 06794 32870 50502 10037 20004 38951 48498 53012 8507/ 333 55300 20000 85358 91136 91215;
0149067940999992011011322004+46350+010067FM-12+107899999V0200601N001019999999N9999999N1+00321+00041999999ADDMA1999999089531MD1210121+9999ME1314999OA149900411REMSYN088AAXX  13224 06794 33/// /0602 10032 20004 38953 48499 52012 333 55300 20000 91108 91204;
0149067940999992011011323004+46350+010067FM-12+107899999V0200501N001019999999N9999999N1+00301+00041999999ADDMA1999999089521MD1210041+9999ME1314979OA149900411REMSYN088AAXX  13234 06794 33/// /0502 10030 20004 38952 48497 52004 333 55300 20000 91108 91205;
0191067940999992011011400004+46350+010067FM-12+107899999V0200301N001012200019N0200001N1+00221+00021999999ADDGA1001+999999999GF100991001001999999001001MA1999999089511MD1010001+9999ME1314959OA149902161REMSYN088AAXX  14004 06794 32970 00302 10022 20002 38951 48495 50000 333 55300 20000 91142 91220;
0168067940999992011011401004+46350+010067FM-12+107899999V0200701N001019999999N9999999N1+00241-00011999999ADDMA1999999089531MD1410001+9999ME1314979OA149900311REMSYN088AAXX  14014 06794 33/// /0702 10024 21001 38953 48497 52000 333 55300 20000 91106 91203;EQDQ01+000022APCTEN
0112067940999992011011402004+46350+010067FM-12+107899999V0200201N000519999999N9999999N1+00221-00021999999ADDMA1999999089551ME1314999REMSYN076AAXX  14024 06794 33/// /0201 10022 21002 38955 48499 5//// 333 553// 20000;
0191067940999992011011403004+46350+010067FM-12+107899999V0200401N001012200019N0200001N1+00271+00011999999ADDGA1001+999999999GF100991001001999999001001MA1999999089541MD1210031+9999ME1314999OA149900411REMSYN088AAXX  14034 06794 32970 00402 10027 20001 38954 48499 52003 333 55300 20000 91108 91205;
0149067940999992011011404004+46350+010067FM-12+107899999V0200401N000519999999N9999999N1+00211-00021999999ADDMA1999999089551MD1210021+9999ME1314999OA149900361REMSYN088AAXX  14044 06794 33/// /0401 10021 21002 38955 48499 52002 333 55300 20000 91107 91204;
0149067940999992011011405004+46350+010067FM-12+107899999V0200501N001019999999N9999999N1+00111-00081999999ADDMA1999999089561MD1510011+9999ME1314989OA149900311REMSYN088AAXX  14054 06794 33/// /0502 10011 21008 38956 48498 55001 333 55300 20000 91106 91203;
0299067940999992011011406004+46350+010067FM-12+107899999V0200601N000512200019N0220001N1+00111-00051999999ADDAJ100159199999999AL19900091GA1001+999999999GF100991001001999999001001GJ100309IA1279IA2999-00209KA1999N-00031MA1999999089591MD1210051+9999ME1315019OA149901181REMSYN130AAXX  14064 06794 32972 00601 10011 21005 38959 48501 52005 333 21003 3/102 43015 55005 55300 20000 70000 90768 93100 91123 91213;
0149067940999992011011407004+46350+010067FM-12+107899999V0200601N001019999999N9999999N1+00151-00031999999ADDMA1999999089601MD1210051+9999ME1315029OA149900261REMSYN088AAXX  14074 06794 33/// /0602 10015 21003 38960 48502 52005 333 55300 20000 91105 91203;
0096067940999992011011408004+46350+010067FM-12+107899999V0200401N002119999999N9999999N1+00171-00051999999ADDMA1999999089651ME1315079REMSYN060AAXX  14084 06794 43/// /0404 10017 21005 38965 48507 5////;
0154067940999992011011409004+46350+010067FM-12+107899999V0200501N001512200019N0220001N1+00151-00091999999ADDGA1021+048001001GF102991001001999999001041MA1999999089661ME1315089REMSYN076AAXX  14094 06794 42972 20503 10015 21009 38966 48508 5//// 80004 333 82066;
0096067940999992011011410004+46350+010067FM-12+107899999V0200701N000519999999N9999999N1+00411+00001999999ADDMA1999999089661ME1315129REMSYN060AAXX  14104 06794 43/// /0701 10041 20000 38966 48512 5////;
0149067940999992011011411004+46350+010067FM-12+107899999V0200801N001019999999N9999999N1+00551+00031999999ADDMA1999999089631MD1810021+9999ME1315119OA149900461REMSYN088AAXX  14114 06794 33/// /0802 10055 20003 38963 48511 58002 333 553// 2//// 91109 91207;
0203067940999992011011412004+46350+010067FM-12+107899999V0200601N00211048001CN0200001N1+00781+00061999999ADDGA1071+048001011GF107991001001999999001091MA1999999089581MD1810081+9999ME1315109OA149900461REMSYN100AAXX  14124 06794 32970 70604 10078 20006 38958 48510 58008 80009 333 553// 2//// 87166 91109 91207;
0149067940999992011011413004+46350+010067FM-12+107899999V0200701N001519999999N9999999N1+00761+00101999999ADDMA1999999089561MD1710101+9999ME1315089OA149900261REMSYN088AAXX  14134 06794 33/// /0703 10076 20010 38956 48508 57010 333 553// 2//// 91105 91204;
0112067940999992011011414004+46350+010067FM-12+107899999V0200701N000519999999N9999999N1+00651+00131999999ADDMA1999999089541ME1315059REMSYN076AAXX  14144 06794 33/// /0701 10065 20013 38954 48505 5//// 333 553// 20785;
0203067940999992011011415004+46350+010067FM-12+107899999V0200501N00151045001CN0200001N1+00491+00081999999ADDGA1071+045001011GF107991001001999999001091MA1999999089571MD1510011+9999ME1315059OA149900461REMSYN100AAXX  14154 06794 32970 70503 10049 20008 38957 48505 55001 80009 333 55302 20299 87165 91109 91207;
0149067940999992011011416004+46350+010067FM-12+107899999V0200601N001519999999N9999999N1+00381+00021999999ADDMA1999999089591MD1210031+9999ME1315059OA149900361REMSYN088AAXX  14164 06794 33/// /0603 10038 20002 38959 48505 52003 333 55300 20079 91107 91206;
0149067940999992011011417004+46350+010067FM-12+107899999V0200401N001019999999N9999999N1+00271-00011999999ADDMA1999999089611MD1210071+9999ME1315059OA149900311REMSYN088AAXX  14174 06794 33/// /0402 10027 21001 38961 48505 52007 333 55300 20000 91106 91204;
0168067940999992011011418004+46350+010067FM-12+107899999V0200501N001519999999N9999999N1+00321-00031999999ADDKA1120M+00801MA1999999089601MD1210031+9999ME1315059OA149900461REMSYN094AAXX  14184 06794 33/// /0503 10032 21003 38960 48505 52003 333 10080 55300 20000 91109 91207;
0149067940999992011011419004+46350+010067FM-12+107899999V0200501N000519999999N9999999N1+00211-00061999999ADDMA1999999089611MD1210021+9999ME1315049OA149900361REMSYN088AAXX  14194 06794 33/// /0501 10021 21006 38961 48504 52002 333 55300 20000 91107 91205;
0149067940999992011011420004+46350+010067FM-12+107899999V0200601N001519999999N9999999N1+00171-00081999999ADDMA1999999089621MD1310011+9999ME1315049OA149900361REMSYN088AAXX  14204 06794 33/// /0603 10017 21008 38962 48504 53001 333 55300 20000 91107 91205;
0225067940999992011011421004+46350+010067FM-12+107899999V0200401N00211042001CN0180001N1+00151-00081999999ADDGA1071+042001021GA2071+042001021GF107991001001999999001071MA1999999089561MD1810041+9999ME1314999OA149900361REMSYN106AAXX  14214 06794 32968 70404 10015 21008 38956 48499 58004 80007 333 55300 20000 87264 87264 91107 91205;
0149067940999992011011422004+46350+010067FM-12+107899999V0200401N002119999999N9999999N1+00081-00091999999ADDMA1999999089491MD1710121+9999ME1314919OA149900311REMSYN088AAXX  14224 06794 33/// /0404 10008 21009 38949 48491 57012 333 55300 20000 91106 91204;
0149067940999992011011423004+46350+010067FM-12+107899999V0200401N000519999999N9999999N1+00131-00111999999ADDMA1999999089491MD1710131+9999ME1314929OA149900311REMSYN088AAXX  14234 06794 33/// /0401 10013 21011 38949 48492 57013 333 55300 20000 91106 91204;
0225067940999992011011500004+46350+010067FM-12+107899999V0200501N000510210019N0150001N1+00081-00111999999ADDGA1071+021001031GA2071+021001031GF107991071001022501051999MA1999999089501MD1510061+9999ME1314929OA149900361REMSYN106AAXX  15004 06794 32865 70501 10008 21011 38950 48492 55006 8705/ 333 55300 20000 87357 87357 91107 91206;
0149067940999992011011501004+46350+010067FM-12+107899999V0200401N001019999999N9999999N1+00181-00091999999ADDMA1999999089381MD1810111+9999ME1314839OA149900311REMSYN088AAXX  15014 06794 33/// /0402 10018 21009 38938 48483 58011 333 55300 20000 91106 91203;
0149067940999992011011502004+46350+010067FM-12+107899999V0202401N001519999999N9999999N1+00041-00131999999ADDMA1999999089481MD1519999+9999ME1314909OA149900311REMSYN088AAXX  15024 06794 33/// /2403 10004 21013 38948 48490 55/// 333 55300 20000 91106 91203;
0154067940999992011011503004+46350+010067FM-12+107899999V0202401N001012200019N0180001N1+00041-00141999999ADDGA1001+999999999GF100991001001999999001001MA1999999089591ME1315009REMSYN076AAXX  15034 06794 32968 02402 10004 21014 38959 48500 5//// 333 553// 20000;
0149067940999992011011504004+46350+010067FM-12+107899999V0200501N001019999999N9999999N1-00161-00261999999ADDMA1999999089611MD1210231+9999ME1314989OA149900361REMSYN088AAXX  15044 06794 33/// /0502 11016 21026 38961 48498 52023 333 55300 20000 91107 91203;
0149067940999992011011505004+46350+010067FM-12+107899999V0202101N000519999999N9999999N1+00021-00081999999ADDMA1999999089681MD1210201+9999ME1315079OA149900771REMSYN088AAXX  15054 06794 33/// /2101 10002 21008 38968 48507 52020 333 55300 20000 91115 91206;
0299067940999992011011506004+46350+010067FM-12+107899999V0200601N005112200019N0210001N1+00832-00711999999ADDAJ100149199999999AL19900091GA1001+999999999GF100991001001999999001001GJ102829IA1279IA2999-00309KA1999N-00161MA1999999089751MD1310161+9999ME1315279OA149901131REMSYN130AAXX  15064 06794 32971 00610 10083 21071 38975 48527 53016 333 21016 3/103 43014 55047 55300 20000 70000 90768 93100 91122 91211;
0149067940999992011011507004+46350+010067FM-12+107899999V0200601N010319999999N9999999N1+00821-00811999999ADDMA1999999089831MD1210221+9999ME1315349OA149901901REMSYN088AAXX  15074 06794 33/// /0620 10082 21081 38983 48534 52022 333 55300 20000 91137 91220;
0149067940999992011011508004+46350+010067FM-12+107899999V0200401N010319999999N9999999N1+00861-01071999999ADDMA1999999089871MD1219999+9999ME1315389OA149901901REMSYN088AAXX  15084 06794 33/// /0420 10086 21107 38987 48538 52/// 333 55300 20032 91137 91224;
0149067940999992011011509004+46350+010067FM-12+107899999V0200401N012319999999N9999999N1+00821-01011999999ADDMA1999999089831MD1010081+9999ME1315349OA149901901REMSYN088AAXX  15094 06794 33/// /0424 10082 21101 38983 48534 50008 333 55300 20090 91137 91224;
0149067940999992011011510004+46350+010067FM-12+107899999V0200501N011819999999N9999999N1+00991-01261999999ADDMA1999999089851MD1210021+9999ME1315399OA149902161REMSYN088AAXX  15104 06794 33/// /0523 10099 21126 38985 48539 52002 333 55306 20716 91142 91225;
0149067940999992011011511004+46350+010067FM-12+107899999V0200501N008719999999N9999999N1+01011-01191999999ADDMA1999999089891MD1310021+9999ME1315439OA149902161REMSYN088AAXX  15114 06794 33/// /0517 10101 21119 38989 48543 53002 333 553// 2//// 91142 91225;
0203067940999992011011512004+46350+010067FM-12+107899999V0203601N001512200019N0230001N1+01181-01601999999ADDGA1031+045001001GF103991001001999999001011MA1999999089901MD1210071+9999ME1315469OA149902161REMSYN100AAXX  15124 06794 32973 33603 10118 21160 38990 48546 52007 80001 333 553// 2//// 83065 91142 91225;
0112067940999992011011513004+46350+010067FM-12+107899999V0201801N001519999999N9999999N1+00941-00791999999ADDMA1999999089911ME1315439REMSYN076AAXX  15134 06794 33/// /1803 10094 21079 38991 48543 5//// 333 553// 2////;
0096067940999992011011514004+46350+010067FM-12+107899999V0200601N001019999999N9999999N1+00791-00421999999ADDMA1999999089941ME1315439REMSYN060AAXX  15144 06794 43/// /0602 10079 21042 38994 48543 5////;
0154067940999992011011515004+46350+010067FM-12+107899999V0200501N001510390019N0200001N1+00471-00241999999ADDGA1061+039001011GF106991001001999999001091MA1999999090021ME1315459REMSYN076AAXX  15154 06794 42970 60503 10047 21024 39002 48545 5//// 80009 333 86163;
0096067940999992011011516004+46350+010067FM-12+107899999V0200901N000519999999N9999999N1+00321-00301999999ADDMA1999999090111ME1315509REMSYN060AAXX  15164 06794 43/// /0901 10032 21030 39011 48550 5////;
0112067940999992011011517004+46350+010067FM-12+107899999V0200201N002619999999N9999999N1+00481-00601999999ADDMA1999999090201ME1315619REMSYN076AAXX  15174 06794 33/// /0205 10048 21060 39020 48561 5//// 333 553// 20000;
0224067940999992011011518004+46350+010067FM-12+107899999V0200701N000512200019N0200001N1+00201-00431999999ADDAJ100159199999999AL10600091GA1021+039001001GF102991001001999999001021IA1279KA1120M+01181MA1999999090261ME1315629REMSYN100AAXX  15184 06794 42970 20701 10020 21043 39026 48562 5//// 80002 333 10118 43015 82063 90766 93100;
0096067940999992011011519004+46350+010067FM-12+107899999V0200301N002619999999N9999999N1+00131-00421999999ADDMA1999999090321ME1315669REMSYN060AAXX  15194 06794 43/// /0305 10013 21042 39032 48566 5////;
0096067940999992011011520004+46350+010067FM-12+107899999V0200401N002119999999N9999999N1+00131-00441999999ADDMA1999999090321ME1315669REMSYN060AAXX  15204 06794 43/// /0404 10013 21044 39032 48566 5////;
0191067940999992011011521004+46350+010067FM-12+107899999V0200501N001512200019N0180001N1+00081-00441999999ADDGA1001+999999999GF100991001001999999001001MA1999999090331MD1210071+9999ME1315669OA149900361REMSYN088AAXX  15214 06794 32968 00503 10008 21044 39033 48566 52007 333 55300 20000 91107 91205;
0149067940999992011011522004+46350+010067FM-12+107899999V0200401N001019999999N9999999N1-00051-00431999999ADDMA1999999090381MD1310061+9999ME1315689OA149900311REMSYN088AAXX  15224 06794 33/// /0402 11005 21043 39038 48568 53006 333 55300 20000 91106 91203;
0149067940999992011011523004+46350+010067FM-12+107899999V0200401N000519999999N9999999N1+00051-00431999999ADDMA1999999090411MD1110091+9999ME1315729OA149900261REMSYN088AAXX  15234 06794 33/// /0401 10005 21043 39041 48572 51009 333 55300 20000 91105 91203;
0191067940999992011011600004+46350+010067FM-12+107899999V0200501N001012200019N0180001N1+00011-00401999999ADDGA1001+999999999GF100991001001999999001001MA1999999090411MD1210081+9999ME1315719OA149900771REMSYN088AAXX  16004 06794 32968 00502 10001 21040 39041 48571 52008 333 55300 20000 91115 91209;
0149067940999992011011601004+46350+010067FM-12+107899999V0200501N001519999999N9999999N1+00041-00401999999ADDMA1999999090411MD1210031+9999ME1315729OA149900261REMSYN088AAXX  16014 06794 33/// /0503 10004 21040 39041 48572 52003 333 55300 20000 91105 91203;
0149067940999992011011602004+46350+010067FM-12+107899999V0200601N001519999999N9999999N1+00041-00321999999ADDMA1999999090371MD1719999+9999ME1315689OA149900261REMSYN088AAXX  16024 06794 33/// /0603 10004 21032 39037 48568 57/// 333 55300 20000 91105 91203;
0138067940999992011011603004+46350+010067FM-12+107899999V0200501N001012200019N0180001N1+00101-00311999999ADDGA1001+999999999GF100991001001999999001001MA1999999090351ME1315689REMSYN060AAXX  16034 06794 42968 00502 10010 21031 39035 48568 5////;
0149067940999992011011604004+46350+010067FM-12+107899999V0200601N001019999999N9999999N1+00021-00301999999ADDMA1999999090361MD1710051+9999ME1315679OA149900311REMSYN088AAXX  16044 06794 33/// /0602 10002 21030 39036 48567 57005 333 55300 20000 91106 91204;
0149067940999992011011605004+46350+010067FM-12+107899999V0200501N001519999999N9999999N1+00051-00281999999ADDMA1999999090391MD1210021+9999ME1315709OA149900311REMSYN088AAXX  16054 06794 33/// /0503 10005 21028 39039 48570 52002 333 55300 20000 91106 91203;
0299067940999992011011606004+46350+010067FM-12+107899999V0200401N000512200019N0180001N1+00021-00281999999ADDAJ100139199999999AL19900091GA1001+999999999GF100991001001999999001001GJ102829IA1309IA2999-00309KA1999N-00121MA1999999090411MD1210061+9999ME1315719OA149900361REMSYN130AAXX  16064 06794 32968 00401 10002 21028 39041 48571 52006 333 21012 3/103 42013 55047 55300 20000 70000 90768 93100 91107 91205;
0149067940999992011011607004+46350+010067FM-12+107899999V0200501N001019999999N9999999N1-00021-00251999999ADDMA1999999090461MD1210101+9999ME1315759OA149900311REMSYN088AAXX  16074 06794 33/// /0502 11002 21025 39046 48575 52010 333 55300 20000 91106 91204;
0149067940999992011011608004+46350+010067FM-12+107899999V0200501N001519999999N9999999N1+00011-00251999999ADDMA1999999090541MD1219999+9999ME1315839OA149900311REMSYN088AAXX  16084 06794 33/// /0503 10001 21025 39054 48583 52/// 333 55300 20036 91106 91204;
0191067940999992011011609004+46350+010067FM-12+107899999V0200501N001512200019N0180001N1+00121-00201999999ADDGA1001+999999999GF100991001001999999001001MA1999999090501MD1010091+9999ME1315819OA149900311REMSYN088AAXX  16094 06794 32968 00503 10012 21020 39050 48581 50009 333 55300 20101 91106 91204;
0149067940999992011011610004+46350+010067FM-12+107899999V0209999C000019999999N9999999N1+00401-00111999999ADDMA1999999090471MD1810011+9999ME1315849OA149900361REMSYN088AAXX  16104 06794 33/// /0000 10040 21011 39047 48584 58001 333 55306 20716 91107 91206;
0149067940999992011011611004+46350+010067FM-12+107899999V0201201N000519999999N9999999N1+00601-00081999999ADDMA1999999090461MD1710081+9999ME1315879OA149900361REMSYN088AAXX  16114 06794 33/// /1201 10060 21008 39046 48587 57008 333 553// 2//// 91107 91206;
0203067940999992011011612004+46350+010067FM-12+107899999V0202501N001012200019N0200001N1+00741-00061999999ADDGA1001+999999999GF100991001001999999001001MA1999999090441MD1710061+9999ME1315889MW1021OA149900361REMSYN094AAXX  16124 06794 31970 02502 10074 21006 39044 48588 57006 702// 333 553// 2//// 91107 91206;
0149067940999992011011613004+46350+010067FM-12+107899999V0200601N001019999999N9999999N1+00701-00041999999ADDMA1999999090401MD1810071+9999ME1315839OA149900151REMSYN088AAXX  16134 06794 33/// /0602 10070 21004 39040 48583 58007 333 553// 2//// 91103 91202;
0149067940999992011011614004+46350+010067FM-12+107899999V0200501N001519999999N9999999N1+00601-00021999999ADDMA1999999090421MD1719999+9999ME1315839OA149900261REMSYN088AAXX  16144 06794 33/// /0503 10060 21002 39042 48583 57/// 333 553// 2//// 91105 91203;
0149067940999992011011615004+46350+010067FM-12+107899999V0200401N002619999999N9999999N1+00421-00021999999ADDMA1999999090441MD1510001+9999ME1315829OA149900361REMSYN088AAXX  16154 06794 33/// /0405 10042 21002 39044 48582 55000 333 55303 20306 91107 91206;
0149067940999992011011616004+46350+010067FM-12+107899999V0200601N001519999999N9999999N1+00351-00061999999ADDMA1999999090461MD1310061+9999ME1315829OA149900361REMSYN088AAXX  16164 06794 33/// /0603 10035 21006 39046 48582 53006 333 55300 20043 91107 91205;
0149067940999992011011617004+46350+010067FM-12+107899999V0200501N001519999999N9999999N1+00201-00101999999ADDMA1999999090491MD1310071+9999ME1315829OA149900261REMSYN088AAXX  16174 06794 33/// /0503 10020 21010 39049 48582 53007 333 55300 20000 91105 91203;
0261067940999992011011618004+46350+010067FM-12+107899999V0200501N001512200019N0220001N1+00061-00151999999ADDAJ100139199999999AL19900091GA1001+999999999GF100991001001999999001001IA1279KA1120M+00801MA1999999090511MD1310071+9999ME1315819OA149900361REMSYN112AAXX  16184 06794 32972 00503 10006 21015 39051 48581 53007 333 10080 43013 55300 20000 90766 93100 91107 91206;
0149067940999992011011619004+46350+010067FM-12+107899999V0200601N001519999999N9999999N1+00141-00131999999ADDMA1999999090551MD1110091+9999ME1315869OA149900261REMSYN088AAXX  16194 06794 33/// /0603 10014 21013 39055 48586 51009 333 55300 20000 91105 91204;
0149067940999992011011620004+46350+010067FM-12+107899999V0200601N001519999999N9999999N1+00101-00151999999ADDMA1999999090551MD1210061+9999ME1315859OA149900261REMSYN088AAXX  16204 06794 33/// /0603 10010 21015 39055 48585 52006 333 55300 20000 91105 91203;
0191067940999992011011621004+46350+010067FM-12+107899999V0200601N001512200019N0180001N1-00061-00241999999ADDGA1001+999999999GF100991001001999999001001MA1999999090541MD1010031+9999ME1315819OA149900261REMSYN088AAXX  16214 06794 32968 00603 11006 21024 39054 48581 50003 333 55300 20000 91105 91204;
0149067940999992011011622004+46350+010067FM-12+107899999V0200501N001519999999N9999999N1-00011-00201999999ADDMA1999999090531MD1710021+9999ME1315819OA149900261REMSYN088AAXX  16224 06794 33/// /0503 11001 21020 39053 48581 57002 333 55300 20000 91105 91203;
0149067940999992011011623004+46350+010067FM-12+107899999V0200501N001019999999N9999999N1+00091-00191999999ADDMA1999999090521MD1610031+9999ME1315829OA149900261REMSYN088AAXX  16234 06794 33/// /0502 10009 21019 39052 48582 56003 333 55300 20000 91105 91203;
0191067940999992011011700004+46350+010067FM-12+107899999V0200501N001512200019N0180001N1+00041-00241999999ADDGA1001+999999999GF100991001001999999001001MA1999999090491MD1810051+9999ME1315799OA149900361REMSYN088AAXX  17004 06794 32968 00503 10004 21024 39049 48579 58005 333 55300 20000 91107 91205;
