0137067910999992010010100004+46417+009817FM-12+329999999V0202201N003119999999N9999999N1-01011-01881999999ADDMA1999999065711MD1810131+9999ME1428119OA149901491REMSYN076AAXX  01004 06791 33/// /2206 11101 21188 36571 47811 58013 333 91129 91215;
0137067910999992010010101004+46417+009817FM-12+329999999V0202001N003119999999N9999999N1-01041-01911999999ADDMA1999999065681MD1810121+9999ME1428089OA149900671REMSYN076AAXX  01014 06791 33/// /2006 11104 21191 36568 47808 58012 333 91113 91209;
0137067910999992010010102004+46417+009817FM-12+329999999V0201801N004619999999N9999999N1-01011-02001999999ADDMA1999999065661MD1619999+9999ME1428069OA149900721REMSYN076AAXX  01024 06791 33/// /1809 11101 21200 36566 47806 56/// 333 91114 91210;
0096067910999992010010103004+46417+009817FM-12+329999999V0201801N004619999999N9999999N1-01071-01611999999ADDMA1999999065611ME1428019REMSYN060AAXX  01034 06791 43/// /1809 11107 21161 36561 47801 5////;
0096067910999992010010104004+46417+009817FM-12+329999999V0202101N006719999999N9999999N1-01081-01841999999ADDMA1999999065571ME1427969REMSYN060AAXX  01044 06791 33/// /2113 11108 21184 36557 47796 5////;
0137067910999992010010105004+46417+009817FM-12+329999999V0202501N006219999999N9999999N1-01071-01521999999ADDMA1999999065511MD1710151+9999ME1427899OA149901031REMSYN076AAXX  01054 06791 33/// /2512 11107 21152 36551 47789 57015 333 91120 91213;
0197067910999992010010106004+46417+009817FM-12+329999999V0202301N003619999999N9999999N1-01011-01901999999ADDAA124000891AL14800091GJ100009KA1999N-01101MA1999999065511MD1710101+9999ME1427889OA149901031REMSYN094AAXX  01064 06791 33/// /2307 11101 21190 36551 47788 57010 333 21110 55000 70008 91120 91213;
0137067910999992010010107004+46417+009817FM-12+329999999V0202101N002119999999N9999999N1-01001-02111999999ADDMA1999999065481MD1710091+9999ME1427849OA149900771REMSYN076AAXX  01074 06791 33/// /2104 11100 21211 36548 47784 57009 333 91115 91208;
0137067910999992010010108004+46417+009817FM-12+329999999V0202001N002619999999N9999999N1-01101-01821999999ADDMA1999999065501MD1510011+9999ME1427889OA149900511REMSYN076AAXX  01084 06791 33/// /2005 11110 21182 36550 47788 55001 333 91110 91206;
0137067910999992010010109004+46417+009817FM-12+329999999V0201301N001519999999N9999999N1-01101-01781999999ADDMA1999999065541MD1310031+9999ME1427939OA149901031REMSYN076AAXX  01094 06791 33/// /1303 11110 21178 36554 47793 53003 333 91120 91213;
0137067910999992010010110004+46417+009817FM-12+329999999V0209999C000019999999N9999999N1-01061-01801999999ADDMA1999999065551MD1210071+9999ME1427939OA149900511REMSYN076AAXX  01104 06791 33/// /0000 11106 21180 36555 47793 52007 333 91110 91206;
0137067910999992010010111004+46417+009817FM-12+329999999V0201301N001019999999N9999999N1-01011-01861999999ADDMA1999999065521MD1010021+9999ME1427899OA149900311REMSYN076AAXX  01114 06791 33/// /1302 11101 21186 36552 47789 50002 333 91106 91205;
0137067910999992010010112004+46417+009817FM-12+329999999V0200501N000519999999N9999999N1-01061-01831999999ADDMA1999999065501MD1710041+9999ME1427879OA149901031REMSYN076AAXX  01124 06791 33/// /0501 11106 21183 36550 47787 57004 333 91120 91213;
0137067910999992010010113004+46417+009817FM-12+329999999V0200401N002619999999N9999999N1-01011-01291999999ADDMA1999999065501MD1710051+9999ME1427869OA149900311REMSYN076AAXX  01134 06791 33/// /0405 11101 21129 36550 47786 57005 333 91106 91205;
0137067910999992010010114004+46417+009817FM-12+329999999V0200401N003619999999N9999999N1-01031-01321999999ADDMA1999999065551MD1319999+9999ME1427939OA149900461REMSYN076AAXX  01144 06791 33/// /0407 11103 21132 36555 47793 53/// 333 91109 91207;
0137067910999992010010115004+46417+009817FM-12+329999999V0200301N003619999999N9999999N1-01071-01301999999ADDMA1999999065601MD1210101+9999ME1428009OA149900511REMSYN076AAXX  01154 06791 33/// /0307 11107 21130 36560 47800 52010 333 91110 91208;
0137067910999992010010116004+46417+009817FM-12+329999999V0200501N003119999999N9999999N1-01221-01251999999ADDMA1999999065641MD1110141+9999ME1428079OA149900671REMSYN076AAXX  01164 06791 33/// /0506 11122 21125 36564 47807 51014 333 91113 91208;
0137067910999992010010117004+46417+009817FM-12+329999999V0200301N006219999999N9999999N1-01141-01211999999ADDMA1999999065691MD1210141+9999ME1428129OA149900821REMSYN076AAXX  01174 06791 33/// /0312 11114 21121 36569 47812 52014 333 91116 91212;
0156067910999992010010118004+46417+009817FM-12+329999999V0200201N005719999999N9999999N1-01191-01231999999ADDKA1120M-00981MA1999999065741MD1210141+9999ME1428189OA149900981REMSYN082AAXX  01184 06791 33/// /0211 11119 21123 36574 47818 52014 333 11098 91119 91212;
0137067910999992010010119004+46417+009817FM-12+329999999V0200101N005119999999N9999999N1-01171-01211999999ADDMA1999999065801MD1210161+9999ME1428259OA149900981REMSYN076AAXX  01194 06791 33/// /0110 11117 21121 36580 47825 52016 333 91119 91212;
0137067910999992010010120004+46417+009817FM-12+329999999V0203501N005119999999N9999999N1-01241-01281999999ADDMA1999999065851MD1210161+9999ME1428329OA149900881REMSYN076AAXX  01204 06791 33/// /3510 11124 21128 36585 47832 52016 333 91117 91211;
0137067910999992010010121004+46417+009817FM-12+329999999V0203401N005119999999N9999999N1-01221-01221999999ADDMA1999999065891MD1110151+9999ME1428379OA149900981REMSYN076AAXX  01214 06791 33/// /3410 11122 21122 36589 47837 51015 333 91119 91212;
0154067910999992010010122004+46417+009817FM-12+329999999V0203201N005119999999N9999999N1-01361-01431999999ADDAA101000391MA1999999065951MD1210151+9999ME1428469OA149900931REMSYN082AAXX  01224 06791 23/// /3210 11136 21143 36595 47846 52015 333 69935 91118 91212;
0154067910999992010010123004+46417+009817FM-12+329999999V0203501N003619999999N9999999N1-01381-01411999999ADDAA101000021MA1999999065971MD1210121+9999ME1428499OA149900881REMSYN082AAXX  01234 06791 23/// /3507 11138 21141 36597 47849 52012 333 69915 91117 91210;
0160067910999992010010200004+46417+009817FM-12+329999999V0203401N004119999999N9999999N1-01461-01941999999ADDAA106000591MA1999999065991MD1210101+9999ME1428539OA149900981REMSYN088AAXX  02004 06791 03/// /3408 11146 21194 36599 47853 52010 69941 333 60005 91119 91212;
0137067910999992010010201004+46417+009817FM-12+329999999V0200201N002619999999N9999999N1-01431-01991999999ADDMA1999999065991MD1210041+9999ME1428529OA149900771REMSYN076AAXX  02014 06791 33/// /0205 11143 21199 36599 47852 52004 333 91115 91210;
0096067910999992010010202004+46417+009817FM-12+329999999V0200701N002619999999N9999999N1-01531-01901999999ADDMA1999999066031ME1428599REMSYN060AAXX  02024 06791 33/// /0705 11153 21190 36603 47859 5////;
0137067910999992010010203004+46417+009817FM-12+329999999V0200901N002119999999N9999999N1-01601-02091999999ADDMA1999999066031MD1210041+9999ME1428609OA149900881REMSYN076AAXX  02034 06791 33/// /0904 11160 21209 36603 47860 52004 333 91117 91210;
0137067910999992010010204004+46417+009817FM-12+329999999V0200201N002619999999N9999999N1-01571-01631999999ADDMA1999999066051MD1210061+9999ME1428629OA149900821REMSYN076AAXX  02044 06791 33/// /0205 11157 21163 36605 47862 52006 333 91116 91207;
0137067910999992010010205004+46417+009817FM-12+329999999V0200201N001519999999N9999999N1-01651-02311999999ADDMA1999999066041MD1510011+9999ME1428629OA149900821REMSYN076AAXX  02054 06791 33/// /0203 11165 21231 36604 47862 55001 333 91116 91207;
0220067910999992010010206004+46417+009817FM-12+329999999V0200801N004119999999N9999999N1-01681-02011999999ADDAA112000591AA224000591AL12400091GJ101929KA1999N-01701MA1999999066031MD1010001+9999ME1428619OA149900931REMSYN106AAXX  02064 06791 03/// /0808 11168 21201 36603 47861 50000 69942 333 21170 55032 60005 70004 91118 91212;
0137067910999992010010207004+46417+009817FM-12+329999999V0200201N004119999999N9999999N1-01791-02291999999ADDMA1999999066021MD1710031+9999ME1428629OA149900671REMSYN076AAXX  02074 06791 33/// /0208 11179 21229 36602 47862 57003 333 91113 91208;
0096067910999992010010208004+46417+009817FM-12+329999999V0200201N005119999999N9999999N1-01811-02371999999ADDMA1999999066031ME1428639REMSYN060AAXX  02084 06791 33/// /0210 11181 21237 36603 47863 5////;
0154067910999992010010209004+46417+009817FM-12+329999999V0200301N004619999999N9999999N1-02041-02771999999ADDAA101000021MA1999999066051MD1210021+9999ME1428709OA149901031REMSYN082AAXX  02094 06791 23/// /0309 11204 21277 36605 47870 52002 333 69915 91120 91211;
0154067910999992010010210004+46417+009817FM-12+329999999V0200201N006219999999N9999999N1-02091-02771999999ADDAA101000021MA1999999066081MD1210061+9999ME1428749OA149901081REMSYN082AAXX  02104 06791 23/// /0212 11209 21277 36608 47874 52006 333 69915 91121 91212;
0137067910999992010010211004+46417+009817FM-12+329999999V0200301N006219999999N9999999N1-02261-03041999999ADDMA1999999066091MD1210061+9999ME1428789OA149901241REMSYN076AAXX  02114 06791 33/// /0312 11226 21304 36609 47878 52006 333 91124 91214;
0179067910999992010010212004+46417+009817FM-12+329999999V0200101N007219999999N9999999N1-02291-02321999999ADDAA106000091MA1999999066131MD1210081+9999ME1428839OA149901391REMSYN088AAXX  02124 06791 03/// /0114 11229 21232 36613 47883 52008 69921 333 60005 91127 91216;EQDQ01  00002PRCP06
0137067910999992010010213004+46417+009817FM-12+329999999V0200201N007219999999N9999999N1-02301-02611999999ADDMA1999999066161MD1210081+9999ME1428869OA149901601REMSYN076AAXX  02134 06791 33/// /0214 11230 21261 36616 47886 52008 333 91131 91216;
0137067910999992010010214004+46417+009817FM-12+329999999V0200101N006719999999N9999999N1-02411-03231999999ADDMA1999999066151MD1219999+9999ME1428879OA149901601REMSYN076AAXX  02144 06791 33/// /0113 11241 21323 36615 47887 52/// 333 91131 91217;
0154067910999992010010215004+46417+009817FM-12+329999999V0200201N009819999999N9999999N1-02371-02402999999ADDAA101000021MA1999999066211MD1210081+9999ME1428939OA149901901REMSYN082AAXX  02154 06791 23/// /0219 11237 21240 36621 47893 52008 333 69915 91137 91219;
0137067910999992010010216004+46417+009817FM-12+329999999V0200401N009319999999N9999999N1-02341-02611999999ADDMA1999999066261MD1210101+9999ME1428989OA149901901REMSYN076AAXX  02164 06791 33/// /0418 11234 21261 36626 47898 52010 333 91137 91219;
0154067910999992010010217004+46417+009817FM-12+329999999V0200401N009319999999N9999999N1-02491-02491999999ADDAA101000021MA1999999066311MD1210161+9999ME1429069OA149901851REMSYN082AAXX  02174 06791 23/// /0418 11249 21249 36631 47906 52016 333 69925 91136 91218;
0179067910999992010010218004+46417+009817FM-12+329999999V0200201N010819999999N9999999N1-02461-02651999999ADDAA112000591KA1120M-01611MA1999999066321MD1210111+9999ME1429079OA149901901REMSYN094AAXX  02184 06791 03/// /0221 11246 21265 36632 47907 52011 69962 333 11161 69915 91137 91223;
0137067910999992010010219004+46417+009817FM-12+329999999V0200301N012319999999N9999999N1-02471-02471999999ADDMA1999999066361MD1210101+9999ME1429129OA149902011REMSYN076AAXX  02194 06791 33/// /0324 11247 21247 36636 47912 52010 333 91139 91226;
0137067910999992010010220004+46417+009817FM-12+329999999V0200301N009819999999N9999999N1-02531-02731999999ADDMA1999999066401MD1210091+9999ME1429179OA149902011REMSYN076AAXX  02204 06791 33/// /0319 11253 21273 36640 47917 52009 333 91139 91227;
0137067910999992010010221004+46417+009817FM-12+329999999V0200301N013919999999N9999999N1-02461-02591999999ADDMA1999999066401MD1210081+9999ME1429169OA149902011REMSYN076AAXX  02214 06791 33/// /0327 11246 21259 36640 47916 52008 333 91139 91229;
0154067910999992010010222004+46417+009817FM-12+329999999V0200301N013419999999N9999999N1-02451-02851999999ADDAA101000021MA1999999066421MD1210061+9999ME1429189OA149901961REMSYN082AAXX  02224 06791 23/// /0326 11245 21285 36642 47918 52006 333 69915 91138 91232;
0137067910999992010010223004+46417+009817FM-12+329999999V0200301N012319999999N9999999N1-02401-02641999999ADDMA1999999066471MD1210071+9999ME1429239OA149901961REMSYN076AAXX  02234 06791 33/// /0324 11240 21264 36647 47923 52007 333 91138 91232;
0179067910999992010010300004+46417+009817FM-12+329999999V0200401N013919999999N9999999N1-02411-02751999999ADDAA106000091MA1999999066481MD1210081+9999ME1429249OA149902011REMSYN088AAXX  03004 06791 03/// /0427 11241 21275 36648 47924 52008 69911 333 60005 91139 91232;EQDQ01  00002PRCP06
0137067910999992010010301004+46417+009817FM-12+329999999V0200301N010819999999N9999999N1-02351-02741999999ADDMA1999999066521MD1210101+9999ME1429279OA149901961REMSYN076AAXX  03014 06791 33/// /0321 11235 21274 36652 47927 52010 333 91138 91228;
0096067910999992010010302004+46417+009817FM-12+329999999V0200201N009319999999N9999999N1-02321-02711999999ADDMA1999999066551ME1429309REMSYN060AAXX  03024 06791 33/// /0218 11232 21271 36655 47930 5////;
0096067910999992010010303004+46417+009817FM-12+329999999V0200201N009319999999N9999999N1-02291-02731999999ADDMA1999999066591ME1429349REMSYN060AAXX  03034 06791 33/// /0218 11229 21273 36659 47934 5////;
0137067910999992010010304004+46417+009817FM-12+329999999V0200201N009319999999N9999999N1-02161-03101999999ADDMA1999999066601MD1210081+9999ME1429349OA149901601REMSYN076AAXX  03044 06791 33/// /0218 11216 21310 36660 47934 52008 333 91131 91220;
0137067910999992010010305004+46417+009817FM-12+329999999V0200101N008219999999N9999999N1-02171-03001999999ADDMA1999999066641MD1219999+9999ME1429389OA149901291REMSYN076AAXX  03054 06791 33/// /0116 11217 21300 36664 47938 52/// 333 91125 91220;
0239067910999992010010306004+46417+009817FM-12+329999999V0209999C006719999999N9999999N1-02141-03121999999ADDAA112000091AA224000891AL14200091GJ101389KA1999N-02531MA1999999066641MD1210051+9999ME1429389OA149902011REMSYN106AAXX  03064 06791 03/// /0013 11214 21312 36664 47938 52005 69912 333 21253 55023 60005 70007 91139 91232;EQDQ01  00002PRCP12
0137067910999992010010307004+46417+009817FM-12+329999999V0203401N006219999999N9999999N1-02101-03161999999ADDMA1999999066671MD1210071+9999ME1429419OA149901391REMSYN076AAXX  03074 06791 33/// /3412 11210 21316 36667 47941 52007 333 91127 91216;
0137067910999992010010308004+46417+009817FM-12+329999999V0203201N005719999999N9999999N1-02081-02921999999ADDMA1999999066721MD1219999+9999ME1429469OA149900981REMSYN076AAXX  03084 06791 33/// /3211 11208 21292 36672 47946 52/// 333 91119 91213;
0137067910999992010010309004+46417+009817FM-12+329999999V0203001N005119999999N9999999N1-02071-03231999999ADDMA1999999066781MD1210141+9999ME1429529OA149901391REMSYN076AAXX  03094 06791 33/// /3010 11207 21323 36678 47952 52014 333 91127 91220;
0137067910999992010010310004+46417+009817FM-12+329999999V0202801N005719999999N9999999N1-02051-02771999999ADDMA1999999066831MD1110161+9999ME1429589OA149900981REMSYN076AAXX  03104 06791 33/// /2811 11205 21277 36683 47958 51016 333 91119 91212;
0137067910999992010010311004+46417+009817FM-12+329999999V0203001N003619999999N9999999N1-02011-02951999999ADDMA1999999066791MD1210071+9999ME1429539OA149900981REMSYN076AAXX  03114 06791 33/// /3007 11201 21295 36679 47953 52007 333 91119 91211;
0137067910999992010010312004+46417+009817FM-12+329999999V0202701N004619999999N9999999N1-02001-02881999999ADDMA1999999066741MD1810041+9999ME1429479OA149901851REMSYN076AAXX  03124 06791 33/// /2709 11200 21288 36674 47947 58004 333 91136 91228;
0137067910999992010010313004+46417+009817FM-12+329999999V0202401N004619999999N9999999N1-01961-02861999999ADDMA1999999066731MD1710101+9999ME1429459OA149900771REMSYN076AAXX  03134 06791 33/// /2409 11196 21286 36673 47945 57010 333 91115 91210;
0137067910999992010010314004+46417+009817FM-12+329999999V0202501N006219999999N9999999N1-01971-02811999999ADDMA1999999066731MD1710061+9999ME1429459OA149900821REMSYN076AAXX  03144 06791 33/// /2512 11197 21281 36673 47945 57006 333 91116 91212;
0137067910999992010010315004+46417+009817FM-12+329999999V0202601N007219999999N9999999N1-01941-02871999999ADDMA1999999066761MD1310021+9999ME1429489OA149901241REMSYN076AAXX  03154 06791 33/// /2614 11194 21287 36676 47948 53002 333 91124 91215;
0137067910999992010010316004+46417+009817FM-12+329999999V0202501N007219999999N9999999N1-01981-02761999999ADDMA1999999066761MD1210031+9999ME1429499OA149901241REMSYN076AAXX  03164 06791 33/// /2514 11198 21276 36676 47949 52003 333 91124 91215;
0137067910999992010010317004+46417+009817FM-12+329999999V0202501N006219999999N9999999N1-02011-02831999999ADDMA1999999066731MD1010001+9999ME1429469OA149901031REMSYN076AAXX  03174 06791 33/// /2512 11201 21283 36673 47946 50000 333 91120 91215;
0156067910999992010010318004+46417+009817FM-12+329999999V0202501N006719999999N9999999N1-01991-02681999999ADDKA1120M-01911MA1999999066751MD1010011+9999ME1429489OA149901241REMSYN082AAXX  03184 06791 33/// /2513 11199 21268 36675 47948 50001 333 11191 91124 91215;
0137067910999992010010319004+46417+009817FM-12+329999999V0202701N006719999999N9999999N1-01981-02651999999ADDMA1999999066771MD1310011+9999ME1429509OA149901081REMSYN076AAXX  03194 06791 33/// /2713 11198 21265 36677 47950 53001 333 91121 91214;
0137067910999992010010320004+46417+009817FM-12+329999999V0202801N008719999999N9999999N1-01951-02611999999ADDMA1999999066731MD1010001+9999ME1429459OA149901341REMSYN076AAXX  03204 06791 33/// /2817 11195 21261 36673 47945 50000 333 91126 91217;
0137067910999992010010321004+46417+009817FM-12+329999999V0202601N006219999999N9999999N1-01961-03111999999ADDMA1999999066741MD1810011+9999ME1429469OA149901341REMSYN076AAXX  03214 06791 33/// /2612 11196 21311 36674 47946 58001 333 91126 91217;
0137067910999992010010322004+46417+009817FM-12+329999999V0202601N008719999999N9999999N1-01961-03221999999ADDMA1999999066731MD1710041+9999ME1429459OA149901241REMSYN076AAXX  03224 06791 33/// /2617 11196 21322 36673 47945 57004 333 91124 91217;
0137067910999992010010323004+46417+009817FM-12+329999999V0202701N006719999999N9999999N1-01881-02751999999ADDMA1999999066731MD1010001+9999ME1429449OA149901291REMSYN076AAXX  03234 06791 33/// /2713 11188 21275 36673 47944 50000 333 91125 91217;
0137067910999992010010400004+46417+009817FM-12+329999999V0202401N006219999999N9999999N1-01871-03021999999ADDMA1999999066691MD1810051+9999ME1429399OA149901341REMSYN076AAXX  04004 06791 33/// /2412 11187 21302 36669 47939 58005 333 91126 91217;
0137067910999992010010401004+46417+009817FM-12+329999999V0202401N009319999999N9999999N1-01811-02661999999ADDMA1999999066661MD1810071+9999ME1429359OA149901341REMSYN076AAXX  04014 06791 33/// /2418 11181 21266 36666 47935 58007 333 91126 91218;
0137067910999992010010402004+46417+009817FM-12+329999999V0202401N011319999999N9999999N1-01721-02361999999ADDMA1999999066651MD1710081+9999ME1429339OA149901701REMSYN076AAXX  04024 06791 33/// /2422 11172 21236 36665 47933 57008 333 91133 91223;
0137067910999992010010403004+46417+009817FM-12+329999999V0202301N010819999999N9999999N1-01601-02081999999ADDMA1999999066601MD1719999+9999ME1429259OA149901851REMSYN076AAXX  04034 06791 33/// /2321 11160 21208 36660 47925 57/// 333 91136 91223;
0137067910999992010010404004+46417+009817FM-12+329999999V0202201N007719999999N9999999N1-01581-01971999999ADDMA1999999066581MD1710081+9999ME1429239OA149901851REMSYN076AAXX  04044 06791 33/// /2215 11158 21197 36658 47923 57008 333 91136 91223;
0137067910999992010010405004+46417+009817FM-12+329999999V0202301N010319999999N9999999N1-01491-01901999999ADDMA1999999066541MD1810111+9999ME1429179OA149901701REMSYN076AAXX  04054 06791 33/// /2320 11149 21190 36654 47917 58011 333 91133 91220;
0216067910999992010010406004+46417+009817FM-12+329999999V0202101N004119999999N9999999N1-01561-01661999999ADDAA124000091AL19900091GJ104209KA1999N-02001MA1999999066531MD1710071+9999ME1429179OA149901851REMSYN094AAXX  04064 06791 33/// /2108 11156 21166 36653 47917 57007 333 21200 55070 70000 91136 91223;EQDQ01  00002PRCP24
0137067910999992010010407004+46417+009817FM-12+329999999V0202401N004619999999N9999999N1-01621-01801999999ADDMA1999999066531MD1510051+9999ME1429189OA149901701REMSYN076AAXX  04074 06791 33/// /2409 11162 21180 36653 47918 55005 333 91133 91223;
0137067910999992010010408004+46417+009817FM-12+329999999V0202401N008719999999N9999999N1-01601-01751999999ADDMA1999999066531MD1710011+9999ME1429179OA149901441REMSYN076AAXX  04084 06791 33/// /2417 11160 21175 36653 47917 57001 333 91128 91217;
0137067910999992010010409004+46417+009817FM-12+329999999V0202401N008719999999N9999999N1-01661-02091999999ADDMA1999999066531MD1010001+9999ME1429189OA149901701REMSYN076AAXX  04094 06791 33/// /2417 11166 21209 36653 47918 50000 333 91133 91223;
0137067910999992010010410004+46417+009817FM-12+329999999V0202301N010319999999N9999999N1-01581-01901999999ADDMA1999999066521MD1710011+9999ME1429169OA149901541REMSYN076AAXX  04104 06791 33/// /2320 11158 21190 36652 47916 57001 333 91130 91220;
0137067910999992010010411004+46417+009817FM-12+329999999V0202301N006219999999N9999999N1-01511-01591999999ADDMA1999999066491MD1710041+9999ME1429119OA149901801REMSYN076AAXX  04114 06791 33/// /2312 11151 21159 36649 47911 57004 333 91135 91222;
0137067910999992010010412004+46417+009817FM-12+329999999V0202401N009319999999N9999999N1-01451-01571999999ADDMA1999999066441MD1710091+9999ME1429059OA149901851REMSYN076AAXX  04124 06791 33/// /2418 11145 21157 36644 47905 57009 333 91136 91223;
0137067910999992010010413004+46417+009817FM-12+329999999V0202401N010819999999N9999999N1-01381-01481999999ADDMA1999999066401MD1610121+9999ME1428999OA149901701REMSYN076AAXX  04134 06791 33/// /2421 11138 21148 36640 47899 56012 333 91133 91221;
0137067910999992010010414004+46417+009817FM-12+329999999V0202401N010319999999N9999999N1-01321-01491999999ADDMA1999999066391MD1619999+9999ME1428979OA149901851REMSYN076AAXX  04144 06791 33/// /2420 11132 21149 36639 47897 56/// 333 91136 91223;
0137067910999992010010415004+46417+009817FM-12+329999999V0202601N007719999999N9999999N1-01311-01501999999ADDMA1999999066411MD1510031+9999ME1428999OA149901851REMSYN076AAXX  04154 06791 33/// /2615 11131 21150 36641 47899 55003 333 91136 91223;
0137067910999992010010416004+46417+009817FM-12+329999999V0202501N008219999999N9999999N1-01331-01551999999ADDMA1999999066431MD1210031+9999ME1429029OA149901441REMSYN076AAXX  04164 06791 33/// /2516 11133 21155 36643 47902 52003 333 91128 91219;
0137067910999992010010417004+46417+009817FM-12+329999999V0202501N009819999999N9999999N1-01321-01681999999ADDMA1999999066421MD1210031+9999ME1429009OA149901541REMSYN076AAXX  04174 06791 33/// /2519 11132 21168 36642 47900 52003 333 91130 91219;
0156067910999992010010418004+46417+009817FM-12+329999999V0202501N009819999999N9999999N1-01311-01801999999ADDKA1120M-01301MA1999999066431MD1210021+9999ME1429019OA149901851REMSYN082AAXX  04184 06791 33/// /2519 11131 21180 36643 47901 52002 333 11130 91136 91223;
0156067910999992010010419004+46417+009817FM-12+329999999V0202501N006219999999N9999999N1-01341-01941999999ADDMA1999999066431MD1410001+9999ME1429029OA149901851REMSYN076AAXX  04194 06791 33/// /2512 11134 21194 36643 47902 57000 333 91136 91223;EQDQ01+000072APCTEN
0137067910999992010010420004+46417+009817FM-12+329999999V0202401N003119999999N9999999N1-01361-01611999999ADDMA1999999066441MD1210021+9999ME1429039OA149901541REMSYN076AAXX  04204 06791 33/// /2406 11136 21161 36644 47903 52002 333 91130 91219;
0137067910999992010010421004+46417+009817FM-12+329999999V0202501N009319999999N9999999N1-01341-01611999999ADDMA1999999066431MD1010001+9999ME1429029OA149901851REMSYN076AAXX  04214 06791 33/// /2518 11134 21161 36643 47902 50000 333 91136 91223;
0137067910999992010010422004+46417+009817FM-12+329999999V0202401N007219999999N9999999N1-01351-01661999999ADDMA1999999066431MD1410001+9999ME1429029OA149901491REMSYN076AAXX  04224 06791 33/// /2414 11135 21166 36643 47902 57000 333 91129 91218;
0137067910999992010010423004+46417+009817FM-12+329999999V0202401N007219999999N9999999N1-01351-01541999999ADDMA1999999066411MD1710031+9999ME1429009OA149901491REMSYN076AAXX  04234 06791 33/// /2414 11135 21154 36641 47900 57003 333 91129 91218;
0137067910999992010010500004+46417+009817FM-12+329999999V0202501N005119999999N9999999N1-01371-01661999999ADDMA1999999066381MD1710051+9999ME1428969OA149901851REMSYN076AAXX  05004 06791 33/// /2510 11137 21166 36638 47896 57005 333 91136 91223;
0137067910999992010010501004+46417+009817FM-12+329999999V0202401N006719999999N9999999N1-01381-01641999999ADDMA1999999066341MD1710091+9999ME1428929OA149901341REMSYN076AAXX  05014 06791 33/// /2413 11138 21164 36634 47892 57009 333 91126 91218;
0137067910999992010010502004+46417+009817FM-12+329999999V0202501N005719999999N9999999N1-01451-01591999999ADDMA1999999066321MD1710091+9999ME1428919OA149901181REMSYN076AAXX  05024 06791 33/// /2511 11145 21159 36632 47891 57009 333 91123 91215;
0137067910999992010010503004+46417+009817FM-12+329999999V0202501N005719999999N9999999N1-01471-02011999999ADDMA1999999066281MD1610101+9999ME1428869OA149901491REMSYN076AAXX  05034 06791 33/// /2511 11147 21201 36628 47886 56010 333 91129 91218;
0137067910999992010010504004+46417+009817FM-12+329999999V0202501N006219999999N9999999N1-01461-02021999999ADDMA1999999066241MD1810101+9999ME1428829OA149901031REMSYN076AAXX  05044 06791 33/// /2512 11146 21202 36624 47882 58010 333 91120 91212;
0137067910999992010010505004+46417+009817FM-12+329999999V0202301N003119999999N9999999N1-01481-01691999999ADDMA1999999066191MD1810131+9999ME1428769OA149900881REMSYN076AAXX  05054 06791 33/// /2306 11148 21169 36619 47876 58013 333 91117 91212;
0216067910999992010010506004+46417+009817FM-12+329999999V0202001N005719999999N9999999N1-01441-02041999999ADDAA124000091AL19900091GJ100129KA1999N-01491MA1999999066161MD1810121+9999ME1428729OA149901541REMSYN094AAXX  05064 06791 33/// /2011 11144 21204 36616 47872 58012 333 21149 55002 70000 91130 91219;EQDQ01  00002PRCP24
0137067910999992010010507004+46417+009817FM-12+329999999V0202001N006719999999N9999999N1-01411-02011999999ADDMA1999999066131MD1610111+9999ME1428689OA149901131REMSYN076AAXX  05074 06791 33/// /2013 11141 21201 36613 47868 56011 333 91122 91213;
0137067910999992010010508004+46417+009817FM-12+329999999V0202001N007219999999N9999999N1-01431-01991999999ADDMA1999999066131MD1710061+9999ME1428689OA149901241REMSYN076AAXX  05084 06791 33/// /2014 11143 21199 36613 47868 57006 333 91124 91217;
0137067910999992010010509004+46417+009817FM-12+329999999V0202001N009819999999N9999999N1-01401-01721999999ADDMA1999999066111MD1710051+9999ME1428669OA149901541REMSYN076AAXX  05094 06791 33/// /2019 11140 21172 36611 47866 57005 333 91130 91219;
0137067910999992010010510004+46417+009817FM-12+329999999V0202001N010319999999N9999999N1-01341-02031999999ADDMA1999999066101MD1710031+9999ME1428639OA149901651REMSYN076AAXX  05104 06791 33/// /2020 11134 21203 36610 47863 57003 333 91132 91221;
0137067910999992010010511004+46417+009817FM-12+329999999V0202001N008719999999N9999999N1-01341-02131999999ADDMA1999999066051MD1710081+9999ME1428589OA149901651REMSYN076AAXX  05114 06791 33/// /2017 11134 21213 36605 47858 57008 333 91132 91221;
0137067910999992010010512004+46417+009817FM-12+329999999V0202001N006219999999N9999999N1-01311-02171999999ADDMA1999999066011MD1710101+9999ME1428529OA149901651REMSYN076AAXX  05124 06791 33/// /2012 11131 21217 36601 47852 57010 333 91132 91221;
0137067910999992010010513004+46417+009817FM-12+329999999V0202001N006219999999N9999999N1-01271-02371999999ADDMA1999999065981MD1610121+9999ME1428489OA149901391REMSYN076AAXX  05134 06791 33/// /2012 11127 21237 36598 47848 56012 333 91127 91217;
0096067910999992010010514004+46417+009817FM-12+329999999V0202001N006719999999N9999999N1-01271-02471999999ADDMA1999999065941ME1428439REMSYN060AAXX  05144 06791 33/// /2013 11127 21247 36594 47843 5////;
0137067910999992010010515004+46417+009817FM-12+329999999V0202001N006219999999N9999999N1-01281-02431999999ADDMA1999999065941MD1710071+9999ME1428449OA149901651REMSYN076AAXX  05154 06791 33/// /2012 11128 21243 36594 47844 57007 333 91132 91221;
0137067910999992010010516004+46417+009817FM-12+329999999V0202101N006719999999N9999999N1-01271-02861999999ADDMA1999999065921MD1710061+9999ME1428419OA149901291REMSYN076AAXX  05164 06791 33/// /2113 11127 21286 36592 47841 57006 333 91125 91213;
0137067910999992010010517004+46417+009817FM-12+329999999V0201901N008219999999N9999999N1-01251-02921999999ADDMA1999999065901MD1710041+9999ME1428389OA149901341REMSYN076AAXX  05174 06791 33/// /1916 11125 21292 36590 47838 57004 333 91126 91216;
0156067910999992010010518004+46417+009817FM-12+329999999V0202101N007219999999N9999999N1-01241-03021999999ADDKA1120M-01191MA1999999065881MD1610061+9999ME1428369OA149901651REMSYN082AAXX  05184 06791 33/// /2114 11124 21302 36588 47836 56006 333 11119 91132 91221;
0137067910999992010010519004+46417+009817FM-12+329999999V0201901N008219999999N9999999N1-01221-03021999999ADDMA1999999065861MD1810061+9999ME1428339OA149901241REMSYN076AAXX  05194 06791 33/// /1916 11122 21302 36586 47833 58006 333 91124 91216;
0137067910999992010010520004+46417+009817FM-12+329999999V0201901N008719999999N9999999N1-01211-03021999999ADDMA1999999065821MD1810081+9999ME1428289OA149901391REMSYN076AAXX  05204 06791 33/// /1917 11121 21302 36582 47828 58008 333 91127 91217;
0137067910999992010010521004+46417+009817FM-12+329999999V0201901N008219999999N9999999N1-01201-03021999999ADDMA1999999065801MD1610081+9999ME1428269OA149901391REMSYN076AAXX  05214 06791 33/// /1916 11120 21302 36580 47826 56008 333 91127 91218;
0137067910999992010010522004+46417+009817FM-12+329999999V0201901N007219999999N9999999N1-01201-02901999999ADDMA1999999065771MD1610091+9999ME1428229OA149901341REMSYN076AAXX  05224 06791 33/// /1914 11120 21290 36577 47822 56009 333 91126 91218;
0137067910999992010010523004+46417+009817FM-12+329999999V0201901N006719999999N9999999N1-01261-02901999999ADDMA1999999065751MD1810071+9999ME1428219OA149901291REMSYN076AAXX  05234 06791 33/// /1913 11126 21290 36575 47821 58007 333 91125 91217;
0137067910999992010010600004+46417+009817FM-12+329999999V0201901N008219999999N9999999N1-01301-03041999999ADDMA1999999065701MD1810101+9999ME1428169OA149901391REMSYN076AAXX  06004 06791 33/// /1916 11130 21304 36570 47816 58010 333 91127 91218;
0137067910999992010010601004+46417+009817FM-12+329999999V0202001N006719999999N9999999N1-01311-02951999999ADDMA1999999065681MD1810091+9999ME1428149OA149901241REMSYN076AAXX  06014 06791 33/// /2013 11131 21295 36568 47814 58009 333 91124 91217;
0137067910999992010010602004+46417+009817FM-12+329999999V0202101N004119999999N9999999N1-01331-02861999999ADDMA1999999065671MD1710081+9999ME1428139OA149901181REMSYN076AAXX  06024 06791 33/// /2108 11133 21286 36567 47813 57008 333 91123 91217;
0137067910999992010010603004+46417+009817FM-12+329999999V0202201N003119999999N9999999N1-01351-02711999999ADDMA1999999065661MD1710041+9999ME1428129OA149901291REMSYN076AAXX  06034 06791 33/// /2206 11135 21271 36566 47812 57004 333 91125 91217;
0137067910999992010010604004+46417+009817FM-12+329999999V0202101N004619999999N9999999N1-01331-02911999999ADDMA1999999065631MD1710051+9999ME1428089OA149901031REMSYN076AAXX  06044 06791 33/// /2109 11133 21291 36563 47808 57005 333 91120 91210;
0137067910999992010010605004+46417+009817FM-12+329999999V0202201N004119999999N9999999N1-01351-02891999999ADDMA1999999065631MD1710041+9999ME1428099OA149901291REMSYN076AAXX  06054 06791 33/// /2208 11135 21289 36563 47809 57004 333 91125 91210;
0216067910999992010010606004+46417+009817FM-12+329999999V0202301N004119999999N9999999N1-01441-02771999999ADDAA124000091AL19900091GJ102469KA1999N-01411MA1999999065631MD1510031+9999ME1428109OA149901391REMSYN094AAXX  06064 06791 33/// /2308 11144 21277 36563 47810 55003 333 21141 55041 70000 91127 91218;EQDQ01  00002PRCP24
0156067910999992010010607004+46417+009817FM-12+329999999V0202101N003619999999N9999999N1-01381-03051999999ADDMA1999999065631MD1410001+9999ME1428099OA149900881REMSYN076AAXX  06074 06791 33/// /2107 11138 21305 36563 47809 52000 333 91117 91208;EQDQ01+000022APCTEN
0137067910999992010010608004+46417+009817FM-12+329999999V0202101N003619999999N9999999N1-01371-03121999999ADDMA1999999065641MD1210011+9999ME1428109OA149900981REMSYN076AAXX  06084 06791 33/// /2107 11137 21312 36564 47810 52001 333 91119 91209;
0137067910999992010010609004+46417+009817FM-12+329999999V0202001N003619999999N9999999N1-01391-03231999999ADDMA1999999065661MD1310031+9999ME1428139OA149901291REMSYN076AAXX  06094 06791 33/// /2007 11139 21323 36566 47813 53003 333 91125 91210;
0137067910999992010010610004+46417+009817FM-12+329999999V0202301N004119999999N9999999N1-01381-02851999999ADDMA1999999065701MD1210071+9999ME1428179OA149901031REMSYN076AAXX  06104 06791 33/// /2308 11138 21285 36570 47817 52007 333 91120 91208;
0137067910999992010010611004+46417+009817FM-12+329999999V0202501N005719999999N9999999N1-01361-03031999999ADDMA1999999065691MD1219999+9999ME1428169OA149900771REMSYN076AAXX  06114 06791 33/// /2511 11136 21303 36569 47816 52/// 333 91115 91211;
0137067910999992010010612004+46417+009817FM-12+329999999V0202101N003119999999N9999999N1-01341-03131999999ADDMA1999999065671MD1010011+9999ME1428139OA149901291REMSYN076AAXX  06124 06791 33/// /2106 11134 21313 36567 47813 50001 333 91125 91217;
0137067910999992010010613004+46417+009817FM-12+329999999V0202301N002619999999N9999999N1-01421-02911999999ADDMA1999999065681MD1710021+9999ME1428169OA149900881REMSYN076AAXX  06134 06791 33/// /2305 11142 21291 36568 47816 57002 333 91117 91210;
0137067910999992010010614004+46417+009817FM-12+329999999V0202401N004119999999N9999999N1-01471-02821999999ADDMA1999999065691MD1219999+9999ME1428189OA149900881REMSYN076AAXX  06144 06791 33/// /2408 11147 21282 36569 47818 52/// 333 91117 91209;
0143067910999992010010615004+46417+009817FM-12+329999999V0202301N003119999999N9999999N1-01491-02901999999ADDMA1999999065701MD1319999+9999ME1428199OA149900881REMSYN082AAXX  06154 06791 33/// /2306 11149 21290 36570 47819 53/// 91440 333 91117 91211;
0137067910999992010010616004+46417+009817FM-12+329999999V0202201N004119999999N9999999N1-01501-02661999999ADDMA1999999065731MD1310051+9999ME1428239OA149901131REMSYN076AAXX  06164 06791 33/// /2208 11150 21266 36573 47823 53005 333 91122 91211;
0137067910999992010010617004+46417+009817FM-12+329999999V0202101N003119999999N9999999N1-01581-02411999999ADDMA1999999065741MD1210051+9999ME1428269OA149901131REMSYN076AAXX  06174 06791 33/// /2106 11158 21241 36574 47826 52005 333 91122 91211;
0156067910999992010010618004+46417+009817FM-12+329999999V0202101N003119999999N9999999N1-01651-02641999999ADDKA1120M-01341MA1999999065771MD1210061+9999ME1428319OA149901131REMSYN082AAXX  06184 06791 33/// /2106 11165 21264 36577 47831 52006 333 11134 91122 91211;
0137067910999992010010619004+46417+009817FM-12+329999999V0202101N003119999999N9999999N1-01681-02691999999ADDMA1999999065791MD1210061+9999ME1428339OA149900931REMSYN076AAXX  06194 06791 33/// /2106 11168 21269 36579 47833 52006 333 91118 91208;
0137067910999992010010620004+46417+009817FM-12+329999999V0202001N005119999999N9999999N1-01691-02571999999ADDMA1999999065801MD1210061+9999ME1428359OA149900931REMSYN076AAXX  06204 06791 33/// /2010 11169 21257 36580 47835 52006 333 91118 91210;
0137067910999992010010621004+46417+009817FM-12+329999999V0201601N004619999999N9999999N1-01741-02491999999ADDMA1999999065811MD1210041+9999ME1428379OA149901131REMSYN076AAXX  06214 06791 33/// /1609 11174 21249 36581 47837 52004 333 91122 91211;
0137067910999992010010622004+46417+009817FM-12+329999999V0201601N006719999999N9999999N1-01761-02411999999ADDMA1999999065801MD1410001+9999ME1428369OA149901291REMSYN076AAXX  06224 06791 33/// /1613 11176 21241 36580 47836 54001 333 91125 91213;
0137067910999992010010623004+46417+009817FM-12+329999999V0201601N002119999999N9999999N1-01751-02281999999ADDMA1999999065821MD1210021+9999ME1428389OA149901291REMSYN076AAXX  06234 06791 33/// /1604 11175 21228 36582 47838 52002 333 91125 91213;
0137067910999992010010700004+46417+009817FM-12+329999999V0201901N002619999999N9999999N1-01771-02301999999ADDMA1999999065811MD1010001+9999ME1428379OA149901291REMSYN076AAXX  07004 06791 33/// /1905 11177 21230 36581 47837 50000 333 91125 91213;
0137067910999992010010701004+46417+009817FM-12+329999999V0202001N003619999999N9999999N1-01761-02301999999ADDMA1999999065811MD1510011+9999ME1428379OA149901491REMSYN076AAXX  07014 06791 33/// /2007 11176 21230 36581 47837 55001 333 91129 91215;
0137067910999992010010702004+46417+009817FM-12+329999999V0201901N005119999999N9999999N1-01771-02381999999ADDMA1999999065821MD1519999+9999ME1428399OA149901491REMSYN076AAXX  07024 06791 33/// /1910 11177 21238 36582 47839 55/// 333 91129 91215;
0154067910999992010010703004+46417+009817FM-12+329999999V0202801N002619999999N9999999N1-01751-02161999999ADDAA101000021MA1999999065841MD1210031+9999ME1428409OA149901491REMSYN082AAXX  07034 06791 23/// /2805 11175 21216 36584 47840 52003 333 69915 91129 91215;
0154067910999992010010704004+46417+009817FM-12+329999999V0202001N005119999999N9999999N1-01791-02531999999ADDAA101000021MA1999999065841MD1110031+9999ME1428419OA149901081REMSYN082AAXX  07044 06791 23/// /2010 11179 21253 36584 47841 51003 333 69925 91121 91211;
0137067910999992010010705004+46417+009817FM-12+329999999V0202601N003119999999N9999999N1-01831-02231999999ADDMA1999999065871MD1310051+9999ME1428459OA149901081REMSYN076AAXX  07054 06791 33/// /2606 11183 21223 36587 47845 53005 333 91121 91211;
0220067910999992010010706004+46417+009817FM-12+329999999V0202501N006719999999N9999999N1-01901-02431999999ADDAA112000391AA224000391AL11800091GJ104629KA1999N-01931MA1999999065911MD1310071+9999ME1428519OA149901491REMSYN106AAXX  07064 06791 03/// /2513 11190 21243 36591 47851 53007 69932 333 21193 55077 60005 70003 91129 91215;
0137067910999992010010707004+46417+009817FM-12+329999999V0202401N008219999999N9999999N1-01881-02501999999ADDMA1999999065961MD1310121+9999ME1428579OA149901391REMSYN076AAXX  07074 06791 33/// /2416 11188 21250 36596 47857 53012 333 91127 91216;
0137067910999992010010708004+46417+009817FM-12+329999999V0202401N007719999999N9999999N1-01901-02561999999ADDMA1999999066031MD1319999+9999ME1428659OA149901541REMSYN076AAXX  07084 06791 33/// /2415 11190 21256 36603 47865 53/// 333 91130 91220;
0137067910999992010010709004+46417+009817FM-12+329999999V0202101N006219999999N9999999N1-01781-02771999999ADDMA1999999066091MD1210181+9999ME1428709OA149901541REMSYN076AAXX  07094 06791 33/// /2112 11178 21277 36609 47870 52018 333 91130 91220;
0137067910999992010010710004+46417+009817FM-12+329999999V0202101N005119999999N9999999N1-01751-02541999999ADDMA1999999066161MD1210201+9999ME1428779OA149901391REMSYN076AAXX  07104 06791 33/// /2110 11175 21254 36616 47877 52020 333 91127 91214;
0137067910999992010010711004+46417+009817FM-12+329999999V0201901N006219999999N9999999N1-01751-02521999999ADDMA1999999066181MD1210151+9999ME1428809OA149901601REMSYN076AAXX  07114 06791 33/// /1912 11175 21252 36618 47880 52015 333 91131 91214;
0137067910999992010010712004+46417+009817FM-12+329999999V0201901N005119999999N9999999N1-01691-02591999999ADDMA1999999066161MD1210071+9999ME1428769OA149901601REMSYN076AAXX  07124 06791 33/// /1910 11169 21259 36616 47876 52007 333 91131 91220;
0137067910999992010010713004+46417+009817FM-12+329999999V0201901N007719999999N9999999N1-01601-03011999999ADDMA1999999066161MD1019999+9999ME1428759OA149901601REMSYN076AAXX  07134 06791 33/// /1915 11160 21301 36616 47875 50/// 333 91131 91215;
0096067910999992010010715004+46417+009817FM-12+329999999V0201601N005119999999N9999999N1-01661-02651999999ADDMA1999999066221ME1428839REMSYN060AAXX  07154 06791 43/// /1610 11166 21265 36622 47883 5////;
0137067910999992010010716004+46417+009817FM-12+329999999V0201501N005119999999N9999999N1-01701-02891999999ADDMA1999999066271MD1219999+9999ME1428899OA149901701REMSYN076AAXX  07164 06791 33/// /1510 11170 21289 36627 47889 52/// 333 91133 91217;
0137067910999992010010717004+46417+009817FM-12+329999999V0201501N005119999999N9999999N1-01761-02591999999ADDMA1999999066291MD1119999+9999ME1428929OA149901241REMSYN076AAXX  07174 06791 33/// /1510 11176 21259 36629 47892 51/// 333 91124 91213;
0156067910999992010010718004+46417+009817FM-12+329999999V0201401N006719999999N9999999N1-01711-02401999999ADDKA1120M-01601MA1999999066311MD1119999+9999ME1428949OA149901701REMSYN082AAXX  07184 06791 33/// /1413 11171 21240 36631 47894 51/// 333 11160 91133 91220;
0137067910999992010010719004+46417+009817FM-12+329999999V0201501N004119999999N9999999N1-01681-02331999999ADDMA1999999066331MD1310061+9999ME1428969OA149901341REMSYN076AAXX  07194 06791 33/// /1508 11168 21233 36633 47896 53006 333 91126 91216;
0137067910999992010010720004+46417+009817FM-12+329999999V0201401N005719999999N9999999N1-01611-02211999999ADDMA1999999066301MD1010011+9999ME1428919OA149901181REMSYN076AAXX  07204 06791 33/// /1411 11161 21221 36630 47891 50001 333 91123 91212;
0154067910999992010010721004+46417+009817FM-12+329999999V0201301N005719999999N9999999N1-01611-02271999999ADDAA101000021MA1999999066311MD1410001+9999ME1428929OA149901341REMSYN082AAXX  07214 06791 23/// /1311 11161 21227 36631 47892 57000 333 69915 91126 91216;
0154067910999992010010722004+46417+009817FM-12+329999999V0201501N007719999999N9999999N1-01601-02131999999ADDAA101000021MA1999999066311MD1510021+9999ME1428929OA149901391REMSYN082AAXX  07224 06791 23/// /1515 11160 21213 36631 47892 55002 333 69915 91127 91215;
0154067910999992010010723004+46417+009817FM-12+329999999V0201401N005119999999N9999999N1-01531-01761999999ADDAA101000021MA1999999066311MD1010011+9999ME1428919OA149901601REMSYN082AAXX  07234 06791 23/// /1410 11153 21176 36631 47891 50001 333 69915 91131 91215;
0160067910999992010010800004+46417+009817FM-12+329999999V0201501N008219999999N9999999N1-01461-01591999999ADDAA106000891MA1999999066261MD1810051+9999ME1428849OA149901801REMSYN088AAXX  08004 06791 03/// /1516 11146 21159 36626 47884 58005 69981 333 69955 91135 91217;
0154067910999992010010801004+46417+009817FM-12+329999999V0201401N009319999999N9999999N1-01331-01491999999ADDAA101001091MA1999999066231MD1710081+9999ME1428789OA149902161REMSYN082AAXX  08014 06791 23/// /1418 11133 21149 36623 47878 57008 333 60015 91142 91219;
0154067910999992010010802004+46417+009817FM-12+329999999V0201401N008719999999N9999999N1-01261-01431999999ADDAA101001091MA1999999066231MD1719999+9999ME1428779OA149902161REMSYN082AAXX  08024 06791 23/// /1417 11126 21143 36623 47877 57/// 333 60015 91142 91222;
0154067910999992010010803004+46417+009817FM-12+329999999V0201401N007219999999N9999999N1-01291-01371999999ADDAA101001091MA1999999066211MD1719999+9999ME1428759OA149902211REMSYN082AAXX  08034 06791 23/// /1414 11129 21137 36621 47875 57/// 333 60015 91143 91223;
0154067910999992010010804004+46417+009817FM-12+329999999V0201501N009319999999N9999999N1-01181-01301999999ADDAA101001091MA1999999066211MD1710021+9999ME1428749OA149902521REMSYN082AAXX  08044 06791 23/// /1518 11118 21130 36621 47874 57002 333 60015 91149 91223;
0154067910999992010010805004+46417+009817FM-12+329999999V0201401N011319999999N9999999N1-01071-01201999999ADDAA101001091MA1999999066181MD1710051+9999ME1428689OA149902521REMSYN082AAXX  08054 06791 23/// /1422 11107 21120 36618 47868 57005 333 60015 91149 91222;
0220067910999992010010806004+46417+009817FM-12+329999999V0201401N010319999999N9999999N1-01081-01201999999ADDAA112007992AA224007492AL11800791GJ102829KA1999N-01731MA1999999066211MD1510001+9999ME1428729OA149902521REMSYN106AAXX  08064 06791 03/// /1420 11108 21120 36621 47872 55000 60082 333 21173 55047 60015 70073 91149 91223;
0154067910999992010010807004+46417+009817FM-12+329999999V0201501N009819999999N9999999N1-01021-01181999999ADDAA101003091MA1999999066231MD1210021+9999ME1428739OA149902061REMSYN082AAXX  08074 06791 23/// /1519 11102 21118 36623 47873 52002 333 60035 91140 91221;
0154067910999992010010808004+46417+009817FM-12+329999999V0201401N009319999999N9999999N1-01011-01091999999ADDAA101001091MA1999999066221MD1010041+9999ME1428729OA149902061REMSYN082AAXX  08084 06791 23/// /1418 11101 21109 36622 47872 50004 333 60015 91140 91220;
0173067910999992010010809004+46417+009817FM-12+329999999V0201401N010319999999N9999999N1-00911-01041999999ADDAA101001091MA1999999066211MD1410001+9999ME1428699OA149902521REMSYN082AAXX  08094 06791 23/// /1420 11091 21104 36621 47869 58000 333 69995 91149 91222;EQDQ01+000082APCTEN
0154067910999992010010810004+46417+009817FM-12+329999999V0201401N008719999999N9999999N1-00921-01011999999ADDAA101000891MA1999999066241MD1210011+9999ME1428739OA149902521REMSYN082AAXX  08104 06791 23/// /1417 11092 21101 36624 47873 52001 333 69985 91149 91222;
0154067910999992010010811004+46417+009817FM-12+329999999V0201501N008219999999N9999999N1-00921-01001999999ADDAA101001091MA1999999066201MD1710021+9999ME1428689OA149902061REMSYN082AAXX  08114 06791 23/// /1516 11092 21100 36620 47868 57002 333 60015 91140 91220;
0160067910999992010010812004+46417+009817FM-12+329999999V0201401N005719999999N9999999N1-00931-00941999999ADDAA106007191MA1999999066131MD1810081+9999ME1428609OA149902521REMSYN088AAXX  08124 06791 03/// /1411 11093 21094 36613 47860 58008 60071 333 69975 91149 91223;
0154067910999992010010813004+46417+009817FM-12+329999999V0201501N006219999999N9999999N1-00931-00941999999ADDAA101000591MA1999999066071MD1810171+9999ME1428539OA149901851REMSYN082AAXX  08134 06791 23/// /1512 11093 21094 36607 47853 58017 333 69945 91136 91217;
0154067910999992010010814004+46417+009817FM-12+329999999V0201501N006219999999N9999999N1-00871-00941999999ADDAA101000021MA1999999066041MD1619999+9999ME1428489OA149901751REMSYN082AAXX  08144 06791 23/// /1512 11087 21094 36604 47848 56/// 333 69915 91134 91217;
0154067910999992010010815004+46417+009817FM-12+329999999V0201401N003619999999N9999999N1-00891-00921999999ADDAA101000391MA1999999066011MD1610121+9999ME1428459OA149902061REMSYN082AAXX  08154 06791 23/// /1407 11089 21092 36601 47845 56012 333 69935 91140 91220;
0154067910999992010010816004+46417+009817FM-12+329999999V0201501N007219999999N9999999N1-00901-00941999999ADDAA101000021MA1999999066011MD1710061+9999ME1428459OA149901601REMSYN082AAXX  08164 06791 23/// /1514 11090 21094 36601 47845 57006 333 69925 91131 91216;
0154067910999992010010817004+46417+009817FM-12+329999999V0201401N008719999999N9999999N1-00921-00971999999ADDAA101001091MA1999999065991MD1719999+9999ME1428439OA149901601REMSYN082AAXX  08174 06791 23/// /1417 11092 21097 36599 47843 57/// 333 60015 91131 91218;
0179067910999992010010818004+46417+009817FM-12+329999999V0201401N006219999999N9999999N1-00921-00991999999ADDAA112010991KA1120M-00871MA1999999066021MD1310011+9999ME1428479OA149902521REMSYN094AAXX  08184 06791 03/// /1412 11092 21099 36602 47847 53001 60112 333 11087 60025 91149 91222;
0154067910999992010010819004+46417+009817FM-12+329999999V0201401N003619999999N9999999N1-00941-01021999999ADDAA101002091MA1999999066051MD1210041+9999ME1428519OA149901651REMSYN082AAXX  08194 06791 23/// /1407 11094 21102 36605 47851 52004 333 60025 91132 91220;
0154067910999992010010820004+46417+009817FM-12+329999999V0201401N002619999999N9999999N1-00981-00991999999ADDAA101000591MA1999999066061MD1110071+9999ME1428529OA149901491REMSYN082AAXX  08204 06791 23/// /1405 11098 21099 36606 47852 51007 333 69955 91129 91213;
0154067910999992010010821004+46417+009817FM-12+329999999V0201401N002119999999N9999999N1-00961-00991999999ADDAA101000891MA1999999066071MD1110051+9999ME1428539OA149901651REMSYN082AAXX  08214 06791 23/// /1404 11096 21099 36607 47853 51005 333 69975 91132 91220;
0154067910999992010010822004+46417+009817FM-12+329999999V0201601N006219999999N9999999N1-00931-01031999999ADDAA101000021MA1999999066091MD1110041+9999ME1428559OA149901131REMSYN082AAXX  08224 06791 23/// /1612 11093 21103 36609 47855 51004 333 69925 91122 91212;
0137067910999992010010823004+46417+009817FM-12+329999999V0201801N005119999999N9999999N1-00971-01121999999ADDMA1999999066101MD1210041+9999ME1428579OA149901341REMSYN076AAXX  08234 06791 33/// /1810 11097 21112 36610 47857 52004 333 91126 91212;
0160067910999992010010900004+46417+009817FM-12+329999999V0202201N005119999999N9999999N1-00951-01641999999ADDAA106003091MA1999999066081MD1010011+9999ME1428549OA149901751REMSYN088AAXX  09004 06791 03/// /2210 11095 21164 36608 47854 50001 60031 333 60005 91134 91220;
0137067910999992010010901004+46417+009817FM-12+329999999V0202201N005119999999N9999999N1-01031-01571999999ADDMA1999999066071MD1710021+9999ME1428549OA149901341REMSYN076AAXX  09014 06791 33/// /2210 11103 21157 36607 47854 57002 333 91126 91218;
0137067910999992010010902004+46417+009817FM-12+329999999V0201601N004119999999N9999999N1-00951-01731999999ADDMA1999999066091MD1519999+9999ME1428559OA149901291REMSYN076AAXX  09024 06791 33/// /1608 11095 21173 36609 47855 55/// 333 91125 91215;
0137067910999992010010903004+46417+009817FM-12+329999999V0201801N004119999999N9999999N1-01021-01601999999ADDMA1999999066071MD1719999+9999ME1428549OA149901341REMSYN076AAXX  09034 06791 33/// /1808 11102 21160 36607 47854 57/// 333 91126 91218;
0137067910999992010010904004+46417+009817FM-12+329999999V0201401N003619999999N9999999N1-01031-01571999999ADDMA1999999066051MD1810021+9999ME1428529OA149900981REMSYN076AAXX  09044 06791 33/// /1407 11103 21157 36605 47852 58002 333 91119 91211;
0137067910999992010010905004+46417+009817FM-12+329999999V0200701N004119999999N9999999N1-00961-01511999999ADDMA1999999065991MD1810101+9999ME1428449OA149900671REMSYN076AAXX  09054 06791 33/// /0708 11096 21151 36599 47844 58010 333 91113 91210;
0220067910999992010010906004+46417+009817FM-12+329999999V0201101N003619999999N9999999N1-00921-01781999999ADDAA112003091AA224014591AL12401491GJ100009KA1999N-01101MA1999999065951MD1710121+9999ME1428389OA149901491REMSYN106AAXX  09064 06791 03/// /1107 11092 21178 36595 47838 57012 60032 333 21110 55000 60005 70144 91129 91218;
0137067910999992010010907004+46417+009817FM-12+329999999V0201501N002119999999N9999999N1-00921-01651999999ADDMA1999999065941MD1710111+9999ME1428379OA149900771REMSYN076AAXX  09074 06791 33/// /1504 11092 21165 36594 47837 57011 333 91115 91210;
0137067910999992010010908004+46417+009817FM-12+329999999V0203001N001019999999N9999999N1-00941-01771999999ADDMA1999999065931MD1710061+9999ME1428369OA149900771REMSYN076AAXX  09084 06791 33/// /3002 11094 21177 36593 47836 57006 333 91115 91210;
0137067910999992010010909004+46417+009817FM-12+329999999V0200801N007219999999N9999999N1-00961-01491999999ADDMA1999999065891MD1810061+9999ME1428329OA149901241REMSYN076AAXX  09094 06791 33/// /0814 11096 21149 36589 47832 58006 333 91124 91214;
0137067910999992010010910004+46417+009817FM-12+329999999V0201101N005719999999N9999999N1-00901-01341999999ADDMA1999999065881MD1710061+9999ME1428309OA149901291REMSYN076AAXX  09104 06791 33/// /1111 11090 21134 36588 47830 57006 333 91125 91214;
0137067910999992010010911004+46417+009817FM-12+329999999V0200801N006219999999N9999999N1-00971-01211999999ADDMA1999999065821MD1710111+9999ME1428249OA149901601REMSYN076AAXX  09114 06791 33/// /0812 11097 21121 36582 47824 57011 333 91131 91215;
0137067910999992010010912004+46417+009817FM-12+329999999V0200801N006719999999N9999999N1-01031-01101999999ADDMA1999999065741MD1710151+9999ME1428159OA149901601REMSYN076AAXX  09124 06791 33/// /0813 11103 21110 36574 47815 57015 333 91131 91215;
0154067910999992010010913004+46417+009817FM-12+329999999V0200701N007719999999N9999999N1-00991-01021999999ADDAA101000391MA1999999065691MD1610191+9999ME1428099OA149901491REMSYN082AAXX  09134 06791 23/// /0715 11099 21102 36569 47809 56019 333 69935 91129 91215;
0154067910999992010010914004+46417+009817FM-12+329999999V0200801N006219999999N9999999N1-01011-01011999999ADDAA101000591MA1999999065711MD1710111+9999ME1428119OA149901601REMSYN082AAXX  09144 06791 23/// /0812 11101 21101 36571 47811 57011 333 69955 91131 91216;
0154067910999992010010915004+46417+009817FM-12+329999999V0200601N004119999999N9999999N1-01011-01021999999ADDAA101000591MA1999999065731MD1510011+9999ME1428149OA149901601REMSYN082AAXX  09154 06791 23/// /0608 11101 21102 36573 47814 55001 333 69945 91131 91216;
0154067910999992010010916004+46417+009817FM-12+329999999V0201301N001519999999N9999999N1-01101-01161999999ADDAA101000891MA1999999065761MD1310071+9999ME1428199OA149901241REMSYN082AAXX  09164 06791 23/// /1303 11110 21116 36576 47819 53007 333 69985 91124 91212;
0154067910999992010010917004+46417+009817FM-12+329999999V0200701N004619999999N9999999N1-01161-01231999999ADDAA101000021MA1999999065761MD1210051+9999ME1428209OA149900981REMSYN082AAXX  09174 06791 23/// /0709 11116 21123 36576 47820 52005 333 69915 91119 91210;
0179067910999992010010918004+46417+009817FM-12+329999999V0201501N004119999999N9999999N1-01211-01281999999ADDAA112002091KA1120M-00831MA1999999065791MD1210061+9999ME1428259OA149901601REMSYN094AAXX  09184 06791 03/// /1508 11121 21128 36579 47825 52006 60022 333 11083 69935 91131 91216;
0154067910999992010010919004+46417+009817FM-12+329999999V0201301N004119999999N9999999N1-01251-01461999999ADDAA101000021MA1999999065821MD1210061+9999ME1428299OA149901131REMSYN082AAXX  09194 06791 23/// /1308 11125 21146 36582 47829 52006 333 69915 91122 91211;
0137067910999992010010920004+46417+009817FM-12+329999999V0201501N002619999999N9999999N1-01241-01421999999ADDMA1999999065851MD1210091+9999ME1428329OA149901131REMSYN076AAXX  09204 06791 33/// /1505 11124 21142 36585 47832 52009 333 91122 91211;
0154067910999992010010921004+46417+009817FM-12+329999999V0201501N007219999999N9999999N1-01301-01361999999ADDAA101000591MA1999999065871MD1210081+9999ME1428369OA149901341REMSYN082AAXX  09214 06791 23/// /1514 11130 21136 36587 47836 52008 333 69945 91126 91214;
0154067910999992010010922004+46417+009817FM-12+329999999V0201401N006719999999N9999999N1-01281-01371999999ADDAA101000891MA1999999065901MD1110081+9999ME1428399OA149901751REMSYN082AAXX  09224 06791 23/// /1413 11128 21137 36590 47839 51008 333 69985 91134 91219;
0154067910999992010010923004+46417+009817FM-12+329999999V0201401N007219999999N9999999N1-01331-01411999999ADDAA101000391MA1999999065941MD1310091+9999ME1428459OA149901751REMSYN082AAXX  09234 06791 23/// /1414 11133 21141 36594 47845 53009 333 69935 91134 91219;
0160067910999992010011000004+46417+009817FM-12+329999999V0201401N005719999999N9999999N1-01361-01401999999ADDAA106002091MA1999999065951MD1110081+9999ME1428469OA149901751REMSYN088AAXX  10004 06791 03/// /1411 11136 21140 36595 47846 51008 60021 333 69935 91134 91219;
0154067910999992010011001004+46417+009817FM-12+329999999V0201401N003619999999N9999999N1-01381-01461999999ADDAA101000591MA1999999065981MD1110081+9999ME1428509OA149901391REMSYN082AAXX  10014 06791 23/// /1407 11138 21146 36598 47850 51008 333 69955 91127 91215;
0117067910999992010011002004+46417+009817FM-12+329999999V0201601N002619999999N9999999N1-01341-01541999999ADDAA101000021MA1999999066031ME1428559REMSYN070AAXX  10024 06791 23/// /1605 11134 21154 36603 47855 5//// 333 69925;
0096067910999992010011003004+46417+009817FM-12+329999999V0201501N005119999999N9999999N1-01381-01531999999ADDMA1999999066041ME1428579REMSYN060AAXX  10034 06791 43/// /1510 11138 21153 36604 47857 5////;
0137067910999992010011004004+46417+009817FM-12+329999999V0201101N001519999999N9999999N1-01441-01501999999ADDMA1999999066071MD1110091+9999ME1428629OA149901241REMSYN076AAXX  10044 06791 33/// /1103 11144 21150 36607 47862 51009 333 91124 91210;
0137067910999992010011005004+46417+009817FM-12+329999999V0201601N002619999999N9999999N1-01501-01591999999ADDMA1999999066091MD1310061+9999ME1428659OA149900981REMSYN076AAXX  10054 06791 33/// /1605 11150 21159 36609 47865 53006 333 91119 91206;
0220067910999992010011006004+46417+009817FM-12+329999999V0201501N002119999999N9999999N1-01441-02121999999ADDAA112003091AA224005191AL19900591GJ100069KA1999N-01501MA1999999066111MD1110071+9999ME1428669OA149901751REMSYN106AAXX  10064 06791 03/// /1504 11144 21212 36611 47866 51007 60032 333 21150 55001 60005 70050 91134 91219;
0137067910999992010011007004+46417+009817FM-12+329999999V0201201N002119999999N9999999N1-01531-01561999999ADDMA1999999066161MD1310091+9999ME1428749OA149900621REMSYN076AAXX  10074 06791 33/// /1204 11153 21156 36616 47874 53009 333 91112 91207;
0137067910999992010011008004+46417+009817FM-12+329999999V0201201N002619999999N9999999N1-01501-01951999999ADDMA1999999066211MD1319999+9999ME1428799OA149900571REMSYN076AAXX  10084 06791 33/// /1205 11150 21195 36621 47879 53/// 333 91111 91208;
0137067910999992010011009004+46417+009817FM-12+329999999V0201601N001519999999N9999999N1-01441-02291999999ADDMA1999999066251MD1210141+9999ME1428829OA149900981REMSYN076AAXX  10094 06791 33/// /1603 11144 21229 36625 47882 52014 333 91119 91208;
0137067910999992010011010004+46417+009817FM-12+329999999V0201501N000519999999N9999999N1-01381-02151999999ADDMA1999999066291MD1110131+9999ME1428869OA149900511REMSYN076AAXX  10104 06791 33/// /1501 11138 21215 36629 47886 51013 333 91110 91206;
0137067910999992010011011004+46417+009817FM-12+329999999V0201301N001519999999N9999999N1-01411-02051999999ADDMA1999999066341MD1110131+9999ME1428929OA149900461REMSYN076AAXX  10114 06791 33/// /1303 11141 21205 36634 47892 51013 333 91109 91206;
0137067910999992010011012004+46417+009817FM-12+329999999V0200201N001019999999N9999999N1-01311-02331999999ADDMA1999999066351MD1110101+9999ME1428929OA149901241REMSYN076AAXX  10124 06791 33/// /0202 11131 21233 36635 47892 51010 333 91124 91210;
0137067910999992010011013004+46417+009817FM-12+329999999V0203001N001519999999N9999999N1-01351-02411999999ADDMA1999999066351MD1110061+9999ME1428939OA149900311REMSYN076AAXX  10134 06791 33/// /3003 11135 21241 36635 47893 51006 333 91106 91204;
0137067910999992010011014004+46417+009817FM-12+329999999V0202901N001019999999N9999999N1-01401-02751999999ADDMA1999999066391MD1319999+9999ME1428989OA149900211REMSYN076AAXX  10144 06791 33/// /2902 11140 21275 36639 47898 53/// 333 91104 91203;
0137067910999992010011015004+46417+009817FM-12+329999999V0202701N001519999999N9999999N1-01311-02401999999ADDMA1999999066411MD1310061+9999ME1428999OA149900461REMSYN076AAXX  10154 06791 33/// /2703 11131 21240 36641 47899 53006 333 91109 91206;
0137067910999992010011016004+46417+009817FM-12+329999999V0203201N002119999999N9999999N1-01341-02631999999ADDMA1999999066441MD1110091+9999ME1429039OA149900261REMSYN076AAXX  10164 06791 33/// /3204 11134 21263 36644 47903 51009 333 91105 91204;
0137067910999992010011017004+46417+009817FM-12+329999999V0203501N002619999999N9999999N1-01321-02711999999ADDMA1999999066481MD1310091+9999ME1429079OA149900461REMSYN076AAXX  10174 06791 33/// /3505 11132 21271 36648 47907 53009 333 91109 91205;
0156067910999992010011018004+46417+009817FM-12+329999999V0200201N003119999999N9999999N1-01261-02731999999ADDKA1120M-01241MA1999999066511MD1110101+9999ME1429109OA149900571REMSYN082AAXX  10184 06791 33/// /0206 11126 21273 36651 47910 51010 333 11124 91111 91208;
0137067910999992010011019004+46417+009817FM-12+329999999V0200101N002619999999N9999999N1-01271-02231999999ADDMA1999999066541MD1310101+9999ME1429139OA149900411REMSYN076AAXX  10194 06791 33/// /0105 11127 21223 36654 47913 53010 333 91108 91206;
0137067910999992010011020004+46417+009817FM-12+329999999V0200101N001019999999N9999999N1-01231-02641999999ADDMA1999999066571MD1110091+9999ME1429169OA149900411REMSYN076AAXX  10204 06791 33/// /0102 11123 21264 36657 47916 51009 333 91108 91206;
0137067910999992010011021004+46417+009817FM-12+329999999V0203301N002619999999N9999999N1-01291-02551999999ADDMA1999999066591MD1310081+9999ME1429199OA149900461REMSYN076AAXX  10214 06791 33/// /3305 11129 21255 36659 47919 53008 333 91109 91206;
0137067910999992010011022004+46417+009817FM-12+329999999V0203101N002119999999N9999999N1-01321-02621999999ADDMA1999999066621MD1110081+9999ME1429239OA149900361REMSYN076AAXX  10224 06791 33/// /3104 11132 21262 36662 47923 51008 333 91107 91206;
0137067910999992010011023004+46417+009817FM-12+329999999V0203001N003119999999N9999999N1-01361-02591999999ADDMA1999999066621MD1210051+9999ME1429249OA149900461REMSYN076AAXX  10234 06791 33/// /3006 11136 21259 36662 47924 52005 333 91109 91207;
0137067910999992010011100004+46417+009817FM-12+329999999V0202901N004119999999N9999999N1-01351-02651999999ADDMA1999999066631MD1210041+9999ME1429259OA149900621REMSYN076AAXX  11004 06791 33/// /2908 11135 21265 36663 47925 52004 333 91112 91209;
0137067910999992010011101004+46417+009817FM-12+329999999V0202701N004619999999N9999999N1-01361-02591999999ADDMA1999999066621MD1010001+9999ME1429249OA149900721REMSYN076AAXX  11014 06791 33/// /2709 11136 21259 36662 47924 50000 333 91114 91210;
0137067910999992010011102004+46417+009817FM-12+329999999V0202901N004619999999N9999999N1-01391-02461999999ADDMA1999999066631MD1219999+9999ME1429269OA149900721REMSYN076AAXX  11024 06791 33/// /2909 11139 21246 36663 47926 52/// 333 91114 91210;
0137067910999992010011103004+46417+009817FM-12+329999999V0203001N003119999999N9999999N1-01421-02381999999ADDMA1999999066631MD1219999+9999ME1429269OA149900721REMSYN076AAXX  11034 06791 33/// /3006 11142 21238 36663 47926 52/// 333 91114 91210;
0137067910999992010011104004+46417+009817FM-12+329999999V0203001N003619999999N9999999N1-01431-01931999999ADDMA1999999066631MD1210011+9999ME1429269OA149900621REMSYN076AAXX  11044 06791 33/// /3007 11143 21193 36663 47926 52001 333 91112 91209;
0137067910999992010011105004+46417+009817FM-12+329999999V0203001N003119999999N9999999N1-01421-02021999999ADDMA1999999066631MD1410001+9999ME1429269OA149900571REMSYN076AAXX  11054 06791 33/// /3006 11142 21202 36663 47926 54000 333 91111 91209;
0216067910999992010011106004+46417+009817FM-12+329999999V0203401N003619999999N9999999N1-01391-01761999999ADDAA124000091AL19900091GJ104449KA1999N-01451MA1999999066631MD1410001+9999ME1429269OA149900721REMSYN094AAXX  11064 06791 33/// /3407 11139 21176 36663 47926 54000 333 21145 55074 70000 91114 91210;EQDQ01  00002PRCP24
0137067910999992010011107004+46417+009817FM-12+329999999V0203601N003619999999N9999999N1-01381-01711999999ADDMA1999999066641MD1210011+9999ME1429279OA149900511REMSYN076AAXX  11074 06791 33/// /3607 11138 21171 36664 47927 52001 333 91110 91207;
0137067910999992010011108004+46417+009817FM-12+329999999V0203401N003619999999N9999999N1-01331-01661999999ADDMA1999999066661MD1219999+9999ME1429289OA149900511REMSYN076AAXX  11084 06791 33/// /3407 11133 21166 36666 47928 52/// 333 91110 91207;
0137067910999992010011109004+46417+009817FM-12+329999999V0203401N003119999999N9999999N1-01331-01531999999ADDMA1999999066681MD1310051+9999ME1429309OA149900571REMSYN076AAXX  11094 06791 33/// /3406 11133 21153 36668 47930 53005 333 91111 91209;
0137067910999992010011110004+46417+009817FM-12+329999999V0202601N001519999999N9999999N1-01281-01511999999ADDMA1999999066701MD1319999+9999ME1429329OA149900511REMSYN076AAXX  11104 06791 33/// /2603 11128 21151 36670 47932 53/// 333 91110 91208;
0137067910999992010011111004+46417+009817FM-12+329999999V0202501N003619999999N9999999N1-01221-01591999999ADDMA1999999066691MD1010031+9999ME1429309OA149900461REMSYN076AAXX  11114 06791 33/// /2507 11122 21159 36669 47930 50003 333 91109 91207;
0156067910999992010011112004+46417+009817FM-12+329999999V0202801N004119999999N9999999N1-01281-01581999999ADDMA1999999066681MD1410001+9999ME1429309OA149900721REMSYN076AAXX  11124 06791 33/// /2808 11128 21158 36668 47930 58000 333 91114 91210;EQDQ01+000082APCTEN
0137067910999992010011113004+46417+009817FM-12+329999999V0202301N002619999999N9999999N1-01291-01971999999ADDMA1999999066651MD1810051+9999ME1429269OA149900571REMSYN076AAXX  11134 06791 33/// /2305 11129 21197 36665 47926 58005 333 91111 91209;
0096067910999992010011114004+46417+009817FM-12+329999999V0202601N004119999999N9999999N1-01271-02021999999ADDMA1999999066641ME1429259REMSYN060AAXX  11144 06791 33/// /2608 11127 21202 36664 47925 5////;
0137067910999992010011115004+46417+009817FM-12+329999999V0202701N005119999999N9999999N1-01331-02171999999ADDMA1999999066641MD1610041+9999ME1429269OA149900771REMSYN076AAXX  11154 06791 33/// /2710 11133 21217 36664 47926 56004 333 91115 91210;
0137067910999992010011116004+46417+009817FM-12+329999999V0202901N005119999999N9999999N1-01391-02151999999ADDMA1999999066651MD1410001+9999ME1429289OA149900771REMSYN076AAXX  11164 06791 33/// /2910 11139 21215 36665 47928 54000 333 91115 91211;
0137067910999992010011117004+46417+009817FM-12+329999999V0202901N003619999999N9999999N1-01351-02101999999ADDMA1999999066671MD1310031+9999ME1429309OA149900821REMSYN076AAXX  11174 06791 33/// /2907 11135 21210 36667 47930 53003 333 91116 91211;
0156067910999992010011118004+46417+009817FM-12+329999999V0202901N006219999999N9999999N1-01341-01931999999ADDKA1120M-01201MA1999999066691MD1310051+9999ME1429329OA149901081REMSYN082AAXX  11184 06791 33/// /2912 11134 21193 36669 47932 53005 333 11120 91121 91212;
0137067910999992010011119004+46417+009817FM-12+329999999V0203001N004119999999N9999999N1-01351-01571999999ADDMA1999999066721MD1310071+9999ME1429359OA149901081REMSYN076AAXX  11194 06791 33/// /3008 11135 21157 36672 47935 53007 333 91121 91212;
0137067910999992010011120004+46417+009817FM-12+329999999V0202701N003119999999N9999999N1-01411-01851999999ADDMA1999999066731MD1110061+9999ME1429379OA149900981REMSYN076AAXX  11204 06791 33/// /2706 11141 21185 36673 47937 51006 333 91119 91212;
0137067910999992010011121004+46417+009817FM-12+329999999V0203101N003119999999N9999999N1-01411-01541999999ADDMA1999999066741MD1110051+9999ME1429399OA149901081REMSYN076AAXX  11214 06791 33/// /3106 11141 21154 36674 47939 51005 333 91121 91212;
0137067910999992010011122004+46417+009817FM-12+329999999V0203401N003119999999N9999999N1-01321-01551999999ADDMA1999999066761MD1110041+9999ME1429409OA149900511REMSYN076AAXX  11224 06791 33/// /3406 11132 21155 36676 47940 51004 333 91110 91207;
0137067910999992010011123004+46417+009817FM-12+329999999V0203101N003619999999N9999999N1-01321-01831999999ADDMA1999999066771MD1110041+9999ME1429419OA149900511REMSYN076AAXX  11234 06791 33/// /3107 11132 21183 36677 47941 51004 333 91110 91207;
0137067910999992010011200004+46417+009817FM-12+329999999V0202701N003119999999N9999999N1-01361-01511999999ADDMA1999999066761MD1210021+9999ME1429409OA149901081REMSYN076AAXX  12004 06791 33/// /2706 11136 21151 36676 47940 52002 333 91121 91212;
0137067910999992010011201004+46417+009817FM-12+329999999V0202901N004119999999N9999999N1-01361-01511999999ADDMA1999999066751MD1810011+9999ME1429399OA149900511REMSYN076AAXX  12014 06791 33/// /2908 11136 21151 36675 47939 58001 333 91110 91208;
0137067910999992010011202004+46417+009817FM-12+329999999V0202901N005119999999N9999999N1-01381-01461999999ADDMA1999999066751MD1719999+9999ME1429399OA149900821REMSYN076AAXX  12024 06791 33/// /2910 11138 21146 36675 47939 57/// 333 91116 91210;
0137067910999992010011203004+46417+009817FM-12+329999999V0202801N004619999999N9999999N1-01411-01551999999ADDMA1999999066741MD1710021+9999ME1429399OA149900881REMSYN076AAXX  12034 06791 33/// /2809 11141 21155 36674 47939 57002 333 91117 91211;
0137067910999992010011204004+46417+009817FM-12+329999999V0203101N004619999999N9999999N1-01451-01461999999ADDMA1999999066741MD1710011+9999ME1429399OA149900881REMSYN076AAXX  12044 06791 33/// /3109 11145 21146 36674 47939 57001 333 91117 91211;
0156067910999992010011205004+46417+009817FM-12+329999999V0203101N005119999999N9999999N1-01431-01481999999ADDMA1999999066751MD1410001+9999ME1429409OA149900821REMSYN076AAXX  12054 06791 33/// /3110 11143 21148 36675 47940 52000 333 91116 91211;EQDQ01+000022APCTEN
0216067910999992010011206004+46417+009817FM-12+329999999V0202901N003619999999N9999999N1-01421-01471999999ADDAA124000091AL19900091GJ101809KA1999N-01451MA1999999066751MD1210011+9999ME1429409OA149900981REMSYN094AAXX  12064 06791 33/// /2907 11142 21147 36675 47940 52001 333 21145 55030 70000 91119 91212;EQDQ01  00002PRCP24
0137067910999992010011207004+46417+009817FM-12+329999999V0202801N004119999999N9999999N1-01421-01681999999ADDMA1999999066771MD1210031+9999ME1429429OA149900671REMSYN076AAXX  12074 06791 33/// /2808 11142 21168 36677 47942 52003 333 91113 91209;
0137067910999992010011208004+46417+009817FM-12+329999999V0202701N004619999999N9999999N1-01431-01871999999ADDMA1999999066761MD1219999+9999ME1429419OA149900671REMSYN076AAXX  12084 06791 33/// /2709 11143 21187 36676 47941 52/// 333 91113 91209;
0137067910999992010011209004+46417+009817FM-12+329999999V0202501N002619999999N9999999N1-01411-02131999999ADDMA1999999066771MD1210021+9999ME1429429OA149900821REMSYN076AAXX  12094 06791 33/// /2505 11141 21213 36677 47942 52002 333 91116 91211;
0137067910999992010011210004+46417+009817FM-12+329999999V0202301N004119999999N9999999N1-01331-02071999999ADDMA1999999066741MD1710031+9999ME1429379OA149900671REMSYN076AAXX  12104 06791 33/// /2308 11133 21207 36674 47937 57003 333 91113 91208;
0137067910999992010011211004+46417+009817FM-12+329999999V0202001N004119999999N9999999N1-01351-02071999999ADDMA1999999066701MD1710061+9999ME1429339OA149901081REMSYN076AAXX  12114 06791 33/// /2008 11135 21207 36670 47933 57006 333 91121 91214;
0137067910999992010011212004+46417+009817FM-12+329999999V0202101N006219999999N9999999N1-01341-01891999999ADDMA1999999066661MD1710111+9999ME1429289OA149901241REMSYN076AAXX  12124 06791 33/// /2112 11134 21189 36666 47928 57011 333 91124 91214;
0137067910999992010011213004+46417+009817FM-12+329999999V0202001N006219999999N9999999N1-01341-02001999999ADDMA1999999066611MD1810131+9999ME1429239OA149901241REMSYN076AAXX  12134 06791 33/// /2012 11134 21200 36661 47923 58013 333 91124 91215;
0096067910999992010011214004+46417+009817FM-12+329999999V0202201N005719999999N9999999N1-01301-01661999999ADDMA1999999066591ME1429209REMSYN060AAXX  12144 06791 33/// /2211 11130 21166 36659 47920 5////;
0137067910999992010011215004+46417+009817FM-12+329999999V0202301N008719999999N9999999N1-01241-02371999999ADDMA1999999066591MD1710071+9999ME1429199OA149901601REMSYN076AAXX  12154 06791 33/// /2317 11124 21237 36659 47919 57007 333 91131 91217;
0137067910999992010011216004+46417+009817FM-12+329999999V0202401N012319999999N9999999N1-01181-02511999999ADDMA1999999066561MD1710051+9999ME1429149OA149901751REMSYN076AAXX  12164 06791 33/// /2424 11118 21251 36656 47914 57005 333 91134 91226;
0137067910999992010011217004+46417+009817FM-12+329999999V0202301N010319999999N9999999N1-01151-02411999999ADDMA1999999066541MD1710051+9999ME1429129OA149901751REMSYN076AAXX  12174 06791 33/// /2320 11115 21241 36654 47912 57005 333 91134 91226;
0156067910999992010011218004+46417+009817FM-12+329999999V0202201N006719999999N9999999N1-01131-02391999999ADDKA1120M-01101MA1999999066521MD1610071+9999ME1429099OA149901751REMSYN082AAXX  12184 06791 33/// /2213 11113 21239 36652 47909 56007 333 11110 91134 91226;
0137067910999992010011219004+46417+009817FM-12+329999999V0202301N007219999999N9999999N1-01171-02451999999ADDMA1999999066511MD1610051+9999ME1429089OA149901291REMSYN076AAXX  12194 06791 33/// /2314 11117 21245 36651 47908 56005 333 91125 91221;
0137067910999992010011220004+46417+009817FM-12+329999999V0202301N008219999999N9999999N1-01201-02371999999ADDMA1999999066511MD1710031+9999ME1429099OA149901241REMSYN076AAXX  12204 06791 33/// /2316 11120 21237 36651 47909 57003 333 91124 91218;
0137067910999992010011221004+46417+009817FM-12+329999999V0202301N005119999999N9999999N1-01191-02751999999ADDMA1999999066501MD1710021+9999ME1429089OA149901751REMSYN076AAXX  12214 06791 33/// /2310 11119 21275 36650 47908 57002 333 91134 91226;
0137067910999992010011222004+46417+009817FM-12+329999999V0201901N002619999999N9999999N1-01111-02791999999ADDMA1999999066461MD1810051+9999ME1429029OA149901341REMSYN076AAXX  12224 06791 33/// /1905 11111 21279 36646 47902 58005 333 91126 91216;
0137067910999992010011223004+46417+009817FM-12+329999999V0202101N003619999999N9999999N1-01111-02451999999ADDMA1999999066431MD1710081+9999ME1428989OA149901081REMSYN076AAXX  12234 06791 33/// /2107 11111 21245 36643 47898 57008 333 91121 91212;
0137067910999992010011300004+46417+009817FM-12+329999999V0201901N005119999999N9999999N1-01081-03041999999ADDMA1999999066391MD1810111+9999ME1428939OA149901751REMSYN076AAXX  13004 06791 33/// /1910 11108 21304 36639 47893 58011 333 91134 91226;
0137067910999992010011301004+46417+009817FM-12+329999999V0201801N002119999999N9999999N1-01111-02601999999ADDMA1999999066341MD1610121+9999ME1428889OA149900981REMSYN076AAXX  13014 06791 33/// /1804 11111 21260 36634 47888 56012 333 91119 91211;
0137067910999992010011302004+46417+009817FM-12+329999999V0201801N003619999999N9999999N1-01191-03111999999ADDMA1999999066341MD1619999+9999ME1428899OA149900981REMSYN076AAXX  13024 06791 33/// /1807 11119 21311 36634 47889 56/// 333 91119 91211;
0137067910999992010011303004+46417+009817FM-12+329999999V0202401N009319999999N9999999N1-01431-02091999999ADDMA1999999066331MD1719999+9999ME1428929OA149901391REMSYN076AAXX  13034 06791 33/// /2418 11143 21209 36633 47892 57/// 333 91127 91218;
0137067910999992010011304004+46417+009817FM-12+329999999V0202401N006719999999N9999999N1-01321-01621999999ADDMA1999999066301MD1810041+9999ME1428869OA149901441REMSYN076AAXX  13044 06791 33/// /2413 11132 21162 36630 47886 58004 333 91128 91221;
0137067910999992010011305004+46417+009817FM-12+329999999V0202201N003119999999N9999999N1-01431-01881999999ADDMA1999999066281MD1710061+9999ME1428869OA149901441REMSYN076AAXX  13054 06791 33/// /2206 11143 21188 36628 47886 57006 333 91128 91221;
0216067910999992010011306004+46417+009817FM-12+329999999V0202301N005119999999N9999999N1-01441-01901999999ADDAA124000091AL19900091GJ103909KA1999N-01481MA1999999066301MD1510031+9999ME1428889OA149901441REMSYN094AAXX  13064 06791 33/// /2310 11144 21190 36630 47888 55003 333 21148 55065 70000 91128 91221;EQDQ01  00002PRCP24
0137067910999992010011307004+46417+009817FM-12+329999999V0202901N003619999999N9999999N1-01351-01631999999ADDMA1999999066341MD1310041+9999ME1428919OA149900721REMSYN076AAXX  13074 06791 33/// /2907 11135 21163 36634 47891 53004 333 91114 91210;
0137067910999992010011308004+46417+009817FM-12+329999999V0200301N004619999999N9999999N1-01151-01451999999ADDMA1999999066381MD1310101+9999ME1428939OA149900721REMSYN076AAXX  13084 06791 33/// /0309 11115 21145 36638 47893 53010 333 91114 91210;
0137067910999992010011309004+46417+009817FM-12+329999999V0200401N006219999999N9999999N1-01211-01311999999ADDMA1999999066401MD1210101+9999ME1428969OA149901441REMSYN076AAXX  13094 06791 33/// /0412 11121 21131 36640 47896 52010 333 91128 91221;
0137067910999992010011310004+46417+009817FM-12+329999999V0200401N003119999999N9999999N1-01201-01301999999ADDMA1999999066441MD1210101+9999ME1429019OA149900821REMSYN076AAXX  13104 06791 33/// /0406 11120 21130 36644 47901 52010 333 91116 91212;
0137067910999992010011311004+46417+009817FM-12+329999999V0200401N003619999999N9999999N1-01191-01321999999ADDMA1999999066441MD1210061+9999ME1429019OA149900771REMSYN076AAXX  13114 06791 33/// /0407 11119 21132 36644 47901 52006 333 91115 91211;
0137067910999992010011312004+46417+009817FM-12+329999999V0200701N002619999999N9999999N1-01151-01321999999ADDMA1999999066431MD1010031+9999ME1428999OA149901441REMSYN076AAXX  13124 06791 33/// /0705 11115 21132 36643 47899 50003 333 91128 91221;
0137067910999992010011313004+46417+009817FM-12+329999999V0200501N001019999999N9999999N1-01231-01341999999ADDMA1999999066431MD1710011+9999ME1429009OA149900461REMSYN076AAXX  13134 06791 33/// /0502 11123 21134 36643 47900 57001 333 91109 91208;
0137067910999992010011314004+46417+009817FM-12+329999999V0203201N003119999999N9999999N1-01201-01341999999ADDMA1999999066451MD1319999+9999ME1429029OA149900461REMSYN076AAXX  13144 06791 33/// /3206 11120 21134 36645 47902 53/// 333 91109 91206;
0137067910999992010011315004+46417+009817FM-12+329999999V0203401N004619999999N9999999N1-01161-01321999999ADDMA1999999066471MD1310041+9999ME1429049OA149900771REMSYN076AAXX  13154 06791 33/// /3409 11116 21132 36647 47904 53004 333 91115 91211;
0137067910999992010011316004+46417+009817FM-12+329999999V0203401N003619999999N9999999N1-01181-01351999999ADDMA1999999066491MD1310061+9999ME1429069OA149900721REMSYN076AAXX  13164 06791 33/// /3407 11118 21135 36649 47906 53006 333 91114 91210;
0137067910999992010011317004+46417+009817FM-12+329999999V0203601N003619999999N9999999N1-01211-01321999999ADDMA1999999066521MD1310071+9999ME1429109OA149900671REMSYN076AAXX  13174 06791 33/// /3607 11121 21132 36652 47910 53007 333 91113 91209;
0198067910999992010011318004+46417+009817FM-12+329999999V0203501N004119999999N9999999N1-01281-01351999999ADDAA112000091KA1120M-01111MA1999999066551MD1110081+9999ME1429159OA149900821REMSYN094AAXX  13184 06791 03/// /3508 11128 21135 36655 47915 51008 69912 333 11111 69915 91116 91212;EQDQ01  00002PRCP12
0137067910999992010011319004+46417+009817FM-12+329999999V0200201N003119999999N9999999N1-01251-01341999999ADDMA1999999066571MD1110081+9999ME1429179OA149900621REMSYN076AAXX  13194 06791 33/// /0206 11125 21134 36657 47917 51008 333 91112 91208;
0154067910999992010011320004+46417+009817FM-12+329999999V0200201N004619999999N9999999N1-01251-01371999999ADDAA101000021MA1999999066571MD1110051+9999ME1429179OA149900671REMSYN082AAXX  13204 06791 23/// /0209 11125 21137 36657 47917 51005 333 69915 91113 91210;
0154067910999992010011321004+46417+009817FM-12+329999999V0200201N004119999999N9999999N1-01281-01351999999ADDAA101000021MA1999999066571MD1210021+9999ME1429179OA149900671REMSYN082AAXX  13214 06791 23/// /0208 11128 21135 36657 47917 52002 333 69915 91113 91210;
0137067910999992010011322004+46417+009817FM-12+329999999V0200201N003619999999N9999999N1-01271-01381999999ADDMA1999999066571MD1410001+9999ME1429179OA149900571REMSYN076AAXX  13224 06791 33/// /0207 11127 21138 36657 47917 54000 333 91111 91209;
0137067910999992010011323004+46417+009817FM-12+329999999V0200201N003619999999N9999999N1-01301-01391999999ADDMA1999999066561MD1810011+9999ME1429169OA149900511REMSYN076AAXX  13234 06791 33/// /0207 11130 21139 36656 47916 58001 333 91110 91208;
0179067910999992010011400004+46417+009817FM-12+329999999V0200301N003119999999N9999999N1-01311-01441999999ADDAA106000091MA1999999066541MD1810031+9999ME1429149OA149900721REMSYN088AAXX  14004 06791 03/// /0306 11131 21144 36654 47914 58003 69921 333 60005 91114 91210;EQDQ01  00002PRCP06
0137067910999992010011401004+46417+009817FM-12+329999999V0200401N001519999999N9999999N1-01281-01521999999ADDMA1999999066521MD1810051+9999ME1429119OA149900411REMSYN076AAXX  14014 06791 33/// /0403 11128 21152 36652 47911 58005 333 91108 91207;
0137067910999992010011402004+46417+009817FM-12+329999999V0201801N001019999999N9999999N1-01221-01601999999ADDMA1999999066521MD1719999+9999ME1429109OA149900311REMSYN076AAXX  14024 06791 33/// /1802 11122 21160 36652 47910 57/// 333 91106 91206;
0096067910999992010011403004+46417+009817FM-12+329999999V0202101N000519999999N9999999N1-01241-01601999999ADDMA1999999066491ME1429079REMSYN060AAXX  14034 06791 33/// /2101 11124 21160 36649 47907 5////;
0137067910999992010011404004+46417+009817FM-12+329999999V0202101N001519999999N9999999N1-01301-01601999999ADDMA1999999066461MD1810061+9999ME1429059OA149900311REMSYN076AAXX  14044 06791 33/// /2103 11130 21160 36646 47905 58006 333 91106 91203;
0137067910999992010011405004+46417+009817FM-12+329999999V0202101N002619999999N9999999N1-01341-01611999999ADDMA1999999066451MD1610071+9999ME1429049OA149900461REMSYN076AAXX  14054 06791 33/// /2105 11134 21161 36645 47904 56007 333 91109 91205;
0239067910999992010011406004+46417+009817FM-12+329999999V0202301N002619999999N9999999N1-01361-01571999999ADDAA112000091AA224000391AL11800091GJ100009KA1999N-01411MA1999999066461MD1710031+9999ME1429069OA149900671REMSYN106AAXX  14064 06791 03/// /2305 11136 21157 36646 47906 57003 69922 333 21141 55000 60005 70003 91113 91210;EQDQ01  00002PRCP12
0137067910999992010011407004+46417+009817FM-12+329999999V0202101N005119999999N9999999N1-01391-01581999999ADDMA1999999066461MD1510001+9999ME1429069OA149900821REMSYN076AAXX  14074 06791 33/// /2110 11139 21158 36646 47906 55000 333 91116 91210;
0137067910999992010011408004+46417+009817FM-12+329999999V0201701N003119999999N9999999N1-01431-01581999999ADDMA1999999066471MD1219999+9999ME1429089OA149900931REMSYN076AAXX  14084 06791 33/// /1706 11143 21158 36647 47908 52/// 333 91118 91210;
0137067910999992010011409004+46417+009817FM-12+329999999V0202001N003619999999N9999999N1-01361-02081999999ADDMA1999999066501MD1210041+9999ME1429109OA149900931REMSYN076AAXX  14094 06791 33/// /2007 11136 21208 36650 47910 52004 333 91118 91210;
0137067910999992010011410004+46417+009817FM-12+329999999V0202001N004119999999N9999999N1-01241-03052999999ADDMA1999999066511MD1110051+9999ME1429099OA149901131REMSYN076AAXX  14104 06791 33/// /2008 11124 21305 36651 47909 51005 333 91122 91209;
0137067910999992010011411004+46417+009817FM-12+329999999V0202101N007719999999N9999999N1-01211-02911999999ADDMA1999999066481MD1010011+9999ME1429059OA149901181REMSYN076AAXX  14114 06791 33/// /2115 11121 21291 36648 47905 50001 333 91123 91215;
0137067910999992010011412004+46417+009817FM-12+329999999V0202101N007719999999N9999999N1-01151-02831999999ADDMA1999999066481MD1810021+9999ME1429059OA149901181REMSYN076AAXX  14124 06791 33/// /2115 11115 21283 36648 47905 58002 333 91123 91215;
0137067910999992010011413004+46417+009817FM-12+329999999V0202101N007719999999N9999999N1-01151-03101999999ADDMA1999999066461MD1610051+9999ME1429029OA149901181REMSYN076AAXX  14134 06791 33/// /2115 11115 21310 36646 47902 56005 333 91123 91216;
0137067910999992010011414004+46417+009817FM-12+329999999V0202301N002619999999N9999999N1-01141-02971999999ADDMA1999999066481MD1510001+9999ME1429049OA149901131REMSYN076AAXX  14144 06791 33/// /2305 11114 21297 36648 47904 55000 333 91122 91216;
0137067910999992010011415004+46417+009817FM-12+329999999V0202201N001019999999N9999999N1-01101-03011999999ADDMA1999999066471MD1710011+9999ME1429039OA149901181REMSYN076AAXX  14154 06791 33/// /2202 11110 21301 36647 47903 57001 333 91123 91216;
0137067910999992010011416004+46417+009817FM-12+329999999V0201901N001019999999N9999999N1-01121-02791999999ADDMA1999999066491MD1210031+9999ME1429059OA149900771REMSYN076AAXX  14164 06791 33/// /1902 11112 21279 36649 47905 52003 333 91115 91208;
0137067910999992010011417004+46417+009817FM-12+329999999V0202401N004119999999N9999999N1-01111-02981999999ADDMA1999999066541MD1210061+9999ME1429119OA149900881REMSYN076AAXX  14174 06791 33/// /2408 11111 21298 36654 47911 52006 333 91117 91208;
0156067910999992010011418004+46417+009817FM-12+329999999V0202301N003619999999N9999999N1-01081-02631999999ADDKA1120M-01031MA1999999066591MD1310121+9999ME1429169OA149901181REMSYN082AAXX  14184 06791 33/// /2307 11108 21263 36659 47916 53012 333 11103 91123 91216;
0137067910999992010011419004+46417+009817FM-12+329999999V0202401N003619999999N9999999N1-01031-02331999999ADDMA1999999066651MD1310161+9999ME1429239OA149900821REMSYN076AAXX  14194 06791 33/// /2407 11103 21233 36665 47923 53016 333 91116 91210;
0137067910999992010011420004+46417+009817FM-12+329999999V0202401N005119999999N9999999N1-01051-01851999999ADDMA1999999066681MD1110141+9999ME1429269OA149900721REMSYN076AAXX  14204 06791 33/// /2410 11105 21185 36668 47926 51014 333 91114 91210;
0137067910999992010011421004+46417+009817FM-12+329999999V0202401N006219999999N9999999N1-01051-01391999999ADDMA1999999066721MD1110131+9999ME1429319OA149900881REMSYN076AAXX  14214 06791 33/// /2412 11105 21139 36672 47931 51013 333 91117 91212;
0137067910999992010011422004+46417+009817FM-12+329999999V0202301N006219999999N9999999N1-01051-01371999999ADDMA1999999066751MD1110101+9999ME1429359OA149900881REMSYN076AAXX  14224 06791 33/// /2312 11105 21137 36675 47935 51010 333 91117 91213;
0137067910999992010011423004+46417+009817FM-12+329999999V0202401N006719999999N9999999N1-01091-01351999999ADDMA1999999066801MD1310121+9999ME1429419OA149900981REMSYN076AAXX  14234 06791 33/// /2413 11109 21135 36680 47941 53012 333 91119 91214;
0137067910999992010011500004+46417+009817FM-12+329999999V0202401N007719999999N9999999N1-01111-01311999999ADDMA1999999066831MD1110111+9999ME1429459OA149901131REMSYN076AAXX  15004 06791 33/// /2415 11111 21131 36683 47945 51011 333 91122 91216;
0137067910999992010011501004+46417+009817FM-12+329999999V0202601N004619999999N9999999N1-01141-01271999999ADDMA1999999066851MD1110101+9999ME1429479OA149901031REMSYN076AAXX  15014 06791 33/// /2609 11114 21127 36685 47947 51010 333 91120 91216;
0137067910999992010011502004+46417+009817FM-12+329999999V0203301N003619999999N9999999N1-01021-01421999999ADDMA1999999066881MD1310081+9999ME1429499OA149901031REMSYN076AAXX  15024 06791 33/// /3307 11102 21142 36688 47949 53008 333 91120 91216;
0096067910999992010011503004+46417+009817FM-12+329999999V0203501N003119999999N9999999N1-01031-01511999999ADDMA1999999066931ME1429559REMSYN060AAXX  15034 06791 33/// /3506 11103 21151 36693 47955 5////;
0156067910999992010011504004+46417+009817FM-12+329999999V0200301N004619999999N9999999N1-01061-02842999999ADDMA1999999066961MD1110111+9999ME1429599OA149900621REMSYN076AAXX  15044 06791 33/// /0309 11106 21284 36696 47959 51011 333 91112 91209;EQDQ01-002843ATOD  
0137067910999992010011505004+46417+009817FM-12+329999999V0200401N007219999999N9999999N1-01031-02951999999ADDMA1999999067001MD1110121+9999ME1429639OA149900931REMSYN076AAXX  15054 06791 33/// /0414 11103 21295 36700 47963 51012 333 91118 91214;
0216067910999992010011506004+46417+009817FM-12+329999999V0200401N008219999999N9999999N1-01021-03411999999ADDAA124000091AL19900091GJ104269KA1999N-01141MA1999999067061MD1310131+9999ME1429709OA149901031REMSYN094AAXX  15064 06791 33/// /0416 11102 21341 36706 47970 53013 333 21114 55071 70000 91120 91216;EQDQ01  00002PRCP24
0137067910999992010011507004+46417+009817FM-12+329999999V0200401N008719999999N9999999N1-01061-02911999999ADDMA1999999067131MD1310171+9999ME1429799OA149901031REMSYN076AAXX  15074 06791 33/// /0417 11106 21291 36713 47979 53017 333 91120 91217;
0137067910999992010011508004+46417+009817FM-12+329999999V0200701N006719999999N9999999N1-01161-03421999999ADDMA1999999067201MD1219999+9999ME1429889OA149901081REMSYN076AAXX  15084 06791 33/// /0713 11116 21342 36720 47988 52/// 333 91121 91219;
0137067910999992010011509004+46417+009817FM-12+329999999V0200701N008719999999N9999999N1-01091-02492999999ADDMA1999999067241MD1110181+9999ME1429929OA149901181REMSYN076AAXX  15094 06791 33/// /0717 11109 21249 36724 47992 51018 333 91123 91219;
0137067910999992010011510004+46417+009817FM-12+329999999V0200701N008719999999N9999999N1-01091-02841999999ADDMA1999999067311MD1110181+9999ME1430009OA149901291REMSYN076AAXX  15104 06791 33/// /0717 11109 21284 36731 47000 51018 333 91125 91221;
0137067910999992010011511004+46417+009817FM-12+329999999V0200801N008719999999N9999999N1-01081-02821999999ADDMA1999999067331MD1110131+9999ME1430029OA149901291REMSYN076AAXX  15114 06791 33/// /0817 11108 21282 36733 47002 51013 333 91125 91221;
0137067910999992010011512004+46417+009817FM-12+329999999V0200601N008719999999N9999999N1-01011-02761999999ADDMA1999999067351MD1110111+9999ME1430049OA149901291REMSYN076AAXX  15124 06791 33/// /0617 11101 21276 36735 47004 51011 333 91125 91221;
0137067910999992010011513004+46417+009817FM-12+329999999V0200701N008719999999N9999999N1-01111-02721999999ADDMA1999999067351MD1110041+9999ME1430059OA149901131REMSYN076AAXX  15134 06791 33/// /0717 11111 21272 36735 47005 51004 333 91122 91217;
0137067910999992010011514004+46417+009817FM-12+329999999V0200801N009319999999N9999999N1-01041-02781999999ADDMA1999999067381MD1310051+9999ME1430079OA149901131REMSYN076AAXX  15144 06791 33/// /0818 11104 21278 36738 47007 53005 333 91122 91218;
0137067910999992010011515004+46417+009817FM-12+329999999V0200701N007719999999N9999999N1-01061-02811999999ADDMA1999999067451MD1310101+9999ME1430169OA149901291REMSYN076AAXX  15154 06791 33/// /0715 11106 21281 36745 47016 53010 333 91125 91221;
0137067910999992010011516004+46417+009817FM-12+329999999V0200701N008719999999N9999999N1-01211-03121999999ADDMA1999999067481MD1110131+9999ME1430219OA149901031REMSYN076AAXX  15164 06791 33/// /0717 11121 21312 36748 47021 51013 333 91120 91217;
0137067910999992010011517004+46417+009817FM-12+329999999V0200801N008719999999N9999999N1-01211-02701999999ADDMA1999999067521MD1210141+9999ME1430259OA149901031REMSYN076AAXX  15174 06791 33/// /0817 11121 21270 36752 47025 52014 333 91120 91217;
0156067910999992010011518004+46417+009817FM-12+329999999V0200601N007219999999N9999999N1-01211-03201999999ADDKA1120M-01001MA1999999067571MD1210121+9999ME1430319OA149901291REMSYN082AAXX  15184 06791 33/// /0614 11121 21320 36757 47031 52012 333 11100 91125 91221;
0137067910999992010011519004+46417+009817FM-12+329999999V0200801N008219999999N9999999N1-01291-02961999999ADDMA1999999067601MD1210121+9999ME1430359OA149901031REMSYN076AAXX  15194 06791 33/// /0816 11129 21296 36760 47035 52012 333 91120 91217;
0137067910999992010011520004+46417+009817FM-12+329999999V0201001N007719999999N9999999N1-01201-02831999999ADDMA1999999067611MD1210091+9999ME1430369OA149900981REMSYN076AAXX  15204 06791 33/// /1015 11120 21283 36761 47036 52009 333 91119 91217;
0137067910999992010011521004+46417+009817FM-12+329999999V0200801N005719999999N9999999N1-01181-02851999999ADDMA1999999067651MD1210081+9999ME1430409OA149901031REMSYN076AAXX  15214 06791 33/// /0811 11118 21285 36765 47040 52008 333 91120 91217;
0137067910999992010011522004+46417+009817FM-12+329999999V0201001N005119999999N9999999N1-01191-02751999999ADDMA1999999067661MD1210061+9999ME1430419OA149900821REMSYN076AAXX  15224 06791 33/// /1010 11119 21275 36766 47041 52006 333 91116 91213;
0137067910999992010011523004+46417+009817FM-12+329999999V0200801N004119999999N9999999N1-01131-03001999999ADDMA1999999067671MD1210061+9999ME1430429OA149900771REMSYN076AAXX  15234 06791 33/// /0808 11113 21300 36767 47042 52006 333 91115 91212;
0137067910999992010011600004+46417+009817FM-12+329999999V0200801N003619999999N9999999N1-01141-02981999999ADDMA1999999067671MD1210021+9999ME1430429OA149901131REMSYN076AAXX  16004 06791 33/// /0807 11114 21298 36767 47042 52002 333 91122 91218;
0137067910999992010011601004+46417+009817FM-12+329999999V0200501N003119999999N9999999N1-01061-02941999999ADDMA1999999067671MD1010011+9999ME1430419OA149900461REMSYN076AAXX  16014 06791 33/// /0506 11106 21294 36767 47041 50001 333 91109 91208;
0137067910999992010011602004+46417+009817FM-12+329999999V0200601N001519999999N9999999N1-01111-02821999999ADDMA1999999067661MD1710011+9999ME1430409OA149900461REMSYN076AAXX  16024 06791 33/// /0603 11111 21282 36766 47040 57001 333 91109 91207;
0137067910999992010011603004+46417+009817FM-12+329999999V0203501N001519999999N9999999N1-01071-02781999999ADDMA1999999067651MD1719999+9999ME1430399OA149900771REMSYN076AAXX  16034 06791 33/// /3503 11107 21278 36765 47039 57/// 333 91115 91212;
0137067910999992010011604004+46417+009817FM-12+329999999V0203401N002119999999N9999999N1-01061-02691999999ADDMA1999999067651MD1710021+9999ME1430399OA149900361REMSYN076AAXX  16044 06791 33/// /3404 11106 21269 36765 47039 57002 333 91107 91206;
0137067910999992010011605004+46417+009817FM-12+329999999V0203101N002619999999N9999999N1-01111-02661999999ADDMA1999999067651MD1710011+9999ME1430399OA149900361REMSYN076AAXX  16054 06791 33/// /3105 11111 21266 36765 47039 57001 333 91107 91206;
0216067910999992010011606004+46417+009817FM-12+329999999V0202901N004119999999N9999999N1-01131-02521999999ADDAA124000091AL19900091GJ104329KA1999N-01301MA1999999067661MD1210011+9999ME1430419OA149900981REMSYN094AAXX  16064 06791 33/// /2908 11113 21252 36766 47041 52001 333 21130 55072 70000 91119 91217;EQDQ01  00002PRCP24
0137067910999992010011607004+46417+009817FM-12+329999999V0203001N004119999999N9999999N1-01011-02871999999ADDMA1999999067681MD1210031+9999ME1430429OA149900671REMSYN076AAXX  16074 06791 33/// /3008 11101 21287 36768 47042 52003 333 91113 91210;
0137067910999992010011608004+46417+009817FM-12+329999999V0203001N005119999999N9999999N1-00931-03481999999ADDMA1999999067681MD1210031+9999ME1430419OA149900721REMSYN076AAXX  16084 06791 33/// /3010 11093 21348 36768 47041 52003 333 91114 91210;
0137067910999992010011609004+46417+009817FM-12+329999999V0203001N004619999999N9999999N1-00911-03401999999ADDMA1999999067701MD1210041+9999ME1430439OA149900721REMSYN076AAXX  16094 06791 33/// /3009 11091 21340 36770 47043 52004 333 91114 91210;
0137067910999992010011610004+46417+009817FM-12+329999999V0203001N004619999999N9999999N1-00831-03451999999ADDMA1999999067701MD1210021+9999ME1430429OA149900721REMSYN076AAXX  16104 06791 33/// /3009 11083 21345 36770 47042 52002 333 91114 91211;
0137067910999992010011611004+46417+009817FM-12+329999999V0202801N005119999999N9999999N1-00841-03041999999ADDMA1999999067701MD1010021+9999ME1430429OA149900771REMSYN076AAXX  16114 06791 33/// /2810 11084 21304 36770 47042 50002 333 91115 91211;
0137067910999992010011612004+46417+009817FM-12+329999999V0203001N005719999999N9999999N1-00761-03291999999ADDMA1999999067671MD1710031+9999ME1430389OA149900881REMSYN076AAXX  16124 06791 33/// /3011 11076 21329 36767 47038 57003 333 91117 91212;
0137067910999992010011613004+46417+009817FM-12+329999999V0202901N007219999999N9999999N1-00741-03021999999ADDMA1999999067651MD1610051+9999ME1430359OA149900931REMSYN076AAXX  16134 06791 33/// /2914 11074 21302 36765 47035 56005 333 91118 91214;
0137067910999992010011614004+46417+009817FM-12+329999999V0202901N005719999999N9999999N1-00741-02921999999ADDMA1999999067661MD1519999+9999ME1430379OA149901181REMSYN076AAXX  16144 06791 33/// /2911 11074 21292 36766 47037 55/// 333 91123 91214;
0137067910999992010011615004+46417+009817FM-12+329999999V0202701N006219999999N9999999N1-00711-02561999999ADDMA1999999067651MD1510021+9999ME1430359OA149901181REMSYN076AAXX  16154 06791 33/// /2712 11071 21256 36765 47035 55002 333 91123 91214;
0137067910999992010011616004+46417+009817FM-12+329999999V0202601N004619999999N9999999N1-00691-02351999999ADDMA1999999067631MD1710021+9999ME1430339OA149901031REMSYN076AAXX  16164 06791 33/// /2609 11069 21235 36763 47033 57002 333 91120 91213;
0137067910999992010011617004+46417+009817FM-12+329999999V0202501N005119999999N9999999N1-00681-02351999999ADDMA1999999067631MD1710031+9999ME1430329OA149900821REMSYN076AAXX  16174 06791 33/// /2510 11068 21235 36763 47032 57003 333 91116 91211;
0156067910999992010011618004+46417+009817FM-12+329999999V0202101N003119999999N9999999N1-00661-02381999999ADDKA1120M-00631MA1999999067631MD1710021+9999ME1430329OA149901181REMSYN082AAXX  16184 06791 33/// /2106 11066 21238 36763 47032 57002 333 11063 91123 91214;
0137067910999992010011619004+46417+009817FM-12+329999999V0202201N006219999999N9999999N1-00721-02521999999ADDMA1999999067601MD1710031+9999ME1430299OA149901241REMSYN076AAXX  16194 06791 33/// /2212 11072 21252 36760 47029 57003 333 91124 91212;
0137067910999992010011620004+46417+009817FM-12+329999999V0202101N007719999999N9999999N1-00701-02301999999ADDMA1999999067561MD1710071+9999ME1430259OA149901241REMSYN076AAXX  16204 06791 33/// /2115 11070 21230 36756 47025 57007 333 91124 91215;
0137067910999992010011621004+46417+009817FM-12+329999999V0201901N008719999999N9999999N1-00861-01491999999ADDMA1999999067491MD1810141+9999ME1430189OA149901601REMSYN076AAXX  16214 06791 33/// /1917 11086 21149 36749 47018 58014 333 91131 91217;
0137067910999992010011622004+46417+009817FM-12+329999999V0201901N011819999999N9999999N1-00831-01111999999ADDMA1999999067411MD1810191+9999ME1430099OA149901851REMSYN076AAXX  16224 06791 33/// /1923 11083 21111 36741 47009 58019 333 91136 91223;
0137067910999992010011623004+46417+009817FM-12+329999999V0202101N008219999999N9999999N1-00891-01171999999ADDMA1999999067391MD1610171+9999ME1430079OA149901851REMSYN076AAXX  16234 06791 33/// /2116 11089 21117 36739 47007 56017 333 91136 91223;
0137067910999992010011700004+46417+009817FM-12+329999999V0202101N008719999999N9999999N1-00941-01091999999ADDMA1999999067311MD1710181+9999ME1429989OA149901901REMSYN076AAXX  17004 06791 33/// /2117 11094 21109 36731 47998 57018 333 91137 91223;
0154067910999992010011701004+46417+009817FM-12+329999999V0202201N005719999999N9999999N1-01041-01171999999ADDAA101000021MA1999999067341MD1710071+9999ME1430039OA149901901REMSYN082AAXX  17014 06791 23/// /2211 11104 21117 36734 47003 57007 333 69925 91137 91219;
0154067910999992010011702004+46417+009817FM-12+329999999V0202501N012319999999N9999999N1-00921-01051999999ADDAA101000591MA1999999067341MD1719999+9999ME1430019OA149901601REMSYN082AAXX  17024 06791 23/// /2524 11092 21105 36734 47001 57/// 333 69945 91131 91224;
0096067910999992010011703004+46417+009817FM-12+329999999V0202601N010319999999N9999999N1-00961-01161999999ADDMA1999999067321ME1430009REMSYN060AAXX  17034 06791 43/// /2620 11096 21116 36732 47000 5////;
0154067910999992010011704004+46417+009817FM-12+329999999V0202801N011319999999N9999999N1-01051-01401999999ADDAA101000021MA1999999067281MD1710061+9999ME1429969OA149901701REMSYN082AAXX  17044 06791 23/// /2822 11105 21140 36728 47996 57006 333 69915 91133 91222;
0137067910999992010011705004+46417+009817FM-12+329999999V0202901N009319999999N9999999N1-01031-01511999999ADDMA1999999067271MD1619999+9999ME1429959OA149901701REMSYN076AAXX  17054 06791 33/// /2918 11103 21151 36727 47995 56/// 333 91133 91222;
0220067910999992010011706004+46417+009817FM-12+329999999V0202801N008219999999N9999999N1-01061-01411999999ADDAA112000891AA224000891AL14800091GJ103849KA1999N-01061MA1999999067271MD1710051+9999ME1429959OA149901901REMSYN106AAXX  17064 06791 03/// /2816 11106 21141 36727 47995 57005 69982 333 21106 55064 60005 70008 91137 91224;
0137067910999992010011707004+46417+009817FM-12+329999999V0202801N007219999999N9999999N1-01081-01391999999ADDMA1999999067291MD1310011+9999ME1429989OA149901601REMSYN076AAXX  17074 06791 33/// /2814 11108 21139 36729 47998 53001 333 91131 91221;
0137067910999992010011708004+46417+009817FM-12+329999999V0202901N005119999999N9999999N1-01111-01321999999ADDMA1999999067331MD1219999+9999ME1430029OA149901341REMSYN076AAXX  17084 06791 33/// /2910 11111 21132 36733 47002 52/// 333 91126 91216;
0137067910999992010011709004+46417+009817FM-12+329999999V0203001N005719999999N9999999N1-01101-01591999999ADDMA1999999067331MD1210061+9999ME1430029OA149901701REMSYN076AAXX  17094 06791 33/// /3011 11110 21159 36733 47002 52006 333 91133 91222;
0137067910999992010011710004+46417+009817FM-12+329999999V0203001N008219999999N9999999N1-01091-01491999999ADDMA1999999067371MD1210081+9999ME1430079OA149901291REMSYN076AAXX  17104 06791 33/// /3016 11109 21149 36737 47007 52008 333 91125 91216;
0137067910999992010011711004+46417+009817FM-12+329999999V0202901N007219999999N9999999N1-01131-01791999999ADDMA1999999067341MD1010011+9999ME1430049OA149901491REMSYN076AAXX  17114 06791 33/// /2914 11113 21179 36734 47004 50001 333 91129 91216;
0137067910999992010011712004+46417+009817FM-12+329999999V0202901N006219999999N9999999N1-01121-01351999999ADDMA1999999067341MD1010011+9999ME1430049OA149901701REMSYN076AAXX  17124 06791 33/// /2912 11112 21135 36734 47004 50001 333 91133 91224;
0137067910999992010011713004+46417+009817FM-12+329999999V0203101N004119999999N9999999N1-01181-01241999999ADDMA1999999067351MD1510021+9999ME1430069OA149901341REMSYN076AAXX  17134 06791 33/// /3108 11118 21124 36735 47006 55002 333 91126 91214;
0137067910999992010011714004+46417+009817FM-12+329999999V0203601N002619999999N9999999N1-01161-01261999999ADDMA1999999067371MD1219999+9999ME1430089OA149901031REMSYN076AAXX  17144 06791 33/// /3605 11116 21126 36737 47008 52/// 333 91120 91214;
0137067910999992010011715004+46417+009817FM-12+329999999V0203401N004619999999N9999999N1-01221-01721999999ADDMA1999999067411MD1210071+9999ME1430139OA149901491REMSYN076AAXX  17154 06791 33/// /3409 11122 21172 36741 47013 52007 333 91129 91216;
0137067910999992010011716004+46417+009817FM-12+329999999V0203401N007219999999N9999999N1-01331-02021999999ADDMA1999999067431MD1210081+9999ME1430169OA149901241REMSYN076AAXX  17164 06791 33/// /3414 11133 21202 36743 47016 52008 333 91124 91214;
0137067910999992010011717004+46417+009817FM-12+329999999V0200301N006219999999N9999999N1-01331-02061999999ADDMA1999999067471MD1210101+9999ME1430219OA149901241REMSYN076AAXX  17174 06791 33/// /0312 11133 21206 36747 47021 52010 333 91124 91214;
