0149067920999992011010100004+46533+009883FM-12+170699999V0202201N001019999999N9999999N1-01561-02141999999ADDMA1999999082841MD1810051+9999ME1315159OA149900261REMSYN088AAXX  01004 06792 33/// /2202 11156 21214 38284 48515 58005 333 55300 20000 91105 91204;
0149067920999992011010101004+46533+009883FM-12+170699999V0201901N001019999999N9999999N1-01491-02041999999ADDMA1999999082821MD1610081+9999ME1315139OA149900151REMSYN088AAXX  01014 06792 33/// /1902 11149 21204 38282 48513 56008 333 55300 20000 91103 91202;
0149067920999992011010102004+46533+009883FM-12+170699999V0202001N001019999999N9999999N1-01591-02191999999ADDMA1999999082811MD1610061+9999ME1315139OA149900211REMSYN088AAXX  01024 06792 33/// /2002 11159 21219 38281 48513 56006 333 55300 20000 91104 91203;
0149067920999992011010103004+46533+009883FM-12+170699999V0201901N000519999999N9999999N1-01611-02231999999ADDMA1999999082771MD1810071+9999ME1315099OA149900211REMSYN088AAXX  01034 06792 33/// /1901 11161 21223 38277 48509 58007 333 55300 20000 91104 91203;
0149067920999992011010104004+46533+009883FM-12+170699999V0201801N000519999999N9999999N1-01631-02191999999ADDMA1999999082731MD1810091+9999ME1315069OA149900151REMSYN088AAXX  01044 06792 33/// /1801 11163 21219 38273 48506 58009 333 55300 20000 91103 91202;
0149067920999992011010105004+46533+009883FM-12+170699999V0202101N001019999999N9999999N1-01631-02291999999ADDMA1999999082721MD1710091+9999ME1315059OA149900151REMSYN088AAXX  01054 06792 33/// /2102 11163 21229 38272 48505 57009 333 55300 20000 91103 91202;
0216067920999992011010106004+46533+009883FM-12+170699999V0202101N001019999999N9999999N1-01671-02321999999ADDAL19900091GJ103909IA2999-02309KA1999N-01951MA1999999082701MD1710071+9999ME1315039OA149900261REMSYN112AAXX  01064 06792 33/// /2102 11167 21232 38270 48503 57007 333 21195 3/123 55065 55300 20000 70000 91105 91203;
0149067920999992011010107004+46533+009883FM-12+170699999V0202001N000519999999N9999999N1-01861-02471999999ADDMA1999999082711MD1510021+9999ME1315069OA149900211REMSYN088AAXX  01074 06792 33/// /2001 11186 21247 38271 48506 55002 333 55300 20000 91104 91203;
0149067920999992011010108004+46533+009883FM-12+170699999V0201901N001019999999N9999999N1-01631-01931999999ADDMA1999999082711MD1410001+9999ME1315049OA149900211REMSYN088AAXX  01084 06792 33/// /1902 11163 21193 38271 48504 54/// 333 55300 20040 91104 91203;
0138067920999992011010109004+46533+009883FM-12+170699999V0202301N000512200019N0350001N1-01681-01951999999ADDGA1001+999999999GF100991001001999999001001MA1999999082691ME1315029REMSYN060AAXX  01094 06792 42/81 02301 11168 21195 38269 48502 5////;
0096067920999992011010110004+46533+009883FM-12+170699999V0201901N000519999999N9999999N1-01361-01651999999ADDMA1999999082651ME1314969REMSYN060AAXX  01104 06792 43/// /1901 11136 21165 38265 48496 5////;
0149067920999992011010111004+46533+009883FM-12+170699999V0209999C000019999999N9999999N1-01251-01621999999ADDMA1999999082591MD1810121+9999ME1314909OA149900151REMSYN088AAXX  01114 06792 33/// /0000 11125 21162 38259 48490 58012 333 553// 2//// 91103 91201;
0096067920999992011010112004+46533+009883FM-12+170699999V0200501N000519999999N9999999N1-00831-01491999999ADDMA1999999082521ME1314799REMSYN060AAXX  01124 06792 43/// /0501 11083 21149 38252 48479 5////;
0096067920999992011010113004+46533+009883FM-12+170699999V0209999C000019999999N9999999N1-00581-01561999999ADDMA1999999082461ME1314719REMSYN060AAXX  01134 06792 43/// /0000 11058 21156 38246 48471 5////;
0096067920999992011010114004+46533+009883FM-12+170699999V0202301N000519999999N9999999N1-00441-01341999999ADDMA1999999082431ME1314679REMSYN060AAXX  01144 06792 43/// /2301 11044 21134 38243 48467 5////;
0138067920999992011010115004+46533+009883FM-12+170699999V0202201N001012200019N0350001N1-00471-01221999999ADDGA1001+999999999GF100991001001999999001001MA1999999082441ME1314689REMSYN060AAXX  01154 06792 42/81 02202 11047 21122 38244 48468 5////;
0096067920999992011010116004+46533+009883FM-12+170699999V0202201N001519999999N9999999N1-00691-01281999999ADDMA1999999082461ME1314729REMSYN060AAXX  01164 06792 43/// /2203 11069 21128 38246 48472 5////;
0096067920999992011010117004+46533+009883FM-12+170699999V0202101N001519999999N9999999N1-00811-01301999999ADDMA1999999082451ME1314729REMSYN060AAXX  01174 06792 43/// /2103 11081 21130 38245 48472 5////;
0193067920999992011010118004+46533+009883FM-12+170699999V0202301N000512200019N0350001N1-01071-01421999999ADDAJ100309199999999AL10600091GA1001+999999999GF100991001001999999001001IA1239MA1999999082431ME1314739REMSYN082AAXX  01184 06792 42/81 02301 11107 21142 38243 48473 5//// 333 47030 90766 93100;
0112067920999992011010119004+46533+009883FM-12+170699999V0202001N001019999999N9999999N1-01341-01681999999ADDMA1999999082411ME1314749REMSYN076AAXX  01194 06792 33/// /2002 11134 21168 38241 48474 5//// 333 553// 20000;
0149067920999992011010120004+46533+009883FM-12+170699999V0202001N000519999999N9999999N1-01181-01531999999ADDMA1999999082421MD1710031+9999ME1314739OA149900211REMSYN088AAXX  01204 06792 33/// /2001 11118 21153 38242 48473 57003 333 55300 20000 91104 91203;
0149067920999992011010121004+46533+009883FM-12+170699999V0202101N001019999999N9999999N1-01241-01571999999ADDMA1999999082421MD1510011+9999ME1314749OA149900311REMSYN088AAXX  01214 06792 33/// /2102 11124 21157 38242 48474 55001 333 55300 20000 91106 91204;
0149067920999992011010122004+46533+009883FM-12+170699999V0202201N001019999999N9999999N1-01221-01491999999ADDMA1999999082421MD1010011+9999ME1314739OA149900211REMSYN088AAXX  01224 06792 33/// /2202 11122 21149 38242 48473 50001 333 55300 20000 91104 91203;
0149067920999992011010123004+46533+009883FM-12+170699999V0209999C000019999999N9999999N1-01451-01681999999ADDMA1999999082391MD1710031+9999ME1314739OA149900211REMSYN088AAXX  01234 06792 33/// /0000 11145 21168 38239 48473 57003 333 55300 20000 91104 91203;
0149067920999992011010200004+46533+009883FM-12+170699999V0202101N000519999999N9999999N1-01401-01691999999ADDMA1999999082331MD1710091+9999ME1314679OA149900311REMSYN088AAXX  02004 06792 33/// /2101 11140 21169 38233 48467 57009 333 55300 20000 91106 91204;
0149067920999992011010201004+46533+009883FM-12+170699999V0202401N001019999999N9999999N1-01421-01641999999ADDMA1999999082291MD1710131+9999ME1314639OA149900261REMSYN088AAXX  02014 06792 33/// /2402 11142 21164 38229 48463 57013 333 55300 20000 91105 91203;
0096067920999992011010202004+46533+009883FM-12+170699999V0202101N000519999999N9999999N1-01461-01981999999ADDMA1999999082291ME1314649REMSYN060AAXX  02024 06792 43/// /2101 11146 21198 38229 48464 5////;
0096067920999992011010203004+46533+009883FM-12+170699999V0202201N000519999999N9999999N1-01491-01781999999ADDMA1999999082241ME1314599REMSYN060AAXX  02034 06792 43/// /2201 11149 21178 38224 48459 5////;
0096067920999992011010204004+46533+009883FM-12+170699999V0201801N001019999999N9999999N1-01441-01711999999ADDMA1999999082201ME1314559REMSYN060AAXX  02044 06792 43/// /1802 11144 21171 38220 48455 5////;
0096067920999992011010205004+46533+009883FM-12+170699999V0202301N000519999999N9999999N1-01521-01791999999ADDMA1999999082211ME1314579REMSYN060AAXX  02054 06792 43/// /2301 11152 21179 38221 48457 5////;
0143067920999992011010206004+46533+009883FM-12+170699999V0202001N001519999999N9999999N1-01451-01781999999ADDIA2999-02009KA1999N-01801MA1999999082211ME1314569REMSYN082AAXX  02064 06792 43/// /2003 11145 21178 38221 48456 5//// 333 21180 3/120 55065;
0149067920999992011010207004+46533+009883FM-12+170699999V0202301N000519999999N9999999N1-01561-02171999999ADDMA1999999082181MD1810021+9999ME1314549OA149900261REMSYN088AAXX  02074 06792 33/// /2301 11156 21217 38218 48454 58002 333 55300 20000 91105 91203;
0149067920999992011010208004+46533+009883FM-12+170699999V0209999C000019999999N9999999N1-01521-01771999999ADDMA1999999082221MD1310011+9999ME1314589OA149900211REMSYN088AAXX  02084 06792 33/// /0000 11152 21177 38222 48458 53001 333 55300 20040 91104 91203;
0191067920999992011010209004+46533+009883FM-12+170699999V0209999C000012200019N0400001N1-01451-01731999999ADDGA1001+999999999GF100991001001999999001001MA1999999082271MD1310061+9999ME1314629OA149900261REMSYN088AAXX  02094 06792 32/82 00000 11145 21173 38227 48462 53006 333 55304 20378 91105 91203;
0149067920999992011010210004+46533+009883FM-12+170699999V0200801N000519999999N9999999N1-01331-01591999999ADDMA1999999082291MD1110111+9999ME1314629OA149900151REMSYN088AAXX  02104 06792 33/// /0801 11133 21159 38229 48462 51011 333 553// 2//// 91103 91201;
0149067920999992011010211004+46533+009883FM-12+170699999V0200401N000519999999N9999999N1-01041-01371999999ADDMA1999999082231MD1010011+9999ME1314549OA149900151REMSYN088AAXX  02114 06792 33/// /0401 11104 21137 38223 48454 50001 333 553// 2//// 91103 91201;
0149067920999992011010212004+46533+009883FM-12+170699999V0201801N000519999999N9999999N1-01041-01371999999ADDMA1999999082161MD1710111+9999ME1314479OA149900261REMSYN088AAXX  02124 06792 33/// /1801 11104 21137 38216 48447 57011 333 553// 2//// 91105 91203;
0149067920999992011010213004+46533+009883FM-12+170699999V0202601N000519999999N9999999N1-00651-01241999999ADDMA1999999082131MD1710161+9999ME1314409OA149900211REMSYN088AAXX  02134 06792 33/// /2601 11065 21124 38213 48440 57016 333 553// 2//// 91104 91202;
0112067920999992011010214004+46533+009883FM-12+170699999V0200301N006719999999N9999999N1-00501-01191999999ADDMA1999999082131ME1314399REMSYN076AAXX  02144 06792 33/// /0313 11050 21119 38213 48439 5//// 333 553// 20958;
0191067920999992011010215004+46533+009883FM-12+170699999V0200401N006212200019N0400001N1-00501-01291999999ADDGA1001+999999999GF100991001001999999001001MA1999999082191MD1310031+9999ME1314459OA149901341REMSYN088AAXX  02154 06792 32/82 00412 11050 21129 38219 48445 53003 333 553// 20504 91126 91216;
0149067920999992011010216004+46533+009883FM-12+170699999V0200401N005119999999N9999999N1-00691-01381999999ADDMA1999999082251MD1310121+9999ME1314529OA149901341REMSYN088AAXX  02164 06792 33/// /0410 11069 21138 38225 48452 53012 333 55301 20040 91126 91216;
0149067920999992011010217004+46533+009883FM-12+170699999V0200401N005119999999N9999999N1-00701-01421999999ADDMA1999999082311MD1110181+9999ME1314589OA149901031REMSYN088AAXX  02174 06792 33/// /0410 11070 21142 38231 48458 51018 333 55300 20000 91120 91212;
0168067920999992011010218004+46533+009883FM-12+170699999V0203601N003119999999N9999999N1-00971-01441999999ADDKA1120M-00451MA1999999082371MD1310181+9999ME1314669OA149901341REMSYN094AAXX  02184 06792 33/// /3606 11097 21144 38237 48466 53018 333 11045 55300 20000 91126 91216;
0149067920999992011010219004+46533+009883FM-12+170699999V0202101N001519999999N9999999N1-01431-01781999999ADDMA1999999082431MD1110181+9999ME1314769OA149901241REMSYN088AAXX  02194 06792 33/// /2103 11143 21178 38243 48476 51018 333 55300 20000 91124 91210;
0149067920999992011010220004+46533+009883FM-12+170699999V0202001N001519999999N9999999N1-01581-02191999999ADDMA1999999082471MD1110161+9999ME1314819OA149900721REMSYN088AAXX  02204 06792 33/// /2003 11158 21219 38247 48481 51016 333 55300 20000 91114 91205;
0149067920999992011010221004+46533+009883FM-12+170699999V0201901N001019999999N9999999N1-01621-02181999999ADDMA1999999082511MD1110141+9999ME1314859OA149901241REMSYN088AAXX  02214 06792 33/// /1902 11162 21218 38251 48485 51014 333 55300 20000 91124 91212;
0149067920999992011010222004+46533+009883FM-12+170699999V0202001N001519999999N9999999N1-01701-02501999999ADDMA1999999082521MD1210091+9999ME1314879OA149900311REMSYN088AAXX  02224 06792 33/// /2003 11170 21250 38252 48487 52009 333 55300 20000 91106 91204;
0149067920999992011010223004+46533+009883FM-12+170699999V0202101N001519999999N9999999N1-01801-02461999999ADDMA1999999082501MD1010031+9999ME1314869OA149900261REMSYN088AAXX  02234 06792 33/// /2103 11180 21246 38250 48486 50003 333 55300 20000 91105 91203;
0149067920999992011010300004+46533+009883FM-12+170699999V0201901N001019999999N9999999N1-01811-02081999999ADDMA1999999082491MD1810021+9999ME1314859OA149901341REMSYN088AAXX  03004 06792 33/// /1902 11181 21208 38249 48485 58002 333 55300 20000 91126 91216;
0149067920999992011010301004+46533+009883FM-12+170699999V0202101N000519999999N9999999N1-02011-02731999999ADDMA1999999082481MD1710041+9999ME1314869OA149900261REMSYN088AAXX  03014 06792 33/// /2101 11201 21273 38248 48486 57004 333 55300 20000 91105 91204;
0149067920999992011010302004+46533+009883FM-12+170699999V0202001N001019999999N9999999N1-02051-02861999999ADDMA1999999082521MD1319999+9999ME1314909OA149900261REMSYN088AAXX  03024 06792 33/// /2002 11205 21286 38252 48490 53/// 333 55300 20000 91105 91204;
0096067920999992011010303004+46533+009883FM-12+170699999V0202101N001019999999N9999999N1-02101-02341999999ADDMA1999999082521ME1314909REMSYN060AAXX  03034 06792 43/// /2102 11210 21234 38252 48490 5////;
0149067920999992011010304004+46533+009883FM-12+170699999V0202101N000519999999N9999999N1-02101-02571999999ADDMA1999999082501MD1010021+9999ME1314899OA149900211REMSYN088AAXX  03044 06792 33/// /2101 11210 21257 38250 48489 50002 333 55300 20000 91104 91203;
0149067920999992011010305004+46533+009883FM-12+170699999V0201901N001019999999N9999999N1-02201-02611999999ADDMA1999999082521MD1510001+9999ME1314919OA149900211REMSYN088AAXX  03054 06792 33/// /1902 11220 21261 38252 48491 55000 333 55300 20000 91104 91202;
0216067920999992011010306004+46533+009883FM-12+170699999V0201901N001019999999N9999999N1-02181-02661999999ADDAL19900091GJ103909IA2999-02809KA1999N-02341MA1999999082551MD1210031+9999ME1314949OA149900721REMSYN112AAXX  03064 06792 33/// /1902 11218 21266 38255 48494 52003 333 21234 3/128 55065 55300 20000 70000 91114 91205;
0149067920999992011010307004+46533+009883FM-12+170699999V0202201N000519999999N9999999N1-02181-02831999999ADDMA1999999082561MD1210061+9999ME1314959OA149900261REMSYN088AAXX  03074 06792 33/// /2201 11218 21283 38256 48495 52006 333 55300 20000 91105 91203;
0149067920999992011010308004+46533+009883FM-12+170699999V0201801N001019999999N9999999N1-02171-02501999999ADDMA1999999082591MD1219999+9999ME1314979OA149900261REMSYN088AAXX  03084 06792 33/// /1802 11217 21250 38259 48497 52/// 333 55300 20040 91105 91202;
0154067920999992011010309004+46533+009883FM-12+170699999V0201001N000512200019N0350001N1-02171-02371999999ADDGA1001+999999999GF100991001001999999001001MA1999999082601ME1314989REMSYN076AAXX  03094 06792 32/81 01001 11217 21237 38260 48498 5//// 333 553// 20392;
0149067920999992011010310004+46533+009883FM-12+170699999V0200301N000519999999N9999999N1-02031-02621999999ADDMA1999999082611MD1210051+9999ME1314989OA149900211REMSYN088AAXX  03104 06792 33/// /0301 11203 21262 38261 48498 52005 333 553// 2//// 91104 91201;
0149067920999992011010311004+46533+009883FM-12+170699999V0209999C000019999999N9999999N1-01671-02671999999ADDMA1999999082581MD1010011+9999ME1314929OA149900211REMSYN088AAXX  03114 06792 33/// /0000 11167 21267 38258 48492 50001 333 553// 2//// 91104 91201;
0149067920999992011010312004+46533+009883FM-12+170699999V0209999C000019999999N9999999N1-01581-02351999999ADDMA1999999082511MD1710091+9999ME1314859OA149900261REMSYN088AAXX  03124 06792 33/// /0000 11158 21235 38251 48485 57009 333 553// 2//// 91105 91204;
0149067920999992011010313004+46533+009883FM-12+170699999V0209999C000019999999N9999999N1-01191-02161999999ADDMA1999999082481MD1810131+9999ME1314799OA149900101REMSYN088AAXX  03134 06792 33/// /0000 11119 21216 38248 48479 58013 333 553// 2//// 91102 91201;
0112067920999992011010314004+46533+009883FM-12+170699999V0209999C000019999999N9999999N1-01171-02071999999ADDMA1999999082471ME1314789REMSYN076AAXX  03144 06792 33/// /0000 11117 21207 38247 48478 5//// 333 553// 2////;
0112067920999992011010315004+46533+009883FM-12+170699999V0201901N001519999999N9999999N1-01211-02361999999ADDMA1999999082471ME1314789REMSYN076AAXX  03154 06792 33/// /1903 11121 21236 38247 48478 5//// 333 553// 20536;
0149067920999992011010316004+46533+009883FM-12+170699999V0202001N001519999999N9999999N1-01681-02681999999ADDMA1999999082501MD1210021+9999ME1314859OA149900261REMSYN088AAXX  03164 06792 33/// /2003 11168 21268 38250 48485 52002 333 55301 20047 91105 91203;
0149067920999992011010317004+46533+009883FM-12+170699999V0201901N000519999999N9999999N1-01991-02651999999ADDMA1999999082521MD1210051+9999ME1314909OA149900361REMSYN088AAXX  03174 06792 33/// /1901 11199 21265 38252 48490 52005 333 55300 20000 91107 91204;
0261067920999992011010318004+46533+009883FM-12+170699999V0201701N000512200019N0400001N1-01851-02721999999ADDAJ100309199999999AL19900091GA1001+999999999GF100991001001999999001001IA1239KA1120M-01051MA1999999082541MD1210071+9999ME1314909OA149900361REMSYN112AAXX  03184 06792 32/82 01701 11185 21272 38254 48490 52007 333 11105 47030 55300 20000 90766 93100 91107 91204;
0149067920999992011010319004+46533+009883FM-12+170699999V0202001N001019999999N9999999N1-02101-02441999999ADDMA1999999082551MD1210051+9999ME1314939OA149900211REMSYN088AAXX  03194 06792 33/// /2002 11210 21244 38255 48493 52005 333 55300 20000 91104 91203;
0149067920999992011010320004+46533+009883FM-12+170699999V0201901N001019999999N9999999N1-01991-02501999999ADDMA1999999082541MD1010021+9999ME1314919OA149900211REMSYN088AAXX  03204 06792 33/// /1902 11199 21250 38254 48491 50002 333 55300 20000 91104 91203;
0149067920999992011010321004+46533+009883FM-12+170699999V0201801N001519999999N9999999N1-02111-02471999999ADDMA1999999082561MD1310021+9999ME1314949OA149900361REMSYN088AAXX  03214 06792 33/// /1803 11211 21247 38256 48494 53002 333 55300 20000 91107 91204;
0149067920999992011010322004+46533+009883FM-12+170699999V0202101N001519999999N9999999N1-02111-02461999999ADDMA1999999082551MD1410001+9999ME1314939OA149900261REMSYN088AAXX  03224 06792 33/// /2103 11211 21246 38255 48493 54000 333 55300 20000 91105 91204;
0149067920999992011010323004+46533+009883FM-12+170699999V0202101N001019999999N9999999N1-02051-02481999999ADDMA1999999082541MD1010001+9999ME1314929OA149900361REMSYN088AAXX  03234 06792 33/// /2102 11205 21248 38254 48492 50000 333 55300 20000 91107 91205;
0149067920999992011010400004+46533+009883FM-12+170699999V0202501N000519999999N9999999N1-02181-02591999999ADDMA1999999082521MD1710041+9999ME1314919OA149900361REMSYN088AAXX  04004 06792 33/// /2501 11218 21259 38252 48491 57004 333 55300 20000 91107 91205;
0149067920999992011010401004+46533+009883FM-12+170699999V0202001N001019999999N9999999N1-02031-02461999999ADDMA1999999082501MD1710051+9999ME1314889OA149900211REMSYN088AAXX  04014 06792 33/// /2002 11203 21246 38250 48488 57005 333 55300 20000 91104 91202;
0149067920999992011010402004+46533+009883FM-12+170699999V0209999C000019999999N9999999N1-02041-02471999999ADDMA1999999082461MD1819999+9999ME1314859OA149900311REMSYN088AAXX  04024 06792 33/// /0000 11204 21247 38246 48485 58/// 333 55300 20000 91106 91203;
0149067920999992011010403004+46533+009883FM-12+170699999V0209999C000019999999N9999999N1-02051-02371999999ADDMA1999999082431MD1810091+9999ME1314829OA149900361REMSYN088AAXX  04034 06792 33/// /0000 11205 21237 38243 48482 58009 333 55300 20000 91107 91205;
0149067920999992011010404004+46533+009883FM-12+170699999V0201501N000519999999N9999999N1-01861-02471999999ADDMA1999999082381MD1810121+9999ME1314769OA149900151REMSYN088AAXX  04044 06792 33/// /1501 11186 21247 38238 48476 58012 333 55300 20000 91103 91201;
0149067920999992011010405004+46533+009883FM-12+170699999V0201101N000519999999N9999999N1-01811-02341999999ADDMA1999999082351MD1810111+9999ME1314729OA149900151REMSYN088AAXX  04054 06792 33/// /1101 11181 21234 38235 48472 58011 333 55300 20000 91103 91202;
0305067920999992011010406004+46533+009883FM-12+170699999V0202201N00151027001CN0300001N1-01921-02771999999ADDAJ100309199999999AL19900091GA1051+027001041GF105991999999999999999999GJ103909IA1239IA2999-02709KA1999N-02311MA1999999082321MD1710111+9999ME1314719OA149900361REMSYN136AAXX  04064 06792 32980 52203 11192 21277 38232 48471 57011 333 21231 3/127 47030 55065 55300 20000 70000 85459 90768 93100 91107 91205;
0149067920999992011010407004+46533+009883FM-12+170699999V0201901N000519999999N9999999N1-01751-02661999999ADDMA1999999082321MD1710061+9999ME1314699OA149900211REMSYN088AAXX  04074 06792 33/// /1901 11175 21266 38232 48469 57006 333 55300 20000 91104 91203;
0149067920999992011010408004+46533+009883FM-12+170699999V0201801N001019999999N9999999N1-01771-02781999999ADDMA1999999082311MD1719999+9999ME1314689OA149900211REMSYN088AAXX  04084 06792 33/// /1802 11177 21278 38231 48468 57/// 333 55300 20043 91104 91203;
0144067920999992011010409004+46533+009883FM-12+170699999V0201101N000519999999N0350001N1-01671-02631999999ADDGF107991999999999999999999MA1999999082321ME1314689REMSYN082AAXX  04094 06792 32981 71101 11167 21263 38232 48468 5//// 333 553// 20158 87266;
0149067920999992011010410004+46533+009883FM-12+170699999V0202501N001019999999N9999999N1-01461-02621999999ADDMA1999999082321MD1219999+9999ME1314669OA149900151REMSYN088AAXX  04104 06792 33/// /2502 11146 21262 38232 48466 52/// 333 55301 20659 91103 91202;
0149067920999992011010411004+46533+009883FM-12+170699999V0201501N000519999999N9999999N1-01191-01621999999ADDMA1999999082261MD1810051+9999ME1314589OA149900151REMSYN088AAXX  04114 06792 33/// /1501 11119 21162 38226 48458 58005 333 55309 2//// 91103 91202;
0149067920999992011010412004+46533+009883FM-12+170699999V0202001N003119999999N9999999N1-00891-01421999999ADDMA1999999082181MD1710141+9999ME1314489OA149900461REMSYN088AAXX  04124 06792 33/// /2006 11089 21142 38218 48448 57014 333 55303 20918 91109 91206;
0149067920999992011010413004+46533+009883FM-12+170699999V0202201N003119999999N9999999N1-00911-01431999999ADDMA1999999082151MD1619999+9999ME1314459OA149900461REMSYN088AAXX  04134 06792 33/// /2206 11091 21143 38215 48445 56/// 333 55303 20756 91109 91206;
0112067920999992011010414004+46533+009883FM-12+170699999V0201901N003119999999N9999999N1-00881-01421999999ADDMA1999999082141ME1314449REMSYN076AAXX  04144 06792 33/// /1906 11088 21142 38214 48444 5//// 333 553// 20785;
0138067920999992011010415004+46533+009883FM-12+170699999V0201901N002612200019N0350001N1-01061-01521999999ADDGA1001+999999999GF100991001001999999001001MA1999999082161ME1314479REMSYN060AAXX  04154 06792 42/81 01905 11106 21152 38216 48447 5////;
0149067920999992011010416004+46533+009883FM-12+170699999V0201901N002119999999N9999999N1-01261-01761999999ADDMA1999999082171MD1210021+9999ME1314509OA149900571REMSYN088AAXX  04164 06792 33/// /1904 11126 21176 38217 48450 52002 333 55301 20047 91111 91207;
0149067920999992011010417004+46533+009883FM-12+170699999V0201801N001019999999N9999999N1-01451-02311999999ADDMA1999999082191MD1210051+9999ME1314549OA149900411REMSYN088AAXX  04174 06792 33/// /1802 11145 21231 38219 48454 52005 333 55300 20000 91108 91206;
0261067920999992011010418004+46533+009883FM-12+170699999V0201901N001512200019N0400001N1-01631-02391999999ADDAJ100309199999999AL19900091GA1001+999999999GF100991001001999999001001IA1239KA1120M-00841MA1999999082221MD1210061+9999ME1314599OA149900571REMSYN112AAXX  04184 06792 32/82 01903 11163 21239 38222 48459 52006 333 11084 47030 55300 20000 90766 93100 91111 91208;
0149067920999992011010419004+46533+009883FM-12+170699999V0202201N001019999999N9999999N1-01771-02721999999ADDMA1999999082231MD1110061+9999ME1314619OA149900311REMSYN088AAXX  04194 06792 33/// /2202 11177 21272 38223 48461 51006 333 55300 20000 91106 91204;
0149067920999992011010420004+46533+009883FM-12+170699999V0201801N001019999999N9999999N1-01821-02681999999ADDMA1999999082251MD1110061+9999ME1314639OA149900311REMSYN088AAXX  04204 06792 33/// /1802 11182 21268 38225 48463 51006 333 55300 20000 91106 91203;
0149067920999992011010421004+46533+009883FM-12+170699999V0201901N002619999999N9999999N1-01921-02621999999ADDMA1999999082251MD1210031+9999ME1314649OA149900411REMSYN088AAXX  04214 06792 33/// /1905 11192 21262 38225 48464 52003 333 55300 20000 91108 91206;
0149067920999992011010422004+46533+009883FM-12+170699999V0202001N001519999999N9999999N1-01921-02621999999ADDMA1999999082271MD1210041+9999ME1314669OA149900411REMSYN088AAXX  04224 06792 33/// /2003 11192 21262 38227 48466 52004 333 55300 20000 91108 91206;
0149067920999992011010423004+46533+009883FM-12+170699999V0201601N000519999999N9999999N1-01941-02671999999ADDMA1999999082261MD1010011+9999ME1314659OA149900411REMSYN088AAXX  04234 06792 33/// /1601 11194 21267 38226 48465 50001 333 55300 20000 91108 91206;
0149067920999992011010500004+46533+009883FM-12+170699999V0202201N002119999999N9999999N1-02051-02351999999ADDMA1999999082241MD1810011+9999ME1314659OA149900571REMSYN088AAXX  05004 06792 33/// /2204 11205 21235 38224 48465 58001 333 55300 20000 91111 91208;
0149067920999992011010501004+46533+009883FM-12+170699999V0202001N001019999999N9999999N1-01951-02621999999ADDMA1999999082221MD1810051+9999ME1314629OA149900261REMSYN088AAXX  05014 06792 33/// /2002 11195 21262 38222 48462 58005 333 55300 20000 91105 91204;
0149067920999992011010502004+46533+009883FM-12+170699999V0202101N001019999999N9999999N1-02021-02331999999ADDMA1999999082211MD1610051+9999ME1314629OA149900261REMSYN088AAXX  05024 06792 33/// /2102 11202 21233 38221 48462 56005 333 55300 20000 91105 91203;
0096067920999992011010503004+46533+009883FM-12+170699999V0201301N000519999999N9999999N1-02061-02721999999ADDMA1999999082201ME1314619REMSYN060AAXX  05034 06792 43/// /1301 11206 21272 38220 48461 5////;
0149067920999992011010504004+46533+009883FM-12+170699999V0202001N000519999999N9999999N1-02071-02661999999ADDMA1999999082211MD1510011+9999ME1314629OA149900311REMSYN088AAXX  05044 06792 33/// /2001 11207 21266 38221 48462 55001 333 55300 20000 91106 91204;
0149067920999992011010505004+46533+009883FM-12+170699999V0202001N001519999999N9999999N1-02121-02441999999ADDMA1999999082191MD1710021+9999ME1314619OA149900311REMSYN088AAXX  05054 06792 33/// /2003 11212 21244 38219 48461 57002 333 55300 20000 91106 91205;
0216067920999992011010506004+46533+009883FM-12+170699999V0202101N001519999999N9999999N1-02101-02431999999ADDAL19900091GJ102169IA2999-02609KA1999N-02271MA1999999082201MD1510001+9999ME1314629OA149900411REMSYN112AAXX  05064 06792 33/// /2103 11210 21243 38220 48462 55000 333 21227 3/126 55036 55300 20000 70000 91108 91206;
0149067920999992011010507004+46533+009883FM-12+170699999V0202101N001019999999N9999999N1-02181-02551999999ADDMA1999999082221MD1310011+9999ME1314649OA149900261REMSYN088AAXX  05074 06792 33/// /2102 11218 21255 38222 48464 53001 333 55300 20000 91105 91204;
0149067920999992011010508004+46533+009883FM-12+170699999V0202001N001019999999N9999999N1-02181-02511999999ADDMA1999999082261MD1219999+9999ME1314689OA149900261REMSYN088AAXX  05084 06792 33/// /2002 11218 21251 38226 48468 52/// 333 55300 20043 91105 91204;
0191067920999992011010509004+46533+009883FM-12+170699999V0209999C000012200019N0350001N1-02091-02541999999ADDGA1001+999999999GF100991001001999999001001MA1999999082271MD1110071+9999ME1314689OA149900311REMSYN088AAXX  05094 06792 32/81 00000 11209 21254 38227 48468 51007 333 55304 20385 91106 91205;
0149067920999992011010510004+46533+009883FM-12+170699999V0209999C000019999999N9999999N1-01851-02621999999ADDMA1999999082271MD1210051+9999ME1314659OA149900261REMSYN088AAXX  05104 06792 33/// /0000 11185 21262 38227 48465 52005 333 553// 2//// 91105 91203;
0149067920999992011010511004+46533+009883FM-12+170699999V0209999C000019999999N9999999N1-01381-01861999999ADDMA1999999082231MD1810031+9999ME1314579OA149900151REMSYN088AAXX  05114 06792 33/// /0000 11138 21186 38223 48457 58003 333 553// 2//// 91103 91202;
0112067920999992011010512004+46533+009883FM-12+170699999V0209999C000019999999N9999999N1-01291-01741999999ADDMA1999999082151ME1314499REMSYN076AAXX  05124 06792 33/// /0000 11129 21174 38215 48449 5//// 333 553// 2////;
0149067920999992011010513004+46533+009883FM-12+170699999V0209999C000019999999N9999999N1-00881-01961999999ADDMA1999999082131MD1710141+9999ME1314439OA149900051REMSYN088AAXX  05134 06792 33/// /0000 11088 21196 38213 48443 57014 333 553// 2//// 91101 91201;
0096067920999992011010514004+46533+009883FM-12+170699999V0209999C000019999999N9999999N1-00771-01651999999ADDMA1999999082141ME1314439REMSYN060AAXX  05144 06792 43/// /0000 11077 21165 38214 48443 5////;
0148067920999992011010515004+46533+009883FM-12+170699999V0202101N002112200019N0350001N1-00891-01791999999ADDGA1011+051001001GF101991999999999999999999MA1999999082171ME1314479REMSYN070AAXX  05154 06792 42981 12104 11089 21179 38217 48447 5//// 333 81067;
0149067920999992011010516004+46533+009883FM-12+170699999V0201801N002119999999N9999999N1-01221-01951999999ADDMA1999999082241MD1310111+9999ME1314579OA149900361REMSYN088AAXX  05164 06792 33/// /1804 11122 21195 38224 48457 53011 333 55301 20061 91107 91205;
0149067920999992011010517004+46533+009883FM-12+170699999V0201901N001519999999N9999999N1-01491-02401999999ADDMA1999999082271MD1110131+9999ME1314629OA149900361REMSYN088AAXX  05174 06792 33/// /1903 11149 21240 38227 48462 51013 333 55300 20000 91107 91205;
0267067920999992011010518004+46533+009883FM-12+170699999V0209999C000012200019N0300001N1-01591-02631999999ADDAJ100309199999999AL19900091GA1011+024001001GF101991999999022501999999IA1239KA1120M-00741MA1999999082261MD1219999+9999ME1314629OA149900361REMSYN118AAXX  05184 06792 32880 10000 11159 21263 38226 48462 52/// 333 11074 47030 55300 20000 81058 90766 93100 91107 91205;
0149067920999992011010519004+46533+009883FM-12+170699999V0202001N001519999999N9999999N1-01681-02101999999ADDMA1999999082271MD1210031+9999ME1314649OA149900261REMSYN088AAXX  05194 06792 33/// /2003 11168 21210 38227 48464 52003 333 55300 20000 91105 91204;
0149067920999992011010520004+46533+009883FM-12+170699999V0202201N001519999999N9999999N1-01741-02661999999ADDMA1999999082321MD1319999+9999ME1314699OA149900411REMSYN088AAXX  05204 06792 33/// /2203 11174 21266 38232 48469 53/// 333 55300 20000 91108 91204;
0112067920999992011010521004+46533+009883FM-12+170699999V0201501N001019999999N9999999N1-01531-02321999999ADDMA1999999082321ME1314679REMSYN076AAXX  05214 06792 33/// /1502 11153 21232 38232 48467 5//// 333 553// 20000;
0149067920999992011010522004+46533+009883FM-12+170699999V0201701N001019999999N9999999N1-01751-02671999999ADDMA1999999082341MD1210071+9999ME1314719OA149900511REMSYN088AAXX  05224 06792 33/// /1702 11175 21267 38234 48471 52007 333 55300 20000 91110 91206;
0149067920999992011010523004+46533+009883FM-12+170699999V0201801N001519999999N9999999N1-01631-02491999999ADDMA1999999082371MD1219999+9999ME1314739OA149900311REMSYN088AAXX  05234 06792 33/// /1803 11163 21249 38237 48473 52/// 333 55300 20000 91106 91204;
0096067920999992011010600004+46533+009883FM-12+170699999V0201901N001519999999N9999999N1-01711-02621999999ADDMA1999999082371ME1314739REMSYN060AAXX  06004 06792 43/// /1903 11171 21262 38237 48473 5////;
0096067920999992011010601004+46533+009883FM-12+170699999V0201901N002619999999N9999999N1-01881-02641999999ADDMA1999999082331ME1314719REMSYN060AAXX  06014 06792 43/// /1905 11188 21264 38233 48471 5////;
0096067920999992011010602004+46533+009883FM-12+170699999V0200201N001019999999N9999999N1-01811-02631999999ADDMA1999999082341ME1314729REMSYN060AAXX  06024 06792 43/// /0202 11181 21263 38234 48472 5////;
0096067920999992011010603004+46533+009883FM-12+170699999V0202101N002119999999N9999999N1-01711-02411999999ADDMA1999999082351ME1314719REMSYN060AAXX  06034 06792 43/// /2104 11171 21241 38235 48471 5////;
0096067920999992011010604004+46533+009883FM-12+170699999V0201801N000519999999N9999999N1-01441-02221999999ADDMA1999999082321ME1314669REMSYN060AAXX  06044 06792 43/// /1801 11144 21222 38232 48466 5////;
0096067920999992011010605004+46533+009883FM-12+170699999V0202001N002119999999N9999999N1-00931-01561999999ADDMA1999999082311ME1314609REMSYN060AAXX  06054 06792 43/// /2004 11093 21156 38231 48460 5////;
0250067920999992011010606004+46533+009883FM-12+170699999V0201501N004110078019N0100001N1-00721-01241999999ADDAJ100309199999999AL10600091GA1071+007801071GF107991999999008001999999GJ103969IA1239IA2999-02309KA1999N-01981MA1999999082331ME1314609REMSYN106AAXX  06064 06792 42560 71508 11072 21124 38233 48460 5//// 333 21198 3/123 47030 55066 87726 90768 93100;
0096067920999992011010607004+46533+009883FM-12+170699999V0202501N002119999999N9999999N1-00851-01371999999ADDMA1999999082361ME1314649REMSYN060AAXX  06074 06792 43/// /2504 11085 21137 38236 48464 5////;
0112067920999992011010608004+46533+009883FM-12+170699999V0209999C000019999999N9999999N1-00901-01471999999ADDMA1999999082391ME1314689REMSYN076AAXX  06084 06792 33/// /0000 11090 21147 38239 48468 5//// 333 553// 20079;
0154067920999992011010609004+46533+009883FM-12+170699999V0202401N000519999999N0280001N1-00981-01441999999ADDGA1031+006901061GF107991999999008001999999MA1999999082421ME1314719REMSYN076AAXX  06094 06792 42578 72401 11098 21144 38242 48471 5//// 333 83623 87261;
0149067920999992011010610004+46533+009883FM-12+170699999V0201901N000519999999N9999999N1-00791-01311999999ADDMA1999999082411MD1210051+9999ME1314689OA149900261REMSYN088AAXX  06104 06792 33/// /1901 11079 21131 38241 48468 52005 333 55302 20670 91105 91201;
0149067920999992011010611004+46533+009883FM-12+170699999V0202201N005719999999N9999999N1-00321-00751999999ADDMA1999999082411MD1010021+9999ME1314649OA149900821REMSYN088AAXX  06114 06792 33/// /2211 11032 21075 38241 48464 50002 333 55302 20842 91116 91211;
0219067920999992011010612004+46533+009883FM-12+170699999V0202201N00461039001CN0070001N1-00281-00701999999ADDGA1031+006001061GA2071+039001021GF107991999999008001999999MA1999999082391MD1810031+9999ME1314629OA149900931REMSYN100AAXX  06124 06792 32557 72209 11028 21070 38239 48462 58003 333 55300 20637 83620 87263 91118 91213;
0149067920999992011010613004+46533+009883FM-12+170699999V0202101N004119999999N9999999N1-00281-00601999999ADDMA1999999082381MD1710031+9999ME1314619OA149900931REMSYN088AAXX  06134 06792 33/// /2108 11028 21060 38238 48461 57003 333 55300 20446 91118 91213;
0096067920999992011010614004+46533+009883FM-12+170699999V0202101N005119999999N9999999N1-00171-00511999999ADDMA1999999082351ME1314579REMSYN060AAXX  06144 06792 43/// /2110 11017 21051 38235 48457 5////;
0096067920999992011010615004+46533+009883FM-12+170699999V0202001N001519999999N9999999N1-00151-00391999999ADDMA1999999082361ME1314589REMSYN060AAXX  06154 06792 43/// /2003 11015 21039 38236 48458 5////;
0149067920999992011010616004+46533+009883FM-12+170699999V0201801N002619999999N9999999N1-00111-00401999999ADDMA1999999082371MD1510011+9999ME1314589OA149900461REMSYN088AAXX  06164 06792 33/// /1805 11011 21040 38237 48458 55001 333 55300 20018 91109 91206;
0149067920999992011010617004+46533+009883FM-12+170699999V0201901N001519999999N9999999N1-00101-00441999999ADDMA1999999082371MD1010021+9999ME1314589OA149900411REMSYN088AAXX  06174 06792 33/// /1903 11010 21044 38237 48458 50002 333 55300 20000 91108 91207;
0308067920999992011010618004+46533+009883FM-12+170699999V0201901N00211012901CN0200001N1+00021-00391999999ADDAJ100309199999999AL19900091GA1041+006901071GA2061+012901041GF108991999999008001999999IA1239KA1120M+99999MA1999999082371MD1010011+9999ME1314579OA149900931REMSYN124AAXX  06184 06792 32570 81904 10002 21039 38237 48457 50001 333 11009 47030 55300 20000 84723 86443 90766 93100 91118 91213;EQDQ01 -00092ATMX  
0149067920999992011010619004+46533+009883FM-12+170699999V0202201N003619999999N9999999N1-00051-00321999999ADDMA1999999082401MD1310031+9999ME1314619OA149900571REMSYN088AAXX  06194 06792 33/// /2207 11005 21032 38240 48461 53003 333 55300 20000 91111 91207;
0149067920999992011010620004+46533+009883FM-12+170699999V0202101N001519999999N9999999N1+00041-00311999999ADDMA1999999082451MD1219999+9999ME1314659OA149900571REMSYN088AAXX  06204 06792 33/// /2103 10004 21031 38245 48465 52/// 333 55300 20000 91111 91207;
0149067920999992011010621004+46533+009883FM-12+170699999V0202101N002619999999N9999999N1+00021-00261999999ADDMA1999999082481MD1219999+9999ME1314689OA149900571REMSYN088AAXX  06214 06792 33/// /2105 10002 21026 38248 48468 52/// 333 55300 20000 91111 91207;
0149067920999992011010622004+46533+009883FM-12+170699999V0201701N001519999999N9999999N1+00041-00271999999ADDMA1999999082501MD1210101+9999ME1314709OA149900571REMSYN088AAXX  06224 06792 33/// /1703 10004 21027 38250 48470 52010 333 55300 20000 91111 91206;
0112067920999992011010623004+46533+009883FM-12+170699999V0202101N002619999999N9999999N1+00031-00251999999ADDMA1999999082541ME1314749REMSYN076AAXX  06234 06792 33/// /2105 10003 21025 38254 48474 5//// 333 553// 20000;
0096067920999992011010700004+46533+009883FM-12+170699999V0201901N002619999999N9999999N1+00021-00251999999ADDMA1999999082561ME1314769REMSYN060AAXX  07004 06792 43/// /1905 10002 21025 38256 48476 5////;
0096067920999992011010701004+46533+009883FM-12+170699999V0201701N003119999999N9999999N1+00061-00221999999ADDMA1999999082591ME1314789REMSYN060AAXX  07014 06792 43/// /1706 10006 21022 38259 48478 5////;
0096067920999992011010702004+46533+009883FM-12+170699999V0201701N004119999999N9999999N1+00051-00221999999ADDMA1999999082611ME1314809REMSYN060AAXX  07024 06792 43/// /1708 10005 21022 38261 48480 5////;
0096067920999992011010703004+46533+009883FM-12+170699999V0201901N004119999999N9999999N1+00071-00201999999ADDMA1999999082651ME1314849REMSYN060AAXX  07034 06792 43/// /1908 10007 21020 38265 48484 5////;
0149067920999992011010704004+46533+009883FM-12+170699999V0201601N004119999999N9999999N1+00071-00181999999ADDMA1999999082631MD1210041+9999ME1314829OA149900721REMSYN088AAXX  07044 06792 33/// /1608 10007 21018 38263 48482 52004 333 55300 20000 91114 91209;
0149067920999992011010705004+46533+009883FM-12+170699999V0201701N003619999999N9999999N1+00101-00171999999ADDMA1999999082641MD1010031+9999ME1314839OA149900721REMSYN088AAXX  07054 06792 33/// /1707 10010 21017 38264 48483 50003 333 55300 20000 91114 91209;
0216067920999992011010706004+46533+009883FM-12+170699999V0201601N002619999999N9999999N1+00121-00151999999ADDAL19900091GJ100249IA2999-00209KA1999N-00091MA1999999082681MD1310031+9999ME1314879OA149900721REMSYN112AAXX  07064 06792 33/// /1605 10012 21015 38268 48487 53003 333 21009 3/102 55004 55300 20000 70000 91114 91209;
0149067920999992011010707004+46533+009883FM-12+170699999V0202001N004119999999N9999999N1+00161-00131999999ADDMA1999999082721MD1210091+9999ME1314909OA149900511REMSYN088AAXX  07074 06792 33/// /2008 10016 21013 38272 48490 52009 333 55300 20000 91110 91208;
0112067920999992011010708004+46533+009883FM-12+170699999V0201701N004119999999N9999999N1+00181-00101999999ADDMA1999999082781ME1314969REMSYN076AAXX  07084 06792 33/// /1708 10018 21010 38278 48496 5//// 333 553// 20061;
0154067920999992011010709004+46533+009883FM-12+170699999V0202001N004119999999N0070001N1+00261-00091999999ADDGA1031+004801061GF107991999999004501999999MA1999999082781ME1314959REMSYN076AAXX  07094 06792 42457 72008 10026 21009 38278 48495 5//// 333 83616 87756;
0149067920999992011010710004+46533+009883FM-12+170699999V0202501N004119999999N9999999N1+00231-00101999999ADDMA1999999082831MD1110111+9999ME1315009OA149900821REMSYN088AAXX  07104 06792 33/// /2508 10023 21010 38283 48500 51011 333 55300 20302 91116 91209;
0149067920999992011010711004+46533+009883FM-12+170699999V0202301N001019999999N9999999N1+00291-00051999999ADDMA1999999082811MD1010031+9999ME1314989OA149900821REMSYN088AAXX  07114 06792 33/// /2302 10029 21005 38281 48498 50003 333 55300 20486 91116 91209;
0219067920999992011010712004+46533+009883FM-12+170699999V0202101N00511015001CN0070001N1+00321-00031999999ADDGA1021+006001061GA2051+015001061GF107991999999008001999999MA1999999082741MD1810041+9999ME1314919OA149900821REMSYN100AAXX  07124 06792 32557 72110 10032 21003 38274 48491 58004 333 55300 20623 82620 85650 91116 91210;
0149067920999992011010713004+46533+009883FM-12+170699999V0201901N006219999999N9999999N1+00271-00021999999ADDMA1999999082751MD1710081+9999ME1314929OA149900931REMSYN088AAXX  07134 06792 33/// /1912 10027 21002 38275 48492 57008 333 55300 20684 91118 91213;
0096067920999992011010714004+46533+009883FM-12+170699999V0202101N006219999999N9999999N1+00251-00011999999ADDMA1999999082771ME1314949REMSYN060AAXX  07144 06792 43/// /2112 10025 21001 38277 48494 5////;
0176067920999992011010715004+46533+009883FM-12+170699999V0202201N004610150019N0050001N1+00231+00001999999ADDAY151031AY221031GA1071+015001061GF107991999999017501999999MA1999999082771ME1314949MW1501REMSYN076AAXX  07154 06792 41750 72209 10023 20000 38277 48494 5//// 75052 333 87650;
0149067920999992011010716004+46533+009883FM-12+170699999V0201901N001519999999N9999999N1+00261-00021999999ADDMA1999999082841MD1210091+9999ME1315019OA149900821REMSYN088AAXX  07164 06792 33/// /1903 10026 21002 38284 48501 52009 333 55300 20032 91116 91210;
0149067920999992011010717004+46533+009883FM-12+170699999V0201301N002619999999N9999999N1+00221-00031999999ADDMA1999999082851MD1210081+9999ME1315029OA149900571REMSYN088AAXX  07174 06792 33/// /1305 10022 21003 38285 48502 52008 333 55300 20000 91111 91208;
0131067920999992011010718004+46533+009883FM-12+170699999V0201701N001519999999N9999999N1+00221-00031999999ADDKA1120M+00331MA1999999082861ME1315039REMSYN082AAXX  07184 06792 33/// /1703 10022 21003 38286 48503 5//// 333 10033 553// 20000;
0149067920999992011010719004+46533+009883FM-12+170699999V0202301N002619999999N9999999N1+00201-00031999999ADDMA1999999082861MD1219999+9999ME1315049OA149900721REMSYN088AAXX  07194 06792 33/// /2305 10020 21003 38286 48504 52/// 333 55300 20000 91114 91209;
0096067920999992011010720004+46533+009883FM-12+170699999V0201601N002119999999N9999999N1+00191-00021999999ADDMA1999999082871ME1315059REMSYN060AAXX  07204 06792 43/// /1604 10019 21002 38287 48505 5////;
0096067920999992011010721004+46533+009883FM-12+170699999V0201801N003619999999N9999999N1+00181-00011999999ADDMA1999999082851ME1315039REMSYN060AAXX  07214 06792 43/// /1807 10018 21001 38285 48503 5////;
0149067920999992011010722004+46533+009883FM-12+170699999V0201901N003619999999N9999999N1+00211-00021999999ADDMA1999999082831MD1710031+9999ME1315009OA149900671REMSYN088AAXX  07224 06792 33/// /1907 10021 21002 38283 48500 57003 333 55300 20000 91113 91211;
0112067920999992011010723004+46533+009883FM-12+170699999V0201701N005719999999N9999999N1+00251-00021999999ADDMA1999999082821ME1314999REMSYN076AAXX  07234 06792 33/// /1711 10025 21002 38282 48499 5//// 333 553// 20000;
0112067920999992011010800004+46533+009883FM-12+170699999V0201801N005119999999N9999999N1+00211+00001999999ADDMA1999999082801ME1314989REMSYN076AAXX  08004 06792 33/// /1810 10021 20000 38280 48498 5//// 333 553// 20000;
0096067920999992011010801004+46533+009883FM-12+170699999V0201801N005719999999N9999999N1+00201-00021999999ADDMA1999999082801ME1314989REMSYN060AAXX  08014 06792 43/// /1811 10020 21002 38280 48498 5////;
0096067920999992011010802004+46533+009883FM-12+170699999V0201601N003119999999N9999999N1+00221-00041999999ADDMA1999999082781ME1314969REMSYN060AAXX  08024 06792 43/// /1606 10022 21004 38278 48496 5////;
0096067920999992011010803004+46533+009883FM-12+170699999V0201901N004119999999N9999999N1+00151-00031999999ADDMA1999999082771ME1314959REMSYN060AAXX  08034 06792 43/// /1908 10015 21003 38277 48495 5////;
0096067920999992011010804004+46533+009883FM-12+170699999V0201801N002619999999N9999999N1+00161-00041999999ADDMA1999999082751ME1314939REMSYN060AAXX  08044 06792 43/// /1805 10016 21004 38275 48493 5////;
0096067920999992011010805004+46533+009883FM-12+170699999V0202101N003619999999N9999999N1+00131-00041999999ADDMA1999999082741ME1314929REMSYN060AAXX  08054 06792 43/// /2107 10013 21004 38274 48492 5////;
0278067920999992011010806004+46533+009883FM-12+170699999V0201501N002110060019N0080001N1+00141-00041999999ADDAJ100289199999999AL10600191AY171061AY221061GA1081+006001051GF108991999999008001999999GJ100129IA1239IA2999+00009KA1999N+00131MA1999999082711ME1314899MW1701REMSYN112AAXX  08064 06792 41558 81504 10014 21004 38271 48489 5//// 77072 333 20013 3/000 47028 55002 88520 90768 93101;
0096067920999992011010807004+46533+009883FM-12+170699999V0202101N000519999999N9999999N1+00111-00071999999ADDMA1999999082741ME1314929REMSYN060AAXX  08074 06792 43/// /2101 10011 21007 38274 48492 5////;
0118067920999992011010808004+46533+009883FM-12+170699999V0201701N002619999999N9999999N1+00151-00091999999ADDMA1999999082771ME1314959REMSYN082AAXX  08084 06792 23/// /1705 10015 21009 38277 48495 5//// 333 553// 20032 69915;
0096067920999992011010809004+46533+009883FM-12+170699999V0201901N002619999999N9999999N1+00161-00111999999ADDMA1999999082781ME1314969REMSYN060AAXX  08094 06792 43/// /1905 10016 21011 38278 48496 5////;
0096067920999992011010810004+46533+009883FM-12+170699999V0202001N003119999999N9999999N1+00211-00081999999ADDMA1999999082801ME1314989REMSYN060AAXX  08104 06792 43/// /2006 10021 21008 38280 48498 5////;
0096067920999992011010811004+46533+009883FM-12+170699999V0202101N005119999999N9999999N1+00231-00101999999ADDMA1999999082781ME1314959REMSYN060AAXX  08114 06792 43/// /2110 10023 21010 38278 48495 5////;
0148067920999992011010812004+46533+009883FM-12+170699999V0202001N005110108019N0070001N1+00281-00081999999ADDGA1071+010801061GF107991999999012501999999MA1999999082741ME1314919REMSYN070AAXX  08124 06792 42657 72010 10028 21008 38274 48491 5//// 333 87636;
0096067920999992011010813004+46533+009883FM-12+170699999V0202401N006219999999N9999999N1+00251-00091999999ADDMA1999999082731ME1314909REMSYN060AAXX  08134 06792 43/// /2412 10025 21009 38273 48490 5////;
0096067920999992011010814004+46533+009883FM-12+170699999V0202501N005119999999N9999999N1+00261-00121999999ADDMA1999999082731ME1314909REMSYN060AAXX  08144 06792 43/// /2510 10026 21012 38273 48490 5////;
0096067920999992011010815004+46533+009883FM-12+170699999V0202101N004119999999N9999999N1+00231-00131999999ADDMA1999999082791ME1314969REMSYN060AAXX  08154 06792 43/// /2108 10023 21013 38279 48496 5////;
0096067920999992011010816004+46533+009883FM-12+170699999V0202301N005119999999N9999999N1+00171-00121999999ADDMA1999999082831ME1315019REMSYN060AAXX  08164 06792 43/// /2310 10017 21012 38283 48501 5////;
0096067920999992011010817004+46533+009883FM-12+170699999V0202201N003119999999N9999999N1+00121-00151999999ADDMA1999999082851ME1315039REMSYN060AAXX  08174 06792 43/// /2206 10012 21015 38285 48503 5////;
0096067920999992011010818004+46533+009883FM-12+170699999V0201601N002119999999N9999999N1+00141-00161999999ADDMA1999999082881ME1315069REMSYN060AAXX  08184 06792 43/// /1604 10014 21016 38288 48506 5////;
0096067920999992011010819004+46533+009883FM-12+170699999V0201601N003119999999N9999999N1+00161-00201999999ADDMA1999999082841ME1315029REMSYN060AAXX  08194 06792 43/// /1606 10016 21020 38284 48502 5////;
0096067920999992011010820004+46533+009883FM-12+170699999V0201201N001019999999N9999999N1+00051-00331999999ADDMA1999999082861ME1315059REMSYN060AAXX  08204 06792 43/// /1202 10005 21033 38286 48505 5////;
0096067920999992011010821004+46533+009883FM-12+170699999V0201801N001519999999N9999999N1-00041-00241999999ADDMA1999999082841ME1315039REMSYN060AAXX  08214 06792 43/// /1803 11004 21024 38284 48503 5////;
0096067920999992011010822004+46533+009883FM-12+170699999V0201801N001519999999N9999999N1+00031-00211999999ADDMA1999999082851ME1315049REMSYN060AAXX  08224 06792 43/// /1803 10003 21021 38285 48504 5////;
0096067920999992011010823004+46533+009883FM-12+170699999V0201601N001019999999N9999999N1-00121-00371999999ADDMA1999999082821ME1315029REMSYN060AAXX  08234 06792 43/// /1602 11012 21037 38282 48502 5////;
0096067920999992011010900004+46533+009883FM-12+170699999V0200501N001019999999N9999999N1-00031-00281999999ADDMA1999999082851ME1315049REMSYN060AAXX  09004 06792 43/// /0502 11003 21028 38285 48504 5////;
0096067920999992011010901004+46533+009883FM-12+170699999V0209999C000019999999N9999999N1+00071-00161999999ADDMA1999999082851ME1315049REMSYN060AAXX  09014 06792 43/// /0000 10007 21016 38285 48504 5////;
0096067920999992011010902004+46533+009883FM-12+170699999V0201701N002119999999N9999999N1+00091-00231999999ADDMA1999999082851ME1315039REMSYN060AAXX  09024 06792 43/// /1704 10009 21023 38285 48503 5////;
0096067920999992011010903004+46533+009883FM-12+170699999V0201801N002119999999N9999999N1-00101-00351999999ADDMA1999999082811ME1315019REMSYN060AAXX  09034 06792 43/// /1804 11010 21035 38281 48501 5////;
0096067920999992011010904004+46533+009883FM-12+170699999V0202101N000519999999N9999999N1-00101-00361999999ADDMA1999999082771ME1314979REMSYN060AAXX  09044 06792 43/// /2101 11010 21036 38277 48497 5////;
0096067920999992011010905004+46533+009883FM-12+170699999V0202701N001019999999N9999999N1-00181-00331999999ADDMA1999999082751ME1314969REMSYN060AAXX  09054 06792 43/// /2702 11018 21033 38275 48496 5////;
0106067920999992011010906004+46533+009883FM-12+170699999V0203401N000519999999N9999999N1-00131-00331999999ADDMA1999999082751ME1314959REMSYN070AAXX  09064 06792 43/// /3401 11013 21033 38275 48495 5//// 333 55016;
0096067920999992011010907004+46533+009883FM-12+170699999V0202601N001019999999N9999999N1-00041-00271999999ADDMA1999999082761ME1314969REMSYN060AAXX  09074 06792 43/// /2602 11004 21027 38276 48496 5////;
0112067920999992011010908004+46533+009883FM-12+170699999V0202101N002119999999N9999999N1+00111-00181999999ADDMA1999999082781ME1314969REMSYN076AAXX  09084 06792 33/// /2104 10011 21018 38278 48496 5//// 333 553// 20115;
0166067920999992011010909004+46533+009883FM-12+170699999V0201801N001019999999N0130001N1+00151-00191999999ADDGA1031+006001061GF107991999999008001999999MA1999999082771ME1314959REMSYN088AAXX  09094 06792 32563 71802 10015 21019 38277 48495 5//// 333 553// 20349 83620 86656;
0149067920999992011010910004+46533+009883FM-12+170699999V0202101N002119999999N9999999N1+00211-00161999999ADDMA1999999082791MD1210031+9999ME1314979OA149900511REMSYN088AAXX  09104 06792 33/// /2104 10021 21016 38279 48497 52003 333 55301 20641 91110 91204;
0149067920999992011010911004+46533+009883FM-12+170699999V0202301N004619999999N9999999N1+00231-00181999999ADDMA1999999082741MD1810041+9999ME1314919OA149900881REMSYN088AAXX  09114 06792 33/// /2309 10023 21018 38274 48491 58004 333 55303 20968 91117 91211;
0149067920999992011010912004+46533+009883FM-12+170699999V0201901N006219999999N9999999N1+00251-00161999999ADDMA1999999082691MD1710081+9999ME1314869OA149900881REMSYN088AAXX  09124 06792 33/// /1912 10025 21016 38269 48486 57008 333 55303 2//// 91117 91212;
0149067920999992011010913004+46533+009883FM-12+170699999V0202001N005719999999N9999999N1+00201-00121999999ADDMA1999999082671MD1710121+9999ME1314859OA149901031REMSYN088AAXX  09134 06792 33/// /2011 10020 21012 38267 48485 57012 333 55302 20850 91120 91212;
0096067920999992011010914004+46533+009883FM-12+170699999V0201901N003619999999N9999999N1+00171-00121999999ADDMA1999999082661ME1314849REMSYN060AAXX  09144 06792 43/// /1907 10017 21012 38266 48484 5////;
0154067920999992011010915004+46533+009883FM-12+170699999V0201401N003110099019N0090001N1+00191-00171999999ADDGA1061+009901061GF108991999999008001999999MA1999999082651ME1314839REMSYN076AAXX  09154 06792 42559 81406 10019 21017 38265 48483 5//// 333 86633 88460;
0168067920999992011010916004+46533+009883FM-12+170699999V0201801N002619999999N9999999N1+00151-00141999999ADDMA1999999082671MD1410001+9999ME1314859OA149900771REMSYN088AAXX  09164 06792 33/// /1805 10015 21014 38267 48485 52000 333 55300 20036 91115 91210;EQDQ01+000022APCTEN
0149067920999992011010917004+46533+009883FM-12+170699999V0201801N002119999999N9999999N1+00141-00101999999ADDMA1999999082681MD1210021+9999ME1314869OA149900621REMSYN088AAXX  09174 06792 33/// /1804 10014 21010 38268 48486 52002 333 55300 20000 91112 91207;
0267067920999992011010918004+46533+009883FM-12+170699999V0201901N00211010801CN0100001N1+00141-00101999999ADDAJ100259199999999AL19900091GA1071+010801061GF107991999999012501999999IA1279KA1120M+00281MA1999999082681MD1210031+9999ME1314869OA149901031REMSYN118AAXX  09184 06792 32660 71904 10014 21010 38268 48486 52003 333 10028 43025 55300 20000 87636 90766 93100 91120 91212;
0149067920999992011010919004+46533+009883FM-12+170699999V0201101N000519999999N9999999N1+00091-00041999999ADDMA1999999082671MD1510001+9999ME1314869OA149900511REMSYN088AAXX  09194 06792 33/// /1101 10009 21004 38267 48486 55000 333 55300 20000 91110 91205;
0174067920999992011010920004+46533+009883FM-12+170699999V0201801N002119999999N9999999N1+00091-00051999999ADDMA1999999082681MD1410001+9999ME1314879OA149900411REMSYN094AAXX  09204 06792 23/// /1804 10009 21005 38268 48487 52000 333 55300 20000 69935 91108 91204;EQDQ01+000022APCTEN
0155067920999992011010921004+46533+009883FM-12+170699999V0202101N003119999999N9999999N1+00111-00121999999ADDMA1999999082671MD1810011+9999ME1314869OA149900621REMSYN094AAXX  09214 06792 23/// /2106 10011 21012 38267 48486 58001 333 55300 20000 69915 91112 91207;
0155067920999992011010922004+46533+009883FM-12+170699999V0201801N002619999999N9999999N1+00101-00091999999ADDMA1999999082671MD1010001+9999ME1314869OA149900461REMSYN094AAXX  09224 06792 23/// /1805 10010 21009 38267 48486 50000 333 55300 20000 69915 91109 91207;
0155067920999992011010923004+46533+009883FM-12+170699999V0202001N002119999999N9999999N1+00111-00051999999ADDMA1999999082651MD1710031+9999ME1314849OA149900461REMSYN094AAXX  09234 06792 23/// /2004 10011 21005 38265 48484 57003 333 55300 20000 69945 91109 91207;
0172067920999992011011000004+46533+009883FM-12+170699999V0202101N001519999999N9999999N1+00081-00011999999ADDAA106003091MA1999999082641MD1710031+9999ME1314839OA149901031REMSYN100AAXX  10004 06792 03/// /2103 10008 21001 38264 48483 57003 60031 333 55300 20000 60025 91120 91212;
0155067920999992011011001004+46533+009883FM-12+170699999V0201901N002119999999N9999999N1+00081-00091999999ADDMA1999999082641MD1710031+9999ME1314839OA149900511REMSYN094AAXX  10014 06792 23/// /1904 10008 21009 38264 48483 57003 333 55300 20000 69955 91110 91206;
0118067920999992011011002004+46533+009883FM-12+170699999V0201701N001519999999N9999999N1+00081-00101999999ADDMA1999999082641ME1314839REMSYN082AAXX  10024 06792 23/// /1703 10008 21010 38264 48483 5//// 333 553// 20000 69915;
0096067920999992011011003004+46533+009883FM-12+170699999V0202501N001019999999N9999999N1+00051-00081999999ADDMA1999999082631ME1314829REMSYN060AAXX  10034 06792 43/// /2502 10005 21008 38263 48482 5////;
0118067920999992011011004004+46533+009883FM-12+170699999V0201801N000519999999N9999999N1+00041-00071999999ADDMA1999999082621ME1314819REMSYN082AAXX  10044 06792 23/// /1801 10004 21007 38262 48481 5//// 333 553// 20000 69955;
0155067920999992011011005004+46533+009883FM-12+170699999V0201801N001019999999N9999999N1+00041-00091999999ADDMA1999999082621MD1719999+9999ME1314819OA149900151REMSYN094AAXX  10054 06792 23/// /1802 10004 21009 38262 48481 57/// 333 55300 20000 60015 91103 91202;
0168067920999992011011006004+46533+009883FM-12+170699999V0201601N000519999999N9999999N1+00031-00101999999ADDAA124005891GJ100489IA2999-00109KA1999N-00021MA1999999082621ME1314819REMSYN088AAXX  10064 06792 43/// /1601 10003 21010 38262 48481 5//// 333 21002 3/101 55008 70059;
0155067920999992011011007004+46533+009883FM-12+170699999V0202001N000519999999N9999999N1+00001-00131999999ADDMA1999999082631MD1210011+9999ME1314839OA149900211REMSYN094AAXX  10074 06792 23/// /2001 10000 21013 38263 48483 52001 333 55300 20000 69925 91104 91202;
0096067920999992011011008004+46533+009883FM-12+170699999V0209999C000019999999N9999999N1-00011-00101999999ADDMA1999999082661ME1314869REMSYN060AAXX  10084 06792 43/// /0000 11001 21010 38266 48486 5////;
0182067920999992011011009004+46533+009883FM-12+170699999V0209999C000019999999N0040001N1-00011-00101999999ADDAY171031AY271031GA1041+003901071GF108991999999004501999999MA1999999082661ME1314869MW1711REMSYN082AAXX  10094 06792 41440 80000 11001 21010 38266 48486 5//// 77177 333 84713 88543;
0155067920999992011011010004+46533+009883FM-12+170699999V0209999C000019999999N9999999N1+00021-00081999999ADDMA1999999082681MD1210051+9999ME1314879OA149900051REMSYN094AAXX  10104 06792 23/// /0000 10002 21008 38268 48487 52005 333 55300 20281 69915 91101 91201;
0155067920999992011011011004+46533+009883FM-12+170699999V0200701N000519999999N9999999N1+00021-00071999999ADDMA1999999082661MD1019999+9999ME1314859OA149900101REMSYN094AAXX  10114 06792 23/// /0701 10002 21007 38266 48485 50/// 333 55300 20349 69925 91102 91201;
0135067920999992011011012004+46533+009883FM-12+170699999V0200301N001019999999N9999999N1+00041-00051999999ADDAA106001091MA1999999082611ME1314809REMSYN088AAXX  10124 06792 03/// /0302 10004 21005 38261 48480 5//// 60011 333 553// 20544 69915;
0096067920999992011011013004+46533+009883FM-12+170699999V0200301N001019999999N9999999N1+00081-00041999999ADDMA1999999082571ME1314769REMSYN060AAXX  10134 06792 43/// /0302 10008 21004 38257 48476 5////;
0096067920999992011011014004+46533+009883FM-12+170699999V0200101N001519999999N9999999N1+00071-00041999999ADDMA1999999082541ME1314739REMSYN060AAXX  10144 06792 43/// /0103 10007 21004 38254 48473 5////;
0182067920999992011011015004+46533+009883FM-12+170699999V0200201N002619999999N0080001N1+00061-00081999999ADDAY171031AY271031GA1031+002401071GF108991999999002501999999MA1999999082561ME1314759MW1261REMSYN082AAXX  10154 06792 41358 80205 10006 21008 38256 48475 5//// 72677 333 83708 88435;
0096067920999992011011016004+46533+009883FM-12+170699999V0200201N002119999999N9999999N1+00011-00091999999ADDMA1999999082561ME1314769REMSYN060AAXX  10164 06792 43/// /0204 10001 21009 38256 48476 5////;
0096067920999992011011017004+46533+009883FM-12+170699999V0200101N002119999999N9999999N1-00011-00111999999ADDMA1999999082551ME1314759REMSYN060AAXX  10174 06792 43/// /0104 11001 21011 38255 48475 5////;
0268067920999992011011018004+46533+009883FM-12+170699999V0200201N002110048019N0050001N1-00041-00121999999ADDAJ100359199999999AL10600191AY171061AY251061GA1021+003001071GA2081+004801051GF108991999999004501999999IA1279KA1120M+00081MA1999999082561ME1314769MW1681REMSYN106AAXX  10184 06792 41450 80204 11004 21012 38256 48476 5//// 76875 333 10008 43035 82710 88516 90766 93101;
0096067920999992011011019004+46533+009883FM-12+170699999V0200301N001019999999N9999999N1-00081-00161999999ADDMA1999999082541ME1314759REMSYN060AAXX  10194 06792 43/// /0302 11008 21016 38254 48475 5////;
0096067920999992011011020004+46533+009883FM-12+170699999V0200201N001519999999N9999999N1-00071-00151999999ADDMA1999999082511ME1314729REMSYN060AAXX  10204 06792 43/// /0203 11007 21015 38251 48472 5////;
0096067920999992011011021004+46533+009883FM-12+170699999V0200301N001019999999N9999999N1-00081-00161999999ADDMA1999999082511ME1314729REMSYN060AAXX  10214 06792 43/// /0302 11008 21016 38251 48472 5////;
0096067920999992011011022004+46533+009883FM-12+170699999V0209999C000019999999N9999999N1-00111-00181999999ADDMA1999999082501ME1314719REMSYN060AAXX  10224 06792 43/// /0000 11011 21018 38250 48471 5////;
0096067920999992011011023004+46533+009883FM-12+170699999V0200501N000519999999N9999999N1-00091-00171999999ADDMA1999999082471ME1314689REMSYN060AAXX  10234 06792 43/// /0501 11009 21017 38247 48468 5////;
0096067920999992011011100004+46533+009883FM-12+170699999V0201201N000519999999N9999999N1-00151-00221999999ADDMA1999999082441ME1314659REMSYN060AAXX  11004 06792 43/// /1201 11015 21022 38244 48465 5////;
0096067920999992011011101004+46533+009883FM-12+170699999V0200201N001019999999N9999999N1-00221-00271999999ADDMA1999999082401ME1314629REMSYN060AAXX  11014 06792 43/// /0202 11022 21027 38240 48462 5////;
0096067920999992011011102004+46533+009883FM-12+170699999V0200801N000519999999N9999999N1-00231-00271999999ADDMA1999999082371ME1314599REMSYN060AAXX  11024 06792 43/// /0801 11023 21027 38237 48459 5////;
0096067920999992011011103004+46533+009883FM-12+170699999V0203601N000519999999N9999999N1-00291-00361999999ADDMA1999999082331ME1314569REMSYN060AAXX  11034 06792 43/// /3601 11029 21036 38233 48456 5////;
0096067920999992011011104004+46533+009883FM-12+170699999V0209999C000019999999N9999999N1-00261-00321999999ADDMA1999999082311ME1314549REMSYN060AAXX  11044 06792 43/// /0000 11026 21032 38231 48454 5////;
0096067920999992011011105004+46533+009883FM-12+170699999V0209999C000019999999N9999999N1-00331-00411999999ADDMA1999999082281ME1314529REMSYN060AAXX  11054 06792 43/// /0000 11033 21041 38228 48452 5////;
0258067920999992011011106004+46533+009883FM-12+170699999V0209999C000010090019N0100001N1-00281-00351999999ADDAA124002591AJ100379199999999AL13000291AY171061AY221061GA1071+009001071GF107991999999008001999999GJ100009IA1239MA1999999082261ME1314499MW1021REMSYN106AAXX  11064 06792 41560 70000 11028 21035 38226 48449 5//// 70272 333 47037 55000 70025 87730 90768 93102;
0149067920999992011011107004+46533+009883FM-12+170699999V0209999C000019999999N9999999N1-00261-00331999999ADDMA1999999082251MD1619999+9999ME1314489OA149900101REMSYN088AAXX  11074 06792 33/// /0000 11026 21033 38225 48448 56/// 333 55300 20000 91102 91201;
0112067920999992011011108004+46533+009883FM-12+170699999V0201801N001019999999N9999999N1-00161-00291999999ADDMA1999999082251ME1314479REMSYN076AAXX  11084 06792 33/// /1802 11016 21029 38225 48447 5//// 333 553// 20040;
0096067920999992011011109004+46533+009883FM-12+170699999V0202201N000519999999N9999999N1-00211-00311999999ADDMA1999999082241ME1314479REMSYN060AAXX  11094 06792 43/// /2201 11021 21031 38224 48447 5////;
0155067920999992011011110004+46533+009883FM-12+170699999V0201701N000519999999N9999999N1-00091-00261999999ADDMA1999999082221MD1710031+9999ME1314439OA149900151REMSYN094AAXX  11104 06792 23/// /1701 11009 21026 38222 48443 57003 333 55301 20587 69915 91103 91201;
0149067920999992011011111004+46533+009883FM-12+170699999V0202501N001019999999N9999999N1-00111-00321999999ADDMA1999999082171MD1710081+9999ME1314399OA149900151REMSYN088AAXX  11114 06792 33/// /2502 11011 21032 38217 48439 57008 333 55300 20641 91103 91202;
0217067920999992011011112004+46533+009883FM-12+170699999V0201401N001019999999N0090001N1+00071-00301999999ADDAA106000391AY171061AY271061GA1021+002401061GF107991999999002501999999MA1999999082091ME1314299MW1221REMSYN106AAXX  11124 06792 01359 71402 10007 21030 38209 48429 5//// 69931 72277 333 553// 20680 60005 82608 87716;
0149067920999992011011113004+46533+009883FM-12+170699999V0201601N002119999999N9999999N1+00081-00241999999ADDMA1999999082031MD1810191+9999ME1314239OA149900361REMSYN088AAXX  11134 06792 33/// /1604 10008 21024 38203 48423 58019 333 55300 20698 91107 91205;
0096067920999992011011114004+46533+009883FM-12+170699999V0201501N001519999999N9999999N1-00021-00291999999ADDMA1999999081981ME1314199REMSYN060AAXX  11144 06792 43/// /1503 11002 21029 38198 48419 5////;
0154067920999992011011115004+46533+009883FM-12+170699999V0201501N001519999999N0170001N1-00011-00331999999ADDGA1021+000901061GF107991999999000751999999MA1999999081991ME1314209REMSYN076AAXX  11154 06792 42167 71503 11001 21033 38199 48420 5//// 333 82603 87720;
0149067920999992011011116004+46533+009883FM-12+170699999V0202001N002619999999N9999999N1-00121-00371999999ADDMA1999999082011MD1510021+9999ME1314239OA149900511REMSYN088AAXX  11164 06792 33/// /2005 11012 21037 38201 48423 55002 333 55300 20076 91110 91206;
0149067920999992011011117004+46533+009883FM-12+170699999V0201601N003119999999N9999999N1-00111-00351999999ADDMA1999999082041MD1210061+9999ME1314269OA149900621REMSYN088AAXX  11174 06792 33/// /1606 11011 21035 38204 48426 52006 333 55300 20000 91112 91206;
0290067920999992011011118004+46533+009883FM-12+170699999V0201901N00211006001CN0200001N1-00211-00401999999ADDAA112000391AJ100369199999999AL19900091GA1061+006001061GF106991999999008001999999IA1239KA1120M+00081MA1999999082101MD1310111+9999ME1314339OA149900621REMSYN130AAXX  11184 06792 02570 61904 11021 21040 38210 48433 53011 69932 333 10008 47036 55300 20000 60005 86620 90766 93100 91112 91206;
0149067920999992011011119004+46533+009883FM-12+170699999V0202401N000519999999N9999999N1-00351-00491999999ADDMA1999999082141MD1310131+9999ME1314389OA149900411REMSYN088AAXX  11194 06792 33/// /2401 11035 21049 38214 48438 53013 333 55300 20000 91108 91205;
0149067920999992011011120004+46533+009883FM-12+170699999V0201801N001019999999N9999999N1-00381-00531999999ADDMA1999999082181MD1110141+9999ME1314429OA149900311REMSYN088AAXX  11204 06792 33/// /1802 11038 21053 38218 48442 51014 333 55300 20000 91106 91204;
0149067920999992011011121004+46533+009883FM-12+170699999V0200201N000519999999N9999999N1-00321-00481999999ADDMA1999999082251MD1310151+9999ME1314499OA149900621REMSYN088AAXX  11214 06792 33/// /0201 11032 21048 38225 48449 53015 333 55300 20000 91112 91206;
0155067920999992011011122004+46533+009883FM-12+170699999V0202001N001519999999N9999999N1-00311-00471999999ADDMA1999999082301MD1310161+9999ME1314539OA149900211REMSYN094AAXX  11224 06792 23/// /2003 11031 21047 38230 48453 53016 333 55300 20000 69915 91104 91203;
0149067920999992011011123004+46533+009883FM-12+170699999V0201001N000519999999N9999999N1-00331-00461999999ADDMA1999999082371MD1310191+9999ME1314609OA149900211REMSYN088AAXX  11234 06792 33/// /1001 11033 21046 38237 48460 53019 333 55300 20000 91104 91203;
0191067920999992011011200004+46533+009883FM-12+170699999V0201301N000519999999N9999999N1-00511-00631999999ADDAA106000091MA1999999082401MD1210151+9999ME1314659OA149900621REMSYN100AAXX  12004 06792 03/// /1301 11051 21063 38240 48465 52015 69911 333 55300 20000 60005 91112 91206;EQDQ01  00002PRCP06
0149067920999992011011201004+46533+009883FM-12+170699999V0202201N000519999999N9999999N1-00461-00571999999ADDMA1999999082431MD1210131+9999ME1314679OA149900211REMSYN088AAXX  12014 06792 33/// /2201 11046 21057 38243 48467 52013 333 55300 20000 91104 91202;
0112067920999992011011202004+46533+009883FM-12+170699999V0202101N001519999999N9999999N1-00411-00591999999ADDMA1999999082521ME1314769REMSYN076AAXX  12024 06792 33/// /2103 11041 21059 38252 48476 5//// 333 553// 20000;
0096067920999992011011203004+46533+009883FM-12+170699999V0202001N000519999999N9999999N1-00401-00601999999ADDMA1999999082601ME1314839REMSYN060AAXX  12034 06792 43/// /2001 11040 21060 38260 48483 5////;
0096067920999992011011204004+46533+009883FM-12+170699999V0201501N001519999999N9999999N1-00401-00571999999ADDMA1999999082681ME1314919REMSYN060AAXX  12044 06792 43/// /1503 11040 21057 38268 48491 5////;
0112067920999992011011205004+46533+009883FM-12+170699999V0202401N001019999999N9999999N1-00401-00661999999ADDMA1999999082661ME1314899REMSYN076AAXX  12054 06792 33/// /2402 11040 21066 38266 48489 5//// 333 553// 20000;
0295067920999992011011206004+46533+009883FM-12+170699999V0201801N001010090019N0200001N1-00571-00751999999ADDAA124000591AJ100369199999999AL13000091AY171061AY221061GA1061+009001061GF106991999999008001999999GJ100189IA1239IA2999-00909KA1999N-00601MA1999999082711ME1314959MW1021REMSYN118AAXX  12064 06792 41570 61802 11057 21075 38271 48495 5//// 70272 333 21060 3/109 47036 55003 70005 86630 90768 93101;
0149067920999992011011207004+46533+009883FM-12+170699999V0202301N001019999999N9999999N1-00551-00771999999ADDMA1999999082791MD1210111+9999ME1315039OA149900261REMSYN088AAXX  12074 06792 33/// /2302 11055 21077 38279 48503 52011 333 55300 20004 91105 91203;
0096067920999992011011208004+46533+009883FM-12+170699999V0201701N001019999999N9999999N1-01051-01191999999ADDMA1999999082851ME1315129REMSYN060AAXX  12084 06792 43/// /1702 11105 21119 38285 48512 5////;
0154067920999992011011209004+46533+009883FM-12+170699999V0200101N000519999999N0350001N1-00941-01041999999ADDGA1021+021001031GF106991999999022501999999MA1999999082861ME1315129REMSYN076AAXX  12094 06792 42881 60101 11094 21104 38286 48512 5//// 333 82357 86166;
0149067920999992011011210004+46533+009883FM-12+170699999V0201601N000519999999N9999999N1-00501-00711999999ADDMA1999999082881MD1219999+9999ME1315119OA149900211REMSYN088AAXX  12104 06792 33/// /1601 11050 21071 38288 48511 52/// 333 55305 20839 91104 91201;
0149067920999992011011211004+46533+009883FM-12+170699999V0201801N000519999999N9999999N1-00261-00661999999ADDMA1999999082861MD1010011+9999ME1315079OA149900151REMSYN088AAXX  12114 06792 33/// /1801 11026 21066 38286 48507 50001 333 55300 20893 91103 91202;
0148067920999992011011212004+46533+009883FM-12+170699999V0202901N000510450019N0350001N1-00261-00591999999ADDGA1061+045001021GF106991999999999999999999MA1999999082841ME1315059REMSYN070AAXX  12124 06792 42981 62901 11026 21059 38284 48505 5//// 333 86265;
0096067920999992011011213004+46533+009883FM-12+170699999V0201001N001019999999N9999999N1-00051-00641999999ADDMA1999999082831ME1315039REMSYN060AAXX  12134 06792 43/// /1002 11005 21064 38283 48503 5////;
0096067920999992011011214004+46533+009883FM-12+170699999V0202501N001019999999N9999999N1-00151-00551999999ADDMA1999999082861ME1315069REMSYN060AAXX  12144 06792 43/// /2502 11015 21055 38286 48506 5////;
0096067920999992011011215004+46533+009883FM-12+170699999V0200701N000519999999N9999999N1+00021-00691999999ADDMA1999999082871ME1315069REMSYN060AAXX  12154 06792 43/// /0701 10002 21069 38287 48506 5////;
0149067920999992011011216004+46533+009883FM-12+170699999V0200301N002119999999N9999999N1-00061-00511999999ADDMA1999999082911MD1210081+9999ME1315109OA149900361REMSYN088AAXX  12164 06792 33/// /0304 11006 21051 38291 48510 52008 333 55300 20068 91107 91204;
0149067920999992011011217004+46533+009883FM-12+170699999V0203301N000519999999N9999999N1-00151-00391999999ADDMA1999999082971MD1310111+9999ME1315179OA149900361REMSYN088AAXX  12174 06792 33/// /3301 11015 21039 38297 48517 53011 333 55300 20000 91107 91204;
0318067920999992011011218004+46533+009883FM-12+170699999V0201901N00051006001CN0100001N1-00181-00321999999ADDAA112000591AJ100389199999999AL11200291AY171061AY221061GA1081+006001051GF108991999999008001999999IA1239KA1120M+00041MA1999999082951MD1210081+9999ME1315159MW1721OA149900361REMSYN136AAXX  12184 06792 01560 81901 11018 21032 38295 48515 52008 69962 77272 333 10004 47038 55300 20000 69965 88520 90766 93102 91107 91204;
0155067920999992011011219004+46533+009883FM-12+170699999V0200701N000519999999N9999999N1-00261-00341999999ADDMA1999999082961MD1210051+9999ME1315179OA149900101REMSYN094AAXX  12194 06792 23/// /0701 11026 21034 38296 48517 52005 333 55300 20000 69935 91102 91201;
0149067920999992011011220004+46533+009883FM-12+170699999V0209999C000019999999N9999999N1-00221-00321999999ADDMA1999999082941MD1710031+9999ME1315149OA149900101REMSYN088AAXX  12204 06792 33/// /0000 11022 21032 38294 48514 57003 333 55300 20000 91102 91201;
0149067920999992011011221004+46533+009883FM-12+170699999V0209999C000019999999N9999999N1-00211-00321999999ADDMA1999999082951MD1010001+9999ME1315159OA149900361REMSYN088AAXX  12214 06792 33/// /0000 11021 21032 38295 48515 50000 333 55300 20000 91107 91204;
0149067920999992011011222004+46533+009883FM-12+170699999V0202001N000519999999N9999999N1-00231-00321999999ADDMA1999999082931MD1710031+9999ME1315149OA149900151REMSYN088AAXX  12224 06792 33/// /2001 11023 21032 38293 48514 57003 333 55300 20000 91103 91201;
0149067920999992011011223004+46533+009883FM-12+170699999V0209999C000019999999N9999999N1-00191-00321999999ADDMA1999999082931MD1710011+9999ME1315139OA149900151REMSYN088AAXX  12234 06792 33/// /0000 11019 21032 38293 48513 57001 333 55300 20000 91103 91201;
0172067920999992011011300004+46533+009883FM-12+170699999V0209999C000019999999N9999999N1-00221-00311999999ADDAA106000391MA1999999082891MD1710061+9999ME1315109OA149900361REMSYN100AAXX  13004 06792 03/// /0000 11022 21031 38289 48510 57006 69931 333 55300 20000 60005 91107 91204;
0149067920999992011011301004+46533+009883FM-12+170699999V0209999C000019999999N9999999N1-00441-00511999999ADDMA1999999082851MD1810081+9999ME1315079OA149900151REMSYN088AAXX  13014 06792 33/// /0000 11044 21051 38285 48507 58008 333 55300 20000 91103 91201;
0155067920999992011011302004+46533+009883FM-12+170699999V0200101N002119999999N9999999N1-00021-00171999999ADDMA1999999082871MD1519999+9999ME1315069OA149900721REMSYN094AAXX  13024 06792 23/// /0104 11002 21017 38287 48506 55/// 333 55300 20000 69915 91114 91204;
0096067920999992011011303004+46533+009883FM-12+170699999V0200101N001019999999N9999999N1+00111-00051999999ADDMA1999999082861ME1315049REMSYN060AAXX  13034 06792 43/// /0102 10011 21005 38286 48504 5////;
0149067920999992011011304004+46533+009883FM-12+170699999V0201701N000519999999N9999999N1+00111-00061999999ADDMA1999999082831MD1819999+9999ME1315019OA149900621REMSYN088AAXX  13044 06792 33/// /1701 10011 21006 38283 48501 58/// 333 55300 20000 91112 91204;
0118067920999992011011305004+46533+009883FM-12+170699999V0202501N000519999999N9999999N1+00171-00011999999ADDMA1999999082801ME1314989REMSYN082AAXX  13054 06792 23/// /2501 10017 21001 38280 48498 5//// 333 553// 20000 69915;
0328067920999992011011306004+46533+009883FM-12+170699999V0203301N00051009901CN0150001N1+00201+00031999999ADDAA112000591AJ100389199999999AL19900191GA1071+009901071GF107991999999008001999999GJ101149IA1239IA2999-00709KA1999N-00441MA1999999082801MD1710061+9999ME1314989OA149900721REMSYN148AAXX  13064 06792 02565 73301 10020 20003 38280 48498 57006 69962 333 21044 3/107 47038 55019 55300 20000 60005 70012 87733 90768 93101 91114 91204;
0096067920999992011011307004+46533+009883FM-12+170699999V0200301N004619999999N9999999N1+00131+00001999999ADDMA1999999082811ME1314999REMSYN060AAXX  13074 06792 43/// /0309 10013 20000 38281 48499 5////;
0096067920999992011011308004+46533+009883FM-12+170699999V0200201N006219999999N9999999N1+00301+00071999999ADDMA1999999082831ME1315009REMSYN060AAXX  13084 06792 43/// /0212 10030 20007 38283 48500 5////;
0148067920999992011011309004+46533+009883FM-12+170699999V0200201N005710210019N0150001N1+00481-00041999999ADDGA1051+021001061GF105991999999022501999999MA1999999082851ME1315009REMSYN070AAXX  13094 06792 42865 50211 10048 21004 38285 48500 5//// 333 85657;
0096067920999992011011310004+46533+009883FM-12+170699999V0200201N006719999999N9999999N1+00671-00191999999ADDMA1999999082861ME1315009REMSYN060AAXX  13104 06792 43/// /0213 10067 21019 38286 48500 5////;
0096067920999992011011311004+46533+009883FM-12+170699999V0203201N007219999999N9999999N1+00641-00081999999ADDMA1999999082851ME1314999REMSYN060AAXX  13114 06792 43/// /3214 10064 21008 38285 48499 5////;
0096067920999992011011312004+46533+009883FM-12+170699999V0203201N004619999999N9999999N1+00711-00151999999ADDMA1999999082831ME1314979REMSYN060AAXX  13124 06792 43/// /3209 10071 21015 38283 48497 5////;
0096067920999992011011313004+46533+009883FM-12+170699999V0203101N006219999999N9999999N1+00741-00171999999ADDMA1999999082811ME1314949REMSYN060AAXX  13134 06792 43/// /3112 10074 21017 38281 48494 5////;
0096067920999992011011314004+46533+009883FM-12+170699999V0203101N007719999999N9999999N1+00751-00231999999ADDMA1999999082831ME1314969REMSYN060AAXX  13144 06792 43/// /3115 10075 21023 38283 48496 5////;
0154067920999992011011315004+46533+009883FM-12+170699999V0203501N002112200019N0400001N1+00841-00391999999ADDGA1011+021001061GF103991999999022501999999MA1999999082811ME1314949REMSYN076AAXX  13154 06792 42882 33504 10084 21039 38281 48494 5//// 333 81657 83068;
0096067920999992011011316004+46533+009883FM-12+170699999V0209999C000019999999N9999999N1+00341-00211999999ADDMA1999999082891ME1315059REMSYN060AAXX  13164 06792 43/// /0000 10034 21021 38289 48505 5////;
0149067920999992011011317004+46533+009883FM-12+170699999V0201801N000519999999N9999999N1+00091-00231999999ADDMA1999999082921MD1210091+9999ME1315109OA149900931REMSYN088AAXX  13174 06792 33/// /1801 10009 21023 38292 48510 52009 333 55300 20000 91118 91207;
0168067920999992011011318004+46533+009883FM-12+170699999V0201901N001519999999N9999999N1+00241-00171999999ADDKA1120M+00841MA1999999082961MD1210141+9999ME1315139OA149901651REMSYN094AAXX  13184 06792 33/// /1903 10024 21017 38296 48513 52014 333 10084 55300 20000 91132 91218;
0149067920999992011011319004+46533+009883FM-12+170699999V0201201N001019999999N9999999N1+00221-00141999999ADDMA1999999082961MD1210071+9999ME1315139OA149900621REMSYN088AAXX  13194 06792 33/// /1202 10022 21014 38296 48513 52007 333 55300 20000 91112 91204;
0149067920999992011011320004+46533+009883FM-12+170699999V0201701N001019999999N9999999N1+00211-00121999999ADDMA1999999082981MD1210061+9999ME1315159OA149900621REMSYN088AAXX  13204 06792 33/// /1702 10021 21012 38298 48515 52006 333 55300 20000 91112 91204;
0149067920999992011011321004+46533+009883FM-12+170699999V0202101N001019999999N9999999N1+00131-00081999999ADDMA1999999083001MD1110041+9999ME1315189OA149900931REMSYN088AAXX  13214 06792 33/// /2102 10013 21008 38300 48518 51004 333 55300 20000 91118 91207;
0149067920999992011011322004+46533+009883FM-12+170699999V0201401N001019999999N9999999N1+00141-00101999999ADDMA1999999083021MD1310061+9999ME1315209OA149900261REMSYN088AAXX  13224 06792 33/// /1402 10014 21010 38302 48520 53006 333 55300 20000 91105 91202;
0149067920999992011011323004+46533+009883FM-12+170699999V0202101N000519999999N9999999N1+00121-00081999999ADDMA1999999083031MD1210051+9999ME1315219OA149900261REMSYN088AAXX  13234 06792 33/// /2101 10012 21008 38303 48521 52005 333 55300 20000 91105 91203;
0149067920999992011011400004+46533+009883FM-12+170699999V0209999C000019999999N9999999N1+00061-00111999999ADDMA1999999083021MD1010021+9999ME1315209OA149901601REMSYN088AAXX  14004 06792 33/// /0000 10006 21011 38302 48520 50002 333 55300 20000 91131 91216;
0149067920999992011011401004+46533+009883FM-12+170699999V0202401N002119999999N9999999N1-00051-00201999999ADDMA1999999083031MD1010011+9999ME1315229OA149900311REMSYN088AAXX  14014 06792 33/// /2404 11005 21020 38303 48522 50001 333 55300 20000 91106 91204;
0112067920999992011011402004+46533+009883FM-12+170699999V0209999C000019999999N9999999N1-00181-00291999999ADDMA1999999083061ME1315269REMSYN076AAXX  14024 06792 33/// /0000 11018 21029 38306 48526 5//// 333 553// 20000;
0149067920999992011011403004+46533+009883FM-12+170699999V0202601N000519999999N9999999N1-00131-00271999999ADDMA1999999083071MD1210051+9999ME1315269OA149900311REMSYN088AAXX  14034 06792 33/// /2601 11013 21027 38307 48526 52005 333 55300 20000 91106 91204;
0149067920999992011011404004+46533+009883FM-12+170699999V0202001N001019999999N9999999N1-00221-00361999999ADDMA1999999083081MD1210051+9999ME1315289OA149900261REMSYN088AAXX  14044 06792 33/// /2002 11022 21036 38308 48528 52005 333 55300 20000 91105 91203;
0149067920999992011011405004+46533+009883FM-12+170699999V0201801N000519999999N9999999N1-00481-00541999999ADDMA1999999083091MD1210031+9999ME1315319OA149900211REMSYN088AAXX  14054 06792 33/// /1801 11048 21054 38309 48531 52003 333 55300 20000 91104 91203;
0299067920999992011011406004+46533+009883FM-12+170699999V0202301N001012200019N0200001N1-00511-00561999999ADDAJ100339199999999AL19900091GA1001+999999999GF100991001001999999001001GJ100549IA1239IA2999-00909KA1999N-00511MA1999999083111MD1310041+9999ME1315339OA149900621REMSYN130AAXX  14064 06792 32/70 02302 11051 21056 38311 48533 53004 333 21051 3/109 47033 55009 55300 20000 70000 90768 93100 91112 91204;
0149067920999992011011407004+46533+009883FM-12+170699999V0202701N000519999999N9999999N1-00651-00691999999ADDMA1999999083131MD1210051+9999ME1315369OA149900211REMSYN088AAXX  14074 06792 33/// /2701 11065 21069 38313 48536 52005 333 55300 20000 91104 91203;
0096067920999992011011408004+46533+009883FM-12+170699999V0201701N000519999999N9999999N1-00361-00461999999ADDMA1999999083171ME1315379REMSYN060AAXX  14084 06792 43/// /1701 11036 21046 38317 48537 5////;
0096067920999992011011409004+46533+009883FM-12+170699999V0202301N000519999999N9999999N1-00421-00531999999ADDMA1999999083171ME1315389REMSYN060AAXX  14094 06792 43/// /2301 11042 21053 38317 48538 5////;
0096067920999992011011410004+46533+009883FM-12+170699999V0201701N001019999999N9999999N1-00161-00401999999ADDMA1999999083161ME1315359REMSYN060AAXX  14104 06792 43/// /1702 11016 21040 38316 48535 5////;
0149067920999992011011411004+46533+009883FM-12+170699999V0201201N000519999999N9999999N1-00101-00241999999ADDMA1999999083111MD1710061+9999ME1315309OA149900101REMSYN088AAXX  14114 06792 33/// /1201 11010 21024 38311 48530 57006 333 553// 2//// 91102 91202;
0191067920999992011011412004+46533+009883FM-12+170699999V0209999C000012200019N0400001N1+00231-00201999999ADDGA1001+999999999GF100991001001999999001001MA1999999083051MD1810121+9999ME1315229OA149900311REMSYN088AAXX  14124 06792 32/82 00000 10023 21020 38305 48522 58012 333 553// 2//// 91106 91204;
0149067920999992011011413004+46533+009883FM-12+170699999V0202501N000519999999N9999999N1+00341-00141999999ADDMA1999999083001MD1610161+9999ME1315169OA149900101REMSYN088AAXX  14134 06792 33/// /2501 10034 21014 38300 48516 56016 333 55309 2//// 91102 91201;
0112067920999992011011414004+46533+009883FM-12+170699999V0201801N000519999999N9999999N1+00331-00141999999ADDMA1999999082971ME1315139REMSYN076AAXX  14144 06792 33/// /1801 10033 21014 38297 48513 5//// 333 553// 20853;
0191067920999992011011415004+46533+009883FM-12+170699999V0201801N001512200019N0400001N1+00261-00331999999ADDGA1001+999999999GF100991001001999999001001MA1999999083001MD1510051+9999ME1315179OA149900211REMSYN088AAXX  14154 06792 32/82 01803 10026 21033 38300 48517 55005 333 55307 20446 91104 91203;
0149067920999992011011416004+46533+009883FM-12+170699999V0201901N002119999999N9999999N1+00001-00401999999ADDMA1999999083011MD1210011+9999ME1315209OA149900261REMSYN088AAXX  14164 06792 33/// /1904 10000 21040 38301 48520 52001 333 55300 20097 91105 91204;
0149067920999992011011417004+46533+009883FM-12+170699999V0201501N000519999999N9999999N1-00091-00371999999ADDMA1999999083031MD1110061+9999ME1315229OA149900261REMSYN088AAXX  14174 06792 33/// /1501 11009 21037 38303 48522 51006 333 55300 20000 91105 91204;
0261067920999992011011418004+46533+009883FM-12+170699999V0202001N001012200019N0400001N1-00221-00491999999ADDAJ100299199999999AL19900091GA1001+999999999GF100991001001999999001001IA1279KA1120M+00491MA1999999083031MD1310031+9999ME1315239OA149900261REMSYN112AAXX  14184 06792 32/82 02002 11022 21049 38303 48523 53003 333 10049 43029 55300 20000 90766 93100 91105 91204;
0149067920999992011011419004+46533+009883FM-12+170699999V0201901N001519999999N9999999N1-00511-00741999999ADDMA1999999083031MD1210021+9999ME1315259OA149900211REMSYN088AAXX  14194 06792 33/// /1903 11051 21074 38303 48525 52002 333 55300 20000 91104 91203;
0149067920999992011011420004+46533+009883FM-12+170699999V0202701N000519999999N9999999N1-00461-00641999999ADDMA1999999083011MD1710021+9999ME1315239OA149900211REMSYN088AAXX  14204 06792 33/// /2701 11046 21064 38301 48523 57002 333 55300 20000 91104 91203;
0149067920999992011011421004+46533+009883FM-12+170699999V0202601N000519999999N9999999N1-00481-00631999999ADDMA1999999082951MD1710081+9999ME1315179OA149900261REMSYN088AAXX  14214 06792 33/// /2601 11048 21063 38295 48517 57008 333 55300 20000 91105 91204;
0149067920999992011011422004+46533+009883FM-12+170699999V0202501N001019999999N9999999N1-00551-00701999999ADDMA1999999082921MD1710111+9999ME1315159OA149900151REMSYN088AAXX  14224 06792 33/// /2502 11055 21070 38292 48515 57011 333 55300 20000 91103 91202;
0149067920999992011011423004+46533+009883FM-12+170699999V0201901N001519999999N9999999N1-00471-00741999999ADDMA1999999082871MD1710141+9999ME1315109OA149900211REMSYN088AAXX  14234 06792 33/// /1903 11047 21074 38287 48510 57014 333 55300 20000 91104 91203;
0149067920999992011011500004+46533+009883FM-12+170699999V0201701N002119999999N9999999N1-00441-00691999999ADDMA1999999082801MD1710151+9999ME1315039OA149900361REMSYN088AAXX  15004 06792 33/// /1704 11044 21069 38280 48503 57015 333 55300 20000 91107 91204;
0149067920999992011011501004+46533+009883FM-12+170699999V0201701N000519999999N9999999N1-00481-00671999999ADDMA1999999082731MD1710191+9999ME1314969OA149900361REMSYN088AAXX  15014 06792 33/// /1701 11048 21067 38273 48496 57019 333 55300 20000 91107 91204;
0149067920999992011011502004+46533+009883FM-12+170699999V0200101N005119999999N9999999N1-00061-00661999999ADDMA1999999082921MD1319999+9999ME1315119OA149901031REMSYN088AAXX  15024 06792 33/// /0110 11006 21066 38292 48511 53/// 333 55300 20000 91120 91210;
0112067920999992011011503004+46533+009883FM-12+170699999V0200201N005719999999N9999999N1+00191-00501999999ADDMA1999999083011ME1315189REMSYN076AAXX  15034 06792 33/// /0211 10019 21050 38301 48518 5//// 333 553// 20000;
0149067920999992011011504004+46533+009883FM-12+170699999V0200401N004619999999N9999999N1+00051-00401999999ADDMA1999999083061MD1210331+9999ME1315249OA149901241REMSYN088AAXX  15044 06792 33/// /0409 10005 21040 38306 48524 52033 333 55300 20000 91124 91215;
0149067920999992011011505004+46533+009883FM-12+170699999V0201901N001019999999N9999999N1-00111-00461999999ADDMA1999999083101MD1210181+9999ME1315299OA149901241REMSYN088AAXX  15054 06792 33/// /1902 11011 21046 38310 48529 52018 333 55300 20000 91124 91209;
0216067920999992011011506004+46533+009883FM-12+170699999V0203501N004119999999N9999999N1+00221-00881999999ADDAL19900091GJ103669IA2999-01009KA1999N-00691MA1999999083191MD1210181+9999ME1315369OA149901241REMSYN112AAXX  15064 06792 33/// /3508 10022 21088 38319 48536 52018 333 21069 3/110 55061 55300 20000 70000 91124 91215;
0149067920999992011011507004+46533+009883FM-12+170699999V0203401N006219999999N9999999N1+00221-01011999999ADDMA1999999083271MD1210211+9999ME1315439OA149901751REMSYN088AAXX  15074 06792 33/// /3412 10022 21101 38327 48543 52021 333 55300 20000 91134 91216;
0149067920999992011011508004+46533+009883FM-12+170699999V0200301N000519999999N9999999N1-00091-00981999999ADDMA1999999083401MD1219999+9999ME1315589OA149901751REMSYN088AAXX  15084 06792 33/// /0301 11009 21098 38340 48558 52/// 333 55300 20050 91134 91216;
0191067920999992011011509004+46533+009883FM-12+170699999V0200601N003612200019N0350001N1-00031-00921999999ADDGA1001+999999999GF100991001001999999001001MA1999999083421MD1210231+9999ME1315599OA149901751REMSYN088AAXX  15094 06792 32/81 00607 11003 21092 38342 48559 52023 333 55304 20385 91134 91216;
0149067920999992011011510004+46533+009883FM-12+170699999V0201701N000519999999N9999999N1+00041-00891999999ADDMA1999999083451MD1210181+9999ME1315629OA149900671REMSYN088AAXX  15104 06792 33/// /1701 10004 21089 38345 48562 52018 333 553// 2//// 91113 91211;
0149067920999992011011511004+46533+009883FM-12+170699999V0200601N000519999999N9999999N1+00121-00931999999ADDMA1999999083431MD1010031+9999ME1315609OA149900461REMSYN088AAXX  15114 06792 33/// /0601 10012 21093 38343 48560 50003 333 553// 2//// 91109 91204;
0197067920999992011011512004+46533+009883FM-12+170699999V0200401N001012200019N0350001N1+00061-00791999999ADDGA1021+051001001GF102991999999999999999999MA1999999083381MD1810041+9999ME1315559OA149901751REMSYN094AAXX  15124 06792 32981 20402 10006 21079 38338 48555 58004 333 553// 2//// 82067 91134 91216;
0112067920999992011011513004+46533+009883FM-12+170699999V0203501N001019999999N9999999N1+00391-01071999999ADDMA1999999083371ME1315529REMSYN076AAXX  15134 06792 33/// /3502 10039 21107 38337 48552 5//// 333 553// 2////;
0096067920999992011011514004+46533+009883FM-12+170699999V0200201N002119999999N9999999N1+00231-00931999999ADDMA1999999083391ME1315559REMSYN060AAXX  15144 06792 43/// /0204 10023 21093 38339 48555 5////;
0148067920999992011011515004+46533+009883FM-12+170699999V0200901N001010510019N0350001N1+00231-01071999999ADDGA1061+051001001GF106991999999999999999999MA1999999083461ME1315629REMSYN070AAXX  15154 06792 42981 60902 10023 21107 38346 48562 5//// 333 86067;
0096067920999992011011516004+46533+009883FM-12+170699999V0201901N001019999999N9999999N1-00331-00921999999ADDMA1999999083531ME1315729REMSYN060AAXX  15164 06792 43/// /1902 11033 21092 38353 48572 5////;
0112067920999992011011517004+46533+009883FM-12+170699999V0202201N001519999999N9999999N1-00381-00921999999ADDMA1999999083601ME1315799REMSYN076AAXX  15174 06792 33/// /2203 11038 21092 38360 48579 5//// 333 553// 20000;
0218067920999992011011518004+46533+009883FM-12+170699999V0201501N000512200019N0400001N1-00401-00951999999ADDAJ100299199999999AL10600091GA1031+033001031GF103991999999999999999999IA1279KA1120M+00421MA1999999083671ME1315859REMSYN094AAXX  15184 06792 42982 31501 11040 21095 38367 48585 5//// 333 10042 43029 83361 90766 93100;
0096067920999992011011519004+46533+009883FM-12+170699999V0202301N001019999999N9999999N1-00641-01021999999ADDMA1999999083731ME1315929REMSYN060AAXX  15194 06792 43/// /2302 11064 21102 38373 48592 5////;
0096067920999992011011520004+46533+009883FM-12+170699999V0202301N000519999999N9999999N1-01011-01261999999ADDMA1999999083761ME1315969REMSYN060AAXX  15204 06792 43/// /2301 11101 21126 38376 48596 5////;
0149067920999992011011521004+46533+009883FM-12+170699999V0202101N001519999999N9999999N1-00651-01081999999ADDMA1999999083771MD1210101+9999ME1315969OA149900311REMSYN088AAXX  15214 06792 33/// /2103 11065 21108 38377 48596 52010 333 55300 20000 91106 91203;
0149067920999992011011522004+46533+009883FM-12+170699999V0202401N000519999999N9999999N1-00761-01061999999ADDMA1999999083791MD1210061+9999ME1315989OA149900261REMSYN088AAXX  15224 06792 33/// /2401 11076 21106 38379 48598 52006 333 55300 20000 91105 91203;
0149067920999992011011523004+46533+009883FM-12+170699999V0201901N001519999999N9999999N1-00851-01161999999ADDMA1999999083761MD1410001+9999ME1315969OA149900211REMSYN088AAXX  15234 06792 33/// /1903 11085 21116 38376 48596 58000 333 55300 20000 91104 91203;
0149067920999992011011600004+46533+009883FM-12+170699999V0209999C000019999999N9999999N1-00901-01171999999ADDMA1999999083801MD1210031+9999ME1316009OA149900411REMSYN088AAXX  16004 06792 33/// /0000 11090 21117 38380 48600 52003 333 55300 20000 91108 91206;
0149067920999992011011601004+46533+009883FM-12+170699999V0202001N001019999999N9999999N1-00881-01151999999ADDMA1999999083831MD1310041+9999ME1316029OA149900151REMSYN088AAXX  16014 06792 33/// /2002 11088 21115 38383 48602 53004 333 55300 20000 91103 91202;
0149067920999992011011602004+46533+009883FM-12+170699999V0202301N000519999999N9999999N1-00871-01131999999ADDMA1999999083841MD1119999+9999ME1316039OA149900211REMSYN088AAXX  16024 06792 33/// /2301 11087 21113 38384 48603 51/// 333 55300 20000 91104 91202;
0096067920999992011011603004+46533+009883FM-12+170699999V0201601N000519999999N9999999N1-00931-01161999999ADDMA1999999083831ME1316039REMSYN060AAXX  16034 06792 43/// /1601 11093 21116 38383 48603 5////;
0149067920999992011011604004+46533+009883FM-12+170699999V0202301N001019999999N9999999N1-00911-01091999999ADDMA1999999083811MD1710021+9999ME1316019OA149900151REMSYN088AAXX  16044 06792 33/// /2302 11091 21109 38381 48601 57002 333 55300 20000 91103 91203;
0149067920999992011011605004+46533+009883FM-12+170699999V0201801N000519999999N9999999N1-01001-01131999999ADDMA1999999083821MD1710021+9999ME1316029OA149900151REMSYN088AAXX  16054 06792 33/// /1801 11100 21113 38382 48602 57002 333 55300 20000 91103 91202;
0216067920999992011011606004+46533+009883FM-12+170699999V0202001N001019999999N9999999N1-01151-01301999999ADDAL19900091GJ103549IA2999-01509KA1999N-01201MA1999999083841MD1510011+9999ME1316049OA149900261REMSYN112AAXX  16064 06792 33/// /2002 11115 21130 38384 48604 55001 333 21120 3/115 55059 55300 20000 70000 91105 91203;
0149067920999992011011607004+46533+009883FM-12+170699999V0201901N001019999999N9999999N1-00971-01171999999ADDMA1999999083861MD1210051+9999ME1316069OA149900211REMSYN088AAXX  16074 06792 33/// /1902 11097 21117 38386 48606 52005 333 55300 20000 91104 91202;
0149067920999992011011608004+46533+009883FM-12+170699999V0202801N000519999999N9999999N1-01001-01151999999ADDMA1999999083901MD1319999+9999ME1316099OA149900211REMSYN088AAXX  16084 06792 33/// /2801 11100 21115 38390 48609 53/// 333 55300 20050 91104 91202;
0191067920999992011011609004+46533+009883FM-12+170699999V0202301N000512200019N0350001N1-00891-01071999999ADDGA1001+999999999GF100991001001999999001001MA1999999083891MD1210051+9999ME1316089OA149900211REMSYN088AAXX  16094 06792 32/81 02301 11089 21107 38389 48608 52005 333 55304 20392 91104 91202;
0149067920999992011011610004+46533+009883FM-12+170699999V0209999C000019999999N9999999N1-00621-00961999999ADDMA1999999083871MD1010011+9999ME1316059OA149900211REMSYN088AAXX  16104 06792 33/// /0000 11062 21096 38387 48605 50001 333 553// 2//// 91104 91202;
0149067920999992011011611004+46533+009883FM-12+170699999V0202301N000519999999N9999999N1-00181-00821999999ADDMA1999999083851MD1710051+9999ME1316019OA149900151REMSYN088AAXX  16114 06792 33/// /2301 11018 21082 38385 48601 57005 333 553// 2//// 91103 91202;
0191067920999992011011612004+46533+009883FM-12+170699999V0200801N000512200019N0500001N1-00121-00651999999ADDGA1001+999999999GF100991001001999999001001MA1999999083811MD1810081+9999ME1315979OA149900211REMSYN088AAXX  16124 06792 32/84 00801 11012 21065 38381 48597 58008 333 553// 2//// 91104 91203;
0149067920999992011011613004+46533+009883FM-12+170699999V0202201N000519999999N9999999N1+00281-00591999999ADDMA1999999083751MD1810121+9999ME1315909OA149900101REMSYN088AAXX  16134 06792 33/// /2201 10028 21059 38375 48590 58012 333 553// 2//// 91102 91201;
0149067920999992011011614004+46533+009883FM-12+170699999V0202201N000519999999N9999999N1+00441-00571999999ADDMA1999999083741MD1619999+9999ME1315889OA149900101REMSYN088AAXX  16144 06792 33/// /2201 10044 21057 38374 48588 56/// 333 553// 2//// 91102 91201;
0191067920999992011011615004+46533+009883FM-12+170699999V0202001N001012200019N0400001N1+00251-00391999999ADDGA1001+999999999GF100991001001999999001001MA1999999083761MD1510051+9999ME1315919OA149900211REMSYN088AAXX  16154 06792 32/82 02002 10025 21039 38376 48591 55005 333 553// 20666 91104 91202;
0149067920999992011011616004+46533+009883FM-12+170699999V0201501N001019999999N9999999N1-00151-00541999999ADDMA1999999083781MD1210031+9999ME1315959OA149900261REMSYN088AAXX  16164 06792 33/// /1502 11015 21054 38378 48595 52003 333 55303 20122 91105 91203;
0149067920999992011011617004+46533+009883FM-12+170699999V0201901N001019999999N9999999N1-00251-00521999999ADDMA1999999083811MD1310071+9999ME1315989OA149900261REMSYN088AAXX  16174 06792 33/// /1902 11025 21052 38381 48598 53007 333 55300 20000 91105 91203;
0261067920999992011011618004+46533+009883FM-12+170699999V0201701N001012200019N0400001N1-00541-00741999999ADDAJ100299199999999AL19900091GA1001+999999999GF100991001001999999001001IA1279KA1120M+00441MA1999999083841MD1210081+9999ME1316029OA149900261REMSYN112AAXX  16184 06792 32/82 01702 11054 21074 38384 48602 52008 333 10044 43029 55300 20000 90766 93100 91105 91203;
0149067920999992011011619004+46533+009883FM-12+170699999V0202001N001019999999N9999999N1-00511-00761999999ADDMA1999999083861MD1310081+9999ME1316049OA149900211REMSYN088AAXX  16194 06792 33/// /2002 11051 21076 38386 48604 53008 333 55300 20000 91104 91203;
0149067920999992011011620004+46533+009883FM-12+170699999V0202001N001019999999N9999999N1-00611-00851999999ADDMA1999999083861MD1110051+9999ME1316049OA149900211REMSYN088AAXX  16204 06792 33/// /2002 11061 21085 38386 48604 51005 333 55300 20000 91104 91203;
0149067920999992011011621004+46533+009883FM-12+170699999V0202001N001019999999N9999999N1-00661-00861999999ADDMA1999999083841MD1010001+9999ME1316029OA149900261REMSYN088AAXX  16214 06792 33/// /2002 11066 21086 38384 48602 50000 333 55300 20000 91105 91203;
0149067920999992011011622004+46533+009883FM-12+170699999V0202301N000519999999N9999999N1-00681-00801999999ADDMA1999999083841MD1810021+9999ME1316029OA149900261REMSYN088AAXX  16224 06792 33/// /2301 11068 21080 38384 48602 58002 333 55300 20000 91105 91203;
0149067920999992011011623004+46533+009883FM-12+170699999V0202101N001019999999N9999999N1-00741-00941999999ADDMA1999999083841MD1710021+9999ME1316039OA149900261REMSYN088AAXX  16234 06792 33/// /2102 11074 21094 38384 48603 57002 333 55300 20000 91105 91203;
0149067920999992011011700004+46533+009883FM-12+170699999V0201901N001019999999N9999999N1-00861-00991999999ADDMA1999999083821MD1710021+9999ME1316019OA149900261REMSYN088AAXX  17004 06792 33/// /1902 11086 21099 38382 48601 57002 333 55300 20000 91105 91203;
0149067920999992011011701004+46533+009883FM-12+170699999V0202101N001019999999N9999999N1-00871-01041999999ADDMA1999999083791MD1710051+9999ME1315999OA149900211REMSYN088AAXX  17014 06792 33/// /2102 11087 21104 38379 48599 57005 333 55300 20000 91104 91202;
0149067920999992011011702004+46533+009883FM-12+170699999V0202001N001019999999N9999999N1-00851-01051999999ADDMA1999999083771MD1619999+9999ME1315979OA149900211REMSYN088AAXX  17024 06792 33/// /2002 11085 21105 38377 48597 56/// 333 55300 20000 91104 91202;
0112067920999992011011703004+46533+009883FM-12+170699999V0202001N000519999999N9999999N1-00881-01041999999ADDMA1999999083751ME1315959REMSYN076AAXX  17034 06792 33/// /2001 11088 21104 38375 48595 5//// 333 553// 20000;
0149067920999992011011704004+46533+009883FM-12+170699999V0202201N001019999999N9999999N1-01021-01171999999ADDMA1999999083721MD1810071+9999ME1315939OA149900151REMSYN088AAXX  17044 06792 33/// /2202 11102 21117 38372 48593 58007 333 55300 20000 91103 91203;
0149067920999992011011705004+46533+009883FM-12+170699999V0202301N000519999999N9999999N1-01061-01201999999ADDMA1999999083681MD1810091+9999ME1315899OA149900211REMSYN088AAXX  17054 06792 33/// /2301 11106 21120 38368 48589 58009 333 55300 20000 91104 91203;
0216067920999992011011706004+46533+009883FM-12+170699999V0209999C000019999999N9999999N1-01111-01171999999ADDAL19900091GJ104029IA2999-01609KA1999N-01201MA1999999083651MD1610101+9999ME1315879OA149900261REMSYN112AAXX  17064 06792 33/// /0000 11111 21117 38365 48587 56010 333 21120 3/116 55067 55300 20000 70000 91105 91203;
0149067920999992011011707004+46533+009883FM-12+170699999V0202101N001019999999N9999999N1-01291-01361999999ADDMA1999999083661MD1710061+9999ME1315899OA149900211REMSYN088AAXX  17074 06792 33/// /2102 11129 21136 38366 48589 57006 333 55300 20000 91104 91203;
0096067920999992011011708004+46533+009883FM-12+170699999V0202201N000519999999N9999999N1-01111-01271999999ADDMA1999999083641ME1315869REMSYN060AAXX  17084 06792 43/// /2201 11111 21127 38364 48586 5////;
0096067920999992011011709004+46533+009883FM-12+170699999V0202301N000519999999N9999999N1-00871-01011999999ADDMA1999999083621ME1315839REMSYN060AAXX  17094 06792 43/// /2301 11087 21101 38362 48583 5////;
0149067920999992011011710004+46533+009883FM-12+170699999V0202101N000519999999N9999999N1-00621-00871999999ADDMA1999999083601MD1610061+9999ME1315809OA149900101REMSYN088AAXX  17104 06792 33/// /2101 11062 21087 38360 48580 56006 333 553// 2//// 91102 91201;
0149067920999992011011711004+46533+009883FM-12+170699999V0209999C000019999999N9999999N1-00411-00751999999ADDMA1999999083551MD1810091+9999ME1315749OA149900101REMSYN088AAXX  17114 06792 33/// /0000 11041 21075 38355 48574 58009 333 553// 2//// 91102 91201;
0197067920999992011011712004+46533+009883FM-12+170699999V0200401N000512200019N0350001N1-00111-00711999999ADDGA1011+054001001GF101991999999999999999999MA1999999083501MD1810121+9999ME1315689OA149900211REMSYN094AAXX  17124 06792 32981 10401 11011 21071 38350 48568 58012 333 553// 2//// 81068 91104 91203;
0149067920999992011011713004+46533+009883FM-12+170699999V0200501N001019999999N9999999N1+00051-00601999999ADDMA1999999083441MD1710161+9999ME1315619OA149900151REMSYN088AAXX  17134 06792 33/// /0502 10005 21060 38344 48561 57016 333 553// 2//// 91103 91202;
0096067920999992011011714004+46533+009883FM-12+170699999V0203601N001019999999N9999999N1+00031-00621999999ADDMA1999999083421ME1315599REMSYN060AAXX  17144 06792 43/// /3602 10003 21062 38342 48559 5////;
0096067920999992011011715004+46533+009883FM-12+170699999V0202001N002619999999N9999999N1-00051-00741999999ADDMA1999999083431ME1315619REMSYN060AAXX  17154 06792 43/// /2005 11005 21074 38343 48561 5////;
0149067920999992011011716004+46533+009883FM-12+170699999V0201301N000519999999N9999999N1-00121-00801999999ADDMA1999999083451MD1310011+9999ME1315639OA149900361REMSYN088AAXX  17164 06792 33/// /1301 11012 21080 38345 48563 53001 333 55303 20130 91107 91205;
0149067920999992011011717004+46533+009883FM-12+170699999V0202301N000519999999N9999999N1-00471-00881999999ADDMA1999999083461MD1210041+9999ME1315669OA149900261REMSYN088AAXX  17174 06792 33/// /2301 11047 21088 38346 48566 52004 333 55300 20000 91105 91203;
