0149067980999992011010100004+46800+010283FM-12+129899999V0202601N003619999999N9999999N1-00731-01291999999ADDMA1999999087171MD1710051+9999ME1315019OA149900571REMSYN088AAXX  01004 06798 33/// /2607 11073 21129 38717 48501 57005 333 55300 20000 91111 91208;
0149067980999992011010101004+46800+010283FM-12+129899999V0202601N002619999999N9999999N1-00761-01291999999ADDMA1999999087131MD1810081+9999ME1314989OA149900571REMSYN088AAXX  01014 06798 33/// /2605 11076 21129 38713 48498 58008 333 55300 20000 91111 91207;
0149067980999992011010102004+46800+010283FM-12+129899999V0202601N004119999999N9999999N1-00781-01331999999ADDMA1999999087101MD1610111+9999ME1314959OA149900621REMSYN088AAXX  01024 06798 33/// /2608 11078 21133 38710 48495 56011 333 55300 20000 91112 91208;
0149067980999992011010103004+46800+010283FM-12+129899999V0202501N002619999999N9999999N1-00801-01321999999ADDMA1999999087091MD1610081+9999ME1314949OA149900621REMSYN088AAXX  01034 06798 33/// /2505 11080 21132 38709 48494 56008 333 55300 20000 91112 91208;
0149067980999992011010104004+46800+010283FM-12+129899999V0202401N001019999999N9999999N1-00941-01471999999ADDMA1999999087061MD1810071+9999ME1314909OA149900571REMSYN088AAXX  01044 06798 33/// /2402 11094 21147 38706 48490 58007 333 55300 20000 91111 91207;
0149067980999992011010105004+46800+010283FM-12+129899999V0202501N003119999999N9999999N1-00831-01241999999ADDMA1999999087011MD1810091+9999ME1314869OA149900671REMSYN088AAXX  01054 06798 33/// /2506 11083 21124 38701 48486 58009 333 55300 20000 91113 91206;
0216067980999992011010106004+46800+010283FM-12+129899999V0202401N001019999999N9999999N1-00921-01521999999ADDAL19900091GJ103009IA2999-01209KA1999N-01041MA1999999087021MD1710071+9999ME1314879OA149900721REMSYN112AAXX  01064 06798 33/// /2402 11092 21152 38702 48487 57007 333 21104 3/112 55050 55300 20000 70000 91114 91208;
0149067980999992011010107004+46800+010283FM-12+129899999V0202401N001519999999N9999999N1-00951-01491999999ADDMA1999999087021MD1710041+9999ME1314879OA149900721REMSYN088AAXX  01074 06798 33/// /2403 11095 21149 38702 48487 57004 333 55300 20000 91114 91207;
0149067980999992011010108004+46800+010283FM-12+129899999V0202601N001519999999N9999999N1-00871-01541999999ADDMA1999999087031MD1319999+9999ME1314889OA149900511REMSYN088AAXX  01084 06798 33/// /2603 11087 21154 38703 48488 53/// 333 55300 20043 91110 91204;
0096067980999992011010109004+46800+010283FM-12+129899999V0209999C000019999999N9999999N1-00901-01531999999ADDMA1999999087041ME1314899REMSYN060AAXX  01094 06798 43/// /0000 11090 21153 38704 48489 5////;
0096067980999992011010110004+46800+010283FM-12+129899999V0202301N001519999999N9999999N1-00621-01201999999ADDMA1999999086981ME1314859REMSYN060AAXX  01104 06798 43/// /2303 11062 21120 38698 48485 5////;
0149067980999992011010111004+46800+010283FM-12+129899999V0202201N001519999999N9999999N1-00421-01171999999ADDMA1999999086911MD1710121+9999ME1314809OA149900571REMSYN088AAXX  01114 06798 33/// /2203 11042 21117 38691 48480 57012 333 553// 2//// 91111 91206;
0096067980999992011010112004+46800+010283FM-12+129899999V0201601N000519999999N9999999N1-00321-01021999999ADDMA1999999086831ME1314749REMSYN060AAXX  01124 06798 43/// /1601 11032 21102 38683 48474 5////;
0096067980999992011010113004+46800+010283FM-12+129899999V0202301N001019999999N9999999N1-00181-01001999999ADDMA1999999086751ME1314679REMSYN060AAXX  01134 06798 43/// /2302 11018 21100 38675 48467 5////;
0096067980999992011010114004+46800+010283FM-12+129899999V0202501N001519999999N9999999N1-00261-01011999999ADDMA1999999086721ME1314649REMSYN060AAXX  01144 06798 43/// /2503 11026 21101 38672 48464 5////;
0096067980999992011010115004+46800+010283FM-12+129899999V0202601N002119999999N9999999N1-00381-01011999999ADDMA1999999086731ME1314649REMSYN060AAXX  01154 06798 43/// /2604 11038 21101 38673 48464 5////;
0096067980999992011010116004+46800+010283FM-12+129899999V0202601N001519999999N9999999N1-00431-01001999999ADDMA1999999086731ME1314649REMSYN060AAXX  01164 06798 43/// /2603 11043 21100 38673 48464 5////;
0096067980999992011010117004+46800+010283FM-12+129899999V0202901N000519999999N9999999N1-00521-01001999999ADDMA1999999086721ME1314639REMSYN060AAXX  01174 06798 43/// /2901 11052 21100 38672 48463 5////;
0096067980999992011010118004+46800+010283FM-12+129899999V0202901N001019999999N9999999N1-00501-01061999999ADDMA1999999086711ME1314629REMSYN060AAXX  01184 06798 43/// /2902 11050 21106 38671 48462 5////;
0112067980999992011010119004+46800+010283FM-12+129899999V0202601N001519999999N9999999N1-00601-01071999999ADDMA1999999086701ME1314609REMSYN076AAXX  01194 06798 33/// /2603 11060 21107 38670 48460 5//// 333 553// 20000;
0149067980999992011010120004+46800+010283FM-12+129899999V0202601N001519999999N9999999N1-00601-01091999999ADDMA1999999086731MD1510011+9999ME1314639OA149900261REMSYN088AAXX  01204 06798 33/// /2603 11060 21109 38673 48463 55001 333 55300 20000 91105 91203;
0149067980999992011010121004+46800+010283FM-12+129899999V0202401N001019999999N9999999N1-00721-01051999999ADDMA1999999086751MD1210041+9999ME1314649OA149900411REMSYN088AAXX  01214 06798 33/// /2402 11072 21105 38675 48464 52004 333 55300 20000 91108 91204;
0149067980999992011010122004+46800+010283FM-12+129899999V0209999C000019999999N9999999N1-00721-01131999999ADDMA1999999086751MD1210051+9999ME1314649OA149900311REMSYN088AAXX  01224 06798 33/// /0000 11072 21113 38675 48464 52005 333 55300 20000 91106 91204;
0149067980999992011010123004+46800+010283FM-12+129899999V0202501N002619999999N9999999N1-00791-01111999999ADDMA1999999086711MD1810021+9999ME1314609OA149900411REMSYN088AAXX  01234 06798 33/// /2505 11079 21111 38671 48460 58002 333 55300 20000 91108 91205;
0149067980999992011010200004+46800+010283FM-12+129899999V0202601N003119999999N9999999N1-00751-01171999999ADDMA1999999086651MD1810101+9999ME1314559OA149900511REMSYN088AAXX  02004 06798 33/// /2606 11075 21117 38665 48455 58010 333 55300 20000 91110 91207;
0149067980999992011010201004+46800+010283FM-12+129899999V0202601N003119999999N9999999N1-00691-01191999999ADDMA1999999086601MD1710151+9999ME1314519OA149900571REMSYN088AAXX  02014 06798 33/// /2606 11069 21119 38660 48451 57015 333 55300 20000 91111 91207;
0096067980999992011010202004+46800+010283FM-12+129899999V0202601N003619999999N9999999N1-00761-01211999999ADDMA1999999086591ME1314499REMSYN060AAXX  02024 06798 43/// /2607 11076 21121 38659 48449 5////;
0096067980999992011010203004+46800+010283FM-12+129899999V0202501N001519999999N9999999N1-00911-01221999999ADDMA1999999086551ME1314459REMSYN060AAXX  02034 06798 43/// /2503 11091 21122 38655 48445 5////;
0096067980999992011010204004+46800+010283FM-12+129899999V0201901N000519999999N9999999N1-00951-01241999999ADDMA1999999086561ME1314469REMSYN060AAXX  02044 06798 43/// /1901 11095 21124 38656 48446 5////;
0096067980999992011010205004+46800+010283FM-12+129899999V0200401N000519999999N9999999N1-00931-01271999999ADDMA1999999086591ME1314489REMSYN060AAXX  02054 06798 43/// /0401 11093 21127 38659 48448 5////;
0174067980999992011010206004+46800+010283FM-12+129899999V0200601N001519999999N9999999N1-01081-01321999999ADDGJ103069IA2999-01309KA1999N-01041MA1999999086581ME1314479OA149900571REMSYN094AAXX  02064 06798 33/// /0603 11108 21132 38658 48447 5//// 333 21104 3/113 55051 91111 91207;
0149067980999992011010207004+46800+010283FM-12+129899999V0202501N000519999999N9999999N1-01131-01331999999ADDMA1999999086631MD1210071+9999ME1314519OA149900261REMSYN088AAXX  02074 06798 33/// /2501 11113 21133 38663 48451 52007 333 55300 20000 91105 91204;
0149067980999992011010208004+46800+010283FM-12+129899999V0200201N000519999999N9999999N1-01131-01351999999ADDMA1999999086701MD1210111+9999ME1314579OA149900261REMSYN088AAXX  02084 06798 33/// /0201 11113 21135 38670 48457 52011 333 55300 20043 91105 91204;
0149067980999992011010209004+46800+010283FM-12+129899999V0202901N000519999999N9999999N1-01131-01331999999ADDMA1999999086731MD1210151+9999ME1314609OA149900461REMSYN088AAXX  02094 06798 33/// /2901 11113 21133 38673 48460 52015 333 55300 20115 91109 91206;
0149067980999992011010210004+46800+010283FM-12+129899999V0202601N001019999999N9999999N1-00891-01251999999ADDMA1999999086741MD1210111+9999ME1314629OA149900261REMSYN088AAXX  02104 06798 33/// /2602 11089 21125 38674 48462 52011 333 55306 20616 91105 91203;
0149067980999992011010211004+46800+010283FM-12+129899999V0201901N001019999999N9999999N1-00591-01051999999ADDMA1999999086661MD1810041+9999ME1314579OA149900261REMSYN088AAXX  02114 06798 33/// /1902 11059 21105 38666 48457 58004 333 553// 2//// 91105 91203;
0149067980999992011010212004+46800+010283FM-12+129899999V0209999C000019999999N9999999N1-00551-00991999999ADDMA1999999086591MD1710141+9999ME1314519OA149900571REMSYN088AAXX  02124 06798 33/// /0000 11055 21099 38659 48451 57014 333 553// 2//// 91111 91207;
0149067980999992011010213004+46800+010283FM-12+129899999V0202001N001019999999N9999999N1-00371-00931999999ADDMA1999999086571MD1610171+9999ME1314509OA149900151REMSYN088AAXX  02134 06798 33/// /2002 11037 21093 38657 48450 56017 333 553// 2//// 91103 91202;
0112067980999992011010214004+46800+010283FM-12+129899999V0202401N001019999999N9999999N1-00461-00951999999ADDMA1999999086591ME1314519REMSYN076AAXX  02144 06798 33/// /2402 11046 21095 38659 48451 5//// 333 553// 20918;
0149067980999992011010215004+46800+010283FM-12+129899999V0202401N001019999999N9999999N1-00681-01031999999ADDMA1999999086641MD1310051+9999ME1314549OA149900311REMSYN088AAXX  02154 06798 33/// /2402 11068 21103 38664 48454 53005 333 55303 20266 91106 91203;
0149067980999992011010216004+46800+010283FM-12+129899999V0202601N000519999999N9999999N1-00651-00991999999ADDMA1999999086701MD1310131+9999ME1314609OA149900261REMSYN088AAXX  02164 06798 33/// /2601 11065 21099 38670 48460 53013 333 55300 20072 91105 91203;
0149067980999992011010217004+46800+010283FM-12+129899999V0202501N002119999999N9999999N1-00631-01001999999ADDMA1999999086751MD1210161+9999ME1314659OA149900361REMSYN088AAXX  02174 06798 33/// /2504 11063 21100 38675 48465 52016 333 55300 20000 91107 91204;
0168067980999992011010218004+46800+010283FM-12+129899999V0209999C000019999999N9999999N1-00721-01031999999ADDKA1120M-00361MA1999999086791MD1310151+9999ME1314689OA149900361REMSYN094AAXX  02184 06798 33/// /0000 11072 21103 38679 48468 53015 333 11036 55300 20000 91107 91204;
0149067980999992011010219004+46800+010283FM-12+129899999V0209999C000019999999N9999999N1-00701-01031999999ADDMA1999999086841MD1110141+9999ME1314729OA149900361REMSYN088AAXX  02194 06798 33/// /0000 11070 21103 38684 48472 51014 333 55300 20000 91107 91204;
0149067980999992011010220004+46800+010283FM-12+129899999V0209999C000019999999N9999999N1-00831-01181999999ADDMA1999999086881MD1110131+9999ME1314759OA149900151REMSYN088AAXX  02204 06798 33/// /0000 11083 21118 38688 48475 51013 333 55300 20000 91103 91201;
0149067980999992011010221004+46800+010283FM-12+129899999V0209999C000019999999N9999999N1-00831-01131999999ADDMA1999999086901MD1110111+9999ME1314779OA149900361REMSYN088AAXX  02214 06798 33/// /0000 11083 21113 38690 48477 51011 333 55300 20000 91107 91204;
0149067980999992011010222004+46800+010283FM-12+129899999V0209999C000019999999N9999999N1-00841-01081999999ADDMA1999999086931MD1110091+9999ME1314799OA149900151REMSYN088AAXX  02224 06798 33/// /0000 11084 21108 38693 48479 51009 333 55300 20000 91103 91202;
0149067980999992011010223004+46800+010283FM-12+129899999V0202601N003119999999N9999999N1-00841-01321999999ADDMA1999999086911MD1210031+9999ME1314789OA149900511REMSYN088AAXX  02234 06798 33/// /2606 11084 21132 38691 48478 52003 333 55300 20004 91110 91206;
0149067980999992011010300004+46800+010283FM-12+129899999V0202701N001519999999N9999999N1-00911-01371999999ADDMA1999999086921MD1010021+9999ME1314789OA149900511REMSYN088AAXX  03004 06798 33/// /2703 11091 21137 38692 48478 50002 333 55300 20000 91110 91206;
0149067980999992011010301004+46800+010283FM-12+129899999V0202501N003119999999N9999999N1-00991-01551999999ADDMA1999999086941MD1510011+9999ME1314799OA149900571REMSYN088AAXX  03014 06798 33/// /2506 11099 21155 38694 48479 55001 333 55300 20000 91111 91206;
0149067980999992011010302004+46800+010283FM-12+129899999V0202501N002619999999N9999999N1-01021-01551999999ADDMA1999999086951MD1219999+9999ME1314809OA149900571REMSYN088AAXX  03024 06798 33/// /2505 11102 21155 38695 48480 52/// 333 55300 20000 91111 91206;
0096067980999992011010303004+46800+010283FM-12+129899999V0202601N001519999999N9999999N1-01111-01621999999ADDMA1999999086961ME1314809REMSYN060AAXX  03034 06798 43/// /2603 11111 21162 38696 48480 5////;
0149067980999992011010304004+46800+010283FM-12+129899999V0202401N003619999999N9999999N1-01161-01681999999ADDMA1999999086961MD1210021+9999ME1314809OA149900571REMSYN088AAXX  03044 06798 33/// /2407 11116 21168 38696 48480 52002 333 55300 20000 91111 91207;
0149067980999992011010305004+46800+010283FM-12+129899999V0202601N003119999999N9999999N1-01231-01951999999ADDMA1999999086971MD1210021+9999ME1314809OA149900571REMSYN088AAXX  03054 06798 33/// /2606 11123 21195 38697 48480 52002 333 55300 20000 91111 91207;
0216067980999992011010306004+46800+010283FM-12+129899999V0202601N002619999999N9999999N1-01331-02261999999ADDAL19900091GJ102949IA2999-01409KA1999N-01311MA1999999086991MD1210031+9999ME1314819OA149900571REMSYN112AAXX  03064 06798 33/// /2605 11133 21226 38699 48481 52003 333 21131 3/114 55049 55300 20000 70000 91111 91207;
0149067980999992011010307004+46800+010283FM-12+129899999V0202601N003619999999N9999999N1-01431-02061999999ADDMA1999999087031MD1210071+9999ME1314849OA149900571REMSYN088AAXX  03074 06798 33/// /2607 11143 21206 38703 48484 52007 333 55300 20000 91111 91207;
0149067980999992011010308004+46800+010283FM-12+129899999V0202601N004619999999N9999999N1-01421-01841999999ADDMA1999999087071MD1219999+9999ME1314889OA149900721REMSYN088AAXX  03084 06798 33/// /2609 11142 21184 38707 48488 52/// 333 55300 20043 91114 91209;
0112067980999992011010309004+46800+010283FM-12+129899999V0202501N003119999999N9999999N1-01431-01721999999ADDMA1999999087081ME1314889REMSYN076AAXX  03094 06798 33/// /2506 11143 21172 38708 48488 5//// 333 553// 20108;
0149067980999992011010310004+46800+010283FM-12+129899999V0202401N004119999999N9999999N1-01201-02021999999ADDMA1999999087091MD1210061+9999ME1314919OA149900671REMSYN088AAXX  03104 06798 33/// /2408 11120 21202 38709 48491 52006 333 55308 20911 91113 91209;
0149067980999992011010311004+46800+010283FM-12+129899999V0202201N002119999999N9999999N1-00911-01751999999ADDMA1999999087051MD1810021+9999ME1314899OA149900671REMSYN088AAXX  03114 06798 33/// /2204 11091 21175 38705 48489 58002 333 553// 2//// 91113 91209;
0149067980999992011010312004+46800+010283FM-12+129899999V0202001N001019999999N9999999N1-00911-01611999999ADDMA1999999086981MD1710101+9999ME1314839OA149900721REMSYN088AAXX  03124 06798 33/// /2002 11091 21161 38698 48483 57010 333 553// 2//// 91114 91209;
0149067980999992011010313004+46800+010283FM-12+129899999V0201801N000519999999N9999999N1-00751-01551999999ADDMA1999999086921MD1810171+9999ME1314799OA149900311REMSYN088AAXX  03134 06798 33/// /1801 11075 21155 38692 48479 58017 333 553// 2//// 91106 91204;
0112067980999992011010314004+46800+010283FM-12+129899999V0202301N001519999999N9999999N1-00861-01501999999ADDMA1999999086901ME1314769REMSYN076AAXX  03144 06798 33/// /2303 11086 21150 38690 48476 5//// 333 553// 20965;
0112067980999992011010315004+46800+010283FM-12+129899999V0202501N002619999999N9999999N1-00991-01891999999ADDMA1999999086901ME1314769REMSYN076AAXX  03154 06798 33/// /2505 11099 21189 38690 48476 5//// 333 553// 20270;
0149067980999992011010316004+46800+010283FM-12+129899999V0202601N001019999999N9999999N1-01091-01961999999ADDMA1999999086931MD1310011+9999ME1314789OA149900461REMSYN088AAXX  03164 06798 33/// /2602 11109 21196 38693 48478 53001 333 55300 20032 91109 91206;
0149067980999992011010317004+46800+010283FM-12+129899999V0202601N001519999999N9999999N1-01221-02091999999ADDMA1999999086951MD1310051+9999ME1314799OA149900461REMSYN088AAXX  03174 06798 33/// /2603 11122 21209 38695 48479 53005 333 55300 20000 91109 91206;
0168067980999992011010318004+46800+010283FM-12+129899999V0202501N002119999999N9999999N1-01251-02031999999ADDKA1120M-00721MA1999999086961MD1110061+9999ME1314799OA149900721REMSYN094AAXX  03184 06798 33/// /2504 11125 21203 38696 48479 51006 333 11072 55300 20000 91114 91209;
0149067980999992011010319004+46800+010283FM-12+129899999V0202601N003119999999N9999999N1-01221-02341999999ADDMA1999999086961MD1110031+9999ME1314799OA149900511REMSYN088AAXX  03194 06798 33/// /2606 11122 21234 38696 48479 51003 333 55300 20000 91110 91206;
0149067980999992011010320004+46800+010283FM-12+129899999V0202501N002119999999N9999999N1-01231-01801999999ADDMA1999999086951MD1410001+9999ME1314789OA149900571REMSYN088AAXX  03204 06798 33/// /2504 11123 21180 38695 48478 54000 333 55300 20000 91111 91207;
0149067980999992011010321004+46800+010283FM-12+129899999V0202501N003119999999N9999999N1-01311-01811999999ADDMA1999999086951MD1710011+9999ME1314789OA149900571REMSYN088AAXX  03214 06798 33/// /2506 11131 21181 38695 48478 57001 333 55300 20000 91111 91207;
0149067980999992011010322004+46800+010283FM-12+129899999V0202501N003119999999N9999999N1-01351-01841999999ADDMA1999999086971MD1210011+9999ME1314799OA149900511REMSYN088AAXX  03224 06798 33/// /2506 11135 21184 38697 48479 52001 333 55300 20000 91110 91206;
0149067980999992011010323004+46800+010283FM-12+129899999V0202501N003119999999N9999999N1-01351-02091999999ADDMA1999999086961MD1010011+9999ME1314789OA149900621REMSYN088AAXX  03234 06798 33/// /2506 11135 21209 38696 48478 50001 333 55300 20000 91112 91207;
0149067980999992011010400004+46800+010283FM-12+129899999V0202101N001019999999N9999999N1-01521-01791999999ADDMA1999999086941MD1810011+9999ME1314769OA149900621REMSYN088AAXX  04004 06798 33/// /2102 11152 21179 38694 48476 58001 333 55300 20000 91112 91207;
0149067980999992011010401004+46800+010283FM-12+129899999V0202501N001019999999N9999999N1-01471-02181999999ADDMA1999999086921MD1810051+9999ME1314749OA149900571REMSYN088AAXX  04014 06798 33/// /2502 11147 21218 38692 48474 58005 333 55300 20000 91111 91207;
0149067980999992011010402004+46800+010283FM-12+129899999V0203301N000519999999N9999999N1-01571-02661999999ADDMA1999999086901MD1619999+9999ME1314729OA149900411REMSYN088AAXX  04024 06798 33/// /3301 11157 21266 38690 48472 56/// 333 55300 20000 91108 91204;
0149067980999992011010403004+46800+010283FM-12+129899999V0202601N000519999999N9999999N1-01511-02121999999ADDMA1999999086851MD1810091+9999ME1314689OA149900621REMSYN088AAXX  04034 06798 33/// /2601 11151 21212 38685 48468 58009 333 55300 20000 91112 91207;
0149067980999992011010404004+46800+010283FM-12+129899999V0200301N000519999999N9999999N1-01441-02111999999ADDMA1999999086821MD1810101+9999ME1314669OA149900211REMSYN088AAXX  04044 06798 33/// /0301 11144 21211 38682 48466 58010 333 55300 20000 91104 91202;
0149067980999992011010405004+46800+010283FM-12+129899999V0202201N000519999999N9999999N1-01451-02291999999ADDMA1999999086771MD1610131+9999ME1314619OA149900151REMSYN088AAXX  04054 06798 33/// /2201 11145 21229 38677 48461 56013 333 55300 20000 91103 91202;
0216067980999992011010406004+46800+010283FM-12+129899999V0203201N001019999999N9999999N1-01331-01761999999ADDAL19900091GJ103129IA2999-01909KA1999N-01571MA1999999086711MD1810141+9999ME1314579OA149900621REMSYN112AAXX  04064 06798 33/// /3202 11133 21176 38671 48457 58014 333 21157 3/119 55052 55300 20000 70000 91112 91207;
0149067980999992011010407004+46800+010283FM-12+129899999V0202501N001019999999N9999999N1-01371-01721999999ADDMA1999999086721MD1710101+9999ME1314579OA149900151REMSYN088AAXX  04074 06798 33/// /2502 11137 21172 38672 48457 57010 333 55300 20004 91103 91202;
0149067980999992011010408004+46800+010283FM-12+129899999V0200401N000519999999N9999999N1-01331-02091999999ADDMA1999999086761MD1519999+9999ME1314619OA149900151REMSYN088AAXX  04084 06798 33/// /0401 11133 21209 38676 48461 55/// 333 55300 20050 91103 91202;
0112067980999992011010409004+46800+010283FM-12+129899999V0202701N001019999999N9999999N1-01211-01871999999ADDMA1999999086741ME1314609REMSYN076AAXX  04094 06798 33/// /2702 11121 21187 38674 48460 5//// 333 553// 20148;
0149067980999992011010410004+46800+010283FM-12+129899999V0200901N000519999999N9999999N1-01071-02031999999ADDMA1999999086731MD1010011+9999ME1314609OA149900151REMSYN088AAXX  04104 06798 33/// /0901 11107 21203 38673 48460 50001 333 55300 20533 91103 91202;
0149067980999992011010411004+46800+010283FM-12+129899999V0200601N001019999999N9999999N1-00961-01731999999ADDMA1999999086651MD1710111+9999ME1314549OA149900151REMSYN088AAXX  04114 06798 33/// /0602 11096 21173 38665 48454 57011 333 55300 20731 91103 91202;
0149067980999992011010412004+46800+010283FM-12+129899999V0201201N001019999999N9999999N1-00681-01641999999ADDMA1999999086551MD1810191+9999ME1314469OA149900411REMSYN088AAXX  04124 06798 33/// /1202 11068 21164 38655 48446 58019 333 55309 2//// 91108 91204;
0149067980999992011010413004+46800+010283FM-12+129899999V0201401N000519999999N9999999N1-00731-01561999999ADDMA1999999086501MD1610231+9999ME1314429OA149900211REMSYN088AAXX  04134 06798 33/// /1401 11073 21156 38650 48442 56023 333 553// 2//// 91104 91203;
0112067980999992011010414004+46800+010283FM-12+129899999V0201401N001019999999N9999999N1-00701-01561999999ADDMA1999999086501ME1314429REMSYN076AAXX  04144 06798 33/// /1402 11070 21156 38650 48442 5//// 333 553// 20842;
0096067980999992011010415004+46800+010283FM-12+129899999V0202501N000519999999N9999999N1-00861-01841999999ADDMA1999999086521ME1314439REMSYN060AAXX  04154 06798 43/// /2501 11086 21184 38652 48443 5////;
0149067980999992011010416004+46800+010283FM-12+129899999V0202601N001519999999N9999999N1-00901-01841999999ADDMA1999999086541MD1210041+9999ME1314449OA149900361REMSYN088AAXX  04164 06798 33/// /2603 11090 21184 38654 48444 52004 333 55300 20032 91107 91205;
0149067980999992011010417004+46800+010283FM-12+129899999V0202601N001519999999N9999999N1-01011-01961999999ADDMA1999999086571MD1310071+9999ME1314469OA149900361REMSYN088AAXX  04174 06798 33/// /2603 11101 21196 38657 48446 53007 333 55300 20000 91107 91205;
0168067980999992011010418004+46800+010283FM-12+129899999V0202701N000519999999N9999999N1-01131-01891999999ADDKA1120M-00511MA1999999086601MD1110081+9999ME1314489OA149900361REMSYN094AAXX  04184 06798 33/// /2701 11113 21189 38660 48448 51008 333 11051 55300 20000 91107 91205;
0149067980999992011010419004+46800+010283FM-12+129899999V0202601N001519999999N9999999N1-01121-01981999999ADDMA1999999086631MD1110091+9999ME1314519OA149900361REMSYN088AAXX  04194 06798 33/// /2603 11112 21198 38663 48451 51009 333 55300 20000 91107 91203;
0149067980999992011010420004+46800+010283FM-12+129899999V0202501N001019999999N9999999N1-01191-01831999999ADDMA1999999086631MD1210061+9999ME1314519OA149900361REMSYN088AAXX  04204 06798 33/// /2502 11119 21183 38663 48451 52006 333 55300 20000 91107 91204;
0149067980999992011010421004+46800+010283FM-12+129899999V0202601N001019999999N9999999N1-01181-02081999999ADDMA1999999086641MD1210041+9999ME1314529OA149900361REMSYN088AAXX  04214 06798 33/// /2602 11118 21208 38664 48452 52004 333 55300 20000 91107 91205;
0149067980999992011010422004+46800+010283FM-12+129899999V0202501N002619999999N9999999N1-01201-01991999999ADDMA1999999086661MD1210031+9999ME1314539OA149900461REMSYN088AAXX  04224 06798 33/// /2505 11120 21199 38666 48453 52003 333 55300 20000 91109 91205;
0149067980999992011010423004+46800+010283FM-12+129899999V0202601N002119999999N9999999N1-01261-01851999999ADDMA1999999086661MD1110031+9999ME1314539OA149900461REMSYN088AAXX  04234 06798 33/// /2604 11126 21185 38666 48453 51003 333 55300 20000 91109 91205;
0149067980999992011010500004+46800+010283FM-12+129899999V0202401N000519999999N9999999N1-01341-01961999999ADDMA1999999086631MD1810011+9999ME1314509OA149900461REMSYN088AAXX  05004 06798 33/// /2401 11134 21196 38663 48450 58001 333 55300 20000 91109 91205;
0149067980999992011010501004+46800+010283FM-12+129899999V0202501N001019999999N9999999N1-01321-01671999999ADDMA1999999086601MD1810061+9999ME1314479OA149900411REMSYN088AAXX  05014 06798 33/// /2502 11132 21167 38660 48447 58006 333 55300 20000 91108 91204;
0149067980999992011010502004+46800+010283FM-12+129899999V0202601N001519999999N9999999N1-01311-01921999999ADDMA1999999086601MD1710061+9999ME1314479OA149900361REMSYN088AAXX  05024 06798 33/// /2603 11131 21192 38660 48447 57006 333 55300 20000 91107 91204;
0096067980999992011010503004+46800+010283FM-12+129899999V0203301N000519999999N9999999N1-01321-02371999999ADDMA1999999086581ME1314459REMSYN060AAXX  05034 06798 43/// /3301 11132 21237 38658 48445 5////;
0149067980999992011010504004+46800+010283FM-12+129899999V0209999C000019999999N9999999N1-01471-02121999999ADDMA1999999086611MD1310011+9999ME1314479OA149900311REMSYN088AAXX  05044 06798 33/// /0000 11147 21212 38661 48447 53001 333 55300 20000 91106 91203;
0168067980999992011010505004+46800+010283FM-12+129899999V0202901N000519999999N9999999N1-01461-01831999999ADDMA1999999086601MD1410001+9999ME1314469OA149900211REMSYN088AAXX  05054 06798 33/// /2901 11146 21183 38660 48446 52000 333 55300 20000 91104 91202;EQDQ01+000022APCTEN
0216067980999992011010506004+46800+010283FM-12+129899999V0202701N001019999999N9999999N1-01411-02662999999ADDAL19900091GJ101989IA2999-01809KA1999N-01531MA1999999086621MD1210041+9999ME1314489OA149900461REMSYN112AAXX  05064 06798 33/// /2702 11141 21266 38662 48448 52004 333 21153 3/118 55033 55300 20000 70000 91109 91205;
0149067980999992011010507004+46800+010283FM-12+129899999V0202701N001519999999N9999999N1-01391-02551999999ADDMA1999999086631MD1210021+9999ME1314499OA149900261REMSYN088AAXX  05074 06798 33/// /2703 11139 21255 38663 48449 52002 333 55300 20000 91105 91203;
0149067980999992011010508004+46800+010283FM-12+129899999V0202201N001019999999N9999999N1-01581-02201999999ADDMA1999999086661MD1119999+9999ME1314519OA149900361REMSYN088AAXX  05084 06798 33/// /2202 11158 21220 38666 48451 51/// 333 55300 20047 91107 91203;
0149067980999992011010509004+46800+010283FM-12+129899999V0209999C000019999999N9999999N1-01481-02351999999ADDMA1999999086681MD1210061+9999ME1314539OA149900361REMSYN088AAXX  05094 06798 33/// /0000 11148 21235 38668 48453 52006 333 55300 20108 91107 91203;
0149067980999992011010510004+46800+010283FM-12+129899999V0201501N001019999999N9999999N1-01091-01741999999ADDMA1999999086671MD1210041+9999ME1314559OA149900411REMSYN088AAXX  05104 06798 33/// /1502 11109 21174 38667 48455 52004 333 55309 20968 91108 91203;
0149067980999992011010511004+46800+010283FM-12+129899999V0201301N000519999999N9999999N1-00811-01721999999ADDMA1999999086611MD1810051+9999ME1314519OA149900411REMSYN088AAXX  05114 06798 33/// /1301 11081 21172 38661 48451 58005 333 553// 2//// 91108 91203;
0112067980999992011010512004+46800+010283FM-12+129899999V0200601N000519999999N9999999N1-00751-01711999999ADDMA1999999086521ME1314439REMSYN076AAXX  05124 06798 33/// /0601 11075 21171 38652 48443 5//// 333 553// 2////;
0149067980999992011010513004+46800+010283FM-12+129899999V0201401N000519999999N9999999N1-00661-01641999999ADDMA1999999086481MD1610191+9999ME1314409OA149900151REMSYN088AAXX  05134 06798 33/// /1401 11066 21164 38648 48440 56019 333 553// 2//// 91103 91202;
0096067980999992011010514004+46800+010283FM-12+129899999V0202401N001519999999N9999999N1-00691-01611999999ADDMA1999999086471ME1314399REMSYN060AAXX  05144 06798 43/// /2403 11069 21161 38647 48439 5////;
0096067980999992011010515004+46800+010283FM-12+129899999V0202501N001019999999N9999999N1-00821-01791999999ADDMA1999999086511ME1314429REMSYN060AAXX  05154 06798 43/// /2502 11082 21179 38651 48442 5////;
0149067980999992011010516004+46800+010283FM-12+129899999V0202601N001019999999N9999999N1-00881-01771999999ADDMA1999999086551MD1210071+9999ME1314459OA149900311REMSYN088AAXX  05164 06798 33/// /2602 11088 21177 38655 48445 52007 333 55300 20047 91106 91204;
0149067980999992011010517004+46800+010283FM-12+129899999V0202901N001019999999N9999999N1-00851-01851999999ADDMA1999999086601MD1310131+9999ME1314509OA149900311REMSYN088AAXX  05174 06798 33/// /2902 11085 21185 38660 48450 53013 333 55300 20000 91106 91204;
0168067980999992011010518004+46800+010283FM-12+129899999V0209999C000019999999N9999999N1-01071-01891999999ADDKA1120M-00561MA1999999086601MD1219999+9999ME1314499OA149900411REMSYN094AAXX  05184 06798 33/// /0000 11107 21189 38660 48449 52/// 333 11056 55300 20000 91108 91204;
0149067980999992011010519004+46800+010283FM-12+129899999V0202501N001519999999N9999999N1-00991-01841999999ADDMA1999999086621MD1210071+9999ME1314519OA149900261REMSYN088AAXX  05194 06798 33/// /2503 11099 21184 38662 48451 52007 333 55300 20000 91105 91203;
0149067980999992011010520004+46800+010283FM-12+129899999V0209999C000019999999N9999999N1-01131-01871999999ADDMA1999999086651MD1219999+9999ME1314539OA149900261REMSYN088AAXX  05204 06798 33/// /0000 11113 21187 38665 48453 52/// 333 55300 20000 91105 91203;
0112067980999992011010521004+46800+010283FM-12+129899999V0200301N001019999999N9999999N1-01131-01911999999ADDMA1999999086671ME1314549REMSYN076AAXX  05214 06798 33/// /0302 11113 21191 38667 48454 5//// 333 553// 20000;
0149067980999992011010522004+46800+010283FM-12+129899999V0202901N000519999999N9999999N1-01211-02011999999ADDMA1999999086701MD1210081+9999ME1314579OA149900311REMSYN088AAXX  05224 06798 33/// /2901 11121 21201 38670 48457 52008 333 55300 20000 91106 91203;
0149067980999992011010523004+46800+010283FM-12+129899999V0202701N000519999999N9999999N1-01191-01991999999ADDMA1999999086721MD1219999+9999ME1314599OA149900151REMSYN088AAXX  05234 06798 33/// /2701 11119 21199 38672 48459 52/// 333 55300 20000 91103 91202;
0096067980999992011010600004+46800+010283FM-12+129899999V0209999C000019999999N9999999N1-01171-01951999999ADDMA1999999086711ME1314589REMSYN060AAXX  06004 06798 43/// /0000 11117 21195 38671 48458 5////;
0096067980999992011010601004+46800+010283FM-12+129899999V0200301N000519999999N9999999N1-01351-01851999999ADDMA1999999086681ME1314549REMSYN060AAXX  06014 06798 43/// /0301 11135 21185 38668 48454 5////;
0096067980999992011010602004+46800+010283FM-12+129899999V0200101N000519999999N9999999N1-01271-01941999999ADDMA1999999086691ME1314559REMSYN060AAXX  06024 06798 43/// /0101 11127 21194 38669 48455 5////;
0096067980999992011010603004+46800+010283FM-12+129899999V0202701N001019999999N9999999N1-01161-01961999999ADDMA1999999086681ME1314559REMSYN060AAXX  06034 06798 43/// /2702 11116 21196 38668 48455 5////;
0096067980999992011010604004+46800+010283FM-12+129899999V0209999C000019999999N9999999N1-01091-01841999999ADDMA1999999086631ME1314519REMSYN060AAXX  06044 06798 43/// /0000 11109 21184 38663 48451 5////;
0096067980999992011010605004+46800+010283FM-12+129899999V0209999C000019999999N9999999N1-01091-01731999999ADDMA1999999086611ME1314499REMSYN060AAXX  06054 06798 43/// /0000 11109 21173 38661 48449 5////;
0143067980999992011010606004+46800+010283FM-12+129899999V0202301N000519999999N9999999N1-01111-01671999999ADDIA2999-01509KA1999N-01351MA1999999086631ME1314519REMSYN082AAXX  06064 06798 43/// /2301 11111 21167 38663 48451 5//// 333 21135 3/115 55054;
0096067980999992011010607004+46800+010283FM-12+129899999V0209999C000019999999N9999999N1-01041-01721999999ADDMA1999999086641ME1314529REMSYN060AAXX  06074 06798 43/// /0000 11104 21172 38664 48452 5////;
0112067980999992011010608004+46800+010283FM-12+129899999V0200501N000519999999N9999999N1-01011-01621999999ADDMA1999999086681ME1314569REMSYN076AAXX  06084 06798 33/// /0501 11101 21162 38668 48456 5//// 333 553// 20083;
0096067980999992011010609004+46800+010283FM-12+129899999V0203601N000519999999N9999999N1-00791-01551999999ADDMA1999999086661ME1314569REMSYN060AAXX  06094 06798 43/// /3601 11079 21155 38666 48456 5////;
0149067980999992011010610004+46800+010283FM-12+129899999V0200501N000519999999N9999999N1-00751-01341999999ADDMA1999999086691MD1210051+9999ME1314589OA149900211REMSYN088AAXX  06104 06798 33/// /0501 11075 21134 38669 48458 52005 333 55300 20562 91104 91202;
0149067980999992011010611004+46800+010283FM-12+129899999V0209999C000019999999N9999999N1-00531-01371999999ADDMA1999999086641MD1810041+9999ME1314559OA149900151REMSYN088AAXX  06114 06798 33/// /0000 11053 21137 38664 48455 58004 333 55309 2//// 91103 91201;
0149067980999992011010612004+46800+010283FM-12+129899999V0201101N001019999999N9999999N1-00341-01271999999ADDMA1999999086581MD1710081+9999ME1314519OA149900311REMSYN088AAXX  06124 06798 33/// /1102 11034 21127 38658 48451 57008 333 553// 2//// 91106 91203;
0149067980999992011010613004+46800+010283FM-12+129899999V0202201N000519999999N9999999N1-00261-01221999999ADDMA1999999086551MD1610141+9999ME1314499OA149900261REMSYN088AAXX  06134 06798 33/// /2201 11026 21122 38655 48449 56014 333 55306 2//// 91105 91202;
0096067980999992011010614004+46800+010283FM-12+129899999V0209999C000019999999N9999999N1-00281-01111999999ADDMA1999999086541ME1314489REMSYN060AAXX  06144 06798 43/// /0000 11028 21111 38654 48448 5////;
0096067980999992011010615004+46800+010283FM-12+129899999V0209999C000019999999N9999999N1-00291-00911999999ADDMA1999999086571ME1314509REMSYN060AAXX  06154 06798 43/// /0000 11029 21091 38657 48450 5////;
0149067980999992011010616004+46800+010283FM-12+129899999V0209999C000019999999N9999999N1-00171-00981999999ADDMA1999999086591MD1210041+9999ME1314539OA149900361REMSYN088AAXX  06164 06798 33/// /0000 11017 21098 38659 48453 52004 333 55300 20065 91107 91203;
0149067980999992011010617004+46800+010283FM-12+129899999V0200501N000519999999N9999999N1-00271-00871999999ADDMA1999999086601MD1210061+9999ME1314539OA149900211REMSYN088AAXX  06174 06798 33/// /0501 11027 21087 38660 48453 52006 333 55300 20004 91104 91202;
0168067980999992011010618004+46800+010283FM-12+129899999V0201401N000519999999N9999999N1-00241-00861999999ADDKA1120M-00151MA1999999086601MD1210031+9999ME1314539OA149900361REMSYN094AAXX  06184 06798 33/// /1401 11024 21086 38660 48453 52003 333 11015 55300 20004 91107 91203;
0149067980999992011010619004+46800+010283FM-12+129899999V0202701N001019999999N9999999N1-00241-00801999999ADDMA1999999086621MD1210031+9999ME1314559OA149900151REMSYN088AAXX  06194 06798 33/// /2702 11024 21080 38662 48455 52003 333 55300 20004 91103 91202;
0149067980999992011010620004+46800+010283FM-12+129899999V0200701N000519999999N9999999N1-00381-00691999999ADDMA1999999086661MD1219999+9999ME1314589OA149900151REMSYN088AAXX  06204 06798 33/// /0701 11038 21069 38666 48458 52/// 333 55300 20004 91103 91202;
0149067980999992011010621004+46800+010283FM-12+129899999V0209999C000019999999N9999999N1-00271-00811999999ADDMA1999999086701MD1219999+9999ME1314629OA149900211REMSYN088AAXX  06214 06798 33/// /0000 11027 21081 38670 48462 52/// 333 55300 20004 91104 91202;
0149067980999992011010622004+46800+010283FM-12+129899999V0202601N000519999999N9999999N1-00231-00811999999ADDMA1999999086741MD1210121+9999ME1314669OA149900211REMSYN088AAXX  06224 06798 33/// /2601 11023 21081 38674 48466 52012 333 55300 20004 91104 91203;
0112067980999992011010623004+46800+010283FM-12+129899999V0200301N001019999999N9999999N1-00211-00721999999ADDMA1999999086791ME1314719REMSYN076AAXX  06234 06798 33/// /0302 11021 21072 38679 48471 5//// 333 553// 20004;
0096067980999992011010700004+46800+010283FM-12+129899999V0202701N001019999999N9999999N1-00241-00731999999ADDMA1999999086801ME1314719REMSYN060AAXX  07004 06798 43/// /2702 11024 21073 38680 48471 5////;
0096067980999992011010701004+46800+010283FM-12+129899999V0200101N000519999999N9999999N1-00251-00671999999ADDMA1999999086811ME1314729REMSYN060AAXX  07014 06798 43/// /0101 11025 21067 38681 48472 5////;
0096067980999992011010702004+46800+010283FM-12+129899999V0209999C000019999999N9999999N1-00341-00621999999ADDMA1999999086851ME1314759REMSYN060AAXX  07024 06798 43/// /0000 11034 21062 38685 48475 5////;
0096067980999992011010703004+46800+010283FM-12+129899999V0202601N001019999999N9999999N1-00291-00571999999ADDMA1999999086861ME1314779REMSYN060AAXX  07034 06798 43/// /2602 11029 21057 38686 48477 5////;
0149067980999992011010704004+46800+010283FM-12+129899999V0200301N002119999999N9999999N1-00331-00581999999ADDMA1999999086881MD1210071+9999ME1314789OA149900261REMSYN088AAXX  07044 06798 33/// /0304 11033 21058 38688 48478 52007 333 55300 20004 91105 91204;
0149067980999992011010705004+46800+010283FM-12+129899999V0202801N001019999999N9999999N1-00261-00661999999ADDMA1999999086861MD1010011+9999ME1314779OA149900261REMSYN088AAXX  07054 06798 33/// /2802 11026 21066 38686 48477 50001 333 55300 20004 91105 91204;
0216067980999992011010706004+46800+010283FM-12+129899999V0202501N001019999999N9999999N1-00271-00631999999ADDAL19900091GJ101569IA2999-00509KA1999N-00381MA1999999086891MD1210031+9999ME1314799OA149900311REMSYN112AAXX  07064 06798 33/// /2502 11027 21063 38689 48479 52003 333 21038 3/105 55026 55300 20004 70000 91106 91204;
0149067980999992011010707004+46800+010283FM-12+129899999V0202401N000519999999N9999999N1-00291-00581999999ADDMA1999999086981MD1210101+9999ME1314889OA149900261REMSYN088AAXX  07074 06798 33/// /2401 11029 21058 38698 48488 52010 333 55300 20004 91105 91203;
0112067980999992011010708004+46800+010283FM-12+129899999V0202701N001519999999N9999999N1-00151-00591999999ADDMA1999999087021ME1314929REMSYN076AAXX  07084 06798 33/// /2703 11015 21059 38702 48492 5//// 333 553// 20079;
0096067980999992011010709004+46800+010283FM-12+129899999V0200501N000519999999N9999999N1-00101-00441999999ADDMA1999999087021ME1314939REMSYN060AAXX  07094 06798 43/// /0501 11010 21044 38702 48493 5////;
0149067980999992011010710004+46800+010283FM-12+129899999V0200201N000519999999N9999999N1-00071-00391999999ADDMA1999999087041MD1210061+9999ME1314959OA149900261REMSYN088AAXX  07104 06798 33/// /0201 11007 21039 38704 48495 52006 333 55300 20490 91105 91203;
0149067980999992011010711004+46800+010283FM-12+129899999V0209999C000019999999N9999999N1+00101-00391999999ADDMA1999999087011MD1810011+9999ME1314939OA149900211REMSYN088AAXX  07114 06798 33/// /0000 10010 21039 38701 48493 58001 333 55300 20569 91104 91202;
0149067980999992011010712004+46800+010283FM-12+129899999V0202301N000519999999N9999999N1+00201-00301999999ADDMA1999999086941MD1710081+9999ME1314879OA149900311REMSYN088AAXX  07124 06798 33/// /2301 10020 21030 38694 48487 57008 333 55300 20529 91106 91204;
0149067980999992011010713004+46800+010283FM-12+129899999V0201101N000519999999N9999999N1+00321-00271999999ADDMA1999999086901MD1710141+9999ME1314849OA149900211REMSYN088AAXX  07134 06798 33/// /1101 10032 21027 38690 48484 57014 333 55303 20749 91104 91202;
0096067980999992011010714004+46800+010283FM-12+129899999V0209999C000019999999N9999999N1+00331-00221999999ADDMA1999999086921ME1314869REMSYN060AAXX  07144 06798 43/// /0000 10033 21022 38692 48486 5////;
0096067980999992011010715004+46800+010283FM-12+129899999V0209999C000019999999N9999999N1+00251-00191999999ADDMA1999999086921ME1314869REMSYN060AAXX  07154 06798 43/// /0000 10025 21019 38692 48486 5////;
0149067980999992011010716004+46800+010283FM-12+129899999V0209999C000019999999N9999999N1+00231-00171999999ADDMA1999999086961MD1210061+9999ME1314899OA149900211REMSYN088AAXX  07164 06798 33/// /0000 10023 21017 38696 48489 52006 333 55300 20043 91104 91202;
0149067980999992011010717004+46800+010283FM-12+129899999V0202701N001019999999N9999999N1+00241-00161999999ADDMA1999999086971MD1210051+9999ME1314909OA149900311REMSYN088AAXX  07174 06798 33/// /2702 10024 21016 38697 48490 52005 333 55300 20004 91106 91202;
0131067980999992011010718004+46800+010283FM-12+129899999V0202601N000519999999N9999999N1+00171-00161999999ADDKA1120M+00361MA1999999087001ME1314939REMSYN082AAXX  07184 06798 33/// /2601 10017 21016 38700 48493 5//// 333 10036 553// 20000;
0149067980999992011010719004+46800+010283FM-12+129899999V0200101N000519999999N9999999N1+00131-00161999999ADDMA1999999087021MD1219999+9999ME1314949OA149900261REMSYN088AAXX  07194 06798 33/// /0101 10013 21016 38702 48494 52/// 333 55300 20004 91105 91202;
0096067980999992011010720004+46800+010283FM-12+129899999V0209999C000019999999N9999999N1+00031-00181999999ADDMA1999999087021ME1314939REMSYN060AAXX  07204 06798 43/// /0000 10003 21018 38702 48493 5////;
0096067980999992011010721004+46800+010283FM-12+129899999V0200401N001019999999N9999999N1+00091-00161999999ADDMA1999999087011ME1314939REMSYN060AAXX  07214 06798 43/// /0402 10009 21016 38701 48493 5////;
0149067980999992011010722004+46800+010283FM-12+129899999V0202801N001019999999N9999999N1+00091-00161999999ADDMA1999999087011MD1010011+9999ME1314939OA149900211REMSYN088AAXX  07224 06798 33/// /2802 10009 21016 38701 48493 50001 333 55300 20004 91104 91202;
0112067980999992011010723004+46800+010283FM-12+129899999V0202201N000519999999N9999999N1+00081-00151999999ADDMA1999999087001ME1314929REMSYN076AAXX  07234 06798 33/// /2201 10008 21015 38700 48492 5//// 333 553// 20004;
0112067980999992011010800004+46800+010283FM-12+129899999V0202301N001019999999N9999999N1+00041-00171999999ADDMA1999999086981ME1314909REMSYN076AAXX  08004 06798 33/// /2302 10004 21017 38698 48490 5//// 333 553// 20000;
0096067980999992011010801004+46800+010283FM-12+129899999V0202601N001519999999N9999999N1+00051-00151999999ADDMA1999999086951ME1314879REMSYN060AAXX  08014 06798 43/// /2603 10005 21015 38695 48487 5////;
0096067980999992011010802004+46800+010283FM-12+129899999V0202601N001019999999N9999999N1+00121-00121999999ADDMA1999999086951ME1314889REMSYN060AAXX  08024 06798 43/// /2602 10012 21012 38695 48488 5////;
0096067980999992011010803004+46800+010283FM-12+129899999V0202701N000519999999N9999999N1+00021-00161999999ADDMA1999999086931ME1314859REMSYN060AAXX  08034 06798 43/// /2701 10002 21016 38693 48485 5////;
0096067980999992011010804004+46800+010283FM-12+129899999V0202601N001019999999N9999999N1+00051-00151999999ADDMA1999999086901ME1314839REMSYN060AAXX  08044 06798 43/// /2602 10005 21015 38690 48483 5////;
0096067980999992011010805004+46800+010283FM-12+129899999V0200301N001019999999N9999999N1+00141-00091999999ADDMA1999999086891ME1314829REMSYN060AAXX  08054 06798 43/// /0302 10014 21009 38689 48482 5////;
0143067980999992011010806004+46800+010283FM-12+129899999V0201101N000519999999N9999999N1-00031-00151999999ADDIA2999-00209KA1999N-00061MA1999999086881ME1314809REMSYN082AAXX  08064 06798 43/// /1101 11003 21015 38688 48480 5//// 333 21006 3/102 55004;
0096067980999992011010807004+46800+010283FM-12+129899999V0200201N000519999999N9999999N1+00151-00091999999ADDMA1999999086911ME1314849REMSYN060AAXX  08074 06798 43/// /0201 10015 21009 38691 48484 5////;
0112067980999992011010808004+46800+010283FM-12+129899999V0202401N000519999999N9999999N1+00081-00091999999ADDMA1999999086951ME1314879REMSYN076AAXX  08084 06798 33/// /2401 10008 21009 38695 48487 5//// 333 553// 20058;
0096067980999992011010809004+46800+010283FM-12+129899999V0209999C000019999999N9999999N1+00141-00071999999ADDMA1999999086981ME1314919REMSYN060AAXX  08094 06798 43/// /0000 10014 21007 38698 48491 5////;
0096067980999992011010810004+46800+010283FM-12+129899999V0202801N001019999999N9999999N1+00291-00051999999ADDMA1999999086961ME1314909REMSYN060AAXX  08104 06798 43/// /2802 10029 21005 38696 48490 5////;
0096067980999992011010811004+46800+010283FM-12+129899999V0200101N000519999999N9999999N1+00371-00011999999ADDMA1999999086931ME1314879REMSYN060AAXX  08114 06798 43/// /0101 10037 21001 38693 48487 5////;
0096067980999992011010812004+46800+010283FM-12+129899999V0201001N000519999999N9999999N1+00361+00001999999ADDMA1999999086891ME1314849REMSYN060AAXX  08124 06798 43/// /1001 10036 20000 38689 48484 5////;
0096067980999992011010813004+46800+010283FM-12+129899999V0200801N000519999999N9999999N1+00341+00001999999ADDMA1999999086861ME1314819REMSYN060AAXX  08134 06798 43/// /0801 10034 20000 38686 48481 5////;
0096067980999992011010814004+46800+010283FM-12+129899999V0200201N000519999999N9999999N1+00411-00021999999ADDMA1999999086841ME1314799REMSYN060AAXX  08144 06798 43/// /0201 10041 21002 38684 48479 5////;
0096067980999992011010815004+46800+010283FM-12+129899999V0202901N001019999999N9999999N1+00401-00051999999ADDMA1999999086901ME1314859REMSYN060AAXX  08154 06798 43/// /2902 10040 21005 38690 48485 5////;
0096067980999992011010816004+46800+010283FM-12+129899999V0200701N001519999999N9999999N1+00261-00061999999ADDMA1999999086941ME1314889REMSYN060AAXX  08164 06798 43/// /0703 10026 21006 38694 48488 5////;
0096067980999992011010817004+46800+010283FM-12+129899999V0200201N000519999999N9999999N1+00201-00131999999ADDMA1999999086991ME1314929REMSYN060AAXX  08174 06798 43/// /0201 10020 21013 38699 48492 5////;
0096067980999992011010818004+46800+010283FM-12+129899999V0203201N001019999999N9999999N1+00141-00201999999ADDMA1999999087041ME1314969REMSYN060AAXX  08184 06798 43/// /3202 10014 21020 38704 48496 5////;
0096067980999992011010819004+46800+010283FM-12+129899999V0200501N000519999999N9999999N1+00031-00201999999ADDMA1999999087041ME1314959REMSYN060AAXX  08194 06798 43/// /0501 10003 21020 38704 48495 5////;
0096067980999992011010820004+46800+010283FM-12+129899999V0200601N000519999999N9999999N1+00041-00231999999ADDMA1999999087061ME1314979REMSYN060AAXX  08204 06798 43/// /0601 10004 21023 38706 48497 5////;
0096067980999992011010821004+46800+010283FM-12+129899999V0200301N001519999999N9999999N1+00001-00231999999ADDMA1999999087061ME1314979REMSYN060AAXX  08214 06798 43/// /0303 10000 21023 38706 48497 5////;
0096067980999992011010822004+46800+010283FM-12+129899999V0202601N001019999999N9999999N1+00071-00231999999ADDMA1999999087061ME1314979REMSYN060AAXX  08224 06798 43/// /2602 10007 21023 38706 48497 5////;
0096067980999992011010823004+46800+010283FM-12+129899999V0202601N002119999999N9999999N1+00051-00241999999ADDMA1999999087011ME1314939REMSYN060AAXX  08234 06798 43/// /2604 10005 21024 38701 48493 5////;
0096067980999992011010900004+46800+010283FM-12+129899999V0202501N001519999999N9999999N1-00031-00251999999ADDMA1999999087031ME1314949REMSYN060AAXX  09004 06798 43/// /2503 11003 21025 38703 48494 5////;
0096067980999992011010901004+46800+010283FM-12+129899999V0202601N003119999999N9999999N1-00051-00261999999ADDMA1999999087011ME1314929REMSYN060AAXX  09014 06798 43/// /2606 11005 21026 38701 48492 5////;
0096067980999992011010902004+46800+010283FM-12+129899999V0200801N000519999999N9999999N1-00291-00381999999ADDMA1999999087031ME1314929REMSYN060AAXX  09024 06798 43/// /0801 11029 21038 38703 48492 5////;
0096067980999992011010903004+46800+010283FM-12+129899999V0202701N001519999999N9999999N1-00081-00291999999ADDMA1999999087001ME1314919REMSYN060AAXX  09034 06798 43/// /2703 11008 21029 38700 48491 5////;
0096067980999992011010904004+46800+010283FM-12+129899999V0200101N000519999999N9999999N1-00141-00341999999ADDMA1999999086991ME1314899REMSYN060AAXX  09044 06798 43/// /0101 11014 21034 38699 48489 5////;
0096067980999992011010905004+46800+010283FM-12+129899999V0202801N001019999999N9999999N1-00271-00431999999ADDMA1999999086961ME1314869REMSYN060AAXX  09054 06798 43/// /2802 11027 21043 38696 48486 5////;
0106067980999992011010906004+46800+010283FM-12+129899999V0202501N001019999999N9999999N1-00061-00311999999ADDMA1999999086951ME1314869REMSYN070AAXX  09064 06798 43/// /2502 11006 21031 38695 48486 5//// 333 55002;
0096067980999992011010907004+46800+010283FM-12+129899999V0209999C000019999999N9999999N1-00211-00361999999ADDMA1999999086981ME1314889REMSYN060AAXX  09074 06798 43/// /0000 11021 21036 38698 48488 5////;
0112067980999992011010908004+46800+010283FM-12+129899999V0202601N001019999999N9999999N1+00031-00291999999ADDMA1999999086991ME1314919REMSYN076AAXX  09084 06798 33/// /2602 10003 21029 38699 48491 5//// 333 553// 20112;
0112067980999992011010909004+46800+010283FM-12+129899999V0203001N001019999999N9999999N1+00071-00261999999ADDMA1999999086971ME1314899REMSYN076AAXX  09094 06798 33/// /3002 10007 21026 38697 48489 5//// 333 553// 20382;
0149067980999992011010910004+46800+010283FM-12+129899999V0203401N000519999999N9999999N1+00231-00241999999ADDMA1999999086971MD1010011+9999ME1314909OA149900261REMSYN088AAXX  09104 06798 33/// /3401 10023 21024 38697 48490 50001 333 55300 20565 91105 91203;
0149067980999992011010911004+46800+010283FM-12+129899999V0202601N000519999999N9999999N1+00131-00181999999ADDMA1999999086921MD1710071+9999ME1314859OA149900261REMSYN088AAXX  09114 06798 33/// /2601 10013 21018 38692 48485 57007 333 55300 20724 91105 91203;
0149067980999992011010912004+46800+010283FM-12+129899999V0203201N001019999999N9999999N1+00381-00171999999ADDMA1999999086861MD1710111+9999ME1314819OA149900571REMSYN088AAXX  09124 06798 33/// /3202 10038 21017 38686 48481 57011 333 55300 20792 91111 91206;
0149067980999992011010913004+46800+010283FM-12+129899999V0201001N001019999999N9999999N1+00371-00121999999ADDMA1999999086821MD1710151+9999ME1314779OA149900261REMSYN088AAXX  09134 06798 33/// /1002 10037 21012 38682 48477 57015 333 55303 20742 91105 91203;
0096067980999992011010914004+46800+010283FM-12+129899999V0202801N000519999999N9999999N1+00431-00161999999ADDMA1999999086801ME1314769REMSYN060AAXX  09144 06798 43/// /2801 10043 21016 38680 48476 5////;
0096067980999992011010915004+46800+010283FM-12+129899999V0202901N001019999999N9999999N1+00431-00161999999ADDMA1999999086811ME1314779REMSYN060AAXX  09154 06798 43/// /2902 10043 21016 38681 48477 5////;
0149067980999992011010916004+46800+010283FM-12+129899999V0202801N001519999999N9999999N1+00391-00151999999ADDMA1999999086801MD1510021+9999ME1314759OA149900311REMSYN088AAXX  09164 06798 33/// /2803 10039 21015 38680 48475 55002 333 55300 20032 91106 91203;
0149067980999992011010917004+46800+010283FM-12+129899999V0200101N000519999999N9999999N1+00261-00131999999ADDMA1999999086831MD1210031+9999ME1314779OA149900261REMSYN088AAXX  09174 06798 33/// /0101 10026 21013 38683 48477 52003 333 55300 20000 91105 91203;
0168067980999992011010918004+46800+010283FM-12+129899999V0202701N001019999999N9999999N1+00291-00141999999ADDKA1120M+00491MA1999999086821MD1210011+9999ME1314779OA149900311REMSYN094AAXX  09184 06798 33/// /2702 10029 21014 38682 48477 52001 333 10049 55300 20000 91106 91203;
0149067980999992011010919004+46800+010283FM-12+129899999V0200601N001519999999N9999999N1+00121-00151999999ADDMA1999999086841MD1210041+9999ME1314779OA149900211REMSYN088AAXX  09194 06798 33/// /0603 10012 21015 38684 48477 52004 333 55300 20000 91104 91203;
0149067980999992011010920004+46800+010283FM-12+129899999V0202801N000519999999N9999999N1+00111-00161999999ADDMA1999999086871MD1210041+9999ME1314809OA149900211REMSYN088AAXX  09204 06798 33/// /2801 10011 21016 38687 48480 52004 333 55300 20000 91104 91203;
0149067980999992011010921004+46800+010283FM-12+129899999V0202701N000519999999N9999999N1+00141-00141999999ADDMA1999999086871MD1210051+9999ME1314809OA149900261REMSYN088AAXX  09214 06798 33/// /2701 10014 21014 38687 48480 52005 333 55300 20000 91105 91203;
0149067980999992011010922004+46800+010283FM-12+129899999V0200401N000519999999N9999999N1+00171-00131999999ADDMA1999999086891MD1210051+9999ME1314829OA149900151REMSYN088AAXX  09224 06798 33/// /0401 10017 21013 38689 48482 52005 333 55300 20004 91103 91202;
0149067980999992011010923004+46800+010283FM-12+129899999V0202901N000519999999N9999999N1+00161-00081999999ADDMA1999999086891MD1210021+9999ME1314829OA149900211REMSYN088AAXX  09234 06798 33/// /2901 10016 21008 38689 48482 52002 333 55300 20004 91104 91203;
0149067980999992011011000004+46800+010283FM-12+129899999V0202501N000519999999N9999999N1+00141-00031999999ADDMA1999999086881MD1210011+9999ME1314819OA149900311REMSYN088AAXX  10004 06798 33/// /2501 10014 21003 38688 48481 52001 333 55300 20000 91106 91204;
0174067980999992011011001004+46800+010283FM-12+129899999V0202601N000519999999N9999999N1+00091-00011999999ADDMA1999999086891MD1410001+9999ME1314829OA149900261REMSYN094AAXX  10014 06798 23/// /2601 10009 21001 38689 48482 52000 333 55300 20000 69925 91105 91204;EQDQ01+000022APCTEN
0118067980999992011011002004+46800+010283FM-12+129899999V0202601N000519999999N9999999N1+00071+00001999999ADDMA1999999086901ME1314839REMSYN082AAXX  10024 06798 23/// /2601 10007 20000 38690 48483 5//// 333 553// 20000 69945;
0096067980999992011011003004+46800+010283FM-12+129899999V0202801N000519999999N9999999N1+00131+00011999999ADDMA1999999086891ME1314829REMSYN060AAXX  10034 06798 43/// /2801 10013 20001 38689 48482 5////;
0118067980999992011011004004+46800+010283FM-12+129899999V0202201N000519999999N9999999N1+00081+00001999999ADDMA1999999086891ME1314829REMSYN082AAXX  10044 06798 23/// /2201 10008 20000 38689 48482 5//// 333 553// 20000 69925;
0155067980999992011011005004+46800+010283FM-12+129899999V0202601N000519999999N9999999N1+00101-00011999999ADDMA1999999086881MD1619999+9999ME1314819OA149900101REMSYN094AAXX  10054 06798 23/// /2601 10010 21001 38688 48481 56/// 333 55300 20000 69925 91102 91201;
0168067980999992011011006004+46800+010283FM-12+129899999V0209999C000019999999N9999999N1+00081-00011999999ADDAA124001091GJ100249IA2999-00109KA1999N+00041MA1999999086901ME1314839REMSYN088AAXX  10064 06798 43/// /0000 10008 21001 38690 48483 5//// 333 20004 3/101 55004 70011;
0155067980999992011011007004+46800+010283FM-12+129899999V0209999C000019999999N9999999N1+00051-00011999999ADDMA1999999086921MD1210031+9999ME1314849OA149900101REMSYN094AAXX  10074 06798 23/// /0000 10005 21001 38692 48484 52003 333 55300 20004 69995 91102 91201;
0096067980999992011011008004+46800+010283FM-12+129899999V0209999C000019999999N9999999N1+00041-00021999999ADDMA1999999086951ME1314879REMSYN060AAXX  10084 06798 43/// /0000 10004 21002 38695 48487 5////;
0096067980999992011011009004+46800+010283FM-12+129899999V0209999C000019999999N9999999N1+00021-00031999999ADDMA1999999086971ME1314899REMSYN060AAXX  10094 06798 43/// /0000 10002 21003 38697 48489 5////;
0155067980999992011011010004+46800+010283FM-12+129899999V0209999C000019999999N9999999N1+00091+00011999999ADDMA1999999086981MD1210061+9999ME1314909OA149900101REMSYN094AAXX  10104 06798 23/// /0000 10009 20001 38698 48490 52006 333 55300 20238 69945 91102 91202;
0149067980999992011011011004+46800+010283FM-12+129899999V0202501N000519999999N9999999N1+00101+00031999999ADDMA1999999086961MD1019999+9999ME1314889OA149900051REMSYN088AAXX  10114 06798 33/// /2501 10010 20003 38696 48488 50/// 333 55300 20292 91101 91201;
0135067980999992011011012004+46800+010283FM-12+129899999V0209999C000019999999N9999999N1+00111+00021999999ADDAA106002091MA1999999086921ME1314859REMSYN088AAXX  10124 06798 03/// /0000 10011 20002 38692 48485 5//// 60021 333 553// 20284 69925;
0096067980999992011011013004+46800+010283FM-12+129899999V0209999C000019999999N9999999N1+00161+00041999999ADDMA1999999086881ME1314819REMSYN060AAXX  10134 06798 43/// /0000 10016 20004 38688 48481 5////;
0096067980999992011011014004+46800+010283FM-12+129899999V0200601N000519999999N9999999N1+00141+00051999999ADDMA1999999086861ME1314799REMSYN060AAXX  10144 06798 43/// /0601 10014 20005 38686 48479 5////;
0096067980999992011011015004+46800+010283FM-12+129899999V0209999C000019999999N9999999N1+00131+00021999999ADDMA1999999086871ME1314809REMSYN060AAXX  10154 06798 43/// /0000 10013 20002 38687 48480 5////;
0096067980999992011011016004+46800+010283FM-12+129899999V0209999C000019999999N9999999N1+00121+00011999999ADDMA1999999086861ME1314799REMSYN060AAXX  10164 06798 43/// /0000 10012 20001 38686 48479 5////;
0096067980999992011011017004+46800+010283FM-12+129899999V0202901N000519999999N9999999N1+00111+00011999999ADDMA1999999086861ME1314799REMSYN060AAXX  10174 06798 43/// /2901 10011 20001 38686 48479 5////;
0119067980999992011011018004+46800+010283FM-12+129899999V0202501N000519999999N9999999N1+00091+00001999999ADDKA1999M+00161MA1999999086851ME1314789REMSYN070AAXX  10184 06798 43/// /2501 10009 20000 38685 48478 5//// 333 10016;
0096067980999992011011019004+46800+010283FM-12+129899999V0209999C000019999999N9999999N1+00091+00001999999ADDMA1999999086821ME1314759REMSYN060AAXX  10194 06798 43/// /0000 10009 20000 38682 48475 5////;
0096067980999992011011020004+46800+010283FM-12+129899999V0209999C000019999999N9999999N1+00081+00001999999ADDMA1999999086811ME1314749REMSYN060AAXX  10204 06798 43/// /0000 10008 20000 38681 48474 5////;
0096067980999992011011021004+46800+010283FM-12+129899999V0209999C000019999999N9999999N1+00111-00011999999ADDMA1999999086801ME1314749REMSYN060AAXX  10214 06798 43/// /0000 10011 21001 38680 48474 5////;
0096067980999992011011022004+46800+010283FM-12+129899999V0209999C000019999999N9999999N1+00071-00021999999ADDMA1999999086791ME1314739REMSYN060AAXX  10224 06798 43/// /0000 10007 21002 38679 48473 5////;
0096067980999992011011023004+46800+010283FM-12+129899999V0202601N000519999999N9999999N1+00061-00021999999ADDMA1999999086751ME1314699REMSYN060AAXX  10234 06798 43/// /2601 10006 21002 38675 48469 5////;
0096067980999992011011100004+46800+010283FM-12+129899999V0203401N000519999999N9999999N1+00081-00041999999ADDMA1999999086701ME1314649REMSYN060AAXX  11004 06798 43/// /3401 10008 21004 38670 48464 5////;
0096067980999992011011101004+46800+010283FM-12+129899999V0209999C000019999999N9999999N1+00051-00031999999ADDMA1999999086671ME1314619REMSYN060AAXX  11014 06798 43/// /0000 10005 21003 38667 48461 5////;
0096067980999992011011102004+46800+010283FM-12+129899999V0209999C000019999999N9999999N1+00051-00031999999ADDMA1999999086651ME1314599REMSYN060AAXX  11024 06798 43/// /0000 10005 21003 38665 48459 5////;
0096067980999992011011103004+46800+010283FM-12+129899999V0202701N000519999999N9999999N1+00091-00091999999ADDMA1999999086611ME1314569REMSYN060AAXX  11034 06798 43/// /2701 10009 21009 38661 48456 5////;
0096067980999992011011104004+46800+010283FM-12+129899999V0200501N000519999999N9999999N1+00011-00041999999ADDMA1999999086581ME1314539REMSYN060AAXX  11044 06798 43/// /0501 10001 21004 38658 48453 5////;
0096067980999992011011105004+46800+010283FM-12+129899999V0202401N000519999999N9999999N1+00071-00031999999ADDMA1999999086541ME1314499REMSYN060AAXX  11054 06798 43/// /2401 10007 21003 38654 48449 5////;
0106067980999992011011106004+46800+010283FM-12+129899999V0209999C000019999999N9999999N1+00021-00071999999ADDMA1999999086521ME1314479REMSYN070AAXX  11064 06798 43/// /0000 10002 21007 38652 48447 5//// 333 55000;
0155067980999992011011107004+46800+010283FM-12+129899999V0209999C000019999999N9999999N1-00011-00121999999ADDMA1999999086501MD1719999+9999ME1314459OA149900101REMSYN094AAXX  11074 06798 23/// /0000 11001 21012 38650 48445 57/// 333 55300 20004 69915 91102 91201;
0112067980999992011011108004+46800+010283FM-12+129899999V0209999C000019999999N9999999N1+00021-00071999999ADDMA1999999086491ME1314459REMSYN076AAXX  11084 06798 33/// /0000 10002 21007 38649 48445 5//// 333 553// 20079;
0096067980999992011011109004+46800+010283FM-12+129899999V0209999C000519999999N9999999N1+00051-00071999999ADDMA1999999086471ME1314439REMSYN060AAXX  11094 06798 43/// /0001 10005 21007 38647 48443 5////;
0149067980999992011011110004+46800+010283FM-12+129899999V0209999C000019999999N9999999N1+00051-00071999999ADDMA1999999086451MD1710051+9999ME1314419OA149900101REMSYN088AAXX  11104 06798 33/// /0000 10005 21007 38645 48441 57005 333 55300 20385 91102 91201;
0149067980999992011011111004+46800+010283FM-12+129899999V0202001N000519999999N9999999N1+00121-00041999999ADDMA1999999086391MD1710101+9999ME1314369OA149900151REMSYN088AAXX  11114 06798 33/// /2001 10012 21004 38639 48436 57010 333 55300 20608 91103 91202;
0154067980999992011011112004+46800+010283FM-12+129899999V0201001N000519999999N9999999N1+00141-00011999999ADDAA106000091MA1999999086301ME1314289REMSYN088AAXX  11124 06798 03/// /1001 10014 21001 38630 48428 5//// 69911 333 553// 20720 60005;EQDQ01  00002PRCP06
0149067980999992011011113004+46800+010283FM-12+129899999V0200601N000519999999N9999999N1+00221+00071999999ADDMA1999999086221MD1710231+9999ME1314209OA149900151REMSYN088AAXX  11134 06798 33/// /0601 10022 20007 38622 48420 57023 333 55300 20673 91103 91201;
0096067980999992011011114004+46800+010283FM-12+129899999V0209999C000019999999N9999999N1+00221+00081999999ADDMA1999999086191ME1314189REMSYN060AAXX  11144 06798 43/// /0000 10022 20008 38619 48418 5////;
0096067980999992011011115004+46800+010283FM-12+129899999V0200701N000519999999N9999999N1+00171+00021999999ADDMA1999999086191ME1314179REMSYN060AAXX  11154 06798 43/// /0701 10017 20002 38619 48417 5////;
0149067980999992011011116004+46800+010283FM-12+129899999V0203001N001519999999N9999999N1+00071-00111999999ADDMA1999999086191MD1510031+9999ME1314179OA149900211REMSYN088AAXX  11164 06798 33/// /3003 10007 21011 38619 48417 55003 333 55300 20043 91104 91203;
0149067980999992011011117004+46800+010283FM-12+129899999V0202701N001019999999N9999999N1+00001-00131999999ADDMA1999999086261MD1210081+9999ME1314239OA149900211REMSYN088AAXX  11174 06798 33/// /2702 10000 21013 38626 48423 52008 333 55300 20000 91104 91203;
0210067980999992011011118004+46800+010283FM-12+129899999V0203001N000519999999N9999999N1+00011-00141999999ADDAA112000091KA1120M+00271MA1999999086321MD1210131+9999ME1314299OA149900261REMSYN106AAXX  11184 06798 03/// /3001 10001 21014 38632 48429 52013 69912 333 10027 55300 20000 60005 91105 91203;EQDQ01  00002PRCP12
0149067980999992011011119004+46800+010283FM-12+129899999V0200601N000519999999N9999999N1-00051-00091999999ADDMA1999999086381MD1310191+9999ME1314349OA149900261REMSYN088AAXX  11194 06798 33/// /0601 11005 21009 38638 48434 53019 333 55300 20004 91105 91203;
0149067980999992011011120004+46800+010283FM-12+129899999V0202501N001519999999N9999999N1-00021-00131999999ADDMA1999999086441MD1310181+9999ME1314409OA149900211REMSYN088AAXX  11204 06798 33/// /2503 11002 21013 38644 48440 53018 333 55300 20004 91104 91203;
0149067980999992011011121004+46800+010283FM-12+129899999V0202701N002119999999N9999999N1+00041-00141999999ADDMA1999999086491MD1110171+9999ME1314459OA149900261REMSYN088AAXX  11214 06798 33/// /2704 10004 21014 38649 48445 51017 333 55300 20004 91105 91204;
0149067980999992011011122004+46800+010283FM-12+129899999V0200901N000519999999N9999999N1-00021-00111999999ADDMA1999999086561MD1310181+9999ME1314519OA149900311REMSYN088AAXX  11224 06798 33/// /0901 11002 21011 38656 48451 53018 333 55300 20004 91106 91204;
0149067980999992011011123004+46800+010283FM-12+129899999V0209999C000019999999N9999999N1-00011-00101999999ADDMA1999999086631MD1310191+9999ME1314579OA149900311REMSYN088AAXX  11234 06798 33/// /0000 11001 21010 38663 48457 53019 333 55300 20004 91106 91203;
0149067980999992011011200004+46800+010283FM-12+129899999V0202701N000519999999N9999999N1-00021-00141999999ADDMA1999999086671MD1110181+9999ME1314619OA149900311REMSYN088AAXX  12004 06798 33/// /2701 11002 21014 38667 48461 51018 333 55300 20004 91106 91204;
0149067980999992011011201004+46800+010283FM-12+129899999V0202501N000519999999N9999999N1-00021-00121999999ADDMA1999999086701MD1110141+9999ME1314649OA149900151REMSYN088AAXX  12014 06798 33/// /2501 11002 21012 38670 48464 51014 333 55300 20004 91103 91202;
0112067980999992011011202004+46800+010283FM-12+129899999V0209999C000519999999N9999999N1-00011-00141999999ADDMA1999999086801ME1314739REMSYN076AAXX  12024 06798 33/// /0001 11001 21014 38680 48473 5//// 333 553// 20004;
0096067980999992011011203004+46800+010283FM-12+129899999V0202101N000519999999N9999999N1-00041-00131999999ADDMA1999999086861ME1314789REMSYN060AAXX  12034 06798 43/// /2101 11004 21013 38686 48478 5////;
0096067980999992011011204004+46800+010283FM-12+129899999V0203401N000519999999N9999999N1-00061-00141999999ADDMA1999999086931ME1314859REMSYN060AAXX  12044 06798 43/// /3401 11006 21014 38693 48485 5////;
0112067980999992011011205004+46800+010283FM-12+129899999V0200101N000519999999N9999999N1-00101-00131999999ADDMA1999999086941ME1314859REMSYN076AAXX  12054 06798 33/// /0101 11010 21013 38694 48485 5//// 333 553// 20004;
0187067980999992011011206004+46800+010283FM-12+129899999V0202801N000519999999N9999999N1-00061-00161999999ADDAA124000091GJ100069IA2999-00309KA1999N-00111MA1999999087001ME1314919REMSYN088AAXX  12064 06798 43/// /2801 11006 21016 38700 48491 5//// 333 21011 3/103 55001 70001;EQDQ01  00002PRCP24
0149067980999992011011207004+46800+010283FM-12+129899999V0202901N001019999999N9999999N1-00051-00191999999ADDMA1999999087071MD1310141+9999ME1314979OA149900211REMSYN088AAXX  12074 06798 33/// /2902 11005 21019 38707 48497 53014 333 55300 20007 91104 91203;
0096067980999992011011208004+46800+010283FM-12+129899999V0209999C000019999999N9999999N1-00081-00211999999ADDMA1999999087141ME1315049REMSYN060AAXX  12084 06798 43/// /0000 11008 21021 38714 48504 5////;
0096067980999992011011209004+46800+010283FM-12+129899999V0202601N001019999999N9999999N1-00111-00221999999ADDMA1999999087151ME1315049REMSYN060AAXX  12094 06798 43/// /2602 11011 21022 38715 48504 5////;
0149067980999992011011210004+46800+010283FM-12+129899999V0202401N001019999999N9999999N1+00101-00071999999ADDMA1999999087161MD1219999+9999ME1315079OA149900211REMSYN088AAXX  12104 06798 33/// /2402 10010 21007 38716 48507 52/// 333 55307 20961 91104 91202;
0149067980999992011011211004+46800+010283FM-12+129899999V0202401N000519999999N9999999N1+00191-00081999999ADDMA1999999087131MD1810011+9999ME1315059OA149900211REMSYN088AAXX  12114 06798 33/// /2401 10019 21008 38713 48505 58001 333 55306 2//// 91104 91202;
0096067980999992011011212004+46800+010283FM-12+129899999V0202701N000519999999N9999999N1+00311-00061999999ADDMA1999999087101ME1315039REMSYN060AAXX  12124 06798 43/// /2701 10031 21006 38710 48503 5////;
0096067980999992011011213004+46800+010283FM-12+129899999V0201901N000519999999N9999999N1+00341-00071999999ADDMA1999999087081ME1315019REMSYN060AAXX  12134 06798 43/// /1901 10034 21007 38708 48501 5////;
0096067980999992011011214004+46800+010283FM-12+129899999V0202301N001019999999N9999999N1+00301-00011999999ADDMA1999999087091ME1315029REMSYN060AAXX  12144 06798 43/// /2302 10030 21001 38709 48502 5////;
0096067980999992011011215004+46800+010283FM-12+129899999V0202501N001519999999N9999999N1+00281-00031999999ADDMA1999999087121ME1315049REMSYN060AAXX  12154 06798 43/// /2503 10028 21003 38712 48504 5////;
0149067980999992011011216004+46800+010283FM-12+129899999V0202701N000519999999N9999999N1+00161+00021999999ADDMA1999999087161MD1210081+9999ME1315079OA149900361REMSYN088AAXX  12164 06798 33/// /2701 10016 20002 38716 48507 52008 333 55300 20072 91107 91203;
0155067980999992011011217004+46800+010283FM-12+129899999V0202501N001519999999N9999999N1+00061-00051999999ADDMA1999999087251MD1310161+9999ME1315159OA149900361REMSYN094AAXX  12174 06798 23/// /2503 10006 21005 38725 48515 53016 333 55300 20004 69915 91107 91203;
0191067980999992011011218004+46800+010283FM-12+129899999V0209999C000019999999N9999999N1+00051-00051999999ADDAA112001091KA1120M+00371MA1999999087261MD1210141+9999ME1315169OA149900361REMSYN106AAXX  12184 06798 03/// /0000 10005 21005 38726 48516 52014 60012 333 10037 55300 20000 69995 91107 91203;
0155067980999992011011219004+46800+010283FM-12+129899999V0209999C000019999999N9999999N1+00021-00041999999ADDMA1999999087261MD1210101+9999ME1315159OA149900211REMSYN094AAXX  12194 06798 23/// /0000 10002 21004 38726 48515 52010 333 55300 20004 60015 91104 91203;
0155067980999992011011220004+46800+010283FM-12+129899999V0202901N000519999999N9999999N1+00061-00061999999ADDMA1999999087241MD1810011+9999ME1315149OA149900151REMSYN094AAXX  12204 06798 23/// /2901 10006 21006 38724 48514 58001 333 55300 20004 69965 91103 91202;
0155067980999992011011221004+46800+010283FM-12+129899999V0209999C000019999999N9999999N1+00031-00051999999ADDMA1999999087251MD1710011+9999ME1315159OA149900361REMSYN094AAXX  12214 06798 23/// /0000 10003 21005 38725 48515 57001 333 55300 20004 69945 91107 91203;
0155067980999992011011222004+46800+010283FM-12+129899999V0209999C000019999999N9999999N1+00041-00061999999ADDMA1999999087231MD1710031+9999ME1315139OA149900051REMSYN094AAXX  12224 06798 23/// /0000 10004 21006 38723 48513 57003 333 55300 20004 69955 91101 91201;
0155067980999992011011223004+46800+010283FM-12+129899999V0209999C000019999999N9999999N1+00031-00051999999ADDMA1999999087221MD1710021+9999ME1315129OA149900051REMSYN094AAXX  12234 06798 23/// /0000 10003 21005 38722 48512 57002 333 55300 20004 69945 91101 91200;
0172067980999992011011300004+46800+010283FM-12+129899999V0209999C000019999999N9999999N1+00031-00051999999ADDAA106003091MA1999999087181MD1710071+9999ME1315089OA149900361REMSYN100AAXX  13004 06798 03/// /0000 10003 21005 38718 48508 57007 60031 333 55300 20004 69945 91107 91203;
0155067980999992011011301004+46800+010283FM-12+129899999V0209999C000019999999N9999999N1+00031-00041999999ADDMA1999999087131MD1710101+9999ME1315049OA149900051REMSYN094AAXX  13014 06798 23/// /0000 10003 21004 38713 48504 57010 333 55300 20004 69955 91101 91201;
0155067980999992011011302004+46800+010283FM-12+129899999V0209999C000019999999N9999999N1+00031-00031999999ADDMA1999999087181MD1519999+9999ME1315089OA149900051REMSYN094AAXX  13024 06798 23/// /0000 10003 21003 38718 48508 55/// 333 55300 20004 69945 91101 91200;
0096067980999992011011303004+46800+010283FM-12+129899999V0202001N000519999999N9999999N1+00081-00021999999ADDMA1999999087151ME1315069REMSYN060AAXX  13034 06798 43/// /2001 10008 21002 38715 48506 5////;
0155067980999992011011304004+46800+010283FM-12+129899999V0200501N000519999999N9999999N1+00061-00021999999ADDMA1999999087121MD1819999+9999ME1315039OA149900151REMSYN094AAXX  13044 06798 23/// /0501 10006 21002 38712 48503 58/// 333 55300 20000 60015 91103 91202;
0118067980999992011011305004+46800+010283FM-12+129899999V0200801N000519999999N9999999N1+00051-00021999999ADDMA1999999087121ME1315039REMSYN082AAXX  13054 06798 23/// /0801 10005 21002 38712 48503 5//// 333 553// 20000 60015;
0239067980999992011011306004+46800+010283FM-12+129899999V0202501N000519999999N9999999N1+00081-00021999999ADDAA112007991AL11200991GJ101809IA2999-00109KA1999N+00011MA1999999087131MD1510021+9999ME1315049OA149900151REMSYN124AAXX  13064 06798 03/// /2501 10008 21002 38713 48504 55002 60082 333 20001 3/101 55030 55300 20000 69955 70092 91103 91202;
0096067980999992011011307004+46800+010283FM-12+129899999V0202801N000519999999N9999999N1+00121+00001999999ADDMA1999999087141ME1315059REMSYN060AAXX  13074 06798 43/// /2801 10012 20000 38714 48505 5////;
0096067980999992011011308004+46800+010283FM-12+129899999V0200501N000519999999N9999999N1+00081+00001999999ADDMA1999999087161ME1315079REMSYN060AAXX  13084 06798 43/// /0501 10008 20000 38716 48507 5////;
0096067980999992011011309004+46800+010283FM-12+129899999V0209999C000019999999N9999999N1+00091+00011999999ADDMA1999999087151ME1315069REMSYN060AAXX  13094 06798 43/// /0000 10009 20001 38715 48506 5////;
0096067980999992011011310004+46800+010283FM-12+129899999V0202801N000519999999N9999999N1+00191+00101999999ADDMA1999999087151ME1315079REMSYN060AAXX  13104 06798 43/// /2801 10019 20010 38715 48507 5////;
0096067980999992011011311004+46800+010283FM-12+129899999V0200401N000519999999N9999999N1+00241+00141999999ADDMA1999999087141ME1315069REMSYN060AAXX  13114 06798 43/// /0401 10024 20014 38714 48506 5////;
0096067980999992011011312004+46800+010283FM-12+129899999V0203501N001019999999N9999999N1+00291+00161999999ADDMA1999999087101ME1315039REMSYN060AAXX  13124 06798 43/// /3502 10029 20016 38710 48503 5////;
0096067980999992011011313004+46800+010283FM-12+129899999V0209999C000019999999N9999999N1+00261+00181999999ADDMA1999999087091ME1315029REMSYN060AAXX  13134 06798 43/// /0000 10026 20018 38709 48502 5////;
0096067980999992011011314004+46800+010283FM-12+129899999V0202501N000519999999N9999999N1+00331+00221999999ADDMA1999999087111ME1315049REMSYN060AAXX  13144 06798 43/// /2501 10033 20022 38711 48504 5////;
0096067980999992011011315004+46800+010283FM-12+129899999V0203201N001019999999N9999999N1+00281+00211999999ADDMA1999999087111ME1315049REMSYN060AAXX  13154 06798 43/// /3202 10028 20021 38711 48504 5////;
0096067980999992011011316004+46800+010283FM-12+129899999V0202901N000519999999N9999999N1+00311+00171999999ADDMA1999999087151ME1315079REMSYN060AAXX  13164 06798 43/// /2901 10031 20017 38715 48507 5////;
0149067980999992011011317004+46800+010283FM-12+129899999V0202701N001019999999N9999999N1+00251+00141999999ADDMA1999999087161MD1210051+9999ME1315089OA149900361REMSYN088AAXX  13174 06798 33/// /2702 10025 20014 38716 48508 52005 333 55300 20000 91107 91203;
0191067980999992011011318004+46800+010283FM-12+129899999V0200801N001019999999N9999999N1+00171+00121999999ADDAA112003091KA1120M+00361MA1999999087171MD1210051+9999ME1315089OA149900361REMSYN106AAXX  13184 06798 03/// /0802 10017 20012 38717 48508 52005 60032 333 10036 55300 20000 60005 91107 91203;
0149067980999992011011319004+46800+010283FM-12+129899999V0202901N000519999999N9999999N1+00281+00141999999ADDMA1999999087191MD1210041+9999ME1315119OA149900261REMSYN088AAXX  13194 06798 33/// /2901 10028 20014 38719 48511 52004 333 55300 20004 91105 91202;
0149067980999992011011320004+46800+010283FM-12+129899999V0200401N000519999999N9999999N1+00221+00161999999ADDMA1999999087211MD1210051+9999ME1315129OA149900261REMSYN088AAXX  13204 06798 33/// /0401 10022 20016 38721 48512 52005 333 55300 20004 91105 91202;
0149067980999992011011321004+46800+010283FM-12+129899999V0202601N001019999999N9999999N1+00261+00161999999ADDMA1999999087231MD1210061+9999ME1315149OA149900361REMSYN088AAXX  13214 06798 33/// /2602 10026 20016 38723 48514 52006 333 55300 20004 91107 91203;
0149067980999992011011322004+46800+010283FM-12+129899999V0202701N001519999999N9999999N1+00281+00151999999ADDMA1999999087251MD1310061+9999ME1315169OA149900311REMSYN088AAXX  13224 06798 33/// /2703 10028 20015 38725 48516 53006 333 55300 20004 91106 91203;
0155067980999992011011323004+46800+010283FM-12+129899999V0202501N001519999999N9999999N1+00261+00151999999ADDMA1999999087251MD1110041+9999ME1315169OA149900411REMSYN094AAXX  13234 06798 23/// /2503 10026 20015 38725 48516 51004 333 55300 20004 69915 91108 91205;
0191067980999992011011400004+46800+010283FM-12+129899999V0202401N001019999999N9999999N1+00221+00131999999ADDAA106000091MA1999999087251MD1210021+9999ME1315169OA149900411REMSYN100AAXX  14004 06798 03/// /2402 10022 20013 38725 48516 52002 69911 333 55300 20000 60005 91108 91205;EQDQ01  00002PRCP06
0149067980999992011011401004+46800+010283FM-12+129899999V0202201N000519999999N9999999N1+00231+00121999999ADDMA1999999087261MD1210011+9999ME1315179OA149900261REMSYN088AAXX  14014 06798 33/// /2201 10023 20012 38726 48517 52001 333 55300 20000 91105 91203;
0112067980999992011011402004+46800+010283FM-12+129899999V0200801N000519999999N9999999N1+00201+00101999999ADDMA1999999087281ME1315199REMSYN076AAXX  14024 06798 33/// /0801 10020 20010 38728 48519 5//// 333 553// 20000;
0149067980999992011011403004+46800+010283FM-12+129899999V0202201N000519999999N9999999N1+00191+00081999999ADDMA1999999087291MD1210041+9999ME1315199OA149900411REMSYN088AAXX  14034 06798 33/// /2201 10019 20008 38729 48519 52004 333 55300 20000 91108 91205;
0149067980999992011011404004+46800+010283FM-12+129899999V0203501N000519999999N9999999N1+00181+00071999999ADDMA1999999087301MD1210041+9999ME1315209OA149900151REMSYN088AAXX  14044 06798 33/// /3501 10018 20007 38730 48520 52004 333 55300 20000 91103 91202;
0149067980999992011011405004+46800+010283FM-12+129899999V0202501N000519999999N9999999N1+00081+00011999999ADDMA1999999087301MD1210021+9999ME1315199OA149900151REMSYN088AAXX  14054 06798 33/// /2501 10008 20001 38730 48519 52002 333 55300 20000 91103 91202;
0258067980999992011011406004+46800+010283FM-12+129899999V0200301N000519999999N9999999N1+00101+00011999999ADDAA112000091AL12400391GJ100009IA2999-00109KA1999N+00061MA1999999087311MD1210021+9999ME1315219OA149900411REMSYN124AAXX  14064 06798 03/// /0301 10010 20001 38731 48521 52002 69912 333 20006 3/101 55000 55300 20000 60005 70034 91108 91205;EQDQ01  00002PRCP12
0149067980999992011011407004+46800+010283FM-12+129899999V0209999C000019999999N9999999N1+00071-00081999999ADDMA1999999087341MD1210041+9999ME1315239OA149900311REMSYN088AAXX  14074 06798 33/// /0000 10007 21008 38734 48523 52004 333 55300 20004 91106 91204;
0096067980999992011011408004+46800+010283FM-12+129899999V0203001N000519999999N9999999N1+00131-00031999999ADDMA1999999087371ME1315269REMSYN060AAXX  14084 06798 43/// /3001 10013 21003 38737 48526 5////;
0096067980999992011011409004+46800+010283FM-12+129899999V0200601N000519999999N9999999N1+00041-00071999999ADDMA1999999087381ME1315269REMSYN060AAXX  14094 06798 43/// /0601 10004 21007 38738 48526 5////;
0096067980999992011011410004+46800+010283FM-12+129899999V0202301N001019999999N9999999N1+00321+00171999999ADDMA1999999087371ME1315289REMSYN060AAXX  14104 06798 43/// /2302 10032 20017 38737 48528 5////;
0149067980999992011011411004+46800+010283FM-12+129899999V0200501N000519999999N9999999N1+00421+00201999999ADDMA1999999087311MD1710061+9999ME1315239OA149900211REMSYN088AAXX  14114 06798 33/// /0501 10042 20020 38731 48523 57006 333 553// 2//// 91104 91202;
0149067980999992011011412004+46800+010283FM-12+129899999V0209999C000019999999N9999999N1+00501+00241999999ADDMA1999999087251MD1810131+9999ME1315189OA149900311REMSYN088AAXX  14124 06798 33/// /0000 10050 20024 38725 48518 58013 333 553// 2//// 91106 91204;
0149067980999992011011413004+46800+010283FM-12+129899999V0202301N000519999999N9999999N1+00591+00331999999ADDMA1999999087171MD1810201+9999ME1315119OA149900151REMSYN088AAXX  14134 06798 33/// /2301 10059 20033 38717 48511 58020 333 553// 2//// 91103 91202;
0112067980999992011011414004+46800+010283FM-12+129899999V0202401N001019999999N9999999N1+00441+00271999999ADDMA1999999087141ME1315089REMSYN076AAXX  14144 06798 33/// /2402 10044 20027 38714 48508 5//// 333 553// 20752;
0149067980999992011011415004+46800+010283FM-12+129899999V0202501N002119999999N9999999N1+00451+00231999999ADDMA1999999087151MD1710101+9999ME1315099OA149900411REMSYN088AAXX  14154 06798 33/// /2504 10045 20023 38715 48509 57010 333 55307 20428 91108 91204;
0168067980999992011011416004+46800+010283FM-12+129899999V0209999C000019999999N9999999N1+00291+00021999999ADDMA1999999087171MD1410001+9999ME1315099OA149900411REMSYN088AAXX  14164 06798 33/// /0000 10029 20002 38717 48509 53000 333 55300 20072 91108 91204;EQDQ01+000032APCTEN
0149067980999992011011417004+46800+010283FM-12+129899999V0202601N001019999999N9999999N1+00231+00031999999ADDMA1999999087201MD1210061+9999ME1315119OA149900311REMSYN088AAXX  14174 06798 33/// /2602 10023 20003 38720 48511 52006 333 55300 20000 91106 91204;
0168067980999992011011418004+46800+010283FM-12+129899999V0202801N001019999999N9999999N1+00151-00081999999ADDKA1120M+00591MA1999999087191MD1210041+9999ME1315109OA149900411REMSYN094AAXX  14184 06798 33/// /2802 10015 21008 38719 48510 52004 333 10059 55300 20000 91108 91204;
0149067980999992011011419004+46800+010283FM-12+129899999V0202501N001519999999N9999999N1+00131-00121999999ADDMA1999999087181MD1010011+9999ME1315099OA149900361REMSYN088AAXX  14194 06798 33/// /2503 10013 21012 38718 48509 50001 333 55300 20000 91107 91203;
0149067980999992011011420004+46800+010283FM-12+129899999V0202501N001019999999N9999999N1+00101-00171999999ADDMA1999999087181MD1710021+9999ME1315099OA149900311REMSYN088AAXX  14204 06798 33/// /2502 10010 21017 38718 48509 57002 333 55300 20000 91106 91203;
0149067980999992011011421004+46800+010283FM-12+129899999V0202901N000519999999N9999999N1+00081-00291999999ADDMA1999999087121MD1710071+9999ME1315039OA149900361REMSYN088AAXX  14214 06798 33/// /2901 10008 21029 38712 48503 57007 333 55300 20000 91107 91204;
0149067980999992011011422004+46800+010283FM-12+129899999V0202801N000519999999N9999999N1+00161-00291999999ADDMA1999999087091MD1710091+9999ME1315019OA149900211REMSYN088AAXX  14224 06798 33/// /2801 10016 21029 38709 48501 57009 333 55300 20000 91104 91202;
0149067980999992011011423004+46800+010283FM-12+129899999V0209999C000019999999N9999999N1+00011-00261999999ADDMA1999999087041MD1710141+9999ME1314959OA149900211REMSYN088AAXX  14234 06798 33/// /0000 10001 21026 38704 48495 57014 333 55300 20000 91104 91202;
0149067980999992011011500004+46800+010283FM-12+129899999V0202701N001019999999N9999999N1+00111-00311999999ADDMA1999999086971MD1810151+9999ME1314899OA149900411REMSYN088AAXX  15004 06798 33/// /2702 10011 21031 38697 48489 58015 333 55300 20000 91108 91204;
0149067980999992011011501004+46800+010283FM-12+129899999V0201101N000519999999N9999999N1-00081-00191999999ADDMA1999999086941MD1710151+9999ME1314859OA149900311REMSYN088AAXX  15014 06798 33/// /1101 11008 21019 38694 48485 57015 333 55300 20000 91106 91203;
0149067980999992011011502004+46800+010283FM-12+129899999V0200901N000519999999N9999999N1-00111-00201999999ADDMA1999999087221MD1319999+9999ME1315119OA149900411REMSYN088AAXX  15024 06798 33/// /0901 11011 21020 38722 48511 53/// 333 55300 20000 91108 91203;
0112067980999992011011503004+46800+010283FM-12+129899999V0202201N000519999999N9999999N1-00081-00201999999ADDMA1999999087301ME1315189REMSYN076AAXX  15034 06798 33/// /2201 11008 21020 38730 48518 5//// 333 553// 20000;
0149067980999992011011504004+46800+010283FM-12+129899999V0202301N001019999999N9999999N1+00011-00181999999ADDMA1999999087331MD1210391+9999ME1315229OA149900461REMSYN088AAXX  15044 06798 33/// /2302 10001 21018 38733 48522 52039 333 55300 20004 91109 91205;
0149067980999992011011505004+46800+010283FM-12+129899999V0200201N001519999999N9999999N1-00021-00161999999ADDMA1999999087391MD1210171+9999ME1315279OA149900461REMSYN088AAXX  15054 06798 33/// /0203 11002 21016 38739 48527 52017 333 55300 20000 91109 91206;
0216067980999992011011506004+46800+010283FM-12+129899999V0209999C000019999999N9999999N1-00041-00201999999ADDAL19900091GJ103309IA2999-00409KA1999N-00111MA1999999087481MD1210181+9999ME1315359OA149900461REMSYN112AAXX  15064 06798 33/// /0000 11004 21020 38748 48535 52018 333 21011 3/104 55055 55300 20000 70000 91109 91206;
0149067980999992011011507004+46800+010283FM-12+129899999V0200801N001019999999N9999999N1-00011-00161999999ADDMA1999999087651MD1310321+9999ME1315519OA149900361REMSYN088AAXX  15074 06798 33/// /0802 11001 21016 38765 48551 53032 333 55300 20004 91107 91203;
0149067980999992011011508004+46800+010283FM-12+129899999V0203301N000519999999N9999999N1-00031-00151999999ADDMA1999999087731MD1119999+9999ME1315589OA149900261REMSYN088AAXX  15084 06798 33/// /3301 11003 21015 38773 48558 51/// 333 55300 20101 91105 91202;
0149067980999992011011509004+46800+010283FM-12+129899999V0202701N001019999999N9999999N1+00001-00201999999ADDMA1999999087771MD1110291+9999ME1315629OA149900461REMSYN088AAXX  15094 06798 33/// /2702 10000 21020 38777 48562 51029 333 55300 20112 91109 91206;
0149067980999992011011510004+46800+010283FM-12+129899999V0201601N000519999999N9999999N1+00121-00071999999ADDMA1999999087821MD1110171+9999ME1315679OA149900311REMSYN088AAXX  15104 06798 33/// /1601 10012 21007 38782 48567 51017 333 55309 2//// 91106 91203;
0149067980999992011011511004+46800+010283FM-12+129899999V0202601N000519999999N9999999N1+00321-00061999999ADDMA1999999087771MD1010041+9999ME1315659OA149900311REMSYN088AAXX  15114 06798 33/// /2601 10032 21006 38777 48565 50004 333 553// 2//// 91106 91203;
0149067980999992011011512004+46800+010283FM-12+129899999V0201101N000519999999N9999999N1+00401+00091999999ADDMA1999999087701MD1810071+9999ME1315599OA149900461REMSYN088AAXX  15124 06798 33/// /1101 10040 20009 38770 48559 58007 333 553// 2//// 91109 91206;
0112067980999992011011513004+46800+010283FM-12+129899999V0209999C000019999999N9999999N1+00331-00021999999ADDMA1999999087681ME1315579REMSYN076AAXX  15134 06798 33/// /0000 10033 21002 38768 48557 5//// 333 553// 2////;
0096067980999992011011514004+46800+010283FM-12+129899999V0202501N000519999999N9999999N1+00441-00091999999ADDMA1999999087701ME1315599REMSYN060AAXX  15144 06798 43/// /2501 10044 21009 38770 48559 5////;
0096067980999992011011515004+46800+010283FM-12+129899999V0202601N001019999999N9999999N1+00261-00261999999ADDMA1999999087761ME1315639REMSYN060AAXX  15154 06798 43/// /2602 10026 21026 38776 48563 5////;
0096067980999992011011516004+46800+010283FM-12+129899999V0200401N000519999999N9999999N1+00081-00301999999ADDMA1999999087831ME1315689REMSYN060AAXX  15164 06798 43/// /0401 10008 21030 38783 48568 5////;
0112067980999992011011517004+46800+010283FM-12+129899999V0202601N001519999999N9999999N1+00071-00481999999ADDMA1999999087881ME1315729REMSYN076AAXX  15174 06798 33/// /2603 10007 21048 38788 48572 5//// 333 553// 20004;
0119067980999992011011518004+46800+010283FM-12+129899999V0202601N002119999999N9999999N1+00001-00511999999ADDKA1999M+00531MA1999999087971ME1315809REMSYN070AAXX  15184 06798 43/// /2604 10000 21051 38797 48580 5//// 333 10053;
0096067980999992011011519004+46800+010283FM-12+129899999V0202501N001519999999N9999999N1-00131-00551999999ADDMA1999999088031ME1315849REMSYN060AAXX  15194 06798 43/// /2503 11013 21055 38803 48584 5////;
0096067980999992011011520004+46800+010283FM-12+129899999V0202601N003619999999N9999999N1-00061-00631999999ADDMA1999999088031ME1315859REMSYN060AAXX  15204 06798 43/// /2607 11006 21063 38803 48585 5////;
0149067980999992011011521004+46800+010283FM-12+129899999V0202501N001519999999N9999999N1-00141-00771999999ADDMA1999999088051MD1210081+9999ME1315859OA149900621REMSYN088AAXX  15214 06798 33/// /2503 11014 21077 38805 48585 52008 333 55300 20000 91112 91207;
0149067980999992011011522004+46800+010283FM-12+129899999V0209999C000019999999N9999999N1-00171-00671999999ADDMA1999999088071MD1210041+9999ME1315879OA149900571REMSYN088AAXX  15224 06798 33/// /0000 11017 21067 38807 48587 52004 333 55300 20000 91111 91205;
0149067980999992011011523004+46800+010283FM-12+129899999V0209999C000019999999N9999999N1-00331-00771999999ADDMA1999999088091MD1210061+9999ME1315879OA149900211REMSYN088AAXX  15234 06798 33/// /0000 11033 21077 38809 48587 52006 333 55300 20000 91104 91203;
0149067980999992011011600004+46800+010283FM-12+129899999V0202601N003119999999N9999999N1-00141-00831999999ADDMA1999999088101MD1210051+9999ME1315909OA149900621REMSYN088AAXX  16004 06798 33/// /2606 11014 21083 38810 48590 52005 333 55300 20000 91112 91207;
0149067980999992011011601004+46800+010283FM-12+129899999V0202601N003119999999N9999999N1-00151-00841999999ADDMA1999999088091MD1010021+9999ME1315899OA149900511REMSYN088AAXX  16014 06798 33/// /2606 11015 21084 38809 48589 50002 333 55300 20000 91110 91207;
0149067980999992011011602004+46800+010283FM-12+129899999V0202601N002619999999N9999999N1-00201-00911999999ADDMA1999999088111MD1219999+9999ME1315909OA149900571REMSYN088AAXX  16024 06798 33/// /2605 11020 21091 38811 48590 52/// 333 55300 20000 91111 91207;
0096067980999992011011603004+46800+010283FM-12+129899999V0202401N002119999999N9999999N1-00171-00921999999ADDMA1999999088121ME1315919REMSYN060AAXX  16034 06798 43/// /2404 11017 21092 38812 48591 5////;
0149067980999992011011604004+46800+010283FM-12+129899999V0202401N001519999999N9999999N1-00191-00981999999ADDMA1999999088111MD1210021+9999ME1315909OA149900571REMSYN088AAXX  16044 06798 33/// /2403 11019 21098 38811 48590 52002 333 55300 20000 91111 91207;
0149067980999992011011605004+46800+010283FM-12+129899999V0202501N001519999999N9999999N1-00211-00931999999ADDMA1999999088111MD1510001+9999ME1315909OA149900511REMSYN088AAXX  16054 06798 33/// /2503 11021 21093 38811 48590 55000 333 55300 20000 91110 91207;
0216067980999992011011606004+46800+010283FM-12+129899999V0202601N004119999999N9999999N1-00191-00931999999ADDAL19900091GJ102889IA2999-00609KA1999N-00331MA1999999088111MD1710011+9999ME1315909OA149900621REMSYN112AAXX  16064 06798 33/// /2608 11019 21093 38811 48590 57001 333 21033 3/106 55048 55300 20000 70000 91112 91208;
0149067980999992011011607004+46800+010283FM-12+129899999V0202501N003619999999N9999999N1-00151-00901999999ADDMA1999999088121MD1210011+9999ME1315929OA149900671REMSYN088AAXX  16074 06798 33/// /2507 11015 21090 38812 48592 52001 333 55300 20000 91113 91208;
0149067980999992011011608004+46800+010283FM-12+129899999V0202601N003619999999N9999999N1-00171-00891999999ADDMA1999999088161MD1219999+9999ME1315959OA149900671REMSYN088AAXX  16084 06798 33/// /2607 11017 21089 38816 48595 52/// 333 55300 20079 91113 91208;
0149067980999992011011609004+46800+010283FM-12+129899999V0202401N003119999999N9999999N1-00151-00751999999ADDMA1999999088141MD1210031+9999ME1315939OA149900721REMSYN088AAXX  16094 06798 33/// /2406 11015 21075 38814 48593 52003 333 55300 20130 91114 91209;
0149067980999992011011610004+46800+010283FM-12+129899999V0202401N003119999999N9999999N1+00181-00661999999ADDMA1999999088101MD1810021+9999ME1315939OA149900721REMSYN088AAXX  16104 06798 33/// /2406 10018 21066 38810 48593 58002 333 553// 2//// 91114 91209;
0149067980999992011011611004+46800+010283FM-12+129899999V0201701N001519999999N9999999N1+00321-00431999999ADDMA1999999088051MD1710111+9999ME1315909OA149900671REMSYN088AAXX  16114 06798 33/// /1703 10032 21043 38805 48590 57011 333 553// 2//// 91113 91207;
0149067980999992011011612004+46800+010283FM-12+129899999V0201901N001019999999N9999999N1+00491-00341999999ADDMA1999999087991MD1810151+9999ME1315879OA149900721REMSYN088AAXX  16124 06798 33/// /1902 10049 21034 38799 48587 58015 333 553// 2//// 91114 91209;
0149067980999992011011613004+46800+010283FM-12+129899999V0201401N000519999999N9999999N1+00531-00251999999ADDMA1999999087931MD1810171+9999ME1315829OA149900311REMSYN088AAXX  16134 06798 33/// /1401 10053 21025 38793 48582 58017 333 553// 2//// 91106 91203;
0149067980999992011011614004+46800+010283FM-12+129899999V0201801N000519999999N9999999N1+00581-00151999999ADDMA1999999087921MD1619999+9999ME1315819OA149900261REMSYN088AAXX  16144 06798 33/// /1801 10058 21015 38792 48581 56/// 333 553// 2//// 91105 91203;
0149067980999992011011615004+46800+010283FM-12+129899999V0202501N001019999999N9999999N1+00381-00241999999ADDMA1999999087931MD1510061+9999ME1315809OA149900671REMSYN088AAXX  16154 06798 33/// /2502 10038 21024 38793 48580 55006 333 55308 20547 91113 91207;
0149067980999992011011616004+46800+010283FM-12+129899999V0202801N001019999999N9999999N1+00381-00211999999ADDMA1999999087951MD1310021+9999ME1315829OA149900261REMSYN088AAXX  16164 06798 33/// /2802 10038 21021 38795 48582 53002 333 55300 20050 91105 91202;
0149067980999992011011617004+46800+010283FM-12+129899999V0203601N000519999999N9999999N1+00251-00261999999ADDMA1999999088001MD1310081+9999ME1315859OA149900261REMSYN088AAXX  16174 06798 33/// /3601 10025 21026 38800 48585 53008 333 55300 20000 91105 91202;
0168067980999992011011618004+46800+010283FM-12+129899999V0202601N001519999999N9999999N1+00301-00261999999ADDKA1120M+00621MA1999999088031MD1310101+9999ME1315889OA149900721REMSYN094AAXX  16184 06798 33/// /2603 10030 21026 38803 48588 53010 333 10062 55300 20000 91114 91209;
0149067980999992011011619004+46800+010283FM-12+129899999V0202601N000519999999N9999999N1+00141-00291999999ADDMA1999999088051MD1110101+9999ME1315889OA149900311REMSYN088AAXX  16194 06798 33/// /2601 10014 21029 38805 48588 51010 333 55300 20000 91106 91203;
0149067980999992011011620004+46800+010283FM-12+129899999V0202601N001019999999N9999999N1+00141-00331999999ADDMA1999999088061MD1110061+9999ME1315899OA149900311REMSYN088AAXX  16204 06798 33/// /2602 10014 21033 38806 48589 51006 333 55300 20000 91106 91204;
0149067980999992011011621004+46800+010283FM-12+129899999V0202401N001019999999N9999999N1+00111-00361999999ADDMA1999999088051MD1010021+9999ME1315889OA149900311REMSYN088AAXX  16214 06798 33/// /2402 10011 21036 38805 48588 50002 333 55300 20000 91106 91204;
0149067980999992011011622004+46800+010283FM-12+129899999V0202401N001019999999N9999999N1-00021-00371999999ADDMA1999999088051MD1410001+9999ME1315879OA149900361REMSYN088AAXX  16224 06798 33/// /2402 11002 21037 38805 48587 54000 333 55300 20000 91107 91204;
0149067980999992011011623004+46800+010283FM-12+129899999V0202701N001519999999N9999999N1+00091-00421999999ADDMA1999999088071MD1310011+9999ME1315909OA149900361REMSYN088AAXX  16234 06798 33/// /2703 10009 21042 38807 48590 53001 333 55300 20000 91107 91204;
0149067980999992011011700004+46800+010283FM-12+129899999V0202201N000519999999N9999999N1-00071-00421999999ADDMA1999999088051MD1010001+9999ME1315869OA149900361REMSYN088AAXX  17004 06798 33/// /2201 11007 21042 38805 48586 50000 333 55300 20000 91107 91204;
0149067980999992011011701004+46800+010283FM-12+129899999V0202701N001019999999N9999999N1+00011-00481999999ADDMA1999999088021MD1810031+9999ME1315849OA149900461REMSYN088AAXX  17014 06798 33/// /2702 10001 21048 38802 48584 58003 333 55300 20000 91109 91204;
0149067980999992011011702004+46800+010283FM-12+129899999V0202601N001519999999N9999999N1-00011-00511999999ADDMA1999999088021MD1719999+9999ME1315849OA149900511REMSYN088AAXX  17024 06798 33/// /2603 11001 21051 38802 48584 57/// 333 55300 20000 91110 91205;
0112067980999992011011703004+46800+010283FM-12+129899999V0202701N001519999999N9999999N1-00051-00551999999ADDMA1999999087991ME1315819REMSYN076AAXX  17034 06798 33/// /2703 11005 21055 38799 48581 5//// 333 553// 20000;
0149067980999992011011704004+46800+010283FM-12+129899999V0202601N003119999999N9999999N1-00081-00571999999ADDMA1999999087951MD1710071+9999ME1315779OA149900511REMSYN088AAXX  17044 06798 33/// /2606 11008 21057 38795 48577 57007 333 55300 20000 91110 91206;
0149067980999992011011705004+46800+010283FM-12+129899999V0203001N001019999999N9999999N1-00141-00581999999ADDMA1999999087941MD1610081+9999ME1315769OA149900571REMSYN088AAXX  17054 06798 33/// /3002 11014 21058 38794 48576 56008 333 55300 20000 91111 91207;
0216067980999992011011706004+46800+010283FM-12+129899999V0202601N002119999999N9999999N1-00121-00651999999ADDAL19900091GJ103429IA2999-00509KA1999N-00221MA1999999087931MD1610061+9999ME1315759OA149900571REMSYN112AAXX  17064 06798 33/// /2604 11012 21065 38793 48575 56006 333 21022 3/105 55057 55300 20000 70000 91111 91207;
0149067980999992011011707004+46800+010283FM-12+129899999V0202601N003119999999N9999999N1-00151-00661999999ADDMA1999999087921MD1710031+9999ME1315749OA149900461REMSYN088AAXX  17074 06798 33/// /2606 11015 21066 38792 48574 57003 333 55300 20004 91109 91206;
0096067980999992011011708004+46800+010283FM-12+129899999V0202601N002619999999N9999999N1-00161-00681999999ADDMA1999999087901ME1315729REMSYN060AAXX  17084 06798 43/// /2605 11016 21068 38790 48572 5////;
0096067980999992011011709004+46800+010283FM-12+129899999V0202401N003119999999N9999999N1-00101-00691999999ADDMA1999999087881ME1315719REMSYN060AAXX  17094 06798 43/// /2406 11010 21069 38788 48571 5////;
0149067980999992011011710004+46800+010283FM-12+129899999V0202001N001019999999N9999999N1+00101-00561999999ADDMA1999999087851MD1810071+9999ME1315709OA149900511REMSYN088AAXX  17104 06798 33/// /2002 10010 21056 38785 48570 58007 333 553// 2//// 91110 91206;
0149067980999992011011711004+46800+010283FM-12+129899999V0201601N000519999999N9999999N1+00201-00591999999ADDMA1999999087781MD1810121+9999ME1315649OA149900511REMSYN088AAXX  17114 06798 33/// /1601 10020 21059 38778 48564 58012 333 553// 2//// 91110 91206;
0149067980999992011011712004+46800+010283FM-12+129899999V0202001N001019999999N9999999N1+00351-00531999999ADDMA1999999087711MD1810171+9999ME1315599OA149900571REMSYN088AAXX  17124 06798 33/// /2002 10035 21053 38771 48559 58017 333 553// 2//// 91111 91207;
0149067980999992011011713004+46800+010283FM-12+129899999V0200701N000519999999N9999999N1+00481-00431999999ADDMA1999999087661MD1610191+9999ME1315569OA149900211REMSYN088AAXX  17134 06798 33/// /0701 10048 21043 38766 48556 56019 333 553// 2//// 91104 91202;
0096067980999992011011714004+46800+010283FM-12+129899999V0202401N000519999999N9999999N1+00471-00391999999ADDMA1999999087641ME1315549REMSYN060AAXX  17144 06798 43/// /2401 10047 21039 38764 48554 5////;
0096067980999992011011715004+46800+010283FM-12+129899999V0202501N002119999999N9999999N1+00291-00481999999ADDMA1999999087641ME1315529REMSYN060AAXX  17154 06798 43/// /2504 10029 21048 38764 48552 5////;
0149067980999992011011716004+46800+010283FM-12+129899999V0202601N002619999999N9999999N1+00231-00531999999ADDMA1999999087651MD1510011+9999ME1315539OA149900411REMSYN088AAXX  17164 06798 33/// /2605 10023 21053 38765 48553 55001 333 55300 20050 91108 91205;
0149067980999992011011717004+46800+010283FM-12+129899999V0202501N003619999999N9999999N1+00121-00531999999ADDMA1999999087691MD1310051+9999ME1315559OA149900511REMSYN088AAXX  17174 06798 33/// /2507 10012 21053 38769 48555 53005 333 55300 20004 91110 91207;
0168067980999992011011718004+46800+010283FM-12+129899999V0202701N001519999999N9999999N1+00191-00591999999ADDKA1120M+00561MA1999999087731MD1310091+9999ME1315609OA149900571REMSYN094AAXX  17184 06798 33/// /2703 10019 21059 38773 48560 53009 333 10056 55300 20000 91111 91207;
0149067980999992011011719004+46800+010283FM-12+129899999V0202501N001519999999N9999999N1-00081-00571999999ADDMA1999999087781MD1210131+9999ME1315629OA149900411REMSYN088AAXX  17194 06798 33/// /2503 11008 21057 38778 48562 52013 333 55300 20000 91108 91205;
0149067980999992011011720004+46800+010283FM-12+129899999V0202501N002119999999N9999999N1+00011-00671999999ADDMA1999999087791MD1110101+9999ME1315649OA149900571REMSYN088AAXX  17204 06798 33/// /2504 10001 21067 38779 48564 51010 333 55300 20000 91111 91206;
0149067980999992011011721004+46800+010283FM-12+129899999V0202701N002619999999N9999999N1-00051-00711999999ADDMA1999999087811MD1110081+9999ME1315659OA149900571REMSYN088AAXX  17214 06798 33/// /2705 11005 21071 38781 48565 51008 333 55300 20000 91111 91207;
0149067980999992011011722004+46800+010283FM-12+129899999V0202401N001019999999N9999999N1-00221-00691999999ADDMA1999999087801MD1210021+9999ME1315629OA149900461REMSYN088AAXX  17224 06798 33/// /2402 11022 21069 38780 48562 52002 333 55300 20000 91109 91206;
0149067980999992011011723004+46800+010283FM-12+129899999V0202601N002619999999N9999999N1-00151-00761999999ADDMA1999999087821MD1210031+9999ME1315659OA149900411REMSYN088AAXX  17234 06798 33/// /2605 11015 21076 38782 48565 52003 333 55300 20000 91108 91206;
0149067980999992011011800004+46800+010283FM-12+129899999V0202601N002119999999N9999999N1-00181-00811999999ADDMA1999999087801MD1710011+9999ME1315639OA149900571REMSYN088AAXX  18004 06798 33/// /2604 11018 21081 38780 48563 57001 333 55300 20000 91111 91207;
0149067980999992011011801004+46800+010283FM-12+129899999V0202401N001019999999N9999999N1-00301-00821999999ADDMA1999999087831MD1219999+9999ME1315649OA149900461REMSYN088AAXX  18014 06798 33/// /2402 11030 21082 38783 48564 52/// 333 55300 20000 91109 91205;
0096067980999992011011802004+46800+010283FM-12+129899999V0202601N002119999999N9999999N1-00281-00841999999ADDMA1999999087821ME1315639REMSYN060AAXX  18024 06798 43/// /2604 11028 21084 38782 48563 5////;
0096067980999992011011803004+46800+010283FM-12+129899999V0202601N003119999999N9999999N1-00291-00861999999ADDMA1999999087791ME1315619REMSYN060AAXX  18034 06798 43/// /2606 11029 21086 38779 48561 5////;
0112067980999992011011804004+46800+010283FM-12+129899999V0202601N002119999999N9999999N1-00341-00891999999ADDMA1999999087791ME1315609REMSYN076AAXX  18044 06798 33/// /2604 11034 21089 38779 48560 5//// 333 553// 20000;
0149067980999992011011805004+46800+010283FM-12+129899999V0202601N003119999999N9999999N1-00371-00911999999ADDMA1999999087751MD1810071+9999ME1315569OA149900511REMSYN088AAXX  18054 06798 33/// /2606 11037 21091 38775 48556 58007 333 55300 20000 91110 91206;
0216067980999992011011806004+46800+010283FM-12+129899999V0202701N002119999999N9999999N1-00381-00931999999ADDAL19900091GJ103549IA2999-00709KA1999N-00401MA1999999087751MD1710041+9999ME1315569OA149900571REMSYN112AAXX  18064 06798 33/// /2704 11038 21093 38775 48556 57004 333 21040 3/107 55059 55300 20000 70000 91111 91206;
0149067980999992011011807004+46800+010283FM-12+129899999V0202701N002119999999N9999999N1-00431-00941999999ADDMA1999999087751MD1510041+9999ME1315569OA149900511REMSYN088AAXX  18074 06798 33/// /2704 11043 21094 38775 48556 55004 333 55300 20004 91110 91206;
0096067980999992011011808004+46800+010283FM-12+129899999V0202501N003619999999N9999999N1-00411-00951999999ADDMA1999999087771ME1315589REMSYN060AAXX  18084 06798 43/// /2507 11041 21095 38777 48558 5////;
