0149067910999992011010100004+46417+009817FM-12+329999999V0202001N001519999999N9999999N1-00731-03041999999ADDMA1999999067681MD1710041+9999ME1430399OA149900821REMSYN088AAXX  01004 06791 33/// /2003 11073 21304 36768 47039 57004 333 55300 20000 91116 91214;
0149067910999992011010101004+46417+009817FM-12+329999999V0202301N003119999999N9999999N1-00741-03181999999ADDMA1999999067651MD1810081+9999ME1430359OA149900461REMSYN088AAXX  01014 06791 33/// /2306 11074 21318 36765 47035 58008 333 55300 20000 91109 91206;
0149067910999992011010102004+46417+009817FM-12+329999999V0202401N003119999999N9999999N1-00731-03231999999ADDMA1999999067651MD1610061+9999ME1430359OA149900361REMSYN088AAXX  01024 06791 33/// /2406 11073 21323 36765 47035 56006 333 55300 20000 91107 91206;
0149067910999992011010103004+46417+009817FM-12+329999999V0202801N003119999999N9999999N1-00671-03221999999ADDMA1999999067621MD1810061+9999ME1430319OA149900511REMSYN088AAXX  01034 06791 33/// /2806 11067 21322 36762 47031 58006 333 55300 20000 91110 91208;
0149067910999992011010104004+46417+009817FM-12+329999999V0202901N003619999999N9999999N1-00741-02551999999ADDMA1999999067581MD1810071+9999ME1430279OA149900411REMSYN088AAXX  01044 06791 33/// /2907 11074 21255 36758 47027 58007 333 55300 20000 91108 91207;
0149067910999992011010105004+46417+009817FM-12+329999999V0203101N003119999999N9999999N1-00731-02681999999ADDMA1999999067571MD1610081+9999ME1430269OA149900411REMSYN088AAXX  01054 06791 33/// /3106 11073 21268 36757 47026 56008 333 55300 20000 91108 91207;
0198067910999992011010106004+46417+009817FM-12+329999999V0203001N004119999999N9999999N1-00691-03291999999ADDAL19900091GJ104629KA1999N-00821MA1999999067561MD1610061+9999ME1430249OA149900821REMSYN106AAXX  01064 06791 33/// /3008 11069 21329 36756 47024 56006 333 21082 55077 55300 20000 70000 91116 91214;
0149067910999992011010107004+46417+009817FM-12+329999999V0203501N002619999999N9999999N1-00611-02791999999ADDMA1999999067561MD1610021+9999ME1430249OA149900511REMSYN088AAXX  01074 06791 33/// /3505 11061 21279 36756 47024 56002 333 55300 20000 91110 91208;
0149067910999992011010108004+46417+009817FM-12+329999999V0200101N003119999999N9999999N1-00681-03081999999ADDMA1999999067571MD1519999+9999ME1430259OA149900461REMSYN088AAXX  01084 06791 33/// /0106 11068 21308 36757 47025 55/// 333 55304 20122 91109 91207;
0096067910999992011010109004+46417+009817FM-12+329999999V0200101N003119999999N9999999N1-00681-02651999999ADDMA1999999067571ME1430259REMSYN060AAXX  01094 06791 43/// /0106 11068 21265 36757 47025 5////;
0096067910999992011010110004+46417+009817FM-12+329999999V0200301N004119999999N9999999N1-00681-02811999999ADDMA1999999067551ME1430239REMSYN060AAXX  01104 06791 43/// /0308 11068 21281 36755 47023 5////;
0149067910999992011010111004+46417+009817FM-12+329999999V0200301N004119999999N9999999N1-00701-02311999999ADDMA1999999067511MD1810061+9999ME1430199OA149900511REMSYN088AAXX  01114 06791 33/// /0308 11070 21231 36751 47019 58006 333 553// 2//// 91110 91208;
0096067910999992011010112004+46417+009817FM-12+329999999V0200201N004619999999N9999999N1-00711-01981999999ADDMA1999999067461ME1430139REMSYN060AAXX  01124 06791 43/// /0209 11071 21198 36746 47013 5////;
0096067910999992011010113004+46417+009817FM-12+329999999V0200201N005719999999N9999999N1-00811-01771999999ADDMA1999999067421ME1430099REMSYN060AAXX  01134 06791 43/// /0211 11081 21177 36742 47009 5////;
0096067910999992011010114004+46417+009817FM-12+329999999V0200301N005719999999N9999999N1-00821-01631999999ADDMA1999999067391ME1430069REMSYN060AAXX  01144 06791 43/// /0311 11082 21163 36739 47006 5////;
0096067910999992011010115004+46417+009817FM-12+329999999V0200201N004619999999N9999999N1-00881-01561999999ADDMA1999999067381ME1430069REMSYN060AAXX  01154 06791 43/// /0209 11088 21156 36738 47006 5////;
0096067910999992011010116004+46417+009817FM-12+329999999V0200401N005719999999N9999999N1-00861-01561999999ADDMA1999999067361ME1430039REMSYN060AAXX  01164 06791 43/// /0411 11086 21156 36736 47003 5////;
0096067910999992011010117004+46417+009817FM-12+329999999V0200201N005119999999N9999999N1-00781-01661999999ADDMA1999999067351ME1430019REMSYN060AAXX  01174 06791 43/// /0210 11078 21166 36735 47001 5////;
0096067910999992011010118004+46417+009817FM-12+329999999V0200201N006219999999N9999999N1-00811-01601999999ADDMA1999999067321ME1429989REMSYN060AAXX  01184 06791 43/// /0212 11081 21160 36732 47998 5////;
0112067910999992011010119004+46417+009817FM-12+329999999V0200201N006219999999N9999999N1-00801-01831999999ADDMA1999999067301ME1429959REMSYN076AAXX  01194 06791 33/// /0212 11080 21183 36730 47995 5//// 333 553// 20000;
0149067910999992011010120004+46417+009817FM-12+329999999V0200201N007219999999N9999999N1-00801-01751999999ADDMA1999999067281MD1610071+9999ME1429939OA149900931REMSYN088AAXX  01204 06791 33/// /0214 11080 21175 36728 47993 56007 333 55300 20000 91118 91214;
0149067910999992011010121004+46417+009817FM-12+329999999V0200401N006719999999N9999999N1-00841-01771999999ADDMA1999999067261MD1610061+9999ME1429919OA149900931REMSYN088AAXX  01214 06791 33/// /0413 11084 21177 36726 47991 56006 333 55300 20000 91118 91214;
0149067910999992011010122004+46417+009817FM-12+329999999V0200801N005119999999N9999999N1-00921-01511999999ADDMA1999999067241MD1810061+9999ME1429909OA149900931REMSYN088AAXX  01224 06791 33/// /0810 11092 21151 36724 47990 58006 333 55300 20000 91118 91214;
0149067910999992011010123004+46417+009817FM-12+329999999V0200301N007219999999N9999999N1-00861-01731999999ADDMA1999999067221MD1610061+9999ME1429879OA149900931REMSYN088AAXX  01234 06791 33/// /0314 11086 21173 36722 47987 56006 333 55300 20000 91118 91214;
0149067910999992011010200004+46417+009817FM-12+329999999V0200201N006719999999N9999999N1-00921-01601999999ADDMA1999999067171MD1810091+9999ME1429829OA149900931REMSYN088AAXX  02004 06791 33/// /0213 11092 21160 36717 47982 58009 333 55300 20000 91118 91214;
0149067910999992011010201004+46417+009817FM-12+329999999V0200201N006219999999N9999999N1-00941-01631999999ADDMA1999999067151MD1810091+9999ME1429809OA149901031REMSYN088AAXX  02014 06791 33/// /0212 11094 21163 36715 47980 58009 333 55300 20000 91120 91214;
0096067910999992011010202004+46417+009817FM-12+329999999V0200201N006219999999N9999999N1-00961-01691999999ADDMA1999999067141ME1429799REMSYN060AAXX  02024 06791 43/// /0212 11096 21169 36714 47979 5////;
0096067910999992011010203004+46417+009817FM-12+329999999V0200101N007219999999N9999999N1-00851-02652999999ADDMA1999999067121ME1429759REMSYN060AAXX  02034 06791 43/// /0114 11085 21265 36712 47975 5////;
0096067910999992011010204004+46417+009817FM-12+329999999V0209999C005719999999N9999999N1-00921-01901999999ADDMA1999999067071ME1429709REMSYN060AAXX  02044 06791 43/// /0011 11092 21190 36707 47970 5////;
0096067910999992011010205004+46417+009817FM-12+329999999V0203401N004619999999N9999999N1-00881-01831999999ADDMA1999999067051ME1429679REMSYN060AAXX  02054 06791 43/// /3409 11088 21183 36705 47967 5////;
0125067910999992011010206004+46417+009817FM-12+329999999V0200201N003619999999N9999999N1-00991-01881999999ADDKA1999N-01041MA1999999067031ME1429669REMSYN076AAXX  02064 06791 43/// /0207 11099 21188 36703 47966 5//// 333 21104 55077;
0149067910999992011010207004+46417+009817FM-12+329999999V0203501N004619999999N9999999N1-01031-01891999999ADDMA1999999067011MD1610061+9999ME1429659OA149900721REMSYN088AAXX  02074 06791 33/// /3509 11103 21189 36701 47965 56006 333 55300 20000 91114 91209;
0149067910999992011010208004+46417+009817FM-12+329999999V0203501N001519999999N9999999N1-01051-01901999999ADDMA1999999067021MD1710031+9999ME1429669OA149900721REMSYN088AAXX  02084 06791 33/// /3503 11105 21190 36702 47966 57003 333 55304 20122 91114 91209;
0149067910999992011010209004+46417+009817FM-12+329999999V0203401N004119999999N9999999N1-00991-02471999999ADDMA1999999067031MD1510001+9999ME1429669OA149900881REMSYN088AAXX  02094 06791 33/// /3408 11099 21247 36703 47966 55000 333 553// 20662 91117 91213;
0149067910999992011010210004+46417+009817FM-12+329999999V0203301N005119999999N9999999N1-00991-02931999999ADDMA1999999067041MD1310031+9999ME1429679OA149900771REMSYN088AAXX  02104 06791 33/// /3310 11099 21293 36704 47967 53003 333 553// 2//// 91115 91210;
0149067910999992011010211004+46417+009817FM-12+329999999V0203101N005719999999N9999999N1-01031-03231999999ADDMA1999999066991MD1810031+9999ME1429629OA149900981REMSYN088AAXX  02114 06791 33/// /3111 11103 21323 36699 47962 58003 333 553// 2//// 91119 91211;
0149067910999992011010212004+46417+009817FM-12+329999999V0203101N004119999999N9999999N1-00991-03371999999ADDMA1999999066951MD1710081+9999ME1429579OA149901031REMSYN088AAXX  02124 06791 33/// /3108 11099 21337 36695 47957 57008 333 553// 2//// 91120 91214;
0149067910999992011010213004+46417+009817FM-12+329999999V0203001N003119999999N9999999N1-01091-03341999999ADDMA1999999066921MD1610121+9999ME1429559OA149900881REMSYN088AAXX  02134 06791 33/// /3006 11109 21334 36692 47955 56012 333 553// 2//// 91117 91209;
0112067910999992011010214004+46417+009817FM-12+329999999V0203101N003619999999N9999999N1-01141-02741999999ADDMA1999999066921ME1429569REMSYN076AAXX  02144 06791 33/// /3107 11114 21274 36692 47956 5//// 333 553// 2////;
0149067910999992011010215004+46417+009817FM-12+329999999V0203401N002119999999N9999999N1-01231-02751999999ADDMA1999999066931MD1510021+9999ME1429589OA149900981REMSYN088AAXX  02154 06791 33/// /3404 11123 21275 36693 47958 55002 333 553// 20572 91119 91211;
0149067910999992011010216004+46417+009817FM-12+329999999V0203301N005119999999N9999999N1-01181-03191999999ADDMA1999999066911MD1810011+9999ME1429559OA149900981REMSYN088AAXX  02164 06791 33/// /3310 11118 21319 36691 47955 58001 333 55303 20090 91119 91210;
0149067910999992011010217004+46417+009817FM-12+329999999V0203301N005119999999N9999999N1-01271-03301999999ADDMA1999999066911MD1710011+9999ME1429569OA149900981REMSYN088AAXX  02174 06791 33/// /3310 11127 21330 36691 47956 57001 333 55300 20000 91119 91212;
0168067910999992011010218004+46417+009817FM-12+329999999V0200101N005119999999N9999999N1-01431-03421999999ADDKA1120M-00961MA1999999066941MD1310011+9999ME1429629OA149900981REMSYN094AAXX  02184 06791 33/// /0110 11143 21342 36694 47962 53001 333 11096 55300 20000 91119 91212;
0149067910999992011010219004+46417+009817FM-12+329999999V0203601N006719999999N9999999N1-01431-04081999999ADDMA1999999066941MD1110031+9999ME1429629OA149900821REMSYN088AAXX  02194 06791 33/// /3613 11143 21408 36694 47962 51003 333 55300 20000 91116 91213;
0149067910999992011010220004+46417+009817FM-12+329999999V0200201N006219999999N9999999N1-01471-04081999999ADDMA1999999066961MD1210051+9999ME1429659OA149900881REMSYN088AAXX  02204 06791 33/// /0212 11147 21408 36696 47965 52005 333 55300 20000 91117 91214;
0149067910999992011010221004+46417+009817FM-12+329999999V0200101N006219999999N9999999N1-01511-04131999999ADDMA1999999066971MD1210031+9999ME1429669OA149900981REMSYN088AAXX  02214 06791 33/// /0112 11151 21413 36697 47966 52003 333 55300 20000 91119 91214;
0149067910999992011010222004+46417+009817FM-12+329999999V0209999C008219999999N9999999N1-01541-04281999999ADDMA1999999066981MD1210041+9999ME1429689OA149900981REMSYN088AAXX  02224 06791 33/// /0016 11154 21428 36698 47968 52004 333 55300 20000 91119 91216;
0149067910999992011010223004+46417+009817FM-12+329999999V0200201N005719999999N9999999N1-01561-04311999999ADDMA1999999066981MD1210021+9999ME1429689OA149901031REMSYN088AAXX  02234 06791 33/// /0211 11156 21431 36698 47968 52002 333 55300 20000 91120 91216;
0149067910999992011010300004+46417+009817FM-12+329999999V0203401N008719999999N9999999N1-01501-04461999999ADDMA1999999066951MD1710021+9999ME1429649OA149901241REMSYN088AAXX  03004 06791 33/// /3417 11150 21446 36695 47964 57002 333 55300 20000 91124 91217;
0149067910999992011010301004+46417+009817FM-12+329999999V0203401N008719999999N9999999N1-01431-04641999999ADDMA1999999066941MD1610041+9999ME1429629OA149901341REMSYN088AAXX  03014 06791 33/// /3417 11143 21464 36694 47962 56004 333 55300 20000 91126 91218;
0149067910999992011010302004+46417+009817FM-12+329999999V0203401N008719999999N9999999N1-01491-04381999999ADDMA1999999066941MD1719999+9999ME1429639OA149901391REMSYN088AAXX  03024 06791 33/// /3417 11149 21438 36694 47963 57/// 333 55300 20000 91127 91219;
0096067910999992011010303004+46417+009817FM-12+329999999V0203501N007219999999N9999999N1-01611-03971999999ADDMA1999999066931ME1429639REMSYN060AAXX  03034 06791 43/// /3514 11161 21397 36693 47963 5////;
0149067910999992011010304004+46417+009817FM-12+329999999V0203401N006219999999N9999999N1-01551-03891999999ADDMA1999999066911MD1710031+9999ME1429609OA149901391REMSYN088AAXX  03044 06791 33/// /3412 11155 21389 36691 47960 57003 333 55300 20000 91127 91218;
0149067910999992011010305004+46417+009817FM-12+329999999V0203501N008219999999N9999999N1-01611-04051999999ADDMA1999999066911MD1610031+9999ME1429619OA149901541REMSYN088AAXX  03054 06791 33/// /3516 11161 21405 36691 47961 56003 333 55300 20000 91130 91217;
0198067910999992011010306004+46417+009817FM-12+329999999V0203401N009819999999N9999999N1-01601-04011999999ADDAL19900091GJ104629KA1999N-01641MA1999999066921MD1510011+9999ME1429629OA149901701REMSYN106AAXX  03064 06791 33/// /3419 11160 21401 36692 47962 55001 333 21164 55077 55300 20000 70000 91133 91219;
0149067910999992011010307004+46417+009817FM-12+329999999V0203301N006219999999N9999999N1-01711-03881999999ADDMA1999999066931MD1310021+9999ME1429649OA149901701REMSYN088AAXX  03074 06791 33/// /3312 11171 21388 36693 47964 53002 333 55300 20000 91133 91219;
0149067910999992011010308004+46417+009817FM-12+329999999V0203501N004619999999N9999999N1-01681-03951999999ADDMA1999999066971MD1219999+9999ME1429689OA149901441REMSYN088AAXX  03084 06791 33/// /3509 11168 21395 36697 47968 52/// 333 55304 20126 91128 91219;
0112067910999992011010309004+46417+009817FM-12+329999999V0203401N007219999999N9999999N1-01571-04892999999ADDMA1999999066971ME1429679REMSYN076AAXX  03094 06791 33/// /3414 11157 21489 36697 47967 5//// 333 553// 20677;
0149067910999992011010310004+46417+009817FM-12+329999999V0203401N006219999999N9999999N1-01551-04591999999ADDMA1999999067011MD1210081+9999ME1429719OA149901181REMSYN088AAXX  03104 06791 33/// /3412 11155 21459 36701 47971 52008 333 553// 2//// 91123 91214;
0149067910999992011010311004+46417+009817FM-12+329999999V0203401N006719999999N9999999N1-01521-04231999999ADDMA1999999067021MD1110051+9999ME1429729OA149901081REMSYN088AAXX  03114 06791 33/// /3413 11152 21423 36702 47972 51005 333 553// 2//// 91121 91214;
0149067910999992011010312004+46417+009817FM-12+329999999V0203301N007219999999N9999999N1-01441-04371999999ADDMA1999999066991MD1010021+9999ME1429689OA149901701REMSYN088AAXX  03124 06791 33/// /3314 11144 21437 36699 47968 50002 333 553// 2//// 91133 91219;
0149067910999992011010313004+46417+009817FM-12+329999999V0203401N006719999999N9999999N1-01511-04011999999ADDMA1999999066981MD1710031+9999ME1429679OA149901131REMSYN088AAXX  03134 06791 33/// /3413 11151 21401 36698 47967 57003 333 553// 2//// 91122 91214;
0112067910999992011010314004+46417+009817FM-12+329999999V0203401N006219999999N9999999N1-01461-04431999999ADDMA1999999067011ME1429709REMSYN076AAXX  03144 06791 33/// /3412 11146 21443 36701 47970 5//// 333 553// 2////;
0112067910999992011010315004+46417+009817FM-12+329999999V0203301N007219999999N9999999N1-01421-04461999999ADDMA1999999067021ME1429719REMSYN076AAXX  03154 06791 33/// /3314 11142 21446 36702 47971 5//// 333 553// 20580;
0149067910999992011010316004+46417+009817FM-12+329999999V0203301N006719999999N9999999N1-01431-03861999999ADDMA1999999067031MD1210051+9999ME1429729OA149901031REMSYN088AAXX  03164 06791 33/// /3313 11143 21386 36703 47972 52005 333 55303 20094 91120 91214;
0149067910999992011010317004+46417+009817FM-12+329999999V0203301N007219999999N9999999N1-01431-03821999999ADDMA1999999067051MD1310041+9999ME1429749OA149900981REMSYN088AAXX  03174 06791 33/// /3314 11143 21382 36705 47974 53004 333 55300 20000 91119 91214;
0168067910999992011010318004+46417+009817FM-12+329999999V0203401N006719999999N9999999N1-01361-03651999999ADDKA1120M-01361MA1999999067061MD1110041+9999ME1429759OA149901441REMSYN094AAXX  03184 06791 33/// /3413 11136 21365 36706 47975 51004 333 11136 55300 20000 91128 91219;
0149067910999992011010319004+46417+009817FM-12+329999999V0203301N005119999999N9999999N1-01361-03471999999ADDMA1999999067071MD1110041+9999ME1429769OA149901031REMSYN088AAXX  03194 06791 33/// /3310 11136 21347 36707 47976 51004 333 55300 20000 91120 91214;
0149067910999992011010320004+46417+009817FM-12+329999999V0203201N005119999999N9999999N1-01361-03601999999ADDMA1999999067071MD1110021+9999ME1429769OA149900981REMSYN088AAXX  03204 06791 33/// /3210 11136 21360 36707 47976 51002 333 55300 20000 91119 91213;
0149067910999992011010321004+46417+009817FM-12+329999999V0203101N005119999999N9999999N1-01361-03261999999ADDMA1999999067081MD1110021+9999ME1429779OA149901031REMSYN088AAXX  03214 06791 33/// /3110 11136 21326 36708 47977 51002 333 55300 20000 91120 91214;
0149067910999992011010322004+46417+009817FM-12+329999999V0203001N005719999999N9999999N1-01391-03301999999ADDMA1999999067081MD1210011+9999ME1429779OA149900771REMSYN088AAXX  03224 06791 33/// /3011 11139 21330 36708 47977 52001 333 55300 20000 91115 91211;
0149067910999992011010323004+46417+009817FM-12+329999999V0202801N006719999999N9999999N1-01381-03131999999ADDMA1999999067071MD1010001+9999ME1429769OA149900881REMSYN088AAXX  03234 06791 33/// /2813 11138 21313 36707 47976 50000 333 55300 20000 91117 91213;
0149067910999992011010400004+46417+009817FM-12+329999999V0202501N006719999999N9999999N1-01381-02851999999ADDMA1999999067051MD1810031+9999ME1429749OA149901031REMSYN088AAXX  04004 06791 33/// /2513 11138 21285 36705 47974 58003 333 55300 20000 91120 91214;
0149067910999992011010401004+46417+009817FM-12+329999999V0202401N005719999999N9999999N1-01351-02851999999ADDMA1999999067031MD1710051+9999ME1429719OA149900931REMSYN088AAXX  04014 06791 33/// /2411 11135 21285 36703 47971 57005 333 55300 20000 91118 91214;
0149067910999992011010402004+46417+009817FM-12+329999999V0202601N007219999999N9999999N1-01351-02771999999ADDMA1999999067011MD1719999+9999ME1429699OA149901131REMSYN088AAXX  04024 06791 33/// /2614 11135 21277 36701 47969 57/// 333 55300 20000 91122 91214;
0149067910999992011010403004+46417+009817FM-12+329999999V0202701N005119999999N9999999N1-01351-02831999999ADDMA1999999066981MD1710071+9999ME1429659OA149901131REMSYN088AAXX  04034 06791 33/// /2710 11135 21283 36698 47965 57007 333 55300 20000 91122 91214;
0149067910999992011010404004+46417+009817FM-12+329999999V0202601N005119999999N9999999N1-01311-02891999999ADDMA1999999066941MD1810091+9999ME1429609OA149900981REMSYN088AAXX  04044 06791 33/// /2610 11131 21289 36694 47960 58009 333 55300 20000 91119 91213;
0149067910999992011010405004+46417+009817FM-12+329999999V0202601N005119999999N9999999N1-01391-02851999999ADDMA1999999066911MD1810101+9999ME1429589OA149900671REMSYN088AAXX  04054 06791 33/// /2610 11139 21285 36691 47958 58010 333 55300 20000 91113 91210;
0198067910999992011010406004+46417+009817FM-12+329999999V0202701N005119999999N9999999N1-01321-02941999999ADDAL19900091GJ104629KA1999N-01411MA1999999066891MD1610091+9999ME1429559OA149901131REMSYN106AAXX  04064 06791 33/// /2710 11132 21294 36689 47955 56009 333 21141 55077 55300 20000 70000 91122 91214;
0149067910999992011010407004+46417+009817FM-12+329999999V0203101N005119999999N9999999N1-01371-02941999999ADDMA1999999066901MD1710041+9999ME1429569OA149900821REMSYN088AAXX  04074 06791 33/// /3110 11137 21294 36690 47956 57004 333 55300 20000 91116 91210;
0149067910999992011010408004+46417+009817FM-12+329999999V0203101N002619999999N9999999N1-01331-03031999999ADDMA1999999066911MD1519999+9999ME1429579OA149900821REMSYN088AAXX  04084 06791 33/// /3105 11133 21303 36691 47957 55/// 333 55300 20032 91116 91210;
0112067910999992011010409004+46417+009817FM-12+329999999V0202501N001019999999N9999999N1-01281-02821999999ADDMA1999999066921ME1429579REMSYN076AAXX  04094 06791 33/// /2502 11128 21282 36692 47957 5//// 333 553// 20158;
0149067910999992011010410004+46417+009817FM-12+329999999V0202601N002119999999N9999999N1-01251-02811999999ADDMA1999999066941MD1310041+9999ME1429599OA149900311REMSYN088AAXX  04104 06791 33/// /2604 11125 21281 36694 47959 53004 333 55304 20842 91106 91204;
0149067910999992011010411004+46417+009817FM-12+329999999V0202801N000519999999N9999999N1-01291-02991999999ADDMA1999999066891MD1810021+9999ME1429549OA149900311REMSYN088AAXX  04114 06791 33/// /2801 11129 21299 36689 47954 58002 333 55303 2//// 91106 91204;
0149067910999992011010412004+46417+009817FM-12+329999999V0201601N001519999999N9999999N1-01301-02791999999ADDMA1999999066841MD1710081+9999ME1429489OA149901131REMSYN088AAXX  04124 06791 33/// /1603 11130 21279 36684 47948 57008 333 55300 20857 91122 91214;
0149067910999992011010413004+46417+009817FM-12+329999999V0201601N002619999999N9999999N1-01271-03001999999ADDMA1999999066811MD1610131+9999ME1429459OA149900311REMSYN088AAXX  04134 06791 33/// /1605 11127 21300 36681 47945 56013 333 55300 20734 91106 91205;
0112067910999992011010414004+46417+009817FM-12+329999999V0201601N002619999999N9999999N1-01261-02971999999ADDMA1999999066791ME1429429REMSYN076AAXX  04144 06791 33/// /1605 11126 21297 36679 47942 5//// 333 553// 20832;
0096067910999992011010415004+46417+009817FM-12+329999999V0201901N003119999999N9999999N1-01281-02621999999ADDMA1999999066801ME1429449REMSYN060AAXX  04154 06791 43/// /1906 11128 21262 36680 47944 5////;
0149067910999992011010416004+46417+009817FM-12+329999999V0202301N003119999999N9999999N1-01321-02631999999ADDMA1999999066791MD1710021+9999ME1429439OA149900621REMSYN088AAXX  04164 06791 33/// /2306 11132 21263 36679 47943 57002 333 55303 20076 91112 91207;
0149067910999992011010417004+46417+009817FM-12+329999999V0202501N003119999999N9999999N1-01331-02691999999ADDMA1999999066801MD1410001+9999ME1429449OA149900721REMSYN088AAXX  04174 06791 33/// /2506 11133 21269 36680 47944 54001 333 55300 20000 91114 91209;
0187067910999992011010418004+46417+009817FM-12+329999999V0202301N002619999999N9999999N1-01371-02781999999ADDKA1120M-01241MA1999999066801MD1410001+9999ME1429459OA149900821REMSYN094AAXX  04184 06791 33/// /2305 11137 21278 36680 47945 52000 333 11124 55300 20000 91116 91210;EQDQ01+000022APCTEN
0149067910999992011010419004+46417+009817FM-12+329999999V0202301N002119999999N9999999N1-01431-02811999999ADDMA1999999066811MD1210021+9999ME1429479OA149900461REMSYN088AAXX  04194 06791 33/// /2304 11143 21281 36681 47947 52002 333 55300 20000 91109 91207;
0149067910999992011010420004+46417+009817FM-12+329999999V0202301N004119999999N9999999N1-01381-02661999999ADDMA1999999066821MD1210021+9999ME1429479OA149900671REMSYN088AAXX  04204 06791 33/// /2308 11138 21266 36682 47947 52002 333 55300 20000 91113 91208;
0168067910999992011010421004+46417+009817FM-12+329999999V0202301N004619999999N9999999N1-01371-03011999999ADDMA1999999066801MD1410001+9999ME1429459OA149900821REMSYN088AAXX  04214 06791 33/// /2309 11137 21301 36680 47945 57000 333 55300 20000 91116 91210;EQDQ01+000072APCTEN
0149067910999992011010422004+46417+009817FM-12+329999999V0202401N003119999999N9999999N1-01411-03021999999ADDMA1999999066811MD1010001+9999ME1429479OA149900821REMSYN088AAXX  04224 06791 33/// /2406 11141 21302 36681 47947 50000 333 55300 20000 91116 91210;
0149067910999992011010423004+46417+009817FM-12+329999999V0202301N006719999999N9999999N1-01391-02921999999ADDMA1999999066801MD1710021+9999ME1429459OA149901291REMSYN088AAXX  04234 06791 33/// /2313 11139 21292 36680 47945 57002 333 55300 20000 91125 91215;
0149067910999992011010500004+46417+009817FM-12+329999999V0202501N008219999999N9999999N1-01411-02811999999ADDMA1999999066781MD1810021+9999ME1429439OA149901291REMSYN088AAXX  05004 06791 33/// /2516 11141 21281 36678 47943 58002 333 55300 20000 91125 91217;
0149067910999992011010501004+46417+009817FM-12+329999999V0202501N009319999999N9999999N1-01381-02591999999ADDMA1999999066771MD1710041+9999ME1429429OA149901291REMSYN088AAXX  05014 06791 33/// /2518 11138 21259 36677 47942 57004 333 55300 20000 91125 91219;
0149067910999992011010502004+46417+009817FM-12+329999999V0202501N008719999999N9999999N1-01311-02921999999ADDMA1999999066771MD1710031+9999ME1429419OA149901241REMSYN088AAXX  05024 06791 33/// /2517 11131 21292 36677 47941 57003 333 55300 20000 91124 91219;
0096067910999992011010503004+46417+009817FM-12+329999999V0202501N006219999999N9999999N1-01341-02951999999ADDMA1999999066761ME1429409REMSYN060AAXX  05034 06791 43/// /2512 11134 21295 36676 47940 5////;
0149067910999992011010504004+46417+009817FM-12+329999999V0202801N006219999999N9999999N1-01361-02491999999ADDMA1999999066771MD1010001+9999ME1429419OA149901031REMSYN088AAXX  05044 06791 33/// /2812 11136 21249 36677 47941 50000 333 55300 20000 91120 91216;
0149067910999992011010505004+46417+009817FM-12+329999999V0203001N005719999999N9999999N1-01341-03071999999ADDMA1999999066771MD1510001+9999ME1429419OA149901031REMSYN088AAXX  05054 06791 33/// /3011 11134 21307 36677 47941 55000 333 55300 20000 91120 91213;
0198067910999992011010506004+46417+009817FM-12+329999999V0202901N005719999999N9999999N1-01341-02961999999ADDAL19900091GJ101689KA1999N-01451MA1999999066801MD1310041+9999ME1429449OA149901291REMSYN106AAXX  05064 06791 33/// /2911 11134 21296 36680 47944 53004 333 21145 55028 55300 20000 70000 91125 91219;
0149067910999992011010507004+46417+009817FM-12+329999999V0202901N005719999999N9999999N1-01321-02741999999ADDMA1999999066821MD1310051+9999ME1429469OA149901081REMSYN088AAXX  05074 06791 33/// /2911 11132 21274 36682 47946 53005 333 55300 20000 91121 91212;
0149067910999992011010508004+46417+009817FM-12+329999999V0203001N005119999999N9999999N1-01351-02511999999ADDMA1999999066861MD1319999+9999ME1429519OA149900881REMSYN088AAXX  05084 06791 33/// /3010 11135 21251 36686 47951 53/// 333 55304 20119 91117 91211;
0149067910999992011010509004+46417+009817FM-12+329999999V0202801N005119999999N9999999N1-01291-02441999999ADDMA1999999066891MD1310091+9999ME1429549OA149901081REMSYN088AAXX  05094 06791 33/// /2810 11129 21244 36689 47954 53009 333 553// 20666 91121 91213;
0149067910999992011010510004+46417+009817FM-12+329999999V0202801N004619999999N9999999N1-01281-02671999999ADDMA1999999066931MD1310111+9999ME1429599OA149900771REMSYN088AAXX  05104 06791 33/// /2809 11128 21267 36693 47959 53011 333 553// 2//// 91115 91211;
0149067910999992011010511004+46417+009817FM-12+329999999V0202501N005719999999N9999999N1-01211-02501999999ADDMA1999999066931MD1110071+9999ME1429589OA149900771REMSYN088AAXX  05114 06791 33/// /2511 11121 21250 36693 47958 51007 333 553// 2//// 91115 91211;
0112067910999992011010512004+46417+009817FM-12+329999999V0202401N003119999999N9999999N1-01221-02621999999ADDMA1999999066901ME1429549REMSYN076AAXX  05124 06791 33/// /2406 11122 21262 36690 47954 5//// 333 553// 2////;
0149067910999992011010513004+46417+009817FM-12+329999999V0202401N005119999999N9999999N1-01151-02591999999ADDMA1999999066901MD1610031+9999ME1429539OA149900721REMSYN088AAXX  05134 06791 33/// /2410 11115 21259 36690 47953 56003 333 553// 2//// 91114 91210;
0096067910999992011010514004+46417+009817FM-12+329999999V0202501N003619999999N9999999N1-01141-02911999999ADDMA1999999066931ME1429579REMSYN060AAXX  05144 06791 43/// /2507 11114 21291 36693 47957 5////;
0096067910999992011010515004+46417+009817FM-12+329999999V0202501N004619999999N9999999N1-01131-02651999999ADDMA1999999066951ME1429599REMSYN060AAXX  05154 06791 43/// /2509 11113 21265 36695 47959 5////;
0149067910999992011010516004+46417+009817FM-12+329999999V0202301N004119999999N9999999N1-01241-02791999999ADDMA1999999066991MD1310091+9999ME1429659OA149900931REMSYN088AAXX  05164 06791 33/// /2308 11124 21279 36699 47965 53009 333 55303 20101 91118 91210;
0149067910999992011010517004+46417+009817FM-12+329999999V0202501N007219999999N9999999N1-01211-03061999999ADDMA1999999067011MD1110081+9999ME1429679OA149901031REMSYN088AAXX  05174 06791 33/// /2514 11121 21306 36701 47967 51008 333 55300 20000 91120 91214;
0168067910999992011010518004+46417+009817FM-12+329999999V0202401N003619999999N9999999N1-01111-02301999999ADDKA1120M-01111MA1999999067021MD1219999+9999ME1429679OA149901031REMSYN094AAXX  05184 06791 33/// /2407 11111 21230 36702 47967 52/// 333 11111 55300 20000 91120 91216;
0149067910999992011010519004+46417+009817FM-12+329999999V0202401N005719999999N9999999N1-00991-02631999999ADDMA1999999067021MD1210031+9999ME1429659OA149901341REMSYN088AAXX  05194 06791 33/// /2411 11099 21263 36702 47965 52003 333 55300 20000 91126 91216;
0149067910999992011010520004+46417+009817FM-12+329999999V0202401N008719999999N9999999N1-01091-02121999999ADDMA1999999067031MD1219999+9999ME1429689OA149901601REMSYN088AAXX  05204 06791 33/// /2417 11109 21212 36703 47968 52/// 333 55300 20000 91131 91220;
0112067910999992011010521004+46417+009817FM-12+329999999V0202301N007719999999N9999999N1-01041-02271999999ADDMA1999999067031ME1429679REMSYN076AAXX  05214 06791 33/// /2315 11104 21227 36703 47967 5//// 333 553// 20000;
0149067910999992011010522004+46417+009817FM-12+329999999V0202001N007219999999N9999999N1-00951-02731999999ADDMA1999999067041MD1210021+9999ME1429679OA149901491REMSYN088AAXX  05224 06791 33/// /2014 11095 21273 36704 47967 52002 333 55300 20000 91129 91218;
0149067910999992011010523004+46417+009817FM-12+329999999V0202101N008719999999N9999999N1-00931-02621999999ADDMA1999999067061MD1219999+9999ME1429699OA149901541REMSYN088AAXX  05234 06791 33/// /2117 11093 21262 36706 47969 52/// 333 55300 20000 91130 91218;
0096067910999992011010600004+46417+009817FM-12+329999999V0202201N006719999999N9999999N1-01091-02361999999ADDMA1999999067051ME1429709REMSYN060AAXX  06004 06791 43/// /2213 11109 21236 36705 47970 5////;
0096067910999992011010601004+46417+009817FM-12+329999999V0202301N007719999999N9999999N1-01101-02081999999ADDMA1999999067041ME1429699REMSYN060AAXX  06014 06791 43/// /2315 11110 21208 36704 47969 5////;
0096067910999992011010602004+46417+009817FM-12+329999999V0202301N007719999999N9999999N1-01061-01561999999ADDMA1999999067031ME1429679REMSYN060AAXX  06024 06791 43/// /2315 11106 21156 36703 47967 5////;
0096067910999992011010603004+46417+009817FM-12+329999999V0202101N009819999999N9999999N1-01041-01571999999ADDMA1999999067041ME1429689REMSYN060AAXX  06034 06791 43/// /2119 11104 21157 36704 47968 5////;
0096067910999992011010604004+46417+009817FM-12+329999999V0202001N007719999999N9999999N1-01051-01581999999ADDMA1999999067031ME1429679REMSYN060AAXX  06044 06791 43/// /2015 11105 21158 36703 47967 5////;
0096067910999992011010605004+46417+009817FM-12+329999999V0202101N009819999999N9999999N1-00981-01281999999ADDMA1999999067031ME1429669REMSYN060AAXX  06054 06791 43/// /2119 11098 21128 36703 47966 5////;
0125067910999992011010606004+46417+009817FM-12+329999999V0202201N008719999999N9999999N1-00961-01191999999ADDKA1999N-01121MA1999999067061ME1429699REMSYN076AAXX  06064 06791 43/// /2217 11096 21119 36706 47969 5//// 333 21112 55077;
0096067910999992011010607004+46417+009817FM-12+329999999V0202101N010819999999N9999999N1-00941-01191999999ADDMA1999999067081ME1429719REMSYN060AAXX  06074 06791 43/// /2121 11094 21119 36708 47971 5////;
0112067910999992011010608004+46417+009817FM-12+329999999V0202001N008719999999N9999999N1-00901-01161999999ADDMA1999999067151ME1429799REMSYN076AAXX  06084 06791 33/// /2017 11090 21116 36715 47979 5//// 333 553// 20072;
0096067910999992011010609004+46417+009817FM-12+329999999V0202101N009819999999N9999999N1-00811-00981999999ADDMA1999999067181ME1429829REMSYN060AAXX  06094 06791 43/// /2119 11081 21098 36718 47982 5////;
0149067910999992011010610004+46417+009817FM-12+329999999V0202101N009819999999N9999999N1-00851-00971999999ADDMA1999999067191MD1210111+9999ME1429839OA149901801REMSYN088AAXX  06104 06791 33/// /2119 11085 21097 36719 47983 52011 333 55300 20562 91135 91221;
0149067910999992011010611004+46417+009817FM-12+329999999V0202001N007719999999N9999999N1-00931-00951999999ADDMA1999999067211MD1210061+9999ME1429869OA149901851REMSYN088AAXX  06114 06791 33/// /2015 11093 21095 36721 47986 52006 333 55300 20695 91136 91220;
0149067910999992011010612004+46417+009817FM-12+329999999V0202101N009819999999N9999999N1-00961-01011999999ADDMA1999999067201MD1010021+9999ME1429869OA149902011REMSYN088AAXX  06124 06791 33/// /2119 11096 21101 36720 47986 50002 333 55300 20677 91139 91221;
0149067910999992011010613004+46417+009817FM-12+329999999V0202001N011319999999N9999999N1-00871-00961999999ADDMA1999999067211MD1210021+9999ME1429869OA149901851REMSYN088AAXX  06134 06791 33/// /2022 11087 21096 36721 47986 52002 333 55300 20504 91136 91223;
0096067910999992011010614004+46417+009817FM-12+329999999V0202001N010819999999N9999999N1-00881-00931999999ADDMA1999999067241ME1429899REMSYN060AAXX  06144 06791 43/// /2021 11088 21093 36724 47989 5////;
0096067910999992011010615004+46417+009817FM-12+329999999V0202001N009819999999N9999999N1-00831-00891999999ADDMA1999999067271ME1429929REMSYN060AAXX  06154 06791 43/// /2019 11083 21089 36727 47992 5////;
0149067910999992011010616004+46417+009817FM-12+329999999V0202101N010819999999N9999999N1-00801-00861999999ADDMA1999999067301MD1210091+9999ME1429959OA149902211REMSYN088AAXX  06164 06791 33/// /2121 11080 21086 36730 47995 52009 333 55300 20014 91143 91223;
0149067910999992011010617004+46417+009817FM-12+329999999V0202101N010819999999N9999999N1-00771-00821999999ADDMA1999999067311MD1210071+9999ME1429969OA149901901REMSYN088AAXX  06174 06791 33/// /2121 11077 21082 36731 47996 52007 333 55300 20000 91137 91223;
0168067910999992011010618004+46417+009817FM-12+329999999V0202001N011319999999N9999999N1-00791-00831999999ADDKA1120M-00771MA1999999067321MD1010051+9999ME1429989OA149902211REMSYN094AAXX  06184 06791 33/// /2022 11079 21083 36732 47998 50005 333 11077 55300 20000 91143 91225;
0149067910999992011010619004+46417+009817FM-12+329999999V0202001N010319999999N9999999N1-00811-00821999999ADDMA1999999067351MD1310051+9999ME1430019OA149901851REMSYN088AAXX  06194 06791 33/// /2020 11081 21082 36735 47001 53005 333 55300 20000 91136 91225;
0149067910999992011010620004+46417+009817FM-12+329999999V0202001N009319999999N9999999N1-00771-00791999999ADDMA1999999067411MD1219999+9999ME1430089OA149901701REMSYN088AAXX  06204 06791 33/// /2018 11077 21079 36741 47008 52/// 333 55300 20000 91133 91221;
0149067910999992011010621004+46417+009817FM-12+329999999V0201901N009319999999N9999999N1-00761-00771999999ADDMA1999999067451MD1219999+9999ME1430129OA149901901REMSYN088AAXX  06214 06791 33/// /1918 11076 21077 36745 47012 52/// 333 55300 20000 91137 91225;
0149067910999992011010622004+46417+009817FM-12+329999999V0201901N008719999999N9999999N1-00721-00721999999ADDMA1999999067471MD1210121+9999ME1430149OA149902061REMSYN088AAXX  06224 06791 33/// /1917 11072 21072 36747 47014 52012 333 55300 20000 91140 91224;
0112067910999992011010623004+46417+009817FM-12+329999999V0202001N010319999999N9999999N1-00751-00751999999ADDMA1999999067501ME1430189REMSYN076AAXX  06234 06791 33/// /2020 11075 21075 36750 47018 5//// 333 553// 20000;
0096067910999992011010700004+46417+009817FM-12+329999999V0201901N009819999999N9999999N1-00721-00731999999ADDMA1999999067521ME1430209REMSYN060AAXX  07004 06791 43/// /1919 11072 21073 36752 47020 5////;
0096067910999992011010701004+46417+009817FM-12+329999999V0202001N009819999999N9999999N1-00721-00721999999ADDMA1999999067561ME1430259REMSYN060AAXX  07014 06791 43/// /2019 11072 21072 36756 47025 5////;
0096067910999992011010702004+46417+009817FM-12+329999999V0202001N009819999999N9999999N1-00701-00701999999ADDMA1999999067581ME1430279REMSYN060AAXX  07024 06791 43/// /2019 11070 21070 36758 47027 5////;
0096067910999992011010703004+46417+009817FM-12+329999999V0201901N008719999999N9999999N1-00681-00681999999ADDMA1999999067621ME1430319REMSYN060AAXX  07034 06791 43/// /1917 11068 21068 36762 47031 5////;
0149067910999992011010704004+46417+009817FM-12+329999999V0201901N009819999999N9999999N1-00621-00661999999ADDMA1999999067631MD1210071+9999ME1430329OA149901701REMSYN088AAXX  07044 06791 33/// /1919 11062 21066 36763 47032 52007 333 55300 20000 91133 91220;
0149067910999992011010705004+46417+009817FM-12+329999999V0201901N008719999999N9999999N1-00651-00651999999ADDMA1999999067641MD1210061+9999ME1430339OA149901851REMSYN088AAXX  07054 06791 33/// /1917 11065 21065 36764 47033 52006 333 55300 20000 91136 91222;
0198067910999992011010706004+46417+009817FM-12+329999999V0202101N009319999999N9999999N1-00611-00631999999ADDAL19900091GJ100009KA1999N-00821MA1999999067681MD1210061+9999ME1430389OA149902061REMSYN106AAXX  07064 06791 33/// /2118 11061 21063 36768 47038 52006 333 21082 55000 55300 20000 70000 91140 91224;
0149067910999992011010707004+46417+009817FM-12+329999999V0202101N008219999999N9999999N1-00611-00641999999ADDMA1999999067721MD1210091+9999ME1430429OA149902011REMSYN088AAXX  07074 06791 33/// /2116 11061 21064 36772 47042 52009 333 55300 20000 91139 91223;
0112067910999992011010708004+46417+009817FM-12+329999999V0202001N006219999999N9999999N1-00641-00651999999ADDMA1999999067771ME1430489REMSYN076AAXX  07084 06791 33/// /2012 11064 21065 36777 47048 5//// 333 553// 20047;
0096067910999992011010709004+46417+009817FM-12+329999999V0201901N010319999999N9999999N1-00611-00661999999ADDMA1999999067781ME1430499REMSYN060AAXX  07094 06791 43/// /1920 11061 21066 36778 47049 5////;
0149067910999992011010710004+46417+009817FM-12+329999999V0201801N008219999999N9999999N1-00631-00641999999ADDMA1999999067811MD1110091+9999ME1430539OA149901901REMSYN088AAXX  07104 06791 33/// /1816 11063 21064 36781 47053 51009 333 55300 20407 91137 91221;
0149067910999992011010711004+46417+009817FM-12+329999999V0201801N008219999999N9999999N1-00581-00651999999ADDMA1999999067801MD1210031+9999ME1430519OA149902211REMSYN088AAXX  07114 06791 33/// /1816 11058 21065 36780 47051 52003 333 55300 20605 91143 91219;
0168067910999992011010712004+46417+009817FM-12+329999999V0201701N006719999999N9999999N1-00581-00621999999ADDMA1999999067781MD1410001+9999ME1430499OA149902321REMSYN088AAXX  07124 06791 33/// /1713 11058 21062 36778 47049 58000 333 55300 20641 91145 91223;EQDQ01+000082APCTEN
0149067910999992011010713004+46417+009817FM-12+329999999V0201801N007219999999N9999999N1-00541-00631999999ADDMA1999999067781MD1710031+9999ME1430499OA149902321REMSYN088AAXX  07134 06791 33/// /1814 11054 21063 36778 47049 57003 333 55300 20659 91145 91219;
0096067910999992011010714004+46417+009817FM-12+329999999V0201801N009319999999N9999999N1-00581-00651999999ADDMA1999999067781ME1430499REMSYN060AAXX  07144 06791 43/// /1818 11058 21065 36778 47049 5////;
0096067910999992011010715004+46417+009817FM-12+329999999V0201901N011319999999N9999999N1-00601-00691999999ADDMA1999999067781ME1430499REMSYN060AAXX  07154 06791 43/// /1922 11060 21069 36778 47049 5////;
0155067910999992011010716004+46417+009817FM-12+329999999V0201901N009819999999N9999999N1-00641-00681999999ADDMA1999999067821MD1210041+9999ME1430549OA149902211REMSYN094AAXX  07164 06791 23/// /1919 11064 21068 36782 47054 52004 333 55300 20022 69915 91143 91222;
0149067910999992011010717004+46417+009817FM-12+329999999V0201801N007219999999N9999999N1-00621-00691999999ADDMA1999999067821MD1210041+9999ME1430549OA149902211REMSYN088AAXX  07174 06791 33/// /1814 11062 21069 36782 47054 52004 333 55300 20000 91143 91220;
0154067910999992011010718004+46417+009817FM-12+329999999V0201901N008219999999N9999999N1-00611-00711999999ADDAA112000591KA1120M-00531MA1999999067831ME1430559REMSYN094AAXX  07184 06791 03/// /1916 11061 21071 36783 47055 5//// 69942 333 11053 553// 20000 69915;
0155067910999992011010719004+46417+009817FM-12+329999999V0201801N007719999999N9999999N1-00641-00731999999ADDMA1999999067841MD1219999+9999ME1430569OA149902161REMSYN094AAXX  07194 06791 23/// /1815 11064 21073 36784 47056 52/// 333 55300 20000 69925 91142 91217;
0096067910999992011010720004+46417+009817FM-12+329999999V0201901N011319999999N9999999N1-00631-00701999999ADDMA1999999067831ME1430559REMSYN060AAXX  07204 06791 43/// /1922 11063 21070 36783 47055 5////;
0096067910999992011010721004+46417+009817FM-12+329999999V0201801N007219999999N9999999N1-00631-00691999999ADDMA1999999067841ME1430569REMSYN060AAXX  07214 06791 43/// /1814 11063 21069 36784 47056 5////;
0155067910999992011010722004+46417+009817FM-12+329999999V0201801N005719999999N9999999N1-00631-00691999999ADDMA1999999067831MD1010011+9999ME1430559OA149902061REMSYN094AAXX  07224 06791 23/// /1811 11063 21069 36783 47055 50001 333 55300 20000 69925 91140 91219;
0118067910999992011010723004+46417+009817FM-12+329999999V0201501N005119999999N9999999N1-00641-00721999999ADDMA1999999067821ME1430549REMSYN082AAXX  07234 06791 23/// /1510 11064 21072 36782 47054 5//// 333 553// 20000 69945;
0135067910999992011010800004+46417+009817FM-12+329999999V0201501N002119999999N9999999N1-00711-00781999999ADDAA106002091MA1999999067791ME1430519REMSYN088AAXX  08004 06791 03/// /1504 11071 21078 36779 47051 5//// 60021 333 553// 20000 69985;
0096067910999992011010801004+46417+009817FM-12+329999999V0201501N005119999999N9999999N1-00741-00821999999ADDMA1999999067761ME1430489REMSYN060AAXX  08014 06791 43/// /1510 11074 21082 36776 47048 5////;
0096067910999992011010802004+46417+009817FM-12+329999999V0201501N005119999999N9999999N1-00751-00841999999ADDMA1999999067731ME1430459REMSYN060AAXX  08024 06791 43/// /1510 11075 21084 36773 47045 5////;
0096067910999992011010803004+46417+009817FM-12+329999999V0201601N004119999999N9999999N1-00791-00881999999ADDMA1999999067711ME1430439REMSYN060AAXX  08034 06791 43/// /1608 11079 21088 36771 47043 5////;
0096067910999992011010804004+46417+009817FM-12+329999999V0201801N006219999999N9999999N1-00791-00911999999ADDMA1999999067691ME1430419REMSYN060AAXX  08044 06791 43/// /1812 11079 21091 36769 47041 5////;
0096067910999992011010805004+46417+009817FM-12+329999999V0202001N006719999999N9999999N1-00771-00881999999ADDMA1999999067681ME1430399REMSYN060AAXX  08054 06791 43/// /2013 11077 21088 36768 47039 5////;
0125067910999992011010806004+46417+009817FM-12+329999999V0202001N008219999999N9999999N1-00761-00841999999ADDKA1999N-00831MA1999999067651ME1430369REMSYN076AAXX  08064 06791 43/// /2016 11076 21084 36765 47036 5//// 333 21083 55000;
0096067910999992011010807004+46417+009817FM-12+329999999V0201901N006219999999N9999999N1-00781-00831999999ADDMA1999999067681ME1430399REMSYN060AAXX  08074 06791 43/// /1912 11078 21083 36768 47039 5////;
0118067910999992011010808004+46417+009817FM-12+329999999V0201701N005719999999N9999999N1-00761-00851999999ADDMA1999999067701ME1430419REMSYN082AAXX  08084 06791 23/// /1711 11076 21085 36770 47041 5//// 333 553// 20036 69925;
0096067910999992011010809004+46417+009817FM-12+329999999V0201901N006719999999N9999999N1-00781-00811999999ADDMA1999999067731ME1430459REMSYN060AAXX  08094 06791 43/// /1913 11078 21081 36773 47045 5////;
0096067910999992011010810004+46417+009817FM-12+329999999V0202001N008219999999N9999999N1-00741-00831999999ADDMA1999999067751ME1430479REMSYN060AAXX  08104 06791 43/// /2016 11074 21083 36775 47047 5////;
0096067910999992011010811004+46417+009817FM-12+329999999V0202001N007719999999N9999999N1-00791-00831999999ADDMA1999999067731ME1430459REMSYN060AAXX  08114 06791 43/// /2015 11079 21083 36773 47045 5////;
0096067910999992011010812004+46417+009817FM-12+329999999V0202001N007719999999N9999999N1-00771-00921999999ADDMA1999999067701ME1430429REMSYN060AAXX  08124 06791 43/// /2015 11077 21092 36770 47042 5////;
0096067910999992011010813004+46417+009817FM-12+329999999V0201901N006719999999N9999999N1-00811-00891999999ADDMA1999999067701ME1430429REMSYN060AAXX  08134 06791 43/// /1913 11081 21089 36770 47042 5////;
0096067910999992011010814004+46417+009817FM-12+329999999V0202001N009319999999N9999999N1-00831-00991999999ADDMA1999999067691ME1430419REMSYN060AAXX  08144 06791 43/// /2018 11083 21099 36769 47041 5////;
0096067910999992011010815004+46417+009817FM-12+329999999V0202101N012319999999N9999999N1-00811-01041999999ADDMA1999999067691ME1430419REMSYN060AAXX  08154 06791 43/// /2124 11081 21104 36769 47041 5////;
0096067910999992011010816004+46417+009817FM-12+329999999V0202001N012319999999N9999999N1-00861-01061999999ADDMA1999999067721ME1430459REMSYN060AAXX  08164 06791 43/// /2024 11086 21106 36772 47045 5////;
0096067910999992011010817004+46417+009817FM-12+329999999V0201901N010819999999N9999999N1-00851-01041999999ADDMA1999999067741ME1430479REMSYN060AAXX  08174 06791 43/// /1921 11085 21104 36774 47047 5////;
0096067910999992011010818004+46417+009817FM-12+329999999V0201801N005119999999N9999999N1-00911-00971999999ADDMA1999999067771ME1430519REMSYN060AAXX  08184 06791 43/// /1810 11091 21097 36777 47051 5////;
0096067910999992011010819004+46417+009817FM-12+329999999V0201801N011319999999N9999999N1-00811-01031999999ADDMA1999999067731ME1430459REMSYN060AAXX  08194 06791 43/// /1822 11081 21103 36773 47045 5////;
0096067910999992011010820004+46417+009817FM-12+329999999V0201801N006719999999N9999999N1-00891-01031999999ADDMA1999999067751ME1430489REMSYN060AAXX  08204 06791 43/// /1813 11089 21103 36775 47048 5////;
0096067910999992011010821004+46417+009817FM-12+329999999V0201801N004119999999N9999999N1-00891-01031999999ADDMA1999999067741ME1430479REMSYN060AAXX  08214 06791 43/// /1808 11089 21103 36774 47047 5////;
0096067910999992011010822004+46417+009817FM-12+329999999V0201901N004619999999N9999999N1-00901-00971999999ADDMA1999999067741ME1430479REMSYN060AAXX  08224 06791 43/// /1909 11090 21097 36774 47047 5////;
0096067910999992011010823004+46417+009817FM-12+329999999V0201801N005119999999N9999999N1-00881-01031999999ADDMA1999999067711ME1430449REMSYN060AAXX  08234 06791 43/// /1810 11088 21103 36771 47044 5////;
0096067910999992011010900004+46417+009817FM-12+329999999V0201801N004119999999N9999999N1-00931-01051999999ADDMA1999999067741ME1430489REMSYN060AAXX  09004 06791 43/// /1808 11093 21105 36774 47048 5////;
0096067910999992011010901004+46417+009817FM-12+329999999V0201801N007219999999N9999999N1-00891-01121999999ADDMA1999999067741ME1430479REMSYN060AAXX  09014 06791 43/// /1814 11089 21112 36774 47047 5////;
0096067910999992011010902004+46417+009817FM-12+329999999V0201701N005119999999N9999999N1-00881-01111999999ADDMA1999999067741ME1430479REMSYN060AAXX  09024 06791 43/// /1710 11088 21111 36774 47047 5////;
0096067910999992011010903004+46417+009817FM-12+329999999V0201901N006219999999N9999999N1-00881-01131999999ADDMA1999999067691ME1430419REMSYN060AAXX  09034 06791 43/// /1912 11088 21113 36769 47041 5////;
0096067910999992011010904004+46417+009817FM-12+329999999V0201801N006719999999N9999999N1-00901-01091999999ADDMA1999999067651ME1430379REMSYN060AAXX  09044 06791 43/// /1813 11090 21109 36765 47037 5////;
0096067910999992011010905004+46417+009817FM-12+329999999V0201901N004619999999N9999999N1-00921-01091999999ADDMA1999999067641ME1430369REMSYN060AAXX  09054 06791 43/// /1909 11092 21109 36764 47036 5////;
0106067910999992011010906004+46417+009817FM-12+329999999V0201901N006219999999N9999999N1-00861-01181999999ADDMA1999999067631ME1430349REMSYN070AAXX  09064 06791 43/// /1912 11086 21118 36763 47034 5//// 333 55016;
0096067910999992011010907004+46417+009817FM-12+329999999V0201801N006219999999N9999999N1-00861-01071999999ADDMA1999999067651ME1430379REMSYN060AAXX  09074 06791 43/// /1812 11086 21107 36765 47037 5////;
0112067910999992011010908004+46417+009817FM-12+329999999V0202001N008719999999N9999999N1-00841-00981999999ADDMA1999999067671ME1430399REMSYN076AAXX  09084 06791 33/// /2017 11084 21098 36767 47039 5//// 333 553// 20119;
0112067910999992011010909004+46417+009817FM-12+329999999V0201801N004619999999N9999999N1-00881-00951999999ADDMA1999999067671ME1430399REMSYN076AAXX  09094 06791 33/// /1809 11088 21095 36767 47039 5//// 333 553// 20403;
0149067910999992011010910004+46417+009817FM-12+329999999V0201901N007719999999N9999999N1-00851-00931999999ADDMA1999999067681MD1210031+9999ME1430409OA149902061REMSYN088AAXX  09104 06791 33/// /1915 11085 21093 36768 47040 52003 333 55300 20576 91140 91218;
0149067910999992011010911004+46417+009817FM-12+329999999V0201801N006719999999N9999999N1-00831-00901999999ADDMA1999999067661MD1810011+9999ME1430379OA149902111REMSYN088AAXX  09114 06791 33/// /1813 11083 21090 36766 47037 58001 333 55300 20835 91141 91218;
0149067910999992011010912004+46417+009817FM-12+329999999V0201901N008719999999N9999999N1-00771-00901999999ADDMA1999999067631MD1710041+9999ME1430339OA149902321REMSYN088AAXX  09124 06791 33/// /1917 11077 21090 36763 47033 57004 333 55300 20749 91145 91220;
0149067910999992011010913004+46417+009817FM-12+329999999V0201801N006719999999N9999999N1-00781-00881999999ADDMA1999999067601MD1710081+9999ME1430309OA149902321REMSYN088AAXX  09134 06791 33/// /1813 11078 21088 36760 47030 57008 333 55300 20677 91145 91220;
0096067910999992011010914004+46417+009817FM-12+329999999V0201901N009819999999N9999999N1-00761-00891999999ADDMA1999999067591ME1430299REMSYN060AAXX  09144 06791 43/// /1919 11076 21089 36759 47029 5////;
0096067910999992011010915004+46417+009817FM-12+329999999V0201801N004619999999N9999999N1-00781-00911999999ADDMA1999999067601ME1430309REMSYN060AAXX  09154 06791 43/// /1809 11078 21091 36760 47030 5////;
0149067910999992011010916004+46417+009817FM-12+329999999V0201601N005119999999N9999999N1-00831-00931999999ADDMA1999999067601MD1010001+9999ME1430319OA149902421REMSYN088AAXX  09164 06791 33/// /1610 11083 21093 36760 47031 50000 333 55300 20032 91147 91225;
0155067910999992011010917004+46417+009817FM-12+329999999V0201601N006719999999N9999999N1-00821-00921999999ADDMA1999999067591MD1010001+9999ME1430299OA149902111REMSYN094AAXX  09174 06791 23/// /1613 11082 21092 36759 47029 50000 333 55300 20000 69935 91141 91214;
0191067910999992011010918004+46417+009817FM-12+329999999V0201601N005719999999N9999999N1-00801-00941999999ADDAA112000591KA1120M-00681MA1999999067601MD1510001+9999ME1430309OA149902421REMSYN106AAXX  09184 06791 03/// /1611 11080 21094 36760 47030 55000 69962 333 11068 55300 20000 69935 91147 91225;
0155067910999992011010919004+46417+009817FM-12+329999999V0201701N006719999999N9999999N1-00781-00901999999ADDMA1999999067581MD1710021+9999ME1430289OA149901851REMSYN094AAXX  09194 06791 23/// /1713 11078 21090 36758 47028 57002 333 55300 20000 69975 91136 91213;
0155067910999992011010920004+46417+009817FM-12+329999999V0201801N006219999999N9999999N1-00821-00921999999ADDMA1999999067611MD1210021+9999ME1430329OA149902111REMSYN094AAXX  09204 06791 23/// /1812 11082 21092 36761 47032 52002 333 55300 20000 69985 91141 91216;
0155067910999992011010921004+46417+009817FM-12+329999999V0201701N006219999999N9999999N1-00811-00961999999ADDMA1999999067621MD1210021+9999ME1430339OA149902111REMSYN094AAXX  09214 06791 23/// /1712 11081 21096 36762 47033 52002 333 55300 20000 69935 91141 91216;
0155067910999992011010922004+46417+009817FM-12+329999999V0201801N003619999999N9999999N1-00821-00931999999ADDMA1999999067611MD1210031+9999ME1430329OA149902011REMSYN094AAXX  09224 06791 23/// /1807 11082 21093 36761 47032 52003 333 55300 20000 69975 91139 91217;
0155067910999992011010923004+46417+009817FM-12+329999999V0201901N004619999999N9999999N1-00841-00931999999ADDMA1999999067591MD1710021+9999ME1430299OA149901961REMSYN094AAXX  09234 06791 23/// /1909 11084 21093 36759 47029 57002 333 55300 20000 69985 91138 91217;
0172067910999992011011000004+46417+009817FM-12+329999999V0201601N004619999999N9999999N1-00871-00951999999ADDAA106005191MA1999999067551MD1710071+9999ME1430259OA149902421REMSYN100AAXX  10004 06791 03/// /1609 11087 21095 36755 47025 57007 60051 333 55300 20000 60025 91147 91225;
0155067910999992011011001004+46417+009817FM-12+329999999V0201701N005119999999N9999999N1-00881-01001999999ADDMA1999999067551MD1710061+9999ME1430259OA149901441REMSYN094AAXX  10014 06791 23/// /1710 11088 21100 36755 47025 57006 333 55300 20000 69935 91128 91213;
0118067910999992011011002004+46417+009817FM-12+329999999V0201701N003119999999N9999999N1-00871-00981999999ADDMA1999999067551ME1430259REMSYN082AAXX  10024 06791 23/// /1706 11087 21098 36755 47025 5//// 333 553// 20000 69935;
0096067910999992011011003004+46417+009817FM-12+329999999V0201801N003619999999N9999999N1-00901-00981999999ADDMA1999999067541ME1430249REMSYN060AAXX  10034 06791 43/// /1807 11090 21098 36754 47024 5////;
0118067910999992011011004004+46417+009817FM-12+329999999V0201701N004119999999N9999999N1-00841-00981999999ADDMA1999999067531ME1430239REMSYN082AAXX  10044 06791 23/// /1708 11084 21098 36753 47023 5//// 333 553// 20000 60015;
0155067910999992011011005004+46417+009817FM-12+329999999V0201801N004119999999N9999999N1-00871-00961999999ADDMA1999999067521MD1719999+9999ME1430229OA149901131REMSYN094AAXX  10054 06791 23/// /1808 11087 21096 36752 47022 57/// 333 55300 20000 60015 91122 91210;
0150067910999992011011006004+46417+009817FM-12+329999999V0201801N004619999999N9999999N1-00891-00951999999ADDAA124008991GJ100009KA1999N-00911MA1999999067521ME1430229REMSYN082AAXX  10064 06791 43/// /1809 11089 21095 36752 47022 5//// 333 21091 55000 70089;
0155067910999992011011007004+46417+009817FM-12+329999999V0201601N002619999999N9999999N1-00891-00981999999ADDMA1999999067531MD1510001+9999ME1430239OA149901241REMSYN094AAXX  10074 06791 23/// /1605 11089 21098 36753 47023 55000 333 55300 20000 69955 91124 91211;
0096067910999992011011008004+46417+009817FM-12+329999999V0201701N001519999999N9999999N1-00911-00931999999ADDMA1999999067561ME1430279REMSYN060AAXX  10084 06791 43/// /1703 11091 21093 36756 47027 5////;
0096067910999992011011009004+46417+009817FM-12+329999999V0201801N003119999999N9999999N1-00891-00961999999ADDMA1999999067551ME1430259REMSYN060AAXX  10094 06791 43/// /1806 11089 21096 36755 47025 5////;
0155067910999992011011010004+46417+009817FM-12+329999999V0201801N001519999999N9999999N1-00851-00941999999ADDMA1999999067571MD1210041+9999ME1430279OA149900931REMSYN094AAXX  10104 06791 23/// /1803 11085 21094 36757 47027 52004 333 55300 20479 69915 91118 91208;
0155067910999992011011011004+46417+009817FM-12+329999999V0201501N001519999999N9999999N1-00911-00911999999ADDMA1999999067551MD1719999+9999ME1430269OA149900931REMSYN094AAXX  10114 06791 23/// /1503 11091 21091 36755 47026 57/// 333 55300 20576 69915 91118 91208;
0135067910999992011011012004+46417+009817FM-12+329999999V0201501N002119999999N9999999N1-00901-00961999999ADDAA106001091MA1999999067521ME1430229REMSYN088AAXX  10124 06791 03/// /1504 11090 21096 36752 47022 5//// 60011 333 553// 20824 69925;
0096067910999992011011013004+46417+009817FM-12+329999999V0201401N001519999999N9999999N1-00841-01001999999ADDMA1999999067481ME1430179REMSYN060AAXX  10134 06791 43/// /1403 11084 21100 36748 47017 5////;
0096067910999992011011014004+46417+009817FM-12+329999999V0201801N001019999999N9999999N1-00931-00951999999ADDMA1999999067461ME1430159REMSYN060AAXX  10144 06791 43/// /1802 11093 21095 36746 47015 5////;
0096067910999992011011015004+46417+009817FM-12+329999999V0201801N003119999999N9999999N1-00931-01111999999ADDMA1999999067471ME1430179REMSYN060AAXX  10154 06791 43/// /1806 11093 21111 36747 47017 5////;
0096067910999992011011016004+46417+009817FM-12+329999999V0201501N001519999999N9999999N1-00951-01111999999ADDMA1999999067461ME1430169REMSYN060AAXX  10164 06791 43/// /1503 11095 21111 36746 47016 5////;
0096067910999992011011017004+46417+009817FM-12+329999999V0201501N003619999999N9999999N1-00981-01121999999ADDMA1999999067441ME1430149REMSYN060AAXX  10174 06791 43/// /1507 11098 21112 36744 47014 5////;
0119067910999992011011018004+46417+009817FM-12+329999999V0201701N003619999999N9999999N1-01011-01161999999ADDKA1999M-00841MA1999999067441ME1430149REMSYN070AAXX  10184 06791 43/// /1707 11101 21116 36744 47014 5//// 333 11084;
0096067910999992011011019004+46417+009817FM-12+329999999V0201601N003619999999N9999999N1-00941-01121999999ADDMA1999999067421ME1430119REMSYN060AAXX  10194 06791 43/// /1607 11094 21112 36742 47011 5////;
0096067910999992011011020004+46417+009817FM-12+329999999V0201501N004119999999N9999999N1-00961-01071999999ADDMA1999999067401ME1430099REMSYN060AAXX  10204 06791 43/// /1508 11096 21107 36740 47009 5////;
0096067910999992011011021004+46417+009817FM-12+329999999V0201501N006219999999N9999999N1-00941-01091999999ADDMA1999999067391ME1430079REMSYN060AAXX  10214 06791 43/// /1512 11094 21109 36739 47007 5////;
0096067910999992011011022004+46417+009817FM-12+329999999V0201601N005119999999N9999999N1-00981-01081999999ADDMA1999999067381ME1430079REMSYN060AAXX  10224 06791 43/// /1610 11098 21108 36738 47007 5////;
0096067910999992011011023004+46417+009817FM-12+329999999V0201701N005119999999N9999999N1-00971-01181999999ADDMA1999999067351ME1430039REMSYN060AAXX  10234 06791 43/// /1710 11097 21118 36735 47003 5////;
0096067910999992011011100004+46417+009817FM-12+329999999V0201501N003619999999N9999999N1-01041-01151999999ADDMA1999999067321ME1430019REMSYN060AAXX  11004 06791 43/// /1507 11104 21115 36732 47001 5////;
0096067910999992011011101004+46417+009817FM-12+329999999V0201401N005119999999N9999999N1-00981-01161999999ADDMA1999999067281ME1429959REMSYN060AAXX  11014 06791 43/// /1410 11098 21116 36728 47995 5////;
0096067910999992011011102004+46417+009817FM-12+329999999V0201401N003619999999N9999999N1-00961-01091999999ADDMA1999999067251ME1429919REMSYN060AAXX  11024 06791 43/// /1407 11096 21109 36725 47991 5////;
0096067910999992011011103004+46417+009817FM-12+329999999V0201401N001519999999N9999999N1-01001-01081999999ADDMA1999999067231ME1429909REMSYN060AAXX  11034 06791 43/// /1403 11100 21108 36723 47990 5////;
0096067910999992011011104004+46417+009817FM-12+329999999V0201501N003619999999N9999999N1-01001-01071999999ADDMA1999999067211ME1429879REMSYN060AAXX  11044 06791 43/// /1507 11100 21107 36721 47987 5////;
0096067910999992011011105004+46417+009817FM-12+329999999V0201601N004619999999N9999999N1-00951-01101999999ADDMA1999999067171ME1429829REMSYN060AAXX  11054 06791 43/// /1609 11095 21110 36717 47982 5////;
0106067910999992011011106004+46417+009817FM-12+329999999V0201501N003619999999N9999999N1-01001-01121999999ADDMA1999999067161ME1429829REMSYN070AAXX  11064 06791 43/// /1507 11100 21112 36716 47982 5//// 333 55000;
0149067910999992011011107004+46417+009817FM-12+329999999V0201601N003619999999N9999999N1-01071-01191999999ADDMA1999999067141MD1719999+9999ME1429809OA149900931REMSYN088AAXX  11074 06791 33/// /1607 11107 21119 36714 47980 57/// 333 55300 20000 91118 91212;
0112067910999992011011108004+46417+009817FM-12+329999999V0201401N003619999999N9999999N1-01021-01111999999ADDMA1999999067141ME1429799REMSYN076AAXX  11084 06791 33/// /1407 11102 21111 36714 47979 5//// 333 553// 20032;
0096067910999992011011109004+46417+009817FM-12+329999999V0201501N003619999999N9999999N1-01071-01171999999ADDMA1999999067131ME1429799REMSYN060AAXX  11094 06791 43/// /1507 11107 21117 36713 47979 5////;
0149067910999992011011110004+46417+009817FM-12+329999999V0201401N005119999999N9999999N1-01061-01221999999ADDMA1999999067121MD1710021+9999ME1429789OA149901291REMSYN088AAXX  11104 06791 33/// /1410 11106 21122 36712 47978 57002 333 55301 20461 91125 91211;
0149067910999992011011111004+46417+009817FM-12+329999999V0201701N004619999999N9999999N1-01011-01121999999ADDMA1999999067091MD1710051+9999ME1429749OA149901291REMSYN088AAXX  11114 06791 33/// /1709 11101 21112 36709 47974 57005 333 55300 20626 91125 91212;
0135067910999992011011112004+46417+009817FM-12+329999999V0201501N004619999999N9999999N1-00991-01171999999ADDAA106000591MA1999999067021ME1429659REMSYN088AAXX  11124 06791 03/// /1509 11099 21117 36702 47965 5//// 69941 333 553// 20680 60005;
0149067910999992011011113004+46417+009817FM-12+329999999V0201501N005719999999N9999999N1-01071-01221999999ADDMA1999999066971MD1710151+9999ME1429609OA149901291REMSYN088AAXX  11134 06791 33/// /1511 11107 21122 36697 47960 57015 333 55305 20817 91125 91214;
0096067910999992011011114004+46417+009817FM-12+329999999V0201701N001019999999N9999999N1-01101-01251999999ADDMA1999999066931ME1429569REMSYN060AAXX  11144 06791 43/// /1702 11110 21125 36693 47956 5////;
0096067910999992011011115004+46417+009817FM-12+329999999V0201901N002119999999N9999999N1-00981-01641999999ADDMA1999999066931ME1429559REMSYN060AAXX  11154 06791 43/// /1904 11098 21164 36693 47955 5////;
0149067910999992011011116004+46417+009817FM-12+329999999V0202401N005119999999N9999999N1-01041-01461999999ADDMA1999999066941MD1710031+9999ME1429579OA149900821REMSYN088AAXX  11164 06791 33/// /2410 11104 21146 36694 47957 57003 333 55300 20065 91116 91210;
0149067910999992011011117004+46417+009817FM-12+329999999V0202401N004119999999N9999999N1-01051-01541999999ADDMA1999999066961MD1210031+9999ME1429599OA149900821REMSYN088AAXX  11174 06791 33/// /2408 11105 21154 36696 47959 52003 333 55300 20000 91116 91210;
0191067910999992011011118004+46417+009817FM-12+329999999V0202701N003119999999N9999999N1-01131-01341999999ADDAA112000591KA1120M-00951MA1999999067001MD1210071+9999ME1429659OA149901291REMSYN106AAXX  11184 06791 03/// /2706 11113 21134 36700 47965 52007 69942 333 11095 55300 20000 60005 91125 91216;
0149067910999992011011119004+46417+009817FM-12+329999999V0200101N004119999999N9999999N1-01041-01411999999ADDMA1999999067021MD1310081+9999ME1429669OA149900721REMSYN088AAXX  11194 06791 33/// /0108 11104 21141 36702 47966 53008 333 55300 20000 91114 91210;
0149067910999992011011120004+46417+009817FM-12+329999999V0200101N006219999999N9999999N1-01091-01311999999ADDMA1999999067061MD1110101+9999ME1429719OA149900981REMSYN088AAXX  11204 06791 33/// /0112 11109 21131 36706 47971 51010 333 55300 20000 91119 91212;
0155067910999992011011121004+46417+009817FM-12+329999999V0203401N006219999999N9999999N1-01161-01241999999ADDMA1999999067101MD1310101+9999ME1429779OA149901441REMSYN094AAXX  11214 06791 23/// /3412 11116 21124 36710 47977 53010 333 55300 20000 69915 91128 91215;
0149067910999992011011122004+46417+009817FM-12+329999999V0200201N005719999999N9999999N1-01141-01201999999ADDMA1999999067151MD1310131+9999ME1429829OA149901441REMSYN088AAXX  11224 06791 33/// /0211 11114 21120 36715 47982 53013 333 55300 20000 91128 91215;
0155067910999992011011123004+46417+009817FM-12+329999999V0200201N005719999999N9999999N1-01231-01281999999ADDMA1999999067191MD1110131+9999ME1429889OA149901391REMSYN094AAXX  11234 06791 23/// /0211 11123 21128 36719 47988 51013 333 55300 20000 69925 91127 91215;
0172067910999992011011200004+46417+009817FM-12+329999999V0200401N006219999999N9999999N1-01261-01341999999ADDAA106000591MA1999999067221MD1210121+9999ME1429929OA149901441REMSYN100AAXX  12004 06791 03/// /0412 11126 21134 36722 47992 52012 69951 333 55300 20000 69925 91128 91216;
0149067910999992011011201004+46417+009817FM-12+329999999V0200401N007219999999N9999999N1-01291-01621999999ADDMA1999999067211MD1010061+9999ME1429919OA149901181REMSYN088AAXX  12014 06791 33/// /0414 11129 21162 36721 47991 50006 333 55300 20000 91123 91214;
0112067910999992011011202004+46417+009817FM-12+329999999V0200201N005119999999N9999999N1-01311-01611999999ADDMA1999999067291ME1430009REMSYN076AAXX  12024 06791 33/// /0210 11131 21161 36729 47000 5//// 333 553// 20000;
0096067910999992011011203004+46417+009817FM-12+329999999V0200601N005719999999N9999999N1-01381-01691999999ADDMA1999999067331ME1430069REMSYN060AAXX  12034 06791 43/// /0611 11138 21169 36733 47006 5////;
0096067910999992011011204004+46417+009817FM-12+329999999V0200201N006219999999N9999999N1-01361-01681999999ADDMA1999999067391ME1430129REMSYN060AAXX  12044 06791 43/// /0212 11136 21168 36739 47012 5////;
0112067910999992011011205004+46417+009817FM-12+329999999V0200101N008219999999N9999999N1-01351-01531999999ADDMA1999999067391ME1430129REMSYN076AAXX  12054 06791 33/// /0116 11135 21153 36739 47012 5//// 333 553// 20000;
0150067910999992011011206004+46417+009817FM-12+329999999V0200201N009319999999N9999999N1-01331-01741999999ADDAA124001091GJ101149KA1999N-01411MA1999999067421ME1430159REMSYN082AAXX  12064 06791 43/// /0218 11133 21174 36742 47015 5//// 333 21141 55019 70009;
0149067910999992011011207004+46417+009817FM-12+329999999V0200201N009819999999N9999999N1-01321-01551999999ADDMA1999999067481MD1210091+9999ME1430229OA149901651REMSYN088AAXX  12074 06791 33/// /0219 11132 21155 36748 47022 52009 333 55300 20000 91132 91219;
0096067910999992011011208004+46417+009817FM-12+329999999V0200201N010319999999N9999999N1-01291-01991999999ADDMA1999999067561ME1430319REMSYN060AAXX  12084 06791 43/// /0220 11129 21199 36756 47031 5////;
0096067910999992011011209004+46417+009817FM-12+329999999V0200201N008719999999N9999999N1-01191-02731999999ADDMA1999999067601ME1430349REMSYN060AAXX  12094 06791 43/// /0217 11119 21273 36760 47034 5////;
0149067910999992011011210004+46417+009817FM-12+329999999V0200101N008719999999N9999999N1-01041-03121999999ADDMA1999999067651MD1219999+9999ME1430389OA149901601REMSYN088AAXX  12104 06791 33/// /0117 11104 21312 36765 47038 52/// 333 55303 20893 91131 91220;
0126067910999992011011211004+46417+009817FM-12+329999999V0200201N006719999999N9999999N1-00991-03141999999ADDMA1999999067691MD1210131+9999ME1430439REMSYN076AAXX  12114 06791 33/// /0213 11099 21314 36769 47043 52013 333 55300 2////;
0096067910999992011011212004+46417+009817FM-12+329999999V0203601N004619999999N9999999N1-00941-03141999999ADDMA1999999067691ME1430429REMSYN060AAXX  12124 06791 43/// /3609 11094 21314 36769 47042 5////;
0096067910999992011011213004+46417+009817FM-12+329999999V0200101N004619999999N9999999N1-00911-02171999999ADDMA1999999067691ME1430429REMSYN060AAXX  12134 06791 43/// /0109 11091 21217 36769 47042 5////;
0096067910999992011011214004+46417+009817FM-12+329999999V0203401N008219999999N9999999N1-00731-01041999999ADDMA1999999067721ME1430439REMSYN060AAXX  12144 06791 43/// /3416 11073 21104 36772 47043 5////;
0096067910999992011011215004+46417+009817FM-12+329999999V0203301N008719999999N9999999N1-00681-00791999999ADDMA1999999067771ME1430499REMSYN060AAXX  12154 06791 43/// /3317 11068 21079 36777 47049 5////;
0155067910999992011011216004+46417+009817FM-12+329999999V0203301N007719999999N9999999N1-00631-00681999999ADDMA1999999067811MD1310121+9999ME1430539OA149901601REMSYN094AAXX  12164 06791 23/// /3315 11063 21068 36781 47053 53012 333 55300 20068 69925 91131 91218;
0155067910999992011011217004+46417+009817FM-12+329999999V0203201N006719999999N9999999N1-00621-00661999999ADDMA1999999067841MD1110121+9999ME1430569OA149901601REMSYN094AAXX  12174 06791 23/// /3213 11062 21066 36784 47056 51012 333 55300 20000 69945 91131 91215;
0191067910999992011011218004+46417+009817FM-12+329999999V0203001N009819999999N9999999N1-00601-00601999999ADDAA112001091KA1120M-00581MA1999999067831MD1210061+9999ME1430559OA149901751REMSYN106AAXX  12184 06791 03/// /3019 11060 21060 36783 47055 52006 60012 333 11058 55300 20000 69955 91134 91220;
0155067910999992011011219004+46417+009817FM-12+329999999V0203001N009319999999N9999999N1-00681-00681999999ADDMA1999999067861MD1210051+9999ME1430599OA149901751REMSYN094AAXX  12194 06791 23/// /3018 11068 21068 36786 47059 52005 333 55300 20000 69925 91134 91219;
0155067910999992011011220004+46417+009817FM-12+329999999V0203001N009819999999N9999999N1-00651-00651999999ADDMA1999999067861MD1310021+9999ME1430599OA149901601REMSYN094AAXX  12204 06791 23/// /3019 11065 21065 36786 47059 53002 333 55300 20000 69915 91131 91220;
0155067910999992011011221004+46417+009817FM-12+329999999V0203101N008219999999N9999999N1-00621-00621999999ADDMA1999999067911MD1210081+9999ME1430649OA149901751REMSYN094AAXX  12214 06791 23/// /3116 11062 21062 36791 47064 52008 333 55300 20000 69915 91134 91220;
0155067910999992011011222004+46417+009817FM-12+329999999V0203301N006219999999N9999999N1-00571-00581999999ADDMA1999999067931MD1210071+9999ME1430669OA149901701REMSYN094AAXX  12224 06791 23/// /3312 11057 21058 36793 47066 52007 333 55300 20000 69915 91133 91218;
0155067910999992011011223004+46417+009817FM-12+329999999V0203301N006719999999N9999999N1-00531-00541999999ADDMA1999999067931MD1210071+9999ME1430669OA149901701REMSYN094AAXX  12234 06791 23/// /3313 11053 21054 36793 47066 52007 333 55300 20000 69915 91133 91217;
0172067910999992011011300004+46417+009817FM-12+329999999V0203101N009819999999N9999999N1-00521-00521999999ADDAA106000891MA1999999067901MD1710011+9999ME1430629OA149901751REMSYN100AAXX  13004 06791 03/// /3119 11052 21052 36790 47062 57001 69971 333 55300 20000 69915 91134 91220;
0155067910999992011011301004+46417+009817FM-12+329999999V0203201N006719999999N9999999N1-00521-00541999999ADDMA1999999067911MD1710021+9999ME1430639OA149901961REMSYN094AAXX  13014 06791 23/// /3213 11052 21054 36791 47063 57002 333 55300 20000 69915 91138 91221;
0149067910999992011011302004+46417+009817FM-12+329999999V0203201N009319999999N9999999N1-00541-00551999999ADDMA1999999067891MD1719999+9999ME1430619OA149901961REMSYN088AAXX  13024 06791 33/// /3218 11054 21055 36789 47061 57/// 333 55300 20000 91138 91221;
0096067910999992011011303004+46417+009817FM-12+329999999V0203201N006219999999N9999999N1-00571-00621999999ADDMA1999999067921ME1430659REMSYN060AAXX  13034 06791 43/// /3212 11057 21062 36792 47065 5////;
0155067910999992011011304004+46417+009817FM-12+329999999V0203201N006219999999N9999999N1-00511-00511999999ADDMA1999999067901MD1019999+9999ME1430629OA149901801REMSYN094AAXX  13044 06791 23/// /3212 11051 21051 36790 47062 50/// 333 55300 20000 69925 91135 91217;
0118067910999992011011305004+46417+009817FM-12+329999999V0203401N004619999999N9999999N1-00511-00511999999ADDMA1999999067921ME1430659REMSYN082AAXX  13054 06791 23/// /3409 11051 21051 36792 47065 5//// 333 553// 20000 69915;
0221067910999992011011306004+46417+009817FM-12+329999999V0203301N001519999999N9999999N1-00541-00541999999ADDAA112001091AL13600291GJ101749KA1999N-00681MA1999999067941MD1310021+9999ME1430679OA149901961REMSYN118AAXX  13064 06791 03/// /3303 11054 21054 36794 47067 53002 60012 333 21068 55029 55300 20000 69915 70026 91138 91221;
0096067910999992011011307004+46417+009817FM-12+329999999V0203301N003619999999N9999999N1-00511-00531999999ADDMA1999999067941ME1430679REMSYN060AAXX  13074 06791 43/// /3307 11051 21053 36794 47067 5////;
0096067910999992011011308004+46417+009817FM-12+329999999V0203201N004619999999N9999999N1-00511-00541999999ADDMA1999999067971ME1430709REMSYN060AAXX  13084 06791 43/// /3209 11051 21054 36797 47070 5////;
0096067910999992011011309004+46417+009817FM-12+329999999V0203201N006219999999N9999999N1-00501-00611999999ADDMA1999999067971ME1430709REMSYN060AAXX  13094 06791 43/// /3212 11050 21061 36797 47070 5////;
0096067910999992011011310004+46417+009817FM-12+329999999V0203001N008219999999N9999999N1-00541-00581999999ADDMA1999999067981ME1430729REMSYN060AAXX  13104 06791 43/// /3016 11054 21058 36798 47072 5////;
0096067910999992011011311004+46417+009817FM-12+329999999V0203101N006719999999N9999999N1-00511-00571999999ADDMA1999999068001ME1430749REMSYN060AAXX  13114 06791 43/// /3113 11051 21057 36800 47074 5////;
0096067910999992011011312004+46417+009817FM-12+329999999V0203201N007219999999N9999999N1-00511-00571999999ADDMA1999999067961ME1430699REMSYN060AAXX  13124 06791 43/// /3214 11051 21057 36796 47069 5////;
0096067910999992011011313004+46417+009817FM-12+329999999V0203101N007719999999N9999999N1-00471-00651999999ADDMA1999999067951ME1430689REMSYN060AAXX  13134 06791 43/// /3115 11047 21065 36795 47068 5////;
0096067910999992011011314004+46417+009817FM-12+329999999V0203401N007719999999N9999999N1-00481-00701999999ADDMA1999999067971ME1430709REMSYN060AAXX  13144 06791 43/// /3415 11048 21070 36797 47070 5////;
0096067910999992011011315004+46417+009817FM-12+329999999V0203401N011819999999N9999999N1-00451-00901999999ADDMA1999999067971ME1430709REMSYN060AAXX  13154 06791 43/// /3423 11045 21090 36797 47070 5////;
0096067910999992011011316004+46417+009817FM-12+329999999V0203501N005119999999N9999999N1-00541-00881999999ADDMA1999999068001ME1430749REMSYN060AAXX  13164 06791 43/// /3510 11054 21088 36800 47074 5////;
0149067910999992011011317004+46417+009817FM-12+329999999V0203301N009819999999N9999999N1-00571-00791999999ADDMA1999999067981MD1010011+9999ME1430729OA149901851REMSYN088AAXX  13174 06791 33/// /3319 11057 21079 36798 47072 50001 333 55300 20000 91136 91219;
0191067910999992011011318004+46417+009817FM-12+329999999V0203301N004619999999N9999999N1-00651-00741999999ADDAA112000591KA1120M-00441MA1999999068041MD1210061+9999ME1430809OA149902111REMSYN106AAXX  13184 06791 03/// /3309 11065 21074 36804 47080 52006 69942 333 11044 55300 20000 60005 91141 91223;
0149067910999992011011319004+46417+009817FM-12+329999999V0203501N005119999999N9999999N1-00641-00691999999ADDMA1999999068041MD1210041+9999ME1430809OA149901851REMSYN088AAXX  13194 06791 33/// /3510 11064 21069 36804 47080 52004 333 55300 20000 91136 91219;
0149067910999992011011320004+46417+009817FM-12+329999999V0203301N006219999999N9999999N1-00591-00591999999ADDMA1999999068051MD1210071+9999ME1430809OA149901491REMSYN088AAXX  13204 06791 33/// /3312 11059 21059 36805 47080 52007 333 55300 20000 91129 91214;
0155067910999992011011321004+46417+009817FM-12+329999999V0203001N007219999999N9999999N1-00501-00561999999ADDMA1999999068051MD1210011+9999ME1430809OA149901851REMSYN094AAXX  13214 06791 23/// /3014 11050 21056 36805 47080 52001 333 55300 20000 69915 91136 91219;
0149067910999992011011322004+46417+009817FM-12+329999999V0203401N007219999999N9999999N1-00511-00571999999ADDMA1999999068071MD1210031+9999ME1430829OA149901341REMSYN088AAXX  13224 06791 33/// /3414 11051 21057 36807 47082 52003 333 55300 20000 91126 91214;
0149067910999992011011323004+46417+009817FM-12+329999999V0203501N005719999999N9999999N1-00541-00571999999ADDMA1999999068091MD1210041+9999ME1430859OA149901341REMSYN088AAXX  13234 06791 33/// /3511 11054 21057 36809 47085 52004 333 55300 20000 91126 91214;
0191067910999992011011400004+46417+009817FM-12+329999999V0200101N005719999999N9999999N1-00501-00571999999ADDAA106000091MA1999999068091MD1210041+9999ME1430849OA149902111REMSYN100AAXX  14004 06791 03/// /0111 11050 21057 36809 47084 52004 69911 333 55300 20000 60005 91141 91223;EQDQ01  00002PRCP06
0149067910999992011011401004+46417+009817FM-12+329999999V0203601N004119999999N9999999N1-00501-00521999999ADDMA1999999068101MD1210031+9999ME1430859OA149901131REMSYN088AAXX  14014 06791 33/// /3608 11050 21052 36810 47085 52003 333 55300 20000 91122 91213;
0112067910999992011011402004+46417+009817FM-12+329999999V0200101N005119999999N9999999N1-00481-00491999999ADDMA1999999068121ME1430889REMSYN076AAXX  14024 06791 33/// /0110 11048 21049 36812 47088 5//// 333 553// 20000;
0149067910999992011011403004+46417+009817FM-12+329999999V0203401N006219999999N9999999N1-00501-00501999999ADDMA1999999068121MD1210031+9999ME1430889OA149901341REMSYN088AAXX  14034 06791 33/// /3412 11050 21050 36812 47088 52003 333 55300 20000 91126 91214;
0149067910999992011011404004+46417+009817FM-12+329999999V0203601N004119999999N9999999N1-00541-00541999999ADDMA1999999068121MD1210021+9999ME1430889OA149901031REMSYN088AAXX  14044 06791 33/// /3608 11054 21054 36812 47088 52002 333 55300 20000 91120 91212;
0149067910999992011011405004+46417+009817FM-12+329999999V0200101N005119999999N9999999N1-00541-00561999999ADDMA1999999068111MD1710011+9999ME1430879OA149900881REMSYN088AAXX  14054 06791 33/// /0110 11054 21056 36811 47087 57001 333 55300 20000 91117 91210;
0240067910999992011011406004+46417+009817FM-12+329999999V0200201N003119999999N9999999N1-00511-00731999999ADDAA112000091AL13000091GJ100309KA1999N-00651MA1999999068141MD1310021+9999ME1430909OA149901491REMSYN118AAXX  14064 06791 03/// /0206 11051 21073 36814 47090 53002 69912 333 21065 55005 55300 20000 60005 70005 91129 91214;EQDQ01  00002PRCP12
0149067910999992011011407004+46417+009817FM-12+329999999V0203301N005719999999N9999999N1-00421-00881999999ADDMA1999999068151MD1210031+9999ME1430919OA149900771REMSYN088AAXX  14074 06791 33/// /3311 11042 21088 36815 47091 52003 333 55300 20000 91115 91211;
0096067910999992011011408004+46417+009817FM-12+329999999V0203301N003619999999N9999999N1-00421-00931999999ADDMA1999999068191ME1430959REMSYN060AAXX  14084 06791 43/// /3307 11042 21093 36819 47095 5////;
0096067910999992011011409004+46417+009817FM-12+329999999V0203001N004119999999N9999999N1-00391-01051999999ADDMA1999999068211ME1430979REMSYN060AAXX  14094 06791 43/// /3008 11039 21105 36821 47097 5////;
0096067910999992011011410004+46417+009817FM-12+329999999V0202801N005719999999N9999999N1-00391-01221999999ADDMA1999999068241ME1431019REMSYN060AAXX  14104 06791 43/// /2811 11039 21122 36824 47101 5////;
0149067910999992011011411004+46417+009817FM-12+329999999V0202501N007219999999N9999999N1-00281-01261999999ADDMA1999999068221MD1010031+9999ME1430989OA149901181REMSYN088AAXX  14114 06791 33/// /2514 11028 21126 36822 47098 50003 333 553// 2//// 91123 91215;
0149067910999992011011412004+46417+009817FM-12+329999999V0202601N007719999999N9999999N1-00281-01441999999ADDMA1999999068191MD1810021+9999ME1430949OA149901181REMSYN088AAXX  14124 06791 33/// /2615 11028 21144 36819 47094 58002 333 553// 2//// 91123 91218;
0149067910999992011011413004+46417+009817FM-12+329999999V0202601N007719999999N9999999N1-00221-01761999999ADDMA1999999068171MD1610071+9999ME1430919OA149901131REMSYN088AAXX  14134 06791 33/// /2615 11022 21176 36817 47091 56007 333 553// 2//// 91122 91218;
0112067910999992011011414004+46417+009817FM-12+329999999V0202701N008219999999N9999999N1-00211-02041999999ADDMA1999999068161ME1430909REMSYN076AAXX  14144 06791 33/// /2716 11021 21204 36816 47090 5//// 333 553// 20932;
0149067910999992011011415004+46417+009817FM-12+329999999V0202501N007219999999N9999999N1-00241-01881999999ADDMA1999999068171MD1510021+9999ME1430919OA149901181REMSYN088AAXX  14154 06791 33/// /2514 11024 21188 36817 47091 55002 333 55306 20533 91123 91218;
0149067910999992011011416004+46417+009817FM-12+329999999V0202401N008219999999N9999999N1-00241-02031999999ADDMA1999999068161MD1710011+9999ME1430909OA149901181REMSYN088AAXX  14164 06791 33/// /2416 11024 21203 36816 47090 57001 333 55300 20108 91123 91216;
0149067910999992011011417004+46417+009817FM-12+329999999V0202401N005119999999N9999999N1-00261-02211999999ADDMA1999999068171MD1210011+9999ME1430929OA149901081REMSYN088AAXX  14174 06791 33/// /2410 11026 21221 36817 47092 52001 333 55300 20000 91121 91216;
0168067910999992011011418004+46417+009817FM-12+329999999V0202301N006219999999N9999999N1-00291-02101999999ADDKA1120M-00181MA1999999068151MD1710021+9999ME1430909OA149901291REMSYN094AAXX  14184 06791 33/// /2312 11029 21210 36815 47090 57002 333 11018 55300 20000 91125 91218;
0149067910999992011011419004+46417+009817FM-12+329999999V0202501N008719999999N9999999N1-00381-01861999999ADDMA1999999068131MD1710031+9999ME1430889OA149901291REMSYN088AAXX  14194 06791 33/// /2517 11038 21186 36813 47088 57003 333 55300 20000 91125 91218;
0149067910999992011011420004+46417+009817FM-12+329999999V0202401N009819999999N9999999N1-00351-02021999999ADDMA1999999068101MD1710071+9999ME1430849OA149901341REMSYN088AAXX  14204 06791 33/// /2419 11035 21202 36810 47084 57007 333 55300 20000 91126 91219;
0149067910999992011011421004+46417+009817FM-12+329999999V0202401N008719999999N9999999N1-00321-02141999999ADDMA1999999068071MD1610081+9999ME1430809OA149901851REMSYN088AAXX  14214 06791 33/// /2417 11032 21214 36807 47080 56008 333 55300 20000 91136 91222;
0149067910999992011011422004+46417+009817FM-12+329999999V0202401N008719999999N9999999N1-00321-02161999999ADDMA1999999068021MD1810111+9999ME1430759OA149901851REMSYN088AAXX  14224 06791 33/// /2417 11032 21216 36802 47075 58011 333 55300 20000 91136 91222;
0149067910999992011011423004+46417+009817FM-12+329999999V0202501N011819999999N9999999N1-00371-01941999999ADDMA1999999067961MD1810141+9999ME1430689OA149902061REMSYN088AAXX  14234 06791 33/// /2523 11037 21194 36796 47068 58014 333 55300 20000 91140 91224;
0149067910999992011011500004+46417+009817FM-12+329999999V0202501N010319999999N9999999N1-00431-01791999999ADDMA1999999067921MD1610151+9999ME1430649OA149902061REMSYN088AAXX  15004 06791 33/// /2520 11043 21179 36792 47064 56015 333 55300 20000 91140 91224;
0149067910999992011011501004+46417+009817FM-12+329999999V0202601N011819999999N9999999N1-00501-01681999999ADDMA1999999067811MD1810211+9999ME1430529OA149902421REMSYN088AAXX  15014 06791 33/// /2623 11050 21168 36781 47052 58021 333 55300 20000 91147 91224;
0149067910999992011011502004+46417+009817FM-12+329999999V0202501N004119999999N9999999N1-00791-01261999999ADDMA1999999067881MD1519999+9999ME1430629OA149902421REMSYN088AAXX  15024 06791 33/// /2508 11079 21126 36788 47062 55/// 333 55300 20000 91147 91223;
0112067910999992011011503004+46417+009817FM-12+329999999V0203101N009819999999N9999999N1-00921-01211999999ADDMA1999999067851ME1430609REMSYN076AAXX  15034 06791 33/// /3119 11092 21121 36785 47060 5//// 333 553// 20000;
0149067910999992011011504004+46417+009817FM-12+329999999V0203501N005119999999N9999999N1-01031-01221999999ADDMA1999999067871MD1210061+9999ME1430649OA149901851REMSYN088AAXX  15044 06791 33/// /3510 11103 21122 36787 47064 52006 333 55300 20000 91136 91221;
0149067910999992011011505004+46417+009817FM-12+329999999V0203501N007719999999N9999999N1-01041-01331999999ADDMA1999999067911MD1310031+9999ME1430689OA149901801REMSYN088AAXX  15054 06791 33/// /3515 11104 21133 36791 47068 53003 333 55300 20000 91135 91221;
0198067910999992011011506004+46417+009817FM-12+329999999V0203201N006719999999N9999999N1-01121-01221999999ADDAL19900091GJ104029KA1999N-01111MA1999999067931MD1210081+9999ME1430719OA149902421REMSYN106AAXX  15064 06791 33/// /3213 11112 21122 36793 47071 52008 333 21111 55067 55300 20000 70000 91147 91224;
0149067910999992011011507004+46417+009817FM-12+329999999V0200501N009819999999N9999999N1-01131-01381999999ADDMA1999999068061MD1210191+9999ME1430869OA149901851REMSYN088AAXX  15074 06791 33/// /0519 11113 21138 36806 47086 52019 333 55300 20000 91136 91219;
0149067910999992011011508004+46417+009817FM-12+329999999V0203501N006219999999N9999999N1-00991-01851999999ADDMA1999999068161MD1219999+9999ME1430969OA149901851REMSYN088AAXX  15084 06791 33/// /3512 11099 21185 36816 47096 52/// 333 55304 20158 91136 91219;
0149067910999992011011509004+46417+009817FM-12+329999999V0203501N006719999999N9999999N1-00911-02511999999ADDMA1999999068191MD1210261+9999ME1430999OA149901851REMSYN088AAXX  15094 06791 33/// /3513 11091 21251 36819 47099 52026 333 553// 20720 91136 91221;
0149067910999992011011510004+46417+009817FM-12+329999999V0203301N009819999999N9999999N1-00681-03381999999ADDMA1999999068241MD1210181+9999ME1431039OA149901601REMSYN088AAXX  15104 06791 33/// /3319 11068 21338 36824 47103 52018 333 553// 2//// 91131 91220;
0149067910999992011011511004+46417+009817FM-12+329999999V0203401N007719999999N9999999N1-00651-03471999999ADDMA1999999068271MD1210111+9999ME1431069OA149901601REMSYN088AAXX  15114 06791 33/// /3415 11065 21347 36827 47106 52011 333 553// 2//// 91131 91220;
0149067910999992011011512004+46417+009817FM-12+329999999V0203301N007719999999N9999999N1-00481-03001999999ADDMA1999999068291MD1110101+9999ME1431079OA149902421REMSYN088AAXX  15124 06791 33/// /3315 11048 21300 36829 47107 51010 333 553// 2//// 91147 91223;
0112067910999992011011513004+46417+009817FM-12+329999999V0203201N005719999999N9999999N1-00451-02941999999ADDMA1999999068321ME1431119REMSYN076AAXX  15134 06791 33/// /3211 11045 21294 36832 47111 5//// 333 553// 2////;
0096067910999992011011514004+46417+009817FM-12+329999999V0203301N005119999999N9999999N1-00401-02341999999ADDMA1999999068351ME1431149REMSYN060AAXX  15144 06791 43/// /3310 11040 21234 36835 47114 5////;
0096067910999992011011515004+46417+009817FM-12+329999999V0203301N006219999999N9999999N1-00421-02051999999ADDMA1999999068411ME1431219REMSYN060AAXX  15154 06791 43/// /3312 11042 21205 36841 47121 5////;
0096067910999992011011516004+46417+009817FM-12+329999999V0203401N005719999999N9999999N1-00501-01801999999ADDMA1999999068451ME1431269REMSYN060AAXX  15164 06791 43/// /3411 11050 21180 36845 47126 5////;
0112067910999992011011517004+46417+009817FM-12+329999999V0203401N006219999999N9999999N1-00481-01511999999ADDMA1999999068491ME1431309REMSYN076AAXX  15174 06791 33/// /3412 11048 21151 36849 47130 5//// 333 553// 20000;
0119067910999992011011518004+46417+009817FM-12+329999999V0203301N004619999999N9999999N1-00471-01381999999ADDKA1999M-00391MA1999999068541ME1431369REMSYN070AAXX  15184 06791 43/// /3309 11047 21138 36854 47136 5//// 333 11039;
0096067910999992011011519004+46417+009817FM-12+329999999V0203301N006719999999N9999999N1-00451-01171999999ADDMA1999999068581ME1431419REMSYN060AAXX  15194 06791 43/// /3313 11045 21117 36858 47141 5////;
0096067910999992011011520004+46417+009817FM-12+329999999V0203401N005119999999N9999999N1-00501-01171999999ADDMA1999999068601ME1431439REMSYN060AAXX  15204 06791 43/// /3410 11050 21117 36860 47143 5////;
0149067910999992011011521004+46417+009817FM-12+329999999V0209999C006719999999N9999999N1-00501-01081999999ADDMA1999999068621MD1210081+9999ME1431469OA149901181REMSYN088AAXX  15214 06791 33/// /0013 11050 21108 36862 47146 52008 333 55300 20000 91123 91216;
0149067910999992011011522004+46417+009817FM-12+329999999V0200101N006719999999N9999999N1-00441-00781999999ADDMA1999999068661MD1310081+9999ME1431509OA149901081REMSYN088AAXX  15224 06791 33/// /0113 11044 21078 36866 47150 53008 333 55300 20000 91121 91214;
0149067910999992011011523004+46417+009817FM-12+329999999V0203501N006219999999N9999999N1-00341-00721999999ADDMA1999999068661MD1210061+9999ME1431499OA149901031REMSYN088AAXX  15234 06791 33/// /3512 11034 21072 36866 47149 52006 333 55300 20000 91120 91215;
0149067910999992011011600004+46417+009817FM-12+329999999V0203401N005719999999N9999999N1-00251-00661999999ADDMA1999999068691MD1210071+9999ME1431529OA149901291REMSYN088AAXX  16004 06791 33/// /3411 11025 21066 36869 47152 52007 333 55300 20000 91125 91217;
0149067910999992011011601004+46417+009817FM-12+329999999V0203401N005119999999N9999999N1-00231-00741999999ADDMA1999999068721MD1210061+9999ME1431569OA149901081REMSYN088AAXX  16014 06791 33/// /3410 11023 21074 36872 47156 52006 333 55300 20000 91121 91211;
0149067910999992011011602004+46417+009817FM-12+329999999V0203301N005119999999N9999999N1-00151-00811999999ADDMA1999999068751MD1319999+9999ME1431599OA149900881REMSYN088AAXX  16024 06791 33/// /3310 11015 21081 36875 47159 53/// 333 55300 20000 91117 91211;
0096067910999992011011603004+46417+009817FM-12+329999999V0203301N004119999999N9999999N1-00161-00781999999ADDMA1999999068761ME1431609REMSYN060AAXX  16034 06791 43/// /3308 11016 21078 36876 47160 5////;
0149067910999992011011604004+46417+009817FM-12+329999999V0203401N004619999999N9999999N1-00101-00751999999ADDMA1999999068761MD1210041+9999ME1431599OA149900621REMSYN088AAXX  16044 06791 33/// /3409 11010 21075 36876 47159 52004 333 55300 20000 91112 91209;
0149067910999992011011605004+46417+009817FM-12+329999999V0203301N003619999999N9999999N1-00091-00831999999ADDMA1999999068781MD1210031+9999ME1431629OA149900621REMSYN088AAXX  16054 06791 33/// /3307 11009 21083 36878 47162 52003 333 55300 20000 91112 91209;
0198067910999992011011606004+46417+009817FM-12+329999999V0203401N003619999999N9999999N1-00091-00911999999ADDAL19900091GJ104089KA1999N-00531MA1999999068811MD1210051+9999ME1431659OA149901131REMSYN106AAXX  16064 06791 33/// /3407 11009 21091 36881 47165 52005 333 21053 55068 55300 20000 70000 91122 91215;
0149067910999992011011607004+46417+009817FM-12+329999999V0203001N001519999999N9999999N1-00141-00921999999ADDMA1999999068831MD1310071+9999ME1431689OA149900571REMSYN088AAXX  16074 06791 33/// /3003 11014 21092 36883 47168 53007 333 55300 20000 91111 91208;
0149067910999992011011608004+46417+009817FM-12+329999999V0203001N003119999999N9999999N1-00161-01001999999ADDMA1999999068861MD1319999+9999ME1431719OA149900511REMSYN088AAXX  16084 06791 33/// /3006 11016 21100 36886 47171 53/// 333 55304 20144 91110 91208;
0149067910999992011011609004+46417+009817FM-12+329999999V0202701N003619999999N9999999N1-00091-01061999999ADDMA1999999068881MD1110071+9999ME1431739OA149900621REMSYN088AAXX  16094 06791 33/// /2707 11009 21106 36888 47173 51007 333 553// 20738 91112 91209;
0149067910999992011011610004+46417+009817FM-12+329999999V0202401N004619999999N9999999N1-00031-01361999999ADDMA1999999068891MD1110061+9999ME1431749OA149900621REMSYN088AAXX  16104 06791 33/// /2409 11003 21136 36889 47174 51006 333 553// 2//// 91112 91209;
0149067910999992011011611004+46417+009817FM-12+329999999V0202401N008219999999N9999999N1+00001-01831999999ADDMA1999999068891MD1110031+9999ME1431749OA149900981REMSYN088AAXX  16114 06791 33/// /2416 10000 21183 36889 47174 51003 333 553// 2//// 91119 91216;
0149067910999992011011612004+46417+009817FM-12+329999999V0202301N005119999999N9999999N1-00051-01761999999ADDMA1999999068871MD1810011+9999ME1431729OA149900981REMSYN088AAXX  16124 06791 33/// /2310 11005 21176 36887 47172 58001 333 553// 2//// 91119 91216;
0149067910999992011011613004+46417+009817FM-12+329999999V0202201N004119999999N9999999N1-00011-01641999999ADDMA1999999068841MD1810051+9999ME1431689OA149900981REMSYN088AAXX  16134 06791 33/// /2208 11001 21164 36884 47168 58005 333 553// 2//// 91119 91215;
0149067910999992011011614004+46417+009817FM-12+329999999V0202401N007719999999N9999999N1+00051-02101999999ADDMA1999999068831MD1619999+9999ME1431679OA149901131REMSYN088AAXX  16144 06791 33/// /2415 10005 21210 36883 47167 56/// 333 553// 2//// 91122 91215;
0149067910999992011011615004+46417+009817FM-12+329999999V0202301N008719999999N9999999N1+00001-01771999999ADDMA1999999068831MD1610041+9999ME1431679OA149901291REMSYN088AAXX  16154 06791 33/// /2317 10000 21177 36883 47167 56004 333 553// 20745 91125 91217;
0149067910999992011011616004+46417+009817FM-12+329999999V0202301N007719999999N9999999N1-00021-02051999999ADDMA1999999068831MD1410001+9999ME1431679OA149901291REMSYN088AAXX  16164 06791 33/// /2315 11002 21205 36883 47167 54001 333 55306 20194 91125 91217;
0149067910999992011011617004+46417+009817FM-12+329999999V0202301N009319999999N9999999N1-00071-02051999999ADDMA1999999068831MD1010001+9999ME1431689OA149901291REMSYN088AAXX  16174 06791 33/// /2318 11007 21205 36883 47168 50000 333 55300 20000 91125 91218;
0168067910999992011011618004+46417+009817FM-12+329999999V0202401N008219999999N9999999N1-00031-02341999999ADDKA1120M+00081MA1999999068841MD1210011+9999ME1431689OA149901441REMSYN094AAXX  16184 06791 33/// /2416 11003 21234 36884 47168 52001 333 10008 55300 20000 91128 91220;
0149067910999992011011619004+46417+009817FM-12+329999999V0202301N007719999999N9999999N1-00081-02281999999ADDMA1999999068841MD1210011+9999ME1431699OA149901441REMSYN088AAXX  16194 06791 33/// /2315 11008 21228 36884 47169 52001 333 55300 20000 91128 91220;
0149067910999992011011620004+46417+009817FM-12+329999999V0202301N004119999999N9999999N1-00081-02741999999ADDMA1999999068831MD1010001+9999ME1431689OA149901181REMSYN088AAXX  16204 06791 33/// /2308 11008 21274 36883 47168 50000 333 55300 20000 91123 91216;
0149067910999992011011621004+46417+009817FM-12+329999999V0202101N004119999999N9999999N1-00031-02561999999ADDMA1999999068811MD1710031+9999ME1431659OA149901441REMSYN088AAXX  16214 06791 33/// /2108 11003 21256 36881 47165 57003 333 55300 20000 91128 91220;
0149067910999992011011622004+46417+009817FM-12+329999999V0201901N007219999999N9999999N1-00111-02401999999ADDMA1999999068801MD1610041+9999ME1431649OA149901081REMSYN088AAXX  16224 06791 33/// /1914 11011 21240 36880 47164 56004 333 55300 20000 91121 91214;
0149067910999992011011623004+46417+009817FM-12+329999999V0202101N007219999999N9999999N1-00161-02391999999ADDMA1999999068781MD1610051+9999ME1431629OA149901181REMSYN088AAXX  16234 06791 33/// /2114 11016 21239 36878 47162 56005 333 55300 20000 91123 91215;
0149067910999992011011700004+46417+009817FM-12+329999999V0202101N009319999999N9999999N1-00181-02081999999ADDMA1999999068761MD1810051+9999ME1431609OA149901491REMSYN088AAXX  17004 06791 33/// /2118 11018 21208 36876 47160 58005 333 55300 20000 91129 91220;
0149067910999992011011701004+46417+009817FM-12+329999999V0202001N008719999999N9999999N1-00201-02071999999ADDMA1999999068731MD1810071+9999ME1431579OA149901491REMSYN088AAXX  17014 06791 33/// /2017 11020 21207 36873 47157 58007 333 55300 20000 91129 91218;
0149067910999992011011702004+46417+009817FM-12+329999999V0201901N008219999999N9999999N1-00171-02541999999ADDMA1999999068721MD1619999+9999ME1431559OA149901441REMSYN088AAXX  17024 06791 33/// /1916 11017 21254 36872 47155 56/// 333 55300 20000 91128 91217;
0112067910999992011011703004+46417+009817FM-12+329999999V0201901N007219999999N9999999N1-00201-02441999999ADDMA1999999068701ME1431539REMSYN076AAXX  17034 06791 33/// /1914 11020 21244 36870 47153 5//// 333 553// 20000;
0149067910999992011011704004+46417+009817FM-12+329999999V0202001N007719999999N9999999N1-00241-02221999999ADDMA1999999068661MD1810071+9999ME1431499OA149901441REMSYN088AAXX  17044 06791 33/// /2015 11024 21222 36866 47149 58007 333 55300 20000 91128 91215;
0149067910999992011011705004+46417+009817FM-12+329999999V0201901N007219999999N9999999N1-00251-02141999999ADDMA1999999068621MD1810101+9999ME1431449OA149901441REMSYN088AAXX  17054 06791 33/// /1914 11025 21214 36862 47144 58010 333 55300 20000 91128 91215;
0198067910999992011011706004+46417+009817FM-12+329999999V0201901N006219999999N9999999N1-00261-02561999999ADDAL19900091GJ104809KA1999N-00261MA1999999068581MD1810121+9999ME1431399OA149901491REMSYN106AAXX  17064 06791 33/// /1912 11026 21256 36858 47139 58012 333 21026 55080 55300 20000 70000 91129 91218;
0149067910999992011011707004+46417+009817FM-12+329999999V0201901N009319999999N9999999N1-00231-02071999999ADDMA1999999068581MD1610081+9999ME1431399OA149901541REMSYN088AAXX  17074 06791 33/// /1918 11023 21207 36858 47139 56008 333 55300 20000 91130 91218;
0096067910999992011011708004+46417+009817FM-12+329999999V0201801N005719999999N9999999N1-00261-02071999999ADDMA1999999068571ME1431389REMSYN060AAXX  17084 06791 43/// /1811 11026 21207 36857 47138 5////;
0096067910999992011011709004+46417+009817FM-12+329999999V0201801N005719999999N9999999N1-00251-02051999999ADDMA1999999068551ME1431369REMSYN060AAXX  17094 06791 43/// /1811 11025 21205 36855 47136 5////;
0149067910999992011011710004+46417+009817FM-12+329999999V0201901N008219999999N9999999N1-00281-01911999999ADDMA1999999068551MD1610031+9999ME1431369OA149901801REMSYN088AAXX  17104 06791 33/// /1916 11028 21191 36855 47136 56003 333 553// 2//// 91135 91216;
0149067910999992011011711004+46417+009817FM-12+329999999V0201901N006719999999N9999999N1-00251-01661999999ADDMA1999999068521MD1810051+9999ME1431329OA149901701REMSYN088AAXX  17114 06791 33/// /1913 11025 21166 36852 47132 58005 333 553// 2//// 91133 91216;
0149067910999992011011712004+46417+009817FM-12+329999999V0201901N006219999999N9999999N1-00311-01791999999ADDMA1999999068481MD1810071+9999ME1431289OA149901801REMSYN088AAXX  17124 06791 33/// /1912 11031 21179 36848 47128 58007 333 553// 2//// 91135 91218;
0149067910999992011011713004+46417+009817FM-12+329999999V0202101N004119999999N9999999N1-00381-01691999999ADDMA1999999068431MD1810121+9999ME1431239OA149901341REMSYN088AAXX  17134 06791 33/// /2108 11038 21169 36843 47123 58012 333 553// 2//// 91126 91215;
0096067910999992011011714004+46417+009817FM-12+329999999V0202201N004619999999N9999999N1-00331-01751999999ADDMA1999999068411ME1431209REMSYN060AAXX  17144 06791 43/// /2209 11033 21175 36841 47120 5////;
0096067910999992011011715004+46417+009817FM-12+329999999V0202601N003619999999N9999999N1-00411-01731999999ADDMA1999999068421ME1431229REMSYN060AAXX  17154 06791 43/// /2607 11041 21173 36842 47122 5////;
0149067910999992011011716004+46417+009817FM-12+329999999V0203501N002119999999N9999999N1-00381-01991999999ADDMA1999999068411MD1710021+9999ME1431219OA149900821REMSYN088AAXX  17164 06791 33/// /3504 11038 21199 36841 47121 57002 333 55306 20202 91116 91209;
0149067910999992011011717004+46417+009817FM-12+329999999V0200501N003619999999N9999999N1-00401-01891999999ADDMA1999999068401MD1810011+9999ME1431199OA149900461REMSYN088AAXX  17174 06791 33/// /0507 11040 21189 36840 47119 58001 333 55300 20000 91109 91208;
0168067910999992011011718004+46417+009817FM-12+329999999V0200501N004619999999N9999999N1-00461-01901999999ADDKA1120M-00201MA1999999068411MD1510011+9999ME1431219OA149901801REMSYN094AAXX  17184 06791 33/// /0509 11046 21190 36841 47121 55001 333 11020 55300 20000 91135 91218;
0149067910999992011011719004+46417+009817FM-12+329999999V0200401N006219999999N9999999N1-00511-01861999999ADDMA1999999068411MD1510001+9999ME1431219OA149900721REMSYN088AAXX  17194 06791 33/// /0412 11051 21186 36841 47121 55000 333 55300 20000 91114 91212;
0149067910999992011011720004+46417+009817FM-12+329999999V0200301N005719999999N9999999N1-00571-01701999999ADDMA1999999068401MD1010001+9999ME1431219OA149900821REMSYN088AAXX  17204 06791 33/// /0311 11057 21170 36840 47121 50000 333 55300 20000 91116 91212;
0149067910999992011011721004+46417+009817FM-12+329999999V0200501N005719999999N9999999N1-00601-01631999999ADDMA1999999068401MD1710011+9999ME1431219OA149900821REMSYN088AAXX  17214 06791 33/// /0511 11060 21163 36840 47121 57001 333 55300 20000 91116 91212;
0149067910999992011011722004+46417+009817FM-12+329999999V0200301N003619999999N9999999N1-00641-01791999999ADDMA1999999068381MD1810031+9999ME1431199OA149900721REMSYN088AAXX  17224 06791 33/// /0307 11064 21179 36838 47119 58003 333 55300 20000 91114 91211;
0149067910999992011011723004+46417+009817FM-12+329999999V0200101N003619999999N9999999N1-00631-01841999999ADDMA1999999068371MD1810031+9999ME1431189OA149900721REMSYN088AAXX  17234 06791 33/// /0107 11063 21184 36837 47118 58003 333 55300 20000 91114 91211;
0149067910999992011011800004+46417+009817FM-12+329999999V0200701N002619999999N9999999N1-00741-01691999999ADDMA1999999068341MD1610061+9999ME1431159OA149901131REMSYN088AAXX  18004 06791 33/// /0705 11074 21169 36834 47115 56006 333 55300 20000 91122 91213;
0149067910999992011011801004+46417+009817FM-12+329999999V0200801N003119999999N9999999N1-00781-01641999999ADDMA1999999068321MD1819999+9999ME1431139OA149900511REMSYN088AAXX  18014 06791 33/// /0806 11078 21164 36832 47113 58/// 333 55300 20000 91110 91206;
0096067910999992011011802004+46417+009817FM-12+329999999V0201001N002619999999N9999999N1-00841-01631999999ADDMA1999999068301ME1431119REMSYN060AAXX  18024 06791 43/// /1005 11084 21163 36830 47111 5////;
0096067910999992011011803004+46417+009817FM-12+329999999V0200401N002119999999N9999999N1-00721-01721999999ADDMA1999999068281ME1431089REMSYN060AAXX  18034 06791 43/// /0404 11072 21172 36828 47108 5////;
0112067910999992011011804004+46417+009817FM-12+329999999V0203501N001019999999N9999999N1-00721-01661999999ADDMA1999999068261ME1431069REMSYN076AAXX  18044 06791 33/// /3502 11072 21166 36826 47106 5//// 333 553// 20000;
0149067910999992011011805004+46417+009817FM-12+329999999V0202901N001019999999N9999999N1-00701-01851999999ADDMA1999999068221MD1810081+9999ME1431019OA149900311REMSYN088AAXX  18054 06791 33/// /2902 11070 21185 36822 47101 58008 333 55300 20000 91106 91203;
0198067910999992011011806004+46417+009817FM-12+329999999V0202501N004119999999N9999999N1-00651-02001999999ADDAL19900091GJ104749KA1999N-00841MA1999999068211MD1710071+9999ME1430999OA149900821REMSYN106AAXX  18064 06791 33/// /2508 11065 21200 36821 47099 57007 333 21084 55079 55300 20000 70000 91116 91212;
0149067910999992011011807004+46417+009817FM-12+329999999V0202401N005119999999N9999999N1-00671-01891999999ADDMA1999999068201MD1710061+9999ME1430989OA149900721REMSYN088AAXX  18074 06791 33/// /2410 11067 21189 36820 47098 57006 333 55300 20000 91114 91210;
0096067910999992011011808004+46417+009817FM-12+329999999V0202301N004119999999N9999999N1-00671-01851999999ADDMA1999999068201ME1430989REMSYN060AAXX  18084 06791 43/// /2308 11067 21185 36820 47098 5////;
0096067910999992011011809004+46417+009817FM-12+329999999V0201901N003619999999N9999999N1-00681-01851999999ADDMA1999999068201ME1430989REMSYN060AAXX  18094 06791 43/// /1907 11068 21185 36820 47098 5////;
