0179067940999992010010100004+46350+010067FM-12+107899999V0200601N001512200019N0200001N1-00291-00361999999ADDGA1001+999999999GF100991001001999999001001MA1999999087101MD1610091+9999ME1312719OA149900261REMSYN076AAXX  01004 06794 32970 00603 11029 21036 38710 48271 56009 333 91105 91204;
0137067940999992010010101004+46350+010067FM-12+107899999V0200301N001019999999N9999999N1-00151-00231999999ADDMA1999999087071MD1810081+9999ME1312699OA149900261REMSYN076AAXX  01014 06794 33/// /0302 11015 21023 38707 48269 58008 333 91105 91204;
0137067940999992010010102004+46350+010067FM-12+107899999V0200501N001019999999N9999999N1-00221-00301999999ADDMA1999999087031MD1719999+9999ME1312659OA149900261REMSYN076AAXX  01024 06794 33/// /0502 11022 21030 38703 48265 57/// 333 91105 91203;
0138067940999992010010103004+46350+010067FM-12+107899999V0200401N002612200019N0200001N1-00251-00341999999ADDGA1001+999999999GF100991001001999999001001MA1999999086971ME1312599REMSYN060AAXX  01034 06794 42970 00405 11025 21034 38697 48259 5////;
0096067940999992010010104004+46350+010067FM-12+107899999V0200401N002119999999N9999999N1-00201-00321999999ADDMA1999999086931ME1312569REMSYN060AAXX  01044 06794 33/// /0404 11020 21032 38693 48256 5////;
0137067940999992010010105004+46350+010067FM-12+107899999V0200401N002119999999N9999999N1-00351-00431999999ADDMA1999999086861MD1810171+9999ME1312499OA149900311REMSYN076AAXX  01054 06794 33/// /0404 11035 21043 38686 48249 58017 333 91106 91204;
0308067940999992010010106004+46350+010067FM-12+107899999V0200801N000512200019N0200001N1-00301-00391999999ADDAA124005691AJ100089199999999AL14200591AL29900091GA1001+999999999GF100991001001999999001001GJ100009IA1309IA2999-00409KA1999N-00411MA1999999086851MD1610121+9999ME1312489OA149900361REMSYN118AAXX  01064 06794 32970 00801 11030 21039 38685 48248 56012 333 21041 3/104 42008 55000 70057 90768 93100 91107 91205;
0137067940999992010010107004+46350+010067FM-12+107899999V0200501N002119999999N9999999N1-00231-00381999999ADDMA1999999086761MD1810171+9999ME1312409OA149900361REMSYN076AAXX  01074 06794 33/// /0504 11023 21038 38676 48240 58017 333 91107 91205;
0137067940999992010010108004+46350+010067FM-12+107899999V0200701N000519999999N9999999N1-00301-00401999999ADDMA1999999086861MD1510001+9999ME1312499OA149900411REMSYN076AAXX  01084 06794 33/// /0701 11030 21040 38686 48249 55000 333 91108 91205;
0191067940999992010010109004+46350+010067FM-12+107899999V0200801N000510450019N0200001N1-00091-00291999999ADDGA1071+045001011GF107991001001999999001091MA1999999086921MD1310071+9999ME1312569OA149900411REMSYN088AAXX  01094 06794 32970 70801 11009 21029 38692 48256 53007 80009 333 87165 91108 91205;
0137067940999992010010110004+46350+010067FM-12+107899999V0200501N001519999999N9999999N1-00031-00211999999ADDMA1999999086941MD1210181+9999ME1312589OA149900311REMSYN076AAXX  01104 06794 33/// /0503 11003 21021 38694 48258 52018 333 91106 91205;
0137067940999992010010111004+46350+010067FM-12+107899999V0202601N000519999999N9999999N1+00141-00131999999ADDMA1999999086881MD1010021+9999ME1312549OA149900211REMSYN076AAXX  01114 06794 33/// /2601 10014 21013 38688 48254 50002 333 91104 91204;
0191067940999992010010112004+46350+010067FM-12+107899999V0200601N001010450019N0160001N1+00061-00131999999ADDGA1071+045001021GF107991001001999999001061MA1999999086811MD1710111+9999ME1312479OA149900411REMSYN088AAXX  01124 06794 32966 70602 10006 21013 38681 48247 57011 80006 333 87265 91108 91205;
0137067940999992010010113004+46350+010067FM-12+107899999V0201801N000519999999N9999999N1+00301-00111999999ADDMA1999999086801MD1710141+9999ME1312479OA149900211REMSYN076AAXX  01134 06794 33/// /1801 10030 21011 38680 48247 57014 333 91104 91203;
0137067940999992010010114004+46350+010067FM-12+107899999V0202001N000519999999N9999999N1+00241-00121999999ADDMA1999999086841MD1519999+9999ME1312519OA149900151REMSYN076AAXX  01144 06794 33/// /2001 10024 21012 38684 48251 55/// 333 91103 91202;
0191067940999992010010115004+46350+010067FM-12+107899999V0200401N001010450019N0160001N1+00031-00121999999ADDGA1051+045001011GF105991001001999999001091MA1999999086921MD1210111+9999ME1312579OA149900211REMSYN088AAXX  01154 06794 32966 50402 10003 21012 38692 48257 52011 80009 333 85165 91104 91204;
0137067940999992010010116004+46350+010067FM-12+107899999V0200601N001019999999N9999999N1-00021-00161999999ADDMA1999999086981MD1310181+9999ME1312629OA149900211REMSYN076AAXX  01164 06794 33/// /0602 11002 21016 38698 48262 53018 333 91104 91203;
0137067940999992010010117004+46350+010067FM-12+107899999V0200401N000519999999N9999999N1-00071-00211999999ADDMA1999999087041MD1110201+9999ME1312679OA149900211REMSYN076AAXX  01174 06794 33/// /0401 11007 21021 38704 48267 51020 333 91104 91203;
0261067940999992010010118004+46350+010067FM-12+107899999V0200501N001010330019N0180001N1-00131-00261999999ADDAJ100089199999999AL19900091GA1081+033001041GF108991081001999999011999IA1279KA1120M+00361MA1999999087111MD1110191+9999ME1312739OA149900411REMSYN112AAXX  01184 06794 32968 80502 11013 21026 38711 48273 51019 8801/ 333 10036 43008 88461 90766 93100 91108 91205;
0137067940999992010010119004+46350+010067FM-12+107899999V0209999C000019999999N9999999N1-00091-00241999999ADDMA1999999087171MD1310191+9999ME1312799OA149900261REMSYN076AAXX  01194 06794 33/// /0000 11009 21024 38717 48279 53019 333 91105 91203;
0137067940999992010010120004+46350+010067FM-12+107899999V0200301N000519999999N9999999N1-00141-00261999999ADDMA1999999087241MD1210201+9999ME1312859OA149900261REMSYN076AAXX  01204 06794 33/// /0301 11014 21026 38724 48285 52020 333 91105 91203;
0191067940999992010010121004+46350+010067FM-12+107899999V0209999C000010330019N0180001N1-00081-00231999999ADDGA1081+033001041GF108991081001999999011999MA1999999087301MD1110191+9999ME1312919OA149900261REMSYN088AAXX  01214 06794 32968 80000 11008 21023 38730 48291 51019 8801/ 333 88461 91105 91203;
0137067940999992010010122004+46350+010067FM-12+107899999V0209999C000019999999N9999999N1-00101-00261999999ADDMA1999999087381MD1310211+9999ME1312989OA149900211REMSYN076AAXX  01224 06794 33/// /0000 11010 21026 38738 48298 53021 333 91104 91203;
0137067940999992010010123004+46350+010067FM-12+107899999V0209999C000019999999N9999999N1-00151-00281999999ADDMA1999999087441MD1110201+9999ME1313039OA149900261REMSYN076AAXX  01234 06794 33/// /0000 11015 21028 38744 48303 51020 333 91105 91202;
0137067940999992010010200004+46350+010067FM-12+107899999V0200201N003119999999N9999999N1+00391-00591999999ADDMA1999999087471MD1210171+9999ME1313109OA149900981REMSYN076AAXX  02004 06794 33/// /0206 10039 21059 38747 48310 52017 333 91119 91206;
0137067940999992010010201004+46350+010067FM-12+107899999V0203501N001519999999N9999999N1+00431-00751999999ADDMA1999999087501MD1210121+9999ME1313139OA149900981REMSYN076AAXX  02014 06794 33/// /3503 10043 21075 38750 48313 52012 333 91119 91206;
0096067940999992010010202004+46350+010067FM-12+107899999V0200301N005719999999N9999999N1+00401-00881999999ADDMA1999999087601ME1313229REMSYN060AAXX  02024 06794 33/// /0311 10040 21088 38760 48322 5////;
0191067940999992010010203004+46350+010067FM-12+107899999V0200101N002612200019N0220001N1+00261-00891999999ADDGA1031+033001031GF103991031001999999081001MA1999999087671MD1210201+9999ME1313279OA149901241REMSYN088AAXX  02034 06794 32972 30105 10026 21089 38767 48327 52020 83080 333 83361 91124 91211;
0137067940999992010010204004+46350+010067FM-12+107899999V0200501N007219999999N9999999N1+00281-00991999999ADDMA1999999087731MD1210231+9999ME1313339OA149901441REMSYN076AAXX  02044 06794 33/// /0514 10028 21099 38773 48333 52023 333 91128 91215;
0137067940999992010010205004+46350+010067FM-12+107899999V0200201N002119999999N9999999N1+00221-00981999999ADDMA1999999087781MD1210181+9999ME1313379OA149901441REMSYN076AAXX  02054 06794 33/// /0204 10022 21098 38778 48337 52018 333 91128 91215;
0329067940999992010010206004+46350+010067FM-12+107899999V0200501N004610330019N0200001N1+00201-00961999999ADDAA124000091AJ100089199999999AL19900091GA1081+033001031GF108991081001999999031999GJ101509IA1279IA2999-00309KA1999N-00201MA1999999087831MD1210161+9999ME1313419OA149901441REMSYN130AAXX  02064 06794 32970 80509 10020 21096 38783 48341 52016 8803/ 333 21020 3/103 43008 55025 70000 88361 90768 93100 91128 91215;EQDQ01  00002PRCP24
0137067940999992010010207004+46350+010067FM-12+107899999V0200501N006219999999N9999999N1+00151-01151999999ADDMA1999999087891MD1210161+9999ME1313469OA149901241REMSYN076AAXX  02074 06794 33/// /0512 10015 21115 38789 48346 52016 333 91124 91213;
0096067940999992010010208004+46350+010067FM-12+107899999V0200401N008219999999N9999999N1+00021-01251999999ADDMA1999999088021ME1313579REMSYN060AAXX  02084 06794 33/// /0416 10002 21125 38802 48357 5////;
0191067940999992010010209004+46350+010067FM-12+107899999V0200401N011810330019N0200001N1-00091-01531999999ADDGA1061+033001031GF106991061001999999031001MA1999999088121MD1210291+9999ME1313659OA149901751REMSYN088AAXX  02094 06794 32970 60423 11009 21153 38812 48365 52029 86030 333 86361 91134 91223;
0137067940999992010010210004+46350+010067FM-12+107899999V0200401N011819999999N9999999N1-00091-01631999999ADDMA1999999088191MD1110301+9999ME1313719OA149901851REMSYN076AAXX  02104 06794 33/// /0423 11009 21163 38819 48371 51030 333 91136 91223;
0137067940999992010010211004+46350+010067FM-12+107899999V0200401N012319999999N9999999N1-00221-02061999999ADDMA1999999088301MD1310281+9999ME1313799OA149902111REMSYN076AAXX  02114 06794 33/// /0424 11022 21206 38830 48379 53028 333 91141 91225;
0137067940999992010010212004+46350+010067FM-12+107899999V0200501N010319999999N9999999N1-00271-02041999999ADDMA1999999088381MD1210261+9999ME1313869OA149902111REMSYN076AAXX  02124 06794 33/// /0520 11027 21204 38838 48386 52026 333 91141 91225;
0137067940999992010010213004+46350+010067FM-12+107899999V0200501N011319999999N9999999N1-00311-01931999999ADDMA1999999088491MD1210301+9999ME1313959OA149901901REMSYN076AAXX  02134 06794 33/// /0522 11031 21193 38849 48395 52030 333 91137 91224;
0137067940999992010010214004+46350+010067FM-12+107899999V0200601N011819999999N9999999N1-00311-01951999999ADDMA1999999088501MD1219999+9999ME1313969OA149901851REMSYN076AAXX  02144 06794 33/// /0623 11031 21195 38850 48396 52/// 333 91136 91223;
0137067940999992010010215004+46350+010067FM-12+107899999V0200601N012319999999N9999999N1-00401-02131999999ADDMA1999999088611MD1210231+9999ME1314059OA149902111REMSYN076AAXX  02154 06794 33/// /0624 11040 21213 38861 48405 52023 333 91141 91225;
0137067940999992010010216004+46350+010067FM-12+107899999V0200501N011819999999N9999999N1-00421-01931999999ADDMA1999999088751MD1210261+9999ME1314179OA149902111REMSYN076AAXX  02164 06794 33/// /0523 11042 21193 38875 48417 52026 333 91141 91224;
0137067940999992010010217004+46350+010067FM-12+107899999V0200601N009819999999N9999999N1-00461-02011999999ADDMA1999999088851MD1210351+9999ME1314259OA149901901REMSYN076AAXX  02174 06794 33/// /0619 11046 21201 38885 48425 52035 333 91137 91224;
0156067940999992010010218004+46350+010067FM-12+107899999V0200501N008719999999N9999999N1-00481-01981999999ADDKA1120M+00201MA1999999088921MD1110311+9999ME1314319OA149902111REMSYN082AAXX  02184 06794 33/// /0517 11048 21198 38892 48431 51031 333 10020 91141 91225;
0137067940999992010010219004+46350+010067FM-12+107899999V0200601N007219999999N9999999N1-00481-02021999999ADDMA1999999088961MD1210211+9999ME1314359OA149901701REMSYN076AAXX  02194 06794 33/// /0614 11048 21202 38896 48435 52021 333 91133 91222;
0137067940999992010010220004+46350+010067FM-12+107899999V0200501N007719999999N9999999N1-00521-01971999999ADDMA1999999089031MD1210181+9999ME1314409OA149901601REMSYN076AAXX  02204 06794 33/// /0515 11052 21197 38903 48440 52018 333 91131 91219;
0213067940999992010010221004+46350+010067FM-12+107899999V0200501N008712200019N0200001N1-00511-02011999999ADDGA1011+030001081GA2031+033001041GF103991011011999999011999MA1999999089041MD1210121+9999ME1314419OA149901901REMSYN094AAXX  02214 06794 32970 30517 11051 21201 38904 48441 52012 8111/ 333 81860 83461 91137 91224;
0137067940999992010010222004+46350+010067FM-12+107899999V0200601N007219999999N9999999N1-00491-02381999999ADDMA1999999089051MD1210091+9999ME1314429OA149901601REMSYN076AAXX  02224 06794 33/// /0614 11049 21238 38905 48442 52009 333 91131 91218;
0137067940999992010010223004+46350+010067FM-12+107899999V0200601N006719999999N9999999N1-00491-02181999999ADDMA1999999089111MD1210081+9999ME1314489OA149901601REMSYN076AAXX  02234 06794 33/// /0613 11049 21218 38911 48448 52008 333 91131 91218;
0179067940999992010010300004+46350+010067FM-12+107899999V0200601N008712200019N0220001N1-00451-02441999999ADDGA1001+999999999GF100991001001999999001001MA1999999089071MD1010031+9999ME1314459OA149902111REMSYN076AAXX  03004 06794 32972 00617 11045 21244 38907 48445 50003 333 91141 91224;
0137067940999992010010301004+46350+010067FM-12+107899999V0200601N009319999999N9999999N1-00461-02281999999ADDMA1999999089091MD1210041+9999ME1314469OA149901701REMSYN076AAXX  03014 06794 33/// /0618 11046 21228 38909 48446 52004 333 91133 91219;
0096067940999992010010302004+46350+010067FM-12+107899999V0200601N010319999999N9999999N1-00411-02271999999ADDMA1999999089091ME1314479REMSYN060AAXX  03024 06794 33/// /0620 11041 21227 38909 48447 5////;
0138067940999992010010303004+46350+010067FM-12+107899999V0200201N005112200019N0220001N1-00431-02591999999ADDGA1001+999999999GF100991001001999999001001MA1999999089131ME1314509REMSYN060AAXX  03034 06794 32972 00210 11043 21259 38913 48450 5////;
0137067940999992010010304004+46350+010067FM-12+107899999V0202901N001519999999N9999999N1-00531-02451999999ADDMA1999999089191MD1210101+9999ME1314549OA149901491REMSYN076AAXX  03044 06794 33/// /2903 11053 21245 38919 48454 52010 333 91129 91220;
0137067940999992010010305004+46350+010067FM-12+107899999V0201701N000519999999N9999999N1-00701-02241999999ADDMA1999999089251MD1219999+9999ME1314579OA149901241REMSYN076AAXX  03054 06794 33/// /1701 11070 21224 38925 48457 52/// 333 91124 91210;
0317067940999992010010306004+46350+010067FM-12+107899999V0202201N001012200019N0220001N1-00771-02231999999ADDAA124000091AJ100089199999999AL19900091GA1001+999999999GF100991001001999999001001GJ101029IA1279IA2999-01009KA1999N-00801MA1999999089271MD1210141+9999ME1314579OA149901701REMSYN118AAXX  03064 06794 32972 02202 11077 21223 38927 48457 52014 333 21080 3/110 43008 55017 70000 90768 93100 91133 91220;EQDQ01  00002PRCP24
0137067940999992010010307004+46350+010067FM-12+107899999V0200501N001519999999N9999999N1-00881-02111999999ADDMA1999999089321MD1210131+9999ME1314609OA149900721REMSYN076AAXX  03074 06794 33/// /0503 11088 21211 38932 48460 52013 333 91114 91205;
0137067940999992010010308004+46350+010067FM-12+107899999V0200701N000519999999N9999999N1-00981-01921999999ADDMA1999999089331MD1219999+9999ME1314609OA149900261REMSYN076AAXX  03084 06794 33/// /0701 11098 21192 38933 48460 52/// 333 91105 91204;
0191067940999992010010309004+46350+010067FM-12+107899999V0200501N001512200019N0200001N1-00891-02041999999ADDGA1031+045001001GF103991001001999999001011MA1999999089401MD1210131+9999ME1314679OA149901241REMSYN088AAXX  03094 06794 32970 30503 11089 21204 38940 48467 52013 80001 333 83065 91124 91210;
0137067940999992010010310004+46350+010067FM-12+107899999V0200701N001019999999N9999999N1-00781-01811999999ADDMA1999999089441MD1210121+9999ME1314729OA149900361REMSYN076AAXX  03104 06794 33/// /0702 11078 21181 38944 48472 52012 333 91107 91205;
0137067940999992010010311004+46350+010067FM-12+107899999V0202101N001019999999N9999999N1-00471-02161999999ADDMA1999999089311MD1810021+9999ME1314659OA149900361REMSYN076AAXX  03114 06794 33/// /2102 11047 21216 38931 48465 58002 333 91107 91205;
0179067940999992010010312004+46350+010067FM-12+107899999V0202001N001012200019N0200001N1-00321-02411999999ADDGA1001+999999999GF100991001001999999001001MA1999999089221MD1710181+9999ME1314609OA149901701REMSYN076AAXX  03124 06794 32970 02002 11032 21241 38922 48460 57018 333 91133 91220;
0137067940999992010010313004+46350+010067FM-12+107899999V0202001N001019999999N9999999N1-00241-02281999999ADDMA1999999089181MD1710261+9999ME1314579OA149900261REMSYN076AAXX  03134 06794 33/// /2002 11024 21228 38918 48457 57026 333 91105 91202;
0137067940999992010010314004+46350+010067FM-12+107899999V0201701N000519999999N9999999N1-00301-02361999999ADDMA1999999089191MD1710121+9999ME1314579OA149900261REMSYN076AAXX  03144 06794 33/// /1701 11030 21236 38919 48457 57012 333 91105 91203;
0191067940999992010010315004+46350+010067FM-12+107899999V0200601N001012200019N0200001N1-00581-01382999999ADDGA1021+048001021GF102991001001999999001051MA1999999089231MD1310011+9999ME1314579OA149900361REMSYN088AAXX  03154 06794 32970 20602 11058 21138 38923 48457 53001 80005 333 82266 91107 91205;
0137067940999992010010316004+46350+010067FM-12+107899999V0200401N000519999999N9999999N1-00681-01451999999ADDMA1999999089261MD1210081+9999ME1314589OA149900461REMSYN076AAXX  03164 06794 33/// /0401 11068 21145 38926 48458 52008 333 91109 91203;
0137067940999992010010317004+46350+010067FM-12+107899999V0200601N001019999999N9999999N1-00711-01871999999ADDMA1999999089251MD1210061+9999ME1314579OA149900461REMSYN076AAXX  03174 06794 33/// /0602 11071 21187 38925 48457 52006 333 91109 91203;
0261067940999992010010318004+46350+010067FM-12+107899999V0200801N001012200019N0200001N1-00781-01771999999ADDAJ100089199999999AL19900091GA1021+048001021GF102991001001999999001051IA1279KA1120M-00221MA1999999089281MD1210051+9999ME1314589OA149900461REMSYN112AAXX  03184 06794 32970 20802 11078 21177 38928 48458 52005 80005 333 11022 43008 82266 90766 93100 91109 91205;
0137067940999992010010319004+46350+010067FM-12+107899999V0200601N001019999999N9999999N1-00831-01571999999ADDMA1999999089291MD1310031+9999ME1314589OA149900261REMSYN076AAXX  03194 06794 33/// /0602 11083 21157 38929 48458 53003 333 91105 91203;
0137067940999992010010320004+46350+010067FM-12+107899999V0200601N001019999999N9999999N1-00921-01781999999ADDMA1999999089261MD1010011+9999ME1314549OA149900261REMSYN076AAXX  03204 06794 33/// /0602 11092 21178 38926 48454 50001 333 91105 91203;
0191067940999992010010321004+46350+010067FM-12+107899999V0200501N001012200019N0220001N1-00941-01871999999ADDGA1011+048001021GF101991001001999999001051MA1999999089261MD1710021+9999ME1314549OA149900461REMSYN088AAXX  03214 06794 32972 10502 11094 21187 38926 48454 57002 80005 333 81266 91109 91204;
0137067940999992010010322004+46350+010067FM-12+107899999V0200701N001019999999N9999999N1-01071-01631999999ADDMA1999999089251MD1710041+9999ME1314519OA149900311REMSYN076AAXX  03224 06794 33/// /0702 11107 21163 38925 48451 57004 333 91106 91204;
0137067940999992010010323004+46350+010067FM-12+107899999V0200501N002119999999N9999999N1-00961-01731999999ADDMA1999999089261MD1510001+9999ME1314549OA149900261REMSYN076AAXX  03234 06794 33/// /0504 11096 21173 38926 48454 55000 333 91105 91204;
0179067940999992010010400004+46350+010067FM-12+107899999V0200501N000512200019N0220001N1-01011-01951999999ADDGA1001+999999999GF100991001001999999001001MA1999999089211MD1710051+9999ME1314499OA149900461REMSYN076AAXX  04004 06794 32972 00501 11101 21195 38921 48449 57005 333 91109 91204;
0137067940999992010010401004+46350+010067FM-12+107899999V0200301N002119999999N9999999N1-01081-01901999999ADDMA1999999089191MD1710061+9999ME1314469OA149900311REMSYN076AAXX  04014 06794 33/// /0304 11108 21190 38919 48446 57006 333 91106 91204;
0137067940999992010010402004+46350+010067FM-12+107899999V0200501N001019999999N9999999N1-01081-01891999999ADDMA1999999089171MD1710091+9999ME1314449OA149900311REMSYN076AAXX  04024 06794 33/// /0502 11108 21189 38917 48444 57009 333 91106 91204;
0179067940999992010010403004+46350+010067FM-12+107899999V0200501N001012200019N0220001N1-01001-01851999999ADDGA1001+999999999GF100991001001999999001001MA1999999089081MD1719999+9999ME1314389OA149900311REMSYN076AAXX  04034 06794 32972 00502 11100 21185 38908 48438 57/// 333 91106 91204;
0137067940999992010010404004+46350+010067FM-12+107899999V0209999C000019999999N9999999N1-00741-01571999999ADDMA1999999089031MD1810161+9999ME1314379OA149900261REMSYN076AAXX  04044 06794 33/// /0000 11074 21157 38903 48437 58016 333 91105 91203;
0137067940999992010010405004+46350+010067FM-12+107899999V0200501N001019999999N9999999N1-00731-01381999999ADDMA1999999089001MD1610171+9999ME1314359OA149900261REMSYN076AAXX  04054 06794 33/// /0502 11073 21138 38900 48435 56017 333 91105 91203;
0329067940999992010010406004+46350+010067FM-12+107899999V0200601N000510450019N0220001N1-00711-01471999999ADDAA124000091AJ100089199999999AL19900091GA1071+045001041GF107991071001999999011001GJ102769IA1309IA2999-01209KA1999N-01181MA1999999088981MD1710101+9999ME1314339OA149900311REMSYN130AAXX  04064 06794 32972 70601 11071 21147 38898 48433 57010 87010 333 21118 3/112 42008 55046 70000 87465 90768 93100 91106 91204;EQDQ01  00002PRCP24
0137067940999992010010407004+46350+010067FM-12+107899999V0200701N000519999999N9999999N1-00631-01511999999ADDMA1999999088951MD1710081+9999ME1314329OA149900151REMSYN076AAXX  04074 06794 33/// /0701 11063 21151 38895 48432 57008 333 91103 91203;
0137067940999992010010408004+46350+010067FM-12+107899999V0209999C000019999999N9999999N1-00591-01261999999ADDMA1999999088961MD1710041+9999ME1314339OA149900151REMSYN076AAXX  04084 06794 33/// /0000 11059 21126 38896 48433 57004 333 91103 91203;
0137067940999992010010409004+46350+010067FM-12+107899999V0200301N001019999999N9999999N1-00571-01161999999ADDMA1999999088991MD1310011+9999ME1314369OA149900261REMSYN076AAXX  04094 06794 33/// /0302 11057 21116 38899 48436 53001 333 91105 91203;
0137067940999992010010410004+46350+010067FM-12+107899999V0202001N001019999999N9999999N1-00441-01391999999ADDMA1999999089001MD1210051+9999ME1314399OA149900261REMSYN076AAXX  04104 06794 33/// /2002 11044 21139 38900 48439 52005 333 91105 91202;
0137067940999992010010411004+46350+010067FM-12+107899999V0202201N002619999999N9999999N1-00421-01871999999ADDMA1999999088911MD1810051+9999ME1314319OA149900361REMSYN076AAXX  04114 06794 33/// /2205 11042 21187 38891 48431 58005 333 91107 91205;
0191067940999992010010412004+46350+010067FM-12+107899999V0202301N001510390019N0200001N1-00421-01621999999ADDGA1071+039001041GF107991071001999999011999MA1999999088841MD1710151+9999ME1314259OA149900361REMSYN088AAXX  04124 06794 32970 72303 11042 21162 38884 48425 57015 8701/ 333 87463 91107 91205;
0137067940999992010010413004+46350+010067FM-12+107899999V0202301N002119999999N9999999N1-00381-01551999999ADDMA1999999088761MD1810241+9999ME1314189OA149900361REMSYN076AAXX  04134 06794 33/// /2304 11038 21155 38876 48418 58024 333 91107 91204;
0137067940999992010010414004+46350+010067FM-12+107899999V0201901N001519999999N9999999N1-00381-01921999999ADDMA1999999088691MD1719999+9999ME1314129OA149900411REMSYN076AAXX  04144 06794 33/// /1903 11038 21192 38869 48412 57/// 333 91108 91205;
0191067940999992010010415004+46350+010067FM-12+107899999V0201501N000512200019N0200001N1-00461-01661999999ADDGA1041+033001031GF104991041001999999031001MA1999999088701MD1710141+9999ME1314129OA149900411REMSYN088AAXX  04154 06794 32970 41501 11046 21166 38870 48412 57014 84030 333 84361 91108 91205;
0137067940999992010010416004+46350+010067FM-12+107899999V0202301N000519999999N9999999N1-00491-01611999999ADDMA1999999088701MD1710061+9999ME1314129OA149900311REMSYN076AAXX  04164 06794 33/// /2301 11049 21161 38870 48412 57006 333 91106 91203;
0137067940999992010010417004+46350+010067FM-12+107899999V0201701N000519999999N9999999N1-00521-01401999999ADDMA1999999088671MD1810021+9999ME1314099OA149900151REMSYN076AAXX  04174 06794 33/// /1701 11052 21140 38867 48409 58002 333 91103 91202;
0261067940999992010010418004+46350+010067FM-12+107899999V0202401N001012200019N0200001N1-00611-01231999999ADDAJ100089199999999AL19900091GA1031+033001031GF103991031001999999051999IA1309KA1120M-00361MA1999999088651MD1710051+9999ME1314069OA149900411REMSYN112AAXX  04184 06794 32970 32402 11061 21123 38865 48406 57005 8305/ 333 11036 42008 83361 90766 93100 91108 91205;
0137067940999992010010419004+46350+010067FM-12+107899999V0200401N001019999999N9999999N1-00721-01181999999ADDMA1999999088611MD1710091+9999ME1314019OA149900261REMSYN076AAXX  04194 06794 33/// /0402 11072 21118 38861 48401 57009 333 91105 91203;
0137067940999992010010420004+46350+010067FM-12+107899999V0200401N000519999999N9999999N1-00621-01481999999ADDMA1999999088611MD1710061+9999ME1314029OA149900261REMSYN076AAXX  04204 06794 33/// /0401 11062 21148 38861 48402 57006 333 91105 91203;
0191067940999992010010421004+46350+010067FM-12+107899999V0202001N001010240019N0150001N1-00581-01461999999ADDGA1081+024001041GF108991081001022501011999MA1999999088571MD1710081+9999ME1313999OA149900261REMSYN088AAXX  04214 06794 32865 82002 11058 21146 38857 48399 57008 8801/ 333 88458 91105 91203;
0137067940999992010010422004+46350+010067FM-12+107899999V0200201N001519999999N9999999N1-00571-01271999999ADDMA1999999088541MD1710071+9999ME1313979OA149900361REMSYN076AAXX  04224 06794 33/// /0203 11057 21127 38854 48397 57007 333 91107 91204;
0137067940999992010010423004+46350+010067FM-12+107899999V0200401N001019999999N9999999N1-00561-01281999999ADDMA1999999088521MD1710091+9999ME1313959OA149900361REMSYN076AAXX  04234 06794 33/// /0402 11056 21128 38852 48395 57009 333 91107 91204;
0191067940999992010010500004+46350+010067FM-12+107899999V0201801N000510240019N0150001N1-00561-01201999999ADDGA1081+024001041GF108991081001022501011999MA1999999088501MD1710071+9999ME1313939OA149900411REMSYN088AAXX  05004 06794 32865 81801 11056 21120 38850 48393 57007 8801/ 333 88458 91108 91205;
0137067940999992010010501004+46350+010067FM-12+107899999V0200401N001019999999N9999999N1-00721-01121999999ADDMA1999999088441MD1810101+9999ME1313869OA149900211REMSYN076AAXX  05014 06794 33/// /0402 11072 21112 38844 48386 58010 333 91104 91203;
0137067940999992010010502004+46350+010067FM-12+107899999V0200501N001019999999N9999999N1-00781-01201999999ADDMA1999999088411MD1710111+9999ME1313839OA149900211REMSYN076AAXX  05024 06794 33/// /0502 11078 21120 38841 48383 57011 333 91104 91203;
0179067940999992010010503004+46350+010067FM-12+107899999V0209999C000012200019N0180001N1-00871-01231999999ADDGA1001+999999999GF100991001001999999001001MA1999999088341MD1710161+9999ME1313769OA149900361REMSYN076AAXX  05034 06794 32968 00000 11087 21123 38834 48376 57016 333 91107 91205;
0137067940999992010010504004+46350+010067FM-12+107899999V0200501N001519999999N9999999N1-00901-01221999999ADDMA1999999088281MD1710161+9999ME1313709OA149900311REMSYN076AAXX  05044 06794 33/// /0503 11090 21122 38828 48370 57016 333 91106 91205;
0137067940999992010010505004+46350+010067FM-12+107899999V0200601N000519999999N9999999N1-00841-01421999999ADDMA1999999088201MD1810211+9999ME1313649OA149900311REMSYN076AAXX  05054 06794 33/// /0601 11084 21142 38820 48364 58021 333 91106 91205;
0329067940999992010010506004+46350+010067FM-12+107899999V0200501N001012200019N0200001N1-00861-01481999999ADDAA124000091AJ100089199999999AL19900091GA1021+045001041GF102991021001999999011001GJ102229IA1309IA2999-01009KA1999N-00951MA1999999088211MD1710131+9999ME1313649OA149900361REMSYN130AAXX  05064 06794 32970 20502 11086 21148 38821 48364 57013 82010 333 21095 3/110 42008 55037 70000 82465 90768 93100 91107 91205;EQDQ01  00002PRCP24
0137067940999992010010507004+46350+010067FM-12+107899999V0203201N000519999999N9999999N1-00871-01201999999ADDMA1999999088191MD1710091+9999ME1313629OA149900261REMSYN076AAXX  05074 06794 33/// /3201 11087 21120 38819 48362 57009 333 91105 91204;
0137067940999992010010508004+46350+010067FM-12+107899999V0200201N000519999999N9999999N1-00861-01441999999ADDMA1999999088191MD1510011+9999ME1313639OA149900361REMSYN076AAXX  05084 06794 33/// /0201 11086 21144 38819 48363 55001 333 91107 91206;
0191067940999992010010509004+46350+010067FM-12+107899999V0200501N001010450019N0200001N1-00701-01151999999ADDGA1081+045001041GF108991081001999999031999MA1999999088171MD1810041+9999ME1313639OA149900361REMSYN088AAXX  05094 06794 32970 80502 11070 21115 38817 48363 58004 8803/ 333 88465 91107 91206;
0137067940999992010010510004+46350+010067FM-12+107899999V0200601N001019999999N9999999N1-00431-01451999999ADDMA1999999088111MD1810081+9999ME1313609OA149900151REMSYN076AAXX  05104 06794 33/// /0602 11043 21145 38811 48360 58008 333 91103 91203;
0137067940999992010010511004+46350+010067FM-12+107899999V0202201N000519999999N9999999N1-00371-01171999999ADDMA1999999088011MD1810181+9999ME1313529OA149900151REMSYN076AAXX  05114 06794 33/// /2201 11037 21117 38801 48352 58018 333 91103 91202;
0191067940999992010010512004+46350+010067FM-12+107899999V0201901N000510540019N0200001N1-00251-01111999999ADDGA1051+054001021GF105991001001999999001061MA1999999087911MD1810261+9999ME1313449OA149900361REMSYN088AAXX  05124 06794 32970 51901 11025 21111 38791 48344 58026 80006 333 85268 91107 91206;
0137067940999992010010513004+46350+010067FM-12+107899999V0202401N001019999999N9999999N1-00261-01261999999ADDMA1999999087871MD1610241+9999ME1313419OA149900151REMSYN076AAXX  05134 06794 33/// /2402 11026 21126 38787 48341 56024 333 91103 91202;
0096067940999992010010514004+46350+010067FM-12+107899999V0202001N001019999999N9999999N1-00261-01201999999ADDMA1999999087841ME1313389REMSYN060AAXX  05144 06794 33/// /2002 11026 21120 38784 48338 5////;
0175067940999992010010515004+46350+010067FM-12+107899999V0201201N000512200019N0200001N1-00401-00981999999ADDGF103991001001999999001051MA1999999087801MD1710111+9999ME1313339OA149900151REMSYN088AAXX  05154 06794 32970 31201 11040 21098 38780 48333 57011 80005 333 83268 91103 91202;
0137067940999992010010516004+46350+010067FM-12+107899999V0200401N001519999999N9999999N1-00551-01121999999ADDMA1999999087771MD1710101+9999ME1313299OA149900211REMSYN076AAXX  05164 06794 33/// /0403 11055 21112 38777 48329 57010 333 91104 91203;
0137067940999992010010517004+46350+010067FM-12+107899999V0200501N001519999999N9999999N1-00631-01141999999ADDMA1999999087761MD1710081+9999ME1313279OA149900211REMSYN076AAXX  05174 06794 33/// /0503 11063 21114 38776 48327 57008 333 91104 91203;
0261067940999992010010518004+46350+010067FM-12+107899999V0200501N001510540019N0200001N1-00681-01171999999ADDAJ100089199999999AL19900091GA1051+054001021GF105991001001999999001061IA1279KA1120M-00211MA1999999087711MD1710091+9999ME1313229OA149900361REMSYN112AAXX  05184 06794 32970 50503 11068 21117 38771 48322 57009 80006 333 11021 43008 85268 90766 93100 91107 91206;
0137067940999992010010519004+46350+010067FM-12+107899999V0202201N000519999999N9999999N1-00591-00931999999ADDMA1999999087691MD1710081+9999ME1313219OA149900261REMSYN076AAXX  05194 06794 33/// /2201 11059 21093 38769 48321 57008 333 91105 91204;
0137067940999992010010520004+46350+010067FM-12+107899999V0200301N000519999999N9999999N1-00671-00991999999ADDMA1999999087631MD1710131+9999ME1313159OA149900261REMSYN076AAXX  05204 06794 33/// /0301 11067 21099 38763 48315 57013 333 91105 91204;
0213067940999992010010521004+46350+010067FM-12+107899999V0200601N001010480019N0180001N1-00721-01041999999ADDGA1061+048001021GA2061+048001021GF106991001001999999001061MA1999999087601MD1710111+9999ME1313129OA149900261REMSYN094AAXX  05214 06794 32968 60602 11072 21104 38760 48312 57011 80006 333 86266 86266 91105 91204;
0137067940999992010010522004+46350+010067FM-12+107899999V0200501N000519999999N9999999N1-00691-01031999999ADDMA1999999087541MD1710151+9999ME1313079OA149900211REMSYN076AAXX  05224 06794 33/// /0501 11069 21103 38754 48307 57015 333 91104 91203;
0137067940999992010010523004+46350+010067FM-12+107899999V0200501N001019999999N9999999N1-00611-00941999999ADDMA1999999087481MD1710151+9999ME1313029OA149900211REMSYN076AAXX  05234 06794 33/// /0502 11061 21094 38748 48302 57015 333 91104 91203;
0213067940999992010010600004+46350+010067FM-12+107899999V0200601N000512200019N0180001N1-00611-00951999999ADDGA1031+048001021GA2031+048001021GF103991001001999999001061MA1999999087431MD1810171+9999ME1312989OA149900261REMSYN094AAXX  06004 06794 32968 30601 11061 21095 38743 48298 58017 80006 333 83266 83266 91105 91204;
0137067940999992010010601004+46350+010067FM-12+107899999V0200301N002119999999N9999999N1-00491-00841999999ADDMA1999999087381MD1610161+9999ME1312949OA149900311REMSYN076AAXX  06014 06794 33/// /0304 11049 21084 38738 48294 56016 333 91106 91204;
0137067940999992010010602004+46350+010067FM-12+107899999V0200501N000519999999N9999999N1-00621-00891999999ADDMA1999999087361MD1710121+9999ME1312929OA149900311REMSYN076AAXX  06024 06794 33/// /0501 11062 21089 38736 48292 57012 333 91106 91204;
0213067940999992010010603004+46350+010067FM-12+107899999V0200501N001012200019N0180001N1-00711-00891999999ADDGA1041+027001031GA2041+027001031GF104991041001999999061001MA1999999087351MD1710081+9999ME1312909OA149900311REMSYN094AAXX  06034 06794 32968 40502 11071 21089 38735 48290 57008 84060 333 84359 84359 91106 91204;
0137067940999992010010604004+46350+010067FM-12+107899999V0200701N001019999999N9999999N1-00611-00901999999ADDMA1999999087311MD1710071+9999ME1312879OA149900261REMSYN076AAXX  06044 06794 33/// /0702 11061 21090 38731 48287 57007 333 91105 91202;
0137067940999992010010605004+46350+010067FM-12+107899999V0200701N000519999999N9999999N1-00641-00901999999ADDMA1999999087321MD1710041+9999ME1312889OA149900261REMSYN076AAXX  06054 06794 33/// /0701 11064 21090 38732 48288 57004 333 91105 91203;
0329067940999992010010606004+46350+010067FM-12+107899999V0200501N001012200019N0180001N1-00621-00911999999ADDAA124000091AJ100089199999999AL19900091GA1021+048001021GF102991001001999999001061GJ102229IA1309IA2999-00909KA1999N-00721MA1999999087331MD1510021+9999ME1312899OA149900311REMSYN130AAXX  06064 06794 32968 20502 11062 21091 38733 48289 55002 80006 333 21072 3/109 42008 55037 70000 82266 90768 93100 91106 91204;EQDQ01  00002PRCP24
0137067940999992010010607004+46350+010067FM-12+107899999V0200601N000519999999N9999999N1-00641-00911999999ADDMA1999999087341MD1210031+9999ME1312909OA149900311REMSYN076AAXX  06074 06794 33/// /0601 11064 21091 38734 48290 52003 333 91106 91204;
0137067940999992010010608004+46350+010067FM-12+107899999V0200501N001019999999N9999999N1-00571-00831999999ADDMA1999999087351MD1210031+9999ME1312919OA149900211REMSYN076AAXX  06084 06794 33/// /0502 11057 21083 38735 48291 52003 333 91104 91203;
0191067940999992010010609004+46350+010067FM-12+107899999V0201001N000510480019N0180001N1-00501-00861999999ADDGA1071+048001031GF107991071001999999051001MA1999999087401MD1210071+9999ME1312969OA149900311REMSYN088AAXX  06094 06794 32968 71001 11050 21086 38740 48296 52007 87050 333 87366 91106 91204;
0137067940999992010010610004+46350+010067FM-12+107899999V0209999C000019999999N9999999N1-00351-00751999999ADDMA1999999087431MD1210091+9999ME1313009OA149900151REMSYN076AAXX  06104 06794 33/// /0000 11035 21075 38743 48300 52009 333 91103 91202;
0137067940999992010010611004+46350+010067FM-12+107899999V0202201N001519999999N9999999N1-00111-00741999999ADDMA1999999087431MD1219999+9999ME1313029OA149900211REMSYN076AAXX  06114 06794 33/// /2203 11011 21074 38743 48302 52/// 333 91104 91203;
0191067940999992010010612004+46350+010067FM-12+107899999V0202001N001010330019N0180001N1+00011-00811999999ADDGA1071+033001031GF107991071001999999031999MA1999999087411MD1010011+9999ME1313019OA149900311REMSYN088AAXX  06124 06794 32968 72002 10001 21081 38741 48301 50001 8703/ 333 87361 91106 91204;
0137067940999992010010613004+46350+010067FM-12+107899999V0202101N000519999999N9999999N1-00021-00781999999ADDMA1999999087411MD1710021+9999ME1313019OA149900211REMSYN076AAXX  06134 06794 33/// /2101 11002 21078 38741 48301 57002 333 91104 91202;
0137067940999992010010614004+46350+010067FM-12+107899999V0201901N001519999999N9999999N1+00121-00811999999ADDMA1999999087411MD1519999+9999ME1313029OA149900261REMSYN076AAXX  06144 06794 33/// /1903 10012 21081 38741 48302 55/// 333 91105 91203;
0191067940999992010010615004+46350+010067FM-12+107899999V0202601N001012200019N0200001N1-00101-00701999999ADDGA1041+018001031GF104991041001017501081001MA1999999087461MD1219999+9999ME1313059OA149900261REMSYN088AAXX  06154 06794 32770 42602 11010 21070 38746 48305 52/// 84080 333 84356 91105 91203;
0137067940999992010010616004+46350+010067FM-12+107899999V0200701N001019999999N9999999N1-00251-00611999999ADDMA1999999087551MD1310141+9999ME1313129OA149900211REMSYN076AAXX  06164 06794 33/// /0702 11025 21061 38755 48312 53014 333 91104 91203;
0137067940999992010010617004+46350+010067FM-12+107899999V0200701N000519999999N9999999N1-00301-00651999999ADDMA1999999087591MD1210181+9999ME1313159OA149900151REMSYN076AAXX  06174 06794 33/// /0701 11030 21065 38759 48315 52018 333 91103 91202;
0261067940999992010010618004+46350+010067FM-12+107899999V0200501N001512200019N0180001N1-00421-00691999999ADDAJ100089199999999AL19900091GA1041+018001031GF104991041001017501081999IA1279KA1120M+00121MA1999999087661MD1119999+9999ME1313209OA149900261REMSYN112AAXX  06184 06794 32768 40503 11042 21069 38766 48320 51/// 8408/ 333 10012 43008 84356 90766 93100 91105 91203;
0137067940999992010010619004+46350+010067FM-12+107899999V0200601N001019999999N9999999N1-00421-00701999999ADDMA1999999087701MD1110151+9999ME1313249OA149900261REMSYN076AAXX  06194 06794 33/// /0602 11042 21070 38770 48324 51015 333 91105 91204;
0137067940999992010010620004+46350+010067FM-12+107899999V0200601N001019999999N9999999N1-00401-00711999999ADDMA1999999087751MD1110161+9999ME1313289OA149900261REMSYN076AAXX  06204 06794 33/// /0602 11040 21071 38775 48328 51016 333 91105 91204;
0191067940999992010010621004+46350+010067FM-12+107899999V0209999C000010180019N0150001N1-00311-00701999999ADDGA1081+018001041GF108991081001017501011999MA1999999087761MD1210101+9999ME1313309OA149900261REMSYN088AAXX  06214 06794 32765 80000 11031 21070 38776 48330 52010 8801/ 333 88456 91105 91204;
0137067940999992010010622004+46350+010067FM-12+107899999V0200401N001019999999N9999999N1-00401-00661999999ADDMA1999999087791MD1210091+9999ME1313329OA149900211REMSYN076AAXX  06224 06794 33/// /0402 11040 21066 38779 48332 52009 333 91104 91203;
0137067940999992010010623004+46350+010067FM-12+107899999V0200501N000519999999N9999999N1-00321-00681999999ADDMA1999999087761MD1010011+9999ME1313309OA149900261REMSYN076AAXX  06234 06794 33/// /0501 11032 21068 38776 48330 50001 333 91105 91203;
0137067940999992010010700004+46350+010067FM-12+107899999V0201501N000519999999N9999999N1-00251-00691999999ADDMA1999999087781MD1010021+9999ME1313339OA149900261REMSYN076AAXX  07004 06794 33/// /1501 11025 21069 38778 48333 50002 333 91105 91204;
0137067940999992010010701004+46350+010067FM-12+107899999V0202501N000519999999N9999999N1-00321-00621999999ADDMA1999999087781MD1510011+9999ME1313329OA149900261REMSYN076AAXX  07014 06794 33/// /2501 11032 21062 38778 48332 55001 333 91105 91203;
0137067940999992010010702004+46350+010067FM-12+107899999V0202001N000519999999N9999999N1-00281-00571999999ADDMA1999999087851MD1219999+9999ME1313399OA149900261REMSYN076AAXX  07024 06794 33/// /2001 11028 21057 38785 48339 52/// 333 91105 91203;
0191067940999992010010703004+46350+010067FM-12+107899999V0202601N000510180019N0150001N1-00331-00501999999ADDGA1081+018001041GF108991081001017501011999MA1999999087861MD1210081+9999ME1313399OA149900261REMSYN088AAXX  07034 06794 32765 82601 11033 21050 38786 48339 52008 8801/ 333 88456 91105 91203;
0217067940999992010010706004+46350+010067FM-12+107899999V02099999999990042019N0100001N1+99999+99999999999ADDAJ100079199999999AL10600091AY171061AY221061GA1081+004201071GF108991081061004501999999GJ100669IA1279MW1021REMSYN100AAXX  07064 06794 41460 8//// 1//// 2//// 3//// 5//// 70272 886// 333 43007 55011 88714 90768 93100;
0130067940999992010010709004+46350+010067FM-12+107899999V02099999999992200019N0200001N1+99999+99999999999ADDGA1021+005101071GF103991021061004501071001REMSYN076AAXX  07094 06794 42470 3//// 1//// 2//// 3//// 5//// 82670 333 82717 83350;
0108067940999992010010712004+46350+010067FM-12+107899999V02099999999992200019N0200001N1+99999+99999999999ADDGA1001+999999999GF100991001001999999001001REMSYN054AAXX  07124 06794 42970 0//// 1//// 2//// 3//// 5////;
0130067940999992010010715004+46350+010067FM-12+107899999V0209999999999090001CN0180001N1+99999+99999999999ADDGA1041+024001041GF107991041001022501011091REMSYN076AAXX  07154 06794 42868 7//// 1//// 2//// 3//// 5//// 84019 333 84458 87165;
0137067940999992010010716004+46350+010067FM-12+107899999V0200701N000519999999N9999999N1-00201-00661999999ADDMA1999999088381MD1319999+9999ME1313879OA149900151REMSYN076AAXX  07164 06794 33/// /0701 11020 21066 38838 48387 53/// 333 91103 91202;
0137067940999992010010717004+46350+010067FM-12+107899999V0200501N001019999999N9999999N1-00251-00651999999ADDMA1999999088451MD1319999+9999ME1313929OA149900151REMSYN076AAXX  07174 06794 33/// /0502 11025 21065 38845 48392 53/// 333 91103 91202;
0261067940999992010010718004+46350+010067FM-12+107899999V0200501N001010240019N0170001N1-00331-00621999999ADDAJ100079199999999AL19900091GA1081+024001041GF108991081001022501021999IA1279KA1120M+00021MA1999999088511MD1119999+9999ME1313979OA149900311REMSYN112AAXX  07184 06794 32867 80502 11033 21062 38851 48397 51/// 8802/ 333 10002 43007 88458 90766 93100 91106 91205;
0137067940999992010010719004+46350+010067FM-12+107899999V0200601N001019999999N9999999N1-00351-00601999999ADDMA1999999088501MD1210121+9999ME1313969OA149900151REMSYN076AAXX  07194 06794 33/// /0602 11035 21060 38850 48396 52012 333 91103 91202;
0137067940999992010010720004+46350+010067FM-12+107899999V0200601N001519999999N9999999N1-00271-00681999999ADDMA1999999088501MD1010051+9999ME1313979OA149900211REMSYN076AAXX  07204 06794 33/// /0603 11027 21068 38850 48397 50005 333 91104 91203;
0191067940999992010010721004+46350+010067FM-12+107899999V0202301N001010210019N0150001N1-00211-00681999999ADDGA1081+021001041GF108991081001022501021999MA1999999088531MD1210021+9999ME1314009OA149900211REMSYN088AAXX  07214 06794 32865 82302 11021 21068 38853 48400 52002 8802/ 333 88457 91104 91203;
0137067940999992010010722004+46350+010067FM-12+107899999V0200301N002119999999N9999999N1-00221-00701999999ADDMA1999999088561MD1210061+9999ME1314039OA149900311REMSYN076AAXX  07224 06794 33/// /0304 11022 21070 38856 48403 52006 333 91106 91204;
0137067940999992010010723004+46350+010067FM-12+107899999V0200301N001519999999N9999999N1-00161-00701999999ADDMA1999999088481MD1810021+9999ME1313969OA149900411REMSYN076AAXX  07234 06794 33/// /0303 11016 21070 38848 48396 58002 333 91108 91205;
0191067940999992010010800004+46350+010067FM-12+107899999V0200401N001510180019N0150001N1-00201-00611999999ADDGA1081+018001041GF108991081001017501011999MA1999999088441MD1710091+9999ME1313929OA149900411REMSYN088AAXX  08004 06794 32765 80403 11020 21061 38844 48392 57009 8801/ 333 88456 91108 91205;
0154067940999992010010801004+46350+010067FM-12+107899999V0209999C000019999999N9999999N1-00321-00411999999ADDAA101000021MA1999999088361MD1610201+9999ME1313849OA149900361REMSYN082AAXX  08014 06794 23/// /0000 11032 21041 38836 48384 56020 333 69915 91107 91204;
0154067940999992010010802004+46350+010067FM-12+107899999V0200501N001019999999N9999999N1-00331-00421999999ADDAA101000591MA1999999088301MD1619999+9999ME1313789OA149900261REMSYN082AAXX  08024 06794 23/// /0502 11033 21042 38830 48378 56/// 333 69965 91105 91203;
0236067940999992010010803004+46350+010067FM-12+107899999V0209999C000010150019N0050001N1-00331-00381999999ADDAA101000891AY171031AY221031GA1081+015001041GF108991081001017501021999MA1999999088191MD1819999+9999ME1313689MW1711OA149900411REMSYN100AAXX  08034 06794 21750 80000 11033 21038 38819 48368 58/// 77172 8802/ 333 69975 88450 91108 91205;
0154067940999992010010804004+46350+010067FM-12+107899999V0200501N000519999999N9999999N1-00311-00381999999ADDAA101001091MA1999999088131MD1810231+9999ME1313639OA149900151REMSYN082AAXX  08044 06794 23/// /0501 11031 21038 38813 48363 58023 333 69995 91103 91202;
0154067940999992010010805004+46350+010067FM-12+107899999V0200501N000519999999N9999999N1-00231-00301999999ADDAA101002091MA1999999088051MD1610251+9999ME1313579OA149900151REMSYN082AAXX  08054 06794 23/// /0501 11023 21030 38805 48357 56025 333 60025 91103 91202;
0371067940999992010010806004+46350+010067FM-12+107899999V0200301N000510033019N0030001N1-00241-00281999999ADDAA112006192AA224005392AJ100219199999999AL12400591AL29901491AY171061AY271061GA1081+003301051GF108991081001004501021999GJ101629IA1239IA2999-00409KA1999N-00351MA1999999088021MD1610171+9999ME1313549MW1731OA149900411REMSYN148AAXX  08064 06794 01430 80301 11024 21028 38802 48354 56017 60062 77377 8802/ 333 21035 3/104 47021 55027 60025 70054 88511 90768 93114 91108 91205;
0154067940999992010010807004+46350+010067FM-12+107899999V0200401N000519999999N9999999N1-00191-00231999999ADDAA101002091MA1999999087971MD1610161+9999ME1313509OA149900211REMSYN082AAXX  08074 06794 23/// /0401 11019 21023 38797 48350 56016 333 60025 91104 91203;
0154067940999992010010808004+46350+010067FM-12+107899999V0209999C000019999999N9999999N1-00141-00181999999ADDAA101001091MA1999999087931MD1810121+9999ME1313479OA149900211REMSYN082AAXX  08084 06794 23/// /0000 11014 21018 38793 48347 58012 333 69995 91104 91203;
0236067940999992010010809004+46350+010067FM-12+107899999V0200601N000510033019N0020001N1-00061-00111999999ADDAA101001091AY171031AY221031GA1081+003301051GF108991081001004501021999MA1999999087891MD1710131+9999ME1313449MW1731OA149900261REMSYN100AAXX  08094 06794 21420 80601 11006 21011 38789 48344 57013 77372 8802/ 333 60015 88511 91105 91203;
0154067940999992010010810004+46350+010067FM-12+107899999V0209999C000019999999N9999999N1-00021-00061999999ADDAA101000891MA1999999087881MD1710091+9999ME1313449OA149900261REMSYN082AAXX  08104 06794 23/// /0000 11002 21006 38788 48344 57009 333 69985 91105 91203;
0154067940999992010010811004+46350+010067FM-12+107899999V0209999C000019999999N9999999N1+00041+00011999999ADDAA101001091MA1999999087781MD1710151+9999ME1313359OA149900101REMSYN082AAXX  08114 06794 23/// /0000 10004 20001 38778 48335 57015 333 60015 91102 91201;
0242067940999992010010812004+46350+010067FM-12+107899999V0200501N000510033019N0050001N1+00081+00031999999ADDAA106006191AY161061AY221061GA1081+003301051GF108991081001004501021999MA1999999087661MD1810231+9999ME1313259MW1511OA149900261REMSYN106AAXX  08124 06794 01450 80501 10008 20003 38766 48325 58023 60061 75162 8802/ 333 69975 88511 91105 91203;
0154067940999992010010813004+46350+010067FM-12+107899999V0200201N001519999999N9999999N1+00191+00091999999ADDAA101000021MA1999999087541MD1710341+9999ME1313159OA149900311REMSYN082AAXX  08134 06794 23/// /0203 10019 20009 38754 48315 57034 333 69925 91106 91203;
0143067940999992010010814004+46350+010067FM-12+107899999V0209999C000019999999N9999999N1+00111+00071999999ADDMA1999999087481MD1719999+9999ME1313099OA149900311REMSYN082AAXX  08144 06794 33/// /0000 10011 20007 38748 48309 57/// 91340 333 91106 91203;
0137067940999992010010815004+46350+010067FM-12+107899999V0200501N001019999999N9999999N1+00111+00071999999ADDMA1999999087431MD1610231+9999ME1313049OA149900311REMSYN076AAXX  08154 06794 33/// /0502 10011 20007 38743 48304 56023 333 91106 91203;
0137067940999992010010816004+46350+010067FM-12+107899999V0200401N001019999999N9999999N1+00111+00061999999ADDMA1999999087411MD1610131+9999ME1313029OA149900211REMSYN076AAXX  08164 06794 33/// /0402 10011 20006 38741 48302 56013 333 91104 91202;
0154067940999992010010817004+46350+010067FM-12+107899999V0200601N000519999999N9999999N1+00101+00061999999ADDAA101000021MA1999999087421MD1710061+9999ME1313039OA149900211REMSYN082AAXX  08174 06794 23/// /0601 10010 20006 38742 48303 57006 333 69925 91104 91203;
0312067940999992010010818004+46350+010067FM-12+107899999V0201801N000510033019N0050001N1+00111+00081999999ADDAA112007991AJ100309199999999AL11200991AY161061AY221061GA1081+003301051GF108991081001004501021999IA1279KA1120M+00191MA1999999087491MD1310061+9999ME1313109MW1611OA149900311REMSYN130AAXX  08184 06794 01450 81801 10011 20008 38749 48310 53006 60082 76162 8802/ 333 10019 43030 60025 88511 90766 93109 91106 91203;
0154067940999992010010819004+46350+010067FM-12+107899999V0209999C000019999999N9999999N1+00031+00011999999ADDAA101002091MA1999999087541MD1210131+9999ME1313139OA149900151REMSYN082AAXX  08194 06794 23/// /0000 10003 20001 38754 48313 52013 333 60025 91103 91201;
0154067940999992010010820004+46350+010067FM-12+107899999V0202301N001019999999N9999999N1+00021+00001999999ADDAA101000591MA1999999087541MD1210121+9999ME1313139OA149900151REMSYN082AAXX  08204 06794 23/// /2302 10002 20000 38754 48313 52012 333 69955 91103 91202;
0154067940999992010010821004+46350+010067FM-12+107899999V0202201N001019999999N9999999N1+00001-00031999999ADDAA101000591MA1999999087571MD1210081+9999ME1313169OA149900211REMSYN082AAXX  08214 06794 23/// /2202 10000 21003 38757 48316 52008 333 69955 91104 91203;
0154067940999992010010822004+46350+010067FM-12+107899999V0202201N000519999999N9999999N1-00041-00071999999ADDAA101000021MA1999999087621MD1210081+9999ME1313209OA149900151REMSYN082AAXX  08224 06794 23/// /2201 11004 21007 38762 48320 52008 333 69925 91103 91202;
0154067940999992010010823004+46350+010067FM-12+107899999V0209999C000019999999N9999999N1-00011-00071999999ADDAA101000021MA1999999087621MD1210081+9999ME1313209OA149900151REMSYN082AAXX  08234 06794 23/// /0000 11001 21007 38762 48320 52008 333 69915 91103 91202;
0242067940999992010010900004+46350+010067FM-12+107899999V0201501N000510033019N0050001N1-00041-00081999999ADDAA106003091AY171061AY221061GA1081+003301051GF108991081001004501021999MA1999999087581MD1010011+9999ME1313169MW1021OA149900311REMSYN106AAXX  09004 06794 01450 81501 11004 21008 38758 48316 50001 60031 70272 8802/ 333 60005 88511 91106 91203;
0137067940999992010010901004+46350+010067FM-12+107899999V0200901N000519999999N9999999N1-00061-00101999999ADDMA1999999087541MD1710081+9999ME1313139OA149900101REMSYN076AAXX  09014 06794 33/// /0901 11006 21010 38754 48313 57008 333 91102 91201;
0137067940999992010010902004+46350+010067FM-12+107899999V0200601N000519999999N9999999N1-00041-00101999999ADDMA1999999087581MD1519999+9999ME1313169OA149900151REMSYN076AAXX  09024 06794 33/// /0601 11004 21010 38758 48316 55/// 333 91103 91202;
0191067940999992010010903004+46350+010067FM-12+107899999V0200601N000510033019N0150001N1-00021-00051999999ADDGA1081+003301051GF108991081001004501021999MA1999999087581MD1019999+9999ME1313179OA149900151REMSYN088AAXX  09034 06794 32465 80601 11002 21005 38758 48317 50/// 8802/ 333 88511 91103 91202;
0137067940999992010010904004+46350+010067FM-12+107899999V0209999C000019999999N9999999N1-00171-00191999999ADDMA1999999087471MD1810071+9999ME1313059OA149900151REMSYN076AAXX  09044 06794 33/// /0000 11017 21019 38747 48305 58007 333 91103 91202;
0137067940999992010010905004+46350+010067FM-12+107899999V0201701N000519999999N9999999N1-00241-00271999999ADDMA1999999087361MD1710221+9999ME1312959OA149900311REMSYN076AAXX  09054 06794 33/// /1701 11024 21027 38736 48295 57022 333 91106 91204;
0238067940999992010010906004+46350+010067FM-12+107899999V0200601N000519999999N9999999N1-00181-00231999999ADDAA112003091AA224012291AL11801291GJ100009IA2999-00609KA1999N-00261MA1999999087281MD1710301+9999ME1312889OA149900361REMSYN112AAXX  09064 06794 03/// /0601 11018 21023 38728 48288 57030 60032 333 21026 3/106 55000 60005 70123 91107 91204;
0137067940999992010010907004+46350+010067FM-12+107899999V0200501N001019999999N9999999N1-00301-00351999999ADDMA1999999087331MD1710141+9999ME1312929OA149900361REMSYN076AAXX  09074 06794 33/// /0502 11030 21035 38733 48292 57014 333 91107 91203;
0137067940999992010010908004+46350+010067FM-12+107899999V0200401N002119999999N9999999N1-00141-00221999999ADDMA1999999087311MD1510051+9999ME1312919OA149900261REMSYN076AAXX  09084 06794 33/// /0404 11014 21022 38731 48291 55005 333 91105 91204;
0191067940999992010010909004+46350+010067FM-12+107899999V0200501N000510210019N0200001N1-00041-00101999999ADDGA1071+021001031GF107991071001022501071999MA1999999087221MD1810061+9999ME1312849OA149900361REMSYN088AAXX  09094 06794 32870 70501 11004 21010 38722 48284 58006 8707/ 333 87357 91107 91204;
0137067940999992010010910004+46350+010067FM-12+107899999V0200401N001019999999N9999999N1+00011-00051999999ADDMA1999999087251MD1510081+9999ME1312879OA149900311REMSYN076AAXX  09104 06794 33/// /0402 10001 21005 38725 48287 55008 333 91106 91204;
0137067940999992010010911004+46350+010067FM-12+107899999V0200101N001019999999N9999999N1+00151+00031999999ADDMA1999999087081MD1710231+9999ME1312729OA149900311REMSYN076AAXX  09114 06794 33/// /0102 10015 20003 38708 48272 57023 333 91106 91204;
0191067940999992010010912004+46350+010067FM-12+107899999V0202701N000510141019N0200001N1+00151+00051999999ADDGA1081+014101031GF108991081001012501071999MA1999999086991MD1710231+9999ME1312649OA149900361REMSYN088AAXX  09124 06794 32670 82701 10015 20005 38699 48264 57023 8807/ 333 88347 91107 91204;
0137067940999992010010913004+46350+010067FM-12+107899999V0200901N000519999999N9999999N1+00201+00071999999ADDMA1999999086971MD1710281+9999ME1312629OA149900211REMSYN076AAXX  09134 06794 33/// /0901 10020 20007 38697 48262 57028 333 91104 91203;
0137067940999992010010914004+46350+010067FM-12+107899999V0200201N001519999999N9999999N1+00261+00121999999ADDMA1999999087031MD1510051+9999ME1312689OA149900311REMSYN076AAXX  09144 06794 33/// /0203 10026 20012 38703 48268 55005 333 91106 91204;
0191067940999992010010915004+46350+010067FM-12+107899999V0201901N000510093019N0200001N1+00161+00091999999ADDGA1081+009301051GF108991081001008001021999MA1999999087141MD1210151+9999ME1312789OA149900311REMSYN088AAXX  09154 06794 32570 81901 10016 20009 38714 48278 52015 8802/ 333 88531 91106 91204;
0137067940999992010010916004+46350+010067FM-12+107899999V0201801N000519999999N9999999N1+00191+00101999999ADDMA1999999087141MD1210171+9999ME1312789OA149900311REMSYN076AAXX  09164 06794 33/// /1801 10019 20010 38714 48278 52017 333 91106 91204;
0137067940999992010010917004+46350+010067FM-12+107899999V0203601N001019999999N9999999N1+00141+00091999999ADDMA1999999087221MD1210191+9999ME1312859OA149900311REMSYN076AAXX  09174 06794 33/// /3602 10014 20009 38722 48285 52019 333 91106 91204;
0261067940999992010010918004+46350+010067FM-12+107899999V0209999C000010033019N0120001N1+00131+00101999999ADDAJ100279199999999AL19900091GA1081+003301071GF108991081061004501999999IA1279KA1120M+00281MA1999999087281MD1210141+9999ME1312909OA149900311REMSYN112AAXX  09184 06794 32462 80000 10013 20010 38728 48290 52014 886// 333 10028 43027 88711 90766 93100 91106 91204;
0137067940999992010010919004+46350+010067FM-12+107899999V0202101N001519999999N9999999N1+00021+00021999999ADDMA1999999087381MD1310241+9999ME1312999OA149900411REMSYN076AAXX  09194 06794 33/// /2103 10002 20002 38738 48299 53024 333 91108 91205;
0154067940999992010010920004+46350+010067FM-12+107899999V0200201N001019999999N9999999N1+00041+00001999999ADDAA101000591MA1999999087461MD1310241+9999ME1313069OA149900411REMSYN082AAXX  09204 06794 23/// /0202 10004 20000 38746 48306 53024 333 69955 91108 91205;
0154067940999992010010921004+46350+010067FM-12+107899999V0200301N001019999999N9999999N1+00051+00001999999ADDAA101000591MA1999999087501MD1210221+9999ME1313109OA149900411REMSYN082AAXX  09214 06794 23/// /0302 10005 20000 38750 48310 52022 333 69955 91108 91205;
0137067940999992010010922004+46350+010067FM-12+107899999V0202401N001019999999N9999999N1+00031+00021999999ADDMA1999999087581MD1210201+9999ME1313179OA149900151REMSYN076AAXX  09224 06794 33/// /2402 10003 20002 38758 48317 52020 333 91103 91202;
0154067940999992010010923004+46350+010067FM-12+107899999V0200401N000519999999N9999999N1+00031+00001999999ADDAA101000591MA1999999087651MD1210191+9999ME1313239OA149900311REMSYN082AAXX  09234 06794 23/// /0401 10003 20000 38765 48323 52019 333 69945 91106 91203;
0242067940999992010011000004+46350+010067FM-12+107899999V0209999C000010012019N0020001N1-00011-00011999999ADDAA106002091AY171061AY221061GA1081+001201051GF108991081001001501021999MA1999999087681MD1210181+9999ME1313269MW1701OA149900411REMSYN106AAXX  10004 06794 01220 80000 11001 21001 38768 48326 52018 60021 77072 8802/ 333 69925 88504 91108 91205;
0137067940999992010011001004+46350+010067FM-12+107899999V0202401N000519999999N9999999N1-00021-00021999999ADDMA1999999087741MD1210161+9999ME1313319OA149900101REMSYN076AAXX  10014 06794 33/// /2401 11002 21002 38774 48331 52016 333 91102 91201;
0096067940999992010011002004+46350+010067FM-12+107899999V0209999C000019999999N9999999N1-00041-00041999999ADDMA1999999087791ME1313359REMSYN060AAXX  10024 06794 33/// /0000 11004 21004 38779 48335 5////;
0160067940999992010011003004+46350+010067FM-12+107899999V0202001N000510003019N0020001N1-00041-00041999999ADDGA1081+000301051GF108991081001000251021999MA1999999087811ME1313379REMSYN082AAXX  10034 06794 41020 82001 11004 21004 38781 48337 5//// 7//72 8802/ 333 88501;
0137067940999992010011004004+46350+010067FM-12+107899999V0202301N000519999999N9999999N1-00031-00031999999ADDMA1999999087861MD1210121+9999ME1313429OA149900151REMSYN076AAXX  10044 06794 33/// /2301 11003 21003 38786 48342 52012 333 91103 91202;
0154067940999992010011005004+46350+010067FM-12+107899999V0202201N000519999999N9999999N1-00061-00061999999ADDAA101000021MA1999999087891MD1210101+9999ME1313449OA149900151REMSYN082AAXX  10054 06794 23/// /2201 11006 21006 38789 48344 52010 333 69925 91103 91202;
0371067940999992010011006004+46350+010067FM-12+107899999V0202201N001510003019N0005001N1-00081-00081999999ADDAA112002091AA224002091AJ100299199999999AL19900291AL29900491AY171061AY221061GA1081+000301051GF108991081001000251021999GJ100009IA1279IA2999-00109KA1999N-00061MA1999999087951MD1110141+9999ME1313509MW1711OA149900411REMSYN148AAXX  10064 06794 01005 82203 11008 21008 38795 48350 51014 60022 77172 8802/ 333 21006 3/101 43029 55000 69925 70020 88501 90768 93104 91108 91205;
0137067940999992010011007004+46350+010067FM-12+107899999V0209999C000019999999N9999999N1-00111-00111999999ADDMA1999999088021MD1310161+9999ME1313569OA149900211REMSYN076AAXX  10074 06794 33/// /0000 11011 21011 38802 48356 53016 333 91104 91203;
0154067940999992010011008004+46350+010067FM-12+107899999V0202301N000519999999N9999999N1-00081-00081999999ADDAA101000021MA1999999088101MD1319999+9999ME1313639OA149900151REMSYN082AAXX  10084 06794 23/// /2301 11008 21008 38810 48363 53/// 333 69925 91103 91202;
0236067940999992010011009004+46350+010067FM-12+107899999V0202401N000510012019N0020001N1-00061-00101999999ADDAA101000591AY171031AY221031GA1081+001201051GF108991081001001501021999MA1999999088151MD1210201+9999ME1313689MW1731OA149900211REMSYN100AAXX  10094 06794 21220 82401 11006 21010 38815 48368 52020 77372 8802/ 333 69955 88504 91104 91203;
0137067940999992010011010004+46350+010067FM-12+107899999V0202201N000519999999N9999999N1-00071-00111999999ADDMA1999999088221MD1210201+9999ME1313749OA149900151REMSYN076AAXX  10104 06794 33/// /2201 11007 21011 38822 48374 52020 333 91103 91202;
0137067940999992010011011004+46350+010067FM-12+107899999V0202101N000519999999N9999999N1-00061-00101999999ADDMA1999999088271MD1110171+9999ME1313799OA149900151REMSYN076AAXX  10114 06794 33/// /2101 11006 21010 38827 48379 51017 333 91103 91202;
0230067940999992010011012004+46350+010067FM-12+107899999V0202301N001010003019N0004001N1-00081-00091999999ADDAA106000891AY141061AY221061GA1091+999999999GF109991091999999999999999MA1999999088271MD1210121+9999ME1313789MW1471OA149900211REMSYN094AAXX  10124 06794 01/04 92302 11008 21009 38827 48378 52012 69971 74742 333 60005 91104 91203;
0137067940999992010011013004+46350+010067FM-12+107899999V0202001N000519999999N9999999N1-00091-00111999999ADDMA1999999088271MD1210051+9999ME1313789OA149900151REMSYN076AAXX  10134 06794 33/// /2001 11009 21011 38827 48378 52005 333 91103 91203;
0137067940999992010011014004+46350+010067FM-12+107899999V0202001N000519999999N9999999N1-00031-00091999999ADDMA1999999088271MD1719999+9999ME1313799OA149900151REMSYN076AAXX  10144 06794 33/// /2001 11003 21009 38827 48379 57/// 333 91103 91202;
0207067940999992010011015004+46350+010067FM-12+107899999V0202201N001010003019N0002001N1-00061-00091999999ADDAY141031AY221031GA1091+999999999GF109991091999999999999999MA1999999088331MD1210061+9999ME1313849MW1471OA149900151REMSYN082AAXX  10154 06794 31/02 92202 11006 21009 38833 48384 52006 74742 333 91103 91203;
0137067940999992010011016004+46350+010067FM-12+107899999V0209999C000019999999N9999999N1-00091-00111999999ADDMA1999999088341MD1210071+9999ME1313859OA149900151REMSYN076AAXX  10164 06794 33/// /0000 11009 21011 38834 48385 52007 333 91103 91202;
0137067940999992010011017004+46350+010067FM-12+107899999V0209999C000019999999N9999999N1-00081-00121999999ADDMA1999999088431MD1310161+9999ME1313939OA149900101REMSYN076AAXX  10174 06794 33/// /0000 11008 21012 38843 48393 53016 333 91102 91201;
0300067940999992010011018004+46350+010067FM-12+107899999V0203101N001510003019N0005001N1-00121-00531999999ADDAA112000891AJ100299199999999AL19900091AY141061AY221061GA1091+999999999GF109991091999999999999999IA1279KA1120M-00031MA1999999088461MD1310131+9999ME1313959MW1471OA149900361REMSYN118AAXX  10184 06794 01/05 93103 11012 21053 38846 48395 53013 69972 74742 333 11003 43029 60005 90766 93100 91107 91203;
0137067940999992010011019004+46350+010067FM-12+107899999V0209999C001019999999N9999999N1-00211-00491999999ADDMA1999999088531MD1110191+9999ME1314009OA149900361REMSYN076AAXX  10194 06794 33/// /0002 11021 21049 38853 48400 51019 333 91107 91203;
0137067940999992010011020004+46350+010067FM-12+107899999V0203201N001519999999N9999999N1-00221-00721999999ADDMA1999999088571MD1110141+9999ME1314049OA149900411REMSYN076AAXX  10204 06794 33/// /3203 11022 21072 38857 48404 51014 333 91108 91204;
0137067940999992010011021004+46350+010067FM-12+107899999V0203401N000519999999N9999999N1-00311-00611999999ADDMA1999999088621MD1110161+9999ME1314079OA149900411REMSYN076AAXX  10214 06794 33/// /3401 11031 21061 38862 48407 51016 333 91108 91204;
0137067940999992010011022004+46350+010067FM-12+107899999V0200101N000519999999N9999999N1-00291-00781999999ADDMA1999999088641MD1110111+9999ME1314099OA149900311REMSYN076AAXX  10224 06794 33/// /0101 11029 21078 38864 48409 51011 333 91106 91203;
0137067940999992010011023004+46350+010067FM-12+107899999V0200201N000519999999N9999999N1-00481-00631999999ADDMA1999999088681MD1310111+9999ME1314109OA149900211REMSYN076AAXX  10234 06794 33/// /0201 11048 21063 38868 48410 53011 333 91104 91202;
0219067940999992010011100004+46350+010067FM-12+107899999V0200301N000512200019N0170001N1-00801-00901999999ADDAY141061AY211061GA1041+007201071GF104991041061008001001001MA1999999088661MD1210041+9999ME1314049MW1011OA149900411REMSYN094AAXX  11004 06794 31567 40301 11080 21090 38866 48404 52004 70141 84600 333 84724 91108 91204;
0137067940999992010011101004+46350+010067FM-12+107899999V0200301N001519999999N9999999N1-00601-00801999999ADDMA1999999088681MD1210041+9999ME1314089OA149900211REMSYN076AAXX  11014 06794 33/// /0303 11060 21080 38868 48408 52004 333 91104 91203;
0137067940999992010011102004+46350+010067FM-12+107899999V0200501N001019999999N9999999N1-00751-00871999999ADDMA1999999088681MD1519999+9999ME1314079OA149900211REMSYN076AAXX  11024 06794 33/// /0502 11075 21087 38868 48407 55/// 333 91104 91203;
0179067940999992010011103004+46350+010067FM-12+107899999V0200301N001512200019N0200001N1-00751-00891999999ADDGA1001+999999999GF100991001001999999001001MA1999999088681MD1219999+9999ME1314079OA149900211REMSYN076AAXX  11034 06794 32970 00303 11075 21089 38868 48407 52/// 333 91104 91203;
0137067940999992010011104004+46350+010067FM-12+107899999V0200401N001019999999N9999999N1-01191-01291999999ADDMA1999999088661MD1710021+9999ME1313999OA149900211REMSYN076AAXX  11044 06794 33/// /0402 11119 21129 38866 48399 57002 333 91104 91203;
0137067940999992010011105004+46350+010067FM-12+107899999V0200401N001019999999N9999999N1-01031-01331999999ADDMA1999999088671MD1010011+9999ME1314029OA149900151REMSYN076AAXX  11054 06794 33/// /0402 11103 21133 38867 48402 50001 333 91103 91203;
0215067940999992010011106004+46350+010067FM-12+107899999V0200901N000519999999N9999999N1-00991-01111999999ADDAA124000891AL14200091GJ100009IA2999-01409KA1999N-01191MA1999999088671MD1510011+9999ME1314039OA149900411REMSYN100AAXX  11064 06794 33/// /0901 11099 21111 38867 48403 55001 333 21119 3/114 55000 70007 91108 91204;
0137067940999992010011107004+46350+010067FM-12+107899999V0200601N001019999999N9999999N1-00871-01011999999ADDMA1999999088701MD1210041+9999ME1314079OA149900211REMSYN076AAXX  11074 06794 33/// /0602 11087 21101 38870 48407 52004 333 91104 91203;
0137067940999992010011108004+46350+010067FM-12+107899999V0200401N001519999999N9999999N1-00991-01321999999ADDMA1999999088751MD1319999+9999ME1314109OA149900211REMSYN076AAXX  11084 06794 33/// /0403 11099 21132 38875 48410 53/// 333 91104 91203;
0191067940999992010011109004+46350+010067FM-12+107899999V0209999C000012200019N0220001N1-00831-00951999999ADDGA1021+033001031GF102991021001999999031001MA1999999088731MD1210061+9999ME1314109OA149900211REMSYN088AAXX  11094 06794 32972 20000 11083 21095 38873 48410 52006 82030 333 82361 91104 91203;
0137067940999992010011110004+46350+010067FM-12+107899999V0200501N001019999999N9999999N1-00681-00861999999ADDMA1999999088721MD1019999+9999ME1314119OA149900211REMSYN076AAXX  11104 06794 33/// /0502 11068 21086 38872 48411 50/// 333 91104 91203;
0137067940999992010011111004+46350+010067FM-12+107899999V0202201N001019999999N9999999N1-00191-00611999999ADDMA1999999088761MD1310011+9999ME1314219OA149900211REMSYN076AAXX  11114 06794 33/// /2202 11019 21061 38876 48421 53001 333 91104 91203;
0137067940999992010011112004+46350+010067FM-12+107899999V0202001N001019999999N9999999N1-00111-00581999999ADDMA1999999088741MD1010011+9999ME1314209OA149900211REMSYN076AAXX  11124 06794 33/// /2002 11011 21058 38874 48420 50001 333 91104 91203;
0137067940999992010011113004+46350+010067FM-12+107899999V0209999C000019999999N9999999N1-00151-00581999999ADDMA1999999088701MD1810021+9999ME1314169OA149900151REMSYN076AAXX  11134 06794 33/// /0000 11015 21058 38870 48416 58002 333 91103 91202;
0096067940999992010011114004+46350+010067FM-12+107899999V0202001N000519999999N9999999N1-00141-00511999999ADDMA1999999088671ME1314139REMSYN060AAXX  11144 06794 33/// /2001 11014 21051 38867 48413 5////;
0213067940999992010011115004+46350+010067FM-12+107899999V0200501N001510300019N0180001N1-00381-00591999999ADDGA1031+008101071GA2061+030001031GF106991031061008001031999MA1999999088661MD1710081+9999ME1314109OA149900211REMSYN094AAXX  11154 06794 32568 60503 11038 21059 38866 48410 57008 8363/ 333 83727 86360 91104 91203;
0137067940999992010011116004+46350+010067FM-12+107899999V0200601N001519999999N9999999N1-00541-00661999999ADDMA1999999088681MD1510021+9999ME1314099OA149900211REMSYN076AAXX  11164 06794 33/// /0603 11054 21066 38868 48409 55002 333 91104 91203;
0137067940999992010011117004+46350+010067FM-12+107899999V0200401N001519999999N9999999N1-00471-00661999999ADDMA1999999088711MD1210041+9999ME1314139OA149900261REMSYN076AAXX  11174 06794 33/// /0403 11047 21066 38871 48413 52004 333 91105 91203;
0261067940999992010011118004+46350+010067FM-12+107899999V0200601N001010330019N0180001N1-00531-00681999999ADDAJ100249199999999AL19900091GA1071+033001041GF107991071001999999071999IA1279KA1120M-00091MA1999999088741MD1310081+9999ME1314159OA149900261REMSYN112AAXX  11184 06794 32968 70602 11053 21068 38874 48415 53008 8707/ 333 11009 43024 87461 90766 93100 91105 91203;
0137067940999992010011119004+46350+010067FM-12+107899999V0200601N000519999999N9999999N1-00511-00691999999ADDMA1999999088781MD1110101+9999ME1314189OA149900211REMSYN076AAXX  11194 06794 33/// /0601 11051 21069 38878 48418 51010 333 91104 91203;
0137067940999992010011120004+46350+010067FM-12+107899999V0200901N000519999999N9999999N1-00481-00631999999ADDMA1999999088811MD1310101+9999ME1314219OA149900211REMSYN076AAXX  11204 06794 33/// /0901 11048 21063 38881 48421 53010 333 91104 91203;
0191067940999992010011121004+46350+010067FM-12+107899999V0200801N000512200019N0150001N1-00541-00671999999ADDGA1041+033001031GF104991041001999999071001MA1999999088821MD1310081+9999ME1314229OA149900261REMSYN088AAXX  11214 06794 32965 40801 11054 21067 38882 48422 53008 84070 333 84361 91105 91203;
0137067940999992010011122004+46350+010067FM-12+107899999V0200401N002119999999N9999999N1-00601-00761999999ADDMA1999999088851MD1310071+9999ME1314239OA149900311REMSYN076AAXX  11224 06794 33/// /0404 11060 21076 38885 48423 53007 333 91106 91205;
0137067940999992010011123004+46350+010067FM-12+107899999V0200501N000519999999N9999999N1-00591-00721999999ADDMA1999999088881MD1110071+9999ME1314269OA149900311REMSYN076AAXX  11234 06794 33/// /0501 11059 21072 38888 48426 51007 333 91106 91205;
0137067940999992010011200004+46350+010067FM-12+107899999V0209999C000019999999N9999999N1-00521-00721999999ADDMA1999999088881MD1210061+9999ME1314279OA149900311REMSYN076AAXX  12004 06794 33/// /0000 11052 21072 38888 48427 52006 333 91106 91205;
0137067940999992010011201004+46350+010067FM-12+107899999V0200501N001519999999N9999999N1-00571-00711999999ADDMA1999999088871MD1010021+9999ME1314269OA149900311REMSYN076AAXX  12014 06794 33/// /0503 11057 21071 38887 48426 50002 333 91106 91204;
0137067940999992010011202004+46350+010067FM-12+107899999V0200101N000519999999N9999999N1-00601-00721999999ADDMA1999999088891MD1519999+9999ME1314279OA149900211REMSYN076AAXX  12024 06794 33/// /0101 11060 21072 38889 48427 55/// 333 91104 91203;
0191067940999992010011203004+46350+010067FM-12+107899999V0200501N001512200019N0150001N1-00651-00791999999ADDGA1031+005101071GF103991031061004501001001MA1999999088891MD1210011+9999ME1314269OA149900311REMSYN088AAXX  12034 06794 32465 30503 11065 21079 38889 48426 52001 83600 333 83717 91106 91205;
0137067940999992010011204004+46350+010067FM-12+107899999V0200501N001019999999N9999999N1-00631-00771999999ADDMA1999999088891MD1210021+9999ME1314269OA149900261REMSYN076AAXX  12044 06794 33/// /0502 11063 21077 38889 48426 52002 333 91105 91203;
0137067940999992010011205004+46350+010067FM-12+107899999V0209999C000019999999N9999999N1-00861-00991999999ADDMA1999999088911MD1210021+9999ME1314259OA149900151REMSYN076AAXX  12054 06794 33/// /0000 11086 21099 38891 48425 52002 333 91103 91203;
0329067940999992010011206004+46350+010067FM-12+107899999V0203401N000512200019N0200001N1-00801-00931999999ADDAA124000091AJ100249199999999AL19900091GA1031+039001041GF103991031001999999011001GJ100909IA1279IA2999-01109KA1999N-00861MA1999999088901MD1210011+9999ME1314259OA149900311REMSYN130AAXX  12064 06794 32970 33401 11080 21093 38890 48425 52001 83010 333 21086 3/111 43024 55015 70000 83463 90768 93100 91106 91205;EQDQ01  00002PRCP24
0137067940999992010011207004+46350+010067FM-12+107899999V0200601N001019999999N9999999N1-00801-00921999999ADDMA1999999088921MD1210031+9999ME1314279OA149900261REMSYN076AAXX  12074 06794 33/// /0602 11080 21092 38892 48427 52003 333 91105 91204;
0137067940999992010011208004+46350+010067FM-12+107899999V0200501N001019999999N9999999N1-00831-00941999999ADDMA1999999088931MD1219999+9999ME1314279OA149900261REMSYN076AAXX  12084 06794 33/// /0502 11083 21094 38893 48427 52/// 333 91105 91204;
0179067940999992010011209004+46350+010067FM-12+107899999V0200501N001012200019N0220001N1-00851-01011999999ADDGA1001+999999999GF100991001001999999001001MA1999999088921MD1010021+9999ME1314269OA149900311REMSYN076AAXX  12094 06794 32972 00502 11085 21101 38892 48426 50002 333 91106 91204;
0156067940999992010011210004+46350+010067FM-12+107899999V0200501N002119999999N9999999N1-00471-00741999999ADDMA1999999088921MD1410001+9999ME1314319OA149900311REMSYN076AAXX  12104 06794 33/// /0504 11047 21074 38892 48431 57000 333 91106 91204;EQDQ01+000072APCTEN
0137067940999992010011211004+46350+010067FM-12+107899999V0202301N001019999999N9999999N1-00181-00531999999ADDMA1999999088871MD1810061+9999ME1314319OA149900261REMSYN076AAXX  12114 06794 33/// /2302 11018 21053 38887 48431 58006 333 91105 91204;
0191067940999992010011212004+46350+010067FM-12+107899999V0201601N000510180019N0180001N1-00061-00591999999ADDGA1071+018001031GF107991071001017501071999MA1999999088821MD1710101+9999ME1314289OA149900311REMSYN088AAXX  12124 06794 32768 71601 11006 21059 38882 48428 57010 8707/ 333 87356 91106 91204;
0137067940999992010011213004+46350+010067FM-12+107899999V0201801N001019999999N9999999N1-00101-00581999999ADDMA1999999088791MD1610131+9999ME1314259OA149900311REMSYN076AAXX  12134 06794 33/// /1802 11010 21058 38879 48425 56013 333 91106 91203;
0096067940999992010011214004+46350+010067FM-12+107899999V0209999C000019999999N9999999N1-00121-00531999999ADDMA1999999088791ME1314249REMSYN060AAXX  12144 06794 33/// /0000 11012 21053 38879 48424 5////;
0191067940999992010011215004+46350+010067FM-12+107899999V0201601N000510141019N0180001N1-00171-00571999999ADDGA1081+014101031GF108991081001012501071999MA1999999088801MD1510021+9999ME1314259OA149900311REMSYN088AAXX  12154 06794 32668 81601 11017 21057 38880 48425 55002 8807/ 333 88347 91106 91204;
0137067940999992010011216004+46350+010067FM-12+107899999V0209999C000019999999N9999999N1-00271-00501999999ADDMA1999999088741MD1810051+9999ME1314189OA149900101REMSYN076AAXX  12164 06794 33/// /0000 11027 21050 38874 48418 58005 333 91102 91202;
0137067940999992010011217004+46350+010067FM-12+107899999V0201001N000519999999N9999999N1-00221-00451999999ADDMA1999999088721MD1710071+9999ME1314179OA149900101REMSYN076AAXX  12174 06794 33/// /1001 11022 21045 38872 48417 57007 333 91102 91201;
0156067940999992010011218004+46350+010067FM-12+107899999V0209999C000019999999N9999999N1-00301-00451999999ADDKA1120M-00051MA1999999088731MD1510071+9999ME1314179OA149900311REMSYN082AAXX  12184 06794 33/// /0000 11030 21045 38873 48417 55007 333 11005 91106 91204;
0156067940999992010011219004+46350+010067FM-12+107899999V0203501N000519999999N9999999N1-00301-00461999999ADDMA1999999088741MD1410001+9999ME1314189OA149900151REMSYN076AAXX  12194 06794 33/// /3501 11030 21046 38874 48418 53000 333 91103 91202;EQDQ01+000032APCTEN
0137067940999992010011220004+46350+010067FM-12+107899999V0200401N001019999999N9999999N1-00251-00451999999ADDMA1999999088771MD1210051+9999ME1314219OA149900151REMSYN076AAXX  12204 06794 33/// /0402 11025 21045 38877 48421 52005 333 91103 91202;
0219067940999992010011221004+46350+010067FM-12+107899999V0200401N001510072019N0130001N1-00301-00431999999ADDAY171031AY221031GA1081+007201051GF108991081001008001021999MA1999999088731MD1010001+9999ME1314179MW1781OA149900151REMSYN094AAXX  12214 06794 31563 80403 11030 21043 38873 48417 50000 77872 8802/ 333 88524 91103 91203;
0137067940999992010011222004+46350+010067FM-12+107899999V0209999C000019999999N9999999N1-00331-00491999999ADDMA1999999088671MD1810071+9999ME1314119OA149900151REMSYN076AAXX  12224 06794 33/// /0000 11033 21049 38867 48411 58007 333 91103 91203;
0137067940999992010011223004+46350+010067FM-12+107899999V0200401N001519999999N9999999N1-00421-00571999999ADDMA1999999088621MD1710151+9999ME1314059OA149900151REMSYN076AAXX  12234 06794 33/// /0403 11042 21057 38862 48405 57015 333 91103 91203;
0137067940999992010011300004+46350+010067FM-12+107899999V0200701N001019999999N9999999N1-00351-00551999999ADDMA1999999088561MD1810171+9999ME1314019OA149900311REMSYN076AAXX  13004 06794 33/// /0702 11035 21055 38856 48401 58017 333 91106 91203;
0137067940999992010011301004+46350+010067FM-12+107899999V0200401N001019999999N9999999N1-00461-00601999999ADDMA1999999088531MD1610141+9999ME1313979OA149900151REMSYN076AAXX  13014 06794 33/// /0402 11046 21060 38853 48397 56014 333 91103 91203;
0137067940999992010011302004+46350+010067FM-12+107899999V0209999C000019999999N9999999N1-00331-00461999999ADDMA1999999088531MD1719999+9999ME1313999OA149900211REMSYN076AAXX  13024 06794 33/// /0000 11033 21046 38853 48399 57/// 333 91104 91203;
0219067940999992010011303004+46350+010067FM-12+107899999V0209999C000010042019N0100001N1-00371-00531999999ADDGA1051+004201071GA2081+018001031GF108991051061004501071999MA1999999088491MD1719999+9999ME1313959OA149900211REMSYN100AAXX  13034 06794 31460 80000 11037 21053 38849 48395 57/// 7//72 8567/ 333 85714 88356 91104 91203;
0137067940999992010011304004+46350+010067FM-12+107899999V0209999C000019999999N9999999N1-00521-00661999999ADDMA1999999088411MD1710121+9999ME1313869OA149900211REMSYN076AAXX  13044 06794 33/// /0000 11052 21066 38841 48386 57012 333 91104 91203;
0137067940999992010011305004+46350+010067FM-12+107899999V0200501N001519999999N9999999N1-00491-00671999999ADDMA1999999088371MD1610161+9999ME1313839OA149900211REMSYN076AAXX  13054 06794 33/// /0503 11049 21067 38837 48383 56016 333 91104 91204;
0329067940999992010011306004+46350+010067FM-12+107899999V0200501N001510240019N0120001N1-00491-00611999999ADDAA124000021AJ199992999999999AL19900091GA1081+024001041GF108991081001022501011999GJ100969IA1279IA2999-00809KA1999N-00621MA1999999088381MD1710111+9999ME1313839OA149900211REMSYN130AAXX  13064 06794 32862 80503 11049 21061 38838 48383 57011 8801/ 333 21062 3/108 43998 55016 70000 88458 90768 93100 91104 91204;EQDQ01  09982SNDP  
0137067940999992010011307004+46350+010067FM-12+107899999V0200401N000519999999N9999999N1-00581-00641999999ADDMA1999999088431MD1310021+9999ME1313879OA149900211REMSYN076AAXX  13074 06794 33/// /0401 11058 21064 38843 48387 53002 333 91104 91203;
0137067940999992010011308004+46350+010067FM-12+107899999V0200501N000519999999N9999999N1-00581-00661999999ADDMA1999999088441MD1310071+9999ME1313889OA149900211REMSYN076AAXX  13084 06794 33/// /0501 11058 21066 38844 48388 53007 333 91104 91203;
0191067940999992010011309004+46350+010067FM-12+107899999V0201901N000510300019N0180001N1-00381-00641999999ADDGA1081+030001041GF108991081001999999021999MA1999999088451MD1210071+9999ME1313919OA149900261REMSYN088AAXX  13094 06794 32968 81901 11038 21064 38845 48391 52007 8802/ 333 88460 91105 91204;
0137067940999992010011310004+46350+010067FM-12+107899999V0209999C000019999999N9999999N1-00201-00691999999ADDMA1999999088471MD1210041+9999ME1313959OA149900261REMSYN076AAXX  13104 06794 33/// /0000 11020 21069 38847 48395 52004 333 91105 91203;
0137067940999992010011311004+46350+010067FM-12+107899999V0209999C000019999999N9999999N1-00201-00671999999ADDMA1999999088491MD1210051+9999ME1313979OA149900311REMSYN076AAXX  13114 06794 33/// /0000 11020 21067 38849 48397 52005 333 91106 91203;
0191067940999992010011312004+46350+010067FM-12+107899999V0200301N001010141019N0180001N1-00101-00751999999ADDGA1081+014101041GF108991081001012501021999MA1999999088451MD1010001+9999ME1313949OA149900311REMSYN088AAXX  13124 06794 32668 80302 11010 21075 38845 48394 50000 8802/ 333 88447 91106 91204;
0137067940999992010011313004+46350+010067FM-12+107899999V0202001N000519999999N9999999N1-00061-00721999999ADDMA1999999088421MD1810051+9999ME1313929OA149900211REMSYN076AAXX  13134 06794 33/// /2001 11006 21072 38842 48392 58005 333 91104 91203;
0137067940999992010011314004+46350+010067FM-12+107899999V0202001N000519999999N9999999N1-00081-00661999999ADDMA1999999088431MD1719999+9999ME1313939OA149900151REMSYN076AAXX  13144 06794 33/// /2001 11008 21066 38843 48393 57/// 333 91103 91202;
0210067940999992010011315004+46350+010067FM-12+107899999V0209999C000010150019N0160001N1-00121-00651999999ADDGA1081+015001041GF108991081001017501021999MA1999999088451MD1410001+9999ME1313949OA149900311REMSYN088AAXX  13154 06794 32766 80000 11012 21065 38845 48394 53000 8802/ 333 88450 91106 91203;EQDQ01+000032APCTEN
0137067940999992010011316004+46350+010067FM-12+107899999V0200401N001019999999N9999999N1-00191-00541999999ADDMA1999999088461MD1210041+9999ME1313949OA149900151REMSYN076AAXX  13164 06794 33/// /0402 11019 21054 38846 48394 52004 333 91103 91202;
0137067940999992010011317004+46350+010067FM-12+107899999V0200501N001019999999N9999999N1-00211-00471999999ADDMA1999999088471MD1110041+9999ME1313959OA149900151REMSYN076AAXX  13174 06794 33/// /0502 11021 21047 38847 48395 51004 333 91103 91202;
0261067940999992010011318004+46350+010067FM-12+107899999V0200601N001010150019N0160001N1-00251-00411999999ADDAJ100249199999999AL19900091GA1081+015001041GF108991081001017501021999IA1279KA1120M-00051MA1999999088511MD1310061+9999ME1313989OA149900311REMSYN112AAXX  13184 06794 32766 80602 11025 21041 38851 48398 53006 8802/ 333 11005 43024 88450 90766 93100 91106 91203;
0137067940999992010011319004+46350+010067FM-12+107899999V0200701N000519999999N9999999N1-00231-00391999999ADDMA1999999088521MD1319999+9999ME1313999OA149900151REMSYN076AAXX  13194 06794 33/// /0701 11023 21039 38852 48399 53/// 333 91103 91202;
0124067940999992010011321004+46350+010067FM-12+107899999V02099999999990300019N0160001N1+99999+99999999999ADDGA1081+030001041GF108991081001999999011999REMSYN070AAXX  13214 06794 42966 8//// 1//// 2//// 3//// 5//// 8801/ 333 88460;
0158067940999992010011400004+46350+010067FM-12+107899999V0209999999999036001CN0160001N1+99999+99999999999ADDAY171061AY221061GA1041+003301071GF108991041061004501011999MW1771REMSYN082AAXX  14004 06794 41466 8//// 1//// 2//// 3//// 5//// 77772 8461/ 333 84711 88458;
0137067940999992010011401004+46350+010067FM-12+107899999V0200601N001019999999N9999999N1-00461-00551999999ADDMA1999999088491MD1719999+9999ME1313949OA149900151REMSYN076AAXX  14014 06794 33/// /0602 11046 21055 38849 48394 57/// 333 91103 91203;
0137067940999992010011402004+46350+010067FM-12+107899999V0201001N000519999999N9999999N1-00501-00621999999ADDMA1999999088501MD1719999+9999ME1313949OA149900151REMSYN076AAXX  14024 06794 33/// /1001 11050 21062 38850 48394 57/// 333 91103 91203;
0182067940999992010011403004+46350+010067FM-12+107899999V0200501N001510033019N0120001N1-00471-00631999999ADDAY171031AY221031GA1081+003301071GF108991081061004501999999MA1999999088471ME1313929MW1021REMSYN082AAXX  14034 06794 31462 80503 11047 21063 38847 48392 5//// 70272 886// 333 88711;
0137067940999992010011404004+46350+010067FM-12+107899999V0200401N000519999999N9999999N1-00561-00681999999ADDMA1999999088441MD1710051+9999ME1313889OA149900211REMSYN076AAXX  14044 06794 33/// /0401 11056 21068 38844 48388 57005 333 91104 91204;
0137067940999992010011405004+46350+010067FM-12+107899999V0209999C000019999999N9999999N1-00531-00661999999ADDMA1999999088481MD1510021+9999ME1313929OA149900211REMSYN076AAXX  14054 06794 33/// /0000 11053 21066 38848 48392 55002 333 91104 91204;
0310067940999992010011406004+46350+010067FM-12+107899999V0203501N000510042019N0150001N1-00391-00571999999ADDAA124000021AJ100249199999999AL19900091GA1081+004201071GF108991081061004501999999GJ100009IA1279IA2999-00909KA1999N-00611MA1999999088531MD1210061+9999ME1313989OA149900211REMSYN130AAXX  14064 06794 32465 83501 11039 21057 38853 48398 52006 886// 333 21061 3/109 43024 55000 70000 88714 90768 93100 91104 91204;
0137067940999992010011407004+46350+010067FM-12+107899999V0200501N001019999999N9999999N1-00421-00551999999ADDMA1999999088521MD1210081+9999ME1313979OA149900211REMSYN076AAXX  14074 06794 33/// /0502 11042 21055 38852 48397 52008 333 91104 91203;
0137067940999992010011408004+46350+010067FM-12+107899999V0200801N000519999999N9999999N1-00321-00491999999ADDMA1999999088531MD1219999+9999ME1313999OA149900211REMSYN076AAXX  14084 06794 33/// /0801 11032 21049 38853 48399 52/// 333 91104 91203;
0137067940999992010011409004+46350+010067FM-12+107899999V0209999C000019999999N9999999N1-00241-00451999999ADDMA1999999088541MD1310011+9999ME1314019OA149900211REMSYN076AAXX  14094 06794 33/// /0000 11024 21045 38854 48401 53001 333 91104 91204;
0137067940999992010011410004+46350+010067FM-12+107899999V0202201N000519999999N9999999N1-00121-00501999999ADDMA1999999088521MD1010001+9999ME1314009OA149900211REMSYN076AAXX  14104 06794 33/// /2201 11012 21050 38852 48400 50000 333 91104 91203;
0137067940999992010011411004+46350+010067FM-12+107899999V0209999C000019999999N9999999N1-00031-00501999999ADDMA1999999088461MD1710071+9999ME1313969OA149900151REMSYN076AAXX  14114 06794 33/// /0000 11003 21050 38846 48396 57007 333 91103 91202;
0191067940999992010011412004+46350+010067FM-12+107899999V0202201N001010123019N0170001N1-00021-00491999999ADDGA1081+012301031GF108991081001012501071999MA1999999088461MD1610081+9999ME1313969OA149900211REMSYN088AAXX  14124 06794 32667 82202 11002 21049 38846 48396 56008 8807/ 333 88341 91104 91204;
0137067940999992010011413004+46350+010067FM-12+107899999V0202201N001019999999N9999999N1-00021-00411999999ADDMA1999999088441MD1610081+9999ME1313949OA149900211REMSYN076AAXX  14134 06794 33/// /2202 11002 21041 38844 48394 56008 333 91104 91203;
0137067940999992010011414004+46350+010067FM-12+107899999V0202301N000519999999N9999999N1-00081-00381999999ADDMA1999999088491MD1310031+9999ME1313989OA149900151REMSYN076AAXX  14144 06794 33/// /2301 11008 21038 38849 48398 53003 333 91103 91203;
0191067940999992010011415004+46350+010067FM-12+107899999V0202101N001510123019N0170001N1-00081-00341999999ADDGA1081+012301031GF108991081001012501071999MA1999999088481MD1310021+9999ME1313979OA149900211REMSYN088AAXX  14154 06794 32667 82103 11008 21034 38848 48397 53002 8807/ 333 88341 91104 91203;
0137067940999992010011416004+46350+010067FM-12+107899999V0209999C000019999999N9999999N1-00111-00351999999ADDMA1999999088521MD1210081+9999ME1314009OA149900261REMSYN076AAXX  14164 06794 33/// /0000 11011 21035 38852 48400 52008 333 91105 91203;
0137067940999992010011417004+46350+010067FM-12+107899999V0209999C000019999999N9999999N1-00151-00341999999ADDMA1999999088561MD1210071+9999ME1314039OA149900261REMSYN076AAXX  14174 06794 33/// /0000 11015 21034 38856 48403 52007 333 91105 91203;
0261067940999992010011418004+46350+010067FM-12+107899999V0200801N000510123019N0170001N1-00221-00361999999ADDAJ100239199999999AL19900091GA1081+012301031GF108991081001012501071999IA1279KA1120M+00021MA1999999088581MD1110101+9999ME1314049OA149900261REMSYN112AAXX  14184 06794 32667 80801 11022 21036 38858 48404 51010 8807/ 333 10002 43023 88341 90766 93100 91105 91203;
0137067940999992010011419004+46350+010067FM-12+107899999V0200301N001519999999N9999999N1-00301-00441999999ADDMA1999999088621MD1310101+9999ME1314079OA149900211REMSYN076AAXX  14194 06794 33/// /0303 11030 21044 38862 48407 53010 333 91104 91203;
0137067940999992010011420004+46350+010067FM-12+107899999V0200601N001519999999N9999999N1-00241-00421999999ADDMA1999999088671MD1110111+9999ME1314129OA149900211REMSYN076AAXX  14204 06794 33/// /0603 11024 21042 38867 48412 51011 333 91104 91203;
0191067940999992010011421004+46350+010067FM-12+107899999V0209999C000010141019N0170001N1-00241-00421999999ADDGA1081+014101031GF108991081001012501071999MA1999999088741MD1310161+9999ME1314189OA149900261REMSYN088AAXX  14214 06794 32667 80000 11024 21042 38874 48418 53016 8807/ 333 88347 91105 91203;
0137067940999992010011422004+46350+010067FM-12+107899999V0209999C000019999999N9999999N1-00251-00441999999ADDMA1999999088811MD1310191+9999ME1314249OA149900211REMSYN076AAXX  14224 06794 33/// /0000 11025 21044 38881 48424 53019 333 91104 91203;
0137067940999992010011423004+46350+010067FM-12+107899999V0200901N000519999999N9999999N1-00271-00411999999ADDMA1999999088891MD1110221+9999ME1314319OA149900101REMSYN076AAXX  14234 06794 33/// /0901 11027 21041 38889 48431 51022 333 91102 91201;
0191067940999992010011500004+46350+010067FM-12+107899999V0200501N000510072019N0150001N1-00351-00451999999ADDGA1081+007201071GF108991081061008001999999MA1999999088881MD1210141+9999ME1314299OA149900261REMSYN088AAXX  15004 06794 32565 80501 11035 21045 38888 48429 52014 886// 333 88724 91105 91203;
0137067940999992010011501004+46350+010067FM-12+107899999V0200601N001019999999N9999999N1-00611-00761999999ADDMA1999999088851MD1010041+9999ME1314239OA149900211REMSYN076AAXX  15014 06794 33/// /0602 11061 21076 38885 48423 50004 333 91104 91203;
0137067940999992010011502004+46350+010067FM-12+107899999V0200601N001019999999N9999999N1-00811-00971999999ADDMA1999999088871MD1510021+9999ME1314229OA149900211REMSYN076AAXX  15024 06794 33/// /0602 11081 21097 38887 48422 55002 333 91104 91203;
0154067940999992010011503004+46350+010067FM-12+107899999V0200501N001512200019N0150001N1-00711-00911999999ADDGA1031+004201071GF103991031061004501001001MA1999999088881ME1314259REMSYN076AAXX  15034 06794 32465 30503 11071 21091 38888 48425 5//// 83600 333 83714;
0137067940999992010011504004+46350+010067FM-12+107899999V0200501N001019999999N9999999N1-00911-01071999999ADDMA1999999088941MD1310091+9999ME1314279OA149900211REMSYN076AAXX  15044 06794 33/// /0502 11091 21107 38894 48427 53009 333 91104 91203;
0137067940999992010011505004+46350+010067FM-12+107899999V0200701N001019999999N9999999N1-00971-01331999999ADDMA1999999088961MD1210091+9999ME1314289OA149900311REMSYN076AAXX  15054 06794 33/// /0702 11097 21133 38896 48428 52009 333 91106 91204;
0329067940999992010011506004+46350+010067FM-12+107899999V0200401N001512200019N0180001N1-01001-01361999999ADDAA124000091AJ100239199999999AL19900091GA1021+030001041GF102991021001999999011999GJ100069IA1279IA2999-01309KA1999N-01121MA1999999089021MD1210141+9999ME1314339OA149900311REMSYN130AAXX  15064 06794 32968 20403 11100 21136 38902 48433 52014 8201/ 333 21112 3/113 43023 55001 70000 82460 90768 93100 91106 91204;EQDQ01  00002PRCP24
0137067940999992010011507004+46350+010067FM-12+107899999V0200501N001019999999N9999999N1-00821-01141999999ADDMA1999999089071MD1210131+9999ME1314399OA149900261REMSYN076AAXX  15074 06794 33/// /0502 11082 21114 38907 48439 52013 333 91105 91203;
0137067940999992010011508004+46350+010067FM-12+107899999V0200501N001019999999N9999999N1-00791-00941999999ADDMA1999999089161MD1319999+9999ME1314489OA149900261REMSYN076AAXX  15084 06794 33/// /0502 11079 21094 38916 48448 53/// 333 91105 91204;
0191067940999992010011509004+46350+010067FM-12+107899999V0200601N001510300019N0180001N1-00841-01061999999ADDGA1061+030001041GF106991061001999999011001MA1999999089221MD1310201+9999ME1314529OA149900311REMSYN088AAXX  15094 06794 32968 60603 11084 21106 38922 48452 53020 86010 333 86460 91106 91204;
0137067940999992010011510004+46350+010067FM-12+107899999V0200701N001519999999N9999999N1-00381-00801999999ADDMA1999999089271MD1110201+9999ME1314639OA149900211REMSYN076AAXX  15104 06794 33/// /0703 11038 21080 38927 48463 51020 333 91104 91203;
0137067940999992010011511004+46350+010067FM-12+107899999V0209999C000019999999N9999999N1-00221-00671999999ADDMA1999999089291MD1110131+9999ME1314679OA149900211REMSYN076AAXX  15114 06794 33/// /0000 11022 21067 38929 48467 51013 333 91104 91203;
0191067940999992010011512004+46350+010067FM-12+107899999V0209999C000010480019N0200001N1-00061-00671999999ADDGA1061+048001001GF106991001001999999001011MA1999999089261MD1010041+9999ME1314679OA149900311REMSYN088AAXX  15124 06794 32970 60000 11006 21067 38926 48467 50004 80001 333 86066 91106 91204;
0137067940999992010011513004+46350+010067FM-12+107899999V0202101N001019999999N9999999N1+00031-00741999999ADDMA1999999089291MD1210021+9999ME1314719OA149900211REMSYN076AAXX  15134 06794 33/// /2102 10003 21074 38929 48471 52002 333 91104 91203;
0137067940999992010011514004+46350+010067FM-12+107899999V0200801N000519999999N9999999N1+00091-00661999999ADDMA1999999089301MD1310011+9999ME1314739OA149900211REMSYN076AAXX  15144 06794 33/// /0801 10009 21066 38930 48473 53001 333 91104 91203;
0191067940999992010011515004+46350+010067FM-12+107899999V0200801N000512200019N0200001N1-00291-00671999999ADDGA1031+048001001GF103991001001999999001011MA1999999089401MD1310141+9999ME1314769OA149900211REMSYN088AAXX  15154 06794 32970 30801 11029 21067 38940 48476 53014 80001 333 83066 91104 91203;
0137067940999992010011516004+46350+010067FM-12+107899999V0200501N001019999999N9999999N1-00281-00601999999ADDMA1999999089461MD1310171+9999ME1314819OA149900211REMSYN076AAXX  15164 06794 33/// /0502 11028 21060 38946 48481 53017 333 91104 91203;
0137067940999992010011517004+46350+010067FM-12+107899999V0200501N001019999999N9999999N1-00531-00781999999ADDMA1999999089521MD1110221+9999ME1314839OA149900211REMSYN076AAXX  15174 06794 33/// /0502 11053 21078 38952 48483 51022 333 91104 91203;
0156067940999992010011518004+46350+010067FM-12+107899999V0200101N000519999999N9999999N1-00611-00731999999ADDKA1120M+00091MA1999999089581MD1110181+9999ME1314879OA149900261REMSYN082AAXX  15184 06794 33/// /0101 11061 21073 38958 48487 51018 333 10009 91105 91204;
0137067940999992010011519004+46350+010067FM-12+107899999V0209999C000019999999N9999999N1-00571-00701999999ADDMA1999999089651MD1310191+9999ME1314939OA149900261REMSYN076AAXX  15194 06794 33/// /0000 11057 21070 38965 48493 53019 333 91105 91203;
0137067940999992010011520004+46350+010067FM-12+107899999V0200501N001019999999N9999999N1-00531-00761999999ADDMA1999999089661MD1110141+9999ME1314959OA149900311REMSYN076AAXX  15204 06794 33/// /0502 11053 21076 38966 48495 51014 333 91106 91203;
0191067940999992010011521004+46350+010067FM-12+107899999V0200501N000512200019N0200001N1-00431-00741999999ADDGA1031+033001031GF103991031001999999071999MA1999999089691MD1210111+9999ME1314999OA149900311REMSYN088AAXX  15214 06794 32970 30501 11043 21074 38969 48499 52011 8307/ 333 83361 91106 91203;
0137067940999992010011522004+46350+010067FM-12+107899999V0200401N001019999999N9999999N1-00661-00941999999ADDMA1999999089711MD1210061+9999ME1314979OA149900311REMSYN076AAXX  15224 06794 33/// /0402 11066 21094 38971 48497 52006 333 91106 91204;
0137067940999992010011523004+46350+010067FM-12+107899999V0200501N001019999999N9999999N1-00691-00841999999ADDMA1999999089751MD1210091+9999ME1315009OA149900311REMSYN076AAXX  15234 06794 33/// /0502 11069 21084 38975 48500 52009 333 91106 91204;
0179067940999992010011600004+46350+010067FM-12+107899999V0200601N001012200019N0200001N1-00861-01101999999ADDGA1001+999999999GF100991001001999999001001MA1999999089801MD1210111+9999ME1315029OA149900311REMSYN076AAXX  16004 06794 32970 00602 11086 21110 38980 48502 52011 333 91106 91204;
0137067940999992010011601004+46350+010067FM-12+107899999V0200501N000519999999N9999999N1-00921-01141999999ADDMA1999999089781MD1210071+9999ME1314999OA149900261REMSYN076AAXX  16014 06794 33/// /0501 11092 21114 38978 48499 52007 333 91105 91203;
0137067940999992010011602004+46350+010067FM-12+107899999V0200401N000519999999N9999999N1-00841-01091999999ADDMA1999999089801MD1210051+9999ME1315029OA149900211REMSYN076AAXX  16024 06794 33/// /0401 11084 21109 38980 48502 52005 333 91104 91203;
0179067940999992010011603004+46350+010067FM-12+107899999V0200501N001512200019N0190001N1-00851-01151999999ADDGA1001+999999999GF100991001001999999001001MA1999999089751MD1719999+9999ME1314979OA149900311REMSYN076AAXX  16034 06794 32969 00503 11085 21115 38975 48497 57/// 333 91106 91204;
0156067940999992010011604004+46350+010067FM-12+107899999V0200501N001519999999N9999999N1-00881-01171999999ADDMA1999999089781MD1410001+9999ME1315009OA149900311REMSYN076AAXX  16044 06794 33/// /0503 11088 21117 38978 48500 57000 333 91106 91204;EQDQ01+000072APCTEN
0137067940999992010011605004+46350+010067FM-12+107899999V0200801N000519999999N9999999N1-00861-01181999999ADDMA1999999089761MD1510041+9999ME1314989OA149900261REMSYN076AAXX  16054 06794 33/// /0801 11086 21118 38976 48498 55004 333 91105 91204;
0317067940999992010011606004+46350+010067FM-12+107899999V0200601N001512200019N0200001N1-00861-01221999999ADDAA124000091AJ100239199999999AL19900091GA1001+999999999GF100991001001999999001001GJ102949IA1279IA2999-01409KA1999N-01011MA1999999089831MD1210081+9999ME1315049OA149900311REMSYN118AAXX  16064 06794 32970 00603 11086 21122 38983 48504 52008 333 21101 3/114 43023 55049 70000 90768 93100 91106 91204;EQDQ01  00002PRCP24
0137067940999992010011607004+46350+010067FM-12+107899999V0200501N001519999999N9999999N1-01021-01331999999ADDMA1999999089801MD1210021+9999ME1314999OA149900261REMSYN076AAXX  16074 06794 33/// /0503 11102 21133 38980 48499 52002 333 91105 91203;
0137067940999992010011608004+46350+010067FM-12+107899999V0200601N001019999999N9999999N1-00931-01271999999ADDMA1999999089791MD1010031+9999ME1315009OA149900361REMSYN076AAXX  16084 06794 33/// /0602 11093 21127 38979 48500 50003 333 91107 91204;
0179067940999992010011609004+46350+010067FM-12+107899999V0200601N001012200019N0220001N1-00801-01181999999ADDGA1001+999999999GF100991001001999999001001MA1999999089821MD1510011+9999ME1315049OA149900361REMSYN076AAXX  16094 06794 32972 00602 11080 21118 38982 48504 55001 333 91107 91204;
0137067940999992010011610004+46350+010067FM-12+107899999V0200701N001519999999N9999999N1-00631-01131999999ADDMA1999999089791MD1810011+9999ME1315049OA149900311REMSYN076AAXX  16104 06794 33/// /0703 11063 21113 38979 48504 58001 333 91106 91204;
0137067940999992010011611004+46350+010067FM-12+107899999V0201201N000519999999N9999999N1-00211-00881999999ADDMA1999999089741MD1810051+9999ME1315079OA149900311REMSYN076AAXX  16114 06794 33/// /1201 11021 21088 38974 48507 58005 333 91106 91204;
0137067940999992010011612004+46350+010067FM-12+107899999V0201801N001019999999N9999999N1+00021-00931999999ADDMA1999999089691MD1710131+9999ME1315069OA149900361REMSYN076AAXX  16124 06794 33/// /1802 10002 21093 38969 48506 57013 333 91107 91204;
0137067940999992010011613004+46350+010067FM-12+107899999V0202101N001519999999N9999999N1-00011-00941999999ADDMA1999999089721MD1510071+9999ME1315099OA149900261REMSYN076AAXX  16134 06794 33/// /2103 11001 21094 38972 48509 55007 333 91105 91203;
0137067940999992010011614004+46350+010067FM-12+107899999V0201901N001019999999N9999999N1+00011-01001999999ADDMA1999999089701MD1719999+9999ME1315079OA149900261REMSYN076AAXX  16144 06794 33/// /1902 10001 21100 38970 48507 57/// 333 91105 91203;
0137067940999992010011615004+46350+010067FM-12+107899999V0200701N000519999999N9999999N1-00381-00901999999ADDMA1999999089701MD1510011+9999ME1315019OA149900311REMSYN076AAXX  16154 06794 33/// /0701 11038 21090 38970 48501 55001 333 91106 91204;
0137067940999992010011616004+46350+010067FM-12+107899999V0200701N001019999999N9999999N1-00341-00831999999ADDMA1999999089671MD1710051+9999ME1314999OA149900211REMSYN076AAXX  16164 06794 33/// /0702 11034 21083 38967 48499 57005 333 91104 91202;
0137067940999992010011617004+46350+010067FM-12+107899999V0200301N000519999999N9999999N1-00511-00831999999ADDMA1999999089691MD1510011+9999ME1314989OA149900211REMSYN076AAXX  16174 06794 33/// /0301 11051 21083 38969 48498 55001 333 91104 91203;
0156067940999992010011618004+46350+010067FM-12+107899999V0200801N001019999999N9999999N1-00361-00761999999ADDKA1120M+00071MA1999999089681MD1710021+9999ME1314999OA149900361REMSYN082AAXX  16184 06794 33/// /0802 11036 21076 38968 48499 57002 333 10007 91107 91204;
0137067940999992010011619004+46350+010067FM-12+107899999V0201801N000519999999N9999999N1-00381-00731999999ADDMA1999999089681MD1010011+9999ME1314999OA149900211REMSYN076AAXX  16194 06794 33/// /1801 11038 21073 38968 48499 50001 333 91104 91202;
0137067940999992010011620004+46350+010067FM-12+107899999V0200301N001519999999N9999999N1-00271-00681999999ADDMA1999999089641MD1710051+9999ME1314979OA149900211REMSYN076AAXX  16204 06794 33/// /0303 11027 21068 38964 48497 57005 333 91104 91203;
0191067940999992010011621004+46350+010067FM-12+107899999V0209999C000010300019N0160001N1-00351-00611999999ADDGA1071+030001041GF107991071001999999021999MA1999999089601MD1810081+9999ME1314939OA149900211REMSYN088AAXX  16214 06794 32966 70000 11035 21061 38960 48493 58008 8702/ 333 87460 91104 91203;
0137067940999992010011622004+46350+010067FM-12+107899999V0200601N000519999999N9999999N1-00301-00591999999ADDMA1999999089551MD1710131+9999ME1314899OA149900151REMSYN076AAXX  16224 06794 33/// /0601 11030 21059 38955 48489 57013 333 91103 91202;
0137067940999992010011623004+46350+010067FM-12+107899999V0202701N000519999999N9999999N1-00281-00601999999ADDMA1999999089571MD1710071+9999ME1314919OA149900151REMSYN076AAXX  16234 06794 33/// /2701 11028 21060 38957 48491 57007 333 91103 91201;
0191067940999992010011700004+46350+010067FM-12+107899999V0202301N000510141019N0140001N1-00321-00711999999ADDGA1081+014101041GF108991081001012501021999MA1999999089581MD1510021+9999ME1314919OA149900311REMSYN088AAXX  17004 06794 32664 82301 11032 21071 38958 48491 55002 8802/ 333 88447 91106 91203;
0137067940999992010011701004+46350+010067FM-12+107899999V0200101N001019999999N9999999N1-00311-00711999999ADDMA1999999089561MD1010011+9999ME1314909OA149900311REMSYN076AAXX  17014 06794 33/// /0102 11031 21071 38956 48490 50001 333 91106 91203;
