0093067950999992011101118004+46583+009533FM-12+267099999V02099999999999999999N9999999N1+99999+99999999999ADDAJ100039199999999REMSYN064AAXX  11184 06795 43/// ///// 1//// 2//// 3//// 5//// 333 4/003;
0093067950999992011101206004+46583+009533FM-12+267099999V02099999999999999999N9999999N1+99999+99999999999ADDAJ100049199999999REMSYN064AAXX  12064 06795 43/// ///// 1//// 2//// 3//// 5//// 333 4/004;
0093067950999992011101218004+46583+009533FM-12+267099999V02099999999999999999N9999999N1+99999+99999999999ADDAJ100039199999999REMSYN064AAXX  12184 06795 43/// ///// 1//// 2//// 3//// 5//// 333 4/003;
0093067950999992011101306004+46583+009533FM-12+267099999V02099999999999999999N9999999N1+99999+99999999999ADDAJ100089199999999REMSYN064AAXX  13064 06795 43/// ///// 1//// 2//// 3//// 5//// 333 4/008;
0093067950999992011101318004+46583+009533FM-12+267099999V02099999999999999999N9999999N1+99999+99999999999ADDAJ100089199999999REMSYN064AAXX  13184 06795 43/// ///// 1//// 2//// 3//// 5//// 333 4/008;
0093067950999992011101406004+46583+009533FM-12+267099999V02099999999999999999N9999999N1+99999+99999999999ADDAJ100109199999999REMSYN064AAXX  14064 06795 43/// ///// 1//// 2//// 3//// 5//// 333 4/010;
0093067950999992011101418004+46583+009533FM-12+267099999V02099999999999999999N9999999N1+99999+99999999999ADDAJ100089199999999REMSYN064AAXX  14184 06795 43/// ///// 1//// 2//// 3//// 5//// 333 4/008;
0093067950999992011101506004+46583+009533FM-12+267099999V02099999999999999999N9999999N1+99999+99999999999ADDAJ100069199999999REMSYN064AAXX  15064 06795 43/// ///// 1//// 2//// 3//// 5//// 333 4/006;
0093067950999992011101518004+46583+009533FM-12+267099999V02099999999999999999N9999999N1+99999+99999999999ADDAJ100059199999999REMSYN064AAXX  15184 06795 43/// ///// 1//// 2//// 3//// 5//// 333 4/005;
0093067950999992011101606004+46583+009533FM-12+267099999V02099999999999999999N9999999N1+99999+99999999999ADDAJ100049199999999REMSYN064AAXX  16064 06795 43/// ///// 1//// 2//// 3//// 5//// 333 4/004;
0093067950999992011101618004+46583+009533FM-12+267099999V02099999999999999999N9999999N1+99999+99999999999ADDAJ100049199999999REMSYN064AAXX  16184 06795 43/// ///// 1//// 2//// 3//// 5//// 333 4/004;
0093067950999992011101706004+46583+009533FM-12+267099999V02099999999999999999N9999999N1+99999+99999999999ADDAJ100059199999999REMSYN064AAXX  17064 06795 43/// ///// 1//// 2//// 3//// 5//// 333 4/005;
0093067950999992011101718004+46583+009533FM-12+267099999V02099999999999999999N9999999N1+99999+99999999999ADDAJ100059199999999REMSYN064AAXX  17184 06795 43/// ///// 1//// 2//// 3//// 5//// 333 4/005;
0093067950999992011101806004+46583+009533FM-12+267099999V02099999999999999999N9999999N1+99999+99999999999ADDAJ100059199999999REMSYN064AAXX  18064 06795 43/// ///// 1//// 2//// 3//// 5//// 333 4/005;
0093067950999992011101818004+46583+009533FM-12+267099999V02099999999999999999N9999999N1+99999+99999999999ADDAJ100069199999999REMSYN064AAXX  18184 06795 43/// ///// 1//// 2//// 3//// 5//// 333 4/006;
0093067950999992011101906004+46583+009533FM-12+267099999V02099999999999999999N9999999N1+99999+99999999999ADDAJ100079199999999REMSYN064AAXX  19064 06795 43/// ///// 1//// 2//// 3//// 5//// 333 4/007;
0093067950999992011101918004+46583+009533FM-12+267099999V02099999999999999999N9999999N1+99999+99999999999ADDAJ100099199999999REMSYN064AAXX  19184 06795 43/// ///// 1//// 2//// 3//// 5//// 333 4/009;
0093067950999992011102006004+46583+009533FM-12+267099999V02099999999999999999N9999999N1+99999+99999999999ADDAJ100209199999999REMSYN064AAXX  20064 06795 43/// ///// 1//// 2//// 3//// 5//// 333 4/020;
0093067950999992011102018004+46583+009533FM-12+267099999V02099999999999999999N9999999N1+99999+99999999999ADDAJ100189199999999REMSYN064AAXX  20184 06795 43/// ///// 1//// 2//// 3//// 5//// 333 4/018;
0093067950999992011102106004+46583+009533FM-12+267099999V02099999999999999999N9999999N1+99999+99999999999ADDAJ100159199999999REMSYN064AAXX  21064 06795 43/// ///// 1//// 2//// 3//// 5//// 333 4/015;
0093067950999992011102118004+46583+009533FM-12+267099999V02099999999999999999N9999999N1+99999+99999999999ADDAJ100159199999999REMSYN064AAXX  21184 06795 43/// ///// 1//// 2//// 3//// 5//// 333 4/015;
0093067950999992011102206004+46583+009533FM-12+267099999V02099999999999999999N9999999N1+99999+99999999999ADDAJ100139199999999REMSYN064AAXX  22064 06795 43/// ///// 1//// 2//// 3//// 5//// 333 4/013;
0093067950999992011102218004+46583+009533FM-12+267099999V02099999999999999999N9999999N1+99999+99999999999ADDAJ100139199999999REMSYN064AAXX  22184 06795 43/// ///// 1//// 2//// 3//// 5//// 333 4/013;
0093067950999992011102306004+46583+009533FM-12+267099999V02099999999999999999N9999999N1+99999+99999999999ADDAJ100159199999999REMSYN064AAXX  23064 06795 43/// ///// 1//// 2//// 3//// 5//// 333 4/015;
0093067950999992011102318004+46583+009533FM-12+267099999V02099999999999999999N9999999N1+99999+99999999999ADDAJ100149199999999REMSYN064AAXX  23184 06795 43/// ///// 1//// 2//// 3//// 5//// 333 4/014;
0093067950999992011102406004+46583+009533FM-12+267099999V02099999999999999999N9999999N1+99999+99999999999ADDAJ100169199999999REMSYN064AAXX  24064 06795 43/// ///// 1//// 2//// 3//// 5//// 333 4/016;
0093067950999992011102418004+46583+009533FM-12+267099999V02099999999999999999N9999999N1+99999+99999999999ADDAJ100149199999999REMSYN064AAXX  24184 06795 43/// ///// 1//// 2//// 3//// 5//// 333 4/014;
0093067950999992011102506004+46583+009533FM-12+267099999V02099999999999999999N9999999N1+99999+99999999999ADDAJ100129199999999REMSYN064AAXX  25064 06795 43/// ///// 1//// 2//// 3//// 5//// 333 4/012;
0093067950999992011102518004+46583+009533FM-12+267099999V02099999999999999999N9999999N1+99999+99999999999ADDAJ100129199999999REMSYN064AAXX  25184 06795 43/// ///// 1//// 2//// 3//// 5//// 333 4/012;
0093067950999992011102606004+46583+009533FM-12+267099999V02099999999999999999N9999999N1+99999+99999999999ADDAJ100139199999999REMSYN064AAXX  26064 06795 43/// ///// 1//// 2//// 3//// 5//// 333 4/013;
0093067950999992011102618004+46583+009533FM-12+267099999V02099999999999999999N9999999N1+99999+99999999999ADDAJ100129199999999REMSYN064AAXX  26184 06795 43/// ///// 1//// 2//// 3//// 5//// 333 4/012;
0093067950999992011102706004+46583+009533FM-12+267099999V02099999999999999999N9999999N1+99999+99999999999ADDAJ100109199999999REMSYN064AAXX  27064 06795 43/// ///// 1//// 2//// 3//// 5//// 333 4/010;
0093067950999992011102806004+46583+009533FM-12+267099999V02099999999999999999N9999999N1+99999+99999999999ADDAJ100099199999999REMSYN064AAXX  28064 06795 43/// ///// 1//// 2//// 3//// 5//// 333 4/009;
0093067950999992011102818004+46583+009533FM-12+267099999V02099999999999999999N9999999N1+99999+99999999999ADDAJ100089199999999REMSYN064AAXX  28184 06795 43/// ///// 1//// 2//// 3//// 5//// 333 4/008;
0093067950999992011102906004+46583+009533FM-12+267099999V02099999999999999999N9999999N1+99999+99999999999ADDAJ100079199999999REMSYN064AAXX  29064 06795 43/// ///// 1//// 2//// 3//// 5//// 333 4/007;
0093067950999992011102918004+46583+009533FM-12+267099999V02099999999999999999N9999999N1+99999+99999999999ADDAJ100069199999999REMSYN064AAXX  29184 06795 43/// ///// 1//// 2//// 3//// 5//// 333 4/006;
0093067950999992011103006004+46583+009533FM-12+267099999V02099999999999999999N9999999N1+99999+99999999999ADDAJ100089199999999REMSYN064AAXX  30064 06795 43/// ///// 1//// 2//// 3//// 5//// 333 4/008;
0093067950999992011103018004+46583+009533FM-12+267099999V02099999999999999999N9999999N1+99999+99999999999ADDAJ100079199999999REMSYN064AAXX  30184 06795 43/// ///// 1//// 2//// 3//// 5//// 333 4/007;
0093067950999992011103106004+46583+009533FM-12+267099999V02099999999999999999N9999999N1+99999+99999999999ADDAJ100079199999999REMSYN064AAXX  31064 06795 43/// ///// 1//// 2//// 3//// 5//// 333 4/007;
0093067950999992011103118004+46583+009533FM-12+267099999V02099999999999999999N9999999N1+99999+99999999999ADDAJ100069199999999REMSYN064AAXX  31184 06795 43/// ///// 1//// 2//// 3//// 5//// 333 4/006;
0093067950999992011110106004+46583+009533FM-12+267099999V02099999999999999999N9999999N1+99999+99999999999ADDAJ100079199999999REMSYN064AAXX  01064 06795 43/// ///// 1//// 2//// 3//// 5//// 333 4/007;
0093067950999992011110118004+46583+009533FM-12+267099999V02099999999999999999N9999999N1+99999+99999999999ADDAJ100069199999999REMSYN064AAXX  01184 06795 43/// ///// 1//// 2//// 3//// 5//// 333 4/006;
0093067950999992011110206004+46583+009533FM-12+267099999V02099999999999999999N9999999N1+99999+99999999999ADDAJ100079199999999REMSYN064AAXX  02064 06795 43/// ///// 1//// 2//// 3//// 5//// 333 4/007;
0093067950999992011110218004+46583+009533FM-12+267099999V02099999999999999999N9999999N1+99999+99999999999ADDAJ100079199999999REMSYN064AAXX  02184 06795 43/// ///// 1//// 2//// 3//// 5//// 333 4/007;
0093067950999992011110306004+46583+009533FM-12+267099999V02099999999999999999N9999999N1+99999+99999999999ADDAJ100099199999999REMSYN064AAXX  03064 06795 43/// ///// 1//// 2//// 3//// 5//// 333 4/009;
0093067950999992011110318004+46583+009533FM-12+267099999V02099999999999999999N9999999N1+99999+99999999999ADDAJ100089199999999REMSYN064AAXX  03184 06795 43/// ///// 1//// 2//// 3//// 5//// 333 4/008;
0093067950999992011110406004+46583+009533FM-12+267099999V02099999999999999999N9999999N1+99999+99999999999ADDAJ100099199999999REMSYN064AAXX  04064 06795 43/// ///// 1//// 2//// 3//// 5//// 333 4/009;
0093067950999992011110418004+46583+009533FM-12+267099999V02099999999999999999N9999999N1+99999+99999999999ADDAJ100069199999999REMSYN064AAXX  04184 06795 43/// ///// 1//// 2//// 3//// 5//// 333 4/006;
0093067950999992011110506004+46583+009533FM-12+267099999V02099999999999999999N9999999N1+99999+99999999999ADDAJ100069199999999REMSYN064AAXX  05064 06795 43/// ///// 1//// 2//// 3//// 5//// 333 4/006;
0093067950999992011110518004+46583+009533FM-12+267099999V02099999999999999999N9999999N1+99999+99999999999ADDAJ100069199999999REMSYN064AAXX  05184 06795 43/// ///// 1//// 2//// 3//// 5//// 333 4/006;
0093067950999992011110606004+46583+009533FM-12+267099999V02099999999999999999N9999999N1+99999+99999999999ADDAJ100059199999999REMSYN064AAXX  06064 06795 43/// ///// 1//// 2//// 3//// 5//// 333 4/005;
0093067950999992011110618004+46583+009533FM-12+267099999V02099999999999999999N9999999N1+99999+99999999999ADDAJ100069199999999REMSYN064AAXX  06184 06795 43/// ///// 1//// 2//// 3//// 5//// 333 4/006;
0093067950999992011110706004+46583+009533FM-12+267099999V02099999999999999999N9999999N1+99999+99999999999ADDAJ100089199999999REMSYN064AAXX  07064 06795 43/// ///// 1//// 2//// 3//// 5//// 333 4/008;
0093067950999992011110718004+46583+009533FM-12+267099999V02099999999999999999N9999999N1+99999+99999999999ADDAJ100089199999999REMSYN064AAXX  07184 06795 43/// ///// 1//// 2//// 3//// 5//// 333 4/008;
0093067950999992011110806004+46583+009533FM-12+267099999V02099999999999999999N9999999N1+99999+99999999999ADDAJ100099199999999REMSYN064AAXX  08064 06795 43/// ///// 1//// 2//// 3//// 5//// 333 4/009;
0093067950999992011110818004+46583+009533FM-12+267099999V02099999999999999999N9999999N1+99999+99999999999ADDAJ100119199999999REMSYN064AAXX  08184 06795 43/// ///// 1//// 2//// 3//// 5//// 333 4/011;
0093067950999992011110906004+46583+009533FM-12+267099999V02099999999999999999N9999999N1+99999+99999999999ADDAJ100099199999999REMSYN064AAXX  09064 06795 43/// ///// 1//// 2//// 3//// 5//// 333 4/009;
0093067950999992011110918004+46583+009533FM-12+267099999V02099999999999999999N9999999N1+99999+99999999999ADDAJ100089199999999REMSYN064AAXX  09184 06795 43/// ///// 1//// 2//// 3//// 5//// 333 4/008;
0093067950999992011111018004+46583+009533FM-12+267099999V02099999999999999999N9999999N1+99999+99999999999ADDAJ100099199999999REMSYN064AAXX  10184 06795 43/// ///// 1//// 2//// 3//// 5//// 333 4/009;
0093067950999992011111106004+46583+009533FM-12+267099999V02099999999999999999N9999999N1+99999+99999999999ADDAJ100099199999999REMSYN064AAXX  11064 06795 43/// ///// 1//// 2//// 3//// 5//// 333 4/009;
0093067950999992011111118004+46583+009533FM-12+267099999V02099999999999999999N9999999N1+99999+99999999999ADDAJ100109199999999REMSYN064AAXX  11184 06795 43/// ///// 1//// 2//// 3//// 5//// 333 4/010;
0093067950999992011111206004+46583+009533FM-12+267099999V02099999999999999999N9999999N1+99999+99999999999ADDAJ100109199999999REMSYN064AAXX  12064 06795 43/// ///// 1//// 2//// 3//// 5//// 333 4/010;
0093067950999992011111218004+46583+009533FM-12+267099999V02099999999999999999N9999999N1+99999+99999999999ADDAJ100099199999999REMSYN064AAXX  12184 06795 43/// ///// 1//// 2//// 3//// 5//// 333 4/009;
0093067950999992011111306004+46583+009533FM-12+267099999V02099999999999999999N9999999N1+99999+99999999999ADDAJ100069199999999REMSYN064AAXX  13064 06795 43/// ///// 1//// 2//// 3//// 5//// 333 4/006;
0093067950999992011111318004+46583+009533FM-12+267099999V02099999999999999999N9999999N1+99999+99999999999ADDAJ100069199999999REMSYN064AAXX  13184 06795 43/// ///// 1//// 2//// 3//// 5//// 333 4/006;
0093067950999992011111406004+46583+009533FM-12+267099999V02099999999999999999N9999999N1+99999+99999999999ADDAJ100069199999999REMSYN064AAXX  14064 06795 43/// ///// 1//// 2//// 3//// 5//// 333 4/006;
0093067950999992011111418004+46583+009533FM-12+267099999V02099999999999999999N9999999N1+99999+99999999999ADDAJ100069199999999REMSYN064AAXX  14184 06795 43/// ///// 1//// 2//// 3//// 5//// 333 4/006;
0093067950999992011111506004+46583+009533FM-12+267099999V02099999999999999999N9999999N1+99999+99999999999ADDAJ100099199999999REMSYN064AAXX  15064 06795 43/// ///// 1//// 2//// 3//// 5//// 333 4/009;
0093067950999992011111518004+46583+009533FM-12+267099999V02099999999999999999N9999999N1+99999+99999999999ADDAJ100079199999999REMSYN064AAXX  15184 06795 43/// ///// 1//// 2//// 3//// 5//// 333 4/007;
0093067950999992011111606004+46583+009533FM-12+267099999V02099999999999999999N9999999N1+99999+99999999999ADDAJ100099199999999REMSYN064AAXX  16064 06795 43/// ///// 1//// 2//// 3//// 5//// 333 4/009;
0093067950999992011111618004+46583+009533FM-12+267099999V02099999999999999999N9999999N1+99999+99999999999ADDAJ100109199999999REMSYN064AAXX  16184 06795 43/// ///// 1//// 2//// 3//// 5//// 333 4/010;
0093067950999992011111706004+46583+009533FM-12+267099999V02099999999999999999N9999999N1+99999+99999999999ADDAJ100129199999999REMSYN064AAXX  17064 06795 43/// ///// 1//// 2//// 3//// 5//// 333 4/012;
0093067950999992011111718004+46583+009533FM-12+267099999V02099999999999999999N9999999N1+99999+99999999999ADDAJ100129199999999REMSYN064AAXX  17184 06795 43/// ///// 1//// 2//// 3//// 5//// 333 4/012;
0093067950999992011111806004+46583+009533FM-12+267099999V02099999999999999999N9999999N1+99999+99999999999ADDAJ100129199999999REMSYN064AAXX  18064 06795 43/// ///// 1//// 2//// 3//// 5//// 333 4/012;
0093067950999992011111818004+46583+009533FM-12+267099999V02099999999999999999N9999999N1+99999+99999999999ADDAJ100119199999999REMSYN064AAXX  18184 06795 43/// ///// 1//// 2//// 3//// 5//// 333 4/011;
0093067950999992011111906004+46583+009533FM-12+267099999V02099999999999999999N9999999N1+99999+99999999999ADDAJ100129199999999REMSYN064AAXX  19064 06795 43/// ///// 1//// 2//// 3//// 5//// 333 4/012;
0093067950999992011111918004+46583+009533FM-12+267099999V02099999999999999999N9999999N1+99999+99999999999ADDAJ100109199999999REMSYN064AAXX  19184 06795 43/// ///// 1//// 2//// 3//// 5//// 333 4/010;
0093067950999992011112006004+46583+009533FM-12+267099999V02099999999999999999N9999999N1+99999+99999999999ADDAJ100119199999999REMSYN064AAXX  20064 06795 43/// ///// 1//// 2//// 3//// 5//// 333 4/011;
0093067950999992011112018004+46583+009533FM-12+267099999V02099999999999999999N9999999N1+99999+99999999999ADDAJ100109199999999REMSYN064AAXX  20184 06795 43/// ///// 1//// 2//// 3//// 5//// 333 4/010;
0093067950999992011112106004+46583+009533FM-12+267099999V02099999999999999999N9999999N1+99999+99999999999ADDAJ100119199999999REMSYN064AAXX  21064 06795 43/// ///// 1//// 2//// 3//// 5//// 333 4/011;
0093067950999992011112118004+46583+009533FM-12+267099999V02099999999999999999N9999999N1+99999+99999999999ADDAJ100109199999999REMSYN064AAXX  21184 06795 43/// ///// 1//// 2//// 3//// 5//// 333 4/010;
0093067950999992011112206004+46583+009533FM-12+267099999V02099999999999999999N9999999N1+99999+99999999999ADDAJ100159199999999REMSYN064AAXX  22064 06795 43/// ///// 1//// 2//// 3//// 5//// 333 4/015;
0102067950999992011112210004+46583+009533FM-12+267099999V0201901N004619999999N9999999N1+00021-00641999999ADDMA1999999073531ME1430659REMSYN066AAXX  22104 06795 43/// /1909 10002 21064 37353 47065 5//// 91020;
0112067950999992011112211004+46583+009533FM-12+267099999V0201801N003619999999N9999999N1+00061-00681999999ADDMA1999999073521ME1430649REMSYN076AAXX  22114 06795 43/// /1807 10006 21068 37352 47064 5//// 333 553// 21498;
0112067950999992011112212004+46583+009533FM-12+267099999V0201701N002619999999N9999999N1+00161-00611999999ADDMA1999999073511ME1430649REMSYN076AAXX  22124 06795 43/// /1705 10016 21061 37351 47064 5//// 333 553// 21519;
0112067950999992011112213004+46583+009533FM-12+267099999V0201601N003119999999N9999999N1+00051-00621999999ADDMA1999999073511ME1430639REMSYN076AAXX  22134 06795 43/// /1606 10005 21062 37351 47063 5//// 333 553// 21325;
0112067950999992011112214004+46583+009533FM-12+267099999V0201701N001519999999N9999999N1+00081-00591999999ADDMA1999999073511ME1430639REMSYN076AAXX  22144 06795 43/// /1703 10008 21059 37351 47063 5//// 333 553// 20990;
0112067950999992011112215004+46583+009533FM-12+267099999V0201801N001019999999N9999999N1+00001-00631999999ADDMA1999999073531ME1430649REMSYN076AAXX  22154 06795 43/// /1802 10000 21063 37353 47064 5//// 333 553// 20518;
0112067950999992011112216004+46583+009533FM-12+267099999V0200401N001519999999N9999999N1-00121-00741999999ADDMA1999999073551ME1430659REMSYN076AAXX  22164 06795 43/// /0403 11012 21074 37355 47065 5//// 333 553// 20047;
0126067950999992011112217004+46583+009533FM-12+267099999V0200401N001519999999N9999999N1-00131-00701999999ADDMA1999999073581MD1319999+9999ME1430689REMSYN076AAXX  22174 06795 43/// /0403 11013 21070 37358 47068 53/// 333 553// 20000;
0112067950999992011112218004+46583+009533FM-12+267099999V0200101N003119999999N9999999N1-00181-00681999999ADDMA1999999073601ME1430699REMSYN076AAXX  22184 06795 43/// /0106 11018 21068 37360 47069 5//// 333 553// 20000;
0096067950999992011112219004+46583+009533FM-12+267099999V0203601N003619999999N9999999N1-00211-00621999999ADDMA1999999073621ME1430719REMSYN060AAXX  22194 06795 43/// /3607 11021 21062 37362 47071 5////;
0112067950999992011112220004+46583+009533FM-12+267099999V0203501N002619999999N9999999N1-00211-00631999999ADDMA1999999073651ME1430749REMSYN076AAXX  22204 06795 43/// /3505 11021 21063 37365 47074 5//// 333 553// 20000;
0096067950999992011112221004+46583+009533FM-12+267099999V0200101N002119999999N9999999N1-00191-00651999999ADDMA1999999073671ME1430769REMSYN060AAXX  22214 06795 43/// /0104 11019 21065 37367 47076 5////;
0112067950999992011112222004+46583+009533FM-12+267099999V0203301N001519999999N9999999N1-00211-00671999999ADDMA1999999073691ME1430789REMSYN076AAXX  22224 06795 43/// /3303 11021 21067 37369 47078 5//// 333 553// 20000;
0112067950999992011112223004+46583+009533FM-12+267099999V0202101N001519999999N9999999N1-00221-00641999999ADDMA1999999073711ME1430809REMSYN076AAXX  22234 06795 43/// /2103 11022 21064 37371 47080 5//// 333 553// 20000;
0112067950999992011112300004+46583+009533FM-12+267099999V0202301N001019999999N9999999N1-00211-00701999999ADDMA1999999073711ME1430809REMSYN076AAXX  23004 06795 43/// /2302 11021 21070 37371 47080 5//// 333 553// 20000;
0112067950999992011112301004+46583+009533FM-12+267099999V0202701N001519999999N9999999N1-00221-00701999999ADDMA1999999073701ME1430799REMSYN076AAXX  23014 06795 43/// /2703 11022 21070 37370 47079 5//// 333 553// 20000;
0112067950999992011112302004+46583+009533FM-12+267099999V0202801N002119999999N9999999N1-00211-00721999999ADDMA1999999073691ME1430789REMSYN076AAXX  23024 06795 43/// /2804 11021 21072 37369 47078 5//// 333 553// 20000;
0112067950999992011112303004+46583+009533FM-12+267099999V0203401N001519999999N9999999N1-00231-00711999999ADDMA1999999073691ME1430789REMSYN076AAXX  23034 06795 43/// /3403 11023 21071 37369 47078 5//// 333 553// 20000;
0112067950999992011112304004+46583+009533FM-12+267099999V0203501N003119999999N9999999N1-00271-00661999999ADDMA1999999073701ME1430789REMSYN076AAXX  23044 06795 43/// /3506 11027 21066 37370 47078 5//// 333 553// 20000;
0112067950999992011112305004+46583+009533FM-12+267099999V0203501N003619999999N9999999N1-00301-00661999999ADDMA1999999073701ME1430789REMSYN076AAXX  23054 06795 43/// /3507 11030 21066 37370 47078 5//// 333 553// 20000;
0131067950999992011112306004+46583+009533FM-12+267099999V0203501N004119999999N9999999N1-00311-00711999999ADDKA1999N-00301MA1999999073731ME1430819REMSYN082AAXX  23064 06795 43/// /3508 11031 21071 37373 47081 5//// 333 21030 553// 20000;
0112067950999992011112307004+46583+009533FM-12+267099999V0203601N004619999999N9999999N1-00301-00661999999ADDMA1999999073771ME1430859REMSYN076AAXX  23074 06795 43/// /3609 11030 21066 37377 47085 5//// 333 553// 20014;
0112067950999992011112308004+46583+009533FM-12+267099999V0200101N004119999999N9999999N1-00321-00641999999ADDMA1999999073831ME1430919REMSYN076AAXX  23084 06795 43/// /0108 11032 21064 37383 47091 5//// 333 553// 20338;
0112067950999992011112309004+46583+009533FM-12+267099999V0203601N004119999999N9999999N1-00251-00631999999ADDMA1999999073851ME1430959REMSYN076AAXX  23094 06795 43/// /3608 11025 21063 37385 47095 5//// 333 553// 20828;
0112067950999992011112310004+46583+009533FM-12+267099999V0200101N002619999999N9999999N1-00201-00711999999ADDMA1999999073881ME1430999REMSYN076AAXX  23104 06795 43/// /0105 11020 21071 37388 47099 5//// 333 553// 21242;
0112067950999992011112311004+46583+009533FM-12+267099999V0200101N002119999999N9999999N1-00191-00711999999ADDMA1999999073871ME1430989REMSYN076AAXX  23114 06795 43/// /0104 11019 21071 37387 47098 5//// 333 553// 21462;
0112067950999992011112312004+46583+009533FM-12+267099999V0200101N001519999999N9999999N1-00141-00711999999ADDMA1999999073861ME1430989REMSYN076AAXX  23124 06795 43/// /0103 11014 21071 37386 47098 5//// 333 553// 21498;
0112067950999992011112313004+46583+009533FM-12+267099999V0203501N001519999999N9999999N1-00131-00721999999ADDMA1999999073861ME1430989REMSYN076AAXX  23134 06795 43/// /3503 11013 21072 37386 47098 5//// 333 553// 21336;
0112067950999992011112314004+46583+009533FM-12+267099999V0203401N001019999999N9999999N1-00171-00691999999ADDMA1999999073871ME1430989REMSYN076AAXX  23144 06795 43/// /3402 11017 21069 37387 47098 5//// 333 553// 20997;
0112067950999992011112315004+46583+009533FM-12+267099999V0203401N001519999999N9999999N1-00151-00621999999ADDMA1999999073901ME1431029REMSYN076AAXX  23154 06795 43/// /3403 11015 21062 37390 47102 5//// 333 553// 20518;
0112067950999992011112316004+46583+009533FM-12+267099999V0203501N003619999999N9999999N1-00271-00661999999ADDMA1999999073931ME1431039REMSYN076AAXX  23164 06795 43/// /3507 11027 21066 37393 47103 5//// 333 553// 20050;
0112067950999992011112317004+46583+009533FM-12+267099999V0203601N004119999999N9999999N1-00321-00661999999ADDMA1999999073971ME1431069REMSYN076AAXX  23174 06795 43/// /3608 11032 21066 37397 47106 5//// 333 553// 20000;
0131067950999992011112318004+46583+009533FM-12+267099999V0200201N003619999999N9999999N1-00321-00631999999ADDKA1120M-00021MA1999999074011ME1431119REMSYN082AAXX  23184 06795 43/// /0207 11032 21063 37401 47111 5//// 333 11002 553// 20000;
0112067950999992011112319004+46583+009533FM-12+267099999V0203601N004119999999N9999999N1-00371-00631999999ADDMA1999999074061ME1431159REMSYN076AAXX  23194 06795 43/// /3608 11037 21063 37406 47115 5//// 333 553// 20000;
0096067950999992011112320004+46583+009533FM-12+267099999V0200101N004619999999N9999999N1-00341-00701999999ADDMA1999999074111ME1431219REMSYN060AAXX  23204 06795 43/// /0109 11034 21070 37411 47121 5////;
0096067950999992011112321004+46583+009533FM-12+267099999V0200201N004119999999N9999999N1-00281-00681999999ADDMA1999999074151ME1431269REMSYN060AAXX  23214 06795 43/// /0208 11028 21068 37415 47126 5////;
0112067950999992011112322004+46583+009533FM-12+267099999V0203501N004119999999N9999999N1-00361-00691999999ADDMA1999999074161ME1431269REMSYN076AAXX  23224 06795 43/// /3508 11036 21069 37416 47126 5//// 333 553// 20000;
0112067950999992011112323004+46583+009533FM-12+267099999V0203401N004119999999N9999999N1-00401-00701999999ADDMA1999999074201ME1431299REMSYN076AAXX  23234 06795 43/// /3408 11040 21070 37420 47129 5//// 333 553// 20000;
0112067950999992011112400004+46583+009533FM-12+267099999V0209999C004119999999N9999999N1-00361-00721999999ADDMA1999999074211ME1431319REMSYN076AAXX  24004 06795 43/// /0008 11036 21072 37421 47131 5//// 333 553// 20000;
0112067950999992011112401004+46583+009533FM-12+267099999V0200101N004619999999N9999999N1-00301-00801999999ADDMA1999999074181ME1431299REMSYN076AAXX  24014 06795 43/// /0109 11030 21080 37418 47129 5//// 333 553// 20000;
0112067950999992011112402004+46583+009533FM-12+267099999V0209999C004619999999N9999999N1-00341-00771999999ADDMA1999999074191ME1431299REMSYN076AAXX  24024 06795 43/// /0009 11034 21077 37419 47129 5//// 333 553// 20000;
0112067950999992011112403004+46583+009533FM-12+267099999V0203501N004619999999N9999999N1-00381-00811999999ADDMA1999999074191ME1431299REMSYN076AAXX  24034 06795 43/// /3509 11038 21081 37419 47129 5//// 333 553// 20000;
0112067950999992011112404004+46583+009533FM-12+267099999V0203501N004619999999N9999999N1-00401-00881999999ADDMA1999999074201ME1431299REMSYN076AAXX  24044 06795 43/// /3509 11040 21088 37420 47129 5//// 333 553// 20000;
0149067950999992011112405004+46583+009533FM-12+267099999V0203501N005119999999N9999999N1-00441-00941999999ADDMA1999999074231MD1310041+9999ME1431329OA149900671REMSYN088AAXX  24054 06795 43/// /3510 11044 21094 37423 47132 53004 333 55300 20000 91113 91210;
0168067950999992011112406004+46583+009533FM-12+267099999V0203501N004619999999N9999999N1-00451-00961999999ADDKA1999N-00461MA1999999074271MD1219999+9999ME1431369OA149900671REMSYN094AAXX  24064 06795 43/// /3509 11045 21096 37427 47136 52/// 333 21046 55300 20000 91113 91210;
0149067950999992011112407004+46583+009533FM-12+267099999V0203501N004119999999N9999999N1-00431-00951999999ADDMA1999999074311MD1319999+9999ME1431409OA149900721REMSYN088AAXX  24074 06795 43/// /3508 11043 21095 37431 47140 53/// 333 55300 20011 91114 91210;
0112067950999992011112408004+46583+009533FM-12+267099999V0203601N005719999999N9999999N1-00361-01061999999ADDMA1999999074341ME1431459REMSYN076AAXX  24084 06795 43/// /3611 11036 21106 37434 47145 5//// 333 553// 20335;
0112067950999992011112409004+46583+009533FM-12+267099999V0200301N003619999999N9999999N1-00231-01391999999ADDMA1999999074401ME1431539REMSYN076AAXX  24094 06795 43/// /0307 11023 21139 37440 47153 5//// 333 553// 20853;
0112067950999992011112410004+46583+009533FM-12+267099999V0200301N001519999999N9999999N1-00181-01621999999ADDMA1999999074411ME1431559REMSYN076AAXX  24104 06795 43/// /0303 11018 21162 37441 47155 5//// 333 553// 21264;
0112067950999992011112411004+46583+009533FM-12+267099999V0201801N001019999999N9999999N1+00121-01031999999ADDMA1999999074391ME1431599REMSYN076AAXX  24114 06795 43/// /1802 10012 21103 37439 47159 5//// 333 553// 21490;
0112067950999992011112412004+46583+009533FM-12+267099999V0201701N002119999999N9999999N1+00091-00781999999ADDMA1999999074381ME1431579REMSYN076AAXX  24124 06795 43/// /1704 10009 21078 37438 47157 5//// 333 553// 21519;
0112067950999992011112413004+46583+009533FM-12+267099999V0201801N002119999999N9999999N1+00151-00891999999ADDMA1999999074381ME1431589REMSYN076AAXX  24134 06795 43/// /1804 10015 21089 37438 47158 5//// 333 553// 21343;
0118067950999992011112414004+46583+009533FM-12+267099999V0201901N002119999999N9999999N1+00201-00951999999ADDMA1999999074381ME1431599REMSYN082AAXX  24144 06795 43/// /1904 10020 21095 37438 47159 5//// 91340 333 553// 21084;
0112067950999992011112415004+46583+009533FM-12+267099999V0201701N001019999999N9999999N1+00101-01201999999ADDMA1999999074371ME1431569REMSYN076AAXX  24154 06795 43/// /1702 10010 21120 37437 47156 5//// 333 553// 20529;
0112067950999992011112416004+46583+009533FM-12+267099999V0200801N001019999999N9999999N1+00031-01411999999ADDMA1999999074391ME1431579REMSYN076AAXX  24164 06795 43/// /0802 10003 21141 37439 47157 5//// 333 553// 20036;
0112067950999992011112417004+46583+009533FM-12+267099999V0202801N001019999999N9999999N1+00031-01561999999ADDMA1999999074421ME1431609REMSYN076AAXX  24174 06795 43/// /2802 10003 21156 37442 47160 5//// 333 553// 20000;
0131067950999992011112418004+46583+009533FM-12+267099999V0201701N001019999999N9999999N1+00001-01491999999ADDKA1120M+00241MA1999999074441ME1431629REMSYN082AAXX  24184 06795 43/// /1702 10000 21149 37444 47162 5//// 333 10024 553// 20000;
0112067950999992011112419004+46583+009533FM-12+267099999V0201901N002619999999N9999999N1-00011-01571999999ADDMA1999999074451ME1431639REMSYN076AAXX  24194 06795 43/// /1905 11001 21157 37445 47163 5//// 333 553// 20000;
0096067950999992011112420004+46583+009533FM-12+267099999V0201801N002119999999N9999999N1+00061-01821999999ADDMA1999999074451ME1431649REMSYN060AAXX  24204 06795 43/// /1804 10006 21182 37445 47164 5////;
0096067950999992011112421004+46583+009533FM-12+267099999V0202001N001519999999N9999999N1+00081-01901999999ADDMA1999999074441ME1431639REMSYN060AAXX  24214 06795 43/// /2003 10008 21190 37444 47163 5////;
0112067950999992011112422004+46583+009533FM-12+267099999V0202101N000519999999N9999999N1+00131-02031999999ADDMA1999999074421ME1431629REMSYN076AAXX  24224 06795 43/// /2101 10013 21203 37442 47162 5//// 333 553// 20000;
0112067950999992011112423004+46583+009533FM-12+267099999V0201901N002619999999N9999999N1+00041-02001999999ADDMA1999999074401ME1431589REMSYN076AAXX  24234 06795 43/// /1905 10004 21200 37440 47158 5//// 333 553// 20000;
0112067950999992011112500004+46583+009533FM-12+267099999V0202001N002119999999N9999999N1+00051-02021999999ADDMA1999999074371ME1431559REMSYN076AAXX  25004 06795 43/// /2004 10005 21202 37437 47155 5//// 333 553// 20000;
0112067950999992011112501004+46583+009533FM-12+267099999V0201901N001519999999N9999999N1+00051-02131999999ADDMA1999999074361ME1431549REMSYN076AAXX  25014 06795 43/// /1903 10005 21213 37436 47154 5//// 333 553// 20000;
0112067950999992011112502004+46583+009533FM-12+267099999V0202101N001519999999N9999999N1+00081-02181999999ADDMA1999999074341ME1431539REMSYN076AAXX  25024 06795 43/// /2103 10008 21218 37434 47153 5//// 333 553// 20000;
0112067950999992011112503004+46583+009533FM-12+267099999V0202601N001519999999N9999999N1+00081-02281999999ADDMA1999999074331ME1431529REMSYN076AAXX  25034 06795 43/// /2603 10008 21228 37433 47152 5//// 333 553// 20000;
0112067950999992011112504004+46583+009533FM-12+267099999V0202501N001019999999N9999999N1+00111-02411999999ADDMA1999999074311ME1431509REMSYN076AAXX  25044 06795 43/// /2502 10011 21241 37431 47150 5//// 333 553// 20000;
0149067950999992011112505004+46583+009533FM-12+267099999V0203501N001019999999N9999999N1+00121-02481999999ADDMA1999999074321MD1519999+9999ME1431519OA149900151REMSYN088AAXX  25054 06795 43/// /3502 10012 21248 37432 47151 55/// 333 55300 20000 91103 91202;
0182067950999992011112506004+46583+009533FM-12+267099999V0203401N002619999999N9999999N1+00101-02511999999ADDGJ104449KA1999N-00041MA1999999074311MD1719999+9999ME1431509OA149900511REMSYN100AAXX  25064 06795 43/// /3405 10010 21251 37431 47150 57/// 333 21004 55074 55300 20000 91110 91206;
0112067950999992011112507004+46583+009533FM-12+267099999V0203501N003619999999N9999999N1+00071-02431999999ADDMA1999999074331ME1431519REMSYN076AAXX  25074 06795 43/// /3507 10007 21243 37433 47151 5//// 333 553// 20011;
0112067950999992011112508004+46583+009533FM-12+267099999V0203501N004119999999N9999999N1+00121-02441999999ADDMA1999999074381ME1431589REMSYN076AAXX  25084 06795 43/// /3508 10012 21244 37438 47158 5//// 333 553// 20338;
0149067950999992011112509004+46583+009533FM-12+267099999V0200201N002119999999N9999999N1+00071-02291999999ADDMA1999999074401MD1219999+9999ME1431599OA149900671REMSYN088AAXX  25094 06795 43/// /0204 10007 21229 37440 47159 52/// 333 55308 20832 91113 91208;
0149067950999992011112510004+46583+009533FM-12+267099999V0200101N001019999999N9999999N1+00141-02271999999ADDMA1999999074411MD1119999+9999ME1431619OA149900461REMSYN088AAXX  25104 06795 43/// /0102 10014 21227 37441 47161 51/// 333 55308 21231 91109 91204;
0112067950999992011112511004+46583+009533FM-12+267099999V0203101N001019999999N9999999N1+00271-01811999999ADDMA1999999074381ME1431609REMSYN076AAXX  25114 06795 43/// /3102 10027 21181 37438 47160 5//// 333 553// 21462;
0112067950999992011112512004+46583+009533FM-12+267099999V0203401N001519999999N9999999N1+00181-01951999999ADDMA1999999074361ME1431579REMSYN076AAXX  25124 06795 43/// /3403 10018 21195 37436 47157 5//// 333 553// 21490;
0112067950999992011112513004+46583+009533FM-12+267099999V0203101N001019999999N9999999N1+00181-02061999999ADDMA1999999074321ME1431529REMSYN076AAXX  25134 06795 43/// /3102 10018 21206 37432 47152 5//// 333 553// 21321;
0112067950999992011112514004+46583+009533FM-12+267099999V0203301N002119999999N9999999N1+00151-02081999999ADDMA1999999074321ME1431529REMSYN076AAXX  25144 06795 43/// /3304 10015 21208 37432 47152 5//// 333 553// 20986;
0112067950999992011112515004+46583+009533FM-12+267099999V0209999C003119999999N9999999N1+00061-02021999999ADDMA1999999074291ME1431479REMSYN076AAXX  25154 06795 43/// /0006 10006 21202 37429 47147 5//// 333 553// 20511;
0112067950999992011112516004+46583+009533FM-12+267099999V0209999C004619999999N9999999N1-00031-01871999999ADDMA1999999074291ME1431459REMSYN076AAXX  25164 06795 43/// /0009 11003 21187 37429 47145 5//// 333 553// 20047;
0149067950999992011112517004+46583+009533FM-12+267099999V0203501N005119999999N9999999N1-00061-01681999999ADDMA1999999074341MD1319999+9999ME1431509OA149900721REMSYN088AAXX  25174 06795 43/// /3510 11006 21168 37434 47150 53/// 333 55300 20000 91114 91209;
0168067950999992011112518004+46583+009533FM-12+267099999V0209999C003619999999N9999999N1-00141-01541999999ADDKA1120M+00331MA1999999074331MD1019999+9999ME1431489OA149900771REMSYN094AAXX  25184 06795 43/// /0007 11014 21154 37433 47148 50/// 333 10033 55300 20000 91115 91211;
0112067950999992011112519004+46583+009533FM-12+267099999V0203401N004119999999N9999999N1-00161-01541999999ADDMA1999999074331ME1431479REMSYN076AAXX  25194 06795 43/// /3408 11016 21154 37433 47147 5//// 333 553// 20000;
0112067950999992011112520004+46583+009533FM-12+267099999V0200101N004119999999N9999999N1-00151-01511999999ADDMA1999999074341ME1431489REMSYN076AAXX  25204 06795 43/// /0108 11015 21151 37434 47148 5//// 333 553// 20000;
0096067950999992011112521004+46583+009533FM-12+267099999V0200101N005119999999N9999999N1-00201-01431999999ADDMA1999999074331ME1431469REMSYN060AAXX  25214 06795 43/// /0110 11020 21143 37433 47146 5////;
0112067950999992011112522004+46583+009533FM-12+267099999V0203601N004119999999N9999999N1-00251-01391999999ADDMA1999999074341ME1431479REMSYN076AAXX  25224 06795 43/// /3608 11025 21139 37434 47147 5//// 333 553// 20000;
0112067950999992011112523004+46583+009533FM-12+267099999V0203501N004119999999N9999999N1-00281-01381999999ADDMA1999999074321ME1431449REMSYN076AAXX  25234 06795 43/// /3508 11028 21138 37432 47144 5//// 333 553// 20000;
0112067950999992011112600004+46583+009533FM-12+267099999V0200201N005119999999N9999999N1-00321-01391999999ADDMA1999999074301ME1431419REMSYN076AAXX  26004 06795 43/// /0210 11032 21139 37430 47141 5//// 333 553// 20000;
0096067950999992011112601004+46583+009533FM-12+267099999V0200101N004119999999N9999999N1-00361-01391999999ADDMA1999999074291ME1431399REMSYN060AAXX  26014 06795 43/// /0108 11036 21139 37429 47139 5////;
0096067950999992011112602004+46583+009533FM-12+267099999V0200101N003619999999N9999999N1-00321-01521999999ADDMA1999999074291ME1431409REMSYN060AAXX  26024 06795 43/// /0107 11032 21152 37429 47140 5////;
0112067950999992011112603004+46583+009533FM-12+267099999V0203601N003619999999N9999999N1-00401-01431999999ADDMA1999999074311ME1431419REMSYN076AAXX  26034 06795 43/// /3607 11040 21143 37431 47141 5//// 333 553// 20000;
0112067950999992011112604004+46583+009533FM-12+267099999V0200301N003619999999N9999999N1-00341-01681999999ADDMA1999999074311ME1431429REMSYN076AAXX  26044 06795 43/// /0307 11034 21168 37431 47142 5//// 333 553// 20000;
0112067950999992011112605004+46583+009533FM-12+267099999V0200501N001519999999N9999999N1-00271-01751999999ADDMA1999999074301ME1431429REMSYN076AAXX  26054 06795 43/// /0503 11027 21175 37430 47142 5//// 333 553// 20000;
0125067950999992011112606004+46583+009533FM-12+267099999V0203501N005119999999N9999999N1-00491-01501999999ADDKA1999N-00481MA1999999074281ME1431369REMSYN076AAXX  26064 06795 43/// /3510 11049 21150 37428 47136 5//// 333 21048 55074;
0112067950999992011112607004+46583+009533FM-12+267099999V0200301N004119999999N9999999N1-00411-01581999999ADDMA1999999074371ME1431479REMSYN076AAXX  26074 06795 43/// /0308 11041 21158 37437 47147 5//// 333 553// 20011;
0112067950999992011112608004+46583+009533FM-12+267099999V0203501N002119999999N9999999N1-00291-01451999999ADDMA1999999074401ME1431529REMSYN076AAXX  26084 06795 43/// /3504 11029 21145 37440 47152 5//// 333 553// 20284;
0112067950999992011112609004+46583+009533FM-12+267099999V0203301N002619999999N9999999N1-00271-01421999999ADDMA1999999074461ME1431599REMSYN076AAXX  26094 06795 43/// /3305 11027 21142 37446 47159 5//// 333 553// 20724;
0112067950999992011112610004+46583+009533FM-12+267099999V0203301N001019999999N9999999N1-00241-01521999999ADDMA1999999074471ME1431619REMSYN076AAXX  26104 06795 43/// /3302 11024 21152 37447 47161 5//// 333 553// 21145;
0112067950999992011112611004+46583+009533FM-12+267099999V0203201N001519999999N9999999N1-00011-01721999999ADDMA1999999074421ME1431609REMSYN076AAXX  26114 06795 43/// /3203 11001 21172 37442 47160 5//// 333 553// 21375;
0112067950999992011112612004+46583+009533FM-12+267099999V0201901N001019999999N9999999N1-00061-01081999999ADDMA1999999074441ME1431619REMSYN076AAXX  26124 06795 43/// /1902 11006 21108 37444 47161 5//// 333 553// 21375;
0112067950999992011112613004+46583+009533FM-12+267099999V0202901N001019999999N9999999N1-00021-01701999999ADDMA1999999074401ME1431579REMSYN076AAXX  26134 06795 43/// /2902 11002 21170 37440 47157 5//// 333 553// 21138;
0112067950999992011112614004+46583+009533FM-12+267099999V0203301N001519999999N9999999N1-00041-01861999999ADDMA1999999074391ME1431569REMSYN076AAXX  26144 06795 43/// /3303 11004 21186 37439 47156 5//// 333 553// 20799;
0112067950999992011112615004+46583+009533FM-12+267099999V0203301N001519999999N9999999N1-00111-01711999999ADDMA1999999074391ME1431549REMSYN076AAXX  26154 06795 43/// /3303 11011 21171 37439 47154 5//// 333 553// 20277;
0149067950999992011112616004+46583+009533FM-12+267099999V0203201N001519999999N9999999N1-00101-01781999999ADDMA1999999074391MD1019999+9999ME1431559OA149900361REMSYN088AAXX  26164 06795 43/// /3203 11010 21178 37439 47155 50/// 333 553// 20029 91107 91205;
0112067950999992011112617004+46583+009533FM-12+267099999V0203401N004619999999N9999999N1-00151-01791999999ADDMA1999999074441ME1431599REMSYN076AAXX  26174 06795 43/// /3409 11015 21179 37444 47159 5//// 333 553// 20000;
0131067950999992011112618004+46583+009533FM-12+267099999V0203401N003619999999N9999999N1-00081-01901999999ADDKA1120M+00121MA1999999074461ME1431629REMSYN082AAXX  26184 06795 43/// /3407 11008 21190 37446 47162 5//// 333 10012 553// 20000;
0112067950999992011112619004+46583+009533FM-12+267099999V0203501N003119999999N9999999N1-00041-01941999999ADDMA1999999074471ME1431649REMSYN076AAXX  26194 06795 43/// /3506 11004 21194 37447 47164 5//// 333 553// 20000;
0112067950999992011112620004+46583+009533FM-12+267099999V0203601N003119999999N9999999N1-00011-01971999999ADDMA1999999074461ME1431649REMSYN076AAXX  26204 06795 43/// /3606 11001 21197 37446 47164 5//// 333 553// 20000;
0096067950999992011112621004+46583+009533FM-12+267099999V0203501N003119999999N9999999N1+00031-01771999999ADDMA1999999074471ME1431669REMSYN060AAXX  26214 06795 43/// /3506 10003 21177 37447 47166 5////;
0112067950999992011112622004+46583+009533FM-12+267099999V0203001N002119999999N9999999N1+00111-01271999999ADDMA1999999074461ME1431669REMSYN076AAXX  26224 06795 43/// /3004 10011 21127 37446 47166 5//// 333 553// 20000;
0112067950999992011112623004+46583+009533FM-12+267099999V0203101N001519999999N9999999N1+00151-01161999999ADDMA1999999074471ME1431689REMSYN076AAXX  26234 06795 43/// /3103 10015 21116 37447 47168 5//// 333 553// 20000;
0112067950999992011112700004+46583+009533FM-12+267099999V0203401N002619999999N9999999N1+00141-01081999999ADDMA1999999074461ME1431679REMSYN076AAXX  27004 06795 43/// /3405 10014 21108 37446 47167 5//// 333 553// 20000;
0112067950999992011112701004+46583+009533FM-12+267099999V0203501N003119999999N9999999N1+00131-01161999999ADDMA1999999074451ME1431659REMSYN076AAXX  27014 06795 43/// /3506 10013 21116 37445 47165 5//// 333 553// 20000;
0096067950999992011112702004+46583+009533FM-12+267099999V0200101N004619999999N9999999N1+00131-01141999999ADDMA1999999074441ME1431649REMSYN060AAXX  27024 06795 43/// /0109 10013 21114 37444 47164 5////;
0112067950999992011112703004+46583+009533FM-12+267099999V0203601N003119999999N9999999N1+00171-01121999999ADDMA1999999074401ME1431619REMSYN076AAXX  27034 06795 43/// /3606 10017 21112 37440 47161 5//// 333 553// 20000;
0096067950999992011112704004+46583+009533FM-12+267099999V0203301N001019999999N9999999N1+00291-01501999999ADDMA1999999074381ME1431619REMSYN060AAXX  27044 06795 43/// /3302 10029 21150 37438 47161 5////;
0112067950999992011112705004+46583+009533FM-12+267099999V0202701N001019999999N9999999N1+00311-01871999999ADDMA1999999074391ME1431629REMSYN076AAXX  27054 06795 43/// /2702 10031 21187 37439 47162 5//// 333 553// 20000;
0145067950999992011112706004+46583+009533FM-12+267099999V0202401N000519999999N9999999N1+00381-02511999999ADDGJ103909KA1999N-00091MA1999999074371ME1431619REMSYN088AAXX  27064 06795 43/// /2401 10038 21251 37437 47161 5//// 333 21009 55065 553// 20000;
0149067950999992011112707004+46583+009533FM-12+267099999V0202001N001019999999N9999999N1+00501-03432999999ADDMA1999999074371MD1719999+9999ME1431649OA149900261REMSYN088AAXX  27074 06795 43/// /2002 10050 21343 37437 47164 57/// 333 55300 20004 91105 91203;
0112067950999992011112708004+46583+009533FM-12+267099999V0202101N002119999999N9999999N1+00561-03291999999ADDMA1999999074401ME1431689REMSYN076AAXX  27084 06795 43/// /2104 10056 21329 37440 47168 5//// 333 553// 20299;
0112067950999992011112709004+46583+009533FM-12+267099999V0201801N001519999999N9999999N1+00751-02202999999ADDMA1999999074411ME1431739REMSYN076AAXX  27094 06795 43/// /1803 10075 21220 37441 47173 5//// 333 553// 20803;
0149067950999992011112710004+46583+009533FM-12+267099999V0201901N002619999999N9999999N1+00761-02571999999ADDMA1999999074411MD1219999+9999ME1431739OA149900361REMSYN088AAXX  27104 06795 43/// /1905 10076 21257 37441 47173 52/// 333 55308 21202 91107 91205;
0149067950999992011112711004+46583+009533FM-12+267099999V0201701N002119999999N9999999N1+00781-01691999999ADDMA1999999074361MD1819999+9999ME1431689OA149900461REMSYN088AAXX  27114 06795 43/// /1704 10078 21169 37436 47168 58/// 333 55308 21433 91109 91205;
0112067950999992011112712004+46583+009533FM-12+267099999V0201601N002119999999N9999999N1+00891-01521999999ADDMA1999999074331ME1431669REMSYN076AAXX  27124 06795 43/// /1604 10089 21152 37433 47166 5//// 333 553// 21469;
0149067950999992011112713004+46583+009533FM-12+267099999V0201801N001519999999N9999999N1+00681-01341999999ADDMA1999999074291MD1619999+9999ME1431589OA149900411REMSYN088AAXX  27134 06795 43/// /1803 10068 21134 37429 47158 56/// 333 55308 21300 91108 91204;
0112067950999992011112714004+46583+009533FM-12+267099999V0202001N001519999999N9999999N1+00601-01581999999ADDMA1999999074261ME1431539REMSYN076AAXX  27144 06795 43/// /2003 10060 21158 37426 47153 5//// 333 553// 20965;
0149067950999992011112715004+46583+009533FM-12+267099999V0203401N001019999999N9999999N1+00451-01961999999ADDMA1999999074251MD1619999+9999ME1431509OA149900411REMSYN088AAXX  27154 06795 43/// /3402 10045 21196 37425 47150 56/// 333 553// 20497 91108 91204;
0149067950999992011112716004+46583+009533FM-12+267099999V0203501N002619999999N9999999N1+00241-01601999999ADDMA1999999074271MD1510021+9999ME1431489OA149900361REMSYN088AAXX  27164 06795 43/// /3505 10024 21160 37427 47148 55002 333 55300 20043 91107 91204;
0149067950999992011112717004+46583+009533FM-12+267099999V0203501N002619999999N9999999N1+00161-01211999999ADDMA1999999074291MD1219999+9999ME1431499OA149900411REMSYN088AAXX  27174 06795 43/// /3505 10016 21121 37429 47149 52/// 333 55300 20000 91108 91206;
0168067950999992011112718004+46583+009533FM-12+267099999V0203601N004119999999N9999999N1+00091-01161999999ADDKA1120M+00891MA1999999074281MD1219999+9999ME1431469OA149900461REMSYN094AAXX  27184 06795 43/// /3608 10009 21116 37428 47146 52/// 333 10089 55300 20000 91109 91207;
0149067950999992011112719004+46583+009533FM-12+267099999V0200101N005719999999N9999999N1-00011-01061999999ADDMA1999999074281MD1219999+9999ME1431459OA149900771REMSYN088AAXX  27194 06795 43/// /0111 11001 21106 37428 47145 52/// 333 55300 20000 91115 91211;
0112067950999992011112720004+46583+009533FM-12+267099999V0200201N005119999999N9999999N1-00041-00931999999ADDMA1999999074291ME1431459REMSYN076AAXX  27204 06795 43/// /0210 11004 21093 37429 47145 5//// 333 553// 20000;
0096067950999992011112721004+46583+009533FM-12+267099999V0203601N003619999999N9999999N1-00061-00931999999ADDMA1999999074281ME1431449REMSYN060AAXX  27214 06795 43/// /3607 11006 21093 37428 47144 5////;
0112067950999992011112722004+46583+009533FM-12+267099999V0203301N003119999999N9999999N1+00021-00941999999ADDMA1999999074251ME1431429REMSYN076AAXX  27224 06795 43/// /3306 10002 21094 37425 47142 5//// 333 553// 20000;
0112067950999992011112723004+46583+009533FM-12+267099999V0200301N002619999999N9999999N1+00051-00881999999ADDMA1999999074231ME1431409REMSYN076AAXX  27234 06795 43/// /0305 10005 21088 37423 47140 5//// 333 553// 20000;
0149067950999992011112800004+46583+009533FM-12+267099999V0200201N002619999999N9999999N1+00021-00881999999ADDMA1999999074201MD1819999+9999ME1431379OA149900771REMSYN088AAXX  28004 06795 43/// /0205 10002 21088 37420 47137 58/// 333 55300 20000 91115 91212;
0112067950999992011112801004+46583+009533FM-12+267099999V0203501N003119999999N9999999N1-00071-00991999999ADDMA1999999074201ME1431359REMSYN076AAXX  28014 06795 43/// /3506 11007 21099 37420 47135 5//// 333 553// 20000;
0112067950999992011112802004+46583+009533FM-12+267099999V0200301N001519999999N9999999N1-00021-00891999999ADDMA1999999074191ME1431359REMSYN076AAXX  28024 06795 43/// /0303 11002 21089 37419 47135 5//// 333 553// 20000;
0112067950999992011112803004+46583+009533FM-12+267099999V0203401N004119999999N9999999N1+00041-00641999999ADDMA1999999074151ME1431329REMSYN076AAXX  28034 06795 43/// /3408 10004 21064 37415 47132 5//// 333 553// 20000;
0149067950999992011112804004+46583+009533FM-12+267099999V0200201N002119999999N9999999N1+00081-00601999999ADDMA1999999074131MD1819999+9999ME1431309OA149900461REMSYN088AAXX  28044 06795 43/// /0204 10008 21060 37413 47130 58/// 333 55300 20000 91109 91206;
0149067950999992011112805004+46583+009533FM-12+267099999V0200201N005719999999N9999999N1+00011-00731999999ADDMA1999999074131MD1719999+9999ME1431299OA149900671REMSYN088AAXX  28054 06795 43/// /0211 10001 21073 37413 47129 57/// 333 55300 20000 91113 91211;
0182067950999992011112806004+46583+009533FM-12+267099999V0200101N005119999999N9999999N1-00061-00711999999ADDGJ104269KA1999N-00091MA1999999074131MD1719999+9999ME1431289OA149900721REMSYN100AAXX  28064 06795 43/// /0110 11006 21071 37413 47128 57/// 333 21009 55071 55300 20000 91114 91212;
0112067950999992011112807004+46583+009533FM-12+267099999V0203501N004119999999N9999999N1-00091-00701999999ADDMA1999999074141ME1431289REMSYN076AAXX  28074 06795 43/// /3508 11009 21070 37414 47128 5//// 333 553// 20004;
0112067950999992011112808004+46583+009533FM-12+267099999V0200501N002619999999N9999999N1+00101-01311999999ADDMA1999999074161ME1431349REMSYN076AAXX  28084 06795 43/// /0505 10010 21131 37416 47134 5//// 333 553// 20353;
0112067950999992011112809004+46583+009533FM-12+267099999V0201601N001519999999N9999999N1+00171-00761999999ADDMA1999999074171ME1431369REMSYN076AAXX  28094 06795 43/// /1603 10017 21076 37417 47136 5//// 333 553// 20911;
0149067950999992011112810004+46583+009533FM-12+267099999V0201801N002619999999N9999999N1+00331-00691999999ADDMA1999999074191MD1119999+9999ME1431419OA149900411REMSYN088AAXX  28104 06795 43/// /1805 10033 21069 37419 47141 51/// 333 55308 21166 91108 91205;
0149067950999992011112811004+46583+009533FM-12+267099999V0202001N004619999999N9999999N1+00291-00951999999ADDMA1999999074161MD1819999+9999ME1431379OA149900721REMSYN088AAXX  28114 06795 43/// /2009 10029 21095 37416 47137 58/// 333 55307 21480 91114 91209;
0112067950999992011112812004+46583+009533FM-12+267099999V0201801N004619999999N9999999N1+00251-00821999999ADDMA1999999074121ME1431329REMSYN076AAXX  28124 06795 43/// /1809 10025 21082 37412 47132 5//// 333 553// 20904;
0112067950999992011112813004+46583+009533FM-12+267099999V0202001N007219999999N9999999N1+00281-00791999999ADDMA1999999074071ME1431279REMSYN076AAXX  28134 06795 43/// /2014 10028 21079 37407 47127 5//// 333 553// 21062;
0112067950999992011112814004+46583+009533FM-12+267099999V0202001N005119999999N9999999N1+00231-00891999999ADDMA1999999074071ME1431269REMSYN076AAXX  28144 06795 43/// /2010 10023 21089 37407 47126 5//// 333 553// 20716;
0112067950999992011112815004+46583+009533FM-12+267099999V0202101N006219999999N9999999N1+00111-00941999999ADDMA1999999074051ME1431229REMSYN076AAXX  28154 06795 43/// /2112 10011 21094 37405 47122 5//// 333 553// 20281;
0149067950999992011112816004+46583+009533FM-12+267099999V0202001N008219999999N9999999N1+00081-01021999999ADDMA1999999074041MD1719999+9999ME1431209OA149901081REMSYN088AAXX  28164 06795 43/// /2016 10008 21102 37404 47120 57/// 333 55300 20014 91121 91216;
0149067950999992011112817004+46583+009533FM-12+267099999V0201901N005119999999N9999999N1+00041-01081999999ADDMA1999999074071MD1519999+9999ME1431239OA149901131REMSYN088AAXX  28174 06795 43/// /1910 10004 21108 37407 47123 55/// 333 55300 20000 91122 91216;
0131067950999992011112818004+46583+009533FM-12+267099999V0202001N007719999999N9999999N1+00051-01061999999ADDKA1120M+00351MA1999999074071ME1431239REMSYN082AAXX  28184 06795 43/// /2015 10005 21106 37407 47123 5//// 333 10035 553// 20000;
0112067950999992011112819004+46583+009533FM-12+267099999V0202001N005719999999N9999999N1+00071-01111999999ADDMA1999999074081ME1431259REMSYN076AAXX  28194 06795 43/// /2011 10007 21111 37408 47125 5//// 333 553// 20000;
0112067950999992011112820004+46583+009533FM-12+267099999V0202001N004619999999N9999999N1+00081-01121999999ADDMA1999999074091ME1431269REMSYN076AAXX  28204 06795 43/// /2009 10008 21112 37409 47126 5//// 333 553// 20000;
0096067950999992011112821004+46583+009533FM-12+267099999V0201901N003619999999N9999999N1+00061-01091999999ADDMA1999999074091ME1431269REMSYN060AAXX  28214 06795 43/// /1907 10006 21109 37409 47126 5////;
0112067950999992011112822004+46583+009533FM-12+267099999V0202001N004619999999N9999999N1+00081-01051999999ADDMA1999999074071ME1431249REMSYN076AAXX  28224 06795 43/// /2009 10008 21105 37407 47124 5//// 333 553// 20000;
0112067950999992011112823004+46583+009533FM-12+267099999V0201901N004619999999N9999999N1+00031-01021999999ADDMA1999999074061ME1431229REMSYN076AAXX  28234 06795 43/// /1909 10003 21102 37406 47122 5//// 333 553// 20000;
0149067950999992011112900004+46583+009533FM-12+267099999V0201901N004619999999N9999999N1+00031-01021999999ADDMA1999999074041MD1819999+9999ME1431209OA149901031REMSYN088AAXX  29004 06795 43/// /1909 10003 21102 37404 47120 58/// 333 55300 20000 91120 91215;
0112067950999992011112901004+46583+009533FM-12+267099999V0201801N005119999999N9999999N1+00031-01031999999ADDMA1999999074011ME1431169REMSYN076AAXX  29014 06795 43/// /1810 10003 21103 37401 47116 5//// 333 553// 20000;
0112067950999992011112902004+46583+009533FM-12+267099999V0202001N003619999999N9999999N1+00051-00981999999ADDMA1999999074011ME1431179REMSYN076AAXX  29024 06795 43/// /2007 10005 21098 37401 47117 5//// 333 553// 20000;
0112067950999992011112903004+46583+009533FM-12+267099999V0202001N004119999999N9999999N1+00051-00991999999ADDMA1999999073971ME1431129REMSYN076AAXX  29034 06795 43/// /2008 10005 21099 37397 47112 5//// 333 553// 20000;
0112067950999992011112904004+46583+009533FM-12+267099999V0202101N004119999999N9999999N1+00071-00981999999ADDMA1999999073971ME1431139REMSYN076AAXX  29044 06795 43/// /2108 10007 21098 37397 47113 5//// 333 553// 20000;
0149067950999992011112905004+46583+009533FM-12+267099999V0202001N006219999999N9999999N1+00031-01021999999ADDMA1999999073941MD1719999+9999ME1431099OA149900771REMSYN088AAXX  29054 06795 43/// /2012 10003 21102 37394 47109 57/// 333 55300 20000 91115 91212;
0131067950999992011112906004+46583+009533FM-12+267099999V0202001N006719999999N9999999N1+00011-01021999999ADDKA1999N+00011MA1999999073941ME1431099REMSYN082AAXX  29064 06795 43/// /2013 10001 21102 37394 47109 5//// 333 20001 553// 20000;
0112067950999992011112907004+46583+009533FM-12+267099999V0202001N007219999999N9999999N1+00031-01141999999ADDMA1999999073951ME1431109REMSYN076AAXX  29074 06795 43/// /2014 10003 21114 37395 47110 5//// 333 553// 20000;
0112067950999992011112908004+46583+009533FM-12+267099999V0202001N006719999999N9999999N1+00101-01441999999ADDMA1999999073971ME1431139REMSYN076AAXX  29084 06795 43/// /2013 10010 21144 37397 47113 5//// 333 553// 20317;
0112067950999992011112909004+46583+009533FM-12+267099999V0201901N005719999999N9999999N1+00161-01311999999ADDMA1999999074001ME1431189REMSYN076AAXX  29094 06795 43/// /1911 10016 21131 37400 47118 5//// 333 553// 20695;
0126067950999992011112910004+46583+009533FM-12+267099999V0202001N007219999999N9999999N1+00191-01461999999ADDMA1999999074001MD1119999+9999ME1431189REMSYN076AAXX  29104 06795 43/// /2014 10019 21146 37400 47118 51/// 333 553// 21037;
0112067950999992011112911004+46583+009533FM-12+267099999V0202101N006719999999N9999999N1+00211-01491999999ADDMA1999999073971ME1431159REMSYN076AAXX  29114 06795 43/// /2113 10021 21149 37397 47115 5//// 333 553// 20950;
0112067950999992011112912004+46583+009533FM-12+267099999V0202001N006719999999N9999999N1+00141-01451999999ADDMA1999999073931ME1431109REMSYN076AAXX  29124 06795 43/// /2013 10014 21145 37393 47110 5//// 333 553// 20889;
0112067950999992011112913004+46583+009533FM-12+267099999V0202001N007719999999N9999999N1+00141-01351999999ADDMA1999999073901ME1431069REMSYN076AAXX  29134 06795 43/// /2015 10014 21135 37390 47106 5//// 333 553// 20659;
0112067950999992011112914004+46583+009533FM-12+267099999V0202101N008219999999N9999999N1+00141-01331999999ADDMA1999999073881ME1431049REMSYN076AAXX  29144 06795 43/// /2116 10014 21133 37388 47104 5//// 333 553// 20533;
0112067950999992011112915004+46583+009533FM-12+267099999V0202001N010319999999N9999999N1+00111-01301999999ADDMA1999999073891ME1431059REMSYN076AAXX  29154 06795 43/// /2020 10011 21130 37389 47105 5//// 333 553// 20209;
0112067950999992011112916004+46583+009533FM-12+267099999V0202001N009319999999N9999999N1+00091-01311999999ADDMA1999999073891ME1431059REMSYN076AAXX  29164 06795 43/// /2018 10009 21131 37389 47105 5//// 333 553// 20018;
0112067950999992011112917004+46583+009533FM-12+267099999V0202001N009319999999N9999999N1+00061-01351999999ADDMA1999999073911ME1431069REMSYN076AAXX  29174 06795 43/// /2018 10006 21135 37391 47106 5//// 333 553// 20000;
0131067950999992011112918004+46583+009533FM-12+267099999V0202001N007719999999N9999999N1+00071-01501999999ADDKA1120M+00231MA1999999073951ME1431119REMSYN082AAXX  29184 06795 43/// /2015 10007 21150 37395 47111 5//// 333 10023 553// 20000;
0112067950999992011112919004+46583+009533FM-12+267099999V0202001N007719999999N9999999N1+00031-01421999999ADDMA1999999073981ME1431139REMSYN076AAXX  29194 06795 43/// /2015 10003 21142 37398 47113 5//// 333 553// 20000;
0112067950999992011112920004+46583+009533FM-12+267099999V0202001N007219999999N9999999N1+00021-01421999999ADDMA1999999073981ME1431139REMSYN076AAXX  29204 06795 43/// /2014 10002 21142 37398 47113 5//// 333 553// 20000;
0096067950999992011112921004+46583+009533FM-12+267099999V0202101N005719999999N9999999N1+00051-01401999999ADDMA1999999074011ME1431179REMSYN060AAXX  29214 06795 43/// /2111 10005 21140 37401 47117 5////;
0112067950999992011112922004+46583+009533FM-12+267099999V0202201N003119999999N9999999N1+00031-01381999999ADDMA1999999074021ME1431179REMSYN076AAXX  29224 06795 43/// /2206 10003 21138 37402 47117 5//// 333 553// 20000;
0112067950999992011112923004+46583+009533FM-12+267099999V0202001N004119999999N9999999N1+00031-01181999999ADDMA1999999074021ME1431179REMSYN076AAXX  29234 06795 43/// /2008 10003 21118 37402 47117 5//// 333 553// 20000;
0112067950999992011113000004+46583+009533FM-12+267099999V0202001N003119999999N9999999N1-00031-01031999999ADDMA1999999074041ME1431199REMSYN076AAXX  30004 06795 43/// /2006 11003 21103 37404 47119 5//// 333 553// 20000;
0112067950999992011113001004+46583+009533FM-12+267099999V0202001N003119999999N9999999N1-00021-00991999999ADDMA1999999074041ME1431199REMSYN076AAXX  30014 06795 43/// /2006 11002 21099 37404 47119 5//// 333 553// 20000;
0112067950999992011113002004+46583+009533FM-12+267099999V0201701N001519999999N9999999N1-00051-01101999999ADDMA1999999074041ME1431189REMSYN076AAXX  30024 06795 43/// /1703 11005 21110 37404 47118 5//// 333 553// 20000;
0112067950999992011113003004+46583+009533FM-12+267099999V0200601N001519999999N9999999N1-00031-01361999999ADDMA1999999074041ME1431199REMSYN076AAXX  30034 06795 43/// /0603 11003 21136 37404 47119 5//// 333 553// 20000;
0112067950999992011113004004+46583+009533FM-12+267099999V0200101N002619999999N9999999N1-00191-01201999999ADDMA1999999074041ME1431169REMSYN076AAXX  30044 06795 43/// /0105 11019 21120 37404 47116 5//// 333 553// 20000;
0149067950999992011113005004+46583+009533FM-12+267099999V0203301N002119999999N9999999N1-00261-01131999999ADDMA1999999074091MD1219999+9999ME1431209OA149900411REMSYN088AAXX  30054 06795 43/// /3304 11026 21113 37409 47120 52/// 333 55300 20000 91108 91206;
0145067950999992011113006004+46583+009533FM-12+267099999V0200101N003119999999N9999999N1-00251-01221999999ADDGJ101689KA1999N-00271MA1999999074091ME1431209REMSYN088AAXX  30064 06795 43/// /0106 11025 21122 37409 47120 5//// 333 21027 55028 553// 20000;
0112067950999992011113007004+46583+009533FM-12+267099999V0200101N004619999999N9999999N1-00161-01231999999ADDMA1999999074121ME1431259REMSYN076AAXX  30074 06795 43/// /0109 11016 21123 37412 47125 5//// 333 553// 20000;
0112067950999992011113008004+46583+009533FM-12+267099999V0203501N004619999999N9999999N1-00171-01151999999ADDMA1999999074151ME1431289REMSYN076AAXX  30084 06795 43/// /3509 11017 21115 37415 47128 5//// 333 553// 20162;
0112067950999992011113009004+46583+009533FM-12+267099999V0203501N002619999999N9999999N1-00131-01051999999ADDMA1999999074201ME1431349REMSYN076AAXX  30094 06795 43/// /3505 11013 21105 37420 47134 5//// 333 553// 20752;
0112067950999992011113010004+46583+009533FM-12+267099999V0203501N001519999999N9999999N1-00151-00921999999ADDMA1999999074241ME1431389REMSYN076AAXX  30104 06795 43/// /3503 11015 21092 37424 47138 5//// 333 553// 21120;
0112067950999992011113011004+46583+009533FM-12+267099999V0203201N001519999999N9999999N1-00221-00971999999ADDMA1999999074221ME1431349REMSYN076AAXX  30114 06795 43/// /3203 11022 21097 37422 47134 5//// 333 553// 21202;
0112067950999992011113012004+46583+009533FM-12+267099999V0203201N001519999999N9999999N1-00251-00801999999ADDMA1999999074211ME1431339REMSYN076AAXX  30124 06795 43/// /3203 11025 21080 37421 47133 5//// 333 553// 21202;
0112067950999992011113013004+46583+009533FM-12+267099999V0203201N001519999999N9999999N1-00221-00711999999ADDMA1999999074181ME1431309REMSYN076AAXX  30134 06795 43/// /3203 11022 21071 37418 47130 5//// 333 553// 20868;
0112067950999992011113014004+46583+009533FM-12+267099999V0203301N001519999999N9999999N1-00221-00681999999ADDMA1999999074171ME1431299REMSYN076AAXX  30144 06795 43/// /3303 11022 21068 37417 47129 5//// 333 553// 20875;
0112067950999992011113015004+46583+009533FM-12+267099999V0203301N001019999999N9999999N1-00191-00711999999ADDMA1999999074171ME1431309REMSYN076AAXX  30154 06795 43/// /3302 11019 21071 37417 47130 5//// 333 553// 20457;
0112067950999992011113016004+46583+009533FM-12+267099999V0203301N002619999999N9999999N1-00301-00671999999ADDMA1999999074171ME1431289REMSYN076AAXX  30164 06795 43/// /3305 11030 21067 37417 47128 5//// 333 553// 20036;
0112067950999992011113017004+46583+009533FM-12+267099999V0200101N002619999999N9999999N1-00281-00681999999ADDMA1999999074171ME1431289REMSYN076AAXX  30174 06795 43/// /0105 11028 21068 37417 47128 5//// 333 553// 20000;
0131067950999992011113018004+46583+009533FM-12+267099999V0201901N001519999999N9999999N1-00171-00801999999ADDKA1120M-00091MA1999999074171ME1431309REMSYN082AAXX  30184 06795 43/// /1903 11017 21080 37417 47130 5//// 333 11009 553// 20000;
0112067950999992011113019004+46583+009533FM-12+267099999V0202001N005119999999N9999999N1-00111-01011999999ADDMA1999999074151ME1431299REMSYN076AAXX  30194 06795 43/// /2010 11011 21101 37415 47129 5//// 333 553// 20000;
0112067950999992011113020004+46583+009533FM-12+267099999V0202001N008719999999N9999999N1-00101-01041999999ADDMA1999999074131ME1431279REMSYN076AAXX  30204 06795 43/// /2017 11010 21104 37413 47127 5//// 333 553// 20000;
0096067950999992011113021004+46583+009533FM-12+267099999V0202001N009819999999N9999999N1-00141-01111999999ADDMA1999999074121ME1431259REMSYN060AAXX  30214 06795 43/// /2019 11014 21111 37412 47125 5////;
0112067950999992011113022004+46583+009533FM-12+267099999V0202001N007719999999N9999999N1-00161-01251999999ADDMA1999999074151ME1431289REMSYN076AAXX  30224 06795 43/// /2015 11016 21125 37415 47128 5//// 333 553// 20000;
0112067950999992011113023004+46583+009533FM-12+267099999V0202001N008219999999N9999999N1-00161-01411999999ADDMA1999999074141ME1431279REMSYN076AAXX  30234 06795 43/// /2016 11016 21141 37414 47127 5//// 333 553// 20000;
0149067950999992011120100004+46583+009533FM-12+267099999V0202001N009819999999N9999999N1-00161-01411999999ADDMA1999999074091MD1819999+9999ME1431229OA149901441REMSYN088AAXX  01004 06795 43/// /2019 11016 21141 37409 47122 58/// 333 55300 20000 91128 91223;
0112067950999992011120101004+46583+009533FM-12+267099999V0202001N010819999999N9999999N1-00151-01601999999ADDMA1999999074061ME1431199REMSYN076AAXX  01014 06795 43/// /2021 11015 21160 37406 47119 5//// 333 553// 20000;
0112067950999992011120102004+46583+009533FM-12+267099999V0202001N005719999999N9999999N1-00171-01541999999ADDMA1999999074061ME1431189REMSYN076AAXX  01024 06795 43/// /2011 11017 21154 37406 47118 5//// 333 553// 20000;
0149067950999992011120103004+46583+009533FM-12+267099999V0202001N004619999999N9999999N1-00171-01441999999ADDMA1999999074031MD1719999+9999ME1431159OA149901441REMSYN088AAXX  01034 06795 43/// /2009 11017 21144 37403 47115 57/// 333 55300 20000 91128 91221;
0149067950999992011120104004+46583+009533FM-12+267099999V0202001N006719999999N9999999N1-00181-01451999999ADDMA1999999074021MD1719999+9999ME1431149OA149900931REMSYN088AAXX  01044 06795 43/// /2013 11018 21145 37402 47114 57/// 333 55300 20000 91118 91213;
0149067950999992011120105004+46583+009533FM-12+267099999V0201901N006719999999N9999999N1-00191-01381999999ADDMA1999999074021MD1719999+9999ME1431149OA149901031REMSYN088AAXX  01054 06795 43/// /1913 11019 21138 37402 47114 57/// 333 55300 20000 91120 91214;
0168067950999992011120106004+46583+009533FM-12+267099999V0202001N005119999999N9999999N1-00191-01181999999ADDKA1999N-00211MA1999999074031MD1519999+9999ME1431159OA149901441REMSYN094AAXX  01064 06795 43/// /2010 11019 21118 37403 47115 55/// 333 21021 55300 20000 91128 91221;
0149067950999992011120107004+46583+009533FM-12+267099999V0202001N004119999999N9999999N1-00221-01121999999ADDMA1999999074041MD1219999+9999ME1431159OA149900621REMSYN088AAXX  01074 06795 43/// /2008 11022 21112 37404 47115 52/// 333 55300 20000 91112 91209;
0112067950999992011120108004+46583+009533FM-12+267099999V0202001N003119999999N9999999N1-00131-01051999999ADDMA1999999074041ME1431179REMSYN076AAXX  01084 06795 43/// /2006 11013 21105 37404 47117 5//// 333 553// 20227;
0112067950999992011120109004+46583+009533FM-12+267099999V0203001N001519999999N9999999N1-00101-01101999999ADDMA1999999074061ME1431209REMSYN076AAXX  01094 06795 43/// /3003 11010 21110 37406 47120 5//// 333 553// 20724;
0126067950999992011120110004+46583+009533FM-12+267099999V0201901N004119999999N9999999N1+00011-01021999999ADDMA1999999074041MD1219999+9999ME1431199REMSYN076AAXX  01104 06795 43/// /1908 10001 21102 37404 47119 52/// 333 553// 21044;
0149067950999992011120111004+46583+009533FM-12+267099999V0201901N006219999999N9999999N1+00111-01071999999ADDMA1999999074011MD1819999+9999ME1431189OA149900881REMSYN088AAXX  01114 06795 43/// /1912 10011 21107 37401 47118 58/// 333 55307 21213 91117 91211;
0112067950999992011120112004+46583+009533FM-12+267099999V0201901N006219999999N9999999N1+00091-01161999999ADDMA1999999073971ME1431139REMSYN076AAXX  01124 06795 43/// /1912 10009 21116 37397 47113 5//// 333 553// 21332;
0112067950999992011120113004+46583+009533FM-12+267099999V0201901N005719999999N9999999N1+00111-01181999999ADDMA1999999073911ME1431079REMSYN076AAXX  01134 06795 43/// /1911 10011 21118 37391 47107 5//// 333 553// 21145;
0112067950999992011120114004+46583+009533FM-12+267099999V0201901N004619999999N9999999N1+00041-01241999999ADDMA1999999073891ME1431049REMSYN076AAXX  01144 06795 43/// /1909 10004 21124 37389 47104 5//// 333 553// 20716;
0112067950999992011120115004+46583+009533FM-12+267099999V0201901N002619999999N9999999N1+00021-01381999999ADDMA1999999073891ME1431039REMSYN076AAXX  01154 06795 43/// /1905 10002 21138 37389 47103 5//// 333 553// 20173;
0112067950999992011120116004+46583+009533FM-12+267099999V0202201N003619999999N9999999N1+00031-01411999999ADDMA1999999073901ME1431059REMSYN076AAXX  01164 06795 43/// /2207 10003 21141 37390 47105 5//// 333 553// 20014;
0149067950999992011120117004+46583+009533FM-12+267099999V0202001N004619999999N9999999N1+00031-01441999999ADDMA1999999073861MD1719999+9999ME1431009OA149900721REMSYN088AAXX  01174 06795 43/// /2009 10003 21144 37386 47100 57/// 333 55300 20000 91114 91210;
0168067950999992011120118004+46583+009533FM-12+267099999V0202201N002619999999N9999999N1-00021-01401999999ADDKA1120M+00161MA1999999073891MD1519999+9999ME1431039OA149900881REMSYN094AAXX  01184 06795 43/// /2205 11002 21140 37389 47103 55/// 333 10016 55300 20000 91117 91212;
0112067950999992011120119004+46583+009533FM-12+267099999V0202001N008219999999N9999999N1-00041-01331999999ADDMA1999999073851ME1430989REMSYN076AAXX  01194 06795 43/// /2016 11004 21133 37385 47098 5//// 333 553// 20000;
0112067950999992011120120004+46583+009533FM-12+267099999V0202001N011319999999N9999999N1-00061-01301999999ADDMA1999999073791ME1430919REMSYN076AAXX  01204 06795 43/// /2022 11006 21130 37379 47091 5//// 333 553// 20000;
0096067950999992011120121004+46583+009533FM-12+267099999V0202001N012319999999N9999999N1-00061-01201999999ADDMA1999999073721ME1430849REMSYN060AAXX  01214 06795 43/// /2024 11006 21120 37372 47084 5////;
0112067950999992011120122004+46583+009533FM-12+267099999V0201901N013919999999N9999999N1-00111-01121999999ADDMA1999999073671ME1430789REMSYN076AAXX  01224 06795 43/// /1927 11011 21112 37367 47078 5//// 333 553// 20000;
0112067950999992011120123004+46583+009533FM-12+267099999V0202001N015919999999N9999999N1-00191-01181999999ADDMA1999999073601ME1430699REMSYN076AAXX  01234 06795 43/// /2031 11019 21118 37360 47069 5//// 333 553// 20000;
0149067950999992011120200004+46583+009533FM-12+267099999V0202001N015419999999N9999999N1-00441-00801999999ADDMA1999999073561MD1719999+9999ME1430619OA149902161REMSYN088AAXX  02004 06795 43/// /2030 11044 21080 37356 47061 57/// 333 553// 20000 91142 91233;
0112067950999992011120201004+46583+009533FM-12+267099999V0202001N017019999999N9999999N1-00411-00631999999ADDMA1999999073491ME1430549REMSYN076AAXX  02014 06795 43/// /2033 11041 21063 37349 47054 5//// 333 553// 20000;
0112067950999992011120202004+46583+009533FM-12+267099999V0202001N016419999999N9999999N1-00431-00611999999ADDMA1999999073491ME1430549REMSYN076AAXX  02024 06795 43/// /2032 11043 21061 37349 47054 5//// 333 553// 20000;
0112067950999992011120203004+46583+009533FM-12+267099999V0202001N014919999999N9999999N1-00371-00631999999ADDMA1999999073481ME1430539REMSYN076AAXX  02034 06795 43/// /2029 11037 21063 37348 47053 5//// 333 553// 20000;
0112067950999992011120204004+46583+009533FM-12+267099999V0201901N013419999999N9999999N1-00411-00591999999ADDMA1999999073491ME1430549REMSYN076AAXX  02044 06795 43/// /1926 11041 21059 37349 47054 5//// 333 553// 20000;
0112067950999992011120205004+46583+009533FM-12+267099999V0202001N013419999999N9999999N1-00381-00671999999ADDMA1999999073441ME1430499REMSYN076AAXX  02054 06795 43/// /2026 11038 21067 37344 47049 5//// 333 553// 20000;
0145067950999992011120206004+46583+009533FM-12+267099999V0202001N011319999999N9999999N1-00401-00691999999ADDGJ103729KA1999N-00481MA1999999073441ME1430499REMSYN088AAXX  02064 06795 43/// /2022 11040 21069 37344 47049 5//// 333 21048 55062 553// 20000;
0149067950999992011120207004+46583+009533FM-12+267099999V0202001N009319999999N9999999N1-00431-00691999999ADDMA1999999073461MD1519999+9999ME1430509OA149901601REMSYN088AAXX  02074 06795 43/// /2018 11043 21069 37346 47050 55/// 333 55300 20000 91131 91218;
0112067950999992011120208004+46583+009533FM-12+267099999V0202101N015419999999N9999999N1-00341-00651999999ADDMA1999999073391ME1430449REMSYN076AAXX  02084 06795 43/// /2130 11034 21065 37339 47044 5//// 333 553// 20209;
0149067950999992011120209004+46583+009533FM-12+267099999V0202001N013419999999N9999999N1-00281-00641999999ADDMA1999999073441MD1019999+9999ME1430509OA149902321REMSYN088AAXX  02094 06795 43/// /2026 11028 21064 37344 47050 50/// 333 55300 20302 91145 91230;
0149067950999992011120210004+46583+009533FM-12+267099999V0202001N012319999999N9999999N1-00251-00661999999ADDMA1999999073441MD1719999+9999ME1430519OA149902061REMSYN088AAXX  02104 06795 43/// /2024 11025 21066 37344 47051 57/// 333 55308 21116 91140 91226;
0149067950999992011120211004+46583+009533FM-12+267099999V0202001N010319999999N9999999N1-00181-00641999999ADDMA1999999073441MD1019999+9999ME1430529OA149902061REMSYN088AAXX  02114 06795 43/// /2020 11018 21064 37344 47052 50/// 333 55308 21382 91140 91226;
0112067950999992011120212004+46583+009533FM-12+267099999V0202001N016419999999N9999999N1-00231-00591999999ADDMA1999999073361ME1430439REMSYN076AAXX  02124 06795 43/// /2032 11023 21059 37336 47043 5//// 333 553// 21397;
0112067950999992011120213004+46583+009533FM-12+267099999V0202101N013919999999N9999999N1-00311-00501999999ADDMA1999999073341ME1430399REMSYN076AAXX  02134 06795 43/// /2127 11031 21050 37334 47039 5//// 333 553// 21073;
0112067950999992011120214004+46583+009533FM-12+267099999V0202001N016419999999N9999999N1-00291-00451999999ADDMA1999999073331ME1430399REMSYN076AAXX  02144 06795 43/// /2032 11029 21045 37333 47039 5//// 333 553// 20230;
0112067950999992011120215004+46583+009533FM-12+267099999V0202001N014419999999N9999999N1-00261-00441999999ADDMA1999999073331ME1430399REMSYN076AAXX  02154 06795 43/// /2028 11026 21044 37333 47039 5//// 333 553// 20040;
0149067950999992011120216004+46583+009533FM-12+267099999V0202001N015419999999N9999999N1-00271-00381999999ADDMA1999999073311MD1819999+9999ME1430379OA149902161REMSYN088AAXX  02164 06795 43/// /2030 11027 21038 37331 47037 58/// 333 55300 20000 91142 91232;
0149067950999992011120217004+46583+009533FM-12+267099999V0202001N014919999999N9999999N1-00221-00401999999ADDMA1999999073321MD1519999+9999ME1430389OA149902321REMSYN088AAXX  02174 06795 43/// /2029 11022 21040 37332 47038 55/// 333 55300 20000 91145 91230;
0131067950999992011120218004+46583+009533FM-12+267099999V0202001N014419999999N9999999N1-00231-00361999999ADDKA1120M-00171MA1999999073341ME1430409REMSYN082AAXX  02184 06795 43/// /2028 11023 21036 37334 47040 5//// 333 11017 553// 20000;
0112067950999992011120219004+46583+009533FM-12+267099999V0202001N011819999999N9999999N1-00241-00321999999ADDMA1999999073381ME1430459REMSYN076AAXX  02194 06795 43/// /2023 11024 21032 37338 47045 5//// 333 553// 20000;
0112067950999992011120220004+46583+009533FM-12+267099999V0202001N013919999999N9999999N1-00251-00351999999ADDMA1999999073321ME1430389REMSYN076AAXX  02204 06795 43/// /2027 11025 21035 37332 47038 5//// 333 553// 20000;
0096067950999992011120221004+46583+009533FM-12+267099999V0202001N013419999999N9999999N1-00261-00371999999ADDMA1999999073311ME1430379REMSYN060AAXX  02214 06795 43/// /2026 11026 21037 37331 47037 5////;
0112067950999992011120222004+46583+009533FM-12+267099999V0202001N014419999999N9999999N1-00251-00351999999ADDMA1999999073291ME1430359REMSYN076AAXX  02224 06795 43/// /2028 11025 21035 37329 47035 5//// 333 553// 20000;
0112067950999992011120223004+46583+009533FM-12+267099999V0202001N010819999999N9999999N1-00231-00471999999ADDMA1999999073351ME1430429REMSYN076AAXX  02234 06795 43/// /2021 11023 21047 37335 47042 5//// 333 553// 20000;
0096067950999992011120300004+46583+009533FM-12+267099999V0202001N010319999999N9999999N1-00301-00391999999ADDMA1999999073341ME1430399REMSYN060AAXX  03004 06795 43/// /2020 11030 21039 37334 47039 5////;
0096067950999992011120301004+46583+009533FM-12+267099999V0202001N010319999999N9999999N1-00261-00421999999ADDMA1999999073311ME1430379REMSYN060AAXX  03014 06795 43/// /2020 11026 21042 37331 47037 5////;
0096067950999992011120302004+46583+009533FM-12+267099999V0202001N007719999999N9999999N1-00281-00421999999ADDMA1999999073321ME1430389REMSYN060AAXX  03024 06795 43/// /2015 11028 21042 37332 47038 5////;
0096067950999992011120303004+46583+009533FM-12+267099999V0202001N008219999999N9999999N1-00321-00421999999ADDMA1999999073291ME1430349REMSYN060AAXX  03034 06795 43/// /2016 11032 21042 37329 47034 5////;
0112067950999992011120304004+46583+009533FM-12+267099999V0202001N009819999999N9999999N1-00301-00471999999ADDMA1999999073251ME1430309REMSYN076AAXX  03044 06795 43/// /2019 11030 21047 37325 47030 5//// 333 553// 20000;
0112067950999992011120305004+46583+009533FM-12+267099999V0202001N008719999999N9999999N1-00281-00481999999ADDMA1999999073251ME1430309REMSYN076AAXX  03054 06795 43/// /2017 11028 21048 37325 47030 5//// 333 553// 20000;
0125067950999992011120306004+46583+009533FM-12+267099999V0202001N008719999999N9999999N1-00301-00481999999ADDKA1999N-00331MA1999999073241ME1430299REMSYN076AAXX  03064 06795 43/// /2017 11030 21048 37324 47029 5//// 333 21033 55042;
0112067950999992011120307004+46583+009533FM-12+267099999V0202001N008219999999N9999999N1-00291-00481999999ADDMA1999999073251ME1430309REMSYN076AAXX  03074 06795 43/// /2016 11029 21048 37325 47030 5//// 333 553// 20000;
0112067950999992011120308004+46583+009533FM-12+267099999V0202001N009819999999N9999999N1-00321-00541999999ADDMA1999999073231ME1430279REMSYN076AAXX  03084 06795 43/// /2019 11032 21054 37323 47027 5//// 333 553// 20090;
0112067950999992011120309004+46583+009533FM-12+267099999V0202001N006719999999N9999999N1-00321-00531999999ADDMA1999999073241ME1430289REMSYN076AAXX  03094 06795 43/// /2013 11032 21053 37324 47028 5//// 333 553// 20198;
0112067950999992011120310004+46583+009533FM-12+267099999V0202001N006219999999N9999999N1-00281-00411999999ADDMA1999999073261ME1430319REMSYN076AAXX  03104 06795 43/// /2012 11028 21041 37326 47031 5//// 333 553// 20565;
0112067950999992011120311004+46583+009533FM-12+267099999V0202001N009819999999N9999999N1-00291-00591999999ADDMA1999999073191ME1430249REMSYN076AAXX  03114 06795 43/// /2019 11029 21059 37319 47024 5//// 333 553// 21199;
0112067950999992011120312004+46583+009533FM-12+267099999V0202101N008219999999N9999999N1-00291-00561999999ADDMA1999999073131ME1430179REMSYN076AAXX  03124 06795 43/// /2116 11029 21056 37313 47017 5//// 333 553// 21033;
0112067950999992011120313004+46583+009533FM-12+267099999V0202001N008719999999N9999999N1-00341-00571999999ADDMA1999999073121ME1430159REMSYN076AAXX  03134 06795 43/// /2017 11034 21057 37312 47015 5//// 333 553// 20648;
0112067950999992011120314004+46583+009533FM-12+267099999V0202001N009319999999N9999999N1-00371-00581999999ADDMA1999999073081ME1430119REMSYN076AAXX  03144 06795 43/// /2018 11037 21058 37308 47011 5//// 333 553// 20353;
0112067950999992011120315004+46583+009533FM-12+267099999V0202201N005719999999N9999999N1-00401-00601999999ADDMA1999999073101ME1430129REMSYN076AAXX  03154 06795 43/// /2211 11040 21060 37310 47012 5//// 333 553// 20130;
0112067950999992011120316004+46583+009533FM-12+267099999V0202201N003619999999N9999999N1-00401-00591999999ADDMA1999999073131ME1430169REMSYN076AAXX  03164 06795 43/// /2207 11040 21059 37313 47016 5//// 333 553// 20004;
0112067950999992011120317004+46583+009533FM-12+267099999V0202101N003619999999N9999999N1-00381-00701999999ADDMA1999999073131ME1430169REMSYN076AAXX  03174 06795 43/// /2107 11038 21070 37313 47016 5//// 333 553// 20000;
0131067950999992011120318004+46583+009533FM-12+267099999V0202001N002619999999N9999999N1-00351-00811999999ADDKA1120M-00261MA1999999073121ME1430159REMSYN082AAXX  03184 06795 43/// /2005 11035 21081 37312 47015 5//// 333 11026 553// 20000;
0112067950999992011120319004+46583+009533FM-12+267099999V0202901N007219999999N9999999N1-00321-00831999999ADDMA1999999073081ME1430119REMSYN076AAXX  03194 06795 43/// /2914 11032 21083 37308 47011 5//// 333 553// 20000;
0112067950999992011120320004+46583+009533FM-12+267099999V0202701N005119999999N9999999N1-00281-00851999999ADDMA1999999073071ME1430119REMSYN076AAXX  03204 06795 43/// /2710 11028 21085 37307 47011 5//// 333 553// 20000;
0096067950999992011120321004+46583+009533FM-12+267099999V0202001N004119999999N9999999N1-00351-00821999999ADDMA1999999073081ME1430119REMSYN060AAXX  03214 06795 43/// /2008 11035 21082 37308 47011 5////;
0112067950999992011120322004+46583+009533FM-12+267099999V0202201N003619999999N9999999N1-00331-00851999999ADDMA1999999073081ME1430119REMSYN076AAXX  03224 06795 43/// /2207 11033 21085 37308 47011 5//// 333 553// 20000;
0112067950999992011120323004+46583+009533FM-12+267099999V0202101N003119999999N9999999N1-00271-00871999999ADDMA1999999073071ME1430119REMSYN076AAXX  03234 06795 43/// /2106 11027 21087 37307 47011 5//// 333 553// 20000;
0112067950999992011120400004+46583+009533FM-12+267099999V0202601N001519999999N9999999N1-00321-00851999999ADDMA1999999073051ME1430089REMSYN076AAXX  04004 06795 43/// /2603 11032 21085 37305 47008 5//// 333 553// 20000;
0112067950999992011120401004+46583+009533FM-12+267099999V0202501N002619999999N9999999N1-00231-00821999999ADDMA1999999073031ME1430079REMSYN076AAXX  04014 06795 43/// /2505 11023 21082 37303 47007 5//// 333 553// 20000;
0112067950999992011120402004+46583+009533FM-12+267099999V0202501N002619999999N9999999N1-00231-00751999999ADDMA1999999073041ME1430089REMSYN076AAXX  04024 06795 43/// /2505 11023 21075 37304 47008 5//// 333 553// 20000;
0096067950999992011120403004+46583+009533FM-12+267099999V0202801N004119999999N9999999N1-00211-00751999999ADDMA1999999072991ME1430039REMSYN060AAXX  04034 06795 43/// /2808 11021 21075 37299 47003 5////;
0096067950999992011120404004+46583+009533FM-12+267099999V0202701N005119999999N9999999N1-00181-00711999999ADDMA1999999072991ME1430039REMSYN060AAXX  04044 06795 43/// /2710 11018 21071 37299 47003 5////;
0096067950999992011120405004+46583+009533FM-12+267099999V0202601N003619999999N9999999N1-00151-00701999999ADDMA1999999073001ME1430059REMSYN060AAXX  04054 06795 43/// /2607 11015 21070 37300 47005 5////;
0145067950999992011120406004+46583+009533FM-12+267099999V0202601N004119999999N9999999N1-00171-00671999999ADDGJ100849KA1999N-00371MA1999999073011ME1430069REMSYN088AAXX  04064 06795 43/// /2608 11017 21067 37301 47006 5//// 333 21037 55014 553// 20000;
0112067950999992011120407004+46583+009533FM-12+267099999V0202401N003119999999N9999999N1-00151-00631999999ADDMA1999999073011ME1430069REMSYN076AAXX  04074 06795 43/// /2406 11015 21063 37301 47006 5//// 333 553// 20000;
0112067950999992011120408004+46583+009533FM-12+267099999V0202101N005719999999N9999999N1-00181-00691999999ADDMA1999999073031ME1430089REMSYN076AAXX  04084 06795 43/// /2111 11018 21069 37303 47008 5//// 333 553// 20086;
0149067950999992011120409004+46583+009533FM-12+267099999V0202101N005119999999N9999999N1-00171-00661999999ADDMA1999999073041MD1219999+9999ME1430099OA149900981REMSYN088AAXX  04094 06795 43/// /2110 11017 21066 37304 47009 52/// 333 553// 20310 91119 91211;
0149067950999992011120410004+46583+009533FM-12+267099999V0202101N005119999999N9999999N1-00061-00611999999ADDMA1999999073061MD1219999+9999ME1430139OA149901031REMSYN088AAXX  04104 06795 43/// /2110 11006 21061 37306 47013 52/// 333 553// 20842 91120 91210;
0149067950999992011120411004+46583+009533FM-12+267099999V0202001N007219999999N9999999N1-00131-00591999999ADDMA1999999072991MD1819999+9999ME1430049OA149900931REMSYN088AAXX  04114 06795 43/// /2014 11013 21059 37299 47004 58/// 333 553// 20958 91118 91214;
0112067950999992011120412004+46583+009533FM-12+267099999V0201901N004119999999N9999999N1-00041-00581999999ADDMA1999999072951ME1430019REMSYN076AAXX  04124 06795 43/// /1908 11004 21058 37295 47001 5//// 333 553// 21040;
0149067950999992011120413004+46583+009533FM-12+267099999V0202401N003619999999N9999999N1-00151-00601999999ADDMA1999999072971MD1719999+9999ME1430029OA149900981REMSYN088AAXX  04134 06795 43/// /2407 11015 21060 37297 47002 57/// 333 553// 20878 91119 91207;
0112067950999992011120414004+46583+009533FM-12+267099999V0202101N004619999999N9999999N1-00161-00591999999ADDMA1999999072931ME1429979REMSYN076AAXX  04144 06795 43/// /2109 11016 21059 37293 47997 5//// 333 553// 20929;
0149067950999992011120415004+46583+009533FM-12+267099999V0202501N002119999999N9999999N1-00191-00681999999ADDMA1999999072941MD1019999+9999ME1429989OA149900981REMSYN088AAXX  04154 06795 43/// /2504 11019 21068 37294 47998 50/// 333 553// 20497 91119 91209;
0149067950999992011120416004+46583+009533FM-12+267099999V0202501N004619999999N9999999N1-00141-00871999999ADDMA1999999072901MD1710071+9999ME1429949OA149900821REMSYN088AAXX  04164 06795 43/// /2509 11014 21087 37290 47994 57007 333 55300 20072 91116 91209;
0149067950999992011120417004+46583+009533FM-12+267099999V0202201N005719999999N9999999N1-00151-00881999999ADDMA1999999072861MD1819999+9999ME1429909OA149900931REMSYN088AAXX  04174 06795 43/// /2211 11015 21088 37286 47990 58/// 333 55300 20000 91118 91211;
0168067950999992011120418004+46583+009533FM-12+267099999V0202601N005119999999N9999999N1-00261-00761999999ADDKA1120M-00041MA1999999072851MD1719999+9999ME1429879OA149900981REMSYN094AAXX  04184 06795 43/// /2610 11026 21076 37285 47987 57/// 333 11004 55300 20000 91119 91212;
0149067950999992011120419004+46583+009533FM-12+267099999V0202201N006219999999N9999999N1-00321-00651999999ADDMA1999999072831MD1710071+9999ME1429849OA149901131REMSYN088AAXX  04194 06795 43/// /2212 11032 21065 37283 47984 57007 333 55300 20000 91122 91213;
0112067950999992011120420004+46583+009533FM-12+267099999V0202001N009819999999N9999999N1-00261-00721999999ADDMA1999999072721ME1429739REMSYN076AAXX  04204 06795 43/// /2019 11026 21072 37272 47973 5//// 333 553// 20000;
0096067950999992011120421004+46583+009533FM-12+267099999V0202101N013419999999N9999999N1-00261-00691999999ADDMA1999999072641ME1429659REMSYN060AAXX  04214 06795 43/// /2126 11026 21069 37264 47965 5////;
0112067950999992011120422004+46583+009533FM-12+267099999V0202001N012919999999N9999999N1-00261-00641999999ADDMA1999999072581ME1429589REMSYN076AAXX  04224 06795 43/// /2025 11026 21064 37258 47958 5//// 333 553// 20000;
0149067950999992011120423004+46583+009533FM-12+267099999V0202001N012319999999N9999999N1-00351-00571999999ADDMA1999999072491MD1719999+9999ME1429479OA149902011REMSYN088AAXX  04234 06795 43/// /2024 11035 21057 37249 47947 57/// 333 55300 20000 91139 91226;
0112067950999992011120500004+46583+009533FM-12+267099999V0202001N016419999999N9999999N1-00381-00491999999ADDMA1999999072331ME1429309REMSYN076AAXX  05004 06795 43/// /2032 11038 21049 37233 47930 5//// 333 553// 20000;
0149067950999992011120501004+46583+009533FM-12+267099999V0202001N012919999999N9999999N1-00351-00461999999ADDMA1999999072341MD1719999+9999ME1429319OA149902521REMSYN088AAXX  05014 06795 43/// /2025 11035 21046 37234 47931 57/// 333 55300 20000 91149 91230;
0112067950999992011120502004+46583+009533FM-12+267099999V0202001N015419999999N9999999N1-00381-00491999999ADDMA1999999072261ME1429229REMSYN076AAXX  05024 06795 43/// /2030 11038 21049 37226 47922 5//// 333 553// 20000;
0112067950999992011120503004+46583+009533FM-12+267099999V0202001N013419999999N9999999N1-00381-00451999999ADDMA1999999072251ME1429219REMSYN076AAXX  05034 06795 43/// /2026 11038 21045 37225 47921 5//// 333 553// 20000;
0112067950999992011120504004+46583+009533FM-12+267099999V0202001N012319999999N9999999N1-00371-00461999999ADDMA1999999072191ME1429149REMSYN076AAXX  05044 06795 43/// /2024 11037 21046 37219 47914 5//// 333 553// 20000;
0112067950999992011120505004+46583+009533FM-12+267099999V0202001N009819999999N9999999N1-00351-00471999999ADDMA1999999072161ME1429119REMSYN076AAXX  05054 06795 43/// /2019 11035 21047 37216 47911 5//// 333 553// 20000;
0145067950999992011120506004+46583+009533FM-12+267099999V0202201N004619999999N9999999N1-00381-00541999999ADDGJ101749KA1999N-00411MA1999999072221ME1429189REMSYN088AAXX  05064 06795 43/// /2209 11038 21054 37222 47918 5//// 333 21041 55029 553// 20000;
0149067950999992011120507004+46583+009533FM-12+267099999V0203101N008719999999N9999999N1-00531-00531999999ADDMA1999999072331MD1319999+9999ME1429289OA149901441REMSYN088AAXX  05074 06795 43/// /3117 11053 21053 37233 47928 53/// 333 55300 20000 91128 91217;
0112067950999992011120508004+46583+009533FM-12+267099999V0202301N001519999999N9999999N1-00691-00731999999ADDMA1999999072381ME1429329REMSYN076AAXX  05084 06795 43/// /2303 11069 21073 37238 47932 5//// 333 553// 20079;
0149067950999992011120509004+46583+009533FM-12+267099999V0203101N003119999999N9999999N1-00671-00801999999ADDMA1999999072431MD1219999+9999ME1429379OA149901601REMSYN088AAXX  05094 06795 43/// /3106 11067 21080 37243 47937 52/// 333 553// 20241 91131 91217;
0149067950999992011120510004+46583+009533FM-12+267099999V0203101N004619999999N9999999N1-00781-00781999999ADDMA1999999072461MD1219999+9999ME1429409OA149900821REMSYN088AAXX  05104 06795 43/// /3109 11078 21078 37246 47940 52/// 333 55300 20482 91116 91209;
0112067950999992011120511004+46583+009533FM-12+267099999V0203101N006219999999N9999999N1-00691-01311999999ADDMA1999999072441ME1429389REMSYN076AAXX  05114 06795 43/// /3112 11069 21131 37244 47938 5//// 333 553// 21145;
0112067950999992011120512004+46583+009533FM-12+267099999V0202801N002119999999N9999999N1-00711-01181999999ADDMA1999999072401ME1429349REMSYN076AAXX  05124 06795 43/// /2804 11071 21118 37240 47934 5//// 333 553// 21040;
0112067950999992011120513004+46583+009533FM-12+267099999V0203501N004619999999N9999999N1-00761-00811999999ADDMA1999999072401ME1429339REMSYN076AAXX  05134 06795 43/// /3509 11076 21081 37240 47933 5//// 333 553// 21170;
0112067950999992011120514004+46583+009533FM-12+267099999V0203301N005719999999N9999999N1-00941-01221999999ADDMA1999999072421ME1429349REMSYN076AAXX  05144 06795 43/// /3311 11094 21122 37242 47934 5//// 333 553// 20360;
0112067950999992011120515004+46583+009533FM-12+267099999V0203501N005719999999N9999999N1-00971-01061999999ADDMA1999999072451ME1429379REMSYN076AAXX  05154 06795 43/// /3511 11097 21106 37245 47937 5//// 333 553// 20382;
0112067950999992011120516004+46583+009533FM-12+267099999V0203401N005719999999N9999999N1-01021-01111999999ADDMA1999999072481ME1429399REMSYN076AAXX  05164 06795 43/// /3411 11102 21111 37248 47939 5//// 333 553// 20014;
0149067950999992011120517004+46583+009533FM-12+267099999V0203301N003119999999N9999999N1-01101-01201999999ADDMA1999999072501MD1219999+9999ME1429409OA149900821REMSYN088AAXX  05174 06795 43/// /3306 11110 21120 37250 47940 52/// 333 55300 20000 91116 91210;
0131067950999992011120518004+46583+009533FM-12+267099999V0203301N003119999999N9999999N1-01131-01191999999ADDKA1120M-00361MA1999999072541ME1429449REMSYN082AAXX  05184 06795 43/// /3306 11113 21119 37254 47944 5//// 333 11036 553// 20000;
0149067950999992011120519004+46583+009533FM-12+267099999V0203401N004619999999N9999999N1-01131-01171999999ADDMA1999999072581MD1219999+9999ME1429499OA149901031REMSYN088AAXX  05194 06795 43/// /3409 11113 21117 37258 47949 52/// 333 55300 20000 91120 91211;
0112067950999992011120520004+46583+009533FM-12+267099999V0203601N008719999999N9999999N1-01141-01201999999ADDMA1999999072571ME1429479REMSYN076AAXX  05204 06795 43/// /3617 11114 21120 37257 47947 5//// 333 553// 20000;
0096067950999992011120521004+46583+009533FM-12+267099999V0203401N006719999999N9999999N1-01241-01331999999ADDMA1999999072601ME1429499REMSYN060AAXX  05214 06795 43/// /3413 11124 21133 37260 47949 5////;
0112067950999992011120522004+46583+009533FM-12+267099999V0203401N004119999999N9999999N1-01321-01441999999ADDMA1999999072591ME1429489REMSYN076AAXX  05224 06795 43/// /3408 11132 21144 37259 47948 5//// 333 553// 20000;
0112067950999992011120523004+46583+009533FM-12+267099999V0203401N005119999999N9999999N1-01331-01591999999ADDMA1999999072561ME1429449REMSYN076AAXX  05234 06795 43/// /3410 11133 21159 37256 47944 5//// 333 553// 20000;
0112067950999992011120600004+46583+009533FM-12+267099999V0200101N004619999999N9999999N1-01251-01571999999ADDMA1999999072511ME1429409REMSYN076AAXX  06004 06795 43/// /0109 11125 21157 37251 47940 5//// 333 553// 20000;
0112067950999992011120601004+46583+009533FM-12+267099999V0200301N002119999999N9999999N1-01261-01611999999ADDMA1999999072511ME1429409REMSYN076AAXX  06014 06795 43/// /0304 11126 21161 37251 47940 5//// 333 553// 20000;
0112067950999992011120602004+46583+009533FM-12+267099999V0201101N001519999999N9999999N1-01261-01541999999ADDMA1999999072541ME1429439REMSYN076AAXX  06024 06795 43/// /1103 11126 21154 37254 47943 5//// 333 553// 20000;
0112067950999992011120603004+46583+009533FM-12+267099999V0201401N002119999999N9999999N1-01231-01501999999ADDMA1999999072531ME1429429REMSYN076AAXX  06034 06795 43/// /1404 11123 21150 37253 47942 5//// 333 553// 20000;
0112067950999992011120604004+46583+009533FM-12+267099999V0202501N002619999999N9999999N1-01151-01681999999ADDMA1999999072541ME1429449REMSYN076AAXX  06044 06795 43/// /2505 11115 21168 37254 47944 5//// 333 553// 20000;
0149067950999992011120605004+46583+009533FM-12+267099999V0202001N002119999999N9999999N1-01161-01671999999ADDMA1999999072541MD1019999+9999ME1429449OA149900621REMSYN088AAXX  06054 06795 43/// /2004 11116 21167 37254 47944 50/// 333 55300 20000 91112 91205;
0182067950999992011120606004+46583+009533FM-12+267099999V0203101N006219999999N9999999N1-01081-01661999999ADDGJ101449KA1999N-01351MA1999999072511MD1819999+9999ME1429429OA149900821REMSYN100AAXX  06064 06795 43/// /3112 11108 21166 37251 47942 58/// 333 21135 55024 55300 20000 91116 91209;
0112067950999992011120607004+46583+009533FM-12+267099999V0202001N002119999999N9999999N1-01091-01461999999ADDMA1999999072551ME1429469REMSYN076AAXX  06074 06795 43/// /2004 11109 21146 37255 47946 5//// 333 553// 20000;
0112067950999992011120608004+46583+009533FM-12+267099999V0201901N005719999999N9999999N1-01051-01411999999ADDMA1999999072561ME1429479REMSYN076AAXX  06084 06795 43/// /1911 11105 21141 37256 47947 5//// 333 553// 20122;
0112067950999992011120609004+46583+009533FM-12+267099999V0202001N005119999999N9999999N1-01011-01601999999ADDMA1999999072581ME1429509REMSYN076AAXX  06094 06795 43/// /2010 11101 21160 37258 47950 5//// 333 553// 20425;
0112067950999992011120610004+46583+009533FM-12+267099999V0202001N006719999999N9999999N1-00971-01531999999ADDMA1999999072601ME1429529REMSYN076AAXX  06104 06795 43/// /2013 11097 21153 37260 47952 5//// 333 553// 20796;
0112067950999992011120611004+46583+009533FM-12+267099999V0202101N005119999999N9999999N1-01031-01341999999ADDMA1999999072601ME1429529REMSYN076AAXX  06114 06795 43/// /2110 11103 21134 37260 47952 5//// 333 553// 20727;
0112067950999992011120612004+46583+009533FM-12+267099999V0202101N005719999999N9999999N1-01031-01261999999ADDMA1999999072591ME1429519REMSYN076AAXX  06124 06795 43/// /2111 11103 21126 37259 47951 5//// 333 553// 20529;
0112067950999992011120613004+46583+009533FM-12+267099999V0202401N004119999999N9999999N1-00991-01311999999ADDMA1999999072581ME1429509REMSYN076AAXX  06134 06795 43/// /2408 11099 21131 37258 47950 5//// 333 553// 20518;
0112067950999992011120614004+46583+009533FM-12+267099999V0202301N003119999999N9999999N1-00991-01261999999ADDMA1999999072601ME1429529REMSYN076AAXX  06144 06795 43/// /2306 11099 21126 37260 47952 5//// 333 553// 20446;
0126067950999992011120615004+46583+009533FM-12+267099999V0202101N002619999999N9999999N1-01001-01221999999ADDMA1999999072611MD1319999+9999ME1429539REMSYN076AAXX  06154 06795 43/// /2105 11100 21122 37261 47953 53/// 333 553// 20216;
0112067950999992011120616004+46583+009533FM-12+267099999V0202601N004119999999N9999999N1-00951-01361999999ADDMA1999999072661ME1429599REMSYN076AAXX  06164 06795 43/// /2608 11095 21136 37266 47959 5//// 333 553// 20011;
0112067950999992011120617004+46583+009533FM-12+267099999V0202301N003619999999N9999999N1-01011-01271999999ADDMA1999999072661ME1429589REMSYN076AAXX  06174 06795 43/// /2307 11101 21127 37266 47958 5//// 333 553// 20000;
0131067950999992011120618004+46583+009533FM-12+267099999V0202101N004619999999N9999999N1-00991-01201999999ADDKA1120M-00951MA1999999072651ME1429579REMSYN082AAXX  06184 06795 43/// /2109 11099 21120 37265 47957 5//// 333 11095 553// 20000;
0096067950999992011120619004+46583+009533FM-12+267099999V0202701N003119999999N9999999N1-01011-01241999999ADDMA1999999072691ME1429619REMSYN060AAXX  06194 06795 43/// /2706 11101 21124 37269 47961 5////;
0112067950999992011120620004+46583+009533FM-12+267099999V0202501N003619999999N9999999N1-00961-01241999999ADDMA1999999072701ME1429639REMSYN076AAXX  06204 06795 43/// /2507 11096 21124 37270 47963 5//// 333 553// 20000;
0096067950999992011120621004+46583+009533FM-12+267099999V0202401N003619999999N9999999N1-00991-01191999999ADDMA1999999072701ME1429639REMSYN060AAXX  06214 06795 43/// /2407 11099 21119 37270 47963 5////;
0112067950999992011120622004+46583+009533FM-12+267099999V0202801N005119999999N9999999N1-00991-01191999999ADDMA1999999072721ME1429659REMSYN076AAXX  06224 06795 43/// /2810 11099 21119 37272 47965 5//// 333 553// 20000;
0112067950999992011120623004+46583+009533FM-12+267099999V0203001N006219999999N9999999N1-00991-01191999999ADDMA1999999072781ME1429719REMSYN076AAXX  06234 06795 43/// /3012 11099 21119 37278 47971 5//// 333 553// 20000;
0112067950999992011120700004+46583+009533FM-12+267099999V0203001N006219999999N9999999N1-00951-01221999999ADDMA1999999072781ME1429729REMSYN076AAXX  07004 06795 43/// /3012 11095 21122 37278 47972 5//// 333 553// 20000;
0112067950999992011120701004+46583+009533FM-12+267099999V0202901N005119999999N9999999N1-00971-01241999999ADDMA1999999072791ME1429729REMSYN076AAXX  07014 06795 43/// /2910 11097 21124 37279 47972 5//// 333 553// 20000;
0112067950999992011120702004+46583+009533FM-12+267099999V0202701N003619999999N9999999N1-00991-01211999999ADDMA1999999072781ME1429719REMSYN076AAXX  07024 06795 43/// /2707 11099 21121 37278 47971 5//// 333 553// 20000;
0096067950999992011120703004+46583+009533FM-12+267099999V0202701N003619999999N9999999N1-00961-01211999999ADDMA1999999072741ME1429679REMSYN060AAXX  07034 06795 43/// /2707 11096 21121 37274 47967 5////;
0112067950999992011120704004+46583+009533FM-12+267099999V0202301N004119999999N9999999N1-00911-01131999999ADDMA1999999072741ME1429689REMSYN076AAXX  07044 06795 43/// /2308 11091 21113 37274 47968 5//// 333 553// 20000;
0112067950999992011120705004+46583+009533FM-12+267099999V0202501N003619999999N9999999N1-00901-01201999999ADDMA1999999072761ME1429709REMSYN076AAXX  07054 06795 43/// /2507 11090 21120 37276 47970 5//// 333 553// 20000;
0145067950999992011120706004+46583+009533FM-12+267099999V0202701N004619999999N9999999N1-00911-01051999999ADDGJ100249KA1999N-01021MA1999999072771ME1429719REMSYN088AAXX  07064 06795 43/// /2709 11091 21105 37277 47971 5//// 333 21102 55004 553// 20000;
0112067950999992011120707004+46583+009533FM-12+267099999V0202601N003619999999N9999999N1-00861-00971999999ADDMA1999999072761ME1429719REMSYN076AAXX  07074 06795 43/// /2607 11086 21097 37276 47971 5//// 333 553// 20000;
0112067950999992011120708004+46583+009533FM-12+267099999V0202201N004619999999N9999999N1-00831-00851999999ADDMA1999999072801ME1429759REMSYN076AAXX  07084 06795 43/// /2209 11083 21085 37280 47975 5//// 333 553// 20079;
0112067950999992011120709004+46583+009533FM-12+267099999V0202501N006219999999N9999999N1-00721-00821999999ADDMA1999999072831ME1429809REMSYN076AAXX  07094 06795 43/// /2512 11072 21082 37283 47980 5//// 333 553// 20288;
0112067950999992011120710004+46583+009533FM-12+267099999V0202101N007219999999N9999999N1-00761-00781999999ADDMA1999999072811ME1429779REMSYN076AAXX  07104 06795 43/// /2114 11076 21078 37281 47977 5//// 333 553// 20454;
0112067950999992011120711004+46583+009533FM-12+267099999V0202201N008719999999N9999999N1-00711-00711999999ADDMA1999999072791ME1429759REMSYN076AAXX  07114 06795 43/// /2217 11071 21071 37279 47975 5//// 333 553// 20493;
0096067950999992011120712004+46583+009533FM-12+267099999V0202401N005719999999N9999999N1-00661-00791999999ADDMA1999999072791ME1429769REMSYN060AAXX  07124 06795 43/// /2411 11066 21079 37279 47976 5////;
0096067950999992011120713004+46583+009533FM-12+267099999V0202601N008219999999N9999999N1-00601-00731999999ADDMA1999999072771ME1429759REMSYN060AAXX  07134 06795 43/// /2616 11060 21073 37277 47975 5////;
0096067950999992011120714004+46583+009533FM-12+267099999V0202801N007719999999N9999999N1-00581-00581999999ADDMA1999999072751ME1429739REMSYN060AAXX  07144 06795 43/// /2815 11058 21058 37275 47973 5////;
0096067950999992011120715004+46583+009533FM-12+267099999V0202901N007219999999N9999999N1-00591-00641999999ADDMA1999999072811ME1429799REMSYN060AAXX  07154 06795 43/// /2914 11059 21064 37281 47979 5////;
0112067950999992011120716004+46583+009533FM-12+267099999V0202901N008719999999N9999999N1-00601-00851999999ADDMA1999999072801ME1429789REMSYN076AAXX  07164 06795 43/// /2917 11060 21085 37280 47978 5//// 333 553// 20000;
0112067950999992011120717004+46583+009533FM-12+267099999V0202801N006719999999N9999999N1-00511-00571999999ADDMA1999999072851ME1429849REMSYN076AAXX  07174 06795 43/// /2813 11051 21057 37285 47984 5//// 333 553// 20000;
0131067950999992011120718004+46583+009533FM-12+267099999V0203001N012319999999N9999999N1-00591-00591999999ADDKA1120M-00511MA1999999072821ME1429809REMSYN082AAXX  07184 06795 43/// /3024 11059 21059 37282 47980 5//// 333 11051 553// 20000;
0096067950999992011120720004+46583+009533FM-12+267099999V0202901N005119999999N9999999N1-00601-00711999999ADDMA1999999072911ME1429909REMSYN060AAXX  07204 06795 43/// /2910 11060 21071 37291 47990 5////;
0096067950999992011120721004+46583+009533FM-12+267099999V0203101N004619999999N9999999N1-00581-00621999999ADDMA1999999072941ME1429939REMSYN060AAXX  07214 06795 43/// /3109 11058 21062 37294 47993 5////;
0112067950999992011120722004+46583+009533FM-12+267099999V0203001N006719999999N9999999N1-00551-00551999999ADDMA1999999073031ME1430039REMSYN076AAXX  07224 06795 43/// /3013 11055 21055 37303 47003 5//// 333 553// 20000;
