0137067920999992010010100004+46533+009883FM-12+170699999V0201101N000519999999N9999999N1-00441-00631999999ADDMA1999999080531MD1810111+9999ME1312829OA149900621REMSYN076AAXX  01004 06792 33/// /1101 11044 21063 38053 48282 58011 333 91112 91207;
0137067920999992010010101004+46533+009883FM-12+170699999V0202601N000519999999N9999999N1-00441-00661999999ADDMA1999999080511MD1810101+9999ME1312809OA149900211REMSYN076AAXX  01014 06792 33/// /2601 11044 21066 38051 48280 58010 333 91104 91203;
0137067920999992010010102004+46533+009883FM-12+170699999V0202301N000519999999N9999999N1-00551-00801999999ADDMA1999999080501MD1619999+9999ME1312819OA149900211REMSYN076AAXX  01024 06792 33/// /2301 11055 21080 38050 48281 56/// 333 91104 91203;
0096067920999992010010103004+46533+009883FM-12+170699999V0201901N000519999999N9999999N1-00781-00971999999ADDMA1999999080451ME1312799REMSYN060AAXX  01034 06792 43/// /1901 11078 21097 38045 48279 5////;
0096067920999992010010104004+46533+009883FM-12+170699999V0201901N001019999999N9999999N1-00851-01091999999ADDMA1999999080411ME1312779REMSYN060AAXX  01044 06792 33/// /1902 11085 21109 38041 48277 5////;
0137067920999992010010105004+46533+009883FM-12+170699999V0202101N000519999999N9999999N1-01141-01341999999ADDMA1999999080351MD1610151+9999ME1312769OA149900151REMSYN076AAXX  01054 06792 33/// /2101 11114 21134 38035 48276 56015 333 91103 91202;
0215067920999992010010106004+46533+009883FM-12+170699999V0201801N000519999999N9999999N1-01041-01171999999ADDAA124001891AL14800191GJ100009IA2999-00109KA1999N-01201MA1999999080351MD1710101+9999ME1312749OA149900261REMSYN100AAXX  01064 06792 33/// /1801 11104 21117 38035 48274 57010 333 21120 3/101 55000 70018 91105 91203;
0137067920999992010010107004+46533+009883FM-12+170699999V0202101N001019999999N9999999N1-01191-01351999999ADDMA1999999080301MD1710111+9999ME1312729OA149900211REMSYN076AAXX  01074 06792 33/// /2102 11119 21135 38030 48272 57011 333 91104 91203;
0137067920999992010010108004+46533+009883FM-12+170699999V0202201N001019999999N9999999N1-01151-01301999999ADDMA1999999080341MD1510011+9999ME1312759OA149900211REMSYN076AAXX  01084 06792 33/// /2202 11115 21130 38034 48275 55001 333 91104 91202;
0185067920999992010010109004+46533+009883FM-12+170699999V0209999C000010330019N0300001N1-01061-01241999999ADDGA1071+033001021GF107991999999999999999999MA1999999080381MD1310031+9999ME1312779OA149900211REMSYN082AAXX  01094 06792 32980 70000 11106 21124 38038 48277 53003 333 87261 91104 91203;
0137067920999992010010110004+46533+009883FM-12+170699999V0202101N000519999999N9999999N1-00941-01121999999ADDMA1999999080391MD1210091+9999ME1312769OA149900151REMSYN076AAXX  01104 06792 33/// /2101 11094 21112 38039 48276 52009 333 91103 91202;
0156067920999992010010111004+46533+009883FM-12+170699999V0200301N000519999999N9999999N1-00761-00991999999ADDMA1999999080341MD1410001+9999ME1312689OA149900151REMSYN076AAXX  01114 06792 33/// /0301 11076 21099 38034 48268 58000 333 91103 91202;EQDQ01+000082APCTEN
0185067920999992010010112004+46533+009883FM-12+170699999V0200301N001010330019N0300001N1-00681-00901999999ADDGA1061+033001021GF106991999999999999999999MA1999999080301MD1710081+9999ME1312639OA149900211REMSYN082AAXX  01124 06792 32980 60302 11068 21090 38030 48263 57008 333 86261 91104 91203;
0137067920999992010010113004+46533+009883FM-12+170699999V0200501N000519999999N9999999N1-00501-00801999999ADDMA1999999080301MD1710091+9999ME1312609OA149900211REMSYN076AAXX  01134 06792 33/// /0501 11050 21080 38030 48260 57009 333 91104 91203;
0137067920999992010010114004+46533+009883FM-12+170699999V0202001N000519999999N9999999N1-00391-00741999999ADDMA1999999080351MD1319999+9999ME1312639OA149900151REMSYN076AAXX  01144 06792 33/// /2001 11039 21074 38035 48263 53/// 333 91103 91202;
0207067920999992010010115004+46533+009883FM-12+170699999V0202101N000510330019N0300001N1-00701-00841999999ADDGA1011+007801061GA2061+033001021GF106991999999008001999999MA1999999080431MD1210131+9999ME1312769OA149900211REMSYN088AAXX  01154 06792 32580 62101 11070 21084 38043 48276 52013 333 81626 86261 91104 91203;
0137067920999992010010116004+46533+009883FM-12+170699999V0201201N000519999999N9999999N1-00721-00821999999ADDMA1999999080491MD1310191+9999ME1312829OA149900151REMSYN076AAXX  01164 06792 33/// /1201 11072 21082 38049 48282 53019 333 91103 91201;
0137067920999992010010117004+46533+009883FM-12+170699999V0202501N000519999999N9999999N1-00661-00841999999ADDMA1999999080551MD1110201+9999ME1312879OA149900261REMSYN076AAXX  01174 06792 33/// /2501 11066 21084 38055 48287 51020 333 91105 91203;
0277067920999992010010118004+46533+009883FM-12+170699999V0202001N001510330019N0250001N1-00661-00851999999ADDAJ100499199999999AL19900091GA1021+015001061GA2041+033001031GF106991999999017501999999IA1239KA1120M-00391MA1999999080601MD1110171+9999ME1312929OA149900261REMSYN112AAXX  01184 06792 32775 62003 11066 21085 38060 48292 51017 333 11039 47049 82650 84361 90766 93100 91105 91203;
0137067920999992010010119004+46533+009883FM-12+170699999V0201901N000519999999N9999999N1-00661-00831999999ADDMA1999999080671MD1310181+9999ME1312999OA149900261REMSYN076AAXX  01194 06792 33/// /1901 11066 21083 38067 48299 53018 333 91105 91203;
0137067920999992010010120004+46533+009883FM-12+170699999V0201701N001019999999N9999999N1-00741-00911999999ADDMA1999999080731MD1310181+9999ME1313069OA149900211REMSYN076AAXX  01204 06792 33/// /1702 11074 21091 38073 48306 53018 333 91104 91203;
0137067920999992010010121004+46533+009883FM-12+170699999V0202001N001019999999N9999999N1-00591-00781999999ADDMA1999999080831MD1310231+9999ME1313149OA149900261REMSYN076AAXX  01214 06792 33/// /2002 11059 21078 38083 48314 53023 333 91105 91203;
0137067920999992010010122004+46533+009883FM-12+170699999V0200501N000519999999N9999999N1-00561-00711999999ADDMA1999999080931MD1310261+9999ME1313239OA149900361REMSYN076AAXX  01224 06792 33/// /0501 11056 21071 38093 48323 53026 333 91107 91203;
0137067920999992010010123004+46533+009883FM-12+170699999V0202101N000519999999N9999999N1-00511-00711999999ADDMA1999999080971MD1110241+9999ME1313269OA149900361REMSYN076AAXX  01234 06792 33/// /2101 11051 21071 38097 48326 51024 333 91107 91203;
0137067920999992010010200004+46533+009883FM-12+170699999V0201701N001019999999N9999999N1-00461-00651999999ADDMA1999999081001MD1110171+9999ME1313289OA149900361REMSYN076AAXX  02004 06792 33/// /1702 11046 21065 38100 48328 51017 333 91107 91203;
0137067920999992010010201004+46533+009883FM-12+170699999V0200201N001519999999N9999999N1-00541-00741999999ADDMA1999999081031MD1110101+9999ME1313329OA149900311REMSYN076AAXX  02014 06792 33/// /0203 11054 21074 38103 48332 51010 333 91106 91203;
0096067920999992010010202004+46533+009883FM-12+170699999V0200201N002119999999N9999999N1-00371-00791999999ADDMA1999999081111ME1313389REMSYN060AAXX  02024 06792 33/// /0204 11037 21079 38111 48338 5////;
0137067920999992010010203004+46533+009883FM-12+170699999V0200201N003619999999N9999999N1-00501-00871999999ADDMA1999999081161MD1210161+9999ME1313459OA149900671REMSYN076AAXX  02034 06792 33/// /0207 11050 21087 38116 48345 52016 333 91113 91209;
0137067920999992010010204004+46533+009883FM-12+170699999V0200401N003619999999N9999999N1-00491-00841999999ADDMA1999999081201MD1210171+9999ME1313489OA149900671REMSYN076AAXX  02044 06792 33/// /0407 11049 21084 38120 48348 52017 333 91113 91209;
0137067920999992010010205004+46533+009883FM-12+170699999V0200301N005119999999N9999999N1-00511-00791999999ADDMA1999999081221MD1210111+9999ME1313519OA149900621REMSYN076AAXX  02054 06792 33/// /0310 11051 21079 38122 48351 52011 333 91112 91210;
0234067920999992010010206004+46533+009883FM-12+170699999V0200301N006219999999N9999999N1-00611-01021999999ADDAA124000091AL19900091GJ101089IA2999-00209KA1999N-00781MA1999999081281MD1210121+9999ME1313589OA149900881REMSYN100AAXX  02064 06792 33/// /0312 11061 21102 38128 48358 52012 333 21078 3/102 55018 70000 91117 91212;EQDQ01  00002PRCP24
0137067920999992010010207004+46533+009883FM-12+170699999V0200101N005119999999N9999999N1-00631-01341999999ADDMA1999999081351MD1310151+9999ME1313659OA149901081REMSYN076AAXX  02074 06792 33/// /0110 11063 21134 38135 48365 53015 333 91121 91212;
0096067920999992010010208004+46533+009883FM-12+170699999V0200301N006219999999N9999999N1-00751-01301999999ADDMA1999999081451ME1313769REMSYN060AAXX  02084 06792 33/// /0312 11075 21130 38145 48376 5////;
0137067920999992010010209004+46533+009883FM-12+170699999V0200301N005119999999N9999999N1-00791-01541999999ADDMA1999999081541MD1210261+9999ME1313859OA149901081REMSYN076AAXX  02094 06792 33/// /0310 11079 21154 38154 48385 52026 333 91121 91216;
0137067920999992010010210004+46533+009883FM-12+170699999V0200401N005119999999N9999999N1-00831-01651999999ADDMA1999999081611MD1110261+9999ME1313939OA149901031REMSYN076AAXX  02104 06792 33/// /0410 11083 21165 38161 48393 51026 333 91120 91214;
0137067920999992010010211004+46533+009883FM-12+170699999V0200201N004619999999N9999999N1-00841-01731999999ADDMA1999999081661MD1110211+9999ME1313979OA149901031REMSYN076AAXX  02114 06792 33/// /0209 11084 21173 38166 48397 51021 333 91120 91211;
0235067920999992010010212004+46533+009883FM-12+170699999V0200401N003610180019N0070001N1-00871-01721999999ADDAY171061AY221061GA1011+003001071GA2071+018001071GF107991999999004501999999MA1999999081731MD1110191+9999ME1314059MW1021OA149901081REMSYN094AAXX  02124 06792 31457 70407 11087 21172 38173 48405 51019 70272 333 81710 87756 91121 91216;
0137067920999992010010213004+46533+009883FM-12+170699999V0200201N004119999999N9999999N1-00921-01871999999ADDMA1999999081801MD1310191+9999ME1314129OA149900771REMSYN076AAXX  02134 06792 33/// /0208 11092 21187 38180 48412 53019 333 91115 91211;
0137067920999992010010214004+46533+009883FM-12+170699999V0200201N003619999999N9999999N1-00991-01841999999ADDMA1999999081841MD1119999+9999ME1314169OA149900771REMSYN076AAXX  02144 06792 33/// /0207 11099 21184 38184 48416 51/// 333 91115 91210;
0185067920999992010010215004+46533+009883FM-12+170699999V0200301N004110048019N0150001N1-01081-01731999999ADDGA1071+004801041GF107991999999004501999999MA1999999081941MD1310211+9999ME1314279OA149901031REMSYN082AAXX  02154 06792 32465 70308 11108 21173 38194 48427 53021 333 87416 91120 91211;
0137067920999992010010216004+46533+009883FM-12+170699999V0200401N007219999999N9999999N1-01121-01951999999ADDMA1999999082011MD1310211+9999ME1314349OA149901131REMSYN076AAXX  02164 06792 33/// /0414 11112 21195 38201 48434 53021 333 91122 91214;
0137067920999992010010217004+46533+009883FM-12+170699999V0200301N007719999999N9999999N1-01131-02001999999ADDMA1999999082091MD1110251+9999ME1314429OA149901341REMSYN076AAXX  02174 06792 33/// /0315 11113 21200 38209 48442 51025 333 91126 91216;
0156067920999992010010218004+46533+009883FM-12+170699999V0200201N006219999999N9999999N1-01161-02351999999ADDKA1120M-00551MA1999999082131MD1210191+9999ME1314469OA149901391REMSYN082AAXX  02184 06792 33/// /0212 11116 21235 38213 48446 52019 333 11055 91127 91219;
0137067920999992010010219004+46533+009883FM-12+170699999V0200401N006719999999N9999999N1-01161-02431999999ADDMA1999999082181MD1210171+9999ME1314509OA149901391REMSYN076AAXX  02194 06792 33/// /0413 11116 21243 38218 48450 52017 333 91127 91219;
0137067920999992010010220004+46533+009883FM-12+170699999V0203501N004619999999N9999999N1-01171-02381999999ADDMA1999999082231MD1210141+9999ME1314559OA149901081REMSYN076AAXX  02204 06792 33/// /3509 11117 21238 38223 48455 52014 333 91121 91214;
0137067920999992010010221004+46533+009883FM-12+170699999V0200301N003119999999N9999999N1-01361-02181999999ADDMA1999999082251MD1210121+9999ME1314599OA149901391REMSYN076AAXX  02214 06792 33/// /0306 11136 21218 38225 48459 52012 333 91127 91219;
0137067920999992010010222004+46533+009883FM-12+170699999V0203401N000519999999N9999999N1-01681-02531999999ADDMA1999999082271MD1210091+9999ME1314649OA149900621REMSYN076AAXX  02224 06792 33/// /3401 11168 21253 38227 48464 52009 333 91112 91208;
0137067920999992010010223004+46533+009883FM-12+170699999V0201701N002119999999N9999999N1-01741-02131999999ADDMA1999999082311MD1210081+9999ME1314689OA149900511REMSYN076AAXX  02234 06792 33/// /1704 11174 21213 38231 48468 52008 333 91110 91207;
0137067920999992010010300004+46533+009883FM-12+170699999V0202001N000519999999N9999999N1-01811-02661999999ADDMA1999999082341MD1310091+9999ME1314729OA149901391REMSYN076AAXX  03004 06792 33/// /2001 11181 21266 38234 48472 53009 333 91127 91219;
0137067920999992010010301004+46533+009883FM-12+170699999V0202101N000519999999N9999999N1-02021-02271999999ADDMA1999999082371MD1210101+9999ME1314769OA149900261REMSYN076AAXX  03014 06792 33/// /2101 11202 21227 38237 48476 52010 333 91105 91203;
0096067920999992010010302004+46533+009883FM-12+170699999V0202201N001019999999N9999999N1-02331-02721999999ADDMA1999999082421ME1314849REMSYN060AAXX  03024 06792 33/// /2202 11233 21272 38242 48484 5////;
0096067920999992010010303004+46533+009883FM-12+170699999V0201501N001019999999N9999999N1-02161-02531999999ADDMA1999999082451ME1314859REMSYN060AAXX  03034 06792 33/// /1502 11216 21253 38245 48485 5////;
0137067920999992010010304004+46533+009883FM-12+170699999V0201701N001519999999N9999999N1-02081-02461999999ADDMA1999999082421MD1010051+9999ME1314819OA149900261REMSYN076AAXX  03044 06792 33/// /1703 11208 21246 38242 48481 50005 333 91105 91203;
0137067920999992010010305004+46533+009883FM-12+170699999V0202101N000519999999N9999999N1-02191-02441999999ADDMA1999999082451MD1219999+9999ME1314859OA149900261REMSYN076AAXX  03054 06792 33/// /2101 11219 21244 38245 48485 52/// 333 91105 91203;
0333067920999992010010306004+46533+009883FM-12+170699999V0202501N000512200019N0300001N1-02281-02501999999ADDAA124000091AJ100499199999999AL19900091GA1001+999999999GF100991001001999999001001GJ100069IA1239IA2999-00409KA1999N-02561MA1999999082451MD1410001+9999ME1314869OA149901081REMSYN118AAXX  03064 06792 32/80 02501 11228 21250 38245 48486 53000 333 21256 3/104 47049 55001 70000 90768 93100 91121 91214;EQDQ01+000032APCTENQ02  00002PRCP24
0137067920999992010010307004+46533+009883FM-12+170699999V0202001N000519999999N9999999N1-02421-02421999999ADDMA1999999082461MD1210041+9999ME1314889OA149900211REMSYN076AAXX  03074 06792 33/// /2001 11242 21242 38246 48488 52004 333 91104 91202;
0137067920999992010010308004+46533+009883FM-12+170699999V0202401N000519999999N9999999N1-02611-02611999999ADDMA1999999082501MD1219999+9999ME1314939OA149900151REMSYN076AAXX  03084 06792 33/// /2401 11261 21261 38250 48493 52/// 333 91103 91202;
0185067920999992010010309004+46533+009883FM-12+170699999V0209999C000012200019N0500001N1-02361-02511999999ADDGA1031+042001001GF103991999999999999999999MA1999999082531MD1210081+9999ME1314949OA149900261REMSYN082AAXX  03094 06792 32984 30000 11236 21251 38253 48494 52008 333 83064 91105 91203;
0137067920999992010010310004+46533+009883FM-12+170699999V0201501N001019999999N9999999N1-01971-02511999999ADDMA1999999082541MD1210081+9999ME1314919OA149900261REMSYN076AAXX  03104 06792 33/// /1502 11197 21251 38254 48491 52008 333 91105 91202;
0137067920999992010010311004+46533+009883FM-12+170699999V0200101N000519999999N9999999N1-02011-02551999999ADDMA1999999082441MD1810061+9999ME1314829OA149900261REMSYN076AAXX  03114 06792 33/// /0101 11201 21255 38244 48482 58006 333 91105 91202;
0185067920999992010010312004+46533+009883FM-12+170699999V0202001N000512200019N0300001N1-01661-02621999999ADDGA1011+033001041GF101991999999999999999999MA1999999082351MD1710181+9999ME1314719OA149900311REMSYN082AAXX  03124 06792 32980 12001 11166 21262 38235 48471 57018 333 81461 91106 91205;
0137067920999992010010313004+46533+009883FM-12+170699999V0201901N000519999999N9999999N1-01161-02631999999ADDMA1999999082311MD1610231+9999ME1314639OA149900151REMSYN076AAXX  03134 06792 33/// /1901 11116 21263 38231 48463 56023 333 91103 91201;
0137067920999992010010314004+46533+009883FM-12+170699999V0203401N000519999999N9999999N1-01421-02321999999ADDMA1999999082291MD1610151+9999ME1314639OA149900211REMSYN076AAXX  03144 06792 33/// /3401 11142 21232 38229 48463 56015 333 91104 91201;
0185067920999992010010315004+46533+009883FM-12+170699999V0202001N001012200019N0300001N1-01401-02451999999ADDGA1021+042001021GF102991999999999999999999MA1999999082341MD1510011+9999ME1314689OA149900261REMSYN082AAXX  03154 06792 32980 22002 11140 21245 38234 48468 55001 333 82264 91105 91202;
0137067920999992010010316004+46533+009883FM-12+170699999V0201901N001019999999N9999999N1-01671-02261999999ADDMA1999999082361MD1210051+9999ME1314729OA149900211REMSYN076AAXX  03164 06792 33/// /1902 11167 21226 38236 48472 52005 333 91104 91202;
0137067920999992010010317004+46533+009883FM-12+170699999V0202201N002119999999N9999999N1-01761-02511999999ADDMA1999999082331MD1010041+9999ME1314709OA149900311REMSYN076AAXX  03174 06792 33/// /2204 11176 21251 38233 48470 50004 333 91106 91204;
0255067920999992010010318004+46533+009883FM-12+170699999V0201701N000512200019N0200001N1-01871-02591999999ADDAJ100499199999999AL19900091GA1031+004801071GF104991999999004501999999IA1239KA1120M-01161MA1999999082361MD1210021+9999ME1314749OA149900311REMSYN106AAXX  03184 06792 32470 41701 11187 21259 38236 48474 52002 333 11116 47049 83716 90766 93100 91106 91204;
0137067920999992010010319004+46533+009883FM-12+170699999V0202001N000519999999N9999999N1-02031-02271999999ADDMA1999999082401MD1310041+9999ME1314799OA149900261REMSYN076AAXX  03194 06792 33/// /2001 11203 21227 38240 48479 53004 333 91105 91203;
0137067920999992010010320004+46533+009883FM-12+170699999V0201901N001019999999N9999999N1-02271-02451999999ADDMA1999999082351MD1010021+9999ME1314779OA149900311REMSYN076AAXX  03204 06792 33/// /1902 11227 21245 38235 48477 50002 333 91106 91203;
0137067920999992010010321004+46533+009883FM-12+170699999V0201901N001019999999N9999999N1-02221-02401999999ADDMA1999999082371MD1010011+9999ME1314789OA149900311REMSYN076AAXX  03214 06792 33/// /1902 11222 21240 38237 48478 50001 333 91106 91204;
0137067920999992010010322004+46533+009883FM-12+170699999V0202001N000519999999N9999999N1-02301-02531999999ADDMA1999999082371MD1510031+9999ME1314799OA149900261REMSYN076AAXX  03224 06792 33/// /2001 11230 21253 38237 48479 55003 333 91105 91203;
0137067920999992010010323004+46533+009883FM-12+170699999V0202401N001019999999N9999999N1-02521-02521999999ADDMA1999999082361MD1010011+9999ME1314809OA149900211REMSYN076AAXX  03234 06792 33/// /2402 11252 21252 38236 48480 50001 333 91104 91203;
0137067920999992010010400004+46533+009883FM-12+170699999V0202001N001519999999N9999999N1-02301-02521999999ADDMA1999999082331MD1710041+9999ME1314759OA149900311REMSYN076AAXX  04004 06792 33/// /2003 11230 21252 38233 48475 57004 333 91106 91204;
0137067920999992010010401004+46533+009883FM-12+170699999V0201701N000519999999N9999999N1-02511-02511999999ADDMA1999999082291MD1710081+9999ME1314749OA149900311REMSYN076AAXX  04014 06792 33/// /1701 11251 21251 38229 48474 57008 333 91106 91203;
0137067920999992010010402004+46533+009883FM-12+170699999V0202301N001019999999N9999999N1-02381-02381999999ADDMA1999999082261MD1710101+9999ME1314709OA149900261REMSYN076AAXX  04024 06792 33/// /2302 11238 21238 38226 48470 57010 333 91105 91203;
0137067920999992010010403004+46533+009883FM-12+170699999V0202201N001519999999N9999999N1-02531-02531999999ADDMA1999999082191MD1819999+9999ME1314659OA149900311REMSYN076AAXX  04034 06792 33/// /2203 11253 21253 38219 48465 58/// 333 91106 91203;
0137067920999992010010404004+46533+009883FM-12+170699999V0202001N000519999999N9999999N1-02051-02361999999ADDMA1999999082141MD1710151+9999ME1314569OA149900311REMSYN076AAXX  04044 06792 33/// /2001 11205 21236 38214 48456 57015 333 91106 91203;
0137067920999992010010405004+46533+009883FM-12+170699999V0202101N000519999999N9999999N1-01891-02251999999ADDMA1999999082081MD1710181+9999ME1314499OA149900151REMSYN076AAXX  04054 06792 33/// /2101 11189 21225 38208 48449 57018 333 91103 91202;
0234067920999992010010406004+46533+009883FM-12+170699999V0200901N001019999999N9999999N1-01781-02531999999ADDAA124000091AL19900091GJ103489IA2999-00709KA1999N-02581MA1999999082061MD1710131+9999ME1314469OA149900311REMSYN100AAXX  04064 06792 33/// /0902 11178 21253 38206 48446 57013 333 21258 3/107 55058 70000 91106 91203;EQDQ01  00002PRCP24
0137067920999992010010407004+46533+009883FM-12+170699999V0202201N000519999999N9999999N1-01671-02481999999ADDMA1999999082051MD1710091+9999ME1314439OA149900311REMSYN076AAXX  04074 06792 33/// /2201 11167 21248 38205 48443 57009 333 91106 91202;
0137067920999992010010408004+46533+009883FM-12+170699999V0202201N001019999999N9999999N1-01621-02591999999ADDMA1999999082051MD1710031+9999ME1314439OA149900211REMSYN076AAXX  04084 06792 33/// /2202 11162 21259 38205 48443 57003 333 91104 91202;
0207067920999992010010409004+46533+009883FM-12+170699999V0202001N000510540019N0300001N1-01511-02341999999ADDGA1041+024001071GA2051+054001001GF107991999999022501999999MA1999999082031MD1710031+9999ME1314409OA149900311REMSYN088AAXX  04094 06792 32880 72001 11151 21234 38203 48440 57003 333 84758 85068 91106 91203;
0137067920999992010010410004+46533+009883FM-12+170699999V0201901N002119999999N9999999N1-01031-02191999999ADDMA1999999081971MD1710081+9999ME1314299OA149900311REMSYN076AAXX  04104 06792 33/// /1904 11103 21219 38197 48429 57008 333 91106 91204;
0137067920999992010010411004+46533+009883FM-12+170699999V0201901N002619999999N9999999N1-00811-01871999999ADDMA1999999081911MD1710141+9999ME1314219OA149900571REMSYN076AAXX  04114 06792 33/// /1905 11081 21187 38191 48421 57014 333 91111 91207;
0207067920999992010010412004+46533+009883FM-12+170699999V0201901N003610540019N0300001N1-00821-01851999999ADDGA1041+024001061GA2061+054001001GF106991999999022501999999MA1999999081851MD1710181+9999ME1314159OA149900571REMSYN088AAXX  04124 06792 32880 61907 11082 21185 38185 48415 57018 333 84658 86068 91111 91207;
0137067920999992010010413004+46533+009883FM-12+170699999V0202101N003619999999N9999999N1-00801-01821999999ADDMA1999999081811MD1610161+9999ME1314119OA149900571REMSYN076AAXX  04134 06792 33/// /2107 11080 21182 38181 48411 56016 333 91111 91207;
0137067920999992010010414004+46533+009883FM-12+170699999V0202601N001519999999N9999999N1-00791-01621999999ADDMA1999999081761MD1719999+9999ME1314069OA149900571REMSYN076AAXX  04144 06792 33/// /2603 11079 21162 38176 48406 57/// 333 91111 91207;
0185067920999992010010415004+46533+009883FM-12+170699999V0200101N001510330019N0250001N1-00891-01501999999ADDGA1071+033001061GF107991999999999999999999MA1999999081761MD1710091+9999ME1314089OA149900571REMSYN082AAXX  04154 06792 32975 70103 11089 21150 38176 48408 57009 333 87661 91111 91207;
0137067920999992010010416004+46533+009883FM-12+170699999V0209999C000019999999N9999999N1-00841-01491999999ADDMA1999999081761MD1710051+9999ME1314079OA149900211REMSYN076AAXX  04164 06792 33/// /0000 11084 21149 38176 48407 57005 333 91104 91203;
0137067920999992010010417004+46533+009883FM-12+170699999V0202301N000519999999N9999999N1-00961-01331999999ADDMA1999999081741MD1710021+9999ME1314079OA149900151REMSYN076AAXX  04174 06792 33/// /2301 11096 21133 38174 48407 57002 333 91103 91202;
0255067920999992010010418004+46533+009883FM-12+170699999V0201501N001010129019N0200001N1-01001-01321999999ADDAJ100499199999999AL19900091GA1071+012901071GF107991999999012501999999IA1239KA1120M-00681MA1999999081721MD1710041+9999ME1314059OA149900571REMSYN106AAXX  04184 06792 32670 71502 11100 21132 38172 48405 57004 333 11068 47049 87743 90766 93100 91111 91207;
0137067920999992010010419004+46533+009883FM-12+170699999V0201901N001519999999N9999999N1-01031-01381999999ADDMA1999999081721MD1710041+9999ME1314059OA149900261REMSYN076AAXX  04194 06792 33/// /1903 11103 21138 38172 48405 57004 333 91105 91203;
0137067920999992010010420004+46533+009883FM-12+170699999V0201701N001019999999N9999999N1-01041-01351999999ADDMA1999999081701MD1710041+9999ME1314049OA149900261REMSYN076AAXX  04204 06792 33/// /1702 11104 21135 38170 48404 57004 333 91105 91203;
0137067920999992010010421004+46533+009883FM-12+170699999V0201801N001019999999N9999999N1-01111-01411999999ADDMA1999999081691MD1710031+9999ME1314049OA149900261REMSYN076AAXX  04214 06792 33/// /1802 11111 21141 38169 48404 57003 333 91105 91203;
0137067920999992010010422004+46533+009883FM-12+170699999V0209999C000019999999N9999999N1-01131-01391999999ADDMA1999999081671MD1710051+9999ME1314029OA149900211REMSYN076AAXX  04224 06792 33/// /0000 11113 21139 38167 48402 57005 333 91104 91203;
0137067920999992010010423004+46533+009883FM-12+170699999V0202301N001019999999N9999999N1-01181-01471999999ADDMA1999999081651MD1710051+9999ME1314019OA149900261REMSYN076AAXX  04234 06792 33/// /2302 11118 21147 38165 48401 57005 333 91105 91204;
0137067920999992010010500004+46533+009883FM-12+170699999V0201801N001019999999N9999999N1-01161-01421999999ADDMA1999999081591MD1710101+9999ME1313959OA149900571REMSYN076AAXX  05004 06792 33/// /1802 11116 21142 38159 48395 57010 333 91111 91207;
0137067920999992010010501004+46533+009883FM-12+170699999V0201701N001519999999N9999999N1-01291-01511999999ADDMA1999999081551MD1710121+9999ME1313929OA149900211REMSYN076AAXX  05014 06792 33/// /1703 11129 21151 38155 48392 57012 333 91104 91203;
0137067920999992010010502004+46533+009883FM-12+170699999V0202001N001519999999N9999999N1-01451-01671999999ADDMA1999999081531MD1610121+9999ME1313939OA149900211REMSYN076AAXX  05024 06792 33/// /2003 11145 21167 38153 48393 56012 333 91104 91203;
0137067920999992010010503004+46533+009883FM-12+170699999V0202101N001019999999N9999999N1-01541-02061999999ADDMA1999999081491MD1610101+9999ME1313909OA149900311REMSYN076AAXX  05034 06792 33/// /2102 11154 21206 38149 48390 56010 333 91106 91204;
0137067920999992010010504004+46533+009883FM-12+170699999V0209999C000019999999N9999999N1-01801-02361999999ADDMA1999999081461MD1810091+9999ME1313909OA149900311REMSYN076AAXX  05044 06792 33/// /0000 11180 21236 38146 48390 58009 333 91106 91204;
0137067920999992010010505004+46533+009883FM-12+170699999V0201901N001019999999N9999999N1-01701-02451999999ADDMA1999999081401MD1610131+9999ME1313849OA149900211REMSYN076AAXX  05054 06792 33/// /1902 11170 21245 38140 48384 56013 333 91104 91203;
0250067920999992010010506004+46533+009883FM-12+170699999V0201401N000519999999N9999999N1-01891-02821999999ADDAA124000091AL19900091GJ100369IA2999-00609KA1999N+99999MA1999999081381MD1610111+9999ME1313849OA149900311REMSYN100AAXX  05064 06792 33/// /1401 11189 21282 38138 48384 56011 333 21182 3/106 55006 70000 91106 91204;EQDQ01  00002PRCP24Q02 -01822ATMN  
0137067920999992010010507004+46533+009883FM-12+170699999V0209999C000019999999N9999999N1-01961-02811999999ADDMA1999999081351MD1610111+9999ME1313829OA149900211REMSYN076AAXX  05074 06792 33/// /0000 11196 21281 38135 48382 56011 333 91104 91202;
0137067920999992010010508004+46533+009883FM-12+170699999V0202101N001019999999N9999999N1-01831-02911999999ADDMA1999999081361MD1710041+9999ME1313829OA149900151REMSYN076AAXX  05084 06792 33/// /2102 11183 21291 38136 48382 57004 333 91103 91203;
0185067920999992010010509004+46533+009883FM-12+170699999V0209999C000010330019N0500001N1-01641-02371999999ADDGA1061+033001041GF106991999999999999999999MA1999999081341MD1710041+9999ME1313779OA149900211REMSYN082AAXX  05094 06792 32984 60000 11164 21237 38134 48377 57004 333 86461 91104 91203;
0137067920999992010010510004+46533+009883FM-12+170699999V0202201N001019999999N9999999N1-01561-02251999999ADDMA1999999081321MD1810031+9999ME1313749OA149900151REMSYN076AAXX  05104 06792 33/// /2202 11156 21225 38132 48374 58003 333 91103 91202;
0137067920999992010010511004+46533+009883FM-12+170699999V0202501N000519999999N9999999N1-01321-01951999999ADDMA1999999081221MD1810141+9999ME1313629OA149900151REMSYN076AAXX  05114 06792 33/// /2501 11132 21195 38122 48362 58014 333 91103 91202;
0185067920999992010010512004+46533+009883FM-12+170699999V0200601N000512200019N0350001N1-01131-01551999999ADDGA1041+054001021GF104991999999999999999999MA1999999081131MD1810211+9999ME1313519OA149900311REMSYN082AAXX  05124 06792 32981 40601 11113 21155 38113 48351 58021 333 84268 91106 91204;
0137067920999992010010513004+46533+009883FM-12+170699999V0202801N000519999999N9999999N1-01051-01491999999ADDMA1999999081061MD1610261+9999ME1313439OA149900101REMSYN076AAXX  05134 06792 33/// /2801 11105 21149 38106 48343 56026 333 91102 91201;
0096067920999992010010514004+46533+009883FM-12+170699999V0209999C000019999999N9999999N1-00991-01441999999ADDMA1999999081011ME1313379REMSYN060AAXX  05144 06792 33/// /0000 11099 21144 38101 48337 5////;
0137067920999992010010515004+46533+009883FM-12+170699999V0202001N000519999999N9999999N1-00891-01381999999ADDMA1999999081011MD1710121+9999ME1313369OA149900151REMSYN076AAXX  05154 06792 33/// /2001 11089 21138 38101 48336 57012 333 91103 91202;
0137067920999992010010516004+46533+009883FM-12+170699999V0203201N000519999999N9999999N1-01141-01391999999ADDMA1999999081001MD1710061+9999ME1313389OA149900151REMSYN076AAXX  05164 06792 33/// /3201 11114 21139 38100 48338 57006 333 91103 91202;
0137067920999992010010517004+46533+009883FM-12+170699999V0201901N001019999999N9999999N1-01251-01481999999ADDMA1999999081001MD1810011+9999ME1313409OA149900151REMSYN076AAXX  05174 06792 33/// /1902 11125 21148 38100 48340 58001 333 91103 91202;
0156067920999992010010518004+46533+009883FM-12+170699999V0201901N001019999999N9999999N1-01281-01551999999ADDKA1120M-00861MA1999999080991MD1710021+9999ME1313399OA149900151REMSYN082AAXX  05184 06792 33/// /1902 11128 21155 38099 48339 57002 333 11086 91103 91203;
0137067920999992010010519004+46533+009883FM-12+170699999V0201801N001019999999N9999999N1-01341-01641999999ADDMA1999999080971MD1710031+9999ME1313389OA149900211REMSYN076AAXX  05194 06792 33/// /1802 11134 21164 38097 48338 57003 333 91104 91203;
0137067920999992010010520004+46533+009883FM-12+170699999V0202001N001019999999N9999999N1-01391-01941999999ADDMA1999999080921MD1810081+9999ME1313349OA149900211REMSYN076AAXX  05204 06792 33/// /2002 11139 21194 38092 48334 58008 333 91104 91203;
0137067920999992010010521004+46533+009883FM-12+170699999V0202301N000519999999N9999999N1-01541-02071999999ADDMA1999999080911MD1610081+9999ME1313359OA149900211REMSYN076AAXX  05214 06792 33/// /2301 11154 21207 38091 48335 56008 333 91104 91203;
0137067920999992010010522004+46533+009883FM-12+170699999V0202001N001019999999N9999999N1-01431-01731999999ADDMA1999999080871MD1810101+9999ME1313309OA149900151REMSYN076AAXX  05224 06792 33/// /2002 11143 21173 38087 48330 58010 333 91103 91202;
0137067920999992010010523004+46533+009883FM-12+170699999V0202201N000519999999N9999999N1-01541-02141999999ADDMA1999999080841MD1810081+9999ME1313299OA149900151REMSYN076AAXX  05234 06792 33/// /2201 11154 21214 38084 48329 58008 333 91103 91202;
0137067920999992010010600004+46533+009883FM-12+170699999V0202001N001519999999N9999999N1-01581-02131999999ADDMA1999999080791MD1810121+9999ME1313259OA149900211REMSYN076AAXX  06004 06792 33/// /2003 11158 21213 38079 48325 58012 333 91104 91203;
0137067920999992010010601004+46533+009883FM-12+170699999V0201901N001519999999N9999999N1-01601-02091999999ADDMA1999999080771MD1610101+9999ME1313239OA149900211REMSYN076AAXX  06014 06792 33/// /1903 11160 21209 38077 48323 56010 333 91104 91203;
0137067920999992010010602004+46533+009883FM-12+170699999V0202101N000519999999N9999999N1-01821-02451999999ADDMA1999999080781MD1710061+9999ME1313279OA149900211REMSYN076AAXX  06024 06792 33/// /2101 11182 21245 38078 48327 57006 333 91104 91203;
0137067920999992010010603004+46533+009883FM-12+170699999V0202101N001019999999N9999999N1-01761-02471999999ADDMA1999999080771MD1710021+9999ME1313269OA149900211REMSYN076AAXX  06034 06792 33/// /2102 11176 21247 38077 48326 57002 333 91104 91203;
0137067920999992010010604004+46533+009883FM-12+170699999V0202201N001019999999N9999999N1-01831-02421999999ADDMA1999999080741MD1810031+9999ME1313249OA149900211REMSYN076AAXX  06044 06792 33/// /2202 11183 21242 38074 48324 58003 333 91104 91203;
0137067920999992010010605004+46533+009883FM-12+170699999V0202201N000519999999N9999999N1-02011-02221999999ADDMA1999999080751MD1710031+9999ME1313289OA149900211REMSYN076AAXX  06054 06792 33/// /2201 11201 21222 38075 48328 57003 333 91104 91203;
0317067920999992010010606004+46533+009883FM-12+170699999V0202401N001012200019N0350001N1-02111-02551999999ADDAA124000091AJ100499199999999AL19900091GA1001+999999999GF100991001001999999001001GJ101869IA1239IA2999-00609KA1999N-02161MA1999999080781MD1310011+9999ME1313329OA149900211REMSYN118AAXX  06064 06792 32/81 02402 11211 21255 38078 48332 53001 333 21216 3/106 47049 55031 70000 90768 93100 91104 91203;EQDQ01  00002PRCP24
0137067920999992010010607004+46533+009883FM-12+170699999V0202001N001019999999N9999999N1-01821-02541999999ADDMA1999999080791MD1210051+9999ME1313289OA149900151REMSYN076AAXX  06074 06792 33/// /2002 11182 21254 38079 48328 52005 333 91103 91202;
0137067920999992010010608004+46533+009883FM-12+170699999V0201801N000519999999N9999999N1-01891-02631999999ADDMA1999999080791MD1210041+9999ME1313299OA149900151REMSYN076AAXX  06084 06792 33/// /1801 11189 21263 38079 48329 52004 333 91103 91202;
0137067920999992010010609004+46533+009883FM-12+170699999V0201801N000519999999N9999999N1-01741-02521999999ADDMA1999999080811MD1210031+9999ME1313299OA149900211REMSYN076AAXX  06094 06792 33/// /1801 11174 21252 38081 48329 52003 333 91104 91203;
0137067920999992010010610004+46533+009883FM-12+170699999V0201801N000519999999N9999999N1-01601-02001999999ADDMA1999999080831MD1210041+9999ME1313299OA149900151REMSYN076AAXX  06104 06792 33/// /1801 11160 21200 38083 48329 52004 333 91103 91202;
0137067920999992010010611004+46533+009883FM-12+170699999V0202101N000519999999N9999999N1-01111-01531999999ADDMA1999999080791MD1819999+9999ME1313189OA149900151REMSYN076AAXX  06114 06792 33/// /2101 11111 21153 38079 48318 58/// 333 91103 91202;
0185067920999992010010612004+46533+009883FM-12+170699999V0209999C000012200019N0350001N1-00961-01361999999ADDGA1021+015001061GF102991999999017501999999MA1999999080751MD1710061+9999ME1313119OA149900211REMSYN082AAXX  06124 06792 32781 20000 11096 21136 38075 48311 57006 333 82650 91104 91203;
0137067920999992010010613004+46533+009883FM-12+170699999V0209999C000019999999N9999999N1-00681-01331999999ADDMA1999999080741MD1710091+9999ME1313069OA149900101REMSYN076AAXX  06134 06792 33/// /0000 11068 21133 38074 48306 57009 333 91102 91201;
0137067920999992010010614004+46533+009883FM-12+170699999V0209999C000019999999N9999999N1-00591-01301999999ADDMA1999999080751MD1519999+9999ME1313069OA149900101REMSYN076AAXX  06144 06792 33/// /0000 11059 21130 38075 48306 55/// 333 91102 91201;
0185067920999992010010615004+46533+009883FM-12+170699999V0202901N000512200019N0450001N1-00681-01331999999ADDGA1011+015001061GF101991999999017501999999MA1999999080761MD1319999+9999ME1313089OA149900261REMSYN082AAXX  06154 06792 32783 12901 11068 21133 38076 48308 53/// 333 81650 91105 91203;
0137067920999992010010616004+46533+009883FM-12+170699999V0201901N001519999999N9999999N1-01241-01551999999ADDMA1999999080841MD1210101+9999ME1313249OA149900261REMSYN076AAXX  06164 06792 33/// /1903 11124 21155 38084 48324 52010 333 91105 91203;
0137067920999992010010617004+46533+009883FM-12+170699999V0201801N000519999999N9999999N1-01231-01491999999ADDMA1999999080891MD1310141+9999ME1313299OA149900261REMSYN076AAXX  06174 06792 33/// /1801 11123 21149 38089 48329 53014 333 91105 91204;
0255067920999992010010618004+46533+009883FM-12+170699999V0202001N000512200019N0350001N1-01331-01561999999ADDAJ100499199999999AL19900091GA1011+015001061GF101991999999017501999999IA1239KA1120M-00591MA1999999080951MD1119999+9999ME1313369OA149900261REMSYN106AAXX  06184 06792 32781 12001 11133 21156 38095 48336 51/// 333 11059 47049 81650 90766 93100 91105 91204;
0137067920999992010010619004+46533+009883FM-12+170699999V0209999C000019999999N9999999N1-01381-01571999999ADDMA1999999080991MD1110151+9999ME1313419OA149900211REMSYN076AAXX  06194 06792 33/// /0000 11138 21157 38099 48341 51015 333 91104 91203;
0137067920999992010010620004+46533+009883FM-12+170699999V0201301N000519999999N9999999N1-01471-01671999999ADDMA1999999081011MD1110121+9999ME1313449OA149900211REMSYN076AAXX  06204 06792 33/// /1301 11147 21167 38101 48344 51012 333 91104 91203;
0137067920999992010010621004+46533+009883FM-12+170699999V0202401N001019999999N9999999N1-01441-01691999999ADDMA1999999081031MD1210081+9999ME1313459OA149900261REMSYN076AAXX  06214 06792 33/// /2402 11144 21169 38103 48345 52008 333 91105 91204;
0137067920999992010010622004+46533+009883FM-12+170699999V0202001N000519999999N9999999N1-01541-01781999999ADDMA1999999081051MD1210061+9999ME1313499OA149900211REMSYN076AAXX  06224 06792 33/// /2001 11154 21178 38105 48349 52006 333 91104 91203;
0137067920999992010010623004+46533+009883FM-12+170699999V0201401N000519999999N9999999N1-01511-01951999999ADDMA1999999081061MD1210051+9999ME1313499OA149900211REMSYN076AAXX  06234 06792 33/// /1401 11151 21195 38106 48349 52005 333 91104 91203;
0137067920999992010010700004+46533+009883FM-12+170699999V0201801N001019999999N9999999N1-01341-01601999999ADDMA1999999081051MD1010021+9999ME1313469OA149900261REMSYN076AAXX  07004 06792 33/// /1802 11134 21160 38105 48346 50002 333 91105 91204;
0137067920999992010010701004+46533+009883FM-12+170699999V0200201N000519999999N9999999N1-01571-01761999999ADDMA1999999081051MD1010001+9999ME1313499OA149900211REMSYN076AAXX  07014 06792 33/// /0201 11157 21176 38105 48349 50000 333 91104 91202;
0137067920999992010010702004+46533+009883FM-12+170699999V0202001N000519999999N9999999N1-01541-01751999999ADDMA1999999081071MD1519999+9999ME1313519OA149900211REMSYN076AAXX  07024 06792 33/// /2001 11154 21175 38107 48351 55/// 333 91104 91202;
0137067920999992010010703004+46533+009883FM-12+170699999V0203601N000519999999N9999999N1-01421-01641999999ADDMA1999999081101MD1210051+9999ME1313529OA149900211REMSYN076AAXX  07034 06792 33/// /3601 11142 21164 38110 48352 52005 333 91104 91203;
0154067920999992010010704004+46533+009883FM-12+170699999V0202601N001019999999N9999999N1-01221-01431999999ADDAA101000591MA1999999081121MD1210071+9999ME1313519OA149900211REMSYN082AAXX  07044 06792 23/// /2602 11122 21143 38112 48351 52007 333 69945 91104 91202;
0137067920999992010010705004+46533+009883FM-12+170699999V0201801N000519999999N9999999N1-01391-01851999999ADDMA1999999081171MD1210101+9999ME1313589OA149900211REMSYN076AAXX  07054 06792 33/// /1801 11139 21185 38117 48358 52010 333 91104 91202;
0365067920999992010010706004+46533+009883FM-12+170699999V0202601N000510120019N0200001N1-01481-01901999999ADDAA112000591AA224000591AJ100519199999999AL12400091AL29900291AY171061AY211061GA1061+012001071GF106991999999012501999999GJ103849IA1239IA2999-00609KA1999N-01691MA1999999081251MD1310151+9999ME1313679MW1021OA149900211REMSYN142AAXX  07064 06792 01670 62601 11148 21190 38125 48367 53015 69942 70271 333 21169 3/106 47051 55064 60005 70004 86740 90768 93102 91104 91203;
0137067920999992010010707004+46533+009883FM-12+170699999V0202101N001019999999N9999999N1-01611-02261999999ADDMA1999999081321MD1310201+9999ME1313759OA149900211REMSYN076AAXX  07074 06792 33/// /2102 11161 21226 38132 48375 53020 333 91104 91203;
0137067920999992010010708004+46533+009883FM-12+170699999V0201901N001019999999N9999999N1-01891-02501999999ADDMA1999999081411MD1319999+9999ME1313879OA149900211REMSYN076AAXX  07084 06792 33/// /1902 11189 21250 38141 48387 53/// 333 91104 91203;
0185067920999992010010709004+46533+009883FM-12+170699999V0203201N000512200019N0500001N1-01711-02821999999ADDGA1011+007801061GF101991999999008001999999MA1999999081471MD1110221+9999ME1313909OA149900211REMSYN082AAXX  07094 06792 32584 13201 11171 21282 38147 48390 51022 333 81626 91104 91203;
0137067920999992010010710004+46533+009883FM-12+170699999V0201701N001019999999N9999999N1-01311-01841999999ADDMA1999999081531MD1110211+9999ME1313919OA149900151REMSYN076AAXX  07104 06792 33/// /1702 11131 21184 38153 48391 51021 333 91103 91202;
0137067920999992010010711004+46533+009883FM-12+170699999V0201101N001019999999N9999999N1-01151-01661999999ADDMA1999999081511MD1210101+9999ME1313879OA149900151REMSYN076AAXX  07114 06792 33/// /1102 11115 21166 38151 48387 52010 333 91103 91202;
0204067920999992010010712004+46533+009883FM-12+170699999V0203501N000510630019N0350001N1-01301-01771999999ADDGA1071+063001021GF107991999999999999999999MA1999999081471MD1410001+9999ME1313859OA149900261REMSYN082AAXX  07124 06792 32981 73501 11130 21177 38147 48385 58000 333 87271 91105 91203;EQDQ01+000082APCTEN
0137067920999992010010713004+46533+009883FM-12+170699999V0201701N000519999999N9999999N1-01051-01421999999ADDMA1999999081451MD1719999+9999ME1313809OA149900261REMSYN076AAXX  07134 06792 33/// /1701 11105 21142 38145 48380 57/// 333 91105 91202;
0118067920999992010010715004+46533+009883FM-12+170699999V02099999999990420019N0350001N1+99999+99999999999ADDGA1081+042001041GF108991999999999999999999REMSYN064AAXX  07154 06792 42981 8//// 1//// 2//// 3//// 5//// 333 88464;
0137067920999992010010716004+46533+009883FM-12+170699999V0202001N000519999999N9999999N1-00691-01251999999ADDMA1999999081561MD1219999+9999ME1313869OA149900211REMSYN076AAXX  07164 06792 33/// /2001 11069 21125 38156 48386 52/// 333 91104 91202;
0137067920999992010010717004+46533+009883FM-12+170699999V0202201N001519999999N9999999N1-00901-01241999999ADDMA1999999081601MD1319999+9999ME1313929OA149900261REMSYN076AAXX  07174 06792 33/// /2203 11090 21124 38160 48392 53/// 333 91105 91203;
0255067920999992010010718004+46533+009883FM-12+170699999V0201501N000510270019N0350001N1-00891-01211999999ADDAJ100499199999999AL19900091GA1081+027001041GF108991999999999999999999IA1239KA1120M-00681MA1999999081631MD1119999+9999ME1313959OA149900261REMSYN106AAXX  07184 06792 32981 81501 11089 21121 38163 48395 51/// 333 11068 47049 88459 90766 93100 91105 91203;
0137067920999992010010719004+46533+009883FM-12+170699999V0209999C000019999999N9999999N1-01031-01331999999ADDMA1999999081661MD1110101+9999ME1314009OA149900211REMSYN076AAXX  07194 06792 33/// /0000 11103 21133 38166 48400 51010 333 91104 91203;
0137067920999992010010720004+46533+009883FM-12+170699999V0201801N001019999999N9999999N1-00901-01161999999ADDMA1999999081641MD1010041+9999ME1313969OA149900211REMSYN076AAXX  07204 06792 33/// /1802 11090 21116 38164 48396 50004 333 91104 91203;
0137067920999992010010721004+46533+009883FM-12+170699999V0200101N000519999999N9999999N1-00991-01211999999ADDMA1999999081661MD1210031+9999ME1313999OA149900261REMSYN076AAXX  07214 06792 33/// /0101 11099 21121 38166 48399 52003 333 91105 91203;
0137067920999992010010722004+46533+009883FM-12+170699999V0209999C000019999999N9999999N1-00991-01221999999ADDMA1999999081671MD1310011+9999ME1314009OA149900211REMSYN076AAXX  07224 06792 33/// /0000 11099 21122 38167 48400 53001 333 91104 91202;
0137067920999992010010723004+46533+009883FM-12+170699999V0203001N001019999999N9999999N1-01031-01241999999ADDMA1999999081641MD1010001+9999ME1313989OA149900261REMSYN076AAXX  07234 06792 33/// /3002 11103 21124 38164 48398 50000 333 91105 91204;
0137067920999992010010800004+46533+009883FM-12+170699999V0202301N000519999999N9999999N1-00961-01161999999ADDMA1999999081561MD1710101+9999ME1313899OA149900261REMSYN076AAXX  08004 06792 33/// /2301 11096 21116 38156 48389 57010 333 91105 91204;
0137067920999992010010801004+46533+009883FM-12+170699999V0201801N001019999999N9999999N1-00921-01101999999ADDMA1999999081501MD1710171+9999ME1313839OA149900151REMSYN076AAXX  08014 06792 33/// /1802 11092 21110 38150 48383 57017 333 91103 91202;
0154067920999992010010802004+46533+009883FM-12+170699999V0202101N000519999999N9999999N1-00891-01051999999ADDAA101000391MA1999999081461MD1719999+9999ME1313799OA149900151REMSYN082AAXX  08024 06792 23/// /2101 11089 21105 38146 48379 57/// 333 69935 91103 91202;
0154067920999992010010803004+46533+009883FM-12+170699999V0201801N001519999999N9999999N1-00861-01031999999ADDAA101000591MA1999999081401MD1719999+9999ME1313739OA149900261REMSYN082AAXX  08034 06792 23/// /1803 11086 21103 38140 48373 57/// 333 69945 91105 91204;
0154067920999992010010804004+46533+009883FM-12+170699999V0200701N001019999999N9999999N1-00801-00961999999ADDAA101000591MA1999999081371MD1710131+9999ME1313699OA149900261REMSYN082AAXX  08044 06792 23/// /0702 11080 21096 38137 48369 57013 333 69955 91105 91203;
0154067920999992010010805004+46533+009883FM-12+170699999V0201001N000519999999N9999999N1-00791-00941999999ADDAA101000591MA1999999081331MD1610131+9999ME1313659OA149900361REMSYN082AAXX  08054 06792 23/// /1001 11079 21094 38133 48365 56013 333 69955 91107 91204;
0365067920999992010010806004+46533+009883FM-12+170699999V0201901N000510120019N0100001N1-00801-00951999999ADDAA112002091AA224002091AJ100599199999999AL19900291AL29901091AY171061AY221061GA1081+012001071GF108991999999012501999999GJ102109IA1239IA2999-00509KA1999N-01131MA1999999081321MD1710081+9999ME1313649MW1711OA149900361REMSYN142AAXX  08064 06792 01660 81901 11080 21095 38132 48364 57008 60022 77172 333 21113 3/105 47059 55035 69955 70020 88740 90768 93110 91107 91204;
0154067920999992010010807004+46533+009883FM-12+170699999V0201601N000519999999N9999999N1-00771-00921999999ADDAA101000591MA1999999081321MD1710051+9999ME1313649OA149900151REMSYN082AAXX  08074 06792 23/// /1601 11077 21092 38132 48364 57005 333 69965 91103 91202;
0154067920999992010010808004+46533+009883FM-12+170699999V0200101N001519999999N9999999N1-00731-00881999999ADDAA101001091MA1999999081281MD1710051+9999ME1313599OA149900311REMSYN082AAXX  08084 06792 23/// /0103 11073 21088 38128 48359 57005 333 60015 91106 91203;
0224067920999992010010809004+46533+009883FM-12+170699999V0200301N002110003019N0005001N1-00711-00881999999ADDAA101000391AY171031AY221031GA1091+999999999GF109991091999999999999999MA1999999081251MD1710071+9999ME1313569MW1731OA149900411REMSYN088AAXX  08094 06792 21/05 90304 11071 21088 38125 48356 57007 77372 333 69935 91108 91206;
0154067920999992010010810004+46533+009883FM-12+170699999V0200901N000519999999N9999999N1-00681-00871999999ADDAA101000391MA1999999081231MD1610091+9999ME1313549OA149900411REMSYN082AAXX  08104 06792 23/// /0901 11068 21087 38123 48354 56009 333 69935 91108 91206;
0154067920999992010010811004+46533+009883FM-12+170699999V0200301N000519999999N9999999N1-00641-00801999999ADDAA101000591MA1999999081161MD1810121+9999ME1313479OA149900311REMSYN082AAXX  08114 06792 23/// /0301 11064 21080 38116 48347 58012 333 69945 91106 91204;
0230067920999992010010812004+46533+009883FM-12+170699999V0201901N000510006019N0010001N1-00611-00791999999ADDAA106003091AY171061AY271061GA1091+999999999GF109991091999999999999999MA1999999081041MD1810211+9999ME1313349MW1731OA149900411REMSYN094AAXX  08124 06792 01/10 91901 11061 21079 38104 48334 58021 60031 77377 333 69925 91108 91206;
0154067920999992010010813004+46533+009883FM-12+170699999V0209999C000019999999N9999999N1-00581-00751999999ADDAA101000021MA1999999080951MD1710281+9999ME1313259OA149900101REMSYN082AAXX  08134 06792 23/// /0000 11058 21075 38095 48325 57028 333 69915 91102 91201;
0143067920999992010010814004+46533+009883FM-12+170699999V0201801N000519999999N9999999N1-00551-00731999999ADDMA1999999080891MD1619999+9999ME1313199OA149900151REMSYN082AAXX  08144 06792 33/// /1801 11055 21073 38089 48319 56/// 91340 333 91103 91201;
0213067920999992010010815004+46533+009883FM-12+170699999V0200901N000510078019N0050001N1-00471-00661999999ADDAY171031AY221031GA1071+007801051GF107991999999008001999999MA1999999080861MD1610181+9999ME1313159MW1701OA149900311REMSYN088AAXX  08154 06792 31550 70901 11047 21066 38086 48315 56018 77072 333 87526 91106 91204;
0137067920999992010010816004+46533+009883FM-12+170699999V0200201N004619999999N9999999N1-00511-00691999999ADDMA1999999080861MD1710091+9999ME1313159OA149900671REMSYN076AAXX  08164 06792 33/// /0209 11051 21069 38086 48315 57009 333 91113 91209;
0137067920999992010010817004+46533+009883FM-12+170699999V0200201N004119999999N9999999N1-00521-00711999999ADDMA1999999080861MD1710031+9999ME1313169OA149900671REMSYN076AAXX  08174 06792 33/// /0208 11052 21071 38086 48316 57003 333 91113 91209;
0306067920999992010010818004+46533+009883FM-12+170699999V0200301N002110018019N0070001N1-00541-00681999999ADDAA112003091AJ100619199999999AL11200391AY171061AY221061GA1081+001801051GF108991999999001501999999IA1239KA1120M-00461MA1999999080911MD1210051+9999ME1313219MW1711OA149900671REMSYN124AAXX  08184 06792 01257 80304 11054 21068 38091 48321 52005 60032 77172 333 11046 47061 60005 88506 90766 93103 91113 91209;
0154067920999992010010819004+46533+009883FM-12+170699999V0200401N002619999999N9999999N1-00531-00691999999ADDAA101000591MA1999999080931MD1210071+9999ME1313239OA149900571REMSYN082AAXX  08194 06792 23/// /0405 11053 21069 38093 48323 52007 333 69945 91111 91208;
0154067920999992010010820004+46533+009883FM-12+170699999V0209999C002119999999N9999999N1-00561-00701999999ADDAA101000021MA1999999080931MD1110071+9999ME1313239OA149900411REMSYN082AAXX  08204 06792 23/// /0004 11056 21070 38093 48323 51007 333 69925 91108 91206;
0154067920999992010010821004+46533+009883FM-12+170699999V0200101N001019999999N9999999N1-00591-00721999999ADDAA101000021MA1999999080951MD1210041+9999ME1313259OA149900671REMSYN082AAXX  08214 06792 23/// /0102 11059 21072 38095 48325 52004 333 69915 91113 91209;
0154067920999992010010822004+46533+009883FM-12+170699999V0209999C000019999999N9999999N1-00631-00731999999ADDAA101000021MA1999999080971MD1210041+9999ME1313289OA149900261REMSYN082AAXX  08224 06792 23/// /0000 11063 21073 38097 48328 52004 333 69925 91105 91204;
0137067920999992010010823004+46533+009883FM-12+170699999V0200201N001019999999N9999999N1-00641-00741999999ADDMA1999999080971MD1210041+9999ME1313289OA149900151REMSYN076AAXX  08234 06792 33/// /0202 11064 21074 38097 48328 52004 333 91103 91202;
0160067920999992010010900004+46533+009883FM-12+170699999V0200601N000519999999N9999999N1-00791-00881999999ADDAA106001091MA1999999080981MD1010031+9999ME1313319OA149900671REMSYN088AAXX  09004 06792 03/// /0601 11079 21088 38098 48331 50003 69991 333 60005 91113 91209;
0156067920999992010010901004+46533+009883FM-12+170699999V0201101N000519999999N9999999N1-00891-00931999999ADDMA1999999080971MD1410001+9999ME1313329OA149900211REMSYN076AAXX  09014 06792 33/// /1101 11089 21093 38097 48332 57000 333 91104 91203;EQDQ01+000072APCTEN
0137067920999992010010902004+46533+009883FM-12+170699999V0201801N001019999999N9999999N1-00921-01011999999ADDMA1999999081001MD1319999+9999ME1313359OA149900151REMSYN076AAXX  09024 06792 33/// /1802 11092 21101 38100 48335 53/// 333 91103 91202;
0137067920999992010010903004+46533+009883FM-12+170699999V0202401N000519999999N9999999N1-01141-01281999999ADDMA1999999081031MD1219999+9999ME1313419OA149900261REMSYN076AAXX  09034 06792 33/// /2401 11114 21128 38103 48341 52/// 333 91105 91203;
0137067920999992010010904004+46533+009883FM-12+170699999V0200701N000519999999N9999999N1-01011-01151999999ADDMA1999999081001MD1010031+9999ME1313369OA149900261REMSYN076AAXX  09044 06792 33/// /0701 11101 21115 38100 48336 50003 333 91105 91203;
0137067920999992010010905004+46533+009883FM-12+170699999V0202701N000519999999N9999999N1-00911-01011999999ADDMA1999999080931MD1710071+9999ME1313289OA149900151REMSYN076AAXX  09054 06792 33/// /2701 11091 21101 38093 48328 57007 333 91103 91202;
0238067920999992010010906004+46533+009883FM-12+170699999V0201001N001019999999N9999999N1-00951-01091999999ADDAA112001091AA224004191AL19900491GJ100009IA2999-00409KA1999N-01201MA1999999080871MD1710161+9999ME1313239OA149900411REMSYN112AAXX  09064 06792 03/// /1002 11095 21109 38087 48323 57016 69992 333 21120 3/104 55000 60005 70040 91108 91206;
0137067920999992010010907004+46533+009883FM-12+170699999V0201501N000519999999N9999999N1-01161-01361999999ADDMA1999999080841MD1710161+9999ME1313239OA149900211REMSYN076AAXX  09074 06792 33/// /1501 11116 21136 38084 48323 57016 333 91104 91203;
0137067920999992010010908004+46533+009883FM-12+170699999V0201401N000519999999N9999999N1-01131-01321999999ADDMA1999999080851MD1710081+9999ME1313249OA149900211REMSYN076AAXX  09084 06792 33/// /1401 11113 21132 38085 48324 57008 333 91104 91203;
0185067920999992010010909004+46533+009883FM-12+170699999V0201401N000510009019N0015001N1-01081-01171999999ADDGA1071+000901071GF107991999999000751999999MA1999999080821MD1810051+9999ME1313209OA149900211REMSYN082AAXX  09094 06792 32115 71401 11108 21117 38082 48320 58005 333 87703 91104 91203;
0137067920999992010010910004+46533+009883FM-12+170699999V0200801N000519999999N9999999N1-00851-00991999999ADDMA1999999080791MD1710051+9999ME1313149OA149900151REMSYN076AAXX  09104 06792 33/// /0801 11085 21099 38079 48314 57005 333 91103 91202;
0137067920999992010010911004+46533+009883FM-12+170699999V0209999C000019999999N9999999N1-00711-00861999999ADDMA1999999080711MD1710141+9999ME1313049OA149900361REMSYN076AAXX  09114 06792 33/// /0000 11071 21086 38071 48304 57014 333 91107 91203;
0137067920999992010010912004+46533+009883FM-12+170699999V0200101N001519999999N9999999N1-00661-00821999999ADDMA1999999080611MD1710211+9999ME1312939OA149900361REMSYN076AAXX  09124 06792 33/// /0103 11066 21082 38061 48293 57021 333 91107 91203;
0137067920999992010010913004+46533+009883FM-12+170699999V0200201N004619999999N9999999N1-00641-00831999999ADDMA1999999080551MD1710241+9999ME1312879OA149900621REMSYN076AAXX  09134 06792 33/// /0209 11064 21083 38055 48287 57024 333 91112 91209;
0137067920999992010010914004+46533+009883FM-12+170699999V0200201N005119999999N9999999N1-00611-00831999999ADDMA1999999080581MD1510131+9999ME1312899OA149900721REMSYN076AAXX  09144 06792 33/// /0210 11061 21083 38058 48289 55013 333 91114 91210;
0213067920999992010010915004+46533+009883FM-12+170699999V0200201N004610030019N0015001N1-00641-00851999999ADDAY171031AY221031GA1081+003001051GF108991999999004501999999MA1999999080601MD1310011+9999ME1312929MW1711OA149900821REMSYN088AAXX  09154 06792 31415 80209 11064 21085 38060 48292 53001 77172 333 88510 91116 91210;
0137067920999992010010916004+46533+009883FM-12+170699999V0200101N004119999999N9999999N1-00711-00921999999ADDMA1999999080651MD1310101+9999ME1312989OA149900821REMSYN076AAXX  09164 06792 33/// /0108 11071 21092 38065 48298 53010 333 91116 91210;
0137067920999992010010917004+46533+009883FM-12+170699999V0200101N003619999999N9999999N1-00781-00991999999ADDMA1999999080691MD1210111+9999ME1313039OA149900771REMSYN076AAXX  09174 06792 33/// /0107 11078 21099 38069 48303 52011 333 91115 91212;
0305067920999992010010918004+46533+009883FM-12+170699999V0200301N004110078019N0150001N1-00861-01061999999ADDAJ100899199999999AL11201591AY171061AY221061GA1041+003001071GA2041+007801061GF107991999999004501999999IA1239KA1120M-00601MA1999999080751MD1210151+9999ME1313109MW1011OA149900821REMSYN118AAXX  09184 06792 31465 70308 11086 21106 38075 48310 52015 70172 333 11060 47089 84710 84626 90766 93115 91116 91212;
0137067920999992010010919004+46533+009883FM-12+170699999V0200501N000519999999N9999999N1-01211-01281999999ADDMA1999999080801MD1210151+9999ME1313209OA149900671REMSYN076AAXX  09194 06792 33/// /0501 11121 21128 38080 48320 52015 333 91113 91209;
0137067920999992010010920004+46533+009883FM-12+170699999V0200101N002119999999N9999999N1-00901-01061999999ADDMA1999999080851MD1110161+9999ME1313209OA149900511REMSYN076AAXX  09204 06792 33/// /0104 11090 21106 38085 48320 51016 333 91110 91207;
0137067920999992010010921004+46533+009883FM-12+170699999V0200801N001019999999N9999999N1-00891-01081999999ADDMA1999999080901MD1310151+9999ME1313259OA149900771REMSYN076AAXX  09214 06792 33/// /0802 11089 21108 38090 48325 53015 333 91115 91212;
0154067920999992010010922004+46533+009883FM-12+170699999V0200301N001519999999N9999999N1-00891-01061999999ADDAA101000021MA1999999080951MD1210151+9999ME1313309OA149900461REMSYN082AAXX  09224 06792 23/// /0303 11089 21106 38095 48330 52015 333 69915 91109 91207;
0137067920999992010010923004+46533+009883FM-12+170699999V0209999C000019999999N9999999N1-00931-01081999999ADDMA1999999080991MD1110141+9999ME1313349OA149900211REMSYN076AAXX  09234 06792 33/// /0000 11093 21108 38099 48334 51014 333 91104 91203;
0179067920999992010011000004+46533+009883FM-12+170699999V0209999C000019999999N9999999N1-00971-01111999999ADDAA106000091MA1999999081001MD1210101+9999ME1313369OA149900821REMSYN088AAXX  10004 06792 03/// /0000 11097 21111 38100 48336 52010 69911 333 60005 91116 91212;EQDQ01  00002PRCP06
0137067920999992010011001004+46533+009883FM-12+170699999V0201701N000519999999N9999999N1-01021-01161999999ADDMA1999999081051MD1210101+9999ME1313419OA149900101REMSYN076AAXX  10014 06792 33/// /1701 11102 21116 38105 48341 52010 333 91102 91201;
0117067920999992010011002004+46533+009883FM-12+170699999V0202101N000519999999N9999999N1-00841-01041999999ADDAA101000021MA1999999081091ME1313439REMSYN070AAXX  10024 06792 23/// /2101 11084 21104 38109 48343 5//// 333 69915;
0096067920999992010011003004+46533+009883FM-12+170699999V0202101N000519999999N9999999N1-00911-01061999999ADDMA1999999081111ME1313469REMSYN060AAXX  10034 06792 43/// /2101 11091 21106 38111 48346 5////;
0137067920999992010011004004+46533+009883FM-12+170699999V0209999C000019999999N9999999N1-00931-01081999999ADDMA1999999081141MD1110091+9999ME1313499OA149900151REMSYN076AAXX  10044 06792 33/// /0000 11093 21108 38114 48349 51009 333 91103 91202;
0154067920999992010011005004+46533+009883FM-12+170699999V0209999C000019999999N9999999N1-00901-01051999999ADDAA101000021MA1999999081181MD1310091+9999ME1313529OA149900101REMSYN082AAXX  10054 06792 23/// /0000 11090 21105 38118 48352 53009 333 69915 91102 91201;
0238067920999992010011006004+46533+009883FM-12+170699999V0201301N000519999999N9999999N1-01041-01181999999ADDAA112000391AA224000391AL11800091GJ100069IA2999-00309KA1999N-01211MA1999999081231MD1310121+9999ME1313599OA149900511REMSYN112AAXX  10064 06792 03/// /1301 11104 21118 38123 48359 53012 69932 333 21121 3/103 55001 60005 70003 91110 91207;
0137067920999992010011007004+46533+009883FM-12+170699999V0201001N000519999999N9999999N1-00891-01041999999ADDMA1999999081301MD1310161+9999ME1313649OA149900101REMSYN076AAXX  10074 06792 33/// /1001 11089 21104 38130 48364 53016 333 91102 91202;
0137067920999992010011008004+46533+009883FM-12+170699999V0200701N000519999999N9999999N1-00841-01011999999ADDMA1999999081361MD1319999+9999ME1313699OA149900101REMSYN076AAXX  10084 06792 33/// /0701 11084 21101 38136 48369 53/// 333 91102 91201;
0235067920999992010011009004+46533+009883FM-12+170699999V0209999C000010048019N0050001N1-00831-00981999999ADDAY171031AY221031GA1041+003001071GA2071+004801071GF107991999999004501999999MA1999999081411MD1110181+9999ME1313739MW1011OA149900101REMSYN094AAXX  10094 06792 31450 70000 11083 21098 38141 48373 51018 70172 333 84710 87716 91102 91202;
0137067920999992010011010004+46533+009883FM-12+170699999V0209999C000019999999N9999999N1-00661-00871999999ADDMA1999999081451MD1110151+9999ME1313759OA149900101REMSYN076AAXX  10104 06792 33/// /0000 11066 21087 38145 48375 51015 333 91102 91201;
0137067920999992010011011004+46533+009883FM-12+170699999V0202101N000519999999N9999999N1-00491-00781999999ADDMA1999999081501MD1210141+9999ME1313789OA149900101REMSYN076AAXX  10114 06792 33/// /2101 11049 21078 38150 48378 52014 333 91102 91201;
0235067920999992010011012004+46533+009883FM-12+170699999V0202001N000510048019N0080001N1-00331-00641999999ADDAY171061AY221061GA1041+003001071GA2071+004801071GF107991999999004501999999MA1999999081481MD1210071+9999ME1313749MW1011OA149900151REMSYN094AAXX  10124 06792 31458 72001 11033 21064 38148 48374 52007 70172 333 84710 87716 91103 91202;
0137067920999992010011013004+46533+009883FM-12+170699999V0202401N000519999999N9999999N1-00261-00691999999ADDMA1999999081471MD1010021+9999ME1313729OA149900211REMSYN076AAXX  10134 06792 33/// /2401 11026 21069 38147 48372 50002 333 91104 91202;
0137067920999992010011014004+46533+009883FM-12+170699999V0201401N000519999999N9999999N1-00291-00761999999ADDMA1999999081501MD1519999+9999ME1313759OA149900211REMSYN076AAXX  10144 06792 33/// /1401 11029 21076 38150 48375 55/// 333 91104 91203;
0185067920999992010011015004+46533+009883FM-12+170699999V0202301N000510090019N0350001N1-00311-00761999999ADDGA1061+009001061GF106991999999008001999999MA1999999081541MD1210061+9999ME1313799OA149900211REMSYN082AAXX  10154 06792 32581 62301 11031 21076 38154 48379 52006 333 86630 91104 91203;
0137067920999992010011016004+46533+009883FM-12+170699999V0209999C000019999999N9999999N1-00541-01041999999ADDMA1999999081591MD1310121+9999ME1313879OA149900211REMSYN076AAXX  10164 06792 33/// /0000 11054 21104 38159 48387 53012 333 91104 91202;
0137067920999992010011017004+46533+009883FM-12+170699999V0201601N001019999999N9999999N1-01221-01401999999ADDMA1999999081651MD1310151+9999ME1314019OA149900261REMSYN076AAXX  10174 06792 33/// /1602 11122 21140 38165 48401 53015 333 91105 91202;
0255067920999992010011018004+46533+009883FM-12+170699999V0202101N001010108019N0250001N1-01141-01361999999ADDAJ100629199999999AL19900091GA1071+010801061GF107991999999012501999999IA1239KA1120M-00261MA1999999081711MD1210171+9999ME1314069OA149900261REMSYN106AAXX  10184 06792 32675 72102 11114 21136 38171 48406 52017 333 11026 47062 87636 90766 93100 91105 91203;
0137067920999992010011019004+46533+009883FM-12+170699999V0202001N001019999999N9999999N1-01281-01471999999ADDMA1999999081761MD1110171+9999ME1314129OA149900211REMSYN076AAXX  10194 06792 33/// /2002 11128 21147 38176 48412 51017 333 91104 91203;
0137067920999992010011020004+46533+009883FM-12+170699999V0201701N000519999999N9999999N1-01301-01451999999ADDMA1999999081801MD1110151+9999ME1314169OA149900211REMSYN076AAXX  10204 06792 33/// /1701 11130 21145 38180 48416 51015 333 91104 91203;
0137067920999992010011021004+46533+009883FM-12+170699999V0202101N001019999999N9999999N1-01251-01501999999ADDMA1999999081821MD1110111+9999ME1314179OA149900261REMSYN076AAXX  10214 06792 33/// /2102 11125 21150 38182 48417 51011 333 91105 91203;
0137067920999992010011022004+46533+009883FM-12+170699999V0201801N001019999999N9999999N1-01311-01571999999ADDMA1999999081841MD1110081+9999ME1314209OA149900211REMSYN076AAXX  10224 06792 33/// /1802 11131 21157 38184 48420 51008 333 91104 91203;
0137067920999992010011023004+46533+009883FM-12+170699999V0201901N001019999999N9999999N1-01531-01801999999ADDMA1999999081881MD1310081+9999ME1314269OA149900151REMSYN076AAXX  10234 06792 33/// /1902 11153 21180 38188 48426 53008 333 91103 91203;
0137067920999992010011100004+46533+009883FM-12+170699999V0202001N001019999999N9999999N1-01781-02541999999ADDMA1999999081891MD1210071+9999ME1314309OA149900261REMSYN076AAXX  11004 06792 33/// /2002 11178 21254 38189 48430 52007 333 91105 91203;
0137067920999992010011101004+46533+009883FM-12+170699999V0202301N000519999999N9999999N1-01791-02371999999ADDMA1999999081891MD1210051+9999ME1314309OA149900211REMSYN076AAXX  11014 06792 33/// /2301 11179 21237 38189 48430 52005 333 91104 91203;
0137067920999992010011102004+46533+009883FM-12+170699999V0202101N001019999999N9999999N1-01861-02511999999ADDMA1999999081911MD1219999+9999ME1314339OA149900211REMSYN076AAXX  11024 06792 33/// /2102 11186 21251 38191 48433 52/// 333 91104 91203;
0137067920999992010011103004+46533+009883FM-12+170699999V0209999C000019999999N9999999N1-01871-02561999999ADDMA1999999081901MD1019999+9999ME1314329OA149900211REMSYN076AAXX  11034 06792 33/// /0000 11187 21256 38190 48432 50/// 333 91104 91203;
0156067920999992010011104004+46533+009883FM-12+170699999V0202101N001019999999N9999999N1-01841-02181999999ADDMA1999999081891MD1410001+9999ME1314319OA149900151REMSYN076AAXX  11044 06792 33/// /2102 11184 21218 38189 48431 57000 333 91103 91202;EQDQ01+000072APCTEN
0137067920999992010011105004+46533+009883FM-12+170699999V0202001N000519999999N9999999N1-01841-02631999999ADDMA1999999081901MD1710011+9999ME1314329OA149900151REMSYN076AAXX  11054 06792 33/// /2001 11184 21263 38190 48432 57001 333 91103 91203;
0234067920999992010011106004+46533+009883FM-12+170699999V0202001N001019999999N9999999N1-02041-02271999999ADDAA124000091AL19900091GJ100429IA2999-02609KA1999N-02301MA1999999081891MD1710011+9999ME1314339OA149900211REMSYN100AAXX  11064 06792 33/// /2002 11204 21227 38189 48433 57001 333 21230 3/126 55007 70000 91104 91203;EQDQ01  00002PRCP24
0137067920999992010011107004+46533+009883FM-12+170699999V0201901N000519999999N9999999N1-01701-02391999999ADDMA1999999081911MD1210021+9999ME1314319OA149900151REMSYN076AAXX  11074 06792 33/// /1901 11170 21239 38191 48431 52002 333 91103 91202;
0137067920999992010011108004+46533+009883FM-12+170699999V0202001N000519999999N9999999N1-01961-02131999999ADDMA1999999081931MD1319999+9999ME1314369OA149900211REMSYN076AAXX  11084 06792 33/// /2001 11196 21213 38193 48436 53/// 333 91104 91203;
0185067920999992010011109004+46533+009883FM-12+170699999V0209999C000012200019N0500001N1-01621-02191999999ADDGA1021+024001061GF102991999999022501999999MA1999999081941MD1210051+9999ME1314339OA149900211REMSYN082AAXX  11094 06792 32884 20000 11162 21219 38194 48433 52005 333 82658 91104 91203;
0137067920999992010011110004+46533+009883FM-12+170699999V0202101N001519999999N9999999N1-01291-01631999999ADDMA1999999081921MD1019999+9999ME1314279OA149900151REMSYN076AAXX  11104 06792 33/// /2103 11129 21163 38192 48427 50/// 333 91103 91203;
0137067920999992010011111004+46533+009883FM-12+170699999V0201701N000519999999N9999999N1-01011-01311999999ADDMA1999999081891MD1810041+9999ME1314219OA149900151REMSYN076AAXX  11114 06792 33/// /1701 11101 21131 38189 48421 58004 333 91103 91203;
0185067920999992010011112004+46533+009883FM-12+170699999V0209999C000510330019N0250001N1-00761-01181999999ADDGA1071+033001041GF107991999999999999999999MA1999999081861MD1810081+9999ME1314169OA149900211REMSYN082AAXX  11124 06792 32975 70001 11076 21118 38186 48416 58008 333 87461 91104 91203;
0137067920999992010011113004+46533+009883FM-12+170699999V0201801N005119999999N9999999N1-00491-01011999999ADDMA1999999081821MD1810101+9999ME1314099OA149900881REMSYN076AAXX  11134 06792 33/// /1810 11049 21101 38182 48409 58010 333 91117 91210;
0096067920999992010011114004+46533+009883FM-12+170699999V0201901N005719999999N9999999N1-00441-00971999999ADDMA1999999081801ME1314069REMSYN060AAXX  11144 06792 33/// /1911 11044 21097 38180 48406 5////;
0185067920999992010011115004+46533+009883FM-12+170699999V0201701N002612200019N0290001N1-00491-00991999999ADDGA1041+033001041GF104991999999999999999999MA1999999081841MD1510021+9999ME1314119OA149900881REMSYN082AAXX  11154 06792 32979 41705 11049 21099 38184 48411 55002 333 84461 91117 91211;
0137067920999992010011116004+46533+009883FM-12+170699999V0201601N003619999999N9999999N1-00651-00991999999ADDMA1999999081861MD1210041+9999ME1314149OA149900771REMSYN076AAXX  11164 06792 33/// /1607 11065 21099 38186 48414 52004 333 91115 91209;
0137067920999992010011117004+46533+009883FM-12+170699999V0202001N001519999999N9999999N1-01031-01291999999ADDMA1999999081891MD1210091+9999ME1314229OA149900671REMSYN076AAXX  11174 06792 33/// /2003 11103 21129 38189 48422 52009 333 91113 91209;
0249067920999992010011118004+46533+009883FM-12+170699999V0209999C000012200019N0400001N1-01201-01441999999ADDAJ100629199999999AL19900091GA1001+999999999GF100991001001999999001001IA1239KA1120M-00441MA1999999081931MD1210091+9999ME1314279OA149900881REMSYN100AAXX  11184 06792 32/82 00000 11120 21144 38193 48427 52009 333 11044 47062 90766 93100 91117 91211;
0137067920999992010011119004+46533+009883FM-12+170699999V0202201N001519999999N9999999N1-01081-01351999999ADDMA1999999081971MD1310111+9999ME1314309OA149900361REMSYN076AAXX  11194 06792 33/// /2203 11108 21135 38197 48430 53011 333 91107 91205;
0137067920999992010011120004+46533+009883FM-12+170699999V0201901N001019999999N9999999N1-01091-01351999999ADDMA1999999081991MD1110101+9999ME1314329OA149900261REMSYN076AAXX  11204 06792 33/// /1902 11109 21135 38199 48432 51010 333 91105 91204;
0137067920999992010011121004+46533+009883FM-12+170699999V0201701N001019999999N9999999N1-01131-01361999999ADDMA1999999081991MD1210061+9999ME1314329OA149900671REMSYN076AAXX  11214 06792 33/// /1702 11113 21136 38199 48432 52006 333 91113 91209;
0137067920999992010011122004+46533+009883FM-12+170699999V0201901N001519999999N9999999N1-01091-01321999999ADDMA1999999082021MD1210051+9999ME1314359OA149900211REMSYN076AAXX  11224 06792 33/// /1903 11109 21132 38202 48435 52005 333 91104 91203;
0137067920999992010011123004+46533+009883FM-12+170699999V0209999C000019999999N9999999N1-01151-01341999999ADDMA1999999082031MD1210041+9999ME1314369OA149900211REMSYN076AAXX  11234 06792 33/// /0000 11115 21134 38203 48436 52004 333 91104 91203;
0137067920999992010011200004+46533+009883FM-12+170699999V0202401N000519999999N9999999N1-01021-01261999999ADDMA1999999082031MD1210041+9999ME1314359OA149900881REMSYN076AAXX  12004 06792 33/// /2401 11102 21126 38203 48435 52004 333 91117 91211;
0137067920999992010011201004+46533+009883FM-12+170699999V0201401N001019999999N9999999N1-01061-01241999999ADDMA1999999082041MD1210021+9999ME1314369OA149900211REMSYN076AAXX  12014 06792 33/// /1402 11106 21124 38204 48436 52002 333 91104 91203;
0137067920999992010011202004+46533+009883FM-12+170699999V0201901N000519999999N9999999N1-00991-01191999999ADDMA1999999082031MD1019999+9999ME1314349OA149900151REMSYN076AAXX  12024 06792 33/// /1901 11099 21119 38203 48434 50/// 333 91103 91202;
0137067920999992010011203004+46533+009883FM-12+170699999V0202001N001019999999N9999999N1-00941-01141999999ADDMA1999999082031MD1010001+9999ME1314349OA149900211REMSYN076AAXX  12034 06792 33/// /2002 11094 21114 38203 48434 50000 333 91104 91203;
0137067920999992010011204004+46533+009883FM-12+170699999V0209999C000019999999N9999999N1-00981-01121999999ADDMA1999999082041MD1510001+9999ME1314359OA149900151REMSYN076AAXX  12044 06792 33/// /0000 11098 21112 38204 48435 55000 333 91103 91202;
0137067920999992010011205004+46533+009883FM-12+170699999V0202201N000519999999N9999999N1-00951-01161999999ADDMA1999999082051MD1210021+9999ME1314369OA149900101REMSYN076AAXX  12054 06792 33/// /2201 11095 21116 38205 48436 52002 333 91102 91202;
0323067920999992010011206004+46533+009883FM-12+170699999V0201801N001010129019N0200001N1-01021-01211999999ADDAA124000091AJ100629199999999AL19900091GA1061+012901061GF106991999999012501999999GJ101089IA1239IA2999-01709KA1999N-01301MA1999999082041MD1010011+9999ME1314369OA149900261REMSYN124AAXX  12064 06792 32670 61802 11102 21121 38204 48436 50001 333 21130 3/117 47062 55018 70000 86643 90768 93100 91105 91204;EQDQ01  00002PRCP24
0137067920999992010011207004+46533+009883FM-12+170699999V0201901N001019999999N9999999N1-01181-01381999999ADDMA1999999082071MD1210031+9999ME1314409OA149900211REMSYN076AAXX  12074 06792 33/// /1902 11118 21138 38207 48440 52003 333 91104 91203;
0137067920999992010011208004+46533+009883FM-12+170699999V0201901N000519999999N9999999N1-01261-01451999999ADDMA1999999082071MD1219999+9999ME1314419OA149900211REMSYN076AAXX  12084 06792 33/// /1901 11126 21145 38207 48441 52/// 333 91104 91203;
0185067920999992010011209004+46533+009883FM-12+170699999V0202101N000510210019N0300001N1-01061-01301999999ADDGA1061+021001061GF106991999999022501999999MA1999999082061MD1010021+9999ME1314389OA149900211REMSYN082AAXX  12094 06792 32880 62101 11106 21130 38206 48438 50002 333 86657 91104 91203;
0137067920999992010011210004+46533+009883FM-12+170699999V0209999C000019999999N9999999N1-01061-01251999999ADDMA1999999082031MD1710041+9999ME1314359OA149900151REMSYN076AAXX  12104 06792 33/// /0000 11106 21125 38203 48435 57004 333 91103 91202;
0137067920999992010011211004+46533+009883FM-12+170699999V0202001N004619999999N9999999N1-00481-00861999999ADDMA1999999082001MD1710071+9999ME1314269OA149900771REMSYN076AAXX  12114 06792 33/// /2009 11048 21086 38200 48426 57007 333 91115 91209;
0207067920999992010011212004+46533+009883FM-12+170699999V0202201N005710129019N0100001N1-00471-00911999999ADDGA1021+003001061GA2051+012901061GF107991999999004501999999MA1999999081941MD1710121+9999ME1314209OA149900881REMSYN088AAXX  12124 06792 32460 72211 11047 21091 38194 48420 57012 333 82610 85643 91117 91212;
0137067920999992010011213004+46533+009883FM-12+170699999V0202101N005119999999N9999999N1-00481-00861999999ADDMA1999999081911MD1610121+9999ME1314179OA149900881REMSYN076AAXX  12134 06792 33/// /2110 11048 21086 38191 48417 56012 333 91117 91212;
0096067920999992010011214004+46533+009883FM-12+170699999V0202201N005719999999N9999999N1-00501-00861999999ADDMA1999999081891ME1314169REMSYN060AAXX  12144 06792 33/// /2211 11050 21086 38189 48416 5////;
0191067920999992010011215004+46533+009883FM-12+170699999V0202101N004610030019N0060001N1-00511-00891999999ADDGA1081+003001071GF108991999999004501999999MA1999999081911MD1510031+9999ME1314189OA149900931REMSYN088AAXX  12154 06792 31456 82109 11051 21089 38191 48418 55003 7//87 333 88710 91118 91214;
0137067920999992010011216004+46533+009883FM-12+170699999V0201401N003119999999N9999999N1-00551-00891999999ADDMA1999999081851MD1810061+9999ME1314129OA149900821REMSYN076AAXX  12164 06792 33/// /1406 11055 21089 38185 48412 58006 333 91116 91212;
0137067920999992010011217004+46533+009883FM-12+170699999V0201601N003119999999N9999999N1-00581-00881999999ADDMA1999999081841MD1710051+9999ME1314129OA149900671REMSYN076AAXX  12174 06792 33/// /1606 11058 21088 38184 48412 57005 333 91113 91209;
0255067920999992010011218004+46533+009883FM-12+170699999V0201601N004110048019N0200001N1-00581-00901999999ADDAJ100619199999999AL19900091GA1071+004801071GF107991999999004501999999IA1239KA1120M-00441MA1999999081841MD1710071+9999ME1314129OA149900931REMSYN106AAXX  12184 06792 32470 71608 11058 21090 38184 48412 57007 333 11044 47061 87716 90766 93100 91118 91214;
0156067920999992010011219004+46533+009883FM-12+170699999V0201701N003619999999N9999999N1-00581-00921999999ADDMA1999999081851MD1410001+9999ME1314139OA149900621REMSYN076AAXX  12194 06792 33/// /1707 11058 21092 38185 48413 53000 333 91112 91208;EQDQ01+000032APCTEN
0137067920999992010011220004+46533+009883FM-12+170699999V0201901N002619999999N9999999N1-00611-00901999999ADDMA1999999081871MD1210031+9999ME1314159OA149900621REMSYN076AAXX  12204 06792 33/// /1905 11061 21090 38187 48415 52003 333 91112 91208;
0137067920999992010011221004+46533+009883FM-12+170699999V0201801N003119999999N9999999N1-00631-01101999999ADDMA1999999081861MD1210021+9999ME1314149OA149900671REMSYN076AAXX  12214 06792 33/// /1806 11063 21110 38186 48414 52002 333 91113 91209;
0137067920999992010011222004+46533+009883FM-12+170699999V0201701N002119999999N9999999N1-00761-01161999999ADDMA1999999081811MD1810041+9999ME1314119OA149900511REMSYN076AAXX  12224 06792 33/// /1704 11076 21116 38181 48411 58004 333 91110 91207;
0137067920999992010011223004+46533+009883FM-12+170699999V0201701N001519999999N9999999N1-00741-01291999999ADDMA1999999081761MD1710111+9999ME1314069OA149900411REMSYN076AAXX  12234 06792 33/// /1703 11074 21129 38176 48406 57011 333 91108 91206;
0137067920999992010011300004+46533+009883FM-12+170699999V0202101N000519999999N9999999N1-00941-01211999999ADDMA1999999081721MD1810141+9999ME1314049OA149900931REMSYN076AAXX  13004 06792 33/// /2101 11094 21121 38172 48404 58014 333 91118 91214;
0137067920999992010011301004+46533+009883FM-12+170699999V0201801N001019999999N9999999N1-00931-01271999999ADDMA1999999081691MD1710121+9999ME1314019OA149900151REMSYN076AAXX  13014 06792 33/// /1802 11093 21127 38169 48401 57012 333 91103 91202;
0137067920999992010011302004+46533+009883FM-12+170699999V0201801N001519999999N9999999N1-00981-01281999999ADDMA1999999081701MD1719999+9999ME1314039OA149900211REMSYN076AAXX  13024 06792 33/// /1803 11098 21128 38170 48403 57/// 333 91104 91204;
0137067920999992010011303004+46533+009883FM-12+170699999V0202601N000519999999N9999999N1-01051-01281999999ADDMA1999999081681MD1719999+9999ME1314029OA149900411REMSYN076AAXX  13034 06792 33/// /2601 11105 21128 38168 48402 57/// 333 91108 91206;
0137067920999992010011304004+46533+009883FM-12+170699999V0201701N001019999999N9999999N1-01051-01271999999ADDMA1999999081611MD1810081+9999ME1313959OA149900151REMSYN076AAXX  13044 06792 33/// /1702 11105 21127 38161 48395 58008 333 91103 91202;
0137067920999992010011305004+46533+009883FM-12+170699999V0201601N001019999999N9999999N1-01441-01591999999ADDMA1999999081591MD1710111+9999ME1313989OA149900211REMSYN076AAXX  13054 06792 33/// /1602 11144 21159 38159 48398 57011 333 91104 91203;
0361067920999992010011306004+46533+009883FM-12+170699999V0202001N001510078019N0200001N1-01311-01571999999ADDAA124000091AJ100629199999999AL19900091AL29900191AY171061AY211061GA1061+007801071GF106991999999008001999999GJ100789IA1239IA2999-01709KA1999N-01441MA1999999081611MD1510071+9999ME1313989MW1021OA149900621REMSYN130AAXX  13064 06792 31570 62003 11131 21157 38161 48398 55007 70271 333 21144 3/117 47062 55013 70000 86726 90768 93101 91112 91208;EQDQ01  00002PRCP24
0137067920999992010011307004+46533+009883FM-12+170699999V0201201N000519999999N9999999N1-01371-01531999999ADDMA1999999081641MD1210031+9999ME1314029OA149900261REMSYN076AAXX  13074 06792 33/// /1201 11137 21153 38164 48402 52003 333 91105 91204;
0137067920999992010011308004+46533+009883FM-12+170699999V0201401N000519999999N9999999N1-01451-01681999999ADDMA1999999081661MD1210071+9999ME1314059OA149900211REMSYN076AAXX  13084 06792 33/// /1401 11145 21168 38166 48405 52007 333 91104 91203;
0185067920999992010011309004+46533+009883FM-12+170699999V0202801N000510240019N0200001N1-01171-01451999999ADDGA1071+024001051GF107991999999022501999999MA1999999081661MD1210051+9999ME1314019OA149900261REMSYN082AAXX  13094 06792 32870 72801 11117 21145 38166 48401 52005 333 87558 91105 91204;
0137067920999992010011310004+46533+009883FM-12+170699999V0202201N001519999999N9999999N1-00811-01211999999ADDMA1999999081691MD1210051+9999ME1314009OA149900361REMSYN076AAXX  13104 06792 33/// /2203 11081 21121 38169 48400 52005 333 91107 91204;
0137067920999992010011311004+46533+009883FM-12+170699999V0200601N001019999999N9999999N1-00691-01171999999ADDMA1999999081671MD1010011+9999ME1313979OA149900361REMSYN076AAXX  13114 06792 33/// /0602 11069 21117 38167 48397 50001 333 91107 91204;
0185067920999992010011312004+46533+009883FM-12+170699999V0202701N000510180019N0100001N1-00681-01081999999ADDGA1081+018001051GF108991999999017501999999MA1999999081631MD1810031+9999ME1313939OA149900361REMSYN082AAXX  13124 06792 32760 82701 11068 21108 38163 48393 58003 333 88556 91107 91204;
0137067920999992010011313004+46533+009883FM-12+170699999V0209999C000019999999N9999999N1-00571-01121999999ADDMA1999999081611MD1610081+9999ME1313899OA149900101REMSYN076AAXX  13134 06792 33/// /0000 11057 21112 38161 48389 56008 333 91102 91202;
0137067920999992010011314004+46533+009883FM-12+170699999V0200201N001519999999N9999999N1-00531-00901999999ADDMA1999999081621MD1719999+9999ME1313909OA149900211REMSYN076AAXX  13144 06792 33/// /0203 11053 21090 38162 48390 57/// 333 91104 91203;
0213067920999992010011315004+46533+009883FM-12+170699999V0200301N001010129019N0030001N1-00591-00771999999ADDAY171031AY221031GA1081+012901051GF108991999999012501999999MA1999999081641MD1210011+9999ME1313939MW1701OA149900361REMSYN088AAXX  13154 06792 31630 80302 11059 21077 38164 48393 52001 77072 333 88543 91107 91204;
0137067920999992010011316004+46533+009883FM-12+170699999V0200101N001019999999N9999999N1-00601-00741999999ADDMA1999999081661MD1310051+9999ME1313959OA149900211REMSYN076AAXX  13164 06792 33/// /0102 11060 21074 38166 48395 53005 333 91104 91203;
0137067920999992010011317004+46533+009883FM-12+170699999V0200401N001019999999N9999999N1-00641-00751999999ADDMA1999999081681MD1110061+9999ME1313979OA149900151REMSYN076AAXX  13174 06792 33/// /0402 11064 21075 38168 48397 51006 333 91103 91203;
0283067920999992010011318004+46533+009883FM-12+170699999V0200301N000510129019N0200001N1-00601-00741999999ADDAJ100629199999999AL11200191AY171061AY201061GA1071+012901071GF107991999999012501999999IA1239KA1120M-00521MA1999999081711MD1310071+9999ME1313999MW1021OA149900361REMSYN112AAXX  13184 06792 31670 70301 11060 21074 38171 48399 53007 70270 333 11052 47062 87743 90766 93101 91107 91204;
0137067920999992010011319004+46533+009883FM-12+170699999V0209999C000019999999N9999999N1-00611-00781999999ADDMA1999999081731MD1110071+9999ME1314019OA149900151REMSYN076AAXX  13194 06792 33/// /0000 11061 21078 38173 48401 51007 333 91103 91202;
0137067920999992010011320004+46533+009883FM-12+170699999V0201901N000519999999N9999999N1-00601-00791999999ADDMA1999999081741MD1110061+9999ME1314029OA149900101REMSYN076AAXX  13204 06792 33/// /1901 11060 21079 38174 48402 51006 333 91102 91201;
0137067920999992010011321004+46533+009883FM-12+170699999V0201801N000519999999N9999999N1-00631-00811999999ADDMA1999999081731MD1010021+9999ME1314029OA149900151REMSYN076AAXX  13214 06792 33/// /1801 11063 21081 38173 48402 50002 333 91103 91203;
0137067920999992010011322004+46533+009883FM-12+170699999V0202201N000519999999N9999999N1-00721-00861999999ADDMA1999999081731MD1410001+9999ME1314039OA149900101REMSYN076AAXX  13224 06792 33/// /2201 11072 21086 38173 48403 58000 333 91102 91201;
0137067920999992010011323004+46533+009883FM-12+170699999V0201901N001019999999N9999999N1-00681-00871999999ADDMA1999999081721MD1610021+9999ME1314019OA149900151REMSYN076AAXX  13234 06792 33/// /1902 11068 21087 38172 48401 56002 333 91103 91202;
0137067920999992010011400004+46533+009883FM-12+170699999V0202101N001019999999N9999999N1-00781-00911999999ADDMA1999999081701MD1810031+9999ME1314019OA149900211REMSYN076AAXX  14004 06792 33/// /2102 11078 21091 38170 48401 58003 333 91104 91203;
0137067920999992010011401004+46533+009883FM-12+170699999V0209999C000019999999N9999999N1-00731-00891999999ADDMA1999999081671MD1810061+9999ME1313979OA149900151REMSYN076AAXX  14014 06792 33/// /0000 11073 21089 38167 48397 58006 333 91103 91202;
0137067920999992010011402004+46533+009883FM-12+170699999V0209999C000019999999N9999999N1-00851-00941999999ADDMA1999999081661MD1719999+9999ME1313989OA149900101REMSYN076AAXX  14024 06792 33/// /0000 11085 21094 38166 48398 57/// 333 91102 91201;
0096067920999992010011403004+46533+009883FM-12+170699999V0202201N000519999999N9999999N1-01001-01111999999ADDMA1999999081641ME1313979REMSYN060AAXX  14034 06792 33/// /2201 11100 21111 38164 48397 5////;
0137067920999992010011404004+46533+009883FM-12+170699999V0202001N001519999999N9999999N1-01071-01251999999ADDMA1999999081631MD1710041+9999ME1313979OA149900211REMSYN076AAXX  14044 06792 33/// /2003 11107 21125 38163 48397 57004 333 91104 91203;
0137067920999992010011405004+46533+009883FM-12+170699999V0202301N001519999999N9999999N1-00801-01021999999ADDMA1999999081651MD1510011+9999ME1313969OA149900311REMSYN076AAXX  14054 06792 33/// /2303 11080 21102 38165 48396 55001 333 91106 91204;
0332067920999992010011406004+46533+009883FM-12+170699999V0202501N001510129019N0200001N1-00701-00921999999ADDAA124000021AJ100629199999999AL19900091AY171061AY221061GA1071+012901071GF107991999999012501999999GJ100009IA1239IA2999-01509KA1999N-01281MA1999999081681MD1210041+9999ME1313989MW1021OA149900411REMSYN130AAXX  14064 06792 31670 72503 11070 21092 38168 48398 52004 70272 333 21128 3/115 47062 55000 70000 87743 90768 93100 91108 91204;
0137067920999992010011407004+46533+009883FM-12+170699999V0201301N000519999999N9999999N1-00781-00971999999ADDMA1999999081701MD1110071+9999ME1314019OA149900411REMSYN076AAXX  14074 06792 33/// /1301 11078 21097 38170 48401 51007 333 91108 91205;
0137067920999992010011408004+46533+009883FM-12+170699999V0201601N001019999999N9999999N1-00911-01131999999ADDMA1999999081711MD1119999+9999ME1314039OA149900311REMSYN076AAXX  14084 06792 33/// /1602 11091 21113 38171 48403 51/// 333 91106 91205;
0185067920999992010011409004+46533+009883FM-12+170699999V0201901N002110108019N0080001N1-00721-01001999999ADDGA1061+010801051GF106991999999012501999999MA1999999081731MD1210051+9999ME1314039OA149900411REMSYN082AAXX  14094 06792 32658 61904 11072 21100 38173 48403 52005 333 86536 91108 91205;
0154067920999992010011410004+46533+009883FM-12+170699999V0200901N000519999999N9999999N1-00491-00901999999ADDAA101000021MA1999999081741MD1210041+9999ME1314019OA149900311REMSYN082AAXX  14104 06792 23/// /0901 11049 21090 38174 48401 52004 333 69915 91106 91204;
0137067920999992010011411004+46533+009883FM-12+170699999V0200901N000519999999N9999999N1-00511-00861999999ADDMA1999999081671MD1810041+9999ME1313949OA149900261REMSYN076AAXX  14114 06792 33/// /0901 11051 21086 38167 48394 58004 333 91105 91204;
0227067920999992010011412004+46533+009883FM-12+170699999V0201801N002610108019N0080001N1-00281-00771999999ADDAA106000091GA1061+010801061GF106991999999012501999999MA1999999081661MD1710071+9999ME1313919OA149900461REMSYN094AAXX  14124 06792 02658 61805 11028 21077 38166 48391 57007 69911 333 60005 86636 91109 91205;EQDQ01  00002PRCP06
0137067920999992010011413004+46533+009883FM-12+170699999V0202401N001519999999N9999999N1-00271-00901999999ADDMA1999999081621MD1610121+9999ME1313879OA149900511REMSYN076AAXX  14134 06792 33/// /2403 11027 21090 38162 48387 56012 333 91110 91207;
0137067920999992010011414004+46533+009883FM-12+170699999V0201901N004119999999N9999999N1-00331-00711999999ADDMA1999999081641MD1510031+9999ME1313899OA149900771REMSYN076AAXX  14144 06792 33/// /1908 11033 21071 38164 48389 55003 333 91115 91211;
0185067920999992010011415004+46533+009883FM-12+170699999V0201501N001510090019N0120001N1-00341-00761999999ADDGA1071+009001041GF107991999999008001999999MA1999999081651MD1510011+9999ME1313909OA149900771REMSYN082AAXX  14154 06792 32562 71503 11034 21076 38165 48390 55001 333 87430 91115 91211;
0137067920999992010011416004+46533+009883FM-12+170699999V0202001N003119999999N9999999N1-00411-00731999999ADDMA1999999081691MD1310071+9999ME1313959OA149900771REMSYN076AAXX  14164 06792 33/// /2006 11041 21073 38169 48395 53007 333 91115 91211;
0137067920999992010011417004+46533+009883FM-12+170699999V0201401N003619999999N9999999N1-00431-00761999999ADDMA1999999081731MD1310091+9999ME1313999OA149900771REMSYN076AAXX  14174 06792 33/// /1407 11043 21076 38173 48399 53009 333 91115 91211;
0297067920999992010011418004+46533+009883FM-12+170699999V0202901N000510090019N0200001N1-00511-00891999999ADDAA112000091AJ100629199999999AL19900091GA1071+009001061GF107991999999008001999999IA1239KA1120M-00271MA1999999081781MD1110131+9999ME1314059OA149900771REMSYN118AAXX  14184 06792 02570 72901 11051 21089 38178 48405 51013 69912 333 11027 47062 60005 87630 90766 93100 91115 91211;EQDQ01  00002PRCP12
0137067920999992010011419004+46533+009883FM-12+170699999V0202001N001019999999N9999999N1-00971-01171999999ADDMA1999999081841MD1310151+9999ME1314169OA149900311REMSYN076AAXX  14194 06792 33/// /2002 11097 21117 38184 48416 53015 333 91106 91204;
0137067920999992010011420004+46533+009883FM-12+170699999V0209999C000019999999N9999999N1-00971-01121999999ADDMA1999999081881MD1110151+9999ME1314209OA149900211REMSYN076AAXX  14204 06792 33/// /0000 11097 21112 38188 48420 51015 333 91104 91203;
0137067920999992010011421004+46533+009883FM-12+170699999V0201701N001019999999N9999999N1-01471-01581999999ADDMA1999999081951MD1310171+9999ME1314329OA149900771REMSYN076AAXX  14214 06792 33/// /1702 11147 21158 38195 48432 53017 333 91115 91211;
0137067920999992010011422004+46533+009883FM-12+170699999V0202101N001519999999N9999999N1-01281-01481999999ADDMA1999999081991MD1210151+9999ME1314349OA149900211REMSYN076AAXX  14224 06792 33/// /2103 11128 21148 38199 48434 52015 333 91104 91203;
0137067920999992010011423004+46533+009883FM-12+170699999V0201801N002119999999N9999999N1-01261-01491999999ADDMA1999999082061MD1210181+9999ME1314409OA149900261REMSYN076AAXX  14234 06792 33/// /1804 11126 21149 38206 48440 52018 333 91105 91204;
0137067920999992010011500004+46533+009883FM-12+170699999V0201801N000519999999N9999999N1-01431-01591999999ADDMA1999999082081MD1110131+9999ME1314449OA149900771REMSYN076AAXX  15004 06792 33/// /1801 11143 21159 38208 48444 51013 333 91115 91211;
0137067920999992010011501004+46533+009883FM-12+170699999V0202101N000519999999N9999999N1-01431-01531999999ADDMA1999999082071MD1010081+9999ME1314439OA149900211REMSYN076AAXX  15014 06792 33/// /2101 11143 21153 38207 48443 50008 333 91104 91203;
0137067920999992010011502004+46533+009883FM-12+170699999V0201901N001019999999N9999999N1-01461-01691999999ADDMA1999999082091MD1210031+9999ME1314459OA149900211REMSYN076AAXX  15024 06792 33/// /1902 11146 21169 38209 48445 52003 333 91104 91203;
0096067920999992010011503004+46533+009883FM-12+170699999V0209999C000019999999N9999999N1-01611-01841999999ADDMA1999999082141ME1314519REMSYN060AAXX  15034 06792 33/// /0000 11161 21184 38214 48451 5////;
0137067920999992010011504004+46533+009883FM-12+170699999V0202001N001019999999N9999999N1-01691-02011999999ADDMA1999999082191MD1310121+9999ME1314579OA149900211REMSYN076AAXX  15044 06792 33/// /2002 11169 21201 38219 48457 53012 333 91104 91203;
0137067920999992010011505004+46533+009883FM-12+170699999V0202301N000519999999N9999999N1-01721-02321999999ADDMA1999999082241MD1310151+9999ME1314629OA149900151REMSYN076AAXX  15054 06792 33/// /2301 11172 21232 38224 48462 53015 333 91103 91203;
0234067920999992010011506004+46533+009883FM-12+170699999V0202001N001519999999N9999999N1-01911-02551999999ADDAA124000091AL10600091GJ100909IA2999-02409KA1999N-02021MA1999999082311MD1310171+9999ME1314709OA149900261REMSYN100AAXX  15064 06792 33/// /2003 11191 21255 38231 48470 53017 333 21202 3/124 55015 70001 91105 91204;EQDQ01  00002PRCP24
0137067920999992010011507004+46533+009883FM-12+170699999V0202001N001019999999N9999999N1-01961-02901999999ADDMA1999999082411MD1310221+9999ME1314799OA149900151REMSYN076AAXX  15074 06792 33/// /2002 11196 21290 38241 48479 53022 333 91103 91203;
0137067920999992010011508004+46533+009883FM-12+170699999V0201801N000519999999N9999999N1-01891-02741999999ADDMA1999999082501MD1219999+9999ME1314879OA149900151REMSYN076AAXX  15084 06792 33/// /1801 11189 21274 38250 48487 52/// 333 91103 91202;
0185067920999992010011509004+46533+009883FM-12+170699999V0201801N000510390019N0400001N1-01601-01881999999ADDGA1061+039001021GF106991999999999999999999MA1999999082551MD1110241+9999ME1314899OA149900151REMSYN082AAXX  15094 06792 32982 61801 11160 21188 38255 48489 51024 333 86263 91103 91203;
0137067920999992010011510004+46533+009883FM-12+170699999V0209999C000019999999N9999999N1-01321-01591999999ADDMA1999999082581MD1110171+9999ME1314899OA149900151REMSYN076AAXX  15104 06792 33/// /0000 11132 21159 38258 48489 51017 333 91103 91201;
0137067920999992010011511004+46533+009883FM-12+170699999V0209999C000019999999N9999999N1-01181-01491999999ADDMA1999999082581MD1210081+9999ME1314889OA149900151REMSYN076AAXX  15114 06792 33/// /0000 11118 21149 38258 48488 52008 333 91103 91201;
0185067920999992010011512004+46533+009883FM-12+170699999V0209999C000010450019N0400001N1-00871-01341999999ADDGA1051+045001021GF105991999999999999999999MA1999999082571MD1010021+9999ME1314849OA149900211REMSYN082AAXX  15124 06792 32982 50000 11087 21134 38257 48484 50002 333 85265 91104 91203;
0137067920999992010011513004+46533+009883FM-12+170699999V0202201N000519999999N9999999N1-00741-01321999999ADDMA1999999082571MD1710011+9999ME1314839OA149900151REMSYN076AAXX  15134 06792 33/// /2201 11074 21132 38257 48483 57001 333 91103 91201;
0137067920999992010011514004+46533+009883FM-12+170699999V0201101N000519999999N9999999N1-00551-01191999999ADDMA1999999082591MD1310011+9999ME1314849OA149900151REMSYN076AAXX  15144 06792 33/// /1101 11055 21119 38259 48484 53001 333 91103 91201;
0185067920999992010011515004+46533+009883FM-12+170699999V0202501N000512200019N0500001N1-00761-01281999999ADDGA1021+033001041GF102991999999999999999999MA1999999082681MD1210111+9999ME1314949OA149900151REMSYN082AAXX  15154 06792 32984 22501 11076 21128 38268 48494 52011 333 82461 91103 91201;
0137067920999992010011516004+46533+009883FM-12+170699999V0202101N002119999999N9999999N1-00801-01191999999ADDMA1999999082771MD1310201+9999ME1315039OA149900261REMSYN076AAXX  15164 06792 33/// /2104 11080 21119 38277 48503 53020 333 91105 91204;
0137067920999992010011517004+46533+009883FM-12+170699999V0202001N001519999999N9999999N1-01111-01421999999ADDMA1999999082831MD1110241+9999ME1315119OA149900261REMSYN076AAXX  15174 06792 33/// /2003 11111 21142 38283 48511 51024 333 91105 91204;
0249067920999992010011518004+46533+009883FM-12+170699999V0202201N001012200019N0400001N1-01111-01431999999ADDAJ100599199999999AL19900091GA1001+999999999GF100991001001999999001001IA1239KA1120M-00531MA1999999082921MD1110241+9999ME1315199OA149900261REMSYN100AAXX  15184 06792 32/82 02202 11111 21143 38292 48519 51024 333 11053 47059 90766 93100 91105 91204;
0137067920999992010011519004+46533+009883FM-12+170699999V0201901N001019999999N9999999N1-01231-01461999999ADDMA1999999082981MD1110211+9999ME1315269OA149900261REMSYN076AAXX  15194 06792 33/// /1902 11123 21146 38298 48526 51021 333 91105 91204;
0137067920999992010011520004+46533+009883FM-12+170699999V0202201N001019999999N9999999N1-01171-01341999999ADDMA1999999082991MD1210161+9999ME1315269OA149900261REMSYN076AAXX  15204 06792 33/// /2202 11117 21134 38299 48526 52016 333 91105 91203;
0137067920999992010011521004+46533+009883FM-12+170699999V0209999C000019999999N9999999N1-01181-01401999999ADDMA1999999083011MD1210091+9999ME1315289OA149900261REMSYN076AAXX  15214 06792 33/// /0000 11118 21140 38301 48528 52009 333 91105 91204;
0137067920999992010011522004+46533+009883FM-12+170699999V0202001N001019999999N9999999N1-01331-01581999999ADDMA1999999083011MD1210031+9999ME1315299OA149900151REMSYN076AAXX  15224 06792 33/// /2002 11133 21158 38301 48529 52003 333 91103 91202;
0137067920999992010011523004+46533+009883FM-12+170699999V0202201N000519999999N9999999N1-01321-01481999999ADDMA1999999083021MD1210031+9999ME1315309OA149900151REMSYN076AAXX  15234 06792 33/// /2201 11132 21148 38302 48530 52003 333 91103 91202;
0137067920999992010011600004+46533+009883FM-12+170699999V0201801N001019999999N9999999N1-01421-01681999999ADDMA1999999083031MD1210021+9999ME1315329OA149900261REMSYN076AAXX  16004 06792 33/// /1802 11142 21168 38303 48532 52002 333 91105 91204;
0137067920999992010011601004+46533+009883FM-12+170699999V0202301N000519999999N9999999N1-01691-02261999999ADDMA1999999083041MD1210031+9999ME1315349OA149900211REMSYN076AAXX  16014 06792 33/// /2301 11169 21226 38304 48534 52003 333 91104 91203;
0137067920999992010011602004+46533+009883FM-12+170699999V0201801N000519999999N9999999N1-01821-02701999999ADDMA1999999083031MD1010011+9999ME1315349OA149900261REMSYN076AAXX  16024 06792 33/// /1801 11182 21270 38303 48534 50001 333 91105 91203;
0137067920999992010011603004+46533+009883FM-12+170699999V0201801N001019999999N9999999N1-01701-02351999999ADDMA1999999083021MD1819999+9999ME1315339OA149900261REMSYN076AAXX  16034 06792 33/// /1802 11170 21235 38302 48533 58/// 333 91105 91203;
0137067920999992010011604004+46533+009883FM-12+170699999V0202401N000519999999N9999999N1-01921-02651999999ADDMA1999999083011MD1710031+9999ME1315339OA149900211REMSYN076AAXX  16044 06792 33/// /2401 11192 21265 38301 48533 57003 333 91104 91203;
0137067920999992010011605004+46533+009883FM-12+170699999V0201901N001019999999N9999999N1-01701-02381999999ADDMA1999999083011MD1710021+9999ME1315329OA149900211REMSYN076AAXX  16054 06792 33/// /1902 11170 21238 38301 48532 57002 333 91104 91203;
0250067920999992010011606004+46533+009883FM-12+170699999V0202301N001019999999N9999999N1-01921-02691999999ADDAA124000091AL19900091GJ103909IA2999-02709KA1999N-02041MA1999999083021MD1410001+9999ME1315349OA149900261REMSYN100AAXX  16064 06792 33/// /2302 11192 21269 38302 48534 52000 333 21204 3/127 55065 70000 91105 91203;EQDQ01+000022APCTENQ02  00002PRCP24
0137067920999992010011607004+46533+009883FM-12+170699999V0202101N001519999999N9999999N1-01941-02851999999ADDMA1999999083021MD1210011+9999ME1315349OA149900261REMSYN076AAXX  16074 06792 33/// /2103 11194 21285 38302 48534 52001 333 91105 91203;
0137067920999992010011608004+46533+009883FM-12+170699999V0202101N000519999999N9999999N1-02041-02831999999ADDMA1999999083021MD1210011+9999ME1315359OA149900211REMSYN076AAXX  16084 06792 33/// /2101 11204 21283 38302 48535 52001 333 91104 91203;
0179067920999992010011609004+46533+009883FM-12+170699999V0209999C000012200019N0350001N1-01661-02241999999ADDGA1001+999999999GF100991001001999999001001MA1999999083011MD1710011+9999ME1315319OA149900261REMSYN076AAXX  16094 06792 32/81 00000 11166 21224 38301 48531 57001 333 91105 91203;
0137067920999992010011610004+46533+009883FM-12+170699999V0209999C000019999999N9999999N1-01801-02021999999ADDMA1999999082981MD1710041+9999ME1315309OA149900151REMSYN076AAXX  16104 06792 33/// /0000 11180 21202 38298 48530 57004 333 91103 91202;
0137067920999992010011611004+46533+009883FM-12+170699999V0202301N001019999999N9999999N1-01101-01571999999ADDMA1999999082931MD1710091+9999ME1315209OA149900151REMSYN076AAXX  16114 06792 33/// /2302 11110 21157 38293 48520 57009 333 91103 91202;
0179067920999992010011612004+46533+009883FM-12+170699999V0200601N000512200019N0350001N1-01031-01431999999ADDGA1001+999999999GF100991001001999999001001MA1999999082861MD1810151+9999ME1315139OA149900261REMSYN076AAXX  16124 06792 32/81 00601 11103 21143 38286 48513 58015 333 91105 91203;
0137067920999992010011613004+46533+009883FM-12+170699999V0202201N000519999999N9999999N1-00511-01371999999ADDMA1999999082831MD1610151+9999ME1315069OA149900211REMSYN076AAXX  16134 06792 33/// /2201 11051 21137 38283 48506 56015 333 91104 91202;
0137067920999992010011614004+46533+009883FM-12+170699999V0200201N001519999999N9999999N1-00671-01351999999ADDMA1999999082811MD1719999+9999ME1315059OA149900311REMSYN076AAXX  16144 06792 33/// /0203 11067 21135 38281 48505 57/// 333 91106 91203;
0185067920999992010011615004+46533+009883FM-12+170699999V0200201N001010540019N0350001N1-00821-01371999999ADDGA1051+054001021GF105991999999999999999999MA1999999082821MD1510041+9999ME1315089OA149900311REMSYN082AAXX  16154 06792 32981 50202 11082 21137 38282 48508 55004 333 85268 91106 91203;
0137067920999992010011616004+46533+009883FM-12+170699999V0209999C000019999999N9999999N1-00771-01191999999ADDMA1999999082791MD1710041+9999ME1315049OA149900211REMSYN076AAXX  16164 06792 33/// /0000 11077 21119 38279 48504 57004 333 91104 91203;
0137067920999992010011617004+46533+009883FM-12+170699999V0202101N002119999999N9999999N1-00791-01121999999ADDMA1999999082801MD1510011+9999ME1315059OA149900361REMSYN076AAXX  16174 06792 33/// /2104 11079 21112 38280 48505 55001 333 91107 91205;
0156067920999992010011618004+46533+009883FM-12+170699999V0202301N000519999999N9999999N1-00971-01231999999ADDKA1120M-00381MA1999999082801MD1710021+9999ME1315079OA149900361REMSYN082AAXX  16184 06792 33/// /2301 11097 21123 38280 48507 57002 333 11038 91107 91205;
0156067920999992010011619004+46533+009883FM-12+170699999V0201801N001019999999N9999999N1-00611-01091999999ADDMA1999999082791MD1410001+9999ME1315039OA149900361REMSYN076AAXX  16194 06792 33/// /1802 11061 21109 38279 48503 57000 333 91107 91204;EQDQ01+000072APCTEN
0137067920999992010011620004+46533+009883FM-12+170699999V0200301N000519999999N9999999N1-00651-01081999999ADDMA1999999082741MD1710061+9999ME1314999OA149900361REMSYN076AAXX  16204 06792 33/// /0301 11065 21108 38274 48499 57006 333 91107 91204;
0137067920999992010011621004+46533+009883FM-12+170699999V0202601N001519999999N9999999N1-00651-01031999999ADDMA1999999082671MD1710131+9999ME1314929OA149900361REMSYN076AAXX  16214 06792 33/// /2603 11065 21103 38267 48492 57013 333 91107 91205;
0137067920999992010011622004+46533+009883FM-12+170699999V0201501N000519999999N9999999N1-00541-01061999999ADDMA1999999082601MD1710191+9999ME1314849OA149900311REMSYN076AAXX  16224 06792 33/// /1501 11054 21106 38260 48484 57019 333 91106 91204;
0137067920999992010011623004+46533+009883FM-12+170699999V0201701N004119999999N9999999N1-00371-01151999999ADDMA1999999082601MD1710141+9999ME1314839OA149900671REMSYN076AAXX  16234 06792 33/// /1708 11037 21115 38260 48483 57014 333 91113 91208;
0137067920999992010011700004+46533+009883FM-12+170699999V0202801N000519999999N9999999N1-00491-01011999999ADDMA1999999082531MD1710141+9999ME1314779OA149900721REMSYN076AAXX  17004 06792 33/// /2801 11049 21101 38253 48477 57014 333 91114 91209;
