0137067980999992010010100004+46800+010283FM-12+129899999V0203401N000519999999N9999999N1-00081-00201999999ADDMA1999999084701MD1810131+9999ME1312779OA149900151REMSYN076AAXX  01004 06798 33/// /3401 11008 21020 38470 48277 58013 333 91103 91202;
0137067980999992010010101004+46800+010283FM-12+129899999V0209999C000019999999N9999999N1-00141-00231999999ADDMA1999999084681MD1710101+9999ME1312759OA149900101REMSYN076AAXX  01014 06798 33/// /0000 11014 21023 38468 48275 57010 333 91102 91201;
0137067980999992010010102004+46800+010283FM-12+129899999V0209999C000019999999N9999999N1-00161-00291999999ADDMA1999999084671MD1719999+9999ME1312749OA149900101REMSYN076AAXX  01024 06798 33/// /0000 11016 21029 38467 48274 57/// 333 91102 91201;
0096067980999992010010103004+46800+010283FM-12+129899999V0203301N000519999999N9999999N1-00281-00471999999ADDMA1999999084621ME1312709REMSYN060AAXX  01034 06798 43/// /3301 11028 21047 38462 48270 5////;
0096067980999992010010104004+46800+010283FM-12+129899999V0202701N001019999999N9999999N1-00281-00551999999ADDMA1999999084571ME1312659REMSYN060AAXX  01044 06798 33/// /2702 11028 21055 38457 48265 5////;
0137067980999992010010105004+46800+010283FM-12+129899999V0202801N001019999999N9999999N1-00351-00701999999ADDMA1999999084541MD1610131+9999ME1312629OA149900211REMSYN076AAXX  01054 06798 33/// /2802 11035 21070 38454 48262 56013 333 91104 91203;
0215067980999992010010106004+46800+010283FM-12+129899999V0202901N001019999999N9999999N1-00461-00761999999ADDAA124001891AL14200191GJ100009IA2999+00009KA1999N-00441MA1999999084531MD1710091+9999ME1312629OA149900211REMSYN100AAXX  01064 06798 33/// /2902 11046 21076 38453 48262 57009 333 21044 3/100 55000 70017 91104 91203;
0137067980999992010010107004+46800+010283FM-12+129899999V0209999C000019999999N9999999N1-00491-00731999999ADDMA1999999084501MD1710071+9999ME1312599OA149900261REMSYN076AAXX  01074 06798 33/// /0000 11049 21073 38450 48259 57007 333 91105 91203;
0137067980999992010010108004+46800+010283FM-12+129899999V0202801N001019999999N9999999N1-00451-00791999999ADDMA1999999084521MD1510021+9999ME1312619OA149900261REMSYN076AAXX  01084 06798 33/// /2802 11045 21079 38452 48261 55002 333 91105 91203;
0137067980999992010010109004+46800+010283FM-12+129899999V0209999C000019999999N9999999N1-00471-00701999999ADDMA1999999084581MD1310051+9999ME1312669OA149900261REMSYN076AAXX  01094 06798 33/// /0000 11047 21070 38458 48266 53005 333 91105 91203;
0137067980999992010010110004+46800+010283FM-12+129899999V0209999C000019999999N9999999N1-00351-00611999999ADDMA1999999084601MD1210101+9999ME1312689OA149900151REMSYN076AAXX  01104 06798 33/// /0000 11035 21061 38460 48268 52010 333 91103 91201;
0137067980999992010010111004+46800+010283FM-12+129899999V0202501N000519999999N9999999N1-00261-00501999999ADDMA1999999084541MD1010021+9999ME1312629OA149900151REMSYN076AAXX  01114 06798 33/// /2501 11026 21050 38454 48262 50002 333 91103 91201;
0137067980999992010010112004+46800+010283FM-12+129899999V0200301N000519999999N9999999N1-00141-00411999999ADDMA1999999084511MD1710071+9999ME1312599OA149900261REMSYN076AAXX  01124 06798 33/// /0301 11014 21041 38451 48259 57007 333 91105 91203;
0137067980999992010010113004+46800+010283FM-12+129899999V0201001N000519999999N9999999N1-00161-00401999999ADDMA1999999084501MD1610101+9999ME1312589OA149900151REMSYN076AAXX  01134 06798 33/// /1001 11016 21040 38450 48258 56010 333 91103 91202;
0137067980999992010010114004+46800+010283FM-12+129899999V0200301N000519999999N9999999N1-00131-00431999999ADDMA1999999084541MD1519999+9999ME1312629OA149900151REMSYN076AAXX  01144 06798 33/// /0301 11013 21043 38454 48262 55/// 333 91103 91202;
0137067980999992010010115004+46800+010283FM-12+129899999V0202801N000519999999N9999999N1-00261-00521999999ADDMA1999999084611MD1210101+9999ME1312699OA149900151REMSYN076AAXX  01154 06798 33/// /2801 11026 21052 38461 48269 52010 333 91103 91202;
0137067980999992010010116004+46800+010283FM-12+129899999V0202601N001519999999N9999999N1-00131-00401999999ADDMA1999999084671MD1310171+9999ME1312749OA149900261REMSYN076AAXX  01164 06798 33/// /2603 11013 21040 38467 48274 53017 333 91105 91203;
0137067980999992010010117004+46800+010283FM-12+129899999V0201801N000519999999N9999999N1-00211-00371999999ADDMA1999999084721MD1110181+9999ME1312799OA149900311REMSYN076AAXX  01174 06798 33/// /1801 11021 21037 38472 48279 51018 333 91106 91203;
0156067980999992010010118004+46800+010283FM-12+129899999V0202601N001519999999N9999999N1-00161-00411999999ADDKA1120M-00061MA1999999084781MD1110171+9999ME1312859OA149900311REMSYN082AAXX  01184 06798 33/// /2603 11016 21041 38478 48285 51017 333 11006 91106 91203;
0137067980999992010010119004+46800+010283FM-12+129899999V0202501N001019999999N9999999N1-00201-00371999999ADDMA1999999084851MD1310181+9999ME1312919OA149900211REMSYN076AAXX  01194 06798 33/// /2502 11020 21037 38485 48291 53018 333 91104 91203;
0137067980999992010010120004+46800+010283FM-12+129899999V0209999C000019999999N9999999N1-00271-00471999999ADDMA1999999084941MD1310221+9999ME1313009OA149900211REMSYN076AAXX  01204 06798 33/// /0000 11027 21047 38494 48300 53022 333 91104 91202;
0137067980999992010010121004+46800+010283FM-12+129899999V0202601N001019999999N9999999N1-00221-00371999999ADDMA1999999085041MD1210261+9999ME1313099OA149900311REMSYN076AAXX  01214 06798 33/// /2602 11022 21037 38504 48309 52026 333 91106 91203;
0154067980999992010010122004+46800+010283FM-12+129899999V0202701N000519999999N9999999N1-00211-00401999999ADDAA101000021MA1999999085121MD1310271+9999ME1313179OA149900261REMSYN082AAXX  01224 06798 23/// /2701 11021 21040 38512 48317 53027 333 69915 91105 91203;
0137067980999992010010123004+46800+010283FM-12+129899999V0200301N001019999999N9999999N1-00251-00401999999ADDMA1999999085191MD1110251+9999ME1313239OA149900211REMSYN076AAXX  01234 06798 33/// /0302 11025 21040 38519 48323 51025 333 91104 91202;
0179067980999992010010200004+46800+010283FM-12+129899999V0200601N001019999999N9999999N1-00261-00411999999ADDAA106000091MA1999999085211MD1110171+9999ME1313259OA149900311REMSYN088AAXX  02004 06798 03/// /0602 11026 21041 38521 48325 51017 69911 333 60005 91106 91203;EQDQ01  00002PRCP06
0137067980999992010010201004+46800+010283FM-12+129899999V0202801N000519999999N9999999N1-00301-00441999999ADDMA1999999085261MD1110141+9999ME1313309OA149900151REMSYN076AAXX  02014 06798 33/// /2801 11030 21044 38526 48330 51014 333 91103 91202;
0096067980999992010010202004+46800+010283FM-12+129899999V0202601N001019999999N9999999N1-00261-00471999999ADDMA1999999085361ME1313399REMSYN060AAXX  02024 06798 33/// /2602 11026 21047 38536 48339 5////;
0137067980999992010010203004+46800+010283FM-12+129899999V0202601N001519999999N9999999N1-00291-00491999999ADDMA1999999085421MD1210211+9999ME1313449OA149900261REMSYN076AAXX  02034 06798 33/// /2603 11029 21049 38542 48344 52021 333 91105 91203;
0137067980999992010010204004+46800+010283FM-12+129899999V0200601N001019999999N9999999N1-00371-00501999999ADDMA1999999085481MD1210221+9999ME1313509OA149900261REMSYN076AAXX  02044 06798 33/// /0602 11037 21050 38548 48350 52022 333 91105 91203;
0137067980999992010010205004+46800+010283FM-12+129899999V0202501N001519999999N9999999N1-00291-00461999999ADDMA1999999085531MD1210171+9999ME1313559OA149900311REMSYN076AAXX  02054 06798 33/// /2503 11029 21046 38553 48355 52017 333 91106 91203;
0273067980999992010010206004+46800+010283FM-12+129899999V0202401N001519999999N9999999N1-00381-00631999999ADDAA112000091AA224000091AL10600091GJ101989IA2999-00109KA1999N-00381MA1999999085601MD1210181+9999ME1313619OA149900411REMSYN112AAXX  02064 06798 03/// /2403 11038 21063 38560 48361 52018 69912 333 21038 3/101 55033 60005 70001 91108 91205;EQDQ01  00002PRCP24Q02  00002PRCP12
0137067980999992010010207004+46800+010283FM-12+129899999V0202601N002119999999N9999999N1-00411-00941999999ADDMA1999999085721MD1310241+9999ME1313729OA149900571REMSYN076AAXX  02074 06798 33/// /2604 11041 21094 38572 48372 53024 333 91111 91206;
0096067980999992010010208004+46800+010283FM-12+129899999V0202501N002619999999N9999999N1-00491-01341999999ADDMA1999999085831ME1313829REMSYN060AAXX  02084 06798 33/// /2505 11049 21134 38583 48382 5////;
0137067980999992010010209004+46800+010283FM-12+129899999V0202401N002119999999N9999999N1-00501-01151999999ADDMA1999999085911MD1110311+9999ME1313899OA149900621REMSYN076AAXX  02094 06798 33/// /2404 11050 21115 38591 48389 51031 333 91112 91206;
0137067980999992010010210004+46800+010283FM-12+129899999V0202301N002119999999N9999999N1-00411-01561999999ADDMA1999999085971MD1110251+9999ME1313959OA149900621REMSYN076AAXX  02104 06798 33/// /2304 11041 21156 38597 48395 51025 333 91112 91206;
0137067980999992010010211004+46800+010283FM-12+129899999V0202501N003119999999N9999999N1-00491-01491999999ADDMA1999999086021MD1110191+9999ME1313999OA149900771REMSYN076AAXX  02114 06798 33/// /2506 11049 21149 38602 48399 51019 333 91115 91208;
0137067980999992010010212004+46800+010283FM-12+129899999V0202501N003619999999N9999999N1-00571-01491999999ADDMA1999999086101MD1310191+9999ME1314069OA149900771REMSYN076AAXX  02124 06798 33/// /2507 11057 21149 38610 48406 53019 333 91115 91208;
0137067980999992010010213004+46800+010283FM-12+129899999V0202301N004119999999N9999999N1-00641-01481999999ADDMA1999999086211MD1310241+9999ME1314169OA149900721REMSYN076AAXX  02134 06798 33/// /2308 11064 21148 38621 48416 53024 333 91114 91208;
0137067980999992010010214004+46800+010283FM-12+129899999V0202601N003119999999N9999999N1-00691-01341999999ADDMA1999999086281MD1219999+9999ME1314229OA149900771REMSYN076AAXX  02144 06798 33/// /2606 11069 21134 38628 48422 52/// 333 91115 91210;
0137067980999992010010215004+46800+010283FM-12+129899999V0202701N001019999999N9999999N1-00711-01661999999ADDMA1999999086401MD1310301+9999ME1314339OA149900771REMSYN076AAXX  02154 06798 33/// /2702 11071 21166 38640 48433 53030 333 91115 91210;
0137067980999992010010216004+46800+010283FM-12+129899999V0200301N002619999999N9999999N1-00801-01211999999ADDMA1999999086511MD1310301+9999ME1314429OA149900461REMSYN076AAXX  02164 06798 33/// /0305 11080 21121 38651 48442 53030 333 91109 91206;
0137067980999992010010217004+46800+010283FM-12+129899999V0202701N001519999999N9999999N1-00831-01201999999ADDMA1999999086581MD1110301+9999ME1314489OA149900361REMSYN076AAXX  02174 06798 33/// /2703 11083 21120 38658 48448 51030 333 91107 91205;
0156067980999992010010218004+46800+010283FM-12+129899999V0202701N000519999999N9999999N1-00891-01661999999ADDKA1120M-00311MA1999999086611MD1210211+9999ME1314519OA149900771REMSYN082AAXX  02184 06798 33/// /2701 11089 21166 38661 48451 52021 333 11031 91115 91210;
0137067980999992010010219004+46800+010283FM-12+129899999V0203601N001519999999N9999999N1-00981-01761999999ADDMA1999999086661MD1210151+9999ME1314549OA149900261REMSYN076AAXX  02194 06798 33/// /3603 11098 21176 38666 48454 52015 333 91105 91203;
0137067980999992010010220004+46800+010283FM-12+129899999V0202901N001519999999N9999999N1-01051-01791999999ADDMA1999999086681MD1210101+9999ME1314569OA149900261REMSYN076AAXX  02204 06798 33/// /2903 11105 21179 38668 48456 52010 333 91105 91203;
0137067980999992010010221004+46800+010283FM-12+129899999V0203001N000519999999N9999999N1-01201-01791999999ADDMA1999999086721MD1210111+9999ME1314589OA149900361REMSYN076AAXX  02214 06798 33/// /3001 11120 21179 38672 48458 52011 333 91107 91205;
0137067980999992010010222004+46800+010283FM-12+129899999V0203101N001019999999N9999999N1-01311-02101999999ADDMA1999999086751MD1210091+9999ME1314609OA149900261REMSYN076AAXX  02224 06798 33/// /3102 11131 21210 38675 48460 52009 333 91105 91203;
0137067980999992010010223004+46800+010283FM-12+129899999V0203101N000519999999N9999999N1-01371-02181999999ADDMA1999999086791MD1210111+9999ME1314649OA149900211REMSYN076AAXX  02234 06798 33/// /3101 11137 21218 38679 48464 52011 333 91104 91202;
0137067980999992010010300004+46800+010283FM-12+129899999V0202501N001519999999N9999999N1-01401-02001999999ADDMA1999999086821MD1210101+9999ME1314669OA149900771REMSYN076AAXX  03004 06798 33/// /2503 11140 21200 38682 48466 52010 333 91115 91210;
0137067980999992010010301004+46800+010283FM-12+129899999V0202701N001519999999N9999999N1-01501-02241999999ADDMA1999999086841MD1110091+9999ME1314679OA149900311REMSYN076AAXX  03014 06798 33/// /2703 11150 21224 38684 48467 51009 333 91106 91203;
0096067980999992010010302004+46800+010283FM-12+129899999V0202601N002119999999N9999999N1-01411-02341999999ADDMA1999999086881ME1314719REMSYN060AAXX  03024 06798 33/// /2604 11141 21234 38688 48471 5////;
0096067980999992010010303004+46800+010283FM-12+129899999V0202501N002619999999N9999999N1-01471-02081999999ADDMA1999999086921ME1314749REMSYN060AAXX  03034 06798 33/// /2505 11147 21208 38692 48474 5////;
0137067980999992010010304004+46800+010283FM-12+129899999V0202601N003119999999N9999999N1-01491-02211999999ADDMA1999999086911MD1210071+9999ME1314739OA149900461REMSYN076AAXX  03044 06798 33/// /2606 11149 21221 38691 48473 52007 333 91109 91206;
0137067980999992010010305004+46800+010283FM-12+129899999V0202601N003619999999N9999999N1-01551-02241999999ADDMA1999999086941MD1219999+9999ME1314759OA149900511REMSYN076AAXX  03054 06798 33/// /2607 11155 21224 38694 48475 52/// 333 91110 91207;
0234067980999992010010306004+46800+010283FM-12+129899999V0202601N003119999999N9999999N1-01621-02081999999ADDAA124000091AL19900091GJ100249IA2999-00409KA1999N-01621MA1999999086921MD1010001+9999ME1314739OA149900571REMSYN100AAXX  03064 06798 33/// /2606 11162 21208 38692 48473 50000 333 21162 3/104 55004 70000 91111 91207;EQDQ01  00002PRCP24
0137067980999992010010307004+46800+010283FM-12+129899999V0202401N003119999999N9999999N1-01631-02231999999ADDMA1999999086941MD1210031+9999ME1314759OA149900671REMSYN076AAXX  03074 06798 33/// /2406 11163 21223 38694 48475 52003 333 91113 91208;
0137067980999992010010308004+46800+010283FM-12+129899999V0202601N003119999999N9999999N1-01621-02051999999ADDMA1999999086971MD1319999+9999ME1314789OA149900671REMSYN076AAXX  03084 06798 33/// /2606 11162 21205 38697 48478 53/// 333 91113 91208;
0137067980999992010010309004+46800+010283FM-12+129899999V0202501N003119999999N9999999N1-01581-01891999999ADDMA1999999087001MD1210081+9999ME1314809OA149900671REMSYN076AAXX  03094 06798 33/// /2506 11158 21189 38700 48480 52008 333 91113 91208;
0137067980999992010010310004+46800+010283FM-12+129899999V0202101N001019999999N9999999N1-01381-01991999999ADDMA1999999086991MD1010051+9999ME1314819OA149900511REMSYN076AAXX  03104 06798 33/// /2102 11138 21199 38699 48481 50005 333 91110 91206;
0137067980999992010010311004+46800+010283FM-12+129899999V0209999C000019999999N9999999N1-01221-02021999999ADDMA1999999086911MD1710061+9999ME1314759OA149900511REMSYN076AAXX  03114 06798 33/// /0000 11122 21202 38691 48475 57006 333 91110 91206;
0137067980999992010010312004+46800+010283FM-12+129899999V0209999C000019999999N9999999N1-01171-01671999999ADDMA1999999086801MD1810201+9999ME1314669OA149900671REMSYN076AAXX  03124 06798 33/// /0000 11117 21167 38680 48466 58020 333 91113 91208;
0137067980999992010010313004+46800+010283FM-12+129899999V0202201N001519999999N9999999N1-00961-01621999999ADDMA1999999086731MD1610261+9999ME1314619OA149900261REMSYN076AAXX  03134 06798 33/// /2203 11096 21162 38673 48461 56026 333 91105 91203;
0137067980999992010010314004+46800+010283FM-12+129899999V0202601N001019999999N9999999N1-01011-01831999999ADDMA1999999086701MD1610211+9999ME1314589OA149900311REMSYN076AAXX  03144 06798 33/// /2602 11101 21183 38670 48458 56021 333 91106 91203;
0137067980999992010010315004+46800+010283FM-12+129899999V0202601N002119999999N9999999N1-01161-02001999999ADDMA1999999086731MD1510071+9999ME1314609OA149900511REMSYN076AAXX  03154 06798 33/// /2604 11116 21200 38673 48460 55007 333 91110 91206;
0137067980999992010010316004+46800+010283FM-12+129899999V0202501N001519999999N9999999N1-01281-01981999999ADDMA1999999086731MD1510001+9999ME1314599OA149900411REMSYN076AAXX  03164 06798 33/// /2503 11128 21198 38673 48459 55000 333 91108 91205;
0137067980999992010010317004+46800+010283FM-12+129899999V0202601N001519999999N9999999N1-01391-02081999999ADDMA1999999086721MD1210021+9999ME1314579OA149900411REMSYN076AAXX  03174 06798 33/// /2603 11139 21208 38672 48457 52002 333 91108 91205;
0156067980999992010010318004+46800+010283FM-12+129899999V0203001N000519999999N9999999N1-01331-02301999999ADDKA1120M-00941MA1999999086741MD1510011+9999ME1314599OA149900671REMSYN082AAXX  03184 06798 33/// /3001 11133 21230 38674 48459 55001 333 11094 91113 91208;
0137067980999992010010319004+46800+010283FM-12+129899999V0202801N000519999999N9999999N1-01341-02261999999ADDMA1999999086781MD1319999+9999ME1314639OA149900261REMSYN076AAXX  03194 06798 33/// /2801 11134 21226 38678 48463 53/// 333 91105 91203;
0137067980999992010010320004+46800+010283FM-12+129899999V0203201N000519999999N9999999N1-01451-02311999999ADDMA1999999086781MD1210061+9999ME1314629OA149900261REMSYN076AAXX  03204 06798 33/// /3201 11145 21231 38678 48462 52006 333 91105 91203;
0137067980999992010010321004+46800+010283FM-12+129899999V0202701N002119999999N9999999N1-01351-01881999999ADDMA1999999086781MD1010041+9999ME1314639OA149900411REMSYN076AAXX  03214 06798 33/// /2704 11135 21188 38678 48463 50004 333 91108 91205;
0137067980999992010010322004+46800+010283FM-12+129899999V0202401N002119999999N9999999N1-01531-02251999999ADDMA1999999086771MD1519999+9999ME1314619OA149900461REMSYN076AAXX  03224 06798 33/// /2404 11153 21225 38677 48461 55/// 333 91109 91206;
0137067980999992010010323004+46800+010283FM-12+129899999V0202701N002119999999N9999999N1-01481-01851999999ADDMA1999999086781MD1410001+9999ME1314629OA149900461REMSYN076AAXX  03234 06798 33/// /2704 11148 21185 38678 48462 52000 333 91109 91206;
0137067980999992010010400004+46800+010283FM-12+129899999V0202501N002619999999N9999999N1-01521-02431999999ADDMA1999999086731MD1810051+9999ME1314579OA149900461REMSYN076AAXX  04004 06798 33/// /2505 11152 21243 38673 48457 58005 333 91109 91206;
0137067980999992010010401004+46800+010283FM-12+129899999V0202501N002119999999N9999999N1-01501-02281999999ADDMA1999999086711MD1710061+9999ME1314569OA149900461REMSYN076AAXX  04014 06798 33/// /2504 11150 21228 38671 48456 57006 333 91109 91206;
0137067980999992010010402004+46800+010283FM-12+129899999V0202401N002119999999N9999999N1-01521-02371999999ADDMA1999999086681MD1710101+9999ME1314539OA149900461REMSYN076AAXX  04024 06798 33/// /2404 11152 21237 38668 48453 57010 333 91109 91206;
0137067980999992010010403004+46800+010283FM-12+129899999V0202501N001519999999N9999999N1-01561-02781999999ADDMA1999999086611MD1719999+9999ME1314479OA149900461REMSYN076AAXX  04034 06798 33/// /2503 11156 21278 38661 48447 57/// 333 91109 91206;
0137067980999992010010404004+46800+010283FM-12+129899999V0202901N001019999999N9999999N1-01461-02351999999ADDMA1999999086581MD1710131+9999ME1314459OA149900361REMSYN076AAXX  04044 06798 33/// /2902 11146 21235 38658 48445 57013 333 91107 91205;
0137067980999992010010405004+46800+010283FM-12+129899999V0202301N001019999999N9999999N1-01441-02171999999ADDMA1999999086511MD1610171+9999ME1314399OA149900361REMSYN076AAXX  04054 06798 33/// /2302 11144 21217 38651 48439 56017 333 91107 91204;
0234067980999992010010406004+46800+010283FM-12+129899999V0202701N000519999999N9999999N1-01381-02321999999ADDAA124000091AL19900091GJ103129IA2999-02009KA1999N-01681MA1999999086461MD1610151+9999ME1314359OA149900461REMSYN100AAXX  04064 06798 33/// /2701 11138 21232 38646 48435 56015 333 21168 3/120 55052 70000 91109 91206;EQDQ01  00002PRCP24
0137067980999992010010407004+46800+010283FM-12+129899999V0200101N000519999999N9999999N1-01321-01931999999ADDMA1999999086441MD1710141+9999ME1314339OA149900151REMSYN076AAXX  04074 06798 33/// /0101 11132 21193 38644 48433 57014 333 91103 91201;
0137067980999992010010408004+46800+010283FM-12+129899999V0202401N000519999999N9999999N1-01301-02061999999ADDMA1999999086431MD1710081+9999ME1314329OA149900151REMSYN076AAXX  04084 06798 33/// /2401 11130 21206 38643 48432 57008 333 91103 91202;
0137067980999992010010409004+46800+010283FM-12+129899999V0209999C000019999999N9999999N1-01111-01881999999ADDMA1999999086411MD1710051+9999ME1314329OA149900361REMSYN076AAXX  04094 06798 33/// /0000 11111 21188 38641 48432 57005 333 91107 91204;
0137067980999992010010410004+46800+010283FM-12+129899999V0200701N000519999999N9999999N1-01071-01581999999ADDMA1999999086381MD1710061+9999ME1314299OA149900101REMSYN076AAXX  04104 06798 33/// /0701 11107 21158 38638 48429 57006 333 91102 91201;
0137067980999992010010411004+46800+010283FM-12+129899999V0202001N000519999999N9999999N1-00921-01521999999ADDMA1999999086291MD1710141+9999ME1314229OA149900151REMSYN076AAXX  04114 06798 33/// /2001 11092 21152 38629 48422 57014 333 91103 91201;
0137067980999992010010412004+46800+010283FM-12+129899999V0200701N000519999999N9999999N1-00841-01421999999ADDMA1999999086211MD1710201+9999ME1314159OA149900461REMSYN076AAXX  04124 06798 33/// /0701 11084 21142 38621 48415 57020 333 91109 91206;
0137067980999992010010413004+46800+010283FM-12+129899999V0202401N000519999999N9999999N1-00731-01551999999ADDMA1999999086141MD1719999+9999ME1314099OA149900101REMSYN076AAXX  04134 06798 33/// /2401 11073 21155 38614 48409 57/// 333 91102 91201;
0137067980999992010010414004+46800+010283FM-12+129899999V0202801N000519999999N9999999N1-00671-01441999999ADDMA1999999086121MD1719999+9999ME1314089OA149900101REMSYN076AAXX  04144 06798 33/// /2801 11067 21144 38612 48408 57/// 333 91102 91201;
0137067980999992010010415004+46800+010283FM-12+129899999V0202601N000519999999N9999999N1-00701-01131999999ADDMA1999999086091MD1710121+9999ME1314059OA149900151REMSYN076AAXX  04154 06798 33/// /2601 11070 21113 38609 48405 57012 333 91103 91202;
0137067980999992010010416004+46800+010283FM-12+129899999V0209999C000019999999N9999999N1-00761-01051999999ADDMA1999999086091MD1719999+9999ME1314059OA149900101REMSYN076AAXX  04164 06798 33/// /0000 11076 21105 38609 48405 57/// 333 91102 91202;
0137067980999992010010417004+46800+010283FM-12+129899999V0202501N000519999999N9999999N1-00811-00971999999ADDMA1999999086091MD1510031+9999ME1314049OA149900151REMSYN076AAXX  04174 06798 33/// /2501 11081 21097 38609 48404 55003 333 91103 91201;
0156067980999992010010418004+46800+010283FM-12+129899999V0202601N000519999999N9999999N1-00751-01061999999ADDKA1120M-00651MA1999999086061MD1710031+9999ME1314029OA149900151REMSYN082AAXX  04184 06798 33/// /2601 11075 21106 38606 48402 57003 333 11065 91103 91202;
0137067980999992010010419004+46800+010283FM-12+129899999V0202601N001019999999N9999999N1-00771-01051999999ADDMA1999999086051MD1710041+9999ME1314019OA149900211REMSYN076AAXX  04194 06798 33/// /2602 11077 21105 38605 48401 57004 333 91104 91202;
0137067980999992010010420004+46800+010283FM-12+129899999V0202401N000519999999N9999999N1-00821-00971999999ADDMA1999999086051MD1710041+9999ME1314019OA149900211REMSYN076AAXX  04204 06798 33/// /2401 11082 21097 38605 48401 57004 333 91104 91202;
0137067980999992010010421004+46800+010283FM-12+129899999V0203301N000519999999N9999999N1-00761-01121999999ADDMA1999999086021MD1710041+9999ME1313989OA149900211REMSYN076AAXX  04214 06798 33/// /3301 11076 21112 38602 48398 57004 333 91104 91202;
0137067980999992010010422004+46800+010283FM-12+129899999V0202401N001519999999N9999999N1-00811-00981999999ADDMA1999999086011MD1710041+9999ME1313979OA149900261REMSYN076AAXX  04224 06798 33/// /2403 11081 21098 38601 48397 57004 333 91105 91203;
0137067980999992010010423004+46800+010283FM-12+129899999V0202601N000519999999N9999999N1-00781-01031999999ADDMA1999999085961MD1710091+9999ME1313939OA149900261REMSYN076AAXX  04234 06798 33/// /2601 11078 21103 38596 48393 57009 333 91105 91203;
0137067980999992010010500004+46800+010283FM-12+129899999V0209999C000019999999N9999999N1-00861-00941999999ADDMA1999999085931MD1710091+9999ME1313909OA149900261REMSYN076AAXX  05004 06798 33/// /0000 11086 21094 38593 48390 57009 333 91105 91203;
0137067980999992010010501004+46800+010283FM-12+129899999V0202901N000519999999N9999999N1-00811-01031999999ADDMA1999999085901MD1610111+9999ME1313879OA149900151REMSYN076AAXX  05014 06798 33/// /2901 11081 21103 38590 48387 56011 333 91103 91202;
0137067980999992010010502004+46800+010283FM-12+129899999V0202601N001019999999N9999999N1-00911-01151999999ADDMA1999999085861MD1610101+9999ME1313839OA149900151REMSYN076AAXX  05024 06798 33/// /2602 11091 21115 38586 48383 56010 333 91103 91202;
0137067980999992010010503004+46800+010283FM-12+129899999V0202501N001519999999N9999999N1-01021-01291999999ADDMA1999999085821MD1710111+9999ME1313799OA149900261REMSYN076AAXX  05034 06798 33/// /2503 11102 21129 38582 48379 57011 333 91105 91203;
0137067980999992010010504004+46800+010283FM-12+129899999V0209999C000019999999N9999999N1-01161-01501999999ADDMA1999999085791MD1710111+9999ME1313769OA149900311REMSYN076AAXX  05044 06798 33/// /0000 11116 21150 38579 48376 57011 333 91106 91204;
0137067980999992010010505004+46800+010283FM-12+129899999V0202701N000519999999N9999999N1-01151-01351999999ADDMA1999999085781MD1710081+9999ME1313759OA149900311REMSYN076AAXX  05054 06798 33/// /2701 11115 21135 38578 48375 57008 333 91106 91204;
0234067980999992010010506004+46800+010283FM-12+129899999V0202601N001519999999N9999999N1-01151-01321999999ADDAA124000091AL19900091GJ100009IA2999-01509KA1999N-01181MA1999999085741MD1610081+9999ME1313729OA149900311REMSYN100AAXX  05064 06798 33/// /2603 11115 21132 38574 48372 56008 333 21118 3/115 55000 70000 91106 91204;EQDQ01  00002PRCP24
0137067980999992010010507004+46800+010283FM-12+129899999V0202701N001019999999N9999999N1-01131-01331999999ADDMA1999999085721MD1810071+9999ME1313709OA149900311REMSYN076AAXX  05074 06798 33/// /2702 11113 21133 38572 48370 58007 333 91106 91204;
0137067980999992010010508004+46800+010283FM-12+129899999V0202601N002619999999N9999999N1-01141-01361999999ADDMA1999999085701MD1610081+9999ME1313689OA149900571REMSYN076AAXX  05084 06798 33/// /2605 11114 21136 38570 48368 56008 333 91111 91207;
0137067980999992010010509004+46800+010283FM-12+129899999V0202601N002119999999N9999999N1-01181-01381999999ADDMA1999999085711MD1510031+9999ME1313699OA149900571REMSYN076AAXX  05094 06798 33/// /2604 11118 21138 38571 48369 55003 333 91111 91207;
0137067980999992010010510004+46800+010283FM-12+129899999V0202501N002119999999N9999999N1-01061-01311999999ADDMA1999999085681MD1710041+9999ME1313679OA149900361REMSYN076AAXX  05104 06798 33/// /2504 11106 21131 38568 48367 57004 333 91107 91205;
0137067980999992010010511004+46800+010283FM-12+129899999V0202201N001019999999N9999999N1-00911-01501999999ADDMA1999999085581MD1810121+9999ME1313589OA149900411REMSYN076AAXX  05114 06798 33/// /2202 11091 21150 38558 48358 58012 333 91108 91204;
0137067980999992010010512004+46800+010283FM-12+129899999V0209999C000019999999N9999999N1-00811-01331999999ADDMA1999999085471MD1810241+9999ME1313489OA149900571REMSYN076AAXX  05124 06798 33/// /0000 11081 21133 38547 48348 58024 333 91111 91207;
0137067980999992010010513004+46800+010283FM-12+129899999V0202301N000519999999N9999999N1-00681-01251999999ADDMA1999999085381MD1710301+9999ME1313409OA149900261REMSYN076AAXX  05134 06798 33/// /2301 11068 21125 38538 48340 57030 333 91105 91202;
0096067980999992010010514004+46800+010283FM-12+129899999V0202401N000519999999N9999999N1-00711-01231999999ADDMA1999999085341ME1313379REMSYN060AAXX  05144 06798 33/// /2401 11071 21123 38534 48337 5////;
0137067980999992010010515004+46800+010283FM-12+129899999V0202701N001019999999N9999999N1-00851-01291999999ADDMA1999999085341MD1710131+9999ME1313369OA149900411REMSYN076AAXX  05154 06798 33/// /2702 11085 21129 38534 48336 57013 333 91108 91204;
0137067980999992010010516004+46800+010283FM-12+129899999V0209999C000019999999N9999999N1-00831-01331999999ADDMA1999999085331MD1710051+9999ME1313369OA149900311REMSYN076AAXX  05164 06798 33/// /0000 11083 21133 38533 48336 57005 333 91106 91203;
0137067980999992010010517004+46800+010283FM-12+129899999V0202801N000519999999N9999999N1-00931-01431999999ADDMA1999999085321MD1710021+9999ME1313349OA149900311REMSYN076AAXX  05174 06798 33/// /2801 11093 21143 38532 48334 57002 333 91106 91203;
0156067980999992010010518004+46800+010283FM-12+129899999V0200201N000519999999N9999999N1-00971-01401999999ADDKA1120M-00671MA1999999085311MD1610031+9999ME1313349OA149900571REMSYN082AAXX  05184 06798 33/// /0201 11097 21140 38531 48334 56003 333 11067 91111 91207;
0137067980999992010010519004+46800+010283FM-12+129899999V0202601N002119999999N9999999N1-00891-01391999999ADDMA1999999085281MD1710051+9999ME1313319OA149900311REMSYN076AAXX  05194 06798 33/// /2604 11089 21139 38528 48331 57005 333 91106 91204;
0137067980999992010010520004+46800+010283FM-12+129899999V0202701N001519999999N9999999N1-00891-01301999999ADDMA1999999085231MD1710091+9999ME1313269OA149900311REMSYN076AAXX  05204 06798 33/// /2703 11089 21130 38523 48326 57009 333 91106 91204;
0137067980999992010010521004+46800+010283FM-12+129899999V0202801N001019999999N9999999N1-01031-01431999999ADDMA1999999085221MD1710091+9999ME1313259OA149900361REMSYN076AAXX  05214 06798 33/// /2802 11103 21143 38522 48325 57009 333 91107 91204;
0137067980999992010010522004+46800+010283FM-12+129899999V0202601N001519999999N9999999N1-00901-01291999999ADDMA1999999085171MD1610111+9999ME1313219OA149900361REMSYN076AAXX  05224 06798 33/// /2603 11090 21129 38517 48321 56011 333 91107 91205;
0137067980999992010010523004+46800+010283FM-12+129899999V0202501N002619999999N9999999N1-00921-01381999999ADDMA1999999085131MD1810101+9999ME1313179OA149900461REMSYN076AAXX  05234 06798 33/// /2505 11092 21138 38513 48317 58010 333 91109 91206;
0137067980999992010010600004+46800+010283FM-12+129899999V0202601N002619999999N9999999N1-00941-01421999999ADDMA1999999085081MD1710141+9999ME1313139OA149900511REMSYN076AAXX  06004 06798 33/// /2605 11094 21142 38508 48313 57014 333 91110 91206;
0137067980999992010010601004+46800+010283FM-12+129899999V0202601N002119999999N9999999N1-00971-01451999999ADDMA1999999085051MD1610121+9999ME1313109OA149900511REMSYN076AAXX  06014 06798 33/// /2604 11097 21145 38505 48310 56012 333 91110 91207;
0137067980999992010010602004+46800+010283FM-12+129899999V0202601N002619999999N9999999N1-01011-01391999999ADDMA1999999085071MD1510061+9999ME1313129OA149900511REMSYN076AAXX  06024 06798 33/// /2605 11101 21139 38507 48312 55006 333 91110 91207;
0137067980999992010010603004+46800+010283FM-12+129899999V0202601N003119999999N9999999N1-01031-01421999999ADDMA1999999085051MD1710031+9999ME1313109OA149900511REMSYN076AAXX  06034 06798 33/// /2606 11103 21142 38505 48310 57003 333 91110 91207;
0137067980999992010010604004+46800+010283FM-12+129899999V0202601N002119999999N9999999N1-01061-01531999999ADDMA1999999085031MD1810021+9999ME1313089OA149900461REMSYN076AAXX  06044 06798 33/// /2604 11106 21153 38503 48308 58002 333 91109 91206;
0137067980999992010010605004+46800+010283FM-12+129899999V0202501N003119999999N9999999N1-01081-01551999999ADDMA1999999085041MD1710031+9999ME1313099OA149900571REMSYN076AAXX  06054 06798 33/// /2506 11108 21155 38504 48309 57003 333 91111 91206;
0234067980999992010010606004+46800+010283FM-12+129899999V0202601N003619999999N9999999N1-01061-01591999999ADDAA124000091AL19900091GJ102769IA2999-01309KA1999N-01081MA1999999085051MD1510001+9999ME1313109OA149900621REMSYN100AAXX  06064 06798 33/// /2607 11106 21159 38505 48310 55000 333 21108 3/113 55046 70000 91112 91208;EQDQ01  00002PRCP24
0137067980999992010010607004+46800+010283FM-12+129899999V0202601N003119999999N9999999N1-01041-01551999999ADDMA1999999085071MD1210041+9999ME1313129OA149900621REMSYN076AAXX  06074 06798 33/// /2606 11104 21155 38507 48312 52004 333 91112 91208;
0137067980999992010010608004+46800+010283FM-12+129899999V0202601N003119999999N9999999N1-01011-01571999999ADDMA1999999085051MD1010011+9999ME1313109OA149900621REMSYN076AAXX  06084 06798 33/// /2606 11101 21157 38505 48310 50001 333 91112 91207;
0137067980999992010010609004+46800+010283FM-12+129899999V0202601N002619999999N9999999N1-00931-01521999999ADDMA1999999085071MD1210021+9999ME1313129OA149900621REMSYN076AAXX  06094 06798 33/// /2605 11093 21152 38507 48312 52002 333 91112 91208;
0137067980999992010010610004+46800+010283FM-12+129899999V0202401N002619999999N9999999N1-00781-01331999999ADDMA1999999085091MD1210021+9999ME1313149OA149900461REMSYN076AAXX  06104 06798 33/// /2405 11078 21133 38509 48314 52002 333 91109 91206;
0137067980999992010010611004+46800+010283FM-12+129899999V0201401N000519999999N9999999N1-00691-01251999999ADDMA1999999085041MD1819999+9999ME1313099OA149900461REMSYN076AAXX  06114 06798 33/// /1401 11069 21125 38504 48309 58/// 333 91109 91205;
0137067980999992010010612004+46800+010283FM-12+129899999V0202001N000519999999N9999999N1-00551-01161999999ADDMA1999999084991MD1710081+9999ME1313049OA149900621REMSYN076AAXX  06124 06798 33/// /2001 11055 21116 38499 48304 57008 333 91112 91208;
0137067980999992010010613004+46800+010283FM-12+129899999V0201001N000519999999N9999999N1-00451-01001999999ADDMA1999999084971MD1610121+9999ME1313039OA149900151REMSYN076AAXX  06134 06798 33/// /1001 11045 21100 38497 48303 56012 333 91103 91202;
0137067980999992010010614004+46800+010283FM-12+129899999V0209999C000019999999N9999999N1-00381-00941999999ADDMA1999999084961MD1719999+9999ME1313029OA149900101REMSYN076AAXX  06144 06798 33/// /0000 11038 21094 38496 48302 57/// 333 91102 91202;
0137067980999992010010615004+46800+010283FM-12+129899999V0202701N001019999999N9999999N1-00541-00981999999ADDMA1999999084991MD1519999+9999ME1313049OA149900461REMSYN076AAXX  06154 06798 33/// /2702 11054 21098 38499 48304 55/// 333 91109 91205;
0137067980999992010010616004+46800+010283FM-12+129899999V0202801N000519999999N9999999N1-00631-01021999999ADDMA1999999085061MD1210091+9999ME1313119OA149900151REMSYN076AAXX  06164 06798 33/// /2801 11063 21102 38506 48311 52009 333 91103 91202;
0137067980999992010010617004+46800+010283FM-12+129899999V0202601N001519999999N9999999N1-00621-01121999999ADDMA1999999085121MD1210161+9999ME1313169OA149900361REMSYN076AAXX  06174 06798 33/// /2603 11062 21112 38512 48316 52016 333 91107 91204;
0156067980999992010010618004+46800+010283FM-12+129899999V0200701N000519999999N9999999N1-00811-01121999999ADDKA1120M-00301MA1999999085191MD1119999+9999ME1313239OA149900621REMSYN082AAXX  06184 06798 33/// /0701 11081 21112 38519 48323 51/// 333 11030 91112 91207;
0137067980999992010010619004+46800+010283FM-12+129899999V0202701N000519999999N9999999N1-00751-01091999999ADDMA1999999085251MD1110191+9999ME1313289OA149900311REMSYN076AAXX  06194 06798 33/// /2701 11075 21109 38525 48328 51019 333 91106 91204;
0137067980999992010010620004+46800+010283FM-12+129899999V0203001N000519999999N9999999N1-00731-01161999999ADDMA1999999085281MD1110161+9999ME1313319OA149900311REMSYN076AAXX  06204 06798 33/// /3001 11073 21116 38528 48331 51016 333 91106 91204;
0137067980999992010010621004+46800+010283FM-12+129899999V0202601N001519999999N9999999N1-00671-01171999999ADDMA1999999085301MD1210111+9999ME1313339OA149900361REMSYN076AAXX  06214 06798 33/// /2603 11067 21117 38530 48333 52011 333 91107 91204;
0137067980999992010010622004+46800+010283FM-12+129899999V0202301N001019999999N9999999N1-00851-01111999999ADDMA1999999085331MD1210081+9999ME1313359OA149900261REMSYN076AAXX  06224 06798 33/// /2302 11085 21111 38533 48335 52008 333 91105 91203;
0137067980999992010010623004+46800+010283FM-12+129899999V0202501N001019999999N9999999N1-00751-01201999999ADDMA1999999085351MD1210071+9999ME1313379OA149900261REMSYN076AAXX  06234 06798 33/// /2502 11075 21120 38535 48337 52007 333 91105 91203;
0137067980999992010010700004+46800+010283FM-12+129899999V0200101N001019999999N9999999N1-00811-01191999999ADDMA1999999085371MD1110071+9999ME1313399OA149900361REMSYN076AAXX  07004 06798 33/// /0102 11081 21119 38537 48339 51007 333 91107 91204;
0137067980999992010010701004+46800+010283FM-12+129899999V0209999C000019999999N9999999N1-00871-01211999999ADDMA1999999085381MD1310051+9999ME1313409OA149900211REMSYN076AAXX  07014 06798 33/// /0000 11087 21121 38538 48340 53005 333 91104 91202;
0137067980999992010010702004+46800+010283FM-12+129899999V0202701N001019999999N9999999N1-00941-01171999999ADDMA1999999085421MD1319999+9999ME1313449OA149900151REMSYN076AAXX  07024 06798 33/// /2702 11094 21117 38542 48344 53/// 333 91103 91202;
0137067980999992010010703004+46800+010283FM-12+129899999V0202801N001519999999N9999999N1-00861-01301999999ADDMA1999999085441MD1110071+9999ME1313459OA149900311REMSYN076AAXX  07034 06798 33/// /2803 11086 21130 38544 48345 51007 333 91106 91204;
0137067980999992010010704004+46800+010283FM-12+129899999V0203001N000519999999N9999999N1-00921-01281999999ADDMA1999999085461MD1110081+9999ME1313479OA149900311REMSYN076AAXX  07044 06798 33/// /3001 11092 21128 38546 48347 51008 333 91106 91204;
0137067980999992010010705004+46800+010283FM-12+129899999V0202501N001519999999N9999999N1-00971-01291999999ADDMA1999999085521MD1310101+9999ME1313539OA149900261REMSYN076AAXX  07054 06798 33/// /2503 11097 21129 38552 48353 53010 333 91105 91203;
0234067980999992010010706004+46800+010283FM-12+129899999V0203201N001019999999N9999999N1-00961-01201999999ADDAA124000091AL19900091GJ101749IA2999-01309KA1999N-01061MA1999999085601MD1310161+9999ME1313609OA149900311REMSYN100AAXX  07064 06798 33/// /3202 11096 21120 38560 48360 53016 333 21106 3/113 55029 70000 91106 91204;EQDQ01  00002PRCP24
0137067980999992010010707004+46800+010283FM-12+129899999V0202501N002619999999N9999999N1-00981-01261999999ADDMA1999999085661MD1210201+9999ME1313659OA149900461REMSYN076AAXX  07074 06798 33/// /2505 11098 21126 38566 48365 52020 333 91109 91205;
0137067980999992010010708004+46800+010283FM-12+129899999V0202601N003119999999N9999999N1-01031-01201999999ADDMA1999999085751MD1219999+9999ME1313739OA149900511REMSYN076AAXX  07084 06798 33/// /2606 11103 21120 38575 48373 52/// 333 91110 91206;
0137067980999992010010709004+46800+010283FM-12+129899999V0202501N003119999999N9999999N1-00991-01391999999ADDMA1999999085811MD1110211+9999ME1313799OA149900511REMSYN076AAXX  07094 06798 33/// /2506 11099 21139 38581 48379 51021 333 91110 91206;
0137067980999992010010710004+46800+010283FM-12+129899999V0202301N003119999999N9999999N1-00821-01221999999ADDMA1999999085851MD1110191+9999ME1313839OA149900511REMSYN076AAXX  07104 06798 33/// /2306 11082 21122 38585 48383 51019 333 91110 91207;
0137067980999992010010711004+46800+010283FM-12+129899999V0202201N002619999999N9999999N1-00611-01151999999ADDMA1999999085841MD1210091+9999ME1313829OA149900571REMSYN076AAXX  07114 06798 33/// /2205 11061 21115 38584 48382 52009 333 91111 91207;
0137067980999992010010712004+46800+010283FM-12+129899999V0209999C000019999999N9999999N1-00611-01151999999ADDMA1999999085781MD1810031+9999ME1313779OA149900571REMSYN076AAXX  07124 06798 33/// /0000 11061 21115 38578 48377 58003 333 91111 91207;
0137067980999992010010713004+46800+010283FM-12+129899999V0202301N001519999999N9999999N1-00541-01101999999ADDMA1999999085731MD1719999+9999ME1313739OA149900261REMSYN076AAXX  07134 06798 33/// /2303 11054 21110 38573 48373 57/// 333 91105 91203;
0096067980999992010010715004+46800+010283FM-12+129899999V0200401N000519999999N9999999N1-00521-00971999999ADDMA1999999085781ME1313779REMSYN060AAXX  07154 06798 43/// /0401 11052 21097 38578 48377 5////;
0137067980999992010010716004+46800+010283FM-12+129899999V0203301N000519999999N9999999N1-00581-00931999999ADDMA1999999085851MD1219999+9999ME1313839OA149900151REMSYN076AAXX  07164 06798 33/// /3301 11058 21093 38585 48383 52/// 333 91103 91202;
0137067980999992010010717004+46800+010283FM-12+129899999V0202701N002119999999N9999999N1-00571-00871999999ADDMA1999999085881MD1219999+9999ME1313869OA149900361REMSYN076AAXX  07174 06798 33/// /2704 11057 21087 38588 48386 52/// 333 91107 91204;
0156067980999992010010718004+46800+010283FM-12+129899999V0202701N001019999999N9999999N1-00621-00881999999ADDKA1120M-00451MA1999999085911MD1219999+9999ME1313899OA149900571REMSYN082AAXX  07184 06798 33/// /2702 11062 21088 38591 48389 52/// 333 11045 91111 91207;
0137067980999992010010719004+46800+010283FM-12+129899999V0202701N000519999999N9999999N1-00581-00941999999ADDMA1999999085951MD1210101+9999ME1313929OA149900311REMSYN076AAXX  07194 06798 33/// /2701 11058 21094 38595 48392 52010 333 91106 91203;
0137067980999992010010720004+46800+010283FM-12+129899999V0202601N001519999999N9999999N1-00601-00961999999ADDMA1999999085941MD1210061+9999ME1313929OA149900311REMSYN076AAXX  07204 06798 33/// /2603 11060 21096 38594 48392 52006 333 91106 91203;
0137067980999992010010721004+46800+010283FM-12+129899999V0202201N000519999999N9999999N1-00781-00861999999ADDMA1999999085961MD1210051+9999ME1313939OA149900361REMSYN076AAXX  07214 06798 33/// /2201 11078 21086 38596 48393 52005 333 91107 91204;
0137067980999992010010722004+46800+010283FM-12+129899999V0203001N002119999999N9999999N1-00671-00961999999ADDMA1999999085991MD1310041+9999ME1313969OA149900511REMSYN076AAXX  07224 06798 33/// /3004 11067 21096 38599 48396 53004 333 91110 91204;
0137067980999992010010723004+46800+010283FM-12+129899999V0202901N001019999999N9999999N1-00741-00921999999ADDMA1999999085971MD1010031+9999ME1313949OA149900511REMSYN076AAXX  07234 06798 33/// /2902 11074 21092 38597 48394 50003 333 91110 91204;
0137067980999992010010800004+46800+010283FM-12+129899999V0202201N000519999999N9999999N1-00781-00901999999ADDMA1999999085901MD1810061+9999ME1313879OA149900511REMSYN076AAXX  08004 06798 33/// /2201 11078 21090 38590 48387 58006 333 91110 91204;
0137067980999992010010801004+46800+010283FM-12+129899999V0202501N001519999999N9999999N1-00691-00881999999ADDMA1999999085841MD1610151+9999ME1313829OA149900261REMSYN076AAXX  08014 06798 33/// /2503 11069 21088 38584 48382 56015 333 91105 91203;
0137067980999992010010802004+46800+010283FM-12+129899999V0201801N000519999999N9999999N1-00711-00761999999ADDMA1999999085831MD1719999+9999ME1313819OA149900411REMSYN076AAXX  08024 06798 33/// /1801 11071 21076 38583 48381 57/// 333 91108 91205;
0154067980999992010010803004+46800+010283FM-12+129899999V0202301N000519999999N9999999N1-00751-00771999999ADDAA101000591MA1999999085791MD1719999+9999ME1313779OA149900511REMSYN082AAXX  08034 06798 23/// /2301 11075 21077 38579 48377 57/// 333 69945 91110 91205;
0154067980999992010010804004+46800+010283FM-12+129899999V0209999C000019999999N9999999N1-00661-00731999999ADDAA101000391MA1999999085741MD1710101+9999ME1313739OA149900151REMSYN082AAXX  08044 06798 23/// /0000 11066 21073 38574 48373 57010 333 69935 91103 91201;
0154067980999992010010805004+46800+010283FM-12+129899999V0209999C000019999999N9999999N1-00651-00801999999ADDAA101000591MA1999999085721MD1710111+9999ME1313719OA149900101REMSYN082AAXX  08054 06798 23/// /0000 11065 21080 38572 48371 57011 333 69965 91102 91201;
0238067980999992010010806004+46800+010283FM-12+129899999V0209999C000019999999N9999999N1-00681-00801999999ADDAA112002092AA224001892AL14200191GJ101929IA2999-00809KA1999N-00791MA1999999085701MD1710091+9999ME1313699OA149900511REMSYN112AAXX  08064 06798 03/// /0000 11068 21080 38570 48369 57009 60022 333 21079 3/108 55032 69965 70017 91110 91205;
0154067980999992010010807004+46800+010283FM-12+129899999V0202401N000519999999N9999999N1-00671-00721999999ADDAA101000591MA1999999085691MD1710051+9999ME1313699OA149900051REMSYN082AAXX  08074 06798 23/// /2401 11067 21072 38569 48369 57005 333 69945 91101 91201;
0154067980999992010010808004+46800+010283FM-12+129899999V0209999C000019999999N9999999N1-00631-00681999999ADDAA101000891MA1999999085661MD1610061+9999ME1313669OA149900101REMSYN082AAXX  08084 06798 23/// /0000 11063 21068 38566 48366 56006 333 69975 91102 91201;
0154067980999992010010809004+46800+010283FM-12+129899999V0209999C000019999999N9999999N1-00581-00721999999ADDAA101000591MA1999999085611MD1810091+9999ME1313619OA149900101REMSYN082AAXX  08094 06798 23/// /0000 11058 21072 38561 48361 58009 333 69945 91102 91201;
0154067980999992010010810004+46800+010283FM-12+129899999V0209999C000019999999N9999999N1-00521-00691999999ADDAA101000021MA1999999085561MD1610131+9999ME1313579OA149900101REMSYN082AAXX  08104 06798 23/// /0000 11052 21069 38556 48357 56013 333 69915 91102 91201;
0137067980999992010010811004+46800+010283FM-12+129899999V0203501N000519999999N9999999N1-00441-00641999999ADDMA1999999085461MD1810201+9999ME1313489OA149900101REMSYN076AAXX  08114 06798 33/// /3501 11044 21064 38546 48348 58020 333 91102 91201;
0160067980999992010010812004+46800+010283FM-12+129899999V0200701N001019999999N9999999N1-00481-00681999999ADDAA106002091MA1999999085351MD1810261+9999ME1313389OA149900411REMSYN088AAXX  08124 06798 03/// /0702 11048 21068 38535 48338 58026 60021 333 60005 91108 91205;
0137067980999992010010813004+46800+010283FM-12+129899999V0203301N000519999999N9999999N1-00511-00701999999ADDMA1999999085281MD1610281+9999ME1313319OA149900151REMSYN076AAXX  08134 06798 33/// /3301 11051 21070 38528 48331 56028 333 91103 91202;
0143067980999992010010814004+46800+010283FM-12+129899999V0200501N000519999999N9999999N1-00441-00711999999ADDMA1999999085231MD1619999+9999ME1313279OA149900101REMSYN082AAXX  08144 06798 33/// /0501 11044 21071 38523 48327 56/// 91340 333 91102 91202;
0137067980999992010010815004+46800+010283FM-12+129899999V0202401N000519999999N9999999N1-00421-00661999999ADDMA1999999085221MD1610131+9999ME1313269OA149900151REMSYN076AAXX  08154 06798 33/// /2401 11042 21066 38522 48326 56013 333 91103 91202;
0137067980999992010010816004+46800+010283FM-12+129899999V0209999C000019999999N9999999N1-00401-00621999999ADDMA1999999085241MD1510041+9999ME1313289OA149900101REMSYN076AAXX  08164 06798 33/// /0000 11040 21062 38524 48328 55004 333 91102 91202;
0137067980999992010010817004+46800+010283FM-12+129899999V0200401N000519999999N9999999N1-00431-00621999999ADDMA1999999085221MD1710011+9999ME1313269OA149900101REMSYN076AAXX  08174 06798 33/// /0401 11043 21062 38522 48326 57001 333 91102 91201;
0179067980999992010010818004+46800+010283FM-12+129899999V0201301N000519999999N9999999N1-00511-00601999999ADDAA112002091KA1120M-00381MA1999999085241MD1210021+9999ME1313289OA149900151REMSYN094AAXX  08184 06798 03/// /1301 11051 21060 38524 48328 52002 60022 333 11038 60005 91103 91202;
0137067980999992010010819004+46800+010283FM-12+129899999V0209999C000019999999N9999999N1-00511-00601999999ADDMA1999999085251MD1310011+9999ME1313299OA149900151REMSYN076AAXX  08194 06798 33/// /0000 11051 21060 38525 48329 53001 333 91103 91202;
0154067980999992010010820004+46800+010283FM-12+129899999V0200901N000519999999N9999999N1-00541-00641999999ADDAA101000021MA1999999085251MD1210031+9999ME1313289OA149900151REMSYN082AAXX  08204 06798 23/// /0901 11054 21064 38525 48328 52003 333 69925 91103 91201;
0154067980999992010010821004+46800+010283FM-12+129899999V0200901N000519999999N9999999N1-00571-00671999999ADDAA101000021MA1999999085241MD1410001+9999ME1313289OA149900151REMSYN082AAXX  08214 06798 23/// /0901 11057 21067 38524 48328 54000 333 69915 91103 91202;
0154067980999992010010822004+46800+010283FM-12+129899999V0200801N000519999999N9999999N1-00581-00671999999ADDAA101000021MA1999999085251MD1410001+9999ME1313289OA149900101REMSYN082AAXX  08224 06798 23/// /0801 11058 21067 38525 48328 54000 333 69915 91102 91202;
0137067980999992010010823004+46800+010283FM-12+129899999V0200701N001019999999N9999999N1-00581-00671999999ADDMA1999999085301MD1310051+9999ME1313339OA149900151REMSYN076AAXX  08234 06798 33/// /0702 11058 21067 38530 48333 53005 333 91103 91202;
0160067980999992010010900004+46800+010283FM-12+129899999V0200901N001019999999N9999999N1-00621-00711999999ADDAA106000591MA1999999085291MD1210051+9999ME1313329OA149900211REMSYN088AAXX  09004 06798 03/// /0902 11062 21071 38529 48332 52005 69941 333 60005 91104 91202;
0137067980999992010010901004+46800+010283FM-12+129899999V0200801N001019999999N9999999N1-00621-00721999999ADDMA1999999085311MD1210061+9999ME1313349OA149900211REMSYN076AAXX  09014 06798 33/// /0802 11062 21072 38531 48334 52006 333 91104 91202;
0137067980999992010010902004+46800+010283FM-12+129899999V0202601N000519999999N9999999N1-00631-00771999999ADDMA1999999085331MD1319999+9999ME1313369OA149900211REMSYN076AAXX  09024 06798 33/// /2601 11063 21077 38533 48336 53/// 333 91104 91203;
0137067980999992010010903004+46800+010283FM-12+129899999V0209999C000019999999N9999999N1-00641-00781999999ADDMA1999999085331MD1219999+9999ME1313369OA149900211REMSYN076AAXX  09034 06798 33/// /0000 11064 21078 38533 48336 52/// 333 91104 91203;
0137067980999992010010904004+46800+010283FM-12+129899999V0202601N001019999999N9999999N1-00681-00741999999ADDMA1999999085321MD1210011+9999ME1313359OA149900151REMSYN076AAXX  09044 06798 33/// /2602 11068 21074 38532 48335 52001 333 91103 91202;
0137067980999992010010905004+46800+010283FM-12+129899999V0200301N000519999999N9999999N1-00781-00881999999ADDMA1999999085251MD1810081+9999ME1313289OA149900151REMSYN076AAXX  09054 06798 33/// /0301 11078 21088 38525 48328 58008 333 91103 91202;
0238067980999992010010906004+46800+010283FM-12+129899999V0200101N001019999999N9999999N1-00721-00841999999ADDAA112000591AA224002391AL11200291GJ100429IA2999-00909KA1999N-00781MA1999999085221MD1710111+9999ME1313269OA149900211REMSYN112AAXX  09064 06798 03/// /0102 11072 21084 38522 48326 57011 69942 333 21078 3/109 55007 60005 70022 91104 91203;
0137067980999992010010907004+46800+010283FM-12+129899999V0200101N001019999999N9999999N1-00741-00831999999ADDMA1999999085191MD1710131+9999ME1313239OA149900211REMSYN076AAXX  09074 06798 33/// /0102 11074 21083 38519 48323 57013 333 91104 91202;
0137067980999992010010908004+46800+010283FM-12+129899999V0200501N000519999999N9999999N1-00731-00761999999ADDMA1999999085241MD1310011+9999ME1313279OA149900211REMSYN076AAXX  09084 06798 33/// /0501 11073 21076 38524 48327 53001 333 91104 91203;
0137067980999992010010909004+46800+010283FM-12+129899999V0200901N000519999999N9999999N1-00711-00821999999ADDMA1999999085191MD1819999+9999ME1313239OA149900211REMSYN076AAXX  09094 06798 33/// /0901 11071 21082 38519 48323 58/// 333 91104 91203;
0137067980999992010010910004+46800+010283FM-12+129899999V0201301N000519999999N9999999N1-00671-00801999999ADDMA1999999085201MD1010011+9999ME1313249OA149900261REMSYN076AAXX  09104 06798 33/// /1301 11067 21080 38520 48324 50001 333 91105 91203;
0137067980999992010010911004+46800+010283FM-12+129899999V0201101N000519999999N9999999N1-00651-00811999999ADDMA1999999085111MD1710131+9999ME1313169OA149900261REMSYN076AAXX  09114 06798 33/// /1101 11065 21081 38511 48316 57013 333 91105 91203;
0137067980999992010010912004+46800+010283FM-12+129899999V0201001N001019999999N9999999N1-00581-00781999999ADDMA1999999085021MD1719999+9999ME1313079OA149900261REMSYN076AAXX  09124 06798 33/// /1002 11058 21078 38502 48307 57/// 333 91105 91203;
0137067980999992010010913004+46800+010283FM-12+129899999V0201101N001019999999N9999999N1-00571-00801999999ADDMA1999999084981MD1710221+9999ME1313049OA149900261REMSYN076AAXX  09134 06798 33/// /1102 11057 21080 38498 48304 57022 333 91105 91203;
0137067980999992010010914004+46800+010283FM-12+129899999V0201001N000519999999N9999999N1-00581-00741999999ADDMA1999999085001MD1510111+9999ME1313059OA149900151REMSYN076AAXX  09144 06798 33/// /1001 11058 21074 38500 48305 55011 333 91103 91202;
0154067980999992010010915004+46800+010283FM-12+129899999V0201201N001019999999N9999999N1-00591-00711999999ADDAA101000591MA1999999085011MD1310011+9999ME1313069OA149900261REMSYN082AAXX  09154 06798 23/// /1202 11059 21071 38501 48306 53001 333 69955 91105 91203;
0154067980999992010010916004+46800+010283FM-12+129899999V0200501N001019999999N9999999N1-00591-00741999999ADDAA101000591MA1999999085051MD1210071+9999ME1313109OA149900211REMSYN082AAXX  09164 06798 23/// /0502 11059 21074 38505 48310 52007 333 69965 91104 91203;
0137067980999992010010917004+46800+010283FM-12+129899999V0200401N001019999999N9999999N1-00651-00791999999ADDMA1999999085081MD1210081+9999ME1313139OA149900261REMSYN076AAXX  09174 06798 33/// /0402 11065 21079 38508 48313 52008 333 91105 91203;
0179067980999992010010918004+46800+010283FM-12+129899999V0209999C000019999999N9999999N1-00641-00801999999ADDAA112001091KA1120M-00561MA1999999085151MD1210141+9999ME1313199OA149900261REMSYN094AAXX  09184 06798 03/// /0000 11064 21080 38515 48319 52014 60012 333 11056 60005 91105 91203;
0137067980999992010010919004+46800+010283FM-12+129899999V0200401N001519999999N9999999N1-00721-00911999999ADDMA1999999085181MD1210131+9999ME1313229OA149900211REMSYN076AAXX  09194 06798 33/// /0403 11072 21091 38518 48322 52013 333 91104 91203;
0137067980999992010010920004+46800+010283FM-12+129899999V0203601N000519999999N9999999N1-00681-00861999999ADDMA1999999085221MD1210141+9999ME1313269OA149900211REMSYN076AAXX  09204 06798 33/// /3601 11068 21086 38522 48326 52014 333 91104 91203;
0137067980999992010010921004+46800+010283FM-12+129899999V0203501N000519999999N9999999N1-00691-00781999999ADDMA1999999085271MD1210121+9999ME1313309OA149900261REMSYN076AAXX  09214 06798 33/// /3501 11069 21078 38527 48330 52012 333 91105 91203;
0137067980999992010010922004+46800+010283FM-12+129899999V0200901N000519999999N9999999N1-00761-00971999999ADDMA1999999085271MD1210091+9999ME1313309OA149900151REMSYN076AAXX  09224 06798 33/// /0901 11076 21097 38527 48330 52009 333 91103 91202;
0137067980999992010010923004+46800+010283FM-12+129899999V0209999C000019999999N9999999N1-00771-00831999999ADDMA1999999085311MD1210091+9999ME1313349OA149900151REMSYN076AAXX  09234 06798 33/// /0000 11077 21083 38531 48334 52009 333 91103 91202;
0137067980999992010011000004+46800+010283FM-12+129899999V0200301N001019999999N9999999N1-00771-00811999999ADDMA1999999085341MD1210071+9999ME1313369OA149900261REMSYN076AAXX  10004 06798 33/// /0302 11077 21081 38534 48336 52007 333 91105 91203;
0137067980999992010011001004+46800+010283FM-12+129899999V0209999C000019999999N9999999N1-00801-00911999999ADDMA1999999085381MD1310111+9999ME1313409OA149900101REMSYN076AAXX  10014 06798 33/// /0000 11080 21091 38538 48340 53011 333 91102 91202;
0096067980999992010011002004+46800+010283FM-12+129899999V0202901N000519999999N9999999N1-00811-00851999999ADDMA1999999085411ME1313439REMSYN060AAXX  10024 06798 33/// /2901 11081 21085 38541 48343 5////;
0096067980999992010011003004+46800+010283FM-12+129899999V0209999C000019999999N9999999N1-00881-00971999999ADDMA1999999085421ME1313449REMSYN060AAXX  10034 06798 43/// /0000 11088 21097 38542 48344 5////;
0137067980999992010011004004+46800+010283FM-12+129899999V0202801N000519999999N9999999N1-00951-01231999999ADDMA1999999085471MD1310091+9999ME1313489OA149900151REMSYN076AAXX  10044 06798 33/// /2801 11095 21123 38547 48348 53009 333 91103 91201;
0137067980999992010011005004+46800+010283FM-12+129899999V0209999C000019999999N9999999N1-01001-01071999999ADDMA1999999085521MD1310111+9999ME1313529OA149900151REMSYN076AAXX  10054 06798 33/// /0000 11100 21107 38552 48352 53011 333 91103 91201;
0215067980999992010011006004+46800+010283FM-12+129899999V0209999C000019999999N9999999N1-00951-01021999999ADDAA124001091AL10600191GJ100009IA2999-01309KA1999N-01061MA1999999085591MD1310171+9999ME1313599OA149900211REMSYN100AAXX  10064 06798 33/// /0000 11095 21102 38559 48359 53017 333 21106 3/113 55000 70011 91104 91203;
0137067980999992010011007004+46800+010283FM-12+129899999V0209999C000019999999N9999999N1-00951-00971999999ADDMA1999999085671MD1310201+9999ME1313669OA149900101REMSYN076AAXX  10074 06798 33/// /0000 11095 21097 38567 48366 53020 333 91102 91202;
0137067980999992010011008004+46800+010283FM-12+129899999V0209999C000019999999N9999999N1-00921-00991999999ADDMA1999999085701MD1119999+9999ME1313699OA149900151REMSYN076AAXX  10084 06798 33/// /0000 11092 21099 38570 48369 51/// 333 91103 91202;
0137067980999992010011009004+46800+010283FM-12+129899999V0201001N000519999999N9999999N1-00831-00901999999ADDMA1999999085741MD1110151+9999ME1313739OA149900151REMSYN076AAXX  10094 06798 33/// /1001 11083 21090 38574 48373 51015 333 91103 91202;
0137067980999992010011010004+46800+010283FM-12+129899999V0209999C000019999999N9999999N1-00771-00891999999ADDMA1999999085761MD1210091+9999ME1313759OA149900101REMSYN076AAXX  10104 06798 33/// /0000 11077 21089 38576 48375 52009 333 91102 91201;
0137067980999992010011011004+46800+010283FM-12+129899999V0209999C000019999999N9999999N1-00611-00871999999ADDMA1999999085761MD1010061+9999ME1313759OA149900101REMSYN076AAXX  10114 06798 33/// /0000 11061 21087 38576 48375 50006 333 91102 91201;
0156067980999992010011012004+46800+010283FM-12+129899999V0200201N000519999999N9999999N1-00431-00771999999ADDMA1999999085741MD1410001+9999ME1313749OA149900151REMSYN076AAXX  10124 06798 33/// /0201 11043 21077 38574 48374 58000 333 91103 91202;EQDQ01+000082APCTEN
0137067980999992010011013004+46800+010283FM-12+129899999V0200701N000519999999N9999999N1-00411-00731999999ADDMA1999999085721MD1710041+9999ME1313729OA149900151REMSYN076AAXX  10134 06798 33/// /0701 11041 21073 38572 48372 57004 333 91103 91201;
0137067980999992010011014004+46800+010283FM-12+129899999V0201001N001019999999N9999999N1-00471-00741999999ADDMA1999999085791MD1319999+9999ME1313789OA149900261REMSYN076AAXX  10144 06798 33/// /1002 11047 21074 38579 48378 53/// 333 91105 91203;
0137067980999992010011015004+46800+010283FM-12+129899999V0202601N000519999999N9999999N1-00521-00791999999ADDMA1999999085871MD1210131+9999ME1313859OA149900261REMSYN076AAXX  10154 06798 33/// /2601 11052 21079 38587 48385 52013 333 91105 91203;
0137067980999992010011016004+46800+010283FM-12+129899999V0209999C000019999999N9999999N1-00571-00821999999ADDMA1999999085941MD1110221+9999ME1313929OA149900151REMSYN076AAXX  10164 06798 33/// /0000 11057 21082 38594 48392 51022 333 91103 91202;
0137067980999992010011017004+46800+010283FM-12+129899999V0200401N001519999999N9999999N1-00561-00771999999ADDMA1999999085991MD1110201+9999ME1313969OA149900311REMSYN076AAXX  10174 06798 33/// /0403 11056 21077 38599 48396 51020 333 91106 91204;
0156067980999992010011018004+46800+010283FM-12+129899999V0209999C000019999999N9999999N1-00591-00761999999ADDKA1120M-00411MA1999999086071MD1210201+9999ME1314039OA149900311REMSYN082AAXX  10184 06798 33/// /0000 11059 21076 38607 48403 52020 333 11041 91106 91204;
0137067980999992010011019004+46800+010283FM-12+129899999V0209999C000019999999N9999999N1-00591-00781999999ADDMA1999999086111MD1110171+9999ME1314079OA149900211REMSYN076AAXX  10194 06798 33/// /0000 11059 21078 38611 48407 51017 333 91104 91203;
0137067980999992010011020004+46800+010283FM-12+129899999V0209999C000019999999N9999999N1-00591-00801999999ADDMA1999999086121MD1110131+9999ME1314089OA149900101REMSYN076AAXX  10204 06798 33/// /0000 11059 21080 38612 48408 51013 333 91102 91201;
0137067980999992010011021004+46800+010283FM-12+129899999V0200501N000519999999N9999999N1-00611-00761999999ADDMA1999999086161MD1310091+9999ME1314119OA149900311REMSYN076AAXX  10214 06798 33/// /0501 11061 21076 38616 48411 53009 333 91106 91204;
0137067980999992010011022004+46800+010283FM-12+129899999V0200801N000519999999N9999999N1-00701-00881999999ADDMA1999999086181MD1210071+9999ME1314139OA149900101REMSYN076AAXX  10224 06798 33/// /0801 11070 21088 38618 48413 52007 333 91102 91202;
0137067980999992010011023004+46800+010283FM-12+129899999V0202901N001019999999N9999999N1-00731-00911999999ADDMA1999999086211MD1210091+9999ME1314159OA149900151REMSYN076AAXX  10234 06798 33/// /2902 11073 21091 38621 48415 52009 333 91103 91202;
0137067980999992010011100004+46800+010283FM-12+129899999V0202701N001519999999N9999999N1-00791-00951999999ADDMA1999999086221MD1210061+9999ME1314169OA149900311REMSYN076AAXX  11004 06798 33/// /2703 11079 21095 38622 48416 52006 333 91106 91204;
0137067980999992010011101004+46800+010283FM-12+129899999V0202601N001519999999N9999999N1-00911-01051999999ADDMA1999999086221MD1110041+9999ME1314169OA149900311REMSYN076AAXX  11014 06798 33/// /2603 11091 21105 38622 48416 51004 333 91106 91204;
0137067980999992010011102004+46800+010283FM-12+129899999V0202601N001519999999N9999999N1-01001-01101999999ADDMA1999999086231MD1119999+9999ME1314169OA149900311REMSYN076AAXX  11024 06798 33/// /2603 11100 21110 38623 48416 51/// 333 91106 91204;
0137067980999992010011103004+46800+010283FM-12+129899999V0202601N001519999999N9999999N1-01041-01161999999ADDMA1999999086211MD1819999+9999ME1314149OA149900311REMSYN076AAXX  11034 06798 33/// /2603 11104 21116 38621 48414 58/// 333 91106 91204;
0137067980999992010011104004+46800+010283FM-12+129899999V0202601N001519999999N9999999N1-01001-01401999999ADDMA1999999086221MD1010001+9999ME1314159OA149900311REMSYN076AAXX  11044 06798 33/// /2603 11100 21140 38622 48415 50000 333 91106 91204;
0137067980999992010011105004+46800+010283FM-12+129899999V0202301N001519999999N9999999N1-01101-01201999999ADDMA1999999086201MD1710031+9999ME1314139OA149900361REMSYN076AAXX  11054 06798 33/// /2303 11110 21120 38620 48413 57003 333 91107 91204;
0234067980999992010011106004+46800+010283FM-12+129899999V0202601N003119999999N9999999N1-00981-01221999999ADDAA124000091AL19900091GJ101569IA2999-01409KA1999N-01101MA1999999086181MD1810031+9999ME1314129OA149900571REMSYN100AAXX  11064 06798 33/// /2606 11098 21122 38618 48412 58003 333 21110 3/114 55026 70000 91111 91206;EQDQ01  00002PRCP24
0137067980999992010011107004+46800+010283FM-12+129899999V0202501N003119999999N9999999N1-00881-01191999999ADDMA1999999086201MD1510021+9999ME1314149OA149900571REMSYN076AAXX  11074 06798 33/// /2506 11088 21119 38620 48414 55002 333 91111 91206;
0137067980999992010011108004+46800+010283FM-12+129899999V0202601N000519999999N9999999N1-00881-01291999999ADDMA1999999086201MD1319999+9999ME1314149OA149900571REMSYN076AAXX  11084 06798 33/// /2601 11088 21129 38620 48414 53/// 333 91111 91206;
0137067980999992010011109004+46800+010283FM-12+129899999V0209999C000019999999N9999999N1-00841-01281999999ADDMA1999999086211MD1210031+9999ME1314159OA149900571REMSYN076AAXX  11094 06798 33/// /0000 11084 21128 38621 48415 52003 333 91111 91206;
0137067980999992010011110004+46800+010283FM-12+129899999V0200601N000519999999N9999999N1-00701-01181999999ADDMA1999999086201MD1410001+9999ME1314159OA149900361REMSYN076AAXX  11104 06798 33/// /0601 11070 21118 38620 48415 54/// 333 91107 91203;
0137067980999992010011111004+46800+010283FM-12+129899999V0209999C000019999999N9999999N1-00641-01071999999ADDMA1999999086171MD1810031+9999ME1314129OA149900211REMSYN076AAXX  11114 06798 33/// /0000 11064 21107 38617 48412 58003 333 91104 91203;
0137067980999992010011112004+46800+010283FM-12+129899999V0201001N000519999999N9999999N1-00541-01001999999ADDMA1999999086111MD1810101+9999ME1314079OA149900571REMSYN076AAXX  11124 06798 33/// /1001 11054 21100 38611 48407 58010 333 91111 91206;
0137067980999992010011113004+46800+010283FM-12+129899999V0201101N000519999999N9999999N1-00491-00961999999ADDMA1999999086051MD1810151+9999ME1314029OA149900151REMSYN076AAXX  11134 06798 33/// /1101 11049 21096 38605 48402 58015 333 91103 91202;
0096067980999992010011114004+46800+010283FM-12+129899999V0209999C000019999999N9999999N1-00391-00991999999ADDMA1999999086071ME1314049REMSYN060AAXX  11144 06798 33/// /0000 11039 21099 38607 48404 5////;
0137067980999992010011115004+46800+010283FM-12+129899999V0202501N001019999999N9999999N1-00361-00851999999ADDMA1999999086081MD1510031+9999ME1314059OA149900211REMSYN076AAXX  11154 06798 33/// /2502 11036 21085 38608 48405 55003 333 91104 91203;
0137067980999992010011116004+46800+010283FM-12+129899999V0209999C000019999999N9999999N1-00471-00861999999ADDMA1999999086101MD1110051+9999ME1314079OA149900151REMSYN076AAXX  11164 06798 33/// /0000 11047 21086 38610 48407 51005 333 91103 91202;
0137067980999992010011117004+46800+010283FM-12+129899999V0202601N001019999999N9999999N1-00471-00821999999ADDMA1999999086151MD1310081+9999ME1314119OA149900211REMSYN076AAXX  11174 06798 33/// /2602 11047 21082 38615 48411 53008 333 91104 91202;
0156067980999992010011118004+46800+010283FM-12+129899999V0202701N001019999999N9999999N1-00451-00781999999ADDKA1120M-00361MA1999999086201MD1310121+9999ME1314169OA149900571REMSYN082AAXX  11184 06798 33/// /2702 11045 21078 38620 48416 53012 333 11036 91111 91206;
0137067980999992010011119004+46800+010283FM-12+129899999V0202601N001019999999N9999999N1-00481-00761999999ADDMA1999999086241MD1210141+9999ME1314199OA149900261REMSYN076AAXX  11194 06798 33/// /2602 11048 21076 38624 48419 52014 333 91105 91203;
0137067980999992010011120004+46800+010283FM-12+129899999V0200101N001019999999N9999999N1-00521-00781999999ADDMA1999999086261MD1110111+9999ME1314219OA149900211REMSYN076AAXX  11204 06798 33/// /0102 11052 21078 38626 48421 51011 333 91104 91203;
0137067980999992010011121004+46800+010283FM-12+129899999V0202701N000519999999N9999999N1-00581-00791999999ADDMA1999999086281MD1310081+9999ME1314229OA149900261REMSYN076AAXX  11214 06798 33/// /2701 11058 21079 38628 48422 53008 333 91105 91203;
0137067980999992010011122004+46800+010283FM-12+129899999V0209999C000019999999N9999999N1-00591-00811999999ADDMA1999999086321MD1110081+9999ME1314269OA149900151REMSYN076AAXX  11224 06798 33/// /0000 11059 21081 38632 48426 51008 333 91103 91202;
0137067980999992010011123004+46800+010283FM-12+129899999V0200601N000519999999N9999999N1-00631-00821999999ADDMA1999999086341MD1110081+9999ME1314289OA149900151REMSYN076AAXX  11234 06798 33/// /0601 11063 21082 38634 48428 51008 333 91103 91202;
0137067980999992010011200004+46800+010283FM-12+129899999V0200701N000519999999N9999999N1-00661-00801999999ADDMA1999999086371MD1110091+9999ME1314309OA149900261REMSYN076AAXX  12004 06798 33/// /0701 11066 21080 38637 48430 51009 333 91105 91203;
0137067980999992010011201004+46800+010283FM-12+129899999V0202701N000519999999N9999999N1-00661-00741999999ADDMA1999999086371MD1210051+9999ME1314309OA149900151REMSYN076AAXX  12014 06798 33/// /2701 11066 21074 38637 48430 52005 333 91103 91202;
0137067980999992010011202004+46800+010283FM-12+129899999V0202701N000519999999N9999999N1-00641-00821999999ADDMA1999999086371MD1219999+9999ME1314309OA149900151REMSYN076AAXX  12024 06798 33/// /2701 11064 21082 38637 48430 52/// 333 91103 91202;
0137067980999992010011203004+46800+010283FM-12+129899999V0203101N000519999999N9999999N1-00601-00781999999ADDMA1999999086371MD1510001+9999ME1314319OA149900211REMSYN076AAXX  12034 06798 33/// /3101 11060 21078 38637 48431 55000 333 91104 91203;
0154067980999992010011204004+46800+010283FM-12+129899999V0209999C000019999999N9999999N1-00631-00771999999ADDAA101000021MA1999999086381MD1310011+9999ME1314319OA149900211REMSYN082AAXX  12044 06798 23/// /0000 11063 21077 38638 48431 53001 333 69915 91104 91203;
0137067980999992010011205004+46800+010283FM-12+129899999V0209999C000019999999N9999999N1-00631-00811999999ADDMA1999999086391MD1210021+9999ME1314329OA149900151REMSYN076AAXX  12054 06798 33/// /0000 11063 21081 38639 48432 52002 333 91103 91202;
0273067980999992010011206004+46800+010283FM-12+129899999V0202601N001519999999N9999999N1-00711-00821999999ADDAA112000091AA224000091AL10600091GJ100189IA2999-01009KA1999N-00731MA1999999086401MD1210031+9999ME1314339OA149900211REMSYN112AAXX  12064 06798 03/// /2603 11071 21082 38640 48433 52003 69912 333 21073 3/110 55003 60005 70001 91104 91203;EQDQ01  00002PRCP24Q02  00002PRCP12
0137067980999992010011207004+46800+010283FM-12+129899999V0202901N001019999999N9999999N1-00641-00811999999ADDMA1999999086411MD1310031+9999ME1314349OA149900261REMSYN076AAXX  12074 06798 33/// /2902 11064 21081 38641 48434 53003 333 91105 91203;
0137067980999992010011208004+46800+010283FM-12+129899999V0203101N000519999999N9999999N1-00681-00891999999ADDMA1999999086401MD1219999+9999ME1314339OA149900261REMSYN076AAXX  12084 06798 33/// /3101 11068 21089 38640 48433 52/// 333 91105 91203;
0137067980999992010011209004+46800+010283FM-12+129899999V0202601N001019999999N9999999N1-00541-00751999999ADDMA1999999086391MD1810011+9999ME1314339OA149900261REMSYN076AAXX  12094 06798 33/// /2602 11054 21075 38639 48433 58001 333 91105 91203;
0137067980999992010011210004+46800+010283FM-12+129899999V0200601N000519999999N9999999N1-00501-00791999999ADDMA1999999086351MD1710061+9999ME1314299OA149900211REMSYN076AAXX  12104 06798 33/// /0601 11050 21079 38635 48429 57006 333 91104 91202;
0137067980999992010011211004+46800+010283FM-12+129899999V0200901N000519999999N9999999N1-00361-00781999999ADDMA1999999086281MD1710121+9999ME1314239OA149900151REMSYN076AAXX  12114 06798 33/// /0901 11036 21078 38628 48423 57012 333 91103 91202;
0137067980999992010011212004+46800+010283FM-12+129899999V0200801N000519999999N9999999N1-00281-00791999999ADDMA1999999086201MD1810191+9999ME1314169OA149900261REMSYN076AAXX  12124 06798 33/// /0801 11028 21079 38620 48416 58019 333 91105 91203;
0137067980999992010011213004+46800+010283FM-12+129899999V0201301N000519999999N9999999N1-00301-00681999999ADDMA1999999086141MD1710211+9999ME1314119OA149900151REMSYN076AAXX  12134 06798 33/// /1301 11030 21068 38614 48411 57021 333 91103 91202;
0096067980999992010011214004+46800+010283FM-12+129899999V0209999C000019999999N9999999N1-00261-00671999999ADDMA1999999086121ME1314099REMSYN060AAXX  12144 06798 33/// /0000 11026 21067 38612 48409 5////;
0137067980999992010011215004+46800+010283FM-12+129899999V0202501N001019999999N9999999N1-00331-00581999999ADDMA1999999086141MD1510061+9999ME1314119OA149900211REMSYN076AAXX  12154 06798 33/// /2502 11033 21058 38614 48411 55006 333 91104 91203;
0137067980999992010011216004+46800+010283FM-12+129899999V0202601N001019999999N9999999N1-00371-00581999999ADDMA1999999086121MD1710021+9999ME1314099OA149900211REMSYN076AAXX  12164 06798 33/// /2602 11037 21058 38612 48409 57002 333 91104 91203;
0137067980999992010011217004+46800+010283FM-12+129899999V0202701N001019999999N9999999N1-00491-00631999999ADDMA1999999086091MD1810031+9999ME1314069OA149900311REMSYN076AAXX  12174 06798 33/// /2702 11049 21063 38609 48406 58003 333 91106 91203;
0156067980999992010011218004+46800+010283FM-12+129899999V0202601N002619999999N9999999N1-00371-00651999999ADDKA1120M-00211MA1999999086091MD1710051+9999ME1314069OA149900361REMSYN082AAXX  12184 06798 33/// /2605 11037 21065 38609 48406 57005 333 11021 91107 91205;
0137067980999992010011219004+46800+010283FM-12+129899999V0202601N002619999999N9999999N1-00371-00701999999ADDMA1999999086091MD1510031+9999ME1314069OA149900461REMSYN076AAXX  12194 06798 33/// /2605 11037 21070 38609 48406 55003 333 91109 91205;
0137067980999992010011220004+46800+010283FM-12+129899999V0202701N001519999999N9999999N1-00471-00691999999ADDMA1999999086121MD1210031+9999ME1314089OA149900461REMSYN076AAXX  12204 06798 33/// /2703 11047 21069 38612 48408 52003 333 91109 91206;
0137067980999992010011221004+46800+010283FM-12+129899999V0202401N001519999999N9999999N1-00551-00711999999ADDMA1999999086121MD1210031+9999ME1314089OA149900461REMSYN076AAXX  12214 06798 33/// /2403 11055 21071 38612 48408 52003 333 91109 91206;
0137067980999992010011222004+46800+010283FM-12+129899999V0202901N001519999999N9999999N1-00631-00991999999ADDMA1999999086081MD1810011+9999ME1314049OA149900311REMSYN076AAXX  12224 06798 33/// /2903 11063 21099 38608 48404 58001 333 91106 91203;
0137067980999992010011223004+46800+010283FM-12+129899999V0202601N002619999999N9999999N1-00541-00831999999ADDMA1999999086041MD1710081+9999ME1314019OA149900411REMSYN076AAXX  12234 06798 33/// /2605 11054 21083 38604 48401 57008 333 91108 91205;
0137067980999992010011300004+46800+010283FM-12+129899999V0203501N001519999999N9999999N1-00591-00861999999ADDMA1999999086001MD1610121+9999ME1313979OA149900461REMSYN076AAXX  13004 06798 33/// /3503 11059 21086 38600 48397 56012 333 91109 91206;
0137067980999992010011301004+46800+010283FM-12+129899999V0202401N002119999999N9999999N1-00671-00841999999ADDMA1999999085981MD1610101+9999ME1313959OA149900411REMSYN076AAXX  13014 06798 33/// /2404 11067 21084 38598 48395 56010 333 91108 91206;
0137067980999992010011302004+46800+010283FM-12+129899999V0202501N002619999999N9999999N1-00591-00901999999ADDMA1999999085981MD1719999+9999ME1313959OA149900461REMSYN076AAXX  13024 06798 33/// /2505 11059 21090 38598 48395 57/// 333 91109 91205;
0137067980999992010011303004+46800+010283FM-12+129899999V0200901N000519999999N9999999N1-00721-00891999999ADDMA1999999085981MD1519999+9999ME1313959OA149900461REMSYN076AAXX  13034 06798 33/// /0901 11072 21089 38598 48395 55/// 333 91109 91206;
0137067980999992010011304004+46800+010283FM-12+129899999V0203101N000519999999N9999999N1-00651-01101999999ADDMA1999999085931MD1810051+9999ME1313909OA149900461REMSYN076AAXX  13044 06798 33/// /3101 11065 21110 38593 48390 58005 333 91109 91206;
0137067980999992010011305004+46800+010283FM-12+129899999V0203401N000519999999N9999999N1-00781-01081999999ADDMA1999999085891MD1710091+9999ME1313869OA149900151REMSYN076AAXX  13054 06798 33/// /3401 11078 21108 38589 48386 57009 333 91103 91202;
0234067980999992010011306004+46800+010283FM-12+129899999V0202501N002119999999N9999999N1-00721-01011999999ADDAA124000091AL19900091GJ101929IA2999-01009KA1999N-00811MA1999999085891MD1710091+9999ME1313879OA149900461REMSYN100AAXX  13064 06798 33/// /2504 11072 21101 38589 48387 57009 333 21081 3/110 55032 70000 91109 91206;EQDQ01  00002PRCP24
0137067980999992010011307004+46800+010283FM-12+129899999V0202601N001519999999N9999999N1-00701-01031999999ADDMA1999999085921MD1510011+9999ME1313899OA149900361REMSYN076AAXX  13074 06798 33/// /2603 11070 21103 38592 48389 55001 333 91107 91204;
0137067980999992010011308004+46800+010283FM-12+129899999V0202801N001019999999N9999999N1-00761-01071999999ADDMA1999999085951MD1210061+9999ME1313929OA149900361REMSYN076AAXX  13084 06798 33/// /2802 11076 21107 38595 48392 52006 333 91107 91204;
0137067980999992010011309004+46800+010283FM-12+129899999V0202901N000519999999N9999999N1-00641-01231999999ADDMA1999999085971MD1310081+9999ME1313949OA149900361REMSYN076AAXX  13094 06798 33/// /2901 11064 21123 38597 48394 53008 333 91107 91204;
0137067980999992010011310004+46800+010283FM-12+129899999V0200401N000519999999N9999999N1-00641-01031999999ADDMA1999999085961MD1210041+9999ME1313939OA149900211REMSYN076AAXX  13104 06798 33/// /0401 11064 21103 38596 48393 52004 333 91104 91202;
0137067980999992010011311004+46800+010283FM-12+129899999V0201101N000519999999N9999999N1-00521-01061999999ADDMA1999999085961MD1010011+9999ME1313949OA149900261REMSYN076AAXX  13114 06798 33/// /1101 11052 21106 38596 48394 50001 333 91105 91203;
0137067980999992010011312004+46800+010283FM-12+129899999V0200501N000519999999N9999999N1-00461-01001999999ADDMA1999999085921MD1810051+9999ME1313909OA149900461REMSYN076AAXX  13124 06798 33/// /0501 11046 21100 38592 48390 58005 333 91109 91206;
0137067980999992010011313004+46800+010283FM-12+129899999V0203301N000519999999N9999999N1-00401-00831999999ADDMA1999999085921MD1710041+9999ME1313909OA149900151REMSYN076AAXX  13134 06798 33/// /3301 11040 21083 38592 48390 57004 333 91103 91202;
0137067980999992010011314004+46800+010283FM-12+129899999V0202401N000519999999N9999999N1-00331-00761999999ADDMA1999999085921MD1719999+9999ME1313919OA149900151REMSYN076AAXX  13144 06798 33/// /2401 11033 21076 38592 48391 57/// 333 91103 91202;
0137067980999992010011315004+46800+010283FM-12+129899999V0202701N000519999999N9999999N1-00291-00711999999ADDMA1999999085931MD1210011+9999ME1313929OA149900261REMSYN076AAXX  13154 06798 33/// /2701 11029 21071 38593 48392 52001 333 91105 91203;
0137067980999992010011316004+46800+010283FM-12+129899999V0202601N001019999999N9999999N1-00361-00621999999ADDMA1999999085971MD1310051+9999ME1313959OA149900151REMSYN076AAXX  13164 06798 33/// /2602 11036 21062 38597 48395 53005 333 91103 91202;
0137067980999992010011317004+46800+010283FM-12+129899999V0202501N001019999999N9999999N1-00401-00511999999ADDMA1999999086001MD1310081+9999ME1313989OA149900151REMSYN076AAXX  13174 06798 33/// /2502 11040 21051 38600 48398 53008 333 91103 91202;
0198067980999992010011318004+46800+010283FM-12+129899999V0202701N000519999999N9999999N1-00401-00511999999ADDAA112000091KA1120M-00291MA1999999086021MD1210091+9999ME1313999OA149900361REMSYN094AAXX  13184 06798 03/// /2701 11040 21051 38602 48399 52009 69912 333 11029 69915 91107 91204;EQDQ01  00002PRCP12
0137067980999992010011319004+46800+010283FM-12+129899999V0202601N001019999999N9999999N1-00421-00511999999ADDMA1999999086031MD1219999+9999ME1314009OA149900151REMSYN076AAXX  13194 06798 33/// /2602 11042 21051 38603 48400 52/// 333 91103 91202;
0096067980999992010011400004+46800+010283FM-12+129899999V0203601N000519999999N9999999N1-00481-00601999999ADDMA1999999085991ME1313969REMSYN060AAXX  14004 06798 43/// /3601 11048 21060 38599 48396 5////;
0137067980999992010011401004+46800+010283FM-12+129899999V0209999C000019999999N9999999N1-00511-00601999999ADDMA1999999085981MD1719999+9999ME1313959OA149900101REMSYN076AAXX  14014 06798 33/// /0000 11051 21060 38598 48395 57/// 333 91102 91201;
0137067980999992010011402004+46800+010283FM-12+129899999V0202701N000519999999N9999999N1-00551-00801999999ADDMA1999999086001MD1519999+9999ME1313979OA149900101REMSYN076AAXX  14024 06798 33/// /2701 11055 21080 38600 48397 55/// 333 91102 91201;
0096067980999992010011403004+46800+010283FM-12+129899999V0202701N000519999999N9999999N1-00601-00891999999ADDMA1999999085981ME1313959REMSYN060AAXX  14034 06798 33/// /2701 11060 21089 38598 48395 5////;
0137067980999992010011404004+46800+010283FM-12+129899999V0209999C000019999999N9999999N1-00631-00751999999ADDMA1999999085931MD1810051+9999ME1313919OA149900151REMSYN076AAXX  14044 06798 33/// /0000 11063 21075 38593 48391 58005 333 91103 91202;
0137067980999992010011405004+46800+010283FM-12+129899999V0202601N002119999999N9999999N1-00611-00771999999ADDMA1999999085911MD1610091+9999ME1313899OA149900411REMSYN076AAXX  14054 06798 33/// /2604 11061 21077 38591 48389 56009 333 91108 91205;
0234067980999992010011406004+46800+010283FM-12+129899999V0202701N002119999999N9999999N1-00611-00791999999ADDAA124000091AL10600091GJ100009IA2999-00909KA1999N-00671MA1999999085961MD1510021+9999ME1313939OA149900461REMSYN100AAXX  14064 06798 33/// /2704 11061 21079 38596 48393 55002 333 21067 3/109 55000 70001 91109 91205;EQDQ01  00002PRCP24
0137067980999992010011407004+46800+010283FM-12+129899999V0200201N000519999999N9999999N1-00731-00961999999ADDMA1999999085991MD1210061+9999ME1313969OA149900461REMSYN076AAXX  14074 06798 33/// /0201 11073 21096 38599 48396 52006 333 91109 91204;
0137067980999992010011408004+46800+010283FM-12+129899999V0209999C000019999999N9999999N1-00771-00891999999ADDMA1999999086021MD1219999+9999ME1313989OA149900261REMSYN076AAXX  14084 06798 33/// /0000 11077 21089 38602 48398 52/// 333 91105 91204;
0137067980999992010011409004+46800+010283FM-12+129899999V0202701N001019999999N9999999N1-00621-00971999999ADDMA1999999086021MD1210061+9999ME1313999OA149900461REMSYN076AAXX  14094 06798 33/// /2702 11062 21097 38602 48399 52006 333 91109 91205;
0137067980999992010011410004+46800+010283FM-12+129899999V0202001N000519999999N9999999N1-00461-00761999999ADDMA1999999086031MD1210041+9999ME1314009OA149900151REMSYN076AAXX  14104 06798 33/// /2001 11046 21076 38603 48400 52004 333 91103 91202;
0137067980999992010011411004+46800+010283FM-12+129899999V0209999C000019999999N9999999N1-00471-00771999999ADDMA1999999085971MD1719999+9999ME1313959OA149900151REMSYN076AAXX  14114 06798 33/// /0000 11047 21077 38597 48395 57/// 333 91103 91202;
0137067980999992010011412004+46800+010283FM-12+129899999V0209999C000019999999N9999999N1-00291-00741999999ADDMA1999999085901MD1710121+9999ME1313899OA149900461REMSYN076AAXX  14124 06798 33/// /0000 11029 21074 38590 48389 57012 333 91109 91205;
0137067980999992010011413004+46800+010283FM-12+129899999V0201001N001019999999N9999999N1-00141-00601999999ADDMA1999999085861MD1610171+9999ME1313869OA149900101REMSYN076AAXX  14134 06798 33/// /1002 11014 21060 38586 48386 56017 333 91102 91202;
0137067980999992010011414004+46800+010283FM-12+129899999V0200101N000519999999N9999999N1-00101-00581999999ADDMA1999999085871MD1710101+9999ME1313879OA149900101REMSYN076AAXX  14144 06798 33/// /0101 11010 21058 38587 48387 57010 333 91102 91202;
0137067980999992010011415004+46800+010283FM-12+129899999V0202501N001519999999N9999999N1-00221-00581999999ADDMA1999999085881MD1510021+9999ME1313879OA149900211REMSYN076AAXX  14154 06798 33/// /2503 11022 21058 38588 48387 55002 333 91104 91203;
0137067980999992010011416004+46800+010283FM-12+129899999V0202601N001519999999N9999999N1-00271-00601999999ADDMA1999999085911MD1310051+9999ME1313909OA149900311REMSYN076AAXX  14164 06798 33/// /2603 11027 21060 38591 48390 53005 333 91106 91204;
0137067980999992010011417004+46800+010283FM-12+129899999V0202601N001519999999N9999999N1-00321-00741999999ADDMA1999999085981MD1310111+9999ME1313969OA149900311REMSYN076AAXX  14174 06798 33/// /2603 11032 21074 38598 48396 53011 333 91106 91204;
0156067980999992010011418004+46800+010283FM-12+129899999V0203301N000519999999N9999999N1-00461-00801999999ADDKA1120M-00101MA1999999086071MD1310191+9999ME1314049OA149900361REMSYN082AAXX  14184 06798 33/// /3301 11046 21080 38607 48404 53019 333 11010 91107 91204;
0137067980999992010011419004+46800+010283FM-12+129899999V0209999C000019999999N9999999N1-00521-00831999999ADDMA1999999086141MD1310231+9999ME1314109OA149900361REMSYN076AAXX  14194 06798 33/// /0000 11052 21083 38614 48410 53023 333 91107 91204;
0137067980999992010011420004+46800+010283FM-12+129899999V0202701N001519999999N9999999N1-00611-00941999999ADDMA1999999086181MD1110201+9999ME1314139OA149900211REMSYN076AAXX  14204 06798 33/// /2703 11061 21094 38618 48413 51020 333 91104 91203;
0137067980999992010011421004+46800+010283FM-12+129899999V0202701N001519999999N9999999N1-00601-00951999999ADDMA1999999086221MD1110151+9999ME1314179OA149900361REMSYN076AAXX  14214 06798 33/// /2703 11060 21095 38622 48417 51015 333 91107 91204;
0137067980999992010011422004+46800+010283FM-12+129899999V0202601N001519999999N9999999N1-00741-00971999999ADDMA1999999086281MD1310141+9999ME1314229OA149900311REMSYN076AAXX  14224 06798 33/// /2603 11074 21097 38628 48422 53014 333 91106 91204;
0137067980999992010011423004+46800+010283FM-12+129899999V0202701N001519999999N9999999N1-00681-00991999999ADDMA1999999086321MD1210141+9999ME1314269OA149900311REMSYN076AAXX  14234 06798 33/// /2703 11068 21099 38632 48426 52014 333 91106 91204;
0137067980999992010011500004+46800+010283FM-12+129899999V0209999C000019999999N9999999N1-00801-01071999999ADDMA1999999086381MD1110161+9999ME1314309OA149900361REMSYN076AAXX  15004 06798 33/// /0000 11080 21107 38638 48430 51016 333 91107 91204;
0137067980999992010011501004+46800+010283FM-12+129899999V0202801N000519999999N9999999N1-00901-01121999999ADDMA1999999086421MD1110141+9999ME1314349OA149900211REMSYN076AAXX  15014 06798 33/// /2801 11090 21112 38642 48434 51014 333 91104 91203;
0137067980999992010011502004+46800+010283FM-12+129899999V0202601N003119999999N9999999N1-00841-01091999999ADDMA1999999086441MD1110121+9999ME1314369OA149900461REMSYN076AAXX  15024 06798 33/// /2606 11084 21109 38644 48436 51012 333 91109 91206;
0096067980999992010011503004+46800+010283FM-12+129899999V0202601N002119999999N9999999N1-00891-01121999999ADDMA1999999086481ME1314399REMSYN060AAXX  15034 06798 33/// /2604 11089 21112 38648 48439 5////;
0137067980999992010011504004+46800+010283FM-12+129899999V0202601N003119999999N9999999N1-00881-01161999999ADDMA1999999086521MD1310101+9999ME1314439OA149900461REMSYN076AAXX  15044 06798 33/// /2606 11088 21116 38652 48443 53010 333 91109 91206;
0137067980999992010011505004+46800+010283FM-12+129899999V0202601N002119999999N9999999N1-00911-01201999999ADDMA1999999086591MD1310151+9999ME1314499OA149900511REMSYN076AAXX  15054 06798 33/// /2604 11091 21120 38659 48449 53015 333 91110 91207;
0234067980999992010011506004+46800+010283FM-12+129899999V0202601N002619999999N9999999N1-00961-01231999999ADDAA124000091AL19900091GJ102889IA2999-01309KA1999N-01051MA1999999086671MD1310191+9999ME1314559OA149900511REMSYN100AAXX  15064 06798 33/// /2605 11096 21123 38667 48455 53019 333 21105 3/113 55048 70000 91110 91207;EQDQ01  00002PRCP24
0137067980999992010011507004+46800+010283FM-12+129899999V0202601N002619999999N9999999N1-01021-01471999999ADDMA1999999086771MD1210251+9999ME1314649OA149900511REMSYN076AAXX  15074 06798 33/// /2605 11102 21147 38677 48464 52025 333 91110 91206;
0137067980999992010011508004+46800+010283FM-12+129899999V0202501N002619999999N9999999N1-00991-01251999999ADDMA1999999086861MD1319999+9999ME1314729OA149900461REMSYN076AAXX  15084 06798 33/// /2505 11099 21125 38686 48472 53/// 333 91109 91206;
0137067980999992010011509004+46800+010283FM-12+129899999V0202401N003119999999N9999999N1-00931-01331999999ADDMA1999999086901MD1110231+9999ME1314769OA149900511REMSYN076AAXX  15094 06798 33/// /2406 11093 21133 38690 48476 51023 333 91110 91207;
0137067980999992010011510004+46800+010283FM-12+129899999V0202301N003119999999N9999999N1-00691-01101999999ADDMA1999999086941MD1110171+9999ME1314819OA149900571REMSYN076AAXX  15104 06798 33/// /2306 11069 21110 38694 48481 51017 333 91111 91206;
0137067980999992010011511004+46800+010283FM-12+129899999V0201801N000519999999N9999999N1-00581-00981999999ADDMA1999999086931MD1210071+9999ME1314819OA149900571REMSYN076AAXX  15114 06798 33/// /1801 11058 21098 38693 48481 52007 333 91111 91206;
0156067980999992010011512004+46800+010283FM-12+129899999V0202201N001519999999N9999999N1-00341-00941999999ADDMA1999999086901MD1410001+9999ME1314809OA149900571REMSYN076AAXX  15124 06798 33/// /2203 11034 21094 38690 48480 58000 333 91111 91207;EQDQ01+000082APCTEN
0137067980999992010011513004+46800+010283FM-12+129899999V0200801N000519999999N9999999N1-00261-00901999999ADDMA1999999086891MD1710051+9999ME1314809OA149900261REMSYN076AAXX  15134 06798 33/// /0801 11026 21090 38689 48480 57005 333 91105 91203;
0137067980999992010011514004+46800+010283FM-12+129899999V0202601N000519999999N9999999N1-00231-00801999999ADDMA1999999086921MD1510011+9999ME1314839OA149900261REMSYN076AAXX  15144 06798 33/// /2601 11023 21080 38692 48483 55001 333 91105 91202;
0137067980999992010011515004+46800+010283FM-12+129899999V0202601N001519999999N9999999N1-00331-00941999999ADDMA1999999087011MD1310111+9999ME1314909OA149900571REMSYN076AAXX  15154 06798 33/// /2603 11033 21094 38701 48490 53011 333 91111 91206;
0137067980999992010011516004+46800+010283FM-12+129899999V0200401N000519999999N9999999N1-00511-00901999999ADDMA1999999087101MD1310211+9999ME1314979OA149900211REMSYN076AAXX  15164 06798 33/// /0401 11051 21090 38710 48497 53021 333 91104 91203;
0137067980999992010011517004+46800+010283FM-12+129899999V0202701N000519999999N9999999N1-00511-00881999999ADDMA1999999087181MD1110261+9999ME1315049OA149900261REMSYN076AAXX  15174 06798 33/// /2701 11051 21088 38718 48504 51026 333 91105 91203;
0156067980999992010011518004+46800+010283FM-12+129899999V0202501N001019999999N9999999N1-00641-00881999999ADDKA1120M-00231MA1999999087261MD1210251+9999ME1315109OA149900571REMSYN082AAXX  15184 06798 33/// /2502 11064 21088 38726 48510 52025 333 11023 91111 91206;
0137067980999992010011519004+46800+010283FM-12+129899999V0202701N002119999999N9999999N1-00521-00891999999ADDMA1999999087321MD1110221+9999ME1315179OA149900361REMSYN076AAXX  15194 06798 33/// /2704 11052 21089 38732 48517 51022 333 91107 91204;
0137067980999992010011520004+46800+010283FM-12+129899999V0202601N003619999999N9999999N1-00621-00931999999ADDMA1999999087341MD1110161+9999ME1315179OA149900511REMSYN076AAXX  15204 06798 33/// /2607 11062 21093 38734 48517 51016 333 91110 91207;
0137067980999992010011521004+46800+010283FM-12+129899999V0202601N003119999999N9999999N1-00591-00951999999ADDMA1999999087351MD1210091+9999ME1315199OA149900511REMSYN076AAXX  15214 06798 33/// /2606 11059 21095 38735 48519 52009 333 91110 91207;
0137067980999992010011522004+46800+010283FM-12+129899999V0202601N002619999999N9999999N1-00681-01011999999ADDMA1999999087371MD1210051+9999ME1315209OA149900461REMSYN076AAXX  15224 06798 33/// /2605 11068 21101 38737 48520 52005 333 91109 91207;
0137067980999992010011523004+46800+010283FM-12+129899999V0202601N003119999999N9999999N1-00721-01061999999ADDMA1999999087381MD1210041+9999ME1315209OA149900461REMSYN076AAXX  15234 06798 33/// /2606 11072 21106 38738 48520 52004 333 91109 91206;
0137067980999992010011600004+46800+010283FM-12+129899999V0202601N001519999999N9999999N1-00781-01151999999ADDMA1999999087401MD1210051+9999ME1315219OA149900571REMSYN076AAXX  16004 06798 33/// /2603 11078 21115 38740 48521 52005 333 91111 91207;
0137067980999992010011601004+46800+010283FM-12+129899999V0202601N003119999999N9999999N1-00811-01141999999ADDMA1999999087391MD1210021+9999ME1315209OA149900621REMSYN076AAXX  16014 06798 33/// /2606 11081 21114 38739 48520 52002 333 91112 91207;
0137067980999992010011602004+46800+010283FM-12+129899999V0202601N002119999999N9999999N1-00941-01221999999ADDMA1999999087391MD1010011+9999ME1315199OA149900621REMSYN076AAXX  16024 06798 33/// /2604 11094 21122 38739 48519 50001 333 91112 91207;
0137067980999992010011603004+46800+010283FM-12+129899999V0202601N003119999999N9999999N1-00901-01231999999ADDMA1999999087381MD1719999+9999ME1315199OA149900621REMSYN076AAXX  16034 06798 33/// /2606 11090 21123 38738 48519 57/// 333 91112 91207;
0137067980999992010011604004+46800+010283FM-12+129899999V0202601N003619999999N9999999N1-00981-01281999999ADDMA1999999087361MD1710031+9999ME1315169OA149900621REMSYN076AAXX  16044 06798 33/// /2607 11098 21128 38736 48516 57003 333 91112 91208;
0137067980999992010011605004+46800+010283FM-12+129899999V0202601N003619999999N9999999N1-00961-01311999999ADDMA1999999087371MD1710021+9999ME1315179OA149900621REMSYN076AAXX  16054 06798 33/// /2607 11096 21131 38737 48517 57002 333 91112 91208;
0250067980999992010011606004+46800+010283FM-12+129899999V0202601N003619999999N9999999N1-00991-01361999999ADDAA124000091AL19900091GJ103429IA2999-01209KA1999N-01011MA1999999087381MD1410001+9999ME1315189OA149900721REMSYN100AAXX  16064 06798 33/// /2607 11099 21136 38738 48518 53000 333 21101 3/112 55057 70000 91114 91208;EQDQ01+000032APCTENQ02  00002PRCP24
0137067980999992010011607004+46800+010283FM-12+129899999V0202601N003619999999N9999999N1-01041-01401999999ADDMA1999999087381MD1210021+9999ME1315189OA149900721REMSYN076AAXX  16074 06798 33/// /2607 11104 21140 38738 48518 52002 333 91114 91208;
0137067980999992010011608004+46800+010283FM-12+129899999V0202601N002119999999N9999999N1-01061-01431999999ADDMA1999999087381MD1210011+9999ME1315179OA149900621REMSYN076AAXX  16084 06798 33/// /2604 11106 21143 38738 48517 52001 333 91112 91207;
0137067980999992010011609004+46800+010283FM-12+129899999V0202601N003619999999N9999999N1-00961-01411999999ADDMA1999999087361MD1710021+9999ME1315169OA149900721REMSYN076AAXX  16094 06798 33/// /2607 11096 21141 38736 48516 57002 333 91114 91208;
0137067980999992010011610004+46800+010283FM-12+129899999V0202401N004119999999N9999999N1-00701-01311999999ADDMA1999999087301MD1710081+9999ME1315139OA149900821REMSYN076AAXX  16104 06798 33/// /2408 11070 21131 38730 48513 57008 333 91116 91208;
0137067980999992010011611004+46800+010283FM-12+129899999V0202101N002619999999N9999999N1-00471-01131999999ADDMA1999999087231MD1710151+9999ME1315099OA149900821REMSYN076AAXX  16114 06798 33/// /2105 11047 21113 38723 48509 57015 333 91116 91208;
0137067980999992010011612004+46800+010283FM-12+129899999V0201401N000519999999N9999999N1-00441-01081999999ADDMA1999999087141MD1810221+9999ME1315019OA149900821REMSYN076AAXX  16124 06798 33/// /1401 11044 21108 38714 48501 58022 333 91116 91208;
0137067980999992010011613004+46800+010283FM-12+129899999V0201101N000519999999N9999999N1-00371-00981999999ADDMA1999999087091MD1610211+9999ME1314979OA149900411REMSYN076AAXX  16134 06798 33/// /1101 11037 21098 38709 48497 56021 333 91108 91203;
0137067980999992010011614004+46800+010283FM-12+129899999V0202001N000519999999N9999999N1-00291-00891999999ADDMA1999999087061MD1619999+9999ME1314959OA149900151REMSYN076AAXX  16144 06798 33/// /2001 11029 21089 38706 48495 56/// 333 91103 91201;
0137067980999992010011615004+46800+010283FM-12+129899999V0209999C000019999999N9999999N1-00411-00951999999ADDMA1999999087051MD1710091+9999ME1314939OA149900821REMSYN076AAXX  16154 06798 33/// /0000 11041 21095 38705 48493 57009 333 91116 91208;
0137067980999992010011616004+46800+010283FM-12+129899999V0203001N000519999999N9999999N1-00391-00951999999ADDMA1999999087051MD1710041+9999ME1314939OA149900211REMSYN076AAXX  16164 06798 33/// /3001 11039 21095 38705 48493 57004 333 91104 91202;
0137067980999992010011617004+46800+010283FM-12+129899999V0202201N000519999999N9999999N1-00381-00911999999ADDMA1999999087071MD1310011+9999ME1314959OA149900211REMSYN076AAXX  16174 06798 33/// /2201 11038 21091 38707 48495 53001 333 91104 91202;
0156067980999992010011618004+46800+010283FM-12+129899999V0202701N000519999999N9999999N1-00401-00881999999ADDKA1120M-00231MA1999999087061MD1510011+9999ME1314949OA149900821REMSYN082AAXX  16184 06798 33/// /2701 11040 21088 38706 48494 55001 333 11023 91116 91208;
0137067980999992010011619004+46800+010283FM-12+129899999V0209999C000019999999N9999999N1-00451-00871999999ADDMA1999999087061MD1010011+9999ME1314949OA149900211REMSYN076AAXX  16194 06798 33/// /0000 11045 21087 38706 48494 50001 333 91104 91202;
0137067980999992010011620004+46800+010283FM-12+129899999V0203201N000519999999N9999999N1-00401-00831999999ADDMA1999999086991MD1710081+9999ME1314889OA149900211REMSYN076AAXX  16204 06798 33/// /3201 11040 21083 38699 48488 57008 333 91104 91202;
0137067980999992010011621004+46800+010283FM-12+129899999V0202701N000519999999N9999999N1-00391-00811999999ADDMA1999999086911MD1710151+9999ME1314819OA149900211REMSYN076AAXX  16214 06798 33/// /2701 11039 21081 38691 48481 57015 333 91104 91202;
0137067980999992010011622004+46800+010283FM-12+129899999V0200801N000519999999N9999999N1-00461-00761999999ADDMA1999999086871MD1710191+9999ME1314769OA149900261REMSYN076AAXX  16224 06798 33/// /0801 11046 21076 38687 48476 57019 333 91105 91201;
0137067980999992010011623004+46800+010283FM-12+129899999V0203001N000519999999N9999999N1-00491-00721999999ADDMA1999999086821MD1710171+9999ME1314729OA149900261REMSYN076AAXX  16234 06798 33/// /3001 11049 21072 38682 48472 57017 333 91105 91202;
0137067980999992010011700004+46800+010283FM-12+129899999V0200101N000519999999N9999999N1-00461-00681999999ADDMA1999999086801MD1710111+9999ME1314709OA149900261REMSYN076AAXX  17004 06798 33/// /0101 11046 21068 38680 48470 57011 333 91105 91203;
0137067980999992010011701004+46800+010283FM-12+129899999V0202601N001519999999N9999999N1-00361-00741999999ADDMA1999999086881MD1310011+9999ME1314789OA149900261REMSYN076AAXX  17014 06798 33/// /2603 11036 21074 38688 48478 53001 333 91105 91203;
0154067980999992010011702004+46800+010283FM-12+129899999V0200401N000519999999N9999999N1-00441-00611999999ADDAA101000021MA1999999086931MD1219999+9999ME1314829OA149900261REMSYN082AAXX  17024 06798 23/// /0401 11044 21061 38693 48482 52/// 333 69915 91105 91203;
0096067980999992010011703004+46800+010283FM-12+129899999V0200801N001019999999N9999999N1-00491-00601999999ADDMA1999999086881ME1314779REMSYN060AAXX  17034 06798 43/// /0802 11049 21060 38688 48477 5////;
0137067980999992010011704004+46800+010283FM-12+129899999V0202401N001019999999N9999999N1-00541-00661999999ADDMA1999999086811MD1710071+9999ME1314719OA149900151REMSYN076AAXX  17044 06798 33/// /2402 11054 21066 38681 48471 57007 333 91103 91202;
0137067980999992010011705004+46800+010283FM-12+129899999V0203401N000519999999N9999999N1-00631-00771999999ADDMA1999999086801MD1719999+9999ME1314699OA149900211REMSYN076AAXX  17054 06798 33/// /3401 11063 21077 38680 48469 57/// 333 91104 91202;
0257067980999992010011706004+46800+010283FM-12+129899999V0202501N001019999999N9999999N1-00481-00591999999ADDAA112000091AA224000391AL11200091GJ103249IA2999-00909KA1999N-00661MA1999999086811MD1710071+9999ME1314719OA149900261REMSYN112AAXX  17064 06798 03/// /2502 11048 21059 38681 48471 57007 69922 333 21066 3/109 55054 60005 70002 91105 91203;EQDQ01  00002PRCP12
0137067980999992010011707004+46800+010283FM-12+129899999V0202501N002619999999N9999999N1-00451-00601999999ADDMA1999999086811MD1510001+9999ME1314719OA149900361REMSYN076AAXX  17074 06798 33/// /2505 11045 21060 38681 48471 55000 333 91107 91205;
0137067980999992010011708004+46800+010283FM-12+129899999V0202401N001519999999N9999999N1-00371-00601999999ADDMA1999999086811MD1519999+9999ME1314729OA149900361REMSYN076AAXX  17084 06798 33/// /2403 11037 21060 38681 48472 55/// 333 91107 91205;
0137067980999992010011709004+46800+010283FM-12+129899999V0202501N003119999999N9999999N1-00241-00621999999ADDMA1999999086791MD1710021+9999ME1314719OA149900511REMSYN076AAXX  17094 06798 33/// /2506 11024 21062 38679 48471 57002 333 91110 91206;
0137067980999992010011710004+46800+010283FM-12+129899999V0202501N000519999999N9999999N1-00161-00591999999ADDMA1999999086811MD1510001+9999ME1314739OA149900511REMSYN076AAXX  17104 06798 33/// /2501 11016 21059 38681 48473 55000 333 91110 91206;
0137067980999992010011711004+46800+010283FM-12+129899999V0209999C000019999999N9999999N1-00141-00551999999ADDMA1999999086761MD1710051+9999ME1314699OA149900411REMSYN076AAXX  17114 06798 33/// /0000 11014 21055 38676 48469 57005 333 91108 91205;
0137067980999992010011712004+46800+010283FM-12+129899999V0200701N001519999999N9999999N1-00041-00471999999ADDMA1999999086751MD1710041+9999ME1314689OA149900511REMSYN076AAXX  17124 06798 33/// /0703 11004 21047 38675 48468 57004 333 91110 91206;
0137067980999992010011713004+46800+010283FM-12+129899999V0200201N002119999999N9999999N1-00041-00551999999ADDMA1999999086741MD1710071+9999ME1314679OA149900311REMSYN076AAXX  17134 06798 33/// /0204 11004 21055 38674 48467 57007 333 91106 91204;
0137067980999992010011714004+46800+010283FM-12+129899999V0202501N001019999999N9999999N1+00051-00471999999ADDMA1999999086811MD1319999+9999ME1314749OA149900311REMSYN076AAXX  17144 06798 33/// /2502 10005 21047 38681 48474 53/// 333 91106 91204;
0137067980999992010011715004+46800+010283FM-12+129899999V0202701N001519999999N9999999N1+00081-00421999999ADDMA1999999086901MD1210151+9999ME1314839OA149900411REMSYN076AAXX  17154 06798 33/// /2703 10008 21042 38690 48483 52015 333 91108 91205;
0137067980999992010011716004+46800+010283FM-12+129899999V0201101N000519999999N9999999N1-00041-00381999999ADDMA1999999086931MD1210191+9999ME1314859OA149900461REMSYN076AAXX  17164 06798 33/// /1101 11004 21038 38693 48485 52019 333 91109 91204;
0137067980999992010011717004+46800+010283FM-12+129899999V0202901N000519999999N9999999N1+00061-00521999999ADDMA1999999087011MD1210201+9999ME1314939OA149900461REMSYN076AAXX  17174 06798 33/// /2901 10006 21052 38701 48493 52020 333 91109 91204;
0156067980999992010011718004+46800+010283FM-12+129899999V0202501N002619999999N9999999N1+00111-00671999999ADDKA1120M+00131MA1999999087081MD1310181+9999ME1315009OA149900571REMSYN082AAXX  17184 06798 33/// /2505 10011 21067 38708 48500 53018 333 10013 91111 91206;
0137067980999992010011719004+46800+010283FM-12+129899999V0202601N002619999999N9999999N1+00051-00621999999ADDMA1999999087171MD1310241+9999ME1315079OA149900621REMSYN076AAXX  17194 06798 33/// /2605 10005 21062 38717 48507 53024 333 91112 91207;
0137067980999992010011720004+46800+010283FM-12+129899999V0203401N000519999999N9999999N1-00081-00621999999ADDMA1999999087221MD1110211+9999ME1315119OA149900621REMSYN076AAXX  17204 06798 33/// /3401 11008 21062 38722 48511 51021 333 91112 91207;
0137067980999992010011721004+46800+010283FM-12+129899999V0203401N001519999999N9999999N1-00151-00551999999ADDMA1999999087291MD1110211+9999ME1315179OA149900621REMSYN076AAXX  17214 06798 33/// /3403 11015 21055 38729 48517 51021 333 91112 91207;
0137067980999992010011722004+46800+010283FM-12+129899999V0200501N001519999999N9999999N1-00201-00601999999ADDMA1999999087321MD1110151+9999ME1315199OA149900311REMSYN076AAXX  17224 06798 33/// /0503 11020 21060 38732 48519 51015 333 91106 91203;
0137067980999992010011723004+46800+010283FM-12+129899999V0202801N000519999999N9999999N1-00201-00611999999ADDMA1999999087371MD1110151+9999ME1315249OA149900261REMSYN076AAXX  17234 06798 33/// /2801 11020 21061 38737 48524 51015 333 91105 91203;
