0128068065999992011010306504+46967+008400FM-15+0450LSZC V0202801N002110075019N0070001N1-00201-00501999999ADDGA1071+007501999GF107991999999999999999999MA1102201999999REMMET059METAR LSZC 030650Z 28004KT 7000 BKN025 M02/M05 Q1022 NOSIG;
0128068065999992011010307204+46967+008400FM-15+0450LSZC V0202601N003110075019N0070001N1-00201-00701999999ADDGA1071+007501999GF107991999999999999999999MA1102201999999REMMET059METAR LSZC 030720Z 26006KT 7000 BKN025 M02/M07 Q1022 NOSIG;
0128068065999992011010307504+46967+008400FM-15+0450LSZC V0202701N003110090019N0112651N1-00301-00701999999ADDGA1071+009001999GF107991999999999999999999MA1102201999999REMMET059METAR LSZC 030750Z 27006KT 9999 BKN030 M03/M07 Q1022 NOSIG;
0128068065999992011010308204+46967+008400FM-15+0450LSZC V0202601N002610090019N0112651N1-00301-00801999999ADDGA1071+009001999GF107991999999999999999999MA1102201999999REMMET059METAR LSZC 030820Z 26005KT 9999 BKN030 M03/M08 Q1022 NOSIG;
0128068065999992011010308504+46967+008400FM-15+0450LSZC V0202601N002610090019N0112651N1-00301-00801999999ADDGA1071+009001999GF107991999999999999999999MA1102201999999REMMET059METAR LSZC 030850Z 26005KT 9999 BKN030 M03/M08 Q1022 NOSIG;
0128068065999992011010309204+46967+008400FM-15+0450LSZC V0202701N003112200019N0112651N1-00301-00801999999ADDGA1041+009001999GF104991999999999999999999MA1102201999999REMMET059METAR LSZC 030920Z 27006KT 9999 SCT030 M03/M08 Q1022 NOSIG;
0151068065999992011010309504+46967+008400FM-15+0450LSZC V0202601N003112200019N0112651N1-00301-00801999999ADDGA1021+004801999GA2041+009001999GF104991999999999999999999MA1102201999999REMMET066METAR LSZC 030950Z 26006KT 9999 FEW016 SCT030 M03/M08 Q1022 NOSIG;
0151068065999992011010310204+46967+008400FM-15+0450LSZC V0202601N003112200019N0112651N1-00301-00701999999ADDGA1021+004801999GA2041+009001999GF104991999999999999999999MA1102201999999REMMET066METAR LSZC 031020Z 26006KT 9999 FEW016 SCT030 M03/M07 Q1022 NOSIG;
0151068065999992011010310504+46967+008400FM-15+0450LSZC V0202501N002112200019N0112651N1-00201-00601999999ADDGA1021+004801999GA2041+009001999GF104991999999999999999999MA1102201999999REMMET066METAR LSZC 031050Z 25004KT 9999 FEW016 SCT030 M02/M06 Q1022 NOSIG;
0151068065999992011010312204+46967+008400FM-15+0450LSZC V0202501N001012200019N0112651N1-00101-00501999999ADDGA1021+004801999GA2041+009001999GF104991999999999999999999MA1102101999999REMMET066METAR LSZC 031220Z 25002KT 9999 FEW016 SCT030 M01/M05 Q1021 NOSIG;
0128068065999992011010312504+46967+008400FM-15+0450LSZC V0202401N001012200019N0112651N1-00101-00501999999ADDGA1041+009001999GF104991999999999999999999MA1102101999999REMMET059METAR LSZC 031250Z 24002KT 9999 SCT030 M01/M05 Q1021 NOSIG;
0127068065999992011010313204+46967+008400FM-15+0450LSZC V0202401N001012200019N0112651N1+00001-00401999999ADDGA1041+009001999GF104991999999999999999999MA1102101999999REMMET058METAR LSZC 031320Z 24002KT 9999 SCT030 00/M04 Q1021 NOSIG;
0127068065999992011010313504+46967+008400FM-15+0450LSZC V0209999V001012200019N0112651N1+00001-00501999999ADDGA1041+008101999GF104991999999999999999999MA1102101999999REMMET058METAR LSZC 031350Z VRB02KT 9999 SCT027 00/M05 Q1021 NOSIG;
0128068065999992011010314204+46967+008400FM-15+0450LSZC V0202301N001012200019N0112651N1-00101-00501999999ADDGA1041+008101999GF104991999999999999999999MA1102101999999REMMET059METAR LSZC 031420Z 23002KT 9999 SCT027 M01/M05 Q1021 NOSIG;
0128068065999992011010314504+46967+008400FM-15+0450LSZC V0202401N001010078019N0112651N1-00201-00501999999ADDGA1071+007801999GF107991999999999999999999MA1102101999999REMMET059METAR LSZC 031450Z 24002KT 9999 BKN026 M02/M05 Q1021 NOSIG;
0128068065999992011010315204+46967+008400FM-15+0450LSZC V0202501N001510078019N0112651N1-00201-00601999999ADDGA1071+007801999GF107991999999999999999999MA1102101999999REMMET059METAR LSZC 031520Z 25003KT 9999 BKN026 M02/M06 Q1021 NOSIG;
0128068065999992011010315504+46967+008400FM-15+0450LSZC V0202601N002110090019N0090001N1-00301-00701999999ADDGA1071+009001999GF107991999999999999999999MA1102101999999REMMET059METAR LSZC 031550Z 26004KT 9000 BKN030 M03/M07 Q1021 NOSIG;
0151068065999992011010406504+46967+008400FM-15+0450LSZC V0202601N002110600019N0112651N1-00501-00801999999ADDGA1041+014701999GA2071+060001999GF107991999999999999999999MA1101801999999REMMET066METAR LSZC 040650Z 26004KT 9999 SCT049 BKN200 M05/M08 Q1018 NOSIG;
0151068065999992011010407204+46967+008400FM-15+0450LSZC V0202601N003610600019N0112651N1-00501-00901999999ADDGA1041+014701999GA2071+060001999GF107991999999999999999999MA1101801999999REMMET066METAR LSZC 040720Z 26007KT 9999 SCT049 BKN200 M05/M09 Q1018 NOSIG;
0151068065999992011010407504+46967+008400FM-15+0450LSZC V0202601N002610600019N0112651N1-00501-00901999999ADDGA1021+014701999GA2071+060001999GF107991999999999999999999MA1101801999999REMMET066METAR LSZC 040750Z 26005KT 9999 FEW049 BKN200 M05/M09 Q1018 NOSIG;
0151068065999992011010408204+46967+008400FM-15+0450LSZC V0202701N002110450019N0112651N1-00501-00801999999ADDGA1021+014701999GA2071+045001999GF107991999999999999999999MA1101801999999REMMET066METAR LSZC 040820Z 27004KT 9999 FEW049 BKN150 M05/M08 Q1018 NOSIG;
0080068065999992011010408504+46967+008400FM-15+0450LSZC V0202701N002119999999Y0099001N1-00501-00801999999ADDMA1101801999999REMMET053METAR LSZC 040850Z 27004KT CAVOK M05/M08 Q1018 NOSIG;
0151068065999992011010409204+46967+008400FM-15+0450LSZC V0202801N002110450019N0112651N1-00401-00901999999ADDGA1021+015001999GA2071+045001999GF107991999999999999999999MA1101801999999REMMET066METAR LSZC 040920Z 28004KT 9999 FEW050 BKN150 M04/M09 Q1018 NOSIG;
0151068065999992011010409504+46967+008400FM-15+0450LSZC V0202701N002610450019N0112651N1-00401-00801999999ADDGA1021+015001999GA2071+045001999GF107991999999999999999999MA1101801999999REMMET066METAR LSZC 040950Z 27005KT 9999 FEW050 BKN150 M04/M08 Q1018 NOSIG;
0151068065999992011010410204+46967+008400FM-15+0450LSZC V0202401N002110450019N0112651N1-00401-00801999999ADDGA1021+009001999GA2071+045001999GF107991999999999999999999MA1101801999999REMMET066METAR LSZC 041020Z 24004KT 9999 FEW030 BKN150 M04/M08 Q1018 NOSIG;
0151068065999992011010410504+46967+008400FM-15+0450LSZC V0202501N001510450019N0112651N1-00301-00701999999ADDGA1021+005101999GA2071+045001999GF107991999999999999999999MA1101691999999REMMET066METAR LSZC 041050Z 25003KT 9999 FEW017 BKN150 M03/M07 Q1017 NOSIG;
0127068065999992011010412204+46967+008400FM-15+0450LSZC V0209999C000012200019N0060001N1+00101-00601999999ADDGA1021+006001999GF102991999999999999999999MA1101691999999REMMET058METAR LSZC 041220Z 00000KT 6000 FEW020 01/M06 Q1017 NOSIG;
0127068065999992011010412504+46967+008400FM-15+0450LSZC V0209999V000512200019N0050001N1+00001-00501999999ADDGA1021+009001999GF102991999999999999999999MA1101591999999REMMET058METAR LSZC 041250Z VRB01KT 5000 FEW030 00/M05 Q1016 NOSIG;
0128068065999992011010413204+46967+008400FM-15+0450LSZC V0202501N001512200019N0060001N1-00101-00501999999ADDGA1021+009001999GF102991999999999999999999MA1101591999999REMMET059METAR LSZC 041320Z 25003KT 6000 FEW030 M01/M05 Q1016 NOSIG;
0128068065999992011010413504+46967+008400FM-15+0450LSZC V0202501N001012200019N0050001N1-00101-00501999999ADDGA1021+009001999GF102991999999999999999999MA1101591999999REMMET059METAR LSZC 041350Z 25002KT 5000 FEW030 M01/M05 Q1016 NOSIG;
0128068065999992011010414204+46967+008400FM-15+0450LSZC V0202301N001512200019N0060001N1-00201-00501999999ADDGA1021+009001999GF102991999999999999999999MA1101591999999REMMET059METAR LSZC 041420Z 23003KT 6000 FEW030 M02/M05 Q1016 NOSIG;
0128068065999992011010506204+46967+008400FM-15+0450LSZC V0202401N002612200019N0112651N1-00601-00901999999ADDGA1021+009001999GF102991999999999999999999MA1101491999999REMMET059METAR LSZC 050620Z 24005KT 9999 FEW030 M06/M09 Q1015 NOSIG;
0080068065999992011010507204+46967+008400FM-15+0450LSZC V0202501N002619999999Y0099001N1-00701-00901999999ADDMA1101391999999REMMET053METAR LSZC 050720Z 25005KT CAVOK M07/M09 Q1014 NOSIG;
0086068065999992011010507504+46967+008400FM-15+0450LSZC V0202601N003112200019N0112651N1-00601-00801999999ADDMA1101491999999REMMET059METAR LSZC 050750Z 26006KT 9999 ////// M06/M08 Q1015 NOSIG;
0086068065999992011010508204+46967+008400FM-15+0450LSZC V0202601N002612200019N0112651N1-00601-00801999999ADDMA1101491999999REMMET059METAR LSZC 050820Z 26005KT 9999 ////// M06/M08 Q1015 NOSIG;
0086068065999992011010508504+46967+008400FM-15+0450LSZC V0202601N002612200019N0112651N1-00501-00801999999ADDMA1101491999999REMMET059METAR LSZC 050850Z 26005KT 9999 ////// M05/M08 Q1015 NOSIG;
0086068065999992011010509204+46967+008400FM-15+0450LSZC V0202501N003612200019N0112651N1-00501-00801999999ADDMA1101391999999REMMET059METAR LSZC 050920Z 25007KT 9999 ////// M05/M08 Q1014 NOSIG;
0080068065999992011010509504+46967+008400FM-15+0450LSZC V0202501N002119999999Y0099001N1-00501-00801999999ADDMA1101391999999REMMET053METAR LSZC 050950Z 25004KT CAVOK M05/M08 Q1014 NOSIG;
0080068065999992011010510204+46967+008400FM-15+0450LSZC V0209999V000519999999Y0099001N1-00401-00601999999ADDMA1101391999999REMMET053METAR LSZC 051020Z VRB01KT CAVOK M04/M06 Q1014 NOSIG;
0080068065999992011010510504+46967+008400FM-15+0450LSZC V0202601N002119999999Y0099001N1-00101-00601999999ADDMA1101291999999REMMET053METAR LSZC 051050Z 26004KT CAVOK M01/M06 Q1013 NOSIG;
0079068065999992011010512204+46967+008400FM-15+0450LSZC V0202701N001019999999Y0099001N1+00101-00701999999ADDMA1101191999999REMMET052METAR LSZC 051220Z 27002KT CAVOK 01/M07 Q1012 NOSIG;
0079068065999992011010512504+46967+008400FM-15+0450LSZC V0209999V000519999999Y0099001N1+00301-00701999999ADDMA1101191999999REMMET052METAR LSZC 051250Z VRB01KT CAVOK 03/M07 Q1012 NOSIG;
0079068065999992011010513204+46967+008400FM-15+0450LSZC V0209999V000519999999Y0099001N1+00101-00601999999ADDMA1101191999999REMMET052METAR LSZC 051320Z VRB01KT CAVOK 01/M06 Q1012 NOSIG;
0079068065999992011010513504+46967+008400FM-15+0450LSZC V0202601N001019999999Y0099001N1+00201-00701999999ADDMA1101191999999REMMET052METAR LSZC 051350Z 26002KT CAVOK 02/M07 Q1012 NOSIG;
0079068065999992011010514204+46967+008400FM-15+0450LSZC V0209999V000519999999Y0099001N1+00201-00601999999ADDMA1101191999999REMMET052METAR LSZC 051420Z VRB01KT CAVOK 02/M06 Q1012 NOSIG;
0079068065999992011010514504+46967+008400FM-15+0450LSZC V0209999V001019999999Y0099001N1+00001-00501999999ADDMA1101191999999REMMET052METAR LSZC 051450Z VRB02KT CAVOK 00/M05 Q1012 NOSIG;
0088068065999992011010515204+46967+008400FM-15+0450LSZC V0202401N002119999999Y0099001N1-00101-00601999999ADDMA1101191999999REMMET061METAR LSZC 051520Z 24004KT 200V280 CAVOK M01/M06 Q1012 NOSIG;
0127068065999992011010607204+46967+008400FM-15+0450LSZC V0209999V001010240019N0112651N1+00001-00301999999ADDGA1081+024001999GF108991999999999999999999MA1100811999999REMMET058METAR LSZC 060720Z VRB02KT 9999 OVC080 00/M03 Q1008 NOSIG;
0135068065999992011010607504+46967+008400FM-15+0450LSZC V0202601N001510240019N0112651N1+00001-00301999999ADDGA1071+024001999GF107991999999999999999999MA1100811999999REMMET066METAR LSZC 060750Z 26003KT 220V350 9999 BKN080 00/M03 Q1008 NOSIG;
0127068065999992011010608204+46967+008400FM-15+0450LSZC V0209999V000510240019N0112651N1+00001-00301999999ADDGA1071+024001999GF107991999999999999999999MA1100811999999REMMET058METAR LSZC 060820Z VRB01KT 9999 BKN080 00/M03 Q1008 NOSIG;
0127068065999992011010608504+46967+008400FM-15+0450LSZC V0209999V001010240019N0112651N1+00101-00301999999ADDGA1071+024001999GF107991999999999999999999MA1100811999999REMMET058METAR LSZC 060850Z VRB02KT 9999 BKN080 01/M03 Q1008 NOSIG;
0150068065999992011010609204+46967+008400FM-15+0450LSZC V0202801N002110600019N0112651N1+00201-00201999999ADDGA1021+024001999GA2071+060001999GF107991999999999999999999MA1100811999999REMMET065METAR LSZC 060920Z 28004KT 9999 FEW080 BKN200 02/M02 Q1008 NOSIG;
0150068065999992011010609504+46967+008400FM-15+0450LSZC V0209999V001010600019N0112651N1+00201-00201999999ADDGA1021+024001999GA2071+060001999GF107991999999999999999999MA1100811999999REMMET065METAR LSZC 060950Z VRB02KT 9999 FEW080 BKN200 02/M02 Q1008 NOSIG;
0127068065999992011010610204+46967+008400FM-15+0450LSZC V0209999V000512200019N0112651N1+00201-00201999999ADDGA1021+024001999GF102991999999999999999999MA1100811999999REMMET058METAR LSZC 061020Z VRB01KT 9999 FEW080 02/M02 Q1008 NOSIG;
0127068065999992011010610504+46967+008400FM-15+0450LSZC V0209999V001012200019N0112651N1+00301-00201999999ADDGA1041+030001999GF104991999999999999999999MA1100811999999REMMET058METAR LSZC 061050Z VRB02KT 9999 SCT100 03/M02 Q1008 NOSIG;
0127068065999992011010612204+46967+008400FM-15+0450LSZC V0209999V001010240019N0112651N1+00401-00201999999ADDGA1071+024001999GF107991999999999999999999MA1100811999999REMMET058METAR LSZC 061220Z VRB02KT 9999 BKN087 04/M02 Q1008 NOSIG;
0127068065999992011010612504+46967+008400FM-15+0450LSZC V0209999V001512200019N0112651N1+00601-00201999999ADDGA1041+024001999GF104991999999999999999999MA1100711999999REMMET058METAR LSZC 061250Z VRB03KT 9999 SCT087 06/M02 Q1007 NOSIG;
0127068065999992011010613204+46967+008400FM-15+0450LSZC V0209999V001012200019N0112651N1+00601-00201999999ADDGA1041+024001999GF104991999999999999999999MA1100711999999REMMET058METAR LSZC 061320Z VRB02KT 9999 SCT087 06/M02 Q1007 NOSIG;
0127068065999992011010613504+46967+008400FM-15+0450LSZC V0209999C000012200019N0112651N1+00701-00201999999ADDGA1041+030001999GF104991999999999999999999MA1100711999999REMMET058METAR LSZC 061350Z 00000KT 9999 SCT100 07/M02 Q1007 NOSIG;
0127068065999992011010614204+46967+008400FM-15+0450LSZC V0209999V000512200019N0112651N1+00601-00201999999ADDGA1041+030001999GF104991999999999999999999MA1100811999999REMMET058METAR LSZC 061420Z VRB01KT 9999 SCT100 06/M02 Q1008 NOSIG;
0127068065999992011010614504+46967+008400FM-15+0450LSZC V0209999V000510300019N0112651N1+00601-00201999999ADDGA1071+030001999GF107991999999999999999999MA1100811999999REMMET058METAR LSZC 061450Z VRB01KT 9999 BKN100 06/M02 Q1008 NOSIG;
0127068065999992011010615204+46967+008400FM-15+0450LSZC V0202701N002110300019N0112651N1+00401-00101999999ADDGA1071+030001999GF107991999999999999999999MA1100811999999REMMET058METAR LSZC 061520Z 27004KT 9999 BKN100 04/M01 Q1008 NOSIG;
0126068065999992011010706504+46967+008400FM-15+0450LSZC V0202501N004110300019N0112651N1+00301+00301999999ADDGA1071+030001999GF107991999999999999999999MA1101191999999REMMET057METAR LSZC 070650Z 25008KT 9999 BKN100 03/03 Q1012 NOSIG;
0126068065999992011010707204+46967+008400FM-15+0450LSZC V0202601N003610300019N0112651N1+00401+00301999999ADDGA1071+030001999GF107991999999999999999999MA1101191999999REMMET057METAR LSZC 070720Z 26007KT 9999 BKN100 04/03 Q1012 NOSIG;
0134068065999992011010707504+46967+008400FM-15+0450LSZC V0202901N001510300019N0112651N1+00301+00201999999ADDGA1071+030001999GF107991999999999999999999MA1101191999999REMMET065METAR LSZC 070750Z 29003KT 240V020 9999 BKN100 03/02 Q1012 NOSIG;
0149068065999992011010708504+46967+008400FM-15+0450LSZC V0209999V001510300019N0112651N1+00401+00301999999ADDGA1021+000901999GA2071+030001999GF107991999999999999999999MA1101191999999REMMET064METAR LSZC 070850Z VRB03KT 9999 FEW003 BKN100 04/03 Q1012 NOSIG;
0149068065999992011010709204+46967+008400FM-15+0450LSZC V0209999V000510300019N0112651N1+00401+00301999999ADDGA1021+000901999GA2071+030001999GF107991999999999999999999MA1101191999999REMMET064METAR LSZC 070920Z VRB01KT 9999 FEW003 BKN100 04/03 Q1012 NOSIG;
0126068065999992011010709504+46967+008400FM-15+0450LSZC V0209999V000512200019N0112651N1+00401+00301999999ADDGA1041+030001999GF104991999999999999999999MA1101291999999REMMET057METAR LSZC 070950Z VRB01KT 9999 SCT100 04/03 Q1013 NOSIG;
0126068065999992011010710204+46967+008400FM-15+0450LSZC V0209999V001012200019N0112651N1+00501+00401999999ADDGA1041+030001999GF104991999999999999999999MA1101291999999REMMET057METAR LSZC 071020Z VRB02KT 9999 SCT100 05/04 Q1013 NOSIG;
0126068065999992011010712204+46967+008400FM-15+0450LSZC V0202501N003612200019N0112651N1+00701+00501999999ADDGA1041+030001999GF104991999999999999999999MA1101191999999REMMET057METAR LSZC 071220Z 25007KT 9999 SCT100 07/05 Q1012 NOSIG;
0126068065999992011010713204+46967+008400FM-15+0450LSZC V0209999V001012200019N0112651N1+00901+00601999999ADDGA1041+030001999GF104991999999999999999999MA1101191999999REMMET057METAR LSZC 071320Z VRB02KT 9999 SCT100 09/06 Q1012 NOSIG;
0126068065999992011010714204+46967+008400FM-15+0450LSZC V0202601N003112200019N0112651N1+00801+00501999999ADDGA1041+030001999GF104991999999999999999999MA1101081999999REMMET057METAR LSZC 071420Z 26006KT 9999 SCT100 08/05 Q1011 NOSIG;
0134068065999992011010714504+46967+008400FM-15+0450LSZC V0202901N002610300019N0112651N1+00701+00501999999ADDGA1071+030001999GF107991999999999999999999MA1101081999999REMMET065METAR LSZC 071450Z 29005KT 260V340 9999 BKN100 07/05 Q1011 NOSIG;
0126068065999992011010715204+46967+008400FM-15+0450LSZC V0209999V000510300019N0112651N1+00701+00501999999ADDGA1071+030001999GF107991999999999999999999MA1101191999999REMMET057METAR LSZC 071520Z VRB01KT 9999 BKN100 07/05 Q1012 NOSIG;
0149068065999992011011006504+46967+008400FM-15+0450LSZC V0202801N001010105019N0060001N1+00401+00301999999ADDGA1041+001501999GA2081+010501999GF108991999999999999999999MA1101901999999REMMET064METAR LSZC 100650Z 28002KT 6000 SCT005 OVC035 04/03 Q1019 NOSIG;
0149068065999992011011007204+46967+008400FM-15+0450LSZC V0202401N001010075019N0060001N1+00401+00301999999ADDGA1041+001501999GA2081+007501999GF108991999999999999999999MA1102001999999REMMET064METAR LSZC 100720Z 24002KT 6000 SCT005 OVC025 04/03 Q1020 NOSIG;
0149068065999992011011007504+46967+008400FM-15+0450LSZC V0202401N001010075019N0060001N1+00401+00301999999ADDGA1041+001501999GA2081+007501999GF108991999999999999999999MA1102001999999REMMET064METAR LSZC 100750Z 24002KT 6000 SCT005 OVC025 04/03 Q1020 NOSIG;
0126068065999992011011008204+46967+008400FM-15+0450LSZC V0202301N001010048019N0060001N1+00401+00301999999ADDGA1081+004801999GF108991999999999999999999MA1102001999999REMMET057METAR LSZC 100820Z 23002KT 6000 OVC016 04/03 Q1020 NOSIG;
0126068065999992011011008504+46967+008400FM-15+0450LSZC V0209999V000510048019N0060001N1+00401+00301999999ADDGA1081+004801999GF108991999999999999999999MA1102001999999REMMET057METAR LSZC 100850Z VRB01KT 6000 OVC016 04/03 Q1020 NOSIG;
0157068065999992011011009204+46967+008400FM-15+0450LSZC V0202601N001510018019N0050001N1+00401+00401999999ADDGA1071+001801999GA2081+004801999GF108991999999999999999999MA1102001999999REMMET072METAR LSZC 100920Z 26003KT 230V300 5000 BKN006 OVC016 04/04 Q1020 NOSIG;
0149068065999992011011009504+46967+008400FM-15+0450LSZC V0209999V001010021019N0050001N1+00501+00301999999ADDGA1071+002101999GA2081+004801999GF108991999999999999999999MA1102001999999REMMET064METAR LSZC 100950Z VRB02KT 5000 BKN007 OVC016 05/03 Q1020 NOSIG;
0126068065999992011011010204+46967+008400FM-15+0450LSZC V0202201N001510021019N0050001N1+00501+00401999999ADDGA1081+002101999GF108991999999999999999999MA1102001999999REMMET057METAR LSZC 101020Z 22003KT 5000 OVC007 05/04 Q1020 NOSIG;
0126068065999992011011010504+46967+008400FM-15+0450LSZC V0209999V001010021019N0050001N1+00401+00301999999ADDGA1081+002101999GF108991999999999999999999MA1102001999999REMMET057METAR LSZC 101050Z VRB02KT 5000 OVC007 04/03 Q1020 NOSIG;
0126068065999992011011012204+46967+008400FM-15+0450LSZC V0209999V000510021019N0050001N1+00501+00301999999ADDGA1081+002101999GF108991999999999999999999MA1101901999999REMMET057METAR LSZC 101220Z VRB01KT 5000 OVC007 05/03 Q1019 NOSIG;
0126068065999992011011012504+46967+008400FM-15+0450LSZC V0201701N001010021019N0050001N1+00501+00301999999ADDGA1081+002101999GF108991999999999999999999MA1101901999999REMMET057METAR LSZC 101250Z 17002KT 5000 OVC007 05/03 Q1019 NOSIG;
0126068065999992011011013204+46967+008400FM-15+0450LSZC V0209999V000510021019N0050001N1+00501+00301999999ADDGA1081+002101999GF108991999999999999999999MA1101901999999REMMET057METAR LSZC 101320Z VRB01KT 5000 OVC007 05/03 Q1019 NOSIG;
0126068065999992011011013504+46967+008400FM-15+0450LSZC V0202101N001010021019N0050001N1+00501+00301999999ADDGA1081+002101999GF108991999999999999999999MA1101801999999REMMET057METAR LSZC 101350Z 21002KT 5000 OVC007 05/03 Q1018 NOSIG;
0126068065999992011011014204+46967+008400FM-15+0450LSZC V0202001N000510021019N0050001N1+00501+00301999999ADDGA1081+002101999GF108991999999999999999999MA1101801999999REMMET057METAR LSZC 101420Z 20001KT 5000 OVC007 05/03 Q1018 NOSIG;
0126068065999992011011014504+46967+008400FM-15+0450LSZC V0202101N000510021019N0050001N1+00401+00301999999ADDGA1081+002101999GF108991999999999999999999MA1101801999999REMMET057METAR LSZC 101450Z 21001KT 5000 OVC007 04/03 Q1018 NOSIG;
0126068065999992011011015204+46967+008400FM-15+0450LSZC V0202001N001010021019N0050001N1+00401+00301999999ADDGA1081+002101999GF108991999999999999999999MA1101801999999REMMET057METAR LSZC 101520Z 20002KT 5000 OVC007 04/03 Q1018 NOSIG;
0126068065999992011011015504+46967+008400FM-15+0450LSZC V0201801N001010021019N0050001N1+00401+00301999999ADDGA1081+002101999GF108991999999999999999999MA1101801999999REMMET057METAR LSZC 101550Z 18002KT 5000 OVC007 04/03 Q1018 NOSIG;
0126068065999992011011106504+46967+008400FM-15+0450LSZC V0202701N002610051019N0060001N1+00301+00101999999ADDGA1081+005101999GF108991999999999999999999MA1101291999999REMMET057METAR LSZC 110650Z 27005KT 6000 OVC017 03/01 Q1013 NOSIG;
0126068065999992011011107204+46967+008400FM-15+0450LSZC V0202701N002110051019N0060001N1+00301+00001999999ADDGA1081+005101999GF108991999999999999999999MA1101291999999REMMET057METAR LSZC 110720Z 27004KT 6000 OVC017 03/00 Q1013 NOSIG;
0126068065999992011011107504+46967+008400FM-15+0450LSZC V0202601N001510048019N0060001N1+00301+00101999999ADDGA1081+004801999GF108991999999999999999999MA1101291999999REMMET057METAR LSZC 110750Z 26003KT 6000 OVC016 03/01 Q1013 NOSIG;
0126068065999992011011108504+46967+008400FM-15+0450LSZC V0202701N002610048019N0060001N1+00301+00001999999ADDGA1081+004801999GF108991999999999999999999MA1101191999999REMMET057METAR LSZC 110850Z 27005KT 6000 OVC016 03/00 Q1012 NOSIG;
0134068065999992011011109204+46967+008400FM-15+0450LSZC V0202301N001510045019N0070001N1+00301+00001999999ADDGA1071+004501999GF107991999999999999999999MA1101191999999REMMET065METAR LSZC 110920Z 23003KT 190V290 7000 BKN015 03/00 Q1012 NOSIG;
0126068065999992011011109504+46967+008400FM-15+0450LSZC V0202501N001510045019N0070001N1+00301+00001999999ADDGA1071+004501999GF107991999999999999999999MA1101191999999REMMET057METAR LSZC 110950Z 25003KT 7000 BKN015 03/00 Q1012 NOSIG;
0126068065999992011011110204+46967+008400FM-15+0450LSZC V0209999V000512200019N0070001N1+00401+00101999999ADDGA1041+004501999GF104991999999999999999999MA1101191999999REMMET057METAR LSZC 111020Z VRB01KT 7000 SCT015 04/01 Q1012 NOSIG;
0126068065999992011011110504+46967+008400FM-15+0450LSZC V0209999V001012200019N0070001N1+00401+00101999999ADDGA1041+004501999GF104991999999999999999999MA1101081999999REMMET057METAR LSZC 111050Z VRB02KT 7000 SCT015 04/01 Q1011 NOSIG;
0180068065999992011011112204+46967+008400FM-15+0450LSZC V0201501N00151010501CN0070001N1+00401+00101999999ADDGA1021+004501999GA2041+010501999GA3071+015001999GF107991999999999999999999MA1101021999999REMMET079METAR LSZC 111220Z 15003KT 120V180 7000 FEW015 SCT035 BKN055 04/01 Q1010 NOSIG;
0149068065999992011011112504+46967+008400FM-15+0450LSZC V0209999V001010150019N0070001N1+00501+00101999999ADDGA1041+004801999GA2071+015001999GF107991999999999999999999MA1101021999999REMMET064METAR LSZC 111250Z VRB02KT 7000 SCT016 BKN055 05/01 Q1010 NOSIG;
0149068065999992011011113204+46967+008400FM-15+0450LSZC V0209999V000510300019N0070001N1+00501+00101999999ADDGA1041+004801999GA2071+030001999GF107991999999999999999999MA1101021999999REMMET064METAR LSZC 111320Z VRB01KT 7000 SCT016 BKN100 05/01 Q1010 NOSIG;
0149068065999992011011113504+46967+008400FM-15+0450LSZC V0209999V001010300019N0070001N1+00501+00101999999ADDGA1041+005101999GA2071+030001999GF107991999999999999999999MA1101021999999REMMET064METAR LSZC 111350Z VRB02KT 7000 SCT017 BKN100 05/01 Q1010 NOSIG;
0149068065999992011011114204+46967+008400FM-15+0450LSZC V0209999C000010300019N0070001N1+00501+00101999999ADDGA1021+005101999GA2071+030001999GF107991999999999999999999MA1101081999999REMMET064METAR LSZC 111420Z 00000KT 7000 FEW017 BKN100 05/01 Q1011 NOSIG;
0149068065999992011011114504+46967+008400FM-15+0450LSZC V0209999V000510300019N0070001N1+00401+00101999999ADDGA1021+005101999GA2071+030001999GF107991999999999999999999MA1101081999999REMMET064METAR LSZC 111450Z VRB01KT 7000 FEW017 BKN100 04/01 Q1011 NOSIG;
0149068065999992011011115204+46967+008400FM-15+0450LSZC V0209999V000510300019N0070001N1+00401+00101999999ADDGA1021+005101999GA2071+030001999GF107991999999999999999999MA1101081999999REMMET064METAR LSZC 111520Z VRB01KT 7000 FEW017 BKN100 04/01 Q1011 NOSIG;
0149068065999992011011115504+46967+008400FM-15+0450LSZC V0209999V000510300019N0070001N1+00401+00101999999ADDGA1021+005101999GA2071+030001999GF107991999999999999999999MA1101191999999REMMET064METAR LSZC 111550Z VRB01KT 7000 FEW017 BKN100 04/01 Q1012 NOSIG;
0149068065999992011011206504+46967+008400FM-15+0450LSZC V0202501N002110120019N0070001N1+00301+00201999999ADDGA1071+012001999GA2071+015001999GF107991999999999999999999MA1102201999999REMMET064METAR LSZC 120650Z 25004KT 7000 BKN040 BKN055 03/02 Q1022 NOSIG;
0126068065999992011011207204+46967+008400FM-15+0450LSZC V0209999V001510135019N0090001N1+00301+00201999999ADDGA1071+013501999GF107991999999999999999999MA1102201999999REMMET057METAR LSZC 120720Z VRB03KT 9000 BKN045 03/02 Q1022 NOSIG;
0126068065999992011011207504+46967+008400FM-15+0450LSZC V0209999V000510135019N0090001N1+00201+00101999999ADDGA1071+013501999GF107991999999999999999999MA1102201999999REMMET057METAR LSZC 120750Z VRB01KT 9000 BKN045 02/01 Q1022 NOSIG;
0149068065999992011011208204+46967+008400FM-15+0450LSZC V0209999V001010300019N0090001N1+00301+00201999999ADDGA1041+012001999GA2081+030001999GF108991999999999999999999MA1102201999999REMMET064METAR LSZC 120820Z VRB02KT 9000 SCT040 OVC100 03/02 Q1022 NOSIG;
0149068065999992011011208504+46967+008400FM-15+0450LSZC V0202301N001010300019N0090001N1+00301+00201999999ADDGA1041+012001999GA2081+030001999GF108991999999999999999999MA1102201999999REMMET064METAR LSZC 120850Z 23002KT 9000 SCT040 OVC100 03/02 Q1022 NOSIG;
0149068065999992011011209204+46967+008400FM-15+0450LSZC V0209999V001010300019N0090001N1+00401+00301999999ADDGA1041+012001999GA2081+030001999GF108991999999999999999999MA1102201999999REMMET064METAR LSZC 120920Z VRB02KT 9000 SCT040 OVC100 04/03 Q1022 NOSIG;
0149068065999992011011210204+46967+008400FM-15+0450LSZC V0209999V000510210019N0090001N1+00501+00301999999ADDGA1041+006001999GA2081+021001999GF108991999999999999999999MA1102301999999REMMET064METAR LSZC 121020Z VRB01KT 9000 SCT020 OVC070 05/03 Q1023 NOSIG;
0149068065999992011011210504+46967+008400FM-15+0450LSZC V0209999C000010210019N0090001N1+00601+00401999999ADDGA1041+006001999GA2081+021001999GF108991999999999999999999MA1102301999999REMMET064METAR LSZC 121050Z 00000KT 9000 SCT020 OVC070 06/04 Q1023 NOSIG;
0149068065999992011011212204+46967+008400FM-15+0450LSZC V0202401N001010210019N0090001N1+00601+00401999999ADDGA1041+006001999GA2081+021001999GF108991999999999999999999MA1102201999999REMMET064METAR LSZC 121220Z 24002KT 9000 SCT020 OVC070 06/04 Q1022 NOSIG;
0149068065999992011011212504+46967+008400FM-15+0450LSZC V0209999V000510330019N0090001N1+00601+00401999999ADDGA1021+006001999GA2081+033001999GF108991999999999999999999MA1102201999999REMMET064METAR LSZC 121250Z VRB01KT 9000 FEW020 OVC110 06/04 Q1022 NOSIG;
0149068065999992011011213204+46967+008400FM-15+0450LSZC V0209999V001010330019N0090001N1+00601+00401999999ADDGA1021+006001999GA2081+033001999GF108991999999999999999999MA1102201999999REMMET064METAR LSZC 121320Z VRB02KT 9000 FEW020 OVC110 06/04 Q1022 NOSIG;
0149068065999992011011213504+46967+008400FM-15+0450LSZC V0209999C000010330019N0090001N1+00601+00401999999ADDGA1021+006001999GA2081+033001999GF108991999999999999999999MA1102201999999REMMET064METAR LSZC 121350Z 00000KT 9000 FEW020 OVC110 06/04 Q1022 NOSIG;
0149068065999992011011214204+46967+008400FM-15+0450LSZC V0202201N000510180019N0090001N1+00601+00401999999ADDGA1021+006001999GA2081+018001999GF108991999999999999999999MA1102201999999REMMET064METAR LSZC 121420Z 22001KT 9000 FEW020 OVC060 06/04 Q1022 NOSIG;
0149068065999992011011214504+46967+008400FM-15+0450LSZC V0209999V000510120019N0090001N1+00601+00401999999ADDGA1021+006001999GA2081+012001999GF108991999999999999999999MA1102201999999REMMET064METAR LSZC 121450Z VRB01KT 9000 FEW020 OVC040 06/04 Q1022 NOSIG;
0159068065999992011011215204+46967+008400FM-15+0450LSZC V0201201N000510105019N0070001N1+00601+00401999999ADDGA1021+003001999GA2081+010501999GF108991999999999999999999MA1102201999999MW1611REMMET068METAR LSZC 121520Z 12001KT 7000 -RA FEW010 OVC035 06/04 Q1022 NOSIG;
0159068065999992011011215504+46967+008400FM-15+0450LSZC V0209999V000510105019N0070001N1+00601+00401999999ADDGA1021+003001999GA2081+010501999GF108991999999999999999999MA1102201999999MW1611REMMET068METAR LSZC 121550Z VRB01KT 7000 -RA FEW010 OVC035 06/04 Q1022 NOSIG;
0158068065999992011011306504+46967+008400FM-15+0450LSZC V0200401N001010105019N0070001N1+00701+00601999999ADDGA1021+001501999GA2071+010501999GF107991999999999999999999MA1102101999999MW1631REMMET067METAR LSZC 130650Z 04002KT 7000 RA FEW005 BKN035 07/06 Q1021 NOSIG;
0159068065999992011011307204+46967+008400FM-15+0450LSZC V0209999V001010105019N0070001N1+00601+00601999999ADDGA1021+001501999GA2071+010501999GF107991999999999999999999MA1102101999999MW1611REMMET068METAR LSZC 130720Z VRB02KT 7000 -RA FEW005 BKN035 06/06 Q1021 NOSIG;
0159068065999992011011307504+46967+008400FM-15+0450LSZC V0200401N001510150019N0070001N1+00701+00601999999ADDGA1021+001501999GA2071+015001999GF107991999999999999999999MA1102101999999MW1611REMMET068METAR LSZC 130750Z 04003KT 7000 -RA FEW005 BKN050 07/06 Q1021 NOSIG;
0158068065999992011011308204+46967+008400FM-15+0450LSZC V0209999V000510150019N0070001N1+00701+00601999999ADDGA1021+001501999GA2081+015001999GF108991999999999999999999MA1102101999999MW1631REMMET067METAR LSZC 130820Z VRB01KT 7000 RA FEW005 OVC050 07/06 Q1021 NOSIG;
0158068065999992011011308504+46967+008400FM-15+0450LSZC V0209999V001510135019N0070001N1+00701+00601999999ADDGA1021+001501999GA2081+013501999GF108991999999999999999999MA1102101999999MW1631REMMET067METAR LSZC 130850Z VRB03KT 7000 RA FEW005 OVC045 07/06 Q1021 NOSIG;
0158068065999992011011309204+46967+008400FM-15+0450LSZC V0209999V000510135019N0070001N1+00701+00601999999ADDGA1021+001501999GA2081+013501999GF108991999999999999999999MA1102101999999MW1631REMMET067METAR LSZC 130920Z VRB01KT 7000 RA FEW005 OVC045 07/06 Q1021 NOSIG;
0167068065999992011011309504+46967+008400FM-15+0450LSZC V0200701N002610180019N0112651N1+00801+00701999999ADDGA1021+001501999GA2081+018001999GF108991999999999999999999MA1102101999999MW1611REMMET076METAR LSZC 130950Z 07005KT 030V120 9999 -RA FEW005 OVC060 08/07 Q1021 NOSIG;
0159068065999992011011310504+46967+008400FM-15+0450LSZC V0200501N002610180019N0112651N1+00801+00701999999ADDGA1021+001501999GA2081+018001999GF108991999999999999999999MA1102101999999MW1611REMMET068METAR LSZC 131050Z 05005KT 9999 -RA FEW005 OVC060 08/07 Q1021 NOSIG;
0157068065999992011011312204+46967+008400FM-15+0450LSZC V0202601N001510180019N0112651N1+00901+00801999999ADDGA1021+001501999GA2081+018001999GF108991999999999999999999MA1102101999999REMMET072METAR LSZC 131220Z 26003KT 200V310 9999 FEW005 OVC060 09/08 Q1021 NOSIG;
0149068065999992011011312504+46967+008400FM-15+0450LSZC V0209999V000510180019N0112651N1+01001+00801999999ADDGA1021+001501999GA2081+018001999GF108991999999999999999999MA1102001999999REMMET064METAR LSZC 131250Z VRB01KT 9999 FEW005 OVC060 10/08 Q1020 NOSIG;
0149068065999992011011313204+46967+008400FM-15+0450LSZC V0209999V000510180019N0112651N1+01001+00801999999ADDGA1021+001501999GA2071+018001999GF107991999999999999999999MA1102001999999REMMET064METAR LSZC 131320Z VRB01KT 9999 FEW005 BKN060 10/08 Q1020 NOSIG;
0149068065999992011011313504+46967+008400FM-15+0450LSZC V0209999V001010180019N0112651N1+01001+00801999999ADDGA1021+001501999GA2071+018001999GF107991999999999999999999MA1102001999999REMMET064METAR LSZC 131350Z VRB02KT 9999 FEW005 BKN060 10/08 Q1020 NOSIG;
0126068065999992011011314204+46967+008400FM-15+0450LSZC V0209999C000010180019N0112651N1+01101+00801999999ADDGA1071+018001999GF107991999999999999999999MA1102001999999REMMET057METAR LSZC 131420Z 00000KT 9999 BKN060 11/08 Q1020 NOSIG;
0126068065999992011011314504+46967+008400FM-15+0450LSZC V0209999V001010180019N0112651N1+01001+00801999999ADDGA1071+018001999GF107991999999999999999999MA1102101999999REMMET057METAR LSZC 131450Z VRB02KT 9999 BKN060 10/08 Q1021 NOSIG;
0126068065999992011011315504+46967+008400FM-15+0450LSZC V0202201N001510180019N0112651N1+01001+00801999999ADDGA1071+018001999GF107991999999999999999999MA1102101999999REMMET057METAR LSZC 131550Z 22003KT 9999 BKN060 10/08 Q1021 NOSIG;
0126068065999992011011406504+46967+008400FM-15+0450LSZC V0202501N001510105019N0080001N1+00701+00601999999ADDGA1081+010501999GF108991999999999999999999MA1102201999999REMMET057METAR LSZC 140650Z 25003KT 8000 OVC035 07/06 Q1022 NOSIG;
0134068065999992011011407204+46967+008400FM-15+0450LSZC V0202601N001510105019N0080001N1+00701+00601999999ADDGA1081+010501999GF108991999999999999999999MA1102201999999REMMET065METAR LSZC 140720Z 26003KT 140V290 8000 OVC035 07/06 Q1022 NOSIG;
0126068065999992011011407504+46967+008400FM-15+0450LSZC V0201501N001010114019N0090001N1+00701+00501999999ADDGA1071+011401999GF107991999999999999999999MA1102201999999REMMET057METAR LSZC 140750Z 15002KT 9000 BKN038 07/05 Q1022 NOSIG;
0126068065999992011011408204+46967+008400FM-15+0450LSZC V0209999V001510114019N0090001N1+00701+00601999999ADDGA1071+011401999GF107991999999999999999999MA1102201999999REMMET057METAR LSZC 140820Z VRB03KT 9000 BKN038 07/06 Q1022 NOSIG;
0126068065999992011011408504+46967+008400FM-15+0450LSZC V0209999V001010114019N0090001N1+00701+00601999999ADDGA1071+011401999GF107991999999999999999999MA1102201999999REMMET057METAR LSZC 140850Z VRB02KT 9000 BKN038 07/06 Q1022 NOSIG;
0126068065999992011011412204+46967+008400FM-15+0450LSZC V0200901N001010114019N0090001N1+00901+00701999999ADDGA1071+011401999GF107991999999999999999999MA1102101999999REMMET057METAR LSZC 141220Z 09002KT 9000 BKN038 09/07 Q1021 NOSIG;
0126068065999992011011412504+46967+008400FM-15+0450LSZC V0200701N001510114019N0090001N1+01001+00701999999ADDGA1071+011401999GF107991999999999999999999MA1102001999999REMMET057METAR LSZC 141250Z 07003KT 9000 BKN038 10/07 Q1020 NOSIG;
0126068065999992011011413204+46967+008400FM-15+0450LSZC V0209999V000510114019N0090001N1+01001+00701999999ADDGA1071+011401999GF107991999999999999999999MA1102001999999REMMET057METAR LSZC 141320Z VRB01KT 9000 BKN038 10/07 Q1020 NOSIG;
0126068065999992011011413504+46967+008400FM-15+0450LSZC V0209999V001010114019N0090001N1+01001+00701999999ADDGA1071+011401999GF107991999999999999999999MA1102001999999REMMET057METAR LSZC 141350Z VRB02KT 9000 BKN038 10/07 Q1020 NOSIG;
0126068065999992011011414204+46967+008400FM-15+0450LSZC V0200501N000510114019N0090001N1+01001+00601999999ADDGA1071+011401999GF107991999999999999999999MA1102001999999REMMET057METAR LSZC 141420Z 05001KT 9000 BKN038 10/06 Q1020 NOSIG;
0126068065999992011011414504+46967+008400FM-15+0450LSZC V0209999C000010120019N0090001N1+01001+00601999999ADDGA1081+012001999GF108991999999999999999999MA1102001999999REMMET057METAR LSZC 141450Z 00000KT 9000 OVC040 10/06 Q1020 NOSIG;
0080068065999992011011706504+46967+008400FM-15+0450LSZC V0209999V001019999999Y0099001N1-00301-00401999999ADDMA1102611999999REMMET053METAR LSZC 170650Z VRB02KT CAVOK M03/M04 Q1026 NOSIG;
0080068065999992011011707204+46967+008400FM-15+0450LSZC V0202601N001019999999Y0099001N1-00201-00201999999ADDMA1102611999999REMMET053METAR LSZC 170720Z 26002KT CAVOK M02/M02 Q1026 NOSIG;
0128068065999992011011708204+46967+008400FM-15+0450LSZC V0209999V001012200019N0112651N1-00201-00301999999ADDGA1021+001501999GF102991999999999999999999MA1102611999999REMMET059METAR LSZC 170820Z VRB02KT 9999 FEW005 M02/M03 Q1026 NOSIG;
0128068065999992011011708504+46967+008400FM-15+0450LSZC V0202501N001012200019N0112651N1-00201-00201999999ADDGA1021+001501999GF102991999999999999999999MA1102611999999REMMET059METAR LSZC 170850Z 25002KT 9999 FEW005 M02/M02 Q1026 NOSIG;
0128068065999992011011709204+46967+008400FM-15+0450LSZC V0209999V001512200019N0112651N1-00201-00301999999ADDGA1021+001501999GF102991999999999999999999MA1102611999999REMMET059METAR LSZC 170920Z VRB03KT 9999 FEW005 M02/M03 Q1026 NOSIG;
0128068065999992011011709504+46967+008400FM-15+0450LSZC V0209999V000512200019N0112651N1-00101-00201999999ADDGA1021+000901999GF102991999999999999999999MA1102611999999REMMET059METAR LSZC 170950Z VRB01KT 9999 FEW003 M01/M02 Q1026 NOSIG;
0127068065999992011011710204+46967+008400FM-15+0450LSZC V0209999V000512200019N0112651N1+00001-00101999999ADDGA1021+001501999GF102991999999999999999999MA1102611999999REMMET058METAR LSZC 171020Z VRB01KT 9999 FEW005 00/M01 Q1026 NOSIG;
0078068065999992011011710504+46967+008400FM-15+0450LSZC V0209999V000519999999Y0099001N1+00401+00201999999ADDMA1102611999999REMMET051METAR LSZC 171050Z VRB01KT CAVOK 04/02 Q1026 NOSIG;
0078068065999992011011712204+46967+008400FM-15+0450LSZC V0209999V001019999999Y0099001N1+00701+00301999999ADDMA1102611999999REMMET051METAR LSZC 171220Z VRB02KT CAVOK 07/03 Q1026 NOSIG;
0086068065999992011011712504+46967+008400FM-15+0450LSZC V0200801N002119999999Y0099001N1+00601+00301999999ADDMA1102611999999REMMET059METAR LSZC 171250Z 08004KT 050V110 CAVOK 06/03 Q1026 NOSIG;
0078068065999992011011713204+46967+008400FM-15+0450LSZC V0209999V001019999999Y0099001N1+00701+00301999999ADDMA1102611999999REMMET051METAR LSZC 171320Z VRB02KT CAVOK 07/03 Q1026 NOSIG;
0086068065999992011011713504+46967+008400FM-15+0450LSZC V0200701N002119999999Y0099001N1+00601+00301999999ADDMA1102611999999REMMET059METAR LSZC 171350Z 07004KT 030V110 CAVOK 06/03 Q1026 NOSIG;
0078068065999992011011714204+46967+008400FM-15+0450LSZC V0200801N001519999999Y0099001N1+00701+00201999999ADDMA1102611999999REMMET051METAR LSZC 171420Z 08003KT CAVOK 07/02 Q1026 NOSIG;
0078068065999992011011714504+46967+008400FM-15+0450LSZC V0201301N001019999999Y0099001N1+00701+00201999999ADDMA1102611999999REMMET051METAR LSZC 171450Z 13002KT CAVOK 07/02 Q1026 NOSIG;
0078068065999992011011715204+46967+008400FM-15+0450LSZC V0209999V001019999999Y0099001N1+00501+00101999999ADDMA1102611999999REMMET051METAR LSZC 171520Z VRB02KT CAVOK 05/01 Q1026 NOSIG;
0078068065999992011011715504+46967+008400FM-15+0450LSZC V0201501N001019999999Y0099001N1+00401+00001999999ADDMA1102611999999REMMET051METAR LSZC 171550Z 15002KT CAVOK 04/00 Q1026 NOSIG;
0080068065999992011011806504+46967+008400FM-15+0450LSZC V0202801N002619999999Y0099001N1-00101-00201999999ADDMA1102711999999REMMET053METAR LSZC 180650Z 28005KT CAVOK M01/M02 Q1027 NOSIG;
0080068065999992011011807204+46967+008400FM-15+0450LSZC V0202401N001519999999Y0099001N1-00201-00301999999ADDMA1102711999999REMMET053METAR LSZC 180720Z 24003KT CAVOK M02/M03 Q1027 NOSIG;
0128068065999992011011807504+46967+008400FM-15+0450LSZC V0201801N001512200019N0112651N1-00101-00101999999ADDGA1041+036001999GF104991999999999999999999MA1102811999999REMMET059METAR LSZC 180750Z 18003KT 9999 SCT120 M01/M01 Q1028 NOSIG;
0127068065999992011011808204+46967+008400FM-15+0450LSZC V0209999V001012200019N0112651N1+00001-00201999999ADDGA1041+036001999GF104991999999999999999999MA1102811999999REMMET058METAR LSZC 180820Z VRB02KT 9999 SCT120 00/M02 Q1028 NOSIG;
0127068065999992011011808504+46967+008400FM-15+0450LSZC V0202301N000512200019N0112651N1+00001-00101999999ADDGA1041+036001999GF104991999999999999999999MA1102711999999REMMET058METAR LSZC 180850Z 23001KT 9999 SCT120 00/M01 Q1027 NOSIG;
0126068065999992011011809204+46967+008400FM-15+0450LSZC V0209999V000510300019N0112651N1+00101+00001999999ADDGA1071+030001999GF107991999999999999999999MA1102711999999REMMET057METAR LSZC 180920Z VRB01KT 9999 BKN100 01/00 Q1027 NOSIG;
0126068065999992011011809504+46967+008400FM-15+0450LSZC V0209999V000510300019N0112651N1+00301+00001999999ADDGA1071+030001999GF107991999999999999999999MA1102711999999REMMET057METAR LSZC 180950Z VRB01KT 9999 BKN100 03/00 Q1027 NOSIG;
0126068065999992011011810204+46967+008400FM-15+0450LSZC V0202401N001510300019N0112651N1+00501+00201999999ADDGA1071+030001999GF107991999999999999999999MA1102611999999REMMET057METAR LSZC 181020Z 24003KT 9999 BKN100 05/02 Q1026 NOSIG;
0126068065999992011011810504+46967+008400FM-15+0450LSZC V0209999V001010300019N0112651N1+00601+00201999999ADDGA1071+030001999GF107991999999999999999999MA1102611999999REMMET057METAR LSZC 181050Z VRB02KT 9999 BKN100 06/02 Q1026 NOSIG;
0126068065999992011011811204+46967+008400FM-15+0450LSZC V0209999V000510300019N0112651N1+00701+00201999999ADDGA1071+030001999GF107991999999999999999999MA1102511999999REMMET057METAR LSZC 181120Z VRB01KT 9999 BKN100 07/02 Q1025 NOSIG;
0126068065999992011011811504+46967+008400FM-15+0450LSZC V0209999V001010300019N0112651N1+00801+00201999999ADDGA1071+030001999GF107991999999999999999999MA1102511999999REMMET057METAR LSZC 181150Z VRB02KT 9999 BKN100 08/02 Q1025 NOSIG;
0126068065999992011011812204+46967+008400FM-15+0450LSZC V0209999V001012200019N0112651N1+00701+00101999999ADDGA1041+030001999GF104991999999999999999999MA1102511999999REMMET057METAR LSZC 181220Z VRB02KT 9999 SCT100 07/01 Q1025 NOSIG;
0126068065999992011011812504+46967+008400FM-15+0450LSZC V0200901N002112200019N0112651N1+00701+00201999999ADDGA1041+030001999GF104991999999999999999999MA1102511999999REMMET057METAR LSZC 181250Z 09004KT 9999 SCT100 07/02 Q1025 NOSIG;
0134068065999992011011813204+46967+008400FM-15+0450LSZC V0200901N001512200019N0112651N1+00701+00301999999ADDGA1041+021001999GF104991999999999999999999MA1102511999999REMMET065METAR LSZC 181320Z 09003KT 060V120 9999 SCT070 07/03 Q1025 NOSIG;
0126068065999992011011813504+46967+008400FM-15+0450LSZC V0201201N001012200019N0112651N1+00701+00201999999ADDGA1041+021001999GF104991999999999999999999MA1102511999999REMMET057METAR LSZC 181350Z 12002KT 9999 SCT070 07/02 Q1025 NOSIG;
0126068065999992011011814204+46967+008400FM-15+0450LSZC V0209999V001012200019N0112651N1+00701+00301999999ADDGA1041+024001999GF104991999999999999999999MA1102401999999REMMET057METAR LSZC 181420Z VRB02KT 9999 SCT080 07/03 Q1024 NOSIG;
0126068065999992011011814504+46967+008400FM-15+0450LSZC V0209999C000012200019N0112651N1+00701+00201999999ADDGA1041+024001999GF104991999999999999999999MA1102401999999REMMET057METAR LSZC 181450Z 00000KT 9999 SCT080 07/02 Q1024 NOSIG;
0126068065999992011011815204+46967+008400FM-15+0450LSZC V0200601N000512200019N0112651N1+00701+00301999999ADDGA1041+024001999GF104991999999999999999999MA1102511999999REMMET057METAR LSZC 181520Z 06001KT 9999 SCT080 07/03 Q1025 NOSIG;
0126068065999992011011815504+46967+008400FM-15+0450LSZC V0209999V001010240019N0112651N1+00601+00201999999ADDGA1071+024001999GF107991999999999999999999MA1102511999999REMMET057METAR LSZC 181550Z VRB02KT 9999 BKN080 06/02 Q1025 NOSIG;
0126068065999992011011906504+46967+008400FM-15+0450LSZC V0209999V001010090019N0050001N1+00301+00201999999ADDGA1071+009001999GF107991999999999999999999MA1102611999999REMMET057METAR LSZC 190650Z VRB02KT 5000 BKN030 03/02 Q1026 NOSIG;
0126068065999992011011907204+46967+008400FM-15+0450LSZC V0209999V001510090019N0050001N1+00501+00201999999ADDGA1071+009001999GF107991999999999999999999MA1102611999999REMMET057METAR LSZC 190720Z VRB03KT 5000 BKN030 05/02 Q1026 NOSIG;
0126068065999992011011907504+46967+008400FM-15+0450LSZC V0209999V001010090019N0050001N1+00501+00201999999ADDGA1071+009001999GF107991999999999999999999MA1102611999999REMMET057METAR LSZC 190750Z VRB02KT 5000 BKN030 05/02 Q1026 NOSIG;
0134068065999992011011908204+46967+008400FM-15+0450LSZC V0203201N006210090019N0050001N1+00501+00101999999ADDGA1071+009001999GF107991999999999999999999MA1102611999999REMMET065METAR LSZC 190820Z 32012KT 260V350 5000 BKN030 05/01 Q1026 NOSIG;
0134068065999992011011908504+46967+008400FM-15+0450LSZC V0203201N007210090019N0050001N1+00401+00101999999ADDGA1071+009001999GF107991999999999999999999MA1102611999999REMMET065METAR LSZC 190850Z 32014KT 290V360 5000 BKN030 04/01 Q1026 NOSIG;
0126068065999992011011909204+46967+008400FM-15+0450LSZC V0203201N007210090019N0050001N1+00401+00101999999ADDGA1071+009001999GF107991999999999999999999MA1102611999999REMMET057METAR LSZC 190920Z 32014KT 5000 BKN030 04/01 Q1026 NOSIG;
0136068065999992011011909504+46967+008400FM-15+0450LSZC V0203301N005110024019N0050001N1+00301+00101999999ADDGA1081+002401999GF108991999999999999999999MA1102711999999MW1611REMMET061METAR LSZC 190950Z 33010KT 5000 -RA OVC008 03/01 Q1027 NOSIG;
0135068065999992011011910204+46967+008400FM-15+0450LSZC V0209999V002110015019N0035001N1+00201+00001999999ADDGA1081+001501999GF108991999999999999999999MA1102711999999MW1731REMMET060METAR LSZC 191020Z VRB04KT 3500 SN OVC005 02/00 Q1027 NOSIG;
0144068065999992011011910504+46967+008400FM-15+0450LSZC V0202601N003610015019N0035001N1+00201+00101999999ADDGA1081+001501999GF108991999999999999999999MA1102711999999MW1611REMMET069METAR LSZC 191050Z 26007KT 210V330 3500 -RA OVC005 02/01 Q1027 NOSIG;
0136068065999992011011912204+46967+008400FM-15+0450LSZC V0202201N001510015019N0035001N1+00201+00101999999ADDGA1081+001501999GF108991999999999999999999MA1102711999999MW1611REMMET061METAR LSZC 191220Z 22003KT 3500 -RA OVC005 02/01 Q1027 NOSIG;
0136068065999992011011912504+46967+008400FM-15+0450LSZC V0209999V001010015019N0035001N1+00201+00101999999ADDGA1081+001501999GF108991999999999999999999MA1102711999999MW1611REMMET061METAR LSZC 191250Z VRB02KT 3500 -RA OVC005 02/01 Q1027 NOSIG;
0136068065999992011011913204+46967+008400FM-15+0450LSZC V0209999V000510015019N0035001N1+00201+00101999999ADDGA1081+001501999GF108991999999999999999999MA1102711999999MW1611REMMET061METAR LSZC 191320Z VRB01KT 3500 -RA OVC005 02/01 Q1027 NOSIG;
0136068065999992011011913504+46967+008400FM-15+0450LSZC V0209999V001510015019N0035001N1+00201+00101999999ADDGA1081+001501999GF108991999999999999999999MA1102711999999MW1611REMMET061METAR LSZC 191350Z VRB03KT 3500 -RA OVC005 02/01 Q1027 NOSIG;
0136068065999992011011914204+46967+008400FM-15+0450LSZC V0202601N002110015019N0035001N1+00201+00101999999ADDGA1081+001501999GF108991999999999999999999MA1102711999999MW1611REMMET061METAR LSZC 191420Z 26004KT 3500 -RA OVC005 02/01 Q1027 NOSIG;
0143068065999992011011915204+46967+008400FM-15+0450LSZC V0203501N003110021019N0045001N1+00201+00001999999ADDGA1081+002101999GF108991999999999999999999MA1102711999999MW1731REMMET068METAR LSZC 191520Z 35006KT 270V060 4500 SN OVC007 02/00 Q1027 NOSIG;
0151068065999992011012006504+46967+008400FM-15+0450LSZC V0202501N001510150019N0080001N1-00301-00401999999ADDGA1041+009001999GA2081+015001999GF108991999999999999999999MA1102401999999REMMET066METAR LSZC 200650Z 25003KT 8000 SCT030 OVC055 M03/M04 Q1024 NOSIG;
0128068065999992011012007504+46967+008400FM-15+0450LSZC V0209999V001010090019N0070001N1-00201-00301999999ADDGA1081+009001999GF108991999999999999999999MA1102401999999REMMET059METAR LSZC 200750Z VRB02KT 7000 OVC030 M02/M03 Q1024 NOSIG;
0128068065999992011012008204+46967+008400FM-15+0450LSZC V0209999V000510060019N0070001N1-00201-00301999999ADDGA1081+006001999GF108991999999999999999999MA1102401999999REMMET059METAR LSZC 200820Z VRB01KT 7000 OVC020 M02/M03 Q1024 NOSIG;
0137068065999992011012008504+46967+008400FM-15+0450LSZC V0202501N001010045019N0050001N1-00201-00301999999ADDGA1081+004501999GF108991999999999999999999MA1102401999999MW1101REMMET062METAR LSZC 200850Z 25002KT 5000 BR OVC015 M02/M03 Q1024 NOSIG;
0137068065999992011012009204+46967+008400FM-15+0450LSZC V0202601N001010045019N0030001N1-00201-00301999999ADDGA1081+004501999GF108991999999999999999999MA1102401999999MW1101REMMET062METAR LSZC 200920Z 26002KT 3000 BR OVC015 M02/M03 Q1024 NOSIG;
0137068065999992011012009504+46967+008400FM-15+0450LSZC V0202501N001510045019N0030001N1-00201-00301999999ADDGA1081+004501999GF108991999999999999999999MA1102401999999MW1101REMMET062METAR LSZC 200950Z 25003KT 3000 BR OVC015 M02/M03 Q1024 NOSIG;
0137068065999992011012010204+46967+008400FM-15+0450LSZC V0202601N001010045019N0030001N1-00101-00201999999ADDGA1081+004501999GF108991999999999999999999MA1102401999999MW1101REMMET062METAR LSZC 201020Z 26002KT 3000 BR OVC015 M01/M02 Q1024 NOSIG;
0147068065999992011012010504+46967+008400FM-15+0450LSZC V0202601N001010045019N0030001N1-00101-00201999999ADDGA1081+004501999GF108991999999999999999999MA1102401999999MW1101MW2711REMMET066METAR LSZC 201050Z 26002KT 3000 BR -SN OVC015 M01/M02 Q1024 NOSIG;
0136068065999992011012012204+46967+008400FM-15+0450LSZC V0201001N001010012019N0020001N1+00001-00201999999ADDGA1081+001201999GF108991999999999999999999MA1102401999999MW1731REMMET061METAR LSZC 201220Z 10002KT 2000 SN OVC004 00/M02 Q1024 NOSIG;
0138068065999992011012012504+46967+008400FM-15+0450LSZC V0209999V001010003019N0005001N1-00101-00201999999ADDGA1081+000301999GF108991999999999999999999MA1102401999999MW1751REMMET063METAR LSZC 201250Z VRB02KT 0500 +SN OVC001 M01/M02 Q1024 NOSIG;
0137068065999992011012013204+46967+008400FM-15+0450LSZC V0209999V000510006019N0010001N1-00101-00101999999ADDGA1081+000601999GF108991999999999999999999MA1102401999999MW1731REMMET062METAR LSZC 201320Z VRB01KT 1000 SN OVC002 M01/M01 Q1024 NOSIG;
0136068065999992011012013504+46967+008400FM-15+0450LSZC V0202301N001510030019N0050001N1-00101-00201999999ADDGA1071+003001999GF107991999999999999999999MA1102401999999REMMET067METAR LSZC 201350Z 23003KT 200V280 5000 BKN010 M01/M02 Q1024 NOSIG;
0159068065999992011012014204+46967+008400FM-15+0450LSZC V0202201N002110030019N0080001N1-00101-00201999999ADDGA1071+003001999GA2081+004501999GF108991999999999999999999MA1102401999999REMMET074METAR LSZC 201420Z 22004KT 160V280 8000 BKN010 OVC015 M01/M02 Q1024 NOSIG;
0150068065999992011012015504+46967+008400FM-15+0450LSZC V0209999V001010036019N0040001N1+00001-00301999999ADDGA1071+003601999GA2081+004501999GF108991999999999999999999MA1102401999999REMMET065METAR LSZC 201550Z VRB02KT 4000 BKN012 OVC015 00/M03 Q1024 NOSIG;
0158068065999992011012106504+46967+008400FM-15+0450LSZC V0203601N003610036019N0060001N1+00001-00501999999ADDGA1071+003601999GA2081+010501999GF108991999999999999999999MA1102511999999REMMET073METAR LSZC 210650Z 36007KT 320V040 6000 BKN012 OVC035 00/M05 Q1025 NOSIG;
0159068065999992011012107204+46967+008400FM-15+0450LSZC V0200101N003610036019N0080001N1-00101-00501999999ADDGA1071+003601999GA2081+010501999GF108991999999999999999999MA1102611999999REMMET074METAR LSZC 210720Z 01007KT 330V060 8000 BKN012 OVC035 M01/M05 Q1026 NOSIG;
0158068065999992011012107504+46967+008400FM-15+0450LSZC V0200101N004610036019N0112651N1+00001-00501999999ADDGA1071+003601999GA2071+010501999GF107991999999999999999999MA1102611999999REMMET073METAR LSZC 210750Z 01009KT 340V040 9999 BKN012 BKN035 00/M05 Q1026 NOSIG;
0158068065999992011012108504+46967+008400FM-15+0450LSZC V0203601N003110036019N0112651N1+00001-00501999999ADDGA1071+003601999GA2071+010501999GF107991999999999999999999MA1102611999999REMMET073METAR LSZC 210850Z 36006KT 330V050 9999 BKN012 BKN035 00/M05 Q1026 NOSIG;
0158068065999992011012109204+46967+008400FM-15+0450LSZC V0200201N004110111019N0112651N1+00001-00501999999ADDGA1041+004501999GA2071+011101999GF107991999999999999999999MA1102611999999REMMET073METAR LSZC 210920Z 02008KT 330V050 9999 SCT015 BKN037 00/M05 Q1026 NOSIG;
0158068065999992011012109504+46967+008400FM-15+0450LSZC V0200101N003610099019N0112651N1+00001-00501999999ADDGA1041+004801999GA2071+009901999GF107991999999999999999999MA1102611999999REMMET073METAR LSZC 210950Z 01007KT 340V060 9999 SCT016 BKN033 00/M05 Q1026 NOSIG;
0169068065999992011012110204+46967+008400FM-15+0450LSZC V0203601N003610102019N0112651N1+00001-00501999999ADDGA1041+004801999GA2071+010201999GF107991999999999999999999MA1102611999999OC100931REMMET076METAR LSZC 211020Z 36007G18KT 320V080 9999 SCT016 BKN034 00/M05 Q1026 NOSIG;
0158068065999992011012110504+46967+008400FM-15+0450LSZC V0200101N003610111019N0112651N1+00001-00501999999ADDGA1041+004801999GA2071+011101999GF107991999999999999999999MA1102611999999REMMET073METAR LSZC 211050Z 01007KT 330V050 9999 SCT016 BKN037 00/M05 Q1026 NOSIG;
0158068065999992011012111204+46967+008400FM-15+0450LSZC V0203601N004610120019N0112651N1+00001-00501999999ADDGA1041+005101999GA2071+012001999GF107991999999999999999999MA1102611999999REMMET073METAR LSZC 211120Z 36009KT 310V050 9999 SCT017 BKN040 00/M05 Q1026 NOSIG;
0158068065999992011012112204+46967+008400FM-15+0450LSZC V0200101N003110120019N0112651N1+00001-00501999999ADDGA1041+005101999GA2071+012001999GF107991999999999999999999MA1102611999999REMMET073METAR LSZC 211220Z 01006KT 330V050 9999 SCT017 BKN040 00/M05 Q1026 NOSIG;
0158068065999992011012113504+46967+008400FM-15+0450LSZC V0200301N003110120019N0112651N1+00001-00601999999ADDGA1041+005101999GA2071+012001999GF107991999999999999999999MA1102611999999REMMET073METAR LSZC 211350Z 03006KT 340V100 9999 SCT017 BKN040 00/M06 Q1026 NOSIG;
0158068065999992011012114204+46967+008400FM-15+0450LSZC V0200301N004610108019N0112651N1+00001-00601999999ADDGA1041+005401999GA2071+010801999GF107991999999999999999999MA1102611999999REMMET073METAR LSZC 211420Z 03009KT 340V070 9999 SCT018 BKN036 00/M06 Q1026 NOSIG;
0169068065999992011012114504+46967+008400FM-15+0450LSZC V0203601N003110102019N0112651N1+00001-00601999999ADDGA1041+005401999GA2071+010201999GF107991999999999999999999MA1102611999999OC100821REMMET076METAR LSZC 211450Z 36006G16KT 260V060 9999 SCT018 BKN034 00/M06 Q1026 NOSIG;
0170068065999992011012115204+46967+008400FM-15+0450LSZC V0203201N005110126019N0112651N1-00101-00601999999ADDGA1041+005401999GA2071+012601999GF107991999999999999999999MA1102611999999OC101231REMMET077METAR LSZC 211520Z 32010G24KT 260V070 9999 SCT018 BKN042 M01/M06 Q1026 NOSIG;
0162068065999992011012115504+46967+008400FM-15+0450LSZC V0209999V003610099019N0112651N1-00101-00601999999ADDGA1041+005401999GA2071+009901999GF107991999999999999999999MA1102611999999OC100981REMMET069METAR LSZC 211550Z VRB07G19KT 9999 SCT018 BKN033 M01/M06 Q1026 NOSIG;
0151068065999992011012406504+46967+008400FM-15+0450LSZC V0202401N002110039019N0070001N1-00601-00801999999ADDGA1071+003901999GA2081+015001999GF108991999999999999999999MA1102511999999REMMET066METAR LSZC 240650Z 24004KT 7000 BKN013 OVC050 M06/M08 Q1025 NOSIG;
0151068065999992011012407204+46967+008400FM-15+0450LSZC V0202501N002610039019N0050001N1-00601-00801999999ADDGA1071+003901999GA2081+015001999GF108991999999999999999999MA1102511999999REMMET066METAR LSZC 240720Z 25005KT 5000 BKN013 OVC050 M06/M08 Q1025 NOSIG;
0151068065999992011012408204+46967+008400FM-15+0450LSZC V0202401N002110039019N0050001N1-00501-00801999999ADDGA1071+003901999GA2081+015001999GF108991999999999999999999MA1102511999999REMMET066METAR LSZC 240820Z 24004KT 5000 BKN013 OVC050 M05/M08 Q1025 NOSIG;
0151068065999992011012408504+46967+008400FM-15+0450LSZC V0202401N002110180019N0050001N1-00501-00701999999ADDGA1041+003901999GA2081+018001999GF108991999999999999999999MA1102511999999REMMET066METAR LSZC 240850Z 24004KT 5000 SCT013 OVC060 M05/M07 Q1025 NOSIG;
0151068065999992011012409204+46967+008400FM-15+0450LSZC V0202501N002110180019N0060001N1-00501-00801999999ADDGA1041+003901999GA2081+018001999GF108991999999999999999999MA1102511999999REMMET066METAR LSZC 240920Z 25004KT 6000 SCT013 OVC060 M05/M08 Q1025 NOSIG;
0151068065999992011012409504+46967+008400FM-15+0450LSZC V0202401N002610150019N0060001N1-00401-00701999999ADDGA1021+004801999GA2081+015001999GF108991999999999999999999MA1102511999999REMMET066METAR LSZC 240950Z 24005KT 6000 FEW016 OVC052 M04/M07 Q1025 NOSIG;
0151068065999992011012410204+46967+008400FM-15+0450LSZC V0202401N002110240019N0070001N1-00401-00701999999ADDGA1021+004801999GA2081+024001999GF108991999999999999999999MA1102511999999REMMET066METAR LSZC 241020Z 24004KT 7000 FEW016 OVC088 M04/M07 Q1025 NOSIG;
0174068065999992011012410504+46967+008400FM-15+0450LSZC V0209999V00151010801CN0050001N1-00301-00701999999ADDGA1021+004801999GA2041+010801999GA3081+024001999GF108991999999999999999999MA1102401999999REMMET073METAR LSZC 241050Z VRB03KT 5000 FEW016 SCT036 OVC088 M03/M07 Q1024 NOSIG;
0127068065999992011012412204+46967+008400FM-15+0450LSZC V0209999V000512200019N0080001N1+00001-00601999999ADDGA1041+018001999GF104991999999999999999999MA1102301999999REMMET058METAR LSZC 241220Z VRB01KT 8000 SCT060 00/M06 Q1023 NOSIG;
0128068065999992011012413204+46967+008400FM-15+0450LSZC V0209999V001012200019N0080001N1-00101-00601999999ADDGA1041+018001999GF104991999999999999999999MA1102201999999REMMET059METAR LSZC 241320Z VRB02KT 8000 SCT060 M01/M06 Q1022 NOSIG;
0128068065999992011012413504+46967+008400FM-15+0450LSZC V0209999V001012200019N0080001N1-00101-00601999999ADDGA1041+018001999GF104991999999999999999999MA1102201999999REMMET059METAR LSZC 241350Z VRB02KT 8000 SCT060 M01/M06 Q1022 NOSIG;
0127068065999992011012414204+46967+008400FM-15+0450LSZC V0209999C000012200019N0070001N1+00001-00501999999ADDGA1041+030001999GF104991999999999999999999MA1102201999999REMMET058METAR LSZC 241420Z 00000KT 7000 SCT100 00/M05 Q1022 NOSIG;
0127068065999992011012414504+46967+008400FM-15+0450LSZC V0209999V000512200019N0070001N1+00001-00601999999ADDGA1041+030001999GF104991999999999999999999MA1102201999999REMMET058METAR LSZC 241450Z VRB01KT 7000 SCT100 00/M06 Q1022 NOSIG;
0128068065999992011012415204+46967+008400FM-15+0450LSZC V0201701N001010300019N0060001N1-00101-00501999999ADDGA1071+030001999GF107991999999999999999999MA1102201999999REMMET059METAR LSZC 241520Z 17002KT 6000 BKN100 M01/M05 Q1022 NOSIG;
0128068065999992011012415504+46967+008400FM-15+0450LSZC V0201801N000510300019N0050001N1-00101-00501999999ADDGA1071+030001999GF107991999999999999999999MA1102201999999REMMET059METAR LSZC 241550Z 18001KT 5000 BKN100 M01/M05 Q1022 NOSIG;
0128068065999992011012506504+46967+008400FM-15+0450LSZC V0202501N002110300019N0080001N1-00301-00501999999ADDGA1081+030001999GF108991999999999999999999MA1101901999999REMMET059METAR LSZC 250650Z 25004KT 8000 OVC100 M03/M05 Q1019 NOSIG;
0128068065999992011012507204+46967+008400FM-15+0450LSZC V0202801N002110300019N0080001N1-00301-00501999999ADDGA1081+030001999GF108991999999999999999999MA1101901999999REMMET059METAR LSZC 250720Z 28004KT 8000 OVC100 M03/M05 Q1019 NOSIG;
0138068065999992011012508504+46967+008400FM-15+0450LSZC V0202601N002110210019N0080001N1-00201-00401999999ADDGA1081+021001999GF108991999999999999999999MA1101901999999MW1711REMMET063METAR LSZC 250850Z 26004KT 8000 -SN OVC070 M02/M04 Q1019 NOSIG;
0161068065999992011012509204+46967+008400FM-15+0450LSZC V0202501N002110210019N0080001N1-00201-00401999999ADDGA1021+010501999GA2081+021001999GF108991999999999999999999MA1101901999999MW1711REMMET070METAR LSZC 250920Z 25004KT 8000 -SN FEW035 OVC070 M02/M04 Q1019 NOSIG;
0161068065999992011012510204+46967+008400FM-15+0450LSZC V0209999V001010210019N0080001N1-00101-00401999999ADDGA1021+010501999GA2081+021001999GF108991999999999999999999MA1101901999999MW1711REMMET070METAR LSZC 251020Z VRB02KT 8000 -SN FEW035 OVC070 M01/M04 Q1019 NOSIG;
0160068065999992011012510504+46967+008400FM-15+0450LSZC V0209999V000510210019N0080001N1+00001-00401999999ADDGA1021+010501999GA2081+021001999GF108991999999999999999999MA1101801999999MW1711REMMET069METAR LSZC 251050Z VRB01KT 8000 -SN FEW035 OVC070 00/M04 Q1018 NOSIG;
0160068065999992011012512204+46967+008400FM-15+0450LSZC V0209999C000010210019N0080001N1+00201-00201999999ADDGA1021+010501999GA2081+021001999GF108991999999999999999999MA1101691999999MW1711REMMET069METAR LSZC 251220Z 00000KT 8000 -SN FEW035 OVC070 02/M02 Q1017 NOSIG;
0160068065999992011012512504+46967+008400FM-15+0450LSZC V0209999C000010210019N0080001N1+00201-00201999999ADDGA1021+010501999GA2081+021001999GF108991999999999999999999MA1101591999999MW1711REMMET069METAR LSZC 251250Z 00000KT 8000 -SN FEW035 OVC070 02/M02 Q1016 NOSIG;
0160068065999992011012513204+46967+008400FM-15+0450LSZC V0209999V000510150019N0090001N1+00201-00301999999ADDGA1021+010501999GA2071+015001999GF107991999999999999999999MA1101591999999MW1711REMMET069METAR LSZC 251320Z VRB01KT 9000 -SN FEW035 BKN055 02/M03 Q1016 NOSIG;
0160068065999992011012513504+46967+008400FM-15+0450LSZC V0209999C000010150019N0090001N1+00201-00201999999ADDGA1021+010501999GA2071+015001999GF107991999999999999999999MA1101491999999MW1711REMMET069METAR LSZC 251350Z 00000KT 9000 -SN FEW035 BKN055 02/M02 Q1015 NOSIG;
0150068065999992011012514504+46967+008400FM-15+0450LSZC V0209999V000510150019N0112651N1+00201-00201999999ADDGA1021+010501999GA2071+015001999GF107991999999999999999999MA1101491999999REMMET065METAR LSZC 251450Z VRB01KT 9999 FEW035 BKN055 02/M02 Q1015 NOSIG;
0179068065999992011012606504+46967+008400FM-15+0450LSZC V0209999V001510120019N0070001N1+00001-00101999999ADDED107U99999GA1021+002401999GA2081+012001999GF108991999999999999999999MA1101021999999MW1101REMMET077METAR LSZC 260650Z VRB03KT 7000 BR FEW008 OVC040 00/M01 Q1010 R07/5930 NOSIG;
0170068065999992011012607204+46967+008400FM-15+0450LSZC V0203601N001010105019N0080001N1+00001-00101999999ADDED107U99999GA1021+002401999GA2071+010501999GF107991999999999999999999MA1101021999999REMMET074METAR LSZC 260720Z 36002KT 8000 FEW008 BKN035 00/M01 Q1010 R07/5930 NOSIG;
0170068065999992011012607504+46967+008400FM-15+0450LSZC V0201801N001010105019N0080001N1+00001-00101999999ADDED107U99999GA1021+002401999GA2071+010501999GF107991999999999999999999MA1100911999999REMMET074METAR LSZC 260750Z 18002KT 8000 FEW008 BKN035 00/M01 Q1009 R07/5925 NOSIG;
0170068065999992011012608204+46967+008400FM-15+0450LSZC V0202601N001010120019N0080001N1+00001-00201999999ADDED107U99999GA1021+002401999GA2071+012001999GF107991999999999999999999MA1100911999999REMMET074METAR LSZC 260820Z 26002KT 8000 FEW008 BKN040 00/M02 Q1009 R07/5925 NOSIG;
0178068065999992011012608504+46967+008400FM-15+0450LSZC V0202501N002110120019N0080001N1+00001-00101999999ADDED107U99999GA1021+002401999GA2081+012001999GF108991999999999999999999MA1100911999999REMMET082METAR LSZC 260850Z 25004KT 210V280 8000 FEW008 OVC040 00/M01 Q1009 R07/5920 NOSIG;
0170068065999992011012609204+46967+008400FM-15+0450LSZC V0209999V001010120019N0080001N1+00101-00101999999ADDED107U99999GA1021+002401999GA2081+012001999GF108991999999999999999999MA1100911999999REMMET074METAR LSZC 260920Z VRB02KT 8000 FEW008 OVC040 01/M01 Q1009 R07/5920 NOSIG;
0170068065999992011012609504+46967+008400FM-15+0450LSZC V0202201N002110120019N0080001N1+00101-00101999999ADDED107U99999GA1021+002401999GA2081+012001999GF108991999999999999999999MA1100911999999REMMET074METAR LSZC 260950Z 22004KT 8000 FEW008 OVC040 01/M01 Q1009 R07/5920 NOSIG;
0169068065999992011012610204+46967+008400FM-15+0450LSZC V0202301N001510180019N0080001N1+00201+00001999999ADDED107U99999GA1021+002401999GA2071+018001999GF107991999999999999999999MA1100911999999REMMET073METAR LSZC 261020Z 23003KT 8000 FEW008 BKN060 02/00 Q1009 R07/5920 NOSIG;
0150068065999992011012612204+46967+008400FM-15+0450LSZC V0209999C000010600019N0112651N1+00501-00101999999ADDGA1021+009001999GA2071+060001999GF107991999999999999999999MA1100711999999REMMET065METAR LSZC 261220Z 00000KT 9999 FEW030 BKN200 05/M01 Q1007 NOSIG;
0172068065999992011012613204+46967+008400FM-15+0450LSZC V0201001N00151018001CN0112651N1+00401+00001999999ADDGA1021+009001999GA2041+018001999GA3071+060001999GF107991999999999999999999MA1100711999999REMMET071METAR LSZC 261320Z 10003KT 9999 FEW030 SCT060 BKN200 04/00 Q1007 NOSIG;
0149068065999992011012614504+46967+008400FM-15+0450LSZC V0200701N001010600019N0112651N1+00401+00001999999ADDGA1021+009001999GA2071+060001999GF107991999999999999999999MA1100711999999REMMET064METAR LSZC 261450Z 07002KT 9999 FEW030 BKN200 04/00 Q1007 NOSIG;
0128068065999992011012707204+46967+008400FM-15+0450LSZC V0202601N003110045019N0070001N1-00101-00501999999ADDGA1081+004501999GF108991999999999999999999MA1101081999999REMMET059METAR LSZC 270720Z 26006KT 7000 OVC015 M01/M05 Q1011 NOSIG;
0136068065999992011012707504+46967+008400FM-15+0450LSZC V0202601N001510051019N0070001N1-00101-00501999999ADDGA1071+005101999GF107991999999999999999999MA1101081999999REMMET067METAR LSZC 270750Z 26003KT 230V290 7000 BKN017 M01/M05 Q1011 NOSIG;
0136068065999992011012708204+46967+008400FM-15+0450LSZC V0202601N002110051019N0070001N1-00101-00501999999ADDGA1071+005101999GF107991999999999999999999MA1101081999999REMMET067METAR LSZC 270820Z 26004KT 230V300 7000 BKN017 M01/M05 Q1011 NOSIG;
0128068065999992011012708504+46967+008400FM-15+0450LSZC V0202601N002610051019N0070001N1-00101-00501999999ADDGA1071+005101999GF107991999999999999999999MA1101081999999REMMET059METAR LSZC 270850Z 26005KT 7000 BKN017 M01/M05 Q1011 NOSIG;
0128068065999992011012709204+46967+008400FM-15+0450LSZC V0202601N002610051019N0070001N1-00101-00501999999ADDGA1071+005101999GF107991999999999999999999MA1101081999999REMMET059METAR LSZC 270920Z 26005KT 7000 BKN017 M01/M05 Q1011 NOSIG;
0127068065999992011012709504+46967+008400FM-15+0450LSZC V0202701N002610063019N0080001N1+00001-00501999999ADDGA1081+006301999GF108991999999999999999999MA1101191999999REMMET058METAR LSZC 270950Z 27005KT 8000 OVC021 00/M05 Q1012 NOSIG;
0127068065999992011012710204+46967+008400FM-15+0450LSZC V0209999V001010063019N0080001N1+00001-00401999999ADDGA1081+006301999GF108991999999999999999999MA1101191999999REMMET058METAR LSZC 271020Z VRB02KT 8000 OVC021 00/M04 Q1012 NOSIG;
0127068065999992011012712204+46967+008400FM-15+0450LSZC V0202601N002110063019N0080001N1+00201-00301999999ADDGA1071+006301999GF107991999999999999999999MA1101191999999REMMET058METAR LSZC 271220Z 26004KT 8000 BKN021 02/M03 Q1012 NOSIG;
0127068065999992011012712504+46967+008400FM-15+0450LSZC V0202601N002610063019N0080001N1+00201-00201999999ADDGA1071+006301999GF107991999999999999999999MA1101191999999REMMET058METAR LSZC 271250Z 26005KT 8000 BKN021 02/M02 Q1012 NOSIG;
0127068065999992011012713204+46967+008400FM-15+0450LSZC V0202501N002610063019N0080001N1+00201-00301999999ADDGA1071+006301999GF107991999999999999999999MA1101081999999REMMET058METAR LSZC 271320Z 25005KT 8000 BKN021 02/M03 Q1011 NOSIG;
0135068065999992011012713504+46967+008400FM-15+0450LSZC V0202501N002110063019N0080001N1+00201-00201999999ADDGA1071+006301999GF107991999999999999999999MA1101081999999REMMET066METAR LSZC 271350Z 25004KT 220V280 8000 BKN021 02/M02 Q1011 NOSIG;
0127068065999992011012714504+46967+008400FM-15+0450LSZC V0202401N001510090019N0112651N1+00201-00201999999ADDGA1071+009001999GF107991999999999999999999MA1101081999999REMMET058METAR LSZC 271450Z 24003KT 9999 BKN030 02/M02 Q1011 NOSIG;
0127068065999992011012715204+46967+008400FM-15+0450LSZC V0202401N001510090019N0112651N1+00201-00201999999ADDGA1081+009001999GF108991999999999999999999MA1101081999999REMMET058METAR LSZC 271520Z 24003KT 9999 OVC030 02/M02 Q1011 NOSIG;
0128068065999992011012806504+46967+008400FM-15+0450LSZC V0202601N002610066019N0070001N1-00101-00601999999ADDGA1071+006601999GF107991999999999999999999MA1101291999999REMMET059METAR LSZC 280650Z 26005KT 7000 BKN022 M01/M06 Q1013 NOSIG;
0135068065999992011012807204+46967+008400FM-15+0450LSZC V0202501N002110066019N0070001N1+00001-00601999999ADDGA1071+006601999GF107991999999999999999999MA1101291999999REMMET066METAR LSZC 280720Z 25004KT 210V280 7000 BKN022 00/M06 Q1013 NOSIG;
0127068065999992011012807504+46967+008400FM-15+0450LSZC V0202601N002110066019N0070001N1+00001-00501999999ADDGA1071+006601999GF107991999999999999999999MA1101291999999REMMET058METAR LSZC 280750Z 26004KT 7000 BKN022 00/M05 Q1013 NOSIG;
0127068065999992011012808204+46967+008400FM-15+0450LSZC V0202701N002110066019N0070001N1+00001-00601999999ADDGA1071+006601999GF107991999999999999999999MA1101291999999REMMET058METAR LSZC 280820Z 27004KT 7000 BKN022 00/M06 Q1013 NOSIG;
0127068065999992011012808504+46967+008400FM-15+0450LSZC V0202701N002610066019N0070001N1+00001-00501999999ADDGA1071+006601999GF107991999999999999999999MA1101391999999REMMET058METAR LSZC 280850Z 27005KT 7000 BKN022 00/M05 Q1014 NOSIG;
0127068065999992011012810204+46967+008400FM-15+0450LSZC V0202501N001010075019N0070001N1+00001-00501999999ADDGA1081+007501999GF108991999999999999999999MA1101391999999REMMET058METAR LSZC 281020Z 25002KT 7000 OVC025 00/M05 Q1014 NOSIG;
0127068065999992011012810504+46967+008400FM-15+0450LSZC V0202601N001510075019N0070001N1+00101-00401999999ADDGA1081+007501999GF108991999999999999999999MA1101391999999REMMET058METAR LSZC 281050Z 26003KT 7000 OVC025 01/M04 Q1014 NOSIG;
0127068065999992011012812204+46967+008400FM-15+0450LSZC V0209999V001010075019N0070001N1+00201-00301999999ADDGA1071+007501999GF107991999999999999999999MA1101391999999REMMET058METAR LSZC 281220Z VRB02KT 7000 BKN025 02/M03 Q1014 NOSIG;
0135068065999992011012813204+46967+008400FM-15+0450LSZC V0203201N002110075019N0070001N1+00201-00301999999ADDGA1071+007501999GF107991999999999999999999MA1101391999999REMMET066METAR LSZC 281320Z 32004KT 280V010 7000 BKN025 02/M03 Q1014 NOSIG;
0127068065999992011012813504+46967+008400FM-15+0450LSZC V0209999V001510075019N0070001N1+00201-00301999999ADDGA1071+007501999GF107991999999999999999999MA1101391999999REMMET058METAR LSZC 281350Z VRB03KT 7000 BKN025 02/M03 Q1014 NOSIG;
0127068065999992011012814204+46967+008400FM-15+0450LSZC V0209999V001010075019N0070001N1+00201-00401999999ADDGA1081+007501999GF108991999999999999999999MA1101391999999REMMET058METAR LSZC 281420Z VRB02KT 7000 OVC025 02/M04 Q1014 NOSIG;
0135068065999992011012814504+46967+008400FM-15+0450LSZC V0203101N002110075019N0070001N1+00201-00301999999ADDGA1081+007501999GF108991999999999999999999MA1101391999999REMMET066METAR LSZC 281450Z 31004KT 270V360 7000 OVC025 02/M03 Q1014 NOSIG;
0135068065999992011012815204+46967+008400FM-15+0450LSZC V0203301N003110075019N0070001N1+00201-00301999999ADDGA1081+007501999GF108991999999999999999999MA1101391999999REMMET066METAR LSZC 281520Z 33006KT 290V350 7000 OVC025 02/M03 Q1014 NOSIG;
0137068065999992011013106504+46967+008400FM-15+0450LSZC V0202301N002110036019N0035001N1-00201-00501999999ADDGA1081+003601999GF108991999999999999999999MA1101901999999MW1101REMMET062METAR LSZC 310650Z 23004KT 3500 BR OVC012 M02/M05 Q1019 NOSIG;
0137068065999992011013107204+46967+008400FM-15+0450LSZC V0202401N002610036019N0035001N1-00201-00501999999ADDGA1081+003601999GF108991999999999999999999MA1101901999999MW1101REMMET062METAR LSZC 310720Z 24005KT 3500 BR OVC012 M02/M05 Q1019 NOSIG;
0137068065999992011013107504+46967+008400FM-15+0450LSZC V0202301N002610036019N0039001N1-00201-00501999999ADDGA1081+003601999GF108991999999999999999999MA1101901999999MW1101REMMET062METAR LSZC 310750Z 23005KT 3900 BR OVC012 M02/M05 Q1019 NOSIG;
0137068065999992011013108204+46967+008400FM-15+0450LSZC V0202301N002610036019N0039001N1-00201-00501999999ADDGA1081+003601999GF108991999999999999999999MA1101901999999MW1101REMMET062METAR LSZC 310820Z 23005KT 3900 BR OVC012 M02/M05 Q1019 NOSIG;
0137068065999992011013108504+46967+008400FM-15+0450LSZC V0202201N002110036019N0036001N1-00201-00501999999ADDGA1081+003601999GF108991999999999999999999MA1101901999999MW1101REMMET062METAR LSZC 310850Z 22004KT 3600 BR OVC012 M02/M05 Q1019 NOSIG;
0137068065999992011013109204+46967+008400FM-15+0450LSZC V0202301N001510039019N0036001N1-00201-00501999999ADDGA1081+003901999GF108991999999999999999999MA1102001999999MW1101REMMET062METAR LSZC 310920Z 23003KT 3600 BR OVC013 M02/M05 Q1020 NOSIG;
0145068065999992011013109504+46967+008400FM-15+0450LSZC V0202501N001510036019N0036001N1-00201-00501999999ADDGA1081+003601999GF108991999999999999999999MA1102001999999MW1101REMMET070METAR LSZC 310950Z 25003KT 210V280 3600 BR OVC012 M02/M05 Q1020 NOSIG;
0137068065999992011013110204+46967+008400FM-15+0450LSZC V0202601N002610036019N0036001N1-00201-00501999999ADDGA1081+003601999GF108991999999999999999999MA1102001999999MW1101REMMET062METAR LSZC 311020Z 26005KT 3600 BR OVC012 M02/M05 Q1020 NOSIG;
0145068065999992011013112204+46967+008400FM-15+0450LSZC V0202501N001510036019N0032001N1-00101-00401999999ADDGA1081+003601999GF108991999999999999999999MA1102001999999MW1101REMMET070METAR LSZC 311220Z 25003KT 230V290 3200 BR OVC012 M01/M04 Q1020 NOSIG;
0137068065999992011013112504+46967+008400FM-15+0450LSZC V0209999V001010042019N0032001N1-00101-00401999999ADDGA1081+004201999GF108991999999999999999999MA1102001999999MW1101REMMET062METAR LSZC 311250Z VRB02KT 3200 BR OVC014 M01/M04 Q1020 NOSIG;
0137068065999992011013113204+46967+008400FM-15+0450LSZC V0209999V001510039019N0030001N1-00101-00401999999ADDGA1081+003901999GF108991999999999999999999MA1102001999999MW1101REMMET062METAR LSZC 311320Z VRB03KT 3000 BR OVC013 M01/M04 Q1020 NOSIG;
0137068065999992011013113504+46967+008400FM-15+0450LSZC V0209999V001510042019N0034001N1-00101-00401999999ADDGA1081+004201999GF108991999999999999999999MA1102001999999MW1101REMMET062METAR LSZC 311350Z VRB03KT 3400 BR OVC014 M01/M04 Q1020 NOSIG;
0137068065999992011013114204+46967+008400FM-15+0450LSZC V0209999V001010042019N0031001N1-00101-00401999999ADDGA1081+004201999GF108991999999999999999999MA1102001999999MW1101REMMET062METAR LSZC 311420Z VRB02KT 3100 BR OVC014 M01/M04 Q1020 NOSIG;
0137068065999992011013114504+46967+008400FM-15+0450LSZC V0202601N001510039019N0033001N1-00101-00401999999ADDGA1081+003901999GF108991999999999999999999MA1102001999999MW1101REMMET062METAR LSZC 311450Z 26003KT 3300 BR OVC013 M01/M04 Q1020 NOSIG;
0137068065999992011013115204+46967+008400FM-15+0450LSZC V0209999V001510039019N0033001N1-00101-00401999999ADDGA1081+003901999GF108991999999999999999999MA1102001999999MW1101REMMET062METAR LSZC 311520Z VRB03KT 3300 BR OVC013 M01/M04 Q1020 NOSIG;
0137068065999992011013115504+46967+008400FM-15+0450LSZC V0209999V001010039019N0033001N1-00101-00401999999ADDGA1081+003901999GF108991999999999999999999MA1102001999999MW1101REMMET062METAR LSZC 311550Z VRB02KT 3300 BR OVC013 M01/M04 Q1020 NOSIG;
0137068065999992011020107204+46967+008400FM-15+0450LSZC V0202301N002110036019N0033001N1-00201-00501999999ADDGA1081+003601999GF108991999999999999999999MA1102301999999MW1101REMMET062METAR LSZC 010720Z 23004KT 3300 BR OVC012 M02/M05 Q1023 NOSIG;
0137068065999992011020107504+46967+008400FM-15+0450LSZC V0202501N002110036019N0033001N1-00201-00501999999ADDGA1081+003601999GF108991999999999999999999MA1102401999999MW1101REMMET062METAR LSZC 010750Z 25004KT 3300 BR OVC012 M02/M05 Q1024 NOSIG;
0145068065999992011020108504+46967+008400FM-15+0450LSZC V0202501N001510036019N0033001N1-00201-00501999999ADDGA1081+003601999GF108991999999999999999999MA1102511999999MW1101REMMET070METAR LSZC 010850Z 25003KT 210V290 3300 BR OVC012 M02/M05 Q1025 NOSIG;
0145068065999992011020109204+46967+008400FM-15+0450LSZC V0202501N001510033019N0038001N1-00201-00501999999ADDGA1081+003301999GF108991999999999999999999MA1102511999999MW1101REMMET070METAR LSZC 010920Z 25003KT 210V290 3800 BR OVC011 M02/M05 Q1025 NOSIG;
0137068065999992011020109504+46967+008400FM-15+0450LSZC V0209999V001510033019N0038001N1-00201-00501999999ADDGA1081+003301999GF108991999999999999999999MA1102511999999MW1101REMMET062METAR LSZC 010950Z VRB03KT 3800 BR OVC011 M02/M05 Q1025 NOSIG;
0137068065999992011020110204+46967+008400FM-15+0450LSZC V0202601N001510036019N0034001N1-00201-00501999999ADDGA1081+003601999GF108991999999999999999999MA1102611999999MW1101REMMET062METAR LSZC 011020Z 26003KT 3400 BR OVC012 M02/M05 Q1026 NOSIG;
0137068065999992011020110504+46967+008400FM-15+0450LSZC V0209999V001010036019N0032001N1-00201-00501999999ADDGA1081+003601999GF108991999999999999999999MA1102611999999MW1101REMMET062METAR LSZC 011050Z VRB02KT 3200 BR OVC012 M02/M05 Q1026 NOSIG;
0145068065999992011020112204+46967+008400FM-15+0450LSZC V0202801N001510042019N0032001N1-00201-00401999999ADDGA1081+004201999GF108991999999999999999999MA1102511999999MW1101REMMET070METAR LSZC 011220Z 28003KT 240V320 3200 BR OVC014 M02/M04 Q1025 NOSIG;
0137068065999992011020112504+46967+008400FM-15+0450LSZC V0202501N002110045019N0035001N1-00101-00401999999ADDGA1081+004501999GF108991999999999999999999MA1102511999999MW1101REMMET062METAR LSZC 011250Z 25004KT 3500 BR OVC015 M01/M04 Q1025 NOSIG;
0137068065999992011020113204+46967+008400FM-15+0450LSZC V0209999V001010045019N0037001N1-00101-00501999999ADDGA1081+004501999GF108991999999999999999999MA1102511999999MW1101REMMET062METAR LSZC 011320Z VRB02KT 3700 BR OVC015 M01/M05 Q1025 NOSIG;
0137068065999992011020113504+46967+008400FM-15+0450LSZC V0209999V001010045019N0037001N1-00101-00401999999ADDGA1081+004501999GF108991999999999999999999MA1102511999999MW1101REMMET062METAR LSZC 011350Z VRB02KT 3700 BR OVC015 M01/M04 Q1025 NOSIG;
0137068065999992011020114204+46967+008400FM-15+0450LSZC V0209999V001010045019N0037001N1-00101-00401999999ADDGA1081+004501999GF108991999999999999999999MA1102511999999MW1101REMMET062METAR LSZC 011420Z VRB02KT 3700 BR OVC015 M01/M04 Q1025 NOSIG;
0137068065999992011020114504+46967+008400FM-15+0450LSZC V0209999V001510045019N0037001N1-00101-00401999999ADDGA1081+004501999GF108991999999999999999999MA1102511999999MW1101REMMET062METAR LSZC 011450Z VRB03KT 3700 BR OVC015 M01/M04 Q1025 NOSIG;
0137068065999992011020115204+46967+008400FM-15+0450LSZC V0209999V000510048019N0037001N1-00101-00401999999ADDGA1081+004801999GF108991999999999999999999MA1102511999999MW1101REMMET062METAR LSZC 011520Z VRB01KT 3700 BR OVC016 M01/M04 Q1025 NOSIG;
0137068065999992011020206504+46967+008400FM-15+0450LSZC V0202401N002110042019N0037001N1-00201-00501999999ADDGA1081+004201999GF108991999999999999999999MA1102911999999MW1101REMMET062METAR LSZC 020650Z 24004KT 3700 BR OVC014 M02/M05 Q1029 NOSIG;
0137068065999992011020207204+46967+008400FM-15+0450LSZC V0202501N002610042019N0040001N1-00201-00501999999ADDGA1081+004201999GF108991999999999999999999MA1102911999999MW1101REMMET062METAR LSZC 020720Z 25005KT 4000 BR OVC014 M02/M05 Q1029 NOSIG;
0137068065999992011020207504+46967+008400FM-15+0450LSZC V0202401N002610042019N0040001N1-00201-00501999999ADDGA1081+004201999GF108991999999999999999999MA1103011999999MW1101REMMET062METAR LSZC 020750Z 24005KT 4000 BR OVC014 M02/M05 Q1030 NOSIG;
0137068065999992011020209204+46967+008400FM-15+0450LSZC V0202401N002110042019N0040001N1-00201-00501999999ADDGA1081+004201999GF108991999999999999999999MA1103011999999MW1101REMMET062METAR LSZC 020920Z 24004KT 4000 BR OVC014 M02/M05 Q1030 NOSIG;
0137068065999992011020209504+46967+008400FM-15+0450LSZC V0202201N002610042019N0030001N1-00201-00501999999ADDGA1081+004201999GF108991999999999999999999MA1103011999999MW1101REMMET062METAR LSZC 020950Z 22005KT 3000 BR OVC014 M02/M05 Q1030 NOSIG;
0145068065999992011020210204+46967+008400FM-15+0450LSZC V0202501N001510039019N0030001N1-00201-00401999999ADDGA1081+003901999GF108991999999999999999999MA1103011999999MW1101REMMET070METAR LSZC 021020Z 25003KT 210V310 3000 BR OVC013 M02/M04 Q1030 NOSIG;
0137068065999992011020210504+46967+008400FM-15+0450LSZC V0202201N002610042019N0032001N1-00201-00401999999ADDGA1081+004201999GF108991999999999999999999MA1103011999999MW1101REMMET062METAR LSZC 021050Z 22005KT 3200 BR OVC014 M02/M04 Q1030 NOSIG;
0137068065999992011020212204+46967+008400FM-15+0450LSZC V0202601N002610042019N0032001N1-00101-00501999999ADDGA1081+004201999GF108991999999999999999999MA1103011999999MW1101REMMET062METAR LSZC 021220Z 26005KT 3200 BR OVC014 M01/M05 Q1030 NOSIG;
0145068065999992011020212504+46967+008400FM-15+0450LSZC V0202501N001510042019N0032001N1-00101-00501999999ADDGA1081+004201999GF108991999999999999999999MA1102911999999MW1101REMMET070METAR LSZC 021250Z 25003KT 230V290 3200 BR OVC014 M01/M05 Q1029 NOSIG;
0137068065999992011020213504+46967+008400FM-15+0450LSZC V0209999V001510042019N0032001N1-00101-00401999999ADDGA1081+004201999GF108991999999999999999999MA1102911999999MW1101REMMET062METAR LSZC 021350Z VRB03KT 3200 BR OVC014 M01/M04 Q1029 NOSIG;
0137068065999992011020214204+46967+008400FM-15+0450LSZC V0209999V000510048019N0040001N1-00101-00401999999ADDGA1081+004801999GF108991999999999999999999MA1102911999999MW1101REMMET062METAR LSZC 021420Z VRB01KT 4000 BR OVC016 M01/M04 Q1029 NOSIG;
0137068065999992011020214504+46967+008400FM-15+0450LSZC V0209999V001010048019N0045001N1-00101-00401999999ADDGA1081+004801999GF108991999999999999999999MA1102911999999MW1101REMMET062METAR LSZC 021450Z VRB02KT 4500 BR OVC016 M01/M04 Q1029 NOSIG;
0137068065999992011020215204+46967+008400FM-15+0450LSZC V0209999V001510048019N0045001N1-00101-00501999999ADDGA1081+004801999GF108991999999999999999999MA1102911999999MW1101REMMET062METAR LSZC 021520Z VRB03KT 4500 BR OVC016 M01/M05 Q1029 NOSIG;
0137068065999992011020215504+46967+008400FM-15+0450LSZC V0209999C000010051019N0045001N1-00101-00401999999ADDGA1071+005101999GF107991999999999999999999MA1102911999999MW1101REMMET062METAR LSZC 021550Z 00000KT 4500 BR BKN017 M01/M04 Q1029 NOSIG;
0137068065999992011020306504+46967+008400FM-15+0450LSZC V0202501N003110024019N0020001N1-00401-00501999999ADDGA1081+002401999GF108991999999999999999999MA1103011999999MW1101REMMET062METAR LSZC 030650Z 25006KT 2000 BR OVC008 M04/M05 Q1030 NOSIG;
0137068065999992011020307204+46967+008400FM-15+0450LSZC V0202401N002110024019N0020001N1-00401-00501999999ADDGA1081+002401999GF108991999999999999999999MA1103011999999MW1101REMMET062METAR LSZC 030720Z 24004KT 2000 BR OVC008 M04/M05 Q1030 NOSIG;
0137068065999992011020307504+46967+008400FM-15+0450LSZC V0202401N002610024019N0020001N1-00401-00501999999ADDGA1081+002401999GF108991999999999999999999MA1103011999999MW1101REMMET062METAR LSZC 030750Z 24005KT 2000 BR OVC008 M04/M05 Q1030 NOSIG;
0137068065999992011020308204+46967+008400FM-15+0450LSZC V0202601N003610024019N0020001N1-00301-00501999999ADDGA1081+002401999GF108991999999999999999999MA1103011999999MW1101REMMET062METAR LSZC 030820Z 26007KT 2000 BR OVC008 M03/M05 Q1030 NOSIG;
0137068065999992011020308504+46967+008400FM-15+0450LSZC V0202501N003110024019N0020001N1-00401-00501999999ADDGA1081+002401999GF108991999999999999999999MA1103011999999MW1101REMMET062METAR LSZC 030850Z 25006KT 2000 BR OVC008 M04/M05 Q1030 NOSIG;
0137068065999992011020310204+46967+008400FM-15+0450LSZC V0202501N002610024019N0020001N1-00301-00401999999ADDGA1081+002401999GF108991999999999999999999MA1103121999999MW1101REMMET062METAR LSZC 031020Z 25005KT 2000 BR OVC008 M03/M04 Q1031 NOSIG;
0137068065999992011020310504+46967+008400FM-15+0450LSZC V0202401N002110024019N0020001N1-00201-00401999999ADDGA1081+002401999GF108991999999999999999999MA1103121999999MW1101REMMET062METAR LSZC 031050Z 24004KT 2000 BR OVC008 M02/M04 Q1031 NOSIG;
0137068065999992011020312204+46967+008400FM-15+0450LSZC V0209999V001010024019N0025001N1-00101-00301999999ADDGA1071+002401999GF107991999999999999999999MA1103011999999MW1101REMMET062METAR LSZC 031220Z VRB02KT 2500 BR BKN008 M01/M03 Q1030 NOSIG;
0136068065999992011020312504+46967+008400FM-15+0450LSZC V0209999V001010024019N0045001N1+00001-00401999999ADDGA1071+002401999GF107991999999999999999999MA1103011999999MW1101REMMET061METAR LSZC 031250Z VRB02KT 4500 BR BKN008 00/M04 Q1030 NOSIG;
0136068065999992011020313204+46967+008400FM-15+0450LSZC V0209999V000512200019N0045001N1+00001-00301999999ADDGA1021+002401999GF102991999999999999999999MA1103011999999MW1101REMMET061METAR LSZC 031320Z VRB01KT 4500 BR FEW008 00/M03 Q1030 NOSIG;
0117068065999992011020313504+46967+008400FM-15+0450LSZC V0209999V000512200019N0050001N1+00101-00301999999ADDGF100991999999999999999999MA1102911999999MW1101REMMET058METAR LSZC 031350Z VRB01KT 5000 BR NSC 01/M03 Q1029 NOSIG;
0117068065999992011020314204+46967+008400FM-15+0450LSZC V0209999C000012200019N0050001N1+00101-00301999999ADDGF100991999999999999999999MA1102911999999MW1101REMMET058METAR LSZC 031420Z 00000KT 5000 BR NSC 01/M03 Q1029 NOSIG;
0117068065999992011020314504+46967+008400FM-15+0450LSZC V0209999C000012200019N0050001N1+00101-00301999999ADDGF100991999999999999999999MA1102911999999MW1101REMMET058METAR LSZC 031450Z 00000KT 5000 BR NSC 01/M03 Q1029 NOSIG;
0117068065999992011020315204+46967+008400FM-15+0450LSZC V0209999C000012200019N0050001N1+00101-00301999999ADDGF100991999999999999999999MA1102911999999MW1101REMMET058METAR LSZC 031520Z 00000KT 5000 BR NSC 01/M03 Q1029 NOSIG;
0151068065999992011020406504+46967+008400FM-15+0450LSZC V0209999V000510240019N0112651N1-00201-00301999999ADDGA1021+012001999GA2071+024001999GF107991999999999999999999MA1103121999999REMMET066METAR LSZC 040650Z VRB01KT 9999 FEW040 BKN080 M02/M03 Q1031 NOSIG;
0168068065999992011020407504+46967+008400FM-15+0450LSZC V0209999V001012200019N0112651N1-00101-00301999999ADDGA1021+001201999GA2041+024001999GF104991999999999999999999MA1103181999999MW1401REMMET077METAR LSZC 040750Z VRB02KT 9999 4500E VCFG FEW004 SCT080 M01/M03 Q1032 NOSIG;
0167068065999992011020408204+46967+008400FM-15+0450LSZC V0209999V000512200019N0112651N1+00001-00201999999ADDGA1021+001201999GA2041+024001999GF104991999999999999999999MA1103181999999MW1401REMMET076METAR LSZC 040820Z VRB01KT 9999 4500E VCFG FEW004 SCT080 00/M02 Q1032 NOSIG;
0127068065999992011020408504+46967+008400FM-15+0450LSZC V0202701N001512200019N0112651N1+00001-00201999999ADDGA1041+027001999GF104991999999999999999999MA1103181999999REMMET058METAR LSZC 040850Z 27003KT 9999 SCT090 00/M02 Q1032 NOSIG;
0079068065999992011020409504+46967+008400FM-15+0450LSZC V0209999V000519999999Y0099001N1+00301-00101999999ADDMA1103181999999REMMET052METAR LSZC 040950Z VRB01KT CAVOK 03/M01 Q1032 NOSIG;
0079068065999992011020410204+46967+008400FM-15+0450LSZC V0209999V000519999999Y0099001N1+00401-00101999999ADDMA1103181999999REMMET052METAR LSZC 041020Z VRB01KT CAVOK 04/M01 Q1032 NOSIG;
0079068065999992011020410504+46967+008400FM-15+0450LSZC V0209999V000519999999Y0099001N1+00501-00101999999ADDMA1103181999999REMMET052METAR LSZC 041050Z VRB01KT CAVOK 05/M01 Q1032 NOSIG;
0079068065999992011020412204+46967+008400FM-15+0450LSZC V0201101N002619999999Y0099001N1+00701-00101999999ADDMA1103121999999REMMET052METAR LSZC 041220Z 11005KT CAVOK 07/M01 Q1031 NOSIG;
0087068065999992011020412504+46967+008400FM-15+0450LSZC V0200801N001519999999Y0099001N1+00701-00101999999ADDMA1103121999999REMMET060METAR LSZC 041250Z 08003KT 020V120 CAVOK 07/M01 Q1031 NOSIG;
0087068065999992011020413204+46967+008400FM-15+0450LSZC V0201301N001519999999Y0099001N1+00801-00101999999ADDMA1103011999999REMMET060METAR LSZC 041320Z 13003KT 100V170 CAVOK 08/M01 Q1030 NOSIG;
0078068065999992011020414204+46967+008400FM-15+0450LSZC V0200701N001519999999Y0099001N1+00801+00001999999ADDMA1103011999999REMMET051METAR LSZC 041420Z 07003KT CAVOK 08/00 Q1030 NOSIG;
0078068065999992011020415204+46967+008400FM-15+0450LSZC V0209999V000519999999Y0099001N1+00801+00001999999ADDMA1103011999999REMMET051METAR LSZC 041520Z VRB01KT CAVOK 08/00 Q1030 NOSIG;
0080068065999992011020706504+46967+008400FM-15+0450LSZC V0209999V000519999999Y0099001N1-00301-00501999999ADDMA1102611999999REMMET053METAR LSZC 070650Z VRB01KT CAVOK M03/M05 Q1026 NOSIG;
0080068065999992011020707204+46967+008400FM-15+0450LSZC V0202501N001519999999Y0099001N1-00401-00601999999ADDMA1102611999999REMMET053METAR LSZC 070720Z 25003KT CAVOK M04/M06 Q1026 NOSIG;
0080068065999992011020707504+46967+008400FM-15+0450LSZC V0209999V000519999999Y0099001N1-00301-00501999999ADDMA1102611999999REMMET053METAR LSZC 070750Z VRB01KT CAVOK M03/M05 Q1026 NOSIG;
0080068065999992011020708204+46967+008400FM-15+0450LSZC V0202501N001519999999Y0099001N1-00301-00501999999ADDMA1102611999999REMMET053METAR LSZC 070820Z 25003KT CAVOK M03/M05 Q1026 NOSIG;
0080068065999992011020708504+46967+008400FM-15+0450LSZC V0202701N002119999999Y0099001N1-00101-00401999999ADDMA1102611999999REMMET053METAR LSZC 070850Z 27004KT CAVOK M01/M04 Q1026 NOSIG;
0080068065999992011020709204+46967+008400FM-15+0450LSZC V0209999V001019999999Y0099001N1-00101-00301999999ADDMA1102511999999REMMET053METAR LSZC 070920Z VRB02KT CAVOK M01/M03 Q1025 NOSIG;
0078068065999992011020709504+46967+008400FM-15+0450LSZC V0209999C000019999999Y0099001N1+00401+00001999999ADDMA1102511999999REMMET051METAR LSZC 070950Z 00000KT CAVOK 04/00 Q1025 NOSIG;
0078068065999992011020710504+46967+008400FM-15+0450LSZC V0209999C000019999999Y0099001N1+00801+00001999999ADDMA1102511999999REMMET051METAR LSZC 071050Z 00000KT CAVOK 08/00 Q1025 NOSIG;
0078068065999992011020712204+46967+008400FM-15+0450LSZC V0200701N002119999999Y0099001N1+00701+00001999999ADDMA1102401999999REMMET051METAR LSZC 071220Z 07004KT CAVOK 07/00 Q1024 NOSIG;
0078068065999992011020712504+46967+008400FM-15+0450LSZC V0200601N002119999999Y0099001N1+00701+00101999999ADDMA1102401999999REMMET051METAR LSZC 071250Z 06004KT CAVOK 07/01 Q1024 NOSIG;
0078068065999992011020713204+46967+008400FM-15+0450LSZC V0200601N002119999999Y0099001N1+00801+00001999999ADDMA1102301999999REMMET051METAR LSZC 071320Z 06004KT CAVOK 08/00 Q1023 NOSIG;
0079068065999992011020713504+46967+008400FM-15+0450LSZC V0209999V001519999999Y0099001N1+01001-00101999999ADDMA1102301999999REMMET052METAR LSZC 071350Z VRB03KT CAVOK 10/M01 Q1023 NOSIG;
0079068065999992011020714204+46967+008400FM-15+0450LSZC V0200701N002119999999Y0099001N1+00801-00101999999ADDMA1102301999999REMMET052METAR LSZC 071420Z 07004KT CAVOK 08/M01 Q1023 NOSIG;
0078068065999992011020714504+46967+008400FM-15+0450LSZC V0200601N001519999999Y0099001N1+00901+00001999999ADDMA1102301999999REMMET051METAR LSZC 071450Z 06003KT CAVOK 09/00 Q1023 NOSIG;
0078068065999992011020715204+46967+008400FM-15+0450LSZC V0200601N002619999999Y0099001N1+00801+00101999999ADDMA1102301999999REMMET051METAR LSZC 071520Z 06005KT CAVOK 08/01 Q1023 NOSIG;
0078068065999992011020715504+46967+008400FM-15+0450LSZC V0209999C000019999999Y0099001N1+01001+00001999999ADDMA1102301999999REMMET051METAR LSZC 071550Z 00000KT CAVOK 10/00 Q1023 NOSIG;
0080068065999992011020806504+46967+008400FM-15+0450LSZC V0202501N001519999999Y0099001N1-00201-00401999999ADDMA1102301999999REMMET053METAR LSZC 080650Z 25003KT CAVOK M02/M04 Q1023 NOSIG;
0080068065999992011020807204+46967+008400FM-15+0450LSZC V0209999V001519999999Y0099001N1-00101-00401999999ADDMA1102301999999REMMET053METAR LSZC 080720Z VRB03KT CAVOK M01/M04 Q1023 NOSIG;
0080068065999992011020807504+46967+008400FM-15+0450LSZC V0209999V001019999999Y0099001N1-00201-00501999999ADDMA1102301999999REMMET053METAR LSZC 080750Z VRB02KT CAVOK M02/M05 Q1023 NOSIG;
0080068065999992011020808204+46967+008400FM-15+0450LSZC V0202701N003119999999Y0099001N1-00101-00401999999ADDMA1102301999999REMMET053METAR LSZC 080820Z 27006KT CAVOK M01/M04 Q1023 NOSIG;
0087068065999992011020808504+46967+008400FM-15+0450LSZC V0202801N001519999999Y0099001N1+00001-00401999999ADDMA1102301999999REMMET060METAR LSZC 080850Z 28003KT 170V330 CAVOK 00/M04 Q1023 NOSIG;
0079068065999992011020809204+46967+008400FM-15+0450LSZC V0209999V001019999999Y0099001N1+00201-00201999999ADDMA1102401999999REMMET052METAR LSZC 080920Z VRB02KT CAVOK 02/M02 Q1024 NOSIG;
0079068065999992011020809504+46967+008400FM-15+0450LSZC V0209999V000519999999Y0099001N1+00601-00101999999ADDMA1102401999999REMMET052METAR LSZC 080950Z VRB01KT CAVOK 06/M01 Q1024 NOSIG;
0079068065999992011020810204+46967+008400FM-15+0450LSZC V0209999V001019999999Y0099001N1+00701-00101999999ADDMA1102401999999REMMET052METAR LSZC 081020Z VRB02KT CAVOK 07/M01 Q1024 NOSIG;
0078068065999992011020810504+46967+008400FM-15+0450LSZC V0209999V001019999999Y0099001N1+00701+00001999999ADDMA1102401999999REMMET051METAR LSZC 081050Z VRB02KT CAVOK 07/00 Q1024 NOSIG;
0086068065999992011020812204+46967+008400FM-15+0450LSZC V0200901N001519999999Y0099001N1+00801+00001999999ADDMA1102301999999REMMET059METAR LSZC 081220Z 09003KT 030V130 CAVOK 08/00 Q1023 NOSIG;
0078068065999992011020812504+46967+008400FM-15+0450LSZC V0200701N002619999999Y0099001N1+00801+00001999999ADDMA1102301999999REMMET051METAR LSZC 081250Z 07005KT CAVOK 08/00 Q1023 NOSIG;
0078068065999992011020813504+46967+008400FM-15+0450LSZC V0209999V001019999999Y0099001N1+01101+00001999999ADDMA1102301999999REMMET051METAR LSZC 081350Z VRB02KT CAVOK 11/00 Q1023 NOSIG;
0079068065999992011020814204+46967+008400FM-15+0450LSZC V0200801N002119999999Y0099001N1+00901-00101999999ADDMA1102201999999REMMET052METAR LSZC 081420Z 08004KT CAVOK 09/M01 Q1022 NOSIG;
0079068065999992011020814504+46967+008400FM-15+0450LSZC V0200601N001519999999Y0099001N1+01001-00101999999ADDMA1102201999999REMMET052METAR LSZC 081450Z 06003KT CAVOK 10/M01 Q1022 NOSIG;
0078068065999992011020815204+46967+008400FM-15+0450LSZC V0209999V001519999999Y0099001N1+00901+00001999999ADDMA1102201999999REMMET051METAR LSZC 081520Z VRB03KT CAVOK 09/00 Q1022 NOSIG;
0078068065999992011020815504+46967+008400FM-15+0450LSZC V0209999V001019999999Y0099001N1+00701+00001999999ADDMA1102201999999REMMET051METAR LSZC 081550Z VRB02KT CAVOK 07/00 Q1022 NOSIG;
0080068065999992011020906204+46967+008400FM-15+0450LSZC V0202601N001519999999Y0099001N1-00401-00501999999ADDMA1102201999999REMMET053METAR LSZC 090620Z 26003KT CAVOK M04/M05 Q1022 NOSIG;
0080068065999992011020906504+46967+008400FM-15+0450LSZC V0202701N002119999999Y0099001N1-00401-00601999999ADDMA1102201999999REMMET053METAR LSZC 090650Z 27004KT CAVOK M04/M06 Q1022 NOSIG;
0080068065999992011020907204+46967+008400FM-15+0450LSZC V0202801N001519999999Y0099001N1-00401-00601999999ADDMA1102201999999REMMET053METAR LSZC 090720Z 28003KT CAVOK M04/M06 Q1022 NOSIG;
0080068065999992011020907504+46967+008400FM-15+0450LSZC V0202501N001519999999Y0099001N1-00201-00401999999ADDMA1102201999999REMMET053METAR LSZC 090750Z 25003KT CAVOK M02/M04 Q1022 NOSIG;
0080068065999992011020908204+46967+008400FM-15+0450LSZC V0202501N001519999999Y0099001N1-00301-00401999999ADDMA1102201999999REMMET053METAR LSZC 090820Z 25003KT CAVOK M03/M04 Q1022 NOSIG;
0080068065999992011020908504+46967+008400FM-15+0450LSZC V0202301N002119999999Y0099001N1-00201-00401999999ADDMA1102201999999REMMET053METAR LSZC 090850Z 23004KT CAVOK M02/M04 Q1022 NOSIG;
0079068065999992011020909204+46967+008400FM-15+0450LSZC V0202301N001019999999Y0099001N1+00001-00201999999ADDMA1102201999999REMMET052METAR LSZC 090920Z 23002KT CAVOK 00/M02 Q1022 NOSIG;
0079068065999992011020909504+46967+008400FM-15+0450LSZC V0209999V000519999999Y0099001N1+00301-00101999999ADDMA1102201999999REMMET052METAR LSZC 090950Z VRB01KT CAVOK 03/M01 Q1022 NOSIG;
0078068065999992011020910204+46967+008400FM-15+0450LSZC V0209999V000519999999Y0099001N1+00501+00001999999ADDMA1102301999999REMMET051METAR LSZC 091020Z VRB01KT CAVOK 05/00 Q1023 NOSIG;
0078068065999992011020912204+46967+008400FM-15+0450LSZC V0200701N002119999999Y0099001N1+00601+00101999999ADDMA1102201999999REMMET051METAR LSZC 091220Z 07004KT CAVOK 06/01 Q1022 NOSIG;
0078068065999992011020912504+46967+008400FM-15+0450LSZC V0200701N002119999999Y0099001N1+00601+00001999999ADDMA1102201999999REMMET051METAR LSZC 091250Z 07004KT CAVOK 06/00 Q1022 NOSIG;
0086068065999992011020913204+46967+008400FM-15+0450LSZC V0200701N001519999999Y0099001N1+00601+00101999999ADDMA1102101999999REMMET059METAR LSZC 091320Z 07003KT 030V110 CAVOK 06/01 Q1021 NOSIG;
0086068065999992011020913504+46967+008400FM-15+0450LSZC V0200801N001519999999Y0099001N1+00701+00001999999ADDMA1102101999999REMMET059METAR LSZC 091350Z 08003KT 050V110 CAVOK 07/00 Q1021 NOSIG;
0078068065999992011020914204+46967+008400FM-15+0450LSZC V0200701N002119999999Y0099001N1+00701+00101999999ADDMA1102101999999REMMET051METAR LSZC 091420Z 07004KT CAVOK 07/01 Q1021 NOSIG;
0078068065999992011020914504+46967+008400FM-15+0450LSZC V0200701N002119999999Y0099001N1+00601+00001999999ADDMA1102101999999REMMET051METAR LSZC 091450Z 07004KT CAVOK 06/00 Q1021 NOSIG;
0078068065999992011020915204+46967+008400FM-15+0450LSZC V0200701N001519999999Y0099001N1+00601+00001999999ADDMA1102101999999REMMET051METAR LSZC 091520Z 07003KT CAVOK 06/00 Q1021 NOSIG;
0079068065999992011021006204+46967+008400FM-15+0450LSZC V0201801N000519999999Y0099001N1+00401-00101999999ADDMA1102101999999REMMET052METAR LSZC 100620Z 18001KT CAVOK 04/M01 Q1021 NOSIG;
0080068065999992011021006504+46967+008400FM-15+0450LSZC V0209999V001019999999Y0099001N1-00401-00501999999ADDMA1102301999999REMMET053METAR LSZC 100650Z VRB02KT CAVOK M04/M05 Q1023 NOSIG;
0080068065999992011021007204+46967+008400FM-15+0450LSZC V0209999V000519999999Y0099001N1-00501-00601999999ADDMA1102401999999REMMET053METAR LSZC 100720Z VRB01KT CAVOK M05/M06 Q1024 NOSIG;
0080068065999992011021007504+46967+008400FM-15+0450LSZC V0202201N001519999999Y0099001N1-00401-00601999999ADDMA1102401999999REMMET053METAR LSZC 100750Z 22003KT CAVOK M04/M06 Q1024 NOSIG;
0088068065999992011021008204+46967+008400FM-15+0450LSZC V0202601N001519999999Y0099001N1-00301-00501999999ADDMA1102401999999REMMET061METAR LSZC 100820Z 26003KT 220V290 CAVOK M03/M05 Q1024 NOSIG;
0080068065999992011021008504+46967+008400FM-15+0450LSZC V0202401N001019999999Y0099001N1-00301-00601999999ADDMA1102401999999REMMET053METAR LSZC 100850Z 24002KT CAVOK M03/M06 Q1024 NOSIG;
0079068065999992011021009204+46967+008400FM-15+0450LSZC V0209999V001019999999Y0099001N1+00001-00301999999ADDMA1102301999999REMMET052METAR LSZC 100920Z VRB02KT CAVOK 00/M03 Q1023 NOSIG;
0078068065999992011021009504+46967+008400FM-15+0450LSZC V0209999V000519999999Y0099001N1+00301+00001999999ADDMA1102301999999REMMET051METAR LSZC 100950Z VRB01KT CAVOK 03/00 Q1023 NOSIG;
0078068065999992011021010204+46967+008400FM-15+0450LSZC V0209999V000519999999Y0099001N1+00401+00001999999ADDMA1102301999999REMMET051METAR LSZC 101020Z VRB01KT CAVOK 04/00 Q1023 NOSIG;
0078068065999992011021012204+46967+008400FM-15+0450LSZC V0200801N002119999999Y0099001N1+00701+00001999999ADDMA1102201999999REMMET051METAR LSZC 101220Z 08004KT CAVOK 07/00 Q1022 NOSIG;
0079068065999992011021012504+46967+008400FM-15+0450LSZC V0200601N002119999999Y0099001N1+00701-00101999999ADDMA1102201999999REMMET052METAR LSZC 101250Z 06004KT CAVOK 07/M01 Q1022 NOSIG;
0078068065999992011021013204+46967+008400FM-15+0450LSZC V0200701N002119999999Y0099001N1+00801+00001999999ADDMA1102101999999REMMET051METAR LSZC 101320Z 07004KT CAVOK 08/00 Q1021 NOSIG;
0078068065999992011021013504+46967+008400FM-15+0450LSZC V0200701N002119999999Y0099001N1+00801+00001999999ADDMA1102101999999REMMET051METAR LSZC 101350Z 07004KT CAVOK 08/00 Q1021 NOSIG;
0087068065999992011021014204+46967+008400FM-15+0450LSZC V0200701N001519999999Y0099001N1+00901-00101999999ADDMA1102101999999REMMET060METAR LSZC 101420Z 07003KT 030V100 CAVOK 09/M01 Q1021 NOSIG;
0079068065999992011021014504+46967+008400FM-15+0450LSZC V0200701N001519999999Y0099001N1+00801-00201999999ADDMA1102101999999REMMET052METAR LSZC 101450Z 07003KT CAVOK 08/M02 Q1021 NOSIG;
0079068065999992011021015204+46967+008400FM-15+0450LSZC V0209999V001519999999Y0099001N1+00801-00101999999ADDMA1102101999999REMMET052METAR LSZC 101520Z VRB03KT CAVOK 08/M01 Q1021 NOSIG;
0079068065999992011021015504+46967+008400FM-15+0450LSZC V0209999V001019999999Y0099001N1+00801-00401999999ADDMA1102101999999REMMET052METAR LSZC 101550Z VRB02KT CAVOK 08/M04 Q1021 NOSIG;
0150068065999992011021106504+46967+008400FM-15+0450LSZC V0202301N002110240019N0112651N1+00201-00201999999ADDGA1041+021001999GA2071+024001999GF107991999999999999999999MA1101901999999REMMET065METAR LSZC 110650Z 23004KT 9999 SCT070 BKN083 02/M02 Q1019 NOSIG;
0150068065999992011021107204+46967+008400FM-15+0450LSZC V0203101N00211027001CN0112651N1+00301-00201999999ADDGA1041+027001999GA2071+027001999GF107991999999999999999999MA1101901999999REMMET065METAR LSZC 110720Z 31004KT 9999 SCT090 BKN098 03/M02 Q1019 NOSIG;
0150068065999992011021107504+46967+008400FM-15+0450LSZC V0202601N001010270019N0112651N1+00301-00201999999ADDGA1041+024001999GA2071+027001999GF107991999999999999999999MA1101901999999REMMET065METAR LSZC 110750Z 26002KT 9999 SCT088 BKN098 03/M02 Q1019 NOSIG;
0150068065999992011021108204+46967+008400FM-15+0450LSZC V0209999V001010270019N0112651N1+00301-00101999999ADDGA1041+024001999GA2071+027001999GF107991999999999999999999MA1101901999999REMMET065METAR LSZC 110820Z VRB02KT 9999 SCT088 BKN098 03/M01 Q1019 NOSIG;
0149068065999992011021108504+46967+008400FM-15+0450LSZC V0209999V001010270019N0112651N1+00401+00001999999ADDGA1041+024001999GA2071+027001999GF107991999999999999999999MA1101901999999REMMET064METAR LSZC 110850Z VRB02KT 9999 SCT086 BKN098 04/00 Q1019 NOSIG;
0149068065999992011021109204+46967+008400FM-15+0450LSZC V0209999V000510270019N0112651N1+00501+00001999999ADDGA1041+024001999GA2071+027001999GF107991999999999999999999MA1101901999999REMMET064METAR LSZC 110920Z VRB01KT 9999 SCT086 BKN098 05/00 Q1019 NOSIG;
