0154068065999992010010407204+46967+008400FM-15+0450LSZC V0202301N001010075019N0040001N1-00401-00601999999ADDGA1021+003601999GA2081+007501999GF108991999999999999999999MA1101291999999MW1731REMMET063METAR LSZC 040720Z 23002KT 4000 SN FEW012 OVC025 M04/M06 Q1013;
0154068065999992010010407504+46967+008400FM-15+0450LSZC V0209999V000510105019N0050001N1-00401-00601999999ADDGA1041+004501999GA2081+010501999GF108991999999999999999999MA1101391999999MW1731REMMET063METAR LSZC 040750Z VRB01KT 5000 SN SCT015 OVC035 M04/M06 Q1014;
0154068065999992010010408504+46967+008400FM-15+0450LSZC V0202201N001510045019N0040001N1-00401-00601999999ADDGA1071+004501999GA2081+012001999GF108991999999999999999999MA1101391999999MW1731REMMET063METAR LSZC 040850Z 22003KT 4000 SN BKN015 OVC040 M04/M06 Q1014;
0155068065999992010010409204+46967+008400FM-15+0450LSZC V0202401N001510045019N0040001N1-00401-00601999999ADDGA1071+004501999GA2081+012001999GF108991999999999999999999MA1101391999999MW1711REMMET064METAR LSZC 040920Z 24003KT 4000 -SN BKN015 OVC040 M04/M06 Q1014;
0154068065999992010010409504+46967+008400FM-15+0450LSZC V0202501N001010045019N0035001N1-00401-00501999999ADDGA1071+004501999GA2081+012001999GF108991999999999999999999MA1101391999999MW1731REMMET063METAR LSZC 040950Z 25002KT 3500 SN BKN015 OVC040 M04/M05 Q1014;
0154068065999992010010410204+46967+008400FM-15+0450LSZC V0202401N001510045019N0035001N1-00401-00501999999ADDGA1071+004501999GA2081+012001999GF108991999999999999999999MA1101291999999MW1731REMMET063METAR LSZC 041020Z 24003KT 3500 SN BKN015 OVC040 M04/M05 Q1013;
0130068065999992010010410504+46967+008400FM-15+0450LSZC V0202401N002110024019N0015001N1-00401-00501999999ADDGA1091+002401999GF109991999999000251999999MA1101291999999MW1731REMMET055METAR LSZC 041050Z 24004KT 1500 SN VV008 M04/M05 Q1013;
0131068065999992010010412504+46967+008400FM-15+0450LSZC V0202501N001010030019N0015001N1-00301-00401999999ADDGA1081+003001999GF108991999999999999999999MA1101081999999MW1731REMMET056METAR LSZC 041250Z 25002KT 1500 SN OVC010 M03/M04 Q1011;
0131068065999992010010414204+46967+008400FM-15+0450LSZC V0202601N001010030019N0015001N1-00301-00401999999ADDGA1081+003001999GF108991999999999999999999MA1101081999999MW1731REMMET056METAR LSZC 041420Z 26002KT 1500 SN OVC010 M03/M04 Q1011;
0131068065999992010010414504+46967+008400FM-15+0450LSZC V0202701N001010030019N0015001N1-00301-00401999999ADDGA1081+003001999GF108991999999999999999999MA1101081999999MW1731REMMET056METAR LSZC 041450Z 27002KT 1500 SN OVC010 M03/M04 Q1011;
0131068065999992010010415204+46967+008400FM-15+0450LSZC V0202601N001010030019N0015001N1-00301-00401999999ADDGA1081+003001999GF108991999999999999999999MA1101081999999MW1731REMMET056METAR LSZC 041520Z 26002KT 1500 SN OVC010 M03/M04 Q1011;
0132068065999992010010415504+46967+008400FM-15+0450LSZC V0202801N000510045019N0020001N1-00301-00401999999ADDGA1081+004501999GF108991999999999999999999MA1101081999999MW1711REMMET057METAR LSZC 041550Z 28001KT 2000 -SN OVC015 M03/M04 Q1011;
0131068065999992010010506504+46967+008400FM-15+0450LSZC V0202301N002110045019N0020001N1-00401-00501999999ADDGA1081+004501999GF108991999999999999999999MA1100511999999REMMET062METAR LSZC 050650Z 23004KT 2000 OVC015 M04/M05 Q1005 88//////;
0131068065999992010010507204+46967+008400FM-15+0450LSZC V0202601N001010045019N0020001N1-00401-00501999999ADDGA1081+004501999GF108991999999999999999999MA1100511999999REMMET062METAR LSZC 050720Z 26002KT 2000 OVC015 M04/M05 Q1005 88//////;
0131068065999992010010508204+46967+008400FM-15+0450LSZC V0202101N002110045019N0020001N1-00401-00501999999ADDGA1081+004501999GF108991999999999999999999MA1100511999999REMMET062METAR LSZC 050820Z 21004KT 2000 OVC015 M04/M05 Q1005 88//////;
0131068065999992010010508504+46967+008400FM-15+0450LSZC V0209999V001510045019N0020001N1-00401-00601999999ADDGA1081+004501999GF108991999999999999999999MA1100511999999REMMET062METAR LSZC 050850Z VRB03KT 2000 OVC015 M04/M06 Q1005 88//////;
0140068065999992010010509504+46967+008400FM-15+0450LSZC V0202401N001010036019N0030001N1-00301-00501999999ADDGA1081+003601999GF108991999999999999999999MA1100411999999MW1101REMMET065METAR LSZC 050950Z 24002KT 3000 BR OVC012 M03/M05 Q1004 88//////;
0140068065999992010010510504+46967+008400FM-15+0450LSZC V0202501N001010030019N0030001N1-00301-00501999999ADDGA1081+003001999GF108991999999999999999999MA1100311999999MW1101REMMET065METAR LSZC 051050Z 25002KT 3000 BR OVC010 M03/M05 Q1003 88//////;
0140068065999992010010512204+46967+008400FM-15+0450LSZC V0209999V001010030019N0025001N1-00201-00501999999ADDGA1081+003001999GF108991999999999999999999MA1100201999999MW1101REMMET065METAR LSZC 051220Z VRB02KT 2500 BR OVC010 M02/M05 Q1002 074915//;
0140068065999992010010512504+46967+008400FM-15+0450LSZC V0209999V001010030019N0025001N1-00301-00501999999ADDGA1081+003001999GF108991999999999999999999MA1100201999999MW1101REMMET065METAR LSZC 051250Z VRB02KT 2500 BR OVC010 M03/M05 Q1002 074915//;
0140068065999992010010513504+46967+008400FM-15+0450LSZC V0202501N000510030019N0025001N1-00201-00501999999ADDGA1081+003001999GF108991999999999999999999MA1100101999999MW1101REMMET065METAR LSZC 051350Z 25001KT 2500 BR OVC010 M02/M05 Q1001 074915//;
0140068065999992010010514504+46967+008400FM-15+0450LSZC V0202401N001010030019N0025001N1-00201-00401999999ADDGA1081+003001999GF108991999999999999999999MA1100101999999MW1101REMMET065METAR LSZC 051450Z 24002KT 2500 BR OVC010 M02/M04 Q1001 074915//;
0140068065999992010010515504+46967+008400FM-15+0450LSZC V0202401N001510036019N0025001N1-00301-00401999999ADDGA1081+003601999GF108991999999999999999999MA1100101999999MW1101REMMET065METAR LSZC 051550Z 24003KT 2500 BR OVC012 M03/M04 Q1001 074915//;
0140068065999992010010607204+46967+008400FM-15+0450LSZC V0209999V001010030019N0025001N1-00301-00401999999ADDGA1081+003001999GF108991999999999999999999MA1100001999999MW1101REMMET065METAR LSZC 060720Z VRB02KT 2500 BR OVC010 M03/M04 Q1000 88//////;
0150068065999992010010607504+46967+008400FM-15+0450LSZC V0202601N002110030019N0020001N1-00201-00401999999ADDGA1081+003001999GF108991999999999999999999MA1100001999999MW1101MW2711REMMET069METAR LSZC 060750Z 26004KT 2000 BR -SN OVC010 M02/M04 Q1000 88//////;
0150068065999992010010608504+46967+008400FM-15+0450LSZC V0209999C000010030019N0020001N1-00201-00401999999ADDGA1081+003001999GF108991999999999999999999MA1100001999999MW1101MW2711REMMET069METAR LSZC 060850Z 00000KT 2000 BR -SN OVC010 M02/M04 Q1000 88//////;
0150068065999992010010609204+46967+008400FM-15+0450LSZC V0209999C000010030019N0020001N1-00201-00301999999ADDGA1081+003001999GF108991999999999999999999MA1100101999999MW1101MW2711REMMET069METAR LSZC 060920Z 00000KT 2000 BR -SN OVC010 M02/M03 Q1001 88//////;
0150068065999992010010609504+46967+008400FM-15+0450LSZC V0209999V000510030019N0020001N1-00201-00401999999ADDGA1081+003001999GF108991999999999999999999MA1100101999999MW1101MW2511REMMET069METAR LSZC 060950Z VRB01KT 2000 BR -DZ OVC010 M02/M04 Q1001 88//////;
0150068065999992010010610204+46967+008400FM-15+0450LSZC V0209999V001510036019N0020001N1-00201-00401999999ADDGA1081+003601999GF108991999999999999999999MA1100101999999MW1101MW2511REMMET069METAR LSZC 061020Z VRB03KT 2000 BR -DZ OVC012 M02/M04 Q1001 88//////;
0140068065999992010010610504+46967+008400FM-15+0450LSZC V0202901N000510039019N0020001N1-00201-00301999999ADDGA1081+003901999GF108991999999999999999999MA1100101999999MW1101REMMET065METAR LSZC 061050Z 29001KT 2000 BR OVC013 M02/M03 Q1001 88//////;
0154068065999992010010612504+46967+008400FM-15+0450LSZC V0209999V000510045019N0035001N1-00201-00401999999ADDGA1041+003001999GA2081+004501999GF108991999999999999999999MA1100001999999MW1101REMMET063METAR LSZC 061250Z VRB01KT 3500 BR SCT010 OVC015 M02/M04 Q1000;
0154068065999992010010613504+46967+008400FM-15+0450LSZC V0202001N000510045019N0035001N1-00201-00401999999ADDGA1041+003001999GA2081+004501999GF108991999999999999999999MA1100001999999MW1101REMMET063METAR LSZC 061350Z 20001KT 3500 BR SCT010 OVC015 M02/M04 Q1000;
0154068065999992010010614504+46967+008400FM-15+0450LSZC V0202501N001010045019N0035001N1-00101-00301999999ADDGA1041+003001999GA2081+004501999GF108991999999999999999999MA1100101999999MW1101REMMET063METAR LSZC 061450Z 25002KT 3500 BR SCT010 OVC015 M01/M03 Q1001;
0131068065999992010010615204+46967+008400FM-15+0450LSZC V0202501N001010036019N0035001N1-00201-00301999999ADDGA1081+003601999GF108991999999999999999999MA1100101999999MW1101REMMET056METAR LSZC 061520Z 25002KT 3500 BR OVC012 M02/M03 Q1001;
0122068065999992010010706504+46967+008400FM-15+0450LSZC V0202601N003612200019N0050001N1-00701-00801999999ADDGA1041+007501999GF104991999999999999999999MA1100511999999REMMET053METAR LSZC 070650Z 26007KT 5000 SCT025 M07/M08 Q1005;
0145068065999992010010707204+46967+008400FM-15+0450LSZC V0202701N003110105019N0060001N1-00601-00801999999ADDGA1041+007501999GA2071+010501999GF107991999999999999999999MA1100611999999REMMET060METAR LSZC 070720Z 27006KT 6000 SCT025 BKN035 M06/M08 Q1006;
0122068065999992010010707504+46967+008400FM-15+0450LSZC V0202701N003610120019N0060001N1-00501-00701999999ADDGA1071+012001999GF107991999999999999999999MA1100611999999REMMET053METAR LSZC 070750Z 27007KT 6000 BKN040 M05/M07 Q1006;
0122068065999992010010708204+46967+008400FM-15+0450LSZC V0202601N004610075019N0070001N1-00501-00701999999ADDGA1071+007501999GF107991999999999999999999MA1100611999999REMMET053METAR LSZC 070820Z 26009KT 7000 BKN025 M05/M07 Q1006;
0122068065999992010010709204+46967+008400FM-15+0450LSZC V0202601N003112200019N0112651N1-00601-00801999999ADDGA1021+007501999GF102991999999999999999999MA1100711999999REMMET053METAR LSZC 070920Z 26006KT 9999 FEW025 M06/M08 Q1007;
0122068065999992010010709504+46967+008400FM-15+0450LSZC V0202601N003612200019N0112651N1-00601-00901999999ADDGA1021+007501999GF102991999999999999999999MA1100711999999REMMET053METAR LSZC 070950Z 26007KT 9999 FEW025 M06/M09 Q1007;
0130068065999992010010710204+46967+008400FM-15+0450LSZC V0202701N002112200019N0112651N1-00501-00801999999ADDGA1021+007501999GF102991999999999999999999MA1100711999999REMMET061METAR LSZC 071020Z 27004KT 230V310 9999 FEW025 M05/M08 Q1007;
0122068065999992010010710504+46967+008400FM-15+0450LSZC V0209999V001512200019N0112651N1-00401-00801999999ADDGA1021+007501999GF102991999999999999999999MA1100711999999REMMET053METAR LSZC 071050Z VRB03KT 9999 FEW025 M04/M08 Q1007;
0145068065999992010010712504+46967+008400FM-15+0450LSZC V0202601N001010420019N0080001N1-00301-00601999999ADDGA1021+007501999GA2081+042001999GF108991999999999999999999MA1100711999999REMMET060METAR LSZC 071250Z 26002KT 8000 FEW025 OVC140 M03/M06 Q1007;
0145068065999992010010714204+46967+008400FM-15+0450LSZC V0209999C000010420019N0080001N1-00201-00601999999ADDGA1021+007501999GA2081+042001999GF108991999999999999999999MA1100711999999REMMET060METAR LSZC 071420Z 00000KT 8000 FEW025 OVC140 M02/M06 Q1007;
0122068065999992010010714504+46967+008400FM-15+0450LSZC V0209999C000010420019N0080001N1-00201-00601999999ADDGA1081+042001999GF108991999999999999999999MA1100711999999REMMET053METAR LSZC 071450Z 00000KT 8000 OVC140 M02/M06 Q1007;
0162068065999992010010806504+46967+008400FM-15+0450LSZC V0202301N002110066019N0040001N1-00101-00301999999ADDGA1041+003601999GA2081+006601999GF108991999999999999999999MA1100511999999MW1101REMMET071METAR LSZC 080650Z 23004KT 210V280 4000 BR SCT012 OVC022 M01/M03 Q1005;
0162068065999992010010807504+46967+008400FM-15+0450LSZC V0202401N002110066019N0040001N1-00101-00401999999ADDGA1041+003601999GA2081+006601999GF108991999999999999999999MA1100511999999MW1101REMMET071METAR LSZC 080750Z 24004KT 210V300 4000 BR SCT012 OVC022 M01/M04 Q1005;
0162068065999992010010808504+46967+008400FM-15+0450LSZC V0202101N002110066019N0050001N1-00101-00401999999ADDGA1041+003601999GA2081+006601999GF108991999999999999999999MA1100411999999MW1101REMMET071METAR LSZC 080850Z 21004KT 170V250 5000 BR SCT012 OVC022 M01/M04 Q1004;
0162068065999992010010809504+46967+008400FM-15+0450LSZC V0202101N002110066019N0050001N1-00101-00301999999ADDGA1041+003601999GA2081+006601999GF108991999999999999999999MA1100411999999MW1101REMMET071METAR LSZC 080950Z 21004KT 170V250 5000 BR SCT012 OVC022 M01/M03 Q1004;
0154068065999992010010810204+46967+008400FM-15+0450LSZC V0202001N002110066019N0050001N1-00101-00301999999ADDGA1041+003601999GA2081+006601999GF108991999999999999999999MA1100311999999MW1101REMMET063METAR LSZC 081020Z 20004KT 5000 BR SCT012 OVC022 M01/M03 Q1003;
0162068065999992010010810504+46967+008400FM-15+0450LSZC V0203601N001510066019N0050001N1-00101-00401999999ADDGA1041+003601999GA2081+006601999GF108991999999999999999999MA1100311999999MW1101REMMET071METAR LSZC 081050Z 36003KT 310V050 5000 BR SCT012 OVC022 M01/M04 Q1003;
0162068065999992010010814204+46967+008400FM-15+0450LSZC V0203201N002110066019N0050001N1-00101-00401999999ADDGA1041+003601999GA2081+006601999GF108991999999999999999999MA1100201999999MW1101REMMET071METAR LSZC 081420Z 32004KT 280V050 5000 BR SCT012 OVC022 M01/M04 Q1002;
0154068065999992010010814504+46967+008400FM-15+0450LSZC V0209999V002110066019N0050001N1-00101-00401999999ADDGA1041+003601999GA2081+006601999GF108991999999999999999999MA1100201999999MW1101REMMET063METAR LSZC 081450Z VRB04KT 5000 BR SCT012 OVC022 M01/M04 Q1002;
0131068065999992010011106504+46967+008400FM-15+0450LSZC V0202601N003610039019N0060001N1-00401-00801999999ADDGA1081+003901999GF108991999999999999999999MA1101391999999MW1101REMMET056METAR LSZC 110650Z 26007KT 6000 BR OVC013 M04/M08 Q1014;
0131068065999992010011109504+46967+008400FM-15+0450LSZC V0202601N002110054019N0050001N1-00401-00701999999ADDGA1081+005401999GF108991999999999999999999MA1101391999999MW1101REMMET056METAR LSZC 110950Z 26004KT 5000 BR OVC018 M04/M07 Q1014;
0131068065999992010011110204+46967+008400FM-15+0450LSZC V0202601N002610054019N0050001N1-00401-00701999999ADDGA1081+005401999GF108991999999999999999999MA1101391999999MW1101REMMET056METAR LSZC 111020Z 26005KT 5000 BR OVC018 M04/M07 Q1014;
0131068065999992010011110504+46967+008400FM-15+0450LSZC V0202501N002610051019N0050001N1-00301-00701999999ADDGA1081+005101999GF108991999999999999999999MA1101391999999MW1101REMMET056METAR LSZC 111050Z 25005KT 5000 BR OVC017 M03/M07 Q1014;
0131068065999992010011112204+46967+008400FM-15+0450LSZC V0209999V001510054019N0050001N1-00201-00601999999ADDGA1081+005401999GF108991999999999999999999MA1101391999999MW1101REMMET056METAR LSZC 111220Z VRB03KT 5000 BR OVC018 M02/M06 Q1014;
0131068065999992010011112504+46967+008400FM-15+0450LSZC V0209999V000510054019N0050001N1-00201-00601999999ADDGA1081+005401999GF108991999999999999999999MA1101391999999MW1101REMMET056METAR LSZC 111250Z VRB01KT 5000 BR OVC018 M02/M06 Q1014;
0131068065999992010011113204+46967+008400FM-15+0450LSZC V0203201N002610054019N0050001N1-00201-00601999999ADDGA1081+005401999GF108991999999999999999999MA1101391999999MW1101REMMET056METAR LSZC 111320Z 32005KT 5000 BR OVC018 M02/M06 Q1014;
0131068065999992010011113504+46967+008400FM-15+0450LSZC V0203301N002610054019N0050001N1-00201-00601999999ADDGA1081+005401999GF108991999999999999999999MA1101391999999MW1101REMMET056METAR LSZC 111350Z 33005KT 5000 BR OVC018 M02/M06 Q1014;
0131068065999992010011114204+46967+008400FM-15+0450LSZC V0209999V001010054019N0050001N1-00201-00601999999ADDGA1081+005401999GF108991999999999999999999MA1101391999999MW1101REMMET056METAR LSZC 111420Z VRB02KT 5000 BR OVC018 M02/M06 Q1014;
0131068065999992010011114504+46967+008400FM-15+0450LSZC V0209999V000510054019N0050001N1-00201-00601999999ADDGA1081+005401999GF108991999999999999999999MA1101391999999MW1101REMMET056METAR LSZC 111450Z VRB01KT 5000 BR OVC018 M02/M06 Q1014;
0131068065999992010011115204+46967+008400FM-15+0450LSZC V0202901N000510054019N0050001N1-00201-00601999999ADDGA1081+005401999GF108991999999999999999999MA1101491999999MW1101REMMET056METAR LSZC 111520Z 29001KT 5000 BR OVC018 M02/M06 Q1015;
0131068065999992010011115504+46967+008400FM-15+0450LSZC V0202401N001010054019N0050001N1-00201-00601999999ADDGA1081+005401999GF108991999999999999999999MA1101491999999MW1101REMMET056METAR LSZC 111550Z 24002KT 5000 BR OVC018 M02/M06 Q1015;
0141068065999992010011206504+46967+008400FM-15+0450LSZC V0202701N001010054019N0050001N1-00201-00401999999ADDGA1081+005401999GF108991999999999999999999MA1101491999999MW1101MW2711REMMET060METAR LSZC 120650Z 27002KT 5000 BR -SN OVC018 M02/M04 Q1015;
0131068065999992010011207204+46967+008400FM-15+0450LSZC V0202601N001010039019N0050001N1-00201-00401999999ADDGA1081+003901999GF108991999999999999999999MA1101391999999MW1101REMMET056METAR LSZC 120720Z 26002KT 5000 BR OVC013 M02/M04 Q1014;
0131068065999992010011207504+46967+008400FM-15+0450LSZC V0202801N001010045019N0050001N1-00201-00401999999ADDGA1081+004501999GF108991999999999999999999MA1101391999999MW1101REMMET056METAR LSZC 120750Z 28002KT 5000 BR OVC015 M02/M04 Q1014;
0131068065999992010011208504+46967+008400FM-15+0450LSZC V0202701N002610045019N0050001N1-00201-00401999999ADDGA1081+004501999GF108991999999999999999999MA1101291999999MW1101REMMET056METAR LSZC 120850Z 27005KT 5000 BR OVC015 M02/M04 Q1013;
0131068065999992010011209204+46967+008400FM-15+0450LSZC V0202501N002110045019N0050001N1-00201-00401999999ADDGA1081+004501999GF108991999999999999999999MA1101291999999MW1101REMMET056METAR LSZC 120920Z 25004KT 5000 BR OVC015 M02/M04 Q1013;
0131068065999992010011209504+46967+008400FM-15+0450LSZC V0202701N001510045019N0050001N1-00201-00401999999ADDGA1081+004501999GF108991999999999999999999MA1101291999999MW1101REMMET056METAR LSZC 120950Z 27003KT 5000 BR OVC015 M02/M04 Q1013;
0131068065999992010011210204+46967+008400FM-15+0450LSZC V0202501N002110045019N0050001N1-00201-00401999999ADDGA1081+004501999GF108991999999999999999999MA1101191999999MW1101REMMET056METAR LSZC 121020Z 25004KT 5000 BR OVC015 M02/M04 Q1012;
0131068065999992010011210504+46967+008400FM-15+0450LSZC V0202501N001510036019N0040001N1-00201-00401999999ADDGA1081+003601999GF108991999999999999999999MA1101191999999MW1101REMMET056METAR LSZC 121050Z 25003KT 4000 BR OVC012 M02/M04 Q1012;
0131068065999992010011212204+46967+008400FM-15+0450LSZC V0202501N002110036019N0040001N1-00201-00401999999ADDGA1081+003601999GF108991999999999999999999MA1101081999999MW1101REMMET056METAR LSZC 121220Z 25004KT 4000 BR OVC012 M02/M04 Q1011;
0131068065999992010011212504+46967+008400FM-15+0450LSZC V0202401N002110036019N0040001N1-00201-00401999999ADDGA1081+003601999GF108991999999999999999999MA1101081999999MW1101REMMET056METAR LSZC 121250Z 24004KT 4000 BR OVC012 M02/M04 Q1011;
0131068065999992010011213204+46967+008400FM-15+0450LSZC V0202501N001010036019N0040001N1-00101-00401999999ADDGA1081+003601999GF108991999999999999999999MA1101021999999MW1101REMMET056METAR LSZC 121320Z 25002KT 4000 BR OVC012 M01/M04 Q1010;
0131068065999992010011213504+46967+008400FM-15+0450LSZC V0202801N001010036019N0040001N1-00101-00401999999ADDGA1081+003601999GF108991999999999999999999MA1101021999999MW1101REMMET056METAR LSZC 121350Z 28002KT 4000 BR OVC012 M01/M04 Q1010;
0131068065999992010011214204+46967+008400FM-15+0450LSZC V0202801N001010036019N0040001N1-00101-00401999999ADDGA1081+003601999GF108991999999999999999999MA1100911999999MW1101REMMET056METAR LSZC 121420Z 28002KT 4000 BR OVC012 M01/M04 Q1009;
0131068065999992010011214504+46967+008400FM-15+0450LSZC V0209999V001010036019N0040001N1-00101-00401999999ADDGA1081+003601999GF108991999999999999999999MA1100911999999MW1101REMMET056METAR LSZC 121450Z VRB02KT 4000 BR OVC012 M01/M04 Q1009;
0131068065999992010011215504+46967+008400FM-15+0450LSZC V0202501N002110042019N0040001N1-00201-00401999999ADDGA1081+004201999GF108991999999999999999999MA1100811999999MW1101REMMET056METAR LSZC 121550Z 25004KT 4000 BR OVC014 M02/M04 Q1008;
0154068065999992010011306504+46967+008400FM-15+0450LSZC V0202501N002110210019N0040001N1-00201-00401999999ADDGA1021+004201999GA2081+021001999GF108991999999999999999999MA1100411999999MW1101REMMET063METAR LSZC 130650Z 25004KT 4000 BR FEW014 OVC075 M02/M04 Q1004;
0154068065999992010011307204+46967+008400FM-15+0450LSZC V0209999V000510210019N0040001N1-00201-00401999999ADDGA1021+004201999GA2081+021001999GF108991999999999999999999MA1100511999999MW1101REMMET063METAR LSZC 130720Z VRB01KT 4000 BR FEW014 OVC075 M02/M04 Q1005;
0154068065999992010011307504+46967+008400FM-15+0450LSZC V0209999V000510147019N0040001N1-00101-00301999999ADDGA1021+004201999GA2081+014701999GF108991999999999999999999MA1100511999999MW1101REMMET063METAR LSZC 130750Z VRB01KT 4000 BR FEW014 OVC049 M01/M03 Q1005;
0154068065999992010011308204+46967+008400FM-15+0450LSZC V0202501N000510147019N0040001N1-00101-00401999999ADDGA1021+004201999GA2081+014701999GF108991999999999999999999MA1100611999999MW1101REMMET063METAR LSZC 130820Z 25001KT 4000 BR FEW014 OVC049 M01/M04 Q1006;
0154068065999992010011308504+46967+008400FM-15+0450LSZC V0202701N001010147019N0035001N1-00101-00301999999ADDGA1071+014701999GA2081+021001999GF108991999999999999999999MA1100611999999MW1101REMMET063METAR LSZC 130850Z 27002KT 3500 BR BKN049 OVC073 M01/M03 Q1006;
0154068065999992010011309204+46967+008400FM-15+0450LSZC V0202501N002110210019N0035001N1-00101-00301999999ADDGA1041+014701999GA2081+021001999GF108991999999999999999999MA1100611999999MW1101REMMET063METAR LSZC 130920Z 25004KT 3500 BR SCT049 OVC073 M01/M03 Q1006;
0131068065999992010011309504+46967+008400FM-15+0450LSZC V0202501N001510180019N0040001N1-00101-00301999999ADDGA1081+018001999GF108991999999999999999999MA1100711999999MW1101REMMET056METAR LSZC 130950Z 25003KT 4000 BR OVC065 M01/M03 Q1007;
0131068065999992010011310204+46967+008400FM-15+0450LSZC V0202601N001510180019N0040001N1-00101-00301999999ADDGA1081+018001999GF108991999999999999999999MA1100711999999MW1101REMMET056METAR LSZC 131020Z 26003KT 4000 BR OVC065 M01/M03 Q1007;
0130068065999992010011310504+46967+008400FM-15+0450LSZC V0209999C000010180019N0035001N1+00001-00301999999ADDGA1081+018001999GF108991999999999999999999MA1100711999999MW1101REMMET055METAR LSZC 131050Z 00000KT 3500 BR OVC065 00/M03 Q1007;
0153068065999992010011312204+46967+008400FM-15+0450LSZC V0202501N000510240019N0035001N1+00001-00301999999ADDGA1021+004501999GA2081+024001999GF108991999999999999999999MA1100611999999MW1101REMMET062METAR LSZC 131220Z 25001KT 3500 BR FEW015 OVC085 00/M03 Q1006;
0153068065999992010011312504+46967+008400FM-15+0450LSZC V0202601N000510240019N0035001N1+00001-00301999999ADDGA1021+004501999GA2081+024001999GF108991999999999999999999MA1100611999999MW1101REMMET062METAR LSZC 131250Z 26001KT 3500 BR FEW015 OVC085 00/M03 Q1006;
0153068065999992010011313204+46967+008400FM-15+0450LSZC V0209999C000010240019N0035001N1+00101-00301999999ADDGA1021+004501999GA2081+024001999GF108991999999999999999999MA1100611999999MW1101REMMET062METAR LSZC 131320Z 00000KT 3500 BR FEW015 OVC085 01/M03 Q1006;
0153068065999992010011313504+46967+008400FM-15+0450LSZC V0209999C000010120019N0035001N1+00101-00301999999ADDGA1021+004501999GA2081+012001999GF108991999999999999999999MA1100711999999MW1101REMMET062METAR LSZC 131350Z 00000KT 3500 BR FEW015 OVC040 01/M03 Q1007;
0153068065999992010011314504+46967+008400FM-15+0450LSZC V0209999C000010120019N0035001N1+00101-00201999999ADDGA1021+004501999GA2081+012001999GF108991999999999999999999MA1100711999999MW1101REMMET062METAR LSZC 131450Z 00000KT 3500 BR FEW015 OVC040 01/M02 Q1007;
0153068065999992010011315204+46967+008400FM-15+0450LSZC V0209999C000010120019N0035001N1+00001-00201999999ADDGA1021+004501999GA2081+012001999GF108991999999999999999999MA1100711999999MW1101REMMET062METAR LSZC 131520Z 00000KT 3500 BR FEW015 OVC040 00/M02 Q1007;
0130068065999992010011315504+46967+008400FM-15+0450LSZC V0209999C000010030019N0015001N1+00001-00101999999ADDGA1081+003001999GF108991999999999999999999MA1100711999999MW1731REMMET055METAR LSZC 131550Z 00000KT 1500 SN OVC010 00/M01 Q1007;
0153068065999992010011407204+46967+008400FM-15+0450LSZC V0202801N001510036019N0025001N1+00001-00101999999ADDGA1041+000601999GA2081+003601999GF108991999999999999999999MA1100511999999MW1101REMMET062METAR LSZC 140720Z 28003KT 2500 BR SCT002 OVC012 00/M01 Q1005;
0153068065999992010011407504+46967+008400FM-15+0450LSZC V0202701N003610036019N0045001N1+00001-00101999999ADDGA1041+000601999GA2081+003601999GF108991999999999999999999MA1100511999999MW1101REMMET062METAR LSZC 140750Z 27007KT 4500 BR SCT002 OVC012 00/M01 Q1005;
0153068065999992010011408204+46967+008400FM-15+0450LSZC V0202701N002610030019N0045001N1+00001-00101999999ADDGA1041+000601999GA2071+003001999GF107991999999999999999999MA1100511999999MW1101REMMET062METAR LSZC 140820Z 27005KT 4500 BR SCT002 BKN010 00/M01 Q1005;
0144068065999992010011408504+46967+008400FM-15+0450LSZC V0202501N002610033019N0060001N1+00001-00201999999ADDGA1041+001201999GA2071+003301999GF107991999999999999999999MA1100511999999REMMET059METAR LSZC 140850Z 25005KT 6000 SCT004 BKN011 00/M02 Q1005;
0144068065999992010011409204+46967+008400FM-15+0450LSZC V0202601N002610033019N0060001N1+00001-00201999999ADDGA1041+001201999GA2071+003301999GF107991999999999999999999MA1100511999999REMMET059METAR LSZC 140920Z 26005KT 6000 SCT004 BKN011 00/M02 Q1005;
0144068065999992010011409504+46967+008400FM-15+0450LSZC V0202601N002610033019N0060001N1+00001-00201999999ADDGA1041+001201999GA2071+003301999GF107991999999999999999999MA1100511999999REMMET059METAR LSZC 140950Z 26005KT 6000 SCT004 BKN011 00/M02 Q1005;
0144068065999992010011410204+46967+008400FM-15+0450LSZC V0202601N002610033019N0060001N1+00001-00101999999ADDGA1041+001201999GA2071+003301999GF107991999999999999999999MA1100511999999REMMET059METAR LSZC 141020Z 26005KT 6000 SCT004 BKN011 00/M01 Q1005;
0144068065999992010011410504+46967+008400FM-15+0450LSZC V0202601N002110030019N0060001N1+00101-00101999999ADDGA1041+001801999GA2071+003001999GF107991999999999999999999MA1100411999999REMMET059METAR LSZC 141050Z 26004KT 6000 SCT006 BKN010 01/M01 Q1004;
0143068065999992010011412204+46967+008400FM-15+0450LSZC V0202501N001010030019N0060001N1+00101+00001999999ADDGA1041+001801999GA2081+003001999GF108991999999999999999999MA1100411999999REMMET058METAR LSZC 141220Z 25002KT 6000 SCT006 OVC010 01/00 Q1004;
0144068065999992010011414204+46967+008400FM-15+0450LSZC V0209999C000010033019N0060001N1+00201-00101999999ADDGA1041+001801999GA2081+003301999GF108991999999999999999999MA1100411999999REMMET059METAR LSZC 141420Z 00000KT 6000 SCT006 OVC011 02/M01 Q1004;
0153068065999992010011414504+46967+008400FM-15+0450LSZC V0202001N001510033019N0040001N1+00101-00101999999ADDGA1041+001801999GA2081+003301999GF108991999999999999999999MA1100511999999MW1101REMMET062METAR LSZC 141450Z 20003KT 4000 BR SCT006 OVC011 01/M01 Q1005;
0153068065999992010011415504+46967+008400FM-15+0450LSZC V0202301N002110042019N0040001N1+00101-00101999999ADDGA1021+002101999GA2081+004201999GF108991999999999999999999MA1100411999999MW1101REMMET062METAR LSZC 141550Z 23004KT 4000 BR FEW007 OVC014 01/M01 Q1004;
0130068065999992010011506504+46967+008400FM-15+0450LSZC V0202601N002610045019N0040001N1+00001-00301999999ADDGA1081+004501999GF108991999999999999999999MA1101691999999MW1101REMMET055METAR LSZC 150650Z 26005KT 4000 BR OVC015 00/M03 Q1017;
0130068065999992010011507204+46967+008400FM-15+0450LSZC V0202601N002610045019N0040001N1+00001-00301999999ADDGA1081+004501999GF108991999999999999999999MA1101801999999MW1101REMMET055METAR LSZC 150720Z 26005KT 4000 BR OVC015 00/M03 Q1018;
0122068065999992010011507504+46967+008400FM-15+0450LSZC V0202601N003110048019N0060001N1-00101-00301999999ADDGA1081+004801999GF108991999999999999999999MA1101801999999REMMET053METAR LSZC 150750Z 26006KT 6000 OVC016 M01/M03 Q1018;
0122068065999992010011508204+46967+008400FM-15+0450LSZC V0202601N003110048019N0060001N1-00101-00301999999ADDGA1081+004801999GF108991999999999999999999MA1101901999999REMMET053METAR LSZC 150820Z 26006KT 6000 OVC016 M01/M03 Q1019;
0122068065999992010011508504+46967+008400FM-15+0450LSZC V0202701N003610051019N0060001N1-00101-00301999999ADDGA1081+005101999GF108991999999999999999999MA1101901999999REMMET053METAR LSZC 150850Z 27007KT 6000 OVC017 M01/M03 Q1019;
0121068065999992010011509504+46967+008400FM-15+0450LSZC V0202501N002110051019N0060001N1+00001-00301999999ADDGA1071+005101999GF107991999999999999999999MA1102001999999REMMET052METAR LSZC 150950Z 25004KT 6000 BKN017 00/M03 Q1020;
0121068065999992010011510204+46967+008400FM-15+0450LSZC V0202501N002110051019N0060001N1+00001-00301999999ADDGA1071+005101999GF107991999999999999999999MA1102001999999REMMET052METAR LSZC 151020Z 25004KT 6000 BKN017 00/M03 Q1020;
0121068065999992010011510504+46967+008400FM-15+0450LSZC V0202501N002110051019N0060001N1+00001-00301999999ADDGA1071+005101999GF107991999999999999999999MA1102001999999REMMET052METAR LSZC 151050Z 25004KT 6000 BKN017 00/M03 Q1020;
0121068065999992010011513204+46967+008400FM-15+0450LSZC V0209999C000012200019N0050001N1+00401-00201999999ADDGA1041+005101999GF104991999999999999999999MA1102101999999REMMET052METAR LSZC 151320Z 00000KT 5000 SCT017 04/M02 Q1021;
0121068065999992010011513504+46967+008400FM-15+0450LSZC V0209999V000512200019N0050001N1+00201-00201999999ADDGA1041+005101999GF104991999999999999999999MA1102101999999REMMET052METAR LSZC 151350Z VRB01KT 5000 SCT017 02/M02 Q1021;
0121068065999992010011514204+46967+008400FM-15+0450LSZC V0201701N000512200019N0050001N1+00301-00201999999ADDGA1041+005101999GF104991999999999999999999MA1102201999999REMMET052METAR LSZC 151420Z 17001KT 5000 SCT017 03/M02 Q1022;
0121068065999992010011514504+46967+008400FM-15+0450LSZC V0209999V000512200019N0050001N1+00201-00201999999ADDGA1041+005101999GF104991999999999999999999MA1102201999999REMMET052METAR LSZC 151450Z VRB01KT 5000 SCT017 02/M02 Q1022;
0121068065999992010011515204+46967+008400FM-15+0450LSZC V0201501N001012200019N0050001N1+00101-00201999999ADDGA1041+005101999GF104991999999999999999999MA1102201999999REMMET052METAR LSZC 151520Z 15002KT 5000 SCT017 01/M02 Q1022;
0121068065999992010011806204+46967+008400FM-15+0450LSZC V0202001N001010240019N0112651N1+00201-00101999999ADDGA1081+024001999GF108991999999999999999999MA1102611999999REMMET052METAR LSZC 180620Z 20002KT 9999 OVC080 02/M01 Q1026;
0121068065999992010011806504+46967+008400FM-15+0450LSZC V0209999V000510240019N0112651N1+00101-00101999999ADDGA1081+024001999GF108991999999999999999999MA1102611999999REMMET052METAR LSZC 180650Z VRB01KT 9999 OVC080 01/M01 Q1026;
0129068065999992010011807204+46967+008400FM-15+0450LSZC V0202301N001510240019N0112651N1+00101-00101999999ADDGA1081+024001999GF108991999999999999999999MA1102611999999REMMET060METAR LSZC 180720Z 23003KT 200V260 9999 OVC080 01/M01 Q1026;
0121068065999992010011807504+46967+008400FM-15+0450LSZC V0202701N001510240019N0112651N1+00101-00101999999ADDGA1071+024001999GF107991999999999999999999MA1102611999999REMMET052METAR LSZC 180750Z 27003KT 9999 BKN080 01/M01 Q1026;
0120068065999992010011809204+46967+008400FM-15+0450LSZC V0202401N002110210019N0112651N1+00201+00001999999ADDGA1071+021001999GF107991999999999999999999MA1102611999999REMMET051METAR LSZC 180920Z 24004KT 9999 BKN078 02/00 Q1026;
0120068065999992010011809504+46967+008400FM-15+0450LSZC V0209999V001010210019N0112651N1+00301+00001999999ADDGA1071+021001999GF107991999999999999999999MA1102711999999REMMET051METAR LSZC 180950Z VRB02KT 9999 BKN078 03/00 Q1027;
0120068065999992010011810204+46967+008400FM-15+0450LSZC V0209999V000510240019N0112651N1+00401+00001999999ADDGA1071+024001999GF107991999999999999999999MA1102611999999REMMET051METAR LSZC 181020Z VRB01KT 9999 BKN081 04/00 Q1026;
0143068065999992010011810504+46967+008400FM-15+0450LSZC V0209999C000010240019N0112651N1+00501+00101999999ADDGA1021+010501999GA2071+024001999GF107991999999999999999999MA1102611999999REMMET058METAR LSZC 181050Z 00000KT 9999 FEW035 BKN081 05/01 Q1026;
0143068065999992010011812204+46967+008400FM-15+0450LSZC V0209999V001012200019N0112651N1+00501+00101999999ADDGA1021+010501999GA2041+024001999GF104991999999999999999999MA1102511999999REMMET058METAR LSZC 181220Z VRB02KT 9999 FEW035 SCT081 05/01 Q1025;
0120068065999992010011812504+46967+008400FM-15+0450LSZC V0209999C000012200019N0112651N1+00701+00101999999ADDGA1021+010501999GF102991999999999999999999MA1102511999999REMMET051METAR LSZC 181250Z 00000KT 9999 FEW035 07/01 Q1025;
0120068065999992010011814204+46967+008400FM-15+0450LSZC V0209999V001012200019N0112651N1+00601+00001999999ADDGA1021+010501999GF102991999999999999999999MA1102401999999REMMET051METAR LSZC 181420Z VRB02KT 9999 FEW035 06/00 Q1024;
0120068065999992010011814504+46967+008400FM-15+0450LSZC V0209999V001012200019N0112651N1+00501+00001999999ADDGA1021+010501999GF102991999999999999999999MA1102401999999REMMET051METAR LSZC 181450Z VRB02KT 9999 FEW035 05/00 Q1024;
0120068065999992010011815204+46967+008400FM-15+0450LSZC V0202301N001012200019N0112651N1+00301+00001999999ADDGA1021+010501999GF102991999999999999999999MA1102511999999REMMET051METAR LSZC 181520Z 23002KT 9999 FEW035 03/00 Q1025;
0122068065999992010011906504+46967+008400FM-15+0450LSZC V0202701N001512200019N0112651N1-00501-00701999999ADDGA1021+002401999GF102991999999999999999999MA1102201999999REMMET053METAR LSZC 190650Z 27003KT 9999 FEW008 M05/M07 Q1022;
0122068065999992010011907204+46967+008400FM-15+0450LSZC V0202301N002112200019N0112651N1-00401-00601999999ADDGA1021+002401999GF102991999999999999999999MA1102201999999REMMET053METAR LSZC 190720Z 23004KT 9999 FEW008 M04/M06 Q1022;
0122068065999992010011907504+46967+008400FM-15+0450LSZC V0202401N001512200019N0112651N1-00401-00701999999ADDGA1021+002401999GF102991999999999999999999MA1102201999999REMMET053METAR LSZC 190750Z 24003KT 9999 FEW008 M04/M07 Q1022;
0122068065999992010011908204+46967+008400FM-15+0450LSZC V0202301N002112200019N0112651N1-00401-00701999999ADDGA1041+002401999GF104991999999999999999999MA1102201999999REMMET053METAR LSZC 190820Z 23004KT 9999 SCT008 M04/M07 Q1022;
0122068065999992010011908504+46967+008400FM-15+0450LSZC V0202601N001512200019N0112651N1-00401-00601999999ADDGA1041+002401999GF104991999999999999999999MA1102201999999REMMET053METAR LSZC 190850Z 26003KT 9999 SCT008 M04/M06 Q1022;
0122068065999992010011909204+46967+008400FM-15+0450LSZC V0202401N001012200019N0060001N1-00401-00601999999ADDGA1021+001501999GF102991999999999999999999MA1102201999999REMMET053METAR LSZC 190920Z 24002KT 6000 FEW005 M04/M06 Q1022;
0122068065999992010011909504+46967+008400FM-15+0450LSZC V0209999V000512200019N0060001N1-00201-00301999999ADDGA1021+001501999GF102991999999999999999999MA1102201999999REMMET053METAR LSZC 190950Z VRB01KT 6000 FEW005 M02/M03 Q1022;
0121068065999992010011912204+46967+008400FM-15+0450LSZC V0209999V001012200019N0060001N1+00201-00201999999ADDGA1021+001501999GF102991999999999999999999MA1102001999999REMMET052METAR LSZC 191220Z VRB02KT 6000 FEW005 02/M02 Q1020;
0129068065999992010011912504+46967+008400FM-15+0450LSZC V0201001N002112200019N0060001N1+00101-00101999999ADDGA1021+002401999GF102991999999999999999999MA1102001999999REMMET060METAR LSZC 191250Z 10004KT 070V140 6000 FEW008 01/M01 Q1020;
0121068065999992010011913504+46967+008400FM-15+0450LSZC V0209999V001012200019N0060001N1+00201-00101999999ADDGA1041+002401999GF104991999999999999999999MA1101901999999REMMET052METAR LSZC 191350Z VRB02KT 6000 SCT008 02/M01 Q1019;
0130068065999992010011914204+46967+008400FM-15+0450LSZC V0209999V001512200019N0040001N1+00101-00101999999ADDGA1041+002401999GF104991999999999999999999MA1101901999999MW1101REMMET055METAR LSZC 191420Z VRB03KT 4000 BR SCT008 01/M01 Q1019;
0130068065999992010011914504+46967+008400FM-15+0450LSZC V0209999V001512200019N0035001N1+00001-00201999999ADDGA1041+002401999GF104991999999999999999999MA1101901999999MW1101REMMET055METAR LSZC 191450Z VRB03KT 3500 BR SCT008 00/M02 Q1019;
0130068065999992010011915204+46967+008400FM-15+0450LSZC V0209999V000510021019N0030001N1+00001-00201999999ADDGA1071+002101999GF107991999999999999999999MA1101901999999MW1101REMMET055METAR LSZC 191520Z VRB01KT 3000 BR BKN007 00/M02 Q1019;
0130068065999992010011915504+46967+008400FM-15+0450LSZC V0202101N001010018019N0030001N1+00001-00201999999ADDGA1081+001801999GF108991999999999999999999MA1102001999999MW1101REMMET055METAR LSZC 191550Z 21002KT 3000 BR OVC006 00/M02 Q1020;
0131068065999992010012006504+46967+008400FM-15+0450LSZC V0202501N002610024019N0030001N1-00201-00401999999ADDGA1081+002401999GF108991999999999999999999MA1101491999999MW1101REMMET056METAR LSZC 200650Z 25005KT 3000 BR OVC008 M02/M04 Q1015;
0131068065999992010012007204+46967+008400FM-15+0450LSZC V0202501N002610024019N0030001N1-00201-00401999999ADDGA1081+002401999GF108991999999999999999999MA1101491999999MW1101REMMET056METAR LSZC 200720Z 25005KT 3000 BR OVC008 M02/M04 Q1015;
0131068065999992010012007504+46967+008400FM-15+0450LSZC V0202401N002110021019N0030001N1-00301-00401999999ADDGA1081+002101999GF108991999999999999999999MA1101491999999MW1101REMMET056METAR LSZC 200750Z 24004KT 3000 BR OVC007 M03/M04 Q1015;
0131068065999992010012008204+46967+008400FM-15+0450LSZC V0202601N003110021019N0030001N1-00301-00401999999ADDGA1081+002101999GF108991999999999999999999MA1101491999999MW1101REMMET056METAR LSZC 200820Z 26006KT 3000 BR OVC007 M03/M04 Q1015;
0131068065999992010012008504+46967+008400FM-15+0450LSZC V0202501N002610021019N0030001N1-00201-00401999999ADDGA1081+002101999GF108991999999999999999999MA1101391999999MW1101REMMET056METAR LSZC 200850Z 25005KT 3000 BR OVC007 M02/M04 Q1014;
0131068065999992010012009204+46967+008400FM-15+0450LSZC V0202501N002610021019N0030001N1-00201-00401999999ADDGA1081+002101999GF108991999999999999999999MA1101391999999MW1101REMMET056METAR LSZC 200920Z 25005KT 3000 BR OVC007 M02/M04 Q1014;
0139068065999992010012009504+46967+008400FM-15+0450LSZC V0202301N002610021019N0030001N1-00201-00401999999ADDGA1081+002101999GF108991999999999999999999MA1101391999999MW1101REMMET064METAR LSZC 200950Z 23005KT 190V250 3000 BR OVC007 M02/M04 Q1014;
0131068065999992010012010204+46967+008400FM-15+0450LSZC V0202401N002110021019N0030001N1-00201-00301999999ADDGA1081+002101999GF108991999999999999999999MA1101391999999MW1101REMMET056METAR LSZC 201020Z 24004KT 3000 BR OVC007 M02/M03 Q1014;
0131068065999992010012010504+46967+008400FM-15+0450LSZC V0202501N002110024019N0030001N1-00201-00401999999ADDGA1081+002401999GF108991999999999999999999MA1101391999999MW1101REMMET056METAR LSZC 201050Z 25004KT 3000 BR OVC008 M02/M04 Q1014;
0130068065999992010012012504+46967+008400FM-15+0450LSZC V0209999V000510033019N0030001N1+00001-00301999999ADDGA1081+003301999GF108991999999999999999999MA1101291999999MW1101REMMET055METAR LSZC 201250Z VRB01KT 3000 BR OVC011 00/M03 Q1013;
0131068065999992010012013204+46967+008400FM-15+0450LSZC V0209999V001010033019N0030001N1-00101-00301999999ADDGA1081+003301999GF108991999999999999999999MA1101391999999MW1101REMMET056METAR LSZC 201320Z VRB02KT 3000 BR OVC011 M01/M03 Q1014;
0130068065999992010012013504+46967+008400FM-15+0450LSZC V0209999V000510033019N0030001N1+00001-00301999999ADDGA1081+003301999GF108991999999999999999999MA1101291999999MW1101REMMET055METAR LSZC 201350Z VRB01KT 3000 BR OVC011 00/M03 Q1013;
0131068065999992010012014204+46967+008400FM-15+0450LSZC V0209999C000010036019N0030001N1-00101-00301999999ADDGA1081+003601999GF108991999999999999999999MA1101291999999MW1101REMMET056METAR LSZC 201420Z 00000KT 3000 BR OVC012 M01/M03 Q1013;
0131068065999992010012014504+46967+008400FM-15+0450LSZC V0209999V001010036019N0030001N1-00101-00301999999ADDGA1081+003601999GF108991999999999999999999MA1101291999999MW1101REMMET056METAR LSZC 201450Z VRB02KT 3000 BR OVC012 M01/M03 Q1013;
0131068065999992010012015204+46967+008400FM-15+0450LSZC V0202501N001510036019N0030001N1-00101-00301999999ADDGA1071+003601999GF107991999999999999999999MA1101291999999MW1101REMMET056METAR LSZC 201520Z 25003KT 3000 BR BKN012 M01/M03 Q1013;
0131068065999992010012015504+46967+008400FM-15+0450LSZC V0202501N002110036019N0030001N1-00201-00301999999ADDGA1071+003601999GF107991999999999999999999MA1101291999999MW1101REMMET056METAR LSZC 201550Z 25004KT 3000 BR BKN012 M02/M03 Q1013;
0153068065999992010012106504+46967+008400FM-15+0450LSZC V0209999V001010360019N0040001N1+00001-00101999999ADDGA1041+003001999GA2081+036001999GF108991999999999999999999MA1101901999999MW1101REMMET062METAR LSZC 210650Z VRB02KT 4000 BR SCT010 OVC120 00/M01 Q1019;
0153068065999992010012107204+46967+008400FM-15+0450LSZC V0209999V001010360019N0050001N1+00001-00101999999ADDGA1021+002401999GA2071+036001999GF107991999999999999999999MA1102001999999MW1101REMMET062METAR LSZC 210720Z VRB02KT 5000 BR FEW008 BKN120 00/M01 Q1020;
0153068065999992010012107504+46967+008400FM-15+0450LSZC V0202601N002110360019N0050001N1+00001-00101999999ADDGA1021+002401999GA2071+036001999GF107991999999999999999999MA1102001999999MW1101REMMET062METAR LSZC 210750Z 26004KT 5000 BR FEW008 BKN120 00/M01 Q1020;
0154068065999992010012108204+46967+008400FM-15+0450LSZC V0202501N002610360019N0050001N1-00101-00201999999ADDGA1021+002401999GA2071+036001999GF107991999999999999999999MA1102001999999MW1101REMMET063METAR LSZC 210820Z 25005KT 5000 BR FEW008 BKN120 M01/M02 Q1020;
0153068065999992010012108504+46967+008400FM-15+0450LSZC V0202701N001510360019N0050001N1+00001-00101999999ADDGA1021+002401999GA2071+036001999GF107991999999999999999999MA1102101999999MW1101REMMET062METAR LSZC 210850Z 27003KT 5000 BR FEW008 BKN120 00/M01 Q1021;
0176068065999992010012109204+46967+008400FM-15+0450LSZC V0209999V00051021001CN0050001N1+00001-00101999999ADDGA1021+002401999GA2041+021001999GA3071+036001999GF107991999999999999999999MA1102101999999MW1101REMMET069METAR LSZC 210920Z VRB01KT 5000 BR FEW008 SCT070 BKN120 00/M01 Q1021;
0153068065999992010012109504+46967+008400FM-15+0450LSZC V0202501N001012200019N0050001N1+00001-00101999999ADDGA1021+013501999GA2041+036001999GF104991999999999999999999MA1102101999999MW1101REMMET062METAR LSZC 210950Z 25002KT 5000 BR FEW045 SCT120 00/M01 Q1021;
0120068065999992010012110204+46967+008400FM-15+0450LSZC V0202001N001012200019N0070001N1+00101+00001999999ADDGA1041+013501999GF104991999999999999999999MA1102101999999REMMET051METAR LSZC 211020Z 20002KT 7000 SCT045 01/00 Q1021;
0120068065999992010012110504+46967+008400FM-15+0450LSZC V0209999C000012200019N0060001N1+00401+00301999999ADDGA1041+013501999GF104991999999999999999999MA1102101999999REMMET051METAR LSZC 211050Z 00000KT 6000 SCT045 04/03 Q1021;
0143068065999992010012112504+46967+008400FM-15+0450LSZC V0209999V001012200019N0080001N1+00401+00101999999ADDGA1021+004201999GA2041+015001999GF104991999999999999999999MA1102001999999REMMET058METAR LSZC 211250Z VRB02KT 8000 FEW014 SCT050 04/01 Q1020;
0151068065999992010012113204+46967+008400FM-15+0450LSZC V0201001N001512200019N0080001N1+00501+00101999999ADDGA1021+004201999GA2041+015001999GF104991999999999999999999MA1102001999999REMMET066METAR LSZC 211320Z 10003KT 070V140 8000 FEW014 SCT050 05/01 Q1020;
0143068065999992010012113504+46967+008400FM-15+0450LSZC V0200701N001512200019N0080001N1+00401+00201999999ADDGA1021+004201999GA2041+015001999GF104991999999999999999999MA1102001999999REMMET058METAR LSZC 211350Z 07003KT 8000 FEW014 SCT050 04/02 Q1020;
0120068065999992010012114504+46967+008400FM-15+0450LSZC V0209999V000512200019N0080001N1+00401+00101999999ADDGA1041+013501999GF104991999999999999999999MA1102101999999REMMET051METAR LSZC 211450Z VRB01KT 8000 SCT045 04/01 Q1021;
0120068065999992010012115204+46967+008400FM-15+0450LSZC V0209999V000512200019N0080001N1+00301+00001999999ADDGA1041+013501999GF104991999999999999999999MA1102101999999REMMET051METAR LSZC 211520Z VRB01KT 8000 SCT045 03/00 Q1021;
0121068065999992010012115504+46967+008400FM-15+0450LSZC V0209999V000510135019N0080001N1+00201-00101999999ADDGA1071+013501999GF107991999999999999999999MA1102101999999REMMET052METAR LSZC 211550Z VRB01KT 8000 BKN045 02/M01 Q1021;
0122068065999992010012206504+46967+008400FM-15+0450LSZC V0202501N002612200019N0112651N1-00501-00701999999ADDGA1021+004501999GF102991999999999999999999MA1102201999999REMMET053METAR LSZC 220650Z 25005KT 9999 FEW015 M05/M07 Q1022;
0122068065999992010012207204+46967+008400FM-15+0450LSZC V0202601N001512200019N0112651N1-00501-00601999999ADDGA1021+004501999GF102991999999999999999999MA1102201999999REMMET053METAR LSZC 220720Z 26003KT 9999 FEW015 M05/M06 Q1022;
0122068065999992010012207504+46967+008400FM-15+0450LSZC V0202401N001512200019N0112651N1-00501-00701999999ADDGA1021+003001999GF102991999999999999999999MA1102201999999REMMET053METAR LSZC 220750Z 24003KT 9999 FEW010 M05/M07 Q1022;
0122068065999992010012208204+46967+008400FM-15+0450LSZC V0202601N002112200019N0112651N1-00401-00601999999ADDGA1021+003601999GF102991999999999999999999MA1102201999999REMMET053METAR LSZC 220820Z 26004KT 9999 FEW012 M04/M06 Q1022;
0122068065999992010012208504+46967+008400FM-15+0450LSZC V0209999V001012200019N0112651N1-00401-00601999999ADDGA1021+004501999GF102991999999999999999999MA1102201999999REMMET053METAR LSZC 220850Z VRB02KT 9999 FEW015 M04/M06 Q1022;
0122068065999992010012209204+46967+008400FM-15+0450LSZC V0202501N001012200019N0112651N1-00401-00501999999ADDGA1021+004501999GF102991999999999999999999MA1102201999999REMMET053METAR LSZC 220920Z 25002KT 9999 FEW015 M04/M05 Q1022;
0122068065999992010012209504+46967+008400FM-15+0450LSZC V0202201N001012200019N0112651N1-00301-00501999999ADDGA1021+004501999GF102991999999999999999999MA1102301999999REMMET053METAR LSZC 220950Z 22002KT 9999 FEW015 M03/M05 Q1023;
0121068065999992010012210204+46967+008400FM-15+0450LSZC V0209999V001012200019N0112651N1+00001-00301999999ADDGA1021+004501999GF102991999999999999999999MA1102201999999REMMET052METAR LSZC 221020Z VRB02KT 9999 FEW015 00/M03 Q1022;
0121068065999992010012210504+46967+008400FM-15+0450LSZC V0209999V001012200019N0112651N1+00101-00301999999ADDGA1021+004501999GF102991999999999999999999MA1102201999999REMMET052METAR LSZC 221050Z VRB02KT 9999 FEW015 01/M03 Q1022;
0129068065999992010012212204+46967+008400FM-15+0450LSZC V0201301N001512200019N0070001N1+00301-00201999999ADDGA1021+004501999GF102991999999999999999999MA1102201999999REMMET060METAR LSZC 221220Z 13003KT 020V190 7000 FEW015 03/M02 Q1022;
0129068065999992010012212504+46967+008400FM-15+0450LSZC V0201601N001512200019N0070001N1+00301-00101999999ADDGA1021+004501999GF102991999999999999999999MA1102201999999REMMET060METAR LSZC 221250Z 16003KT 080V240 7000 FEW015 03/M01 Q1022;
0121068065999992010012213204+46967+008400FM-15+0450LSZC V0209999V001012200019N0070001N1+00301-00201999999ADDGA1021+004501999GF102991999999999999999999MA1102101999999REMMET052METAR LSZC 221320Z VRB02KT 7000 FEW015 03/M02 Q1021;
0121068065999992010012213504+46967+008400FM-15+0450LSZC V0209999V001512200019N0070001N1+00301-00101999999ADDGA1021+004501999GF102991999999999999999999MA1102101999999REMMET052METAR LSZC 221350Z VRB03KT 7000 FEW015 03/M01 Q1021;
0121068065999992010012214204+46967+008400FM-15+0450LSZC V0209999V001012200019N0070001N1+00301-00101999999ADDGA1021+004501999GF102991999999999999999999MA1102201999999REMMET052METAR LSZC 221420Z VRB02KT 7000 FEW015 03/M01 Q1022;
0121068065999992010012214504+46967+008400FM-15+0450LSZC V0201801N002112200019N0070001N1+00201-00201999999ADDGA1021+004501999GF102991999999999999999999MA1102201999999REMMET052METAR LSZC 221450Z 18004KT 7000 FEW015 02/M02 Q1022;
0121068065999992010012215204+46967+008400FM-15+0450LSZC V0201601N000512200019N0070001N1+00101-00201999999ADDGA1021+004501999GF102991999999999999999999MA1102201999999REMMET052METAR LSZC 221520Z 16001KT 7000 FEW015 01/M02 Q1022;
0121068065999992010012215504+46967+008400FM-15+0450LSZC V0201501N001012200019N0070001N1+00001-00201999999ADDGA1021+004501999GF102991999999999999999999MA1102201999999REMMET052METAR LSZC 221550Z 15002KT 7000 FEW015 00/M02 Q1022;
0154068065999992010012506504+46967+008400FM-15+0450LSZC V0202301N001510150019N0045001N1-00101-00301999999ADDGA1021+001501999GA2081+015001999GF108991999999999999999999MA1102301999999MW1101REMMET063METAR LSZC 250650Z 23003KT 4500 BR FEW005 OVC050 M01/M03 Q1023;
0163068065999992010012508504+46967+008400FM-15+0450LSZC V0209999V001510150019N0035001N1+00001-00101999999ADDGA1041+001501999GA2081+015001999GF108991999999999999999999MA1102401999999MW1101MW2711REMMET066METAR LSZC 250850Z VRB03KT 3500 BR -SN SCT005 OVC050 00/M01 Q1024;
0152068065999992010012510204+46967+008400FM-15+0450LSZC V0209999V001010129019N0035001N1+00201+00001999999ADDGA1021+004501999GA2071+012901999GF107991999999999999999999MA1102401999999MW1101REMMET061METAR LSZC 251020Z VRB02KT 3500 BR FEW015 BKN043 02/00 Q1024;
0152068065999992010012510504+46967+008400FM-15+0450LSZC V0202501N001010129019N0035001N1+00201+00001999999ADDGA1021+004501999GA2071+012901999GF107991999999999999999999MA1102401999999MW1101REMMET061METAR LSZC 251050Z 25002KT 3500 BR FEW015 BKN043 02/00 Q1024;
0129068065999992010012512504+46967+008400FM-15+0450LSZC V0209999V000510045019N0040001N1+00301+00001999999ADDGA1081+004501999GF108991999999999999999999MA1102401999999MW1101REMMET054METAR LSZC 251250Z VRB01KT 4000 BR OVC015 03/00 Q1024;
0129068065999992010012513204+46967+008400FM-15+0450LSZC V0202301N001510045019N0050001N1+00301+00001999999ADDGA1081+004501999GF108991999999999999999999MA1102401999999MW1101REMMET054METAR LSZC 251320Z 23003KT 5000 BR OVC015 03/00 Q1024;
0129068065999992010012513504+46967+008400FM-15+0450LSZC V0209999V001010045019N0050001N1+00301+00001999999ADDGA1081+004501999GF108991999999999999999999MA1102401999999MW1101REMMET054METAR LSZC 251350Z VRB02KT 5000 BR OVC015 03/00 Q1024;
0152068065999992010012514204+46967+008400FM-15+0450LSZC V0209999V000510042019N0040001N1+00301+00001999999ADDGA1041+003001999GA2081+004201999GF108991999999999999999999MA1102511999999MW1101REMMET061METAR LSZC 251420Z VRB01KT 4000 BR SCT010 OVC014 03/00 Q1025;
0162068065999992010012515504+46967+008400FM-15+0450LSZC V0201201N000510042019N0040001N1+00201+00001999999ADDGA1041+003001999GA2081+004201999GF108991999999999999999999MA1102511999999MW1101MW2511REMMET065METAR LSZC 251550Z 12001KT 4000 BR -DZ SCT010 OVC014 02/00 Q1025;
0153068065999992010012606504+46967+008400FM-15+0450LSZC V0203301N004610033019N0035001N1+00101-00101999999ADDGA1041+002401999GA2081+003301999GF108991999999999999999999MA1102711999999MW1101REMMET062METAR LSZC 260650Z 33009KT 3500 BR SCT008 OVC011 01/M01 Q1027;
0161068065999992010012607204+46967+008400FM-15+0450LSZC V0203301N005110033019N0035001N1+00001-00201999999ADDGA1041+002401999GA2081+003301999GF108991999999999999999999MA1102711999999MW1101REMMET070METAR LSZC 260720Z 33010KT 310V020 3500 BR SCT008 OVC011 00/M02 Q1027;
0174068065999992010012607504+46967+008400FM-15+0450LSZC V0209999V002610033019N0035001N1+00001-00201999999ADDGA1041+002401999GA2081+003301999GF108991999999999999999999MA1102811999999MW1101MW2711OC100931REMMET069METAR LSZC 260750Z VRB05G18KT 3500 BR -SN SCT008 OVC011 00/M02 Q1028;
0181068065999992010012608204+46967+008400FM-15+0450LSZC V0203201N004110030019N0030001N1+00001-00201999999ADDGA1071+003001999GA2081+005401999GF108991999999999999999999MA1102811999999MW1101MW2731OC101031REMMET076METAR LSZC 260820Z 32008G20KT 280V030 3000 BR SN BKN010 OVC018 00/M02 Q1028;
0146068065999992010012608504+46967+008400FM-15+0450LSZC V0203101N005110021019N0012001N1+00001-00201999999ADDGA1091+002101999GF109991999999000251999999MA1102811999999MW1101MW2731REMMET065METAR LSZC 260850Z 31010KT 260V350 1200 BR SN VV007 00/M02 Q1028;
0137068065999992010012609204+46967+008400FM-15+0450LSZC V0202101N001510009019N0009001N1+00001-00101999999ADDGA1091+000901999GF109991999999000251999999MA1102811999999MW1731REMMET062METAR LSZC 260920Z 21003KT 150V260 0900 SN VV003 00/M01 Q1028;
0130068065999992010012609504+46967+008400FM-15+0450LSZC V0209999V001510018019N0010001N1-00101-00101999999ADDGA1091+001801999GF109991999999000251999999MA1102811999999MW1731REMMET055METAR LSZC 260950Z VRB03KT 1000 SN VV006 M01/M01 Q1028;
0154068065999992010012610204+46967+008400FM-15+0450LSZC V0202301N001510045019N0014001N1-00101-00101999999ADDGA1041+002701999GA2081+004501999GF108991999999999999999999MA1102811999999MW1731REMMET063METAR LSZC 261020Z 23003KT 1400 SN SCT009 OVC015 M01/M01 Q1028;
0154068065999992010012610504+46967+008400FM-15+0450LSZC V0209999V001010045019N0030001N1+00001-00101999999ADDGA1041+002701999GA2081+004501999GF108991999999999999999999MA1102811999999MW1711REMMET063METAR LSZC 261050Z VRB02KT 3000 -SN SCT009 OVC015 00/M01 Q1028;
0171068065999992010012612204+46967+008400FM-15+0450LSZC V0203201N004110072019N0030001N1+00001-00201999999ADDGA1041+002701999GA2081+007201999GF108991999999999999999999MA1102711999999MW1711REMMET080METAR LSZC 261220Z 32008KT 280V360 3000 -SN SCT009 OVC024 00/M02 Q1027 88593099;
0171068065999992010012612504+46967+008400FM-15+0450LSZC V0203401N005110072019N0030001N1+00001-00201999999ADDGA1041+002701999GA2081+007201999GF108991999999999999999999MA1102611999999MW1711REMMET080METAR LSZC 261250Z 34010KT 300V010 3000 -SN SCT009 OVC024 00/M02 Q1026 88593099;
0163068065999992010012613204+46967+008400FM-15+0450LSZC V0203301N006710072019N0030001N1+00001-00201999999ADDGA1041+002701999GA2081+007201999GF108991999999999999999999MA1102611999999MW1711REMMET072METAR LSZC 261320Z 33013KT 3000 -SN SCT009 OVC024 00/M02 Q1026 88593099;
0172068065999992010012613504+46967+008400FM-15+0450LSZC V0203201N004610054019N0030001N1-00101-00301999999ADDGA1041+003001999GA2081+005401999GF108991999999999999999999MA1102611999999MW1711REMMET081METAR LSZC 261350Z 32009KT 280V360 3000 -SN SCT010 OVC018 M01/M03 Q1026 88593099;
0172068065999992010012614204+46967+008400FM-15+0450LSZC V0203201N004610054019N0025001N1-00101-00301999999ADDGA1041+003001999GA2081+005401999GF108991999999999999999999MA1102611999999MW1711REMMET081METAR LSZC 261420Z 32009KT 280V360 2500 -SN SCT010 OVC018 M01/M03 Q1026 88593099;
0171068065999992010012614504+46967+008400FM-15+0450LSZC V0203101N004110054019N0030001N1-00101-00301999999ADDGA1041+003001999GA2081+005401999GF108991999999999999999999MA1102611999999MW1731REMMET080METAR LSZC 261450Z 31008KT 290V350 3000 SN SCT010 OVC018 M01/M03 Q1026 88593099;
0174068065999992010012615204+46967+008400FM-15+0450LSZC V0203301N005710054019N0030001N1-00101-00301999999ADDGA1041+003001999GA2081+005401999GF108991999999999999999999MA1102611999999MW1711OC101131REMMET075METAR LSZC 261520Z 33011G22KT 280V010 3000 -SN SCT010 OVC018 M01/M03 Q1026;
0163068065999992010012615504+46967+008400FM-15+0450LSZC V0203301N004610054019N0030001N1-00101-00301999999ADDGA1041+003001999GA2081+005401999GF108991999999999999999999MA1102611999999MW1711REMMET072METAR LSZC 261550Z 33009KT 300V010 3000 -SN SCT010 OVC018 M01/M03 Q1026;
0154068065999992010012706504+46967+008400FM-15+0450LSZC V0202101N001510084019N0030001N1-00401-00601999999ADDGA1041+004801999GA2081+008401999GF108991999999999999999999MA1102611999999MW1101REMMET063METAR LSZC 270650Z 21003KT 3000 BR SCT016 OVC028 M04/M06 Q1026;
0154068065999992010012707204+46967+008400FM-15+0450LSZC V0203201N004110084019N0035001N1-00401-00601999999ADDGA1041+004801999GA2081+008401999GF108991999999999999999999MA1102711999999MW1101REMMET063METAR LSZC 270720Z 32008KT 3500 BR SCT016 OVC028 M04/M06 Q1027;
0139068065999992010012707504+46967+008400FM-15+0450LSZC V0203201N003610048019N0035001N1-00401-00701999999ADDGA1081+004801999GF108991999999999999999999MA1102711999999MW1101REMMET064METAR LSZC 270750Z 32007KT 260V340 3500 BR OVC016 M04/M07 Q1027;
0131068065999992010012708204+46967+008400FM-15+0450LSZC V0209999V001510048019N0035001N1-00401-00701999999ADDGA1081+004801999GF108991999999999999999999MA1102711999999MW1101REMMET056METAR LSZC 270820Z VRB03KT 3500 BR OVC016 M04/M07 Q1027;
0131068065999992010012708504+46967+008400FM-15+0450LSZC V0209999V000510048019N0035001N1-00401-00701999999ADDGA1081+004801999GF108991999999999999999999MA1102711999999MW1101REMMET056METAR LSZC 270850Z VRB01KT 3500 BR OVC016 M04/M07 Q1027;
0131068065999992010012709204+46967+008400FM-15+0450LSZC V0209999V001510048019N0035001N1-00401-00701999999ADDGA1081+004801999GF108991999999999999999999MA1102711999999MW1101REMMET056METAR LSZC 270920Z VRB03KT 3500 BR OVC016 M04/M07 Q1027;
0131068065999992010012709504+46967+008400FM-15+0450LSZC V0209999V001010048019N0035001N1-00401-00701999999ADDGA1081+004801999GF108991999999999999999999MA1102711999999MW1101REMMET056METAR LSZC 270950Z VRB02KT 3500 BR OVC016 M04/M07 Q1027;
0131068065999992010012710204+46967+008400FM-15+0450LSZC V0209999V001010048019N0035001N1-00401-00701999999ADDGA1081+004801999GF108991999999999999999999MA1102611999999MW1101REMMET056METAR LSZC 271020Z VRB02KT 3500 BR OVC016 M04/M07 Q1026;
0139068065999992010012710504+46967+008400FM-15+0450LSZC V0203101N002610051019N0035001N1-00401-00701999999ADDGA1081+005101999GF108991999999999999999999MA1102711999999MW1101REMMET064METAR LSZC 271050Z 31005KT 280V360 3500 BR OVC017 M04/M07 Q1027;
0131068065999992010012712204+46967+008400FM-15+0450LSZC V0209999V001010051019N0040001N1-00401-00701999999ADDGA1081+005101999GF108991999999999999999999MA1102511999999MW1101REMMET056METAR LSZC 271220Z VRB02KT 4000 BR OVC017 M04/M07 Q1025;
0131068065999992010012712504+46967+008400FM-15+0450LSZC V0209999V001510048019N0040001N1-00401-00701999999ADDGA1081+004801999GF108991999999999999999999MA1102511999999MW1101REMMET056METAR LSZC 271250Z VRB03KT 4000 BR OVC016 M04/M07 Q1025;
0131068065999992010012713204+46967+008400FM-15+0450LSZC V0209999V001010051019N0035001N1-00301-00701999999ADDGA1081+005101999GF108991999999999999999999MA1102401999999MW1101REMMET056METAR LSZC 271320Z VRB02KT 3500 BR OVC017 M03/M07 Q1024;
0154068065999992010012713504+46967+008400FM-15+0450LSZC V0209999V001510069019N0035001N1-00401-00701999999ADDGA1041+005101999GA2081+006901999GF108991999999999999999999MA1102401999999MW1101REMMET063METAR LSZC 271350Z VRB03KT 3500 BR SCT017 OVC023 M04/M07 Q1024;
0154068065999992010012714204+46967+008400FM-15+0450LSZC V0209999V000510066019N0035001N1-00301-00701999999ADDGA1041+005101999GA2081+006601999GF108991999999999999999999MA1102401999999MW1101REMMET063METAR LSZC 271420Z VRB01KT 3500 BR SCT017 OVC022 M03/M07 Q1024;
0154068065999992010012714504+46967+008400FM-15+0450LSZC V0209999C000010066019N0035001N1-00301-00701999999ADDGA1041+005101999GA2071+006601999GF107991999999999999999999MA1102301999999MW1101REMMET063METAR LSZC 271450Z 00000KT 3500 BR SCT017 BKN022 M03/M07 Q1023;
0154068065999992010012715204+46967+008400FM-15+0450LSZC V0202701N001010066019N0035001N1-00401-00701999999ADDGA1041+005101999GA2071+006601999GF107991999999999999999999MA1102301999999MW1101REMMET063METAR LSZC 271520Z 27002KT 3500 BR SCT017 BKN022 M04/M07 Q1023;
0154068065999992010012715504+46967+008400FM-15+0450LSZC V0202301N001010057019N0035001N1-00401-00601999999ADDGA1041+005101999GA2081+005701999GF108991999999999999999999MA1102401999999MW1101REMMET063METAR LSZC 271550Z 23002KT 3500 BR SCT017 OVC019 M04/M06 Q1024;
0139068065999992010012806504+46967+008400FM-15+0450LSZC V0209999V000510015019N0008001N1-00401-00401999999ADDGA1091+001501999GF109991999999000251999999MA1101191999999MW1731REMMET064METAR LSZC 280650Z VRB01KT 0800 SN VV005 M04/M04 Q1012 884990//;
0137068065999992010012807504+46967+008400FM-15+0450LSZC V0209999V001010012019N0006001N1-00301-00401999999ADDGA1091+001201999GF109991999999000251999999MA1101081999999MW1731REMMET062METAR LSZC 280750Z VRB02KT 0600 SN VV004 M03/M04 Q1011 SNOCLO;
0137068065999992010012808204+46967+008400FM-15+0450LSZC V0203601N000510012019N0006001N1-00301-00401999999ADDGA1091+001201999GF109991999999000251999999MA1101191999999MW1731REMMET062METAR LSZC 280820Z 36001KT 0600 SN VV004 M03/M04 Q1012 SNOCLO;
0138068065999992010012808504+46967+008400FM-15+0450LSZC V0202501N002110024019N0010001N1-00301-00301999999ADDGA1091+002401999GF109991999999000251999999MA1101191999999MW1711REMMET063METAR LSZC 280850Z 25004KT 1000 -SN VV008 M03/M03 Q1012 SNOCLO;
0138068065999992010012809204+46967+008400FM-15+0450LSZC V0202601N002110012019N0007001N1-00301-00301999999ADDGA1091+001201999GF109991999999000251999999MA1101081999999MW1751REMMET063METAR LSZC 280920Z 26004KT 0700 +SN VV004 M03/M03 Q1011 SNOCLO;
0137068065999992010012809504+46967+008400FM-15+0450LSZC V0202701N002110033019N0015001N1-00201-00301999999ADDGA1091+003301999GF109991999999000251999999MA1101081999999MW1731REMMET062METAR LSZC 280950Z 27004KT 1500 SN VV011 M02/M03 Q1011 SNOCLO;
0137068065999992010012810204+46967+008400FM-15+0450LSZC V0202401N001510030019N0015001N1-00201-00301999999ADDGA1091+003001999GF109991999999000251999999MA1101191999999MW1731REMMET062METAR LSZC 281020Z 24003KT 1500 SN VV010 M02/M03 Q1012 SNOCLO;
0137068065999992010012810504+46967+008400FM-15+0450LSZC V0202601N001010015019N0009001N1-00201-00301999999ADDGA1091+001501999GF109991999999000251999999MA1101081999999MW1731REMMET062METAR LSZC 281050Z 26002KT 0900 SN VV005 M02/M03 Q1011 SNOCLO;
0137068065999992010012812204+46967+008400FM-15+0450LSZC V0202501N001510030019N0013001N1-00201-00301999999ADDGA1091+003001999GF109991999999000251999999MA1101021999999MW1731REMMET062METAR LSZC 281220Z 25003KT 1300 SN VV010 M02/M03 Q1010 SNOCLO;
0139068065999992010012812504+46967+008400FM-15+0450LSZC V0202401N002610030019N0013001N1-00201-00301999999ADDGA1091+003001999GF109991999999000251999999MA1101021999999MW1731REMMET064METAR LSZC 281250Z 24005KT 1300 SN VV010 M02/M03 Q1010 25//99//;
0164068065999992010012813204+46967+008400FM-15+0450LSZC V0202501N002110045019N0025001N1-00201-00301999999ADDGA1041+003001999GA2081+004501999GF108991999999999999999999MA1100911999999MW1711REMMET073METAR LSZC 281320Z 25004KT 2500 -SN SCT010 OVC015 M02/M03 Q1009 25//99//;
0164068065999992010012813504+46967+008400FM-15+0450LSZC V0202401N002110045019N0020001N1-00201-00301999999ADDGA1071+004501999GA2081+014401999GF108991999999999999999999MA1100911999999MW1711REMMET073METAR LSZC 281350Z 24004KT 2000 -SN BKN015 OVC048 M02/M03 Q1009 25//99//;
0164068065999992010012814204+46967+008400FM-15+0450LSZC V0202701N000510033019N0020001N1-00101-00201999999ADDGA1071+003301999GA2081+014401999GF108991999999999999999999MA1100911999999MW1711REMMET073METAR LSZC 281420Z 27001KT 2000 -SN BKN011 OVC048 M01/M02 Q1009 25//99//;
0140068065999992010012814504+46967+008400FM-15+0450LSZC V0209999V000510030019N0015001N1-00101-00201999999ADDGA1091+003001999GF109991999999000251999999MA1100911999999MW1711REMMET065METAR LSZC 281450Z VRB01KT 1500 -SN VV010 M01/M02 Q1009 25//99//;
0140068065999992010012815204+46967+008400FM-15+0450LSZC V0209999V000510030019N0015001N1-00101-00201999999ADDGA1091+003001999GF109991999999000251999999MA1100911999999MW1711REMMET065METAR LSZC 281520Z VRB01KT 1500 -SN VV010 M01/M02 Q1009 25//99//;
0139068065999992010012815504+46967+008400FM-15+0450LSZC V0209999V000510030019N0012001N1-00101-00201999999ADDGA1091+003001999GF109991999999000251999999MA1100911999999MW1731REMMET064METAR LSZC 281550Z VRB01KT 1200 SN VV010 M01/M02 Q1009 25//99//;
0122068065999992010012906504+46967+008400FM-15+0450LSZC V0209999V001510150019N0112651N1-00201-00401999999ADDGA1081+015001999GF108991999999999999999999MA1100001999999REMMET053METAR LSZC 290650Z VRB03KT 9999 OVC050 M02/M04 Q1000;
0154068065999992010012907204+46967+008400FM-15+0450LSZC V0209999V000510150019N0112651N1-00201-00401999999ADDGA1021+003001999GA2081+015001999GF108991999999999999999999MA1099901999999REMMET069METAR LSZC 290720Z VRB01KT 9999 FEW010 OVC050 M02/M04 Q0999 88798091;
0154068065999992010012908204+46967+008400FM-15+0450LSZC V0209999V001010150019N0112651N1-00101-00401999999ADDGA1021+003001999GA2081+015001999GF108991999999999999999999MA1099901999999REMMET069METAR LSZC 290820Z VRB02KT 9999 FEW010 OVC050 M01/M04 Q0999 88798091;
0153068065999992010012908504+46967+008400FM-15+0450LSZC V0209999V000510090019N0080001N1+00001-00301999999ADDGA1021+003001999GA2081+009001999GF108991999999999999999999MA1099901999999REMMET068METAR LSZC 290850Z VRB01KT 8000 FEW010 OVC030 00/M03 Q0999 88798091;
0131068065999992010012909204+46967+008400FM-15+0450LSZC V0202401N001010120019N0080001N1-00101-00301999999ADDGA1081+012001999GF108991999999999999999999MA1099801999999REMMET062METAR LSZC 290920Z 24002KT 8000 OVC040 M01/M03 Q0998 88798091;
0130068065999992010012909504+46967+008400FM-15+0450LSZC V0202701N002110105019N0080001N1+00001-00301999999ADDGA1081+010501999GF108991999999999999999999MA1099801999999REMMET061METAR LSZC 290950Z 27004KT 8000 OVC035 00/M03 Q0998 88798091;
0130068065999992010012910204+46967+008400FM-15+0450LSZC V0203001N000510135019N0112651N1+00001-00301999999ADDGA1081+013501999GF108991999999999999999999MA1099701999999REMMET061METAR LSZC 291020Z 30001KT 9999 OVC045 00/M03 Q0997 88798091;
0140068065999992010012910504+46967+008400FM-15+0450LSZC V0209999V000510135019N0090001N1+00101-00301999999ADDGA1081+013501999GF108991999999999999999999MA1099701999999MW1711REMMET065METAR LSZC 291050Z VRB01KT 9000 -SN OVC045 01/M03 Q0997 88798091;
0130068065999992010012912204+46967+008400FM-15+0450LSZC V0200601N001510135019N0090001N1+00101-00301999999ADDGA1081+013501999GF108991999999999999999999MA1099391999999REMMET061METAR LSZC 291220Z 06003KT 9000 OVC045 01/M03 Q0994 88556094;
0098068065999992010012912504+46967+008400FM-15+0450LSZC V0200701N001512200019N0050001N1+00101-00201999999ADDMA1099291999999MW1101REMMET065METAR LSZC 291250Z 07003KT 040V110 5000 BR 01/M02 Q0993 88556094;
0147068065999992010012913204+46967+008400FM-15+0450LSZC V0200501N001510030019N0030001N1+00101-00201999999ADDGA1081+003001999GF108991999999999999999999MA1099191999999MW1101REMMET072METAR LSZC 291320Z 05003KT 020V090 3000 BR OVC010 01/M02 Q0992 88556094;
0149068065999992010012913504+46967+008400FM-15+0450LSZC V0209999V001010024019N0015001N1+00001-00101999999ADDGA1081+002401999GF108991999999999999999999MA1099191999999MW1101MW2711REMMET068METAR LSZC 291350Z VRB02KT 1500 BR -SN OVC008 00/M01 Q0992 88556094;
0148068065999992010012914204+46967+008400FM-15+0450LSZC V0209999C000010024019N0015001N1+00001-00101999999ADDGA1081+002401999GF108991999999999999999999MA1099091999999MW1101MW2731REMMET067METAR LSZC 291420Z 00000KT 1500 BR SN OVC008 00/M01 Q0991 88556094;
0129068065999992010012914504+46967+008400FM-15+0450LSZC V0202301N000510030019N0015001N1+00001-00101999999ADDGA1091+003001999GF109991999999000251999999MA1099091999999MW1731REMMET054METAR LSZC 291450Z 23001KT 1500 SN VV010 00/M01 Q0991;
0130068065999992010012915204+46967+008400FM-15+0450LSZC V0202601N001510018019N0009001N1+00001-00101999999ADDGA1091+001801999GF109991999999000251999999MA1099091999999MW1751REMMET055METAR LSZC 291520Z 26003KT 0900 +SN VV006 00/M01 Q0991;
0130068065999992010012915504+46967+008400FM-15+0450LSZC V0209999V000510012019N0007001N1+00001-00101999999ADDGA1091+001201999GF109991999999000251999999MA1098981999999MW1751REMMET055METAR LSZC 291550Z VRB01KT 0700 +SN VV004 00/M01 Q0990;
0122068065999992010020106504+46967+008400FM-15+0450LSZC V0202601N003112200019N0112651N1-01201-01301999999ADDGA1021+012001999GF102991999999999999999999MA1101391999999REMMET053METAR LSZC 010650Z 26006KT 9999 FEW040 M12/M13 Q1014;
0122068065999992010020107204+46967+008400FM-15+0450LSZC V0202701N003612200019N0112651N1-01101-01201999999ADDGA1021+012001999GF102991999999999999999999MA1101391999999REMMET053METAR LSZC 010720Z 27007KT 9999 FEW040 M11/M12 Q1014;
0145068065999992010020107504+46967+008400FM-15+0450LSZC V0202601N003112200019N0112651N1-01101-01201999999ADDGA1021+012001999GA2041+060001999GF104991999999999999999999MA1101391999999REMMET060METAR LSZC 010750Z 26006KT 9999 FEW040 SCT200 M11/M12 Q1014;
0145068065999992010020108204+46967+008400FM-15+0450LSZC V0202301N002612200019N0112651N1-01201-01301999999ADDGA1021+006001999GA2041+060001999GF104991999999999999999999MA1101391999999REMMET060METAR LSZC 010820Z 23005KT 9999 FEW020 SCT200 M12/M13 Q1014;
0145068065999992010020108504+46967+008400FM-15+0450LSZC V0202501N002112200019N0112651N1-01201-01301999999ADDGA1021+006001999GA2041+060001999GF104991999999999999999999MA1101391999999REMMET060METAR LSZC 010850Z 25004KT 9999 FEW020 SCT200 M12/M13 Q1014;
0145068065999992010020109204+46967+008400FM-15+0450LSZC V0202401N001512200019N0112651N1-00901-01201999999ADDGA1021+009001999GA2041+060001999GF104991999999999999999999MA1101391999999REMMET060METAR LSZC 010920Z 24003KT 9999 FEW030 SCT200 M09/M12 Q1014;
0153068065999992010020109504+46967+008400FM-15+0450LSZC V0202101N001512200019N0112651N1-00801-01101999999ADDGA1021+009001999GA2041+060001999GF104991999999999999999999MA1101391999999REMMET068METAR LSZC 010950Z 21003KT 170V240 9999 FEW030 SCT200 M08/M11 Q1014;
0145068065999992010020110204+46967+008400FM-15+0450LSZC V0202301N001010600019N0112651N1-00601-01001999999ADDGA1021+009001999GA2071+060001999GF107991999999999999999999MA1101391999999REMMET060METAR LSZC 011020Z 23002KT 9999 FEW030 BKN200 M06/M10 Q1014;
0168068065999992010020110504+46967+008400FM-15+0450LSZC V0209999V00051030001CN0112651N1-00401-00901999999ADDGA1021+009001999GA2041+030001999GA3071+060001999GF107991999999999999999999MA1101391999999REMMET067METAR LSZC 011050Z VRB01KT 9999 FEW030 SCT100 BKN200 M04/M09 Q1014;
0122068065999992010020112204+46967+008400FM-15+0450LSZC V0202501N000510270019N0112651N1-00401-00901999999ADDGA1081+027001999GF108991999999999999999999MA1101391999999REMMET053METAR LSZC 011220Z 25001KT 9999 OVC094 M04/M09 Q1014;
0122068065999992010020112504+46967+008400FM-15+0450LSZC V0203101N001010270019N0112651N1-00301-00801999999ADDGA1081+027001999GF108991999999999999999999MA1101391999999REMMET053METAR LSZC 011250Z 31002KT 9999 OVC094 M03/M08 Q1014;
0145068065999992010020113204+46967+008400FM-15+0450LSZC V0209999V000510270019N0112651N1-00201-00801999999ADDGA1071+027001999GA2081+060001999GF108991999999999999999999MA1101291999999REMMET060METAR LSZC 011320Z VRB01KT 9999 BKN090 OVC200 M02/M08 Q1013;
0122068065999992010020113504+46967+008400FM-15+0450LSZC V0201901N001510270019N0112651N1-00301-00801999999ADDGA1081+027001999GF108991999999999999999999MA1101391999999REMMET053METAR LSZC 011350Z 19003KT 9999 OVC090 M03/M08 Q1014;
0122068065999992010020114204+46967+008400FM-15+0450LSZC V0202501N001510210019N0112651N1-00301-00801999999ADDGA1081+021001999GF108991999999999999999999MA1101391999999REMMET053METAR LSZC 011420Z 25003KT 9999 OVC070 M03/M08 Q1014;
0122068065999992010020114504+46967+008400FM-15+0450LSZC V0209999V000510150019N0112651N1-00301-00801999999ADDGA1081+015001999GF108991999999999999999999MA1101391999999REMMET053METAR LSZC 011450Z VRB01KT 9999 OVC050 M03/M08 Q1014;
0122068065999992010020115204+46967+008400FM-15+0450LSZC V0209999V000510150019N0112651N1-00301-00801999999ADDGA1081+015001999GF108991999999999999999999MA1101391999999REMMET053METAR LSZC 011520Z VRB01KT 9999 OVC050 M03/M08 Q1014;
0133068065999992010020115504+46967+008400FM-15+0450LSZC V0209999C000010120019N0112651N1-00301-00801999999ADDGA1081+012001999GF108991999999999999999999MA1101391999999MW1161REMMET058METAR LSZC 011550Z 00000KT 9999 VCSH OVC040 M03/M08 Q1014;
0122068065999992010020206204+46967+008400FM-15+0450LSZC V0209999V000510390019N0112651N1-00201-00801999999ADDGA1071+039001999GF107991999999999999999999MA1102101999999REMMET053METAR LSZC 020620Z VRB01KT 9999 BKN130 M02/M08 Q1021;
0122068065999992010020207204+46967+008400FM-15+0450LSZC V0209999V000510390019N0112651N1-00301-00801999999ADDGA1071+039001999GF107991999999999999999999MA1102101999999REMMET053METAR LSZC 020720Z VRB01KT 9999 BKN130 M03/M08 Q1021;
0122068065999992010020207504+46967+008400FM-15+0450LSZC V0209999V000510210019N0112651N1-00201-00801999999ADDGA1071+021001999GF107991999999999999999999MA1102101999999REMMET053METAR LSZC 020750Z VRB01KT 9999 BKN077 M02/M08 Q1021;
0122068065999992010020208204+46967+008400FM-15+0450LSZC V0209999V001010210019N0112651N1-00201-00801999999ADDGA1071+021001999GF107991999999999999999999MA1102101999999REMMET053METAR LSZC 020820Z VRB02KT 9999 BKN077 M02/M08 Q1021;
0122068065999992010020208504+46967+008400FM-15+0450LSZC V0209999V001010210019N0112651N1-00201-00701999999ADDGA1071+021001999GF107991999999999999999999MA1102101999999REMMET053METAR LSZC 020850Z VRB02KT 9999 BKN072 M02/M07 Q1021;
0122068065999992010020209504+46967+008400FM-15+0450LSZC V0202701N00211999999CN0112651N1-00201-00601999999ADDGA1071+999999999GF107991999999999999999999MA1102001999999REMMET053METAR LSZC 020950Z 27004KT 9999 BKN/// M02/M06 Q1020;
0121068065999992010020210204+46967+008400FM-15+0450LSZC V0209999V000510270019N0112651N1+00101-00601999999ADDGA1071+027001999GF107991999999999999999999MA1102001999999REMMET052METAR LSZC 021020Z VRB01KT 9999 BKN090 01/M06 Q1020;
0121068065999992010020210504+46967+008400FM-15+0450LSZC V0209999C000010210019N0112651N1+00401-00601999999ADDGA1081+021001999GF108991999999999999999999MA1102001999999REMMET052METAR LSZC 021050Z 00000KT 9999 OVC075 04/M06 Q1020;
0144068065999992010020211504+46967+008400FM-15+0450LSZC V0209999C000010240019N0112651N1+00301-00601999999ADDGA1021+015001999GA2071+024001999GF107991999999999999999999MA1101901999999REMMET059METAR LSZC 021150Z 00000KT 9999 FEW050 BKN087 03/M06 Q1019;
0144068065999992010020212204+46967+008400FM-15+0450LSZC V0209999C000010660019N0112651N1+00201-00601999999ADDGA1021+015001999GA2071+066001999GF107991999999999999999999MA1101801999999REMMET059METAR LSZC 021220Z 00000KT 9999 FEW050 BKN220 02/M06 Q1018;
0144068065999992010020212504+46967+008400FM-15+0450LSZC V0209999V001010660019N0112651N1+00201-00601999999ADDGA1021+015001999GA2071+066001999GF107991999999999999999999MA1101801999999REMMET059METAR LSZC 021250Z VRB02KT 9999 FEW050 BKN220 02/M06 Q1018;
0144068065999992010020213204+46967+008400FM-15+0450LSZC V0209999V000510660019N0112651N1+00201-00601999999ADDGA1021+015001999GA2081+066001999GF108991999999999999999999MA1101801999999REMMET059METAR LSZC 021320Z VRB01KT 9999 FEW050 OVC220 02/M06 Q1018;
0144068065999992010020213504+46967+008400FM-15+0450LSZC V0209999C000010450019N0112651N1+00201-00501999999ADDGA1021+015001999GA2081+045001999GF108991999999999999999999MA1101801999999REMMET059METAR LSZC 021350Z 00000KT 9999 FEW050 OVC150 02/M05 Q1018;
0121068065999992010020214204+46967+008400FM-15+0450LSZC V0209999V000510210019N0112651N1+00101-00501999999ADDGA1081+021001999GF108991999999999999999999MA1101801999999REMMET052METAR LSZC 021420Z VRB01KT 9999 OVC070 01/M05 Q1018;
0121068065999992010020214504+46967+008400FM-15+0450LSZC V0209999C000010210019N0112651N1+00101-00501999999ADDGA1081+021001999GF108991999999999999999999MA1101691999999REMMET052METAR LSZC 021450Z 00000KT 9999 OVC070 01/M05 Q1017;
0121068065999992010020215204+46967+008400FM-15+0450LSZC V0209999V000510210019N0112651N1+00101-00401999999ADDGA1081+021001999GF108991999999999999999999MA1101691999999REMMET052METAR LSZC 021520Z VRB01KT 9999 OVC070 01/M04 Q1017;
0121068065999992010020215504+46967+008400FM-15+0450LSZC V0209999V000510210019N0112651N1+00101-00501999999ADDGA1081+021001999GF108991999999999999999999MA1101691999999REMMET052METAR LSZC 021550Z VRB01KT 9999 OVC070 01/M05 Q1017;
0121068065999992010020306504+46967+008400FM-15+0450LSZC V0209999V001010090019N0112651N1+00301-00101999999ADDGA1081+009001999GF108991999999999999999999MA1101291999999REMMET052METAR LSZC 030650Z VRB02KT 9999 OVC030 03/M01 Q1013;
0120068065999992010020307204+46967+008400FM-15+0450LSZC V0209999V000510090019N0112651N1+00301+00001999999ADDGA1081+009001999GF108991999999999999999999MA1101291999999REMMET051METAR LSZC 030720Z VRB01KT 9999 OVC030 03/00 Q1013;
0120068065999992010020307504+46967+008400FM-15+0450LSZC V0209999V001510105019N0112651N1+00201+00001999999ADDGA1081+010501999GF108991999999999999999999MA1101291999999REMMET051METAR LSZC 030750Z VRB03KT 9999 OVC035 02/00 Q1013;
0143068065999992010020309204+46967+008400FM-15+0450LSZC V0200401N003110150019N0112651N1+00301+00001999999ADDGA1021+010501999GA2081+015001999GF108991999999999999999999MA1101391999999REMMET058METAR LSZC 030920Z 04006KT 9999 FEW035 OVC056 03/00 Q1014;
0143068065999992010020310504+46967+008400FM-15+0450LSZC V0200601N002610150019N0112651N1+00301+00101999999ADDGA1021+010501999GA2081+015001999GF108991999999999999999999MA1101491999999REMMET058METAR LSZC 031050Z 06005KT 9999 FEW035 OVC056 03/01 Q1015;
0128068065999992010020313504+46967+008400FM-15+0450LSZC V0200501N003110150019N0112651N1+00601+00101999999ADDGA1081+015001999GF108991999999999999999999MA1101391999999REMMET059METAR LSZC 031350Z 05006KT 020V100 9999 OVC056 06/01 Q1014;
0151068065999992010020314204+46967+008400FM-15+0450LSZC V0200601N003110180019N0112651N1+00601+00101999999ADDGA1041+013501999GA2071+018001999GF107991999999999999999999MA1101491999999REMMET066METAR LSZC 031420Z 06006KT 330V110 9999 SCT045 BKN066 06/01 Q1015;
0143068065999992010020314504+46967+008400FM-15+0450LSZC V0200701N004610180019N0112651N1+00701+00001999999ADDGA1041+013501999GA2071+018001999GF107991999999999999999999MA1101491999999REMMET058METAR LSZC 031450Z 07009KT 9999 SCT045 BKN066 07/00 Q1015;
0143068065999992010020315504+46967+008400FM-15+0450LSZC V0209999V001010180019N0112651N1+00601+00101999999ADDGA1041+013501999GA2071+018001999GF107991999999999999999999MA1101491999999REMMET058METAR LSZC 031550Z VRB02KT 9999 SCT045 BKN066 06/01 Q1015;
0074068065999992010020406204+46967+008400FM-15+0450LSZC V0202601N001519999999Y0099001N1-00501-00601999999ADDMA1101491999999REMMET047METAR LSZC 040620Z 26003KT CAVOK M05/M06 Q1015;
0074068065999992010020406504+46967+008400FM-15+0450LSZC V0202601N002119999999Y0099001N1-00501-00601999999ADDMA1101491999999REMMET047METAR LSZC 040650Z 26004KT CAVOK M05/M06 Q1015;
0074068065999992010020407504+46967+008400FM-15+0450LSZC V0202401N002119999999Y0099001N1-00401-00501999999ADDMA1101491999999REMMET047METAR LSZC 040750Z 24004KT CAVOK M04/M05 Q1015;
0074068065999992010020408204+46967+008400FM-15+0450LSZC V0202401N002119999999Y0099001N1-00501-00601999999ADDMA1101491999999REMMET047METAR LSZC 040820Z 24004KT CAVOK M05/M06 Q1015;
0074068065999992010020408504+46967+008400FM-15+0450LSZC V0202701N002119999999Y0099001N1-00501-00601999999ADDMA1101491999999REMMET047METAR LSZC 040850Z 27004KT CAVOK M05/M06 Q1015;
0074068065999992010020409504+46967+008400FM-15+0450LSZC V0202601N001019999999Y0099001N1-00101-00401999999ADDMA1101491999999REMMET047METAR LSZC 040950Z 26002KT CAVOK M01/M04 Q1015;
0073068065999992010020410204+46967+008400FM-15+0450LSZC V0202401N001519999999Y0099001N1+00001-00301999999ADDMA1101491999999REMMET046METAR LSZC 041020Z 24003KT CAVOK 00/M03 Q1015;
0073068065999992010020410504+46967+008400FM-15+0450LSZC V0202401N001019999999Y0099001N1+00101-00301999999ADDMA1101491999999REMMET046METAR LSZC 041050Z 24002KT CAVOK 01/M03 Q1015;
0073068065999992010020412204+46967+008400FM-15+0450LSZC V0209999V000519999999Y0099001N1+00501-00101999999ADDMA1101391999999REMMET046METAR LSZC 041220Z VRB01KT CAVOK 05/M01 Q1014;
0073068065999992010020412504+46967+008400FM-15+0450LSZC V0209999C000019999999Y0099001N1+00801-00101999999ADDMA1101291999999REMMET046METAR LSZC 041250Z 00000KT CAVOK 08/M01 Q1013;
0073068065999992010020413504+46967+008400FM-15+0450LSZC V0209999C000019999999Y0099001N1+00601-00101999999ADDMA1101291999999REMMET046METAR LSZC 041350Z 00000KT CAVOK 06/M01 Q1013;
0073068065999992010020414504+46967+008400FM-15+0450LSZC V0201701N000519999999Y0099001N1+00401-00201999999ADDMA1101291999999REMMET046METAR LSZC 041450Z 17001KT CAVOK 04/M02 Q1013;
0073068065999992010020415204+46967+008400FM-15+0450LSZC V0209999V000519999999Y0099001N1+00401-00101999999ADDMA1101291999999REMMET046METAR LSZC 041520Z VRB01KT CAVOK 04/M01 Q1013;
0073068065999992010020415504+46967+008400FM-15+0450LSZC V0209999V000519999999Y0099001N1+00301-00301999999ADDMA1101191999999REMMET046METAR LSZC 041550Z VRB01KT CAVOK 03/M03 Q1012;
0121068065999992010020507204+46967+008400FM-15+0450LSZC V0209999V001010150019N0112651N1+00201-00101999999ADDGA1081+015001999GF108991999999999999999999MA1100811999999REMMET052METAR LSZC 050720Z VRB02KT 9999 OVC050 02/M01 Q1008;
0121068065999992010020507504+46967+008400FM-15+0450LSZC V0209999V000510150019N0112651N1+00201-00101999999ADDGA1081+015001999GF108991999999999999999999MA1100811999999REMMET052METAR LSZC 050750Z VRB01KT 9999 OVC050 02/M01 Q1008;
0121068065999992010020508204+46967+008400FM-15+0450LSZC V0209999V000510135019N0112651N1+00201-00101999999ADDGA1081+013501999GF108991999999999999999999MA1100711999999REMMET052METAR LSZC 050820Z VRB01KT 9999 OVC045 02/M01 Q1007;
0144068065999992010020509204+46967+008400FM-15+0450LSZC V0209999V000510135019N0112651N1+00201-00101999999ADDGA1021+007501999GA2081+013501999GF108991999999999999999999MA1100811999999REMMET059METAR LSZC 050920Z VRB01KT 9999 FEW025 OVC045 02/M01 Q1008;
0161068065999992010020512204+46967+008400FM-15+0450LSZC V0202501N002110048019N0060001N1+00301+00101999999ADDGA1071+004801999GA2081+013501999GF108991999999999999999999MA1100811999999MW1511REMMET070METAR LSZC 051220Z 25004KT 210V290 6000 -DZ BKN016 OVC045 03/01 Q1008;
0153068065999992010020513204+46967+008400FM-15+0450LSZC V0209999V001510036019N0060001N1+00301+00101999999ADDGA1071+003601999GA2081+006001999GF108991999999999999999999MA1100811999999MW1611REMMET062METAR LSZC 051320Z VRB03KT 6000 -RA BKN012 OVC020 03/01 Q1008;
0153068065999992010020514204+46967+008400FM-15+0450LSZC V0209999V000510036019N0040001N1+00201+00101999999ADDGA1071+003601999GA2081+006001999GF108991999999999999999999MA1100811999999MW1611REMMET062METAR LSZC 051420Z VRB01KT 4000 -RA BKN012 OVC020 02/01 Q1008;
0152068065999992010020515204+46967+008400FM-15+0450LSZC V0202201N000510036019N0040001N1+00201+00101999999ADDGA1071+003601999GA2081+006001999GF108991999999999999999999MA1100911999999MW1631REMMET061METAR LSZC 051520Z 22001KT 4000 RA BKN012 OVC020 02/01 Q1009;
0152068065999992010020515504+46967+008400FM-15+0450LSZC V0202501N001010036019N0040001N1+00201+00101999999ADDGA1071+003601999GA2081+006001999GF108991999999999999999999MA1100911999999MW1631REMMET061METAR LSZC 051550Z 25002KT 4000 RA BKN012 OVC020 02/01 Q1009;
0144068065999992010020806504+46967+008400FM-15+0450LSZC V0209999V000510105019N0060001N1+00101-00301999999ADDGA1021+004501999GA2071+010501999GF107991999999999999999999MA1100811999999REMMET059METAR LSZC 080650Z VRB01KT 6000 FEW015 BKN035 01/M03 Q1008;
0144068065999992010020807204+46967+008400FM-15+0450LSZC V0209999V001510105019N0060001N1+00001-00201999999ADDGA1021+006001999GA2071+010501999GF107991999999999999999999MA1100711999999REMMET059METAR LSZC 080720Z VRB03KT 6000 FEW020 BKN035 00/M02 Q1007;
0152068065999992010020807504+46967+008400FM-15+0450LSZC V0202901N003112200019N0080001N1+00001-00501999999ADDGA1021+009001999GA2041+010501999GF104991999999999999999999MA1100711999999REMMET067METAR LSZC 080750Z 29006KT 250V320 8000 FEW030 SCT035 00/M05 Q1007;
0145068065999992010020808204+46967+008400FM-15+0450LSZC V0202701N003612200019N0080001N1-00101-00501999999ADDGA1021+009001999GA2041+010501999GF104991999999999999999999MA1100711999999REMMET060METAR LSZC 080820Z 27007KT 8000 FEW030 SCT035 M01/M05 Q1007;
0145068065999992010020808504+46967+008400FM-15+0450LSZC V0202501N003112200019N0080001N1-00101-00601999999ADDGA1021+010501999GA2041+012001999GF104991999999999999999999MA1100711999999REMMET060METAR LSZC 080850Z 25006KT 8000 FEW035 SCT040 M01/M06 Q1007;
0144068065999992010020809204+46967+008400FM-15+0450LSZC V0202401N001510114019N0080001N1+00001-00401999999ADDGA1041+006901999GA2071+011401999GF107991999999999999999999MA1100711999999REMMET059METAR LSZC 080920Z 24003KT 8000 SCT023 BKN038 00/M04 Q1007;
0144068065999992010020809504+46967+008400FM-15+0450LSZC V0202601N002110120019N0080001N1+00001-00501999999ADDGA1041+006301999GA2071+012001999GF107991999999999999999999MA1100711999999REMMET059METAR LSZC 080950Z 26004KT 8000 SCT021 BKN040 00/M05 Q1007;
0144068065999992010020810204+46967+008400FM-15+0450LSZC V0209999V001010120019N0080001N1+00101-00401999999ADDGA1041+006601999GA2071+012001999GF107991999999999999999999MA1100611999999REMMET059METAR LSZC 081020Z VRB02KT 8000 SCT022 BKN040 01/M04 Q1006;
0144068065999992010020810504+46967+008400FM-15+0450LSZC V0209999C000010120019N0080001N1+00301-00401999999ADDGA1041+007201999GA2071+012001999GF107991999999999999999999MA1100611999999REMMET059METAR LSZC 081050Z 00000KT 8000 SCT024 BKN040 03/M04 Q1006;
0121068065999992010020812204+46967+008400FM-15+0450LSZC V0202001N001012200019N0080001N1+00201-00401999999ADDGA1041+012001999GF104991999999999999999999MA1100511999999REMMET052METAR LSZC 081220Z 20002KT 8000 SCT040 02/M04 Q1005;
0121068065999992010020812504+46967+008400FM-15+0450LSZC V0209999V001012200019N0080001N1+00201-00401999999ADDGA1041+012001999GF104991999999999999999999MA1100411999999REMMET052METAR LSZC 081250Z VRB02KT 8000 SCT040 02/M04 Q1004;
0121068065999992010020813504+46967+008400FM-15+0450LSZC V0209999V001012200019N0080001N1+00301-00301999999ADDGA1041+012001999GF104991999999999999999999MA1100411999999REMMET052METAR LSZC 081350Z VRB02KT 8000 SCT040 03/M03 Q1004;
0121068065999992010020814204+46967+008400FM-15+0450LSZC V0209999C000012200019N0080001N1+00501-00301999999ADDGA1041+012001999GF104991999999999999999999MA1100411999999REMMET052METAR LSZC 081420Z 00000KT 8000 SCT040 05/M03 Q1004;
0121068065999992010020814504+46967+008400FM-15+0450LSZC V0201701N001012200019N0080001N1+00201-00301999999ADDGA1041+012001999GF104991999999999999999999MA1100411999999REMMET052METAR LSZC 081450Z 17002KT 8000 SCT040 02/M03 Q1004;
0121068065999992010020815204+46967+008400FM-15+0450LSZC V0201901N001512200019N0080001N1+00201-00301999999ADDGA1041+012001999GF104991999999999999999999MA1100311999999REMMET052METAR LSZC 081520Z 19003KT 8000 SCT040 02/M03 Q1003;
0122068065999992010020907204+46967+008400FM-15+0450LSZC V0202601N001512200019N0070001N1-00601-00701999999ADDGA1041+004501999GF104991999999999999999999MA1100101999999REMMET053METAR LSZC 090720Z 26003KT 7000 SCT015 M06/M07 Q1001;
0122068065999992010020907504+46967+008400FM-15+0450LSZC V0202501N002612200019N0070001N1-00601-00701999999ADDGA1041+004501999GF104991999999999999999999MA1100101999999REMMET053METAR LSZC 090750Z 25005KT 7000 SCT015 M06/M07 Q1001;
0122068065999992010020908204+46967+008400FM-15+0450LSZC V0202501N002112200019N0070001N1-00501-00701999999ADDGA1021+004501999GF102991999999999999999999MA1100101999999REMMET053METAR LSZC 090820Z 25004KT 7000 FEW015 M05/M07 Q1001;
0122068065999992010020908504+46967+008400FM-15+0450LSZC V0202401N001512200019N0080001N1-00401-00701999999ADDGA1021+004501999GF102991999999999999999999MA1100001999999REMMET053METAR LSZC 090850Z 24003KT 8000 FEW015 M04/M07 Q1000;
0153068065999992010020912204+46967+008400FM-15+0450LSZC V0209999V000510450019N0050001N1+00101-00401999999ADDGA1021+004501999GA2081+045001999GF108991999999999999999999MA1100001999999MW1051REMMET062METAR LSZC 091220Z VRB01KT 5000 HZ FEW015 OVC150 01/M04 Q1000;
0161068065999992010020912504+46967+008400FM-15+0450LSZC V0201701N001510450019N0050001N1+00001-00401999999ADDGA1021+004501999GA2081+045001999GF108991999999999999999999MA1100001999999MW1051REMMET070METAR LSZC 091250Z 17003KT 140V220 5000 HZ FEW015 OVC150 00/M04 Q1000;
0121068065999992010020913204+46967+008400FM-15+0450LSZC V0202101N000510300019N0060001N1+00101-00301999999ADDGA1081+030001999GF108991999999999999999999MA1099901999999REMMET052METAR LSZC 091320Z 21001KT 6000 OVC100 01/M03 Q0999;
0121068065999992010020913504+46967+008400FM-15+0450LSZC V0209999C000010300019N0050001N1+00101-00401999999ADDGA1081+030001999GF108991999999999999999999MA1099901999999REMMET052METAR LSZC 091350Z 00000KT 5000 OVC100 01/M04 Q0999;
0121068065999992010020914504+46967+008400FM-15+0450LSZC V0202501N001010300019N0050001N1+00101-00301999999ADDGA1081+030001999GF108991999999999999999999MA1099901999999REMMET052METAR LSZC 091450Z 25002KT 5000 OVC100 01/M03 Q0999;
0121068065999992010020915204+46967+008400FM-15+0450LSZC V0209999V000510300019N0050001N1+00101-00301999999ADDGA1081+030001999GF108991999999999999999999MA1099901999999REMMET052METAR LSZC 091520Z VRB01KT 5000 OVC100 01/M03 Q0999;
0140068065999992010021006204+46967+008400FM-15+0450LSZC V0209999V001010048019N0025001N1-00101-00301999999ADDGA1081+004801999GF108991999999999999999999MA1100201999999MW1101MW2731REMMET059METAR LSZC 100620Z VRB02KT 2500 BR SN OVC016 M01/M03 Q1002;
0140068065999992010021006504+46967+008400FM-15+0450LSZC V0209999V001510048019N0025001N1-00101-00401999999ADDGA1081+004801999GF108991999999999999999999MA1100201999999MW1101MW2731REMMET059METAR LSZC 100650Z VRB03KT 2500 BR SN OVC016 M01/M04 Q1002;
0140068065999992010021007204+46967+008400FM-15+0450LSZC V0209999V001510048019N0025001N1-00101-00401999999ADDGA1081+004801999GF108991999999999999999999MA1100311999999MW1101MW2731REMMET059METAR LSZC 100720Z VRB03KT 2500 BR SN OVC016 M01/M04 Q1003;
0140068065999992010021007504+46967+008400FM-15+0450LSZC V0209999V001010048019N0025001N1-00201-00401999999ADDGA1081+004801999GF108991999999999999999999MA1100311999999MW1101MW2731REMMET059METAR LSZC 100750Z VRB02KT 2500 BR SN OVC016 M02/M04 Q1003;
0148068065999992010021008204+46967+008400FM-15+0450LSZC V0202001N002610048019N0025001N1-00201-00401999999ADDGA1081+004801999GF108991999999999999999999MA1100311999999MW1101MW2731REMMET067METAR LSZC 100820Z 20005KT 170V250 2500 BR SN OVC016 M02/M04 Q1003;
0141068065999992010021010504+46967+008400FM-15+0450LSZC V0209999V001510048019N0025001N1-00201-00501999999ADDGA1081+004801999GF108991999999999999999999MA1100411999999MW1101MW2711REMMET060METAR LSZC 101050Z VRB03KT 2500 BR -SN OVC016 M02/M05 Q1004;
0160068065999992010021012504+46967+008400FM-15+0450LSZC V0203201N004110075019N0025001N1-00201-00501999999ADDGA1081+007501999GF108991999999999999999999MA1100311999999MW1101MW2711OC100931REMMET071METAR LSZC 101250Z 32008G18KT 260V360 2500 BR -SN OVC025 M02/M05 Q1003;
0141068065999992010021013204+46967+008400FM-15+0450LSZC V0203201N006210075019N0025001N1-00301-00601999999ADDGA1081+007501999GF108991999999999999999999MA1100311999999MW1101MW2711REMMET060METAR LSZC 101320Z 32012KT 2500 BR -SN OVC025 M03/M06 Q1003;
0149068065999992010021013504+46967+008400FM-15+0450LSZC V0203201N005110084019N0025001N1-00301-00601999999ADDGA1081+008401999GF108991999999999999999999MA1100311999999MW1101MW2711REMMET068METAR LSZC 101350Z 32010KT 290V360 2500 BR -SN OVC028 M03/M06 Q1003;
0140068065999992010021014504+46967+008400FM-15+0450LSZC V0203301N005710036019N0025001N1-00301-00601999999ADDGA1081+003601999GF108991999999999999999999MA1100311999999MW1101MW2731REMMET059METAR LSZC 101450Z 33011KT 2500 BR SN OVC012 M03/M06 Q1003;
0148068065999992010021015204+46967+008400FM-15+0450LSZC V0203001N005110036019N0025001N1-00401-00601999999ADDGA1081+003601999GF108991999999999999999999MA1100311999999MW1101MW2731REMMET067METAR LSZC 101520Z 30010KT 260V350 2500 BR SN OVC012 M04/M06 Q1003;
0148068065999992010021107504+46967+008400FM-15+0450LSZC V0203201N004110036019N0025001N1-00701-00901999999ADDGA1081+003601999GF108991999999999999999999MA1100101999999MW1101MW2731REMMET067METAR LSZC 110750Z 32008KT 270V030 2500 BR SN OVC012 M07/M09 Q1001;
0149068065999992010021108504+46967+008400FM-15+0450LSZC V0203101N003610036019N0020001N1-00701-01001999999ADDGA1081+003601999GF108991999999999999999999MA1100101999999MW1101MW2711REMMET068METAR LSZC 110850Z 31007KT 270V340 2000 BR -SN OVC012 M07/M10 Q1001;
0148068065999992010021109204+46967+008400FM-15+0450LSZC V0203101N003110036019N0020001N1-00701-01001999999ADDGA1081+003601999GF108991999999999999999999MA1100101999999MW1101MW2731REMMET067METAR LSZC 110920Z 31006KT 270V350 2000 BR SN OVC012 M07/M10 Q1001;
0138068065999992010021109504+46967+008400FM-15+0450LSZC V0202901N002110030019N0015001N1-00701-00901999999ADDGA1091+003001999GF109991999999000251999999MA1100101999999MW1731REMMET063METAR LSZC 110950Z 29004KT 230V020 1500 SN VV010 M07/M09 Q1001;
0130068065999992010021110204+46967+008400FM-15+0450LSZC V0209999V000510030019N0015001N1-00601-00901999999ADDGA1091+003001999GF109991999999000251999999MA1100201999999MW1731REMMET055METAR LSZC 111020Z VRB01KT 1500 SN VV010 M06/M09 Q1002;
0130068065999992010021110504+46967+008400FM-15+0450LSZC V0209999V001010039019N0020001N1-00601-00901999999ADDGA1091+003901999GF109991999999000251999999MA1100101999999MW1731REMMET055METAR LSZC 111050Z VRB02KT 2000 SN VV013 M06/M09 Q1001;
0140068065999992010021112504+46967+008400FM-15+0450LSZC V0203201N003610045019N0035001N1-00501-00901999999ADDGA1081+004501999GF108991999999999999999999MA1100101999999MW1711REMMET065METAR LSZC 111250Z 32007KT 280V350 3500 -SN OVC015 M05/M09 Q1001;
0132068065999992010021113504+46967+008400FM-15+0450LSZC V0209999V001510045019N0030001N1-00501-00901999999ADDGA1081+004501999GF108991999999999999999999MA1100101999999MW1711REMMET057METAR LSZC 111350Z VRB03KT 3000 -SN OVC015 M05/M09 Q1001;
0155068065999992010021114204+46967+008400FM-15+0450LSZC V0209999V001010063019N0025001N1-00501-00901999999ADDGA1021+004501999GA2081+006301999GF108991999999999999999999MA1100101999999MW1711REMMET064METAR LSZC 111420Z VRB02KT 2500 -SN FEW015 OVC021 M05/M09 Q1001;
0155068065999992010021114504+46967+008400FM-15+0450LSZC V0209999V001510078019N0030001N1-00501-00901999999ADDGA1021+004501999GA2081+007801999GF108991999999999999999999MA1100101999999MW1711REMMET064METAR LSZC 111450Z VRB03KT 3000 -SN FEW015 OVC026 M05/M09 Q1001;
0163068065999992010021115204+46967+008400FM-15+0450LSZC V0203501N002610090019N0032001N1-00501-00901999999ADDGA1041+005101999GA2081+009001999GF108991999999999999999999MA1100101999999MW1711REMMET072METAR LSZC 111520Z 35005KT 320V040 3200 -SN SCT017 OVC030 M05/M09 Q1001;
0155068065999992010021115504+46967+008400FM-15+0450LSZC V0200101N003110090019N0045001N1-00501-00901999999ADDGA1041+005101999GA2081+009001999GF108991999999999999999999MA1100201999999MW1711REMMET064METAR LSZC 111550Z 01006KT 4500 -SN SCT017 OVC030 M05/M09 Q1002;
0131068065999992010021206504+46967+008400FM-15+0450LSZC V0202301N001010120019N0050001N1-00601-01001999999ADDGA1081+012001999GF108991999999999999999999MA1100811999999MW1101REMMET056METAR LSZC 120650Z 23002KT 5000 BR OVC040 M06/M10 Q1008;
0131068065999992010021207204+46967+008400FM-15+0450LSZC V0202601N001010120019N0050001N1-00601-00901999999ADDGA1081+012001999GF108991999999999999999999MA1100911999999MW1101REMMET056METAR LSZC 120720Z 26002KT 5000 BR OVC040 M06/M09 Q1009;
0131068065999992010021207504+46967+008400FM-15+0450LSZC V0202501N001510120019N0050001N1-00601-01001999999ADDGA1081+012001999GF108991999999999999999999MA1100911999999MW1101REMMET056METAR LSZC 120750Z 25003KT 5000 BR OVC040 M06/M10 Q1009;
0131068065999992010021208204+46967+008400FM-15+0450LSZC V0202601N002110120019N0050001N1-00501-00901999999ADDGA1081+012001999GF108991999999999999999999MA1100911999999MW1101REMMET056METAR LSZC 120820Z 26004KT 5000 BR OVC040 M05/M09 Q1009;
0131068065999992010021209504+46967+008400FM-15+0450LSZC V0202501N002110060019N0040001N1-00501-00901999999ADDGA1081+006001999GF108991999999999999999999MA1101021999999MW1101REMMET056METAR LSZC 120950Z 25004KT 4000 BR OVC020 M05/M09 Q1010;
0131068065999992010021210504+46967+008400FM-15+0450LSZC V0202501N001510060019N0050001N1-00401-00801999999ADDGA1081+006001999GF108991999999999999999999MA1101021999999MW1101REMMET056METAR LSZC 121050Z 25003KT 5000 BR OVC020 M04/M08 Q1010;
0140068065999992010021212204+46967+008400FM-15+0450LSZC V0202001N001510075019N0050001N1-00401-00701999999ADDGA1081+007501999GF108991999999999999999999MA1101021999999MW1711REMMET065METAR LSZC 121220Z 20003KT 170V240 5000 -SN OVC025 M04/M07 Q1010;
0131068065999992010021212504+46967+008400FM-15+0450LSZC V0201801N002110075019N0050001N1-00401-00701999999ADDGA1081+007501999GF108991999999999999999999MA1101021999999MW1101REMMET056METAR LSZC 121250Z 18004KT 5000 BR OVC025 M04/M07 Q1010;
0131068065999992010021214204+46967+008400FM-15+0450LSZC V0209999V001010060019N0030001N1-00301-00801999999ADDGA1081+006001999GF108991999999999999999999MA1101021999999MW1101REMMET056METAR LSZC 121420Z VRB02KT 3000 BR OVC020 M03/M08 Q1010;
0139068065999992010021214504+46967+008400FM-15+0450LSZC V0203101N003110060019N0030001N1-00301-00801999999ADDGA1081+006001999GF108991999999999999999999MA1101081999999MW1101REMMET064METAR LSZC 121450Z 31006KT 270V030 3000 BR OVC020 M03/M08 Q1011;
0139068065999992010021506504+46967+008400FM-15+0450LSZC V0202401N002610078019N0040001N1-00401-01001999999ADDGA1081+007801999GF108991999999999999999999MA1100811999999MW1101REMMET064METAR LSZC 150650Z 24005KT 210V270 4000 BR OVC026 M04/M10 Q1008;
0131068065999992010021507204+46967+008400FM-15+0450LSZC V0202401N003110078019N0040001N1-00401-01001999999ADDGA1081+007801999GF108991999999999999999999MA1100811999999MW1101REMMET056METAR LSZC 150720Z 24006KT 4000 BR OVC026 M04/M10 Q1008;
0131068065999992010021507504+46967+008400FM-15+0450LSZC V0202401N003610078019N0040001N1-00401-00901999999ADDGA1081+007801999GF108991999999999999999999MA1100711999999MW1101REMMET056METAR LSZC 150750Z 24007KT 4000 BR OVC026 M04/M09 Q1007;
0131068065999992010021508204+46967+008400FM-15+0450LSZC V0202201N004610078019N0045001N1-00401-01001999999ADDGA1081+007801999GF108991999999999999999999MA1100711999999MW1101REMMET056METAR LSZC 150820Z 22009KT 4500 BR OVC026 M04/M10 Q1007;
0131068065999992010021509204+46967+008400FM-15+0450LSZC V0202301N002610078019N0045001N1-00401-00901999999ADDGA1081+007801999GF108991999999999999999999MA1100711999999MW1101REMMET056METAR LSZC 150920Z 23005KT 4500 BR OVC026 M04/M09 Q1007;
0131068065999992010021509504+46967+008400FM-15+0450LSZC V0202401N002110078019N0050001N1-00401-00901999999ADDGA1081+007801999GF108991999999999999999999MA1100711999999MW1101REMMET056METAR LSZC 150950Z 24004KT 5000 BR OVC026 M04/M09 Q1007;
0122068065999992010021510204+46967+008400FM-15+0450LSZC V0202301N002110075019N0060001N1-00301-00901999999ADDGA1081+007501999GF108991999999999999999999MA1100711999999REMMET053METAR LSZC 151020Z 23004KT 6000 OVC025 M03/M09 Q1007;
0122068065999992010021510504+46967+008400FM-15+0450LSZC V0209999V000510075019N0060001N1-00201-00901999999ADDGA1071+007501999GF107991999999999999999999MA1100711999999REMMET053METAR LSZC 151050Z VRB01KT 6000 BKN025 M02/M09 Q1007;
0121068065999992010021512204+46967+008400FM-15+0450LSZC V0209999V001010075019N0060001N1+00001-00801999999ADDGA1071+007501999GF107991999999999999999999MA1100611999999REMMET052METAR LSZC 151220Z VRB02KT 6000 BKN025 00/M08 Q1006;
0122068065999992010021512504+46967+008400FM-15+0450LSZC V0209999V001010075019N0060001N1-00101-00801999999ADDGA1071+007501999GF107991999999999999999999MA1100611999999REMMET053METAR LSZC 151250Z VRB02KT 6000 BKN025 M01/M08 Q1006;
0122068065999992010021513204+46967+008400FM-15+0450LSZC V0209999V001012200019N0060001N1-00101-00801999999ADDGA1041+007501999GF104991999999999999999999MA1100611999999REMMET053METAR LSZC 151320Z VRB02KT 6000 SCT025 M01/M08 Q1006;
0121068065999992010021513504+46967+008400FM-15+0450LSZC V0209999V000512200019N0060001N1+00001-00801999999ADDGA1041+007501999GF104991999999999999999999MA1100611999999REMMET052METAR LSZC 151350Z VRB01KT 6000 SCT025 00/M08 Q1006;
0122068065999992010021514204+46967+008400FM-15+0450LSZC V0201801N001512200019N0060001N1-00101-00701999999ADDGA1041+007501999GF104991999999999999999999MA1100511999999REMMET053METAR LSZC 151420Z 18003KT 6000 SCT025 M01/M07 Q1005;
0122068065999992010021514504+46967+008400FM-15+0450LSZC V0201901N001012200019N0060001N1-00201-00701999999ADDGA1041+007501999GF104991999999999999999999MA1100511999999REMMET053METAR LSZC 151450Z 19002KT 6000 SCT025 M02/M07 Q1005;
0122068065999992010021515504+46967+008400FM-15+0450LSZC V0201901N001012200019N0050001N1-00201-00801999999ADDGA1021+007501999GF102991999999999999999999MA1100511999999REMMET053METAR LSZC 151550Z 19002KT 5000 FEW025 M02/M08 Q1005;
0131068065999992010021606504+46967+008400FM-15+0450LSZC V0202701N002110015019N0025001N1-00801-00901999999ADDGA1081+001501999GF108991999999999999999999MA1100311999999MW1101REMMET056METAR LSZC 160650Z 27004KT 2500 BR OVC005 M08/M09 Q1003;
0131068065999992010021607204+46967+008400FM-15+0450LSZC V0202501N002110009019N0025001N1-00701-00801999999ADDGA1081+000901999GF108991999999999999999999MA1100311999999MW1101REMMET056METAR LSZC 160720Z 25004KT 2500 BR OVC003 M07/M08 Q1003;
0131068065999992010021608204+46967+008400FM-15+0450LSZC V0202501N003110003019N0005001N1-00601-00701999999ADDGA1081+000301999GF108991999999999999999999MA1100311999999MW1441REMMET056METAR LSZC 160820Z 25006KT 0500 FG OVC001 M06/M07 Q1003;
0131068065999992010021608504+46967+008400FM-15+0450LSZC V0202401N002610006019N0010001N1-00601-00601999999ADDGA1081+000601999GF108991999999999999999999MA1100311999999MW1441REMMET056METAR LSZC 160850Z 24005KT 1000 FG OVC002 M06/M06 Q1003;
0131068065999992010021609504+46967+008400FM-15+0450LSZC V0202501N002610006019N0010001N1-00501-00601999999ADDGA1081+000601999GF108991999999999999999999MA1100311999999MW1441REMMET056METAR LSZC 160950Z 25005KT 1000 FG OVC002 M05/M06 Q1003;
