0151068460999992010012610004+46717+009517FM-12+232399999V02099999999990001519N0001001N1-00601+99999999999ADDAY171999AY241999GA1091+999999999GF109991091999999999999999MA1999999076601MW1711REMSYN060AAXX  26104 06846 41/01 900// 11060 2//// 37660 5//// 77174;
0151068460999992010012611004+46717+009517FM-12+232399999V02099999999990003019N0002001N1-00601+99999999999ADDAY171999AY241999GA1091+999999999GF109991091999999999999999MA1999999076601MW1711REMSYN060AAXX  26114 06846 41/02 900// 11060 2//// 37660 5//// 77174;
0151068460999992010012612004+46717+009517FM-12+232399999V02099999999990003019N0005001N1-00501+99999999999ADDAY171061AY241061GA1091+999999999GF109991091999999999999999MA1999999076601MW1701REMSYN060AAXX  26124 06846 41/05 900// 11050 2//// 37660 5//// 77074;
0151068460999992010012614004+46717+009517FM-12+232399999V02099999999990003019N0005001N1-00901+99999999999ADDAY141999AY241999GA1091+999999999GF109991091999999999999999MA1999999076601MW1471REMSYN060AAXX  26144 06846 41/05 900// 11090 2//// 37660 5//// 74744;
0195068460999992010012615004+46717+009517FM-12+232399999V02099999999990069019N0100001N1-01001+99999999999ADDAY141031AY241031GA1081+006901041GF108991081001008001091999GG1079084009019999MA1999999076501MW1281REMSYN086AAXX  26154 06846 41560 800// 11100 2//// 37650 5//// 72844 8809/ 333 88423 444 87184;
0189068460999992010012616004+46717+009517FM-12+232399999V02099999999990360019N0150001N1-01101+99999999999ADDGA1041+002701071GA2061+036001001GF106991041061002501001021GG1079064009019999MA1999999076501REMSYN086AAXX  26164 06846 42365 600// 11110 2//// 37650 5//// 84602 333 84709 86062 444 77164;
0149068460999992010012617004+46717+009517FM-12+232399999V02099999999992200019N0150001N1-01201+99999999999ADDGA1041+004801071GF104991041061004501001001MA1999999076501REMSYN080AAXX  26174 06846 42465 400// 11120 2//// 37650 5//// 84600 333 84716 444 67164;
0228068460999992010012618004+46717+009517FM-12+232399999V02099999999992200019N0070001N1-01301+99999999999ADDAJ100659199999999AL11200591AY111061AY211061GA1041+004801071GF104991041061004501001001IA1239MA1999999076501MW1101REMSYN104AAXX  26184 06846 41457 400// 11130 2//// 37650 5//// 71011 84600 333 47065 84716 90766 93105 444 87204;
0149068460999992010012619004+46717+009517FM-12+232399999V02099999999992200019N0100001N1-01301+99999999999ADDGA1041+004801071GF104991041061004501001001MA1999999076501REMSYN080AAXX  26194 06846 42460 400// 11130 2//// 37650 5//// 84600 333 84716 444 87174;
0149068460999992010012620004+46717+009517FM-12+232399999V02099999999992200019N0100001N1-01301+99999999999ADDGA1041+004801071GF104991041061004501001001MA1999999076501REMSYN080AAXX  26204 06846 42460 400// 11130 2//// 37650 5//// 84600 333 84716 444 87174;
0151068460999992010012621004+46717+009517FM-12+232399999V02099999999990001519N0001001N1-01301+99999999999ADDAY141031AY241031GA1091+999999999GF109991091999999999999999MA1999999076501MW1491REMSYN060AAXX  26214 06846 41/01 900// 11130 2//// 37650 5//// 74944;
0179068460999992010012700004+46717+009517FM-12+232399999V02099999999990003019N0003001N1-01301+99999999999ADDAY141061AY241061GA1091+999999999GF109991091999999999999999GG1079999999999999MA1999999076501MW1471REMSYN070AAXX  27004 06846 41/03 900// 11130 2//// 37650 5//// 74744 444 /7//9;
0179068460999992010012703004+46717+009517FM-12+232399999V02099999999992200019N0300001N1-01401+99999999999ADDAY141031AY241031GA1001+999999999GF100991001001999999001001GG1079025009019999MA1999999076501MW1011REMSYN070AAXX  27034 06846 41980 000// 11140 2//// 37650 5//// 70144 444 87125;
0206068460999992010012706004+46717+009517FM-12+232399999V02099999999992200019N0300001N1-01401+99999999999ADDAJ100609199999999AL19900091GA1001+999999999GF100991001001999999001001GG1079003009019999IA1239MA1999999076501REMSYN086AAXX  27064 06846 42980 000// 11140 2//// 37650 5//// 333 47060 90768 93100 444 47103;
0149068460999992010012707004+46717+009517FM-12+232399999V02099999999992200019N0400001N1-01301+99999999999ADDGA1031+042001031GF103991031001999999051001MA1999999076501REMSYN080AAXX  27074 06846 42982 301// 11130 2//// 37650 5//// 83050 333 83364 444 47103;
0149068460999992010012708004+46717+009517FM-12+232399999V02099999999992200019N0400001N1-00901+99999999999ADDGA1031+042001001GF103991001001999999001021MA1999999076501REMSYN080AAXX  27084 06846 42982 300// 11090 2//// 37650 5//// 80002 333 83064 444 27100;
0149068460999992010012709004+46717+009517FM-12+232399999V02099999999992200019N0400001N1-00801+99999999999ADDGA1041+042001001GF104991001001999999001021MA1999999076501REMSYN080AAXX  27094 06846 42982 400// 11080 2//// 37650 5//// 80002 333 84064 444 17100;
0149068460999992010012710004+46717+009517FM-12+232399999V02099999999990360019N0400001N1-00601+99999999999ADDGA1061+036001001GF106991001001999999001021MA1999999076401REMSYN080AAXX  27104 06846 42982 600// 11060 2//// 37640 5//// 80002 333 86062 444 17100;
0149068460999992010012711004+46717+009517FM-12+232399999V02099999999990270019N0400001N1-00501+99999999999ADDGA1071+027001041GF107991071001999999011001MA1999999076401REMSYN080AAXX  27114 06846 42982 700// 11050 2//// 37640 5//// 87010 333 87459 444 17100;
0189068460999992010012712004+46717+009517FM-12+232399999V02099999999990660019N0400001N1-00501+99999999999ADDGA1031+027001041GA2051+066001001GF106991051001999999021061GG1079012009019999MA1999999076501REMSYN086AAXX  27124 06846 42982 601// 11050 2//// 37650 5//// 85026 333 83459 85072 444 27112;
0145068460999992010012713004+46717+009517FM-12+232399999V02099999999999999999N0400001N1-00201+99999999999ADDGA1031+027001041GF106991031001999999011021MA1999999076501REMSYN076AAXX  27134 06846 42982 633// 11020 2//// 37650 5//// 83012 333 83459 86072;
0139068460999992010012714004+46717+009517FM-12+232399999V02099999999990660019N0400001N1-00301+99999999999ADDGA1061+066001001GF106991001001999999001021MA1999999076501REMSYN070AAXX  27144 06846 42982 633// 11030 2//// 37650 5//// 80002 333 86072;
0139068460999992010012715004+46717+009517FM-12+232399999V02099999999990660019N0400001N1-00401+99999999999ADDGA1061+066001001GF106991001001999999001021MA1999999076501REMSYN070AAXX  27154 06846 42982 600// 11040 2//// 37650 5//// 80002 333 86072;
0145068460999992010012716004+46717+009517FM-12+232399999V02099999999999999999N0400001N1-00601+99999999999ADDGA1031+036001041GF106991031001999999011041MA1999999076501REMSYN076AAXX  27164 06846 42982 601// 11060 2//// 37650 5//// 83014 333 83462 85072;
0145068460999992010012717004+46717+009517FM-12+232399999V02099999999999999999N0400001N1-00801+99999999999ADDGA1031+036001041GF106991031001999999011021MA1999999076501REMSYN076AAXX  27174 06846 42982 601// 11080 2//// 37650 5//// 83012 333 83462 85072;
0202068460999992010012718004+46717+009517FM-12+232399999V02099999999990660019N0400001N1-00901+99999999999ADDAJ100609199999999GA1041+027001041GA2051+066001001GF107991041001999999011021IA1239MA1999999076501REMSYN094AAXX  27184 06846 42982 701// 11090 2//// 37650 5//// 84012 333 47060 84459 85072 90766 93100;
0145068460999992010012719004+46717+009517FM-12+232399999V02099999999999999999N0400001N1-01001+99999999999ADDGA1041+036001041GF107991041001999999011021MA1999999076501REMSYN076AAXX  27194 06846 42982 701// 11100 2//// 37650 5//// 84012 333 84462 85072;
0139068460999992010012720004+46717+009517FM-12+232399999V02099999999992200019N0400001N1-01101+99999999999ADDGA1041+036001041GF104991041001999999011001MA1999999076501REMSYN070AAXX  27204 06846 42982 401// 11110 2//// 37650 5//// 84010 333 84462;
0139068460999992010012721004+46717+009517FM-12+232399999V02099999999990660019N0400001N1-01201+99999999999ADDGA1061+066001001GF106991001001999999001021MA1999999076002REMSYN070AAXX  27214 06846 42982 600// 11120 2//// 37600 5//// 80002 333 86072;
0139068460999992010012800004+46717+009517FM-12+232399999V02099999999990660019N0400001N1-01301+99999999999ADDGA1061+066001001GF106991001001999999001021MA1999999076001REMSYN070AAXX  28004 06846 42982 600// 11130 2//// 37600 5//// 80002 333 86072;
0139068460999992010012803004+46717+009517FM-12+232399999V02099999999990660019N0400001N1-01301+99999999999ADDGA1051+066001011GF105991001001999999001021MA1999999076001REMSYN070AAXX  28034 06846 42982 500// 11130 2//// 37600 5//// 80002 333 85172;
0196068460999992010012806004+46717+009517FM-12+232399999V02099999999990003019N0005001N1-01301+99999999999ADDAJ100659199999999AY131061AY211061GA1091+999999999GF109991091999999999999999IA1239MA1999999075301MW1731REMSYN082AAXX  28064 06846 41/05 902// 11130 2//// 37530 5//// 77331 333 47065 90768 93105;
0151068460999992010012807004+46717+009517FM-12+232399999V02099999999990003019N0005001N1-01201+99999999999ADDAY171999AY271999GA1091+999999999GF109991091999999999999999MA1999999075301MW1731REMSYN060AAXX  28074 06846 41/05 900// 11120 2//// 37530 5//// 77377;
0151068460999992010012808004+46717+009517FM-12+232399999V02099999999990003019N0005001N1-01201+99999999999ADDAY171999AY271999GA1091+999999999GF109991091999999999999999MA1999999075201MW1711REMSYN060AAXX  28084 06846 41/05 901// 11120 2//// 37520 5//// 77177;
0151068460999992010012809004+46717+009517FM-12+232399999V02099999999990006019N0010001N1-01101+99999999999ADDAY171031AY271031GA1091+999999999GF109991091999999999999999MA1999999075301MW1701REMSYN060AAXX  28094 06846 41/10 900// 11110 2//// 37530 5//// 77077;
0173068460999992010012810004+46717+009517FM-12+232399999V02099999999990180019N0150001N1-01101+99999999999ADDGA1071+018001041GF107991071001017501091999GG1079053009019999MA1999999075201REMSYN086AAXX  28104 06846 41765 732// 11110 2//// 37520 5//// 7//74 8709/ 333 87456 444 67153;
0149068460999992010012811004+46717+009517FM-12+232399999V02099999999990180019N0100001N1-01101+99999999999ADDGA1081+018001041GF108991081001017501091999MA1999999075201REMSYN080AAXX  28114 06846 42760 833// 11110 2//// 37520 5//// 8809/ 333 88456 444 57155;
0195068460999992010012812004+46717+009517FM-12+232399999V02099999999990180019N0100001N1-01001+99999999999ADDAY171061AY221061GA1081+018001041GF108991081001017501091999GG1079055009019999MA1999999075201MW1021REMSYN086AAXX  28124 06846 41760 831// 11100 2//// 37520 5//// 70272 8809/ 333 88456 444 57155;
0149068460999992010012813004+46717+009517FM-12+232399999V02099999999990069019N0070001N1-00901+99999999999ADDGA1081+006901041GF108991081001008001071999MA1999999075201REMSYN080AAXX  28134 06846 42557 832// 11090 2//// 37520 5//// 8807/ 333 88423 444 57155;
0139068460999992010012814004+46717+009517FM-12+232399999V02099999999990069019N0100001N1-00801+99999999999ADDGA1081+006901041GF108991081001008001071999MA1999999075201REMSYN070AAXX  28144 06846 42560 832// 11080 2//// 37520 5//// 8807/ 333 88423;
0139068460999992010012815004+46717+009517FM-12+232399999V02099999999990069019N0100001N1-01001+99999999999ADDGA1081+006901041GF108991081001008001071999MA1999999075201REMSYN070AAXX  28154 06846 42560 830// 11100 2//// 37520 5//// 8807/ 333 88423;
0149068460999992010012816004+46717+009517FM-12+232399999V02099999999990069019N0100001N1-01101+99999999999ADDGA1081+006901041GF108991081001008001071999MA1999999075101REMSYN080AAXX  28164 06846 42560 830// 11110 2//// 37510 5//// 8807/ 333 88423 444 57157;
0149068460999992010012817004+46717+009517FM-12+232399999V02099999999990069019N0100001N1-01201+99999999999ADDGA1081+006901041GF108991081001008001071999MA1999999075101REMSYN080AAXX  28174 06846 42560 830// 11120 2//// 37510 5//// 8807/ 333 88423 444 57157;
0236068460999992010012818004+46717+009517FM-12+232399999V02099999999990069019N0100001N1+99999+99999999999ADDAL19900091GA1081+006901041GF108991081001008001071999GG1079057009019999IA1019MA1999999075101REMSYN098AAXX  28184 06846 42560 830// 10120 2//// 37510 5//// 8807/ 333 30/// 88423 90766 93100 444 57157;EQDQ01+001203ATOT  Q02 +01203ATOT  
0149068460999992010012819004+46717+009517FM-12+232399999V02099999999990069019N0100001N1-01301+99999999999ADDGA1081+006901041GF108991081001008001071999MA1999999075001REMSYN080AAXX  28194 06846 42560 830// 11130 2//// 37500 5//// 8807/ 333 88423 444 57157;
0149068460999992010012820004+46717+009517FM-12+232399999V02099999999990069019N0100001N1-01301+99999999999ADDGA1081+006901041GF108991081001008001071999MA1999999075001REMSYN080AAXX  28204 06846 42560 830// 11130 2//// 37500 5//// 8807/ 333 88423 444 57157;
0149068460999992010012821004+46717+009517FM-12+232399999V02099999999990069019N0100001N1-01301+99999999999ADDGA1081+006901041GF108991081001008001071999MA1999999075001REMSYN080AAXX  28214 06846 42560 830// 11130 2//// 37500 5//// 8807/ 333 88423 444 57157;
0139068460999992010012900004+46717+009517FM-12+232399999V02099999999990069019N0150001N1-01301+99999999999ADDGA1051+006901041GF106991051001008001071999MA1999999074901REMSYN070AAXX  29004 06846 42565 630// 11130 2//// 37490 5//// 8507/ 333 85423;
0139068460999992010012903004+46717+009517FM-12+232399999V02099999999992200019N0300001N1-01101+99999999999ADDGA1031+006901041GF103991031001008001071001MA1999999074801REMSYN070AAXX  29034 06846 42580 330// 11110 2//// 37480 5//// 83070 333 83423;
0163068460999992010012906004+46717+009517FM-12+232399999V02099999999990069019N0300001N1-01101+99999999999ADDGA1081+006901041GF108991081001008001071999IA1019MA1999999074801REMSYN088AAXX  29064 06846 42580 800// 11110 2//// 37480 5//// 8807/ 333 30/// 88423 90768 93100;
0139068460999992010012907004+46717+009517FM-12+232399999V02099999999990069019N0350001N1-01201+99999999999ADDGA1061+006901041GF106991061001008001071999MA1999999074701REMSYN070AAXX  29074 06846 42581 600// 11120 2//// 37470 5//// 8607/ 333 86423;
0145068460999992010012908004+46717+009517FM-12+232399999V0209999999999090001CN0350001N1-01101+99999999999ADDGA1031+006901041GF108991031001008001071021MA1999999074701REMSYN076AAXX  29084 06846 42581 818// 11110 2//// 37470 5//// 83072 333 83423 88062;
0141068460999992010012909004+46717+009517FM-12+232399999V02099999999999999999N0300001N1-00801+99999999999ADDGF106991031001999999011021GG1079080009019999MA1999999074501REMSYN070AAXX  29094 06846 42/80 620// 11080 2//// 37450 5//// 83012 444 17180;
0189068460999992010012910004+46717+009517FM-12+232399999V02099999999990360019N0300001N1-00701+99999999999ADDGA1031+006901041GA2061+036001001GF106991031001008001011021GG1079080009019999MA1999999074401REMSYN086AAXX  29104 06846 42580 619// 11070 2//// 37440 5//// 83012 333 83423 86062 444 17180;
0189068460999992010012911004+46717+009517FM-12+232399999V02099999999990048019N0300001N1-00501+99999999999ADDGA1051+004801041GA2071+036001001GF107991051001004501011021GG1079080009019999MA1999999074351REMSYN086AAXX  29114 06846 42480 718// 11050 2//// 37435 5//// 85012 333 85416 87062 444 17180;
0149068460999992010012912004+46717+009517FM-12+232399999V02099999999990048019N0300001N1-00501+99999999999ADDGA1071+004801041GF107991071001004501011001MA1999999074201REMSYN080AAXX  29124 06846 42480 718// 11050 2//// 37420 5//// 87010 333 87416 444 17180;
0149068460999992010012913004+46717+009517FM-12+232399999V02099999999990048019N0300001N1-00501+99999999999ADDGA1071+004801041GF107991071001004501021001MA1999999074101REMSYN080AAXX  29134 06846 42480 720// 11050 2//// 37410 5//// 87020 333 87416 444 17180;
0139068460999992010012915004+46717+009517FM-12+232399999V02099999999990048019N0300001N1-00801+99999999999ADDGA1081+004801041GF108991081001004501021999MA1999999074001REMSYN070AAXX  29154 06846 42480 823// 11080 2//// 37400 5//// 8802/ 333 88416;
0139068460999992010012916004+46717+009517FM-12+232399999V02099999999990048019N0300001N1-01101+99999999999ADDGA1081+004801041GF108991081001004501021999MA1999999073951REMSYN070AAXX  29164 06846 42480 818// 11110 2//// 37395 5//// 8802/ 333 88416;
0139068460999992010012917004+46717+009517FM-12+232399999V02099999999990048019N0300001N1-01101+99999999999ADDGA1081+004801041GF108991081001004501021999MA1999999073951REMSYN070AAXX  29174 06846 42480 819// 11110 2//// 37395 5//// 8802/ 333 88416;
0180068460999992010012918004+46717+009517FM-12+232399999V02099999999990048019N0300001N1-01001+99999999999ADDAJ109972199999999GA1081+004801041GF108991081001004501021999IA1239MA1999999073901REMSYN088AAXX  29184 06846 42480 819// 11100 2//// 37390 5//// 8802/ 333 47998 88416 90766 93100;
0139068460999992010012919004+46717+009517FM-12+232399999V02099999999990048019N0300001N1-01001+99999999999ADDGA1081+004801041GF108991081001004501021999MA1999999073901REMSYN070AAXX  29194 06846 42480 818// 11100 2//// 37390 5//// 8802/ 333 88416;
0139068460999992010012920004+46717+009517FM-12+232399999V02099999999990048019N0300001N1-01101+99999999999ADDGA1081+004801041GF108991081001004501021999MA1999999073901REMSYN070AAXX  29204 06846 42480 818// 11110 2//// 37390 5//// 8802/ 333 88416;
0139068460999992010012921004+46717+009517FM-12+232399999V02099999999990048019N0300001N1-01101+99999999999ADDGA1081+004801041GF108991081001004501021999MA1999999073801REMSYN070AAXX  29214 06846 42480 818// 11110 2//// 37380 5//// 8802/ 333 88416;
0139068460999992010013000004+46717+009517FM-12+232399999V02099999999992200019N0300001N1-01101+99999999999ADDGA1041+004801041GF104991041001004501071001MA1999999073701REMSYN070AAXX  30004 06846 42480 418// 11110 2//// 37370 5//// 84070 333 84416;
0151068460999992010013003004+46717+009517FM-12+232399999V02099999999990006019N0008001N1-01101+99999999999ADDAY171031AY211031GA1091+999999999GF109991091999999999999999MA1999999073701MW1771REMSYN060AAXX  30034 06846 41/08 920// 11110 2//// 37370 5//// 77771;
0228068460999992010013006004+46717+009517FM-12+232399999V02099999999990069019N0180001N1-01201+99999999999ADDAJ101009199999999AL19900591AY171061AY241061GA1081+006901041GF108991081001008001011999IA1239MA1999999073851MW1031REMSYN104AAXX  30064 06846 41568 835// 11120 2//// 37385 5//// 70374 8801/ 333 47100 88423 90768 93105 444 56203;
0189068460999992010013007004+46717+009517FM-12+232399999V02099999999990069019N0200001N1-01201+99999999999ADDGA1021+001801061GA2071+006901041GF107991021051001501011999GG1079005009029999MA1999999073901REMSYN086AAXX  30074 06846 42270 735// 11120 2//// 37390 5//// 8251/ 333 82606 87423 444 67205;
0189068460999992010013008004+46717+009517FM-12+232399999V02099999999990210019N0250001N1-01201+99999999999ADDGA1031+001801061GA2071+021001041GF107991031051001501011999GG1069006009029999MA1999999073901REMSYN086AAXX  30084 06846 42275 735// 11120 2//// 37390 5//// 8351/ 333 83606 87457 444 56206;
0177068460999992010013009004+46717+009517FM-12+232399999V02099999999990180019N0200001N1-01101+99999999999ADDGA1031+001801061GA2071+018001041GF107991031051001501011999MA1999999073901REMSYN092AAXX  30094 06846 41270 702// 11110 2//// 37390 5//// 7//72 8351/ 333 83606 87456 444 56206;
0179068460999992010013010004+46717+009517FM-12+232399999V02099999999990003019N0005001N1-00801+99999999999ADDAY141999AY221999GA1091+999999999GF109991091999999999999999GG1079002009029999MA1999999073951MW1471REMSYN070AAXX  30104 06846 41/05 930// 11080 2//// 37395 5//// 74742 444 67202;
0179068460999992010013011004+46717+009517FM-12+232399999V02099999999990006019N0008001N1-00801+99999999999ADDAY141999AY221999GA1091+999999999GF109991091999999999999999GG1079002009029999MA1999999073951MW1451REMSYN070AAXX  30114 06846 41/08 930// 11080 2//// 37395 5//// 74542 444 67202;
0179068460999992010013012004+46717+009517FM-12+232399999V02099999999990006019N0008001N1-00701+99999999999ADDAY171061AY241061GA1091+999999999GF109991091999999999999999GG1079003009029999MA1999999073951MW1451REMSYN070AAXX  30124 06846 41/08 930// 11070 2//// 37395 5//// 74574 444 57203;
0151068460999992010013013004+46717+009517FM-12+232399999V02099999999990006019N0008001N1-00701+99999999999ADDAY141999AY241999GA1091+999999999GF109991091999999999999999MA1999999073901MW1451REMSYN060AAXX  30134 06846 41/08 936// 11070 2//// 37390 5//// 74544;
0195068460999992010013014004+46717+009517FM-12+232399999V02099999999990180019N0030001N1-00701+99999999999ADDAY141999AY221999GA1081+018001041GF108991081001017501011999GG1079056009019999MA1999999073901MW1101REMSYN086AAXX  30144 06846 41730 830// 11070 2//// 37390 5//// 71042 8801/ 333 88456 444 47156;
0199068460999992010013015004+46717+009517FM-12+232399999V02099999999990180019N0050001N1-00701+99999999999ADDAY141031AY221031GA1061+018001041GA2051+036001001GF108991061001017501011021MA1999999073901MW1101REMSYN092AAXX  30154 06846 41750 830// 11070 2//// 37390 5//// 71042 86012 333 86456 85062 444 37156;
0145068460999992010013016004+46717+009517FM-12+232399999V0209999999999090001CN0300001N1-00801+99999999999ADDGA1041+011701041GF108991041001012501011021MA1999999073901REMSYN076AAXX  30164 06846 42680 830// 11080 2//// 37390 5//// 84012 333 84439 86062;
0139068460999992010013017004+46717+009517FM-12+232399999V02099999999992200019N0350001N1-00901+99999999999ADDGA1031+006901041GF103991031001008001041001MA1999999074001REMSYN070AAXX  30174 06846 42581 330// 11090 2//// 37400 5//// 83040 333 83423;
0180068460999992010013018004+46717+009517FM-12+232399999V02099999999992200019N0350001N1-01001+99999999999ADDAJ109972199999999GA1031+006901041GF103991031001008001041001IA1239MA1999999074001REMSYN088AAXX  30184 06846 42581 330// 11100 2//// 37400 5//// 83040 333 47998 83423 90766 93100;
0139068460999992010013019004+46717+009517FM-12+232399999V02099999999992200019N0350001N1-00901+99999999999ADDGA1031+006901041GF103991031001008001041001MA1999999074101REMSYN070AAXX  30194 06846 42581 330// 11090 2//// 37410 5//// 83040 333 83423;
0139068460999992010013020004+46717+009517FM-12+232399999V02099999999990069019N0300001N1-01001+99999999999ADDGA1081+006901041GF108991081001008001071999MA1999999074101REMSYN070AAXX  30204 06846 42580 830// 11100 2//// 37410 5//// 8807/ 333 88423;
0139068460999992010013021004+46717+009517FM-12+232399999V02099999999992200019N0300001N1-01001+99999999999ADDGA1021+006901041GF102991021001008001011001MA1999999074001REMSYN070AAXX  30214 06846 42580 230// 11100 2//// 37400 5//// 82010 333 82423;
0151068460999992010013100004+46717+009517FM-12+232399999V02099999999990003019N0005001N1-01201+99999999999ADDAY111061AY211061GA1091+999999999GF109991091999999999999999MA1999999074001MW1751REMSYN060AAXX  31004 06846 41/05 930// 11120 2//// 37400 5//// 77511;
0151068460999992010013103004+46717+009517FM-12+232399999V02099999999990003019N0005001N1-01201+99999999999ADDAY171031AY271031GA1091+999999999GF109991091999999999999999MA1999999074001MW1711REMSYN060AAXX  31034 06846 41/05 930// 11120 2//// 37400 5//// 77177;
0228068460999992010013106004+46717+009517FM-12+232399999V02099999999990009019N0040001N1-01201+99999999999ADDAJ101009199999999AL19900091AY141061AY221061GA1061+000901041GF106991061001000751011999IA1239MA1999999074201MW1101REMSYN104AAXX  31064 06846 41140 630// 11120 2//// 37420 5//// 71042 8601/ 333 47100 86403 90768 93100 444 17186;
0195068460999992010013107004+46717+009517FM-12+232399999V02099999999992200019N0060001N1-01801+99999999999ADDAY111999AY211999GA1021+000901041GF102991021001000751011001GG1079081009019999MA1999999074451MW1101REMSYN086AAXX  31074 06846 41156 235// 11180 2//// 37445 5//// 71011 82010 333 82403 444 67181;
0149068460999992010013108004+46717+009517FM-12+232399999V02099999999992200019N0200001N1-01801+99999999999ADDGA1011+000901041GF101991011001000751011001MA1999999074501REMSYN080AAXX  31084 06846 42170 100// 11180 2//// 37450 5//// 81010 333 81403 444 47186;
0149068460999992010013109004+46717+009517FM-12+232399999V02099999999992200019N0250001N1-01601+99999999999ADDGA1011+000901041GF101991011001000751011001MA1999999074551REMSYN080AAXX  31094 06846 42175 100// 11160 2//// 37455 5//// 81010 333 81403 444 57206;
0149068460999992010013110004+46717+009517FM-12+232399999V02099999999992200019N0250001N1-01401+99999999999ADDGA1021+000901041GF102991021001000751011001MA1999999074601REMSYN080AAXX  31104 06846 42175 200// 11140 2//// 37460 5//// 82010 333 82403 444 27206;
0149068460999992010013111004+46717+009517FM-12+232399999V02099999999992200019N0250001N1-00701+99999999999ADDGA1011+000901041GF101991011001000751011001MA1999999074601REMSYN080AAXX  31114 06846 42175 100// 11070 2//// 37460 5//// 81010 333 81403 444 17206;
0139068460999992010013112004+46717+009517FM-12+232399999V02099999999990009019N0100001N1-00901+99999999999ADDGA1061+000901041GF106991061001000751011999MA1999999074601REMSYN070AAXX  31124 06846 42160 600// 11090 2//// 37460 5//// 8601/ 333 86403;
0167068460999992010013113004+46717+009517FM-12+232399999V02099999999990009019N0080001N1-01101+99999999999ADDAY121999AY221999GA1061+000901041GF106991061001000751011001MA1999999074651MW1101REMSYN076AAXX  31134 06846 41158 600// 11110 2//// 37465 5//// 71022 86010 333 86403;
0167068460999992010013114004+46717+009517FM-12+232399999V02099999999990009019N0080001N1-01201+99999999999ADDAY121999AY221999GA1071+000901041GF107991071001000751011999MA1999999074601MW1101REMSYN076AAXX  31144 06846 41158 700// 11120 2//// 37460 5//// 71022 8701/ 333 87403;
0167068460999992010013115004+46717+009517FM-12+232399999V02099999999990009019N0080001N1-01201+99999999999ADDAY121031AY221031GA1051+000901041GF105991051001000751011001MA1999999074701MW1101REMSYN076AAXX  31154 06846 41158 500// 11120 2//// 37470 5//// 71022 85010 333 85403;
0195068460999992010013116004+46717+009517FM-12+232399999V02099999999990009019N0150001N1-01501+99999999999ADDAY121999AY221999GA1051+000901041GF105991051001000751011999GG1079036009019999MA1999999074601MW1101REMSYN086AAXX  31164 06846 41165 500// 11150 2//// 37460 5//// 71022 8501/ 333 85403 444 37136;
0149068460999992010013117004+46717+009517FM-12+232399999V02099999999990009019N0080001N1-01801+99999999999ADDGA1081+000901041GF108991081001000751011999MA1999999074801REMSYN080AAXX  31174 06846 42158 800// 11180 2//// 37480 5//// 8801/ 333 88403 444 27146;
0180068460999992010013118004+46717+009517FM-12+232399999V02099999999990009019N0080001N1-01801+99999999999ADDAJ100659199999999GA1081+000901041GF108991081001000751011999IA1239MA1999999074901REMSYN088AAXX  31184 06846 42158 800// 11180 2//// 37490 5//// 8801/ 333 47065 88403 90766 93105;
0139068460999992010013119004+46717+009517FM-12+232399999V02099999999990018019N0080001N1-01901+99999999999ADDGA1081+001801041GF108991081001001501011999MA1999999075001REMSYN070AAXX  31194 06846 42258 800// 11190 2//// 37500 5//// 8801/ 333 88406;
0139068460999992010013120004+46717+009517FM-12+232399999V02099999999990018019N0080001N1-02001+99999999999ADDGA1071+001801041GF107991071001001501011001MA1999999075001REMSYN070AAXX  31204 06846 42258 700// 11200 2//// 37500 5//// 87010 333 87406;
0139068460999992010013121004+46717+009517FM-12+232399999V02099999999990018019N0100001N1-02001+99999999999ADDGA1071+001801041GF107991071001001501011999MA1999999075001REMSYN070AAXX  31214 06846 42260 700// 11200 2//// 37500 5//// 8701/ 333 87406;
0149068460999992010020100004+46717+009517FM-12+232399999V02099999999992200019N0200001N1-02101+99999999999ADDGA1021+001801041GF102991021001001501011001MA1999999075001REMSYN080AAXX  01004 06846 42270 200// 11210 2//// 37500 5//// 82010 333 82406 444 47145;
0168068460999992010020106004+46717+009517FM-12+232399999V02099999999992200019N0300001N1-02201+99999999999ADDAJ109972199999999GA1001+999999999GF100991001001999999001001IA1239MA1999999075001REMSYN076AAXX  01064 06846 42980 000// 11220 2//// 37500 5//// 333 47998 90768 93100;
0123068460999992010020107004+46717+009517FM-12+232399999V02099999999992200019N0400001N1-01901+99999999999ADDGA1001+999999999GF100991001001999999001001MA1999999075001REMSYN054AAXX  01074 06846 42982 000// 11190 2//// 37500 5////;
0123068460999992010020108004+46717+009517FM-12+232399999V02099999999992200019N0400001N1-01901+99999999999ADDGA1001+999999999GF100991001001999999001001MA1999999075001REMSYN054AAXX  01084 06846 42982 000// 11190 2//// 37500 5////;
0139068460999992010020109004+46717+009517FM-12+232399999V02099999999992200019N0400001N1-01701+99999999999ADDGA1041+066001001GF104991001001999999001011MA1999999075001REMSYN070AAXX  01094 06846 42982 4//// 11170 2//// 37500 5//// 80001 333 84072;
0139068460999992010020110004+46717+009517FM-12+232399999V02099999999990660019N0400001N1-01501+99999999999ADDGA1061+066001001GF106991001001999999001011MA1999999075001REMSYN070AAXX  01104 06846 42982 6//// 11150 2//// 37500 5//// 80001 333 86072;
0139068460999992010020111004+46717+009517FM-12+232399999V02099999999990660019N0400001N1-01401+99999999999ADDGA1071+066001001GF107991001001999999001021MA1999999075201REMSYN070AAXX  01114 06846 42982 707// 11140 2//// 37520 5//// 80002 333 87072;
0145068460999992010020112004+46717+009517FM-12+232399999V02099999999999999999N0400001N1-01301+99999999999ADDGA1031+027001031GF107991031001999999041021MA1999999075201REMSYN076AAXX  01124 06846 42982 707// 11130 2//// 37520 5//// 83042 333 83359 87072;
0139068460999992010020113004+46717+009517FM-12+232399999V02099999999990180019N0400001N1-01301+99999999999ADDGA1081+018001041GF108991081001017501091999MA1999999075201REMSYN070AAXX  01134 06846 42782 807// 11130 2//// 37520 5//// 8809/ 333 88456;
0139068460999992010020114004+46717+009517FM-12+232399999V02099999999990210019N0350001N1-01401+99999999999ADDGA1081+021001041GF108991081001022501011999MA1999999075201REMSYN070AAXX  01144 06846 42881 807// 11140 2//// 37520 5//// 8801/ 333 88457;
0139068460999992010020115004+46717+009517FM-12+232399999V02099999999990210019N0300001N1-01201+99999999999ADDGA1081+021001041GF108991081001022501011999MA1999999075201REMSYN070AAXX  01154 06846 42880 810// 11120 2//// 37520 5//// 8801/ 333 88457;
0139068460999992010020116004+46717+009517FM-12+232399999V02099999999990069019N0300001N1-01401+99999999999ADDGA1081+006901041GF108991081001008001021999MA1999999075301REMSYN070AAXX  01164 06846 42580 827// 11140 2//// 37530 5//// 8802/ 333 88423;
0158068460999992010020117004+46717+009517FM-12+232399999V02099999999990018019N0150001N1-01501+99999999999ADDGA1081+001801071GF108991081999001501071999MA1999999075401REMSYN070AAXX  01174 06846 42265 827// 11150 2//// 37540 5//// 8807/ 333 88706;EQDQ01+000002SCOLCG
0180068460999992010020118004+46717+009517FM-12+232399999V02099999999990018019N0150001N1-01501+99999999999ADDAJ100659199999999GA1081+001801071GF108991081061001501999999IA1239MA1999999075401REMSYN088AAXX  01184 06846 42265 827// 11150 2//// 37540 5//// 886// 333 47065 88706 90766 93100;
0158068460999992010020119004+46717+009517FM-12+232399999V02099999999990018019N0100001N1-01501+99999999999ADDGA1081+001801071GF108991999061001501071999MA1999999075301REMSYN070AAXX  01194 06846 42260 827// 11150 2//// 37530 5//// 8867/ 333 88706;EQDQ01+000082SCOTLC
0151068460999992010020120004+46717+009517FM-12+232399999V02099999999990003019N0005001N1-01501+99999999999ADDAY171999AY241999GA1091+999999999GF109991091999999999999999MA1999999075201MW1721REMSYN060AAXX  01204 06846 41/05 927// 11150 2//// 37520 5//// 77274;
0151068460999992010020121004+46717+009517FM-12+232399999V02099999999990003019N0005001N1-01501+99999999999ADDAY171031AY241031GA1091+999999999GF109991091999999999999999MA1999999075201MW1731REMSYN060AAXX  01214 06846 41/05 927// 11150 2//// 37520 5//// 77374;
0151068460999992010020200004+46717+009517FM-12+232399999V02099999999990003019N0005001N1-01601+99999999999ADDAY171061AY241061GA1091+999999999GF109991091999999999999999MA1999999075201MW1751REMSYN060AAXX  02004 06846 41/05 927// 11160 2//// 37520 5//// 77574;
0151068460999992010020203004+46717+009517FM-12+232399999V02099999999990006019N0010001N1-01601+99999999999ADDAY171031AY241031GA1091+999999999GF109991091999999999999999MA1999999075201MW1701REMSYN060AAXX  02034 06846 41/10 927// 11160 2//// 37520 5//// 77074;
0228068460999992010020206004+46717+009517FM-12+232399999V02099999999992200019N0150001N1-01901+99999999999ADDAJ100709199999999AL19900591AY171061AY241061GA1021+011701041GF102991021001012501021001IA1239MA1999999075801MW1011REMSYN104AAXX  02064 06846 41665 231// 11190 2//// 37580 5//// 70174 82020 333 47070 82439 90768 93105 444 17145;
0149068460999992010020207004+46717+009517FM-12+232399999V02099999999992200019N0150001N1-01801+99999999999ADDGA1041+006901041GF104991041001008001021001MA1999999075801REMSYN080AAXX  02074 06846 42565 427// 11180 2//// 37580 5//// 84020 333 84423 444 37124;
0189068460999992010020208004+46717+009517FM-12+232399999V02099999999992200019N0300001N1-01701+99999999999ADDGA1021+001801061GA2031+066001001GF103991021051001501001011GG1079026009019999MA1999999075801REMSYN086AAXX  02084 06846 42280 330// 11170 2//// 37580 5//// 82501 333 82606 83072 444 27126;
0149068460999992010020209004+46717+009517FM-12+232399999V02099999999992200019N0300001N1-01701+99999999999ADDGA1021+001801061GF103991021051001501001011MA1999999075801REMSYN080AAXX  02094 06846 42280 329// 11170 2//// 37580 5//// 82501 333 82606 444 27126;
0149068460999992010020210004+46717+009517FM-12+232399999V02099999999992200019N0300001N1-01501+99999999999ADDGA1021+000901061GF103991021051000751021001MA1999999075901REMSYN080AAXX  02104 06846 42180 330// 11150 2//// 37590 5//// 82520 333 82603 444 27126;
0145068460999992010020211004+46717+009517FM-12+232399999V0209999999999220001CN0300001N1-01301+99999999999ADDGA1021+001801071GF106991021061001501001061MA1999999075801REMSYN076AAXX  02114 06846 42280 600// 11130 2//// 37580 5//// 82606 333 82706 86062;
0145068460999992010020212004+46717+009517FM-12+232399999V0209999999999220001CN0300001N1-01501+99999999999ADDGA1021+001801071GF106991021061001501001061MA1999999075901REMSYN076AAXX  02124 06846 42280 618// 11150 2//// 37590 5//// 82606 333 82706 86066;
0149068460999992010020213004+46717+009517FM-12+232399999V02099999999990480019N0300001N1-01501+99999999999ADDGA1061+048001001GF106991001001999999001061MA1999999075901REMSYN080AAXX  02134 06846 42980 618// 11150 2//// 37590 5//// 80006 333 86066 444 26138;
0149068460999992010020214004+46717+009517FM-12+232399999V02099999999990570019N0300001N1-01401+99999999999ADDGA1051+057001001GF105991001001999999001061MA1999999075901REMSYN080AAXX  02144 06846 42980 518// 11140 2//// 37590 5//// 80006 333 85069 444 26208;
0139068460999992010020215004+46717+009517FM-12+232399999V02099999999990117019N0300001N1-01501+99999999999ADDGA1081+011701041GF108991081001012501011999MA1999999075901REMSYN070AAXX  02154 06846 42680 800// 11150 2//// 37590 5//// 8801/ 333 88439;
0139068460999992010020216004+46717+009517FM-12+232399999V02099999999990018019N0300001N1-01501+99999999999ADDGA1081+001801041GF108991081001001501021999MA1999999075901REMSYN070AAXX  02164 06846 42280 818// 11150 2//// 37590 5//// 8802/ 333 88406;
0139068460999992010020217004+46717+009517FM-12+232399999V02099999999990009019N0300001N1-01601+99999999999ADDGA1081+000901041GF108991081001000751021999MA1999999075901REMSYN070AAXX  02174 06846 42180 820// 11160 2//// 37590 5//// 8802/ 333 88403;
0180068460999992010020218004+46717+009517FM-12+232399999V02099999999990009019N0300001N1-01701+99999999999ADDAJ100709199999999GA1081+000901041GF108991081001000751021999IA1239MA1999999075901REMSYN088AAXX  02184 06846 42180 8//// 11170 2//// 37590 5//// 8802/ 333 47070 88403 90766 93100;
0139068460999992010020219004+46717+009517FM-12+232399999V02099999999990018019N0300001N1-01801+99999999999ADDGA1081+001801041GF108991081001001501021999MA1999999075901REMSYN070AAXX  02194 06846 42280 8//// 11180 2//// 37590 5//// 8802/ 333 88406;
0139068460999992010020220004+46717+009517FM-12+232399999V02099999999990018019N0300001N1-01801+99999999999ADDGA1081+001801041GF108991081001001501021999MA1999999075901REMSYN070AAXX  02204 06846 42280 8//// 11180 2//// 37590 5//// 8802/ 333 88406;
0124068460999992010020221004+46717+009517FM-12+232399999V02099999999990018019N0300001N1-01801+99999999999ADDGA1081+001801041GF108991081001001501021999REMSYN070AAXX  02214 06846 42280 8//// 11180 2//// 3//// 5//// 8802/ 333 88406;
0124068460999992010020300004+46717+009517FM-12+232399999V02099999999990069019N0300001N1-01801+99999999999ADDGA1081+006901041GF108991081001008001011999REMSYN070AAXX  03004 06846 42580 8//// 11180 2//// 3//// 5//// 8801/ 333 88423;
0124068460999992010020303004+46717+009517FM-12+232399999V02099999999990069019N0300001N1-01701+99999999999ADDGA1081+006901041GF108991081001008001011999REMSYN070AAXX  03034 06846 42580 8//// 11170 2//// 3//// 5//// 8801/ 333 88423;
0165068460999992010020306004+46717+009517FM-12+232399999V02099999999990018019N0300001N1-01901+99999999999ADDAJ100709199999999GA1081+001801041GF108991081001001501021999IA1239REMSYN088AAXX  03064 06846 42280 8//// 11190 2//// 3//// 5//// 8802/ 333 47070 88406 90768 93100;
