0136068480999992010012610004+46950+009600FM-12+137099999V02099999999990003019N0002001N1+99999+99999999999ADDAY141999AY241999GA1091+999999999GF109991091999999999999999MW1451REMSYN060AAXX  26104 06848 41/02 9//// 1//// 2//// 3//// 5//// 74544;
0136068480999992010012611004+46950+009600FM-12+137099999V02099999999990003019N0002001N1+99999+99999999999ADDAY171999AY271999GA1091+999999999GF109991091999999999999999MW1711REMSYN060AAXX  26114 06848 41/02 9//// 1//// 2//// 3//// 5//// 77177;
0136068480999992010012612004+46950+009600FM-12+137099999V02099999999990003019N0002001N1+99999+99999999999ADDAY171061AY241061GA1091+999999999GF109991091999999999999999MW1711REMSYN060AAXX  26124 06848 41/02 9//// 1//// 2//// 3//// 5//// 77174;
0136068480999992010012613004+46950+009600FM-12+137099999V02099999999990003019N0002001N1+99999+99999999999ADDAY141011AY241011GA1091+999999999GF109991091999999999999999MW1451REMSYN060AAXX  26134 06848 41/02 9//// 1//// 2//// 3//// 5//// 74544;
0136068480999992010012614004+46950+009600FM-12+137099999V02099999999990003019N0002001N1+99999+99999999999ADDAY141021AY241021GA1091+999999999GF109991091999999999999999MW1451REMSYN060AAXX  26144 06848 41/02 9//// 1//// 2//// 3//// 5//// 74544;
0136068480999992010012615004+46950+009600FM-12+137099999V02099999999990003019N0002001N1+99999+99999999999ADDAY141031AY241031GA1091+999999999GF109991091999999999999999MW1451REMSYN060AAXX  26154 06848 41/02 9//// 1//// 2//// 3//// 5//// 74544;
0136068480999992010012616004+46950+009600FM-12+137099999V02099999999990001519N0001001N1+99999+99999999999ADDAY141011AY241011GA1091+999999999GF109991091999999999999999MW1451REMSYN060AAXX  26164 06848 41/01 9//// 1//// 2//// 3//// 5//// 74544;
0136068480999992010012617004+46950+009600FM-12+137099999V02099999999990001519N0001001N1+99999+99999999999ADDAY141021AY241021GA1091+999999999GF109991091999999999999999MW1451REMSYN060AAXX  26174 06848 41/01 9//// 1//// 2//// 3//// 5//// 74544;
0181068480999992010012618004+46950+009600FM-12+137099999V02099999999990003019N0002001N1+99999+99999999999ADDAJ100019199999999AY141061AY241061GA1091+999999999GF109991091999999999999999IA1239MW1451REMSYN082AAXX  26184 06848 41/02 9//// 1//// 2//// 3//// 5//// 74544 333 47001 90766 93101;
0136068480999992010012619004+46950+009600FM-12+137099999V02099999999990003019N0002001N1+99999+99999999999ADDAY141011AY241011GA1091+999999999GF109991091999999999999999MW1451REMSYN060AAXX  26194 06848 41/02 9//// 1//// 2//// 3//// 5//// 74544;
0136068480999992010012620004+46950+009600FM-12+137099999V02099999999990003019N0002001N1+99999+99999999999ADDAY141021AY241021GA1091+999999999GF109991091999999999999999MW1451REMSYN060AAXX  26204 06848 41/02 9//// 1//// 2//// 3//// 5//// 74544;
0136068480999992010012621004+46950+009600FM-12+137099999V02099999999990003019N0002001N1+99999+99999999999ADDAY141031AY241031GA1091+999999999GF109991091999999999999999MW1451REMSYN060AAXX  26214 06848 41/02 9//// 1//// 2//// 3//// 5//// 74544;
0171068480999992010012700004+46950+009600FM-12+137099999V02099999999992200019N0020001N1+99999+99999999999ADDAY141061AY241061GA1021+014401031GF102991999001012501071001MW1441REMSYN076AAXX  27004 06848 41620 2//// 1//// 2//// 3//// 5//// 74444 84070 333 82348;EQDQ01+000042SCOTLC
0136068480999992010012703004+46950+009600FM-12+137099999V02099999999990003019N0005001N1+99999+99999999999ADDAY141031AY221031GA1091+999999999GF109991091999999999999999MW1471REMSYN060AAXX  27034 06848 41/05 9//// 1//// 2//// 3//// 5//// 74742;
0153068480999992010012706004+46950+009600FM-12+137099999V02099999999992200019N0150001N1+99999+99999999999ADDAJ100019199999999GA1001+999999999GF100991001001999999001001IA1239REMSYN076AAXX  27064 06848 42965 0//// 1//// 2//// 3//// 5//// 333 47001 90768 93100;
0124068480999992010012707004+46950+009600FM-12+137099999V02099999999992200019N0200001N1+99999+99999999999ADDGA1021+066001001GF102991001001999999001041REMSYN070AAXX  27074 06848 42970 2//// 1//// 2//// 3//// 5//// 80004 333 82072;
0124068480999992010012708004+46950+009600FM-12+137099999V02099999999992200019N0200001N1+99999+99999999999ADDGA1031+066001001GF103991001001999999001041REMSYN070AAXX  27084 06848 42970 3//// 1//// 2//// 3//// 5//// 80004 333 83072;
0124068480999992010012709004+46950+009600FM-12+137099999V02099999999992200019N0200001N1+99999+99999999999ADDGA1041+066001001GF104991001001999999001041REMSYN070AAXX  27094 06848 42970 4//// 1//// 2//// 3//// 5//// 80004 333 84072;
0134068480999992010012710004+46950+009600FM-12+137099999V02099999999990660019N0100001N1+99999+99999999999ADDGA1071+066001001GF107991001001999999001021REMSYN080AAXX  27104 06848 42960 7//// 1//// 2//// 3//// 5//// 80002 333 87072 444 26140;
0134068480999992010012711004+46950+009600FM-12+137099999V02099999999990660019N0100001N1+99999+99999999999ADDGA1071+066001001GF107991001001999999001021REMSYN080AAXX  27114 06848 42960 7//// 1//// 2//// 3//// 5//// 80002 333 87072 444 26148;
0134068480999992010012712004+46950+009600FM-12+137099999V02099999999990660019N0150001N1+99999+99999999999ADDGA1071+066001001GF107991001001999999001021REMSYN080AAXX  27124 06848 42965 7//// 1//// 2//// 3//// 5//// 80002 333 87072 444 26148;
0134068480999992010012713004+46950+009600FM-12+137099999V02099999999992200019N0150001N1+99999+99999999999ADDGA1041+066001001GF104991001001999999001041REMSYN080AAXX  27134 06848 42965 4//// 1//// 2//// 3//// 5//// 80004 333 84072 444 16148;
0134068480999992010012714004+46950+009600FM-12+137099999V02099999999992200019N0150001N1+99999+99999999999ADDGA1031+066001001GF103991001001999999001041REMSYN080AAXX  27144 06848 42965 3//// 1//// 2//// 3//// 5//// 80004 333 83072 444 16148;
0134068480999992010012715004+46950+009600FM-12+137099999V02099999999990660019N0100001N1+99999+99999999999ADDGA1051+066001001GF105991001001999999001041REMSYN080AAXX  27154 06848 42960 5//// 1//// 2//// 3//// 5//// 80004 333 85072 444 46127;
0134068480999992010012716004+46950+009600FM-12+137099999V02099999999992200019N0100001N1+99999+99999999999ADDGA1041+066001001GF104991001001999999001041REMSYN080AAXX  27164 06848 42960 4//// 1//// 2//// 3//// 5//// 80004 333 84072 444 46127;
0134068480999992010012717004+46950+009600FM-12+137099999V02099999999992200019N0150001N1+99999+99999999999ADDGA1021+075001001GF102991001001999999001041REMSYN080AAXX  27174 06848 42965 2//// 1//// 2//// 3//// 5//// 80004 333 82075 444 46138;
0203068480999992010012718004+46950+009600FM-12+137099999V02099999999992200019N0150001N1+99999+99999999999ADDAJ100159199999999AL19900091GA1021+066001001GF102991001001999999001041GG1049021009019999IA1239REMSYN098AAXX  27184 06848 42965 2//// 1//// 2//// 3//// 5//// 80004 333 47015 82072 90766 93100 444 44121;
0134068480999992010012719004+46950+009600FM-12+137099999V02099999999992200019N0100001N1+99999+99999999999ADDGA1021+066001001GF102991001001999999001041REMSYN080AAXX  27194 06848 42960 2//// 1//// 2//// 3//// 5//// 80004 333 82072 444 44113;
0124068480999992010012720004+46950+009600FM-12+137099999V02099999999992200019N0100001N1+99999+99999999999ADDGA1021+066001001GF102991001001999999001041REMSYN070AAXX  27204 06848 42960 2//// 1//// 2//// 3//// 5//// 80004 333 82072;
0134068480999992010012721004+46950+009600FM-12+137099999V02099999999992200019N0100001N1+99999+99999999999ADDGA1031+066001001GF103991001001999999001041REMSYN080AAXX  27214 06848 42960 3//// 1//// 2//// 3//// 5//// 80004 333 83072 444 14112;
0124068480999992010012800004+46950+009600FM-12+137099999V02099999999990660019N0100001N1+99999+99999999999ADDGA1081+066001001GF108991001001999999001041REMSYN070AAXX  28004 06848 42960 8//// 1//// 2//// 3//// 5//// 80004 333 88072;
0124068480999992010012803004+46950+009600FM-12+137099999V02099999999990660019N0100001N1+99999+99999999999ADDGA1081+066001011GF108991001001999999001011REMSYN070AAXX  28034 06848 42960 8//// 1//// 2//// 3//// 5//// 80001 333 88172;
0193068480999992010012806004+46950+009600FM-12+137099999V02099999999990150019N0010001N1+99999+99999999999ADDAJ100179199999999AY171061AY221061GA1081+015001051GF108991081001017501021999IA1239MW1751REMSYN094AAXX  28064 06848 41710 8//// 1//// 2//// 3//// 5//// 77572 8802/ 333 47017 88550 90768 93102;
0152068480999992010012807004+46950+009600FM-12+137099999V02099999999990150019N0015001N1+99999+99999999999ADDAY171011AY271011GA1081+015001051GF108991081001017501021001MW1731REMSYN076AAXX  28074 06848 41715 8//// 1//// 2//// 3//// 5//// 77377 88020 333 88550;
0136068480999992010012808004+46950+009600FM-12+137099999V02099999999990006019N0010001N1+99999+99999999999ADDAY131021AY231021GA1091+999999999GF109991091999999999999999MW1731REMSYN060AAXX  28084 06848 41/10 9//// 1//// 2//// 3//// 5//// 77333;
0152068480999992010012809004+46950+009600FM-12+137099999V02099999999990150019N0015001N1+99999+99999999999ADDAY171031AY271031GA1081+015001051GF108991081001017501021001MW1731REMSYN076AAXX  28094 06848 41715 8//// 1//// 2//// 3//// 5//// 77377 88020 333 88550;
0152068480999992010012810004+46950+009600FM-12+137099999V02099999999990042019N0010001N1+99999+99999999999ADDAY171011AY271011GA1081+004201071GF108991081071004501999999MW1731REMSYN076AAXX  28104 06848 41410 8//// 1//// 2//// 3//// 5//// 77377 887// 333 88714;
0152068480999992010012811004+46950+009600FM-12+137099999V02099999999990042019N0010001N1+99999+99999999999ADDAY171021AY271021GA1081+004201071GF108991081071004501999999MW1711REMSYN076AAXX  28114 06848 41410 8//// 1//// 2//// 3//// 5//// 77177 887// 333 88714;
0152068480999992010012812004+46950+009600FM-12+137099999V02099999999990042019N0010001N1+99999+99999999999ADDAY171061AY271061GA1081+004201071GF108991081071004501999999MW1711REMSYN076AAXX  28124 06848 41410 8//// 1//// 2//// 3//// 5//// 77177 887// 333 88714;
0152068480999992010012813004+46950+009600FM-12+137099999V02099999999990042019N0010001N1+99999+99999999999ADDAY171011AY271011GA1081+004201051GF108991081071004501999999MW1731REMSYN076AAXX  28134 06848 41410 8//// 1//// 2//// 3//// 5//// 77377 887// 333 88514;
0152068480999992010012814004+46950+009600FM-12+137099999V02099999999990012019N0015001N1+99999+99999999999ADDAY171021AY271021GA1081+001201051GF108991081071001501999999MW1731REMSYN076AAXX  28144 06848 41215 8//// 1//// 2//// 3//// 5//// 77377 887// 333 88504;
0152068480999992010012815004+46950+009600FM-12+137099999V02099999999990042019N0010001N1+99999+99999999999ADDAY171031AY271031GA1081+004201071GF108991081071004501999999MW1711REMSYN076AAXX  28154 06848 41410 8//// 1//// 2//// 3//// 5//// 77177 887// 333 88714;
0152068480999992010012816004+46950+009600FM-12+137099999V02099999999990042019N0012001N1+99999+99999999999ADDAY171011AY271011GA1081+004201071GF108991081071004501001999MW1751REMSYN076AAXX  28164 06848 41412 8//// 1//// 2//// 3//// 5//// 77577 8870/ 333 88714;
0152068480999992010012817004+46950+009600FM-12+137099999V02099999999990063019N0012001N1+99999+99999999999ADDAY171021AY271021GA1081+006301051GF108991081071008001999999MW1731REMSYN076AAXX  28174 06848 41512 8//// 1//// 2//// 3//// 5//// 77377 887// 333 88521;
0193068480999992010012818004+46950+009600FM-12+137099999V02099999999990042019N0015001N1+99999+99999999999ADDAJ100349199999999AY171061AY271061GA1081+004201071GF108991081071004501999999IA1239MW1731REMSYN094AAXX  28184 06848 41415 8//// 1//// 2//// 3//// 5//// 77377 887// 333 47034 88714 90766 93117;
0152068480999992010012819004+46950+009600FM-12+137099999V02099999999990042019N0010001N1+99999+99999999999ADDAY171011AY271011GA1081+004201071GF108991081071004501999999MW1711REMSYN076AAXX  28194 06848 41410 8//// 1//// 2//// 3//// 5//// 77177 887// 333 88714;
0152068480999992010012820004+46950+009600FM-12+137099999V02099999999990042019N0010001N1+99999+99999999999ADDAY171021AY271021GA1081+004201071GF108991081071004501999999MW1711REMSYN076AAXX  28204 06848 41410 8//// 1//// 2//// 3//// 5//// 77177 887// 333 88714;
0152068480999992010012821004+46950+009600FM-12+137099999V02099999999990042019N0010001N1+99999+99999999999ADDAY171031AY271031GA1081+004201071GF108991081071004501999999MW1711REMSYN076AAXX  28214 06848 41410 8//// 1//// 2//// 3//// 5//// 77177 887// 333 88714;
0152068480999992010012900004+46950+009600FM-12+137099999V02099999999990054019N0010001N1+99999+99999999999ADDAY171061AY271061GA1081+005401071GF108991081071004501999999MW1751REMSYN076AAXX  29004 06848 41410 8//// 1//// 2//// 3//// 5//// 77577 887// 333 88718;
0187068480999992010012903004+46950+009600FM-12+137099999V02099999999990054019N0015001N1+99999+99999999999ADDAY171031AY271031GA1081+005401071GF108991999999999999001011MW1711REMSYN076AAXX  29034 06848 41915 8//// 1//// 2//// 3//// 5//// 77177 80001 333 88718;EQDQ01+000002SCOTLCQ02+000002SCOLCG
0193068480999992010012906004+46950+009600FM-12+137099999V02099999999990150019N0040001N1+99999+99999999999ADDAJ100379199999999AY171061AY221061GA1081+015001041GF108991081001017501071001IA1239MW1101REMSYN094AAXX  29064 06848 41740 8//// 1//// 2//// 3//// 5//// 71072 88070 333 47037 88450 90768 93103;
0152068480999992010012907004+46950+009600FM-12+137099999V02099999999990054019N0010001N1+99999+99999999999ADDAY171011AY271011GA1081+005401051GF108991081071004501999999MW1701REMSYN076AAXX  29074 06848 41410 8//// 1//// 2//// 3//// 5//// 77077 887// 333 88518;
0152068480999992010012908004+46950+009600FM-12+137099999V02099999999990054019N0015001N1+99999+99999999999ADDAY171021AY271021GA1081+005401071GF108991081071004501999999MW1711REMSYN076AAXX  29084 06848 41415 8//// 1//// 2//// 3//// 5//// 77177 887// 333 88718;
0124068480999992010012909004+46950+009600FM-12+137099999V02099999999990123019N0030001N1+99999+99999999999ADDGA1081+012301041GF108991081001012501011999REMSYN070AAXX  29094 06848 42630 8//// 1//// 2//// 3//// 5//// 8801/ 333 88441;
0134068480999992010012910004+46950+009600FM-12+137099999V02099999999990102019N0100001N1+99999+99999999999ADDGA1081+010201041GF108991081001012501011999REMSYN080AAXX  29104 06848 42660 8//// 1//// 2//// 3//// 5//// 8801/ 333 88434 444 16120;
0134068480999992010012911004+46950+009600FM-12+137099999V02099999999990114019N0120001N1+99999+99999999999ADDGA1071+011401041GF107991071001012501011091REMSYN080AAXX  29114 06848 42662 7//// 1//// 2//// 3//// 5//// 87019 333 87438 444 26148;
0134068480999992010012912004+46950+009600FM-12+137099999V02099999999990114019N0120001N1+99999+99999999999ADDGA1071+011401041GF107991071001012501011001REMSYN080AAXX  29124 06848 42662 7//// 1//// 2//// 3//// 5//// 87010 333 87438 444 26130;
0134068480999992010012913004+46950+009600FM-12+137099999V02099999999990114019N0150001N1+99999+99999999999ADDGA1081+011401041GF108991081051012501999999REMSYN080AAXX  29134 06848 42665 8//// 1//// 2//// 3//// 5//// 885// 333 88438 444 16100;
0134068480999992010012914004+46950+009600FM-12+137099999V02099999999990114019N0100001N1+99999+99999999999ADDGA1081+011401041GF108991081001012501011999REMSYN080AAXX  29144 06848 42660 8//// 1//// 2//// 3//// 5//// 8801/ 333 88438 444 16130;
0134068480999992010012915004+46950+009600FM-12+137099999V02099999999990114019N0100001N1+99999+99999999999ADDGA1081+011401041GF108991081001012501011999REMSYN080AAXX  29154 06848 42660 8//// 1//// 2//// 3//// 5//// 8801/ 333 88438 444 14130;
0134068480999992010012916004+46950+009600FM-12+137099999V02099999999990102019N0100001N1+99999+99999999999ADDGA1081+010201041GF108991081001012501021999REMSYN080AAXX  29164 06848 42660 8//// 1//// 2//// 3//// 5//// 8802/ 333 88434 444 16120;
0134068480999992010012917004+46950+009600FM-12+137099999V02099999999990114019N0120001N1+99999+99999999999ADDGA1081+011401041GF108991081001012501071999REMSYN080AAXX  29174 06848 42662 8//// 1//// 2//// 3//// 5//// 8807/ 333 88438 444 24128;
0213068480999992010012918004+46950+009600FM-12+137099999V02099999999990114019N0080001N1+99999+99999999999ADDAJ100379199999999AL19900091AY131061AY221061GA1081+011401041GF108991081001012501021999IA1239MW1361REMSYN104AAXX  29184 06848 41658 8//// 1//// 2//// 3//// 5//// 73632 8802/ 333 47037 88438 90766 93100 444 16120;
0180068480999992010012919004+46950+009600FM-12+137099999V02099999999990114019N0100001N1+99999+99999999999ADDAY131011AY221011GA1081+011401041GF108991081001012501021999GG1069020009019999MW1361REMSYN086AAXX  29194 06848 41660 8//// 1//// 2//// 3//// 5//// 73632 8802/ 333 88438 444 26120;
0180068480999992010012920004+46950+009600FM-12+137099999V02099999999990114019N0110001N1+99999+99999999999ADDAY131021AY221021GA1071+011401041GF107991071001012501021999GG1049020009019999MW1361REMSYN086AAXX  29204 06848 41661 7//// 1//// 2//// 3//// 5//// 73632 8702/ 333 87438 444 14120;
0134068480999992010012921004+46950+009600FM-12+137099999V02099999999990114019N0150001N1+99999+99999999999ADDGA1071+011401041GF107991071001012501021999REMSYN080AAXX  29214 06848 42665 7//// 1//// 2//// 3//// 5//// 8702/ 333 87438 444 16120;
0124068480999992010013000004+46950+009600FM-12+137099999V02099999999992200019N0110001N1+99999+99999999999ADDGA1041+011401041GF104991041001012501071001REMSYN070AAXX  30004 06848 42661 4//// 1//// 2//// 3//// 5//// 84070 333 84438;
0124068480999992010013003004+46950+009600FM-12+137099999V02099999999990114019N0100001N1+99999+99999999999ADDGA1081+011401071GF108991081061012501999999REMSYN070AAXX  30034 06848 42660 8//// 1//// 2//// 3//// 5//// 886// 333 88738;
0184068480999992010013006004+46950+009600FM-12+137099999V02099999999990114019N0070001N1+99999+99999999999ADDAJ100379199999999GA1051+011401071GF108991081999012501071999IA1239REMSYN088AAXX  30064 06848 42657 8//// 1//// 2//// 3//// 5//// 8807/ 333 47037 85738 90768 93100;EQDQ01+000002SCOLCG
0152068480999992010013007004+46950+009600FM-12+137099999V02099999999990114019N0020001N1+99999+99999999999ADDAY171011AY271011GA1081+011401051GF108991081001012501021999MW1711REMSYN076AAXX  30074 06848 41620 8//// 1//// 2//// 3//// 5//// 77177 8802/ 333 88538;
0152068480999992010013008004+46950+009600FM-12+137099999V02099999999990114019N0020001N1+99999+99999999999ADDAY171021AY271021GA1081+011401051GF108991081001012501021999MW1731REMSYN076AAXX  30084 06848 41620 8//// 1//// 2//// 3//// 5//// 77377 8802/ 333 88538;
0152068480999992010013009004+46950+009600FM-12+137099999V02099999999990114019N0080001N1+99999+99999999999ADDAY171031AY231031GA1081+011401071GF108991081061012501999999MW1731REMSYN076AAXX  30094 06848 41658 8//// 1//// 2//// 3//// 5//// 77373 886// 333 88738;
0152068480999992010013010004+46950+009600FM-12+137099999V02099999999990063019N0050001N1+99999+99999999999ADDAY171011AY271011GA1081+006301071GF108991081061008001999999MW1711REMSYN076AAXX  30104 06848 41550 8//// 1//// 2//// 3//// 5//// 77177 886// 333 88721;
0180068480999992010013011004+46950+009600FM-12+137099999V02099999999990042019N0080001N1+99999+99999999999ADDAY171021AY231021GA1071+004201071GF107991071061004501999999GG1069040009019999MW1381REMSYN086AAXX  30114 06848 41458 7//// 1//// 2//// 3//// 5//// 73873 876// 333 87714 444 26140;
0180068480999992010013012004+46950+009600FM-12+137099999V02099999999990063019N0150001N1+99999+99999999999ADDAY171061AY231061GA1061+006301071GF106991061061008001999999GG1069040009019999MW1011REMSYN086AAXX  30124 06848 41565 6//// 1//// 2//// 3//// 5//// 70173 866// 333 86721 444 36140;
0134068480999992010013013004+46950+009600FM-12+137099999V02099999999990114019N0150001N1+99999+99999999999ADDGA1081+011401041GF108991081001012501011999REMSYN080AAXX  30134 06848 42665 8//// 1//// 2//// 3//// 5//// 8801/ 333 88438 444 36148;
0143068480999992010013014004+46950+009600FM-12+137099999V02099999999990114019N0150001N1+99999+99999999999ADDGA1061+011401061GF106991061999012501071999REMSYN070AAXX  30144 06848 42665 6//// 1//// 2//// 3//// 5//// 8607/ 333 86638;EQDQ01+000002SCOLCG
0134068480999992010013015004+46950+009600FM-12+137099999V02099999999990114019N0150001N1+99999+99999999999ADDGA1061+011401041GF106991061001012501011999REMSYN080AAXX  30154 06848 42665 6//// 1//// 2//// 3//// 5//// 8601/ 333 86438 444 46148;
0134068480999992010013016004+46950+009600FM-12+137099999V02099999999992200019N0200001N1+99999+99999999999ADDGA1021+015001031GF102991021001017501031091REMSYN080AAXX  30164 06848 42770 2//// 1//// 2//// 3//// 5//// 82039 333 82350 444 16140;
0124068480999992010013017004+46950+009600FM-12+137099999V02099999999992200019N0300001N1+99999+99999999999ADDGA1011+006301061GF101991011041008001001001REMSYN070AAXX  30174 06848 42580 1//// 1//// 2//// 3//// 5//// 81400 333 81621;
0153068480999992010013018004+46950+009600FM-12+137099999V02099999999992200019N0300001N1+99999+99999999999ADDAJ100429199999999GA1001+999999999GF100991001001999999001001IA1239REMSYN076AAXX  30184 06848 42980 0//// 1//// 2//// 3//// 5//// 333 47042 90766 93105;
0108068480999992010013019004+46950+009600FM-12+137099999V02099999999992200019N0300001N1+99999+99999999999ADDGA1001+999999999GF100991001001999999001001REMSYN054AAXX  30194 06848 42980 0//// 1//// 2//// 3//// 5////;
0136068480999992010013020004+46950+009600FM-12+137099999V02099999999992200019N0100001N1+99999+99999999999ADDAY101021AY201021GA1001+999999999GF100991001001999999001001MW1101REMSYN060AAXX  30204 06848 41960 0//// 1//// 2//// 3//// 5//// 71000;
0152068480999992010013021004+46950+009600FM-12+137099999V02099999999990114019N0100001N1+99999+99999999999ADDAY171031AY271031GA1081+011401041GF108991081001012501021999MW1031REMSYN076AAXX  30214 06848 41660 8//// 1//// 2//// 3//// 5//// 70377 8802/ 333 88438;
0124068480999992010013100004+46950+009600FM-12+137099999V02099999999990114019N0100001N1+99999+99999999999ADDGA1051+011401031GF105991051001012501071001REMSYN070AAXX  31004 06848 42660 5//// 1//// 2//// 3//// 5//// 85070 333 85338;
0124068480999992010013103004+46950+009600FM-12+137099999V02099999999990114019N0100001N1+99999+99999999999ADDGA1051+011401031GF105991051001012501051001REMSYN070AAXX  31034 06848 42660 5//// 1//// 2//// 3//// 5//// 85050 333 85338;
0165068480999992010013106004+46950+009600FM-12+137099999V02099999999990123019N0150001N1+99999+99999999999ADDAJ100459199999999GA1081+012301041GF108991081001012501021999IA1239REMSYN088AAXX  31064 06848 42665 8//// 1//// 2//// 3//// 5//// 8802/ 333 47045 88441 90768 93101;
0152068480999992010013107004+46950+009600FM-12+137099999V02099999999990084019N0020001N1+99999+99999999999ADDAY171011AY271011GA1081+008401051GF108991081001008001021999MW1731REMSYN076AAXX  31074 06848 41520 8//// 1//// 2//// 3//// 5//// 77377 8802/ 333 88528;
0171068480999992010013108004+46950+009600FM-12+137099999V02099999999990093019N0030001N1+99999+99999999999ADDAY171021AY221021GA1061+009301071GF106991061999008001021999MW1711REMSYN076AAXX  31084 06848 41530 6//// 1//// 2//// 3//// 5//// 77172 8602/ 333 86731;EQDQ01+000002SCOLCG
0180068480999992010013109004+46950+009600FM-12+137099999V02099999999992200019N0100001N1+99999+99999999999ADDAY171031AY211031GA1041+005401041GF104991041051004501999999GG1049020009019999MW1011REMSYN086AAXX  31094 06848 41460 4//// 1//// 2//// 3//// 5//// 70171 845// 333 84418 444 24120;
0134068480999992010013110004+46950+009600FM-12+137099999V02099999999992200019N0150001N1+99999+99999999999ADDGA1021+005401061GF102991021041004501001001REMSYN080AAXX  31104 06848 42465 2//// 1//// 2//// 3//// 5//// 82400 333 82618 444 26120;
0124068480999992010013111004+46950+009600FM-12+137099999V02099999999992200019N0200001N1+99999+99999999999ADDGA1021+007201061GF102991021051008001001001REMSYN070AAXX  31114 06848 42570 2//// 1//// 2//// 3//// 5//// 82500 333 82624;
0143068480999992010013112004+46950+009600FM-12+137099999V02099999999990093019N0150001N1+99999+99999999999ADDGA1071+009301061GF107991071999008001061999REMSYN070AAXX  31124 06848 42565 7//// 1//// 2//// 3//// 5//// 8706/ 333 87631;EQDQ01+000002SCOLCG
0143068480999992010013113004+46950+009600FM-12+137099999V02099999999990093019N0150001N1+99999+99999999999ADDGA1071+009301061GF107991071999008001061999REMSYN070AAXX  31134 06848 42565 7//// 1//// 2//// 3//// 5//// 8706/ 333 87631;EQDQ01+000002SCOLCG
0152068480999992010013114004+46950+009600FM-12+137099999V02099999999990072019N0050001N1+99999+99999999999ADDAY121021AY221021GA1081+007201041GF108991081001008001011999MW1101REMSYN076AAXX  31144 06848 41550 8//// 1//// 2//// 3//// 5//// 71022 8801/ 333 88424;
0152068480999992010013115004+46950+009600FM-12+137099999V02099999999990150019N0020001N1+99999+99999999999ADDAY121031AY221031GA1071+015001031GF107991071001017501071999MW1101REMSYN076AAXX  31154 06848 41720 7//// 1//// 2//// 3//// 5//// 71022 8707/ 333 87350;
0136068480999992010013116004+46950+009600FM-12+137099999V02099999999990001519N0000001N1+99999+99999999999ADDAY141011AY241011GA1091+999999999GF109991091999999999999999MW1471REMSYN060AAXX  31164 06848 41/00 9//// 1//// 2//// 3//// 5//// 74744;
0136068480999992010013117004+46950+009600FM-12+137099999V02099999999990006019N0009001N1+99999+99999999999ADDAY141021AY241021GA1091+999999999GF109991091999999999999999MW1711REMSYN060AAXX  31174 06848 41/09 9//// 1//// 2//// 3//// 5//// 77144;
0139068480999992010013118004+46950+009600FM-12+137099999V02099999999999999999N0001001N1+99999+99999999999ADDAJ100469199999999AY171061AY211061IA1239MW1711REMSYN082AAXX  31184 06848 41/01 ///// 1//// 2//// 3//// 5//// 77171 333 47046 90766 93103;
0136068480999992010013119004+46950+009600FM-12+137099999V02099999999990001519N0001001N1+99999+99999999999ADDAY171011AY241011GA1091+999999999GF109991091999999999999999MW1711REMSYN060AAXX  31194 06848 41/01 9//// 1//// 2//// 3//// 5//// 77174;
0136068480999992010013120004+46950+009600FM-12+137099999V02099999999990003019N0005001N1+99999+99999999999ADDAY171021AY241021GA1091+999999999GF109991091999999999999999MW1711REMSYN060AAXX  31204 06848 41/05 9//// 1//// 2//// 3//// 5//// 77174;
0152068480999992010013121004+46950+009600FM-12+137099999V02099999999990093019N0030001N1+99999+99999999999ADDAY171031AY221031GA1081+009301041GF108991081001008001071999MW1711REMSYN076AAXX  31214 06848 41530 8//// 1//// 2//// 3//// 5//// 77172 8807/ 333 88431;
0152068480999992010020100004+46950+009600FM-12+137099999V02099999999990093019N0025001N1+99999+99999999999ADDAY171061AY221061GA1081+009301041GF108991081001008001071999MW1711REMSYN076AAXX  01004 06848 41525 8//// 1//// 2//// 3//// 5//// 77172 8807/ 333 88431;
0108068480999992010020103004+46950+009600FM-12+137099999V02099999999992200019N0150001N1+99999+99999999999ADDGA1001+999999999GF100991001001999999001001REMSYN054AAXX  01034 06848 42965 0//// 1//// 2//// 3//// 5////;
0181068480999992010020106004+46950+009600FM-12+137099999V02099999999992200019N0150001N1+99999+99999999999ADDAJ100479199999999AY171061AY211061GA1001+999999999GF100991001001999999001001IA1239MW1021REMSYN082AAXX  01064 06848 41965 0//// 1//// 2//// 3//// 5//// 70271 333 47047 90768 93101;
0108068480999992010020107004+46950+009600FM-12+137099999V02099999999992200019N0200001N1+99999+99999999999ADDGA1001+999999999GF100991001001999999001001REMSYN054AAXX  01074 06848 42970 0//// 1//// 2//// 3//// 5////;
0108068480999992010020108004+46950+009600FM-12+137099999V02099999999992200019N0200001N1+99999+99999999999ADDGA1001+999999999GF100991001001999999001001REMSYN054AAXX  01084 06848 42970 0//// 1//// 2//// 3//// 5////;
0108068480999992010020109004+46950+009600FM-12+137099999V02099999999992200019N0200001N1+99999+99999999999ADDGA1001+999999999GF100991001001999999001001REMSYN054AAXX  01094 06848 42970 0//// 1//// 2//// 3//// 5////;
0108068480999992010020110004+46950+009600FM-12+137099999V02099999999992200019N0200001N1+99999+99999999999ADDGA1001+999999999GF100991001001999999001001REMSYN054AAXX  01104 06848 42970 0//// 1//// 2//// 3//// 5////;
0124068480999992010020111004+46950+009600FM-12+137099999V02099999999992200019N0200001N1+99999+99999999999ADDGA1031+018001001GF103991031001017501081001REMSYN070AAXX  01114 06848 42770 3//// 1//// 2//// 3//// 5//// 83080 333 83056;
0124068480999992010020112004+46950+009600FM-12+137099999V02099999999992200019N0200001N1+99999+99999999999ADDGA1041+018001031GF104991041001017501041001REMSYN070AAXX  01124 06848 42770 4//// 1//// 2//// 3//// 5//// 84040 333 84356;
0124068480999992010020113004+46950+009600FM-12+137099999V02099999999990180019N0200001N1+99999+99999999999ADDGA1081+018001031GF108991081001017501071999REMSYN070AAXX  01134 06848 42770 8//// 1//// 2//// 3//// 5//// 8807/ 333 88356;
0124068480999992010020114004+46950+009600FM-12+137099999V02099999999990114019N0130001N1+99999+99999999999ADDGA1081+011401041GF108991081001012501011999REMSYN070AAXX  01144 06848 42663 8//// 1//// 2//// 3//// 5//// 8801/ 333 88438;
0124068480999992010020115004+46950+009600FM-12+137099999V02099999999990114019N0150001N1+99999+99999999999ADDGA1081+011401031GF108991081001012501071999REMSYN070AAXX  01154 06848 42665 8//// 1//// 2//// 3//// 5//// 8807/ 333 88338;
0124068480999992010020116004+46950+009600FM-12+137099999V02099999999999999999N0130001N1+99999+99999999999ADDGA1031+009901041GF108991081001008001071999REMSYN070AAXX  01164 06848 42563 8//// 1//// 2//// 3//// 5//// 8807/ 333 83433;
0124068480999992010020117004+46950+009600FM-12+137099999V02099999999990114019N0150001N1+99999+99999999999ADDGA1081+011401041GF108991081001012501021999REMSYN070AAXX  01174 06848 42665 8//// 1//// 2//// 3//// 5//// 8802/ 333 88438;
0193068480999992010020118004+46950+009600FM-12+137099999V02099999999990114019N0050001N1+99999+99999999999ADDAJ100469199999999AY121061AY221061GA1081+011401051GF108991081001012501071999IA1239MW1701REMSYN094AAXX  01184 06848 41650 8//// 1//// 2//// 3//// 5//// 77022 8807/ 333 47046 88538 90766 93100;
0152068480999992010020119004+46950+009600FM-12+137099999V02099999999990114019N0080001N1+99999+99999999999ADDAY171011AY271011GA1081+011401051GF108991081001012501021999MW1711REMSYN076AAXX  01194 06848 41658 8//// 1//// 2//// 3//// 5//// 77177 8802/ 333 88538;
0152068480999992010020120004+46950+009600FM-12+137099999V02099999999990114019N0050001N1+99999+99999999999ADDAY171021AY221021GA1081+011401051GF108991081001012501021999MW1711REMSYN076AAXX  01204 06848 41650 8//// 1//// 2//// 3//// 5//// 77172 8802/ 333 88538;
0152068480999992010020121004+46950+009600FM-12+137099999V02099999999990123019N0030001N1+99999+99999999999ADDAY171031AY211031GA1081+012301051GF108991081001012501021999MW1711REMSYN076AAXX  01214 06848 41630 8//// 1//// 2//// 3//// 5//// 77171 8802/ 333 88541;
0143068480999992010020200004+46950+009600FM-12+137099999V02099999999990072019N0020001N1+99999+99999999999ADDGA1081+007201071GF108991081999008001021999REMSYN070AAXX  02004 06848 42520 8//// 1//// 2//// 3//// 5//// 8802/ 333 88724;EQDQ01+000002SCOLCG
0136068480999992010020203004+46950+009600FM-12+137099999V02099999999990003019N0003001N1+99999+99999999999ADDAY171031AY221031GA1091+999999999GF109991091999999999999999MW1711REMSYN060AAXX  02034 06848 41/03 9//// 1//// 2//// 3//// 5//// 77172;
0193068480999992010020206004+46950+009600FM-12+137099999V02099999999990114019N0050001N1+99999+99999999999ADDAJ100469199999999AY171061AY271061GA1081+011401041GF108991081001012501071999IA1239MW1011REMSYN094AAXX  02064 06848 41650 8//// 1//// 2//// 3//// 5//// 70177 8807/ 333 47046 88438 90768 93104;
0124068480999992010020207004+46950+009600FM-12+137099999V02099999999990093019N0050001N1+99999+99999999999ADDGA1081+009301041GF108991081001008001021999REMSYN070AAXX  02074 06848 42550 8//// 1//// 2//// 3//// 5//// 8802/ 333 88431;
0134068480999992010020208004+46950+009600FM-12+137099999V02099999999992200019N0120001N1+99999+99999999999ADDGA1031+009301031GF103991031001008001081001REMSYN080AAXX  02084 06848 42562 3//// 1//// 2//// 3//// 5//// 83080 333 83331 444 13100;
0153068480999992010020209004+46950+009600FM-12+137099999V02099999999992200019N0100001N1+99999+99999999999ADDGA1041+008401061GF104991041999008001041001REMSYN080AAXX  02094 06848 42560 4//// 1//// 2//// 3//// 5//// 84040 333 84628 444 10100;EQDQ01+000002SCOLCG
0143068480999992010020210004+46950+009600FM-12+137099999V02099999999990114019N0150001N1+99999+99999999999ADDGA1051+011401061GF105991051999012501051001REMSYN070AAXX  02104 06848 42665 5//// 1//// 2//// 3//// 5//// 85050 333 85638;EQDQ01+000002SCOLCG
0143068480999992010020211004+46950+009600FM-12+137099999V02099999999990114019N0150001N1+99999+99999999999ADDGA1051+011401061GF105991051999012501031001REMSYN070AAXX  02114 06848 42665 5//// 1//// 2//// 3//// 5//// 85030 333 85638;EQDQ01+000002SCOLCG
0199068480999992010020212004+46950+009600FM-12+137099999V02099999999990114019N0150001N1+99999+99999999999ADDAY171061AY211061GA1051+011401061GF105991051999012501041001GG1069020009019999MW1021REMSYN086AAXX  02124 06848 41665 5//// 1//// 2//// 3//// 5//// 70271 85040 333 85638 444 16120;EQDQ01+000002SCOLCG
0124068480999992010020213004+46950+009600FM-12+137099999V02099999999992200019N0150001N1+99999+99999999999ADDGA1021+010201031GF102991021001012501051001REMSYN070AAXX  02134 06848 42665 2//// 1//// 2//// 3//// 5//// 82050 333 82334;
0124068480999992010020214004+46950+009600FM-12+137099999V02099999999992200019N0150001N1+99999+99999999999ADDGA1041+012301031GF104991041001012501051001REMSYN070AAXX  02144 06848 42665 4//// 1//// 2//// 3//// 5//// 84050 333 84341;
0124068480999992010020215004+46950+009600FM-12+137099999V02099999999990114019N0130001N1+99999+99999999999ADDGA1081+011401041GF108991081001012501021999REMSYN070AAXX  02154 06848 42663 8//// 1//// 2//// 3//// 5//// 8802/ 333 88438;
0124068480999992010020216004+46950+009600FM-12+137099999V02099999999990114019N0120001N1+99999+99999999999ADDGA1081+011401031GF108991081001012501071999REMSYN070AAXX  02164 06848 42662 8//// 1//// 2//// 3//// 5//// 8807/ 333 88338;
0124068480999992010020217004+46950+009600FM-12+137099999V02099999999990114019N0100001N1+99999+99999999999ADDGA1081+011401041GF108991081001012501071999REMSYN070AAXX  02174 06848 42660 8//// 1//// 2//// 3//// 5//// 8807/ 333 88438;
0136068480999992010020218004+46950+009600FM-12+137099999V02099999999990114019N0100001N1+99999+99999999999ADDGA1081+011401041GF108991081001012501071999IA1239REMSYN076AAXX  02184 06848 42660 8//// 1//// 2//// 3//// 5//// 8807/ 333 47/// 88438;
0124068480999992010020219004+46950+009600FM-12+137099999V02099999999990114019N0100001N1+99999+99999999999ADDGA1051+011401031GF108991081001012501071999REMSYN070AAXX  02194 06848 42660 8//// 1//// 2//// 3//// 5//// 8807/ 333 85338;
0124068480999992010020220004+46950+009600FM-12+137099999V02099999999990114019N0100001N1+99999+99999999999ADDGA1081+011401041GF108991081001012501071999REMSYN070AAXX  02204 06848 42660 8//// 1//// 2//// 3//// 5//// 8807/ 333 88438;
0124068480999992010020221004+46950+009600FM-12+137099999V02099999999990114019N0100001N1+99999+99999999999ADDGA1081+011401041GF108991081001012501071999REMSYN070AAXX  02214 06848 42660 8//// 1//// 2//// 3//// 5//// 8807/ 333 88438;
0143068480999992010020300004+46950+009600FM-12+137099999V02099999999990114019N0100001N1+99999+99999999999ADDGA1081+011401061GF108991081999012501071999REMSYN070AAXX  03004 06848 42660 8//// 1//// 2//// 3//// 5//// 8807/ 333 88638;EQDQ01+000002SCOLCG
0124068480999992010020303004+46950+009600FM-12+137099999V02099999999990003019N0100001N1+99999+99999999999ADDGA1081+000301071GF108991081061000251999999REMSYN070AAXX  03034 06848 42060 8//// 1//// 2//// 3//// 5//// 886// 333 88701;
0165068480999992010020306004+46950+009600FM-12+137099999V02099999999990114019N0100001N1+99999+99999999999ADDAJ100459199999999GA1081+011401041GF108991081001012501071999IA1239REMSYN088AAXX  03064 06848 42660 8//// 1//// 2//// 3//// 5//// 8807/ 333 47045 88438 90768 93100;
