0167068420999992010012610004+47517+009267FM-12+050699999V02099999999990048019N0005001N1+99999+99999999999ADDAY171999AY221999GA1081+004801051GF108991081071004501999999MA1999999096861MW1731REMSYN076AAXX  26104 06842 41405 822// 1//// 2//// 39686 5//// 77372 887// 333 88516;
0167068420999992010012611004+47517+009267FM-12+050699999V02099999999990048019N0005001N1+00021+99999999999ADDAY171999AY241999GA1081+004801051GF108991081071004501999999MA1999999096841MW1731REMSYN076AAXX  26114 06842 41405 802// 10002 2//// 39684 5//// 77374 887// 333 88516;
0173068420999992010012612004+47517+009267FM-12+050699999V0209999999999002101CN0015001N1+00021+99999999999ADDAY171061AY251061GA1031+003001071GF108991081061002501999999MA1999999096801MW1771REMSYN082AAXX  26124 06842 41315 804// 10002 2//// 39680 5//// 77775 886// 333 83710 88720;
0151068420999992010012613004+47517+009267FM-12+050699999V02099999999990006019N0008001N1-00251+99999999999ADDAY171999AY241999GA1091+999999999GF109991091999999999999999MA1999999096791MW1711REMSYN060AAXX  26134 06842 41/08 903// 11025 2//// 39679 5//// 77174;
0167068420999992010012614004+47517+009267FM-12+050699999V02099999999990048019N0020001N1-00261+99999999999ADDAY171999AY241999GA1081+004801041GF108991081061004501999999MA1999999096761MW1711REMSYN076AAXX  26144 06842 41420 804// 11026 2//// 39676 5//// 77174 886// 333 88416;
0167068420999992010012615004+47517+009267FM-12+050699999V02099999999990060019N0015001N1-00311+99999999999ADDAY171031AY221031GA1081+006001041GF108991081061004501999999MA1999999096791MW1781REMSYN076AAXX  26154 06842 41415 801// 11031 2//// 39679 5//// 77872 886// 333 88420;
0167068420999992010012616004+47517+009267FM-12+050699999V02099999999990060019N0022001N1-00401+99999999999ADDAY171999AY221999GA1081+006001071GF108991081061004501999999MA1999999096861MW1781REMSYN076AAXX  26164 06842 41422 804// 11040 2//// 39686 5//// 77872 886// 333 88720;
0208068420999992010012618004+47517+009267FM-12+050699999V02099999999990048019N0020001N1-00481+99999999999ADDAJ100049199999999AY171061AY221061GA1081+004801071GF108991081061004501999999IA1239MA1999999096941MW1781REMSYN094AAXX  26184 06842 41420 803// 11048 2//// 39694 5//// 77872 886// 333 47004 88716 90766 93103;
0167068420999992010012619004+47517+009267FM-12+050699999V02099999999990048019N0010001N1-00501+99999999999ADDAY171999AY221999GA1081+004801071GF108991081061004501999999MA1999999096961MW1781REMSYN076AAXX  26194 06842 41410 804// 11050 2//// 39696 5//// 77872 886// 333 88716;
0167068420999992010012620004+47517+009267FM-12+050699999V02099999999990048019N0010001N1-00521+99999999999ADDAY131999AY221999GA1081+004801071GF108991081071004501999999MA1999999096941MW1361REMSYN076AAXX  26204 06842 41410 801// 11052 2//// 39694 5//// 73632 887// 333 88716;
0167068420999992010012621004+47517+009267FM-12+050699999V02099999999990030019N0020001N1-00511+99999999999ADDAY131031AY221031GA1081+003001071GF108991081061002501999999MA1999999096911MW1361REMSYN076AAXX  26214 06842 41320 804// 11051 2//// 39691 5//// 73632 886// 333 88710;
0167068420999992010012622004+47517+009267FM-12+050699999V02099999999990030019N0020001N1-00511+99999999999ADDAY131999AY221999GA1081+003001071GF108991081061002501999999MA1999999096931MW1361REMSYN076AAXX  26224 06842 41320 804// 11051 2//// 39693 5//// 73632 886// 333 88710;
0167068420999992010012623004+47517+009267FM-12+050699999V02099999999990030019N0015001N1-00491+99999999999ADDAY131999AY221999GA1081+003001071GF108991081061002501999999MA1999999096961MW1361REMSYN076AAXX  26234 06842 41315 804// 11049 2//// 39696 5//// 73632 886// 333 88710;
0167068420999992010012700004+47517+009267FM-12+050699999V02099999999990030019N0015001N1-00491+99999999999ADDAY131061AY221061GA1081+003001071GF108991081061002501999999MA1999999096931MW1361REMSYN076AAXX  27004 06842 41315 805// 11049 2//// 39693 5//// 73632 886// 333 88710;
0167068420999992010012701004+47517+009267FM-12+050699999V02099999999990030019N0017001N1-00521+99999999999ADDAY131999AY221999GA1081+003001071GF108991081061002501999999MA1999999096871MW1361REMSYN076AAXX  27014 06842 41317 804// 11052 2//// 39687 5//// 73632 886// 333 88710;
0167068420999992010012702004+47517+009267FM-12+050699999V02099999999990039019N0015001N1-00541+99999999999ADDAY131999AY221999GA1081+003901071GF108991081061004501999999MA1999999096841MW1361REMSYN076AAXX  27024 06842 41415 803// 11054 2//// 39684 5//// 73632 886// 333 88713;
0167068420999992010012703004+47517+009267FM-12+050699999V02099999999990018019N0010001N1-00611+99999999999ADDAY121031AY221031GA1081+001801071GF108991081061001501999999MA1999999096821MW1361REMSYN076AAXX  27034 06842 41210 803// 11061 2//// 39682 5//// 73622 886// 333 88706;
0167068420999992010012704004+47517+009267FM-12+050699999V02099999999990018019N0010001N1-00691+99999999999ADDAY121999AY221999GA1081+001801071GF108991081061001501999999MA1999999096831MW1361REMSYN076AAXX  27044 06842 41210 803// 11069 2//// 39683 5//// 73622 886// 333 88706;
0167068420999992010012705004+47517+009267FM-12+050699999V02099999999990018019N0012001N1-00691+99999999999ADDAY121999AY221999GA1081+001801071GF108991081061001501999999MA1999999096801MW1101REMSYN076AAXX  27054 06842 41212 804// 11069 2//// 39680 5//// 71022 886// 333 88706;
0208068420999992010012706004+47517+009267FM-12+050699999V02099999999990018019N0014001N1-00671+99999999999ADDAJ100039199999999AY121061AY221061GA1081+001801071GF108991081061001501999999IA1239MA1999999096761MW1101REMSYN094AAXX  27064 06842 41214 803// 11067 2//// 39676 5//// 71022 886// 333 47003 88706 90768 93103;
0167068420999992010012707004+47517+009267FM-12+050699999V02099999999990009019N0013001N1-00661+99999999999ADDAY121999AY221999GA1081+000901071GF108991081061000751999999MA1999999096781MW1101REMSYN076AAXX  27074 06842 41113 801// 11066 2//// 39678 5//// 71022 886// 333 88703;
0167068420999992010012708004+47517+009267FM-12+050699999V02099999999990018019N0016001N1-00651+99999999999ADDAY121999AY221999GA1081+001801071GF108991081061001501999999MA1999999096761MW1101REMSYN076AAXX  27084 06842 41216 801// 11065 2//// 39676 5//// 71022 886// 333 88706;
0167068420999992010012709004+47517+009267FM-12+050699999V02099999999990009019N0014001N1-00651+99999999999ADDAY121031AY221031GA1081+000901071GF108991081061000751999999MA1999999096741MW1101REMSYN076AAXX  27094 06842 41114 801// 11065 2//// 39674 5//// 71022 886// 333 88703;
0167068420999992010012710004+47517+009267FM-12+050699999V02099999999990009019N0016001N1-00651+99999999999ADDAY121999AY221999GA1081+000901071GF108991081061000751999999MA1999999096761MW1101REMSYN076AAXX  27104 06842 41116 801// 11065 2//// 39676 5//// 71022 886// 333 88703;
0167068420999992010012711004+47517+009267FM-12+050699999V02099999999990009019N0020001N1-00701+99999999999ADDAY121999AY221999GA1081+000901071GF108991081061000751999999MA1999999096711MW1381REMSYN076AAXX  27114 06842 41120 800// 11070 2//// 39671 5//// 73822 886// 333 88703;
0139068420999992010012712004+47517+009267FM-12+050699999V02099999999990030019N0020001N1-00591+99999999999ADDGA1081+003001071GF108991081061002501999999MA1999999096611REMSYN070AAXX  27124 06842 42320 836// 11059 2//// 39661 5//// 886// 333 88710;
0139068420999992010012713004+47517+009267FM-12+050699999V02099999999990039019N0015001N1-00701+99999999999ADDGA1081+003901071GF108991081061004501999999MA1999999096461REMSYN070AAXX  27134 06842 42415 816// 11070 2//// 39646 5//// 886// 333 88713;
0139068420999992010012714004+47517+009267FM-12+050699999V02099999999990039019N0015001N1-00591+99999999999ADDGA1081+003901071GF108991081061004501999999MA1999999096401REMSYN070AAXX  27144 06842 42415 832// 11059 2//// 39640 5//// 886// 333 88713;
0139068420999992010012715004+47517+009267FM-12+050699999V02099999999990039019N0015001N1-00541+99999999999ADDGA1081+003901071GF108991081061004501999999MA1999999096361REMSYN070AAXX  27154 06842 42415 800// 11054 2//// 39636 5//// 886// 333 88713;
0167068420999992010012716004+47517+009267FM-12+050699999V02099999999990048019N0015001N1-00601+99999999999ADDAY121999AY221999GA1081+004801071GF108991081061004501999999MA1999999096351MW1101REMSYN076AAXX  27164 06842 41415 807// 11060 2//// 39635 5//// 71022 886// 333 88716;
0167068420999992010012717004+47517+009267FM-12+050699999V02099999999990039019N0012001N1-00601+99999999999ADDAY121999AY221999GA1081+003901071GF108991081061004501999999MA1999999096281MW1101REMSYN076AAXX  27174 06842 41412 822// 11060 2//// 39628 5//// 71022 886// 333 88713;
0208068420999992010012718004+47517+009267FM-12+050699999V02099999999990039019N0010001N1-00621+99999999999ADDAJ100039199999999AY121061AY221061GA1081+003901071GF108991081061004501999999IA1239MA1999999096181MW1101REMSYN094AAXX  27184 06842 41410 822// 11062 2//// 39618 5//// 71022 886// 333 47003 88713 90766 93100;
0167068420999992010012719004+47517+009267FM-12+050699999V02099999999990039019N0010001N1-00681+99999999999ADDAY121999AY221999GA1081+003901071GF108991081061004501999999MA1999999096171MW1101REMSYN076AAXX  27194 06842 41410 817// 11068 2//// 39617 5//// 71022 886// 333 88713;
0139068420999992010012720004+47517+009267FM-12+050699999V02099999999990039019N0012001N1-00641+99999999999ADDGA1081+003901071GF108991081061004501999999MA1999999096081REMSYN070AAXX  27204 06842 42412 818// 11064 2//// 39608 5//// 886// 333 88713;
0139068420999992010012721004+47517+009267FM-12+050699999V02099999999990048019N0012001N1-00601+99999999999ADDGA1081+004801071GF108991081061004501999999MA1999999096001REMSYN070AAXX  27214 06842 42412 823// 11060 2//// 39600 5//// 886// 333 88716;
0167068420999992010012722004+47517+009267FM-12+050699999V02099999999990039019N0012001N1-00561+99999999999ADDAY121999AY221999GA1081+003901071GF108991081061004501999999MA1999999095811MW1101REMSYN076AAXX  27224 06842 41412 823// 11056 2//// 39581 5//// 71022 886// 333 88713;
0167068420999992010012723004+47517+009267FM-12+050699999V02099999999990039019N0012001N1-00481+99999999999ADDAY121999AY221999GA1081+003901071GF108991081061004501999999MA1999999095671MW1101REMSYN076AAXX  27234 06842 41412 823// 11048 2//// 39567 5//// 71022 886// 333 88713;
0151068420999992010012800004+47517+009267FM-12+050699999V02099999999990006019N0008001N1-00431+99999999999ADDAY141061AY221061GA1091+999999999GF109991091999999999999999MA1999999095501MW1471REMSYN060AAXX  28004 06842 41/08 922// 11043 2//// 39550 5//// 74742;
0167068420999992010012801004+47517+009267FM-12+050699999V02099999999990048019N0015001N1-00321+99999999999ADDAY141999AY221999GA1081+004801071GF108991081061004501999999MA1999999095501MW1101REMSYN076AAXX  28014 06842 41415 828// 11032 2//// 39550 5//// 71042 886// 333 88716;
0167068420999992010012802004+47517+009267FM-12+050699999V02099999999990039019N0013001N1-00301+99999999999ADDAY171999AY241999GA1081+003901071GF108991081061004501999999MA1999999095401MW1781REMSYN076AAXX  28024 06842 41413 825// 11030 2//// 39540 5//// 77874 886// 333 88713;
0167068420999992010012803004+47517+009267FM-12+050699999V02099999999990030019N0009001N1-00331+99999999999ADDAY171031AY241031GA1081+003001071GF108991081071002501999999MA1999999095301MW1781REMSYN076AAXX  28034 06842 41309 824// 11033 2//// 39530 5//// 77874 887// 333 88710;
0151068420999992010012804004+47517+009267FM-12+050699999V02099999999990003019N0004001N1-00351+99999999999ADDAY171999AY241999GA1091+999999999GF109991091999999999999999MA1999999095201MW1751REMSYN060AAXX  28044 06842 41/04 924// 11035 2//// 39520 5//// 77574;
0151068420999992010012805004+47517+009267FM-12+050699999V02099999999990003019N0003001N1-00311+99999999999ADDAY171999AY241999GA1091+999999999GF109991091999999999999999MA1999999095151MW1731REMSYN060AAXX  28054 06842 41/03 925// 11031 2//// 39515 5//// 77374;
0208068420999992010012806004+47517+009267FM-12+050699999V02099999999990039019N0008001N1-00291+99999999999ADDAJ100069199999999AY171061AY241061GA1081+003901071GF108991081071004501999999IA1239MA1999999095121MW1761REMSYN094AAXX  28064 06842 41408 824// 11029 2//// 39512 5//// 77674 887// 333 47006 88713 90768 93103;
0151068420999992010012807004+47517+009267FM-12+050699999V02099999999990006019N0006001N1-00271+99999999999ADDAY171999AY241999GA1091+999999999GF109991091999999999999999MA1999999095131MW1731REMSYN060AAXX  28074 06842 41/06 924// 11027 2//// 39513 5//// 77374;
0151068420999992010012808004+47517+009267FM-12+050699999V02099999999990003019N0005001N1-00271+99999999999ADDAY171999AY241999GA1091+999999999GF109991091999999999999999MA1999999095131MW1751REMSYN060AAXX  28084 06842 41/05 923// 11027 2//// 39513 5//// 77574;
0151068420999992010012809004+47517+009267FM-12+050699999V02099999999990006019N0008001N1-00231+99999999999ADDAY171031AY241031GA1091+999999999GF109991091999999999999999MA1999999095111MW1731REMSYN060AAXX  28094 06842 41/08 924// 11023 2//// 39511 5//// 77374;
0167068420999992010012810004+47517+009267FM-12+050699999V02099999999990030019N0015001N1-00151+99999999999ADDAY171999AY241999GA1081+003001071GF108991081061002501999999MA1999999095121MW1711REMSYN076AAXX  28104 06842 41315 823// 11015 2//// 39512 5//// 77174 886// 333 88710;
0167068420999992010012811004+47517+009267FM-12+050699999V02099999999990030019N0015001N1-00141+99999999999ADDAY171999AY271999GA1081+003001051GF108991081071002501999999MA1999999095081MW1731REMSYN076AAXX  28114 06842 41315 823// 11014 2//// 39508 5//// 77377 887// 333 88510;
0167068420999992010012812004+47517+009267FM-12+050699999V02099999999990099019N0025001N1-00081+99999999999ADDAY171061AY271061GA1081+009901051GF108991081071008001999999MA1999999094981MW1781REMSYN076AAXX  28124 06842 41525 824// 11008 2//// 39498 5//// 77877 887// 333 88533;
0167068420999992010012813004+47517+009267FM-12+050699999V02099999999990099019N0025001N1-00081+99999999999ADDAY171999AY271999GA1081+009901071GF108991081071008001999999MA1999999094931MW1781REMSYN076AAXX  28134 06842 41525 825// 11008 2//// 39493 5//// 77877 887// 333 88733;
0167068420999992010012814004+47517+009267FM-12+050699999V02099999999990150019N0040001N1-00091+99999999999ADDAY131999AY221999GA1081+015001071GF108991081061012501999999MA1999999094891MW1361REMSYN076AAXX  28144 06842 41640 825// 11009 2//// 39489 5//// 73632 886// 333 88750;
0167068420999992010012816004+47517+009267FM-12+050699999V02099999999990009019N0010001N1-00121+99999999999ADDAY171999AY231999GA1081+000901051GF108991081001000751071999MA1999999094861MW1731REMSYN076AAXX  28164 06842 41110 824// 11012 2//// 39486 5//// 77373 8807/ 333 88503;
0164068420999992010012817004+47517+009267FM-12+050699999V02099999999990009019N0010001N1-00111+99999999999ADDGA1081+000901071GF108991081999000751071999MA1999999094801REMSYN076AAXX  28174 06842 41110 827// 11011 2//// 39480 5//// 7//72 8807/ 333 88703;EQDQ01+000002SCOLCG
0230068420999992010012818004+47517+009267FM-12+050699999V02099999999990048019N0020001N1-00111+99999999999ADDAJ100139199999999AY171061AY231061GA1051+004801071GA2081+015001041GF108991051061004501011001IA1239MA1999999094841MW1101REMSYN100AAXX  28184 06842 41420 827// 11011 2//// 39484 5//// 71073 85610 333 47013 85716 88450 90766 93110;
0173068420999992010012819004+47517+009267FM-12+050699999V0209999999999036001CN0030001N1-00101+99999999999ADDAY121999AY221999GA1021+003001071GF108991021061002501021999MA1999999094821MW1101REMSYN082AAXX  28194 06842 41330 827// 11010 2//// 39482 5//// 71022 8262/ 333 82710 88450;
0173068420999992010012820004+47517+009267FM-12+050699999V0209999999999036001CN0030001N1-00131+99999999999ADDAY121999AY221999GA1011+001801071GF108991011061001501071999MA1999999094701MW1101REMSYN082AAXX  28204 06842 41230 826// 11013 2//// 39470 5//// 71022 8167/ 333 81706 88633;
0167068420999992010012823004+47517+009267FM-12+050699999V02099999999990030019N0020001N1-00121+99999999999ADDAY121999AY221999GA1081+003001071GF108991081061002501999999MA1999999094651MW1101REMSYN076AAXX  28234 06842 41320 823// 11012 2//// 39465 5//// 71022 886// 333 88710;
0167068420999992010012900004+47517+009267FM-12+050699999V02099999999990030019N0020001N1-00081+99999999999ADDAY121061AY221061GA1081+003001071GF108991081061002501999999MA1999999094541MW1101REMSYN076AAXX  29004 06842 41320 822// 11008 2//// 39454 5//// 71022 886// 333 88710;
0167068420999992010012901004+47517+009267FM-12+050699999V02099999999990030019N0020001N1-00131+99999999999ADDAY121999AY221999GA1081+003001071GF108991081061002501999999MA1999999094471MW1381REMSYN076AAXX  29014 06842 41320 824// 11013 2//// 39447 5//// 73822 886// 333 88710;
0167068420999992010012902004+47517+009267FM-12+050699999V02099999999990018019N0020001N1-00111+99999999999ADDAY121999AY221999GA1081+001801071GF108991081061001501999999MA1999999094431MW1101REMSYN076AAXX  29024 06842 41220 824// 11011 2//// 39443 5//// 71022 886// 333 88706;
0167068420999992010012903004+47517+009267FM-12+050699999V02099999999990030019N0020001N1-00111+99999999999ADDAY121031AY221031GA1081+003001071GF108991081061002501999999MA1999999094311MW1101REMSYN076AAXX  29034 06842 41320 821// 11011 2//// 39431 5//// 71022 886// 333 88710;
0167068420999992010012904004+47517+009267FM-12+050699999V02099999999990030019N0020001N1-00081+99999999999ADDAY121999AY221999GA1081+003001071GF108991081061002501999999MA1999999094251MW1101REMSYN076AAXX  29044 06842 41320 823// 11008 2//// 39425 5//// 71022 886// 333 88710;
0173068420999992010012905004+47517+009267FM-12+050699999V0209999999999036001CN0020001N1-00101+99999999999ADDAY121999AY221999GA1011+006001071GF108991011011004501021999MA1999999094151MW1101REMSYN082AAXX  29054 06842 41420 824// 11010 2//// 39415 5//// 71022 8112/ 333 81720 88433;
0208068420999992010012906004+47517+009267FM-12+050699999V02099999999990129019N0010001N1-00131+99999999999ADDAJ100089199999999AY121061AY221061GA1081+012901051GF108991081001012501021999IA1239MA1999999094101MW1701REMSYN094AAXX  29064 06842 41610 823// 11013 2//// 39410 5//// 77022 8802/ 333 47008 88543 90768 93108;
0167068420999992010012907004+47517+009267FM-12+050699999V02099999999990039019N0005001N1-00181+99999999999ADDAY121999AY221999GA1081+003901071GF108991081061004501999999MA1999999094021MW1711REMSYN076AAXX  29074 06842 41405 823// 11018 2//// 39402 5//// 77122 886// 333 88713;
0167068420999992010012908004+47517+009267FM-12+050699999V02099999999990039019N0004001N1-00131+99999999999ADDAY121999AY221999GA1081+003901071GF108991081061004501999999MA1999999093941MW1711REMSYN076AAXX  29084 06842 41404 823// 11013 2//// 39394 5//// 77122 886// 333 88713;
0167068420999992010012909004+47517+009267FM-12+050699999V02099999999990039019N0005001N1-00081+99999999999ADDAY121031AY221031GA1081+003901071GF108991081061004501999999MA1999999093891MW1711REMSYN076AAXX  29094 06842 41405 822// 11008 2//// 39389 5//// 77122 886// 333 88713;
0167068420999992010012910004+47517+009267FM-12+050699999V02099999999990039019N0009001N1-00031+99999999999ADDAY171999AY221999GA1081+003901051GF108991081071004501999999MA1999999093831MW1711REMSYN076AAXX  29104 06842 41409 822// 11003 2//// 39383 5//// 77172 887// 333 88513;
0167068420999992010012911004+47517+009267FM-12+050699999V02099999999990069019N0015001N1+00021+99999999999ADDAY121999AY221999GA1081+006901071GF108991081061008001999999MA1999999093701MW1771REMSYN076AAXX  29114 06842 41515 822// 10002 2//// 39370 5//// 77722 886// 333 88723;
0173068420999992010012912004+47517+009267FM-12+050699999V0209999999999002101CN0025001N1+00111+99999999999ADDAY121061AY221061GA1021+003001071GF108991081061002501999999MA1999999093501MW1101REMSYN082AAXX  29124 06842 41325 822// 10011 2//// 39350 5//// 71022 886// 333 82710 88726;
0173068420999992010012913004+47517+009267FM-12+050699999V0209999999999002101CN0090001N1+00161+99999999999ADDAY121999AY221999GA1011+003001071GF108991081061002501999999MA1999999093301MW1101REMSYN082AAXX  29134 06842 41359 822// 10016 2//// 39330 5//// 71022 886// 333 81710 88726;
0180068420999992010012914004+47517+009267FM-12+050699999V02099999999990069019N0020001N1+00111+99999999999ADDAY171999AY221999GA1081+006901071GF108991081061008001999999MA1999999093211REMSYN076AAXX  29144 06842 41520 822// 10011 2//// 39321 5//// 77872 886// 333 88723;EQDQ01+000782PRSWM1
0180068420999992010012915004+47517+009267FM-12+050699999V02099999999990069019N0015001N1+00031+99999999999ADDAY171031AY221031GA1081+006901071GF108991081071008001999999MA1999999093141REMSYN076AAXX  29154 06842 41515 822// 10003 2//// 39314 5//// 77872 887// 333 88723;EQDQ01+000782PRSWM1
0180068420999992010012916004+47517+009267FM-12+050699999V02099999999990069019N0014001N1+00031+99999999999ADDAY171999AY221999GA1081+006901071GF108991081071008001999999MA1999999093001REMSYN076AAXX  29164 06842 41514 822// 10003 2//// 39300 5//// 77872 887// 333 88723;EQDQ01+000782PRSWM1
0180068420999992010012917004+47517+009267FM-12+050699999V02099999999990060019N0015001N1+00031+99999999999ADDAY171999AY221999GA1081+006001071GF108991081071004501999999MA1999999092931REMSYN076AAXX  29174 06842 41415 823// 10003 2//// 39293 5//// 77872 887// 333 88720;EQDQ01+000782PRSWM1
0221068420999992010012918004+47517+009267FM-12+050699999V02099999999990078019N0018001N1+00041+99999999999ADDAJ100119199999999AY171061AY221061GA1081+007801071GF108991081071008001999999IA1279MA1999999092841REMSYN094AAXX  29184 06842 41518 821// 10004 2//// 39284 5//// 77872 887// 333 43011 88726 90766 93108;EQDQ01+000782PRSWM1
0145068420999992010012919004+47517+009267FM-12+050699999V02099999999990090019N0015001N1+00051+99999999999ADDGA1081+009001071GF108991081071008001999999MA1999999092821REMSYN076AAXX  29194 06842 41515 826// 10005 2//// 39282 5//// 7//72 887// 333 88730;
0180068420999992010012920004+47517+009267FM-12+050699999V02099999999990180019N0012001N1+00031+99999999999ADDAY171999AY221999GA1081+018001051GF108991081071017501999999MA1999999092811REMSYN076AAXX  29204 06842 41712 823// 10003 2//// 39281 5//// 77872 887// 333 88556;EQDQ01+000782PRSWM1
0161068420999992010012921004+47517+009267FM-12+050699999V02099999999990150019N0025001N1+00051+99999999999ADDAY171031AY221031GA1081+015001071GF108991081061012501999999MA1999999092771REMSYN076AAXX  29214 06842 41625 829// 10005 2//// 39277 5//// 77872 886// 333 88750;
0167068420999992010012922004+47517+009267FM-12+050699999V02099999999990120019N0025001N1+00051+99999999999ADDAY171999AY251999GA1081+012001071GF108991081071012501999999MA1999999092751MW1681REMSYN076AAXX  29224 06842 41625 823// 10005 2//// 39275 5//// 76875 887// 333 88740;
0167068420999992010012923004+47517+009267FM-12+050699999V02099999999990120019N0025001N1+00051+99999999999ADDAY161999AY221999GA1081+012001051GF108991081071012501999999MA1999999092741MW1601REMSYN076AAXX  29234 06842 41625 825// 10005 2//// 39274 5//// 76062 887// 333 88540;
0167068420999992010013000004+47517+009267FM-12+050699999V02099999999990060019N0015001N1+00051+99999999999ADDAY171061AY221061GA1081+006001051GF108991081071004501999999MA1999999092801MW1681REMSYN076AAXX  30004 06842 41415 824// 10005 2//// 39280 5//// 76872 887// 333 88520;
0167068420999992010013001004+47517+009267FM-12+050699999V02099999999990069019N0015001N1+00051+99999999999ADDAY171999AY221999GA1081+006901051GF108991081071008001999999MA1999999092861MW1681REMSYN076AAXX  30014 06842 41515 826// 10005 2//// 39286 5//// 76872 887// 333 88523;
0167068420999992010013002004+47517+009267FM-12+050699999V02099999999990039019N0005001N1+00011+99999999999ADDAY171999AY221999GA1081+003901051GF108991081071004501999999MA1999999093041MW1711REMSYN076AAXX  30024 06842 41405 829// 10001 2//// 39304 5//// 77172 887// 333 88513;
0167068420999992010013003004+47517+009267FM-12+050699999V02099999999990039019N0005001N1+00011+99999999999ADDAY151031AY221031GA1081+003901051GF108991081071004501999999MA1999999093151MW1511REMSYN076AAXX  30034 06842 41405 826// 10001 2//// 39315 5//// 75152 887// 333 88513;
0167068420999992010013004004+47517+009267FM-12+050699999V02099999999990039019N0004001N1+00011+99999999999ADDAY171999AY221999GA1081+003901051GF108991081071004501999999MA1999999093211MW1771REMSYN076AAXX  30044 06842 41404 824// 10001 2//// 39321 5//// 77772 887// 333 88513;
0186068420999992010013005004+47517+009267FM-12+050699999V02099999999990030019N0004001N1+00011+99999999999ADDAY171999AY241999GA1081+003001071GF108991081999002501021999MA1999999093261MW1701REMSYN076AAXX  30054 06842 41304 827// 10001 2//// 39326 5//// 77074 8802/ 333 88710;EQDQ01+000002SCOLCG
0208068420999992010013006004+47517+009267FM-12+050699999V02099999999990069019N0015001N1+00011+99999999999ADDAJ100119199999999GA1061+006901041GA2081+045001021GF108991061001008001071071IA1279MA1999999093301REMSYN100AAXX  30064 06842 41515 824// 10001 2//// 39330 5//// 7//74 86077 333 43011 86423 88265 90768 93105;
0195068420999992010013007004+47517+009267FM-12+050699999V02099999999990129019N0025001N1+00011+99999999999ADDAY121999AY221999GA1041+009901041GA2061+012901041GF108991061001008001071071MA1999999093371MW1101REMSYN088AAXX  30074 06842 41525 825// 10001 2//// 39337 5//// 71022 86077 333 84433 86443 88265;
0173068420999992010013008004+47517+009267FM-12+050699999V0209999999999036001CN0030001N1+00011+99999999999ADDAY121999AY221999GA1031+012901061GF108991031011012501021999MA1999999093451MW1101REMSYN082AAXX  30084 06842 41630 826// 10001 2//// 39345 5//// 71022 8312/ 333 83643 88450;
0167068420999992010013009004+47517+009267FM-12+050699999V02099999999990099019N0025001N1-00091+99999999999ADDAY171031AY221031GA1081+009901051GF108991081001008001021999MA1999999093501MW1771REMSYN076AAXX  30094 06842 41525 825// 11009 2//// 39350 5//// 77772 8802/ 333 88533;
0173068420999992010013010004+47517+009267FM-12+050699999V0209999999999036001CN0050001N1-00141+99999999999ADDAY121999AY221999GA1011+004801081GF107991011081004501071999MA1999999093601MW1101REMSYN082AAXX  30104 06842 41450 724// 11014 2//// 39360 5//// 71022 8187/ 333 81816 87433;
0145068420999992010013011004+47517+009267FM-12+050699999V02099999999990150019N0050001N1-00131+99999999999ADDGA1081+015001031GF108991081001012501071999MA1999999093701REMSYN076AAXX  30114 06842 41650 823// 11013 2//// 39370 5//// 7//72 8807/ 333 88350;
0167068420999992010013012004+47517+009267FM-12+050699999V02099999999990030019N0050001N1-00131+99999999999ADDAY171061AY221061GA1071+003001061GF107991071051002501999999MA1999999093641MW1161REMSYN076AAXX  30124 06842 41350 723// 11013 2//// 39364 5//// 71672 875// 333 87610;
0139068420999992010013013004+47517+009267FM-12+050699999V02099999999992200019N0100001N1-00021+99999999999ADDGA1041+003001061GF104991041051002501051999MA1999999093621REMSYN070AAXX  30134 06842 42360 423// 11002 2//// 39362 5//// 8455/ 333 84610;
0139068420999992010013014004+47517+009267FM-12+050699999V02099999999990030019N0150001N1-00071+99999999999ADDGA1061+003001061GF107991061051002501051999MA1999999093661REMSYN070AAXX  30144 06842 42365 722// 11007 2//// 39366 5//// 8655/ 333 86610;
0195068420999992010013015004+47517+009267FM-12+050699999V02099999999990210019N0150001N1-00181+99999999999ADDAY171031AY241031GA1031+003001061GA2031+021001041GF105991031051002501071091MA1999999093681MW1151REMSYN088AAXX  30154 06842 41365 523// 11018 2//// 39368 5//// 71574 83579 333 83610 83457 85168;
0167068420999992010013016004+47517+009267FM-12+050699999V0209999999999090001CN0150001N1-00271+99999999999ADDGA1011+003001081GA2041+021001031GF106991011081002501031061MA1999999093721REMSYN082AAXX  30164 06842 42365 622// 11027 2//// 39372 5//// 81836 333 81810 84357 86168;
0167068420999992010013017004+47517+009267FM-12+050699999V02099999999990099019N0200001N1-00341+99999999999ADDGA1011+003001081GA2061+009901031GF108991011081002501071061MA1999999093801REMSYN082AAXX  30174 06842 42370 824// 11034 2//// 39380 5//// 81876 333 81810 86333 88268;
0208068420999992010013018004+47517+009267FM-12+050699999V02099999999990180019N0030001N1-00361+99999999999ADDAJ100129199999999AY171061AY211061GA1071+018001041GF107991071001017501011999IA1279MA1999999093801MW1701REMSYN094AAXX  30184 06842 41730 725// 11036 2//// 39380 5//// 77071 8701/ 333 43012 87456 90766 93101;
0173068420999992010013019004+47517+009267FM-12+050699999V0209999999999036001CN0030001N1-00381+99999999999ADDAY171999AY241999GA1031+015001071GF107991031071012501071011MA1999999093901MW1711REMSYN082AAXX  30194 06842 41630 723// 11038 2//// 39390 5//// 77174 83771 333 83750 86456;
0145068420999992010013020004+47517+009267FM-12+050699999V02099999999990150019N0025001N1-00411+99999999999ADDGA1071+015001031GF107991071001012501071999MA1999999093971REMSYN076AAXX  30204 06842 41625 724// 11041 2//// 39397 5//// 7//51 8707/ 333 87350;
0167068420999992010013021004+47517+009267FM-12+050699999V02099999999992200019N0025001N1-00541+99999999999ADDAY181031AY271031GA1021+012901081GF104991021011012501071001MA1999999094001MW1101REMSYN076AAXX  30214 06842 41625 424// 11054 2//// 39400 5//// 71087 82170 333 82843;
0167068420999992010013022004+47517+009267FM-12+050699999V02099999999992200019N0025001N1-00531+99999999999ADDAY111999AY211999GA1031+015001031GF103991031001012501041001MA1999999094101MW1101REMSYN076AAXX  30224 06842 41625 325// 11053 2//// 39410 5//// 71011 83040 333 83350;
0145068420999992010013023004+47517+009267FM-12+050699999V02099999999992200019N0025001N1-00511+99999999999ADDGA1031+015001061GF104991041041012501011001MA1999999094131REMSYN076AAXX  30234 06842 41625 420// 11051 2//// 39413 5//// 7//32 84410 333 83650;
0167068420999992010013100004+47517+009267FM-12+050699999V02099999999990180019N0028001N1-00521+99999999999ADDAY131061AY221061GA1071+018001041GF107991071001017501011999MA1999999094141MW1101REMSYN076AAXX  31004 06842 41728 725// 11052 2//// 39414 5//// 71032 8701/ 333 87456;
0167068420999992010013101004+47517+009267FM-12+050699999V02099999999990129019N0018001N1-00471+99999999999ADDAY131999AY221999GA1081+012901071GF108991081061012501999999MA1999999094181MW1781REMSYN076AAXX  31014 06842 41618 826// 11047 2//// 39418 5//// 77832 886// 333 88743;
0151068420999992010013102004+47517+009267FM-12+050699999V02099999999999999999N0020001N1-00471+99999999999ADDGA1021+009001061GF108991021051008001999001MA1999999094251REMSYN082AAXX  31024 06842 41520 823// 11047 2//// 39425 5//// 7//32 825/0 333 82630 88340;
0173068420999992010013103004+47517+009267FM-12+050699999V0209999999999036001CN0024001N1-00501+99999999999ADDAY131031AY221031GA1041+009001061GF107991041051008001011001MA1999999094281MW1101REMSYN082AAXX  31034 06842 41524 726// 11050 2//// 39428 5//// 71032 84510 333 84630 87443;
0167068420999992010013104004+47517+009267FM-12+050699999V02099999999990078019N0750001N1-00481+99999999999ADDAY131999AY221999GA1081+007801071GF108991081061008001001001MA1999999094371MW1781REMSYN076AAXX  31044 06842 41589 826// 11048 2//// 39437 5//// 77832 88600 333 88726;
0167068420999992010013105004+47517+009267FM-12+050699999V02099999999990078019N0010001N1-00541+99999999999ADDAY171999AY241999GA1081+007801041GF108991081001008001051999MA1999999094401MW1711REMSYN076AAXX  31054 06842 41510 824// 11054 2//// 39440 5//// 77174 8805/ 333 88426;
0208068420999992010013106004+47517+009267FM-12+050699999V02099999999992200019N0010001N1-00691+99999999999ADDAJ100119199999999AY171061AY241061GA1031+054001001GF103991001001999999001051IA1279MA1999999094451MW1281REMSYN094AAXX  31064 06842 41910 322// 11069 2//// 39445 5//// 72874 80005 333 43011 83068 90768 93102;
0173068420999992010013107004+47517+009267FM-12+050699999V02099999999992200019N0020001N1-00961+99999999999ADDAY101999AY201999GA1011+012901081GF104991011081012501021091MA1999999094501MW1111REMSYN082AAXX  31074 06842 41620 424// 11096 2//// 39450 5//// 71100 81829 333 81843 83450;
0139068420999992010013108004+47517+009267FM-12+050699999V02099999999992200019N0200001N1-00781+99999999999ADDGA1011+021001041GF104991041001017501041091MA1999999094601REMSYN070AAXX  31084 06842 42770 422// 11078 2//// 39460 5//// 84049 333 81457;
0186068420999992010013109004+47517+009267FM-12+050699999V02099999999999999999N0100001N1-00551+99999999999ADDAY171031AY211031GA1031+021001041GF105991999001017501011001MA1999999094611MW1101REMSYN076AAXX  31094 06842 41760 523// 11055 2//// 39461 5//// 71071 84010 333 83457;EQDQ01+000042SCOTLC
0167068420999992010013110004+47517+009267FM-12+050699999V02099999999990180019N0100001N1-00351+99999999999ADDAY111999AY211999GA1071+018001031GF107991071001017501041001MA1999999094631MW1101REMSYN076AAXX  31104 06842 41760 722// 11035 2//// 39463 5//// 71011 87040 333 87356;
0173068420999992010013111004+47517+009267FM-12+050699999V02099999999990360019N0100001N1-00251+99999999999ADDAY111999AY211999GA1011+003901061GF107991011041004501011001MA1999999094671MW1361REMSYN082AAXX  31114 06842 41460 725// 11025 2//// 39467 5//// 73611 81410 333 81613 87462;
0167068420999992010013112004+47517+009267FM-12+050699999V02099999999990039019N0030001N1-00321+99999999999ADDAY171061AY211061GA1081+003901071GF108991081071004501999999MA1999999094721MW1721REMSYN076AAXX  31124 06842 41430 826// 11032 2//// 39472 5//// 77271 887// 333 88713;
0167068420999992010013113004+47517+009267FM-12+050699999V02099999999990048019N0100001N1-00271+99999999999ADDAY171999AY231999GA1081+004801071GF108991081071004501999999MA1999999094701MW1381REMSYN076AAXX  31134 06842 41460 824// 11027 2//// 39470 5//// 73873 887// 333 88716;
0167068420999992010013114004+47517+009267FM-12+050699999V02099999999990048019N0050001N1-00301+99999999999ADDAY171999AY231999GA1081+004801071GF108991081061004501999999MA1999999094741MW1781REMSYN076AAXX  31144 06842 41450 825// 11030 2//// 39474 5//// 77873 886// 333 88716;
0167068420999992010013115004+47517+009267FM-12+050699999V02099999999990039019N0030001N1-00331+99999999999ADDAY171031AY271031GA1081+003901071GF108991081071004501999999MA1999999094801MW1721REMSYN076AAXX  31154 06842 41430 823// 11033 2//// 39480 5//// 77277 887// 333 88713;
0167068420999992010013116004+47517+009267FM-12+050699999V02099999999990039019N0030001N1-00351+99999999999ADDAY171999AY231999GA1081+003901071GF108991081071004501999999MA1999999094831MW1731REMSYN076AAXX  31164 06842 41430 824// 11035 2//// 39483 5//// 77373 887// 333 88713;
0167068420999992010013117004+47517+009267FM-12+050699999V02099999999990039019N0025001N1-00381+99999999999ADDAY171999AY231999GA1081+003901071GF108991081071004501999999MA1999999094901MW1721REMSYN076AAXX  31174 06842 41425 825// 11038 2//// 39490 5//// 77273 887// 333 88713;
0208068420999992010013118004+47517+009267FM-12+050699999V02099999999990039019N0025001N1-00411+99999999999ADDAJ100159199999999AY171061AY231061GA1081+003901071GF108991081071004501999999IA1239MA1999999094951MW1361REMSYN094AAXX  31184 06842 41425 823// 11041 2//// 39495 5//// 73673 887// 333 47015 88713 90766 93101;
0167068420999992010013119004+47517+009267FM-12+050699999V02099999999990039019N0030001N1-00411+99999999999ADDAY171999AY221999GA1081+003901071GF108991081071004501999999MA1999999095021MW1721REMSYN076AAXX  31194 06842 41430 825// 11041 2//// 39502 5//// 77272 887// 333 88713;
0167068420999992010013120004+47517+009267FM-12+050699999V02099999999990030019N0025001N1-00421+99999999999ADDAY171999AY221999GA1081+003001071GF108991081071002501999999MA1999999095051MW1101REMSYN076AAXX  31204 06842 41325 822// 11042 2//// 39505 5//// 71072 887// 333 88710;
0167068420999992010013121004+47517+009267FM-12+050699999V02099999999990030019N0025001N1-00371+99999999999ADDAY171031AY221031GA1081+003001071GF108991081071002501999999MA1999999095081MW1701REMSYN076AAXX  31214 06842 41325 823// 11037 2//// 39508 5//// 77072 887// 333 88710;
0167068420999992010013122004+47517+009267FM-12+050699999V02099999999990039019N0030001N1-00411+99999999999ADDAY121999AY221999GA1081+003901071GF108991081071004501999999MA1999999095111MW1101REMSYN076AAXX  31224 06842 41430 825// 11041 2//// 39511 5//// 71022 887// 333 88713;
0167068420999992010013123004+47517+009267FM-12+050699999V02099999999990048019N0030001N1-00441+99999999999ADDAY121999AY221999GA1081+004801071GF108991081071004501999999MA1999999095131MW1081REMSYN076AAXX  31234 06842 41430 823// 11044 2//// 39513 5//// 70822 887// 333 88716;
0139068420999992010020100004+47517+009267FM-12+050699999V02099999999990069019N0030001N1-00411+99999999999ADDGA1081+006901071GF108991081071008001999999MA1999999095121REMSYN070AAXX  01004 06842 42530 825// 11041 2//// 39512 5//// 887// 333 88723;
0139068420999992010020101004+47517+009267FM-12+050699999V02099999999990060019N0030001N1-00451+99999999999ADDGA1081+006001071GF108991081061004501999999MA1999999095141REMSYN070AAXX  01014 06842 42430 819// 11045 2//// 39514 5//// 886// 333 88720;
0139068420999992010020102004+47517+009267FM-12+050699999V02099999999990048019N0032001N1-00521+99999999999ADDGA1081+004801071GF108991081061004501999999MA1999999095161REMSYN070AAXX  01024 06842 42432 825// 11052 2//// 39516 5//// 886// 333 88716;
0139068420999992010020103004+47517+009267FM-12+050699999V02099999999990060019N0030001N1-00441+99999999999ADDGA1081+006001071GF108991081061004501999999MA1999999095141REMSYN070AAXX  01034 06842 42430 827// 11044 2//// 39514 5//// 886// 333 88720;
0139068420999992010020104004+47517+009267FM-12+050699999V02099999999990048019N0040001N1-00591+99999999999ADDGA1061+004801071GF106991061061004501001001MA1999999095141REMSYN070AAXX  01044 06842 42440 623// 11059 2//// 39514 5//// 86600 333 86716;
0167068420999992010020105004+47517+009267FM-12+050699999V02099999999990078019N0045001N1-00601+99999999999ADDAY121999AY221999GA1061+007801061GF106991061051008001999999MA1999999095151MW1101REMSYN076AAXX  01054 06842 41545 622// 11060 2//// 39515 5//// 71022 865// 333 86626;
0208068420999992010020106004+47517+009267FM-12+050699999V02099999999990090019N0045001N1-00461+99999999999ADDAJ101709199999999AY121061AY221061GA1071+009001071GF107991071061008001999999IA1239MA1999999095201MW1101REMSYN094AAXX  01064 06842 41545 725// 11046 2//// 39520 5//// 71022 876// 333 47170 87730 90768 93110;
0167068420999992010020107004+47517+009267FM-12+050699999V02099999999990099019N0080001N1-00471+99999999999ADDAY121999AY221999GA1071+009901071GF107991071061008001999999MA1999999095251MW1101REMSYN076AAXX  01074 06842 41558 724// 11047 2//// 39525 5//// 71022 876// 333 87733;
0139068420999992010020108004+47517+009267FM-12+050699999V02099999999990099019N0200001N1-00541+99999999999ADDGA1061+009901061GF106991061051008001001001MA1999999095321REMSYN070AAXX  01084 06842 42570 625// 11054 2//// 39532 5//// 86500 333 86633;
0139068420999992010020109004+47517+009267FM-12+050699999V02099999999990099019N0150001N1-00501+99999999999ADDGA1061+009901061GF106991061051008001001001MA1999999095331REMSYN070AAXX  01094 06842 42565 622// 11050 2//// 39533 5//// 86500 333 86633;
0167068420999992010020110004+47517+009267FM-12+050699999V02099999999990078019N0080001N1-00501+99999999999ADDAY121999AY221999GA1071+007801061GF107991071051008001001001MA1999999095351MW1101REMSYN076AAXX  01104 06842 41558 724// 11050 2//// 39535 5//// 71022 87500 333 87626;
0167068420999992010020111004+47517+009267FM-12+050699999V02099999999990099019N0300001N1-00261+99999999999ADDGA1021+001801061GA2071+009901031GF108991021011001501071021MA1999999095321REMSYN082AAXX  01114 06842 42280 824// 11026 2//// 39532 5//// 82172 333 82606 87333 88072;
0145068420999992010020112004+47517+009267FM-12+050699999V0209999999999036001CN0200001N1-00161+99999999999ADDGA1011+001801081GF108991011011001501071999MA1999999095321REMSYN076AAXX  01124 06842 42270 824// 11016 2//// 39532 5//// 8117/ 333 81806 88333;
0145068420999992010020113004+47517+009267FM-12+050699999V0209999999999036001CN0300001N1-00191+99999999999ADDGA1021+003901061GF108991021051004501021999MA1999999095271REMSYN076AAXX  01134 06842 42480 824// 11019 2//// 39527 5//// 8252/ 333 82613 88757;
0139068420999992010020114004+47517+009267FM-12+050699999V02099999999990180019N0280001N1-00211+99999999999ADDGA1081+018001071GF108991081071017501999999MA1999999095301REMSYN070AAXX  01144 06842 42778 825// 11021 2//// 39530 5//// 887// 333 88756;
0167068420999992010020115004+47517+009267FM-12+050699999V02099999999990150019N0170001N1-00221+99999999999ADDAY121031AY221031GA1081+015001071GF108991081071012501999999MA1999999095331MW1781REMSYN076AAXX  01154 06842 41667 825// 11022 2//// 39533 5//// 77822 887// 333 88750;
0167068420999992010020116004+47517+009267FM-12+050699999V02099999999990069019N0015001N1-00371+99999999999ADDAY171999AY221999GA1081+006901071GF108991081071008001999999MA1999999095411MW1721REMSYN076AAXX  01164 06842 41515 823// 11037 2//// 39541 5//// 77272 887// 333 88723;
0167068420999992010020117004+47517+009267FM-12+050699999V02099999999990060019N0013001N1-00351+99999999999ADDAY171999AY221999GA1081+006001071GF108991081061004501999999MA1999999095501MW1781REMSYN076AAXX  01174 06842 41413 822// 11035 2//// 39550 5//// 77872 886// 333 88720;
0208068420999992010020118004+47517+009267FM-12+050699999V02099999999990060019N0012001N1-00331+99999999999ADDAJ100119199999999AY181061AY221061GA1081+006001071GF108991081061004501999999IA1239MA1999999095501MW1711REMSYN094AAXX  01184 06842 41412 823// 11033 2//// 39550 5//// 77182 886// 333 47011 88720 90766 93103;
0167068420999992010020119004+47517+009267FM-12+050699999V02099999999990150019N0025001N1-00281+99999999999ADDAY121999AY221999GA1081+015001071GF108991081061012501999999MA1999999095601MW1101REMSYN076AAXX  01194 06842 41625 823// 11028 2//// 39560 5//// 71022 886// 333 88750;
0167068420999992010020120004+47517+009267FM-12+050699999V02099999999990150019N0035001N1-00251+99999999999ADDAY121999AY221999GA1081+015001071GF108991081061012501999999MA1999999095601MW1101REMSYN076AAXX  01204 06842 41635 822// 11025 2//// 39560 5//// 71022 886// 333 88750;
0167068420999992010020121004+47517+009267FM-12+050699999V02099999999990150019N0050001N1-00221+99999999999ADDAY121031AY221031GA1081+015001071GF108991081061012501999999MA1999999095701MW1101REMSYN076AAXX  01214 06842 41650 823// 11022 2//// 39570 5//// 71022 886// 333 88750;
0167068420999992010020122004+47517+009267FM-12+050699999V02099999999990129019N0030001N1-00211+99999999999ADDAY171999AY221999GA1081+012901071GF108991081061012501999999MA1999999095701MW1701REMSYN076AAXX  01224 06842 41630 823// 11021 2//// 39570 5//// 77072 886// 333 88743;
0145068420999992010020200004+47517+009267FM-12+050699999V0209999999999036001CN0150001N1-00191+99999999999ADDGA1011+003001081GF108991011011002501021999MA1999999095821REMSYN076AAXX  02004 06842 42365 825// 11019 2//// 39582 5//// 8112/ 333 81810 88457;
0145068420999992010020201004+47517+009267FM-12+050699999V0209999999999036001CN0150001N1-00211+99999999999ADDGA1021+001801081GF108991021011001501021999MA1999999095821REMSYN076AAXX  02014 06842 42265 824// 11021 2//// 39582 5//// 8212/ 333 82806 88458;
0139068420999992010020202004+47517+009267FM-12+050699999V02099999999990210019N0100001N1-00231+99999999999ADDGA1081+021001041GF108991081001017501021999MA1999999095911REMSYN070AAXX  02024 06842 42760 824// 11023 2//// 39591 5//// 8802/ 333 88457;
0145068420999992010020203004+47517+009267FM-12+050699999V0209999999999036001CN0150001N1-00241+99999999999ADDGA1011+003001081GF108991011011002501021999MA1999999095961REMSYN076AAXX  02034 06842 42365 824// 11024 2//// 39596 5//// 8112/ 333 81810 88457;
0145068420999992010020204004+47517+009267FM-12+050699999V0209999999999036001CN0150001N1-00241+99999999999ADDGA1011+003001081GF108991011011002501021999MA1999999095981REMSYN076AAXX  02044 06842 42365 824// 11024 2//// 39598 5//// 8112/ 333 81810 88457;
0145068420999992010020205004+47517+009267FM-12+050699999V0209999999999036001CN0150001N1-00191+99999999999ADDGA1011+001801081GF108991011011001501021999MA1999999095981REMSYN076AAXX  02054 06842 42265 823// 11019 2//// 39598 5//// 8112/ 333 81806 88458;
0202068420999992010020206004+47517+009267FM-12+050699999V02099999999990600019N0150001N1-00251+99999999999ADDAJ100099199999999GA1041+042001031GA2051+060001011GF105991041001999999031011IA1239MA1999999095991REMSYN094AAXX  02064 06842 42965 523// 11025 2//// 39599 5//// 84031 333 47009 84364 85170 90768 93106;
0167068420999992010020207004+47517+009267FM-12+050699999V02099999999990420019N0150001N1-00321+99999999999ADDGA1031+009901061GA2051+042001031GF106991031051008001031011MA1999999096001REMSYN082AAXX  02074 06842 42565 623// 11032 2//// 39600 5//// 83531 333 83633 85364 86170;
0145068420999992010020208004+47517+009267FM-12+050699999V0209999999999007501CN0200001N1-00301+99999999999ADDGA1041+007801061GF106991061011008001001021MA1999999096001REMSYN076AAXX  02084 06842 42570 621// 11030 2//// 39600 5//// 86102 333 84626 86064;
0167068420999992010020209004+47517+009267FM-12+050699999V02099999999990150019N0200001N1-00191+99999999999ADDGA1041+009901061GA2041+015001031GF106991051011008001031021MA1999999095991REMSYN082AAXX  02094 06842 42570 620// 11019 2//// 39599 5//// 85132 333 84633 84350 86070;
0164068420999992010020210004+47517+009267FM-12+050699999V0209999999999012001CN0200001N1+00011+99999999999ADDGA1041+012001061GF106991061999012501031021MA1999999095961REMSYN076AAXX  02104 06842 42670 623// 10001 2//// 39596 5//// 86032 333 84640 86064;EQDQ01+000002SCOLCG
0145068420999992010020211004+47517+009267FM-12+050699999V02099999999990150019N0200001N1+00141+99999999999ADDGA1051+015001061GF106991051051012501051001MA1999999095911REMSYN076AAXX  02114 06842 42670 624// 10014 2//// 39591 5//// 85550 333 85650 86365;
0145068420999992010020212004+47517+009267FM-12+050699999V02099999999990120019N0200001N1+00101+99999999999ADDGA1071+012001061GF107991071051012501051001MA1999999095801REMSYN076AAXX  02124 06842 42670 724// 10010 2//// 39580 5//// 87550 333 87640 86364;
