0152068490999992011012414004+47233+009500FM-12+043699999V02099999999990150019N0080001N1+99999+99999999999ADDAY121999AY221999GA1081+015001071GF108991081061017501999999MW1051REMSYN076AAXX  24144 06849 41758 8//// 1//// 2//// 3//// 5//// 70522 886// 333 88750;
0152068490999992011012415004+47233+009500FM-12+043699999V02099999999990150019N0080001N1+99999+99999999999ADDAY121031AY221031GA1081+015001071GF108991081061017501999999MW1051REMSYN076AAXX  24154 06849 41758 8//// 1//// 2//// 3//// 5//// 70522 886// 333 88750;
0158068490999992011012416004+47233+009500FM-12+043699999V0209999999999012001CN0060001N1+99999+99999999999ADDAY121999AY221999GA1021+010501071GF108991081061012501999999MW1051REMSYN082AAXX  24164 06849 41656 8//// 1//// 2//// 3//// 5//// 70522 886// 333 82735 88750;
0158068490999992011012417004+47233+009500FM-12+043699999V0209999999999012001CN0060001N1+99999+99999999999ADDAY121999AY221999GA1011+013501071GF108991081061012501999999MW1051REMSYN082AAXX  24174 06849 41656 8//// 1//// 2//// 3//// 5//// 70522 886// 333 81745 88756;
0186068490999992011012418004+47233+009500FM-12+043699999V02099999999990150019N0100001N1+99999+99999999999ADDAL10600091AY121061AY221061GA1081+015001071GF108991081061017501999999IA1149MW1051REMSYN094AAXX  24184 06849 41760 8//// 1//// 2//// 3//// 5//// 70522 886// 333 34/// 88750 90766 93100;
0152068490999992011012419004+47233+009500FM-12+043699999V02099999999990150019N0100001N1+99999+99999999999ADDAY121999AY221999GA1081+015001071GF108991081061017501999999MW1101REMSYN076AAXX  24194 06849 41760 8//// 1//// 2//// 3//// 5//// 71022 886// 333 88750;
0152068490999992011012420004+47233+009500FM-12+043699999V02099999999990135019N0080001N1+99999+99999999999ADDAY121999AY221999GA1081+013501071GF108991081061012501999999MW1101REMSYN076AAXX  24204 06849 41658 8//// 1//// 2//// 3//// 5//// 71022 886// 333 88745;
0152068490999992011012421004+47233+009500FM-12+043699999V02099999999990135019N0080001N1+99999+99999999999ADDAY171031AY221031GA1081+013501051GF108991081001012501021999MW1701REMSYN076AAXX  24214 06849 41658 8//// 1//// 2//// 3//// 5//// 77072 8802/ 333 88545;
0124068490999992011012503004+47233+009500FM-12+043699999V02099999999990450019N0200001N1+99999+99999999999ADDGA1051+045001031GF105991051001999999031001REMSYN070AAXX  25034 06849 42970 5//// 1//// 2//// 3//// 5//// 85030 333 85365;
0152068490999992011012504004+47233+009500FM-12+043699999V02099999999990270019N0140001N1+99999+99999999999ADDAY121999AY221999GA1071+027001041GF107991071001999999011001MW1101REMSYN076AAXX  25044 06849 41964 7//// 1//// 2//// 3//// 5//// 71022 87010 333 87459;
0152068490999992011012505004+47233+009500FM-12+043699999V02099999999990270019N0140001N1+99999+99999999999ADDAY121999AY221999GA1081+027001041GF108991081001999999011999MW1101REMSYN076AAXX  25054 06849 41964 8//// 1//// 2//// 3//// 5//// 71022 8801/ 333 88459;
0244068490999992011012506004+47233+009500FM-12+043699999V02099999999990270019N0100001N1+99999+99999999999ADDAJ199992999999999AL10600091AY121061AY221061GA1011+000151071GA2081+027001041GF108991011061000251021999IA1219MW1101REMSYN100AAXX  25064 06849 41060 8//// 1//// 2//// 3//// 5//// 71022 8162/ 333 45998 81700 88459 90768 93100;EQDQ01  09982SNDP  
0152068490999992011012507004+47233+009500FM-12+043699999V02099999999990270019N0100001N1+99999+99999999999ADDAY121999AY221999GA1081+027001031GF108991081001999999071999MW1101REMSYN076AAXX  25074 06849 41960 8//// 1//// 2//// 3//// 5//// 71022 8807/ 333 88359;
0158068490999992011012508004+47233+009500FM-12+043699999V0209999999999045001CN0120001N1+99999+99999999999ADDAY121999AY221999GA1011+005701081GF108991011011004501071999MW1101REMSYN082AAXX  25084 06849 41462 8//// 1//// 2//// 3//// 5//// 71022 8117/ 333 81819 88359;
0152068490999992011012509004+47233+009500FM-12+043699999V02099999999990270019N0100001N1+99999+99999999999ADDAY121031AY221031GA1081+027001031GF108991081001999999071999MW1101REMSYN076AAXX  25094 06849 41960 8//// 1//// 2//// 3//// 5//// 71022 8807/ 333 88359;
0124068490999992011012510004+47233+009500FM-12+043699999V02099999999990057019N0100001N1+99999+99999999999ADDGA1071+005701061GF107991071051004501999999REMSYN070AAXX  25104 06849 42460 7//// 1//// 2//// 3//// 5//// 875// 333 87619;
0124068490999992011012511004+47233+009500FM-12+043699999V02099999999990150019N0120001N1+99999+99999999999ADDGA1081+015001071GF108991081061017501999999REMSYN070AAXX  25114 06849 42762 8//// 1//// 2//// 3//// 5//// 886// 333 88750;
0124068490999992011012512004+47233+009500FM-12+043699999V02099999999990135019N0120001N1+99999+99999999999ADDGA1071+013501071GF107991071061012501999999REMSYN070AAXX  25124 06849 42662 7//// 1//// 2//// 3//// 5//// 876// 333 87745;
0130068490999992011012513004+47233+009500FM-12+043699999V0209999999999004201CN0120001N1+99999+99999999999ADDGA1011+003601071GF106991061011004501001001REMSYN076AAXX  25134 06849 42462 6//// 1//// 2//// 3//// 5//// 86100 333 81712 86850;
0130068490999992011012514004+47233+009500FM-12+043699999V02099999999992200019N0160001N1+99999+99999999999ADDGA1011+003601071GF104991041041004501001091REMSYN076AAXX  25144 06849 42466 4//// 1//// 2//// 3//// 5//// 84409 333 81712 84650;
0124068490999992011012515004+47233+009500FM-12+043699999V02099999999990036019N0160001N1+99999+99999999999ADDGA1061+003601061GF106991061051004501061001REMSYN070AAXX  25154 06849 42466 6//// 1//// 2//// 3//// 5//// 86560 333 86612;
0152068490999992011012516004+47233+009500FM-12+043699999V02099999999990150019N0140001N1+99999+99999999999ADDAY121999AY221999GA1071+015001061GF107991071051017501999999MW1051REMSYN076AAXX  25164 06849 41764 7//// 1//// 2//// 3//// 5//// 70522 875// 333 87650;
0124068490999992011012517004+47233+009500FM-12+043699999V02099999999990180019N9999999N1+99999+99999999999ADDGA1081+018001071GF108991081051017501999999REMSYN070AAXX  25174 06849 427// 8//// 1//// 2//// 3//// 5//// 885// 333 88756;
0152068490999992011012519004+47233+009500FM-12+043699999V02099999999990180019N0160001N1+99999+99999999999ADDAY171999AY221999GA1081+018001051GF108991081001017501021999MW1701REMSYN076AAXX  25194 06849 41766 8//// 1//// 2//// 3//// 5//// 77072 8802/ 333 88556;
0152068490999992011012520004+47233+009500FM-12+043699999V02099999999990180019N0100001N1+99999+99999999999ADDAY171999AY221999GA1081+018001051GF108991081001017501021999MW1731REMSYN076AAXX  25204 06849 41760 8//// 1//// 2//// 3//// 5//// 77372 8802/ 333 88556;
0152068490999992011012521004+47233+009500FM-12+043699999V02099999999990180019N0080001N1+99999+99999999999ADDAY171031AY221031GA1081+018001051GF108991081001017501021999MW1711REMSYN076AAXX  25214 06849 41758 8//// 1//// 2//// 3//// 5//// 77172 8802/ 333 88556;
0152068490999992011012603004+47233+009500FM-12+043699999V02099999999990105019N0100001N1+99999+99999999999ADDAY171031AY221031GA1081+010501051GF108991081001012501021999MW1701REMSYN076AAXX  26034 06849 41660 8//// 1//// 2//// 3//// 5//// 77072 8802/ 333 88535;
0158068490999992011012604004+47233+009500FM-12+043699999V0209999999999004201CN0080001N1+99999+99999999999ADDAY121999AY221999GA1021+005701061GF108991081071004501999999MW1101REMSYN082AAXX  26044 06849 41458 8//// 1//// 2//// 3//// 5//// 71022 887// 333 82619 88756;
0158068490999992011012605004+47233+009500FM-12+043699999V0209999999999004201CN0080001N1+99999+99999999999ADDAY121999AY221999GA1021+005701061GF108991081071004501999999MW1101REMSYN082AAXX  26054 06849 41458 8//// 1//// 2//// 3//// 5//// 71022 887// 333 82619 88750;
0203068490999992011012606004+47233+009500FM-12+043699999V02099999999990150019N0080001N1+99999+99999999999ADDAJ100019199999999AL10600191AY121061AY221061GA1081+015001061GF108991081051017501999999IA1239MW1101REMSYN094AAXX  26064 06849 41758 8//// 1//// 2//// 3//// 5//// 71022 885// 333 47001 88650 90768 93101;
0158068490999992011012607004+47233+009500FM-12+043699999V0209999999999004201CN0080001N1+99999+99999999999ADDAY121999AY221999GA1021+004501061GF108991081061004501999999MW1101REMSYN082AAXX  26074 06849 41458 8//// 1//// 2//// 3//// 5//// 71022 886// 333 82615 88756;
0158068490999992011012608004+47233+009500FM-12+043699999V0209999999999001201CN0080001N1+99999+99999999999ADDAY121999AY221999GA1031+001501061GF108991071061001501001011MW1101REMSYN082AAXX  26084 06849 41258 8//// 1//// 2//// 3//// 5//// 71022 87601 333 83605 87745;
0158068490999992011012609004+47233+009500FM-12+043699999V0209999999999004201CN0060001N1+99999+99999999999ADDAY171031AY221031GA1021+003601061GF108991081061004501999999MW1701REMSYN082AAXX  26094 06849 41456 8//// 1//// 2//// 3//// 5//// 77072 886// 333 82612 88745;
0158068490999992011012610004+47233+009500FM-12+043699999V0209999999999004201CN0080001N1+99999+99999999999ADDAY121999AY221999GA1011+005701061GF108991081061004501999999MW1101REMSYN082AAXX  26104 06849 41458 8//// 1//// 2//// 3//// 5//// 71022 886// 333 81619 88750;
0158068490999992011012611004+47233+009500FM-12+043699999V0209999999999012001CN0080001N1+99999+99999999999ADDAY121999AY221999GA1011+010501061GF108991081061012501999999MW1101REMSYN082AAXX  26114 06849 41658 8//// 1//// 2//// 3//// 5//// 71022 886// 333 81635 88750;
0130068490999992011012612004+47233+009500FM-12+043699999V0209999999999002101CN0200001N1+99999+99999999999ADDGA1011+002701061GF108991081061002501999999REMSYN076AAXX  26124 06849 42370 8//// 1//// 2//// 3//// 5//// 886// 333 81609 88750;
0130068490999992011012613004+47233+009500FM-12+043699999V0209999999999002101CN0200001N1+99999+99999999999ADDGA1011+002701061GF108991081061002501999999REMSYN076AAXX  26134 06849 42370 8//// 1//// 2//// 3//// 5//// 886// 333 81609 88750;
0130068490999992011012614004+47233+009500FM-12+043699999V0209999999999002101CN0200001N1+99999+99999999999ADDGA1011+002701061GF108991081061002501999999REMSYN076AAXX  26144 06849 42370 8//// 1//// 2//// 3//// 5//// 886// 333 81609 88750;
0124068490999992011012615004+47233+009500FM-12+043699999V02099999999990240019N0200001N1+99999+99999999999ADDGA1071+024001041GF107991071001022501071021REMSYN070AAXX  26154 06849 42870 7//// 1//// 2//// 3//// 5//// 87072 333 87458;
0130068490999992011012616004+47233+009500FM-12+043699999V02099999999990270019N0200001N1+99999+99999999999ADDGA1061+027001031GF108991061001999999071011REMSYN076AAXX  26164 06849 42970 8//// 1//// 2//// 3//// 5//// 86071 333 86359 88075;
0130068490999992011012617004+47233+009500FM-12+043699999V02099999999999999999N0160001N1+99999+99999999999ADDGA1041+027001031GF108991041001999999071071REMSYN076AAXX  26174 06849 42966 8//// 1//// 2//// 3//// 5//// 84077 333 84359 88275;
0158068490999992011012618004+47233+009500FM-12+043699999V02099999999992200019N0160001N1+99999+99999999999ADDAL10600091GA1041+027001031GF104991041001999999071001IA1099REMSYN088AAXX  26184 06849 42966 4//// 1//// 2//// 3//// 5//// 84070 333 31/// 84359 90766 93100;
0124068490999992011012619004+47233+009500FM-12+043699999V02099999999992200019N0100001N1+99999+99999999999ADDGA1031+010501061GF103991031051012501001001REMSYN070AAXX  26194 06849 42660 3//// 1//// 2//// 3//// 5//// 83500 333 83635;
0152068490999992011012620004+47233+009500FM-12+043699999V02099999999992200019N0100001N1+99999+99999999999ADDAY101999AY201999GA1041+013501071GF104991041061012501001001MW1101REMSYN076AAXX  26204 06849 41660 4//// 1//// 2//// 3//// 5//// 71000 84600 333 84745;
0136068490999992011012621004+47233+009500FM-12+043699999V02099999999992200019N0080001N1+99999+99999999999ADDAY101031AY201031GA1001+999999999GF100991001001999999001001MW1101REMSYN060AAXX  26214 06849 41958 0//// 1//// 2//// 3//// 5//// 71000;
0136068490999992011012703004+47233+009500FM-12+043699999V02099999999992200019N0080001N1+99999+99999999999ADDAY101031AY201031GA1001+999999999GF100991001001999999001001MW1101REMSYN060AAXX  27034 06849 41958 0//// 1//// 2//// 3//// 5//// 71000;
0136068490999992011012704004+47233+009500FM-12+043699999V02099999999992200019N0070001N1+99999+99999999999ADDAY101999AY201999GA1001+999999999GF100991001001999999001001MW1101REMSYN060AAXX  27044 06849 41957 0//// 1//// 2//// 3//// 5//// 71000;
0136068490999992011012705004+47233+009500FM-12+043699999V02099999999992200019N0090001N1+99999+99999999999ADDAY101999AY201999GA1001+999999999GF100991001001999999001001MW1101REMSYN060AAXX  27054 06849 41959 0//// 1//// 2//// 3//// 5//// 71000;
0174068490999992011012706004+47233+009500FM-12+043699999V02099999999992200019N0090001N1+99999+99999999999ADDAL10600091AY101061AY201061GA1001+999999999GF100991001001999999001001IA1149MW1101REMSYN082AAXX  27064 06849 41959 0//// 1//// 2//// 3//// 5//// 71000 333 34/// 90768 93100;
0152068490999992011012707004+47233+009500FM-12+043699999V02099999999992200019N0100001N1+99999+99999999999ADDAY101999AY201999GA1011+011701081GF102991011041012501041001MW1101REMSYN076AAXX  27074 06849 41660 2//// 1//// 2//// 3//// 5//// 71000 81440 333 81839;
0124068490999992011012708004+47233+009500FM-12+043699999V02099999999992200019N0200001N1+99999+99999999999ADDGA1031+027001031GF103991031001999999041001REMSYN070AAXX  27084 06849 42970 3//// 1//// 2//// 3//// 5//// 83040 333 83359;
0124068490999992011012709004+47233+009500FM-12+043699999V02099999999992200019N0200001N1+99999+99999999999ADDGA1021+030001001GF102991001001999999001011REMSYN070AAXX  27094 06849 42970 2//// 1//// 2//// 3//// 5//// 80001 333 82060;
0124068490999992011012710004+47233+009500FM-12+043699999V02099999999992200019N0200001N1+99999+99999999999ADDGA1021+030001001GF102991001001999999001011REMSYN070AAXX  27104 06849 42970 2//// 1//// 2//// 3//// 5//// 80001 333 82060;
0158068490999992011012711004+47233+009500FM-12+043699999V02099999999992200019N0150001N1+99999+99999999999ADDAY101999AY201999GA1021+002701061GF103991021051002501001021MW1101REMSYN082AAXX  27114 06849 41365 3//// 1//// 2//// 3//// 5//// 71000 82502 333 82609 83060;
0124068490999992011012712004+47233+009500FM-12+043699999V02099999999992200019N0200001N1+99999+99999999999ADDGA1011+015001061GF101991011041017501001001REMSYN070AAXX  27124 06849 42770 1//// 1//// 2//// 3//// 5//// 81400 333 81650;
0152068490999992011012713004+47233+009500FM-12+043699999V02099999999992200019N0150001N1+99999+99999999999ADDAY101999AY201999GA1011+013501061GF101991011041012501001001MW1051REMSYN076AAXX  27134 06849 41665 1//// 1//// 2//// 3//// 5//// 70500 81400 333 81645;
0152068490999992011012714004+47233+009500FM-12+043699999V02099999999990096019N0100001N1+99999+99999999999ADDAY111999AY211999GA1051+009601061GF105991051041008001001001MW1051REMSYN076AAXX  27144 06849 41560 5//// 1//// 2//// 3//// 5//// 70511 85400 333 85632;
0152068490999992011012715004+47233+009500FM-12+043699999V02099999999990096019N0100001N1+99999+99999999999ADDAY111031AY211031GA1071+009601061GF107991071041008001999999MW1101REMSYN076AAXX  27154 06849 41560 7//// 1//// 2//// 3//// 5//// 71011 874// 333 87632;
0152068490999992011012716004+47233+009500FM-12+043699999V02099999999990117019N0090001N1+99999+99999999999ADDAY121999AY221999GA1071+011701061GF107991071041012501999999MW1101REMSYN076AAXX  27164 06849 41659 7//// 1//// 2//// 3//// 5//// 71022 874// 333 87639;
0152068490999992011012717004+47233+009500FM-12+043699999V02099999999990105019N0090001N1+99999+99999999999ADDAY121999AY221999GA1081+010501061GF108991081041012501999999MW1101REMSYN076AAXX  27174 06849 41659 8//// 1//// 2//// 3//// 5//// 71022 884// 333 88635;
0186068490999992011012718004+47233+009500FM-12+043699999V0209999999999012001CN0090001N1+99999+99999999999ADDAL10600091AY121061AY221061GA1041+011701061GF108991081041012501999999IA1099MW1101REMSYN094AAXX  27184 06849 41659 8//// 1//// 2//// 3//// 5//// 71022 884// 333 31/// 84639 90766 93100;
0152068490999992011012719004+47233+009500FM-12+043699999V02099999999990045019N0080001N1+99999+99999999999ADDAY121999AY221999GA1081+004501071GF108991081061004501999999MW1101REMSYN076AAXX  27194 06849 41458 8//// 1//// 2//// 3//// 5//// 71022 886// 333 88715;
0152068490999992011012720004+47233+009500FM-12+043699999V02099999999990150019N0090001N1+99999+99999999999ADDAY121999AY221999GA1081+015001071GF108991081061017501999999MW1101REMSYN076AAXX  27204 06849 41759 8//// 1//// 2//// 3//// 5//// 71022 886// 333 88750;
0152068490999992011012721004+47233+009500FM-12+043699999V02099999999990150019N0060001N1+99999+99999999999ADDAY121031AY221031GA1081+015001071GF108991081061017501999999MW1101REMSYN076AAXX  27214 06849 41756 8//// 1//// 2//// 3//// 5//// 71022 886// 333 88750;
0136068490999992011012803004+47233+009500FM-12+043699999V02099999999992200019N0100001N1+99999+99999999999ADDAY101031AY201031GA1001+999999999GF100991001001999999001001MW1101REMSYN060AAXX  28034 06849 41960 0//// 1//// 2//// 3//// 5//// 71000;
0136068490999992011012804004+47233+009500FM-12+043699999V02099999999992200019N0100001N1+99999+99999999999ADDAY101999AY201999GA1001+999999999GF100991001001999999001001MW1101REMSYN060AAXX  28044 06849 41960 0//// 1//// 2//// 3//// 5//// 71000;
0136068490999992011012805004+47233+009500FM-12+043699999V02099999999992200019N0100001N1+99999+99999999999ADDAY101999AY201999GA1001+999999999GF100991001001999999001001MW1101REMSYN060AAXX  28054 06849 41960 0//// 1//// 2//// 3//// 5//// 71000;
0174068490999992011012806004+47233+009500FM-12+043699999V02099999999992200019N0080001N1+99999+99999999999ADDAL10600091AY101061AY201061GA1001+999999999GF100991001001999999001001IA1149MW1101REMSYN082AAXX  28064 06849 41958 0//// 1//// 2//// 3//// 5//// 71000 333 34/// 90768 93100;
0136068490999992011012807004+47233+009500FM-12+043699999V02099999999992200019N0050001N1+99999+99999999999ADDAY101999AY201999GA1001+999999999GF100991001001999999001001MW1101REMSYN060AAXX  28074 06849 41950 0//// 1//// 2//// 3//// 5//// 71000;
0152068490999992011012808004+47233+009500FM-12+043699999V02099999999992200019N0050001N1+99999+99999999999ADDAY101999AY201999GA1011+003601061GF101991011051004501001001MW1101REMSYN076AAXX  28084 06849 41450 1//// 1//// 2//// 3//// 5//// 71000 81500 333 81612;
0152068490999992011012809004+47233+009500FM-12+043699999V02099999999992200019N0050001N1+99999+99999999999ADDAY101031AY201031GA1011+003601071GF101991011061004501001001MW1101REMSYN076AAXX  28094 06849 41450 1//// 1//// 2//// 3//// 5//// 71000 81600 333 81712;
0136068490999992011012810004+47233+009500FM-12+043699999V02099999999992200019N0070001N1+99999+99999999999ADDAY101999AY201999GA1001+999999999GF100991001001999999001001MW1101REMSYN060AAXX  28104 06849 41957 0//// 1//// 2//// 3//// 5//// 71000;
0152068490999992011012811004+47233+009500FM-12+043699999V02099999999992200019N0100001N1+99999+99999999999ADDAY101999AY201999GA1011+081001001GF101991001001999999001041MW1051REMSYN076AAXX  28114 06849 41960 1//// 1//// 2//// 3//// 5//// 70500 80004 333 81077;
0152068490999992011012812004+47233+009500FM-12+043699999V02099999999992200019N0110001N1+99999+99999999999ADDAY101061AY201061GA1011+075001001GF101991001001999999001011MW1051REMSYN076AAXX  28124 06849 41961 1//// 1//// 2//// 3//// 5//// 70500 80001 333 81075;
0152068490999992011012813004+47233+009500FM-12+043699999V02099999999992200019N0120001N1+99999+99999999999ADDAY101999AY201999GA1021+075001001GF102991001001999999001011MW1051REMSYN076AAXX  28134 06849 41962 2//// 1//// 2//// 3//// 5//// 70500 80001 333 82075;
0124068490999992011012814004+47233+009500FM-12+043699999V02099999999992200019N0160001N1+99999+99999999999ADDGA1021+009601061GF103991021051008001001021REMSYN070AAXX  28144 06849 42566 3//// 1//// 2//// 3//// 5//// 82502 333 82632;
0124068490999992011012815004+47233+009500FM-12+043699999V02099999999992200019N0160001N1+99999+99999999999ADDGA1031+009601061GF103991031051008001001021REMSYN070AAXX  28154 06849 42566 3//// 1//// 2//// 3//// 5//// 83502 333 83632;
0124068490999992011012816004+47233+009500FM-12+043699999V02099999999992200019N0160001N1+99999+99999999999ADDGA1041+009601061GF104991041051008001001021REMSYN070AAXX  28164 06849 42566 4//// 1//// 2//// 3//// 5//// 84502 333 84632;
0158068490999992011012817004+47233+009500FM-12+043699999V0209999999999004201CN0100001N1+99999+99999999999ADDAY121999AY221999GA1021+005701061GF108991081051004501999999MW1051REMSYN082AAXX  28174 06849 41460 8//// 1//// 2//// 3//// 5//// 70522 885// 333 82619 88625;
0186068490999992011012818004+47233+009500FM-12+043699999V02099999999990075019N0100001N1+99999+99999999999ADDAL10600091AY121061AY221061GA1061+007501071GF106991061061008001999999IA1099MW1101REMSYN094AAXX  28184 06849 41560 6//// 1//// 2//// 3//// 5//// 71022 866// 333 31/// 86725 90766 93100;
0152068490999992011012819004+47233+009500FM-12+043699999V02099999999990075019N0140001N1+99999+99999999999ADDAY121999AY221999GA1051+007501071GF105991051061008001999999MW1101REMSYN076AAXX  28194 06849 41564 5//// 1//// 2//// 3//// 5//// 71022 856// 333 85725;
0152068490999992011012820004+47233+009500FM-12+043699999V02099999999990075019N0100001N1+99999+99999999999ADDAY121999AY221999GA1071+007501071GF107991071061008001999999MW1101REMSYN076AAXX  28204 06849 41560 7//// 1//// 2//// 3//// 5//// 71022 876// 333 87725;
0152068490999992011012821004+47233+009500FM-12+043699999V02099999999990075019N0100001N1+99999+99999999999ADDAY121031AY221031GA1081+007501071GF108991081061008001999999MW1101REMSYN076AAXX  28214 06849 41560 8//// 1//// 2//// 3//// 5//// 71022 886// 333 88725;
0152068490999992011012903004+47233+009500FM-12+043699999V02099999999990066019N0060001N1+99999+99999999999ADDAY121031AY221031GA1081+006601071GF108991081061008001999999MW1101REMSYN076AAXX  29034 06849 41556 8//// 1//// 2//// 3//// 5//// 71022 886// 333 88722;
0152068490999992011012904004+47233+009500FM-12+043699999V02099999999990075019N0080001N1+99999+99999999999ADDAY121999AY221999GA1071+007501071GF108991081061008001999999MW1101REMSYN076AAXX  29044 06849 41558 8//// 1//// 2//// 3//// 5//// 71022 886// 333 87725;
0152068490999992011012905004+47233+009500FM-12+043699999V02099999999990075019N0080001N1+99999+99999999999ADDAY121999AY221999GA1061+007501071GF106991061061008001999999MW1101REMSYN076AAXX  29054 06849 41558 6//// 1//// 2//// 3//// 5//// 71022 866// 333 86725;
0186068490999992011012906004+47233+009500FM-12+043699999V02099999999990066019N0100001N1+99999+99999999999ADDAL10600091AY121061AY221061GA1071+006601071GF107991071061008001999999IA1149MW1101REMSYN094AAXX  29064 06849 41560 7//// 1//// 2//// 3//// 5//// 71022 876// 333 34/// 87722 90768 93100;
0152068490999992011012907004+47233+009500FM-12+043699999V02099999999990036019N0060001N1+99999+99999999999ADDAY121999AY221999GA1081+003601071GF108991081061004501999999MW1101REMSYN076AAXX  29074 06849 41456 8//// 1//// 2//// 3//// 5//// 71022 886// 333 88712;
0158068490999992011012908004+47233+009500FM-12+043699999V0209999999999045001CN0050001N1+99999+99999999999ADDAY121999AY221999GA1011+003601071GF106991011061004501071001MW1101REMSYN082AAXX  29084 06849 41450 6//// 1//// 2//// 3//// 5//// 71022 81670 333 81712 86361;
0152068490999992011012909004+47233+009500FM-12+043699999V02099999999990300019N0070001N1+99999+99999999999ADDAY121031AY221031GA1071+030001031GF107991071001999999071001MW1101REMSYN076AAXX  29094 06849 41957 7//// 1//// 2//// 3//// 5//// 71022 87070 333 87360;
0158068490999992011012910004+47233+009500FM-12+043699999V0209999999999045001CN0080001N1+99999+99999999999ADDAY121999AY221999GA1021+005701071GF106991021061004501051011MW1101REMSYN082AAXX  29104 06849 41458 6//// 1//// 2//// 3//// 5//// 71022 82651 333 82719 84360;
0152068490999992011012911004+47233+009500FM-12+043699999V0209999999999045001CN0070001N1+99999+99999999999ADDAY121999AY221999GA1021+010501061GF106991021051012501041001MW1101REMSYN076AAXX  29114 06849 41657 6//// 1//// 2//// 3//// 5//// 71022 82540 333 82635;
0158068490999992011012912004+47233+009500FM-12+043699999V0209999999999045001CN0070001N1+99999+99999999999ADDAY121061AY221061GA1011+000601071GF108991011061000751071001MW1101REMSYN082AAXX  29124 06849 41157 8//// 1//// 2//// 3//// 5//// 71022 81670 333 81702 88362;
0152068490999992011012913004+47233+009500FM-12+043699999V02099999999990300019N0060001N1+99999+99999999999ADDAY121999AY221999GA1061+030001031GF106991061001999999071001MW1101REMSYN076AAXX  29134 06849 41956 6//// 1//// 2//// 3//// 5//// 71022 86070 333 86360;
0152068490999992011012914004+47233+009500FM-12+043699999V02099999999992200019N0080001N1+99999+99999999999ADDAY111999AY211999GA1021+001201071GF103991021061001501031001MW1101REMSYN076AAXX  29144 06849 41258 3//// 1//// 2//// 3//// 5//// 71011 82630 333 82704;
0152068490999992011012915004+47233+009500FM-12+043699999V02099999999992200019N0060001N1+99999+99999999999ADDAY101031AY201031GA1021+027001031GF102991021001999999031001MW1101REMSYN076AAXX  29154 06849 41956 2//// 1//// 2//// 3//// 5//// 71000 82030 333 82359;
0152068490999992011012916004+47233+009500FM-12+043699999V02099999999992200019N0050001N1+99999+99999999999ADDAY111999AY211999GA1021+005701071GF102991021061004501001001MW1101REMSYN076AAXX  29164 06849 41450 2//// 1//// 2//// 3//// 5//// 71011 82600 333 82719;
0152068490999992011012917004+47233+009500FM-12+043699999V02099999999992200019N0035001N1+99999+99999999999ADDAY101999AY201999GA1041+005701071GF104991041061004501001001MW1101REMSYN076AAXX  29174 06849 41435 4//// 1//// 2//// 3//// 5//// 71000 84600 333 84719;
0186068490999992011012918004+47233+009500FM-12+043699999V02099999999992200019N0030001N1+99999+99999999999ADDAL10600091AY111061AY211061GA1041+005701071GF104991041061004501001001IA1149MW1101REMSYN094AAXX  29184 06849 41430 4//// 1//// 2//// 3//// 5//// 71011 84600 333 34/// 84719 90766 93100;
0152068490999992011012919004+47233+009500FM-12+043699999V02099999999992200019N0050001N1+99999+99999999999ADDAY101999AY201999GA1041+005701071GF104991041061004501001001MW1101REMSYN076AAXX  29194 06849 41450 4//// 1//// 2//// 3//// 5//// 71000 84600 333 84719;
0152068490999992011012920004+47233+009500FM-12+043699999V02099999999992200019N0070001N1+99999+99999999999ADDAY101999AY201999GA1021+007501071GF102991021061008001001001MW1101REMSYN076AAXX  29204 06849 41557 2//// 1//// 2//// 3//// 5//// 71000 82600 333 82725;
0152068490999992011012921004+47233+009500FM-12+043699999V02099999999992200019N0070001N1+99999+99999999999ADDAY101031AY201031GA1021+007501071GF102991021061008001001001MW1101REMSYN076AAXX  29214 06849 41557 2//// 1//// 2//// 3//// 5//// 71000 82600 333 82725;
0152068490999992011013003004+47233+009500FM-12+043699999V02099999999990066019N0050001N1+99999+99999999999ADDAY121031AY221031GA1081+006601071GF108991081061008001999999MW1101REMSYN076AAXX  30034 06849 41550 8//// 1//// 2//// 3//// 5//// 71022 886// 333 88722;
0152068490999992011013004004+47233+009500FM-12+043699999V02099999999990057019N0050001N1+99999+99999999999ADDAY121999AY221999GA1081+005701071GF108991081061004501999999MW1101REMSYN076AAXX  30044 06849 41450 8//// 1//// 2//// 3//// 5//// 71022 886// 333 88719;
0152068490999992011013005004+47233+009500FM-12+043699999V02099999999990066019N0060001N1+99999+99999999999ADDAY121999AY221999GA1081+006601071GF108991081061008001999999MW1101REMSYN076AAXX  30054 06849 41556 8//// 1//// 2//// 3//// 5//// 71022 886// 333 88722;
0186068490999992011013006004+47233+009500FM-12+043699999V02099999999990066019N0060001N1+99999+99999999999ADDAL10600091AY121061AY221061GA1081+006601071GF108991081061008001999999IA1149MW1101REMSYN094AAXX  30064 06849 41556 8//// 1//// 2//// 3//// 5//// 71022 886// 333 34/// 88722 90768 93100;
0152068490999992011013007004+47233+009500FM-12+043699999V02099999999990006019N0040001N1+99999+99999999999ADDAY121999AY221999GA1081+000601071GF108991081061000751999999MW1101REMSYN076AAXX  30074 06849 41140 8//// 1//// 2//// 3//// 5//// 71022 886// 333 88702;
0152068490999992011013008004+47233+009500FM-12+043699999V02099999999990015019N0030001N1+99999+99999999999ADDAY121999AY221999GA1081+001501071GF108991081061001501999999MW1101REMSYN076AAXX  30084 06849 41230 8//// 1//// 2//// 3//// 5//// 71022 886// 333 88705;
0152068490999992011013009004+47233+009500FM-12+043699999V02099999999990006019N0030001N1+99999+99999999999ADDAY121031AY221031GA1081+000601071GF108991081061000751999999MW1101REMSYN076AAXX  30094 06849 41130 8//// 1//// 2//// 3//// 5//// 71022 886// 333 88702;
0152068490999992011013010004+47233+009500FM-12+043699999V02099999999990006019N0030001N1+99999+99999999999ADDAY121999AY221999GA1081+000601071GF108991081061000751999999MW1101REMSYN076AAXX  30104 06849 41130 8//// 1//// 2//// 3//// 5//// 71022 886// 333 88702;
0152068490999992011013011004+47233+009500FM-12+043699999V02099999999990006019N0030001N1+99999+99999999999ADDAY121999AY221999GA1081+000601071GF108991081061000751999999MW1101REMSYN076AAXX  30114 06849 41130 8//// 1//// 2//// 3//// 5//// 71022 886// 333 88702;
0152068490999992011013012004+47233+009500FM-12+043699999V02099999999990006019N0040001N1+99999+99999999999ADDAY121061AY221061GA1081+000601071GF108991081061000751999999MW1101REMSYN076AAXX  30124 06849 41140 8//// 1//// 2//// 3//// 5//// 71022 886// 333 88702;
0152068490999992011013013004+47233+009500FM-12+043699999V02099999999990015019N0025001N1+99999+99999999999ADDAY121999AY221999GA1081+001501071GF108991081061001501999999MW1101REMSYN076AAXX  30134 06849 41225 8//// 1//// 2//// 3//// 5//// 71022 886// 333 88705;
0152068490999992011013014004+47233+009500FM-12+043699999V02099999999990012019N0020001N1+99999+99999999999ADDAY121999AY221999GA1081+001201071GF108991081061001501999999MW1101REMSYN076AAXX  30144 06849 41220 8//// 1//// 2//// 3//// 5//// 71022 886// 333 88704;
0152068490999992011013015004+47233+009500FM-12+043699999V02099999999990012019N0020001N1+99999+99999999999ADDAY121031AY221031GA1081+001201071GF108991081061001501999999MW1101REMSYN076AAXX  30154 06849 41220 8//// 1//// 2//// 3//// 5//// 71022 886// 333 88704;
0152068490999992011013016004+47233+009500FM-12+043699999V02099999999990015019N0025001N1+99999+99999999999ADDAY121999AY221999GA1081+001501071GF108991081061001501999999MW1101REMSYN076AAXX  30164 06849 41225 8//// 1//// 2//// 3//// 5//// 71022 886// 333 88705;
0152068490999992011013017004+47233+009500FM-12+043699999V02099999999990012019N0030001N1+99999+99999999999ADDAY121999AY221999GA1081+001201071GF108991081061001501999999MW1101REMSYN076AAXX  30174 06849 41230 8//// 1//// 2//// 3//// 5//// 71022 886// 333 88704;
0186068490999992011013018004+47233+009500FM-12+043699999V02099999999990012019N0030001N1+99999+99999999999ADDAL10600091AY121061AY221061GA1081+001201071GF108991081061001501999999IA1149MW1101REMSYN094AAXX  30184 06849 41230 8//// 1//// 2//// 3//// 5//// 71022 886// 333 34/// 88704 90766 93100;
0152068490999992011013019004+47233+009500FM-12+043699999V02099999999990015019N0040001N1+99999+99999999999ADDAY121999AY221999GA1081+001501071GF108991081061001501999999MW1101REMSYN076AAXX  30194 06849 41240 8//// 1//// 2//// 3//// 5//// 71022 886// 333 88705;
0152068490999992011013020004+47233+009500FM-12+043699999V02099999999990027019N0060001N1+99999+99999999999ADDAY121999AY221999GA1081+002701071GF108991081061002501999999MW1101REMSYN076AAXX  30204 06849 41356 8//// 1//// 2//// 3//// 5//// 71022 886// 333 88709;
0152068490999992011013021004+47233+009500FM-12+043699999V02099999999990027019N0030001N1+99999+99999999999ADDAY121031AY221031GA1081+002701071GF108991081061002501999999MW1101REMSYN076AAXX  30214 06849 41330 8//// 1//// 2//// 3//// 5//// 71022 886// 333 88709;
0152068490999992011013103004+47233+009500FM-12+043699999V02099999999990027019N0030001N1+99999+99999999999ADDAY121031AY221031GA1081+002701071GF108991081061002501999999MW1101REMSYN076AAXX  31034 06849 41330 8//// 1//// 2//// 3//// 5//// 71022 886// 333 88709;
0152068490999992011013104004+47233+009500FM-12+043699999V02099999999990045019N0030001N1+99999+99999999999ADDAY121999AY221999GA1081+004501071GF108991081061004501999999MW1101REMSYN076AAXX  31044 06849 41430 8//// 1//// 2//// 3//// 5//// 71022 886// 333 88715;
0152068490999992011013105004+47233+009500FM-12+043699999V02099999999990045019N0030001N1+99999+99999999999ADDAY121999AY221999GA1081+004501071GF108991081061004501999999MW1101REMSYN076AAXX  31054 06849 41430 8//// 1//// 2//// 3//// 5//// 71022 886// 333 88715;
0186068490999992011013106004+47233+009500FM-12+043699999V02099999999990045019N0030001N1+99999+99999999999ADDAL10600091AY121061AY221061GA1081+004501071GF108991081061004501999999IA1149MW1101REMSYN094AAXX  31064 06849 41430 8//// 1//// 2//// 3//// 5//// 71022 886// 333 34/// 88715 90768 93100;
0152068490999992011013107004+47233+009500FM-12+043699999V02099999999990036019N0020001N1+99999+99999999999ADDAY121999AY221999GA1081+003601071GF108991081061004501999999MW1101REMSYN076AAXX  31074 06849 41420 8//// 1//// 2//// 3//// 5//// 71022 886// 333 88712;
0152068490999992011013108004+47233+009500FM-12+043699999V02099999999990027019N0020001N1+99999+99999999999ADDAY121999AY221999GA1081+002701071GF108991081061002501999999MW1101REMSYN076AAXX  31084 06849 41320 8//// 1//// 2//// 3//// 5//// 71022 886// 333 88709;
0152068490999992011013109004+47233+009500FM-12+043699999V02099999999990027019N0020001N1+99999+99999999999ADDAY121031AY221031GA1081+002701071GF108991081061002501999999MW1101REMSYN076AAXX  31094 06849 41320 8//// 1//// 2//// 3//// 5//// 71022 886// 333 88709;
0152068490999992011013110004+47233+009500FM-12+043699999V02099999999990027019N0020001N1+99999+99999999999ADDAY121999AY221999GA1081+002701071GF108991081061002501999999MW1101REMSYN076AAXX  31104 06849 41320 8//// 1//// 2//// 3//// 5//// 71022 886// 333 88709;
0152068490999992011013111004+47233+009500FM-12+043699999V02099999999990015019N0020001N1+99999+99999999999ADDAY121999AY221999GA1081+001501071GF108991081061001501999999MW1101REMSYN076AAXX  31114 06849 41220 8//// 1//// 2//// 3//// 5//// 71022 886// 333 88705;
0152068490999992011013112004+47233+009500FM-12+043699999V02099999999990015019N0025001N1+99999+99999999999ADDAY121061AY221061GA1081+001501071GF108991081061001501999999MW1101REMSYN076AAXX  31124 06849 41225 8//// 1//// 2//// 3//// 5//// 71022 886// 333 88705;
0152068490999992011013113004+47233+009500FM-12+043699999V02099999999990015019N0020001N1+99999+99999999999ADDAY121999AY221999GA1081+001501071GF108991081061001501999999MW1101REMSYN076AAXX  31134 06849 41220 8//// 1//// 2//// 3//// 5//// 71022 886// 333 88705;
