0158068480999992011012414004+46950+009600FM-12+137099999V0209999999999036001CN0100001N1+99999+99999999999ADDAY121999AY221999GA1041+004201071GF108991041061004501071999MW1101REMSYN082AAXX  24144 06848 41460 8//// 1//// 2//// 3//// 5//// 71022 8467/ 333 84714 87460;
0158068480999992011012415004+46950+009600FM-12+137099999V0209999999999036001CN0100001N1+99999+99999999999ADDAY121031AY221031GA1011+004201071GF107991011061004501071001MW1101REMSYN082AAXX  24154 06848 41460 7//// 1//// 2//// 3//// 5//// 71022 81670 333 81714 87460;
0158068480999992011012416004+46950+009600FM-12+137099999V0209999999999036001CN0110001N1+99999+99999999999ADDAY121999AY221999GA1031+006301071GF107991031061008001021999MW1101REMSYN082AAXX  24164 06848 41561 7//// 1//// 2//// 3//// 5//// 71022 8362/ 333 83721 87460;
0158068480999992011012417004+46950+009600FM-12+137099999V0209999999999036001CN0130001N1+99999+99999999999ADDAY121999AY221999GA1031+006301071GF107991031061008001021999MW1101REMSYN082AAXX  24174 06848 41563 7//// 1//// 2//// 3//// 5//// 71022 8362/ 333 83721 87459;
0225068480999992011012418004+46950+009600FM-12+137099999V02099999999992200019N0100001N1+99999+99999999999ADDAJ100209199999999AL10600091AY111061AY211061GA1011+006301071GA2041+027001041GF104991011061008001021999IA1229MW1101REMSYN100AAXX  24184 06848 41560 4//// 1//// 2//// 3//// 5//// 71011 8162/ 333 46020 81721 84459 90766 93100;
0152068480999992011012419004+46950+009600FM-12+137099999V02099999999990210019N0080001N1+99999+99999999999ADDAY121999AY221999GA1071+021001041GF107991071001022501021999MW1781REMSYN076AAXX  24194 06848 41858 7//// 1//// 2//// 3//// 5//// 77822 8702/ 333 87457;
0152068480999992011012420004+46950+009600FM-12+137099999V02099999999990210019N0070001N1+99999+99999999999ADDAY121999AY221999GA1081+021001041GF108991081001022501021999MW1781REMSYN076AAXX  24204 06848 41857 8//// 1//// 2//// 3//// 5//// 77822 8802/ 333 88457;
0108068480999992011012504004+46950+009600FM-12+137099999V02099999999992200019N0200001N1+99999+99999999999ADDGA1001+999999999GF100991001001999999001001REMSYN054AAXX  25044 06848 42970 0//// 1//// 2//// 3//// 5////;
0124068480999992011012505004+46950+009600FM-12+137099999V02099999999992200019N0170001N1+99999+99999999999ADDGA1041+027001041GF104991041001999999021001REMSYN070AAXX  25054 06848 42967 4//// 1//// 2//// 3//// 5//// 84020 333 84459;
0175068480999992011012506004+46950+009600FM-12+137099999V02099999999990210019N0150001N1+99999+99999999999ADDAJ100189199999999AL10600091GA1081+021001041GF108991081001022501021999IA1229REMSYN088AAXX  25064 06848 42865 8//// 1//// 2//// 3//// 5//// 8802/ 333 46018 88457 90768 93100;
0130068480999992011012507004+46950+009600FM-12+137099999V0209999999999036001CN0130001N1+99999+99999999999ADDGA1031+006301071GF108991031061008001021999REMSYN076AAXX  25074 06848 42563 8//// 1//// 2//// 3//// 5//// 8362/ 333 83721 88457;
0158068480999992011012508004+46950+009600FM-12+137099999V0209999999999036001CN0120001N1+99999+99999999999ADDAY121999AY221999GA1031+006301071GF108991031071008001021999MW1101REMSYN082AAXX  25084 06848 41562 8//// 1//// 2//// 3//// 5//// 71022 8372/ 333 83721 88457;
0152068480999992011012509004+46950+009600FM-12+137099999V02099999999990063019N0110001N1+99999+99999999999ADDAY121031AY221031GA1071+006301071GF108991071061008001021999MW1101REMSYN076AAXX  25094 06848 41561 8//// 1//// 2//// 3//// 5//// 71022 8762/ 333 87721;
0152068480999992011012510004+46950+009600FM-12+137099999V02099999999990063019N0070001N1+99999+99999999999ADDAY171999AY221999GA1081+006301071GF108991081061008001999999MW1781REMSYN076AAXX  25104 06848 41557 8//// 1//// 2//// 3//// 5//// 77872 886// 333 88721;
0152068480999992011012511004+46950+009600FM-12+137099999V02099999999990093019N0090001N1+99999+99999999999ADDAY171999AY221999GA1071+009301061GF107991071051008001001001MW1101REMSYN076AAXX  25114 06848 41559 7//// 1//// 2//// 3//// 5//// 71072 87500 333 87631;
0152068480999992011012512004+46950+009600FM-12+137099999V02099999999990042019N0080001N1+99999+99999999999ADDAY171061AY221061GA1081+004201071GF108991081061004501999999MW1781REMSYN076AAXX  25124 06848 41458 8//// 1//// 2//// 3//// 5//// 77872 886// 333 88714;
0152068480999992011012513004+46950+009600FM-12+137099999V02099999999990054019N0080001N1+99999+99999999999ADDAY131999AY221999GA1081+005401071GF108991081061004501999999MW1781REMSYN076AAXX  25134 06848 41458 8//// 1//// 2//// 3//// 5//// 77832 886// 333 88718;
0152068480999992011012514004+46950+009600FM-12+137099999V02099999999990042019N0080001N1+99999+99999999999ADDAY121999AY221999GA1061+004201071GF106991061061004501999999MW1781REMSYN076AAXX  25144 06848 41458 6//// 1//// 2//// 3//// 5//// 77822 866// 333 86714;
0152068480999992011012515004+46950+009600FM-12+137099999V02099999999990042019N0140001N1+99999+99999999999ADDAY121031AY221031GA1071+004201061GF107991071051004501999999MW1101REMSYN076AAXX  25154 06848 41464 7//// 1//// 2//// 3//// 5//// 71022 875// 333 87614;
0124068480999992011012516004+46950+009600FM-12+137099999V02099999999990063019N0250001N1+99999+99999999999ADDGA1071+006301061GF107991071051008001999999REMSYN070AAXX  25164 06848 42575 7//// 1//// 2//// 3//// 5//// 875// 333 87621;
0152068480999992011012517004+46950+009600FM-12+137099999V02099999999990063019N0120001N1+99999+99999999999ADDAY121999AY221999GA1081+006301061GF108991081051008001999999MW1101REMSYN076AAXX  25174 06848 41562 8//// 1//// 2//// 3//// 5//// 71022 885// 333 88621;
0152068480999992011012519004+46950+009600FM-12+137099999V02099999999990042019N0020001N1+99999+99999999999ADDAY171999AY221999GA1081+004201051GF108991081071004501999999MW1721REMSYN076AAXX  25194 06848 41420 8//// 1//// 2//// 3//// 5//// 77272 887// 333 88514;
0152068480999992011012520004+46950+009600FM-12+137099999V02099999999990042019N0030001N1+99999+99999999999ADDAY171999AY221999GA1081+004201051GF108991081071004501999999MW1731REMSYN076AAXX  25204 06848 41430 8//// 1//// 2//// 3//// 5//// 77372 887// 333 88514;
0136068480999992011012604004+46950+009600FM-12+137099999V02099999999990006019N0006001N1+99999+99999999999ADDAY171999AY241999GA1091+999999999GF109991091999999999999999MW1781REMSYN060AAXX  26044 06848 41/06 9//// 1//// 2//// 3//// 5//// 77874;
0136068480999992011012605004+46950+009600FM-12+137099999V02099999999990003019N0005001N1+99999+99999999999ADDAY171999AY241999GA1091+999999999GF109991091999999999999999MW1781REMSYN060AAXX  26054 06848 41/05 9//// 1//// 2//// 3//// 5//// 77874;
0191068480999992011012606004+46950+009600FM-12+137099999V02099999999990006019N0009001N1+99999+99999999999ADDAJ100279199999999AL10600491AY171061AY241061GA1091+999999999GF109991091999999999999999IA1239MW1431REMSYN082AAXX  26064 06848 41/09 9//// 1//// 2//// 3//// 5//// 74374 333 47027 90768 93104;
0136068480999992011012607004+46950+009600FM-12+137099999V02099999999990006019N0006001N1+99999+99999999999ADDAY171999AY241999GA1091+999999999GF109991091999999999999999MW1701REMSYN060AAXX  26074 06848 41/06 9//// 1//// 2//// 3//// 5//// 77074;
0136068480999992011012608004+46950+009600FM-12+137099999V02099999999990006019N0008001N1+99999+99999999999ADDAY141999AY231999GA1091+999999999GF109991091999999999999999MW1731REMSYN060AAXX  26084 06848 41/08 9//// 1//// 2//// 3//// 5//// 77343;
0152068480999992011012609004+46950+009600FM-12+137099999V02099999999990033019N0060001N1+99999+99999999999ADDAY141031AY231031GA1081+003301071GF108991081061004501999999MW1781REMSYN076AAXX  26094 06848 41456 8//// 1//// 2//// 3//// 5//// 77843 886// 333 88711;
0124068480999992011012610004+46950+009600FM-12+137099999V02099999999990054019N0080001N1+99999+99999999999ADDGA1081+005401071GF108991081061004501999999REMSYN070AAXX  26104 06848 42458 8//// 1//// 2//// 3//// 5//// 886// 333 88718;
0180068480999992011012611004+46950+009600FM-12+137099999V02099999999990054019N0100001N1+99999+99999999999ADDAY121999AY221999GA1081+005401071GF108991081061004501999999GG1079080009009999MW1051REMSYN086AAXX  26114 06848 41460 8//// 1//// 2//// 3//// 5//// 70522 886// 333 88718 444 17080;
0152068480999992011012612004+46950+009600FM-12+137099999V02099999999990084019N0100001N1+99999+99999999999ADDAY131061AY221061GA1081+008401041GF108991081001008001021999MW1051REMSYN076AAXX  26124 06848 41560 8//// 1//// 2//// 3//// 5//// 70532 8802/ 333 88428;
0124068480999992011012613004+46950+009600FM-12+137099999V02099999999990144019N0160001N1+99999+99999999999ADDGA1081+014401041GF108991081001012501021999REMSYN070AAXX  26134 06848 42666 8//// 1//// 2//// 3//// 5//// 8802/ 333 88448;
0124068480999992011012614004+46950+009600FM-12+137099999V02099999999990144019N0220001N1+99999+99999999999ADDGA1081+014401041GF108991081001012501021999REMSYN070AAXX  26144 06848 42672 8//// 1//// 2//// 3//// 5//// 8802/ 333 88448;
0130068480999992011012615004+46950+009600FM-12+137099999V02099999999990132019N0250001N1+99999+99999999999ADDGA1071+013201041GF107991071001012501071999REMSYN076AAXX  26154 06848 42675 7//// 1//// 2//// 3//// 5//// 8707/ 333 87444 87444;
0130068480999992011012616004+46950+009600FM-12+137099999V0209999999999090001CN0250001N1+99999+99999999999ADDGA1031+015001031GF107991031001017501031081REMSYN076AAXX  26164 06848 42775 7//// 1//// 2//// 3//// 5//// 83038 333 83350 87267;
0130068480999992011012617004+46950+009600FM-12+137099999V02099999999992200019N0250001N1+99999+99999999999ADDGA1011+015001031GF104991011001017501031081REMSYN076AAXX  26174 06848 42775 4//// 1//// 2//// 3//// 5//// 81038 333 81350 84267;
0175068480999992011012618004+46950+009600FM-12+137099999V02099999999992200019N0200001N1+99999+99999999999ADDAJ100309199999999AL10600091GA1011+015001031GF103991011001017501031061IA1239REMSYN088AAXX  26184 06848 42770 3//// 1//// 2//// 3//// 5//// 81036 333 47030 81350 90766 93100;
0124068480999992011012619004+46950+009600FM-12+137099999V02099999999992200019N0150001N1+99999+99999999999ADDGA1011+015001031GF102991011001017501031081REMSYN070AAXX  26194 06848 42765 2//// 1//// 2//// 3//// 5//// 81038 333 81350;
0124068480999992011012620004+46950+009600FM-12+137099999V02099999999992200019N0150001N1+99999+99999999999ADDGA1011+015001031GF103991011001017501031081REMSYN070AAXX  26204 06848 42765 3//// 1//// 2//// 3//// 5//// 81038 333 81350;
0108068480999992011012704004+46950+009600FM-12+137099999V02099999999992200019N0160001N1+99999+99999999999ADDGA1001+999999999GF100991001001999999001001REMSYN054AAXX  27044 06848 42966 0//// 1//// 2//// 3//// 5////;
0108068480999992011012705004+46950+009600FM-12+137099999V02099999999992200019N0180001N1+99999+99999999999ADDGA1001+999999999GF100991001001999999001001REMSYN054AAXX  27054 06848 42968 0//// 1//// 2//// 3//// 5////;
0163068480999992011012706004+46950+009600FM-12+137099999V02099999999992200019N0180001N1+99999+99999999999ADDAJ100159199999999AL10600091GA1001+999999999GF100991001001999999001001IA1239REMSYN076AAXX  27064 06848 42968 0//// 1//// 2//// 3//// 5//// 333 47015 90768 93100;
0108068480999992011012707004+46950+009600FM-12+137099999V02099999999992200019N0180001N1+99999+99999999999ADDGA1001+999999999GF100991001001999999001001REMSYN054AAXX  27074 06848 42968 0//// 1//// 2//// 3//// 5////;
0124068480999992011012708004+46950+009600FM-12+137099999V02099999999992200019N0300001N1+99999+99999999999ADDGA1021+057001001GF102991001001999999001021REMSYN070AAXX  27084 06848 42980 2//// 1//// 2//// 3//// 5//// 80002 333 82069;
0124068480999992011012709004+46950+009600FM-12+137099999V02099999999992200019N0400001N1+99999+99999999999ADDGA1021+057001001GF102991001001999999001021REMSYN070AAXX  27094 06848 42982 2//// 1//// 2//// 3//// 5//// 80002 333 82069;
0124068480999992011012710004+46950+009600FM-12+137099999V02099999999992200019N0600001N1+99999+99999999999ADDGA1021+057001021GF102991001001999999001081REMSYN070AAXX  27104 06848 42986 2//// 1//// 2//// 3//// 5//// 80008 333 82269;
0124068480999992011012711004+46950+009600FM-12+137099999V02099999999992200019N0600001N1+99999+99999999999ADDGA1011+057001021GF101991001001999999001081REMSYN070AAXX  27114 06848 42986 1//// 1//// 2//// 3//// 5//// 80008 333 81269;
0124068480999992011012712004+46950+009600FM-12+137099999V02099999999992200019N0600001N1+99999+99999999999ADDGA1011+057001001GF101991001001999999001041REMSYN070AAXX  27124 06848 42986 1//// 1//// 2//// 3//// 5//// 80004 333 81069;
0108068480999992011012713004+46950+009600FM-12+137099999V02099999999992200019N0600001N1+99999+99999999999ADDGA1001+999999999GF100991001001999999001001REMSYN054AAXX  27134 06848 42986 0//// 1//// 2//// 3//// 5////;
0124068480999992011012714004+46950+009600FM-12+137099999V02099999999992200019N0400001N1+99999+99999999999ADDGA1011+057001001GF101991001001999999001041REMSYN070AAXX  27144 06848 42982 1//// 1//// 2//// 3//// 5//// 80004 333 81069;
0152068480999992011012715004+46950+009600FM-12+137099999V02099999999990003019N0100001N1+99999+99999999999ADDAY111031AY211031GA1051+000301061GF105991051051000251001011MW1101REMSYN076AAXX  27154 06848 41060 5//// 1//// 2//// 3//// 5//// 71011 85501 333 85601;
0136068480999992011012716004+46950+009600FM-12+137099999V02099999999990003019N0003001N1+99999+99999999999ADDAY141999AY211999GA1091+999999999GF109991091999999999999999MW1471REMSYN060AAXX  27164 06848 41/03 9//// 1//// 2//// 3//// 5//// 74741;
0136068480999992011012717004+46950+009600FM-12+137099999V02099999999990003019N0002001N1+99999+99999999999ADDAY141999AY211999GA1091+999999999GF109991091999999999999999MW1451REMSYN060AAXX  27174 06848 41/02 9//// 1//// 2//// 3//// 5//// 74541;
0191068480999992011012718004+46950+009600FM-12+137099999V02099999999990003019N0002001N1+99999+99999999999ADDAJ100309199999999AL10600091AY141061AY211061GA1091+999999999GF109991091999999999999999IA1239MW1451REMSYN082AAXX  27184 06848 41/02 9//// 1//// 2//// 3//// 5//// 74541 333 47030 90766 93100;
0136068480999992011012719004+46950+009600FM-12+137099999V02099999999990006019N0008001N1+99999+99999999999ADDAY141999AY211999GA1091+999999999GF109991091999999999999999MW1431REMSYN060AAXX  27194 06848 41/08 9//// 1//// 2//// 3//// 5//// 74341;
0136068480999992011012720004+46950+009600FM-12+137099999V02099999999990006019N0009001N1+99999+99999999999ADDAY141999AY211999GA1091+999999999GF109991091999999999999999MW1431REMSYN060AAXX  27204 06848 41/09 9//// 1//// 2//// 3//// 5//// 74341;
0108068480999992011012804004+46950+009600FM-12+137099999V02099999999992200019N0200001N1+99999+99999999999ADDGA1001+999999999GF100991001001999999001001REMSYN054AAXX  28044 06848 42970 0//// 1//// 2//// 3//// 5////;
0108068480999992011012805004+46950+009600FM-12+137099999V02099999999992200019N0200001N1+99999+99999999999ADDGA1001+999999999GF100991001001999999001001REMSYN054AAXX  28054 06848 42970 0//// 1//// 2//// 3//// 5////;
0163068480999992011012806004+46950+009600FM-12+137099999V02099999999992200019N0220001N1+99999+99999999999ADDAJ100279199999999AL10600091GA1001+999999999GF100991001001999999001001IA1239REMSYN076AAXX  28064 06848 42972 0//// 1//// 2//// 3//// 5//// 333 47027 90768 93100;
0108068480999992011012807004+46950+009600FM-12+137099999V02099999999992200019N0270001N1+99999+99999999999ADDGA1001+999999999GF100991001001999999001001REMSYN054AAXX  28074 06848 42977 0//// 1//// 2//// 3//// 5////;
0108068480999992011012808004+46950+009600FM-12+137099999V02099999999992200019N0300001N1+99999+99999999999ADDGA1001+999999999GF100991001001999999001001REMSYN054AAXX  28084 06848 42980 0//// 1//// 2//// 3//// 5////;
0108068480999992011012809004+46950+009600FM-12+137099999V02099999999992200019N0400001N1+99999+99999999999ADDGA1001+999999999GF100991001001999999001001REMSYN054AAXX  28094 06848 42982 0//// 1//// 2//// 3//// 5////;
0108068480999992011012810004+46950+009600FM-12+137099999V02099999999992200019N0500001N1+99999+99999999999ADDGA1001+999999999GF100991001001999999001001REMSYN054AAXX  28104 06848 42984 0//// 1//// 2//// 3//// 5////;
0124068480999992011012811004+46950+009600FM-12+137099999V02099999999992200019N0400001N1+99999+99999999999ADDGA1041+057001001GF104991001001999999001041REMSYN070AAXX  28114 06848 42982 4//// 1//// 2//// 3//// 5//// 80004 333 84069;
0124068480999992011012812004+46950+009600FM-12+137099999V02099999999992200019N0400001N1+99999+99999999999ADDGA1041+057001001GF104991001001999999001041REMSYN070AAXX  28124 06848 42982 4//// 1//// 2//// 3//// 5//// 80004 333 84069;
0124068480999992011012813004+46950+009600FM-12+137099999V02099999999990570019N0400001N1+99999+99999999999ADDGA1061+057001001GF106991001001999999001041REMSYN070AAXX  28134 06848 42982 6//// 1//// 2//// 3//// 5//// 80004 333 86069;
0124068480999992011012814004+46950+009600FM-12+137099999V02099999999992200019N0450001N1+99999+99999999999ADDGA1031+057001001GF103991001001999999001011REMSYN070AAXX  28144 06848 42983 3//// 1//// 2//// 3//// 5//// 80001 333 83069;
0124068480999992011012815004+46950+009600FM-12+137099999V02099999999990570019N0350001N1+99999+99999999999ADDGA1051+057001001GF105991001001999999001041REMSYN070AAXX  28154 06848 42981 5//// 1//// 2//// 3//// 5//// 80004 333 85069;
0124068480999992011012816004+46950+009600FM-12+137099999V02099999999990570019N0350001N1+99999+99999999999ADDGA1061+057001001GF106991001001999999001041REMSYN070AAXX  28164 06848 42981 6//// 1//// 2//// 3//// 5//// 80004 333 86069;
0124068480999992011012817004+46950+009600FM-12+137099999V02099999999990570019N0350001N1+99999+99999999999ADDGA1061+057001001GF106991001001999999001011REMSYN070AAXX  28174 06848 42981 6//// 1//// 2//// 3//// 5//// 80001 333 86069;
0175068480999992011012818004+46950+009600FM-12+137099999V02099999999990570019N0270001N1+99999+99999999999ADDAJ100249199999999AL10600091GA1051+057001001GF105991001001999999001011IA1239REMSYN088AAXX  28184 06848 42977 5//// 1//// 2//// 3//// 5//// 80001 333 47024 85069 90766 93100;
0124068480999992011012819004+46950+009600FM-12+137099999V02099999999992200019N0250001N1+99999+99999999999ADDGA1021+057001001GF102991001001999999001011REMSYN070AAXX  28194 06848 42975 2//// 1//// 2//// 3//// 5//// 80001 333 82069;
0108068480999992011012820004+46950+009600FM-12+137099999V02099999999992200019N0230001N1+99999+99999999999ADDGA1001+999999999GF100991001001999999001001REMSYN054AAXX  28204 06848 42973 0//// 1//// 2//// 3//// 5////;
0124068480999992011012904004+46950+009600FM-12+137099999V02099999999992200019N0250001N1+99999+99999999999ADDGA1021+057001001GF102991001001999999001011REMSYN070AAXX  29044 06848 42975 2//// 1//// 2//// 3//// 5//// 80001 333 82069;
0108068480999992011012905004+46950+009600FM-12+137099999V02099999999992200019N0280001N1+99999+99999999999ADDGA1001+999999999GF100991001001999999001001REMSYN054AAXX  29054 06848 42978 0//// 1//// 2//// 3//// 5////;
0175068480999992011012906004+46950+009600FM-12+137099999V02099999999992200019N0300001N1+99999+99999999999ADDAJ100249199999999AL10600091GA1031+057001001GF103991001001999999001011IA1239REMSYN088AAXX  29064 06848 42980 3//// 1//// 2//// 3//// 5//// 80001 333 47024 83069 90768 93100;
0124068480999992011012907004+46950+009600FM-12+137099999V02099999999992200019N0250001N1+99999+99999999999ADDGA1031+057001011GF103991001001999999001091REMSYN070AAXX  29074 06848 42975 3//// 1//// 2//// 3//// 5//// 80009 333 83169;
0124068480999992011012908004+46950+009600FM-12+137099999V02099999999992200019N0200001N1+99999+99999999999ADDGA1031+030001031GF103991031001999999051001REMSYN070AAXX  29084 06848 42970 3//// 1//// 2//// 3//// 5//// 83050 333 83360;
0124068480999992011012909004+46950+009600FM-12+137099999V02099999999992200019N0200001N1+99999+99999999999ADDGA1031+030001031GF103991031001999999051001REMSYN070AAXX  29094 06848 42970 3//// 1//// 2//// 3//// 5//// 83050 333 83360;
0124068480999992011012910004+46950+009600FM-12+137099999V02099999999990300019N0250001N1+99999+99999999999ADDGA1061+030001031GF106991061001999999051001REMSYN070AAXX  29104 06848 42975 6//// 1//// 2//// 3//// 5//// 86050 333 86360;
0130068480999992011012911004+46950+009600FM-12+137099999V0209999999999036001CN0250001N1+99999+99999999999ADDGA1041+006301071GF106991031061008001051001REMSYN076AAXX  29114 06848 42575 6//// 1//// 2//// 3//// 5//// 83650 333 84721 84360;
0130068480999992011012912004+46950+009600FM-12+137099999V0209999999999036001CN0250001N1+99999+99999999999ADDGA1021+006301061GF105991021051008001051001REMSYN076AAXX  29124 06848 42575 5//// 1//// 2//// 3//// 5//// 82550 333 82621 84360;
0124068480999992011012913004+46950+009600FM-12+137099999V02099999999992200019N0250001N1+99999+99999999999ADDGA1031+030001031GF103991031001999999051001REMSYN070AAXX  29134 06848 42975 3//// 1//// 2//// 3//// 5//// 83050 333 83360;
0124068480999992011012914004+46950+009600FM-12+137099999V02099999999992200019N0250001N1+99999+99999999999ADDGA1031+030001031GF103991031001999999051001REMSYN070AAXX  29144 06848 42975 3//// 1//// 2//// 3//// 5//// 83050 333 83360;
0124068480999992011012915004+46950+009600FM-12+137099999V02099999999992200019N0250001N1+99999+99999999999ADDGA1021+030001031GF102991021001999999051001REMSYN070AAXX  29154 06848 42975 2//// 1//// 2//// 3//// 5//// 82050 333 82360;
0124068480999992011012916004+46950+009600FM-12+137099999V02099999999992200019N0250001N1+99999+99999999999ADDGA1021+011401061GF102991021051012501051001REMSYN070AAXX  29164 06848 42675 2//// 1//// 2//// 3//// 5//// 82550 333 82638;
0124068480999992011012917004+46950+009600FM-12+137099999V02099999999992200019N0230001N1+99999+99999999999ADDGA1011+011401061GF101991011051012501001001REMSYN070AAXX  29174 06848 42673 1//// 1//// 2//// 3//// 5//// 81500 333 81638;
0163068480999992011012918004+46950+009600FM-12+137099999V02099999999992200019N0200001N1+99999+99999999999ADDAJ100239199999999AL10600091GA1001+999999999GF100991001001999999001001IA1239REMSYN076AAXX  29184 06848 42970 0//// 1//// 2//// 3//// 5//// 333 47023 90766 93100;
0108068480999992011012919004+46950+009600FM-12+137099999V02099999999992200019N0200001N1+99999+99999999999ADDGA1001+999999999GF100991001001999999001001REMSYN054AAXX  29194 06848 42970 0//// 1//// 2//// 3//// 5////;
0108068480999992011012920004+46950+009600FM-12+137099999V02099999999992200019N0180001N1+99999+99999999999ADDGA1001+999999999GF100991001001999999001001REMSYN054AAXX  29204 06848 42968 0//// 1//// 2//// 3//// 5////;
0120068480999992011013004004+46950+009600FM-12+137099999V02099999999992200019N0230001N1+99999+99999999999ADDGA1001+999999999GF100991001001999999001001MW1021REMSYN060AAXX  30044 06848 41973 0//// 1//// 2//// 3//// 5//// 702//;
0108068480999992011013005004+46950+009600FM-12+137099999V02099999999992200019N0240001N1+99999+99999999999ADDGA1001+999999999GF100991001001999999001001REMSYN054AAXX  30054 06848 42974 0//// 1//// 2//// 3//// 5////;
0163068480999992011013006004+46950+009600FM-12+137099999V02099999999992200019N0200001N1+99999+99999999999ADDAJ100139199999999AL10600091GA1001+999999999GF100991001001999999001001IA1239REMSYN076AAXX  30064 06848 42970 0//// 1//// 2//// 3//// 5//// 333 47013 90768 93100;
0108068480999992011013007004+46950+009600FM-12+137099999V02099999999992200019N0220001N1+99999+99999999999ADDGA1001+999999999GF100991001001999999001001REMSYN054AAXX  30074 06848 42972 0//// 1//// 2//// 3//// 5////;
0108068480999992011013008004+46950+009600FM-12+137099999V02099999999992200019N0250001N1+99999+99999999999ADDGA1001+999999999GF100991001001999999001001REMSYN054AAXX  30084 06848 42975 0//// 1//// 2//// 3//// 5////;
0108068480999992011013009004+46950+009600FM-12+137099999V02099999999992200019N0250001N1+99999+99999999999ADDGA1001+999999999GF100991001001999999001001REMSYN054AAXX  30094 06848 42975 0//// 1//// 2//// 3//// 5////;
0108068480999992011013010004+46950+009600FM-12+137099999V02099999999992200019N0250001N1+99999+99999999999ADDGA1001+999999999GF100991001001999999001001REMSYN054AAXX  30104 06848 42975 0//// 1//// 2//// 3//// 5////;
0108068480999992011013011004+46950+009600FM-12+137099999V02099999999992200019N0250001N1+99999+99999999999ADDGA1001+999999999GF100991001001999999001001REMSYN054AAXX  30114 06848 42975 0//// 1//// 2//// 3//// 5////;
0108068480999992011013012004+46950+009600FM-12+137099999V02099999999992200019N0300001N1+99999+99999999999ADDGA1001+999999999GF100991001001999999001001REMSYN054AAXX  30124 06848 42980 0//// 1//// 2//// 3//// 5////;
0108068480999992011013013004+46950+009600FM-12+137099999V02099999999992200019N0300001N1+99999+99999999999ADDGA1001+999999999GF100991001001999999001001REMSYN054AAXX  30134 06848 42980 0//// 1//// 2//// 3//// 5////;
0108068480999992011013014004+46950+009600FM-12+137099999V02099999999992200019N0300001N1+99999+99999999999ADDGA1001+999999999GF100991001001999999001001REMSYN054AAXX  30144 06848 42980 0//// 1//// 2//// 3//// 5////;
0134068480999992011013015004+46950+009600FM-12+137099999V02099999999992200019N0250001N1+99999+99999999999ADDGA1011+021001041GF101991011001022501011001REMSYN080AAXX  30154 06848 42875 1//// 1//// 2//// 3//// 5//// 81010 333 81457 444 47101;
0134068480999992011013016004+46950+009600FM-12+137099999V02099999999992200019N0300001N1+99999+99999999999ADDGA1011+027001041GF101991011001999999011001REMSYN080AAXX  30164 06848 42980 1//// 1//// 2//// 3//// 5//// 81010 333 81459 444 47111;
0134068480999992011013017004+46950+009600FM-12+137099999V02099999999992200019N0250001N1+99999+99999999999ADDGA1011+027001071GF101991011001999999011001REMSYN080AAXX  30174 06848 42975 1//// 1//// 2//// 3//// 5//// 81010 333 81759 444 77101;
0203068480999992011013018004+46950+009600FM-12+137099999V02099999999992200019N0250001N1+99999+99999999999ADDAJ100129199999999AL19900091GA1011+015001041GF101991011001017501011001GG1079001009019999IA1239REMSYN098AAXX  30184 06848 42775 1//// 1//// 2//// 3//// 5//// 81010 333 47012 81450 90766 93100 444 47101;
0118068480999992011013019004+46950+009600FM-12+137099999V02099999999992200019N0200001N1+99999+99999999999ADDGA1001+999999999GF100991001001999999001001REMSYN064AAXX  30194 06848 42970 0//// 1//// 2//// 3//// 5//// 444 37102;
0108068480999992011013020004+46950+009600FM-12+137099999V02099999999992200019N0180001N1+99999+99999999999ADDGA1001+999999999GF100991001001999999001001REMSYN054AAXX  30204 06848 42968 0//// 1//// 2//// 3//// 5////;
0108068480999992011013104004+46950+009600FM-12+137099999V02099999999992200019N0250001N1+99999+99999999999ADDGA1001+999999999GF100991001001999999001001REMSYN054AAXX  31044 06848 42975 0//// 1//// 2//// 3//// 5////;
0108068480999992011013105004+46950+009600FM-12+137099999V02099999999992200019N0250001N1+99999+99999999999ADDGA1001+999999999GF100991001001999999001001REMSYN054AAXX  31054 06848 42975 0//// 1//// 2//// 3//// 5////;
0191068480999992011013106004+46950+009600FM-12+137099999V02099999999992200019N0250001N1+99999+99999999999ADDAJ100109199999999AL19900091GA1001+999999999GF100991001001999999001001GG1079001009019999IA1309REMSYN086AAXX  31064 06848 42975 0//// 1//// 2//// 3//// 5//// 333 42010 90768 93100 444 27101;
0118068480999992011013107004+46950+009600FM-12+137099999V02099999999992200019N0300001N1+99999+99999999999ADDGA1001+999999999GF100991001001999999001001REMSYN064AAXX  31074 06848 42980 0//// 1//// 2//// 3//// 5//// 444 77081;
0118068480999992011013108004+46950+009600FM-12+137099999V02099999999992200019N0300001N1+99999+99999999999ADDGA1001+999999999GF100991001001999999001001REMSYN064AAXX  31084 06848 42980 0//// 1//// 2//// 3//// 5//// 444 77094;
0118068480999992011013109004+46950+009600FM-12+137099999V02099999999992200019N0350001N1+99999+99999999999ADDGA1001+999999999GF100991001001999999001001REMSYN064AAXX  31094 06848 42981 0//// 1//// 2//// 3//// 5//// 444 67094;
0118068480999992011013110004+46950+009600FM-12+137099999V02099999999992200019N0350001N1+99999+99999999999ADDGA1001+999999999GF100991001001999999001001REMSYN064AAXX  31104 06848 42981 0//// 1//// 2//// 3//// 5//// 444 67094;
0118068480999992011013111004+46950+009600FM-12+137099999V02099999999992200019N0350001N1+99999+99999999999ADDGA1001+999999999GF100991001001999999001001REMSYN064AAXX  31114 06848 42981 0//// 1//// 2//// 3//// 5//// 444 67094;
0118068480999992011013112004+46950+009600FM-12+137099999V02099999999992200019N0350001N1+99999+99999999999ADDGA1001+999999999GF100991001001999999001001REMSYN064AAXX  31124 06848 42981 0//// 1//// 2//// 3//// 5//// 444 56094;
0118068480999992011013113004+46950+009600FM-12+137099999V02099999999992200019N0400001N1+99999+99999999999ADDGA1001+999999999GF100991001001999999001001REMSYN064AAXX  31134 06848 42982 0//// 1//// 2//// 3//// 5//// 444 57094;
0118068480999992011013114004+46950+009600FM-12+137099999V02099999999992200019N0400001N1+99999+99999999999ADDGA1001+999999999GF100991001001999999001001REMSYN064AAXX  31144 06848 42982 0//// 1//// 2//// 3//// 5//// 444 57094;
0118068480999992011013115004+46950+009600FM-12+137099999V02099999999992200019N0350001N1+99999+99999999999ADDGA1001+999999999GF100991001001999999001001REMSYN064AAXX  31154 06848 42981 0//// 1//// 2//// 3//// 5//// 444 57094;
0118068480999992011013116004+46950+009600FM-12+137099999V02099999999992200019N0300001N1+99999+99999999999ADDGA1001+999999999GF100991001001999999001001REMSYN064AAXX  31164 06848 42980 0//// 1//// 2//// 3//// 5//// 444 67094;
0118068480999992011013117004+46950+009600FM-12+137099999V02099999999992200019N0250001N1+99999+99999999999ADDGA1001+999999999GF100991001001999999001001REMSYN064AAXX  31174 06848 42975 0//// 1//// 2//// 3//// 5//// 444 87101;
0191068480999992011013118004+46950+009600FM-12+137099999V02099999999992200019N0250001N1+99999+99999999999ADDAJ100109199999999AL19900091GA1001+999999999GF100991001001999999001001GG1079001009019999IA1229REMSYN086AAXX  31184 06848 42975 0//// 1//// 2//// 3//// 5//// 333 46010 90766 93100 444 87101;
0118068480999992011013119004+46950+009600FM-12+137099999V02099999999992200019N0250001N1+99999+99999999999ADDGA1001+999999999GF100991001001999999001001REMSYN064AAXX  31194 06848 42975 0//// 1//// 2//// 3//// 5//// 444 87101;
0118068480999992011013120004+46950+009600FM-12+137099999V02099999999992200019N0250001N1+99999+99999999999ADDGA1001+999999999GF100991001001999999001001REMSYN064AAXX  31204 06848 42975 0//// 1//// 2//// 3//// 5//// 444 87101;
0118068480999992011020104004+46950+009600FM-12+137099999V02099999999992200019N0250001N1+99999+99999999999ADDGA1001+999999999GF100991001001999999001001REMSYN064AAXX  01044 06848 42975 0//// 1//// 2//// 3//// 5//// 444 77084;
0118068480999992011020105004+46950+009600FM-12+137099999V02099999999992200019N0250001N1+99999+99999999999ADDGA1001+999999999GF100991001001999999001001REMSYN064AAXX  01054 06848 42975 0//// 1//// 2//// 3//// 5//// 444 77084;
0191068480999992011020106004+46950+009600FM-12+137099999V02099999999992200019N0250001N1+99999+99999999999ADDAJ100109199999999AL19900091GA1001+999999999GF100991001001999999001001GG1079094009009999IA1229REMSYN086AAXX  01064 06848 42975 0//// 1//// 2//// 3//// 5//// 333 46010 90768 93100 444 77094;
0118068480999992011020107004+46950+009600FM-12+137099999V02099999999992200019N0300001N1+99999+99999999999ADDGA1001+999999999GF100991001001999999001001REMSYN064AAXX  01074 06848 42980 0//// 1//// 2//// 3//// 5//// 444 77094;
0118068480999992011020108004+46950+009600FM-12+137099999V02099999999992200019N0350001N1+99999+99999999999ADDGA1001+999999999GF100991001001999999001001REMSYN064AAXX  01084 06848 42981 0//// 1//// 2//// 3//// 5//// 444 57094;
0118068480999992011020109004+46950+009600FM-12+137099999V02099999999992200019N0350001N1+99999+99999999999ADDGA1001+999999999GF100991001001999999001001REMSYN064AAXX  01094 06848 42981 0//// 1//// 2//// 3//// 5//// 444 47094;
0118068480999992011020110004+46950+009600FM-12+137099999V02099999999992200019N0350001N1+99999+99999999999ADDGA1001+999999999GF100991001001999999001001REMSYN064AAXX  01104 06848 42981 0//// 1//// 2//// 3//// 5//// 444 37094;
0118068480999992011020111004+46950+009600FM-12+137099999V02099999999992200019N0350001N1+99999+99999999999ADDGA1001+999999999GF100991001001999999001001REMSYN064AAXX  01114 06848 42981 0//// 1//// 2//// 3//// 5//// 444 27094;
