0137068470999992010012610004+46783+008050FM-12+228099999V0201401N002119999999N9999999N1-00991-02481999999ADDMA1999999071211MD1710111+9999ME1430199OA149900771REMSYN076AAXX  26104 06847 43/// /1404 11099 21248 37121 47019 57011 333 91115 91210;
0137068470999992010012611004+46783+008050FM-12+228099999V0201701N001519999999N9999999N1-01001-02241999999ADDMA1999999071151MD1710151+9999ME1430139OA149900771REMSYN076AAXX  26114 06847 43/// /1703 11100 21224 37115 47013 57015 333 91115 91210;
0136068470999992010012612004+46783+008050FM-12+228099999V02099999999990003019N0002001N1+99999+99999999999ADDAY171061AY241061GA1091+999999999GF109991091999999999999999MW1711REMSYN060AAXX  26124 06847 41/02 9//// 1//// 2//// 3//// 5//// 77174;
0136068470999992010012613004+46783+008050FM-12+228099999V02099999999990003019N0002001N1+99999+99999999999ADDAY171011AY241011GA1091+999999999GF109991091999999999999999MW1711REMSYN060AAXX  26134 06847 41/02 9//// 1//// 2//// 3//// 5//// 77174;
0136068470999992010012614004+46783+008050FM-12+228099999V02099999999990003019N0002001N1+99999+99999999999ADDAY171021AY241021GA1091+999999999GF109991091999999999999999MW1711REMSYN060AAXX  26144 06847 41/02 9//// 1//// 2//// 3//// 5//// 77174;
0136068470999992010012615004+46783+008050FM-12+228099999V02099999999990001519N0001001N1+99999+99999999999ADDAY141031AY241031GA1091+999999999GF109991091999999999999999MW1451REMSYN060AAXX  26154 06847 41/01 9//// 1//// 2//// 3//// 5//// 74544;
0136068470999992010012616004+46783+008050FM-12+228099999V02099999999990001519N0001001N1+99999+99999999999ADDAY141011AY241011GA1091+999999999GF109991091999999999999999MW1451REMSYN060AAXX  26164 06847 41/01 9//// 1//// 2//// 3//// 5//// 74544;
0136068470999992010012617004+46783+008050FM-12+228099999V02099999999990001519N0001001N1+99999+99999999999ADDAY171021AY241021GA1091+999999999GF109991091999999999999999MW1451REMSYN060AAXX  26174 06847 41/01 9//// 1//// 2//// 3//// 5//// 74574;
0181068470999992010012618004+46783+008050FM-12+228099999V02099999999990001519N0001001N1+99999+99999999999ADDAJ101019199999999AY171061AY241061GA1091+999999999GF109991091999999999999999IA1239MW1451REMSYN082AAXX  26184 06847 41/01 9//// 1//// 2//// 3//// 5//// 74574 333 47101 90766 93101;
0136068470999992010012619004+46783+008050FM-12+228099999V02099999999990001519N0001001N1+99999+99999999999ADDAY141011AY231011GA1091+999999999GF109991091999999999999999MW1451REMSYN060AAXX  26194 06847 41/01 9//// 1//// 2//// 3//// 5//// 74543;
0136068470999992010012620004+46783+008050FM-12+228099999V02099999999990001519N0001001N1+99999+99999999999ADDAY141021AY231021GA1091+999999999GF109991091999999999999999MW1491REMSYN060AAXX  26204 06847 41/01 9//// 1//// 2//// 3//// 5//// 74943;
0180068470999992010012621004+46783+008050FM-12+228099999V02099999999992200019N0170001N1+99999+99999999999ADDAY141031AY231031GA1041+033001041GF104991041001999999011001GG1079004009029999MW1381REMSYN086AAXX  26214 06847 41967 4//// 1//// 2//// 3//// 5//// 73843 84010 333 84461 444 87204;
0180068470999992010012700004+46783+008050FM-12+228099999V02099999999992200019N0170001N1+99999+99999999999ADDAY141061AY231061GA1041+033001041GF104991041001999999011001GG1079004009029999MW1381REMSYN086AAXX  27004 06847 41967 4//// 1//// 2//// 3//// 5//// 73843 84010 333 84461 444 87204;
0180068470999992010012703004+46783+008050FM-12+228099999V02099999999992200019N0170001N1+99999+99999999999ADDAY141031AY231031GA1041+033001041GF104991041001999999011001GG1079004009029999MW1381REMSYN086AAXX  27034 06847 41967 4//// 1//// 2//// 3//// 5//// 73843 84010 333 84461 444 87204;
0213068470999992010012706004+46783+008050FM-12+228099999V02099999999992200019N0170001N1+99999+99999999999ADDAJ101029199999999AL19900191AY141061AY231061GA1041+033001041GF104991041001999999011001IA1239MW1381REMSYN104AAXX  27064 06847 41967 4//// 1//// 2//// 3//// 5//// 73843 84010 333 47102 84461 90768 93101 444 87204;
0134068470999992010012707004+46783+008050FM-12+228099999V02099999999992200019N0170001N1+99999+99999999999ADDGA1031+033001041GF103991031001999999011001REMSYN080AAXX  27074 06847 42967 3//// 1//// 2//// 3//// 5//// 83010 333 83461 444 87204;
0134068470999992010012708004+46783+008050FM-12+228099999V02099999999992200019N0300001N1+99999+99999999999ADDGA1031+045001021GF103991001001999999001051REMSYN080AAXX  27084 06847 42980 3//// 1//// 2//// 3//// 5//// 80005 333 83265 444 87194;
0134068470999992010012709004+46783+008050FM-12+228099999V02099999999992200019N0300001N1+99999+99999999999ADDGA1031+045001021GF103991001001999999001051REMSYN080AAXX  27094 06847 42980 3//// 1//// 2//// 3//// 5//// 80005 333 83265 444 87194;
0134068470999992010012710004+46783+008050FM-12+228099999V02099999999990480019N0300001N1+99999+99999999999ADDGA1051+048001021GF106991001001999999001061REMSYN080AAXX  27104 06847 42980 6//// 1//// 2//// 3//// 5//// 80006 333 85266 444 87194;
0134068470999992010012711004+46783+008050FM-12+228099999V02099999999990450019N0300001N1+99999+99999999999ADDGA1061+045001021GF106991001001999999001061REMSYN080AAXX  27114 06847 42980 6//// 1//// 2//// 3//// 5//// 80006 333 86265 444 87194;
0134068470999992010012712004+46783+008050FM-12+228099999V02099999999990450019N0300001N1+99999+99999999999ADDGA1061+045001021GF106991001001999999001061REMSYN080AAXX  27124 06847 42980 6//// 1//// 2//// 3//// 5//// 80006 333 86265 444 77152;
0134068470999992010012713004+46783+008050FM-12+228099999V02099999999990360019N0300001N1+99999+99999999999ADDGA1071+036001021GF107991001001999999001061REMSYN080AAXX  27134 06847 42980 7//// 1//// 2//// 3//// 5//// 80006 333 87262 444 77132;
0134068470999992010012714004+46783+008050FM-12+228099999V02099999999990360019N0300001N1+99999+99999999999ADDGA1071+036001021GF107991001001999999001061REMSYN080AAXX  27144 06847 42980 7//// 1//// 2//// 3//// 5//// 80006 333 87262 444 77112;
0134068470999992010012715004+46783+008050FM-12+228099999V02099999999990330019N0300001N1+99999+99999999999ADDGA1071+033001021GF107991001001999999001061REMSYN080AAXX  27154 06847 42980 7//// 1//// 2//// 3//// 5//// 80006 333 87261 444 77112;
0174068470999992010012716004+46783+008050FM-12+228099999V02099999999990420019N0250001N1+99999+99999999999ADDGA1041+024001041GA2081+042001021GF108991041001999999041061GG1079022009019999REMSYN086AAXX  27164 06847 42975 8//// 1//// 2//// 3//// 5//// 84046 333 84458 88264 444 67122;
0174068470999992010012717004+46783+008050FM-12+228099999V02099999999990420019N0250001N1+99999+99999999999ADDGA1041+024001021GA2081+042001021GF108991041001999999041061GG1079022009019999REMSYN086AAXX  27174 06847 42975 8//// 1//// 2//// 3//// 5//// 84046 333 84258 88264 444 67122;
0207068470999992010012718004+46783+008050FM-12+228099999V02099999999990180019N0170001N1+99999+99999999999ADDAJ101019199999999AL19900091GA1051+018001041GA2081+042001021GF108991051001017501041061IA1239REMSYN104AAXX  27184 06847 42767 8//// 1//// 2//// 3//// 5//// 85046 333 47101 85456 88264 90766 93100 444 67122;
0174068470999992010012719004+46783+008050FM-12+228099999V02099999999990180019N0150001N1+99999+99999999999ADDGA1051+018001041GA2081+042001021GF108991051001017501041061GG1079022009019999REMSYN086AAXX  27194 06847 42765 8//// 1//// 2//// 3//// 5//// 85046 333 85456 88264 444 67122;
0134068470999992010012720004+46783+008050FM-12+228099999V02099999999990150019N0150001N1+99999+99999999999ADDGA1081+015001041GF108991081001017501011999REMSYN080AAXX  27204 06847 42765 8//// 1//// 2//// 3//// 5//// 8801/ 333 88450 444 77132;
0180068470999992010012721004+46783+008050FM-12+228099999V02099999999990132019N0100001N1+99999+99999999999ADDAY121031AY221031GA1081+013201041GF108991081001012501011999GG1079013009019999MW1101REMSYN086AAXX  27214 06847 41660 8//// 1//// 2//// 3//// 5//// 71022 8801/ 333 88444 444 47113;
0180068470999992010012800004+46783+008050FM-12+228099999V02099999999990111019N0150001N1+99999+99999999999ADDAY121061AY221061GA1081+011101041GF108991081001012501011999GG1079013009019999MW1101REMSYN086AAXX  28004 06847 41665 8//// 1//// 2//// 3//// 5//// 71022 8801/ 333 88437 444 47113;
0136068470999992010012803004+46783+008050FM-12+228099999V02099999999990003019N0005001N1+99999+99999999999ADDAY171031AY241031GA1091+999999999GF109991091999999999999999MW1731REMSYN060AAXX  28034 06847 41/05 9//// 1//// 2//// 3//// 5//// 77374;
0152068470999992010012806004+46783+008050FM-12+228099999V02099999999990003019N0003001N1+99999+99999999999ADDAY171061AY241061GA1091+999999999GF109991091999999999999999IA1239MW1731REMSYN070AAXX  28064 06847 41/03 9//// 1//// 2//// 3//// 5//// 77374 333 47///;
0136068470999992010012807004+46783+008050FM-12+228099999V02099999999990003019N0005001N1+99999+99999999999ADDAY171011AY241011GA1091+999999999GF109991091999999999999999MW1731REMSYN060AAXX  28074 06847 41/05 9//// 1//// 2//// 3//// 5//// 77374;
0136068470999992010012808004+46783+008050FM-12+228099999V02099999999990003019N0004001N1+99999+99999999999ADDAY171021AY241021GA1091+999999999GF109991091999999999999999MW1771REMSYN060AAXX  28084 06847 41/04 9//// 1//// 2//// 3//// 5//// 77774;
0136068470999992010012809004+46783+008050FM-12+228099999V02099999999990003019N0004001N1+99999+99999999999ADDAY171031AY241031GA1091+999999999GF109991091999999999999999MW1731REMSYN060AAXX  28094 06847 41/04 9//// 1//// 2//// 3//// 5//// 77374;
0136068470999992010012810004+46783+008050FM-12+228099999V02099999999990003019N0003001N1+99999+99999999999ADDAY171011AY241011GA1091+999999999GF109991091999999999999999MW1731REMSYN060AAXX  28104 06847 41/03 9//// 1//// 2//// 3//// 5//// 77374;
0136068470999992010012811004+46783+008050FM-12+228099999V02099999999990003019N0003001N1+99999+99999999999ADDAY171021AY241021GA1091+999999999GF109991091999999999999999MW1731REMSYN060AAXX  28114 06847 41/03 9//// 1//// 2//// 3//// 5//// 77374;
0136068470999992010012812004+46783+008050FM-12+228099999V02099999999990006019N0006001N1+99999+99999999999ADDAY171061AY241061GA1091+999999999GF109991091999999999999999MW1491REMSYN060AAXX  28124 06847 41/06 9//// 1//// 2//// 3//// 5//// 74974;
0136068470999992010012813004+46783+008050FM-12+228099999V02099999999990006019N0006001N1+99999+99999999999ADDAY141011AY231011GA1091+999999999GF109991091999999999999999MW1491REMSYN060AAXX  28134 06847 41/06 9//// 1//// 2//// 3//// 5//// 74943;
0136068470999992010012814004+46783+008050FM-12+228099999V02099999999990003019N0005001N1+99999+99999999999ADDAY171021AY241021GA1091+999999999GF109991091999999999999999MW1701REMSYN060AAXX  28144 06847 41/05 9//// 1//// 2//// 3//// 5//// 77074;
0136068470999992010012815004+46783+008050FM-12+228099999V02099999999990003019N0003001N1+99999+99999999999ADDAY171031AY241031GA1091+999999999GF109991091999999999999999MW1711REMSYN060AAXX  28154 06847 41/03 9//// 1//// 2//// 3//// 5//// 77174;
0136068470999992010012816004+46783+008050FM-12+228099999V02099999999990003019N0002001N1+99999+99999999999ADDAY171011AY241011GA1091+999999999GF109991091999999999999999MW1701REMSYN060AAXX  28164 06847 41/02 9//// 1//// 2//// 3//// 5//// 77074;
0136068470999992010012817004+46783+008050FM-12+228099999V02099999999990003019N0002001N1+99999+99999999999ADDAY171021AY241021GA1091+999999999GF109991091999999999999999MW1711REMSYN060AAXX  28174 06847 41/02 9//// 1//// 2//// 3//// 5//// 77174;
0181068470999992010012818004+46783+008050FM-12+228099999V02099999999990003019N0002001N1+99999+99999999999ADDAJ101169199999999AY171061AY241061GA1091+999999999GF109991091999999999999999IA1239MW1711REMSYN082AAXX  28184 06847 41/02 9//// 1//// 2//// 3//// 5//// 77174 333 47116 90766 93115;
0136068470999992010012819004+46783+008050FM-12+228099999V02099999999990003019N0002001N1+99999+99999999999ADDAY171011AY241011GA1091+999999999GF109991091999999999999999MW1711REMSYN060AAXX  28194 06847 41/02 9//// 1//// 2//// 3//// 5//// 77174;
0136068470999992010012820004+46783+008050FM-12+228099999V02099999999990003019N0002001N1+99999+99999999999ADDAY171021AY241021GA1091+999999999GF109991091999999999999999MW1711REMSYN060AAXX  28204 06847 41/02 9//// 1//// 2//// 3//// 5//// 77174;
0136068470999992010012821004+46783+008050FM-12+228099999V02099999999990003019N0002001N1+99999+99999999999ADDAY171031AY241031GA1091+999999999GF109991091999999999999999MW1711REMSYN060AAXX  28214 06847 41/02 9//// 1//// 2//// 3//// 5//// 77174;
0136068470999992010012900004+46783+008050FM-12+228099999V02099999999990003019N0002001N1+99999+99999999999ADDAY171061AY241061GA1091+999999999GF109991091999999999999999MW1711REMSYN060AAXX  29004 06847 41/02 9//// 1//// 2//// 3//// 5//// 77174;
0136068470999992010012903004+46783+008050FM-12+228099999V02099999999990003019N0004001N1+99999+99999999999ADDAY171031AY241031GA1091+999999999GF109991091999999999999999MW1491REMSYN060AAXX  29034 06847 41/04 9//// 1//// 2//// 3//// 5//// 74974;
0181068470999992010012906004+46783+008050FM-12+228099999V02099999999990006019N0009001N1+99999+99999999999ADDAJ101109199999999AY141061AY231061GA1091+999999999GF109991091999999999999999IA1239MW1491REMSYN082AAXX  29064 06847 41/09 9//// 1//// 2//// 3//// 5//// 74943 333 47110 90768 93101;
0136068470999992010012907004+46783+008050FM-12+228099999V02099999999990006019N0008001N1+99999+99999999999ADDAY141011AY231011GA1091+999999999GF109991091999999999999999MW1491REMSYN060AAXX  29074 06847 41/08 9//// 1//// 2//// 3//// 5//// 74943;
0136068470999992010012908004+46783+008050FM-12+228099999V02099999999990006019N0009001N1+99999+99999999999ADDAY141021AY231021GA1091+999999999GF109991091999999999999999MW1491REMSYN060AAXX  29084 06847 41/09 9//// 1//// 2//// 3//// 5//// 74943;
0136068470999992010012909004+46783+008050FM-12+228099999V02099999999990006019N0009001N1+99999+99999999999ADDAY141031AY231031GA1091+999999999GF109991091999999999999999MW1491REMSYN060AAXX  29094 06847 41/09 9//// 1//// 2//// 3//// 5//// 74943;
0136068470999992010012910004+46783+008050FM-12+228099999V02099999999990006019N0009001N1+99999+99999999999ADDAY141011AY231011GA1091+999999999GF109991091999999999999999MW1491REMSYN060AAXX  29104 06847 41/09 9//// 1//// 2//// 3//// 5//// 74943;
0136068470999992010012911004+46783+008050FM-12+228099999V02099999999990006019N0008001N1+99999+99999999999ADDAY141021AY231021GA1091+999999999GF109991091999999999999999MW1491REMSYN060AAXX  29114 06847 41/08 9//// 1//// 2//// 3//// 5//// 74943;
0136068470999992010012912004+46783+008050FM-12+228099999V02099999999990003019N0004001N1+99999+99999999999ADDAY141061AY231061GA1091+999999999GF109991091999999999999999MW1451REMSYN060AAXX  29124 06847 41/04 9//// 1//// 2//// 3//// 5//// 74543;
0136068470999992010012913004+46783+008050FM-12+228099999V02099999999990003019N0005001N1+99999+99999999999ADDAY171011AY241011GA1091+999999999GF109991091999999999999999MW1701REMSYN060AAXX  29134 06847 41/05 9//// 1//// 2//// 3//// 5//// 77074;
0136068470999992010012914004+46783+008050FM-12+228099999V02099999999990003019N0002001N1+99999+99999999999ADDAY171021AY241021GA1091+999999999GF109991091999999999999999MW1711REMSYN060AAXX  29144 06847 41/02 9//// 1//// 2//// 3//// 5//// 77174;
0136068470999992010012915004+46783+008050FM-12+228099999V02099999999990001519N0001001N1+99999+99999999999ADDAY171031AY241031GA1091+999999999GF109991091999999999999999MW1731REMSYN060AAXX  29154 06847 41/01 9//// 1//// 2//// 3//// 5//// 77374;
0136068470999992010012916004+46783+008050FM-12+228099999V02099999999990001519N0001001N1+99999+99999999999ADDAY171011AY241011GA1091+999999999GF109991091999999999999999MW1731REMSYN060AAXX  29164 06847 41/01 9//// 1//// 2//// 3//// 5//// 77374;
0136068470999992010012917004+46783+008050FM-12+228099999V02099999999990001519N0001001N1+99999+99999999999ADDAY171021AY241021GA1091+999999999GF109991091999999999999999MW1731REMSYN060AAXX  29174 06847 41/01 9//// 1//// 2//// 3//// 5//// 77374;
0181068470999992010012918004+46783+008050FM-12+228099999V02099999999990001519N0001001N1+99999+99999999999ADDAJ101119199999999AY171061AY241061GA1091+999999999GF109991091999999999999999IA1239MW1731REMSYN082AAXX  29184 06847 41/01 9//// 1//// 2//// 3//// 5//// 77374 333 47111 90766 93101;
0136068470999992010012919004+46783+008050FM-12+228099999V02099999999990001519N0001001N1+99999+99999999999ADDAY171011AY241011GA1091+999999999GF109991091999999999999999MW1731REMSYN060AAXX  29194 06847 41/01 9//// 1//// 2//// 3//// 5//// 77374;
0128068470999992010012920004+46783+008050FM-12+228099999V02099999999990001519N0001001N1+99999+99999999999ADDAY171021GA1091+999999999GF109991091999999999999999MW1721REMSYN060AAXX  29204 06847 41/01 9//// 1//// 2//// 3//// 5//// 7727/;
0136068470999992010012921004+46783+008050FM-12+228099999V02099999999990001519N0001001N1+99999+99999999999ADDAY171031AY241031GA1091+999999999GF109991091999999999999999MW1731REMSYN060AAXX  29214 06847 41/01 9//// 1//// 2//// 3//// 5//// 77374;
0136068470999992010013000004+46783+008050FM-12+228099999V02099999999990001519N0001001N1+99999+99999999999ADDAY171061AY241061GA1091+999999999GF109991091999999999999999MW1711REMSYN060AAXX  30004 06847 41/01 9//// 1//// 2//// 3//// 5//// 77174;
0136068470999992010013003004+46783+008050FM-12+228099999V02099999999990003019N0002001N1+99999+99999999999ADDAY171031AY241031GA1091+999999999GF109991091999999999999999MW1711REMSYN060AAXX  30034 06847 41/02 9//// 1//// 2//// 3//// 5//// 77174;
0181068470999992010013006004+46783+008050FM-12+228099999V02099999999990003019N0002001N1+99999+99999999999ADDAJ101309199999999AY171061AY241061GA1091+999999999GF109991091999999999999999IA1239MW1711REMSYN082AAXX  30064 06847 41/02 9//// 1//// 2//// 3//// 5//// 77174 333 47130 90768 93120;
0136068470999992010013007004+46783+008050FM-12+228099999V02099999999990003019N0003001N1+99999+99999999999ADDAY171011AY241011GA1091+999999999GF109991091999999999999999MW1711REMSYN060AAXX  30074 06847 41/03 9//// 1//// 2//// 3//// 5//// 77174;
0136068470999992010013008004+46783+008050FM-12+228099999V02099999999990003019N0002001N1+99999+99999999999ADDAY171021AY241021GA1091+999999999GF109991091999999999999999MW1731REMSYN060AAXX  30084 06847 41/02 9//// 1//// 2//// 3//// 5//// 77374;
0136068470999992010013009004+46783+008050FM-12+228099999V02099999999990003019N0002001N1+99999+99999999999ADDAY171031AY241031GA1091+999999999GF109991091999999999999999MW1721REMSYN060AAXX  30094 06847 41/02 9//// 1//// 2//// 3//// 5//// 77274;
0136068470999992010013010004+46783+008050FM-12+228099999V02099999999990003019N0002001N1+99999+99999999999ADDAY171011AY241011GA1091+999999999GF109991091999999999999999MW1711REMSYN060AAXX  30104 06847 41/02 9//// 1//// 2//// 3//// 5//// 77174;
0136068470999992010013011004+46783+008050FM-12+228099999V02099999999990003019N0003001N1+99999+99999999999ADDAY171021AY241021GA1091+999999999GF109991091999999999999999MW1731REMSYN060AAXX  30114 06847 41/03 9//// 1//// 2//// 3//// 5//// 77374;
0136068470999992010013012004+46783+008050FM-12+228099999V02099999999990003019N0002001N1+99999+99999999999ADDAY171061AY241061GA1091+999999999GF109991091999999999999999MW1711REMSYN060AAXX  30124 06847 41/02 9//// 1//// 2//// 3//// 5//// 77174;
0136068470999992010013013004+46783+008050FM-12+228099999V02099999999990006019N0008001N1+99999+99999999999ADDAY171011AY241011GA1091+999999999GF109991091999999999999999MW1701REMSYN060AAXX  30134 06847 41/08 9//// 1//// 2//// 3//// 5//// 77074;
0136068470999992010013014004+46783+008050FM-12+228099999V02099999999990003019N0002001N1+99999+99999999999ADDAY171021AY241021GA1091+999999999GF109991091999999999999999MW1701REMSYN060AAXX  30144 06847 41/02 9//// 1//// 2//// 3//// 5//// 77074;
0136068470999992010013015004+46783+008050FM-12+228099999V02099999999990001519N0001001N1+99999+99999999999ADDAY171031AY241031GA1091+999999999GF109991091999999999999999MW1711REMSYN060AAXX  30154 06847 41/01 9//// 1//// 2//// 3//// 5//// 77174;
0136068470999992010013016004+46783+008050FM-12+228099999V02099999999990003019N0002001N1+99999+99999999999ADDAY171011AY241011GA1091+999999999GF109991091999999999999999MW1711REMSYN060AAXX  30164 06847 41/02 9//// 1//// 2//// 3//// 5//// 77174;
0136068470999992010013017004+46783+008050FM-12+228099999V02099999999990001519N0001001N1+99999+99999999999ADDAY141021AY241021GA1091+999999999GF109991091999999999999999MW1451REMSYN060AAXX  30174 06847 41/01 9//// 1//// 2//// 3//// 5//// 74544;
0181068470999992010013018004+46783+008050FM-12+228099999V02099999999990003019N0002001N1+99999+99999999999ADDAJ101359199999999AY171061AY241061GA1091+999999999GF109991091999999999999999IA1239MW1711REMSYN082AAXX  30184 06847 41/02 9//// 1//// 2//// 3//// 5//// 77174 333 47135 90766 93105;
0136068470999992010013019004+46783+008050FM-12+228099999V02099999999990003019N0002001N1+99999+99999999999ADDAY171011AY241011GA1091+999999999GF109991091999999999999999MW1711REMSYN060AAXX  30194 06847 41/02 9//// 1//// 2//// 3//// 5//// 77174;
0136068470999992010013020004+46783+008050FM-12+228099999V02099999999990001519N0001001N1+99999+99999999999ADDAY171021AY241021GA1091+999999999GF109991091999999999999999MW1711REMSYN060AAXX  30204 06847 41/01 9//// 1//// 2//// 3//// 5//// 77174;
0136068470999992010013021004+46783+008050FM-12+228099999V02099999999990003019N0002001N1+99999+99999999999ADDAY171031AY241031GA1091+999999999GF109991091999999999999999MW1711REMSYN060AAXX  30214 06847 41/02 9//// 1//// 2//// 3//// 5//// 77174;
0136068470999992010013100004+46783+008050FM-12+228099999V02099999999990003019N0002001N1+99999+99999999999ADDAY171061AY241061GA1091+999999999GF109991091999999999999999MW1451REMSYN060AAXX  31004 06847 41/02 9//// 1//// 2//// 3//// 5//// 74574;
0136068470999992010013103004+46783+008050FM-12+228099999V02099999999990001519N0001001N1+99999+99999999999ADDAY171031AY241031GA1091+999999999GF109991091999999999999999MW1491REMSYN060AAXX  31034 06847 41/01 9//// 1//// 2//// 3//// 5//// 74974;
0213068470999992010013106004+46783+008050FM-12+228099999V02099999999990102019N0170001N1+99999+99999999999ADDAJ101409199999999AL19900091AY171061AY241061GA1071+010201041GF107991071001012501011001IA1239MW1011REMSYN104AAXX  31064 06847 41667 7//// 1//// 2//// 3//// 5//// 70174 87010 333 47140 87434 90768 93100 444 16109;
0134068470999992010013107004+46783+008050FM-12+228099999V02099999999990102019N0250001N1+99999+99999999999ADDGA1071+010201041GF107991071001012501011999REMSYN080AAXX  31074 06847 42675 7//// 1//// 2//// 3//// 5//// 8701/ 333 87434 444 16109;
0134068470999992010013108004+46783+008050FM-12+228099999V02099999999990102019N0250001N1+99999+99999999999ADDGA1071+010201041GF107991071001012501011999REMSYN080AAXX  31084 06847 42675 7//// 1//// 2//// 3//// 5//// 8701/ 333 87434 444 16129;
0134068470999992010013109004+46783+008050FM-12+228099999V02099999999990093019N0250001N1+99999+99999999999ADDGA1071+009301041GF107991071001008001011999REMSYN080AAXX  31094 06847 42575 7//// 1//// 2//// 3//// 5//// 8701/ 333 87431 444 16109;
0136068470999992010013110004+46783+008050FM-12+228099999V02099999999990006019N0009001N1+99999+99999999999ADDAY121011AY221011GA1091+999999999GF109991091999999999999999MW1471REMSYN060AAXX  31104 06847 41/09 9//// 1//// 2//// 3//// 5//// 74722;
0152068470999992010013111004+46783+008050FM-12+228099999V02099999999990021019N0040001N1+99999+99999999999ADDAY141021AY221021GA1081+002101041GF108991081001002501021999MW1101REMSYN076AAXX  31114 06847 41340 8//// 1//// 2//// 3//// 5//// 71042 8802/ 333 88407;
0136068470999992010013112004+46783+008050FM-12+228099999V02099999999990006019N0009001N1+99999+99999999999ADDAY141061AY221061GA1091+999999999GF109991091999999999999999MW1471REMSYN060AAXX  31124 06847 41/09 9//// 1//// 2//// 3//// 5//// 74742;
0136068470999992010013113004+46783+008050FM-12+228099999V02099999999990006019N0009001N1+99999+99999999999ADDAY141011AY221011GA1091+999999999GF109991091999999999999999MW1451REMSYN060AAXX  31134 06847 41/09 9//// 1//// 2//// 3//// 5//// 74542;
0136068470999992010013114004+46783+008050FM-12+228099999V02099999999990003019N0002001N1+99999+99999999999ADDAY141021AY241021GA1091+999999999GF109991091999999999999999MW1471REMSYN060AAXX  31144 06847 41/02 9//// 1//// 2//// 3//// 5//// 74744;
0136068470999992010013115004+46783+008050FM-12+228099999V02099999999990003019N0002001N1+99999+99999999999ADDAY141031AY241031GA1091+999999999GF109991091999999999999999MW1451REMSYN060AAXX  31154 06847 41/02 9//// 1//// 2//// 3//// 5//// 74544;
0136068470999992010013116004+46783+008050FM-12+228099999V02099999999990003019N0002001N1+99999+99999999999ADDAY141011AY241011GA1091+999999999GF109991091999999999999999MW1451REMSYN060AAXX  31164 06847 41/02 9//// 1//// 2//// 3//// 5//// 74544;
0136068470999992010013117004+46783+008050FM-12+228099999V02099999999990006019N0008001N1+99999+99999999999ADDAY141021AY241021GA1091+999999999GF109991091999999999999999MW1451REMSYN060AAXX  31174 06847 41/08 9//// 1//// 2//// 3//// 5//// 74544;
0181068470999992010013118004+46783+008050FM-12+228099999V02099999999990006019N0009001N1+99999+99999999999ADDAJ101419199999999AY141061AY241061GA1091+999999999GF109991091999999999999999IA1239MW1431REMSYN082AAXX  31184 06847 41/09 9//// 1//// 2//// 3//// 5//// 74344 333 47141 90766 93101;
0180068470999992010013119004+46783+008050FM-12+228099999V02099999999990180019N0030001N1+99999+99999999999ADDAY141011AY211011GA1071+018001031GF107991071001017501071999GG1079085009019999MW1101REMSYN086AAXX  31194 06847 41730 7//// 1//// 2//// 3//// 5//// 71041 8707/ 333 87356 444 67185;
0180068470999992010013120004+46783+008050FM-12+228099999V02099999999990180019N0040001N1+99999+99999999999ADDAY121021AY221021GA1071+018001031GF107991071001017501071999GG1079085009019999MW1101REMSYN086AAXX  31204 06847 41740 7//// 1//// 2//// 3//// 5//// 71022 8707/ 333 87356 444 67185;
0164068470999992010013121004+46783+008050FM-12+228099999V02099999999992200019N0140001N1+99999+99999999999ADDAY141031AY211031GA1001+999999999GF100991001001999999001001GG1079085009019999MW1011REMSYN070AAXX  31214 06847 41964 0//// 1//// 2//// 3//// 5//// 70141 444 47185;
0164068470999992010020100004+46783+008050FM-12+228099999V02099999999992200019N0140001N1+99999+99999999999ADDAY141061AY211061GA1001+999999999GF100991001001999999001001GG1079085009019999MW1021REMSYN070AAXX  01004 06847 41964 0//// 1//// 2//// 3//// 5//// 70241 444 47185;
0164068470999992010020103004+46783+008050FM-12+228099999V02099999999992200019N0140001N1+99999+99999999999ADDAY101031AY201031GA1001+999999999GF100991001001999999001001GG1079085009019999MW1101REMSYN070AAXX  01034 06847 41964 0//// 1//// 2//// 3//// 5//// 71000 444 47185;
0201068470999992010020106004+46783+008050FM-12+228099999V02099999999992200019N0140001N1+99999+99999999999ADDAJ101419199999999AL19900091AY101061AY201061GA1001+999999999GF100991001001999999001001IA1239MW1101REMSYN092AAXX  01064 06847 41964 0//// 1//// 2//// 3//// 5//// 71000 333 47141 90768 93100 444 17185;
0180068470999992010020108004+46783+008050FM-12+228099999V02099999999992200019N0140001N1+99999+99999999999ADDAY101021AY201021GA1031+018001041GF103991031001017501021001GG1079065009019999MW1101REMSYN086AAXX  01084 06847 41764 3//// 1//// 2//// 3//// 5//// 71000 83020 333 83456 444 47165;
0184068470999992010020109004+46783+008050FM-12+228099999V02099999999990450019N0160001N1+99999+99999999999ADDAY131031AY211031GA1021+021001041GA2071+045001021GF107991031001022501021061MW1381REMSYN092AAXX  01094 06847 41866 7//// 1//// 2//// 3//// 5//// 73831 83026 333 82457 87265 444 37169;
0184068470999992010020110004+46783+008050FM-12+228099999V02099999999990450019N0160001N1+99999+99999999999ADDAY131011AY221011GA1031+018001041GA2071+045001021GF107991031001017501021061MW1381REMSYN092AAXX  01104 06847 41766 7//// 1//// 2//// 3//// 5//// 73832 83026 333 83456 87265 444 27169;
0184068470999992010020111004+46783+008050FM-12+228099999V02099999999990450019N0160001N1+99999+99999999999ADDAY131021AY221021GA1031+012301061GA2071+045001021GF107991031051012501041061MW1381REMSYN092AAXX  01114 06847 41666 7//// 1//// 2//// 3//// 5//// 73832 83546 333 83641 87265 444 18160;
0184068470999992010020112004+46783+008050FM-12+228099999V02099999999990450019N0160001N1+99999+99999999999ADDAY131061AY211061GA1031+012301061GA2071+045001021GF107991031051012501001061MW1381REMSYN092AAXX  01124 06847 41666 7//// 1//// 2//// 3//// 5//// 73831 83506 333 83641 87265 444 18170;
0152068470999992010020113004+46783+008050FM-12+228099999V02099999999990042019N0050001N1+99999+99999999999ADDAY131011AY221011GA1081+004201041GF108991081001004501011999MW1381REMSYN076AAXX  01134 06847 41450 8//// 1//// 2//// 3//// 5//// 73832 8801/ 333 88414;
0136068470999992010020114004+46783+008050FM-12+228099999V02099999999990006019N0009001N1+99999+99999999999ADDAY141021AY221021GA1091+999999999GF109991091999999999999999MW1471REMSYN060AAXX  01144 06847 41/09 9//// 1//// 2//// 3//// 5//// 74742;
0136068470999992010020115004+46783+008050FM-12+228099999V02099999999990003019N0003001N1+99999+99999999999ADDAY141031AY231031GA1091+999999999GF109991091999999999999999MW1471REMSYN060AAXX  01154 06847 41/03 9//// 1//// 2//// 3//// 5//// 74743;
0136068470999992010020116004+46783+008050FM-12+228099999V02099999999990001519N0001001N1+99999+99999999999ADDAY171011AY241011GA1091+999999999GF109991091999999999999999MW1701REMSYN060AAXX  01164 06847 41/01 9//// 1//// 2//// 3//// 5//// 77074;
0136068470999992010020117004+46783+008050FM-12+228099999V02099999999990001519N0001001N1+99999+99999999999ADDAY171021AY241021GA1091+999999999GF109991091999999999999999MW1731REMSYN060AAXX  01174 06847 41/01 9//// 1//// 2//// 3//// 5//// 77374;
0181068470999992010020118004+46783+008050FM-12+228099999V02099999999990001519N0001001N1+99999+99999999999ADDAJ101429199999999AY171061AY241061GA1091+999999999GF109991091999999999999999IA1239MW1711REMSYN082AAXX  01184 06847 41/01 9//// 1//// 2//// 3//// 5//// 77174 333 47142 90766 93101;
0136068470999992010020119004+46783+008050FM-12+228099999V02099999999990001519N0001001N1+99999+99999999999ADDAY171011AY241011GA1091+999999999GF109991091999999999999999MW1731REMSYN060AAXX  01194 06847 41/01 9//// 1//// 2//// 3//// 5//// 77374;
0136068470999992010020120004+46783+008050FM-12+228099999V02099999999990001519N0001001N1+99999+99999999999ADDAY171021AY241021GA1091+999999999GF109991091999999999999999MW1731REMSYN060AAXX  01204 06847 41/01 9//// 1//// 2//// 3//// 5//// 77374;
0136068470999992010020121004+46783+008050FM-12+228099999V02099999999990001519N0001001N1+99999+99999999999ADDAY171031AY241031GA1091+999999999GF109991091999999999999999MW1731REMSYN060AAXX  01214 06847 41/01 9//// 1//// 2//// 3//// 5//// 77374;
0136068470999992010020200004+46783+008050FM-12+228099999V02099999999990001519N0001001N1+99999+99999999999ADDAY171061AY241061GA1091+999999999GF109991091999999999999999MW1731REMSYN060AAXX  02004 06847 41/01 9//// 1//// 2//// 3//// 5//// 77374;
0136068470999992010020203004+46783+008050FM-12+228099999V02099999999990001519N0001001N1+99999+99999999999ADDAY171031AY241031GA1091+999999999GF109991091999999999999999MW1451REMSYN060AAXX  02034 06847 41/01 9//// 1//// 2//// 3//// 5//// 74574;
0193068470999992010020206004+46783+008050FM-12+228099999V02099999999990141019N0020001N1+99999+99999999999ADDAJ101519199999999AY121061AY221061GA1081+014101041GF108991081001012501021999IA1239MW1101REMSYN094AAXX  02064 06847 41620 8//// 1//// 2//// 3//// 5//// 71022 8802/ 333 47151 88447 90768 93110;
0136068470999992010020207004+46783+008050FM-12+228099999V02099999999990006019N0009001N1+99999+99999999999ADDAY141011AY221011GA1091+999999999GF109991091999999999999999MW1471REMSYN060AAXX  02074 06847 41/09 9//// 1//// 2//// 3//// 5//// 74742;
0152068470999992010020208004+46783+008050FM-12+228099999V02099999999990102019N0040001N1+99999+99999999999ADDAY141021AY221021GA1071+010201041GF107991071001012501021001MW1101REMSYN076AAXX  02084 06847 41640 7//// 1//// 2//// 3//// 5//// 71042 87020 333 87434;
0152068470999992010020209004+46783+008050FM-12+228099999V02099999999990072019N0040001N1+99999+99999999999ADDAY141031AY231031GA1071+007201041GF107991071001008001011999MW1361REMSYN076AAXX  02094 06847 41540 7//// 1//// 2//// 3//// 5//// 73643 8701/ 333 87424;
0152068470999992010020210004+46783+008050FM-12+228099999V02099999999990072019N0050001N1+99999+99999999999ADDAY121011AY221011GA1071+007201041GF107991071001008001021999MW1101REMSYN076AAXX  02104 06847 41550 7//// 1//// 2//// 3//// 5//// 71022 8702/ 333 87424;
0152068470999992010020211004+46783+008050FM-12+228099999V02099999999990033019N0050001N1+99999+99999999999ADDAY131021AY231021GA1081+003301041GF108991081001004501021999MW1381REMSYN076AAXX  02114 06847 41450 8//// 1//// 2//// 3//// 5//// 73833 8802/ 333 88411;
