0124068520999992011012417004+46817+010350FM-12+142099999V02099999999990108019N0200001N1+99999+99999999999ADDGA1061+010801061GF106991061041012501001001REMSYN070AAXX  24174 06852 42670 6//// 1//// 2//// 3//// 5//// 86400 333 86636;
0121068520999992011012418004+46817+010350FM-12+142099999V02099999999999999999N0200001N1+99999+99999999999ADDAJ100159199999999AL10600091IA1179REMSYN076AAXX  24184 06852 42/70 ///// 1//// 2//// 3//// 5//// 333 40015 90766 93100;
0078068520999992011012419004+46817+010350FM-12+142099999V02099999999999999999N0200001N1+99999+99999999999ADDMW1001REMSYN060AAXX  24194 06852 41/70 ///// 1//// 2//// 3//// 5//// 700//;
0078068520999992011012420004+46817+010350FM-12+142099999V02099999999999999999N0200001N1+99999+99999999999ADDMW1001REMSYN060AAXX  24204 06852 41/70 ///// 1//// 2//// 3//// 5//// 700//;
0078068520999992011012505004+46817+010350FM-12+142099999V02099999999999999999N0200001N1+99999+99999999999ADDMW1001REMSYN060AAXX  25054 06852 41/70 ///// 1//// 2//// 3//// 5//// 700//;
0124068520999992011012512004+46817+010350FM-12+142099999V02099999999990108019N0250001N1+99999+99999999999ADDGA1071+010801031GF107991071001012501041001REMSYN070AAXX  25124 06852 42675 7//// 1//// 2//// 3//// 5//// 87040 333 87336;
0124068520999992011012513004+46817+010350FM-12+142099999V02099999999990108019N0250001N1+99999+99999999999ADDGA1061+010801031GF106991061001012501041001REMSYN070AAXX  25134 06852 42675 6//// 1//// 2//// 3//// 5//// 86040 333 86336;
0124068520999992011012514004+46817+010350FM-12+142099999V02099999999992200019N0250001N1+99999+99999999999ADDGA1021+010801031GF102991021001012501041001REMSYN070AAXX  25144 06852 42675 2//// 1//// 2//// 3//// 5//// 82040 333 82336;
0124068520999992011012515004+46817+010350FM-12+142099999V02099999999999999999N0250001N1+99999+99999999999ADDGA1011+010801031GF106991011001012501041091REMSYN070AAXX  25154 06852 42675 6//// 1//// 2//// 3//// 5//// 81049 333 81336;
0124068520999992011012516004+46817+010350FM-12+142099999V02099999999990270019N0250001N1+99999+99999999999ADDGA1081+027001041GF108991081001999999011001REMSYN070AAXX  25164 06852 42975 8//// 1//// 2//// 3//// 5//// 88010 333 88459;
0124068520999992011012517004+46817+010350FM-12+142099999V02099999999990270019N0250001N1+99999+99999999999ADDGA1081+027001041GF108991081001999999021999REMSYN070AAXX  25174 06852 42975 8//// 1//// 2//// 3//// 5//// 8802/ 333 88459;
0124068520999992011012519004+46817+010350FM-12+142099999V02099999999990270019N0150001N1+99999+99999999999ADDGA1081+027001041GF108991081001999999011999REMSYN070AAXX  25194 06852 42965 8//// 1//// 2//// 3//// 5//// 8801/ 333 88459;
0124068520999992011012520004+46817+010350FM-12+142099999V02099999999990270019N0150001N1+99999+99999999999ADDGA1081+027001041GF108991081001999999011999REMSYN070AAXX  25204 06852 42965 8//// 1//// 2//// 3//// 5//// 8801/ 333 88459;
0136068520999992011012604004+46817+010350FM-12+142099999V02099999999990057019N0070001N1+99999+99999999999ADDGA1081+005701051GF108991081001004501021999MW1731REMSYN076AAXX  26044 06852 41457 8//// 1//// 2//// 3//// 5//// 773// 8802/ 333 88519;
0152068520999992011012605004+46817+010350FM-12+142099999V02099999999990057019N0070001N1+99999+99999999999ADDAY171999AY221999GA1081+005701051GF108991081001004501021999MW1711REMSYN076AAXX  26054 06852 41457 8//// 1//// 2//// 3//// 5//// 77172 8802/ 333 88519;
0203068520999992011012606004+46817+010350FM-12+142099999V02099999999990057019N0070001N1+99999+99999999999ADDAJ100169199999999AL10600191AY171061AY221061GA1081+005701051GF108991081001004501021999IA1279MW1731REMSYN094AAXX  26064 06852 41457 8//// 1//// 2//// 3//// 5//// 77372 8802/ 333 43016 88519 90768 93101;
0152068520999992011012607004+46817+010350FM-12+142099999V02099999999990057019N0070001N1+99999+99999999999ADDAY171999AY221999GA1081+005701051GF108991081001004501021999MW1681REMSYN076AAXX  26074 06852 41457 8//// 1//// 2//// 3//// 5//// 76872 8802/ 333 88519;
0152068520999992011012608004+46817+010350FM-12+142099999V02099999999990057019N0100001N1+99999+99999999999ADDAY171999AY211999GA1081+005701051GF108991081001004501021999MW1681REMSYN076AAXX  26084 06852 41460 8//// 1//// 2//// 3//// 5//// 76871 8802/ 333 88519;
0152068520999992011012609004+46817+010350FM-12+142099999V02099999999990108019N0150001N1+99999+99999999999ADDAY171031AY211031GA1071+010801031GF107991071001012501071999MW1011REMSYN076AAXX  26094 06852 41665 7//// 1//// 2//// 3//// 5//// 70171 8707/ 333 87336;
0124068520999992011012610004+46817+010350FM-12+142099999V02099999999990108019N0150001N1+99999+99999999999ADDGA1061+010801031GF106991061001012501071999REMSYN070AAXX  26104 06852 42665 6//// 1//// 2//// 3//// 5//// 8607/ 333 86336;
0124068520999992011012611004+46817+010350FM-12+142099999V02099999999990270019N0250001N1+99999+99999999999ADDGA1061+027001031GF106991061001999999071001REMSYN070AAXX  26114 06852 42975 6//// 1//// 2//// 3//// 5//// 86070 333 86359;
0124068520999992011012612004+46817+010350FM-12+142099999V02099999999990270019N0250001N1+99999+99999999999ADDGA1061+027001031GF106991061001999999071001REMSYN070AAXX  26124 06852 42975 6//// 1//// 2//// 3//// 5//// 86070 333 86359;
0124068520999992011012613004+46817+010350FM-12+142099999V02099999999990270019N0250001N1+99999+99999999999ADDGA1081+027001041GF108991081001999999011001REMSYN070AAXX  26134 06852 42975 8//// 1//// 2//// 3//// 5//// 88010 333 88459;
0124068520999992011012614004+46817+010350FM-12+142099999V02099999999990270019N0250001N1+99999+99999999999ADDGA1081+027001041GF108991081001999999011001REMSYN070AAXX  26144 06852 42975 8//// 1//// 2//// 3//// 5//// 88010 333 88459;
0124068520999992011012615004+46817+010350FM-12+142099999V02099999999990270019N0200001N1+99999+99999999999ADDGA1081+027001041GF108991081001999999011001REMSYN070AAXX  26154 06852 42970 8//// 1//// 2//// 3//// 5//// 88010 333 88459;
0124068520999992011012616004+46817+010350FM-12+142099999V02099999999990270019N0250001N1+99999+99999999999ADDGA1081+027001041GF108991081001999999021001REMSYN070AAXX  26164 06852 42975 8//// 1//// 2//// 3//// 5//// 88020 333 88459;
0136068520999992011012617004+46817+010350FM-12+142099999V02099999999990270019N0200001N1+99999+99999999999ADDGA1081+027001041GF108991081001999999011999MW1021REMSYN076AAXX  26174 06852 41970 8//// 1//// 2//// 3//// 5//// 702// 8801/ 333 88459;
0175068520999992011012618004+46817+010350FM-12+142099999V02099999999990270019N0200001N1+99999+99999999999ADDAJ100169199999999AL10600091GA1081+027001041GF108991081001999999021999IA1279REMSYN088AAXX  26184 06852 42970 8//// 1//// 2//// 3//// 5//// 8802/ 333 43016 88459 90766 93100;
0136068520999992011012619004+46817+010350FM-12+142099999V02099999999990003019N0005001N1+99999+99999999999ADDAY141999AY241999GA1091+999999999GF109991091999999999999999MW1471REMSYN060AAXX  26194 06852 41/05 9//// 1//// 2//// 3//// 5//// 74744;
0136068520999992011012620004+46817+010350FM-12+142099999V02099999999990006019N0009001N1+99999+99999999999ADDAY141999AY241999GA1091+999999999GF109991091999999999999999MW1451REMSYN060AAXX  26204 06852 41/09 9//// 1//// 2//// 3//// 5//// 74544;
0120068520999992011012704004+46817+010350FM-12+142099999V02099999999992200019N0300001N1+99999+99999999999ADDGA1001+999999999GF100991001001999999001001MW1001REMSYN060AAXX  27044 06852 41980 0//// 1//// 2//// 3//// 5//// 700//;
0108068520999992011012705004+46817+010350FM-12+142099999V02099999999992200019N0250001N1+99999+99999999999ADDGA1001+999999999GF100991001001999999001001REMSYN054AAXX  27054 06852 42975 0//// 1//// 2//// 3//// 5////;
0163068520999992011012706004+46817+010350FM-12+142099999V02099999999992200019N0250001N1+99999+99999999999ADDAJ100159199999999AL10600091GA1001+999999999GF100991001001999999001001IA1179REMSYN076AAXX  27064 06852 42975 0//// 1//// 2//// 3//// 5//// 333 40015 90768 93100;
0124068520999992011012707004+46817+010350FM-12+142099999V02099999999992200019N0250001N1+99999+99999999999ADDGA1011+027001001GF101991001001999999001011REMSYN070AAXX  27074 06852 42975 1//// 1//// 2//// 3//// 5//// 80001 333 81059;
0124068520999992011012708004+46817+010350FM-12+142099999V02099999999992200019N0250001N1+99999+99999999999ADDGA1011+027001001GF101991001001999999001011REMSYN070AAXX  27084 06852 42975 1//// 1//// 2//// 3//// 5//// 80001 333 81059;
0108068520999992011012709004+46817+010350FM-12+142099999V02099999999992200019N0300001N1+99999+99999999999ADDGA1001+999999999GF100991001001999999001001REMSYN054AAXX  27094 06852 42980 0//// 1//// 2//// 3//// 5////;
0108068520999992011012710004+46817+010350FM-12+142099999V02099999999992200019N0300001N1+99999+99999999999ADDGA1001+999999999GF100991001001999999001001REMSYN054AAXX  27104 06852 42980 0//// 1//// 2//// 3//// 5////;
0108068520999992011012711004+46817+010350FM-12+142099999V02099999999992200019N0300001N1+99999+99999999999ADDGA1001+999999999GF100991001001999999001001REMSYN054AAXX  27114 06852 42980 0//// 1//// 2//// 3//// 5////;
0108068520999992011012712004+46817+010350FM-12+142099999V02099999999992200019N0300001N1+99999+99999999999ADDGA1001+999999999GF100991001001999999001001REMSYN054AAXX  27124 06852 42980 0//// 1//// 2//// 3//// 5////;
0108068520999992011012713004+46817+010350FM-12+142099999V02099999999992200019N0300001N1+99999+99999999999ADDGA1001+999999999GF100991001001999999001001REMSYN054AAXX  27134 06852 42980 0//// 1//// 2//// 3//// 5////;
0108068520999992011012714004+46817+010350FM-12+142099999V02099999999992200019N0300001N1+99999+99999999999ADDGA1001+999999999GF100991001001999999001001REMSYN054AAXX  27144 06852 42980 0//// 1//// 2//// 3//// 5////;
0108068520999992011012715004+46817+010350FM-12+142099999V02099999999992200019N0300001N1+99999+99999999999ADDGA1001+999999999GF100991001001999999001001REMSYN054AAXX  27154 06852 42980 0//// 1//// 2//// 3//// 5////;
0108068520999992011012716004+46817+010350FM-12+142099999V02099999999992200019N0300001N1+99999+99999999999ADDGA1001+999999999GF100991001001999999001001REMSYN054AAXX  27164 06852 42980 0//// 1//// 2//// 3//// 5////;
0108068520999992011012717004+46817+010350FM-12+142099999V02099999999992200019N0300001N1+99999+99999999999ADDGA1001+999999999GF100991001001999999001001REMSYN054AAXX  27174 06852 42980 0//// 1//// 2//// 3//// 5////;
0121068520999992011012718004+46817+010350FM-12+142099999V02099999999999999999N0250001N1+99999+99999999999ADDAJ100109199999999AL10600091IA1309REMSYN076AAXX  27184 06852 42/75 ///// 1//// 2//// 3//// 5//// 333 42010 90766 93100;
0108068520999992011012719004+46817+010350FM-12+142099999V02099999999992200019N0300001N1+99999+99999999999ADDGA1001+999999999GF100991001001999999001001REMSYN054AAXX  27194 06852 42980 0//// 1//// 2//// 3//// 5////;
0063068520999992011012720004+46817+010350FM-12+142099999V02099999999999999999N0250001N1+99999+99999999999REMSYN054AAXX  27204 06852 42/75 ///// 1//// 2//// 3//// 5////;
0108068520999992011012804004+46817+010350FM-12+142099999V02099999999992200019N0250001N1+99999+99999999999ADDGA1001+999999999GF100991001001999999001001REMSYN054AAXX  28044 06852 42975 0//// 1//// 2//// 3//// 5////;
0108068520999992011012805004+46817+010350FM-12+142099999V02099999999992200019N0250001N1+99999+99999999999ADDGA1001+999999999GF100991001001999999001001REMSYN054AAXX  28054 06852 42975 0//// 1//// 2//// 3//// 5////;
0163068520999992011012806004+46817+010350FM-12+142099999V02099999999992200019N0250001N1+99999+99999999999ADDAJ100109199999999AL10600091GA1001+999999999GF100991001001999999001001IA1309REMSYN076AAXX  28064 06852 42975 0//// 1//// 2//// 3//// 5//// 333 42010 90768 93100;
0108068520999992011012807004+46817+010350FM-12+142099999V02099999999992200019N0250001N1+99999+99999999999ADDGA1001+999999999GF100991001001999999001001REMSYN054AAXX  28074 06852 42975 0//// 1//// 2//// 3//// 5////;
0108068520999992011012808004+46817+010350FM-12+142099999V02099999999992200019N0250001N1+99999+99999999999ADDGA1001+999999999GF100991001001999999001001REMSYN054AAXX  28084 06852 42975 0//// 1//// 2//// 3//// 5////;
0124068520999992011012809004+46817+010350FM-12+142099999V02099999999992200019N0300001N1+99999+99999999999ADDGA1011+030001001GF101991001001999999001011REMSYN070AAXX  28094 06852 42980 1//// 1//// 2//// 3//// 5//// 80001 333 81060;
0124068520999992011012810004+46817+010350FM-12+142099999V02099999999992200019N0300001N1+99999+99999999999ADDGA1021+030001001GF102991001001999999001011REMSYN070AAXX  28104 06852 42980 2//// 1//// 2//// 3//// 5//// 80001 333 82060;
0124068520999992011012811004+46817+010350FM-12+142099999V02099999999992200019N0300001N1+99999+99999999999ADDGA1011+030001001GF101991001001999999001011REMSYN070AAXX  28114 06852 42980 1//// 1//// 2//// 3//// 5//// 80001 333 81060;
0124068520999992011012812004+46817+010350FM-12+142099999V02099999999992200019N0300001N1+99999+99999999999ADDGA1031+030001001GF103991001001999999001011REMSYN070AAXX  28124 06852 42980 3//// 1//// 2//// 3//// 5//// 80001 333 83060;
0124068520999992011012813004+46817+010350FM-12+142099999V02099999999992200019N0300001N1+99999+99999999999ADDGA1031+030001001GF103991001001999999001011REMSYN070AAXX  28134 06852 42980 3//// 1//// 2//// 3//// 5//// 80001 333 83060;
0124068520999992011012814004+46817+010350FM-12+142099999V02099999999992200019N0300001N1+99999+99999999999ADDGA1031+030001001GF103991001001999999001011REMSYN070AAXX  28144 06852 42980 3//// 1//// 2//// 3//// 5//// 80001 333 83060;
0124068520999992011012815004+46817+010350FM-12+142099999V02099999999992200019N0300001N1+99999+99999999999ADDGA1031+021001001GF103991031001022501041999REMSYN070AAXX  28154 06852 42880 3//// 1//// 2//// 3//// 5//// 8304/ 333 83057;
0124068520999992011012816004+46817+010350FM-12+142099999V02099999999992200019N0300001N1+99999+99999999999ADDGA1031+021001001GF103991031001022501041001REMSYN070AAXX  28164 06852 42880 3//// 1//// 2//// 3//// 5//// 83040 333 83057;
0124068520999992011012817004+46817+010350FM-12+142099999V02099999999992200019N0300001N1+99999+99999999999ADDGA1011+030001001GF101991001001999999001011REMSYN070AAXX  28174 06852 42980 1//// 1//// 2//// 3//// 5//// 80001 333 81060;
0121068520999992011012818004+46817+010350FM-12+142099999V02099999999999999999N0300001N1+99999+99999999999ADDAJ100109199999999AL10600091IA1179REMSYN076AAXX  28184 06852 42/80 ///// 1//// 2//// 3//// 5//// 333 40010 90766 93100;
0063068520999992011012819004+46817+010350FM-12+142099999V02099999999999999999N0300001N1+99999+99999999999REMSYN054AAXX  28194 06852 42/80 ///// 1//// 2//// 3//// 5////;
0063068520999992011012820004+46817+010350FM-12+142099999V02099999999999999999N0250001N1+99999+99999999999REMSYN054AAXX  28204 06852 42/75 ///// 1//// 2//// 3//// 5////;
0078068520999992011012904004+46817+010350FM-12+142099999V02099999999999999999N0250001N1+99999+99999999999ADDMW1001REMSYN060AAXX  29044 06852 41/75 ///// 1//// 2//// 3//// 5//// 700//;
0078068520999992011012905004+46817+010350FM-12+142099999V02099999999999999999N0250001N1+99999+99999999999ADDMW1001REMSYN060AAXX  29054 06852 41/75 ///// 1//// 2//// 3//// 5//// 700//;
0133068520999992011012906004+46817+010350FM-12+142099999V02099999999999999999N0250001N1+99999+99999999999ADDAJ100109199999999AL10600091IA1179MW1001REMSYN082AAXX  29064 06852 41/75 ///// 1//// 2//// 3//// 5//// 700// 333 40010 90768 93100;
0136068520999992011012907004+46817+010350FM-12+142099999V02099999999992200019N0300001N1+99999+99999999999ADDGA1041+027001061GF104991041001999999071001MW1001REMSYN076AAXX  29074 06852 41980 4//// 1//// 2//// 3//// 5//// 700// 84070 333 84659;
0130068520999992011012908004+46817+010350FM-12+142099999V02099999999999999999N0300001N1+99999+99999999999ADDGA1021+027001061GF105991051001999999051091REMSYN076AAXX  29084 06852 42980 5//// 1//// 2//// 3//// 5//// 85059 333 82659 84360;
0149068520999992011012909004+46817+010350FM-12+142099999V02099999999992200019N0100001N1+99999+99999999999ADDGA1031+015001031GF104991999001017501091001REMSYN076AAXX  29094 06852 42760 4//// 1//// 2//// 3//// 5//// 83090 333 83350 83759;EQDQ01+000032SCOTLC
0124068520999992011012910004+46817+010350FM-12+142099999V02099999999990150019N0100001N1+99999+99999999999ADDGA1061+015001031GF106991061001017501071999REMSYN070AAXX  29104 06852 42760 6//// 1//// 2//// 3//// 5//// 8607/ 333 86350;
0124068520999992011012911004+46817+010350FM-12+142099999V02099999999990150019N0100001N1+99999+99999999999ADDGA1081+015001041GF108991081001017501071999REMSYN070AAXX  29114 06852 42760 8//// 1//// 2//// 3//// 5//// 8807/ 333 88450;
0143068520999992011012912004+46817+010350FM-12+142099999V02099999999990150019N0100001N1+99999+99999999999ADDGA1071+015001061GF107991071999017501071999REMSYN070AAXX  29124 06852 42760 7//// 1//// 2//// 3//// 5//// 8707/ 333 87650;EQDQ01+000002SCOLCG
0130068520999992011012913004+46817+010350FM-12+142099999V02099999999992200019N0150001N1+99999+99999999999ADDGA1021+015001081GF103991011051017501051001REMSYN076AAXX  29134 06852 42765 3//// 1//// 2//// 3//// 5//// 81550 333 82850 83360;
0143068520999992011012914004+46817+010350FM-12+142099999V02099999999990150019N0250001N1+99999+99999999999ADDGA1061+015001061GF106991061999017501071001REMSYN070AAXX  29144 06852 42775 6//// 1//// 2//// 3//// 5//// 86070 333 86650;EQDQ01+000002SCOLCG
0143068520999992011012915004+46817+010350FM-12+142099999V02099999999990150019N0150001N1+99999+99999999999ADDGA1061+015001061GF106991061999017501071001REMSYN070AAXX  29154 06852 42765 6//// 1//// 2//// 3//// 5//// 86070 333 86650;EQDQ01+000002SCOLCG
0124068520999992011012916004+46817+010350FM-12+142099999V02099999999992200019N0120001N1+99999+99999999999ADDGA1041+015001031GF104991041001017501081001REMSYN070AAXX  29164 06852 42762 4//// 1//// 2//// 3//// 5//// 84080 333 84350;
0124068520999992011012917004+46817+010350FM-12+142099999V02099999999992200019N0120001N1+99999+99999999999ADDGA1031+010801031GF103991031001012501081001REMSYN070AAXX  29174 06852 42662 3//// 1//// 2//// 3//// 5//// 83080 333 83336;
0133068520999992011012918004+46817+010350FM-12+142099999V02099999999999999999N0100001N1+99999+99999999999ADDAJ100109199999999AL10600091IA1309MW1001REMSYN082AAXX  29184 06852 41/60 ///// 1//// 2//// 3//// 5//// 700// 333 42010 90766 93100;
0078068520999992011012919004+46817+010350FM-12+142099999V02099999999999999999N0100001N1+99999+99999999999ADDMW1001REMSYN060AAXX  29194 06852 41/60 ///// 1//// 2//// 3//// 5//// 700//;
0078068520999992011012920004+46817+010350FM-12+142099999V02099999999999999999N0100001N1+99999+99999999999ADDMW1001REMSYN060AAXX  29204 06852 41/60 ///// 1//// 2//// 3//// 5//// 700//;
0078068520999992011013004004+46817+010350FM-12+142099999V02099999999999999999N0100001N1+99999+99999999999ADDMW1001REMSYN060AAXX  30044 06852 41/60 ///// 1//// 2//// 3//// 5//// 700//;
0108068520999992011013005004+46817+010350FM-12+142099999V02099999999992200019N0300001N1+99999+99999999999ADDGA1001+999999999GF100991001001999999001001REMSYN054AAXX  30054 06852 42980 0//// 1//// 2//// 3//// 5////;
0163068520999992011013006004+46817+010350FM-12+142099999V02099999999992200019N0300001N1+99999+99999999999ADDAJ100169199999999AL10600091GA1001+999999999GF100991001001999999001001IA1259REMSYN076AAXX  30064 06852 42980 0//// 1//// 2//// 3//// 5//// 333 41016 90768 93100;
0108068520999992011013007004+46817+010350FM-12+142099999V02099999999992200019N0300001N1+99999+99999999999ADDGA1001+999999999GF100991001001999999001001REMSYN054AAXX  30074 06852 42980 0//// 1//// 2//// 3//// 5////;
0108068520999992011013008004+46817+010350FM-12+142099999V02099999999992200019N0300001N1+99999+99999999999ADDGA1001+999999999GF100991001001999999001001REMSYN054AAXX  30084 06852 42980 0//// 1//// 2//// 3//// 5////;
0108068520999992011013009004+46817+010350FM-12+142099999V02099999999992200019N0300001N1+99999+99999999999ADDGA1001+999999999GF100991001001999999001001REMSYN054AAXX  30094 06852 42980 0//// 1//// 2//// 3//// 5////;
0108068520999992011013010004+46817+010350FM-12+142099999V02099999999992200019N0300001N1+99999+99999999999ADDGA1001+999999999GF100991001001999999001001REMSYN054AAXX  30104 06852 42980 0//// 1//// 2//// 3//// 5////;
0108068520999992011013011004+46817+010350FM-12+142099999V02099999999992200019N0300001N1+99999+99999999999ADDGA1001+999999999GF100991001001999999001001REMSYN054AAXX  30114 06852 42980 0//// 1//// 2//// 3//// 5////;
0108068520999992011013012004+46817+010350FM-12+142099999V02099999999992200019N0300001N1+99999+99999999999ADDGA1001+999999999GF100991001001999999001001REMSYN054AAXX  30124 06852 42980 0//// 1//// 2//// 3//// 5////;
0108068520999992011013013004+46817+010350FM-12+142099999V02099999999992200019N0300001N1+99999+99999999999ADDGA1001+999999999GF100991001001999999001001REMSYN054AAXX  30134 06852 42980 0//// 1//// 2//// 3//// 5////;
0108068520999992011013014004+46817+010350FM-12+142099999V02099999999992200019N0300001N1+99999+99999999999ADDGA1001+999999999GF100991001001999999001001REMSYN054AAXX  30144 06852 42980 0//// 1//// 2//// 3//// 5////;
0108068520999992011013015004+46817+010350FM-12+142099999V02099999999992200019N0300001N1+99999+99999999999ADDGA1001+999999999GF100991001001999999001001REMSYN054AAXX  30154 06852 42980 0//// 1//// 2//// 3//// 5////;
0108068520999992011013016004+46817+010350FM-12+142099999V02099999999992200019N0300001N1+99999+99999999999ADDGA1001+999999999GF100991001001999999001001REMSYN054AAXX  30164 06852 42980 0//// 1//// 2//// 3//// 5////;
0108068520999992011013017004+46817+010350FM-12+142099999V02099999999992200019N0300001N1+99999+99999999999ADDGA1001+999999999GF100991001001999999001001REMSYN054AAXX  30174 06852 42980 0//// 1//// 2//// 3//// 5////;
0163068520999992011013018004+46817+010350FM-12+142099999V02099999999992200019N0300001N1+99999+99999999999ADDAJ100169199999999AL10600091GA1001+999999999GF100991001001999999001001IA1259REMSYN076AAXX  30184 06852 42980 0//// 1//// 2//// 3//// 5//// 333 41016 90766 93100;
0108068520999992011013019004+46817+010350FM-12+142099999V02099999999992200019N0300001N1+99999+99999999999ADDGA1001+999999999GF100991001001999999001001REMSYN054AAXX  30194 06852 42980 0//// 1//// 2//// 3//// 5////;
0108068520999992011013020004+46817+010350FM-12+142099999V02099999999992200019N0300001N1+99999+99999999999ADDGA1001+999999999GF100991001001999999001001REMSYN054AAXX  30204 06852 42980 0//// 1//// 2//// 3//// 5////;
0120068520999992011013104004+46817+010350FM-12+142099999V02099999999992200019N0250001N1+99999+99999999999ADDGA1001+999999999GF100991001001999999001001MW1001REMSYN060AAXX  31044 06852 41975 0//// 1//// 2//// 3//// 5//// 700//;
0108068520999992011013105004+46817+010350FM-12+142099999V02099999999992200019N0250001N1+99999+99999999999ADDGA1001+999999999GF100991001001999999001001REMSYN054AAXX  31054 06852 42975 0//// 1//// 2//// 3//// 5////;
0163068520999992011013106004+46817+010350FM-12+142099999V02099999999992200019N0250001N1+99999+99999999999ADDAJ100109199999999AL10600091GA1001+999999999GF100991001001999999001001IA1309REMSYN076AAXX  31064 06852 42975 0//// 1//// 2//// 3//// 5//// 333 42010 90768 93100;
0108068520999992011013107004+46817+010350FM-12+142099999V02099999999992200019N0300001N1+99999+99999999999ADDGA1001+999999999GF100991001001999999001001REMSYN054AAXX  31074 06852 42980 0//// 1//// 2//// 3//// 5////;
0108068520999992011013108004+46817+010350FM-12+142099999V02099999999992200019N0300001N1+99999+99999999999ADDGA1001+999999999GF100991001001999999001001REMSYN054AAXX  31084 06852 42980 0//// 1//// 2//// 3//// 5////;
0108068520999992011013109004+46817+010350FM-12+142099999V02099999999992200019N0300001N1+99999+99999999999ADDGA1001+999999999GF100991001001999999001001REMSYN054AAXX  31094 06852 42980 0//// 1//// 2//// 3//// 5////;
0108068520999992011013110004+46817+010350FM-12+142099999V02099999999992200019N0300001N1+99999+99999999999ADDGA1001+999999999GF100991001001999999001001REMSYN054AAXX  31104 06852 42980 0//// 1//// 2//// 3//// 5////;
0108068520999992011013111004+46817+010350FM-12+142099999V02099999999992200019N0300001N1+99999+99999999999ADDGA1001+999999999GF100991001001999999001001REMSYN054AAXX  31114 06852 42980 0//// 1//// 2//// 3//// 5////;
0108068520999992011013112004+46817+010350FM-12+142099999V02099999999992200019N0300001N1+99999+99999999999ADDGA1001+999999999GF100991001001999999001001REMSYN054AAXX  31124 06852 42980 0//// 1//// 2//// 3//// 5////;
0108068520999992011013113004+46817+010350FM-12+142099999V02099999999992200019N0300001N1+99999+99999999999ADDGA1001+999999999GF100991001001999999001001REMSYN054AAXX  31134 06852 42980 0//// 1//// 2//// 3//// 5////;
0108068520999992011013114004+46817+010350FM-12+142099999V02099999999992200019N0300001N1+99999+99999999999ADDGA1001+999999999GF100991001001999999001001REMSYN054AAXX  31144 06852 42980 0//// 1//// 2//// 3//// 5////;
0108068520999992011013115004+46817+010350FM-12+142099999V02099999999992200019N0300001N1+99999+99999999999ADDGA1001+999999999GF100991001001999999001001REMSYN054AAXX  31154 06852 42980 0//// 1//// 2//// 3//// 5////;
0108068520999992011013116004+46817+010350FM-12+142099999V02099999999992200019N0300001N1+99999+99999999999ADDGA1001+999999999GF100991001001999999001001REMSYN054AAXX  31164 06852 42980 0//// 1//// 2//// 3//// 5////;
0108068520999992011013117004+46817+010350FM-12+142099999V02099999999992200019N0300001N1+99999+99999999999ADDGA1001+999999999GF100991001001999999001001REMSYN054AAXX  31174 06852 42980 0//// 1//// 2//// 3//// 5////;
0163068520999992011013118004+46817+010350FM-12+142099999V02099999999992200019N0300001N1+99999+99999999999ADDAJ100169199999999AL10600091GA1001+999999999GF100991001001999999001001IA1259REMSYN076AAXX  31184 06852 42980 0//// 1//// 2//// 3//// 5//// 333 41016 90766 93100;
0108068520999992011013119004+46817+010350FM-12+142099999V02099999999992200019N0250001N1+99999+99999999999ADDGA1001+999999999GF100991001001999999001001REMSYN054AAXX  31194 06852 42975 0//// 1//// 2//// 3//// 5////;
0108068520999992011013120004+46817+010350FM-12+142099999V02099999999992200019N0250001N1+99999+99999999999ADDGA1001+999999999GF100991001001999999001001REMSYN054AAXX  31204 06852 42975 0//// 1//// 2//// 3//// 5////;
0078068520999992011020104004+46817+010350FM-12+142099999V02099999999999999999N0100001N1+99999+99999999999ADDMW1001REMSYN060AAXX  01044 06852 41/60 ///// 1//// 2//// 3//// 5//// 700//;
0078068520999992011020105004+46817+010350FM-12+142099999V02099999999999999999N0100001N1+99999+99999999999ADDMW1001REMSYN060AAXX  01054 06852 41/60 ///// 1//// 2//// 3//// 5//// 700//;
0133068520999992011020106004+46817+010350FM-12+142099999V02099999999999999999N0100001N1+99999+99999999999ADDAJ100109199999999AL10600091IA1309MW1001REMSYN082AAXX  01064 06852 41/60 ///// 1//// 2//// 3//// 5//// 700// 333 42010 90768 93100;
0120068520999992011020107004+46817+010350FM-12+142099999V02099999999992200019N0300001N1+99999+99999999999ADDGA1001+999999999GF100991001001999999001001MW1001REMSYN060AAXX  01074 06852 41980 0//// 1//// 2//// 3//// 5//// 700//;
0108068520999992011020108004+46817+010350FM-12+142099999V02099999999992200019N0300001N1+99999+99999999999ADDGA1001+999999999GF100991001001999999001001REMSYN054AAXX  01084 06852 42980 0//// 1//// 2//// 3//// 5////;
0108068520999992011020109004+46817+010350FM-12+142099999V02099999999992200019N0300001N1+99999+99999999999ADDGA1001+999999999GF100991001001999999001001REMSYN054AAXX  01094 06852 42980 0//// 1//// 2//// 3//// 5////;
0108068520999992011020110004+46817+010350FM-12+142099999V02099999999992200019N0300001N1+99999+99999999999ADDGA1001+999999999GF100991001001999999001001REMSYN054AAXX  01104 06852 42980 0//// 1//// 2//// 3//// 5////;
0108068520999992011020111004+46817+010350FM-12+142099999V02099999999992200019N0300001N1+99999+99999999999ADDGA1001+999999999GF100991001001999999001001REMSYN054AAXX  01114 06852 42980 0//// 1//// 2//// 3//// 5////;
0108068520999992011020112004+46817+010350FM-12+142099999V02099999999992200019N0300001N1+99999+99999999999ADDGA1001+999999999GF100991001001999999001001REMSYN054AAXX  01124 06852 42980 0//// 1//// 2//// 3//// 5////;
0108068520999992011020113004+46817+010350FM-12+142099999V02099999999992200019N0300001N1+99999+99999999999ADDGA1001+999999999GF100991001001999999001001REMSYN054AAXX  01134 06852 42980 0//// 1//// 2//// 3//// 5////;
0108068520999992011020114004+46817+010350FM-12+142099999V02099999999992200019N0300001N1+99999+99999999999ADDGA1001+999999999GF100991001001999999001001REMSYN054AAXX  01144 06852 42980 0//// 1//// 2//// 3//// 5////;
0108068520999992011020115004+46817+010350FM-12+142099999V02099999999992200019N0300001N1+99999+99999999999ADDGA1001+999999999GF100991001001999999001001REMSYN054AAXX  01154 06852 42980 0//// 1//// 2//// 3//// 5////;
0108068520999992011020116004+46817+010350FM-12+142099999V02099999999992200019N0300001N1+99999+99999999999ADDGA1001+999999999GF100991001001999999001001REMSYN054AAXX  01164 06852 42980 0//// 1//// 2//// 3//// 5////;
0108068520999992011020117004+46817+010350FM-12+142099999V02099999999992200019N0300001N1+99999+99999999999ADDGA1001+999999999GF100991001001999999001001REMSYN054AAXX  01174 06852 42980 0//// 1//// 2//// 3//// 5////;
0163068520999992011020118004+46817+010350FM-12+142099999V02099999999992200019N0300001N1+99999+99999999999ADDAJ100169199999999AL10600091GA1001+999999999GF100991001001999999001001IA1309REMSYN076AAXX  01184 06852 42980 0//// 1//// 2//// 3//// 5//// 333 42016 90766 93100;
0108068520999992011020119004+46817+010350FM-12+142099999V02099999999992200019N0250001N1+99999+99999999999ADDGA1001+999999999GF100991001001999999001001REMSYN054AAXX  01194 06852 42975 0//// 1//// 2//// 3//// 5////;
0136068520999992011020120004+46817+010350FM-12+142099999V02099999999992200019N0750001N1+99999+99999999999ADDAY101999AY201999GA1001+999999999GF100991001001999999001001MW1081REMSYN060AAXX  01204 06852 41989 0//// 1//// 2//// 3//// 5//// 70800;
