0158068510999992011012414004+47250+008767FM-12+052299999V02099999999990057019N0090001N1+99999+99999999999ADDAY121999AY221999GA1051+005701071GF107991051061004501051999MW1101REMSYN082AAXX  24144 06851 41459 7//// 1//// 2//// 3//// 5//// 71022 8565/ 333 85719 84358;
0152068510999992011012415004+47250+008767FM-12+052299999V02099999999990078019N0100001N1+99999+99999999999ADDAY121031AY221031GA1071+007801071GF107991071061008001999999MW1101REMSYN076AAXX  24154 06851 41560 7//// 1//// 2//// 3//// 5//// 71022 876// 333 87726;
0152068510999992011012416004+47250+008767FM-12+052299999V02099999999990069019N0120001N1+99999+99999999999ADDAY121999AY221999GA1081+006901071GF108991081061008001999999MW1101REMSYN076AAXX  24164 06851 41562 8//// 1//// 2//// 3//// 5//// 71022 886// 333 88723;
0152068510999992011012417004+47250+008767FM-12+052299999V02099999999990087019N0120001N1+99999+99999999999ADDAY121999AY221999GA1071+008701071GF107991071051008001999999MW1101REMSYN076AAXX  24174 06851 41562 7//// 1//// 2//// 3//// 5//// 71022 875// 333 87729;
0203068510999992011012418004+47250+008767FM-12+052299999V02099999999990087019N0120001N1+99999+99999999999ADDAJ100039199999999AL10600091AY121061AY221061GA1071+008701071GF107991071051008001999999IA1239MW1101REMSYN094AAXX  24184 06851 41562 7//// 1//// 2//// 3//// 5//// 71022 875// 333 47003 87729 90766 93100;
0152068510999992011012419004+47250+008767FM-12+052299999V02099999999990087019N0120001N1+99999+99999999999ADDAY121999AY221999GA1081+008701071GF108991081051008001999999MW1101REMSYN076AAXX  24194 06851 41562 8//// 1//// 2//// 3//// 5//// 71022 885// 333 88729;
0152068510999992011012420004+47250+008767FM-12+052299999V02099999999990087019N0120001N1+99999+99999999999ADDAY121999AY221999GA1081+008701071GF108991081051008001999999MW1101REMSYN076AAXX  24204 06851 41562 8//// 1//// 2//// 3//// 5//// 71022 885// 333 88729;
0152068510999992011012504004+47250+008767FM-12+052299999V02099999999990057019N0050001N1+99999+99999999999ADDAY121999AY221999GA1081+005701071GF108991081061004501999999MW1101REMSYN076AAXX  25044 06851 41450 8//// 1//// 2//// 3//// 5//// 71022 886// 333 88719;
0152068510999992011012505004+47250+008767FM-12+052299999V02099999999990039019N0040001N1+99999+99999999999ADDAY101999AY201999GA1081+003901071GF108991081061004501999999MW1101REMSYN076AAXX  25054 06851 41440 8//// 1//// 2//// 3//// 5//// 71000 886// 333 88713;
0203068510999992011012506004+47250+008767FM-12+052299999V02099999999990039019N0050001N1+99999+99999999999ADDAJ100019199999999AL10600091AY121061AY221061GA1081+003901071GF108991081061004501999999IA1229MW1101REMSYN094AAXX  25064 06851 41450 8//// 1//// 2//// 3//// 5//// 71022 886// 333 46001 88713 90768 93100;
0152068510999992011012507004+47250+008767FM-12+052299999V02099999999990033019N0050001N1+99999+99999999999ADDAY121999AY221999GA1081+003301071GF108991081061004501999999MW1101REMSYN076AAXX  25074 06851 41450 8//// 1//// 2//// 3//// 5//// 71022 886// 333 88711;
0152068510999992011012508004+47250+008767FM-12+052299999V02099999999990027019N0050001N1+99999+99999999999ADDAY171999AY221999GA1081+002701071GF108991081061002501999999MW1771REMSYN076AAXX  25084 06851 41350 8//// 1//// 2//// 3//// 5//// 77772 886// 333 88709;
0152068510999992011012509004+47250+008767FM-12+052299999V02099999999990039019N0050001N1+99999+99999999999ADDAY171031AY221031GA1081+003901071GF108991081061004501999999MW1771REMSYN076AAXX  25094 06851 41450 8//// 1//// 2//// 3//// 5//// 77772 886// 333 88713;
0152068510999992011012510004+47250+008767FM-12+052299999V02099999999990039019N0060001N1+99999+99999999999ADDAY121999AY221999GA1081+003901071GF108991081061004501999999MW1101REMSYN076AAXX  25104 06851 41456 8//// 1//// 2//// 3//// 5//// 71022 886// 333 88713;
0152068510999992011012511004+47250+008767FM-12+052299999V02099999999990039019N0080001N1+99999+99999999999ADDAY121999AY221999GA1081+003901071GF108991081071004501999999MW1101REMSYN076AAXX  25114 06851 41458 8//// 1//// 2//// 3//// 5//// 71022 887// 333 88713;
0130068510999992011012512004+47250+008767FM-12+052299999V02099999999990027019N0080001N1+99999+99999999999ADDGA1061+002701071GF108991061061002501071001REMSYN076AAXX  25124 06851 42358 8//// 1//// 2//// 3//// 5//// 86670 333 86709 83658;
0124068510999992011012513004+47250+008767FM-12+052299999V02099999999990048019N0100001N1+99999+99999999999ADDGA1081+004801071GF108991081071004501999999REMSYN070AAXX  25134 06851 42460 8//// 1//// 2//// 3//// 5//// 887// 333 88716;
0130068510999992011012514004+47250+008767FM-12+052299999V02099999999990057019N0120001N1+99999+99999999999ADDGA1051+005701071GF107991051071004501031999REMSYN076AAXX  25144 06851 42462 7//// 1//// 2//// 3//// 5//// 8573/ 333 85719 85358;
0124068510999992011012515004+47250+008767FM-12+052299999V02099999999990240019N0150001N1+99999+99999999999ADDGA1071+024001031GF107991071001022501071999REMSYN070AAXX  25154 06851 42865 7//// 1//// 2//// 3//// 5//// 8707/ 333 87358;
0124068510999992011012516004+47250+008767FM-12+052299999V02099999999990210019N0150001N1+99999+99999999999ADDGA1081+021001031GF108991081001017501071999REMSYN070AAXX  25164 06851 42765 8//// 1//// 2//// 3//// 5//// 8807/ 333 88357;
0124068510999992011012517004+47250+008767FM-12+052299999V02099999999990210019N0150001N1+99999+99999999999ADDGA1081+021001031GF108991081001017501071999REMSYN070AAXX  25174 06851 42765 8//// 1//// 2//// 3//// 5//// 8807/ 333 88357;
0152068510999992011012519004+47250+008767FM-12+052299999V02099999999990210019N0150001N1+99999+99999999999ADDAY171999AY221999GA1081+021001031GF108991081001017501071999MW1021REMSYN076AAXX  25194 06851 41765 8//// 1//// 2//// 3//// 5//// 70272 8807/ 333 88357;
0152068510999992011012520004+47250+008767FM-12+052299999V02099999999990210019N0060001N1+99999+99999999999ADDAY171999AY221999GA1081+021001031GF108991081001017501071999MW1701REMSYN076AAXX  25204 06851 41756 8//// 1//// 2//// 3//// 5//// 77072 8807/ 333 88357;
0152068510999992011012604004+47250+008767FM-12+052299999V02099999999990210019N0020001N1+99999+99999999999ADDAY171999AY221999GA1081+021001031GF108991081001017501071999MW1101REMSYN076AAXX  26044 06851 41720 8//// 1//// 2//// 3//// 5//// 71072 8807/ 333 88357;
0152068510999992011012605004+47250+008767FM-12+052299999V02099999999990027019N0020001N1+99999+99999999999ADDAY121999AY221999GA1081+002701071GF108991081061002501999999MW1101REMSYN076AAXX  26054 06851 41320 8//// 1//// 2//// 3//// 5//// 71022 886// 333 88709;
0203068510999992011012606004+47250+008767FM-12+052299999V02099999999990039019N0060001N1+99999+99999999999ADDAJ100039199999999AL10600191AY171061AY221061GA1071+003901071GF107991071061004501999999IA1279MW1701REMSYN094AAXX  26064 06851 41456 7//// 1//// 2//// 3//// 5//// 77072 876// 333 43003 87713 90768 93101;
0152068510999992011012607004+47250+008767FM-12+052299999V02099999999990039019N0060001N1+99999+99999999999ADDAY171999AY221999GA1081+003901071GF108991081061004501999999MW1681REMSYN076AAXX  26074 06851 41456 8//// 1//// 2//// 3//// 5//// 76872 886// 333 88713;
0152068510999992011012608004+47250+008767FM-12+052299999V02099999999990069019N0120001N1+99999+99999999999ADDAY171999AY221999GA1081+006901071GF108991081061008001999999MW1781REMSYN076AAXX  26084 06851 41562 8//// 1//// 2//// 3//// 5//// 77872 886// 333 88723;
0152068510999992011012609004+47250+008767FM-12+052299999V02099999999990057019N0100001N1+99999+99999999999ADDAY121031AY221031GA1081+005701071GF108991081061004501999999MW1101REMSYN076AAXX  26094 06851 41460 8//// 1//// 2//// 3//// 5//// 71022 886// 333 88719;
0152068510999992011012610004+47250+008767FM-12+052299999V02099999999990078019N0120001N1+99999+99999999999ADDAY121999AY221999GA1081+007801071GF108991081061008001999999MW1101REMSYN076AAXX  26104 06851 41562 8//// 1//// 2//// 3//// 5//// 71022 886// 333 88726;
0152068510999992011012611004+47250+008767FM-12+052299999V02099999999990057019N0100001N1+99999+99999999999ADDAY101999AY201999GA1081+005701071GF108991081061004501999999MW1101REMSYN076AAXX  26114 06851 41460 8//// 1//// 2//// 3//// 5//// 71000 886// 333 88719;
0152068510999992011012612004+47250+008767FM-12+052299999V02099999999990048019N0100001N1+99999+99999999999ADDAY171061AY221061GA1081+004801071GF108991081061004501999999MW1101REMSYN076AAXX  26124 06851 41460 8//// 1//// 2//// 3//// 5//// 71072 886// 333 88716;
0124068510999992011012613004+47250+008767FM-12+052299999V02099999999990078019N0130001N1+99999+99999999999ADDGA1081+007801071GF108991081061008001999999REMSYN070AAXX  26134 06851 42563 8//// 1//// 2//// 3//// 5//// 886// 333 88726;
0152068510999992011012614004+47250+008767FM-12+052299999V02099999999990087019N0140001N1+99999+99999999999ADDAY121999AY221999GA1081+008701071GF108991081061008001999999MW1101REMSYN076AAXX  26144 06851 41564 8//// 1//// 2//// 3//// 5//// 71022 886// 333 88729;
0124068510999992011012615004+47250+008767FM-12+052299999V02099999999990099019N0160001N1+99999+99999999999ADDGA1071+009901071GF107991071061008001999999REMSYN070AAXX  26154 06851 42566 7//// 1//// 2//// 3//// 5//// 876// 333 87733;
0152068510999992011012616004+47250+008767FM-12+052299999V02099999999990240019N0180001N1+99999+99999999999ADDGA1041+009901071GA2031+024001031GF107991041051008001081011REMSYN082AAXX  26164 06851 42568 7//// 1//// 2//// 3//// 5//// 84581 333 84733 83358 85075;
0130068510999992011012617004+47250+008767FM-12+052299999V0209999999999045001CN0200001N1+99999+99999999999ADDGA1031+012901071GF105991031071012501081999REMSYN076AAXX  26174 06851 42670 5//// 1//// 2//// 3//// 5//// 8378/ 333 83743 83358;
0158068510999992011012618004+47250+008767FM-12+052299999V02099999999990240019N0200001N1+99999+99999999999ADDAL10600091GA1051+024001031GF105991051001022501081999IA1099REMSYN088AAXX  26184 06851 42870 5//// 1//// 2//// 3//// 5//// 8508/ 333 31/// 85358 90766 93100;
0108068510999992011012619004+47250+008767FM-12+052299999V02099999999992200019N0300001N1+99999+99999999999ADDGA1001+999999999GF100991001001999999001001REMSYN054AAXX  26194 06851 42980 0//// 1//// 2//// 3//// 5////;
0108068510999992011012620004+47250+008767FM-12+052299999V02099999999992200019N0300001N1+99999+99999999999ADDGA1001+999999999GF100991001001999999001001REMSYN054AAXX  26204 06851 42980 0//// 1//// 2//// 3//// 5////;
0152068510999992011012704004+47250+008767FM-12+052299999V02099999999990150019N0050001N1+99999+99999999999ADDAY121999AY221999GA1051+015001061GF105991051081017501999999MW1101REMSYN076AAXX  27044 06851 41750 5//// 1//// 2//// 3//// 5//// 71022 858// 333 85650;
0152068510999992011012705004+47250+008767FM-12+052299999V02099999999990147019N0060001N1+99999+99999999999ADDAY121999AY221999GA1071+014701061GF107991071051012501999999MW1101REMSYN076AAXX  27054 06851 41656 7//// 1//// 2//// 3//// 5//// 71022 875// 333 87649;
0203068510999992011012706004+47250+008767FM-12+052299999V02099999999992200019N0100001N1+99999+99999999999ADDAJ100019199999999AL10600091AY111061AY211061GA1021+012901061GF102991021081012501001001IA1229MW1101REMSYN094AAXX  27064 06851 41660 2//// 1//// 2//// 3//// 5//// 71011 82800 333 46001 82643 90768 93100;
0124068510999992011012707004+47250+008767FM-12+052299999V02099999999992200019N0150001N1+99999+99999999999ADDGA1031+012901061GF103991031011012501999999REMSYN070AAXX  27074 06851 42665 3//// 1//// 2//// 3//// 5//// 831// 333 83643;
0124068510999992011012708004+47250+008767FM-12+052299999V02099999999990087019N0180001N1+99999+99999999999ADDGA1061+008701061GF106991061081008001999999REMSYN070AAXX  27084 06851 42568 6//// 1//// 2//// 3//// 5//// 868// 333 86629;
0130068510999992011012709004+47250+008767FM-12+052299999V0209999999999045001CN0170001N1+99999+99999999999ADDGA1031+006901061GF106991031081008001081999REMSYN076AAXX  27094 06851 42567 6//// 1//// 2//// 3//// 5//// 8388/ 333 83623 83357;
0124068510999992011012710004+47250+008767FM-12+052299999V02099999999990078019N0170001N1+99999+99999999999ADDGA1081+007801061GF108991081051008001999999REMSYN070AAXX  27104 06851 42567 8//// 1//// 2//// 3//// 5//// 885// 333 88626;
0124068510999992011012711004+47250+008767FM-12+052299999V02099999999990078019N0170001N1+99999+99999999999ADDGA1081+007801061GF108991081051008001999999REMSYN070AAXX  27114 06851 42567 8//// 1//// 2//// 3//// 5//// 885// 333 88626;
0124068510999992011012712004+47250+008767FM-12+052299999V02099999999990078019N0140001N1+99999+99999999999ADDGA1081+007801061GF108991081051008001999999REMSYN070AAXX  27124 06851 42564 8//// 1//// 2//// 3//// 5//// 885// 333 88626;
0124068510999992011012713004+47250+008767FM-12+052299999V02099999999990147019N0180001N1+99999+99999999999ADDGA1081+014701061GF108991081051012501999999REMSYN070AAXX  27134 06851 42668 8//// 1//// 2//// 3//// 5//// 885// 333 88649;
0124068510999992011012714004+47250+008767FM-12+052299999V02099999999990108019N0160001N1+99999+99999999999ADDGA1081+010801061GF108991081051012501999999REMSYN070AAXX  27144 06851 42666 8//// 1//// 2//// 3//// 5//// 885// 333 88636;
0124068510999992011012715004+47250+008767FM-12+052299999V02099999999990078019N0140001N1+99999+99999999999ADDGA1081+007801061GF108991081051008001999999REMSYN070AAXX  27154 06851 42564 8//// 1//// 2//// 3//// 5//// 885// 333 88626;
0124068510999992011012716004+47250+008767FM-12+052299999V02099999999990078019N0130001N1+99999+99999999999ADDGA1081+007801061GF108991081051008001999999REMSYN070AAXX  27164 06851 42563 8//// 1//// 2//// 3//// 5//// 885// 333 88626;
0124068510999992011012717004+47250+008767FM-12+052299999V02099999999990048019N0080001N1+99999+99999999999ADDGA1081+004801061GF108991081051004501999999REMSYN070AAXX  27174 06851 42458 8//// 1//// 2//// 3//// 5//// 885// 333 88616;
0186068510999992011012718004+47250+008767FM-12+052299999V02099999999990048019N0100001N1+99999+99999999999ADDAL10600091AY111061AY211061GA1081+004801071GF108991081061004501999999IA1099MW1101REMSYN094AAXX  27184 06851 41460 8//// 1//// 2//// 3//// 5//// 71011 886// 333 31/// 88716 90766 93100;
0152068510999992011012719004+47250+008767FM-12+052299999V02099999999990048019N0060001N1+99999+99999999999ADDAY111999AY211999GA1081+004801061GF108991081051004501999999MW1101REMSYN076AAXX  27194 06851 41456 8//// 1//// 2//// 3//// 5//// 71011 885// 333 88616;
0152068510999992011012720004+47250+008767FM-12+052299999V02099999999990027019N0060001N1+99999+99999999999ADDAY121999AY221999GA1081+002701071GF108991081061002501999999MW1101REMSYN076AAXX  27204 06851 41356 8//// 1//// 2//// 3//// 5//// 71022 886// 333 88709;
0152068510999992011012804004+47250+008767FM-12+052299999V02099999999990027019N0070001N1+99999+99999999999ADDAY121999AY221999GA1081+002701071GF108991081061002501999999MW1101REMSYN076AAXX  28044 06851 41357 8//// 1//// 2//// 3//// 5//// 71022 886// 333 88709;
0152068510999992011012805004+47250+008767FM-12+052299999V02099999999990027019N0080001N1+99999+99999999999ADDAY121999AY221999GA1081+002701071GF108991081061002501999999MW1101REMSYN076AAXX  28054 06851 41358 8//// 1//// 2//// 3//// 5//// 71022 886// 333 88709;
0186068510999992011012806004+47250+008767FM-12+052299999V02099999999990027019N0080001N1+99999+99999999999ADDAL10600091AY121061AY221061GA1081+002701071GF108991081061002501999999IA1019MW1101REMSYN094AAXX  28064 06851 41358 8//// 1//// 2//// 3//// 5//// 71022 886// 333 30/// 88709 90768 93100;
0152068510999992011012807004+47250+008767FM-12+052299999V02099999999990027019N0070001N1+99999+99999999999ADDAY121999AY221999GA1081+002701071GF108991081061002501999999MW1101REMSYN076AAXX  28074 06851 41357 8//// 1//// 2//// 3//// 5//// 71022 886// 333 88709;
0152068510999992011012808004+47250+008767FM-12+052299999V02099999999990027019N0080001N1+99999+99999999999ADDAY121999AY221999GA1081+002701061GF108991081051002501999999MW1101REMSYN076AAXX  28084 06851 41358 8//// 1//// 2//// 3//// 5//// 71022 885// 333 88609;
0152068510999992011012809004+47250+008767FM-12+052299999V02099999999990027019N0090001N1+99999+99999999999ADDAY121031AY221031GA1081+002701061GF108991081051002501999999MW1101REMSYN076AAXX  28094 06851 41359 8//// 1//// 2//// 3//// 5//// 71022 885// 333 88609;
0152068510999992011012810004+47250+008767FM-12+052299999V02099999999990027019N0090001N1+99999+99999999999ADDAY121999AY221999GA1081+002701061GF108991081051002501999999MW1101REMSYN076AAXX  28104 06851 41359 8//// 1//// 2//// 3//// 5//// 71022 885// 333 88609;
0124068510999992011012811004+47250+008767FM-12+052299999V02099999999990057019N0120001N1+99999+99999999999ADDGA1081+005701061GF108991081081004501999999REMSYN070AAXX  28114 06851 42462 8//// 1//// 2//// 3//// 5//// 888// 333 88619;
0124068510999992011012812004+47250+008767FM-12+052299999V02099999999990057019N0120001N1+99999+99999999999ADDGA1081+005701061GF108991081081004501999999REMSYN070AAXX  28124 06851 42462 8//// 1//// 2//// 3//// 5//// 888// 333 88619;
0152068510999992011012813004+47250+008767FM-12+052299999V02099999999990039019N0090001N1+99999+99999999999ADDAY121999AY221999GA1081+003901061GF108991081051004501999999MW1101REMSYN076AAXX  28134 06851 41459 8//// 1//// 2//// 3//// 5//// 71022 885// 333 88613;
0152068510999992011012814004+47250+008767FM-12+052299999V02099999999990027019N0090001N1+99999+99999999999ADDAY121999AY221999GA1081+002701061GF108991081061002501999999MW1101REMSYN076AAXX  28144 06851 41359 8//// 1//// 2//// 3//// 5//// 71022 886// 333 88609;
0152068510999992011012815004+47250+008767FM-12+052299999V02099999999990027019N0080001N1+99999+99999999999ADDAY121031AY221031GA1081+002701061GF108991081061002501999999MW1101REMSYN076AAXX  28154 06851 41358 8//// 1//// 2//// 3//// 5//// 71022 886// 333 88609;
0152068510999992011012816004+47250+008767FM-12+052299999V02099999999990039019N0080001N1+99999+99999999999ADDAY121999AY221999GA1081+003901071GF108991081061004501999999MW1101REMSYN076AAXX  28164 06851 41458 8//// 1//// 2//// 3//// 5//// 71022 886// 333 88713;
0152068510999992011012817004+47250+008767FM-12+052299999V02099999999990039019N0080001N1+99999+99999999999ADDAY121999AY221999GA1081+003901071GF108991081061004501999999MW1101REMSYN076AAXX  28174 06851 41458 8//// 1//// 2//// 3//// 5//// 71022 886// 333 88713;
0186068510999992011012818004+47250+008767FM-12+052299999V02099999999990027019N0080001N1+99999+99999999999ADDAL10600091AY121061AY221061GA1081+002701071GF108991081061002501999999IA1019MW1101REMSYN094AAXX  28184 06851 41358 8//// 1//// 2//// 3//// 5//// 71022 886// 333 30/// 88709 90766 93100;
0152068510999992011012819004+47250+008767FM-12+052299999V02099999999990027019N0080001N1+99999+99999999999ADDAY121999AY221999GA1081+002701071GF108991081061002501999999MW1101REMSYN076AAXX  28194 06851 41358 8//// 1//// 2//// 3//// 5//// 71022 886// 333 88709;
0152068510999992011012820004+47250+008767FM-12+052299999V02099999999990027019N0070001N1+99999+99999999999ADDAY121999AY221999GA1081+002701071GF108991081061002501999999MW1101REMSYN076AAXX  28204 06851 41357 8//// 1//// 2//// 3//// 5//// 71022 886// 333 88709;
0152068510999992011012904004+47250+008767FM-12+052299999V02099999999990018019N0060001N1+99999+99999999999ADDAY121999AY221999GA1081+001801071GF108991081061001501999999MW1101REMSYN076AAXX  29044 06851 41256 8//// 1//// 2//// 3//// 5//// 71022 886// 333 88706;
0152068510999992011012905004+47250+008767FM-12+052299999V02099999999990027019N0070001N1+99999+99999999999ADDAY121999AY221999GA1081+002701071GF108991081061002501999999MW1101REMSYN076AAXX  29054 06851 41357 8//// 1//// 2//// 3//// 5//// 71022 886// 333 88709;
0186068510999992011012906004+47250+008767FM-12+052299999V02099999999990027019N0070001N1+99999+99999999999ADDAL10600091AY121061AY221061GA1081+002701071GF108991081061002501999999IA1019MW1051REMSYN094AAXX  29064 06851 41357 8//// 1//// 2//// 3//// 5//// 70522 886// 333 30/// 88709 90768 93100;
0152068510999992011012907004+47250+008767FM-12+052299999V02099999999990027019N0070001N1+99999+99999999999ADDAY121999AY221999GA1081+002701071GF108991081061002501999999MW1101REMSYN076AAXX  29074 06851 41357 8//// 1//// 2//// 3//// 5//// 71022 886// 333 88709;
0152068510999992011012908004+47250+008767FM-12+052299999V02099999999990027019N0080001N1+99999+99999999999ADDAY121999AY221999GA1081+002701071GF108991081061002501999999MW1101REMSYN076AAXX  29084 06851 41358 8//// 1//// 2//// 3//// 5//// 71022 886// 333 88709;
0158068510999992011012909004+47250+008767FM-12+052299999V02099999999990027019N0080001N1+99999+99999999999ADDAY121031AY221031GA1051+002701071GF108991051061002501031999MW1101REMSYN082AAXX  29094 06851 41358 8//// 1//// 2//// 3//// 5//// 71022 8563/ 333 85709 87358;
0158068510999992011012910004+47250+008767FM-12+052299999V02099999999990027019N0060001N1+99999+99999999999ADDAY121999AY221999GA1051+002701071GF108991051061002501031999MW1101REMSYN082AAXX  29104 06851 41356 8//// 1//// 2//// 3//// 5//// 71022 8563/ 333 85709 88358;
0158068510999992011012911004+47250+008767FM-12+052299999V02099999999990027019N0060001N1+99999+99999999999ADDAY121999AY221999GA1061+002701071GF108991061061002501031999MW1101REMSYN082AAXX  29114 06851 41356 8//// 1//// 2//// 3//// 5//// 71022 8663/ 333 86709 87358;
0158068510999992011012912004+47250+008767FM-12+052299999V0209999999999045001CN0060001N1+99999+99999999999ADDAY121061AY221061GA1041+002701071GF107991041061002501031999MW1101REMSYN082AAXX  29124 06851 41356 7//// 1//// 2//// 3//// 5//// 71022 8463/ 333 84709 86358;
0158068510999992011012913004+47250+008767FM-12+052299999V0209999999999045001CN0060001N1+99999+99999999999ADDAY121999AY221999GA1021+002701071GF105991021061002501031999MW1101REMSYN082AAXX  29134 06851 41356 5//// 1//// 2//// 3//// 5//// 71022 8263/ 333 82709 84358;
0158068510999992011012914004+47250+008767FM-12+052299999V02099999999992200019N0060001N1+99999+99999999999ADDAY111999AY211999GA1011+002701071GF103991011061002501031001MW1101REMSYN082AAXX  29144 06851 41356 3//// 1//// 2//// 3//// 5//// 71011 81630 333 81709 83368;
0152068510999992011012915004+47250+008767FM-12+052299999V02099999999999999999N0070001N1+99999+99999999999ADDAY111031AY211031GA1031+075001021GF108991001001999999001081MW1101REMSYN076AAXX  29154 06851 41957 8//// 1//// 2//// 3//// 5//// 71011 80008 333 83275;
0152068510999992011012916004+47250+008767FM-12+052299999V02099999999992200019N0080001N1+99999+99999999999ADDAY101999AY201999GA1021+075001011GF102991001001999999001091MW1101REMSYN076AAXX  29164 06851 41958 2//// 1//// 2//// 3//// 5//// 71000 80009 333 82175;
0152068510999992011012917004+47250+008767FM-12+052299999V02099999999992200019N0080001N1+99999+99999999999ADDAY101999AY201999GA1011+002701071GF101991011061002501001999MW1101REMSYN076AAXX  29174 06851 41358 1//// 1//// 2//// 3//// 5//// 71000 8160/ 333 81709;
0146068510999992011012918004+47250+008767FM-12+052299999V02099999999992200019N0100001N1+99999+99999999999ADDAL10600091GA1001+999999999GF100991001001999999001001IA1019REMSYN076AAXX  29184 06851 42960 0//// 1//// 2//// 3//// 5//// 333 30/// 90766 93100;
0136068510999992011012919004+47250+008767FM-12+052299999V02099999999992200019N0080001N1+99999+99999999999ADDAY101999AY201999GA1001+999999999GF100991001001999999001001MW1101REMSYN060AAXX  29194 06851 41958 0//// 1//// 2//// 3//// 5//// 71000;
0108068510999992011012920004+47250+008767FM-12+052299999V02099999999992200019N0080001N1+99999+99999999999ADDGA1001+999999999GF100991001001999999001001REMSYN054AAXX  29204 06851 42958 0//// 1//// 2//// 3//// 5////;
0136068510999992011013004004+47250+008767FM-12+052299999V02099999999990006019N0009001N1+99999+99999999999ADDAY141999AY241999GA1091+999999999GF109991091999999999999999MW1451REMSYN060AAXX  30044 06851 41/09 9//// 1//// 2//// 3//// 5//// 74544;
0136068510999992011013005004+47250+008767FM-12+052299999V02099999999990006019N0009001N1+99999+99999999999ADDAY141999AY241999GA1091+999999999GF109991091999999999999999MW1431REMSYN060AAXX  30054 06851 41/09 9//// 1//// 2//// 3//// 5//// 74344;
0186068510999992011013006004+47250+008767FM-12+052299999V02099999999990027019N0040001N1+99999+99999999999ADDAL10600091AY141061AY221061GA1081+002701071GF108991081061002501999999IA1019MW1101REMSYN094AAXX  30064 06851 41340 8//// 1//// 2//// 3//// 5//// 71042 886// 333 30/// 88709 90768 93100;
0152068510999992011013007004+47250+008767FM-12+052299999V02099999999990027019N0040001N1+99999+99999999999ADDAY121999AY221999GA1081+002701071GF108991081061002501999999MW1101REMSYN076AAXX  30074 06851 41340 8//// 1//// 2//// 3//// 5//// 71022 886// 333 88709;
0152068510999992011013008004+47250+008767FM-12+052299999V02099999999990018019N0035001N1+99999+99999999999ADDAY121999AY221999GA1081+001801071GF108991081061001501999999MW1101REMSYN076AAXX  30084 06851 41235 8//// 1//// 2//// 3//// 5//// 71022 886// 333 88706;
0152068510999992011013009004+47250+008767FM-12+052299999V02099999999990018019N0020001N1+99999+99999999999ADDAY121031AY221031GA1081+001801071GF108991081061001501999999MW1101REMSYN076AAXX  30094 06851 41220 8//// 1//// 2//// 3//// 5//// 71022 886// 333 88706;
0136068510999992011013010004+47250+008767FM-12+052299999V02099999999990006019N0009001N1+99999+99999999999ADDAY141999AY241999GA1091+999999999GF109991091999999999999999MW1471REMSYN060AAXX  30104 06851 41/09 9//// 1//// 2//// 3//// 5//// 74744;
0136068510999992011013011004+47250+008767FM-12+052299999V02099999999990006019N0008001N1+99999+99999999999ADDAY141999AY241999GA1091+999999999GF109991091999999999999999MW1451REMSYN060AAXX  30114 06851 41/08 9//// 1//// 2//// 3//// 5//// 74544;
0136068510999992011013012004+47250+008767FM-12+052299999V02099999999990006019N0008001N1+99999+99999999999ADDAY141061AY221061GA1091+999999999GF109991091999999999999999MW1451REMSYN060AAXX  30124 06851 41/08 9//// 1//// 2//// 3//// 5//// 74542;
0136068510999992011013013004+47250+008767FM-12+052299999V02099999999990006019N0008001N1+99999+99999999999ADDAY141999AY241999GA1091+999999999GF109991091999999999999999MW1451REMSYN060AAXX  30134 06851 41/08 9//// 1//// 2//// 3//// 5//// 74544;
0136068510999992011013014004+47250+008767FM-12+052299999V02099999999990006019N0008001N1+99999+99999999999ADDAY141999AY241999GA1091+999999999GF109991091999999999999999MW1451REMSYN060AAXX  30144 06851 41/08 9//// 1//// 2//// 3//// 5//// 74544;
0136068510999992011013015004+47250+008767FM-12+052299999V02099999999990006019N0008001N1+99999+99999999999ADDAY141031AY241031GA1091+999999999GF109991091999999999999999MW1451REMSYN060AAXX  30154 06851 41/08 9//// 1//// 2//// 3//// 5//// 74544;
0136068510999992011013016004+47250+008767FM-12+052299999V02099999999990006019N0008001N1+99999+99999999999ADDAY141999AY241999GA1091+999999999GF109991091999999999999999MW1451REMSYN060AAXX  30164 06851 41/08 9//// 1//// 2//// 3//// 5//// 74544;
0136068510999992011013017004+47250+008767FM-12+052299999V02099999999990006019N0008001N1+99999+99999999999ADDAY141999AY241999GA1091+999999999GF109991091999999999999999MW1451REMSYN060AAXX  30174 06851 41/08 9//// 1//// 2//// 3//// 5//// 74544;
0174068510999992011013018004+47250+008767FM-12+052299999V02099999999990006019N0008001N1+99999+99999999999ADDAL10600091AY141061AY241061GA1091+999999999GF109991091999999999999999IA1019MW1451REMSYN082AAXX  30184 06851 41/08 9//// 1//// 2//// 3//// 5//// 74544 333 30/// 90766 93100;
0136068510999992011013019004+47250+008767FM-12+052299999V02099999999990006019N0008001N1+99999+99999999999ADDAY141999AY241999GA1091+999999999GF109991091999999999999999MW1451REMSYN060AAXX  30194 06851 41/08 9//// 1//// 2//// 3//// 5//// 74544;
0136068510999992011013020004+47250+008767FM-12+052299999V02099999999990006019N0008001N1+99999+99999999999ADDAY141999AY241999GA1091+999999999GF109991091999999999999999MW1451REMSYN060AAXX  30204 06851 41/08 9//// 1//// 2//// 3//// 5//// 74544;
0136068510999992011013104004+47250+008767FM-12+052299999V02099999999990003019N0005001N1+99999+99999999999ADDAY141999AY221999GA1091+999999999GF109991091999999999999999MW1451REMSYN060AAXX  31044 06851 41/05 9//// 1//// 2//// 3//// 5//// 74542;
0152068510999992011013105004+47250+008767FM-12+052299999V02099999999990024019N0080001N1+99999+99999999999ADDAY141999AY221999GA1081+002401041GF108991081061002501999999MW1101REMSYN076AAXX  31054 06851 41358 8//// 1//// 2//// 3//// 5//// 71042 886// 333 88408;
0186068510999992011013106004+47250+008767FM-12+052299999V02099999999990027019N0090001N1+99999+99999999999ADDAL10600091AY121061AY221061GA1081+002701071GF108991081061002501999999IA1149MW1101REMSYN094AAXX  31064 06851 41359 8//// 1//// 2//// 3//// 5//// 71022 886// 333 34/// 88709 90768 93100;
0152068510999992011013107004+47250+008767FM-12+052299999V02099999999990018019N0040001N1+99999+99999999999ADDAY121999AY221999GA1081+001801071GF108991081061001501999999MW1101REMSYN076AAXX  31074 06851 41240 8//// 1//// 2//// 3//// 5//// 71022 886// 333 88706;
0136068510999992011013108004+47250+008767FM-12+052299999V02099999999990006019N0008001N1+99999+99999999999ADDAY141999AY221999GA1091+999999999GF109991091999999999999999MW1471REMSYN060AAXX  31084 06851 41/08 9//// 1//// 2//// 3//// 5//// 74742;
0136068510999992011013109004+47250+008767FM-12+052299999V02099999999990006019N0007001N1+99999+99999999999ADDAY141031AY241031GA1091+999999999GF109991091999999999999999MW1471REMSYN060AAXX  31094 06851 41/07 9//// 1//// 2//// 3//// 5//// 74744;
0136068510999992011013110004+47250+008767FM-12+052299999V02099999999990006019N0007001N1+99999+99999999999ADDAY141999AY241999GA1091+999999999GF109991091999999999999999MW1451REMSYN060AAXX  31104 06851 41/07 9//// 1//// 2//// 3//// 5//// 74544;
0136068510999992011013111004+47250+008767FM-12+052299999V02099999999990006019N0007001N1+99999+99999999999ADDAY141999AY241999GA1091+999999999GF109991091999999999999999MW1451REMSYN060AAXX  31114 06851 41/07 9//// 1//// 2//// 3//// 5//// 74544;
0136068510999992011013112004+47250+008767FM-12+052299999V02099999999990006019N0006001N1+99999+99999999999ADDAY141061AY241061GA1091+999999999GF109991091999999999999999MW1471REMSYN060AAXX  31124 06851 41/06 9//// 1//// 2//// 3//// 5//// 74744;
0136068510999992011013113004+47250+008767FM-12+052299999V02099999999990006019N0006001N1+99999+99999999999ADDAY141999AY221999GA1091+999999999GF109991091999999999999999MW1451REMSYN060AAXX  31134 06851 41/06 9//// 1//// 2//// 3//// 5//// 74542;
0136068510999992011013114004+47250+008767FM-12+052299999V02099999999990003019N0005001N1+99999+99999999999ADDAY141999AY221999GA1091+999999999GF109991091999999999999999MW1451REMSYN060AAXX  31144 06851 41/05 9//// 1//// 2//// 3//// 5//// 74542;
0136068510999992011013115004+47250+008767FM-12+052299999V02099999999990006019N0009001N1+99999+99999999999ADDAY141031AY221031GA1091+999999999GF109991091999999999999999MW1451REMSYN060AAXX  31154 06851 41/09 9//// 1//// 2//// 3//// 5//// 74542;
0136068510999992011013116004+47250+008767FM-12+052299999V02099999999990006019N0007001N1+99999+99999999999ADDAY141999AY241999GA1091+999999999GF109991091999999999999999MW1451REMSYN060AAXX  31164 06851 41/07 9//// 1//// 2//// 3//// 5//// 74544;
0136068510999992011013117004+47250+008767FM-12+052299999V02099999999990006019N0007001N1+99999+99999999999ADDAY141999AY241999GA1091+999999999GF109991091999999999999999MW1451REMSYN060AAXX  31174 06851 41/07 9//// 1//// 2//// 3//// 5//// 74544;
0174068510999992011013118004+47250+008767FM-12+052299999V02099999999999999999N0750001N1+99999+99999999999ADDAL10600091AY141061AY241061GA1091+999999999GF109991091999999999999999IA1019MW1451REMSYN082AAXX  31184 06851 41/89 9//// 1//// 2//// 3//// 5//// 74544 333 30/// 90766 93100;
0136068510999992011013119004+47250+008767FM-12+052299999V02099999999990006019N0007001N1+99999+99999999999ADDAY141999AY241999GA1091+999999999GF109991091999999999999999MW1451REMSYN060AAXX  31194 06851 41/07 9//// 1//// 2//// 3//// 5//// 74544;
0136068510999992011013120004+47250+008767FM-12+052299999V02099999999990006019N0007001N1+99999+99999999999ADDAY141999AY241999GA1091+999999999GF109991091999999999999999MW1451REMSYN060AAXX  31204 06851 41/07 9//// 1//// 2//// 3//// 5//// 74544;
0136068510999992011020104004+47250+008767FM-12+052299999V02099999999990006019N0008001N1+99999+99999999999ADDAY141999AY241999GA1091+999999999GF109991091999999999999999MW1451REMSYN060AAXX  01044 06851 41/08 9//// 1//// 2//// 3//// 5//// 74544;
0136068510999992011020105004+47250+008767FM-12+052299999V02099999999990006019N0009001N1+99999+99999999999ADDAY141999AY241999GA1091+999999999GF109991091999999999999999MW1451REMSYN060AAXX  01054 06851 41/09 9//// 1//// 2//// 3//// 5//// 74544;
0186068510999992011020106004+47250+008767FM-12+052299999V02099999999990027019N0020001N1+99999+99999999999ADDAL10600091AY121061AY221061GA1081+002701071GF108991081061002501999999IA1019MW1101REMSYN094AAXX  01064 06851 41320 8//// 1//// 2//// 3//// 5//// 71022 886// 333 30/// 88709 90768 93100;
0152068510999992011020107004+47250+008767FM-12+052299999V02099999999990018019N0020001N1+99999+99999999999ADDAY121999AY221999GA1081+001801071GF108991081071001501999999MW1101REMSYN076AAXX  01074 06851 41220 8//// 1//// 2//// 3//// 5//// 71022 887// 333 88706;
0136068510999992011020108004+47250+008767FM-12+052299999V02099999999990006019N0008001N1+99999+99999999999ADDAY141999AY241999GA1091+999999999GF109991091999999999999999MW1451REMSYN060AAXX  01084 06851 41/08 9//// 1//// 2//// 3//// 5//// 74544;
0136068510999992011020109004+47250+008767FM-12+052299999V02099999999990006019N0007001N1+99999+99999999999ADDAY141031AY241031GA1091+999999999GF109991091999999999999999MW1451REMSYN060AAXX  01094 06851 41/07 9//// 1//// 2//// 3//// 5//// 74544;
0136068510999992011020110004+47250+008767FM-12+052299999V02099999999990006019N0007001N1+99999+99999999999ADDAY141999AY241999GA1091+999999999GF109991091999999999999999MW1451REMSYN060AAXX  01104 06851 41/07 9//// 1//// 2//// 3//// 5//// 74544;
0136068510999992011020111004+47250+008767FM-12+052299999V02099999999990006019N0006001N1+99999+99999999999ADDAY141999AY221999GA1091+999999999GF109991091999999999999999MW1451REMSYN060AAXX  01114 06851 41/06 9//// 1//// 2//// 3//// 5//// 74542;
0136068510999992011020112004+47250+008767FM-12+052299999V02099999999990003019N0005001N1+99999+99999999999ADDAY141061AY221061GA1091+999999999GF109991091999999999999999MW1451REMSYN060AAXX  01124 06851 41/05 9//// 1//// 2//// 3//// 5//// 74542;
0136068510999992011020113004+47250+008767FM-12+052299999V02099999999990006019N0007001N1+99999+99999999999ADDAY141999AY221999GA1091+999999999GF109991091999999999999999MW1451REMSYN060AAXX  01134 06851 41/07 9//// 1//// 2//// 3//// 5//// 74542;
0136068510999992011020114004+47250+008767FM-12+052299999V02099999999990006019N0008001N1+99999+99999999999ADDAY141999AY221999GA1091+999999999GF109991091999999999999999MW1451REMSYN060AAXX  01144 06851 41/08 9//// 1//// 2//// 3//// 5//// 74542;
0136068510999992011020115004+47250+008767FM-12+052299999V02099999999990006019N0007001N1+99999+99999999999ADDAY141031AY221031GA1091+999999999GF109991091999999999999999MW1451REMSYN060AAXX  01154 06851 41/07 9//// 1//// 2//// 3//// 5//// 74542;
0136068510999992011020116004+47250+008767FM-12+052299999V02099999999990006019N0007001N1+99999+99999999999ADDAY141999AY241999GA1091+999999999GF109991091999999999999999MW1451REMSYN060AAXX  01164 06851 41/07 9//// 1//// 2//// 3//// 5//// 74544;
0136068510999992011020117004+47250+008767FM-12+052299999V02099999999990006019N0007001N1+99999+99999999999ADDAY141999AY241999GA1091+999999999GF109991091999999999999999MW1451REMSYN060AAXX  01174 06851 41/07 9//// 1//// 2//// 3//// 5//// 74544;
0174068510999992011020118004+47250+008767FM-12+052299999V02099999999990006019N0007001N1+99999+99999999999ADDAL10600091AY141061AY241061GA1091+999999999GF109991091999999999999999IA1149MW1451REMSYN082AAXX  01184 06851 41/07 9//// 1//// 2//// 3//// 5//// 74544 333 34/// 90766 93100;
0104068510999992011020119004+47250+008767FM-12+052299999V02099999999999999999N0750001N1+99999+99999999999ADDAY191999AY201999MW1041REMSYN070AAXX  01194 06851 41/89 ///// 1//// 2//// 3//// 5//// 70490 444 81104;
